PL6.E3A0      #001=Z8E7$STMT_ASSIGNMENT File=Z8E7.:Z8A6TSI                       SAT 08/09/97 11:35 Page:1
        1        1        /*T***********************************************************/
        2        2        /*T*                                                         */
        3        3        /*T* Copyright (c) Bull HN Information Systems Inc., 1997    */
        4        4        /*T*                                                         */
        5        5        /*T***********************************************************/
        6        6        /*===============*/
        7        7          Z8E7$STMT_ASSIGNMENT: PROC (LOP$, ROP$, LABEL$, STATEMENT_TYPE);
        8        8        /*===============*/
        9        9
       10       10    1        DCL LOP$ PTR;
       11       11    1        DCL ROP$ PTR;
       12       12    1        DCL LABEL$ PTR;
       13       13
       14       14    1        DCL ROP$$  PTR;
       15       15    1        DCL LOP$$  PTR;
       16       16
       17       17    1        DCL TEMP$  PTR;
       18       18    1        DCL ETT$$  PTR;
       19       19    1        DCL LTS$$  PTR ;                                       /*#28637*/
       20       20
       21       21    1        DCL ID      SBIN WORD;
       22       22    1        DCL FROM$$  PTR;
       23       23    1        DCL LOP_LENGTH$   PTR;
       24       24
       25       25             %EQU PHASE = 01;
       26       26             %EQU MAX_BUF_LEN = 512;
       27       27
       28       28             %INCLUDE Z8A_DEFC;
       29       96             %INCLUDE Z8A_SUPP_MAC;
       30     2496             %INCLUDE Z9A_FLAGS;
       31     2510             %INCLUDE Z8E_STACKS;
       32     4776             %INCLUDE Z8E_MACROS;
       33     5451             %INCLUDE Z8E_WINDOW;
       34     7521             %INCLUDE Z8E_O1COM;
       35     8282             %INCLUDE Z8E_ILS_LIST;
       36     8366             %INCLUDE Z8E_ABSSYN;
       37     8572             %INCLUDE Z8E_STATEMNT;
PL6.E3A0      #001=Z8E7$STMT_ASSIGNMENT File=Z8E7.:Z8A6TSI                       SAT 08/09/97 11:35 Page:2
       38     8641             %INCLUDE Z8A_ILL;
       39     9334             %INCLUDE Z8A_LIBRARY;
       40     9548             %INCLUDE Z8A_ILS;
       41     9657             %INCLUDE Z8A_TYPES;
       42     9831             %INCLUDE Z8A_DESC;
       43     9877             %INCLUDE Z8A_ETT;
       44    10178             %INCLUDE Z8A_DNT;
       45    10399             %INCLUDE Z8A_ST;
       46    14058             %INCLUDE Z8A_LTS;
       47    16135             %INCLUDE Z8A_ERR_NUMS;
       48    16899             %INCLUDE Z8A_COMCOM;
       49    17549             %INCLUDE Z8A_MKCN;
       50    17566             %INCLUDE Z8E_DML;
       51    17686             %INCLUDE Z8A_QLT;
       52    17792
       53    17793
       54    17794    1        DCL 1 TYPE_DESC ALIGNED,
       55    17795                   %TYPE_DESC;
       56    17829
       57    17830    1        DCL 1 LOP_DESC ALIGNED,
       58    17831                   %TYPE_DESC;
       59    17865
       60    17866    1        DCL 1 ROP_DESC ALIGNED,
       61    17867                   %TYPE_DESC;
       62    17901
       63    17902    1        DCL LOP_LENGTH     SBIN WORD;
       64    17903    1        DCL LOP_SCALE      SBIN WORD;
       65    17904
       66    17905    1        DCL ROP_LENGTH     SBIN WORD;
       67    17906    1        DCL ROP_SCALE      SBIN WORD;
       68    17907    1        DCL LIB_OFFSET     UBIN;
       69    17908    1        DCL ETT_ITEM_COUNT SBIN;
       70    17909    1        DCL J              SBIN;
       71    17910    1        DCL ID1            UBIN;
       72    17911
       73    17912    1        DCL STATEMENT_TYPE SBIN;
       74    17913    1        DCL STATEMENT_TYPE_A  SBIN;
PL6.E3A0      #001=Z8E7$STMT_ASSIGNMENT File=Z8E7.:Z8A6TSI                       SAT 08/09/97 11:35 Page:3
       75    17914
       76    17915    1        DCL TREE$          PTR;
       77    17916    1        DCL ST$$           PTR;
       78    17917
       79    17918    1        DCL LOP_ST$           PTR;
       80    17919    1        DCL ON_SIZE           BIT (1) ALIGNED;
       81    17920    1        DCL MOVE_STATEMENT    BIT (1) ALIGNED;
       82    17921    1        DCL ROP_ST$        PTR;
       83    17922    1        DCL GBCD_LOP$      PTR;
       84    17923    1        DCL GBCD_NUMERIC_LOP BOOLEAN;
       85    17924
       86    17925    1        DCL NEL$$          PTR;
       87    17926
       88    17927    1        DCL DNT$$          PTR;
       89    17928    1        DCL TEMP_ROP$      PTR;
       90    17929    1        DCL 1 TEMP_ROPCON  REDEF TEMP_ROP$,
       91    17930    1              2 VALUE      SBIN HALF HALIGNED,
       92    17931    1              2 TYPE       UBIN HALF HALIGNED;
       93    17932    1        DCL LOWER$         PTR;
       94    17933    1        DCL UPPER$         PTR;
       95    17934    1        DCL TABLE_ETT$     PTR;
       96    17935
       97    17936    1        DCL IN_SAME_GROUP  BOOLEAN ;
       98    17937
       99    17938    1        DCL Z8AF$FORME             ENTRY(4);
      100    17939    1        DCL Z8AF$FORME_ON_SIZE     ENTRY (5);
      101    17940    1        DCL Z8AF$NEW_BASE          ENTRY(3);
      102    17941    1        DCL Z8CO$CREATE_LIBRARY_BASE ENTRY(2);
      103    17942    1        DCL Z8AT$CREATE_TEMPORARY ENTRY (2);
      104    17943    1        DCL Z8EV$COMPATIBLE_TYPES_ROUND      ENTRY (5) ALTRET;
      105    17944    1        DCL Z8EC$NEW_CONST_WITH_TYPE_DESC ENTRY (3) ALTRET;
      106    17945    1        DCL Z8AE$ERROR            ENTRY(12);
      107    17946    1        DCL Z8EU$NEW_TEMP_FROM_ETT ENTRY(2);
      108    17947    1        DCL Z8AU$LENGTH_ETT        ENTRY(2);
      109    17948    1        DCL Z8E7$ROUNDING          ENTRY(3);
      110    17949    1        DCL Z8E7$EDITED            ENTRY(3) ALTRET;
      111    17950    1        DCL Z8E7$MOVE_SEMANTIC_CHECKS ENTRY (3) ALTRET;
PL6.E3A0      #001=Z8E7$STMT_ASSIGNMENT File=Z8E7.:Z8A6TSI                       SAT 08/09/97 11:35 Page:4
      112    17951    1        DCL Z8EV$CONVERT           ENTRY(3);
      113    17952    1        DCL Z8EV$CONVERT_ON_SIZE   ENTRY(4);
      114    17953    1        DCL Z8EV$WORD_TO_BYTE_UNITS ENTRY(2);
      115    17954    1        DCL Z8AU$TYPE_DESCRIPTOR   ENTRY(2);
      116    17955    1        DCL Z8AC$MAKE_CONST        ENTRY(1);
      117    17956    1        DCL Z8AC$MAKE_TYA_CONST    ENTRY (4);
      118    17957    1        DCL Z9EY$BUILD_RUNTIME_DESCRIPTOR  ENTRY(3);
      119    17958    1        DCL Z8EY$BUILD_RUNTIME_ARGLIST     ENTRY(3);
      120    17959    1        DCL Z8EK$RANGE             ENTRY(4);
      121    17960    1        DCL Z8EK$BRANCH_FALSE       ENTRY(2);
      122    17961    1        DCL Z8EU$NEW_TEMP_FROM_DESC ENTRY(2);
      123    17962    1        DCL Z8AC$LX_ETT_ITEM_TYI_CONST ENTRY(2);
      124    17963    1        DCL Z8ED$DISPOSE_ABSSYN_TREE ENTRY(1);
      125    17964
      126    17965             %DCL_AUTO_LX_ITEM( @NAME = TEMP_LOP_ITEM );
      127    17969             %DCL_AUTO_LX_ITEM( @NAME = TEMP_ROP_ITEM );
      128    17973             %DCL_AUTO_LX_ITEM( @NAME = TEMP_LX_ETT_ITEM );
      129    17977             %DCL_AUTO_LX_ITEM( @NAME = TEMP_LX_TERMINAL );
      130    17981
      131    17982             %DCL_AUTO_LX_ITEM( @NAME = UPPER_LX_ETT_ITEM );
      132    17986             %DCL_AUTO_LX_ITEM( @NAME = LOWER_LX_ETT_ITEM );
      133    17990        %EJECT;
PL6.E3A0      #001=Z8E7$STMT_ASSIGNMENT File=Z8E7.:Z8A6TSI                       SAT 08/09/97 11:35 Page:5
      134    17991
      135    17992
      136    17993        %TYPE_MATRIX_BEGIN(@NAME = MOVE_MATRIX);
      137    17997          %TYPE_MATRIX_ENTRY(@LOP = %TYI, @ROP = %TYI, @LOP_BECOMES = %TYI, @ROP_BECOMES =
             17997              %TYI);
      138    18006          %TYPE_MATRIX_ENTRY(@LOP = %TYI, @ROP = %TYD, @LOP_BECOMES = %TYI, @ROP_BECOMES =
             18006              %TYI);
      139    18015          %TYPE_MATRIX_ENTRY(@LOP = %TYI, @ROP = %TYH, @LOP_BECOMES = %TYI, @ROP_BECOMES =
             18015              %TYI);
      140    18024          %TYPE_MATRIX_ENTRY(@LOP = %TYI, @ROP = %TYR, @LOP_BECOMES = %TYI, @ROP_BECOMES =
             18024              %TYI);
      141    18033          %TYPE_MATRIX_ENTRY(@LOP = %TYI, @ROP = %TYQ, @LOP_BECOMES = %TYI, @ROP_BECOMES =
             18033              %TYI);
      142    18042          %TYPE_MATRIX_ENTRY(@LOP = %TYI, @ROP = %TYJ, @LOP_BECOMES = %TYI, @ROP_BECOMES =
             18042              %TYI);
      143    18051          %TYPE_MATRIX_ENTRY(@LOP = %TYI, @ROP = %TYO, @LOP_BECOMES = %TYI, @ROP_BECOMES =
             18051              %TYI);
      144    18060          %TYPE_MATRIX_ENTRY(@LOP = %TYI, @ROP = %TYK, @LOP_BECOMES = %TYI, @ROP_BECOMES =
             18060              %TYI);
      145    18069          %TYPE_MATRIX_ENTRY(@LOP = %TYI, @ROP = %TYA, @LOP_BECOMES = %TYI, @ROP_BECOMES =
             18069              %TYI);
      146    18078          %TYPE_MATRIX_ENTRY(@LOP = %TYI, @ROP = %TYE, @LOP_BECOMES = %TYI, @ROP_BECOMES =
             18078              %TYI);
      147    18087          %TYPE_MATRIX_ENTRY(@LOP = %TYI, @ROP = %TYF, @LOP_BECOMES = %TYI, @ROP_BECOMES =
             18087              %TYI);
      148    18096          %TYPE_MATRIX_ENTRY(@LOP = %TYI, @ROP = %TYB, @LOP_BECOMES = %TYI, @ROP_BECOMES =
             18096              %TYI);
      149    18105          %TYPE_MATRIX_ENTRY(@LOP = %TYI, @ROP = %TYT, @LOP_BECOMES = %TYI, @ROP_BECOMES =
             18105              %TYI);
      150    18114          %TYPE_MATRIX_ENTRY(@LOP = %TYD, @ROP = %TYI, @LOP_BECOMES = %TYD, @ROP_BECOMES =
             18114              %TYD);
      151    18123          %TYPE_MATRIX_ENTRY(@LOP = %TYD, @ROP = %TYD, @LOP_BECOMES = %TYD, @ROP_BECOMES =
             18123              %TYD);
      152    18132          %TYPE_MATRIX_ENTRY(@LOP = %TYD, @ROP = %TYH, @LOP_BECOMES = %TYD, @ROP_BECOMES =
             18132              %TYD);
      153    18141          %TYPE_MATRIX_ENTRY(@LOP = %TYD, @ROP = %TYR, @LOP_BECOMES = %TYD, @ROP_BECOMES =
             18141              %TYD);
PL6.E3A0      #001=Z8E7$STMT_ASSIGNMENT File=Z8E7.:Z8A6TSI                       SAT 08/09/97 11:35 Page:6
      154    18150          %TYPE_MATRIX_ENTRY(@LOP = %TYD, @ROP = %TYQ, @LOP_BECOMES = %TYD, @ROP_BECOMES =
             18150              %TYD);
      155    18159          %TYPE_MATRIX_ENTRY(@LOP = %TYD, @ROP = %TYJ, @LOP_BECOMES = %TYD, @ROP_BECOMES =
             18159              %TYD);
      156    18168          %TYPE_MATRIX_ENTRY(@LOP = %TYD, @ROP = %TYO, @LOP_BECOMES = %TYD, @ROP_BECOMES =
             18168              %TYO);
      157    18177          %TYPE_MATRIX_ENTRY(@LOP = %TYD, @ROP = %TYK, @LOP_BECOMES = %TYD, @ROP_BECOMES =
             18177              %TYD);
      158    18186          %TYPE_MATRIX_ENTRY(@LOP = %TYD, @ROP = %TYA, @LOP_BECOMES = %TYD, @ROP_BECOMES =
             18186              %TYD);
      159    18195          %TYPE_MATRIX_ENTRY(@LOP = %TYD, @ROP = %TYE, @LOP_BECOMES = %TYD, @ROP_BECOMES =
             18195              %TYD);
      160    18204          %TYPE_MATRIX_ENTRY(@LOP = %TYD, @ROP = %TYF, @LOP_BECOMES = %TYD, @ROP_BECOMES =
             18204              %TYF);
      161    18213          %TYPE_MATRIX_ENTRY(@LOP = %TYD, @ROP = %TYB, @LOP_BECOMES = %TYD, @ROP_BECOMES =
             18213              %TYD);
      162    18222          %TYPE_MATRIX_ENTRY(@LOP = %TYD, @ROP = %TYT, @LOP_BECOMES = %TYD, @ROP_BECOMES =
             18222              %TYD);
      163    18231          %TYPE_MATRIX_ENTRY(@LOP = %TYH, @ROP = %TYI, @LOP_BECOMES = %TYH, @ROP_BECOMES =
             18231              %TYH);
      164    18240          %TYPE_MATRIX_ENTRY(@LOP = %TYH, @ROP = %TYD, @LOP_BECOMES = %TYH, @ROP_BECOMES =
             18240              %TYH);
      165    18249          %TYPE_MATRIX_ENTRY(@LOP = %TYH, @ROP = %TYH, @LOP_BECOMES = %TYH, @ROP_BECOMES =
             18249              %TYH);
      166    18258          %TYPE_MATRIX_ENTRY(@LOP = %TYH, @ROP = %TYR, @LOP_BECOMES = %TYH, @ROP_BECOMES =
             18258              %TYH);
      167    18267          %TYPE_MATRIX_ENTRY(@LOP = %TYH, @ROP = %TYQ, @LOP_BECOMES = %TYH, @ROP_BECOMES =
             18267              %TYH);
      168    18276          %TYPE_MATRIX_ENTRY(@LOP = %TYH, @ROP = %TYJ, @LOP_BECOMES = %TYH, @ROP_BECOMES =
             18276              %TYH);
      169    18285          %TYPE_MATRIX_ENTRY(@LOP = %TYH, @ROP = %TYO, @LOP_BECOMES = %TYH, @ROP_BECOMES =
             18285              %TYH);
      170    18294          %TYPE_MATRIX_ENTRY(@LOP = %TYH, @ROP = %TYK, @LOP_BECOMES = %TYH, @ROP_BECOMES =
             18294              %TYH);
      171    18303          %TYPE_MATRIX_ENTRY(@LOP = %TYH, @ROP = %TYA, @LOP_BECOMES = %TYH, @ROP_BECOMES =
             18303              %TYH);
      172    18312          %TYPE_MATRIX_ENTRY(@LOP = %TYH, @ROP = %TYE, @LOP_BECOMES = %TYH, @ROP_BECOMES =
PL6.E3A0      #001=Z8E7$STMT_ASSIGNMENT File=Z8E7.:Z8A6TSI                       SAT 08/09/97 11:35 Page:7
             18312              %TYH);
      173    18321          %TYPE_MATRIX_ENTRY(@LOP = %TYH, @ROP = %TYF, @LOP_BECOMES = %TYH, @ROP_BECOMES =
             18321              %TYH);
      174    18330          %TYPE_MATRIX_ENTRY(@LOP = %TYH, @ROP = %TYB, @LOP_BECOMES = %TYH, @ROP_BECOMES =
             18330              %TYH);
      175    18339          %TYPE_MATRIX_ENTRY(@LOP = %TYH, @ROP = %TYT, @LOP_BECOMES = %TYH, @ROP_BECOMES =
             18339              %TYH);
      176    18348          %TYPE_MATRIX_ENTRY(@LOP = %TYR, @ROP = %TYI, @LOP_BECOMES = %TYR, @ROP_BECOMES =
             18348              %TYR);
      177    18357          %TYPE_MATRIX_ENTRY(@LOP = %TYR, @ROP = %TYD, @LOP_BECOMES = %TYR, @ROP_BECOMES =
             18357              %TYR);
      178    18366          %TYPE_MATRIX_ENTRY(@LOP = %TYR, @ROP = %TYH, @LOP_BECOMES = %TYR, @ROP_BECOMES =
             18366              %TYR);
      179    18375          %TYPE_MATRIX_ENTRY(@LOP = %TYR, @ROP = %TYR, @LOP_BECOMES = %TYR, @ROP_BECOMES =
             18375              %TYR);
      180    18384          %TYPE_MATRIX_ENTRY(@LOP = %TYR, @ROP = %TYQ, @LOP_BECOMES = %TYR, @ROP_BECOMES =
             18384              %TYR);
      181    18393          %TYPE_MATRIX_ENTRY(@LOP = %TYR, @ROP = %TYJ, @LOP_BECOMES = %TYR, @ROP_BECOMES =
             18393              %TYR);
      182    18402          %TYPE_MATRIX_ENTRY(@LOP = %TYR, @ROP = %TYO, @LOP_BECOMES = %TYR, @ROP_BECOMES =
             18402              %TYR);
      183    18411          %TYPE_MATRIX_ENTRY(@LOP = %TYR, @ROP = %TYK, @LOP_BECOMES = %TYR, @ROP_BECOMES =
             18411              %TYR);
      184    18420          %TYPE_MATRIX_ENTRY(@LOP = %TYR, @ROP = %TYA, @LOP_BECOMES = %TYR, @ROP_BECOMES =
             18420              %TYR);
      185    18429          %TYPE_MATRIX_ENTRY(@LOP = %TYR, @ROP = %TYE, @LOP_BECOMES = %TYR, @ROP_BECOMES =
             18429              %TYR);
      186    18438          %TYPE_MATRIX_ENTRY(@LOP = %TYR, @ROP = %TYF, @LOP_BECOMES = %TYR, @ROP_BECOMES =
             18438              %TYR);
      187    18447          %TYPE_MATRIX_ENTRY(@LOP = %TYR, @ROP = %TYB, @LOP_BECOMES = %TYR, @ROP_BECOMES =
             18447              %TYR);
      188    18456          %TYPE_MATRIX_ENTRY(@LOP = %TYR, @ROP = %TYT, @LOP_BECOMES = %TYR, @ROP_BECOMES =
             18456              %TYR);
      189    18465          %TYPE_MATRIX_ENTRY(@LOP = %TYQ, @ROP = %TYI, @LOP_BECOMES = %TYQ, @ROP_BECOMES =
             18465              %TYQ);
      190    18474          %TYPE_MATRIX_ENTRY(@LOP = %TYQ, @ROP = %TYD, @LOP_BECOMES = %TYQ, @ROP_BECOMES =
             18474              %TYQ);
PL6.E3A0      #001=Z8E7$STMT_ASSIGNMENT File=Z8E7.:Z8A6TSI                       SAT 08/09/97 11:35 Page:8
      191    18483          %TYPE_MATRIX_ENTRY(@LOP = %TYQ, @ROP = %TYH, @LOP_BECOMES = %TYQ, @ROP_BECOMES =
             18483              %TYQ);
      192    18492          %TYPE_MATRIX_ENTRY(@LOP = %TYQ, @ROP = %TYR, @LOP_BECOMES = %TYQ, @ROP_BECOMES =
             18492              %TYQ);
      193    18501          %TYPE_MATRIX_ENTRY(@LOP = %TYQ, @ROP = %TYQ, @LOP_BECOMES = %TYQ, @ROP_BECOMES =
             18501              %TYQ);
      194    18510          %TYPE_MATRIX_ENTRY(@LOP = %TYQ, @ROP = %TYJ, @LOP_BECOMES = %TYQ, @ROP_BECOMES =
             18510              %TYQ);
      195    18519          %TYPE_MATRIX_ENTRY(@LOP = %TYQ, @ROP = %TYO, @LOP_BECOMES = %TYQ, @ROP_BECOMES =
             18519              %TYQ);
      196    18528          %TYPE_MATRIX_ENTRY(@LOP = %TYQ, @ROP = %TYK, @LOP_BECOMES = %TYQ, @ROP_BECOMES =
             18528              %TYQ);
      197    18537          %TYPE_MATRIX_ENTRY(@LOP = %TYQ, @ROP = %TYA, @LOP_BECOMES = %TYQ, @ROP_BECOMES =
             18537              %TYQ);
      198    18546          %TYPE_MATRIX_ENTRY(@LOP = %TYQ, @ROP = %TYE, @LOP_BECOMES = %TYQ, @ROP_BECOMES =
             18546              %TYQ);
      199    18555          %TYPE_MATRIX_ENTRY(@LOP = %TYQ, @ROP = %TYF, @LOP_BECOMES = %TYQ, @ROP_BECOMES =
             18555              %TYQ);
      200    18564          %TYPE_MATRIX_ENTRY(@LOP = %TYQ, @ROP = %TYB, @LOP_BECOMES = %TYQ, @ROP_BECOMES =
             18564              %TYQ);
      201    18573          %TYPE_MATRIX_ENTRY(@LOP = %TYQ, @ROP = %TYT, @LOP_BECOMES = %TYQ, @ROP_BECOMES =
             18573              %TYQ);
      202    18582          %TYPE_MATRIX_ENTRY(@LOP = %TYJ, @ROP = %TYI, @LOP_BECOMES = %TYJ, @ROP_BECOMES =
             18582              %TYJ);
      203    18591          %TYPE_MATRIX_ENTRY(@LOP = %TYJ, @ROP = %TYD, @LOP_BECOMES = %TYJ, @ROP_BECOMES =
             18591              %TYJ);
      204    18600          %TYPE_MATRIX_ENTRY(@LOP = %TYJ, @ROP = %TYH, @LOP_BECOMES = %TYJ, @ROP_BECOMES =
             18600              %TYJ);
      205    18609          %TYPE_MATRIX_ENTRY(@LOP = %TYJ, @ROP = %TYR, @LOP_BECOMES = %TYJ, @ROP_BECOMES =
             18609              %TYJ);
      206    18618          %TYPE_MATRIX_ENTRY(@LOP = %TYJ, @ROP = %TYQ, @LOP_BECOMES = %TYJ, @ROP_BECOMES =
             18618              %TYJ);
      207    18627          %TYPE_MATRIX_ENTRY(@LOP = %TYJ, @ROP = %TYJ, @LOP_BECOMES = %TYJ, @ROP_BECOMES =
             18627              %TYJ);
      208    18636          %TYPE_MATRIX_ENTRY(@LOP = %TYJ, @ROP = %TYO, @LOP_BECOMES = %TYJ, @ROP_BECOMES =
             18636              %TYJ);
      209    18645          %TYPE_MATRIX_ENTRY(@LOP = %TYJ, @ROP = %TYK, @LOP_BECOMES = %TYJ, @ROP_BECOMES =
PL6.E3A0      #001=Z8E7$STMT_ASSIGNMENT File=Z8E7.:Z8A6TSI                       SAT 08/09/97 11:35 Page:9
             18645              %TYJ);
      210    18654          %TYPE_MATRIX_ENTRY(@LOP = %TYJ, @ROP = %TYA, @LOP_BECOMES = %TYJ, @ROP_BECOMES =
             18654              %TYJ);
      211    18663          %TYPE_MATRIX_ENTRY(@LOP = %TYJ, @ROP = %TYE, @LOP_BECOMES = %TYJ, @ROP_BECOMES =
             18663              %TYJ);
      212    18672          %TYPE_MATRIX_ENTRY(@LOP = %TYJ, @ROP = %TYF, @LOP_BECOMES = %TYJ, @ROP_BECOMES =
             18672              %TYJ);
      213    18681          %TYPE_MATRIX_ENTRY(@LOP = %TYJ, @ROP = %TYB, @LOP_BECOMES = %TYJ, @ROP_BECOMES =
             18681              %TYJ);
      214    18690          %TYPE_MATRIX_ENTRY(@LOP = %TYJ, @ROP = %TYT, @LOP_BECOMES = %TYJ, @ROP_BECOMES =
             18690              %TYJ);
      215    18699          %TYPE_MATRIX_ENTRY(@LOP = %TYO, @ROP = %TYI, @LOP_BECOMES = %TYO, @ROP_BECOMES =
             18699              %TYD);
      216    18708          %TYPE_MATRIX_ENTRY(@LOP = %TYO, @ROP = %TYD, @LOP_BECOMES = %TYO, @ROP_BECOMES =
             18708              %TYD);
      217    18717          %TYPE_MATRIX_ENTRY(@LOP = %TYO, @ROP = %TYH, @LOP_BECOMES = %TYO, @ROP_BECOMES =
             18717              %TYD);
      218    18726          %TYPE_MATRIX_ENTRY(@LOP = %TYO, @ROP = %TYR, @LOP_BECOMES = %TYO, @ROP_BECOMES =
             18726              %TYD);
      219    18735          %TYPE_MATRIX_ENTRY(@LOP = %TYO, @ROP = %TYQ, @LOP_BECOMES = %TYO, @ROP_BECOMES =
             18735              %TYD);
      220    18744          %TYPE_MATRIX_ENTRY(@LOP = %TYO, @ROP = %TYJ, @LOP_BECOMES = %TYO, @ROP_BECOMES =
             18744              %TYD);
      221    18753          %TYPE_MATRIX_ENTRY(@LOP = %TYO, @ROP = %TYO, @LOP_BECOMES = %TYO, @ROP_BECOMES =
             18753              %TYO);
      222    18762          %TYPE_MATRIX_ENTRY(@LOP = %TYO, @ROP = %TYK, @LOP_BECOMES = %TYO, @ROP_BECOMES =
             18762              %TYD);
      223    18771          %TYPE_MATRIX_ENTRY(@LOP = %TYO, @ROP = %TYA, @LOP_BECOMES = %TYO, @ROP_BECOMES =
             18771              %TYD);
      224    18780          %TYPE_MATRIX_ENTRY(@LOP = %TYO, @ROP = %TYE, @LOP_BECOMES = %TYO, @ROP_BECOMES =
             18780              %TYD);
      225    18789          %TYPE_MATRIX_ENTRY(@LOP = %TYO, @ROP = %TYF, @LOP_BECOMES = %TYO, @ROP_BECOMES =
             18789              %TYD);
      226    18798          %TYPE_MATRIX_ENTRY(@LOP = %TYO, @ROP = %TYB, @LOP_BECOMES = %TYO, @ROP_BECOMES =
             18798              %TYD);
      227    18807          %TYPE_MATRIX_ENTRY(@LOP = %TYO, @ROP = %TYT, @LOP_BECOMES = %TYO, @ROP_BECOMES =
             18807              %TYD);
PL6.E3A0      #001=Z8E7$STMT_ASSIGNMENT File=Z8E7.:Z8A6TSI                       SAT 08/09/97 11:35 Page:10
      228    18816          %TYPE_MATRIX_ENTRY(@LOP = %TYK, @ROP = %TYI, @LOP_BECOMES = %TYK, @ROP_BECOMES =
             18816              %TYK);
      229    18825          %TYPE_MATRIX_ENTRY(@LOP = %TYK, @ROP = %TYD, @LOP_BECOMES = %TYK, @ROP_BECOMES =
             18825              %TYK);
      230    18834          %TYPE_MATRIX_ENTRY(@LOP = %TYK, @ROP = %TYH, @LOP_BECOMES = %TYK, @ROP_BECOMES =
             18834              %TYK);
      231    18843          %TYPE_MATRIX_ENTRY(@LOP = %TYK, @ROP = %TYR, @LOP_BECOMES = %TYK, @ROP_BECOMES =
             18843              %TYK);
      232    18852          %TYPE_MATRIX_ENTRY(@LOP = %TYK, @ROP = %TYQ, @LOP_BECOMES = %TYK, @ROP_BECOMES =
             18852              %TYK);
      233    18861          %TYPE_MATRIX_ENTRY(@LOP = %TYK, @ROP = %TYJ, @LOP_BECOMES = %TYK, @ROP_BECOMES =
             18861              %TYK);
      234    18870          %TYPE_MATRIX_ENTRY(@LOP = %TYK, @ROP = %TYO, @LOP_BECOMES = %TYK, @ROP_BECOMES =
             18870              %TYK);
      235    18879          %TYPE_MATRIX_ENTRY(@LOP = %TYK, @ROP = %TYK, @LOP_BECOMES = %TYK, @ROP_BECOMES =
             18879              %TYK);
      236    18888          %TYPE_MATRIX_ENTRY(@LOP = %TYK, @ROP = %TYA, @LOP_BECOMES = %TYK, @ROP_BECOMES =
             18888              %TYK);
      237    18897          %TYPE_MATRIX_ENTRY(@LOP = %TYK, @ROP = %TYE, @LOP_BECOMES = %TYK, @ROP_BECOMES =
             18897              %TYK);
      238    18906          %TYPE_MATRIX_ENTRY(@LOP = %TYK, @ROP = %TYF, @LOP_BECOMES = %TYK, @ROP_BECOMES =
             18906              %TYK);
      239    18915          %TYPE_MATRIX_ENTRY(@LOP = %TYK, @ROP = %TYB, @LOP_BECOMES = %TYK, @ROP_BECOMES =
             18915              %TYK);
      240    18924          %TYPE_MATRIX_ENTRY(@LOP = %TYK, @ROP = %TYT, @LOP_BECOMES = %TYK, @ROP_BECOMES =
             18924              %TYK);
      241    18933          %TYPE_MATRIX_ENTRY(@LOP = %TYA, @ROP = %TYI, @LOP_BECOMES = %TYA, @ROP_BECOMES =
             18933              %TYA);
      242    18942          %TYPE_MATRIX_ENTRY(@LOP = %TYA, @ROP = %TYD, @LOP_BECOMES = %TYA, @ROP_BECOMES =
             18942              %TYA);
      243    18951          %TYPE_MATRIX_ENTRY(@LOP = %TYA, @ROP = %TYH, @LOP_BECOMES = %TYA, @ROP_BECOMES =
             18951              %TYA);
      244    18960          %TYPE_MATRIX_ENTRY(@LOP = %TYA, @ROP = %TYR, @LOP_BECOMES = %TYA, @ROP_BECOMES =
             18960              %TYA);
      245    18969          %TYPE_MATRIX_ENTRY(@LOP = %TYA, @ROP = %TYQ, @LOP_BECOMES = %TYA, @ROP_BECOMES =
             18969              %TYA);
      246    18978          %TYPE_MATRIX_ENTRY(@LOP = %TYA, @ROP = %TYJ, @LOP_BECOMES = %TYA, @ROP_BECOMES =
PL6.E3A0      #001=Z8E7$STMT_ASSIGNMENT File=Z8E7.:Z8A6TSI                       SAT 08/09/97 11:35 Page:11
             18978              %TYA);
      247    18987          %TYPE_MATRIX_ENTRY(@LOP = %TYA, @ROP = %TYO, @LOP_BECOMES = %TYA, @ROP_BECOMES =
             18987              %TYA);
      248    18996          %TYPE_MATRIX_ENTRY(@LOP = %TYA, @ROP = %TYK, @LOP_BECOMES = %TYA, @ROP_BECOMES =
             18996              %TYA);
      249    19005          %TYPE_MATRIX_ENTRY(@LOP = %TYA, @ROP = %TYA, @LOP_BECOMES = %TYA, @ROP_BECOMES =
             19005              %TYA);
      250    19014          %TYPE_MATRIX_ENTRY(@LOP = %TYA, @ROP = %TYE, @LOP_BECOMES = %TYA, @ROP_BECOMES =
             19014              %TYA);
      251    19023          %TYPE_MATRIX_ENTRY(@LOP = %TYA, @ROP = %TYF, @LOP_BECOMES = %TYA, @ROP_BECOMES =
             19023              %TYA);
      252    19032          %TYPE_MATRIX_ENTRY(@LOP = %TYA, @ROP = %TYB, @LOP_BECOMES = %TYA, @ROP_BECOMES =
             19032              %TYA);
      253    19041          %TYPE_MATRIX_ENTRY(@LOP = %TYA, @ROP = %TYT, @LOP_BECOMES = %TYA, @ROP_BECOMES =
             19041              %TYA);
      254    19050          %TYPE_MATRIX_ENTRY(@LOP = %TYE, @ROP = %TYI, @LOP_BECOMES = %TYE, @ROP_BECOMES =
             19050              %TYE);
      255    19059          %TYPE_MATRIX_ENTRY(@LOP = %TYE, @ROP = %TYD, @LOP_BECOMES = %TYE, @ROP_BECOMES =
             19059              %TYE);
      256    19068          %TYPE_MATRIX_ENTRY(@LOP = %TYE, @ROP = %TYH, @LOP_BECOMES = %TYE, @ROP_BECOMES =
             19068              %TYE);
      257    19077          %TYPE_MATRIX_ENTRY(@LOP = %TYE, @ROP = %TYR, @LOP_BECOMES = %TYE, @ROP_BECOMES =
             19077              %TYE);
      258    19086          %TYPE_MATRIX_ENTRY(@LOP = %TYE, @ROP = %TYQ, @LOP_BECOMES = %TYE, @ROP_BECOMES =
             19086              %TYE);
      259    19095          %TYPE_MATRIX_ENTRY(@LOP = %TYE, @ROP = %TYJ, @LOP_BECOMES = %TYE, @ROP_BECOMES =
             19095              %TYE);
      260    19104          %TYPE_MATRIX_ENTRY(@LOP = %TYE, @ROP = %TYO, @LOP_BECOMES = %TYE, @ROP_BECOMES =
             19104              %TYE);
      261    19113          %TYPE_MATRIX_ENTRY(@LOP = %TYE, @ROP = %TYK, @LOP_BECOMES = %TYE, @ROP_BECOMES =
             19113              %TYE);
      262    19122          %TYPE_MATRIX_ENTRY(@LOP = %TYE, @ROP = %TYA, @LOP_BECOMES = %TYE, @ROP_BECOMES =
             19122              %TYE);
      263    19131          %TYPE_MATRIX_ENTRY(@LOP = %TYE, @ROP = %TYE, @LOP_BECOMES = %TYE, @ROP_BECOMES =
             19131              %TYE);
      264    19140          %TYPE_MATRIX_ENTRY(@LOP = %TYE, @ROP = %TYF, @LOP_BECOMES = %TYE, @ROP_BECOMES =
             19140              %TYE);
PL6.E3A0      #001=Z8E7$STMT_ASSIGNMENT File=Z8E7.:Z8A6TSI                       SAT 08/09/97 11:35 Page:12
      265    19149          %TYPE_MATRIX_ENTRY(@LOP = %TYE, @ROP = %TYB, @LOP_BECOMES = %TYE, @ROP_BECOMES =
             19149              %TYE);
      266    19158          %TYPE_MATRIX_ENTRY(@LOP = %TYE, @ROP = %TYT, @LOP_BECOMES = %TYE, @ROP_BECOMES =
             19158              %TYE);
      267    19167          %TYPE_MATRIX_ENTRY(@LOP = %TYB, @ROP = %TYI, @LOP_BECOMES = %TYB, @ROP_BECOMES =
             19167              %TYB);
      268    19176          %TYPE_MATRIX_ENTRY(@LOP = %TYB, @ROP = %TYD, @LOP_BECOMES = %TYB, @ROP_BECOMES =
             19176              %TYB);
      269    19185          %TYPE_MATRIX_ENTRY(@LOP = %TYB, @ROP = %TYH, @LOP_BECOMES = %TYB, @ROP_BECOMES =
             19185              %TYB);
      270    19194          %TYPE_MATRIX_ENTRY(@LOP = %TYB, @ROP = %TYR, @LOP_BECOMES = %TYB, @ROP_BECOMES =
             19194              %TYB);
      271    19203          %TYPE_MATRIX_ENTRY(@LOP = %TYB, @ROP = %TYQ, @LOP_BECOMES = %TYB, @ROP_BECOMES =
             19203              %TYB);
      272    19212          %TYPE_MATRIX_ENTRY(@LOP = %TYB, @ROP = %TYJ, @LOP_BECOMES = %TYB, @ROP_BECOMES =
             19212              %TYB);
      273    19221          %TYPE_MATRIX_ENTRY(@LOP = %TYB, @ROP = %TYO, @LOP_BECOMES = %TYB, @ROP_BECOMES =
             19221              %TYB);
      274    19230          %TYPE_MATRIX_ENTRY(@LOP = %TYB, @ROP = %TYK, @LOP_BECOMES = %TYB, @ROP_BECOMES =
             19230              %TYB);
      275    19239          %TYPE_MATRIX_ENTRY(@LOP = %TYB, @ROP = %TYA, @LOP_BECOMES = %TYB, @ROP_BECOMES =
             19239              %TYB);
      276    19248          %TYPE_MATRIX_ENTRY(@LOP = %TYB, @ROP = %TYE, @LOP_BECOMES = %TYB, @ROP_BECOMES =
             19248              %TYB);
      277    19257          %TYPE_MATRIX_ENTRY(@LOP = %TYB, @ROP = %TYF, @LOP_BECOMES = %TYB, @ROP_BECOMES =
             19257              %TYB);
      278    19266          %TYPE_MATRIX_ENTRY(@LOP = %TYB, @ROP = %TYB, @LOP_BECOMES = %TYB, @ROP_BECOMES =
             19266              %TYB);
      279    19275          %TYPE_MATRIX_ENTRY(@LOP = %TYB, @ROP = %TYT, @LOP_BECOMES = %TYB, @ROP_BECOMES =
             19275              %TYB);
      280    19284          %TYPE_MATRIX_ENTRY(@LOP = %TYF, @ROP = %TYI, @LOP_BECOMES = %TYF, @ROP_BECOMES =
             19284              %TYD);
      281    19293          %TYPE_MATRIX_ENTRY(@LOP = %TYF, @ROP = %TYD, @LOP_BECOMES = %TYF, @ROP_BECOMES =
             19293              %TYD);
      282    19302          %TYPE_MATRIX_ENTRY(@LOP = %TYF, @ROP = %TYH, @LOP_BECOMES = %TYF, @ROP_BECOMES =
             19302              %TYD);
      283    19311          %TYPE_MATRIX_ENTRY(@LOP = %TYF, @ROP = %TYR, @LOP_BECOMES = %TYF, @ROP_BECOMES =
PL6.E3A0      #001=Z8E7$STMT_ASSIGNMENT File=Z8E7.:Z8A6TSI                       SAT 08/09/97 11:35 Page:13
             19311              %TYD);
      284    19320          %TYPE_MATRIX_ENTRY(@LOP = %TYF, @ROP = %TYQ, @LOP_BECOMES = %TYF, @ROP_BECOMES =
             19320              %TYD);
      285    19329          %TYPE_MATRIX_ENTRY(@LOP = %TYF, @ROP = %TYJ, @LOP_BECOMES = %TYF, @ROP_BECOMES =
             19329              %TYD);
      286    19338          %TYPE_MATRIX_ENTRY(@LOP = %TYF, @ROP = %TYO, @LOP_BECOMES = %TYF, @ROP_BECOMES =
             19338              %TYD);
      287    19347          %TYPE_MATRIX_ENTRY(@LOP = %TYF, @ROP = %TYK, @LOP_BECOMES = %TYF, @ROP_BECOMES =
             19347              %TYD);
      288    19356          %TYPE_MATRIX_ENTRY(@LOP = %TYF, @ROP = %TYA, @LOP_BECOMES = %TYF, @ROP_BECOMES =
             19356              %TYF);
      289    19365          %TYPE_MATRIX_ENTRY(@LOP = %TYF, @ROP = %TYE, @LOP_BECOMES = %TYF, @ROP_BECOMES =
             19365              %TYF);
      290    19374          %TYPE_MATRIX_ENTRY(@LOP = %TYF, @ROP = %TYF, @LOP_BECOMES = %TYF, @ROP_BECOMES =
             19374              %TYF);
      291    19383          %TYPE_MATRIX_ENTRY(@LOP = %TYF, @ROP = %TYB, @LOP_BECOMES = %TYF, @ROP_BECOMES =
             19383              %TYF);
      292    19392          %TYPE_MATRIX_ENTRY(@LOP = %TYF, @ROP = %TYT, @LOP_BECOMES = %TYF, @ROP_BECOMES =
             19392              %TYF);
      293    19401          %TYPE_MATRIX_ENTRY(@LOP = %TYN, @ROP = %TYN, @LOP_BECOMES = %TYN, @ROP_BECOMES =
             19401              %TYN);
      294    19410          %TYPE_MATRIX_ENTRY(@LOP = %TYN, @ROP = %TYT, @LOP_BECOMES = %TYN, @ROP_BECOMES =
             19410              %TYN);
      295    19419        %TYPE_MATRIX_END;
      296    19428        %EJECT;
PL6.E3A0      #001=Z8E7$STMT_ASSIGNMENT File=Z8E7.:Z8A6TSI                       SAT 08/09/97 11:35 Page:14
      297    19429        /*===============*/
      298    19430    1     ON_SIZE_PREPASS: PROC (LOP$, ROP$, LABEL$);
      299    19431        /*===============*/
      300    19432
      301    19433    2        DCL LOP$          PTR;
      302    19434    2        DCL ROP$          PTR;
      303    19435    2        DCL LABEL$        PTR;
      304    19436    2        DCL NEL$$         PTR;
      305    19437    2        DCL LOP_ST$       PTR;
      306    19438
      307    19439    2        DCL 1 TYPE_DESC   ALIGNED,
      308    19440                   %TYPE_DESC;
      309    19474
      310    19475
      311    19476    2        CALL Z8AU$TYPE_DESCRIPTOR(LOP$ -> LX_ETT_ITEM.ETT$, TYPE_DESC);
      312    19477
      313    19478    3        DO CASE(TYPE_DESC.TYPE);
      314    19479    3          CASE(%TYD, %TYI);
      315    19480    3            CALL OVERFLOW_CHECKS_FROM_ETT (LOP$, ROP$, LABEL$);
      316    19481
      317    19482    3          CASE(%TYQ, %TYR);
      318    19483    3              CALL OVERFLOW_CHECKS_FROM_ETT_FLT (LOP$, ROP$, LABEL$);
      319    19484
      320    19485    3          CASE(%TYO);
      321    19486    3            IF COMCOM.OB.ELS THEN
      322    19487    3              CALL OVERFLOW_CHECKS_FROM_ETT (LOP$, ROP$, LABEL$);
      323    19488    3            ELSE
      324    19489    4              DO;
      325    19490    4                TYPE_DESC.DESC.NDSC.N = TYPE_DESC.DESC.NDSC.N + 1;
      326    19491    4                TYPE_DESC.TYPE        = %TYD;
      327    19492
      328    19493    4                CALL OVERFLOW_CHECKS_FROM_DESC (LOP$, ROP$, LABEL$, TYPE_DESC);
      329    19494    4              END;
      330    19495
      331    19496    3          CASE(%TYF);
      332    19497    3            IF TYPE_DESC.DESC.NDSC.TN = %NDSC9 OR COMCOM.OB.ELS THEN
      333    19498                   /* Variable is not overpunched or ELS bit is set */
PL6.E3A0      #001=Z8E7$STMT_ASSIGNMENT File=Z8E7.:Z8A6TSI                       SAT 08/09/97 11:35 Page:15
      334    19499    3              CALL OVERFLOW_CHECKS_FROM_ETT (LOP$, ROP$, LABEL$);
      335    19500    3            ELSE
      336    19501    4              DO;
      337    19502    4                TYPE_DESC.DESC.NDSC.N = TYPE_DESC.DESC.NDSC.N + 1;
      338    19503    4                TYPE_DESC.TYPE        = %TYD;
      339    19504
      340    19505    4                CALL OVERFLOW_CHECKS_FROM_DESC (LOP$, ROP$, LABEL$, TYPE_DESC);
      341    19506    4              END;
      342    19507
      343    19508    3          CASE(%TYA, %TYE, %TYB);
      344    19509                 %FISH (TRIAD = LOP$ -> LX_ETT_ITEM.ETT$,
      345    19510                        RTN   = LOP_ST$);
      346    19518
      347    19519    3            IF LOP_ST$ -> VARIABLE.B.CLASS = %CLASS_NUMERIC_EDITED THEN
      348    19520    4              DO;
      349    19521                     %GET_LTS (@ID    = %NEL,
      350    19522                               @ST$   = LOP_ST$,
      351    19523                               @RETURN$ = NEL$$);
      352    19566
      353    19567                     %INIT_TYPE_DESC (@TYPE_DESC = TYPE_DESC,
      354    19568                                      @TYPE      = %TYD,
      355    19569                                      @DESC      = NEL$$ -> NEL.DESC);
      356    19606
      357    19607    4                CALL OVERFLOW_CHECKS_FROM_DESC (LOP$, ROP$, LABEL$, TYPE_DESC);
      358    19608    4              END;
      359    19609
      360    19610    3          CASE(%TYJ);
      361    19611                 %INIT_TYPE_DESC (@TYPE_DESC = TYPE_DESC,
      362    19612                                  @TYPE      = %TYI);
      363    19656
      364    19657    3            CALL OVERFLOW_CHECKS_FROM_DESC (LOP$, ROP$, LABEL$, TYPE_DESC);
      365    19658
      366    19659    3            CALL RANGE(ROP$, - 32768,  32767, LABEL$);
      367    19660
      368    19661    3          CASE(%TYK);
      369    19662                 %INIT_TYPE_DESC (@TYPE_DESC = TYPE_DESC,
      370    19663                                  @TYPE      = %TYI);
PL6.E3A0      #001=Z8E7$STMT_ASSIGNMENT File=Z8E7.:Z8A6TSI                       SAT 08/09/97 11:35 Page:16
      371    19707
      372    19708    3            CALL OVERFLOW_CHECKS_FROM_DESC (LOP$, ROP$, LABEL$, TYPE_DESC);
      373    19709
      374    19710    3            CALL RANGE(ROP$, -2147483648, 2147483647, LABEL$);
      375    19711
      376    19712    3          CASE(%TYH);
      377    19713                 %INIT_TYPE_DESC (@TYPE_DESC = TYPE_DESC,
      378    19714                                  @TYPE      = %TYI);
      379    19758
      380    19759    3            CALL OVERFLOW_CHECKS_FROM_DESC (LOP$, ROP$, LABEL$, TYPE_DESC);
      381    19760
      382    19761    3            CALL RANGE(ROP$, -131072, 131071, LABEL$);
      383    19762
      384    19763    3        END /*V* Case */;
      385    19764
      386    19765    2   END ON_SIZE_PREPASS;
      387    19766        %EJECT;
PL6.E3A0      #001=Z8E7$STMT_ASSIGNMENT File=Z8E7.:Z8A6TSI                       SAT 08/09/97 11:35 Page:17
      388    19767        /*==========================*/
      389    19768    1     SIGN_AND_TRUNCATION_CHECKS: PROC (REC$, SEND$) ALTRET;
      390    19769        /*==========================*/
      391    19770
      392    19771    2        DCL REC$          PTR; /*V* To lx_ett for receiving item */
      393    19772    2        DCL SEND$         PTR; /*V* To lx_ett for sending item   */
      394    19773
      395    19774    2        DCL 1 REC_DESC    ALIGNED,
      396    19775                  %TYPE_DESC;
      397    19809    2        DCL 1 SEND_DESC   ALIGNED,
      398    19810                  %TYPE_DESC;
      399    19844
      400    19845    2        DCL REC_ST$       PTR;
      401    19846    2        DCL SEND_ST$      PTR;
      402    19847    2        DCL NEL$$         PTR;
      403    19848
      404    19849    2        DCL LINE          UBIN;
      405    19850    2        DCL COLUMN        UBIN;
      406    19851    2        DCL SEND_LEN      UBIN;
      407    19852    2        DCL REC_LEN       UBIN;
      408    19853    2        DCL SEND_SIGN     BIT (2) ALIGNED;
      409    19854    2        DCL REC_SIGN      BIT (2) ALIGNED;
      410    19855    2        DCL SEND_SF       SBIN;
      411    19856    2        DCL REC_SF        SBIN;
      412    19857    2        DCL SEND_LEFT     SBIN;
      413    19858    2        DCL REC_LEFT      SBIN;
      414    19859    2        DCL SEND_RIGHT    SBIN;
      415    19860    2        DCL REC_RIGHT     SBIN;
      416    19861
      417    19862
      418    19863
      419    19864             /*==========*/
      420    19865    2          NUM_CHECKS: PROC ;
      421    19866             /*==========*/
      422    19867
      423    19868
      424    19869    3            IF REC_ST$ -> SCALAR.B.CLASS = %CLASS_NUMERIC_EDITED THEN
PL6.E3A0      #001=Z8E7$STMT_ASSIGNMENT File=Z8E7.:Z8A6TSI                       SAT 08/09/97 11:35 Page:18
      425    19870    4              DO;
      426    19871    4                IF SEND_ST$ -> SCALAR.B.CLASS = %CLASS_NUMERIC_EDITED THEN
      427    19872    4                  CALL FILL_DESC_FROM_NEL (SEND_ST$, SEND_DESC);
      428    19873
      429    19874    4                CALL FILL_DESC_FROM_NEL (REC_ST$, REC_DESC);
      430    19875    4              END;
      431    19876    3            ELSE
      432    19877    3              IF SEND_ST$ -> SCALAR.B.CLASS = %CLASS_NUMERIC_EDITED THEN
      433    19878    3                CALL FILL_DESC_FROM_NEL (SEND_ST$, SEND_DESC);
      434    19879
      435    19880                 %UNPACK_NDSC (@DESC   = REC_DESC.DESC,
      436    19881                               @TYPE   = REC_DESC.TYPE,
      437    19882                               @LENGTH = REC_LEN,
      438    19883                               @SIGN   = REC_SIGN,
      439    19884                               @SCALE  = REC_SF);
      440    19939
      441    19940                 %UNPACK_NDSC (@DESC   = SEND_DESC.DESC,
      442    19941                               @TYPE   = SEND_DESC.TYPE,
      443    19942                               @LENGTH = SEND_LEN,
      444    19943                               @SIGN   = SEND_SIGN,
      445    19944                               @SCALE  = SEND_SF);
      446    19999
      447    20000    3            REC_LEFT  = REC_LEN + REC_SF;
      448    20001    3            SEND_LEFT = SEND_LEN + SEND_SF;
      449    20002
      450    20003    3            REC_RIGHT  = - REC_SF;
      451    20004    3            SEND_RIGHT = - SEND_SF;
      452    20005
      453    20006    3            IF SEND_LEFT > REC_LEFT THEN
      454    20007    3              CALL Z8AE$ERROR (%E$POSSIBLE_LEFT_TRUNCATION,
      455    20008    3                               LINE, COLUMN);
      456    20009
      457    20010    3            IF SEND_RIGHT > REC_RIGHT THEN
      458    20011    3              CALL Z8AE$ERROR (%E$POSSIBLE_RIGHT_TRUNCATION,
      459    20012    3                               LINE, COLUMN);
      460    20013
      461    20014    3            IF REC_SIGN = %NO_SIGN THEN
PL6.E3A0      #001=Z8E7$STMT_ASSIGNMENT File=Z8E7.:Z8A6TSI                       SAT 08/09/97 11:35 Page:19
      462    20015    4              DO CASE (SEND_DESC.TYPE);
      463    20016
      464    20017    4                CASE (%TYH, %TYI, %TYJ, %TYK, %TYO, %TYR, %TYQ);
      465    20018    4                  CALL Z8AE$ERROR (%E$SIGN_TRUNCATION,
      466    20019    4                                   LINE, COLUMN);
      467    20020
      468    20021    4                CASE (%TYD, %TYF);
      469    20022    4                  IF SEND_SIGN ~= %NO_SIGN THEN
      470    20023    4                    CALL Z8AE$ERROR (%E$SIGN_TRUNCATION,
      471    20024    4                                     LINE, COLUMN);
      472    20025
      473    20026    4                CASE (ELSE);
      474    20027    4                  CALL Z8AE$ERROR (%E$UNEXPECTED_CASE,
      475    20028    4                                   LINE, COLUMN);
      476    20029
      477    20030    4              END; /*V* Case */
      478    20031    3        END NUM_CHECKS;
      479    20032             %EJECT;
PL6.E3A0      #001=Z8E7$STMT_ASSIGNMENT File=Z8E7.:Z8A6TSI                       SAT 08/09/97 11:35 Page:20
      480    20033        /*=======================*/
      481    20034    2          FILL_DESC_FROM_NEL: PROC (ST$$, TYPE_DESC);
      482    20035        /*=======================*/
      483    20036
      484    20037    3            DCL ST$$      PTR;
      485    20038    3            DCL 1 TYPE_DESC ALIGNED,
      486    20039                       %TYPE_DESC;
      487    20073    3            DCL NEL$$     PTR;
      488    20074
      489    20075
      490    20076                 %GET_LTS (@ID     = %NEL,
      491    20077                           @ST$    = ST$$,
      492    20078                           @RETURN$= NEL$$);
      493    20121
      494    20122    3            TYPE_DESC.DESC = NEL$$ -> NEL.DESC;
      495    20123    3            TYPE_DESC.TYPE = %TYD;
      496    20124    3            TYPE_DESC.SIZ$ = ADDR(NIL);
      497    20125    3            TYPE_DESC.SSOP$= ADDR(NIL);
      498    20126
      499    20127    3        END FILL_DESC_FROM_NEL;
      500    20128             %EJECT;
PL6.E3A0      #001=Z8E7$STMT_ASSIGNMENT File=Z8E7.:Z8A6TSI                       SAT 08/09/97 11:35 Page:21
      501    20129             /*=============*/
      502    20130    2          BINARY_CHECKS: PROC ALTRET;
      503    20131             /*=============*/
      504    20132
      505    20133    4             DO CASE (SEND_DESC.TYPE);
      506    20134    4               CASE (%TYI);
      507    20135    4                 SEND_LEN = %TYI_SIGNIFICANCE;
      508    20136    4                 SEND_SF  = 0;
      509    20137
      510    20138    4               CASE (%TYJ);
      511    20139    4                 SEND_LEN = %TYJ_SIGNIFICANCE;
      512    20140    4                 SEND_SF  = 0;
      513    20141
      514    20142    4               CASE (%TYK);
      515    20143    4                 SEND_LEN = %TYK_SIGNIFICANCE;
      516    20144    4                 SEND_SF  = 0;
      517    20145
      518    20146    4               CASE (%TYH);
      519    20147    4                 SEND_LEN = %TYH_SIGNIFICANCE;
      520    20148    4                 SEND_SF  = 0;
      521    20149
      522    20150    4               CASE (%TYD, %TYO, %TYF);
      523    20151                      %UNPACK_NDSC (@DESC   = SEND_DESC.DESC,
      524    20152                                    @TYPE   = SEND_DESC.TYPE,
      525    20153                                    @LENGTH = SEND_LEN,
      526    20154                                    @SCALE  = SEND_SF);
      527    20209
      528    20210    4               CASE (%TYA, %TYE, %TYB);
      529    20211                      %FISH (TRIAD = SEND$ -> LX_ETT_ITEM.ETT$,
      530    20212                             RTN   = SEND_ST$);
      531    20220
      532    20221    4                 IF SEND_ST$ -> SCALAR.B.CLASS = %CLASS_NUMERIC_EDITED THEN
      533    20222    5                   DO;
      534    20223    5                     CALL FILL_DESC_FROM_NEL (SEND_ST$, SEND_DESC);
      535    20224
      536    20225                          %UNPACK_NDSC (@DESC   = SEND_DESC.DESC,
      537    20226                                        @TYPE   = SEND_DESC.TYPE,
PL6.E3A0      #001=Z8E7$STMT_ASSIGNMENT File=Z8E7.:Z8A6TSI                       SAT 08/09/97 11:35 Page:22
      538    20227                                        @LENGTH = SEND_LEN,
      539    20228                                        @SCALE  = SEND_SF);
      540    20283    5                   END;
      541    20284    4                 ELSE
      542    20285                        %GET_TYPE_DESC_ADSC_LEN (@TYPE_DESC = SEND_DESC,
      543    20286                                                 @LENGTH    = SEND_LEN);
      544    20294
      545    20295    4               CASE (%TYR, %TYQ);
      546    20296    4                 RETURN;
      547    20297
      548    20298    4               CASE (ELSE);
      549    20299    4                 CALL Z8AE$ERROR (%E$INVALID_MOVE_OPERANDS,
      550    20300    4                                  SEND$ -> LX_ETT_ITEM.LINE,
      551    20301    4                                  SEND$ -> LX_ETT_ITEM.COLUMN);
      552    20302    4                 ALTRETURN;
      553    20303
      554    20304    4             END; /*V* Case */
      555    20305
      556    20306    3             SEND_LEFT = SEND_LEN + SEND_SF;
      557    20307    3             SEND_RIGHT = - SEND_SF;
      558    20308
      559    20309    3             IF SEND_LEFT > REC_LEN THEN
      560    20310    3               CALL Z8AE$ERROR (%E$POSSIBLE_LEFT_TRUNCATION,
      561    20311    3                                LINE, COLUMN);
      562    20312
      563    20313    3             IF SEND_RIGHT > 0 THEN
      564    20314    3               CALL Z8AE$ERROR (%E$POSSIBLE_RIGHT_TRUNCATION,
      565    20315    3                                LINE, COLUMN);
      566    20316
      567    20317    3        END BINARY_CHECKS;
      568    20318             %EJECT;
PL6.E3A0      #001=Z8E7$STMT_ASSIGNMENT File=Z8E7.:Z8A6TSI                       SAT 08/09/97 11:35 Page:23
      569    20319    2        IF SEND$ -> LX_ETT_ITEM.B.ERROR
      570    20320    2        OR  REC$ -> LX_ETT_ITEM.B.ERROR THEN
      571    20321    2          RETURN;
      572    20322
      573    20323    2        LINE   = REC$ -> LX_ETT_ITEM.LINE;
      574    20324    2        COLUMN = REC$ -> LX_ETT_ITEM.COLUMN;
      575    20325
      576    20326             %FISH (TRIAD = SEND$ -> LX_ETT_ITEM.ETT$,
      577    20327                    RTN   = SEND_ST$);
      578    20335    2        IF SEND_ST$ -> ST.ID ~= %CONST AND
      579    20336    2            NOT SEND_ST$ -> SCALAR.B.ELEMENTARY THEN
      580    20337    2          RETURN; /* Not an elementary MOVE */
      581    20338
      582    20339             %FISH (TRIAD = REC$ -> LX_ETT_ITEM.ETT$,
      583    20340                    RTN   = REC_ST$);
      584    20348    2        IF NOT REC_ST$ -> SCALAR.B.ELEMENTARY THEN
      585    20349    2          RETURN; /* Not an elementary MOVE */
      586    20350
      587    20351    2        CALL Z8AU$TYPE_DESCRIPTOR (SEND$ -> LX_ETT_ITEM.ETT$, SEND_DESC);
      588    20352    2        CALL Z8AU$TYPE_DESCRIPTOR (REC$ -> LX_ETT_ITEM.ETT$, REC_DESC);
      589    20353
      590    20354    3        DO CASE (REC_DESC.TYPE);
      591    20355
      592    20356    3          CASE (%TYA, %TYE, %TYB);
      593    20357    3            IF REC_ST$ -> SCALAR.B.CLASS = %CLASS_NUMERIC_EDITED THEN
      594    20358    4              DO;
      595    20359    4                CALL NUM_CHECKS;
      596    20360    4                RETURN;
      597    20361    4              END;
      598    20362
      599    20363    3            IF REC_ST$ -> SCALAR.B.CLASS = %CLASS_ALPHANUMERIC_EDITED THEN
      600    20364    4              DO;
      601    20365                     %GET_LTS (@ID      = %NEL,
      602    20366                               @ST$     = REC_ST$,
      603    20367                               @RETURN$ = NEL$$);
      604    20410
      605    20411    4                REC_LEN = BITBIN(NEL$$ -> NEL.DESC);
PL6.E3A0      #001=Z8E7$STMT_ASSIGNMENT File=Z8E7.:Z8A6TSI                       SAT 08/09/97 11:35 Page:24
      606    20412    4              END;
      607    20413    3            ELSE
      608    20414    3              IF REC_DESC.SIZ$ = ADDR(NIL) THEN
      609    20415                     %UNPACK_ADSC (@DESC   = REC_DESC.DESC,
      610    20416                                   @LENGTH = REC_LEN);
      611    20439    3              ELSE
      612    20440    3                REC_LEN = REC_DESC.SIZ$ -> ETT.LOP -> CONST.CONSTI.WORD1;
      613    20441
      614    20442    3            IF SEND_DESC.SIZ$ = ADDR(NIL) THEN
      615    20443                   %UNPACK_ADSC (@DESC   = SEND_DESC.DESC,
      616    20444                                 @LENGTH = SEND_LEN);
      617    20467    3            ELSE
      618    20468    3              SEND_LEN = SEND_DESC.SIZ$ -> ETT.LOP -> CONST.CONSTI.WORD1;
      619    20469
      620    20470    3            IF SEND_LEN > REC_LEN THEN
      621    20471    3              CALL Z8AE$ERROR (%E$POSSIBLE_TRUNCATION,
      622    20472    3                               LINE, COLUMN);
      623    20473
      624    20474    3          CASE (%TYD, %TYO, %TYF);
      625    20475    3            CALL NUM_CHECKS;
      626    20476
      627    20477    3          CASE (%TYH, %TYI, %TYJ, %TYK);
      628    20478    3            IF SEND_ST$ -> ST.ID ~= %CONST THEN
      629    20479    3              RETURN;
      630    20480
      631    20481    3            GOTO BINARY_SIGN_CHECKS;
      632    20482
      633    20483    3          CASE (ELSE);
      634    20484                 /*V* No checks, OK */
      635    20485
      636    20486    3        END; /*V* Case */
      637    20487
      638    20488    2        RETURN;
      639    20489
      640    20490             %EJECT;
PL6.E3A0      #001=Z8E7$STMT_ASSIGNMENT File=Z8E7.:Z8A6TSI                       SAT 08/09/97 11:35 Page:25
      641    20491        /*=====================*/
      642    20492    2     BINARY_SIGN_AND_TRUNC: ENTRY (REC$, SEND$) ALTRET;
      643    20493        /*=====================*/
      644    20494
      645    20495
      646    20496    2   BINARY_SIGN_CHECKS:
      647    20497
      648    20498    2        IF SEND$ -> LX_ITEM.ID = %LX_TERMINAL
      649    20499    2        OR REC$  -> LX_ITEM.ID = %LX_TERMINAL
      650    20500    2        OR SEND$ -> LX_ITEM.B.ERROR
      651    20501    2        OR REC$  -> LX_ITEM.B.ERROR  THEN
      652    20502    2          RETURN;
      653    20503
      654    20504    2        LINE   = REC$ -> LX_ETT_ITEM.LINE;
      655    20505    2        COLUMN = REC$ -> LX_ETT_ITEM.COLUMN;
      656    20506
      657    20507    2        CALL Z8AU$TYPE_DESCRIPTOR (SEND$ -> LX_ETT_ITEM.ETT$, SEND_DESC);
      658    20508    2        CALL Z8AU$TYPE_DESCRIPTOR (REC$ -> LX_ETT_ITEM.ETT$, REC_DESC);
      659    20509
      660    20510    3        DO CASE (REC_DESC.TYPE);
      661    20511    3          CASE (%TYI);
      662    20512    3            REC_LEN = %TYI_SIGNIFICANCE;
      663    20513
      664    20514    3            CALL BINARY_CHECKS ALTRET (SOMEBODY_BLEW_IT);
      665    20515
      666    20516    3          CASE (%TYJ);
      667    20517    3            REC_LEN = %TYJ_SIGNIFICANCE;
      668    20518
      669    20519    3            CALL BINARY_CHECKS ALTRET (SOMEBODY_BLEW_IT);
      670    20520
      671    20521    3          CASE (%TYK);
      672    20522    3            REC_LEN = %TYK_SIGNIFICANCE;
      673    20523
      674    20524    3            CALL BINARY_CHECKS ALTRET (SOMEBODY_BLEW_IT);
      675    20525
      676    20526    3          CASE (%TYH);
      677    20527    3            REC_LEN = %TYH_SIGNIFICANCE;
PL6.E3A0      #001=Z8E7$STMT_ASSIGNMENT File=Z8E7.:Z8A6TSI                       SAT 08/09/97 11:35 Page:26
      678    20528
      679    20529    3            CALL BINARY_CHECKS ALTRET (SOMEBODY_BLEW_IT);
      680    20530
      681    20531    3          CASE (ELSE);
      682    20532    3            RETURN;
      683    20533
      684    20534    3        END; /*V* Case */
      685    20535
      686    20536    2        RETURN;
      687    20537
      688    20538    2   SOMEBODY_BLEW_IT: ALTRETURN;
      689    20539
      690    20540    2   END SIGN_AND_TRUNCATION_CHECKS;
      691    20541        %EJECT;
PL6.E3A0      #001=Z8E7$STMT_ASSIGNMENT File=Z8E7.:Z8A6TSI                       SAT 08/09/97 11:35 Page:27
      692    20542        /*===========================*/
      693    20543    1     OVERFLOW_CHECKS_FROM_ETT_FLT: PROC (LOP$$, ROP$$, LABEL$);
      694    20544        /*===========================*/
      695    20545
      696    20546    2        DCL LOP$$         PTR;
      697    20547    2        DCL ROP$$         PTR;
      698    20548    2        DCL TEMP$        PTR;
      699    20549    2        DCL LABEL$        PTR;
      700    20550
      701    20551
      702    20552             %NEW_ILL ( @ID     = %GO ,
      703    20553                        @CODE   = %GO_FLT_OVERFLOW_OFF ,
      704    20554                        @EXPR$  = "ADDR(NIL)" ,
      705    20555                        @LABEL$ = "ADDR(NIL)" );
      706    20934
      707    20935    2        TEMP$ = ADDR(TEMP_LX_ETT_ITEM);
      708    20936
      709    20937    2        CALL Z8EU$NEW_TEMP_FROM_ETT(LOP$$ -> LX_ETT_ITEM.ETT$, TEMP$);
      710    20938
      711    20939    2        TEMP$ -> LX_ETT_ITEM.B = LOP$$ -> LX_ETT_ITEM.B;
      712    20940
      713    20941    2        CALL Z8E7$MOVE_ON_SIZE_SEMANTICS (TEMP$, ROP$$);
      714    20942
      715    20943             %NEW_ILL ( @ID     = %GO ,
      716    20944                        @CODE   = %GO_FLT_OVERFLOW ,
      717    20945                        @EXPR$  = "ADDR(NIL)" ,
      718    20946                        @LABEL$ = LABEL$ );
      719    21325
      720    21326    2   END OVERFLOW_CHECKS_FROM_ETT_FLT;
      721    21327        %EJECT;
PL6.E3A0      #001=Z8E7$STMT_ASSIGNMENT File=Z8E7.:Z8A6TSI                       SAT 08/09/97 11:35 Page:28
      722    21328        /*========================*/
      723    21329    1     OVERFLOW_CHECKS_FROM_ETT: PROC (LOP$$, ROP$$, LABEL$);
      724    21330        /*========================*/
      725    21331
      726    21332    2        DCL LOP$$         PTR;
      727    21333    2        DCL ROP$$         PTR;
      728    21334    2        DCL TEMP$        PTR;
      729    21335    2        DCL LABEL$        PTR;
      730    21336
      731    21337
      732    21338             %NEW_ILL ( @ID     = %GO ,
      733    21339                        @CODE   = %GO_OVERFLOW_OFF ,
      734    21340                        @EXPR$  = "ADDR(NIL)" ,
      735    21341                        @LABEL$ = "ADDR(NIL)" );
      736    21720
      737    21721    2        TEMP$ = ADDR(TEMP_LX_ETT_ITEM);
      738    21722
      739    21723    2        CALL Z8EU$NEW_TEMP_FROM_ETT(LOP$$ -> LX_ETT_ITEM.ETT$, TEMP$);
      740    21724
      741    21725    2        TEMP$ -> LX_ETT_ITEM.B = LOP$$ -> LX_ETT_ITEM.B;
      742    21726
      743    21727    2        CALL Z8E7$MOVE_ON_SIZE_SEMANTICS (TEMP$, ROP$$);
      744    21728
      745    21729             %NEW_ILL ( @ID     = %GO ,
      746    21730                        @CODE   = %GO_OVERFLOW ,
      747    21731                        @EXPR$  = "ADDR(NIL)" ,
      748    21732                        @LABEL$ = LABEL$ );
      749    22111
      750    22112    2        ROP$$ = TEMP$;
      751    22113
      752    22114    2   END OVERFLOW_CHECKS_FROM_ETT;
      753    22115        %EJECT;
PL6.E3A0      #001=Z8E7$STMT_ASSIGNMENT File=Z8E7.:Z8A6TSI                       SAT 08/09/97 11:35 Page:29
      754    22116        /*=========================*/
      755    22117    1     OVERFLOW_CHECKS_FROM_DESC: PROC (LOP$$, ROP$$, LABEL$, TYPE_DESC);
      756    22118        /*=========================*/
      757    22119
      758    22120    2        DCL LOP$$         PTR;
      759    22121    2        DCL ROP$$         PTR;
      760    22122    2        DCL LABEL$        PTR;
      761    22123    2        DCL TEMP$        PTR;
      762    22124    2        DCL 1 TYPE_DESC   ALIGNED,
      763    22125                   %TYPE_DESC;
      764    22159
      765    22160
      766    22161             %NEW_ILL ( @ID     = %GO ,
      767    22162                        @CODE   = %GO_OVERFLOW_OFF ,
      768    22163                        @EXPR$  = "ADDR(NIL)" ,
      769    22164                        @LABEL$ = "ADDR(NIL)" );
      770    22543
      771    22544    2        TEMP$ = ADDR(TEMP_LX_ETT_ITEM);
      772    22545
      773    22546    2        CALL Z8EU$NEW_TEMP_FROM_DESC(TYPE_DESC, TEMP$);
      774    22547
      775    22548    2        TEMP$ -> LX_ETT_ITEM.B = LOP$$ -> LX_ETT_ITEM.B;
      776    22549
      777    22550    2        CALL Z8E7$MOVE_ON_SIZE_SEMANTICS (TEMP$, ROP$$);
      778    22551
      779    22552             %NEW_ILL ( @ID     = %GO ,
      780    22553                        @CODE   = %GO_OVERFLOW ,
      781    22554                        @EXPR$  = "ADDR(NIL)" ,
      782    22555                        @LABEL$ = LABEL$ );
      783    22934
      784    22935    2        ROP$$ = TEMP$;
      785    22936
      786    22937    2   END OVERFLOW_CHECKS_FROM_DESC;
      787    22938        %EJECT;
PL6.E3A0      #001=Z8E7$STMT_ASSIGNMENT File=Z8E7.:Z8A6TSI                       SAT 08/09/97 11:35 Page:30
      788    22939        /*=======================*/
      789    22940    1     MOVE_NO_SEMANTIC_CHECKS: PROC (LOP$$, ROP$$) ALTRET;
      790    22941        /*=======================*/
      791    22942
      792    22943    2        DCL LOP$$         PTR;
      793    22944    2        DCL ROP$$         PTR;
      794    22945
      795    22946    2        DCL LOP_ST$       PTR;
      796    22947
      797    22948    2        STATEMENT_TYPE_A =  0;   /*V*   NOT A DML SET   */
      798    22949
      799    22950             %FISH (TRIAD = LOP$$ -> LX_ETT_ITEM.ETT$,
      800    22951                    RTN   = LOP_ST$);
      801    22959
      802    22960    2        IF NOT LOP_ST$ -> SCALAR.B.SUB_CLASS.EDITED THEN
      803    22961    2          CALL Z8E7$MOVE_SEMANTIC_CHECKS (LOP$$, ROP$$,STATEMENT_TYPE_A)
      804    22962    2            WHENALTRETURN
      805    22963    3              DO;
      806    22964    3                ALTRETURN;
      807    22965    3              END;
      808    22966    2        ELSE
      809    22967    2          RETURN;
      810    22968
      811    22969    2        CALL PRELIMINARY_SETUP (LOP$$, ROP$$)
      812    22970    2          WHENALTRETURN
      813    22971    3            DO;
      814    22972    3              ALTRETURN;
      815    22973    3            END;
      816    22974
      817    22975    2        RETURN;
      818    22976
      819    22977    2   END MOVE_NO_SEMANTIC_CHECKS;
      820    22978        %EJECT;
PL6.E3A0      #001=Z8E7$STMT_ASSIGNMENT File=Z8E7.:Z8A6TSI                       SAT 08/09/97 11:35 Page:31
      821    22979        /*======================*/
      822    22980    1     MOVE_TO_NON_ELEMENTARY: PROC (ITEM$);
      823    22981        /*======================*/
      824    22982
      825    22983    2        DCL ITEM$         PTR;
      826    22984    2        DCL ITEM_ST$      PTR;
      827    22985
      828    22986
      829    22987    3        DO CASE (ITEM$ -> LX_ETT_ITEM.TYPE);
      830    22988
      831    22989    3          CASE (%TYA, %TYE, %TYB);
      832    22990                 /*V* TYA is great! */
      833    22991
      834    22992    3          CASE (
      835    22993                     %SET_OF_NUMERIC_TYPES;
      836    22996    3               );
      837    22997    3            CALL Z8AF$FORME_ON_SIZE (%DNA,
      838    22998    3                                     ITEM$ -> LX_ETT_ITEM.ETT$,
      839    22999    3                                     0,
      840    23000    3                                     ITEM$ -> LX_ETT_ITEM.ETT$, ON_SIZE);
      841    23001
      842    23002    3            ITEM$ -> LX_ETT_ITEM.TYPE = %TYA;
      843    23003
      844    23004    3          CASE (ELSE);
      845    23005    3            CALL Z8AE$ERROR (%E$UNEXPECTED_CASE,
      846    23006    3                             ITEM$ -> LX_ETT_ITEM.LINE,
      847    23007    3                             ITEM$ -> LX_ETT_ITEM.COLUMN);
      848    23008
      849    23009    3        END; /*V* Case */
      850    23010
      851    23011    2   END MOVE_TO_NON_ELEMENTARY;
      852    23012        %EJECT;
PL6.E3A0      #001=Z8E7$STMT_ASSIGNMENT File=Z8E7.:Z8A6TSI                       SAT 08/09/97 11:35 Page:32
      853    23013        /*=================*/
      854    23014    1     PRELIMINARY_SETUP: PROC (LOP$$, ROP$$) ALTRET;
      855    23015        /*=================*/
      856    23016
      857    23017    2        DCL LOP$$         PTR;
      858    23018    2        DCL ROP$$         PTR;
      859    23019
      860    23020    2        DCL ROP_ST$       PTR;
      861    23021    2        DCL LOP_ST$       PTR;
      862    23022
      863    23023
      864    23024    2        IF ROP$$ -> LX_ITEM.ID = %LX_ETT_ITEM THEN
      865    23025    3          DO;
      866    23026                 %FISH (TRIAD = ROP$$ -> LX_ETT_ITEM.ETT$,
      867    23027                        RTN   = ROP_ST$);
      868    23035                 %FISH( TRIAD = LOP$$ -> LX_ETT_ITEM.ETT$,        /*#33734*/
      869    23036                        RTN   = LOP_ST$ );
      870    23044
      871    23045
      872    23046    4            DO CASE( LOP_ST$ -> ST.ID );
      873    23047
      874    23048    4              CASE (
      875    23049                          %ST_ITEMS_WITH_STORAGE;
      876    23061    4                                            );
      877    23062
      878    23063                       /*   OK   */
      879    23064
      880    23065    4              CASE( ELSE );
      881    23066
      882    23067    4                CALL Z8AE$ERROR( %E$INVALID_MOVE_OPERANDS,
      883    23068    4                                 LOP$$ -> LX_ETT_ITEM.LINE,
      884    23069    4                                 LOP$$ -> LX_ETT_ITEM.COLUMN );
      885    23070    4                ALTRETURN;
      886    23071
      887    23072    4            END;
      888    23073
      889    23074
PL6.E3A0      #001=Z8E7$STMT_ASSIGNMENT File=Z8E7.:Z8A6TSI                       SAT 08/09/97 11:35 Page:33
      890    23075    3            IF (ROP_ST$ -> ST.ID = %ARRAY
      891    23076    3                OR ROP_ST$ -> ST.ID = %SCALAR) THEN
      892    23077    3              IF NOT ROP_ST$ -> VARIABLE.B.ELEMENTARY
      893    23078    3              AND (ROP$$ -> LX_ETT_ITEM.ETT$ -> ETT.ID <= %LAST_REFERENCE_TRIAD
      894    23079    3                   OR ROP$$ -> LX_ETT_ITEM.ETT$ -> ETT.ID = %EVAL
      895    23080    3                      AND ROP$$ -> LX_ETT_ITEM.ETT$ -> ETT.LOP -> ETT.ID
      896    23081    3                          <= %LAST_REFERENCE_TRIAD)
      897    23082    3              AND NOT ROP$$ -> LX_ETT_ITEM.B.REFMOD THEN
      898    23083    4                DO;
      899    23084    4                  IF LOP_ST$ -> SCALAR.B.CLASS = %CLASS_NUMERIC THEN
      900    23085    5                    DO ;
      901    23086    5                      CALL Z8AF$FORME_ON_SIZE (%DNA,
      902    23087    5                                               LOP$$ -> LX_ETT_ITEM.ETT$,
      903    23088    5                                               0,
      904    23089    5                                               LOP$$ -> LX_ETT_ITEM.ETT$,
      905    23090    5                                               ON_SIZE) ;
      906    23091    5                      LOP$$ -> LX_ETT_ITEM.TYPE = %TYA ;
      907    23092    5                    END ; /* Receiving field is class numeric */
      908    23093    4                  ELSE
      909    23094    4                    CALL Z8EV$CONVERT_ON_SIZE (%TYA, LOP$$, LOP$$, ON_SIZE);
      910    23095    4                  RETURN;
      911    23096    4                END;
      912    23097    3              ELSE
      913    23098    4                DO;
      914    23099
      915    23100    4                  IF NOT LOP_ST$ -> VARIABLE.B.ELEMENTARY
      916    23101    4                  AND NOT LOP$$ -> LX_ETT_ITEM.B.REFMOD THEN
      917    23102    5                    DO;
      918    23103    5                      CALL MOVE_TO_NON_ELEMENTARY (ROP$$);
      919    23104    5                      RETURN;
      920    23105    5                    END;
      921    23106    4                END;
      922    23107    3          END;
      923    23108
      924    23109    2          CALL PRE_MOVE_ACTIONS (LOP$$, ROP$$)
      925    23110    2            WHENALTRETURN
      926    23111    3              DO;
PL6.E3A0      #001=Z8E7$STMT_ASSIGNMENT File=Z8E7.:Z8A6TSI                       SAT 08/09/97 11:35 Page:34
      927    23112    3                ALTRETURN;
      928    23113    3              END;
      929    23114
      930    23115    2   END PRELIMINARY_SETUP;
      931    23116        %EJECT;
PL6.E3A0      #001=Z8E7$STMT_ASSIGNMENT File=Z8E7.:Z8A6TSI                       SAT 08/09/97 11:35 Page:35
      932    23117        /*=======*/
      933    23118    1     MOVE_ID: PROC (LOP$$, ROP$$, ID);
      934    23119        /*=======*/
      935    23120
      936    23121    2        DCL LOP$$         PTR;
      937    23122    2        DCL ROP$$         PTR;
      938    23123    2        DCL ID            SBIN WORD;
      939    23124    2        DCL LOP_ST$       PTR;
      940    23125
      941    23126
      942    23127
      943    23128             %FISH(TRIAD = LOP$$ -> LX_ETT_ITEM.ETT$, RTN = LOP_ST$);
      944    23136
      945    23137    3        DO CASE(LOP$$ -> LX_ETT_ITEM.TYPE);
      946    23138    3          CASE(%TYO, %TYF);
      947    23139    3            IF COMCOM.OB.ELS AND
      948    23140    3                (ROP$$ -> LX_ETT_ITEM.TYPE = %TYO OR
      949    23141    3                 ROP$$ -> LX_ETT_ITEM.TYPE = %TYF) THEN
      950    23142    3              ID = %MVOO;
      951    23143    3            ELSE
      952    23144    4              DO;
      953    23145    4                IF ROP$$ -> LX_ETT_ITEM.TYPE ~= %TYD THEN
      954    23146    4                  CALL Z8EV$CONVERT (%TYD, ROP$$, ROP$$);
      955    23147    4                ID = %MVDO;
      956    23148    4              END;
      957    23149
      958    23150    3          CASE(%TYD);
      959    23151    3            IF COMCOM.OB.ELS AND ROP$$ -> LX_ETT_ITEM.TYPE  = %TYO THEN
      960    23152    3              ID = %MVOD;
      961    23153    3            ELSE
      962    23154    4              DO;
      963    23155    4                IF ROP$$ -> LX_ETT_ITEM.TYPE ~= %TYD THEN
      964    23156    4                  CALL Z8EV$CONVERT (%TYD, ROP$$, ROP$$);
      965    23157    4                ID = %MVDD;
      966    23158    4              END;
      967    23159
      968    23160    3          CASE(%TYI);
PL6.E3A0      #001=Z8E7$STMT_ASSIGNMENT File=Z8E7.:Z8A6TSI                       SAT 08/09/97 11:35 Page:36
      969    23161    3            ID = %MVII;
      970    23162
      971    23163    3          CASE(%TYR);
      972    23164    3            ID = %MVRR;
      973    23165
      974    23166    3          CASE(%TYQ);
      975    23167    3            ID = %MVQQ;
      976    23168
      977    23169    3          CASE(%TYA, %TYN, %TYE, %TYB);
      978    23170    3            IF LOP_ST$ -> VARIABLE.B.JUSTIFIED   AND     /*#33283*/
      979    23171    3                NOT ROP$$ -> LX_ETT_ITEM.B.ALL   THEN    /*#33283*/
      980    23172    3              ID = %MVRL;
      981    23173    3            ELSE
      982    23174    3              ID = %MVAN;
      983    23175
      984    23176    3          CASE(%TYH);
      985    23177    3            ID = %MVHH;
      986    23178
      987    23179    3          CASE(%TYJ);
      988    23180    3            ID = %MVJJ;
      989    23181
      990    23182    3          CASE(%TYK);
      991    23183    3            ID = %MVKK;
      992    23184
      993    23185    3          CASE(ELSE);
      994    23186    3            CALL Z8AE$ERROR(%E$UNEXPECTED_CASE,
      995    23187    3                            LOP$$ -> LX_ITEM.LINE,
      996    23188    3                            LOP$$ -> LX_ITEM.COLUMN);
      997    23189
      998    23190    3        END /*V* Case */;
      999    23191
     1000    23192    2   END MOVE_ID; /*V* Proc */
     1001    23193
     1002    23194        %EJECT;
PL6.E3A0      #001=Z8E7$STMT_ASSIGNMENT File=Z8E7.:Z8A6TSI                       SAT 08/09/97 11:35 Page:37
     1003    23195        /*==========*/
     1004    23196    1     MFILL_OPTZ: PROC (LOP$$, ROP$$);
     1005    23197        /*==========*/
     1006    23198
     1007    23199    2        DCL LOP$$         PTR;
     1008    23200    2        DCL ROP$$         PTR;
     1009    23201
     1010    23202    2        DCL ROP_ST$       PTR;
     1011    23203    2        DCL LOP_ST$       PTR ;
     1012    23204    2        DCL FILL_CHAR     CHAR (1) ;
     1013    23205    2        DCL 1 FILL_CHAR1  REDEF FILL_CHAR,
     1014    23206    2              2 BCD_CHAR  BIT (6),
     1015    23207    2              2 *         BIT (3);
     1016    23208    2        DCL 1 FILL_CHAR2  REDEF FILL_CHAR,
     1017    23209    2              2 MBZ       BIT (3),
     1018    23210    2              2 BCD_CHAR  BIT (6);
     1019    23211
     1020    23212    2        DCL 1 LOP_DESC    ALIGNED,
     1021    23213                   %TYPE_DESC;
     1022    23247
     1023    23248
     1024    23249
     1025    23250             %FISH (TRIAD = ROP$$ -> LX_ETT_ITEM.ETT$,
     1026    23251                    RTN   = ROP_ST$);
     1027    23259
     1028    23260    2        CALL Z8AU$TYPE_DESCRIPTOR (LOP$$ -> LX_ETT_ITEM.ETT$, LOP_DESC);
     1029    23261
     1030    23262    2        IF  LOP$$ -> LX_ETT_ITEM.TYPE = %TYN
     1031    23263    2        AND (ROP_ST$ -> ST.DNT$ -> DNT.TEXT.NAME = 'SPACE'
     1032    23264    2          OR ROP_ST$ -> ST.DNT$ -> DNT.TEXT.NAME = 'SPACES') THEN
     1033    23265    2          FILL_CHAR = %KANJI_SPACE ;
     1034    23266    2        ELSE
     1035    23267    3          DO ;
     1036    23268    3            FILL_CHAR = SUBSTR (ROP_ST$ -> CONST.CONSTA, 0, 1) ;
     1037    23269    3            IF LOP$$ -> LX_ETT_ITEM.TYPE = %TYB
     1038    23270    3                OR LOP$$ -> LX_ETT_ITEM.TYPE = %TYC THEN
     1039    23271    4              DO ;
PL6.E3A0      #001=Z8E7$STMT_ASSIGNMENT File=Z8E7.:Z8A6TSI                       SAT 08/09/97 11:35 Page:38
     1040    23272    4                FILL_CHAR2.BCD_CHAR = FILL_CHAR1.BCD_CHAR ;
     1041    23273    4                FILL_CHAR2.MBZ = '0'B ;
     1042    23274    4              END ;
     1043    23275    3          END ;
     1044    23276
     1045    23277    2        IF LOP_DESC.SIZ$ = ADDR(NIL)
     1046    23278    2        AND FILL_CHAR ~= %KANJI_SPACE
     1047    23279    2        AND LOP$$ -> LX_ETT_ITEM.TYPE ~= %TYB
     1048    23280    2        AND LOP$$ -> LX_ETT_ITEM.TYPE ~= %TYC
     1049    23281    2        AND ((LOP_DESC.DESC.ADSC.N = 8
     1050    23282    2              AND LOP_DESC.DESC.ADSC.CN = 0)
     1051    23283    2              OR (LOP_DESC.DESC.ADSC.CN +
     1052    23284    2                  LOP_DESC.DESC.ADSC.N <= 4)) THEN
     1053    23285    3          DO;
     1054    23286    3            CALL MOVE_ALL_OPTZ (LOP$$, ROP$$);
     1055    23287    3            RETURN;
     1056    23288    3          END; /*V* Optimized case MFILL */
     1057    23289
     1058    23290             %NEW_ILL (@ID    = %MFILL,
     1059    23291                       @LOP   = LOP$$ -> LX_ETT_ITEM.ETT$,
     1060    23292                       @FILL  = FILL_CHAR);
     1061    23671
     1062    23672    2   END MFILL_OPTZ;
     1063    23673        %EJECT;
PL6.E3A0      #001=Z8E7$STMT_ASSIGNMENT File=Z8E7.:Z8A6TSI                       SAT 08/09/97 11:35 Page:39
     1064    23674        /*==================*/
     1065    23675    1     MOVE_OPTIMIZATIONS: PROC (LOP$$, ROP$$, ID);
     1066    23676        /*==================*/
     1067    23677
     1068    23678    2        DCL LOP$$         PTR;
     1069    23679    2        DCL ROP$$         PTR;
     1070    23680    2        DCL ID            SBIN WORD;
     1071    23681
     1072    23682    2        DCL MORE_OPTIMIZATIONS   BIT (1) ALIGNED;
     1073    23683    2        DCL ROP_ST$              PTR;
     1074    23684    2        DCL FROM$$               PTR;
     1075    23685    2        DCL ETT$$                PTR;
     1076    23686    2        DCL CODE                 UBIN;
     1077    23687    2        DCL 1 LOP_DESC           ALIGNED,
     1078    23688                  %TYPE_DESC;
     1079    23722
     1080    23723    2        DCL SYMBOL               UBIN;
     1081    23724
     1082    23725    2      DEC_AS_OVERP : PROC (ETT$) ALTRET;
     1083    23726
     1084    23727    3       DCL ETT$ PTR;
     1085    23728
     1086    23729    3       DCL 1 TYPE_DESC,
     1087    23730                  %TYPE_DESC;
     1088    23764
     1089    23765    3       CALL Z8AU$TYPE_DESCRIPTOR (ETT$ -> ETT.LOP, TYPE_DESC);
     1090    23766
     1091    23767    3       IF  TYPE_DESC.DESC.NDSC.TN = %NDSC9
     1092    23768    3       AND TYPE_DESC.TYPE         = %TYD
     1093    23769    3       AND TYPE_DESC.DESC.NDSC.S  = %NO_SIGN THEN
     1094    23770    3         ALTRETURN;
     1095    23771
     1096    23772    3       CALL Z8AU$TYPE_DESCRIPTOR (ETT$ -> ETT.ROP, TYPE_DESC);
     1097    23773
     1098    23774    3       IF  TYPE_DESC.DESC.NDSC.TN = %NDSC9
     1099    23775    3       AND TYPE_DESC.TYPE         = %TYD
     1100    23776    3       AND TYPE_DESC.DESC.NDSC.S  = %NO_SIGN THEN
PL6.E3A0      #001=Z8E7$STMT_ASSIGNMENT File=Z8E7.:Z8A6TSI                       SAT 08/09/97 11:35 Page:40
     1101    23777    3         ALTRETURN;
     1102    23778
     1103    23779    3       RETURN;
     1104    23780
     1105    23781    3     END DEC_AS_OVERP;
     1106    23782
     1107    23783
     1108    23784    3        DO UNTIL (NOT MORE_OPTIMIZATIONS);
     1109    23785    3          MORE_OPTIMIZATIONS = FALSE;
     1110    23786
     1111    23787
     1112    23788    4          DO CASE(ID);
     1113    23789    4            CASE(%MVAN);
     1114    23790                   %FISH(TRIAD = ROP$$ -> LX_ETT_ITEM.ETT$, RTN = ROP_ST$);
     1115    23798
     1116    23799    4              IF ROP$$ -> LX_ETT_ITEM.B.ALL
     1117    23800    4              AND ROP_ST$ -> VARIABLE.ID = %CONST THEN
     1118    23801    5                DO;
     1119    23802    5                  CALL Z8AU$LENGTH_ETT(ROP$$ -> LX_ETT_ITEM.ETT$, ETT$$);
     1120    23803
     1121    23804    5                  IF ETT$$ = COMCOM.VALUE_1 THEN
     1122    23805    5                    CALL MFILL_OPTZ (LOP$$, ROP$$);
     1123    23806    5                  ELSE
     1124    23807    6                    DO;
     1125    23808    6                      CALL Z8AU$LENGTH_ETT (LOP$$ -> LX_ETT_ITEM.ETT$,
     1126    23809    6                                            LOP_LENGTH$);
     1127    23810
     1128    23811    6                      IF LOP_LENGTH$ -> ETT.LOP -> CONST.CONSTI.WORD1
     1129    23812    6                      <= %MAX_BUF_LEN AND
     1130    23813    6                      LOP$$ -> LX_ETT_ITEM.TYPE ~= %TYB THEN
     1131    23814    6                        CALL MOVE_ALL_OPTZ (LOP$$, ROP$$);
     1132    23815    6                      ELSE
     1133    23816    6                        CALL MOVE_ALL (LOP$$, ROP$$);
     1134    23817    6                    END;
     1135    23818    5                END;
     1136    23819    4              ELSE
     1137    23820                     %NEW_ILL( @ID     = %MVAN ,
PL6.E3A0      #001=Z8E7$STMT_ASSIGNMENT File=Z8E7.:Z8A6TSI                       SAT 08/09/97 11:35 Page:41
     1138    23821                               @LOP    = LOP$$ -> LX_ETT_ITEM.ETT$ ,
     1139    23822                               @ROP    = ROP$$ -> LX_ETT_ITEM.ETT$ );
     1140    24201
     1141    24202          %EJECT;
PL6.E3A0      #001=Z8E7$STMT_ASSIGNMENT File=Z8E7.:Z8A6TSI                       SAT 08/09/97 11:35 Page:42
     1142    24203    4            CASE (%MVII);
     1143    24204
     1144    24205    5              DO CASE (ROP$$ -> LX_ETT_ITEM.ETT$ -> ETT.ID);
     1145    24206
     1146    24207    5                CASE (%ADI);
     1147    24208    5                  IF LOP$$ -> LX_ETT_ITEM.ETT$ = ROP$$ -> LX_ETT_ITEM.ETT$ -> ETT.LOP
             24208                           THEN
     1148    24209    6                    DO;
     1149    24210    6                      ROP$$ -> LX_ETT_ITEM.ETT$ = ROP$$ -> LX_ETT_ITEM.ETT$ -> ETT.ROP;
     1150    24211    6                      ID = %AD2I;
     1151    24212    6                    END;
     1152    24213    5                  ELSE
     1153    24214    5                    IF LOP$$ -> LX_ETT_ITEM.ETT$ = ROP$$ -> LX_ETT_ITEM.ETT$ -> ETT.ROP
             24214                             THEN
     1154    24215    6                      DO;
     1155    24216    6                        ROP$$ -> LX_ETT_ITEM.ETT$ = ROP$$ -> LX_ETT_ITEM.ETT$ -> ETT.
             24216                                 LOP;
     1156    24217    6                        ID = %AD2I;
     1157    24218    6                      END;
     1158    24219
     1159    24220    5                CASE (%SBI);
     1160    24221    5                  IF LOP$$ -> LX_ETT_ITEM.ETT$ = ROP$$ -> LX_ETT_ITEM.ETT$ -> ETT.LOP
             24221                           THEN
     1161    24222    6                    DO;
     1162    24223    6                      ROP$$ -> LX_ETT_ITEM.ETT$ = ROP$$ -> LX_ETT_ITEM.ETT$ -> ETT.ROP;
     1163    24224    6                      ID = %SB2I;
     1164    24225    6                    END;
     1165    24226
     1166    24227    5                CASE (%CVDI);
     1167    24228    5                  CALL Z8AU$TYPE_DESCRIPTOR (ROP$$ -> LX_ETT_ITEM.ETT$,
     1168    24229    5                                             ROP_DESC);
     1169    24230
     1170    24231                       /* Optimize MVII of CVDI to MVDI.                   */
     1171    24232                       /* If the LOP is a BASE, Phase 3 will do this optz. */
     1172    24233                       /* This way Phase 3 can eliminate CVDI (constant).  */
     1173    24234
     1174    24235    5                  IF  ROP_DESC.DESC.NDSC.SF = 0
PL6.E3A0      #001=Z8E7$STMT_ASSIGNMENT File=Z8E7.:Z8A6TSI                       SAT 08/09/97 11:35 Page:43
     1175    24236    5                  AND LOP$$ -> LX_ETT_ITEM.ETT$ -> ETT.ID ~= %BASE THEN
     1176    24237    6                    DO;
     1177    24238    6                      ROP$$ -> LX_ETT_ITEM.ETT$ = ROP$$ -> LX_ETT_ITEM.ETT$ -> ETT.LOP;
     1178    24239    6                      ID = %MVDI;
     1179    24240
     1180    24241    6                      CALL Z8EV$WORD_TO_BYTE_UNITS (LOP$$ -> LX_ETT_ITEM.ETT$,
     1181    24242    6                                                    LOP$$ -> LX_ETT_ITEM.ETT$);
     1182    24243    6                    END;
     1183    24244
     1184    24245    5                CASE(%CVJI);
     1185    24246    5                  IF COMCOM.OB.ELS THEN
     1186    24247    6                    DO;
     1187    24248    6                      ID = %MVJI;
     1188    24249    6                      ROP$$ -> LX_ETT_ITEM.ETT$ = ROP$$ -> LX_ETT_ITEM.ETT$ -> ETT.LOP;
     1189    24250    6                    END;
     1190    24251
     1191    24252    5                CASE(%CVKI);
     1192    24253    5                  IF COMCOM.OB.ELS THEN
     1193    24254    6                    DO;
     1194    24255    6                      ID = %MVKI;
     1195    24256    6                      ROP$$ -> LX_ETT_ITEM.ETT$ = ROP$$ -> LX_ETT_ITEM.ETT$ -> ETT.LOP;
     1196    24257    6                    END;
     1197    24258    5              END; /*V* Case */
     1198    24259
     1199    24260                   %NEW_ILL (@ID    = ID,
     1200    24261                             @LOP   = LOP$$ -> LX_ETT_ITEM.ETT$,
     1201    24262                             @ROP   = ROP$$ -> LX_ETT_ITEM.ETT$);
     1202    24641
     1203    24642          %EJECT;
PL6.E3A0      #001=Z8E7$STMT_ASSIGNMENT File=Z8E7.:Z8A6TSI                       SAT 08/09/97 11:35 Page:44
     1204    24643    4            CASE(%MVRR);
     1205    24644    5              DO CASE (ROP$$ -> LX_ETT_ITEM.ETT$ -> ETT.ID);
     1206    24645
     1207    24646    5                CASE (%CVDRR);
     1208    24647    5                  ROP$$ -> LX_ETT_ITEM.ETT$ = ROP$$ -> LX_ETT_ITEM.ETT$ -> ETT.LOP;
     1209    24648    5                  ID = %MVDR;
     1210    24649
     1211    24650    5                CASE (ELSE);
     1212    24651                       /*V* Same */
     1213    24652    5              END; /*V* Case */
     1214    24653
     1215    24654                   %NEW_ILL (@ID   = ID,
     1216    24655                             @LOP  = LOP$$ -> LX_ETT_ITEM.ETT$,
     1217    24656                             @ROP  = ROP$$ -> LX_ETT_ITEM.ETT$);
     1218    25035
     1219    25036          %EJECT;
PL6.E3A0      #001=Z8E7$STMT_ASSIGNMENT File=Z8E7.:Z8A6TSI                       SAT 08/09/97 11:35 Page:45
     1220    25037    4            CASE(%MVQQ);
     1221    25038    5              DO CASE (ROP$$ -> LX_ETT_ITEM.ETT$ -> ETT.ID);
     1222    25039
     1223    25040    5                CASE (%CVDQR);
     1224    25041    5                  ROP$$ -> LX_ETT_ITEM.ETT$ = ROP$$ -> LX_ETT_ITEM.ETT$ -> ETT.LOP;
     1225    25042    5                  ID = %MVDQ;
     1226    25043
     1227    25044    5                CASE (ELSE);
     1228    25045                       /*V* Same */
     1229    25046    5              END; /*V* Case */
     1230    25047
     1231    25048                   %NEW_ILL (@ID   = ID,
     1232    25049                             @LOP  = LOP$$ -> LX_ETT_ITEM.ETT$,
     1233    25050                             @ROP  = ROP$$ -> LX_ETT_ITEM.ETT$);
     1234    25429
     1235    25430          %EJECT;
PL6.E3A0      #001=Z8E7$STMT_ASSIGNMENT File=Z8E7.:Z8A6TSI                       SAT 08/09/97 11:35 Page:46
     1236    25431    4            CASE (%MVOO, %MVOOR);
     1237    25432    5              DO CASE (ROP$$ -> LX_ETT_ITEM.ETT$ -> ETT.ID);
     1238    25433    5                CASE(%RNDO);
     1239    25434    5                  ID = %MVOOR;
     1240    25435    5                  ROP$$ -> LX_ETT_ITEM.ETT$ = ROP$$ -> LX_ETT_ITEM.ETT$ -> ETT.LOP;
     1241    25436    5                  MORE_OPTIMIZATIONS = TRUE;
     1242    25437
     1243    25438    5                CASE(%ADO, %MPO);
     1244    25439    5                  FROM$$ = ADDR(NIL);
     1245    25440    5                  CALL COMMUTATIVE_OPERANDS (LOP$$, ROP$$, FROM$$, ID);
     1246    25441
     1247    25442    5                CASE(%SBO, %DVO);
     1248    25443    5                  FROM$$ = ADDR(NIL);
     1249    25444    5                  CALL NON_COMMUTATIVE_OPERANDS (LOP$$, ROP$$, FROM$$, ID);
     1250    25445
     1251    25446    5                CASE(ELSE);
     1252    25447    5                  IF ROP$$ -> LX_ETT_ITEM.B.ALL THEN
     1253    25448    5                    CALL MOVE_ALL_NUM (LOP$$, ROP$$, ID);
     1254    25449    5                  ELSE
     1255    25450                         %NEW_ILL (@ID = ID,
     1256    25451                                   @LOP = LOP$$ -> LX_ETT_ITEM.ETT$,
     1257    25452                                   @ROP = ROP$$ -> LX_ETT_ITEM.ETT$);
     1258    25831    5              END;
     1259    25832          %EJECT;
PL6.E3A0      #001=Z8E7$STMT_ASSIGNMENT File=Z8E7.:Z8A6TSI                       SAT 08/09/97 11:35 Page:47
     1260    25833    4            CASE (%MVDD, %MVDDR);
     1261    25834    5              DO CASE (ROP$$ -> LX_ETT_ITEM.ETT$ -> ETT.ID);
     1262    25835
     1263    25836    5                CASE (%RNDD);
     1264    25837    5                  ID = %MVDDR;
     1265    25838
     1266    25839    5                  ROP$$ -> LX_ETT_ITEM.ETT$ = ROP$$ -> LX_ETT_ITEM.ETT$ -> ETT.LOP;
     1267    25840    5                  MORE_OPTIMIZATIONS        = TRUE;
     1268    25841
     1269    25842    5                CASE (%ADD, %MPD);
     1270    25843    5                  FROM$$ = ADDR(NIL);
     1271    25844
     1272    25845    5                  CALL COMMUTATIVE_OPERANDS (LOP$$, ROP$$, FROM$$, ID);
     1273    25846
     1274    25847    5                CASE (%SBD, %DVD);
     1275    25848    5                  FROM$$ = ADDR(NIL);
     1276    25849
     1277    25850    5                  CALL NON_COMMUTATIVE_OPERANDS (LOP$$, ROP$$, FROM$$, ID);
     1278    25851
     1279    25852    5                CASE (%CVDDD);
     1280    25853    5                  CALL MOVE_DE_EDITING (LOP$$, ROP$$);
     1281    25854
     1282    25855    5                CASE (%CVID4, %CVID9);
     1283    25856    5                  CALL Z8AU$TYPE_DESCRIPTOR (LOP$$ -> LX_ETT_ITEM.ETT$,
     1284    25857    5                                             LOP_DESC);
     1285    25858                       /* Optimize MVDD of CVID4/9 to MVID.                   */
     1286    25859                       /* If the LOP is a BASE, Phase 3 will do this optz. */
     1287    25860                       /* This way Phase 3 can eliminate CVID (constant).  */
     1288    25861
     1289    25862    5                  IF LOP_DESC.DESC.NDSC.SF = 0
     1290    25863    5                  AND LOP$$ -> LX_ETT_ITEM.ETT$ -> ETT.ID ~= %BASE THEN
     1291    25864    6                    DO;
     1292    25865    6                      ROP$$ -> LX_ETT_ITEM.ETT$ = ROP$$ -> LX_ETT_ITEM.ETT$ -> ETT.LOP;
     1293    25866    6                      ID = %MVID;
     1294    25867    6                    END;
     1295    25868
     1296    25869                       %NEW_ILL (@ID     = ID,
PL6.E3A0      #001=Z8E7$STMT_ASSIGNMENT File=Z8E7.:Z8A6TSI                       SAT 08/09/97 11:35 Page:48
     1297    25870                                 @LOP    = LOP$$ -> LX_ETT_ITEM.ETT$,
     1298    25871                                 @ROP    = ROP$$ -> LX_ETT_ITEM.ETT$);
     1299    26250
     1300    26251    5                CASE (%CVRD4, %CVRD9);
     1301    26252    5                  ROP$$ -> LX_ETT_ITEM.ETT$ = ROP$$ -> LX_ETT_ITEM.ETT$ -> ETT.LOP;
     1302    26253    5                  CALL Z8AU$TYPE_DESCRIPTOR (LOP$$ -> LX_ETT_ITEM.ETT$,
     1303    26254    5                                             LOP_DESC);
     1304    26255
     1305    26256    5                  IF LOP_DESC.DESC.NDSC.SF = 0 AND ID = %MVDD THEN
     1306    26257    6                    DO;
     1307    26258    6                      CALL Z8AF$FORME (%CVRI,
     1308    26259    6                                       ROP$$ -> LX_ETT_ITEM.ETT$,
     1309    26260    6                                       0,
     1310    26261    6                                       ROP$$ -> LX_ETT_ITEM.ETT$);
     1311    26262                           %NEW_ILL (@ID     = %MVID,
     1312    26263                                     @LOP    = LOP$$ -> LX_ETT_ITEM.ETT$,
     1313    26264                                     @ROP    = ROP$$ -> LX_ETT_ITEM.ETT$);
     1314    26643    6                    END;
     1315    26644    5                  ELSE
     1316    26645    6                    DO;
     1317    26646    6                      IF ID = %MVDDR THEN
     1318    26647    6                        CODE = 0 ; /* Round */
     1319    26648    6                      ELSE
     1320    26649    6                        CODE = 1 ; /* Truncate */
     1321    26650
     1322    26651                           %NEW_ILL (@ID     = %MVRD,
     1323    26652                                     @CODE   = CODE,
     1324    26653                                     @LOP    = LOP$$ -> LX_ETT_ITEM.ETT$,
     1325    26654                                     @ROP    = ROP$$ -> LX_ETT_ITEM.ETT$);
     1326    27033    6                    END;
     1327    27034
     1328    27035    5                CASE (%CVQD4, %CVQD9);
     1329    27036    5                  ROP$$ -> LX_ETT_ITEM.ETT$ = ROP$$ -> LX_ETT_ITEM.ETT$ -> ETT.LOP;
     1330    27037    5                  CALL Z8AU$TYPE_DESCRIPTOR (LOP$$ -> LX_ETT_ITEM.ETT$,
     1331    27038    5                                             LOP_DESC);
     1332    27039
     1333    27040    5                  IF LOP_DESC.DESC.NDSC.SF = 0 AND
PL6.E3A0      #001=Z8E7$STMT_ASSIGNMENT File=Z8E7.:Z8A6TSI                       SAT 08/09/97 11:35 Page:49
     1334    27041    5                      LOP_DESC.DESC.NDSC.N < 11 AND
     1335    27042    5                      ID = %MVDD THEN
     1336    27043    6                    DO;
     1337    27044    6                      CALL Z8AF$FORME (%CVQI,
     1338    27045    6                                       ROP$$ -> LX_ETT_ITEM.ETT$,
     1339    27046    6                                       0,
     1340    27047    6                                       ROP$$ -> LX_ETT_ITEM.ETT$);
     1341    27048                           %NEW_ILL (@ID     = %MVID,
     1342    27049                                     @LOP    = LOP$$ -> LX_ETT_ITEM.ETT$,
     1343    27050                                     @ROP    = ROP$$ -> LX_ETT_ITEM.ETT$);
     1344    27429    6                    END;
     1345    27430    5                  ELSE
     1346    27431    6                    DO;
     1347    27432    6                      IF ID = %MVDDR THEN
     1348    27433    6                        CODE = 0 ; /* Round */
     1349    27434    6                      ELSE
     1350    27435    6                        CODE = 1 ; /* Truncate */
     1351    27436
     1352    27437                           %NEW_ILL (@ID     = %MVQD,
     1353    27438                                     @CODE   = CODE,
     1354    27439                                     @LOP    = LOP$$ -> LX_ETT_ITEM.ETT$,
     1355    27440                                     @ROP    = ROP$$ -> LX_ETT_ITEM.ETT$);
     1356    27819    6                    END;
     1357    27820
     1358    27821    5                CASE (%TRIAD);
     1359    27822                       %FISH(TRIAD = LOP$$ -> LX_ETT_ITEM.ETT$, RTN = LOP_ST$);
     1360    27830    5                  IF ROP$$ -> LX_ETT_ITEM.B.ALL THEN
     1361    27831    6                    DO;
     1362    27832    6                      CALL Z8AU$LENGTH_ETT (ROP$$ -> LX_ETT_ITEM.ETT$,
     1363    27833    6                                            ETT$$);
     1364    27834    6                      IF ETT$$ = COMCOM.VALUE_1 AND
     1365    27835    6                          LOP_ST$ -> VARIABLE.NDSC.TN = %NDSC9 AND
     1366    27836    6                          LOP_ST$ -> VARIABLE.NDSC.S = %NO_SIGN AND
     1367    27837    6                          LOP_ST$ -> VARIABLE.NDSC.SF >= 0 THEN
     1368    27838    7                        DO;
     1369    27839    7                          CALL Z8AF$FORME (%DNA,
     1370    27840    7                                           LOP$$ -> LX_ETT_ITEM.ETT$,
PL6.E3A0      #001=Z8E7$STMT_ASSIGNMENT File=Z8E7.:Z8A6TSI                       SAT 08/09/97 11:35 Page:50
     1371    27841    7                                           0,
     1372    27842    7                                           LOP$$ -> LX_ETT_ITEM.ETT$);
     1373    27843    7                          CALL MFILL_OPTZ (LOP$$, ROP$$);
     1374    27844    7                        END;
     1375    27845    6                      ELSE
     1376    27846    6                        CALL MOVE_ALL_NUM (LOP$$, ROP$$, ID);
     1377    27847    6                    END;
     1378    27848    5                  ELSE IF ID = %MVDD AND
     1379    27849    5                      (ROP$ -> LX_ITEM.ID ~= %LX_TERMINAL OR
     1380    27850    5                        (ROP$ -> LX_TERMINAL.SYMBOL ~= %ALPHA_LITERAL AND
     1381    27851    5                         ROP$ -> LX_TERMINAL.SYMBOL ~= %SINGLE_QUOTE)) THEN
     1382    27852    6                    DO;
     1383    27853    6                      CALL Z8AU$TYPE_DESCRIPTOR (LOP$$ -> LX_ETT_ITEM.ETT$,
     1384    27854    6                                                 LOP_DESC);
     1385    27855    6                      LOP_DESC.DESC.P = LOP_ST$ -> VARIABLE.B.P;
     1386    27856    6                      IF ROP$ -> LX_ITEM.ID = %LX_TERMINAL THEN
     1387    27857    6                        SYMBOL = ROP$ -> LX_TERMINAL.SYMBOL;
     1388    27858    6                      ELSE /* %LX_ETT_ITEM */
     1389    27859    7                        DO;
     1390    27860    7                          TEMP$ = ROP$$ -> LX_ETT_ITEM.ETT$ -> ETT.LOP -> CONST.DNT$;
     1391    27861    7                          IF TEMP$ -> DNT.TEXT.NAME = 'ZERO' OR
     1392    27862    7                              TEMP$ -> DNT.TEXT.NAME = 'ZEROS' OR
     1393    27863    7                              TEMP$ -> DNT.TEXT.NAME = 'ZEROES'
     1394    27864    7                            THEN SYMBOL = %RSV_WRD_ZEROES;
     1395    27865    7                            ELSE SYMBOL = %NUMERIC_LITERAL;
     1396    27866    7                        END;
     1397    27867                           %INIT_LX_TERMINAL (@POINTER = "ADDR(TEMP_LX_TERMINAL)",
     1398    27868                                              @TYPE    = %TYD,
     1399    27869                                              @SYMBOL  = SYMBOL,
     1400    27870                                              @DNT$    =
             27870                                          ROP$$ -> LX_ETT_ITEM.ETT$ -> ETT.LOP -> CONST.DNT$
             27870                                                  );
     1401    27888    6                      IF LOP_DESC.DESC.NDSC.N + LOP_DESC.DESC.NDSC.SF <
     1402    27889    6                          ROP$$ -> LX_ETT_ITEM.ETT$ -> ETT.LOP -> CONST.NDSC.N
     1403    27890    6                          + ROP$$ -> LX_ETT_ITEM.ETT$ -> ETT.LOP -> CONST.NDSC.SF THEN
     1404    27891    6                        LOP_DESC.DESC.NDSC.N =
     1405    27892    6                            ROP$$ -> LX_ETT_ITEM.ETT$ -> ETT.LOP -> CONST.NDSC.N
PL6.E3A0      #001=Z8E7$STMT_ASSIGNMENT File=Z8E7.:Z8A6TSI                       SAT 08/09/97 11:35 Page:51
     1406    27893    6                            + ROP$$ -> LX_ETT_ITEM.ETT$ -> ETT.LOP -> CONST.NDSC.SF
     1407    27894    6                            - LOP_DESC.DESC.NDSC.SF;
     1408    27895    6                      CALL Z8EC$NEW_CONST_WITH_TYPE_DESC (LOP_DESC, ADDR(
             27895                               TEMP_LX_TERMINAL), ETT$$);
     1409    27896                           %NEW_ILL (@ID    = ID,
     1410    27897                                     @LOP   = LOP$$ -> LX_ETT_ITEM.ETT$,
     1411    27898                                     @ROP   = ETT$$);
     1412    28277    6                    END; /* %MVDD */
     1413    28278    5                  ELSE /* %MVDDR */
     1414    28279                         %NEW_ILL (@ID    = ID,
     1415    28280                                   @LOP   = LOP$$ -> LX_ETT_ITEM.ETT$,
     1416    28281                                   @ROP   = ROP$$ -> LX_ETT_ITEM.ETT$);
     1417    28660
     1418    28661    5                CASE (ELSE);
     1419    28662                       %NEW_ILL (@ID    = ID,
     1420    28663                                 @LOP   = LOP$$ -> LX_ETT_ITEM.ETT$,
     1421    28664                                 @ROP   = ROP$$ -> LX_ETT_ITEM.ETT$);
     1422    29043
     1423    29044    5              END; /*V* Case -- rop's id */
     1424    29045          %EJECT;
PL6.E3A0      #001=Z8E7$STMT_ASSIGNMENT File=Z8E7.:Z8A6TSI                       SAT 08/09/97 11:35 Page:52
     1425    29046    4            CASE(%MVDO, %MVDOR);
     1426    29047
     1427    29048    4              CALL Z8AU$TYPE_DESCRIPTOR (ROP$$ -> LX_ETT_ITEM.ETT$,
     1428    29049    4                                         TYPE_DESC);
     1429    29050
     1430    29051    4              END_MVDO_OPT:
     1431    29052    5                DO;
     1432    29053    5                  IF COMCOM.OB.ELS
     1433    29054    5                             AND (TYPE_DESC.DESC.NDSC.TN = %NDSC4
     1434    29055    5                               OR TYPE_DESC.TYPE        ~= %TYD
     1435    29056    5                               OR TYPE_DESC.DESC.NDSC.S ~= %NO_SIGN) THEN
     1436    29057    6                    DO CASE(ROP$$ -> LX_ETT_ITEM.ETT$ -> ETT.ID);
     1437    29058
     1438    29059    6                      CASE(%RNDD);
     1439    29060    6                        ID = %MVDOR;
     1440    29061    6                        ROP$$ -> LX_ETT_ITEM.ETT$ = ROP$$ -> LX_ETT_ITEM.ETT$ -> ETT.
             29061                                 LOP;
     1441    29062    6                        MORE_OPTIMIZATIONS = TRUE;
     1442    29063    6                        EXIT END_MVDO_OPT;
     1443    29064
     1444    29065    6                      CASE(%CVRD4, %CVRD9);
     1445    29066    6                        CALL Z8AU$TYPE_DESCRIPTOR (LOP$$ -> LX_ETT_ITEM.ETT$,
     1446    29067    6                                                   LOP_DESC);
     1447    29068
     1448    29069    6                        IF LOP_DESC.DESC.NDSC.SF = 0 AND ID = %MVDO THEN
     1449    29070    7                          DO;
     1450    29071    7                            CALL Z8AF$FORME (%CVRI,
     1451    29072    7                                             ROP$$ -> LX_ETT_ITEM.ETT$ -> ETT.LOP,
     1452    29073    7                                             0,
     1453    29074    7                                             ROP$$ -> LX_ETT_ITEM.ETT$);
     1454    29075    7                            CALL Z8AF$FORME (%CVID4,
     1455    29076    7                                             ROP$$ -> LX_ETT_ITEM.ETT$,
     1456    29077    7                                             0,
     1457    29078    7                                             ROP$$ -> LX_ETT_ITEM.ETT$);
     1458    29079    7                          END;
     1459    29080
     1460    29081    6                      CASE(%CVQD4, %CVQD9);
PL6.E3A0      #001=Z8E7$STMT_ASSIGNMENT File=Z8E7.:Z8A6TSI                       SAT 08/09/97 11:35 Page:53
     1461    29082    6                        CALL Z8AU$TYPE_DESCRIPTOR (LOP$$ -> LX_ETT_ITEM.ETT$,
     1462    29083    6                                                   LOP_DESC);
     1463    29084
     1464    29085    6                        IF LOP_DESC.DESC.NDSC.SF = 0 AND
     1465    29086    6                            LOP_DESC.DESC.NDSC.N < 11 AND
     1466    29087    6                            ID = %MVDO THEN
     1467    29088    7                          DO;
     1468    29089    7                            CALL Z8AF$FORME (%CVQI,
     1469    29090    7                                             ROP$$ -> LX_ETT_ITEM.ETT$ -> ETT.LOP,
     1470    29091    7                                             0,
     1471    29092    7                                             ROP$$ -> LX_ETT_ITEM.ETT$);
     1472    29093    7                            CALL Z8AF$FORME (%CVID4,
     1473    29094    7                                             ROP$$ -> LX_ETT_ITEM.ETT$,
     1474    29095    7                                             0,
     1475    29096    7                                             ROP$$ -> LX_ETT_ITEM.ETT$);
     1476    29097    7                          END;
     1477    29098
     1478    29099    6                      CASE(%ADD, %MPD);
     1479    29100    6                        CALL DEC_AS_OVERP (ROP$$ -> LX_ETT_ITEM.ETT$)
     1480    29101    6                          WHENRETURN
     1481    29102    7                            DO;
     1482    29103    7                              FROM$$ = ADDR(NIL);
     1483    29104    7                              IF ID = %MVDO THEN
     1484    29105    7                                ID = %MVOO;
     1485    29106    7                              ELSE
     1486    29107    7                                ID = %MVOOR;
     1487    29108    7                              CALL COMMUTATIVE_OPERANDS (LOP$$, ROP$$, FROM$$, ID);
     1488    29109    7                              EXIT END_MVDO_OPT;
     1489    29110    7                            END;
     1490    29111
     1491    29112
     1492    29113    6                      CASE(%SBD, %DVD);
     1493    29114    6                        CALL DEC_AS_OVERP (ROP$$ -> LX_ETT_ITEM.ETT$)
     1494    29115    6                          WHENRETURN
     1495    29116    7                            DO;
     1496    29117    7                              FROM$$ = ADDR(NIL);
     1497    29118    7                              IF ID = %MVDO THEN
PL6.E3A0      #001=Z8E7$STMT_ASSIGNMENT File=Z8E7.:Z8A6TSI                       SAT 08/09/97 11:35 Page:54
     1498    29119    7                                ID = %MVOO;
     1499    29120    7                              ELSE
     1500    29121    7                                ID = %MVOOR;
     1501    29122    7                              CALL NON_COMMUTATIVE_OPERANDS (LOP$$, ROP$$, FROM$$, ID);
     1502    29123    7                              EXIT END_MVDO_OPT;
     1503    29124    7                            END;
     1504    29125    6                    END;
     1505    29126
     1506    29127    5                  IF ROP$$ -> LX_ETT_ITEM.B.ALL THEN
     1507    29128    5                    CALL MOVE_ALL_NUM (LOP$$, ROP$$, ID);
     1508    29129    5                  ELSE
     1509    29130                         %NEW_ILL (@ID = ID,
     1510    29131                                   @LOP = LOP$$ -> LX_ETT_ITEM.ETT$,
     1511    29132                                   @ROP = ROP$$ -> LX_ETT_ITEM.ETT$);
     1512    29511    5                END;
     1513    29512
     1514    29513        %EJECT;
PL6.E3A0      #001=Z8E7$STMT_ASSIGNMENT File=Z8E7.:Z8A6TSI                       SAT 08/09/97 11:35 Page:55
     1515    29514    4            CASE(%MVOD, %MVODR);
     1516    29515
     1517    29516    4              CALL Z8AU$TYPE_DESCRIPTOR (LOP$$ -> LX_ETT_ITEM.ETT$,
     1518    29517    4                                         TYPE_DESC);
     1519    29518
     1520    29519    4              END_MVOD_OPT:
     1521    29520    5                DO;
     1522    29521    5                  IF COMCOM.OB.ELS
     1523    29522    5                       AND (TYPE_DESC.DESC.NDSC.TN
     1524    29523    5                               OR TYPE_DESC.DESC.NDSC.S ~= %NO_SIGN) THEN
     1525    29524    6                    DO CASE(ROP$$ -> LX_ETT_ITEM.ETT$ -> ETT.ID);
     1526    29525
     1527    29526    6                      CASE(%RNDO);
     1528    29527    6                        ID = %MVODR;
     1529    29528    6                        ROP$$ -> LX_ETT_ITEM.ETT$ = ROP$$ -> LX_ETT_ITEM.ETT$ -> ETT.
             29528                                 LOP;
     1530    29529    6                        MORE_OPTIMIZATIONS = TRUE;
     1531    29530    6                        EXIT END_MVOD_OPT;
     1532    29531
     1533    29532    6                      CASE(%ADO, %MPO);
     1534    29533    6                              FROM$$ = ADDR(NIL);
     1535    29534    6                              IF ID = %MVOD THEN
     1536    29535    6                                ID = %MVOO;
     1537    29536    6                              ELSE
     1538    29537    6                                ID = %MVOOR;
     1539    29538    6                              CALL COMMUTATIVE_OPERANDS (LOP$$, ROP$$, FROM$$, ID);
     1540    29539    6                              EXIT END_MVOD_OPT;
     1541    29540
     1542    29541
     1543    29542    6                      CASE(%SBO, %DVO);
     1544    29543    6                              FROM$$ = ADDR(NIL);
     1545    29544    6                              IF ID = %MVOD THEN
     1546    29545    6                                ID = %MVOO;
     1547    29546    6                              ELSE
     1548    29547    6                                ID = %MVOOR;
     1549    29548    6                              CALL NON_COMMUTATIVE_OPERANDS (LOP$$, ROP$$, FROM$$, ID);
     1550    29549    6                              EXIT END_MVOD_OPT;
PL6.E3A0      #001=Z8E7$STMT_ASSIGNMENT File=Z8E7.:Z8A6TSI                       SAT 08/09/97 11:35 Page:56
     1551    29550    6                    END;
     1552    29551                       %NEW_ILL ( @ID     = ID ,
     1553    29552                                  @LOP    = LOP$$ -> LX_ETT_ITEM.ETT$ ,
     1554    29553                                  @ROP    = ROP$$ -> LX_ETT_ITEM.ETT$ );
     1555    29932    5                END;
     1556    29933          %EJECT;
PL6.E3A0      #001=Z8E7$STMT_ASSIGNMENT File=Z8E7.:Z8A6TSI                       SAT 08/09/97 11:35 Page:57
     1557    29934    4            CASE(ELSE);
     1558    29935                   %NEW_ILL ( @ID     = ID ,
     1559    29936                              @LOP    = LOP$$ -> LX_ETT_ITEM.ETT$ ,
     1560    29937                              @ROP    = ROP$$ -> LX_ETT_ITEM.ETT$ );
     1561    30316    4          END /*V* Case */;
     1562    30317    3        END; /*V* While -- more_optimizations */
     1563    30318    2   END MOVE_OPTIMIZATIONS;
     1564    30319
     1565    30320        %EJECT;
PL6.E3A0      #001=Z8E7$STMT_ASSIGNMENT File=Z8E7.:Z8A6TSI                       SAT 08/09/97 11:35 Page:58
     1566    30321        /*================*/
     1567    30322    1     PRE_MOVE_ACTIONS: PROC (LOP$, ROP$) ALTRET;
     1568    30323        /*================*/
     1569    30324
     1570    30325    2   DCL LOP$               PTR;
     1571    30326    2   DCL ROP$               PTR;
     1572    30327
     1573    30328    2      CALL DE_EDIT (LOP$, ROP$);
     1574    30329
     1575    30330    2      CALL Z8E7$ROUNDING (LOP$, ROP$, ON_SIZE);
     1576    30331
     1577    30332    2      CALL Z8E7$EDITED (LOP$, ROP$, ON_SIZE)
     1578    30333    2        WHENALTRETURN
     1579    30334    3          DO;
     1580    30335    3            IF NOT ROP$ -> LX_ETT_ITEM.B.ALL THEN
     1581    30336    3              CALL SIGN_AND_TRUNCATION_CHECKS (LOP$, ROP$);
     1582    30337    3            ALTRETURN;
     1583    30338    3          END;
     1584    30339
     1585    30340    2   END PRE_MOVE_ACTIONS;
     1586    30341        %EJECT;
PL6.E3A0      #001=Z8E7$STMT_ASSIGNMENT File=Z8E7.:Z8A6TSI                       SAT 08/09/97 11:35 Page:59
     1587    30342        /*=======*/
     1588    30343    1     DE_EDIT: PROC (LOP$, ROP$);
     1589    30344        /*=======*/
     1590    30345
     1591    30346    2   DCL LOP$               PTR;
     1592    30347    2   DCL ROP$               PTR;
     1593    30348
     1594    30349    2   DCL ROP_ST$            PTR;
     1595    30350    2   DCL LOP_ST$            PTR;
     1596    30351
     1597    30352    2      IF ROP$ -> LX_ETT_ITEM.ID = %LX_ETT_ITEM THEN
     1598    30353    3        DO;
     1599    30354               %FISH (TRIAD = ROP$ -> LX_ETT_ITEM.ETT$,
     1600    30355                      RTN   = ROP_ST$);
     1601    30363
     1602    30364    3          IF ROP_ST$ -> VARIABLE.B.CLASS = %CLASS_NUMERIC_EDITED THEN
     1603    30365    4            DO;
     1604    30366    4              IF COMCOM.OB.FIPS.LEVEL >= %INT_LEV AND
     1605    30367    4                  NOT LOP$ -> LX_ITEM.B.HIGH_LEV AND
     1606    30368    4                  NOT ROP$ -> LX_ITEM.B.HIGH_LEV THEN
     1607    30369    4                CALL Z8AE$ERROR (%E$LEVEL_CHECK,
     1608    30370    4                                 O1COM.LINE_NO,
     1609    30371    4                                 O1COM.COLUMN_NO);
     1610    30372                   %FISH (TRIAD = LOP$ -> LX_ETT_ITEM.ETT$,
     1611    30373                          RTN   = LOP_ST$);
     1612    30381
     1613    30382    4              IF LOP_ST$ -> VARIABLE.B.SUB_CLASS.TYPE = %CLASS_NUMERIC THEN
     1614    30383    5                DO;
     1615    30384    5                  CALL Z8AF$FORME_ON_SIZE (%CVDDD,
     1616    30385    5                                           ROP$ -> LX_ETT_ITEM.ETT$,
     1617    30386    5                                           ADDR(NIL),
     1618    30387    5                                           ROP$ -> LX_ETT_ITEM.ETT$, ON_SIZE);
     1619    30388    5                  ROP$ -> LX_ETT_ITEM.TYPE = %TYD;
     1620    30389    5                END;
     1621    30390    4            END;
     1622    30391    3        END;
     1623    30392    2   END DE_EDIT;
PL6.E3A0      #001=Z8E7$STMT_ASSIGNMENT File=Z8E7.:Z8A6TSI                       SAT 08/09/97 11:35 Page:60
     1624    30393        %EJECT;
PL6.E3A0      #001=Z8E7$STMT_ASSIGNMENT File=Z8E7.:Z8A6TSI                       SAT 08/09/97 11:35 Page:61
     1625    30394        /*===============*/
     1626    30395    1     MOVE_DE_EDITING: PROC (LOP$, ROP$, ID);
     1627    30396        /*===============*/
     1628    30397
     1629    30398    2        DCL LOP$               PTR;
     1630    30399    2        DCL ROP$               PTR;
     1631    30400    2        DCL ID                 SBIN WORD;
     1632    30401
     1633    30402    2        DCL CONST$             PTR;
     1634    30403    2        DCL NEL$$              PTR;
     1635    30404    2        DCL LOP_ST$            PTR;
     1636    30405    2        DCL ROP_ST$            PTR;
     1637    30406    2        DCL DOLLAR$            PTR;
     1638    30407    2        DCL 1 DESC_BLK         ALIGNED,
     1639    30408    2             2 SEND_NUM        UBIN WORD UNAL,
     1640    30409    2             2 SEND_ALPHA      UBIN WORD UNAL,
     1641    30410    2             2 REC             UBIN WORD UNAL;
     1642    30411
     1643    30412    2        DCL CHAR_DESC_BLK      REDEF DESC_BLK CHAR (12);
     1644    30413    2        DCL ARGLIST$           PTR;
     1645    30414    2        DCL DESC_LIST$         PTR;
     1646    30415
     1647    30416             %DCL_AUTO_LX_ITEM      (@NAME = PLIST);
     1648    30420
     1649    30421             %DCL_AUTO_LX_ITEM      (@NAME = SEND);
     1650    30425             %DCL_AUTO_LX_ITEM      (@NAME = REC);
     1651    30429             %DCL_AUTO_LX_ITEM      (@NAME = DESC);
     1652    30433             %DCL_AUTO_LX_ITEM      (@NAME = DOLLAR);
     1653    30437
     1654    30438
     1655    30439
     1656    30440    2      ROP$ -> LX_ETT_ITEM.ETT$ = ROP$ -> LX_ETT_ITEM.ETT$ -> ETT.LOP;
     1657    30441
     1658    30442           %FISH (TRIAD = ROP$ -> LX_ETT_ITEM.ETT$,
     1659    30443                  RTN   = ROP_ST$);
     1660    30451
     1661    30452           %FISH (TRIAD = LOP$ -> LX_ETT_ITEM.ETT$,
PL6.E3A0      #001=Z8E7$STMT_ASSIGNMENT File=Z8E7.:Z8A6TSI                       SAT 08/09/97 11:35 Page:62
     1662    30453                  RTN   = LOP_ST$);
     1663    30461
     1664    30462           %GET_LTS (@ID      = %NEL,
     1665    30463                     @ST$     = ROP_ST$,
     1666    30464                     @RETURN$ = NEL$$);
     1667    30507
     1668    30508    2      DESC_BLK.SEND_NUM = BITBIN(NEL$$ -> NEL.DESC);
     1669    30509    2      DESC_BLK.SEND_ALPHA = BITBIN(ROP_ST$ -> NEL.DESC); /*V* Temporary */
     1670    30510    2      DESC_BLK.REC      = BITBIN(LOP_ST$ -> NEL.DESC);
     1671    30511
     1672    30512           %NEW_CONST (@ST$      = CONST$,
     1673    30513                       @TYPE     = %TYA,
     1674    30514                       @LONG_CONSTANT = TRUE);
     1675    30555
     1676    30556           %NEW_LCNST (@POINTER  = CONST$ -> CONST.CONST$.PTR$,
     1677    30557                       @SIZE     = "3 + 1",
     1678    30558                       @CONST    = CHAR_DESC_BLK);
     1679    30651
     1680    30652    2      CALL Z8AF$FORME (%TRIAD, CONST$, ADDR(NIL), CONST$);
     1681    30653
     1682    30654    2      CALL Z8AC$MAKE_TYA_CONST (O1COM.CURRENT_PROC$ -> PROC_.PROC_SUPP$ ->
     1683    30655    2                                PROC_SUPP.CURRENCY_SIGN,
     1684    30656    2                                1,
     1685    30657    2                                0,
     1686    30658    2                                DOLLAR$);
     1687    30659
     1688    30660    2      SEND = ROP$$ -> LX_ETT_ITEM;
     1689    30661    2      REC  = LOP$$ -> LX_ETT_ITEM;
     1690    30662
     1691    30663           %INIT_LX_ETT_ITEM (@POINTER = "ADDR(DESC)",
     1692    30664                              @TYPE    = %TYA,
     1693    30665                              @ETT$    = CONST$);
     1694    30687
     1695    30688           %INIT_LX_ETT_ITEM (@POINTER = "ADDR(DOLLAR)",
     1696    30689                              @TYPE    = %TYA,
     1697    30690                              @ETT$    = DOLLAR$);
     1698    30712
PL6.E3A0      #001=Z8E7$STMT_ASSIGNMENT File=Z8E7.:Z8A6TSI                       SAT 08/09/97 11:35 Page:63
     1699    30713           %INIT_LX_LIST (@POINTER = "ADDR(PLIST)");
     1700    30723
     1701    30724           %ADD_LX_ITEM_TO_LIST_HEAD (@LIST$ = "ADDR(PLIST)", @FROM$ = "ADDR(SEND)");
     1702    30733           %ADD_LX_ITEM_TO_LIST_TAIL (@LIST$ = "ADDR(PLIST)", @FROM$ = "ADDR(REC)");
     1703    30749           %ADD_LX_ITEM_TO_LIST_TAIL (@LIST$ = "ADDR(PLIST)", @FROM$ = "ADDR(DESC)");
     1704    30765           %ADD_LX_ITEM_TO_LIST_TAIL (@LIST$ = "ADDR(PLIST)", @FROM$ = "ADDR(DOLLAR)");
     1705    30781
     1706    30782    2      CALL Z8EY$BUILD_RUNTIME_ARGLIST (ADDR(PLIST) -> LX_LIST.HEAD$,
     1707    30783    2                                       ARGLIST$,
     1708    30784    2                                       4);
     1709    30785
     1710    30786    2      CALL Z9EY$BUILD_RUNTIME_DESCRIPTOR (ADDR(PLIST) -> LX_LIST.HEAD$,
     1711    30787    2                                          DESC_LIST$,
     1712    30788    2                                          4);
     1713    30789
     1714    30790           %NEW_ILL (@ID     = %OS_CALL,
     1715    30791                     @CODE   = %OP_MVDDD,
     1716    30792                     @LOP    = ARGLIST$,
     1717    30793                     @ROP    = DESC_LIST$);
     1718    31172
     1719    31173
     1720    31174    2   END MOVE_DE_EDITING;
     1721    31175        %EJECT;
PL6.E3A0      #001=Z8E7$STMT_ASSIGNMENT File=Z8E7.:Z8A6TSI                       SAT 08/09/97 11:35 Page:64
     1722    31176        /*=====*/
     1723    31177    1     RANGE: PROC (ROP$, LOWER, UPPER, LABEL$);
     1724    31178        /*=====*/
     1725    31179
     1726    31180    2        DCL ROP$        PTR;
     1727    31181    2        DCL LOWER       SBIN WORD;
     1728    31182    2        DCL UPPER       SBIN WORD;
     1729    31183    2        DCL LABEL$      PTR;
     1730    31184
     1731    31185    2        DCL UPPER$      PTR;
     1732    31186    2        DCL LOWER$      PTR;
     1733    31187    2        DCL TREE$       PTR;
     1734    31188
     1735    31189    2        DCL Z8AC$LX_ETT_ITEM_TYI_CONST        ENTRY(2);
     1736    31190
     1737    31191
     1738    31192    2        UPPER$ = ADDR(UPPER_LX_ETT_ITEM);
     1739    31193    2        LOWER$ = ADDR(LOWER_LX_ETT_ITEM);
     1740    31194
     1741    31195    2        CALL Z8AC$LX_ETT_ITEM_TYI_CONST( UPPER, UPPER$ );
     1742    31196
     1743    31197    2        CALL Z8AC$LX_ETT_ITEM_TYI_CONST( LOWER, LOWER$ );
     1744    31198
     1745    31199    2        CALL Z8EK$RANGE(ROP$, LOWER$, UPPER$, TREE$);
     1746    31200
     1747    31201    2        CALL Z8EK$BRANCH_FALSE(LABEL$, TREE$);
     1748    31202
     1749    31203    2        CALL Z8ED$DISPOSE_ABSSYN_TREE(TREE$);
     1750    31204
     1751    31205
     1752    31206    2   END RANGE;
     1753    31207        %EJECT;
PL6.E3A0      #001=Z8E7$STMT_ASSIGNMENT File=Z8E7.:Z8A6TSI                       SAT 08/09/97 11:35 Page:65
     1754    31208        /*====================*/
     1755    31209    1     COMMUTATIVE_OPERANDS: PROC (LOP$$, ROP$$, FROM$$, ID);
     1756    31210        /*====================*/
     1757    31211
     1758    31212    2   DCL LOP$$              PTR;
     1759    31213    2   DCL ROP$$              PTR;
     1760    31214    2   DCL FROM$$             PTR;
     1761    31215    2   DCL ID                 SBIN WORD;
     1762    31216
     1763    31217    2   DCL TWO_OPERAND_ID     SBIN WORD;
     1764    31218    2   DCL THREE_OPERAND_ID   SBIN WORD;
     1765    31219
     1766    31220    3      DO CASE (ROP$$ -> LX_ETT_ITEM.ETT$ -> ETT.ID);
     1767    31221    3        CASE (%ADD);
     1768    31222    4          DO SELECT (ID);
     1769    31223    4            SELECT(%MVDDR);
     1770    31224    4              TWO_OPERAND_ID   = %AD2DR;
     1771    31225    4              THREE_OPERAND_ID = %AD3DR;
     1772    31226    4            SELECT(%MVDD);
     1773    31227    4              TWO_OPERAND_ID   = %AD2D;
     1774    31228    4              THREE_OPERAND_ID = %AD3D;
     1775    31229    4            SELECT(%MVOOR);
     1776    31230    4              TWO_OPERAND_ID   = %AD2OR;
     1777    31231    4              THREE_OPERAND_ID = %AD3OR;
     1778    31232    4            SELECT(%MVOO);
     1779    31233    4              TWO_OPERAND_ID   = %AD2O;
     1780    31234    4              THREE_OPERAND_ID = %AD3O;
     1781    31235    4           END;
     1782    31236
     1783    31237    3        CASE (%MPD);
     1784    31238    4          DO SELECT (ID);
     1785    31239    4            SELECT(%MVDDR);
     1786    31240    4              TWO_OPERAND_ID   = %MP2DR;
     1787    31241    4              THREE_OPERAND_ID = %MP3DR;
     1788    31242    4            SELECT(%MVDD);
     1789    31243    4              TWO_OPERAND_ID   = %MP2D;
     1790    31244    4              THREE_OPERAND_ID = %MP3D;
PL6.E3A0      #001=Z8E7$STMT_ASSIGNMENT File=Z8E7.:Z8A6TSI                       SAT 08/09/97 11:35 Page:66
     1791    31245    4            SELECT(%MVOOR);
     1792    31246    4              TWO_OPERAND_ID   = %MP2OR;
     1793    31247    4              THREE_OPERAND_ID = %MP3OR;
     1794    31248    4            SELECT(%MVOO);
     1795    31249    4              TWO_OPERAND_ID = %MP2O;
     1796    31250    4              THREE_OPERAND_ID = %MP3O;
     1797    31251    4          END;
     1798    31252
     1799    31253    3        CASE(%ADO);
     1800    31254    3          IF ID = %MVOOR THEN
     1801    31255    4            DO;
     1802    31256    4              TWO_OPERAND_ID   = %AD2OR;
     1803    31257    4              THREE_OPERAND_ID = %AD3OR;
     1804    31258    4            END;
     1805    31259    3          ELSE
     1806    31260    4            DO;
     1807    31261    4              TWO_OPERAND_ID = %AD2O;
     1808    31262    4              THREE_OPERAND_ID = %AD3O;
     1809    31263    4            END;
     1810    31264
     1811    31265    3        CASE(%MPO);
     1812    31266    3          IF ID = %MVOOR THEN
     1813    31267    4            DO;
     1814    31268    4              TWO_OPERAND_ID = %MP2OR;
     1815    31269    4              THREE_OPERAND_ID = %MP3OR;
     1816    31270    4            END;
     1817    31271    3          ELSE
     1818    31272    4            DO;
     1819    31273    4              TWO_OPERAND_ID = %MP2O;
     1820    31274    4              THREE_OPERAND_ID = %MP3O;
     1821    31275    4            END;
     1822    31276    3      END;
     1823    31277
     1824    31278    2      IF LOP$$ -> LX_ETT_ITEM.ETT$ = ROP$$ -> LX_ETT_ITEM.ETT$ -> ETT.LOP THEN
     1825    31279    3        DO;
     1826    31280    3          ROP$$ -> LX_ETT_ITEM.ETT$ = ROP$$ -> LX_ETT_ITEM.ETT$ -> ETT.ROP;
     1827    31281    3          ID = TWO_OPERAND_ID;
PL6.E3A0      #001=Z8E7$STMT_ASSIGNMENT File=Z8E7.:Z8A6TSI                       SAT 08/09/97 11:35 Page:67
     1828    31282    3        END;
     1829    31283    2      ELSE
     1830    31284    2        IF LOP$$ -> LX_ETT_ITEM.ETT$ = ROP$$ -> LX_ETT_ITEM.ETT$ -> ETT.ROP THEN
     1831    31285    3          DO;
     1832    31286    3            ROP$$ -> LX_ETT_ITEM.ETT$ = ROP$$ -> LX_ETT_ITEM.ETT$ -> ETT.LOP;
     1833    31287    3            ID = TWO_OPERAND_ID;
     1834    31288    3          END;
     1835    31289    2        ELSE
     1836    31290    3          DO;
     1837    31291    3            FROM$$ = ROP$$ -> LX_ETT_ITEM.ETT$ -> ETT.LOP;
     1838    31292    3            ROP$$ -> LX_ETT_ITEM.ETT$ = ROP$$ -> LX_ETT_ITEM.ETT$ -> ETT.ROP;
     1839    31293    3            ID = THREE_OPERAND_ID;
     1840    31294    3          END;
     1841    31295
     1842    31296    2        IF ID = TWO_OPERAND_ID THEN
     1843    31297               %NEW_ILL (@ID     = ID,
     1844    31298                         @LOP    = LOP$$ -> LX_ETT_ITEM.ETT$,
     1845    31299                         @ROP    = ROP$$ -> LX_ETT_ITEM.ETT$);
     1846    31678    2        ELSE
     1847    31679               %NEW_ILL (@ID     = ID,
     1848    31680                         @LOP    = FROM$$,
     1849    31681                         @ROP    = ROP$$ -> LX_ETT_ITEM.ETT$,
     1850    31682                         @TO     = LOP$$ -> LX_ETT_ITEM.ETT$);
     1851    32061
     1852    32062    2   END COMMUTATIVE_OPERANDS;
     1853    32063        %EJECT;
PL6.E3A0      #001=Z8E7$STMT_ASSIGNMENT File=Z8E7.:Z8A6TSI                       SAT 08/09/97 11:35 Page:68
     1854    32064        /*========================*/
     1855    32065    1     NON_COMMUTATIVE_OPERANDS: PROC (LOP$$, ROP$$, FROM$$, ID);
     1856    32066        /*========================*/
     1857    32067
     1858    32068    2   DCL LOP$$              PTR;
     1859    32069    2   DCL ROP$$              PTR;
     1860    32070    2   DCL FROM$$             PTR;
     1861    32071    2   DCL ID                 SBIN WORD;
     1862    32072
     1863    32073    2   DCL TWO_OPERAND_ID     SBIN WORD;
     1864    32074    2   DCL THREE_OPERAND_ID   SBIN WORD;
     1865    32075
     1866    32076    3      DO CASE (ROP$$ -> LX_ETT_ITEM.ETT$ -> ETT.ID);
     1867    32077    3        CASE (%SBD);
     1868    32078    4          DO SELECT(ID);
     1869    32079    4            SELECT(%MVDDR);
     1870    32080    4              TWO_OPERAND_ID   = %SB2DR;
     1871    32081    4              THREE_OPERAND_ID = %SB3DR;
     1872    32082    4            SELECT(%MVDD);
     1873    32083    4              TWO_OPERAND_ID    = %SB2D;
     1874    32084    4              THREE_OPERAND_ID  = %SB3D;
     1875    32085    4            SELECT(%MVOOR);
     1876    32086    4              TWO_OPERAND_ID = %SB2OR;
     1877    32087    4              THREE_OPERAND_ID = %SB3OR;
     1878    32088    4            SELECT(%MVOO);
     1879    32089    4              TWO_OPERAND_ID = %SB2O;
     1880    32090    4              THREE_OPERAND_ID = %SB3O;
     1881    32091    4          END;
     1882    32092
     1883    32093    3        CASE (%DVD);
     1884    32094    4          DO SELECT(ID);
     1885    32095    4            SELECT(%MVDDR);
     1886    32096    4              TWO_OPERAND_ID   = %DV2DR;
     1887    32097    4              THREE_OPERAND_ID = %DV3DR;
     1888    32098    4            SELECT(%MVDD);
     1889    32099    4              TWO_OPERAND_ID    = %DV2D;
     1890    32100    4              THREE_OPERAND_ID  = %DV3D;
PL6.E3A0      #001=Z8E7$STMT_ASSIGNMENT File=Z8E7.:Z8A6TSI                       SAT 08/09/97 11:35 Page:69
     1891    32101    4            SELECT(%MVOOR);
     1892    32102    4              TWO_OPERAND_ID = %DV2OR;
     1893    32103    4              THREE_OPERAND_ID  = %DV3OR;
     1894    32104    4            SELECT(%MVOO);
     1895    32105    4              TWO_OPERAND_ID = %DV2O;
     1896    32106    4              THREE_OPERAND_ID = %DV3O;
     1897    32107    4          END;
     1898    32108
     1899    32109    3        CASE(%SBO);
     1900    32110    3          IF ID = %MVOOR THEN
     1901    32111    4            DO;
     1902    32112    4              TWO_OPERAND_ID = %SB2OR;
     1903    32113    4              THREE_OPERAND_ID = %SB3OR;
     1904    32114    4            END;
     1905    32115    3          ELSE
     1906    32116    4            DO;
     1907    32117    4              TWO_OPERAND_ID = %SB2O;
     1908    32118    4              THREE_OPERAND_ID = %SB3O;
     1909    32119    4            END;
     1910    32120
     1911    32121    3        CASE(%DVO);
     1912    32122    3          IF ID = %MVOOR THEN
     1913    32123    4            DO;
     1914    32124    4              TWO_OPERAND_ID = %DV2OR;
     1915    32125    4              THREE_OPERAND_ID = %DV3OR;
     1916    32126    4            END;
     1917    32127    3          ELSE
     1918    32128    4            DO;
     1919    32129    4              TWO_OPERAND_ID = %DV2O;
     1920    32130    4              THREE_OPERAND_ID = %DV3O;
     1921    32131    4            END;
     1922    32132    3      END; /*V* Case */
     1923    32133
     1924    32134           /* DPS90 DV3D kludge removed -- hardware has been fixed */
     1925    32135
     1926    32136    2      IF LOP$$ -> LX_ETT_ITEM.ETT$ = ROP$$ -> LX_ETT_ITEM.ETT$ -> ETT.LOP THEN
     1927    32137    3        DO;
PL6.E3A0      #001=Z8E7$STMT_ASSIGNMENT File=Z8E7.:Z8A6TSI                       SAT 08/09/97 11:35 Page:70
     1928    32138    3          ROP$$ -> LX_ETT_ITEM.ETT$ = ROP$$ -> LX_ETT_ITEM.ETT$ -> ETT.ROP;
     1929    32139    3          ID = TWO_OPERAND_ID;
     1930    32140    3        END;
     1931    32141    2      ELSE
     1932    32142    3        DO;
     1933    32143    3          FROM$$ = ROP$$ -> LX_ETT_ITEM.ETT$ -> ETT.LOP;
     1934    32144    3          ROP$$ -> LX_ETT_ITEM.ETT$ = ROP$$ -> LX_ETT_ITEM.ETT$ -> ETT.ROP;
     1935    32145    3          ID = THREE_OPERAND_ID;
     1936    32146    3        END;
     1937    32147
     1938    32148    2        IF ID = TWO_OPERAND_ID THEN
     1939    32149               %NEW_ILL (@ID     = ID,
     1940    32150                         @LOP    = LOP$$ -> LX_ETT_ITEM.ETT$,
     1941    32151                         @ROP    = ROP$$ -> LX_ETT_ITEM.ETT$);
     1942    32530    2        ELSE
     1943    32531               %NEW_ILL (@ID     = ID,
     1944    32532                         @LOP    = FROM$$,
     1945    32533                         @ROP    = ROP$$ -> LX_ETT_ITEM.ETT$,
     1946    32534                         @TO     = LOP$$ -> LX_ETT_ITEM.ETT$);
     1947    32913
     1948    32914    2   END NON_COMMUTATIVE_OPERANDS;
     1949    32915        %EJECT;
PL6.E3A0      #001=Z8E7$STMT_ASSIGNMENT File=Z8E7.:Z8A6TSI                       SAT 08/09/97 11:35 Page:71
     1950    32916        /*========*/
     1951    32917    1     MOVE_ALL: PROC (REC$, LIT$);
     1952    32918        /*========*/
     1953    32919
     1954    32920    2        DCL LIT$          PTR;
     1955    32921    2        DCL REC$          PTR;
     1956    32922
     1957    32923
     1958    32924    2        DCL Z8EY$SUBSTR          ENTRY (4);
     1959    32925    2        DCL Z8EQ$MERGE_ITERATED_DO_WHILE ENTRY (4);
     1960    32926    2        DCL Z8EU$DISPOSE_TEMP    ENTRY (1);
     1961    32927    2        DCL EXIT_LABEL$          PTR;
     1962    32928
     1963    32929          /*V*  This procedure generates a move loop for  constructs like
     1964    32930                         MOVE ALL "XXX" TO REC
     1965    32931
     1966    32932              The algorithm is :
     1967    32933
     1968    32934                   NUM_MOVES = DIV (LEN(REC), LEN(LIT));
     1969    32935                   REMAINING_CHARS = MOD (LEN(REC), LEN(LIT))
     1970    32936
     1971    32937                   <Emit only if NUM_MOVES ~= constant 0>
     1972    32938
     1973    32939                       DO I = 1 TO LEN(REC) - LEN(LIT) + 1  BY LEN(LIT);
     1974    32940
     1975    32941                         MOVE LIT TO SUBSTR ( REC, I, LEN (LIT) );
     1976    32942
     1977    32943                       END;
     1978    32944
     1979    32945                   <Emit only if REMAINING_CHARS ~= constant 0>
     1980    32946
     1981    32947                       IF REMAINING_CHARS > 0
     1982    32948                         MOVE SUBSTR(LIT, 1, REMAINING_CHARS)
     1983    32949                             TO SUBSTR (REC,
     1984    32950                                          I,  (or 1 if above loop was not emitted)
     1985    32951                                          REMAINING_CHARS);
     1986    32952          */
PL6.E3A0      #001=Z8E7$STMT_ASSIGNMENT File=Z8E7.:Z8A6TSI                       SAT 08/09/97 11:35 Page:72
     1987    32953
     1988    32954
     1989    32955            %DCL_AUTO_LX_ITEM(@NAME = STR_LEN);
     1990    32959            %DCL_AUTO_LX_ITEM(@NAME = LIT_LEN);
     1991    32963            %DCL_AUTO_LX_ITEM(@NAME = LOOP_COUNTER);
     1992    32967            %DCL_AUTO_LX_ITEM(@NAME = NUM_MOVES);
     1993    32971            %DCL_AUTO_LX_ITEM(@NAME = REM_CHARS);
     1994    32975            %DCL_AUTO_LX_ITEM(@NAME = SUBSTRING);
     1995    32979            %DCL_AUTO_LX_ITEM(@NAME = SUBSTRING2);
     1996    32983            %DCL_AUTO_LX_ITEM(@NAME = COMPARE);
     1997    32987            %DCL_AUTO_LX_ITEM(@NAME = MINUS);
     1998    32991            %DCL_AUTO_LX_ITEM(@NAME = PLUS);
     1999    32995            %DCL_AUTO_LX_ITEM(@NAME = ZERO);
     2000    32999            %DCL_AUTO_LX_ITEM(@NAME = ONE);
     2001    33003             %DCL_AUTO_LX_ITEM(@NAME = SAVED_ILS_LIST);
     2002    33007
     2003    33008        %EJECT;
PL6.E3A0      #001=Z8E7$STMT_ASSIGNMENT File=Z8E7.:Z8A6TSI                       SAT 08/09/97 11:35 Page:73
     2004    33009
     2005    33010    2        ADDR(SAVED_ILS_LIST) -> ILS_LIST = O1COM.ILS_LIST;
     2006    33011
     2007    33012             %INIT_ILS_LIST (@POINTER = "ADDR(O1COM.ILS_LIST)");
     2008    33020
     2009    33021            %INIT_LX_ETT_ITEM (@POINTER = "ADDR(LOOP_COUNTER)",
     2010    33022                               @ETT$ = "ADDR(NIL)");
     2011    33044
     2012    33045            %INIT_LX_ETT_ITEM (@POINTER = "ADDR(ONE)",
     2013    33046                               @TYPE = %TYI,
     2014    33047                               @ETT$ = COMCOM.VALUE_1);
     2015    33069
     2016    33070            /*V* Get the two operands to be moved from the list.
     2017    33071               The first is the string;  the second is the ALL <literal>
     2018    33072            */
     2019    33073
     2020    33074    2       LIT$ -> LX_ETT_ITEM.B.ALL = FALSE;
     2021    33075
     2022    33076            /*V* Calculate the lengths */
     2023    33077
     2024    33078            %INIT_LX_ETT_ITEM (@POINTER = "ADDR(STR_LEN)",
     2025    33079                               @TYPE = %TYI);
     2026    33101
     2027    33102    2       CALL Z8AU$LENGTH_ETT (REC$ -> LX_ETT_ITEM.ETT$,
     2028    33103    2                             ADDR(STR_LEN) -> LX_ETT_ITEM.ETT$);
     2029    33104
     2030    33105            %INIT_LX_ETT_ITEM (@POINTER = "ADDR(LIT_LEN)",
     2031    33106                               @TYPE = %TYI);
     2032    33128
     2033    33129    2       CALL Z8AU$LENGTH_ETT (LIT$ -> LX_ETT_ITEM.ETT$,
     2034    33130    2                             ADDR(LIT_LEN) -> LX_ETT_ITEM.ETT$);
     2035    33131
     2036    33132            /*V* Calculate NUM_MOVES & REM_CHARS */
     2037    33133
     2038    33134            %INIT_LX_ETT_ITEM (@POINTER = "ADDR(NUM_MOVES)",
     2039    33135                               @TYPE = %TYI);
     2040    33157
PL6.E3A0      #001=Z8E7$STMT_ASSIGNMENT File=Z8E7.:Z8A6TSI                       SAT 08/09/97 11:35 Page:74
     2041    33158    2       CALL Z8AF$FORME (%DVI,
     2042    33159    2                        ADDR(STR_LEN) -> LX_ETT_ITEM.ETT$,
     2043    33160    2                        ADDR(LIT_LEN) -> LX_ETT_ITEM.ETT$,
     2044    33161    2                        ADDR(NUM_MOVES) -> LX_ETT_ITEM.ETT$);
     2045    33162
     2046    33163            %INIT_LX_ETT_ITEM (@POINTER = "ADDR(REM_CHARS)",
     2047    33164                               @TYPE = %TYI);
     2048    33186
     2049    33187    2       CALL Z8AF$FORME (%MODI,
     2050    33188    2                        ADDR(STR_LEN) -> LX_ETT_ITEM.ETT$,
     2051    33189    2                        ADDR(LIT_LEN) -> LX_ETT_ITEM.ETT$,
     2052    33190    2                        ADDR(REM_CHARS) -> LX_ETT_ITEM.ETT$);
     2053    33191
     2054    33192            /*V* Issue loop for whole moves */
     2055    33193
     2056    33194    2       IF ADDR(NUM_MOVES) -> LX_ETT_ITEM.ETT$ ~= COMCOM.VALUE_0 THEN
     2057    33195    3         DO;
     2058    33196    3           CALL Z8EU$NEW_TEMP_FROM_ETT (COMCOM.VALUE_1,
     2059    33197    3                                        ADDR(LOOP_COUNTER));
     2060    33198
     2061    33199
     2062    33200    3           CALL Z8EY$SUBSTR (REC$,
     2063    33201    3                             ADDR(LOOP_COUNTER),
     2064    33202    3                             ADDR(LIT_LEN),
     2065    33203    3                             ADDR(SUBSTRING));
     2066    33204
     2067    33205
     2068    33206                %INIT_BINARY_OP (@POINTER = "ADDR(PLUS)",
     2069    33207                                 @LOP$ = "ADDR(ONE)",
     2070    33208                                 @ROP$ = "ADDR(STR_LEN)",
     2071    33209                                 @OP = %OP_PLUS);
     2072    33227
     2073    33228                %INIT_BINARY_OP (@POINTER = "ADDR(MINUS)",
     2074    33229                                 @LOP$ = "ADDR(PLUS)",
     2075    33230                                 @ROP$ = "ADDR(LIT_LEN)",
     2076    33231                                 @OP = %OP_BINARY_MINUS);
     2077    33249
PL6.E3A0      #001=Z8E7$STMT_ASSIGNMENT File=Z8E7.:Z8A6TSI                       SAT 08/09/97 11:35 Page:75
     2078    33250                %INIT_BINARY_OP (@POINTER = "ADDR(COMPARE)",
     2079    33251                                 @LOP$ = "ADDR(LOOP_COUNTER)",
     2080    33252                                 @ROP$ = "ADDR(MINUS)",
     2081    33253                                 @OP = %OP_LESS_THAN_OR_EQUAL);
     2082    33271
     2083    33272    3           CALL Z8E7$MOVE (ADDR(SUBSTRING), LIT$);
     2084    33273
     2085    33274    3           CALL Z8EQ$MERGE_ITERATED_DO_WHILE (ADDR(LOOP_COUNTER),
     2086    33275    3                                              ADDR(ONE),
     2087    33276    3                                              ADDR(LIT_LEN),
     2088    33277    3                                              ADDR(COMPARE));
     2089    33278    3         END;
     2090    33279
     2091    33280            /*V* Issue last MOVE statement */
     2092    33281
     2093    33282    2       IF ADDR(REM_CHARS) -> LX_ETT_ITEM.ETT$ ~= COMCOM.VALUE_0 THEN
     2094    33283    3         DO;
     2095    33284    3           CALL Z8AT$CREATE_TEMPORARY (%PARA, EXIT_LABEL$);
     2096    33285
     2097    33286                %INIT_LX_ETT_ITEM (@POINTER = "ADDR(ZERO)",
     2098    33287                                   @TYPE = %TYI,
     2099    33288                                   @ETT$ = COMCOM.VALUE_0);
     2100    33310
     2101    33311                %INIT_BINARY_OP (@POINTER = "ADDR(COMPARE)",
     2102    33312                                 @LOP$ = "ADDR(REM_CHARS)",
     2103    33313                                 @ROP$ = "ADDR(ZERO)",
     2104    33314                                 @OP = %OP_GREATER_THAN);
     2105    33332
     2106    33333
     2107    33334    3           CALL Z8EK$BRANCH_FALSE (EXIT_LABEL$, ADDR(COMPARE));
     2108    33335    3           CALL Z8EY$SUBSTR (LIT$,
     2109    33336    3                             ADDR(ONE),
     2110    33337    3                             ADDR(REM_CHARS),
     2111    33338    3                             ADDR(SUBSTRING));
     2112    33339
     2113    33340    3           IF ADDR(LOOP_COUNTER) -> LX_ETT_ITEM.ETT$ = ADDR(NIL) THEN
     2114    33341    3             CALL Z8EY$SUBSTR (REC$,
PL6.E3A0      #001=Z8E7$STMT_ASSIGNMENT File=Z8E7.:Z8A6TSI                       SAT 08/09/97 11:35 Page:76
     2115    33342    3                               ADDR(ONE),
     2116    33343    3                               ADDR(REM_CHARS),
     2117    33344    3                               ADDR(SUBSTRING2));
     2118    33345    3           ELSE
     2119    33346    3             CALL Z8EY$SUBSTR (REC$,
     2120    33347    3                               ADDR(LOOP_COUNTER),
     2121    33348    3                               ADDR(REM_CHARS),
     2122    33349    3                               ADDR(SUBSTRING2));
     2123    33350
     2124    33351    3           CALL Z8E7$MOVE (ADDR(SUBSTRING2), ADDR(SUBSTRING));
     2125    33352
     2126    33353                %NEW_ILL (@ID = %DEFLB,
     2127    33354                          @LABEL$ = EXIT_LABEL$);
     2128    33733    3         END;
     2129    33734
     2130    33735
     2131    33736    2       IF ADDR(LOOP_COUNTER) -> LX_ETT_ITEM.ETT$ ~= ADDR(NIL) THEN
     2132    33737    2         CALL Z8EU$DISPOSE_TEMP (ADDR(LOOP_COUNTER) -> LX_ETT_ITEM.ETT$);
     2133    33738
     2134    33739            %APPEND_ILS_LIST (@FROM$ = "ADDR(O1COM.ILS_LIST)",
     2135    33740                              @TO$   = "ADDR(SAVED_ILS_LIST)");
     2136    33757
     2137    33758    2       O1COM.ILS_LIST = ADDR(SAVED_ILS_LIST) -> ILS_LIST;
     2138    33759
     2139    33760    2   END MOVE_ALL;
     2140    33761        %EJECT;
PL6.E3A0      #001=Z8E7$STMT_ASSIGNMENT File=Z8E7.:Z8A6TSI                       SAT 08/09/97 11:35 Page:77
     2141    33762        /*=============*/
     2142    33763    1     MOVE_ALL_OPTZ: PROC (LOP$$, ROP$$);
     2143    33764        /*=============*/
     2144    33765
     2145    33766    2        DCL LOP$$         PTR;
     2146    33767    2        DCL ROP$$         PTR;
     2147    33768    2        DCL LOP_LENGTH$   PTR;
     2148    33769    2        DCL LIT_LENGTH$   PTR;
     2149    33770
     2150    33771    2        DCL CONST_BUF     CHAR (%MAX_BUF_LEN);
     2151    33772
     2152    33773    2        DCL REM_CHARS     SBIN;
     2153    33774    2        DCL LEN_STR       SBIN;
     2154    33775    2        DCL LEN_LIT       SBIN;
     2155    33776    2        DCL ADDR_LIT$     PTR;
     2156    33777    2        DCL BASED_LIT     CHAR (LEN_LIT) BASED (ADDR_LIT$);
     2157    33778    2        DCL DIFF_LEN      SBIN;
     2158    33779    2        DCL I             SBIN;
     2159    33780
     2160    33781
     2161    33782    2        I = 0;
     2162    33783
     2163    33784    2        CALL Z8AU$LENGTH_ETT (LOP$$ -> LX_ETT_ITEM.ETT$, LOP_LENGTH$);
     2164    33785    2        CALL Z8AU$LENGTH_ETT (ROP$$ -> LX_ETT_ITEM.ETT$, LIT_LENGTH$);
     2165    33786
     2166    33787    2        LEN_STR = LOP_LENGTH$ ->  ETT.LOP -> CONST.CONSTI.WORD1;
     2167    33788    2        LEN_LIT = LIT_LENGTH$ ->  ETT.LOP -> CONST.CONSTI.WORD1;
     2168    33789
     2169    33790    2        DIFF_LEN  = LEN_STR - LEN_LIT;
     2170    33791
     2171    33792             %GET_CONSTANT_ADDRESS (@CONSTANT = ROP$$ -> LX_ETT_ITEM.ETT$ -> ETT.LOP,
     2172    33793                                    @STRING   = ADDR_LIT$);
     2173    33801
     2174    33802    3        DO I = 0 TO DIFF_LEN BY LEN_LIT;
     2175    33803    3          SUBSTR (CONST_BUF, I, LEN_LIT) = BASED_LIT;
     2176    33804    3        END;
     2177    33805
PL6.E3A0      #001=Z8E7$STMT_ASSIGNMENT File=Z8E7.:Z8A6TSI                       SAT 08/09/97 11:35 Page:78
     2178    33806    2        REM_CHARS = LEN_STR - I;
     2179    33807    2        IF REM_CHARS > 0 THEN
     2180    33808    2          SUBSTR (CONST_BUF, I, REM_CHARS) = SUBSTR (BASED_LIT, 0, REM_CHARS);
     2181    33809
     2182    33810    2        CALL Z8AC$MAKE_TYA_CONST (CONST_BUF,
     2183    33811    2                                  LEN_STR,
     2184    33812    2                                  0,
     2185    33813    2                                  ROP$$ -> LX_ETT_ITEM.ETT$);
     2186    33814
     2187    33815    2        ROP$$ -> LX_ETT_ITEM.B.ALL = FALSE;
     2188    33816
     2189    33817             %NEW_ILL ( @ID = %MVAN,
     2190    33818                        @LOP = LOP$$ -> LX_ETT_ITEM.ETT$,
     2191    33819                        @ROP = ROP$$ -> LX_ETT_ITEM.ETT$);
     2192    34198
     2193    34199    2   END MOVE_ALL_OPTZ;
     2194    34200        %EJECT;
PL6.E3A0      #001=Z8E7$STMT_ASSIGNMENT File=Z8E7.:Z8A6TSI                       SAT 08/09/97 11:35 Page:79
     2195    34201        /*============*/
     2196    34202    1     MOVE_ALL_NUM: PROC (LOP$$, ROP$$, ID);
     2197    34203        /*============*/
     2198    34204
     2199    34205    2        DCL LOP$$         PTR;
     2200    34206    2        DCL ROP$$         PTR;
     2201    34207    2        DCL ID            SBIN;
     2202    34208    2        DCL CONST_BUF     CHAR (63);
     2203    34209    2        DCL LIT_LENGTH$   PTR;
     2204    34210    2        DCL LEN_STR       SBIN;
     2205    34211    2        DCL LEN_LIT       SBIN;
     2206    34212    2        DCL ADDR_LIT$     PTR;
     2207    34213    2        DCL BASED$LIT     CHAR (LEN_LIT) BASED (ADDR_LIT$);
     2208    34214    2        DCL 1 LOP_DESC,
     2209    34215                   %TYPE_DESC;
     2210    34249    2        DCL 1 CONST_DESC,
     2211    34250                   %TYPE_DESC;
     2212    34284             %DCL_AUTO_LX_ITEM(@NAME = NUM_CONST);
     2213    34288    2        DCL Z8AH$SEARCH_ ENTRY;
     2214    34289    2        DCL I             SBIN;
     2215    34290    2        DCL ZERO_BYTE CHAR (1) CONSTANT INIT ('0');
     2216    34291
     2217    34292    2        CALL Z8AU$TYPE_DESCRIPTOR (LOP$$ -> LX_ETT_ITEM.ETT$, LOP_DESC);
     2218    34293    2        CALL Z8AU$LENGTH_ETT (ROP$$ -> LX_ETT_ITEM.ETT$, LIT_LENGTH$);
     2219    34294
     2220    34295    2        LEN_LIT = LIT_LENGTH$ -> ETT.LOP -> CONST.CONSTI.WORD1;
     2221    34296    2        LEN_STR = LOP_DESC.DESC.NDSC.N;
     2222    34297    2        IF ID = %MVDD OR /* Adjust for separate sign position */
     2223    34298    2            (ID = %MVOO AND LOP_DESC.DESC.NDSC.TN = %NDSC9 /* Not overpunched */) THEN
     2224    34299    2          IF LOP_DESC.DESC.NDSC.S = %LEADING_SIGN
     2225    34300    2              OR LOP_DESC.DESC.NDSC.S = %TRAILING_SIGN
     2226    34301    2            THEN LEN_STR = LEN_STR - 1;
     2227    34302
     2228    34303    2        IF ROP$$ -> LX_ITEM.SYMBOL = %RSV_WRD_ZEROES THEN
     2229    34304    2          ADDR_LIT$ = ADDR (ZERO_BYTE);
     2230    34305    2        ELSE
     2231    34306               %GET_CONSTANT_ADDRESS (@CONSTANT = ROP$$ -> LX_ETT_ITEM.ETT$ -> ETT.LOP,
PL6.E3A0      #001=Z8E7$STMT_ASSIGNMENT File=Z8E7.:Z8A6TSI                       SAT 08/09/97 11:35 Page:80
     2232    34307                                      @STRING   = ADDR_LIT$);
     2233    34315
     2234    34316    2        I = MOD (LEN_STR, LEN_LIT);
     2235    34317    2        IF I > 0 THEN
     2236    34318    2          CALL INSERT (CONST_BUF, 0, I, SUBSTR (BASED$LIT, LEN_LIT - I));
     2237    34319    3        DO WHILE I < LEN_STR;
     2238    34320    3          CALL INSERT (CONST_BUF, I, LEN_LIT, BASED$LIT);
     2239    34321    3          I = I + LEN_LIT;
     2240    34322    3        END;
     2241    34323    2        CONST_DESC.DESC.NDSC.N = LEN_STR + 1;
     2242    34324    2        CONST_DESC.DESC.NDSC.SF = 0;
     2243    34325    2        IF LOP_DESC.DESC.NDSC.SF < 0 THEN /* Zero out fractional digits */
     2244    34326    3          DO;
     2245    34327    3            LEN_STR = LEN_STR + LOP_DESC.DESC.NDSC.SF;
     2246    34328    3            IF LEN_STR <= 0 THEN
     2247    34329    4              DO;
     2248    34330    4                LEN_STR = 1;
     2249    34331    4                CALL INSERT (CONST_BUF, 0, 1, '0');
     2250    34332    4              END;
     2251    34333    3            CONST_DESC.DESC.NDSC.N = LEN_STR + 1;
     2252    34334    3          END;
     2253    34335    2        ELSE IF LOP_DESC.DESC.NDSC.SF > 0 THEN /* Apply positive scale factor */
     2254    34336    3           DO;
     2255    34337    3            CONST_DESC.DESC.NDSC.SF = LOP_DESC.DESC.NDSC.SF;
     2256    34338    3            CALL BINCHAR (SUBSTR (CONST_BUF, LEN_STR, LOP_DESC.DESC.NDSC.SF), 0);
     2257    34339    3            LEN_STR = LEN_STR + LOP_DESC.DESC.NDSC.SF;
     2258    34340    3          END;
     2259    34341    2        LEX_SYMBOL.SIZE = LEN_STR;
     2260    34342    2        LEX_SYMBOL.SYMBOL = CONST_BUF;
     2261    34343    2        CALL Z8AH$SEARCH_;
     2262    34344             %INIT_LX_TERMINAL (@POINTER = "ADDR(NUM_CONST)",
     2263    34345                                @TYPE    = %TYD,
     2264    34346                                @SYMBOL  = %NUMERIC_LITERAL,
     2265    34347                                @DNT$    = DNT$);
     2266    34365    2        CONST_DESC.TYPE = %TYD;
     2267    34366    2        CONST_DESC.DESC.NDSC.TN = %NDSC4;
     2268    34367    2        CONST_DESC.DESC.NDSC.S = %LEADING_SIGN;
PL6.E3A0      #001=Z8E7$STMT_ASSIGNMENT File=Z8E7.:Z8A6TSI                       SAT 08/09/97 11:35 Page:81
     2269    34368    2        CALL Z8EC$NEW_CONST_WITH_TYPE_DESC (CONST_DESC,
     2270    34369    2                                            ADDR (NUM_CONST),
     2271    34370    2                                            ROP$$ -> LX_ETT_ITEM.ETT$);
     2272    34371    2        ROP$$ -> LX_ETT_ITEM.B.ALL = FALSE;
     2273    34372             %NEW_ILL (@ID = ID,
     2274    34373                       @LOP = LOP$$ -> LX_ETT_ITEM.ETT$,
     2275    34374                       @ROP = ROP$$ -> LX_ETT_ITEM.ETT$);
     2276    34753    2   END MOVE_ALL_NUM;
     2277    34754        %EJECT;
PL6.E3A0      #001=Z8E7$STMT_ASSIGNMENT File=Z8E7.:Z8A6TSI                       SAT 08/09/97 11:35 Page:82
     2278    34755        /*-------------------*/
     2279    34756    1     FORM_SIZE_FROM_LONG: PROC (ST$$, ETT$$, RETURN$$) ;
     2280    34757        /*-------------------*/
     2281    34758
     2282    34759    2        DCL ST$$          PTR ; /* ST item associated with ETT$$ */
     2283    34760    2        DCL ETT$$         PTR ; /* BASE, OFF, or SSOP */
     2284    34761    2        DCL RETURN$$      PTR ; /* SIZ item created   */
     2285    34762    2        DCL LONG$$        PTR ;
     2286    34763    2        DCL CONST$$       PTR ;
     2287    34764
     2288    34765             /*I* This code is stolen fron Z8AF$NEW_BASE */
     2289    34766
     2290    34767             %GET_LTS (@ID      = %LONG,
     2291    34768                       @ST$     = ST$$,
     2292    34769                       @RETURN$ = LONG$$) ;
     2293    34812
     2294    34813    2        MKCN.CON = LONG$$ -> LONG.LENGTH ;
     2295    34814    2        CALL Z8AC$MAKE_CONST (CONST$$) ;
     2296    34815
     2297    34816    2        CALL Z8AF$FORME (%SIZ, ETT$$, CONST$$, RETURN$$) ;
     2298    34817
     2299    34818    2     END FORM_SIZE_FROM_LONG ;
     2300    34819        %EJECT;
PL6.E3A0      #001=Z8E7$STMT_ASSIGNMENT File=Z8E7.:Z8A6TSI                       SAT 08/09/97 11:35 Page:83
     2301    34820        /*------------------------*/
     2302    34821    1      CHECK_IF_IN_SAME_GROUP: PROC (LOP_ST$, ROP$$, IN_SAME_GROUP) ;
     2303    34822        /*------------------------*/
     2304    34823
     2305    34824    2        DCL LOP_ST$       PTR ; /* ST item of operand #1 */
     2306    34825    2        DCL ROP$$         PTR ; /* Reference triad of operand #2 */
     2307    34826    2        DCL IN_SAME_GROUP BOOLEAN ; /* The return arg */
     2308    34827    2        DCL ROP_ST$       PTR ;
     2309    34828    2        DCL LOP_QLT$      PTR ;
     2310    34829    2        DCL ROP_QLT$      PTR ;
     2311    34830
     2312    34831             /* Check if operand #2 is in the operand #1 group */
     2313    34832
     2314    34833             %FISH (TRIAD = ROP$$, RTN = ROP_ST$) ;
     2315    34841    2        LOP_QLT$ = LOP_ST$ -> SCALAR.QLT$ ;
     2316    34842    2        ROP_QLT$ = ROP_ST$ -> SCALAR.QLT$ ;
     2317    34843
     2318    34844    3        DO WHILE (ROP_QLT$ -> QLT.FATHER ~= ADDR(NIL)
     2319    34845    3              AND ROP_QLT$ ~= LOP_QLT$) ;
     2320    34846    3          ROP_QLT$ = ROP_QLT$ -> QLT.FATHER ;
     2321    34847    3        END ;
     2322    34848
     2323    34849    2        IF LOP_QLT$ = ROP_QLT$ THEN
     2324    34850    2          IN_SAME_GROUP = TRUE ;
     2325    34851    2        ELSE
     2326    34852    2          IN_SAME_GROUP = FALSE ;
     2327    34853
     2328    34854    2      END CHECK_IF_IN_SAME_GROUP ;
     2329    34855        %EJECT;
PL6.E3A0      #001=Z8E7$STMT_ASSIGNMENT File=Z8E7.:Z8A6TSI                       SAT 08/09/97 11:35 Page:84
     2330    34856    1   Z8E7$MOVE_ON_SIZE: ENTRY (LOP$, ROP$, LABEL$);
     2331    34857
     2332    34858    1        ON_SIZE = TRUE;
     2333    34859    1        MOVE_STATEMENT = FALSE;
     2334    34860    1        STATEMENT_TYPE_A = %NO_STATEMENT_TYPE;    /*V*  Not a DML SET        */
     2335    34861
     2336    34862    1        CALL ON_SIZE_PREPASS (LOP$, ROP$, LABEL$);
     2337    34863
     2338    34864             /*V* Do a regular MOVE */
     2339    34865    1        GOTO MOVE_ENTRY;
     2340    34866
     2341    34867
     2342    34868    1   Z8E7$MOVE_STATEMENT: ENTRY (LOP$, ROP$,LABEL$, STATEMENT_TYPE);
     2343    34869
     2344    34870    1        MOVE_STATEMENT = TRUE;
     2345    34871    1        STATEMENT_TYPE_A = STATEMENT_TYPE;
     2346    34872             /* ON_SIZE not initialized because it is never needed in this case */
     2347    34873
     2348    34874    1        GOTO MOVE_ENTRY;
     2349    34875
     2350    34876
     2351    34877    1   Z8E7$MOVE_ON_SIZE_SEMANTICS: ENTRY (LOP$, ROP$);
     2352    34878
     2353    34879    1        ON_SIZE = TRUE;
     2354    34880    1        MOVE_STATEMENT = FALSE;
     2355    34881    1        STATEMENT_TYPE_A = %NO_STATEMENT_TYPE;    /*V*  Not a DML SET        */
     2356    34882
     2357    34883    1        GOTO MOVE_ENTRY;
     2358    34884
     2359    34885
     2360    34886        %EJECT;
PL6.E3A0      #001=Z8E7$STMT_ASSIGNMENT File=Z8E7.:Z8A6TSI                       SAT 08/09/97 11:35 Page:85
     2361    34887    1   Z8E7$MOVE: ENTRY (LOP$, ROP$);
     2362    34888
     2363    34889    1        ON_SIZE = FALSE;
     2364    34890    1        MOVE_STATEMENT = FALSE;
     2365    34891    1        STATEMENT_TYPE_A = %NO_STATEMENT_TYPE;    /*V*  Not a DML SET        */
     2366    34892
     2367    34893
     2368    34894    1   MOVE_ENTRY:
     2369    34895
     2370    34896
     2371    34897    1        IF LOP$ -> LX_ITEM.ID = %LX_ETT_ITEM
     2372    34898    1        AND ROP$ -> LX_ITEM.ID = %LX_ETT_ITEM THEN
     2373    34899    1          IF LOP$ -> LX_ETT_ITEM.ETT$ = ROP$ -> LX_ETT_ITEM.ETT$ THEN
     2374    34900    2            DO;
     2375    34901                   /*V* Normally if the lop and rop are equal then no move
     2376    34902                      needs to take place.  There is 1 case though where
     2377    34903                      in a move to itself the value can change.  The case
     2378    34904                      is when the item is alphanumeric edited (the 'B'
     2379    34905                      picture character is the culprit).  If this is the case
     2380    34906                      we have to trudge through move.
     2381    34907                   */
     2382    34908                   %FISH (TRIAD = LOP$ -> LX_ETT_ITEM.ETT$,
     2383    34909                          RTN   = LOP_ST$);
     2384    34917
     2385    34918    2              IF LOP_ST$ -> SCALAR.B.CLASS ~= %CLASS_ALPHANUMERIC_EDITED THEN
     2386    34919    2                RETURN;
     2387    34920    2            END;
     2388    34921
     2389    34922    1        LOP$$ = ADDR(TEMP_LOP_ITEM);
     2390    34923    1        ROP$$ = ADDR(TEMP_ROP_ITEM);
     2391    34924
     2392    34925    1        LOP$$ -> LX_ITEM = LOP$ -> LX_ITEM;
     2393    34926    1        ROP$$ -> LX_ITEM = ROP$ -> LX_ITEM;
     2394    34927
     2395    34928    1        IF ROP$$ -> LX_ITEM.ID = %LX_ETT_ITEM THEN
     2396    34929    2          DO;
     2397    34930    2            IF ROP$$ -> LX_ITEM.TYPE = %TYC THEN
PL6.E3A0      #001=Z8E7$STMT_ASSIGNMENT File=Z8E7.:Z8A6TSI                       SAT 08/09/97 11:35 Page:86
     2398    34931    3              DO;
     2399    34932                     %FISH (TRIAD = ROP$$ -> LX_ETT_ITEM.ETT$,
     2400    34933                            RTN   = ROP_ST$);
     2401    34941
     2402    34942    3                CALL Z8CO$CREATE_LIBRARY_BASE (%OP_GBCD_TO_ASCII, TABLE_ETT$);
     2403    34943    3                CALL Z8AF$FORME (%CVT, ROP$$ -> LX_ETT_ITEM.ETT$, TABLE_ETT$, ROP$$ ->
             34943                         LX_ETT_ITEM.ETT$);
     2404    34944    3                IF ROP_ST$ -> VARIABLE.NDSC.TN = %NDSC4
     2405    34945    3                  THEN ROP$$ -> LX_ITEM.TYPE = %TYO;
     2406    34946    3                  ELSE ROP$$ -> LX_ITEM.TYPE = %TYD;
     2407    34947    3              END;
     2408    34948    2          END;
     2409    34949
     2410    34950    1        CALL Z8E7$MOVE_SEMANTIC_CHECKS (LOP$$, ROP$$, STATEMENT_TYPE_A)
     2411    34951    1          WHENALTRETURN
     2412    34952    2            DO;
     2413    34953    2              RETURN;
     2414    34954    2            END;
     2415    34955
     2416    34956    1        CALL PRELIMINARY_SETUP (LOP$$, ROP$$)
     2417    34957    1          WHENALTRETURN
     2418    34958    2            DO;
     2419    34959    2              RETURN;
     2420    34960    2            END;
     2421    34961
     2422    34962    1        GOTO COERCE_TYPES;
     2423    34963
     2424    34964        %EJECT;
PL6.E3A0      #001=Z8E7$STMT_ASSIGNMENT File=Z8E7.:Z8A6TSI                       SAT 08/09/97 11:35 Page:87
     2425    34965    1   Z8E7$RESTRICTED_MOVE: ENTRY (LOP$, ROP$);
     2426    34966
     2427    34967    1        ON_SIZE = FALSE;
     2428    34968    1        MOVE_STATEMENT = FALSE;
     2429    34969
     2430    34970
     2431    34971
     2432    34972    1        IF LOP$ -> LX_ITEM.ID = %LX_ETT_ITEM
     2433    34973    1        AND ROP$ -> LX_ITEM.ID = %LX_ETT_ITEM THEN
     2434    34974    1          IF LOP$ -> LX_ETT_ITEM.ETT$ = ROP$ -> LX_ETT_ITEM.ETT$ THEN
     2435    34975    1            RETURN;
     2436    34976
     2437    34977    1        LOP$$ = ADDR(TEMP_LOP_ITEM);
     2438    34978    1        ROP$$ = ADDR(TEMP_ROP_ITEM);
     2439    34979
     2440    34980    1        LOP$$ -> LX_ITEM = LOP$ -> LX_ITEM;
     2441    34981    1        ROP$$ -> LX_ITEM = ROP$ -> LX_ITEM;
     2442    34982
     2443    34983    1        CALL MOVE_NO_SEMANTIC_CHECKS (LOP$$, ROP$$)
     2444    34984    1          WHENALTRETURN
     2445    34985    2            DO;
     2446    34986    2              RETURN;
     2447    34987    2            END;
     2448    34988
     2449    34989
     2450    34990    1   COERCE_TYPES:
     2451    34991    1        IF LOP$$ -> LX_ITEM.TYPE = %TYC THEN
     2452    34992    2          DO;
     2453    34993                 %FISH (TRIAD = LOP$$ -> LX_ETT_ITEM.ETT$,
     2454    34994                        RTN   = LOP_ST$);
     2455    35002    2            GBCD_NUMERIC_LOP = TRUE;
     2456    35003    2            GBCD_LOP$ = LOP$$ -> LX_ETT_ITEM.ETT$;
     2457    35004    2            CALL Z8AT$CREATE_TEMPORARY (%SCALAR, ST$$);
     2458    35005    2            CALL Z8AF$NEW_BASE (ST$$, ADDR(NIL), LOP$$ -> LX_ETT_ITEM.ETT$);
     2459    35006    2            IF LOP_ST$ -> VARIABLE.NDSC.TN = %NDSC4 /* GBCD overpunched */
     2460    35007    2              THEN LOP$$ -> LX_ITEM.TYPE = %TYO;
     2461    35008    2              ELSE LOP$$ -> LX_ITEM.TYPE = %TYD;
PL6.E3A0      #001=Z8E7$STMT_ASSIGNMENT File=Z8E7.:Z8A6TSI                       SAT 08/09/97 11:35 Page:88
     2462    35009    2            ST$$ -> VARIABLE.TYPE = LOP$$ -> LX_ITEM.TYPE;
     2463    35010    2            ST$$ -> VARIABLE.NDSC.N = LOP_ST$ -> VARIABLE.NDSC.N;
     2464    35011    2            ST$$ -> VARIABLE.NDSC.SF = LOP_ST$ -> VARIABLE.NDSC.SF;
     2465    35012    2            ST$$ -> VARIABLE.NDSC.S = LOP_ST$ -> VARIABLE.NDSC.S;
     2466    35013    2          END;
     2467    35014    1        ELSE
     2468    35015    1          GBCD_NUMERIC_LOP = FALSE;
     2469    35016
     2470    35017             %IF %E$POSSIBLE_TRUNCATION > 100;
     2473    35020             %ENDIF;
     2474    35021
     2475    35022    1        IF COMCOM.OB.INFO
     2476    35023    1        AND MOVE_STATEMENT THEN
     2477    35024    1          CALL BINARY_SIGN_AND_TRUNC (LOP$, ROP$)
     2478    35025    2              WHENALTRETURN DO ;
     2479    35026    2                RETURN; /*V* Error message already issued */
     2480    35027    2              END;
     2481    35028
     2482    35029    1        CALL Z8EV$COMPATIBLE_TYPES_ROUND (LOP$$, ROP$$, MOVE_MATRIX, ON_SIZE,
             35029                 MOVE_STATEMENT)
     2483    35030    1          WHENALTRETURN
     2484    35031    2            DO;
     2485    35032    2              CALL Z8AE$ERROR(%E$INVALID_MOVE_OPERANDS,
     2486    35033    2                              LOP$$ -> LX_ETT_ITEM.LINE,
     2487    35034    2                              0);
     2488    35035                   /*V* Z8EV$COMPATIBLE_TYPES_ROUND has no way of knowing which
     2489    35036                      of the 2 operands is invalid, so issue the error message
     2490    35037                      without pinpointing the field.
     2491    35038                   */
     2492    35039    2              RETURN;
     2493    35040    2            END;
     2494    35041
     2495    35042    1        ETT_ITEM_COUNT = 0;
     2496    35043    1        ETT$$ = LOP$$ -> LX_ETT_ITEM.ETT$;
     2497    35044        /*   MOVE <anything> TO <GBCD-identifier> (<reference-modification>)
     2498    35045             or TO <EBCDIC-identifier> (<reference-modification>) causes problems.
     2499    35046             Z8EY converts to %TYA and then extracts the substring. It must do so
PL6.E3A0      #001=Z8E7$STMT_ASSIGNMENT File=Z8E7.:Z8A6TSI                       SAT 08/09/97 11:35 Page:89
     2500    35047             as, if it extracted the substring first, it would cause a regression.
     2501    35048             MOVE <GBCD-identifier> (<reference-modification>) TO <numeric-identifier>
     2502    35049             would not work. If it first extracted the substring, then the substring
     2503    35050             would be left-justified into an alphanumeric temp. That temp would then
     2504    35051             be moved to the receiving operand, and the numeric move instructions all
     2505    35052             assume the operand to be right-justified. Z8EY cannot know if it is
     2506    35053             working on a sending operand or a receiving operand. Therefore, in this
     2507    35054             case, Z8E7 needs to walk the chain of ETT items, via LOPs, and see if
     2508    35055             there is a CVT anywhere in the chain before the ST item. If one is found,
     2509    35056             Z8E7 must replicate the whole chain of ETT items between the ILL item and
     2510    35057             the CVT, omitting the CVT itself. The CVT must be moved, with the
     2511    35058             opposite conversion, to the ROP side. */
     2512    35059    1   FIND_CVT:
     2513    35060    2        DO WHILE ETT$$ -> ETT.ID < %FIRST_ST;
     2514    35061    2          IF ETT$$ -> ETT.ID = %CVT THEN
     2515    35062    3            DO; /* Need to move CVT to sending side */
     2516    35063    3              DNT$$ = ETT$$ -> ETT.ROP ->
     2517    35064                       %IF CP6;
     2518    35065    3                  ETT.LOP ->
     2519    35066                       %ENDIF;
     2520    35067    3                  ST.DNT$;
     2521    35068                   %IF CP6;
     2522    35069    3              CALL CHARBIN (LIB_OFFSET, SUBSTR (DNT$$ -> DNT.TEXT.NAME, 6, 4));
     2523    35070                   %ENDIF;
     2524    35071    3              IF /* Statement set up this way thanks to FORMAT.X */
     2525    35072                       %IF CP6;
     2526    35073    3                  LIB_OFFSET = %OP_EBCDIC_TO_ASCII
     2527    35074                       %ELSE;
     2529    35076                       %ENDIF;
     2530    35077    3                  THEN
     2531    35078    3                LIB_OFFSET = %OP_ASCII_TO_EBCDIC;
     2532    35079    3              ELSE
     2533    35080    3                LIB_OFFSET = %OP_ASCII_TO_GBCD;
     2534    35081    3              CALL Z8CO$CREATE_LIBRARY_BASE (LIB_OFFSET, TABLE_ETT$);
     2535    35082    3              CALL Z8AF$FORME (%CVT,
     2536    35083    3                               ROP$$ -> LX_ETT_ITEM.ETT$,
     2537    35084    3                               TABLE_ETT$,
PL6.E3A0      #001=Z8E7$STMT_ASSIGNMENT File=Z8E7.:Z8A6TSI                       SAT 08/09/97 11:35 Page:90
     2538    35085    3                               ROP$$ -> LX_ETT_ITEM.ETT$);
     2539    35086    3              ETT$$ = ETT$$ -> ETT.LOP;
     2540    35087    4              DO WHILE ETT_ITEM_COUNT > 0;
     2541    35088    4                TEMP$ = LOP$$ -> LX_ETT_ITEM.ETT$;
     2542    35089    5                DO J = 2 TO ETT_ITEM_COUNT;
     2543    35090    5                  TEMP$ = TEMP$ -> ETT.LOP;
     2544    35091    5                END;
     2545    35092    4                TEMP_ROP$ = TEMP$ -> ETT.ROP;
     2546    35093    4                ID1 = TEMP$ -> ETT.ID;
     2547    35094    4                IF ID1 = %OFF AND LIB_OFFSET = %OP_ASCII_TO_GBCD THEN
     2548    35095    4                  TEMP_ROPCON.TYPE = %ALPHA6;
     2549    35096    4                CALL Z8AF$FORME (ID1, ETT$$, TEMP_ROP$, ETT$$);
     2550    35097    4                ETT_ITEM_COUNT = ETT_ITEM_COUNT - 1;
     2551    35098    4              END; /* WHILE */
     2552    35099    3              LOP$$ -> LX_ETT_ITEM.ETT$ = ETT$$;
     2553    35100    3              EXIT FIND_CVT;
     2554    35101    3            END;
     2555    35102    2          ETT$$ = ETT$$ -> ETT.LOP;
     2556    35103    2          ETT_ITEM_COUNT = ETT_ITEM_COUNT + 1;
     2557    35104    2        END; /* FIND_CVT */
     2558    35105
     2559    35106             /*V* The sign and truncation checks are only called
     2560    35107                if the "INFO" option is true.  This could lead
     2561    35108                to potentially dangerous code, if the severity
     2562    35109                of the info messages ever changed.  To warn the
     2563    35110                future maintenance persons of this a compile
     2564    35111                time error will be issued if the severity ever
     2565    35112                is upped to a warn or more.
     2566    35113             */
     2567    35114             %IF %E$POSSIBLE_TRUNCATION > 100;
     2570    35117             %ENDIF;
     2571    35118
     2572    35119    1        IF  COMCOM.OB.INFO
     2573    35120    1        AND NOT ROP$$ -> LX_ETT_ITEM.B.ALL
     2574    35121    1        AND MOVE_STATEMENT THEN
     2575    35122    1          CALL SIGN_AND_TRUNCATION_CHECKS (LOP$$, ROP$$);
     2576    35123    1        CALL MOVE_ID            (LOP$$, ROP$$, ID);
PL6.E3A0      #001=Z8E7$STMT_ASSIGNMENT File=Z8E7.:Z8A6TSI                       SAT 08/09/97 11:35 Page:91
     2577    35124                                                                    /*#28637*/
     2578    35125             /* If an occurs depending group item is the receiving
     2579    35126                item, adjust the receiving length to the maximum  */
     2580    35127
     2581    35128    2        IF ID = %MVAN  AND  NOT COMCOM.OB.COBOL_74 THEN DO ;
     2582    35129
     2583    35130               %FISH (TRIAD = LOP$$ -> LX_ETT_ITEM.ETT$,
     2584    35131                      RTN   = LOP_ST$) ;
     2585    35139
     2586    35140    2          IF LOP_ST$ -> VARIABLE.B.OCCURS_DEPENDING
     2587    35141    3          AND LOP$$ -> LX_ETT_ITEM.ETT$ -> ETT.ID = %SIZ THEN DO ;
     2588    35142
     2589    35143    3            CALL CHECK_IF_IN_SAME_GROUP (LOP_ST$,
     2590    35144    3                                         LOP$$ -> LX_ETT_ITEM.ETT$ -> ETT.ROP,
     2591    35145    3                                         IN_SAME_GROUP) ;
     2592    35146
     2593    35147    4            IF IN_SAME_GROUP THEN DO ;
     2594    35148
     2595    35149                   %GET_LTS (@ID      = %DEPENDING_SIZE,
     2596    35150                             @ST$     = LOP_ST$,
     2597    35151                             @RETURN$ = LTS$$) ;
     2598    35194    4              ETT$$ = LTS$$ -> DEPENDING_SIZE.SIZE$ ;
     2599    35195
     2600    35196    5              IF LOP$$ -> LX_ETT_ITEM.ETT$ -> ETT.ROP = ETT$$ THEN DO ;
     2601    35197    5                LOP$$ -> LX_ETT_ITEM.ETT$ =
     2602    35198    5                  LOP$$ -> LX_ETT_ITEM.ETT$ -> ETT.LOP ;
     2603    35199
     2604    35200    5                IF LOP_ST$ -> VARIABLE.B.LENGTH_4096 THEN
     2605    35201    5                  CALL FORM_SIZE_FROM_LONG (LOP_ST$,
     2606    35202    5                                            LOP$$ -> LX_ETT_ITEM.ETT$,
     2607    35203    5                                            LOP$$ -> LX_ETT_ITEM.ETT$) ;
     2608    35204
     2609    35205    5              END ; /* The SIZ ROP is the occurs depending size */
     2610    35206    4            END ; /* It's in the same group */
     2611    35207    3          END ; /* It's the occurs depending size */
     2612    35208
     2613    35209    2        END ; /* Alphanumeric move & not Cobol74 option */
PL6.E3A0      #001=Z8E7$STMT_ASSIGNMENT File=Z8E7.:Z8A6TSI                       SAT 08/09/97 11:35 Page:92
     2614    35210
     2615    35211    1        CALL MOVE_OPTIMIZATIONS (LOP$$, ROP$$, ID);
     2616    35212
     2617    35213    1        IF GBCD_NUMERIC_LOP THEN
     2618    35214    2          DO;
     2619    35215    2            CALL Z8CO$CREATE_LIBRARY_BASE (%OP_ASCII_TO_GBCD, TABLE_ETT$);
     2620    35216                 %NEW_ILL (@ID    = %MVT,
     2621    35217                           @FROM  = LOP$$ -> LX_ETT_ITEM.ETT$,
     2622    35218                           @TABLE = TABLE_ETT$,
     2623    35219                           @TO    = GBCD_LOP$);
     2624    35598    2          END;
     2625    35599
     2626    35600    1        RETURN;
     2627    35601
     2628    35602    1    Z8E7$POINTER_MOVE: ENTRY (LOP$, ROP$);
     2629    35603
     2630    35604    1          IF ROP$ = ADDR(NIL) THEN
     2631    35605    2            DO;
     2632    35606                   %NEW_ILL (@ID   = %MVPP,
     2633    35607                             @LOP  = LOP$ -> LX_ETT_ITEM.ETT$,
     2634    35608                             @ROP  = COMCOM.NULL_PTR$);
     2635    35987    2            END;
     2636    35988    1          ELSE
     2637    35989    2            DO;
     2638    35990                   %NEW_ILL (@ID   = %MVPP,
     2639    35991                             @LOP  = LOP$ -> LX_ETT_ITEM.ETT$,
     2640    35992                             @ROP  = ROP$ -> LX_ETT_ITEM.ETT$);
     2641    36371    2            END;
     2642    36372
     2643    36373    1          IF LOP$ -> LX_ETT_ITEM.ETT$ -> ETT.LOP -> SCALAR.B.COMPILER_CREATED THEN
     2644    36374    2            DO;
     2645    36375    2              ADDR(O1COM.ILS_LIST) -> ILS_LIST.TAIL$ -> ILS.ID = %OPA;
     2646    36376    2              ADDR(O1COM.ILS_LIST) -> ILS_LIST.TAIL$ -> ILS.DEF = ADDR(NIL);
     2647    36377    2              ADDR(O1COM.ILS_LIST) -> ILS_LIST.TAIL$ -> ILS.B.CDEF = '1'B;
     2648    36378    2            END;
     2649    36379    1       RETURN;
     2650    36380
PL6.E3A0      #001=Z8E7$STMT_ASSIGNMENT File=Z8E7.:Z8A6TSI                       SAT 08/09/97 11:35 Page:93
     2651    36381             /*V*
     2652    36382                               END OF MAIN BODY
     2653    36383             */
     2654    36384
     2655    36385    1   END Z8E7$STMT_ASSIGNMENT;
     2656    36386        %EOD;

PL6.E3A0      #001=Z8E7$STMT_ASSIGNMENT File=Z8E7.:Z8A6TSI                       SAT 08/09/97 11:35 Page:94
--  Include file information  --

   Z8A_QLT.:Z8A6TOU  cannot be made into a system file and is referenced.
   Z8E_DML.:Z8A6TOU  is referenced.
   Z8A_MKCN.:Z8A6TOU  cannot be made into a system file and is referenced.
   Z8A_COMCOM.:Z8A6TOU  cannot be made into a system file and is referenced.
   Z8A_ERR_NUMS.:Z8A6TOU  is referenced.
   Z8A_LTS.:Z8A6TOU  cannot be made into a system file and is referenced.
   Z8A_ST.:Z8A6TOU  cannot be made into a system file and is referenced.
   Z8A_DNT.:Z8A6TOU  cannot be made into a system file and is referenced.
   Z8A_ETT.:Z8A6TOU  cannot be made into a system file and is referenced.
   Z8A_DESC.:Z8A6TOU  cannot be made into a system file and is referenced.
   Z8A_TYPES.:Z8A6TOU  is referenced.
   Z8A_ILS.:Z8A6TOU  cannot be made into a system file and is referenced.
   Z8A_LIBRARY.:Z8A6TOU  cannot be made into a system file and is referenced.
   Z8A_ILL.:Z8A6TOU  cannot be made into a system file and is referenced.
   Z8E_STATEMNT.:Z8A6TOU  is referenced.
   Z8E_ABSSYN.:Z8A6TOU  cannot be made into a system file and is referenced.
   Z8E_ILS_LIST.:Z8A6TOU  is referenced.
   Z8E_O1COM.:Z8A6TOU  cannot be made into a system file and is referenced.
   Z8E_WINDOW.:Z8A6TOU  is referenced.
   Z8E_NEW_ILL.:Z8A6TOU  is referenced.
   Z8E_MACROS.:Z8A6TOU  cannot be made into a system file and is referenced.
   Z8A_LEX_SYMB.:Z8A6TOU  cannot be made into a system file and is referenced.
   Z8E_STACKS.:Z8A6TOU  cannot be made into a system file and is referenced.
   Z9A_FLAGS.:Z8A6TOU  is referenced.
   X8A_COM_MACS.:X8A6TOU  is referenced.
   Z8A_NAMES.:Z8A6TOU  is referenced.
   Z8A_SUPP_MAC.:Z8A6TOU  is referenced.
   Z8A_DEFC.:Z8A6TOU  cannot be made into a system file and is referenced.
      No diagnostics issued in procedure Z8E7$STMT_ASSIGNMENT.

   Procedure Z8E7$STMT_ASSIGNMENT requires 5968 words for executable code.
   Procedure Z8E7$STMT_ASSIGNMENT requires 288 words of local(AUTO) storage.

PL6.E3A0      #001=Z8E7$STMT_ASSIGNMENT File=Z8E7.:Z8A6TSI                       SAT 08/09/97 11:35 Page:95

 Object Unit name= Z8E7$STMT_ASSIGNMENT                       File name= Z8E7.:Z8A6TOU
 UTS= AUG 09 '97 11:35:28.88 SAT                              Compiler= PL-6/E31         Sev=      00
 SharedLib= :SHARED_SYSTEM                                    Alt SharedLib=


    ****  Control sections  ****

 Sect   Type Bound  Init  Size OctSiz  Section name(segment info)
    0  LblCom even  none     1      1  ITERATION
    1  LblCom even  none    90    132  LEX_SYMBOL
    2  LblCom even  none     1      1  CURRENT_LEX_SYMBOL$
    3  LblCom even  none    90    132  TEMP_LEX_SYMBOL
    4  LblCom even  none    90    132  TEMP_LEX_SYMBOL2
    5  LblCom even  none     8     10  TEMP_LX_NODE
    6  LblCom even  none     1      1  ILL$
    7  LblCom even  none     5      5  ILL_
    8  LblCom even  none     1      1  ILS$
    9  LblCom even  none     5      5  ILS_
   10  LblCom even  none     1      1  ETT$
   11  LblCom even  none     1      1  HEAD_ETT$
   12  LblCom even  none   512   1000  ETT_BUCKETS
   13  LblCom even  none     5      5  ETT_
   14  LblCom even  none     1      1  DNT$
   15  LblCom even  none     5      5  DNT_
   16  LblCom even  none     1      1  DNT_BUCKET_NUMBER
   17  LblCom even  none     1      1  DNT_OF_1$
   18  LblCom even  none     1      1  ST$
   19  LblCom even  none     5      5  ST_
   20  LblCom even  none     1      1  LTS$
   21  LblCom even  none     5      5  LTS_
   22  LblCom even  none     2      2  MKCN
   23  LblCom even  none     1      1  QLT$
   24  LblCom even  none     1      1  PREV_01_QLT$
   25  LblCom even  none     5      5  QLT_
   26  RoData even  UTS    106    152  Z8E7$STMT_ASSIGNMENT
   27   Proc  even  none  5968  13520  Z8E7$STMT_ASSIGNMENT
   28  RoData even  none   106    152  Z8E7$STMT_ASSIGNMENT
PL6.E3A0      #001=Z8E7$STMT_ASSIGNMENT File=Z8E7.:Z8A6TSI                       SAT 08/09/97 11:35 Page:96

    ****  Entry defs  ****

                              Check   Calling
                             calling  sequence
  Sect OctLoc Primary Altret sequence   type   Parms  Name
    27      0   yes            yes      Std        4  Z8E7$STMT_ASSIGNMENT
    27  12344                  yes      Std        3  Z8E7$MOVE_ON_SIZE
    27  12361                  yes      Std        4  Z8E7$MOVE_STATEMENT
    27  12371                  yes      Std        2  Z8E7$MOVE_ON_SIZE_SEMANTICS
    27  12400                  yes      Std        2  Z8E7$MOVE
    27  12571                  yes      Std        2  Z8E7$RESTRICTED_MOVE
    27  13411                  yes      Std        2  Z8E7$POINTER_MOVE

  ****  Entry refs  ****

         Check        Calling
        calling       sequence
Altret sequence SRef   type   Args  Name
         yes           Std       2 Z8CO$CREATE_LIBRARY_BASE
         yes           Std      12 Z8AE$ERROR
         yes           Std       4 Z8AF$FORME
 yes     yes           Std       3 Z8E7$MOVE_SEMANTIC_CHECKS
         yes           Std       2 Z8AT$CREATE_TEMPORARY
         yes           Std       3 Z8AF$NEW_BASE
 yes     yes           Std       5 Z8EV$COMPATIBLE_TYPES_ROUND
         yes           Std       5 Z8AN$NEW_ILL1
         yes           Std       2 Z8AU$TYPE_DESCRIPTOR
         yes           Std       4 Z8AN$NEW_ILL
         yes           Std       2 Z8EU$NEW_TEMP_FROM_ETT
         yes           Std       2 Z8EU$NEW_TEMP_FROM_DESC
         yes           Std       5 Z8AF$FORME_ON_SIZE
         yes           Std       4 Z8EV$CONVERT_ON_SIZE
         yes           Std       3 Z8EV$CONVERT
         yes           Std       2 Z8AU$LENGTH_ETT
         yes           Std       2 Z8EV$WORD_TO_BYTE_UNITS
 yes     yes           Std       3 Z8EC$NEW_CONST_WITH_TYPE_DESC
 yes     yes           Std       3 Z8E7$EDITED
PL6.E3A0      #001=Z8E7$STMT_ASSIGNMENT File=Z8E7.:Z8A6TSI                       SAT 08/09/97 11:35 Page:97
         yes           Std       3 Z8E7$ROUNDING
         yes           Std       1 Z8AR$RESERVER
         yes           Std       4 Z8AC$MAKE_TYA_CONST
         yes           Std       3 Z8EY$BUILD_RUNTIME_ARGLIST
         yes           Std       3 Z9EY$BUILD_RUNTIME_DESCRIPTOR
         yes           Std       2 Z8AC$LX_ETT_ITEM_TYI_CONST
         yes           Std       4 Z8EK$RANGE
         yes           Std       2 Z8EK$BRANCH_FALSE
         yes           Std       1 Z8ED$DISPOSE_ABSSYN_TREE
         yes           Std       4 Z8EY$SUBSTR
         yes           Std       4 Z8EQ$MERGE_ITERATED_DO_WHILE
         yes           Std       1 Z8EU$DISPOSE_TEMP
         yes           Std       0 Z8AH$SEARCH_
         yes           Std       1 Z8AC$MAKE_CONST
                       nStd      0 X66_AUTO_4
                       nStd      0 X66_ARET

  ****  Data refs  ****

  Flags:  r = read only, s = secondary
Flgs Name                             Flgs Name                             Flgs Name
     O1COM                                 HIER_STK_PTR                          HIER_STK
     PAGE_FORMAT                           REP_STK_PTR                           REP_STK
r    ILL_STEP                         r    ILS_STEP_TABLE                   r    LTS_STEP
     COMCOM

  ****  Segment refs  ****

  Flags:  r = read only, s = secondary
Flgs Name                             Flgs Name                             Flgs Name
     ISSID                                 NULLSID
PL6.E3A0      #001=Z8E7$STMT_ASSIGNMENT File=Z8E7.:Z8A6TSI                       SAT 08/09/97 11:35 Page:98


        1        1        /*T***********************************************************/
        2        2        /*T*                                                         */
        3        3        /*T* Copyright (c) Bull HN Information Systems Inc., 1997    */
        4        4        /*T*                                                         */
        5        5        /*T***********************************************************/
        6        6        /*===============*/
        7        7          Z8E7$STMT_ASSIGNMENT: PROC (LOP$, ROP$, LABEL$, STATEMENT_TYPE);

      7 27 000000   000000 700200 xent  Z8E7$STMT_A* TSX0  ! X66_AUTO_4
        27 000001   000440 000004                    ZERO    288,4
        27 000002   012343 710000 27                 TRA     s:34854+2

        8        8        /*===============*/
        9        9
       10       10    1        DCL LOP$ PTR;
       11       11    1        DCL ROP$ PTR;
       12       12    1        DCL LABEL$ PTR;
       13       13
       14       14    1        DCL ROP$$  PTR;
       15       15    1        DCL LOP$$  PTR;
       16       16
       17       17    1        DCL TEMP$  PTR;
       18       18    1        DCL ETT$$  PTR;
       19       19    1        DCL LTS$$  PTR ;                                       /*#28637*/
       20       20
       21       21    1        DCL ID      SBIN WORD;
       22       22    1        DCL FROM$$  PTR;
       23       23    1        DCL LOP_LENGTH$   PTR;
       24       24
       25       25             %EQU PHASE = 01;
       26       26             %EQU MAX_BUF_LEN = 512;
       27       27
       28       28             %INCLUDE Z8A_DEFC;
       29       96             %INCLUDE Z8A_SUPP_MAC;
       30     2496             %INCLUDE Z9A_FLAGS;
       31     2510             %INCLUDE Z8E_STACKS;
PL6.E3A0      #001=Z8E7$STMT_ASSIGNMENT File=Z8E7.:Z8A6TSI                       SAT 08/09/97 11:35 Page:99
       32     4776             %INCLUDE Z8E_MACROS;
       33     5451             %INCLUDE Z8E_WINDOW;
       34     7521             %INCLUDE Z8E_O1COM;
       35     8282             %INCLUDE Z8E_ILS_LIST;
       36     8366             %INCLUDE Z8E_ABSSYN;
       37     8572             %INCLUDE Z8E_STATEMNT;
       38     8641             %INCLUDE Z8A_ILL;
       39     9334             %INCLUDE Z8A_LIBRARY;
       40     9548             %INCLUDE Z8A_ILS;
       41     9657             %INCLUDE Z8A_TYPES;
       42     9831             %INCLUDE Z8A_DESC;
       43     9877             %INCLUDE Z8A_ETT;
       44    10178             %INCLUDE Z8A_DNT;
       45    10399             %INCLUDE Z8A_ST;
       46    14058             %INCLUDE Z8A_LTS;
       47    16135             %INCLUDE Z8A_ERR_NUMS;
       48    16899             %INCLUDE Z8A_COMCOM;
       49    17549             %INCLUDE Z8A_MKCN;
       50    17566             %INCLUDE Z8E_DML;
       51    17686             %INCLUDE Z8A_QLT;
       52    17792
       53    17793
       54    17794    1        DCL 1 TYPE_DESC ALIGNED,
       55    17795                   %TYPE_DESC;
       56    17829
       57    17830    1        DCL 1 LOP_DESC ALIGNED,
       58    17831                   %TYPE_DESC;
       59    17865
       60    17866    1        DCL 1 ROP_DESC ALIGNED,
       61    17867                   %TYPE_DESC;
       62    17901
       63    17902    1        DCL LOP_LENGTH     SBIN WORD;
       64    17903    1        DCL LOP_SCALE      SBIN WORD;
       65    17904
       66    17905    1        DCL ROP_LENGTH     SBIN WORD;
       67    17906    1        DCL ROP_SCALE      SBIN WORD;
       68    17907    1        DCL LIB_OFFSET     UBIN;
PL6.E3A0      #001=Z8E7$STMT_ASSIGNMENT File=Z8E7.:Z8A6TSI                       SAT 08/09/97 11:35 Page:100
       69    17908    1        DCL ETT_ITEM_COUNT SBIN;
       70    17909    1        DCL J              SBIN;
       71    17910    1        DCL ID1            UBIN;
       72    17911
       73    17912    1        DCL STATEMENT_TYPE SBIN;
       74    17913    1        DCL STATEMENT_TYPE_A  SBIN;
       75    17914
       76    17915    1        DCL TREE$          PTR;
       77    17916    1        DCL ST$$           PTR;
       78    17917
       79    17918    1        DCL LOP_ST$           PTR;
       80    17919    1        DCL ON_SIZE           BIT (1) ALIGNED;
       81    17920    1        DCL MOVE_STATEMENT    BIT (1) ALIGNED;
       82    17921    1        DCL ROP_ST$        PTR;
       83    17922    1        DCL GBCD_LOP$      PTR;
       84    17923    1        DCL GBCD_NUMERIC_LOP BOOLEAN;
       85    17924
       86    17925    1        DCL NEL$$          PTR;
       87    17926
       88    17927    1        DCL DNT$$          PTR;
       89    17928    1        DCL TEMP_ROP$      PTR;
       90    17929    1        DCL 1 TEMP_ROPCON  REDEF TEMP_ROP$,
       91    17930    1              2 VALUE      SBIN HALF HALIGNED,
       92    17931    1              2 TYPE       UBIN HALF HALIGNED;
       93    17932    1        DCL LOWER$         PTR;
       94    17933    1        DCL UPPER$         PTR;
       95    17934    1        DCL TABLE_ETT$     PTR;
       96    17935
       97    17936    1        DCL IN_SAME_GROUP  BOOLEAN ;
       98    17937
       99    17938    1        DCL Z8AF$FORME             ENTRY(4);
      100    17939    1        DCL Z8AF$FORME_ON_SIZE     ENTRY (5);
      101    17940    1        DCL Z8AF$NEW_BASE          ENTRY(3);
      102    17941    1        DCL Z8CO$CREATE_LIBRARY_BASE ENTRY(2);
      103    17942    1        DCL Z8AT$CREATE_TEMPORARY ENTRY (2);
      104    17943    1        DCL Z8EV$COMPATIBLE_TYPES_ROUND      ENTRY (5) ALTRET;
      105    17944    1        DCL Z8EC$NEW_CONST_WITH_TYPE_DESC ENTRY (3) ALTRET;
PL6.E3A0      #001=Z8E7$STMT_ASSIGNMENT File=Z8E7.:Z8A6TSI                       SAT 08/09/97 11:35 Page:101
      106    17945    1        DCL Z8AE$ERROR            ENTRY(12);
      107    17946    1        DCL Z8EU$NEW_TEMP_FROM_ETT ENTRY(2);
      108    17947    1        DCL Z8AU$LENGTH_ETT        ENTRY(2);
      109    17948    1        DCL Z8E7$ROUNDING          ENTRY(3);
      110    17949    1        DCL Z8E7$EDITED            ENTRY(3) ALTRET;
      111    17950    1        DCL Z8E7$MOVE_SEMANTIC_CHECKS ENTRY (3) ALTRET;
      112    17951    1        DCL Z8EV$CONVERT           ENTRY(3);
      113    17952    1        DCL Z8EV$CONVERT_ON_SIZE   ENTRY(4);
      114    17953    1        DCL Z8EV$WORD_TO_BYTE_UNITS ENTRY(2);
      115    17954    1        DCL Z8AU$TYPE_DESCRIPTOR   ENTRY(2);
      116    17955    1        DCL Z8AC$MAKE_CONST        ENTRY(1);
      117    17956    1        DCL Z8AC$MAKE_TYA_CONST    ENTRY (4);
      118    17957    1        DCL Z9EY$BUILD_RUNTIME_DESCRIPTOR  ENTRY(3);
      119    17958    1        DCL Z8EY$BUILD_RUNTIME_ARGLIST     ENTRY(3);
      120    17959    1        DCL Z8EK$RANGE             ENTRY(4);
      121    17960    1        DCL Z8EK$BRANCH_FALSE       ENTRY(2);
      122    17961    1        DCL Z8EU$NEW_TEMP_FROM_DESC ENTRY(2);
      123    17962    1        DCL Z8AC$LX_ETT_ITEM_TYI_CONST ENTRY(2);
      124    17963    1        DCL Z8ED$DISPOSE_ABSSYN_TREE ENTRY(1);
      125    17964
      126    17965             %DCL_AUTO_LX_ITEM( @NAME = TEMP_LOP_ITEM );
      127    17969             %DCL_AUTO_LX_ITEM( @NAME = TEMP_ROP_ITEM );
      128    17973             %DCL_AUTO_LX_ITEM( @NAME = TEMP_LX_ETT_ITEM );
      129    17977             %DCL_AUTO_LX_ITEM( @NAME = TEMP_LX_TERMINAL );
      130    17981
      131    17982             %DCL_AUTO_LX_ITEM( @NAME = UPPER_LX_ETT_ITEM );
      132    17986             %DCL_AUTO_LX_ITEM( @NAME = LOWER_LX_ETT_ITEM );
      133    17990        %EJECT;
PL6.E3A0      #001=Z8E7$STMT_ASSIGNMENT File=Z8E7.:Z8A6TSI                       SAT 08/09/97 11:35 Page:102
      134    17991
      135    17992
      136    17993        %TYPE_MATRIX_BEGIN(@NAME = MOVE_MATRIX);
      137    17997          %TYPE_MATRIX_ENTRY(@LOP = %TYI, @ROP = %TYI, @LOP_BECOMES = %TYI, @ROP_BECOMES =
             17997              %TYI);
      138    18006          %TYPE_MATRIX_ENTRY(@LOP = %TYI, @ROP = %TYD, @LOP_BECOMES = %TYI, @ROP_BECOMES =
             18006              %TYI);
      139    18015          %TYPE_MATRIX_ENTRY(@LOP = %TYI, @ROP = %TYH, @LOP_BECOMES = %TYI, @ROP_BECOMES =
             18015              %TYI);
      140    18024          %TYPE_MATRIX_ENTRY(@LOP = %TYI, @ROP = %TYR, @LOP_BECOMES = %TYI, @ROP_BECOMES =
             18024              %TYI);
      141    18033          %TYPE_MATRIX_ENTRY(@LOP = %TYI, @ROP = %TYQ, @LOP_BECOMES = %TYI, @ROP_BECOMES =
             18033              %TYI);
      142    18042          %TYPE_MATRIX_ENTRY(@LOP = %TYI, @ROP = %TYJ, @LOP_BECOMES = %TYI, @ROP_BECOMES =
             18042              %TYI);
      143    18051          %TYPE_MATRIX_ENTRY(@LOP = %TYI, @ROP = %TYO, @LOP_BECOMES = %TYI, @ROP_BECOMES =
             18051              %TYI);
      144    18060          %TYPE_MATRIX_ENTRY(@LOP = %TYI, @ROP = %TYK, @LOP_BECOMES = %TYI, @ROP_BECOMES =
             18060              %TYI);
      145    18069          %TYPE_MATRIX_ENTRY(@LOP = %TYI, @ROP = %TYA, @LOP_BECOMES = %TYI, @ROP_BECOMES =
             18069              %TYI);
      146    18078          %TYPE_MATRIX_ENTRY(@LOP = %TYI, @ROP = %TYE, @LOP_BECOMES = %TYI, @ROP_BECOMES =
             18078              %TYI);
      147    18087          %TYPE_MATRIX_ENTRY(@LOP = %TYI, @ROP = %TYF, @LOP_BECOMES = %TYI, @ROP_BECOMES =
             18087              %TYI);
      148    18096          %TYPE_MATRIX_ENTRY(@LOP = %TYI, @ROP = %TYB, @LOP_BECOMES = %TYI, @ROP_BECOMES =
             18096              %TYI);
      149    18105          %TYPE_MATRIX_ENTRY(@LOP = %TYI, @ROP = %TYT, @LOP_BECOMES = %TYI, @ROP_BECOMES =
             18105              %TYI);
      150    18114          %TYPE_MATRIX_ENTRY(@LOP = %TYD, @ROP = %TYI, @LOP_BECOMES = %TYD, @ROP_BECOMES =
             18114              %TYD);
      151    18123          %TYPE_MATRIX_ENTRY(@LOP = %TYD, @ROP = %TYD, @LOP_BECOMES = %TYD, @ROP_BECOMES =
             18123              %TYD);
      152    18132          %TYPE_MATRIX_ENTRY(@LOP = %TYD, @ROP = %TYH, @LOP_BECOMES = %TYD, @ROP_BECOMES =
             18132              %TYD);
      153    18141          %TYPE_MATRIX_ENTRY(@LOP = %TYD, @ROP = %TYR, @LOP_BECOMES = %TYD, @ROP_BECOMES =
             18141              %TYD);
PL6.E3A0      #001=Z8E7$STMT_ASSIGNMENT File=Z8E7.:Z8A6TSI                       SAT 08/09/97 11:35 Page:103
      154    18150          %TYPE_MATRIX_ENTRY(@LOP = %TYD, @ROP = %TYQ, @LOP_BECOMES = %TYD, @ROP_BECOMES =
             18150              %TYD);
      155    18159          %TYPE_MATRIX_ENTRY(@LOP = %TYD, @ROP = %TYJ, @LOP_BECOMES = %TYD, @ROP_BECOMES =
             18159              %TYD);
      156    18168          %TYPE_MATRIX_ENTRY(@LOP = %TYD, @ROP = %TYO, @LOP_BECOMES = %TYD, @ROP_BECOMES =
             18168              %TYO);
      157    18177          %TYPE_MATRIX_ENTRY(@LOP = %TYD, @ROP = %TYK, @LOP_BECOMES = %TYD, @ROP_BECOMES =
             18177              %TYD);
      158    18186          %TYPE_MATRIX_ENTRY(@LOP = %TYD, @ROP = %TYA, @LOP_BECOMES = %TYD, @ROP_BECOMES =
             18186              %TYD);
      159    18195          %TYPE_MATRIX_ENTRY(@LOP = %TYD, @ROP = %TYE, @LOP_BECOMES = %TYD, @ROP_BECOMES =
             18195              %TYD);
      160    18204          %TYPE_MATRIX_ENTRY(@LOP = %TYD, @ROP = %TYF, @LOP_BECOMES = %TYD, @ROP_BECOMES =
             18204              %TYF);
      161    18213          %TYPE_MATRIX_ENTRY(@LOP = %TYD, @ROP = %TYB, @LOP_BECOMES = %TYD, @ROP_BECOMES =
             18213              %TYD);
      162    18222          %TYPE_MATRIX_ENTRY(@LOP = %TYD, @ROP = %TYT, @LOP_BECOMES = %TYD, @ROP_BECOMES =
             18222              %TYD);
      163    18231          %TYPE_MATRIX_ENTRY(@LOP = %TYH, @ROP = %TYI, @LOP_BECOMES = %TYH, @ROP_BECOMES =
             18231              %TYH);
      164    18240          %TYPE_MATRIX_ENTRY(@LOP = %TYH, @ROP = %TYD, @LOP_BECOMES = %TYH, @ROP_BECOMES =
             18240              %TYH);
      165    18249          %TYPE_MATRIX_ENTRY(@LOP = %TYH, @ROP = %TYH, @LOP_BECOMES = %TYH, @ROP_BECOMES =
             18249              %TYH);
      166    18258          %TYPE_MATRIX_ENTRY(@LOP = %TYH, @ROP = %TYR, @LOP_BECOMES = %TYH, @ROP_BECOMES =
             18258              %TYH);
      167    18267          %TYPE_MATRIX_ENTRY(@LOP = %TYH, @ROP = %TYQ, @LOP_BECOMES = %TYH, @ROP_BECOMES =
             18267              %TYH);
      168    18276          %TYPE_MATRIX_ENTRY(@LOP = %TYH, @ROP = %TYJ, @LOP_BECOMES = %TYH, @ROP_BECOMES =
             18276              %TYH);
      169    18285          %TYPE_MATRIX_ENTRY(@LOP = %TYH, @ROP = %TYO, @LOP_BECOMES = %TYH, @ROP_BECOMES =
             18285              %TYH);
      170    18294          %TYPE_MATRIX_ENTRY(@LOP = %TYH, @ROP = %TYK, @LOP_BECOMES = %TYH, @ROP_BECOMES =
             18294              %TYH);
      171    18303          %TYPE_MATRIX_ENTRY(@LOP = %TYH, @ROP = %TYA, @LOP_BECOMES = %TYH, @ROP_BECOMES =
             18303              %TYH);
      172    18312          %TYPE_MATRIX_ENTRY(@LOP = %TYH, @ROP = %TYE, @LOP_BECOMES = %TYH, @ROP_BECOMES =
PL6.E3A0      #001=Z8E7$STMT_ASSIGNMENT File=Z8E7.:Z8A6TSI                       SAT 08/09/97 11:35 Page:104
             18312              %TYH);
      173    18321          %TYPE_MATRIX_ENTRY(@LOP = %TYH, @ROP = %TYF, @LOP_BECOMES = %TYH, @ROP_BECOMES =
             18321              %TYH);
      174    18330          %TYPE_MATRIX_ENTRY(@LOP = %TYH, @ROP = %TYB, @LOP_BECOMES = %TYH, @ROP_BECOMES =
             18330              %TYH);
      175    18339          %TYPE_MATRIX_ENTRY(@LOP = %TYH, @ROP = %TYT, @LOP_BECOMES = %TYH, @ROP_BECOMES =
             18339              %TYH);
      176    18348          %TYPE_MATRIX_ENTRY(@LOP = %TYR, @ROP = %TYI, @LOP_BECOMES = %TYR, @ROP_BECOMES =
             18348              %TYR);
      177    18357          %TYPE_MATRIX_ENTRY(@LOP = %TYR, @ROP = %TYD, @LOP_BECOMES = %TYR, @ROP_BECOMES =
             18357              %TYR);
      178    18366          %TYPE_MATRIX_ENTRY(@LOP = %TYR, @ROP = %TYH, @LOP_BECOMES = %TYR, @ROP_BECOMES =
             18366              %TYR);
      179    18375          %TYPE_MATRIX_ENTRY(@LOP = %TYR, @ROP = %TYR, @LOP_BECOMES = %TYR, @ROP_BECOMES =
             18375              %TYR);
      180    18384          %TYPE_MATRIX_ENTRY(@LOP = %TYR, @ROP = %TYQ, @LOP_BECOMES = %TYR, @ROP_BECOMES =
             18384              %TYR);
      181    18393          %TYPE_MATRIX_ENTRY(@LOP = %TYR, @ROP = %TYJ, @LOP_BECOMES = %TYR, @ROP_BECOMES =
             18393              %TYR);
      182    18402          %TYPE_MATRIX_ENTRY(@LOP = %TYR, @ROP = %TYO, @LOP_BECOMES = %TYR, @ROP_BECOMES =
             18402              %TYR);
      183    18411          %TYPE_MATRIX_ENTRY(@LOP = %TYR, @ROP = %TYK, @LOP_BECOMES = %TYR, @ROP_BECOMES =
             18411              %TYR);
      184    18420          %TYPE_MATRIX_ENTRY(@LOP = %TYR, @ROP = %TYA, @LOP_BECOMES = %TYR, @ROP_BECOMES =
             18420              %TYR);
      185    18429          %TYPE_MATRIX_ENTRY(@LOP = %TYR, @ROP = %TYE, @LOP_BECOMES = %TYR, @ROP_BECOMES =
             18429              %TYR);
      186    18438          %TYPE_MATRIX_ENTRY(@LOP = %TYR, @ROP = %TYF, @LOP_BECOMES = %TYR, @ROP_BECOMES =
             18438              %TYR);
      187    18447          %TYPE_MATRIX_ENTRY(@LOP = %TYR, @ROP = %TYB, @LOP_BECOMES = %TYR, @ROP_BECOMES =
             18447              %TYR);
      188    18456          %TYPE_MATRIX_ENTRY(@LOP = %TYR, @ROP = %TYT, @LOP_BECOMES = %TYR, @ROP_BECOMES =
             18456              %TYR);
      189    18465          %TYPE_MATRIX_ENTRY(@LOP = %TYQ, @ROP = %TYI, @LOP_BECOMES = %TYQ, @ROP_BECOMES =
             18465              %TYQ);
      190    18474          %TYPE_MATRIX_ENTRY(@LOP = %TYQ, @ROP = %TYD, @LOP_BECOMES = %TYQ, @ROP_BECOMES =
             18474              %TYQ);
PL6.E3A0      #001=Z8E7$STMT_ASSIGNMENT File=Z8E7.:Z8A6TSI                       SAT 08/09/97 11:35 Page:105
      191    18483          %TYPE_MATRIX_ENTRY(@LOP = %TYQ, @ROP = %TYH, @LOP_BECOMES = %TYQ, @ROP_BECOMES =
             18483              %TYQ);
      192    18492          %TYPE_MATRIX_ENTRY(@LOP = %TYQ, @ROP = %TYR, @LOP_BECOMES = %TYQ, @ROP_BECOMES =
             18492              %TYQ);
      193    18501          %TYPE_MATRIX_ENTRY(@LOP = %TYQ, @ROP = %TYQ, @LOP_BECOMES = %TYQ, @ROP_BECOMES =
             18501              %TYQ);
      194    18510          %TYPE_MATRIX_ENTRY(@LOP = %TYQ, @ROP = %TYJ, @LOP_BECOMES = %TYQ, @ROP_BECOMES =
             18510              %TYQ);
      195    18519          %TYPE_MATRIX_ENTRY(@LOP = %TYQ, @ROP = %TYO, @LOP_BECOMES = %TYQ, @ROP_BECOMES =
             18519              %TYQ);
      196    18528          %TYPE_MATRIX_ENTRY(@LOP = %TYQ, @ROP = %TYK, @LOP_BECOMES = %TYQ, @ROP_BECOMES =
             18528              %TYQ);
      197    18537          %TYPE_MATRIX_ENTRY(@LOP = %TYQ, @ROP = %TYA, @LOP_BECOMES = %TYQ, @ROP_BECOMES =
             18537              %TYQ);
      198    18546          %TYPE_MATRIX_ENTRY(@LOP = %TYQ, @ROP = %TYE, @LOP_BECOMES = %TYQ, @ROP_BECOMES =
             18546              %TYQ);
      199    18555          %TYPE_MATRIX_ENTRY(@LOP = %TYQ, @ROP = %TYF, @LOP_BECOMES = %TYQ, @ROP_BECOMES =
             18555              %TYQ);
      200    18564          %TYPE_MATRIX_ENTRY(@LOP = %TYQ, @ROP = %TYB, @LOP_BECOMES = %TYQ, @ROP_BECOMES =
             18564              %TYQ);
      201    18573          %TYPE_MATRIX_ENTRY(@LOP = %TYQ, @ROP = %TYT, @LOP_BECOMES = %TYQ, @ROP_BECOMES =
             18573              %TYQ);
      202    18582          %TYPE_MATRIX_ENTRY(@LOP = %TYJ, @ROP = %TYI, @LOP_BECOMES = %TYJ, @ROP_BECOMES =
             18582              %TYJ);
      203    18591          %TYPE_MATRIX_ENTRY(@LOP = %TYJ, @ROP = %TYD, @LOP_BECOMES = %TYJ, @ROP_BECOMES =
             18591              %TYJ);
      204    18600          %TYPE_MATRIX_ENTRY(@LOP = %TYJ, @ROP = %TYH, @LOP_BECOMES = %TYJ, @ROP_BECOMES =
             18600              %TYJ);
      205    18609          %TYPE_MATRIX_ENTRY(@LOP = %TYJ, @ROP = %TYR, @LOP_BECOMES = %TYJ, @ROP_BECOMES =
             18609              %TYJ);
      206    18618          %TYPE_MATRIX_ENTRY(@LOP = %TYJ, @ROP = %TYQ, @LOP_BECOMES = %TYJ, @ROP_BECOMES =
             18618              %TYJ);
      207    18627          %TYPE_MATRIX_ENTRY(@LOP = %TYJ, @ROP = %TYJ, @LOP_BECOMES = %TYJ, @ROP_BECOMES =
             18627              %TYJ);
      208    18636          %TYPE_MATRIX_ENTRY(@LOP = %TYJ, @ROP = %TYO, @LOP_BECOMES = %TYJ, @ROP_BECOMES =
             18636              %TYJ);
      209    18645          %TYPE_MATRIX_ENTRY(@LOP = %TYJ, @ROP = %TYK, @LOP_BECOMES = %TYJ, @ROP_BECOMES =
PL6.E3A0      #001=Z8E7$STMT_ASSIGNMENT File=Z8E7.:Z8A6TSI                       SAT 08/09/97 11:35 Page:106
             18645              %TYJ);
      210    18654          %TYPE_MATRIX_ENTRY(@LOP = %TYJ, @ROP = %TYA, @LOP_BECOMES = %TYJ, @ROP_BECOMES =
             18654              %TYJ);
      211    18663          %TYPE_MATRIX_ENTRY(@LOP = %TYJ, @ROP = %TYE, @LOP_BECOMES = %TYJ, @ROP_BECOMES =
             18663              %TYJ);
      212    18672          %TYPE_MATRIX_ENTRY(@LOP = %TYJ, @ROP = %TYF, @LOP_BECOMES = %TYJ, @ROP_BECOMES =
             18672              %TYJ);
      213    18681          %TYPE_MATRIX_ENTRY(@LOP = %TYJ, @ROP = %TYB, @LOP_BECOMES = %TYJ, @ROP_BECOMES =
             18681              %TYJ);
      214    18690          %TYPE_MATRIX_ENTRY(@LOP = %TYJ, @ROP = %TYT, @LOP_BECOMES = %TYJ, @ROP_BECOMES =
             18690              %TYJ);
      215    18699          %TYPE_MATRIX_ENTRY(@LOP = %TYO, @ROP = %TYI, @LOP_BECOMES = %TYO, @ROP_BECOMES =
             18699              %TYD);
      216    18708          %TYPE_MATRIX_ENTRY(@LOP = %TYO, @ROP = %TYD, @LOP_BECOMES = %TYO, @ROP_BECOMES =
             18708              %TYD);
      217    18717          %TYPE_MATRIX_ENTRY(@LOP = %TYO, @ROP = %TYH, @LOP_BECOMES = %TYO, @ROP_BECOMES =
             18717              %TYD);
      218    18726          %TYPE_MATRIX_ENTRY(@LOP = %TYO, @ROP = %TYR, @LOP_BECOMES = %TYO, @ROP_BECOMES =
             18726              %TYD);
      219    18735          %TYPE_MATRIX_ENTRY(@LOP = %TYO, @ROP = %TYQ, @LOP_BECOMES = %TYO, @ROP_BECOMES =
             18735              %TYD);
      220    18744          %TYPE_MATRIX_ENTRY(@LOP = %TYO, @ROP = %TYJ, @LOP_BECOMES = %TYO, @ROP_BECOMES =
             18744              %TYD);
      221    18753          %TYPE_MATRIX_ENTRY(@LOP = %TYO, @ROP = %TYO, @LOP_BECOMES = %TYO, @ROP_BECOMES =
             18753              %TYO);
      222    18762          %TYPE_MATRIX_ENTRY(@LOP = %TYO, @ROP = %TYK, @LOP_BECOMES = %TYO, @ROP_BECOMES =
             18762              %TYD);
      223    18771          %TYPE_MATRIX_ENTRY(@LOP = %TYO, @ROP = %TYA, @LOP_BECOMES = %TYO, @ROP_BECOMES =
             18771              %TYD);
      224    18780          %TYPE_MATRIX_ENTRY(@LOP = %TYO, @ROP = %TYE, @LOP_BECOMES = %TYO, @ROP_BECOMES =
             18780              %TYD);
      225    18789          %TYPE_MATRIX_ENTRY(@LOP = %TYO, @ROP = %TYF, @LOP_BECOMES = %TYO, @ROP_BECOMES =
             18789              %TYD);
      226    18798          %TYPE_MATRIX_ENTRY(@LOP = %TYO, @ROP = %TYB, @LOP_BECOMES = %TYO, @ROP_BECOMES =
             18798              %TYD);
      227    18807          %TYPE_MATRIX_ENTRY(@LOP = %TYO, @ROP = %TYT, @LOP_BECOMES = %TYO, @ROP_BECOMES =
             18807              %TYD);
PL6.E3A0      #001=Z8E7$STMT_ASSIGNMENT File=Z8E7.:Z8A6TSI                       SAT 08/09/97 11:35 Page:107
      228    18816          %TYPE_MATRIX_ENTRY(@LOP = %TYK, @ROP = %TYI, @LOP_BECOMES = %TYK, @ROP_BECOMES =
             18816              %TYK);
      229    18825          %TYPE_MATRIX_ENTRY(@LOP = %TYK, @ROP = %TYD, @LOP_BECOMES = %TYK, @ROP_BECOMES =
             18825              %TYK);
      230    18834          %TYPE_MATRIX_ENTRY(@LOP = %TYK, @ROP = %TYH, @LOP_BECOMES = %TYK, @ROP_BECOMES =
             18834              %TYK);
      231    18843          %TYPE_MATRIX_ENTRY(@LOP = %TYK, @ROP = %TYR, @LOP_BECOMES = %TYK, @ROP_BECOMES =
             18843              %TYK);
      232    18852          %TYPE_MATRIX_ENTRY(@LOP = %TYK, @ROP = %TYQ, @LOP_BECOMES = %TYK, @ROP_BECOMES =
             18852              %TYK);
      233    18861          %TYPE_MATRIX_ENTRY(@LOP = %TYK, @ROP = %TYJ, @LOP_BECOMES = %TYK, @ROP_BECOMES =
             18861              %TYK);
      234    18870          %TYPE_MATRIX_ENTRY(@LOP = %TYK, @ROP = %TYO, @LOP_BECOMES = %TYK, @ROP_BECOMES =
             18870              %TYK);
      235    18879          %TYPE_MATRIX_ENTRY(@LOP = %TYK, @ROP = %TYK, @LOP_BECOMES = %TYK, @ROP_BECOMES =
             18879              %TYK);
      236    18888          %TYPE_MATRIX_ENTRY(@LOP = %TYK, @ROP = %TYA, @LOP_BECOMES = %TYK, @ROP_BECOMES =
             18888              %TYK);
      237    18897          %TYPE_MATRIX_ENTRY(@LOP = %TYK, @ROP = %TYE, @LOP_BECOMES = %TYK, @ROP_BECOMES =
             18897              %TYK);
      238    18906          %TYPE_MATRIX_ENTRY(@LOP = %TYK, @ROP = %TYF, @LOP_BECOMES = %TYK, @ROP_BECOMES =
             18906              %TYK);
      239    18915          %TYPE_MATRIX_ENTRY(@LOP = %TYK, @ROP = %TYB, @LOP_BECOMES = %TYK, @ROP_BECOMES =
             18915              %TYK);
      240    18924          %TYPE_MATRIX_ENTRY(@LOP = %TYK, @ROP = %TYT, @LOP_BECOMES = %TYK, @ROP_BECOMES =
             18924              %TYK);
      241    18933          %TYPE_MATRIX_ENTRY(@LOP = %TYA, @ROP = %TYI, @LOP_BECOMES = %TYA, @ROP_BECOMES =
             18933              %TYA);
      242    18942          %TYPE_MATRIX_ENTRY(@LOP = %TYA, @ROP = %TYD, @LOP_BECOMES = %TYA, @ROP_BECOMES =
             18942              %TYA);
      243    18951          %TYPE_MATRIX_ENTRY(@LOP = %TYA, @ROP = %TYH, @LOP_BECOMES = %TYA, @ROP_BECOMES =
             18951              %TYA);
      244    18960          %TYPE_MATRIX_ENTRY(@LOP = %TYA, @ROP = %TYR, @LOP_BECOMES = %TYA, @ROP_BECOMES =
             18960              %TYA);
      245    18969          %TYPE_MATRIX_ENTRY(@LOP = %TYA, @ROP = %TYQ, @LOP_BECOMES = %TYA, @ROP_BECOMES =
             18969              %TYA);
      246    18978          %TYPE_MATRIX_ENTRY(@LOP = %TYA, @ROP = %TYJ, @LOP_BECOMES = %TYA, @ROP_BECOMES =
PL6.E3A0      #001=Z8E7$STMT_ASSIGNMENT File=Z8E7.:Z8A6TSI                       SAT 08/09/97 11:35 Page:108
             18978              %TYA);
      247    18987          %TYPE_MATRIX_ENTRY(@LOP = %TYA, @ROP = %TYO, @LOP_BECOMES = %TYA, @ROP_BECOMES =
             18987              %TYA);
      248    18996          %TYPE_MATRIX_ENTRY(@LOP = %TYA, @ROP = %TYK, @LOP_BECOMES = %TYA, @ROP_BECOMES =
             18996              %TYA);
      249    19005          %TYPE_MATRIX_ENTRY(@LOP = %TYA, @ROP = %TYA, @LOP_BECOMES = %TYA, @ROP_BECOMES =
             19005              %TYA);
      250    19014          %TYPE_MATRIX_ENTRY(@LOP = %TYA, @ROP = %TYE, @LOP_BECOMES = %TYA, @ROP_BECOMES =
             19014              %TYA);
      251    19023          %TYPE_MATRIX_ENTRY(@LOP = %TYA, @ROP = %TYF, @LOP_BECOMES = %TYA, @ROP_BECOMES =
             19023              %TYA);
      252    19032          %TYPE_MATRIX_ENTRY(@LOP = %TYA, @ROP = %TYB, @LOP_BECOMES = %TYA, @ROP_BECOMES =
             19032              %TYA);
      253    19041          %TYPE_MATRIX_ENTRY(@LOP = %TYA, @ROP = %TYT, @LOP_BECOMES = %TYA, @ROP_BECOMES =
             19041              %TYA);
      254    19050          %TYPE_MATRIX_ENTRY(@LOP = %TYE, @ROP = %TYI, @LOP_BECOMES = %TYE, @ROP_BECOMES =
             19050              %TYE);
      255    19059          %TYPE_MATRIX_ENTRY(@LOP = %TYE, @ROP = %TYD, @LOP_BECOMES = %TYE, @ROP_BECOMES =
             19059              %TYE);
      256    19068          %TYPE_MATRIX_ENTRY(@LOP = %TYE, @ROP = %TYH, @LOP_BECOMES = %TYE, @ROP_BECOMES =
             19068              %TYE);
      257    19077          %TYPE_MATRIX_ENTRY(@LOP = %TYE, @ROP = %TYR, @LOP_BECOMES = %TYE, @ROP_BECOMES =
             19077              %TYE);
      258    19086          %TYPE_MATRIX_ENTRY(@LOP = %TYE, @ROP = %TYQ, @LOP_BECOMES = %TYE, @ROP_BECOMES =
             19086              %TYE);
      259    19095          %TYPE_MATRIX_ENTRY(@LOP = %TYE, @ROP = %TYJ, @LOP_BECOMES = %TYE, @ROP_BECOMES =
             19095              %TYE);
      260    19104          %TYPE_MATRIX_ENTRY(@LOP = %TYE, @ROP = %TYO, @LOP_BECOMES = %TYE, @ROP_BECOMES =
             19104              %TYE);
      261    19113          %TYPE_MATRIX_ENTRY(@LOP = %TYE, @ROP = %TYK, @LOP_BECOMES = %TYE, @ROP_BECOMES =
             19113              %TYE);
      262    19122          %TYPE_MATRIX_ENTRY(@LOP = %TYE, @ROP = %TYA, @LOP_BECOMES = %TYE, @ROP_BECOMES =
             19122              %TYE);
      263    19131          %TYPE_MATRIX_ENTRY(@LOP = %TYE, @ROP = %TYE, @LOP_BECOMES = %TYE, @ROP_BECOMES =
             19131              %TYE);
      264    19140          %TYPE_MATRIX_ENTRY(@LOP = %TYE, @ROP = %TYF, @LOP_BECOMES = %TYE, @ROP_BECOMES =
             19140              %TYE);
PL6.E3A0      #001=Z8E7$STMT_ASSIGNMENT File=Z8E7.:Z8A6TSI                       SAT 08/09/97 11:35 Page:109
      265    19149          %TYPE_MATRIX_ENTRY(@LOP = %TYE, @ROP = %TYB, @LOP_BECOMES = %TYE, @ROP_BECOMES =
             19149              %TYE);
      266    19158          %TYPE_MATRIX_ENTRY(@LOP = %TYE, @ROP = %TYT, @LOP_BECOMES = %TYE, @ROP_BECOMES =
             19158              %TYE);
      267    19167          %TYPE_MATRIX_ENTRY(@LOP = %TYB, @ROP = %TYI, @LOP_BECOMES = %TYB, @ROP_BECOMES =
             19167              %TYB);
      268    19176          %TYPE_MATRIX_ENTRY(@LOP = %TYB, @ROP = %TYD, @LOP_BECOMES = %TYB, @ROP_BECOMES =
             19176              %TYB);
      269    19185          %TYPE_MATRIX_ENTRY(@LOP = %TYB, @ROP = %TYH, @LOP_BECOMES = %TYB, @ROP_BECOMES =
             19185              %TYB);
      270    19194          %TYPE_MATRIX_ENTRY(@LOP = %TYB, @ROP = %TYR, @LOP_BECOMES = %TYB, @ROP_BECOMES =
             19194              %TYB);
      271    19203          %TYPE_MATRIX_ENTRY(@LOP = %TYB, @ROP = %TYQ, @LOP_BECOMES = %TYB, @ROP_BECOMES =
             19203              %TYB);
      272    19212          %TYPE_MATRIX_ENTRY(@LOP = %TYB, @ROP = %TYJ, @LOP_BECOMES = %TYB, @ROP_BECOMES =
             19212              %TYB);
      273    19221          %TYPE_MATRIX_ENTRY(@LOP = %TYB, @ROP = %TYO, @LOP_BECOMES = %TYB, @ROP_BECOMES =
             19221              %TYB);
      274    19230          %TYPE_MATRIX_ENTRY(@LOP = %TYB, @ROP = %TYK, @LOP_BECOMES = %TYB, @ROP_BECOMES =
             19230              %TYB);
      275    19239          %TYPE_MATRIX_ENTRY(@LOP = %TYB, @ROP = %TYA, @LOP_BECOMES = %TYB, @ROP_BECOMES =
             19239              %TYB);
      276    19248          %TYPE_MATRIX_ENTRY(@LOP = %TYB, @ROP = %TYE, @LOP_BECOMES = %TYB, @ROP_BECOMES =
             19248              %TYB);
      277    19257          %TYPE_MATRIX_ENTRY(@LOP = %TYB, @ROP = %TYF, @LOP_BECOMES = %TYB, @ROP_BECOMES =
             19257              %TYB);
      278    19266          %TYPE_MATRIX_ENTRY(@LOP = %TYB, @ROP = %TYB, @LOP_BECOMES = %TYB, @ROP_BECOMES =
             19266              %TYB);
      279    19275          %TYPE_MATRIX_ENTRY(@LOP = %TYB, @ROP = %TYT, @LOP_BECOMES = %TYB, @ROP_BECOMES =
             19275              %TYB);
      280    19284          %TYPE_MATRIX_ENTRY(@LOP = %TYF, @ROP = %TYI, @LOP_BECOMES = %TYF, @ROP_BECOMES =
             19284              %TYD);
      281    19293          %TYPE_MATRIX_ENTRY(@LOP = %TYF, @ROP = %TYD, @LOP_BECOMES = %TYF, @ROP_BECOMES =
             19293              %TYD);
      282    19302          %TYPE_MATRIX_ENTRY(@LOP = %TYF, @ROP = %TYH, @LOP_BECOMES = %TYF, @ROP_BECOMES =
             19302              %TYD);
      283    19311          %TYPE_MATRIX_ENTRY(@LOP = %TYF, @ROP = %TYR, @LOP_BECOMES = %TYF, @ROP_BECOMES =
PL6.E3A0      #001=Z8E7$STMT_ASSIGNMENT File=Z8E7.:Z8A6TSI                       SAT 08/09/97 11:35 Page:110
             19311              %TYD);
      284    19320          %TYPE_MATRIX_ENTRY(@LOP = %TYF, @ROP = %TYQ, @LOP_BECOMES = %TYF, @ROP_BECOMES =
             19320              %TYD);
      285    19329          %TYPE_MATRIX_ENTRY(@LOP = %TYF, @ROP = %TYJ, @LOP_BECOMES = %TYF, @ROP_BECOMES =
             19329              %TYD);
      286    19338          %TYPE_MATRIX_ENTRY(@LOP = %TYF, @ROP = %TYO, @LOP_BECOMES = %TYF, @ROP_BECOMES =
             19338              %TYD);
      287    19347          %TYPE_MATRIX_ENTRY(@LOP = %TYF, @ROP = %TYK, @LOP_BECOMES = %TYF, @ROP_BECOMES =
             19347              %TYD);
      288    19356          %TYPE_MATRIX_ENTRY(@LOP = %TYF, @ROP = %TYA, @LOP_BECOMES = %TYF, @ROP_BECOMES =
             19356              %TYF);
      289    19365          %TYPE_MATRIX_ENTRY(@LOP = %TYF, @ROP = %TYE, @LOP_BECOMES = %TYF, @ROP_BECOMES =
             19365              %TYF);
      290    19374          %TYPE_MATRIX_ENTRY(@LOP = %TYF, @ROP = %TYF, @LOP_BECOMES = %TYF, @ROP_BECOMES =
             19374              %TYF);
      291    19383          %TYPE_MATRIX_ENTRY(@LOP = %TYF, @ROP = %TYB, @LOP_BECOMES = %TYF, @ROP_BECOMES =
             19383              %TYF);
      292    19392          %TYPE_MATRIX_ENTRY(@LOP = %TYF, @ROP = %TYT, @LOP_BECOMES = %TYF, @ROP_BECOMES =
             19392              %TYF);
      293    19401          %TYPE_MATRIX_ENTRY(@LOP = %TYN, @ROP = %TYN, @LOP_BECOMES = %TYN, @ROP_BECOMES =
             19401              %TYN);
      294    19410          %TYPE_MATRIX_ENTRY(@LOP = %TYN, @ROP = %TYT, @LOP_BECOMES = %TYN, @ROP_BECOMES =
             19410              %TYN);
      295    19419        %TYPE_MATRIX_END;
      296    19428        %EJECT;
PL6.E3A0      #001=Z8E7$STMT_ASSIGNMENT File=Z8E7.:Z8A6TSI                       SAT 08/09/97 11:35 Page:111
      297    19429        /*===============*/
      298    19430    1     ON_SIZE_PREPASS: PROC (LOP$, ROP$, LABEL$);

  19430 27 000003   200164 741300       ON_SIZE_PRE* STX1  ! LOWER_LX_ETT_ITEM+8,,AUTO

      299    19431        /*===============*/
      300    19432
      301    19433    2        DCL LOP$          PTR;
      302    19434    2        DCL ROP$          PTR;
      303    19435    2        DCL LABEL$        PTR;
      304    19436    2        DCL NEL$$         PTR;
      305    19437    2        DCL LOP_ST$       PTR;
      306    19438
      307    19439    2        DCL 1 TYPE_DESC   ALIGNED,
      308    19440                   %TYPE_DESC;
      309    19474
      310    19475
      311    19476    2        CALL Z8AU$TYPE_DESCRIPTOR(LOP$ -> LX_ETT_ITEM.ETT$, TYPE_DESC);

  19476 27 000004   200165 470500                    LDP0    @LOP$,,AUTO
        27 000005   000000 471500                    LDP1    0,,PR0
        27 000006   200172 633500                    EPPR3   TYPE_DESC,,AUTO
        27 000007   200431 453500                    STP3    I+3,,AUTO
        27 000010   100001 634500                    EPPR4   1,,PR1
        27 000011   200430 454500                    STP4    I+2,,AUTO
        27 000012   200430 630500                    EPPR0   I+2,,AUTO
        27 000013   000000 631400 28                 EPPR1   0
        27 000014   000000 701000 xent               TSX1    Z8AU$TYPE_DESCRIPTOR
        27 000015   000000 011000                    NOP     0

      312    19477
      313    19478    3        DO CASE(TYPE_DESC.TYPE);

  19478 27 000016   200172 235100                    LDA     TYPE_DESC,,AUTO
        27 000017   000020 115007                    CMPA    16,DL
        27 000020   000022 602005 27                 TNC     s:19478+4,AL
        27 000021   000340 710000 27                 TRA     s:19765
PL6.E3A0      #001=Z8E7$STMT_ASSIGNMENT File=Z8E7.:Z8A6TSI                       SAT 08/09/97 11:35 Page:112
        27 000022   000042 710000 27                 TRA     s:19480
        27 000023   000042 710000 27                 TRA     s:19480
        27 000024   000226 710000 27                 TRA     s:19622
        27 000025   000060 710000 27                 TRA     s:19486
        27 000026   000051 710000 27                 TRA     s:19483
        27 000027   000051 710000 27                 TRA     s:19483
        27 000030   000136 710000 27                 TRA     s:19512
        27 000031   000310 710000 27                 TRA     s:19724
        27 000032   000136 710000 27                 TRA     s:19512
        27 000033   000340 710000 27                 TRA     s:19765
        27 000034   000340 710000 27                 TRA     s:19765
        27 000035   000106 710000 27                 TRA     s:19497
        27 000036   000136 710000 27                 TRA     s:19512
        27 000037   000340 710000 27                 TRA     s:19765
        27 000040   000340 710000 27                 TRA     s:19765
        27 000041   000257 710000 27                 TRA     s:19673

      314    19479    3          CASE(%TYD, %TYI);

      315    19480    3            CALL OVERFLOW_CHECKS_FROM_ETT (LOP$, ROP$, LABEL$);

  19480 27 000042   200166 237100                    LDAQ    @ROP$,,AUTO
        27 000043   200200 757100                    STAQ    @ROP$+1,,AUTO
        27 000044   200165 236100                    LDQ     @LOP$,,AUTO
        27 000045   200177 756100                    STQ     LOP_DESC+2,,AUTO
        27 000046   002101 701000 27                 TSX1    OVERFLOW_CHECKS_FROM_ETT
        27 000047   000000 011000                    NOP     0
        27 000050   000340 710000 27                 TRA     s:19765

      316    19481
      317    19482    3          CASE(%TYQ, %TYR);

      318    19483    3              CALL OVERFLOW_CHECKS_FROM_ETT_FLT (LOP$, ROP$, LABEL$);

  19483 27 000051   200166 237100                    LDAQ    @ROP$,,AUTO
        27 000052   200200 757100                    STAQ    @ROP$+1,,AUTO
        27 000053   200165 236100                    LDQ     @LOP$,,AUTO
PL6.E3A0      #001=Z8E7$STMT_ASSIGNMENT File=Z8E7.:Z8A6TSI                       SAT 08/09/97 11:35 Page:113
        27 000054   200177 756100                    STQ     LOP_DESC+2,,AUTO
        27 000055   001774 701000 27                 TSX1    OVERFLOW_CHECKS_FROM_ETT_FLT
        27 000056   000000 011000                    NOP     0
        27 000057   000340 710000 27                 TRA     s:19765

      319    19484
      320    19485    3          CASE(%TYO);

      321    19486    3            IF COMCOM.OB.ELS THEN

  19486 27 000060   000026 234000 xsym               SZN     COMCOM+22
        27 000061   000071 605000 27                 TPL     s:19490

      322    19487    3              CALL OVERFLOW_CHECKS_FROM_ETT (LOP$, ROP$, LABEL$);

  19487 27 000062   200166 237100                    LDAQ    @ROP$,,AUTO
        27 000063   200200 757100                    STAQ    @ROP$+1,,AUTO
        27 000064   200165 236100                    LDQ     @LOP$,,AUTO
        27 000065   200177 756100                    STQ     LOP_DESC+2,,AUTO
        27 000066   002101 701000 27                 TSX1    OVERFLOW_CHECKS_FROM_ETT
        27 000067   000000 011000                    NOP     0
        27 000070   000340 710000 27                 TRA     s:19765

      323    19488    3            ELSE
      324    19489    4              DO;

      325    19490    4                TYPE_DESC.DESC.NDSC.N = TYPE_DESC.DESC.NDSC.N + 1;

  19490 27 000071   200173 236100                    LDQ     ROP_QLT$+1,,AUTO
        27 000072   000001 036007                    ADLQ    1,DL
        27 000073   200173 752101                    STCQ    ROP_QLT$+1,'01'O,AUTO

      326    19491    4                TYPE_DESC.TYPE        = %TYD;

  19491 27 000074   200172 450100                    STZ     TYPE_DESC,,AUTO

      327    19492
PL6.E3A0      #001=Z8E7$STMT_ASSIGNMENT File=Z8E7.:Z8A6TSI                       SAT 08/09/97 11:35 Page:114
      328    19493    4                CALL OVERFLOW_CHECKS_FROM_DESC (LOP$, ROP$, LABEL$, TYPE_DESC);

  19493 27 000075   200172 630500                    EPPR0   TYPE_DESC,,AUTO
        27 000076   200202 450500                    STP0    @UPPER+1,,AUTO
        27 000077   200166 237100                    LDAQ    @ROP$,,AUTO
        27 000100   200200 757100                    STAQ    @ROP$+1,,AUTO
        27 000101   200165 236100                    LDQ     @LOP$,,AUTO
        27 000102   200177 756100                    STQ     LOP_DESC+2,,AUTO
        27 000103   002211 701000 27                 TSX1    OVERFLOW_CHECKS_FROM_DESC
        27 000104   000000 011000                    NOP     0

      329    19494    4              END;

  19494 27 000105   000340 710000 27                 TRA     s:19765

      330    19495
      331    19496    3          CASE(%TYF);

      332    19497    3            IF TYPE_DESC.DESC.NDSC.TN = %NDSC9 OR COMCOM.OB.ELS THEN

  19497 27 000106   200173 236100                    LDQ     ROP_QLT$+1,,AUTO
        27 000107   040000 316007                    CANQ    16384,DL
        27 000110   000113 600000 27                 TZE     s:19499
        27 000111   000026 234000 xsym               SZN     COMCOM+22
        27 000112   000122 605000 27                 TPL     s:19502

      333    19498                   /* Variable is not overpunched or ELS bit is set */
      334    19499    3              CALL OVERFLOW_CHECKS_FROM_ETT (LOP$, ROP$, LABEL$);

  19499 27 000113   200166 237100                    LDAQ    @ROP$,,AUTO
        27 000114   200200 757100                    STAQ    @ROP$+1,,AUTO
        27 000115   200165 236100                    LDQ     @LOP$,,AUTO
        27 000116   200177 756100                    STQ     LOP_DESC+2,,AUTO
        27 000117   002101 701000 27                 TSX1    OVERFLOW_CHECKS_FROM_ETT
        27 000120   000000 011000                    NOP     0
        27 000121   000340 710000 27                 TRA     s:19765

PL6.E3A0      #001=Z8E7$STMT_ASSIGNMENT File=Z8E7.:Z8A6TSI                       SAT 08/09/97 11:35 Page:115
      335    19500    3            ELSE
      336    19501    4              DO;

      337    19502    4                TYPE_DESC.DESC.NDSC.N = TYPE_DESC.DESC.NDSC.N + 1;

  19502 27 000122   000001 036007                    ADLQ    1,DL
        27 000123   200173 752101                    STCQ    ROP_QLT$+1,'01'O,AUTO

      338    19503    4                TYPE_DESC.TYPE        = %TYD;

  19503 27 000124   200172 450100                    STZ     TYPE_DESC,,AUTO

      339    19504
      340    19505    4                CALL OVERFLOW_CHECKS_FROM_DESC (LOP$, ROP$, LABEL$, TYPE_DESC);

  19505 27 000125   200172 630500                    EPPR0   TYPE_DESC,,AUTO
        27 000126   200202 450500                    STP0    @UPPER+1,,AUTO
        27 000127   200166 237100                    LDAQ    @ROP$,,AUTO
        27 000130   200200 757100                    STAQ    @ROP$+1,,AUTO
        27 000131   200165 236100                    LDQ     @LOP$,,AUTO
        27 000132   200177 756100                    STQ     LOP_DESC+2,,AUTO
        27 000133   002211 701000 27                 TSX1    OVERFLOW_CHECKS_FROM_DESC
        27 000134   000000 011000                    NOP     0

      341    19506    4              END;

  19506 27 000135   000340 710000 27                 TRA     s:19765

      342    19507
      343    19508    3          CASE(%TYA, %TYE, %TYB);

      344    19509                 %FISH (TRIAD = LOP$ -> LX_ETT_ITEM.ETT$,
      345    19510                        RTN   = LOP_ST$);

  19512 27 000136   200165 470500                    LDP0    @LOP$,,AUTO
        27 000137   000000 471500                    LDP1    0,,PR0
        27 000140   100001 236100                    LDQ     1,,PR1
PL6.E3A0      #001=Z8E7$STMT_ASSIGNMENT File=Z8E7.:Z8A6TSI                       SAT 08/09/97 11:35 Page:116
        27 000141   200171 756100                    STQ     LOP_ST$,,AUTO

  19513 27 000142   200171 473500                    LDP3    LOP_ST$,,AUTO
        27 000143   300000 220100                    LDX0    0,,PR3
        27 000144   000751 100003                    CMPX0   489,DU
        27 000145   000155 603000 27                 TRC     s:19519

  19514 27 000146   200171 470500                    LDP0    LOP_ST$,,AUTO
        27 000147   000001 236100                    LDQ     1,,PR0
        27 000150   200171 756100                    STQ     LOP_ST$,,AUTO

  19515 27 000151   200171 470500                    LDP0    LOP_ST$,,AUTO
        27 000152   000000 220100                    LDX0    0,,PR0
        27 000153   000751 100003                    CMPX0   489,DU
        27 000154   000146 602000 27                 TNC     s:19514

      346    19518
      347    19519    3            IF LOP_ST$ -> VARIABLE.B.CLASS = %CLASS_NUMERIC_EDITED THEN

  19519 27 000155   200171 470500                    LDP0    LOP_ST$,,AUTO
        27 000156   000003 236100                    LDQ     3,,PR0
        27 000157   000007 376007                    ANQ     7,DL
        27 000160   000005 116007                    CMPQ    5,DL
        27 000161   000340 601000 27                 TNZ     s:19765

      348    19520    4              DO;

      349    19521                     %GET_LTS (@ID    = %NEL,
      350    19522                               @ST$   = LOP_ST$,
      351    19523                               @RETURN$ = NEL$$);

  19525 27 000162   000005 236100                    LDQ     5,,PR0
        27 000163   000001 116000 28                 CMPQ    1
        27 000164   000174 600000 27                 TZE     s:19559
        27 000165   000005 471500                    LDP1    5,,PR0
        27 000166   100000 220100                    LDX0    0,,PR1
        27 000167   001105 100003                    CMPX0   581,DU
PL6.E3A0      #001=Z8E7$STMT_ASSIGNMENT File=Z8E7.:Z8A6TSI                       SAT 08/09/97 11:35 Page:117
        27 000170   000174 601000 27                 TNZ     s:19559

  19531 27 000171   100002 236100                    LDQ     2,,PR1
        27 000172   200170 756100                    STQ     NEL$$,,AUTO

  19557 27 000173   000206 710000 27                 TRA     s:19589

  19559 27 000174   000001 116000 28                 CMPQ    1
        27 000175   000204 600000 27                 TZE     s:19563
        27 000176   000005 471500                    LDP1    5,,PR0
        27 000177   100000 220100                    LDX0    0,,PR1
        27 000200   001115 100003                    CMPX0   589,DU
        27 000201   000204 601000 27                 TNZ     s:19563

  19561 27 000202   200170 756100                    STQ     NEL$$,,AUTO
        27 000203   000206 710000 27                 TRA     s:19589

  19563 27 000204   000001 236000 28                 LDQ     1
        27 000205   200170 756100                    STQ     NEL$$,,AUTO

      352    19566
      353    19567                     %INIT_TYPE_DESC (@TYPE_DESC = TYPE_DESC,
      354    19568                                      @TYPE      = %TYD,
      355    19569                                      @DESC      = NEL$$ -> NEL.DESC);

  19589 27 000206   200170 471500                    LDP1    NEL$$,,AUTO
        27 000207   100001 236100                    LDQ     1,,PR1
        27 000210   200173 756100                    STQ     ROP_QLT$+1,,AUTO

  19591 27 000211   200172 450100                    STZ     TYPE_DESC,,AUTO

  19592 27 000212   000001 236000 28                 LDQ     1
        27 000213   200174 756100                    STQ     ETT$$+1,,AUTO

  19593 27 000214   200175 756100                    STQ     CODE+1,,AUTO

      356    19606
PL6.E3A0      #001=Z8E7$STMT_ASSIGNMENT File=Z8E7.:Z8A6TSI                       SAT 08/09/97 11:35 Page:118
      357    19607    4                CALL OVERFLOW_CHECKS_FROM_DESC (LOP$, ROP$, LABEL$, TYPE_DESC);

  19607 27 000215   200172 633500                    EPPR3   TYPE_DESC,,AUTO
        27 000216   200202 453500                    STP3    @UPPER+1,,AUTO
        27 000217   200166 237100                    LDAQ    @ROP$,,AUTO
        27 000220   200200 757100                    STAQ    @ROP$+1,,AUTO
        27 000221   200165 236100                    LDQ     @LOP$,,AUTO
        27 000222   200177 756100                    STQ     LOP_DESC+2,,AUTO
        27 000223   002211 701000 27                 TSX1    OVERFLOW_CHECKS_FROM_DESC
        27 000224   000000 011000                    NOP     0

      358    19608    4              END;

  19608 27 000225   000340 710000 27                 TRA     s:19765

      359    19609
      360    19610    3          CASE(%TYJ);

      361    19611                 %INIT_TYPE_DESC (@TYPE_DESC = TYPE_DESC,
      362    19612                                  @TYPE      = %TYI);

  19622 27 000226   200173 450100                    STZ     ROP_QLT$+1,,AUTO

  19623 27 000227   000004 236007                    LDQ     4,DL
        27 000230   200173 752101                    STCQ    ROP_QLT$+1,'01'O,AUTO

  19629 27 000231   000001 235007                    LDA     1,DL
        27 000232   200172 755100                    STA     TYPE_DESC,,AUTO

  19630 27 000233   000001 236000 28                 LDQ     1
        27 000234   200174 756100                    STQ     ETT$$+1,,AUTO

  19631 27 000235   200175 756100                    STQ     CODE+1,,AUTO

      363    19656
      364    19657    3            CALL OVERFLOW_CHECKS_FROM_DESC (LOP$, ROP$, LABEL$, TYPE_DESC);

PL6.E3A0      #001=Z8E7$STMT_ASSIGNMENT File=Z8E7.:Z8A6TSI                       SAT 08/09/97 11:35 Page:119
  19657 27 000236   200172 630500                    EPPR0   TYPE_DESC,,AUTO
        27 000237   200202 450500                    STP0    @UPPER+1,,AUTO
        27 000240   200166 237100                    LDAQ    @ROP$,,AUTO
        27 000241   200200 757100                    STAQ    @ROP$+1,,AUTO
        27 000242   200165 236100                    LDQ     @LOP$,,AUTO
        27 000243   200177 756100                    STQ     LOP_DESC+2,,AUTO
        27 000244   002211 701000 27                 TSX1    OVERFLOW_CHECKS_FROM_DESC
        27 000245   000000 011000                    NOP     0

      365    19658
      366    19659    3            CALL RANGE(ROP$, - 32768,  32767, LABEL$);

  19659 27 000246   200167 236100                    LDQ     @LABEL$,,AUTO
        27 000247   200202 756100                    STQ     @UPPER+1,,AUTO
        27 000250   000004 237000 28                 LDAQ    4
        27 000251   200200 757100                    STAQ    @ROP$+1,,AUTO
        27 000252   200166 236100                    LDQ     @ROP$,,AUTO
        27 000253   200177 756100                    STQ     LOP_DESC+2,,AUTO
        27 000254   007551 701000 27                 TSX1    RANGE
        27 000255   000000 011000                    NOP     0
        27 000256   000340 710000 27                 TRA     s:19765

      367    19660
      368    19661    3          CASE(%TYK);

      369    19662                 %INIT_TYPE_DESC (@TYPE_DESC = TYPE_DESC,
      370    19663                                  @TYPE      = %TYI);

  19673 27 000257   200173 450100                    STZ     ROP_QLT$+1,,AUTO

  19674 27 000260   000004 236007                    LDQ     4,DL
        27 000261   200173 752101                    STCQ    ROP_QLT$+1,'01'O,AUTO

  19680 27 000262   000001 235007                    LDA     1,DL
        27 000263   200172 755100                    STA     TYPE_DESC,,AUTO

  19681 27 000264   000001 236000 28                 LDQ     1
PL6.E3A0      #001=Z8E7$STMT_ASSIGNMENT File=Z8E7.:Z8A6TSI                       SAT 08/09/97 11:35 Page:120
        27 000265   200174 756100                    STQ     ETT$$+1,,AUTO

  19682 27 000266   200175 756100                    STQ     CODE+1,,AUTO

      371    19707
      372    19708    3            CALL OVERFLOW_CHECKS_FROM_DESC (LOP$, ROP$, LABEL$, TYPE_DESC);

  19708 27 000267   200172 630500                    EPPR0   TYPE_DESC,,AUTO
        27 000270   200202 450500                    STP0    @UPPER+1,,AUTO
        27 000271   200166 237100                    LDAQ    @ROP$,,AUTO
        27 000272   200200 757100                    STAQ    @ROP$+1,,AUTO
        27 000273   200165 236100                    LDQ     @LOP$,,AUTO
        27 000274   200177 756100                    STQ     LOP_DESC+2,,AUTO
        27 000275   002211 701000 27                 TSX1    OVERFLOW_CHECKS_FROM_DESC
        27 000276   000000 011000                    NOP     0

      373    19709
      374    19710    3            CALL RANGE(ROP$, -2147483648, 2147483647, LABEL$);

  19710 27 000277   200167 236100                    LDQ     @LABEL$,,AUTO
        27 000300   200202 756100                    STQ     @UPPER+1,,AUTO
        27 000301   000010 237000 28                 LDAQ    8
        27 000302   200200 757100                    STAQ    @ROP$+1,,AUTO
        27 000303   200166 236100                    LDQ     @ROP$,,AUTO
        27 000304   200177 756100                    STQ     LOP_DESC+2,,AUTO
        27 000305   007551 701000 27                 TSX1    RANGE
        27 000306   000000 011000                    NOP     0
        27 000307   000340 710000 27                 TRA     s:19765

      375    19711
      376    19712    3          CASE(%TYH);

      377    19713                 %INIT_TYPE_DESC (@TYPE_DESC = TYPE_DESC,
      378    19714                                  @TYPE      = %TYI);

  19724 27 000310   200173 450100                    STZ     ROP_QLT$+1,,AUTO

PL6.E3A0      #001=Z8E7$STMT_ASSIGNMENT File=Z8E7.:Z8A6TSI                       SAT 08/09/97 11:35 Page:121
  19725 27 000311   000004 236007                    LDQ     4,DL
        27 000312   200173 752101                    STCQ    ROP_QLT$+1,'01'O,AUTO

  19731 27 000313   000001 235007                    LDA     1,DL
        27 000314   200172 755100                    STA     TYPE_DESC,,AUTO

  19732 27 000315   000001 236000 28                 LDQ     1
        27 000316   200174 756100                    STQ     ETT$$+1,,AUTO

  19733 27 000317   200175 756100                    STQ     CODE+1,,AUTO

      379    19758
      380    19759    3            CALL OVERFLOW_CHECKS_FROM_DESC (LOP$, ROP$, LABEL$, TYPE_DESC);

  19759 27 000320   200172 630500                    EPPR0   TYPE_DESC,,AUTO
        27 000321   200202 450500                    STP0    @UPPER+1,,AUTO
        27 000322   200166 237100                    LDAQ    @ROP$,,AUTO
        27 000323   200200 757100                    STAQ    @ROP$+1,,AUTO
        27 000324   200165 236100                    LDQ     @LOP$,,AUTO
        27 000325   200177 756100                    STQ     LOP_DESC+2,,AUTO
        27 000326   002211 701000 27                 TSX1    OVERFLOW_CHECKS_FROM_DESC
        27 000327   000000 011000                    NOP     0

      381    19760
      382    19761    3            CALL RANGE(ROP$, -131072, 131071, LABEL$);

  19761 27 000330   200167 236100                    LDQ     @LABEL$,,AUTO
        27 000331   200202 756100                    STQ     @UPPER+1,,AUTO
        27 000332   000014 237000 28                 LDAQ    12
        27 000333   200200 757100                    STAQ    @ROP$+1,,AUTO
        27 000334   200166 236100                    LDQ     @ROP$,,AUTO
        27 000335   200177 756100                    STQ     LOP_DESC+2,,AUTO
        27 000336   007551 701000 27                 TSX1    RANGE
        27 000337   000000 011000                    NOP     0

      383    19762
      384    19763    3        END /*V* Case */;
PL6.E3A0      #001=Z8E7$STMT_ASSIGNMENT File=Z8E7.:Z8A6TSI                       SAT 08/09/97 11:35 Page:122

      385    19764
      386    19765    2   END ON_SIZE_PREPASS;

  19765 27 000340   200164 221300                    LDX1  ! LOWER_LX_ETT_ITEM+8,,AUTO
        27 000341   000001 702211                    TSX2  ! 1,X1

      387    19766        %EJECT;
PL6.E3A0      #001=Z8E7$STMT_ASSIGNMENT File=Z8E7.:Z8A6TSI                       SAT 08/09/97 11:35 Page:123
      388    19767        /*==========================*/
      389    19768    1     SIGN_AND_TRUNCATION_CHECKS: PROC (REC$, SEND$) ALTRET;

  19768 27 000342   200202 741300       SIGN_AND_TR* STX1  ! @UPPER+1,,AUTO
        27 000343   001356 710000 27                 TRA     s:20319

      390    19769        /*==========================*/
      391    19770
      392    19771    2        DCL REC$          PTR; /*V* To lx_ett for receiving item */
      393    19772    2        DCL SEND$         PTR; /*V* To lx_ett for sending item   */
      394    19773
      395    19774    2        DCL 1 REC_DESC    ALIGNED,
      396    19775                  %TYPE_DESC;
      397    19809    2        DCL 1 SEND_DESC   ALIGNED,
      398    19810                  %TYPE_DESC;
      399    19844
      400    19845    2        DCL REC_ST$       PTR;
      401    19846    2        DCL SEND_ST$      PTR;
      402    19847    2        DCL NEL$$         PTR;
      403    19848
      404    19849    2        DCL LINE          UBIN;
      405    19850    2        DCL COLUMN        UBIN;
      406    19851    2        DCL SEND_LEN      UBIN;
      407    19852    2        DCL REC_LEN       UBIN;
      408    19853    2        DCL SEND_SIGN     BIT (2) ALIGNED;
      409    19854    2        DCL REC_SIGN      BIT (2) ALIGNED;
      410    19855    2        DCL SEND_SF       SBIN;
      411    19856    2        DCL REC_SF        SBIN;
      412    19857    2        DCL SEND_LEFT     SBIN;
      413    19858    2        DCL REC_LEFT      SBIN;
      414    19859    2        DCL SEND_RIGHT    SBIN;
      415    19860    2        DCL REC_RIGHT     SBIN;
      416    19861
      417    19862
      418    19863
      419    19864             /*==========*/
      420    19865    2          NUM_CHECKS: PROC ;
PL6.E3A0      #001=Z8E7$STMT_ASSIGNMENT File=Z8E7.:Z8A6TSI                       SAT 08/09/97 11:35 Page:124

  19865 27 000344   200234 741300       NUM_CHECKS   STX1  ! REC_RIGHT+1,,AUTO

      421    19866             /*==========*/
      422    19867
      423    19868
      424    19869    3            IF REC_ST$ -> SCALAR.B.CLASS = %CLASS_NUMERIC_EDITED THEN

  19869 27 000345   200215 470500                    LDP0    REC_ST$,,AUTO
        27 000346   000003 236100                    LDQ     3,,PR0
        27 000347   000007 376007                    ANQ     7,DL
        27 000350   000005 116007                    CMPQ    5,DL
        27 000351   000374 601000 27                 TNZ     s:19877

      425    19870    4              DO;

      426    19871    4                IF SEND_ST$ -> SCALAR.B.CLASS = %CLASS_NUMERIC_EDITED THEN

  19871 27 000352   200216 471500                    LDP1    SEND_ST$,,AUTO
        27 000353   100003 236100                    LDQ     3,,PR1
        27 000354   000007 376007                    ANQ     7,DL
        27 000355   000005 116007                    CMPQ    5,DL
        27 000356   000365 601000 27                 TNZ     s:19874

      427    19872    4                  CALL FILL_DESC_FROM_NEL (SEND_ST$, SEND_DESC);

  19872 27 000357   200211 633500                    EPPR3   SEND_DESC,,AUTO
        27 000360   200240 453500                    STP3    @ST$$+1,,AUTO
        27 000361   200216 634500                    EPPR4   SEND_ST$,,AUTO
        27 000362   200237 454500                    STP4    CONST_DESC+1,,AUTO
        27 000363   000740 701000 27                 TSX1    FILL_DESC_FROM_NEL
        27 000364   000000 011000                    NOP     0

      428    19873
      429    19874    4                CALL FILL_DESC_FROM_NEL (REC_ST$, REC_DESC);

  19874 27 000365   200205 630500                    EPPR0   REC_DESC,,AUTO
PL6.E3A0      #001=Z8E7$STMT_ASSIGNMENT File=Z8E7.:Z8A6TSI                       SAT 08/09/97 11:35 Page:125
        27 000366   200240 450500                    STP0    @ST$$+1,,AUTO
        27 000367   200215 631500                    EPPR1   REC_ST$,,AUTO
        27 000370   200237 451500                    STP1    CONST_DESC+1,,AUTO
        27 000371   000740 701000 27                 TSX1    FILL_DESC_FROM_NEL
        27 000372   000000 011000                    NOP     0

      430    19875    4              END;

  19875 27 000373   000407 710000 27                 TRA     s:19891

      431    19876    3            ELSE
      432    19877    3              IF SEND_ST$ -> SCALAR.B.CLASS = %CLASS_NUMERIC_EDITED THEN

  19877 27 000374   200216 471500                    LDP1    SEND_ST$,,AUTO
        27 000375   100003 236100                    LDQ     3,,PR1
        27 000376   000007 376007                    ANQ     7,DL
        27 000377   000005 116007                    CMPQ    5,DL
        27 000400   000407 601000 27                 TNZ     s:19891

      433    19878    3                CALL FILL_DESC_FROM_NEL (SEND_ST$, SEND_DESC);

  19878 27 000401   200211 633500                    EPPR3   SEND_DESC,,AUTO
        27 000402   200240 453500                    STP3    @ST$$+1,,AUTO
        27 000403   200216 634500                    EPPR4   SEND_ST$,,AUTO
        27 000404   200237 454500                    STP4    CONST_DESC+1,,AUTO
        27 000405   000740 701000 27                 TSX1    FILL_DESC_FROM_NEL
        27 000406   000000 011000                    NOP     0

      434    19879
      435    19880                 %UNPACK_NDSC (@DESC   = REC_DESC.DESC,
      436    19881                               @TYPE   = REC_DESC.TYPE,
      437    19882                               @LENGTH = REC_LEN,
      438    19883                               @SIGN   = REC_SIGN,
      439    19884                               @SCALE  = REC_SF);

  19891 27 000407   200206 236100                    LDQ     @ID+1,,AUTO
        27 000410   000014 772000                    QRL     12
PL6.E3A0      #001=Z8E7$STMT_ASSIGNMENT File=Z8E7.:Z8A6TSI                       SAT 08/09/97 11:35 Page:126
        27 000411   000003 376007                    ANQ     3,DL
        27 000412   000004 116007                    CMPQ    4,DL
        27 000413   000415 602006 27                 TNC     s:19891+6,QL
        27 000414   000473 710000 27                 TRA     s:19931
        27 000415   000457 710000 27                 TRA     s:19915
        27 000416   000425 710000 27                 TRA     s:19905
        27 000417   000425 710000 27                 TRA     s:19905
        27 000420   000421 710000 27                 TRA     s:19893

  19893 27 000421   200206 236100                    LDQ     @ID+1,,AUTO
        27 000422   000077 376007                    ANQ     63,DL
        27 000423   200223 756100                    STQ     REC_LEN,,AUTO
        27 000424   000473 710000 27                 TRA     s:19931

  19905 27 000425   200205 235100                    LDA     REC_DESC,,AUTO
        27 000426   000003 115007                    CMPA    3,DL
        27 000427   000434 601000 27                 TNZ     s:19907

  19906 27 000430   200206 236100                    LDQ     @ID+1,,AUTO
        27 000431   000077 376007                    ANQ     63,DL
        27 000432   200223 756100                    STQ     REC_LEN,,AUTO
        27 000433   000473 710000 27                 TRA     s:19931

  19907 27 000434   000000 115003                    CMPA    0,DU
        27 000435   000443 601000 27                 TNZ     s:19909

  19908 27 000436   200206 236100                    LDQ     @ID+1,,AUTO
        27 000437   000077 376007                    ANQ     63,DL
        27 000440   000001 136007                    SBLQ    1,DL
        27 000441   200223 756100                    STQ     REC_LEN,,AUTO
        27 000442   000473 710000 27                 TRA     s:19931

  19909 27 000443   200206 236100                    LDQ     @ID+1,,AUTO
        27 000444   040000 316007                    CANQ    16384,DL
        27 000445   000452 600000 27                 TZE     s:19912

  19910 27 000446   200206 236100                    LDQ     @ID+1,,AUTO
PL6.E3A0      #001=Z8E7$STMT_ASSIGNMENT File=Z8E7.:Z8A6TSI                       SAT 08/09/97 11:35 Page:127
        27 000447   000077 376007                    ANQ     63,DL
        27 000450   200223 756100                    STQ     REC_LEN,,AUTO
        27 000451   000473 710000 27                 TRA     s:19931

  19912 27 000452   200206 236100                    LDQ     @ID+1,,AUTO
        27 000453   000077 376007                    ANQ     63,DL
        27 000454   000001 136007                    SBLQ    1,DL
        27 000455   200223 756100                    STQ     REC_LEN,,AUTO
        27 000456   000473 710000 27                 TRA     s:19931

  19915 27 000457   200206 236100                    LDQ     @ID+1,,AUTO
        27 000460   040000 316007                    CANQ    16384,DL
        27 000461   000467 600000 27                 TZE     s:19918

  19916 27 000462   200206 236100                    LDQ     @ID+1,,AUTO
        27 000463   000077 376007                    ANQ     63,DL
        27 000464   000003 136007                    SBLQ    3,DL
        27 000465   200223 756100                    STQ     REC_LEN,,AUTO
        27 000466   000473 710000 27                 TRA     s:19931

  19918 27 000467   200206 236100                    LDQ     @ID+1,,AUTO
        27 000470   000077 376007                    ANQ     63,DL
        27 000471   000002 136007                    SBLQ    2,DL
        27 000472   200223 756100                    STQ     REC_LEN,,AUTO

  19931 27 000473   200206 236100                    LDQ     @ID+1,,AUTO
        27 000474   000030 736000                    QLS     24
        27 000475   000036 732000                    QRS     30
        27 000476   200227 756100                    STQ     REC_SF,,AUTO

  19934 27 000477   200206 236100                    LDQ     @ID+1,,AUTO
        27 000500   000026 736000                    QLS     22
        27 000501   600000 376003                    ANQ     -65536,DU
        27 000502   200225 756100                    STQ     REC_SIGN,,AUTO

      440    19939
      441    19940                 %UNPACK_NDSC (@DESC   = SEND_DESC.DESC,
PL6.E3A0      #001=Z8E7$STMT_ASSIGNMENT File=Z8E7.:Z8A6TSI                       SAT 08/09/97 11:35 Page:128
      442    19941                               @TYPE   = SEND_DESC.TYPE,
      443    19942                               @LENGTH = SEND_LEN,
      444    19943                               @SIGN   = SEND_SIGN,
      445    19944                               @SCALE  = SEND_SF);

  19951 27 000503   200212 236100                    LDQ     ROP_ST$+1,,AUTO
        27 000504   000014 772000                    QRL     12
        27 000505   000003 376007                    ANQ     3,DL
        27 000506   000004 116007                    CMPQ    4,DL
        27 000507   000511 602006 27                 TNC     s:19951+6,QL
        27 000510   000567 710000 27                 TRA     s:19991
        27 000511   000553 710000 27                 TRA     s:19975
        27 000512   000521 710000 27                 TRA     s:19965
        27 000513   000521 710000 27                 TRA     s:19965
        27 000514   000515 710000 27                 TRA     s:19953

  19953 27 000515   200212 236100                    LDQ     ROP_ST$+1,,AUTO
        27 000516   000077 376007                    ANQ     63,DL
        27 000517   200222 756100                    STQ     SEND_LEN,,AUTO
        27 000520   000567 710000 27                 TRA     s:19991

  19965 27 000521   200211 235100                    LDA     SEND_DESC,,AUTO
        27 000522   000003 115007                    CMPA    3,DL
        27 000523   000530 601000 27                 TNZ     s:19967

  19966 27 000524   200212 236100                    LDQ     ROP_ST$+1,,AUTO
        27 000525   000077 376007                    ANQ     63,DL
        27 000526   200222 756100                    STQ     SEND_LEN,,AUTO
        27 000527   000567 710000 27                 TRA     s:19991

  19967 27 000530   000000 115003                    CMPA    0,DU
        27 000531   000537 601000 27                 TNZ     s:19969

  19968 27 000532   200212 236100                    LDQ     ROP_ST$+1,,AUTO
        27 000533   000077 376007                    ANQ     63,DL
        27 000534   000001 136007                    SBLQ    1,DL
        27 000535   200222 756100                    STQ     SEND_LEN,,AUTO
PL6.E3A0      #001=Z8E7$STMT_ASSIGNMENT File=Z8E7.:Z8A6TSI                       SAT 08/09/97 11:35 Page:129
        27 000536   000567 710000 27                 TRA     s:19991

  19969 27 000537   200212 236100                    LDQ     ROP_ST$+1,,AUTO
        27 000540   040000 316007                    CANQ    16384,DL
        27 000541   000546 600000 27                 TZE     s:19972

  19970 27 000542   200212 236100                    LDQ     ROP_ST$+1,,AUTO
        27 000543   000077 376007                    ANQ     63,DL
        27 000544   200222 756100                    STQ     SEND_LEN,,AUTO
        27 000545   000567 710000 27                 TRA     s:19991

  19972 27 000546   200212 236100                    LDQ     ROP_ST$+1,,AUTO
        27 000547   000077 376007                    ANQ     63,DL
        27 000550   000001 136007                    SBLQ    1,DL
        27 000551   200222 756100                    STQ     SEND_LEN,,AUTO
        27 000552   000567 710000 27                 TRA     s:19991

  19975 27 000553   200212 236100                    LDQ     ROP_ST$+1,,AUTO
        27 000554   040000 316007                    CANQ    16384,DL
        27 000555   000563 600000 27                 TZE     s:19978

  19976 27 000556   200212 236100                    LDQ     ROP_ST$+1,,AUTO
        27 000557   000077 376007                    ANQ     63,DL
        27 000560   000003 136007                    SBLQ    3,DL
        27 000561   200222 756100                    STQ     SEND_LEN,,AUTO
        27 000562   000567 710000 27                 TRA     s:19991

  19978 27 000563   200212 236100                    LDQ     ROP_ST$+1,,AUTO
        27 000564   000077 376007                    ANQ     63,DL
        27 000565   000002 136007                    SBLQ    2,DL
        27 000566   200222 756100                    STQ     SEND_LEN,,AUTO

  19991 27 000567   200212 236100                    LDQ     ROP_ST$+1,,AUTO
        27 000570   000030 736000                    QLS     24
        27 000571   000036 732000                    QRS     30
        27 000572   200226 756100                    STQ     SEND_SF,,AUTO

PL6.E3A0      #001=Z8E7$STMT_ASSIGNMENT File=Z8E7.:Z8A6TSI                       SAT 08/09/97 11:35 Page:130
  19994 27 000573   200212 236100                    LDQ     ROP_ST$+1,,AUTO
        27 000574   000026 736000                    QLS     22
        27 000575   600000 376003                    ANQ     -65536,DU
        27 000576   200224 756100                    STQ     SEND_SIGN,,AUTO

      446    19999
      447    20000    3            REC_LEFT  = REC_LEN + REC_SF;

  20000 27 000577   200223 236100                    LDQ     REC_LEN,,AUTO
        27 000600   200227 036100                    ADLQ    REC_SF,,AUTO
        27 000601   200231 756100                    STQ     REC_LEFT,,AUTO

      448    20001    3            SEND_LEFT = SEND_LEN + SEND_SF;

  20001 27 000602   200222 236100                    LDQ     SEND_LEN,,AUTO
        27 000603   200226 036100                    ADLQ    SEND_SF,,AUTO
        27 000604   200230 756100                    STQ     SEND_LEFT,,AUTO

      449    20002
      450    20003    3            REC_RIGHT  = - REC_SF;

  20003 27 000605   200227 335100                    LCA     REC_SF,,AUTO
        27 000606   200233 755100                    STA     REC_RIGHT,,AUTO

      451    20004    3            SEND_RIGHT = - SEND_SF;

  20004 27 000607   200226 335100                    LCA     SEND_SF,,AUTO
        27 000610   200232 755100                    STA     SEND_RIGHT,,AUTO

      452    20005
      453    20006    3            IF SEND_LEFT > REC_LEFT THEN

  20006 27 000611   200231 116100                    CMPQ    REC_LEFT,,AUTO
        27 000612   000625 604400 27                 TMOZ    s:20010

      454    20007    3              CALL Z8AE$ERROR (%E$POSSIBLE_LEFT_TRUNCATION,

PL6.E3A0      #001=Z8E7$STMT_ASSIGNMENT File=Z8E7.:Z8A6TSI                       SAT 08/09/97 11:35 Page:131
  20007 27 000613   200221 630500                    EPPR0   COLUMN,,AUTO
        27 000614   200432 450500                    STP0    I+4,,AUTO
        27 000615   200220 631500                    EPPR1   LINE,,AUTO
        27 000616   200431 451500                    STP1    I+3,,AUTO
        27 000617   000020 236000 28                 LDQ     16
        27 000620   200430 756100                    STQ     I+2,,AUTO
        27 000621   200430 630500                    EPPR0   I+2,,AUTO
        27 000622   000016 631400 28                 EPPR1   14
        27 000623   000000 701000 xent               TSX1    Z8AE$ERROR
        27 000624   000000 011000                    NOP     0

      455    20008    3                               LINE, COLUMN);
      456    20009
      457    20010    3            IF SEND_RIGHT > REC_RIGHT THEN

  20010 27 000625   200232 236100                    LDQ     SEND_RIGHT,,AUTO
        27 000626   200233 116100                    CMPQ    REC_RIGHT,,AUTO
        27 000627   000642 604400 27                 TMOZ    s:20014

      458    20011    3              CALL Z8AE$ERROR (%E$POSSIBLE_RIGHT_TRUNCATION,

  20011 27 000630   200221 630500                    EPPR0   COLUMN,,AUTO
        27 000631   200432 450500                    STP0    I+4,,AUTO
        27 000632   200220 631500                    EPPR1   LINE,,AUTO
        27 000633   200431 451500                    STP1    I+3,,AUTO
        27 000634   000022 236000 28                 LDQ     18
        27 000635   200430 756100                    STQ     I+2,,AUTO
        27 000636   200430 630500                    EPPR0   I+2,,AUTO
        27 000637   000016 631400 28                 EPPR1   14
        27 000640   000000 701000 xent               TSX1    Z8AE$ERROR
        27 000641   000000 011000                    NOP     0

      459    20012    3                               LINE, COLUMN);
      460    20013
      461    20014    3            IF REC_SIGN = %NO_SIGN THEN

  20014 27 000642   200225 236100                    LDQ     REC_SIGN,,AUTO
PL6.E3A0      #001=Z8E7$STMT_ASSIGNMENT File=Z8E7.:Z8A6TSI                       SAT 08/09/97 11:35 Page:132
        27 000643   600000 376003                    ANQ     -65536,DU
        27 000644   600000 116003                    CMPQ    -65536,DU
        27 000645   000736 601000 27                 TNZ     s:20031

      462    20015    4              DO CASE (SEND_DESC.TYPE);

  20015 27 000646   200211 235100                    LDA     SEND_DESC,,AUTO
        27 000647   000020 115007                    CMPA    16,DL
        27 000650   000652 602005 27                 TNC     s:20015+4,AL
        27 000651   000724 710000 27                 TRA     s:20027
        27 000652   000705 710000 27                 TRA     s:20022
        27 000653   000672 710000 27                 TRA     s:20018
        27 000654   000672 710000 27                 TRA     s:20018
        27 000655   000672 710000 27                 TRA     s:20018
        27 000656   000672 710000 27                 TRA     s:20018
        27 000657   000672 710000 27                 TRA     s:20018
        27 000660   000724 710000 27                 TRA     s:20027
        27 000661   000672 710000 27                 TRA     s:20018
        27 000662   000724 710000 27                 TRA     s:20027
        27 000663   000724 710000 27                 TRA     s:20027
        27 000664   000724 710000 27                 TRA     s:20027
        27 000665   000705 710000 27                 TRA     s:20022
        27 000666   000724 710000 27                 TRA     s:20027
        27 000667   000724 710000 27                 TRA     s:20027
        27 000670   000724 710000 27                 TRA     s:20027
        27 000671   000672 710000 27                 TRA     s:20018

      463    20016
      464    20017    4                CASE (%TYH, %TYI, %TYJ, %TYK, %TYO, %TYR, %TYQ);

      465    20018    4                  CALL Z8AE$ERROR (%E$SIGN_TRUNCATION,

  20018 27 000672   200221 630500                    EPPR0   COLUMN,,AUTO
        27 000673   200432 450500                    STP0    I+4,,AUTO
        27 000674   200220 631500                    EPPR1   LINE,,AUTO
        27 000675   200431 451500                    STP1    I+3,,AUTO
        27 000676   000024 236000 28                 LDQ     20
PL6.E3A0      #001=Z8E7$STMT_ASSIGNMENT File=Z8E7.:Z8A6TSI                       SAT 08/09/97 11:35 Page:133
        27 000677   200430 756100                    STQ     I+2,,AUTO
        27 000700   200430 630500                    EPPR0   I+2,,AUTO
        27 000701   000016 631400 28                 EPPR1   14
        27 000702   000000 701000 xent               TSX1    Z8AE$ERROR
        27 000703   000000 011000                    NOP     0
        27 000704   000736 710000 27                 TRA     s:20031

      466    20019    4                                   LINE, COLUMN);
      467    20020
      468    20021    4                CASE (%TYD, %TYF);

      469    20022    4                  IF SEND_SIGN ~= %NO_SIGN THEN

  20022 27 000705   200224 236100                    LDQ     SEND_SIGN,,AUTO
        27 000706   600000 376003                    ANQ     -65536,DU
        27 000707   600000 116003                    CMPQ    -65536,DU
        27 000710   000736 600000 27                 TZE     s:20031

      470    20023    4                    CALL Z8AE$ERROR (%E$SIGN_TRUNCATION,

  20023 27 000711   200221 630500                    EPPR0   COLUMN,,AUTO
        27 000712   200432 450500                    STP0    I+4,,AUTO
        27 000713   200220 631500                    EPPR1   LINE,,AUTO
        27 000714   200431 451500                    STP1    I+3,,AUTO
        27 000715   000024 236000 28                 LDQ     20
        27 000716   200430 756100                    STQ     I+2,,AUTO
        27 000717   200430 630500                    EPPR0   I+2,,AUTO
        27 000720   000016 631400 28                 EPPR1   14
        27 000721   000000 701000 xent               TSX1    Z8AE$ERROR
        27 000722   000000 011000                    NOP     0
        27 000723   000736 710000 27                 TRA     s:20031

      471    20024    4                                     LINE, COLUMN);
      472    20025
      473    20026    4                CASE (ELSE);

      474    20027    4                  CALL Z8AE$ERROR (%E$UNEXPECTED_CASE,
PL6.E3A0      #001=Z8E7$STMT_ASSIGNMENT File=Z8E7.:Z8A6TSI                       SAT 08/09/97 11:35 Page:134

  20027 27 000724   200221 630500                    EPPR0   COLUMN,,AUTO
        27 000725   200432 450500                    STP0    I+4,,AUTO
        27 000726   200220 631500                    EPPR1   LINE,,AUTO
        27 000727   200431 451500                    STP1    I+3,,AUTO
        27 000730   000026 236000 28                 LDQ     22
        27 000731   200430 756100                    STQ     I+2,,AUTO
        27 000732   200430 630500                    EPPR0   I+2,,AUTO
        27 000733   000016 631400 28                 EPPR1   14
        27 000734   000000 701000 xent               TSX1    Z8AE$ERROR
        27 000735   000000 011000                    NOP     0

      475    20028    4                                   LINE, COLUMN);
      476    20029
      477    20030    4              END; /*V* Case */

      478    20031    3        END NUM_CHECKS;

  20031 27 000736   200234 221300                    LDX1  ! REC_RIGHT+1,,AUTO
        27 000737   000001 702211                    TSX2  ! 1,X1

      479    20032             %EJECT;
PL6.E3A0      #001=Z8E7$STMT_ASSIGNMENT File=Z8E7.:Z8A6TSI                       SAT 08/09/97 11:35 Page:135
      480    20033        /*=======================*/
      481    20034    2          FILL_DESC_FROM_NEL: PROC (ST$$, TYPE_DESC);

  20034 27 000740   200236 741300       FILL_DESC_F* STX1  ! REC_RIGHT+3,,AUTO

      482    20035        /*=======================*/
      483    20036
      484    20037    3            DCL ST$$      PTR;
      485    20038    3            DCL 1 TYPE_DESC ALIGNED,
      486    20039                       %TYPE_DESC;
      487    20073    3            DCL NEL$$     PTR;
      488    20074
      489    20075
      490    20076                 %GET_LTS (@ID     = %NEL,
      491    20077                           @ST$    = ST$$,
      492    20078                           @RETURN$= NEL$$);

  20080 27 000741   200237 470500                    LDP0    @ST$$,,AUTO
        27 000742   000000 471500                    LDP1    0,,PR0
        27 000743   100005 236100                    LDQ     5,,PR1
        27 000744   000001 116000 28                 CMPQ    1
        27 000745   000755 600000 27                 TZE     s:20114
        27 000746   100005 473500                    LDP3    5,,PR1
        27 000747   300000 220100                    LDX0    0,,PR3
        27 000750   001105 100003                    CMPX0   581,DU
        27 000751   000755 601000 27                 TNZ     s:20114

  20086 27 000752   300002 236100                    LDQ     2,,PR3
        27 000753   200241 756100                    STQ     NEL$$,,AUTO

  20112 27 000754   000767 710000 27                 TRA     s:20122

  20114 27 000755   000001 116000 28                 CMPQ    1
        27 000756   000765 600000 27                 TZE     s:20118
        27 000757   100005 473500                    LDP3    5,,PR1
        27 000760   300000 220100                    LDX0    0,,PR3
        27 000761   001115 100003                    CMPX0   589,DU
PL6.E3A0      #001=Z8E7$STMT_ASSIGNMENT File=Z8E7.:Z8A6TSI                       SAT 08/09/97 11:35 Page:136
        27 000762   000765 601000 27                 TNZ     s:20118

  20116 27 000763   200241 756100                    STQ     NEL$$,,AUTO
        27 000764   000767 710000 27                 TRA     s:20122

  20118 27 000765   000001 236000 28                 LDQ     1
        27 000766   200241 756100                    STQ     NEL$$,,AUTO

      493    20121
      494    20122    3            TYPE_DESC.DESC = NEL$$ -> NEL.DESC;

  20122 27 000767   200241 473500                    LDP3    NEL$$,,AUTO
        27 000770   300001 236100                    LDQ     1,,PR3
        27 000771   200240 474500                    LDP4    @TYPE_DESC,,AUTO
        27 000772   400001 756100                    STQ     1,,PR4

      495    20123    3            TYPE_DESC.TYPE = %TYD;

  20123 27 000773   400000 450100                    STZ     0,,PR4

      496    20124    3            TYPE_DESC.SIZ$ = ADDR(NIL);

  20124 27 000774   000001 236000 28                 LDQ     1
        27 000775   400002 756100                    STQ     2,,PR4

      497    20125    3            TYPE_DESC.SSOP$= ADDR(NIL);

  20125 27 000776   400003 756100                    STQ     3,,PR4

      498    20126
      499    20127    3        END FILL_DESC_FROM_NEL;

  20127 27 000777   200236 221300                    LDX1  ! REC_RIGHT+3,,AUTO
        27 001000   000001 702211                    TSX2  ! 1,X1

      500    20128             %EJECT;
PL6.E3A0      #001=Z8E7$STMT_ASSIGNMENT File=Z8E7.:Z8A6TSI                       SAT 08/09/97 11:35 Page:137
      501    20129             /*=============*/
      502    20130    2          BINARY_CHECKS: PROC ALTRET;

  20130 27 001001   200234 741300       BINARY_CHEC* STX1  ! REC_RIGHT+1,,AUTO

      503    20131             /*=============*/
      504    20132
      505    20133    4             DO CASE (SEND_DESC.TYPE);

  20133 27 001002   200211 235100                    LDA     SEND_DESC,,AUTO
        27 001003   000020 115007                    CMPA    16,DL
        27 001004   001006 602005 27                 TNC     s:20133+4,AL
        27 001005   001276 710000 27                 TRA     s:20299
        27 001006   001046 710000 27                 TRA     s:20161
        27 001007   001026 710000 27                 TRA     s:20135
        27 001010   001032 710000 27                 TRA     s:20139
        27 001011   001046 710000 27                 TRA     s:20161
        27 001012   001275 710000 27                 TRA     s:20296
        27 001013   001275 710000 27                 TRA     s:20296
        27 001014   001136 710000 27                 TRA     s:20214
        27 001015   001042 710000 27                 TRA     s:20147
        27 001016   001136 710000 27                 TRA     s:20214
        27 001017   001276 710000 27                 TRA     s:20299
        27 001020   001276 710000 27                 TRA     s:20299
        27 001021   001046 710000 27                 TRA     s:20161
        27 001022   001136 710000 27                 TRA     s:20214
        27 001023   001276 710000 27                 TRA     s:20299
        27 001024   001276 710000 27                 TRA     s:20299
        27 001025   001036 710000 27                 TRA     s:20143

      506    20134    4               CASE (%TYI);

      507    20135    4                 SEND_LEN = %TYI_SIGNIFICANCE;

  20135 27 001026   000013 236007                    LDQ     11,DL
        27 001027   200222 756100                    STQ     SEND_LEN,,AUTO

PL6.E3A0      #001=Z8E7$STMT_ASSIGNMENT File=Z8E7.:Z8A6TSI                       SAT 08/09/97 11:35 Page:138
      508    20136    4                 SEND_SF  = 0;

  20136 27 001030   200226 450100                    STZ     SEND_SF,,AUTO
        27 001031   001314 710000 27                 TRA     s:20306

      509    20137
      510    20138    4               CASE (%TYJ);

      511    20139    4                 SEND_LEN = %TYJ_SIGNIFICANCE;

  20139 27 001032   000005 236007                    LDQ     5,DL
        27 001033   200222 756100                    STQ     SEND_LEN,,AUTO

      512    20140    4                 SEND_SF  = 0;

  20140 27 001034   200226 450100                    STZ     SEND_SF,,AUTO
        27 001035   001314 710000 27                 TRA     s:20306

      513    20141
      514    20142    4               CASE (%TYK);

      515    20143    4                 SEND_LEN = %TYK_SIGNIFICANCE;

  20143 27 001036   000012 236007                    LDQ     10,DL
        27 001037   200222 756100                    STQ     SEND_LEN,,AUTO

      516    20144    4                 SEND_SF  = 0;

  20144 27 001040   200226 450100                    STZ     SEND_SF,,AUTO
        27 001041   001314 710000 27                 TRA     s:20306

      517    20145
      518    20146    4               CASE (%TYH);

      519    20147    4                 SEND_LEN = %TYH_SIGNIFICANCE;

  20147 27 001042   000006 236007                    LDQ     6,DL
PL6.E3A0      #001=Z8E7$STMT_ASSIGNMENT File=Z8E7.:Z8A6TSI                       SAT 08/09/97 11:35 Page:139
        27 001043   200222 756100                    STQ     SEND_LEN,,AUTO

      520    20148    4                 SEND_SF  = 0;

  20148 27 001044   200226 450100                    STZ     SEND_SF,,AUTO
        27 001045   001314 710000 27                 TRA     s:20306

      521    20149
      522    20150    4               CASE (%TYD, %TYO, %TYF);

      523    20151                      %UNPACK_NDSC (@DESC   = SEND_DESC.DESC,
      524    20152                                    @TYPE   = SEND_DESC.TYPE,
      525    20153                                    @LENGTH = SEND_LEN,
      526    20154                                    @SCALE  = SEND_SF);

  20161 27 001046   200212 236100                    LDQ     ROP_ST$+1,,AUTO
        27 001047   000014 772000                    QRL     12
        27 001050   000003 376007                    ANQ     3,DL
        27 001051   000004 116007                    CMPQ    4,DL
        27 001052   001054 602006 27                 TNC     s:20161+6,QL
        27 001053   001131 710000 27                 TRA     s:20201
        27 001054   001115 710000 27                 TRA     s:20185
        27 001055   001064 710000 27                 TRA     s:20175
        27 001056   001064 710000 27                 TRA     s:20175
        27 001057   001060 710000 27                 TRA     s:20163

  20163 27 001060   200212 236100                    LDQ     ROP_ST$+1,,AUTO
        27 001061   000077 376007                    ANQ     63,DL
        27 001062   200222 756100                    STQ     SEND_LEN,,AUTO
        27 001063   001131 710000 27                 TRA     s:20201

  20175 27 001064   000003 115007                    CMPA    3,DL
        27 001065   001072 601000 27                 TNZ     s:20177

  20176 27 001066   200212 236100                    LDQ     ROP_ST$+1,,AUTO
        27 001067   000077 376007                    ANQ     63,DL
        27 001070   200222 756100                    STQ     SEND_LEN,,AUTO
PL6.E3A0      #001=Z8E7$STMT_ASSIGNMENT File=Z8E7.:Z8A6TSI                       SAT 08/09/97 11:35 Page:140
        27 001071   001131 710000 27                 TRA     s:20201

  20177 27 001072   000000 115003                    CMPA    0,DU
        27 001073   001101 601000 27                 TNZ     s:20179

  20178 27 001074   200212 236100                    LDQ     ROP_ST$+1,,AUTO
        27 001075   000077 376007                    ANQ     63,DL
        27 001076   000001 136007                    SBLQ    1,DL
        27 001077   200222 756100                    STQ     SEND_LEN,,AUTO
        27 001100   001131 710000 27                 TRA     s:20201

  20179 27 001101   200212 236100                    LDQ     ROP_ST$+1,,AUTO
        27 001102   040000 316007                    CANQ    16384,DL
        27 001103   001110 600000 27                 TZE     s:20182

  20180 27 001104   200212 236100                    LDQ     ROP_ST$+1,,AUTO
        27 001105   000077 376007                    ANQ     63,DL
        27 001106   200222 756100                    STQ     SEND_LEN,,AUTO
        27 001107   001131 710000 27                 TRA     s:20201

  20182 27 001110   200212 236100                    LDQ     ROP_ST$+1,,AUTO
        27 001111   000077 376007                    ANQ     63,DL
        27 001112   000001 136007                    SBLQ    1,DL
        27 001113   200222 756100                    STQ     SEND_LEN,,AUTO
        27 001114   001131 710000 27                 TRA     s:20201

  20185 27 001115   200212 236100                    LDQ     ROP_ST$+1,,AUTO
        27 001116   040000 316007                    CANQ    16384,DL
        27 001117   001125 600000 27                 TZE     s:20188

  20186 27 001120   200212 236100                    LDQ     ROP_ST$+1,,AUTO
        27 001121   000077 376007                    ANQ     63,DL
        27 001122   000003 136007                    SBLQ    3,DL
        27 001123   200222 756100                    STQ     SEND_LEN,,AUTO
        27 001124   001131 710000 27                 TRA     s:20201

  20188 27 001125   200212 236100                    LDQ     ROP_ST$+1,,AUTO
PL6.E3A0      #001=Z8E7$STMT_ASSIGNMENT File=Z8E7.:Z8A6TSI                       SAT 08/09/97 11:35 Page:141
        27 001126   000077 376007                    ANQ     63,DL
        27 001127   000002 136007                    SBLQ    2,DL
        27 001130   200222 756100                    STQ     SEND_LEN,,AUTO

  20201 27 001131   200212 236100                    LDQ     ROP_ST$+1,,AUTO
        27 001132   000030 736000                    QLS     24
        27 001133   000036 732000                    QRS     30
        27 001134   200226 756100                    STQ     SEND_SF,,AUTO

  20206 27 001135   001314 710000 27                 TRA     s:20306

      527    20209
      528    20210    4               CASE (%TYA, %TYE, %TYB);

      529    20211                      %FISH (TRIAD = SEND$ -> LX_ETT_ITEM.ETT$,
      530    20212                             RTN   = SEND_ST$);

  20214 27 001136   200204 470500                    LDP0    @SEND$,,AUTO
        27 001137   000000 471500                    LDP1    0,,PR0
        27 001140   100001 236100                    LDQ     1,,PR1
        27 001141   200216 756100                    STQ     SEND_ST$,,AUTO

  20215 27 001142   200216 471500                    LDP1    SEND_ST$,,AUTO
        27 001143   100000 220100                    LDX0    0,,PR1
        27 001144   000751 100003                    CMPX0   489,DU
        27 001145   001155 603000 27                 TRC     s:20221

  20216 27 001146   200216 470500                    LDP0    SEND_ST$,,AUTO
        27 001147   000001 236100                    LDQ     1,,PR0
        27 001150   200216 756100                    STQ     SEND_ST$,,AUTO

  20217 27 001151   200216 470500                    LDP0    SEND_ST$,,AUTO
        27 001152   000000 220100                    LDX0    0,,PR0
        27 001153   000751 100003                    CMPX0   489,DU
        27 001154   001146 602000 27                 TNC     s:20216

      531    20220
PL6.E3A0      #001=Z8E7$STMT_ASSIGNMENT File=Z8E7.:Z8A6TSI                       SAT 08/09/97 11:35 Page:142
      532    20221    4                 IF SEND_ST$ -> SCALAR.B.CLASS = %CLASS_NUMERIC_EDITED THEN

  20221 27 001155   200216 470500                    LDP0    SEND_ST$,,AUTO
        27 001156   000003 236100                    LDQ     3,,PR0
        27 001157   000007 376007                    ANQ     7,DL
        27 001160   000005 116007                    CMPQ    5,DL
        27 001161   001261 601000 27                 TNZ     s:20288

      533    20222    5                   DO;

      534    20223    5                     CALL FILL_DESC_FROM_NEL (SEND_ST$, SEND_DESC);

  20223 27 001162   200211 631500                    EPPR1   SEND_DESC,,AUTO
        27 001163   200240 451500                    STP1    @TYPE_DESC,,AUTO
        27 001164   200216 633500                    EPPR3   SEND_ST$,,AUTO
        27 001165   200237 453500                    STP3    @ST$$,,AUTO
        27 001166   000740 701000 27                 TSX1    FILL_DESC_FROM_NEL
        27 001167   000000 011000                    NOP     0

      535    20224
      536    20225                          %UNPACK_NDSC (@DESC   = SEND_DESC.DESC,
      537    20226                                        @TYPE   = SEND_DESC.TYPE,
      538    20227                                        @LENGTH = SEND_LEN,
      539    20228                                        @SCALE  = SEND_SF);

  20235 27 001170   200212 236100                    LDQ     ROP_ST$+1,,AUTO
        27 001171   000014 772000                    QRL     12
        27 001172   000003 376007                    ANQ     3,DL
        27 001173   000004 116007                    CMPQ    4,DL
        27 001174   001176 602006 27                 TNC     s:20235+6,QL
        27 001175   001254 710000 27                 TRA     s:20275
        27 001176   001240 710000 27                 TRA     s:20259
        27 001177   001206 710000 27                 TRA     s:20249
        27 001200   001206 710000 27                 TRA     s:20249
        27 001201   001202 710000 27                 TRA     s:20237

  20237 27 001202   200212 236100                    LDQ     ROP_ST$+1,,AUTO
PL6.E3A0      #001=Z8E7$STMT_ASSIGNMENT File=Z8E7.:Z8A6TSI                       SAT 08/09/97 11:35 Page:143
        27 001203   000077 376007                    ANQ     63,DL
        27 001204   200222 756100                    STQ     SEND_LEN,,AUTO
        27 001205   001254 710000 27                 TRA     s:20275

  20249 27 001206   200211 235100                    LDA     SEND_DESC,,AUTO
        27 001207   000003 115007                    CMPA    3,DL
        27 001210   001215 601000 27                 TNZ     s:20251

  20250 27 001211   200212 236100                    LDQ     ROP_ST$+1,,AUTO
        27 001212   000077 376007                    ANQ     63,DL
        27 001213   200222 756100                    STQ     SEND_LEN,,AUTO
        27 001214   001254 710000 27                 TRA     s:20275

  20251 27 001215   000000 115003                    CMPA    0,DU
        27 001216   001224 601000 27                 TNZ     s:20253

  20252 27 001217   200212 236100                    LDQ     ROP_ST$+1,,AUTO
        27 001220   000077 376007                    ANQ     63,DL
        27 001221   000001 136007                    SBLQ    1,DL
        27 001222   200222 756100                    STQ     SEND_LEN,,AUTO
        27 001223   001254 710000 27                 TRA     s:20275

  20253 27 001224   200212 236100                    LDQ     ROP_ST$+1,,AUTO
        27 001225   040000 316007                    CANQ    16384,DL
        27 001226   001233 600000 27                 TZE     s:20256

  20254 27 001227   200212 236100                    LDQ     ROP_ST$+1,,AUTO
        27 001230   000077 376007                    ANQ     63,DL
        27 001231   200222 756100                    STQ     SEND_LEN,,AUTO
        27 001232   001254 710000 27                 TRA     s:20275

  20256 27 001233   200212 236100                    LDQ     ROP_ST$+1,,AUTO
        27 001234   000077 376007                    ANQ     63,DL
        27 001235   000001 136007                    SBLQ    1,DL
        27 001236   200222 756100                    STQ     SEND_LEN,,AUTO
        27 001237   001254 710000 27                 TRA     s:20275

PL6.E3A0      #001=Z8E7$STMT_ASSIGNMENT File=Z8E7.:Z8A6TSI                       SAT 08/09/97 11:35 Page:144
  20259 27 001240   200212 236100                    LDQ     ROP_ST$+1,,AUTO
        27 001241   040000 316007                    CANQ    16384,DL
        27 001242   001250 600000 27                 TZE     s:20262

  20260 27 001243   200212 236100                    LDQ     ROP_ST$+1,,AUTO
        27 001244   000077 376007                    ANQ     63,DL
        27 001245   000003 136007                    SBLQ    3,DL
        27 001246   200222 756100                    STQ     SEND_LEN,,AUTO
        27 001247   001254 710000 27                 TRA     s:20275

  20262 27 001250   200212 236100                    LDQ     ROP_ST$+1,,AUTO
        27 001251   000077 376007                    ANQ     63,DL
        27 001252   000002 136007                    SBLQ    2,DL
        27 001253   200222 756100                    STQ     SEND_LEN,,AUTO

  20275 27 001254   200212 236100                    LDQ     ROP_ST$+1,,AUTO
        27 001255   000030 736000                    QLS     24
        27 001256   000036 732000                    QRS     30
        27 001257   200226 756100                    STQ     SEND_SF,,AUTO

      540    20283    5                   END;

  20283 27 001260   001314 710000 27                 TRA     s:20306

      541    20284    4                 ELSE
      542    20285                        %GET_TYPE_DESC_ADSC_LEN (@TYPE_DESC = SEND_DESC,
      543    20286                                                 @LENGTH    = SEND_LEN);

  20288 27 001261   200213 236100                    LDQ     DOLLAR$+1,,AUTO
        27 001262   000001 116000 28                 CMPQ    1
        27 001263   001270 601000 27                 TNZ     s:20291

  20289 27 001264   200212 236100                    LDQ     ROP_ST$+1,,AUTO
        27 001265   007777 376007                    ANQ     4095,DL
        27 001266   200222 756100                    STQ     SEND_LEN,,AUTO
        27 001267   001314 710000 27                 TRA     s:20306

PL6.E3A0      #001=Z8E7$STMT_ASSIGNMENT File=Z8E7.:Z8A6TSI                       SAT 08/09/97 11:35 Page:145
  20291 27 001270   200213 471500                    LDP1    DOLLAR$+1,,AUTO
        27 001271   100001 473500                    LDP3    1,,PR1
        27 001272   300010 235100                    LDA     8,,PR3
        27 001273   200222 755100                    STA     SEND_LEN,,AUTO

  20292 27 001274   001314 710000 27                 TRA     s:20306

      544    20294
      545    20295    4               CASE (%TYR, %TYQ);

      546    20296    4                 RETURN;

  20296 27 001275   000001 702211                    TSX2  ! 1,X1

      547    20297
      548    20298    4               CASE (ELSE);

      549    20299    4                 CALL Z8AE$ERROR (%E$INVALID_MOVE_OPERANDS,

  20299 27 001276   200204 470500                    LDP0    @SEND$,,AUTO
        27 001277   000000 471500                    LDP1    0,,PR0
        27 001300   100006 633500                    EPPR3   6,,PR1
        27 001301   200432 453500                    STP3    I+4,,AUTO
        27 001302   100005 634500                    EPPR4   5,,PR1
        27 001303   200431 454500                    STP4    I+3,,AUTO
        27 001304   000030 236000 28                 LDQ     24
        27 001305   200430 756100                    STQ     I+2,,AUTO
        27 001306   200430 630500                    EPPR0   I+2,,AUTO
        27 001307   000016 631400 28                 EPPR1   14
        27 001310   000000 701000 xent               TSX1    Z8AE$ERROR
        27 001311   000000 011000                    NOP     0

      550    20300    4                                  SEND$ -> LX_ETT_ITEM.LINE,
      551    20301    4                                  SEND$ -> LX_ETT_ITEM.COLUMN);
      552    20302    4                 ALTRETURN;

  20302 27 001312   200234 221300                    LDX1  ! REC_RIGHT+1,,AUTO
PL6.E3A0      #001=Z8E7$STMT_ASSIGNMENT File=Z8E7.:Z8A6TSI                       SAT 08/09/97 11:35 Page:146
        27 001313   000000 702211                    TSX2  ! 0,X1

      553    20303
      554    20304    4             END; /*V* Case */

      555    20305
      556    20306    3             SEND_LEFT = SEND_LEN + SEND_SF;

  20306 27 001314   200222 236100                    LDQ     SEND_LEN,,AUTO
        27 001315   200226 036100                    ADLQ    SEND_SF,,AUTO
        27 001316   200230 756100                    STQ     SEND_LEFT,,AUTO

      557    20307    3             SEND_RIGHT = - SEND_SF;

  20307 27 001317   200226 335100                    LCA     SEND_SF,,AUTO
        27 001320   200232 755100                    STA     SEND_RIGHT,,AUTO

      558    20308
      559    20309    3             IF SEND_LEFT > REC_LEN THEN

  20309 27 001321   000000 116003                    CMPQ    0,DU
        27 001322   001340 604000 27                 TMI     s:20313
        27 001323   200223 116100                    CMPQ    REC_LEN,,AUTO
        27 001324   001340 602000 27                 TNC     s:20313
        27 001325   001340 600000 27                 TZE     s:20313

      560    20310    3               CALL Z8AE$ERROR (%E$POSSIBLE_LEFT_TRUNCATION,

  20310 27 001326   200221 630500                    EPPR0   COLUMN,,AUTO
        27 001327   200432 450500                    STP0    I+4,,AUTO
        27 001330   200220 631500                    EPPR1   LINE,,AUTO
        27 001331   200431 451500                    STP1    I+3,,AUTO
        27 001332   000020 236000 28                 LDQ     16
        27 001333   200430 756100                    STQ     I+2,,AUTO
        27 001334   200430 630500                    EPPR0   I+2,,AUTO
        27 001335   000016 631400 28                 EPPR1   14
        27 001336   000000 701000 xent               TSX1    Z8AE$ERROR
PL6.E3A0      #001=Z8E7$STMT_ASSIGNMENT File=Z8E7.:Z8A6TSI                       SAT 08/09/97 11:35 Page:147
        27 001337   000000 011000                    NOP     0

      561    20311    3                                LINE, COLUMN);
      562    20312
      563    20313    3             IF SEND_RIGHT > 0 THEN

  20313 27 001340   200232 235100                    LDA     SEND_RIGHT,,AUTO
        27 001341   001354 604400 27                 TMOZ    s:20317

      564    20314    3               CALL Z8AE$ERROR (%E$POSSIBLE_RIGHT_TRUNCATION,

  20314 27 001342   200221 630500                    EPPR0   COLUMN,,AUTO
        27 001343   200432 450500                    STP0    I+4,,AUTO
        27 001344   200220 631500                    EPPR1   LINE,,AUTO
        27 001345   200431 451500                    STP1    I+3,,AUTO
        27 001346   000022 236000 28                 LDQ     18
        27 001347   200430 756100                    STQ     I+2,,AUTO
        27 001350   200430 630500                    EPPR0   I+2,,AUTO
        27 001351   000016 631400 28                 EPPR1   14
        27 001352   000000 701000 xent               TSX1    Z8AE$ERROR
        27 001353   000000 011000                    NOP     0

      565    20315    3                                LINE, COLUMN);
      566    20316
      567    20317    3        END BINARY_CHECKS;

  20317 27 001354   200234 221300                    LDX1  ! REC_RIGHT+1,,AUTO
        27 001355   000001 702211                    TSX2  ! 1,X1

      568    20318             %EJECT;
PL6.E3A0      #001=Z8E7$STMT_ASSIGNMENT File=Z8E7.:Z8A6TSI                       SAT 08/09/97 11:35 Page:148
      569    20319    2        IF SEND$ -> LX_ETT_ITEM.B.ERROR

  20319 27 001356   200204 470500                    LDP0    @SEND$,,AUTO
        27 001357   000000 471500                    LDP1    0,,PR0
        27 001360   100000 236100                    LDQ     0,,PR1
        27 001361   400000 316007                    CANQ    -131072,DL
        27 001362   001370 601000 27                 TNZ     s:20321
        27 001363   200203 473500                    LDP3    @REC$,,AUTO
        27 001364   300000 474500                    LDP4    0,,PR3
        27 001365   400000 236100                    LDQ     0,,PR4
        27 001366   400000 316007                    CANQ    -131072,DL
        27 001367   001371 600000 27                 TZE     s:20323

      570    20320    2        OR  REC$ -> LX_ETT_ITEM.B.ERROR THEN
      571    20321    2          RETURN;

  20321 27 001370   000001 702211                    TSX2  ! 1,X1

      572    20322
      573    20323    2        LINE   = REC$ -> LX_ETT_ITEM.LINE;

  20323 27 001371   400005 235100                    LDA     5,,PR4
        27 001372   200220 755100                    STA     LINE,,AUTO

      574    20324    2        COLUMN = REC$ -> LX_ETT_ITEM.COLUMN;

  20324 27 001373   300000 471500                    LDP1    0,,PR3
        27 001374   100006 235100                    LDA     6,,PR1
        27 001375   200221 755100                    STA     COLUMN,,AUTO

      575    20325
      576    20326             %FISH (TRIAD = SEND$ -> LX_ETT_ITEM.ETT$,
      577    20327                    RTN   = SEND_ST$);

  20329 27 001376   000000 471500                    LDP1    0,,PR0
        27 001377   100001 236100                    LDQ     1,,PR1
        27 001400   200216 756100                    STQ     SEND_ST$,,AUTO
PL6.E3A0      #001=Z8E7$STMT_ASSIGNMENT File=Z8E7.:Z8A6TSI                       SAT 08/09/97 11:35 Page:149

  20330 27 001401   200216 471500                    LDP1    SEND_ST$,,AUTO
        27 001402   100000 220100                    LDX0    0,,PR1
        27 001403   000751 100003                    CMPX0   489,DU
        27 001404   001414 603000 27                 TRC     s:20335

  20331 27 001405   200216 470500                    LDP0    SEND_ST$,,AUTO
        27 001406   000001 236100                    LDQ     1,,PR0
        27 001407   200216 756100                    STQ     SEND_ST$,,AUTO

  20332 27 001410   200216 470500                    LDP0    SEND_ST$,,AUTO
        27 001411   000000 220100                    LDX0    0,,PR0
        27 001412   000751 100003                    CMPX0   489,DU
        27 001413   001405 602000 27                 TNC     s:20331

      578    20335    2        IF SEND_ST$ -> ST.ID ~= %CONST AND

  20335 27 001414   200216 470500                    LDP0    SEND_ST$,,AUTO
        27 001415   000000 220100                    LDX0    0,,PR0
        27 001416   000767 100003                    CMPX0   503,DU
        27 001417   001425 600000 27                 TZE     s:20342
        27 001420   000003 236100                    LDQ     3,,PR0
        27 001421   010000 316003                    CANQ    4096,DU
        27 001422   001425 601000 27                 TNZ     s:20342

      579    20336    2            NOT SEND_ST$ -> SCALAR.B.ELEMENTARY THEN
      580    20337    2          RETURN; /* Not an elementary MOVE */

  20337 27 001423   200202 221300                    LDX1  ! @UPPER+1,,AUTO
        27 001424   000001 702211                    TSX2  ! 1,X1

      581    20338
      582    20339             %FISH (TRIAD = REC$ -> LX_ETT_ITEM.ETT$,
      583    20340                    RTN   = REC_ST$);

  20342 27 001425   200203 471500                    LDP1    @REC$,,AUTO
        27 001426   100000 473500                    LDP3    0,,PR1
PL6.E3A0      #001=Z8E7$STMT_ASSIGNMENT File=Z8E7.:Z8A6TSI                       SAT 08/09/97 11:35 Page:150
        27 001427   300001 236100                    LDQ     1,,PR3
        27 001430   200215 756100                    STQ     REC_ST$,,AUTO

  20343 27 001431   200215 473500                    LDP3    REC_ST$,,AUTO
        27 001432   300000 220100                    LDX0    0,,PR3
        27 001433   000751 100003                    CMPX0   489,DU
        27 001434   001444 603000 27                 TRC     s:20348

  20344 27 001435   200215 470500                    LDP0    REC_ST$,,AUTO
        27 001436   000001 236100                    LDQ     1,,PR0
        27 001437   200215 756100                    STQ     REC_ST$,,AUTO

  20345 27 001440   200215 470500                    LDP0    REC_ST$,,AUTO
        27 001441   000000 220100                    LDX0    0,,PR0
        27 001442   000751 100003                    CMPX0   489,DU
        27 001443   001435 602000 27                 TNC     s:20344

      584    20348    2        IF NOT REC_ST$ -> SCALAR.B.ELEMENTARY THEN

  20348 27 001444   200215 470500                    LDP0    REC_ST$,,AUTO
        27 001445   000003 236100                    LDQ     3,,PR0
        27 001446   010000 316003                    CANQ    4096,DU
        27 001447   001452 601000 27                 TNZ     s:20351

      585    20349    2          RETURN; /* Not an elementary MOVE */

  20349 27 001450   200202 221300                    LDX1  ! @UPPER+1,,AUTO
        27 001451   000001 702211                    TSX2  ! 1,X1

      586    20350
      587    20351    2        CALL Z8AU$TYPE_DESCRIPTOR (SEND$ -> LX_ETT_ITEM.ETT$, SEND_DESC);

  20351 27 001452   200204 471500                    LDP1    @SEND$,,AUTO
        27 001453   100000 473500                    LDP3    0,,PR1
        27 001454   200211 634500                    EPPR4   SEND_DESC,,AUTO
        27 001455   200431 454500                    STP4    I+3,,AUTO
        27 001456   300001 635500                    EPPR5   1,,PR3
PL6.E3A0      #001=Z8E7$STMT_ASSIGNMENT File=Z8E7.:Z8A6TSI                       SAT 08/09/97 11:35 Page:151
        27 001457   200430 455500                    STP5    I+2,,AUTO
        27 001460   200430 630500                    EPPR0   I+2,,AUTO
        27 001461   000000 631400 28                 EPPR1   0
        27 001462   000000 701000 xent               TSX1    Z8AU$TYPE_DESCRIPTOR
        27 001463   000000 011000                    NOP     0

      588    20352    2        CALL Z8AU$TYPE_DESCRIPTOR (REC$ -> LX_ETT_ITEM.ETT$, REC_DESC);

  20352 27 001464   200203 470500                    LDP0    @REC$,,AUTO
        27 001465   000000 471500                    LDP1    0,,PR0
        27 001466   200205 633500                    EPPR3   REC_DESC,,AUTO
        27 001467   200431 453500                    STP3    I+3,,AUTO
        27 001470   100001 634500                    EPPR4   1,,PR1
        27 001471   200430 454500                    STP4    I+2,,AUTO
        27 001472   200430 630500                    EPPR0   I+2,,AUTO
        27 001473   000000 631400 28                 EPPR1   0
        27 001474   000000 701000 xent               TSX1    Z8AU$TYPE_DESCRIPTOR
        27 001475   000000 011000                    NOP     0

      589    20353
      590    20354    3        DO CASE (REC_DESC.TYPE);

  20354 27 001476   200205 235100                    LDA     REC_DESC,,AUTO
        27 001477   000020 115007                    CMPA    16,DL
        27 001500   001502 602005 27                 TNC     s:20354+4,AL
        27 001501   001643 710000 27                 TRA     s:20488
        27 001502   001631 710000 27                 TRA     s:20475
        27 001503   001634 710000 27                 TRA     s:20478
        27 001504   001634 710000 27                 TRA     s:20478
        27 001505   001631 710000 27                 TRA     s:20475
        27 001506   001643 710000 27                 TRA     s:20488
        27 001507   001643 710000 27                 TRA     s:20488
        27 001510   001522 710000 27                 TRA     s:20357
        27 001511   001634 710000 27                 TRA     s:20478
        27 001512   001522 710000 27                 TRA     s:20357
        27 001513   001643 710000 27                 TRA     s:20488
        27 001514   001643 710000 27                 TRA     s:20488
PL6.E3A0      #001=Z8E7$STMT_ASSIGNMENT File=Z8E7.:Z8A6TSI                       SAT 08/09/97 11:35 Page:152
        27 001515   001631 710000 27                 TRA     s:20475
        27 001516   001522 710000 27                 TRA     s:20357
        27 001517   001643 710000 27                 TRA     s:20488
        27 001520   001643 710000 27                 TRA     s:20488
        27 001521   001634 710000 27                 TRA     s:20478

      591    20355
      592    20356    3          CASE (%TYA, %TYE, %TYB);

      593    20357    3            IF REC_ST$ -> SCALAR.B.CLASS = %CLASS_NUMERIC_EDITED THEN

  20357 27 001522   200215 470500                    LDP0    REC_ST$,,AUTO
        27 001523   000003 236100                    LDQ     3,,PR0
        27 001524   000007 376007                    ANQ     7,DL
        27 001525   000005 116007                    CMPQ    5,DL
        27 001526   001533 601000 27                 TNZ     s:20363

      594    20358    4              DO;

      595    20359    4                CALL NUM_CHECKS;

  20359 27 001527   000344 701000 27                 TSX1    NUM_CHECKS
        27 001530   000000 011000                    NOP     0

      596    20360    4                RETURN;

  20360 27 001531   200202 221300                    LDX1  ! @UPPER+1,,AUTO
        27 001532   000001 702211                    TSX2  ! 1,X1

      597    20361    4              END;
      598    20362
      599    20363    3            IF REC_ST$ -> SCALAR.B.CLASS = %CLASS_ALPHANUMERIC_EDITED THEN

  20363 27 001533   000007 116007                    CMPQ    7,DL
        27 001534   001565 601000 27                 TNZ     s:20414

      600    20364    4              DO;
PL6.E3A0      #001=Z8E7$STMT_ASSIGNMENT File=Z8E7.:Z8A6TSI                       SAT 08/09/97 11:35 Page:153

      601    20365                     %GET_LTS (@ID      = %NEL,
      602    20366                               @ST$     = REC_ST$,
      603    20367                               @RETURN$ = NEL$$);

  20369 27 001535   000005 236100                    LDQ     5,,PR0
        27 001536   000001 116000 28                 CMPQ    1
        27 001537   001547 600000 27                 TZE     s:20403
        27 001540   000005 471500                    LDP1    5,,PR0
        27 001541   100000 220100                    LDX0    0,,PR1
        27 001542   001105 100003                    CMPX0   581,DU
        27 001543   001547 601000 27                 TNZ     s:20403

  20375 27 001544   100002 236100                    LDQ     2,,PR1
        27 001545   200217 756100                    STQ     NEL$$,,AUTO

  20401 27 001546   001561 710000 27                 TRA     s:20411

  20403 27 001547   000001 116000 28                 CMPQ    1
        27 001550   001557 600000 27                 TZE     s:20407
        27 001551   000005 471500                    LDP1    5,,PR0
        27 001552   100000 220100                    LDX0    0,,PR1
        27 001553   001115 100003                    CMPX0   589,DU
        27 001554   001557 601000 27                 TNZ     s:20407

  20405 27 001555   200217 756100                    STQ     NEL$$,,AUTO
        27 001556   001561 710000 27                 TRA     s:20411

  20407 27 001557   000001 236000 28                 LDQ     1
        27 001560   200217 756100                    STQ     NEL$$,,AUTO

      604    20410
      605    20411    4                REC_LEN = BITBIN(NEL$$ -> NEL.DESC);

  20411 27 001561   200217 471500                    LDP1    NEL$$,,AUTO
        27 001562   100001 235100                    LDA     1,,PR1
        27 001563   200223 755100                    STA     REC_LEN,,AUTO
PL6.E3A0      #001=Z8E7$STMT_ASSIGNMENT File=Z8E7.:Z8A6TSI                       SAT 08/09/97 11:35 Page:154

      606    20412    4              END;

  20412 27 001564   001600 710000 27                 TRA     s:20442

      607    20413    3            ELSE
      608    20414    3              IF REC_DESC.SIZ$ = ADDR(NIL) THEN

  20414 27 001565   200207 236100                    LDQ     CONST_BUF+1,,AUTO
        27 001566   000001 116000 28                 CMPQ    1
        27 001567   001574 601000 27                 TNZ     s:20440

      609    20415                     %UNPACK_ADSC (@DESC   = REC_DESC.DESC,
      610    20416                                   @LENGTH = REC_LEN);

  20426 27 001570   200206 236100                    LDQ     @ID+1,,AUTO
        27 001571   007777 376007                    ANQ     4095,DL
        27 001572   200223 756100                    STQ     REC_LEN,,AUTO

  20436 27 001573   001600 710000 27                 TRA     s:20442

      611    20439    3              ELSE
      612    20440    3                REC_LEN = REC_DESC.SIZ$ -> ETT.LOP -> CONST.CONSTI.WORD1;

  20440 27 001574   200207 471500                    LDP1    CONST_BUF+1,,AUTO
        27 001575   100001 473500                    LDP3    1,,PR1
        27 001576   300010 235100                    LDA     8,,PR3
        27 001577   200223 755100                    STA     REC_LEN,,AUTO

      613    20441
      614    20442    3            IF SEND_DESC.SIZ$ = ADDR(NIL) THEN

  20442 27 001600   200213 236100                    LDQ     DOLLAR$+1,,AUTO
        27 001601   000001 116000 28                 CMPQ    1
        27 001602   001607 601000 27                 TNZ     s:20468

      615    20443                   %UNPACK_ADSC (@DESC   = SEND_DESC.DESC,
PL6.E3A0      #001=Z8E7$STMT_ASSIGNMENT File=Z8E7.:Z8A6TSI                       SAT 08/09/97 11:35 Page:155
      616    20444                                 @LENGTH = SEND_LEN);

  20454 27 001603   200212 236100                    LDQ     ROP_ST$+1,,AUTO
        27 001604   007777 376007                    ANQ     4095,DL
        27 001605   200222 756100                    STQ     SEND_LEN,,AUTO

  20464 27 001606   001613 710000 27                 TRA     s:20470

      617    20467    3            ELSE
      618    20468    3              SEND_LEN = SEND_DESC.SIZ$ -> ETT.LOP -> CONST.CONSTI.WORD1;

  20468 27 001607   200213 471500                    LDP1    DOLLAR$+1,,AUTO
        27 001610   100001 473500                    LDP3    1,,PR1
        27 001611   300010 235100                    LDA     8,,PR3
        27 001612   200222 755100                    STA     SEND_LEN,,AUTO

      619    20469
      620    20470    3            IF SEND_LEN > REC_LEN THEN

  20470 27 001613   200223 236100                    LDQ     REC_LEN,,AUTO
        27 001614   200222 116100                    CMPQ    SEND_LEN,,AUTO
        27 001615   001643 603000 27                 TRC     s:20488

      621    20471    3              CALL Z8AE$ERROR (%E$POSSIBLE_TRUNCATION,

  20471 27 001616   200221 631500                    EPPR1   COLUMN,,AUTO
        27 001617   200432 451500                    STP1    I+4,,AUTO
        27 001620   200220 633500                    EPPR3   LINE,,AUTO
        27 001621   200431 453500                    STP3    I+3,,AUTO
        27 001622   000032 236000 28                 LDQ     26
        27 001623   200430 756100                    STQ     I+2,,AUTO
        27 001624   200430 630500                    EPPR0   I+2,,AUTO
        27 001625   000016 631400 28                 EPPR1   14
        27 001626   000000 701000 xent               TSX1    Z8AE$ERROR
        27 001627   000000 011000                    NOP     0
        27 001630   001643 710000 27                 TRA     s:20488

PL6.E3A0      #001=Z8E7$STMT_ASSIGNMENT File=Z8E7.:Z8A6TSI                       SAT 08/09/97 11:35 Page:156
      622    20472    3                               LINE, COLUMN);
      623    20473
      624    20474    3          CASE (%TYD, %TYO, %TYF);

      625    20475    3            CALL NUM_CHECKS;

  20475 27 001631   000344 701000 27                 TSX1    NUM_CHECKS
        27 001632   000000 011000                    NOP     0
        27 001633   001643 710000 27                 TRA     s:20488

      626    20476
      627    20477    3          CASE (%TYH, %TYI, %TYJ, %TYK);

      628    20478    3            IF SEND_ST$ -> ST.ID ~= %CONST THEN

  20478 27 001634   200216 470500                    LDP0    SEND_ST$,,AUTO
        27 001635   000000 220100                    LDX0    0,,PR0
        27 001636   000767 100003                    CMPX0   503,DU
        27 001637   001642 600000 27                 TZE     s:20481

      629    20479    3              RETURN;

  20479 27 001640   200202 221300                    LDX1  ! @UPPER+1,,AUTO
        27 001641   000001 702211                    TSX2  ! 1,X1

      630    20480
      631    20481    3            GOTO BINARY_SIGN_CHECKS;

  20481 27 001642   001646 710000 27                 TRA     BINARY_SIGN_CHECKS

      632    20482
      633    20483    3          CASE (ELSE);

      634    20484                 /*V* No checks, OK */
      635    20485
      636    20486    3        END; /*V* Case */

PL6.E3A0      #001=Z8E7$STMT_ASSIGNMENT File=Z8E7.:Z8A6TSI                       SAT 08/09/97 11:35 Page:157
      637    20487
      638    20488    2        RETURN;

  20488 27 001643   200202 221300                    LDX1  ! @UPPER+1,,AUTO
        27 001644   000001 702211                    TSX2  ! 1,X1

      639    20489
      640    20490             %EJECT;
PL6.E3A0      #001=Z8E7$STMT_ASSIGNMENT File=Z8E7.:Z8A6TSI                       SAT 08/09/97 11:35 Page:158
      641    20491        /*=====================*/
      642    20492    2     BINARY_SIGN_AND_TRUNC: ENTRY (REC$, SEND$) ALTRET;

  20492 27 001645   200202 741300       BINARY_SIGN* STX1  ! @UPPER+1,,AUTO

      643    20493        /*=====================*/
      644    20494
      645    20495
      646    20496    2   BINARY_SIGN_CHECKS:
      647    20497
      648    20498    2        IF SEND$ -> LX_ITEM.ID = %LX_TERMINAL

  20498 27 001646   200204 470500       BINARY_SIGN* LDP0    @SEND$,,AUTO
        27 001647   000000 471500                    LDP1    0,,PR0
        27 001650   100000 220100                    LDX0    0,,PR1
        27 001651   001664 600000 27                 TZE     s:20502
        27 001652   200203 473500                    LDP3    @REC$,,AUTO
        27 001653   300000 474500                    LDP4    0,,PR3
        27 001654   400000 221100                    LDX1    0,,PR4
        27 001655   001664 600000 27                 TZE     s:20502
        27 001656   100000 236100                    LDQ     0,,PR1
        27 001657   400000 316007                    CANQ    -131072,DL
        27 001660   001664 601000 27                 TNZ     s:20502
        27 001661   400000 236100                    LDQ     0,,PR4
        27 001662   400000 316007                    CANQ    -131072,DL
        27 001663   001666 600000 27                 TZE     s:20504

      649    20499    2        OR REC$  -> LX_ITEM.ID = %LX_TERMINAL
      650    20500    2        OR SEND$ -> LX_ITEM.B.ERROR
      651    20501    2        OR REC$  -> LX_ITEM.B.ERROR  THEN
      652    20502    2          RETURN;

  20502 27 001664   200202 221300                    LDX1  ! @UPPER+1,,AUTO
        27 001665   000001 702211                    TSX2  ! 1,X1

      653    20503
      654    20504    2        LINE   = REC$ -> LX_ETT_ITEM.LINE;
PL6.E3A0      #001=Z8E7$STMT_ASSIGNMENT File=Z8E7.:Z8A6TSI                       SAT 08/09/97 11:35 Page:159

  20504 27 001666   400005 235100                    LDA     5,,PR4
        27 001667   200220 755100                    STA     LINE,,AUTO

      655    20505    2        COLUMN = REC$ -> LX_ETT_ITEM.COLUMN;

  20505 27 001670   300000 471500                    LDP1    0,,PR3
        27 001671   100006 235100                    LDA     6,,PR1
        27 001672   200221 755100                    STA     COLUMN,,AUTO

      656    20506
      657    20507    2        CALL Z8AU$TYPE_DESCRIPTOR (SEND$ -> LX_ETT_ITEM.ETT$, SEND_DESC);

  20507 27 001673   000000 471500                    LDP1    0,,PR0
        27 001674   200211 634500                    EPPR4   SEND_DESC,,AUTO
        27 001675   200431 454500                    STP4    I+3,,AUTO
        27 001676   100001 635500                    EPPR5   1,,PR1
        27 001677   200430 455500                    STP5    I+2,,AUTO
        27 001700   200430 630500                    EPPR0   I+2,,AUTO
        27 001701   000000 631400 28                 EPPR1   0
        27 001702   000000 701000 xent               TSX1    Z8AU$TYPE_DESCRIPTOR
        27 001703   000000 011000                    NOP     0

      658    20508    2        CALL Z8AU$TYPE_DESCRIPTOR (REC$ -> LX_ETT_ITEM.ETT$, REC_DESC);

  20508 27 001704   200203 470500                    LDP0    @REC$,,AUTO
        27 001705   000000 471500                    LDP1    0,,PR0
        27 001706   200205 633500                    EPPR3   REC_DESC,,AUTO
        27 001707   200431 453500                    STP3    I+3,,AUTO
        27 001710   100001 634500                    EPPR4   1,,PR1
        27 001711   200430 454500                    STP4    I+2,,AUTO
        27 001712   200430 630500                    EPPR0   I+2,,AUTO
        27 001713   000000 631400 28                 EPPR1   0
        27 001714   000000 701000 xent               TSX1    Z8AU$TYPE_DESCRIPTOR
        27 001715   000000 011000                    NOP     0

      659    20509
PL6.E3A0      #001=Z8E7$STMT_ASSIGNMENT File=Z8E7.:Z8A6TSI                       SAT 08/09/97 11:35 Page:160
      660    20510    3        DO CASE (REC_DESC.TYPE);

  20510 27 001716   200205 235100                    LDA     REC_DESC,,AUTO
        27 001717   000020 115007                    CMPA    16,DL
        27 001720   001722 602005 27                 TNC     s:20510+4,AL
        27 001721   001766 710000 27                 TRA     s:20532
        27 001722   001766 710000 27                 TRA     s:20532
        27 001723   001742 710000 27                 TRA     s:20512
        27 001724   001747 710000 27                 TRA     s:20517
        27 001725   001766 710000 27                 TRA     s:20532
        27 001726   001766 710000 27                 TRA     s:20532
        27 001727   001766 710000 27                 TRA     s:20532
        27 001730   001766 710000 27                 TRA     s:20532
        27 001731   001761 710000 27                 TRA     s:20527
        27 001732   001766 710000 27                 TRA     s:20532
        27 001733   001766 710000 27                 TRA     s:20532
        27 001734   001766 710000 27                 TRA     s:20532
        27 001735   001766 710000 27                 TRA     s:20532
        27 001736   001766 710000 27                 TRA     s:20532
        27 001737   001766 710000 27                 TRA     s:20532
        27 001740   001766 710000 27                 TRA     s:20532
        27 001741   001754 710000 27                 TRA     s:20522

      661    20511    3          CASE (%TYI);

      662    20512    3            REC_LEN = %TYI_SIGNIFICANCE;

  20512 27 001742   000013 236007                    LDQ     11,DL
        27 001743   200223 756100                    STQ     REC_LEN,,AUTO

      663    20513
      664    20514    3            CALL BINARY_CHECKS ALTRET (SOMEBODY_BLEW_IT);

  20514 27 001744   001001 701000 27                 TSX1    BINARY_CHECKS
        27 001745   001772 702000 27                 TSX2    SOMEBODY_BLEW_IT
        27 001746   001770 710000 27                 TRA     s:20536

PL6.E3A0      #001=Z8E7$STMT_ASSIGNMENT File=Z8E7.:Z8A6TSI                       SAT 08/09/97 11:35 Page:161
      665    20515
      666    20516    3          CASE (%TYJ);

      667    20517    3            REC_LEN = %TYJ_SIGNIFICANCE;

  20517 27 001747   000005 236007                    LDQ     5,DL
        27 001750   200223 756100                    STQ     REC_LEN,,AUTO

      668    20518
      669    20519    3            CALL BINARY_CHECKS ALTRET (SOMEBODY_BLEW_IT);

  20519 27 001751   001001 701000 27                 TSX1    BINARY_CHECKS
        27 001752   001772 702000 27                 TSX2    SOMEBODY_BLEW_IT
        27 001753   001770 710000 27                 TRA     s:20536

      670    20520
      671    20521    3          CASE (%TYK);

      672    20522    3            REC_LEN = %TYK_SIGNIFICANCE;

  20522 27 001754   000012 236007                    LDQ     10,DL
        27 001755   200223 756100                    STQ     REC_LEN,,AUTO

      673    20523
      674    20524    3            CALL BINARY_CHECKS ALTRET (SOMEBODY_BLEW_IT);

  20524 27 001756   001001 701000 27                 TSX1    BINARY_CHECKS
        27 001757   001772 702000 27                 TSX2    SOMEBODY_BLEW_IT
        27 001760   001770 710000 27                 TRA     s:20536

      675    20525
      676    20526    3          CASE (%TYH);

      677    20527    3            REC_LEN = %TYH_SIGNIFICANCE;

  20527 27 001761   000006 236007                    LDQ     6,DL
        27 001762   200223 756100                    STQ     REC_LEN,,AUTO
PL6.E3A0      #001=Z8E7$STMT_ASSIGNMENT File=Z8E7.:Z8A6TSI                       SAT 08/09/97 11:35 Page:162

      678    20528
      679    20529    3            CALL BINARY_CHECKS ALTRET (SOMEBODY_BLEW_IT);

  20529 27 001763   001001 701000 27                 TSX1    BINARY_CHECKS
        27 001764   001772 702000 27                 TSX2    SOMEBODY_BLEW_IT
        27 001765   001770 710000 27                 TRA     s:20536

      680    20530
      681    20531    3          CASE (ELSE);

      682    20532    3            RETURN;

  20532 27 001766   200202 221300                    LDX1  ! @UPPER+1,,AUTO
        27 001767   000001 702211                    TSX2  ! 1,X1

      683    20533
      684    20534    3        END; /*V* Case */

      685    20535
      686    20536    2        RETURN;

  20536 27 001770   200202 221300                    LDX1  ! @UPPER+1,,AUTO
        27 001771   000001 702211                    TSX2  ! 1,X1

      687    20537
      688    20538    2   SOMEBODY_BLEW_IT: ALTRETURN;

  20538 27 001772   200202 221300       SOMEBODY_BL* LDX1  ! @UPPER+1,,AUTO
        27 001773   000000 702211                    TSX2  ! 0,X1

      689    20539
      690    20540    2   END SIGN_AND_TRUNCATION_CHECKS;
      691    20541        %EJECT;
PL6.E3A0      #001=Z8E7$STMT_ASSIGNMENT File=Z8E7.:Z8A6TSI                       SAT 08/09/97 11:35 Page:163
      692    20542        /*===========================*/
      693    20543    1     OVERFLOW_CHECKS_FROM_ETT_FLT: PROC (LOP$$, ROP$$, LABEL$);

  20543 27 001774   200176 741300       OVERFLOW_CH* STX1  ! LOP_DESC+1,,AUTO

      694    20544        /*===========================*/
      695    20545
      696    20546    2        DCL LOP$$         PTR;
      697    20547    2        DCL ROP$$         PTR;
      698    20548    2        DCL TEMP$        PTR;
      699    20549    2        DCL LABEL$        PTR;
      700    20550
      701    20551
      702    20552             %NEW_ILL ( @ID     = %GO ,
      703    20553                        @CODE   = %GO_FLT_OVERFLOW_OFF ,
      704    20554                        @EXPR$  = "ADDR(NIL)" ,
      705    20555                        @LABEL$ = "ADDR(NIL)" );

  20716 27 001775   000036 236000 28                 LDQ     30
        27 001776   200430 756100                    STQ     I+2,,AUTO
        27 001777   200430 630500                    EPPR0   I+2,,AUTO
        27 002000   200435 450500                    STP0    I+7,,AUTO
        27 002001   000037 236000 28                 LDQ     31
        27 002002   200434 756100                    STQ     I+6,,AUTO
        27 002003   000040 237000 28                 LDAQ    32
        27 002004   200432 757100                    STAQ    I+4,,AUTO
        27 002005   200432 630500                    EPPR0   I+4,,AUTO
        27 002006   000033 631400 28                 EPPR1   27
        27 002007   000000 701000 xent               TSX1    Z8AN$NEW_ILL
        27 002010   000000 011000                    NOP     0

  20717 27 002011   000023 220003                    LDX0    19,DU
        27 002012   000000 470400 6                  LDP0    ILL$
        27 002013   000000 440100                    SXL0    0,,PR0

  20718 27 002014   000001 236000 28                 LDQ     1
        27 002015   000000 470400 6                  LDP0    ILL$
PL6.E3A0      #001=Z8E7$STMT_ASSIGNMENT File=Z8E7.:Z8A6TSI                       SAT 08/09/97 11:35 Page:164
        27 002016   000001 756100                    STQ     1,,PR0

  20719 27 002017   000001 236000 28                 LDQ     1
        27 002020   000002 756100                    STQ     2,,PR0

      706    20934
      707    20935    2        TEMP$ = ADDR(TEMP_LX_ETT_ITEM);

  20935 27 002021   200124 631500                    EPPR1   TEMP_LX_ETT_ITEM,,AUTO
        27 002022   200202 451500                    STP1    TEMP$,,AUTO

      708    20936
      709    20937    2        CALL Z8EU$NEW_TEMP_FROM_ETT(LOP$$ -> LX_ETT_ITEM.ETT$, TEMP$);

  20937 27 002023   200177 473500                    LDP3    @LOP$$,,AUTO
        27 002024   300000 474500                    LDP4    0,,PR3
        27 002025   200202 635500                    EPPR5   TEMP$,,AUTO
        27 002026   200431 455500                    STP5    I+3,,AUTO
        27 002027   400001 636500                    EPPR6   1,,PR4
        27 002030   200430 456500                    STP6    I+2,,AUTO
        27 002031   200430 630500                    EPPR0   I+2,,AUTO
        27 002032   000000 631400 28                 EPPR1   0
        27 002033   000000 701000 xent               TSX1    Z8EU$NEW_TEMP_FROM_ETT
        27 002034   000000 011000                    NOP     0

      710    20938
      711    20939    2        TEMP$ -> LX_ETT_ITEM.B = LOP$$ -> LX_ETT_ITEM.B;

  20939 27 002035   200177 470500                    LDP0    @LOP$$,,AUTO
        27 002036   000000 471500                    LDP1    0,,PR0
        27 002037   100000 720100                    LXL0    0,,PR1
        27 002040   200202 473500                    LDP3    TEMP$,,AUTO
        27 002041   300000 440100                    SXL0    0,,PR3

      712    20940
      713    20941    2        CALL Z8E7$MOVE_ON_SIZE_SEMANTICS (TEMP$, ROP$$);

PL6.E3A0      #001=Z8E7$STMT_ASSIGNMENT File=Z8E7.:Z8A6TSI                       SAT 08/09/97 11:35 Page:165
  20941 27 002042   200200 236100                    LDQ     @ROP$$,,AUTO
        27 002043   200431 756100                    STQ     I+3,,AUTO
        27 002044   200202 631500                    EPPR1   TEMP$,,AUTO
        27 002045   200430 451500                    STP1    I+2,,AUTO
        27 002046   200430 630500                    EPPR0   I+2,,AUTO
        27 002047   000000 631400 28                 EPPR1   0
        27 002050   012371 701000 27                 TSX1    s:34877
        27 002051   000000 011000                    NOP     0

      714    20942
      715    20943             %NEW_ILL ( @ID     = %GO ,
      716    20944                        @CODE   = %GO_FLT_OVERFLOW ,
      717    20945                        @EXPR$  = "ADDR(NIL)" ,
      718    20946                        @LABEL$ = LABEL$ );

  21107 27 002052   000036 236000 28                 LDQ     30
        27 002053   200430 756100                    STQ     I+2,,AUTO
        27 002054   200430 630500                    EPPR0   I+2,,AUTO
        27 002055   200435 450500                    STP0    I+7,,AUTO
        27 002056   000037 236000 28                 LDQ     31
        27 002057   200434 756100                    STQ     I+6,,AUTO
        27 002060   000040 237000 28                 LDAQ    32
        27 002061   200432 757100                    STAQ    I+4,,AUTO
        27 002062   200432 630500                    EPPR0   I+4,,AUTO
        27 002063   000033 631400 28                 EPPR1   27
        27 002064   000000 701000 xent               TSX1    Z8AN$NEW_ILL
        27 002065   000000 011000                    NOP     0

  21108 27 002066   000031 220003                    LDX0    25,DU
        27 002067   000000 470400 6                  LDP0    ILL$
        27 002070   000000 440100                    SXL0    0,,PR0

  21109 27 002071   200201 470500                    LDP0    @LABEL$,,AUTO
        27 002072   000000 236100                    LDQ     0,,PR0
        27 002073   000000 471400 6                  LDP1    ILL$
        27 002074   100001 756100                    STQ     1,,PR1

PL6.E3A0      #001=Z8E7$STMT_ASSIGNMENT File=Z8E7.:Z8A6TSI                       SAT 08/09/97 11:35 Page:166
  21110 27 002075   000001 236000 28                 LDQ     1
        27 002076   100002 756100                    STQ     2,,PR1

      719    21325
      720    21326    2   END OVERFLOW_CHECKS_FROM_ETT_FLT;

  21326 27 002077   200176 221300                    LDX1  ! LOP_DESC+1,,AUTO
        27 002100   000001 702211                    TSX2  ! 1,X1

      721    21327        %EJECT;
PL6.E3A0      #001=Z8E7$STMT_ASSIGNMENT File=Z8E7.:Z8A6TSI                       SAT 08/09/97 11:35 Page:167
      722    21328        /*========================*/
      723    21329    1     OVERFLOW_CHECKS_FROM_ETT: PROC (LOP$$, ROP$$, LABEL$);

  21329 27 002101   200176 741300       OVERFLOW_CH* STX1  ! LOP_DESC+1,,AUTO

      724    21330        /*========================*/
      725    21331
      726    21332    2        DCL LOP$$         PTR;
      727    21333    2        DCL ROP$$         PTR;
      728    21334    2        DCL TEMP$        PTR;
      729    21335    2        DCL LABEL$        PTR;
      730    21336
      731    21337
      732    21338             %NEW_ILL ( @ID     = %GO ,
      733    21339                        @CODE   = %GO_OVERFLOW_OFF ,
      734    21340                        @EXPR$  = "ADDR(NIL)" ,
      735    21341                        @LABEL$ = "ADDR(NIL)" );

  21502 27 002102   000036 236000 28                 LDQ     30
        27 002103   200430 756100                    STQ     I+2,,AUTO
        27 002104   200430 630500                    EPPR0   I+2,,AUTO
        27 002105   200435 450500                    STP0    I+7,,AUTO
        27 002106   000037 236000 28                 LDQ     31
        27 002107   200434 756100                    STQ     I+6,,AUTO
        27 002110   000040 237000 28                 LDAQ    32
        27 002111   200432 757100                    STAQ    I+4,,AUTO
        27 002112   200432 630500                    EPPR0   I+4,,AUTO
        27 002113   000033 631400 28                 EPPR1   27
        27 002114   000000 701000 xent               TSX1    Z8AN$NEW_ILL
        27 002115   000000 011000                    NOP     0

  21503 27 002116   000024 220003                    LDX0    20,DU
        27 002117   000000 470400 6                  LDP0    ILL$
        27 002120   000000 440100                    SXL0    0,,PR0

  21504 27 002121   000001 236000 28                 LDQ     1
        27 002122   000000 470400 6                  LDP0    ILL$
PL6.E3A0      #001=Z8E7$STMT_ASSIGNMENT File=Z8E7.:Z8A6TSI                       SAT 08/09/97 11:35 Page:168
        27 002123   000001 756100                    STQ     1,,PR0

  21505 27 002124   000001 236000 28                 LDQ     1
        27 002125   000002 756100                    STQ     2,,PR0

      736    21720
      737    21721    2        TEMP$ = ADDR(TEMP_LX_ETT_ITEM);

  21721 27 002126   200124 631500                    EPPR1   TEMP_LX_ETT_ITEM,,AUTO
        27 002127   200202 451500                    STP1    TEMP$,,AUTO

      738    21722
      739    21723    2        CALL Z8EU$NEW_TEMP_FROM_ETT(LOP$$ -> LX_ETT_ITEM.ETT$, TEMP$);

  21723 27 002130   200177 473500                    LDP3    @LOP$$,,AUTO
        27 002131   300000 474500                    LDP4    0,,PR3
        27 002132   200202 635500                    EPPR5   TEMP$,,AUTO
        27 002133   200431 455500                    STP5    I+3,,AUTO
        27 002134   400001 636500                    EPPR6   1,,PR4
        27 002135   200430 456500                    STP6    I+2,,AUTO
        27 002136   200430 630500                    EPPR0   I+2,,AUTO
        27 002137   000000 631400 28                 EPPR1   0
        27 002140   000000 701000 xent               TSX1    Z8EU$NEW_TEMP_FROM_ETT
        27 002141   000000 011000                    NOP     0

      740    21724
      741    21725    2        TEMP$ -> LX_ETT_ITEM.B = LOP$$ -> LX_ETT_ITEM.B;

  21725 27 002142   200177 470500                    LDP0    @LOP$$,,AUTO
        27 002143   000000 471500                    LDP1    0,,PR0
        27 002144   100000 720100                    LXL0    0,,PR1
        27 002145   200202 473500                    LDP3    TEMP$,,AUTO
        27 002146   300000 440100                    SXL0    0,,PR3

      742    21726
      743    21727    2        CALL Z8E7$MOVE_ON_SIZE_SEMANTICS (TEMP$, ROP$$);

PL6.E3A0      #001=Z8E7$STMT_ASSIGNMENT File=Z8E7.:Z8A6TSI                       SAT 08/09/97 11:35 Page:169
  21727 27 002147   200200 236100                    LDQ     @ROP$$,,AUTO
        27 002150   200431 756100                    STQ     I+3,,AUTO
        27 002151   200202 631500                    EPPR1   TEMP$,,AUTO
        27 002152   200430 451500                    STP1    I+2,,AUTO
        27 002153   200430 630500                    EPPR0   I+2,,AUTO
        27 002154   000000 631400 28                 EPPR1   0
        27 002155   012371 701000 27                 TSX1    s:34877
        27 002156   000000 011000                    NOP     0

      744    21728
      745    21729             %NEW_ILL ( @ID     = %GO ,
      746    21730                        @CODE   = %GO_OVERFLOW ,
      747    21731                        @EXPR$  = "ADDR(NIL)" ,
      748    21732                        @LABEL$ = LABEL$ );

  21893 27 002157   000036 236000 28                 LDQ     30
        27 002160   200430 756100                    STQ     I+2,,AUTO
        27 002161   200430 630500                    EPPR0   I+2,,AUTO
        27 002162   200435 450500                    STP0    I+7,,AUTO
        27 002163   000037 236000 28                 LDQ     31
        27 002164   200434 756100                    STQ     I+6,,AUTO
        27 002165   000040 237000 28                 LDAQ    32
        27 002166   200432 757100                    STAQ    I+4,,AUTO
        27 002167   200432 630500                    EPPR0   I+4,,AUTO
        27 002170   000033 631400 28                 EPPR1   27
        27 002171   000000 701000 xent               TSX1    Z8AN$NEW_ILL
        27 002172   000000 011000                    NOP     0

  21894 27 002173   000015 220003                    LDX0    13,DU
        27 002174   000000 470400 6                  LDP0    ILL$
        27 002175   000000 440100                    SXL0    0,,PR0

  21895 27 002176   200201 470500                    LDP0    @LABEL$,,AUTO
        27 002177   000000 236100                    LDQ     0,,PR0
        27 002200   000000 471400 6                  LDP1    ILL$
        27 002201   100001 756100                    STQ     1,,PR1

PL6.E3A0      #001=Z8E7$STMT_ASSIGNMENT File=Z8E7.:Z8A6TSI                       SAT 08/09/97 11:35 Page:170
  21896 27 002202   000001 236000 28                 LDQ     1
        27 002203   100002 756100                    STQ     2,,PR1

      749    22111
      750    22112    2        ROP$$ = TEMP$;

  22112 27 002204   200202 236100                    LDQ     TEMP$,,AUTO
        27 002205   200200 473500                    LDP3    @ROP$$,,AUTO
        27 002206   300000 756100                    STQ     0,,PR3

      751    22113
      752    22114    2   END OVERFLOW_CHECKS_FROM_ETT;

  22114 27 002207   200176 221300                    LDX1  ! LOP_DESC+1,,AUTO
        27 002210   000001 702211                    TSX2  ! 1,X1

      753    22115        %EJECT;
PL6.E3A0      #001=Z8E7$STMT_ASSIGNMENT File=Z8E7.:Z8A6TSI                       SAT 08/09/97 11:35 Page:171
      754    22116        /*=========================*/
      755    22117    1     OVERFLOW_CHECKS_FROM_DESC: PROC (LOP$$, ROP$$, LABEL$, TYPE_DESC);

  22117 27 002211   200176 741300       OVERFLOW_CH* STX1  ! LOP_DESC+1,,AUTO

      756    22118        /*=========================*/
      757    22119
      758    22120    2        DCL LOP$$         PTR;
      759    22121    2        DCL ROP$$         PTR;
      760    22122    2        DCL LABEL$        PTR;
      761    22123    2        DCL TEMP$        PTR;
      762    22124    2        DCL 1 TYPE_DESC   ALIGNED,
      763    22125                   %TYPE_DESC;
      764    22159
      765    22160
      766    22161             %NEW_ILL ( @ID     = %GO ,
      767    22162                        @CODE   = %GO_OVERFLOW_OFF ,
      768    22163                        @EXPR$  = "ADDR(NIL)" ,
      769    22164                        @LABEL$ = "ADDR(NIL)" );

  22325 27 002212   000036 236000 28                 LDQ     30
        27 002213   200430 756100                    STQ     I+2,,AUTO
        27 002214   200430 630500                    EPPR0   I+2,,AUTO
        27 002215   200435 450500                    STP0    I+7,,AUTO
        27 002216   000037 236000 28                 LDQ     31
        27 002217   200434 756100                    STQ     I+6,,AUTO
        27 002220   000040 237000 28                 LDAQ    32
        27 002221   200432 757100                    STAQ    I+4,,AUTO
        27 002222   200432 630500                    EPPR0   I+4,,AUTO
        27 002223   000033 631400 28                 EPPR1   27
        27 002224   000000 701000 xent               TSX1    Z8AN$NEW_ILL
        27 002225   000000 011000                    NOP     0

  22326 27 002226   000024 220003                    LDX0    20,DU
        27 002227   000000 470400 6                  LDP0    ILL$
        27 002230   000000 440100                    SXL0    0,,PR0

PL6.E3A0      #001=Z8E7$STMT_ASSIGNMENT File=Z8E7.:Z8A6TSI                       SAT 08/09/97 11:35 Page:172
  22327 27 002231   000001 236000 28                 LDQ     1
        27 002232   000000 470400 6                  LDP0    ILL$
        27 002233   000001 756100                    STQ     1,,PR0

  22328 27 002234   000001 236000 28                 LDQ     1
        27 002235   000002 756100                    STQ     2,,PR0

      770    22543
      771    22544    2        TEMP$ = ADDR(TEMP_LX_ETT_ITEM);

  22544 27 002236   200124 631500                    EPPR1   TEMP_LX_ETT_ITEM,,AUTO
        27 002237   200203 451500                    STP1    TEMP$,,AUTO

      772    22545
      773    22546    2        CALL Z8EU$NEW_TEMP_FROM_DESC(TYPE_DESC, TEMP$);

  22546 27 002240   200203 633500                    EPPR3   TEMP$,,AUTO
        27 002241   200431 453500                    STP3    I+3,,AUTO
        27 002242   200202 236100                    LDQ     @TYPE_DESC,,AUTO
        27 002243   200430 756100                    STQ     I+2,,AUTO
        27 002244   200430 630500                    EPPR0   I+2,,AUTO
        27 002245   000000 631400 28                 EPPR1   0
        27 002246   000000 701000 xent               TSX1    Z8EU$NEW_TEMP_FROM_DESC
        27 002247   000000 011000                    NOP     0

      774    22547
      775    22548    2        TEMP$ -> LX_ETT_ITEM.B = LOP$$ -> LX_ETT_ITEM.B;

  22548 27 002250   200177 470500                    LDP0    @LOP$$,,AUTO
        27 002251   000000 471500                    LDP1    0,,PR0
        27 002252   100000 720100                    LXL0    0,,PR1
        27 002253   200203 473500                    LDP3    TEMP$,,AUTO
        27 002254   300000 440100                    SXL0    0,,PR3

      776    22549
      777    22550    2        CALL Z8E7$MOVE_ON_SIZE_SEMANTICS (TEMP$, ROP$$);

PL6.E3A0      #001=Z8E7$STMT_ASSIGNMENT File=Z8E7.:Z8A6TSI                       SAT 08/09/97 11:35 Page:173
  22550 27 002255   200200 236100                    LDQ     @ROP$$,,AUTO
        27 002256   200431 756100                    STQ     I+3,,AUTO
        27 002257   200203 631500                    EPPR1   TEMP$,,AUTO
        27 002260   200430 451500                    STP1    I+2,,AUTO
        27 002261   200430 630500                    EPPR0   I+2,,AUTO
        27 002262   000000 631400 28                 EPPR1   0
        27 002263   012371 701000 27                 TSX1    s:34877
        27 002264   000000 011000                    NOP     0

      778    22551
      779    22552             %NEW_ILL ( @ID     = %GO ,
      780    22553                        @CODE   = %GO_OVERFLOW ,
      781    22554                        @EXPR$  = "ADDR(NIL)" ,
      782    22555                        @LABEL$ = LABEL$ );

  22716 27 002265   000036 236000 28                 LDQ     30
        27 002266   200430 756100                    STQ     I+2,,AUTO
        27 002267   200430 630500                    EPPR0   I+2,,AUTO
        27 002270   200435 450500                    STP0    I+7,,AUTO
        27 002271   000037 236000 28                 LDQ     31
        27 002272   200434 756100                    STQ     I+6,,AUTO
        27 002273   000040 237000 28                 LDAQ    32
        27 002274   200432 757100                    STAQ    I+4,,AUTO
        27 002275   200432 630500                    EPPR0   I+4,,AUTO
        27 002276   000033 631400 28                 EPPR1   27
        27 002277   000000 701000 xent               TSX1    Z8AN$NEW_ILL
        27 002300   000000 011000                    NOP     0

  22717 27 002301   000015 220003                    LDX0    13,DU
        27 002302   000000 470400 6                  LDP0    ILL$
        27 002303   000000 440100                    SXL0    0,,PR0

  22718 27 002304   200201 470500                    LDP0    @LABEL$,,AUTO
        27 002305   000000 236100                    LDQ     0,,PR0
        27 002306   000000 471400 6                  LDP1    ILL$
        27 002307   100001 756100                    STQ     1,,PR1

PL6.E3A0      #001=Z8E7$STMT_ASSIGNMENT File=Z8E7.:Z8A6TSI                       SAT 08/09/97 11:35 Page:174
  22719 27 002310   000001 236000 28                 LDQ     1
        27 002311   100002 756100                    STQ     2,,PR1

      783    22934
      784    22935    2        ROP$$ = TEMP$;

  22935 27 002312   200203 236100                    LDQ     TEMP$,,AUTO
        27 002313   200200 473500                    LDP3    @ROP$$,,AUTO
        27 002314   300000 756100                    STQ     0,,PR3

      785    22936
      786    22937    2   END OVERFLOW_CHECKS_FROM_DESC;

  22937 27 002315   200176 221300                    LDX1  ! LOP_DESC+1,,AUTO
        27 002316   000001 702211                    TSX2  ! 1,X1

      787    22938        %EJECT;
PL6.E3A0      #001=Z8E7$STMT_ASSIGNMENT File=Z8E7.:Z8A6TSI                       SAT 08/09/97 11:35 Page:175
      788    22939        /*=======================*/
      789    22940    1     MOVE_NO_SEMANTIC_CHECKS: PROC (LOP$$, ROP$$) ALTRET;

  22940 27 002317   200164 741300       MOVE_NO_SEM* STX1  ! LOWER_LX_ETT_ITEM+8,,AUTO

      790    22941        /*=======================*/
      791    22942
      792    22943    2        DCL LOP$$         PTR;
      793    22944    2        DCL ROP$$         PTR;
      794    22945
      795    22946    2        DCL LOP_ST$       PTR;
      796    22947
      797    22948    2        STATEMENT_TYPE_A =  0;   /*V*   NOT A DML SET   */

  22948 27 002320   200064 450100                    STZ     STATEMENT_TYPE_A,,AUTO

      798    22949
      799    22950             %FISH (TRIAD = LOP$$ -> LX_ETT_ITEM.ETT$,
      800    22951                    RTN   = LOP_ST$);

  22953 27 002321   200165 470500                    LDP0    @LOP$$,,AUTO
        27 002322   000000 471500                    LDP1    0,,PR0
        27 002323   100001 236100                    LDQ     1,,PR1
        27 002324   200167 756100                    STQ     LOP_ST$,,AUTO

  22954 27 002325   200167 473500                    LDP3    LOP_ST$,,AUTO
        27 002326   300000 220100                    LDX0    0,,PR3
        27 002327   000751 100003                    CMPX0   489,DU
        27 002330   002340 603000 27                 TRC     s:22960

  22955 27 002331   200167 470500                    LDP0    LOP_ST$,,AUTO
        27 002332   000001 236100                    LDQ     1,,PR0
        27 002333   200167 756100                    STQ     LOP_ST$,,AUTO

  22956 27 002334   200167 470500                    LDP0    LOP_ST$,,AUTO
        27 002335   000000 220100                    LDX0    0,,PR0
        27 002336   000751 100003                    CMPX0   489,DU
PL6.E3A0      #001=Z8E7$STMT_ASSIGNMENT File=Z8E7.:Z8A6TSI                       SAT 08/09/97 11:35 Page:176
        27 002337   002331 602000 27                 TNC     s:22955

      801    22959
      802    22960    2        IF NOT LOP_ST$ -> SCALAR.B.SUB_CLASS.EDITED THEN

  22960 27 002340   200167 470500                    LDP0    LOP_ST$,,AUTO
        27 002341   000003 236100                    LDQ     3,,PR0
        27 002342   000004 316007                    CANQ    4,DL
        27 002343   002361 601000 27                 TNZ     s:22967

      803    22961    2          CALL Z8E7$MOVE_SEMANTIC_CHECKS (LOP$$, ROP$$,STATEMENT_TYPE_A)

  22961 27 002344   200064 631500                    EPPR1   STATEMENT_TYPE_A,,AUTO
        27 002345   200432 451500                    STP1    I+4,,AUTO
        27 002346   200166 236100                    LDQ     @ROP$$,,AUTO
        27 002347   200165 235100                    LDA     @LOP$$,,AUTO
        27 002350   200430 757100                    STAQ    I+2,,AUTO
        27 002351   200430 630500                    EPPR0   I+2,,AUTO
        27 002352   000016 631400 28                 EPPR1   14
        27 002353   000000 701000 xent               TSX1    Z8E7$MOVE_SEMANTIC_CHECKS
        27 002354   002356 702000 27                 TSX2    s:22964
        27 002355   002360 710000 27                 TRA     s:22964+2

      804    22962    2            WHENALTRETURN
      805    22963    3              DO;

      806    22964    3                ALTRETURN;

  22964 27 002356   200164 221300                    LDX1  ! LOWER_LX_ETT_ITEM+8,,AUTO
        27 002357   000000 702211                    TSX2  ! 0,X1
        27 002360   002363 710000 27                 TRA     s:22969

      807    22965    3              END;
      808    22966    2        ELSE
      809    22967    2          RETURN;

  22967 27 002361   200164 221300                    LDX1  ! LOWER_LX_ETT_ITEM+8,,AUTO
PL6.E3A0      #001=Z8E7$STMT_ASSIGNMENT File=Z8E7.:Z8A6TSI                       SAT 08/09/97 11:35 Page:177
        27 002362   000001 702211                    TSX2  ! 1,X1

      810    22968
      811    22969    2        CALL PRELIMINARY_SETUP (LOP$$, ROP$$)

  22969 27 002363   200166 236100                    LDQ     @ROP$$,,AUTO
        27 002364   200172 756100                    STQ     TYPE_DESC,,AUTO
        27 002365   200165 236100                    LDQ     @LOP$$,,AUTO
        27 002366   200171 756100                    STQ     LOP_ST$,,AUTO
        27 002367   002470 701000 27                 TSX1    PRELIMINARY_SETUP
        27 002370   002372 702000 27                 TSX2    s:22972
        27 002371   002374 710000 27                 TRA     s:22975

      812    22970    2          WHENALTRETURN
      813    22971    3            DO;

      814    22972    3              ALTRETURN;

  22972 27 002372   200164 221300                    LDX1  ! LOWER_LX_ETT_ITEM+8,,AUTO
        27 002373   000000 702211                    TSX2  ! 0,X1

      815    22973    3            END;
      816    22974
      817    22975    2        RETURN;

  22975 27 002374   200164 221300                    LDX1  ! LOWER_LX_ETT_ITEM+8,,AUTO
        27 002375   000001 702211                    TSX2  ! 1,X1

      818    22976
      819    22977    2   END MOVE_NO_SEMANTIC_CHECKS;
      820    22978        %EJECT;
PL6.E3A0      #001=Z8E7$STMT_ASSIGNMENT File=Z8E7.:Z8A6TSI                       SAT 08/09/97 11:35 Page:178
      821    22979        /*======================*/
      822    22980    1     MOVE_TO_NON_ELEMENTARY: PROC (ITEM$);

  22980 27 002376   200176 741300       MOVE_TO_NON* STX1  ! LOP_DESC+1,,AUTO

      823    22981        /*======================*/
      824    22982
      825    22983    2        DCL ITEM$         PTR;
      826    22984    2        DCL ITEM_ST$      PTR;
      827    22985
      828    22986
      829    22987    3        DO CASE (ITEM$ -> LX_ETT_ITEM.TYPE);

  22987 27 002377   200177 470500                    LDP0    @ITEM$,,AUTO
        27 002400   000000 471500                    LDP1    0,,PR0
        27 002401   100004 235100                    LDA     4,,PR1
        27 002402   000024 115007                    CMPA    20,DL
        27 002403   002405 602005 27                 TNC     s:22987+6,AL
        27 002404   002454 710000 27                 TRA     s:23005
        27 002405   002431 710000 27                 TRA     s:22997
        27 002406   002431 710000 27                 TRA     s:22997
        27 002407   002431 710000 27                 TRA     s:22997
        27 002410   002431 710000 27                 TRA     s:22997
        27 002411   002431 710000 27                 TRA     s:22997
        27 002412   002431 710000 27                 TRA     s:22997
        27 002413   002466 710000 27                 TRA     s:23011
        27 002414   002431 710000 27                 TRA     s:22997
        27 002415   002466 710000 27                 TRA     s:23011
        27 002416   002454 710000 27                 TRA     s:23005
        27 002417   002454 710000 27                 TRA     s:23005
        27 002420   002431 710000 27                 TRA     s:22997
        27 002421   002466 710000 27                 TRA     s:23011
        27 002422   002454 710000 27                 TRA     s:23005
        27 002423   002454 710000 27                 TRA     s:23005
        27 002424   002431 710000 27                 TRA     s:22997
        27 002425   002454 710000 27                 TRA     s:23005
        27 002426   002454 710000 27                 TRA     s:23005
PL6.E3A0      #001=Z8E7$STMT_ASSIGNMENT File=Z8E7.:Z8A6TSI                       SAT 08/09/97 11:35 Page:179
        27 002427   002454 710000 27                 TRA     s:23005
        27 002430   002431 710000 27                 TRA     s:22997

      830    22988
      831    22989    3          CASE (%TYA, %TYE, %TYB);

      832    22990                 /*V* TYA is great! */
      833    22991
      834    22992    3          CASE (

      835    22993                     %SET_OF_NUMERIC_TYPES;
      836    22996    3               );
      837    22997    3            CALL Z8AF$FORME_ON_SIZE (%DNA,

  22997 27 002431   200070 633500                    EPPR3   ON_SIZE,,AUTO
        27 002432   200434 453500                    STP3    I+6,,AUTO
        27 002433   100001 634500                    EPPR4   1,,PR1
        27 002434   200433 454500                    STP4    I+5,,AUTO
        27 002435   000040 236000 28                 LDQ     32
        27 002436   200432 756100                    STQ     I+4,,AUTO
        27 002437   100001 635500                    EPPR5   1,,PR1
        27 002440   200431 455500                    STP5    I+3,,AUTO
        27 002441   000024 236000 28                 LDQ     20
        27 002442   200430 756100                    STQ     I+2,,AUTO
        27 002443   200430 630500                    EPPR0   I+2,,AUTO
        27 002444   000042 631400 28                 EPPR1   34
        27 002445   000000 701000 xent               TSX1    Z8AF$FORME_ON_SIZE
        27 002446   000000 011000                    NOP     0

      838    22998    3                                     ITEM$ -> LX_ETT_ITEM.ETT$,
      839    22999    3                                     0,
      840    23000    3                                     ITEM$ -> LX_ETT_ITEM.ETT$, ON_SIZE);
      841    23001
      842    23002    3            ITEM$ -> LX_ETT_ITEM.TYPE = %TYA;

  23002 27 002447   200177 470500                    LDP0    @ITEM$,,AUTO
        27 002450   000000 471500                    LDP1    0,,PR0
PL6.E3A0      #001=Z8E7$STMT_ASSIGNMENT File=Z8E7.:Z8A6TSI                       SAT 08/09/97 11:35 Page:180
        27 002451   000010 235007                    LDA     8,DL
        27 002452   100004 755100                    STA     4,,PR1
        27 002453   002466 710000 27                 TRA     s:23011

      843    23003
      844    23004    3          CASE (ELSE);

      845    23005    3            CALL Z8AE$ERROR (%E$UNEXPECTED_CASE,

  23005 27 002454   100006 633500                    EPPR3   6,,PR1
        27 002455   200432 453500                    STP3    I+4,,AUTO
        27 002456   100005 634500                    EPPR4   5,,PR1
        27 002457   200431 454500                    STP4    I+3,,AUTO
        27 002460   000026 236000 28                 LDQ     22
        27 002461   200430 756100                    STQ     I+2,,AUTO
        27 002462   200430 630500                    EPPR0   I+2,,AUTO
        27 002463   000016 631400 28                 EPPR1   14
        27 002464   000000 701000 xent               TSX1    Z8AE$ERROR
        27 002465   000000 011000                    NOP     0

      846    23006    3                             ITEM$ -> LX_ETT_ITEM.LINE,
      847    23007    3                             ITEM$ -> LX_ETT_ITEM.COLUMN);
      848    23008
      849    23009    3        END; /*V* Case */

      850    23010
      851    23011    2   END MOVE_TO_NON_ELEMENTARY;

  23011 27 002466   200176 221300                    LDX1  ! LOP_DESC+1,,AUTO
        27 002467   000001 702211                    TSX2  ! 1,X1

      852    23012        %EJECT;
PL6.E3A0      #001=Z8E7$STMT_ASSIGNMENT File=Z8E7.:Z8A6TSI                       SAT 08/09/97 11:35 Page:181
      853    23013        /*=================*/
      854    23014    1     PRELIMINARY_SETUP: PROC (LOP$$, ROP$$) ALTRET;

  23014 27 002470   200170 741300       PRELIMINARY* STX1  ! NEL$$,,AUTO

      855    23015        /*=================*/
      856    23016
      857    23017    2        DCL LOP$$         PTR;
      858    23018    2        DCL ROP$$         PTR;
      859    23019
      860    23020    2        DCL ROP_ST$       PTR;
      861    23021    2        DCL LOP_ST$       PTR;
      862    23022
      863    23023
      864    23024    2        IF ROP$$ -> LX_ITEM.ID = %LX_ETT_ITEM THEN

  23024 27 002471   200172 470500                    LDP0    @ROP$$,,AUTO
        27 002472   000000 471500                    LDP1    0,,PR0
        27 002473   100000 220100                    LDX0    0,,PR1
        27 002474   000004 100003                    CMPX0   4,DU
        27 002475   002727 601000 27                 TNZ     s:23109

      865    23025    3          DO;

      866    23026                 %FISH (TRIAD = ROP$$ -> LX_ETT_ITEM.ETT$,
      867    23027                        RTN   = ROP_ST$);

  23029 27 002476   100001 236100                    LDQ     1,,PR1
        27 002477   200173 756100                    STQ     ROP_ST$,,AUTO

  23030 27 002500   200173 473500                    LDP3    ROP_ST$,,AUTO
        27 002501   300000 222100                    LDX2    0,,PR3
        27 002502   000751 102003                    CMPX2   489,DU
        27 002503   002513 603000 27                 TRC     s:23038

  23031 27 002504   200173 470500                    LDP0    ROP_ST$,,AUTO
        27 002505   000001 236100                    LDQ     1,,PR0
PL6.E3A0      #001=Z8E7$STMT_ASSIGNMENT File=Z8E7.:Z8A6TSI                       SAT 08/09/97 11:35 Page:182
        27 002506   200173 756100                    STQ     ROP_ST$,,AUTO

  23032 27 002507   200173 470500                    LDP0    ROP_ST$,,AUTO
        27 002510   000000 220100                    LDX0    0,,PR0
        27 002511   000751 100003                    CMPX0   489,DU
        27 002512   002504 602000 27                 TNC     s:23031

      868    23035                 %FISH( TRIAD = LOP$$ -> LX_ETT_ITEM.ETT$,        /*#33734*/
      869    23036                        RTN   = LOP_ST$ );

  23038 27 002513   200171 470500                    LDP0    @LOP$$,,AUTO
        27 002514   000000 471500                    LDP1    0,,PR0
        27 002515   100001 236100                    LDQ     1,,PR1
        27 002516   200174 756100                    STQ     LOP_ST$,,AUTO

  23039 27 002517   200174 473500                    LDP3    LOP_ST$,,AUTO
        27 002520   300000 220100                    LDX0    0,,PR3
        27 002521   000751 100003                    CMPX0   489,DU
        27 002522   002532 603000 27                 TRC     s:23046

  23040 27 002523   200174 470500                    LDP0    LOP_ST$,,AUTO
        27 002524   000001 236100                    LDQ     1,,PR0
        27 002525   200174 756100                    STQ     LOP_ST$,,AUTO

  23041 27 002526   200174 470500                    LDP0    LOP_ST$,,AUTO
        27 002527   000000 220100                    LDX0    0,,PR0
        27 002530   000751 100003                    CMPX0   489,DU
        27 002531   002523 602000 27                 TNC     s:23040

      870    23044
      871    23045
      872    23046    4            DO CASE( LOP_ST$ -> ST.ID );

  23046 27 002532   200174 470500                    LDP0    LOP_ST$,,AUTO
        27 002533   000000 236100                    LDQ     0,,PR0
        27 002534   000022 772000                    QRL     18
        27 002535   000751 136007                    SBLQ    489,DL
PL6.E3A0      #001=Z8E7$STMT_ASSIGNMENT File=Z8E7.:Z8A6TSI                       SAT 08/09/97 11:35 Page:183
        27 002536   000035 116007                    CMPQ    29,DL
        27 002537   002541 602006 27                 TNC     s:23046+7,QL
        27 002540   002576 710000 27                 TRA     s:23067
        27 002541   002614 710000 27                 TRA     s:23075
        27 002542   002576 710000 27                 TRA     s:23067
        27 002543   002576 710000 27                 TRA     s:23067
        27 002544   002576 710000 27                 TRA     s:23067
        27 002545   002576 710000 27                 TRA     s:23067
        27 002546   002576 710000 27                 TRA     s:23067
        27 002547   002576 710000 27                 TRA     s:23067
        27 002550   002614 710000 27                 TRA     s:23075
        27 002551   002576 710000 27                 TRA     s:23067
        27 002552   002576 710000 27                 TRA     s:23067
        27 002553   002576 710000 27                 TRA     s:23067
        27 002554   002576 710000 27                 TRA     s:23067
        27 002555   002614 710000 27                 TRA     s:23075
        27 002556   002614 710000 27                 TRA     s:23075
        27 002557   002614 710000 27                 TRA     s:23075
        27 002560   002576 710000 27                 TRA     s:23067
        27 002561   002576 710000 27                 TRA     s:23067
        27 002562   002576 710000 27                 TRA     s:23067
        27 002563   002576 710000 27                 TRA     s:23067
        27 002564   002576 710000 27                 TRA     s:23067
        27 002565   002576 710000 27                 TRA     s:23067
        27 002566   002576 710000 27                 TRA     s:23067
        27 002567   002614 710000 27                 TRA     s:23075
        27 002570   002576 710000 27                 TRA     s:23067
        27 002571   002576 710000 27                 TRA     s:23067
        27 002572   002614 710000 27                 TRA     s:23075
        27 002573   002614 710000 27                 TRA     s:23075
        27 002574   002614 710000 27                 TRA     s:23075
        27 002575   002614 710000 27                 TRA     s:23075

      873    23047
      874    23048    4              CASE (

      875    23049                          %ST_ITEMS_WITH_STORAGE;
PL6.E3A0      #001=Z8E7$STMT_ASSIGNMENT File=Z8E7.:Z8A6TSI                       SAT 08/09/97 11:35 Page:184
      876    23061    4                                            );
      877    23062
      878    23063                       /*   OK   */
      879    23064
      880    23065    4              CASE( ELSE );

      881    23066
      882    23067    4                CALL Z8AE$ERROR( %E$INVALID_MOVE_OPERANDS,

  23067 27 002576   200171 471500                    LDP1    @LOP$$,,AUTO
        27 002577   100000 473500                    LDP3    0,,PR1
        27 002600   300006 634500                    EPPR4   6,,PR3
        27 002601   200432 454500                    STP4    I+4,,AUTO
        27 002602   300005 635500                    EPPR5   5,,PR3
        27 002603   200431 455500                    STP5    I+3,,AUTO
        27 002604   000030 236000 28                 LDQ     24
        27 002605   200430 756100                    STQ     I+2,,AUTO
        27 002606   200430 630500                    EPPR0   I+2,,AUTO
        27 002607   000016 631400 28                 EPPR1   14
        27 002610   000000 701000 xent               TSX1    Z8AE$ERROR
        27 002611   000000 011000                    NOP     0

      883    23068    4                                 LOP$$ -> LX_ETT_ITEM.LINE,
      884    23069    4                                 LOP$$ -> LX_ETT_ITEM.COLUMN );
      885    23070    4                ALTRETURN;

  23070 27 002612   200170 221300                    LDX1  ! NEL$$,,AUTO
        27 002613   000000 702211                    TSX2  ! 0,X1

      886    23071
      887    23072    4            END;

      888    23073
      889    23074
      890    23075    3            IF (ROP_ST$ -> ST.ID = %ARRAY

  23075 27 002614   200173 471500                    LDP1    ROP_ST$,,AUTO
PL6.E3A0      #001=Z8E7$STMT_ASSIGNMENT File=Z8E7.:Z8A6TSI                       SAT 08/09/97 11:35 Page:185
        27 002615   100000 220100                    LDX0    0,,PR1
        27 002616   000765 100003                    CMPX0   501,DU
        27 002617   002622 600000 27                 TZE     s:23077
        27 002620   000766 100003                    CMPX0   502,DU
        27 002621   002727 601000 27                 TNZ     s:23109

      891    23076    3                OR ROP_ST$ -> ST.ID = %SCALAR) THEN
      892    23077    3              IF NOT ROP_ST$ -> VARIABLE.B.ELEMENTARY

  23077 27 002622   100003 236100                    LDQ     3,,PR1
        27 002623   010000 316003                    CANQ    4096,DU
        27 002624   002711 601000 27                 TNZ     s:23100
        27 002625   200172 473500                    LDP3    @ROP$$,,AUTO
        27 002626   300000 474500                    LDP4    0,,PR3
        27 002627   400001 475500                    LDP5    1,,PR4
        27 002630   500000 221100                    LDX1    0,,PR5
        27 002631   000020 101003                    CMPX1   16,DU
        27 002632   002641 602000 27                 TNC     s:23077+15
        27 002633   000171 101003                    CMPX1   121,DU
        27 002634   002711 601000 27                 TNZ     s:23100
        27 002635   500001 476500                    LDP6    1,,PR5
        27 002636   600000 222100                    LDX2    0,,PR6
        27 002637   000020 102003                    CMPX2   16,DU
        27 002640   002711 603000 27                 TRC     s:23100
        27 002641   400000 236100                    LDQ     0,,PR4
        27 002642   010000 316007                    CANQ    4096,DL
        27 002643   002711 601000 27                 TNZ     s:23100

      893    23078    3              AND (ROP$$ -> LX_ETT_ITEM.ETT$ -> ETT.ID <= %LAST_REFERENCE_TRIAD
      894    23079    3                   OR ROP$$ -> LX_ETT_ITEM.ETT$ -> ETT.ID = %EVAL
      895    23080    3                      AND ROP$$ -> LX_ETT_ITEM.ETT$ -> ETT.LOP -> ETT.ID
      896    23081    3                          <= %LAST_REFERENCE_TRIAD)
      897    23082    3              AND NOT ROP$$ -> LX_ETT_ITEM.B.REFMOD THEN
      898    23083    4                DO;

      899    23084    4                  IF LOP_ST$ -> SCALAR.B.CLASS = %CLASS_NUMERIC THEN

PL6.E3A0      #001=Z8E7$STMT_ASSIGNMENT File=Z8E7.:Z8A6TSI                       SAT 08/09/97 11:35 Page:186
  23084 27 002644   000003 236100                    LDQ     3,,PR0
        27 002645   000007 376007                    ANQ     7,DL
        27 002646   000001 116007                    CMPQ    1,DL
        27 002647   002675 601000 27                 TNZ     s:23094

      900    23085    5                    DO ;

      901    23086    5                      CALL Z8AF$FORME_ON_SIZE (%DNA,

  23086 27 002650   200171 476500                    LDP6    @LOP$$,,AUTO
        27 002651   600000 477500                    LDP7    0,,PR6
        27 002652   200070 630500                    EPPR0   ON_SIZE,,AUTO
        27 002653   200434 450500                    STP0    I+6,,AUTO
        27 002654   700001 634500                    EPPR4   1,,PR7
        27 002655   200433 454500                    STP4    I+5,,AUTO
        27 002656   000040 236000 28                 LDQ     32
        27 002657   200432 756100                    STQ     I+4,,AUTO
        27 002660   700001 635500                    EPPR5   1,,PR7
        27 002661   200431 455500                    STP5    I+3,,AUTO
        27 002662   000024 236000 28                 LDQ     20
        27 002663   200430 756100                    STQ     I+2,,AUTO
        27 002664   200430 630500                    EPPR0   I+2,,AUTO
        27 002665   000042 631400 28                 EPPR1   34
        27 002666   000000 701000 xent               TSX1    Z8AF$FORME_ON_SIZE
        27 002667   000000 011000                    NOP     0

      902    23087    5                                               LOP$$ -> LX_ETT_ITEM.ETT$,
      903    23088    5                                               0,
      904    23089    5                                               LOP$$ -> LX_ETT_ITEM.ETT$,
      905    23090    5                                               ON_SIZE) ;
      906    23091    5                      LOP$$ -> LX_ETT_ITEM.TYPE = %TYA ;

  23091 27 002670   200171 470500                    LDP0    @LOP$$,,AUTO
        27 002671   000000 471500                    LDP1    0,,PR0
        27 002672   000010 235007                    LDA     8,DL
        27 002673   100004 755100                    STA     4,,PR1

PL6.E3A0      #001=Z8E7$STMT_ASSIGNMENT File=Z8E7.:Z8A6TSI                       SAT 08/09/97 11:35 Page:187
      907    23092    5                    END ; /* Receiving field is class numeric */

  23092 27 002674   002707 710000 27                 TRA     s:23095

      908    23093    4                  ELSE
      909    23094    4                    CALL Z8EV$CONVERT_ON_SIZE (%TYA, LOP$$, LOP$$, ON_SIZE);

  23094 27 002675   200070 636500                    EPPR6   ON_SIZE,,AUTO
        27 002676   200433 456500                    STP6    I+5,,AUTO
        27 002677   200171 236100                    LDQ     @LOP$$,,AUTO
        27 002700   200432 756100                    STQ     I+4,,AUTO
        27 002701   000044 235000 28                 LDA     36
        27 002702   200430 757100                    STAQ    I+2,,AUTO
        27 002703   200430 630500                    EPPR0   I+2,,AUTO
        27 002704   000033 631400 28                 EPPR1   27
        27 002705   000000 701000 xent               TSX1    Z8EV$CONVERT_ON_SIZE
        27 002706   000000 011000                    NOP     0

      910    23095    4                  RETURN;

  23095 27 002707   200170 221300                    LDX1  ! NEL$$,,AUTO
        27 002710   000001 702211                    TSX2  ! 1,X1

      911    23096    4                END;
      912    23097    3              ELSE
      913    23098    4                DO;

      914    23099
      915    23100    4                  IF NOT LOP_ST$ -> VARIABLE.B.ELEMENTARY

  23100 27 002711   000003 236100                    LDQ     3,,PR0
        27 002712   010000 316003                    CANQ    4096,DU
        27 002713   002727 601000 27                 TNZ     s:23109
        27 002714   200171 473500                    LDP3    @LOP$$,,AUTO
        27 002715   300000 474500                    LDP4    0,,PR3
        27 002716   400000 236100                    LDQ     0,,PR4
        27 002717   010000 316007                    CANQ    4096,DL
PL6.E3A0      #001=Z8E7$STMT_ASSIGNMENT File=Z8E7.:Z8A6TSI                       SAT 08/09/97 11:35 Page:188
        27 002720   002727 601000 27                 TNZ     s:23109

      916    23101    4                  AND NOT LOP$$ -> LX_ETT_ITEM.B.REFMOD THEN
      917    23102    5                    DO;

      918    23103    5                      CALL MOVE_TO_NON_ELEMENTARY (ROP$$);

  23103 27 002721   200172 236100                    LDQ     @ROP$$,,AUTO
        27 002722   200177 756100                    STQ     @ITEM$,,AUTO
        27 002723   002376 701000 27                 TSX1    MOVE_TO_NON_ELEMENTARY
        27 002724   000000 011000                    NOP     0

      919    23104    5                      RETURN;

  23104 27 002725   200170 221300                    LDX1  ! NEL$$,,AUTO
        27 002726   000001 702211                    TSX2  ! 1,X1

      920    23105    5                    END;
      921    23106    4                END;
      922    23107    3          END;
      923    23108
      924    23109    2          CALL PRE_MOVE_ACTIONS (LOP$$, ROP$$)

  23109 27 002727   200172 236100                    LDQ     @ROP$$,,AUTO
        27 002730   200200 756100                    STQ     ITEM_ST$,,AUTO
        27 002731   200171 236100                    LDQ     @LOP$$,,AUTO
        27 002732   200177 756100                    STQ     @ITEM$,,AUTO
        27 002733   006674 701000 27                 TSX1    PRE_MOVE_ACTIONS
        27 002734   002736 702000 27                 TSX2    s:23112
        27 002735   002740 710000 27                 TRA     s:23115

      925    23110    2            WHENALTRETURN
      926    23111    3              DO;

      927    23112    3                ALTRETURN;

  23112 27 002736   200170 221300                    LDX1  ! NEL$$,,AUTO
PL6.E3A0      #001=Z8E7$STMT_ASSIGNMENT File=Z8E7.:Z8A6TSI                       SAT 08/09/97 11:35 Page:189
        27 002737   000000 702211                    TSX2  ! 0,X1

      928    23113    3              END;
      929    23114
      930    23115    2   END PRELIMINARY_SETUP;

  23115 27 002740   200170 221300                    LDX1  ! NEL$$,,AUTO
        27 002741   000001 702211                    TSX2  ! 1,X1

      931    23116        %EJECT;
PL6.E3A0      #001=Z8E7$STMT_ASSIGNMENT File=Z8E7.:Z8A6TSI                       SAT 08/09/97 11:35 Page:190
      932    23117        /*=======*/
      933    23118    1     MOVE_ID: PROC (LOP$$, ROP$$, ID);

  23118 27 002742   200164 741300       MOVE_ID      STX1  ! LOWER_LX_ETT_ITEM+8,,AUTO

      934    23119        /*=======*/
      935    23120
      936    23121    2        DCL LOP$$         PTR;
      937    23122    2        DCL ROP$$         PTR;
      938    23123    2        DCL ID            SBIN WORD;
      939    23124    2        DCL LOP_ST$       PTR;
      940    23125
      941    23126
      942    23127
      943    23128             %FISH(TRIAD = LOP$$ -> LX_ETT_ITEM.ETT$, RTN = LOP_ST$);

  23130 27 002743   200165 470500                    LDP0    @LOP$$,,AUTO
        27 002744   000000 471500                    LDP1    0,,PR0
        27 002745   100001 236100                    LDQ     1,,PR1
        27 002746   200170 756100                    STQ     LOP_ST$,,AUTO

  23131 27 002747   200170 473500                    LDP3    LOP_ST$,,AUTO
        27 002750   300000 220100                    LDX0    0,,PR3
        27 002751   000751 100003                    CMPX0   489,DU
        27 002752   002762 603000 27                 TRC     s:23137

  23132 27 002753   200170 470500                    LDP0    LOP_ST$,,AUTO
        27 002754   000001 236100                    LDQ     1,,PR0
        27 002755   200170 756100                    STQ     LOP_ST$,,AUTO

  23133 27 002756   200170 470500                    LDP0    LOP_ST$,,AUTO
        27 002757   000000 220100                    LDX0    0,,PR0
        27 002760   000751 100003                    CMPX0   489,DU
        27 002761   002753 602000 27                 TNC     s:23132

      944    23136
      945    23137    3        DO CASE(LOP$$ -> LX_ETT_ITEM.TYPE);
PL6.E3A0      #001=Z8E7$STMT_ASSIGNMENT File=Z8E7.:Z8A6TSI                       SAT 08/09/97 11:35 Page:191

  23137 27 002762   200165 470500                    LDP0    @LOP$$,,AUTO
        27 002763   000000 471500                    LDP1    0,,PR0
        27 002764   100004 235100                    LDA     4,,PR1
        27 002765   000020 115007                    CMPA    16,DL
        27 002766   002770 602005 27                 TNC     s:23137+6,AL
        27 002767   003151 710000 27                 TRA     s:23186
        27 002770   003045 710000 27                 TRA     s:23151
        27 002771   003100 710000 27                 TRA     s:23161
        27 002772   003141 710000 27                 TRA     s:23180
        27 002773   003010 710000 27                 TRA     s:23139
        27 002774   003104 710000 27                 TRA     s:23164
        27 002775   003110 710000 27                 TRA     s:23167
        27 002776   003114 710000 27                 TRA     s:23170
        27 002777   003135 710000 27                 TRA     s:23177
        27 003000   003114 710000 27                 TRA     s:23170
        27 003001   003151 710000 27                 TRA     s:23186
        27 003002   003151 710000 27                 TRA     s:23186
        27 003003   003010 710000 27                 TRA     s:23139
        27 003004   003114 710000 27                 TRA     s:23170
        27 003005   003151 710000 27                 TRA     s:23186
        27 003006   003114 710000 27                 TRA     s:23170
        27 003007   003145 710000 27                 TRA     s:23183

      946    23138    3          CASE(%TYO, %TYF);

      947    23139    3            IF COMCOM.OB.ELS AND

  23139 27 003010   000026 234000 xsym               SZN     COMCOM+22
        27 003011   003025 605000 27                 TPL     s:23145
        27 003012   200166 473500                    LDP3    @ROP$$,,AUTO
        27 003013   300000 474500                    LDP4    0,,PR3
        27 003014   400004 235100                    LDA     4,,PR4
        27 003015   000003 115007                    CMPA    3,DL
        27 003016   003021 600000 27                 TZE     s:23142
        27 003017   000013 115007                    CMPA    11,DL
        27 003020   003025 601000 27                 TNZ     s:23145
PL6.E3A0      #001=Z8E7$STMT_ASSIGNMENT File=Z8E7.:Z8A6TSI                       SAT 08/09/97 11:35 Page:192

      948    23140    3                (ROP$$ -> LX_ETT_ITEM.TYPE = %TYO OR
      949    23141    3                 ROP$$ -> LX_ETT_ITEM.TYPE = %TYF) THEN
      950    23142    3              ID = %MVOO;

  23142 27 003021   000423 235007                    LDA     275,DL
        27 003022   200167 475500                    LDP5    @ID,,AUTO
        27 003023   500000 755100                    STA     0,,PR5
        27 003024   003163 710000 27                 TRA     s:23192

      951    23143    3            ELSE
      952    23144    4              DO;

      953    23145    4                IF ROP$$ -> LX_ETT_ITEM.TYPE ~= %TYD THEN

  23145 27 003025   200166 473500                    LDP3    @ROP$$,,AUTO
        27 003026   300000 474500                    LDP4    0,,PR3
        27 003027   400004 235100                    LDA     4,,PR4
        27 003030   003041 600000 27                 TZE     s:23147

      954    23146    4                  CALL Z8EV$CONVERT (%TYD, ROP$$, ROP$$);

  23146 27 003031   200166 236100                    LDQ     @ROP$$,,AUTO
        27 003032   200432 756100                    STQ     I+4,,AUTO
        27 003033   000040 235000 28                 LDA     32
        27 003034   200430 757100                    STAQ    I+2,,AUTO
        27 003035   200430 630500                    EPPR0   I+2,,AUTO
        27 003036   000016 631400 28                 EPPR1   14
        27 003037   000000 701000 xent               TSX1    Z8EV$CONVERT
        27 003040   000000 011000                    NOP     0

      955    23147    4                ID = %MVDO;

  23147 27 003041   000263 235007                    LDA     179,DL
        27 003042   200167 470500                    LDP0    @ID,,AUTO
        27 003043   000000 755100                    STA     0,,PR0

PL6.E3A0      #001=Z8E7$STMT_ASSIGNMENT File=Z8E7.:Z8A6TSI                       SAT 08/09/97 11:35 Page:193
      956    23148    4              END;

  23148 27 003044   003163 710000 27                 TRA     s:23192

      957    23149
      958    23150    3          CASE(%TYD);

      959    23151    3            IF COMCOM.OB.ELS AND ROP$$ -> LX_ETT_ITEM.TYPE  = %TYO THEN

  23151 27 003045   000026 234000 xsym               SZN     COMCOM+22
        27 003046   003060 605000 27                 TPL     s:23155
        27 003047   200166 473500                    LDP3    @ROP$$,,AUTO
        27 003050   300000 474500                    LDP4    0,,PR3
        27 003051   400004 235100                    LDA     4,,PR4
        27 003052   000003 115007                    CMPA    3,DL
        27 003053   003060 601000 27                 TNZ     s:23155

      960    23152    3              ID = %MVOD;

  23152 27 003054   000257 235007                    LDA     175,DL
        27 003055   200167 475500                    LDP5    @ID,,AUTO
        27 003056   500000 755100                    STA     0,,PR5
        27 003057   003163 710000 27                 TRA     s:23192

      961    23153    3            ELSE
      962    23154    4              DO;

      963    23155    4                IF ROP$$ -> LX_ETT_ITEM.TYPE ~= %TYD THEN

  23155 27 003060   200166 473500                    LDP3    @ROP$$,,AUTO
        27 003061   300000 474500                    LDP4    0,,PR3
        27 003062   400004 235100                    LDA     4,,PR4
        27 003063   003074 600000 27                 TZE     s:23157

      964    23156    4                  CALL Z8EV$CONVERT (%TYD, ROP$$, ROP$$);

  23156 27 003064   200166 236100                    LDQ     @ROP$$,,AUTO
PL6.E3A0      #001=Z8E7$STMT_ASSIGNMENT File=Z8E7.:Z8A6TSI                       SAT 08/09/97 11:35 Page:194
        27 003065   200432 756100                    STQ     I+4,,AUTO
        27 003066   000040 235000 28                 LDA     32
        27 003067   200430 757100                    STAQ    I+2,,AUTO
        27 003070   200430 630500                    EPPR0   I+2,,AUTO
        27 003071   000016 631400 28                 EPPR1   14
        27 003072   000000 701000 xent               TSX1    Z8EV$CONVERT
        27 003073   000000 011000                    NOP     0

      965    23157    4                ID = %MVDD;

  23157 27 003074   000243 235007                    LDA     163,DL
        27 003075   200167 470500                    LDP0    @ID,,AUTO
        27 003076   000000 755100                    STA     0,,PR0

      966    23158    4              END;

  23158 27 003077   003163 710000 27                 TRA     s:23192

      967    23159
      968    23160    3          CASE(%TYI);

      969    23161    3            ID = %MVII;

  23161 27 003100   000245 235007                    LDA     165,DL
        27 003101   200167 473500                    LDP3    @ID,,AUTO
        27 003102   300000 755100                    STA     0,,PR3
        27 003103   003163 710000 27                 TRA     s:23192

      970    23162
      971    23163    3          CASE(%TYR);

      972    23164    3            ID = %MVRR;

  23164 27 003104   000246 235007                    LDA     166,DL
        27 003105   200167 473500                    LDP3    @ID,,AUTO
        27 003106   300000 755100                    STA     0,,PR3
        27 003107   003163 710000 27                 TRA     s:23192
PL6.E3A0      #001=Z8E7$STMT_ASSIGNMENT File=Z8E7.:Z8A6TSI                       SAT 08/09/97 11:35 Page:195

      973    23165
      974    23166    3          CASE(%TYQ);

      975    23167    3            ID = %MVQQ;

  23167 27 003110   000247 235007                    LDA     167,DL
        27 003111   200167 473500                    LDP3    @ID,,AUTO
        27 003112   300000 755100                    STA     0,,PR3
        27 003113   003163 710000 27                 TRA     s:23192

      976    23168
      977    23169    3          CASE(%TYA, %TYN, %TYE, %TYB);

      978    23170    3            IF LOP_ST$ -> VARIABLE.B.JUSTIFIED   AND     /*#33283*/

  23170 27 003114   200170 473500                    LDP3    LOP_ST$,,AUTO
        27 003115   300003 236100                    LDQ     3,,PR3
        27 003116   040000 316003                    CANQ    16384,DU
        27 003117   003131 600000 27                 TZE     s:23174
        27 003120   200166 474500                    LDP4    @ROP$$,,AUTO
        27 003121   400000 475500                    LDP5    0,,PR4
        27 003122   500000 236100                    LDQ     0,,PR5
        27 003123   040000 316007                    CANQ    16384,DL
        27 003124   003131 601000 27                 TNZ     s:23174

      979    23171    3                NOT ROP$$ -> LX_ETT_ITEM.B.ALL   THEN    /*#33283*/
      980    23172    3              ID = %MVRL;

  23172 27 003125   000250 235007                    LDA     168,DL
        27 003126   200167 476500                    LDP6    @ID,,AUTO
        27 003127   600000 755100                    STA     0,,PR6
        27 003130   003163 710000 27                 TRA     s:23192

      981    23173    3            ELSE
      982    23174    3              ID = %MVAN;

PL6.E3A0      #001=Z8E7$STMT_ASSIGNMENT File=Z8E7.:Z8A6TSI                       SAT 08/09/97 11:35 Page:196
  23174 27 003131   000254 236007                    LDQ     172,DL
        27 003132   200167 474500                    LDP4    @ID,,AUTO
        27 003133   400000 756100                    STQ     0,,PR4
        27 003134   003163 710000 27                 TRA     s:23192

      983    23175
      984    23176    3          CASE(%TYH);

      985    23177    3            ID = %MVHH;

  23177 27 003135   000251 235007                    LDA     169,DL
        27 003136   200167 473500                    LDP3    @ID,,AUTO
        27 003137   300000 755100                    STA     0,,PR3
        27 003140   003163 710000 27                 TRA     s:23192

      986    23178
      987    23179    3          CASE(%TYJ);

      988    23180    3            ID = %MVJJ;

  23180 27 003141   000262 235007                    LDA     178,DL
        27 003142   200167 473500                    LDP3    @ID,,AUTO
        27 003143   300000 755100                    STA     0,,PR3
        27 003144   003163 710000 27                 TRA     s:23192

      989    23181
      990    23182    3          CASE(%TYK);

      991    23183    3            ID = %MVKK;

  23183 27 003145   000267 235007                    LDA     183,DL
        27 003146   200167 473500                    LDP3    @ID,,AUTO
        27 003147   300000 755100                    STA     0,,PR3
        27 003150   003163 710000 27                 TRA     s:23192

      992    23184
      993    23185    3          CASE(ELSE);
PL6.E3A0      #001=Z8E7$STMT_ASSIGNMENT File=Z8E7.:Z8A6TSI                       SAT 08/09/97 11:35 Page:197

      994    23186    3            CALL Z8AE$ERROR(%E$UNEXPECTED_CASE,

  23186 27 003151   100006 633500                    EPPR3   6,,PR1
        27 003152   200432 453500                    STP3    I+4,,AUTO
        27 003153   100005 634500                    EPPR4   5,,PR1
        27 003154   200431 454500                    STP4    I+3,,AUTO
        27 003155   000026 236000 28                 LDQ     22
        27 003156   200430 756100                    STQ     I+2,,AUTO
        27 003157   200430 630500                    EPPR0   I+2,,AUTO
        27 003160   000016 631400 28                 EPPR1   14
        27 003161   000000 701000 xent               TSX1    Z8AE$ERROR
        27 003162   000000 011000                    NOP     0

      995    23187    3                            LOP$$ -> LX_ITEM.LINE,
      996    23188    3                            LOP$$ -> LX_ITEM.COLUMN);
      997    23189
      998    23190    3        END /*V* Case */;

      999    23191
     1000    23192    2   END MOVE_ID; /*V* Proc */

  23192 27 003163   200164 221300                    LDX1  ! LOWER_LX_ETT_ITEM+8,,AUTO
        27 003164   000001 702211                    TSX2  ! 1,X1

     1001    23193
     1002    23194        %EJECT;
PL6.E3A0      #001=Z8E7$STMT_ASSIGNMENT File=Z8E7.:Z8A6TSI                       SAT 08/09/97 11:35 Page:198
     1003    23195        /*==========*/
     1004    23196    1     MFILL_OPTZ: PROC (LOP$$, ROP$$);

  23196 27 003165   200202 741300       MFILL_OPTZ   STX1  ! @TYPE_DESC,,AUTO

     1005    23197        /*==========*/
     1006    23198
     1007    23199    2        DCL LOP$$         PTR;
     1008    23200    2        DCL ROP$$         PTR;
     1009    23201
     1010    23202    2        DCL ROP_ST$       PTR;
     1011    23203    2        DCL LOP_ST$       PTR ;
     1012    23204    2        DCL FILL_CHAR     CHAR (1) ;
     1013    23205    2        DCL 1 FILL_CHAR1  REDEF FILL_CHAR,
     1014    23206    2              2 BCD_CHAR  BIT (6),
     1015    23207    2              2 *         BIT (3);
     1016    23208    2        DCL 1 FILL_CHAR2  REDEF FILL_CHAR,
     1017    23209    2              2 MBZ       BIT (3),
     1018    23210    2              2 BCD_CHAR  BIT (6);
     1019    23211
     1020    23212    2        DCL 1 LOP_DESC    ALIGNED,
     1021    23213                   %TYPE_DESC;
     1022    23247
     1023    23248
     1024    23249
     1025    23250             %FISH (TRIAD = ROP$$ -> LX_ETT_ITEM.ETT$,
     1026    23251                    RTN   = ROP_ST$);

  23253 27 003166   200204 470500                    LDP0    @ROP$$,,AUTO
        27 003167   000000 471500                    LDP1    0,,PR0
        27 003170   100001 236100                    LDQ     1,,PR1
        27 003171   200205 756100                    STQ     ROP_ST$,,AUTO

  23254 27 003172   200205 473500                    LDP3    ROP_ST$,,AUTO
        27 003173   300000 220100                    LDX0    0,,PR3
        27 003174   000751 100003                    CMPX0   489,DU
        27 003175   003205 603000 27                 TRC     s:23260
PL6.E3A0      #001=Z8E7$STMT_ASSIGNMENT File=Z8E7.:Z8A6TSI                       SAT 08/09/97 11:35 Page:199

  23255 27 003176   200205 470500                    LDP0    ROP_ST$,,AUTO
        27 003177   000001 236100                    LDQ     1,,PR0
        27 003200   200205 756100                    STQ     ROP_ST$,,AUTO

  23256 27 003201   200205 470500                    LDP0    ROP_ST$,,AUTO
        27 003202   000000 220100                    LDX0    0,,PR0
        27 003203   000751 100003                    CMPX0   489,DU
        27 003204   003176 602000 27                 TNC     s:23255

     1027    23259
     1028    23260    2        CALL Z8AU$TYPE_DESCRIPTOR (LOP$$ -> LX_ETT_ITEM.ETT$, LOP_DESC);

  23260 27 003205   200203 470500                    LDP0    @LOP$$,,AUTO
        27 003206   000000 471500                    LDP1    0,,PR0
        27 003207   200210 633500                    EPPR3   LOP_DESC,,AUTO
        27 003210   200431 453500                    STP3    I+3,,AUTO
        27 003211   100001 634500                    EPPR4   1,,PR1
        27 003212   200430 454500                    STP4    I+2,,AUTO
        27 003213   200430 630500                    EPPR0   I+2,,AUTO
        27 003214   000000 631400 28                 EPPR1   0
        27 003215   000000 701000 xent               TSX1    Z8AU$TYPE_DESCRIPTOR
        27 003216   000000 011000                    NOP     0

     1029    23261
     1030    23262    2        IF  LOP$$ -> LX_ETT_ITEM.TYPE = %TYN

  23262 27 003217   200203 470500                    LDP0    @LOP$$,,AUTO
        27 003220   000000 471500                    LDP1    0,,PR0
        27 003221   100004 235100                    LDA     4,,PR1
        27 003222   000016 115007                    CMPA    14,DL
        27 003223   003242 601000 27                 TNZ     s:23268
        27 003224   200205 473500                    LDP3    ROP_ST$,,AUTO
        27 003225   300006 474500                    LDP4    6,,PR3
        27 003226   400004 220100                    LDX0    4,,PR4
        27 003227   040000 106540                    CMPC    fill='040'O
        27 003230   400004 400010                    ADSC9   4,,PR4                   cn=2,n=*X0
PL6.E3A0      #001=Z8E7$STMT_ASSIGNMENT File=Z8E7.:Z8A6TSI                       SAT 08/09/97 11:35 Page:200
        27 003231   000141 000005 26                 ADSC9   ZERO_BYTE+1              cn=0,n=5
        27 003232   003237 600000 27                 TZE     s:23265
        27 003233   040000 106540                    CMPC    fill='040'O
        27 003234   400004 400010                    ADSC9   4,,PR4                   cn=2,n=*X0
        27 003235   000143 000006 26                 ADSC9   ZERO_BYTE+3              cn=0,n=6
        27 003236   003242 601000 27                 TNZ     s:23268

     1031    23263    2        AND (ROP_ST$ -> ST.DNT$ -> DNT.TEXT.NAME = 'SPACE'
     1032    23264    2          OR ROP_ST$ -> ST.DNT$ -> DNT.TEXT.NAME = 'SPACES') THEN
     1033    23265    2          FILL_CHAR = %KANJI_SPACE ;

  23265 27 003237   241000 236003                    LDQ     82432,DU
        27 003240   200207 552140                    STBQ    FILL_CHAR,'40'O,AUTO
        27 003241   003260 710000 27                 TRA     s:23277

     1034    23266    2        ELSE
     1035    23267    3          DO ;

     1036    23268    3            FILL_CHAR = SUBSTR (ROP_ST$ -> CONST.CONSTA, 0, 1) ;

  23268 27 003242   200205 473500                    LDP3    ROP_ST$,,AUTO
        27 003243   300010 236100                    LDQ     8,,PR3
        27 003244   200207 552140                    STBQ    FILL_CHAR,'40'O,AUTO

     1037    23269    3            IF LOP$$ -> LX_ETT_ITEM.TYPE = %TYB

  23269 27 003245   000014 115007                    CMPA    12,DL
        27 003246   003251 600000 27                 TZE     s:23272
        27 003247   000023 115007                    CMPA    19,DL
        27 003250   003260 601000 27                 TNZ     s:23277

     1038    23270    3                OR LOP$$ -> LX_ETT_ITEM.TYPE = %TYC THEN
     1039    23271    4              DO ;

     1040    23272    4                FILL_CHAR2.BCD_CHAR = FILL_CHAR1.BCD_CHAR ;

  23272 27 003251   200207 236100                    LDQ     FILL_CHAR,,AUTO
PL6.E3A0      #001=Z8E7$STMT_ASSIGNMENT File=Z8E7.:Z8A6TSI                       SAT 08/09/97 11:35 Page:201
        27 003252   000003 772000                    QRL     3
        27 003253   200207 676100                    ERQ     FILL_CHAR,,AUTO
        27 003254   077000 376003                    ANQ     32256,DU
        27 003255   200207 656100                    ERSQ    FILL_CHAR,,AUTO

     1041    23273    4                FILL_CHAR2.MBZ = '0'B ;

  23273 27 003256   000045 236000 28                 LDQ     37
        27 003257   200207 356100                    ANSQ    FILL_CHAR,,AUTO

     1042    23274    4              END ;

     1043    23275    3          END ;

     1044    23276
     1045    23277    2        IF LOP_DESC.SIZ$ = ADDR(NIL)

  23277 27 003260   200212 236100                    LDQ     ROP_ST$+1,,AUTO
        27 003261   000001 116000 28                 CMPQ    1
        27 003262   003323 601000 27                 TNZ     s:23559
        27 003263   200207 236100                    LDQ     FILL_CHAR,,AUTO
        27 003264   777000 376003                    ANQ     -512,DU
        27 003265   241000 116003                    CMPQ    82432,DU
        27 003266   003323 600000 27                 TZE     s:23559
        27 003267   000014 115007                    CMPA    12,DL
        27 003270   003323 600000 27                 TZE     s:23559
        27 003271   000023 115007                    CMPA    19,DL
        27 003272   003323 600000 27                 TZE     s:23559
        27 003273   200211 236100                    LDQ     SEND_DESC,,AUTO
        27 003274   007777 376007                    ANQ     4095,DL
        27 003275   000010 116007                    CMPQ    8,DL
        27 003276   003302 601000 27                 TNZ     s:23277+18
        27 003277   200211 236100                    LDQ     SEND_DESC,,AUTO
        27 003300   600000 316007                    CANQ    -65536,DL
        27 003301   003313 600000 27                 TZE     s:23286
        27 003302   200211 236100                    LDQ     SEND_DESC,,AUTO
        27 003303   007777 376007                    ANQ     4095,DL
PL6.E3A0      #001=Z8E7$STMT_ASSIGNMENT File=Z8E7.:Z8A6TSI                       SAT 08/09/97 11:35 Page:202
        27 003304   200430 756100                    STQ     I+2,,AUTO
        27 003305   200211 236100                    LDQ     SEND_DESC,,AUTO
        27 003306   000020 772000                    QRL     16
        27 003307   000003 376007                    ANQ     3,DL
        27 003310   200430 036100                    ADLQ    I+2,,AUTO
        27 003311   000005 116007                    CMPQ    5,DL
        27 003312   003323 603000 27                 TRC     s:23559

     1046    23278    2        AND FILL_CHAR ~= %KANJI_SPACE
     1047    23279    2        AND LOP$$ -> LX_ETT_ITEM.TYPE ~= %TYB
     1048    23280    2        AND LOP$$ -> LX_ETT_ITEM.TYPE ~= %TYC
     1049    23281    2        AND ((LOP_DESC.DESC.ADSC.N = 8
     1050    23282    2              AND LOP_DESC.DESC.ADSC.CN = 0)
     1051    23283    2              OR (LOP_DESC.DESC.ADSC.CN +
     1052    23284    2                  LOP_DESC.DESC.ADSC.N <= 4)) THEN
     1053    23285    3          DO;

     1054    23286    3            CALL MOVE_ALL_OPTZ (LOP$$, ROP$$);

  23286 27 003313   200204 236100                    LDQ     @ROP$$,,AUTO
        27 003314   200216 756100                    STQ     SEND_ST$,,AUTO
        27 003315   200203 236100                    LDQ     @LOP$$,,AUTO
        27 003316   200215 756100                    STQ     REC_ST$,,AUTO
        27 003317   011476 701000 27                 TSX1    MOVE_ALL_OPTZ
        27 003320   000000 011000                    NOP     0

     1055    23287    3            RETURN;

  23287 27 003321   200202 221300                    LDX1  ! @TYPE_DESC,,AUTO
        27 003322   000001 702211                    TSX2  ! 1,X1

     1056    23288    3          END; /*V* Optimized case MFILL */
     1057    23289
     1058    23290             %NEW_ILL (@ID    = %MFILL,
     1059    23291                       @LOP   = LOP$$ -> LX_ETT_ITEM.ETT$,
     1060    23292                       @FILL  = FILL_CHAR);

PL6.E3A0      #001=Z8E7$STMT_ASSIGNMENT File=Z8E7.:Z8A6TSI                       SAT 08/09/97 11:35 Page:203
  23559 27 003323   000000 471500                    LDP1    0,,PR0
        27 003324   000036 236000 28                 LDQ     30
        27 003325   200430 756100                    STQ     I+2,,AUTO
        27 003326   100001 634500                    EPPR4   1,,PR1
        27 003327   200435 454500                    STP4    I+7,,AUTO
        27 003330   200430 631500                    EPPR1   I+2,,AUTO
        27 003331   200434 451500                    STP1    I+6,,AUTO
        27 003332   000050 237000 28                 LDAQ    40
        27 003333   200432 757100                    STAQ    I+4,,AUTO
        27 003334   000052 236000 28                 LDQ     42
        27 003335   200431 756100                    STQ     I+3,,AUTO
        27 003336   200431 630500                    EPPR0   I+3,,AUTO
        27 003337   000042 631400 28                 EPPR1   34
        27 003340   000000 701000 xent               TSX1    Z8AN$NEW_ILL1
        27 003341   000000 011000                    NOP     0

  23561 27 003342   200203 470500                    LDP0    @LOP$$,,AUTO
        27 003343   000000 471500                    LDP1    0,,PR0
        27 003344   100001 236100                    LDQ     1,,PR1
        27 003345   000000 473400 6                  LDP3    ILL$
        27 003346   300001 756100                    STQ     1,,PR3

  23562 27 003347   200207 236100                    LDQ     FILL_CHAR,,AUTO
        27 003350   000022 772000                    QRL     18
        27 003351   300000 552110                    STBQ    0,'10'O,PR3

     1061    23671
     1062    23672    2   END MFILL_OPTZ;

  23672 27 003352   200202 221300                    LDX1  ! @TYPE_DESC,,AUTO
        27 003353   000001 702211                    TSX2  ! 1,X1

     1063    23673        %EJECT;
PL6.E3A0      #001=Z8E7$STMT_ASSIGNMENT File=Z8E7.:Z8A6TSI                       SAT 08/09/97 11:35 Page:204
     1064    23674        /*==================*/
     1065    23675    1     MOVE_OPTIMIZATIONS: PROC (LOP$$, ROP$$, ID);

  23675 27 003354   200164 741300       MOVE_OPTIMI* STX1  ! LOWER_LX_ETT_ITEM+8,,AUTO
        27 003355   003431 710000 27                 TRA     s:23785

     1066    23676        /*==================*/
     1067    23677
     1068    23678    2        DCL LOP$$         PTR;
     1069    23679    2        DCL ROP$$         PTR;
     1070    23680    2        DCL ID            SBIN WORD;
     1071    23681
     1072    23682    2        DCL MORE_OPTIMIZATIONS   BIT (1) ALIGNED;
     1073    23683    2        DCL ROP_ST$              PTR;
     1074    23684    2        DCL FROM$$               PTR;
     1075    23685    2        DCL ETT$$                PTR;
     1076    23686    2        DCL CODE                 UBIN;
     1077    23687    2        DCL 1 LOP_DESC           ALIGNED,
     1078    23688                  %TYPE_DESC;
     1079    23722
     1080    23723    2        DCL SYMBOL               UBIN;
     1081    23724
     1082    23725    2      DEC_AS_OVERP : PROC (ETT$) ALTRET;

  23725 27 003356   200202 741300       DEC_AS_OVERP STX1  ! @TYPE_DESC,,AUTO

     1083    23726
     1084    23727    3       DCL ETT$ PTR;
     1085    23728
     1086    23729    3       DCL 1 TYPE_DESC,
     1087    23730                  %TYPE_DESC;
     1088    23764
     1089    23765    3       CALL Z8AU$TYPE_DESCRIPTOR (ETT$ -> ETT.LOP, TYPE_DESC);

  23765 27 003357   200203 470500                    LDP0    @ETT$,,AUTO
        27 003360   000000 471500                    LDP1    0,,PR0
        27 003361   200204 633500                    EPPR3   TYPE_DESC,,AUTO
PL6.E3A0      #001=Z8E7$STMT_ASSIGNMENT File=Z8E7.:Z8A6TSI                       SAT 08/09/97 11:35 Page:205
        27 003362   200431 453500                    STP3    I+3,,AUTO
        27 003363   100001 634500                    EPPR4   1,,PR1
        27 003364   200430 454500                    STP4    I+2,,AUTO
        27 003365   200430 630500                    EPPR0   I+2,,AUTO
        27 003366   000000 631400 28                 EPPR1   0
        27 003367   000000 701000 xent               TSX1    Z8AU$TYPE_DESCRIPTOR
        27 003370   000000 011000                    NOP     0

     1090    23766
     1091    23767    3       IF  TYPE_DESC.DESC.NDSC.TN = %NDSC9

  23767 27 003371   200205 236100                    LDQ     ROP_ST$,,AUTO
        27 003372   040000 316007                    CANQ    16384,DL
        27 003373   003403 601000 27                 TNZ     s:23772
        27 003374   200204 235100                    LDA     TYPE_DESC,,AUTO
        27 003375   003403 601000 27                 TNZ     s:23772
        27 003376   030000 376007                    ANQ     12288,DL
        27 003377   030000 116007                    CMPQ    12288,DL
        27 003400   003403 601000 27                 TNZ     s:23772

     1092    23768    3       AND TYPE_DESC.TYPE         = %TYD
     1093    23769    3       AND TYPE_DESC.DESC.NDSC.S  = %NO_SIGN THEN
     1094    23770    3         ALTRETURN;

  23770 27 003401   200202 221300                    LDX1  ! @TYPE_DESC,,AUTO
        27 003402   000000 702211                    TSX2  ! 0,X1

     1095    23771
     1096    23772    3       CALL Z8AU$TYPE_DESCRIPTOR (ETT$ -> ETT.ROP, TYPE_DESC);

  23772 27 003403   200203 470500                    LDP0    @ETT$,,AUTO
        27 003404   000000 471500                    LDP1    0,,PR0
        27 003405   200204 633500                    EPPR3   TYPE_DESC,,AUTO
        27 003406   200431 453500                    STP3    I+3,,AUTO
        27 003407   100002 634500                    EPPR4   2,,PR1
        27 003410   200430 454500                    STP4    I+2,,AUTO
        27 003411   200430 630500                    EPPR0   I+2,,AUTO
PL6.E3A0      #001=Z8E7$STMT_ASSIGNMENT File=Z8E7.:Z8A6TSI                       SAT 08/09/97 11:35 Page:206
        27 003412   000000 631400 28                 EPPR1   0
        27 003413   000000 701000 xent               TSX1    Z8AU$TYPE_DESCRIPTOR
        27 003414   000000 011000                    NOP     0

     1097    23773
     1098    23774    3       IF  TYPE_DESC.DESC.NDSC.TN = %NDSC9

  23774 27 003415   200205 236100                    LDQ     ROP_ST$,,AUTO
        27 003416   040000 316007                    CANQ    16384,DL
        27 003417   003427 601000 27                 TNZ     s:23779
        27 003420   200204 235100                    LDA     TYPE_DESC,,AUTO
        27 003421   003427 601000 27                 TNZ     s:23779
        27 003422   030000 376007                    ANQ     12288,DL
        27 003423   030000 116007                    CMPQ    12288,DL
        27 003424   003427 601000 27                 TNZ     s:23779

     1099    23775    3       AND TYPE_DESC.TYPE         = %TYD
     1100    23776    3       AND TYPE_DESC.DESC.NDSC.S  = %NO_SIGN THEN
     1101    23777    3         ALTRETURN;

  23777 27 003425   200202 221300                    LDX1  ! @TYPE_DESC,,AUTO
        27 003426   000000 702211                    TSX2  ! 0,X1

     1102    23778
     1103    23779    3       RETURN;

  23779 27 003427   200202 221300                    LDX1  ! @TYPE_DESC,,AUTO
        27 003430   000001 702211                    TSX2  ! 1,X1

     1104    23780
     1105    23781    3     END DEC_AS_OVERP;
     1106    23782
     1107    23783
     1108    23784    3        DO UNTIL (NOT MORE_OPTIMIZATIONS);

     1109    23785    3          MORE_OPTIMIZATIONS = FALSE;

PL6.E3A0      #001=Z8E7$STMT_ASSIGNMENT File=Z8E7.:Z8A6TSI                       SAT 08/09/97 11:35 Page:207
  23785 27 003431   200170 450100                    STZ     MORE_OPTIMIZATIONS,,AUTO

     1110    23786
     1111    23787
     1112    23788    4          DO CASE(ID);

  23788 27 003432   200167 470500                    LDP0    @ID,,AUTO
        27 003433   000000 235100                    LDA     0,,PR0
        27 003434   000243 135007                    SBLA    163,DL
        27 003435   000161 115007                    CMPA    113,DL
        27 003436   003440 602005 27                 TNC     s:23788+6,AL
        27 003437   006636 710000 27                 TRA     s:30250
        27 003440   004541 710000 27                 TRA     s:25834
        27 003441   004541 710000 27                 TRA     s:25834
        27 003442   003767 710000 27                 TRA     s:24205
        27 003443   004262 710000 27                 TRA     s:24644
        27 003444   004334 710000 27                 TRA     s:25038
        27 003445   006636 710000 27                 TRA     s:30250
        27 003446   006636 710000 27                 TRA     s:30250
        27 003447   006636 710000 27                 TRA     s:30250
        27 003450   006636 710000 27                 TRA     s:30250
        27 003451   003621 710000 27                 TRA     s:23792
        27 003452   006636 710000 27                 TRA     s:30250
        27 003453   006636 710000 27                 TRA     s:30250
        27 003454   006450 710000 27                 TRA     s:29516
        27 003455   006636 710000 27                 TRA     s:30250
        27 003456   006636 710000 27                 TRA     s:30250
        27 003457   006636 710000 27                 TRA     s:30250
        27 003460   006004 710000 27                 TRA     s:29048
        27 003461   006636 710000 27                 TRA     s:30250
        27 003462   006636 710000 27                 TRA     s:30250
        27 003463   006636 710000 27                 TRA     s:30250
        27 003464   006636 710000 27                 TRA     s:30250
        27 003465   006636 710000 27                 TRA     s:30250
        27 003466   006636 710000 27                 TRA     s:30250
        27 003467   006636 710000 27                 TRA     s:30250
        27 003470   006636 710000 27                 TRA     s:30250
PL6.E3A0      #001=Z8E7$STMT_ASSIGNMENT File=Z8E7.:Z8A6TSI                       SAT 08/09/97 11:35 Page:208
        27 003471   006636 710000 27                 TRA     s:30250
        27 003472   006636 710000 27                 TRA     s:30250
        27 003473   006636 710000 27                 TRA     s:30250
        27 003474   006636 710000 27                 TRA     s:30250
        27 003475   006636 710000 27                 TRA     s:30250
        27 003476   006636 710000 27                 TRA     s:30250
        27 003477   006636 710000 27                 TRA     s:30250
        27 003500   006636 710000 27                 TRA     s:30250
        27 003501   006636 710000 27                 TRA     s:30250
        27 003502   006636 710000 27                 TRA     s:30250
        27 003503   006636 710000 27                 TRA     s:30250
        27 003504   006636 710000 27                 TRA     s:30250
        27 003505   006636 710000 27                 TRA     s:30250
        27 003506   006636 710000 27                 TRA     s:30250
        27 003507   006636 710000 27                 TRA     s:30250
        27 003510   006636 710000 27                 TRA     s:30250
        27 003511   006636 710000 27                 TRA     s:30250
        27 003512   006636 710000 27                 TRA     s:30250
        27 003513   006636 710000 27                 TRA     s:30250
        27 003514   006636 710000 27                 TRA     s:30250
        27 003515   006636 710000 27                 TRA     s:30250
        27 003516   006636 710000 27                 TRA     s:30250
        27 003517   006636 710000 27                 TRA     s:30250
        27 003520   006636 710000 27                 TRA     s:30250
        27 003521   006636 710000 27                 TRA     s:30250
        27 003522   006636 710000 27                 TRA     s:30250
        27 003523   006636 710000 27                 TRA     s:30250
        27 003524   006636 710000 27                 TRA     s:30250
        27 003525   006636 710000 27                 TRA     s:30250
        27 003526   006636 710000 27                 TRA     s:30250
        27 003527   006636 710000 27                 TRA     s:30250
        27 003530   006636 710000 27                 TRA     s:30250
        27 003531   006636 710000 27                 TRA     s:30250
        27 003532   006636 710000 27                 TRA     s:30250
        27 003533   006636 710000 27                 TRA     s:30250
        27 003534   006636 710000 27                 TRA     s:30250
        27 003535   006636 710000 27                 TRA     s:30250
PL6.E3A0      #001=Z8E7$STMT_ASSIGNMENT File=Z8E7.:Z8A6TSI                       SAT 08/09/97 11:35 Page:209
        27 003536   006636 710000 27                 TRA     s:30250
        27 003537   006636 710000 27                 TRA     s:30250
        27 003540   006636 710000 27                 TRA     s:30250
        27 003541   006636 710000 27                 TRA     s:30250
        27 003542   006636 710000 27                 TRA     s:30250
        27 003543   006636 710000 27                 TRA     s:30250
        27 003544   006636 710000 27                 TRA     s:30250
        27 003545   006636 710000 27                 TRA     s:30250
        27 003546   006636 710000 27                 TRA     s:30250
        27 003547   006636 710000 27                 TRA     s:30250
        27 003550   006636 710000 27                 TRA     s:30250
        27 003551   006636 710000 27                 TRA     s:30250
        27 003552   006636 710000 27                 TRA     s:30250
        27 003553   006636 710000 27                 TRA     s:30250
        27 003554   006636 710000 27                 TRA     s:30250
        27 003555   006636 710000 27                 TRA     s:30250
        27 003556   006636 710000 27                 TRA     s:30250
        27 003557   006636 710000 27                 TRA     s:30250
        27 003560   006636 710000 27                 TRA     s:30250
        27 003561   006636 710000 27                 TRA     s:30250
        27 003562   006636 710000 27                 TRA     s:30250
        27 003563   006636 710000 27                 TRA     s:30250
        27 003564   006636 710000 27                 TRA     s:30250
        27 003565   006636 710000 27                 TRA     s:30250
        27 003566   006636 710000 27                 TRA     s:30250
        27 003567   006636 710000 27                 TRA     s:30250
        27 003570   006636 710000 27                 TRA     s:30250
        27 003571   006636 710000 27                 TRA     s:30250
        27 003572   006636 710000 27                 TRA     s:30250
        27 003573   006636 710000 27                 TRA     s:30250
        27 003574   006636 710000 27                 TRA     s:30250
        27 003575   006636 710000 27                 TRA     s:30250
        27 003576   006636 710000 27                 TRA     s:30250
        27 003577   006636 710000 27                 TRA     s:30250
        27 003600   006636 710000 27                 TRA     s:30250
        27 003601   006636 710000 27                 TRA     s:30250
        27 003602   006636 710000 27                 TRA     s:30250
PL6.E3A0      #001=Z8E7$STMT_ASSIGNMENT File=Z8E7.:Z8A6TSI                       SAT 08/09/97 11:35 Page:210
        27 003603   006636 710000 27                 TRA     s:30250
        27 003604   006636 710000 27                 TRA     s:30250
        27 003605   006636 710000 27                 TRA     s:30250
        27 003606   006636 710000 27                 TRA     s:30250
        27 003607   006636 710000 27                 TRA     s:30250
        27 003610   006636 710000 27                 TRA     s:30250
        27 003611   006636 710000 27                 TRA     s:30250
        27 003612   004406 710000 27                 TRA     s:25432
        27 003613   006004 710000 27                 TRA     s:29048
        27 003614   006450 710000 27                 TRA     s:29516
        27 003615   006636 710000 27                 TRA     s:30250
        27 003616   006636 710000 27                 TRA     s:30250
        27 003617   006636 710000 27                 TRA     s:30250
        27 003620   004406 710000 27                 TRA     s:25432

     1113    23789    4            CASE(%MVAN);

     1114    23790                   %FISH(TRIAD = ROP$$ -> LX_ETT_ITEM.ETT$, RTN = ROP_ST$);

  23792 27 003621   200166 471500                    LDP1    @ROP$$,,AUTO
        27 003622   100000 473500                    LDP3    0,,PR1
        27 003623   300001 236100                    LDQ     1,,PR3
        27 003624   200171 756100                    STQ     ROP_ST$,,AUTO

  23793 27 003625   200171 474500                    LDP4    ROP_ST$,,AUTO
        27 003626   400000 220100                    LDX0    0,,PR4
        27 003627   000751 100003                    CMPX0   489,DU
        27 003630   003640 603000 27                 TRC     s:23799

  23794 27 003631   200171 470500                    LDP0    ROP_ST$,,AUTO
        27 003632   000001 236100                    LDQ     1,,PR0
        27 003633   200171 756100                    STQ     ROP_ST$,,AUTO

  23795 27 003634   200171 470500                    LDP0    ROP_ST$,,AUTO
        27 003635   000000 220100                    LDX0    0,,PR0
        27 003636   000751 100003                    CMPX0   489,DU
        27 003637   003631 602000 27                 TNC     s:23794
PL6.E3A0      #001=Z8E7$STMT_ASSIGNMENT File=Z8E7.:Z8A6TSI                       SAT 08/09/97 11:35 Page:211

     1115    23798
     1116    23799    4              IF ROP$$ -> LX_ETT_ITEM.B.ALL

  23799 27 003640   200166 470500                    LDP0    @ROP$$,,AUTO
        27 003641   000000 471500                    LDP1    0,,PR0
        27 003642   100000 236100                    LDQ     0,,PR1
        27 003643   040000 316007                    CANQ    16384,DL
        27 003644   003735 600000 27                 TZE     s:24135
        27 003645   200171 473500                    LDP3    ROP_ST$,,AUTO
        27 003646   300000 220100                    LDX0    0,,PR3
        27 003647   000767 100003                    CMPX0   503,DU
        27 003650   003735 601000 27                 TNZ     s:24135

     1117    23800    4              AND ROP_ST$ -> VARIABLE.ID = %CONST THEN
     1118    23801    5                DO;

     1119    23802    5                  CALL Z8AU$LENGTH_ETT(ROP$$ -> LX_ETT_ITEM.ETT$, ETT$$);

  23802 27 003651   200173 634500                    EPPR4   ETT$$,,AUTO
        27 003652   200431 454500                    STP4    I+3,,AUTO
        27 003653   100001 635500                    EPPR5   1,,PR1
        27 003654   200430 455500                    STP5    I+2,,AUTO
        27 003655   200430 630500                    EPPR0   I+2,,AUTO
        27 003656   000000 631400 28                 EPPR1   0
        27 003657   000000 701000 xent               TSX1    Z8AU$LENGTH_ETT
        27 003660   000000 011000                    NOP     0

     1120    23803
     1121    23804    5                  IF ETT$$ = COMCOM.VALUE_1 THEN

  23804 27 003661   200173 236100                    LDQ     ETT$$,,AUTO
        27 003662   000125 116000 xsym               CMPQ    COMCOM+85
        27 003663   003673 601000 27                 TNZ     s:23808

     1122    23805    5                    CALL MFILL_OPTZ (LOP$$, ROP$$);

PL6.E3A0      #001=Z8E7$STMT_ASSIGNMENT File=Z8E7.:Z8A6TSI                       SAT 08/09/97 11:35 Page:212
  23805 27 003664   200166 236100                    LDQ     @ROP$$,,AUTO
        27 003665   200204 756100                    STQ     @ROP$$,,AUTO
        27 003666   200165 236100                    LDQ     @LOP$$,,AUTO
        27 003667   200203 756100                    STQ     @LOP$$,,AUTO
        27 003670   003165 701000 27                 TSX1    MFILL_OPTZ
        27 003671   000000 011000                    NOP     0
        27 003672   006670 710000 27                 TRA     s:30317

     1123    23806    5                  ELSE
     1124    23807    6                    DO;

     1125    23808    6                      CALL Z8AU$LENGTH_ETT (LOP$$ -> LX_ETT_ITEM.ETT$,

  23808 27 003673   200165 470500                    LDP0    @LOP$$,,AUTO
        27 003674   000000 471500                    LDP1    0,,PR0
        27 003675   200016 633500                    EPPR3   LOP_LENGTH$,,AUTO
        27 003676   200431 453500                    STP3    I+3,,AUTO
        27 003677   100001 634500                    EPPR4   1,,PR1
        27 003700   200430 454500                    STP4    I+2,,AUTO
        27 003701   200430 630500                    EPPR0   I+2,,AUTO
        27 003702   000000 631400 28                 EPPR1   0
        27 003703   000000 701000 xent               TSX1    Z8AU$LENGTH_ETT
        27 003704   000000 011000                    NOP     0

     1126    23809    6                                            LOP_LENGTH$);
     1127    23810
     1128    23811    6                      IF LOP_LENGTH$ -> ETT.LOP -> CONST.CONSTI.WORD1

  23811 27 003705   200016 470500                    LDP0    LOP_LENGTH$,,AUTO
        27 003706   000001 471500                    LDP1    1,,PR0
        27 003707   100010 235100                    LDA     8,,PR1
        27 003710   001000 115007                    CMPA    512,DL
        27 003711   003726 605400 27                 TPNZ    s:23816
        27 003712   200165 473500                    LDP3    @LOP$$,,AUTO
        27 003713   300000 474500                    LDP4    0,,PR3
        27 003714   400004 235100                    LDA     4,,PR4
        27 003715   000014 115007                    CMPA    12,DL
PL6.E3A0      #001=Z8E7$STMT_ASSIGNMENT File=Z8E7.:Z8A6TSI                       SAT 08/09/97 11:35 Page:213
        27 003716   003726 600000 27                 TZE     s:23816

     1129    23812    6                      <= %MAX_BUF_LEN AND
     1130    23813    6                      LOP$$ -> LX_ETT_ITEM.TYPE ~= %TYB THEN
     1131    23814    6                        CALL MOVE_ALL_OPTZ (LOP$$, ROP$$);

  23814 27 003717   200166 236100                    LDQ     @ROP$$,,AUTO
        27 003720   200216 756100                    STQ     SEND_ST$,,AUTO
        27 003721   200165 236100                    LDQ     @LOP$$,,AUTO
        27 003722   200215 756100                    STQ     REC_ST$,,AUTO
        27 003723   011476 701000 27                 TSX1    MOVE_ALL_OPTZ
        27 003724   000000 011000                    NOP     0
        27 003725   006670 710000 27                 TRA     s:30317

     1132    23815    6                      ELSE
     1133    23816    6                        CALL MOVE_ALL (LOP$$, ROP$$);

  23816 27 003726   200166 236100                    LDQ     @ROP$$,,AUTO
        27 003727   200204 756100                    STQ     @ROP$$,,AUTO
        27 003730   200165 236100                    LDQ     @LOP$$,,AUTO
        27 003731   200203 756100                    STQ     @LOP$$,,AUTO
        27 003732   010651 701000 27                 TSX1    MOVE_ALL
        27 003733   000000 011000                    NOP     0

     1134    23817    6                    END;

     1135    23818    5                END;

  23818 27 003734   006670 710000 27                 TRA     s:30317

     1136    23819    4              ELSE
     1137    23820                     %NEW_ILL( @ID     = %MVAN ,
     1138    23821                               @LOP    = LOP$$ -> LX_ETT_ITEM.ETT$ ,
     1139    23822                               @ROP    = ROP$$ -> LX_ETT_ITEM.ETT$ );

  24135 27 003735   200165 473500                    LDP3    @LOP$$,,AUTO
        27 003736   300000 474500                    LDP4    0,,PR3
PL6.E3A0      #001=Z8E7$STMT_ASSIGNMENT File=Z8E7.:Z8A6TSI                       SAT 08/09/97 11:35 Page:214
        27 003737   000036 236000 28                 LDQ     30
        27 003740   200430 756100                    STQ     I+2,,AUTO
        27 003741   400001 631500                    EPPR1   1,,PR4
        27 003742   200435 451500                    STP1    I+7,,AUTO
        27 003743   200430 634500                    EPPR4   I+2,,AUTO
        27 003744   200434 454500                    STP4    I+6,,AUTO
        27 003745   000054 237000 28                 LDAQ    44
        27 003746   200432 757100                    STAQ    I+4,,AUTO
        27 003747   000052 236000 28                 LDQ     42
        27 003750   200431 756100                    STQ     I+3,,AUTO
        27 003751   200431 630500                    EPPR0   I+3,,AUTO
        27 003752   000042 631400 28                 EPPR1   34
        27 003753   000000 701000 xent               TSX1    Z8AN$NEW_ILL1
        27 003754   000000 011000                    NOP     0

  24138 27 003755   200165 470500                    LDP0    @LOP$$,,AUTO
        27 003756   000000 471500                    LDP1    0,,PR0
        27 003757   100001 236100                    LDQ     1,,PR1
        27 003760   000000 473400 6                  LDP3    ILL$
        27 003761   300001 756100                    STQ     1,,PR3

  24139 27 003762   200166 471500                    LDP1    @ROP$$,,AUTO
        27 003763   100000 474500                    LDP4    0,,PR1
        27 003764   400001 236100                    LDQ     1,,PR4
        27 003765   300002 756100                    STQ     2,,PR3

  24171 27 003766   006670 710000 27                 TRA     s:30317

     1140    24201
     1141    24202          %EJECT;
PL6.E3A0      #001=Z8E7$STMT_ASSIGNMENT File=Z8E7.:Z8A6TSI                       SAT 08/09/97 11:35 Page:215
     1142    24203    4            CASE (%MVII);

     1143    24204
     1144    24205    5              DO CASE (ROP$$ -> LX_ETT_ITEM.ETT$ -> ETT.ID);

  24205 27 003767   200166 471500                    LDP1    @ROP$$,,AUTO
        27 003770   100000 473500                    LDP3    0,,PR1
        27 003771   300001 474500                    LDP4    1,,PR3
        27 003772   400000 236100                    LDQ     0,,PR4
        27 003773   000022 772000                    QRL     18
        27 003774   000024 136007                    SBLQ    20,DL
        27 003775   000110 116007                    CMPQ    72,DL
        27 003776   004000 602006 27                 TNC     s:24205+9,QL
        27 003777   004227 710000 27                 TRA     s:24575
        27 004000   004217 710000 27                 TRA     s:24253
        27 004001   004227 710000 27                 TRA     s:24575
        27 004002   004227 710000 27                 TRA     s:24575
        27 004003   004227 710000 27                 TRA     s:24575
        27 004004   004227 710000 27                 TRA     s:24575
        27 004005   004227 710000 27                 TRA     s:24575
        27 004006   004227 710000 27                 TRA     s:24575
        27 004007   004227 710000 27                 TRA     s:24575
        27 004010   004227 710000 27                 TRA     s:24575
        27 004011   004227 710000 27                 TRA     s:24575
        27 004012   004227 710000 27                 TRA     s:24575
        27 004013   004227 710000 27                 TRA     s:24575
        27 004014   004227 710000 27                 TRA     s:24575
        27 004015   004227 710000 27                 TRA     s:24575
        27 004016   004227 710000 27                 TRA     s:24575
        27 004017   004227 710000 27                 TRA     s:24575
        27 004020   004227 710000 27                 TRA     s:24575
        27 004021   004227 710000 27                 TRA     s:24575
        27 004022   004227 710000 27                 TRA     s:24575
        27 004023   004227 710000 27                 TRA     s:24575
        27 004024   004227 710000 27                 TRA     s:24575
        27 004025   004227 710000 27                 TRA     s:24575
        27 004026   004227 710000 27                 TRA     s:24575
PL6.E3A0      #001=Z8E7$STMT_ASSIGNMENT File=Z8E7.:Z8A6TSI                       SAT 08/09/97 11:35 Page:216
        27 004027   004227 710000 27                 TRA     s:24575
        27 004030   004110 710000 27                 TRA     s:24208
        27 004031   004227 710000 27                 TRA     s:24575
        27 004032   004131 710000 27                 TRA     s:24221
        27 004033   004227 710000 27                 TRA     s:24575
        27 004034   004227 710000 27                 TRA     s:24575
        27 004035   004227 710000 27                 TRA     s:24575
        27 004036   004227 710000 27                 TRA     s:24575
        27 004037   004227 710000 27                 TRA     s:24575
        27 004040   004227 710000 27                 TRA     s:24575
        27 004041   004227 710000 27                 TRA     s:24575
        27 004042   004227 710000 27                 TRA     s:24575
        27 004043   004227 710000 27                 TRA     s:24575
        27 004044   004227 710000 27                 TRA     s:24575
        27 004045   004227 710000 27                 TRA     s:24575
        27 004046   004227 710000 27                 TRA     s:24575
        27 004047   004227 710000 27                 TRA     s:24575
        27 004050   004227 710000 27                 TRA     s:24575
        27 004051   004227 710000 27                 TRA     s:24575
        27 004052   004227 710000 27                 TRA     s:24575
        27 004053   004227 710000 27                 TRA     s:24575
        27 004054   004227 710000 27                 TRA     s:24575
        27 004055   004227 710000 27                 TRA     s:24575
        27 004056   004227 710000 27                 TRA     s:24575
        27 004057   004227 710000 27                 TRA     s:24575
        27 004060   004227 710000 27                 TRA     s:24575
        27 004061   004227 710000 27                 TRA     s:24575
        27 004062   004227 710000 27                 TRA     s:24575
        27 004063   004227 710000 27                 TRA     s:24575
        27 004064   004227 710000 27                 TRA     s:24575
        27 004065   004227 710000 27                 TRA     s:24575
        27 004066   004227 710000 27                 TRA     s:24575
        27 004067   004227 710000 27                 TRA     s:24575
        27 004070   004227 710000 27                 TRA     s:24575
        27 004071   004227 710000 27                 TRA     s:24575
        27 004072   004227 710000 27                 TRA     s:24575
        27 004073   004227 710000 27                 TRA     s:24575
PL6.E3A0      #001=Z8E7$STMT_ASSIGNMENT File=Z8E7.:Z8A6TSI                       SAT 08/09/97 11:35 Page:217
        27 004074   004227 710000 27                 TRA     s:24575
        27 004075   004227 710000 27                 TRA     s:24575
        27 004076   004227 710000 27                 TRA     s:24575
        27 004077   004227 710000 27                 TRA     s:24575
        27 004100   004227 710000 27                 TRA     s:24575
        27 004101   004227 710000 27                 TRA     s:24575
        27 004102   004227 710000 27                 TRA     s:24575
        27 004103   004227 710000 27                 TRA     s:24575
        27 004104   004227 710000 27                 TRA     s:24575
        27 004105   004227 710000 27                 TRA     s:24575
        27 004106   004143 710000 27                 TRA     s:24228
        27 004107   004206 710000 27                 TRA     s:24246

     1145    24206
     1146    24207    5                CASE (%ADI);

     1147    24208    5                  IF LOP$$ -> LX_ETT_ITEM.ETT$ = ROP$$ -> LX_ETT_ITEM.ETT$ -> ETT.LOP
             24208                           THEN

  24208 27 004110   200165 475500                    LDP5    @LOP$$,,AUTO
        27 004111   500000 476500                    LDP6    0,,PR5
        27 004112   600001 236100                    LDQ     1,,PR6
        27 004113   400001 116100                    CMPQ    1,,PR4
        27 004114   004122 601000 27                 TNZ     s:24214

     1148    24209    6                    DO;

     1149    24210    6                     ROP$$ -> LX_ETT_ITEM.ETT$ = ROP$$ -> LX_ETT_ITEM.ETT$ -> ETT.ROP;

  24210 27 004115   400002 236100                    LDQ     2,,PR4
        27 004116   300001 756100                    STQ     1,,PR3

     1150    24211    6                      ID = %AD2I;

  24211 27 004117   000230 235007                    LDA     152,DL
        27 004120   000000 755100                    STA     0,,PR0

PL6.E3A0      #001=Z8E7$STMT_ASSIGNMENT File=Z8E7.:Z8A6TSI                       SAT 08/09/97 11:35 Page:218
     1151    24212    6                    END;

  24212 27 004121   004227 710000 27                 TRA     s:24575

     1152    24213    5                  ELSE
     1153    24214    5                   IF LOP$$ -> LX_ETT_ITEM.ETT$ = ROP$$ -> LX_ETT_ITEM.ETT$ -> ETT.ROP
             24214                             THEN

  24214 27 004122   400002 116100                    CMPQ    2,,PR4
        27 004123   004227 601000 27                 TNZ     s:24575

     1154    24215    6                      DO;

     1155    24216    6                        ROP$$ -> LX_ETT_ITEM.ETT$ = ROP$$ -> LX_ETT_ITEM.ETT$ -> ETT.
             24216                                 LOP;

  24216 27 004124   400001 236100                    LDQ     1,,PR4
        27 004125   300001 756100                    STQ     1,,PR3

     1156    24217    6                        ID = %AD2I;

  24217 27 004126   000230 235007                    LDA     152,DL
        27 004127   000000 755100                    STA     0,,PR0

     1157    24218    6                      END;

  24218 27 004130   004227 710000 27                 TRA     s:24575

     1158    24219
     1159    24220    5                CASE (%SBI);

     1160    24221    5                  IF LOP$$ -> LX_ETT_ITEM.ETT$ = ROP$$ -> LX_ETT_ITEM.ETT$ -> ETT.LOP
             24221                           THEN

  24221 27 004131   200165 475500                    LDP5    @LOP$$,,AUTO
        27 004132   500000 476500                    LDP6    0,,PR5
        27 004133   600001 236100                    LDQ     1,,PR6
PL6.E3A0      #001=Z8E7$STMT_ASSIGNMENT File=Z8E7.:Z8A6TSI                       SAT 08/09/97 11:35 Page:219
        27 004134   400001 116100                    CMPQ    1,,PR4
        27 004135   004227 601000 27                 TNZ     s:24575

     1161    24222    6                    DO;

     1162    24223    6                     ROP$$ -> LX_ETT_ITEM.ETT$ = ROP$$ -> LX_ETT_ITEM.ETT$ -> ETT.ROP;

  24223 27 004136   400002 236100                    LDQ     2,,PR4
        27 004137   300001 756100                    STQ     1,,PR3

     1163    24224    6                      ID = %SB2I;

  24224 27 004140   000233 235007                    LDA     155,DL
        27 004141   000000 755100                    STA     0,,PR0

     1164    24225    6                    END;

  24225 27 004142   004227 710000 27                 TRA     s:24575

     1165    24226
     1166    24227    5                CASE (%CVDI);

     1167    24228    5                  CALL Z8AU$TYPE_DESCRIPTOR (ROP$$ -> LX_ETT_ITEM.ETT$,

  24228 27 004143   200050 635500                    EPPR5   ROP_DESC,,AUTO
        27 004144   200431 455500                    STP5    I+3,,AUTO
        27 004145   300001 634500                    EPPR4   1,,PR3
        27 004146   200430 454500                    STP4    I+2,,AUTO
        27 004147   200430 630500                    EPPR0   I+2,,AUTO
        27 004150   000000 631400 28                 EPPR1   0
        27 004151   000000 701000 xent               TSX1    Z8AU$TYPE_DESCRIPTOR
        27 004152   000000 011000                    NOP     0

     1168    24229    5                                             ROP_DESC);
     1169    24230
     1170    24231                       /* Optimize MVII of CVDI to MVDI.                   */
     1171    24232                       /* If the LOP is a BASE, Phase 3 will do this optz. */
PL6.E3A0      #001=Z8E7$STMT_ASSIGNMENT File=Z8E7.:Z8A6TSI                       SAT 08/09/97 11:35 Page:220
     1172    24233                       /* This way Phase 3 can eliminate CVDI (constant).  */
     1173    24234
     1174    24235    5                  IF  ROP_DESC.DESC.NDSC.SF = 0

  24235 27 004153   200051 236100                    LDQ     ROP_DESC+1,,AUTO
        27 004154   007700 316007                    CANQ    4032,DL
        27 004155   004227 601000 27                 TNZ     s:24575
        27 004156   200165 470500                    LDP0    @LOP$$,,AUTO
        27 004157   000000 471500                    LDP1    0,,PR0
        27 004160   100001 473500                    LDP3    1,,PR1
        27 004161   300000 220100                    LDX0    0,,PR3
        27 004162   000001 100003                    CMPX0   1,DU
        27 004163   004227 600000 27                 TZE     s:24575

     1175    24236    5                  AND LOP$$ -> LX_ETT_ITEM.ETT$ -> ETT.ID ~= %BASE THEN
     1176    24237    6                    DO;

     1177    24238    6                     ROP$$ -> LX_ETT_ITEM.ETT$ = ROP$$ -> LX_ETT_ITEM.ETT$ -> ETT.LOP;

  24238 27 004164   200166 474500                    LDP4    @ROP$$,,AUTO
        27 004165   400000 475500                    LDP5    0,,PR4
        27 004166   500001 476500                    LDP6    1,,PR5
        27 004167   600001 236100                    LDQ     1,,PR6
        27 004170   500001 756100                    STQ     1,,PR5

     1178    24239    6                      ID = %MVDI;

  24239 27 004171   000266 235007                    LDA     182,DL
        27 004172   200167 471500                    LDP1    @ID,,AUTO
        27 004173   100000 755100                    STA     0,,PR1

     1179    24240
     1180    24241    6                      CALL Z8EV$WORD_TO_BYTE_UNITS (LOP$$ -> LX_ETT_ITEM.ETT$,

  24241 27 004174   000000 473500                    LDP3    0,,PR0
        27 004175   300001 635500                    EPPR5   1,,PR3
        27 004176   200431 455500                    STP5    I+3,,AUTO
PL6.E3A0      #001=Z8E7$STMT_ASSIGNMENT File=Z8E7.:Z8A6TSI                       SAT 08/09/97 11:35 Page:221
        27 004177   300001 636500                    EPPR6   1,,PR3
        27 004200   200430 456500                    STP6    I+2,,AUTO
        27 004201   200430 630500                    EPPR0   I+2,,AUTO
        27 004202   000000 631400 28                 EPPR1   0
        27 004203   000000 701000 xent               TSX1    Z8EV$WORD_TO_BYTE_UNITS
        27 004204   000000 011000                    NOP     0

     1181    24242    6                                                    LOP$$ -> LX_ETT_ITEM.ETT$);
     1182    24243    6                    END;

  24243 27 004205   004227 710000 27                 TRA     s:24575

     1183    24244
     1184    24245    5                CASE(%CVJI);

     1185    24246    5                  IF COMCOM.OB.ELS THEN

  24246 27 004206   000026 234000 xsym               SZN     COMCOM+22
        27 004207   004227 605000 27                 TPL     s:24575

     1186    24247    6                    DO;

     1187    24248    6                      ID = %MVJI;

  24248 27 004210   000273 235007                    LDA     187,DL
        27 004211   000000 755100                    STA     0,,PR0

     1188    24249    6                     ROP$$ -> LX_ETT_ITEM.ETT$ = ROP$$ -> LX_ETT_ITEM.ETT$ -> ETT.LOP;

  24249 27 004212   100000 473500                    LDP3    0,,PR1
        27 004213   300001 474500                    LDP4    1,,PR3
        27 004214   400001 236100                    LDQ     1,,PR4
        27 004215   300001 756100                    STQ     1,,PR3

     1189    24250    6                    END;

  24250 27 004216   004227 710000 27                 TRA     s:24575
PL6.E3A0      #001=Z8E7$STMT_ASSIGNMENT File=Z8E7.:Z8A6TSI                       SAT 08/09/97 11:35 Page:222

     1190    24251
     1191    24252    5                CASE(%CVKI);

     1192    24253    5                  IF COMCOM.OB.ELS THEN

  24253 27 004217   000026 234000 xsym               SZN     COMCOM+22
        27 004220   004227 605000 27                 TPL     s:24575

     1193    24254    6                    DO;

     1194    24255    6                      ID = %MVKI;

  24255 27 004221   000272 235007                    LDA     186,DL
        27 004222   000000 755100                    STA     0,,PR0

     1195    24256    6                     ROP$$ -> LX_ETT_ITEM.ETT$ = ROP$$ -> LX_ETT_ITEM.ETT$ -> ETT.LOP;

  24256 27 004223   100000 473500                    LDP3    0,,PR1
        27 004224   300001 474500                    LDP4    1,,PR3
        27 004225   400001 236100                    LDQ     1,,PR4
        27 004226   300001 756100                    STQ     1,,PR3

     1196    24257    6                    END;

     1197    24258    5              END; /*V* Case */

     1198    24259
     1199    24260                   %NEW_ILL (@ID    = ID,
     1200    24261                             @LOP   = LOP$$ -> LX_ETT_ITEM.ETT$,
     1201    24262                             @ROP   = ROP$$ -> LX_ETT_ITEM.ETT$);

  24575 27 004227   200165 470500                    LDP0    @LOP$$,,AUTO
        27 004230   000000 471500                    LDP1    0,,PR0
        27 004231   000036 236000 28                 LDQ     30
        27 004232   200430 756100                    STQ     I+2,,AUTO
        27 004233   100001 633500                    EPPR3   1,,PR1
PL6.E3A0      #001=Z8E7$STMT_ASSIGNMENT File=Z8E7.:Z8A6TSI                       SAT 08/09/97 11:35 Page:223
        27 004234   200435 453500                    STP3    I+7,,AUTO
        27 004235   200430 631500                    EPPR1   I+2,,AUTO
        27 004236   200434 451500                    STP1    I+6,,AUTO
        27 004237   000037 236000 28                 LDQ     31
        27 004240   200167 235100                    LDA     @ID,,AUTO
        27 004241   200432 757100                    STAQ    I+4,,AUTO
        27 004242   000052 236000 28                 LDQ     42
        27 004243   200431 756100                    STQ     I+3,,AUTO
        27 004244   200431 630500                    EPPR0   I+3,,AUTO
        27 004245   000042 631400 28                 EPPR1   34
        27 004246   000000 701000 xent               TSX1    Z8AN$NEW_ILL1
        27 004247   000000 011000                    NOP     0

  24578 27 004250   200165 470500                    LDP0    @LOP$$,,AUTO
        27 004251   000000 471500                    LDP1    0,,PR0
        27 004252   100001 236100                    LDQ     1,,PR1
        27 004253   000000 473400 6                  LDP3    ILL$
        27 004254   300001 756100                    STQ     1,,PR3

  24579 27 004255   200166 471500                    LDP1    @ROP$$,,AUTO
        27 004256   100000 474500                    LDP4    0,,PR1
        27 004257   400001 236100                    LDQ     1,,PR4
        27 004260   300002 756100                    STQ     2,,PR3

  24611 27 004261   006670 710000 27                 TRA     s:30317

     1202    24641
     1203    24642          %EJECT;
PL6.E3A0      #001=Z8E7$STMT_ASSIGNMENT File=Z8E7.:Z8A6TSI                       SAT 08/09/97 11:35 Page:224
     1204    24643    4            CASE(%MVRR);

     1205    24644    5              DO CASE (ROP$$ -> LX_ETT_ITEM.ETT$ -> ETT.ID);

  24644 27 004262   200166 471500                    LDP1    @ROP$$,,AUTO
        27 004263   100000 473500                    LDP3    0,,PR1
        27 004264   300001 474500                    LDP4    1,,PR3
        27 004265   400000 236100                    LDQ     0,,PR4
        27 004266   000022 772000                    QRL     18
        27 004267   000137 136007                    SBLQ    95,DL
        27 004270   000001 116007                    CMPQ    1,DL
        27 004271   004273 602006 27                 TNC     s:24644+9,QL
        27 004272   004301 710000 27                 TRA     s:24969
        27 004273   004274 710000 27                 TRA     s:24647

     1206    24645
     1207    24646    5                CASE (%CVDRR);

     1208    24647    5                  ROP$$ -> LX_ETT_ITEM.ETT$ = ROP$$ -> LX_ETT_ITEM.ETT$ -> ETT.LOP;

  24647 27 004274   400001 236100                    LDQ     1,,PR4
        27 004275   300001 756100                    STQ     1,,PR3

     1209    24648    5                  ID = %MVDR;

  24648 27 004276   000265 235007                    LDA     181,DL
        27 004277   000000 755100                    STA     0,,PR0
        27 004300   004301 710000 27                 TRA     s:24969

     1210    24649
     1211    24650    5                CASE (ELSE);

     1212    24651                       /*V* Same */
     1213    24652    5              END; /*V* Case */

     1214    24653
     1215    24654                   %NEW_ILL (@ID   = ID,
PL6.E3A0      #001=Z8E7$STMT_ASSIGNMENT File=Z8E7.:Z8A6TSI                       SAT 08/09/97 11:35 Page:225
     1216    24655                             @LOP  = LOP$$ -> LX_ETT_ITEM.ETT$,
     1217    24656                             @ROP  = ROP$$ -> LX_ETT_ITEM.ETT$);

  24969 27 004301   200165 473500                    LDP3    @LOP$$,,AUTO
        27 004302   300000 474500                    LDP4    0,,PR3
        27 004303   000036 236000 28                 LDQ     30
        27 004304   200430 756100                    STQ     I+2,,AUTO
        27 004305   400001 635500                    EPPR5   1,,PR4
        27 004306   200435 455500                    STP5    I+7,,AUTO
        27 004307   200430 634500                    EPPR4   I+2,,AUTO
        27 004310   200434 454500                    STP4    I+6,,AUTO
        27 004311   000037 236000 28                 LDQ     31
        27 004312   200167 235100                    LDA     @ID,,AUTO
        27 004313   200432 757100                    STAQ    I+4,,AUTO
        27 004314   000052 236000 28                 LDQ     42
        27 004315   200431 756100                    STQ     I+3,,AUTO
        27 004316   200431 630500                    EPPR0   I+3,,AUTO
        27 004317   000042 631400 28                 EPPR1   34
        27 004320   000000 701000 xent               TSX1    Z8AN$NEW_ILL1
        27 004321   000000 011000                    NOP     0

  24972 27 004322   200165 470500                    LDP0    @LOP$$,,AUTO
        27 004323   000000 471500                    LDP1    0,,PR0
        27 004324   100001 236100                    LDQ     1,,PR1
        27 004325   000000 473400 6                  LDP3    ILL$
        27 004326   300001 756100                    STQ     1,,PR3

  24973 27 004327   200166 471500                    LDP1    @ROP$$,,AUTO
        27 004330   100000 474500                    LDP4    0,,PR1
        27 004331   400001 236100                    LDQ     1,,PR4
        27 004332   300002 756100                    STQ     2,,PR3

  25005 27 004333   006670 710000 27                 TRA     s:30317

     1218    25035
     1219    25036          %EJECT;
PL6.E3A0      #001=Z8E7$STMT_ASSIGNMENT File=Z8E7.:Z8A6TSI                       SAT 08/09/97 11:35 Page:226
     1220    25037    4            CASE(%MVQQ);

     1221    25038    5              DO CASE (ROP$$ -> LX_ETT_ITEM.ETT$ -> ETT.ID);

  25038 27 004334   200166 471500                    LDP1    @ROP$$,,AUTO
        27 004335   100000 473500                    LDP3    0,,PR1
        27 004336   300001 474500                    LDP4    1,,PR3
        27 004337   400000 236100                    LDQ     0,,PR4
        27 004340   000022 772000                    QRL     18
        27 004341   000142 136007                    SBLQ    98,DL
        27 004342   000001 116007                    CMPQ    1,DL
        27 004343   004345 602006 27                 TNC     s:25038+9,QL
        27 004344   004353 710000 27                 TRA     s:25363
        27 004345   004346 710000 27                 TRA     s:25041

     1222    25039
     1223    25040    5                CASE (%CVDQR);

     1224    25041    5                  ROP$$ -> LX_ETT_ITEM.ETT$ = ROP$$ -> LX_ETT_ITEM.ETT$ -> ETT.LOP;

  25041 27 004346   400001 236100                    LDQ     1,,PR4
        27 004347   300001 756100                    STQ     1,,PR3

     1225    25042    5                  ID = %MVDQ;

  25042 27 004350   000264 235007                    LDA     180,DL
        27 004351   000000 755100                    STA     0,,PR0
        27 004352   004353 710000 27                 TRA     s:25363

     1226    25043
     1227    25044    5                CASE (ELSE);

     1228    25045                       /*V* Same */
     1229    25046    5              END; /*V* Case */

     1230    25047
     1231    25048                   %NEW_ILL (@ID   = ID,
PL6.E3A0      #001=Z8E7$STMT_ASSIGNMENT File=Z8E7.:Z8A6TSI                       SAT 08/09/97 11:35 Page:227
     1232    25049                             @LOP  = LOP$$ -> LX_ETT_ITEM.ETT$,
     1233    25050                             @ROP  = ROP$$ -> LX_ETT_ITEM.ETT$);

  25363 27 004353   200165 473500                    LDP3    @LOP$$,,AUTO
        27 004354   300000 474500                    LDP4    0,,PR3
        27 004355   000036 236000 28                 LDQ     30
        27 004356   200430 756100                    STQ     I+2,,AUTO
        27 004357   400001 635500                    EPPR5   1,,PR4
        27 004360   200435 455500                    STP5    I+7,,AUTO
        27 004361   200430 634500                    EPPR4   I+2,,AUTO
        27 004362   200434 454500                    STP4    I+6,,AUTO
        27 004363   000037 236000 28                 LDQ     31
        27 004364   200167 235100                    LDA     @ID,,AUTO
        27 004365   200432 757100                    STAQ    I+4,,AUTO
        27 004366   000052 236000 28                 LDQ     42
        27 004367   200431 756100                    STQ     I+3,,AUTO
        27 004370   200431 630500                    EPPR0   I+3,,AUTO
        27 004371   000042 631400 28                 EPPR1   34
        27 004372   000000 701000 xent               TSX1    Z8AN$NEW_ILL1
        27 004373   000000 011000                    NOP     0

  25366 27 004374   200165 470500                    LDP0    @LOP$$,,AUTO
        27 004375   000000 471500                    LDP1    0,,PR0
        27 004376   100001 236100                    LDQ     1,,PR1
        27 004377   000000 473400 6                  LDP3    ILL$
        27 004400   300001 756100                    STQ     1,,PR3

  25367 27 004401   200166 471500                    LDP1    @ROP$$,,AUTO
        27 004402   100000 474500                    LDP4    0,,PR1
        27 004403   400001 236100                    LDQ     1,,PR4
        27 004404   300002 756100                    STQ     2,,PR3

  25399 27 004405   006670 710000 27                 TRA     s:30317

     1234    25429
     1235    25430          %EJECT;
PL6.E3A0      #001=Z8E7$STMT_ASSIGNMENT File=Z8E7.:Z8A6TSI                       SAT 08/09/97 11:35 Page:228
     1236    25431    4            CASE (%MVOO, %MVOOR);

     1237    25432    5              DO CASE (ROP$$ -> LX_ETT_ITEM.ETT$ -> ETT.ID);

  25432 27 004406   200166 471500                    LDP1    @ROP$$,,AUTO
        27 004407   100000 473500                    LDP3    0,,PR1
        27 004410   300001 474500                    LDP4    1,,PR3
        27 004411   400000 236100                    LDQ     0,,PR4
        27 004412   000022 772000                    QRL     18
        27 004413   000163 136007                    SBLQ    115,DL
        27 004414   000012 116007                    CMPQ    10,DL
        27 004415   004417 602006 27                 TNC     s:25432+9,QL
        27 004416   004474 710000 27                 TRA     s:25447
        27 004417   004442 710000 27                 TRA     s:25439
        27 004420   004457 710000 27                 TRA     s:25443
        27 004421   004442 710000 27                 TRA     s:25439
        27 004422   004457 710000 27                 TRA     s:25443
        27 004423   004474 710000 27                 TRA     s:25447
        27 004424   004474 710000 27                 TRA     s:25447
        27 004425   004474 710000 27                 TRA     s:25447
        27 004426   004474 710000 27                 TRA     s:25447
        27 004427   004474 710000 27                 TRA     s:25447
        27 004430   004431 710000 27                 TRA     s:25434

     1238    25433    5                CASE(%RNDO);

     1239    25434    5                  ID = %MVOOR;

  25434 27 004431   000415 235007                    LDA     269,DL
        27 004432   000000 755100                    STA     0,,PR0

     1240    25435    5                  ROP$$ -> LX_ETT_ITEM.ETT$ = ROP$$ -> LX_ETT_ITEM.ETT$ -> ETT.LOP;

  25435 27 004433   100000 473500                    LDP3    0,,PR1
        27 004434   300001 474500                    LDP4    1,,PR3
        27 004435   400001 236100                    LDQ     1,,PR4
        27 004436   300001 756100                    STQ     1,,PR3
PL6.E3A0      #001=Z8E7$STMT_ASSIGNMENT File=Z8E7.:Z8A6TSI                       SAT 08/09/97 11:35 Page:229

     1241    25436    5                  MORE_OPTIMIZATIONS = TRUE;

  25436 27 004437   400000 236003                    LDQ     -131072,DU
        27 004440   200170 756100                    STQ     MORE_OPTIMIZATIONS,,AUTO
        27 004441   006670 710000 27                 TRA     s:30317

     1242    25437
     1243    25438    5                CASE(%ADO, %MPO);

     1244    25439    5                  FROM$$ = ADDR(NIL);

  25439 27 004442   000001 236000 28                 LDQ     1
        27 004443   200172 756100                    STQ     FROM$$,,AUTO

     1245    25440    5                  CALL COMMUTATIVE_OPERANDS (LOP$$, ROP$$, FROM$$, ID);

  25440 27 004444   200167 236100                    LDQ     @ID,,AUTO
        27 004445   200206 756100                    STQ     LOP_ST$,,AUTO
        27 004446   200172 633500                    EPPR3   FROM$$,,AUTO
        27 004447   200205 453500                    STP3    ROP_ST$,,AUTO
        27 004450   200166 236100                    LDQ     @ROP$$,,AUTO
        27 004451   200204 756100                    STQ     @ROP$$,,AUTO
        27 004452   200165 236100                    LDQ     @LOP$$,,AUTO
        27 004453   200203 756100                    STQ     @LOP$$,,AUTO
        27 004454   007632 701000 27                 TSX1    COMMUTATIVE_OPERANDS
        27 004455   000000 011000                    NOP     0
        27 004456   006670 710000 27                 TRA     s:30317

     1246    25441
     1247    25442    5                CASE(%SBO, %DVO);

     1248    25443    5                  FROM$$ = ADDR(NIL);

  25443 27 004457   000001 236000 28                 LDQ     1
        27 004460   200172 756100                    STQ     FROM$$,,AUTO

PL6.E3A0      #001=Z8E7$STMT_ASSIGNMENT File=Z8E7.:Z8A6TSI                       SAT 08/09/97 11:35 Page:230
     1249    25444    5                  CALL NON_COMMUTATIVE_OPERANDS (LOP$$, ROP$$, FROM$$, ID);

  25444 27 004461   200167 236100                    LDQ     @ID,,AUTO
        27 004462   200206 756100                    STQ     LOP_ST$,,AUTO
        27 004463   200172 633500                    EPPR3   FROM$$,,AUTO
        27 004464   200205 453500                    STP3    ROP_ST$,,AUTO
        27 004465   200166 236100                    LDQ     @ROP$$,,AUTO
        27 004466   200204 756100                    STQ     @ROP$$,,AUTO
        27 004467   200165 236100                    LDQ     @LOP$$,,AUTO
        27 004470   200203 756100                    STQ     @LOP$$,,AUTO
        27 004471   010246 701000 27                 TSX1    NON_COMMUTATIVE_OPERANDS
        27 004472   000000 011000                    NOP     0
        27 004473   006670 710000 27                 TRA     s:30317

     1250    25445
     1251    25446    5                CASE(ELSE);

     1252    25447    5                  IF ROP$$ -> LX_ETT_ITEM.B.ALL THEN

  25447 27 004474   300000 236100                    LDQ     0,,PR3
        27 004475   040000 316007                    CANQ    16384,DL
        27 004476   004506 600000 27                 TZE     s:25765

     1253    25448    5                    CALL MOVE_ALL_NUM (LOP$$, ROP$$, ID);

  25448 27 004477   200166 237100                    LDAQ    @ROP$$,,AUTO
        27 004500   200204 757100                    STAQ    @ROP$$,,AUTO
        27 004501   200165 236100                    LDQ     @LOP$$,,AUTO
        27 004502   200203 756100                    STQ     @LOP$$,,AUTO
        27 004503   011661 701000 27                 TSX1    MOVE_ALL_NUM
        27 004504   000000 011000                    NOP     0
        27 004505   006670 710000 27                 TRA     s:30317

     1254    25449    5                  ELSE
     1255    25450                         %NEW_ILL (@ID = ID,
     1256    25451                                   @LOP = LOP$$ -> LX_ETT_ITEM.ETT$,
     1257    25452                                   @ROP = ROP$$ -> LX_ETT_ITEM.ETT$);
PL6.E3A0      #001=Z8E7$STMT_ASSIGNMENT File=Z8E7.:Z8A6TSI                       SAT 08/09/97 11:35 Page:231

  25765 27 004506   200165 475500                    LDP5    @LOP$$,,AUTO
        27 004507   500000 476500                    LDP6    0,,PR5
        27 004510   000036 236000 28                 LDQ     30
        27 004511   200430 756100                    STQ     I+2,,AUTO
        27 004512   600001 633500                    EPPR3   1,,PR6
        27 004513   200435 453500                    STP3    I+7,,AUTO
        27 004514   200430 634500                    EPPR4   I+2,,AUTO
        27 004515   200434 454500                    STP4    I+6,,AUTO
        27 004516   000037 236000 28                 LDQ     31
        27 004517   200167 235100                    LDA     @ID,,AUTO
        27 004520   200432 757100                    STAQ    I+4,,AUTO
        27 004521   000052 236000 28                 LDQ     42
        27 004522   200431 756100                    STQ     I+3,,AUTO
        27 004523   200431 630500                    EPPR0   I+3,,AUTO
        27 004524   000042 631400 28                 EPPR1   34
        27 004525   000000 701000 xent               TSX1    Z8AN$NEW_ILL1
        27 004526   000000 011000                    NOP     0

  25768 27 004527   200165 470500                    LDP0    @LOP$$,,AUTO
        27 004530   000000 471500                    LDP1    0,,PR0
        27 004531   100001 236100                    LDQ     1,,PR1
        27 004532   000000 473400 6                  LDP3    ILL$
        27 004533   300001 756100                    STQ     1,,PR3

  25769 27 004534   200166 471500                    LDP1    @ROP$$,,AUTO
        27 004535   100000 474500                    LDP4    0,,PR1
        27 004536   400001 236100                    LDQ     1,,PR4
        27 004537   300002 756100                    STQ     2,,PR3

     1258    25831    5              END;

  25831 27 004540   006670 710000 27                 TRA     s:30317

     1259    25832          %EJECT;
PL6.E3A0      #001=Z8E7$STMT_ASSIGNMENT File=Z8E7.:Z8A6TSI                       SAT 08/09/97 11:35 Page:232
     1260    25833    4            CASE (%MVDD, %MVDDR);

     1261    25834    5              DO CASE (ROP$$ -> LX_ETT_ITEM.ETT$ -> ETT.ID);

  25834 27 004541   200166 471500                    LDP1    @ROP$$,,AUTO
        27 004542   100000 473500                    LDP3    0,,PR1
        27 004543   300001 474500                    LDP4    1,,PR3
        27 004544   400000 236100                    LDQ     0,,PR4
        27 004545   000022 772000                    QRL     18
        27 004546   000015 136007                    SBLQ    13,DL
        27 004547   000135 116007                    CMPQ    93,DL
        27 004550   004552 602006 27                 TNC     s:25834+9,QL
        27 004551   005751 710000 27                 TRA     s:28977
        27 004552   005354 710000 27                 TRA     s:27824
        27 004553   005751 710000 27                 TRA     s:28977
        27 004554   005751 710000 27                 TRA     s:28977
        27 004555   005751 710000 27                 TRA     s:28977
        27 004556   005751 710000 27                 TRA     s:28977
        27 004557   005751 710000 27                 TRA     s:28977
        27 004560   005751 710000 27                 TRA     s:28977
        27 004561   005751 710000 27                 TRA     s:28977
        27 004562   005751 710000 27                 TRA     s:28977
        27 004563   004752 710000 27                 TRA     s:25853
        27 004564   005751 710000 27                 TRA     s:28977
        27 004565   005751 710000 27                 TRA     s:28977
        27 004566   005751 710000 27                 TRA     s:28977
        27 004567   005751 710000 27                 TRA     s:28977
        27 004570   005751 710000 27                 TRA     s:28977
        27 004571   005751 710000 27                 TRA     s:28977
        27 004572   005751 710000 27                 TRA     s:28977
        27 004573   004762 710000 27                 TRA     s:25856
        27 004574   005751 710000 27                 TRA     s:28977
        27 004575   005751 710000 27                 TRA     s:28977
        27 004576   005751 710000 27                 TRA     s:28977
        27 004577   005751 710000 27                 TRA     s:28977
        27 004600   005751 710000 27                 TRA     s:28977
        27 004601   005751 710000 27                 TRA     s:28977
PL6.E3A0      #001=Z8E7$STMT_ASSIGNMENT File=Z8E7.:Z8A6TSI                       SAT 08/09/97 11:35 Page:233
        27 004602   005751 710000 27                 TRA     s:28977
        27 004603   005751 710000 27                 TRA     s:28977
        27 004604   005751 710000 27                 TRA     s:28977
        27 004605   005751 710000 27                 TRA     s:28977
        27 004606   005751 710000 27                 TRA     s:28977
        27 004607   005751 710000 27                 TRA     s:28977
        27 004610   004720 710000 27                 TRA     s:25843
        27 004611   005751 710000 27                 TRA     s:28977
        27 004612   004735 710000 27                 TRA     s:25848
        27 004613   005751 710000 27                 TRA     s:28977
        27 004614   004720 710000 27                 TRA     s:25843
        27 004615   005751 710000 27                 TRA     s:28977
        27 004616   004735 710000 27                 TRA     s:25848
        27 004617   005751 710000 27                 TRA     s:28977
        27 004620   005751 710000 27                 TRA     s:28977
        27 004621   005751 710000 27                 TRA     s:28977
        27 004622   005751 710000 27                 TRA     s:28977
        27 004623   005751 710000 27                 TRA     s:28977
        27 004624   005751 710000 27                 TRA     s:28977
        27 004625   005751 710000 27                 TRA     s:28977
        27 004626   005751 710000 27                 TRA     s:28977
        27 004627   005751 710000 27                 TRA     s:28977
        27 004630   005751 710000 27                 TRA     s:28977
        27 004631   005751 710000 27                 TRA     s:28977
        27 004632   005751 710000 27                 TRA     s:28977
        27 004633   005751 710000 27                 TRA     s:28977
        27 004634   005751 710000 27                 TRA     s:28977
        27 004635   005751 710000 27                 TRA     s:28977
        27 004636   005751 710000 27                 TRA     s:28977
        27 004637   004707 710000 27                 TRA     s:25837
        27 004640   005751 710000 27                 TRA     s:28977
        27 004641   005751 710000 27                 TRA     s:28977
        27 004642   005751 710000 27                 TRA     s:28977
        27 004643   005751 710000 27                 TRA     s:28977
        27 004644   005751 710000 27                 TRA     s:28977
        27 004645   005751 710000 27                 TRA     s:28977
        27 004646   005751 710000 27                 TRA     s:28977
PL6.E3A0      #001=Z8E7$STMT_ASSIGNMENT File=Z8E7.:Z8A6TSI                       SAT 08/09/97 11:35 Page:234
        27 004647   005751 710000 27                 TRA     s:28977
        27 004650   005751 710000 27                 TRA     s:28977
        27 004651   005751 710000 27                 TRA     s:28977
        27 004652   005751 710000 27                 TRA     s:28977
        27 004653   005751 710000 27                 TRA     s:28977
        27 004654   005751 710000 27                 TRA     s:28977
        27 004655   005751 710000 27                 TRA     s:28977
        27 004656   005751 710000 27                 TRA     s:28977
        27 004657   005751 710000 27                 TRA     s:28977
        27 004660   005751 710000 27                 TRA     s:28977
        27 004661   005751 710000 27                 TRA     s:28977
        27 004662   005751 710000 27                 TRA     s:28977
        27 004663   004762 710000 27                 TRA     s:25856
        27 004664   005751 710000 27                 TRA     s:28977
        27 004665   005050 710000 27                 TRA     s:26252
        27 004666   005210 710000 27                 TRA     s:27036
        27 004667   005751 710000 27                 TRA     s:28977
        27 004670   005751 710000 27                 TRA     s:28977
        27 004671   005751 710000 27                 TRA     s:28977
        27 004672   005751 710000 27                 TRA     s:28977
        27 004673   005751 710000 27                 TRA     s:28977
        27 004674   005751 710000 27                 TRA     s:28977
        27 004675   005751 710000 27                 TRA     s:28977
        27 004676   005751 710000 27                 TRA     s:28977
        27 004677   005751 710000 27                 TRA     s:28977
        27 004700   005751 710000 27                 TRA     s:28977
        27 004701   005751 710000 27                 TRA     s:28977
        27 004702   005751 710000 27                 TRA     s:28977
        27 004703   005751 710000 27                 TRA     s:28977
        27 004704   005751 710000 27                 TRA     s:28977
        27 004705   005210 710000 27                 TRA     s:27036
        27 004706   005050 710000 27                 TRA     s:26252

     1262    25835
     1263    25836    5                CASE (%RNDD);

     1264    25837    5                  ID = %MVDDR;
PL6.E3A0      #001=Z8E7$STMT_ASSIGNMENT File=Z8E7.:Z8A6TSI                       SAT 08/09/97 11:35 Page:235

  25837 27 004707   000244 235007                    LDA     164,DL
        27 004710   000000 755100                    STA     0,,PR0

     1265    25838
     1266    25839    5                  ROP$$ -> LX_ETT_ITEM.ETT$ = ROP$$ -> LX_ETT_ITEM.ETT$ -> ETT.LOP;

  25839 27 004711   100000 473500                    LDP3    0,,PR1
        27 004712   300001 474500                    LDP4    1,,PR3
        27 004713   400001 236100                    LDQ     1,,PR4
        27 004714   300001 756100                    STQ     1,,PR3

     1267    25840    5                  MORE_OPTIMIZATIONS        = TRUE;

  25840 27 004715   400000 236003                    LDQ     -131072,DU
        27 004716   200170 756100                    STQ     MORE_OPTIMIZATIONS,,AUTO
        27 004717   006670 710000 27                 TRA     s:30317

     1268    25841
     1269    25842    5                CASE (%ADD, %MPD);

     1270    25843    5                  FROM$$ = ADDR(NIL);

  25843 27 004720   000001 236000 28                 LDQ     1
        27 004721   200172 756100                    STQ     FROM$$,,AUTO

     1271    25844
     1272    25845    5                  CALL COMMUTATIVE_OPERANDS (LOP$$, ROP$$, FROM$$, ID);

  25845 27 004722   200167 236100                    LDQ     @ID,,AUTO
        27 004723   200206 756100                    STQ     LOP_ST$,,AUTO
        27 004724   200172 633500                    EPPR3   FROM$$,,AUTO
        27 004725   200205 453500                    STP3    ROP_ST$,,AUTO
        27 004726   200166 236100                    LDQ     @ROP$$,,AUTO
        27 004727   200204 756100                    STQ     @ROP$$,,AUTO
        27 004730   200165 236100                    LDQ     @LOP$$,,AUTO
        27 004731   200203 756100                    STQ     @LOP$$,,AUTO
PL6.E3A0      #001=Z8E7$STMT_ASSIGNMENT File=Z8E7.:Z8A6TSI                       SAT 08/09/97 11:35 Page:236
        27 004732   007632 701000 27                 TSX1    COMMUTATIVE_OPERANDS
        27 004733   000000 011000                    NOP     0
        27 004734   006670 710000 27                 TRA     s:30317

     1273    25846
     1274    25847    5                CASE (%SBD, %DVD);

     1275    25848    5                  FROM$$ = ADDR(NIL);

  25848 27 004735   000001 236000 28                 LDQ     1
        27 004736   200172 756100                    STQ     FROM$$,,AUTO

     1276    25849
     1277    25850    5                  CALL NON_COMMUTATIVE_OPERANDS (LOP$$, ROP$$, FROM$$, ID);

  25850 27 004737   200167 236100                    LDQ     @ID,,AUTO
        27 004740   200206 756100                    STQ     LOP_ST$,,AUTO
        27 004741   200172 633500                    EPPR3   FROM$$,,AUTO
        27 004742   200205 453500                    STP3    ROP_ST$,,AUTO
        27 004743   200166 236100                    LDQ     @ROP$$,,AUTO
        27 004744   200204 756100                    STQ     @ROP$$,,AUTO
        27 004745   200165 236100                    LDQ     @LOP$$,,AUTO
        27 004746   200203 756100                    STQ     @LOP$$,,AUTO
        27 004747   010246 701000 27                 TSX1    NON_COMMUTATIVE_OPERANDS
        27 004750   000000 011000                    NOP     0
        27 004751   006670 710000 27                 TRA     s:30317

     1278    25851
     1279    25852    5                CASE (%CVDDD);

     1280    25853    5                  CALL MOVE_DE_EDITING (LOP$$, ROP$$);

  25853 27 004752   000001 236000 28                 LDQ     1
        27 004753   200166 235100                    LDA     @ROP$$,,AUTO
        27 004754   200204 757100                    STAQ    @ROP$$,,AUTO
        27 004755   200165 236100                    LDQ     @LOP$$,,AUTO
        27 004756   200203 756100                    STQ     @LOP$$,,AUTO
PL6.E3A0      #001=Z8E7$STMT_ASSIGNMENT File=Z8E7.:Z8A6TSI                       SAT 08/09/97 11:35 Page:237
        27 004757   007071 701000 27                 TSX1    MOVE_DE_EDITING
        27 004760   000000 011000                    NOP     0
        27 004761   006670 710000 27                 TRA     s:30317

     1281    25854
     1282    25855    5                CASE (%CVID4, %CVID9);

     1283    25856    5                  CALL Z8AU$TYPE_DESCRIPTOR (LOP$$ -> LX_ETT_ITEM.ETT$,

  25856 27 004762   200165 475500                    LDP5    @LOP$$,,AUTO
        27 004763   500000 476500                    LDP6    0,,PR5
        27 004764   200175 637500                    EPPR7   LOP_DESC,,AUTO
        27 004765   200431 457500                    STP7    I+3,,AUTO
        27 004766   600001 633500                    EPPR3   1,,PR6
        27 004767   200430 453500                    STP3    I+2,,AUTO
        27 004770   200430 630500                    EPPR0   I+2,,AUTO
        27 004771   000000 631400 28                 EPPR1   0
        27 004772   000000 701000 xent               TSX1    Z8AU$TYPE_DESCRIPTOR
        27 004773   000000 011000                    NOP     0

     1284    25857    5                                             LOP_DESC);
     1285    25858                       /* Optimize MVDD of CVID4/9 to MVID.                   */
     1286    25859                       /* If the LOP is a BASE, Phase 3 will do this optz. */
     1287    25860                       /* This way Phase 3 can eliminate CVID (constant).  */
     1288    25861
     1289    25862    5                  IF LOP_DESC.DESC.NDSC.SF = 0

  25862 27 004774   200176 236100                    LDQ     LOP_DESC+1,,AUTO
        27 004775   007700 316007                    CANQ    4032,DL
        27 004776   005015 601000 27                 TNZ     s:26184
        27 004777   200165 470500                    LDP0    @LOP$$,,AUTO
        27 005000   000000 471500                    LDP1    0,,PR0
        27 005001   100001 473500                    LDP3    1,,PR1
        27 005002   300000 220100                    LDX0    0,,PR3
        27 005003   000001 100003                    CMPX0   1,DU
        27 005004   005015 600000 27                 TZE     s:26184

PL6.E3A0      #001=Z8E7$STMT_ASSIGNMENT File=Z8E7.:Z8A6TSI                       SAT 08/09/97 11:35 Page:238
     1290    25863    5                  AND LOP$$ -> LX_ETT_ITEM.ETT$ -> ETT.ID ~= %BASE THEN
     1291    25864    6                    DO;

     1292    25865    6                     ROP$$ -> LX_ETT_ITEM.ETT$ = ROP$$ -> LX_ETT_ITEM.ETT$ -> ETT.LOP;

  25865 27 005005   200166 474500                    LDP4    @ROP$$,,AUTO
        27 005006   400000 475500                    LDP5    0,,PR4
        27 005007   500001 476500                    LDP6    1,,PR5
        27 005010   600001 236100                    LDQ     1,,PR6
        27 005011   500001 756100                    STQ     1,,PR5

     1293    25866    6                      ID = %MVID;

  25866 27 005012   000252 235007                    LDA     170,DL
        27 005013   200167 471500                    LDP1    @ID,,AUTO
        27 005014   100000 755100                    STA     0,,PR1

     1294    25867    6                    END;

     1295    25868
     1296    25869                       %NEW_ILL (@ID     = ID,
     1297    25870                                 @LOP    = LOP$$ -> LX_ETT_ITEM.ETT$,
     1298    25871                                 @ROP    = ROP$$ -> LX_ETT_ITEM.ETT$);

  26184 27 005015   200165 470500                    LDP0    @LOP$$,,AUTO
        27 005016   000000 471500                    LDP1    0,,PR0
        27 005017   000036 236000 28                 LDQ     30
        27 005020   200430 756100                    STQ     I+2,,AUTO
        27 005021   100001 633500                    EPPR3   1,,PR1
        27 005022   200435 453500                    STP3    I+7,,AUTO
        27 005023   200430 631500                    EPPR1   I+2,,AUTO
        27 005024   200434 451500                    STP1    I+6,,AUTO
        27 005025   000037 236000 28                 LDQ     31
        27 005026   200167 235100                    LDA     @ID,,AUTO
        27 005027   200432 757100                    STAQ    I+4,,AUTO
        27 005030   000052 236000 28                 LDQ     42
        27 005031   200431 756100                    STQ     I+3,,AUTO
PL6.E3A0      #001=Z8E7$STMT_ASSIGNMENT File=Z8E7.:Z8A6TSI                       SAT 08/09/97 11:35 Page:239
        27 005032   200431 630500                    EPPR0   I+3,,AUTO
        27 005033   000042 631400 28                 EPPR1   34
        27 005034   000000 701000 xent               TSX1    Z8AN$NEW_ILL1
        27 005035   000000 011000                    NOP     0

  26187 27 005036   200165 470500                    LDP0    @LOP$$,,AUTO
        27 005037   000000 471500                    LDP1    0,,PR0
        27 005040   100001 236100                    LDQ     1,,PR1
        27 005041   000000 473400 6                  LDP3    ILL$
        27 005042   300001 756100                    STQ     1,,PR3

  26188 27 005043   200166 471500                    LDP1    @ROP$$,,AUTO
        27 005044   100000 474500                    LDP4    0,,PR1
        27 005045   400001 236100                    LDQ     1,,PR4
        27 005046   300002 756100                    STQ     2,,PR3

  26220 27 005047   006670 710000 27                 TRA     s:30317

     1299    26250
     1300    26251    5                CASE (%CVRD4, %CVRD9);

     1301    26252    5                  ROP$$ -> LX_ETT_ITEM.ETT$ = ROP$$ -> LX_ETT_ITEM.ETT$ -> ETT.LOP;

  26252 27 005050   400001 236100                    LDQ     1,,PR4
        27 005051   300001 756100                    STQ     1,,PR3

     1302    26253    5                  CALL Z8AU$TYPE_DESCRIPTOR (LOP$$ -> LX_ETT_ITEM.ETT$,

  26253 27 005052   200165 473500                    LDP3    @LOP$$,,AUTO
        27 005053   300000 474500                    LDP4    0,,PR3
        27 005054   200175 635500                    EPPR5   LOP_DESC,,AUTO
        27 005055   200431 455500                    STP5    I+3,,AUTO
        27 005056   400001 636500                    EPPR6   1,,PR4
        27 005057   200430 456500                    STP6    I+2,,AUTO
        27 005060   200430 630500                    EPPR0   I+2,,AUTO
        27 005061   000000 631400 28                 EPPR1   0
        27 005062   000000 701000 xent               TSX1    Z8AU$TYPE_DESCRIPTOR
PL6.E3A0      #001=Z8E7$STMT_ASSIGNMENT File=Z8E7.:Z8A6TSI                       SAT 08/09/97 11:35 Page:240
        27 005063   000000 011000                    NOP     0

     1303    26254    5                                             LOP_DESC);
     1304    26255
     1305    26256    5                  IF LOP_DESC.DESC.NDSC.SF = 0 AND ID = %MVDD THEN

  26256 27 005064   200176 236100                    LDQ     LOP_DESC+1,,AUTO
        27 005065   007700 316007                    CANQ    4032,DL
        27 005066   005143 601000 27                 TNZ     s:26646
        27 005067   200167 470500                    LDP0    @ID,,AUTO
        27 005070   000000 235100                    LDA     0,,PR0
        27 005071   000243 115007                    CMPA    163,DL
        27 005072   005143 601000 27                 TNZ     s:26646

     1306    26257    6                    DO;

     1307    26258    6                      CALL Z8AF$FORME (%CVRI,

  26258 27 005073   200166 471500                    LDP1    @ROP$$,,AUTO
        27 005074   100000 473500                    LDP3    0,,PR1
        27 005075   300001 634500                    EPPR4   1,,PR3
        27 005076   200433 454500                    STP4    I+5,,AUTO
        27 005077   000040 236000 28                 LDQ     32
        27 005100   200432 756100                    STQ     I+4,,AUTO
        27 005101   300001 635500                    EPPR5   1,,PR3
        27 005102   200431 455500                    STP5    I+3,,AUTO
        27 005103   000057 236000 28                 LDQ     47
        27 005104   200430 756100                    STQ     I+2,,AUTO
        27 005105   200430 630500                    EPPR0   I+2,,AUTO
        27 005106   000033 631400 28                 EPPR1   27
        27 005107   000000 701000 xent               TSX1    Z8AF$FORME
        27 005110   000000 011000                    NOP     0

     1308    26259    6                                       ROP$$ -> LX_ETT_ITEM.ETT$,
     1309    26260    6                                       0,
     1310    26261    6                                       ROP$$ -> LX_ETT_ITEM.ETT$);
     1311    26262                           %NEW_ILL (@ID     = %MVID,
PL6.E3A0      #001=Z8E7$STMT_ASSIGNMENT File=Z8E7.:Z8A6TSI                       SAT 08/09/97 11:35 Page:241
     1312    26263                                     @LOP    = LOP$$ -> LX_ETT_ITEM.ETT$,
     1313    26264                                     @ROP    = ROP$$ -> LX_ETT_ITEM.ETT$);

  26577 27 005111   200165 470500                    LDP0    @LOP$$,,AUTO
        27 005112   000000 471500                    LDP1    0,,PR0
        27 005113   000036 236000 28                 LDQ     30
        27 005114   200430 756100                    STQ     I+2,,AUTO
        27 005115   100001 633500                    EPPR3   1,,PR1
        27 005116   200435 453500                    STP3    I+7,,AUTO
        27 005117   200430 631500                    EPPR1   I+2,,AUTO
        27 005120   200434 451500                    STP1    I+6,,AUTO
        27 005121   000062 237000 28                 LDAQ    50
        27 005122   200432 757100                    STAQ    I+4,,AUTO
        27 005123   000052 236000 28                 LDQ     42
        27 005124   200431 756100                    STQ     I+3,,AUTO
        27 005125   200431 630500                    EPPR0   I+3,,AUTO
        27 005126   000042 631400 28                 EPPR1   34
        27 005127   000000 701000 xent               TSX1    Z8AN$NEW_ILL1
        27 005130   000000 011000                    NOP     0

  26580 27 005131   200165 470500                    LDP0    @LOP$$,,AUTO
        27 005132   000000 471500                    LDP1    0,,PR0
        27 005133   100001 236100                    LDQ     1,,PR1
        27 005134   000000 473400 6                  LDP3    ILL$
        27 005135   300001 756100                    STQ     1,,PR3

  26581 27 005136   200166 471500                    LDP1    @ROP$$,,AUTO
        27 005137   100000 474500                    LDP4    0,,PR1
        27 005140   400001 236100                    LDQ     1,,PR4
        27 005141   300002 756100                    STQ     2,,PR3

     1314    26643    6                    END;

  26643 27 005142   006670 710000 27                 TRA     s:30317

     1315    26644    5                  ELSE
     1316    26645    6                    DO;
PL6.E3A0      #001=Z8E7$STMT_ASSIGNMENT File=Z8E7.:Z8A6TSI                       SAT 08/09/97 11:35 Page:242

     1317    26646    6                      IF ID = %MVDDR THEN

  26646 27 005143   200167 470500                    LDP0    @ID,,AUTO
        27 005144   000000 235100                    LDA     0,,PR0
        27 005145   000244 115007                    CMPA    164,DL
        27 005146   005151 601000 27                 TNZ     s:26649

     1318    26647    6                        CODE = 0 ; /* Round */

  26647 27 005147   200174 450100                    STZ     CODE,,AUTO
        27 005150   005153 710000 27                 TRA     s:26838

     1319    26648    6                      ELSE
     1320    26649    6                        CODE = 1 ; /* Truncate */

  26649 27 005151   000001 235007                    LDA     1,DL
        27 005152   200174 755100                    STA     CODE,,AUTO

     1321    26650
     1322    26651                           %NEW_ILL (@ID     = %MVRD,
     1323    26652                                     @CODE   = CODE,
     1324    26653                                     @LOP    = LOP$$ -> LX_ETT_ITEM.ETT$,
     1325    26654                                     @ROP    = ROP$$ -> LX_ETT_ITEM.ETT$);

  26838 27 005153   200165 471500                    LDP1    @LOP$$,,AUTO
        27 005154   100000 473500                    LDP3    0,,PR1
        27 005155   000036 236000 28                 LDQ     30
        27 005156   200430 756100                    STQ     I+2,,AUTO
        27 005157   300001 634500                    EPPR4   1,,PR3
        27 005160   200435 454500                    STP4    I+7,,AUTO
        27 005161   200430 633500                    EPPR3   I+2,,AUTO
        27 005162   200434 453500                    STP3    I+6,,AUTO
        27 005163   000064 237000 28                 LDAQ    52
        27 005164   200432 757100                    STAQ    I+4,,AUTO
        27 005165   000052 236000 28                 LDQ     42
        27 005166   200431 756100                    STQ     I+3,,AUTO
PL6.E3A0      #001=Z8E7$STMT_ASSIGNMENT File=Z8E7.:Z8A6TSI                       SAT 08/09/97 11:35 Page:243
        27 005167   200431 630500                    EPPR0   I+3,,AUTO
        27 005170   000042 631400 28                 EPPR1   34
        27 005171   000000 701000 xent               TSX1    Z8AN$NEW_ILL1
        27 005172   000000 011000                    NOP     0

  26840 27 005173   200174 720100                    LXL0    CODE,,AUTO
        27 005174   000000 470400 6                  LDP0    ILL$
        27 005175   000000 440100                    SXL0    0,,PR0

  26841 27 005176   200165 470500                    LDP0    @LOP$$,,AUTO
        27 005177   000000 471500                    LDP1    0,,PR0
        27 005200   100001 236100                    LDQ     1,,PR1
        27 005201   000000 473400 6                  LDP3    ILL$
        27 005202   300001 756100                    STQ     1,,PR3

  26842 27 005203   200166 471500                    LDP1    @ROP$$,,AUTO
        27 005204   100000 474500                    LDP4    0,,PR1
        27 005205   400001 236100                    LDQ     1,,PR4
        27 005206   300002 756100                    STQ     2,,PR3

     1326    27033    6                    END;

  27033 27 005207   006670 710000 27                 TRA     s:30317

     1327    27034
     1328    27035    5                CASE (%CVQD4, %CVQD9);

     1329    27036    5                  ROP$$ -> LX_ETT_ITEM.ETT$ = ROP$$ -> LX_ETT_ITEM.ETT$ -> ETT.LOP;

  27036 27 005210   400001 236100                    LDQ     1,,PR4
        27 005211   300001 756100                    STQ     1,,PR3

     1330    27037    5                  CALL Z8AU$TYPE_DESCRIPTOR (LOP$$ -> LX_ETT_ITEM.ETT$,

  27037 27 005212   200165 473500                    LDP3    @LOP$$,,AUTO
        27 005213   300000 474500                    LDP4    0,,PR3
        27 005214   200175 635500                    EPPR5   LOP_DESC,,AUTO
PL6.E3A0      #001=Z8E7$STMT_ASSIGNMENT File=Z8E7.:Z8A6TSI                       SAT 08/09/97 11:35 Page:244
        27 005215   200431 455500                    STP5    I+3,,AUTO
        27 005216   400001 636500                    EPPR6   1,,PR4
        27 005217   200430 456500                    STP6    I+2,,AUTO
        27 005220   200430 630500                    EPPR0   I+2,,AUTO
        27 005221   000000 631400 28                 EPPR1   0
        27 005222   000000 701000 xent               TSX1    Z8AU$TYPE_DESCRIPTOR
        27 005223   000000 011000                    NOP     0

     1331    27038    5                                             LOP_DESC);
     1332    27039
     1333    27040    5                  IF LOP_DESC.DESC.NDSC.SF = 0 AND

  27040 27 005224   200176 236100                    LDQ     LOP_DESC+1,,AUTO
        27 005225   007700 316007                    CANQ    4032,DL
        27 005226   005307 601000 27                 TNZ     s:27432
        27 005227   200176 236100                    LDQ     LOP_DESC+1,,AUTO
        27 005230   000077 376007                    ANQ     63,DL
        27 005231   000013 116007                    CMPQ    11,DL
        27 005232   005307 603000 27                 TRC     s:27432
        27 005233   200167 470500                    LDP0    @ID,,AUTO
        27 005234   000000 235100                    LDA     0,,PR0
        27 005235   000243 115007                    CMPA    163,DL
        27 005236   005307 601000 27                 TNZ     s:27432

     1334    27041    5                      LOP_DESC.DESC.NDSC.N < 11 AND
     1335    27042    5                      ID = %MVDD THEN
     1336    27043    6                    DO;

     1337    27044    6                      CALL Z8AF$FORME (%CVQI,

  27044 27 005237   200166 471500                    LDP1    @ROP$$,,AUTO
        27 005240   100000 473500                    LDP3    0,,PR1
        27 005241   300001 634500                    EPPR4   1,,PR3
        27 005242   200433 454500                    STP4    I+5,,AUTO
        27 005243   000040 236000 28                 LDQ     32
        27 005244   200432 756100                    STQ     I+4,,AUTO
        27 005245   300001 635500                    EPPR5   1,,PR3
PL6.E3A0      #001=Z8E7$STMT_ASSIGNMENT File=Z8E7.:Z8A6TSI                       SAT 08/09/97 11:35 Page:245
        27 005246   200431 455500                    STP5    I+3,,AUTO
        27 005247   000067 236000 28                 LDQ     55
        27 005250   200430 756100                    STQ     I+2,,AUTO
        27 005251   200430 630500                    EPPR0   I+2,,AUTO
        27 005252   000033 631400 28                 EPPR1   27
        27 005253   000000 701000 xent               TSX1    Z8AF$FORME
        27 005254   000000 011000                    NOP     0

     1338    27045    6                                       ROP$$ -> LX_ETT_ITEM.ETT$,
     1339    27046    6                                       0,
     1340    27047    6                                       ROP$$ -> LX_ETT_ITEM.ETT$);
     1341    27048                           %NEW_ILL (@ID     = %MVID,
     1342    27049                                     @LOP    = LOP$$ -> LX_ETT_ITEM.ETT$,
     1343    27050                                     @ROP    = ROP$$ -> LX_ETT_ITEM.ETT$);

  27363 27 005255   200165 470500                    LDP0    @LOP$$,,AUTO
        27 005256   000000 471500                    LDP1    0,,PR0
        27 005257   000036 236000 28                 LDQ     30
        27 005260   200430 756100                    STQ     I+2,,AUTO
        27 005261   100001 633500                    EPPR3   1,,PR1
        27 005262   200435 453500                    STP3    I+7,,AUTO
        27 005263   200430 631500                    EPPR1   I+2,,AUTO
        27 005264   200434 451500                    STP1    I+6,,AUTO
        27 005265   000062 237000 28                 LDAQ    50
        27 005266   200432 757100                    STAQ    I+4,,AUTO
        27 005267   000052 236000 28                 LDQ     42
        27 005270   200431 756100                    STQ     I+3,,AUTO
        27 005271   200431 630500                    EPPR0   I+3,,AUTO
        27 005272   000042 631400 28                 EPPR1   34
        27 005273   000000 701000 xent               TSX1    Z8AN$NEW_ILL1
        27 005274   000000 011000                    NOP     0

  27366 27 005275   200165 470500                    LDP0    @LOP$$,,AUTO
        27 005276   000000 471500                    LDP1    0,,PR0
        27 005277   100001 236100                    LDQ     1,,PR1
        27 005300   000000 473400 6                  LDP3    ILL$
        27 005301   300001 756100                    STQ     1,,PR3
PL6.E3A0      #001=Z8E7$STMT_ASSIGNMENT File=Z8E7.:Z8A6TSI                       SAT 08/09/97 11:35 Page:246

  27367 27 005302   200166 471500                    LDP1    @ROP$$,,AUTO
        27 005303   100000 474500                    LDP4    0,,PR1
        27 005304   400001 236100                    LDQ     1,,PR4
        27 005305   300002 756100                    STQ     2,,PR3

     1344    27429    6                    END;

  27429 27 005306   006670 710000 27                 TRA     s:30317

     1345    27430    5                  ELSE
     1346    27431    6                    DO;

     1347    27432    6                      IF ID = %MVDDR THEN

  27432 27 005307   200167 470500                    LDP0    @ID,,AUTO
        27 005310   000000 235100                    LDA     0,,PR0
        27 005311   000244 115007                    CMPA    164,DL
        27 005312   005315 601000 27                 TNZ     s:27435

     1348    27433    6                        CODE = 0 ; /* Round */

  27433 27 005313   200174 450100                    STZ     CODE,,AUTO
        27 005314   005317 710000 27                 TRA     s:27624

     1349    27434    6                      ELSE
     1350    27435    6                        CODE = 1 ; /* Truncate */

  27435 27 005315   000001 236007                    LDQ     1,DL
        27 005316   200174 756100                    STQ     CODE,,AUTO

     1351    27436
     1352    27437                           %NEW_ILL (@ID     = %MVQD,
     1353    27438                                     @CODE   = CODE,
     1354    27439                                     @LOP    = LOP$$ -> LX_ETT_ITEM.ETT$,
     1355    27440                                     @ROP    = ROP$$ -> LX_ETT_ITEM.ETT$);

PL6.E3A0      #001=Z8E7$STMT_ASSIGNMENT File=Z8E7.:Z8A6TSI                       SAT 08/09/97 11:35 Page:247
  27624 27 005317   200165 471500                    LDP1    @LOP$$,,AUTO
        27 005320   100000 473500                    LDP3    0,,PR1
        27 005321   000036 236000 28                 LDQ     30
        27 005322   200430 756100                    STQ     I+2,,AUTO
        27 005323   300001 634500                    EPPR4   1,,PR3
        27 005324   200435 454500                    STP4    I+7,,AUTO
        27 005325   200430 633500                    EPPR3   I+2,,AUTO
        27 005326   200434 453500                    STP3    I+6,,AUTO
        27 005327   000072 237000 28                 LDAQ    58
        27 005330   200432 757100                    STAQ    I+4,,AUTO
        27 005331   000052 236000 28                 LDQ     42
        27 005332   200431 756100                    STQ     I+3,,AUTO
        27 005333   200431 630500                    EPPR0   I+3,,AUTO
        27 005334   000042 631400 28                 EPPR1   34
        27 005335   000000 701000 xent               TSX1    Z8AN$NEW_ILL1
        27 005336   000000 011000                    NOP     0

  27626 27 005337   200174 720100                    LXL0    CODE,,AUTO
        27 005340   000000 470400 6                  LDP0    ILL$
        27 005341   000000 440100                    SXL0    0,,PR0

  27627 27 005342   200165 470500                    LDP0    @LOP$$,,AUTO
        27 005343   000000 471500                    LDP1    0,,PR0
        27 005344   100001 236100                    LDQ     1,,PR1
        27 005345   000000 473400 6                  LDP3    ILL$
        27 005346   300001 756100                    STQ     1,,PR3

  27628 27 005347   200166 471500                    LDP1    @ROP$$,,AUTO
        27 005350   100000 474500                    LDP4    0,,PR1
        27 005351   400001 236100                    LDQ     1,,PR4
        27 005352   300002 756100                    STQ     2,,PR3

     1356    27819    6                    END;

  27819 27 005353   006670 710000 27                 TRA     s:30317

     1357    27820
PL6.E3A0      #001=Z8E7$STMT_ASSIGNMENT File=Z8E7.:Z8A6TSI                       SAT 08/09/97 11:35 Page:248
     1358    27821    5                CASE (%TRIAD);

     1359    27822                       %FISH(TRIAD = LOP$$ -> LX_ETT_ITEM.ETT$, RTN = LOP_ST$);

  27824 27 005354   200165 475500                    LDP5    @LOP$$,,AUTO
        27 005355   500000 476500                    LDP6    0,,PR5
        27 005356   600001 236100                    LDQ     1,,PR6
        27 005357   200067 756100                    STQ     LOP_ST$,,AUTO

  27825 27 005360   200067 473500                    LDP3    LOP_ST$,,AUTO
        27 005361   300000 220100                    LDX0    0,,PR3
        27 005362   000751 100003                    CMPX0   489,DU
        27 005363   005373 603000 27                 TRC     s:27830

  27826 27 005364   200067 470500                    LDP0    LOP_ST$,,AUTO
        27 005365   000001 236100                    LDQ     1,,PR0
        27 005366   200067 756100                    STQ     LOP_ST$,,AUTO

  27827 27 005367   200067 470500                    LDP0    LOP_ST$,,AUTO
        27 005370   000000 220100                    LDX0    0,,PR0
        27 005371   000751 100003                    CMPX0   489,DU
        27 005372   005364 602000 27                 TNC     s:27826

     1360    27830    5                  IF ROP$$ -> LX_ETT_ITEM.B.ALL THEN

  27830 27 005373   200166 470500                    LDP0    @ROP$$,,AUTO
        27 005374   000000 471500                    LDP1    0,,PR0
        27 005375   100000 236100                    LDQ     0,,PR1
        27 005376   040000 316007                    CANQ    16384,DL
        27 005377   005463 600000 27                 TZE     s:27848

     1361    27831    6                    DO;

     1362    27832    6                      CALL Z8AU$LENGTH_ETT (ROP$$ -> LX_ETT_ITEM.ETT$,

  27832 27 005400   200173 633500                    EPPR3   ETT$$,,AUTO
        27 005401   200431 453500                    STP3    I+3,,AUTO
PL6.E3A0      #001=Z8E7$STMT_ASSIGNMENT File=Z8E7.:Z8A6TSI                       SAT 08/09/97 11:35 Page:249
        27 005402   100001 634500                    EPPR4   1,,PR1
        27 005403   200430 454500                    STP4    I+2,,AUTO
        27 005404   200430 630500                    EPPR0   I+2,,AUTO
        27 005405   000000 631400 28                 EPPR1   0
        27 005406   000000 701000 xent               TSX1    Z8AU$LENGTH_ETT
        27 005407   000000 011000                    NOP     0

     1363    27833    6                                            ETT$$);
     1364    27834    6                      IF ETT$$ = COMCOM.VALUE_1 AND

  27834 27 005410   200173 236100                    LDQ     ETT$$,,AUTO
        27 005411   000125 116000 xsym               CMPQ    COMCOM+85
        27 005412   005454 601000 27                 TNZ     s:27846
        27 005413   200067 470500                    LDP0    LOP_ST$,,AUTO
        27 005414   000001 236100                    LDQ     1,,PR0
        27 005415   040000 316007                    CANQ    16384,DL
        27 005416   005454 601000 27                 TNZ     s:27846
        27 005417   030000 376007                    ANQ     12288,DL
        27 005420   030000 116007                    CMPQ    12288,DL
        27 005421   005454 601000 27                 TNZ     s:27846
        27 005422   000001 236100                    LDQ     1,,PR0
        27 005423   000030 736000                    QLS     24
        27 005424   000036 732000                    QRS     30
        27 005425   000000 116003                    CMPQ    0,DU
        27 005426   005454 604000 27                 TMI     s:27846

     1365    27835    6                          LOP_ST$ -> VARIABLE.NDSC.TN = %NDSC9 AND
     1366    27836    6                          LOP_ST$ -> VARIABLE.NDSC.S = %NO_SIGN AND
     1367    27837    6                          LOP_ST$ -> VARIABLE.NDSC.SF >= 0 THEN
     1368    27838    7                        DO;

     1369    27839    7                          CALL Z8AF$FORME (%DNA,

  27839 27 005427   200165 471500                    LDP1    @LOP$$,,AUTO
        27 005430   100000 473500                    LDP3    0,,PR1
        27 005431   300001 634500                    EPPR4   1,,PR3
        27 005432   200433 454500                    STP4    I+5,,AUTO
PL6.E3A0      #001=Z8E7$STMT_ASSIGNMENT File=Z8E7.:Z8A6TSI                       SAT 08/09/97 11:35 Page:250
        27 005433   000040 236000 28                 LDQ     32
        27 005434   200432 756100                    STQ     I+4,,AUTO
        27 005435   300001 635500                    EPPR5   1,,PR3
        27 005436   200431 455500                    STP5    I+3,,AUTO
        27 005437   000024 236000 28                 LDQ     20
        27 005440   200430 756100                    STQ     I+2,,AUTO
        27 005441   200430 630500                    EPPR0   I+2,,AUTO
        27 005442   000033 631400 28                 EPPR1   27
        27 005443   000000 701000 xent               TSX1    Z8AF$FORME
        27 005444   000000 011000                    NOP     0

     1370    27840    7                                           LOP$$ -> LX_ETT_ITEM.ETT$,
     1371    27841    7                                           0,
     1372    27842    7                                           LOP$$ -> LX_ETT_ITEM.ETT$);
     1373    27843    7                          CALL MFILL_OPTZ (LOP$$, ROP$$);

  27843 27 005445   200166 236100                    LDQ     @ROP$$,,AUTO
        27 005446   200204 756100                    STQ     @ROP$$,,AUTO
        27 005447   200165 236100                    LDQ     @LOP$$,,AUTO
        27 005450   200203 756100                    STQ     @LOP$$,,AUTO
        27 005451   003165 701000 27                 TSX1    MFILL_OPTZ
        27 005452   000000 011000                    NOP     0

     1374    27844    7                        END;

  27844 27 005453   006670 710000 27                 TRA     s:30317

     1375    27845    6                      ELSE
     1376    27846    6                        CALL MOVE_ALL_NUM (LOP$$, ROP$$, ID);

  27846 27 005454   200166 237100                    LDAQ    @ROP$$,,AUTO
        27 005455   200204 757100                    STAQ    @ROP$$,,AUTO
        27 005456   200165 236100                    LDQ     @LOP$$,,AUTO
        27 005457   200203 756100                    STQ     @LOP$$,,AUTO
        27 005460   011661 701000 27                 TSX1    MOVE_ALL_NUM
        27 005461   000000 011000                    NOP     0

PL6.E3A0      #001=Z8E7$STMT_ASSIGNMENT File=Z8E7.:Z8A6TSI                       SAT 08/09/97 11:35 Page:251
     1377    27847    6                    END;

  27847 27 005462   006670 710000 27                 TRA     s:30317

     1378    27848    5                  ELSE IF ID = %MVDD AND

  27848 27 005463   200167 473500                    LDP3    @ID,,AUTO
        27 005464   300000 235100                    LDA     0,,PR3
        27 005465   000243 115007                    CMPA    163,DL
        27 005466   005716 601000 27                 TNZ     s:28594
        27 005467   200004 474500                    LDP4    @ROP$,,AUTO
        27 005470   400000 475500                    LDP5    0,,PR4
        27 005471   500000 220100                    LDX0    0,,PR5
        27 005472   005500 601000 27                 TNZ     s:27853
        27 005473   500003 235100                    LDA     3,,PR5
        27 005474   000003 115007                    CMPA    3,DL
        27 005475   005716 600000 27                 TZE     s:28594
        27 005476   000004 115007                    CMPA    4,DL
        27 005477   005716 600000 27                 TZE     s:28594

     1379    27849    5                      (ROP$ -> LX_ITEM.ID ~= %LX_TERMINAL OR
     1380    27850    5                        (ROP$ -> LX_TERMINAL.SYMBOL ~= %ALPHA_LITERAL AND
     1381    27851    5                         ROP$ -> LX_TERMINAL.SYMBOL ~= %SINGLE_QUOTE)) THEN
     1382    27852    6                    DO;

     1383    27853    6                      CALL Z8AU$TYPE_DESCRIPTOR (LOP$$ -> LX_ETT_ITEM.ETT$,

  27853 27 005500   200165 476500                    LDP6    @LOP$$,,AUTO
        27 005501   600000 477500                    LDP7    0,,PR6
        27 005502   200175 630500                    EPPR0   LOP_DESC,,AUTO
        27 005503   200431 450500                    STP0    I+3,,AUTO
        27 005504   700001 631500                    EPPR1   1,,PR7
        27 005505   200430 451500                    STP1    I+2,,AUTO
        27 005506   200430 630500                    EPPR0   I+2,,AUTO
        27 005507   000000 631400 28                 EPPR1   0
        27 005510   000000 701000 xent               TSX1    Z8AU$TYPE_DESCRIPTOR
        27 005511   000000 011000                    NOP     0
PL6.E3A0      #001=Z8E7$STMT_ASSIGNMENT File=Z8E7.:Z8A6TSI                       SAT 08/09/97 11:35 Page:252

     1384    27854    6                                                 LOP_DESC);
     1385    27855    6                      LOP_DESC.DESC.P = LOP_ST$ -> VARIABLE.B.P;

  27855 27 005512   200067 470500                    LDP0    LOP_ST$,,AUTO
        27 005513   000003 236100                    LDQ     3,,PR0
        27 005514   000015 736000                    QLS     13
        27 005515   200176 676100                    ERQ     LOP_DESC+1,,AUTO
        27 005516   400000 376003                    ANQ     -131072,DU
        27 005517   200176 656100                    ERSQ    LOP_DESC+1,,AUTO

     1386    27856    6                      IF ROP$ -> LX_ITEM.ID = %LX_TERMINAL THEN

  27856 27 005520   200004 471500                    LDP1    @ROP$,,AUTO
        27 005521   100000 473500                    LDP3    0,,PR1
        27 005522   300000 220100                    LDX0    0,,PR3
        27 005523   005527 601000 27                 TNZ     s:27860

     1387    27857    6                        SYMBOL = ROP$ -> LX_TERMINAL.SYMBOL;

  27857 27 005524   300003 235100                    LDA     3,,PR3
        27 005525   200201 755100                    STA     SYMBOL,,AUTO
        27 005526   005560 710000 27                 TRA     s:27872

     1388    27858    6                      ELSE /* %LX_ETT_ITEM */
     1389    27859    7                        DO;

     1390    27860    7                          TEMP$ = ROP$$ -> LX_ETT_ITEM.ETT$ -> ETT.LOP -> CONST.DNT$;

  27860 27 005527   200166 474500                    LDP4    @ROP$$,,AUTO
        27 005530   400000 475500                    LDP5    0,,PR4
        27 005531   500001 476500                    LDP6    1,,PR5
        27 005532   600001 477500                    LDP7    1,,PR6
        27 005533   700006 236100                    LDQ     6,,PR7
        27 005534   200011 756100                    STQ     TEMP$,,AUTO

     1391    27861    7                          IF TEMP$ -> DNT.TEXT.NAME = 'ZERO' OR
PL6.E3A0      #001=Z8E7$STMT_ASSIGNMENT File=Z8E7.:Z8A6TSI                       SAT 08/09/97 11:35 Page:253

  27861 27 005535   200011 470500                    LDP0    TEMP$,,AUTO
        27 005536   000004 221100                    LDX1    4,,PR0
        27 005537   040000 106540                    CMPC    fill='040'O
        27 005540   000004 400011                    ADSC9   4,,PR0                   cn=2,n=*X1
        27 005541   000145 000004 26                 ADSC9   ZERO_BYTE+5              cn=0,n=4
        27 005542   005553 600000 27                 TZE     s:27864
        27 005543   040000 106540                    CMPC    fill='040'O
        27 005544   000004 400011                    ADSC9   4,,PR0                   cn=2,n=*X1
        27 005545   000146 000005 26                 ADSC9   ZERO_BYTE+6              cn=0,n=5
        27 005546   005553 600000 27                 TZE     s:27864
        27 005547   040000 106540                    CMPC    fill='040'O
        27 005550   000004 400011                    ADSC9   4,,PR0                   cn=2,n=*X1
        27 005551   000150 000006 26                 ADSC9   ZERO_BYTE+8              cn=0,n=6
        27 005552   005556 601000 27                 TNZ     s:27865

     1392    27862    7                              TEMP$ -> DNT.TEXT.NAME = 'ZEROS' OR
     1393    27863    7                              TEMP$ -> DNT.TEXT.NAME = 'ZEROES'
     1394    27864    7                            THEN SYMBOL = %RSV_WRD_ZEROES;

  27864 27 005553   000761 235007                    LDA     497,DL
        27 005554   200201 755100                    STA     SYMBOL,,AUTO
        27 005555   005560 710000 27                 TRA     s:27872

     1395    27865    7                            ELSE SYMBOL = %NUMERIC_LITERAL;

  27865 27 005556   000026 235007                    LDA     22,DL
        27 005557   200201 755100                    STA     SYMBOL,,AUTO

     1396    27866    7                        END;

     1397    27867                           %INIT_LX_TERMINAL (@POINTER = "ADDR(TEMP_LX_TERMINAL)",
     1398    27868                                              @TYPE    = %TYD,
     1399    27869                                              @SYMBOL  = SYMBOL,
     1400    27870                                              @DNT$    =
             27870                                         ROP$$ -> LX_ETT_ITEM.ETT$ -> ETT.LOP -> CONST.DNT$
             27870                                                  );
PL6.E3A0      #001=Z8E7$STMT_ASSIGNMENT File=Z8E7.:Z8A6TSI                       SAT 08/09/97 11:35 Page:254

  27872 27 005560   000000 221003                    LDX1    0,DU
        27 005561   200134 741100                    STX1    TEMP_LX_TERMINAL,,AUTO

  27873 27 005562   000000 220003                    LDX0    0,DU
        27 005563   200134 440100                    SXL0    TEMP_LX_TERMINAL,,AUTO

  27877 27 005564   200140 450100                    STZ     TEMP_LX_TERMINAL+4,,AUTO

  27879 27 005565   000001 236000 28                 LDQ     1
        27 005566   200143 756100                    STQ     TEMP_LX_TERMINAL+7,,AUTO

  27881 27 005567   200135 756100                    STQ     TEMP_LX_TERMINAL+1,,AUTO

  27882 27 005570   200137 755100                    STA     TEMP_LX_TERMINAL+3,,AUTO

  27883 27 005571   200166 470500                    LDP0    @ROP$$,,AUTO
        27 005572   000000 473500                    LDP3    0,,PR0
        27 005573   300001 474500                    LDP4    1,,PR3
        27 005574   400001 475500                    LDP5    1,,PR4
        27 005575   500006 236100                    LDQ     6,,PR5
        27 005576   200136 756100                    STQ     TEMP_LX_TERMINAL+2,,AUTO

  27884 27 005577   000133 235000 xsym               LDA     COMCOM+91
        27 005600   200141 755100                    STA     TEMP_LX_TERMINAL+5,,AUTO

  27885 27 005601   000134 235000 xsym               LDA     COMCOM+92
        27 005602   200142 755100                    STA     TEMP_LX_TERMINAL+6,,AUTO

     1401    27888    6                      IF LOP_DESC.DESC.NDSC.N + LOP_DESC.DESC.NDSC.SF <

  27888 27 005603   200176 236100                    LDQ     LOP_DESC+1,,AUTO
        27 005604   000030 736000                    QLS     24
        27 005605   000036 732000                    QRS     30
        27 005606   200430 756100                    STQ     I+2,,AUTO
        27 005607   200176 236100                    LDQ     LOP_DESC+1,,AUTO
        27 005610   000077 376007                    ANQ     63,DL
PL6.E3A0      #001=Z8E7$STMT_ASSIGNMENT File=Z8E7.:Z8A6TSI                       SAT 08/09/97 11:35 Page:255
        27 005611   200430 036100                    ADLQ    I+2,,AUTO
        27 005612   000000 473500                    LDP3    0,,PR0
        27 005613   300001 474500                    LDP4    1,,PR3
        27 005614   400001 475500                    LDP5    1,,PR4
        27 005615   200431 756100                    STQ     I+3,,AUTO
        27 005616   500001 236100                    LDQ     1,,PR5
        27 005617   000030 736000                    QLS     24
        27 005620   000036 732000                    QRS     30
        27 005621   200432 756100                    STQ     I+4,,AUTO
        27 005622   500001 236100                    LDQ     1,,PR5
        27 005623   000077 376007                    ANQ     63,DL
        27 005624   200432 036100                    ADLQ    I+4,,AUTO
        27 005625   200431 116100                    CMPQ    I+3,,AUTO
        27 005626   005651 604400 27                 TMOZ    s:27895

     1402    27889    6                          ROP$$ -> LX_ETT_ITEM.ETT$ -> ETT.LOP -> CONST.NDSC.N
     1403    27890    6                          + ROP$$ -> LX_ETT_ITEM.ETT$ -> ETT.LOP -> CONST.NDSC.SF THEN
     1404    27891    6                        LOP_DESC.DESC.NDSC.N =

  27891 27 005627   000000 473500                    LDP3    0,,PR0
        27 005630   300001 474500                    LDP4    1,,PR3
        27 005631   400001 475500                    LDP5    1,,PR4
        27 005632   500001 236100                    LDQ     1,,PR5
        27 005633   000030 736000                    QLS     24
        27 005634   000036 732000                    QRS     30
        27 005635   200430 756100                    STQ     I+2,,AUTO
        27 005636   500001 236100                    LDQ     1,,PR5
        27 005637   000077 376007                    ANQ     63,DL
        27 005640   200430 036100                    ADLQ    I+2,,AUTO
        27 005641   200431 756100                    STQ     I+3,,AUTO
        27 005642   200176 236100                    LDQ     LOP_DESC+1,,AUTO
        27 005643   000030 736000                    QLS     24
        27 005644   000036 732000                    QRS     30
        27 005645   200432 756100                    STQ     I+4,,AUTO
        27 005646   200431 236100                    LDQ     I+3,,AUTO
        27 005647   200432 136100                    SBLQ    I+4,,AUTO
        27 005650   200176 752101                    STCQ    LOP_DESC+1,'01'O,AUTO
PL6.E3A0      #001=Z8E7$STMT_ASSIGNMENT File=Z8E7.:Z8A6TSI                       SAT 08/09/97 11:35 Page:256

     1405    27892    6                            ROP$$ -> LX_ETT_ITEM.ETT$ -> ETT.LOP -> CONST.NDSC.N
     1406    27893    6                            + ROP$$ -> LX_ETT_ITEM.ETT$ -> ETT.LOP -> CONST.NDSC.SF
     1407    27894    6                            - LOP_DESC.DESC.NDSC.SF;
     1408    27895    6                      CALL Z8EC$NEW_CONST_WITH_TYPE_DESC (LOP_DESC, ADDR(
             27895                               TEMP_LX_TERMINAL), ETT$$);

  27895 27 005651   200134 633500                    EPPR3   TEMP_LX_TERMINAL,,AUTO
        27 005652   200430 453500                    STP3    I+2,,AUTO
        27 005653   200173 634500                    EPPR4   ETT$$,,AUTO
        27 005654   200433 454500                    STP4    I+5,,AUTO
        27 005655   200430 635500                    EPPR5   I+2,,AUTO
        27 005656   200432 455500                    STP5    I+4,,AUTO
        27 005657   200175 636500                    EPPR6   LOP_DESC,,AUTO
        27 005660   200431 456500                    STP6    I+3,,AUTO
        27 005661   200431 630500                    EPPR0   I+3,,AUTO
        27 005662   000016 631400 28                 EPPR1   14
        27 005663   000000 701000 xent               TSX1    Z8EC$NEW_CONST_WITH_TYPE_DESC
        27 005664   000000 011000                    NOP     0

     1409    27896                           %NEW_ILL (@ID    = ID,
     1410    27897                                     @LOP   = LOP$$ -> LX_ETT_ITEM.ETT$,
     1411    27898                                     @ROP   = ETT$$);

  28211 27 005665   200165 470500                    LDP0    @LOP$$,,AUTO
        27 005666   000000 471500                    LDP1    0,,PR0
        27 005667   000036 236000 28                 LDQ     30
        27 005670   200430 756100                    STQ     I+2,,AUTO
        27 005671   100001 633500                    EPPR3   1,,PR1
        27 005672   200435 453500                    STP3    I+7,,AUTO
        27 005673   200430 631500                    EPPR1   I+2,,AUTO
        27 005674   200434 451500                    STP1    I+6,,AUTO
        27 005675   000037 236000 28                 LDQ     31
        27 005676   200167 235100                    LDA     @ID,,AUTO
        27 005677   200432 757100                    STAQ    I+4,,AUTO
        27 005700   000052 236000 28                 LDQ     42
        27 005701   200431 756100                    STQ     I+3,,AUTO
PL6.E3A0      #001=Z8E7$STMT_ASSIGNMENT File=Z8E7.:Z8A6TSI                       SAT 08/09/97 11:35 Page:257
        27 005702   200431 630500                    EPPR0   I+3,,AUTO
        27 005703   000042 631400 28                 EPPR1   34
        27 005704   000000 701000 xent               TSX1    Z8AN$NEW_ILL1
        27 005705   000000 011000                    NOP     0

  28214 27 005706   200165 470500                    LDP0    @LOP$$,,AUTO
        27 005707   000000 471500                    LDP1    0,,PR0
        27 005710   100001 236100                    LDQ     1,,PR1
        27 005711   000000 473400 6                  LDP3    ILL$
        27 005712   300001 756100                    STQ     1,,PR3

  28215 27 005713   200173 236100                    LDQ     ETT$$,,AUTO
        27 005714   300002 756100                    STQ     2,,PR3

     1412    28277    6                    END; /* %MVDD */

  28277 27 005715   006670 710000 27                 TRA     s:30317

     1413    28278    5                  ELSE /* %MVDDR */
     1414    28279                         %NEW_ILL (@ID    = ID,
     1415    28280                                   @LOP   = LOP$$ -> LX_ETT_ITEM.ETT$,
     1416    28281                                   @ROP   = ROP$$ -> LX_ETT_ITEM.ETT$);

  28594 27 005716   200165 474500                    LDP4    @LOP$$,,AUTO
        27 005717   400000 475500                    LDP5    0,,PR4
        27 005720   000036 236000 28                 LDQ     30
        27 005721   200430 756100                    STQ     I+2,,AUTO
        27 005722   500001 631500                    EPPR1   1,,PR5
        27 005723   200435 451500                    STP1    I+7,,AUTO
        27 005724   200430 635500                    EPPR5   I+2,,AUTO
        27 005725   200434 455500                    STP5    I+6,,AUTO
        27 005726   000037 236000 28                 LDQ     31
        27 005727   200167 235100                    LDA     @ID,,AUTO
        27 005730   200432 757100                    STAQ    I+4,,AUTO
        27 005731   000052 236000 28                 LDQ     42
        27 005732   200431 756100                    STQ     I+3,,AUTO
        27 005733   200431 630500                    EPPR0   I+3,,AUTO
PL6.E3A0      #001=Z8E7$STMT_ASSIGNMENT File=Z8E7.:Z8A6TSI                       SAT 08/09/97 11:35 Page:258
        27 005734   000042 631400 28                 EPPR1   34
        27 005735   000000 701000 xent               TSX1    Z8AN$NEW_ILL1
        27 005736   000000 011000                    NOP     0

  28597 27 005737   200165 470500                    LDP0    @LOP$$,,AUTO
        27 005740   000000 471500                    LDP1    0,,PR0
        27 005741   100001 236100                    LDQ     1,,PR1
        27 005742   000000 473400 6                  LDP3    ILL$
        27 005743   300001 756100                    STQ     1,,PR3

  28598 27 005744   200166 471500                    LDP1    @ROP$$,,AUTO
        27 005745   100000 474500                    LDP4    0,,PR1
        27 005746   400001 236100                    LDQ     1,,PR4
        27 005747   300002 756100                    STQ     2,,PR3

  28630 27 005750   006670 710000 27                 TRA     s:30317

     1417    28660
     1418    28661    5                CASE (ELSE);

     1419    28662                       %NEW_ILL (@ID    = ID,
     1420    28663                                 @LOP   = LOP$$ -> LX_ETT_ITEM.ETT$,
     1421    28664                                 @ROP   = ROP$$ -> LX_ETT_ITEM.ETT$);

  28977 27 005751   200165 475500                    LDP5    @LOP$$,,AUTO
        27 005752   500000 476500                    LDP6    0,,PR5
        27 005753   000036 236000 28                 LDQ     30
        27 005754   200430 756100                    STQ     I+2,,AUTO
        27 005755   600001 633500                    EPPR3   1,,PR6
        27 005756   200435 453500                    STP3    I+7,,AUTO
        27 005757   200430 634500                    EPPR4   I+2,,AUTO
        27 005760   200434 454500                    STP4    I+6,,AUTO
        27 005761   000037 236000 28                 LDQ     31
        27 005762   200167 235100                    LDA     @ID,,AUTO
        27 005763   200432 757100                    STAQ    I+4,,AUTO
        27 005764   000052 236000 28                 LDQ     42
        27 005765   200431 756100                    STQ     I+3,,AUTO
PL6.E3A0      #001=Z8E7$STMT_ASSIGNMENT File=Z8E7.:Z8A6TSI                       SAT 08/09/97 11:35 Page:259
        27 005766   200431 630500                    EPPR0   I+3,,AUTO
        27 005767   000042 631400 28                 EPPR1   34
        27 005770   000000 701000 xent               TSX1    Z8AN$NEW_ILL1
        27 005771   000000 011000                    NOP     0

  28980 27 005772   200165 470500                    LDP0    @LOP$$,,AUTO
        27 005773   000000 471500                    LDP1    0,,PR0
        27 005774   100001 236100                    LDQ     1,,PR1
        27 005775   000000 473400 6                  LDP3    ILL$
        27 005776   300001 756100                    STQ     1,,PR3

  28981 27 005777   200166 471500                    LDP1    @ROP$$,,AUTO
        27 006000   100000 474500                    LDP4    0,,PR1
        27 006001   400001 236100                    LDQ     1,,PR4
        27 006002   300002 756100                    STQ     2,,PR3

     1422    29043
     1423    29044    5              END; /*V* Case -- rop's id */

  29044 27 006003   006670 710000 27                 TRA     s:30317

     1424    29045          %EJECT;
PL6.E3A0      #001=Z8E7$STMT_ASSIGNMENT File=Z8E7.:Z8A6TSI                       SAT 08/09/97 11:35 Page:260
     1425    29046    4            CASE(%MVDO, %MVDOR);

     1426    29047
     1427    29048    4              CALL Z8AU$TYPE_DESCRIPTOR (ROP$$ -> LX_ETT_ITEM.ETT$,

  29048 27 006004   200166 471500                    LDP1    @ROP$$,,AUTO
        27 006005   100000 473500                    LDP3    0,,PR1
        27 006006   200040 634500                    EPPR4   TYPE_DESC,,AUTO
        27 006007   200431 454500                    STP4    I+3,,AUTO
        27 006010   300001 635500                    EPPR5   1,,PR3
        27 006011   200430 455500                    STP5    I+2,,AUTO
        27 006012   200430 630500                    EPPR0   I+2,,AUTO
        27 006013   000000 631400 28                 EPPR1   0
        27 006014   000000 701000 xent               TSX1    Z8AU$TYPE_DESCRIPTOR
        27 006015   000000 011000                    NOP     0

     1428    29049    4                                         TYPE_DESC);
     1429    29050
     1430    29051    4              END_MVDO_OPT:
     1431    29052    5                DO;

  29052 27 006016                       END_MVDO_OPT null
     1432    29053    5                  IF COMCOM.OB.ELS

  29053 27 006016   000026 234000 xsym               SZN     COMCOM+22
        27 006017   006401 605000 27                 TPL     s:29127
        27 006020   200041 236100                    LDQ     TYPE_DESC+1,,AUTO
        27 006021   040000 316007                    CANQ    16384,DL
        27 006022   006030 601000 27                 TNZ     s:29057
        27 006023   200040 235100                    LDA     TYPE_DESC,,AUTO
        27 006024   006030 601000 27                 TNZ     s:29057
        27 006025   030000 376007                    ANQ     12288,DL
        27 006026   030000 116007                    CMPQ    12288,DL
        27 006027   006401 600000 27                 TZE     s:29127

     1433    29054    5                             AND (TYPE_DESC.DESC.NDSC.TN = %NDSC4
     1434    29055    5                               OR TYPE_DESC.TYPE        ~= %TYD
PL6.E3A0      #001=Z8E7$STMT_ASSIGNMENT File=Z8E7.:Z8A6TSI                       SAT 08/09/97 11:35 Page:261
     1435    29056    5                               OR TYPE_DESC.DESC.NDSC.S ~= %NO_SIGN) THEN
     1436    29057    6                    DO CASE(ROP$$ -> LX_ETT_ITEM.ETT$ -> ETT.ID);

  29057 27 006030   200166 470500                    LDP0    @ROP$$,,AUTO
        27 006031   000000 471500                    LDP1    0,,PR0
        27 006032   100001 473500                    LDP3    1,,PR1
        27 006033   300000 236100                    LDQ     0,,PR3
        27 006034   000022 772000                    QRL     18
        27 006035   000053 136007                    SBLQ    43,DL
        27 006036   000077 116007                    CMPQ    63,DL
        27 006037   006041 602006 27                 TNC     s:29057+9,QL
        27 006040   006401 710000 27                 TRA     s:29127
        27 006041   006314 710000 27                 TRA     s:29100
        27 006042   006401 710000 27                 TRA     s:29127
        27 006043   006347 710000 27                 TRA     s:29114
        27 006044   006401 710000 27                 TRA     s:29127
        27 006045   006314 710000 27                 TRA     s:29100
        27 006046   006401 710000 27                 TRA     s:29127
        27 006047   006347 710000 27                 TRA     s:29114
        27 006050   006401 710000 27                 TRA     s:29127
        27 006051   006401 710000 27                 TRA     s:29127
        27 006052   006401 710000 27                 TRA     s:29127
        27 006053   006401 710000 27                 TRA     s:29127
        27 006054   006401 710000 27                 TRA     s:29127
        27 006055   006401 710000 27                 TRA     s:29127
        27 006056   006401 710000 27                 TRA     s:29127
        27 006057   006401 710000 27                 TRA     s:29127
        27 006060   006401 710000 27                 TRA     s:29127
        27 006061   006401 710000 27                 TRA     s:29127
        27 006062   006401 710000 27                 TRA     s:29127
        27 006063   006401 710000 27                 TRA     s:29127
        27 006064   006401 710000 27                 TRA     s:29127
        27 006065   006401 710000 27                 TRA     s:29127
        27 006066   006401 710000 27                 TRA     s:29127
        27 006067   006401 710000 27                 TRA     s:29127
        27 006070   006140 710000 27                 TRA     s:29060
        27 006071   006401 710000 27                 TRA     s:29127
PL6.E3A0      #001=Z8E7$STMT_ASSIGNMENT File=Z8E7.:Z8A6TSI                       SAT 08/09/97 11:35 Page:262
        27 006072   006401 710000 27                 TRA     s:29127
        27 006073   006401 710000 27                 TRA     s:29127
        27 006074   006401 710000 27                 TRA     s:29127
        27 006075   006401 710000 27                 TRA     s:29127
        27 006076   006401 710000 27                 TRA     s:29127
        27 006077   006401 710000 27                 TRA     s:29127
        27 006100   006401 710000 27                 TRA     s:29127
        27 006101   006401 710000 27                 TRA     s:29127
        27 006102   006401 710000 27                 TRA     s:29127
        27 006103   006401 710000 27                 TRA     s:29127
        27 006104   006401 710000 27                 TRA     s:29127
        27 006105   006401 710000 27                 TRA     s:29127
        27 006106   006401 710000 27                 TRA     s:29127
        27 006107   006401 710000 27                 TRA     s:29127
        27 006110   006401 710000 27                 TRA     s:29127
        27 006111   006401 710000 27                 TRA     s:29127
        27 006112   006401 710000 27                 TRA     s:29127
        27 006113   006401 710000 27                 TRA     s:29127
        27 006114   006401 710000 27                 TRA     s:29127
        27 006115   006401 710000 27                 TRA     s:29127
        27 006116   006152 710000 27                 TRA     s:29066
        27 006117   006231 710000 27                 TRA     s:29082
        27 006120   006401 710000 27                 TRA     s:29127
        27 006121   006401 710000 27                 TRA     s:29127
        27 006122   006401 710000 27                 TRA     s:29127
        27 006123   006401 710000 27                 TRA     s:29127
        27 006124   006401 710000 27                 TRA     s:29127
        27 006125   006401 710000 27                 TRA     s:29127
        27 006126   006401 710000 27                 TRA     s:29127
        27 006127   006401 710000 27                 TRA     s:29127
        27 006130   006401 710000 27                 TRA     s:29127
        27 006131   006401 710000 27                 TRA     s:29127
        27 006132   006401 710000 27                 TRA     s:29127
        27 006133   006401 710000 27                 TRA     s:29127
        27 006134   006401 710000 27                 TRA     s:29127
        27 006135   006401 710000 27                 TRA     s:29127
        27 006136   006231 710000 27                 TRA     s:29082
PL6.E3A0      #001=Z8E7$STMT_ASSIGNMENT File=Z8E7.:Z8A6TSI                       SAT 08/09/97 11:35 Page:263
        27 006137   006152 710000 27                 TRA     s:29066

     1437    29058
     1438    29059    6                      CASE(%RNDD);

     1439    29060    6                        ID = %MVDOR;

  29060 27 006140   000416 235007                    LDA     270,DL
        27 006141   200167 474500                    LDP4    @ID,,AUTO
        27 006142   400000 755100                    STA     0,,PR4

     1440    29061    6                        ROP$$ -> LX_ETT_ITEM.ETT$ = ROP$$ -> LX_ETT_ITEM.ETT$ -> ETT.
             29061                                 LOP;

  29061 27 006143   000000 471500                    LDP1    0,,PR0
        27 006144   100001 473500                    LDP3    1,,PR1
        27 006145   300001 236100                    LDQ     1,,PR3
        27 006146   100001 756100                    STQ     1,,PR1

     1441    29062    6                        MORE_OPTIMIZATIONS = TRUE;

  29062 27 006147   400000 236003                    LDQ     -131072,DU
        27 006150   200170 756100                    STQ     MORE_OPTIMIZATIONS,,AUTO

     1442    29063    6                        EXIT END_MVDO_OPT;

  29063 27 006151   006447 710000 27                 TRA     s:29511

     1443    29064
     1444    29065    6                      CASE(%CVRD4, %CVRD9);

     1445    29066    6                        CALL Z8AU$TYPE_DESCRIPTOR (LOP$$ -> LX_ETT_ITEM.ETT$,

  29066 27 006152   200165 474500                    LDP4    @LOP$$,,AUTO
        27 006153   400000 475500                    LDP5    0,,PR4
        27 006154   200175 636500                    EPPR6   LOP_DESC,,AUTO
        27 006155   200431 456500                    STP6    I+3,,AUTO
PL6.E3A0      #001=Z8E7$STMT_ASSIGNMENT File=Z8E7.:Z8A6TSI                       SAT 08/09/97 11:35 Page:264
        27 006156   500001 631500                    EPPR1   1,,PR5
        27 006157   200430 451500                    STP1    I+2,,AUTO
        27 006160   200430 630500                    EPPR0   I+2,,AUTO
        27 006161   000000 631400 28                 EPPR1   0
        27 006162   000000 701000 xent               TSX1    Z8AU$TYPE_DESCRIPTOR
        27 006163   000000 011000                    NOP     0

     1446    29067    6                                                   LOP_DESC);
     1447    29068
     1448    29069    6                        IF LOP_DESC.DESC.NDSC.SF = 0 AND ID = %MVDO THEN

  29069 27 006164   200176 236100                    LDQ     LOP_DESC+1,,AUTO
        27 006165   007700 316007                    CANQ    4032,DL
        27 006166   006401 601000 27                 TNZ     s:29127
        27 006167   200167 470500                    LDP0    @ID,,AUTO
        27 006170   000000 235100                    LDA     0,,PR0
        27 006171   000263 115007                    CMPA    179,DL
        27 006172   006401 601000 27                 TNZ     s:29127

     1449    29070    7                          DO;

     1450    29071    7                            CALL Z8AF$FORME (%CVRI,

  29071 27 006173   200166 471500                    LDP1    @ROP$$,,AUTO
        27 006174   100000 473500                    LDP3    0,,PR1
        27 006175   300001 474500                    LDP4    1,,PR3
        27 006176   300001 635500                    EPPR5   1,,PR3
        27 006177   200433 455500                    STP5    I+5,,AUTO
        27 006200   000040 236000 28                 LDQ     32
        27 006201   200432 756100                    STQ     I+4,,AUTO
        27 006202   400001 633500                    EPPR3   1,,PR4
        27 006203   200431 453500                    STP3    I+3,,AUTO
        27 006204   000057 236000 28                 LDQ     47
        27 006205   200430 756100                    STQ     I+2,,AUTO
        27 006206   200430 630500                    EPPR0   I+2,,AUTO
        27 006207   000033 631400 28                 EPPR1   27
        27 006210   000000 701000 xent               TSX1    Z8AF$FORME
PL6.E3A0      #001=Z8E7$STMT_ASSIGNMENT File=Z8E7.:Z8A6TSI                       SAT 08/09/97 11:35 Page:265
        27 006211   000000 011000                    NOP     0

     1451    29072    7                                             ROP$$ -> LX_ETT_ITEM.ETT$ -> ETT.LOP,
     1452    29073    7                                             0,
     1453    29074    7                                             ROP$$ -> LX_ETT_ITEM.ETT$);
     1454    29075    7                            CALL Z8AF$FORME (%CVID4,

  29075 27 006212   200166 470500                    LDP0    @ROP$$,,AUTO
        27 006213   000000 471500                    LDP1    0,,PR0
        27 006214   100001 633500                    EPPR3   1,,PR1
        27 006215   200433 453500                    STP3    I+5,,AUTO
        27 006216   000040 236000 28                 LDQ     32
        27 006217   200432 756100                    STQ     I+4,,AUTO
        27 006220   100001 634500                    EPPR4   1,,PR1
        27 006221   200431 454500                    STP4    I+3,,AUTO
        27 006222   000074 236000 28                 LDQ     60
        27 006223   200430 756100                    STQ     I+2,,AUTO
        27 006224   200430 630500                    EPPR0   I+2,,AUTO
        27 006225   000033 631400 28                 EPPR1   27
        27 006226   000000 701000 xent               TSX1    Z8AF$FORME
        27 006227   000000 011000                    NOP     0

     1455    29076    7                                             ROP$$ -> LX_ETT_ITEM.ETT$,
     1456    29077    7                                             0,
     1457    29078    7                                             ROP$$ -> LX_ETT_ITEM.ETT$);
     1458    29079    7                          END;

  29079 27 006230   006401 710000 27                 TRA     s:29127

     1459    29080
     1460    29081    6                      CASE(%CVQD4, %CVQD9);

     1461    29082    6                        CALL Z8AU$TYPE_DESCRIPTOR (LOP$$ -> LX_ETT_ITEM.ETT$,

  29082 27 006231   200165 474500                    LDP4    @LOP$$,,AUTO
        27 006232   400000 475500                    LDP5    0,,PR4
        27 006233   200175 636500                    EPPR6   LOP_DESC,,AUTO
PL6.E3A0      #001=Z8E7$STMT_ASSIGNMENT File=Z8E7.:Z8A6TSI                       SAT 08/09/97 11:35 Page:266
        27 006234   200431 456500                    STP6    I+3,,AUTO
        27 006235   500001 631500                    EPPR1   1,,PR5
        27 006236   200430 451500                    STP1    I+2,,AUTO
        27 006237   200430 630500                    EPPR0   I+2,,AUTO
        27 006240   000000 631400 28                 EPPR1   0
        27 006241   000000 701000 xent               TSX1    Z8AU$TYPE_DESCRIPTOR
        27 006242   000000 011000                    NOP     0

     1462    29083    6                                                   LOP_DESC);
     1463    29084
     1464    29085    6                        IF LOP_DESC.DESC.NDSC.SF = 0 AND

  29085 27 006243   200176 236100                    LDQ     LOP_DESC+1,,AUTO
        27 006244   007700 316007                    CANQ    4032,DL
        27 006245   006401 601000 27                 TNZ     s:29127
        27 006246   200176 236100                    LDQ     LOP_DESC+1,,AUTO
        27 006247   000077 376007                    ANQ     63,DL
        27 006250   000013 116007                    CMPQ    11,DL
        27 006251   006401 603000 27                 TRC     s:29127
        27 006252   200167 470500                    LDP0    @ID,,AUTO
        27 006253   000000 235100                    LDA     0,,PR0
        27 006254   000263 115007                    CMPA    179,DL
        27 006255   006401 601000 27                 TNZ     s:29127

     1465    29086    6                            LOP_DESC.DESC.NDSC.N < 11 AND
     1466    29087    6                            ID = %MVDO THEN
     1467    29088    7                          DO;

     1468    29089    7                            CALL Z8AF$FORME (%CVQI,

  29089 27 006256   200166 471500                    LDP1    @ROP$$,,AUTO
        27 006257   100000 473500                    LDP3    0,,PR1
        27 006260   300001 474500                    LDP4    1,,PR3
        27 006261   300001 635500                    EPPR5   1,,PR3
        27 006262   200433 455500                    STP5    I+5,,AUTO
        27 006263   000040 236000 28                 LDQ     32
        27 006264   200432 756100                    STQ     I+4,,AUTO
PL6.E3A0      #001=Z8E7$STMT_ASSIGNMENT File=Z8E7.:Z8A6TSI                       SAT 08/09/97 11:35 Page:267
        27 006265   400001 633500                    EPPR3   1,,PR4
        27 006266   200431 453500                    STP3    I+3,,AUTO
        27 006267   000067 236000 28                 LDQ     55
        27 006270   200430 756100                    STQ     I+2,,AUTO
        27 006271   200430 630500                    EPPR0   I+2,,AUTO
        27 006272   000033 631400 28                 EPPR1   27
        27 006273   000000 701000 xent               TSX1    Z8AF$FORME
        27 006274   000000 011000                    NOP     0

     1469    29090    7                                             ROP$$ -> LX_ETT_ITEM.ETT$ -> ETT.LOP,
     1470    29091    7                                             0,
     1471    29092    7                                             ROP$$ -> LX_ETT_ITEM.ETT$);
     1472    29093    7                            CALL Z8AF$FORME (%CVID4,

  29093 27 006275   200166 470500                    LDP0    @ROP$$,,AUTO
        27 006276   000000 471500                    LDP1    0,,PR0
        27 006277   100001 633500                    EPPR3   1,,PR1
        27 006300   200433 453500                    STP3    I+5,,AUTO
        27 006301   000040 236000 28                 LDQ     32
        27 006302   200432 756100                    STQ     I+4,,AUTO
        27 006303   100001 634500                    EPPR4   1,,PR1
        27 006304   200431 454500                    STP4    I+3,,AUTO
        27 006305   000074 236000 28                 LDQ     60
        27 006306   200430 756100                    STQ     I+2,,AUTO
        27 006307   200430 630500                    EPPR0   I+2,,AUTO
        27 006310   000033 631400 28                 EPPR1   27
        27 006311   000000 701000 xent               TSX1    Z8AF$FORME
        27 006312   000000 011000                    NOP     0

     1473    29094    7                                             ROP$$ -> LX_ETT_ITEM.ETT$,
     1474    29095    7                                             0,
     1475    29096    7                                             ROP$$ -> LX_ETT_ITEM.ETT$);
     1476    29097    7                          END;

  29097 27 006313   006401 710000 27                 TRA     s:29127

     1477    29098
PL6.E3A0      #001=Z8E7$STMT_ASSIGNMENT File=Z8E7.:Z8A6TSI                       SAT 08/09/97 11:35 Page:268
     1478    29099    6                      CASE(%ADD, %MPD);

     1479    29100    6                        CALL DEC_AS_OVERP (ROP$$ -> LX_ETT_ITEM.ETT$)

  29100 27 006314   100001 634500                    EPPR4   1,,PR1
        27 006315   200203 454500                    STP4    @LOP$$,,AUTO
        27 006316   003356 701000 27                 TSX1    DEC_AS_OVERP
        27 006317   006346 702000 27                 TSX2    s:29109+1

     1480    29101    6                          WHENRETURN
     1481    29102    7                            DO;

     1482    29103    7                              FROM$$ = ADDR(NIL);

  29103 27 006320   000001 236000 28                 LDQ     1
        27 006321   200172 756100                    STQ     FROM$$,,AUTO

     1483    29104    7                              IF ID = %MVDO THEN

  29104 27 006322   200167 470500                    LDP0    @ID,,AUTO
        27 006323   000000 235100                    LDA     0,,PR0
        27 006324   000263 115007                    CMPA    179,DL
        27 006325   006331 601000 27                 TNZ     s:29107

     1484    29105    7                                ID = %MVOO;

  29105 27 006326   000423 235007                    LDA     275,DL
        27 006327   000000 755100                    STA     0,,PR0
        27 006330   006333 710000 27                 TRA     s:29108

     1485    29106    7                              ELSE
     1486    29107    7                                ID = %MVOOR;

  29107 27 006331   000415 235007                    LDA     269,DL
        27 006332   000000 755100                    STA     0,,PR0

     1487    29108    7                              CALL COMMUTATIVE_OPERANDS (LOP$$, ROP$$, FROM$$, ID);
PL6.E3A0      #001=Z8E7$STMT_ASSIGNMENT File=Z8E7.:Z8A6TSI                       SAT 08/09/97 11:35 Page:269

  29108 27 006333   200167 236100                    LDQ     @ID,,AUTO
        27 006334   200206 756100                    STQ     LOP_ST$,,AUTO
        27 006335   200172 631500                    EPPR1   FROM$$,,AUTO
        27 006336   200205 451500                    STP1    ROP_ST$,,AUTO
        27 006337   200166 236100                    LDQ     @ROP$$,,AUTO
        27 006340   200204 756100                    STQ     @ROP$$,,AUTO
        27 006341   200165 236100                    LDQ     @LOP$$,,AUTO
        27 006342   200203 756100                    STQ     @LOP$$,,AUTO
        27 006343   007632 701000 27                 TSX1    COMMUTATIVE_OPERANDS
        27 006344   000000 011000                    NOP     0

     1488    29109    7                              EXIT END_MVDO_OPT;

  29109 27 006345   006447 710000 27                 TRA     s:29511
        27 006346   006401 710000 27                 TRA     s:29127

     1489    29110    7                            END;
     1490    29111
     1491    29112
     1492    29113    6                      CASE(%SBD, %DVD);

     1493    29114    6                        CALL DEC_AS_OVERP (ROP$$ -> LX_ETT_ITEM.ETT$)

  29114 27 006347   100001 634500                    EPPR4   1,,PR1
        27 006350   200203 454500                    STP4    @LOP$$,,AUTO
        27 006351   003356 701000 27                 TSX1    DEC_AS_OVERP
        27 006352   006401 702000 27                 TSX2    s:29127

     1494    29115    6                          WHENRETURN
     1495    29116    7                            DO;

     1496    29117    7                              FROM$$ = ADDR(NIL);

  29117 27 006353   000001 236000 28                 LDQ     1
        27 006354   200172 756100                    STQ     FROM$$,,AUTO

PL6.E3A0      #001=Z8E7$STMT_ASSIGNMENT File=Z8E7.:Z8A6TSI                       SAT 08/09/97 11:35 Page:270
     1497    29118    7                              IF ID = %MVDO THEN

  29118 27 006355   200167 470500                    LDP0    @ID,,AUTO
        27 006356   000000 235100                    LDA     0,,PR0
        27 006357   000263 115007                    CMPA    179,DL
        27 006360   006364 601000 27                 TNZ     s:29121

     1498    29119    7                                ID = %MVOO;

  29119 27 006361   000423 235007                    LDA     275,DL
        27 006362   000000 755100                    STA     0,,PR0
        27 006363   006366 710000 27                 TRA     s:29122

     1499    29120    7                              ELSE
     1500    29121    7                                ID = %MVOOR;

  29121 27 006364   000415 235007                    LDA     269,DL
        27 006365   000000 755100                    STA     0,,PR0

     1501    29122    7                             CALL NON_COMMUTATIVE_OPERANDS (LOP$$, ROP$$, FROM$$, ID);

  29122 27 006366   200167 236100                    LDQ     @ID,,AUTO
        27 006367   200206 756100                    STQ     LOP_ST$,,AUTO
        27 006370   200172 631500                    EPPR1   FROM$$,,AUTO
        27 006371   200205 451500                    STP1    ROP_ST$,,AUTO
        27 006372   200166 236100                    LDQ     @ROP$$,,AUTO
        27 006373   200204 756100                    STQ     @ROP$$,,AUTO
        27 006374   200165 236100                    LDQ     @LOP$$,,AUTO
        27 006375   200203 756100                    STQ     @LOP$$,,AUTO
        27 006376   010246 701000 27                 TSX1    NON_COMMUTATIVE_OPERANDS
        27 006377   000000 011000                    NOP     0

     1502    29123    7                              EXIT END_MVDO_OPT;

  29123 27 006400   006447 710000 27                 TRA     s:29511

     1503    29124    7                            END;
PL6.E3A0      #001=Z8E7$STMT_ASSIGNMENT File=Z8E7.:Z8A6TSI                       SAT 08/09/97 11:35 Page:271
     1504    29125    6                    END;

     1505    29126
     1506    29127    5                  IF ROP$$ -> LX_ETT_ITEM.B.ALL THEN

  29127 27 006401   200166 470500                    LDP0    @ROP$$,,AUTO
        27 006402   000000 471500                    LDP1    0,,PR0
        27 006403   100000 236100                    LDQ     0,,PR1
        27 006404   040000 316007                    CANQ    16384,DL
        27 006405   006415 600000 27                 TZE     s:29445

     1507    29128    5                    CALL MOVE_ALL_NUM (LOP$$, ROP$$, ID);

  29128 27 006406   200166 237100                    LDAQ    @ROP$$,,AUTO
        27 006407   200204 757100                    STAQ    @ROP$$,,AUTO
        27 006410   200165 236100                    LDQ     @LOP$$,,AUTO
        27 006411   200203 756100                    STQ     @LOP$$,,AUTO
        27 006412   011661 701000 27                 TSX1    MOVE_ALL_NUM
        27 006413   000000 011000                    NOP     0
        27 006414   006670 710000 27                 TRA     s:30317

     1508    29129    5                  ELSE
     1509    29130                         %NEW_ILL (@ID = ID,
     1510    29131                                   @LOP = LOP$$ -> LX_ETT_ITEM.ETT$,
     1511    29132                                   @ROP = ROP$$ -> LX_ETT_ITEM.ETT$);

  29445 27 006415   200165 473500                    LDP3    @LOP$$,,AUTO
        27 006416   300000 474500                    LDP4    0,,PR3
        27 006417   000036 236000 28                 LDQ     30
        27 006420   200430 756100                    STQ     I+2,,AUTO
        27 006421   400001 631500                    EPPR1   1,,PR4
        27 006422   200435 451500                    STP1    I+7,,AUTO
        27 006423   200430 634500                    EPPR4   I+2,,AUTO
        27 006424   200434 454500                    STP4    I+6,,AUTO
        27 006425   000037 236000 28                 LDQ     31
        27 006426   200167 235100                    LDA     @ID,,AUTO
        27 006427   200432 757100                    STAQ    I+4,,AUTO
PL6.E3A0      #001=Z8E7$STMT_ASSIGNMENT File=Z8E7.:Z8A6TSI                       SAT 08/09/97 11:35 Page:272
        27 006430   000052 236000 28                 LDQ     42
        27 006431   200431 756100                    STQ     I+3,,AUTO
        27 006432   200431 630500                    EPPR0   I+3,,AUTO
        27 006433   000042 631400 28                 EPPR1   34
        27 006434   000000 701000 xent               TSX1    Z8AN$NEW_ILL1
        27 006435   000000 011000                    NOP     0

  29448 27 006436   200165 470500                    LDP0    @LOP$$,,AUTO
        27 006437   000000 471500                    LDP1    0,,PR0
        27 006440   100001 236100                    LDQ     1,,PR1
        27 006441   000000 473400 6                  LDP3    ILL$
        27 006442   300001 756100                    STQ     1,,PR3

  29449 27 006443   200166 471500                    LDP1    @ROP$$,,AUTO
        27 006444   100000 474500                    LDP4    0,,PR1
        27 006445   400001 236100                    LDQ     1,,PR4
        27 006446   300002 756100                    STQ     2,,PR3

     1512    29511    5                END;

  29511 27 006447   006670 710000 27                 TRA     s:30317

     1513    29512
     1514    29513        %EJECT;
PL6.E3A0      #001=Z8E7$STMT_ASSIGNMENT File=Z8E7.:Z8A6TSI                       SAT 08/09/97 11:35 Page:273
     1515    29514    4            CASE(%MVOD, %MVODR);

     1516    29515
     1517    29516    4              CALL Z8AU$TYPE_DESCRIPTOR (LOP$$ -> LX_ETT_ITEM.ETT$,

  29516 27 006450   200165 471500                    LDP1    @LOP$$,,AUTO
        27 006451   100000 473500                    LDP3    0,,PR1
        27 006452   200040 634500                    EPPR4   TYPE_DESC,,AUTO
        27 006453   200431 454500                    STP4    I+3,,AUTO
        27 006454   300001 635500                    EPPR5   1,,PR3
        27 006455   200430 455500                    STP5    I+2,,AUTO
        27 006456   200430 630500                    EPPR0   I+2,,AUTO
        27 006457   000000 631400 28                 EPPR1   0
        27 006460   000000 701000 xent               TSX1    Z8AU$TYPE_DESCRIPTOR
        27 006461   000000 011000                    NOP     0

     1518    29517    4                                         TYPE_DESC);
     1519    29518
     1520    29519    4              END_MVOD_OPT:
     1521    29520    5                DO;

  29520 27 006462                       END_MVOD_OPT null
     1522    29521    5                  IF COMCOM.OB.ELS

  29521 27 006462   000026 234000 xsym               SZN     COMCOM+22
        27 006463   006603 605000 27                 TPL     s:29866
        27 006464   200041 236100                    LDQ     TYPE_DESC+1,,AUTO
        27 006465   040000 316007                    CANQ    16384,DL
        27 006466   006472 601000 27                 TNZ     s:29524
        27 006467   030000 376007                    ANQ     12288,DL
        27 006470   030000 116007                    CMPQ    12288,DL
        27 006471   006603 600000 27                 TZE     s:29866

     1523    29522    5                       AND (TYPE_DESC.DESC.NDSC.TN
     1524    29523    5                               OR TYPE_DESC.DESC.NDSC.S ~= %NO_SIGN) THEN
     1525    29524    6                    DO CASE(ROP$$ -> LX_ETT_ITEM.ETT$ -> ETT.ID);

PL6.E3A0      #001=Z8E7$STMT_ASSIGNMENT File=Z8E7.:Z8A6TSI                       SAT 08/09/97 11:35 Page:274
  29524 27 006472   200166 470500                    LDP0    @ROP$$,,AUTO
        27 006473   000000 471500                    LDP1    0,,PR0
        27 006474   100001 473500                    LDP3    1,,PR1
        27 006475   300000 236100                    LDQ     0,,PR3
        27 006476   000022 772000                    QRL     18
        27 006477   000163 136007                    SBLQ    115,DL
        27 006500   000012 116007                    CMPQ    10,DL
        27 006501   006503 602006 27                 TNC     s:29524+9,QL
        27 006502   006603 710000 27                 TRA     s:29866
        27 006503   006527 710000 27                 TRA     s:29533
        27 006504   006555 710000 27                 TRA     s:29543
        27 006505   006527 710000 27                 TRA     s:29533
        27 006506   006555 710000 27                 TRA     s:29543
        27 006507   006603 710000 27                 TRA     s:29866
        27 006510   006603 710000 27                 TRA     s:29866
        27 006511   006603 710000 27                 TRA     s:29866
        27 006512   006603 710000 27                 TRA     s:29866
        27 006513   006603 710000 27                 TRA     s:29866
        27 006514   006515 710000 27                 TRA     s:29527

     1526    29525
     1527    29526    6                      CASE(%RNDO);

     1528    29527    6                        ID = %MVODR;

  29527 27 006515   000417 235007                    LDA     271,DL
        27 006516   200167 474500                    LDP4    @ID,,AUTO
        27 006517   400000 755100                    STA     0,,PR4

     1529    29528    6                        ROP$$ -> LX_ETT_ITEM.ETT$ = ROP$$ -> LX_ETT_ITEM.ETT$ -> ETT.
             29528                                 LOP;

  29528 27 006520   000000 471500                    LDP1    0,,PR0
        27 006521   100001 473500                    LDP3    1,,PR1
        27 006522   300001 236100                    LDQ     1,,PR3
        27 006523   100001 756100                    STQ     1,,PR1

PL6.E3A0      #001=Z8E7$STMT_ASSIGNMENT File=Z8E7.:Z8A6TSI                       SAT 08/09/97 11:35 Page:275
     1530    29529    6                        MORE_OPTIMIZATIONS = TRUE;

  29529 27 006524   400000 236003                    LDQ     -131072,DU
        27 006525   200170 756100                    STQ     MORE_OPTIMIZATIONS,,AUTO

     1531    29530    6                        EXIT END_MVOD_OPT;

  29530 27 006526   006635 710000 27                 TRA     s:29932

     1532    29531
     1533    29532    6                      CASE(%ADO, %MPO);

     1534    29533    6                              FROM$$ = ADDR(NIL);

  29533 27 006527   000001 236000 28                 LDQ     1
        27 006530   200172 756100                    STQ     FROM$$,,AUTO

     1535    29534    6                              IF ID = %MVOD THEN

  29534 27 006531   200167 471500                    LDP1    @ID,,AUTO
        27 006532   100000 235100                    LDA     0,,PR1
        27 006533   000257 115007                    CMPA    175,DL
        27 006534   006540 601000 27                 TNZ     s:29537

     1536    29535    6                                ID = %MVOO;

  29535 27 006535   000423 235007                    LDA     275,DL
        27 006536   100000 755100                    STA     0,,PR1
        27 006537   006542 710000 27                 TRA     s:29538

     1537    29536    6                              ELSE
     1538    29537    6                                ID = %MVOOR;

  29537 27 006540   000415 235007                    LDA     269,DL
        27 006541   100000 755100                    STA     0,,PR1

     1539    29538    6                              CALL COMMUTATIVE_OPERANDS (LOP$$, ROP$$, FROM$$, ID);
PL6.E3A0      #001=Z8E7$STMT_ASSIGNMENT File=Z8E7.:Z8A6TSI                       SAT 08/09/97 11:35 Page:276

  29538 27 006542   200167 236100                    LDQ     @ID,,AUTO
        27 006543   200206 756100                    STQ     LOP_ST$,,AUTO
        27 006544   200172 633500                    EPPR3   FROM$$,,AUTO
        27 006545   200205 453500                    STP3    ROP_ST$,,AUTO
        27 006546   200166 236100                    LDQ     @ROP$$,,AUTO
        27 006547   200204 756100                    STQ     @ROP$$,,AUTO
        27 006550   200165 236100                    LDQ     @LOP$$,,AUTO
        27 006551   200203 756100                    STQ     @LOP$$,,AUTO
        27 006552   007632 701000 27                 TSX1    COMMUTATIVE_OPERANDS
        27 006553   000000 011000                    NOP     0

     1540    29539    6                              EXIT END_MVOD_OPT;

  29539 27 006554   006635 710000 27                 TRA     s:29932

     1541    29540
     1542    29541
     1543    29542    6                      CASE(%SBO, %DVO);

     1544    29543    6                              FROM$$ = ADDR(NIL);

  29543 27 006555   000001 236000 28                 LDQ     1
        27 006556   200172 756100                    STQ     FROM$$,,AUTO

     1545    29544    6                              IF ID = %MVOD THEN

  29544 27 006557   200167 471500                    LDP1    @ID,,AUTO
        27 006560   100000 235100                    LDA     0,,PR1
        27 006561   000257 115007                    CMPA    175,DL
        27 006562   006566 601000 27                 TNZ     s:29547

     1546    29545    6                                ID = %MVOO;

  29545 27 006563   000423 235007                    LDA     275,DL
        27 006564   100000 755100                    STA     0,,PR1
        27 006565   006570 710000 27                 TRA     s:29548
PL6.E3A0      #001=Z8E7$STMT_ASSIGNMENT File=Z8E7.:Z8A6TSI                       SAT 08/09/97 11:35 Page:277

     1547    29546    6                              ELSE
     1548    29547    6                                ID = %MVOOR;

  29547 27 006566   000415 235007                    LDA     269,DL
        27 006567   100000 755100                    STA     0,,PR1

     1549    29548    6                             CALL NON_COMMUTATIVE_OPERANDS (LOP$$, ROP$$, FROM$$, ID);

  29548 27 006570   200167 236100                    LDQ     @ID,,AUTO
        27 006571   200206 756100                    STQ     LOP_ST$,,AUTO
        27 006572   200172 633500                    EPPR3   FROM$$,,AUTO
        27 006573   200205 453500                    STP3    ROP_ST$,,AUTO
        27 006574   200166 236100                    LDQ     @ROP$$,,AUTO
        27 006575   200204 756100                    STQ     @ROP$$,,AUTO
        27 006576   200165 236100                    LDQ     @LOP$$,,AUTO
        27 006577   200203 756100                    STQ     @LOP$$,,AUTO
        27 006600   010246 701000 27                 TSX1    NON_COMMUTATIVE_OPERANDS
        27 006601   000000 011000                    NOP     0

     1550    29549    6                              EXIT END_MVOD_OPT;

  29549 27 006602   006635 710000 27                 TRA     s:29932

     1551    29550    6                    END;

     1552    29551                       %NEW_ILL ( @ID     = ID ,
     1553    29552                                  @LOP    = LOP$$ -> LX_ETT_ITEM.ETT$ ,
     1554    29553                                  @ROP    = ROP$$ -> LX_ETT_ITEM.ETT$ );

  29866 27 006603   200165 470500                    LDP0    @LOP$$,,AUTO
        27 006604   000000 471500                    LDP1    0,,PR0
        27 006605   000036 236000 28                 LDQ     30
        27 006606   200430 756100                    STQ     I+2,,AUTO
        27 006607   100001 633500                    EPPR3   1,,PR1
        27 006610   200435 453500                    STP3    I+7,,AUTO
        27 006611   200430 631500                    EPPR1   I+2,,AUTO
PL6.E3A0      #001=Z8E7$STMT_ASSIGNMENT File=Z8E7.:Z8A6TSI                       SAT 08/09/97 11:35 Page:278
        27 006612   200434 451500                    STP1    I+6,,AUTO
        27 006613   000037 236000 28                 LDQ     31
        27 006614   200167 235100                    LDA     @ID,,AUTO
        27 006615   200432 757100                    STAQ    I+4,,AUTO
        27 006616   000052 236000 28                 LDQ     42
        27 006617   200431 756100                    STQ     I+3,,AUTO
        27 006620   200431 630500                    EPPR0   I+3,,AUTO
        27 006621   000042 631400 28                 EPPR1   34
        27 006622   000000 701000 xent               TSX1    Z8AN$NEW_ILL1
        27 006623   000000 011000                    NOP     0

  29869 27 006624   200165 470500                    LDP0    @LOP$$,,AUTO
        27 006625   000000 471500                    LDP1    0,,PR0
        27 006626   100001 236100                    LDQ     1,,PR1
        27 006627   000000 473400 6                  LDP3    ILL$
        27 006630   300001 756100                    STQ     1,,PR3

  29870 27 006631   200166 471500                    LDP1    @ROP$$,,AUTO
        27 006632   100000 474500                    LDP4    0,,PR1
        27 006633   400001 236100                    LDQ     1,,PR4
        27 006634   300002 756100                    STQ     2,,PR3

     1555    29932    5                END;

  29932 27 006635   006670 710000 27                 TRA     s:30317

     1556    29933          %EJECT;
PL6.E3A0      #001=Z8E7$STMT_ASSIGNMENT File=Z8E7.:Z8A6TSI                       SAT 08/09/97 11:35 Page:279
     1557    29934    4            CASE(ELSE);

     1558    29935                   %NEW_ILL ( @ID     = ID ,
     1559    29936                              @LOP    = LOP$$ -> LX_ETT_ITEM.ETT$ ,
     1560    29937                              @ROP    = ROP$$ -> LX_ETT_ITEM.ETT$ );

  30250 27 006636   200165 471500                    LDP1    @LOP$$,,AUTO
        27 006637   100000 473500                    LDP3    0,,PR1
        27 006640   000036 236000 28                 LDQ     30
        27 006641   200430 756100                    STQ     I+2,,AUTO
        27 006642   300001 634500                    EPPR4   1,,PR3
        27 006643   200435 454500                    STP4    I+7,,AUTO
        27 006644   200430 633500                    EPPR3   I+2,,AUTO
        27 006645   200434 453500                    STP3    I+6,,AUTO
        27 006646   000037 236000 28                 LDQ     31
        27 006647   200167 235100                    LDA     @ID,,AUTO
        27 006650   200432 757100                    STAQ    I+4,,AUTO
        27 006651   000052 236000 28                 LDQ     42
        27 006652   200431 756100                    STQ     I+3,,AUTO
        27 006653   200431 630500                    EPPR0   I+3,,AUTO
        27 006654   000042 631400 28                 EPPR1   34
        27 006655   000000 701000 xent               TSX1    Z8AN$NEW_ILL1
        27 006656   000000 011000                    NOP     0

  30253 27 006657   200165 470500                    LDP0    @LOP$$,,AUTO
        27 006660   000000 471500                    LDP1    0,,PR0
        27 006661   100001 236100                    LDQ     1,,PR1
        27 006662   000000 473400 6                  LDP3    ILL$
        27 006663   300001 756100                    STQ     1,,PR3

  30254 27 006664   200166 471500                    LDP1    @ROP$$,,AUTO
        27 006665   100000 474500                    LDP4    0,,PR1
        27 006666   400001 236100                    LDQ     1,,PR4
        27 006667   300002 756100                    STQ     2,,PR3

     1561    30316    4          END /*V* Case */;

PL6.E3A0      #001=Z8E7$STMT_ASSIGNMENT File=Z8E7.:Z8A6TSI                       SAT 08/09/97 11:35 Page:280
     1562    30317    3        END; /*V* While -- more_optimizations */

  30317 27 006670   200170 234100                    SZN     MORE_OPTIMIZATIONS,,AUTO
        27 006671   003431 604000 27                 TMI     s:23785

     1563    30318    2   END MOVE_OPTIMIZATIONS;

  30318 27 006672   200164 221300                    LDX1  ! LOWER_LX_ETT_ITEM+8,,AUTO
        27 006673   000001 702211                    TSX2  ! 1,X1

     1564    30319
     1565    30320        %EJECT;
PL6.E3A0      #001=Z8E7$STMT_ASSIGNMENT File=Z8E7.:Z8A6TSI                       SAT 08/09/97 11:35 Page:281
     1566    30321        /*================*/
     1567    30322    1     PRE_MOVE_ACTIONS: PROC (LOP$, ROP$) ALTRET;

  30322 27 006674   200176 741300       PRE_MOVE_AC* STX1  ! LOP_DESC+1,,AUTO

     1568    30323        /*================*/
     1569    30324
     1570    30325    2   DCL LOP$               PTR;
     1571    30326    2   DCL ROP$               PTR;
     1572    30327
     1573    30328    2      CALL DE_EDIT (LOP$, ROP$);

  30328 27 006675   200200 236100                    LDQ     @ROP$,,AUTO
        27 006676   200204 756100                    STQ     TYPE_DESC,,AUTO
        27 006677   200177 236100                    LDQ     @LOP$,,AUTO
        27 006700   200203 756100                    STQ     @ETT$,,AUTO
        27 006701   006745 701000 27                 TSX1    DE_EDIT
        27 006702   000000 011000                    NOP     0

     1574    30329
     1575    30330    2      CALL Z8E7$ROUNDING (LOP$, ROP$, ON_SIZE);

  30330 27 006703   200070 630500                    EPPR0   ON_SIZE,,AUTO
        27 006704   200432 450500                    STP0    I+4,,AUTO
        27 006705   200200 236100                    LDQ     @ROP$,,AUTO
        27 006706   200177 235100                    LDA     @LOP$,,AUTO
        27 006707   200430 757100                    STAQ    I+2,,AUTO
        27 006710   200430 630500                    EPPR0   I+2,,AUTO
        27 006711   000016 631400 28                 EPPR1   14
        27 006712   000000 701000 xent               TSX1    Z8E7$ROUNDING
        27 006713   000000 011000                    NOP     0

     1576    30331
     1577    30332    2      CALL Z8E7$EDITED (LOP$, ROP$, ON_SIZE)

  30332 27 006714   200070 630500                    EPPR0   ON_SIZE,,AUTO
        27 006715   200432 450500                    STP0    I+4,,AUTO
PL6.E3A0      #001=Z8E7$STMT_ASSIGNMENT File=Z8E7.:Z8A6TSI                       SAT 08/09/97 11:35 Page:282
        27 006716   200200 236100                    LDQ     @ROP$,,AUTO
        27 006717   200177 235100                    LDA     @LOP$,,AUTO
        27 006720   200430 757100                    STAQ    I+2,,AUTO
        27 006721   200430 630500                    EPPR0   I+2,,AUTO
        27 006722   000016 631400 28                 EPPR1   14
        27 006723   000000 701000 xent               TSX1    Z8E7$EDITED
        27 006724   006726 702000 27                 TSX2    s:30335
        27 006725   006743 710000 27                 TRA     s:30340

     1578    30333    2        WHENALTRETURN
     1579    30334    3          DO;

     1580    30335    3            IF NOT ROP$ -> LX_ETT_ITEM.B.ALL THEN

  30335 27 006726   200200 470500                    LDP0    @ROP$,,AUTO
        27 006727   000000 471500                    LDP1    0,,PR0
        27 006730   100000 236100                    LDQ     0,,PR1
        27 006731   040000 316007                    CANQ    16384,DL
        27 006732   006741 601000 27                 TNZ     s:30337

     1581    30336    3              CALL SIGN_AND_TRUNCATION_CHECKS (LOP$, ROP$);

  30336 27 006733   200200 236100                    LDQ     @ROP$,,AUTO
        27 006734   200204 756100                    STQ     TYPE_DESC,,AUTO
        27 006735   200177 236100                    LDQ     @LOP$,,AUTO
        27 006736   200203 756100                    STQ     @ETT$,,AUTO
        27 006737   000342 701000 27                 TSX1    SIGN_AND_TRUNCATION_CHECKS
        27 006740   000000 011000                    NOP     0

     1582    30337    3            ALTRETURN;

  30337 27 006741   200176 221300                    LDX1  ! LOP_DESC+1,,AUTO
        27 006742   000000 702211                    TSX2  ! 0,X1

     1583    30338    3          END;
     1584    30339
     1585    30340    2   END PRE_MOVE_ACTIONS;
PL6.E3A0      #001=Z8E7$STMT_ASSIGNMENT File=Z8E7.:Z8A6TSI                       SAT 08/09/97 11:35 Page:283

  30340 27 006743   200176 221300                    LDX1  ! LOP_DESC+1,,AUTO
        27 006744   000001 702211                    TSX2  ! 1,X1

     1586    30341        %EJECT;
PL6.E3A0      #001=Z8E7$STMT_ASSIGNMENT File=Z8E7.:Z8A6TSI                       SAT 08/09/97 11:35 Page:284
     1587    30342        /*=======*/
     1588    30343    1     DE_EDIT: PROC (LOP$, ROP$);

  30343 27 006745   200202 741300       DE_EDIT      STX1  ! @TYPE_DESC,,AUTO

     1589    30344        /*=======*/
     1590    30345
     1591    30346    2   DCL LOP$               PTR;
     1592    30347    2   DCL ROP$               PTR;
     1593    30348
     1594    30349    2   DCL ROP_ST$            PTR;
     1595    30350    2   DCL LOP_ST$            PTR;
     1596    30351
     1597    30352    2      IF ROP$ -> LX_ETT_ITEM.ID = %LX_ETT_ITEM THEN

  30352 27 006746   200204 470500                    LDP0    @ROP$,,AUTO
        27 006747   000000 471500                    LDP1    0,,PR0
        27 006750   100000 220100                    LDX0    0,,PR1
        27 006751   000004 100003                    CMPX0   4,DU
        27 006752   007067 601000 27                 TNZ     s:30392

     1598    30353    3        DO;

     1599    30354               %FISH (TRIAD = ROP$ -> LX_ETT_ITEM.ETT$,
     1600    30355                      RTN   = ROP_ST$);

  30357 27 006753   100001 236100                    LDQ     1,,PR1
        27 006754   200205 756100                    STQ     ROP_ST$,,AUTO

  30358 27 006755   200205 473500                    LDP3    ROP_ST$,,AUTO
        27 006756   300000 222100                    LDX2    0,,PR3
        27 006757   000751 102003                    CMPX2   489,DU
        27 006760   006770 603000 27                 TRC     s:30364

  30359 27 006761   200205 470500                    LDP0    ROP_ST$,,AUTO
        27 006762   000001 236100                    LDQ     1,,PR0
        27 006763   200205 756100                    STQ     ROP_ST$,,AUTO
PL6.E3A0      #001=Z8E7$STMT_ASSIGNMENT File=Z8E7.:Z8A6TSI                       SAT 08/09/97 11:35 Page:285

  30360 27 006764   200205 470500                    LDP0    ROP_ST$,,AUTO
        27 006765   000000 220100                    LDX0    0,,PR0
        27 006766   000751 100003                    CMPX0   489,DU
        27 006767   006761 602000 27                 TNC     s:30359

     1601    30363
     1602    30364    3          IF ROP_ST$ -> VARIABLE.B.CLASS = %CLASS_NUMERIC_EDITED THEN

  30364 27 006770   200205 470500                    LDP0    ROP_ST$,,AUTO
        27 006771   000003 236100                    LDQ     3,,PR0
        27 006772   000007 376007                    ANQ     7,DL
        27 006773   000005 116007                    CMPQ    5,DL
        27 006774   007067 601000 27                 TNZ     s:30392

     1603    30365    4            DO;

     1604    30366    4              IF COMCOM.OB.FIPS.LEVEL >= %INT_LEV AND

  30366 27 006775   000036 720000 xsym               LXL0    COMCOM+30
        27 006776   000002 100003                    CMPX0   2,DU
        27 006777   007016 604000 27                 TMI     s:30375
        27 007000   200203 471500                    LDP1    @LOP$,,AUTO
        27 007001   100000 473500                    LDP3    0,,PR1
        27 007002   300000 236100                    LDQ     0,,PR3
        27 007003   004000 316007                    CANQ    2048,DL
        27 007004   007016 601000 27                 TNZ     s:30375
        27 007005   200204 474500                    LDP4    @ROP$,,AUTO
        27 007006   400000 475500                    LDP5    0,,PR4
        27 007007   500000 236100                    LDQ     0,,PR5
        27 007010   004000 316007                    CANQ    2048,DL
        27 007011   007016 601000 27                 TNZ     s:30375

     1605    30367    4                  NOT LOP$ -> LX_ITEM.B.HIGH_LEV AND
     1606    30368    4                  NOT ROP$ -> LX_ITEM.B.HIGH_LEV THEN
     1607    30369    4                CALL Z8AE$ERROR (%E$LEVEL_CHECK,

PL6.E3A0      #001=Z8E7$STMT_ASSIGNMENT File=Z8E7.:Z8A6TSI                       SAT 08/09/97 11:35 Page:286
  30369 27 007012   000076 630400 28                 EPPR0   62
        27 007013   000016 631400 28                 EPPR1   14
        27 007014   000000 701000 xent               TSX1    Z8AE$ERROR
        27 007015   000000 011000                    NOP     0

     1608    30370    4                                 O1COM.LINE_NO,
     1609    30371    4                                 O1COM.COLUMN_NO);
     1610    30372                   %FISH (TRIAD = LOP$ -> LX_ETT_ITEM.ETT$,
     1611    30373                          RTN   = LOP_ST$);

  30375 27 007016   200203 470500                    LDP0    @LOP$,,AUTO
        27 007017   000000 471500                    LDP1    0,,PR0
        27 007020   100001 236100                    LDQ     1,,PR1
        27 007021   200206 756100                    STQ     LOP_ST$,,AUTO

  30376 27 007022   200206 473500                    LDP3    LOP_ST$,,AUTO
        27 007023   300000 220100                    LDX0    0,,PR3
        27 007024   000751 100003                    CMPX0   489,DU
        27 007025   007035 603000 27                 TRC     s:30382

  30377 27 007026   200206 470500                    LDP0    LOP_ST$,,AUTO
        27 007027   000001 236100                    LDQ     1,,PR0
        27 007030   200206 756100                    STQ     LOP_ST$,,AUTO

  30378 27 007031   200206 470500                    LDP0    LOP_ST$,,AUTO
        27 007032   000000 220100                    LDX0    0,,PR0
        27 007033   000751 100003                    CMPX0   489,DU
        27 007034   007026 602000 27                 TNC     s:30377

     1612    30381
     1613    30382    4              IF LOP_ST$ -> VARIABLE.B.SUB_CLASS.TYPE = %CLASS_NUMERIC THEN

  30382 27 007035   200206 470500                    LDP0    LOP_ST$,,AUTO
        27 007036   000003 236100                    LDQ     3,,PR0
        27 007037   000003 376007                    ANQ     3,DL
        27 007040   000001 116007                    CMPQ    1,DL
        27 007041   007067 601000 27                 TNZ     s:30392
PL6.E3A0      #001=Z8E7$STMT_ASSIGNMENT File=Z8E7.:Z8A6TSI                       SAT 08/09/97 11:35 Page:287

     1614    30383    5                DO;

     1615    30384    5                  CALL Z8AF$FORME_ON_SIZE (%CVDDD,

  30384 27 007042   200204 471500                    LDP1    @ROP$,,AUTO
        27 007043   100000 473500                    LDP3    0,,PR1
        27 007044   000001 236000 28                 LDQ     1
        27 007045   200430 756100                    STQ     I+2,,AUTO
        27 007046   200070 634500                    EPPR4   ON_SIZE,,AUTO
        27 007047   200435 454500                    STP4    I+7,,AUTO
        27 007050   300001 635500                    EPPR5   1,,PR3
        27 007051   200434 455500                    STP5    I+6,,AUTO
        27 007052   200430 636500                    EPPR6   I+2,,AUTO
        27 007053   200433 456500                    STP6    I+5,,AUTO
        27 007054   300001 637500                    EPPR7   1,,PR3
        27 007055   200432 457500                    STP7    I+4,,AUTO
        27 007056   000102 236000 28                 LDQ     66
        27 007057   200431 756100                    STQ     I+3,,AUTO
        27 007060   200431 630500                    EPPR0   I+3,,AUTO
        27 007061   000042 631400 28                 EPPR1   34
        27 007062   000000 701000 xent               TSX1    Z8AF$FORME_ON_SIZE
        27 007063   000000 011000                    NOP     0

     1616    30385    5                                           ROP$ -> LX_ETT_ITEM.ETT$,
     1617    30386    5                                           ADDR(NIL),
     1618    30387    5                                           ROP$ -> LX_ETT_ITEM.ETT$, ON_SIZE);
     1619    30388    5                  ROP$ -> LX_ETT_ITEM.TYPE = %TYD;

  30388 27 007064   200204 470500                    LDP0    @ROP$,,AUTO
        27 007065   000000 471500                    LDP1    0,,PR0
        27 007066   100004 450100                    STZ     4,,PR1

     1620    30389    5                END;

     1621    30390    4            END;

PL6.E3A0      #001=Z8E7$STMT_ASSIGNMENT File=Z8E7.:Z8A6TSI                       SAT 08/09/97 11:35 Page:288
     1622    30391    3        END;

     1623    30392    2   END DE_EDIT;

  30392 27 007067   200202 221300                    LDX1  ! @TYPE_DESC,,AUTO
        27 007070   000001 702211                    TSX2  ! 1,X1

     1624    30393        %EJECT;
PL6.E3A0      #001=Z8E7$STMT_ASSIGNMENT File=Z8E7.:Z8A6TSI                       SAT 08/09/97 11:35 Page:289
     1625    30394        /*===============*/
     1626    30395    1     MOVE_DE_EDITING: PROC (LOP$, ROP$, ID);

  30395 27 007071   200202 741300       MOVE_DE_EDI* STX1  ! @TYPE_DESC,,AUTO

     1627    30396        /*===============*/
     1628    30397
     1629    30398    2        DCL LOP$               PTR;
     1630    30399    2        DCL ROP$               PTR;
     1631    30400    2        DCL ID                 SBIN WORD;
     1632    30401
     1633    30402    2        DCL CONST$             PTR;
     1634    30403    2        DCL NEL$$              PTR;
     1635    30404    2        DCL LOP_ST$            PTR;
     1636    30405    2        DCL ROP_ST$            PTR;
     1637    30406    2        DCL DOLLAR$            PTR;
     1638    30407    2        DCL 1 DESC_BLK         ALIGNED,
     1639    30408    2             2 SEND_NUM        UBIN WORD UNAL,
     1640    30409    2             2 SEND_ALPHA      UBIN WORD UNAL,
     1641    30410    2             2 REC             UBIN WORD UNAL;
     1642    30411
     1643    30412    2        DCL CHAR_DESC_BLK      REDEF DESC_BLK CHAR (12);
     1644    30413    2        DCL ARGLIST$           PTR;
     1645    30414    2        DCL DESC_LIST$         PTR;
     1646    30415
     1647    30416             %DCL_AUTO_LX_ITEM      (@NAME = PLIST);
     1648    30420
     1649    30421             %DCL_AUTO_LX_ITEM      (@NAME = SEND);
     1650    30425             %DCL_AUTO_LX_ITEM      (@NAME = REC);
     1651    30429             %DCL_AUTO_LX_ITEM      (@NAME = DESC);
     1652    30433             %DCL_AUTO_LX_ITEM      (@NAME = DOLLAR);
     1653    30437
     1654    30438
     1655    30439
     1656    30440    2      ROP$ -> LX_ETT_ITEM.ETT$ = ROP$ -> LX_ETT_ITEM.ETT$ -> ETT.LOP;

  30440 27 007072   200204 470500                    LDP0    @ROP$,,AUTO
PL6.E3A0      #001=Z8E7$STMT_ASSIGNMENT File=Z8E7.:Z8A6TSI                       SAT 08/09/97 11:35 Page:290
        27 007073   000000 471500                    LDP1    0,,PR0
        27 007074   100001 473500                    LDP3    1,,PR1
        27 007075   300001 236100                    LDQ     1,,PR3
        27 007076   100001 756100                    STQ     1,,PR1

     1657    30441
     1658    30442           %FISH (TRIAD = ROP$ -> LX_ETT_ITEM.ETT$,
     1659    30443                  RTN   = ROP_ST$);

  30445 27 007077   000000 471500                    LDP1    0,,PR0
        27 007100   100001 236100                    LDQ     1,,PR1
        27 007101   200211 756100                    STQ     ROP_ST$,,AUTO

  30446 27 007102   200211 473500                    LDP3    ROP_ST$,,AUTO
        27 007103   300000 220100                    LDX0    0,,PR3
        27 007104   000751 100003                    CMPX0   489,DU
        27 007105   007115 603000 27                 TRC     s:30455

  30447 27 007106   200211 470500                    LDP0    ROP_ST$,,AUTO
        27 007107   000001 236100                    LDQ     1,,PR0
        27 007110   200211 756100                    STQ     ROP_ST$,,AUTO

  30448 27 007111   200211 470500                    LDP0    ROP_ST$,,AUTO
        27 007112   000000 220100                    LDX0    0,,PR0
        27 007113   000751 100003                    CMPX0   489,DU
        27 007114   007106 602000 27                 TNC     s:30447

     1660    30451
     1661    30452           %FISH (TRIAD = LOP$ -> LX_ETT_ITEM.ETT$,
     1662    30453                  RTN   = LOP_ST$);

  30455 27 007115   200203 470500                    LDP0    @LOP$,,AUTO
        27 007116   000000 471500                    LDP1    0,,PR0
        27 007117   100001 236100                    LDQ     1,,PR1
        27 007120   200210 756100                    STQ     LOP_ST$,,AUTO

  30456 27 007121   200210 473500                    LDP3    LOP_ST$,,AUTO
PL6.E3A0      #001=Z8E7$STMT_ASSIGNMENT File=Z8E7.:Z8A6TSI                       SAT 08/09/97 11:35 Page:291
        27 007122   300000 220100                    LDX0    0,,PR3
        27 007123   000751 100003                    CMPX0   489,DU
        27 007124   007134 603000 27                 TRC     s:30466

  30457 27 007125   200210 470500                    LDP0    LOP_ST$,,AUTO
        27 007126   000001 236100                    LDQ     1,,PR0
        27 007127   200210 756100                    STQ     LOP_ST$,,AUTO

  30458 27 007130   200210 470500                    LDP0    LOP_ST$,,AUTO
        27 007131   000000 220100                    LDX0    0,,PR0
        27 007132   000751 100003                    CMPX0   489,DU
        27 007133   007125 602000 27                 TNC     s:30457

     1663    30461
     1664    30462           %GET_LTS (@ID      = %NEL,
     1665    30463                     @ST$     = ROP_ST$,
     1666    30464                     @RETURN$ = NEL$$);

  30466 27 007134   200211 470500                    LDP0    ROP_ST$,,AUTO
        27 007135   000005 236100                    LDQ     5,,PR0
        27 007136   000001 116000 28                 CMPQ    1
        27 007137   007147 600000 27                 TZE     s:30500
        27 007140   000005 471500                    LDP1    5,,PR0
        27 007141   100000 220100                    LDX0    0,,PR1
        27 007142   001105 100003                    CMPX0   581,DU
        27 007143   007147 601000 27                 TNZ     s:30500

  30472 27 007144   100002 236100                    LDQ     2,,PR1
        27 007145   200207 756100                    STQ     NEL$$,,AUTO

  30498 27 007146   007161 710000 27                 TRA     s:30508

  30500 27 007147   000001 116000 28                 CMPQ    1
        27 007150   007157 600000 27                 TZE     s:30504
        27 007151   000005 471500                    LDP1    5,,PR0
        27 007152   100000 220100                    LDX0    0,,PR1
        27 007153   001115 100003                    CMPX0   589,DU
PL6.E3A0      #001=Z8E7$STMT_ASSIGNMENT File=Z8E7.:Z8A6TSI                       SAT 08/09/97 11:35 Page:292
        27 007154   007157 601000 27                 TNZ     s:30504

  30502 27 007155   200207 756100                    STQ     NEL$$,,AUTO
        27 007156   007161 710000 27                 TRA     s:30508

  30504 27 007157   000001 236000 28                 LDQ     1
        27 007160   200207 756100                    STQ     NEL$$,,AUTO

     1667    30507
     1668    30508    2      DESC_BLK.SEND_NUM = BITBIN(NEL$$ -> NEL.DESC);

  30508 27 007161   200207 471500                    LDP1    NEL$$,,AUTO
        27 007162   100001 235100                    LDA     1,,PR1
        27 007163   200213 755100                    STA     DESC_BLK,,AUTO

     1669    30509    2      DESC_BLK.SEND_ALPHA = BITBIN(ROP_ST$ -> NEL.DESC); /*V* Temporary */

  30509 27 007164   000001 235100                    LDA     1,,PR0
        27 007165   200214 755100                    STA     DESC_BLK+1,,AUTO

     1670    30510    2      DESC_BLK.REC      = BITBIN(LOP_ST$ -> NEL.DESC);

  30510 27 007166   200210 473500                    LDP3    LOP_ST$,,AUTO
        27 007167   300001 235100                    LDA     1,,PR3
        27 007170   200215 755100                    STA     REC_ST$,,AUTO

     1671    30511
     1672    30512           %NEW_CONST (@ST$      = CONST$,
     1673    30513                       @TYPE     = %TYA,
     1674    30514                       @LONG_CONSTANT = TRUE);

  30518 27 007171   000002 236000 19                 LDQ     ST_+2
        27 007172   000013 036007                    ADLQ    11,DL
        27 007173   000003 116000 19                 CMPQ    ST_+3
        27 007174   007205 604000 27                 TMI     s:30520

  30519 27 007175   000104 236000 28                 LDQ     68
PL6.E3A0      #001=Z8E7$STMT_ASSIGNMENT File=Z8E7.:Z8A6TSI                       SAT 08/09/97 11:35 Page:293
        27 007176   200430 756100                    STQ     I+2,,AUTO
        27 007177   200430 634500                    EPPR4   I+2,,AUTO
        27 007200   200431 454500                    STP4    I+3,,AUTO
        27 007201   200431 630500                    EPPR0   I+3,,AUTO
        27 007202   000103 631400 28                 EPPR1   67
        27 007203   000000 701000 xent               TSX1    Z8AR$RESERVER
        27 007204   000000 011000                    NOP     0

  30520 27 007205   000002 236000 19                 LDQ     ST_+2
        27 007206   000022 736000                    QLS     18
        27 007207   000001 036000 19                 ADLQ    ST_+1
        27 007210   200206 756100                    STQ     CONST$,,AUTO

  30521 27 007211   000013 236007                    LDQ     11,DL
        27 007212   000002 056000 19                 ASQ     ST_+2

  30524 27 007213   000767 220003                    LDX0    503,DU
        27 007214   200206 470500                    LDP0    CONST$,,AUTO
        27 007215   000000 740100                    STX0    0,,PR0

  30525 27 007216   200206 470500                    LDP0    CONST$,,AUTO
        27 007217   001000 236007                    LDQ     512,DL
        27 007220   000000 552110                    STBQ    0,'10'O,PR0

  30526 27 007221   200206 470500                    LDP0    CONST$,,AUTO
        27 007222   000126 236000 xsym               LDQ     O1COM+86
        27 007223   000000 552104                    STBQ    0,'04'O,PR0

  30527 27 007224   000010 221003                    LDX1    8,DU
        27 007225   200206 470500                    LDP0    CONST$,,AUTO
        27 007226   000002 741100                    STX1    2,,PR0

  30528 27 007227   200206 470500                    LDP0    CONST$,,AUTO
        27 007230   000003 450100                    STZ     3,,PR0

  30529 27 007231   000001 236000 28                 LDQ     1
        27 007232   200206 470500                    LDP0    CONST$,,AUTO
PL6.E3A0      #001=Z8E7$STMT_ASSIGNMENT File=Z8E7.:Z8A6TSI                       SAT 08/09/97 11:35 Page:294
        27 007233   000004 756100                    STQ     4,,PR0

  30530 27 007234   200206 470500                    LDP0    CONST$,,AUTO
        27 007235   000005 756100                    STQ     5,,PR0

  30531 27 007236   200206 470500                    LDP0    CONST$,,AUTO
        27 007237   000006 756100                    STQ     6,,PR0

  30533 27 007240   200206 470500                    LDP0    CONST$,,AUTO
        27 007241   400000 236003                    LDQ     -131072,DU
        27 007242   000003 256100                    ORSQ    3,,PR0

     1675    30555
     1676    30556           %NEW_LCNST (@POINTER  = CONST$ -> CONST.CONST$.PTR$,
     1677    30557                       @SIZE     = "3 + 1",
     1678    30558                       @CONST    = CHAR_DESC_BLK);

  30560 27 007243   000004 235007                    LDA     4,DL
        27 007244   000000 755000 0                  STA     ITERATION

  30638 27 007245   000002 236000 21                 LDQ     LTS_+2
        27 007246   000000 036000 0                  ADLQ    ITERATION
        27 007247   000003 116000 21                 CMPQ    LTS_+3
        27 007250   007261 604000 27                 TMI     s:30640

  30639 27 007251   000105 236000 28                 LDQ     69
        27 007252   200430 756100                    STQ     I+2,,AUTO
        27 007253   200430 630500                    EPPR0   I+2,,AUTO
        27 007254   200431 450500                    STP0    I+3,,AUTO
        27 007255   200431 630500                    EPPR0   I+3,,AUTO
        27 007256   000103 631400 28                 EPPR1   67
        27 007257   000000 701000 xent               TSX1    Z8AR$RESERVER
        27 007260   000000 011000                    NOP     0

  30640 27 007261   000002 236000 21                 LDQ     LTS_+2
        27 007262   000022 736000                    QLS     18
        27 007263   000001 036000 21                 ADLQ    LTS_+1
PL6.E3A0      #001=Z8E7$STMT_ASSIGNMENT File=Z8E7.:Z8A6TSI                       SAT 08/09/97 11:35 Page:295
        27 007264   200206 470500                    LDP0    CONST$,,AUTO
        27 007265   000010 756100                    STQ     8,,PR0

  30641 27 007266   000002 236000 21                 LDQ     LTS_+2
        27 007267   000000 036000 0                  ADLQ    ITERATION
        27 007270   000002 756000 21                 STQ     LTS_+2

  30642 27 007271   200206 470500                    LDP0    CONST$,,AUTO
        27 007272   000010 471500                    LDP1    8,,PR0
        27 007273   001106 220003                    LDX0    582,DU
        27 007274   100000 740100                    STX0    0,,PR1

  30644 27 007275   200206 470500                    LDP0    CONST$,,AUTO
        27 007276   000010 471500                    LDP1    8,,PR0
        27 007277   000000 721000 0                  LXL1    ITERATION
        27 007300   100000 441100                    SXL1    0,,PR1

  30648 27 007301   200206 470500                    LDP0    CONST$,,AUTO
        27 007302   000010 471500                    LDP1    8,,PR0
        27 007303   040100 100500                    MLR     fill='040'O
        27 007304   200213 000014                    ADSC9   DESC_BLK,,AUTO           cn=0,n=12
        27 007305   100001 000014                    ADSC9   1,,PR1                   cn=0,n=12

     1679    30651
     1680    30652    2      CALL Z8AF$FORME (%TRIAD, CONST$, ADDR(NIL), CONST$);

  30652 27 007306   000001 236000 28                 LDQ     1
        27 007307   200430 756100                    STQ     I+2,,AUTO
        27 007310   200206 630500                    EPPR0   CONST$,,AUTO
        27 007311   200435 450500                    STP0    I+7,,AUTO
        27 007312   200430 631500                    EPPR1   I+2,,AUTO
        27 007313   200434 451500                    STP1    I+6,,AUTO
        27 007314   200206 633500                    EPPR3   CONST$,,AUTO
        27 007315   200433 453500                    STP3    I+5,,AUTO
        27 007316   000107 236000 28                 LDQ     71
        27 007317   200432 756100                    STQ     I+4,,AUTO
        27 007320   200432 630500                    EPPR0   I+4,,AUTO
PL6.E3A0      #001=Z8E7$STMT_ASSIGNMENT File=Z8E7.:Z8A6TSI                       SAT 08/09/97 11:35 Page:296
        27 007321   000033 631400 28                 EPPR1   27
        27 007322   000000 701000 xent               TSX1    Z8AF$FORME
        27 007323   000000 011000                    NOP     0

     1681    30653
     1682    30654    2      CALL Z8AC$MAKE_TYA_CONST (O1COM.CURRENT_PROC$ -> PROC_.PROC_SUPP$ ->

  30654 27 007324   000057 470400 xsym               LDP0    O1COM+47
        27 007325   000001 471500                    LDP1    1,,PR0
        27 007326   200212 633500                    EPPR3   DOLLAR$,,AUTO
        27 007327   200433 453500                    STP3    I+5,,AUTO
        27 007330   000040 236000 28                 LDQ     32
        27 007331   200432 756100                    STQ     I+4,,AUTO
        27 007332   000052 236000 28                 LDQ     42
        27 007333   200431 756100                    STQ     I+3,,AUTO
        27 007334   100001 634500                    EPPR4   1,,PR1
        27 007335   200430 454500                    STP4    I+2,,AUTO
        27 007336   200430 630500                    EPPR0   I+2,,AUTO
        27 007337   000033 631400 28                 EPPR1   27
        27 007340   000000 701000 xent               TSX1    Z8AC$MAKE_TYA_CONST
        27 007341   000000 011000                    NOP     0

     1683    30655    2                                PROC_SUPP.CURRENCY_SIGN,
     1684    30656    2                                1,
     1685    30657    2                                0,
     1686    30658    2                                DOLLAR$);
     1687    30659
     1688    30660    2      SEND = ROP$$ -> LX_ETT_ITEM;

  30660 27 007342   200007 470500                    LDP0    ROP$$,,AUTO
        27 007343   000100 100500                    MLR     fill='000'O
        27 007344   000000 000040                    ADSC9   0,,PR0                   cn=0,n=32
        27 007345   200230 000040                    ADSC9   SEND,,AUTO               cn=0,n=32

     1689    30661    2      REC  = LOP$$ -> LX_ETT_ITEM;

  30661 27 007346   200010 471500                    LDP1    LOP$$,,AUTO
PL6.E3A0      #001=Z8E7$STMT_ASSIGNMENT File=Z8E7.:Z8A6TSI                       SAT 08/09/97 11:35 Page:297
        27 007347   000100 100500                    MLR     fill='000'O
        27 007350   100000 000040                    ADSC9   0,,PR1                   cn=0,n=32
        27 007351   200240 000040                    ADSC9   REC,,AUTO                cn=0,n=32

     1690    30662
     1691    30663           %INIT_LX_ETT_ITEM (@POINTER = "ADDR(DESC)",
     1692    30664                              @TYPE    = %TYA,
     1693    30665                              @ETT$    = CONST$);

  30667 27 007352   000004 220003                    LDX0    4,DU
        27 007353   200250 740100                    STX0    DESC,,AUTO

  30668 27 007354   000000 221003                    LDX1    0,DU
        27 007355   200250 441100                    SXL1    DESC,,AUTO

  30669 27 007356   000010 235007                    LDA     8,DL
        27 007357   200254 755100                    STA     I+2,,AUTO

  30670 27 007360   000001 236000 28                 LDQ     1
        27 007361   200257 756100                    STQ     SUBSTRING+1,,AUTO

  30671 27 007362   200206 236100                    LDQ     CONST$,,AUTO
        27 007363   200251 756100                    STQ     DESC+1,,AUTO

  30672 27 007364   000001 236000 28                 LDQ     1
        27 007365   200252 756100                    STQ     DESC+2,,AUTO

  30674 27 007366   000133 235000 xsym               LDA     COMCOM+91
        27 007367   200255 755100                    STA     I+3,,AUTO

  30675 27 007370   000134 235000 xsym               LDA     COMCOM+92
        27 007371   200256 755100                    STA     I+4,,AUTO

     1694    30687
     1695    30688           %INIT_LX_ETT_ITEM (@POINTER = "ADDR(DOLLAR)",
     1696    30689                              @TYPE    = %TYA,
     1697    30690                              @ETT$    = DOLLAR$);
PL6.E3A0      #001=Z8E7$STMT_ASSIGNMENT File=Z8E7.:Z8A6TSI                       SAT 08/09/97 11:35 Page:298

  30692 27 007372   200260 740100                    STX0    DOLLAR,,AUTO

  30693 27 007373   200260 441100                    SXL1    DOLLAR,,AUTO

  30694 27 007374   000010 235007                    LDA     8,DL
        27 007375   200264 755100                    STA     DOLLAR+4,,AUTO

  30695 27 007376   200267 756100                    STQ     SUBSTRING2+1,,AUTO

  30696 27 007377   200212 236100                    LDQ     DOLLAR$,,AUTO
        27 007400   200261 756100                    STQ     DOLLAR+1,,AUTO

  30697 27 007401   000001 236000 28                 LDQ     1
        27 007402   200262 756100                    STQ     DOLLAR+2,,AUTO

  30699 27 007403   000133 235000 xsym               LDA     COMCOM+91
        27 007404   200265 755100                    STA     DOLLAR+5,,AUTO

  30700 27 007405   000134 235000 xsym               LDA     COMCOM+92
        27 007406   200266 755100                    STA     DOLLAR+6,,AUTO

     1698    30712
     1699    30713           %INIT_LX_LIST (@POINTER = "ADDR(PLIST)");

  30715 27 007407   000002 222003                    LDX2    2,DU
        27 007410   200220 742100                    STX2    PLIST,,AUTO

  30716 27 007411   200220 441100                    SXL1    PLIST,,AUTO

  30717 27 007412   200221 756100                    STQ     COLUMN,,AUTO

  30718 27 007413   200224 756100                    STQ     SEND_SIGN,,AUTO

  30719 27 007414   200227 756100                    STQ     REC_SF,,AUTO

  30720 27 007415   200222 450100                    STZ     SEND_LEN,,AUTO
PL6.E3A0      #001=Z8E7$STMT_ASSIGNMENT File=Z8E7.:Z8A6TSI                       SAT 08/09/97 11:35 Page:299

     1700    30723
     1701    30724           %ADD_LX_ITEM_TO_LIST_HEAD (@LIST$ = "ADDR(PLIST)", @FROM$ = "ADDR(SEND)");

  30726 27 007416   200237 756100                    STQ     @ST$$,,AUTO

  30727 27 007417   200230 633500                    EPPR3   SEND,,AUTO
        27 007420   200224 453500                    STP3    SEND_SIGN,,AUTO

  30728 27 007421   200222 235100                    LDA     SEND_LEN,,AUTO
        27 007422   007425 601000 27                 TNZ     s:30730

  30729 27 007423   200230 634500                    EPPR4   SEND,,AUTO
        27 007424   200221 454500                    STP4    COLUMN,,AUTO

  30730 27 007425   200222 054100                    AOS     SEND_LEN,,AUTO

     1702    30733           %ADD_LX_ITEM_TO_LIST_TAIL (@LIST$ = "ADDR(PLIST)", @FROM$ = "ADDR(REC)");

  30735 27 007426   200247 756100                    STQ     REM_CHARS+1,,AUTO

  30736 27 007427   007435 601000 27                 TNZ     s:30743

  30738 27 007430   200240 634500                    EPPR4   REC,,AUTO
        27 007431   200224 454500                    STP4    SEND_SIGN,,AUTO

  30739 27 007432   200240 633500                    EPPR3   REC,,AUTO
        27 007433   200221 453500                    STP3    COLUMN,,AUTO

  30740 27 007434   007442 710000 27                 TRA     s:30746

  30743 27 007435   200240 634500                    EPPR4   REC,,AUTO
        27 007436   200221 475500                    LDP5    COLUMN,,AUTO
        27 007437   500007 454500                    STP4    7,,PR5

  30744 27 007440   200240 630500                    EPPR0   REC,,AUTO
        27 007441   200221 450500                    STP0    COLUMN,,AUTO
PL6.E3A0      #001=Z8E7$STMT_ASSIGNMENT File=Z8E7.:Z8A6TSI                       SAT 08/09/97 11:35 Page:300

  30746 27 007442   200222 054100                    AOS     SEND_LEN,,AUTO

     1703    30749           %ADD_LX_ITEM_TO_LIST_TAIL (@LIST$ = "ADDR(PLIST)", @FROM$ = "ADDR(DESC)");

  30751 27 007443   200257 756100                    STQ     SUBSTRING+1,,AUTO

  30752 27 007444   007452 601000 27                 TNZ     s:30759

  30754 27 007445   200250 630500                    EPPR0   DESC,,AUTO
        27 007446   200224 450500                    STP0    SEND_SIGN,,AUTO

  30755 27 007447   200250 631500                    EPPR1   DESC,,AUTO
        27 007450   200221 451500                    STP1    COLUMN,,AUTO

  30756 27 007451   007457 710000 27                 TRA     s:30762

  30759 27 007452   200250 630500                    EPPR0   DESC,,AUTO
        27 007453   200221 471500                    LDP1    COLUMN,,AUTO
        27 007454   100007 450500                    STP0    7,,PR1

  30760 27 007455   200250 630500                    EPPR0   DESC,,AUTO
        27 007456   200221 450500                    STP0    COLUMN,,AUTO

  30762 27 007457   200222 054100                    AOS     SEND_LEN,,AUTO

     1704    30765           %ADD_LX_ITEM_TO_LIST_TAIL (@LIST$ = "ADDR(PLIST)", @FROM$ = "ADDR(DOLLAR)");

  30767 27 007460   200267 756100                    STQ     SUBSTRING2+1,,AUTO

  30768 27 007461   007467 601000 27                 TNZ     s:30775

  30770 27 007462   200260 630500                    EPPR0   DOLLAR,,AUTO
        27 007463   200224 450500                    STP0    SEND_SIGN,,AUTO

  30771 27 007464   200260 631500                    EPPR1   DOLLAR,,AUTO
        27 007465   200221 451500                    STP1    COLUMN,,AUTO
PL6.E3A0      #001=Z8E7$STMT_ASSIGNMENT File=Z8E7.:Z8A6TSI                       SAT 08/09/97 11:35 Page:301

  30772 27 007466   007474 710000 27                 TRA     s:30778

  30775 27 007467   200260 630500                    EPPR0   DOLLAR,,AUTO
        27 007470   200221 471500                    LDP1    COLUMN,,AUTO
        27 007471   100007 450500                    STP0    7,,PR1

  30776 27 007472   200260 630500                    EPPR0   DOLLAR,,AUTO
        27 007473   200221 450500                    STP0    COLUMN,,AUTO

  30778 27 007474   200222 054100                    AOS     SEND_LEN,,AUTO

     1705    30781
     1706    30782    2      CALL Z8EY$BUILD_RUNTIME_ARGLIST (ADDR(PLIST) -> LX_LIST.HEAD$,

  30782 27 007475   000032 236000 28                 LDQ     26
        27 007476   200432 756100                    STQ     I+4,,AUTO
        27 007477   200216 630500                    EPPR0   ARGLIST$,,AUTO
        27 007500   200431 450500                    STP0    I+3,,AUTO
        27 007501   200224 631500                    EPPR1   SEND_SIGN,,AUTO
        27 007502   200430 451500                    STP1    I+2,,AUTO
        27 007503   200430 630500                    EPPR0   I+2,,AUTO
        27 007504   000016 631400 28                 EPPR1   14
        27 007505   000000 701000 xent               TSX1    Z8EY$BUILD_RUNTIME_ARGLIST
        27 007506   000000 011000                    NOP     0

     1707    30783    2                                       ARGLIST$,
     1708    30784    2                                       4);
     1709    30785
     1710    30786    2      CALL Z9EY$BUILD_RUNTIME_DESCRIPTOR (ADDR(PLIST) -> LX_LIST.HEAD$,

  30786 27 007507   000032 236000 28                 LDQ     26
        27 007510   200432 756100                    STQ     I+4,,AUTO
        27 007511   200217 630500                    EPPR0   DESC_LIST$,,AUTO
        27 007512   200431 450500                    STP0    I+3,,AUTO
        27 007513   200224 631500                    EPPR1   SEND_SIGN,,AUTO
        27 007514   200430 451500                    STP1    I+2,,AUTO
PL6.E3A0      #001=Z8E7$STMT_ASSIGNMENT File=Z8E7.:Z8A6TSI                       SAT 08/09/97 11:35 Page:302
        27 007515   200430 630500                    EPPR0   I+2,,AUTO
        27 007516   000016 631400 28                 EPPR1   14
        27 007517   000000 701000 xent               TSX1    Z9EY$BUILD_RUNTIME_DESCRIPTOR
        27 007520   000000 011000                    NOP     0

     1711    30787    2                                          DESC_LIST$,
     1712    30788    2                                          4);
     1713    30789
     1714    30790           %NEW_ILL (@ID     = %OS_CALL,
     1715    30791                     @CODE   = %OP_MVDDD,
     1716    30792                     @LOP    = ARGLIST$,
     1717    30793                     @ROP    = DESC_LIST$);

  30883 27 007521   000036 236000 28                 LDQ     30
        27 007522   200430 756100                    STQ     I+2,,AUTO
        27 007523   200430 630500                    EPPR0   I+2,,AUTO
        27 007524   200435 450500                    STP0    I+7,,AUTO
        27 007525   000037 236000 28                 LDQ     31
        27 007526   200434 756100                    STQ     I+6,,AUTO
        27 007527   000112 237000 28                 LDAQ    74
        27 007530   200432 757100                    STAQ    I+4,,AUTO
        27 007531   200432 630500                    EPPR0   I+4,,AUTO
        27 007532   000033 631400 28                 EPPR1   27
        27 007533   000000 701000 xent               TSX1    Z8AN$NEW_ILL
        27 007534   000000 011000                    NOP     0

  30884 27 007535   000036 220003                    LDX0    30,DU
        27 007536   000000 470400 6                  LDP0    ILL$
        27 007537   000000 440100                    SXL0    0,,PR0

  30885 27 007540   200216 236100                    LDQ     ARGLIST$,,AUTO
        27 007541   000000 470400 6                  LDP0    ILL$
        27 007542   000001 756100                    STQ     1,,PR0

  30886 27 007543   200217 236100                    LDQ     DESC_LIST$,,AUTO
        27 007544   000002 756100                    STQ     2,,PR0

PL6.E3A0      #001=Z8E7$STMT_ASSIGNMENT File=Z8E7.:Z8A6TSI                       SAT 08/09/97 11:35 Page:303
  30893 27 007545   000001 236000 28                 LDQ     1
        27 007546   000004 756100                    STQ     4,,PR0

     1718    31172
     1719    31173
     1720    31174    2   END MOVE_DE_EDITING;

  31174 27 007547   200202 221300                    LDX1  ! @TYPE_DESC,,AUTO
        27 007550   000001 702211                    TSX2  ! 1,X1

     1721    31175        %EJECT;
PL6.E3A0      #001=Z8E7$STMT_ASSIGNMENT File=Z8E7.:Z8A6TSI                       SAT 08/09/97 11:35 Page:304
     1722    31176        /*=====*/
     1723    31177    1     RANGE: PROC (ROP$, LOWER, UPPER, LABEL$);

  31177 27 007551   200176 741300       RANGE        STX1  ! LOP_DESC+1,,AUTO

     1724    31178        /*=====*/
     1725    31179
     1726    31180    2        DCL ROP$        PTR;
     1727    31181    2        DCL LOWER       SBIN WORD;
     1728    31182    2        DCL UPPER       SBIN WORD;
     1729    31183    2        DCL LABEL$      PTR;
     1730    31184
     1731    31185    2        DCL UPPER$      PTR;
     1732    31186    2        DCL LOWER$      PTR;
     1733    31187    2        DCL TREE$       PTR;
     1734    31188
     1735    31189    2        DCL Z8AC$LX_ETT_ITEM_TYI_CONST        ENTRY(2);
     1736    31190
     1737    31191
     1738    31192    2        UPPER$ = ADDR(UPPER_LX_ETT_ITEM);

  31192 27 007552   200144 630500                    EPPR0   UPPER_LX_ETT_ITEM,,AUTO
        27 007553   200203 450500                    STP0    UPPER$,,AUTO

     1739    31193    2        LOWER$ = ADDR(LOWER_LX_ETT_ITEM);

  31193 27 007554   200154 631500                    EPPR1   LOWER_LX_ETT_ITEM,,AUTO
        27 007555   200204 451500                    STP1    LOWER$,,AUTO

     1740    31194
     1741    31195    2        CALL Z8AC$LX_ETT_ITEM_TYI_CONST( UPPER, UPPER$ );

  31195 27 007556   200203 633500                    EPPR3   UPPER$,,AUTO
        27 007557   200431 453500                    STP3    I+3,,AUTO
        27 007560   200201 236100                    LDQ     @UPPER,,AUTO
        27 007561   200430 756100                    STQ     I+2,,AUTO
        27 007562   200430 630500                    EPPR0   I+2,,AUTO
PL6.E3A0      #001=Z8E7$STMT_ASSIGNMENT File=Z8E7.:Z8A6TSI                       SAT 08/09/97 11:35 Page:305
        27 007563   000000 631400 28                 EPPR1   0
        27 007564   000000 701000 xent               TSX1    Z8AC$LX_ETT_ITEM_TYI_CONST
        27 007565   000000 011000                    NOP     0

     1742    31196
     1743    31197    2        CALL Z8AC$LX_ETT_ITEM_TYI_CONST( LOWER, LOWER$ );

  31197 27 007566   200204 630500                    EPPR0   LOWER$,,AUTO
        27 007567   200431 450500                    STP0    I+3,,AUTO
        27 007570   200200 236100                    LDQ     @LOWER,,AUTO
        27 007571   200430 756100                    STQ     I+2,,AUTO
        27 007572   200430 630500                    EPPR0   I+2,,AUTO
        27 007573   000000 631400 28                 EPPR1   0
        27 007574   000000 701000 xent               TSX1    Z8AC$LX_ETT_ITEM_TYI_CONST
        27 007575   000000 011000                    NOP     0

     1744    31198
     1745    31199    2        CALL Z8EK$RANGE(ROP$, LOWER$, UPPER$, TREE$);

  31199 27 007576   200205 630500                    EPPR0   TREE$,,AUTO
        27 007577   200433 450500                    STP0    I+5,,AUTO
        27 007600   200203 631500                    EPPR1   UPPER$,,AUTO
        27 007601   200432 451500                    STP1    I+4,,AUTO
        27 007602   200204 633500                    EPPR3   LOWER$,,AUTO
        27 007603   200431 453500                    STP3    I+3,,AUTO
        27 007604   200177 236100                    LDQ     @ROP$,,AUTO
        27 007605   200430 756100                    STQ     I+2,,AUTO
        27 007606   200430 630500                    EPPR0   I+2,,AUTO
        27 007607   000033 631400 28                 EPPR1   27
        27 007610   000000 701000 xent               TSX1    Z8EK$RANGE
        27 007611   000000 011000                    NOP     0

     1746    31200
     1747    31201    2        CALL Z8EK$BRANCH_FALSE(LABEL$, TREE$);

  31201 27 007612   200205 630500                    EPPR0   TREE$,,AUTO
        27 007613   200431 450500                    STP0    I+3,,AUTO
PL6.E3A0      #001=Z8E7$STMT_ASSIGNMENT File=Z8E7.:Z8A6TSI                       SAT 08/09/97 11:35 Page:306
        27 007614   200202 236100                    LDQ     @LABEL$,,AUTO
        27 007615   200430 756100                    STQ     I+2,,AUTO
        27 007616   200430 630500                    EPPR0   I+2,,AUTO
        27 007617   000000 631400 28                 EPPR1   0
        27 007620   000000 701000 xent               TSX1    Z8EK$BRANCH_FALSE
        27 007621   000000 011000                    NOP     0

     1748    31202
     1749    31203    2        CALL Z8ED$DISPOSE_ABSSYN_TREE(TREE$);

  31203 27 007622   200205 630500                    EPPR0   TREE$,,AUTO
        27 007623   200430 450500                    STP0    I+2,,AUTO
        27 007624   200430 630500                    EPPR0   I+2,,AUTO
        27 007625   000103 631400 28                 EPPR1   67
        27 007626   000000 701000 xent               TSX1    Z8ED$DISPOSE_ABSSYN_TREE
        27 007627   000000 011000                    NOP     0

     1750    31204
     1751    31205
     1752    31206    2   END RANGE;

  31206 27 007630   200176 221300                    LDX1  ! LOP_DESC+1,,AUTO
        27 007631   000001 702211                    TSX2  ! 1,X1

     1753    31207        %EJECT;
PL6.E3A0      #001=Z8E7$STMT_ASSIGNMENT File=Z8E7.:Z8A6TSI                       SAT 08/09/97 11:35 Page:307
     1754    31208        /*====================*/
     1755    31209    1     COMMUTATIVE_OPERANDS: PROC (LOP$$, ROP$$, FROM$$, ID);

  31209 27 007632   200202 741300       COMMUTATIVE* STX1  ! @LABEL$,,AUTO

     1756    31210        /*====================*/
     1757    31211
     1758    31212    2   DCL LOP$$              PTR;
     1759    31213    2   DCL ROP$$              PTR;
     1760    31214    2   DCL FROM$$             PTR;
     1761    31215    2   DCL ID                 SBIN WORD;
     1762    31216
     1763    31217    2   DCL TWO_OPERAND_ID     SBIN WORD;
     1764    31218    2   DCL THREE_OPERAND_ID   SBIN WORD;
     1765    31219
     1766    31220    3      DO CASE (ROP$$ -> LX_ETT_ITEM.ETT$ -> ETT.ID);

  31220 27 007633   200204 470500                    LDP0    @ROP$$,,AUTO
        27 007634   000000 471500                    LDP1    0,,PR0
        27 007635   100001 473500                    LDP3    1,,PR1
        27 007636   300000 236100                    LDQ     0,,PR3
        27 007637   000022 772000                    QRL     18
        27 007640   000053 136007                    SBLQ    43,DL
        27 007641   000113 116007                    CMPQ    75,DL
        27 007642   007644 602006 27                 TNC     s:31220+9,QL
        27 007643   010116 710000 27                 TRA     s:31278
        27 007644   007757 710000 27                 TRA     s:31222
        27 007645   010116 710000 27                 TRA     s:31278
        27 007646   010116 710000 27                 TRA     s:31278
        27 007647   010116 710000 27                 TRA     s:31278
        27 007650   010021 710000 27                 TRA     s:31238
        27 007651   010116 710000 27                 TRA     s:31278
        27 007652   010116 710000 27                 TRA     s:31278
        27 007653   010116 710000 27                 TRA     s:31278
        27 007654   010116 710000 27                 TRA     s:31278
        27 007655   010116 710000 27                 TRA     s:31278
        27 007656   010116 710000 27                 TRA     s:31278
PL6.E3A0      #001=Z8E7$STMT_ASSIGNMENT File=Z8E7.:Z8A6TSI                       SAT 08/09/97 11:35 Page:308
        27 007657   010116 710000 27                 TRA     s:31278
        27 007660   010116 710000 27                 TRA     s:31278
        27 007661   010116 710000 27                 TRA     s:31278
        27 007662   010116 710000 27                 TRA     s:31278
        27 007663   010116 710000 27                 TRA     s:31278
        27 007664   010116 710000 27                 TRA     s:31278
        27 007665   010116 710000 27                 TRA     s:31278
        27 007666   010116 710000 27                 TRA     s:31278
        27 007667   010116 710000 27                 TRA     s:31278
        27 007670   010116 710000 27                 TRA     s:31278
        27 007671   010116 710000 27                 TRA     s:31278
        27 007672   010116 710000 27                 TRA     s:31278
        27 007673   010116 710000 27                 TRA     s:31278
        27 007674   010116 710000 27                 TRA     s:31278
        27 007675   010116 710000 27                 TRA     s:31278
        27 007676   010116 710000 27                 TRA     s:31278
        27 007677   010116 710000 27                 TRA     s:31278
        27 007700   010116 710000 27                 TRA     s:31278
        27 007701   010116 710000 27                 TRA     s:31278
        27 007702   010116 710000 27                 TRA     s:31278
        27 007703   010116 710000 27                 TRA     s:31278
        27 007704   010116 710000 27                 TRA     s:31278
        27 007705   010116 710000 27                 TRA     s:31278
        27 007706   010116 710000 27                 TRA     s:31278
        27 007707   010116 710000 27                 TRA     s:31278
        27 007710   010116 710000 27                 TRA     s:31278
        27 007711   010116 710000 27                 TRA     s:31278
        27 007712   010116 710000 27                 TRA     s:31278
        27 007713   010116 710000 27                 TRA     s:31278
        27 007714   010116 710000 27                 TRA     s:31278
        27 007715   010116 710000 27                 TRA     s:31278
        27 007716   010116 710000 27                 TRA     s:31278
        27 007717   010116 710000 27                 TRA     s:31278
        27 007720   010116 710000 27                 TRA     s:31278
        27 007721   010116 710000 27                 TRA     s:31278
        27 007722   010116 710000 27                 TRA     s:31278
        27 007723   010116 710000 27                 TRA     s:31278
PL6.E3A0      #001=Z8E7$STMT_ASSIGNMENT File=Z8E7.:Z8A6TSI                       SAT 08/09/97 11:35 Page:309
        27 007724   010116 710000 27                 TRA     s:31278
        27 007725   010116 710000 27                 TRA     s:31278
        27 007726   010116 710000 27                 TRA     s:31278
        27 007727   010116 710000 27                 TRA     s:31278
        27 007730   010116 710000 27                 TRA     s:31278
        27 007731   010116 710000 27                 TRA     s:31278
        27 007732   010116 710000 27                 TRA     s:31278
        27 007733   010116 710000 27                 TRA     s:31278
        27 007734   010116 710000 27                 TRA     s:31278
        27 007735   010116 710000 27                 TRA     s:31278
        27 007736   010116 710000 27                 TRA     s:31278
        27 007737   010116 710000 27                 TRA     s:31278
        27 007740   010116 710000 27                 TRA     s:31278
        27 007741   010116 710000 27                 TRA     s:31278
        27 007742   010116 710000 27                 TRA     s:31278
        27 007743   010116 710000 27                 TRA     s:31278
        27 007744   010116 710000 27                 TRA     s:31278
        27 007745   010116 710000 27                 TRA     s:31278
        27 007746   010116 710000 27                 TRA     s:31278
        27 007747   010116 710000 27                 TRA     s:31278
        27 007750   010116 710000 27                 TRA     s:31278
        27 007751   010116 710000 27                 TRA     s:31278
        27 007752   010116 710000 27                 TRA     s:31278
        27 007753   010116 710000 27                 TRA     s:31278
        27 007754   010063 710000 27                 TRA     s:31254
        27 007755   010116 710000 27                 TRA     s:31278
        27 007756   010101 710000 27                 TRA     s:31266

     1767    31221    3        CASE (%ADD);

     1768    31222    4          DO SELECT (ID);

  31222 27 007757   200206 474500                    LDP4    @ID,,AUTO
        27 007760   400000 236100                    LDQ     0,,PR4
        27 007761   000244 116007                    CMPQ    164,DL
        27 007762   007772 604000 27                 TMI     s:31222+11
        27 007763   007775 600000 27                 TZE     s:31224
PL6.E3A0      #001=Z8E7$STMT_ASSIGNMENT File=Z8E7.:Z8A6TSI                       SAT 08/09/97 11:35 Page:310
        27 007764   000415 116007                    CMPQ    269,DL
        27 007765   010116 604000 27                 TMI     s:31278
        27 007766   010007 600000 27                 TZE     s:31230
        27 007767   000423 116007                    CMPQ    275,DL
        27 007770   010116 601000 27                 TNZ     s:31278
        27 007771   010014 710000 27                 TRA     s:31233
        27 007772   000243 116007                    CMPQ    163,DL
        27 007773   010116 601000 27                 TNZ     s:31278
        27 007774   010002 710000 27                 TRA     s:31227

     1769    31223    4            SELECT(%MVDDR);

     1770    31224    4              TWO_OPERAND_ID   = %AD2DR;

  31224 27 007775   000227 235007                    LDA     151,DL
        27 007776   200207 755100                    STA     TWO_OPERAND_ID,,AUTO

     1771    31225    4              THREE_OPERAND_ID = %AD3DR;

  31225 27 007777   000322 235007                    LDA     210,DL
        27 010000   200210 755100                    STA     THREE_OPERAND_ID,,AUTO
        27 010001   010116 710000 27                 TRA     s:31278

     1772    31226    4            SELECT(%MVDD);

     1773    31227    4              TWO_OPERAND_ID   = %AD2D;

  31227 27 010002   000226 235007                    LDA     150,DL
        27 010003   200207 755100                    STA     TWO_OPERAND_ID,,AUTO

     1774    31228    4              THREE_OPERAND_ID = %AD3D;

  31228 27 010004   000321 235007                    LDA     209,DL
        27 010005   200210 755100                    STA     THREE_OPERAND_ID,,AUTO
        27 010006   010116 710000 27                 TRA     s:31278

     1775    31229    4            SELECT(%MVOOR);
PL6.E3A0      #001=Z8E7$STMT_ASSIGNMENT File=Z8E7.:Z8A6TSI                       SAT 08/09/97 11:35 Page:311

     1776    31230    4              TWO_OPERAND_ID   = %AD2OR;

  31230 27 010007   000425 235007                    LDA     277,DL
        27 010010   200207 755100                    STA     TWO_OPERAND_ID,,AUTO

     1777    31231    4              THREE_OPERAND_ID = %AD3OR;

  31231 27 010011   000427 235007                    LDA     279,DL
        27 010012   200210 755100                    STA     THREE_OPERAND_ID,,AUTO
        27 010013   010116 710000 27                 TRA     s:31278

     1778    31232    4            SELECT(%MVOO);

     1779    31233    4              TWO_OPERAND_ID   = %AD2O;

  31233 27 010014   000424 235007                    LDA     276,DL
        27 010015   200207 755100                    STA     TWO_OPERAND_ID,,AUTO

     1780    31234    4              THREE_OPERAND_ID = %AD3O;

  31234 27 010016   000426 235007                    LDA     278,DL
        27 010017   200210 755100                    STA     THREE_OPERAND_ID,,AUTO

     1781    31235    4           END;

  31235 27 010020   010116 710000 27                 TRA     s:31278

     1782    31236
     1783    31237    3        CASE (%MPD);

     1784    31238    4          DO SELECT (ID);

  31238 27 010021   200206 474500                    LDP4    @ID,,AUTO
        27 010022   400000 236100                    LDQ     0,,PR4
        27 010023   000244 116007                    CMPQ    164,DL
        27 010024   010034 604000 27                 TMI     s:31238+11
PL6.E3A0      #001=Z8E7$STMT_ASSIGNMENT File=Z8E7.:Z8A6TSI                       SAT 08/09/97 11:35 Page:312
        27 010025   010037 600000 27                 TZE     s:31240
        27 010026   000415 116007                    CMPQ    269,DL
        27 010027   010116 604000 27                 TMI     s:31278
        27 010030   010051 600000 27                 TZE     s:31246
        27 010031   000423 116007                    CMPQ    275,DL
        27 010032   010116 601000 27                 TNZ     s:31278
        27 010033   010056 710000 27                 TRA     s:31249
        27 010034   000243 116007                    CMPQ    163,DL
        27 010035   010116 601000 27                 TNZ     s:31278
        27 010036   010044 710000 27                 TRA     s:31243

     1785    31239    4            SELECT(%MVDDR);

     1786    31240    4              TWO_OPERAND_ID   = %MP2DR;

  31240 27 010037   000235 235007                    LDA     157,DL
        27 010040   200207 755100                    STA     TWO_OPERAND_ID,,AUTO

     1787    31241    4              THREE_OPERAND_ID = %MP3DR;

  31241 27 010041   000326 235007                    LDA     214,DL
        27 010042   200210 755100                    STA     THREE_OPERAND_ID,,AUTO
        27 010043   010116 710000 27                 TRA     s:31278

     1788    31242    4            SELECT(%MVDD);

     1789    31243    4              TWO_OPERAND_ID   = %MP2D;

  31243 27 010044   000234 235007                    LDA     156,DL
        27 010045   200207 755100                    STA     TWO_OPERAND_ID,,AUTO

     1790    31244    4              THREE_OPERAND_ID = %MP3D;

  31244 27 010046   000325 235007                    LDA     213,DL
        27 010047   200210 755100                    STA     THREE_OPERAND_ID,,AUTO
        27 010050   010116 710000 27                 TRA     s:31278

PL6.E3A0      #001=Z8E7$STMT_ASSIGNMENT File=Z8E7.:Z8A6TSI                       SAT 08/09/97 11:35 Page:313
     1791    31245    4            SELECT(%MVOOR);

     1792    31246    4              TWO_OPERAND_ID   = %MP2OR;

  31246 27 010051   000431 235007                    LDA     281,DL
        27 010052   200207 755100                    STA     TWO_OPERAND_ID,,AUTO

     1793    31247    4              THREE_OPERAND_ID = %MP3OR;

  31247 27 010053   000433 235007                    LDA     283,DL
        27 010054   200210 755100                    STA     THREE_OPERAND_ID,,AUTO
        27 010055   010116 710000 27                 TRA     s:31278

     1794    31248    4            SELECT(%MVOO);

     1795    31249    4              TWO_OPERAND_ID = %MP2O;

  31249 27 010056   000430 235007                    LDA     280,DL
        27 010057   200207 755100                    STA     TWO_OPERAND_ID,,AUTO

     1796    31250    4              THREE_OPERAND_ID = %MP3O;

  31250 27 010060   000432 235007                    LDA     282,DL
        27 010061   200210 755100                    STA     THREE_OPERAND_ID,,AUTO

     1797    31251    4          END;

  31251 27 010062   010116 710000 27                 TRA     s:31278

     1798    31252
     1799    31253    3        CASE(%ADO);

     1800    31254    3          IF ID = %MVOOR THEN

  31254 27 010063   200206 474500                    LDP4    @ID,,AUTO
        27 010064   400000 235100                    LDA     0,,PR4
        27 010065   000415 115007                    CMPA    269,DL
PL6.E3A0      #001=Z8E7$STMT_ASSIGNMENT File=Z8E7.:Z8A6TSI                       SAT 08/09/97 11:35 Page:314
        27 010066   010074 601000 27                 TNZ     s:31261

     1801    31255    4            DO;

     1802    31256    4              TWO_OPERAND_ID   = %AD2OR;

  31256 27 010067   000425 235007                    LDA     277,DL
        27 010070   200207 755100                    STA     TWO_OPERAND_ID,,AUTO

     1803    31257    4              THREE_OPERAND_ID = %AD3OR;

  31257 27 010071   000427 235007                    LDA     279,DL
        27 010072   200210 755100                    STA     THREE_OPERAND_ID,,AUTO

     1804    31258    4            END;

  31258 27 010073   010116 710000 27                 TRA     s:31278

     1805    31259    3          ELSE
     1806    31260    4            DO;

     1807    31261    4              TWO_OPERAND_ID = %AD2O;

  31261 27 010074   000424 235007                    LDA     276,DL
        27 010075   200207 755100                    STA     TWO_OPERAND_ID,,AUTO

     1808    31262    4              THREE_OPERAND_ID = %AD3O;

  31262 27 010076   000426 235007                    LDA     278,DL
        27 010077   200210 755100                    STA     THREE_OPERAND_ID,,AUTO

     1809    31263    4            END;

  31263 27 010100   010116 710000 27                 TRA     s:31278

     1810    31264
     1811    31265    3        CASE(%MPO);
PL6.E3A0      #001=Z8E7$STMT_ASSIGNMENT File=Z8E7.:Z8A6TSI                       SAT 08/09/97 11:35 Page:315

     1812    31266    3          IF ID = %MVOOR THEN

  31266 27 010101   200206 474500                    LDP4    @ID,,AUTO
        27 010102   400000 235100                    LDA     0,,PR4
        27 010103   000415 115007                    CMPA    269,DL
        27 010104   010112 601000 27                 TNZ     s:31273

     1813    31267    4            DO;

     1814    31268    4              TWO_OPERAND_ID = %MP2OR;

  31268 27 010105   000431 235007                    LDA     281,DL
        27 010106   200207 755100                    STA     TWO_OPERAND_ID,,AUTO

     1815    31269    4              THREE_OPERAND_ID = %MP3OR;

  31269 27 010107   000433 235007                    LDA     283,DL
        27 010110   200210 755100                    STA     THREE_OPERAND_ID,,AUTO

     1816    31270    4            END;

  31270 27 010111   010116 710000 27                 TRA     s:31278

     1817    31271    3          ELSE
     1818    31272    4            DO;

     1819    31273    4              TWO_OPERAND_ID = %MP2O;

  31273 27 010112   000430 235007                    LDA     280,DL
        27 010113   200207 755100                    STA     TWO_OPERAND_ID,,AUTO

     1820    31274    4              THREE_OPERAND_ID = %MP3O;

  31274 27 010114   000432 235007                    LDA     282,DL
        27 010115   200210 755100                    STA     THREE_OPERAND_ID,,AUTO

PL6.E3A0      #001=Z8E7$STMT_ASSIGNMENT File=Z8E7.:Z8A6TSI                       SAT 08/09/97 11:35 Page:316
     1821    31275    4            END;

     1822    31276    3      END;

     1823    31277
     1824    31278    2      IF LOP$$ -> LX_ETT_ITEM.ETT$ = ROP$$ -> LX_ETT_ITEM.ETT$ -> ETT.LOP THEN

  31278 27 010116   200203 474500                    LDP4    @LOP$$,,AUTO
        27 010117   400000 475500                    LDP5    0,,PR4
        27 010120   500001 236100                    LDQ     1,,PR5
        27 010121   300001 116100                    CMPQ    1,,PR3
        27 010122   010131 601000 27                 TNZ     s:31284

     1825    31279    3        DO;

     1826    31280    3          ROP$$ -> LX_ETT_ITEM.ETT$ = ROP$$ -> LX_ETT_ITEM.ETT$ -> ETT.ROP;

  31280 27 010123   300002 236100                    LDQ     2,,PR3
        27 010124   100001 756100                    STQ     1,,PR1

     1827    31281    3          ID = TWO_OPERAND_ID;

  31281 27 010125   200206 471500                    LDP1    @ID,,AUTO
        27 010126   200207 235100                    LDA     TWO_OPERAND_ID,,AUTO
        27 010127   100000 755100                    STA     0,,PR1

     1828    31282    3        END;

  31282 27 010130   010153 710000 27                 TRA     s:31296

     1829    31283    2      ELSE
     1830    31284    2        IF LOP$$ -> LX_ETT_ITEM.ETT$ = ROP$$ -> LX_ETT_ITEM.ETT$ -> ETT.ROP THEN

  31284 27 010131   300002 116100                    CMPQ    2,,PR3
        27 010132   010141 601000 27                 TNZ     s:31291

     1831    31285    3          DO;
PL6.E3A0      #001=Z8E7$STMT_ASSIGNMENT File=Z8E7.:Z8A6TSI                       SAT 08/09/97 11:35 Page:317

     1832    31286    3            ROP$$ -> LX_ETT_ITEM.ETT$ = ROP$$ -> LX_ETT_ITEM.ETT$ -> ETT.LOP;

  31286 27 010133   300001 236100                    LDQ     1,,PR3
        27 010134   100001 756100                    STQ     1,,PR1

     1833    31287    3            ID = TWO_OPERAND_ID;

  31287 27 010135   200206 471500                    LDP1    @ID,,AUTO
        27 010136   200207 235100                    LDA     TWO_OPERAND_ID,,AUTO
        27 010137   100000 755100                    STA     0,,PR1

     1834    31288    3          END;

  31288 27 010140   010153 710000 27                 TRA     s:31296

     1835    31289    2        ELSE
     1836    31290    3          DO;

     1837    31291    3            FROM$$ = ROP$$ -> LX_ETT_ITEM.ETT$ -> ETT.LOP;

  31291 27 010141   300001 236100                    LDQ     1,,PR3
        27 010142   200205 476500                    LDP6    @FROM$$,,AUTO
        27 010143   600000 756100                    STQ     0,,PR6

     1838    31292    3            ROP$$ -> LX_ETT_ITEM.ETT$ = ROP$$ -> LX_ETT_ITEM.ETT$ -> ETT.ROP;

  31292 27 010144   000000 471500                    LDP1    0,,PR0
        27 010145   100001 473500                    LDP3    1,,PR1
        27 010146   300002 236100                    LDQ     2,,PR3
        27 010147   100001 756100                    STQ     1,,PR1

     1839    31293    3            ID = THREE_OPERAND_ID;

  31293 27 010150   200206 471500                    LDP1    @ID,,AUTO
        27 010151   200210 235100                    LDA     THREE_OPERAND_ID,,AUTO
        27 010152   100000 755100                    STA     0,,PR1
PL6.E3A0      #001=Z8E7$STMT_ASSIGNMENT File=Z8E7.:Z8A6TSI                       SAT 08/09/97 11:35 Page:318

     1840    31294    3          END;

     1841    31295
     1842    31296    2        IF ID = TWO_OPERAND_ID THEN

  31296 27 010153   100000 236100                    LDQ     0,,PR1
        27 010154   200207 116100                    CMPQ    TWO_OPERAND_ID,,AUTO
        27 010155   010210 601000 27                 TNZ     s:31986

     1843    31297               %NEW_ILL (@ID     = ID,
     1844    31298                         @LOP    = LOP$$ -> LX_ETT_ITEM.ETT$,
     1845    31299                         @ROP    = ROP$$ -> LX_ETT_ITEM.ETT$);

  31612 27 010156   400000 473500                    LDP3    0,,PR4
        27 010157   000036 236000 28                 LDQ     30
        27 010160   200430 756100                    STQ     I+2,,AUTO
        27 010161   300001 635500                    EPPR5   1,,PR3
        27 010162   200435 455500                    STP5    I+7,,AUTO
        27 010163   200430 633500                    EPPR3   I+2,,AUTO
        27 010164   200434 453500                    STP3    I+6,,AUTO
        27 010165   000037 236000 28                 LDQ     31
        27 010166   200206 235100                    LDA     @ID,,AUTO
        27 010167   200432 757100                    STAQ    I+4,,AUTO
        27 010170   000052 236000 28                 LDQ     42
        27 010171   200431 756100                    STQ     I+3,,AUTO
        27 010172   200431 630500                    EPPR0   I+3,,AUTO
        27 010173   000042 631400 28                 EPPR1   34
        27 010174   000000 701000 xent               TSX1    Z8AN$NEW_ILL1
        27 010175   000000 011000                    NOP     0

  31615 27 010176   200203 470500                    LDP0    @LOP$$,,AUTO
        27 010177   000000 471500                    LDP1    0,,PR0
        27 010200   100001 236100                    LDQ     1,,PR1
        27 010201   000000 473400 6                  LDP3    ILL$
        27 010202   300001 756100                    STQ     1,,PR3

PL6.E3A0      #001=Z8E7$STMT_ASSIGNMENT File=Z8E7.:Z8A6TSI                       SAT 08/09/97 11:35 Page:319
  31616 27 010203   200204 471500                    LDP1    @ROP$$,,AUTO
        27 010204   100000 474500                    LDP4    0,,PR1
        27 010205   400001 236100                    LDQ     1,,PR4
        27 010206   300002 756100                    STQ     2,,PR3

  31648 27 010207   010244 710000 27                 TRA     s:32062

     1846    31678    2        ELSE
     1847    31679               %NEW_ILL (@ID     = ID,
     1848    31680                         @LOP    = FROM$$,
     1849    31681                         @ROP    = ROP$$ -> LX_ETT_ITEM.ETT$,
     1850    31682                         @TO     = LOP$$ -> LX_ETT_ITEM.ETT$);

  31986 27 010210   400000 473500                    LDP3    0,,PR4
        27 010211   000036 236000 28                 LDQ     30
        27 010212   200430 756100                    STQ     I+2,,AUTO
        27 010213   300001 635500                    EPPR5   1,,PR3
        27 010214   200435 455500                    STP5    I+7,,AUTO
        27 010215   200430 633500                    EPPR3   I+2,,AUTO
        27 010216   200434 453500                    STP3    I+6,,AUTO
        27 010217   000037 236000 28                 LDQ     31
        27 010220   200206 235100                    LDA     @ID,,AUTO
        27 010221   200432 757100                    STAQ    I+4,,AUTO
        27 010222   000052 236000 28                 LDQ     42
        27 010223   200431 756100                    STQ     I+3,,AUTO
        27 010224   200431 630500                    EPPR0   I+3,,AUTO
        27 010225   000042 631400 28                 EPPR1   34
        27 010226   000000 701000 xent               TSX1    Z8AN$NEW_ILL1
        27 010227   000000 011000                    NOP     0

  31988 27 010230   200205 470500                    LDP0    @FROM$$,,AUTO
        27 010231   000000 236100                    LDQ     0,,PR0
        27 010232   000000 471400 6                  LDP1    ILL$
        27 010233   100001 756100                    STQ     1,,PR1

  31989 27 010234   200204 473500                    LDP3    @ROP$$,,AUTO
        27 010235   300000 474500                    LDP4    0,,PR3
PL6.E3A0      #001=Z8E7$STMT_ASSIGNMENT File=Z8E7.:Z8A6TSI                       SAT 08/09/97 11:35 Page:320
        27 010236   400001 236100                    LDQ     1,,PR4
        27 010237   100002 756100                    STQ     2,,PR1

  31990 27 010240   200203 474500                    LDP4    @LOP$$,,AUTO
        27 010241   400000 475500                    LDP5    0,,PR4
        27 010242   500001 236100                    LDQ     1,,PR5
        27 010243   100003 756100                    STQ     3,,PR1

     1851    32061
     1852    32062    2   END COMMUTATIVE_OPERANDS;

  32062 27 010244   200202 221300                    LDX1  ! @LABEL$,,AUTO
        27 010245   000001 702211                    TSX2  ! 1,X1

     1853    32063        %EJECT;
PL6.E3A0      #001=Z8E7$STMT_ASSIGNMENT File=Z8E7.:Z8A6TSI                       SAT 08/09/97 11:35 Page:321
     1854    32064        /*========================*/
     1855    32065    1     NON_COMMUTATIVE_OPERANDS: PROC (LOP$$, ROP$$, FROM$$, ID);

  32065 27 010246   200202 741300       NON_COMMUTA* STX1  ! @LABEL$,,AUTO

     1856    32066        /*========================*/
     1857    32067
     1858    32068    2   DCL LOP$$              PTR;
     1859    32069    2   DCL ROP$$              PTR;
     1860    32070    2   DCL FROM$$             PTR;
     1861    32071    2   DCL ID                 SBIN WORD;
     1862    32072
     1863    32073    2   DCL TWO_OPERAND_ID     SBIN WORD;
     1864    32074    2   DCL THREE_OPERAND_ID   SBIN WORD;
     1865    32075
     1866    32076    3      DO CASE (ROP$$ -> LX_ETT_ITEM.ETT$ -> ETT.ID);

  32076 27 010247   200204 470500                    LDP0    @ROP$$,,AUTO
        27 010250   000000 471500                    LDP1    0,,PR0
        27 010251   100001 473500                    LDP3    1,,PR1
        27 010252   300000 236100                    LDQ     0,,PR3
        27 010253   000022 772000                    QRL     18
        27 010254   000055 136007                    SBLQ    45,DL
        27 010255   000112 116007                    CMPQ    74,DL
        27 010256   010260 602006 27                 TNC     s:32076+9,QL
        27 010257   010531 710000 27                 TRA     s:32136
        27 010260   010372 710000 27                 TRA     s:32078
        27 010261   010531 710000 27                 TRA     s:32136
        27 010262   010531 710000 27                 TRA     s:32136
        27 010263   010531 710000 27                 TRA     s:32136
        27 010264   010434 710000 27                 TRA     s:32094
        27 010265   010531 710000 27                 TRA     s:32136
        27 010266   010531 710000 27                 TRA     s:32136
        27 010267   010531 710000 27                 TRA     s:32136
        27 010270   010531 710000 27                 TRA     s:32136
        27 010271   010531 710000 27                 TRA     s:32136
        27 010272   010531 710000 27                 TRA     s:32136
PL6.E3A0      #001=Z8E7$STMT_ASSIGNMENT File=Z8E7.:Z8A6TSI                       SAT 08/09/97 11:35 Page:322
        27 010273   010531 710000 27                 TRA     s:32136
        27 010274   010531 710000 27                 TRA     s:32136
        27 010275   010531 710000 27                 TRA     s:32136
        27 010276   010531 710000 27                 TRA     s:32136
        27 010277   010531 710000 27                 TRA     s:32136
        27 010300   010531 710000 27                 TRA     s:32136
        27 010301   010531 710000 27                 TRA     s:32136
        27 010302   010531 710000 27                 TRA     s:32136
        27 010303   010531 710000 27                 TRA     s:32136
        27 010304   010531 710000 27                 TRA     s:32136
        27 010305   010531 710000 27                 TRA     s:32136
        27 010306   010531 710000 27                 TRA     s:32136
        27 010307   010531 710000 27                 TRA     s:32136
        27 010310   010531 710000 27                 TRA     s:32136
        27 010311   010531 710000 27                 TRA     s:32136
        27 010312   010531 710000 27                 TRA     s:32136
        27 010313   010531 710000 27                 TRA     s:32136
        27 010314   010531 710000 27                 TRA     s:32136
        27 010315   010531 710000 27                 TRA     s:32136
        27 010316   010531 710000 27                 TRA     s:32136
        27 010317   010531 710000 27                 TRA     s:32136
        27 010320   010531 710000 27                 TRA     s:32136
        27 010321   010531 710000 27                 TRA     s:32136
        27 010322   010531 710000 27                 TRA     s:32136
        27 010323   010531 710000 27                 TRA     s:32136
        27 010324   010531 710000 27                 TRA     s:32136
        27 010325   010531 710000 27                 TRA     s:32136
        27 010326   010531 710000 27                 TRA     s:32136
        27 010327   010531 710000 27                 TRA     s:32136
        27 010330   010531 710000 27                 TRA     s:32136
        27 010331   010531 710000 27                 TRA     s:32136
        27 010332   010531 710000 27                 TRA     s:32136
        27 010333   010531 710000 27                 TRA     s:32136
        27 010334   010531 710000 27                 TRA     s:32136
        27 010335   010531 710000 27                 TRA     s:32136
        27 010336   010531 710000 27                 TRA     s:32136
        27 010337   010531 710000 27                 TRA     s:32136
PL6.E3A0      #001=Z8E7$STMT_ASSIGNMENT File=Z8E7.:Z8A6TSI                       SAT 08/09/97 11:35 Page:323
        27 010340   010531 710000 27                 TRA     s:32136
        27 010341   010531 710000 27                 TRA     s:32136
        27 010342   010531 710000 27                 TRA     s:32136
        27 010343   010531 710000 27                 TRA     s:32136
        27 010344   010531 710000 27                 TRA     s:32136
        27 010345   010531 710000 27                 TRA     s:32136
        27 010346   010531 710000 27                 TRA     s:32136
        27 010347   010531 710000 27                 TRA     s:32136
        27 010350   010531 710000 27                 TRA     s:32136
        27 010351   010531 710000 27                 TRA     s:32136
        27 010352   010531 710000 27                 TRA     s:32136
        27 010353   010531 710000 27                 TRA     s:32136
        27 010354   010531 710000 27                 TRA     s:32136
        27 010355   010531 710000 27                 TRA     s:32136
        27 010356   010531 710000 27                 TRA     s:32136
        27 010357   010531 710000 27                 TRA     s:32136
        27 010360   010531 710000 27                 TRA     s:32136
        27 010361   010531 710000 27                 TRA     s:32136
        27 010362   010531 710000 27                 TRA     s:32136
        27 010363   010531 710000 27                 TRA     s:32136
        27 010364   010531 710000 27                 TRA     s:32136
        27 010365   010531 710000 27                 TRA     s:32136
        27 010366   010531 710000 27                 TRA     s:32136
        27 010367   010476 710000 27                 TRA     s:32110
        27 010370   010531 710000 27                 TRA     s:32136
        27 010371   010514 710000 27                 TRA     s:32122

     1867    32077    3        CASE (%SBD);

     1868    32078    4          DO SELECT(ID);

  32078 27 010372   200206 474500                    LDP4    @ID,,AUTO
        27 010373   400000 236100                    LDQ     0,,PR4
        27 010374   000244 116007                    CMPQ    164,DL
        27 010375   010405 604000 27                 TMI     s:32078+11
        27 010376   010410 600000 27                 TZE     s:32080
        27 010377   000415 116007                    CMPQ    269,DL
PL6.E3A0      #001=Z8E7$STMT_ASSIGNMENT File=Z8E7.:Z8A6TSI                       SAT 08/09/97 11:35 Page:324
        27 010400   010531 604000 27                 TMI     s:32136
        27 010401   010422 600000 27                 TZE     s:32086
        27 010402   000423 116007                    CMPQ    275,DL
        27 010403   010531 601000 27                 TNZ     s:32136
        27 010404   010427 710000 27                 TRA     s:32089
        27 010405   000243 116007                    CMPQ    163,DL
        27 010406   010531 601000 27                 TNZ     s:32136
        27 010407   010415 710000 27                 TRA     s:32083

     1869    32079    4            SELECT(%MVDDR);

     1870    32080    4              TWO_OPERAND_ID   = %SB2DR;

  32080 27 010410   000232 235007                    LDA     154,DL
        27 010411   200207 755100                    STA     TWO_OPERAND_ID,,AUTO

     1871    32081    4              THREE_OPERAND_ID = %SB3DR;

  32081 27 010412   000324 235007                    LDA     212,DL
        27 010413   200210 755100                    STA     THREE_OPERAND_ID,,AUTO
        27 010414   010531 710000 27                 TRA     s:32136

     1872    32082    4            SELECT(%MVDD);

     1873    32083    4              TWO_OPERAND_ID    = %SB2D;

  32083 27 010415   000231 235007                    LDA     153,DL
        27 010416   200207 755100                    STA     TWO_OPERAND_ID,,AUTO

     1874    32084    4              THREE_OPERAND_ID  = %SB3D;

  32084 27 010417   000323 235007                    LDA     211,DL
        27 010420   200210 755100                    STA     THREE_OPERAND_ID,,AUTO
        27 010421   010531 710000 27                 TRA     s:32136

     1875    32085    4            SELECT(%MVOOR);

PL6.E3A0      #001=Z8E7$STMT_ASSIGNMENT File=Z8E7.:Z8A6TSI                       SAT 08/09/97 11:35 Page:325
     1876    32086    4              TWO_OPERAND_ID = %SB2OR;

  32086 27 010422   000441 235007                    LDA     289,DL
        27 010423   200207 755100                    STA     TWO_OPERAND_ID,,AUTO

     1877    32087    4              THREE_OPERAND_ID = %SB3OR;

  32087 27 010424   000443 235007                    LDA     291,DL
        27 010425   200210 755100                    STA     THREE_OPERAND_ID,,AUTO
        27 010426   010531 710000 27                 TRA     s:32136

     1878    32088    4            SELECT(%MVOO);

     1879    32089    4              TWO_OPERAND_ID = %SB2O;

  32089 27 010427   000440 235007                    LDA     288,DL
        27 010430   200207 755100                    STA     TWO_OPERAND_ID,,AUTO

     1880    32090    4              THREE_OPERAND_ID = %SB3O;

  32090 27 010431   000442 235007                    LDA     290,DL
        27 010432   200210 755100                    STA     THREE_OPERAND_ID,,AUTO

     1881    32091    4          END;

  32091 27 010433   010531 710000 27                 TRA     s:32136

     1882    32092
     1883    32093    3        CASE (%DVD);

     1884    32094    4          DO SELECT(ID);

  32094 27 010434   200206 474500                    LDP4    @ID,,AUTO
        27 010435   400000 236100                    LDQ     0,,PR4
        27 010436   000244 116007                    CMPQ    164,DL
        27 010437   010447 604000 27                 TMI     s:32094+11
        27 010440   010452 600000 27                 TZE     s:32096
PL6.E3A0      #001=Z8E7$STMT_ASSIGNMENT File=Z8E7.:Z8A6TSI                       SAT 08/09/97 11:35 Page:326
        27 010441   000415 116007                    CMPQ    269,DL
        27 010442   010531 604000 27                 TMI     s:32136
        27 010443   010464 600000 27                 TZE     s:32102
        27 010444   000423 116007                    CMPQ    275,DL
        27 010445   010531 601000 27                 TNZ     s:32136
        27 010446   010471 710000 27                 TRA     s:32105
        27 010447   000243 116007                    CMPQ    163,DL
        27 010450   010531 601000 27                 TNZ     s:32136
        27 010451   010457 710000 27                 TRA     s:32099

     1885    32095    4            SELECT(%MVDDR);

     1886    32096    4              TWO_OPERAND_ID   = %DV2DR;

  32096 27 010452   000240 235007                    LDA     160,DL
        27 010453   200207 755100                    STA     TWO_OPERAND_ID,,AUTO

     1887    32097    4              THREE_OPERAND_ID = %DV3DR;

  32097 27 010454   000330 235007                    LDA     216,DL
        27 010455   200210 755100                    STA     THREE_OPERAND_ID,,AUTO
        27 010456   010531 710000 27                 TRA     s:32136

     1888    32098    4            SELECT(%MVDD);

     1889    32099    4              TWO_OPERAND_ID    = %DV2D;

  32099 27 010457   000237 235007                    LDA     159,DL
        27 010460   200207 755100                    STA     TWO_OPERAND_ID,,AUTO

     1890    32100    4              THREE_OPERAND_ID  = %DV3D;

  32100 27 010461   000327 235007                    LDA     215,DL
        27 010462   200210 755100                    STA     THREE_OPERAND_ID,,AUTO
        27 010463   010531 710000 27                 TRA     s:32136

     1891    32101    4            SELECT(%MVOOR);
PL6.E3A0      #001=Z8E7$STMT_ASSIGNMENT File=Z8E7.:Z8A6TSI                       SAT 08/09/97 11:35 Page:327

     1892    32102    4              TWO_OPERAND_ID = %DV2OR;

  32102 27 010464   000435 235007                    LDA     285,DL
        27 010465   200207 755100                    STA     TWO_OPERAND_ID,,AUTO

     1893    32103    4              THREE_OPERAND_ID  = %DV3OR;

  32103 27 010466   000437 235007                    LDA     287,DL
        27 010467   200210 755100                    STA     THREE_OPERAND_ID,,AUTO
        27 010470   010531 710000 27                 TRA     s:32136

     1894    32104    4            SELECT(%MVOO);

     1895    32105    4              TWO_OPERAND_ID = %DV2O;

  32105 27 010471   000434 235007                    LDA     284,DL
        27 010472   200207 755100                    STA     TWO_OPERAND_ID,,AUTO

     1896    32106    4              THREE_OPERAND_ID = %DV3O;

  32106 27 010473   000436 235007                    LDA     286,DL
        27 010474   200210 755100                    STA     THREE_OPERAND_ID,,AUTO

     1897    32107    4          END;

  32107 27 010475   010531 710000 27                 TRA     s:32136

     1898    32108
     1899    32109    3        CASE(%SBO);

     1900    32110    3          IF ID = %MVOOR THEN

  32110 27 010476   200206 474500                    LDP4    @ID,,AUTO
        27 010477   400000 235100                    LDA     0,,PR4
        27 010500   000415 115007                    CMPA    269,DL
        27 010501   010507 601000 27                 TNZ     s:32117
PL6.E3A0      #001=Z8E7$STMT_ASSIGNMENT File=Z8E7.:Z8A6TSI                       SAT 08/09/97 11:35 Page:328

     1901    32111    4            DO;

     1902    32112    4              TWO_OPERAND_ID = %SB2OR;

  32112 27 010502   000441 235007                    LDA     289,DL
        27 010503   200207 755100                    STA     TWO_OPERAND_ID,,AUTO

     1903    32113    4              THREE_OPERAND_ID = %SB3OR;

  32113 27 010504   000443 235007                    LDA     291,DL
        27 010505   200210 755100                    STA     THREE_OPERAND_ID,,AUTO

     1904    32114    4            END;

  32114 27 010506   010531 710000 27                 TRA     s:32136

     1905    32115    3          ELSE
     1906    32116    4            DO;

     1907    32117    4              TWO_OPERAND_ID = %SB2O;

  32117 27 010507   000440 235007                    LDA     288,DL
        27 010510   200207 755100                    STA     TWO_OPERAND_ID,,AUTO

     1908    32118    4              THREE_OPERAND_ID = %SB3O;

  32118 27 010511   000442 235007                    LDA     290,DL
        27 010512   200210 755100                    STA     THREE_OPERAND_ID,,AUTO

     1909    32119    4            END;

  32119 27 010513   010531 710000 27                 TRA     s:32136

     1910    32120
     1911    32121    3        CASE(%DVO);

PL6.E3A0      #001=Z8E7$STMT_ASSIGNMENT File=Z8E7.:Z8A6TSI                       SAT 08/09/97 11:35 Page:329
     1912    32122    3          IF ID = %MVOOR THEN

  32122 27 010514   200206 474500                    LDP4    @ID,,AUTO
        27 010515   400000 235100                    LDA     0,,PR4
        27 010516   000415 115007                    CMPA    269,DL
        27 010517   010525 601000 27                 TNZ     s:32129

     1913    32123    4            DO;

     1914    32124    4              TWO_OPERAND_ID = %DV2OR;

  32124 27 010520   000435 235007                    LDA     285,DL
        27 010521   200207 755100                    STA     TWO_OPERAND_ID,,AUTO

     1915    32125    4              THREE_OPERAND_ID = %DV3OR;

  32125 27 010522   000437 235007                    LDA     287,DL
        27 010523   200210 755100                    STA     THREE_OPERAND_ID,,AUTO

     1916    32126    4            END;

  32126 27 010524   010531 710000 27                 TRA     s:32136

     1917    32127    3          ELSE
     1918    32128    4            DO;

     1919    32129    4              TWO_OPERAND_ID = %DV2O;

  32129 27 010525   000434 235007                    LDA     284,DL
        27 010526   200207 755100                    STA     TWO_OPERAND_ID,,AUTO

     1920    32130    4              THREE_OPERAND_ID = %DV3O;

  32130 27 010527   000436 235007                    LDA     286,DL
        27 010530   200210 755100                    STA     THREE_OPERAND_ID,,AUTO

     1921    32131    4            END;
PL6.E3A0      #001=Z8E7$STMT_ASSIGNMENT File=Z8E7.:Z8A6TSI                       SAT 08/09/97 11:35 Page:330

     1922    32132    3      END; /*V* Case */

     1923    32133
     1924    32134           /* DPS90 DV3D kludge removed -- hardware has been fixed */
     1925    32135
     1926    32136    2      IF LOP$$ -> LX_ETT_ITEM.ETT$ = ROP$$ -> LX_ETT_ITEM.ETT$ -> ETT.LOP THEN

  32136 27 010531   200203 474500                    LDP4    @LOP$$,,AUTO
        27 010532   400000 475500                    LDP5    0,,PR4
        27 010533   500001 236100                    LDQ     1,,PR5
        27 010534   300001 116100                    CMPQ    1,,PR3
        27 010535   010544 601000 27                 TNZ     s:32143

     1927    32137    3        DO;

     1928    32138    3          ROP$$ -> LX_ETT_ITEM.ETT$ = ROP$$ -> LX_ETT_ITEM.ETT$ -> ETT.ROP;

  32138 27 010536   300002 236100                    LDQ     2,,PR3
        27 010537   100001 756100                    STQ     1,,PR1

     1929    32139    3          ID = TWO_OPERAND_ID;

  32139 27 010540   200206 471500                    LDP1    @ID,,AUTO
        27 010541   200207 235100                    LDA     TWO_OPERAND_ID,,AUTO
        27 010542   100000 755100                    STA     0,,PR1

     1930    32140    3        END;

  32140 27 010543   010556 710000 27                 TRA     s:32148

     1931    32141    2      ELSE
     1932    32142    3        DO;

     1933    32143    3          FROM$$ = ROP$$ -> LX_ETT_ITEM.ETT$ -> ETT.LOP;

  32143 27 010544   300001 236100                    LDQ     1,,PR3
PL6.E3A0      #001=Z8E7$STMT_ASSIGNMENT File=Z8E7.:Z8A6TSI                       SAT 08/09/97 11:35 Page:331
        27 010545   200205 476500                    LDP6    @FROM$$,,AUTO
        27 010546   600000 756100                    STQ     0,,PR6

     1934    32144    3          ROP$$ -> LX_ETT_ITEM.ETT$ = ROP$$ -> LX_ETT_ITEM.ETT$ -> ETT.ROP;

  32144 27 010547   000000 471500                    LDP1    0,,PR0
        27 010550   100001 473500                    LDP3    1,,PR1
        27 010551   300002 236100                    LDQ     2,,PR3
        27 010552   100001 756100                    STQ     1,,PR1

     1935    32145    3          ID = THREE_OPERAND_ID;

  32145 27 010553   200206 471500                    LDP1    @ID,,AUTO
        27 010554   200210 235100                    LDA     THREE_OPERAND_ID,,AUTO
        27 010555   100000 755100                    STA     0,,PR1

     1936    32146    3        END;

     1937    32147
     1938    32148    2        IF ID = TWO_OPERAND_ID THEN

  32148 27 010556   100000 236100                    LDQ     0,,PR1
        27 010557   200207 116100                    CMPQ    TWO_OPERAND_ID,,AUTO
        27 010560   010613 601000 27                 TNZ     s:32838

     1939    32149               %NEW_ILL (@ID     = ID,
     1940    32150                         @LOP    = LOP$$ -> LX_ETT_ITEM.ETT$,
     1941    32151                         @ROP    = ROP$$ -> LX_ETT_ITEM.ETT$);

  32464 27 010561   400000 473500                    LDP3    0,,PR4
        27 010562   000036 236000 28                 LDQ     30
        27 010563   200430 756100                    STQ     I+2,,AUTO
        27 010564   300001 635500                    EPPR5   1,,PR3
        27 010565   200435 455500                    STP5    I+7,,AUTO
        27 010566   200430 633500                    EPPR3   I+2,,AUTO
        27 010567   200434 453500                    STP3    I+6,,AUTO
        27 010570   000037 236000 28                 LDQ     31
PL6.E3A0      #001=Z8E7$STMT_ASSIGNMENT File=Z8E7.:Z8A6TSI                       SAT 08/09/97 11:35 Page:332
        27 010571   200206 235100                    LDA     @ID,,AUTO
        27 010572   200432 757100                    STAQ    I+4,,AUTO
        27 010573   000052 236000 28                 LDQ     42
        27 010574   200431 756100                    STQ     I+3,,AUTO
        27 010575   200431 630500                    EPPR0   I+3,,AUTO
        27 010576   000042 631400 28                 EPPR1   34
        27 010577   000000 701000 xent               TSX1    Z8AN$NEW_ILL1
        27 010600   000000 011000                    NOP     0

  32467 27 010601   200203 470500                    LDP0    @LOP$$,,AUTO
        27 010602   000000 471500                    LDP1    0,,PR0
        27 010603   100001 236100                    LDQ     1,,PR1
        27 010604   000000 473400 6                  LDP3    ILL$
        27 010605   300001 756100                    STQ     1,,PR3

  32468 27 010606   200204 471500                    LDP1    @ROP$$,,AUTO
        27 010607   100000 474500                    LDP4    0,,PR1
        27 010610   400001 236100                    LDQ     1,,PR4
        27 010611   300002 756100                    STQ     2,,PR3

  32500 27 010612   010647 710000 27                 TRA     s:32914

     1942    32530    2        ELSE
     1943    32531               %NEW_ILL (@ID     = ID,
     1944    32532                         @LOP    = FROM$$,
     1945    32533                         @ROP    = ROP$$ -> LX_ETT_ITEM.ETT$,
     1946    32534                         @TO     = LOP$$ -> LX_ETT_ITEM.ETT$);

  32838 27 010613   400000 473500                    LDP3    0,,PR4
        27 010614   000036 236000 28                 LDQ     30
        27 010615   200430 756100                    STQ     I+2,,AUTO
        27 010616   300001 635500                    EPPR5   1,,PR3
        27 010617   200435 455500                    STP5    I+7,,AUTO
        27 010620   200430 633500                    EPPR3   I+2,,AUTO
        27 010621   200434 453500                    STP3    I+6,,AUTO
        27 010622   000037 236000 28                 LDQ     31
        27 010623   200206 235100                    LDA     @ID,,AUTO
PL6.E3A0      #001=Z8E7$STMT_ASSIGNMENT File=Z8E7.:Z8A6TSI                       SAT 08/09/97 11:35 Page:333
        27 010624   200432 757100                    STAQ    I+4,,AUTO
        27 010625   000052 236000 28                 LDQ     42
        27 010626   200431 756100                    STQ     I+3,,AUTO
        27 010627   200431 630500                    EPPR0   I+3,,AUTO
        27 010630   000042 631400 28                 EPPR1   34
        27 010631   000000 701000 xent               TSX1    Z8AN$NEW_ILL1
        27 010632   000000 011000                    NOP     0

  32840 27 010633   200205 470500                    LDP0    @FROM$$,,AUTO
        27 010634   000000 236100                    LDQ     0,,PR0
        27 010635   000000 471400 6                  LDP1    ILL$
        27 010636   100001 756100                    STQ     1,,PR1

  32841 27 010637   200204 473500                    LDP3    @ROP$$,,AUTO
        27 010640   300000 474500                    LDP4    0,,PR3
        27 010641   400001 236100                    LDQ     1,,PR4
        27 010642   100002 756100                    STQ     2,,PR1

  32842 27 010643   200203 474500                    LDP4    @LOP$$,,AUTO
        27 010644   400000 475500                    LDP5    0,,PR4
        27 010645   500001 236100                    LDQ     1,,PR5
        27 010646   100003 756100                    STQ     3,,PR1

     1947    32913
     1948    32914    2   END NON_COMMUTATIVE_OPERANDS;

  32914 27 010647   200202 221300                    LDX1  ! @LABEL$,,AUTO
        27 010650   000001 702211                    TSX2  ! 1,X1

     1949    32915        %EJECT;
PL6.E3A0      #001=Z8E7$STMT_ASSIGNMENT File=Z8E7.:Z8A6TSI                       SAT 08/09/97 11:35 Page:334
     1950    32916        /*========*/
     1951    32917    1     MOVE_ALL: PROC (REC$, LIT$);

  32917 27 010651   200202 741300       MOVE_ALL     STX1  ! @LABEL$,,AUTO

     1952    32918        /*========*/
     1953    32919
     1954    32920    2        DCL LIT$          PTR;
     1955    32921    2        DCL REC$          PTR;
     1956    32922
     1957    32923
     1958    32924    2        DCL Z8EY$SUBSTR          ENTRY (4);
     1959    32925    2        DCL Z8EQ$MERGE_ITERATED_DO_WHILE ENTRY (4);
     1960    32926    2        DCL Z8EU$DISPOSE_TEMP    ENTRY (1);
     1961    32927    2        DCL EXIT_LABEL$          PTR;
     1962    32928
     1963    32929          /*V*  This procedure generates a move loop for  constructs like
     1964    32930                         MOVE ALL "XXX" TO REC
     1965    32931
     1966    32932              The algorithm is :
     1967    32933
     1968    32934                   NUM_MOVES = DIV (LEN(REC), LEN(LIT));
     1969    32935                   REMAINING_CHARS = MOD (LEN(REC), LEN(LIT))
     1970    32936
     1971    32937                   <Emit only if NUM_MOVES ~= constant 0>
     1972    32938
     1973    32939                       DO I = 1 TO LEN(REC) - LEN(LIT) + 1  BY LEN(LIT);
     1974    32940
     1975    32941                         MOVE LIT TO SUBSTR ( REC, I, LEN (LIT) );
     1976    32942
     1977    32943                       END;
     1978    32944
     1979    32945                   <Emit only if REMAINING_CHARS ~= constant 0>
     1980    32946
     1981    32947                       IF REMAINING_CHARS > 0
     1982    32948                         MOVE SUBSTR(LIT, 1, REMAINING_CHARS)
     1983    32949                             TO SUBSTR (REC,
PL6.E3A0      #001=Z8E7$STMT_ASSIGNMENT File=Z8E7.:Z8A6TSI                       SAT 08/09/97 11:35 Page:335
     1984    32950                                          I,  (or 1 if above loop was not emitted)
     1985    32951                                          REMAINING_CHARS);
     1986    32952          */
     1987    32953
     1988    32954
     1989    32955            %DCL_AUTO_LX_ITEM(@NAME = STR_LEN);
     1990    32959            %DCL_AUTO_LX_ITEM(@NAME = LIT_LEN);
     1991    32963            %DCL_AUTO_LX_ITEM(@NAME = LOOP_COUNTER);
     1992    32967            %DCL_AUTO_LX_ITEM(@NAME = NUM_MOVES);
     1993    32971            %DCL_AUTO_LX_ITEM(@NAME = REM_CHARS);
     1994    32975            %DCL_AUTO_LX_ITEM(@NAME = SUBSTRING);
     1995    32979            %DCL_AUTO_LX_ITEM(@NAME = SUBSTRING2);
     1996    32983            %DCL_AUTO_LX_ITEM(@NAME = COMPARE);
     1997    32987            %DCL_AUTO_LX_ITEM(@NAME = MINUS);
     1998    32991            %DCL_AUTO_LX_ITEM(@NAME = PLUS);
     1999    32995            %DCL_AUTO_LX_ITEM(@NAME = ZERO);
     2000    32999            %DCL_AUTO_LX_ITEM(@NAME = ONE);
     2001    33003             %DCL_AUTO_LX_ITEM(@NAME = SAVED_ILS_LIST);
     2002    33007
     2003    33008        %EJECT;
PL6.E3A0      #001=Z8E7$STMT_ASSIGNMENT File=Z8E7.:Z8A6TSI                       SAT 08/09/97 11:35 Page:336
     2004    33009
     2005    33010    2        ADDR(SAVED_ILS_LIST) -> ILS_LIST = O1COM.ILS_LIST;

  33010 27 010652   000100 100400                    MLR     fill='000'O
        27 010653   000016 000040 xsym               ADSC9   O1COM+14                 cn=0,n=32
        27 010654   200346 000040                    ADSC9   SAVED_ILS_LIST,,AUTO     cn=0,n=32

     2006    33011
     2007    33012             %INIT_ILS_LIST (@POINTER = "ADDR(O1COM.ILS_LIST)");

  33014 27 010655   000007 220003                    LDX0    7,DU
        27 010656   000016 740000 xsym               STX0    O1COM+14

  33015 27 010657   000001 236000 28                 LDQ     1
        27 010660   000017 756000 xsym               STQ     O1COM+15

  33016 27 010661   000020 756000 xsym               STQ     O1COM+16

  33017 27 010662   000025 756000 xsym               STQ     O1COM+21

     2008    33020
     2009    33021            %INIT_LX_ETT_ITEM (@POINTER = "ADDR(LOOP_COUNTER)",
     2010    33022                               @ETT$ = "ADDR(NIL)");

  33024 27 010663   000004 222003                    LDX2    4,DU
        27 010664   200226 742100                    STX2    LOOP_COUNTER,,AUTO

  33025 27 010665   000000 223003                    LDX3    0,DU
        27 010666   200226 443100                    SXL3    LOOP_COUNTER,,AUTO

  33026 27 010667   000015 235007                    LDA     13,DL
        27 010670   200232 755100                    STA     SEND_RIGHT,,AUTO

  33027 27 010671   200235 756100                    STQ     REC_RIGHT+2,,AUTO

  33028 27 010672   200227 756100                    STQ     REC_SF,,AUTO

PL6.E3A0      #001=Z8E7$STMT_ASSIGNMENT File=Z8E7.:Z8A6TSI                       SAT 08/09/97 11:35 Page:337
  33029 27 010673   200230 756100                    STQ     SEND,,AUTO

  33031 27 010674   000133 235000 xsym               LDA     COMCOM+91
        27 010675   200233 755100                    STA     REC_RIGHT,,AUTO

  33032 27 010676   000134 235000 xsym               LDA     COMCOM+92
        27 010677   200234 755100                    STA     REC_RIGHT+1,,AUTO

     2011    33044
     2012    33045            %INIT_LX_ETT_ITEM (@POINTER = "ADDR(ONE)",
     2013    33046                               @TYPE = %TYI,
     2014    33047                               @ETT$ = COMCOM.VALUE_1);

  33049 27 010700   200336 742100                    STX2    ONE,,AUTO

  33050 27 010701   200336 443100                    SXL3    ONE,,AUTO

  33051 27 010702   000001 235007                    LDA     1,DL
        27 010703   200342 755100                    STA     ONE+4,,AUTO

  33052 27 010704   200345 756100                    STQ     ONE+7,,AUTO

  33053 27 010705   000125 236000 xsym               LDQ     COMCOM+85
        27 010706   200337 756100                    STQ     ONE+1,,AUTO

  33054 27 010707   000001 236000 28                 LDQ     1
        27 010710   200340 756100                    STQ     ONE+2,,AUTO

  33056 27 010711   000133 235000 xsym               LDA     COMCOM+91
        27 010712   200343 755100                    STA     ONE+5,,AUTO

  33057 27 010713   000134 235000 xsym               LDA     COMCOM+92
        27 010714   200344 755100                    STA     ONE+6,,AUTO

     2015    33069
     2016    33070            /*V* Get the two operands to be moved from the list.
     2017    33071               The first is the string;  the second is the ALL <literal>
PL6.E3A0      #001=Z8E7$STMT_ASSIGNMENT File=Z8E7.:Z8A6TSI                       SAT 08/09/97 11:35 Page:338
     2018    33072            */
     2019    33073
     2020    33074    2       LIT$ -> LX_ETT_ITEM.B.ALL = FALSE;

  33074 27 010715   200204 470500                    LDP0    @LIT$,,AUTO
        27 010716   000000 471500                    LDP1    0,,PR0
        27 010717   000111 236000 28                 LDQ     73
        27 010720   100000 356100                    ANSQ    0,,PR1

     2021    33075
     2022    33076            /*V* Calculate the lengths */
     2023    33077
     2024    33078            %INIT_LX_ETT_ITEM (@POINTER = "ADDR(STR_LEN)",
     2025    33079                               @TYPE = %TYI);

  33081 27 010721   200206 742100                    STX2    STR_LEN,,AUTO

  33082 27 010722   200206 443100                    SXL3    STR_LEN,,AUTO

  33083 27 010723   000001 235007                    LDA     1,DL
        27 010724   200212 755100                    STA     DOLLAR$,,AUTO

  33084 27 010725   000001 236000 28                 LDQ     1
        27 010726   200215 756100                    STQ     REC_ST$,,AUTO

  33085 27 010727   200207 756100                    STQ     TWO_OPERAND_ID,,AUTO

  33086 27 010730   200210 756100                    STQ     THREE_OPERAND_ID,,AUTO

  33088 27 010731   000133 235000 xsym               LDA     COMCOM+91
        27 010732   200213 755100                    STA     DESC_BLK,,AUTO

  33089 27 010733   000134 235000 xsym               LDA     COMCOM+92
        27 010734   200214 755100                    STA     DESC_BLK+1,,AUTO

     2026    33101
     2027    33102    2       CALL Z8AU$LENGTH_ETT (REC$ -> LX_ETT_ITEM.ETT$,
PL6.E3A0      #001=Z8E7$STMT_ASSIGNMENT File=Z8E7.:Z8A6TSI                       SAT 08/09/97 11:35 Page:339

  33102 27 010735   200203 471500                    LDP1    @REC$,,AUTO
        27 010736   100000 473500                    LDP3    0,,PR1
        27 010737   200207 634500                    EPPR4   TWO_OPERAND_ID,,AUTO
        27 010740   200431 454500                    STP4    I+3,,AUTO
        27 010741   300001 635500                    EPPR5   1,,PR3
        27 010742   200430 455500                    STP5    I+2,,AUTO
        27 010743   200430 630500                    EPPR0   I+2,,AUTO
        27 010744   000000 631400 28                 EPPR1   0
        27 010745   000000 701000 xent               TSX1    Z8AU$LENGTH_ETT
        27 010746   000000 011000                    NOP     0

     2028    33103    2                             ADDR(STR_LEN) -> LX_ETT_ITEM.ETT$);
     2029    33104
     2030    33105            %INIT_LX_ETT_ITEM (@POINTER = "ADDR(LIT_LEN)",
     2031    33106                               @TYPE = %TYI);

  33108 27 010747   000004 220003                    LDX0    4,DU
        27 010750   200216 740100                    STX0    LIT_LEN,,AUTO

  33109 27 010751   000000 221003                    LDX1    0,DU
        27 010752   200216 441100                    SXL1    LIT_LEN,,AUTO

  33110 27 010753   000001 235007                    LDA     1,DL
        27 010754   200222 755100                    STA     SEND_LEN,,AUTO

  33111 27 010755   000001 236000 28                 LDQ     1
        27 010756   200225 756100                    STQ     REC_SIGN,,AUTO

  33112 27 010757   200217 756100                    STQ     DESC_LIST$,,AUTO

  33113 27 010760   200220 756100                    STQ     PLIST,,AUTO

  33115 27 010761   000133 235000 xsym               LDA     COMCOM+91
        27 010762   200223 755100                    STA     REC_LEN,,AUTO

  33116 27 010763   000134 235000 xsym               LDA     COMCOM+92
PL6.E3A0      #001=Z8E7$STMT_ASSIGNMENT File=Z8E7.:Z8A6TSI                       SAT 08/09/97 11:35 Page:340
        27 010764   200224 755100                    STA     SEND_SIGN,,AUTO

     2032    33128
     2033    33129    2       CALL Z8AU$LENGTH_ETT (LIT$ -> LX_ETT_ITEM.ETT$,

  33129 27 010765   200204 470500                    LDP0    @LIT$,,AUTO
        27 010766   000000 471500                    LDP1    0,,PR0
        27 010767   200217 633500                    EPPR3   DESC_LIST$,,AUTO
        27 010770   200431 453500                    STP3    I+3,,AUTO
        27 010771   100001 634500                    EPPR4   1,,PR1
        27 010772   200430 454500                    STP4    I+2,,AUTO
        27 010773   200430 630500                    EPPR0   I+2,,AUTO
        27 010774   000000 631400 28                 EPPR1   0
        27 010775   000000 701000 xent               TSX1    Z8AU$LENGTH_ETT
        27 010776   000000 011000                    NOP     0

     2034    33130    2                             ADDR(LIT_LEN) -> LX_ETT_ITEM.ETT$);
     2035    33131
     2036    33132            /*V* Calculate NUM_MOVES & REM_CHARS */
     2037    33133
     2038    33134            %INIT_LX_ETT_ITEM (@POINTER = "ADDR(NUM_MOVES)",
     2039    33135                               @TYPE = %TYI);

  33137 27 010777   000004 220003                    LDX0    4,DU
        27 011000   200236 740100                    STX0    NUM_MOVES,,AUTO

  33138 27 011001   000000 221003                    LDX1    0,DU
        27 011002   200236 441100                    SXL1    NUM_MOVES,,AUTO

  33139 27 011003   000001 235007                    LDA     1,DL
        27 011004   200242 755100                    STA     NEL$$+1,,AUTO

  33140 27 011005   000001 236000 28                 LDQ     1
        27 011006   200245 756100                    STQ     NUM_CONST+3,,AUTO

  33141 27 011007   200237 756100                    STQ     @ST$$,,AUTO

PL6.E3A0      #001=Z8E7$STMT_ASSIGNMENT File=Z8E7.:Z8A6TSI                       SAT 08/09/97 11:35 Page:341
  33142 27 011010   200240 756100                    STQ     REC,,AUTO

  33144 27 011011   000133 235000 xsym               LDA     COMCOM+91
        27 011012   200243 755100                    STA     NUM_CONST+1,,AUTO

  33145 27 011013   000134 235000 xsym               LDA     COMCOM+92
        27 011014   200244 755100                    STA     NUM_CONST+2,,AUTO

     2040    33157
     2041    33158    2       CALL Z8AF$FORME (%DVI,

  33158 27 011015   200237 630500                    EPPR0   @ST$$,,AUTO
        27 011016   200433 450500                    STP0    I+5,,AUTO
        27 011017   200217 631500                    EPPR1   DESC_LIST$,,AUTO
        27 011020   200432 451500                    STP1    I+4,,AUTO
        27 011021   200207 633500                    EPPR3   TWO_OPERAND_ID,,AUTO
        27 011022   200431 453500                    STP3    I+3,,AUTO
        27 011023   000115 236000 28                 LDQ     77
        27 011024   200430 756100                    STQ     I+2,,AUTO
        27 011025   200430 630500                    EPPR0   I+2,,AUTO
        27 011026   000033 631400 28                 EPPR1   27
        27 011027   000000 701000 xent               TSX1    Z8AF$FORME
        27 011030   000000 011000                    NOP     0

     2042    33159    2                        ADDR(STR_LEN) -> LX_ETT_ITEM.ETT$,
     2043    33160    2                        ADDR(LIT_LEN) -> LX_ETT_ITEM.ETT$,
     2044    33161    2                        ADDR(NUM_MOVES) -> LX_ETT_ITEM.ETT$);
     2045    33162
     2046    33163            %INIT_LX_ETT_ITEM (@POINTER = "ADDR(REM_CHARS)",
     2047    33164                               @TYPE = %TYI);

  33166 27 011031   000004 220003                    LDX0    4,DU
        27 011032   200246 740100                    STX0    REM_CHARS,,AUTO

  33167 27 011033   000000 221003                    LDX1    0,DU
        27 011034   200246 441100                    SXL1    REM_CHARS,,AUTO

PL6.E3A0      #001=Z8E7$STMT_ASSIGNMENT File=Z8E7.:Z8A6TSI                       SAT 08/09/97 11:35 Page:342
  33168 27 011035   000001 235007                    LDA     1,DL
        27 011036   200252 755100                    STA     DESC+2,,AUTO

  33169 27 011037   000001 236000 28                 LDQ     1
        27 011040   200255 756100                    STQ     I+3,,AUTO

  33170 27 011041   200247 756100                    STQ     REM_CHARS+1,,AUTO

  33171 27 011042   200250 756100                    STQ     DESC,,AUTO

  33173 27 011043   000133 235000 xsym               LDA     COMCOM+91
        27 011044   200253 755100                    STA     I+1,,AUTO

  33174 27 011045   000134 235000 xsym               LDA     COMCOM+92
        27 011046   200254 755100                    STA     I+2,,AUTO

     2048    33186
     2049    33187    2       CALL Z8AF$FORME (%MODI,

  33187 27 011047   200247 630500                    EPPR0   REM_CHARS+1,,AUTO
        27 011050   200433 450500                    STP0    I+5,,AUTO
        27 011051   200217 631500                    EPPR1   DESC_LIST$,,AUTO
        27 011052   200432 451500                    STP1    I+4,,AUTO
        27 011053   200207 633500                    EPPR3   TWO_OPERAND_ID,,AUTO
        27 011054   200431 453500                    STP3    I+3,,AUTO
        27 011055   000117 236000 28                 LDQ     79
        27 011056   200430 756100                    STQ     I+2,,AUTO
        27 011057   200430 630500                    EPPR0   I+2,,AUTO
        27 011060   000033 631400 28                 EPPR1   27
        27 011061   000000 701000 xent               TSX1    Z8AF$FORME
        27 011062   000000 011000                    NOP     0

     2050    33188    2                        ADDR(STR_LEN) -> LX_ETT_ITEM.ETT$,
     2051    33189    2                        ADDR(LIT_LEN) -> LX_ETT_ITEM.ETT$,
     2052    33190    2                        ADDR(REM_CHARS) -> LX_ETT_ITEM.ETT$);
     2053    33191
     2054    33192            /*V* Issue loop for whole moves */
PL6.E3A0      #001=Z8E7$STMT_ASSIGNMENT File=Z8E7.:Z8A6TSI                       SAT 08/09/97 11:35 Page:343
     2055    33193
     2056    33194    2       IF ADDR(NUM_MOVES) -> LX_ETT_ITEM.ETT$ ~= COMCOM.VALUE_0 THEN

  33194 27 011063   200237 236100                    LDQ     @ST$$,,AUTO
        27 011064   000124 116000 xsym               CMPQ    COMCOM+84
        27 011065   011232 600000 27                 TZE     s:33282

     2057    33195    3         DO;

     2058    33196    3           CALL Z8EU$NEW_TEMP_FROM_ETT (COMCOM.VALUE_1,

  33196 27 011066   200226 630500                    EPPR0   LOOP_COUNTER,,AUTO
        27 011067   200430 450500                    STP0    I+2,,AUTO
        27 011070   200430 631500                    EPPR1   I+2,,AUTO
        27 011071   200433 451500                    STP1    I+5,,AUTO
        27 011072   000120 236000 28                 LDQ     80
        27 011073   200432 756100                    STQ     I+4,,AUTO
        27 011074   200432 630500                    EPPR0   I+4,,AUTO
        27 011075   000000 631400 28                 EPPR1   0
        27 011076   000000 701000 xent               TSX1    Z8EU$NEW_TEMP_FROM_ETT
        27 011077   000000 011000                    NOP     0

     2059    33197    3                                        ADDR(LOOP_COUNTER));
     2060    33198
     2061    33199
     2062    33200    3           CALL Z8EY$SUBSTR (REC$,

  33200 27 011100   200226 630500                    EPPR0   LOOP_COUNTER,,AUTO
        27 011101   200430 450500                    STP0    I+2,,AUTO
        27 011102   200216 631500                    EPPR1   LIT_LEN,,AUTO
        27 011103   200431 451500                    STP1    I+3,,AUTO
        27 011104   200256 633500                    EPPR3   SUBSTRING,,AUTO
        27 011105   200432 453500                    STP3    I+4,,AUTO
        27 011106   200432 634500                    EPPR4   I+4,,AUTO
        27 011107   200437 454500                    STP4    I+9,,AUTO
        27 011110   200431 635500                    EPPR5   I+3,,AUTO
        27 011111   200436 455500                    STP5    I+8,,AUTO
PL6.E3A0      #001=Z8E7$STMT_ASSIGNMENT File=Z8E7.:Z8A6TSI                       SAT 08/09/97 11:35 Page:344
        27 011112   200430 636500                    EPPR6   I+2,,AUTO
        27 011113   200435 456500                    STP6    I+7,,AUTO
        27 011114   200203 236100                    LDQ     @REC$,,AUTO
        27 011115   200434 756100                    STQ     I+6,,AUTO
        27 011116   200434 630500                    EPPR0   I+6,,AUTO
        27 011117   000033 631400 28                 EPPR1   27
        27 011120   000000 701000 xent               TSX1    Z8EY$SUBSTR
        27 011121   000000 011000                    NOP     0

     2063    33201    3                             ADDR(LOOP_COUNTER),
     2064    33202    3                             ADDR(LIT_LEN),
     2065    33203    3                             ADDR(SUBSTRING));
     2066    33204
     2067    33205
     2068    33206                %INIT_BINARY_OP (@POINTER = "ADDR(PLUS)",
     2069    33207                                 @LOP$ = "ADDR(ONE)",
     2070    33208                                 @ROP$ = "ADDR(STR_LEN)",
     2071    33209                                 @OP = %OP_PLUS);

  33211 27 011122   000005 220003                    LDX0    5,DU
        27 011123   200316 740100                    STX0    PLUS,,AUTO

  33212 27 011124   000000 221003                    LDX1    0,DU
        27 011125   200316 441100                    SXL1    PLUS,,AUTO

  33219 27 011126   000133 235000 xsym               LDA     COMCOM+91
        27 011127   200323 755100                    STA     PLUS+5,,AUTO

  33220 27 011130   000134 236000 xsym               LDQ     COMCOM+92
        27 011131   200324 756100                    STQ     PLUS+6,,AUTO

  33221 27 011132   200206 630500                    EPPR0   STR_LEN,,AUTO
        27 011133   200320 450500                    STP0    PLUS+2,,AUTO

  33222 27 011134   200336 631500                    EPPR1   ONE,,AUTO
        27 011135   200317 451500                    STP1    PLUS+1,,AUTO

PL6.E3A0      #001=Z8E7$STMT_ASSIGNMENT File=Z8E7.:Z8A6TSI                       SAT 08/09/97 11:35 Page:345
  33223 27 011136   000020 235007                    LDA     16,DL
        27 011137   200321 755100                    STA     PLUS+3,,AUTO

  33224 27 011140   000001 236000 28                 LDQ     1
        27 011141   200325 756100                    STQ     PLUS+7,,AUTO

     2072    33227
     2073    33228                %INIT_BINARY_OP (@POINTER = "ADDR(MINUS)",
     2074    33229                                 @LOP$ = "ADDR(PLUS)",
     2075    33230                                 @ROP$ = "ADDR(LIT_LEN)",
     2076    33231                                 @OP = %OP_BINARY_MINUS);

  33233 27 011142   200306 740100                    STX0    MINUS,,AUTO

  33234 27 011143   200306 441100                    SXL1    MINUS,,AUTO

  33241 27 011144   000133 235000 xsym               LDA     COMCOM+91
        27 011145   200313 755100                    STA     MINUS+5,,AUTO

  33242 27 011146   000134 235000 xsym               LDA     COMCOM+92
        27 011147   200314 755100                    STA     MINUS+6,,AUTO

  33243 27 011150   200216 633500                    EPPR3   LIT_LEN,,AUTO
        27 011151   200310 453500                    STP3    MINUS+2,,AUTO

  33244 27 011152   200316 634500                    EPPR4   PLUS,,AUTO
        27 011153   200307 454500                    STP4    MINUS+1,,AUTO

  33245 27 011154   000021 235007                    LDA     17,DL
        27 011155   200311 755100                    STA     MINUS+3,,AUTO

  33246 27 011156   200315 756100                    STQ     MINUS+7,,AUTO

     2077    33249
     2078    33250                %INIT_BINARY_OP (@POINTER = "ADDR(COMPARE)",
     2079    33251                                 @LOP$ = "ADDR(LOOP_COUNTER)",
     2080    33252                                 @ROP$ = "ADDR(MINUS)",
PL6.E3A0      #001=Z8E7$STMT_ASSIGNMENT File=Z8E7.:Z8A6TSI                       SAT 08/09/97 11:35 Page:346
     2081    33253                                 @OP = %OP_LESS_THAN_OR_EQUAL);

  33255 27 011157   200276 740100                    STX0    COMPARE,,AUTO

  33256 27 011160   200276 441100                    SXL1    COMPARE,,AUTO

  33263 27 011161   000133 235000 xsym               LDA     COMCOM+91
        27 011162   200303 755100                    STA     COMPARE+5,,AUTO

  33264 27 011163   000134 235000 xsym               LDA     COMCOM+92
        27 011164   200304 755100                    STA     COMPARE+6,,AUTO

  33265 27 011165   200306 635500                    EPPR5   MINUS,,AUTO
        27 011166   200300 455500                    STP5    COMPARE+2,,AUTO

  33266 27 011167   200226 636500                    EPPR6   LOOP_COUNTER,,AUTO
        27 011170   200277 456500                    STP6    COMPARE+1,,AUTO

  33267 27 011171   000032 235007                    LDA     26,DL
        27 011172   200301 755100                    STA     COMPARE+3,,AUTO

  33268 27 011173   200305 756100                    STQ     COMPARE+7,,AUTO

     2082    33271
     2083    33272    3           CALL Z8E7$MOVE (ADDR(SUBSTRING), LIT$);

  33272 27 011174   200256 637500                    EPPR7   SUBSTRING,,AUTO
        27 011175   200430 457500                    STP7    I+2,,AUTO
        27 011176   200204 236100                    LDQ     @LIT$,,AUTO
        27 011177   200433 756100                    STQ     I+5,,AUTO
        27 011200   200430 630500                    EPPR0   I+2,,AUTO
        27 011201   200432 450500                    STP0    I+4,,AUTO
        27 011202   200432 630500                    EPPR0   I+4,,AUTO
        27 011203   000000 631400 28                 EPPR1   0
        27 011204   012400 701000 27                 TSX1    s:34887
        27 011205   000000 011000                    NOP     0

PL6.E3A0      #001=Z8E7$STMT_ASSIGNMENT File=Z8E7.:Z8A6TSI                       SAT 08/09/97 11:35 Page:347
     2084    33273
     2085    33274    3           CALL Z8EQ$MERGE_ITERATED_DO_WHILE (ADDR(LOOP_COUNTER),

  33274 27 011206   200226 630500                    EPPR0   LOOP_COUNTER,,AUTO
        27 011207   200430 450500                    STP0    I+2,,AUTO
        27 011210   200336 631500                    EPPR1   ONE,,AUTO
        27 011211   200431 451500                    STP1    I+3,,AUTO
        27 011212   200216 633500                    EPPR3   LIT_LEN,,AUTO
        27 011213   200432 453500                    STP3    I+4,,AUTO
        27 011214   200276 634500                    EPPR4   COMPARE,,AUTO
        27 011215   200433 454500                    STP4    I+5,,AUTO
        27 011216   200433 635500                    EPPR5   I+5,,AUTO
        27 011217   200437 455500                    STP5    I+9,,AUTO
        27 011220   200432 636500                    EPPR6   I+4,,AUTO
        27 011221   200436 456500                    STP6    I+8,,AUTO
        27 011222   200431 637500                    EPPR7   I+3,,AUTO
        27 011223   200435 457500                    STP7    I+7,,AUTO
        27 011224   200430 630500                    EPPR0   I+2,,AUTO
        27 011225   200434 450500                    STP0    I+6,,AUTO
        27 011226   200434 630500                    EPPR0   I+6,,AUTO
        27 011227   000033 631400 28                 EPPR1   27
        27 011230   000000 701000 xent               TSX1    Z8EQ$MERGE_ITERATED_DO_WHILE
        27 011231   000000 011000                    NOP     0

     2086    33275    3                                              ADDR(ONE),
     2087    33276    3                                              ADDR(LIT_LEN),
     2088    33277    3                                              ADDR(COMPARE));
     2089    33278    3         END;

     2090    33279
     2091    33280            /*V* Issue last MOVE statement */
     2092    33281
     2093    33282    2       IF ADDR(REM_CHARS) -> LX_ETT_ITEM.ETT$ ~= COMCOM.VALUE_0 THEN

  33282 27 011232   200247 236100                    LDQ     REM_CHARS+1,,AUTO
        27 011233   000124 116000 xsym               CMPQ    COMCOM+84
        27 011234   011442 600000 27                 TZE     s:33736
PL6.E3A0      #001=Z8E7$STMT_ASSIGNMENT File=Z8E7.:Z8A6TSI                       SAT 08/09/97 11:35 Page:348

     2094    33283    3         DO;

     2095    33284    3           CALL Z8AT$CREATE_TEMPORARY (%PARA, EXIT_LABEL$);

  33284 27 011235   200205 630500                    EPPR0   EXIT_LABEL$,,AUTO
        27 011236   200431 450500                    STP0    I+3,,AUTO
        27 011237   000122 236000 28                 LDQ     82
        27 011240   200430 756100                    STQ     I+2,,AUTO
        27 011241   200430 630500                    EPPR0   I+2,,AUTO
        27 011242   000000 631400 28                 EPPR1   0
        27 011243   000000 701000 xent               TSX1    Z8AT$CREATE_TEMPORARY
        27 011244   000000 011000                    NOP     0

     2096    33285
     2097    33286                %INIT_LX_ETT_ITEM (@POINTER = "ADDR(ZERO)",
     2098    33287                                   @TYPE = %TYI,
     2099    33288                                   @ETT$ = COMCOM.VALUE_0);

  33290 27 011245   000004 220003                    LDX0    4,DU
        27 011246   200326 740100                    STX0    ZERO,,AUTO

  33291 27 011247   000000 221003                    LDX1    0,DU
        27 011250   200326 441100                    SXL1    ZERO,,AUTO

  33292 27 011251   000001 235007                    LDA     1,DL
        27 011252   200332 755100                    STA     ZERO+4,,AUTO

  33293 27 011253   000001 236000 28                 LDQ     1
        27 011254   200335 756100                    STQ     ZERO+7,,AUTO

  33294 27 011255   000124 236000 xsym               LDQ     COMCOM+84
        27 011256   200327 756100                    STQ     ZERO+1,,AUTO

  33295 27 011257   000001 236000 28                 LDQ     1
        27 011260   200330 756100                    STQ     ZERO+2,,AUTO

PL6.E3A0      #001=Z8E7$STMT_ASSIGNMENT File=Z8E7.:Z8A6TSI                       SAT 08/09/97 11:35 Page:349
  33297 27 011261   000133 235000 xsym               LDA     COMCOM+91
        27 011262   200333 755100                    STA     ZERO+5,,AUTO

  33298 27 011263   000134 235000 xsym               LDA     COMCOM+92
        27 011264   200334 755100                    STA     ZERO+6,,AUTO

     2100    33310
     2101    33311                %INIT_BINARY_OP (@POINTER = "ADDR(COMPARE)",
     2102    33312                                 @LOP$ = "ADDR(REM_CHARS)",
     2103    33313                                 @ROP$ = "ADDR(ZERO)",
     2104    33314                                 @OP = %OP_GREATER_THAN);

  33316 27 011265   000005 222003                    LDX2    5,DU
        27 011266   200276 742100                    STX2    COMPARE,,AUTO

  33317 27 011267   200276 441100                    SXL1    COMPARE,,AUTO

  33324 27 011270   000133 235000 xsym               LDA     COMCOM+91
        27 011271   200303 755100                    STA     COMPARE+5,,AUTO

  33325 27 011272   000134 235000 xsym               LDA     COMCOM+92
        27 011273   200304 755100                    STA     COMPARE+6,,AUTO

  33326 27 011274   200326 630500                    EPPR0   ZERO,,AUTO
        27 011275   200300 450500                    STP0    COMPARE+2,,AUTO

  33327 27 011276   200246 631500                    EPPR1   REM_CHARS,,AUTO
        27 011277   200277 451500                    STP1    COMPARE+1,,AUTO

  33328 27 011300   000030 235007                    LDA     24,DL
        27 011301   200301 755100                    STA     COMPARE+3,,AUTO

  33329 27 011302   200305 756100                    STQ     COMPARE+7,,AUTO

     2105    33332
     2106    33333
     2107    33334    3           CALL Z8EK$BRANCH_FALSE (EXIT_LABEL$, ADDR(COMPARE));
PL6.E3A0      #001=Z8E7$STMT_ASSIGNMENT File=Z8E7.:Z8A6TSI                       SAT 08/09/97 11:35 Page:350

  33334 27 011303   200276 633500                    EPPR3   COMPARE,,AUTO
        27 011304   200430 453500                    STP3    I+2,,AUTO
        27 011305   200430 634500                    EPPR4   I+2,,AUTO
        27 011306   200433 454500                    STP4    I+5,,AUTO
        27 011307   200205 635500                    EPPR5   EXIT_LABEL$,,AUTO
        27 011310   200432 455500                    STP5    I+4,,AUTO
        27 011311   200432 630500                    EPPR0   I+4,,AUTO
        27 011312   000000 631400 28                 EPPR1   0
        27 011313   000000 701000 xent               TSX1    Z8EK$BRANCH_FALSE
        27 011314   000000 011000                    NOP     0

     2108    33335    3           CALL Z8EY$SUBSTR (LIT$,

  33335 27 011315   200336 630500                    EPPR0   ONE,,AUTO
        27 011316   200430 450500                    STP0    I+2,,AUTO
        27 011317   200246 631500                    EPPR1   REM_CHARS,,AUTO
        27 011320   200431 451500                    STP1    I+3,,AUTO
        27 011321   200256 633500                    EPPR3   SUBSTRING,,AUTO
        27 011322   200432 453500                    STP3    I+4,,AUTO
        27 011323   200432 634500                    EPPR4   I+4,,AUTO
        27 011324   200437 454500                    STP4    I+9,,AUTO
        27 011325   200431 635500                    EPPR5   I+3,,AUTO
        27 011326   200436 455500                    STP5    I+8,,AUTO
        27 011327   200430 636500                    EPPR6   I+2,,AUTO
        27 011330   200435 456500                    STP6    I+7,,AUTO
        27 011331   200204 236100                    LDQ     @LIT$,,AUTO
        27 011332   200434 756100                    STQ     I+6,,AUTO
        27 011333   200434 630500                    EPPR0   I+6,,AUTO
        27 011334   000033 631400 28                 EPPR1   27
        27 011335   000000 701000 xent               TSX1    Z8EY$SUBSTR
        27 011336   000000 011000                    NOP     0

     2109    33336    3                             ADDR(ONE),
     2110    33337    3                             ADDR(REM_CHARS),
     2111    33338    3                             ADDR(SUBSTRING));
     2112    33339
PL6.E3A0      #001=Z8E7$STMT_ASSIGNMENT File=Z8E7.:Z8A6TSI                       SAT 08/09/97 11:35 Page:351
     2113    33340    3           IF ADDR(LOOP_COUNTER) -> LX_ETT_ITEM.ETT$ = ADDR(NIL) THEN

  33340 27 011337   200227 236100                    LDQ     REC_SF,,AUTO
        27 011340   000001 116000 28                 CMPQ    1
        27 011341   011365 601000 27                 TNZ     s:33346

     2114    33341    3             CALL Z8EY$SUBSTR (REC$,

  33341 27 011342   200336 630500                    EPPR0   ONE,,AUTO
        27 011343   200430 450500                    STP0    I+2,,AUTO
        27 011344   200246 631500                    EPPR1   REM_CHARS,,AUTO
        27 011345   200431 451500                    STP1    I+3,,AUTO
        27 011346   200266 633500                    EPPR3   SUBSTRING2,,AUTO
        27 011347   200432 453500                    STP3    I+4,,AUTO
        27 011350   200432 634500                    EPPR4   I+4,,AUTO
        27 011351   200437 454500                    STP4    I+9,,AUTO
        27 011352   200431 635500                    EPPR5   I+3,,AUTO
        27 011353   200436 455500                    STP5    I+8,,AUTO
        27 011354   200430 636500                    EPPR6   I+2,,AUTO
        27 011355   200435 456500                    STP6    I+7,,AUTO
        27 011356   200203 236100                    LDQ     @REC$,,AUTO
        27 011357   200434 756100                    STQ     I+6,,AUTO
        27 011360   200434 630500                    EPPR0   I+6,,AUTO
        27 011361   000033 631400 28                 EPPR1   27
        27 011362   000000 701000 xent               TSX1    Z8EY$SUBSTR
        27 011363   000000 011000                    NOP     0
        27 011364   011407 710000 27                 TRA     s:33351

     2115    33342    3                               ADDR(ONE),
     2116    33343    3                               ADDR(REM_CHARS),
     2117    33344    3                               ADDR(SUBSTRING2));
     2118    33345    3           ELSE
     2119    33346    3             CALL Z8EY$SUBSTR (REC$,

  33346 27 011365   200226 630500                    EPPR0   LOOP_COUNTER,,AUTO
        27 011366   200430 450500                    STP0    I+2,,AUTO
        27 011367   200246 631500                    EPPR1   REM_CHARS,,AUTO
PL6.E3A0      #001=Z8E7$STMT_ASSIGNMENT File=Z8E7.:Z8A6TSI                       SAT 08/09/97 11:35 Page:352
        27 011370   200431 451500                    STP1    I+3,,AUTO
        27 011371   200266 633500                    EPPR3   SUBSTRING2,,AUTO
        27 011372   200432 453500                    STP3    I+4,,AUTO
        27 011373   200432 634500                    EPPR4   I+4,,AUTO
        27 011374   200437 454500                    STP4    I+9,,AUTO
        27 011375   200431 635500                    EPPR5   I+3,,AUTO
        27 011376   200436 455500                    STP5    I+8,,AUTO
        27 011377   200430 636500                    EPPR6   I+2,,AUTO
        27 011400   200435 456500                    STP6    I+7,,AUTO
        27 011401   200203 236100                    LDQ     @REC$,,AUTO
        27 011402   200434 756100                    STQ     I+6,,AUTO
        27 011403   200434 630500                    EPPR0   I+6,,AUTO
        27 011404   000033 631400 28                 EPPR1   27
        27 011405   000000 701000 xent               TSX1    Z8EY$SUBSTR
        27 011406   000000 011000                    NOP     0

     2120    33347    3                               ADDR(LOOP_COUNTER),
     2121    33348    3                               ADDR(REM_CHARS),
     2122    33349    3                               ADDR(SUBSTRING2));
     2123    33350
     2124    33351    3           CALL Z8E7$MOVE (ADDR(SUBSTRING2), ADDR(SUBSTRING));

  33351 27 011407   200266 630500                    EPPR0   SUBSTRING2,,AUTO
        27 011410   200430 450500                    STP0    I+2,,AUTO
        27 011411   200256 631500                    EPPR1   SUBSTRING,,AUTO
        27 011412   200431 451500                    STP1    I+3,,AUTO
        27 011413   200431 633500                    EPPR3   I+3,,AUTO
        27 011414   200433 453500                    STP3    I+5,,AUTO
        27 011415   200430 634500                    EPPR4   I+2,,AUTO
        27 011416   200432 454500                    STP4    I+4,,AUTO
        27 011417   200432 630500                    EPPR0   I+4,,AUTO
        27 011420   000000 631400 28                 EPPR1   0
        27 011421   012400 701000 27                 TSX1    s:34887
        27 011422   000000 011000                    NOP     0

     2125    33352
     2126    33353                %NEW_ILL (@ID = %DEFLB,
PL6.E3A0      #001=Z8E7$STMT_ASSIGNMENT File=Z8E7.:Z8A6TSI                       SAT 08/09/97 11:35 Page:353
     2127    33354                          @LABEL$ = EXIT_LABEL$);

  33686 27 011423   000036 236000 28                 LDQ     30
        27 011424   200430 756100                    STQ     I+2,,AUTO
        27 011425   200430 630500                    EPPR0   I+2,,AUTO
        27 011426   200435 450500                    STP0    I+7,,AUTO
        27 011427   000037 236000 28                 LDQ     31
        27 011430   200434 756100                    STQ     I+6,,AUTO
        27 011431   000126 237000 28                 LDAQ    86
        27 011432   200432 757100                    STAQ    I+4,,AUTO
        27 011433   200432 630500                    EPPR0   I+4,,AUTO
        27 011434   000033 631400 28                 EPPR1   27
        27 011435   000000 701000 xent               TSX1    Z8AN$NEW_ILL
        27 011436   000000 011000                    NOP     0

  33687 27 011437   200205 236100                    LDQ     EXIT_LABEL$,,AUTO
        27 011440   000000 470400 6                  LDP0    ILL$
        27 011441   000001 756100                    STQ     1,,PR0

     2128    33733    3         END;

     2129    33734
     2130    33735
     2131    33736    2       IF ADDR(LOOP_COUNTER) -> LX_ETT_ITEM.ETT$ ~= ADDR(NIL) THEN

  33736 27 011442   200227 236100                    LDQ     REC_SF,,AUTO
        27 011443   000001 116000 28                 CMPQ    1
        27 011444   011453 600000 27                 TZE     s:33746

     2132    33737    2         CALL Z8EU$DISPOSE_TEMP (ADDR(LOOP_COUNTER) -> LX_ETT_ITEM.ETT$);

  33737 27 011445   200227 630500                    EPPR0   REC_SF,,AUTO
        27 011446   200430 450500                    STP0    I+2,,AUTO
        27 011447   200430 630500                    EPPR0   I+2,,AUTO
        27 011450   000103 631400 28                 EPPR1   67
        27 011451   000000 701000 xent               TSX1    Z8EU$DISPOSE_TEMP
        27 011452   000000 011000                    NOP     0
PL6.E3A0      #001=Z8E7$STMT_ASSIGNMENT File=Z8E7.:Z8A6TSI                       SAT 08/09/97 11:35 Page:354

     2133    33738
     2134    33739            %APPEND_ILS_LIST (@FROM$ = "ADDR(O1COM.ILS_LIST)",
     2135    33740                              @TO$   = "ADDR(SAVED_ILS_LIST)");

  33746 27 011453   000017 236000 xsym               LDQ     O1COM+15
        27 011454   000001 116000 28                 CMPQ    1
        27 011455   011471 600000 27                 TZE     s:33758

  33747 27 011456   200347 236100                    LDQ     SAVED_ILS_LIST+1,,AUTO
        27 011457   000001 116000 28                 CMPQ    1
        27 011460   011464 601000 27                 TNZ     s:33751

  33748 27 011461   000017 236000 xsym               LDQ     O1COM+15
        27 011462   200347 756100                    STQ     SAVED_ILS_LIST+1,,AUTO

  33749 27 011463   011467 710000 27                 TRA     s:33753

  33751 27 011464   000017 236000 xsym               LDQ     O1COM+15
        27 011465   200350 470500                    LDP0    SAVED_ILS_LIST+2,,AUTO
        27 011466   000002 756100                    STQ     2,,PR0

  33753 27 011467   000020 236000 xsym               LDQ     O1COM+16
        27 011470   200350 756100                    STQ     SAVED_ILS_LIST+2,,AUTO

     2136    33757
     2137    33758    2       O1COM.ILS_LIST = ADDR(SAVED_ILS_LIST) -> ILS_LIST;

  33758 27 011471   000000 100500                    MLR     fill='000'O
        27 011472   200346 000040                    ADSC9   SAVED_ILS_LIST,,AUTO     cn=0,n=32
        27 011473   000016 000040 xsym               ADSC9   O1COM+14                 cn=0,n=32

     2138    33759
     2139    33760    2   END MOVE_ALL;

  33760 27 011474   200202 221300                    LDX1  ! @LABEL$,,AUTO
        27 011475   000001 702211                    TSX2  ! 1,X1
PL6.E3A0      #001=Z8E7$STMT_ASSIGNMENT File=Z8E7.:Z8A6TSI                       SAT 08/09/97 11:35 Page:355

     2140    33761        %EJECT;
PL6.E3A0      #001=Z8E7$STMT_ASSIGNMENT File=Z8E7.:Z8A6TSI                       SAT 08/09/97 11:35 Page:356
     2141    33762        /*=============*/
     2142    33763    1     MOVE_ALL_OPTZ: PROC (LOP$$, ROP$$);

  33763 27 011476   200214 741300       MOVE_ALL_OP* STX1  ! DESC_BLK+1,,AUTO

     2143    33764        /*=============*/
     2144    33765
     2145    33766    2        DCL LOP$$         PTR;
     2146    33767    2        DCL ROP$$         PTR;
     2147    33768    2        DCL LOP_LENGTH$   PTR;
     2148    33769    2        DCL LIT_LENGTH$   PTR;
     2149    33770
     2150    33771    2        DCL CONST_BUF     CHAR (%MAX_BUF_LEN);
     2151    33772
     2152    33773    2        DCL REM_CHARS     SBIN;
     2153    33774    2        DCL LEN_STR       SBIN;
     2154    33775    2        DCL LEN_LIT       SBIN;
     2155    33776    2        DCL ADDR_LIT$     PTR;
     2156    33777    2        DCL BASED_LIT     CHAR (LEN_LIT) BASED (ADDR_LIT$);
     2157    33778    2        DCL DIFF_LEN      SBIN;
     2158    33779    2        DCL I             SBIN;
     2159    33780
     2160    33781
     2161    33782    2        I = 0;

  33782 27 011477   200426 450100                    STZ     I,,AUTO

     2162    33783
     2163    33784    2        CALL Z8AU$LENGTH_ETT (LOP$$ -> LX_ETT_ITEM.ETT$, LOP_LENGTH$);

  33784 27 011500   200215 470500                    LDP0    @LOP$$,,AUTO
        27 011501   000000 471500                    LDP1    0,,PR0
        27 011502   200217 633500                    EPPR3   LOP_LENGTH$,,AUTO
        27 011503   200431 453500                    STP3    I+3,,AUTO
        27 011504   100001 634500                    EPPR4   1,,PR1
        27 011505   200430 454500                    STP4    I+2,,AUTO
        27 011506   200430 630500                    EPPR0   I+2,,AUTO
PL6.E3A0      #001=Z8E7$STMT_ASSIGNMENT File=Z8E7.:Z8A6TSI                       SAT 08/09/97 11:35 Page:357
        27 011507   000000 631400 28                 EPPR1   0
        27 011510   000000 701000 xent               TSX1    Z8AU$LENGTH_ETT
        27 011511   000000 011000                    NOP     0

     2164    33785    2        CALL Z8AU$LENGTH_ETT (ROP$$ -> LX_ETT_ITEM.ETT$, LIT_LENGTH$);

  33785 27 011512   200216 470500                    LDP0    @ROP$$,,AUTO
        27 011513   000000 471500                    LDP1    0,,PR0
        27 011514   200220 633500                    EPPR3   LIT_LENGTH$,,AUTO
        27 011515   200431 453500                    STP3    I+3,,AUTO
        27 011516   100001 634500                    EPPR4   1,,PR1
        27 011517   200430 454500                    STP4    I+2,,AUTO
        27 011520   200430 630500                    EPPR0   I+2,,AUTO
        27 011521   000000 631400 28                 EPPR1   0
        27 011522   000000 701000 xent               TSX1    Z8AU$LENGTH_ETT
        27 011523   000000 011000                    NOP     0

     2165    33786
     2166    33787    2        LEN_STR = LOP_LENGTH$ ->  ETT.LOP -> CONST.CONSTI.WORD1;

  33787 27 011524   200217 470500                    LDP0    LOP_LENGTH$,,AUTO
        27 011525   000001 471500                    LDP1    1,,PR0
        27 011526   100010 235100                    LDA     8,,PR1
        27 011527   200422 755100                    STA     LEN_STR,,AUTO

     2167    33788    2        LEN_LIT = LIT_LENGTH$ ->  ETT.LOP -> CONST.CONSTI.WORD1;

  33788 27 011530   200220 471500                    LDP1    LIT_LENGTH$,,AUTO
        27 011531   100001 473500                    LDP3    1,,PR1
        27 011532   300010 235100                    LDA     8,,PR3
        27 011533   200423 755100                    STA     LEN_LIT,,AUTO

     2168    33789
     2169    33790    2        DIFF_LEN  = LEN_STR - LEN_LIT;

  33790 27 011534   200422 236100                    LDQ     LEN_STR,,AUTO
        27 011535   200423 136100                    SBLQ    LEN_LIT,,AUTO
PL6.E3A0      #001=Z8E7$STMT_ASSIGNMENT File=Z8E7.:Z8A6TSI                       SAT 08/09/97 11:35 Page:358
        27 011536   200425 756100                    STQ     DIFF_LEN,,AUTO

     2170    33791
     2171    33792             %GET_CONSTANT_ADDRESS (@CONSTANT = ROP$$ -> LX_ETT_ITEM.ETT$ -> ETT.LOP,
     2172    33793                                    @STRING   = ADDR_LIT$);

  33795 27 011537   200216 474500                    LDP4    @ROP$$,,AUTO
        27 011540   400000 475500                    LDP5    0,,PR4
        27 011541   500001 476500                    LDP6    1,,PR5
        27 011542   600001 477500                    LDP7    1,,PR6
        27 011543   700003 234100                    SZN     3,,PR7
        27 011544   011551 605000 27                 TPL     s:33798

  33796 27 011545   700010 470500                    LDP0    8,,PR7
        27 011546   000001 631500                    EPPR1   1,,PR0
        27 011547   200424 451500                    STP1    ADDR_LIT$,,AUTO
        27 011550   011553 710000 27                 TRA     s:33802

  33798 27 011551   700010 630500                    EPPR0   8,,PR7
        27 011552   200424 450500                    STP0    ADDR_LIT$,,AUTO

     2173    33801
     2174    33802    3        DO I = 0 TO DIFF_LEN BY LEN_LIT;

  33802 27 011553   200426 450100                    STZ     I,,AUTO
        27 011554   011566 710000 27                 TRA     s:33804+3

     2175    33803    3          SUBSTR (CONST_BUF, I, LEN_LIT) = BASED_LIT;

  33803 27 011555   200424 470500                    LDP0    ADDR_LIT$,,AUTO
        27 011556   200423 720100                    LXL0    LEN_LIT,,AUTO
        27 011557   200426 235100                    LDA     I,,AUTO
        27 011560   040145 100540                    MLR     fill='040'O
        27 011561   000000 000010                    ADSC9   0,,PR0                   cn=0,n=*X0
        27 011562   200221 000010                    ADSC9   CONST_BUF,A,AUTO         cn=0,n=*X0

     2176    33804    3        END;
PL6.E3A0      #001=Z8E7$STMT_ASSIGNMENT File=Z8E7.:Z8A6TSI                       SAT 08/09/97 11:35 Page:359

  33804 27 011563   200423 236100                    LDQ     LEN_LIT,,AUTO
        27 011564   200426 036100                    ADLQ    I,,AUTO
        27 011565   200426 756100                    STQ     I,,AUTO
        27 011566   200426 236100                    LDQ     I,,AUTO
        27 011567   200425 116100                    CMPQ    DIFF_LEN,,AUTO
        27 011570   011555 604400 27                 TMOZ    s:33803

     2177    33805
     2178    33806    2        REM_CHARS = LEN_STR - I;

  33806 27 011571   200422 236100                    LDQ     LEN_STR,,AUTO
        27 011572   200426 136100                    SBLQ    I,,AUTO
        27 011573   200421 756100                    STQ     REM_CHARS,,AUTO

     2179    33807    2        IF REM_CHARS > 0 THEN

  33807 27 011574   011604 604400 27                 TMOZ    s:33810

     2180    33808    2          SUBSTR (CONST_BUF, I, REM_CHARS) = SUBSTR (BASED_LIT, 0, REM_CHARS);

  33808 27 011575   200424 470500                    LDP0    ADDR_LIT$,,AUTO
        27 011576   000000 620006                    EAX0    0,QL
        27 011577   200421 721100                    LXL1    REM_CHARS,,AUTO
        27 011600   200426 235100                    LDA     I,,AUTO
        27 011601   040145 100540                    MLR     fill='040'O
        27 011602   000000 000010                    ADSC9   0,,PR0                   cn=0,n=*X0
        27 011603   200221 000011                    ADSC9   CONST_BUF,A,AUTO         cn=0,n=*X1

     2181    33809
     2182    33810    2        CALL Z8AC$MAKE_TYA_CONST (CONST_BUF,

  33810 27 011604   200216 470500                    LDP0    @ROP$$,,AUTO
        27 011605   000000 471500                    LDP1    0,,PR0
        27 011606   100001 633500                    EPPR3   1,,PR1
        27 011607   200433 453500                    STP3    I+5,,AUTO
        27 011610   000040 236000 28                 LDQ     32
PL6.E3A0      #001=Z8E7$STMT_ASSIGNMENT File=Z8E7.:Z8A6TSI                       SAT 08/09/97 11:35 Page:360
        27 011611   200432 756100                    STQ     I+4,,AUTO
        27 011612   200422 631500                    EPPR1   LEN_STR,,AUTO
        27 011613   200431 451500                    STP1    I+3,,AUTO
        27 011614   200221 634500                    EPPR4   CONST_BUF,,AUTO
        27 011615   200430 454500                    STP4    I+2,,AUTO
        27 011616   200430 630500                    EPPR0   I+2,,AUTO
        27 011617   000033 631400 28                 EPPR1   27
        27 011620   000000 701000 xent               TSX1    Z8AC$MAKE_TYA_CONST
        27 011621   000000 011000                    NOP     0

     2183    33811    2                                  LEN_STR,
     2184    33812    2                                  0,
     2185    33813    2                                  ROP$$ -> LX_ETT_ITEM.ETT$);
     2186    33814
     2187    33815    2        ROP$$ -> LX_ETT_ITEM.B.ALL = FALSE;

  33815 27 011622   200216 470500                    LDP0    @ROP$$,,AUTO
        27 011623   000000 471500                    LDP1    0,,PR0
        27 011624   000111 236000 28                 LDQ     73
        27 011625   100000 356100                    ANSQ    0,,PR1

     2188    33816
     2189    33817             %NEW_ILL ( @ID = %MVAN,
     2190    33818                        @LOP = LOP$$ -> LX_ETT_ITEM.ETT$,
     2191    33819                        @ROP = ROP$$ -> LX_ETT_ITEM.ETT$);

  34132 27 011626   200215 471500                    LDP1    @LOP$$,,AUTO
        27 011627   100000 473500                    LDP3    0,,PR1
        27 011630   000036 236000 28                 LDQ     30
        27 011631   200430 756100                    STQ     I+2,,AUTO
        27 011632   300001 634500                    EPPR4   1,,PR3
        27 011633   200435 454500                    STP4    I+7,,AUTO
        27 011634   200430 633500                    EPPR3   I+2,,AUTO
        27 011635   200434 453500                    STP3    I+6,,AUTO
        27 011636   000054 237000 28                 LDAQ    44
        27 011637   200432 757100                    STAQ    I+4,,AUTO
        27 011640   000052 236000 28                 LDQ     42
PL6.E3A0      #001=Z8E7$STMT_ASSIGNMENT File=Z8E7.:Z8A6TSI                       SAT 08/09/97 11:35 Page:361
        27 011641   200431 756100                    STQ     I+3,,AUTO
        27 011642   200431 630500                    EPPR0   I+3,,AUTO
        27 011643   000042 631400 28                 EPPR1   34
        27 011644   000000 701000 xent               TSX1    Z8AN$NEW_ILL1
        27 011645   000000 011000                    NOP     0

  34135 27 011646   200215 470500                    LDP0    @LOP$$,,AUTO
        27 011647   000000 471500                    LDP1    0,,PR0
        27 011650   100001 236100                    LDQ     1,,PR1
        27 011651   000000 473400 6                  LDP3    ILL$
        27 011652   300001 756100                    STQ     1,,PR3

  34136 27 011653   200216 471500                    LDP1    @ROP$$,,AUTO
        27 011654   100000 474500                    LDP4    0,,PR1
        27 011655   400001 236100                    LDQ     1,,PR4
        27 011656   300002 756100                    STQ     2,,PR3

     2192    34198
     2193    34199    2   END MOVE_ALL_OPTZ;

  34199 27 011657   200214 221300                    LDX1  ! DESC_BLK+1,,AUTO
        27 011660   000001 702211                    TSX2  ! 1,X1

     2194    34200        %EJECT;
PL6.E3A0      #001=Z8E7$STMT_ASSIGNMENT File=Z8E7.:Z8A6TSI                       SAT 08/09/97 11:35 Page:362
     2195    34201        /*============*/
     2196    34202    1     MOVE_ALL_NUM: PROC (LOP$$, ROP$$, ID);

  34202 27 011661   200202 741300       MOVE_ALL_NUM STX1  ! @LABEL$,,AUTO

     2197    34203        /*============*/
     2198    34204
     2199    34205    2        DCL LOP$$         PTR;
     2200    34206    2        DCL ROP$$         PTR;
     2201    34207    2        DCL ID            SBIN;
     2202    34208    2        DCL CONST_BUF     CHAR (63);
     2203    34209    2        DCL LIT_LENGTH$   PTR;
     2204    34210    2        DCL LEN_STR       SBIN;
     2205    34211    2        DCL LEN_LIT       SBIN;
     2206    34212    2        DCL ADDR_LIT$     PTR;
     2207    34213    2        DCL BASED$LIT     CHAR (LEN_LIT) BASED (ADDR_LIT$);
     2208    34214    2        DCL 1 LOP_DESC,
     2209    34215                   %TYPE_DESC;
     2210    34249    2        DCL 1 CONST_DESC,
     2211    34250                   %TYPE_DESC;
     2212    34284             %DCL_AUTO_LX_ITEM(@NAME = NUM_CONST);
     2213    34288    2        DCL Z8AH$SEARCH_ ENTRY;
     2214    34289    2        DCL I             SBIN;
     2215    34290    2        DCL ZERO_BYTE CHAR (1) CONSTANT INIT ('0');
     2216    34291
     2217    34292    2        CALL Z8AU$TYPE_DESCRIPTOR (LOP$$ -> LX_ETT_ITEM.ETT$, LOP_DESC);

  34292 27 011662   200203 470500                    LDP0    @LOP$$,,AUTO
        27 011663   000000 471500                    LDP1    0,,PR0
        27 011664   200232 633500                    EPPR3   LOP_DESC,,AUTO
        27 011665   200431 453500                    STP3    I+3,,AUTO
        27 011666   100001 634500                    EPPR4   1,,PR1
        27 011667   200430 454500                    STP4    I+2,,AUTO
        27 011670   200430 630500                    EPPR0   I+2,,AUTO
        27 011671   000000 631400 28                 EPPR1   0
        27 011672   000000 701000 xent               TSX1    Z8AU$TYPE_DESCRIPTOR
        27 011673   000000 011000                    NOP     0
PL6.E3A0      #001=Z8E7$STMT_ASSIGNMENT File=Z8E7.:Z8A6TSI                       SAT 08/09/97 11:35 Page:363

     2218    34293    2        CALL Z8AU$LENGTH_ETT (ROP$$ -> LX_ETT_ITEM.ETT$, LIT_LENGTH$);

  34293 27 011674   200204 470500                    LDP0    @ROP$$,,AUTO
        27 011675   000000 471500                    LDP1    0,,PR0
        27 011676   200226 633500                    EPPR3   LIT_LENGTH$,,AUTO
        27 011677   200431 453500                    STP3    I+3,,AUTO
        27 011700   100001 634500                    EPPR4   1,,PR1
        27 011701   200430 454500                    STP4    I+2,,AUTO
        27 011702   200430 630500                    EPPR0   I+2,,AUTO
        27 011703   000000 631400 28                 EPPR1   0
        27 011704   000000 701000 xent               TSX1    Z8AU$LENGTH_ETT
        27 011705   000000 011000                    NOP     0

     2219    34294
     2220    34295    2        LEN_LIT = LIT_LENGTH$ -> ETT.LOP -> CONST.CONSTI.WORD1;

  34295 27 011706   200226 470500                    LDP0    LIT_LENGTH$,,AUTO
        27 011707   000001 471500                    LDP1    1,,PR0
        27 011710   100010 235100                    LDA     8,,PR1
        27 011711   200230 755100                    STA     LEN_LIT,,AUTO

     2221    34296    2        LEN_STR = LOP_DESC.DESC.NDSC.N;

  34296 27 011712   200233 236100                    LDQ     REC_RIGHT,,AUTO
        27 011713   000077 376007                    ANQ     63,DL
        27 011714   200227 756100                    STQ     LEN_STR,,AUTO

     2222    34297    2        IF ID = %MVDD OR /* Adjust for separate sign position */

  34297 27 011715   200205 473500                    LDP3    @ID,,AUTO
        27 011716   300000 235100                    LDA     0,,PR3
        27 011717   000243 115007                    CMPA    163,DL
        27 011720   011726 600000 27                 TZE     s:34299
        27 011721   000423 115007                    CMPA    275,DL
        27 011722   011740 601000 27                 TNZ     s:34303
        27 011723   200233 236100                    LDQ     REC_RIGHT,,AUTO
PL6.E3A0      #001=Z8E7$STMT_ASSIGNMENT File=Z8E7.:Z8A6TSI                       SAT 08/09/97 11:35 Page:364
        27 011724   040000 316007                    CANQ    16384,DL
        27 011725   011740 601000 27                 TNZ     s:34303

     2223    34298    2            (ID = %MVOO AND LOP_DESC.DESC.NDSC.TN = %NDSC9 /* Not overpunched */) THEN
     2224    34299    2          IF LOP_DESC.DESC.NDSC.S = %LEADING_SIGN

  34299 27 011726   200233 236100                    LDQ     REC_RIGHT,,AUTO
        27 011727   030000 376007                    ANQ     12288,DL
        27 011730   010000 116007                    CMPQ    4096,DL
        27 011731   011736 600000 27                 TZE     s:34301
        27 011732   200233 236100                    LDQ     REC_RIGHT,,AUTO
        27 011733   030000 376007                    ANQ     12288,DL
        27 011734   020000 116007                    CMPQ    8192,DL
        27 011735   011740 601000 27                 TNZ     s:34303

     2225    34300    2              OR LOP_DESC.DESC.NDSC.S = %TRAILING_SIGN
     2226    34301    2            THEN LEN_STR = LEN_STR - 1;

  34301 27 011736   000001 336007                    LCQ     1,DL
        27 011737   200227 056100                    ASQ     LEN_STR,,AUTO

     2227    34302
     2228    34303    2        IF ROP$$ -> LX_ITEM.SYMBOL = %RSV_WRD_ZEROES THEN

  34303 27 011740   200204 474500                    LDP4    @ROP$$,,AUTO
        27 011741   400000 475500                    LDP5    0,,PR4
        27 011742   500003 235100                    LDA     3,,PR5
        27 011743   000761 115007                    CMPA    497,DL
        27 011744   011750 601000 27                 TNZ     s:34309

     2229    34304    2          ADDR_LIT$ = ADDR (ZERO_BYTE);

  34304 27 011745   000125 236000 28                 LDQ     85
        27 011746   200231 756100                    STQ     ADDR_LIT$,,AUTO
        27 011747   011762 710000 27                 TRA     s:34316

     2230    34305    2        ELSE
PL6.E3A0      #001=Z8E7$STMT_ASSIGNMENT File=Z8E7.:Z8A6TSI                       SAT 08/09/97 11:35 Page:365
     2231    34306               %GET_CONSTANT_ADDRESS (@CONSTANT = ROP$$ -> LX_ETT_ITEM.ETT$ -> ETT.LOP,
     2232    34307                                      @STRING   = ADDR_LIT$);

  34309 27 011750   500001 476500                    LDP6    1,,PR5
        27 011751   600001 477500                    LDP7    1,,PR6
        27 011752   700003 234100                    SZN     3,,PR7
        27 011753   011760 605000 27                 TPL     s:34312

  34310 27 011754   700010 470500                    LDP0    8,,PR7
        27 011755   000001 631500                    EPPR1   1,,PR0
        27 011756   200231 451500                    STP1    ADDR_LIT$,,AUTO
        27 011757   011762 710000 27                 TRA     s:34316

  34312 27 011760   700010 630500                    EPPR0   8,,PR7
        27 011761   200231 450500                    STP0    ADDR_LIT$,,AUTO

     2233    34315
     2234    34316    2        I = MOD (LEN_STR, LEN_LIT);

  34316 27 011762   200227 236100                    LDQ     LEN_STR,,AUTO
        27 011763   200230 506100                    DIV     LEN_LIT,,AUTO
        27 011764   200252 755100                    STA     I,,AUTO

     2235    34317    2        IF I > 0 THEN

  34317 27 011765   000000 115003                    CMPA    0,DU
        27 011766   012004 604400 27                 TMOZ    s:34319

     2236    34318    2          CALL INSERT (CONST_BUF, 0, I, SUBSTR (BASED$LIT, LEN_LIT - I));

  34318 27 011767   200230 236100                    LDQ     LEN_LIT,,AUTO
        27 011770   200252 136100                    SBLQ    I,,AUTO
        27 011771   200430 756100                    STQ     I+2,,AUTO
        27 011772   200431 756100                    STQ     I+3,,AUTO
        27 011773   200230 236100                    LDQ     LEN_LIT,,AUTO
        27 011774   200430 136100                    SBLQ    I+2,,AUTO
        27 011775   200231 470500                    LDP0    ADDR_LIT$,,AUTO
PL6.E3A0      #001=Z8E7$STMT_ASSIGNMENT File=Z8E7.:Z8A6TSI                       SAT 08/09/97 11:35 Page:366
        27 011776   000000 620006                    EAX0    0,QL
        27 011777   200431 236100                    LDQ     I+3,,AUTO
        27 012000   000000 621005                    EAX1    0,AL
        27 012001   040140 100546                    MLR     fill='040'O
        27 012002   000000 000010                    ADSC9   0,Q,PR0                  cn=0,n=*X0
        27 012003   200206 000011                    ADSC9   CONST_BUF,,AUTO          cn=0,n=*X1

     2237    34319    3        DO WHILE I < LEN_STR;

  34319 27 012004   200252 236100                    LDQ     I,,AUTO
        27 012005   200227 116100                    CMPQ    LEN_STR,,AUTO
        27 012006   012022 605000 27                 TPL     s:34323

     2238    34320    3          CALL INSERT (CONST_BUF, I, LEN_LIT, BASED$LIT);

  34320 27 012007   200231 470500                    LDP0    ADDR_LIT$,,AUTO
        27 012010   200230 720100                    LXL0    LEN_LIT,,AUTO
        27 012011   200252 235100                    LDA     I,,AUTO
        27 012012   040145 100540                    MLR     fill='040'O
        27 012013   000000 000010                    ADSC9   0,,PR0                   cn=0,n=*X0
        27 012014   200206 000010                    ADSC9   CONST_BUF,A,AUTO         cn=0,n=*X0

     2239    34321    3          I = I + LEN_LIT;

  34321 27 012015   200252 236100                    LDQ     I,,AUTO
        27 012016   200230 036100                    ADLQ    LEN_LIT,,AUTO
        27 012017   200252 756100                    STQ     I,,AUTO

     2240    34322    3        END;

  34322 27 012020   200227 116100                    CMPQ    LEN_STR,,AUTO
        27 012021   012007 604000 27                 TMI     s:34320

     2241    34323    2        CONST_DESC.DESC.NDSC.N = LEN_STR + 1;

  34323 27 012022   200227 236100                    LDQ     LEN_STR,,AUTO
        27 012023   000001 036007                    ADLQ    1,DL
PL6.E3A0      #001=Z8E7$STMT_ASSIGNMENT File=Z8E7.:Z8A6TSI                       SAT 08/09/97 11:35 Page:367
        27 012024   200237 752101                    STCQ    @ST$$,'01'O,AUTO

     2242    34324    2        CONST_DESC.DESC.NDSC.SF = 0;

  34324 27 012025   000000 236003                    LDQ     0,DU
        27 012026   200237 752102                    STCQ    @ST$$,'02'O,AUTO

     2243    34325    2        IF LOP_DESC.DESC.NDSC.SF < 0 THEN /* Zero out fractional digits */

  34325 27 012027   200233 236100                    LDQ     REC_RIGHT,,AUTO
        27 012030   000030 736000                    QLS     24
        27 012031   000036 732000                    QRS     30
        27 012032   000000 116003                    CMPQ    0,DU
        27 012033   012047 605000 27                 TPL     s:34335

     2244    34326    3          DO;

     2245    34327    3            LEN_STR = LEN_STR + LOP_DESC.DESC.NDSC.SF;

  34327 27 012034   200227 036100                    ADLQ    LEN_STR,,AUTO
        27 012035   200227 756100                    STQ     LEN_STR,,AUTO

     2246    34328    3            IF LEN_STR <= 0 THEN

  34328 27 012036   012043 605400 27                 TPNZ    s:34333

     2247    34329    4              DO;

     2248    34330    4                LEN_STR = 1;

  34330 27 012037   000001 235007                    LDA     1,DL
        27 012040   200227 755100                    STA     LEN_STR,,AUTO

     2249    34331    4                CALL INSERT (CONST_BUF, 0, 1, '0');

  34331 27 012041   060000 236003                    LDQ     24576,DU
        27 012042   200206 552140                    STBQ    CONST_BUF,'40'O,AUTO
PL6.E3A0      #001=Z8E7$STMT_ASSIGNMENT File=Z8E7.:Z8A6TSI                       SAT 08/09/97 11:35 Page:368

     2250    34332    4              END;

     2251    34333    3            CONST_DESC.DESC.NDSC.N = LEN_STR + 1;

  34333 27 012043   200227 236100                    LDQ     LEN_STR,,AUTO
        27 012044   000001 036007                    ADLQ    1,DL
        27 012045   200237 752101                    STCQ    @ST$$,'01'O,AUTO

     2252    34334    3          END;

  34334 27 012046   012072 710000 27                 TRA     s:34341

     2253    34335    2        ELSE IF LOP_DESC.DESC.NDSC.SF > 0 THEN /* Apply positive scale factor */

  34335 27 012047   012072 604400 27                 TMOZ    s:34341

     2254    34336    3           DO;

     2255    34337    3            CONST_DESC.DESC.NDSC.SF = LOP_DESC.DESC.NDSC.SF;

  34337 27 012050   200233 236100                    LDQ     REC_RIGHT,,AUTO
        27 012051   200237 752102                    STCQ    @ST$$,'02'O,AUTO

     2256    34338    3            CALL BINCHAR (SUBSTR (CONST_BUF, LEN_STR, LOP_DESC.DESC.NDSC.SF), 0);

  34338 27 012052   200233 236100                    LDQ     REC_RIGHT,,AUTO
        27 012053   000030 736000                    QLS     24
        27 012054   000036 732000                    QRS     30
        27 012055   000000 235003                    LDA     0,DU
        27 012056   000000 620006                    EAX0    0,QL
        27 012057   000044 773000                    LRL     36
        27 012060   200430 757100                    STAQ    I+2,,AUTO
        27 012061   200227 235100                    LDA     LEN_STR,,AUTO
        27 012062   000145 301500                    BTD
        27 012063   200430 000010                    NDSC9   I+2,,AUTO                cn=0,s=lsgnf,sf=0,n=8
        27 012064   200206 030010                    NDSC9   CONST_BUF,A,AUTO         cn=0,s=nosgn,sf=0,n=*X0
PL6.E3A0      #001=Z8E7$STMT_ASSIGNMENT File=Z8E7.:Z8A6TSI                       SAT 08/09/97 11:35 Page:369

     2257    34339    3            LEN_STR = LEN_STR + LOP_DESC.DESC.NDSC.SF;

  34339 27 012065   200233 236100                    LDQ     REC_RIGHT,,AUTO
        27 012066   000030 736000                    QLS     24
        27 012067   000036 732000                    QRS     30
        27 012070   200227 036100                    ADLQ    LEN_STR,,AUTO
        27 012071   200227 756100                    STQ     LEN_STR,,AUTO

     2258    34340    3          END;

     2259    34341    2        LEX_SYMBOL.SIZE = LEN_STR;

  34341 27 012072   200227 235100                    LDA     LEN_STR,,AUTO
        27 012073   000010 755000 1                  STA     LEX_SYMBOL+8

     2260    34342    2        LEX_SYMBOL.SYMBOL = CONST_BUF;

  34342 27 012074   040000 100500                    MLR     fill='040'O
        27 012075   200206 000077                    ADSC9   CONST_BUF,,AUTO          cn=0,n=63
        27 012076   000011 000504 1                  ADSC9   LEX_SYMBOL+9             cn=0,n=324

     2261    34343    2        CALL Z8AH$SEARCH_;

  34343 27 012077   000034 631400 28                 EPPR1   28
        27 012100   000000 701000 xent               TSX1    Z8AH$SEARCH_
        27 012101   000000 011000                    NOP     0

     2262    34344             %INIT_LX_TERMINAL (@POINTER = "ADDR(NUM_CONST)",
     2263    34345                                @TYPE    = %TYD,
     2264    34346                                @SYMBOL  = %NUMERIC_LITERAL,
     2265    34347                                @DNT$    = DNT$);

  34349 27 012102   000000 220003                    LDX0    0,DU
        27 012103   200242 740100                    STX0    NUM_CONST,,AUTO

  34350 27 012104   000000 221003                    LDX1    0,DU
PL6.E3A0      #001=Z8E7$STMT_ASSIGNMENT File=Z8E7.:Z8A6TSI                       SAT 08/09/97 11:35 Page:370
        27 012105   200242 441100                    SXL1    NUM_CONST,,AUTO

  34354 27 012106   200246 450100                    STZ     REM_CHARS,,AUTO

  34356 27 012107   000001 236000 28                 LDQ     1
        27 012110   200251 756100                    STQ     DESC+1,,AUTO

  34358 27 012111   200243 756100                    STQ     NUM_CONST+1,,AUTO

  34359 27 012112   000026 235007                    LDA     22,DL
        27 012113   200245 755100                    STA     NUM_CONST+3,,AUTO

  34360 27 012114   000000 236000 14                 LDQ     DNT$
        27 012115   200244 756100                    STQ     NUM_CONST+2,,AUTO

  34361 27 012116   000133 235000 xsym               LDA     COMCOM+91
        27 012117   200247 755100                    STA     REM_CHARS+1,,AUTO

  34362 27 012120   000134 235000 xsym               LDA     COMCOM+92
        27 012121   200250 755100                    STA     DESC,,AUTO

     2266    34365    2        CONST_DESC.TYPE = %TYD;

  34365 27 012122   200236 450100                    STZ     CONST_DESC,,AUTO

     2267    34366    2        CONST_DESC.DESC.NDSC.TN = %NDSC4;

  34366 27 012123   040000 236007                    LDQ     16384,DL
        27 012124   200237 256100                    ORSQ    @ST$$,,AUTO

     2268    34367    2        CONST_DESC.DESC.NDSC.S = %LEADING_SIGN;

  34367 27 012125   200237 236100                    LDQ     @ST$$,,AUTO
        27 012126   000130 376000 28                 ANQ     88
        27 012127   010000 276007                    ORQ     4096,DL
        27 012130   200237 756100                    STQ     @ST$$,,AUTO

PL6.E3A0      #001=Z8E7$STMT_ASSIGNMENT File=Z8E7.:Z8A6TSI                       SAT 08/09/97 11:35 Page:371
     2269    34368    2        CALL Z8EC$NEW_CONST_WITH_TYPE_DESC (CONST_DESC,

  34368 27 012131   200204 470500                    LDP0    @ROP$$,,AUTO
        27 012132   000000 471500                    LDP1    0,,PR0
        27 012133   200242 633500                    EPPR3   NUM_CONST,,AUTO
        27 012134   200430 453500                    STP3    I+2,,AUTO
        27 012135   100001 634500                    EPPR4   1,,PR1
        27 012136   200433 454500                    STP4    I+5,,AUTO
        27 012137   200430 631500                    EPPR1   I+2,,AUTO
        27 012140   200432 451500                    STP1    I+4,,AUTO
        27 012141   200236 635500                    EPPR5   CONST_DESC,,AUTO
        27 012142   200431 455500                    STP5    I+3,,AUTO
        27 012143   200431 630500                    EPPR0   I+3,,AUTO
        27 012144   000016 631400 28                 EPPR1   14
        27 012145   000000 701000 xent               TSX1    Z8EC$NEW_CONST_WITH_TYPE_DESC
        27 012146   000000 011000                    NOP     0

     2270    34369    2                                            ADDR (NUM_CONST),
     2271    34370    2                                            ROP$$ -> LX_ETT_ITEM.ETT$);
     2272    34371    2        ROP$$ -> LX_ETT_ITEM.B.ALL = FALSE;

  34371 27 012147   200204 470500                    LDP0    @ROP$$,,AUTO
        27 012150   000000 471500                    LDP1    0,,PR0
        27 012151   000111 236000 28                 LDQ     73
        27 012152   100000 356100                    ANSQ    0,,PR1

     2273    34372             %NEW_ILL (@ID = ID,
     2274    34373                       @LOP = LOP$$ -> LX_ETT_ITEM.ETT$,
     2275    34374                       @ROP = ROP$$ -> LX_ETT_ITEM.ETT$);

  34687 27 012153   200203 471500                    LDP1    @LOP$$,,AUTO
        27 012154   100000 473500                    LDP3    0,,PR1
        27 012155   000036 236000 28                 LDQ     30
        27 012156   200430 756100                    STQ     I+2,,AUTO
        27 012157   300001 634500                    EPPR4   1,,PR3
        27 012160   200435 454500                    STP4    I+7,,AUTO
        27 012161   200430 633500                    EPPR3   I+2,,AUTO
PL6.E3A0      #001=Z8E7$STMT_ASSIGNMENT File=Z8E7.:Z8A6TSI                       SAT 08/09/97 11:35 Page:372
        27 012162   200434 453500                    STP3    I+6,,AUTO
        27 012163   000037 236000 28                 LDQ     31
        27 012164   200205 235100                    LDA     @ID,,AUTO
        27 012165   200432 757100                    STAQ    I+4,,AUTO
        27 012166   000052 236000 28                 LDQ     42
        27 012167   200431 756100                    STQ     I+3,,AUTO
        27 012170   200431 630500                    EPPR0   I+3,,AUTO
        27 012171   000042 631400 28                 EPPR1   34
        27 012172   000000 701000 xent               TSX1    Z8AN$NEW_ILL1
        27 012173   000000 011000                    NOP     0

  34690 27 012174   200203 470500                    LDP0    @LOP$$,,AUTO
        27 012175   000000 471500                    LDP1    0,,PR0
        27 012176   100001 236100                    LDQ     1,,PR1
        27 012177   000000 473400 6                  LDP3    ILL$
        27 012200   300001 756100                    STQ     1,,PR3

  34691 27 012201   200204 471500                    LDP1    @ROP$$,,AUTO
        27 012202   100000 474500                    LDP4    0,,PR1
        27 012203   400001 236100                    LDQ     1,,PR4
        27 012204   300002 756100                    STQ     2,,PR3

     2276    34753    2   END MOVE_ALL_NUM;

  34753 27 012205   200202 221300                    LDX1  ! @LABEL$,,AUTO
        27 012206   000001 702211                    TSX2  ! 1,X1

     2277    34754        %EJECT;
PL6.E3A0      #001=Z8E7$STMT_ASSIGNMENT File=Z8E7.:Z8A6TSI                       SAT 08/09/97 11:35 Page:373
     2278    34755        /*-------------------*/
     2279    34756    1     FORM_SIZE_FROM_LONG: PROC (ST$$, ETT$$, RETURN$$) ;

  34756 27 012207   200164 741300       FORM_SIZE_F* STX1  ! LOWER_LX_ETT_ITEM+8,,AUTO

     2280    34757        /*-------------------*/
     2281    34758
     2282    34759    2        DCL ST$$          PTR ; /* ST item associated with ETT$$ */
     2283    34760    2        DCL ETT$$         PTR ; /* BASE, OFF, or SSOP */
     2284    34761    2        DCL RETURN$$      PTR ; /* SIZ item created   */
     2285    34762    2        DCL LONG$$        PTR ;
     2286    34763    2        DCL CONST$$       PTR ;
     2287    34764
     2288    34765             /*I* This code is stolen fron Z8AF$NEW_BASE */
     2289    34766
     2290    34767             %GET_LTS (@ID      = %LONG,
     2291    34768                       @ST$     = ST$$,
     2292    34769                       @RETURN$ = LONG$$) ;

  34771 27 012210   200165 470500                    LDP0    @ST$$,,AUTO
        27 012211   000000 471500                    LDP1    0,,PR0
        27 012212   100005 236100                    LDQ     5,,PR1
        27 012213   000001 116000 28                 CMPQ    1
        27 012214   012224 600000 27                 TZE     s:34805
        27 012215   100005 473500                    LDP3    5,,PR1
        27 012216   300000 220100                    LDX0    0,,PR3
        27 012217   001105 100003                    CMPX0   581,DU
        27 012220   012224 601000 27                 TNZ     s:34805

  34779 27 012221   300003 236100                    LDQ     3,,PR3
        27 012222   200170 756100                    STQ     LONG$$,,AUTO

  34803 27 012223   012236 710000 27                 TRA     s:34813

  34805 27 012224   000001 116000 28                 CMPQ    1
        27 012225   012234 600000 27                 TZE     s:34809
        27 012226   100005 473500                    LDP3    5,,PR1
PL6.E3A0      #001=Z8E7$STMT_ASSIGNMENT File=Z8E7.:Z8A6TSI                       SAT 08/09/97 11:35 Page:374
        27 012227   300000 220100                    LDX0    0,,PR3
        27 012230   001110 100003                    CMPX0   584,DU
        27 012231   012234 601000 27                 TNZ     s:34809

  34807 27 012232   200170 756100                    STQ     LONG$$,,AUTO
        27 012233   012236 710000 27                 TRA     s:34813

  34809 27 012234   000001 236000 28                 LDQ     1
        27 012235   200170 756100                    STQ     LONG$$,,AUTO

     2293    34812
     2294    34813    2        MKCN.CON = LONG$$ -> LONG.LENGTH ;

  34813 27 012236   200170 473500                    LDP3    LONG$$,,AUTO
        27 012237   300001 235100                    LDA     1,,PR3
        27 012240   000000 755000 22                 STA     MKCN

     2295    34814    2        CALL Z8AC$MAKE_CONST (CONST$$) ;

  34814 27 012241   200171 631500                    EPPR1   CONST$$,,AUTO
        27 012242   200430 451500                    STP1    I+2,,AUTO
        27 012243   200430 630500                    EPPR0   I+2,,AUTO
        27 012244   000103 631400 28                 EPPR1   67
        27 012245   000000 701000 xent               TSX1    Z8AC$MAKE_CONST
        27 012246   000000 011000                    NOP     0

     2296    34815
     2297    34816    2        CALL Z8AF$FORME (%SIZ, ETT$$, CONST$$, RETURN$$) ;

  34816 27 012247   200167 236100                    LDQ     @RETURN$$,,AUTO
        27 012250   200433 756100                    STQ     I+5,,AUTO
        27 012251   200171 630500                    EPPR0   CONST$$,,AUTO
        27 012252   200432 450500                    STP0    I+4,,AUTO
        27 012253   200166 236100                    LDQ     @ETT$$,,AUTO
        27 012254   000032 235000 28                 LDA     26
        27 012255   200430 757100                    STAQ    I+2,,AUTO
        27 012256   200430 630500                    EPPR0   I+2,,AUTO
PL6.E3A0      #001=Z8E7$STMT_ASSIGNMENT File=Z8E7.:Z8A6TSI                       SAT 08/09/97 11:35 Page:375
        27 012257   000033 631400 28                 EPPR1   27
        27 012260   000000 701000 xent               TSX1    Z8AF$FORME
        27 012261   000000 011000                    NOP     0

     2298    34817
     2299    34818    2     END FORM_SIZE_FROM_LONG ;

  34818 27 012262   200164 221300                    LDX1  ! LOWER_LX_ETT_ITEM+8,,AUTO
        27 012263   000001 702211                    TSX2  ! 1,X1

     2300    34819        %EJECT;
PL6.E3A0      #001=Z8E7$STMT_ASSIGNMENT File=Z8E7.:Z8A6TSI                       SAT 08/09/97 11:35 Page:376
     2301    34820        /*------------------------*/
     2302    34821    1      CHECK_IF_IN_SAME_GROUP: PROC (LOP_ST$, ROP$$, IN_SAME_GROUP) ;

  34821 27 012264   200164 741300       CHECK_IF_IN* STX1  ! LOWER_LX_ETT_ITEM+8,,AUTO

     2303    34822        /*------------------------*/
     2304    34823
     2305    34824    2        DCL LOP_ST$       PTR ; /* ST item of operand #1 */
     2306    34825    2        DCL ROP$$         PTR ; /* Reference triad of operand #2 */
     2307    34826    2        DCL IN_SAME_GROUP BOOLEAN ; /* The return arg */
     2308    34827    2        DCL ROP_ST$       PTR ;
     2309    34828    2        DCL LOP_QLT$      PTR ;
     2310    34829    2        DCL ROP_QLT$      PTR ;
     2311    34830
     2312    34831             /* Check if operand #2 is in the operand #1 group */
     2313    34832
     2314    34833             %FISH (TRIAD = ROP$$, RTN = ROP_ST$) ;

  34835 27 012265   200166 470500                    LDP0    @ROP$$,,AUTO
        27 012266   000000 236100                    LDQ     0,,PR0
        27 012267   200170 756100                    STQ     ROP_ST$,,AUTO

  34836 27 012270   200170 471500                    LDP1    ROP_ST$,,AUTO
        27 012271   100000 220100                    LDX0    0,,PR1
        27 012272   000751 100003                    CMPX0   489,DU
        27 012273   012303 603000 27                 TRC     s:34841

  34837 27 012274   200170 470500                    LDP0    ROP_ST$,,AUTO
        27 012275   000001 236100                    LDQ     1,,PR0
        27 012276   200170 756100                    STQ     ROP_ST$,,AUTO

  34838 27 012277   200170 470500                    LDP0    ROP_ST$,,AUTO
        27 012300   000000 220100                    LDX0    0,,PR0
        27 012301   000751 100003                    CMPX0   489,DU
        27 012302   012274 602000 27                 TNC     s:34837

     2315    34841    2        LOP_QLT$ = LOP_ST$ -> SCALAR.QLT$ ;
PL6.E3A0      #001=Z8E7$STMT_ASSIGNMENT File=Z8E7.:Z8A6TSI                       SAT 08/09/97 11:35 Page:377

  34841 27 012303   200165 470500                    LDP0    @LOP_ST$,,AUTO
        27 012304   000000 471500                    LDP1    0,,PR0
        27 012305   100007 236100                    LDQ     7,,PR1
        27 012306   200171 756100                    STQ     LOP_QLT$,,AUTO

     2316    34842    2        ROP_QLT$ = ROP_ST$ -> SCALAR.QLT$ ;

  34842 27 012307   200170 473500                    LDP3    ROP_ST$,,AUTO
        27 012310   300007 236100                    LDQ     7,,PR3
        27 012311   200172 756100                    STQ     ROP_QLT$,,AUTO

     2317    34843
     2318    34844    3        DO WHILE (ROP_QLT$ -> QLT.FATHER ~= ADDR(NIL)

  34844 27 012312   012316 710000 27                 TRA     s:34847

     2319    34845    3              AND ROP_QLT$ ~= LOP_QLT$) ;
     2320    34846    3          ROP_QLT$ = ROP_QLT$ -> QLT.FATHER ;

  34846 27 012313   200172 470500                    LDP0    ROP_QLT$,,AUTO
        27 012314   000001 236100                    LDQ     1,,PR0
        27 012315   200172 756100                    STQ     ROP_QLT$,,AUTO

     2321    34847    3        END ;

  34847 27 012316   200172 470500                    LDP0    ROP_QLT$,,AUTO
        27 012317   000001 236100                    LDQ     1,,PR0
        27 012320   000001 116000 28                 CMPQ    1
        27 012321   012325 600000 27                 TZE     s:34849
        27 012322   200172 236100                    LDQ     ROP_QLT$,,AUTO
        27 012323   200171 116100                    CMPQ    LOP_QLT$,,AUTO
        27 012324   012313 601000 27                 TNZ     s:34846

     2322    34848
     2323    34849    2        IF LOP_QLT$ = ROP_QLT$ THEN

PL6.E3A0      #001=Z8E7$STMT_ASSIGNMENT File=Z8E7.:Z8A6TSI                       SAT 08/09/97 11:35 Page:378
  34849 27 012325   200171 236100                    LDQ     LOP_QLT$,,AUTO
        27 012326   200172 116100                    CMPQ    ROP_QLT$,,AUTO
        27 012327   012335 601000 27                 TNZ     s:34852

     2324    34850    2          IN_SAME_GROUP = TRUE ;

  34850 27 012330   200167 471500                    LDP1    @IN_SAME_GROUP,,AUTO
        27 012331   003100 060400                    CSL     bolr='003'O
        27 012332   000131 000001 28                 BDSC    89                       by=0,bit=0,n=1
        27 012333   100000 000001                    BDSC    0,,PR1                   by=0,bit=0,n=1
        27 012334   012341 710000 27                 TRA     s:34854

     2325    34851    2        ELSE
     2326    34852    2          IN_SAME_GROUP = FALSE ;

  34852 27 012335   200167 471500                    LDP1    @IN_SAME_GROUP,,AUTO
        27 012336   003100 060400                    CSL     bolr='003'O
        27 012337   000034 000001 28                 BDSC    28                       by=0,bit=0,n=1
        27 012340   100000 000001                    BDSC    0,,PR1                   by=0,bit=0,n=1

     2327    34853
     2328    34854    2      END CHECK_IF_IN_SAME_GROUP ;

  34854 27 012341   200164 221300                    LDX1  ! LOWER_LX_ETT_ITEM+8,,AUTO
        27 012342   000001 702211                    TSX2  ! 1,X1
        27 012343   012346 710000 27                 TRA     s:34858

     2329    34855        %EJECT;
PL6.E3A0      #001=Z8E7$STMT_ASSIGNMENT File=Z8E7.:Z8A6TSI                       SAT 08/09/97 11:35 Page:379
     2330    34856    1   Z8E7$MOVE_ON_SIZE: ENTRY (LOP$, ROP$, LABEL$);

  34856 27 012344   000000 700200 xent  Z8E7$MOVE_O* TSX0  ! X66_AUTO_4
        27 012345   000440 000004                    ZERO    288,4

     2331    34857
     2332    34858    1        ON_SIZE = TRUE;

  34858 27 012346   400000 236003                    LDQ     -131072,DU
        27 012347   200070 756100                    STQ     ON_SIZE,,AUTO

     2333    34859    1        MOVE_STATEMENT = FALSE;

  34859 27 012350   200071 450100                    STZ     MOVE_STATEMENT,,AUTO

     2334    34860    1        STATEMENT_TYPE_A = %NO_STATEMENT_TYPE;    /*V*  Not a DML SET        */

  34860 27 012351   200064 450100                    STZ     STATEMENT_TYPE_A,,AUTO

     2335    34861
     2336    34862    1        CALL ON_SIZE_PREPASS (LOP$, ROP$, LABEL$);

  34862 27 012352   200004 237100                    LDAQ    @ROP$,,AUTO
        27 012353   200166 757100                    STAQ    @LOP_ST$+1,,AUTO
        27 012354   200003 236100                    LDQ     @LOP$,,AUTO
        27 012355   200165 756100                    STQ     LOWER_LX_ETT_ITEM+9,,AUTO
        27 012356   000003 701000 27                 TSX1    ON_SIZE_PREPASS
        27 012357   000000 011000                    NOP     0

     2337    34863
     2338    34864             /*V* Do a regular MOVE */
     2339    34865    1        GOTO MOVE_ENTRY;

  34865 27 012360   012405 710000 27                 TRA     MOVE_ENTRY

     2340    34866
     2341    34867
PL6.E3A0      #001=Z8E7$STMT_ASSIGNMENT File=Z8E7.:Z8A6TSI                       SAT 08/09/97 11:35 Page:380
     2342    34868    1   Z8E7$MOVE_STATEMENT: ENTRY (LOP$, ROP$,LABEL$, STATEMENT_TYPE);

  34868 27 012361   000000 700200 xent  Z8E7$MOVE_S* TSX0  ! X66_AUTO_4
        27 012362   000440 000004                    ZERO    288,4

     2343    34869
     2344    34870    1        MOVE_STATEMENT = TRUE;

  34870 27 012363   400000 236003                    LDQ     -131072,DU
        27 012364   200071 756100                    STQ     MOVE_STATEMENT,,AUTO

     2345    34871    1        STATEMENT_TYPE_A = STATEMENT_TYPE;

  34871 27 012365   200006 470500                    LDP0    @STATEMENT_TYPE,,AUTO
        27 012366   000000 235100                    LDA     0,,PR0
        27 012367   200064 755100                    STA     STATEMENT_TYPE_A,,AUTO

     2346    34872             /* ON_SIZE not initialized because it is never needed in this case */
     2347    34873
     2348    34874    1        GOTO MOVE_ENTRY;

  34874 27 012370   012405 710000 27                 TRA     MOVE_ENTRY

     2349    34875
     2350    34876
     2351    34877    1   Z8E7$MOVE_ON_SIZE_SEMANTICS: ENTRY (LOP$, ROP$);

  34877 27 012371   000000 700200 xent  Z8E7$MOVE_O* TSX0  ! X66_AUTO_4
        27 012372   000440 000004                    ZERO    288,4

     2352    34878
     2353    34879    1        ON_SIZE = TRUE;

  34879 27 012373   400000 236003                    LDQ     -131072,DU
        27 012374   200070 756100                    STQ     ON_SIZE,,AUTO

     2354    34880    1        MOVE_STATEMENT = FALSE;
PL6.E3A0      #001=Z8E7$STMT_ASSIGNMENT File=Z8E7.:Z8A6TSI                       SAT 08/09/97 11:35 Page:381

  34880 27 012375   200071 450100                    STZ     MOVE_STATEMENT,,AUTO

     2355    34881    1        STATEMENT_TYPE_A = %NO_STATEMENT_TYPE;    /*V*  Not a DML SET        */

  34881 27 012376   200064 450100                    STZ     STATEMENT_TYPE_A,,AUTO

     2356    34882
     2357    34883    1        GOTO MOVE_ENTRY;

  34883 27 012377   012405 710000 27                 TRA     MOVE_ENTRY

     2358    34884
     2359    34885
     2360    34886        %EJECT;
PL6.E3A0      #001=Z8E7$STMT_ASSIGNMENT File=Z8E7.:Z8A6TSI                       SAT 08/09/97 11:35 Page:382
     2361    34887    1   Z8E7$MOVE: ENTRY (LOP$, ROP$);

  34887 27 012400   000000 700200 xent  Z8E7$MOVE    TSX0  ! X66_AUTO_4
        27 012401   000440 000004                    ZERO    288,4

     2362    34888
     2363    34889    1        ON_SIZE = FALSE;

  34889 27 012402   200070 450100                    STZ     ON_SIZE,,AUTO

     2364    34890    1        MOVE_STATEMENT = FALSE;

  34890 27 012403   200071 450100                    STZ     MOVE_STATEMENT,,AUTO

     2365    34891    1        STATEMENT_TYPE_A = %NO_STATEMENT_TYPE;    /*V*  Not a DML SET        */

  34891 27 012404   200064 450100                    STZ     STATEMENT_TYPE_A,,AUTO

     2366    34892
     2367    34893
     2368    34894    1   MOVE_ENTRY:
     2369    34895
     2370    34896
     2371    34897    1        IF LOP$ -> LX_ITEM.ID = %LX_ETT_ITEM

  34897 27 012405   200003 470500       MOVE_ENTRY   LDP0    @LOP$,,AUTO
        27 012406   000000 471500                    LDP1    0,,PR0
        27 012407   100000 220100                    LDX0    0,,PR1
        27 012410   000004 100003                    CMPX0   4,DU
        27 012411   012444 601000 27                 TNZ     s:34922
        27 012412   200004 473500                    LDP3    @ROP$,,AUTO
        27 012413   300000 474500                    LDP4    0,,PR3
        27 012414   400000 221100                    LDX1    0,,PR4
        27 012415   000004 101003                    CMPX1   4,DU
        27 012416   012444 601000 27                 TNZ     s:34922

     2372    34898    1        AND ROP$ -> LX_ITEM.ID = %LX_ETT_ITEM THEN
PL6.E3A0      #001=Z8E7$STMT_ASSIGNMENT File=Z8E7.:Z8A6TSI                       SAT 08/09/97 11:35 Page:383
     2373    34899    1          IF LOP$ -> LX_ETT_ITEM.ETT$ = ROP$ -> LX_ETT_ITEM.ETT$ THEN

  34899 27 012417   100001 236100                    LDQ     1,,PR1
        27 012420   400001 116100                    CMPQ    1,,PR4
        27 012421   012444 601000 27                 TNZ     s:34922

     2374    34900    2            DO;

     2375    34901                   /*V* Normally if the lop and rop are equal then no move
     2376    34902                      needs to take place.  There is 1 case though where
     2377    34903                      in a move to itself the value can change.  The case
     2378    34904                      is when the item is alphanumeric edited (the 'B'
     2379    34905                      picture character is the culprit).  If this is the case
     2380    34906                      we have to trudge through move.
     2381    34907                   */
     2382    34908                   %FISH (TRIAD = LOP$ -> LX_ETT_ITEM.ETT$,
     2383    34909                          RTN   = LOP_ST$);

  34911 27 012422   200067 756100                    STQ     LOP_ST$,,AUTO

  34912 27 012423   200067 471500                    LDP1    LOP_ST$,,AUTO
        27 012424   100000 220100                    LDX0    0,,PR1
        27 012425   000751 100003                    CMPX0   489,DU
        27 012426   012436 603000 27                 TRC     s:34918

  34913 27 012427   200067 470500                    LDP0    LOP_ST$,,AUTO
        27 012430   000001 236100                    LDQ     1,,PR0
        27 012431   200067 756100                    STQ     LOP_ST$,,AUTO

  34914 27 012432   200067 470500                    LDP0    LOP_ST$,,AUTO
        27 012433   000000 220100                    LDX0    0,,PR0
        27 012434   000751 100003                    CMPX0   489,DU
        27 012435   012427 602000 27                 TNC     s:34913

     2384    34917
     2385    34918    2              IF LOP_ST$ -> SCALAR.B.CLASS ~= %CLASS_ALPHANUMERIC_EDITED THEN

PL6.E3A0      #001=Z8E7$STMT_ASSIGNMENT File=Z8E7.:Z8A6TSI                       SAT 08/09/97 11:35 Page:384
  34918 27 012436   200067 470500                    LDP0    LOP_ST$,,AUTO
        27 012437   000003 236100                    LDQ     3,,PR0
        27 012440   000007 376007                    ANQ     7,DL
        27 012441   000007 116007                    CMPQ    7,DL
        27 012442   012444 600000 27                 TZE     s:34922

     2386    34919    2                RETURN;

  34919 27 012443   000000 702200 xent               TSX2  ! X66_ARET

     2387    34920    2            END;
     2388    34921
     2389    34922    1        LOP$$ = ADDR(TEMP_LOP_ITEM);

  34922 27 012444   200104 630500                    EPPR0   TEMP_LOP_ITEM,,AUTO
        27 012445   200010 450500                    STP0    LOP$$,,AUTO

     2390    34923    1        ROP$$ = ADDR(TEMP_ROP_ITEM);

  34923 27 012446   200114 631500                    EPPR1   TEMP_ROP_ITEM,,AUTO
        27 012447   200007 451500                    STP1    ROP$$,,AUTO

     2391    34924
     2392    34925    1        LOP$$ -> LX_ITEM = LOP$ -> LX_ITEM;

  34925 27 012450   200003 473500                    LDP3    @LOP$,,AUTO
        27 012451   300000 474500                    LDP4    0,,PR3
        27 012452   000100 100500                    MLR     fill='000'O
        27 012453   400000 000040                    ADSC9   0,,PR4                   cn=0,n=32
        27 012454   000000 000040                    ADSC9   0,,PR0                   cn=0,n=32

     2393    34926    1        ROP$$ -> LX_ITEM = ROP$ -> LX_ITEM;

  34926 27 012455   200004 470500                    LDP0    @ROP$,,AUTO
        27 012456   000000 471500                    LDP1    0,,PR0
        27 012457   200007 474500                    LDP4    ROP$$,,AUTO
        27 012460   000100 100500                    MLR     fill='000'O
PL6.E3A0      #001=Z8E7$STMT_ASSIGNMENT File=Z8E7.:Z8A6TSI                       SAT 08/09/97 11:35 Page:385
        27 012461   100000 000040                    ADSC9   0,,PR1                   cn=0,n=32
        27 012462   400000 000040                    ADSC9   0,,PR4                   cn=0,n=32

     2394    34927
     2395    34928    1        IF ROP$$ -> LX_ITEM.ID = %LX_ETT_ITEM THEN

  34928 27 012463   200007 471500                    LDP1    ROP$$,,AUTO
        27 012464   100000 220100                    LDX0    0,,PR1
        27 012465   000004 100003                    CMPX0   4,DU
        27 012466   012544 601000 27                 TNZ     s:34950

     2396    34929    2          DO;

     2397    34930    2            IF ROP$$ -> LX_ITEM.TYPE = %TYC THEN

  34930 27 012467   100004 235100                    LDA     4,,PR1
        27 012470   000023 115007                    CMPA    19,DL
        27 012471   012544 601000 27                 TNZ     s:34950

     2398    34931    3              DO;

     2399    34932                     %FISH (TRIAD = ROP$$ -> LX_ETT_ITEM.ETT$,
     2400    34933                            RTN   = ROP_ST$);

  34935 27 012472   100001 236100                    LDQ     1,,PR1
        27 012473   200072 756100                    STQ     ROP_ST$,,AUTO

  34936 27 012474   200072 474500                    LDP4    ROP_ST$,,AUTO
        27 012475   400000 221100                    LDX1    0,,PR4
        27 012476   000751 101003                    CMPX1   489,DU
        27 012477   012507 603000 27                 TRC     s:34942

  34937 27 012500   200072 470500                    LDP0    ROP_ST$,,AUTO
        27 012501   000001 236100                    LDQ     1,,PR0
        27 012502   200072 756100                    STQ     ROP_ST$,,AUTO

  34938 27 012503   200072 470500                    LDP0    ROP_ST$,,AUTO
PL6.E3A0      #001=Z8E7$STMT_ASSIGNMENT File=Z8E7.:Z8A6TSI                       SAT 08/09/97 11:35 Page:386
        27 012504   000000 220100                    LDX0    0,,PR0
        27 012505   000751 100003                    CMPX0   489,DU
        27 012506   012500 602000 27                 TNC     s:34937

     2401    34941
     2402    34942    3                CALL Z8CO$CREATE_LIBRARY_BASE (%OP_GBCD_TO_ASCII, TABLE_ETT$);

  34942 27 012507   200102 630500                    EPPR0   TABLE_ETT$,,AUTO
        27 012510   200431 450500                    STP0    I+3,,AUTO
        27 012511   000133 236000 28                 LDQ     91
        27 012512   200430 756100                    STQ     I+2,,AUTO
        27 012513   200430 630500                    EPPR0   I+2,,AUTO
        27 012514   000000 631400 28                 EPPR1   0
        27 012515   000000 701000 xent               TSX1    Z8CO$CREATE_LIBRARY_BASE
        27 012516   000000 011000                    NOP     0

     2403    34943    3                CALL Z8AF$FORME (%CVT, ROP$$ -> LX_ETT_ITEM.ETT$, TABLE_ETT$, ROP$$ ->
             34943                         LX_ETT_ITEM.ETT$);

  34943 27 012517   200007 236100                    LDQ     ROP$$,,AUTO
        27 012520   000001 036003                    ADLQ    1,DU
        27 012521   200433 756100                    STQ     I+5,,AUTO
        27 012522   200102 630500                    EPPR0   TABLE_ETT$,,AUTO
        27 012523   200432 450500                    STP0    I+4,,AUTO
        27 012524   000135 235000 28                 LDA     93
        27 012525   200430 757100                    STAQ    I+2,,AUTO
        27 012526   200430 630500                    EPPR0   I+2,,AUTO
        27 012527   000033 631400 28                 EPPR1   27
        27 012530   000000 701000 xent               TSX1    Z8AF$FORME
        27 012531   000000 011000                    NOP     0

     2404    34944    3                IF ROP_ST$ -> VARIABLE.NDSC.TN = %NDSC4

  34944 27 012532   200072 470500                    LDP0    ROP_ST$,,AUTO
        27 012533   000001 236100                    LDQ     1,,PR0
        27 012534   040000 316007                    CANQ    16384,DL
        27 012535   012542 600000 27                 TZE     s:34946
PL6.E3A0      #001=Z8E7$STMT_ASSIGNMENT File=Z8E7.:Z8A6TSI                       SAT 08/09/97 11:35 Page:387

     2405    34945    3                  THEN ROP$$ -> LX_ITEM.TYPE = %TYO;

  34945 27 012536   000003 235007                    LDA     3,DL
        27 012537   200007 471500                    LDP1    ROP$$,,AUTO
        27 012540   100004 755100                    STA     4,,PR1
        27 012541   012544 710000 27                 TRA     s:34950

     2406    34946    3                  ELSE ROP$$ -> LX_ITEM.TYPE = %TYD;

  34946 27 012542   200007 471500                    LDP1    ROP$$,,AUTO
        27 012543   100004 450100                    STZ     4,,PR1

     2407    34947    3              END;

     2408    34948    2          END;

     2409    34949
     2410    34950    1        CALL Z8E7$MOVE_SEMANTIC_CHECKS (LOP$$, ROP$$, STATEMENT_TYPE_A)

  34950 27 012544   200064 630500                    EPPR0   STATEMENT_TYPE_A,,AUTO
        27 012545   200432 450500                    STP0    I+4,,AUTO
        27 012546   200007 631500                    EPPR1   ROP$$,,AUTO
        27 012547   200431 451500                    STP1    I+3,,AUTO
        27 012550   200010 633500                    EPPR3   LOP$$,,AUTO
        27 012551   200430 453500                    STP3    I+2,,AUTO
        27 012552   200430 630500                    EPPR0   I+2,,AUTO
        27 012553   000016 631400 28                 EPPR1   14
        27 012554   000000 701000 xent               TSX1    Z8E7$MOVE_SEMANTIC_CHECKS
        27 012555   012557 702000 27                 TSX2    s:34953
        27 012556   012560 710000 27                 TRA     s:34956

     2411    34951    1          WHENALTRETURN
     2412    34952    2            DO;

     2413    34953    2              RETURN;

PL6.E3A0      #001=Z8E7$STMT_ASSIGNMENT File=Z8E7.:Z8A6TSI                       SAT 08/09/97 11:35 Page:388
  34953 27 012557   000000 702200 xent               TSX2  ! X66_ARET

     2414    34954    2            END;
     2415    34955
     2416    34956    1        CALL PRELIMINARY_SETUP (LOP$$, ROP$$)

  34956 27 012560   200007 630500                    EPPR0   ROP$$,,AUTO
        27 012561   200172 450500                    STP0    LOP_QLT$+1,,AUTO
        27 012562   200010 631500                    EPPR1   LOP$$,,AUTO
        27 012563   200171 451500                    STP1    ROP_ST$+1,,AUTO
        27 012564   002470 701000 27                 TSX1    PRELIMINARY_SETUP
        27 012565   012567 702000 27                 TSX2    s:34959
        27 012566   012570 710000 27                 TRA     s:34962

     2417    34957    1          WHENALTRETURN
     2418    34958    2            DO;

     2419    34959    2              RETURN;

  34959 27 012567   000000 702200 xent               TSX2  ! X66_ARET

     2420    34960    2            END;
     2421    34961
     2422    34962    1        GOTO COERCE_TYPES;

  34962 27 012570   012641 710000 27                 TRA     COERCE_TYPES

     2423    34963
     2424    34964        %EJECT;
PL6.E3A0      #001=Z8E7$STMT_ASSIGNMENT File=Z8E7.:Z8A6TSI                       SAT 08/09/97 11:35 Page:389
     2425    34965    1   Z8E7$RESTRICTED_MOVE: ENTRY (LOP$, ROP$);

  34965 27 012571   000000 700200 xent  Z8E7$RESTRI* TSX0  ! X66_AUTO_4
        27 012572   000440 000004                    ZERO    288,4

     2426    34966
     2427    34967    1        ON_SIZE = FALSE;

  34967 27 012573   200070 450100                    STZ     ON_SIZE,,AUTO

     2428    34968    1        MOVE_STATEMENT = FALSE;

  34968 27 012574   200071 450100                    STZ     MOVE_STATEMENT,,AUTO

     2429    34969
     2430    34970
     2431    34971
     2432    34972    1        IF LOP$ -> LX_ITEM.ID = %LX_ETT_ITEM

  34972 27 012575   200003 470500                    LDP0    @LOP$,,AUTO
        27 012576   000000 471500                    LDP1    0,,PR0
        27 012577   100000 220100                    LDX0    0,,PR1
        27 012600   000004 100003                    CMPX0   4,DU
        27 012601   012613 601000 27                 TNZ     s:34977
        27 012602   200004 473500                    LDP3    @ROP$,,AUTO
        27 012603   300000 474500                    LDP4    0,,PR3
        27 012604   400000 221100                    LDX1    0,,PR4
        27 012605   000004 101003                    CMPX1   4,DU
        27 012606   012613 601000 27                 TNZ     s:34977

     2433    34973    1        AND ROP$ -> LX_ITEM.ID = %LX_ETT_ITEM THEN
     2434    34974    1          IF LOP$ -> LX_ETT_ITEM.ETT$ = ROP$ -> LX_ETT_ITEM.ETT$ THEN

  34974 27 012607   100001 236100                    LDQ     1,,PR1
        27 012610   400001 116100                    CMPQ    1,,PR4
        27 012611   012613 601000 27                 TNZ     s:34977

PL6.E3A0      #001=Z8E7$STMT_ASSIGNMENT File=Z8E7.:Z8A6TSI                       SAT 08/09/97 11:35 Page:390
     2435    34975    1            RETURN;

  34975 27 012612   000000 702200 xent               TSX2  ! X66_ARET

     2436    34976
     2437    34977    1        LOP$$ = ADDR(TEMP_LOP_ITEM);

  34977 27 012613   200104 633500                    EPPR3   TEMP_LOP_ITEM,,AUTO
        27 012614   200010 453500                    STP3    LOP$$,,AUTO

     2438    34978    1        ROP$$ = ADDR(TEMP_ROP_ITEM);

  34978 27 012615   200114 631500                    EPPR1   TEMP_ROP_ITEM,,AUTO
        27 012616   200007 451500                    STP1    ROP$$,,AUTO

     2439    34979
     2440    34980    1        LOP$$ -> LX_ITEM = LOP$ -> LX_ITEM;

  34980 27 012617   000000 474500                    LDP4    0,,PR0
        27 012620   000100 100500                    MLR     fill='000'O
        27 012621   400000 000040                    ADSC9   0,,PR4                   cn=0,n=32
        27 012622   300000 000040                    ADSC9   0,,PR3                   cn=0,n=32

     2441    34981    1        ROP$$ -> LX_ITEM = ROP$ -> LX_ITEM;

  34981 27 012623   200004 471500                    LDP1    @ROP$,,AUTO
        27 012624   100000 473500                    LDP3    0,,PR1
        27 012625   200007 474500                    LDP4    ROP$$,,AUTO
        27 012626   000100 100500                    MLR     fill='000'O
        27 012627   300000 000040                    ADSC9   0,,PR3                   cn=0,n=32
        27 012630   400000 000040                    ADSC9   0,,PR4                   cn=0,n=32

     2442    34982
     2443    34983    1        CALL MOVE_NO_SEMANTIC_CHECKS (LOP$$, ROP$$)

  34983 27 012631   200007 633500                    EPPR3   ROP$$,,AUTO
        27 012632   200166 453500                    STP3    @LOP_ST$+1,,AUTO
PL6.E3A0      #001=Z8E7$STMT_ASSIGNMENT File=Z8E7.:Z8A6TSI                       SAT 08/09/97 11:35 Page:391
        27 012633   200010 634500                    EPPR4   LOP$$,,AUTO
        27 012634   200165 454500                    STP4    LOWER_LX_ETT_ITEM+9,,AUTO
        27 012635   002317 701000 27                 TSX1    MOVE_NO_SEMANTIC_CHECKS
        27 012636   012640 702000 27                 TSX2    s:34986
        27 012637   012641 710000 27                 TRA     COERCE_TYPES

     2444    34984    1          WHENALTRETURN
     2445    34985    2            DO;

     2446    34986    2              RETURN;

  34986 27 012640   000000 702200 xent               TSX2  ! X66_ARET

     2447    34987    2            END;
     2448    34988
     2449    34989
     2450    34990    1   COERCE_TYPES:
     2451    34991    1        IF LOP$$ -> LX_ITEM.TYPE = %TYC THEN

  34991 27 012641   200010 470500       COERCE_TYPES LDP0    LOP$$,,AUTO
        27 012642   000004 235100                    LDA     4,,PR0
        27 012643   000023 115007                    CMPA    19,DL
        27 012644   012751 601000 27                 TNZ     s:35015

     2452    34992    2          DO;

     2453    34993                 %FISH (TRIAD = LOP$$ -> LX_ETT_ITEM.ETT$,
     2454    34994                        RTN   = LOP_ST$);

  34996 27 012645   000001 236100                    LDQ     1,,PR0
        27 012646   200067 756100                    STQ     LOP_ST$,,AUTO

  34997 27 012647   200067 471500                    LDP1    LOP_ST$,,AUTO
        27 012650   100000 220100                    LDX0    0,,PR1
        27 012651   000751 100003                    CMPX0   489,DU
        27 012652   012662 603000 27                 TRC     s:35002

PL6.E3A0      #001=Z8E7$STMT_ASSIGNMENT File=Z8E7.:Z8A6TSI                       SAT 08/09/97 11:35 Page:392
  34998 27 012653   200067 470500                    LDP0    LOP_ST$,,AUTO
        27 012654   000001 236100                    LDQ     1,,PR0
        27 012655   200067 756100                    STQ     LOP_ST$,,AUTO

  34999 27 012656   200067 470500                    LDP0    LOP_ST$,,AUTO
        27 012657   000000 220100                    LDX0    0,,PR0
        27 012660   000751 100003                    CMPX0   489,DU
        27 012661   012653 602000 27                 TNC     s:34998

     2455    35002    2            GBCD_NUMERIC_LOP = TRUE;

  35002 27 012662   400000 236003                    LDQ     -131072,DU
        27 012663   200074 756100                    STQ     GBCD_NUMERIC_LOP,,AUTO

     2456    35003    2            GBCD_LOP$ = LOP$$ -> LX_ETT_ITEM.ETT$;

  35003 27 012664   200010 470500                    LDP0    LOP$$,,AUTO
        27 012665   000001 236100                    LDQ     1,,PR0
        27 012666   200073 756100                    STQ     GBCD_LOP$,,AUTO

     2457    35004    2            CALL Z8AT$CREATE_TEMPORARY (%SCALAR, ST$$);

  35004 27 012667   200066 631500                    EPPR1   ST$$,,AUTO
        27 012670   200431 451500                    STP1    I+3,,AUTO
        27 012671   000137 236000 28                 LDQ     95
        27 012672   200430 756100                    STQ     I+2,,AUTO
        27 012673   200430 630500                    EPPR0   I+2,,AUTO
        27 012674   000000 631400 28                 EPPR1   0
        27 012675   000000 701000 xent               TSX1    Z8AT$CREATE_TEMPORARY
        27 012676   000000 011000                    NOP     0

     2458    35005    2            CALL Z8AF$NEW_BASE (ST$$, ADDR(NIL), LOP$$ -> LX_ETT_ITEM.ETT$);

  35005 27 012677   000001 236000 28                 LDQ     1
        27 012700   200430 756100                    STQ     I+2,,AUTO
        27 012701   200010 236100                    LDQ     LOP$$,,AUTO
        27 012702   000001 036003                    ADLQ    1,DU
PL6.E3A0      #001=Z8E7$STMT_ASSIGNMENT File=Z8E7.:Z8A6TSI                       SAT 08/09/97 11:35 Page:393
        27 012703   200433 756100                    STQ     I+5,,AUTO
        27 012704   200430 630500                    EPPR0   I+2,,AUTO
        27 012705   200432 450500                    STP0    I+4,,AUTO
        27 012706   200066 631500                    EPPR1   ST$$,,AUTO
        27 012707   200431 451500                    STP1    I+3,,AUTO
        27 012710   200431 630500                    EPPR0   I+3,,AUTO
        27 012711   000016 631400 28                 EPPR1   14
        27 012712   000000 701000 xent               TSX1    Z8AF$NEW_BASE
        27 012713   000000 011000                    NOP     0

     2459    35006    2            IF LOP_ST$ -> VARIABLE.NDSC.TN = %NDSC4 /* GBCD overpunched */

  35006 27 012714   200067 470500                    LDP0    LOP_ST$,,AUTO
        27 012715   000001 236100                    LDQ     1,,PR0
        27 012716   040000 316007                    CANQ    16384,DL
        27 012717   012724 600000 27                 TZE     s:35008

     2460    35007    2              THEN LOP$$ -> LX_ITEM.TYPE = %TYO;

  35007 27 012720   000003 235007                    LDA     3,DL
        27 012721   200010 471500                    LDP1    LOP$$,,AUTO
        27 012722   100004 755100                    STA     4,,PR1
        27 012723   012726 710000 27                 TRA     s:35009

     2461    35008    2              ELSE LOP$$ -> LX_ITEM.TYPE = %TYD;

  35008 27 012724   200010 471500                    LDP1    LOP$$,,AUTO
        27 012725   100004 450100                    STZ     4,,PR1

     2462    35009    2            ST$$ -> VARIABLE.TYPE = LOP$$ -> LX_ITEM.TYPE;

  35009 27 012726   200010 470500                    LDP0    LOP$$,,AUTO
        27 012727   000004 720100                    LXL0    4,,PR0
        27 012730   200066 471500                    LDP1    ST$$,,AUTO
        27 012731   100002 740100                    STX0    2,,PR1

     2463    35010    2            ST$$ -> VARIABLE.NDSC.N = LOP_ST$ -> VARIABLE.NDSC.N;
PL6.E3A0      #001=Z8E7$STMT_ASSIGNMENT File=Z8E7.:Z8A6TSI                       SAT 08/09/97 11:35 Page:394

  35010 27 012732   200067 470500                    LDP0    LOP_ST$,,AUTO
        27 012733   200066 471500                    LDP1    ST$$,,AUTO
        27 012734   000001 236100                    LDQ     1,,PR0
        27 012735   100001 752101                    STCQ    1,'01'O,PR1

     2464    35011    2            ST$$ -> VARIABLE.NDSC.SF = LOP_ST$ -> VARIABLE.NDSC.SF;

  35011 27 012736   200067 470500                    LDP0    LOP_ST$,,AUTO
        27 012737   200066 471500                    LDP1    ST$$,,AUTO
        27 012740   000001 236100                    LDQ     1,,PR0
        27 012741   100001 752102                    STCQ    1,'02'O,PR1

     2465    35012    2            ST$$ -> VARIABLE.NDSC.S = LOP_ST$ -> VARIABLE.NDSC.S;

  35012 27 012742   200066 470500                    LDP0    ST$$,,AUTO
        27 012743   200067 471500                    LDP1    LOP_ST$,,AUTO
        27 012744   100001 236100                    LDQ     1,,PR1
        27 012745   000001 676100                    ERQ     1,,PR0
        27 012746   030000 376007                    ANQ     12288,DL
        27 012747   000001 656100                    ERSQ    1,,PR0

     2466    35013    2          END;

  35013 27 012750   012752 710000 27                 TRA     s:35022

     2467    35014    1        ELSE
     2468    35015    1          GBCD_NUMERIC_LOP = FALSE;

  35015 27 012751   200074 450100                    STZ     GBCD_NUMERIC_LOP,,AUTO

     2469    35016
     2470    35017             %IF %E$POSSIBLE_TRUNCATION > 100;
     2473    35020             %ENDIF;
     2474    35021
     2475    35022    1        IF COMCOM.OB.INFO

PL6.E3A0      #001=Z8E7$STMT_ASSIGNMENT File=Z8E7.:Z8A6TSI                       SAT 08/09/97 11:35 Page:395
  35022 27 012752   000034 234000 xsym               SZN     COMCOM+28
        27 012753   012766 605000 27                 TPL     s:35029
        27 012754   200071 234100                    SZN     MOVE_STATEMENT,,AUTO
        27 012755   012766 605000 27                 TPL     s:35029

     2476    35023    1        AND MOVE_STATEMENT THEN
     2477    35024    1          CALL BINARY_SIGN_AND_TRUNC (LOP$, ROP$)

  35024 27 012756   200004 236100                    LDQ     @ROP$,,AUTO
        27 012757   200204 756100                    STQ     @LOP$$+1,,AUTO
        27 012760   200003 236100                    LDQ     @LOP$,,AUTO
        27 012761   200203 756100                    STQ     @LABEL$+1,,AUTO
        27 012762   001645 701000 27                 TSX1    BINARY_SIGN_AND_TRUNC
        27 012763   012765 702000 27                 TSX2    s:35026
        27 012764   012766 710000 27                 TRA     s:35029

     2478    35025    2              WHENALTRETURN DO ;

     2479    35026    2                RETURN; /*V* Error message already issued */

  35026 27 012765   000000 702200 xent               TSX2  ! X66_ARET

     2480    35027    2              END;
     2481    35028
     2482    35029    1        CALL Z8EV$COMPATIBLE_TYPES_ROUND (LOP$$, ROP$$, MOVE_MATRIX, ON_SIZE,
             35029                 MOVE_STATEMENT)

  35029 27 012766   200071 630500                    EPPR0   MOVE_STATEMENT,,AUTO
        27 012767   200434 450500                    STP0    I+6,,AUTO
        27 012770   200070 631500                    EPPR1   ON_SIZE,,AUTO
        27 012771   200433 451500                    STP1    I+5,,AUTO
        27 012772   000140 236000 28                 LDQ     96
        27 012773   200432 756100                    STQ     I+4,,AUTO
        27 012774   200007 633500                    EPPR3   ROP$$,,AUTO
        27 012775   200431 453500                    STP3    I+3,,AUTO
        27 012776   200010 634500                    EPPR4   LOP$$,,AUTO
        27 012777   200430 454500                    STP4    I+2,,AUTO
PL6.E3A0      #001=Z8E7$STMT_ASSIGNMENT File=Z8E7.:Z8A6TSI                       SAT 08/09/97 11:35 Page:396
        27 013000   200430 630500                    EPPR0   I+2,,AUTO
        27 013001   000042 631400 28                 EPPR1   34
        27 013002   000000 701000 xent               TSX1    Z8EV$COMPATIBLE_TYPES_ROUND
        27 013003   013005 702000 27                 TSX2    s:35032
        27 013004   013020 710000 27                 TRA     s:35042

     2483    35030    1          WHENALTRETURN
     2484    35031    2            DO;

     2485    35032    2              CALL Z8AE$ERROR(%E$INVALID_MOVE_OPERANDS,

  35032 27 013005   000040 236000 28                 LDQ     32
        27 013006   200432 756100                    STQ     I+4,,AUTO
        27 013007   200010 236100                    LDQ     LOP$$,,AUTO
        27 013010   000005 036003                    ADLQ    5,DU
        27 013011   000030 235000 28                 LDA     24
        27 013012   200430 757100                    STAQ    I+2,,AUTO
        27 013013   200430 630500                    EPPR0   I+2,,AUTO
        27 013014   000016 631400 28                 EPPR1   14
        27 013015   000000 701000 xent               TSX1    Z8AE$ERROR
        27 013016   000000 011000                    NOP     0

     2486    35033    2                              LOP$$ -> LX_ETT_ITEM.LINE,
     2487    35034    2                              0);
     2488    35035                   /*V* Z8EV$COMPATIBLE_TYPES_ROUND has no way of knowing which
     2489    35036                      of the 2 operands is invalid, so issue the error message
     2490    35037                      without pinpointing the field.
     2491    35038                   */
     2492    35039    2              RETURN;

  35039 27 013017   000000 702200 xent               TSX2  ! X66_ARET

     2493    35040    2            END;
     2494    35041
     2495    35042    1        ETT_ITEM_COUNT = 0;

  35042 27 013020   200061 450100                    STZ     ETT_ITEM_COUNT,,AUTO
PL6.E3A0      #001=Z8E7$STMT_ASSIGNMENT File=Z8E7.:Z8A6TSI                       SAT 08/09/97 11:35 Page:397

     2496    35043    1        ETT$$ = LOP$$ -> LX_ETT_ITEM.ETT$;

  35043 27 013021   200010 470500                    LDP0    LOP$$,,AUTO
        27 013022   000001 236100                    LDQ     1,,PR0
        27 013023   200012 756100                    STQ     ETT$$,,AUTO

     2497    35044        /*   MOVE <anything> TO <GBCD-identifier> (<reference-modification>)
     2498    35045             or TO <EBCDIC-identifier> (<reference-modification>) causes problems.
     2499    35046             Z8EY converts to %TYA and then extracts the substring. It must do so
     2500    35047             as, if it extracted the substring first, it would cause a regression.
     2501    35048             MOVE <GBCD-identifier> (<reference-modification>) TO <numeric-identifier>
     2502    35049             would not work. If it first extracted the substring, then the substring
     2503    35050             would be left-justified into an alphanumeric temp. That temp would then
     2504    35051             be moved to the receiving operand, and the numeric move instructions all
     2505    35052             assume the operand to be right-justified. Z8EY cannot know if it is
     2506    35053             working on a sending operand or a receiving operand. Therefore, in this
     2507    35054             case, Z8E7 needs to walk the chain of ETT items, via LOPs, and see if
     2508    35055             there is a CVT anywhere in the chain before the ST item. If one is found,
     2509    35056             Z8E7 must replicate the whole chain of ETT items between the ILL item and
     2510    35057             the CVT, omitting the CVT itself. The CVT must be moved, with the
     2511    35058             opposite conversion, to the ROP side. */
     2512    35059    1   FIND_CVT:
     2513    35060    2        DO WHILE ETT$$ -> ETT.ID < %FIRST_ST;

  35060 27 013024   200012 471500       FIND_CVT     LDP1    ETT$$,,AUTO
        27 013025   100000 220100                    LDX0    0,,PR1
        27 013026   000751 100003                    CMPX0   489,DU
        27 013027   013172 603000 27                 TRC     s:35119

     2514    35061    2          IF ETT$$ -> ETT.ID = %CVT THEN

  35061 27 013030   200012 470500                    LDP0    ETT$$,,AUTO
        27 013031   000000 220100                    LDX0    0,,PR0
        27 013032   000115 100003                    CMPX0   77,DU
        27 013033   013163 601000 27                 TNZ     s:35102

PL6.E3A0      #001=Z8E7$STMT_ASSIGNMENT File=Z8E7.:Z8A6TSI                       SAT 08/09/97 11:35 Page:398
     2515    35062    3            DO; /* Need to move CVT to sending side */

     2516    35063    3              DNT$$ = ETT$$ -> ETT.ROP ->

  35063 27 013034   000002 471500                    LDP1    2,,PR0
        27 013035   100001 473500                    LDP3    1,,PR1
        27 013036   300006 236100                    LDQ     6,,PR3
        27 013037   200076 756100                    STQ     DNT$$,,AUTO

     2517    35064                       %IF CP6;
     2518    35065    3                  ETT.LOP ->
     2519    35066                       %ENDIF;
     2520    35067    3                  ST.DNT$;
     2521    35068                   %IF CP6;
     2522    35069    3              CALL CHARBIN (LIB_OFFSET, SUBSTR (DNT$$ -> DNT.TEXT.NAME, 6, 4));

  35069 27 013040   200076 474500                    LDP4    DNT$$,,AUTO
        27 013041   400004 221100                    LDX1    4,,PR4
        27 013042   000100 305500                    DTB
        27 013043   400006 030004                    NDSC9   6,,PR4                   cn=0,s=nosgn,sf=0,n=4
        27 013044   200430 000010                    NDSC9   I+2,,AUTO                cn=0,s=lsgnf,sf=0,n=8
        27 013045   200431 235100                    LDA     I+3,,AUTO
        27 013046   200060 755100                    STA     LIB_OFFSET,,AUTO

     2523    35070                   %ENDIF;
     2524    35071    3              IF /* Statement set up this way thanks to FORMAT.X */

  35071 27 013047   002723 115007                    CMPA    1491,DL
        27 013050   013054 601000 27                 TNZ     s:35080

     2525    35072                       %IF CP6;
     2526    35073    3                  LIB_OFFSET = %OP_EBCDIC_TO_ASCII
     2527    35074                       %ELSE;
     2529    35076                       %ENDIF;
     2530    35077    3                  THEN
     2531    35078    3                LIB_OFFSET = %OP_ASCII_TO_EBCDIC;

PL6.E3A0      #001=Z8E7$STMT_ASSIGNMENT File=Z8E7.:Z8A6TSI                       SAT 08/09/97 11:35 Page:399
  35078 27 013051   001662 235007                    LDA     946,DL
        27 013052   200060 755100                    STA     LIB_OFFSET,,AUTO
        27 013053   013056 710000 27                 TRA     s:35081

     2532    35079    3              ELSE
     2533    35080    3                LIB_OFFSET = %OP_ASCII_TO_GBCD;

  35080 27 013054   000262 235007                    LDA     178,DL
        27 013055   200060 755100                    STA     LIB_OFFSET,,AUTO

     2534    35081    3              CALL Z8CO$CREATE_LIBRARY_BASE (LIB_OFFSET, TABLE_ETT$);

  35081 27 013056   200102 631500                    EPPR1   TABLE_ETT$,,AUTO
        27 013057   200431 451500                    STP1    I+3,,AUTO
        27 013060   200060 633500                    EPPR3   LIB_OFFSET,,AUTO
        27 013061   200430 453500                    STP3    I+2,,AUTO
        27 013062   200430 630500                    EPPR0   I+2,,AUTO
        27 013063   000000 631400 28                 EPPR1   0
        27 013064   000000 701000 xent               TSX1    Z8CO$CREATE_LIBRARY_BASE
        27 013065   000000 011000                    NOP     0

     2535    35082    3              CALL Z8AF$FORME (%CVT,

  35082 27 013066   200007 236100                    LDQ     ROP$$,,AUTO
        27 013067   000001 036003                    ADLQ    1,DU
        27 013070   200433 756100                    STQ     I+5,,AUTO
        27 013071   200102 630500                    EPPR0   TABLE_ETT$,,AUTO
        27 013072   200432 450500                    STP0    I+4,,AUTO
        27 013073   000135 235000 28                 LDA     93
        27 013074   200430 757100                    STAQ    I+2,,AUTO
        27 013075   200430 630500                    EPPR0   I+2,,AUTO
        27 013076   000033 631400 28                 EPPR1   27
        27 013077   000000 701000 xent               TSX1    Z8AF$FORME
        27 013100   000000 011000                    NOP     0

     2536    35083    3                               ROP$$ -> LX_ETT_ITEM.ETT$,
     2537    35084    3                               TABLE_ETT$,
PL6.E3A0      #001=Z8E7$STMT_ASSIGNMENT File=Z8E7.:Z8A6TSI                       SAT 08/09/97 11:35 Page:400
     2538    35085    3                               ROP$$ -> LX_ETT_ITEM.ETT$);
     2539    35086    3              ETT$$ = ETT$$ -> ETT.LOP;

  35086 27 013101   200012 470500                    LDP0    ETT$$,,AUTO
        27 013102   000001 236100                    LDQ     1,,PR0
        27 013103   200012 756100                    STQ     ETT$$,,AUTO

     2540    35087    4              DO WHILE ETT_ITEM_COUNT > 0;

  35087 27 013104   200061 235100                    LDA     ETT_ITEM_COUNT,,AUTO
        27 013105   013157 604400 27                 TMOZ    s:35099

     2541    35088    4                TEMP$ = LOP$$ -> LX_ETT_ITEM.ETT$;

  35088 27 013106   200010 470500                    LDP0    LOP$$,,AUTO
        27 013107   000001 236100                    LDQ     1,,PR0
        27 013110   200011 756100                    STQ     TEMP$,,AUTO

     2542    35089    5                DO J = 2 TO ETT_ITEM_COUNT;

  35089 27 013111   000002 235007                    LDA     2,DL
        27 013112   200062 755100                    STA     J,,AUTO
        27 013113   013120 710000 27                 TRA     s:35091+1

     2543    35090    5                  TEMP$ = TEMP$ -> ETT.LOP;

  35090 27 013114   200011 470500                    LDP0    TEMP$,,AUTO
        27 013115   000001 236100                    LDQ     1,,PR0
        27 013116   200011 756100                    STQ     TEMP$,,AUTO

     2544    35091    5                END;

  35091 27 013117   200062 054100                    AOS     J,,AUTO
        27 013120   200062 236100                    LDQ     J,,AUTO
        27 013121   200061 116100                    CMPQ    ETT_ITEM_COUNT,,AUTO
        27 013122   013114 604400 27                 TMOZ    s:35090

PL6.E3A0      #001=Z8E7$STMT_ASSIGNMENT File=Z8E7.:Z8A6TSI                       SAT 08/09/97 11:35 Page:401
     2545    35092    4                TEMP_ROP$ = TEMP$ -> ETT.ROP;

  35092 27 013123   200011 470500                    LDP0    TEMP$,,AUTO
        27 013124   000002 236100                    LDQ     2,,PR0
        27 013125   200077 756100                    STQ     TEMP_ROP$,,AUTO

     2546    35093    4                ID1 = TEMP$ -> ETT.ID;

  35093 27 013126   000000 236100                    LDQ     0,,PR0
        27 013127   000022 772000                    QRL     18
        27 013130   200063 756100                    STQ     ID1,,AUTO

     2547    35094    4                IF ID1 = %OFF AND LIB_OFFSET = %OP_ASCII_TO_GBCD THEN

  35094 27 013131   000003 116007                    CMPQ    3,DL
        27 013132   013140 601000 27                 TNZ     s:35096
        27 013133   200060 235100                    LDA     LIB_OFFSET,,AUTO
        27 013134   000262 115007                    CMPA    178,DL
        27 013135   013140 601000 27                 TNZ     s:35096

     2548    35095    4                  TEMP_ROPCON.TYPE = %ALPHA6;

  35095 27 013136   000003 220003                    LDX0    3,DU
        27 013137   200077 440100                    SXL0    TEMP_ROP$,,AUTO

     2549    35096    4                CALL Z8AF$FORME (ID1, ETT$$, TEMP_ROP$, ETT$$);

  35096 27 013140   200012 631500                    EPPR1   ETT$$,,AUTO
        27 013141   200433 451500                    STP1    I+5,,AUTO
        27 013142   200077 633500                    EPPR3   TEMP_ROP$,,AUTO
        27 013143   200432 453500                    STP3    I+4,,AUTO
        27 013144   200012 634500                    EPPR4   ETT$$,,AUTO
        27 013145   200431 454500                    STP4    I+3,,AUTO
        27 013146   200063 635500                    EPPR5   ID1,,AUTO
        27 013147   200430 455500                    STP5    I+2,,AUTO
        27 013150   200430 630500                    EPPR0   I+2,,AUTO
        27 013151   000033 631400 28                 EPPR1   27
PL6.E3A0      #001=Z8E7$STMT_ASSIGNMENT File=Z8E7.:Z8A6TSI                       SAT 08/09/97 11:35 Page:402
        27 013152   000000 701000 xent               TSX1    Z8AF$FORME
        27 013153   000000 011000                    NOP     0

     2550    35097    4                ETT_ITEM_COUNT = ETT_ITEM_COUNT - 1;

  35097 27 013154   000001 336007                    LCQ     1,DL
        27 013155   200061 056100                    ASQ     ETT_ITEM_COUNT,,AUTO

     2551    35098    4              END; /* WHILE */

  35098 27 013156   013106 605400 27                 TPNZ    s:35088

     2552    35099    3              LOP$$ -> LX_ETT_ITEM.ETT$ = ETT$$;

  35099 27 013157   200012 236100                    LDQ     ETT$$,,AUTO
        27 013160   200010 470500                    LDP0    LOP$$,,AUTO
        27 013161   000001 756100                    STQ     1,,PR0

     2553    35100    3              EXIT FIND_CVT;

  35100 27 013162   013172 710000 27                 TRA     s:35119

     2554    35101    3            END;
     2555    35102    2          ETT$$ = ETT$$ -> ETT.LOP;

  35102 27 013163   000001 236100                    LDQ     1,,PR0
        27 013164   200012 756100                    STQ     ETT$$,,AUTO

     2556    35103    2          ETT_ITEM_COUNT = ETT_ITEM_COUNT + 1;

  35103 27 013165   200061 054100                    AOS     ETT_ITEM_COUNT,,AUTO

     2557    35104    2        END; /* FIND_CVT */

  35104 27 013166   200012 470500                    LDP0    ETT$$,,AUTO
        27 013167   000000 220100                    LDX0    0,,PR0
        27 013170   000751 100003                    CMPX0   489,DU
PL6.E3A0      #001=Z8E7$STMT_ASSIGNMENT File=Z8E7.:Z8A6TSI                       SAT 08/09/97 11:35 Page:403
        27 013171   013030 602000 27                 TNC     s:35061

     2558    35105
     2559    35106             /*V* The sign and truncation checks are only called
     2560    35107                if the "INFO" option is true.  This could lead
     2561    35108                to potentially dangerous code, if the severity
     2562    35109                of the info messages ever changed.  To warn the
     2563    35110                future maintenance persons of this a compile
     2564    35111                time error will be issued if the severity ever
     2565    35112                is upped to a warn or more.
     2566    35113             */
     2567    35114             %IF %E$POSSIBLE_TRUNCATION > 100;
     2570    35117             %ENDIF;
     2571    35118
     2572    35119    1        IF  COMCOM.OB.INFO

  35119 27 013172   000034 234000 xsym               SZN     COMCOM+28
        27 013173   013210 605000 27                 TPL     s:35123
        27 013174   200007 470500                    LDP0    ROP$$,,AUTO
        27 013175   000000 236100                    LDQ     0,,PR0
        27 013176   040000 316007                    CANQ    16384,DL
        27 013177   013210 601000 27                 TNZ     s:35123
        27 013200   200071 234100                    SZN     MOVE_STATEMENT,,AUTO
        27 013201   013210 605000 27                 TPL     s:35123

     2573    35120    1        AND NOT ROP$$ -> LX_ETT_ITEM.B.ALL
     2574    35121    1        AND MOVE_STATEMENT THEN
     2575    35122    1          CALL SIGN_AND_TRUNCATION_CHECKS (LOP$$, ROP$$);

  35122 27 013202   200007 631500                    EPPR1   ROP$$,,AUTO
        27 013203   200204 451500                    STP1    @LOP$$+1,,AUTO
        27 013204   200010 633500                    EPPR3   LOP$$,,AUTO
        27 013205   200203 453500                    STP3    @LABEL$+1,,AUTO
        27 013206   000342 701000 27                 TSX1    SIGN_AND_TRUNCATION_CHECKS
        27 013207   000000 011000                    NOP     0

     2576    35123    1        CALL MOVE_ID            (LOP$$, ROP$$, ID);
PL6.E3A0      #001=Z8E7$STMT_ASSIGNMENT File=Z8E7.:Z8A6TSI                       SAT 08/09/97 11:35 Page:404

  35123 27 013210   200014 630500                    EPPR0   ID,,AUTO
        27 013211   200167 450500                    STP0    @ROP$$+1,,AUTO
        27 013212   200007 631500                    EPPR1   ROP$$,,AUTO
        27 013213   200166 451500                    STP1    @LOP_ST$+1,,AUTO
        27 013214   200010 633500                    EPPR3   LOP$$,,AUTO
        27 013215   200165 453500                    STP3    LOWER_LX_ETT_ITEM+9,,AUTO
        27 013216   002742 701000 27                 TSX1    MOVE_ID
        27 013217   000000 011000                    NOP     0

     2577    35124                                                                    /*#28637*/
     2578    35125             /* If an occurs depending group item is the receiving
     2579    35126                item, adjust the receiving length to the maximum  */
     2580    35127
     2581    35128    2        IF ID = %MVAN  AND  NOT COMCOM.OB.COBOL_74 THEN DO ;

  35128 27 013220   200014 235100                    LDA     ID,,AUTO
        27 013221   000254 115007                    CMPA    172,DL
        27 013222   013340 601000 27                 TNZ     s:35211
        27 013223   000015 234000 xsym               SZN     COMCOM+13
        27 013224   013340 604000 27                 TMI     s:35211

     2582    35129
     2583    35130               %FISH (TRIAD = LOP$$ -> LX_ETT_ITEM.ETT$,
     2584    35131                      RTN   = LOP_ST$) ;

  35133 27 013225   200010 470500                    LDP0    LOP$$,,AUTO
        27 013226   000001 236100                    LDQ     1,,PR0
        27 013227   200067 756100                    STQ     LOP_ST$,,AUTO

  35134 27 013230   200067 471500                    LDP1    LOP_ST$,,AUTO
        27 013231   100000 220100                    LDX0    0,,PR1
        27 013232   000751 100003                    CMPX0   489,DU
        27 013233   013243 603000 27                 TRC     s:35140

  35135 27 013234   200067 470500                    LDP0    LOP_ST$,,AUTO
        27 013235   000001 236100                    LDQ     1,,PR0
PL6.E3A0      #001=Z8E7$STMT_ASSIGNMENT File=Z8E7.:Z8A6TSI                       SAT 08/09/97 11:35 Page:405
        27 013236   200067 756100                    STQ     LOP_ST$,,AUTO

  35136 27 013237   200067 470500                    LDP0    LOP_ST$,,AUTO
        27 013240   000000 220100                    LDX0    0,,PR0
        27 013241   000751 100003                    CMPX0   489,DU
        27 013242   013234 602000 27                 TNC     s:35135

     2585    35139
     2586    35140    2          IF LOP_ST$ -> VARIABLE.B.OCCURS_DEPENDING

  35140 27 013243   200067 470500                    LDP0    LOP_ST$,,AUTO
        27 013244   000003 236100                    LDQ     3,,PR0
        27 013245   000200 316003                    CANQ    128,DU
        27 013246   013340 600000 27                 TZE     s:35211
        27 013247   200010 471500                    LDP1    LOP$$,,AUTO
        27 013250   100001 473500                    LDP3    1,,PR1
        27 013251   300000 220100                    LDX0    0,,PR3
        27 013252   000004 100003                    CMPX0   4,DU
        27 013253   013340 601000 27                 TNZ     s:35211

     2587    35141    3          AND LOP$$ -> LX_ETT_ITEM.ETT$ -> ETT.ID = %SIZ THEN DO ;

     2588    35142
     2589    35143    3            CALL CHECK_IF_IN_SAME_GROUP (LOP_ST$,

  35143 27 013254   200103 634500                    EPPR4   IN_SAME_GROUP,,AUTO
        27 013255   200167 454500                    STP4    @ROP$$+1,,AUTO
        27 013256   300002 635500                    EPPR5   2,,PR3
        27 013257   200166 455500                    STP5    @LOP_ST$+1,,AUTO
        27 013260   200067 633500                    EPPR3   LOP_ST$,,AUTO
        27 013261   200165 453500                    STP3    LOWER_LX_ETT_ITEM+9,,AUTO
        27 013262   012264 701000 27                 TSX1    CHECK_IF_IN_SAME_GROUP
        27 013263   000000 011000                    NOP     0

     2590    35144    3                                         LOP$$ -> LX_ETT_ITEM.ETT$ -> ETT.ROP,
     2591    35145    3                                         IN_SAME_GROUP) ;
     2592    35146
PL6.E3A0      #001=Z8E7$STMT_ASSIGNMENT File=Z8E7.:Z8A6TSI                       SAT 08/09/97 11:35 Page:406
     2593    35147    4            IF IN_SAME_GROUP THEN DO ;

  35147 27 013264   200103 234100                    SZN     IN_SAME_GROUP,,AUTO
        27 013265   013340 605000 27                 TPL     s:35211

     2594    35148
     2595    35149                   %GET_LTS (@ID      = %DEPENDING_SIZE,
     2596    35150                             @ST$     = LOP_ST$,
     2597    35151                             @RETURN$ = LTS$$) ;

  35153 27 013266   200067 470500                    LDP0    LOP_ST$,,AUTO
        27 013267   000005 236100                    LDQ     5,,PR0
        27 013270   000001 116000 28                 CMPQ    1
        27 013271   013301 600000 27                 TZE     s:35187
        27 013272   000005 471500                    LDP1    5,,PR0
        27 013273   100000 220100                    LDX0    0,,PR1
        27 013274   001105 100003                    CMPX0   581,DU
        27 013275   013301 601000 27                 TNZ     s:35187

  35165 27 013276   100004 236100                    LDQ     4,,PR1
        27 013277   200013 756100                    STQ     LTS$$,,AUTO

  35185 27 013300   013313 710000 27                 TRA     s:35194

  35187 27 013301   000001 116000 28                 CMPQ    1
        27 013302   013311 600000 27                 TZE     s:35191
        27 013303   000005 471500                    LDP1    5,,PR0
        27 013304   100000 220100                    LDX0    0,,PR1
        27 013305   001120 100003                    CMPX0   592,DU
        27 013306   013311 601000 27                 TNZ     s:35191

  35189 27 013307   200013 756100                    STQ     LTS$$,,AUTO
        27 013310   013313 710000 27                 TRA     s:35194

  35191 27 013311   000001 236000 28                 LDQ     1
        27 013312   200013 756100                    STQ     LTS$$,,AUTO

PL6.E3A0      #001=Z8E7$STMT_ASSIGNMENT File=Z8E7.:Z8A6TSI                       SAT 08/09/97 11:35 Page:407
     2598    35194    4              ETT$$ = LTS$$ -> DEPENDING_SIZE.SIZE$ ;

  35194 27 013313   200013 471500                    LDP1    LTS$$,,AUTO
        27 013314   100001 236100                    LDQ     1,,PR1
        27 013315   200012 756100                    STQ     ETT$$,,AUTO

     2599    35195
     2600    35196    5              IF LOP$$ -> LX_ETT_ITEM.ETT$ -> ETT.ROP = ETT$$ THEN DO ;

  35196 27 013316   200010 473500                    LDP3    LOP$$,,AUTO
        27 013317   300001 474500                    LDP4    1,,PR3
        27 013320   400002 116100                    CMPQ    2,,PR4
        27 013321   013340 601000 27                 TNZ     s:35211

     2601    35197    5                LOP$$ -> LX_ETT_ITEM.ETT$ =

  35197 27 013322   400001 236100                    LDQ     1,,PR4
        27 013323   300001 756100                    STQ     1,,PR3

     2602    35198    5                  LOP$$ -> LX_ETT_ITEM.ETT$ -> ETT.LOP ;
     2603    35199
     2604    35200    5                IF LOP_ST$ -> VARIABLE.B.LENGTH_4096 THEN

  35200 27 013324   200067 470500                    LDP0    LOP_ST$,,AUTO
        27 013325   000003 236100                    LDQ     3,,PR0
        27 013326   004000 316003                    CANQ    2048,DU
        27 013327   013340 600000 27                 TZE     s:35211

     2605    35201    5                  CALL FORM_SIZE_FROM_LONG (LOP_ST$,

  35201 27 013330   200010 236100                    LDQ     LOP$$,,AUTO
        27 013331   000001 036003                    ADLQ    1,DU
        27 013332   200167 756100                    STQ     @ROP$$+1,,AUTO
        27 013333   200166 756100                    STQ     @LOP_ST$+1,,AUTO
        27 013334   200067 633500                    EPPR3   LOP_ST$,,AUTO
        27 013335   200165 453500                    STP3    LOWER_LX_ETT_ITEM+9,,AUTO
        27 013336   012207 701000 27                 TSX1    FORM_SIZE_FROM_LONG
PL6.E3A0      #001=Z8E7$STMT_ASSIGNMENT File=Z8E7.:Z8A6TSI                       SAT 08/09/97 11:35 Page:408
        27 013337   000000 011000                    NOP     0

     2606    35202    5                                            LOP$$ -> LX_ETT_ITEM.ETT$,
     2607    35203    5                                            LOP$$ -> LX_ETT_ITEM.ETT$) ;
     2608    35204
     2609    35205    5              END ; /* The SIZ ROP is the occurs depending size */

     2610    35206    4            END ; /* It's in the same group */

     2611    35207    3          END ; /* It's the occurs depending size */

     2612    35208
     2613    35209    2        END ; /* Alphanumeric move & not Cobol74 option */

     2614    35210
     2615    35211    1        CALL MOVE_OPTIMIZATIONS (LOP$$, ROP$$, ID);

  35211 27 013340   200014 630500                    EPPR0   ID,,AUTO
        27 013341   200167 450500                    STP0    @ROP$$+1,,AUTO
        27 013342   200007 631500                    EPPR1   ROP$$,,AUTO
        27 013343   200166 451500                    STP1    @LOP_ST$+1,,AUTO
        27 013344   200010 633500                    EPPR3   LOP$$,,AUTO
        27 013345   200165 453500                    STP3    LOWER_LX_ETT_ITEM+9,,AUTO
        27 013346   003354 701000 27                 TSX1    MOVE_OPTIMIZATIONS
        27 013347   000000 011000                    NOP     0

     2616    35212
     2617    35213    1        IF GBCD_NUMERIC_LOP THEN

  35213 27 013350   200074 234100                    SZN     GBCD_NUMERIC_LOP,,AUTO
        27 013351   013410 605000 27                 TPL     s:35600

     2618    35214    2          DO;

     2619    35215    2            CALL Z8CO$CREATE_LIBRARY_BASE (%OP_ASCII_TO_GBCD, TABLE_ETT$);

  35215 27 013352   200102 630500                    EPPR0   TABLE_ETT$,,AUTO
PL6.E3A0      #001=Z8E7$STMT_ASSIGNMENT File=Z8E7.:Z8A6TSI                       SAT 08/09/97 11:35 Page:409
        27 013353   200431 450500                    STP0    I+3,,AUTO
        27 013354   000142 236000 28                 LDQ     98
        27 013355   200430 756100                    STQ     I+2,,AUTO
        27 013356   200430 630500                    EPPR0   I+2,,AUTO
        27 013357   000000 631400 28                 EPPR1   0
        27 013360   000000 701000 xent               TSX1    Z8CO$CREATE_LIBRARY_BASE
        27 013361   000000 011000                    NOP     0

     2620    35216                 %NEW_ILL (@ID    = %MVT,
     2621    35217                           @FROM  = LOP$$ -> LX_ETT_ITEM.ETT$,
     2622    35218                           @TABLE = TABLE_ETT$,
     2623    35219                           @TO    = GBCD_LOP$);

  35491 27 013362   000036 236000 28                 LDQ     30
        27 013363   200430 756100                    STQ     I+2,,AUTO
        27 013364   200073 630500                    EPPR0   GBCD_LOP$,,AUTO
        27 013365   200435 450500                    STP0    I+7,,AUTO
        27 013366   200430 631500                    EPPR1   I+2,,AUTO
        27 013367   200434 451500                    STP1    I+6,,AUTO
        27 013370   000144 237000 28                 LDAQ    100
        27 013371   200432 757100                    STAQ    I+4,,AUTO
        27 013372   000052 236000 28                 LDQ     42
        27 013373   200431 756100                    STQ     I+3,,AUTO
        27 013374   200431 630500                    EPPR0   I+3,,AUTO
        27 013375   000042 631400 28                 EPPR1   34
        27 013376   000000 701000 xent               TSX1    Z8AN$NEW_ILL1
        27 013377   000000 011000                    NOP     0

  35492 27 013400   200010 470500                    LDP0    LOP$$,,AUTO
        27 013401   000001 236100                    LDQ     1,,PR0
        27 013402   000000 471400 6                  LDP1    ILL$
        27 013403   100001 756100                    STQ     1,,PR1

  35493 27 013404   200102 236100                    LDQ     TABLE_ETT$,,AUTO
        27 013405   100002 756100                    STQ     2,,PR1

  35494 27 013406   200073 236100                    LDQ     GBCD_LOP$,,AUTO
PL6.E3A0      #001=Z8E7$STMT_ASSIGNMENT File=Z8E7.:Z8A6TSI                       SAT 08/09/97 11:35 Page:410
        27 013407   100003 756100                    STQ     3,,PR1

     2624    35598    2          END;

     2625    35599
     2626    35600    1        RETURN;

  35600 27 013410   000000 702200 xent               TSX2  ! X66_ARET

     2627    35601
     2628    35602    1    Z8E7$POINTER_MOVE: ENTRY (LOP$, ROP$);

  35602 27 013411   000000 700200 xent  Z8E7$POINTE* TSX0  ! X66_AUTO_4
        27 013412   000440 000004                    ZERO    288,4

     2629    35603
     2630    35604    1          IF ROP$ = ADDR(NIL) THEN

  35604 27 013413   200004 470500                    LDP0    @ROP$,,AUTO
        27 013414   000000 236100                    LDQ     0,,PR0
        27 013415   000001 116000 28                 CMPQ    1
        27 013416   013447 601000 27                 TNZ     s:36305

     2631    35605    2            DO;

     2632    35606                   %NEW_ILL (@ID   = %MVPP,
     2633    35607                             @LOP  = LOP$ -> LX_ETT_ITEM.ETT$,
     2634    35608                             @ROP  = COMCOM.NULL_PTR$);

  35921 27 013417   200003 471500                    LDP1    @LOP$,,AUTO
        27 013420   100000 473500                    LDP3    0,,PR1
        27 013421   000036 236000 28                 LDQ     30
        27 013422   200430 756100                    STQ     I+2,,AUTO
        27 013423   300001 634500                    EPPR4   1,,PR3
        27 013424   200435 454500                    STP4    I+7,,AUTO
        27 013425   200430 633500                    EPPR3   I+2,,AUTO
        27 013426   200434 453500                    STP3    I+6,,AUTO
PL6.E3A0      #001=Z8E7$STMT_ASSIGNMENT File=Z8E7.:Z8A6TSI                       SAT 08/09/97 11:35 Page:411
        27 013427   000150 237000 28                 LDAQ    104
        27 013430   200432 757100                    STAQ    I+4,,AUTO
        27 013431   000052 236000 28                 LDQ     42
        27 013432   200431 756100                    STQ     I+3,,AUTO
        27 013433   200431 630500                    EPPR0   I+3,,AUTO
        27 013434   000042 631400 28                 EPPR1   34
        27 013435   000000 701000 xent               TSX1    Z8AN$NEW_ILL1
        27 013436   000000 011000                    NOP     0

  35924 27 013437   200003 470500                    LDP0    @LOP$,,AUTO
        27 013440   000000 471500                    LDP1    0,,PR0
        27 013441   100001 236100                    LDQ     1,,PR1
        27 013442   000000 473400 6                  LDP3    ILL$
        27 013443   300001 756100                    STQ     1,,PR3

  35925 27 013444   000556 236000 xsym               LDQ     COMCOM+366
        27 013445   300002 756100                    STQ     2,,PR3

     2635    35987    2            END;

  35987 27 013446   013500 710000 27                 TRA     s:36373

     2636    35988    1          ELSE
     2637    35989    2            DO;

     2638    35990                   %NEW_ILL (@ID   = %MVPP,
     2639    35991                             @LOP  = LOP$ -> LX_ETT_ITEM.ETT$,
     2640    35992                             @ROP  = ROP$ -> LX_ETT_ITEM.ETT$);

  36305 27 013447   200003 471500                    LDP1    @LOP$,,AUTO
        27 013450   100000 473500                    LDP3    0,,PR1
        27 013451   000036 236000 28                 LDQ     30
        27 013452   200430 756100                    STQ     I+2,,AUTO
        27 013453   300001 634500                    EPPR4   1,,PR3
        27 013454   200435 454500                    STP4    I+7,,AUTO
        27 013455   200430 633500                    EPPR3   I+2,,AUTO
        27 013456   200434 453500                    STP3    I+6,,AUTO
PL6.E3A0      #001=Z8E7$STMT_ASSIGNMENT File=Z8E7.:Z8A6TSI                       SAT 08/09/97 11:35 Page:412
        27 013457   000150 237000 28                 LDAQ    104
        27 013460   200432 757100                    STAQ    I+4,,AUTO
        27 013461   000052 236000 28                 LDQ     42
        27 013462   200431 756100                    STQ     I+3,,AUTO
        27 013463   200431 630500                    EPPR0   I+3,,AUTO
        27 013464   000042 631400 28                 EPPR1   34
        27 013465   000000 701000 xent               TSX1    Z8AN$NEW_ILL1
        27 013466   000000 011000                    NOP     0

  36308 27 013467   200003 470500                    LDP0    @LOP$,,AUTO
        27 013470   000000 471500                    LDP1    0,,PR0
        27 013471   100001 236100                    LDQ     1,,PR1
        27 013472   000000 473400 6                  LDP3    ILL$
        27 013473   300001 756100                    STQ     1,,PR3

  36309 27 013474   200004 471500                    LDP1    @ROP$,,AUTO
        27 013475   100000 474500                    LDP4    0,,PR1
        27 013476   400001 236100                    LDQ     1,,PR4
        27 013477   300002 756100                    STQ     2,,PR3

     2641    36371    2            END;

     2642    36372
     2643    36373    1          IF LOP$ -> LX_ETT_ITEM.ETT$ -> ETT.LOP -> SCALAR.B.COMPILER_CREATED THEN

  36373 27 013500   000000 471500                    LDP1    0,,PR0
        27 013501   100001 474500                    LDP4    1,,PR1
        27 013502   400001 475500                    LDP5    1,,PR4
        27 013503   500003 236100                    LDQ     3,,PR5
        27 013504   100000 316003                    CANQ    32768,DU
        27 013505   013517 600000 27                 TZE     s:36379

     2644    36374    2            DO;

     2645    36375    2              ADDR(O1COM.ILS_LIST) -> ILS_LIST.TAIL$ -> ILS.ID = %OPA;

  36375 27 013506   000742 220003                    LDX0    482,DU
PL6.E3A0      #001=Z8E7$STMT_ASSIGNMENT File=Z8E7.:Z8A6TSI                       SAT 08/09/97 11:35 Page:413
        27 013507   000020 476400 xsym               LDP6    O1COM+16
        27 013510   600000 740100                    STX0    0,,PR6

     2646    36376    2              ADDR(O1COM.ILS_LIST) -> ILS_LIST.TAIL$ -> ILS.DEF = ADDR(NIL);

  36376 27 013511   000001 236000 28                 LDQ     1
        27 013512   000020 471400 xsym               LDP1    O1COM+16
        27 013513   100004 756100                    STQ     4,,PR1

     2647    36377    2              ADDR(O1COM.ILS_LIST) -> ILS_LIST.TAIL$ -> ILS.B.CDEF = '1'B;

  36377 27 013514   000020 471400 xsym               LDP1    O1COM+16
        27 013515   400000 236003                    LDQ     -131072,DU
        27 013516   100001 256100                    ORSQ    1,,PR1

     2648    36378    2            END;

     2649    36379    1       RETURN;

  36379 27 013517   000000 702200 xent               TSX2  ! X66_ARET
     2650    36380
     2651    36381             /*V*
     2652    36382                               END OF MAIN BODY
     2653    36383             */
     2654    36384
     2655    36385    1   END Z8E7$STMT_ASSIGNMENT;
     2656    36386        %EOD;

PL6.E3A0      #001=Z8E7$STMT_ASSIGNMENT File=Z8E7.:Z8A6TSI                       SAT 08/09/97 11:35 Page:414
--  Include file information  --

   Z8A_QLT.:Z8A6TOU  cannot be made into a system file and is referenced.
   Z8E_DML.:Z8A6TOU  is referenced.
   Z8A_MKCN.:Z8A6TOU  cannot be made into a system file and is referenced.
   Z8A_COMCOM.:Z8A6TOU  cannot be made into a system file and is referenced.
   Z8A_ERR_NUMS.:Z8A6TOU  is referenced.
   Z8A_LTS.:Z8A6TOU  cannot be made into a system file and is referenced.
   Z8A_ST.:Z8A6TOU  cannot be made into a system file and is referenced.
   Z8A_DNT.:Z8A6TOU  cannot be made into a system file and is referenced.
   Z8A_ETT.:Z8A6TOU  cannot be made into a system file and is referenced.
   Z8A_DESC.:Z8A6TOU  cannot be made into a system file and is referenced.
   Z8A_TYPES.:Z8A6TOU  is referenced.
   Z8A_ILS.:Z8A6TOU  cannot be made into a system file and is referenced.
   Z8A_LIBRARY.:Z8A6TOU  cannot be made into a system file and is referenced.
   Z8A_ILL.:Z8A6TOU  cannot be made into a system file and is referenced.
   Z8E_STATEMNT.:Z8A6TOU  is referenced.
   Z8E_ABSSYN.:Z8A6TOU  cannot be made into a system file and is referenced.
   Z8E_ILS_LIST.:Z8A6TOU  is referenced.
   Z8E_O1COM.:Z8A6TOU  cannot be made into a system file and is referenced.
   Z8E_WINDOW.:Z8A6TOU  is referenced.
   Z8E_NEW_ILL.:Z8A6TOU  is referenced.
   Z8E_MACROS.:Z8A6TOU  cannot be made into a system file and is referenced.
   Z8A_LEX_SYMB.:Z8A6TOU  cannot be made into a system file and is referenced.
   Z8E_STACKS.:Z8A6TOU  cannot be made into a system file and is referenced.
   Z9A_FLAGS.:Z8A6TOU  is referenced.
   X8A_COM_MACS.:X8A6TOU  is referenced.
   Z8A_NAMES.:Z8A6TOU  is referenced.
   Z8A_SUPP_MAC.:Z8A6TOU  is referenced.
   Z8A_DEFC.:Z8A6TOU  cannot be made into a system file and is referenced.
      No diagnostics issued in procedure Z8E7$STMT_ASSIGNMENT.
PL6.E3A0      #001=Z8E7$STMT_ASSIGNMENT File=Z8E7.:Z8A6TSI                       SAT 08/09/97 11:35 Page:415

 **** Variables and constants ****

  ****  Section 000 LblCom ITERATION

  ****  Scalars and arrays  ****
OctLoc.c.b A Datatyp(siz) R M Lvl/name                 OctLoc.c.b A Datatyp(siz) R M Lvl/name

     0-0-0/w SBIN        r     1 ITERATION

  ****  Section 001 LblCom LEX_SYMBOL

  ****  Scalars and arrays  ****
OctLoc.c.b A Datatyp(siz) R M Lvl/name                 OctLoc.c.b A Datatyp(siz) R M Lvl/name

     0-0-0/w STRC(3240)  r     1 LEX_SYMBOL                 0-0-0/w STRC(3240)        1 LEX_SYMBOL_WORDS

  ****  Section 002 LblCom CURRENT_LEX_SYMBOL$

  ****  Scalars and arrays  ****
OctLoc.c.b A Datatyp(siz) R M Lvl/name                 OctLoc.c.b A Datatyp(siz) R M Lvl/name

     0-0-0/w PTR         r     1 CURRENT_LEX_SYMBOL$

  ****  Section 003 LblCom TEMP_LEX_SYMBOL

  ****  Scalars and arrays  ****
OctLoc.c.b A Datatyp(siz) R M Lvl/name                 OctLoc.c.b A Datatyp(siz) R M Lvl/name

     0-0-0/w STRC(3240)        1 TEMP_LEX_SYMBOL

  ****  Section 004 LblCom TEMP_LEX_SYMBOL2

  ****  Scalars and arrays  ****
OctLoc.c.b A Datatyp(siz) R M Lvl/name                 OctLoc.c.b A Datatyp(siz) R M Lvl/name

     0-0-0/w STRC(3240)        1 TEMP_LEX_SYMBOL2

PL6.E3A0      #001=Z8E7$STMT_ASSIGNMENT File=Z8E7.:Z8A6TSI                       SAT 08/09/97 11:35 Page:416
  ****  Section 005 LblCom TEMP_LX_NODE

  ****  Scalars and arrays  ****
OctLoc.c.b A Datatyp(siz) R M Lvl/name                 OctLoc.c.b A Datatyp(siz) R M Lvl/name

     0-0-0/d STRC(288)         1 TEMP_LX_NODE

  ****  Section 006 LblCom ILL$

  ****  Scalars and arrays  ****
OctLoc.c.b A Datatyp(siz) R M Lvl/name                 OctLoc.c.b A Datatyp(siz) R M Lvl/name

     0-0-0/w PTR         r     1 ILL$

  ****  Section 007 LblCom ILL_

  ****  Scalars and arrays  ****
OctLoc.c.b A Datatyp(siz) R M Lvl/name                 OctLoc.c.b A Datatyp(siz) R M Lvl/name

     0-0-0/w STRC(180)         1 ILL_

  ****  Section 008 LblCom ILS$

  ****  Scalars and arrays  ****
OctLoc.c.b A Datatyp(siz) R M Lvl/name                 OctLoc.c.b A Datatyp(siz) R M Lvl/name

     0-0-0/w PTR         r     1 ILS$

  ****  Section 009 LblCom ILS_

  ****  Scalars and arrays  ****
OctLoc.c.b A Datatyp(siz) R M Lvl/name                 OctLoc.c.b A Datatyp(siz) R M Lvl/name

     0-0-0/w STRC(180)         1 ILS_

  ****  Section 010 LblCom ETT$

PL6.E3A0      #001=Z8E7$STMT_ASSIGNMENT File=Z8E7.:Z8A6TSI                       SAT 08/09/97 11:35 Page:417
  ****  Scalars and arrays  ****
OctLoc.c.b A Datatyp(siz) R M Lvl/name                 OctLoc.c.b A Datatyp(siz) R M Lvl/name

     0-0-0/w PTR         r     1 ETT$

  ****  Section 011 LblCom HEAD_ETT$

  ****  Scalars and arrays  ****
OctLoc.c.b A Datatyp(siz) R M Lvl/name                 OctLoc.c.b A Datatyp(siz) R M Lvl/name

     0-0-0/w PTR               1 HEAD_ETT$

  ****  Section 012 LblCom ETT_BUCKETS

  ****  Scalars and arrays  ****
OctLoc.c.b A Datatyp(siz) R M Lvl/name                 OctLoc.c.b A Datatyp(siz) R M Lvl/name

     0-0-0/w PTR               1 ETT_BUCKETS(0:511)

  ****  Section 013 LblCom ETT_

  ****  Scalars and arrays  ****
OctLoc.c.b A Datatyp(siz) R M Lvl/name                 OctLoc.c.b A Datatyp(siz) R M Lvl/name

     0-0-0/w STRC(180)         1 ETT_

  ****  Section 014 LblCom DNT$

  ****  Scalars and arrays  ****
OctLoc.c.b A Datatyp(siz) R M Lvl/name                 OctLoc.c.b A Datatyp(siz) R M Lvl/name

     0-0-0/w PTR         r     1 DNT$

  ****  Section 015 LblCom DNT_

  ****  Scalars and arrays  ****
OctLoc.c.b A Datatyp(siz) R M Lvl/name                 OctLoc.c.b A Datatyp(siz) R M Lvl/name
PL6.E3A0      #001=Z8E7$STMT_ASSIGNMENT File=Z8E7.:Z8A6TSI                       SAT 08/09/97 11:35 Page:418

     0-0-0/w STRC(180)         1 DNT_

  ****  Section 016 LblCom DNT_BUCKET_NUMBER

  ****  Scalars and arrays  ****
OctLoc.c.b A Datatyp(siz) R M Lvl/name                 OctLoc.c.b A Datatyp(siz) R M Lvl/name

     0-0-0/w UBIN              1 DNT_BUCKET_NUMBER

  ****  Section 017 LblCom DNT_OF_1$

  ****  Scalars and arrays  ****
OctLoc.c.b A Datatyp(siz) R M Lvl/name                 OctLoc.c.b A Datatyp(siz) R M Lvl/name

     0-0-0/w PTR               1 DNT_OF_1$

  ****  Section 018 LblCom ST$

  ****  Scalars and arrays  ****
OctLoc.c.b A Datatyp(siz) R M Lvl/name                 OctLoc.c.b A Datatyp(siz) R M Lvl/name

     0-0-0/w PTR         r     1 ST$

  ****  Section 019 LblCom ST_

  ****  Scalars and arrays  ****
OctLoc.c.b A Datatyp(siz) R M Lvl/name                 OctLoc.c.b A Datatyp(siz) R M Lvl/name

     0-0-0/w STRC(180)   r     1 ST_

  ****  Section 020 LblCom LTS$

  ****  Scalars and arrays  ****
OctLoc.c.b A Datatyp(siz) R M Lvl/name                 OctLoc.c.b A Datatyp(siz) R M Lvl/name

     0-0-0/w PTR               1 LONG_ITEM$                 0-0-0/w PTR         r     1 LTS$
PL6.E3A0      #001=Z8E7$STMT_ASSIGNMENT File=Z8E7.:Z8A6TSI                       SAT 08/09/97 11:35 Page:419

  ****  Section 021 LblCom LTS_

  ****  Scalars and arrays  ****
OctLoc.c.b A Datatyp(siz) R M Lvl/name                 OctLoc.c.b A Datatyp(siz) R M Lvl/name

     0-0-0/w STRC(180)   r     1 LTS_

  ****  Section 022 LblCom MKCN

  ****  Scalars and arrays  ****
OctLoc.c.b A Datatyp(siz) R M Lvl/name                 OctLoc.c.b A Datatyp(siz) R M Lvl/name

     0-0-0/w STRC(72)    r     1 MKCN

  ****  Section 023 LblCom QLT$

  ****  Scalars and arrays  ****
OctLoc.c.b A Datatyp(siz) R M Lvl/name                 OctLoc.c.b A Datatyp(siz) R M Lvl/name

     0-0-0/w PTR         r     1 QLT$

  ****  Section 024 LblCom PREV_01_QLT$

  ****  Scalars and arrays  ****
OctLoc.c.b A Datatyp(siz) R M Lvl/name                 OctLoc.c.b A Datatyp(siz) R M Lvl/name

     0-0-0/w PTR               1 PREV_01_QLT$

  ****  Section 025 LblCom QLT_

  ****  Scalars and arrays  ****
OctLoc.c.b A Datatyp(siz) R M Lvl/name                 OctLoc.c.b A Datatyp(siz) R M Lvl/name

     0-0-0/w STRC(180)         1 QLT_

  ****  Section 026 RoData Z8E7$STMT_ASSIGNMENT
PL6.E3A0      #001=Z8E7$STMT_ASSIGNMENT File=Z8E7.:Z8A6TSI                       SAT 08/09/97 11:35 Page:420

  ****  Scalars and arrays  ****
OctLoc.c.b A Datatyp(siz) R M Lvl/name                 OctLoc.c.b A Datatyp(siz) R M Lvl/name

     0-0-0/w STRC(3438)  r     1 MOVE_MATRIX              140-0-0/c CHAR        r     1 ZERO_BYTE

  ****  Auto variables  ****

  ****  Scalars and arrays  ****
OctLoc.c.b A Datatyp(siz) R M Lvl/name                 OctLoc.c.b A Datatyp(siz) R M Lvl/name

   203-0-0/w PTR         r     1 @ETT$                    166-0-0/w PTR         r     1 @ETT$$
   205-0-0/w PTR         r     1 @FROM$$                  205-0-0/w PTR         r     1 @FROM$$
   167-0-0/w PTR         r     1 @ID                      167-0-0/w PTR         r     1 @ID
   205-0-0/w PTR         r     1 @ID                      206-0-0/w PTR         r     1 @ID
   206-0-0/w PTR         r     1 @ID                      205-0-0/w PTR         r     1 @ID
   167-0-0/w PTR         r     1 @IN_SAME_GROUP           177-0-0/w PTR         r     1 @ITEM$
     5-0-0/w PTR         r     1 @LABEL$                  167-0-0/w PTR         r     1 @LABEL$
   201-0-0/w PTR         r     1 @LABEL$                  201-0-0/w PTR         r     1 @LABEL$
   201-0-0/w PTR         r     1 @LABEL$                  202-0-0/w PTR         r     1 @LABEL$
   204-0-0/w PTR         r     1 @LIT$                      3-0-0/w PTR         r     1 @LOP$
   165-0-0/w PTR         r     1 @LOP$                    177-0-0/w PTR         r     1 @LOP$
   203-0-0/w PTR         r     1 @LOP$                    203-0-0/w PTR         r     1 @LOP$
   177-0-0/w PTR         r     1 @LOP$$                   177-0-0/w PTR         r     1 @LOP$$
   177-0-0/w PTR         r     1 @LOP$$                   165-0-0/w PTR         r     1 @LOP$$
   171-0-0/w PTR         r     1 @LOP$$                   165-0-0/w PTR         r     1 @LOP$$
   203-0-0/w PTR         r     1 @LOP$$                   165-0-0/w PTR         r     1 @LOP$$
   203-0-0/w PTR         r     1 @LOP$$                   203-0-0/w PTR         r     1 @LOP$$
   215-0-0/w PTR         r     1 @LOP$$                   203-0-0/w PTR         r     1 @LOP$$
   165-0-0/w PTR         r     1 @LOP_ST$                 200-0-0/w PTR         r     1 @LOWER
   203-0-0/w PTR         r     1 @REC$                    203-0-0/w PTR         r     1 @REC$
   167-0-0/w PTR         r     1 @RETURN$$                  4-0-0/w PTR         r     1 @ROP$
   166-0-0/w PTR         r     1 @ROP$                    200-0-0/w PTR         r     1 @ROP$
   204-0-0/w PTR         r     1 @ROP$                    204-0-0/w PTR         r     1 @ROP$
   177-0-0/w PTR         r     1 @ROP$                    200-0-0/w PTR         r     1 @ROP$$
   200-0-0/w PTR         r     1 @ROP$$                   200-0-0/w PTR         r     1 @ROP$$
   166-0-0/w PTR         r     1 @ROP$$                   172-0-0/w PTR         r     1 @ROP$$
PL6.E3A0      #001=Z8E7$STMT_ASSIGNMENT File=Z8E7.:Z8A6TSI                       SAT 08/09/97 11:35 Page:421
   166-0-0/w PTR         r     1 @ROP$$                   204-0-0/w PTR         r     1 @ROP$$
   166-0-0/w PTR         r     1 @ROP$$                   204-0-0/w PTR         r     1 @ROP$$
   204-0-0/w PTR         r     1 @ROP$$                   216-0-0/w PTR         r     1 @ROP$$
   204-0-0/w PTR         r     1 @ROP$$                   166-0-0/w PTR         r     1 @ROP$$
   204-0-0/w PTR         r     1 @SEND$                   237-0-0/w PTR         r     1 @ST$$
   165-0-0/w PTR         r     1 @ST$$                      6-0-0/w PTR         r     1 @STATEMENT_TYPE
   240-0-0/w PTR         r     1 @TYPE_DESC               202-0-0/w PTR         r     1 @TYPE_DESC
   201-0-0/w PTR         r     1 @UPPER                   424-0-0/w PTR         r     1 ADDR_LIT$
   231-0-0/w PTR         r     1 ADDR_LIT$                216-0-0/w PTR         r     1 ARGLIST$
   213-0-0/w CHAR(12)    r     1 CHAR_DESC_BLK             36-0-0/w UBIN              1 CN
   174-0-0/w UBIN        r     1 CODE                     221-0-0/w UBIN        r     1 COLUMN
   276-0-0/d STRC(288)   r     1 COMPARE                  206-0-0/w PTR         r     1 CONST$
   171-0-0/w PTR         r     1 CONST$$                  221-0-0/c CHAR(512)   r     1 CONST_BUF
   206-0-0/c CHAR(63)    r     1 CONST_BUF                236-0-0/w STRC(144)   r     1 CONST_DESC
    30-0-0/w STRC              1 DESC                     250-0-0/d STRC(288)   r     1 DESC
   213-0-0/w STRC(108)   r     1 DESC_BLK                 217-0-0/w PTR         r     1 DESC_LIST$
   425-0-0/w SBIN        r     1 DIFF_LEN                  76-0-0/w PTR         r     1 DNT$$
   260-0-0/d STRC(288)   r     1 DOLLAR                   212-0-0/w PTR         r     1 DOLLAR$
    *0-0-0/w PTR         r     1 ETT$                      12-0-0/w PTR         r     1 ETT$$
   173-0-0/w PTR         r     1 ETT$$                     *0-0-0/w PTR         r     1 ETT$$
    61-0-0/w SBIN        r     1 ETT_ITEM_COUNT           205-0-0/w PTR         r     1 EXIT_LABEL$
   207-0-0/c CHAR        r     1 FILL_CHAR                207-0-0/c STRC(9)     r     1 FILL_CHAR1
   207-0-0/c STRC(9)     r     1 FILL_CHAR2                15-0-0/w PTR               1 FROM$$
   172-0-0/w PTR         r     1 FROM$$                    *0-0-0/w PTR         r     1 FROM$$
    *0-0-0/w PTR         r     1 FROM$$                    73-0-0/w PTR         r     1 GBCD_LOP$
    74-0-0/b BIT         r     1 GBCD_NUMERIC_LOP         426-0-0/w SBIN        r     1 I
   252-0-0/w SBIN        r     1 I                         14-0-0/w SBIN        r     1 ID
    *0-0-0/w SBIN        r     1 ID                        *0-0-0/w SBIN        r     1 ID
    *0-0-0/w SBIN        r     1 ID                        *0-0-0/w SBIN        r     1 ID
    *0-0-0/w SBIN        r     1 ID                        *0-0-0/w SBIN        r     1 ID
    63-0-0/w UBIN        r     1 ID1                      103-0-0/b BIT         r     1 IN_SAME_GROUP
    *0-0-0/b BIT         r     1 IN_SAME_GROUP             *0-0-0/w PTR         r     1 ITEM$
   200-0-0/w PTR               1 ITEM_ST$                  62-0-0/w SBIN        r     1 J
    *0-0-0/w PTR         r     1 LABEL$                    *0-0-0/w PTR         r     1 LABEL$
    *0-0-0/w PTR         r     1 LABEL$                    *0-0-0/w PTR         r     1 LABEL$
    *0-0-0/w PTR         r     1 LABEL$                    *0-0-0/w PTR         r     1 LABEL$
    35-0-0/w SBIN              1 LENGTH                   423-0-0/w SBIN        r     1 LEN_LIT
PL6.E3A0      #001=Z8E7$STMT_ASSIGNMENT File=Z8E7.:Z8A6TSI                       SAT 08/09/97 11:35 Page:422
   230-0-0/w SBIN        r     1 LEN_LIT                  422-0-0/w SBIN        r     1 LEN_STR
   227-0-0/w SBIN        r     1 LEN_STR                   60-0-0/w UBIN        r     1 LIB_OFFSET
   220-0-0/w UBIN        r     1 LINE                      *0-0-0/w PTR         r     1 LIT$
   216-0-0/d STRC(288)   r     1 LIT_LEN                  220-0-0/w PTR         r     1 LIT_LENGTH$
   226-0-0/w PTR         r     1 LIT_LENGTH$              170-0-0/w PTR         r     1 LONG$$
   226-0-0/d STRC(288)   r     1 LOOP_COUNTER              *0-0-0/w PTR         r     1 LOP$
    *0-0-0/w PTR         r     1 LOP$                      *0-0-0/w PTR         r     1 LOP$
    *0-0-0/w PTR         r     1 LOP$                      *0-0-0/w PTR         r     1 LOP$
    10-0-0/w PTR         r     1 LOP$$                     *0-0-0/w PTR         r     1 LOP$$
    *0-0-0/w PTR         r     1 LOP$$                     *0-0-0/w PTR         r     1 LOP$$
    *0-0-0/w PTR         r     1 LOP$$                     *0-0-0/w PTR         r     1 LOP$$
    *0-0-0/w PTR         r     1 LOP$$                     *0-0-0/w PTR         r     1 LOP$$
    *0-0-0/w PTR         r     1 LOP$$                     *0-0-0/w PTR         r     1 LOP$$
    *0-0-0/w PTR         r     1 LOP$$                     *0-0-0/w PTR         r     1 LOP$$
    *0-0-0/w PTR         r     1 LOP$$                     44-0-0/w STRC(144)         1 LOP_DESC
   210-0-0/w STRC(144)   r     1 LOP_DESC                 175-0-0/w STRC(144)   r     1 LOP_DESC
   232-0-0/w STRC(144)   r     1 LOP_DESC                  54-0-0/w SBIN              1 LOP_LENGTH
    16-0-0/w PTR         r     1 LOP_LENGTH$              217-0-0/w PTR         r     1 LOP_LENGTH$
   171-0-0/w PTR         r     1 LOP_QLT$                  55-0-0/w SBIN              1 LOP_SCALE
    67-0-0/w PTR         r     1 LOP_ST$                  171-0-0/w PTR         r     1 LOP_ST$
   167-0-0/w PTR         r     1 LOP_ST$                  174-0-0/w PTR         r     1 LOP_ST$
   170-0-0/w PTR         r     1 LOP_ST$                  206-0-0/w PTR               1 LOP_ST$
   206-0-0/w PTR         r     1 LOP_ST$                  210-0-0/w PTR         r     1 LOP_ST$
    *0-0-0/w PTR         r     1 LOP_ST$                   *0-0-0/w SBIN        r     1 LOWER
   100-0-0/w PTR               1 LOWER$                   204-0-0/w PTR         r     1 LOWER$
   154-0-0/d STRC(288)   r     1 LOWER_LX_ETT_ITEM         13-0-0/w PTR         r     1 LTS$$
   306-0-0/d STRC(288)   r     1 MINUS                    170-0-0/w BIT         r     1 MORE_OPTIMIZATIONS
    71-0-0/w BIT         r     1 MOVE_STATEMENT            17-0-0/w STRC(324)         1 NAME
    75-0-0/w PTR               1 NEL$$                    170-0-0/w PTR         r     1 NEL$$
   217-0-0/w PTR         r     1 NEL$$                    241-0-0/w PTR         r     1 NEL$$
   207-0-0/w PTR         r     1 NEL$$                    242-0-0/d STRC(288)   r     1 NUM_CONST
   236-0-0/d STRC(288)   r     1 NUM_MOVES                336-0-0/d STRC(288)   r     1 ONE
    70-0-0/w BIT         r     1 ON_SIZE                  220-0-0/d STRC(288)   r     1 PLIST
   316-0-0/d STRC(288)   r     1 PLUS                     240-0-0/d STRC(288)   r     1 REC
    *0-0-0/w PTR         r     1 REC$                      *0-0-0/w PTR         r     1 REC$
   205-0-0/w STRC(144)   r     1 REC_DESC                 231-0-0/w SBIN        r     1 REC_LEFT
   223-0-0/w UBIN        r     1 REC_LEN                  233-0-0/w SBIN        r     1 REC_RIGHT
PL6.E3A0      #001=Z8E7$STMT_ASSIGNMENT File=Z8E7.:Z8A6TSI                       SAT 08/09/97 11:35 Page:423
   227-0-0/w SBIN        r     1 REC_SF                   225-0-0/w BIT (2)     r     1 REC_SIGN
   215-0-0/w PTR         r     1 REC_ST$                  246-0-0/d STRC(288)   r     1 REM_CHARS
   421-0-0/w SBIN        r     1 REM_CHARS                 *0-0-0/w PTR         r     1 RETURN$$
    *0-0-0/w PTR         r     1 ROP$                      *0-0-0/w PTR         r     1 ROP$
    *0-0-0/w PTR         r     1 ROP$                      *0-0-0/w PTR         r     1 ROP$
    *0-0-0/w PTR         r     1 ROP$                      *0-0-0/w PTR         r     1 ROP$
     7-0-0/w PTR         r     1 ROP$$                     *0-0-0/w PTR         r     1 ROP$$
    *0-0-0/w PTR         r     1 ROP$$                     *0-0-0/w PTR         r     1 ROP$$
    *0-0-0/w PTR         r     1 ROP$$                     *0-0-0/w PTR         r     1 ROP$$
    *0-0-0/w PTR         r     1 ROP$$                     *0-0-0/w PTR         r     1 ROP$$
    *0-0-0/w PTR         r     1 ROP$$                     *0-0-0/w PTR         r     1 ROP$$
    *0-0-0/w PTR         r     1 ROP$$                     *0-0-0/w PTR         r     1 ROP$$
    *0-0-0/w PTR         r     1 ROP$$                     *0-0-0/w PTR         r     1 ROP$$
    50-0-0/w STRC(144)   r     1 ROP_DESC                  56-0-0/w SBIN              1 ROP_LENGTH
   172-0-0/w PTR         r     1 ROP_QLT$                  57-0-0/w SBIN              1 ROP_SCALE
    72-0-0/w PTR         r     1 ROP_ST$                  173-0-0/w PTR         r     1 ROP_ST$
   205-0-0/w PTR         r     1 ROP_ST$                  171-0-0/w PTR         r     1 ROP_ST$
   205-0-0/w PTR         r     1 ROP_ST$                  211-0-0/w PTR         r     1 ROP_ST$
   170-0-0/w PTR         r     1 ROP_ST$                   37-0-0/w UBIN              1 SA
   346-0-0/d STRC(288)   r     1 SAVED_ILS_LIST            34-0-0/w SBIN              1 SCALE
   230-0-0/d STRC(288)   r     1 SEND                      *0-0-0/w PTR         r     1 SEND$
   211-0-0/w STRC(144)   r     1 SEND_DESC                230-0-0/w SBIN        r     1 SEND_LEFT
   222-0-0/w UBIN        r     1 SEND_LEN                 232-0-0/w SBIN        r     1 SEND_RIGHT
   226-0-0/w SBIN        r     1 SEND_SF                  224-0-0/w BIT (2)     r     1 SEND_SIGN
   216-0-0/w PTR         r     1 SEND_ST$                  31-0-0/w BIT (2)           1 SIGN
    66-0-0/w PTR         r     1 ST$$                      *0-0-0/w PTR         r     1 ST$$
    *0-0-0/w PTR         r     1 ST$$                      *0-0-0/w SBIN        r     1 STATEMENT_TYPE
    64-0-0/w SBIN        r     1 STATEMENT_TYPE_A         206-0-0/d STRC(288)   r     1 STR_LEN
   256-0-0/d STRC(288)   r     1 SUBSTRING                266-0-0/d STRC(288)   r     1 SUBSTRING2
   201-0-0/w UBIN        r     1 SYMBOL                    33-0-0/w BIT (2)           1 TA
   102-0-0/w PTR         r     1 TABLE_ETT$                11-0-0/w PTR         r     1 TEMP$
   202-0-0/w PTR         r     1 TEMP$                    202-0-0/w PTR         r     1 TEMP$
   203-0-0/w PTR         r     1 TEMP$                    104-0-0/d STRC(288)   r     1 TEMP_LOP_ITEM
   124-0-0/d STRC(288)   r     1 TEMP_LX_ETT_ITEM         134-0-0/d STRC(288)   r     1 TEMP_LX_TERMINAL
    77-0-0/w PTR         r     1 TEMP_ROP$                 77-0-0/w STRC        r     1 TEMP_ROPCON
   114-0-0/d STRC(288)   r     1 TEMP_ROP_ITEM            210-0-0/w SBIN        r     1 THREE_OPERAND_ID
   210-0-0/w SBIN        r     1 THREE_OPERAND_ID          32-0-0/w BIT               1 TN
PL6.E3A0      #001=Z8E7$STMT_ASSIGNMENT File=Z8E7.:Z8A6TSI                       SAT 08/09/97 11:35 Page:424
    65-0-0/w PTR               1 TREE$                    205-0-0/w PTR         r     1 TREE$
   207-0-0/w SBIN        r     1 TWO_OPERAND_ID           207-0-0/w SBIN        r     1 TWO_OPERAND_ID
    40-0-0/w STRC(144)   r     1 TYPE_DESC                172-0-0/w STRC(144)   r     1 TYPE_DESC
    *0-0-0/w STRC(144)   r     1 TYPE_DESC                 *0-0-0/w STRC(144)   r     1 TYPE_DESC
   204-0-0/w STRC(144)   r     1 TYPE_DESC                 *0-0-0/w SBIN        r     1 UPPER
   101-0-0/w PTR               1 UPPER$                   203-0-0/w PTR         r     1 UPPER$
   144-0-0/d STRC(288)   r     1 UPPER_LX_ETT_ITEM        326-0-0/d STRC(288)   r     1 ZERO

  ****  SYMREF variables  ****

  ****  Scalars and arrays  ****
OctLoc.c.b A Datatyp(siz) R M Lvl/name                 OctLoc.c.b A Datatyp(siz) R M Lvl/name

     0-0-0/d STRC(13248) r     1 COMCOM
     0-0-0/w STRC(180)         1 HIER_STK(0:50)
     0-0-0/w SBIN              1 HIER_STK_PTR               0-0-0/w UBIN              1 ILL_STEP(0:144)
     0-0-0/w UBIN              1 ILS_STEP_TABLE(0:2)
     0-0-0/w UBIN              1 LTS_STEP(0:37)
     0-0-0/d STRC(11580) r     1 O1COM                      0-0-0/w STRC(144)         1 PAGE_FORMAT
     0-0-0/w STRC(153)         1 REP_STK(0:50)              0-0-0/w SBIN              1 REP_STK_PTR

  ****  BASED and DCB variables  ****

  ****  Scalars and arrays  ****
OctLoc.c.b A Datatyp(siz) R M Lvl/name                 OctLoc.c.b A Datatyp(siz) R M Lvl/name

     0-0-0/w STRC(108)         1 ACCEPT_DISPLAY             0-0-0/w STRC(288)         1 ADD_STMT
     0-0-0/w STRC(396)         1 ALPHABET                   0-0-0/w STRC(144)         1 ALTER_LTS
     0-0-0/w STRC(3672)        1 ALT_KEY                    0-0-0/w STRC(36864)       1 ARGLIST
     0-0-0/w STRC(396)         1 ARRAY                      0-0-0/w STRC(180)         1 ARRAY_PRESET_LTS
     0-0-0/c ACHR        r     1 BASED$LIT                  0-0-0/w ASTR(324)   r     1 BASED_LEX_SYMBOL
     0-0-0/w STRC(360)         1 BASED_LEX_SYMBOL_WORDS
     0-0-0/c ACHR        r     1 BASED_LIT                  0-0-0/w STRC(288)         1 BASE_LTS
     0-0-0/w STRC(108)   r     1 BINARY_ILL                 0-0-0/w STRC(288)   r     1 BINARY_OP
     0-0-0/w STRC(396)         1 BLOCK                      0-0-0/w STRC(144)         1 BRANCH_ILL
     0-0-0/w STRC(144)         1 BT                         0-0-0/w STRC(288)         1 CALL_STMT
     0-0-0/w STRC(216)         1 CCOSU                      0-0-0/w STRC(396)         1 CD
PL6.E3A0      #001=Z8E7$STMT_ASSIGNMENT File=Z8E7.:Z8A6TSI                       SAT 08/09/97 11:35 Page:425
     0-0-0/w STRC(288)         1 CD_LTS                     0-0-0/w CHAR(4096)        1 CHARS
     0-0-0/w STRC(396)         1 CLASS                      0-0-0/w STRC(108)   r     1 CODED_MOVE
     0-0-0/w STRC(288)         1 COMPUTE_STMT               0-0-0/w STRC(396)         1 CONDITION
     0-0-0/w STRC(396)   r     1 CONST                      0-0-0/w STRC(72)          1 CONT
     0-0-0/w STRC(540)         1 CONTROL_NAME_LTS           0-0-0/w STRC(1872)        1 COPY_FILE
     0-0-0/w STRC(396)         1 DB                         0-0-0/w STRC(396)         1 DCB_
     0-0-0/w STRC(288)         1 DEFERED_IDENTIFIER         0-0-0/w STRC(252)         1 DEFERED_ID_TREE
     0-0-0/w STRC(288)         1 DEFERED_QUAL_ID            0-0-0/w STRC(288)         1 DEFERED_SUM_CLAUSE
     0-0-0/w STRC(288)         1 DEFERED_SUM_CLAUSE_LIST
     0-0-0/w STRC(144)   r     1 DEFLB                      0-0-0/w STRC(288)         1 DELETE_STMT
     0-0-0/w STRC(108)   r     1 DEPENDING_SIZE             0-0-0/w STRC(5472)        1 DIMS
     0-0-0/w STRC(288)         1 DIVIDE_STMT                0-0-0/w STRC(396)         1 DML_ITEM
     0-0-0/w STRC(216)         1 DML_REC                    0-0-0/w ASTR(180)   r     1 DNT
     0-0-0/w STRC(144)         1 DOEND                      0-0-0/w STRC(396)         1 DO_N
     0-0-0/w STRC(180)         1 DV4I                       0-0-0/w STRC(180)         1 ENTRY_ILL
     0-0-0/w STRC(180)   r     1 ETT                        0-0-0/w STRC(108)         1 EVALU
     0-0-0/w STRC(73836)       1 EVALUATE                   0-0-0/w STRC(396)         1 FD
     0-0-0/w STRC(1692)        1 FILE_LTS                   0-0-0/w STRC(144)   r     1 GO
     0-0-0/w STRC(180)         1 ILL                        0-0-0/w STRC              1 ILL_NO_OPS
     0-0-0/w STRC(180)   r     1 ILS                        0-0-0/w STRC(288)   r     1 ILS_LIST
     0-0-0/w STRC(108)         1 INDEXES                    0-0-0/w STRC(360)         1 INIT_LTS
     0-0-0/w STRC(288)         1 INSPECT_1_STMT             0-0-0/w STRC(288)         1 INSPECT_2_STMT
     0-0-0/w STRC(288)         1 INSPECT_4_STMT             0-0-0/w STRC(396)         1 INTDEF
     0-0-0/w STRC(180)         1 IO_RESTORE_CHAIN           0-0-0/w STRC(144)         1 KEY
     0-0-0/w STRC(396)         1 LABEL                      0-0-0/w STRC(288)         1 LA_ITEM
     0-0-0/w STRC(36864) r     1 LCNST                      0-0-0/w STRC(108)         1 LINOI
     0-0-0/w STRC(72)    r     1 LONG                       0-0-0/w STRC        r     1 LTS
     0-0-0/w STRC(360)   r     1 LTSS                       0-0-0/w STRC(36936)       1 LTS_PTR_ARRAY
     0-0-0/w STRC(504)         1 LX_CD_INPUT                0-0-0/w STRC(324)         1 LX_CD_I_O
     0-0-0/w STRC(396)         1 LX_CD_OUTPUT               0-0-0/w STRC(288)   r     1 LX_ETT_ITEM
     0-0-0/w STRC(288)   r     1 LX_ITEM                    0-0-0/w STRC(288)         1 LX_LARGE
     0-0-0/w STRC(288)   r     1 LX_LIST                    0-0-0/w STRC(1224)        1 LX_REC_DECL
     0-0-0/w STRC(864)         1 LX_REPORT_REC              0-0-0/w STRC(288)   r     1 LX_TERMINAL
     0-0-0/w STRC(72)    r     1 MFILL                      0-0-0/w STRC(396)         1 MNEMONIC
     0-0-0/w STRC(288)         1 MULTIPLY_STMT              0-0-0/w STRC(180)         1 MULTI_GO
     0-0-0/w STRC(180)         1 MVEAL                      0-0-0/w STRC(108)         1 MVFIL
     0-0-0/w STRC(72)          1 MVIIS                      0-0-0/w STRC(144)   r     1 NEL
PL6.E3A0      #001=Z8E7$STMT_ASSIGNMENT File=Z8E7.:Z8A6TSI                       SAT 08/09/97 11:35 Page:426
     0-0-0/w STRC(216)         1 OPEN_LTS                   0-0-0/w STRC(144)         1 OPN
     0-0-0/w STRC(180)   r     1 OS_CALL                    0-0-0/w STRC(36864)       1 PAGE
     0-0-0/w STRC(396)         1 PARA                       0-0-0/w STRC(216)         1 PFORM
     0-0-0/w STRC(144)         1 PINC                       0-0-0/w STRC(144)         1 PREOFF
     0-0-0/w STRC(108)         1 PRESET                     0-0-0/w STRC(144)         1 PRIME
     0-0-0/w STRC(396)   r     1 PROC_                      0-0-0/w STRC(396)         1 PROC_DEF
     0-0-0/w STRC(900)   r     1 PROC_SUPP                  0-0-0/w STRC(144)         1 P_A_PRESET
     0-0-0/w STRC(144)         1 P_P_PRESET                 0-0-0/w STRC(216)   r     1 QLT
     0-0-0/w STRC(396)         1 RD                         0-0-0/w STRC(288)         1 READ_STMT
     0-0-0/w STRC(216)         1 REF                        0-0-0/w STRC(144)         1 REMEM
     0-0-0/w STRC(108)         1 RENAMES                    0-0-0/w STRC(720)         1 REPORT_01_LTS
     0-0-0/w STRC(432)         1 REPORT_ELEM_LTS            0-0-0/w STRC(252)         1 REPORT_GRP_LTS
     0-0-0/w STRC(1332)        1 REPORT_LTS                 0-0-0/w STRC(288)         1 REWRITE_STMT
     0-0-0/w STRC(144)         1 RVA_LTS                    0-0-0/w STRC(396)   r     1 SCALAR
     0-0-0/w STRC(144)         1 SCOPE                      0-0-0/w STRC(396)         1 SD
     0-0-0/w STRC(216)         1 SEARCH_                    0-0-0/w STRC(396)         1 SECTION
     0-0-0/w STRC(396)         1 SEGMENT                    0-0-0/w STRC(360)         1 SEGMENT_LTS
     0-0-0/w STRC(396)   r     1 ST                         0-0-0/w STRC(288)         1 START_STMT
     0-0-0/w STRC(72)          1 STP2                       0-0-0/w STRC(252)         1 STRING_STMT
     0-0-0/w STRC(288)         1 SUBTRACT_STMT              0-0-0/w STRC(252)         1 SUM_LTS
     0-0-0/w STRC(396)         1 SWITCH                     0-0-0/w STRC(396)         1 SYMBOLIC_CHAR
     0-0-0/w STRC(396)         1 SYMDEF_                    0-0-0/w STRC(396)         1 SYMREF_
     0-0-0/w STRC(396)         1 TEMP                       0-0-0/w STRC(144)   r     1 TRINARY_ILL
     0-0-0/w STRC(72)          1 UNARY_ILL                  0-0-0/w STRC(288)         1 UNARY_OP
     0-0-0/w STRC(288)         1 UNSTRING_STMT              0-0-0/d STRC(612)         1 USE
     0-0-0/w STRC(216)         1 USER_CALL                  0-0-0/w STRC(252)         1 USE_SUPP
     0-0-0/w STRC(108)         1 VAL                        0-0-0/w STRC(108)         1 VAL_END
     0-0-0/w STRC(396)   r     1 VARIABLE                   0-0-0/w STRC(72)          1 WHEN
     0-0-0/w STRC(288)         1 WRITE_STMT


   Procedure Z8E7$STMT_ASSIGNMENT requires 5968 words for executable code.
   Procedure Z8E7$STMT_ASSIGNMENT requires 288 words of local(AUTO) storage.

