PL6.E3A0      #002=Z8E7$MOVE_SEMANTIC_CHECKS File=Z8E7.:Z8A6TSI                  SAT 08/09/97 11:43 Page:427
     2657        1        /*T***********************************************************/
     2658        2        /*T*                                                         */
     2659        3        /*T* Copyright (c) Bull HN Information Systems Inc., 1997    */
     2660        4        /*T*                                                         */
     2661        5        /*T***********************************************************/
     2662        6        /*=========================*/
     2663        7          Z8E7$MOVE_SEMANTIC_CHECKS: PROC (REC$, SEND$, STATEMENT_TYPE) ALTRET;
     2664        8        /*=========================*/
     2665        9
     2666       10    1   DCL REC$               PTR;
     2667       11    1   DCL SEND$              PTR;
     2668       12
     2669       13        %EQU PHASE = 1;
     2670       14
     2671       15        %INCLUDE Z8A_DEFC;
     2672       83        %INCLUDE Z8A_SUPP_MAC;
     2673     2483        %INCLUDE Z8A_COMCOM;
     2674     3133        %INCLUDE Z8A_DNT;
     2675     3354        %INCLUDE Z8A_ST;
     2676     7013        %INCLUDE Z8A_TYPES;
     2677     7187        %INCLUDE Z8A_ETT;
     2678     7488        %INCLUDE Z8A_ERR_NUMS;
     2679     8252        %INCLUDE Z8E_DML;
     2680     8372        %INCLUDE Z8E_MACROS;
     2681     9047        %INCLUDE Z8E_STACKS;
     2682    11313        %INCLUDE Z8E_WINDOW;
     2683    13383        %INCLUDE Z8E_STATEMNT;
     2684    13452        %INCLUDE Z8E_O1COM;
     2685    14213
     2686    14214    1   DCL Z8CO$INTEGER_CHECK ENTRY (1) ALTRET;
     2687    14215    1   DCL Z8CO$CHECK_INTEGER_TERMINAL ENTRY (1) ALTRET;
     2688    14216    1   DCL Z8CO$INTEGER_CHECK_NO_ERROR ENTRY (1) ALTRET;
     2689    14217    1   DCL Z8AE$ERROR         ENTRY (12);
     2690    14218    1   DCL Z8E7$POINTER_MOVE  ENTRY(2);
     2691    14219
     2692    14220    1   DCL REC_ST$            PTR;
     2693    14221    1   DCL SEND_ST$           PTR;
PL6.E3A0      #002=Z8E7$MOVE_SEMANTIC_CHECKS File=Z8E7.:Z8A6TSI                  SAT 08/09/97 11:43 Page:428
     2694    14222    1   DCL STATEMENT_TYPE SBIN;
     2695    14223        %EJECT;
PL6.E3A0      #002=Z8E7$MOVE_SEMANTIC_CHECKS File=Z8E7.:Z8A6TSI                  SAT 08/09/97 11:43 Page:429
     2696    14224        /*V*
     2697    14225                       Legality of Types of MOVE statements
     2698    14226
     2699    14227          ________________________________________________________________
     2700    14228          |                 |        Category of Receiving data item     |
     2701    14229          |                 |--------------------------------------------|
     2702    14230          |  Category of    |              |              | Numeric Int  |
     2703    14231          |    Sending      |  Alphabetic  | Alpha-edited | Num Non-int  |
     2704    14232          |    Operand      |              | Alphanumeric | Num edited   |
     2705    14233          |=================|==============|==============|==============|
     2706    14234          |  Alphabetic     |    Yes / 4c  |    Yes / 4a  |  * NO / 3a * |
     2707    14235          |-----------------|--------------|--------------|--------------|
     2708    14236          |  Alphanumeric   |    Yes / 4c  |    Yes / 4a  |    Yes / 4b  |
     2709    14237          |-----------------|--------------|--------------|--------------|
     2710    14238          |  Alpha-edited   |    Yes / 4c  |    Yes / 4a  |  * NO / 3a * |
     2711    14239          |-----------------|--------------|--------------|--------------|
     2712    14240          |        | Int    |  * NO / 3b * |    Yes / 4a  |    Yes / 4b  |
     2713    14241          | Numeric|--------|--------------|--------------|--------------|
     2714    14242          |        | Non-int|  * NO / 3b * |  * NO / 3c * |    Yes / 4b  |
     2715    14243          |-----------------|--------------|--------------|--------------|
     2716    14244          | Numeric edited  |  * NO / 3b * |    Yes / 4a  |    Yes / 4b  |
     2717    14245          |_________________|______________|______________|______________|
     2718    14246
     2719    14247            Source: Cobol 85 draft, p. VI-103.
     2720    14248
     2721    14249            The rules stated can be found in the draft, pp. VI-100 - VI-103.
     2722    14250
     2723    14251           Summary of Rules:
     2724    14252
     2725    14253               3a.    SPACE, alphanumeric-edited, or alphabetic data items
     2726    14254                      cannot be moved to numeric or numeric-edited items.
     2727    14255
     2728    14256               3b.    Numeric literals, ZERO, numeric items, or numeric-
     2729    14257                      edited items cannot be moved to alphabetic items.
     2730    14258
     2731    14259               3c.    A noninteger numeric literal or a noninteger numeric data item must
     2732    14260                      not be moved to an alphanumeric or alphanumeric edited data item.
PL6.E3A0      #002=Z8E7$MOVE_SEMANTIC_CHECKS File=Z8E7.:Z8A6TSI                  SAT 08/09/97 11:43 Page:430
     2733    14261
     2734    14262               4a.    The sign is not moved. No de-editing takes place.
     2735    14263                      P's are not counted in the length.
     2736    14264
     2737    14265               4b.    Zero filled.  If sending is numeric-edited, de-editing
     2738    14266                      takes place to establish the un-edited value.
     2739    14267
     2740    14268               4c.    When the receiving item is alphabetic, space fill.
     2741    14269
     2742    14270
     2743    14271        */
     2744    14272        %EJECT;
PL6.E3A0      #002=Z8E7$MOVE_SEMANTIC_CHECKS File=Z8E7.:Z8A6TSI                  SAT 08/09/97 11:43 Page:431
     2745    14273    1   IF O1COM.CURRENT_PROC$ -> PROC_.B.SUB_SCHEMA  AND STATEMENT_TYPE ~= %S_TYPE_DML_SET
             14273            THEN
     2746    14274    2     DO;
     2747    14275
     2748    14276    2       IF REC$ -> LX_ITEM.B.ERROR  OR SEND$ -> LX_ITEM.B.ERROR    THEN
     2749    14277    2            ALTRETURN;
     2750    14278
     2751    14279    2     END;
     2752    14280        %EJECT;
PL6.E3A0      #002=Z8E7$MOVE_SEMANTIC_CHECKS File=Z8E7.:Z8A6TSI                  SAT 08/09/97 11:43 Page:432
     2753    14281    2      DO CASE (SEND$ -> LX_ETT_ITEM.TYPE);
     2754    14282
     2755    14283    2        CASE (%TYA, %TYE, %TYB);
     2756    14284
     2757    14285    2          IF STATEMENT_TYPE = %S_TYPE_DML_SET   THEN
     2758    14286    3                DO;
     2759    14287    3                  CALL Z8AE$ERROR( %E$DML_SET_RECEIVER_ERROR,
     2760    14288    3                                   SEND$ -> LX_ETT_ITEM.LINE,
     2761    14289    3                                   SEND$ -> LX_ETT_ITEM.COLUMN);
     2762    14290    3                  ALTRETURN;
     2763    14291    3                END;
     2764    14292
     2765    14293    2          IF REC$ -> LX_ETT_ITEM.TYPE = %TYN THEN
     2766    14294    3            DO;
     2767    14295    3              CALL Z8AE$ERROR (%E$MIXING_TYN_WITH_TYA,
     2768    14296    3                               REC$ -> LX_ETT_ITEM.LINE,
     2769    14297    3                               REC$ -> LX_ETT_ITEM.COLUMN);
     2770    14298    3              ALTRETURN;
     2771    14299    3            END;
     2772    14300
     2773    14301               %FISH(TRIAD = SEND$ -> LX_ETT_ITEM.ETT$,
     2774    14302                     RTN = SEND_ST$);
     2775    14310
     2776    14311    3          DO CASE (SEND_ST$ -> ST.ID);
     2777    14312
     2778    14313    3            CASE (%SCALAR, %ARRAY);
     2779    14314    4              DO CASE (SEND_ST$ -> VARIABLE.B.CLASS);
     2780    14315
     2781    14316    4                CASE (%CLASS_ALPHABETIC, %CLASS_ALPHANUMERIC_EDITED);
     2782    14317    5                  DO CASE (REC$ -> LX_ETT_ITEM.TYPE);
     2783    14318    5                    CASE (ELSE);
     2784    14319    5                      CALL Z8AE$ERROR (%E$MOVE_ALPHA_TYAE_TO_NUM,
     2785    14320    5                                       REC$ -> LX_ETT_ITEM.LINE,
     2786    14321    5                                       REC$ -> LX_ETT_ITEM.COLUMN);
     2787    14322    5                      ALTRETURN;
     2788    14323    5                    CASE (%TYA, %TYE, %TYB);
     2789    14324
PL6.E3A0      #002=Z8E7$MOVE_SEMANTIC_CHECKS File=Z8E7.:Z8A6TSI                  SAT 08/09/97 11:43 Page:433
     2790    14325                           %FISH(TRIAD = REC$ -> LX_ETT_ITEM.ETT$,
     2791    14326                                 RTN = REC_ST$);
     2792    14334    5                      IF REC_ST$ -> VARIABLE.B.CLASS = %CLASS_NUMERIC_EDITED THEN
     2793    14335    6                        DO;
     2794    14336    6                          CALL Z8AE$ERROR (%E$MOVE_ALPHA_TYAE_TO_NUM,
     2795    14337    6                                           REC$ -> LX_ETT_ITEM.LINE,
     2796    14338    6                                           REC$ -> LX_ETT_ITEM.COLUMN);
     2797    14339    6                          ALTRETURN;
     2798    14340    6                        END;
     2799    14341    5                  END; /* CASE */
     2800    14342
     2801    14343    4                CASE (%CLASS_ALPHANUMERIC);
     2802    14344                       /*V* All ok */
     2803    14345    4                  IF NOT SEND_ST$ -> VARIABLE.B.ELEMENTARY THEN
     2804    14346    5                    DO; /* Still, if MOVE to packed decimal, warn user */
     2805    14347                           %FISH(TRIAD = REC$ -> LX_ETT_ITEM.ETT$,
     2806    14348                                 RTN = REC_ST$);
     2807    14356    5                      IF REC_ST$ -> VARIABLE.TYPE = %TYF OR
     2808    14357    5                          REC_ST$ -> VARIABLE.TYPE = %TYC THEN; /* Do nothing */
     2809    14358    5                      ELSE IF REC_ST$ -> VARIABLE.NDSC.TN = %NDSC4 THEN
     2810    14359    5                        CALL Z8AE$ERROR (%E$GROUP_MOVE,
     2811    14360    5                                         REC$ -> LX_ETT_ITEM.LINE,
     2812    14361    5                                         REC$ -> LX_ETT_ITEM.COLUMN);
     2813    14362    5                    END;
     2814    14363
     2815    14364    4                CASE (%CLASS_NUMERIC_EDITED);
     2816    14365
     2817    14366                       %FISH(TRIAD = REC$ -> LX_ETT_ITEM.ETT$,
     2818    14367                             RTN = REC_ST$);
     2819    14375    4                  IF REC_ST$ -> VARIABLE.B.CLASS = %CLASS_ALPHABETIC THEN
     2820    14376    5                    DO;
     2821    14377    5                      CALL Z8AE$ERROR (%E$MOVE_NUM_TO_ALPHABETIC,
     2822    14378    5                                       REC$ -> LX_ETT_ITEM.LINE,
     2823    14379    5                                       REC$ -> LX_ETT_ITEM.COLUMN);
     2824    14380    5                      ALTRETURN;
     2825    14381    5                    END;
     2826    14382
PL6.E3A0      #002=Z8E7$MOVE_SEMANTIC_CHECKS File=Z8E7.:Z8A6TSI                  SAT 08/09/97 11:43 Page:434
     2827    14383
     2828    14384    4                CASE (ELSE);
     2829    14385    4                  /*V* All ok */;
     2830    14386
     2831    14387    4              END; /*V* Case - st.b.class */
     2832    14388
     2833    14389    3            CASE (ELSE);
     2834    14390    3              /*V* All ok - fall thru */;
     2835    14391
     2836    14392    3          END; /*V* Case -- st.id */
     2837    14393        %EJECT;
PL6.E3A0      #002=Z8E7$MOVE_SEMANTIC_CHECKS File=Z8E7.:Z8A6TSI                  SAT 08/09/97 11:43 Page:435
     2838    14394    2        CASE (%TYT);
     2839    14395    2          IF REC$ -> LX_ETT_ITEM.ETT$ = ADDR(NIL) THEN
     2840    14396    2            RETURN;
     2841    14397
     2842    14398                %FISH(TRIAD = REC$ -> LX_ETT_ITEM.ETT$,
     2843    14399                      RTN = REC_ST$);
     2844    14407    2          IF STATEMENT_TYPE = %S_TYPE_DML_SET   THEN     /*V* DML SET TO NULL */
     2845    14408    2              IF REC_ST$ -> VARIABLE.B.DML_TYPE ~= %DATA_BASE_KEY  AND
     2846    14409    2                 REC_ST$ -> VARIABLE.B.DML_TYPE ~= %DIRECT_REFERENCE  THEN
     2847    14410    3                DO;
     2848    14411    3                  IF REC$ -> LX_ETT_ITEM.TYPE = %TYP THEN
     2849    14412    3                    CALL Z8E7$POINTER_MOVE (REC$, ADDR(NIL));
     2850    14413    3                  ELSE
     2851    14414    3                    CALL Z8AE$ERROR( %E$DML_SET_RECEIVER_ERROR,
     2852    14415    3                                     REC$ -> LX_ETT_ITEM.LINE,
     2853    14416    3                                     REC$ -> LX_ETT_ITEM.COLUMN);
     2854    14417    3                  ALTRETURN;
     2855    14418    3                END;
     2856    14419
     2857    14420    3          DO CASE (REC$ -> LX_ETT_ITEM.TYPE);
     2858    14421    3            CASE (%TYA, %TYN, %TYE, %TYB);
     2859    14422    4              DO CASE (SEND$ -> LX_TERMINAL.SYMBOL);
     2860    14423
     2861    14424    4                CASE (%ALPHA_LITERAL, %SINGLE_QUOTE, %RSV_WRD_HIGH_VALUES,
     2862    14425    4                      %RSV_WRD_QUOTES, %RSV_WRD_SPACES, %RSV_WRD_LOW_VALUES);
     2863    14426    4                  /*V* All ok */;
     2864    14427    4                  IF COMCOM.OB.FIPS.OBS THEN /* First test what is least likely true */
     2865    14428    4                    IF SEND$ -> LX_TERMINAL.B.ALL THEN
     2866    14429    4                      IF SEND$ -> LX_TERMINAL.DNT$ -> DNT.TEXT.LENGTH > 3 THEN
     2867    14430    4                        IF REC_ST$ -> VARIABLE.B.CLASS = %CLASS_NUMERIC_EDITED THEN
     2868    14431    4                          CALL Z8AE$ERROR (%E$OBSOLETE,
     2869    14432    4                                           REC$ -> LX_ETT_ITEM.LINE,
     2870    14433    4                                           REC$ -> LX_ETT_ITEM.COLUMN);
     2871    14434
     2872    14435    4                CASE (%RSV_WRD_ZEROES);
     2873    14436    4                  IF REC_ST$ -> VARIABLE.B.CLASS = %CLASS_ALPHABETIC THEN
     2874    14437    5                    DO;
PL6.E3A0      #002=Z8E7$MOVE_SEMANTIC_CHECKS File=Z8E7.:Z8A6TSI                  SAT 08/09/97 11:43 Page:436
     2875    14438    5                      CALL Z8AE$ERROR (%E$MOVE_NUM_TO_ALPHABETIC,
     2876    14439    5                                       REC$ -> LX_ETT_ITEM.LINE,
     2877    14440    5                                       REC$ -> LX_ETT_ITEM.COLUMN);
     2878    14441    5                      ALTRETURN;
     2879    14442    5                    END;
     2880    14443
     2881    14444    4                CASE (%NUMERIC_LITERAL, %NUMBER);
     2882    14445    4                  IF REC_ST$ -> VARIABLE.B.CLASS ~= %CLASS_NUMERIC_EDITED THEN
     2883    14446    4                    CALL Z8CO$CHECK_INTEGER_TERMINAL (SEND$)
     2884    14447    4                      WHENALTRETURN
     2885    14448    5                        DO;
     2886    14449    5                          CALL Z8AE$ERROR (%E$MOVE_NON_INT_TO_TYA,
     2887    14450    5                                           REC$ -> LX_ETT_ITEM.LINE,
     2888    14451    5                                           REC$ -> LX_ETT_ITEM.COLUMN);
     2889    14452    5                          ALTRETURN;
     2890    14453    5                        END;
     2891    14454
     2892    14455    4                  IF REC_ST$ -> VARIABLE.B.CLASS = %CLASS_ALPHABETIC THEN
     2893    14456    5                    DO;
     2894    14457    5                      CALL Z8AE$ERROR (%E$MOVE_ALPHA_TYAE_TO_NUM,
     2895    14458    5                                       REC$ -> LX_ETT_ITEM.LINE,
     2896    14459    5                                       REC$ -> LX_ETT_ITEM.COLUMN);
     2897    14460    5                      ALTRETURN;
     2898    14461    5                    END;
     2899    14462
     2900    14463    4                CASE (ELSE);
     2901    14464    4                  CALL Z8AE$ERROR (%E$UNEXPECTED_CASE,
     2902    14465    4                                   SEND$ -> LX_TERMINAL.LINE,
     2903    14466    4                                   SEND$ -> LX_TERMINAL.COLUMN);
     2904    14467
     2905    14468    4              END; /*V* Case -- send.symbol */
     2906    14469
     2907    14470    3            CASE (ELSE); /* Numeric, not edited */
     2908    14471    3               IF COMCOM.OB.FIPS.OBS THEN
     2909    14472    3                 IF SEND$ -> LX_TERMINAL.B.ALL THEN
     2910    14473    3                   IF SEND$ -> LX_TERMINAL.DNT$ -> DNT.TEXT.LENGTH > 3 THEN
     2911    14474    3                     CALL Z8AE$ERROR (%E$OBSOLETE,
PL6.E3A0      #002=Z8E7$MOVE_SEMANTIC_CHECKS File=Z8E7.:Z8A6TSI                  SAT 08/09/97 11:43 Page:437
     2912    14475    3                                      REC$ -> LX_ETT_ITEM.LINE,
     2913    14476    3                                      REC$ -> LX_ETT_ITEM.COLUMN);
     2914    14477        /*# 25213 */
     2915    14478    3               IF SEND$ -> LX_TERMINAL.SYMBOL = %RSV_WRD_SPACES   THEN
     2916    14479    4                 DO;
     2917    14480    4                   IF REC$ -> LX_ETT_ITEM.B.ERROR = '0'B THEN
     2918    14481    4                     CALL Z8AE$ERROR( %E$MOVE_ALPHA_TYAE_TO_NUM,
     2919    14482    4                                      REC$ -> LX_ETT_ITEM.LINE,
     2920    14483    4                                      REC$ -> LX_ETT_ITEM.COLUMN );
     2921    14484    4                   ALTRETURN;
     2922    14485    4                 END;
     2923    14486
     2924    14487    3          END; /*V* Case -- Rec.type */
     2925    14488        %EJECT;
PL6.E3A0      #002=Z8E7$MOVE_SEMANTIC_CHECKS File=Z8E7.:Z8A6TSI                  SAT 08/09/97 11:43 Page:438
     2926    14489    2        CASE (%TYP);
     2927    14490               %FISH (TRIAD = REC$ -> LX_ETT_ITEM.ETT$,
     2928    14491                      RTN = REC_ST$);
     2929    14499    3          IF NOT REC_ST$ -> VARIABLE.B.ELEMENTARY THEN DO;
     2930    14500    3            CALL Z8AE$ERROR ( %E$INVALID_MOVE_OPERANDS,
     2931    14501    3                              REC$ -> LX_ETT_ITEM.LINE,
     2932    14502    3                              REC$ -> LX_ETT_ITEM.COLUMN);
     2933    14503    3            ALTRETURN;
     2934    14504    3          END;
     2935    14505    2        CASE (%TYN);
     2936    14506
     2937    14507    2          IF REC$ -> LX_ETT_ITEM.TYPE ~= %TYN THEN
     2938    14508    3            DO;
     2939    14509    3              CALL Z8AE$ERROR( %E$MIXING_TYN_WITH_TYA,
     2940    14510    3                               REC$ -> LX_ETT_ITEM.LINE,
     2941    14511    3                               REC$ -> LX_ETT_ITEM.COLUMN);
     2942    14512    3              ALTRETURN;
     2943    14513    3            END;
     2944    14514        %EJECT;
PL6.E3A0      #002=Z8E7$MOVE_SEMANTIC_CHECKS File=Z8E7.:Z8A6TSI                  SAT 08/09/97 11:43 Page:439
     2945    14515
     2946    14516    2        CASE (ELSE);
     2947    14517
     2948    14518              %FISH(TRIAD = SEND$ -> LX_ETT_ITEM.ETT$,
     2949    14519                    RTN = SEND_ST$);
     2950    14527              %FISH(TRIAD = REC$ -> LX_ETT_ITEM.ETT$,
     2951    14528                    RTN = REC_ST$);
     2952    14536
     2953    14537
     2954    14538    2         IF STATEMENT_TYPE = %S_TYPE_DML_SET      THEN
     2955    14539
     2956    14540                   /*V*       This MOVE is really a DML SET      */
     2957    14541
     2958    14542    2               IF ( SEND_ST$ ->VARIABLE.B.DML_TYPE ~= %DATA_BASE_KEY  AND
     2959    14543    2                  SEND_ST$ -> VARIABLE.B.DML_TYPE ~= %DIRECT_REFERENCE )   THEN
     2960    14544    3                 DO;
     2961    14545    3                   CALL Z8AE$ERROR( %E$DML_SET_RECEIVER_ERROR,         /*#31909*/
     2962    14546    3                                   SEND$ -> LX_ETT_ITEM.LINE,
     2963    14547    3                                   SEND$ -> LX_ETT_ITEM.COLUMN);
     2964    14548
     2965    14549    3                   ALTRETURN;
     2966    14550    3                 END;
     2967    14551
     2968    14552    3          DO CASE (SEND_ST$ -> ST.ID);
     2969    14553
     2970    14554    3            CASE (%SCALAR, %ARRAY);
     2971    14555    4              DO CASE (REC_ST$ -> VARIABLE.B.CLASS);
     2972    14556
     2973    14557    4                CASE (%CLASS_ALPHABETIC);
     2974    14558    4                  CALL Z8AE$ERROR (%E$MOVE_NUM_TO_ALPHABETIC,
     2975    14559    4                                   REC$ -> LX_ETT_ITEM.LINE,
     2976    14560    4                                   REC$ -> LX_ETT_ITEM.COLUMN);
     2977    14561    4                  ALTRETURN;
     2978    14562
     2979    14563    4                CASE (%CLASS_ALPHANUMERIC, %CLASS_ALPHANUMERIC_EDITED);
     2980    14564    4                  IF REC_ST$ -> VARIABLE.B.ELEMENTARY THEN
     2981    14565    4                    CALL Z8CO$INTEGER_CHECK_NO_ERROR (SEND$)
PL6.E3A0      #002=Z8E7$MOVE_SEMANTIC_CHECKS File=Z8E7.:Z8A6TSI                  SAT 08/09/97 11:43 Page:440
     2982    14566    4                      WHENALTRETURN
     2983    14567    5                        DO;
     2984    14568    5                          CALL Z8AE$ERROR (%E$MOVE_NON_INT_TO_TYA,
     2985    14569    5                                           REC$ -> LX_ETT_ITEM.LINE,
     2986    14570    5                                           REC$ -> LX_ETT_ITEM.COLUMN);
     2987    14571
     2988    14572    5                          ALTRETURN;
     2989    14573    5                        END;
     2990    14574
     2991    14575    4                CASE (ELSE);
     2992    14576                       /*V* All ok */
     2993    14577
     2994    14578    4              END; /*V* Case -- st.b.class */
     2995    14579
     2996    14580    3            CASE (ELSE);
     2997    14581                   /*V* Ok - fall thru */
     2998    14582
     2999    14583    3          END ; /*V* Case - st.id */
     3000    14584
     3001    14585    2      END; /*V* Case -- send type */
     3002    14586
     3003    14587    1      IF COMCOM.OB.FIPS.LEVEL >= %INT_LEV AND STATEMENT_TYPE = %S_TYPE_MOVE THEN
     3004    14588    1        IF SEND$ -> LX_ETT_ITEM.B.HIGH_LEV OR REC$ -> LX_ETT_ITEM.B.HIGH_LEV THEN
     3005    14589    1          CALL Z8AE$ERROR (%E$LEVEL_CHECK,
     3006    14590    1                           O1COM.LINE_NO,
     3007    14591    1                           O1COM.COLUMN_NO);
     3008    14592
     3009    14593    1   END Z8E7$MOVE_SEMANTIC_CHECKS;
     3010    14594        %EOD;

PL6.E3A0      #002=Z8E7$MOVE_SEMANTIC_CHECKS File=Z8E7.:Z8A6TSI                  SAT 08/09/97 11:43 Page:441
--  Include file information  --

   Z8E_O1COM.:Z8A6TOU  cannot be made into a system file and is referenced.
   Z8E_STATEMNT.:Z8A6TOU  is referenced.
   Z8E_WINDOW.:Z8A6TOU  is referenced.
   Z8A_LEX_SYMB.:Z8A6TOU  cannot be made into a system file and is referenced.
   Z8E_STACKS.:Z8A6TOU  cannot be made into a system file and is referenced.
   Z8E_NEW_ILL.:Z8A6TOU  is referenced.
   Z8E_MACROS.:Z8A6TOU  cannot be made into a system file and is referenced.
   Z8E_DML.:Z8A6TOU  is referenced.
   Z8A_ERR_NUMS.:Z8A6TOU  is referenced.
   Z8A_ETT.:Z8A6TOU  cannot be made into a system file and is referenced.
   Z8A_TYPES.:Z8A6TOU  is referenced.
   Z8A_ST.:Z8A6TOU  cannot be made into a system file and is referenced.
   Z8A_DNT.:Z8A6TOU  cannot be made into a system file and is referenced.
   Z8A_COMCOM.:Z8A6TOU  cannot be made into a system file and is referenced.
   X8A_COM_MACS.:X8A6TOU  is referenced.
   Z8A_NAMES.:Z8A6TOU  is referenced.
   Z8A_SUPP_MAC.:Z8A6TOU  is referenced.
   Z8A_DEFC.:Z8A6TOU  cannot be made into a system file and is referenced.
      No diagnostics issued in procedure Z8E7$MOVE_SEMANTIC_CHECKS.

   Procedure Z8E7$MOVE_SEMANTIC_CHECKS requires 1129 words for executable code.
   Procedure Z8E7$MOVE_SEMANTIC_CHECKS requires 12 words of local(AUTO) storage.

PL6.E3A0      #002=Z8E7$MOVE_SEMANTIC_CHECKS File=Z8E7.:Z8A6TSI                  SAT 08/09/97 11:43 Page:442

 Object Unit name= Z8E7$MOVE_SEMANTIC_CHECKS                  File name= Z8E7.:Z8A6TOU
 UTS= AUG 09 '97 11:43:30.28 SAT                              Compiler= PL-6/E31         Sev=      00
 SharedLib= :SHARED_SYSTEM                                    Alt SharedLib=


    ****  Control sections  ****

 Sect   Type Bound  Init  Size OctSiz  Section name(segment info)
    0  LblCom even  none     1      1  ITERATION
    1  LblCom even  none     1      1  DNT$
    2  LblCom even  none     5      5  DNT_
    3  LblCom even  none     1      1  DNT_BUCKET_NUMBER
    4  LblCom even  none     1      1  DNT_OF_1$
    5  LblCom even  none     1      1  ST$
    6  LblCom even  none     5      5  ST_
    7  LblCom even  none     1      1  ETT$
    8  LblCom even  none     1      1  HEAD_ETT$
    9  LblCom even  none   512   1000  ETT_BUCKETS
   10  LblCom even  none     5      5  ETT_
   11  LblCom even  none    90    132  LEX_SYMBOL
   12  LblCom even  none     1      1  CURRENT_LEX_SYMBOL$
   13  LblCom even  none    90    132  TEMP_LEX_SYMBOL
   14  LblCom even  none    90    132  TEMP_LEX_SYMBOL2
   15   Proc  even  none  1129   2151  Z8E7$MOVE_SEMANTIC_CHECKS
   16  RoData even  none    26     32  Z8E7$MOVE_SEMANTIC_CHECKS

    ****  Entry defs  ****

                              Check   Calling
                             calling  sequence
  Sect OctLoc Primary Altret sequence   type   Parms  Name
    15      0   yes    yes     yes      Std        3  Z8E7$MOVE_SEMANTIC_CHECKS
PL6.E3A0      #002=Z8E7$MOVE_SEMANTIC_CHECKS File=Z8E7.:Z8A6TSI                  SAT 08/09/97 11:43 Page:443

  ****  Entry refs  ****

         Check        Calling
        calling       sequence
Altret sequence SRef   type   Args  Name
         yes           Std      12 Z8AE$ERROR
         yes           Std       2 Z8E7$POINTER_MOVE
 yes     yes           Std       1 Z8CO$CHECK_INTEGER_TERMINAL
 yes     yes           Std       1 Z8CO$INTEGER_CHECK_NO_ERROR
                       nStd      0 X66_AUTO_3
                       nStd      0 X66_AALT
                       nStd      0 X66_ARET

  ****  Data refs  ****

  Flags:  r = read only, s = secondary
Flgs Name                             Flgs Name                             Flgs Name
     COMCOM                                O1COM                                 HIER_STK_PTR
     HIER_STK                              PAGE_FORMAT                           REP_STK_PTR
     REP_STK

  ****  Segment refs  ****

  Flags:  r = read only, s = secondary
Flgs Name                             Flgs Name                             Flgs Name
     NULLSID                               ISSID
PL6.E3A0      #002=Z8E7$MOVE_SEMANTIC_CHECKS File=Z8E7.:Z8A6TSI                  SAT 08/09/97 11:43 Page:444


     2657        1        /*T***********************************************************/
     2658        2        /*T*                                                         */
     2659        3        /*T* Copyright (c) Bull HN Information Systems Inc., 1997    */
     2660        4        /*T*                                                         */
     2661        5        /*T***********************************************************/
     2662        6        /*=========================*/
     2663        7          Z8E7$MOVE_SEMANTIC_CHECKS: PROC (REC$, SEND$, STATEMENT_TYPE) ALTRET;

      7 15 000000   000000 700200 xent  Z8E7$MOVE_S* TSX0  ! X66_AUTO_3
        15 000001   000014 000003                    ZERO    12,3

     2664        8        /*=========================*/
     2665        9
     2666       10    1   DCL REC$               PTR;
     2667       11    1   DCL SEND$              PTR;
     2668       12
     2669       13        %EQU PHASE = 1;
     2670       14
     2671       15        %INCLUDE Z8A_DEFC;
     2672       83        %INCLUDE Z8A_SUPP_MAC;
     2673     2483        %INCLUDE Z8A_COMCOM;
     2674     3133        %INCLUDE Z8A_DNT;
     2675     3354        %INCLUDE Z8A_ST;
     2676     7013        %INCLUDE Z8A_TYPES;
     2677     7187        %INCLUDE Z8A_ETT;
     2678     7488        %INCLUDE Z8A_ERR_NUMS;
     2679     8252        %INCLUDE Z8E_DML;
     2680     8372        %INCLUDE Z8E_MACROS;
     2681     9047        %INCLUDE Z8E_STACKS;
     2682    11313        %INCLUDE Z8E_WINDOW;
     2683    13383        %INCLUDE Z8E_STATEMNT;
     2684    13452        %INCLUDE Z8E_O1COM;
     2685    14213
     2686    14214    1   DCL Z8CO$INTEGER_CHECK ENTRY (1) ALTRET;
     2687    14215    1   DCL Z8CO$CHECK_INTEGER_TERMINAL ENTRY (1) ALTRET;
     2688    14216    1   DCL Z8CO$INTEGER_CHECK_NO_ERROR ENTRY (1) ALTRET;
PL6.E3A0      #002=Z8E7$MOVE_SEMANTIC_CHECKS File=Z8E7.:Z8A6TSI                  SAT 08/09/97 11:43 Page:445
     2689    14217    1   DCL Z8AE$ERROR         ENTRY (12);
     2690    14218    1   DCL Z8E7$POINTER_MOVE  ENTRY(2);
     2691    14219
     2692    14220    1   DCL REC_ST$            PTR;
     2693    14221    1   DCL SEND_ST$           PTR;
     2694    14222    1   DCL STATEMENT_TYPE SBIN;
     2695    14223        %EJECT;
PL6.E3A0      #002=Z8E7$MOVE_SEMANTIC_CHECKS File=Z8E7.:Z8A6TSI                  SAT 08/09/97 11:43 Page:446
     2696    14224        /*V*
     2697    14225                       Legality of Types of MOVE statements
     2698    14226
     2699    14227          ________________________________________________________________
     2700    14228          |                 |        Category of Receiving data item     |
     2701    14229          |                 |--------------------------------------------|
     2702    14230          |  Category of    |              |              | Numeric Int  |
     2703    14231          |    Sending      |  Alphabetic  | Alpha-edited | Num Non-int  |
     2704    14232          |    Operand      |              | Alphanumeric | Num edited   |
     2705    14233          |=================|==============|==============|==============|
     2706    14234          |  Alphabetic     |    Yes / 4c  |    Yes / 4a  |  * NO / 3a * |
     2707    14235          |-----------------|--------------|--------------|--------------|
     2708    14236          |  Alphanumeric   |    Yes / 4c  |    Yes / 4a  |    Yes / 4b  |
     2709    14237          |-----------------|--------------|--------------|--------------|
     2710    14238          |  Alpha-edited   |    Yes / 4c  |    Yes / 4a  |  * NO / 3a * |
     2711    14239          |-----------------|--------------|--------------|--------------|
     2712    14240          |        | Int    |  * NO / 3b * |    Yes / 4a  |    Yes / 4b  |
     2713    14241          | Numeric|--------|--------------|--------------|--------------|
     2714    14242          |        | Non-int|  * NO / 3b * |  * NO / 3c * |    Yes / 4b  |
     2715    14243          |-----------------|--------------|--------------|--------------|
     2716    14244          | Numeric edited  |  * NO / 3b * |    Yes / 4a  |    Yes / 4b  |
     2717    14245          |_________________|______________|______________|______________|
     2718    14246
     2719    14247            Source: Cobol 85 draft, p. VI-103.
     2720    14248
     2721    14249            The rules stated can be found in the draft, pp. VI-100 - VI-103.
     2722    14250
     2723    14251           Summary of Rules:
     2724    14252
     2725    14253               3a.    SPACE, alphanumeric-edited, or alphabetic data items
     2726    14254                      cannot be moved to numeric or numeric-edited items.
     2727    14255
     2728    14256               3b.    Numeric literals, ZERO, numeric items, or numeric-
     2729    14257                      edited items cannot be moved to alphabetic items.
     2730    14258
     2731    14259               3c.    A noninteger numeric literal or a noninteger numeric data item must
     2732    14260                      not be moved to an alphanumeric or alphanumeric edited data item.
PL6.E3A0      #002=Z8E7$MOVE_SEMANTIC_CHECKS File=Z8E7.:Z8A6TSI                  SAT 08/09/97 11:43 Page:447
     2733    14261
     2734    14262               4a.    The sign is not moved. No de-editing takes place.
     2735    14263                      P's are not counted in the length.
     2736    14264
     2737    14265               4b.    Zero filled.  If sending is numeric-edited, de-editing
     2738    14266                      takes place to establish the un-edited value.
     2739    14267
     2740    14268               4c.    When the receiving item is alphabetic, space fill.
     2741    14269
     2742    14270
     2743    14271        */
     2744    14272        %EJECT;
PL6.E3A0      #002=Z8E7$MOVE_SEMANTIC_CHECKS File=Z8E7.:Z8A6TSI                  SAT 08/09/97 11:43 Page:448
     2745    14273    1   IF O1COM.CURRENT_PROC$ -> PROC_.B.SUB_SCHEMA  AND STATEMENT_TYPE ~= %S_TYPE_DML_SET
             14273            THEN

  14273 15 000002   000057 470400 xsym               LDP0    O1COM+47
        15 000003   000003 236100                    LDQ     3,,PR0
        15 000004   000200 316003                    CANQ    128,DU
        15 000005   000025 600000 15                 TZE     s:14281
        15 000006   200005 471500                    LDP1    @STATEMENT_TYPE,,AUTO
        15 000007   100000 235100                    LDA     0,,PR1
        15 000010   000072 115007                    CMPA    58,DL
        15 000011   000025 600000 15                 TZE     s:14281

     2746    14274    2     DO;

     2747    14275
     2748    14276    2       IF REC$ -> LX_ITEM.B.ERROR  OR SEND$ -> LX_ITEM.B.ERROR    THEN

  14276 15 000012   200003 473500                    LDP3    @REC$,,AUTO
        15 000013   300000 474500                    LDP4    0,,PR3
        15 000014   400000 236100                    LDQ     0,,PR4
        15 000015   400000 316007                    CANQ    -131072,DL
        15 000016   000024 601000 15                 TNZ     s:14277
        15 000017   200004 475500                    LDP5    @SEND$,,AUTO
        15 000020   500000 476500                    LDP6    0,,PR5
        15 000021   600000 236100                    LDQ     0,,PR6
        15 000022   400000 316007                    CANQ    -131072,DL
        15 000023   000025 600000 15                 TZE     s:14281

     2749    14277    2            ALTRETURN;

  14277 15 000024   000000 702200 xent               TSX2  ! X66_AALT

     2750    14278
     2751    14279    2     END;
     2752    14280        %EJECT;
PL6.E3A0      #002=Z8E7$MOVE_SEMANTIC_CHECKS File=Z8E7.:Z8A6TSI                  SAT 08/09/97 11:43 Page:449
     2753    14281    2      DO CASE (SEND$ -> LX_ETT_ITEM.TYPE);

  14281 15 000025   200004 471500                    LDP1    @SEND$,,AUTO
        15 000026   100000 473500                    LDP3    0,,PR1
        15 000027   300004 235100                    LDA     4,,PR3
        15 000030   000006 135007                    SBLA    6,DL
        15 000031   000015 115007                    CMPA    13,DL
        15 000032   000034 602005 15                 TNC     s:14281+7,AL
        15 000033   001744 710000 15                 TRA     s:14521
        15 000034   000051 710000 15                 TRA     s:14285
        15 000035   001744 710000 15                 TRA     s:14521
        15 000036   000051 710000 15                 TRA     s:14285
        15 000037   001744 710000 15                 TRA     s:14521
        15 000040   001744 710000 15                 TRA     s:14521
        15 000041   001744 710000 15                 TRA     s:14521
        15 000042   000051 710000 15                 TRA     s:14285
        15 000043   000355 710000 15                 TRA     s:14395
        15 000044   001724 710000 15                 TRA     s:14507
        15 000045   001744 710000 15                 TRA     s:14521
        15 000046   001744 710000 15                 TRA     s:14521
        15 000047   001744 710000 15                 TRA     s:14521
        15 000050   001664 710000 15                 TRA     s:14493

     2754    14282
     2755    14283    2        CASE (%TYA, %TYE, %TYB);

     2756    14284
     2757    14285    2          IF STATEMENT_TYPE = %S_TYPE_DML_SET   THEN

  14285 15 000051   200005 474500                    LDP4    @STATEMENT_TYPE,,AUTO
        15 000052   400000 235100                    LDA     0,,PR4
        15 000053   000072 115007                    CMPA    58,DL
        15 000054   000070 601000 15                 TNZ     s:14293

     2758    14286    3                DO;

     2759    14287    3                  CALL Z8AE$ERROR( %E$DML_SET_RECEIVER_ERROR,
PL6.E3A0      #002=Z8E7$MOVE_SEMANTIC_CHECKS File=Z8E7.:Z8A6TSI                  SAT 08/09/97 11:43 Page:450

  14287 15 000055   300006 635500                    EPPR5   6,,PR3
        15 000056   200012 455500                    STP5    SEND_ST$+3,,AUTO
        15 000057   300005 636500                    EPPR6   5,,PR3
        15 000060   200011 456500                    STP6    SEND_ST$+2,,AUTO
        15 000061   000002 236000 16                 LDQ     2
        15 000062   200010 756100                    STQ     SEND_ST$+1,,AUTO
        15 000063   200010 630500                    EPPR0   SEND_ST$+1,,AUTO
        15 000064   000000 631400 16                 EPPR1   0
        15 000065   000000 701000 xent               TSX1    Z8AE$ERROR
        15 000066   000000 011000                    NOP     0

     2760    14288    3                                   SEND$ -> LX_ETT_ITEM.LINE,
     2761    14289    3                                   SEND$ -> LX_ETT_ITEM.COLUMN);
     2762    14290    3                  ALTRETURN;

  14290 15 000067   000000 702200 xent               TSX2  ! X66_AALT

     2763    14291    3                END;
     2764    14292
     2765    14293    2          IF REC$ -> LX_ETT_ITEM.TYPE = %TYN THEN

  14293 15 000070   200003 475500                    LDP5    @REC$,,AUTO
        15 000071   500000 476500                    LDP6    0,,PR5
        15 000072   600004 235100                    LDA     4,,PR6
        15 000073   000016 115007                    CMPA    14,DL
        15 000074   000110 601000 15                 TNZ     s:14304

     2766    14294    3            DO;

     2767    14295    3              CALL Z8AE$ERROR (%E$MIXING_TYN_WITH_TYA,

  14295 15 000075   600006 637500                    EPPR7   6,,PR6
        15 000076   200012 457500                    STP7    SEND_ST$+3,,AUTO
        15 000077   600005 633500                    EPPR3   5,,PR6
        15 000100   200011 453500                    STP3    SEND_ST$+2,,AUTO
        15 000101   000004 236000 16                 LDQ     4
PL6.E3A0      #002=Z8E7$MOVE_SEMANTIC_CHECKS File=Z8E7.:Z8A6TSI                  SAT 08/09/97 11:43 Page:451
        15 000102   200010 756100                    STQ     SEND_ST$+1,,AUTO
        15 000103   200010 630500                    EPPR0   SEND_ST$+1,,AUTO
        15 000104   000000 631400 16                 EPPR1   0
        15 000105   000000 701000 xent               TSX1    Z8AE$ERROR
        15 000106   000000 011000                    NOP     0

     2768    14296    3                               REC$ -> LX_ETT_ITEM.LINE,
     2769    14297    3                               REC$ -> LX_ETT_ITEM.COLUMN);
     2770    14298    3              ALTRETURN;

  14298 15 000107   000000 702200 xent               TSX2  ! X66_AALT

     2771    14299    3            END;
     2772    14300
     2773    14301               %FISH(TRIAD = SEND$ -> LX_ETT_ITEM.ETT$,
     2774    14302                     RTN = SEND_ST$);

  14304 15 000110   300001 236100                    LDQ     1,,PR3
        15 000111   200007 756100                    STQ     SEND_ST$,,AUTO

  14305 15 000112   200007 477500                    LDP7    SEND_ST$,,AUTO
        15 000113   700000 220100                    LDX0    0,,PR7
        15 000114   000751 100003                    CMPX0   489,DU
        15 000115   000125 603000 15                 TRC     s:14311

  14306 15 000116   200007 470500                    LDP0    SEND_ST$,,AUTO
        15 000117   000001 236100                    LDQ     1,,PR0
        15 000120   200007 756100                    STQ     SEND_ST$,,AUTO

  14307 15 000121   200007 470500                    LDP0    SEND_ST$,,AUTO
        15 000122   000000 220100                    LDX0    0,,PR0
        15 000123   000751 100003                    CMPX0   489,DU
        15 000124   000116 602000 15                 TNC     s:14306

     2775    14310
     2776    14311    3          DO CASE (SEND_ST$ -> ST.ID);

PL6.E3A0      #002=Z8E7$MOVE_SEMANTIC_CHECKS File=Z8E7.:Z8A6TSI                  SAT 08/09/97 11:43 Page:452
  14311 15 000125   200007 470500                    LDP0    SEND_ST$,,AUTO
        15 000126   000000 236100                    LDQ     0,,PR0
        15 000127   000022 772000                    QRL     18
        15 000130   000765 136007                    SBLQ    501,DL
        15 000131   000002 116007                    CMPQ    2,DL
        15 000132   000134 602006 15                 TNC     s:14311+7,QL
        15 000133   002123 710000 15                 TRA     s:14587
        15 000134   000136 710000 15                 TRA     s:14314
        15 000135   000136 710000 15                 TRA     s:14314

     2777    14312
     2778    14313    3            CASE (%SCALAR, %ARRAY);

     2779    14314    4              DO CASE (SEND_ST$ -> VARIABLE.B.CLASS);

  14314 15 000136   000003 720100                    LXL0    3,,PR0
        15 000137   000007 360003                    ANX0    7,DU
        15 000140   000010 100003                    CMPX0   8,DU
        15 000141   000143 602010 15                 TNC     s:14314+5,X0
        15 000142   002123 710000 15                 TRA     s:14587
        15 000143   000354 710000 15                 TRA     s:14387
        15 000144   000354 710000 15                 TRA     s:14387
        15 000145   000153 710000 15                 TRA     s:14317
        15 000146   000243 710000 15                 TRA     s:14345
        15 000147   000354 710000 15                 TRA     s:14387
        15 000150   000313 710000 15                 TRA     s:14369
        15 000151   000354 710000 15                 TRA     s:14387
        15 000152   000153 710000 15                 TRA     s:14317

     2780    14315
     2781    14316    4                CASE (%CLASS_ALPHABETIC, %CLASS_ALPHANUMERIC_EDITED);

     2782    14317    5                  DO CASE (REC$ -> LX_ETT_ITEM.TYPE);

  14317 15 000153   200003 471500                    LDP1    @REC$,,AUTO
        15 000154   100000 473500                    LDP3    0,,PR1
        15 000155   300004 235100                    LDA     4,,PR3
PL6.E3A0      #002=Z8E7$MOVE_SEMANTIC_CHECKS File=Z8E7.:Z8A6TSI                  SAT 08/09/97 11:43 Page:453
        15 000156   000006 135007                    SBLA    6,DL
        15 000157   000007 115007                    CMPA    7,DL
        15 000160   000162 602005 15                 TNC     s:14317+7,AL
        15 000161   000171 710000 15                 TRA     s:14319
        15 000162   000204 710000 15                 TRA     s:14328
        15 000163   000171 710000 15                 TRA     s:14319
        15 000164   000204 710000 15                 TRA     s:14328
        15 000165   000171 710000 15                 TRA     s:14319
        15 000166   000171 710000 15                 TRA     s:14319
        15 000167   000171 710000 15                 TRA     s:14319
        15 000170   000204 710000 15                 TRA     s:14328

     2783    14318    5                    CASE (ELSE);

     2784    14319    5                      CALL Z8AE$ERROR (%E$MOVE_ALPHA_TYAE_TO_NUM,

  14319 15 000171   300006 634500                    EPPR4   6,,PR3
        15 000172   200012 454500                    STP4    SEND_ST$+3,,AUTO
        15 000173   300005 635500                    EPPR5   5,,PR3
        15 000174   200011 455500                    STP5    SEND_ST$+2,,AUTO
        15 000175   000006 236000 16                 LDQ     6
        15 000176   200010 756100                    STQ     SEND_ST$+1,,AUTO
        15 000177   200010 630500                    EPPR0   SEND_ST$+1,,AUTO
        15 000200   000000 631400 16                 EPPR1   0
        15 000201   000000 701000 xent               TSX1    Z8AE$ERROR
        15 000202   000000 011000                    NOP     0

     2785    14320    5                                       REC$ -> LX_ETT_ITEM.LINE,
     2786    14321    5                                       REC$ -> LX_ETT_ITEM.COLUMN);
     2787    14322    5                      ALTRETURN;

  14322 15 000203   000000 702200 xent               TSX2  ! X66_AALT

     2788    14323    5                    CASE (%TYA, %TYE, %TYB);

     2789    14324
     2790    14325                           %FISH(TRIAD = REC$ -> LX_ETT_ITEM.ETT$,
PL6.E3A0      #002=Z8E7$MOVE_SEMANTIC_CHECKS File=Z8E7.:Z8A6TSI                  SAT 08/09/97 11:43 Page:454
     2791    14326                                 RTN = REC_ST$);

  14328 15 000204   300001 236100                    LDQ     1,,PR3
        15 000205   200006 756100                    STQ     REC_ST$,,AUTO

  14329 15 000206   200006 474500                    LDP4    REC_ST$,,AUTO
        15 000207   400000 221100                    LDX1    0,,PR4
        15 000210   000751 101003                    CMPX1   489,DU
        15 000211   000221 603000 15                 TRC     s:14334

  14330 15 000212   200006 470500                    LDP0    REC_ST$,,AUTO
        15 000213   000001 236100                    LDQ     1,,PR0
        15 000214   200006 756100                    STQ     REC_ST$,,AUTO

  14331 15 000215   200006 470500                    LDP0    REC_ST$,,AUTO
        15 000216   000000 220100                    LDX0    0,,PR0
        15 000217   000751 100003                    CMPX0   489,DU
        15 000220   000212 602000 15                 TNC     s:14330

     2792    14334    5                      IF REC_ST$ -> VARIABLE.B.CLASS = %CLASS_NUMERIC_EDITED THEN

  14334 15 000221   200006 470500                    LDP0    REC_ST$,,AUTO
        15 000222   000003 236100                    LDQ     3,,PR0
        15 000223   000007 376007                    ANQ     7,DL
        15 000224   000005 116007                    CMPQ    5,DL
        15 000225   002123 601000 15                 TNZ     s:14587

     2793    14335    6                        DO;

     2794    14336    6                          CALL Z8AE$ERROR (%E$MOVE_ALPHA_TYAE_TO_NUM,

  14336 15 000226   200003 471500                    LDP1    @REC$,,AUTO
        15 000227   100000 473500                    LDP3    0,,PR1
        15 000230   300006 634500                    EPPR4   6,,PR3
        15 000231   200012 454500                    STP4    SEND_ST$+3,,AUTO
        15 000232   300005 635500                    EPPR5   5,,PR3
        15 000233   200011 455500                    STP5    SEND_ST$+2,,AUTO
PL6.E3A0      #002=Z8E7$MOVE_SEMANTIC_CHECKS File=Z8E7.:Z8A6TSI                  SAT 08/09/97 11:43 Page:455
        15 000234   000006 236000 16                 LDQ     6
        15 000235   200010 756100                    STQ     SEND_ST$+1,,AUTO
        15 000236   200010 630500                    EPPR0   SEND_ST$+1,,AUTO
        15 000237   000000 631400 16                 EPPR1   0
        15 000240   000000 701000 xent               TSX1    Z8AE$ERROR
        15 000241   000000 011000                    NOP     0

     2795    14337    6                                           REC$ -> LX_ETT_ITEM.LINE,
     2796    14338    6                                           REC$ -> LX_ETT_ITEM.COLUMN);
     2797    14339    6                          ALTRETURN;

  14339 15 000242   000000 702200 xent               TSX2  ! X66_AALT

     2798    14340    6                        END;
     2799    14341    5                  END; /* CASE */

     2800    14342
     2801    14343    4                CASE (%CLASS_ALPHANUMERIC);

     2802    14344                       /*V* All ok */
     2803    14345    4                  IF NOT SEND_ST$ -> VARIABLE.B.ELEMENTARY THEN

  14345 15 000243   000003 236100                    LDQ     3,,PR0
        15 000244   010000 316003                    CANQ    4096,DU
        15 000245   002123 601000 15                 TNZ     s:14587

     2804    14346    5                    DO; /* Still, if MOVE to packed decimal, warn user */

     2805    14347                           %FISH(TRIAD = REC$ -> LX_ETT_ITEM.ETT$,
     2806    14348                                 RTN = REC_ST$);

  14350 15 000246   200003 471500                    LDP1    @REC$,,AUTO
        15 000247   100000 473500                    LDP3    0,,PR1
        15 000250   300001 236100                    LDQ     1,,PR3
        15 000251   200006 756100                    STQ     REC_ST$,,AUTO

  14351 15 000252   200006 474500                    LDP4    REC_ST$,,AUTO
PL6.E3A0      #002=Z8E7$MOVE_SEMANTIC_CHECKS File=Z8E7.:Z8A6TSI                  SAT 08/09/97 11:43 Page:456
        15 000253   400000 221100                    LDX1    0,,PR4
        15 000254   000751 101003                    CMPX1   489,DU
        15 000255   000265 603000 15                 TRC     s:14356

  14352 15 000256   200006 470500                    LDP0    REC_ST$,,AUTO
        15 000257   000001 236100                    LDQ     1,,PR0
        15 000260   200006 756100                    STQ     REC_ST$,,AUTO

  14353 15 000261   200006 470500                    LDP0    REC_ST$,,AUTO
        15 000262   000000 220100                    LDX0    0,,PR0
        15 000263   000751 100003                    CMPX0   489,DU
        15 000264   000256 602000 15                 TNC     s:14352

     2807    14356    5                      IF REC_ST$ -> VARIABLE.TYPE = %TYF OR

  14356 15 000265   200006 470500                    LDP0    REC_ST$,,AUTO
        15 000266   000002 220100                    LDX0    2,,PR0
        15 000267   000013 100003                    CMPX0   11,DU
        15 000270   002123 600000 15                 TZE     s:14587
        15 000271   000023 100003                    CMPX0   19,DU
        15 000272   002123 600000 15                 TZE     s:14587

     2808    14357    5                          REC_ST$ -> VARIABLE.TYPE = %TYC THEN; /* Do nothing */
     2809    14358    5                      ELSE IF REC_ST$ -> VARIABLE.NDSC.TN = %NDSC4 THEN

  14358 15 000273   000001 236100                    LDQ     1,,PR0
        15 000274   040000 316007                    CANQ    16384,DL
        15 000275   002123 600000 15                 TZE     s:14587

     2810    14359    5                        CALL Z8AE$ERROR (%E$GROUP_MOVE,

  14359 15 000276   200003 471500                    LDP1    @REC$,,AUTO
        15 000277   100000 473500                    LDP3    0,,PR1
        15 000300   300006 634500                    EPPR4   6,,PR3
        15 000301   200012 454500                    STP4    SEND_ST$+3,,AUTO
        15 000302   300005 635500                    EPPR5   5,,PR3
        15 000303   200011 455500                    STP5    SEND_ST$+2,,AUTO
PL6.E3A0      #002=Z8E7$MOVE_SEMANTIC_CHECKS File=Z8E7.:Z8A6TSI                  SAT 08/09/97 11:43 Page:457
        15 000304   000010 236000 16                 LDQ     8
        15 000305   200010 756100                    STQ     SEND_ST$+1,,AUTO
        15 000306   200010 630500                    EPPR0   SEND_ST$+1,,AUTO
        15 000307   000000 631400 16                 EPPR1   0
        15 000310   000000 701000 xent               TSX1    Z8AE$ERROR
        15 000311   000000 011000                    NOP     0

     2811    14360    5                                         REC$ -> LX_ETT_ITEM.LINE,
     2812    14361    5                                         REC$ -> LX_ETT_ITEM.COLUMN);
     2813    14362    5                    END;

  14362 15 000312   002123 710000 15                 TRA     s:14587

     2814    14363
     2815    14364    4                CASE (%CLASS_NUMERIC_EDITED);

     2816    14365
     2817    14366                       %FISH(TRIAD = REC$ -> LX_ETT_ITEM.ETT$,
     2818    14367                             RTN = REC_ST$);

  14369 15 000313   200003 471500                    LDP1    @REC$,,AUTO
        15 000314   100000 473500                    LDP3    0,,PR1
        15 000315   300001 236100                    LDQ     1,,PR3
        15 000316   200006 756100                    STQ     REC_ST$,,AUTO

  14370 15 000317   200006 474500                    LDP4    REC_ST$,,AUTO
        15 000320   400000 221100                    LDX1    0,,PR4
        15 000321   000751 101003                    CMPX1   489,DU
        15 000322   000332 603000 15                 TRC     s:14375

  14371 15 000323   200006 470500                    LDP0    REC_ST$,,AUTO
        15 000324   000001 236100                    LDQ     1,,PR0
        15 000325   200006 756100                    STQ     REC_ST$,,AUTO

  14372 15 000326   200006 470500                    LDP0    REC_ST$,,AUTO
        15 000327   000000 220100                    LDX0    0,,PR0
        15 000330   000751 100003                    CMPX0   489,DU
PL6.E3A0      #002=Z8E7$MOVE_SEMANTIC_CHECKS File=Z8E7.:Z8A6TSI                  SAT 08/09/97 11:43 Page:458
        15 000331   000323 602000 15                 TNC     s:14371

     2819    14375    4                  IF REC_ST$ -> VARIABLE.B.CLASS = %CLASS_ALPHABETIC THEN

  14375 15 000332   200006 470500                    LDP0    REC_ST$,,AUTO
        15 000333   000003 236100                    LDQ     3,,PR0
        15 000334   000007 376007                    ANQ     7,DL
        15 000335   000002 116007                    CMPQ    2,DL
        15 000336   002123 601000 15                 TNZ     s:14587

     2820    14376    5                    DO;

     2821    14377    5                      CALL Z8AE$ERROR (%E$MOVE_NUM_TO_ALPHABETIC,

  14377 15 000337   200003 471500                    LDP1    @REC$,,AUTO
        15 000340   100000 473500                    LDP3    0,,PR1
        15 000341   300006 634500                    EPPR4   6,,PR3
        15 000342   200012 454500                    STP4    SEND_ST$+3,,AUTO
        15 000343   300005 635500                    EPPR5   5,,PR3
        15 000344   200011 455500                    STP5    SEND_ST$+2,,AUTO
        15 000345   000012 236000 16                 LDQ     10
        15 000346   200010 756100                    STQ     SEND_ST$+1,,AUTO
        15 000347   200010 630500                    EPPR0   SEND_ST$+1,,AUTO
        15 000350   000000 631400 16                 EPPR1   0
        15 000351   000000 701000 xent               TSX1    Z8AE$ERROR
        15 000352   000000 011000                    NOP     0

     2822    14378    5                                       REC$ -> LX_ETT_ITEM.LINE,
     2823    14379    5                                       REC$ -> LX_ETT_ITEM.COLUMN);
     2824    14380    5                      ALTRETURN;

  14380 15 000353   000000 702200 xent               TSX2  ! X66_AALT

     2825    14381    5                    END;
     2826    14382
     2827    14383
     2828    14384    4                CASE (ELSE);
PL6.E3A0      #002=Z8E7$MOVE_SEMANTIC_CHECKS File=Z8E7.:Z8A6TSI                  SAT 08/09/97 11:43 Page:459

     2829    14385    4                  /*V* All ok */;
     2830    14386
     2831    14387    4              END; /*V* Case - st.b.class */

  14387 15 000354   002123 710000 15                 TRA     s:14587

     2832    14388
     2833    14389    3            CASE (ELSE);

     2834    14390    3              /*V* All ok - fall thru */;
     2835    14391
     2836    14392    3          END; /*V* Case -- st.id */

     2837    14393        %EJECT;
PL6.E3A0      #002=Z8E7$MOVE_SEMANTIC_CHECKS File=Z8E7.:Z8A6TSI                  SAT 08/09/97 11:43 Page:460
     2838    14394    2        CASE (%TYT);

     2839    14395    2          IF REC$ -> LX_ETT_ITEM.ETT$ = ADDR(NIL) THEN

  14395 15 000355   200003 474500                    LDP4    @REC$,,AUTO
        15 000356   400000 475500                    LDP5    0,,PR4
        15 000357   500001 236100                    LDQ     1,,PR5
        15 000360   000013 116000 16                 CMPQ    11
        15 000361   000363 601000 15                 TNZ     s:14401

     2840    14396    2            RETURN;

  14396 15 000362   000000 702200 xent               TSX2  ! X66_ARET

     2841    14397
     2842    14398                %FISH(TRIAD = REC$ -> LX_ETT_ITEM.ETT$,
     2843    14399                      RTN = REC_ST$);

  14401 15 000363   200006 756100                    STQ     REC_ST$,,AUTO

  14402 15 000364   200006 476500                    LDP6    REC_ST$,,AUTO
        15 000365   600000 220100                    LDX0    0,,PR6
        15 000366   000751 100003                    CMPX0   489,DU
        15 000367   000377 603000 15                 TRC     s:14407

  14403 15 000370   200006 470500                    LDP0    REC_ST$,,AUTO
        15 000371   000001 236100                    LDQ     1,,PR0
        15 000372   200006 756100                    STQ     REC_ST$,,AUTO

  14404 15 000373   200006 470500                    LDP0    REC_ST$,,AUTO
        15 000374   000000 220100                    LDX0    0,,PR0
        15 000375   000751 100003                    CMPX0   489,DU
        15 000376   000370 602000 15                 TNC     s:14403

     2844    14407    2          IF STATEMENT_TYPE = %S_TYPE_DML_SET   THEN     /*V* DML SET TO NULL */

  14407 15 000377   200005 470500                    LDP0    @STATEMENT_TYPE,,AUTO
PL6.E3A0      #002=Z8E7$MOVE_SEMANTIC_CHECKS File=Z8E7.:Z8A6TSI                  SAT 08/09/97 11:43 Page:461
        15 000400   000000 235100                    LDA     0,,PR0
        15 000401   000072 115007                    CMPA    58,DL
        15 000402   000445 601000 15                 TNZ     s:14420

     2845    14408    2              IF REC_ST$ -> VARIABLE.B.DML_TYPE ~= %DATA_BASE_KEY  AND

  14408 15 000403   200006 471500                    LDP1    REC_ST$,,AUTO
        15 000404   100003 236100                    LDQ     3,,PR1
        15 000405   160000 376007                    ANQ     57344,DL
        15 000406   040000 116007                    CMPQ    16384,DL
        15 000407   000445 600000 15                 TZE     s:14420
        15 000410   120000 116007                    CMPQ    40960,DL
        15 000411   000445 600000 15                 TZE     s:14420

     2846    14409    2                 REC_ST$ -> VARIABLE.B.DML_TYPE ~= %DIRECT_REFERENCE  THEN
     2847    14410    3                DO;

     2848    14411    3                  IF REC$ -> LX_ETT_ITEM.TYPE = %TYP THEN

  14411 15 000412   200003 473500                    LDP3    @REC$,,AUTO
        15 000413   300000 474500                    LDP4    0,,PR3
        15 000414   400004 235100                    LDA     4,,PR4
        15 000415   000022 115007                    CMPA    18,DL
        15 000416   000432 601000 15                 TNZ     s:14414

     2849    14412    3                    CALL Z8E7$POINTER_MOVE (REC$, ADDR(NIL));

  14412 15 000417   000013 236000 16                 LDQ     11
        15 000420   200010 756100                    STQ     SEND_ST$+1,,AUTO
        15 000421   200010 634500                    EPPR4   SEND_ST$+1,,AUTO
        15 000422   200013 454500                    STP4    SEND_ST$+4,,AUTO
        15 000423   200003 236100                    LDQ     @REC$,,AUTO
        15 000424   200012 756100                    STQ     SEND_ST$+3,,AUTO
        15 000425   200012 630500                    EPPR0   SEND_ST$+3,,AUTO
        15 000426   000014 631400 16                 EPPR1   12
        15 000427   000000 701000 xent               TSX1    Z8E7$POINTER_MOVE
        15 000430   000000 011000                    NOP     0
PL6.E3A0      #002=Z8E7$MOVE_SEMANTIC_CHECKS File=Z8E7.:Z8A6TSI                  SAT 08/09/97 11:43 Page:462
        15 000431   000444 710000 15                 TRA     s:14417

     2850    14413    3                  ELSE
     2851    14414    3                    CALL Z8AE$ERROR( %E$DML_SET_RECEIVER_ERROR,

  14414 15 000432   400006 635500                    EPPR5   6,,PR4
        15 000433   200012 455500                    STP5    SEND_ST$+3,,AUTO
        15 000434   400005 636500                    EPPR6   5,,PR4
        15 000435   200011 456500                    STP6    SEND_ST$+2,,AUTO
        15 000436   000002 236000 16                 LDQ     2
        15 000437   200010 756100                    STQ     SEND_ST$+1,,AUTO
        15 000440   200010 630500                    EPPR0   SEND_ST$+1,,AUTO
        15 000441   000000 631400 16                 EPPR1   0
        15 000442   000000 701000 xent               TSX1    Z8AE$ERROR
        15 000443   000000 011000                    NOP     0

     2852    14415    3                                     REC$ -> LX_ETT_ITEM.LINE,
     2853    14416    3                                     REC$ -> LX_ETT_ITEM.COLUMN);
     2854    14417    3                  ALTRETURN;

  14417 15 000444   000000 702200 xent               TSX2  ! X66_AALT

     2855    14418    3                END;
     2856    14419
     2857    14420    3          DO CASE (REC$ -> LX_ETT_ITEM.TYPE);

  14420 15 000445   200003 471500                    LDP1    @REC$,,AUTO
        15 000446   100000 473500                    LDP3    0,,PR1
        15 000447   300004 235100                    LDA     4,,PR3
        15 000450   000006 135007                    SBLA    6,DL
        15 000451   000011 115007                    CMPA    9,DL
        15 000452   000454 602005 15                 TNC     s:14420+7,AL
        15 000453   001612 710000 15                 TRA     s:14471
        15 000454   000465 710000 15                 TRA     s:14422
        15 000455   001612 710000 15                 TRA     s:14471
        15 000456   000465 710000 15                 TRA     s:14422
        15 000457   001612 710000 15                 TRA     s:14471
PL6.E3A0      #002=Z8E7$MOVE_SEMANTIC_CHECKS File=Z8E7.:Z8A6TSI                  SAT 08/09/97 11:43 Page:463
        15 000460   001612 710000 15                 TRA     s:14471
        15 000461   001612 710000 15                 TRA     s:14471
        15 000462   000465 710000 15                 TRA     s:14422
        15 000463   001612 710000 15                 TRA     s:14471
        15 000464   000465 710000 15                 TRA     s:14422

     2858    14421    3            CASE (%TYA, %TYN, %TYE, %TYB);

     2859    14422    4              DO CASE (SEND$ -> LX_TERMINAL.SYMBOL);

  14422 15 000465   200004 474500                    LDP4    @SEND$,,AUTO
        15 000466   400000 475500                    LDP5    0,,PR4
        15 000467   500003 235100                    LDA     3,,PR5
        15 000470   000762 115007                    CMPA    498,DL
        15 000471   000473 602005 15                 TNC     s:14422+6,AL
        15 000472   001577 710000 15                 TRA     s:14464
        15 000473   001577 710000 15                 TRA     s:14464
        15 000474   001577 710000 15                 TRA     s:14464
        15 000475   001577 710000 15                 TRA     s:14464
        15 000476   001455 710000 15                 TRA     s:14427
        15 000477   001455 710000 15                 TRA     s:14427
        15 000500   001577 710000 15                 TRA     s:14464
        15 000501   001577 710000 15                 TRA     s:14464
        15 000502   001577 710000 15                 TRA     s:14464
        15 000503   001577 710000 15                 TRA     s:14464
        15 000504   001577 710000 15                 TRA     s:14464
        15 000505   001577 710000 15                 TRA     s:14464
        15 000506   001577 710000 15                 TRA     s:14464
        15 000507   001577 710000 15                 TRA     s:14464
        15 000510   001577 710000 15                 TRA     s:14464
        15 000511   001577 710000 15                 TRA     s:14464
        15 000512   001577 710000 15                 TRA     s:14464
        15 000513   001577 710000 15                 TRA     s:14464
        15 000514   001577 710000 15                 TRA     s:14464
        15 000515   001577 710000 15                 TRA     s:14464
        15 000516   001577 710000 15                 TRA     s:14464
        15 000517   001577 710000 15                 TRA     s:14464
PL6.E3A0      #002=Z8E7$MOVE_SEMANTIC_CHECKS File=Z8E7.:Z8A6TSI                  SAT 08/09/97 11:43 Page:464
        15 000520   001526 710000 15                 TRA     s:14445
        15 000521   001526 710000 15                 TRA     s:14445
        15 000522   001577 710000 15                 TRA     s:14464
        15 000523   001577 710000 15                 TRA     s:14464
        15 000524   001577 710000 15                 TRA     s:14464
        15 000525   001577 710000 15                 TRA     s:14464
        15 000526   001577 710000 15                 TRA     s:14464
        15 000527   001577 710000 15                 TRA     s:14464
        15 000530   001577 710000 15                 TRA     s:14464
        15 000531   001577 710000 15                 TRA     s:14464
        15 000532   001577 710000 15                 TRA     s:14464
        15 000533   001577 710000 15                 TRA     s:14464
        15 000534   001577 710000 15                 TRA     s:14464
        15 000535   001577 710000 15                 TRA     s:14464
        15 000536   001577 710000 15                 TRA     s:14464
        15 000537   001577 710000 15                 TRA     s:14464
        15 000540   001577 710000 15                 TRA     s:14464
        15 000541   001577 710000 15                 TRA     s:14464
        15 000542   001577 710000 15                 TRA     s:14464
        15 000543   001577 710000 15                 TRA     s:14464
        15 000544   001577 710000 15                 TRA     s:14464
        15 000545   001577 710000 15                 TRA     s:14464
        15 000546   001577 710000 15                 TRA     s:14464
        15 000547   001577 710000 15                 TRA     s:14464
        15 000550   001577 710000 15                 TRA     s:14464
        15 000551   001577 710000 15                 TRA     s:14464
        15 000552   001577 710000 15                 TRA     s:14464
        15 000553   001577 710000 15                 TRA     s:14464
        15 000554   001577 710000 15                 TRA     s:14464
        15 000555   001577 710000 15                 TRA     s:14464
        15 000556   001577 710000 15                 TRA     s:14464
        15 000557   001577 710000 15                 TRA     s:14464
        15 000560   001577 710000 15                 TRA     s:14464
        15 000561   001577 710000 15                 TRA     s:14464
        15 000562   001577 710000 15                 TRA     s:14464
        15 000563   001577 710000 15                 TRA     s:14464
        15 000564   001577 710000 15                 TRA     s:14464
PL6.E3A0      #002=Z8E7$MOVE_SEMANTIC_CHECKS File=Z8E7.:Z8A6TSI                  SAT 08/09/97 11:43 Page:465
        15 000565   001577 710000 15                 TRA     s:14464
        15 000566   001577 710000 15                 TRA     s:14464
        15 000567   001577 710000 15                 TRA     s:14464
        15 000570   001577 710000 15                 TRA     s:14464
        15 000571   001577 710000 15                 TRA     s:14464
        15 000572   001577 710000 15                 TRA     s:14464
        15 000573   001577 710000 15                 TRA     s:14464
        15 000574   001577 710000 15                 TRA     s:14464
        15 000575   001577 710000 15                 TRA     s:14464
        15 000576   001577 710000 15                 TRA     s:14464
        15 000577   001577 710000 15                 TRA     s:14464
        15 000600   001577 710000 15                 TRA     s:14464
        15 000601   001577 710000 15                 TRA     s:14464
        15 000602   001577 710000 15                 TRA     s:14464
        15 000603   001577 710000 15                 TRA     s:14464
        15 000604   001577 710000 15                 TRA     s:14464
        15 000605   001577 710000 15                 TRA     s:14464
        15 000606   001577 710000 15                 TRA     s:14464
        15 000607   001577 710000 15                 TRA     s:14464
        15 000610   001577 710000 15                 TRA     s:14464
        15 000611   001577 710000 15                 TRA     s:14464
        15 000612   001577 710000 15                 TRA     s:14464
        15 000613   001577 710000 15                 TRA     s:14464
        15 000614   001577 710000 15                 TRA     s:14464
        15 000615   001577 710000 15                 TRA     s:14464
        15 000616   001577 710000 15                 TRA     s:14464
        15 000617   001577 710000 15                 TRA     s:14464
        15 000620   001577 710000 15                 TRA     s:14464
        15 000621   001577 710000 15                 TRA     s:14464
        15 000622   001577 710000 15                 TRA     s:14464
        15 000623   001577 710000 15                 TRA     s:14464
        15 000624   001577 710000 15                 TRA     s:14464
        15 000625   001577 710000 15                 TRA     s:14464
        15 000626   001577 710000 15                 TRA     s:14464
        15 000627   001577 710000 15                 TRA     s:14464
        15 000630   001577 710000 15                 TRA     s:14464
        15 000631   001577 710000 15                 TRA     s:14464
PL6.E3A0      #002=Z8E7$MOVE_SEMANTIC_CHECKS File=Z8E7.:Z8A6TSI                  SAT 08/09/97 11:43 Page:466
        15 000632   001577 710000 15                 TRA     s:14464
        15 000633   001577 710000 15                 TRA     s:14464
        15 000634   001577 710000 15                 TRA     s:14464
        15 000635   001577 710000 15                 TRA     s:14464
        15 000636   001577 710000 15                 TRA     s:14464
        15 000637   001577 710000 15                 TRA     s:14464
        15 000640   001577 710000 15                 TRA     s:14464
        15 000641   001577 710000 15                 TRA     s:14464
        15 000642   001577 710000 15                 TRA     s:14464
        15 000643   001577 710000 15                 TRA     s:14464
        15 000644   001577 710000 15                 TRA     s:14464
        15 000645   001577 710000 15                 TRA     s:14464
        15 000646   001577 710000 15                 TRA     s:14464
        15 000647   001577 710000 15                 TRA     s:14464
        15 000650   001577 710000 15                 TRA     s:14464
        15 000651   001577 710000 15                 TRA     s:14464
        15 000652   001577 710000 15                 TRA     s:14464
        15 000653   001577 710000 15                 TRA     s:14464
        15 000654   001577 710000 15                 TRA     s:14464
        15 000655   001577 710000 15                 TRA     s:14464
        15 000656   001577 710000 15                 TRA     s:14464
        15 000657   001577 710000 15                 TRA     s:14464
        15 000660   001577 710000 15                 TRA     s:14464
        15 000661   001577 710000 15                 TRA     s:14464
        15 000662   001577 710000 15                 TRA     s:14464
        15 000663   001577 710000 15                 TRA     s:14464
        15 000664   001577 710000 15                 TRA     s:14464
        15 000665   001577 710000 15                 TRA     s:14464
        15 000666   001577 710000 15                 TRA     s:14464
        15 000667   001577 710000 15                 TRA     s:14464
        15 000670   001577 710000 15                 TRA     s:14464
        15 000671   001577 710000 15                 TRA     s:14464
        15 000672   001577 710000 15                 TRA     s:14464
        15 000673   001577 710000 15                 TRA     s:14464
        15 000674   001577 710000 15                 TRA     s:14464
        15 000675   001577 710000 15                 TRA     s:14464
        15 000676   001577 710000 15                 TRA     s:14464
PL6.E3A0      #002=Z8E7$MOVE_SEMANTIC_CHECKS File=Z8E7.:Z8A6TSI                  SAT 08/09/97 11:43 Page:467
        15 000677   001577 710000 15                 TRA     s:14464
        15 000700   001577 710000 15                 TRA     s:14464
        15 000701   001577 710000 15                 TRA     s:14464
        15 000702   001577 710000 15                 TRA     s:14464
        15 000703   001577 710000 15                 TRA     s:14464
        15 000704   001577 710000 15                 TRA     s:14464
        15 000705   001577 710000 15                 TRA     s:14464
        15 000706   001577 710000 15                 TRA     s:14464
        15 000707   001577 710000 15                 TRA     s:14464
        15 000710   001577 710000 15                 TRA     s:14464
        15 000711   001577 710000 15                 TRA     s:14464
        15 000712   001577 710000 15                 TRA     s:14464
        15 000713   001577 710000 15                 TRA     s:14464
        15 000714   001577 710000 15                 TRA     s:14464
        15 000715   001577 710000 15                 TRA     s:14464
        15 000716   001577 710000 15                 TRA     s:14464
        15 000717   001577 710000 15                 TRA     s:14464
        15 000720   001577 710000 15                 TRA     s:14464
        15 000721   001577 710000 15                 TRA     s:14464
        15 000722   001577 710000 15                 TRA     s:14464
        15 000723   001577 710000 15                 TRA     s:14464
        15 000724   001577 710000 15                 TRA     s:14464
        15 000725   001577 710000 15                 TRA     s:14464
        15 000726   001577 710000 15                 TRA     s:14464
        15 000727   001577 710000 15                 TRA     s:14464
        15 000730   001577 710000 15                 TRA     s:14464
        15 000731   001577 710000 15                 TRA     s:14464
        15 000732   001577 710000 15                 TRA     s:14464
        15 000733   001577 710000 15                 TRA     s:14464
        15 000734   001577 710000 15                 TRA     s:14464
        15 000735   001577 710000 15                 TRA     s:14464
        15 000736   001577 710000 15                 TRA     s:14464
        15 000737   001577 710000 15                 TRA     s:14464
        15 000740   001577 710000 15                 TRA     s:14464
        15 000741   001577 710000 15                 TRA     s:14464
        15 000742   001577 710000 15                 TRA     s:14464
        15 000743   001577 710000 15                 TRA     s:14464
PL6.E3A0      #002=Z8E7$MOVE_SEMANTIC_CHECKS File=Z8E7.:Z8A6TSI                  SAT 08/09/97 11:43 Page:468
        15 000744   001577 710000 15                 TRA     s:14464
        15 000745   001577 710000 15                 TRA     s:14464
        15 000746   001577 710000 15                 TRA     s:14464
        15 000747   001577 710000 15                 TRA     s:14464
        15 000750   001577 710000 15                 TRA     s:14464
        15 000751   001577 710000 15                 TRA     s:14464
        15 000752   001577 710000 15                 TRA     s:14464
        15 000753   001577 710000 15                 TRA     s:14464
        15 000754   001577 710000 15                 TRA     s:14464
        15 000755   001577 710000 15                 TRA     s:14464
        15 000756   001577 710000 15                 TRA     s:14464
        15 000757   001577 710000 15                 TRA     s:14464
        15 000760   001577 710000 15                 TRA     s:14464
        15 000761   001577 710000 15                 TRA     s:14464
        15 000762   001577 710000 15                 TRA     s:14464
        15 000763   001577 710000 15                 TRA     s:14464
        15 000764   001577 710000 15                 TRA     s:14464
        15 000765   001577 710000 15                 TRA     s:14464
        15 000766   001577 710000 15                 TRA     s:14464
        15 000767   001577 710000 15                 TRA     s:14464
        15 000770   001577 710000 15                 TRA     s:14464
        15 000771   001577 710000 15                 TRA     s:14464
        15 000772   001577 710000 15                 TRA     s:14464
        15 000773   001577 710000 15                 TRA     s:14464
        15 000774   001577 710000 15                 TRA     s:14464
        15 000775   001577 710000 15                 TRA     s:14464
        15 000776   001577 710000 15                 TRA     s:14464
        15 000777   001577 710000 15                 TRA     s:14464
        15 001000   001577 710000 15                 TRA     s:14464
        15 001001   001577 710000 15                 TRA     s:14464
        15 001002   001577 710000 15                 TRA     s:14464
        15 001003   001577 710000 15                 TRA     s:14464
        15 001004   001577 710000 15                 TRA     s:14464
        15 001005   001577 710000 15                 TRA     s:14464
        15 001006   001577 710000 15                 TRA     s:14464
        15 001007   001577 710000 15                 TRA     s:14464
        15 001010   001577 710000 15                 TRA     s:14464
PL6.E3A0      #002=Z8E7$MOVE_SEMANTIC_CHECKS File=Z8E7.:Z8A6TSI                  SAT 08/09/97 11:43 Page:469
        15 001011   001577 710000 15                 TRA     s:14464
        15 001012   001577 710000 15                 TRA     s:14464
        15 001013   001577 710000 15                 TRA     s:14464
        15 001014   001577 710000 15                 TRA     s:14464
        15 001015   001577 710000 15                 TRA     s:14464
        15 001016   001577 710000 15                 TRA     s:14464
        15 001017   001577 710000 15                 TRA     s:14464
        15 001020   001577 710000 15                 TRA     s:14464
        15 001021   001577 710000 15                 TRA     s:14464
        15 001022   001577 710000 15                 TRA     s:14464
        15 001023   001577 710000 15                 TRA     s:14464
        15 001024   001577 710000 15                 TRA     s:14464
        15 001025   001577 710000 15                 TRA     s:14464
        15 001026   001577 710000 15                 TRA     s:14464
        15 001027   001577 710000 15                 TRA     s:14464
        15 001030   001577 710000 15                 TRA     s:14464
        15 001031   001577 710000 15                 TRA     s:14464
        15 001032   001577 710000 15                 TRA     s:14464
        15 001033   001577 710000 15                 TRA     s:14464
        15 001034   001577 710000 15                 TRA     s:14464
        15 001035   001577 710000 15                 TRA     s:14464
        15 001036   001577 710000 15                 TRA     s:14464
        15 001037   001577 710000 15                 TRA     s:14464
        15 001040   001577 710000 15                 TRA     s:14464
        15 001041   001577 710000 15                 TRA     s:14464
        15 001042   001577 710000 15                 TRA     s:14464
        15 001043   001577 710000 15                 TRA     s:14464
        15 001044   001455 710000 15                 TRA     s:14427
        15 001045   001577 710000 15                 TRA     s:14464
        15 001046   001577 710000 15                 TRA     s:14464
        15 001047   001577 710000 15                 TRA     s:14464
        15 001050   001577 710000 15                 TRA     s:14464
        15 001051   001577 710000 15                 TRA     s:14464
        15 001052   001577 710000 15                 TRA     s:14464
        15 001053   001577 710000 15                 TRA     s:14464
        15 001054   001577 710000 15                 TRA     s:14464
        15 001055   001577 710000 15                 TRA     s:14464
PL6.E3A0      #002=Z8E7$MOVE_SEMANTIC_CHECKS File=Z8E7.:Z8A6TSI                  SAT 08/09/97 11:43 Page:470
        15 001056   001577 710000 15                 TRA     s:14464
        15 001057   001577 710000 15                 TRA     s:14464
        15 001060   001577 710000 15                 TRA     s:14464
        15 001061   001577 710000 15                 TRA     s:14464
        15 001062   001577 710000 15                 TRA     s:14464
        15 001063   001577 710000 15                 TRA     s:14464
        15 001064   001577 710000 15                 TRA     s:14464
        15 001065   001577 710000 15                 TRA     s:14464
        15 001066   001577 710000 15                 TRA     s:14464
        15 001067   001577 710000 15                 TRA     s:14464
        15 001070   001577 710000 15                 TRA     s:14464
        15 001071   001577 710000 15                 TRA     s:14464
        15 001072   001577 710000 15                 TRA     s:14464
        15 001073   001577 710000 15                 TRA     s:14464
        15 001074   001577 710000 15                 TRA     s:14464
        15 001075   001577 710000 15                 TRA     s:14464
        15 001076   001577 710000 15                 TRA     s:14464
        15 001077   001577 710000 15                 TRA     s:14464
        15 001100   001577 710000 15                 TRA     s:14464
        15 001101   001577 710000 15                 TRA     s:14464
        15 001102   001577 710000 15                 TRA     s:14464
        15 001103   001577 710000 15                 TRA     s:14464
        15 001104   001577 710000 15                 TRA     s:14464
        15 001105   001577 710000 15                 TRA     s:14464
        15 001106   001577 710000 15                 TRA     s:14464
        15 001107   001577 710000 15                 TRA     s:14464
        15 001110   001577 710000 15                 TRA     s:14464
        15 001111   001577 710000 15                 TRA     s:14464
        15 001112   001577 710000 15                 TRA     s:14464
        15 001113   001577 710000 15                 TRA     s:14464
        15 001114   001577 710000 15                 TRA     s:14464
        15 001115   001577 710000 15                 TRA     s:14464
        15 001116   001577 710000 15                 TRA     s:14464
        15 001117   001577 710000 15                 TRA     s:14464
        15 001120   001577 710000 15                 TRA     s:14464
        15 001121   001577 710000 15                 TRA     s:14464
        15 001122   001577 710000 15                 TRA     s:14464
PL6.E3A0      #002=Z8E7$MOVE_SEMANTIC_CHECKS File=Z8E7.:Z8A6TSI                  SAT 08/09/97 11:43 Page:471
        15 001123   001577 710000 15                 TRA     s:14464
        15 001124   001577 710000 15                 TRA     s:14464
        15 001125   001577 710000 15                 TRA     s:14464
        15 001126   001455 710000 15                 TRA     s:14427
        15 001127   001577 710000 15                 TRA     s:14464
        15 001130   001577 710000 15                 TRA     s:14464
        15 001131   001577 710000 15                 TRA     s:14464
        15 001132   001577 710000 15                 TRA     s:14464
        15 001133   001577 710000 15                 TRA     s:14464
        15 001134   001577 710000 15                 TRA     s:14464
        15 001135   001577 710000 15                 TRA     s:14464
        15 001136   001577 710000 15                 TRA     s:14464
        15 001137   001577 710000 15                 TRA     s:14464
        15 001140   001577 710000 15                 TRA     s:14464
        15 001141   001577 710000 15                 TRA     s:14464
        15 001142   001577 710000 15                 TRA     s:14464
        15 001143   001577 710000 15                 TRA     s:14464
        15 001144   001577 710000 15                 TRA     s:14464
        15 001145   001577 710000 15                 TRA     s:14464
        15 001146   001577 710000 15                 TRA     s:14464
        15 001147   001577 710000 15                 TRA     s:14464
        15 001150   001577 710000 15                 TRA     s:14464
        15 001151   001577 710000 15                 TRA     s:14464
        15 001152   001577 710000 15                 TRA     s:14464
        15 001153   001577 710000 15                 TRA     s:14464
        15 001154   001577 710000 15                 TRA     s:14464
        15 001155   001577 710000 15                 TRA     s:14464
        15 001156   001577 710000 15                 TRA     s:14464
        15 001157   001577 710000 15                 TRA     s:14464
        15 001160   001577 710000 15                 TRA     s:14464
        15 001161   001577 710000 15                 TRA     s:14464
        15 001162   001577 710000 15                 TRA     s:14464
        15 001163   001577 710000 15                 TRA     s:14464
        15 001164   001577 710000 15                 TRA     s:14464
        15 001165   001577 710000 15                 TRA     s:14464
        15 001166   001577 710000 15                 TRA     s:14464
        15 001167   001577 710000 15                 TRA     s:14464
PL6.E3A0      #002=Z8E7$MOVE_SEMANTIC_CHECKS File=Z8E7.:Z8A6TSI                  SAT 08/09/97 11:43 Page:472
        15 001170   001577 710000 15                 TRA     s:14464
        15 001171   001577 710000 15                 TRA     s:14464
        15 001172   001577 710000 15                 TRA     s:14464
        15 001173   001577 710000 15                 TRA     s:14464
        15 001174   001577 710000 15                 TRA     s:14464
        15 001175   001577 710000 15                 TRA     s:14464
        15 001176   001577 710000 15                 TRA     s:14464
        15 001177   001577 710000 15                 TRA     s:14464
        15 001200   001577 710000 15                 TRA     s:14464
        15 001201   001577 710000 15                 TRA     s:14464
        15 001202   001577 710000 15                 TRA     s:14464
        15 001203   001577 710000 15                 TRA     s:14464
        15 001204   001577 710000 15                 TRA     s:14464
        15 001205   001577 710000 15                 TRA     s:14464
        15 001206   001577 710000 15                 TRA     s:14464
        15 001207   001577 710000 15                 TRA     s:14464
        15 001210   001577 710000 15                 TRA     s:14464
        15 001211   001577 710000 15                 TRA     s:14464
        15 001212   001577 710000 15                 TRA     s:14464
        15 001213   001577 710000 15                 TRA     s:14464
        15 001214   001577 710000 15                 TRA     s:14464
        15 001215   001577 710000 15                 TRA     s:14464
        15 001216   001577 710000 15                 TRA     s:14464
        15 001217   001577 710000 15                 TRA     s:14464
        15 001220   001577 710000 15                 TRA     s:14464
        15 001221   001577 710000 15                 TRA     s:14464
        15 001222   001577 710000 15                 TRA     s:14464
        15 001223   001577 710000 15                 TRA     s:14464
        15 001224   001577 710000 15                 TRA     s:14464
        15 001225   001577 710000 15                 TRA     s:14464
        15 001226   001577 710000 15                 TRA     s:14464
        15 001227   001577 710000 15                 TRA     s:14464
        15 001230   001577 710000 15                 TRA     s:14464
        15 001231   001577 710000 15                 TRA     s:14464
        15 001232   001577 710000 15                 TRA     s:14464
        15 001233   001577 710000 15                 TRA     s:14464
        15 001234   001577 710000 15                 TRA     s:14464
PL6.E3A0      #002=Z8E7$MOVE_SEMANTIC_CHECKS File=Z8E7.:Z8A6TSI                  SAT 08/09/97 11:43 Page:473
        15 001235   001577 710000 15                 TRA     s:14464
        15 001236   001455 710000 15                 TRA     s:14427
        15 001237   001577 710000 15                 TRA     s:14464
        15 001240   001577 710000 15                 TRA     s:14464
        15 001241   001577 710000 15                 TRA     s:14464
        15 001242   001577 710000 15                 TRA     s:14464
        15 001243   001577 710000 15                 TRA     s:14464
        15 001244   001577 710000 15                 TRA     s:14464
        15 001245   001577 710000 15                 TRA     s:14464
        15 001246   001577 710000 15                 TRA     s:14464
        15 001247   001577 710000 15                 TRA     s:14464
        15 001250   001577 710000 15                 TRA     s:14464
        15 001251   001577 710000 15                 TRA     s:14464
        15 001252   001577 710000 15                 TRA     s:14464
        15 001253   001577 710000 15                 TRA     s:14464
        15 001254   001577 710000 15                 TRA     s:14464
        15 001255   001577 710000 15                 TRA     s:14464
        15 001256   001577 710000 15                 TRA     s:14464
        15 001257   001577 710000 15                 TRA     s:14464
        15 001260   001577 710000 15                 TRA     s:14464
        15 001261   001577 710000 15                 TRA     s:14464
        15 001262   001577 710000 15                 TRA     s:14464
        15 001263   001577 710000 15                 TRA     s:14464
        15 001264   001577 710000 15                 TRA     s:14464
        15 001265   001577 710000 15                 TRA     s:14464
        15 001266   001577 710000 15                 TRA     s:14464
        15 001267   001577 710000 15                 TRA     s:14464
        15 001270   001577 710000 15                 TRA     s:14464
        15 001271   001577 710000 15                 TRA     s:14464
        15 001272   001577 710000 15                 TRA     s:14464
        15 001273   001577 710000 15                 TRA     s:14464
        15 001274   001577 710000 15                 TRA     s:14464
        15 001275   001577 710000 15                 TRA     s:14464
        15 001276   001577 710000 15                 TRA     s:14464
        15 001277   001577 710000 15                 TRA     s:14464
        15 001300   001577 710000 15                 TRA     s:14464
        15 001301   001577 710000 15                 TRA     s:14464
PL6.E3A0      #002=Z8E7$MOVE_SEMANTIC_CHECKS File=Z8E7.:Z8A6TSI                  SAT 08/09/97 11:43 Page:474
        15 001302   001577 710000 15                 TRA     s:14464
        15 001303   001577 710000 15                 TRA     s:14464
        15 001304   001577 710000 15                 TRA     s:14464
        15 001305   001577 710000 15                 TRA     s:14464
        15 001306   001577 710000 15                 TRA     s:14464
        15 001307   001577 710000 15                 TRA     s:14464
        15 001310   001577 710000 15                 TRA     s:14464
        15 001311   001577 710000 15                 TRA     s:14464
        15 001312   001577 710000 15                 TRA     s:14464
        15 001313   001577 710000 15                 TRA     s:14464
        15 001314   001577 710000 15                 TRA     s:14464
        15 001315   001577 710000 15                 TRA     s:14464
        15 001316   001577 710000 15                 TRA     s:14464
        15 001317   001577 710000 15                 TRA     s:14464
        15 001320   001577 710000 15                 TRA     s:14464
        15 001321   001577 710000 15                 TRA     s:14464
        15 001322   001577 710000 15                 TRA     s:14464
        15 001323   001577 710000 15                 TRA     s:14464
        15 001324   001577 710000 15                 TRA     s:14464
        15 001325   001577 710000 15                 TRA     s:14464
        15 001326   001577 710000 15                 TRA     s:14464
        15 001327   001577 710000 15                 TRA     s:14464
        15 001330   001577 710000 15                 TRA     s:14464
        15 001331   001577 710000 15                 TRA     s:14464
        15 001332   001577 710000 15                 TRA     s:14464
        15 001333   001577 710000 15                 TRA     s:14464
        15 001334   001577 710000 15                 TRA     s:14464
        15 001335   001577 710000 15                 TRA     s:14464
        15 001336   001577 710000 15                 TRA     s:14464
        15 001337   001577 710000 15                 TRA     s:14464
        15 001340   001577 710000 15                 TRA     s:14464
        15 001341   001577 710000 15                 TRA     s:14464
        15 001342   001577 710000 15                 TRA     s:14464
        15 001343   001455 710000 15                 TRA     s:14427
        15 001344   001577 710000 15                 TRA     s:14464
        15 001345   001577 710000 15                 TRA     s:14464
        15 001346   001577 710000 15                 TRA     s:14464
PL6.E3A0      #002=Z8E7$MOVE_SEMANTIC_CHECKS File=Z8E7.:Z8A6TSI                  SAT 08/09/97 11:43 Page:475
        15 001347   001577 710000 15                 TRA     s:14464
        15 001350   001577 710000 15                 TRA     s:14464
        15 001351   001577 710000 15                 TRA     s:14464
        15 001352   001577 710000 15                 TRA     s:14464
        15 001353   001577 710000 15                 TRA     s:14464
        15 001354   001577 710000 15                 TRA     s:14464
        15 001355   001577 710000 15                 TRA     s:14464
        15 001356   001577 710000 15                 TRA     s:14464
        15 001357   001577 710000 15                 TRA     s:14464
        15 001360   001577 710000 15                 TRA     s:14464
        15 001361   001577 710000 15                 TRA     s:14464
        15 001362   001577 710000 15                 TRA     s:14464
        15 001363   001577 710000 15                 TRA     s:14464
        15 001364   001577 710000 15                 TRA     s:14464
        15 001365   001577 710000 15                 TRA     s:14464
        15 001366   001577 710000 15                 TRA     s:14464
        15 001367   001577 710000 15                 TRA     s:14464
        15 001370   001577 710000 15                 TRA     s:14464
        15 001371   001577 710000 15                 TRA     s:14464
        15 001372   001577 710000 15                 TRA     s:14464
        15 001373   001577 710000 15                 TRA     s:14464
        15 001374   001577 710000 15                 TRA     s:14464
        15 001375   001577 710000 15                 TRA     s:14464
        15 001376   001577 710000 15                 TRA     s:14464
        15 001377   001577 710000 15                 TRA     s:14464
        15 001400   001577 710000 15                 TRA     s:14464
        15 001401   001577 710000 15                 TRA     s:14464
        15 001402   001577 710000 15                 TRA     s:14464
        15 001403   001577 710000 15                 TRA     s:14464
        15 001404   001577 710000 15                 TRA     s:14464
        15 001405   001577 710000 15                 TRA     s:14464
        15 001406   001577 710000 15                 TRA     s:14464
        15 001407   001577 710000 15                 TRA     s:14464
        15 001410   001577 710000 15                 TRA     s:14464
        15 001411   001577 710000 15                 TRA     s:14464
        15 001412   001577 710000 15                 TRA     s:14464
        15 001413   001577 710000 15                 TRA     s:14464
PL6.E3A0      #002=Z8E7$MOVE_SEMANTIC_CHECKS File=Z8E7.:Z8A6TSI                  SAT 08/09/97 11:43 Page:476
        15 001414   001577 710000 15                 TRA     s:14464
        15 001415   001577 710000 15                 TRA     s:14464
        15 001416   001577 710000 15                 TRA     s:14464
        15 001417   001577 710000 15                 TRA     s:14464
        15 001420   001577 710000 15                 TRA     s:14464
        15 001421   001577 710000 15                 TRA     s:14464
        15 001422   001577 710000 15                 TRA     s:14464
        15 001423   001577 710000 15                 TRA     s:14464
        15 001424   001577 710000 15                 TRA     s:14464
        15 001425   001577 710000 15                 TRA     s:14464
        15 001426   001577 710000 15                 TRA     s:14464
        15 001427   001577 710000 15                 TRA     s:14464
        15 001430   001577 710000 15                 TRA     s:14464
        15 001431   001577 710000 15                 TRA     s:14464
        15 001432   001577 710000 15                 TRA     s:14464
        15 001433   001577 710000 15                 TRA     s:14464
        15 001434   001577 710000 15                 TRA     s:14464
        15 001435   001577 710000 15                 TRA     s:14464
        15 001436   001577 710000 15                 TRA     s:14464
        15 001437   001577 710000 15                 TRA     s:14464
        15 001440   001577 710000 15                 TRA     s:14464
        15 001441   001577 710000 15                 TRA     s:14464
        15 001442   001577 710000 15                 TRA     s:14464
        15 001443   001577 710000 15                 TRA     s:14464
        15 001444   001577 710000 15                 TRA     s:14464
        15 001445   001577 710000 15                 TRA     s:14464
        15 001446   001577 710000 15                 TRA     s:14464
        15 001447   001577 710000 15                 TRA     s:14464
        15 001450   001577 710000 15                 TRA     s:14464
        15 001451   001577 710000 15                 TRA     s:14464
        15 001452   001577 710000 15                 TRA     s:14464
        15 001453   001577 710000 15                 TRA     s:14464
        15 001454   001506 710000 15                 TRA     s:14436

     2860    14423
     2861    14424    4                CASE (%ALPHA_LITERAL, %SINGLE_QUOTE, %RSV_WRD_HIGH_VALUES,

PL6.E3A0      #002=Z8E7$MOVE_SEMANTIC_CHECKS File=Z8E7.:Z8A6TSI                  SAT 08/09/97 11:43 Page:477
     2862    14425    4                      %RSV_WRD_QUOTES, %RSV_WRD_SPACES, %RSV_WRD_LOW_VALUES);
     2863    14426    4                  /*V* All ok */;
     2864    14427    4                 IF COMCOM.OB.FIPS.OBS THEN /* First test what is least likely true */

  14427 15 001455   000036 234000 xsym               SZN     COMCOM+30
        15 001456   002123 605000 15                 TPL     s:14587

     2865    14428    4                    IF SEND$ -> LX_TERMINAL.B.ALL THEN

  14428 15 001457   500000 236100                    LDQ     0,,PR5
        15 001460   040000 316007                    CANQ    16384,DL
        15 001461   002123 600000 15                 TZE     s:14587

     2866    14429    4                      IF SEND$ -> LX_TERMINAL.DNT$ -> DNT.TEXT.LENGTH > 3 THEN

  14429 15 001462   500002 476500                    LDP6    2,,PR5
        15 001463   600004 220100                    LDX0    4,,PR6
        15 001464   000004 100003                    CMPX0   4,DU
        15 001465   002123 602000 15                 TNC     s:14587

     2867    14430    4                        IF REC_ST$ -> VARIABLE.B.CLASS = %CLASS_NUMERIC_EDITED THEN

  14430 15 001466   200006 477500                    LDP7    REC_ST$,,AUTO
        15 001467   700003 236100                    LDQ     3,,PR7
        15 001470   000007 376007                    ANQ     7,DL
        15 001471   000005 116007                    CMPQ    5,DL
        15 001472   002123 601000 15                 TNZ     s:14587

     2868    14431    4                          CALL Z8AE$ERROR (%E$OBSOLETE,

  14431 15 001473   300006 630500                    EPPR0   6,,PR3
        15 001474   200012 450500                    STP0    SEND_ST$+3,,AUTO
        15 001475   300005 635500                    EPPR5   5,,PR3
        15 001476   200011 455500                    STP5    SEND_ST$+2,,AUTO
        15 001477   000016 236000 16                 LDQ     14
        15 001500   200010 756100                    STQ     SEND_ST$+1,,AUTO
        15 001501   200010 630500                    EPPR0   SEND_ST$+1,,AUTO
PL6.E3A0      #002=Z8E7$MOVE_SEMANTIC_CHECKS File=Z8E7.:Z8A6TSI                  SAT 08/09/97 11:43 Page:478
        15 001502   000000 631400 16                 EPPR1   0
        15 001503   000000 701000 xent               TSX1    Z8AE$ERROR
        15 001504   000000 011000                    NOP     0
        15 001505   002123 710000 15                 TRA     s:14587

     2869    14432    4                                           REC$ -> LX_ETT_ITEM.LINE,
     2870    14433    4                                           REC$ -> LX_ETT_ITEM.COLUMN);
     2871    14434
     2872    14435    4                CASE (%RSV_WRD_ZEROES);

     2873    14436    4                  IF REC_ST$ -> VARIABLE.B.CLASS = %CLASS_ALPHABETIC THEN

  14436 15 001506   200006 476500                    LDP6    REC_ST$,,AUTO
        15 001507   600003 236100                    LDQ     3,,PR6
        15 001510   000007 376007                    ANQ     7,DL
        15 001511   000002 116007                    CMPQ    2,DL
        15 001512   002123 601000 15                 TNZ     s:14587

     2874    14437    5                    DO;

     2875    14438    5                      CALL Z8AE$ERROR (%E$MOVE_NUM_TO_ALPHABETIC,

  14438 15 001513   300006 637500                    EPPR7   6,,PR3
        15 001514   200012 457500                    STP7    SEND_ST$+3,,AUTO
        15 001515   300005 635500                    EPPR5   5,,PR3
        15 001516   200011 455500                    STP5    SEND_ST$+2,,AUTO
        15 001517   000012 236000 16                 LDQ     10
        15 001520   200010 756100                    STQ     SEND_ST$+1,,AUTO
        15 001521   200010 630500                    EPPR0   SEND_ST$+1,,AUTO
        15 001522   000000 631400 16                 EPPR1   0
        15 001523   000000 701000 xent               TSX1    Z8AE$ERROR
        15 001524   000000 011000                    NOP     0

     2876    14439    5                                       REC$ -> LX_ETT_ITEM.LINE,
     2877    14440    5                                       REC$ -> LX_ETT_ITEM.COLUMN);
     2878    14441    5                      ALTRETURN;

PL6.E3A0      #002=Z8E7$MOVE_SEMANTIC_CHECKS File=Z8E7.:Z8A6TSI                  SAT 08/09/97 11:43 Page:479
  14441 15 001525   000000 702200 xent               TSX2  ! X66_AALT

     2879    14442    5                    END;
     2880    14443
     2881    14444    4                CASE (%NUMERIC_LITERAL, %NUMBER);

     2882    14445    4                  IF REC_ST$ -> VARIABLE.B.CLASS ~= %CLASS_NUMERIC_EDITED THEN

  14445 15 001526   200006 476500                    LDP6    REC_ST$,,AUTO
        15 001527   600003 236100                    LDQ     3,,PR6
        15 001530   000007 376007                    ANQ     7,DL
        15 001531   000005 116007                    CMPQ    5,DL
        15 001532   001555 600000 15                 TZE     s:14455

     2883    14446    4                    CALL Z8CO$CHECK_INTEGER_TERMINAL (SEND$)

  14446 15 001533   200004 630500                    EPPR0   @SEND$,,AUTO
        15 001534   000017 631400 16                 EPPR1   15
        15 001535   000000 701000 xent               TSX1    Z8CO$CHECK_INTEGER_TERMINAL
        15 001536   001540 702000 15                 TSX2    s:14449
        15 001537   001555 710000 15                 TRA     s:14455

     2884    14447    4                      WHENALTRETURN
     2885    14448    5                        DO;

     2886    14449    5                          CALL Z8AE$ERROR (%E$MOVE_NON_INT_TO_TYA,

  14449 15 001540   200003 470500                    LDP0    @REC$,,AUTO
        15 001541   000000 471500                    LDP1    0,,PR0
        15 001542   100006 633500                    EPPR3   6,,PR1
        15 001543   200012 453500                    STP3    SEND_ST$+3,,AUTO
        15 001544   100005 634500                    EPPR4   5,,PR1
        15 001545   200011 454500                    STP4    SEND_ST$+2,,AUTO
        15 001546   000021 236000 16                 LDQ     17
        15 001547   200010 756100                    STQ     SEND_ST$+1,,AUTO
        15 001550   200010 630500                    EPPR0   SEND_ST$+1,,AUTO
        15 001551   000000 631400 16                 EPPR1   0
PL6.E3A0      #002=Z8E7$MOVE_SEMANTIC_CHECKS File=Z8E7.:Z8A6TSI                  SAT 08/09/97 11:43 Page:480
        15 001552   000000 701000 xent               TSX1    Z8AE$ERROR
        15 001553   000000 011000                    NOP     0

     2887    14450    5                                           REC$ -> LX_ETT_ITEM.LINE,
     2888    14451    5                                           REC$ -> LX_ETT_ITEM.COLUMN);
     2889    14452    5                          ALTRETURN;

  14452 15 001554   000000 702200 xent               TSX2  ! X66_AALT

     2890    14453    5                        END;
     2891    14454
     2892    14455    4                  IF REC_ST$ -> VARIABLE.B.CLASS = %CLASS_ALPHABETIC THEN

  14455 15 001555   200006 470500                    LDP0    REC_ST$,,AUTO
        15 001556   000003 236100                    LDQ     3,,PR0
        15 001557   000007 376007                    ANQ     7,DL
        15 001560   000002 116007                    CMPQ    2,DL
        15 001561   002123 601000 15                 TNZ     s:14587

     2893    14456    5                    DO;

     2894    14457    5                      CALL Z8AE$ERROR (%E$MOVE_ALPHA_TYAE_TO_NUM,

  14457 15 001562   200003 471500                    LDP1    @REC$,,AUTO
        15 001563   100000 473500                    LDP3    0,,PR1
        15 001564   300006 634500                    EPPR4   6,,PR3
        15 001565   200012 454500                    STP4    SEND_ST$+3,,AUTO
        15 001566   300005 635500                    EPPR5   5,,PR3
        15 001567   200011 455500                    STP5    SEND_ST$+2,,AUTO
        15 001570   000006 236000 16                 LDQ     6
        15 001571   200010 756100                    STQ     SEND_ST$+1,,AUTO
        15 001572   200010 630500                    EPPR0   SEND_ST$+1,,AUTO
        15 001573   000000 631400 16                 EPPR1   0
        15 001574   000000 701000 xent               TSX1    Z8AE$ERROR
        15 001575   000000 011000                    NOP     0

     2895    14458    5                                       REC$ -> LX_ETT_ITEM.LINE,
PL6.E3A0      #002=Z8E7$MOVE_SEMANTIC_CHECKS File=Z8E7.:Z8A6TSI                  SAT 08/09/97 11:43 Page:481
     2896    14459    5                                       REC$ -> LX_ETT_ITEM.COLUMN);
     2897    14460    5                      ALTRETURN;

  14460 15 001576   000000 702200 xent               TSX2  ! X66_AALT

     2898    14461    5                    END;
     2899    14462
     2900    14463    4                CASE (ELSE);

     2901    14464    4                  CALL Z8AE$ERROR (%E$UNEXPECTED_CASE,

  14464 15 001577   500006 636500                    EPPR6   6,,PR5
        15 001600   200012 456500                    STP6    SEND_ST$+3,,AUTO
        15 001601   500005 633500                    EPPR3   5,,PR5
        15 001602   200011 453500                    STP3    SEND_ST$+2,,AUTO
        15 001603   000023 236000 16                 LDQ     19
        15 001604   200010 756100                    STQ     SEND_ST$+1,,AUTO
        15 001605   200010 630500                    EPPR0   SEND_ST$+1,,AUTO
        15 001606   000000 631400 16                 EPPR1   0
        15 001607   000000 701000 xent               TSX1    Z8AE$ERROR
        15 001610   000000 011000                    NOP     0

     2902    14465    4                                   SEND$ -> LX_TERMINAL.LINE,
     2903    14466    4                                   SEND$ -> LX_TERMINAL.COLUMN);
     2904    14467
     2905    14468    4              END; /*V* Case -- send.symbol */

  14468 15 001611   002123 710000 15                 TRA     s:14587

     2906    14469
     2907    14470    3            CASE (ELSE); /* Numeric, not edited */

     2908    14471    3               IF COMCOM.OB.FIPS.OBS THEN

  14471 15 001612   000036 234000 xsym               SZN     COMCOM+30
        15 001613   001637 605000 15                 TPL     s:14478

PL6.E3A0      #002=Z8E7$MOVE_SEMANTIC_CHECKS File=Z8E7.:Z8A6TSI                  SAT 08/09/97 11:43 Page:482
     2909    14472    3                 IF SEND$ -> LX_TERMINAL.B.ALL THEN

  14472 15 001614   200004 474500                    LDP4    @SEND$,,AUTO
        15 001615   400000 475500                    LDP5    0,,PR4
        15 001616   500000 236100                    LDQ     0,,PR5
        15 001617   040000 316007                    CANQ    16384,DL
        15 001620   001637 600000 15                 TZE     s:14478

     2910    14473    3                   IF SEND$ -> LX_TERMINAL.DNT$ -> DNT.TEXT.LENGTH > 3 THEN

  14473 15 001621   500002 476500                    LDP6    2,,PR5
        15 001622   600004 220100                    LDX0    4,,PR6
        15 001623   000004 100003                    CMPX0   4,DU
        15 001624   001637 602000 15                 TNC     s:14478

     2911    14474    3                     CALL Z8AE$ERROR (%E$OBSOLETE,

  14474 15 001625   300006 637500                    EPPR7   6,,PR3
        15 001626   200012 457500                    STP7    SEND_ST$+3,,AUTO
        15 001627   300005 635500                    EPPR5   5,,PR3
        15 001630   200011 455500                    STP5    SEND_ST$+2,,AUTO
        15 001631   000016 236000 16                 LDQ     14
        15 001632   200010 756100                    STQ     SEND_ST$+1,,AUTO
        15 001633   200010 630500                    EPPR0   SEND_ST$+1,,AUTO
        15 001634   000000 631400 16                 EPPR1   0
        15 001635   000000 701000 xent               TSX1    Z8AE$ERROR
        15 001636   000000 011000                    NOP     0

     2912    14475    3                                      REC$ -> LX_ETT_ITEM.LINE,
     2913    14476    3                                      REC$ -> LX_ETT_ITEM.COLUMN);
     2914    14477        /*# 25213 */
     2915    14478    3               IF SEND$ -> LX_TERMINAL.SYMBOL = %RSV_WRD_SPACES   THEN

  14478 15 001637   200004 470500                    LDP0    @SEND$,,AUTO
        15 001640   000000 471500                    LDP1    0,,PR0
        15 001641   100003 235100                    LDA     3,,PR1
        15 001642   000650 115007                    CMPA    424,DL
PL6.E3A0      #002=Z8E7$MOVE_SEMANTIC_CHECKS File=Z8E7.:Z8A6TSI                  SAT 08/09/97 11:43 Page:483
        15 001643   002123 601000 15                 TNZ     s:14587

     2916    14479    4                 DO;

     2917    14480    4                   IF REC$ -> LX_ETT_ITEM.B.ERROR = '0'B THEN

  14480 15 001644   200003 473500                    LDP3    @REC$,,AUTO
        15 001645   300000 474500                    LDP4    0,,PR3
        15 001646   400000 236100                    LDQ     0,,PR4
        15 001647   400000 316007                    CANQ    -131072,DL
        15 001650   001663 601000 15                 TNZ     s:14484

     2918    14481    4                     CALL Z8AE$ERROR( %E$MOVE_ALPHA_TYAE_TO_NUM,

  14481 15 001651   400006 635500                    EPPR5   6,,PR4
        15 001652   200012 455500                    STP5    SEND_ST$+3,,AUTO
        15 001653   400005 631500                    EPPR1   5,,PR4
        15 001654   200011 451500                    STP1    SEND_ST$+2,,AUTO
        15 001655   000006 236000 16                 LDQ     6
        15 001656   200010 756100                    STQ     SEND_ST$+1,,AUTO
        15 001657   200010 630500                    EPPR0   SEND_ST$+1,,AUTO
        15 001660   000000 631400 16                 EPPR1   0
        15 001661   000000 701000 xent               TSX1    Z8AE$ERROR
        15 001662   000000 011000                    NOP     0

     2919    14482    4                                      REC$ -> LX_ETT_ITEM.LINE,
     2920    14483    4                                      REC$ -> LX_ETT_ITEM.COLUMN );
     2921    14484    4                   ALTRETURN;

  14484 15 001663   000000 702200 xent               TSX2  ! X66_AALT

     2922    14485    4                 END;
     2923    14486
     2924    14487    3          END; /*V* Case -- Rec.type */

     2925    14488        %EJECT;
PL6.E3A0      #002=Z8E7$MOVE_SEMANTIC_CHECKS File=Z8E7.:Z8A6TSI                  SAT 08/09/97 11:43 Page:484
     2926    14489    2        CASE (%TYP);

     2927    14490               %FISH (TRIAD = REC$ -> LX_ETT_ITEM.ETT$,
     2928    14491                      RTN = REC_ST$);

  14493 15 001664   200003 474500                    LDP4    @REC$,,AUTO
        15 001665   400000 475500                    LDP5    0,,PR4
        15 001666   500001 236100                    LDQ     1,,PR5
        15 001667   200006 756100                    STQ     REC_ST$,,AUTO

  14494 15 001670   200006 476500                    LDP6    REC_ST$,,AUTO
        15 001671   600000 220100                    LDX0    0,,PR6
        15 001672   000751 100003                    CMPX0   489,DU
        15 001673   001703 603000 15                 TRC     s:14499

  14495 15 001674   200006 470500                    LDP0    REC_ST$,,AUTO
        15 001675   000001 236100                    LDQ     1,,PR0
        15 001676   200006 756100                    STQ     REC_ST$,,AUTO

  14496 15 001677   200006 470500                    LDP0    REC_ST$,,AUTO
        15 001700   000000 220100                    LDX0    0,,PR0
        15 001701   000751 100003                    CMPX0   489,DU
        15 001702   001674 602000 15                 TNC     s:14495

     2929    14499    3          IF NOT REC_ST$ -> VARIABLE.B.ELEMENTARY THEN DO;

  14499 15 001703   200006 470500                    LDP0    REC_ST$,,AUTO
        15 001704   000003 236100                    LDQ     3,,PR0
        15 001705   010000 316003                    CANQ    4096,DU
        15 001706   002123 601000 15                 TNZ     s:14587

     2930    14500    3            CALL Z8AE$ERROR ( %E$INVALID_MOVE_OPERANDS,

  14500 15 001707   200003 471500                    LDP1    @REC$,,AUTO
        15 001710   100000 473500                    LDP3    0,,PR1
        15 001711   300006 634500                    EPPR4   6,,PR3
        15 001712   200012 454500                    STP4    SEND_ST$+3,,AUTO
PL6.E3A0      #002=Z8E7$MOVE_SEMANTIC_CHECKS File=Z8E7.:Z8A6TSI                  SAT 08/09/97 11:43 Page:485
        15 001713   300005 635500                    EPPR5   5,,PR3
        15 001714   200011 455500                    STP5    SEND_ST$+2,,AUTO
        15 001715   000025 236000 16                 LDQ     21
        15 001716   200010 756100                    STQ     SEND_ST$+1,,AUTO
        15 001717   200010 630500                    EPPR0   SEND_ST$+1,,AUTO
        15 001720   000000 631400 16                 EPPR1   0
        15 001721   000000 701000 xent               TSX1    Z8AE$ERROR
        15 001722   000000 011000                    NOP     0

     2931    14501    3                              REC$ -> LX_ETT_ITEM.LINE,
     2932    14502    3                              REC$ -> LX_ETT_ITEM.COLUMN);
     2933    14503    3            ALTRETURN;

  14503 15 001723   000000 702200 xent               TSX2  ! X66_AALT

     2934    14504    3          END;
     2935    14505    2        CASE (%TYN);

     2936    14506
     2937    14507    2          IF REC$ -> LX_ETT_ITEM.TYPE ~= %TYN THEN

  14507 15 001724   200003 474500                    LDP4    @REC$,,AUTO
        15 001725   400000 475500                    LDP5    0,,PR4
        15 001726   500004 235100                    LDA     4,,PR5
        15 001727   000016 115007                    CMPA    14,DL
        15 001730   002123 600000 15                 TZE     s:14587

     2938    14508    3            DO;

     2939    14509    3              CALL Z8AE$ERROR( %E$MIXING_TYN_WITH_TYA,

  14509 15 001731   500006 636500                    EPPR6   6,,PR5
        15 001732   200012 456500                    STP6    SEND_ST$+3,,AUTO
        15 001733   500005 633500                    EPPR3   5,,PR5
        15 001734   200011 453500                    STP3    SEND_ST$+2,,AUTO
        15 001735   000004 236000 16                 LDQ     4
        15 001736   200010 756100                    STQ     SEND_ST$+1,,AUTO
PL6.E3A0      #002=Z8E7$MOVE_SEMANTIC_CHECKS File=Z8E7.:Z8A6TSI                  SAT 08/09/97 11:43 Page:486
        15 001737   200010 630500                    EPPR0   SEND_ST$+1,,AUTO
        15 001740   000000 631400 16                 EPPR1   0
        15 001741   000000 701000 xent               TSX1    Z8AE$ERROR
        15 001742   000000 011000                    NOP     0

     2940    14510    3                               REC$ -> LX_ETT_ITEM.LINE,
     2941    14511    3                               REC$ -> LX_ETT_ITEM.COLUMN);
     2942    14512    3              ALTRETURN;

  14512 15 001743   000000 702200 xent               TSX2  ! X66_AALT

     2943    14513    3            END;
     2944    14514        %EJECT;
PL6.E3A0      #002=Z8E7$MOVE_SEMANTIC_CHECKS File=Z8E7.:Z8A6TSI                  SAT 08/09/97 11:43 Page:487
     2945    14515
     2946    14516    2        CASE (ELSE);

     2947    14517
     2948    14518              %FISH(TRIAD = SEND$ -> LX_ETT_ITEM.ETT$,
     2949    14519                    RTN = SEND_ST$);

  14521 15 001744   300001 236100                    LDQ     1,,PR3
        15 001745   200007 756100                    STQ     SEND_ST$,,AUTO

  14522 15 001746   200007 474500                    LDP4    SEND_ST$,,AUTO
        15 001747   400000 220100                    LDX0    0,,PR4
        15 001750   000751 100003                    CMPX0   489,DU
        15 001751   001761 603000 15                 TRC     s:14530

  14523 15 001752   200007 470500                    LDP0    SEND_ST$,,AUTO
        15 001753   000001 236100                    LDQ     1,,PR0
        15 001754   200007 756100                    STQ     SEND_ST$,,AUTO

  14524 15 001755   200007 470500                    LDP0    SEND_ST$,,AUTO
        15 001756   000000 220100                    LDX0    0,,PR0
        15 001757   000751 100003                    CMPX0   489,DU
        15 001760   001752 602000 15                 TNC     s:14523

     2950    14527              %FISH(TRIAD = REC$ -> LX_ETT_ITEM.ETT$,
     2951    14528                    RTN = REC_ST$);

  14530 15 001761   200003 470500                    LDP0    @REC$,,AUTO
        15 001762   000000 471500                    LDP1    0,,PR0
        15 001763   100001 236100                    LDQ     1,,PR1
        15 001764   200006 756100                    STQ     REC_ST$,,AUTO

  14531 15 001765   200006 473500                    LDP3    REC_ST$,,AUTO
        15 001766   300000 220100                    LDX0    0,,PR3
        15 001767   000751 100003                    CMPX0   489,DU
        15 001770   002000 603000 15                 TRC     s:14538

PL6.E3A0      #002=Z8E7$MOVE_SEMANTIC_CHECKS File=Z8E7.:Z8A6TSI                  SAT 08/09/97 11:43 Page:488
  14532 15 001771   200006 470500                    LDP0    REC_ST$,,AUTO
        15 001772   000001 236100                    LDQ     1,,PR0
        15 001773   200006 756100                    STQ     REC_ST$,,AUTO

  14533 15 001774   200006 470500                    LDP0    REC_ST$,,AUTO
        15 001775   000000 220100                    LDX0    0,,PR0
        15 001776   000751 100003                    CMPX0   489,DU
        15 001777   001771 602000 15                 TNC     s:14532

     2952    14536
     2953    14537
     2954    14538    2         IF STATEMENT_TYPE = %S_TYPE_DML_SET      THEN

  14538 15 002000   200005 470500                    LDP0    @STATEMENT_TYPE,,AUTO
        15 002001   000000 235100                    LDA     0,,PR0
        15 002002   000072 115007                    CMPA    58,DL
        15 002003   002030 601000 15                 TNZ     s:14552

     2955    14539
     2956    14540                   /*V*       This MOVE is really a DML SET      */
     2957    14541
     2958    14542    2               IF ( SEND_ST$ ->VARIABLE.B.DML_TYPE ~= %DATA_BASE_KEY  AND

  14542 15 002004   200007 471500                    LDP1    SEND_ST$,,AUTO
        15 002005   100003 236100                    LDQ     3,,PR1
        15 002006   160000 376007                    ANQ     57344,DL
        15 002007   040000 116007                    CMPQ    16384,DL
        15 002010   002030 600000 15                 TZE     s:14552
        15 002011   120000 116007                    CMPQ    40960,DL
        15 002012   002030 600000 15                 TZE     s:14552

     2959    14543    2                  SEND_ST$ -> VARIABLE.B.DML_TYPE ~= %DIRECT_REFERENCE )   THEN
     2960    14544    3                 DO;

     2961    14545    3                   CALL Z8AE$ERROR( %E$DML_SET_RECEIVER_ERROR,         /*#31909*/

  14545 15 002013   200004 473500                    LDP3    @SEND$,,AUTO
PL6.E3A0      #002=Z8E7$MOVE_SEMANTIC_CHECKS File=Z8E7.:Z8A6TSI                  SAT 08/09/97 11:43 Page:489
        15 002014   300000 474500                    LDP4    0,,PR3
        15 002015   400006 635500                    EPPR5   6,,PR4
        15 002016   200012 455500                    STP5    SEND_ST$+3,,AUTO
        15 002017   400005 636500                    EPPR6   5,,PR4
        15 002020   200011 456500                    STP6    SEND_ST$+2,,AUTO
        15 002021   000002 236000 16                 LDQ     2
        15 002022   200010 756100                    STQ     SEND_ST$+1,,AUTO
        15 002023   200010 630500                    EPPR0   SEND_ST$+1,,AUTO
        15 002024   000000 631400 16                 EPPR1   0
        15 002025   000000 701000 xent               TSX1    Z8AE$ERROR
        15 002026   000000 011000                    NOP     0

     2962    14546    3                                   SEND$ -> LX_ETT_ITEM.LINE,
     2963    14547    3                                   SEND$ -> LX_ETT_ITEM.COLUMN);
     2964    14548
     2965    14549    3                   ALTRETURN;

  14549 15 002027   000000 702200 xent               TSX2  ! X66_AALT

     2966    14550    3                 END;
     2967    14551
     2968    14552    3          DO CASE (SEND_ST$ -> ST.ID);

  14552 15 002030   200007 471500                    LDP1    SEND_ST$,,AUTO
        15 002031   100000 236100                    LDQ     0,,PR1
        15 002032   000022 772000                    QRL     18
        15 002033   000765 136007                    SBLQ    501,DL
        15 002034   000002 116007                    CMPQ    2,DL
        15 002035   002037 602006 15                 TNC     s:14552+7,QL
        15 002036   002123 710000 15                 TRA     s:14587
        15 002037   002041 710000 15                 TRA     s:14555
        15 002040   002041 710000 15                 TRA     s:14555

     2969    14553
     2970    14554    3            CASE (%SCALAR, %ARRAY);

     2971    14555    4              DO CASE (REC_ST$ -> VARIABLE.B.CLASS);
PL6.E3A0      #002=Z8E7$MOVE_SEMANTIC_CHECKS File=Z8E7.:Z8A6TSI                  SAT 08/09/97 11:43 Page:490

  14555 15 002041   200006 473500                    LDP3    REC_ST$,,AUTO
        15 002042   300003 720100                    LXL0    3,,PR3
        15 002043   000007 360003                    ANX0    7,DU
        15 002044   000010 100003                    CMPX0   8,DU
        15 002045   002047 602010 15                 TNC     s:14555+6,X0
        15 002046   002123 710000 15                 TRA     s:14587
        15 002047   002122 710000 15                 TRA     s:14578
        15 002050   002122 710000 15                 TRA     s:14578
        15 002051   002057 710000 15                 TRA     s:14558
        15 002052   002074 710000 15                 TRA     s:14564
        15 002053   002122 710000 15                 TRA     s:14578
        15 002054   002122 710000 15                 TRA     s:14578
        15 002055   002122 710000 15                 TRA     s:14578
        15 002056   002074 710000 15                 TRA     s:14564

     2972    14556
     2973    14557    4                CASE (%CLASS_ALPHABETIC);

     2974    14558    4                  CALL Z8AE$ERROR (%E$MOVE_NUM_TO_ALPHABETIC,

  14558 15 002057   200003 474500                    LDP4    @REC$,,AUTO
        15 002060   400000 475500                    LDP5    0,,PR4
        15 002061   500006 636500                    EPPR6   6,,PR5
        15 002062   200012 456500                    STP6    SEND_ST$+3,,AUTO
        15 002063   500005 637500                    EPPR7   5,,PR5
        15 002064   200011 457500                    STP7    SEND_ST$+2,,AUTO
        15 002065   000012 236000 16                 LDQ     10
        15 002066   200010 756100                    STQ     SEND_ST$+1,,AUTO
        15 002067   200010 630500                    EPPR0   SEND_ST$+1,,AUTO
        15 002070   000000 631400 16                 EPPR1   0
        15 002071   000000 701000 xent               TSX1    Z8AE$ERROR
        15 002072   000000 011000                    NOP     0

     2975    14559    4                                   REC$ -> LX_ETT_ITEM.LINE,
     2976    14560    4                                   REC$ -> LX_ETT_ITEM.COLUMN);
     2977    14561    4                  ALTRETURN;
PL6.E3A0      #002=Z8E7$MOVE_SEMANTIC_CHECKS File=Z8E7.:Z8A6TSI                  SAT 08/09/97 11:43 Page:491

  14561 15 002073   000000 702200 xent               TSX2  ! X66_AALT

     2978    14562
     2979    14563    4                CASE (%CLASS_ALPHANUMERIC, %CLASS_ALPHANUMERIC_EDITED);

     2980    14564    4                  IF REC_ST$ -> VARIABLE.B.ELEMENTARY THEN

  14564 15 002074   300003 236100                    LDQ     3,,PR3
        15 002075   010000 316003                    CANQ    4096,DU
        15 002076   002123 600000 15                 TZE     s:14587

     2981    14565    4                    CALL Z8CO$INTEGER_CHECK_NO_ERROR (SEND$)

  14565 15 002077   200004 630500                    EPPR0   @SEND$,,AUTO
        15 002100   000017 631400 16                 EPPR1   15
        15 002101   000000 701000 xent               TSX1    Z8CO$INTEGER_CHECK_NO_ERROR
        15 002102   002104 702000 15                 TSX2    s:14568
        15 002103   002121 710000 15                 TRA     s:14572+1

     2982    14566    4                      WHENALTRETURN
     2983    14567    5                        DO;

     2984    14568    5                          CALL Z8AE$ERROR (%E$MOVE_NON_INT_TO_TYA,

  14568 15 002104   200003 470500                    LDP0    @REC$,,AUTO
        15 002105   000000 471500                    LDP1    0,,PR0
        15 002106   100006 633500                    EPPR3   6,,PR1
        15 002107   200012 453500                    STP3    SEND_ST$+3,,AUTO
        15 002110   100005 634500                    EPPR4   5,,PR1
        15 002111   200011 454500                    STP4    SEND_ST$+2,,AUTO
        15 002112   000021 236000 16                 LDQ     17
        15 002113   200010 756100                    STQ     SEND_ST$+1,,AUTO
        15 002114   200010 630500                    EPPR0   SEND_ST$+1,,AUTO
        15 002115   000000 631400 16                 EPPR1   0
        15 002116   000000 701000 xent               TSX1    Z8AE$ERROR
        15 002117   000000 011000                    NOP     0
PL6.E3A0      #002=Z8E7$MOVE_SEMANTIC_CHECKS File=Z8E7.:Z8A6TSI                  SAT 08/09/97 11:43 Page:492

     2985    14569    5                                           REC$ -> LX_ETT_ITEM.LINE,
     2986    14570    5                                           REC$ -> LX_ETT_ITEM.COLUMN);
     2987    14571
     2988    14572    5                          ALTRETURN;

  14572 15 002120   000000 702200 xent               TSX2  ! X66_AALT
        15 002121   002123 710000 15                 TRA     s:14587

     2989    14573    5                        END;
     2990    14574
     2991    14575    4                CASE (ELSE);

     2992    14576                       /*V* All ok */
     2993    14577
     2994    14578    4              END; /*V* Case -- st.b.class */

  14578 15 002122   002123 710000 15                 TRA     s:14587

     2995    14579
     2996    14580    3            CASE (ELSE);

     2997    14581                   /*V* Ok - fall thru */
     2998    14582
     2999    14583    3          END ; /*V* Case - st.id */

     3000    14584
     3001    14585    2      END; /*V* Case -- send type */

     3002    14586
     3003    14587    1      IF COMCOM.OB.FIPS.LEVEL >= %INT_LEV AND STATEMENT_TYPE = %S_TYPE_MOVE THEN

  14587 15 002123   000036 720000 xsym               LXL0    COMCOM+30
        15 002124   000002 100003                    CMPX0   2,DU
        15 002125   002150 604000 15                 TMI     s:14593
        15 002126   200005 470500                    LDP0    @STATEMENT_TYPE,,AUTO
        15 002127   000000 235100                    LDA     0,,PR0
PL6.E3A0      #002=Z8E7$MOVE_SEMANTIC_CHECKS File=Z8E7.:Z8A6TSI                  SAT 08/09/97 11:43 Page:493
        15 002130   000031 115007                    CMPA    25,DL
        15 002131   002150 601000 15                 TNZ     s:14593

     3004    14588    1        IF SEND$ -> LX_ETT_ITEM.B.HIGH_LEV OR REC$ -> LX_ETT_ITEM.B.HIGH_LEV THEN

  14588 15 002132   200004 471500                    LDP1    @SEND$,,AUTO
        15 002133   100000 473500                    LDP3    0,,PR1
        15 002134   300000 236100                    LDQ     0,,PR3
        15 002135   004000 316007                    CANQ    2048,DL
        15 002136   002144 601000 15                 TNZ     s:14589
        15 002137   200003 474500                    LDP4    @REC$,,AUTO
        15 002140   400000 475500                    LDP5    0,,PR4
        15 002141   500000 236100                    LDQ     0,,PR5
        15 002142   004000 316007                    CANQ    2048,DL
        15 002143   002150 600000 15                 TZE     s:14593

     3005    14589    1          CALL Z8AE$ERROR (%E$LEVEL_CHECK,

  14589 15 002144   000027 630400 16                 EPPR0   23
        15 002145   000000 631400 16                 EPPR1   0
        15 002146   000000 701000 xent               TSX1    Z8AE$ERROR
        15 002147   000000 011000                    NOP     0

     3006    14590    1                           O1COM.LINE_NO,
     3007    14591    1                           O1COM.COLUMN_NO);
     3008    14592
     3009    14593    1   END Z8E7$MOVE_SEMANTIC_CHECKS;

  14593 15 002150   000000 702200 xent               TSX2  ! X66_ARET
     3010    14594        %EOD;

PL6.E3A0      #002=Z8E7$MOVE_SEMANTIC_CHECKS File=Z8E7.:Z8A6TSI                  SAT 08/09/97 11:43 Page:494
--  Include file information  --

   Z8E_O1COM.:Z8A6TOU  cannot be made into a system file and is referenced.
   Z8E_STATEMNT.:Z8A6TOU  is referenced.
   Z8E_WINDOW.:Z8A6TOU  is referenced.
   Z8A_LEX_SYMB.:Z8A6TOU  cannot be made into a system file and is referenced.
   Z8E_STACKS.:Z8A6TOU  cannot be made into a system file and is referenced.
   Z8E_NEW_ILL.:Z8A6TOU  is referenced.
   Z8E_MACROS.:Z8A6TOU  cannot be made into a system file and is referenced.
   Z8E_DML.:Z8A6TOU  is referenced.
   Z8A_ERR_NUMS.:Z8A6TOU  is referenced.
   Z8A_ETT.:Z8A6TOU  cannot be made into a system file and is referenced.
   Z8A_TYPES.:Z8A6TOU  is referenced.
   Z8A_ST.:Z8A6TOU  cannot be made into a system file and is referenced.
   Z8A_DNT.:Z8A6TOU  cannot be made into a system file and is referenced.
   Z8A_COMCOM.:Z8A6TOU  cannot be made into a system file and is referenced.
   X8A_COM_MACS.:X8A6TOU  is referenced.
   Z8A_NAMES.:Z8A6TOU  is referenced.
   Z8A_SUPP_MAC.:Z8A6TOU  is referenced.
   Z8A_DEFC.:Z8A6TOU  cannot be made into a system file and is referenced.
      No diagnostics issued in procedure Z8E7$MOVE_SEMANTIC_CHECKS.
PL6.E3A0      #002=Z8E7$MOVE_SEMANTIC_CHECKS File=Z8E7.:Z8A6TSI                  SAT 08/09/97 11:43 Page:495

 **** Variables and constants ****

  ****  Section 000 LblCom ITERATION

  ****  Scalars and arrays  ****
OctLoc.c.b A Datatyp(siz) R M Lvl/name                 OctLoc.c.b A Datatyp(siz) R M Lvl/name

     0-0-0/w SBIN              1 ITERATION

  ****  Section 001 LblCom DNT$

  ****  Scalars and arrays  ****
OctLoc.c.b A Datatyp(siz) R M Lvl/name                 OctLoc.c.b A Datatyp(siz) R M Lvl/name

     0-0-0/w PTR         r     1 DNT$

  ****  Section 002 LblCom DNT_

  ****  Scalars and arrays  ****
OctLoc.c.b A Datatyp(siz) R M Lvl/name                 OctLoc.c.b A Datatyp(siz) R M Lvl/name

     0-0-0/w STRC(180)         1 DNT_

  ****  Section 003 LblCom DNT_BUCKET_NUMBER

  ****  Scalars and arrays  ****
OctLoc.c.b A Datatyp(siz) R M Lvl/name                 OctLoc.c.b A Datatyp(siz) R M Lvl/name

     0-0-0/w UBIN              1 DNT_BUCKET_NUMBER

  ****  Section 004 LblCom DNT_OF_1$

  ****  Scalars and arrays  ****
OctLoc.c.b A Datatyp(siz) R M Lvl/name                 OctLoc.c.b A Datatyp(siz) R M Lvl/name

     0-0-0/w PTR               1 DNT_OF_1$

PL6.E3A0      #002=Z8E7$MOVE_SEMANTIC_CHECKS File=Z8E7.:Z8A6TSI                  SAT 08/09/97 11:43 Page:496
  ****  Section 005 LblCom ST$

  ****  Scalars and arrays  ****
OctLoc.c.b A Datatyp(siz) R M Lvl/name                 OctLoc.c.b A Datatyp(siz) R M Lvl/name

     0-0-0/w PTR         r     1 ST$

  ****  Section 006 LblCom ST_

  ****  Scalars and arrays  ****
OctLoc.c.b A Datatyp(siz) R M Lvl/name                 OctLoc.c.b A Datatyp(siz) R M Lvl/name

     0-0-0/w STRC(180)         1 ST_

  ****  Section 007 LblCom ETT$

  ****  Scalars and arrays  ****
OctLoc.c.b A Datatyp(siz) R M Lvl/name                 OctLoc.c.b A Datatyp(siz) R M Lvl/name

     0-0-0/w PTR         r     1 ETT$

  ****  Section 008 LblCom HEAD_ETT$

  ****  Scalars and arrays  ****
OctLoc.c.b A Datatyp(siz) R M Lvl/name                 OctLoc.c.b A Datatyp(siz) R M Lvl/name

     0-0-0/w PTR               1 HEAD_ETT$

  ****  Section 009 LblCom ETT_BUCKETS

  ****  Scalars and arrays  ****
OctLoc.c.b A Datatyp(siz) R M Lvl/name                 OctLoc.c.b A Datatyp(siz) R M Lvl/name

     0-0-0/w PTR               1 ETT_BUCKETS(0:511)

  ****  Section 010 LblCom ETT_

PL6.E3A0      #002=Z8E7$MOVE_SEMANTIC_CHECKS File=Z8E7.:Z8A6TSI                  SAT 08/09/97 11:43 Page:497
  ****  Scalars and arrays  ****
OctLoc.c.b A Datatyp(siz) R M Lvl/name                 OctLoc.c.b A Datatyp(siz) R M Lvl/name

     0-0-0/w STRC(180)         1 ETT_

  ****  Section 011 LblCom LEX_SYMBOL

  ****  Scalars and arrays  ****
OctLoc.c.b A Datatyp(siz) R M Lvl/name                 OctLoc.c.b A Datatyp(siz) R M Lvl/name

     0-0-0/w STRC(3240)  r     1 LEX_SYMBOL                 0-0-0/w STRC(3240)        1 LEX_SYMBOL_WORDS

  ****  Section 012 LblCom CURRENT_LEX_SYMBOL$

  ****  Scalars and arrays  ****
OctLoc.c.b A Datatyp(siz) R M Lvl/name                 OctLoc.c.b A Datatyp(siz) R M Lvl/name

     0-0-0/w PTR         r     1 CURRENT_LEX_SYMBOL$

  ****  Section 013 LblCom TEMP_LEX_SYMBOL

  ****  Scalars and arrays  ****
OctLoc.c.b A Datatyp(siz) R M Lvl/name                 OctLoc.c.b A Datatyp(siz) R M Lvl/name

     0-0-0/w STRC(3240)        1 TEMP_LEX_SYMBOL

  ****  Section 014 LblCom TEMP_LEX_SYMBOL2

  ****  Scalars and arrays  ****
OctLoc.c.b A Datatyp(siz) R M Lvl/name                 OctLoc.c.b A Datatyp(siz) R M Lvl/name

     0-0-0/w STRC(3240)        1 TEMP_LEX_SYMBOL2

  ****  Auto variables  ****

  ****  Scalars and arrays  ****
OctLoc.c.b A Datatyp(siz) R M Lvl/name                 OctLoc.c.b A Datatyp(siz) R M Lvl/name
PL6.E3A0      #002=Z8E7$MOVE_SEMANTIC_CHECKS File=Z8E7.:Z8A6TSI                  SAT 08/09/97 11:43 Page:498

     3-0-0/w PTR         r     1 @REC$                      4-0-0/w PTR         r     1 @SEND$
     5-0-0/w PTR         r     1 @STATEMENT_TYPE           *0-0-0/w PTR         r     1 REC$
     6-0-0/w PTR         r     1 REC_ST$                   *0-0-0/w PTR         r     1 SEND$
     7-0-0/w PTR         r     1 SEND_ST$                  *0-0-0/w SBIN        r     1 STATEMENT_TYPE

  ****  SYMREF variables  ****

  ****  Scalars and arrays  ****
OctLoc.c.b A Datatyp(siz) R M Lvl/name                 OctLoc.c.b A Datatyp(siz) R M Lvl/name

     0-0-0/d STRC(13248) r     1 COMCOM
     0-0-0/w STRC(180)         1 HIER_STK(0:50)
     0-0-0/w SBIN              1 HIER_STK_PTR               0-0-0/d STRC(11580) r     1 O1COM
     0-0-0/w STRC(144)         1 PAGE_FORMAT                0-0-0/w STRC(153)         1 REP_STK(0:50)
     0-0-0/w SBIN              1 REP_STK_PTR

  ****  BASED and DCB variables  ****

  ****  Scalars and arrays  ****
OctLoc.c.b A Datatyp(siz) R M Lvl/name                 OctLoc.c.b A Datatyp(siz) R M Lvl/name

     0-0-0/w STRC(288)         1 ADD_STMT                   0-0-0/w STRC(396)         1 ALPHABET
     0-0-0/w STRC(396)         1 ARRAY                      0-0-0/w ASTR(324)   r     1 BASED_LEX_SYMBOL
     0-0-0/w STRC(360)         1 BASED_LEX_SYMBOL_WORDS
     0-0-0/w STRC(288)         1 BINARY_OP                  0-0-0/w STRC(396)         1 BLOCK
     0-0-0/w STRC(288)         1 CALL_STMT                  0-0-0/w STRC(396)         1 CD
     0-0-0/w CHAR(4096)        1 CHARS                      0-0-0/w STRC(396)         1 CLASS
     0-0-0/w STRC(288)         1 COMPUTE_STMT               0-0-0/w STRC(396)         1 CONDITION
     0-0-0/w STRC(396)         1 CONST                      0-0-0/w STRC(72)          1 CONT
     0-0-0/w STRC(396)         1 DB                         0-0-0/w STRC(396)         1 DCB_
     0-0-0/w STRC(288)         1 DEFERED_IDENTIFIER         0-0-0/w STRC(252)         1 DEFERED_ID_TREE
     0-0-0/w STRC(288)         1 DEFERED_QUAL_ID            0-0-0/w STRC(288)         1 DEFERED_SUM_CLAUSE
     0-0-0/w STRC(288)         1 DEFERED_SUM_CLAUSE_LIST
     0-0-0/w STRC(288)         1 DELETE_STMT                0-0-0/w STRC(288)         1 DIVIDE_STMT
     0-0-0/w STRC(396)         1 DML_ITEM                   0-0-0/w ASTR(180)   r     1 DNT
     0-0-0/w STRC(180)   r     1 ETT                        0-0-0/w STRC(396)         1 FD
PL6.E3A0      #002=Z8E7$MOVE_SEMANTIC_CHECKS File=Z8E7.:Z8A6TSI                  SAT 08/09/97 11:43 Page:499
     0-0-0/w STRC(288)         1 ILS_LIST                   0-0-0/w STRC(288)         1 INSPECT_1_STMT
     0-0-0/w STRC(288)         1 INSPECT_2_STMT             0-0-0/w STRC(288)         1 INSPECT_4_STMT
     0-0-0/w STRC(396)         1 INTDEF                     0-0-0/w STRC(396)         1 LABEL
     0-0-0/w STRC(288)         1 LA_ITEM                    0-0-0/w STRC(504)         1 LX_CD_INPUT
     0-0-0/w STRC(324)         1 LX_CD_I_O                  0-0-0/w STRC(396)         1 LX_CD_OUTPUT
     0-0-0/w STRC(288)   r     1 LX_ETT_ITEM                0-0-0/w STRC(288)   r     1 LX_ITEM
     0-0-0/w STRC(288)         1 LX_LARGE                   0-0-0/w STRC(288)         1 LX_LIST
     0-0-0/w STRC(1224)        1 LX_REC_DECL                0-0-0/w STRC(864)         1 LX_REPORT_REC
     0-0-0/w STRC(288)   r     1 LX_TERMINAL                0-0-0/w STRC(396)         1 MNEMONIC
     0-0-0/w STRC(288)         1 MULTIPLY_STMT              0-0-0/w STRC(36864)       1 PAGE
     0-0-0/w STRC(396)         1 PARA                       0-0-0/w STRC(396)   r     1 PROC_
     0-0-0/w STRC(396)         1 PROC_DEF                   0-0-0/w STRC(396)         1 RD
     0-0-0/w STRC(288)         1 READ_STMT                  0-0-0/w STRC(288)         1 REWRITE_STMT
     0-0-0/w STRC(396)         1 SCALAR                     0-0-0/w STRC(396)         1 SD
     0-0-0/w STRC(396)         1 SECTION                    0-0-0/w STRC(396)         1 SEGMENT
     0-0-0/w STRC(396)   r     1 ST                         0-0-0/w STRC(288)         1 START_STMT
     0-0-0/w STRC(252)         1 STRING_STMT                0-0-0/w STRC(288)         1 SUBTRACT_STMT
     0-0-0/w STRC(396)         1 SWITCH                     0-0-0/w STRC(396)         1 SYMBOLIC_CHAR
     0-0-0/w STRC(396)         1 SYMDEF_                    0-0-0/w STRC(396)         1 SYMREF_
     0-0-0/w STRC(396)         1 TEMP                       0-0-0/w STRC(288)         1 UNARY_OP
     0-0-0/w STRC(288)         1 UNSTRING_STMT              0-0-0/w STRC(396)   r     1 VARIABLE
     0-0-0/w STRC(288)         1 WRITE_STMT


   Procedure Z8E7$MOVE_SEMANTIC_CHECKS requires 1129 words for executable code.
   Procedure Z8E7$MOVE_SEMANTIC_CHECKS requires 12 words of local(AUTO) storage.

PL6.E3A0      #003=Z8E7$ROUNDING File=Z8E7.:Z8A6TSI                              SAT 08/09/97 11:45 Page:500
     3011        1        /*T***********************************************************/
     3012        2        /*T*                                                         */
     3013        3        /*T* Copyright (c) Bull HN Information Systems Inc., 1997    */
     3014        4        /*T*                                                         */
     3015        5        /*T***********************************************************/
     3016        6        /*=============*/
     3017        7          Z8E7$ROUNDING: PROC (RECEIVING$, SENDING$, ON_SIZE);
     3018        8        /*=============*/
     3019        9
     3020       10
     3021       11    1        DCL RECEIVING$    PTR;
     3022       12    1        DCL SENDING$      PTR;
     3023       13
     3024       14
     3025       15             %EQU PHASE = 1;
     3026       16             %INCLUDE Z8A_DEFC;
     3027       84             %INCLUDE Z8A_SUPP_MAC;
     3028     2484             %INCLUDE Z8E_STACKS;
     3029     4750             %INCLUDE Z8A_TYPES;
     3030     4924             %INCLUDE Z8A_DESC;
     3031     4970             %INCLUDE Z8A_ETT;
     3032     5271             %INCLUDE Z8A_ST;
     3033     8930             %INCLUDE Z8A_ERR_NUMS;
     3034     9694             %INCLUDE Z8A_LTS;
     3035    11771            %INCLUDE Z8A_COMCOM;
     3036    12421
     3037    12422    1        DCL 1 ROP_DESC  ALIGNED,
     3038    12423                  %TYPE_DESC;
     3039    12457
     3040    12458    1        DCL 1 TYPE_DESC ALIGNED,
     3041    12459                   %TYPE_DESC;
     3042    12493
     3043    12494
     3044    12495    1        DCL Z8AU$TYPE_DESCRIPTOR           ENTRY(2);
     3045    12496    1        DCL Z8AF$FORME_ON_SIZE             ENTRY(5);
     3046    12497    1        DCL Z8EV$LEAST_STRONGEST_TYPE      ENTRY(3);
     3047    12498    1        DCL Z8AE$ERROR                     ENTRY(12);
PL6.E3A0      #003=Z8E7$ROUNDING File=Z8E7.:Z8A6TSI                              SAT 08/09/97 11:45 Page:501
     3048    12499    1        DCL Z8EV$CONVERT_ON_SIZE           ENTRY(4);
     3049    12500    1        DCL Z8EV$CONVERT_ROUND_ON_SIZE     ENTRY(6);
     3050    12501
     3051    12502    1        DCL ST$$                  PTR;
     3052    12503    1        DCL NEL$$                 PTR;
     3053    12504    1        DCL ON_SIZE               BIT (1) ALIGNED;
     3054    12505
     3055    12506    1        DCL LENGTH2               SBIN WORD;
     3056    12507    1        DCL SCALE2                SBIN WORD;
     3057    12508
     3058    12509
     3059    12510        %EJECT;
PL6.E3A0      #003=Z8E7$ROUNDING File=Z8E7.:Z8A6TSI                              SAT 08/09/97 11:45 Page:502
     3060    12511    2        IF RECEIVING$ -> LX_ITEM.ID = %LX_ETT_ITEM THEN DO;
     3061    12512    2          IF RECEIVING$ ->LX_ETT_ITEM.B.ROUND THEN
     3062    12513    3            DO CASE(SENDING$ -> LX_ITEM.TYPE);
     3063    12514    3              CASE(%TYD, %TYO, %TYF);
     3064    12515    3                IF SENDING$ -> LX_ITEM.TYPE = %TYF THEN
     3065    12516                       %FISH (TRIAD = SENDING$ -> LX_ETT_ITEM.ETT$,
     3066    12517                              RTN = ST$$);
     3067    12525    3                IF NOT (COMCOM.OB.ELS AND
     3068    12526    3                        (SENDING$ -> LX_ITEM.TYPE = %TYO OR
     3069    12527    3                         (SENDING$ -> LX_ITEM.TYPE = %TYF AND
     3070    12528    3                          ST$$ -> VARIABLE.NDSC.TN = %NDSC4 /* EBCDIC overpunched */)))
             12528                                   THEN
     3071    12529    3                  CALL Z8EV$CONVERT_ON_SIZE (%TYD, SENDING$, SENDING$, ON_SIZE);
     3072    12530
     3073    12531    3                CALL Z8AU$TYPE_DESCRIPTOR(RECEIVING$ -> LX_ETT_ITEM.ETT$,
     3074    12532    3                                          TYPE_DESC);
     3075    12533
     3076    12534    3                SCALE = 0;
     3077    12535
     3078    12536    4                DO CASE(TYPE_DESC.TYPE);
     3079    12537    4                  CASE(%TYD);
     3080    12538                         %UNPACK_NDSC( @DESC    = TYPE_DESC.DESC ,
     3081    12539                                       @SCALE   = SCALE ,
     3082    12540                                       @LENGTH  = LENGTH );
     3083    12595
     3084    12596    4                    CALL Z8AU$TYPE_DESCRIPTOR (SENDING$ -> LX_ETT_ITEM.ETT$,
     3085    12597    4                                               ROP_DESC);
     3086    12598
     3087    12599                         %UNPACK_NDSC (@DESC    = ROP_DESC.DESC,
     3088    12600                                       @SCALE   = SCALE2,
     3089    12601                                       @LENGTH  = LENGTH2);
     3090    12656
     3091    12657    4                    LENGTH = LENGTH2 - SCALE + SCALE2 + 1;
     3092    12658
     3093    12659    4                  CASE(%TYO);
     3094    12660                         %UNPACK_NDSC( @DESC    = TYPE_DESC.DESC ,
     3095    12661                                       @SCALE   = SCALE ,
PL6.E3A0      #003=Z8E7$ROUNDING File=Z8E7.:Z8A6TSI                              SAT 08/09/97 11:45 Page:503
     3096    12662                                       @LENGTH  = LENGTH );
     3097    12717
     3098    12718    4                    CALL Z8AU$TYPE_DESCRIPTOR (SENDING$ -> LX_ETT_ITEM.ETT$,
     3099    12719    4                                               ROP_DESC);
     3100    12720
     3101    12721                         %UNPACK_NDSC (@DESC    = ROP_DESC.DESC,
     3102    12722                                       @SCALE   = SCALE2,
     3103    12723                                       @LENGTH  = LENGTH2);
     3104    12778
     3105    12779    4                    LENGTH = LENGTH2 - SCALE + SCALE2 + 2;
     3106    12780
     3107    12781    4                  CASE(%TYF);
     3108    12782                         %UNPACK_NDSC( @DESC    = TYPE_DESC.DESC ,
     3109    12783                                       @SCALE   = SCALE ,
     3110    12784                                       @LENGTH  = LENGTH );
     3111    12839
     3112    12840    4                    IF TYPE_DESC.DESC.NDSC.TN = %NDSC4 /* EBCDIC overpunched */
     3113    12841    4                      THEN LENGTH = 2;
     3114    12842    4                      ELSE LENGTH = 1;
     3115    12843
     3116    12844    4                    CALL Z8AU$TYPE_DESCRIPTOR (SENDING$ -> LX_ETT_ITEM.ETT$,
     3117    12845    4                                               ROP_DESC);
     3118    12846
     3119    12847                         %UNPACK_NDSC (@DESC    = ROP_DESC.DESC,
     3120    12848                                       @SCALE   = SCALE2,
     3121    12849                                       @LENGTH  = LENGTH2);
     3122    12904
     3123    12905    4                    LENGTH = LENGTH + LENGTH2 - SCALE + SCALE2;
     3124    12906
     3125    12907    4                  CASE(%TYI);
     3126    12908    4                    LENGTH = %TYI_SIGNIFICANCE;
     3127    12909
     3128    12910    4                  CASE(%TYJ);
     3129    12911    4                    LENGTH = %TYJ_SIGNIFICANCE;
     3130    12912
     3131    12913    4                  CASE(%TYK);
     3132    12914    4                    LENGTH = %TYK_SIGNIFICANCE;
PL6.E3A0      #003=Z8E7$ROUNDING File=Z8E7.:Z8A6TSI                              SAT 08/09/97 11:45 Page:504
     3133    12915
     3134    12916    4                  CASE(%TYQ);
     3135    12917    4                    RETURN; /* Don't generate round triad */
     3136    12918
     3137    12919    4                  CASE(%TYR);
     3138    12920    4                    RETURN; /* Don't generate round triad */
     3139    12921
     3140    12922    4                  CASE(%TYH);
     3141    12923    4                    LENGTH = %TYH_SIGNIFICANCE;
     3142    12924
     3143    12925    4                  CASE(%TYA, %TYE, %TYB);
     3144    12926                         %FISH(TRIAD = RECEIVING$ -> LX_ETT_ITEM.ETT$, RTN = ST$$);
     3145    12934
     3146    12935    4                    IF ST$$ -> VARIABLE.B.SUB_CLASS.EDITED THEN
     3147    12936    5                      DO;
     3148    12937                             %GET_LTS( @ID     = %NEL ,
     3149    12938                                       @ST$    = ST$$ ,
     3150    12939                                       @RETURN$= NEL$$ );
     3151    12982
     3152    12983    5                        DESC = NEL$$ -> NEL.DESC;
     3153    12984
     3154    12985                             %UNPACK_NDSC( @DESC     = DESC ,
     3155    12986                                           @LENGTH   = LENGTH ,
     3156    12987                                           @SCALE    = SCALE );
     3157    13042
     3158    13043    5                        CALL Z8AU$TYPE_DESCRIPTOR (SENDING$ -> LX_ETT_ITEM.ETT$,
     3159    13044    5                                                   ROP_DESC);
     3160    13045
     3161    13046                             %UNPACK_NDSC (@DESC  = ROP_DESC.DESC,
     3162    13047                                           @LENGTH= LENGTH2,
     3163    13048                                           @SCALE = SCALE2);
     3164    13103
     3165    13104    5                        LENGTH = LENGTH2 - SCALE + SCALE2 + 1;
     3166    13105    5                      END;
     3167    13106    4                    ELSE
     3168    13107                           %GET_ADSC_LEN( ST$   = ST$$ ,
     3169    13108                                          RTN   = LENGTH );
PL6.E3A0      #003=Z8E7$ROUNDING File=Z8E7.:Z8A6TSI                              SAT 08/09/97 11:45 Page:505
     3170    13119
     3171    13120    4                  CASE(ELSE);
     3172    13121    4                    CALL Z8AE$ERROR(%E$UNEXPECTED_CASE,
     3173    13122    4                                    RECEIVING$ -> LX_ETT_ITEM.LINE,
     3174    13123    4                                    RECEIVING$ -> LX_ETT_ITEM.COLUMN);
     3175    13124
     3176    13125    4                END /*V* Case */;
     3177    13126
     3178    13127    3                IF SENDING$ -> LX_ITEM.TYPE = %TYF THEN
     3179    13128                       %FISH (TRIAD = SENDING$ -> LX_ETT_ITEM.ETT$,
     3180    13129                              RTN = ST$$);
     3181    13137    3                IF COMCOM.OB.ELS AND
     3182    13138    3                   (SENDING$ -> LX_ITEM.TYPE = %TYO OR
     3183    13139    3                    (SENDING$ -> LX_ITEM.TYPE = %TYF AND
     3184    13140    3                     ST$$ -> VARIABLE.NDSC.TN = %NDSC4 /* EBCDIC overpunched */)) THEN
     3185    13141    4                  DO;
     3186    13142                         %PACK_NDSC ( @DESC     = TYPE_DESC.DESC ,
     3187    13143                                      @LENGTH   = LENGTH ,
     3188    13144                                      @SIGN     = %TRAILING_SIGN ,
     3189    13145                                      @SCALE    = SCALE );
     3190    13194
     3191    13195    4                    CALL Z8AF$FORME_ON_SIZE (%RNDO,
     3192    13196    4                                            SENDING$ -> LX_ETT_ITEM.ETT$,
     3193    13197    4                                            TYPE_DESC.DESC,
     3194    13198    4                                            SENDING$ -> LX_ETT_ITEM.ETT$, ON_SIZE);
     3195    13199    4                  END;
     3196    13200    3                ELSE
     3197    13201    4                  DO;
     3198    13202                         %PACK_NDSC ( @DESC     = TYPE_DESC.DESC ,
     3199    13203                                      @LENGTH   = LENGTH ,
     3200    13204                                      @SIGN     = %LEADING_SIGN ,
     3201    13205                                      @SCALE    = SCALE );
     3202    13254
     3203    13255    4                    CALL Z8AF$FORME_ON_SIZE (%RNDD,
     3204    13256    4                                            SENDING$ -> LX_ETT_ITEM.ETT$,
     3205    13257    4                                            TYPE_DESC.DESC,
     3206    13258    4                                            SENDING$ -> LX_ETT_ITEM.ETT$, ON_SIZE);
PL6.E3A0      #003=Z8E7$ROUNDING File=Z8E7.:Z8A6TSI                              SAT 08/09/97 11:45 Page:506
     3207    13259    4                  END;
     3208    13260
     3209    13261    3              CASE(%TYI, %TYJ, %TYK, %TYH);
     3210    13262                     /*V* NO NEED TO ROUND */
     3211    13263
     3212    13264    3              CASE(%TYR, %TYQ);
     3213    13265    3                IF (RECEIVING$ -> LX_ETT_ITEM.TYPE ~= %TYR)
     3214    13266    3                       AND (RECEIVING$ -> LX_ETT_ITEM.TYPE ~= %TYQ) THEN
     3215    13267    4                  DO;
     3216    13268    4                    CALL Z8EV$CONVERT_ON_SIZE (%TYD, SENDING$, SENDING$, ON_SIZE);
     3217    13269    4                    CALL Z8E7$ROUNDING (RECEIVING$, SENDING$, ON_SIZE);
     3218    13270    4                  END;
     3219    13271
     3220    13272
     3221    13273    3              CASE(%TYT);
     3222    13274    3                CALL Z8EV$LEAST_STRONGEST_TYPE(SENDING$,
     3223    13275    3                                               %CONTEXT_NUMERIC,
     3224    13276    3                                               SENDING$);
     3225    13277
     3226    13278    3                CALL Z8E7$ROUNDING(RECEIVING$, SENDING$, ON_SIZE);
     3227    13279
     3228    13280    3              CASE(ELSE);
     3229    13281    3                CALL Z8AE$ERROR(%E$UNEXPECTED_CASE,
     3230    13282    3                                SENDING$ -> LX_ITEM.LINE,
     3231    13283    3                                SENDING$ -> LX_ITEM.COLUMN);
     3232    13284    3            END /*V* CASE */;
     3233    13285    3          ELSE DO;
     3234    13286                 %FISH (TRIAD = RECEIVING$ -> LX_ETT_ITEM.ETT$, RTN = ST$$);
     3235    13294    3            IF ST$$ -> VARIABLE.B.CLASS = %CLASS_NUMERIC_EDITED AND
     3236    13295    3                (SENDING$ -> LX_ETT_ITEM.TYPE = %TYR OR SENDING$ -> LX_ETT_ITEM.TYPE =
             13295                         %TYQ) THEN
     3237    13296    4              DO;
     3238    13297                     %GET_LTS (@ID      = %NEL,
     3239    13298                               @ST$     = ST$$,
     3240    13299                               @RETURN$ = NEL$$);
     3241    13342    4                DESC = NEL$$ -> NEL.DESC;
     3242    13343    4                DESC.NDSC.TN = %NDSC4;
PL6.E3A0      #003=Z8E7$ROUNDING File=Z8E7.:Z8A6TSI                              SAT 08/09/97 11:45 Page:507
     3243    13344    4                CALL Z8EV$CONVERT_ROUND_ON_SIZE (%TYD, SENDING$, SENDING$, ON_SIZE,
     3244    13345    4                    TRUE, DESC);
     3245    13346    4                CALL Z8E7$ROUNDING (RECEIVING$, SENDING$, ON_SIZE);
     3246    13347    4              END;
     3247    13348    3          END;
     3248    13349    2        END;
     3249    13350
     3250    13351
     3251    13352    1   END Z8E7$ROUNDING;
     3252    13353        %EOD;

PL6.E3A0      #003=Z8E7$ROUNDING File=Z8E7.:Z8A6TSI                              SAT 08/09/97 11:45 Page:508
--  Include file information  --

   Z8A_COMCOM.:Z8A6TOU  cannot be made into a system file and is referenced.
   Z8A_LTS.:Z8A6TOU  cannot be made into a system file and is referenced.
   Z8A_ERR_NUMS.:Z8A6TOU  is referenced.
   Z8A_ST.:Z8A6TOU  cannot be made into a system file and is referenced.
   Z8A_ETT.:Z8A6TOU  cannot be made into a system file and is referenced.
   Z8A_DESC.:Z8A6TOU  cannot be made into a system file and is referenced.
   Z8A_TYPES.:Z8A6TOU  is referenced.
   Z8A_LEX_SYMB.:Z8A6TOU  cannot be made into a system file and is referenced.
   Z8E_STACKS.:Z8A6TOU  cannot be made into a system file and is referenced.
   X8A_COM_MACS.:X8A6TOU  is referenced.
   Z8A_NAMES.:Z8A6TOU  is referenced.
   Z8A_SUPP_MAC.:Z8A6TOU  is referenced.
   Z8A_DEFC.:Z8A6TOU  cannot be made into a system file and is referenced.
      No diagnostics issued in procedure Z8E7$ROUNDING.

   Procedure Z8E7$ROUNDING requires 775 words for executable code.
   Procedure Z8E7$ROUNDING requires 32 words of local(AUTO) storage.

PL6.E3A0      #003=Z8E7$ROUNDING File=Z8E7.:Z8A6TSI                              SAT 08/09/97 11:45 Page:509

 Object Unit name= Z8E7$ROUNDING                              File name= Z8E7.:Z8A6TOU
 UTS= AUG 09 '97 11:45:58.64 SAT                              Compiler= PL-6/E31         Sev=      00
 SharedLib= :SHARED_SYSTEM                                    Alt SharedLib=


    ****  Control sections  ****

 Sect   Type Bound  Init  Size OctSiz  Section name(segment info)
    0  LblCom even  none     1      1  ITERATION
    1  LblCom even  none    90    132  LEX_SYMBOL
    2  LblCom even  none     1      1  CURRENT_LEX_SYMBOL$
    3  LblCom even  none    90    132  TEMP_LEX_SYMBOL
    4  LblCom even  none    90    132  TEMP_LEX_SYMBOL2
    5  LblCom even  none     1      1  ETT$
    6  LblCom even  none     1      1  HEAD_ETT$
    7  LblCom even  none   512   1000  ETT_BUCKETS
    8  LblCom even  none     5      5  ETT_
    9  LblCom even  none     1      1  ST$
   10  LblCom even  none     5      5  ST_
   11  LblCom even  none     1      1  LTS$
   12  LblCom even  none     5      5  LTS_
   13   Proc  even  none   775   1407  Z8E7$ROUNDING
   14  RoData even  none    18     22  Z8E7$ROUNDING

    ****  Entry defs  ****

                              Check   Calling
                             calling  sequence
  Sect OctLoc Primary Altret sequence   type   Parms  Name
    13      0   yes            yes      Std        3  Z8E7$ROUNDING
PL6.E3A0      #003=Z8E7$ROUNDING File=Z8E7.:Z8A6TSI                              SAT 08/09/97 11:45 Page:510

  ****  Entry refs  ****

         Check        Calling
        calling       sequence
Altret sequence SRef   type   Args  Name
         yes           Std       4 Z8EV$CONVERT_ON_SIZE
         yes           Std       2 Z8AU$TYPE_DESCRIPTOR
         yes           Std      12 Z8AE$ERROR
         yes           Std       5 Z8AF$FORME_ON_SIZE
         yes           Std       3 Z8EV$LEAST_STRONGEST_TYPE
         yes           Std       6 Z8EV$CONVERT_ROUND_ON_SIZE
                       nStd      0 X66_AUTO_3
                       nStd      0 X66_ARET

  ****  Data refs  ****

  Flags:  r = read only, s = secondary
Flgs Name                             Flgs Name                             Flgs Name
r    LTS_STEP                              COMCOM

  ****  Segment refs  ****

  Flags:  r = read only, s = secondary
Flgs Name                             Flgs Name                             Flgs Name
     ISSID                                 NULLSID
PL6.E3A0      #003=Z8E7$ROUNDING File=Z8E7.:Z8A6TSI                              SAT 08/09/97 11:45 Page:511


     3011        1        /*T***********************************************************/
     3012        2        /*T*                                                         */
     3013        3        /*T* Copyright (c) Bull HN Information Systems Inc., 1997    */
     3014        4        /*T*                                                         */
     3015        5        /*T***********************************************************/
     3016        6        /*=============*/
     3017        7          Z8E7$ROUNDING: PROC (RECEIVING$, SENDING$, ON_SIZE);

      7 13 000000   000000 700200 xent  Z8E7$ROUNDI* TSX0  ! X66_AUTO_3
        13 000001   000040 000003                    ZERO    32,3

     3018        8        /*=============*/
     3019        9
     3020       10
     3021       11    1        DCL RECEIVING$    PTR;
     3022       12    1        DCL SENDING$      PTR;
     3023       13
     3024       14
     3025       15             %EQU PHASE = 1;
     3026       16             %INCLUDE Z8A_DEFC;
     3027       84             %INCLUDE Z8A_SUPP_MAC;
     3028     2484             %INCLUDE Z8E_STACKS;
     3029     4750             %INCLUDE Z8A_TYPES;
     3030     4924             %INCLUDE Z8A_DESC;
     3031     4970             %INCLUDE Z8A_ETT;
     3032     5271             %INCLUDE Z8A_ST;
     3033     8930             %INCLUDE Z8A_ERR_NUMS;
     3034     9694             %INCLUDE Z8A_LTS;
     3035    11771            %INCLUDE Z8A_COMCOM;
     3036    12421
     3037    12422    1        DCL 1 ROP_DESC  ALIGNED,
     3038    12423                  %TYPE_DESC;
     3039    12457
     3040    12458    1        DCL 1 TYPE_DESC ALIGNED,
     3041    12459                   %TYPE_DESC;
     3042    12493
PL6.E3A0      #003=Z8E7$ROUNDING File=Z8E7.:Z8A6TSI                              SAT 08/09/97 11:45 Page:512
     3043    12494
     3044    12495    1        DCL Z8AU$TYPE_DESCRIPTOR           ENTRY(2);
     3045    12496    1        DCL Z8AF$FORME_ON_SIZE             ENTRY(5);
     3046    12497    1        DCL Z8EV$LEAST_STRONGEST_TYPE      ENTRY(3);
     3047    12498    1        DCL Z8AE$ERROR                     ENTRY(12);
     3048    12499    1        DCL Z8EV$CONVERT_ON_SIZE           ENTRY(4);
     3049    12500    1        DCL Z8EV$CONVERT_ROUND_ON_SIZE     ENTRY(6);
     3050    12501
     3051    12502    1        DCL ST$$                  PTR;
     3052    12503    1        DCL NEL$$                 PTR;
     3053    12504    1        DCL ON_SIZE               BIT (1) ALIGNED;
     3054    12505
     3055    12506    1        DCL LENGTH2               SBIN WORD;
     3056    12507    1        DCL SCALE2                SBIN WORD;
     3057    12508
     3058    12509
     3059    12510        %EJECT;
PL6.E3A0      #003=Z8E7$ROUNDING File=Z8E7.:Z8A6TSI                              SAT 08/09/97 11:45 Page:513
     3060    12511    2        IF RECEIVING$ -> LX_ITEM.ID = %LX_ETT_ITEM THEN DO;

  12511 13 000002   200003 470500                    LDP0    @RECEIVING$,,AUTO
        13 000003   000000 471500                    LDP1    0,,PR0
        13 000004   100000 220100                    LDX0    0,,PR1
        13 000005   000004 100003                    CMPX0   4,DU
        13 000006   001406 601000 13                 TNZ     s:13352

     3061    12512    2          IF RECEIVING$ ->LX_ETT_ITEM.B.ROUND THEN

  12512 13 000007   100000 236100                    LDQ     0,,PR1
        13 000010   200000 316007                    CANQ    65536,DL
        13 000011   001303 600000 13                 TZE     s:13288

     3062    12513    3            DO CASE(SENDING$ -> LX_ITEM.TYPE);

  12513 13 000012   200004 473500                    LDP3    @SENDING$,,AUTO
        13 000013   300000 474500                    LDP4    0,,PR3
        13 000014   400004 235100                    LDA     4,,PR4
        13 000015   000020 115007                    CMPA    16,DL
        13 000016   000020 602005 13                 TNC     s:12513+6,AL
        13 000017   001270 710000 13                 TRA     s:13281
        13 000020   000040 710000 13                 TRA     s:12515
        13 000021   001302 710000 13                 TRA     s:13284
        13 000022   001302 710000 13                 TRA     s:13284
        13 000023   000040 710000 13                 TRA     s:12515
        13 000024   001227 710000 13                 TRA     s:13265
        13 000025   001227 710000 13                 TRA     s:13265
        13 000026   001270 710000 13                 TRA     s:13281
        13 000027   001302 710000 13                 TRA     s:13284
        13 000030   001270 710000 13                 TRA     s:13281
        13 000031   001270 710000 13                 TRA     s:13281
        13 000032   001270 710000 13                 TRA     s:13281
        13 000033   000040 710000 13                 TRA     s:12515
        13 000034   001270 710000 13                 TRA     s:13281
        13 000035   001252 710000 13                 TRA     s:13274
        13 000036   001270 710000 13                 TRA     s:13281
PL6.E3A0      #003=Z8E7$ROUNDING File=Z8E7.:Z8A6TSI                              SAT 08/09/97 11:45 Page:514
        13 000037   001302 710000 13                 TRA     s:13284

     3063    12514    3              CASE(%TYD, %TYO, %TYF);

     3064    12515    3                IF SENDING$ -> LX_ITEM.TYPE = %TYF THEN

  12515 13 000040   000013 115007                    CMPA    11,DL
        13 000041   000057 601000 13                 TNZ     s:12525

     3065    12516                       %FISH (TRIAD = SENDING$ -> LX_ETT_ITEM.ETT$,
     3066    12517                              RTN = ST$$);

  12519 13 000042   400001 236100                    LDQ     1,,PR4
        13 000043   200026 756100                    STQ     ST$$,,AUTO

  12520 13 000044   200026 475500                    LDP5    ST$$,,AUTO
        13 000045   500000 221100                    LDX1    0,,PR5
        13 000046   000751 101003                    CMPX1   489,DU
        13 000047   000057 603000 13                 TRC     s:12525

  12521 13 000050   200026 470500                    LDP0    ST$$,,AUTO
        13 000051   000001 236100                    LDQ     1,,PR0
        13 000052   200026 756100                    STQ     ST$$,,AUTO

  12522 13 000053   200026 470500                    LDP0    ST$$,,AUTO
        13 000054   000000 220100                    LDX0    0,,PR0
        13 000055   000751 100003                    CMPX0   489,DU
        13 000056   000050 602000 13                 TNC     s:12521

     3067    12525    3                IF NOT (COMCOM.OB.ELS AND

  12525 13 000057   000026 234000 xsym               SZN     COMCOM+22
        13 000060   000074 605000 13                 TPL     s:12529
        13 000061   200004 470500                    LDP0    @SENDING$,,AUTO
        13 000062   000000 471500                    LDP1    0,,PR0
        13 000063   100004 235100                    LDA     4,,PR1
        13 000064   000003 115007                    CMPA    3,DL
PL6.E3A0      #003=Z8E7$ROUNDING File=Z8E7.:Z8A6TSI                              SAT 08/09/97 11:45 Page:515
        13 000065   000105 600000 13                 TZE     s:12531
        13 000066   000013 115007                    CMPA    11,DL
        13 000067   000074 601000 13                 TNZ     s:12529
        13 000070   200026 473500                    LDP3    ST$$,,AUTO
        13 000071   300001 236100                    LDQ     1,,PR3
        13 000072   040000 316007                    CANQ    16384,DL
        13 000073   000105 601000 13                 TNZ     s:12531

     3068    12526    3                        (SENDING$ -> LX_ITEM.TYPE = %TYO OR
     3069    12527    3                         (SENDING$ -> LX_ITEM.TYPE = %TYF AND
     3070    12528    3                         ST$$ -> VARIABLE.NDSC.TN = %NDSC4 /* EBCDIC overpunched */)))
             12528                                   THEN
     3071    12529    3                  CALL Z8EV$CONVERT_ON_SIZE (%TYD, SENDING$, SENDING$, ON_SIZE);

  12529 13 000074   200004 237100                    LDAQ    @SENDING$,,AUTO
        13 000075   200034 757100                    STAQ    SCALE2+3,,AUTO
        13 000076   200004 236100                    LDQ     @SENDING$,,AUTO
        13 000077   000002 235000 14                 LDA     2
        13 000100   200032 757100                    STAQ    SCALE2+1,,AUTO
        13 000101   200032 630500                    EPPR0   SCALE2+1,,AUTO
        13 000102   000000 631400 14                 EPPR1   0
        13 000103   000000 701000 xent               TSX1    Z8EV$CONVERT_ON_SIZE
        13 000104   000000 011000                    NOP     0

     3072    12530
     3073    12531    3                CALL Z8AU$TYPE_DESCRIPTOR(RECEIVING$ -> LX_ETT_ITEM.ETT$,

  12531 13 000105   200003 470500                    LDP0    @RECEIVING$,,AUTO
        13 000106   000000 471500                    LDP1    0,,PR0
        13 000107   200022 633500                    EPPR3   TYPE_DESC,,AUTO
        13 000110   200033 453500                    STP3    SCALE2+2,,AUTO
        13 000111   100001 634500                    EPPR4   1,,PR1
        13 000112   200032 454500                    STP4    SCALE2+1,,AUTO
        13 000113   200032 630500                    EPPR0   SCALE2+1,,AUTO
        13 000114   000003 631400 14                 EPPR1   3
        13 000115   000000 701000 xent               TSX1    Z8AU$TYPE_DESCRIPTOR
        13 000116   000000 011000                    NOP     0
PL6.E3A0      #003=Z8E7$ROUNDING File=Z8E7.:Z8A6TSI                              SAT 08/09/97 11:45 Page:516

     3074    12532    3                                          TYPE_DESC);
     3075    12533
     3076    12534    3                SCALE = 0;

  12534 13 000117   200012 450100                    STZ     SCALE,,AUTO

     3077    12535
     3078    12536    4                DO CASE(TYPE_DESC.TYPE);

  12536 13 000120   200022 235100                    LDA     TYPE_DESC,,AUTO
        13 000121   000020 115007                    CMPA    16,DL
        13 000122   000124 602005 13                 TNC     s:12536+4,AL
        13 000123   001015 710000 13                 TRA     s:13121
        13 000124   000144 710000 13                 TRA     s:12547
        13 000125   000556 710000 13                 TRA     s:12908
        13 000126   000561 710000 13                 TRA     s:12911
        13 000127   000272 710000 13                 TRA     s:12669
        13 000130   000570 710000 13                 TRA     s:12920
        13 000131   000567 710000 13                 TRA     s:12917
        13 000132   000574 710000 13                 TRA     s:12928
        13 000133   000571 710000 13                 TRA     s:12923
        13 000134   000574 710000 13                 TRA     s:12928
        13 000135   001015 710000 13                 TRA     s:13121
        13 000136   001015 710000 13                 TRA     s:13121
        13 000137   000420 710000 13                 TRA     s:12791
        13 000140   000574 710000 13                 TRA     s:12928
        13 000141   001015 710000 13                 TRA     s:13121
        13 000142   001015 710000 13                 TRA     s:13121
        13 000143   000564 710000 13                 TRA     s:12914

     3079    12537    4                  CASE(%TYD);

     3080    12538                         %UNPACK_NDSC( @DESC    = TYPE_DESC.DESC ,
     3081    12539                                       @SCALE   = SCALE ,
     3082    12540                                       @LENGTH  = LENGTH );

PL6.E3A0      #003=Z8E7$ROUNDING File=Z8E7.:Z8A6TSI                              SAT 08/09/97 11:45 Page:517
  12547 13 000144   200023 236100                    LDQ     TYPE_DESC+1,,AUTO
        13 000145   000014 772000                    QRL     12
        13 000146   000003 376007                    ANQ     3,DL
        13 000147   000004 116007                    CMPQ    4,DL
        13 000150   000152 602006 13                 TNC     s:12547+6,QL
        13 000151   000203 710000 13                 TRA     s:12587
        13 000152   000167 710000 13                 TRA     s:12571
        13 000153   000162 710000 13                 TRA     s:12554
        13 000154   000162 710000 13                 TRA     s:12554
        13 000155   000156 710000 13                 TRA     s:12549

  12549 13 000156   200023 236100                    LDQ     TYPE_DESC+1,,AUTO
        13 000157   000077 376007                    ANQ     63,DL
        13 000160   200013 756100                    STQ     LENGTH,,AUTO
        13 000161   000203 710000 13                 TRA     s:12587

  12554 13 000162   200023 236100                    LDQ     TYPE_DESC+1,,AUTO
        13 000163   000077 376007                    ANQ     63,DL
        13 000164   000001 136007                    SBLQ    1,DL
        13 000165   200013 756100                    STQ     LENGTH,,AUTO
        13 000166   000203 710000 13                 TRA     s:12587

  12571 13 000167   200023 236100                    LDQ     TYPE_DESC+1,,AUTO
        13 000170   040000 316007                    CANQ    16384,DL
        13 000171   000177 600000 13                 TZE     s:12574

  12572 13 000172   200023 236100                    LDQ     TYPE_DESC+1,,AUTO
        13 000173   000077 376007                    ANQ     63,DL
        13 000174   000003 136007                    SBLQ    3,DL
        13 000175   200013 756100                    STQ     LENGTH,,AUTO
        13 000176   000203 710000 13                 TRA     s:12587

  12574 13 000177   200023 236100                    LDQ     TYPE_DESC+1,,AUTO
        13 000200   000077 376007                    ANQ     63,DL
        13 000201   000002 136007                    SBLQ    2,DL
        13 000202   200013 756100                    STQ     LENGTH,,AUTO

PL6.E3A0      #003=Z8E7$ROUNDING File=Z8E7.:Z8A6TSI                              SAT 08/09/97 11:45 Page:518
  12587 13 000203   200023 236100                    LDQ     TYPE_DESC+1,,AUTO
        13 000204   000030 736000                    QLS     24
        13 000205   000036 732000                    QRS     30
        13 000206   200012 756100                    STQ     SCALE,,AUTO

     3083    12595
     3084    12596    4                    CALL Z8AU$TYPE_DESCRIPTOR (SENDING$ -> LX_ETT_ITEM.ETT$,

  12596 13 000207   200004 470500                    LDP0    @SENDING$,,AUTO
        13 000210   000000 471500                    LDP1    0,,PR0
        13 000211   200016 633500                    EPPR3   ROP_DESC,,AUTO
        13 000212   200033 453500                    STP3    SCALE2+2,,AUTO
        13 000213   100001 634500                    EPPR4   1,,PR1
        13 000214   200032 454500                    STP4    SCALE2+1,,AUTO
        13 000215   200032 630500                    EPPR0   SCALE2+1,,AUTO
        13 000216   000003 631400 14                 EPPR1   3
        13 000217   000000 701000 xent               TSX1    Z8AU$TYPE_DESCRIPTOR
        13 000220   000000 011000                    NOP     0

     3085    12597    4                                               ROP_DESC);
     3086    12598
     3087    12599                         %UNPACK_NDSC (@DESC    = ROP_DESC.DESC,
     3088    12600                                       @SCALE   = SCALE2,
     3089    12601                                       @LENGTH  = LENGTH2);

  12608 13 000221   200017 236100                    LDQ     ROP_DESC+1,,AUTO
        13 000222   000014 772000                    QRL     12
        13 000223   000003 376007                    ANQ     3,DL
        13 000224   000004 116007                    CMPQ    4,DL
        13 000225   000227 602006 13                 TNC     s:12608+6,QL
        13 000226   000260 710000 13                 TRA     s:12648
        13 000227   000244 710000 13                 TRA     s:12632
        13 000230   000237 710000 13                 TRA     s:12615
        13 000231   000237 710000 13                 TRA     s:12615
        13 000232   000233 710000 13                 TRA     s:12610

  12610 13 000233   200017 236100                    LDQ     ROP_DESC+1,,AUTO
PL6.E3A0      #003=Z8E7$ROUNDING File=Z8E7.:Z8A6TSI                              SAT 08/09/97 11:45 Page:519
        13 000234   000077 376007                    ANQ     63,DL
        13 000235   200030 756100                    STQ     LENGTH2,,AUTO
        13 000236   000260 710000 13                 TRA     s:12648

  12615 13 000237   200017 236100                    LDQ     ROP_DESC+1,,AUTO
        13 000240   000077 376007                    ANQ     63,DL
        13 000241   000001 136007                    SBLQ    1,DL
        13 000242   200030 756100                    STQ     LENGTH2,,AUTO
        13 000243   000260 710000 13                 TRA     s:12648

  12632 13 000244   200017 236100                    LDQ     ROP_DESC+1,,AUTO
        13 000245   040000 316007                    CANQ    16384,DL
        13 000246   000254 600000 13                 TZE     s:12635

  12633 13 000247   200017 236100                    LDQ     ROP_DESC+1,,AUTO
        13 000250   000077 376007                    ANQ     63,DL
        13 000251   000003 136007                    SBLQ    3,DL
        13 000252   200030 756100                    STQ     LENGTH2,,AUTO
        13 000253   000260 710000 13                 TRA     s:12648

  12635 13 000254   200017 236100                    LDQ     ROP_DESC+1,,AUTO
        13 000255   000077 376007                    ANQ     63,DL
        13 000256   000002 136007                    SBLQ    2,DL
        13 000257   200030 756100                    STQ     LENGTH2,,AUTO

  12648 13 000260   200017 236100                    LDQ     ROP_DESC+1,,AUTO
        13 000261   000030 736000                    QLS     24
        13 000262   000036 732000                    QRS     30
        13 000263   200031 756100                    STQ     SCALE2,,AUTO

     3090    12656
     3091    12657    4                    LENGTH = LENGTH2 - SCALE + SCALE2 + 1;

  12657 13 000264   200030 236100                    LDQ     LENGTH2,,AUTO
        13 000265   200012 136100                    SBLQ    SCALE,,AUTO
        13 000266   200031 036100                    ADLQ    SCALE2,,AUTO
        13 000267   000001 036007                    ADLQ    1,DL
PL6.E3A0      #003=Z8E7$ROUNDING File=Z8E7.:Z8A6TSI                              SAT 08/09/97 11:45 Page:520
        13 000270   200013 756100                    STQ     LENGTH,,AUTO
        13 000271   001031 710000 13                 TRA     s:13127

     3092    12658
     3093    12659    4                  CASE(%TYO);

     3094    12660                         %UNPACK_NDSC( @DESC    = TYPE_DESC.DESC ,
     3095    12661                                       @SCALE   = SCALE ,
     3096    12662                                       @LENGTH  = LENGTH );

  12669 13 000272   200023 236100                    LDQ     TYPE_DESC+1,,AUTO
        13 000273   000014 772000                    QRL     12
        13 000274   000003 376007                    ANQ     3,DL
        13 000275   000004 116007                    CMPQ    4,DL
        13 000276   000300 602006 13                 TNC     s:12669+6,QL
        13 000277   000331 710000 13                 TRA     s:12709
        13 000300   000315 710000 13                 TRA     s:12693
        13 000301   000310 710000 13                 TRA     s:12676
        13 000302   000310 710000 13                 TRA     s:12676
        13 000303   000304 710000 13                 TRA     s:12671

  12671 13 000304   200023 236100                    LDQ     TYPE_DESC+1,,AUTO
        13 000305   000077 376007                    ANQ     63,DL
        13 000306   200013 756100                    STQ     LENGTH,,AUTO
        13 000307   000331 710000 13                 TRA     s:12709

  12676 13 000310   200023 236100                    LDQ     TYPE_DESC+1,,AUTO
        13 000311   000077 376007                    ANQ     63,DL
        13 000312   000001 136007                    SBLQ    1,DL
        13 000313   200013 756100                    STQ     LENGTH,,AUTO
        13 000314   000331 710000 13                 TRA     s:12709

  12693 13 000315   200023 236100                    LDQ     TYPE_DESC+1,,AUTO
        13 000316   040000 316007                    CANQ    16384,DL
        13 000317   000325 600000 13                 TZE     s:12696

  12694 13 000320   200023 236100                    LDQ     TYPE_DESC+1,,AUTO
PL6.E3A0      #003=Z8E7$ROUNDING File=Z8E7.:Z8A6TSI                              SAT 08/09/97 11:45 Page:521
        13 000321   000077 376007                    ANQ     63,DL
        13 000322   000003 136007                    SBLQ    3,DL
        13 000323   200013 756100                    STQ     LENGTH,,AUTO
        13 000324   000331 710000 13                 TRA     s:12709

  12696 13 000325   200023 236100                    LDQ     TYPE_DESC+1,,AUTO
        13 000326   000077 376007                    ANQ     63,DL
        13 000327   000002 136007                    SBLQ    2,DL
        13 000330   200013 756100                    STQ     LENGTH,,AUTO

  12709 13 000331   200023 236100                    LDQ     TYPE_DESC+1,,AUTO
        13 000332   000030 736000                    QLS     24
        13 000333   000036 732000                    QRS     30
        13 000334   200012 756100                    STQ     SCALE,,AUTO

     3097    12717
     3098    12718    4                    CALL Z8AU$TYPE_DESCRIPTOR (SENDING$ -> LX_ETT_ITEM.ETT$,

  12718 13 000335   200004 470500                    LDP0    @SENDING$,,AUTO
        13 000336   000000 471500                    LDP1    0,,PR0
        13 000337   200016 633500                    EPPR3   ROP_DESC,,AUTO
        13 000340   200033 453500                    STP3    SCALE2+2,,AUTO
        13 000341   100001 634500                    EPPR4   1,,PR1
        13 000342   200032 454500                    STP4    SCALE2+1,,AUTO
        13 000343   200032 630500                    EPPR0   SCALE2+1,,AUTO
        13 000344   000003 631400 14                 EPPR1   3
        13 000345   000000 701000 xent               TSX1    Z8AU$TYPE_DESCRIPTOR
        13 000346   000000 011000                    NOP     0

     3099    12719    4                                               ROP_DESC);
     3100    12720
     3101    12721                         %UNPACK_NDSC (@DESC    = ROP_DESC.DESC,
     3102    12722                                       @SCALE   = SCALE2,
     3103    12723                                       @LENGTH  = LENGTH2);

  12730 13 000347   200017 236100                    LDQ     ROP_DESC+1,,AUTO
        13 000350   000014 772000                    QRL     12
PL6.E3A0      #003=Z8E7$ROUNDING File=Z8E7.:Z8A6TSI                              SAT 08/09/97 11:45 Page:522
        13 000351   000003 376007                    ANQ     3,DL
        13 000352   000004 116007                    CMPQ    4,DL
        13 000353   000355 602006 13                 TNC     s:12730+6,QL
        13 000354   000406 710000 13                 TRA     s:12770
        13 000355   000372 710000 13                 TRA     s:12754
        13 000356   000365 710000 13                 TRA     s:12737
        13 000357   000365 710000 13                 TRA     s:12737
        13 000360   000361 710000 13                 TRA     s:12732

  12732 13 000361   200017 236100                    LDQ     ROP_DESC+1,,AUTO
        13 000362   000077 376007                    ANQ     63,DL
        13 000363   200030 756100                    STQ     LENGTH2,,AUTO
        13 000364   000406 710000 13                 TRA     s:12770

  12737 13 000365   200017 236100                    LDQ     ROP_DESC+1,,AUTO
        13 000366   000077 376007                    ANQ     63,DL
        13 000367   000001 136007                    SBLQ    1,DL
        13 000370   200030 756100                    STQ     LENGTH2,,AUTO
        13 000371   000406 710000 13                 TRA     s:12770

  12754 13 000372   200017 236100                    LDQ     ROP_DESC+1,,AUTO
        13 000373   040000 316007                    CANQ    16384,DL
        13 000374   000402 600000 13                 TZE     s:12757

  12755 13 000375   200017 236100                    LDQ     ROP_DESC+1,,AUTO
        13 000376   000077 376007                    ANQ     63,DL
        13 000377   000003 136007                    SBLQ    3,DL
        13 000400   200030 756100                    STQ     LENGTH2,,AUTO
        13 000401   000406 710000 13                 TRA     s:12770

  12757 13 000402   200017 236100                    LDQ     ROP_DESC+1,,AUTO
        13 000403   000077 376007                    ANQ     63,DL
        13 000404   000002 136007                    SBLQ    2,DL
        13 000405   200030 756100                    STQ     LENGTH2,,AUTO

  12770 13 000406   200017 236100                    LDQ     ROP_DESC+1,,AUTO
        13 000407   000030 736000                    QLS     24
PL6.E3A0      #003=Z8E7$ROUNDING File=Z8E7.:Z8A6TSI                              SAT 08/09/97 11:45 Page:523
        13 000410   000036 732000                    QRS     30
        13 000411   200031 756100                    STQ     SCALE2,,AUTO

     3104    12778
     3105    12779    4                    LENGTH = LENGTH2 - SCALE + SCALE2 + 2;

  12779 13 000412   200030 236100                    LDQ     LENGTH2,,AUTO
        13 000413   200012 136100                    SBLQ    SCALE,,AUTO
        13 000414   200031 036100                    ADLQ    SCALE2,,AUTO
        13 000415   000002 036007                    ADLQ    2,DL
        13 000416   200013 756100                    STQ     LENGTH,,AUTO
        13 000417   001031 710000 13                 TRA     s:13127

     3106    12780
     3107    12781    4                  CASE(%TYF);

     3108    12782                         %UNPACK_NDSC( @DESC    = TYPE_DESC.DESC ,
     3109    12783                                       @SCALE   = SCALE ,
     3110    12784                                       @LENGTH  = LENGTH );

  12791 13 000420   200023 236100                    LDQ     TYPE_DESC+1,,AUTO
        13 000421   000014 772000                    QRL     12
        13 000422   000003 376007                    ANQ     3,DL
        13 000423   000004 116007                    CMPQ    4,DL
        13 000424   000426 602006 13                 TNC     s:12791+6,QL
        13 000425   000457 710000 13                 TRA     s:12831
        13 000426   000443 710000 13                 TRA     s:12815
        13 000427   000436 710000 13                 TRA     s:12798
        13 000430   000436 710000 13                 TRA     s:12798
        13 000431   000432 710000 13                 TRA     s:12793

  12793 13 000432   200023 236100                    LDQ     TYPE_DESC+1,,AUTO
        13 000433   000077 376007                    ANQ     63,DL
        13 000434   200013 756100                    STQ     LENGTH,,AUTO
        13 000435   000457 710000 13                 TRA     s:12831

  12798 13 000436   200023 236100                    LDQ     TYPE_DESC+1,,AUTO
PL6.E3A0      #003=Z8E7$ROUNDING File=Z8E7.:Z8A6TSI                              SAT 08/09/97 11:45 Page:524
        13 000437   000077 376007                    ANQ     63,DL
        13 000440   000001 136007                    SBLQ    1,DL
        13 000441   200013 756100                    STQ     LENGTH,,AUTO
        13 000442   000457 710000 13                 TRA     s:12831

  12815 13 000443   200023 236100                    LDQ     TYPE_DESC+1,,AUTO
        13 000444   040000 316007                    CANQ    16384,DL
        13 000445   000453 600000 13                 TZE     s:12818

  12816 13 000446   200023 236100                    LDQ     TYPE_DESC+1,,AUTO
        13 000447   000077 376007                    ANQ     63,DL
        13 000450   000003 136007                    SBLQ    3,DL
        13 000451   200013 756100                    STQ     LENGTH,,AUTO
        13 000452   000457 710000 13                 TRA     s:12831

  12818 13 000453   200023 236100                    LDQ     TYPE_DESC+1,,AUTO
        13 000454   000077 376007                    ANQ     63,DL
        13 000455   000002 136007                    SBLQ    2,DL
        13 000456   200013 756100                    STQ     LENGTH,,AUTO

  12831 13 000457   200023 236100                    LDQ     TYPE_DESC+1,,AUTO
        13 000460   000030 736000                    QLS     24
        13 000461   000036 732000                    QRS     30
        13 000462   200012 756100                    STQ     SCALE,,AUTO

     3111    12839
     3112    12840    4                    IF TYPE_DESC.DESC.NDSC.TN = %NDSC4 /* EBCDIC overpunched */

  12840 13 000463   200023 236100                    LDQ     TYPE_DESC+1,,AUTO
        13 000464   040000 316007                    CANQ    16384,DL
        13 000465   000471 600000 13                 TZE     s:12842

     3113    12841    4                      THEN LENGTH = 2;

  12841 13 000466   000002 235007                    LDA     2,DL
        13 000467   200013 755100                    STA     LENGTH,,AUTO
        13 000470   000473 710000 13                 TRA     s:12844
PL6.E3A0      #003=Z8E7$ROUNDING File=Z8E7.:Z8A6TSI                              SAT 08/09/97 11:45 Page:525

     3114    12842    4                      ELSE LENGTH = 1;

  12842 13 000471   000001 235007                    LDA     1,DL
        13 000472   200013 755100                    STA     LENGTH,,AUTO

     3115    12843
     3116    12844    4                    CALL Z8AU$TYPE_DESCRIPTOR (SENDING$ -> LX_ETT_ITEM.ETT$,

  12844 13 000473   200004 470500                    LDP0    @SENDING$,,AUTO
        13 000474   000000 471500                    LDP1    0,,PR0
        13 000475   200016 633500                    EPPR3   ROP_DESC,,AUTO
        13 000476   200033 453500                    STP3    SCALE2+2,,AUTO
        13 000477   100001 634500                    EPPR4   1,,PR1
        13 000500   200032 454500                    STP4    SCALE2+1,,AUTO
        13 000501   200032 630500                    EPPR0   SCALE2+1,,AUTO
        13 000502   000003 631400 14                 EPPR1   3
        13 000503   000000 701000 xent               TSX1    Z8AU$TYPE_DESCRIPTOR
        13 000504   000000 011000                    NOP     0

     3117    12845    4                                               ROP_DESC);
     3118    12846
     3119    12847                         %UNPACK_NDSC (@DESC    = ROP_DESC.DESC,
     3120    12848                                       @SCALE   = SCALE2,
     3121    12849                                       @LENGTH  = LENGTH2);

  12856 13 000505   200017 236100                    LDQ     ROP_DESC+1,,AUTO
        13 000506   000014 772000                    QRL     12
        13 000507   000003 376007                    ANQ     3,DL
        13 000510   000004 116007                    CMPQ    4,DL
        13 000511   000513 602006 13                 TNC     s:12856+6,QL
        13 000512   000544 710000 13                 TRA     s:12896
        13 000513   000530 710000 13                 TRA     s:12880
        13 000514   000523 710000 13                 TRA     s:12863
        13 000515   000523 710000 13                 TRA     s:12863
        13 000516   000517 710000 13                 TRA     s:12858

PL6.E3A0      #003=Z8E7$ROUNDING File=Z8E7.:Z8A6TSI                              SAT 08/09/97 11:45 Page:526
  12858 13 000517   200017 236100                    LDQ     ROP_DESC+1,,AUTO
        13 000520   000077 376007                    ANQ     63,DL
        13 000521   200030 756100                    STQ     LENGTH2,,AUTO
        13 000522   000544 710000 13                 TRA     s:12896

  12863 13 000523   200017 236100                    LDQ     ROP_DESC+1,,AUTO
        13 000524   000077 376007                    ANQ     63,DL
        13 000525   000001 136007                    SBLQ    1,DL
        13 000526   200030 756100                    STQ     LENGTH2,,AUTO
        13 000527   000544 710000 13                 TRA     s:12896

  12880 13 000530   200017 236100                    LDQ     ROP_DESC+1,,AUTO
        13 000531   040000 316007                    CANQ    16384,DL
        13 000532   000540 600000 13                 TZE     s:12883

  12881 13 000533   200017 236100                    LDQ     ROP_DESC+1,,AUTO
        13 000534   000077 376007                    ANQ     63,DL
        13 000535   000003 136007                    SBLQ    3,DL
        13 000536   200030 756100                    STQ     LENGTH2,,AUTO
        13 000537   000544 710000 13                 TRA     s:12896

  12883 13 000540   200017 236100                    LDQ     ROP_DESC+1,,AUTO
        13 000541   000077 376007                    ANQ     63,DL
        13 000542   000002 136007                    SBLQ    2,DL
        13 000543   200030 756100                    STQ     LENGTH2,,AUTO

  12896 13 000544   200017 236100                    LDQ     ROP_DESC+1,,AUTO
        13 000545   000030 736000                    QLS     24
        13 000546   000036 732000                    QRS     30
        13 000547   200031 756100                    STQ     SCALE2,,AUTO

     3122    12904
     3123    12905    4                    LENGTH = LENGTH + LENGTH2 - SCALE + SCALE2;

  12905 13 000550   200013 236100                    LDQ     LENGTH,,AUTO
        13 000551   200030 036100                    ADLQ    LENGTH2,,AUTO
        13 000552   200012 136100                    SBLQ    SCALE,,AUTO
PL6.E3A0      #003=Z8E7$ROUNDING File=Z8E7.:Z8A6TSI                              SAT 08/09/97 11:45 Page:527
        13 000553   200031 036100                    ADLQ    SCALE2,,AUTO
        13 000554   200013 756100                    STQ     LENGTH,,AUTO
        13 000555   001031 710000 13                 TRA     s:13127

     3124    12906
     3125    12907    4                  CASE(%TYI);

     3126    12908    4                    LENGTH = %TYI_SIGNIFICANCE;

  12908 13 000556   000013 236007                    LDQ     11,DL
        13 000557   200013 756100                    STQ     LENGTH,,AUTO
        13 000560   001031 710000 13                 TRA     s:13127

     3127    12909
     3128    12910    4                  CASE(%TYJ);

     3129    12911    4                    LENGTH = %TYJ_SIGNIFICANCE;

  12911 13 000561   000005 236007                    LDQ     5,DL
        13 000562   200013 756100                    STQ     LENGTH,,AUTO
        13 000563   001031 710000 13                 TRA     s:13127

     3130    12912
     3131    12913    4                  CASE(%TYK);

     3132    12914    4                    LENGTH = %TYK_SIGNIFICANCE;

  12914 13 000564   000012 236007                    LDQ     10,DL
        13 000565   200013 756100                    STQ     LENGTH,,AUTO
        13 000566   001031 710000 13                 TRA     s:13127

     3133    12915
     3134    12916    4                  CASE(%TYQ);

     3135    12917    4                    RETURN; /* Don't generate round triad */

  12917 13 000567   000000 702200 xent               TSX2  ! X66_ARET
PL6.E3A0      #003=Z8E7$ROUNDING File=Z8E7.:Z8A6TSI                              SAT 08/09/97 11:45 Page:528

     3136    12918
     3137    12919    4                  CASE(%TYR);

     3138    12920    4                    RETURN; /* Don't generate round triad */

  12920 13 000570   000000 702200 xent               TSX2  ! X66_ARET

     3139    12921
     3140    12922    4                  CASE(%TYH);

     3141    12923    4                    LENGTH = %TYH_SIGNIFICANCE;

  12923 13 000571   000006 236007                    LDQ     6,DL
        13 000572   200013 756100                    STQ     LENGTH,,AUTO
        13 000573   001031 710000 13                 TRA     s:13127

     3142    12924
     3143    12925    4                  CASE(%TYA, %TYE, %TYB);

     3144    12926                         %FISH(TRIAD = RECEIVING$ -> LX_ETT_ITEM.ETT$, RTN = ST$$);

  12928 13 000574   200003 470500                    LDP0    @RECEIVING$,,AUTO
        13 000575   000000 471500                    LDP1    0,,PR0
        13 000576   100001 236100                    LDQ     1,,PR1
        13 000577   200026 756100                    STQ     ST$$,,AUTO

  12929 13 000600   200026 473500                    LDP3    ST$$,,AUTO
        13 000601   300000 220100                    LDX0    0,,PR3
        13 000602   000751 100003                    CMPX0   489,DU
        13 000603   000613 603000 13                 TRC     s:12935

  12930 13 000604   200026 470500                    LDP0    ST$$,,AUTO
        13 000605   000001 236100                    LDQ     1,,PR0
        13 000606   200026 756100                    STQ     ST$$,,AUTO

  12931 13 000607   200026 470500                    LDP0    ST$$,,AUTO
PL6.E3A0      #003=Z8E7$ROUNDING File=Z8E7.:Z8A6TSI                              SAT 08/09/97 11:45 Page:529
        13 000610   000000 220100                    LDX0    0,,PR0
        13 000611   000751 100003                    CMPX0   489,DU
        13 000612   000604 602000 13                 TNC     s:12930

     3145    12934
     3146    12935    4                    IF ST$$ -> VARIABLE.B.SUB_CLASS.EDITED THEN

  12935 13 000613   200026 470500                    LDP0    ST$$,,AUTO
        13 000614   000003 236100                    LDQ     3,,PR0
        13 000615   000004 316007                    CANQ    4,DL
        13 000616   000774 600000 13                 TZE     s:13110

     3147    12936    5                      DO;

     3148    12937                             %GET_LTS( @ID     = %NEL ,
     3149    12938                                       @ST$    = ST$$ ,
     3150    12939                                       @RETURN$= NEL$$ );

  12941 13 000617   000005 236100                    LDQ     5,,PR0
        13 000620   000004 116000 14                 CMPQ    4
        13 000621   000631 600000 13                 TZE     s:12975
        13 000622   000005 471500                    LDP1    5,,PR0
        13 000623   100000 220100                    LDX0    0,,PR1
        13 000624   001105 100003                    CMPX0   581,DU
        13 000625   000631 601000 13                 TNZ     s:12975

  12947 13 000626   100002 236100                    LDQ     2,,PR1
        13 000627   200027 756100                    STQ     NEL$$,,AUTO

  12973 13 000630   000643 710000 13                 TRA     s:12983

  12975 13 000631   000004 116000 14                 CMPQ    4
        13 000632   000641 600000 13                 TZE     s:12979
        13 000633   000005 471500                    LDP1    5,,PR0
        13 000634   100000 220100                    LDX0    0,,PR1
        13 000635   001115 100003                    CMPX0   589,DU
        13 000636   000641 601000 13                 TNZ     s:12979
PL6.E3A0      #003=Z8E7$ROUNDING File=Z8E7.:Z8A6TSI                              SAT 08/09/97 11:45 Page:530

  12977 13 000637   200027 756100                    STQ     NEL$$,,AUTO
        13 000640   000643 710000 13                 TRA     s:12983

  12979 13 000641   000004 236000 14                 LDQ     4
        13 000642   200027 756100                    STQ     NEL$$,,AUTO

     3151    12982
     3152    12983    5                        DESC = NEL$$ -> NEL.DESC;

  12983 13 000643   200027 471500                    LDP1    NEL$$,,AUTO
        13 000644   100001 236100                    LDQ     1,,PR1
        13 000645   200006 756100                    STQ     DESC,,AUTO

     3153    12984
     3154    12985                             %UNPACK_NDSC( @DESC     = DESC ,
     3155    12986                                           @LENGTH   = LENGTH ,
     3156    12987                                           @SCALE    = SCALE );

  12994 13 000646   200006 236100                    LDQ     DESC,,AUTO
        13 000647   000014 772000                    QRL     12
        13 000650   000003 376007                    ANQ     3,DL
        13 000651   000004 116007                    CMPQ    4,DL
        13 000652   000654 602006 13                 TNC     s:12994+6,QL
        13 000653   000705 710000 13                 TRA     s:13034
        13 000654   000671 710000 13                 TRA     s:13018
        13 000655   000664 710000 13                 TRA     s:13001
        13 000656   000664 710000 13                 TRA     s:13001
        13 000657   000660 710000 13                 TRA     s:12996

  12996 13 000660   200006 236100                    LDQ     DESC,,AUTO
        13 000661   000077 376007                    ANQ     63,DL
        13 000662   200013 756100                    STQ     LENGTH,,AUTO
        13 000663   000705 710000 13                 TRA     s:13034

  13001 13 000664   200006 236100                    LDQ     DESC,,AUTO
        13 000665   000077 376007                    ANQ     63,DL
PL6.E3A0      #003=Z8E7$ROUNDING File=Z8E7.:Z8A6TSI                              SAT 08/09/97 11:45 Page:531
        13 000666   000001 136007                    SBLQ    1,DL
        13 000667   200013 756100                    STQ     LENGTH,,AUTO
        13 000670   000705 710000 13                 TRA     s:13034

  13018 13 000671   200006 236100                    LDQ     DESC,,AUTO
        13 000672   040000 316007                    CANQ    16384,DL
        13 000673   000701 600000 13                 TZE     s:13021

  13019 13 000674   200006 236100                    LDQ     DESC,,AUTO
        13 000675   000077 376007                    ANQ     63,DL
        13 000676   000003 136007                    SBLQ    3,DL
        13 000677   200013 756100                    STQ     LENGTH,,AUTO
        13 000700   000705 710000 13                 TRA     s:13034

  13021 13 000701   200006 236100                    LDQ     DESC,,AUTO
        13 000702   000077 376007                    ANQ     63,DL
        13 000703   000002 136007                    SBLQ    2,DL
        13 000704   200013 756100                    STQ     LENGTH,,AUTO

  13034 13 000705   200006 236100                    LDQ     DESC,,AUTO
        13 000706   000030 736000                    QLS     24
        13 000707   000036 732000                    QRS     30
        13 000710   200012 756100                    STQ     SCALE,,AUTO

     3157    13042
     3158    13043    5                        CALL Z8AU$TYPE_DESCRIPTOR (SENDING$ -> LX_ETT_ITEM.ETT$,

  13043 13 000711   200004 473500                    LDP3    @SENDING$,,AUTO
        13 000712   300000 474500                    LDP4    0,,PR3
        13 000713   200016 635500                    EPPR5   ROP_DESC,,AUTO
        13 000714   200033 455500                    STP5    SCALE2+2,,AUTO
        13 000715   400001 636500                    EPPR6   1,,PR4
        13 000716   200032 456500                    STP6    SCALE2+1,,AUTO
        13 000717   200032 630500                    EPPR0   SCALE2+1,,AUTO
        13 000720   000003 631400 14                 EPPR1   3
        13 000721   000000 701000 xent               TSX1    Z8AU$TYPE_DESCRIPTOR
        13 000722   000000 011000                    NOP     0
PL6.E3A0      #003=Z8E7$ROUNDING File=Z8E7.:Z8A6TSI                              SAT 08/09/97 11:45 Page:532

     3159    13044    5                                                   ROP_DESC);
     3160    13045
     3161    13046                             %UNPACK_NDSC (@DESC  = ROP_DESC.DESC,
     3162    13047                                           @LENGTH= LENGTH2,
     3163    13048                                           @SCALE = SCALE2);

  13055 13 000723   200017 236100                    LDQ     ROP_DESC+1,,AUTO
        13 000724   000014 772000                    QRL     12
        13 000725   000003 376007                    ANQ     3,DL
        13 000726   000004 116007                    CMPQ    4,DL
        13 000727   000731 602006 13                 TNC     s:13055+6,QL
        13 000730   000762 710000 13                 TRA     s:13095
        13 000731   000746 710000 13                 TRA     s:13079
        13 000732   000741 710000 13                 TRA     s:13062
        13 000733   000741 710000 13                 TRA     s:13062
        13 000734   000735 710000 13                 TRA     s:13057

  13057 13 000735   200017 236100                    LDQ     ROP_DESC+1,,AUTO
        13 000736   000077 376007                    ANQ     63,DL
        13 000737   200030 756100                    STQ     LENGTH2,,AUTO
        13 000740   000762 710000 13                 TRA     s:13095

  13062 13 000741   200017 236100                    LDQ     ROP_DESC+1,,AUTO
        13 000742   000077 376007                    ANQ     63,DL
        13 000743   000001 136007                    SBLQ    1,DL
        13 000744   200030 756100                    STQ     LENGTH2,,AUTO
        13 000745   000762 710000 13                 TRA     s:13095

  13079 13 000746   200017 236100                    LDQ     ROP_DESC+1,,AUTO
        13 000747   040000 316007                    CANQ    16384,DL
        13 000750   000756 600000 13                 TZE     s:13082

  13080 13 000751   200017 236100                    LDQ     ROP_DESC+1,,AUTO
        13 000752   000077 376007                    ANQ     63,DL
        13 000753   000003 136007                    SBLQ    3,DL
        13 000754   200030 756100                    STQ     LENGTH2,,AUTO
PL6.E3A0      #003=Z8E7$ROUNDING File=Z8E7.:Z8A6TSI                              SAT 08/09/97 11:45 Page:533
        13 000755   000762 710000 13                 TRA     s:13095

  13082 13 000756   200017 236100                    LDQ     ROP_DESC+1,,AUTO
        13 000757   000077 376007                    ANQ     63,DL
        13 000760   000002 136007                    SBLQ    2,DL
        13 000761   200030 756100                    STQ     LENGTH2,,AUTO

  13095 13 000762   200017 236100                    LDQ     ROP_DESC+1,,AUTO
        13 000763   000030 736000                    QLS     24
        13 000764   000036 732000                    QRS     30
        13 000765   200031 756100                    STQ     SCALE2,,AUTO

     3164    13103
     3165    13104    5                        LENGTH = LENGTH2 - SCALE + SCALE2 + 1;

  13104 13 000766   200030 236100                    LDQ     LENGTH2,,AUTO
        13 000767   200012 136100                    SBLQ    SCALE,,AUTO
        13 000770   200031 036100                    ADLQ    SCALE2,,AUTO
        13 000771   000001 036007                    ADLQ    1,DL
        13 000772   200013 756100                    STQ     LENGTH,,AUTO

     3166    13105    5                      END;

  13105 13 000773   001031 710000 13                 TRA     s:13127

     3167    13106    4                    ELSE
     3168    13107                           %GET_ADSC_LEN( ST$   = ST$$ ,
     3169    13108                                          RTN   = LENGTH );

  13110 13 000774   004000 316003                    CANQ    2048,DU
        13 000775   001011 600000 13                 TZE     s:13116

  13111 13 000776   000005 471500                    LDP1    5,,PR0
        13 000777   100000 220100                    LDX0    0,,PR1
        13 001000   001105 100003                    CMPX0   581,DU
        13 001001   001006 601000 13                 TNZ     s:13114

PL6.E3A0      #003=Z8E7$ROUNDING File=Z8E7.:Z8A6TSI                              SAT 08/09/97 11:45 Page:534
  13112 13 001002   100003 473500                    LDP3    3,,PR1
        13 001003   300001 235100                    LDA     1,,PR3
        13 001004   200013 755100                    STA     LENGTH,,AUTO
        13 001005   001031 710000 13                 TRA     s:13127

  13114 13 001006   100001 235100                    LDA     1,,PR1
        13 001007   200013 755100                    STA     LENGTH,,AUTO
        13 001010   001031 710000 13                 TRA     s:13127

  13116 13 001011   000001 236100                    LDQ     1,,PR0
        13 001012   007777 376007                    ANQ     4095,DL
        13 001013   200013 756100                    STQ     LENGTH,,AUTO

  13117 13 001014   001031 710000 13                 TRA     s:13127

     3170    13119
     3171    13120    4                  CASE(ELSE);

     3172    13121    4                    CALL Z8AE$ERROR(%E$UNEXPECTED_CASE,

  13121 13 001015   200003 470500                    LDP0    @RECEIVING$,,AUTO
        13 001016   000000 471500                    LDP1    0,,PR0
        13 001017   100006 633500                    EPPR3   6,,PR1
        13 001020   200034 453500                    STP3    SCALE2+3,,AUTO
        13 001021   100005 634500                    EPPR4   5,,PR1
        13 001022   200033 454500                    STP4    SCALE2+2,,AUTO
        13 001023   000007 236000 14                 LDQ     7
        13 001024   200032 756100                    STQ     SCALE2+1,,AUTO
        13 001025   200032 630500                    EPPR0   SCALE2+1,,AUTO
        13 001026   000005 631400 14                 EPPR1   5
        13 001027   000000 701000 xent               TSX1    Z8AE$ERROR
        13 001030   000000 011000                    NOP     0

     3173    13122    4                                    RECEIVING$ -> LX_ETT_ITEM.LINE,
     3174    13123    4                                    RECEIVING$ -> LX_ETT_ITEM.COLUMN);
     3175    13124
     3176    13125    4                END /*V* Case */;
PL6.E3A0      #003=Z8E7$ROUNDING File=Z8E7.:Z8A6TSI                              SAT 08/09/97 11:45 Page:535

     3177    13126
     3178    13127    3                IF SENDING$ -> LX_ITEM.TYPE = %TYF THEN

  13127 13 001031   200004 470500                    LDP0    @SENDING$,,AUTO
        13 001032   000000 471500                    LDP1    0,,PR0
        13 001033   100004 235100                    LDA     4,,PR1
        13 001034   000013 115007                    CMPA    11,DL
        13 001035   001053 601000 13                 TNZ     s:13137

     3179    13128                       %FISH (TRIAD = SENDING$ -> LX_ETT_ITEM.ETT$,
     3180    13129                              RTN = ST$$);

  13131 13 001036   100001 236100                    LDQ     1,,PR1
        13 001037   200026 756100                    STQ     ST$$,,AUTO

  13132 13 001040   200026 473500                    LDP3    ST$$,,AUTO
        13 001041   300000 220100                    LDX0    0,,PR3
        13 001042   000751 100003                    CMPX0   489,DU
        13 001043   001053 603000 13                 TRC     s:13137

  13133 13 001044   200026 470500                    LDP0    ST$$,,AUTO
        13 001045   000001 236100                    LDQ     1,,PR0
        13 001046   200026 756100                    STQ     ST$$,,AUTO

  13134 13 001047   200026 470500                    LDP0    ST$$,,AUTO
        13 001050   000000 220100                    LDX0    0,,PR0
        13 001051   000751 100003                    CMPX0   489,DU
        13 001052   001044 602000 13                 TNC     s:13133

     3181    13137    3                IF COMCOM.OB.ELS AND

  13137 13 001053   000026 234000 xsym               SZN     COMCOM+22
        13 001054   001147 605000 13                 TPL     s:13210
        13 001055   200004 470500                    LDP0    @SENDING$,,AUTO
        13 001056   000000 471500                    LDP1    0,,PR0
        13 001057   100004 235100                    LDA     4,,PR1
PL6.E3A0      #003=Z8E7$ROUNDING File=Z8E7.:Z8A6TSI                              SAT 08/09/97 11:45 Page:536
        13 001060   000003 115007                    CMPA    3,DL
        13 001061   001070 600000 13                 TZE     s:13150
        13 001062   000013 115007                    CMPA    11,DL
        13 001063   001147 601000 13                 TNZ     s:13210
        13 001064   200026 473500                    LDP3    ST$$,,AUTO
        13 001065   300001 236100                    LDQ     1,,PR3
        13 001066   040000 316007                    CANQ    16384,DL
        13 001067   001147 600000 13                 TZE     s:13210

     3182    13138    3                   (SENDING$ -> LX_ITEM.TYPE = %TYO OR
     3183    13139    3                    (SENDING$ -> LX_ITEM.TYPE = %TYF AND
     3184    13140    3                     ST$$ -> VARIABLE.NDSC.TN = %NDSC4 /* EBCDIC overpunched */)) THEN
     3185    13141    4                  DO;

     3186    13142                         %PACK_NDSC ( @DESC     = TYPE_DESC.DESC ,
     3187    13143                                      @LENGTH   = LENGTH ,
     3188    13144                                      @SIGN     = %TRAILING_SIGN ,
     3189    13145                                      @SCALE    = SCALE );

  13150 13 001070   000000 220003                    LDX0    0,DU
        13 001071   200023 740100                    STX0    TYPE_DESC+1,,AUTO

  13151 13 001072   000010 236000 14                 LDQ     8
        13 001073   200023 356100                    ANSQ    TYPE_DESC+1,,AUTO

  13152 13 001074   040000 236007                    LDQ     16384,DL
        13 001075   200023 256100                    ORSQ    TYPE_DESC+1,,AUTO

  13153 13 001076   200023 236100                    LDQ     TYPE_DESC+1,,AUTO
        13 001077   000011 376000 14                 ANQ     9
        13 001100   020000 276007                    ORQ     8192,DL
        13 001101   200023 756100                    STQ     TYPE_DESC+1,,AUTO

  13154 13 001102   200012 236100                    LDQ     SCALE,,AUTO
        13 001103   000006 736000                    QLS     6
        13 001104   200023 752102                    STCQ    TYPE_DESC+1,'02'O,AUTO

PL6.E3A0      #003=Z8E7$ROUNDING File=Z8E7.:Z8A6TSI                              SAT 08/09/97 11:45 Page:537
  13155 13 001105   000002 235007                    LDA     2,DL
        13 001106   000004 115007                    CMPA    4,DL
        13 001107   001111 602005 13                 TNC     s:13155+4,AL
        13 001110   001127 710000 13                 TRA     s:13195
        13 001111   001124 710000 13                 TRA     s:13189
        13 001112   001120 710000 13                 TRA     s:13162
        13 001113   001120 710000 13                 TRA     s:13162
        13 001114   001115 710000 13                 TRA     s:13157

  13157 13 001115   200013 236100                    LDQ     LENGTH,,AUTO
        13 001116   200023 752101                    STCQ    TYPE_DESC+1,'01'O,AUTO
        13 001117   001127 710000 13                 TRA     s:13195

  13162 13 001120   200013 236100                    LDQ     LENGTH,,AUTO
        13 001121   000001 036007                    ADLQ    1,DL
        13 001122   200023 752101                    STCQ    TYPE_DESC+1,'01'O,AUTO
        13 001123   001127 710000 13                 TRA     s:13195

  13189 13 001124   200013 236100                    LDQ     LENGTH,,AUTO
        13 001125   000003 036007                    ADLQ    3,DL
        13 001126   200023 752101                    STCQ    TYPE_DESC+1,'01'O,AUTO

     3190    13194
     3191    13195    4                    CALL Z8AF$FORME_ON_SIZE (%RNDO,

  13195 13 001127   000000 471500                    LDP1    0,,PR0
        13 001130   200005 236100                    LDQ     @ON_SIZE,,AUTO
        13 001131   200036 756100                    STQ     SCALE2+5,,AUTO
        13 001132   100001 633500                    EPPR3   1,,PR1
        13 001133   200035 453500                    STP3    SCALE2+4,,AUTO
        13 001134   200023 634500                    EPPR4   TYPE_DESC+1,,AUTO
        13 001135   200034 454500                    STP4    SCALE2+3,,AUTO
        13 001136   100001 635500                    EPPR5   1,,PR1
        13 001137   200033 455500                    STP5    SCALE2+2,,AUTO
        13 001140   000014 236000 14                 LDQ     12
        13 001141   200032 756100                    STQ     SCALE2+1,,AUTO
        13 001142   200032 630500                    EPPR0   SCALE2+1,,AUTO
PL6.E3A0      #003=Z8E7$ROUNDING File=Z8E7.:Z8A6TSI                              SAT 08/09/97 11:45 Page:538
        13 001143   000012 631400 14                 EPPR1   10
        13 001144   000000 701000 xent               TSX1    Z8AF$FORME_ON_SIZE
        13 001145   000000 011000                    NOP     0

     3192    13196    4                                            SENDING$ -> LX_ETT_ITEM.ETT$,
     3193    13197    4                                            TYPE_DESC.DESC,
     3194    13198    4                                            SENDING$ -> LX_ETT_ITEM.ETT$, ON_SIZE);
     3195    13199    4                  END;

  13199 13 001146   001406 710000 13                 TRA     s:13352

     3196    13200    3                ELSE
     3197    13201    4                  DO;

     3198    13202                         %PACK_NDSC ( @DESC     = TYPE_DESC.DESC ,
     3199    13203                                      @LENGTH   = LENGTH ,
     3200    13204                                      @SIGN     = %LEADING_SIGN ,
     3201    13205                                      @SCALE    = SCALE );

  13210 13 001147   000000 220003                    LDX0    0,DU
        13 001150   200023 740100                    STX0    TYPE_DESC+1,,AUTO

  13211 13 001151   000010 236000 14                 LDQ     8
        13 001152   200023 356100                    ANSQ    TYPE_DESC+1,,AUTO

  13212 13 001153   040000 236007                    LDQ     16384,DL
        13 001154   200023 256100                    ORSQ    TYPE_DESC+1,,AUTO

  13213 13 001155   200023 236100                    LDQ     TYPE_DESC+1,,AUTO
        13 001156   000011 376000 14                 ANQ     9
        13 001157   010000 276007                    ORQ     4096,DL
        13 001160   200023 756100                    STQ     TYPE_DESC+1,,AUTO

  13214 13 001161   200012 236100                    LDQ     SCALE,,AUTO
        13 001162   000006 736000                    QLS     6
        13 001163   200023 752102                    STCQ    TYPE_DESC+1,'02'O,AUTO

PL6.E3A0      #003=Z8E7$ROUNDING File=Z8E7.:Z8A6TSI                              SAT 08/09/97 11:45 Page:539
  13215 13 001164   000001 235007                    LDA     1,DL
        13 001165   000004 115007                    CMPA    4,DL
        13 001166   001170 602005 13                 TNC     s:13215+4,AL
        13 001167   001206 710000 13                 TRA     s:13255
        13 001170   001203 710000 13                 TRA     s:13249
        13 001171   001177 710000 13                 TRA     s:13222
        13 001172   001177 710000 13                 TRA     s:13222
        13 001173   001174 710000 13                 TRA     s:13217

  13217 13 001174   200013 236100                    LDQ     LENGTH,,AUTO
        13 001175   200023 752101                    STCQ    TYPE_DESC+1,'01'O,AUTO
        13 001176   001206 710000 13                 TRA     s:13255

  13222 13 001177   200013 236100                    LDQ     LENGTH,,AUTO
        13 001200   000001 036007                    ADLQ    1,DL
        13 001201   200023 752101                    STCQ    TYPE_DESC+1,'01'O,AUTO
        13 001202   001206 710000 13                 TRA     s:13255

  13249 13 001203   200013 236100                    LDQ     LENGTH,,AUTO
        13 001204   000003 036007                    ADLQ    3,DL
        13 001205   200023 752101                    STCQ    TYPE_DESC+1,'01'O,AUTO

     3202    13254
     3203    13255    4                    CALL Z8AF$FORME_ON_SIZE (%RNDD,

  13255 13 001206   200004 470500                    LDP0    @SENDING$,,AUTO
        13 001207   000000 471500                    LDP1    0,,PR0
        13 001210   200005 236100                    LDQ     @ON_SIZE,,AUTO
        13 001211   200036 756100                    STQ     SCALE2+5,,AUTO
        13 001212   100001 633500                    EPPR3   1,,PR1
        13 001213   200035 453500                    STP3    SCALE2+4,,AUTO
        13 001214   200023 634500                    EPPR4   TYPE_DESC+1,,AUTO
        13 001215   200034 454500                    STP4    SCALE2+3,,AUTO
        13 001216   100001 635500                    EPPR5   1,,PR1
        13 001217   200033 455500                    STP5    SCALE2+2,,AUTO
        13 001220   000016 236000 14                 LDQ     14
        13 001221   200032 756100                    STQ     SCALE2+1,,AUTO
PL6.E3A0      #003=Z8E7$ROUNDING File=Z8E7.:Z8A6TSI                              SAT 08/09/97 11:45 Page:540
        13 001222   200032 630500                    EPPR0   SCALE2+1,,AUTO
        13 001223   000012 631400 14                 EPPR1   10
        13 001224   000000 701000 xent               TSX1    Z8AF$FORME_ON_SIZE
        13 001225   000000 011000                    NOP     0

     3204    13256    4                                            SENDING$ -> LX_ETT_ITEM.ETT$,
     3205    13257    4                                            TYPE_DESC.DESC,
     3206    13258    4                                            SENDING$ -> LX_ETT_ITEM.ETT$, ON_SIZE);
     3207    13259    4                  END;

  13259 13 001226   001406 710000 13                 TRA     s:13352

     3208    13260
     3209    13261    3              CASE(%TYI, %TYJ, %TYK, %TYH);

     3210    13262                     /*V* NO NEED TO ROUND */
     3211    13263
     3212    13264    3              CASE(%TYR, %TYQ);

     3213    13265    3                IF (RECEIVING$ -> LX_ETT_ITEM.TYPE ~= %TYR)

  13265 13 001227   100004 235100                    LDA     4,,PR1
        13 001230   000004 115007                    CMPA    4,DL
        13 001231   001406 600000 13                 TZE     s:13352
        13 001232   000005 115007                    CMPA    5,DL
        13 001233   001406 600000 13                 TZE     s:13352

     3214    13266    3                       AND (RECEIVING$ -> LX_ETT_ITEM.TYPE ~= %TYQ) THEN
     3215    13267    4                  DO;

     3216    13268    4                    CALL Z8EV$CONVERT_ON_SIZE (%TYD, SENDING$, SENDING$, ON_SIZE);

  13268 13 001234   200004 237100                    LDAQ    @SENDING$,,AUTO
        13 001235   200034 757100                    STAQ    SCALE2+3,,AUTO
        13 001236   200004 236100                    LDQ     @SENDING$,,AUTO
        13 001237   000002 235000 14                 LDA     2
        13 001240   200032 757100                    STAQ    SCALE2+1,,AUTO
PL6.E3A0      #003=Z8E7$ROUNDING File=Z8E7.:Z8A6TSI                              SAT 08/09/97 11:45 Page:541
        13 001241   200032 630500                    EPPR0   SCALE2+1,,AUTO
        13 001242   000000 631400 14                 EPPR1   0
        13 001243   000000 701000 xent               TSX1    Z8EV$CONVERT_ON_SIZE
        13 001244   000000 011000                    NOP     0

     3217    13269    4                    CALL Z8E7$ROUNDING (RECEIVING$, SENDING$, ON_SIZE);

  13269 13 001245   200003 630500                    EPPR0   @RECEIVING$,,AUTO
        13 001246   000005 631400 14                 EPPR1   5
        13 001247   000000 701000 13                 TSX1    s:7
        13 001250   000000 011000                    NOP     0

     3218    13270    4                  END;

  13270 13 001251   001406 710000 13                 TRA     s:13352

     3219    13271
     3220    13272
     3221    13273    3              CASE(%TYT);

     3222    13274    3                CALL Z8EV$LEAST_STRONGEST_TYPE(SENDING$,

  13274 13 001252   200004 236100                    LDQ     @SENDING$,,AUTO
        13 001253   200034 756100                    STQ     SCALE2+3,,AUTO
        13 001254   000002 236000 14                 LDQ     2
        13 001255   200004 235100                    LDA     @SENDING$,,AUTO
        13 001256   200032 757100                    STAQ    SCALE2+1,,AUTO
        13 001257   200032 630500                    EPPR0   SCALE2+1,,AUTO
        13 001260   000005 631400 14                 EPPR1   5
        13 001261   000000 701000 xent               TSX1    Z8EV$LEAST_STRONGEST_TYPE
        13 001262   000000 011000                    NOP     0

     3223    13275    3                                               %CONTEXT_NUMERIC,
     3224    13276    3                                               SENDING$);
     3225    13277
     3226    13278    3                CALL Z8E7$ROUNDING(RECEIVING$, SENDING$, ON_SIZE);

PL6.E3A0      #003=Z8E7$ROUNDING File=Z8E7.:Z8A6TSI                              SAT 08/09/97 11:45 Page:542
  13278 13 001263   200003 630500                    EPPR0   @RECEIVING$,,AUTO
        13 001264   000005 631400 14                 EPPR1   5
        13 001265   000000 701000 13                 TSX1    s:7
        13 001266   000000 011000                    NOP     0
        13 001267   001406 710000 13                 TRA     s:13352

     3227    13279
     3228    13280    3              CASE(ELSE);

     3229    13281    3                CALL Z8AE$ERROR(%E$UNEXPECTED_CASE,

  13281 13 001270   400006 635500                    EPPR5   6,,PR4
        13 001271   200034 455500                    STP5    SCALE2+3,,AUTO
        13 001272   400005 631500                    EPPR1   5,,PR4
        13 001273   200033 451500                    STP1    SCALE2+2,,AUTO
        13 001274   000007 236000 14                 LDQ     7
        13 001275   200032 756100                    STQ     SCALE2+1,,AUTO
        13 001276   200032 630500                    EPPR0   SCALE2+1,,AUTO
        13 001277   000005 631400 14                 EPPR1   5
        13 001300   000000 701000 xent               TSX1    Z8AE$ERROR
        13 001301   000000 011000                    NOP     0

     3230    13282    3                                SENDING$ -> LX_ITEM.LINE,
     3231    13283    3                                SENDING$ -> LX_ITEM.COLUMN);
     3232    13284    3            END /*V* CASE */;

  13284 13 001302   001406 710000 13                 TRA     s:13352

     3233    13285    3          ELSE DO;

     3234    13286                 %FISH (TRIAD = RECEIVING$ -> LX_ETT_ITEM.ETT$, RTN = ST$$);

  13288 13 001303   100001 236100                    LDQ     1,,PR1
        13 001304   200026 756100                    STQ     ST$$,,AUTO

  13289 13 001305   200026 473500                    LDP3    ST$$,,AUTO
        13 001306   300000 221100                    LDX1    0,,PR3
PL6.E3A0      #003=Z8E7$ROUNDING File=Z8E7.:Z8A6TSI                              SAT 08/09/97 11:45 Page:543
        13 001307   000751 101003                    CMPX1   489,DU
        13 001310   001320 603000 13                 TRC     s:13294

  13290 13 001311   200026 470500                    LDP0    ST$$,,AUTO
        13 001312   000001 236100                    LDQ     1,,PR0
        13 001313   200026 756100                    STQ     ST$$,,AUTO

  13291 13 001314   200026 470500                    LDP0    ST$$,,AUTO
        13 001315   000000 220100                    LDX0    0,,PR0
        13 001316   000751 100003                    CMPX0   489,DU
        13 001317   001311 602000 13                 TNC     s:13290

     3235    13294    3            IF ST$$ -> VARIABLE.B.CLASS = %CLASS_NUMERIC_EDITED AND

  13294 13 001320   200026 470500                    LDP0    ST$$,,AUTO
        13 001321   000003 236100                    LDQ     3,,PR0
        13 001322   000007 376007                    ANQ     7,DL
        13 001323   000005 116007                    CMPQ    5,DL
        13 001324   001406 601000 13                 TNZ     s:13352
        13 001325   200004 471500                    LDP1    @SENDING$,,AUTO
        13 001326   100000 473500                    LDP3    0,,PR1
        13 001327   300004 235100                    LDA     4,,PR3
        13 001330   000004 115007                    CMPA    4,DL
        13 001331   001334 600000 13                 TZE     s:13301
        13 001332   000005 115007                    CMPA    5,DL
        13 001333   001406 601000 13                 TNZ     s:13352

     3236    13295    3                (SENDING$ -> LX_ETT_ITEM.TYPE = %TYR OR SENDING$ -> LX_ETT_ITEM.TYPE =
             13295                         %TYQ) THEN
     3237    13296    4              DO;

     3238    13297                     %GET_LTS (@ID      = %NEL,
     3239    13298                               @ST$     = ST$$,
     3240    13299                               @RETURN$ = NEL$$);

  13301 13 001334   000005 236100                    LDQ     5,,PR0
        13 001335   000004 116000 14                 CMPQ    4
PL6.E3A0      #003=Z8E7$ROUNDING File=Z8E7.:Z8A6TSI                              SAT 08/09/97 11:45 Page:544
        13 001336   001346 600000 13                 TZE     s:13335
        13 001337   000005 474500                    LDP4    5,,PR0
        13 001340   400000 220100                    LDX0    0,,PR4
        13 001341   001105 100003                    CMPX0   581,DU
        13 001342   001346 601000 13                 TNZ     s:13335

  13307 13 001343   400002 236100                    LDQ     2,,PR4
        13 001344   200027 756100                    STQ     NEL$$,,AUTO

  13333 13 001345   001360 710000 13                 TRA     s:13342

  13335 13 001346   000004 116000 14                 CMPQ    4
        13 001347   001356 600000 13                 TZE     s:13339
        13 001350   000005 474500                    LDP4    5,,PR0
        13 001351   400000 220100                    LDX0    0,,PR4
        13 001352   001115 100003                    CMPX0   589,DU
        13 001353   001356 601000 13                 TNZ     s:13339

  13337 13 001354   200027 756100                    STQ     NEL$$,,AUTO
        13 001355   001360 710000 13                 TRA     s:13342

  13339 13 001356   000004 236000 14                 LDQ     4
        13 001357   200027 756100                    STQ     NEL$$,,AUTO

     3241    13342    4                DESC = NEL$$ -> NEL.DESC;

  13342 13 001360   200027 474500                    LDP4    NEL$$,,AUTO
        13 001361   400001 236100                    LDQ     1,,PR4
        13 001362   200006 756100                    STQ     DESC,,AUTO

     3242    13343    4                DESC.NDSC.TN = %NDSC4;

  13343 13 001363   040000 236007                    LDQ     16384,DL
        13 001364   200006 256100                    ORSQ    DESC,,AUTO

     3243    13344    4                CALL Z8EV$CONVERT_ROUND_ON_SIZE (%TYD, SENDING$, SENDING$, ON_SIZE,

PL6.E3A0      #003=Z8E7$ROUNDING File=Z8E7.:Z8A6TSI                              SAT 08/09/97 11:45 Page:545
  13344 13 001365   200006 633500                    EPPR3   DESC,,AUTO
        13 001366   200037 453500                    STP3    SCALE2+6,,AUTO
        13 001367   000021 236000 14                 LDQ     17
        13 001370   200036 756100                    STQ     SCALE2+5,,AUTO
        13 001371   200004 237100                    LDAQ    @SENDING$,,AUTO
        13 001372   200034 757100                    STAQ    SCALE2+3,,AUTO
        13 001373   200004 236100                    LDQ     @SENDING$,,AUTO
        13 001374   000002 235000 14                 LDA     2
        13 001375   200032 757100                    STAQ    SCALE2+1,,AUTO
        13 001376   200032 630500                    EPPR0   SCALE2+1,,AUTO
        13 001377   000017 631400 14                 EPPR1   15
        13 001400   000000 701000 xent               TSX1    Z8EV$CONVERT_ROUND_ON_SIZE
        13 001401   000000 011000                    NOP     0

     3244    13345    4                    TRUE, DESC);
     3245    13346    4                CALL Z8E7$ROUNDING (RECEIVING$, SENDING$, ON_SIZE);

  13346 13 001402   200003 630500                    EPPR0   @RECEIVING$,,AUTO
        13 001403   000005 631400 14                 EPPR1   5
        13 001404   000000 701000 13                 TSX1    s:7
        13 001405   000000 011000                    NOP     0

     3246    13347    4              END;

     3247    13348    3          END;

     3248    13349    2        END;

     3249    13350
     3250    13351
     3251    13352    1   END Z8E7$ROUNDING;

  13352 13 001406   000000 702200 xent               TSX2  ! X66_ARET
     3252    13353        %EOD;

PL6.E3A0      #003=Z8E7$ROUNDING File=Z8E7.:Z8A6TSI                              SAT 08/09/97 11:45 Page:546
--  Include file information  --

   Z8A_COMCOM.:Z8A6TOU  cannot be made into a system file and is referenced.
   Z8A_LTS.:Z8A6TOU  cannot be made into a system file and is referenced.
   Z8A_ERR_NUMS.:Z8A6TOU  is referenced.
   Z8A_ST.:Z8A6TOU  cannot be made into a system file and is referenced.
   Z8A_ETT.:Z8A6TOU  cannot be made into a system file and is referenced.
   Z8A_DESC.:Z8A6TOU  cannot be made into a system file and is referenced.
   Z8A_TYPES.:Z8A6TOU  is referenced.
   Z8A_LEX_SYMB.:Z8A6TOU  cannot be made into a system file and is referenced.
   Z8E_STACKS.:Z8A6TOU  cannot be made into a system file and is referenced.
   X8A_COM_MACS.:X8A6TOU  is referenced.
   Z8A_NAMES.:Z8A6TOU  is referenced.
   Z8A_SUPP_MAC.:Z8A6TOU  is referenced.
   Z8A_DEFC.:Z8A6TOU  cannot be made into a system file and is referenced.
      No diagnostics issued in procedure Z8E7$ROUNDING.
PL6.E3A0      #003=Z8E7$ROUNDING File=Z8E7.:Z8A6TSI                              SAT 08/09/97 11:45 Page:547

 **** Variables and constants ****

  ****  Section 000 LblCom ITERATION

  ****  Scalars and arrays  ****
OctLoc.c.b A Datatyp(siz) R M Lvl/name                 OctLoc.c.b A Datatyp(siz) R M Lvl/name

     0-0-0/w SBIN              1 ITERATION

  ****  Section 001 LblCom LEX_SYMBOL

  ****  Scalars and arrays  ****
OctLoc.c.b A Datatyp(siz) R M Lvl/name                 OctLoc.c.b A Datatyp(siz) R M Lvl/name

     0-0-0/w STRC(3240)  r     1 LEX_SYMBOL                 0-0-0/w STRC(3240)        1 LEX_SYMBOL_WORDS

  ****  Section 002 LblCom CURRENT_LEX_SYMBOL$

  ****  Scalars and arrays  ****
OctLoc.c.b A Datatyp(siz) R M Lvl/name                 OctLoc.c.b A Datatyp(siz) R M Lvl/name

     0-0-0/w PTR         r     1 CURRENT_LEX_SYMBOL$

  ****  Section 003 LblCom TEMP_LEX_SYMBOL

  ****  Scalars and arrays  ****
OctLoc.c.b A Datatyp(siz) R M Lvl/name                 OctLoc.c.b A Datatyp(siz) R M Lvl/name

     0-0-0/w STRC(3240)        1 TEMP_LEX_SYMBOL

  ****  Section 004 LblCom TEMP_LEX_SYMBOL2

  ****  Scalars and arrays  ****
OctLoc.c.b A Datatyp(siz) R M Lvl/name                 OctLoc.c.b A Datatyp(siz) R M Lvl/name

     0-0-0/w STRC(3240)        1 TEMP_LEX_SYMBOL2

PL6.E3A0      #003=Z8E7$ROUNDING File=Z8E7.:Z8A6TSI                              SAT 08/09/97 11:45 Page:548
  ****  Section 005 LblCom ETT$

  ****  Scalars and arrays  ****
OctLoc.c.b A Datatyp(siz) R M Lvl/name                 OctLoc.c.b A Datatyp(siz) R M Lvl/name

     0-0-0/w PTR         r     1 ETT$

  ****  Section 006 LblCom HEAD_ETT$

  ****  Scalars and arrays  ****
OctLoc.c.b A Datatyp(siz) R M Lvl/name                 OctLoc.c.b A Datatyp(siz) R M Lvl/name

     0-0-0/w PTR               1 HEAD_ETT$

  ****  Section 007 LblCom ETT_BUCKETS

  ****  Scalars and arrays  ****
OctLoc.c.b A Datatyp(siz) R M Lvl/name                 OctLoc.c.b A Datatyp(siz) R M Lvl/name

     0-0-0/w PTR               1 ETT_BUCKETS(0:511)

  ****  Section 008 LblCom ETT_

  ****  Scalars and arrays  ****
OctLoc.c.b A Datatyp(siz) R M Lvl/name                 OctLoc.c.b A Datatyp(siz) R M Lvl/name

     0-0-0/w STRC(180)         1 ETT_

  ****  Section 009 LblCom ST$

  ****  Scalars and arrays  ****
OctLoc.c.b A Datatyp(siz) R M Lvl/name                 OctLoc.c.b A Datatyp(siz) R M Lvl/name

     0-0-0/w PTR         r     1 ST$

  ****  Section 010 LblCom ST_

PL6.E3A0      #003=Z8E7$ROUNDING File=Z8E7.:Z8A6TSI                              SAT 08/09/97 11:45 Page:549
  ****  Scalars and arrays  ****
OctLoc.c.b A Datatyp(siz) R M Lvl/name                 OctLoc.c.b A Datatyp(siz) R M Lvl/name

     0-0-0/w STRC(180)         1 ST_

  ****  Section 011 LblCom LTS$

  ****  Scalars and arrays  ****
OctLoc.c.b A Datatyp(siz) R M Lvl/name                 OctLoc.c.b A Datatyp(siz) R M Lvl/name

     0-0-0/w PTR               1 LONG_ITEM$                 0-0-0/w PTR         r     1 LTS$

  ****  Section 012 LblCom LTS_

  ****  Scalars and arrays  ****
OctLoc.c.b A Datatyp(siz) R M Lvl/name                 OctLoc.c.b A Datatyp(siz) R M Lvl/name

     0-0-0/w STRC(180)         1 LTS_

  ****  Auto variables  ****

  ****  Scalars and arrays  ****
OctLoc.c.b A Datatyp(siz) R M Lvl/name                 OctLoc.c.b A Datatyp(siz) R M Lvl/name

     5-0-0/w PTR         r     1 @ON_SIZE                   3-0-0/w PTR         r     1 @RECEIVING$
     4-0-0/w PTR         r     1 @SENDING$                 14-0-0/w UBIN              1 CN
     6-0-0/w STRC        r     1 DESC                      13-0-0/w SBIN        r     1 LENGTH
    30-0-0/w SBIN        r     1 LENGTH2                   27-0-0/w PTR         r     1 NEL$$
    *0-0-0/w BIT         r     1 ON_SIZE                   *0-0-0/w PTR         r     1 RECEIVING$
    16-0-0/w STRC(144)   r     1 ROP_DESC                  15-0-0/w UBIN              1 SA
    12-0-0/w SBIN        r     1 SCALE                     31-0-0/w SBIN        r     1 SCALE2
    *0-0-0/w PTR         r     1 SENDING$                   7-0-0/w BIT (2)           1 SIGN
    26-0-0/w PTR         r     1 ST$$                      11-0-0/w BIT (2)           1 TA
    10-0-0/w BIT               1 TN                        22-0-0/w STRC(144)   r     1 TYPE_DESC

  ****  SYMREF variables  ****

PL6.E3A0      #003=Z8E7$ROUNDING File=Z8E7.:Z8A6TSI                              SAT 08/09/97 11:45 Page:550
  ****  Scalars and arrays  ****
OctLoc.c.b A Datatyp(siz) R M Lvl/name                 OctLoc.c.b A Datatyp(siz) R M Lvl/name

     0-0-0/d STRC(13248) r     1 COMCOM
     0-0-0/w UBIN              1 LTS_STEP(0:37)

  ****  BASED and DCB variables  ****

  ****  Scalars and arrays  ****
OctLoc.c.b A Datatyp(siz) R M Lvl/name                 OctLoc.c.b A Datatyp(siz) R M Lvl/name

     0-0-0/w STRC(288)         1 ADD_STMT                   0-0-0/w STRC(396)         1 ALPHABET
     0-0-0/w STRC(144)         1 ALTER_LTS                  0-0-0/w STRC(3672)        1 ALT_KEY
     0-0-0/w STRC(36864)       1 ARGLIST                    0-0-0/w STRC(396)         1 ARRAY
     0-0-0/w STRC(180)         1 ARRAY_PRESET_LTS           0-0-0/w ASTR(324)   r     1 BASED_LEX_SYMBOL
     0-0-0/w STRC(360)         1 BASED_LEX_SYMBOL_WORDS
     0-0-0/w STRC(288)         1 BASE_LTS                   0-0-0/w STRC(288)         1 BINARY_OP
     0-0-0/w STRC(396)         1 BLOCK                      0-0-0/w STRC(144)         1 BT
     0-0-0/w STRC(288)         1 CALL_STMT                  0-0-0/w STRC(396)         1 CD
     0-0-0/w STRC(288)         1 CD_LTS                     0-0-0/w CHAR(4096)        1 CHARS
     0-0-0/w STRC(396)         1 CLASS                      0-0-0/w STRC(288)         1 COMPUTE_STMT
     0-0-0/w STRC(396)         1 CONDITION                  0-0-0/w STRC(396)         1 CONST
     0-0-0/w STRC(72)          1 CONT                       0-0-0/w STRC(540)         1 CONTROL_NAME_LTS
     0-0-0/w STRC(1872)        1 COPY_FILE                  0-0-0/w STRC(396)         1 DB
     0-0-0/w STRC(396)         1 DCB_                       0-0-0/w STRC(288)         1 DEFERED_IDENTIFIER
     0-0-0/w STRC(252)         1 DEFERED_ID_TREE            0-0-0/w STRC(288)         1 DEFERED_QUAL_ID
     0-0-0/w STRC(288)         1 DEFERED_SUM_CLAUSE
     0-0-0/w STRC(288)         1 DEFERED_SUM_CLAUSE_LIST
     0-0-0/w STRC(288)         1 DELETE_STMT                0-0-0/w STRC(108)         1 DEPENDING_SIZE
     0-0-0/w STRC(5472)        1 DIMS                       0-0-0/w STRC(288)         1 DIVIDE_STMT
     0-0-0/w STRC(396)         1 DML_ITEM                   0-0-0/w STRC(216)         1 DML_REC
     0-0-0/w STRC(180)   r     1 ETT                        0-0-0/w STRC(73836)       1 EVALUATE
     0-0-0/w STRC(396)         1 FD                         0-0-0/w STRC(1692)        1 FILE_LTS
     0-0-0/w STRC(288)         1 ILS_LIST                   0-0-0/w STRC(108)         1 INDEXES
     0-0-0/w STRC(360)         1 INIT_LTS                   0-0-0/w STRC(288)         1 INSPECT_1_STMT
     0-0-0/w STRC(288)         1 INSPECT_2_STMT             0-0-0/w STRC(288)         1 INSPECT_4_STMT
     0-0-0/w STRC(396)         1 INTDEF                     0-0-0/w STRC(180)         1 IO_RESTORE_CHAIN
PL6.E3A0      #003=Z8E7$ROUNDING File=Z8E7.:Z8A6TSI                              SAT 08/09/97 11:45 Page:551
     0-0-0/w STRC(144)         1 KEY                        0-0-0/w STRC(396)         1 LABEL
     0-0-0/w STRC(288)         1 LA_ITEM                    0-0-0/w STRC(36864)       1 LCNST
     0-0-0/w STRC(72)    r     1 LONG                       0-0-0/w STRC        r     1 LTS
     0-0-0/w STRC(360)   r     1 LTSS                       0-0-0/w STRC(36936)       1 LTS_PTR_ARRAY
     0-0-0/w STRC(504)         1 LX_CD_INPUT                0-0-0/w STRC(324)         1 LX_CD_I_O
     0-0-0/w STRC(396)         1 LX_CD_OUTPUT               0-0-0/w STRC(288)   r     1 LX_ETT_ITEM
     0-0-0/w STRC(288)   r     1 LX_ITEM                    0-0-0/w STRC(288)         1 LX_LARGE
     0-0-0/w STRC(288)         1 LX_LIST                    0-0-0/w STRC(1224)        1 LX_REC_DECL
     0-0-0/w STRC(864)         1 LX_REPORT_REC              0-0-0/w STRC(288)         1 LX_TERMINAL
     0-0-0/w STRC(396)         1 MNEMONIC                   0-0-0/w STRC(288)         1 MULTIPLY_STMT
     0-0-0/w STRC(144)   r     1 NEL                        0-0-0/w STRC(216)         1 OPEN_LTS
     0-0-0/w STRC(36864)       1 PAGE                       0-0-0/w STRC(396)         1 PARA
     0-0-0/w STRC(144)         1 PRIME                      0-0-0/w STRC(396)         1 PROC_
     0-0-0/w STRC(396)         1 PROC_DEF                   0-0-0/w STRC(900)         1 PROC_SUPP
     0-0-0/w STRC(396)         1 RD                         0-0-0/w STRC(288)         1 READ_STMT
     0-0-0/w STRC(216)         1 REF                        0-0-0/w STRC(108)         1 RENAMES
     0-0-0/w STRC(720)         1 REPORT_01_LTS              0-0-0/w STRC(432)         1 REPORT_ELEM_LTS
     0-0-0/w STRC(252)         1 REPORT_GRP_LTS             0-0-0/w STRC(1332)        1 REPORT_LTS
     0-0-0/w STRC(288)         1 REWRITE_STMT               0-0-0/w STRC(144)         1 RVA_LTS
     0-0-0/w STRC(396)   r     1 SCALAR                     0-0-0/w STRC(396)         1 SD
     0-0-0/w STRC(396)         1 SECTION                    0-0-0/w STRC(396)         1 SEGMENT
     0-0-0/w STRC(360)         1 SEGMENT_LTS                0-0-0/w STRC(396)         1 ST
     0-0-0/w STRC(288)         1 START_STMT                 0-0-0/w STRC(252)         1 STRING_STMT
     0-0-0/w STRC(288)         1 SUBTRACT_STMT              0-0-0/w STRC(252)         1 SUM_LTS
     0-0-0/w STRC(396)         1 SWITCH                     0-0-0/w STRC(396)         1 SYMBOLIC_CHAR
     0-0-0/w STRC(396)         1 SYMDEF_                    0-0-0/w STRC(396)         1 SYMREF_
     0-0-0/w STRC(396)         1 TEMP                       0-0-0/w STRC(288)         1 UNARY_OP
     0-0-0/w STRC(288)         1 UNSTRING_STMT              0-0-0/d STRC(612)         1 USE
     0-0-0/w STRC(252)         1 USE_SUPP                   0-0-0/w STRC(396)   r     1 VARIABLE
     0-0-0/w STRC(288)         1 WRITE_STMT


   Procedure Z8E7$ROUNDING requires 775 words for executable code.
   Procedure Z8E7$ROUNDING requires 32 words of local(AUTO) storage.

