PL6.E3A0      #004=Z8E7$EDITED File=Z8E7.:Z8A6TSI                                SAT 08/09/97 11:48 Page:552
     3253        1        /*T***********************************************************/
     3254        2        /*T*                                                         */
     3255        3        /*T* Copyright (c) Bull HN Information Systems Inc., 1997    */
     3256        4        /*T*                                                         */
     3257        5        /*T***********************************************************/
     3258        6        /*===========*/
     3259        7          Z8E7$EDITED: PROC (RECEIVING$, SENDING$, ON_SIZE) ALTRET;
     3260        8        /*===========*/
     3261        9
     3262       10    1        DCL RECEIVING$      PTR;
     3263       11    1        DCL SENDING$        PTR;
     3264       12
     3265       13
     3266       14             %EQU PHASE = 1;
     3267       15             %INCLUDE Z8A_DEFC;
     3268       83             %INCLUDE Z8A_SUPP_MAC;
     3269     2483             %INCLUDE Z8A_COMCOM;
     3270     3133             %INCLUDE Z8E_STACKS;
     3271     5399             %INCLUDE Z8E_MACROS;
     3272     6074             %INCLUDE Z8A_TYPES;
     3273     6248             %INCLUDE Z8E_O1COM;
     3274     7009             %INCLUDE Z8E_WINDOW;
     3275     9079             %INCLUDE Z8E_ABSSYN;
     3276     9285             %INCLUDE Z8A_DESC;
     3277     9331             %INCLUDE Z8A_ILL;
     3278    10024             %INCLUDE Z8A_LTS;
     3279    12101             %INCLUDE Z8A_ETT;
     3280    12402             %INCLUDE Z8A_DNT;
     3281    12623             %INCLUDE Z8A_LIBRARY;
     3282    12837             %INCLUDE Z8A_ST;
     3283    16496
     3284    16497    1        DCL 1 TYPE_DESC     ALIGNED,
     3285    16498                   %TYPE_DESC;
     3286    16532
     3287    16533    1        DCL 1 LOP_DESC ALIGNED,
     3288    16534                   %TYPE_DESC;
     3289    16568
PL6.E3A0      #004=Z8E7$EDITED File=Z8E7.:Z8A6TSI                                SAT 08/09/97 11:48 Page:553
     3290    16569    1        DCL 1 ROP_DESC ALIGNED,
     3291    16570                   %TYPE_DESC;
     3292    16604
     3293    16605    1        DCL 1 TEMP_DESC     ALIGNED,
     3294    16606                   %TYPE_DESC;
     3295    16640
     3296    16641    1        DCL ON_SIZE       BIT (1) ALIGNED;
     3297    16642             %DCL_AUTO_LX_ITEM  (@NAME = TEMP_LX_ETT_ITEM);
     3298    16646             %DCL_AUTO_LX_ITEM  (@NAME = ASCII_LX_ETT_ITEM);
     3299    16650
     3300    16651    1        DCL TEMP$          PTR;
     3301    16652
     3302    16653    1        DCL LOP_LENGTH     SBIN WORD;
     3303    16654    1        DCL LOP_SCALE      SBIN WORD;
     3304    16655
     3305    16656    1        DCL ROP_LENGTH     SBIN WORD;
     3306    16657    1        DCL ROP_SCALE      SBIN WORD;
     3307    16658
     3308    16659    1        DCL LOP_ST$        PTR;
     3309    16660    1        DCL ROP_ST$        PTR;
     3310    16661
     3311    16662    1        DCL NEL$$          PTR;
     3312    16663    1        DCL CONV_RECEIVING$ PTR;
     3313    16664    1        DCL TABLE_ETT$     PTR;
     3314    16665    1        DCL EXIT_LABEL$    PTR;
     3315    16666    1        DCL CONST_BUF     CHAR (63);
     3316    16667    1        DCL ADDR_LIT$     PTR;
     3317    16668    1        DCL BASED$LIT     CHAR (ROP_LENGTH) BASED (ADDR_LIT$);
     3318    16669    1        DCL I             SBIN;
     3319    16670
     3320    16671    1        DCL Z8EU$NEW_TEMP_FROM_DESC          ENTRY(2);
     3321    16672    1        DCL Z8AU$TYPE_DESCRIPTOR             ENTRY(2);
     3322    16673    1        DCL Z8EC$CREATE_CONST                ENTRY(3) ALTRET;
     3323    16674    1        DCL Z8EC$NEW_CONST_WITH_TYPE_DESC ENTRY (3) ALTRET;
     3324    16675    1        DCL Z8AC$LX_ETT_ITEM_TYI_CONST       ENTRY(2);
     3325    16676    1        DCL Z8AF$FORME_ON_SIZE               ENTRY(5);
     3326    16677    1        DCL Z8AF$FORME                       ENTRY (4);
PL6.E3A0      #004=Z8E7$EDITED File=Z8E7.:Z8A6TSI                                SAT 08/09/97 11:48 Page:554
     3327    16678    1        DCL Z8AH$SEARCH_  ENTRY;
     3328    16679    1        DCL Z8AT$CREATE_TEMPORARY            ENTRY(2);
     3329    16680    1        DCL Z8CO$CREATE_LIBRARY_BASE         ENTRY(2);
     3330    16681    1        DCL Z8EK$BRANCH                      ENTRY(1);
     3331    16682    1        DCL Z8EK$BRANCH_FALSE                ENTRY(2);
     3332    16683    1        DCL Z8EV$CONVERT_ON_SIZE             ENTRY(4);
     3333    16684    1        DCL Z8E7$MOVE                        ENTRY(2);
     3334    16685    1        DCL Z8E7$RESTRICTED_MOVE             ENTRY(2);
     3335    16686
     3336    16687        %EJECT;
PL6.E3A0      #004=Z8E7$EDITED File=Z8E7.:Z8A6TSI                                SAT 08/09/97 11:48 Page:555
     3337    16688        /*================*/
     3338    16689    1     ASTERISK_SUPRESS: PROC (LOP$$, ROP$$, NEL$$, EXIT_LABEL$);
     3339    16690        /*================*/
     3340    16691
     3341    16692    2        DCL LOP$$         PTR;
     3342    16693    2        DCL ROP$$         PTR;
     3343    16694    2        DCL NEL$$         PTR;
     3344    16695
     3345    16696    2        DCL PIC_CONST$    PTR;
     3346    16697    2        DCL REG_MVNE$     PTR;
     3347    16698    2        DCL EXIT_LABEL$   PTR;
     3348    16699
     3349    16700             %DCL_AUTO_LX_ITEM (@NAME = UNARY_ZERO);
     3350    16704             %DCL_AUTO_LX_ITEM (@NAME = ASTERISK);
     3351    16708
     3352    16709
     3353    16710        %EJECT;
PL6.E3A0      #004=Z8E7$EDITED File=Z8E7.:Z8A6TSI                                SAT 08/09/97 11:48 Page:556
     3354    16711        /*========================*/
     3355    16712    2     CONVERT_PICTURE_TO_STARS: PROC (PIC_DNT$, RETURN_ETT$);
     3356    16713        /*========================*/
     3357    16714
     3358    16715             %EQU ASTERISKS    = '******************************';
     3359    16716
     3360    16717    3        DCL PIC_DNT$      PTR;
     3361    16718    3        DCL RETURN_ETT$   PTR;
     3362    16719
     3363    16720    3        DCL BUFFER        CHAR (30); /*V* MAX LENGTH OF PIC STR */
     3364    16721    3        DCL SELECTION     CHAR (1);
     3365    16722    3        DCL SELECTION_NDX SBIN;
     3366    16723
     3367    16724    3        DCL Z8AC$MAKE_TYA_CONST  ENTRY (4);
     3368    16725
     3369    16726
     3370    16727    3        BUFFER = %ASTERISKS;
     3371    16728
     3372    16729    3        IF O1COM.CURRENT_PROC$ -> PROC_.B.COMMA_IS_DECIMAL THEN
     3373    16730    3          SELECTION = ',';
     3374    16731    3        ELSE
     3375    16732    3          SELECTION = '.';
     3376    16733
     3377    16734    3        CALL INDEX (SELECTION_NDX, SELECTION, PIC_DNT$ -> DNT.TEXT.NAME);
     3378    16735
     3379    16736    3        IF SELECTION_NDX ~= PIC_DNT$ -> DNT.TEXT.LENGTH THEN
     3380    16737    3          SUBSTR (BUFFER, SELECTION_NDX, 1) = SELECTION;
     3381    16738
     3382    16739    3        CALL Z8AC$MAKE_TYA_CONST (BUFFER,
     3383    16740    3                                  BINBIT (PIC_DNT$ -> DNT.TEXT.LENGTH,36),
     3384    16741    3                                  0,
     3385    16742    3                                  RETURN_ETT$);
     3386    16743
     3387    16744    3   END CONVERT_PICTURE_TO_STARS;
     3388    16745        %EJECT;
PL6.E3A0      #004=Z8E7$EDITED File=Z8E7.:Z8A6TSI                                SAT 08/09/97 11:48 Page:557
     3389    16746
     3390    16747             %INIT_UNARY_OP (@POINTER = "ADDR(UNARY_ZERO)",
     3391    16748                             @OP      = %OP_ZERO,
     3392    16749                             @LOP$    = ROP$$,
     3393    16750                             @LINE    = ROP$$ -> LX_ETT_ITEM.LINE,
     3394    16751                             @COLUMN  = ROP$$ -> LX_ETT_ITEM.COLUMN);
     3395    16768
     3396    16769    2        CALL Z8AT$CREATE_TEMPORARY (%PARA, REG_MVNE$);
     3397    16770
     3398    16771    2        CALL Z8EK$BRANCH_FALSE (REG_MVNE$, ADDR(UNARY_ZERO));
     3399    16772
     3400    16773    2        CALL CONVERT_PICTURE_TO_STARS (NEL$$ -> NEL.DNT$, PIC_CONST$);
     3401    16774
     3402    16775             %INIT_LX_ETT_ITEM (@POINTER = "ADDR(ASTERISK)",
     3403    16776                                @TYPE    = %TYA,
     3404    16777                                @ETT$    = PIC_CONST$,
     3405    16778                                @LINE    = LOP$$ -> LX_ETT_ITEM.LINE,
     3406    16779                                @COLUMN  = LOP$$ -> LX_ETT_ITEM.COLUMN);
     3407    16801
     3408    16802    2        CALL Z8E7$RESTRICTED_MOVE (LOP$$, ADDR(ASTERISK));
     3409    16803
     3410    16804    2        CALL Z8AT$CREATE_TEMPORARY (%PARA, EXIT_LABEL$);
     3411    16805
     3412    16806    2        CALL Z8EK$BRANCH (EXIT_LABEL$);
     3413    16807
     3414    16808             %NEW_ILL (@ID     = %DEFLB,
     3415    16809                       @LABEL$ = REG_MVNE$);
     3416    17188
     3417    17189    2   END ASTERISK_SUPRESS;
     3418    17190        %EJECT;
PL6.E3A0      #004=Z8E7$EDITED File=Z8E7.:Z8A6TSI                                SAT 08/09/97 11:48 Page:558
     3419    17191    1        IF  RECEIVING$ -> LX_ETT_ITEM.ID = %LX_ETT_ITEM
     3420    17192    1        AND RECEIVING$ -> LX_ETT_ITEM.B.REFMOD THEN
     3421    17193    1          RETURN; /*V* Type is %TYA, no longer edited */
     3422    17194
     3423    17195             %FISH(TRIAD = RECEIVING$ -> LX_ETT_ITEM.ETT$, RTN = LOP_ST$);
     3424    17203
     3425    17204    1        CONV_RECEIVING$ = RECEIVING$; /* In case EBCDIC or GBCD */
     3426    17205    2        IF LOP_ST$ -> VARIABLE.B.SUB_CLASS.EDITED THEN DO;
     3427    17206    3          DO CASE(LOP_ST$ -> VARIABLE.B.SUB_CLASS.TYPE);
     3428    17207    3            CASE(%CLASS_NUMERIC);
     3429    17208    3              IF LOP_ST$ -> VARIABLE.TYPE = %TYB THEN
     3430    17209    4                DO;
     3431    17210    4                  TEMP_DESC.DESC.DESCL = LOP_ST$ -> VARIABLE.DESCL;
     3432    17211    4                  TEMP_DESC.DESC.ADSC.TA = %ADSC9;
     3433    17212    4                  TEMP_DESC.TYPE = %TYD;
     3434    17213    4                  TEMP_DESC.SIZ$ = ADDR(NIL);
     3435    17214    4                  TEMP_DESC.SSOP$ = ADDR(NIL);
     3436    17215
     3437    17216    4                  RECEIVING$ = ADDR (ASCII_LX_ETT_ITEM);
     3438    17217    4                  CALL Z8EU$NEW_TEMP_FROM_DESC(TEMP_DESC, RECEIVING$);
     3439    17218    4                END;
     3440    17219
     3441    17220    3              CALL Z8EV$CONVERT_ON_SIZE (%TYD, SENDING$, SENDING$, ON_SIZE);
     3442    17221
     3443    17222                   %GET_LTS(@ID    = %NEL ,
     3444    17223                            @ST$   = LOP_ST$ ,
     3445    17224                            @RETURN$ = NEL$$ );
     3446    17267
     3447    17268    3              IF LOP_ST$ -> SCALAR.B.ASTERISK_SUPRESS THEN
     3448    17269    3                CALL ASTERISK_SUPRESS (RECEIVING$,
     3449    17270    3                                       SENDING$,
     3450    17271    3                                       NEL$$,
     3451    17272    3                                       EXIT_LABEL$);
     3452    17273
     3453    17274    3              LOP_DESC.DESC = NEL$$ -> NEL.DESC;
     3454    17275    3              LOP_DESC.DESC.NDSC.TN = %NDSC4;
     3455    17276
PL6.E3A0      #004=Z8E7$EDITED File=Z8E7.:Z8A6TSI                                SAT 08/09/97 11:48 Page:559
     3456    17277    3              CALL Z8AU$TYPE_DESCRIPTOR(SENDING$ -> LX_ETT_ITEM.ETT$, ROP_DESC);
     3457    17278
     3458    17279                   %UNPACK_NDSC(@DESC     = LOP_DESC.DESC ,
     3459    17280                                @LENGTH   = LOP_LENGTH ,
     3460    17281                                @SCALE    = LOP_SCALE );
     3461    17336
     3462    17337    3              TEMP$ = SENDING$ -> LX_ETT_ITEM.ETT$;
     3463    17338
     3464    17339    3              IF SENDING$ -> LX_ETT_ITEM.B.ALL AND
     3465    17340    3                  SENDING$ -> LX_ITEM.SYMBOL ~= %RSV_WRD_ZEROES THEN
     3466    17341    4                DO;
     3467    17342    4                  ROP_LENGTH = ROP_DESC.DESC.ADSC.N; /* ADSC9 descriptor */
     3468    17343                       %GET_CONSTANT_ADDRESS (@CONSTANT = TEMP$ -> ETT.LOP,
     3469    17344                                              @STRING   = ADDR_LIT$);
     3470    17352    4                  I = MOD (LOP_LENGTH, ROP_LENGTH);
     3471    17353    4                  IF I > 0 THEN
     3472    17354    4                    CALL INSERT (CONST_BUF, 0, I, SUBSTR (BASED$LIT, ROP_LENGTH - I));
     3473    17355    5                  DO WHILE I < LOP_LENGTH;
     3474    17356    5                    CALL INSERT (CONST_BUF, I, ROP_LENGTH, BASED$LIT);
     3475    17357    5                    I = I + ROP_LENGTH;
     3476    17358    5                  END;
     3477    17359    4                  IF LOP_DESC.DESC.NDSC.SF < 0 THEN /* Zero out fractional digits */
     3478    17360    4                    IF LOP_LENGTH + LOP_DESC.DESC.NDSC.SF <= 0 THEN
     3479    17361    5                      DO;
     3480    17362    5                        LOP_LENGTH = 1;
     3481    17363    5                        CALL INSERT (CONST_BUF, 0, 1, '0');
     3482    17364    5                      END;
     3483    17365    4                    ELSE
     3484    17366    4                      LOP_LENGTH = LOP_LENGTH + LOP_DESC.DESC.NDSC.SF;
     3485    17367    4                  LEX_SYMBOL.SIZE = LOP_LENGTH;
     3486    17368    4                  LEX_SYMBOL.SYMBOL = CONST_BUF;
     3487    17369    4                  CALL Z8AH$SEARCH_;
     3488    17370                       %INIT_LX_TERMINAL (@POINTER = "ADDR(TEMP_LX_ETT_ITEM)",
     3489    17371                                          @TYPE    = %TYD,
     3490    17372                                          @SYMBOL  = %NUMERIC_LITERAL,
     3491    17373                                          @DNT$    = DNT$);
     3492    17391    4                  LOP_DESC.TYPE = %TYD;
PL6.E3A0      #004=Z8E7$EDITED File=Z8E7.:Z8A6TSI                                SAT 08/09/97 11:48 Page:560
     3493    17392    4                  CALL Z8EC$NEW_CONST_WITH_TYPE_DESC (LOP_DESC,
     3494    17393    4                                                      ADDR (TEMP_LX_ETT_ITEM),
     3495    17394    4                                                      TEMP$);
     3496    17395    4                END;
     3497    17396    3              ELSE
     3498    17397    4                DO;
     3499    17398                       %UNPACK_NDSC(@DESC     = ROP_DESC.DESC ,
     3500    17399                                    @LENGTH   = ROP_LENGTH ,
     3501    17400                                    @SCALE    = ROP_SCALE );
     3502    17455
     3503    17456    4                  IF LOP_LENGTH ~= ROP_LENGTH
     3504    17457    4                  OR LOP_SCALE  ~= ROP_SCALE  THEN
     3505    17458    5                    DO;
     3506    17459    5                      CALL Z8AF$FORME_ON_SIZE ( %CVDD ,
     3507    17460    5                                               TEMP$ ,
     3508    17461    5                                               LOP_DESC.DESC ,
     3509    17462    5                                               TEMP$ ,
     3510    17463    5                                               ON_SIZE);
     3511    17464    5                    END;
     3512    17465    4                END;
     3513    17466
     3514    17467                   %NEW_ILL( @ID      = %MVEDD ,
     3515    17468                             @FROM    = TEMP$ ,
     3516    17469                             @MOP     = NEL$$ -> NEL.MOP$ ,
     3517    17470                             @TO      = RECEIVING$ -> LX_ETT_ITEM.ETT$ );
     3518    17849
     3519    17850    3              IF LOP_ST$ -> SCALAR.B.ASTERISK_SUPRESS THEN
     3520    17851                     %NEW_ILL (@ID      = %DEFLB,
     3521    17852                               @LABEL$  = EXIT_LABEL$);
     3522    18231
     3523    18232    3            CASE(%CLASS_ALPHANUMERIC, %CLASS_ALPHABETIC);
     3524    18233          /*V*  CLASS_ALPHABETIC is needed for PIC string ABA etc. with the COBOL74 opt */
     3525    18234
     3526    18235    3              IF LOP_ST$ -> VARIABLE.B.SUB_CLASS.TYPE = %CLASS_ALPHABETIC
     3527    18236    3                      AND   NOT  COMCOM.OB.COBOL_74        THEN
     3528    18237    3                 RETURN;
     3529    18238
PL6.E3A0      #004=Z8E7$EDITED File=Z8E7.:Z8A6TSI                                SAT 08/09/97 11:48 Page:561
     3530    18239
     3531    18240    3              CALL Z8EV$CONVERT_ON_SIZE (%TYA, SENDING$, SENDING$, ON_SIZE);
     3532    18241
     3533    18242    3              CALL Z8AU$TYPE_DESCRIPTOR (RECEIVING$ -> LX_ETT_ITEM.ETT$,
     3534    18243    3                                         TYPE_DESC);
     3535    18244
     3536    18245    3              IF TYPE_DESC.TYPE = %TYB THEN
     3537    18246    4                DO;
     3538    18247    4                  TEMP_DESC.DESC = TYPE_DESC.DESC;
     3539    18248    4                  TEMP_DESC.DESC.ADSC.TA = %ADSC9;
     3540    18249    4                  TEMP_DESC.TYPE = %TYA;
     3541    18250    4                  TEMP_DESC.SIZ$ = ADDR(NIL);
     3542    18251    4                  TEMP_DESC.SSOP$ = ADDR(NIL);
     3543    18252
     3544    18253    4                  RECEIVING$ = ADDR(ASCII_LX_ETT_ITEM);
     3545    18254    4                  CALL Z8EU$NEW_TEMP_FROM_DESC (TEMP_DESC, RECEIVING$);
     3546    18255    4                END;
     3547    18256
     3548    18257    3              IF (TYPE_DESC.SIZ$ ~= ADDR(NIL)
     3549    18258    3              OR TYPE_DESC.DESC.ADSC.N > 63)
     3550    18259    3              AND  (SENDING$ -> LX_ETT_ITEM.B.ALL = %FALSE)  THEN
     3551    18260    3                CALL LONG_ALPHANUMERIC_EDITED (SENDING$, RECEIVING$);
     3552    18261    3              ELSE
     3553    18262    4   SHORT_LOP:   DO;
     3554    18263
     3555    18264                       %GET_LTS( @ID      = %NEL ,
     3556    18265                                 @ST$     = LOP_ST$ ,
     3557    18266                                 @RETURN$ = NEL$$ );
     3558    18309
     3559    18310    4                  LOP_DESC.DESC = NEL$$ -> NEL.DESC;
     3560    18311
     3561    18312    4                  CALL Z8AU$TYPE_DESCRIPTOR (SENDING$ -> LX_ETT_ITEM.ETT$, ROP_DESC);
     3562    18313
     3563    18314                       %UNPACK_ADSC (@DESC    = ROP_DESC.DESC,
     3564    18315                                     @LENGTH  = ROP_LENGTH);
     3565    18338
     3566    18339                       %UNPACK_ADSC (@DESC    = LOP_DESC.DESC,
PL6.E3A0      #004=Z8E7$EDITED File=Z8E7.:Z8A6TSI                                SAT 08/09/97 11:48 Page:562
     3567    18340                                     @LENGTH  = LOP_LENGTH);
     3568    18363
     3569    18364    4                  IF LOP_LENGTH ~= ROP_LENGTH THEN
     3570    18365    5                    DO;
     3571    18366    5                      IF SENDING$ -> LX_ETT_ITEM.B.ALL THEN
     3572    18367    6                        DO;
     3573    18368    6                          TEMP_DESC.DESC = LOP_DESC.DESC;
     3574    18369    6                          TEMP_DESC.TYPE = %TYA;
     3575    18370    6                          TEMP_DESC.SIZ$ = ADDR(NIL);
     3576    18371    6                          TEMP_DESC.SSOP$= ADDR(NIL);
     3577    18372
     3578    18373    6                          TEMP$ = ADDR(TEMP_LX_ETT_ITEM);
     3579    18374
     3580    18375    6                          CALL Z8EU$NEW_TEMP_FROM_DESC (TEMP_DESC, TEMP$);
     3581    18376
     3582    18377    6                          TEMP$ -> LX_ETT_ITEM.B = RECEIVING$ -> LX_ETT_ITEM.B;
     3583    18378
     3584    18379    6                          CALL Z8E7$MOVE (TEMP$, SENDING$);
     3585    18380
     3586    18381    6                          SENDING$ = TEMP$;
     3587    18382
     3588    18383    6                          IF TYPE_DESC.SIZ$ ~= ADDR(NIL) OR
     3589    18384    6                             TYPE_DESC.DESC.ADSC.N > 63     THEN
     3590    18385    7                            DO;
     3591    18386    7                              CALL LONG_ALPHANUMERIC_EDITED( SENDING$, RECEIVING$ );
     3592    18387    7                              EXIT SHORT_LOP;
     3593    18388    7                            END;
     3594    18389
     3595    18390    6                        END;
     3596    18391    5                      ELSE
     3597    18392    5                        CALL Z8AF$FORME_ON_SIZE (%CVAA,
     3598    18393    5                                                 SENDING$ -> LX_ETT_ITEM.ETT$,
     3599    18394    5                                                 LOP_DESC.DESC,
     3600    18395    5                                                 SENDING$ -> LX_ETT_ITEM.ETT$, ON_SIZE)
             18395                                                          ;
     3601    18396    5                    END;
     3602    18397
PL6.E3A0      #004=Z8E7$EDITED File=Z8E7.:Z8A6TSI                                SAT 08/09/97 11:48 Page:563
     3603    18398
     3604    18399                       %NEW_ILL( @ID      = %MVEAN ,
     3605    18400                                 @FROM    = SENDING$ -> LX_ETT_ITEM.ETT$ ,
     3606    18401                                 @MOP     = NEL$$ -> NEL.MOP$ ,
     3607    18402                                 @TO      = RECEIVING$ -> LX_ETT_ITEM.ETT$ );
     3608    18781    4                END; /* SHORT_LOP */
     3609    18782
     3610    18783    3          END;
     3611    18784
     3612    18785    2          IF LOP_ST$ -> VARIABLE.TYPE = %TYB OR LOP_ST$ -> VARIABLE.TYPE = %TYE THEN
     3613    18786    3            DO;
     3614    18787    3              IF LOP_ST$ -> VARIABLE.TYPE = %TYB THEN
     3615    18788    3                CALL Z8CO$CREATE_LIBRARY_BASE (%OP_ASCII_TO_GBCD, TABLE_ETT$);
     3616    18789    3              ELSE
     3617    18790    3                CALL Z8CO$CREATE_LIBRARY_BASE (%OP_ASCII_TO_EBCDIC, TABLE_ETT$);
     3618    18791                   %NEW_ILL (@ID    = %MVT,
     3619    18792                             @FROM  = RECEIVING$ -> LX_ETT_ITEM.ETT$,
     3620    18793                             @TABLE = TABLE_ETT$,
     3621    18794                             @TO    = CONV_RECEIVING$ -> LX_ETT_ITEM.ETT$);
     3622    19173    3            END;
     3623    19174    2          ALTRETURN;
     3624    19175    2        END;
     3625    19176        %EJECT;
PL6.E3A0      #004=Z8E7$EDITED File=Z8E7.:Z8A6TSI                                SAT 08/09/97 11:48 Page:564
     3626    19177        /*========================*/
     3627    19178    1     LONG_ALPHANUMERIC_EDITED: PROC (ROP$, LOP$);
     3628    19179        /*========================*/
     3629    19180
     3630    19181    2   DCL ROP$               PTR;
     3631    19182    2   DCL LOP$               PTR;
     3632    19183
     3633    19184    2   DCL 1 TYPE_DESC        ALIGNED,
     3634    19185             %TYPE_DESC;
     3635    19219
     3636    19220    2   DCL 1 DESC_BLK         ALIGNED,
     3637    19221    2        2 SEND            UBIN WORD UNAL,
     3638    19222    2        2 REC             UBIN WORD UNAL,
     3639    19223    2        2 PIC             UBIN WORD UNAL;
     3640    19224
     3641    19225    2   DCL CHAR_DESC_BLK      REDEF DESC_BLK CHAR (12);
     3642    19226
     3643    19227    2   DCL CONST$             PTR;
     3644    19228    2   DCL LCNST$             PTR;
     3645    19229    2   DCL PIC$               PTR;
     3646    19230    2   DCL NEL$$              PTR;
     3647    19231
     3648    19232        %DCL_AUTO_LX_ITEM      (@NAME = PIC_STR);
     3649    19236
     3650    19237        %EJECT;
PL6.E3A0      #004=Z8E7$EDITED File=Z8E7.:Z8A6TSI                                SAT 08/09/97 11:48 Page:565
     3651    19238
     3652    19239
     3653    19240    2      CALL Z8AU$TYPE_DESCRIPTOR (ROP$ -> LX_ETT_ITEM.ETT$, TYPE_DESC);
     3654    19241
     3655    19242    2      IF TYPE_DESC.SIZ$ ~= ADDR(NIL) THEN
     3656    19243    2        DESC_BLK.SEND = TYPE_DESC.SIZ$ -> ETT.LOP -> CONST.CONSTI.WORD1;
     3657    19244    2      ELSE
     3658    19245    2        DESC_BLK.SEND = TYPE_DESC.DESC.ADSC.N;
     3659    19246
     3660    19247    2      CALL Z8AU$TYPE_DESCRIPTOR (LOP$ -> LX_ETT_ITEM.ETT$, TYPE_DESC);
     3661    19248
     3662    19249    2      IF TYPE_DESC.SIZ$ ~= ADDR(NIL) THEN
     3663    19250    2        DESC_BLK.REC = TYPE_DESC.SIZ$ -> ETT.LOP -> CONST.CONSTI.WORD1;
     3664    19251    2      ELSE
     3665    19252    2        DESC_BLK.REC = TYPE_DESC.DESC.ADSC.N;
     3666    19253
     3667    19254           %GET_LTS (@ID     = %NEL,
     3668    19255                     @ST$    = LOP_ST$,
     3669    19256                     @RETURN$ = NEL$$);
     3670    19299
     3671    19300    2      DESC_BLK.PIC = NEL$$ -> NEL.DNT$ -> DNT.TEXT.LENGTH;
     3672    19301
     3673    19302           %NEW_CONST (@ST$    = CONST$,
     3674    19303                       @TYPE   = %TYA,
     3675    19304                       @LONG_CONSTANT = TRUE);
     3676    19345
     3677    19346           %NEW_LCNST (@POINTER= LCNST$,
     3678    19347                       @SIZE   = "3 + 1",
     3679    19348                       @CONST  = CHAR_DESC_BLK);
     3680    19441
     3681    19442    2      CONST$ -> CONST.CONST$.PTR$ = LCNST$;
     3682    19443
     3683    19444    2      CALL Z8AF$FORME (%TRIAD, CONST$, ADDR(NIL), CONST$);
     3684    19445
     3685    19446           %INIT_LX_TERMINAL (@POINTER = "ADDR(PIC_STR)",
     3686    19447                              @SYMBOL  = %PICTURE_STRING,
     3687    19448                              @DNT$    = NEL$$ -> NEL.DNT$);
PL6.E3A0      #004=Z8E7$EDITED File=Z8E7.:Z8A6TSI                                SAT 08/09/97 11:48 Page:566
     3688    19466
     3689    19467    2      CALL Z8EC$CREATE_CONST (%TYA, ADDR(PIC_STR), PIC$);
     3690    19468
     3691    19469           %NEW_ILL (@ID   = %MVEAL,
     3692    19470                     @LOP  = ROP$ -> LX_ETT_ITEM.ETT$,
     3693    19471                     @ROP  = PIC$,
     3694    19472                     @DESCRIPTOR$= CONST$,
     3695    19473                     @TO   = LOP$ -> LX_ETT_ITEM.ETT$);
     3696    19852
     3697    19853    2   END LONG_ALPHANUMERIC_EDITED;
     3698    19854        %EJECT;
PL6.E3A0      #004=Z8E7$EDITED File=Z8E7.:Z8A6TSI                                SAT 08/09/97 11:48 Page:567
     3699    19855    1   END Z8E7$EDITED;

PL6.E3A0      #004=Z8E7$EDITED File=Z8E7.:Z8A6TSI                                SAT 08/09/97 11:48 Page:568
--  Include file information  --

   Z8A_ST.:Z8A6TOU  cannot be made into a system file and is referenced.
   Z8A_LIBRARY.:Z8A6TOU  cannot be made into a system file and is referenced.
   Z8A_DNT.:Z8A6TOU  cannot be made into a system file and is referenced.
   Z8A_ETT.:Z8A6TOU  cannot be made into a system file and is referenced.
   Z8A_LTS.:Z8A6TOU  cannot be made into a system file and is referenced.
   Z8A_ILL.:Z8A6TOU  cannot be made into a system file and is referenced.
   Z8A_DESC.:Z8A6TOU  cannot be made into a system file and is referenced.
   Z8E_ABSSYN.:Z8A6TOU  cannot be made into a system file and is referenced.
   Z8E_WINDOW.:Z8A6TOU  is referenced.
   Z8E_O1COM.:Z8A6TOU  cannot be made into a system file and is referenced.
   Z8A_TYPES.:Z8A6TOU  is referenced.
   Z8E_NEW_ILL.:Z8A6TOU  is referenced.
   Z8E_MACROS.:Z8A6TOU  cannot be made into a system file and is referenced.
   Z8A_LEX_SYMB.:Z8A6TOU  cannot be made into a system file and is referenced.
   Z8E_STACKS.:Z8A6TOU  cannot be made into a system file and is referenced.
   Z8A_COMCOM.:Z8A6TOU  cannot be made into a system file and is referenced.
   X8A_COM_MACS.:X8A6TOU  is referenced.
   Z8A_NAMES.:Z8A6TOU  is referenced.
   Z8A_SUPP_MAC.:Z8A6TOU  is referenced.
   Z8A_DEFC.:Z8A6TOU  cannot be made into a system file and is referenced.
      No diagnostics issued in procedure Z8E7$EDITED.

   Procedure Z8E7$EDITED requires 989 words for executable code.
   Procedure Z8E7$EDITED requires 130 words of local(AUTO) storage.

    No errors detected in file Z8E7.:Z8A6TSI    .

PL6.E3A0      #004=Z8E7$EDITED File=Z8E7.:Z8A6TSI                                SAT 08/09/97 11:48 Page:569

 Object Unit name= Z8E7$EDITED                                File name= Z8E7.:Z8A6TOU
 UTS= AUG 09 '97 11:48:22.00 SAT                              Compiler= PL-6/E31         Sev=      00
 SharedLib= :SHARED_SYSTEM                                    Alt SharedLib=


    ****  Control sections  ****

 Sect   Type Bound  Init  Size OctSiz  Section name(segment info)
    0  LblCom even  none     1      1  ITERATION
    1  LblCom even  none    90    132  LEX_SYMBOL
    2  LblCom even  none     1      1  CURRENT_LEX_SYMBOL$
    3  LblCom even  none    90    132  TEMP_LEX_SYMBOL
    4  LblCom even  none    90    132  TEMP_LEX_SYMBOL2
    5  LblCom even  none     8     10  TEMP_LX_NODE
    6  LblCom even  none     1      1  ILL$
    7  LblCom even  none     5      5  ILL_
    8  LblCom even  none     1      1  LTS$
    9  LblCom even  none     5      5  LTS_
   10  LblCom even  none     1      1  ETT$
   11  LblCom even  none     1      1  HEAD_ETT$
   12  LblCom even  none   512   1000  ETT_BUCKETS
   13  LblCom even  none     5      5  ETT_
   14  LblCom even  none     1      1  DNT$
   15  LblCom even  none     5      5  DNT_
   16  LblCom even  none     1      1  DNT_BUCKET_NUMBER
   17  LblCom even  none     1      1  DNT_OF_1$
   18  LblCom even  none     1      1  ST$
   19  LblCom even  none     5      5  ST_
   20  RoData even  UTS      8     10  Z8E7$EDITED
   21   Proc  even  none   989   1735  Z8E7$EDITED
   22  RoData even  none    46     56  Z8E7$EDITED
PL6.E3A0      #004=Z8E7$EDITED File=Z8E7.:Z8A6TSI                                SAT 08/09/97 11:48 Page:570

    ****  Entry defs  ****

                              Check   Calling
                             calling  sequence
  Sect OctLoc Primary Altret sequence   type   Parms  Name
    21      0   yes    yes     yes      Std        3  Z8E7$EDITED

  ****  Entry refs  ****

         Check        Calling
        calling       sequence
Altret sequence SRef   type   Args  Name
         yes           Std       2 Z8EU$NEW_TEMP_FROM_DESC
         yes           Std       4 Z8EV$CONVERT_ON_SIZE
         yes           Std       0 Z8AH$SEARCH_
         yes           Std       2 Z8CO$CREATE_LIBRARY_BASE
         yes           Std       2 Z8AU$TYPE_DESCRIPTOR
         yes           Std       5 Z8AF$FORME_ON_SIZE
         yes           Std       4 Z8AN$NEW_ILL
 yes     yes           Std       3 Z8EC$NEW_CONST_WITH_TYPE_DESC
         yes           Std       5 Z8AN$NEW_ILL1
         yes           Std       2 Z8E7$MOVE
         yes           Std       2 Z8AT$CREATE_TEMPORARY
         yes           Std       2 Z8E7$RESTRICTED_MOVE
         yes           Std       1 Z8EK$BRANCH
         yes           Std       2 Z8EK$BRANCH_FALSE
         yes           Std       4 Z8AC$MAKE_TYA_CONST
         yes           Std       1 Z8AR$RESERVER
 yes     yes           Std       3 Z8EC$CREATE_CONST
         yes           Std       4 Z8AF$FORME
                       nStd      0 X66_AUTO_3
                       nStd      0 X66_ARET
                       nStd      0 X66_AALT
PL6.E3A0      #004=Z8E7$EDITED File=Z8E7.:Z8A6TSI                                SAT 08/09/97 11:48 Page:571

  ****  Data refs  ****

  Flags:  r = read only, s = secondary
Flgs Name                             Flgs Name                             Flgs Name
     COMCOM                                O1COM                                 HIER_STK_PTR
     HIER_STK                              PAGE_FORMAT                           REP_STK_PTR
     REP_STK                          r    ILL_STEP                         r    LTS_STEP

  ****  Segment refs  ****

  Flags:  r = read only, s = secondary
Flgs Name                             Flgs Name                             Flgs Name
     ISSID                                 NULLSID
PL6.E3A0      #004=Z8E7$EDITED File=Z8E7.:Z8A6TSI                                SAT 08/09/97 11:48 Page:572


     3253        1        /*T***********************************************************/
     3254        2        /*T*                                                         */
     3255        3        /*T* Copyright (c) Bull HN Information Systems Inc., 1997    */
     3256        4        /*T*                                                         */
     3257        5        /*T***********************************************************/
     3258        6        /*===========*/
     3259        7          Z8E7$EDITED: PROC (RECEIVING$, SENDING$, ON_SIZE) ALTRET;

      7 21 000000   000000 700200 xent  Z8E7$EDITED  TSX0  ! X66_AUTO_3
        21 000001   000202 000003                    ZERO    130,3
        21 000002   000226 710000 21                 TRA     s:17191

     3260        8        /*===========*/
     3261        9
     3262       10    1        DCL RECEIVING$      PTR;
     3263       11    1        DCL SENDING$        PTR;
     3264       12
     3265       13
     3266       14             %EQU PHASE = 1;
     3267       15             %INCLUDE Z8A_DEFC;
     3268       83             %INCLUDE Z8A_SUPP_MAC;
     3269     2483             %INCLUDE Z8A_COMCOM;
     3270     3133             %INCLUDE Z8E_STACKS;
     3271     5399             %INCLUDE Z8E_MACROS;
     3272     6074             %INCLUDE Z8A_TYPES;
     3273     6248             %INCLUDE Z8E_O1COM;
     3274     7009             %INCLUDE Z8E_WINDOW;
     3275     9079             %INCLUDE Z8E_ABSSYN;
     3276     9285             %INCLUDE Z8A_DESC;
     3277     9331             %INCLUDE Z8A_ILL;
     3278    10024             %INCLUDE Z8A_LTS;
     3279    12101             %INCLUDE Z8A_ETT;
     3280    12402             %INCLUDE Z8A_DNT;
     3281    12623             %INCLUDE Z8A_LIBRARY;
     3282    12837             %INCLUDE Z8A_ST;
     3283    16496
PL6.E3A0      #004=Z8E7$EDITED File=Z8E7.:Z8A6TSI                                SAT 08/09/97 11:48 Page:573
     3284    16497    1        DCL 1 TYPE_DESC     ALIGNED,
     3285    16498                   %TYPE_DESC;
     3286    16532
     3287    16533    1        DCL 1 LOP_DESC ALIGNED,
     3288    16534                   %TYPE_DESC;
     3289    16568
     3290    16569    1        DCL 1 ROP_DESC ALIGNED,
     3291    16570                   %TYPE_DESC;
     3292    16604
     3293    16605    1        DCL 1 TEMP_DESC     ALIGNED,
     3294    16606                   %TYPE_DESC;
     3295    16640
     3296    16641    1        DCL ON_SIZE       BIT (1) ALIGNED;
     3297    16642             %DCL_AUTO_LX_ITEM  (@NAME = TEMP_LX_ETT_ITEM);
     3298    16646             %DCL_AUTO_LX_ITEM  (@NAME = ASCII_LX_ETT_ITEM);
     3299    16650
     3300    16651    1        DCL TEMP$          PTR;
     3301    16652
     3302    16653    1        DCL LOP_LENGTH     SBIN WORD;
     3303    16654    1        DCL LOP_SCALE      SBIN WORD;
     3304    16655
     3305    16656    1        DCL ROP_LENGTH     SBIN WORD;
     3306    16657    1        DCL ROP_SCALE      SBIN WORD;
     3307    16658
     3308    16659    1        DCL LOP_ST$        PTR;
     3309    16660    1        DCL ROP_ST$        PTR;
     3310    16661
     3311    16662    1        DCL NEL$$          PTR;
     3312    16663    1        DCL CONV_RECEIVING$ PTR;
     3313    16664    1        DCL TABLE_ETT$     PTR;
     3314    16665    1        DCL EXIT_LABEL$    PTR;
     3315    16666    1        DCL CONST_BUF     CHAR (63);
     3316    16667    1        DCL ADDR_LIT$     PTR;
     3317    16668    1        DCL BASED$LIT     CHAR (ROP_LENGTH) BASED (ADDR_LIT$);
     3318    16669    1        DCL I             SBIN;
     3319    16670
     3320    16671    1        DCL Z8EU$NEW_TEMP_FROM_DESC          ENTRY(2);
PL6.E3A0      #004=Z8E7$EDITED File=Z8E7.:Z8A6TSI                                SAT 08/09/97 11:48 Page:574
     3321    16672    1        DCL Z8AU$TYPE_DESCRIPTOR             ENTRY(2);
     3322    16673    1        DCL Z8EC$CREATE_CONST                ENTRY(3) ALTRET;
     3323    16674    1        DCL Z8EC$NEW_CONST_WITH_TYPE_DESC ENTRY (3) ALTRET;
     3324    16675    1        DCL Z8AC$LX_ETT_ITEM_TYI_CONST       ENTRY(2);
     3325    16676    1        DCL Z8AF$FORME_ON_SIZE               ENTRY(5);
     3326    16677    1        DCL Z8AF$FORME                       ENTRY (4);
     3327    16678    1        DCL Z8AH$SEARCH_  ENTRY;
     3328    16679    1        DCL Z8AT$CREATE_TEMPORARY            ENTRY(2);
     3329    16680    1        DCL Z8CO$CREATE_LIBRARY_BASE         ENTRY(2);
     3330    16681    1        DCL Z8EK$BRANCH                      ENTRY(1);
     3331    16682    1        DCL Z8EK$BRANCH_FALSE                ENTRY(2);
     3332    16683    1        DCL Z8EV$CONVERT_ON_SIZE             ENTRY(4);
     3333    16684    1        DCL Z8E7$MOVE                        ENTRY(2);
     3334    16685    1        DCL Z8E7$RESTRICTED_MOVE             ENTRY(2);
     3335    16686
     3336    16687        %EJECT;
PL6.E3A0      #004=Z8E7$EDITED File=Z8E7.:Z8A6TSI                                SAT 08/09/97 11:48 Page:575
     3337    16688        /*================*/
     3338    16689    1     ASTERISK_SUPRESS: PROC (LOP$$, ROP$$, NEL$$, EXIT_LABEL$);

  16689 21 000003   200126 741300       ASTERISK_SU* STX1  ! I+2,,AUTO
        21 000004   000062 710000 21                 TRA     s:16753

     3339    16690        /*================*/
     3340    16691
     3341    16692    2        DCL LOP$$         PTR;
     3342    16693    2        DCL ROP$$         PTR;
     3343    16694    2        DCL NEL$$         PTR;
     3344    16695
     3345    16696    2        DCL PIC_CONST$    PTR;
     3346    16697    2        DCL REG_MVNE$     PTR;
     3347    16698    2        DCL EXIT_LABEL$   PTR;
     3348    16699
     3349    16700             %DCL_AUTO_LX_ITEM (@NAME = UNARY_ZERO);
     3350    16704             %DCL_AUTO_LX_ITEM (@NAME = ASTERISK);
     3351    16708
     3352    16709
     3353    16710        %EJECT;
PL6.E3A0      #004=Z8E7$EDITED File=Z8E7.:Z8A6TSI                                SAT 08/09/97 11:48 Page:576
     3354    16711        /*========================*/
     3355    16712    2     CONVERT_PICTURE_TO_STARS: PROC (PIC_DNT$, RETURN_ETT$);

  16712 21 000005   200156 741300       CONVERT_PIC* STX1  ! ASTERISK+8,,AUTO

     3356    16713        /*========================*/
     3357    16714
     3358    16715             %EQU ASTERISKS    = '******************************';
     3359    16716
     3360    16717    3        DCL PIC_DNT$      PTR;
     3361    16718    3        DCL RETURN_ETT$   PTR;
     3362    16719
     3363    16720    3        DCL BUFFER        CHAR (30); /*V* MAX LENGTH OF PIC STR */
     3364    16721    3        DCL SELECTION     CHAR (1);
     3365    16722    3        DCL SELECTION_NDX SBIN;
     3366    16723
     3367    16724    3        DCL Z8AC$MAKE_TYA_CONST  ENTRY (4);
     3368    16725
     3369    16726
     3370    16727    3        BUFFER = %ASTERISKS;

  16727 21 000006   040100 100400                    MLR     fill='040'O
        21 000007   000000 000036 20                 ADSC9   0                        cn=0,n=30
        21 000010   200161 000036                    ADSC9   BUFFER,,AUTO             cn=0,n=30

     3371    16728
     3372    16729    3        IF O1COM.CURRENT_PROC$ -> PROC_.B.COMMA_IS_DECIMAL THEN

  16729 21 000011   000057 470400 xsym               LDP0    O1COM+47
        21 000012   000003 236100                    LDQ     3,,PR0
        21 000013   010000 316003                    CANQ    4096,DU
        21 000014   000020 600000 21                 TZE     s:16732

     3373    16730    3          SELECTION = ',';

  16730 21 000015   054000 236003                    LDQ     22528,DU
        21 000016   200171 756100                    STQ     SELECTION,,AUTO
PL6.E3A0      #004=Z8E7$EDITED File=Z8E7.:Z8A6TSI                                SAT 08/09/97 11:48 Page:577
        21 000017   000022 710000 21                 TRA     s:16734

     3374    16731    3        ELSE
     3375    16732    3          SELECTION = '.';

  16732 21 000020   056000 236003                    LDQ     23552,DU
        21 000021   200171 756100                    STQ     SELECTION,,AUTO

     3376    16733
     3377    16734    3        CALL INDEX (SELECTION_NDX, SELECTION, PIC_DNT$ -> DNT.TEXT.NAME);

  16734 21 000022   200157 471500                    LDP1    @PIC_DNT$,,AUTO
        21 000023   100000 473500                    LDP3    0,,PR1
        21 000024   300004 220100                    LDX0    4,,PR3
        21 000025   000100 124540                    SCM     mask='000'O
        21 000026   300004 400010                    ADSC9   4,,PR3                   cn=2,n=*X0
        21 000027   200171 000001                    ADSC9   SELECTION,,AUTO          cn=0,n=1
        21 000030   200172 000100                    ARG     SELECTION_NDX,,AUTO

     3378    16735
     3379    16736    3        IF SELECTION_NDX ~= PIC_DNT$ -> DNT.TEXT.LENGTH THEN

  16736 21 000031   300004 236100                    LDQ     4,,PR3
        21 000032   000022 772000                    QRL     18
        21 000033   200172 116100                    CMPQ    SELECTION_NDX,,AUTO
        21 000034   000041 600000 21                 TZE     s:16739

     3380    16737    3          SUBSTR (BUFFER, SELECTION_NDX, 1) = SELECTION;

  16737 21 000035   200172 235100                    LDA     SELECTION_NDX,,AUTO
        21 000036   040105 100500                    MLR     fill='040'O
        21 000037   200171 000001                    ADSC9   SELECTION,,AUTO          cn=0,n=1
        21 000040   200161 000001                    ADSC9   BUFFER,A,AUTO            cn=0,n=1

     3381    16738
     3382    16739    3        CALL Z8AC$MAKE_TYA_CONST (BUFFER,

PL6.E3A0      #004=Z8E7$EDITED File=Z8E7.:Z8A6TSI                                SAT 08/09/97 11:48 Page:578
  16739 21 000041   100000 473500                    LDP3    0,,PR1
        21 000042   300004 236100                    LDQ     4,,PR3
        21 000043   000022 772000                    QRL     18
        21 000044   200174 756100                    STQ     SELECTION_NDX+2,,AUTO
        21 000045   200160 236100                    LDQ     @RETURN_ETT$,,AUTO
        21 000046   000002 235000 22                 LDA     2
        21 000047   200200 757100                    STAQ    SELECTION_NDX+6,,AUTO
        21 000050   200174 633500                    EPPR3   SELECTION_NDX+2,,AUTO
        21 000051   200177 453500                    STP3    SELECTION_NDX+5,,AUTO
        21 000052   200161 634500                    EPPR4   BUFFER,,AUTO
        21 000053   200176 454500                    STP4    SELECTION_NDX+4,,AUTO
        21 000054   200176 630500                    EPPR0   SELECTION_NDX+4,,AUTO
        21 000055   000000 631400 22                 EPPR1   0
        21 000056   000000 701000 xent               TSX1    Z8AC$MAKE_TYA_CONST
        21 000057   000000 011000                    NOP     0

     3383    16740    3                                  BINBIT (PIC_DNT$ -> DNT.TEXT.LENGTH,36),
     3384    16741    3                                  0,
     3385    16742    3                                  RETURN_ETT$);
     3386    16743
     3387    16744    3   END CONVERT_PICTURE_TO_STARS;

  16744 21 000060   200156 221300                    LDX1  ! ASTERISK+8,,AUTO
        21 000061   000001 702211                    TSX2  ! 1,X1

     3388    16745        %EJECT;
PL6.E3A0      #004=Z8E7$EDITED File=Z8E7.:Z8A6TSI                                SAT 08/09/97 11:48 Page:579
     3389    16746
     3390    16747             %INIT_UNARY_OP (@POINTER = "ADDR(UNARY_ZERO)",
     3391    16748                             @OP      = %OP_ZERO,
     3392    16749                             @LOP$    = ROP$$,
     3393    16750                             @LINE    = ROP$$ -> LX_ETT_ITEM.LINE,
     3394    16751                             @COLUMN  = ROP$$ -> LX_ETT_ITEM.COLUMN);

  16753 21 000062   000006 220003                    LDX0    6,DU
        21 000063   200136 740100                    STX0    UNARY_ZERO,,AUTO

  16754 21 000064   000000 222003                    LDX2    0,DU
        21 000065   200136 442100                    SXL2    UNARY_ZERO,,AUTO

  16761 21 000066   200130 470500                    LDP0    @ROP$$,,AUTO
        21 000067   000000 471500                    LDP1    0,,PR0
        21 000070   100005 235100                    LDA     5,,PR1
        21 000071   200143 755100                    STA     PIC$+1,,AUTO

  16762 21 000072   000000 471500                    LDP1    0,,PR0
        21 000073   100006 235100                    LDA     6,,PR1
        21 000074   200144 755100                    STA     NEL$$+1,,AUTO

  16763 21 000075   000000 236100                    LDQ     0,,PR0
        21 000076   200137 756100                    STQ     UNARY_ZERO+1,,AUTO

  16764 21 000077   000014 235007                    LDA     12,DL
        21 000100   200141 755100                    STA     CONST$+1,,AUTO

  16765 21 000101   000003 236000 22                 LDQ     3
        21 000102   200145 756100                    STQ     PIC_STR+1,,AUTO

     3395    16768
     3396    16769    2        CALL Z8AT$CREATE_TEMPORARY (%PARA, REG_MVNE$);

  16769 21 000103   200134 631500                    EPPR1   REG_MVNE$,,AUTO
        21 000104   200175 451500                    STP1    SELECTION_NDX+3,,AUTO
        21 000105   000006 236000 22                 LDQ     6
PL6.E3A0      #004=Z8E7$EDITED File=Z8E7.:Z8A6TSI                                SAT 08/09/97 11:48 Page:580
        21 000106   200174 756100                    STQ     SELECTION_NDX+2,,AUTO
        21 000107   200174 630500                    EPPR0   SELECTION_NDX+2,,AUTO
        21 000110   000004 631400 22                 EPPR1   4
        21 000111   000000 701000 xent               TSX1    Z8AT$CREATE_TEMPORARY
        21 000112   000000 011000                    NOP     0

     3397    16770
     3398    16771    2        CALL Z8EK$BRANCH_FALSE (REG_MVNE$, ADDR(UNARY_ZERO));

  16771 21 000113   200136 630500                    EPPR0   UNARY_ZERO,,AUTO
        21 000114   200174 450500                    STP0    SELECTION_NDX+2,,AUTO
        21 000115   200174 631500                    EPPR1   SELECTION_NDX+2,,AUTO
        21 000116   200177 451500                    STP1    SELECTION_NDX+5,,AUTO
        21 000117   200134 633500                    EPPR3   REG_MVNE$,,AUTO
        21 000120   200176 453500                    STP3    SELECTION_NDX+4,,AUTO
        21 000121   200176 630500                    EPPR0   SELECTION_NDX+4,,AUTO
        21 000122   000004 631400 22                 EPPR1   4
        21 000123   000000 701000 xent               TSX1    Z8EK$BRANCH_FALSE
        21 000124   000000 011000                    NOP     0

     3399    16772
     3400    16773    2        CALL CONVERT_PICTURE_TO_STARS (NEL$$ -> NEL.DNT$, PIC_CONST$);

  16773 21 000125   200131 470500                    LDP0    @NEL$$,,AUTO
        21 000126   000000 471500                    LDP1    0,,PR0
        21 000127   200133 633500                    EPPR3   PIC_CONST$,,AUTO
        21 000130   200160 453500                    STP3    @PIC_DNT$+1,,AUTO
        21 000131   100003 634500                    EPPR4   3,,PR1
        21 000132   200157 454500                    STP4    ASTERISK+9,,AUTO
        21 000133   000005 701000 21                 TSX1    CONVERT_PICTURE_TO_STARS
        21 000134   000000 011000                    NOP     0

     3401    16774
     3402    16775             %INIT_LX_ETT_ITEM (@POINTER = "ADDR(ASTERISK)",
     3403    16776                                @TYPE    = %TYA,
     3404    16777                                @ETT$    = PIC_CONST$,
     3405    16778                                @LINE    = LOP$$ -> LX_ETT_ITEM.LINE,
PL6.E3A0      #004=Z8E7$EDITED File=Z8E7.:Z8A6TSI                                SAT 08/09/97 11:48 Page:581
     3406    16779                                @COLUMN  = LOP$$ -> LX_ETT_ITEM.COLUMN);

  16781 21 000135   000004 220003                    LDX0    4,DU
        21 000136   200146 740100                    STX0    ASTERISK,,AUTO

  16782 21 000137   000000 221003                    LDX1    0,DU
        21 000140   200146 441100                    SXL1    ASTERISK,,AUTO

  16783 21 000141   000010 235007                    LDA     8,DL
        21 000142   200152 755100                    STA     ASTERISK+4,,AUTO

  16784 21 000143   000003 236000 22                 LDQ     3
        21 000144   200155 756100                    STQ     ASTERISK+7,,AUTO

  16785 21 000145   200133 236100                    LDQ     PIC_CONST$,,AUTO
        21 000146   200147 756100                    STQ     ASTERISK+1,,AUTO

  16786 21 000147   000003 236000 22                 LDQ     3
        21 000150   200150 756100                    STQ     ASTERISK+2,,AUTO

  16788 21 000151   200127 470500                    LDP0    @LOP$$,,AUTO
        21 000152   000000 471500                    LDP1    0,,PR0
        21 000153   100005 235100                    LDA     5,,PR1
        21 000154   200153 755100                    STA     ASTERISK+5,,AUTO

  16789 21 000155   000000 471500                    LDP1    0,,PR0
        21 000156   100006 235100                    LDA     6,,PR1
        21 000157   200154 755100                    STA     ASTERISK+6,,AUTO

     3407    16801
     3408    16802    2        CALL Z8E7$RESTRICTED_MOVE (LOP$$, ADDR(ASTERISK));

  16802 21 000160   200146 631500                    EPPR1   ASTERISK,,AUTO
        21 000161   200174 451500                    STP1    SELECTION_NDX+2,,AUTO
        21 000162   200174 633500                    EPPR3   SELECTION_NDX+2,,AUTO
        21 000163   200177 453500                    STP3    SELECTION_NDX+5,,AUTO
        21 000164   200127 236100                    LDQ     @LOP$$,,AUTO
PL6.E3A0      #004=Z8E7$EDITED File=Z8E7.:Z8A6TSI                                SAT 08/09/97 11:48 Page:582
        21 000165   200176 756100                    STQ     SELECTION_NDX+4,,AUTO
        21 000166   200176 630500                    EPPR0   SELECTION_NDX+4,,AUTO
        21 000167   000004 631400 22                 EPPR1   4
        21 000170   000000 701000 xent               TSX1    Z8E7$RESTRICTED_MOVE
        21 000171   000000 011000                    NOP     0

     3409    16803
     3410    16804    2        CALL Z8AT$CREATE_TEMPORARY (%PARA, EXIT_LABEL$);

  16804 21 000172   200132 236100                    LDQ     @EXIT_LABEL$,,AUTO
        21 000173   000006 235000 22                 LDA     6
        21 000174   200174 757100                    STAQ    SELECTION_NDX+2,,AUTO
        21 000175   200174 630500                    EPPR0   SELECTION_NDX+2,,AUTO
        21 000176   000004 631400 22                 EPPR1   4
        21 000177   000000 701000 xent               TSX1    Z8AT$CREATE_TEMPORARY
        21 000200   000000 011000                    NOP     0

     3411    16805
     3412    16806    2        CALL Z8EK$BRANCH (EXIT_LABEL$);

  16806 21 000201   200132 630500                    EPPR0   @EXIT_LABEL$,,AUTO
        21 000202   000007 631400 22                 EPPR1   7
        21 000203   000000 701000 xent               TSX1    Z8EK$BRANCH
        21 000204   000000 011000                    NOP     0

     3413    16807
     3414    16808             %NEW_ILL (@ID     = %DEFLB,
     3415    16809                       @LABEL$ = REG_MVNE$);

  17141 21 000205   000012 236000 22                 LDQ     10
        21 000206   200174 756100                    STQ     SELECTION_NDX+2,,AUTO
        21 000207   200174 630500                    EPPR0   SELECTION_NDX+2,,AUTO
        21 000210   200201 450500                    STP0    SELECTION_NDX+7,,AUTO
        21 000211   000013 236000 22                 LDQ     11
        21 000212   200200 756100                    STQ     SELECTION_NDX+6,,AUTO
        21 000213   000014 237000 22                 LDAQ    12
        21 000214   200176 757100                    STAQ    SELECTION_NDX+4,,AUTO
PL6.E3A0      #004=Z8E7$EDITED File=Z8E7.:Z8A6TSI                                SAT 08/09/97 11:48 Page:583
        21 000215   200176 630500                    EPPR0   SELECTION_NDX+4,,AUTO
        21 000216   000000 631400 22                 EPPR1   0
        21 000217   000000 701000 xent               TSX1    Z8AN$NEW_ILL
        21 000220   000000 011000                    NOP     0

  17142 21 000221   200134 236100                    LDQ     REG_MVNE$,,AUTO
        21 000222   000000 470400 6                  LDP0    ILL$
        21 000223   000001 756100                    STQ     1,,PR0

     3416    17188
     3417    17189    2   END ASTERISK_SUPRESS;

  17189 21 000224   200126 221300                    LDX1  ! I+2,,AUTO
        21 000225   000001 702211                    TSX2  ! 1,X1

     3418    17190        %EJECT;
PL6.E3A0      #004=Z8E7$EDITED File=Z8E7.:Z8A6TSI                                SAT 08/09/97 11:48 Page:584
     3419    17191    1        IF  RECEIVING$ -> LX_ETT_ITEM.ID = %LX_ETT_ITEM

  17191 21 000226   200003 470500                    LDP0    @RECEIVING$,,AUTO
        21 000227   000000 471500                    LDP1    0,,PR0
        21 000230   100000 220100                    LDX0    0,,PR1
        21 000231   000004 100003                    CMPX0   4,DU
        21 000232   000237 601000 21                 TNZ     s:17197
        21 000233   100000 236100                    LDQ     0,,PR1
        21 000234   010000 316007                    CANQ    4096,DL
        21 000235   000237 600000 21                 TZE     s:17197

     3420    17192    1        AND RECEIVING$ -> LX_ETT_ITEM.B.REFMOD THEN
     3421    17193    1          RETURN; /*V* Type is %TYA, no longer edited */

  17193 21 000236   000000 702200 xent               TSX2  ! X66_ARET

     3422    17194
     3423    17195             %FISH(TRIAD = RECEIVING$ -> LX_ETT_ITEM.ETT$, RTN = LOP_ST$);

  17197 21 000237   100001 236100                    LDQ     1,,PR1
        21 000240   200075 756100                    STQ     LOP_ST$,,AUTO

  17198 21 000241   200075 473500                    LDP3    LOP_ST$,,AUTO
        21 000242   300000 221100                    LDX1    0,,PR3
        21 000243   000751 101003                    CMPX1   489,DU
        21 000244   000254 603000 21                 TRC     s:17204

  17199 21 000245   200075 470500                    LDP0    LOP_ST$,,AUTO
        21 000246   000001 236100                    LDQ     1,,PR0
        21 000247   200075 756100                    STQ     LOP_ST$,,AUTO

  17200 21 000250   200075 470500                    LDP0    LOP_ST$,,AUTO
        21 000251   000000 220100                    LDX0    0,,PR0
        21 000252   000751 100003                    CMPX0   489,DU
        21 000253   000245 602000 21                 TNC     s:17199

     3424    17203
PL6.E3A0      #004=Z8E7$EDITED File=Z8E7.:Z8A6TSI                                SAT 08/09/97 11:48 Page:585
     3425    17204    1        CONV_RECEIVING$ = RECEIVING$; /* In case EBCDIC or GBCD */

  17204 21 000254   200003 470500                    LDP0    @RECEIVING$,,AUTO
        21 000255   000000 236100                    LDQ     0,,PR0
        21 000256   200100 756100                    STQ     CONV_RECEIVING$,,AUTO

     3426    17205    2        IF LOP_ST$ -> VARIABLE.B.SUB_CLASS.EDITED THEN DO;

  17205 21 000257   200075 471500                    LDP1    LOP_ST$,,AUTO
        21 000260   100003 236100                    LDQ     3,,PR1
        21 000261   000004 316007                    CANQ    4,DL
        21 000262   001401 600000 21                 TZE     s:19174+1

     3427    17206    3          DO CASE(LOP_ST$ -> VARIABLE.B.SUB_CLASS.TYPE);

  17206 21 000263   100003 720100                    LXL0    3,,PR1
        21 000264   000003 360003                    ANX0    3,DU
        21 000265   000004 100003                    CMPX0   4,DU
        21 000266   000270 602010 21                 TNC     s:17206+5,X0
        21 000267   001316 710000 21                 TRA     s:18785
        21 000270   001316 710000 21                 TRA     s:18785
        21 000271   000274 710000 21                 TRA     s:17208
        21 000272   001002 710000 21                 TRA     s:18235
        21 000273   001002 710000 21                 TRA     s:18235

     3428    17207    3            CASE(%CLASS_NUMERIC);

     3429    17208    3              IF LOP_ST$ -> VARIABLE.TYPE = %TYB THEN

  17208 21 000274   100002 221100                    LDX1    2,,PR1
        21 000275   000014 101003                    CMPX1   12,DU
        21 000276   000321 601000 21                 TNZ     s:17220

     3430    17209    4                DO;

     3431    17210    4                  TEMP_DESC.DESC.DESCL = LOP_ST$ -> VARIABLE.DESCL;

PL6.E3A0      #004=Z8E7$EDITED File=Z8E7.:Z8A6TSI                                SAT 08/09/97 11:48 Page:586
  17210 21 000277   100001 722100                    LXL2    1,,PR1
        21 000300   200044 442100                    SXL2    TEMP_DESC+1,,AUTO

     3432    17211    4                  TEMP_DESC.DESC.ADSC.TA = %ADSC9;

  17211 21 000301   000016 236000 22                 LDQ     14
        21 000302   200044 356100                    ANSQ    TEMP_DESC+1,,AUTO

     3433    17212    4                  TEMP_DESC.TYPE = %TYD;

  17212 21 000303   200043 450100                    STZ     TEMP_DESC,,AUTO

     3434    17213    4                  TEMP_DESC.SIZ$ = ADDR(NIL);

  17213 21 000304   000003 236000 22                 LDQ     3
        21 000305   200045 756100                    STQ     TEMP_DESC+2,,AUTO

     3435    17214    4                  TEMP_DESC.SSOP$ = ADDR(NIL);

  17214 21 000306   200046 756100                    STQ     TEMP_DESC+3,,AUTO

     3436    17215
     3437    17216    4                  RECEIVING$ = ADDR (ASCII_LX_ETT_ITEM);

  17216 21 000307   200060 633500                    EPPR3   ASCII_LX_ETT_ITEM,,AUTO
        21 000310   000000 453500                    STP3    0,,PR0

     3438    17217    4                  CALL Z8EU$NEW_TEMP_FROM_DESC(TEMP_DESC, RECEIVING$);

  17217 21 000311   200003 236100                    LDQ     @RECEIVING$,,AUTO
        21 000312   200175 756100                    STQ     SELECTION_NDX+3,,AUTO
        21 000313   200043 633500                    EPPR3   TEMP_DESC,,AUTO
        21 000314   200174 453500                    STP3    SELECTION_NDX+2,,AUTO
        21 000315   200174 630500                    EPPR0   SELECTION_NDX+2,,AUTO
        21 000316   000004 631400 22                 EPPR1   4
        21 000317   000000 701000 xent               TSX1    Z8EU$NEW_TEMP_FROM_DESC
        21 000320   000000 011000                    NOP     0
PL6.E3A0      #004=Z8E7$EDITED File=Z8E7.:Z8A6TSI                                SAT 08/09/97 11:48 Page:587

     3439    17218    4                END;

     3440    17219
     3441    17220    3              CALL Z8EV$CONVERT_ON_SIZE (%TYD, SENDING$, SENDING$, ON_SIZE);

  17220 21 000321   200004 237100                    LDAQ    @SENDING$,,AUTO
        21 000322   200176 757100                    STAQ    SELECTION_NDX+4,,AUTO
        21 000323   200004 236100                    LDQ     @SENDING$,,AUTO
        21 000324   000002 235000 22                 LDA     2
        21 000325   200174 757100                    STAQ    SELECTION_NDX+2,,AUTO
        21 000326   200174 630500                    EPPR0   SELECTION_NDX+2,,AUTO
        21 000327   000000 631400 22                 EPPR1   0
        21 000330   000000 701000 xent               TSX1    Z8EV$CONVERT_ON_SIZE
        21 000331   000000 011000                    NOP     0

     3442    17221
     3443    17222                   %GET_LTS(@ID    = %NEL ,
     3444    17223                            @ST$   = LOP_ST$ ,
     3445    17224                            @RETURN$ = NEL$$ );

  17226 21 000332   200075 470500                    LDP0    LOP_ST$,,AUTO
        21 000333   000005 236100                    LDQ     5,,PR0
        21 000334   000003 116000 22                 CMPQ    3
        21 000335   000345 600000 21                 TZE     s:17260
        21 000336   000005 471500                    LDP1    5,,PR0
        21 000337   100000 220100                    LDX0    0,,PR1
        21 000340   001105 100003                    CMPX0   581,DU
        21 000341   000345 601000 21                 TNZ     s:17260

  17232 21 000342   100002 236100                    LDQ     2,,PR1
        21 000343   200077 756100                    STQ     NEL$$,,AUTO

  17258 21 000344   000357 710000 21                 TRA     s:17268

  17260 21 000345   000003 116000 22                 CMPQ    3
        21 000346   000355 600000 21                 TZE     s:17264
PL6.E3A0      #004=Z8E7$EDITED File=Z8E7.:Z8A6TSI                                SAT 08/09/97 11:48 Page:588
        21 000347   000005 471500                    LDP1    5,,PR0
        21 000350   100000 220100                    LDX0    0,,PR1
        21 000351   001115 100003                    CMPX0   589,DU
        21 000352   000355 601000 21                 TNZ     s:17264

  17262 21 000353   200077 756100                    STQ     NEL$$,,AUTO
        21 000354   000357 710000 21                 TRA     s:17268

  17264 21 000355   000003 236000 22                 LDQ     3
        21 000356   200077 756100                    STQ     NEL$$,,AUTO

     3446    17267
     3447    17268    3              IF LOP_ST$ -> SCALAR.B.ASTERISK_SUPRESS THEN

  17268 21 000357   000003 236100                    LDQ     3,,PR0
        21 000360   000100 316003                    CANQ    64,DU
        21 000361   000374 600000 21                 TZE     s:17274

     3448    17269    3                CALL ASTERISK_SUPRESS (RECEIVING$,

  17269 21 000362   200102 631500                    EPPR1   EXIT_LABEL$,,AUTO
        21 000363   200132 451500                    STP1    TYPE_DESC+1,,AUTO
        21 000364   200077 633500                    EPPR3   NEL$$,,AUTO
        21 000365   200131 453500                    STP3    @LOP$+1,,AUTO
        21 000366   200004 236100                    LDQ     @SENDING$,,AUTO
        21 000367   200130 756100                    STQ     @ROP$+1,,AUTO
        21 000370   200003 236100                    LDQ     @RECEIVING$,,AUTO
        21 000371   200127 756100                    STQ     I+3,,AUTO
        21 000372   000003 701000 21                 TSX1    ASTERISK_SUPRESS
        21 000373   000000 011000                    NOP     0

     3449    17270    3                                       SENDING$,
     3450    17271    3                                       NEL$$,
     3451    17272    3                                       EXIT_LABEL$);
     3452    17273
     3453    17274    3              LOP_DESC.DESC = NEL$$ -> NEL.DESC;

PL6.E3A0      #004=Z8E7$EDITED File=Z8E7.:Z8A6TSI                                SAT 08/09/97 11:48 Page:589
  17274 21 000374   200077 470500                    LDP0    NEL$$,,AUTO
        21 000375   000001 236100                    LDQ     1,,PR0
        21 000376   200034 756100                    STQ     LOP_DESC+1,,AUTO

     3454    17275    3              LOP_DESC.DESC.NDSC.TN = %NDSC4;

  17275 21 000377   040000 236007                    LDQ     16384,DL
        21 000400   200034 256100                    ORSQ    LOP_DESC+1,,AUTO

     3455    17276
     3456    17277    3              CALL Z8AU$TYPE_DESCRIPTOR(SENDING$ -> LX_ETT_ITEM.ETT$, ROP_DESC);

  17277 21 000401   200004 471500                    LDP1    @SENDING$,,AUTO
        21 000402   100000 473500                    LDP3    0,,PR1
        21 000403   200037 634500                    EPPR4   ROP_DESC,,AUTO
        21 000404   200175 454500                    STP4    SELECTION_NDX+3,,AUTO
        21 000405   300001 635500                    EPPR5   1,,PR3
        21 000406   200174 455500                    STP5    SELECTION_NDX+2,,AUTO
        21 000407   200174 630500                    EPPR0   SELECTION_NDX+2,,AUTO
        21 000410   000004 631400 22                 EPPR1   4
        21 000411   000000 701000 xent               TSX1    Z8AU$TYPE_DESCRIPTOR
        21 000412   000000 011000                    NOP     0

     3457    17278
     3458    17279                   %UNPACK_NDSC(@DESC     = LOP_DESC.DESC ,
     3459    17280                                @LENGTH   = LOP_LENGTH ,
     3460    17281                                @SCALE    = LOP_SCALE );

  17288 21 000413   200034 236100                    LDQ     LOP_DESC+1,,AUTO
        21 000414   000014 772000                    QRL     12
        21 000415   000003 376007                    ANQ     3,DL
        21 000416   000004 116007                    CMPQ    4,DL
        21 000417   000421 602006 21                 TNC     s:17288+6,QL
        21 000420   000452 710000 21                 TRA     s:17328
        21 000421   000436 710000 21                 TRA     s:17312
        21 000422   000431 710000 21                 TRA     s:17295
        21 000423   000431 710000 21                 TRA     s:17295
PL6.E3A0      #004=Z8E7$EDITED File=Z8E7.:Z8A6TSI                                SAT 08/09/97 11:48 Page:590
        21 000424   000425 710000 21                 TRA     s:17290

  17290 21 000425   200034 236100                    LDQ     LOP_DESC+1,,AUTO
        21 000426   000077 376007                    ANQ     63,DL
        21 000427   200071 756100                    STQ     LOP_LENGTH,,AUTO
        21 000430   000452 710000 21                 TRA     s:17328

  17295 21 000431   200034 236100                    LDQ     LOP_DESC+1,,AUTO
        21 000432   000077 376007                    ANQ     63,DL
        21 000433   000001 136007                    SBLQ    1,DL
        21 000434   200071 756100                    STQ     LOP_LENGTH,,AUTO
        21 000435   000452 710000 21                 TRA     s:17328

  17312 21 000436   200034 236100                    LDQ     LOP_DESC+1,,AUTO
        21 000437   040000 316007                    CANQ    16384,DL
        21 000440   000446 600000 21                 TZE     s:17315

  17313 21 000441   200034 236100                    LDQ     LOP_DESC+1,,AUTO
        21 000442   000077 376007                    ANQ     63,DL
        21 000443   000003 136007                    SBLQ    3,DL
        21 000444   200071 756100                    STQ     LOP_LENGTH,,AUTO
        21 000445   000452 710000 21                 TRA     s:17328

  17315 21 000446   200034 236100                    LDQ     LOP_DESC+1,,AUTO
        21 000447   000077 376007                    ANQ     63,DL
        21 000450   000002 136007                    SBLQ    2,DL
        21 000451   200071 756100                    STQ     LOP_LENGTH,,AUTO

  17328 21 000452   200034 236100                    LDQ     LOP_DESC+1,,AUTO
        21 000453   000030 736000                    QLS     24
        21 000454   000036 732000                    QRS     30
        21 000455   200072 756100                    STQ     LOP_SCALE,,AUTO

     3461    17336
     3462    17337    3              TEMP$ = SENDING$ -> LX_ETT_ITEM.ETT$;

  17337 21 000456   200004 470500                    LDP0    @SENDING$,,AUTO
PL6.E3A0      #004=Z8E7$EDITED File=Z8E7.:Z8A6TSI                                SAT 08/09/97 11:48 Page:591
        21 000457   000000 471500                    LDP1    0,,PR0
        21 000460   100001 236100                    LDQ     1,,PR1
        21 000461   200070 756100                    STQ     TEMP$,,AUTO

     3463    17338
     3464    17339    3              IF SENDING$ -> LX_ETT_ITEM.B.ALL AND

  17339 21 000462   000000 471500                    LDP1    0,,PR0
        21 000463   100000 236100                    LDQ     0,,PR1
        21 000464   040000 316007                    CANQ    16384,DL
        21 000465   000635 600000 21                 TZE     s:17407
        21 000466   100003 235100                    LDA     3,,PR1
        21 000467   000761 115007                    CMPA    497,DL
        21 000470   000635 600000 21                 TZE     s:17407

     3465    17340    3                  SENDING$ -> LX_ITEM.SYMBOL ~= %RSV_WRD_ZEROES THEN
     3466    17341    4                DO;

     3467    17342    4                  ROP_LENGTH = ROP_DESC.DESC.ADSC.N; /* ADSC9 descriptor */

  17342 21 000471   200040 236100                    LDQ     ROP_DESC+1,,AUTO
        21 000472   007777 376007                    ANQ     4095,DL
        21 000473   200073 756100                    STQ     ROP_LENGTH,,AUTO

     3468    17343                       %GET_CONSTANT_ADDRESS (@CONSTANT = TEMP$ -> ETT.LOP,
     3469    17344                                              @STRING   = ADDR_LIT$);

  17346 21 000474   200070 473500                    LDP3    TEMP$,,AUTO
        21 000475   300001 474500                    LDP4    1,,PR3
        21 000476   400003 234100                    SZN     3,,PR4
        21 000477   000504 605000 21                 TPL     s:17349

  17347 21 000500   400010 475500                    LDP5    8,,PR4
        21 000501   500001 636500                    EPPR6   1,,PR5
        21 000502   200123 456500                    STP6    ADDR_LIT$,,AUTO
        21 000503   000506 710000 21                 TRA     s:17352

PL6.E3A0      #004=Z8E7$EDITED File=Z8E7.:Z8A6TSI                                SAT 08/09/97 11:48 Page:592
  17349 21 000504   400010 635500                    EPPR5   8,,PR4
        21 000505   200123 455500                    STP5    ADDR_LIT$,,AUTO

     3470    17352    4                  I = MOD (LOP_LENGTH, ROP_LENGTH);

  17352 21 000506   200071 236100                    LDQ     LOP_LENGTH,,AUTO
        21 000507   200073 506100                    DIV     ROP_LENGTH,,AUTO
        21 000510   200124 755100                    STA     I,,AUTO

     3471    17353    4                  IF I > 0 THEN

  17353 21 000511   000000 115003                    CMPA    0,DU
        21 000512   000530 604400 21                 TMOZ    s:17355

     3472    17354    4                    CALL INSERT (CONST_BUF, 0, I, SUBSTR (BASED$LIT, ROP_LENGTH - I));

  17354 21 000513   200073 236100                    LDQ     ROP_LENGTH,,AUTO
        21 000514   200124 136100                    SBLQ    I,,AUTO
        21 000515   200174 756100                    STQ     SELECTION_NDX+2,,AUTO
        21 000516   200175 756100                    STQ     SELECTION_NDX+3,,AUTO
        21 000517   200073 236100                    LDQ     ROP_LENGTH,,AUTO
        21 000520   200174 136100                    SBLQ    SELECTION_NDX+2,,AUTO
        21 000521   200123 471500                    LDP1    ADDR_LIT$,,AUTO
        21 000522   000000 620006                    EAX0    0,QL
        21 000523   200175 236100                    LDQ     SELECTION_NDX+3,,AUTO
        21 000524   000000 621005                    EAX1    0,AL
        21 000525   040140 100546                    MLR     fill='040'O
        21 000526   100000 000010                    ADSC9   0,Q,PR1                  cn=0,n=*X0
        21 000527   200103 000011                    ADSC9   CONST_BUF,,AUTO          cn=0,n=*X1

     3473    17355    5                  DO WHILE I < LOP_LENGTH;

  17355 21 000530   200124 236100                    LDQ     I,,AUTO
        21 000531   200071 116100                    CMPQ    LOP_LENGTH,,AUTO
        21 000532   000546 605000 21                 TPL     s:17359

     3474    17356    5                    CALL INSERT (CONST_BUF, I, ROP_LENGTH, BASED$LIT);
PL6.E3A0      #004=Z8E7$EDITED File=Z8E7.:Z8A6TSI                                SAT 08/09/97 11:48 Page:593

  17356 21 000533   200123 470500                    LDP0    ADDR_LIT$,,AUTO
        21 000534   200073 720100                    LXL0    ROP_LENGTH,,AUTO
        21 000535   200124 235100                    LDA     I,,AUTO
        21 000536   040145 100540                    MLR     fill='040'O
        21 000537   000000 000010                    ADSC9   0,,PR0                   cn=0,n=*X0
        21 000540   200103 000010                    ADSC9   CONST_BUF,A,AUTO         cn=0,n=*X0

     3475    17357    5                    I = I + ROP_LENGTH;

  17357 21 000541   200124 236100                    LDQ     I,,AUTO
        21 000542   200073 036100                    ADLQ    ROP_LENGTH,,AUTO
        21 000543   200124 756100                    STQ     I,,AUTO

     3476    17358    5                  END;

  17358 21 000544   200071 116100                    CMPQ    LOP_LENGTH,,AUTO
        21 000545   000533 604000 21                 TMI     s:17356

     3477    17359    4                  IF LOP_DESC.DESC.NDSC.SF < 0 THEN /* Zero out fractional digits */

  17359 21 000546   200034 236100                    LDQ     LOP_DESC+1,,AUTO
        21 000547   000030 736000                    QLS     24
        21 000550   000036 732000                    QRS     30
        21 000551   000000 116003                    CMPQ    0,DU
        21 000552   000567 605000 21                 TPL     s:17367

     3478    17360    4                    IF LOP_LENGTH + LOP_DESC.DESC.NDSC.SF <= 0 THEN

  17360 21 000553   200071 036100                    ADLQ    LOP_LENGTH,,AUTO
        21 000554   000562 605400 21                 TPNZ    s:17366

     3479    17361    5                      DO;

     3480    17362    5                        LOP_LENGTH = 1;

  17362 21 000555   000001 235007                    LDA     1,DL
PL6.E3A0      #004=Z8E7$EDITED File=Z8E7.:Z8A6TSI                                SAT 08/09/97 11:48 Page:594
        21 000556   200071 755100                    STA     LOP_LENGTH,,AUTO

     3481    17363    5                        CALL INSERT (CONST_BUF, 0, 1, '0');

  17363 21 000557   060000 236003                    LDQ     24576,DU
        21 000560   200103 552140                    STBQ    CONST_BUF,'40'O,AUTO

     3482    17364    5                      END;

  17364 21 000561   000567 710000 21                 TRA     s:17367

     3483    17365    4                    ELSE
     3484    17366    4                      LOP_LENGTH = LOP_LENGTH + LOP_DESC.DESC.NDSC.SF;

  17366 21 000562   200034 236100                    LDQ     LOP_DESC+1,,AUTO
        21 000563   000030 736000                    QLS     24
        21 000564   000036 732000                    QRS     30
        21 000565   200071 036100                    ADLQ    LOP_LENGTH,,AUTO
        21 000566   200071 756100                    STQ     LOP_LENGTH,,AUTO

     3485    17367    4                  LEX_SYMBOL.SIZE = LOP_LENGTH;

  17367 21 000567   200071 235100                    LDA     LOP_LENGTH,,AUTO
        21 000570   000010 755000 1                  STA     LEX_SYMBOL+8

     3486    17368    4                  LEX_SYMBOL.SYMBOL = CONST_BUF;

  17368 21 000571   040000 100500                    MLR     fill='040'O
        21 000572   200103 000077                    ADSC9   CONST_BUF,,AUTO          cn=0,n=63
        21 000573   000011 000504 1                  ADSC9   LEX_SYMBOL+9             cn=0,n=324

     3487    17369    4                  CALL Z8AH$SEARCH_;

  17369 21 000574   000001 631400 22                 EPPR1   1
        21 000575   000000 701000 xent               TSX1    Z8AH$SEARCH_
        21 000576   000000 011000                    NOP     0

PL6.E3A0      #004=Z8E7$EDITED File=Z8E7.:Z8A6TSI                                SAT 08/09/97 11:48 Page:595
     3488    17370                       %INIT_LX_TERMINAL (@POINTER = "ADDR(TEMP_LX_ETT_ITEM)",
     3489    17371                                          @TYPE    = %TYD,
     3490    17372                                          @SYMBOL  = %NUMERIC_LITERAL,
     3491    17373                                          @DNT$    = DNT$);

  17375 21 000577   000000 220003                    LDX0    0,DU
        21 000600   200050 740100                    STX0    TEMP_LX_ETT_ITEM,,AUTO

  17376 21 000601   000000 221003                    LDX1    0,DU
        21 000602   200050 441100                    SXL1    TEMP_LX_ETT_ITEM,,AUTO

  17380 21 000603   200054 450100                    STZ     TEMP_LX_ETT_ITEM+4,,AUTO

  17382 21 000604   000003 236000 22                 LDQ     3
        21 000605   200057 756100                    STQ     TEMP_LX_ETT_ITEM+7,,AUTO

  17384 21 000606   200051 756100                    STQ     TEMP_LX_ETT_ITEM+1,,AUTO

  17385 21 000607   000026 235007                    LDA     22,DL
        21 000610   200053 755100                    STA     TEMP_LX_ETT_ITEM+3,,AUTO

  17386 21 000611   000000 236000 14                 LDQ     DNT$
        21 000612   200052 756100                    STQ     TEMP_LX_ETT_ITEM+2,,AUTO

  17387 21 000613   000133 235000 xsym               LDA     COMCOM+91
        21 000614   200055 755100                    STA     TEMP_LX_ETT_ITEM+5,,AUTO

  17388 21 000615   000134 235000 xsym               LDA     COMCOM+92
        21 000616   200056 755100                    STA     TEMP_LX_ETT_ITEM+6,,AUTO

     3492    17391    4                  LOP_DESC.TYPE = %TYD;

  17391 21 000617   200033 450100                    STZ     LOP_DESC,,AUTO

     3493    17392    4                  CALL Z8EC$NEW_CONST_WITH_TYPE_DESC (LOP_DESC,

  17392 21 000620   200050 630500                    EPPR0   TEMP_LX_ETT_ITEM,,AUTO
PL6.E3A0      #004=Z8E7$EDITED File=Z8E7.:Z8A6TSI                                SAT 08/09/97 11:48 Page:596
        21 000621   200174 450500                    STP0    SELECTION_NDX+2,,AUTO
        21 000622   200070 631500                    EPPR1   TEMP$,,AUTO
        21 000623   200177 451500                    STP1    SELECTION_NDX+5,,AUTO
        21 000624   200174 633500                    EPPR3   SELECTION_NDX+2,,AUTO
        21 000625   200176 453500                    STP3    SELECTION_NDX+4,,AUTO
        21 000626   200033 634500                    EPPR4   LOP_DESC,,AUTO
        21 000627   200175 454500                    STP4    SELECTION_NDX+3,,AUTO
        21 000630   200175 630500                    EPPR0   SELECTION_NDX+3,,AUTO
        21 000631   000017 631400 22                 EPPR1   15
        21 000632   000000 701000 xent               TSX1    Z8EC$NEW_CONST_WITH_TYPE_DESC
        21 000633   000000 011000                    NOP     0

     3494    17393    4                                                      ADDR (TEMP_LX_ETT_ITEM),
     3495    17394    4                                                      TEMP$);
     3496    17395    4                END;

  17395 21 000634   000724 710000 21                 TRA     s:17522

     3497    17396    3              ELSE
     3498    17397    4                DO;

     3499    17398                       %UNPACK_NDSC(@DESC     = ROP_DESC.DESC ,
     3500    17399                                    @LENGTH   = ROP_LENGTH ,
     3501    17400                                    @SCALE    = ROP_SCALE );

  17407 21 000635   200040 236100                    LDQ     ROP_DESC+1,,AUTO
        21 000636   000014 772000                    QRL     12
        21 000637   000003 376007                    ANQ     3,DL
        21 000640   000004 116007                    CMPQ    4,DL
        21 000641   000643 602006 21                 TNC     s:17407+6,QL
        21 000642   000674 710000 21                 TRA     s:17447
        21 000643   000660 710000 21                 TRA     s:17431
        21 000644   000653 710000 21                 TRA     s:17414
        21 000645   000653 710000 21                 TRA     s:17414
        21 000646   000647 710000 21                 TRA     s:17409

  17409 21 000647   200040 236100                    LDQ     ROP_DESC+1,,AUTO
PL6.E3A0      #004=Z8E7$EDITED File=Z8E7.:Z8A6TSI                                SAT 08/09/97 11:48 Page:597
        21 000650   000077 376007                    ANQ     63,DL
        21 000651   200073 756100                    STQ     ROP_LENGTH,,AUTO
        21 000652   000674 710000 21                 TRA     s:17447

  17414 21 000653   200040 236100                    LDQ     ROP_DESC+1,,AUTO
        21 000654   000077 376007                    ANQ     63,DL
        21 000655   000001 136007                    SBLQ    1,DL
        21 000656   200073 756100                    STQ     ROP_LENGTH,,AUTO
        21 000657   000674 710000 21                 TRA     s:17447

  17431 21 000660   200040 236100                    LDQ     ROP_DESC+1,,AUTO
        21 000661   040000 316007                    CANQ    16384,DL
        21 000662   000670 600000 21                 TZE     s:17434

  17432 21 000663   200040 236100                    LDQ     ROP_DESC+1,,AUTO
        21 000664   000077 376007                    ANQ     63,DL
        21 000665   000003 136007                    SBLQ    3,DL
        21 000666   200073 756100                    STQ     ROP_LENGTH,,AUTO
        21 000667   000674 710000 21                 TRA     s:17447

  17434 21 000670   200040 236100                    LDQ     ROP_DESC+1,,AUTO
        21 000671   000077 376007                    ANQ     63,DL
        21 000672   000002 136007                    SBLQ    2,DL
        21 000673   200073 756100                    STQ     ROP_LENGTH,,AUTO

  17447 21 000674   200040 236100                    LDQ     ROP_DESC+1,,AUTO
        21 000675   000030 736000                    QLS     24
        21 000676   000036 732000                    QRS     30
        21 000677   200074 756100                    STQ     ROP_SCALE,,AUTO

     3502    17455
     3503    17456    4                  IF LOP_LENGTH ~= ROP_LENGTH

  17456 21 000700   200071 236100                    LDQ     LOP_LENGTH,,AUTO
        21 000701   200073 116100                    CMPQ    ROP_LENGTH,,AUTO
        21 000702   000706 601000 21                 TNZ     s:17459
        21 000703   200072 236100                    LDQ     LOP_SCALE,,AUTO
PL6.E3A0      #004=Z8E7$EDITED File=Z8E7.:Z8A6TSI                                SAT 08/09/97 11:48 Page:598
        21 000704   200074 116100                    CMPQ    ROP_SCALE,,AUTO
        21 000705   000724 600000 21                 TZE     s:17522

     3504    17457    4                  OR LOP_SCALE  ~= ROP_SCALE  THEN
     3505    17458    5                    DO;

     3506    17459    5                      CALL Z8AF$FORME_ON_SIZE ( %CVDD ,

  17459 21 000706   200005 236100                    LDQ     @ON_SIZE,,AUTO
        21 000707   200200 756100                    STQ     SELECTION_NDX+6,,AUTO
        21 000710   200070 631500                    EPPR1   TEMP$,,AUTO
        21 000711   200177 451500                    STP1    SELECTION_NDX+5,,AUTO
        21 000712   200034 633500                    EPPR3   LOP_DESC+1,,AUTO
        21 000713   200176 453500                    STP3    SELECTION_NDX+4,,AUTO
        21 000714   200070 634500                    EPPR4   TEMP$,,AUTO
        21 000715   200175 454500                    STP4    SELECTION_NDX+3,,AUTO
        21 000716   000022 236000 22                 LDQ     18
        21 000717   200174 756100                    STQ     SELECTION_NDX+2,,AUTO
        21 000720   200174 630500                    EPPR0   SELECTION_NDX+2,,AUTO
        21 000721   000020 631400 22                 EPPR1   16
        21 000722   000000 701000 xent               TSX1    Z8AF$FORME_ON_SIZE
        21 000723   000000 011000                    NOP     0

     3507    17460    5                                               TEMP$ ,
     3508    17461    5                                               LOP_DESC.DESC ,
     3509    17462    5                                               TEMP$ ,
     3510    17463    5                                               ON_SIZE);
     3511    17464    5                    END;

     3512    17465    4                END;

     3513    17466
     3514    17467                   %NEW_ILL( @ID      = %MVEDD ,
     3515    17468                             @FROM    = TEMP$ ,
     3516    17469                             @MOP     = NEL$$ -> NEL.MOP$ ,
     3517    17470                             @TO      = RECEIVING$ -> LX_ETT_ITEM.ETT$ );

PL6.E3A0      #004=Z8E7$EDITED File=Z8E7.:Z8A6TSI                                SAT 08/09/97 11:48 Page:599
  17522 21 000724   200003 470500                    LDP0    @RECEIVING$,,AUTO
        21 000725   000000 471500                    LDP1    0,,PR0
        21 000726   000012 236000 22                 LDQ     10
        21 000727   200174 756100                    STQ     SELECTION_NDX+2,,AUTO
        21 000730   100001 633500                    EPPR3   1,,PR1
        21 000731   200201 453500                    STP3    SELECTION_NDX+7,,AUTO
        21 000732   200174 631500                    EPPR1   SELECTION_NDX+2,,AUTO
        21 000733   200200 451500                    STP1    SELECTION_NDX+6,,AUTO
        21 000734   000026 237000 22                 LDAQ    22
        21 000735   200176 757100                    STAQ    SELECTION_NDX+4,,AUTO
        21 000736   000025 236000 22                 LDQ     21
        21 000737   200175 756100                    STQ     SELECTION_NDX+3,,AUTO
        21 000740   200175 630500                    EPPR0   SELECTION_NDX+3,,AUTO
        21 000741   000020 631400 22                 EPPR1   16
        21 000742   000000 701000 xent               TSX1    Z8AN$NEW_ILL1
        21 000743   000000 011000                    NOP     0

  17524 21 000744   200070 236100                    LDQ     TEMP$,,AUTO
        21 000745   000000 470400 6                  LDP0    ILL$
        21 000746   000001 756100                    STQ     1,,PR0

  17525 21 000747   200077 471500                    LDP1    NEL$$,,AUTO
        21 000750   100002 236100                    LDQ     2,,PR1
        21 000751   000002 756100                    STQ     2,,PR0

  17526 21 000752   200003 471500                    LDP1    @RECEIVING$,,AUTO
        21 000753   100000 473500                    LDP3    0,,PR1
        21 000754   300001 236100                    LDQ     1,,PR3
        21 000755   000003 756100                    STQ     3,,PR0

     3518    17849
     3519    17850    3              IF LOP_ST$ -> SCALAR.B.ASTERISK_SUPRESS THEN

  17850 21 000756   200075 473500                    LDP3    LOP_ST$,,AUTO
        21 000757   300003 236100                    LDQ     3,,PR3
        21 000760   000100 316003                    CANQ    64,DU
        21 000761   001316 600000 21                 TZE     s:18785
PL6.E3A0      #004=Z8E7$EDITED File=Z8E7.:Z8A6TSI                                SAT 08/09/97 11:48 Page:600

     3520    17851                     %NEW_ILL (@ID      = %DEFLB,
     3521    17852                               @LABEL$  = EXIT_LABEL$);

  18184 21 000762   000012 236000 22                 LDQ     10
        21 000763   200174 756100                    STQ     SELECTION_NDX+2,,AUTO
        21 000764   200174 634500                    EPPR4   SELECTION_NDX+2,,AUTO
        21 000765   200201 454500                    STP4    SELECTION_NDX+7,,AUTO
        21 000766   000013 236000 22                 LDQ     11
        21 000767   200200 756100                    STQ     SELECTION_NDX+6,,AUTO
        21 000770   000014 237000 22                 LDAQ    12
        21 000771   200176 757100                    STAQ    SELECTION_NDX+4,,AUTO
        21 000772   200176 630500                    EPPR0   SELECTION_NDX+4,,AUTO
        21 000773   000000 631400 22                 EPPR1   0
        21 000774   000000 701000 xent               TSX1    Z8AN$NEW_ILL
        21 000775   000000 011000                    NOP     0

  18185 21 000776   200102 236100                    LDQ     EXIT_LABEL$,,AUTO
        21 000777   000000 470400 6                  LDP0    ILL$
        21 001000   000001 756100                    STQ     1,,PR0

  18201 21 001001   001316 710000 21                 TRA     s:18785

     3522    18231
     3523    18232    3            CASE(%CLASS_ALPHANUMERIC, %CLASS_ALPHABETIC);

     3524    18233          /*V*  CLASS_ALPHABETIC is needed for PIC string ABA etc. with the COBOL74 opt */
     3525    18234
     3526    18235    3              IF LOP_ST$ -> VARIABLE.B.SUB_CLASS.TYPE = %CLASS_ALPHABETIC

  18235 21 001002   100003 236100                    LDQ     3,,PR1
        21 001003   000003 376007                    ANQ     3,DL
        21 001004   000002 116007                    CMPQ    2,DL
        21 001005   001011 601000 21                 TNZ     s:18240
        21 001006   000015 234000 xsym               SZN     COMCOM+13
        21 001007   001011 604000 21                 TMI     s:18240

PL6.E3A0      #004=Z8E7$EDITED File=Z8E7.:Z8A6TSI                                SAT 08/09/97 11:48 Page:601
     3527    18236    3                      AND   NOT  COMCOM.OB.COBOL_74        THEN
     3528    18237    3                 RETURN;

  18237 21 001010   000000 702200 xent               TSX2  ! X66_ARET

     3529    18238
     3530    18239
     3531    18240    3              CALL Z8EV$CONVERT_ON_SIZE (%TYA, SENDING$, SENDING$, ON_SIZE);

  18240 21 001011   200004 237100                    LDAQ    @SENDING$,,AUTO
        21 001012   200176 757100                    STAQ    SELECTION_NDX+4,,AUTO
        21 001013   200004 236100                    LDQ     @SENDING$,,AUTO
        21 001014   000031 235000 22                 LDA     25
        21 001015   200174 757100                    STAQ    SELECTION_NDX+2,,AUTO
        21 001016   200174 630500                    EPPR0   SELECTION_NDX+2,,AUTO
        21 001017   000000 631400 22                 EPPR1   0
        21 001020   000000 701000 xent               TSX1    Z8EV$CONVERT_ON_SIZE
        21 001021   000000 011000                    NOP     0

     3532    18241
     3533    18242    3              CALL Z8AU$TYPE_DESCRIPTOR (RECEIVING$ -> LX_ETT_ITEM.ETT$,

  18242 21 001022   200003 470500                    LDP0    @RECEIVING$,,AUTO
        21 001023   000000 471500                    LDP1    0,,PR0
        21 001024   200027 633500                    EPPR3   TYPE_DESC,,AUTO
        21 001025   200175 453500                    STP3    SELECTION_NDX+3,,AUTO
        21 001026   100001 634500                    EPPR4   1,,PR1
        21 001027   200174 454500                    STP4    SELECTION_NDX+2,,AUTO
        21 001030   200174 630500                    EPPR0   SELECTION_NDX+2,,AUTO
        21 001031   000004 631400 22                 EPPR1   4
        21 001032   000000 701000 xent               TSX1    Z8AU$TYPE_DESCRIPTOR
        21 001033   000000 011000                    NOP     0

     3534    18243    3                                         TYPE_DESC);
     3535    18244
     3536    18245    3              IF TYPE_DESC.TYPE = %TYB THEN

PL6.E3A0      #004=Z8E7$EDITED File=Z8E7.:Z8A6TSI                                SAT 08/09/97 11:48 Page:602
  18245 21 001034   200027 235100                    LDA     TYPE_DESC,,AUTO
        21 001035   000014 115007                    CMPA    12,DL
        21 001036   001063 601000 21                 TNZ     s:18257

     3537    18246    4                DO;

     3538    18247    4                  TEMP_DESC.DESC = TYPE_DESC.DESC;

  18247 21 001037   200030 236100                    LDQ     TYPE_DESC+1,,AUTO
        21 001040   200044 756100                    STQ     TEMP_DESC+1,,AUTO

     3539    18248    4                  TEMP_DESC.DESC.ADSC.TA = %ADSC9;

  18248 21 001041   000016 236000 22                 LDQ     14
        21 001042   200044 356100                    ANSQ    TEMP_DESC+1,,AUTO

     3540    18249    4                  TEMP_DESC.TYPE = %TYA;

  18249 21 001043   000010 235007                    LDA     8,DL
        21 001044   200043 755100                    STA     TEMP_DESC,,AUTO

     3541    18250    4                  TEMP_DESC.SIZ$ = ADDR(NIL);

  18250 21 001045   000003 236000 22                 LDQ     3
        21 001046   200045 756100                    STQ     TEMP_DESC+2,,AUTO

     3542    18251    4                  TEMP_DESC.SSOP$ = ADDR(NIL);

  18251 21 001047   200046 756100                    STQ     TEMP_DESC+3,,AUTO

     3543    18252
     3544    18253    4                  RECEIVING$ = ADDR(ASCII_LX_ETT_ITEM);

  18253 21 001050   200060 630500                    EPPR0   ASCII_LX_ETT_ITEM,,AUTO
        21 001051   200003 471500                    LDP1    @RECEIVING$,,AUTO
        21 001052   100000 450500                    STP0    0,,PR1

PL6.E3A0      #004=Z8E7$EDITED File=Z8E7.:Z8A6TSI                                SAT 08/09/97 11:48 Page:603
     3545    18254    4                  CALL Z8EU$NEW_TEMP_FROM_DESC (TEMP_DESC, RECEIVING$);

  18254 21 001053   200003 236100                    LDQ     @RECEIVING$,,AUTO
        21 001054   200175 756100                    STQ     SELECTION_NDX+3,,AUTO
        21 001055   200043 630500                    EPPR0   TEMP_DESC,,AUTO
        21 001056   200174 450500                    STP0    SELECTION_NDX+2,,AUTO
        21 001057   200174 630500                    EPPR0   SELECTION_NDX+2,,AUTO
        21 001060   000004 631400 22                 EPPR1   4
        21 001061   000000 701000 xent               TSX1    Z8EU$NEW_TEMP_FROM_DESC
        21 001062   000000 011000                    NOP     0

     3546    18255    4                END;

     3547    18256
     3548    18257    3              IF (TYPE_DESC.SIZ$ ~= ADDR(NIL)

  18257 21 001063   200031 236100                    LDQ     TYPE_DESC+2,,AUTO
        21 001064   000003 116000 22                 CMPQ    3
        21 001065   001072 601000 21                 TNZ     s:18257+7
        21 001066   200030 236100                    LDQ     TYPE_DESC+1,,AUTO
        21 001067   007777 376007                    ANQ     4095,DL
        21 001070   000100 116007                    CMPQ    64,DL
        21 001071   001106 602000 21                 TNC     SHORT_LOP
        21 001072   200004 470500                    LDP0    @SENDING$,,AUTO
        21 001073   000000 471500                    LDP1    0,,PR0
        21 001074   100000 236100                    LDQ     0,,PR1
        21 001075   040000 316007                    CANQ    16384,DL
        21 001076   001106 601000 21                 TNZ     SHORT_LOP

     3549    18258    3              OR TYPE_DESC.DESC.ADSC.N > 63)
     3550    18259    3              AND  (SENDING$ -> LX_ETT_ITEM.B.ALL = %FALSE)  THEN
     3551    18260    3                CALL LONG_ALPHANUMERIC_EDITED (SENDING$, RECEIVING$);

  18260 21 001077   200003 236100                    LDQ     @RECEIVING$,,AUTO
        21 001100   200130 756100                    STQ     @ROP$+1,,AUTO
        21 001101   200004 236100                    LDQ     @SENDING$,,AUTO
        21 001102   200127 756100                    STQ     I+3,,AUTO
PL6.E3A0      #004=Z8E7$EDITED File=Z8E7.:Z8A6TSI                                SAT 08/09/97 11:48 Page:604
        21 001103   001402 701000 21                 TSX1    LONG_ALPHANUMERIC_EDITED
        21 001104   000000 011000                    NOP     0
        21 001105   001316 710000 21                 TRA     s:18785

     3552    18261    3              ELSE
     3553    18262    4   SHORT_LOP:   DO;

  18262 21 001106                       SHORT_LOP    null
     3554    18263
     3555    18264                       %GET_LTS( @ID      = %NEL ,
     3556    18265                                 @ST$     = LOP_ST$ ,
     3557    18266                                 @RETURN$ = NEL$$ );

  18268 21 001106   200075 470500                    LDP0    LOP_ST$,,AUTO
        21 001107   000005 236100                    LDQ     5,,PR0
        21 001110   000003 116000 22                 CMPQ    3
        21 001111   001121 600000 21                 TZE     s:18302
        21 001112   000005 471500                    LDP1    5,,PR0
        21 001113   100000 220100                    LDX0    0,,PR1
        21 001114   001105 100003                    CMPX0   581,DU
        21 001115   001121 601000 21                 TNZ     s:18302

  18274 21 001116   100002 236100                    LDQ     2,,PR1
        21 001117   200077 756100                    STQ     NEL$$,,AUTO

  18300 21 001120   001133 710000 21                 TRA     s:18310

  18302 21 001121   000003 116000 22                 CMPQ    3
        21 001122   001131 600000 21                 TZE     s:18306
        21 001123   000005 471500                    LDP1    5,,PR0
        21 001124   100000 220100                    LDX0    0,,PR1
        21 001125   001115 100003                    CMPX0   589,DU
        21 001126   001131 601000 21                 TNZ     s:18306

  18304 21 001127   200077 756100                    STQ     NEL$$,,AUTO
        21 001130   001133 710000 21                 TRA     s:18310

PL6.E3A0      #004=Z8E7$EDITED File=Z8E7.:Z8A6TSI                                SAT 08/09/97 11:48 Page:605
  18306 21 001131   000003 236000 22                 LDQ     3
        21 001132   200077 756100                    STQ     NEL$$,,AUTO

     3558    18309
     3559    18310    4                  LOP_DESC.DESC = NEL$$ -> NEL.DESC;

  18310 21 001133   200077 471500                    LDP1    NEL$$,,AUTO
        21 001134   100001 236100                    LDQ     1,,PR1
        21 001135   200034 756100                    STQ     LOP_DESC+1,,AUTO

     3560    18311
     3561    18312    4                  CALL Z8AU$TYPE_DESCRIPTOR (SENDING$ -> LX_ETT_ITEM.ETT$, ROP_DESC);

  18312 21 001136   200004 473500                    LDP3    @SENDING$,,AUTO
        21 001137   300000 474500                    LDP4    0,,PR3
        21 001140   200037 635500                    EPPR5   ROP_DESC,,AUTO
        21 001141   200175 455500                    STP5    SELECTION_NDX+3,,AUTO
        21 001142   400001 636500                    EPPR6   1,,PR4
        21 001143   200174 456500                    STP6    SELECTION_NDX+2,,AUTO
        21 001144   200174 630500                    EPPR0   SELECTION_NDX+2,,AUTO
        21 001145   000004 631400 22                 EPPR1   4
        21 001146   000000 701000 xent               TSX1    Z8AU$TYPE_DESCRIPTOR
        21 001147   000000 011000                    NOP     0

     3562    18313
     3563    18314                       %UNPACK_ADSC (@DESC    = ROP_DESC.DESC,
     3564    18315                                     @LENGTH  = ROP_LENGTH);

  18325 21 001150   200040 236100                    LDQ     ROP_DESC+1,,AUTO
        21 001151   007777 376007                    ANQ     4095,DL
        21 001152   200073 756100                    STQ     ROP_LENGTH,,AUTO

     3565    18338
     3566    18339                       %UNPACK_ADSC (@DESC    = LOP_DESC.DESC,
     3567    18340                                     @LENGTH  = LOP_LENGTH);

  18350 21 001153   200034 236100                    LDQ     LOP_DESC+1,,AUTO
PL6.E3A0      #004=Z8E7$EDITED File=Z8E7.:Z8A6TSI                                SAT 08/09/97 11:48 Page:606
        21 001154   007777 376007                    ANQ     4095,DL
        21 001155   200071 756100                    STQ     LOP_LENGTH,,AUTO

     3568    18363
     3569    18364    4                  IF LOP_LENGTH ~= ROP_LENGTH THEN

  18364 21 001156   200073 116100                    CMPQ    ROP_LENGTH,,AUTO
        21 001157   001262 600000 21                 TZE     s:18454

     3570    18365    5                    DO;

     3571    18366    5                      IF SENDING$ -> LX_ETT_ITEM.B.ALL THEN

  18366 21 001160   200004 470500                    LDP0    @SENDING$,,AUTO
        21 001161   000000 471500                    LDP1    0,,PR0
        21 001162   100000 236100                    LDQ     0,,PR1
        21 001163   040000 316007                    CANQ    16384,DL
        21 001164   001244 600000 21                 TZE     s:18392

     3572    18367    6                        DO;

     3573    18368    6                          TEMP_DESC.DESC = LOP_DESC.DESC;

  18368 21 001165   200034 236100                    LDQ     LOP_DESC+1,,AUTO
        21 001166   200044 756100                    STQ     TEMP_DESC+1,,AUTO

     3574    18369    6                          TEMP_DESC.TYPE = %TYA;

  18369 21 001167   000010 235007                    LDA     8,DL
        21 001170   200043 755100                    STA     TEMP_DESC,,AUTO

     3575    18370    6                          TEMP_DESC.SIZ$ = ADDR(NIL);

  18370 21 001171   000003 236000 22                 LDQ     3
        21 001172   200045 756100                    STQ     TEMP_DESC+2,,AUTO

     3576    18371    6                          TEMP_DESC.SSOP$= ADDR(NIL);
PL6.E3A0      #004=Z8E7$EDITED File=Z8E7.:Z8A6TSI                                SAT 08/09/97 11:48 Page:607

  18371 21 001173   200046 756100                    STQ     TEMP_DESC+3,,AUTO

     3577    18372
     3578    18373    6                          TEMP$ = ADDR(TEMP_LX_ETT_ITEM);

  18373 21 001174   200050 631500                    EPPR1   TEMP_LX_ETT_ITEM,,AUTO
        21 001175   200070 451500                    STP1    TEMP$,,AUTO

     3579    18374
     3580    18375    6                          CALL Z8EU$NEW_TEMP_FROM_DESC (TEMP_DESC, TEMP$);

  18375 21 001176   200070 633500                    EPPR3   TEMP$,,AUTO
        21 001177   200175 453500                    STP3    SELECTION_NDX+3,,AUTO
        21 001200   200043 634500                    EPPR4   TEMP_DESC,,AUTO
        21 001201   200174 454500                    STP4    SELECTION_NDX+2,,AUTO
        21 001202   200174 630500                    EPPR0   SELECTION_NDX+2,,AUTO
        21 001203   000004 631400 22                 EPPR1   4
        21 001204   000000 701000 xent               TSX1    Z8EU$NEW_TEMP_FROM_DESC
        21 001205   000000 011000                    NOP     0

     3581    18376
     3582    18377    6                          TEMP$ -> LX_ETT_ITEM.B = RECEIVING$ -> LX_ETT_ITEM.B;

  18377 21 001206   200003 470500                    LDP0    @RECEIVING$,,AUTO
        21 001207   000000 471500                    LDP1    0,,PR0
        21 001210   100000 720100                    LXL0    0,,PR1
        21 001211   200070 473500                    LDP3    TEMP$,,AUTO
        21 001212   300000 440100                    SXL0    0,,PR3

     3583    18378
     3584    18379    6                          CALL Z8E7$MOVE (TEMP$, SENDING$);

  18379 21 001213   200004 236100                    LDQ     @SENDING$,,AUTO
        21 001214   200175 756100                    STQ     SELECTION_NDX+3,,AUTO
        21 001215   200070 631500                    EPPR1   TEMP$,,AUTO
        21 001216   200174 451500                    STP1    SELECTION_NDX+2,,AUTO
PL6.E3A0      #004=Z8E7$EDITED File=Z8E7.:Z8A6TSI                                SAT 08/09/97 11:48 Page:608
        21 001217   200174 630500                    EPPR0   SELECTION_NDX+2,,AUTO
        21 001220   000004 631400 22                 EPPR1   4
        21 001221   000000 701000 xent               TSX1    Z8E7$MOVE
        21 001222   000000 011000                    NOP     0

     3585    18380
     3586    18381    6                          SENDING$ = TEMP$;

  18381 21 001223   200070 236100                    LDQ     TEMP$,,AUTO
        21 001224   200004 470500                    LDP0    @SENDING$,,AUTO
        21 001225   000000 756100                    STQ     0,,PR0

     3587    18382
     3588    18383    6                          IF TYPE_DESC.SIZ$ ~= ADDR(NIL) OR

  18383 21 001226   200031 236100                    LDQ     TYPE_DESC+2,,AUTO
        21 001227   000003 116000 22                 CMPQ    3
        21 001230   001235 601000 21                 TNZ     s:18386
        21 001231   200030 236100                    LDQ     TYPE_DESC+1,,AUTO
        21 001232   007777 376007                    ANQ     4095,DL
        21 001233   000100 116007                    CMPQ    64,DL
        21 001234   001262 602000 21                 TNC     s:18454

     3589    18384    6                             TYPE_DESC.DESC.ADSC.N > 63     THEN
     3590    18385    7                            DO;

     3591    18386    7                              CALL LONG_ALPHANUMERIC_EDITED( SENDING$, RECEIVING$ );

  18386 21 001235   200003 236100                    LDQ     @RECEIVING$,,AUTO
        21 001236   200130 756100                    STQ     @ROP$+1,,AUTO
        21 001237   200004 236100                    LDQ     @SENDING$,,AUTO
        21 001240   200127 756100                    STQ     I+3,,AUTO
        21 001241   001402 701000 21                 TSX1    LONG_ALPHANUMERIC_EDITED
        21 001242   000000 011000                    NOP     0

     3592    18387    7                              EXIT SHORT_LOP;

PL6.E3A0      #004=Z8E7$EDITED File=Z8E7.:Z8A6TSI                                SAT 08/09/97 11:48 Page:609
  18387 21 001243   001316 710000 21                 TRA     s:18785

     3593    18388    7                            END;
     3594    18389
     3595    18390    6                        END;
     3596    18391    5                      ELSE
     3597    18392    5                        CALL Z8AF$FORME_ON_SIZE (%CVAA,

  18392 21 001244   200005 236100                    LDQ     @ON_SIZE,,AUTO
        21 001245   200200 756100                    STQ     SELECTION_NDX+6,,AUTO
        21 001246   100001 633500                    EPPR3   1,,PR1
        21 001247   200177 453500                    STP3    SELECTION_NDX+5,,AUTO
        21 001250   200034 634500                    EPPR4   LOP_DESC+1,,AUTO
        21 001251   200176 454500                    STP4    SELECTION_NDX+4,,AUTO
        21 001252   100001 635500                    EPPR5   1,,PR1
        21 001253   200175 455500                    STP5    SELECTION_NDX+3,,AUTO
        21 001254   000033 236000 22                 LDQ     27
        21 001255   200174 756100                    STQ     SELECTION_NDX+2,,AUTO
        21 001256   200174 630500                    EPPR0   SELECTION_NDX+2,,AUTO
        21 001257   000020 631400 22                 EPPR1   16
        21 001260   000000 701000 xent               TSX1    Z8AF$FORME_ON_SIZE
        21 001261   000000 011000                    NOP     0

     3598    18393    5                                                 SENDING$ -> LX_ETT_ITEM.ETT$,
     3599    18394    5                                                 LOP_DESC.DESC,
     3600    18395    5                                                SENDING$ -> LX_ETT_ITEM.ETT$, ON_SIZE)
             18395                                                          ;
     3601    18396    5                    END;

     3602    18397
     3603    18398
     3604    18399                       %NEW_ILL( @ID      = %MVEAN ,
     3605    18400                                 @FROM    = SENDING$ -> LX_ETT_ITEM.ETT$ ,
     3606    18401                                 @MOP     = NEL$$ -> NEL.MOP$ ,
     3607    18402                                 @TO      = RECEIVING$ -> LX_ETT_ITEM.ETT$ );

  18454 21 001262   200003 470500                    LDP0    @RECEIVING$,,AUTO
PL6.E3A0      #004=Z8E7$EDITED File=Z8E7.:Z8A6TSI                                SAT 08/09/97 11:48 Page:610
        21 001263   000000 471500                    LDP1    0,,PR0
        21 001264   000012 236000 22                 LDQ     10
        21 001265   200174 756100                    STQ     SELECTION_NDX+2,,AUTO
        21 001266   100001 633500                    EPPR3   1,,PR1
        21 001267   200201 453500                    STP3    SELECTION_NDX+7,,AUTO
        21 001270   200174 631500                    EPPR1   SELECTION_NDX+2,,AUTO
        21 001271   200200 451500                    STP1    SELECTION_NDX+6,,AUTO
        21 001272   000036 237000 22                 LDAQ    30
        21 001273   200176 757100                    STAQ    SELECTION_NDX+4,,AUTO
        21 001274   000025 236000 22                 LDQ     21
        21 001275   200175 756100                    STQ     SELECTION_NDX+3,,AUTO
        21 001276   200175 630500                    EPPR0   SELECTION_NDX+3,,AUTO
        21 001277   000020 631400 22                 EPPR1   16
        21 001300   000000 701000 xent               TSX1    Z8AN$NEW_ILL1
        21 001301   000000 011000                    NOP     0

  18456 21 001302   200004 470500                    LDP0    @SENDING$,,AUTO
        21 001303   000000 471500                    LDP1    0,,PR0
        21 001304   100001 236100                    LDQ     1,,PR1
        21 001305   000000 473400 6                  LDP3    ILL$
        21 001306   300001 756100                    STQ     1,,PR3

  18457 21 001307   200077 471500                    LDP1    NEL$$,,AUTO
        21 001310   100002 236100                    LDQ     2,,PR1
        21 001311   300002 756100                    STQ     2,,PR3

  18458 21 001312   200003 471500                    LDP1    @RECEIVING$,,AUTO
        21 001313   100000 474500                    LDP4    0,,PR1
        21 001314   400001 236100                    LDQ     1,,PR4
        21 001315   300003 756100                    STQ     3,,PR3

     3608    18781    4                END; /* SHORT_LOP */

     3609    18782
     3610    18783    3          END;

     3611    18784
PL6.E3A0      #004=Z8E7$EDITED File=Z8E7.:Z8A6TSI                                SAT 08/09/97 11:48 Page:611
     3612    18785    2          IF LOP_ST$ -> VARIABLE.TYPE = %TYB OR LOP_ST$ -> VARIABLE.TYPE = %TYE THEN

  18785 21 001316   200075 470500                    LDP0    LOP_ST$,,AUTO
        21 001317   000002 220100                    LDX0    2,,PR0
        21 001320   000014 100003                    CMPX0   12,DU
        21 001321   001324 600000 21                 TZE     s:18787
        21 001322   000006 100003                    CMPX0   6,DU
        21 001323   001400 601000 21                 TNZ     s:19174

     3613    18786    3            DO;

     3614    18787    3              IF LOP_ST$ -> VARIABLE.TYPE = %TYB THEN

  18787 21 001324   000014 100003                    CMPX0   12,DU
        21 001325   001337 601000 21                 TNZ     s:18790

     3615    18788    3                CALL Z8CO$CREATE_LIBRARY_BASE (%OP_ASCII_TO_GBCD, TABLE_ETT$);

  18788 21 001326   200101 631500                    EPPR1   TABLE_ETT$,,AUTO
        21 001327   200175 451500                    STP1    SELECTION_NDX+3,,AUTO
        21 001330   000040 236000 22                 LDQ     32
        21 001331   200174 756100                    STQ     SELECTION_NDX+2,,AUTO
        21 001332   200174 630500                    EPPR0   SELECTION_NDX+2,,AUTO
        21 001333   000004 631400 22                 EPPR1   4
        21 001334   000000 701000 xent               TSX1    Z8CO$CREATE_LIBRARY_BASE
        21 001335   000000 011000                    NOP     0
        21 001336   001347 710000 21                 TRA     s:19066

     3616    18789    3              ELSE
     3617    18790    3                CALL Z8CO$CREATE_LIBRARY_BASE (%OP_ASCII_TO_EBCDIC, TABLE_ETT$);

  18790 21 001337   200101 631500                    EPPR1   TABLE_ETT$,,AUTO
        21 001340   200175 451500                    STP1    SELECTION_NDX+3,,AUTO
        21 001341   000042 236000 22                 LDQ     34
        21 001342   200174 756100                    STQ     SELECTION_NDX+2,,AUTO
        21 001343   200174 630500                    EPPR0   SELECTION_NDX+2,,AUTO
        21 001344   000004 631400 22                 EPPR1   4
PL6.E3A0      #004=Z8E7$EDITED File=Z8E7.:Z8A6TSI                                SAT 08/09/97 11:48 Page:612
        21 001345   000000 701000 xent               TSX1    Z8CO$CREATE_LIBRARY_BASE
        21 001346   000000 011000                    NOP     0

     3618    18791                   %NEW_ILL (@ID    = %MVT,
     3619    18792                             @FROM  = RECEIVING$ -> LX_ETT_ITEM.ETT$,
     3620    18793                             @TABLE = TABLE_ETT$,
     3621    18794                             @TO    = CONV_RECEIVING$ -> LX_ETT_ITEM.ETT$);

  19066 21 001347   000012 236000 22                 LDQ     10
        21 001350   200174 756100                    STQ     SELECTION_NDX+2,,AUTO
        21 001351   200100 236100                    LDQ     CONV_RECEIVING$,,AUTO
        21 001352   000001 036003                    ADLQ    1,DU
        21 001353   200201 756100                    STQ     SELECTION_NDX+7,,AUTO
        21 001354   200174 630500                    EPPR0   SELECTION_NDX+2,,AUTO
        21 001355   200200 450500                    STP0    SELECTION_NDX+6,,AUTO
        21 001356   000044 237000 22                 LDAQ    36
        21 001357   200176 757100                    STAQ    SELECTION_NDX+4,,AUTO
        21 001360   000025 236000 22                 LDQ     21
        21 001361   200175 756100                    STQ     SELECTION_NDX+3,,AUTO
        21 001362   200175 630500                    EPPR0   SELECTION_NDX+3,,AUTO
        21 001363   000020 631400 22                 EPPR1   16
        21 001364   000000 701000 xent               TSX1    Z8AN$NEW_ILL1
        21 001365   000000 011000                    NOP     0

  19067 21 001366   200003 470500                    LDP0    @RECEIVING$,,AUTO
        21 001367   000000 471500                    LDP1    0,,PR0
        21 001370   100001 236100                    LDQ     1,,PR1
        21 001371   000000 473400 6                  LDP3    ILL$
        21 001372   300001 756100                    STQ     1,,PR3

  19068 21 001373   200101 236100                    LDQ     TABLE_ETT$,,AUTO
        21 001374   300002 756100                    STQ     2,,PR3

  19069 21 001375   200100 471500                    LDP1    CONV_RECEIVING$,,AUTO
        21 001376   100001 236100                    LDQ     1,,PR1
        21 001377   300003 756100                    STQ     3,,PR3

PL6.E3A0      #004=Z8E7$EDITED File=Z8E7.:Z8A6TSI                                SAT 08/09/97 11:48 Page:613
     3622    19173    3            END;

     3623    19174    2          ALTRETURN;

  19174 21 001400   000000 702200 xent               TSX2  ! X66_AALT
        21 001401   001734 710000 21                 TRA     s:19855

     3624    19175    2        END;
     3625    19176        %EJECT;
PL6.E3A0      #004=Z8E7$EDITED File=Z8E7.:Z8A6TSI                                SAT 08/09/97 11:48 Page:614
     3626    19177        /*========================*/
     3627    19178    1     LONG_ALPHANUMERIC_EDITED: PROC (ROP$, LOP$);

  19178 21 001402   200126 741300       LONG_ALPHAN* STX1  ! I+2,,AUTO

     3628    19179        /*========================*/
     3629    19180
     3630    19181    2   DCL ROP$               PTR;
     3631    19182    2   DCL LOP$               PTR;
     3632    19183
     3633    19184    2   DCL 1 TYPE_DESC        ALIGNED,
     3634    19185             %TYPE_DESC;
     3635    19219
     3636    19220    2   DCL 1 DESC_BLK         ALIGNED,
     3637    19221    2        2 SEND            UBIN WORD UNAL,
     3638    19222    2        2 REC             UBIN WORD UNAL,
     3639    19223    2        2 PIC             UBIN WORD UNAL;
     3640    19224
     3641    19225    2   DCL CHAR_DESC_BLK      REDEF DESC_BLK CHAR (12);
     3642    19226
     3643    19227    2   DCL CONST$             PTR;
     3644    19228    2   DCL LCNST$             PTR;
     3645    19229    2   DCL PIC$               PTR;
     3646    19230    2   DCL NEL$$              PTR;
     3647    19231
     3648    19232        %DCL_AUTO_LX_ITEM      (@NAME = PIC_STR);
     3649    19236
     3650    19237        %EJECT;
PL6.E3A0      #004=Z8E7$EDITED File=Z8E7.:Z8A6TSI                                SAT 08/09/97 11:48 Page:615
     3651    19238
     3652    19239
     3653    19240    2      CALL Z8AU$TYPE_DESCRIPTOR (ROP$ -> LX_ETT_ITEM.ETT$, TYPE_DESC);

  19240 21 001403   200127 470500                    LDP0    @ROP$,,AUTO
        21 001404   000000 471500                    LDP1    0,,PR0
        21 001405   200131 633500                    EPPR3   TYPE_DESC,,AUTO
        21 001406   200175 453500                    STP3    SELECTION_NDX+3,,AUTO
        21 001407   100001 634500                    EPPR4   1,,PR1
        21 001410   200174 454500                    STP4    SELECTION_NDX+2,,AUTO
        21 001411   200174 630500                    EPPR0   SELECTION_NDX+2,,AUTO
        21 001412   000004 631400 22                 EPPR1   4
        21 001413   000000 701000 xent               TSX1    Z8AU$TYPE_DESCRIPTOR
        21 001414   000000 011000                    NOP     0

     3654    19241
     3655    19242    2      IF TYPE_DESC.SIZ$ ~= ADDR(NIL) THEN

  19242 21 001415   200133 236100                    LDQ     PIC_CONST$,,AUTO
        21 001416   000003 116000 22                 CMPQ    3
        21 001417   001425 600000 21                 TZE     s:19245

     3656    19243    2        DESC_BLK.SEND = TYPE_DESC.SIZ$ -> ETT.LOP -> CONST.CONSTI.WORD1;

  19243 21 001420   200133 470500                    LDP0    PIC_CONST$,,AUTO
        21 001421   000001 471500                    LDP1    1,,PR0
        21 001422   100010 235100                    LDA     8,,PR1
        21 001423   200135 755100                    STA     DESC_BLK,,AUTO
        21 001424   001430 710000 21                 TRA     s:19247

     3657    19244    2      ELSE
     3658    19245    2        DESC_BLK.SEND = TYPE_DESC.DESC.ADSC.N;

  19245 21 001425   200132 236100                    LDQ     @EXIT_LABEL$,,AUTO
        21 001426   007777 376007                    ANQ     4095,DL
        21 001427   200135 756100                    STQ     DESC_BLK,,AUTO

PL6.E3A0      #004=Z8E7$EDITED File=Z8E7.:Z8A6TSI                                SAT 08/09/97 11:48 Page:616
     3659    19246
     3660    19247    2      CALL Z8AU$TYPE_DESCRIPTOR (LOP$ -> LX_ETT_ITEM.ETT$, TYPE_DESC);

  19247 21 001430   200130 470500                    LDP0    @LOP$,,AUTO
        21 001431   000000 471500                    LDP1    0,,PR0
        21 001432   200131 633500                    EPPR3   TYPE_DESC,,AUTO
        21 001433   200175 453500                    STP3    SELECTION_NDX+3,,AUTO
        21 001434   100001 634500                    EPPR4   1,,PR1
        21 001435   200174 454500                    STP4    SELECTION_NDX+2,,AUTO
        21 001436   200174 630500                    EPPR0   SELECTION_NDX+2,,AUTO
        21 001437   000004 631400 22                 EPPR1   4
        21 001440   000000 701000 xent               TSX1    Z8AU$TYPE_DESCRIPTOR
        21 001441   000000 011000                    NOP     0

     3661    19248
     3662    19249    2      IF TYPE_DESC.SIZ$ ~= ADDR(NIL) THEN

  19249 21 001442   200133 236100                    LDQ     PIC_CONST$,,AUTO
        21 001443   000003 116000 22                 CMPQ    3
        21 001444   001452 600000 21                 TZE     s:19252

     3663    19250    2        DESC_BLK.REC = TYPE_DESC.SIZ$ -> ETT.LOP -> CONST.CONSTI.WORD1;

  19250 21 001445   200133 470500                    LDP0    PIC_CONST$,,AUTO
        21 001446   000001 471500                    LDP1    1,,PR0
        21 001447   100010 235100                    LDA     8,,PR1
        21 001450   200136 755100                    STA     UNARY_ZERO,,AUTO
        21 001451   001455 710000 21                 TRA     s:19258

     3664    19251    2      ELSE
     3665    19252    2        DESC_BLK.REC = TYPE_DESC.DESC.ADSC.N;

  19252 21 001452   200132 236100                    LDQ     @EXIT_LABEL$,,AUTO
        21 001453   007777 376007                    ANQ     4095,DL
        21 001454   200136 756100                    STQ     UNARY_ZERO,,AUTO

     3666    19253
PL6.E3A0      #004=Z8E7$EDITED File=Z8E7.:Z8A6TSI                                SAT 08/09/97 11:48 Page:617
     3667    19254           %GET_LTS (@ID     = %NEL,
     3668    19255                     @ST$    = LOP_ST$,
     3669    19256                     @RETURN$ = NEL$$);

  19258 21 001455   200075 470500                    LDP0    LOP_ST$,,AUTO
        21 001456   000005 236100                    LDQ     5,,PR0
        21 001457   000003 116000 22                 CMPQ    3
        21 001460   001470 600000 21                 TZE     s:19292
        21 001461   000005 471500                    LDP1    5,,PR0
        21 001462   100000 220100                    LDX0    0,,PR1
        21 001463   001105 100003                    CMPX0   581,DU
        21 001464   001470 601000 21                 TNZ     s:19292

  19264 21 001465   100002 236100                    LDQ     2,,PR1
        21 001466   200143 756100                    STQ     NEL$$,,AUTO

  19290 21 001467   001502 710000 21                 TRA     s:19300

  19292 21 001470   000003 116000 22                 CMPQ    3
        21 001471   001500 600000 21                 TZE     s:19296
        21 001472   000005 471500                    LDP1    5,,PR0
        21 001473   100000 220100                    LDX0    0,,PR1
        21 001474   001115 100003                    CMPX0   589,DU
        21 001475   001500 601000 21                 TNZ     s:19296

  19294 21 001476   200143 756100                    STQ     NEL$$,,AUTO
        21 001477   001502 710000 21                 TRA     s:19300

  19296 21 001500   000003 236000 22                 LDQ     3
        21 001501   200143 756100                    STQ     NEL$$,,AUTO

     3670    19299
     3671    19300    2      DESC_BLK.PIC = NEL$$ -> NEL.DNT$ -> DNT.TEXT.LENGTH;

  19300 21 001502   200143 471500                    LDP1    NEL$$,,AUTO
        21 001503   100003 473500                    LDP3    3,,PR1
        21 001504   300004 236100                    LDQ     4,,PR3
PL6.E3A0      #004=Z8E7$EDITED File=Z8E7.:Z8A6TSI                                SAT 08/09/97 11:48 Page:618
        21 001505   000022 772000                    QRL     18
        21 001506   200137 756100                    STQ     UNARY_ZERO+1,,AUTO

     3672    19301
     3673    19302           %NEW_CONST (@ST$    = CONST$,
     3674    19303                       @TYPE   = %TYA,
     3675    19304                       @LONG_CONSTANT = TRUE);

  19308 21 001507   000002 236000 19                 LDQ     ST_+2
        21 001510   000013 036007                    ADLQ    11,DL
        21 001511   000003 116000 19                 CMPQ    ST_+3
        21 001512   001523 604000 21                 TMI     s:19310

  19309 21 001513   000046 236000 22                 LDQ     38
        21 001514   200174 756100                    STQ     SELECTION_NDX+2,,AUTO
        21 001515   200174 633500                    EPPR3   SELECTION_NDX+2,,AUTO
        21 001516   200175 453500                    STP3    SELECTION_NDX+3,,AUTO
        21 001517   200175 630500                    EPPR0   SELECTION_NDX+3,,AUTO
        21 001520   000007 631400 22                 EPPR1   7
        21 001521   000000 701000 xent               TSX1    Z8AR$RESERVER
        21 001522   000000 011000                    NOP     0

  19310 21 001523   000002 236000 19                 LDQ     ST_+2
        21 001524   000022 736000                    QLS     18
        21 001525   000001 036000 19                 ADLQ    ST_+1
        21 001526   200140 756100                    STQ     CONST$,,AUTO

  19311 21 001527   000013 236007                    LDQ     11,DL
        21 001530   000002 056000 19                 ASQ     ST_+2

  19314 21 001531   000767 220003                    LDX0    503,DU
        21 001532   200140 470500                    LDP0    CONST$,,AUTO
        21 001533   000000 740100                    STX0    0,,PR0

  19315 21 001534   200140 470500                    LDP0    CONST$,,AUTO
        21 001535   001000 236007                    LDQ     512,DL
        21 001536   000000 552110                    STBQ    0,'10'O,PR0
PL6.E3A0      #004=Z8E7$EDITED File=Z8E7.:Z8A6TSI                                SAT 08/09/97 11:48 Page:619

  19316 21 001537   200140 470500                    LDP0    CONST$,,AUTO
        21 001540   000126 236000 xsym               LDQ     O1COM+86
        21 001541   000000 552104                    STBQ    0,'04'O,PR0

  19317 21 001542   000010 221003                    LDX1    8,DU
        21 001543   200140 470500                    LDP0    CONST$,,AUTO
        21 001544   000002 741100                    STX1    2,,PR0

  19318 21 001545   200140 470500                    LDP0    CONST$,,AUTO
        21 001546   000003 450100                    STZ     3,,PR0

  19319 21 001547   000003 236000 22                 LDQ     3
        21 001550   200140 470500                    LDP0    CONST$,,AUTO
        21 001551   000004 756100                    STQ     4,,PR0

  19320 21 001552   200140 470500                    LDP0    CONST$,,AUTO
        21 001553   000005 756100                    STQ     5,,PR0

  19321 21 001554   200140 470500                    LDP0    CONST$,,AUTO
        21 001555   000006 756100                    STQ     6,,PR0

  19323 21 001556   200140 470500                    LDP0    CONST$,,AUTO
        21 001557   400000 236003                    LDQ     -131072,DU
        21 001560   000003 256100                    ORSQ    3,,PR0

     3676    19345
     3677    19346           %NEW_LCNST (@POINTER= LCNST$,
     3678    19347                       @SIZE   = "3 + 1",
     3679    19348                       @CONST  = CHAR_DESC_BLK);

  19350 21 001561   000004 235007                    LDA     4,DL
        21 001562   000000 755000 0                  STA     ITERATION

  19428 21 001563   000002 236000 9                  LDQ     LTS_+2
        21 001564   000000 036000 0                  ADLQ    ITERATION
        21 001565   000003 116000 9                  CMPQ    LTS_+3
PL6.E3A0      #004=Z8E7$EDITED File=Z8E7.:Z8A6TSI                                SAT 08/09/97 11:48 Page:620
        21 001566   001577 604000 21                 TMI     s:19430

  19429 21 001567   000047 236000 22                 LDQ     39
        21 001570   200174 756100                    STQ     SELECTION_NDX+2,,AUTO
        21 001571   200174 630500                    EPPR0   SELECTION_NDX+2,,AUTO
        21 001572   200175 450500                    STP0    SELECTION_NDX+3,,AUTO
        21 001573   200175 630500                    EPPR0   SELECTION_NDX+3,,AUTO
        21 001574   000007 631400 22                 EPPR1   7
        21 001575   000000 701000 xent               TSX1    Z8AR$RESERVER
        21 001576   000000 011000                    NOP     0

  19430 21 001577   000002 236000 9                  LDQ     LTS_+2
        21 001600   000022 736000                    QLS     18
        21 001601   000001 036000 9                  ADLQ    LTS_+1
        21 001602   200141 756100                    STQ     LCNST$,,AUTO

  19431 21 001603   000002 236000 9                  LDQ     LTS_+2
        21 001604   000000 036000 0                  ADLQ    ITERATION
        21 001605   000002 756000 9                  STQ     LTS_+2

  19432 21 001606   001106 220003                    LDX0    582,DU
        21 001607   200141 470500                    LDP0    LCNST$,,AUTO
        21 001610   000000 740100                    STX0    0,,PR0

  19434 21 001611   000000 721000 0                  LXL1    ITERATION
        21 001612   000000 441100                    SXL1    0,,PR0

  19438 21 001613   040100 100500                    MLR     fill='040'O
        21 001614   200135 000014                    ADSC9   DESC_BLK,,AUTO           cn=0,n=12
        21 001615   000001 000014                    ADSC9   1,,PR0                   cn=0,n=12

     3680    19441
     3681    19442    2      CONST$ -> CONST.CONST$.PTR$ = LCNST$;

  19442 21 001616   200141 236100                    LDQ     LCNST$,,AUTO
        21 001617   200140 471500                    LDP1    CONST$,,AUTO
        21 001620   100010 756100                    STQ     8,,PR1
PL6.E3A0      #004=Z8E7$EDITED File=Z8E7.:Z8A6TSI                                SAT 08/09/97 11:48 Page:621

     3682    19443
     3683    19444    2      CALL Z8AF$FORME (%TRIAD, CONST$, ADDR(NIL), CONST$);

  19444 21 001621   000003 236000 22                 LDQ     3
        21 001622   200174 756100                    STQ     SELECTION_NDX+2,,AUTO
        21 001623   200140 631500                    EPPR1   CONST$,,AUTO
        21 001624   200201 451500                    STP1    SELECTION_NDX+7,,AUTO
        21 001625   200174 633500                    EPPR3   SELECTION_NDX+2,,AUTO
        21 001626   200200 453500                    STP3    SELECTION_NDX+6,,AUTO
        21 001627   200140 634500                    EPPR4   CONST$,,AUTO
        21 001630   200177 454500                    STP4    SELECTION_NDX+5,,AUTO
        21 001631   000051 236000 22                 LDQ     41
        21 001632   200176 756100                    STQ     SELECTION_NDX+4,,AUTO
        21 001633   200176 630500                    EPPR0   SELECTION_NDX+4,,AUTO
        21 001634   000000 631400 22                 EPPR1   0
        21 001635   000000 701000 xent               TSX1    Z8AF$FORME
        21 001636   000000 011000                    NOP     0

     3684    19445
     3685    19446           %INIT_LX_TERMINAL (@POINTER = "ADDR(PIC_STR)",
     3686    19447                              @SYMBOL  = %PICTURE_STRING,
     3687    19448                              @DNT$    = NEL$$ -> NEL.DNT$);

  19450 21 001637   000000 220003                    LDX0    0,DU
        21 001640   200144 740100                    STX0    PIC_STR,,AUTO

  19451 21 001641   000000 221003                    LDX1    0,DU
        21 001642   200144 441100                    SXL1    PIC_STR,,AUTO

  19455 21 001643   000015 235007                    LDA     13,DL
        21 001644   200150 755100                    STA     ASTERISK+2,,AUTO

  19457 21 001645   000003 236000 22                 LDQ     3
        21 001646   200153 756100                    STQ     ASTERISK+5,,AUTO

  19459 21 001647   200145 756100                    STQ     PIC_STR+1,,AUTO
PL6.E3A0      #004=Z8E7$EDITED File=Z8E7.:Z8A6TSI                                SAT 08/09/97 11:48 Page:622

  19460 21 001650   000032 235007                    LDA     26,DL
        21 001651   200147 755100                    STA     ASTERISK+1,,AUTO

  19461 21 001652   200143 470500                    LDP0    NEL$$,,AUTO
        21 001653   000003 236100                    LDQ     3,,PR0
        21 001654   200146 756100                    STQ     ASTERISK,,AUTO

  19462 21 001655   000133 235000 xsym               LDA     COMCOM+91
        21 001656   200151 755100                    STA     ASTERISK+3,,AUTO

  19463 21 001657   000134 235000 xsym               LDA     COMCOM+92
        21 001660   200152 755100                    STA     ASTERISK+4,,AUTO

     3688    19466
     3689    19467    2      CALL Z8EC$CREATE_CONST (%TYA, ADDR(PIC_STR), PIC$);

  19467 21 001661   200144 631500                    EPPR1   PIC_STR,,AUTO
        21 001662   200174 451500                    STP1    SELECTION_NDX+2,,AUTO
        21 001663   200142 633500                    EPPR3   PIC$,,AUTO
        21 001664   200177 453500                    STP3    SELECTION_NDX+5,,AUTO
        21 001665   200174 634500                    EPPR4   SELECTION_NDX+2,,AUTO
        21 001666   200176 454500                    STP4    SELECTION_NDX+4,,AUTO
        21 001667   000031 236000 22                 LDQ     25
        21 001670   200175 756100                    STQ     SELECTION_NDX+3,,AUTO
        21 001671   200175 630500                    EPPR0   SELECTION_NDX+3,,AUTO
        21 001672   000017 631400 22                 EPPR1   15
        21 001673   000000 701000 xent               TSX1    Z8EC$CREATE_CONST
        21 001674   000000 011000                    NOP     0

     3690    19468
     3691    19469           %NEW_ILL (@ID   = %MVEAL,
     3692    19470                     @LOP  = ROP$ -> LX_ETT_ITEM.ETT$,
     3693    19471                     @ROP  = PIC$,
     3694    19472                     @DESCRIPTOR$= CONST$,
     3695    19473                     @TO   = LOP$ -> LX_ETT_ITEM.ETT$);

PL6.E3A0      #004=Z8E7$EDITED File=Z8E7.:Z8A6TSI                                SAT 08/09/97 11:48 Page:623
  19624 21 001675   200130 470500                    LDP0    @LOP$,,AUTO
        21 001676   000000 471500                    LDP1    0,,PR0
        21 001677   000012 236000 22                 LDQ     10
        21 001700   200174 756100                    STQ     SELECTION_NDX+2,,AUTO
        21 001701   100001 633500                    EPPR3   1,,PR1
        21 001702   200201 453500                    STP3    SELECTION_NDX+7,,AUTO
        21 001703   200174 631500                    EPPR1   SELECTION_NDX+2,,AUTO
        21 001704   200200 451500                    STP1    SELECTION_NDX+6,,AUTO
        21 001705   000054 237000 22                 LDAQ    44
        21 001706   200176 757100                    STAQ    SELECTION_NDX+4,,AUTO
        21 001707   000025 236000 22                 LDQ     21
        21 001710   200175 756100                    STQ     SELECTION_NDX+3,,AUTO
        21 001711   200175 630500                    EPPR0   SELECTION_NDX+3,,AUTO
        21 001712   000020 631400 22                 EPPR1   16
        21 001713   000000 701000 xent               TSX1    Z8AN$NEW_ILL1
        21 001714   000000 011000                    NOP     0

  19626 21 001715   200127 470500                    LDP0    @ROP$,,AUTO
        21 001716   000000 471500                    LDP1    0,,PR0
        21 001717   100001 236100                    LDQ     1,,PR1
        21 001720   000000 473400 6                  LDP3    ILL$
        21 001721   300001 756100                    STQ     1,,PR3

  19627 21 001722   200142 236100                    LDQ     PIC$,,AUTO
        21 001723   300002 756100                    STQ     2,,PR3

  19628 21 001724   200130 471500                    LDP1    @LOP$,,AUTO
        21 001725   100000 474500                    LDP4    0,,PR1
        21 001726   400001 236100                    LDQ     1,,PR4
        21 001727   300003 756100                    STQ     3,,PR3

  19629 21 001730   200140 236100                    LDQ     CONST$,,AUTO
        21 001731   300004 756100                    STQ     4,,PR3

     3696    19852
     3697    19853    2   END LONG_ALPHANUMERIC_EDITED;

PL6.E3A0      #004=Z8E7$EDITED File=Z8E7.:Z8A6TSI                                SAT 08/09/97 11:48 Page:624
  19853 21 001732   200126 221300                    LDX1  ! I+2,,AUTO
        21 001733   000001 702211                    TSX2  ! 1,X1

     3698    19854        %EJECT;
PL6.E3A0      #004=Z8E7$EDITED File=Z8E7.:Z8A6TSI                                SAT 08/09/97 11:48 Page:625
     3699    19855    1   END Z8E7$EDITED;

  19855 21 001734   000000 702200 xent               TSX2  ! X66_ARET

PL6.E3A0      #004=Z8E7$EDITED File=Z8E7.:Z8A6TSI                                SAT 08/09/97 11:48 Page:626
--  Include file information  --

   Z8A_ST.:Z8A6TOU  cannot be made into a system file and is referenced.
   Z8A_LIBRARY.:Z8A6TOU  cannot be made into a system file and is referenced.
   Z8A_DNT.:Z8A6TOU  cannot be made into a system file and is referenced.
   Z8A_ETT.:Z8A6TOU  cannot be made into a system file and is referenced.
   Z8A_LTS.:Z8A6TOU  cannot be made into a system file and is referenced.
   Z8A_ILL.:Z8A6TOU  cannot be made into a system file and is referenced.
   Z8A_DESC.:Z8A6TOU  cannot be made into a system file and is referenced.
   Z8E_ABSSYN.:Z8A6TOU  cannot be made into a system file and is referenced.
   Z8E_WINDOW.:Z8A6TOU  is referenced.
   Z8E_O1COM.:Z8A6TOU  cannot be made into a system file and is referenced.
   Z8A_TYPES.:Z8A6TOU  is referenced.
   Z8E_NEW_ILL.:Z8A6TOU  is referenced.
   Z8E_MACROS.:Z8A6TOU  cannot be made into a system file and is referenced.
   Z8A_LEX_SYMB.:Z8A6TOU  cannot be made into a system file and is referenced.
   Z8E_STACKS.:Z8A6TOU  cannot be made into a system file and is referenced.
   Z8A_COMCOM.:Z8A6TOU  cannot be made into a system file and is referenced.
   X8A_COM_MACS.:X8A6TOU  is referenced.
   Z8A_NAMES.:Z8A6TOU  is referenced.
   Z8A_SUPP_MAC.:Z8A6TOU  is referenced.
   Z8A_DEFC.:Z8A6TOU  cannot be made into a system file and is referenced.
      No diagnostics issued in procedure Z8E7$EDITED.
PL6.E3A0      #004=Z8E7$EDITED File=Z8E7.:Z8A6TSI                                SAT 08/09/97 11:48 Page:627

 **** Variables and constants ****

  ****  Section 000 LblCom ITERATION

  ****  Scalars and arrays  ****
OctLoc.c.b A Datatyp(siz) R M Lvl/name                 OctLoc.c.b A Datatyp(siz) R M Lvl/name

     0-0-0/w SBIN        r     1 ITERATION

  ****  Section 001 LblCom LEX_SYMBOL

  ****  Scalars and arrays  ****
OctLoc.c.b A Datatyp(siz) R M Lvl/name                 OctLoc.c.b A Datatyp(siz) R M Lvl/name

     0-0-0/w STRC(3240)  r     1 LEX_SYMBOL                 0-0-0/w STRC(3240)        1 LEX_SYMBOL_WORDS

  ****  Section 002 LblCom CURRENT_LEX_SYMBOL$

  ****  Scalars and arrays  ****
OctLoc.c.b A Datatyp(siz) R M Lvl/name                 OctLoc.c.b A Datatyp(siz) R M Lvl/name

     0-0-0/w PTR         r     1 CURRENT_LEX_SYMBOL$

  ****  Section 003 LblCom TEMP_LEX_SYMBOL

  ****  Scalars and arrays  ****
OctLoc.c.b A Datatyp(siz) R M Lvl/name                 OctLoc.c.b A Datatyp(siz) R M Lvl/name

     0-0-0/w STRC(3240)        1 TEMP_LEX_SYMBOL

  ****  Section 004 LblCom TEMP_LEX_SYMBOL2

  ****  Scalars and arrays  ****
OctLoc.c.b A Datatyp(siz) R M Lvl/name                 OctLoc.c.b A Datatyp(siz) R M Lvl/name

     0-0-0/w STRC(3240)        1 TEMP_LEX_SYMBOL2

PL6.E3A0      #004=Z8E7$EDITED File=Z8E7.:Z8A6TSI                                SAT 08/09/97 11:48 Page:628
  ****  Section 005 LblCom TEMP_LX_NODE

  ****  Scalars and arrays  ****
OctLoc.c.b A Datatyp(siz) R M Lvl/name                 OctLoc.c.b A Datatyp(siz) R M Lvl/name

     0-0-0/d STRC(288)         1 TEMP_LX_NODE

  ****  Section 006 LblCom ILL$

  ****  Scalars and arrays  ****
OctLoc.c.b A Datatyp(siz) R M Lvl/name                 OctLoc.c.b A Datatyp(siz) R M Lvl/name

     0-0-0/w PTR         r     1 ILL$

  ****  Section 007 LblCom ILL_

  ****  Scalars and arrays  ****
OctLoc.c.b A Datatyp(siz) R M Lvl/name                 OctLoc.c.b A Datatyp(siz) R M Lvl/name

     0-0-0/w STRC(180)         1 ILL_

  ****  Section 008 LblCom LTS$

  ****  Scalars and arrays  ****
OctLoc.c.b A Datatyp(siz) R M Lvl/name                 OctLoc.c.b A Datatyp(siz) R M Lvl/name

     0-0-0/w PTR               1 LONG_ITEM$                 0-0-0/w PTR         r     1 LTS$

  ****  Section 009 LblCom LTS_

  ****  Scalars and arrays  ****
OctLoc.c.b A Datatyp(siz) R M Lvl/name                 OctLoc.c.b A Datatyp(siz) R M Lvl/name

     0-0-0/w STRC(180)   r     1 LTS_

  ****  Section 010 LblCom ETT$

PL6.E3A0      #004=Z8E7$EDITED File=Z8E7.:Z8A6TSI                                SAT 08/09/97 11:48 Page:629
  ****  Scalars and arrays  ****
OctLoc.c.b A Datatyp(siz) R M Lvl/name                 OctLoc.c.b A Datatyp(siz) R M Lvl/name

     0-0-0/w PTR         r     1 ETT$

  ****  Section 011 LblCom HEAD_ETT$

  ****  Scalars and arrays  ****
OctLoc.c.b A Datatyp(siz) R M Lvl/name                 OctLoc.c.b A Datatyp(siz) R M Lvl/name

     0-0-0/w PTR               1 HEAD_ETT$

  ****  Section 012 LblCom ETT_BUCKETS

  ****  Scalars and arrays  ****
OctLoc.c.b A Datatyp(siz) R M Lvl/name                 OctLoc.c.b A Datatyp(siz) R M Lvl/name

     0-0-0/w PTR               1 ETT_BUCKETS(0:511)

  ****  Section 013 LblCom ETT_

  ****  Scalars and arrays  ****
OctLoc.c.b A Datatyp(siz) R M Lvl/name                 OctLoc.c.b A Datatyp(siz) R M Lvl/name

     0-0-0/w STRC(180)         1 ETT_

  ****  Section 014 LblCom DNT$

  ****  Scalars and arrays  ****
OctLoc.c.b A Datatyp(siz) R M Lvl/name                 OctLoc.c.b A Datatyp(siz) R M Lvl/name

     0-0-0/w PTR         r     1 DNT$

  ****  Section 015 LblCom DNT_

  ****  Scalars and arrays  ****
OctLoc.c.b A Datatyp(siz) R M Lvl/name                 OctLoc.c.b A Datatyp(siz) R M Lvl/name
PL6.E3A0      #004=Z8E7$EDITED File=Z8E7.:Z8A6TSI                                SAT 08/09/97 11:48 Page:630

     0-0-0/w STRC(180)         1 DNT_

  ****  Section 016 LblCom DNT_BUCKET_NUMBER

  ****  Scalars and arrays  ****
OctLoc.c.b A Datatyp(siz) R M Lvl/name                 OctLoc.c.b A Datatyp(siz) R M Lvl/name

     0-0-0/w UBIN              1 DNT_BUCKET_NUMBER

  ****  Section 017 LblCom DNT_OF_1$

  ****  Scalars and arrays  ****
OctLoc.c.b A Datatyp(siz) R M Lvl/name                 OctLoc.c.b A Datatyp(siz) R M Lvl/name

     0-0-0/w PTR               1 DNT_OF_1$

  ****  Section 018 LblCom ST$

  ****  Scalars and arrays  ****
OctLoc.c.b A Datatyp(siz) R M Lvl/name                 OctLoc.c.b A Datatyp(siz) R M Lvl/name

     0-0-0/w PTR         r     1 ST$

  ****  Section 019 LblCom ST_

  ****  Scalars and arrays  ****
OctLoc.c.b A Datatyp(siz) R M Lvl/name                 OctLoc.c.b A Datatyp(siz) R M Lvl/name

     0-0-0/w STRC(180)   r     1 ST_

  ****  Auto variables  ****

  ****  Scalars and arrays  ****
OctLoc.c.b A Datatyp(siz) R M Lvl/name                 OctLoc.c.b A Datatyp(siz) R M Lvl/name

   132-0-0/w PTR         r     1 @EXIT_LABEL$             130-0-0/w PTR         r     1 @LOP$
PL6.E3A0      #004=Z8E7$EDITED File=Z8E7.:Z8A6TSI                                SAT 08/09/97 11:48 Page:631
   127-0-0/w PTR         r     1 @LOP$$                   131-0-0/w PTR         r     1 @NEL$$
     5-0-0/w PTR         r     1 @ON_SIZE                 157-0-0/w PTR         r     1 @PIC_DNT$
     3-0-0/w PTR         r     1 @RECEIVING$              160-0-0/w PTR         r     1 @RETURN_ETT$
   127-0-0/w PTR         r     1 @ROP$                    130-0-0/w PTR         r     1 @ROP$$
     4-0-0/w PTR         r     1 @SENDING$                123-0-0/w PTR         r     1 ADDR_LIT$
    60-0-0/d STRC(288)   r     1 ASCII_LX_ETT_ITEM        146-0-0/d STRC(288)   r     1 ASTERISK
   161-0-0/c CHAR(30)    r     1 BUFFER                   135-0-0/w CHAR(12)    r     1 CHAR_DESC_BLK
    14-0-0/w UBIN              1 CN                       140-0-0/w PTR         r     1 CONST$
   103-0-0/c CHAR(63)    r     1 CONST_BUF                100-0-0/w PTR         r     1 CONV_RECEIVING$
     6-0-0/w STRC              1 DESC                     135-0-0/w STRC(108)   r     1 DESC_BLK
   102-0-0/w PTR         r     1 EXIT_LABEL$               *0-0-0/w PTR         r     1 EXIT_LABEL$
   124-0-0/w SBIN        r     1 I                        141-0-0/w PTR         r     1 LCNST$
    13-0-0/w SBIN              1 LENGTH                    *0-0-0/w PTR         r     1 LOP$
    *0-0-0/w PTR         r     1 LOP$$                     33-0-0/w STRC(144)   r     1 LOP_DESC
    71-0-0/w SBIN        r     1 LOP_LENGTH                72-0-0/w SBIN        r     1 LOP_SCALE
    75-0-0/w PTR         r     1 LOP_ST$                   16-0-0/w STRC(324)         1 NAME
    77-0-0/w PTR         r     1 NEL$$                     *0-0-0/w PTR         r     1 NEL$$
   143-0-0/w PTR         r     1 NEL$$                     *0-0-0/w BIT         r     1 ON_SIZE
   142-0-0/w PTR         r     1 PIC$                     133-0-0/w PTR         r     1 PIC_CONST$
    *0-0-0/w PTR         r     1 PIC_DNT$                 144-0-0/d STRC(288)   r     1 PIC_STR
    *0-0-0/w PTR         r     1 RECEIVING$               134-0-0/w PTR         r     1 REG_MVNE$
    *0-0-0/w PTR         r     1 RETURN_ETT$               *0-0-0/w PTR         r     1 ROP$
    *0-0-0/w PTR         r     1 ROP$$                     37-0-0/w STRC(144)   r     1 ROP_DESC
    73-0-0/w SBIN        r     1 ROP_LENGTH                74-0-0/w SBIN        r     1 ROP_SCALE
    76-0-0/w PTR               1 ROP_ST$                   15-0-0/w UBIN              1 SA
    12-0-0/w SBIN              1 SCALE                    171-0-0/c CHAR        r     1 SELECTION
   172-0-0/w SBIN        r     1 SELECTION_NDX             *0-0-0/w PTR         r     1 SENDING$
     7-0-0/w BIT (2)           1 SIGN                      11-0-0/w BIT (2)           1 TA
   101-0-0/w PTR         r     1 TABLE_ETT$                70-0-0/w PTR         r     1 TEMP$
    43-0-0/w STRC(144)   r     1 TEMP_DESC                 50-0-0/d STRC(288)   r     1 TEMP_LX_ETT_ITEM
    10-0-0/w BIT               1 TN                        27-0-0/w STRC(144)   r     1 TYPE_DESC
   131-0-0/w STRC(144)   r     1 TYPE_DESC                136-0-0/d STRC(288)   r     1 UNARY_ZERO

  ****  SYMREF variables  ****

  ****  Scalars and arrays  ****
OctLoc.c.b A Datatyp(siz) R M Lvl/name                 OctLoc.c.b A Datatyp(siz) R M Lvl/name
PL6.E3A0      #004=Z8E7$EDITED File=Z8E7.:Z8A6TSI                                SAT 08/09/97 11:48 Page:632

     0-0-0/d STRC(13248) r     1 COMCOM
     0-0-0/w STRC(180)         1 HIER_STK(0:50)
     0-0-0/w SBIN              1 HIER_STK_PTR               0-0-0/w UBIN              1 ILL_STEP(0:144)
     0-0-0/w UBIN              1 LTS_STEP(0:37)
     0-0-0/d STRC(11580) r     1 O1COM                      0-0-0/w STRC(144)         1 PAGE_FORMAT
     0-0-0/w STRC(153)         1 REP_STK(0:50)              0-0-0/w SBIN              1 REP_STK_PTR

  ****  BASED and DCB variables  ****

  ****  Scalars and arrays  ****
OctLoc.c.b A Datatyp(siz) R M Lvl/name                 OctLoc.c.b A Datatyp(siz) R M Lvl/name

     0-0-0/w STRC(108)         1 ACCEPT_DISPLAY             0-0-0/w STRC(288)         1 ADD_STMT
     0-0-0/w STRC(396)         1 ALPHABET                   0-0-0/w STRC(144)         1 ALTER_LTS
     0-0-0/w STRC(3672)        1 ALT_KEY                    0-0-0/w STRC(36864)       1 ARGLIST
     0-0-0/w STRC(396)         1 ARRAY                      0-0-0/w STRC(180)         1 ARRAY_PRESET_LTS
     0-0-0/c ACHR        r     1 BASED$LIT                  0-0-0/w ASTR(324)   r     1 BASED_LEX_SYMBOL
     0-0-0/w STRC(360)         1 BASED_LEX_SYMBOL_WORDS
     0-0-0/w STRC(288)         1 BASE_LTS                   0-0-0/w STRC(108)         1 BINARY_ILL
     0-0-0/w STRC(288)         1 BINARY_OP                  0-0-0/w STRC(396)         1 BLOCK
     0-0-0/w STRC(144)         1 BRANCH_ILL                 0-0-0/w STRC(144)         1 BT
     0-0-0/w STRC(288)         1 CALL_STMT                  0-0-0/w STRC(216)         1 CCOSU
     0-0-0/w STRC(396)         1 CD                         0-0-0/w STRC(288)         1 CD_LTS
     0-0-0/w CHAR(4096)        1 CHARS                      0-0-0/w STRC(396)         1 CLASS
     0-0-0/w STRC(108)         1 CODED_MOVE                 0-0-0/w STRC(288)         1 COMPUTE_STMT
     0-0-0/w STRC(396)         1 CONDITION                  0-0-0/w STRC(396)   r     1 CONST
     0-0-0/w STRC(72)          1 CONT                       0-0-0/w STRC(540)         1 CONTROL_NAME_LTS
     0-0-0/w STRC(1872)        1 COPY_FILE                  0-0-0/w STRC(396)         1 DB
     0-0-0/w STRC(396)         1 DCB_                       0-0-0/w STRC(288)         1 DEFERED_IDENTIFIER
     0-0-0/w STRC(252)         1 DEFERED_ID_TREE            0-0-0/w STRC(288)         1 DEFERED_QUAL_ID
     0-0-0/w STRC(288)         1 DEFERED_SUM_CLAUSE
     0-0-0/w STRC(288)         1 DEFERED_SUM_CLAUSE_LIST
     0-0-0/w STRC(144)   r     1 DEFLB                      0-0-0/w STRC(288)         1 DELETE_STMT
     0-0-0/w STRC(108)         1 DEPENDING_SIZE             0-0-0/w STRC(5472)        1 DIMS
     0-0-0/w STRC(288)         1 DIVIDE_STMT                0-0-0/w STRC(396)         1 DML_ITEM
     0-0-0/w STRC(216)         1 DML_REC                    0-0-0/w ASTR(180)   r     1 DNT
PL6.E3A0      #004=Z8E7$EDITED File=Z8E7.:Z8A6TSI                                SAT 08/09/97 11:48 Page:633
     0-0-0/w STRC(144)         1 DOEND                      0-0-0/w STRC(396)         1 DO_N
     0-0-0/w STRC(180)         1 DV4I                       0-0-0/w STRC(180)         1 ENTRY_ILL
     0-0-0/w STRC(180)   r     1 ETT                        0-0-0/w STRC(108)         1 EVALU
     0-0-0/w STRC(73836)       1 EVALUATE                   0-0-0/w STRC(396)         1 FD
     0-0-0/w STRC(1692)        1 FILE_LTS                   0-0-0/w STRC(144)         1 GO
     0-0-0/w STRC(180)         1 ILL                        0-0-0/w STRC              1 ILL_NO_OPS
     0-0-0/w STRC(288)         1 ILS_LIST                   0-0-0/w STRC(108)         1 INDEXES
     0-0-0/w STRC(360)         1 INIT_LTS                   0-0-0/w STRC(288)         1 INSPECT_1_STMT
     0-0-0/w STRC(288)         1 INSPECT_2_STMT             0-0-0/w STRC(288)         1 INSPECT_4_STMT
     0-0-0/w STRC(396)         1 INTDEF                     0-0-0/w STRC(180)         1 IO_RESTORE_CHAIN
     0-0-0/w STRC(144)         1 KEY                        0-0-0/w STRC(396)         1 LABEL
     0-0-0/w STRC(288)         1 LA_ITEM                    0-0-0/w STRC(36864) r     1 LCNST
     0-0-0/w STRC(108)         1 LINOI                      0-0-0/w STRC(72)          1 LONG
     0-0-0/w STRC        r     1 LTS                        0-0-0/w STRC(360)   r     1 LTSS
     0-0-0/w STRC(36936)       1 LTS_PTR_ARRAY              0-0-0/w STRC(504)         1 LX_CD_INPUT
     0-0-0/w STRC(324)         1 LX_CD_I_O                  0-0-0/w STRC(396)         1 LX_CD_OUTPUT
     0-0-0/w STRC(288)   r     1 LX_ETT_ITEM                0-0-0/w STRC(288)   r     1 LX_ITEM
     0-0-0/w STRC(288)         1 LX_LARGE                   0-0-0/w STRC(288)         1 LX_LIST
     0-0-0/w STRC(1224)        1 LX_REC_DECL                0-0-0/w STRC(864)         1 LX_REPORT_REC
     0-0-0/w STRC(288)   r     1 LX_TERMINAL                0-0-0/w STRC(72)          1 MFILL
     0-0-0/w STRC(396)         1 MNEMONIC                   0-0-0/w STRC(288)         1 MULTIPLY_STMT
     0-0-0/w STRC(180)         1 MULTI_GO                   0-0-0/w STRC(180)   r     1 MVEAL
     0-0-0/w STRC(108)         1 MVFIL                      0-0-0/w STRC(72)          1 MVIIS
     0-0-0/w STRC(144)   r     1 NEL                        0-0-0/w STRC(216)         1 OPEN_LTS
     0-0-0/w STRC(180)         1 OS_CALL                    0-0-0/w STRC(36864)       1 PAGE
     0-0-0/w STRC(396)         1 PARA                       0-0-0/w STRC(216)         1 PFORM
     0-0-0/w STRC(144)         1 PINC                       0-0-0/w STRC(144)         1 PREOFF
     0-0-0/w STRC(108)         1 PRESET                     0-0-0/w STRC(144)         1 PRIME
     0-0-0/w STRC(396)   r     1 PROC_                      0-0-0/w STRC(396)         1 PROC_DEF
     0-0-0/w STRC(900)         1 PROC_SUPP                  0-0-0/w STRC(144)         1 P_A_PRESET
     0-0-0/w STRC(144)         1 P_P_PRESET                 0-0-0/w STRC(396)         1 RD
     0-0-0/w STRC(288)         1 READ_STMT                  0-0-0/w STRC(216)         1 REF
     0-0-0/w STRC(144)         1 REMEM                      0-0-0/w STRC(108)         1 RENAMES
     0-0-0/w STRC(720)         1 REPORT_01_LTS              0-0-0/w STRC(432)         1 REPORT_ELEM_LTS
     0-0-0/w STRC(252)         1 REPORT_GRP_LTS             0-0-0/w STRC(1332)        1 REPORT_LTS
     0-0-0/w STRC(288)         1 REWRITE_STMT               0-0-0/w STRC(144)         1 RVA_LTS
     0-0-0/w STRC(396)   r     1 SCALAR                     0-0-0/w STRC(144)         1 SCOPE
PL6.E3A0      #004=Z8E7$EDITED File=Z8E7.:Z8A6TSI                                SAT 08/09/97 11:48 Page:634
     0-0-0/w STRC(396)         1 SD                         0-0-0/w STRC(216)         1 SEARCH_
     0-0-0/w STRC(396)         1 SECTION                    0-0-0/w STRC(396)         1 SEGMENT
     0-0-0/w STRC(360)         1 SEGMENT_LTS                0-0-0/w STRC(396)   r     1 ST
     0-0-0/w STRC(288)         1 START_STMT                 0-0-0/w STRC(72)          1 STP2
     0-0-0/w STRC(252)         1 STRING_STMT                0-0-0/w STRC(288)         1 SUBTRACT_STMT
     0-0-0/w STRC(252)         1 SUM_LTS                    0-0-0/w STRC(396)         1 SWITCH
     0-0-0/w STRC(396)         1 SYMBOLIC_CHAR              0-0-0/w STRC(396)         1 SYMDEF_
     0-0-0/w STRC(396)         1 SYMREF_                    0-0-0/w STRC(396)         1 TEMP
     0-0-0/w STRC(144)   r     1 TRINARY_ILL                0-0-0/w STRC(72)          1 UNARY_ILL
     0-0-0/w STRC(288)   r     1 UNARY_OP                   0-0-0/w STRC(288)         1 UNSTRING_STMT
     0-0-0/d STRC(612)         1 USE                        0-0-0/w STRC(216)         1 USER_CALL
     0-0-0/w STRC(252)         1 USE_SUPP                   0-0-0/w STRC(108)         1 VAL
     0-0-0/w STRC(108)         1 VAL_END                    0-0-0/w STRC(396)   r     1 VARIABLE
     0-0-0/w STRC(72)          1 WHEN                       0-0-0/w STRC(288)         1 WRITE_STMT


   Procedure Z8E7$EDITED requires 989 words for executable code.
   Procedure Z8E7$EDITED requires 130 words of local(AUTO) storage.

    No errors detected in file Z8E7.:Z8A6TSI    .
