VERSION A06

PL6.E3A0      #001=Z8E8$NEW_CSIB File=Z8E8.:Z8A6TSI                              SAT 08/09/97 11:37 Page:1
        1        1        /*M* Z8E8 -- Creates CSIB for all programs */
        2        2        /*T***********************************************************/
        3        3        /*T*                                                         */
        4        4        /*T* Copyright (c) Bull HN Information Systems Inc., 1997    */
        5        5        /*T*                                                         */
        6        6        /*T***********************************************************/
        7        7        /*-------------*/
        8        8          Z8E8$NEW_CSIB: PROC (PROC$);
        9        9        /*-------------*/
       10       10
       11       11         /*P*
       12       12               NAME : Z8E8$NEW_CSIB
       13       13               PURPOSE : To create a CSIB for a given program and all its
       14       14                 internal programs.  This is done thru recursion, starting
       15       15                 from the outer most program.
       16       16         */
       17       17
       18       18
       19       19             %EQU PHASE = 1;
       20       20             %EQU CHARS_PER_WORD = 4;
       21       21
       22       22             %INCLUDE Z8A_DEFC;
       23       90             %INCLUDE Z8A_SUPP_MAC;
       24     2490             %INCLUDE Z8A_COMCOM;
       25     3140             %INCLUDE Z8A_DNT;
       26     3361             %INCLUDE Z8A_ST;
       27     7020             %INCLUDE Z8A_TYPES;
       28     7194             %INCLUDE Z8A_ILL;
       29     7887             %INCLUDE Z8A_ILS;
       30     7996             %INCLUDE Z8A_LTS;
       31    10073             %INCLUDE Z8A_ETT;
       32    10374             %INCLUDE Z8A_MKCN;
       33    10391             %INCLUDE Z8A_QLT;
       34    10497             %INCLUDE X8A_CSIB;
       35    10562             %INCLUDE Z8A_LIBRARY;
       36    10776
       37    10777             %INCLUDE Z8E_STACKS;
PL6.E3A0      #001=Z8E8$NEW_CSIB File=Z8E8.:Z8A6TSI                              SAT 08/09/97 11:37 Page:2
       38    13043             %INCLUDE Z8E_O1COM;
       39    13804             %INCLUDE Z8E_MACROS;
       40    14479             %INCLUDE Z8E_ABSSYN;
       41    14685             %INCLUDE Z9A_FLAGS;
       42    14699
       43    14700    1        DCL Z8CU$BUILD_AND_LINK  ENTRY (6);
       44    14701    1        DCL Z8ED$DISPOSE_ABSSYN_TREE ENTRY (1);
       45    14702    1        DCL Z8AC$MAKE_CONST      ENTRY (1);
       46    14703    1        DCL Z8AF$NEW_BASE        ENTRY (3);
       47    14704    1        DCL Z8AF$FORME           ENTRY (4);
       48    14705    1        DCL Z8AC$MAKE_TYA_CONST  ENTRY (4);
       49    14706    1        DCL Z8AT$CREATE_TEMPORARY ENTRY (2);
       50    14707    1        DCL Z8E8$INIT_ARRAY      ENTRY (2);
       51    14708    1        DCL Z8E8$ASSIGN_ARRAY_PRESET ENTRY (1);
       52    14709             %IF GCOS;
       54    14711             %ENDIF;
       55    14712
       56    14713    1        DCL ENTADDR_OF_NIL$      PTR;
       57    14714    1        DCL ENTADDR_OF_NIL_UBIN  REDEF ENTADDR_OF_NIL$ UBIN;
       58    14715    1        DCL ENTADDR_OF_ENIL$     REDEF ENTADDR_OF_NIL$ EPTR;
       59    14716
       60    14717    1        DCL PROC$         PTR;
       61    14718    1        DCL DNT$$         PTR;
       62    14719    1        DCL CSIB$         PTR;
       63    14720    1        DCL P$            PTR;
       64    14721    1        DCL ROP$          PTR;
       65    14722    1        DCL N$            PTR;
       66    14723    1        DCL TEXT$         PTR;
       67    14724
       68    14725    1        DCL OFF           SBIN;
       69    14726    1        DCL NAME_LENGTH   SBIN;
       70    14727    1        DCL NAME_SPACE    SBIN;
       71    14728
       72    14729
       73    14730           /*---------*/
       74    14731    1        SET_FLAGS: PROC (PROC$, CONST$);
       75    14732           /*---------*/
PL6.E3A0      #001=Z8E8$NEW_CSIB File=Z8E8.:Z8A6TSI                              SAT 08/09/97 11:37 Page:3
       76    14733
       77    14734    2            DCL PROC$            PTR;
       78    14735    2            DCL CONST$           PTR;
       79    14736
       80    14737    2            DCL 1 CSIB_BITS     ALIGNED,
       81    14738                      %CSIB_BITS      (@LVL = 2, @ENDING = YES);
       82    14754
       83    14755
       84    14756    2            CSIB_BITS = FALSE;
       85    14757
       86    14758    2            CSIB_BITS.EXTERNAL = (PROC$ -> PROC_.FATHER = ADDR(NIL));
       87    14759    2            CSIB_BITS.INITIAL  = PROC$ -> PROC_.B.INITIAL;
       88    14760    2            CSIB_BITS.COMMON   = PROC$ -> PROC_.B.COMMON;
       89    14761    2            CSIB_BITS.RSCR_FLAG = COMCOM.OB.COUNT.RSCR_FLAG;
       90    14762
       91    14763                 /* Insert bit sets above */
       92    14764
       93    14765    2            MKCN.CON = BITBIN (CSIB_BITS);
       94    14766    2            CALL Z8AC$MAKE_CONST (CONST$);
       95    14767    2            CONST$ = CONST$ -> ETT.LOP;
       96    14768
       97    14769    2        END SET_FLAGS;
       98    14770             %EJECT;
PL6.E3A0      #001=Z8E8$NEW_CSIB File=Z8E8.:Z8A6TSI                              SAT 08/09/97 11:37 Page:4
       99    14771           /*----------*/
      100    14772    1        BUILD_NAME: PROC (DNT$$, N$, TEXT$, NAME_SPACE);
      101    14773           /*----------*/
      102    14774
      103    14775                 %EQU NAME_BLANK = '                                ';
      104    14776
      105    14777
      106    14778    2            DCL DNT$$     PTR;
      107    14779    2            DCL N$        PTR;
      108    14780    2            DCL TEXT$     PTR;
      109    14781
      110    14782    2            DCL NAME_LENGTH SBIN;
      111    14783    2            DCL NAME_SPACE  SBIN;
      112    14784    2            DCL NAME_TEXT   CHAR (32) ALIGNED;
      113    14785
      114    14786
      115    14787    2            NAME_TEXT = %NAME_BLANK;
      116    14788
      117    14789    2            NAME_LENGTH = DNT$$ -> DNT.TEXT.LENGTH;
      118    14790
      119    14791                 %IF GCOS;
      121    14793                 %ENDIF;
      122    14794    2            MKCN.CON = NAME_LENGTH;
      123    14795    2            NAME_LENGTH = (NAME_LENGTH + 3) / 4 * 4;
      124    14796
      125    14797    2            NAME_TEXT   = DNT$$ -> DNT.TEXT.NAME;
      126    14798
      127    14799    2            CALL Z8AC$MAKE_CONST (N$);
      128    14800    2            N$ = N$ -> ETT.LOP;
      129    14801
      130    14802    2            CALL Z8AC$MAKE_TYA_CONST (NAME_TEXT,
      131    14803    2                                      NAME_LENGTH,
      132    14804    2                                      0,
      133    14805    2                                      TEXT$);
      134    14806
      135    14807    2            TEXT$ = TEXT$ -> ETT.LOP;
      136    14808
PL6.E3A0      #001=Z8E8$NEW_CSIB File=Z8E8.:Z8A6TSI                              SAT 08/09/97 11:37 Page:5
      137    14809    2            NAME_SPACE = NAME_LENGTH;
      138    14810
      139    14811    2        END BUILD_NAME;
      140    14812             %EJECT;
PL6.E3A0      #001=Z8E8$NEW_CSIB File=Z8E8.:Z8A6TSI                              SAT 08/09/97 11:37 Page:6
      141    14813             /*-----------------*/
      142    14814    1          BUILD_ENTRY_POINT: PROC (PROC$, ENTRY$);
      143    14815             /*-----------------*/
      144    14816
      145    14817    2             DCL PROC$         PTR;
      146    14818    2             DCL ENTRY$        PTR;
      147    14819
      148    14820    2             DCL P$            PTR;
      149    14821    2             DCL LINK$         PTR;
      150    14822    2             DCL LAST_N$       PTR;
      151    14823    2             DCL LAST_TEXT$    PTR;
      152    14824    2             DCL DNT$$         PTR;
      153    14825    2             DCL CSIBE$        PTR;
      154    14826    2             DCL NAME_LENGTH   SBIN;
      155    14827    2             DCL NAME_SPACE    SBIN;
      156    14828    2             DCL LAST_SPACE    SBIN;
      157    14829    2             DCL OFF           SBIN;
      158    14830
      159    14831
      160    14832                  /*--------*/
      161    14833    2               CLEAN_UP: PROC (OFF, NEW_LINK$);
      162    14834                  /*--------*/
      163    14835
      164    14836    3                   DCL OFF     SBIN;
      165    14837    3                   DCL NEW_LINK$ PTR;
      166    14838
      167    14839
      168    14840                        %NEW_ILL (@ID      = %PTR_SET,
      169    14841                                  @OFFSET  = OFF,
      170    14842                                  @LOP     = LINK$,
      171    14843                                  @ROP     = NEW_LINK$);
      172    15222
      173    15223    3                   OFF = OFF + 1;
      174    15224
      175    15225                        %NEW_ILL (@ID      = %PREOFF,
      176    15226                                  @N       = 1,
      177    15227                                  @OFFSET  = OFF,
PL6.E3A0      #001=Z8E8$NEW_CSIB File=Z8E8.:Z8A6TSI                              SAT 08/09/97 11:37 Page:7
      178    15228                                  @LOP     = LINK$,
      179    15229                                  @ROP     = LAST_N$);
      180    15608
      181    15609    3                   OFF = OFF + 1;
      182    15610
      183    15611                        %NEW_ILL (@ID      = %PREOFF,
      184    15612                                  @N       = LAST_SPACE / 4,
      185    15613                                  @OFFSET  = OFF,
      186    15614                                  @LOP     = LINK$,
      187    15615                                  @ROP     = LAST_TEXT$);
      188    15994
      189    15995    3                   OFF = OFF + (LAST_SPACE / 4);
      190    15996
      191    15997
      192    15998    3             END CLEAN_UP;
      193    15999
      194    16000
      195    16001    2             ENTRY$ = PROC$ -> PROC_.PROC_DEF$ -> SYMDEF_.ENTRYS$;
      196    16002
      197    16003    2             IF ENTRY$ = ADDR(NIL) THEN
      198    16004    2               RETURN;
      199    16005
      200    16006    2             P$ = ENTRY$;
      201    16007    2             LINK$ = ADDR(NIL);
      202    16008    2             LAST_N$ = ADDR(NIL);
      203    16009    2             LAST_TEXT$ = ADDR(NIL);
      204    16010    2             ENTRY$ = ADDR(NIL);
      205    16011    2             OFF = 0;
      206    16012
      207    16013    3             DO UNTIL (P$ = ADDR(NIL));
      208    16014
      209    16015    3               DNT$$ = P$ -> SYMDEF_.DNT$;
      210    16016
      211    16017    3               CALL BUILD_NAME (DNT$$, N$, TEXT$, NAME_SPACE);
      212    16018
      213    16019    3               NAME_LENGTH = TEXT$ -> SCALAR.ADSC.N;
      214    16020
PL6.E3A0      #001=Z8E8$NEW_CSIB File=Z8E8.:Z8A6TSI                              SAT 08/09/97 11:37 Page:8
      215    16021    3               CALL Z8CU$BUILD_AND_LINK (DNT$$, 1, %TYA, 'CSIBE', 5, CSIBE$);
      216    16022
      217    16023    3               CSIBE$  -> SCALAR.ADSC.N = NAME_LENGTH + (3 * %CHARS_PER_WORD);
      218    16024                    %IF GCOS;
      220    16026                    %ENDIF;
      221    16027
      222    16028    3               IF ENTRY$ = ADDR(NIL) THEN
      223    16029    3                 ENTRY$ = CSIBE$ ;
      224    16030
      225    16031    3               IF LINK$ ~= ADDR(NIL) THEN
      226    16032    3                 CALL CLEAN_UP (OFF, CSIBE$ );
      227    16033
      228    16034    3               OFF = 0;
      229    16035
      230    16036                    %NEW_ILL (@ID      = %PTR_SET,
      231    16037                              @OFFSET  = OFF,
      232    16038                              @LOP     = CSIBE$ ,
      233    16039                              @ROP     = P$);
      234    16418
      235    16419    3               OFF = OFF + 1;
      236    16420
      237    16421    3               LINK$ = CSIBE$;
      238    16422    3               LAST_N$ = N$;
      239    16423    3               LAST_TEXT$ = TEXT$;
      240    16424    3               LAST_SPACE = NAME_SPACE;
      241    16425
      242    16426    3               P$ = P$ -> SYMDEF_.ENTRYS$;
      243    16427    3             END; /* Until */
      244    16428
      245    16429    2             CALL CLEAN_UP (OFF, ADDR(NIL));
      246    16430
      247    16431    2        END BUILD_ENTRY_POINT;
      248    16432             %EJECT;
PL6.E3A0      #001=Z8E8$NEW_CSIB File=Z8E8.:Z8A6TSI                              SAT 08/09/97 11:37 Page:9
      249    16433             /*===========*/
      250    16434    1          CLOSE_FILES : PROC (FILE$);
      251    16435             /*===========*/
      252    16436
      253    16437             %INCLUDE X9A_IO;
      254    16587
      255    16588    2        DCL FILE$         PTR;
      256    16589    2        DCL RT_DESC_LIST$ PTR;
      257    16590    2        DCL RT_ARG_LIST$  PTR;
      258    16591
      259    16592             %DCL_AUTO_LX_ITEM (@NAME = FAB);
      260    16596             %DCL_AUTO_LX_ITEM (@NAME = CTYPE);
      261    16600             %DCL_AUTO_LX_ITEM (@NAME = PLIST);
      262    16604
      263    16605    2        DCL Z9EY$BUILD_RUNTIME_DESCRIPTOR ENTRY (3);
      264    16606    2        DCL Z8EY$BUILD_RUNTIME_ARGLIST    ENTRY (3);
      265    16607    2        DCL Z8EU$CREATE_IDENTIFIER_FROM_ST ENTRY (4);
      266    16608    2        DCL Z8AC$LX_ETT_ITEM_TYI_CONST    ENTRY (2);
      267    16609
      268    16610
      269    16611    2           CALL Z8EU$CREATE_IDENTIFIER_FROM_ST( FILE$ -> FILE_LTS.FAB$,
      270    16612    2                                                ADDR(FAB));
      271    16613
      272    16614    2           CALL Z8AC$LX_ETT_ITEM_TYI_CONST (%CLOSE_DEFAULT,
      273    16615    2                                            ADDR(CTYPE));
      274    16616
      275    16617                %INIT_LX_LIST (@POINTER = "ADDR(PLIST)");
      276    16627
      277    16628                %ADD_LX_ITEM_TO_LIST_HEAD (@FROM$ = "ADDR(FAB)",
      278    16629                                           @LIST$ = "ADDR(PLIST)");
      279    16638
      280    16639                %ADD_LX_ITEM_TO_LIST_TAIL (@FROM$ = "ADDR(CTYPE)",
      281    16640                                           @LIST$ = "ADDR(PLIST)");
      282    16656
      283    16657    2           CALL Z9EY$BUILD_RUNTIME_DESCRIPTOR (ADDR(PLIST) -> LX_LIST.HEAD$,
      284    16658    2                                               RT_DESC_LIST$,
      285    16659    2                                               2);
PL6.E3A0      #001=Z8E8$NEW_CSIB File=Z8E8.:Z8A6TSI                              SAT 08/09/97 11:37 Page:10
      286    16660
      287    16661    2           CALL Z8EY$BUILD_RUNTIME_ARGLIST (ADDR(PLIST) -> LX_LIST.HEAD$,
      288    16662    2                                            RT_ARG_LIST$,
      289    16663    2                                            2);
      290    16664
      291    16665                %NEW_ILL (@ID = %OS_CALL,
      292    16666                          @CODE = %OP_CLOSE_CANCEL,
      293    16667                          @ROP = RT_DESC_LIST$,
      294    16668                          @LOP = RT_ARG_LIST$);
      295    17047    2        END CLOSE_FILES;
      296    17048             %EJECT;
PL6.E3A0      #001=Z8E8$NEW_CSIB File=Z8E8.:Z8A6TSI                              SAT 08/09/97 11:37 Page:11
      297    17049             /*==================*/
      298    17050    1          SEARCH_FOR_CLOSING : PROC ;
      299    17051             /*==================*/
      300    17052
      301    17053    2          DCL FILE$       PTR;
      302    17054
      303    17055
      304    17056    2            FILE$    = COMCOM.FILE_LTS_CHAIN$;
      305    17057
      306    17058    3            DO WHILE (FILE$ ~= ADDR(NIL));
      307    17059    3              IF  FILE$ -> FILE_LTS.ST$ -> FD.PROC$ = PROC$
      308    17060    3              AND FILE$ -> FILE_LTS.ST$ -> ST.ID = %FD
      309    17061    3              AND NOT FILE$ -> FILE_LTS.ST$ -> FD.B.EXTERNAL THEN
      310    17062
      311    17063    3                  CALL CLOSE_FILES (FILE$);
      312    17064
      313    17065    3              FILE$ = FILE$ -> FILE_LTS.FILE_LTS_CHAIN$;
      314    17066    3            END; /* While */
      315    17067
      316    17068    2        END SEARCH_FOR_CLOSING;
      317    17069             %EJECT;
PL6.E3A0      #001=Z8E8$NEW_CSIB File=Z8E8.:Z8A6TSI                              SAT 08/09/97 11:37 Page:12
      318    17070
      319    17071         /*==================*/
      320    17072    1      CHECK_ARRAY_PRESET: PROC (NODE$);
      321    17073         /*==================*/
      322    17074
      323    17075
      324    17076    2   DCL NODE$      PTR;
      325    17077    2   DCL ST$$       PTR;
      326    17078    2   DCL P$         PTR;
      327    17079    2   DCL QLT$$      PTR;
      328    17080
      329    17081
      330    17082
      331    17083    2      P$ = NODE$ -> LX_LIST.HEAD$;
      332    17084
      333    17085    3      DO WHILE (P$ ~= ADDR(NIL));
      334    17086
      335    17087             %FISH (TRIAD = P$ -> LX_LIST.HEAD$ -> LX_ETT_ITEM.ETT$,
      336    17088                    RTN   = ST$$);
      337    17096
      338    17097    3        IF ST$$ -> ST.ID = %ARRAY AND
      339    17098    3          (NOT ST$$ -> ARRAY.B.ARRAY_PRESET) THEN
      340    17099    4          DO;
      341    17100    4            COMCOM.OB.ARRAY_PRESET = TRUE;
      342    17101    4            QLT$$ = ST$$ -> ARRAY.QLT$;
      343    17102
      344    17103    5            DO WHILE (QLT$$ -> QLT.FATHER ~= ADDR(NIL));
      345    17104    5              QLT$$ = QLT$$ -> QLT.FATHER;
      346    17105    5            END;
      347    17106
      348    17107    4            CALL Z8E8$ASSIGN_ARRAY_PRESET (QLT$$ -> QLT.SON);
      349    17108    4          END;
      350    17109
      351    17110    3        P$ = P$ -> LX_LIST.LINK;
      352    17111
      353    17112    3      END; /* DO WHILE */
      354    17113
PL6.E3A0      #001=Z8E8$NEW_CSIB File=Z8E8.:Z8A6TSI                              SAT 08/09/97 11:37 Page:13
      355    17114    2    END CHECK_ARRAY_PRESET;
      356    17115        %EJECT;
PL6.E3A0      #001=Z8E8$NEW_CSIB File=Z8E8.:Z8A6TSI                              SAT 08/09/97 11:37 Page:14
      357    17116
      358    17117             /*-------------*/
      359    17118    1          NEW_INIT_PROC: PROC (VALUE$, LABEL$);
      360    17119             /*-------------*/
      361    17120
      362    17121    2              DCL VALUE$  PTR;   /* IN -- to list of list of 2 items
      363    17122                                               head$ -> receiving item
      364    17123                                               tail$ -> sending item
      365    17124                                      */
      366    17125    2              DCL LABEL$  PTR;   /* OUT -- to label of procedure */
      367    17126
      368    17127
      369    17128                   /*--------------*/
      370    17129    2                PROCESS_VALUES: PROC (VALUE$);
      371    17130                   /*--------------*/
      372    17131
      373    17132    3                  DCL VALUE$     PTR; /* Same as above */
      374    17133    3                  DCL P$         PTR;
      375    17134    3                  DCL LOP$       PTR;
      376    17135    3                  DCL ROP$       PTR;
      377    17136    3                  DCL ST$$       PTR;
      378    17137
      379    17138    3                  DCL Z8E7$RESTRICTED_MOVE ENTRY (2);
      380    17139
      381    17140
      382    17141    3                  IF VALUE$ = ADDR(NIL) THEN
      383    17142                         /* This init_proc is created for the possibility
      384    17143                            that PH2 must put in COBOL74 Pform vars or
      385    17144                            Alter vars in it.                            */
      386    17145    3                    RETURN;
      387    17146
      388    17147    3                  P$ = VALUE$ -> LX_LIST.HEAD$;
      389    17148
      390    17149    4                  DO WHILE (P$ ~= ADDR(NIL));
      391    17150    4                    LOP$ = P$ -> LX_LIST.HEAD$;
      392    17151    4                    ROP$ = P$ -> LX_LIST.TAIL$;
      393    17152
PL6.E3A0      #001=Z8E8$NEW_CSIB File=Z8E8.:Z8A6TSI                              SAT 08/09/97 11:37 Page:15
      394    17153                         %FISH (TRIAD = "LOP$ -> LX_ETT_ITEM.ETT$",
      395    17154                                RTN   = ST$$);
      396    17162
      397    17163    4                    IF ST$$ -> VARIABLE.LTS$ ~= ADDR(NIL) AND
      398    17164    4                        ST$$ -> VARIABLE.LTS$ -> ETT.ID = %TRIAD AND
      399    17165                           /* If only assignment is in VALUE IS clause then
      400    17166                              exclude from init proc */
      401    17167    4                        ST$$ -> VARIABLE.B.GLOBAL = FALSE THEN;
      402    17168                           /* Except, include GLOBAL identifiers, which may be
      403    17169                              assigned values in programs contained within
      404    17170                              this program */
      405    17171    4                    ELSE IF ST$$ -> ST.ID = %ARRAY THEN
      406    17172    4                      CALL Z8E8$INIT_ARRAY (LOP$, ROP$);
      407    17173    4                    ELSE IF ROP$ -> LX_ETT_ITEM.ETT$ = ADDR(NIL) THEN
      408    17174    5                      DO;
      409    17175    6                        DO CASE (LOP$ -> LX_ETT_ITEM.TYPE);
      410    17176    6                          CASE (%TYD, %TYO, %TYF, %TYC);
      411    17177    6                            CALL Z8AF$FORME (%DNA, LOP$ -> LX_ETT_ITEM.ETT$, 0, LOP$ ->
             17177                                     LX_ETT_ITEM.ETT$);
      412    17178    6                        END;
      413    17179                             %NEW_ILL (@ID   = %MFILL,
      414    17180                                       @LOP  = LOP$ -> LX_ETT_ITEM.ETT$,
      415    17181                                       @FILL = "BITASC('000'O)");
      416    17560    5                      END;
      417    17561    4                    ELSE
      418    17562    4                      CALL Z8E7$RESTRICTED_MOVE (LOP$, ROP$);
      419    17563
      420    17564    4                    P$ = P$ -> LX_LIST.LINK;
      421    17565    4                  END; /* While */
      422    17566
      423    17567    3                END PROCESS_VALUES;
      424    17568
      425    17569
      426    17570                   /* Main body -- new_init_proc */
      427    17571
      428    17572    2              CALL Z8AT$CREATE_TEMPORARY (%PARA, LABEL$);
      429    17573
PL6.E3A0      #001=Z8E8$NEW_CSIB File=Z8E8.:Z8A6TSI                              SAT 08/09/97 11:37 Page:16
      430    17574    2              LABEL$ -> LABEL.B.REFERENCED = TRUE;
      431    17575    2              LABEL$ -> LABEL.B.ONE_REF    = TRUE;
      432    17576    2              LABEL$ -> LABEL.B.GOTO_LABEL = TRUE;
      433    17577    2              LABEL$ -> LABEL.B.INIT_PROC  = TRUE;
      434    17578
      435    17579                   %NEW_ILL (@ID = %DEFLB,
      436    17580                             @LABEL$ = LABEL$);
      437    17959
      438    17960                   %NEW_ILL (@ID = %USE_ENTRY,
      439    17961                             @CODE = %INIT_PROC,
      440    17962                             @LOP = "ADDR(NIL)");
      441    18341
      442    18342    2              CALL PROCESS_VALUES (VALUE$);
      443    18343
      444    18344    2                IF NOT COMCOM.OB.COBOL_74 THEN
      445    18345    2                CALL SEARCH_FOR_CLOSING;
      446    18346
      447    18347                   %NEW_ILL (@ID = %USE_END,
      448    18348                             @CODE = %USE_PROC,
      449    18349                             @LOP = "ADDR(NIL)");
      450    18728
      451    18729    2          END NEW_INIT_PROC;
      452    18730             %EJECT;
PL6.E3A0      #001=Z8E8$NEW_CSIB File=Z8E8.:Z8A6TSI                              SAT 08/09/97 11:37 Page:17
      453    18731
      454    18732             /*
      455    18733               Main portion
      456    18734             */
      457    18735
      458    18736
      459    18737    1        DNT$$ = PROC$ -> PROC_.PROC_DEF$ -> SYMDEF_.DNT$;
      460    18738
      461    18739    1        CALL BUILD_NAME (DNT$$, N$, TEXT$, NAME_SPACE);
      462    18740
      463    18741    1        NAME_LENGTH = TEXT$ -> SCALAR.ADSC.N;
      464    18742
      465    18743    1        CALL Z8CU$BUILD_AND_LINK (DNT$$, 1, %TYA, 'CSIB', 4, CSIB$);
      466    18744
      467    18745    1        CSIB$ -> SCALAR.ADSC.N = NAME_LENGTH + (8 * %CHARS_PER_WORD);
      468    18746             /*N* Change the 8 to some other preprocessor */
      469    18747             %IF GCOS;
      471    18749             %ENDIF;
      472    18750
      473    18751    1        CALL Z8AF$NEW_BASE (CSIB$, /* LOP */
      474    18752    1                            ADDR(NIL),        /* ROP */
      475    18753    1                            PROC$ -> PROC_.CSIB$);
      476    18754
      477    18755    1        OFF = 0;
      478    18756
      479    18757
      480    18758    1        IF  PROC$ -> PROC_.BROTHER ~= ADDR(NIL)
      481    18759    1        AND PROC$ -> PROC_.FATHER ~= ADDR(NIL) THEN
      482    18760    2          DO;
      483    18761    2            CALL Z8E8$NEW_CSIB (PROC$ -> PROC_.BROTHER);
      484    18762
      485    18763    2            ROP$ = PROC$ -> PROC_.BROTHER -> PROC_.CSIB$ -> ETT.LOP;
      486    18764    2          END;
      487    18765    1        ELSE
      488    18766    1          ROP$ = ADDR(NIL);
      489    18767
      490    18768             %NEW_ILL (@ID     = %PTR_SET,
PL6.E3A0      #001=Z8E8$NEW_CSIB File=Z8E8.:Z8A6TSI                              SAT 08/09/97 11:37 Page:18
      491    18769                       @OFFSET = OFF,
      492    18770                       @LOP    = CSIB$,
      493    18771                       @ROP    = ROP$);
      494    19150
      495    19151    1        OFF = OFF + 1;
      496    19152
      497    19153    1        IF PROC$ -> PROC_.SON ~= ADDR(NIL) THEN
      498    19154    2          DO;
      499    19155    2            CALL Z8E8$NEW_CSIB (PROC$ -> PROC_.SON);
      500    19156
      501    19157    2            ROP$ = PROC$ -> PROC_.SON -> PROC_.CSIB$ -> ETT.LOP;
      502    19158    2          END;
      503    19159    1        ELSE
      504    19160    1          ROP$ = ADDR(NIL);
      505    19161
      506    19162             %NEW_ILL (@ID     = %PTR_SET,
      507    19163                       @OFFSET = OFF,
      508    19164                       @LOP    = CSIB$,
      509    19165                       @ROP    = ROP$);
      510    19544
      511    19545    1        OFF = OFF + 1;
      512    19546
      513    19547    1        IF PROC$ -> PROC_.FATHER ~= ADDR(NIL) THEN
      514    19548    1          ROP$ = PROC$ -> PROC_.FATHER -> PROC_.CSIB$ -> ETT.LOP;
      515    19549    1        ELSE
      516    19550    1          ROP$ = ADDR(NIL);
      517    19551
      518    19552             %NEW_ILL (@ID     = %PTR_SET,
      519    19553                       @OFFSET = OFF,
      520    19554                       @LOP    = CSIB$,
      521    19555                       @ROP    = ROP$);
      522    19934
      523    19935    1        OFF = OFF + 1;
      524    19936
      525    19937    1        IF (PROC$ -> PROC_.FATHER = ADDR(NIL)
      526    19938    1            AND PROC$ -> PROC_.PROC_DEF$ -> SYMDEF_.B.MAIN_PROGRAM) THEN
      527    19939    2          DO;
PL6.E3A0      #001=Z8E8$NEW_CSIB File=Z8E8.:Z8A6TSI                              SAT 08/09/97 11:37 Page:19
      528    19940    2            IF PROC$ -> PROC_.PROC_SUPP$ -> PROC_SUPP.INIT_PROC$ ~= ADDR(NIL) THEN
      529    19941    3               DO;
      530    19942    3                 CALL CHECK_ARRAY_PRESET ( PROC$ -> PROC_.PROC_SUPP$ ->
      531    19943    3                                           PROC_SUPP.INIT_PROC$ );
      532    19944    3                 CALL Z8ED$DISPOSE_ABSSYN_TREE (PROC$ -> PROC_.PROC_SUPP$ ->
      533    19945    3                                             PROC_SUPP.INIT_PROC$);
      534    19946    3               END;
      535    19947    2            ENTADDR_OF_ENIL$ = ENTADDR(NIL);
      536    19948    2            MKCN.CON = ENTADDR_OF_NIL_UBIN;
      537    19949    2            CALL Z8AC$MAKE_CONST (ENTADDR_OF_NIL$);
      538    19950    2            ROP$ = ENTADDR_OF_NIL$ -> ETT.LOP;
      539    19951
      540    19952                 %NEW_ILL (@ID     = %PREOFF,
      541    19953                           @OFFSET = OFF,
      542    19954                           @N      = 1,
      543    19955                           @LOP    = CSIB$,
      544    19956                           @ROP    = ROP$);
      545    20335    2          END;
      546    20336    1        ELSE
      547    20337    2          DO;
      548    20338    2            CALL NEW_INIT_PROC (PROC$ -> PROC_.PROC_SUPP$ -> PROC_SUPP.INIT_PROC$,
      549    20339    2                                ROP$);
      550    20340
      551    20341    2            IF PROC$ -> PROC_.PROC_SUPP$ ->
      552    20342    2               PROC_SUPP.INIT_PROC$ ~= ADDR(NIL) THEN
      553    20343    2              CALL Z8ED$DISPOSE_ABSSYN_TREE (PROC$ -> PROC_.PROC_SUPP$ ->
      554    20344    2                                           PROC_SUPP.INIT_PROC$);
      555    20345                 %NEW_ILL (@ID     = %PTR_SET,
      556    20346                           @OFFSET = OFF,
      557    20347                           @LOP    = CSIB$,
      558    20348                           @ROP    = ROP$);
      559    20727
      560    20728                 /* Ph2 requires INIT_PROC$ to point to the ILS$ created
      561    20729                    for the preset so he can delete any nil init_procs.
      562    20730                    The ils$ is gotten from ILS$(global), sorry.        */
      563    20731
      564    20732    2            PROC$ -> PROC_.PROC_SUPP$ -> PROC_SUPP.INIT_PROC$ = ILS$;
PL6.E3A0      #001=Z8E8$NEW_CSIB File=Z8E8.:Z8A6TSI                              SAT 08/09/97 11:37 Page:20
      565    20733    2          END;
      566    20734
      567    20735    1        OFF = OFF + 1;
      568    20736
      569    20737             /* Build the entry point list */
      570    20738
      571    20739    1        CALL BUILD_ENTRY_POINT (PROC$, P$);
      572    20740
      573    20741             %NEW_ILL (@ID     = %PTR_SET,
      574    20742                       @OFFSET = OFF,
      575    20743                       @LOP    = CSIB$,
      576    20744                       @ROP    = P$);
      577    21123
      578    21124    1        OFF = OFF + 1;
      579    21125
      580    21126             /* Set the CSIB.ENTRY$ */
      581    21127
      582    21128             %NEW_ILL (@ID    = %PTR_SET,
      583    21129                       @OFFSET = OFF,
      584    21130                       @LOP   = CSIB$,
      585    21131                       @ROP   = PROC$ -> PROC_.PROC_DEF$);
      586    21510
      587    21511    1        OFF = OFF + 1;
      588    21512
      589    21513             /* Flags word */
      590    21514    1        CALL SET_FLAGS (PROC$, P$);
      591    21515
      592    21516             %NEW_ILL (@ID     = %PREOFF,
      593    21517                       @OFFSET = OFF,
      594    21518                       @N      = 1,
      595    21519                       @LOP    = CSIB$,
      596    21520                       @ROP    = P$);
      597    21899
      598    21900    1        OFF = OFF + 1;
      599    21901
      600    21902             /* Preset the name length and name */
      601    21903
PL6.E3A0      #001=Z8E8$NEW_CSIB File=Z8E8.:Z8A6TSI                              SAT 08/09/97 11:37 Page:21
      602    21904             %NEW_ILL (@ID     = %PREOFF,
      603    21905                       @OFFSET = OFF,
      604    21906                       @N      = 1,
      605    21907                       @LOP    = CSIB$,
      606    21908                       @ROP    = N$);
      607    22287
      608    22288    1        OFF = OFF + 1; /* Increment the offset within CSIB */
      609    22289
      610    22290
      611    22291             %NEW_ILL (@ID     = %PREOFF,
      612    22292                       @OFFSET = OFF,
      613    22293                       @N      = NAME_SPACE / 4,
      614    22294                       @LOP    = CSIB$,
      615    22295                       @ROP    = TEXT$);
      616    22674
      617    22675    1        OFF = OFF + (NAME_SPACE / 4);
      618    22676
      619    22677    1   END Z8E8$NEW_CSIB;
      620    22678        %EOD;

PL6.E3A0      #001=Z8E8$NEW_CSIB File=Z8E8.:Z8A6TSI                              SAT 08/09/97 11:37 Page:22
--  Include file information  --

   X9A_IO.:X8A6TOU  is referenced.
   Z9A_FLAGS.:Z8A6TOU  is referenced.
   Z8E_ABSSYN.:Z8A6TOU  cannot be made into a system file and is referenced.
   Z8E_NEW_ILL.:Z8A6TOU  is referenced.
   Z8E_MACROS.:Z8A6TOU  cannot be made into a system file and is referenced.
   Z8E_O1COM.:Z8A6TOU  cannot be made into a system file and is referenced.
   Z8A_LEX_SYMB.:Z8A6TOU  cannot be made into a system file and is referenced.
   Z8E_STACKS.:Z8A6TOU  cannot be made into a system file and is referenced.
   Z8A_LIBRARY.:Z8A6TOU  cannot be made into a system file and is referenced.
   X8A_CSIB.:X8A6TOU  is referenced.
   Z8A_QLT.:Z8A6TOU  cannot be made into a system file and is referenced.
   Z8A_MKCN.:Z8A6TOU  cannot be made into a system file and is referenced.
   Z8A_ETT.:Z8A6TOU  cannot be made into a system file and is referenced.
   Z8A_LTS.:Z8A6TOU  cannot be made into a system file and is referenced.
   Z8A_ILS.:Z8A6TOU  cannot be made into a system file and is referenced.
   Z8A_ILL.:Z8A6TOU  cannot be made into a system file and is referenced.
   Z8A_TYPES.:Z8A6TOU  is referenced.
   Z8A_ST.:Z8A6TOU  cannot be made into a system file and is referenced.
   Z8A_DNT.:Z8A6TOU  cannot be made into a system file and is referenced.
   Z8A_COMCOM.:Z8A6TOU  cannot be made into a system file and is referenced.
   X8A_COM_MACS.:X8A6TOU  is referenced.
   Z8A_NAMES.:Z8A6TOU  is referenced.
   Z8A_SUPP_MAC.:Z8A6TOU  is referenced.
   Z8A_DEFC.:Z8A6TOU  cannot be made into a system file and is referenced.
      No diagnostics issued in procedure Z8E8$NEW_CSIB.

   Procedure Z8E8$NEW_CSIB requires 1079 words for executable code.
   Procedure Z8E8$NEW_CSIB requires 66 words of local(AUTO) storage.

PL6.E3A0      #001=Z8E8$NEW_CSIB File=Z8E8.:Z8A6TSI                              SAT 08/09/97 11:37 Page:23

 Object Unit name= Z8E8$NEW_CSIB                              File name= Z8E8.:Z8A6TOU
 UTS= AUG 09 '97 11:37:49.68 SAT                              Compiler= PL-6/E31         Sev=      00
 SharedLib= :SHARED_SYSTEM                                    Alt SharedLib=


    ****  Control sections  ****

 Sect   Type Bound  Init  Size OctSiz  Section name(segment info)
    0  LblCom even  none     1      1  ITERATION
    1  LblCom even  none     1      1  DNT$
    2  LblCom even  none     5      5  DNT_
    3  LblCom even  none     1      1  DNT_BUCKET_NUMBER
    4  LblCom even  none     1      1  DNT_OF_1$
    5  LblCom even  none     1      1  ST$
    6  LblCom even  none     5      5  ST_
    7  LblCom even  none     1      1  ILL$
    8  LblCom even  none     5      5  ILL_
    9  LblCom even  none     1      1  ILS$
   10  LblCom even  none     5      5  ILS_
   11  LblCom even  none     1      1  LTS$
   12  LblCom even  none     5      5  LTS_
   13  LblCom even  none     1      1  ETT$
   14  LblCom even  none     1      1  HEAD_ETT$
   15  LblCom even  none   512   1000  ETT_BUCKETS
   16  LblCom even  none     5      5  ETT_
   17  LblCom even  none     2      2  MKCN
   18  LblCom even  none     1      1  QLT$
   19  LblCom even  none     1      1  PREV_01_QLT$
   20  LblCom even  none     5      5  QLT_
   21  LblCom even  none    90    132  LEX_SYMBOL
   22  LblCom even  none     1      1  CURRENT_LEX_SYMBOL$
   23  LblCom even  none    90    132  TEMP_LEX_SYMBOL
   24  LblCom even  none    90    132  TEMP_LEX_SYMBOL2
   25  LblCom even  none     8     10  TEMP_LX_NODE
   26  RoData even  UTS     10     12  Z8E8$NEW_CSIB
   27   Proc  even  none  1079   2067  Z8E8$NEW_CSIB
   28  RoData even  none    48     60  Z8E8$NEW_CSIB
PL6.E3A0      #001=Z8E8$NEW_CSIB File=Z8E8.:Z8A6TSI                              SAT 08/09/97 11:37 Page:24

    ****  Entry defs  ****

                              Check   Calling
                             calling  sequence
  Sect OctLoc Primary Altret sequence   type   Parms  Name
    27      0   yes            yes      Std        1  Z8E8$NEW_CSIB

  ****  Entry refs  ****

         Check        Calling
        calling       sequence
Altret sequence SRef   type   Args  Name
         yes           Std       4 Z8AN$NEW_ILL
         yes           Std       6 Z8CU$BUILD_AND_LINK
         yes           Std       3 Z8AF$NEW_BASE
         yes           Std       1 Z8ED$DISPOSE_ABSSYN_TREE
         yes           Std       1 Z8AC$MAKE_CONST
         yes           Std       4 Z8AC$MAKE_TYA_CONST
         yes           Std       4 Z8EU$CREATE_IDENTIFIER_FROM_ST
         yes           Std       2 Z8AC$LX_ETT_ITEM_TYI_CONST
         yes           Std       3 Z9EY$BUILD_RUNTIME_DESCRIPTOR
         yes           Std       3 Z8EY$BUILD_RUNTIME_ARGLIST
         yes           Std       1 Z8E8$ASSIGN_ARRAY_PRESET
         yes           Std       2 Z8AT$CREATE_TEMPORARY
         yes           Std       2 Z8E8$INIT_ARRAY
         yes           Std       4 Z8AF$FORME
         yes           Std       2 Z8E7$RESTRICTED_MOVE
         yes           Std       5 Z8AN$NEW_ILL1
                       nStd      0 X66_AUTO_1
                       nStd      0 X66_ARET
PL6.E3A0      #001=Z8E8$NEW_CSIB File=Z8E8.:Z8A6TSI                              SAT 08/09/97 11:37 Page:25

  ****  Data refs  ****

  Flags:  r = read only, s = secondary
Flgs Name                             Flgs Name                             Flgs Name
     COMCOM                           r    ILL_STEP                         r    ILS_STEP_TABLE
r    LTS_STEP                              O1COM                                 HIER_STK_PTR
     HIER_STK                              PAGE_FORMAT                           REP_STK_PTR
     REP_STK

  ****  Segment refs  ****

  Flags:  r = read only, s = secondary
Flgs Name                             Flgs Name                             Flgs Name
     NULLSID                               ISSID
PL6.E3A0      #001=Z8E8$NEW_CSIB File=Z8E8.:Z8A6TSI                              SAT 08/09/97 11:37 Page:26


        1        1        /*M* Z8E8 -- Creates CSIB for all programs */
        2        2        /*T***********************************************************/
        3        3        /*T*                                                         */
        4        4        /*T* Copyright (c) Bull HN Information Systems Inc., 1997    */
        5        5        /*T*                                                         */
        6        6        /*T***********************************************************/
        7        7        /*-------------*/
        8        8          Z8E8$NEW_CSIB: PROC (PROC$);

      8 27 000000   000000 700200 xent  Z8E8$NEW_CS* TSX0  ! X66_AUTO_1
        27 000001   000102 000001                    ZERO    66,1
        27 000002   001241 710000 27                 TRA     s:18737

        9        9        /*-------------*/
       10       10
       11       11         /*P*
       12       12               NAME : Z8E8$NEW_CSIB
       13       13               PURPOSE : To create a CSIB for a given program and all its
       14       14                 internal programs.  This is done thru recursion, starting
       15       15                 from the outer most program.
       16       16         */
       17       17
       18       18
       19       19             %EQU PHASE = 1;
       20       20             %EQU CHARS_PER_WORD = 4;
       21       21
       22       22             %INCLUDE Z8A_DEFC;
       23       90             %INCLUDE Z8A_SUPP_MAC;
       24     2490             %INCLUDE Z8A_COMCOM;
       25     3140             %INCLUDE Z8A_DNT;
       26     3361             %INCLUDE Z8A_ST;
       27     7020             %INCLUDE Z8A_TYPES;
       28     7194             %INCLUDE Z8A_ILL;
       29     7887             %INCLUDE Z8A_ILS;
       30     7996             %INCLUDE Z8A_LTS;
       31    10073             %INCLUDE Z8A_ETT;
PL6.E3A0      #001=Z8E8$NEW_CSIB File=Z8E8.:Z8A6TSI                              SAT 08/09/97 11:37 Page:27
       32    10374             %INCLUDE Z8A_MKCN;
       33    10391             %INCLUDE Z8A_QLT;
       34    10497             %INCLUDE X8A_CSIB;
       35    10562             %INCLUDE Z8A_LIBRARY;
       36    10776
       37    10777             %INCLUDE Z8E_STACKS;
       38    13043             %INCLUDE Z8E_O1COM;
       39    13804             %INCLUDE Z8E_MACROS;
       40    14479             %INCLUDE Z8E_ABSSYN;
       41    14685             %INCLUDE Z9A_FLAGS;
       42    14699
       43    14700    1        DCL Z8CU$BUILD_AND_LINK  ENTRY (6);
       44    14701    1        DCL Z8ED$DISPOSE_ABSSYN_TREE ENTRY (1);
       45    14702    1        DCL Z8AC$MAKE_CONST      ENTRY (1);
       46    14703    1        DCL Z8AF$NEW_BASE        ENTRY (3);
       47    14704    1        DCL Z8AF$FORME           ENTRY (4);
       48    14705    1        DCL Z8AC$MAKE_TYA_CONST  ENTRY (4);
       49    14706    1        DCL Z8AT$CREATE_TEMPORARY ENTRY (2);
       50    14707    1        DCL Z8E8$INIT_ARRAY      ENTRY (2);
       51    14708    1        DCL Z8E8$ASSIGN_ARRAY_PRESET ENTRY (1);
       52    14709             %IF GCOS;
       54    14711             %ENDIF;
       55    14712
       56    14713    1        DCL ENTADDR_OF_NIL$      PTR;
       57    14714    1        DCL ENTADDR_OF_NIL_UBIN  REDEF ENTADDR_OF_NIL$ UBIN;
       58    14715    1        DCL ENTADDR_OF_ENIL$     REDEF ENTADDR_OF_NIL$ EPTR;
       59    14716
       60    14717    1        DCL PROC$         PTR;
       61    14718    1        DCL DNT$$         PTR;
       62    14719    1        DCL CSIB$         PTR;
       63    14720    1        DCL P$            PTR;
       64    14721    1        DCL ROP$          PTR;
       65    14722    1        DCL N$            PTR;
       66    14723    1        DCL TEXT$         PTR;
       67    14724
       68    14725    1        DCL OFF           SBIN;
       69    14726    1        DCL NAME_LENGTH   SBIN;
PL6.E3A0      #001=Z8E8$NEW_CSIB File=Z8E8.:Z8A6TSI                              SAT 08/09/97 11:37 Page:28
       70    14727    1        DCL NAME_SPACE    SBIN;
       71    14728
       72    14729
       73    14730           /*---------*/
       74    14731    1        SET_FLAGS: PROC (PROC$, CONST$);

  14731 27 000003   200030 741300       SET_FLAGS    STX1  ! NAME_SPACE+2,,AUTO

       75    14732           /*---------*/
       76    14733
       77    14734    2            DCL PROC$            PTR;
       78    14735    2            DCL CONST$           PTR;
       79    14736
       80    14737    2            DCL 1 CSIB_BITS     ALIGNED,
       81    14738                      %CSIB_BITS      (@LVL = 2, @ENDING = YES);
       82    14754
       83    14755
       84    14756    2            CSIB_BITS = FALSE;

  14756 27 000004   200033 450100                    STZ     CSIB_BITS,,AUTO

       85    14757
       86    14758    2            CSIB_BITS.EXTERNAL = (PROC$ -> PROC_.FATHER = ADDR(NIL));

  14758 27 000005   200031 470500                    LDP0    @PROC$,,AUTO
        27 000006   000000 471500                    LDP1    0,,PR0
        27 000007   400000 220003                    LDX0    -131072,DU
        27 000010   100011 236100                    LDQ     9,,PR1
        27 000011   000000 116000 28                 CMPQ    0
        27 000012   000014 600000 27                 TZE     s:14758+7
        27 000013   000000 220003                    LDX0    0,DU
        27 000014   000000 636010                    EAQ     0,X0
        27 000015   200033 676100                    ERQ     CSIB_BITS,,AUTO
        27 000016   400000 376003                    ANQ     -131072,DU
        27 000017   200033 656100                    ERSQ    CSIB_BITS,,AUTO

       87    14759    2            CSIB_BITS.INITIAL  = PROC$ -> PROC_.B.INITIAL;
PL6.E3A0      #001=Z8E8$NEW_CSIB File=Z8E8.:Z8A6TSI                              SAT 08/09/97 11:37 Page:29

  14759 27 000020   100003 236100                    LDQ     3,,PR1
        27 000021   200033 676100                    ERQ     CSIB_BITS,,AUTO
        27 000022   200000 376003                    ANQ     65536,DU
        27 000023   200033 656100                    ERSQ    CSIB_BITS,,AUTO

       88    14760    2            CSIB_BITS.COMMON   = PROC$ -> PROC_.B.COMMON;

  14760 27 000024   100003 236100                    LDQ     3,,PR1
        27 000025   000002 772000                    QRL     2
        27 000026   200033 676100                    ERQ     CSIB_BITS,,AUTO
        27 000027   100000 376003                    ANQ     32768,DU
        27 000030   200033 656100                    ERSQ    CSIB_BITS,,AUTO

       89    14761    2            CSIB_BITS.RSCR_FLAG = COMCOM.OB.COUNT.RSCR_FLAG;

  14761 27 000031   000112 236000 xsym               LDQ     COMCOM+74
        27 000032   000014 736000                    QLS     12
        27 000033   200033 676100                    ERQ     CSIB_BITS,,AUTO
        27 000034   004000 376003                    ANQ     2048,DU
        27 000035   200033 656100                    ERSQ    CSIB_BITS,,AUTO

       90    14762
       91    14763                 /* Insert bit sets above */
       92    14764
       93    14765    2            MKCN.CON = BITBIN (CSIB_BITS);

  14765 27 000036   200033 235100                    LDA     CSIB_BITS,,AUTO
        27 000037   000000 755000 17                 STA     MKCN

       94    14766    2            CALL Z8AC$MAKE_CONST (CONST$);

  14766 27 000040   200032 630500                    EPPR0   @CONST$,,AUTO
        27 000041   000001 631400 28                 EPPR1   1
        27 000042   000000 701000 xent               TSX1    Z8AC$MAKE_CONST
        27 000043   000000 011000                    NOP     0

PL6.E3A0      #001=Z8E8$NEW_CSIB File=Z8E8.:Z8A6TSI                              SAT 08/09/97 11:37 Page:30
       95    14767    2            CONST$ = CONST$ -> ETT.LOP;

  14767 27 000044   200032 470500                    LDP0    @CONST$,,AUTO
        27 000045   000000 471500                    LDP1    0,,PR0
        27 000046   100001 236100                    LDQ     1,,PR1
        27 000047   000000 756100                    STQ     0,,PR0

       96    14768
       97    14769    2        END SET_FLAGS;

  14769 27 000050   200030 221300                    LDX1  ! NAME_SPACE+2,,AUTO
        27 000051   000001 702211                    TSX2  ! 1,X1

       98    14770             %EJECT;
PL6.E3A0      #001=Z8E8$NEW_CSIB File=Z8E8.:Z8A6TSI                              SAT 08/09/97 11:37 Page:31
       99    14771           /*----------*/
      100    14772    1        BUILD_NAME: PROC (DNT$$, N$, TEXT$, NAME_SPACE);

  14772 27 000052   200046 741300       BUILD_NAME   STX1  ! OFF+2,,AUTO

      101    14773           /*----------*/
      102    14774
      103    14775                 %EQU NAME_BLANK = '                                ';
      104    14776
      105    14777
      106    14778    2            DCL DNT$$     PTR;
      107    14779    2            DCL N$        PTR;
      108    14780    2            DCL TEXT$     PTR;
      109    14781
      110    14782    2            DCL NAME_LENGTH SBIN;
      111    14783    2            DCL NAME_SPACE  SBIN;
      112    14784    2            DCL NAME_TEXT   CHAR (32) ALIGNED;
      113    14785
      114    14786
      115    14787    2            NAME_TEXT = %NAME_BLANK;

  14787 27 000053   040100 100400                    MLR     fill='040'O
        27 000054   000000 000040 26                 ADSC9   0                        cn=0,n=32
        27 000055   200054 000040                    ADSC9   NAME_TEXT,,AUTO          cn=0,n=32

      116    14788
      117    14789    2            NAME_LENGTH = DNT$$ -> DNT.TEXT.LENGTH;

  14789 27 000056   200047 470500                    LDP0    @DNT$$,,AUTO
        27 000057   000000 471500                    LDP1    0,,PR0
        27 000060   100004 236100                    LDQ     4,,PR1
        27 000061   000022 772000                    QRL     18
        27 000062   200053 756100                    STQ     NAME_LENGTH,,AUTO

      118    14790
      119    14791                 %IF GCOS;
      121    14793                 %ENDIF;
PL6.E3A0      #001=Z8E8$NEW_CSIB File=Z8E8.:Z8A6TSI                              SAT 08/09/97 11:37 Page:32
      122    14794    2            MKCN.CON = NAME_LENGTH;

  14794 27 000063   000000 756000 17                 STQ     MKCN

      123    14795    2            NAME_LENGTH = (NAME_LENGTH + 3) / 4 * 4;

  14795 27 000064   000003 036007                    ADLQ    3,DL
        27 000065   000004 506007                    DIV     4,DL
        27 000066   000002 736000                    QLS     2
        27 000067   200053 756100                    STQ     NAME_LENGTH,,AUTO

      124    14796
      125    14797    2            NAME_TEXT   = DNT$$ -> DNT.TEXT.NAME;

  14797 27 000070   000000 471500                    LDP1    0,,PR0
        27 000071   100004 220100                    LDX0    4,,PR1
        27 000072   040100 100540                    MLR     fill='040'O
        27 000073   100004 400010                    ADSC9   4,,PR1                   cn=2,n=*X0
        27 000074   200054 000040                    ADSC9   NAME_TEXT,,AUTO          cn=0,n=32

      126    14798
      127    14799    2            CALL Z8AC$MAKE_CONST (N$);

  14799 27 000075   200050 630500                    EPPR0   @N$,,AUTO
        27 000076   000001 631400 28                 EPPR1   1
        27 000077   000000 701000 xent               TSX1    Z8AC$MAKE_CONST
        27 000100   000000 011000                    NOP     0

      128    14800    2            N$ = N$ -> ETT.LOP;

  14800 27 000101   200050 470500                    LDP0    @N$,,AUTO
        27 000102   000000 471500                    LDP1    0,,PR0
        27 000103   100001 236100                    LDQ     1,,PR1
        27 000104   000000 756100                    STQ     0,,PR0

      129    14801
      130    14802    2            CALL Z8AC$MAKE_TYA_CONST (NAME_TEXT,
PL6.E3A0      #001=Z8E8$NEW_CSIB File=Z8E8.:Z8A6TSI                              SAT 08/09/97 11:37 Page:33

  14802 27 000105   200051 236100                    LDQ     @TEXT$,,AUTO
        27 000106   000004 235000 28                 LDA     4
        27 000107   200074 757100                    STAQ    PLIST+10,,AUTO
        27 000110   200053 631500                    EPPR1   NAME_LENGTH,,AUTO
        27 000111   200073 451500                    STP1    PLIST+9,,AUTO
        27 000112   200054 633500                    EPPR3   NAME_TEXT,,AUTO
        27 000113   200072 453500                    STP3    PLIST+8,,AUTO
        27 000114   200072 630500                    EPPR0   PLIST+8,,AUTO
        27 000115   000002 631400 28                 EPPR1   2
        27 000116   000000 701000 xent               TSX1    Z8AC$MAKE_TYA_CONST
        27 000117   000000 011000                    NOP     0

      131    14803    2                                      NAME_LENGTH,
      132    14804    2                                      0,
      133    14805    2                                      TEXT$);
      134    14806
      135    14807    2            TEXT$ = TEXT$ -> ETT.LOP;

  14807 27 000120   200051 470500                    LDP0    @TEXT$,,AUTO
        27 000121   000000 471500                    LDP1    0,,PR0
        27 000122   100001 236100                    LDQ     1,,PR1
        27 000123   000000 756100                    STQ     0,,PR0

      136    14808
      137    14809    2            NAME_SPACE = NAME_LENGTH;

  14809 27 000124   200052 471500                    LDP1    @NAME_SPACE,,AUTO
        27 000125   200053 235100                    LDA     NAME_LENGTH,,AUTO
        27 000126   100000 755100                    STA     0,,PR1

      138    14810
      139    14811    2        END BUILD_NAME;

  14811 27 000127   200046 221300                    LDX1  ! OFF+2,,AUTO
        27 000130   000001 702211                    TSX2  ! 1,X1

PL6.E3A0      #001=Z8E8$NEW_CSIB File=Z8E8.:Z8A6TSI                              SAT 08/09/97 11:37 Page:34
      140    14812             %EJECT;
PL6.E3A0      #001=Z8E8$NEW_CSIB File=Z8E8.:Z8A6TSI                              SAT 08/09/97 11:37 Page:35
      141    14813             /*-----------------*/
      142    14814    1          BUILD_ENTRY_POINT: PROC (PROC$, ENTRY$);

  14814 27 000131   200030 741300       BUILD_ENTRY* STX1  ! NAME_SPACE+2,,AUTO
        27 000132   000251 710000 27                 TRA     s:16001

      143    14815             /*-----------------*/
      144    14816
      145    14817    2             DCL PROC$         PTR;
      146    14818    2             DCL ENTRY$        PTR;
      147    14819
      148    14820    2             DCL P$            PTR;
      149    14821    2             DCL LINK$         PTR;
      150    14822    2             DCL LAST_N$       PTR;
      151    14823    2             DCL LAST_TEXT$    PTR;
      152    14824    2             DCL DNT$$         PTR;
      153    14825    2             DCL CSIBE$        PTR;
      154    14826    2             DCL NAME_LENGTH   SBIN;
      155    14827    2             DCL NAME_SPACE    SBIN;
      156    14828    2             DCL LAST_SPACE    SBIN;
      157    14829    2             DCL OFF           SBIN;
      158    14830
      159    14831
      160    14832                  /*--------*/
      161    14833    2               CLEAN_UP: PROC (OFF, NEW_LINK$);

  14833 27 000133   200046 741300       CLEAN_UP     STX1  ! OFF+2,,AUTO

      162    14834                  /*--------*/
      163    14835
      164    14836    3                   DCL OFF     SBIN;
      165    14837    3                   DCL NEW_LINK$ PTR;
      166    14838
      167    14839
      168    14840                        %NEW_ILL (@ID      = %PTR_SET,
      169    14841                                  @OFFSET  = OFF,
      170    14842                                  @LOP     = LINK$,
PL6.E3A0      #001=Z8E8$NEW_CSIB File=Z8E8.:Z8A6TSI                              SAT 08/09/97 11:37 Page:36
      171    14843                                  @ROP     = NEW_LINK$);

  15063 27 000134   000006 236000 28                 LDQ     6
        27 000135   200072 756100                    STQ     PLIST+8,,AUTO
        27 000136   200072 630500                    EPPR0   PLIST+8,,AUTO
        27 000137   200077 450500                    STP0    PLIST+13,,AUTO
        27 000140   000007 236000 28                 LDQ     7
        27 000141   200076 756100                    STQ     PLIST+12,,AUTO
        27 000142   000010 237000 28                 LDAQ    8
        27 000143   200074 757100                    STAQ    PLIST+10,,AUTO
        27 000144   200074 630500                    EPPR0   PLIST+10,,AUTO
        27 000145   000002 631400 28                 EPPR1   2
        27 000146   000000 701000 xent               TSX1    Z8AN$NEW_ILL
        27 000147   000000 011000                    NOP     0

  15067 27 000150   200047 470500                    LDP0    @OFF,,AUTO
        27 000151   000000 720100                    LXL0    0,,PR0
        27 000152   000000 471400 7                  LDP1    ILL$
        27 000153   100000 440100                    SXL0    0,,PR1

  15069 27 000154   200034 236100                    LDQ     LINK$,,AUTO
        27 000155   000000 471400 7                  LDP1    ILL$
        27 000156   100001 756100                    STQ     1,,PR1

  15070 27 000157   200050 473500                    LDP3    @NEW_LINK$,,AUTO
        27 000160   300000 236100                    LDQ     0,,PR3
        27 000161   100002 756100                    STQ     2,,PR1

      172    15222
      173    15223    3                   OFF = OFF + 1;

  15223 27 000162   000000 054100                    AOS     0,,PR0

      174    15224
      175    15225                        %NEW_ILL (@ID      = %PREOFF,
      176    15226                                  @N       = 1,
      177    15227                                  @OFFSET  = OFF,
PL6.E3A0      #001=Z8E8$NEW_CSIB File=Z8E8.:Z8A6TSI                              SAT 08/09/97 11:37 Page:37
      178    15228                                  @LOP     = LINK$,
      179    15229                                  @ROP     = LAST_N$);

  15458 27 000163   000006 236000 28                 LDQ     6
        27 000164   200072 756100                    STQ     PLIST+8,,AUTO
        27 000165   200072 631500                    EPPR1   PLIST+8,,AUTO
        27 000166   200077 451500                    STP1    PLIST+13,,AUTO
        27 000167   000007 236000 28                 LDQ     7
        27 000170   200076 756100                    STQ     PLIST+12,,AUTO
        27 000171   000014 237000 28                 LDAQ    12
        27 000172   200074 757100                    STAQ    PLIST+10,,AUTO
        27 000173   200074 630500                    EPPR0   PLIST+10,,AUTO
        27 000174   000002 631400 28                 EPPR1   2
        27 000175   000000 701000 xent               TSX1    Z8AN$NEW_ILL
        27 000176   000000 011000                    NOP     0

  15462 27 000177   200047 470500                    LDP0    @OFF,,AUTO
        27 000200   000000 720100                    LXL0    0,,PR0
        27 000201   000000 471400 7                  LDP1    ILL$
        27 000202   100000 440100                    SXL0    0,,PR1

  15467 27 000203   000001 235007                    LDA     1,DL
        27 000204   000000 471400 7                  LDP1    ILL$
        27 000205   100003 755100                    STA     3,,PR1

  15469 27 000206   200034 236100                    LDQ     LINK$,,AUTO
        27 000207   100001 756100                    STQ     1,,PR1

  15470 27 000210   200035 236100                    LDQ     LAST_N$,,AUTO
        27 000211   100002 756100                    STQ     2,,PR1

      180    15608
      181    15609    3                   OFF = OFF + 1;

  15609 27 000212   000000 054100                    AOS     0,,PR0

      182    15610
PL6.E3A0      #001=Z8E8$NEW_CSIB File=Z8E8.:Z8A6TSI                              SAT 08/09/97 11:37 Page:38
      183    15611                        %NEW_ILL (@ID      = %PREOFF,
      184    15612                                  @N       = LAST_SPACE / 4,
      185    15613                                  @OFFSET  = OFF,
      186    15614                                  @LOP     = LINK$,
      187    15615                                  @ROP     = LAST_TEXT$);

  15844 27 000213   000006 236000 28                 LDQ     6
        27 000214   200072 756100                    STQ     PLIST+8,,AUTO
        27 000215   200072 631500                    EPPR1   PLIST+8,,AUTO
        27 000216   200077 451500                    STP1    PLIST+13,,AUTO
        27 000217   000007 236000 28                 LDQ     7
        27 000220   200076 756100                    STQ     PLIST+12,,AUTO
        27 000221   000014 237000 28                 LDAQ    12
        27 000222   200074 757100                    STAQ    PLIST+10,,AUTO
        27 000223   200074 630500                    EPPR0   PLIST+10,,AUTO
        27 000224   000002 631400 28                 EPPR1   2
        27 000225   000000 701000 xent               TSX1    Z8AN$NEW_ILL
        27 000226   000000 011000                    NOP     0

  15848 27 000227   200047 470500                    LDP0    @OFF,,AUTO
        27 000230   000000 720100                    LXL0    0,,PR0
        27 000231   000000 471400 7                  LDP1    ILL$
        27 000232   100000 440100                    SXL0    0,,PR1

  15853 27 000233   200043 236100                    LDQ     LAST_SPACE,,AUTO
        27 000234   000004 506007                    DIV     4,DL
        27 000235   000000 471400 7                  LDP1    ILL$
        27 000236   100003 756100                    STQ     3,,PR1

  15855 27 000237   200034 236100                    LDQ     LINK$,,AUTO
        27 000240   100001 756100                    STQ     1,,PR1

  15856 27 000241   200036 236100                    LDQ     LAST_TEXT$,,AUTO
        27 000242   100002 756100                    STQ     2,,PR1

      188    15994
      189    15995    3                   OFF = OFF + (LAST_SPACE / 4);
PL6.E3A0      #001=Z8E8$NEW_CSIB File=Z8E8.:Z8A6TSI                              SAT 08/09/97 11:37 Page:39

  15995 27 000243   200043 236100                    LDQ     LAST_SPACE,,AUTO
        27 000244   000004 506007                    DIV     4,DL
        27 000245   000000 036100                    ADLQ    0,,PR0
        27 000246   000000 756100                    STQ     0,,PR0

      190    15996
      191    15997
      192    15998    3             END CLEAN_UP;

  15998 27 000247   200046 221300                    LDX1  ! OFF+2,,AUTO
        27 000250   000001 702211                    TSX2  ! 1,X1

      193    15999
      194    16000
      195    16001    2             ENTRY$ = PROC$ -> PROC_.PROC_DEF$ -> SYMDEF_.ENTRYS$;

  16001 27 000251   200031 470500                    LDP0    @PROC$,,AUTO
        27 000252   000000 471500                    LDP1    0,,PR0
        27 000253   100006 473500                    LDP3    6,,PR1
        27 000254   300007 236100                    LDQ     7,,PR3
        27 000255   200032 474500                    LDP4    @ENTRY$,,AUTO
        27 000256   400000 756100                    STQ     0,,PR4

      196    16002
      197    16003    2             IF ENTRY$ = ADDR(NIL) THEN

  16003 27 000257   000000 116000 28                 CMPQ    0
        27 000260   000263 601000 27                 TNZ     s:16006

      198    16004    2               RETURN;

  16004 27 000261   200030 221300                    LDX1  ! NAME_SPACE+2,,AUTO
        27 000262   000001 702211                    TSX2  ! 1,X1

      199    16005
      200    16006    2             P$ = ENTRY$;
PL6.E3A0      #001=Z8E8$NEW_CSIB File=Z8E8.:Z8A6TSI                              SAT 08/09/97 11:37 Page:40

  16006 27 000263   200033 756100                    STQ     P$,,AUTO

      201    16007    2             LINK$ = ADDR(NIL);

  16007 27 000264   000000 236000 28                 LDQ     0
        27 000265   200034 756100                    STQ     LINK$,,AUTO

      202    16008    2             LAST_N$ = ADDR(NIL);

  16008 27 000266   200035 756100                    STQ     LAST_N$,,AUTO

      203    16009    2             LAST_TEXT$ = ADDR(NIL);

  16009 27 000267   200036 756100                    STQ     LAST_TEXT$,,AUTO

      204    16010    2             ENTRY$ = ADDR(NIL);

  16010 27 000270   400000 756100                    STQ     0,,PR4

      205    16011    2             OFF = 0;

  16011 27 000271   200044 450100                    STZ     OFF,,AUTO

      206    16012
      207    16013    3             DO UNTIL (P$ = ADDR(NIL));

      208    16014
      209    16015    3               DNT$$ = P$ -> SYMDEF_.DNT$;

  16015 27 000272   200033 470500                    LDP0    P$,,AUTO
        27 000273   000006 236100                    LDQ     6,,PR0
        27 000274   200037 756100                    STQ     DNT$$,,AUTO

      210    16016
      211    16017    3               CALL BUILD_NAME (DNT$$, N$, TEXT$, NAME_SPACE);

PL6.E3A0      #001=Z8E8$NEW_CSIB File=Z8E8.:Z8A6TSI                              SAT 08/09/97 11:37 Page:41
  16017 27 000275   200042 631500                    EPPR1   NAME_SPACE,,AUTO
        27 000276   200052 451500                    STP1    @NAME_SPACE,,AUTO
        27 000277   200023 633500                    EPPR3   TEXT$,,AUTO
        27 000300   200051 453500                    STP3    @TEXT$,,AUTO
        27 000301   200022 634500                    EPPR4   N$,,AUTO
        27 000302   200050 454500                    STP4    @N$,,AUTO
        27 000303   200037 635500                    EPPR5   DNT$$,,AUTO
        27 000304   200047 455500                    STP5    @DNT$$,,AUTO
        27 000305   000052 701000 27                 TSX1    BUILD_NAME
        27 000306   000000 011000                    NOP     0

      212    16018
      213    16019    3               NAME_LENGTH = TEXT$ -> SCALAR.ADSC.N;

  16019 27 000307   200023 470500                    LDP0    TEXT$,,AUTO
        27 000310   000001 236100                    LDQ     1,,PR0
        27 000311   007777 376007                    ANQ     4095,DL
        27 000312   200041 756100                    STQ     NAME_LENGTH,,AUTO

      214    16020
      215    16021    3               CALL Z8CU$BUILD_AND_LINK (DNT$$, 1, %TYA, 'CSIBE', 5, CSIBE$);

  16021 27 000313   200040 631500                    EPPR1   CSIBE$,,AUTO
        27 000314   200077 451500                    STP1    PLIST+13,,AUTO
        27 000315   000021 236000 28                 LDQ     17
        27 000316   200076 756100                    STQ     PLIST+12,,AUTO
        27 000317   000022 237000 28                 LDAQ    18
        27 000320   200074 757100                    STAQ    PLIST+10,,AUTO
        27 000321   000024 236000 28                 LDQ     20
        27 000322   200073 756100                    STQ     PLIST+9,,AUTO
        27 000323   200037 633500                    EPPR3   DNT$$,,AUTO
        27 000324   200072 453500                    STP3    PLIST+8,,AUTO
        27 000325   200072 630500                    EPPR0   PLIST+8,,AUTO
        27 000326   000013 631400 28                 EPPR1   11
        27 000327   000000 701000 xent               TSX1    Z8CU$BUILD_AND_LINK
        27 000330   000000 011000                    NOP     0

PL6.E3A0      #001=Z8E8$NEW_CSIB File=Z8E8.:Z8A6TSI                              SAT 08/09/97 11:37 Page:42
      216    16022
      217    16023    3               CSIBE$  -> SCALAR.ADSC.N = NAME_LENGTH + (3 * %CHARS_PER_WORD);

  16023 27 000331   200040 470500                    LDP0    CSIBE$,,AUTO
        27 000332   200041 236100                    LDQ     NAME_LENGTH,,AUTO
        27 000333   000014 036007                    ADLQ    12,DL
        27 000334   000001 752103                    STCQ    1,'03'O,PR0

      218    16024                    %IF GCOS;
      220    16026                    %ENDIF;
      221    16027
      222    16028    3               IF ENTRY$ = ADDR(NIL) THEN

  16028 27 000335   200032 470500                    LDP0    @ENTRY$,,AUTO
        27 000336   000000 236100                    LDQ     0,,PR0
        27 000337   000000 116000 28                 CMPQ    0
        27 000340   000343 601000 27                 TNZ     s:16031

      223    16029    3                 ENTRY$ = CSIBE$ ;

  16029 27 000341   200040 236100                    LDQ     CSIBE$,,AUTO
        27 000342   000000 756100                    STQ     0,,PR0

      224    16030
      225    16031    3               IF LINK$ ~= ADDR(NIL) THEN

  16031 27 000343   200034 236100                    LDQ     LINK$,,AUTO
        27 000344   000000 116000 28                 CMPQ    0
        27 000345   000354 600000 27                 TZE     s:16034

      226    16032    3                 CALL CLEAN_UP (OFF, CSIBE$ );

  16032 27 000346   200040 631500                    EPPR1   CSIBE$,,AUTO
        27 000347   200050 451500                    STP1    @N$,,AUTO
        27 000350   200044 633500                    EPPR3   OFF,,AUTO
        27 000351   200047 453500                    STP3    @DNT$$,,AUTO
        27 000352   000133 701000 27                 TSX1    CLEAN_UP
PL6.E3A0      #001=Z8E8$NEW_CSIB File=Z8E8.:Z8A6TSI                              SAT 08/09/97 11:37 Page:43
        27 000353   000000 011000                    NOP     0

      227    16033
      228    16034    3               OFF = 0;

  16034 27 000354   200044 450100                    STZ     OFF,,AUTO

      229    16035
      230    16036                    %NEW_ILL (@ID      = %PTR_SET,
      231    16037                              @OFFSET  = OFF,
      232    16038                              @LOP     = CSIBE$ ,
      233    16039                              @ROP     = P$);

  16259 27 000355   000006 236000 28                 LDQ     6
        27 000356   200072 756100                    STQ     PLIST+8,,AUTO
        27 000357   200072 630500                    EPPR0   PLIST+8,,AUTO
        27 000360   200077 450500                    STP0    PLIST+13,,AUTO
        27 000361   000007 236000 28                 LDQ     7
        27 000362   200076 756100                    STQ     PLIST+12,,AUTO
        27 000363   000010 237000 28                 LDAQ    8
        27 000364   200074 757100                    STAQ    PLIST+10,,AUTO
        27 000365   200074 630500                    EPPR0   PLIST+10,,AUTO
        27 000366   000002 631400 28                 EPPR1   2
        27 000367   000000 701000 xent               TSX1    Z8AN$NEW_ILL
        27 000370   000000 011000                    NOP     0

  16263 27 000371   200044 720100                    LXL0    OFF,,AUTO
        27 000372   000000 470400 7                  LDP0    ILL$
        27 000373   000000 440100                    SXL0    0,,PR0

  16265 27 000374   200040 236100                    LDQ     CSIBE$,,AUTO
        27 000375   000000 470400 7                  LDP0    ILL$
        27 000376   000001 756100                    STQ     1,,PR0

  16266 27 000377   200033 236100                    LDQ     P$,,AUTO
        27 000400   000002 756100                    STQ     2,,PR0

PL6.E3A0      #001=Z8E8$NEW_CSIB File=Z8E8.:Z8A6TSI                              SAT 08/09/97 11:37 Page:44
      234    16418
      235    16419    3               OFF = OFF + 1;

  16419 27 000401   200044 054100                    AOS     OFF,,AUTO

      236    16420
      237    16421    3               LINK$ = CSIBE$;

  16421 27 000402   200040 236100                    LDQ     CSIBE$,,AUTO
        27 000403   200034 756100                    STQ     LINK$,,AUTO

      238    16422    3               LAST_N$ = N$;

  16422 27 000404   200022 236100                    LDQ     N$,,AUTO
        27 000405   200035 756100                    STQ     LAST_N$,,AUTO

      239    16423    3               LAST_TEXT$ = TEXT$;

  16423 27 000406   200023 236100                    LDQ     TEXT$,,AUTO
        27 000407   200036 756100                    STQ     LAST_TEXT$,,AUTO

      240    16424    3               LAST_SPACE = NAME_SPACE;

  16424 27 000410   200042 235100                    LDA     NAME_SPACE,,AUTO
        27 000411   200043 755100                    STA     LAST_SPACE,,AUTO

      241    16425
      242    16426    3               P$ = P$ -> SYMDEF_.ENTRYS$;

  16426 27 000412   200033 471500                    LDP1    P$,,AUTO
        27 000413   100007 236100                    LDQ     7,,PR1
        27 000414   200033 756100                    STQ     P$,,AUTO

      243    16427    3             END; /* Until */

  16427 27 000415   000000 116000 28                 CMPQ    0
        27 000416   000272 601000 27                 TNZ     s:16015
PL6.E3A0      #001=Z8E8$NEW_CSIB File=Z8E8.:Z8A6TSI                              SAT 08/09/97 11:37 Page:45

      244    16428
      245    16429    2             CALL CLEAN_UP (OFF, ADDR(NIL));

  16429 27 000417   000000 236000 28                 LDQ     0
        27 000420   200100 756100                    STQ     PLIST+14,,AUTO
        27 000421   200100 631500                    EPPR1   PLIST+14,,AUTO
        27 000422   200050 451500                    STP1    @N$,,AUTO
        27 000423   200044 633500                    EPPR3   OFF,,AUTO
        27 000424   200047 453500                    STP3    @DNT$$,,AUTO
        27 000425   000133 701000 27                 TSX1    CLEAN_UP
        27 000426   000000 011000                    NOP     0

      246    16430
      247    16431    2        END BUILD_ENTRY_POINT;

  16431 27 000427   200030 221300                    LDX1  ! NAME_SPACE+2,,AUTO
        27 000430   000001 702211                    TSX2  ! 1,X1

      248    16432             %EJECT;
PL6.E3A0      #001=Z8E8$NEW_CSIB File=Z8E8.:Z8A6TSI                              SAT 08/09/97 11:37 Page:46
      249    16433             /*===========*/
      250    16434    1          CLOSE_FILES : PROC (FILE$);

  16434 27 000431   200036 741300       CLOSE_FILES  STX1  ! LAST_TEXT$,,AUTO

      251    16435             /*===========*/
      252    16436
      253    16437             %INCLUDE X9A_IO;
      254    16587
      255    16588    2        DCL FILE$         PTR;
      256    16589    2        DCL RT_DESC_LIST$ PTR;
      257    16590    2        DCL RT_ARG_LIST$  PTR;
      258    16591
      259    16592             %DCL_AUTO_LX_ITEM (@NAME = FAB);
      260    16596             %DCL_AUTO_LX_ITEM (@NAME = CTYPE);
      261    16600             %DCL_AUTO_LX_ITEM (@NAME = PLIST);
      262    16604
      263    16605    2        DCL Z9EY$BUILD_RUNTIME_DESCRIPTOR ENTRY (3);
      264    16606    2        DCL Z8EY$BUILD_RUNTIME_ARGLIST    ENTRY (3);
      265    16607    2        DCL Z8EU$CREATE_IDENTIFIER_FROM_ST ENTRY (4);
      266    16608    2        DCL Z8AC$LX_ETT_ITEM_TYI_CONST    ENTRY (2);
      267    16609
      268    16610
      269    16611    2           CALL Z8EU$CREATE_IDENTIFIER_FROM_ST( FILE$ -> FILE_LTS.FAB$,

  16611 27 000432   200037 470500                    LDP0    @FILE$,,AUTO
        27 000433   000000 471500                    LDP1    0,,PR0
        27 000434   200042 633500                    EPPR3   FAB,,AUTO
        27 000435   200072 453500                    STP3    PLIST+8,,AUTO
        27 000436   200072 634500                    EPPR4   PLIST+8,,AUTO
        27 000437   200075 454500                    STP4    PLIST+11,,AUTO
        27 000440   100002 635500                    EPPR5   2,,PR1
        27 000441   200074 455500                    STP5    PLIST+10,,AUTO
        27 000442   200074 630500                    EPPR0   PLIST+10,,AUTO
        27 000443   000025 631400 28                 EPPR1   21
        27 000444   000000 701000 xent               TSX1    Z8EU$CREATE_IDENTIFIER_FROM_ST
        27 000445   000000 011000                    NOP     0
PL6.E3A0      #001=Z8E8$NEW_CSIB File=Z8E8.:Z8A6TSI                              SAT 08/09/97 11:37 Page:47

      270    16612    2                                                ADDR(FAB));
      271    16613
      272    16614    2           CALL Z8AC$LX_ETT_ITEM_TYI_CONST (%CLOSE_DEFAULT,

  16614 27 000446   200052 630500                    EPPR0   CTYPE,,AUTO
        27 000447   200072 450500                    STP0    PLIST+8,,AUTO
        27 000450   200072 631500                    EPPR1   PLIST+8,,AUTO
        27 000451   200075 451500                    STP1    PLIST+11,,AUTO
        27 000452   000004 236000 28                 LDQ     4
        27 000453   200074 756100                    STQ     PLIST+10,,AUTO
        27 000454   200074 630500                    EPPR0   PLIST+10,,AUTO
        27 000455   000025 631400 28                 EPPR1   21
        27 000456   000000 701000 xent               TSX1    Z8AC$LX_ETT_ITEM_TYI_CONST
        27 000457   000000 011000                    NOP     0

      273    16615    2                                            ADDR(CTYPE));
      274    16616
      275    16617                %INIT_LX_LIST (@POINTER = "ADDR(PLIST)");

  16619 27 000460   000002 220003                    LDX0    2,DU
        27 000461   200062 740100                    STX0    PLIST,,AUTO

  16620 27 000462   000000 221003                    LDX1    0,DU
        27 000463   200062 441100                    SXL1    PLIST,,AUTO

  16621 27 000464   000000 236000 28                 LDQ     0
        27 000465   200063 756100                    STQ     PLIST+1,,AUTO

  16622 27 000466   200066 756100                    STQ     PLIST+4,,AUTO

  16623 27 000467   200071 756100                    STQ     PLIST+7,,AUTO

  16624 27 000470   200064 450100                    STZ     PLIST+2,,AUTO

      276    16627
      277    16628                %ADD_LX_ITEM_TO_LIST_HEAD (@FROM$ = "ADDR(FAB)",
PL6.E3A0      #001=Z8E8$NEW_CSIB File=Z8E8.:Z8A6TSI                              SAT 08/09/97 11:37 Page:48
      278    16629                                           @LIST$ = "ADDR(PLIST)");

  16631 27 000471   200051 756100                    STQ     @TEXT$,,AUTO

  16632 27 000472   200042 630500                    EPPR0   FAB,,AUTO
        27 000473   200066 450500                    STP0    PLIST+4,,AUTO

  16633 27 000474   200064 235100                    LDA     PLIST+2,,AUTO
        27 000475   000500 601000 27                 TNZ     s:16635

  16634 27 000476   200042 631500                    EPPR1   FAB,,AUTO
        27 000477   200063 451500                    STP1    PLIST+1,,AUTO

  16635 27 000500   200064 054100                    AOS     PLIST+2,,AUTO

      279    16638
      280    16639                %ADD_LX_ITEM_TO_LIST_TAIL (@FROM$ = "ADDR(CTYPE)",
      281    16640                                           @LIST$ = "ADDR(PLIST)");

  16642 27 000501   200061 756100                    STQ     NAME_TEXT+5,,AUTO

  16643 27 000502   000510 601000 27                 TNZ     s:16650

  16645 27 000503   200052 631500                    EPPR1   CTYPE,,AUTO
        27 000504   200066 451500                    STP1    PLIST+4,,AUTO

  16646 27 000505   200052 630500                    EPPR0   CTYPE,,AUTO
        27 000506   200063 450500                    STP0    PLIST+1,,AUTO

  16647 27 000507   000515 710000 27                 TRA     s:16653

  16650 27 000510   200052 631500                    EPPR1   CTYPE,,AUTO
        27 000511   200063 473500                    LDP3    PLIST+1,,AUTO
        27 000512   300007 451500                    STP1    7,,PR3

  16651 27 000513   200052 630500                    EPPR0   CTYPE,,AUTO
        27 000514   200063 450500                    STP0    PLIST+1,,AUTO
PL6.E3A0      #001=Z8E8$NEW_CSIB File=Z8E8.:Z8A6TSI                              SAT 08/09/97 11:37 Page:49

  16653 27 000515   200064 054100                    AOS     PLIST+2,,AUTO

      282    16656
      283    16657    2           CALL Z9EY$BUILD_RUNTIME_DESCRIPTOR (ADDR(PLIST) -> LX_LIST.HEAD$,

  16657 27 000516   000030 236000 28                 LDQ     24
        27 000517   200074 756100                    STQ     PLIST+10,,AUTO
        27 000520   200040 631500                    EPPR1   RT_DESC_LIST$,,AUTO
        27 000521   200073 451500                    STP1    PLIST+9,,AUTO
        27 000522   200066 633500                    EPPR3   PLIST+4,,AUTO
        27 000523   200072 453500                    STP3    PLIST+8,,AUTO
        27 000524   200072 630500                    EPPR0   PLIST+8,,AUTO
        27 000525   000026 631400 28                 EPPR1   22
        27 000526   000000 701000 xent               TSX1    Z9EY$BUILD_RUNTIME_DESCRIPTOR
        27 000527   000000 011000                    NOP     0

      284    16658    2                                               RT_DESC_LIST$,
      285    16659    2                                               2);
      286    16660
      287    16661    2           CALL Z8EY$BUILD_RUNTIME_ARGLIST (ADDR(PLIST) -> LX_LIST.HEAD$,

  16661 27 000530   000030 236000 28                 LDQ     24
        27 000531   200074 756100                    STQ     PLIST+10,,AUTO
        27 000532   200041 630500                    EPPR0   RT_ARG_LIST$,,AUTO
        27 000533   200073 450500                    STP0    PLIST+9,,AUTO
        27 000534   200066 631500                    EPPR1   PLIST+4,,AUTO
        27 000535   200072 451500                    STP1    PLIST+8,,AUTO
        27 000536   200072 630500                    EPPR0   PLIST+8,,AUTO
        27 000537   000026 631400 28                 EPPR1   22
        27 000540   000000 701000 xent               TSX1    Z8EY$BUILD_RUNTIME_ARGLIST
        27 000541   000000 011000                    NOP     0

      288    16662    2                                            RT_ARG_LIST$,
      289    16663    2                                            2);
      290    16664
      291    16665                %NEW_ILL (@ID = %OS_CALL,
PL6.E3A0      #001=Z8E8$NEW_CSIB File=Z8E8.:Z8A6TSI                              SAT 08/09/97 11:37 Page:50
      292    16666                          @CODE = %OP_CLOSE_CANCEL,
      293    16667                          @ROP = RT_DESC_LIST$,
      294    16668                          @LOP = RT_ARG_LIST$);

  16758 27 000542   000006 236000 28                 LDQ     6
        27 000543   200072 756100                    STQ     PLIST+8,,AUTO
        27 000544   200072 630500                    EPPR0   PLIST+8,,AUTO
        27 000545   200077 450500                    STP0    PLIST+13,,AUTO
        27 000546   000007 236000 28                 LDQ     7
        27 000547   200076 756100                    STQ     PLIST+12,,AUTO
        27 000550   000034 237000 28                 LDAQ    28
        27 000551   200074 757100                    STAQ    PLIST+10,,AUTO
        27 000552   200074 630500                    EPPR0   PLIST+10,,AUTO
        27 000553   000002 631400 28                 EPPR1   2
        27 000554   000000 701000 xent               TSX1    Z8AN$NEW_ILL
        27 000555   000000 011000                    NOP     0

  16759 27 000556   000052 220003                    LDX0    42,DU
        27 000557   000000 470400 7                  LDP0    ILL$
        27 000560   000000 440100                    SXL0    0,,PR0

  16760 27 000561   200041 236100                    LDQ     RT_ARG_LIST$,,AUTO
        27 000562   000000 470400 7                  LDP0    ILL$
        27 000563   000001 756100                    STQ     1,,PR0

  16761 27 000564   200040 236100                    LDQ     RT_DESC_LIST$,,AUTO
        27 000565   000002 756100                    STQ     2,,PR0

  16768 27 000566   000000 236000 28                 LDQ     0
        27 000567   000004 756100                    STQ     4,,PR0

      295    17047    2        END CLOSE_FILES;

  17047 27 000570   200036 221300                    LDX1  ! LAST_TEXT$,,AUTO
        27 000571   000001 702211                    TSX2  ! 1,X1

      296    17048             %EJECT;
PL6.E3A0      #001=Z8E8$NEW_CSIB File=Z8E8.:Z8A6TSI                              SAT 08/09/97 11:37 Page:51
      297    17049             /*==================*/
      298    17050    1          SEARCH_FOR_CLOSING : PROC ;

  17050 27 000572   200034 741300       SEARCH_FOR_* STX1  ! LINK$,,AUTO

      299    17051             /*==================*/
      300    17052
      301    17053    2          DCL FILE$       PTR;
      302    17054
      303    17055
      304    17056    2            FILE$    = COMCOM.FILE_LTS_CHAIN$;

  17056 27 000573   000434 236000 xsym               LDQ     COMCOM+284
        27 000574   200035 756100                    STQ     FILE$,,AUTO

      305    17057
      306    17058    3            DO WHILE (FILE$ ~= ADDR(NIL));

  17058 27 000575   000621 710000 27                 TRA     s:17066

      307    17059    3              IF  FILE$ -> FILE_LTS.ST$ -> FD.PROC$ = PROC$

  17059 27 000576   200035 470500                    LDP0    FILE$,,AUTO
        27 000577   000001 471500                    LDP1    1,,PR0
        27 000600   200003 473500                    LDP3    @PROC$,,AUTO
        27 000601   100011 236100                    LDQ     9,,PR1
        27 000602   300000 116100                    CMPQ    0,,PR3
        27 000603   000616 601000 27                 TNZ     s:17065
        27 000604   100000 220100                    LDX0    0,,PR1
        27 000605   001002 100003                    CMPX0   514,DU
        27 000606   000616 601000 27                 TNZ     s:17065
        27 000607   100003 236100                    LDQ     3,,PR1
        27 000610   000004 316003                    CANQ    4,DU
        27 000611   000616 601000 27                 TNZ     s:17065

      308    17060    3              AND FILE$ -> FILE_LTS.ST$ -> ST.ID = %FD
      309    17061    3              AND NOT FILE$ -> FILE_LTS.ST$ -> FD.B.EXTERNAL THEN
PL6.E3A0      #001=Z8E8$NEW_CSIB File=Z8E8.:Z8A6TSI                              SAT 08/09/97 11:37 Page:52
      310    17062
      311    17063    3                  CALL CLOSE_FILES (FILE$);

  17063 27 000612   200035 634500                    EPPR4   FILE$,,AUTO
        27 000613   200037 454500                    STP4    @FILE$,,AUTO
        27 000614   000431 701000 27                 TSX1    CLOSE_FILES
        27 000615   000000 011000                    NOP     0

      312    17064
      313    17065    3              FILE$ = FILE$ -> FILE_LTS.FILE_LTS_CHAIN$;

  17065 27 000616   200035 470500                    LDP0    FILE$,,AUTO
        27 000617   000003 236100                    LDQ     3,,PR0
        27 000620   200035 756100                    STQ     FILE$,,AUTO

      314    17066    3            END; /* While */

  17066 27 000621   000000 116000 28                 CMPQ    0
        27 000622   000576 601000 27                 TNZ     s:17059

      315    17067
      316    17068    2        END SEARCH_FOR_CLOSING;

  17068 27 000623   200034 221300                    LDX1  ! LINK$,,AUTO
        27 000624   000001 702211                    TSX2  ! 1,X1

      317    17069             %EJECT;
PL6.E3A0      #001=Z8E8$NEW_CSIB File=Z8E8.:Z8A6TSI                              SAT 08/09/97 11:37 Page:53
      318    17070
      319    17071         /*==================*/
      320    17072    1      CHECK_ARRAY_PRESET: PROC (NODE$);

  17072 27 000625   200030 741300       CHECK_ARRAY* STX1  ! NAME_SPACE+2,,AUTO

      321    17073         /*==================*/
      322    17074
      323    17075
      324    17076    2   DCL NODE$      PTR;
      325    17077    2   DCL ST$$       PTR;
      326    17078    2   DCL P$         PTR;
      327    17079    2   DCL QLT$$      PTR;
      328    17080
      329    17081
      330    17082
      331    17083    2      P$ = NODE$ -> LX_LIST.HEAD$;

  17083 27 000626   200031 470500                    LDP0    @NODE$,,AUTO
        27 000627   000000 471500                    LDP1    0,,PR0
        27 000630   100004 236100                    LDQ     4,,PR1
        27 000631   200033 756100                    STQ     P$,,AUTO

      332    17084
      333    17085    3      DO WHILE (P$ ~= ADDR(NIL));

  17085 27 000632   000707 710000 27                 TRA     s:17112

      334    17086
      335    17087             %FISH (TRIAD = P$ -> LX_LIST.HEAD$ -> LX_ETT_ITEM.ETT$,
      336    17088                    RTN   = ST$$);

  17090 27 000633   200033 470500                    LDP0    P$,,AUTO
        27 000634   000004 471500                    LDP1    4,,PR0
        27 000635   100001 236100                    LDQ     1,,PR1
        27 000636   200032 756100                    STQ     ST$$,,AUTO

PL6.E3A0      #001=Z8E8$NEW_CSIB File=Z8E8.:Z8A6TSI                              SAT 08/09/97 11:37 Page:54
  17091 27 000637   200032 473500                    LDP3    ST$$,,AUTO
        27 000640   300000 220100                    LDX0    0,,PR3
        27 000641   000751 100003                    CMPX0   489,DU
        27 000642   000652 603000 27                 TRC     s:17097

  17092 27 000643   200032 470500                    LDP0    ST$$,,AUTO
        27 000644   000001 236100                    LDQ     1,,PR0
        27 000645   200032 756100                    STQ     ST$$,,AUTO

  17093 27 000646   200032 470500                    LDP0    ST$$,,AUTO
        27 000647   000000 220100                    LDX0    0,,PR0
        27 000650   000751 100003                    CMPX0   489,DU
        27 000651   000643 602000 27                 TNC     s:17092

      337    17096
      338    17097    3        IF ST$$ -> ST.ID = %ARRAY AND

  17097 27 000652   200032 470500                    LDP0    ST$$,,AUTO
        27 000653   000000 220100                    LDX0    0,,PR0
        27 000654   000765 100003                    CMPX0   501,DU
        27 000655   000704 601000 27                 TNZ     s:17110
        27 000656   000003 236100                    LDQ     3,,PR0
        27 000657   000020 316007                    CANQ    16,DL
        27 000660   000704 601000 27                 TNZ     s:17110

      339    17098    3          (NOT ST$$ -> ARRAY.B.ARRAY_PRESET) THEN
      340    17099    4          DO;

      341    17100    4            COMCOM.OB.ARRAY_PRESET = TRUE;

  17100 27 000661   400000 236003                    LDQ     -131072,DU
        27 000662   000075 256000 xsym               ORSQ    COMCOM+61

      342    17101    4            QLT$$ = ST$$ -> ARRAY.QLT$;

  17101 27 000663   000007 236100                    LDQ     7,,PR0
        27 000664   200034 756100                    STQ     QLT$$,,AUTO
PL6.E3A0      #001=Z8E8$NEW_CSIB File=Z8E8.:Z8A6TSI                              SAT 08/09/97 11:37 Page:55

      343    17102
      344    17103    5            DO WHILE (QLT$$ -> QLT.FATHER ~= ADDR(NIL));

  17103 27 000665   000671 710000 27                 TRA     s:17105

      345    17104    5              QLT$$ = QLT$$ -> QLT.FATHER;

  17104 27 000666   200034 470500                    LDP0    QLT$$,,AUTO
        27 000667   000001 236100                    LDQ     1,,PR0
        27 000670   200034 756100                    STQ     QLT$$,,AUTO

      346    17105    5            END;

  17105 27 000671   200034 470500                    LDP0    QLT$$,,AUTO
        27 000672   000001 236100                    LDQ     1,,PR0
        27 000673   000000 116000 28                 CMPQ    0
        27 000674   000666 601000 27                 TNZ     s:17104

      347    17106
      348    17107    4            CALL Z8E8$ASSIGN_ARRAY_PRESET (QLT$$ -> QLT.SON);

  17107 27 000675   200034 236100                    LDQ     QLT$$,,AUTO
        27 000676   000003 036003                    ADLQ    3,DU
        27 000677   200072 756100                    STQ     PLIST+8,,AUTO
        27 000700   200072 630500                    EPPR0   PLIST+8,,AUTO
        27 000701   000001 631400 28                 EPPR1   1
        27 000702   000000 701000 xent               TSX1    Z8E8$ASSIGN_ARRAY_PRESET
        27 000703   000000 011000                    NOP     0

      349    17108    4          END;

      350    17109
      351    17110    3        P$ = P$ -> LX_LIST.LINK;

  17110 27 000704   200033 470500                    LDP0    P$,,AUTO
        27 000705   000007 236100                    LDQ     7,,PR0
PL6.E3A0      #001=Z8E8$NEW_CSIB File=Z8E8.:Z8A6TSI                              SAT 08/09/97 11:37 Page:56
        27 000706   200033 756100                    STQ     P$,,AUTO

      352    17111
      353    17112    3      END; /* DO WHILE */

  17112 27 000707   000000 116000 28                 CMPQ    0
        27 000710   000633 601000 27                 TNZ     s:17090

      354    17113
      355    17114    2    END CHECK_ARRAY_PRESET;

  17114 27 000711   200030 221300                    LDX1  ! NAME_SPACE+2,,AUTO
        27 000712   000001 702211                    TSX2  ! 1,X1

      356    17115        %EJECT;
PL6.E3A0      #001=Z8E8$NEW_CSIB File=Z8E8.:Z8A6TSI                              SAT 08/09/97 11:37 Page:57
      357    17116
      358    17117             /*-------------*/
      359    17118    1          NEW_INIT_PROC: PROC (VALUE$, LABEL$);

  17118 27 000713   200030 741300       NEW_INIT_PR* STX1  ! NAME_SPACE+2,,AUTO
        27 000714   001117 710000 27                 TRA     s:17572

      360    17119             /*-------------*/
      361    17120
      362    17121    2              DCL VALUE$  PTR;   /* IN -- to list of list of 2 items
      363    17122                                               head$ -> receiving item
      364    17123                                               tail$ -> sending item
      365    17124                                      */
      366    17125    2              DCL LABEL$  PTR;   /* OUT -- to label of procedure */
      367    17126
      368    17127
      369    17128                   /*--------------*/
      370    17129    2                PROCESS_VALUES: PROC (VALUE$);

  17129 27 000715   200034 741300       PROCESS_VAL* STX1  ! QLT$$,,AUTO

      371    17130                   /*--------------*/
      372    17131
      373    17132    3                  DCL VALUE$     PTR; /* Same as above */
      374    17133    3                  DCL P$         PTR;
      375    17134    3                  DCL LOP$       PTR;
      376    17135    3                  DCL ROP$       PTR;
      377    17136    3                  DCL ST$$       PTR;
      378    17137
      379    17138    3                  DCL Z8E7$RESTRICTED_MOVE ENTRY (2);
      380    17139
      381    17140
      382    17141    3                  IF VALUE$ = ADDR(NIL) THEN

  17141 27 000716   200035 470500                    LDP0    @VALUE$,,AUTO
        27 000717   000000 236100                    LDQ     0,,PR0
        27 000720   000000 116000 28                 CMPQ    0
PL6.E3A0      #001=Z8E8$NEW_CSIB File=Z8E8.:Z8A6TSI                              SAT 08/09/97 11:37 Page:58
        27 000721   000723 601000 27                 TNZ     s:17147

      383    17142                         /* This init_proc is created for the possibility
      384    17143                            that PH2 must put in COBOL74 Pform vars or
      385    17144                            Alter vars in it.                            */
      386    17145    3                    RETURN;

  17145 27 000722   000001 702211                    TSX2  ! 1,X1

      387    17146
      388    17147    3                  P$ = VALUE$ -> LX_LIST.HEAD$;

  17147 27 000723   000000 471500                    LDP1    0,,PR0
        27 000724   100004 236100                    LDQ     4,,PR1
        27 000725   200036 756100                    STQ     P$,,AUTO

      389    17148
      390    17149    4                  DO WHILE (P$ ~= ADDR(NIL));

  17149 27 000726   001113 710000 27                 TRA     s:17565

      391    17150    4                    LOP$ = P$ -> LX_LIST.HEAD$;

  17150 27 000727   200036 470500                    LDP0    P$,,AUTO
        27 000730   000004 236100                    LDQ     4,,PR0
        27 000731   200037 756100                    STQ     LOP$,,AUTO

      392    17151    4                    ROP$ = P$ -> LX_LIST.TAIL$;

  17151 27 000732   000001 236100                    LDQ     1,,PR0
        27 000733   200040 756100                    STQ     ROP$,,AUTO

      393    17152
      394    17153                         %FISH (TRIAD = "LOP$ -> LX_ETT_ITEM.ETT$",
      395    17154                                RTN   = ST$$);

  17156 27 000734   200037 471500                    LDP1    LOP$,,AUTO
PL6.E3A0      #001=Z8E8$NEW_CSIB File=Z8E8.:Z8A6TSI                              SAT 08/09/97 11:37 Page:59
        27 000735   100001 236100                    LDQ     1,,PR1
        27 000736   200041 756100                    STQ     ST$$,,AUTO

  17157 27 000737   200041 473500                    LDP3    ST$$,,AUTO
        27 000740   300000 220100                    LDX0    0,,PR3
        27 000741   000751 100003                    CMPX0   489,DU
        27 000742   000752 603000 27                 TRC     s:17163

  17158 27 000743   200041 470500                    LDP0    ST$$,,AUTO
        27 000744   000001 236100                    LDQ     1,,PR0
        27 000745   200041 756100                    STQ     ST$$,,AUTO

  17159 27 000746   200041 470500                    LDP0    ST$$,,AUTO
        27 000747   000000 220100                    LDX0    0,,PR0
        27 000750   000751 100003                    CMPX0   489,DU
        27 000751   000743 602000 27                 TNC     s:17158

      396    17162
      397    17163    4                    IF ST$$ -> VARIABLE.LTS$ ~= ADDR(NIL) AND

  17163 27 000752   200041 470500                    LDP0    ST$$,,AUTO
        27 000753   000005 236100                    LDQ     5,,PR0
        27 000754   000000 116000 28                 CMPQ    0
        27 000755   000765 600000 27                 TZE     s:17171
        27 000756   000005 471500                    LDP1    5,,PR0
        27 000757   100000 220100                    LDX0    0,,PR1
        27 000760   000015 100003                    CMPX0   13,DU
        27 000761   000765 601000 27                 TNZ     s:17171
        27 000762   000003 236100                    LDQ     3,,PR0
        27 000763   000010 316003                    CANQ    8,DU
        27 000764   001110 600000 27                 TZE     s:17564

      398    17164    4                        ST$$ -> VARIABLE.LTS$ -> ETT.ID = %TRIAD AND
      399    17165                           /* If only assignment is in VALUE IS clause then
      400    17166                              exclude from init proc */
      401    17167    4                        ST$$ -> VARIABLE.B.GLOBAL = FALSE THEN;
      402    17168                           /* Except, include GLOBAL identifiers, which may be
PL6.E3A0      #001=Z8E8$NEW_CSIB File=Z8E8.:Z8A6TSI                              SAT 08/09/97 11:37 Page:60
      403    17169                              assigned values in programs contained within
      404    17170                              this program */
      405    17171    4                    ELSE IF ST$$ -> ST.ID = %ARRAY THEN

  17171 27 000765   000000 220100                    LDX0    0,,PR0
        27 000766   000765 100003                    CMPX0   501,DU
        27 000767   001001 601000 27                 TNZ     s:17173

      406    17172    4                      CALL Z8E8$INIT_ARRAY (LOP$, ROP$);

  17172 27 000770   200040 631500                    EPPR1   ROP$,,AUTO
        27 000771   200073 451500                    STP1    PLIST+9,,AUTO
        27 000772   200037 633500                    EPPR3   LOP$,,AUTO
        27 000773   200072 453500                    STP3    PLIST+8,,AUTO
        27 000774   200072 630500                    EPPR0   PLIST+8,,AUTO
        27 000775   000025 631400 28                 EPPR1   21
        27 000776   000000 701000 xent               TSX1    Z8E8$INIT_ARRAY
        27 000777   000000 011000                    NOP     0
        27 001000   001110 710000 27                 TRA     s:17564

      407    17173    4                    ELSE IF ROP$ -> LX_ETT_ITEM.ETT$ = ADDR(NIL) THEN

  17173 27 001001   200040 471500                    LDP1    ROP$,,AUTO
        27 001002   100001 236100                    LDQ     1,,PR1
        27 001003   000000 116000 28                 CMPQ    0
        27 001004   001100 601000 27                 TNZ     s:17562

      408    17174    5                      DO;

      409    17175    6                        DO CASE (LOP$ -> LX_ETT_ITEM.TYPE);

  17175 27 001005   200037 473500                    LDP3    LOP$,,AUTO
        27 001006   300004 235100                    LDA     4,,PR3
        27 001007   000024 115007                    CMPA    20,DL
        27 001010   001012 602005 27                 TNC     s:17175+5,AL
        27 001011   001052 710000 27                 TRA     s:17448
        27 001012   001036 710000 27                 TRA     s:17177
PL6.E3A0      #001=Z8E8$NEW_CSIB File=Z8E8.:Z8A6TSI                              SAT 08/09/97 11:37 Page:61
        27 001013   001052 710000 27                 TRA     s:17448
        27 001014   001052 710000 27                 TRA     s:17448
        27 001015   001036 710000 27                 TRA     s:17177
        27 001016   001052 710000 27                 TRA     s:17448
        27 001017   001052 710000 27                 TRA     s:17448
        27 001020   001052 710000 27                 TRA     s:17448
        27 001021   001052 710000 27                 TRA     s:17448
        27 001022   001052 710000 27                 TRA     s:17448
        27 001023   001052 710000 27                 TRA     s:17448
        27 001024   001052 710000 27                 TRA     s:17448
        27 001025   001036 710000 27                 TRA     s:17177
        27 001026   001052 710000 27                 TRA     s:17448
        27 001027   001052 710000 27                 TRA     s:17448
        27 001030   001052 710000 27                 TRA     s:17448
        27 001031   001052 710000 27                 TRA     s:17448
        27 001032   001052 710000 27                 TRA     s:17448
        27 001033   001052 710000 27                 TRA     s:17448
        27 001034   001052 710000 27                 TRA     s:17448
        27 001035   001036 710000 27                 TRA     s:17177

      410    17176    6                          CASE (%TYD, %TYO, %TYF, %TYC);

      411    17177    6                           CALL Z8AF$FORME (%DNA, LOP$ -> LX_ETT_ITEM.ETT$, 0, LOP$ ->
             17177                                     LX_ETT_ITEM.ETT$);

  17177 27 001036   200037 236100                    LDQ     LOP$,,AUTO
        27 001037   000001 036003                    ADLQ    1,DU
        27 001040   000004 235000 28                 LDA     4
        27 001041   200074 757100                    STAQ    PLIST+10,,AUTO
        27 001042   200037 236100                    LDQ     LOP$,,AUTO
        27 001043   000001 036003                    ADLQ    1,DU
        27 001044   000036 235000 28                 LDA     30
        27 001045   200072 757100                    STAQ    PLIST+8,,AUTO
        27 001046   200072 630500                    EPPR0   PLIST+8,,AUTO
        27 001047   000002 631400 28                 EPPR1   2
        27 001050   000000 701000 xent               TSX1    Z8AF$FORME
        27 001051   000000 011000                    NOP     0
PL6.E3A0      #001=Z8E8$NEW_CSIB File=Z8E8.:Z8A6TSI                              SAT 08/09/97 11:37 Page:62

      412    17178    6                        END;

      413    17179                             %NEW_ILL (@ID   = %MFILL,
      414    17180                                       @LOP  = LOP$ -> LX_ETT_ITEM.ETT$,
      415    17181                                       @FILL = "BITASC('000'O)");

  17448 27 001052   000006 236000 28                 LDQ     6
        27 001053   200072 756100                    STQ     PLIST+8,,AUTO
        27 001054   200037 236100                    LDQ     LOP$,,AUTO
        27 001055   000001 036003                    ADLQ    1,DU
        27 001056   200077 756100                    STQ     PLIST+13,,AUTO
        27 001057   200072 630500                    EPPR0   PLIST+8,,AUTO
        27 001060   200076 450500                    STP0    PLIST+12,,AUTO
        27 001061   000042 237000 28                 LDAQ    34
        27 001062   200074 757100                    STAQ    PLIST+10,,AUTO
        27 001063   000024 236000 28                 LDQ     20
        27 001064   200073 756100                    STQ     PLIST+9,,AUTO
        27 001065   200073 630500                    EPPR0   PLIST+9,,AUTO
        27 001066   000037 631400 28                 EPPR1   31
        27 001067   000000 701000 xent               TSX1    Z8AN$NEW_ILL1
        27 001070   000000 011000                    NOP     0

  17450 27 001071   200037 470500                    LDP0    LOP$,,AUTO
        27 001072   000001 236100                    LDQ     1,,PR0
        27 001073   000000 471400 7                  LDP1    ILL$
        27 001074   100001 756100                    STQ     1,,PR1

  17451 27 001075   000000 236003                    LDQ     0,DU
        27 001076   100000 552110                    STBQ    0,'10'O,PR1

      416    17560    5                      END;

  17560 27 001077   001110 710000 27                 TRA     s:17564

      417    17561    4                    ELSE
      418    17562    4                      CALL Z8E7$RESTRICTED_MOVE (LOP$, ROP$);
PL6.E3A0      #001=Z8E8$NEW_CSIB File=Z8E8.:Z8A6TSI                              SAT 08/09/97 11:37 Page:63

  17562 27 001100   200040 633500                    EPPR3   ROP$,,AUTO
        27 001101   200073 453500                    STP3    PLIST+9,,AUTO
        27 001102   200037 634500                    EPPR4   LOP$,,AUTO
        27 001103   200072 454500                    STP4    PLIST+8,,AUTO
        27 001104   200072 630500                    EPPR0   PLIST+8,,AUTO
        27 001105   000025 631400 28                 EPPR1   21
        27 001106   000000 701000 xent               TSX1    Z8E7$RESTRICTED_MOVE
        27 001107   000000 011000                    NOP     0

      419    17563
      420    17564    4                    P$ = P$ -> LX_LIST.LINK;

  17564 27 001110   200036 470500                    LDP0    P$,,AUTO
        27 001111   000007 236100                    LDQ     7,,PR0
        27 001112   200036 756100                    STQ     P$,,AUTO

      421    17565    4                  END; /* While */

  17565 27 001113   000000 116000 28                 CMPQ    0
        27 001114   000727 601000 27                 TNZ     s:17150

      422    17566
      423    17567    3                END PROCESS_VALUES;

  17567 27 001115   200034 221300                    LDX1  ! QLT$$,,AUTO
        27 001116   000001 702211                    TSX2  ! 1,X1

      424    17568
      425    17569
      426    17570                   /* Main body -- new_init_proc */
      427    17571
      428    17572    2              CALL Z8AT$CREATE_TEMPORARY (%PARA, LABEL$);

  17572 27 001117   200032 236100                    LDQ     @LABEL$,,AUTO
        27 001120   000044 235000 28                 LDA     36
        27 001121   200072 757100                    STAQ    PLIST+8,,AUTO
PL6.E3A0      #001=Z8E8$NEW_CSIB File=Z8E8.:Z8A6TSI                              SAT 08/09/97 11:37 Page:64
        27 001122   200072 630500                    EPPR0   PLIST+8,,AUTO
        27 001123   000025 631400 28                 EPPR1   21
        27 001124   000000 701000 xent               TSX1    Z8AT$CREATE_TEMPORARY
        27 001125   000000 011000                    NOP     0

      429    17573
      430    17574    2              LABEL$ -> LABEL.B.REFERENCED = TRUE;

  17574 27 001126   200032 470500                    LDP0    @LABEL$,,AUTO
        27 001127   000000 471500                    LDP1    0,,PR0
        27 001130   400000 236003                    LDQ     -131072,DU
        27 001131   100003 256100                    ORSQ    3,,PR1

      431    17575    2              LABEL$ -> LABEL.B.ONE_REF    = TRUE;

  17575 27 001132   000000 471500                    LDP1    0,,PR0
        27 001133   010000 236003                    LDQ     4096,DU
        27 001134   100003 256100                    ORSQ    3,,PR1

      432    17576    2              LABEL$ -> LABEL.B.GOTO_LABEL = TRUE;

  17576 27 001135   000000 471500                    LDP1    0,,PR0
        27 001136   040000 236003                    LDQ     16384,DU
        27 001137   100003 256100                    ORSQ    3,,PR1

      433    17577    2              LABEL$ -> LABEL.B.INIT_PROC  = TRUE;

  17577 27 001140   000000 471500                    LDP1    0,,PR0
        27 001141   001000 236003                    LDQ     512,DU
        27 001142   100003 256100                    ORSQ    3,,PR1

      434    17578
      435    17579                   %NEW_ILL (@ID = %DEFLB,
      436    17580                             @LABEL$ = LABEL$);

  17912 27 001143   000006 236000 28                 LDQ     6
        27 001144   200072 756100                    STQ     PLIST+8,,AUTO
PL6.E3A0      #001=Z8E8$NEW_CSIB File=Z8E8.:Z8A6TSI                              SAT 08/09/97 11:37 Page:65
        27 001145   200072 631500                    EPPR1   PLIST+8,,AUTO
        27 001146   200077 451500                    STP1    PLIST+13,,AUTO
        27 001147   000007 236000 28                 LDQ     7
        27 001150   200076 756100                    STQ     PLIST+12,,AUTO
        27 001151   000050 237000 28                 LDAQ    40
        27 001152   200074 757100                    STAQ    PLIST+10,,AUTO
        27 001153   200074 630500                    EPPR0   PLIST+10,,AUTO
        27 001154   000002 631400 28                 EPPR1   2
        27 001155   000000 701000 xent               TSX1    Z8AN$NEW_ILL
        27 001156   000000 011000                    NOP     0

  17913 27 001157   200032 470500                    LDP0    @LABEL$,,AUTO
        27 001160   000000 236100                    LDQ     0,,PR0
        27 001161   000000 471400 7                  LDP1    ILL$
        27 001162   100001 756100                    STQ     1,,PR1

      437    17959
      438    17960                   %NEW_ILL (@ID = %USE_ENTRY,
      439    17961                             @CODE = %INIT_PROC,
      440    17962                             @LOP = "ADDR(NIL)");

  18169 27 001163   000006 236000 28                 LDQ     6
        27 001164   200072 756100                    STQ     PLIST+8,,AUTO
        27 001165   200072 633500                    EPPR3   PLIST+8,,AUTO
        27 001166   200077 453500                    STP3    PLIST+13,,AUTO
        27 001167   000007 236000 28                 LDQ     7
        27 001170   200076 756100                    STQ     PLIST+12,,AUTO
        27 001171   000052 237000 28                 LDAQ    42
        27 001172   200074 757100                    STAQ    PLIST+10,,AUTO
        27 001173   200074 630500                    EPPR0   PLIST+10,,AUTO
        27 001174   000002 631400 28                 EPPR1   2
        27 001175   000000 701000 xent               TSX1    Z8AN$NEW_ILL
        27 001176   000000 011000                    NOP     0

  18170 27 001177   000004 220003                    LDX0    4,DU
        27 001200   000000 470400 7                  LDP0    ILL$
        27 001201   000000 440100                    SXL0    0,,PR0
PL6.E3A0      #001=Z8E8$NEW_CSIB File=Z8E8.:Z8A6TSI                              SAT 08/09/97 11:37 Page:66

  18172 27 001202   000000 236000 28                 LDQ     0
        27 001203   000000 470400 7                  LDP0    ILL$
        27 001204   000001 756100                    STQ     1,,PR0

      441    18341
      442    18342    2              CALL PROCESS_VALUES (VALUE$);

  18342 27 001205   200031 236100                    LDQ     @VALUE$,,AUTO
        27 001206   200035 756100                    STQ     FILE$,,AUTO
        27 001207   000715 701000 27                 TSX1    PROCESS_VALUES
        27 001210   000000 011000                    NOP     0

      443    18343
      444    18344    2                IF NOT COMCOM.OB.COBOL_74 THEN

  18344 27 001211   000015 234000 xsym               SZN     COMCOM+13
        27 001212   001215 604000 27                 TMI     s:18556

      445    18345    2                CALL SEARCH_FOR_CLOSING;

  18345 27 001213   000572 701000 27                 TSX1    SEARCH_FOR_CLOSING
        27 001214   000000 011000                    NOP     0

      446    18346
      447    18347                   %NEW_ILL (@ID = %USE_END,
      448    18348                             @CODE = %USE_PROC,
      449    18349                             @LOP = "ADDR(NIL)");

  18556 27 001215   000006 236000 28                 LDQ     6
        27 001216   200072 756100                    STQ     PLIST+8,,AUTO
        27 001217   200072 630500                    EPPR0   PLIST+8,,AUTO
        27 001220   200077 450500                    STP0    PLIST+13,,AUTO
        27 001221   000007 236000 28                 LDQ     7
        27 001222   200076 756100                    STQ     PLIST+12,,AUTO
        27 001223   000056 237000 28                 LDAQ    46
        27 001224   200074 757100                    STAQ    PLIST+10,,AUTO
PL6.E3A0      #001=Z8E8$NEW_CSIB File=Z8E8.:Z8A6TSI                              SAT 08/09/97 11:37 Page:67
        27 001225   200074 630500                    EPPR0   PLIST+10,,AUTO
        27 001226   000002 631400 28                 EPPR1   2
        27 001227   000000 701000 xent               TSX1    Z8AN$NEW_ILL
        27 001230   000000 011000                    NOP     0

  18557 27 001231   000000 220003                    LDX0    0,DU
        27 001232   000000 470400 7                  LDP0    ILL$
        27 001233   000000 440100                    SXL0    0,,PR0

  18559 27 001234   000000 236000 28                 LDQ     0
        27 001235   000000 470400 7                  LDP0    ILL$
        27 001236   000001 756100                    STQ     1,,PR0

      450    18728
      451    18729    2          END NEW_INIT_PROC;

  18729 27 001237   200030 221300                    LDX1  ! NAME_SPACE+2,,AUTO
        27 001240   000001 702211                    TSX2  ! 1,X1

      452    18730             %EJECT;
PL6.E3A0      #001=Z8E8$NEW_CSIB File=Z8E8.:Z8A6TSI                              SAT 08/09/97 11:37 Page:68
      453    18731
      454    18732             /*
      455    18733               Main portion
      456    18734             */
      457    18735
      458    18736
      459    18737    1        DNT$$ = PROC$ -> PROC_.PROC_DEF$ -> SYMDEF_.DNT$;

  18737 27 001241   200003 470500                    LDP0    @PROC$,,AUTO
        27 001242   000000 471500                    LDP1    0,,PR0
        27 001243   100006 473500                    LDP3    6,,PR1
        27 001244   300006 236100                    LDQ     6,,PR3
        27 001245   200016 756100                    STQ     DNT$$,,AUTO

      460    18738
      461    18739    1        CALL BUILD_NAME (DNT$$, N$, TEXT$, NAME_SPACE);

  18739 27 001246   200026 631500                    EPPR1   NAME_SPACE,,AUTO
        27 001247   200052 451500                    STP1    @TEXT$+1,,AUTO
        27 001250   200023 633500                    EPPR3   TEXT$,,AUTO
        27 001251   200051 453500                    STP3    @NEW_LINK$+1,,AUTO
        27 001252   200022 634500                    EPPR4   N$,,AUTO
        27 001253   200050 454500                    STP4    @OFF+1,,AUTO
        27 001254   200016 635500                    EPPR5   DNT$$,,AUTO
        27 001255   200047 455500                    STP5    OFF+3,,AUTO
        27 001256   000052 701000 27                 TSX1    BUILD_NAME
        27 001257   000000 011000                    NOP     0

      462    18740
      463    18741    1        NAME_LENGTH = TEXT$ -> SCALAR.ADSC.N;

  18741 27 001260   200023 470500                    LDP0    TEXT$,,AUTO
        27 001261   000001 236100                    LDQ     1,,PR0
        27 001262   007777 376007                    ANQ     4095,DL
        27 001263   200025 756100                    STQ     NAME_LENGTH,,AUTO

      464    18742
PL6.E3A0      #001=Z8E8$NEW_CSIB File=Z8E8.:Z8A6TSI                              SAT 08/09/97 11:37 Page:69
      465    18743    1        CALL Z8CU$BUILD_AND_LINK (DNT$$, 1, %TYA, 'CSIB', 4, CSIB$);

  18743 27 001264   200017 631500                    EPPR1   CSIB$,,AUTO
        27 001265   200077 451500                    STP1    PLIST+13,,AUTO
        27 001266   000034 236000 28                 LDQ     28
        27 001267   200076 756100                    STQ     PLIST+12,,AUTO
        27 001270   000022 237000 28                 LDAQ    18
        27 001271   200074 757100                    STAQ    PLIST+10,,AUTO
        27 001272   000024 236000 28                 LDQ     20
        27 001273   200073 756100                    STQ     PLIST+9,,AUTO
        27 001274   200016 633500                    EPPR3   DNT$$,,AUTO
        27 001275   200072 453500                    STP3    PLIST+8,,AUTO
        27 001276   200072 630500                    EPPR0   PLIST+8,,AUTO
        27 001277   000013 631400 28                 EPPR1   11
        27 001300   000000 701000 xent               TSX1    Z8CU$BUILD_AND_LINK
        27 001301   000000 011000                    NOP     0

      466    18744
      467    18745    1        CSIB$ -> SCALAR.ADSC.N = NAME_LENGTH + (8 * %CHARS_PER_WORD);

  18745 27 001302   200017 470500                    LDP0    CSIB$,,AUTO
        27 001303   200025 236100                    LDQ     NAME_LENGTH,,AUTO
        27 001304   000040 036007                    ADLQ    32,DL
        27 001305   000001 752103                    STCQ    1,'03'O,PR0

      468    18746             /*N* Change the 8 to some other preprocessor */
      469    18747             %IF GCOS;
      471    18749             %ENDIF;
      472    18750
      473    18751    1        CALL Z8AF$NEW_BASE (CSIB$, /* LOP */

  18751 27 001306   200003 470500                    LDP0    @PROC$,,AUTO
        27 001307   000000 471500                    LDP1    0,,PR0
        27 001310   000000 236000 28                 LDQ     0
        27 001311   200072 756100                    STQ     PLIST+8,,AUTO
        27 001312   100005 633500                    EPPR3   5,,PR1
        27 001313   200075 453500                    STP3    PLIST+11,,AUTO
PL6.E3A0      #001=Z8E8$NEW_CSIB File=Z8E8.:Z8A6TSI                              SAT 08/09/97 11:37 Page:70
        27 001314   200072 631500                    EPPR1   PLIST+8,,AUTO
        27 001315   200074 451500                    STP1    PLIST+10,,AUTO
        27 001316   200017 634500                    EPPR4   CSIB$,,AUTO
        27 001317   200073 454500                    STP4    PLIST+9,,AUTO
        27 001320   200073 630500                    EPPR0   PLIST+9,,AUTO
        27 001321   000026 631400 28                 EPPR1   22
        27 001322   000000 701000 xent               TSX1    Z8AF$NEW_BASE
        27 001323   000000 011000                    NOP     0

      474    18752    1                            ADDR(NIL),        /* ROP */
      475    18753    1                            PROC$ -> PROC_.CSIB$);
      476    18754
      477    18755    1        OFF = 0;

  18755 27 001324   200024 450100                    STZ     OFF,,AUTO

      478    18756
      479    18757
      480    18758    1        IF  PROC$ -> PROC_.BROTHER ~= ADDR(NIL)

  18758 27 001325   200003 470500                    LDP0    @PROC$,,AUTO
        27 001326   000000 471500                    LDP1    0,,PR0
        27 001327   100010 236100                    LDQ     8,,PR1
        27 001330   000000 116000 28                 CMPQ    0
        27 001331   001352 600000 27                 TZE     s:18766
        27 001332   100011 236100                    LDQ     9,,PR1
        27 001333   000000 116000 28                 CMPQ    0
        27 001334   001352 600000 27                 TZE     s:18766

      481    18759    1        AND PROC$ -> PROC_.FATHER ~= ADDR(NIL) THEN
      482    18760    2          DO;

      483    18761    2            CALL Z8E8$NEW_CSIB (PROC$ -> PROC_.BROTHER);

  18761 27 001335   100010 633500                    EPPR3   8,,PR1
        27 001336   200072 453500                    STP3    PLIST+8,,AUTO
        27 001337   200072 630500                    EPPR0   PLIST+8,,AUTO
PL6.E3A0      #001=Z8E8$NEW_CSIB File=Z8E8.:Z8A6TSI                              SAT 08/09/97 11:37 Page:71
        27 001340   000001 631400 28                 EPPR1   1
        27 001341   000000 701000 27                 TSX1    s:8
        27 001342   000000 011000                    NOP     0

      484    18762
      485    18763    2            ROP$ = PROC$ -> PROC_.BROTHER -> PROC_.CSIB$ -> ETT.LOP;

  18763 27 001343   200003 470500                    LDP0    @PROC$,,AUTO
        27 001344   000000 471500                    LDP1    0,,PR0
        27 001345   100010 473500                    LDP3    8,,PR1
        27 001346   300005 474500                    LDP4    5,,PR3
        27 001347   400001 236100                    LDQ     1,,PR4
        27 001350   200021 756100                    STQ     ROP$,,AUTO

      486    18764    2          END;

  18764 27 001351   001354 710000 27                 TRA     s:18991

      487    18765    1        ELSE
      488    18766    1          ROP$ = ADDR(NIL);

  18766 27 001352   000000 236000 28                 LDQ     0
        27 001353   200021 756100                    STQ     ROP$,,AUTO

      489    18767
      490    18768             %NEW_ILL (@ID     = %PTR_SET,
      491    18769                       @OFFSET = OFF,
      492    18770                       @LOP    = CSIB$,
      493    18771                       @ROP    = ROP$);

  18991 27 001354   000006 236000 28                 LDQ     6
        27 001355   200072 756100                    STQ     PLIST+8,,AUTO
        27 001356   200072 631500                    EPPR1   PLIST+8,,AUTO
        27 001357   200077 451500                    STP1    PLIST+13,,AUTO
        27 001360   000007 236000 28                 LDQ     7
        27 001361   200076 756100                    STQ     PLIST+12,,AUTO
        27 001362   000010 237000 28                 LDAQ    8
PL6.E3A0      #001=Z8E8$NEW_CSIB File=Z8E8.:Z8A6TSI                              SAT 08/09/97 11:37 Page:72
        27 001363   200074 757100                    STAQ    PLIST+10,,AUTO
        27 001364   200074 630500                    EPPR0   PLIST+10,,AUTO
        27 001365   000002 631400 28                 EPPR1   2
        27 001366   000000 701000 xent               TSX1    Z8AN$NEW_ILL
        27 001367   000000 011000                    NOP     0

  18995 27 001370   200024 720100                    LXL0    OFF,,AUTO
        27 001371   000000 470400 7                  LDP0    ILL$
        27 001372   000000 440100                    SXL0    0,,PR0

  18997 27 001373   200017 236100                    LDQ     CSIB$,,AUTO
        27 001374   000000 470400 7                  LDP0    ILL$
        27 001375   000001 756100                    STQ     1,,PR0

  18998 27 001376   200021 236100                    LDQ     ROP$,,AUTO
        27 001377   000002 756100                    STQ     2,,PR0

      494    19150
      495    19151    1        OFF = OFF + 1;

  19151 27 001400   200024 054100                    AOS     OFF,,AUTO

      496    19152
      497    19153    1        IF PROC$ -> PROC_.SON ~= ADDR(NIL) THEN

  19153 27 001401   200003 471500                    LDP1    @PROC$,,AUTO
        27 001402   100000 473500                    LDP3    0,,PR1
        27 001403   300007 236100                    LDQ     7,,PR3
        27 001404   000000 116000 28                 CMPQ    0
        27 001405   001423 600000 27                 TZE     s:19160

      498    19154    2          DO;

      499    19155    2            CALL Z8E8$NEW_CSIB (PROC$ -> PROC_.SON);

  19155 27 001406   300007 634500                    EPPR4   7,,PR3
        27 001407   200072 454500                    STP4    PLIST+8,,AUTO
PL6.E3A0      #001=Z8E8$NEW_CSIB File=Z8E8.:Z8A6TSI                              SAT 08/09/97 11:37 Page:73
        27 001410   200072 630500                    EPPR0   PLIST+8,,AUTO
        27 001411   000001 631400 28                 EPPR1   1
        27 001412   000000 701000 27                 TSX1    s:8
        27 001413   000000 011000                    NOP     0

      500    19156
      501    19157    2            ROP$ = PROC$ -> PROC_.SON -> PROC_.CSIB$ -> ETT.LOP;

  19157 27 001414   200003 470500                    LDP0    @PROC$,,AUTO
        27 001415   000000 471500                    LDP1    0,,PR0
        27 001416   100007 473500                    LDP3    7,,PR1
        27 001417   300005 474500                    LDP4    5,,PR3
        27 001420   400001 236100                    LDQ     1,,PR4
        27 001421   200021 756100                    STQ     ROP$,,AUTO

      502    19158    2          END;

  19158 27 001422   001425 710000 27                 TRA     s:19385

      503    19159    1        ELSE
      504    19160    1          ROP$ = ADDR(NIL);

  19160 27 001423   000000 236000 28                 LDQ     0
        27 001424   200021 756100                    STQ     ROP$,,AUTO

      505    19161
      506    19162             %NEW_ILL (@ID     = %PTR_SET,
      507    19163                       @OFFSET = OFF,
      508    19164                       @LOP    = CSIB$,
      509    19165                       @ROP    = ROP$);

  19385 27 001425   000006 236000 28                 LDQ     6
        27 001426   200072 756100                    STQ     PLIST+8,,AUTO
        27 001427   200072 630500                    EPPR0   PLIST+8,,AUTO
        27 001430   200077 450500                    STP0    PLIST+13,,AUTO
        27 001431   000007 236000 28                 LDQ     7
        27 001432   200076 756100                    STQ     PLIST+12,,AUTO
PL6.E3A0      #001=Z8E8$NEW_CSIB File=Z8E8.:Z8A6TSI                              SAT 08/09/97 11:37 Page:74
        27 001433   000010 237000 28                 LDAQ    8
        27 001434   200074 757100                    STAQ    PLIST+10,,AUTO
        27 001435   200074 630500                    EPPR0   PLIST+10,,AUTO
        27 001436   000002 631400 28                 EPPR1   2
        27 001437   000000 701000 xent               TSX1    Z8AN$NEW_ILL
        27 001440   000000 011000                    NOP     0

  19389 27 001441   200024 720100                    LXL0    OFF,,AUTO
        27 001442   000000 470400 7                  LDP0    ILL$
        27 001443   000000 440100                    SXL0    0,,PR0

  19391 27 001444   200017 236100                    LDQ     CSIB$,,AUTO
        27 001445   000000 470400 7                  LDP0    ILL$
        27 001446   000001 756100                    STQ     1,,PR0

  19392 27 001447   200021 236100                    LDQ     ROP$,,AUTO
        27 001450   000002 756100                    STQ     2,,PR0

      510    19544
      511    19545    1        OFF = OFF + 1;

  19545 27 001451   200024 054100                    AOS     OFF,,AUTO

      512    19546
      513    19547    1        IF PROC$ -> PROC_.FATHER ~= ADDR(NIL) THEN

  19547 27 001452   200003 471500                    LDP1    @PROC$,,AUTO
        27 001453   100000 473500                    LDP3    0,,PR1
        27 001454   300011 236100                    LDQ     9,,PR3
        27 001455   000000 116000 28                 CMPQ    0
        27 001456   001464 600000 27                 TZE     s:19550

      514    19548    1          ROP$ = PROC$ -> PROC_.FATHER -> PROC_.CSIB$ -> ETT.LOP;

  19548 27 001457   300011 474500                    LDP4    9,,PR3
        27 001460   400005 475500                    LDP5    5,,PR4
        27 001461   500001 236100                    LDQ     1,,PR5
PL6.E3A0      #001=Z8E8$NEW_CSIB File=Z8E8.:Z8A6TSI                              SAT 08/09/97 11:37 Page:75
        27 001462   200021 756100                    STQ     ROP$,,AUTO
        27 001463   001466 710000 27                 TRA     s:19775

      515    19549    1        ELSE
      516    19550    1          ROP$ = ADDR(NIL);

  19550 27 001464   000000 236000 28                 LDQ     0
        27 001465   200021 756100                    STQ     ROP$,,AUTO

      517    19551
      518    19552             %NEW_ILL (@ID     = %PTR_SET,
      519    19553                       @OFFSET = OFF,
      520    19554                       @LOP    = CSIB$,
      521    19555                       @ROP    = ROP$);

  19775 27 001466   000006 236000 28                 LDQ     6
        27 001467   200072 756100                    STQ     PLIST+8,,AUTO
        27 001470   200072 633500                    EPPR3   PLIST+8,,AUTO
        27 001471   200077 453500                    STP3    PLIST+13,,AUTO
        27 001472   000007 236000 28                 LDQ     7
        27 001473   200076 756100                    STQ     PLIST+12,,AUTO
        27 001474   000010 237000 28                 LDAQ    8
        27 001475   200074 757100                    STAQ    PLIST+10,,AUTO
        27 001476   200074 630500                    EPPR0   PLIST+10,,AUTO
        27 001477   000002 631400 28                 EPPR1   2
        27 001500   000000 701000 xent               TSX1    Z8AN$NEW_ILL
        27 001501   000000 011000                    NOP     0

  19779 27 001502   200024 720100                    LXL0    OFF,,AUTO
        27 001503   000000 470400 7                  LDP0    ILL$
        27 001504   000000 440100                    SXL0    0,,PR0

  19781 27 001505   200017 236100                    LDQ     CSIB$,,AUTO
        27 001506   000000 470400 7                  LDP0    ILL$
        27 001507   000001 756100                    STQ     1,,PR0

  19782 27 001510   200021 236100                    LDQ     ROP$,,AUTO
PL6.E3A0      #001=Z8E8$NEW_CSIB File=Z8E8.:Z8A6TSI                              SAT 08/09/97 11:37 Page:76
        27 001511   000002 756100                    STQ     2,,PR0

      522    19934
      523    19935    1        OFF = OFF + 1;

  19935 27 001512   200024 054100                    AOS     OFF,,AUTO

      524    19936
      525    19937    1        IF (PROC$ -> PROC_.FATHER = ADDR(NIL)

  19937 27 001513   200003 471500                    LDP1    @PROC$,,AUTO
        27 001514   100000 473500                    LDP3    0,,PR1
        27 001515   300011 236100                    LDQ     9,,PR3
        27 001516   000000 116000 28                 CMPQ    0
        27 001517   001610 601000 27                 TNZ     s:20338
        27 001520   300006 474500                    LDP4    6,,PR3
        27 001521   400003 234100                    SZN     3,,PR4
        27 001522   001610 605000 27                 TPL     s:20338

      526    19938    1            AND PROC$ -> PROC_.PROC_DEF$ -> SYMDEF_.B.MAIN_PROGRAM) THEN
      527    19939    2          DO;

      528    19940    2            IF PROC$ -> PROC_.PROC_SUPP$ -> PROC_SUPP.INIT_PROC$ ~= ADDR(NIL) THEN

  19940 27 001523   300001 475500                    LDP5    1,,PR3
        27 001524   500003 236100                    LDQ     3,,PR5
        27 001525   000000 116000 28                 CMPQ    0
        27 001526   001544 600000 27                 TZE     s:19947

      529    19941    3               DO;

      530    19942    3                 CALL CHECK_ARRAY_PRESET ( PROC$ -> PROC_.PROC_SUPP$ ->

  19942 27 001527   500003 636500                    EPPR6   3,,PR5
        27 001530   200031 456500                    STP6    NAME_SPACE+3,,AUTO
        27 001531   000625 701000 27                 TSX1    CHECK_ARRAY_PRESET
        27 001532   000000 011000                    NOP     0
PL6.E3A0      #001=Z8E8$NEW_CSIB File=Z8E8.:Z8A6TSI                              SAT 08/09/97 11:37 Page:77

      531    19943    3                                           PROC_SUPP.INIT_PROC$ );
      532    19944    3                 CALL Z8ED$DISPOSE_ABSSYN_TREE (PROC$ -> PROC_.PROC_SUPP$ ->

  19944 27 001533   200003 470500                    LDP0    @PROC$,,AUTO
        27 001534   000000 471500                    LDP1    0,,PR0
        27 001535   100001 473500                    LDP3    1,,PR1
        27 001536   300003 634500                    EPPR4   3,,PR3
        27 001537   200072 454500                    STP4    PLIST+8,,AUTO
        27 001540   200072 630500                    EPPR0   PLIST+8,,AUTO
        27 001541   000001 631400 28                 EPPR1   1
        27 001542   000000 701000 xent               TSX1    Z8ED$DISPOSE_ABSSYN_TREE
        27 001543   000000 011000                    NOP     0

      533    19945    3                                             PROC_SUPP.INIT_PROC$);
      534    19946    3               END;

      535    19947    2            ENTADDR_OF_ENIL$ = ENTADDR(NIL);

  19947 27 001544   000003 236000 28                 LDQ     3
        27 001545   200015 756100                    STQ     ENTADDR_OF_NIL$,,AUTO

      536    19948    2            MKCN.CON = ENTADDR_OF_NIL_UBIN;

  19948 27 001546   200015 235100                    LDA     ENTADDR_OF_NIL$,,AUTO
        27 001547   000000 755000 17                 STA     MKCN

      537    19949    2            CALL Z8AC$MAKE_CONST (ENTADDR_OF_NIL$);

  19949 27 001550   200015 630500                    EPPR0   ENTADDR_OF_NIL$,,AUTO
        27 001551   200072 450500                    STP0    PLIST+8,,AUTO
        27 001552   200072 630500                    EPPR0   PLIST+8,,AUTO
        27 001553   000001 631400 28                 EPPR1   1
        27 001554   000000 701000 xent               TSX1    Z8AC$MAKE_CONST
        27 001555   000000 011000                    NOP     0

      538    19950    2            ROP$ = ENTADDR_OF_NIL$ -> ETT.LOP;
PL6.E3A0      #001=Z8E8$NEW_CSIB File=Z8E8.:Z8A6TSI                              SAT 08/09/97 11:37 Page:78

  19950 27 001556   200015 470500                    LDP0    ENTADDR_OF_NIL$,,AUTO
        27 001557   000001 236100                    LDQ     1,,PR0
        27 001560   200021 756100                    STQ     ROP$,,AUTO

      539    19951
      540    19952                 %NEW_ILL (@ID     = %PREOFF,
      541    19953                           @OFFSET = OFF,
      542    19954                           @N      = 1,
      543    19955                           @LOP    = CSIB$,
      544    19956                           @ROP    = ROP$);

  20185 27 001561   000006 236000 28                 LDQ     6
        27 001562   200072 756100                    STQ     PLIST+8,,AUTO
        27 001563   200072 631500                    EPPR1   PLIST+8,,AUTO
        27 001564   200077 451500                    STP1    PLIST+13,,AUTO
        27 001565   000007 236000 28                 LDQ     7
        27 001566   200076 756100                    STQ     PLIST+12,,AUTO
        27 001567   000014 237000 28                 LDAQ    12
        27 001570   200074 757100                    STAQ    PLIST+10,,AUTO
        27 001571   200074 630500                    EPPR0   PLIST+10,,AUTO
        27 001572   000002 631400 28                 EPPR1   2
        27 001573   000000 701000 xent               TSX1    Z8AN$NEW_ILL
        27 001574   000000 011000                    NOP     0

  20189 27 001575   200024 720100                    LXL0    OFF,,AUTO
        27 001576   000000 470400 7                  LDP0    ILL$
        27 001577   000000 440100                    SXL0    0,,PR0

  20194 27 001600   000001 235007                    LDA     1,DL
        27 001601   000000 470400 7                  LDP0    ILL$
        27 001602   000003 755100                    STA     3,,PR0

  20196 27 001603   200017 236100                    LDQ     CSIB$,,AUTO
        27 001604   000001 756100                    STQ     1,,PR0

  20197 27 001605   200021 236100                    LDQ     ROP$,,AUTO
PL6.E3A0      #001=Z8E8$NEW_CSIB File=Z8E8.:Z8A6TSI                              SAT 08/09/97 11:37 Page:79
        27 001606   000002 756100                    STQ     2,,PR0

      545    20335    2          END;

  20335 27 001607   001664 710000 27                 TRA     s:20735

      546    20336    1        ELSE
      547    20337    2          DO;

      548    20338    2            CALL NEW_INIT_PROC (PROC$ -> PROC_.PROC_SUPP$ -> PROC_SUPP.INIT_PROC$,

  20338 27 001610   300001 474500                    LDP4    1,,PR3
        27 001611   200021 635500                    EPPR5   ROP$,,AUTO
        27 001612   200032 455500                    STP5    @VALUE$+1,,AUTO
        27 001613   400003 633500                    EPPR3   3,,PR4
        27 001614   200031 453500                    STP3    NAME_SPACE+3,,AUTO
        27 001615   000713 701000 27                 TSX1    NEW_INIT_PROC
        27 001616   000000 011000                    NOP     0

      549    20339    2                                ROP$);
      550    20340
      551    20341    2            IF PROC$ -> PROC_.PROC_SUPP$ ->

  20341 27 001617   200003 470500                    LDP0    @PROC$,,AUTO
        27 001620   000000 471500                    LDP1    0,,PR0
        27 001621   100001 473500                    LDP3    1,,PR1
        27 001622   300003 236100                    LDQ     3,,PR3
        27 001623   000000 116000 28                 CMPQ    0
        27 001624   001633 600000 27                 TZE     s:20568

      552    20342    2               PROC_SUPP.INIT_PROC$ ~= ADDR(NIL) THEN
      553    20343    2              CALL Z8ED$DISPOSE_ABSSYN_TREE (PROC$ -> PROC_.PROC_SUPP$ ->

  20343 27 001625   300003 634500                    EPPR4   3,,PR3
        27 001626   200072 454500                    STP4    PLIST+8,,AUTO
        27 001627   200072 630500                    EPPR0   PLIST+8,,AUTO
        27 001630   000001 631400 28                 EPPR1   1
PL6.E3A0      #001=Z8E8$NEW_CSIB File=Z8E8.:Z8A6TSI                              SAT 08/09/97 11:37 Page:80
        27 001631   000000 701000 xent               TSX1    Z8ED$DISPOSE_ABSSYN_TREE
        27 001632   000000 011000                    NOP     0

      554    20344    2                                           PROC_SUPP.INIT_PROC$);
      555    20345                 %NEW_ILL (@ID     = %PTR_SET,
      556    20346                           @OFFSET = OFF,
      557    20347                           @LOP    = CSIB$,
      558    20348                           @ROP    = ROP$);

  20568 27 001633   000006 236000 28                 LDQ     6
        27 001634   200072 756100                    STQ     PLIST+8,,AUTO
        27 001635   200072 630500                    EPPR0   PLIST+8,,AUTO
        27 001636   200077 450500                    STP0    PLIST+13,,AUTO
        27 001637   000007 236000 28                 LDQ     7
        27 001640   200076 756100                    STQ     PLIST+12,,AUTO
        27 001641   000010 237000 28                 LDAQ    8
        27 001642   200074 757100                    STAQ    PLIST+10,,AUTO
        27 001643   200074 630500                    EPPR0   PLIST+10,,AUTO
        27 001644   000002 631400 28                 EPPR1   2
        27 001645   000000 701000 xent               TSX1    Z8AN$NEW_ILL
        27 001646   000000 011000                    NOP     0

  20572 27 001647   200024 720100                    LXL0    OFF,,AUTO
        27 001650   000000 470400 7                  LDP0    ILL$
        27 001651   000000 440100                    SXL0    0,,PR0

  20574 27 001652   200017 236100                    LDQ     CSIB$,,AUTO
        27 001653   000000 470400 7                  LDP0    ILL$
        27 001654   000001 756100                    STQ     1,,PR0

  20575 27 001655   200021 236100                    LDQ     ROP$,,AUTO
        27 001656   000002 756100                    STQ     2,,PR0

      559    20727
      560    20728                 /* Ph2 requires INIT_PROC$ to point to the ILS$ created
      561    20729                    for the preset so he can delete any nil init_procs.
      562    20730                    The ils$ is gotten from ILS$(global), sorry.        */
PL6.E3A0      #001=Z8E8$NEW_CSIB File=Z8E8.:Z8A6TSI                              SAT 08/09/97 11:37 Page:81
      563    20731
      564    20732    2            PROC$ -> PROC_.PROC_SUPP$ -> PROC_SUPP.INIT_PROC$ = ILS$;

  20732 27 001657   200003 471500                    LDP1    @PROC$,,AUTO
        27 001660   100000 473500                    LDP3    0,,PR1
        27 001661   300001 474500                    LDP4    1,,PR3
        27 001662   000000 236000 9                  LDQ     ILS$
        27 001663   400003 756100                    STQ     3,,PR4

      565    20733    2          END;

      566    20734
      567    20735    1        OFF = OFF + 1;

  20735 27 001664   200024 054100                    AOS     OFF,,AUTO

      568    20736
      569    20737             /* Build the entry point list */
      570    20738
      571    20739    1        CALL BUILD_ENTRY_POINT (PROC$, P$);

  20739 27 001665   200020 631500                    EPPR1   P$,,AUTO
        27 001666   200032 451500                    STP1    @VALUE$+1,,AUTO
        27 001667   200003 236100                    LDQ     @PROC$,,AUTO
        27 001670   200031 756100                    STQ     NAME_SPACE+3,,AUTO
        27 001671   000131 701000 27                 TSX1    BUILD_ENTRY_POINT
        27 001672   000000 011000                    NOP     0

      572    20740
      573    20741             %NEW_ILL (@ID     = %PTR_SET,
      574    20742                       @OFFSET = OFF,
      575    20743                       @LOP    = CSIB$,
      576    20744                       @ROP    = P$);

  20964 27 001673   000006 236000 28                 LDQ     6
        27 001674   200072 756100                    STQ     PLIST+8,,AUTO
        27 001675   200072 630500                    EPPR0   PLIST+8,,AUTO
PL6.E3A0      #001=Z8E8$NEW_CSIB File=Z8E8.:Z8A6TSI                              SAT 08/09/97 11:37 Page:82
        27 001676   200077 450500                    STP0    PLIST+13,,AUTO
        27 001677   000007 236000 28                 LDQ     7
        27 001700   200076 756100                    STQ     PLIST+12,,AUTO
        27 001701   000010 237000 28                 LDAQ    8
        27 001702   200074 757100                    STAQ    PLIST+10,,AUTO
        27 001703   200074 630500                    EPPR0   PLIST+10,,AUTO
        27 001704   000002 631400 28                 EPPR1   2
        27 001705   000000 701000 xent               TSX1    Z8AN$NEW_ILL
        27 001706   000000 011000                    NOP     0

  20968 27 001707   200024 720100                    LXL0    OFF,,AUTO
        27 001710   000000 470400 7                  LDP0    ILL$
        27 001711   000000 440100                    SXL0    0,,PR0

  20970 27 001712   200017 236100                    LDQ     CSIB$,,AUTO
        27 001713   000000 470400 7                  LDP0    ILL$
        27 001714   000001 756100                    STQ     1,,PR0

  20971 27 001715   200020 236100                    LDQ     P$,,AUTO
        27 001716   000002 756100                    STQ     2,,PR0

      577    21123
      578    21124    1        OFF = OFF + 1;

  21124 27 001717   200024 054100                    AOS     OFF,,AUTO

      579    21125
      580    21126             /* Set the CSIB.ENTRY$ */
      581    21127
      582    21128             %NEW_ILL (@ID    = %PTR_SET,
      583    21129                       @OFFSET = OFF,
      584    21130                       @LOP   = CSIB$,
      585    21131                       @ROP   = PROC$ -> PROC_.PROC_DEF$);

  21351 27 001720   000006 236000 28                 LDQ     6
        27 001721   200072 756100                    STQ     PLIST+8,,AUTO
        27 001722   200072 631500                    EPPR1   PLIST+8,,AUTO
PL6.E3A0      #001=Z8E8$NEW_CSIB File=Z8E8.:Z8A6TSI                              SAT 08/09/97 11:37 Page:83
        27 001723   200077 451500                    STP1    PLIST+13,,AUTO
        27 001724   000007 236000 28                 LDQ     7
        27 001725   200076 756100                    STQ     PLIST+12,,AUTO
        27 001726   000010 237000 28                 LDAQ    8
        27 001727   200074 757100                    STAQ    PLIST+10,,AUTO
        27 001730   200074 630500                    EPPR0   PLIST+10,,AUTO
        27 001731   000002 631400 28                 EPPR1   2
        27 001732   000000 701000 xent               TSX1    Z8AN$NEW_ILL
        27 001733   000000 011000                    NOP     0

  21355 27 001734   200024 720100                    LXL0    OFF,,AUTO
        27 001735   000000 470400 7                  LDP0    ILL$
        27 001736   000000 440100                    SXL0    0,,PR0

  21357 27 001737   200017 236100                    LDQ     CSIB$,,AUTO
        27 001740   000000 470400 7                  LDP0    ILL$
        27 001741   000001 756100                    STQ     1,,PR0

  21358 27 001742   200003 471500                    LDP1    @PROC$,,AUTO
        27 001743   100000 473500                    LDP3    0,,PR1
        27 001744   300006 236100                    LDQ     6,,PR3
        27 001745   000002 756100                    STQ     2,,PR0

      586    21510
      587    21511    1        OFF = OFF + 1;

  21511 27 001746   200024 054100                    AOS     OFF,,AUTO

      588    21512
      589    21513             /* Flags word */
      590    21514    1        CALL SET_FLAGS (PROC$, P$);

  21514 27 001747   200020 633500                    EPPR3   P$,,AUTO
        27 001750   200032 453500                    STP3    @VALUE$+1,,AUTO
        27 001751   200003 236100                    LDQ     @PROC$,,AUTO
        27 001752   200031 756100                    STQ     NAME_SPACE+3,,AUTO
        27 001753   000003 701000 27                 TSX1    SET_FLAGS
PL6.E3A0      #001=Z8E8$NEW_CSIB File=Z8E8.:Z8A6TSI                              SAT 08/09/97 11:37 Page:84
        27 001754   000000 011000                    NOP     0

      591    21515
      592    21516             %NEW_ILL (@ID     = %PREOFF,
      593    21517                       @OFFSET = OFF,
      594    21518                       @N      = 1,
      595    21519                       @LOP    = CSIB$,
      596    21520                       @ROP    = P$);

  21749 27 001755   000006 236000 28                 LDQ     6
        27 001756   200072 756100                    STQ     PLIST+8,,AUTO
        27 001757   200072 630500                    EPPR0   PLIST+8,,AUTO
        27 001760   200077 450500                    STP0    PLIST+13,,AUTO
        27 001761   000007 236000 28                 LDQ     7
        27 001762   200076 756100                    STQ     PLIST+12,,AUTO
        27 001763   000014 237000 28                 LDAQ    12
        27 001764   200074 757100                    STAQ    PLIST+10,,AUTO
        27 001765   200074 630500                    EPPR0   PLIST+10,,AUTO
        27 001766   000002 631400 28                 EPPR1   2
        27 001767   000000 701000 xent               TSX1    Z8AN$NEW_ILL
        27 001770   000000 011000                    NOP     0

  21753 27 001771   200024 720100                    LXL0    OFF,,AUTO
        27 001772   000000 470400 7                  LDP0    ILL$
        27 001773   000000 440100                    SXL0    0,,PR0

  21758 27 001774   000001 235007                    LDA     1,DL
        27 001775   000000 470400 7                  LDP0    ILL$
        27 001776   000003 755100                    STA     3,,PR0

  21760 27 001777   200017 236100                    LDQ     CSIB$,,AUTO
        27 002000   000001 756100                    STQ     1,,PR0

  21761 27 002001   200020 236100                    LDQ     P$,,AUTO
        27 002002   000002 756100                    STQ     2,,PR0

      597    21899
PL6.E3A0      #001=Z8E8$NEW_CSIB File=Z8E8.:Z8A6TSI                              SAT 08/09/97 11:37 Page:85
      598    21900    1        OFF = OFF + 1;

  21900 27 002003   200024 054100                    AOS     OFF,,AUTO

      599    21901
      600    21902             /* Preset the name length and name */
      601    21903
      602    21904             %NEW_ILL (@ID     = %PREOFF,
      603    21905                       @OFFSET = OFF,
      604    21906                       @N      = 1,
      605    21907                       @LOP    = CSIB$,
      606    21908                       @ROP    = N$);

  22137 27 002004   000006 236000 28                 LDQ     6
        27 002005   200072 756100                    STQ     PLIST+8,,AUTO
        27 002006   200072 631500                    EPPR1   PLIST+8,,AUTO
        27 002007   200077 451500                    STP1    PLIST+13,,AUTO
        27 002010   000007 236000 28                 LDQ     7
        27 002011   200076 756100                    STQ     PLIST+12,,AUTO
        27 002012   000014 237000 28                 LDAQ    12
        27 002013   200074 757100                    STAQ    PLIST+10,,AUTO
        27 002014   200074 630500                    EPPR0   PLIST+10,,AUTO
        27 002015   000002 631400 28                 EPPR1   2
        27 002016   000000 701000 xent               TSX1    Z8AN$NEW_ILL
        27 002017   000000 011000                    NOP     0

  22141 27 002020   200024 720100                    LXL0    OFF,,AUTO
        27 002021   000000 470400 7                  LDP0    ILL$
        27 002022   000000 440100                    SXL0    0,,PR0

  22146 27 002023   000001 235007                    LDA     1,DL
        27 002024   000000 470400 7                  LDP0    ILL$
        27 002025   000003 755100                    STA     3,,PR0

  22148 27 002026   200017 236100                    LDQ     CSIB$,,AUTO
        27 002027   000001 756100                    STQ     1,,PR0

PL6.E3A0      #001=Z8E8$NEW_CSIB File=Z8E8.:Z8A6TSI                              SAT 08/09/97 11:37 Page:86
  22149 27 002030   200022 236100                    LDQ     N$,,AUTO
        27 002031   000002 756100                    STQ     2,,PR0

      607    22287
      608    22288    1        OFF = OFF + 1; /* Increment the offset within CSIB */

  22288 27 002032   200024 054100                    AOS     OFF,,AUTO

      609    22289
      610    22290
      611    22291             %NEW_ILL (@ID     = %PREOFF,
      612    22292                       @OFFSET = OFF,
      613    22293                       @N      = NAME_SPACE / 4,
      614    22294                       @LOP    = CSIB$,
      615    22295                       @ROP    = TEXT$);

  22524 27 002033   000006 236000 28                 LDQ     6
        27 002034   200072 756100                    STQ     PLIST+8,,AUTO
        27 002035   200072 631500                    EPPR1   PLIST+8,,AUTO
        27 002036   200077 451500                    STP1    PLIST+13,,AUTO
        27 002037   000007 236000 28                 LDQ     7
        27 002040   200076 756100                    STQ     PLIST+12,,AUTO
        27 002041   000014 237000 28                 LDAQ    12
        27 002042   200074 757100                    STAQ    PLIST+10,,AUTO
        27 002043   200074 630500                    EPPR0   PLIST+10,,AUTO
        27 002044   000002 631400 28                 EPPR1   2
        27 002045   000000 701000 xent               TSX1    Z8AN$NEW_ILL
        27 002046   000000 011000                    NOP     0

  22528 27 002047   200024 720100                    LXL0    OFF,,AUTO
        27 002050   000000 470400 7                  LDP0    ILL$
        27 002051   000000 440100                    SXL0    0,,PR0

  22533 27 002052   200026 236100                    LDQ     NAME_SPACE,,AUTO
        27 002053   000004 506007                    DIV     4,DL
        27 002054   000000 470400 7                  LDP0    ILL$
        27 002055   000003 756100                    STQ     3,,PR0
PL6.E3A0      #001=Z8E8$NEW_CSIB File=Z8E8.:Z8A6TSI                              SAT 08/09/97 11:37 Page:87

  22535 27 002056   200017 236100                    LDQ     CSIB$,,AUTO
        27 002057   000001 756100                    STQ     1,,PR0

  22536 27 002060   200023 236100                    LDQ     TEXT$,,AUTO
        27 002061   000002 756100                    STQ     2,,PR0

      616    22674
      617    22675    1        OFF = OFF + (NAME_SPACE / 4);

  22675 27 002062   200026 236100                    LDQ     NAME_SPACE,,AUTO
        27 002063   000004 506007                    DIV     4,DL
        27 002064   200024 036100                    ADLQ    OFF,,AUTO
        27 002065   200024 756100                    STQ     OFF,,AUTO

      618    22676
      619    22677    1   END Z8E8$NEW_CSIB;

  22677 27 002066   000000 702200 xent               TSX2  ! X66_ARET
      620    22678        %EOD;

PL6.E3A0      #001=Z8E8$NEW_CSIB File=Z8E8.:Z8A6TSI                              SAT 08/09/97 11:37 Page:88
--  Include file information  --

   X9A_IO.:X8A6TOU  is referenced.
   Z9A_FLAGS.:Z8A6TOU  is referenced.
   Z8E_ABSSYN.:Z8A6TOU  cannot be made into a system file and is referenced.
   Z8E_NEW_ILL.:Z8A6TOU  is referenced.
   Z8E_MACROS.:Z8A6TOU  cannot be made into a system file and is referenced.
   Z8E_O1COM.:Z8A6TOU  cannot be made into a system file and is referenced.
   Z8A_LEX_SYMB.:Z8A6TOU  cannot be made into a system file and is referenced.
   Z8E_STACKS.:Z8A6TOU  cannot be made into a system file and is referenced.
   Z8A_LIBRARY.:Z8A6TOU  cannot be made into a system file and is referenced.
   X8A_CSIB.:X8A6TOU  is referenced.
   Z8A_QLT.:Z8A6TOU  cannot be made into a system file and is referenced.
   Z8A_MKCN.:Z8A6TOU  cannot be made into a system file and is referenced.
   Z8A_ETT.:Z8A6TOU  cannot be made into a system file and is referenced.
   Z8A_LTS.:Z8A6TOU  cannot be made into a system file and is referenced.
   Z8A_ILS.:Z8A6TOU  cannot be made into a system file and is referenced.
   Z8A_ILL.:Z8A6TOU  cannot be made into a system file and is referenced.
   Z8A_TYPES.:Z8A6TOU  is referenced.
   Z8A_ST.:Z8A6TOU  cannot be made into a system file and is referenced.
   Z8A_DNT.:Z8A6TOU  cannot be made into a system file and is referenced.
   Z8A_COMCOM.:Z8A6TOU  cannot be made into a system file and is referenced.
   X8A_COM_MACS.:X8A6TOU  is referenced.
   Z8A_NAMES.:Z8A6TOU  is referenced.
   Z8A_SUPP_MAC.:Z8A6TOU  is referenced.
   Z8A_DEFC.:Z8A6TOU  cannot be made into a system file and is referenced.
      No diagnostics issued in procedure Z8E8$NEW_CSIB.
PL6.E3A0      #001=Z8E8$NEW_CSIB File=Z8E8.:Z8A6TSI                              SAT 08/09/97 11:37 Page:89

 **** Variables and constants ****

  ****  Section 000 LblCom ITERATION

  ****  Scalars and arrays  ****
OctLoc.c.b A Datatyp(siz) R M Lvl/name                 OctLoc.c.b A Datatyp(siz) R M Lvl/name

     0-0-0/w SBIN              1 ITERATION

  ****  Section 001 LblCom DNT$

  ****  Scalars and arrays  ****
OctLoc.c.b A Datatyp(siz) R M Lvl/name                 OctLoc.c.b A Datatyp(siz) R M Lvl/name

     0-0-0/w PTR         r     1 DNT$

  ****  Section 002 LblCom DNT_

  ****  Scalars and arrays  ****
OctLoc.c.b A Datatyp(siz) R M Lvl/name                 OctLoc.c.b A Datatyp(siz) R M Lvl/name

     0-0-0/w STRC(180)         1 DNT_

  ****  Section 003 LblCom DNT_BUCKET_NUMBER

  ****  Scalars and arrays  ****
OctLoc.c.b A Datatyp(siz) R M Lvl/name                 OctLoc.c.b A Datatyp(siz) R M Lvl/name

     0-0-0/w UBIN              1 DNT_BUCKET_NUMBER

  ****  Section 004 LblCom DNT_OF_1$

  ****  Scalars and arrays  ****
OctLoc.c.b A Datatyp(siz) R M Lvl/name                 OctLoc.c.b A Datatyp(siz) R M Lvl/name

     0-0-0/w PTR               1 DNT_OF_1$

PL6.E3A0      #001=Z8E8$NEW_CSIB File=Z8E8.:Z8A6TSI                              SAT 08/09/97 11:37 Page:90
  ****  Section 005 LblCom ST$

  ****  Scalars and arrays  ****
OctLoc.c.b A Datatyp(siz) R M Lvl/name                 OctLoc.c.b A Datatyp(siz) R M Lvl/name

     0-0-0/w PTR         r     1 ST$

  ****  Section 006 LblCom ST_

  ****  Scalars and arrays  ****
OctLoc.c.b A Datatyp(siz) R M Lvl/name                 OctLoc.c.b A Datatyp(siz) R M Lvl/name

     0-0-0/w STRC(180)         1 ST_

  ****  Section 007 LblCom ILL$

  ****  Scalars and arrays  ****
OctLoc.c.b A Datatyp(siz) R M Lvl/name                 OctLoc.c.b A Datatyp(siz) R M Lvl/name

     0-0-0/w PTR         r     1 ILL$

  ****  Section 008 LblCom ILL_

  ****  Scalars and arrays  ****
OctLoc.c.b A Datatyp(siz) R M Lvl/name                 OctLoc.c.b A Datatyp(siz) R M Lvl/name

     0-0-0/w STRC(180)         1 ILL_

  ****  Section 009 LblCom ILS$

  ****  Scalars and arrays  ****
OctLoc.c.b A Datatyp(siz) R M Lvl/name                 OctLoc.c.b A Datatyp(siz) R M Lvl/name

     0-0-0/w PTR         r     1 ILS$

  ****  Section 010 LblCom ILS_

PL6.E3A0      #001=Z8E8$NEW_CSIB File=Z8E8.:Z8A6TSI                              SAT 08/09/97 11:37 Page:91
  ****  Scalars and arrays  ****
OctLoc.c.b A Datatyp(siz) R M Lvl/name                 OctLoc.c.b A Datatyp(siz) R M Lvl/name

     0-0-0/w STRC(180)         1 ILS_

  ****  Section 011 LblCom LTS$

  ****  Scalars and arrays  ****
OctLoc.c.b A Datatyp(siz) R M Lvl/name                 OctLoc.c.b A Datatyp(siz) R M Lvl/name

     0-0-0/w PTR               1 LONG_ITEM$                 0-0-0/w PTR         r     1 LTS$

  ****  Section 012 LblCom LTS_

  ****  Scalars and arrays  ****
OctLoc.c.b A Datatyp(siz) R M Lvl/name                 OctLoc.c.b A Datatyp(siz) R M Lvl/name

     0-0-0/w STRC(180)         1 LTS_

  ****  Section 013 LblCom ETT$

  ****  Scalars and arrays  ****
OctLoc.c.b A Datatyp(siz) R M Lvl/name                 OctLoc.c.b A Datatyp(siz) R M Lvl/name

     0-0-0/w PTR         r     1 ETT$

  ****  Section 014 LblCom HEAD_ETT$

  ****  Scalars and arrays  ****
OctLoc.c.b A Datatyp(siz) R M Lvl/name                 OctLoc.c.b A Datatyp(siz) R M Lvl/name

     0-0-0/w PTR               1 HEAD_ETT$

  ****  Section 015 LblCom ETT_BUCKETS

  ****  Scalars and arrays  ****
OctLoc.c.b A Datatyp(siz) R M Lvl/name                 OctLoc.c.b A Datatyp(siz) R M Lvl/name
PL6.E3A0      #001=Z8E8$NEW_CSIB File=Z8E8.:Z8A6TSI                              SAT 08/09/97 11:37 Page:92

     0-0-0/w PTR               1 ETT_BUCKETS(0:511)

  ****  Section 016 LblCom ETT_

  ****  Scalars and arrays  ****
OctLoc.c.b A Datatyp(siz) R M Lvl/name                 OctLoc.c.b A Datatyp(siz) R M Lvl/name

     0-0-0/w STRC(180)         1 ETT_

  ****  Section 017 LblCom MKCN

  ****  Scalars and arrays  ****
OctLoc.c.b A Datatyp(siz) R M Lvl/name                 OctLoc.c.b A Datatyp(siz) R M Lvl/name

     0-0-0/w STRC(72)    r     1 MKCN

  ****  Section 018 LblCom QLT$

  ****  Scalars and arrays  ****
OctLoc.c.b A Datatyp(siz) R M Lvl/name                 OctLoc.c.b A Datatyp(siz) R M Lvl/name

     0-0-0/w PTR         r     1 QLT$

  ****  Section 019 LblCom PREV_01_QLT$

  ****  Scalars and arrays  ****
OctLoc.c.b A Datatyp(siz) R M Lvl/name                 OctLoc.c.b A Datatyp(siz) R M Lvl/name

     0-0-0/w PTR               1 PREV_01_QLT$

  ****  Section 020 LblCom QLT_

  ****  Scalars and arrays  ****
OctLoc.c.b A Datatyp(siz) R M Lvl/name                 OctLoc.c.b A Datatyp(siz) R M Lvl/name

     0-0-0/w STRC(180)         1 QLT_
PL6.E3A0      #001=Z8E8$NEW_CSIB File=Z8E8.:Z8A6TSI                              SAT 08/09/97 11:37 Page:93

  ****  Section 021 LblCom LEX_SYMBOL

  ****  Scalars and arrays  ****
OctLoc.c.b A Datatyp(siz) R M Lvl/name                 OctLoc.c.b A Datatyp(siz) R M Lvl/name

     0-0-0/w STRC(3240)  r     1 LEX_SYMBOL                 0-0-0/w STRC(3240)        1 LEX_SYMBOL_WORDS

  ****  Section 022 LblCom CURRENT_LEX_SYMBOL$

  ****  Scalars and arrays  ****
OctLoc.c.b A Datatyp(siz) R M Lvl/name                 OctLoc.c.b A Datatyp(siz) R M Lvl/name

     0-0-0/w PTR         r     1 CURRENT_LEX_SYMBOL$

  ****  Section 023 LblCom TEMP_LEX_SYMBOL

  ****  Scalars and arrays  ****
OctLoc.c.b A Datatyp(siz) R M Lvl/name                 OctLoc.c.b A Datatyp(siz) R M Lvl/name

     0-0-0/w STRC(3240)        1 TEMP_LEX_SYMBOL

  ****  Section 024 LblCom TEMP_LEX_SYMBOL2

  ****  Scalars and arrays  ****
OctLoc.c.b A Datatyp(siz) R M Lvl/name                 OctLoc.c.b A Datatyp(siz) R M Lvl/name

     0-0-0/w STRC(3240)        1 TEMP_LEX_SYMBOL2

  ****  Section 025 LblCom TEMP_LX_NODE

  ****  Scalars and arrays  ****
OctLoc.c.b A Datatyp(siz) R M Lvl/name                 OctLoc.c.b A Datatyp(siz) R M Lvl/name

     0-0-0/d STRC(288)         1 TEMP_LX_NODE

  ****  Auto variables  ****
PL6.E3A0      #001=Z8E8$NEW_CSIB File=Z8E8.:Z8A6TSI                              SAT 08/09/97 11:37 Page:94

  ****  Scalars and arrays  ****
OctLoc.c.b A Datatyp(siz) R M Lvl/name                 OctLoc.c.b A Datatyp(siz) R M Lvl/name

    32-0-0/w PTR         r     1 @CONST$                   47-0-0/w PTR         r     1 @DNT$$
    32-0-0/w PTR         r     1 @ENTRY$                   37-0-0/w PTR         r     1 @FILE$
    32-0-0/w PTR         r     1 @LABEL$                   50-0-0/w PTR         r     1 @N$
    52-0-0/w PTR         r     1 @NAME_SPACE               50-0-0/w PTR         r     1 @NEW_LINK$
    31-0-0/w PTR         r     1 @NODE$                    47-0-0/w PTR         r     1 @OFF
     3-0-0/w PTR         r     1 @PROC$                    31-0-0/w PTR         r     1 @PROC$
    31-0-0/w PTR         r     1 @PROC$                    51-0-0/w PTR         r     1 @TEXT$
    31-0-0/w PTR         r     1 @VALUE$                   35-0-0/w PTR         r     1 @VALUE$
    *0-0-0/w PTR         r     1 CONST$                    17-0-0/w PTR         r     1 CSIB$
    40-0-0/w PTR         r     1 CSIBE$                    33-0-0/w STRC        r     1 CSIB_BITS
    52-0-0/d STRC(288)   r     1 CTYPE                     16-0-0/w PTR         r     1 DNT$$
    *0-0-0/w PTR         r     1 DNT$$                     37-0-0/w PTR         r     1 DNT$$
    15-0-0/w EPTR        r     1 ENTADDR_OF_ENIL$          15-0-0/w PTR         r     1 ENTADDR_OF_NIL$
    15-0-0/w UBIN        r     1 ENTADDR_OF_NIL_UBIN       *0-0-0/w PTR         r     1 ENTRY$
    42-0-0/d STRC(288)   r     1 FAB                       *0-0-0/w PTR         r     1 FILE$
    35-0-0/w PTR         r     1 FILE$                     *0-0-0/w PTR         r     1 LABEL$
    35-0-0/w PTR         r     1 LAST_N$                   43-0-0/w SBIN        r     1 LAST_SPACE
    36-0-0/w PTR         r     1 LAST_TEXT$                34-0-0/w PTR         r     1 LINK$
    37-0-0/w PTR         r     1 LOP$                      22-0-0/w PTR         r     1 N$
    *0-0-0/w PTR         r     1 N$                         4-0-0/w STRC(324)         1 NAME
    25-0-0/w SBIN        r     1 NAME_LENGTH               53-0-0/w SBIN        r     1 NAME_LENGTH
    41-0-0/w SBIN        r     1 NAME_LENGTH               26-0-0/w SBIN        r     1 NAME_SPACE
    *0-0-0/w SBIN        r     1 NAME_SPACE                42-0-0/w SBIN        r     1 NAME_SPACE
    54-0-0/w CHAR(32)    r     1 NAME_TEXT                 *0-0-0/w PTR         r     1 NEW_LINK$
    *0-0-0/w PTR         r     1 NODE$                     24-0-0/w SBIN        r     1 OFF
    44-0-0/w SBIN        r     1 OFF                       *0-0-0/w SBIN        r     1 OFF
    20-0-0/w PTR         r     1 P$                        33-0-0/w PTR         r     1 P$
    33-0-0/w PTR         r     1 P$                        36-0-0/w PTR         r     1 P$
    62-0-0/d STRC(288)   r     1 PLIST                     *0-0-0/w PTR         r     1 PROC$
    *0-0-0/w PTR         r     1 PROC$                     *0-0-0/w PTR         r     1 PROC$
    34-0-0/w PTR         r     1 QLT$$                     21-0-0/w PTR         r     1 ROP$
    40-0-0/w PTR         r     1 ROP$                      41-0-0/w PTR         r     1 RT_ARG_LIST$
    40-0-0/w PTR         r     1 RT_DESC_LIST$             32-0-0/w PTR         r     1 ST$$
PL6.E3A0      #001=Z8E8$NEW_CSIB File=Z8E8.:Z8A6TSI                              SAT 08/09/97 11:37 Page:95
    41-0-0/w PTR         r     1 ST$$                      23-0-0/w PTR         r     1 TEXT$
    *0-0-0/w PTR         r     1 TEXT$                     *0-0-0/w PTR         r     1 VALUE$
    *0-0-0/w PTR         r     1 VALUE$

  ****  SYMREF variables  ****

  ****  Scalars and arrays  ****
OctLoc.c.b A Datatyp(siz) R M Lvl/name                 OctLoc.c.b A Datatyp(siz) R M Lvl/name

     0-0-0/d STRC(13248) r     1 COMCOM
     0-0-0/w STRC(180)         1 HIER_STK(0:50)
     0-0-0/w SBIN              1 HIER_STK_PTR               0-0-0/w UBIN              1 ILL_STEP(0:144)
     0-0-0/w UBIN              1 ILS_STEP_TABLE(0:2)
     0-0-0/w UBIN              1 LTS_STEP(0:37)
     0-0-0/d STRC(11580) r     1 O1COM                      0-0-0/w STRC(144)         1 PAGE_FORMAT
     0-0-0/w STRC(153)         1 REP_STK(0:50)              0-0-0/w SBIN              1 REP_STK_PTR

  ****  BASED and DCB variables  ****

  ****  Scalars and arrays  ****
OctLoc.c.b A Datatyp(siz) R M Lvl/name                 OctLoc.c.b A Datatyp(siz) R M Lvl/name

     0-0-0/w STRC(108)         1 ACCEPT_DISPLAY             0-0-0/w STRC(288)         1 ADD_STMT
     0-0-0/w STRC(396)         1 ALPHABET                   0-0-0/w STRC(144)         1 ALTER_LTS
     0-0-0/w STRC(3672)        1 ALT_KEY                    0-0-0/w STRC(36864)       1 ARGLIST
     0-0-0/w STRC(396)   r     1 ARRAY                      0-0-0/w STRC(180)         1 ARRAY_PRESET_LTS
     0-0-0/w ASTR(324)   r     1 BASED_LEX_SYMBOL
     0-0-0/w STRC(360)         1 BASED_LEX_SYMBOL_WORDS
     0-0-0/w STRC(288)         1 BASE_LTS                   0-0-0/w STRC(108)         1 BINARY_ILL
     0-0-0/w STRC(288)         1 BINARY_OP                  0-0-0/w STRC(396)         1 BLOCK
     0-0-0/w STRC(144)         1 BRANCH_ILL                 0-0-0/w STRC(144)         1 BT
     0-0-0/w STRC(288)         1 CALL_STMT                  0-0-0/w STRC(216)         1 CCOSU
     0-0-0/w STRC(396)         1 CD                         0-0-0/w STRC(288)         1 CD_LTS
     0-0-0/w CHAR(4096)        1 CHARS                      0-0-0/w STRC(396)         1 CLASS
     0-0-0/w STRC(108)         1 CODED_MOVE                 0-0-0/w STRC(288)         1 COMPUTE_STMT
     0-0-0/w STRC(396)         1 CONDITION                  0-0-0/w STRC(396)         1 CONST
     0-0-0/w STRC(72)          1 CONT                       0-0-0/w STRC(540)         1 CONTROL_NAME_LTS
PL6.E3A0      #001=Z8E8$NEW_CSIB File=Z8E8.:Z8A6TSI                              SAT 08/09/97 11:37 Page:96
     0-0-0/w STRC(1872)        1 COPY_FILE                  0-0-0/w STRC(396)         1 DB
     0-0-0/w STRC(396)         1 DCB_                       0-0-0/w STRC(288)         1 DEFERED_IDENTIFIER
     0-0-0/w STRC(252)         1 DEFERED_ID_TREE            0-0-0/w STRC(288)         1 DEFERED_QUAL_ID
     0-0-0/w STRC(288)         1 DEFERED_SUM_CLAUSE
     0-0-0/w STRC(288)         1 DEFERED_SUM_CLAUSE_LIST
     0-0-0/w STRC(144)   r     1 DEFLB                      0-0-0/w STRC(288)         1 DELETE_STMT
     0-0-0/w STRC(108)         1 DEPENDING_SIZE             0-0-0/w STRC(5472)        1 DIMS
     0-0-0/w STRC(288)         1 DIVIDE_STMT                0-0-0/w STRC(396)         1 DML_ITEM
     0-0-0/w STRC(216)         1 DML_REC                    0-0-0/w ASTR(180)   r     1 DNT
     0-0-0/w STRC(144)         1 DOEND                      0-0-0/w STRC(396)         1 DO_N
     0-0-0/w STRC(180)         1 DV4I                       0-0-0/w STRC(180)   r     1 ENTRY_ILL
     0-0-0/w STRC(180)   r     1 ETT                        0-0-0/w STRC(108)         1 EVALU
     0-0-0/w STRC(73836)       1 EVALUATE                   0-0-0/w STRC(396)   r     1 FD
     0-0-0/w STRC(1692)  r     1 FILE_LTS                   0-0-0/w STRC(144)         1 GO
     0-0-0/w STRC(180)         1 ILL                        0-0-0/w STRC              1 ILL_NO_OPS
     0-0-0/w STRC(180)         1 ILS                        0-0-0/w STRC(288)         1 ILS_LIST
     0-0-0/w STRC(108)         1 INDEXES                    0-0-0/w STRC(360)         1 INIT_LTS
     0-0-0/w STRC(288)         1 INSPECT_1_STMT             0-0-0/w STRC(288)         1 INSPECT_2_STMT
     0-0-0/w STRC(288)         1 INSPECT_4_STMT             0-0-0/w STRC(396)         1 INTDEF
     0-0-0/w STRC(180)         1 IO_RESTORE_CHAIN           0-0-0/w STRC(144)         1 KEY
     0-0-0/w STRC(396)   r     1 LABEL                      0-0-0/w STRC(288)         1 LA_ITEM
     0-0-0/w STRC(36864)       1 LCNST                      0-0-0/w STRC(108)         1 LINOI
     0-0-0/w STRC(72)          1 LONG                       0-0-0/w STRC              1 LTS
     0-0-0/w STRC(360)         1 LTSS                       0-0-0/w STRC(36936)       1 LTS_PTR_ARRAY
     0-0-0/w STRC(504)         1 LX_CD_INPUT                0-0-0/w STRC(324)         1 LX_CD_I_O
     0-0-0/w STRC(396)         1 LX_CD_OUTPUT               0-0-0/w STRC(288)   r     1 LX_ETT_ITEM
     0-0-0/w STRC(288)   r     1 LX_ITEM                    0-0-0/w STRC(288)         1 LX_LARGE
     0-0-0/w STRC(288)   r     1 LX_LIST                    0-0-0/w STRC(1224)        1 LX_REC_DECL
     0-0-0/w STRC(864)         1 LX_REPORT_REC              0-0-0/w STRC(288)         1 LX_TERMINAL
     0-0-0/w STRC(72)    r     1 MFILL                      0-0-0/w STRC(396)         1 MNEMONIC
     0-0-0/w STRC(288)         1 MULTIPLY_STMT              0-0-0/w STRC(180)         1 MULTI_GO
     0-0-0/w STRC(180)         1 MVEAL                      0-0-0/w STRC(108)         1 MVFIL
     0-0-0/w STRC(72)          1 MVIIS                      0-0-0/w STRC(144)         1 NEL
     0-0-0/w STRC(216)         1 OPEN_LTS                   0-0-0/w STRC(144)         1 OPN
     0-0-0/w STRC(180)   r     1 OS_CALL                    0-0-0/w STRC(36864)       1 PAGE
     0-0-0/w STRC(396)         1 PARA                       0-0-0/w STRC(216)         1 PFORM
     0-0-0/w STRC(144)         1 PINC                       0-0-0/w STRC(144)   r     1 PREOFF
PL6.E3A0      #001=Z8E8$NEW_CSIB File=Z8E8.:Z8A6TSI                              SAT 08/09/97 11:37 Page:97
     0-0-0/w STRC(108)   r     1 PRESET                     0-0-0/w STRC(144)         1 PRIME
     0-0-0/w STRC(396)   r     1 PROC_                      0-0-0/w STRC(396)         1 PROC_DEF
     0-0-0/w STRC(900)   r     1 PROC_SUPP                  0-0-0/w STRC(144)         1 P_A_PRESET
     0-0-0/w STRC(144)         1 P_P_PRESET                 0-0-0/w STRC(216)   r     1 QLT
     0-0-0/w STRC(396)         1 RD                         0-0-0/w STRC(288)         1 READ_STMT
     0-0-0/w STRC(216)         1 REF                        0-0-0/w STRC(144)         1 REMEM
     0-0-0/w STRC(108)         1 RENAMES                    0-0-0/w STRC(720)         1 REPORT_01_LTS
     0-0-0/w STRC(432)         1 REPORT_ELEM_LTS            0-0-0/w STRC(252)         1 REPORT_GRP_LTS
     0-0-0/w STRC(1332)        1 REPORT_LTS                 0-0-0/w STRC(288)         1 REWRITE_STMT
     0-0-0/w STRC(144)         1 RVA_LTS                    0-0-0/w STRC(396)   r     1 SCALAR
     0-0-0/w STRC(144)         1 SCOPE                      0-0-0/w STRC(396)         1 SD
     0-0-0/w STRC(216)         1 SEARCH_                    0-0-0/w STRC(396)         1 SECTION
     0-0-0/w STRC(396)         1 SEGMENT                    0-0-0/w STRC(360)         1 SEGMENT_LTS
     0-0-0/w STRC(396)   r     1 ST                         0-0-0/w STRC(288)         1 START_STMT
     0-0-0/w STRC(72)          1 STP2                       0-0-0/w STRC(252)         1 STRING_STMT
     0-0-0/w STRC(288)         1 SUBTRACT_STMT              0-0-0/w STRC(252)         1 SUM_LTS
     0-0-0/w STRC(396)         1 SWITCH                     0-0-0/w STRC(396)         1 SYMBOLIC_CHAR
     0-0-0/w STRC(396)   r     1 SYMDEF_                    0-0-0/w STRC(396)         1 SYMREF_
     0-0-0/w STRC(396)         1 TEMP                       0-0-0/w STRC(144)         1 TRINARY_ILL
     0-0-0/w STRC(72)          1 UNARY_ILL                  0-0-0/w STRC(288)         1 UNARY_OP
     0-0-0/w STRC(288)         1 UNSTRING_STMT              0-0-0/d STRC(612)         1 USE
     0-0-0/w STRC(216)         1 USER_CALL                  0-0-0/w STRC(252)         1 USE_SUPP
     0-0-0/w STRC(108)         1 VAL                        0-0-0/w STRC(108)         1 VAL_END
     0-0-0/w STRC(396)   r     1 VARIABLE                   0-0-0/w STRC(72)          1 WHEN
     0-0-0/w STRC(288)         1 WRITE_STMT


   Procedure Z8E8$NEW_CSIB requires 1079 words for executable code.
   Procedure Z8E8$NEW_CSIB requires 66 words of local(AUTO) storage.

PL6.E3A0      #002=Z8E8$CSIB File=Z8E8.:Z8A6TSI                                  SAT 08/09/97 11:40 Page:98
      621        1        /*T***********************************************************/
      622        2        /*T*                                                         */
      623        3        /*T* Copyright (c) Bull HN Information Systems Inc., 1997    */
      624        4        /*T*                                                         */
      625        5        /*T***********************************************************/
      626        6        /*---------*/
      627        7          Z8E8$CSIB : PROC ;
      628        8        /*---------*/
      629        9
      630       10         /*P*
      631       11               NAME : Z8E8$CSIB
      632       12               PURPOSE : To walk the outermost programs(Consectutive) calling
      633       13                 Z8E8$NEW_CSIB to create the CSIB's for each group of programs.
      634       14         */
      635       15
      636       16
      637       17             %EQU PHASE = 1;
      638       18
      639       19             %INCLUDE Z8A_DEFC;
      640       87             %INCLUDE Z8A_SUPP_MAC;
      641     2487             %INCLUDE Z8A_COMCOM;
      642     3137             %INCLUDE Z8A_ST;
      643     6796             %INCLUDE Z8A_DNT;
      644     7017             %INCLUDE Z8A_ILL;
      645     7710
      646     7711             %INCLUDE Z8E_STACKS;
      647     9977             %INCLUDE Z8E_O1COM;
      648    10738             %INCLUDE Z8E_MACROS;
      649    11413
      650    11414    1        DCL P$            PTR;
      651    11415
      652    11416    1        DCL Z8E8$NEW_CSIB ENTRY (1);
      653    11417
      654    11418
      655    11419             /*
      656    11420               The purpose of this routine is to walk the proc chain
      657    11421               at the brother level and create the CSIB chain for the
PL6.E3A0      #002=Z8E8$CSIB File=Z8E8.:Z8A6TSI                                  SAT 08/09/97 11:40 Page:99
      658    11422               runtime.
      659    11423               The CSIB looks like this:
      660    11424
      661    11425                   dcl 1 csib                aligned,
      662    11426                         2 name_length       sbin,
      663    11427                         2 name_text         char (csib.name_length),
      664    11428                         2 brother$          ptr,
      665    11429                         2 son$              ptr,
      666    11430                         2 father$           ptr,
      667    11431                         2 init_proc$        eptr,
      668    11432                         2 flags             ubin,
      669    11433                         2 b                 redef flags,
      670    11434                           3 {bits}          (0:35) boolean;
      671    11435
      672    11436               This structure is recreated via scalar/qual items, and
      673    11437               preset to represent the internal and external procedure
      674    11438               skeleton.
      675    11439               The brothers are walked at this level to avoid connecting
      676    11440               the consecutive externally visible procedures in the CSIB.
      677    11441
      678    11442             */
      679    11443
      680    11444
      681    11445             %NEW_ILL (@ID    = %SCOPE,
      682    11446                       @CODE  = %INIT_SCOPE,
      683    11447                       @PROC$ = "ADDR(NIL)");
      684    11826
      685    11827    1        P$ = COMCOM.FIRST_PROC$;
      686    11828    1        O1COM.CURRENT_PROC$ = P$;
      687    11829
      688    11830    2        DO WHILE (P$ ~= ADDR(NIL));
      689    11831
      690    11832    2          CALL Z8E8$NEW_CSIB (P$);
      691    11833
      692    11834    2          P$ = P$ -> PROC_.BROTHER;
      693    11835
      694    11836    2        END; /* While */
PL6.E3A0      #002=Z8E8$CSIB File=Z8E8.:Z8A6TSI                                  SAT 08/09/97 11:40 Page:100
      695    11837
      696    11838    1        O1COM.CURRENT_PROC$ = ADDR(NIL);
      697    11839
      698    11840    1   END Z8E8$CSIB;
      699    11841        %EOD;

PL6.E3A0      #002=Z8E8$CSIB File=Z8E8.:Z8A6TSI                                  SAT 08/09/97 11:40 Page:101
--  Include file information  --

   Z8E_NEW_ILL.:Z8A6TOU  is referenced.
   Z8E_MACROS.:Z8A6TOU  cannot be made into a system file and is referenced.
   Z8E_O1COM.:Z8A6TOU  cannot be made into a system file and is referenced.
   Z8A_LEX_SYMB.:Z8A6TOU  cannot be made into a system file and is referenced.
   Z8E_STACKS.:Z8A6TOU  cannot be made into a system file and is referenced.
   Z8A_ILL.:Z8A6TOU  cannot be made into a system file and is referenced.
   Z8A_DNT.:Z8A6TOU  cannot be made into a system file and is referenced.
   Z8A_ST.:Z8A6TOU  cannot be made into a system file and is referenced.
   Z8A_COMCOM.:Z8A6TOU  cannot be made into a system file and is referenced.
   X8A_COM_MACS.:X8A6TOU  is referenced.
   Z8A_NAMES.:Z8A6TOU  is referenced.
   Z8A_SUPP_MAC.:Z8A6TOU  is referenced.
   Z8A_DEFC.:Z8A6TOU  cannot be made into a system file and is referenced.
      No diagnostics issued in procedure Z8E8$CSIB.

   Procedure Z8E8$CSIB requires 42 words for executable code.
   Procedure Z8E8$CSIB requires 10 words of local(AUTO) storage.

PL6.E3A0      #002=Z8E8$CSIB File=Z8E8.:Z8A6TSI                                  SAT 08/09/97 11:40 Page:102

 Object Unit name= Z8E8$CSIB                                  File name= Z8E8.:Z8A6TOU
 UTS= AUG 09 '97 11:40:58.24 SAT                              Compiler= PL-6/E31         Sev=      00
 SharedLib= :SHARED_SYSTEM                                    Alt SharedLib=


    ****  Control sections  ****

 Sect   Type Bound  Init  Size OctSiz  Section name(segment info)
    0  LblCom even  none     1      1  ITERATION
    1  LblCom even  none     1      1  ST$
    2  LblCom even  none     5      5  ST_
    3  LblCom even  none     1      1  DNT$
    4  LblCom even  none     5      5  DNT_
    5  LblCom even  none     1      1  DNT_BUCKET_NUMBER
    6  LblCom even  none     1      1  DNT_OF_1$
    7  LblCom even  none     1      1  ILL$
    8  LblCom even  none     5      5  ILL_
    9  LblCom even  none    90    132  LEX_SYMBOL
   10  LblCom even  none     1      1  CURRENT_LEX_SYMBOL$
   11  LblCom even  none    90    132  TEMP_LEX_SYMBOL
   12  LblCom even  none    90    132  TEMP_LEX_SYMBOL2
   13   Proc  even  none    42     52  Z8E8$CSIB
   14  RoData even  none    10     12  Z8E8$CSIB

    ****  Entry defs  ****

                              Check   Calling
                             calling  sequence
  Sect OctLoc Primary Altret sequence   type   Parms  Name
    13      0   yes            yes      Std        0  Z8E8$CSIB
PL6.E3A0      #002=Z8E8$CSIB File=Z8E8.:Z8A6TSI                                  SAT 08/09/97 11:40 Page:103

  ****  Entry refs  ****

         Check        Calling
        calling       sequence
Altret sequence SRef   type   Args  Name
         yes           Std       4 Z8AN$NEW_ILL
         yes           Std       1 Z8E8$NEW_CSIB
                       nStd      0 X66_AUTO_0
                       nStd      0 X66_ARET

  ****  Data refs  ****

  Flags:  r = read only, s = secondary
Flgs Name                             Flgs Name                             Flgs Name
     COMCOM                           r    ILL_STEP                              O1COM
     HIER_STK_PTR                          HIER_STK                              PAGE_FORMAT
     REP_STK_PTR                           REP_STK

  ****  Segment refs  ****

  Flags:  r = read only, s = secondary
Flgs Name                             Flgs Name                             Flgs Name
     NULLSID                               ISSID
PL6.E3A0      #002=Z8E8$CSIB File=Z8E8.:Z8A6TSI                                  SAT 08/09/97 11:40 Page:104


      621        1        /*T***********************************************************/
      622        2        /*T*                                                         */
      623        3        /*T* Copyright (c) Bull HN Information Systems Inc., 1997    */
      624        4        /*T*                                                         */
      625        5        /*T***********************************************************/
      626        6        /*---------*/
      627        7          Z8E8$CSIB : PROC ;

      7 13 000000   000000 700200 xent  Z8E8$CSIB    TSX0  ! X66_AUTO_0
        13 000001   000012 000000                    ZERO    10,0

      628        8        /*---------*/
      629        9
      630       10         /*P*
      631       11               NAME : Z8E8$CSIB
      632       12               PURPOSE : To walk the outermost programs(Consectutive) calling
      633       13                 Z8E8$NEW_CSIB to create the CSIB's for each group of programs.
      634       14         */
      635       15
      636       16
      637       17             %EQU PHASE = 1;
      638       18
      639       19             %INCLUDE Z8A_DEFC;
      640       87             %INCLUDE Z8A_SUPP_MAC;
      641     2487             %INCLUDE Z8A_COMCOM;
      642     3137             %INCLUDE Z8A_ST;
      643     6796             %INCLUDE Z8A_DNT;
      644     7017             %INCLUDE Z8A_ILL;
      645     7710
      646     7711             %INCLUDE Z8E_STACKS;
      647     9977             %INCLUDE Z8E_O1COM;
      648    10738             %INCLUDE Z8E_MACROS;
      649    11413
      650    11414    1        DCL P$            PTR;
      651    11415
      652    11416    1        DCL Z8E8$NEW_CSIB ENTRY (1);
PL6.E3A0      #002=Z8E8$CSIB File=Z8E8.:Z8A6TSI                                  SAT 08/09/97 11:40 Page:105
      653    11417
      654    11418
      655    11419             /*
      656    11420               The purpose of this routine is to walk the proc chain
      657    11421               at the brother level and create the CSIB chain for the
      658    11422               runtime.
      659    11423               The CSIB looks like this:
      660    11424
      661    11425                   dcl 1 csib                aligned,
      662    11426                         2 name_length       sbin,
      663    11427                         2 name_text         char (csib.name_length),
      664    11428                         2 brother$          ptr,
      665    11429                         2 son$              ptr,
      666    11430                         2 father$           ptr,
      667    11431                         2 init_proc$        eptr,
      668    11432                         2 flags             ubin,
      669    11433                         2 b                 redef flags,
      670    11434                           3 {bits}          (0:35) boolean;
      671    11435
      672    11436               This structure is recreated via scalar/qual items, and
      673    11437               preset to represent the internal and external procedure
      674    11438               skeleton.
      675    11439               The brothers are walked at this level to avoid connecting
      676    11440               the consecutive externally visible procedures in the CSIB.
      677    11441
      678    11442             */
      679    11443
      680    11444
      681    11445             %NEW_ILL (@ID    = %SCOPE,
      682    11446                       @CODE  = %INIT_SCOPE,
      683    11447                       @PROC$ = "ADDR(NIL)");

  11482 13 000002   000003 236000 14                 LDQ     3
        13 000003   200004 756100                    STQ     P$+1,,AUTO
        13 000004   200004 630500                    EPPR0   P$+1,,AUTO
        13 000005   200011 450500                    STP0    P$+6,,AUTO
        13 000006   000004 236000 14                 LDQ     4
PL6.E3A0      #002=Z8E8$CSIB File=Z8E8.:Z8A6TSI                                  SAT 08/09/97 11:40 Page:106
        13 000007   200010 756100                    STQ     P$+5,,AUTO
        13 000010   000006 237000 14                 LDAQ    6
        13 000011   200006 757100                    STAQ    P$+3,,AUTO
        13 000012   200006 630500                    EPPR0   P$+3,,AUTO
        13 000013   000000 631400 14                 EPPR1   0
        13 000014   000000 701000 xent               TSX1    Z8AN$NEW_ILL
        13 000015   000000 011000                    NOP     0

  11486 13 000016   000002 220003                    LDX0    2,DU
        13 000017   000000 470400 7                  LDP0    ILL$
        13 000020   000000 440100                    SXL0    0,,PR0

  11491 13 000021   000010 236000 14                 LDQ     8
        13 000022   000000 470400 7                  LDP0    ILL$
        13 000023   000001 756100                    STQ     1,,PR0

  11493 13 000024   000010 236000 14                 LDQ     8
        13 000025   000003 756100                    STQ     3,,PR0

  11494 13 000026   000010 236000 14                 LDQ     8
        13 000027   000002 756100                    STQ     2,,PR0

      684    11826
      685    11827    1        P$ = COMCOM.FIRST_PROC$;

  11827 13 000030   000136 236000 xsym               LDQ     COMCOM+94
        13 000031   200003 756100                    STQ     P$,,AUTO

      686    11828    1        O1COM.CURRENT_PROC$ = P$;

  11828 13 000032   000057 756000 xsym               STQ     O1COM+47

      687    11829
      688    11830    2        DO WHILE (P$ ~= ADDR(NIL));

  11830 13 000033   000045 710000 13                 TRA     s:11836

PL6.E3A0      #002=Z8E8$CSIB File=Z8E8.:Z8A6TSI                                  SAT 08/09/97 11:40 Page:107
      689    11831
      690    11832    2          CALL Z8E8$NEW_CSIB (P$);

  11832 13 000034   200003 630500                    EPPR0   P$,,AUTO
        13 000035   200004 450500                    STP0    P$+1,,AUTO
        13 000036   200004 630500                    EPPR0   P$+1,,AUTO
        13 000037   000011 631400 14                 EPPR1   9
        13 000040   000000 701000 xent               TSX1    Z8E8$NEW_CSIB
        13 000041   000000 011000                    NOP     0

      691    11833
      692    11834    2          P$ = P$ -> PROC_.BROTHER;

  11834 13 000042   200003 470500                    LDP0    P$,,AUTO
        13 000043   000010 236100                    LDQ     8,,PR0
        13 000044   200003 756100                    STQ     P$,,AUTO

      693    11835
      694    11836    2        END; /* While */

  11836 13 000045   000010 116000 14                 CMPQ    8
        13 000046   000034 601000 13                 TNZ     s:11832

      695    11837
      696    11838    1        O1COM.CURRENT_PROC$ = ADDR(NIL);

  11838 13 000047   000010 236000 14                 LDQ     8
        13 000050   000057 756000 xsym               STQ     O1COM+47

      697    11839
      698    11840    1   END Z8E8$CSIB;

  11840 13 000051   000000 702200 xent               TSX2  ! X66_ARET
      699    11841        %EOD;

PL6.E3A0      #002=Z8E8$CSIB File=Z8E8.:Z8A6TSI                                  SAT 08/09/97 11:40 Page:108
--  Include file information  --

   Z8E_NEW_ILL.:Z8A6TOU  is referenced.
   Z8E_MACROS.:Z8A6TOU  cannot be made into a system file and is referenced.
   Z8E_O1COM.:Z8A6TOU  cannot be made into a system file and is referenced.
   Z8A_LEX_SYMB.:Z8A6TOU  cannot be made into a system file and is referenced.
   Z8E_STACKS.:Z8A6TOU  cannot be made into a system file and is referenced.
   Z8A_ILL.:Z8A6TOU  cannot be made into a system file and is referenced.
   Z8A_DNT.:Z8A6TOU  cannot be made into a system file and is referenced.
   Z8A_ST.:Z8A6TOU  cannot be made into a system file and is referenced.
   Z8A_COMCOM.:Z8A6TOU  cannot be made into a system file and is referenced.
   X8A_COM_MACS.:X8A6TOU  is referenced.
   Z8A_NAMES.:Z8A6TOU  is referenced.
   Z8A_SUPP_MAC.:Z8A6TOU  is referenced.
   Z8A_DEFC.:Z8A6TOU  cannot be made into a system file and is referenced.
      No diagnostics issued in procedure Z8E8$CSIB.
PL6.E3A0      #002=Z8E8$CSIB File=Z8E8.:Z8A6TSI                                  SAT 08/09/97 11:40 Page:109

 **** Variables and constants ****

  ****  Section 000 LblCom ITERATION

  ****  Scalars and arrays  ****
OctLoc.c.b A Datatyp(siz) R M Lvl/name                 OctLoc.c.b A Datatyp(siz) R M Lvl/name

     0-0-0/w SBIN              1 ITERATION

  ****  Section 001 LblCom ST$

  ****  Scalars and arrays  ****
OctLoc.c.b A Datatyp(siz) R M Lvl/name                 OctLoc.c.b A Datatyp(siz) R M Lvl/name

     0-0-0/w PTR         r     1 ST$

  ****  Section 002 LblCom ST_

  ****  Scalars and arrays  ****
OctLoc.c.b A Datatyp(siz) R M Lvl/name                 OctLoc.c.b A Datatyp(siz) R M Lvl/name

     0-0-0/w STRC(180)         1 ST_

  ****  Section 003 LblCom DNT$

  ****  Scalars and arrays  ****
OctLoc.c.b A Datatyp(siz) R M Lvl/name                 OctLoc.c.b A Datatyp(siz) R M Lvl/name

     0-0-0/w PTR         r     1 DNT$

  ****  Section 004 LblCom DNT_

  ****  Scalars and arrays  ****
OctLoc.c.b A Datatyp(siz) R M Lvl/name                 OctLoc.c.b A Datatyp(siz) R M Lvl/name

     0-0-0/w STRC(180)         1 DNT_

PL6.E3A0      #002=Z8E8$CSIB File=Z8E8.:Z8A6TSI                                  SAT 08/09/97 11:40 Page:110
  ****  Section 005 LblCom DNT_BUCKET_NUMBER

  ****  Scalars and arrays  ****
OctLoc.c.b A Datatyp(siz) R M Lvl/name                 OctLoc.c.b A Datatyp(siz) R M Lvl/name

     0-0-0/w UBIN              1 DNT_BUCKET_NUMBER

  ****  Section 006 LblCom DNT_OF_1$

  ****  Scalars and arrays  ****
OctLoc.c.b A Datatyp(siz) R M Lvl/name                 OctLoc.c.b A Datatyp(siz) R M Lvl/name

     0-0-0/w PTR               1 DNT_OF_1$

  ****  Section 007 LblCom ILL$

  ****  Scalars and arrays  ****
OctLoc.c.b A Datatyp(siz) R M Lvl/name                 OctLoc.c.b A Datatyp(siz) R M Lvl/name

     0-0-0/w PTR         r     1 ILL$

  ****  Section 008 LblCom ILL_

  ****  Scalars and arrays  ****
OctLoc.c.b A Datatyp(siz) R M Lvl/name                 OctLoc.c.b A Datatyp(siz) R M Lvl/name

     0-0-0/w STRC(180)         1 ILL_

  ****  Section 009 LblCom LEX_SYMBOL

  ****  Scalars and arrays  ****
OctLoc.c.b A Datatyp(siz) R M Lvl/name                 OctLoc.c.b A Datatyp(siz) R M Lvl/name

     0-0-0/w STRC(3240)  r     1 LEX_SYMBOL                 0-0-0/w STRC(3240)        1 LEX_SYMBOL_WORDS

  ****  Section 010 LblCom CURRENT_LEX_SYMBOL$

PL6.E3A0      #002=Z8E8$CSIB File=Z8E8.:Z8A6TSI                                  SAT 08/09/97 11:40 Page:111
  ****  Scalars and arrays  ****
OctLoc.c.b A Datatyp(siz) R M Lvl/name                 OctLoc.c.b A Datatyp(siz) R M Lvl/name

     0-0-0/w PTR         r     1 CURRENT_LEX_SYMBOL$

  ****  Section 011 LblCom TEMP_LEX_SYMBOL

  ****  Scalars and arrays  ****
OctLoc.c.b A Datatyp(siz) R M Lvl/name                 OctLoc.c.b A Datatyp(siz) R M Lvl/name

     0-0-0/w STRC(3240)        1 TEMP_LEX_SYMBOL

  ****  Section 012 LblCom TEMP_LEX_SYMBOL2

  ****  Scalars and arrays  ****
OctLoc.c.b A Datatyp(siz) R M Lvl/name                 OctLoc.c.b A Datatyp(siz) R M Lvl/name

     0-0-0/w STRC(3240)        1 TEMP_LEX_SYMBOL2

  ****  Auto variables  ****

  ****  Scalars and arrays  ****
OctLoc.c.b A Datatyp(siz) R M Lvl/name                 OctLoc.c.b A Datatyp(siz) R M Lvl/name

     3-0-0/w PTR         r     1 P$

  ****  SYMREF variables  ****

  ****  Scalars and arrays  ****
OctLoc.c.b A Datatyp(siz) R M Lvl/name                 OctLoc.c.b A Datatyp(siz) R M Lvl/name

     0-0-0/d STRC(13248) r     1 COMCOM
     0-0-0/w STRC(180)         1 HIER_STK(0:50)
     0-0-0/w SBIN              1 HIER_STK_PTR               0-0-0/w UBIN              1 ILL_STEP(0:144)
     0-0-0/d STRC(11580) r     1 O1COM                      0-0-0/w STRC(144)         1 PAGE_FORMAT
     0-0-0/w STRC(153)         1 REP_STK(0:50)              0-0-0/w SBIN              1 REP_STK_PTR

PL6.E3A0      #002=Z8E8$CSIB File=Z8E8.:Z8A6TSI                                  SAT 08/09/97 11:40 Page:112
  ****  BASED and DCB variables  ****

  ****  Scalars and arrays  ****
OctLoc.c.b A Datatyp(siz) R M Lvl/name                 OctLoc.c.b A Datatyp(siz) R M Lvl/name

     0-0-0/w STRC(108)         1 ACCEPT_DISPLAY             0-0-0/w STRC(288)         1 ADD_STMT
     0-0-0/w STRC(396)         1 ALPHABET                   0-0-0/w STRC(396)         1 ARRAY
     0-0-0/w ASTR(324)   r     1 BASED_LEX_SYMBOL
     0-0-0/w STRC(360)         1 BASED_LEX_SYMBOL_WORDS
     0-0-0/w STRC(108)         1 BINARY_ILL                 0-0-0/w STRC(288)         1 BINARY_OP
     0-0-0/w STRC(396)         1 BLOCK                      0-0-0/w STRC(144)         1 BRANCH_ILL
     0-0-0/w STRC(288)         1 CALL_STMT                  0-0-0/w STRC(216)         1 CCOSU
     0-0-0/w STRC(396)         1 CD                         0-0-0/w CHAR(4096)        1 CHARS
     0-0-0/w STRC(396)         1 CLASS                      0-0-0/w STRC(108)         1 CODED_MOVE
     0-0-0/w STRC(288)         1 COMPUTE_STMT               0-0-0/w STRC(396)         1 CONDITION
     0-0-0/w STRC(396)         1 CONST                      0-0-0/w STRC(72)          1 CONT
     0-0-0/w STRC(396)         1 DB                         0-0-0/w STRC(396)         1 DCB_
     0-0-0/w STRC(288)         1 DEFERED_IDENTIFIER         0-0-0/w STRC(252)         1 DEFERED_ID_TREE
     0-0-0/w STRC(288)         1 DEFERED_QUAL_ID            0-0-0/w STRC(288)         1 DEFERED_SUM_CLAUSE
     0-0-0/w STRC(288)         1 DEFERED_SUM_CLAUSE_LIST
     0-0-0/w STRC(144)         1 DEFLB                      0-0-0/w STRC(288)         1 DELETE_STMT
     0-0-0/w STRC(288)         1 DIVIDE_STMT                0-0-0/w STRC(396)         1 DML_ITEM
     0-0-0/w ASTR(180)   r     1 DNT                        0-0-0/w STRC(144)         1 DOEND
     0-0-0/w STRC(396)         1 DO_N                       0-0-0/w STRC(180)         1 DV4I
     0-0-0/w STRC(180)         1 ENTRY_ILL                  0-0-0/w STRC(108)         1 EVALU
     0-0-0/w STRC(396)         1 FD                         0-0-0/w STRC(144)         1 GO
     0-0-0/w STRC(180)         1 ILL                        0-0-0/w STRC              1 ILL_NO_OPS
     0-0-0/w STRC(288)         1 ILS_LIST                   0-0-0/w STRC(288)         1 INSPECT_1_STMT
     0-0-0/w STRC(288)         1 INSPECT_2_STMT             0-0-0/w STRC(288)         1 INSPECT_4_STMT
     0-0-0/w STRC(396)         1 INTDEF                     0-0-0/w STRC(396)         1 LABEL
     0-0-0/w STRC(288)         1 LA_ITEM                    0-0-0/w STRC(108)         1 LINOI
     0-0-0/w STRC(504)         1 LX_CD_INPUT                0-0-0/w STRC(324)         1 LX_CD_I_O
     0-0-0/w STRC(396)         1 LX_CD_OUTPUT               0-0-0/w STRC(288)         1 LX_ETT_ITEM
     0-0-0/w STRC(288)         1 LX_ITEM                    0-0-0/w STRC(288)         1 LX_LARGE
     0-0-0/w STRC(288)         1 LX_LIST                    0-0-0/w STRC(1224)        1 LX_REC_DECL
     0-0-0/w STRC(864)         1 LX_REPORT_REC              0-0-0/w STRC(288)         1 LX_TERMINAL
     0-0-0/w STRC(72)          1 MFILL                      0-0-0/w STRC(396)         1 MNEMONIC
PL6.E3A0      #002=Z8E8$CSIB File=Z8E8.:Z8A6TSI                                  SAT 08/09/97 11:40 Page:113
     0-0-0/w STRC(288)         1 MULTIPLY_STMT              0-0-0/w STRC(180)         1 MULTI_GO
     0-0-0/w STRC(180)         1 MVEAL                      0-0-0/w STRC(108)         1 MVFIL
     0-0-0/w STRC(72)          1 MVIIS                      0-0-0/w STRC(180)         1 OS_CALL
     0-0-0/w STRC(36864)       1 PAGE                       0-0-0/w STRC(396)         1 PARA
     0-0-0/w STRC(216)         1 PFORM                      0-0-0/w STRC(144)         1 PINC
     0-0-0/w STRC(144)         1 PREOFF                     0-0-0/w STRC(108)         1 PRESET
     0-0-0/w STRC(396)   r     1 PROC_                      0-0-0/w STRC(396)         1 PROC_DEF
     0-0-0/w STRC(144)         1 P_A_PRESET                 0-0-0/w STRC(144)         1 P_P_PRESET
     0-0-0/w STRC(396)         1 RD                         0-0-0/w STRC(288)         1 READ_STMT
     0-0-0/w STRC(144)         1 REMEM                      0-0-0/w STRC(288)         1 REWRITE_STMT
     0-0-0/w STRC(396)         1 SCALAR                     0-0-0/w STRC(144)   r     1 SCOPE
     0-0-0/w STRC(396)         1 SD                         0-0-0/w STRC(216)         1 SEARCH_
     0-0-0/w STRC(396)         1 SECTION                    0-0-0/w STRC(396)         1 SEGMENT
     0-0-0/w STRC(396)         1 ST                         0-0-0/w STRC(288)         1 START_STMT
     0-0-0/w STRC(72)          1 STP2                       0-0-0/w STRC(252)         1 STRING_STMT
     0-0-0/w STRC(288)         1 SUBTRACT_STMT              0-0-0/w STRC(396)         1 SWITCH
     0-0-0/w STRC(396)         1 SYMBOLIC_CHAR              0-0-0/w STRC(396)         1 SYMDEF_
     0-0-0/w STRC(396)         1 SYMREF_                    0-0-0/w STRC(396)         1 TEMP
     0-0-0/w STRC(144)         1 TRINARY_ILL                0-0-0/w STRC(72)          1 UNARY_ILL
     0-0-0/w STRC(288)         1 UNARY_OP                   0-0-0/w STRC(288)         1 UNSTRING_STMT
     0-0-0/w STRC(216)         1 USER_CALL                  0-0-0/w STRC(108)         1 VAL
     0-0-0/w STRC(108)         1 VAL_END                    0-0-0/w STRC(396)         1 VARIABLE
     0-0-0/w STRC(72)          1 WHEN                       0-0-0/w STRC(288)         1 WRITE_STMT


   Procedure Z8E8$CSIB requires 42 words for executable code.
   Procedure Z8E8$CSIB requires 10 words of local(AUTO) storage.

PL6.E3A0      #003=Z8E8$INIT_ARRAY File=Z8E8.:Z8A6TSI                            SAT 08/09/97 11:42 Page:114
      700        1        /*T***********************************************************/
      701        2        /*T*                                                         */
      702        3        /*T* Copyright (c) Bull HN Information Systems Inc., 1997    */
      703        4        /*T*                                                         */
      704        5        /*T***********************************************************/
      705        6         /*===============*/
      706        7           Z8E8$INIT_ARRAY: PROC (ARRAY$, CONST$);
      707        8         /*===============*/
      708        9
      709       10        %EQU PHASE = 1;
      710       11
      711       12        %INCLUDE Z8A_DEFC;
      712       80        %INCLUDE Z8A_SUPP_MAC;
      713     2480        %INCLUDE Z8E_STACKS;
      714     4746        %INCLUDE Z8E_ABSSYN;
      715     4952        %INCLUDE Z8A_COMCOM;
      716     5602        %INCLUDE Z8E_O1COM;
      717     6363        %INCLUDE Z8E_ILS_LIST;
      718     6447        %INCLUDE Z8A_ST;
      719    10106        %INCLUDE Z8A_QLT;
      720    10212        %INCLUDE Z8A_TYPES;
      721    10386        %INCLUDE Z8A_ETT;
      722    10687        %INCLUDE Z8A_ILL;
      723    11380        %INCLUDE Z8A_ILS;
      724    11489        %INCLUDE Z8A_LTS;
      725    13566        %INCLUDE Z8E_HEAP;
      726    13622        %INCLUDE Z8E_MACROS;
      727    14297
      728    14298
      729    14299
      730    14300    1   DCL ARRAY$         PTR;
      731    14301    1   DCL CONST$         PTR;
      732    14302    1   DCL INIT_ST$       PTR;
      733    14303    1   DCL DIMS$          PTR;
      734    14304    1   DCL DIM_NUM        UBIN WORD;
      735    14305    1   DCL QLT$$          PTR;
      736    14306
PL6.E3A0      #003=Z8E8$INIT_ARRAY File=Z8E8.:Z8A6TSI                            SAT 08/09/97 11:42 Page:115
      737    14307        %DCL_AUTO_LX_ITEM (@NAME = LOOP_END);
      738    14311        %DCL_AUTO_LX_ITEM (@NAME = END_VALUE);
      739    14315        %DCL_AUTO_LX_ITEM (@NAME = VALUE_ONE);
      740    14319        %DCL_AUTO_LX_ITEM (@NAME = SAVED_ILS_LIST);
      741    14323        %DCL_AUTO_LX_ITEM (@NAME = DIMS_INDEX_LIST);
      742    14327
      743    14328    1   DCL Z8EY$SUBSCRIPT             ENTRY(2);
      744    14329    1   DCL Z8E7$MOVE                  ENTRY(2);
      745    14330    1   DCL Z8ED$DISPOSE_ABSSYN_TREE   ENTRY(1);
      746    14331    1   DCL Z8EU$NEW_TEMP_FROM_DESC    ENTRY(2);
      747    14332    1   DCL Z8AC$LX_ETT_ITEM_TYI_CONST ENTRY(2);
      748    14333    1   DCL Z8AF$FORME           ENTRY (4);
      749    14334    1   DCL Z8EQ$MERGE_ITERATED_DO_UNTIL ENTRY(4);
      750    14335    1   DCL Z8E8$ASSIGN_ARRAY_PRESET    ENTRY(1);
      751    14336        %EJECT
      752    14337
      753    14338         /*---------------*/
      754    14339    1      CREATE_INDICIES: PROC;
      755    14340         /*---------------*/
      756    14341
      757    14342    2   DCL 1 TYPE_DESC    ALIGNED,
      758    14343               %TYPE_DESC;
      759    14377    2   DCL T$             PTR;
      760    14378
      761    14379
      762    14380               %GET_LTS (@ID   = %DIMS,
      763    14381                         @ST$  = INIT_ST$,
      764    14382                         @RETURN$ = DIMS$);
      765    14425
      766    14426    2          DIM_NUM = (DIMS$ -> DIMS.N - %MIN_DIM_SIZE)/%NO_WORDS_PER_DIM;
      767    14427
      768    14428    3          DO WHILE (ADDR(DIMS_INDEX_LIST) -> LX_LIST.COUNT < DIM_NUM);
      769    14429
      770    14430                 %NEW (@TEMPLATE = LX_ETT_ITEM,
      771    14431                       @POINTER  = T$);
      772    14441
      773    14442    3            TYPE_DESC.TYPE = %TYI;
PL6.E3A0      #003=Z8E8$INIT_ARRAY File=Z8E8.:Z8A6TSI                            SAT 08/09/97 11:42 Page:116
      774    14443    3            TYPE_DESC.SIZ$ = ADDR(NIL);
      775    14444
      776    14445                 %BUILD_BINARY_DESC (@DESC   = TYPE_DESC.DESC,
      777    14446                                     @LENGTH = %TYI_LENGTH);
      778    14454
      779    14455    3            CALL Z8EU$NEW_TEMP_FROM_DESC (TYPE_DESC,
      780    14456    3                                          T$);
      781    14457
      782    14458                 %ADD_LX_ITEM_TO_LIST_TAIL (@FROM$ = T$,
      783    14459                                            @LIST$ = "ADDR(DIMS_INDEX_LIST)");
      784    14475
      785    14476    3          END;
      786    14477
      787    14478    2      END CREATE_INDICIES;
      788    14479        %EJECT;
PL6.E3A0      #003=Z8E8$INIT_ARRAY File=Z8E8.:Z8A6TSI                            SAT 08/09/97 11:42 Page:117
      789    14480
      790    14481         /*---------------*/
      791    14482    1      CREATE_PERFORMS: PROC;
      792    14483         /*---------------*/
      793    14484
      794    14485    2   DCL I      SBIN WORD;
      795    14486    2   DCL J      SBIN WORD;
      796    14487    2   DCL INDEX$ PTR;
      797    14488
      798    14489
      799    14490
      800    14491    3          DO I = DIM_NUM DOWNTO 1;
      801    14492    3            INDEX$ = ADDR(DIMS_INDEX_LIST) -> LX_LIST.HEAD$;
      802    14493
      803    14494    4            DO J = I -1 DOWNTO 1;
      804    14495    4              INDEX$ = INDEX$ -> LX_ETT_ITEM.LINK;
      805    14496    4            END;
      806    14497
      807    14498    3            CALL Z8AC$LX_ETT_ITEM_TYI_CONST (DIMS$ -> DIMS.D.DIM(I),
      808    14499    3                                             ADDR(END_VALUE));
      809    14500
      810    14501                 %INIT_BINARY_OP (@POINTER = "ADDR(LOOP_END)",
      811    14502                                  @LOP$    = INDEX$,
      812    14503                                  @ROP$    = "ADDR(END_VALUE)",
      813    14504                                  @OP      = %OP_EQUAL);
      814    14522
      815    14523    3            CALL Z8EQ$MERGE_ITERATED_DO_UNTIL (INDEX$,
      816    14524    3                                               ADDR(VALUE_ONE),
      817    14525    3                                               ADDR(VALUE_ONE),
      818    14526    3                                               ADDR(LOOP_END));
      819    14527
      820    14528    3          END;   /* DO I=.. */
      821    14529
      822    14530    2      END CREATE_PERFORMS;
      823    14531        %EJECT;
PL6.E3A0      #003=Z8E8$INIT_ARRAY File=Z8E8.:Z8A6TSI                            SAT 08/09/97 11:42 Page:118
      824    14532
      825    14533
      826    14534           /* Main program */
      827    14535
      828    14536    1          COMCOM.OB.ARRAY_PRESET = TRUE;
      829    14537
      830    14538               %INIT_LX_ETT_ITEM (@POINTER = "ADDR(VALUE_ONE)",
      831    14539                                  @ETT$    = COMCOM.VALUE_1,
      832    14540                                  @TYPE    = %TYI);
      833    14562
      834    14563               %FISH (TRIAD = "ARRAY$ -> LX_ETT_ITEM.ETT$",
      835    14564                      RTN = INIT_ST$);
      836    14572
      837    14573    1          IF NOT INIT_ST$ -> ARRAY.B.ARRAY_PRESET THEN
      838    14574    2            DO;
      839    14575    2              QLT$$ = INIT_ST$ -> ARRAY.QLT$;
      840    14576
      841    14577    3              DO UNTIL (QLT$$ -> QLT.FATHER = ADDR(NIL));
      842    14578    3                QLT$$ = QLT$$ -> QLT.FATHER;
      843    14579    3              END;
      844    14580
      845    14581    2              CALL Z8E8$ASSIGN_ARRAY_PRESET (QLT$$ -> QLT.SON);
      846    14582    2            END;
      847    14583
      848    14584    1          SAVED_ILS_LIST = O1COM.ILS_LIST;
      849    14585
      850    14586               %INIT_ILS_LIST (@POINTER = "ADDR(O1COM.ILS_LIST)");
      851    14594
      852    14595               %INIT_LX_LIST (@POINTER = "ADDR(DIMS_INDEX_LIST)");
      853    14605
      854    14606    1          CALL CREATE_INDICIES;
      855    14607
      856    14608    1          CALL Z8EY$SUBSCRIPT (ADDR(DIMS_INDEX_LIST),
      857    14609    1                               ARRAY$);
      858    14610
      859    14611    1          IF CONST$ -> LX_ETT_ITEM.ETT$ = ADDR(NIL) THEN
      860    14612    2            DO;
PL6.E3A0      #003=Z8E8$INIT_ARRAY File=Z8E8.:Z8A6TSI                            SAT 08/09/97 11:42 Page:119
      861    14613    3              DO CASE (ARRAY$ -> LX_ETT_ITEM.TYPE);
      862    14614    3                CASE (%TYD, %TYO, %TYF, %TYC);
      863    14615    3                  CALL Z8AF$FORME (%DNA, ARRAY$ -> LX_ETT_ITEM.ETT$, 0, ARRAY$ ->
             14615                           LX_ETT_ITEM.ETT$);
      864    14616    3              END;
      865    14617                   %NEW_ILL (@ID   = %MFILL,
      866    14618                             @LOP  = ARRAY$ -> LX_ETT_ITEM.ETT$,
      867    14619                             @FILL = "BITASC('000'O)");
      868    14998    2            END;
      869    14999    1          ELSE
      870    15000    1            CALL Z8E7$MOVE (ARRAY$, CONST$);
      871    15001
      872    15002    1          CALL CREATE_PERFORMS;
      873    15003
      874    15004    1          CALL Z8ED$DISPOSE_ABSSYN_TREE (ADDR(DIMS_INDEX_LIST) -> LX_LIST.HEAD$);
      875    15005
      876    15006               %APPEND_ILS_LIST (@FROM$ = "ADDR(O1COM.ILS_LIST)",
      877    15007                                 @TO$   = "ADDR(SAVED_ILS_LIST)");
      878    15024
      879    15025    1          O1COM.ILS_LIST = SAVED_ILS_LIST;
      880    15026
      881    15027    1      END Z8E8$INIT_ARRAY;
      882    15028        %EOD;

PL6.E3A0      #003=Z8E8$INIT_ARRAY File=Z8E8.:Z8A6TSI                            SAT 08/09/97 11:42 Page:120
--  Include file information  --

   Z8E_NEW_ILL.:Z8A6TOU  is referenced.
   Z8E_MACROS.:Z8A6TOU  cannot be made into a system file and is referenced.
   Z8E_HEAP.:Z8A6TOU  cannot be made into a system file and is referenced.
   Z8A_LTS.:Z8A6TOU  cannot be made into a system file and is referenced.
   Z8A_ILS.:Z8A6TOU  cannot be made into a system file and is referenced.
   Z8A_ILL.:Z8A6TOU  cannot be made into a system file and is referenced.
   Z8A_ETT.:Z8A6TOU  cannot be made into a system file and is referenced.
   Z8A_TYPES.:Z8A6TOU  is referenced.
   Z8A_QLT.:Z8A6TOU  cannot be made into a system file and is referenced.
   Z8A_ST.:Z8A6TOU  cannot be made into a system file and is referenced.
   Z8E_ILS_LIST.:Z8A6TOU  is referenced.
   Z8E_O1COM.:Z8A6TOU  cannot be made into a system file and is referenced.
   Z8A_COMCOM.:Z8A6TOU  cannot be made into a system file and is referenced.
   Z8E_ABSSYN.:Z8A6TOU  cannot be made into a system file and is referenced.
   Z8A_LEX_SYMB.:Z8A6TOU  cannot be made into a system file and is referenced.
   Z8E_STACKS.:Z8A6TOU  cannot be made into a system file and is referenced.
   X8A_COM_MACS.:X8A6TOU  is referenced.
   Z8A_NAMES.:Z8A6TOU  is referenced.
   Z8A_SUPP_MAC.:Z8A6TOU  is referenced.
   Z8A_DEFC.:Z8A6TOU  cannot be made into a system file and is referenced.
      No diagnostics issued in procedure Z8E8$INIT_ARRAY.

   Procedure Z8E8$INIT_ARRAY requires 328 words for executable code.
   Procedure Z8E8$INIT_ARRAY requires 64 words of local(AUTO) storage.

PL6.E3A0      #003=Z8E8$INIT_ARRAY File=Z8E8.:Z8A6TSI                            SAT 08/09/97 11:42 Page:121

 Object Unit name= Z8E8$INIT_ARRAY                            File name= Z8E8.:Z8A6TOU
 UTS= AUG 09 '97 11:42:38.12 SAT                              Compiler= PL-6/E31         Sev=      00
 SharedLib= :SHARED_SYSTEM                                    Alt SharedLib=


    ****  Control sections  ****

 Sect   Type Bound  Init  Size OctSiz  Section name(segment info)
    0  LblCom even  none     1      1  ITERATION
    1  LblCom even  none    90    132  LEX_SYMBOL
    2  LblCom even  none     1      1  CURRENT_LEX_SYMBOL$
    3  LblCom even  none    90    132  TEMP_LEX_SYMBOL
    4  LblCom even  none    90    132  TEMP_LEX_SYMBOL2
    5  LblCom even  none     8     10  TEMP_LX_NODE
    6  LblCom even  none     1      1  ST$
    7  LblCom even  none     5      5  ST_
    8  LblCom even  none     1      1  QLT$
    9  LblCom even  none     1      1  PREV_01_QLT$
   10  LblCom even  none     5      5  QLT_
   11  LblCom even  none     1      1  ETT$
   12  LblCom even  none     1      1  HEAD_ETT$
   13  LblCom even  none   512   1000  ETT_BUCKETS
   14  LblCom even  none     5      5  ETT_
   15  LblCom even  none     1      1  ILL$
   16  LblCom even  none     5      5  ILL_
   17  LblCom even  none     1      1  ILS$
   18  LblCom even  none     5      5  ILS_
   19  LblCom even  none     1      1  LTS$
   20  LblCom even  none     5      5  LTS_
   21  LblCom even  none     1      1  HEAP$
   22   Proc  even  none   328    510  Z8E8$INIT_ARRAY
   23  RoData even  none    17     21  Z8E8$INIT_ARRAY
PL6.E3A0      #003=Z8E8$INIT_ARRAY File=Z8E8.:Z8A6TSI                            SAT 08/09/97 11:42 Page:122

    ****  Entry defs  ****

                              Check   Calling
                             calling  sequence
  Sect OctLoc Primary Altret sequence   type   Parms  Name
    22      0   yes            yes      Std        2  Z8E8$INIT_ARRAY

  ****  Entry refs  ****

         Check        Calling
        calling       sequence
Altret sequence SRef   type   Args  Name
         yes           Std       1 Z8E8$ASSIGN_ARRAY_PRESET
         yes           Std       2 Z8EY$SUBSCRIPT
         yes           Std       4 Z8AF$FORME
         yes           Std       1 Z8ED$DISPOSE_ABSSYN_TREE
         yes           Std       5 Z8AN$NEW_ILL1
         yes           Std       2 Z8E7$MOVE
         yes           Std       2 Z8ED$NEW_HEAP
         yes           Std       2 Z8EU$NEW_TEMP_FROM_DESC
         yes           Std       2 Z8AC$LX_ETT_ITEM_TYI_CONST
         yes           Std       4 Z8EQ$MERGE_ITERATED_DO_UNTIL
                       nStd      0 X66_AUTO_2
                       nStd      0 X66_ARET

  ****  Data refs  ****

  Flags:  r = read only, s = secondary
Flgs Name                             Flgs Name                             Flgs Name
     COMCOM                                O1COM                                 HIER_STK_PTR
     HIER_STK                              PAGE_FORMAT                           REP_STK_PTR
     REP_STK                          r    ILL_STEP                         r    ILS_STEP_TABLE
r    LTS_STEP
PL6.E3A0      #003=Z8E8$INIT_ARRAY File=Z8E8.:Z8A6TSI                            SAT 08/09/97 11:42 Page:123

  ****  Segment refs  ****

  Flags:  r = read only, s = secondary
Flgs Name                             Flgs Name                             Flgs Name
     ISSID                                 NULLSID
PL6.E3A0      #003=Z8E8$INIT_ARRAY File=Z8E8.:Z8A6TSI                            SAT 08/09/97 11:42 Page:124


      700        1        /*T***********************************************************/
      701        2        /*T*                                                         */
      702        3        /*T* Copyright (c) Bull HN Information Systems Inc., 1997    */
      703        4        /*T*                                                         */
      704        5        /*T***********************************************************/
      705        6         /*===============*/
      706        7           Z8E8$INIT_ARRAY: PROC (ARRAY$, CONST$);

      7 22 000000   000000 700200 xent  Z8E8$INIT_A* TSX0  ! X66_AUTO_2
        22 000001   000100 000002                    ZERO    64,2
        22 000002   000225 710000 22                 TRA     s:14536

      707        8         /*===============*/
      708        9
      709       10        %EQU PHASE = 1;
      710       11
      711       12        %INCLUDE Z8A_DEFC;
      712       80        %INCLUDE Z8A_SUPP_MAC;
      713     2480        %INCLUDE Z8E_STACKS;
      714     4746        %INCLUDE Z8E_ABSSYN;
      715     4952        %INCLUDE Z8A_COMCOM;
      716     5602        %INCLUDE Z8E_O1COM;
      717     6363        %INCLUDE Z8E_ILS_LIST;
      718     6447        %INCLUDE Z8A_ST;
      719    10106        %INCLUDE Z8A_QLT;
      720    10212        %INCLUDE Z8A_TYPES;
      721    10386        %INCLUDE Z8A_ETT;
      722    10687        %INCLUDE Z8A_ILL;
      723    11380        %INCLUDE Z8A_ILS;
      724    11489        %INCLUDE Z8A_LTS;
      725    13566        %INCLUDE Z8E_HEAP;
      726    13622        %INCLUDE Z8E_MACROS;
      727    14297
      728    14298
      729    14299
      730    14300    1   DCL ARRAY$         PTR;
PL6.E3A0      #003=Z8E8$INIT_ARRAY File=Z8E8.:Z8A6TSI                            SAT 08/09/97 11:42 Page:125
      731    14301    1   DCL CONST$         PTR;
      732    14302    1   DCL INIT_ST$       PTR;
      733    14303    1   DCL DIMS$          PTR;
      734    14304    1   DCL DIM_NUM        UBIN WORD;
      735    14305    1   DCL QLT$$          PTR;
      736    14306
      737    14307        %DCL_AUTO_LX_ITEM (@NAME = LOOP_END);
      738    14311        %DCL_AUTO_LX_ITEM (@NAME = END_VALUE);
      739    14315        %DCL_AUTO_LX_ITEM (@NAME = VALUE_ONE);
      740    14319        %DCL_AUTO_LX_ITEM (@NAME = SAVED_ILS_LIST);
      741    14323        %DCL_AUTO_LX_ITEM (@NAME = DIMS_INDEX_LIST);
      742    14327
      743    14328    1   DCL Z8EY$SUBSCRIPT             ENTRY(2);
      744    14329    1   DCL Z8E7$MOVE                  ENTRY(2);
      745    14330    1   DCL Z8ED$DISPOSE_ABSSYN_TREE   ENTRY(1);
      746    14331    1   DCL Z8EU$NEW_TEMP_FROM_DESC    ENTRY(2);
      747    14332    1   DCL Z8AC$LX_ETT_ITEM_TYI_CONST ENTRY(2);
      748    14333    1   DCL Z8AF$FORME           ENTRY (4);
      749    14334    1   DCL Z8EQ$MERGE_ITERATED_DO_UNTIL ENTRY(4);
      750    14335    1   DCL Z8E8$ASSIGN_ARRAY_PRESET    ENTRY(1);
      751    14336        %EJECT
      752    14337
      753    14338         /*---------------*/
      754    14339    1      CREATE_INDICIES: PROC;

  14339 22 000003   200062 741300       CREATE_INDI* STX1  ! DIMS_INDEX_LIST+8,,AUTO

      755    14340         /*---------------*/
      756    14341
      757    14342    2   DCL 1 TYPE_DESC    ALIGNED,
      758    14343               %TYPE_DESC;
      759    14377    2   DCL T$             PTR;
      760    14378
      761    14379
      762    14380               %GET_LTS (@ID   = %DIMS,
      763    14381                         @ST$  = INIT_ST$,
      764    14382                         @RETURN$ = DIMS$);
PL6.E3A0      #003=Z8E8$INIT_ARRAY File=Z8E8.:Z8A6TSI                            SAT 08/09/97 11:42 Page:126

  14384 22 000004   200005 470500                    LDP0    INIT_ST$,,AUTO
        22 000005   000005 236100                    LDQ     5,,PR0
        22 000006   000000 116000 23                 CMPQ    0
        22 000007   000017 600000 22                 TZE     s:14418
        22 000010   000005 471500                    LDP1    5,,PR0
        22 000011   100000 220100                    LDX0    0,,PR1
        22 000012   001105 100003                    CMPX0   581,DU
        22 000013   000017 601000 22                 TNZ     s:14418

  14388 22 000014   100001 236100                    LDQ     1,,PR1
        22 000015   200006 756100                    STQ     DIMS$,,AUTO

  14416 22 000016   000031 710000 22                 TRA     s:14426

  14418 22 000017   000000 116000 23                 CMPQ    0
        22 000020   000027 600000 22                 TZE     s:14422
        22 000021   000005 471500                    LDP1    5,,PR0
        22 000022   100000 220100                    LDX0    0,,PR1
        22 000023   001104 100003                    CMPX0   580,DU
        22 000024   000027 601000 22                 TNZ     s:14422

  14420 22 000025   200006 756100                    STQ     DIMS$,,AUTO
        22 000026   000031 710000 22                 TRA     s:14426

  14422 22 000027   000000 236000 23                 LDQ     0
        22 000030   200006 756100                    STQ     DIMS$,,AUTO

      765    14425
      766    14426    2          DIM_NUM = (DIMS$ -> DIMS.N - %MIN_DIM_SIZE)/%NO_WORDS_PER_DIM;

  14426 22 000031   200006 471500                    LDP1    DIMS$,,AUTO
        22 000032   100000 236100                    LDQ     0,,PR1
        22 000033   777777 376007                    ANQ     -1,DL
        22 000034   000005 136007                    SBLQ    5,DL
        22 000035   000003 506007                    DIV     3,DL
        22 000036   200007 756100                    STQ     DIM_NUM,,AUTO
PL6.E3A0      #003=Z8E8$INIT_ARRAY File=Z8E8.:Z8A6TSI                            SAT 08/09/97 11:42 Page:127

      767    14427
      768    14428    3          DO WHILE (ADDR(DIMS_INDEX_LIST) -> LX_LIST.COUNT < DIM_NUM);

  14428 22 000037   000000 116003                    CMPQ    0,DU
        22 000040   000043 604000 22                 TMI     s:14437
        22 000041   200054 116100                    CMPQ    DIMS_INDEX_LIST+2,,AUTO
        22 000042   000115 604400 22                 TMOZ    s:14478

      769    14429
      770    14430                 %NEW (@TEMPLATE = LX_ETT_ITEM,
      771    14431                       @POINTER  = T$);

  14437 22 000043   000003 236000 23                 LDQ     3
        22 000044   200071 756100                    STQ     T$+2,,AUTO
        22 000045   200067 630500                    EPPR0   T$,,AUTO
        22 000046   200070 450500                    STP0    T$+1,,AUTO
        22 000047   200070 630500                    EPPR0   T$+1,,AUTO
        22 000050   000001 631400 23                 EPPR1   1
        22 000051   000000 701000 xent               TSX1    Z8ED$NEW_HEAP
        22 000052   000000 011000                    NOP     0

      772    14441
      773    14442    3            TYPE_DESC.TYPE = %TYI;

  14442 22 000053   000001 235007                    LDA     1,DL
        22 000054   200063 755100                    STA     TYPE_DESC,,AUTO

      774    14443    3            TYPE_DESC.SIZ$ = ADDR(NIL);

  14443 22 000055   000000 236000 23                 LDQ     0
        22 000056   200065 756100                    STQ     J+1,,AUTO

      775    14444
      776    14445                 %BUILD_BINARY_DESC (@DESC   = TYPE_DESC.DESC,
      777    14446                                     @LENGTH = %TYI_LENGTH);

PL6.E3A0      #003=Z8E8$INIT_ARRAY File=Z8E8.:Z8A6TSI                            SAT 08/09/97 11:42 Page:128
  14450 22 000057   200064 450100                    STZ     I+1,,AUTO

  14451 22 000060   000004 236007                    LDQ     4,DL
        22 000061   200064 752101                    STCQ    I+1,'01'O,AUTO

      778    14454
      779    14455    3            CALL Z8EU$NEW_TEMP_FROM_DESC (TYPE_DESC,

  14455 22 000062   200067 630500                    EPPR0   T$,,AUTO
        22 000063   200071 450500                    STP0    T$+2,,AUTO
        22 000064   200063 631500                    EPPR1   TYPE_DESC,,AUTO
        22 000065   200070 451500                    STP1    T$+1,,AUTO
        22 000066   200070 630500                    EPPR0   T$+1,,AUTO
        22 000067   000001 631400 23                 EPPR1   1
        22 000070   000000 701000 xent               TSX1    Z8EU$NEW_TEMP_FROM_DESC
        22 000071   000000 011000                    NOP     0

      780    14456    3                                          T$);
      781    14457
      782    14458                 %ADD_LX_ITEM_TO_LIST_TAIL (@FROM$ = T$,
      783    14459                                            @LIST$ = "ADDR(DIMS_INDEX_LIST)");

  14461 22 000072   000000 236000 23                 LDQ     0
        22 000073   200067 470500                    LDP0    T$,,AUTO
        22 000074   000007 756100                    STQ     7,,PR0

  14462 22 000075   200054 235100                    LDA     DIMS_INDEX_LIST+2,,AUTO
        22 000076   000103 601000 22                 TNZ     s:14469

  14464 22 000077   200067 236100                    LDQ     T$,,AUTO
        22 000100   200056 756100                    STQ     DIMS_INDEX_LIST+4,,AUTO

  14465 22 000101   200053 756100                    STQ     DIMS_INDEX_LIST+1,,AUTO

  14466 22 000102   000110 710000 22                 TRA     s:14472

  14469 22 000103   200067 236100                    LDQ     T$,,AUTO
PL6.E3A0      #003=Z8E8$INIT_ARRAY File=Z8E8.:Z8A6TSI                            SAT 08/09/97 11:42 Page:129
        22 000104   200053 470500                    LDP0    DIMS_INDEX_LIST+1,,AUTO
        22 000105   000007 756100                    STQ     7,,PR0

  14470 22 000106   200067 236100                    LDQ     T$,,AUTO
        22 000107   200053 756100                    STQ     DIMS_INDEX_LIST+1,,AUTO

  14472 22 000110   200054 054100                    AOS     DIMS_INDEX_LIST+2,,AUTO

      784    14475
      785    14476    3          END;

  14476 22 000111   200054 236100                    LDQ     DIMS_INDEX_LIST+2,,AUTO
        22 000112   000043 604000 22                 TMI     s:14437
        22 000113   200007 116100                    CMPQ    DIM_NUM,,AUTO
        22 000114   000043 602000 22                 TNC     s:14437

      786    14477
      787    14478    2      END CREATE_INDICIES;

  14478 22 000115   200062 221300                    LDX1  ! DIMS_INDEX_LIST+8,,AUTO
        22 000116   000001 702211                    TSX2  ! 1,X1

      788    14479        %EJECT;
PL6.E3A0      #003=Z8E8$INIT_ARRAY File=Z8E8.:Z8A6TSI                            SAT 08/09/97 11:42 Page:130
      789    14480
      790    14481         /*---------------*/
      791    14482    1      CREATE_PERFORMS: PROC;

  14482 22 000117   200062 741300       CREATE_PERF* STX1  ! DIMS_INDEX_LIST+8,,AUTO

      792    14483         /*---------------*/
      793    14484
      794    14485    2   DCL I      SBIN WORD;
      795    14486    2   DCL J      SBIN WORD;
      796    14487    2   DCL INDEX$ PTR;
      797    14488
      798    14489
      799    14490
      800    14491    3          DO I = DIM_NUM DOWNTO 1;

  14491 22 000120   200007 235100                    LDA     DIM_NUM,,AUTO
        22 000121   200063 755100                    STA     I,,AUTO
        22 000122   000221 710000 22                 TRA     s:14528+2

      801    14492    3            INDEX$ = ADDR(DIMS_INDEX_LIST) -> LX_LIST.HEAD$;

  14492 22 000123   200056 236100                    LDQ     DIMS_INDEX_LIST+4,,AUTO
        22 000124   200065 756100                    STQ     INDEX$,,AUTO

      802    14493
      803    14494    4            DO J = I -1 DOWNTO 1;

  14494 22 000125   200063 235100                    LDA     I,,AUTO
        22 000126   000001 135007                    SBLA    1,DL
        22 000127   200064 755100                    STA     J,,AUTO
        22 000130   000136 710000 22                 TRA     s:14496+2

      804    14495    4              INDEX$ = INDEX$ -> LX_ETT_ITEM.LINK;

  14495 22 000131   200065 470500                    LDP0    INDEX$,,AUTO
        22 000132   000007 236100                    LDQ     7,,PR0
PL6.E3A0      #003=Z8E8$INIT_ARRAY File=Z8E8.:Z8A6TSI                            SAT 08/09/97 11:42 Page:131
        22 000133   200065 756100                    STQ     INDEX$,,AUTO

      805    14496    4            END;

  14496 22 000134   000001 336007                    LCQ     1,DL
        22 000135   200064 056100                    ASQ     J,,AUTO
        22 000136   200064 235100                    LDA     J,,AUTO
        22 000137   000131 605400 22                 TPNZ    s:14495

      806    14497
      807    14498    3            CALL Z8AC$LX_ETT_ITEM_TYI_CONST (DIMS$ -> DIMS.D.DIM(I),

  14498 22 000140   200022 630500                    EPPR0   END_VALUE,,AUTO
        22 000141   200070 450500                    STP0    T$+1,,AUTO
        22 000142   200070 631500                    EPPR1   T$+1,,AUTO
        22 000143   200073 451500                    STP1    T$+4,,AUTO
        22 000144   200063 236100                    LDQ     I,,AUTO
        22 000145   000003 402003                    MPY     3,DU
        22 000146   000003 036003                    ADLQ    3,DU
        22 000147   200006 036100                    ADLQ    DIMS$,,AUTO
        22 000150   200072 756100                    STQ     T$+3,,AUTO
        22 000151   200072 630500                    EPPR0   T$+3,,AUTO
        22 000152   000001 631400 23                 EPPR1   1
        22 000153   000000 701000 xent               TSX1    Z8AC$LX_ETT_ITEM_TYI_CONST
        22 000154   000000 011000                    NOP     0

      808    14499    3                                             ADDR(END_VALUE));
      809    14500
      810    14501                 %INIT_BINARY_OP (@POINTER = "ADDR(LOOP_END)",
      811    14502                                  @LOP$    = INDEX$,
      812    14503                                  @ROP$    = "ADDR(END_VALUE)",
      813    14504                                  @OP      = %OP_EQUAL);

  14506 22 000155   000005 220003                    LDX0    5,DU
        22 000156   200012 740100                    STX0    LOOP_END,,AUTO

  14507 22 000157   000000 221003                    LDX1    0,DU
PL6.E3A0      #003=Z8E8$INIT_ARRAY File=Z8E8.:Z8A6TSI                            SAT 08/09/97 11:42 Page:132
        22 000160   200012 441100                    SXL1    LOOP_END,,AUTO

  14514 22 000161   000133 235000 xsym               LDA     COMCOM+91
        22 000162   200017 755100                    STA     LOOP_END+5,,AUTO

  14515 22 000163   000134 236000 xsym               LDQ     COMCOM+92
        22 000164   200020 756100                    STQ     LOOP_END+6,,AUTO

  14516 22 000165   200022 630500                    EPPR0   END_VALUE,,AUTO
        22 000166   200014 450500                    STP0    LOOP_END+2,,AUTO

  14517 22 000167   200065 236100                    LDQ     INDEX$,,AUTO
        22 000170   200013 756100                    STQ     LOOP_END+1,,AUTO

  14518 22 000171   000027 235007                    LDA     23,DL
        22 000172   200015 755100                    STA     LOOP_END+3,,AUTO

  14519 22 000173   000000 236000 23                 LDQ     0
        22 000174   200021 756100                    STQ     LOOP_END+7,,AUTO

      814    14522
      815    14523    3            CALL Z8EQ$MERGE_ITERATED_DO_UNTIL (INDEX$,

  14523 22 000175   200032 631500                    EPPR1   VALUE_ONE,,AUTO
        22 000176   200070 451500                    STP1    T$+1,,AUTO
        22 000177   200032 633500                    EPPR3   VALUE_ONE,,AUTO
        22 000200   200071 453500                    STP3    T$+2,,AUTO
        22 000201   200012 634500                    EPPR4   LOOP_END,,AUTO
        22 000202   200072 454500                    STP4    T$+3,,AUTO
        22 000203   200072 635500                    EPPR5   T$+3,,AUTO
        22 000204   200077 455500                    STP5    T$+8,,AUTO
        22 000205   200071 636500                    EPPR6   T$+2,,AUTO
        22 000206   200076 456500                    STP6    T$+7,,AUTO
        22 000207   200070 637500                    EPPR7   T$+1,,AUTO
        22 000210   200075 457500                    STP7    T$+6,,AUTO
        22 000211   200065 630500                    EPPR0   INDEX$,,AUTO
        22 000212   200074 450500                    STP0    T$+5,,AUTO
PL6.E3A0      #003=Z8E8$INIT_ARRAY File=Z8E8.:Z8A6TSI                            SAT 08/09/97 11:42 Page:133
        22 000213   200074 630500                    EPPR0   T$+5,,AUTO
        22 000214   000004 631400 23                 EPPR1   4
        22 000215   000000 701000 xent               TSX1    Z8EQ$MERGE_ITERATED_DO_UNTIL
        22 000216   000000 011000                    NOP     0

      816    14524    3                                               ADDR(VALUE_ONE),
      817    14525    3                                               ADDR(VALUE_ONE),
      818    14526    3                                               ADDR(LOOP_END));
      819    14527
      820    14528    3          END;   /* DO I=.. */

  14528 22 000217   000001 336007                    LCQ     1,DL
        22 000220   200063 056100                    ASQ     I,,AUTO
        22 000221   200063 235100                    LDA     I,,AUTO
        22 000222   000123 605400 22                 TPNZ    s:14492

      821    14529
      822    14530    2      END CREATE_PERFORMS;

  14530 22 000223   200062 221300                    LDX1  ! DIMS_INDEX_LIST+8,,AUTO
        22 000224   000001 702211                    TSX2  ! 1,X1

      823    14531        %EJECT;
PL6.E3A0      #003=Z8E8$INIT_ARRAY File=Z8E8.:Z8A6TSI                            SAT 08/09/97 11:42 Page:134
      824    14532
      825    14533
      826    14534           /* Main program */
      827    14535
      828    14536    1          COMCOM.OB.ARRAY_PRESET = TRUE;

  14536 22 000225   400000 236003                    LDQ     -131072,DU
        22 000226   000075 256000 xsym               ORSQ    COMCOM+61

      829    14537
      830    14538               %INIT_LX_ETT_ITEM (@POINTER = "ADDR(VALUE_ONE)",
      831    14539                                  @ETT$    = COMCOM.VALUE_1,
      832    14540                                  @TYPE    = %TYI);

  14542 22 000227   000004 220003                    LDX0    4,DU
        22 000230   200032 740100                    STX0    VALUE_ONE,,AUTO

  14543 22 000231   000000 221003                    LDX1    0,DU
        22 000232   200032 441100                    SXL1    VALUE_ONE,,AUTO

  14544 22 000233   000001 235007                    LDA     1,DL
        22 000234   200036 755100                    STA     VALUE_ONE+4,,AUTO

  14545 22 000235   000000 236000 23                 LDQ     0
        22 000236   200041 756100                    STQ     VALUE_ONE+7,,AUTO

  14546 22 000237   000125 236000 xsym               LDQ     COMCOM+85
        22 000240   200033 756100                    STQ     VALUE_ONE+1,,AUTO

  14547 22 000241   000000 236000 23                 LDQ     0
        22 000242   200034 756100                    STQ     VALUE_ONE+2,,AUTO

  14549 22 000243   000133 235000 xsym               LDA     COMCOM+91
        22 000244   200037 755100                    STA     VALUE_ONE+5,,AUTO

  14550 22 000245   000134 235000 xsym               LDA     COMCOM+92
        22 000246   200040 755100                    STA     VALUE_ONE+6,,AUTO
PL6.E3A0      #003=Z8E8$INIT_ARRAY File=Z8E8.:Z8A6TSI                            SAT 08/09/97 11:42 Page:135

      833    14562
      834    14563               %FISH (TRIAD = "ARRAY$ -> LX_ETT_ITEM.ETT$",
      835    14564                      RTN = INIT_ST$);

  14566 22 000247   200003 470500                    LDP0    @ARRAY$,,AUTO
        22 000250   000000 471500                    LDP1    0,,PR0
        22 000251   100001 236100                    LDQ     1,,PR1
        22 000252   200005 756100                    STQ     INIT_ST$,,AUTO

  14567 22 000253   200005 473500                    LDP3    INIT_ST$,,AUTO
        22 000254   300000 222100                    LDX2    0,,PR3
        22 000255   000751 102003                    CMPX2   489,DU
        22 000256   000266 603000 22                 TRC     s:14573

  14568 22 000257   200005 470500                    LDP0    INIT_ST$,,AUTO
        22 000260   000001 236100                    LDQ     1,,PR0
        22 000261   200005 756100                    STQ     INIT_ST$,,AUTO

  14569 22 000262   200005 470500                    LDP0    INIT_ST$,,AUTO
        22 000263   000000 220100                    LDX0    0,,PR0
        22 000264   000751 100003                    CMPX0   489,DU
        22 000265   000257 602000 22                 TNC     s:14568

      836    14572
      837    14573    1          IF NOT INIT_ST$ -> ARRAY.B.ARRAY_PRESET THEN

  14573 22 000266   200005 470500                    LDP0    INIT_ST$,,AUTO
        22 000267   000003 236100                    LDQ     3,,PR0
        22 000270   000020 316007                    CANQ    16,DL
        22 000271   000312 601000 22                 TNZ     s:14584

      838    14574    2            DO;

      839    14575    2              QLT$$ = INIT_ST$ -> ARRAY.QLT$;

  14575 22 000272   000007 236100                    LDQ     7,,PR0
PL6.E3A0      #003=Z8E8$INIT_ARRAY File=Z8E8.:Z8A6TSI                            SAT 08/09/97 11:42 Page:136
        22 000273   200010 756100                    STQ     QLT$$,,AUTO

      840    14576
      841    14577    3              DO UNTIL (QLT$$ -> QLT.FATHER = ADDR(NIL));

      842    14578    3                QLT$$ = QLT$$ -> QLT.FATHER;

  14578 22 000274   200010 470500                    LDP0    QLT$$,,AUTO
        22 000275   000001 236100                    LDQ     1,,PR0
        22 000276   200010 756100                    STQ     QLT$$,,AUTO

      843    14579    3              END;

  14579 22 000277   200010 470500                    LDP0    QLT$$,,AUTO
        22 000300   000001 236100                    LDQ     1,,PR0
        22 000301   000000 116000 23                 CMPQ    0
        22 000302   000274 601000 22                 TNZ     s:14578

      844    14580
      845    14581    2              CALL Z8E8$ASSIGN_ARRAY_PRESET (QLT$$ -> QLT.SON);

  14581 22 000303   200010 236100                    LDQ     QLT$$,,AUTO
        22 000304   000003 036003                    ADLQ    3,DU
        22 000305   200070 756100                    STQ     T$+1,,AUTO
        22 000306   200070 630500                    EPPR0   T$+1,,AUTO
        22 000307   000005 631400 23                 EPPR1   5
        22 000310   000000 701000 xent               TSX1    Z8E8$ASSIGN_ARRAY_PRESET
        22 000311   000000 011000                    NOP     0

      846    14582    2            END;

      847    14583
      848    14584    1          SAVED_ILS_LIST = O1COM.ILS_LIST;

  14584 22 000312   000100 100400                    MLR     fill='000'O
        22 000313   000016 000040 xsym               ADSC9   O1COM+14                 cn=0,n=32
        22 000314   200042 000040                    ADSC9   SAVED_ILS_LIST,,AUTO     cn=0,n=32
PL6.E3A0      #003=Z8E8$INIT_ARRAY File=Z8E8.:Z8A6TSI                            SAT 08/09/97 11:42 Page:137

      849    14585
      850    14586               %INIT_ILS_LIST (@POINTER = "ADDR(O1COM.ILS_LIST)");

  14588 22 000315   000007 220003                    LDX0    7,DU
        22 000316   000016 740000 xsym               STX0    O1COM+14

  14589 22 000317   000000 236000 23                 LDQ     0
        22 000320   000017 756000 xsym               STQ     O1COM+15

  14590 22 000321   000020 756000 xsym               STQ     O1COM+16

  14591 22 000322   000025 756000 xsym               STQ     O1COM+21

      851    14594
      852    14595               %INIT_LX_LIST (@POINTER = "ADDR(DIMS_INDEX_LIST)");

  14597 22 000323   000002 221003                    LDX1    2,DU
        22 000324   200052 741100                    STX1    DIMS_INDEX_LIST,,AUTO

  14598 22 000325   000000 222003                    LDX2    0,DU
        22 000326   200052 442100                    SXL2    DIMS_INDEX_LIST,,AUTO

  14599 22 000327   200053 756100                    STQ     DIMS_INDEX_LIST+1,,AUTO

  14600 22 000330   200056 756100                    STQ     DIMS_INDEX_LIST+4,,AUTO

  14601 22 000331   200061 756100                    STQ     DIMS_INDEX_LIST+7,,AUTO

  14602 22 000332   200054 450100                    STZ     DIMS_INDEX_LIST+2,,AUTO

      853    14605
      854    14606    1          CALL CREATE_INDICIES;

  14606 22 000333   000003 701000 22                 TSX1    CREATE_INDICIES
        22 000334   000000 011000                    NOP     0

PL6.E3A0      #003=Z8E8$INIT_ARRAY File=Z8E8.:Z8A6TSI                            SAT 08/09/97 11:42 Page:138
      855    14607
      856    14608    1          CALL Z8EY$SUBSCRIPT (ADDR(DIMS_INDEX_LIST),

  14608 22 000335   200052 630500                    EPPR0   DIMS_INDEX_LIST,,AUTO
        22 000336   200070 450500                    STP0    T$+1,,AUTO
        22 000337   200003 236100                    LDQ     @ARRAY$,,AUTO
        22 000340   200073 756100                    STQ     T$+4,,AUTO
        22 000341   200070 631500                    EPPR1   T$+1,,AUTO
        22 000342   200072 451500                    STP1    T$+3,,AUTO
        22 000343   200072 630500                    EPPR0   T$+3,,AUTO
        22 000344   000001 631400 23                 EPPR1   1
        22 000345   000000 701000 xent               TSX1    Z8EY$SUBSCRIPT
        22 000346   000000 011000                    NOP     0

      857    14609    1                               ARRAY$);
      858    14610
      859    14611    1          IF CONST$ -> LX_ETT_ITEM.ETT$ = ADDR(NIL) THEN

  14611 22 000347   200004 470500                    LDP0    @CONST$,,AUTO
        22 000350   000000 471500                    LDP1    0,,PR0
        22 000351   100001 236100                    LDQ     1,,PR1
        22 000352   000000 116000 23                 CMPQ    0
        22 000353   000452 601000 22                 TNZ     s:15000

      860    14612    2            DO;

      861    14613    3              DO CASE (ARRAY$ -> LX_ETT_ITEM.TYPE);

  14613 22 000354   200003 473500                    LDP3    @ARRAY$,,AUTO
        22 000355   300000 474500                    LDP4    0,,PR3
        22 000356   400004 235100                    LDA     4,,PR4
        22 000357   000024 115007                    CMPA    20,DL
        22 000360   000362 602005 22                 TNC     s:14613+6,AL
        22 000361   000422 710000 22                 TRA     s:14886
        22 000362   000406 710000 22                 TRA     s:14615
        22 000363   000422 710000 22                 TRA     s:14886
        22 000364   000422 710000 22                 TRA     s:14886
PL6.E3A0      #003=Z8E8$INIT_ARRAY File=Z8E8.:Z8A6TSI                            SAT 08/09/97 11:42 Page:139
        22 000365   000406 710000 22                 TRA     s:14615
        22 000366   000422 710000 22                 TRA     s:14886
        22 000367   000422 710000 22                 TRA     s:14886
        22 000370   000422 710000 22                 TRA     s:14886
        22 000371   000422 710000 22                 TRA     s:14886
        22 000372   000422 710000 22                 TRA     s:14886
        22 000373   000422 710000 22                 TRA     s:14886
        22 000374   000422 710000 22                 TRA     s:14886
        22 000375   000406 710000 22                 TRA     s:14615
        22 000376   000422 710000 22                 TRA     s:14886
        22 000377   000422 710000 22                 TRA     s:14886
        22 000400   000422 710000 22                 TRA     s:14886
        22 000401   000422 710000 22                 TRA     s:14886
        22 000402   000422 710000 22                 TRA     s:14886
        22 000403   000422 710000 22                 TRA     s:14886
        22 000404   000422 710000 22                 TRA     s:14886
        22 000405   000406 710000 22                 TRA     s:14615

      862    14614    3                CASE (%TYD, %TYO, %TYF, %TYC);

      863    14615    3                  CALL Z8AF$FORME (%DNA, ARRAY$ -> LX_ETT_ITEM.ETT$, 0, ARRAY$ ->
             14615                           LX_ETT_ITEM.ETT$);

  14615 22 000406   400001 635500                    EPPR5   1,,PR4
        22 000407   200073 455500                    STP5    T$+4,,AUTO
        22 000410   000010 236000 23                 LDQ     8
        22 000411   200072 756100                    STQ     T$+3,,AUTO
        22 000412   400001 631500                    EPPR1   1,,PR4
        22 000413   200071 451500                    STP1    T$+2,,AUTO
        22 000414   000011 236000 23                 LDQ     9
        22 000415   200070 756100                    STQ     T$+1,,AUTO
        22 000416   200070 630500                    EPPR0   T$+1,,AUTO
        22 000417   000004 631400 23                 EPPR1   4
        22 000420   000000 701000 xent               TSX1    Z8AF$FORME
        22 000421   000000 011000                    NOP     0

      864    14616    3              END;
PL6.E3A0      #003=Z8E8$INIT_ARRAY File=Z8E8.:Z8A6TSI                            SAT 08/09/97 11:42 Page:140

      865    14617                   %NEW_ILL (@ID   = %MFILL,
      866    14618                             @LOP  = ARRAY$ -> LX_ETT_ITEM.ETT$,
      867    14619                             @FILL = "BITASC('000'O)");

  14886 22 000422   200003 470500                    LDP0    @ARRAY$,,AUTO
        22 000423   000000 471500                    LDP1    0,,PR0
        22 000424   000015 236000 23                 LDQ     13
        22 000425   200070 756100                    STQ     T$+1,,AUTO
        22 000426   100001 633500                    EPPR3   1,,PR1
        22 000427   200075 453500                    STP3    T$+6,,AUTO
        22 000430   200070 631500                    EPPR1   T$+1,,AUTO
        22 000431   200074 451500                    STP1    T$+5,,AUTO
        22 000432   000016 237000 23                 LDAQ    14
        22 000433   200072 757100                    STAQ    T$+3,,AUTO
        22 000434   000020 236000 23                 LDQ     16
        22 000435   200071 756100                    STQ     T$+2,,AUTO
        22 000436   200071 630500                    EPPR0   T$+2,,AUTO
        22 000437   000012 631400 23                 EPPR1   10
        22 000440   000000 701000 xent               TSX1    Z8AN$NEW_ILL1
        22 000441   000000 011000                    NOP     0

  14888 22 000442   200003 470500                    LDP0    @ARRAY$,,AUTO
        22 000443   000000 471500                    LDP1    0,,PR0
        22 000444   100001 236100                    LDQ     1,,PR1
        22 000445   000000 473400 15                 LDP3    ILL$
        22 000446   300001 756100                    STQ     1,,PR3

  14889 22 000447   000000 236003                    LDQ     0,DU
        22 000450   300000 552110                    STBQ    0,'10'O,PR3

      868    14998    2            END;

  14998 22 000451   000456 710000 22                 TRA     s:15002

      869    14999    1          ELSE
      870    15000    1            CALL Z8E7$MOVE (ARRAY$, CONST$);
PL6.E3A0      #003=Z8E8$INIT_ARRAY File=Z8E8.:Z8A6TSI                            SAT 08/09/97 11:42 Page:141

  15000 22 000452   200003 630500                    EPPR0   @ARRAY$,,AUTO
        22 000453   000001 631400 23                 EPPR1   1
        22 000454   000000 701000 xent               TSX1    Z8E7$MOVE
        22 000455   000000 011000                    NOP     0

      871    15001
      872    15002    1          CALL CREATE_PERFORMS;

  15002 22 000456   000117 701000 22                 TSX1    CREATE_PERFORMS
        22 000457   000000 011000                    NOP     0

      873    15003
      874    15004    1          CALL Z8ED$DISPOSE_ABSSYN_TREE (ADDR(DIMS_INDEX_LIST) -> LX_LIST.HEAD$);

  15004 22 000460   200056 630500                    EPPR0   DIMS_INDEX_LIST+4,,AUTO
        22 000461   200070 450500                    STP0    T$+1,,AUTO
        22 000462   200070 630500                    EPPR0   T$+1,,AUTO
        22 000463   000005 631400 23                 EPPR1   5
        22 000464   000000 701000 xent               TSX1    Z8ED$DISPOSE_ABSSYN_TREE
        22 000465   000000 011000                    NOP     0

      875    15005
      876    15006               %APPEND_ILS_LIST (@FROM$ = "ADDR(O1COM.ILS_LIST)",
      877    15007                                 @TO$   = "ADDR(SAVED_ILS_LIST)");

  15013 22 000466   000017 236000 xsym               LDQ     O1COM+15
        22 000467   000000 116000 23                 CMPQ    0
        22 000470   000504 600000 22                 TZE     s:15025

  15014 22 000471   200043 236100                    LDQ     SAVED_ILS_LIST+1,,AUTO
        22 000472   000000 116000 23                 CMPQ    0
        22 000473   000477 601000 22                 TNZ     s:15018

  15015 22 000474   000017 236000 xsym               LDQ     O1COM+15
        22 000475   200043 756100                    STQ     SAVED_ILS_LIST+1,,AUTO

PL6.E3A0      #003=Z8E8$INIT_ARRAY File=Z8E8.:Z8A6TSI                            SAT 08/09/97 11:42 Page:142
  15016 22 000476   000502 710000 22                 TRA     s:15020

  15018 22 000477   000017 236000 xsym               LDQ     O1COM+15
        22 000500   200044 470500                    LDP0    SAVED_ILS_LIST+2,,AUTO
        22 000501   000002 756100                    STQ     2,,PR0

  15020 22 000502   000020 236000 xsym               LDQ     O1COM+16
        22 000503   200044 756100                    STQ     SAVED_ILS_LIST+2,,AUTO

      878    15024
      879    15025    1          O1COM.ILS_LIST = SAVED_ILS_LIST;

  15025 22 000504   000000 100500                    MLR     fill='000'O
        22 000505   200042 000040                    ADSC9   SAVED_ILS_LIST,,AUTO     cn=0,n=32
        22 000506   000016 000040 xsym               ADSC9   O1COM+14                 cn=0,n=32

      880    15026
      881    15027    1      END Z8E8$INIT_ARRAY;

  15027 22 000507   000000 702200 xent               TSX2  ! X66_ARET
      882    15028        %EOD;

PL6.E3A0      #003=Z8E8$INIT_ARRAY File=Z8E8.:Z8A6TSI                            SAT 08/09/97 11:42 Page:143
--  Include file information  --

   Z8E_NEW_ILL.:Z8A6TOU  is referenced.
   Z8E_MACROS.:Z8A6TOU  cannot be made into a system file and is referenced.
   Z8E_HEAP.:Z8A6TOU  cannot be made into a system file and is referenced.
   Z8A_LTS.:Z8A6TOU  cannot be made into a system file and is referenced.
   Z8A_ILS.:Z8A6TOU  cannot be made into a system file and is referenced.
   Z8A_ILL.:Z8A6TOU  cannot be made into a system file and is referenced.
   Z8A_ETT.:Z8A6TOU  cannot be made into a system file and is referenced.
   Z8A_TYPES.:Z8A6TOU  is referenced.
   Z8A_QLT.:Z8A6TOU  cannot be made into a system file and is referenced.
   Z8A_ST.:Z8A6TOU  cannot be made into a system file and is referenced.
   Z8E_ILS_LIST.:Z8A6TOU  is referenced.
   Z8E_O1COM.:Z8A6TOU  cannot be made into a system file and is referenced.
   Z8A_COMCOM.:Z8A6TOU  cannot be made into a system file and is referenced.
   Z8E_ABSSYN.:Z8A6TOU  cannot be made into a system file and is referenced.
   Z8A_LEX_SYMB.:Z8A6TOU  cannot be made into a system file and is referenced.
   Z8E_STACKS.:Z8A6TOU  cannot be made into a system file and is referenced.
   X8A_COM_MACS.:X8A6TOU  is referenced.
   Z8A_NAMES.:Z8A6TOU  is referenced.
   Z8A_SUPP_MAC.:Z8A6TOU  is referenced.
   Z8A_DEFC.:Z8A6TOU  cannot be made into a system file and is referenced.
      No diagnostics issued in procedure Z8E8$INIT_ARRAY.
PL6.E3A0      #003=Z8E8$INIT_ARRAY File=Z8E8.:Z8A6TSI                            SAT 08/09/97 11:42 Page:144

 **** Variables and constants ****

  ****  Section 000 LblCom ITERATION

  ****  Scalars and arrays  ****
OctLoc.c.b A Datatyp(siz) R M Lvl/name                 OctLoc.c.b A Datatyp(siz) R M Lvl/name

     0-0-0/w SBIN              1 ITERATION

  ****  Section 001 LblCom LEX_SYMBOL

  ****  Scalars and arrays  ****
OctLoc.c.b A Datatyp(siz) R M Lvl/name                 OctLoc.c.b A Datatyp(siz) R M Lvl/name

     0-0-0/w STRC(3240)  r     1 LEX_SYMBOL                 0-0-0/w STRC(3240)        1 LEX_SYMBOL_WORDS

  ****  Section 002 LblCom CURRENT_LEX_SYMBOL$

  ****  Scalars and arrays  ****
OctLoc.c.b A Datatyp(siz) R M Lvl/name                 OctLoc.c.b A Datatyp(siz) R M Lvl/name

     0-0-0/w PTR         r     1 CURRENT_LEX_SYMBOL$

  ****  Section 003 LblCom TEMP_LEX_SYMBOL

  ****  Scalars and arrays  ****
OctLoc.c.b A Datatyp(siz) R M Lvl/name                 OctLoc.c.b A Datatyp(siz) R M Lvl/name

     0-0-0/w STRC(3240)        1 TEMP_LEX_SYMBOL

  ****  Section 004 LblCom TEMP_LEX_SYMBOL2

  ****  Scalars and arrays  ****
OctLoc.c.b A Datatyp(siz) R M Lvl/name                 OctLoc.c.b A Datatyp(siz) R M Lvl/name

     0-0-0/w STRC(3240)        1 TEMP_LEX_SYMBOL2

PL6.E3A0      #003=Z8E8$INIT_ARRAY File=Z8E8.:Z8A6TSI                            SAT 08/09/97 11:42 Page:145
  ****  Section 005 LblCom TEMP_LX_NODE

  ****  Scalars and arrays  ****
OctLoc.c.b A Datatyp(siz) R M Lvl/name                 OctLoc.c.b A Datatyp(siz) R M Lvl/name

     0-0-0/d STRC(288)         1 TEMP_LX_NODE

  ****  Section 006 LblCom ST$

  ****  Scalars and arrays  ****
OctLoc.c.b A Datatyp(siz) R M Lvl/name                 OctLoc.c.b A Datatyp(siz) R M Lvl/name

     0-0-0/w PTR         r     1 ST$

  ****  Section 007 LblCom ST_

  ****  Scalars and arrays  ****
OctLoc.c.b A Datatyp(siz) R M Lvl/name                 OctLoc.c.b A Datatyp(siz) R M Lvl/name

     0-0-0/w STRC(180)         1 ST_

  ****  Section 008 LblCom QLT$

  ****  Scalars and arrays  ****
OctLoc.c.b A Datatyp(siz) R M Lvl/name                 OctLoc.c.b A Datatyp(siz) R M Lvl/name

     0-0-0/w PTR         r     1 QLT$

  ****  Section 009 LblCom PREV_01_QLT$

  ****  Scalars and arrays  ****
OctLoc.c.b A Datatyp(siz) R M Lvl/name                 OctLoc.c.b A Datatyp(siz) R M Lvl/name

     0-0-0/w PTR               1 PREV_01_QLT$

  ****  Section 010 LblCom QLT_

PL6.E3A0      #003=Z8E8$INIT_ARRAY File=Z8E8.:Z8A6TSI                            SAT 08/09/97 11:42 Page:146
  ****  Scalars and arrays  ****
OctLoc.c.b A Datatyp(siz) R M Lvl/name                 OctLoc.c.b A Datatyp(siz) R M Lvl/name

     0-0-0/w STRC(180)         1 QLT_

  ****  Section 011 LblCom ETT$

  ****  Scalars and arrays  ****
OctLoc.c.b A Datatyp(siz) R M Lvl/name                 OctLoc.c.b A Datatyp(siz) R M Lvl/name

     0-0-0/w PTR         r     1 ETT$

  ****  Section 012 LblCom HEAD_ETT$

  ****  Scalars and arrays  ****
OctLoc.c.b A Datatyp(siz) R M Lvl/name                 OctLoc.c.b A Datatyp(siz) R M Lvl/name

     0-0-0/w PTR               1 HEAD_ETT$

  ****  Section 013 LblCom ETT_BUCKETS

  ****  Scalars and arrays  ****
OctLoc.c.b A Datatyp(siz) R M Lvl/name                 OctLoc.c.b A Datatyp(siz) R M Lvl/name

     0-0-0/w PTR               1 ETT_BUCKETS(0:511)

  ****  Section 014 LblCom ETT_

  ****  Scalars and arrays  ****
OctLoc.c.b A Datatyp(siz) R M Lvl/name                 OctLoc.c.b A Datatyp(siz) R M Lvl/name

     0-0-0/w STRC(180)         1 ETT_

  ****  Section 015 LblCom ILL$

  ****  Scalars and arrays  ****
OctLoc.c.b A Datatyp(siz) R M Lvl/name                 OctLoc.c.b A Datatyp(siz) R M Lvl/name
PL6.E3A0      #003=Z8E8$INIT_ARRAY File=Z8E8.:Z8A6TSI                            SAT 08/09/97 11:42 Page:147

     0-0-0/w PTR         r     1 ILL$

  ****  Section 016 LblCom ILL_

  ****  Scalars and arrays  ****
OctLoc.c.b A Datatyp(siz) R M Lvl/name                 OctLoc.c.b A Datatyp(siz) R M Lvl/name

     0-0-0/w STRC(180)         1 ILL_

  ****  Section 017 LblCom ILS$

  ****  Scalars and arrays  ****
OctLoc.c.b A Datatyp(siz) R M Lvl/name                 OctLoc.c.b A Datatyp(siz) R M Lvl/name

     0-0-0/w PTR         r     1 ILS$

  ****  Section 018 LblCom ILS_

  ****  Scalars and arrays  ****
OctLoc.c.b A Datatyp(siz) R M Lvl/name                 OctLoc.c.b A Datatyp(siz) R M Lvl/name

     0-0-0/w STRC(180)         1 ILS_

  ****  Section 019 LblCom LTS$

  ****  Scalars and arrays  ****
OctLoc.c.b A Datatyp(siz) R M Lvl/name                 OctLoc.c.b A Datatyp(siz) R M Lvl/name

     0-0-0/w PTR               1 LONG_ITEM$                 0-0-0/w PTR         r     1 LTS$

  ****  Section 020 LblCom LTS_

  ****  Scalars and arrays  ****
OctLoc.c.b A Datatyp(siz) R M Lvl/name                 OctLoc.c.b A Datatyp(siz) R M Lvl/name

     0-0-0/w STRC(180)         1 LTS_
PL6.E3A0      #003=Z8E8$INIT_ARRAY File=Z8E8.:Z8A6TSI                            SAT 08/09/97 11:42 Page:148

  ****  Section 021 LblCom HEAP$

  ****  Scalars and arrays  ****
OctLoc.c.b A Datatyp(siz) R M Lvl/name                 OctLoc.c.b A Datatyp(siz) R M Lvl/name

     0-0-0/w PTR               1 HEAP$

  ****  Auto variables  ****

  ****  Scalars and arrays  ****
OctLoc.c.b A Datatyp(siz) R M Lvl/name                 OctLoc.c.b A Datatyp(siz) R M Lvl/name

     3-0-0/w PTR         r     1 @ARRAY$                    4-0-0/w PTR         r     1 @CONST$
    *0-0-0/w PTR         r     1 ARRAY$                    *0-0-0/w PTR         r     1 CONST$
     6-0-0/w PTR         r     1 DIMS$                     52-0-0/d STRC(288)   r     1 DIMS_INDEX_LIST
     7-0-0/w UBIN        r     1 DIM_NUM                   22-0-0/d STRC(288)   r     1 END_VALUE
    63-0-0/w SBIN        r     1 I                         65-0-0/w PTR         r     1 INDEX$
     5-0-0/w PTR         r     1 INIT_ST$                  64-0-0/w SBIN        r     1 J
    12-0-0/d STRC(288)   r     1 LOOP_END                  10-0-0/w PTR         r     1 QLT$$
    42-0-0/d STRC(288)   r     1 SAVED_ILS_LIST            67-0-0/w PTR         r     1 T$
    63-0-0/w STRC(144)   r     1 TYPE_DESC                 32-0-0/d STRC(288)   r     1 VALUE_ONE

  ****  SYMREF variables  ****

  ****  Scalars and arrays  ****
OctLoc.c.b A Datatyp(siz) R M Lvl/name                 OctLoc.c.b A Datatyp(siz) R M Lvl/name

     0-0-0/d STRC(13248) r     1 COMCOM
     0-0-0/w STRC(180)         1 HIER_STK(0:50)
     0-0-0/w SBIN              1 HIER_STK_PTR               0-0-0/w UBIN              1 ILL_STEP(0:144)
     0-0-0/w UBIN              1 ILS_STEP_TABLE(0:2)
     0-0-0/w UBIN              1 LTS_STEP(0:37)
     0-0-0/d STRC(11580) r     1 O1COM                      0-0-0/w STRC(144)         1 PAGE_FORMAT
     0-0-0/w STRC(153)         1 REP_STK(0:50)              0-0-0/w SBIN              1 REP_STK_PTR

  ****  BASED and DCB variables  ****
PL6.E3A0      #003=Z8E8$INIT_ARRAY File=Z8E8.:Z8A6TSI                            SAT 08/09/97 11:42 Page:149

  ****  Scalars and arrays  ****
OctLoc.c.b A Datatyp(siz) R M Lvl/name                 OctLoc.c.b A Datatyp(siz) R M Lvl/name

     0-0-0/w STRC(108)         1 ACCEPT_DISPLAY             0-0-0/w STRC(288)         1 ADD_STMT
     0-0-0/w STRC(396)         1 ALPHABET                   0-0-0/w STRC(144)         1 ALTER_LTS
     0-0-0/w STRC(3672)        1 ALT_KEY                    0-0-0/w STRC(36864)       1 ARGLIST
     0-0-0/w STRC(396)   r     1 ARRAY                      0-0-0/w STRC(180)         1 ARRAY_PRESET_LTS
     0-0-0/w ASTR(324)   r     1 BASED_LEX_SYMBOL
     0-0-0/w STRC(360)         1 BASED_LEX_SYMBOL_WORDS
     0-0-0/w STRC(288)         1 BASE_LTS                   0-0-0/w STRC(108)         1 BINARY_ILL
     0-0-0/w STRC(288)   r     1 BINARY_OP                  0-0-0/w STRC(396)         1 BLOCK
     0-0-0/w STRC(144)         1 BRANCH_ILL                 0-0-0/w STRC(144)         1 BT
     0-0-0/w STRC(288)         1 CALL_STMT                  0-0-0/w STRC(216)         1 CCOSU
     0-0-0/w STRC(396)         1 CD                         0-0-0/w STRC(288)         1 CD_LTS
     0-0-0/w CHAR(4096)        1 CHARS                      0-0-0/w STRC(396)         1 CLASS
     0-0-0/w STRC(108)         1 CODED_MOVE                 0-0-0/w STRC(288)         1 COMPUTE_STMT
     0-0-0/w STRC(396)         1 CONDITION                  0-0-0/w STRC(396)         1 CONST
     0-0-0/w STRC(72)          1 CONT                       0-0-0/w STRC(540)         1 CONTROL_NAME_LTS
     0-0-0/w STRC(1872)        1 COPY_FILE                  0-0-0/w STRC(396)         1 DB
     0-0-0/w STRC(396)         1 DCB_                       0-0-0/w STRC(288)         1 DEFERED_IDENTIFIER
     0-0-0/w STRC(252)         1 DEFERED_ID_TREE            0-0-0/w STRC(288)         1 DEFERED_QUAL_ID
     0-0-0/w STRC(288)         1 DEFERED_SUM_CLAUSE
     0-0-0/w STRC(288)         1 DEFERED_SUM_CLAUSE_LIST
     0-0-0/w STRC(144)         1 DEFLB                      0-0-0/w STRC(288)         1 DELETE_STMT
     0-0-0/w STRC(108)         1 DEPENDING_SIZE             0-0-0/w STRC(5472)  r     1 DIMS
     0-0-0/w STRC(288)         1 DIVIDE_STMT                0-0-0/w STRC(396)         1 DML_ITEM
     0-0-0/w STRC(216)         1 DML_REC                    0-0-0/w STRC(144)         1 DOEND
     0-0-0/w STRC(396)         1 DO_N                       0-0-0/w STRC(180)         1 DV4I
     0-0-0/w STRC(180)         1 ENTRY_ILL                  0-0-0/w STRC(180)   r     1 ETT
     0-0-0/w STRC(108)         1 EVALU                      0-0-0/w STRC(73836)       1 EVALUATE
     0-0-0/w STRC(396)         1 FD                         0-0-0/w STRC(1692)        1 FILE_LTS
     0-0-0/w STRC(144)         1 GO                         0-0-0/w STRC(180)         1 ILL
     0-0-0/w STRC              1 ILL_NO_OPS                 0-0-0/w STRC(180)   r     1 ILS
     0-0-0/w STRC(288)   r     1 ILS_LIST                   0-0-0/w STRC(108)         1 INDEXES
     0-0-0/w STRC(360)         1 INIT_LTS                   0-0-0/w STRC(288)         1 INSPECT_1_STMT
     0-0-0/w STRC(288)         1 INSPECT_2_STMT             0-0-0/w STRC(288)         1 INSPECT_4_STMT
PL6.E3A0      #003=Z8E8$INIT_ARRAY File=Z8E8.:Z8A6TSI                            SAT 08/09/97 11:42 Page:150
     0-0-0/w STRC(396)         1 INTDEF                     0-0-0/w STRC(180)         1 IO_RESTORE_CHAIN
     0-0-0/w STRC(144)         1 KEY                        0-0-0/w STRC(396)         1 LABEL
     0-0-0/w STRC(288)         1 LA_ITEM                    0-0-0/w STRC(36864)       1 LCNST
     0-0-0/w STRC(108)         1 LINOI                      0-0-0/w STRC(72)          1 LONG
     0-0-0/w STRC        r     1 LTS                        0-0-0/w STRC(360)   r     1 LTSS
     0-0-0/w STRC(36936)       1 LTS_PTR_ARRAY              0-0-0/w STRC(504)         1 LX_CD_INPUT
     0-0-0/w STRC(324)         1 LX_CD_I_O                  0-0-0/w STRC(396)         1 LX_CD_OUTPUT
     0-0-0/w STRC(288)   r     1 LX_ETT_ITEM                0-0-0/w STRC(288)   r     1 LX_ITEM
     0-0-0/w STRC(288)         1 LX_LARGE                   0-0-0/w STRC(288)   r     1 LX_LIST
     0-0-0/w STRC(1224)        1 LX_REC_DECL                0-0-0/w STRC(864)         1 LX_REPORT_REC
     0-0-0/w STRC(288)         1 LX_TERMINAL                0-0-0/w STRC(72)    r     1 MFILL
     0-0-0/w STRC(396)         1 MNEMONIC                   0-0-0/w STRC(288)         1 MULTIPLY_STMT
     0-0-0/w STRC(180)         1 MULTI_GO                   0-0-0/w STRC(180)         1 MVEAL
     0-0-0/w STRC(108)         1 MVFIL                      0-0-0/w STRC(72)          1 MVIIS
     0-0-0/w STRC(144)         1 NEL                        0-0-0/w STRC(216)         1 OPEN_LTS
     0-0-0/w STRC(144)         1 OPN                        0-0-0/w STRC(180)         1 OS_CALL
     0-0-0/w STRC(36864)       1 PAGE                       0-0-0/w STRC(396)         1 PARA
     0-0-0/w STRC(216)         1 PFORM                      0-0-0/w STRC(144)         1 PINC
     0-0-0/w STRC(144)         1 PREOFF                     0-0-0/w STRC(108)         1 PRESET
     0-0-0/w STRC(144)         1 PRIME                      0-0-0/w STRC(396)         1 PROC_
     0-0-0/w STRC(396)         1 PROC_DEF                   0-0-0/w STRC(900)         1 PROC_SUPP
     0-0-0/w STRC(144)         1 P_A_PRESET                 0-0-0/w STRC(144)         1 P_P_PRESET
     0-0-0/w STRC(216)   r     1 QLT                        0-0-0/w STRC(396)         1 RD
     0-0-0/w STRC(288)         1 READ_STMT                  0-0-0/w STRC(216)         1 REF
     0-0-0/w STRC(144)         1 REMEM                      0-0-0/w STRC(108)         1 RENAMES
     0-0-0/w STRC(720)         1 REPORT_01_LTS              0-0-0/w STRC(432)         1 REPORT_ELEM_LTS
     0-0-0/w STRC(252)         1 REPORT_GRP_LTS             0-0-0/w STRC(1332)        1 REPORT_LTS
     0-0-0/w STRC(288)         1 REWRITE_STMT               0-0-0/w STRC(144)         1 RVA_LTS
     0-0-0/w STRC(396)         1 SCALAR                     0-0-0/w STRC(144)         1 SCOPE
     0-0-0/w STRC(396)         1 SD                         0-0-0/w STRC(216)         1 SEARCH_
     0-0-0/w STRC(396)         1 SECTION                    0-0-0/w STRC(396)         1 SEGMENT
     0-0-0/w STRC(360)         1 SEGMENT_LTS                0-0-0/w STRC(396)         1 ST
     0-0-0/w STRC(288)         1 START_STMT                 0-0-0/w STRC(72)          1 STP2
     0-0-0/w STRC(252)         1 STRING_STMT                0-0-0/w STRC(288)         1 SUBTRACT_STMT
     0-0-0/w STRC(252)         1 SUM_LTS                    0-0-0/w STRC(396)         1 SWITCH
     0-0-0/w STRC(396)         1 SYMBOLIC_CHAR              0-0-0/w STRC(396)         1 SYMDEF_
     0-0-0/w STRC(396)         1 SYMREF_                    0-0-0/w STRC(396)         1 TEMP
PL6.E3A0      #003=Z8E8$INIT_ARRAY File=Z8E8.:Z8A6TSI                            SAT 08/09/97 11:42 Page:151
     0-0-0/w STRC(144)         1 TRINARY_ILL                0-0-0/w STRC(72)          1 UNARY_ILL
     0-0-0/w STRC(288)         1 UNARY_OP                   0-0-0/w STRC(288)         1 UNSTRING_STMT
     0-0-0/d STRC(612)         1 USE                        0-0-0/w STRC(216)         1 USER_CALL
     0-0-0/w STRC(252)         1 USE_SUPP                   0-0-0/w STRC(108)         1 VAL
     0-0-0/w STRC(108)         1 VAL_END                    0-0-0/w STRC(396)   r     1 VARIABLE
     0-0-0/w STRC(72)          1 WHEN                       0-0-0/w STRC(288)         1 WRITE_STMT


   Procedure Z8E8$INIT_ARRAY requires 328 words for executable code.
   Procedure Z8E8$INIT_ARRAY requires 64 words of local(AUTO) storage.

PL6.E3A0      #004=Z8E8$ASSIGN_ARRAY_PRESET File=Z8E8.:Z8A6TSI                   SAT 08/09/97 11:45 Page:152
      883        1        /*T***********************************************************/
      884        2        /*T*                                                         */
      885        3        /*T* Copyright (c) Bull HN Information Systems Inc., 1997    */
      886        4        /*T*                                                         */
      887        5        /*T***********************************************************/
      888        6
      889        7         /*========================*/
      890        8           Z8E8$ASSIGN_ARRAY_PRESET: PROC (QLT$$);
      891        9         /*========================*/
      892       10
      893       11        %EQU PHASE = 1;
      894       12
      895       13        %INCLUDE Z8A_DEFC;
      896       81        %INCLUDE Z8A_SUPP_MAC;
      897     2481        %INCLUDE Z8A_ST;
      898     6140        %INCLUDE Z8A_QLT;
      899     6246
      900     6247
      901     6248    1   DCL QLT$$      PTR;
      902     6249    1   DCL ST$$       PTR;
      903     6250
      904     6251
      905     6252    1          QLT$$ -> QLT.ST$ -> SCALAR.B.ARRAY_PRESET = TRUE;
      906     6253
      907     6254    1          IF QLT$$ -> QLT.SON ~= ADDR(NIL) THEN
      908     6255    1            CALL Z8E8$ASSIGN_ARRAY_PRESET (QLT$$ -> QLT.SON);
      909     6256
      910     6257    1          IF QLT$$ -> QLT.BROTHER ~= ADDR(NIL) THEN
      911     6258    1            CALL Z8E8$ASSIGN_ARRAY_PRESET (QLT$$ -> QLT.BROTHER);
      912     6259
      913     6260    1    END Z8E8$ASSIGN_ARRAY_PRESET;

PL6.E3A0      #004=Z8E8$ASSIGN_ARRAY_PRESET File=Z8E8.:Z8A6TSI                   SAT 08/09/97 11:45 Page:153
--  Include file information  --

   Z8A_QLT.:Z8A6TOU  cannot be made into a system file and is referenced.
   Z8A_ST.:Z8A6TOU  cannot be made into a system file and is referenced.
   X8A_COM_MACS.:X8A6TOU  is referenced.
   Z8A_NAMES.:Z8A6TOU  is referenced.
   Z8A_SUPP_MAC.:Z8A6TOU  is referenced.
   Z8A_DEFC.:Z8A6TOU  cannot be made into a system file and is referenced.
      No diagnostics issued in procedure Z8E8$ASSIGN_ARRAY_PRESET.

   Procedure Z8E8$ASSIGN_ARRAY_PRESET requires 29 words for executable code.
   Procedure Z8E8$ASSIGN_ARRAY_PRESET requires 8 words of local(AUTO) storage.

    No errors detected in file Z8E8.:Z8A6TSI    .

PL6.E3A0      #004=Z8E8$ASSIGN_ARRAY_PRESET File=Z8E8.:Z8A6TSI                   SAT 08/09/97 11:45 Page:154

 Object Unit name= Z8E8$ASSIGN_ARRAY_PRESET                   File name= Z8E8.:Z8A6TOU
 UTS= AUG 09 '97 11:45:08.12 SAT                              Compiler= PL-6/E31         Sev=      00
 SharedLib= :SHARED_SYSTEM                                    Alt SharedLib=


    ****  Control sections  ****

 Sect   Type Bound  Init  Size OctSiz  Section name(segment info)
    0  LblCom even  none     1      1  ITERATION
    1  LblCom even  none     1      1  ST$
    2  LblCom even  none     5      5  ST_
    3  LblCom even  none     1      1  QLT$
    4  LblCom even  none     1      1  PREV_01_QLT$
    5  LblCom even  none     5      5  QLT_
    6   Proc  even  none    29     35  Z8E8$ASSIGN_ARRAY_PRESET
    7  RoData even  none     2      2  Z8E8$ASSIGN_ARRAY_PRESET

    ****  Entry defs  ****

                              Check   Calling
                             calling  sequence
  Sect OctLoc Primary Altret sequence   type   Parms  Name
     6      0   yes            yes      Std        1  Z8E8$ASSIGN_ARRAY_PRESET

  ****  Entry refs  ****

         Check        Calling
        calling       sequence
Altret sequence SRef   type   Args  Name
                       nStd      0 X66_AUTO_1
                       nStd      0 X66_ARET
PL6.E3A0      #004=Z8E8$ASSIGN_ARRAY_PRESET File=Z8E8.:Z8A6TSI                   SAT 08/09/97 11:45 Page:155

  ****  Segment refs  ****

  Flags:  r = read only, s = secondary
Flgs Name                             Flgs Name                             Flgs Name
     NULLSID
PL6.E3A0      #004=Z8E8$ASSIGN_ARRAY_PRESET File=Z8E8.:Z8A6TSI                   SAT 08/09/97 11:45 Page:156


      883        1        /*T***********************************************************/
      884        2        /*T*                                                         */
      885        3        /*T* Copyright (c) Bull HN Information Systems Inc., 1997    */
      886        4        /*T*                                                         */
      887        5        /*T***********************************************************/
      888        6
      889        7         /*========================*/
      890        8           Z8E8$ASSIGN_ARRAY_PRESET: PROC (QLT$$);

      8  6 000000   000000 700200 xent  Z8E8$ASSIGN* TSX0  ! X66_AUTO_1
         6 000001   000010 000001                    ZERO    8,1

      891        9         /*========================*/
      892       10
      893       11        %EQU PHASE = 1;
      894       12
      895       13        %INCLUDE Z8A_DEFC;
      896       81        %INCLUDE Z8A_SUPP_MAC;
      897     2481        %INCLUDE Z8A_ST;
      898     6140        %INCLUDE Z8A_QLT;
      899     6246
      900     6247
      901     6248    1   DCL QLT$$      PTR;
      902     6249    1   DCL ST$$       PTR;
      903     6250
      904     6251
      905     6252    1          QLT$$ -> QLT.ST$ -> SCALAR.B.ARRAY_PRESET = TRUE;

   6252  6 000002   200003 470500                    LDP0    @QLT$$,,AUTO
         6 000003   000000 471500                    LDP1    0,,PR0
         6 000004   100004 473500                    LDP3    4,,PR1
         6 000005   000020 236007                    LDQ     16,DL
         6 000006   300003 256100                    ORSQ    3,,PR3

      906     6253
      907     6254    1          IF QLT$$ -> QLT.SON ~= ADDR(NIL) THEN
PL6.E3A0      #004=Z8E8$ASSIGN_ARRAY_PRESET File=Z8E8.:Z8A6TSI                   SAT 08/09/97 11:45 Page:157

   6254  6 000007   000000 471500                    LDP1    0,,PR0
         6 000010   100003 236100                    LDQ     3,,PR1
         6 000011   000000 116000 7                  CMPQ    0
         6 000012   000021 600000 6                  TZE     s:6257

      908     6255    1            CALL Z8E8$ASSIGN_ARRAY_PRESET (QLT$$ -> QLT.SON);

   6255  6 000013   100003 633500                    EPPR3   3,,PR1
         6 000014   200006 453500                    STP3    ST$$+2,,AUTO
         6 000015   200006 630500                    EPPR0   ST$$+2,,AUTO
         6 000016   000001 631400 7                  EPPR1   1
         6 000017   000000 701000 6                  TSX1    s:8
         6 000020   000000 011000                    NOP     0

      909     6256
      910     6257    1          IF QLT$$ -> QLT.BROTHER ~= ADDR(NIL) THEN

   6257  6 000021   200003 470500                    LDP0    @QLT$$,,AUTO
         6 000022   000000 471500                    LDP1    0,,PR0
         6 000023   100002 236100                    LDQ     2,,PR1
         6 000024   000000 116000 7                  CMPQ    0
         6 000025   000034 600000 6                  TZE     s:6260

      911     6258    1            CALL Z8E8$ASSIGN_ARRAY_PRESET (QLT$$ -> QLT.BROTHER);

   6258  6 000026   100002 633500                    EPPR3   2,,PR1
         6 000027   200006 453500                    STP3    ST$$+2,,AUTO
         6 000030   200006 630500                    EPPR0   ST$$+2,,AUTO
         6 000031   000001 631400 7                  EPPR1   1
         6 000032   000000 701000 6                  TSX1    s:8
         6 000033   000000 011000                    NOP     0

      912     6259
      913     6260    1    END Z8E8$ASSIGN_ARRAY_PRESET;

   6260  6 000034   000000 702200 xent               TSX2  ! X66_ARET
PL6.E3A0      #004=Z8E8$ASSIGN_ARRAY_PRESET File=Z8E8.:Z8A6TSI                   SAT 08/09/97 11:45 Page:158

PL6.E3A0      #004=Z8E8$ASSIGN_ARRAY_PRESET File=Z8E8.:Z8A6TSI                   SAT 08/09/97 11:45 Page:159
--  Include file information  --

   Z8A_QLT.:Z8A6TOU  cannot be made into a system file and is referenced.
   Z8A_ST.:Z8A6TOU  cannot be made into a system file and is referenced.
   X8A_COM_MACS.:X8A6TOU  is referenced.
   Z8A_NAMES.:Z8A6TOU  is referenced.
   Z8A_SUPP_MAC.:Z8A6TOU  is referenced.
   Z8A_DEFC.:Z8A6TOU  cannot be made into a system file and is referenced.
      No diagnostics issued in procedure Z8E8$ASSIGN_ARRAY_PRESET.
PL6.E3A0      #004=Z8E8$ASSIGN_ARRAY_PRESET File=Z8E8.:Z8A6TSI                   SAT 08/09/97 11:45 Page:160

 **** Variables and constants ****

  ****  Section 000 LblCom ITERATION

  ****  Scalars and arrays  ****
OctLoc.c.b A Datatyp(siz) R M Lvl/name                 OctLoc.c.b A Datatyp(siz) R M Lvl/name

     0-0-0/w SBIN              1 ITERATION

  ****  Section 001 LblCom ST$

  ****  Scalars and arrays  ****
OctLoc.c.b A Datatyp(siz) R M Lvl/name                 OctLoc.c.b A Datatyp(siz) R M Lvl/name

     0-0-0/w PTR         r     1 ST$

  ****  Section 002 LblCom ST_

  ****  Scalars and arrays  ****
OctLoc.c.b A Datatyp(siz) R M Lvl/name                 OctLoc.c.b A Datatyp(siz) R M Lvl/name

     0-0-0/w STRC(180)         1 ST_

  ****  Section 003 LblCom QLT$

  ****  Scalars and arrays  ****
OctLoc.c.b A Datatyp(siz) R M Lvl/name                 OctLoc.c.b A Datatyp(siz) R M Lvl/name

     0-0-0/w PTR         r     1 QLT$

  ****  Section 004 LblCom PREV_01_QLT$

  ****  Scalars and arrays  ****
OctLoc.c.b A Datatyp(siz) R M Lvl/name                 OctLoc.c.b A Datatyp(siz) R M Lvl/name

     0-0-0/w PTR               1 PREV_01_QLT$

PL6.E3A0      #004=Z8E8$ASSIGN_ARRAY_PRESET File=Z8E8.:Z8A6TSI                   SAT 08/09/97 11:45 Page:161
  ****  Section 005 LblCom QLT_

  ****  Scalars and arrays  ****
OctLoc.c.b A Datatyp(siz) R M Lvl/name                 OctLoc.c.b A Datatyp(siz) R M Lvl/name

     0-0-0/w STRC(180)         1 QLT_

  ****  Auto variables  ****

  ****  Scalars and arrays  ****
OctLoc.c.b A Datatyp(siz) R M Lvl/name                 OctLoc.c.b A Datatyp(siz) R M Lvl/name

     3-0-0/w PTR         r     1 @QLT$$                    *0-0-0/w PTR         r     1 QLT$$
     4-0-0/w PTR               1 ST$$

  ****  BASED and DCB variables  ****

  ****  Scalars and arrays  ****
OctLoc.c.b A Datatyp(siz) R M Lvl/name                 OctLoc.c.b A Datatyp(siz) R M Lvl/name

     0-0-0/w STRC(396)         1 ALPHABET                   0-0-0/w STRC(396)         1 ARRAY
     0-0-0/w STRC(396)         1 BLOCK                      0-0-0/w STRC(396)         1 CD
     0-0-0/w CHAR(4096)        1 CHARS                      0-0-0/w STRC(396)         1 CLASS
     0-0-0/w STRC(396)         1 CONDITION                  0-0-0/w STRC(396)         1 CONST
     0-0-0/w STRC(72)          1 CONT                       0-0-0/w STRC(396)         1 DB
     0-0-0/w STRC(396)         1 DCB_                       0-0-0/w STRC(396)         1 DML_ITEM
     0-0-0/w STRC(396)         1 FD                         0-0-0/w STRC(396)         1 INTDEF
     0-0-0/w STRC(396)         1 LABEL                      0-0-0/w STRC(396)         1 MNEMONIC
     0-0-0/w STRC(36864)       1 PAGE                       0-0-0/w STRC(396)         1 PARA
     0-0-0/w STRC(396)         1 PROC_                      0-0-0/w STRC(396)         1 PROC_DEF
     0-0-0/w STRC(216)   r     1 QLT                        0-0-0/w STRC(396)         1 RD
     0-0-0/w STRC(396)   r     1 SCALAR                     0-0-0/w STRC(396)         1 SD
     0-0-0/w STRC(396)         1 SECTION                    0-0-0/w STRC(396)         1 SEGMENT
     0-0-0/w STRC(396)         1 ST                         0-0-0/w STRC(396)         1 SWITCH
     0-0-0/w STRC(396)         1 SYMBOLIC_CHAR              0-0-0/w STRC(396)         1 SYMDEF_
     0-0-0/w STRC(396)         1 SYMREF_                    0-0-0/w STRC(396)         1 TEMP
     0-0-0/w STRC(396)         1 VARIABLE
PL6.E3A0      #004=Z8E8$ASSIGN_ARRAY_PRESET File=Z8E8.:Z8A6TSI                   SAT 08/09/97 11:45 Page:162


   Procedure Z8E8$ASSIGN_ARRAY_PRESET requires 29 words for executable code.
   Procedure Z8E8$ASSIGN_ARRAY_PRESET requires 8 words of local(AUTO) storage.

    No errors detected in file Z8E8.:Z8A6TSI    .
