PL6.E3A0      #002=Z8EA$SUBSTR_ZERO File=Z8EA.:Z8A6TSI                           SAT 08/09/97 11:47 Page:469
     3036        1        /*T***********************************************************/
     3037        2        /*T*                                                         */
     3038        3        /*T* Copyright (c) Bull HN Information Systems Inc., 1997    */
     3039        4        /*T*                                                         */
     3040        5        /*T***********************************************************/
     3041        6        /*================*/
     3042        7          Z8EA$SUBSTR_ZERO: PROC (ALPHA$, START$, LENGTH$, RESULT$) ;
     3043        8        /*================*/
     3044        9
     3045       10        /*I*   NAME: Z8EA$SUBSTR_ZERO
     3046       11
     3047       12        DESCRIPTION: Does a zero based SUBSTR (a la PL6).  Adds one
     3048       13                     to START$, then calls the one based SUBSTR (a la
     3049       14                     Cobol-85).
     3050       15
     3051       16              INPUT: Same as Z8EY$SUBSTR_NO_SBCHK.
     3052       17
     3053       18             OUTPUT: RESULT$.  All args are LX_ETT_ITEMS.
     3054       19
     3055       20        */
     3056       21
     3057       22        %EQU PHASE = 1 ;
     3058       23        %INCLUDE Z8A_DEFC ;
     3059       91        %INCLUDE Z8A_SUPP_MAC ;
     3060     2491        %INCLUDE Z8A_TYPES ;
     3061     2665        %INCLUDE Z8E_MACROS ;
     3062     3340        %INCLUDE Z8E_STACKS ;
     3063     5606
     3064     5607    1   DCL  ALPHA$   PTR ;
     3065     5608    1   DCL  START$   PTR ;
     3066     5609    1   DCL  LENGTH$  PTR ;
     3067     5610    1   DCL  RESULT$  PTR ;
     3068     5611    1   DCL  ADD$     PTR ;
     3069     5612    1   DCL  ONE_LX_ETT$   PTR ;
     3070     5613    1   DCL  CONV_FLAG BOOLEAN;
     3071     5614
     3072     5615    1   DCL  Z8AC$LX_ETT_ITEM_TYI_CONST  ENTRY (2) ;
PL6.E3A0      #002=Z8EA$SUBSTR_ZERO File=Z8EA.:Z8A6TSI                           SAT 08/09/97 11:47 Page:470
     3073     5616    1   DCL  Z8E5$MATH_PACK  ENTRY (2) ;
     3074     5617    1   DCL  Z8EY$SUBSTR_NO_SBCHK ENTRY (4) ;
     3075     5618    1   DCL  Z8EY$INSERT     ENTRY (4) ;
     3076     5619
     3077     5620        %DCL_AUTO_LX_ITEM (@NAME = ADD) ;
     3078     5624        %DCL_AUTO_LX_ITEM (@NAME = ONE_LX_ETT) ;
     3079     5628
     3080     5629    1          CONV_FLAG = TRUE ;
     3081     5630    1          GOTO SUBSTR_COMMON ;
     3082     5631
     3083     5632        /*================*/
     3084     5633    1     Z8EA$INSERT_ZERO: ENTRY (ALPHA$, START$, LENGTH$, RESULT$) ;
     3085     5634        /*================*/
     3086     5635    1          CONV_FLAG = FALSE ;
     3087     5636    1   SUBSTR_COMMON:
     3088     5637
     3089     5638    1          ADD$ = ADDR (ADD) ;
     3090     5639    1          ONE_LX_ETT$ = ADDR (ONE_LX_ETT) ;
     3091     5640    1          CALL Z8AC$LX_ETT_ITEM_TYI_CONST (1, ONE_LX_ETT$) ;
     3092     5641
     3093     5642               %INIT_BINARY_OP (@POINTER = ADD$,
     3094     5643                                @LOP$    = START$,
     3095     5644                                @OP      = %OP_PLUS,
     3096     5645                                @ROP$    = ONE_LX_ETT$,
     3097     5646                                @LINE    = "ALPHA$ -> LX_ETT_ITEM.LINE",
     3098     5647                                @COLUMN  = "ALPHA$ -> LX_ETT_ITEM.COLUMN") ;
     3099     5665
     3100     5666    1          CALL Z8E5$MATH_PACK (ADD$, ADD$) ;
     3101     5667
     3102     5668    1          IF CONV_FLAG
     3103     5669    1            THEN CALL Z8EY$SUBSTR_NO_SBCHK (ALPHA$, ADD$, LENGTH$, RESULT$) ;
     3104     5670    1            ELSE CALL Z8EY$INSERT (ALPHA$, ADD$, LENGTH$, RESULT$) ;
     3105     5671
     3106     5672    1   END Z8EA$SUBSTR_ZERO ;
     3107     5673
     3108     5674        %EOD;

PL6.E3A0      #002=Z8EA$SUBSTR_ZERO File=Z8EA.:Z8A6TSI                           SAT 08/09/97 11:47 Page:471
--  Include file information  --

   Z8A_LEX_SYMB.:Z8A6TOU  cannot be made into a system file and is referenced.
   Z8E_STACKS.:Z8A6TOU  cannot be made into a system file and is referenced.
   Z8E_NEW_ILL.:Z8A6TOU  is referenced.
   Z8E_MACROS.:Z8A6TOU  cannot be made into a system file and is referenced.
   Z8A_TYPES.:Z8A6TOU  is referenced.
   X8A_COM_MACS.:X8A6TOU  is referenced.
   Z8A_NAMES.:Z8A6TOU  is referenced.
   Z8A_SUPP_MAC.:Z8A6TOU  is referenced.
   Z8A_DEFC.:Z8A6TOU  cannot be made into a system file and is referenced.
      No diagnostics issued in procedure Z8EA$SUBSTR_ZERO.

   Procedure Z8EA$SUBSTR_ZERO requires 82 words for executable code.
   Procedure Z8EA$SUBSTR_ZERO requires 30 words of local(AUTO) storage.

PL6.E3A0      #002=Z8EA$SUBSTR_ZERO File=Z8EA.:Z8A6TSI                           SAT 08/09/97 11:47 Page:472

 Object Unit name= Z8EA$SUBSTR_ZERO                           File name= Z8EA.:Z8A6TOU
 UTS= AUG 09 '97 11:47:50.28 SAT                              Compiler= PL-6/E31         Sev=      00
 SharedLib= :SHARED_SYSTEM                                    Alt SharedLib=


    ****  Control sections  ****

 Sect   Type Bound  Init  Size OctSiz  Section name(segment info)
    0  LblCom even  none     1      1  ITERATION
    1  LblCom even  none    90    132  LEX_SYMBOL
    2  LblCom even  none     1      1  CURRENT_LEX_SYMBOL$
    3  LblCom even  none    90    132  TEMP_LEX_SYMBOL
    4  LblCom even  none    90    132  TEMP_LEX_SYMBOL2
    5   Proc  even  none    82    122  Z8EA$SUBSTR_ZERO
    6  RoData even  none     5      5  Z8EA$SUBSTR_ZERO

    ****  Entry defs  ****

                              Check   Calling
                             calling  sequence
  Sect OctLoc Primary Altret sequence   type   Parms  Name
     5      0   yes            yes      Std        4  Z8EA$SUBSTR_ZERO
     5      5                  yes      Std        4  Z8EA$INSERT_ZERO

  ****  Entry refs  ****

         Check        Calling
        calling       sequence
Altret sequence SRef   type   Args  Name
         yes           Std       2 Z8AC$LX_ETT_ITEM_TYI_CONST
         yes           Std       4 Z8EY$SUBSTR_NO_SBCHK
         yes           Std       2 Z8E5$MATH_PACK
         yes           Std       4 Z8EY$INSERT
                       nStd      0 X66_AUTO_4
                       nStd      0 X66_ARET
PL6.E3A0      #002=Z8EA$SUBSTR_ZERO File=Z8EA.:Z8A6TSI                           SAT 08/09/97 11:47 Page:473

  ****  Segment refs  ****

  Flags:  r = read only, s = secondary
Flgs Name                             Flgs Name                             Flgs Name
     ISSID                                 NULLSID
PL6.E3A0      #002=Z8EA$SUBSTR_ZERO File=Z8EA.:Z8A6TSI                           SAT 08/09/97 11:47 Page:474


     3036        1        /*T***********************************************************/
     3037        2        /*T*                                                         */
     3038        3        /*T* Copyright (c) Bull HN Information Systems Inc., 1997    */
     3039        4        /*T*                                                         */
     3040        5        /*T***********************************************************/
     3041        6        /*================*/
     3042        7          Z8EA$SUBSTR_ZERO: PROC (ALPHA$, START$, LENGTH$, RESULT$) ;

      7  5 000000   000000 700200 xent  Z8EA$SUBSTR* TSX0  ! X66_AUTO_4
         5 000001   000036 000004                    ZERO    30,4

     3043        8        /*================*/
     3044        9
     3045       10        /*I*   NAME: Z8EA$SUBSTR_ZERO
     3046       11
     3047       12        DESCRIPTION: Does a zero based SUBSTR (a la PL6).  Adds one
     3048       13                     to START$, then calls the one based SUBSTR (a la
     3049       14                     Cobol-85).
     3050       15
     3051       16              INPUT: Same as Z8EY$SUBSTR_NO_SBCHK.
     3052       17
     3053       18             OUTPUT: RESULT$.  All args are LX_ETT_ITEMS.
     3054       19
     3055       20        */
     3056       21
     3057       22        %EQU PHASE = 1 ;
     3058       23        %INCLUDE Z8A_DEFC ;
     3059       91        %INCLUDE Z8A_SUPP_MAC ;
     3060     2491        %INCLUDE Z8A_TYPES ;
     3061     2665        %INCLUDE Z8E_MACROS ;
     3062     3340        %INCLUDE Z8E_STACKS ;
     3063     5606
     3064     5607    1   DCL  ALPHA$   PTR ;
     3065     5608    1   DCL  START$   PTR ;
     3066     5609    1   DCL  LENGTH$  PTR ;
     3067     5610    1   DCL  RESULT$  PTR ;
PL6.E3A0      #002=Z8EA$SUBSTR_ZERO File=Z8EA.:Z8A6TSI                           SAT 08/09/97 11:47 Page:475
     3068     5611    1   DCL  ADD$     PTR ;
     3069     5612    1   DCL  ONE_LX_ETT$   PTR ;
     3070     5613    1   DCL  CONV_FLAG BOOLEAN;
     3071     5614
     3072     5615    1   DCL  Z8AC$LX_ETT_ITEM_TYI_CONST  ENTRY (2) ;
     3073     5616    1   DCL  Z8E5$MATH_PACK  ENTRY (2) ;
     3074     5617    1   DCL  Z8EY$SUBSTR_NO_SBCHK ENTRY (4) ;
     3075     5618    1   DCL  Z8EY$INSERT     ENTRY (4) ;
     3076     5619
     3077     5620        %DCL_AUTO_LX_ITEM (@NAME = ADD) ;
     3078     5624        %DCL_AUTO_LX_ITEM (@NAME = ONE_LX_ETT) ;
     3079     5628
     3080     5629    1          CONV_FLAG = TRUE ;

   5629  5 000002   400000 236003                    LDQ     -131072,DU
         5 000003   200011 756100                    STQ     CONV_FLAG,,AUTO

     3081     5630    1          GOTO SUBSTR_COMMON ;

   5630  5 000004   000010 710000 5                  TRA     SUBSTR_COMMON

     3082     5631
     3083     5632        /*================*/
     3084     5633    1     Z8EA$INSERT_ZERO: ENTRY (ALPHA$, START$, LENGTH$, RESULT$) ;

   5633  5 000005   000000 700200 xent  Z8EA$INSERT* TSX0  ! X66_AUTO_4
         5 000006   000036 000004                    ZERO    30,4

     3085     5634        /*================*/
     3086     5635    1          CONV_FLAG = FALSE ;

   5635  5 000007   200011 450100                    STZ     CONV_FLAG,,AUTO

     3087     5636    1   SUBSTR_COMMON:
     3088     5637
     3089     5638    1          ADD$ = ADDR (ADD) ;

PL6.E3A0      #002=Z8EA$SUBSTR_ZERO File=Z8EA.:Z8A6TSI                           SAT 08/09/97 11:47 Page:476
   5638  5 000010   200012 630500       SUBSTR_COMM* EPPR0   ADD,,AUTO
         5 000011   200007 450500                    STP0    ADD$,,AUTO

     3090     5639    1          ONE_LX_ETT$ = ADDR (ONE_LX_ETT) ;

   5639  5 000012   200022 631500                    EPPR1   ONE_LX_ETT,,AUTO
         5 000013   200010 451500                    STP1    ONE_LX_ETT$,,AUTO

     3091     5640    1          CALL Z8AC$LX_ETT_ITEM_TYI_CONST (1, ONE_LX_ETT$) ;

   5640  5 000014   200010 633500                    EPPR3   ONE_LX_ETT$,,AUTO
         5 000015   200033 453500                    STP3    ONE_LX_ETT+9,,AUTO
         5 000016   000002 236000 6                  LDQ     2
         5 000017   200032 756100                    STQ     ONE_LX_ETT+8,,AUTO
         5 000020   200032 630500                    EPPR0   ONE_LX_ETT+8,,AUTO
         5 000021   000000 631400 6                  EPPR1   0
         5 000022   000000 701000 xent               TSX1    Z8AC$LX_ETT_ITEM_TYI_CONST
         5 000023   000000 011000                    NOP     0

     3092     5641
     3093     5642               %INIT_BINARY_OP (@POINTER = ADD$,
     3094     5643                                @LOP$    = START$,
     3095     5644                                @OP      = %OP_PLUS,
     3096     5645                                @ROP$    = ONE_LX_ETT$,
     3097     5646                                @LINE    = "ALPHA$ -> LX_ETT_ITEM.LINE",
     3098     5647                                @COLUMN  = "ALPHA$ -> LX_ETT_ITEM.COLUMN") ;

   5649  5 000024   000005 220003                    LDX0    5,DU
         5 000025   200007 470500                    LDP0    ADD$,,AUTO
         5 000026   000000 740100                    STX0    0,,PR0

   5650  5 000027   000000 221003                    LDX1    0,DU
         5 000030   200007 470500                    LDP0    ADD$,,AUTO
         5 000031   000000 441100                    SXL1    0,,PR0

   5657  5 000032   200003 470500                    LDP0    @ALPHA$,,AUTO
         5 000033   000000 471500                    LDP1    0,,PR0
PL6.E3A0      #002=Z8EA$SUBSTR_ZERO File=Z8EA.:Z8A6TSI                           SAT 08/09/97 11:47 Page:477
         5 000034   200007 473500                    LDP3    ADD$,,AUTO
         5 000035   100005 235100                    LDA     5,,PR1
         5 000036   300005 755100                    STA     5,,PR3

   5658  5 000037   000000 471500                    LDP1    0,,PR0
         5 000040   200007 473500                    LDP3    ADD$,,AUTO
         5 000041   100006 235100                    LDA     6,,PR1
         5 000042   300006 755100                    STA     6,,PR3

   5659  5 000043   200010 236100                    LDQ     ONE_LX_ETT$,,AUTO
         5 000044   200007 471500                    LDP1    ADD$,,AUTO
         5 000045   100002 756100                    STQ     2,,PR1

   5660  5 000046   200004 471500                    LDP1    @START$,,AUTO
         5 000047   100000 236100                    LDQ     0,,PR1
         5 000050   200007 473500                    LDP3    ADD$,,AUTO
         5 000051   300001 756100                    STQ     1,,PR3

   5661  5 000052   000020 235007                    LDA     16,DL
         5 000053   200007 473500                    LDP3    ADD$,,AUTO
         5 000054   300003 755100                    STA     3,,PR3

   5662  5 000055   000003 236000 6                  LDQ     3
         5 000056   200007 473500                    LDP3    ADD$,,AUTO
         5 000057   300007 756100                    STQ     7,,PR3

     3099     5665
     3100     5666    1          CALL Z8E5$MATH_PACK (ADD$, ADD$) ;

   5666  5 000060   200007 633500                    EPPR3   ADD$,,AUTO
         5 000061   200033 453500                    STP3    ONE_LX_ETT+9,,AUTO
         5 000062   200007 634500                    EPPR4   ADD$,,AUTO
         5 000063   200032 454500                    STP4    ONE_LX_ETT+8,,AUTO
         5 000064   200032 630500                    EPPR0   ONE_LX_ETT+8,,AUTO
         5 000065   000000 631400 6                  EPPR1   0
         5 000066   000000 701000 xent               TSX1    Z8E5$MATH_PACK
         5 000067   000000 011000                    NOP     0
PL6.E3A0      #002=Z8EA$SUBSTR_ZERO File=Z8EA.:Z8A6TSI                           SAT 08/09/97 11:47 Page:478

     3101     5667
     3102     5668    1          IF CONV_FLAG

   5668  5 000070   200011 234100                    SZN     CONV_FLAG,,AUTO
         5 000071   000106 605000 5                  TPL     s:5670

     3103     5669    1            THEN CALL Z8EY$SUBSTR_NO_SBCHK (ALPHA$, ADD$, LENGTH$, RESULT$) ;

   5669  5 000072   200006 236100                    LDQ     @RESULT$,,AUTO
         5 000073   200005 235100                    LDA     @LENGTH$,,AUTO
         5 000074   200034 757100                    STAQ    ONE_LX_ETT+10,,AUTO
         5 000075   200007 630500                    EPPR0   ADD$,,AUTO
         5 000076   200033 450500                    STP0    ONE_LX_ETT+9,,AUTO
         5 000077   200003 236100                    LDQ     @ALPHA$,,AUTO
         5 000100   200032 756100                    STQ     ONE_LX_ETT+8,,AUTO
         5 000101   200032 630500                    EPPR0   ONE_LX_ETT+8,,AUTO
         5 000102   000004 631400 6                  EPPR1   4
         5 000103   000000 701000 xent               TSX1    Z8EY$SUBSTR_NO_SBCHK
         5 000104   000000 011000                    NOP     0
         5 000105   000121 710000 5                  TRA     s:5672

     3104     5670    1            ELSE CALL Z8EY$INSERT (ALPHA$, ADD$, LENGTH$, RESULT$) ;

   5670  5 000106   200006 236100                    LDQ     @RESULT$,,AUTO
         5 000107   200005 235100                    LDA     @LENGTH$,,AUTO
         5 000110   200034 757100                    STAQ    ONE_LX_ETT+10,,AUTO
         5 000111   200007 630500                    EPPR0   ADD$,,AUTO
         5 000112   200033 450500                    STP0    ONE_LX_ETT+9,,AUTO
         5 000113   200003 236100                    LDQ     @ALPHA$,,AUTO
         5 000114   200032 756100                    STQ     ONE_LX_ETT+8,,AUTO
         5 000115   200032 630500                    EPPR0   ONE_LX_ETT+8,,AUTO
         5 000116   000004 631400 6                  EPPR1   4
         5 000117   000000 701000 xent               TSX1    Z8EY$INSERT
         5 000120   000000 011000                    NOP     0

     3105     5671
PL6.E3A0      #002=Z8EA$SUBSTR_ZERO File=Z8EA.:Z8A6TSI                           SAT 08/09/97 11:47 Page:479
     3106     5672    1   END Z8EA$SUBSTR_ZERO ;

   5672  5 000121   000000 702200 xent               TSX2  ! X66_ARET
     3107     5673
     3108     5674        %EOD;

PL6.E3A0      #002=Z8EA$SUBSTR_ZERO File=Z8EA.:Z8A6TSI                           SAT 08/09/97 11:47 Page:480
--  Include file information  --

   Z8A_LEX_SYMB.:Z8A6TOU  cannot be made into a system file and is referenced.
   Z8E_STACKS.:Z8A6TOU  cannot be made into a system file and is referenced.
   Z8E_NEW_ILL.:Z8A6TOU  is referenced.
   Z8E_MACROS.:Z8A6TOU  cannot be made into a system file and is referenced.
   Z8A_TYPES.:Z8A6TOU  is referenced.
   X8A_COM_MACS.:X8A6TOU  is referenced.
   Z8A_NAMES.:Z8A6TOU  is referenced.
   Z8A_SUPP_MAC.:Z8A6TOU  is referenced.
   Z8A_DEFC.:Z8A6TOU  cannot be made into a system file and is referenced.
      No diagnostics issued in procedure Z8EA$SUBSTR_ZERO.
PL6.E3A0      #002=Z8EA$SUBSTR_ZERO File=Z8EA.:Z8A6TSI                           SAT 08/09/97 11:47 Page:481

 **** Variables and constants ****

  ****  Section 000 LblCom ITERATION

  ****  Scalars and arrays  ****
OctLoc.c.b A Datatyp(siz) R M Lvl/name                 OctLoc.c.b A Datatyp(siz) R M Lvl/name

     0-0-0/w SBIN              1 ITERATION

  ****  Section 001 LblCom LEX_SYMBOL

  ****  Scalars and arrays  ****
OctLoc.c.b A Datatyp(siz) R M Lvl/name                 OctLoc.c.b A Datatyp(siz) R M Lvl/name

     0-0-0/w STRC(3240)  r     1 LEX_SYMBOL                 0-0-0/w STRC(3240)        1 LEX_SYMBOL_WORDS

  ****  Section 002 LblCom CURRENT_LEX_SYMBOL$

  ****  Scalars and arrays  ****
OctLoc.c.b A Datatyp(siz) R M Lvl/name                 OctLoc.c.b A Datatyp(siz) R M Lvl/name

     0-0-0/w PTR         r     1 CURRENT_LEX_SYMBOL$

  ****  Section 003 LblCom TEMP_LEX_SYMBOL

  ****  Scalars and arrays  ****
OctLoc.c.b A Datatyp(siz) R M Lvl/name                 OctLoc.c.b A Datatyp(siz) R M Lvl/name

     0-0-0/w STRC(3240)        1 TEMP_LEX_SYMBOL

  ****  Section 004 LblCom TEMP_LEX_SYMBOL2

  ****  Scalars and arrays  ****
OctLoc.c.b A Datatyp(siz) R M Lvl/name                 OctLoc.c.b A Datatyp(siz) R M Lvl/name

     0-0-0/w STRC(3240)        1 TEMP_LEX_SYMBOL2

PL6.E3A0      #002=Z8EA$SUBSTR_ZERO File=Z8EA.:Z8A6TSI                           SAT 08/09/97 11:47 Page:482
  ****  Auto variables  ****

  ****  Scalars and arrays  ****
OctLoc.c.b A Datatyp(siz) R M Lvl/name                 OctLoc.c.b A Datatyp(siz) R M Lvl/name

     3-0-0/w PTR         r     1 @ALPHA$                    5-0-0/w PTR         r     1 @LENGTH$
     6-0-0/w PTR         r     1 @RESULT$                   4-0-0/w PTR         r     1 @START$
    12-0-0/d STRC(288)   r     1 ADD                        7-0-0/w PTR         r     1 ADD$
    *0-0-0/w PTR         r     1 ALPHA$                    11-0-0/b BIT         r     1 CONV_FLAG
    *0-0-0/w PTR         r     1 LENGTH$                   22-0-0/d STRC(288)   r     1 ONE_LX_ETT
    10-0-0/w PTR         r     1 ONE_LX_ETT$               *0-0-0/w PTR         r     1 RESULT$
    *0-0-0/w PTR         r     1 START$

  ****  BASED and DCB variables  ****

  ****  Scalars and arrays  ****
OctLoc.c.b A Datatyp(siz) R M Lvl/name                 OctLoc.c.b A Datatyp(siz) R M Lvl/name

     0-0-0/w STRC(288)         1 ADD_STMT                   0-0-0/w ASTR(324)   r     1 BASED_LEX_SYMBOL
     0-0-0/w STRC(360)         1 BASED_LEX_SYMBOL_WORDS
     0-0-0/w STRC(288)   r     1 BINARY_OP                  0-0-0/w STRC(288)         1 CALL_STMT
     0-0-0/w CHAR(4096)        1 CHARS                      0-0-0/w STRC(288)         1 COMPUTE_STMT
     0-0-0/w STRC(72)          1 CONT                       0-0-0/w STRC(288)         1 DEFERED_IDENTIFIER
     0-0-0/w STRC(252)         1 DEFERED_ID_TREE            0-0-0/w STRC(288)         1 DEFERED_QUAL_ID
     0-0-0/w STRC(288)         1 DEFERED_SUM_CLAUSE
     0-0-0/w STRC(288)         1 DEFERED_SUM_CLAUSE_LIST
     0-0-0/w STRC(288)         1 DELETE_STMT                0-0-0/w STRC(288)         1 DIVIDE_STMT
     0-0-0/w STRC(288)         1 ILS_LIST                   0-0-0/w STRC(288)         1 INSPECT_1_STMT
     0-0-0/w STRC(288)         1 INSPECT_2_STMT             0-0-0/w STRC(288)         1 INSPECT_4_STMT
     0-0-0/w STRC(288)         1 LA_ITEM                    0-0-0/w STRC(504)         1 LX_CD_INPUT
     0-0-0/w STRC(324)         1 LX_CD_I_O                  0-0-0/w STRC(396)         1 LX_CD_OUTPUT
     0-0-0/w STRC(288)   r     1 LX_ETT_ITEM                0-0-0/w STRC(288)         1 LX_ITEM
     0-0-0/w STRC(288)         1 LX_LARGE                   0-0-0/w STRC(288)         1 LX_LIST
     0-0-0/w STRC(1224)        1 LX_REC_DECL                0-0-0/w STRC(864)         1 LX_REPORT_REC
     0-0-0/w STRC(288)         1 LX_TERMINAL                0-0-0/w STRC(288)         1 MULTIPLY_STMT
     0-0-0/w STRC(36864)       1 PAGE                       0-0-0/w STRC(288)         1 READ_STMT
     0-0-0/w STRC(288)         1 REWRITE_STMT               0-0-0/w STRC(288)         1 START_STMT
PL6.E3A0      #002=Z8EA$SUBSTR_ZERO File=Z8EA.:Z8A6TSI                           SAT 08/09/97 11:47 Page:483
     0-0-0/w STRC(252)         1 STRING_STMT                0-0-0/w STRC(288)         1 SUBTRACT_STMT
     0-0-0/w STRC(288)         1 UNARY_OP                   0-0-0/w STRC(288)         1 UNSTRING_STMT
     0-0-0/w STRC(288)         1 WRITE_STMT


   Procedure Z8EA$SUBSTR_ZERO requires 82 words for executable code.
   Procedure Z8EA$SUBSTR_ZERO requires 30 words of local(AUTO) storage.

PL6.E3A0      #003=Z8EA$ASCBIN File=Z8EA.:Z8A6TSI                                SAT 08/09/97 11:48 Page:484
     3109        1        /*T***********************************************************/
     3110        2        /*T*                                                         */
     3111        3        /*T* Copyright (c) Bull HN Information Systems Inc., 1997    */
     3112        4        /*T*                                                         */
     3113        5        /*T***********************************************************/
     3114        6        /*===========*/
     3115        7          Z8EA$ASCBIN: PROC (LX_ITEM$, ASCBIN$) ;
     3116        8        /*===========*/
     3117        9
     3118       10        %EQU PHASE = 1 ;
     3119       11        %INCLUDE Z8A_DEFC ;
     3120       79        %INCLUDE Z8A_COMCOM ;
     3121      729        %INCLUDE Z8A_SUPP_MAC ;
     3122     3129        %INCLUDE Z8A_ETT ;
     3123     3430        %INCLUDE Z8A_TYPES ;
     3124     3604        %INCLUDE Z8E_STACKS ;
     3125     5870
     3126     5871    1   DCL  LX_ITEM$    PTR ; /* LX_ETT_ITEM */
     3127     5872    1   DCL  ASCBIN$     PTR ; /* LX_ETT_ITEM */
     3128     5873    1   DCL  LOP$        PTR ; /* ETT ITEM    */
     3129     5874    1   DCL  RESULT$     PTR ; /* ASCBIN ETT ITEM */
     3130     5875
     3131     5876    1   DCL  Z8AF$FORME  ENTRY (4) ;
     3132     5877
     3133     5878    1          LOP$ = LX_ITEM$ -> LX_ETT_ITEM.ETT$ ;
     3134     5879
     3135     5880    1          CALL Z8AF$FORME (%ASC_BIN, LOP$, ADDR(NIL), RESULT$) ;
     3136     5881
     3137     5882    1          ASCBIN$ -> LX_ETT_ITEM.ETT$ = RESULT$ ;
     3138     5883    1          ASCBIN$ -> LX_ETT_ITEM.TYPE = %TYI ;
     3139     5884
     3140     5885    1   END Z8EA$ASCBIN ;

PL6.E3A0      #003=Z8EA$ASCBIN File=Z8EA.:Z8A6TSI                                SAT 08/09/97 11:48 Page:485
--  Include file information  --

   Z8A_LEX_SYMB.:Z8A6TOU  cannot be made into a system file and is referenced.
   Z8E_STACKS.:Z8A6TOU  cannot be made into a system file and is referenced.
   Z8A_TYPES.:Z8A6TOU  is referenced.
   Z8A_ETT.:Z8A6TOU  cannot be made into a system file and is referenced.
   X8A_COM_MACS.:X8A6TOU  is referenced.
   Z8A_NAMES.:Z8A6TOU  is referenced.
   Z8A_SUPP_MAC.:Z8A6TOU  is referenced.
   Z8A_COMCOM.:Z8A6TOU  cannot be made into a system file and is referenced.
   Z8A_DEFC.:Z8A6TOU  cannot be made into a system file and is referenced.
      No diagnostics issued in procedure Z8EA$ASCBIN.

   Procedure Z8EA$ASCBIN requires 28 words for executable code.
   Procedure Z8EA$ASCBIN requires 14 words of local(AUTO) storage.

    No errors detected in file Z8EA.:Z8A6TSI    .

PL6.E3A0      #003=Z8EA$ASCBIN File=Z8EA.:Z8A6TSI                                SAT 08/09/97 11:48 Page:486

 Object Unit name= Z8EA$ASCBIN                                File name= Z8EA.:Z8A6TOU
 UTS= AUG 09 '97 11:48:30.76 SAT                              Compiler= PL-6/E31         Sev=      00
 SharedLib= :SHARED_SYSTEM                                    Alt SharedLib=


    ****  Control sections  ****

 Sect   Type Bound  Init  Size OctSiz  Section name(segment info)
    0  LblCom even  none     1      1  ITERATION
    1  LblCom even  none     1      1  ETT$
    2  LblCom even  none     1      1  HEAD_ETT$
    3  LblCom even  none   512   1000  ETT_BUCKETS
    4  LblCom even  none     5      5  ETT_
    5  LblCom even  none    90    132  LEX_SYMBOL
    6  LblCom even  none     1      1  CURRENT_LEX_SYMBOL$
    7  LblCom even  none    90    132  TEMP_LEX_SYMBOL
    8  LblCom even  none    90    132  TEMP_LEX_SYMBOL2
    9   Proc  even  none    28     34  Z8EA$ASCBIN
   10  RoData even  none     4      4  Z8EA$ASCBIN

    ****  Entry defs  ****

                              Check   Calling
                             calling  sequence
  Sect OctLoc Primary Altret sequence   type   Parms  Name
     9      0   yes            yes      Std        2  Z8EA$ASCBIN

  ****  Entry refs  ****

         Check        Calling
        calling       sequence
Altret sequence SRef   type   Args  Name
         yes           Std       4 Z8AF$FORME
                       nStd      0 X66_AUTO_2
                       nStd      0 X66_ARET
PL6.E3A0      #003=Z8EA$ASCBIN File=Z8EA.:Z8A6TSI                                SAT 08/09/97 11:48 Page:487

  ****  Data refs  ****

  Flags:  r = read only, s = secondary
Flgs Name                             Flgs Name                             Flgs Name
     COMCOM

  ****  Segment refs  ****

  Flags:  r = read only, s = secondary
Flgs Name                             Flgs Name                             Flgs Name
     NULLSID                               ISSID
PL6.E3A0      #003=Z8EA$ASCBIN File=Z8EA.:Z8A6TSI                                SAT 08/09/97 11:48 Page:488


     3109        1        /*T***********************************************************/
     3110        2        /*T*                                                         */
     3111        3        /*T* Copyright (c) Bull HN Information Systems Inc., 1997    */
     3112        4        /*T*                                                         */
     3113        5        /*T***********************************************************/
     3114        6        /*===========*/
     3115        7          Z8EA$ASCBIN: PROC (LX_ITEM$, ASCBIN$) ;

      7  9 000000   000000 700200 xent  Z8EA$ASCBIN  TSX0  ! X66_AUTO_2
         9 000001   000016 000002                    ZERO    14,2

     3116        8        /*===========*/
     3117        9
     3118       10        %EQU PHASE = 1 ;
     3119       11        %INCLUDE Z8A_DEFC ;
     3120       79        %INCLUDE Z8A_COMCOM ;
     3121      729        %INCLUDE Z8A_SUPP_MAC ;
     3122     3129        %INCLUDE Z8A_ETT ;
     3123     3430        %INCLUDE Z8A_TYPES ;
     3124     3604        %INCLUDE Z8E_STACKS ;
     3125     5870
     3126     5871    1   DCL  LX_ITEM$    PTR ; /* LX_ETT_ITEM */
     3127     5872    1   DCL  ASCBIN$     PTR ; /* LX_ETT_ITEM */
     3128     5873    1   DCL  LOP$        PTR ; /* ETT ITEM    */
     3129     5874    1   DCL  RESULT$     PTR ; /* ASCBIN ETT ITEM */
     3130     5875
     3131     5876    1   DCL  Z8AF$FORME  ENTRY (4) ;
     3132     5877
     3133     5878    1          LOP$ = LX_ITEM$ -> LX_ETT_ITEM.ETT$ ;

   5878  9 000002   200003 470500                    LDP0    @LX_ITEM$,,AUTO
         9 000003   000000 471500                    LDP1    0,,PR0
         9 000004   100001 236100                    LDQ     1,,PR1
         9 000005   200005 756100                    STQ     LOP$,,AUTO

     3134     5879
PL6.E3A0      #003=Z8EA$ASCBIN File=Z8EA.:Z8A6TSI                                SAT 08/09/97 11:48 Page:489
     3135     5880    1          CALL Z8AF$FORME (%ASC_BIN, LOP$, ADDR(NIL), RESULT$) ;

   5880  9 000006   000000 236000 10                 LDQ     0
         9 000007   200010 756100                    STQ     RESULT$+2,,AUTO
         9 000010   200006 631500                    EPPR1   RESULT$,,AUTO
         9 000011   200015 451500                    STP1    RESULT$+7,,AUTO
         9 000012   200010 633500                    EPPR3   RESULT$+2,,AUTO
         9 000013   200014 453500                    STP3    RESULT$+6,,AUTO
         9 000014   200005 634500                    EPPR4   LOP$,,AUTO
         9 000015   200013 454500                    STP4    RESULT$+5,,AUTO
         9 000016   000003 236000 10                 LDQ     3
         9 000017   200012 756100                    STQ     RESULT$+4,,AUTO
         9 000020   200012 630500                    EPPR0   RESULT$+4,,AUTO
         9 000021   000001 631400 10                 EPPR1   1
         9 000022   000000 701000 xent               TSX1    Z8AF$FORME
         9 000023   000000 011000                    NOP     0

     3136     5881
     3137     5882    1          ASCBIN$ -> LX_ETT_ITEM.ETT$ = RESULT$ ;

   5882  9 000024   200004 470500                    LDP0    @ASCBIN$,,AUTO
         9 000025   000000 471500                    LDP1    0,,PR0
         9 000026   200006 236100                    LDQ     RESULT$,,AUTO
         9 000027   100001 756100                    STQ     1,,PR1

     3138     5883    1          ASCBIN$ -> LX_ETT_ITEM.TYPE = %TYI ;

   5883  9 000030   000000 471500                    LDP1    0,,PR0
         9 000031   000001 235007                    LDA     1,DL
         9 000032   100004 755100                    STA     4,,PR1

     3139     5884
     3140     5885    1   END Z8EA$ASCBIN ;

   5885  9 000033   000000 702200 xent               TSX2  ! X66_ARET

PL6.E3A0      #003=Z8EA$ASCBIN File=Z8EA.:Z8A6TSI                                SAT 08/09/97 11:48 Page:490
--  Include file information  --

   Z8A_LEX_SYMB.:Z8A6TOU  cannot be made into a system file and is referenced.
   Z8E_STACKS.:Z8A6TOU  cannot be made into a system file and is referenced.
   Z8A_TYPES.:Z8A6TOU  is referenced.
   Z8A_ETT.:Z8A6TOU  cannot be made into a system file and is referenced.
   X8A_COM_MACS.:X8A6TOU  is referenced.
   Z8A_NAMES.:Z8A6TOU  is referenced.
   Z8A_SUPP_MAC.:Z8A6TOU  is referenced.
   Z8A_COMCOM.:Z8A6TOU  cannot be made into a system file and is referenced.
   Z8A_DEFC.:Z8A6TOU  cannot be made into a system file and is referenced.
      No diagnostics issued in procedure Z8EA$ASCBIN.
PL6.E3A0      #003=Z8EA$ASCBIN File=Z8EA.:Z8A6TSI                                SAT 08/09/97 11:48 Page:491

 **** Variables and constants ****

  ****  Section 000 LblCom ITERATION

  ****  Scalars and arrays  ****
OctLoc.c.b A Datatyp(siz) R M Lvl/name                 OctLoc.c.b A Datatyp(siz) R M Lvl/name

     0-0-0/w SBIN              1 ITERATION

  ****  Section 001 LblCom ETT$

  ****  Scalars and arrays  ****
OctLoc.c.b A Datatyp(siz) R M Lvl/name                 OctLoc.c.b A Datatyp(siz) R M Lvl/name

     0-0-0/w PTR         r     1 ETT$

  ****  Section 002 LblCom HEAD_ETT$

  ****  Scalars and arrays  ****
OctLoc.c.b A Datatyp(siz) R M Lvl/name                 OctLoc.c.b A Datatyp(siz) R M Lvl/name

     0-0-0/w PTR               1 HEAD_ETT$

  ****  Section 003 LblCom ETT_BUCKETS

  ****  Scalars and arrays  ****
OctLoc.c.b A Datatyp(siz) R M Lvl/name                 OctLoc.c.b A Datatyp(siz) R M Lvl/name

     0-0-0/w PTR               1 ETT_BUCKETS(0:511)

  ****  Section 004 LblCom ETT_

  ****  Scalars and arrays  ****
OctLoc.c.b A Datatyp(siz) R M Lvl/name                 OctLoc.c.b A Datatyp(siz) R M Lvl/name

     0-0-0/w STRC(180)         1 ETT_

PL6.E3A0      #003=Z8EA$ASCBIN File=Z8EA.:Z8A6TSI                                SAT 08/09/97 11:48 Page:492
  ****  Section 005 LblCom LEX_SYMBOL

  ****  Scalars and arrays  ****
OctLoc.c.b A Datatyp(siz) R M Lvl/name                 OctLoc.c.b A Datatyp(siz) R M Lvl/name

     0-0-0/w STRC(3240)  r     1 LEX_SYMBOL                 0-0-0/w STRC(3240)        1 LEX_SYMBOL_WORDS

  ****  Section 006 LblCom CURRENT_LEX_SYMBOL$

  ****  Scalars and arrays  ****
OctLoc.c.b A Datatyp(siz) R M Lvl/name                 OctLoc.c.b A Datatyp(siz) R M Lvl/name

     0-0-0/w PTR         r     1 CURRENT_LEX_SYMBOL$

  ****  Section 007 LblCom TEMP_LEX_SYMBOL

  ****  Scalars and arrays  ****
OctLoc.c.b A Datatyp(siz) R M Lvl/name                 OctLoc.c.b A Datatyp(siz) R M Lvl/name

     0-0-0/w STRC(3240)        1 TEMP_LEX_SYMBOL

  ****  Section 008 LblCom TEMP_LEX_SYMBOL2

  ****  Scalars and arrays  ****
OctLoc.c.b A Datatyp(siz) R M Lvl/name                 OctLoc.c.b A Datatyp(siz) R M Lvl/name

     0-0-0/w STRC(3240)        1 TEMP_LEX_SYMBOL2

  ****  Auto variables  ****

  ****  Scalars and arrays  ****
OctLoc.c.b A Datatyp(siz) R M Lvl/name                 OctLoc.c.b A Datatyp(siz) R M Lvl/name

     4-0-0/w PTR         r     1 @ASCBIN$                   3-0-0/w PTR         r     1 @LX_ITEM$
    *0-0-0/w PTR         r     1 ASCBIN$                    5-0-0/w PTR         r     1 LOP$
    *0-0-0/w PTR         r     1 LX_ITEM$                   6-0-0/w PTR         r     1 RESULT$

PL6.E3A0      #003=Z8EA$ASCBIN File=Z8EA.:Z8A6TSI                                SAT 08/09/97 11:48 Page:493
  ****  SYMREF variables  ****

  ****  Scalars and arrays  ****
OctLoc.c.b A Datatyp(siz) R M Lvl/name                 OctLoc.c.b A Datatyp(siz) R M Lvl/name

     0-0-0/d STRC(13248)       1 COMCOM

  ****  BASED and DCB variables  ****

  ****  Scalars and arrays  ****
OctLoc.c.b A Datatyp(siz) R M Lvl/name                 OctLoc.c.b A Datatyp(siz) R M Lvl/name

     0-0-0/w STRC(288)         1 ADD_STMT                   0-0-0/w ASTR(324)   r     1 BASED_LEX_SYMBOL
     0-0-0/w STRC(360)         1 BASED_LEX_SYMBOL_WORDS
     0-0-0/w STRC(288)         1 BINARY_OP                  0-0-0/w STRC(288)         1 CALL_STMT
     0-0-0/w CHAR(4096)        1 CHARS                      0-0-0/w STRC(288)         1 COMPUTE_STMT
     0-0-0/w STRC(72)          1 CONT                       0-0-0/w STRC(288)         1 DEFERED_IDENTIFIER
     0-0-0/w STRC(252)         1 DEFERED_ID_TREE            0-0-0/w STRC(288)         1 DEFERED_QUAL_ID
     0-0-0/w STRC(288)         1 DEFERED_SUM_CLAUSE
     0-0-0/w STRC(288)         1 DEFERED_SUM_CLAUSE_LIST
     0-0-0/w STRC(288)         1 DELETE_STMT                0-0-0/w STRC(288)         1 DIVIDE_STMT
     0-0-0/w STRC(180)         1 ETT                        0-0-0/w STRC(288)         1 ILS_LIST
     0-0-0/w STRC(288)         1 INSPECT_1_STMT             0-0-0/w STRC(288)         1 INSPECT_2_STMT
     0-0-0/w STRC(288)         1 INSPECT_4_STMT             0-0-0/w STRC(288)         1 LA_ITEM
     0-0-0/w STRC(504)         1 LX_CD_INPUT                0-0-0/w STRC(324)         1 LX_CD_I_O
     0-0-0/w STRC(396)         1 LX_CD_OUTPUT               0-0-0/w STRC(288)   r     1 LX_ETT_ITEM
     0-0-0/w STRC(288)         1 LX_ITEM                    0-0-0/w STRC(288)         1 LX_LARGE
     0-0-0/w STRC(288)         1 LX_LIST                    0-0-0/w STRC(1224)        1 LX_REC_DECL
     0-0-0/w STRC(864)         1 LX_REPORT_REC              0-0-0/w STRC(288)         1 LX_TERMINAL
     0-0-0/w STRC(288)         1 MULTIPLY_STMT              0-0-0/w STRC(36864)       1 PAGE
     0-0-0/w STRC(288)         1 READ_STMT                  0-0-0/w STRC(288)         1 REWRITE_STMT
     0-0-0/w STRC(288)         1 START_STMT                 0-0-0/w STRC(252)         1 STRING_STMT
     0-0-0/w STRC(288)         1 SUBTRACT_STMT              0-0-0/w STRC(288)         1 UNARY_OP
     0-0-0/w STRC(288)         1 UNSTRING_STMT              0-0-0/w STRC(288)         1 WRITE_STMT

PL6.E3A0      #003=Z8EA$ASCBIN File=Z8EA.:Z8A6TSI                                SAT 08/09/97 11:48 Page:494

   Procedure Z8EA$ASCBIN requires 28 words for executable code.
   Procedure Z8EA$ASCBIN requires 14 words of local(AUTO) storage.

    No errors detected in file Z8EA.:Z8A6TSI    .
