PL6.E3A0      #001=Z8EA$INSPECT_1 File=Z8EA.:Z8A6TSI                             SAT 08/09/97 11:39 Page:1
        1        1        /*M*  Z8EA -- Create ILL/ETT for INSPECT */
        2        2        /*T***********************************************************/
        3        3        /*T*                                                         */
        4        4        /*T* Copyright (c) Bull HN Information Systems Inc., 1997    */
        5        5        /*T*                                                         */
        6        6        /*T***********************************************************/
        7        7
        8        8
        9        9        /*P*
       10       10               NAME:  Z8EA$INSPECT_1
       11       11             AUTHOR:  John Heath
       12       12            PURPOSE:  This procedure creates the ILL/ETT structure for the
       13       13                      INSPECT statement.
       14       14        */
       15       15
       16       16        /*D*
       17       17               NAME:  Z8EA$INSPECT_1
       18       18
       19       19              INPUT:  Abstract Syntax Tree for the INSPECT statement.
       20       20
       21       21             OUTPUT:  ILS/ILL/ETT table entries representing the INSPECT
       22       22                      statement.
       23       23
       24       24        DESCRIPTION:  This is pass 2 for handling inspect statements
       25       25                      with formats as shown below:
       26       26
       27       27                      FORMAT 1:
       28       28
       29       29        INSPECT id-1 TALLYING id-2 FOR CHARACTERS   BEFORE id-4 ...
       30       30        INSPECT id-1 TALLYING id-2 FOR ALL     id-3 AFTER  id-4 ...
       31       31        INSPECT id-1 TALLYING id-2 FOR LEADING id-3 ...
       32       32
       33       33                      FORMAT 2:
       34       34
       35       35        INSPECT id-1 REPLACING CHARACTERS   BY id-5 AFTER  id-4 ...
       36       36        INSPECT id-1 REPLACING ALL     id-3 BY id-5 BEFORE id-4 ...
       37       37        INSPECT id-1 REPLACING LEADING id-3 BY id-5 ...
PL6.E3A0      #001=Z8EA$INSPECT_1 File=Z8EA.:Z8A6TSI                             SAT 08/09/97 11:39 Page:2
       38       38        INSPECT id-1 REPLACING FIRST   id-3 BY id-5 ...
       39       39
       40       40                      FORMAT 3:
       41       41
       42       42        Split up by pass 1 into a Format 1 followed by a Format 2.
       43       43
       44       44                      FORMAT 4:
       45       45
       46       46        INSPECT id-1 CONVERTING id-6 TO id-7 BEFORE/AFTER id-4 ...
       47       47
       48       48                      Pass 1 does the syntax and semantic checking
       49       49                      and produces the Abstact Syntax Tree (AST).
       50       50                      Pass 2 uses the AST to produce the ILS/ILL/ETT
       51       51                      items needed for later phases.
       52       52
       53       53                      INSPECT$ points to an A.S.T. item (INSPECT_1_STMT,
       54       54                      INSPECT_2_STMT, or INSPECT_4_STMT:
       55       55
       56       56                      INSPECT_1_STMT
       57       57                     /              \
       58       58                    / ID_1$          \ INSPECT_1$
       59       59                   /                  \
       60       60               LX_ETT_ITEM            LX_LIST
       61       61                 (id1)               /       \
       62       62                              HEAD$ /         \ TAIL$
       63       63                                   /           \
       64       64                                  ...          ...
       65       65
       66       66                      INSPECT_2_STMT
       67       67                     /              \
       68       68                    / ID_1$          \ INSP_2_REPLACE$
       69       69                   /                  \
       70       70               LX_ETT_ITEM           LX_LIST
       71       71                 (id1)              /       \
       72       72                             HEAD$ /         \ TAIL$
       73       73                                  /    LINK   \
       74       74         REPLACE$->         LX_LIST -->...--> LX_LIST ---TAIL$------
PL6.E3A0      #001=Z8EA$INSPECT_1 File=Z8EA.:Z8A6TSI                             SAT 08/09/97 11:39 Page:3
       75       75                           /       \        /                       \
       76       76                    HEAD$ /   TAIL$ \      / HEAD$                   \
       77       77                         /           \    /                           \
       78       78               LX_TERMINAL ---> LX_LIST  LX_TERMINAL-->LX_ETT_ITEM-->LX_LIST
       79       79               ALL, LEADING,   <INSP_2_  CHARACTERS       id5        BEFORE/
       80       80               or FIRST          first>                              AFTER
       81       81                               /       \
       82       82                        HEAD$ /         \ TAIL$
       83       83                             /           \
       84       84         FIRST$->     LX_LIST --> ... --> LX_LIST
       85       85                     /       \           /       \
       86       86                    / HEAD$   \ TAIL$   ...      ...
       87       87                   /           \
       88       88                  /             \
       89       89        LX_ETT_ITEM->LX_ETT_ITEM->LX_LIST
       90       90           id3          id5       BEFORE/
       91       91                                  AFTER
       92       92
       93       93
       94       94                      Local Optimizations:
       95       95                      ===== =============
       96       96         (1) INSPECT id-1 TALLYING id-2 FOR LEADING "x" [BEFORE id-4].
       97       97             Ignore before clause, generate SEARCH ILL item.
       98       98         (2) INSPECT id-1 TALLYING id-2 FOR LEADING "x" AFTER id-4.
       99       99             Use INDEX ETT item (id-1, id-4) and SEARCH ILL item.
      100      100         (3) INSPECT id-1 TALLYING id-2 FOR CHARACTERS.
      101      101             Add Length of id-1 to id-2.
      102      102         (4) INSPECT id-1 TALLYING id-2 FOR CHARACTERS AFTER id-4.
      103      103             Use INDEX ETT item (id-1, id-4), math-pack, and move:
      104      104             IF INDEX (id-1, id-4) ~= LENGTH (id-1) THEN
      105      105               ADD Length (id-1) - Length (id-4) - INDEX (id-1, id-4) TO id-2.
      106      106         (5) INSPECT id-1 TALLYING id-2 FOR CHARACTERS BEFORE id-4.
      107      107             ADD INDEX (id-1, id-4) TO id-2.
      108      108         (6) INSPECT id-1 REPLACING CHARACTERS BY "x".
      109      109             Move filler("x") to id-1.
      110      110         (7) INSPECT id-1 REPLACING CHARACTERS BY "x" AFTER id-4.
      111      111             IF INDEX (id-1, id-4) ~= LENGTH (id-1) THEN
PL6.E3A0      #001=Z8EA$INSPECT_1 File=Z8EA.:Z8A6TSI                             SAT 08/09/97 11:39 Page:4
      112      112               Move filler("x") to Substring (id-1, INDEX (id-1, id-4) + Length(id-4) + 1).
      113      113         (8) INSPECT id-1 REPLACING CHARACTERS BY "x" BEFORE id-4.
      114      114             Move filler("x") to Substring (id-1, 1, INDEX (id-1, id-4)).
      115      115         (9) INSPECT id-1 REPLACING ALL "a" BY "x", "b" BY "y", ...
      116      116          or INSPECT id-1 CONVERTING "ab..." TO "xy...".
      117      117             MVT (id-1, id-1, table).
      118      118        (10) INSPECT id-1 REPLACING ALL "a" BY "x" ... AFTER id-4.
      119      119          or INSPECT id-1 CONVERTING "a..." TO "x..." AFTER id-4.
      120      120             IF INDEX (id-1, id-4) ~= LENGTH (id-1) THEN
      121      121               MVT (Substring (id-1, INDEX (id-1, id-4) + LENGTH (id-4) + 1),
      122      122                    Substring (id-1, INDEX (id-1, id-4) + LENGTH (id-4) + 1),
      123      123                    table).
      124      124        (11) INSPECT id-1 REPLACING ALL "a" BY "x" ... BEFORE id-4.
      125      125          or INSPECT id-1 CONVERTING "a..." BY "x..." BEFORE id-4.
      126      126             MVT (Substring (id-1, 1, INDEX (id-1, id-4)),
      127      127                  Substring (id-1, 1, INDEX (id-1, id-4)), table).
      128      128        (12) INSPECT id-1 REPLACING LEADING "x" BY "y".
      129      129             %NEW_ILL (@ID = SEARCH, @LOP = id-1, @ROP = table, @TO = result)
      130      130             Move filler("y") TO Substring (id-1, 1, result).
      131      131
      132      132        */
      133      133
      134      134        %EJECT;
PL6.E3A0      #001=Z8EA$INSPECT_1 File=Z8EA.:Z8A6TSI                             SAT 08/09/97 11:39 Page:5
      135      135        /*==============*/
      136      136          Z8EA$INSPECT_1: PROC (INSPECT$) ;
      137      137        /*==============*/
      138      138
      139      139        %EQU PHASE = 1 ;
      140      140        %EQU NOT_APPLICABLE = 0 ;
      141      141
      142      142        %INCLUDE Z8A_DEFC ;
      143      210        %INCLUDE Z8A_SUPP_MAC ;
      144     2610        %INCLUDE Z8E_ILS_LIST ;
      145     2694        %INCLUDE Z8A_ILL ;
      146     3387        %INCLUDE Z8A_ILS ;
      147     3496        %INCLUDE Z8A_ST ;
      148     7155        %INCLUDE Z8A_TYPES ;
      149     7329        %INCLUDE Z8A_DNT;
      150     7550        %INCLUDE Z8A_ETT ;
      151     7851        %INCLUDE Z8A_LTS ;
      152     9928        %INCLUDE Z8A_SRCH ;
      153     9977        %INCLUDE Z8A_COMCOM ;
      154    10627        %INCLUDE Z8A_LIBRARY ;
      155    10841        %INCLUDE Z8E_HEAP ;
      156    10897        %INCLUDE Z8E_WINDOW ;
      157    12967        %INCLUDE Z8E_MACROS ;
      158    13642        %INCLUDE Z8E_STACKS ;
      159    15908        %INCLUDE Z8E_TRANSLAT ;
      160    16326        %INCLUDE Z8E_O1COM ;
      161    17087        %INCLUDE Z8A_ERR_NUMS ;
      162    17851        %INCLUDE Z8A_MKCN;
      163    17868
      164    17869        %DCL_AUTO_LX_ITEM (@NAME = POINTER) ;
      165    17873        %DCL_AUTO_LX_ITEM (@NAME = LENGTH) ;
      166    17877        %DCL_AUTO_LX_ITEM (@NAME = LENGTH_ID1) ;
      167    17881        %DCL_AUTO_LX_ITEM (@NAME = LENGTH_ID3) ;
      168    17885        %DCL_AUTO_LX_ITEM (@NAME = LENGTH_ID1_ID3) ;
      169    17889        %DCL_AUTO_LX_ITEM (@NAME = LENGTH_ID5) ;
      170    17893        %DCL_AUTO_LX_ITEM (@NAME = POSITION) ;
      171    17897        %DCL_AUTO_LX_ITEM (@NAME = TABLE) ;
PL6.E3A0      #001=Z8EA$INSPECT_1 File=Z8EA.:Z8A6TSI                             SAT 08/09/97 11:39 Page:6
      172    17901        %DCL_AUTO_LX_ITEM (@NAME = ONE) ;
      173    17905        %DCL_AUTO_LX_ITEM (@NAME = TWO) ;
      174    17909        %DCL_AUTO_LX_ITEM (@NAME = SUB_STR) ;
      175    17913        %DCL_AUTO_LX_ITEM (@NAME = ID7_SUBSTR) ;
      176    17917        %DCL_AUTO_LX_ITEM (@NAME = ID2_ORIGINAL) ;
      177    17921        %DCL_AUTO_LX_ITEM (@NAME = ID1) ;
      178    17925        %DCL_AUTO_LX_ITEM (@NAME = COMPARISON) ;
      179    17929        %DCL_AUTO_LX_ITEM (@NAME = ASC_BIN) ;
      180    17933        %DCL_AUTO_LX_ITEM (@NAME = TABLE_LX_ETT) ;
      181    17937        %DCL_AUTO_LX_ITEM (@NAME = ADD) ;
      182    17941        %DCL_AUTO_LX_ITEM (@NAME = SUB) ;
      183    17945        %DCL_AUTO_LX_ITEM( @NAME = ETT_ITEM );
      184    17949        %DCL_AUTO_LX_ITEM( @NAME = OP_NODE );
      185    17953
      186    17954    1   DCL    ADD$            PTR ;
      187    17955    1   DCL    AFTER$          PTR ; /* LX_ETT_ITEM in Pass 3 */
      188    17956    1   DCL    ALL$            PTR ;       /* ALL or LEADING Clause */
      189    17957    1   DCL    ASCASC$         PTR STATIC INIT (ADDR(NIL)) ; /* Ascii2Ascii */
      190    17958    1   DCL    ASCBIN$         PTR ;       /* For INSPECT Format 4  */
      191    17959    1   DCL    ATOA_CHAR       CHAR (1) ;
      192    17960    1   DCL  1 BCD$STRING      ALIGNED BASED,
      193    17961    1          2 BCD_CHAR (0:0) BIT (6) ;
      194    17962    1   DCL    BEFORE$         PTR ; /* LX_ETT_ITEM in Pass 3 */
      195    17963    1   DCL    BEFORE_AFTER$   PTR ;
      196    17964    1   DCL    BLOCK$          PTR ;
      197    17965    1   DCL    CLAUSE_TYPE     SBIN WORD ; /* %RSV_WRD_ALL, etc. */
      198    17966    1   DCL    COMPARISON$     PTR ;
      199    17967                                               /*#31076*/
      200    17968    1   DCL    END_AFTER_IF$   PTR ;
      201    17969    1   DCL    END_BEFORE_IF$  PTR ;
      202    17970    1   DCL    END_IF$         PTR ;
      203    17971    1   DCL    END_LOOP$       PTR ;
      204    17972    1   DCL    FIRST$          PTR ;
      205    17973    1   DCL    FOR_LIST$       PTR ; /* Current FOR_LIST AST item */
      206    17974    1   DCL    FOR$            PTR ;       /* FOR Clause LX_LIST */
      207    17975    1   DCL    I               SBIN WORD ;
      208    17976    1   DCL    ID1_ORIG_TYPE   UBIN WORD;
PL6.E3A0      #001=Z8EA$INSPECT_1 File=Z8EA.:Z8A6TSI                             SAT 08/09/97 11:39 Page:7
      209    17977    1   DCL    ID1$            PTR ;
      210    17978    1   DCL    ID1_ST$         PTR ;
      211    17979    1   DCL    ID2$            PTR ;
      212    17980    1   DCL    ID3$            PTR ;
      213    17981    1   DCL    ID3_CHAR        CHAR (1) ;
      214    17982    1   DCL  1 ID3_BCD_CHAR    REDEF ID3_CHAR,
      215    17983    1          2 MBZ3          BIT (3),
      216    17984    1          2 BCD_CHAR      BIT (6) ;
      217    17985    1   DCL    ID6_CHAR        REDEF ID3_CHAR CHAR (1) ;
      218    17986    1   DCL  1 ID6_BCD_CHAR    REDEF ID3_CHAR,
      219    17987    1          2 MBZ6          BIT (3),
      220    17988    1          2 BCD_CHAR      BIT (6) ;
      221    17989    1   DCL    ID5_CHAR        CHAR (1) ;
      222    17990    1   DCL  1 ID5_BCD_CHAR    REDEF ID5_CHAR,
      223    17991    1          2 MBZ5          BIT (3),
      224    17992    1          2 BCD_CHAR      BIT (6) ;
      225    17993    1   DCL    ID7_CHAR        REDEF ID5_CHAR CHAR (1) ;
      226    17994    1   DCL  1 ID7_BCD_CHAR    REDEF ID5_CHAR,
      227    17995    1          2 MBZ7          BIT (3),
      228    17996    1          2 BCD_CHAR      BIT (6) ;
      229    17997    1   DCL    ID5$            PTR ;
      230    17998    1   DCL    ID6$            PTR ;       /* For INSPECT Format 4 */
      231    17999    1   DCL    ID6_CHAR$       PTR ;
      232    18000    1   DCL    ID7$            PTR ;       /* For INSPECT Format 4 */
      233    18001    1   DCL    ID7_CHAR$       PTR ;
      234    18002    1   DCL    ID7_SUBSTR$     PTR ;       /* For INSPECT Format 4 */
      235    18003    1   DCL    INSPECT$        PTR ; /* INSPECT_INFO AST item */
      236    18004    1   DCL    J               SBIN WORD ;
      237    18005    1   DCL    LENGTH$         PTR ;
      238    18006    1   DCL    LENGTH_ID1$     PTR ;
      239    18007    1   DCL    LENGTH_ID3$     PTR ;
      240    18008    1   DCL    LENGTH_ID1_ID3$ PTR ;
      241    18009    1   DCL    LENGTH_ID5$     PTR ;
      242    18010    1   DCL    LX_LIST$        PTR ;
      243    18011    1   DCL    NO_OF_CLAUSES   SBIN WORD ;
      244    18012    1   DCL    ONE$            PTR ; /* TRIAD for CONST (1) */
      245    18013    1   DCL    ONE_LX_ETT$     PTR ;       /* LX_ETT_ITEM for 1 */
PL6.E3A0      #001=Z8EA$INSPECT_1 File=Z8EA.:Z8A6TSI                             SAT 08/09/97 11:39 Page:8
      246    18014    1   DCL    OPTIMIZABLE     BOOLEAN ;
      247    18015    1   DCL    POINTER$        PTR STATIC INIT (ADDR(NIL)) ;
      248    18016    1   DCL    POSITION$       PTR ; /* Used in SEARCH (TCT) */
      249    18017    1   DCL    PRODUCE_INSPECT_ILS BOOLEAN ;
      250    18018    1   DCL    REPLACE$        PTR ;
      251    18019    1   DCL    REPLACE_LIST$   PTR ; /* Current REPLACE_LIST AST item */
      252    18020    1   DCL    SCALAR$         PTR ;
      253    18021    1   DCL    SUB$            PTR ;
      254    18022    1   DCL    SUBSTR$         PTR ;
      255    18023    1   DCL    TABLE$          PTR ; /* ETT ITEM */
      256    18024    1   DCL    TABLE_ETT$      PTR ;
      257    18025    1   DCL    TABLE_LX_ETT$   PTR ; /* LX_ETT_ITEM */
      258    18026    1   DCL    TALLY_LIST$     PTR ; /* Current TALLY_LIST AST item */
      259    18027    1   DCL    TWO$            PTR ; /* TRIAD for CONST (2) */
      260    18028    1   DCL    TWO_LX_ETT$     PTR ;
      261    18029    1   DCL    TYPE1           SBIN ;
      262    18030
      263    18031    1   DCL    Z8AC$LX_ETT_ITEM_TYI_CONST ENTRY (2) ;
      264    18032    1   DCL    Z8AC$MAKE_CONST            ENTRY (1) ;
      265    18033    1   DCL    Z8AE$ERROR                 ENTRY (12) ;
      266    18034    1   DCL    Z8AF$FORME                 ENTRY (4) ;
      267    18035    1   DCL    Z8AS$SR_ETT                ENTRY (1) ;
      268    18036    1   DCL    Z8AT$CREATE_TEMPORARY      ENTRY (2) ;
      269    18037    1   DCL    Z8AT$CREATE_TEMP_WITH_BASE ENTRY (2) ;
      270    18038    1   DCL    Z8AU$LENGTH                ENTRY (2) ; /* Args: ETT items */
      271    18039    1   DCL    Z8AU$LENGTH_ETT            ENTRY (2) ; /* Args: ETT items */
      272    18040    1   DCL    Z8AU$TYPE_DESCRIPTOR       ENTRY (2) ;
      273    18041    1   DCL    Z8EA$INSERT_ZERO           ENTRY (4) ;
      274    18042    1   DCL    Z8E5$MATH_PACK             ENTRY (2) ;
      275    18043    1   DCL    Z8E7$MOVE                  ENTRY (2) ;
      276    18044    1   DCL    Z8EC$INTERNAL_STRING_REP   ENTRY (2) ;
      277    18045    1   DCL    Z8EK$BRANCH                ENTRY (1) ;
      278    18046    1   DCL    Z8EK$BRANCH_FALSE          ENTRY (2) ;
      279    18047    1   DCL    Z8EK$BRANCH_TRUE           ENTRY (2) ;
      280    18048    1   DCL    Z8CO$CREATE_LIBRARY_BASE   ENTRY (2) ;
      281    18049    1   DCL    Z8CO$DISPL_CHECK           ENTRY (1) ALTRET ;
      282    18050    1   DCL    Z8CO$INTEGER_CHECK         ENTRY (1) ALTRET ;
PL6.E3A0      #001=Z8EA$INSPECT_1 File=Z8EA.:Z8A6TSI                             SAT 08/09/97 11:39 Page:9
      283    18051    1   DCL    Z8EV$CONVERT               ENTRY (3) ;
      284    18052    1   DCL    Z8EV$CONVERT_TYA           ENTRY (3) ;
      285    18053    1   DCL    Z8EA$ASCBIN                ENTRY (2) ;
      286    18054    1   DCL    Z8EQ$CREATE_DO_WHILE       ENTRY (2) ;
      287    18055    1   DCL    Z8EY$INSERT                ENTRY (4) ;              /*#42050*/
      288    18056    1   DCL    Z8EZ$SEARCH                ENTRY (5) ;
      289    18057
      290    18058    1   DCL 1  ID3_DESC      ALIGNED,
      291    18059             %TYPE_DESC ;
      292    18093    1   DCL 1  ID6_DESC      REDEF ID3_DESC ALIGNED,
      293    18094             %TYPE_DESC ;
      294    18128
      295    18129    1   DCL 1  ID5_DESC      ALIGNED,
      296    18130             %TYPE_DESC ;
      297    18164    1   DCL 1  ID7_DESC      REDEF ID5_DESC ALIGNED,
      298    18165             %TYPE_DESC ;
      299    18199
      300    18200    1   DCL 1  SAVED_ILS_LIST DALIGNED,
      301    18201    1        2 *     (0: %(LENGTH_LX_ITEM - 1)) PTR ALIGNED ;
      302    18202
      303    18203    1   DCL 1  DO_BODY_ILS_LIST DALIGNED,
      304    18204    1        2 *     (0: %(LENGTH_LX_ITEM - 1)) PTR ALIGNED ;
      305    18205
      306    18206    1   DCL 1  CONVERSION_ILS_LIST DALIGNED,
      307    18207    1        2 *     (0: %(LENGTH_LX_ITEM - 1)) PTR ALIGNED ;
      308    18208
      309    18209        %EJECT;
PL6.E3A0      #001=Z8EA$INSPECT_1 File=Z8EA.:Z8A6TSI                             SAT 08/09/97 11:39 Page:10
      310    18210
      311    18211             /*==========*/
      312    18212        %MACRO IF_THEN_DO (@LOP =, @REL =, @ROP =, @LAB =) ;
      313    18213             /*==========*/
      314    18214
      315    18215               DO ;
      316    18216                 %LSET LINE@ = CHARTEXT (CONCAT (TEXTCHAR (@LOP),
      317    18217                                                 ' -> LX_ETT_ITEM.LINE')) ;
      318    18218                 %LSET COLUMN@ = CHARTEXT (CONCAT (TEXTCHAR (@LOP),
      319    18219                                                 ' -> LX_ETT_ITEM.COLUMN')) ;
      320    18220
      321    18221                 COMPARISON$ = ADDR (COMPARISON) ;
      322    18222                 %INIT_BINARY_OP (@POINTER = COMPARISON$,
      323    18223                                  @LOP$    = @LOP,
      324    18224                                  @OP      = @REL,
      325    18225                                  @ROP$    = @ROP,
      326    18226                                  @LINE    = %LINE@,
      327    18227                                  @COLUMN  = %COLUMN@) ;
      328    18228
      329    18229                 CALL Z8AT$CREATE_TEMPORARY (%PARA, @LAB) ;
      330    18230                 CALL Z8EK$BRANCH_FALSE (@LAB, COMPARISON$) ;
      331    18231               END ;
      332    18232
      333    18233        %MEND ;
      334    18234
      335    18235        %EJECT;
PL6.E3A0      #001=Z8EA$INSPECT_1 File=Z8EA.:Z8A6TSI                             SAT 08/09/97 11:39 Page:11
      336    18236               /*===========================*/
      337    18237               /*V* INSPECT_TALLYING_Pass_2 */
      338    18238               /*===========================*/
      339    18239
      340    18240    1          ONE_LX_ETT$ = ADDR (ONE) ;
      341    18241    1          CALL Z8AC$LX_ETT_ITEM_TYI_CONST (1, ONE_LX_ETT$) ;
      342    18242    1          ONE$ = ONE_LX_ETT$ -> LX_ETT_ITEM.ETT$ ;
      343    18243    1          TWO_LX_ETT$ = ADDR (TWO) ;
      344    18244    1          CALL Z8AC$LX_ETT_ITEM_TYI_CONST (2, TWO_LX_ETT$) ;
      345    18245    1          TWO$ = TWO_LX_ETT$ -> LX_ETT_ITEM.ETT$ ;
      346    18246
      347    18247               %INIT_ILS_LIST (@POINTER = "ADDR(CONVERSION_ILS_LIST)") ;
      348    18255    1          PRODUCE_INSPECT_ILS = TRUE ;
      349    18256    1          ID1 = INSPECT$-> INSPECT_1_STMT.ID_1$-> LX_ETT_ITEM;
      350    18257    1          ID1$ = ADDR(ID1);
      351    18258    1          ID1_ORIG_TYPE = ID1$-> LX_ETT_ITEM.TYPE;
      352    18259    2          DO CASE (ID1_ORIG_TYPE);
      353    18260    2            CASE (%TYO, %TYF, %TYC);
      354    18261    2              TYPE1 = %TYA;
      355    18262    2            CASE (ELSE);
      356    18263    2              TYPE1 = ID1_ORIG_TYPE;
      357    18264    2          END;
      358    18265    1          IF ID1$ -> LX_ETT_ITEM.B.HIGH_LEV THEN INSPECT$ -> INSPECT_1_STMT.HIGH_LEV =
             18265                   TRUE;
      359    18266    1          CALL VERIFY_ALPHA (ID1$) ;
      360    18267
      361    18268    1          LX_LIST$ = INSPECT$ -> INSPECT_1_STMT.INSPECT_1$ ;
      362    18269    1          ID2$ = LX_LIST$ -> LX_LIST.HEAD$ ;
      363    18270    1          IF ID2$ -> LX_ETT_ITEM.B.HIGH_LEV THEN INSPECT$ -> INSPECT_1_STMT.HIGH_LEV =
             18270                   TRUE;
      364    18271    1          CALL CONVERT_ID2 (ID2$) ;
      365    18272    1          LX_LIST$ = LX_LIST$ -> LX_LIST.TAIL$ ;
      366    18273
      367    18274    1          FOR$ = LX_LIST$ -> LX_LIST.HEAD$ ;
      368    18275    1          NO_OF_CLAUSES = 0 ;
      369    18276
      370    18277    2          DO WHILE (FOR$ ~= ADDR(NIL)) ;
PL6.E3A0      #001=Z8EA$INSPECT_1 File=Z8EA.:Z8A6TSI                             SAT 08/09/97 11:39 Page:12
      371    18278
      372    18279    2            CLAUSE_TYPE = FOR$ -> LX_LIST.HEAD$ -> LX_TERMINAL.SYMBOL ;
      373    18280
      374    18281    3            IF CLAUSE_TYPE = %RSV_WRD_CHARACTERS THEN DO ;
      375    18282
      376    18283    3              NO_OF_CLAUSES = NO_OF_CLAUSES + 1 ;
      377    18284
      378    18285    3              CALL SCAN_BEFORE_AFTER (FOR$ -> LX_LIST.HEAD$ -> LX_TERMINAL.LINK,
      379    18286    3                                      ADDR(NIL),
      380    18287    3                                      %RSV_WRD_CHARACTERS,
      381    18288    3                                      ID1$) ;
      382    18289
      383    18290    4              IF FOR$ -> LX_LIST.COUNT = 3 THEN DO ;
      384    18291    4                ID2$ = FOR$ -> LX_LIST.TAIL$ ;
      385    18292    4                CALL CONVERT_ID2 (ID2$) ;
      386    18293    4              END ;
      387    18294
      388    18295    3            END ;
      389    18296
      390    18297    3            ELSE DO ; /* ALL or LEADING */
      391    18298
      392    18299    4              IF FOR$ -> LX_LIST.COUNT = 3 THEN DO ;
      393    18300    4                ID2$ = FOR$ -> LX_LIST.TAIL$ ;
      394    18301    4                CALL CONVERT_ID2 (ID2$) ;
      395    18302    4              END ;
      396    18303
      397    18304    3              ALL$ = FOR$ -> LX_LIST.HEAD$ -> LX_TERMINAL.LINK -> LX_LIST.HEAD$ ;
      398    18305
      399    18306    4              DO WHILE (ALL$ ~= ADDR(NIL)) ;
      400    18307
      401    18308    4                NO_OF_CLAUSES = NO_OF_CLAUSES + 1 ;
      402    18309
      403    18310    4                ID3$ = ALL$ -> LX_LIST.HEAD$ ;
      404    18311    4                IF INSPECT$-> INSPECT_1_STMT.KEY_WORD$->
      405    18312    4                   LX_TERMINAL.SYMBOL = %RSV_WRD_EXAMINE  THEN
      406    18313    5                  DO;
      407    18314    5                    CALL EXAMINE_ID_CHECK( ID1$, ID3$ );
PL6.E3A0      #001=Z8EA$INSPECT_1 File=Z8EA.:Z8A6TSI                             SAT 08/09/97 11:39 Page:13
      408    18315    5                    IF ID1$ -> LX_ETT_ITEM.TYPE = %TYF THEN
      409    18316    6                      DO;
      410    18317    6                        CALL Z8AF$FORME (%CVOD4,
      411    18318    6                                         ID1$ -> LX_ETT_ITEM.ETT$,
      412    18319    6                                         0,
      413    18320    6                                         ID1$ -> LX_ETT_ITEM.ETT$);
      414    18321    6                        CALL Z8AF$FORME (%CV49,
      415    18322    6                                         ID1$ -> LX_ETT_ITEM.ETT$,
      416    18323    6                                         0,
      417    18324    6                                         ID1$ -> LX_ETT_ITEM.ETT$);
      418    18325    6                      END;
      419    18326    5                    ELSE IF ID1$ -> LX_ETT_ITEM.TYPE = %TYC THEN
      420    18327    6                      DO;
      421    18328    6                        CALL Z8CO$CREATE_LIBRARY_BASE (%OP_GBCD_TO_ASCII,
      422    18329    6                                                       TABLE_ETT$);
      423    18330    6                        CALL Z8AF$FORME (%CVT,
      424    18331    6                                         ID1$ -> LX_ETT_ITEM.ETT$,
      425    18332    6                                         TABLE_ETT$,
      426    18333    6                                         ID1$ -> LX_ETT_ITEM.ETT$);
      427    18334    6                      END;
      428    18335    5                  END;
      429    18336    4                ELSE
      430    18337    4                  CALL VERIFY_ALPHA_REF_LEV ( ID3$ );
      431    18338
      432    18339    4                CALL SCAN_BEFORE_AFTER (ALL$ -> LX_LIST.TAIL$,
      433    18340    4                                        ID3$ -> LX_LIST.LINK,
      434    18341    4                                        CLAUSE_TYPE,
      435    18342    4                                        ID1$) ;
      436    18343    4                ALL$ = ALL$ -> LX_LIST.LINK ;
      437    18344
      438    18345    4              END ; /* Do While */
      439    18346
      440    18347    3            END ; /* ALL or LEADING */
      441    18348
      442    18349    2            FOR$ = FOR$ -> LX_LIST.LINK ;
      443    18350
      444    18351    2          END ; /* Do While FOR$ <> Nil */
PL6.E3A0      #001=Z8EA$INSPECT_1 File=Z8EA.:Z8A6TSI                             SAT 08/09/97 11:39 Page:14
      445    18352
      446    18353        %EJECT;
PL6.E3A0      #001=Z8EA$INSPECT_1 File=Z8EA.:Z8A6TSI                             SAT 08/09/97 11:39 Page:15
      447    18354               /*===========================*/
      448    18355               /*V* INSPECT_TALLYING_Pass_3 */
      449    18356               /*===========================*/
      450    18357
      451    18358    1          IF PRODUCE_INSPECT_ILS = FALSE THEN RETURN ;
      452    18359
      453    18360    1          OPTIMIZABLE = (NO_OF_CLAUSES = 1) ;
      454    18361    1          IF CLAUSE_TYPE = %RSV_WRD_ALL
      455    18362    1          THEN OPTIMIZABLE = FALSE ;
      456    18363
      457    18364               %FISH( TRIAD = ID1$ -> LX_ETT_ITEM.ETT$,
      458    18365                      RTN   = ID1_ST$ );
      459    18373
      460    18374    1          IF  CLAUSE_TYPE = %RSV_WRD_CHARACTERS    AND
      461    18375    1              ID1_ST$ -> SCALAR.B.KANJI                  THEN
      462    18376    1            OPTIMIZABLE = FALSE;
      463    18377
      464    18378               /* LEADING must be one byte constant */
      465    18379
      466    18380    2          IF CLAUSE_TYPE = %RSV_WRD_LEADING THEN DO ;
      467    18381    2            CALL Z8AU$TYPE_DESCRIPTOR (ID3$ -> LX_ETT_ITEM.ETT$,
      468    18382    2                                       ID3_DESC) ;
      469    18383    2            IF ID3_DESC.SIZ$ ~= ADDR (NIL)
      470    18384    2            OR ID3_DESC.DESC.ADSC.N ~= 1
      471    18385    2            OR ID3$ -> LX_ETT_ITEM.ETT$ -> ETT.ID ~= %TRIAD
      472    18386    2            THEN OPTIMIZABLE = FALSE ;
      473    18387    2          END ; /* Leading Check */
      474    18388
      475    18389    1          ADD$ = ADDR(ADD) ;
      476    18390    1          SUB$ = ADDR(SUB) ;
      477    18391    1          LENGTH$  = ADDR(LENGTH) ;
      478    18392    1          SUBSTR$  = ADDR(SUB_STR) ;
      479    18393
      480    18394    1          LENGTH_ID1$ = ADDR (LENGTH_ID1) ;
      481    18395    1          CALL Z8AU$LENGTH (ID1$ -> LX_ETT_ITEM.ETT$, LENGTH_ID1$) ;
      482    18396
      483    18397    2          IF NOT OPTIMIZABLE THEN DO ;
PL6.E3A0      #001=Z8EA$INSPECT_1 File=Z8EA.:Z8A6TSI                             SAT 08/09/97 11:39 Page:16
      484    18398
      485    18399    2            CALL Z8AT$CREATE_TEMPORARY (%PARA, END_LOOP$) ;
      486    18400
      487    18401    2            POINTER$ = ADDR(POINTER) ;
      488    18402                 %INIT_LX_ETT_ITEM (@POINTER = POINTER$, @TYPE = %TYI) ;
      489    18424    2            CALL Z8AT$CREATE_TEMP_WITH_BASE (%SCALAR, POINTER$ -> LX_ETT_ITEM.ETT$) ;
      490    18425
      491    18426                 /* POINTER = 0 */
      492    18427
      493    18428                 %NEW_ILL (@ID  = %MVII,
      494    18429                           @LOP = "POINTER$ -> LX_ETT_ITEM.ETT$",
      495    18430                           @ROP = COMCOM.VALUE_0) ;
      496    18809
      497    18810                 /* DO WHILE (POINTER < LENGTHC (id-1)) */
      498    18811
      499    18812                 /* (1) Save O1COM.ILS_LIST
      500    18813                    (2) Set O1COM.ILS_LIST to nil
      501    18814                    (3) Create body of loop
      502    18815                    (4) Save O1COM.ILS_LIST (now the body)
      503    18816                    (5) Restore O1COM.ILS_LIST
      504    18817                    (6) Call Z8EQ$CREATE$DO_WHILE (condition, body)
      505    18818                 */
      506    18819
      507    18820    2            SAVED_ILS_LIST = O1COM.ILS_LIST ;
      508    18821                 %INIT_ILS_LIST (@POINTER = "ADDR(O1COM.ILS_LIST)") ;
      509    18829
      510    18830    2          END ; /* Not optimizable */
      511    18831
      512    18832               /* DO Body */
      513    18833
      514    18834    1          LX_LIST$ = INSPECT$ -> INSPECT_1_STMT.INSPECT_1$ ;
      515    18835    1          ID2$ = LX_LIST$ -> LX_LIST.HEAD$ ;
      516    18836    1          LX_LIST$ = LX_LIST$ -> LX_LIST.TAIL$ ;
      517    18837    1          FOR$ = LX_LIST$ -> LX_LIST.HEAD$ ;
      518    18838
      519    18839    2          DO WHILE (FOR$ ~= ADDR(NIL)) ;
      520    18840
PL6.E3A0      #001=Z8EA$INSPECT_1 File=Z8EA.:Z8A6TSI                             SAT 08/09/97 11:39 Page:17
      521    18841    2            CLAUSE_TYPE = FOR$ -> LX_LIST.HEAD$ -> LX_TERMINAL.SYMBOL ;
      522    18842
      523    18843        %EJECT;
PL6.E3A0      #001=Z8EA$INSPECT_1 File=Z8EA.:Z8A6TSI                             SAT 08/09/97 11:39 Page:18
      524    18844                 /*=============================================*/
      525    18845                 /*V* INSPECT_TALLYING_PASS_3_CHARACTERS_CLAUSE */
      526    18846                 /*=============================================*/
      527    18847
      528    18848    3            IF CLAUSE_TYPE = %RSV_WRD_CHARACTERS THEN DO ; /* CHARACTERS */
      529    18849
      530    18850    3              CALL FIND_BEFORE_AFTER_INDEXES (FOR$ -> LX_LIST.HEAD$
      531    18851    3                                                   -> LX_TERMINAL.LINK,
      532    18852    3                                              BEFORE$,
      533    18853    3                                              AFTER$) ;
      534    18854
      535    18855    4              IF OPTIMIZABLE THEN DO ;
      536    18856
      537    18857    5                IF AFTER$ = ADDR(NIL) THEN DO ;
      538    18858
      539    18859    6                  IF BEFORE$ = ADDR(NIL) THEN DO ;
      540    18860
      541    18861                         /* ADD LENGTH (ID1) TO ID2 */
      542    18862
      543    18863                         %NEW_ILL (@ID  = %AD2I,
      544    18864                                   @LOP = ID2$ -> LX_ETT_ITEM.ETT$,
      545    18865                                   @ROP = LENGTH_ID1$ -> LX_ETT_ITEM.ETT$) ;
      546    19244
      547    19245    6                  END ; /* No before clause */
      548    19246
      549    19247    6                  ELSE DO ; /* CHARACTERS, BEFORE, no AFTER */
      550    19248
      551    19249                         /* ADD BEFORE$ TO ID2 */
      552    19250
      553    19251                         %NEW_ILL (@ID  = %AD2I,
      554    19252                                   @LOP = ID2$ -> LX_ETT_ITEM.ETT$,
      555    19253                                   @ROP = BEFORE$ -> LX_ETT_ITEM.ETT$) ;
      556    19632
      557    19633    6                  END ; /* BEFORE */
      558    19634
      559    19635    5                END ; /* NO AFTER */
      560    19636
PL6.E3A0      #001=Z8EA$INSPECT_1 File=Z8EA.:Z8A6TSI                             SAT 08/09/97 11:39 Page:19
      561    19637    5                ELSE DO ; /* AFTER */
      562    19638
      563    19639                       /* Use length(id1) instead of before if no before */
      564    19640
      565    19641    5                  IF BEFORE$ = ADDR(NIL)
      566    19642    5                  THEN BEFORE$ = LENGTH_ID1$ ;
      567    19643
      568    19644                       /* IF AFTER$ < BEFORE$ THEN
      569    19645                             ADD BEFORE$ - AFTER$ TO ID2
      570    19646                       */
      571    19647
      572    19648                       %IF_THEN_DO (@LOP = AFTER$,
      573    19649                                    @REL = %OP_LESS_THAN,
      574    19650                                    @ROP = BEFORE$,
      575    19651                                    @LAB = END_IF$) ;
      576    19686
      577    19687                       %INIT_BINARY_OP (@POINTER = SUB$,
      578    19688                                        @LOP$    = BEFORE$,
      579    19689                                        @OP      = %OP_BINARY_MINUS,
      580    19690                                        @ROP$    = AFTER$,
      581    19691                                        @LINE    = "ID1$ -> LX_ETT_ITEM.LINE",
      582    19692                                        @COLUMN  = "ID1$ -> LX_ETT_ITEM.COLUMN") ;
      583    19710
      584    19711    5                  CALL Z8E5$MATH_PACK (SUB$, SUB$) ;
      585    19712
      586    19713                       %NEW_ILL (@ID  = %AD2I,
      587    19714                                 @LOP = ID2$ -> LX_ETT_ITEM.ETT$,
      588    19715                                 @ROP = SUB$ -> LX_ETT_ITEM.ETT$) ;
      589    20094
      590    20095                       %NEW_ILL (@ID = %DEFLB, @LOP = END_IF$) ;
      591    20474
      592    20475    5                END ; /* AFTER */
      593    20476
      594    20477    4              END ; /* OPTIMIZABLE */
      595    20478
      596    20479    4              ELSE DO ; /* NOT OPTIMIZABLE */
      597    20480
PL6.E3A0      #001=Z8EA$INSPECT_1 File=Z8EA.:Z8A6TSI                             SAT 08/09/97 11:39 Page:20
      598    20481    5                IF AFTER$ ~= ADDR(NIL) THEN DO ;
      599    20482
      600    20483                       %IF_THEN_DO (@LOP = POINTER$,
      601    20484                                    @REL = %OP_GREATER_THAN_OR_EQUAL,
      602    20485                                    @ROP = AFTER$,
      603    20486                                    @LAB = END_AFTER_IF$) ;
      604    20521
      605    20522    5                END ;
      606    20523
      607    20524    5                IF BEFORE$ ~= ADDR (NIL) THEN DO ;
      608    20525
      609    20526                       %IF_THEN_DO (@LOP = POINTER$,
      610    20527                                    @REL = %OP_LESS_THAN,
      611    20528                                    @ROP = BEFORE$,
      612    20529                                    @LAB = END_BEFORE_IF$) ;
      613    20564
      614    20565    5                END ;
      615    20566
      616    20567                /*  Add 1 to ID1  */
      617    20568
      618    20569                     %NEW_ILL( @ID  = %AD2I,
      619    20570                               @LOP = ID2$ -> LX_ETT_ITEM.ETT$,
      620    20571                               @ROP = ONE$ );
      621    20950
      622    20951                     /* If Kanji, Add 2 to pointer, else add 1 */
      623    20952
      624    20953    4                IF ID1_ST$ -> SCALAR.B.KANJI   THEN
      625    20954    5                  DO;
      626    20955
      627    20956                         %NEW_ILL( @ID  = %AD2I,
      628    20957                                   @LOP = POINTER$ -> LX_ETT_ITEM.ETT$,
      629    20958                                   @ROP = TWO$ );
      630    21337
      631    21338    5                  END;
      632    21339    4                ELSE
      633    21340    5                  DO;
      634    21341
PL6.E3A0      #001=Z8EA$INSPECT_1 File=Z8EA.:Z8A6TSI                             SAT 08/09/97 11:39 Page:21
      635    21342                         %NEW_ILL (@ID  = %AD2I,
      636    21343                                   @LOP = POINTER$ -> LX_ETT_ITEM.ETT$,
      637    21344                                   @ROP = ONE$) ;
      638    21723
      639    21724    5                  END;
      640    21725
      641    21726                     /* GO TO END_LOOP */
      642    21727
      643    21728    4                CALL Z8EK$BRANCH (END_LOOP$) ;
      644    21729
      645    21730                     /* END (Pointer <= Before$) */
      646    21731
      647    21732    4                IF BEFORE$ ~= ADDR(NIL) THEN
      648    21733                       %NEW_ILL (@ID = %DEFLB, @LOP = END_BEFORE_IF$) ;
      649    22112
      650    22113                     /* END (Pointer >= After$) */
      651    22114
      652    22115    4                IF AFTER$ ~= ADDR(NIL) THEN
      653    22116                       %NEW_ILL (@ID = %DEFLB, @LOP = END_AFTER_IF$) ;
      654    22495
      655    22496    4                IF FOR$ -> LX_LIST.COUNT = 3
      656    22497    4                THEN ID2$ = FOR$ -> LX_LIST.TAIL$ ;
      657    22498
      658    22499    4              END ; /* Not optimizable */
      659    22500
      660    22501    3            END /* CHARACTERS */ ;
      661    22502
      662    22503        %EJECT;
PL6.E3A0      #001=Z8EA$INSPECT_1 File=Z8EA.:Z8A6TSI                             SAT 08/09/97 11:39 Page:22
      663    22504                 /*======================================*/
      664    22505                 /*V* INSPECT_TALLYING_PASS_3_ALL_CLAUSE */
      665    22506                 /*======================================*/
      666    22507
      667    22508    3            ELSE DO ; /* ALL or LEADING */
      668    22509
      669    22510    3              ALL$ = FOR$ -> LX_LIST.HEAD$ -> LX_TERMINAL.LINK -> LX_LIST.HEAD$ ;
      670    22511
      671    22512    4              DO WHILE (ALL$ ~= ADDR(NIL)) ;
      672    22513
      673    22514    4                ID3$ = ALL$ -> LX_LIST.HEAD$ ;
      674    22515    4                LENGTH_ID3$ = ADDR (LENGTH_ID3) ;
      675    22516    4                CALL Z8AU$LENGTH (ID3$ -> LX_ETT_ITEM.ETT$, LENGTH_ID3$) ;
      676    22517
      677    22518    4                BEFORE_AFTER$ = ALL$ -> LX_LIST.TAIL$ ;
      678    22519    4                CALL FIND_BEFORE_AFTER_INDEXES (BEFORE_AFTER$, BEFORE$, AFTER$) ;
      679    22520
      680    22521    5                DO CASE (CLAUSE_TYPE) ;
      681    22522
      682    22523    5                  CASE (%RSV_WRD_ALL) ;     /* ALL */
      683    22524
      684    22525    6                    IF AFTER$ ~= ADDR(NIL) THEN DO ;
      685    22526
      686    22527                           %IF_THEN_DO (@LOP = POINTER$,
      687    22528                                        @REL = %OP_GREATER_THAN_OR_EQUAL,
      688    22529                                        @ROP = AFTER$,
      689    22530                                        @LAB = END_AFTER_IF$) ;
      690    22565
      691    22566    6                    END ;
      692    22567
      693    22568    6                    IF BEFORE$ ~= ADDR (NIL) THEN DO ;
      694    22569
      695    22570                           /* IF Pointer <= Before$ - Length(id3) THEN DO */
      696    22571
      697    22572    6                      CALL BEFORE_CHECK (END_BEFORE_IF$) ;
      698    22573
      699    22574    6                    END ;
PL6.E3A0      #001=Z8EA$INSPECT_1 File=Z8EA.:Z8A6TSI                             SAT 08/09/97 11:39 Page:23
      700    22575
      701    22576                         /* IF SUBSTR (id1, Pointer, Lengthc(id3)) = id3 THEN DO */
      702    22577
      703    22578    5                    CALL IF_SUBSTR_ID1_EQUALS_ID3 (END_IF$) ;
      704    22579
      705    22580                         /* ADD 1 TO id2 */
      706    22581
      707    22582                         %NEW_ILL (@ID  = %AD2I,
      708    22583                                   @LOP = ID2$ -> LX_ETT_ITEM.ETT$,
      709    22584                                   @ROP = ONE$) ;
      710    22963
      711    22964
      712    22965                         /* ADD Lengthc (id3) TO Pointer */
      713    22966
      714    22967                         %NEW_ILL (@ID  = %AD2I,
      715    22968                                   @LOP = POINTER$ -> LX_ETT_ITEM.ETT$,
      716    22969                                   @ROP = LENGTH_ID3$  -> LX_ETT_ITEM.ETT$) ;
      717    23348
      718    23349                         /* GO TO End_Loop */
      719    23350
      720    23351    5                    CALL Z8EK$BRANCH (END_LOOP$) ;
      721    23352
      722    23353                         /* END-IF */
      723    23354
      724    23355                         %NEW_ILL (@ID = %DEFLB, @LOP = END_IF$) ;
      725    23734
      726    23735                         /* END (Pointer <= Before$) */
      727    23736
      728    23737    5                    IF BEFORE$ ~= ADDR(NIL) THEN
      729    23738                           %NEW_ILL (@ID = %DEFLB, @LOP = END_BEFORE_IF$) ;
      730    24117
      731    24118                         /* END (Pointer >= After$) */
      732    24119
      733    24120    5                    IF AFTER$ ~= ADDR(NIL) THEN
      734    24121                           %NEW_ILL (@ID = %DEFLB, @LOP = END_AFTER_IF$) ;
      735    24500
      736    24501        %EJECT;
PL6.E3A0      #001=Z8EA$INSPECT_1 File=Z8EA.:Z8A6TSI                             SAT 08/09/97 11:39 Page:24
      737    24502                       /*==========================================*/
      738    24503                       /*V* INSPECT_TALLYING_PASS_3_LEADING_CLAUSE */
      739    24504                       /*==========================================*/
      740    24505
      741    24506    5                  CASE (%RSV_WRD_LEADING) ;  /* LEADING */
      742    24507
      743    24508    6                    IF OPTIMIZABLE THEN DO ;
      744    24509
      745    24510    6                      CALL LEADING_OPTIMIZED ; /* Search id1 via TCT */
      746    24511
      747    24512                           /* id2 = id2 + Result_of_TCT */
      748    24513
      749    24514                           %NEW_ILL (@ID  = %AD2I,
      750    24515                                     @LOP = ID2$ -> LX_ETT_ITEM.ETT$,
      751    24516                                     @ROP = POSITION$ -> LX_ETT_ITEM.ETT$) ;
      752    24895
      753    24896    6                    END ; /* Tallying Leading Optimizing */
      754    24897
      755    24898    6                    ELSE DO ; /* Not Optimizable */
      756    24899
      757    24900    7                      IF AFTER$ ~= ADDR(NIL) THEN DO ;
      758    24901
      759    24902                             %IF_THEN_DO (@LOP = POINTER$,
      760    24903                                          @REL = %OP_EQUAL,
      761    24904                                          @ROP = AFTER$,
      762    24905                                          @LAB = END_AFTER_IF$) ;
      763    24940
      764    24941    7                      END ;
      765    24942
      766    24943    7                      IF BEFORE$ ~= ADDR (NIL) THEN DO ;
      767    24944
      768    24945                             /* IF Pointer <= Before$ - Length(id3) THEN DO */
      769    24946
      770    24947    7                        CALL BEFORE_CHECK (END_BEFORE_IF$) ;
      771    24948
      772    24949    7                      END ;
      773    24950
PL6.E3A0      #001=Z8EA$INSPECT_1 File=Z8EA.:Z8A6TSI                             SAT 08/09/97 11:39 Page:25
      774    24951                           /* IF SUBSTR (id1, Pointer, Lengthc(id3)) = id3 THEN DO */
      775    24952
      776    24953    6                      CALL IF_SUBSTR_ID1_EQUALS_ID3 (END_IF$) ;
      777    24954
      778    24955                           /* ADD 1 TO id2 */
      779    24956
      780    24957                           %NEW_ILL (@ID  = %AD2I,
      781    24958                                     @LOP = ID2$ -> LX_ETT_ITEM.ETT$,
      782    24959                                     @ROP = ONE$) ;
      783    25338
      784    25339                           /* ADD Lengthc (id3) TO Pointer */
      785    25340
      786    25341                           %NEW_ILL (@ID  = %AD2I,
      787    25342                                     @LOP = POINTER$ -> LX_ETT_ITEM.ETT$,
      788    25343                                     @ROP = LENGTH_ID3$  -> LX_ETT_ITEM.ETT$) ;
      789    25722
      790    25723                           /* AFTER$ = AFTER$ + LENGTHC (id3) */
      791    25724
      792    25725                           %NEW_ILL (@ID  = %AD2I,
      793    25726                                     @LOP = AFTER$   -> LX_ETT_ITEM.ETT$,
      794    25727                                     @ROP = LENGTH_ID3$  -> LX_ETT_ITEM.ETT$) ;
      795    26106
      796    26107                           /* GO TO End_Loop */
      797    26108
      798    26109    6                      CALL Z8EK$BRANCH (END_LOOP$) ;
      799    26110
      800    26111                           /* END-IF */
      801    26112
      802    26113                           %NEW_ILL (@ID = %DEFLB, @LOP = END_IF$) ;
      803    26492
      804    26493                           /* END (Pointer <= Before$) */
      805    26494
      806    26495    6                      IF BEFORE$ ~= ADDR(NIL) THEN
      807    26496                             %NEW_ILL (@ID = %DEFLB, @LOP = END_BEFORE_IF$) ;
      808    26875
      809    26876                           /* END (Pointer >= After$) */
      810    26877
PL6.E3A0      #001=Z8EA$INSPECT_1 File=Z8EA.:Z8A6TSI                             SAT 08/09/97 11:39 Page:26
      811    26878    6                      IF AFTER$ ~= ADDR(NIL) THEN
      812    26879                             %NEW_ILL (@ID = %DEFLB, @LOP = END_AFTER_IF$) ;
      813    27258
      814    27259    6                    END ; /* Tallying Leading Not-Optimizable */
      815    27260
      816    27261        %EJECT;
PL6.E3A0      #001=Z8EA$INSPECT_1 File=Z8EA.:Z8A6TSI                             SAT 08/09/97 11:39 Page:27
      817    27262                     /*==================================*/
      818    27263                     /*V* INSPECT_TALLYING_PASS_3_WRAPUP */
      819    27264                     /*==================================*/
      820    27265
      821    27266    5                END ; /* Case of Clause_Type */
      822    27267
      823    27268    4                ALL$ = ALL$ -> LX_LIST.LINK ;
      824    27269
      825    27270    4              END /* Do While ALL$ <> nil */ ;
      826    27271
      827    27272    3              IF FOR$ -> LX_LIST.COUNT = 3
      828    27273    3              THEN ID2$ = FOR$ -> LX_LIST.TAIL$ ;
      829    27274
      830    27275    3            END /* Else Do (Leading, All, or First) */ ;
      831    27276
      832    27277    2            FOR$ = FOR$ -> LX_LIST.LINK ;
      833    27278
      834    27279    2          END /* Do While FOR$ <> nil */ ;
      835    27280
      836    27281    2          IF NOT OPTIMIZABLE THEN DO ;
      837    27282
      838    27283    2            IF  CLAUSE_TYPE = %RSV_WRD_CHARACTERS
      839    27284    2            AND AFTER$ = ADDR(NIL)
      840    27285    3            AND BEFORE$ = ADDR(NIL) THEN DO ;
      841    27286                   /* Avoid "Dead Code" error by not generating AOS */
      842    27287    3            END ;
      843    27288
      844    27289    3            ELSE DO ; /* Last Clause was not CHARACTERS with no BEFORE/AFTER */
      845    27290
      846    27291                     /* If Kanji, Add 2 to pointer, else add 1 */
      847    27292
      848    27293    3                IF ID1_ST$ -> SCALAR.B.KANJI   THEN
      849    27294    4                  DO;
      850    27295
      851    27296                         %NEW_ILL( @ID  = %AD2I,
      852    27297                                   @LOP = POINTER$ -> LX_ETT_ITEM.ETT$,
      853    27298                                   @ROP = TWO$ );
PL6.E3A0      #001=Z8EA$INSPECT_1 File=Z8EA.:Z8A6TSI                             SAT 08/09/97 11:39 Page:28
      854    27677
      855    27678    4                  END;
      856    27679    3                ELSE
      857    27680    4                  DO;
      858    27681
      859    27682                         %NEW_ILL (@ID  = %AD2I,
      860    27683                                   @LOP = POINTER$ -> LX_ETT_ITEM.ETT$,
      861    27684                                   @ROP = ONE$) ;
      862    28063
      863    28064    4                  END;
      864    28065
      865    28066    3            END ; /* Else Do */
      866    28067
      867    28068                 /* Wrapup DO WHILE */
      868    28069
      869    28070                 %NEW_ILL (@ID = %DEFLB, @LOP = END_LOOP$) ;
      870    28449
      871    28450    2            DO_BODY_ILS_LIST = O1COM.ILS_LIST ;
      872    28451
      873    28452    2            O1COM.ILS_LIST = SAVED_ILS_LIST ;
      874    28453
      875    28454    2            COMPARISON$ = ADDR (COMPARISON) ;
      876    28455                 %INIT_BINARY_OP (@POINTER = COMPARISON$,
      877    28456                                  @LOP$    = POINTER$,
      878    28457                                  @OP      = %OP_LESS_THAN,
      879    28458                                  @ROP$    = LENGTH_ID1$,
      880    28459                                  @LINE    = "ID1$ -> LX_ETT_ITEM.LINE",
      881    28460                                  @COLUMN  = "ID1$ -> LX_ETT_ITEM.COLUMN") ;
      882    28478
      883    28479    2            CALL Z8EQ$CREATE_DO_WHILE (COMPARISON$, ADDR(DO_BODY_ILS_LIST) ) ;
      884    28480
      885    28481    2          END ; /* Not optimizable */
      886    28482
      887    28483               %APPEND_ILS_LIST (@TO$ = "ADDR(O1COM.ILS_LIST)",
      888    28484                                 @FROM$ = "ADDR(CONVERSION_ILS_LIST)") ;
      889    28501
      890    28502    1          RETURN ;
PL6.E3A0      #001=Z8EA$INSPECT_1 File=Z8EA.:Z8A6TSI                             SAT 08/09/97 11:39 Page:29
      891    28503
      892    28504
      893    28505        %EJECT;
PL6.E3A0      #001=Z8EA$INSPECT_1 File=Z8EA.:Z8A6TSI                             SAT 08/09/97 11:39 Page:30
      894    28506        /*==============*/
      895    28507    1     Z8EA$INSPECT_2: ENTRY (INSPECT$) ; /* Inspect Replacing */
      896    28508        /*==============*/
      897    28509
      898    28510               /*V* INSPECT_REPLACING_PASS_2 */
      899    28511
      900    28512    1          ONE_LX_ETT$ = ADDR (ONE) ;
      901    28513    1          CALL Z8AC$LX_ETT_ITEM_TYI_CONST (1, ONE_LX_ETT$) ;
      902    28514    1          ONE$ = ONE_LX_ETT$ -> LX_ETT_ITEM.ETT$ ;
      903    28515    1          TWO_LX_ETT$ = ADDR (TWO) ;
      904    28516    1          CALL Z8AC$LX_ETT_ITEM_TYI_CONST (2, TWO_LX_ETT$) ;
      905    28517    1          TWO$ = TWO_LX_ETT$ -> LX_ETT_ITEM.ETT$ ;
      906    28518
      907    28519               %INIT_ILS_LIST (@POINTER = "ADDR(CONVERSION_ILS_LIST)") ;
      908    28527    1          PRODUCE_INSPECT_ILS = TRUE ;
      909    28528
      910    28529    1          ID1$ = ADDR (ID1) ;
      911    28530    1          ID1_ORIG_TYPE = INSPECT$-> INSPECT_2_STMT.ID_1$-> LX_ETT_ITEM.TYPE;
      912    28531    1          IF INSPECT$ -> INSPECT_2_STMT.ID_1$ -> LX_ETT_ITEM.B.HIGH_LEV THEN
      913    28532    1            INSPECT$ -> INSPECT_2_STMT.HIGH_LEV = TRUE;
      914    28533    1          CALL VERIFY_ALPHA_DEF (INSPECT$ -> INSPECT_2_STMT.ID_1$, ID1$) ;
      915    28534
      916    28535    1          NO_OF_CLAUSES = 0 ;
      917    28536    1          REPLACE$ = INSPECT$ -> INSPECT_2_STMT.INSP_2_REPLACE$ -> LX_LIST.HEAD$ ;
      918    28537
      919    28538    2          DO WHILE (REPLACE$ ~= ADDR(NIL)) ;
      920    28539
      921    28540    2            CLAUSE_TYPE = REPLACE$ -> LX_LIST.HEAD$ -> LX_TERMINAL.SYMBOL ;
      922    28541
      923    28542    3            IF CLAUSE_TYPE = %RSV_WRD_CHARACTERS THEN DO ;
      924    28543
      925    28544    3              NO_OF_CLAUSES = NO_OF_CLAUSES + 1 ;
      926    28545
      927    28546    3              ID5$ = REPLACE$ -> LX_LIST.HEAD$ -> LX_TERMINAL.LINK ;
      928    28547    3              IF INSPECT$-> INSPECT_2_STMT.KEY_WORD$->
      929    28548    3                 LX_TERMINAL.SYMBOL = %RSV_WRD_EXAMINE  THEN
      930    28549    4                DO;
PL6.E3A0      #001=Z8EA$INSPECT_1 File=Z8EA.:Z8A6TSI                             SAT 08/09/97 11:39 Page:31
      931    28550    4                  CALL EXAMINE_ID_CHECK( ID1$, ID5$ );
      932    28551    4                  CALL Z8EV$CONVERT_TYA (ID5$, ID5$, ID1$) ;
      933    28552    4                END;
      934    28553    3              ELSE
      935    28554    3                CALL VERIFY_ALPHA_REF ( ID5$ );
      936    28555
      937    28556                   /* Check id5 for length of one */
      938    28557
      939    28558    3              IF PRODUCE_INSPECT_ILS THEN
      940    28559    4                DO;
      941    28560    4                  CALL Z8AU$TYPE_DESCRIPTOR (ID5$ -> LX_ETT_ITEM.ETT$,
      942    28561    4                                             ID5_DESC) ;
      943    28562    4                  IF ID5_DESC.SIZ$ = ADDR(NIL) THEN
      944    28563    4                    IF ID5_DESC.DESC.ADSC.N ~= 1 THEN
      945    28564    4                      IF  ID5_DESC.DESC.ADSC.N = 2
      946    28565    4                      AND ID1$ -> LX_ITEM.TYPE = %TYN
      947    28566    4                      THEN ;         /* OK    */
      948    28567    5                      ELSE DO;       /* Error */
      949    28568    5                        CALL Z8AE$ERROR (%E$INSPECT_NOT_1_BYTE,
      950    28569    5                                         ID5$ -> LX_ITEM.LINE,
      951    28570    5                                         ID5$ -> LX_ITEM.COLUMN) ;
      952    28571    5                      END ;
      953    28572    4                END;  /* if produce_inspect_ils */
      954    28573
      955    28574    3              CALL SCAN_BEFORE_AFTER (REPLACE$ -> LX_LIST.TAIL$,
      956    28575    3                                      ID5$ -> LX_ETT_ITEM.LINK,
      957    28576    3                                      %RSV_WRD_CHARACTERS,
      958    28577    3                                      ID1$) ;
      959    28578
      960    28579    3              LENGTH_ID5$ = ADDR(LENGTH_ID5) ;
      961    28580    3            END ;
      962    28581
      963    28582    3            ELSE DO ; /* ALL, LEADING, or FIRST */
      964    28583
      965    28584    3              FIRST$ = REPLACE$ -> LX_LIST.TAIL$ -> LX_LIST.HEAD$ ;
      966    28585
      967    28586    4              DO WHILE (FIRST$ ~= ADDR(NIL)) ;
PL6.E3A0      #001=Z8EA$INSPECT_1 File=Z8EA.:Z8A6TSI                             SAT 08/09/97 11:39 Page:32
      968    28587
      969    28588    4                NO_OF_CLAUSES = NO_OF_CLAUSES + 1 ;
      970    28589
      971    28590    4                ID3$ = FIRST$ -> LX_LIST.HEAD$ ;
      972    28591    4                ID5$ = ID3$ -> LX_LIST.LINK ;
      973    28592    4                IF INSPECT$-> INSPECT_2_STMT.KEY_WORD$->
      974    28593    4                   LX_TERMINAL.SYMBOL = %RSV_WRD_EXAMINE  THEN
      975    28594    5                  DO;
      976    28595    5                    CALL EXAMINE_ID_CHECK (ID1$, ID3$);
      977    28596    5                    CALL EXAMINE_ID_CHECK (ID1$, ID5$);
      978    28597    5                    CALL Z8EV$CONVERT_TYA (ID5$, ID5$, ID1$) ;
      979    28598    5                  END;
      980    28599    4                ELSE  /* inspect statement */
      981    28600    5                  DO;
      982    28601    5                    CALL VERIFY_ALPHA_REF_LEV ( ID3$ );
      983    28602    5                    CALL VERIFY_ALPHA_REF_LEV ( ID5$ );
      984    28603
      985    28604                         /* Size (id3) must equal Size (id5) */
      986    28605
      987    28606    5                    IF  PRODUCE_INSPECT_ILS
      988    28607    5                    AND NOT ID5$-> LX_ETT_ITEM.B.ALL THEN
      989    28608    6                      DO;
      990    28609
      991    28610    6                        CALL Z8AU$TYPE_DESCRIPTOR (ID3$-> LX_ETT_ITEM.ETT$,
      992    28611    6                                                   ID3_DESC) ;
      993    28612    6                        CALL Z8AU$TYPE_DESCRIPTOR (ID5$-> LX_ETT_ITEM.ETT$,
      994    28613    6                                                   ID5_DESC) ;
      995    28614    6                        IF ID3_DESC.SIZ$ ~= ID5_DESC.SIZ$
      996    28615    6                        OR ID3_DESC.DESC.ADSC.N ~= ID5_DESC.DESC.ADSC.N THEN
      997    28616    7                          DO;     /* Error */
      998    28617    7                            CALL Z8AE$ERROR (%E$INSPECT_ID3_N_NE_ID5_N,
      999    28618    7                                             ID5$ -> LX_ITEM.LINE,
     1000    28619    7                                             ID5$ -> LX_ITEM.COLUMN) ;
     1001    28620    7                          END ; /* length(id3) <> length(id5) */
     1002    28621
     1003    28622    6                      END ; /* id5 is not a figurative constant */
     1004    28623    5                  END;  /* inspect statement */
PL6.E3A0      #001=Z8EA$INSPECT_1 File=Z8EA.:Z8A6TSI                             SAT 08/09/97 11:39 Page:33
     1005    28624
     1006    28625    4                CALL SCAN_BEFORE_AFTER (FIRST$ -> LX_LIST.TAIL$,
     1007    28626    4                                        ID5$ -> LX_ETT_ITEM.LINK,
     1008    28627    4                                        CLAUSE_TYPE,
     1009    28628    4                                        ID1$) ;
     1010    28629
     1011    28630    4                FIRST$ = FIRST$ -> LX_LIST.LINK ;
     1012    28631
     1013    28632    4              END /* Do While */ ;
     1014    28633
     1015    28634    3              LENGTH_ID3$ = ADDR (LENGTH_ID3) ;
     1016    28635    3            END /* ELSE DO (ALL, LEADING, FIRST) */ ;
     1017    28636
     1018    28637    2            REPLACE$ = REPLACE$ -> LX_LIST.LINK ;
     1019    28638
     1020    28639    2          END /* Do While */ ;
     1021    28640
     1022    28641        %EJECT;
PL6.E3A0      #001=Z8EA$INSPECT_1 File=Z8EA.:Z8A6TSI                             SAT 08/09/97 11:39 Page:34
     1023    28642               /*======================*/
     1024    28643               /*V* Local_Optimizations [see (6) thru (12) above] */
     1025    28644               /*======================*/
     1026    28645
     1027    28646    1          IF PRODUCE_INSPECT_ILS = FALSE THEN RETURN ;
     1028    28647
     1029    28648    1          OPTIMIZABLE = (NO_OF_CLAUSES = 1) ;
     1030    28649
     1031    28650               /* id-5 must be a one-byte constant */
     1032    28651
     1033    28652    1          IF INSPECT$ -> INSPECT_2_STMT.KEY_WORD$ ->
     1034    28653    2            LX_TERMINAL.SYMBOL = %RSV_WRD_EXAMINE THEN DO ;
     1035    28654    2            CALL Z8AU$TYPE_DESCRIPTOR (ID5$-> LX_ETT_ITEM.ETT$,
     1036    28655    2                                       ID5_DESC) ;
     1037    28656    2          END ; /* Statement type is EXAMINE */
     1038    28657
     1039    28658    1          IF ID5_DESC.SIZ$ ~= ADDR(NIL)
     1040    28659    1          OR ID5_DESC.DESC.ADSC.N ~= 1
     1041    28660    1          OR ID5$ -> LX_ETT_ITEM.ETT$ ->ETT.ID ~= %TRIAD
     1042    28661    1          THEN OPTIMIZABLE = FALSE ;
     1043    28662
     1044    28663    2          DO CASE (CLAUSE_TYPE) ;
     1045    28664
     1046    28665    2            CASE (%RSV_WRD_FIRST) ;
     1047    28666
     1048    28667    2              OPTIMIZABLE = FALSE ;
     1049    28668
     1050    28669    2            CASE (%RSV_WRD_ALL, %RSV_WRD_LEADING) ;
     1051    28670
     1052    28671                   /* id-3 must be a one-byte constant */
     1053    28672
     1054    28673    2              IF ID3$ -> LX_ETT_ITEM.ETT$ -> ETT.ID ~= %TRIAD
     1055    28674    2              THEN OPTIMIZABLE = FALSE ;
     1056    28675
     1057    28676    2          END ; /* Case of clause type */
     1058    28677
     1059    28678        %EJECT;
PL6.E3A0      #001=Z8EA$INSPECT_1 File=Z8EA.:Z8A6TSI                             SAT 08/09/97 11:39 Page:35
     1060    28679               /*============================*/
     1061    28680               /*V* INSPECT REPLACING Pass 3 */
     1062    28681               /*============================*/
     1063    28682
     1064    28683    1          ADD$ = ADDR(ADD) ;
     1065    28684    1          SUB$ = ADDR(SUB) ;
     1066    28685    1          LENGTH$  = ADDR(LENGTH) ;
     1067    28686    1          SUBSTR$  = ADDR(SUB_STR) ;
     1068    28687
     1069    28688    1          IF INSPECT$ -> INSPECT_2_STMT.ID_1$ -> LX_ETT_ITEM.TYPE = %TYB OR
     1070    28689    1             INSPECT$ -> INSPECT_2_STMT.ID_1$ -> LX_ETT_ITEM.TYPE = %TYE THEN
     1071    28690    1            ID1$ = INSPECT$ -> INSPECT_2_STMT.ID_1$ ;
     1072    28691    1          LENGTH_ID1$ = ADDR (LENGTH_ID1) ;
     1073    28692    1          CALL Z8AU$LENGTH (ID1$ -> LX_ETT_ITEM.ETT$, LENGTH_ID1$) ;
     1074    28693
     1075    28694    2          IF NOT OPTIMIZABLE THEN DO ;
     1076    28695
     1077    28696    2            CALL Z8AT$CREATE_TEMPORARY (%PARA, END_LOOP$) ;
     1078    28697
     1079    28698    2            POINTER$ = ADDR(POINTER) ;
     1080    28699                 %INIT_LX_ETT_ITEM (@POINTER = POINTER$, @TYPE = %TYI) ;
     1081    28721    2            CALL Z8AT$CREATE_TEMP_WITH_BASE (%SCALAR, POINTER$ -> LX_ETT_ITEM.ETT$) ;
     1082    28722
     1083    28723                 /* POINTER = 0 */
     1084    28724
     1085    28725                 %NEW_ILL (@ID  = %MVII,
     1086    28726                           @LOP = "POINTER$ -> LX_ETT_ITEM.ETT$",
     1087    28727                           @ROP = COMCOM.VALUE_0) ;
     1088    29106
     1089    29107                 /* DO WHILE (POINTER < LENGTHC (id-1)) */
     1090    29108
     1091    29109                 /* (1) Save O1COM.ILS_LIST
     1092    29110                    (2) Set O1COM.ILS_LIST to nil
     1093    29111                    (3) Create body of loop
     1094    29112                    (4) Save O1COM.ILS_LIST (now the body)
     1095    29113                    (5) Restore O1COM.ILS_LIST
     1096    29114                    (6) Call Z8EQ$CREATE$DO_WHILE (condition, body)
PL6.E3A0      #001=Z8EA$INSPECT_1 File=Z8EA.:Z8A6TSI                             SAT 08/09/97 11:39 Page:36
     1097    29115                 */
     1098    29116
     1099    29117    2            SAVED_ILS_LIST = O1COM.ILS_LIST ;
     1100    29118                 %INIT_ILS_LIST (@POINTER = "ADDR(O1COM.ILS_LIST)") ;
     1101    29126
     1102    29127    2          END ; /* Not Optimizable */
     1103    29128
     1104    29129               /* DO Body */
     1105    29130
     1106    29131    1          REPLACE$ = INSPECT$ -> INSPECT_2_STMT.INSP_2_REPLACE$ -> LX_LIST.HEAD$ ;
     1107    29132
     1108    29133    2          DO WHILE (REPLACE$ ~= ADDR(NIL)) ;
     1109    29134
     1110    29135    2            CLAUSE_TYPE = REPLACE$ -> LX_LIST.HEAD$ -> LX_TERMINAL.SYMBOL ;
     1111    29136
     1112    29137        %EJECT;
PL6.E3A0      #001=Z8EA$INSPECT_1 File=Z8EA.:Z8A6TSI                             SAT 08/09/97 11:39 Page:37
     1113    29138                   /*============================================*/
     1114    29139                 /*V* INSPECT_REPLACING_PASS_3_CHARACTERS_CLAUSE */
     1115    29140                   /*============================================*/
     1116    29141
     1117    29142    3            IF CLAUSE_TYPE = %RSV_WRD_CHARACTERS THEN DO ; /* CHARACTERS */
     1118    29143
     1119    29144    3              CALL FIND_BEFORE_AFTER_INDEXES (REPLACE$ ->LX_LIST.TAIL$,
     1120    29145    3                                              BEFORE$,
     1121    29146    3                                              AFTER$) ;
     1122    29147
     1123    29148    4              IF OPTIMIZABLE THEN DO ;
     1124    29149
     1125    29150    4                IF TYPE1 = %TYB OR TYPE1 = %TYE THEN
     1126    29151    4                  CALL CONVERT_CONST (ID5$) ;
     1127    29152
     1128    29153    4                ID5$ -> LX_ETT_ITEM.B.ALL = TRUE ;
     1129    29154
     1130    29155    4                IF BEFORE$ = ADDR(NIL)
     1131    29156    4                THEN BEFORE$ = LENGTH_ID1$ ;
     1132    29157
     1133    29158    5                IF AFTER$ ~= ADDR(NIL) THEN DO ;
     1134    29159
     1135    29160                       /* IF After < Before THEN                       */
     1136    29161                       /*   MOVE FILLER("x")                           */
     1137    29162                       /*     TO SUBSTR (id1, AFTER, BEFORE - AFTER)   */
     1138    29163
     1139    29164                       %IF_THEN_DO (@LOP = AFTER$,
     1140    29165                                    @REL = %OP_LESS_THAN,
     1141    29166                                    @ROP = BEFORE$,
     1142    29167                                    @LAB = END_IF$) ;
     1143    29202
     1144    29203                       %INIT_BINARY_OP (@POINTER = SUB$,
     1145    29204                                        @LOP$    = BEFORE$,
     1146    29205                                        @OP      = %OP_BINARY_MINUS,
     1147    29206                                        @ROP$    = AFTER$,
     1148    29207                                        @LINE    = "ID1$ -> LX_ETT_ITEM.LINE",
     1149    29208                                        @COLUMN  = "ID1$ -> LX_ETT_ITEM.COLUMN") ;
PL6.E3A0      #001=Z8EA$INSPECT_1 File=Z8EA.:Z8A6TSI                             SAT 08/09/97 11:39 Page:38
     1150    29226
     1151    29227    5                  CALL Z8EA$INSERT_ZERO (ID1$, AFTER$, SUB$, SUBSTR$) ;
     1152    29228    5                  CALL Z8E7$MOVE (SUBSTR$, ID5$) ;
     1153    29229
     1154    29230                       %NEW_ILL (@ID = %DEFLB, @LOP = END_IF$) ;
     1155    29609
     1156    29610    5                END ; /* AFTER clause exists */
     1157    29611
     1158    29612    5                ELSE DO ; /* No AFTER Clause */
     1159    29613
     1160    29614                       /* MOVE FILLER("x") TO SUBSTR (id1, 1, Before) */
     1161    29615
     1162    29616    5                  CALL Z8EY$INSERT (ID1$, ONE_LX_ETT$, BEFORE$, SUBSTR$) ; /*#42050*/
     1163    29617    5                  CALL Z8E7$MOVE (SUBSTR$, ID5$) ;
     1164    29618
     1165    29619    5                END ; /* No AFTER Clause */
     1166    29620
     1167    29621    4              END ; /* Optimizable */
     1168    29622
     1169    29623    4              ELSE DO ; /* Not Optimizable */
     1170    29624
     1171    29625    5                IF AFTER$ ~= ADDR(NIL) THEN DO ;
     1172    29626
     1173    29627                       %IF_THEN_DO (@LOP = POINTER$,
     1174    29628                                    @REL = %OP_GREATER_THAN_OR_EQUAL,
     1175    29629                                    @ROP = AFTER$,
     1176    29630                                    @LAB = END_AFTER_IF$) ;
     1177    29665
     1178    29666    5                END ;
     1179    29667
     1180    29668    5                IF BEFORE$ ~= ADDR (NIL) THEN DO ;
     1181    29669
     1182    29670                       %IF_THEN_DO (@LOP = POINTER$,
     1183    29671                                    @REL = %OP_LESS_THAN,
     1184    29672                                    @ROP = BEFORE$,
     1185    29673                                    @LAB = END_BEFORE_IF$) ;
     1186    29708
PL6.E3A0      #001=Z8EA$INSPECT_1 File=Z8EA.:Z8A6TSI                             SAT 08/09/97 11:39 Page:39
     1187    29709    5                END ;
     1188    29710
     1189    29711    4                ID5$ = REPLACE$ -> LX_LIST.HEAD$ -> LX_TERMINAL.LINK ;
     1190    29712    4                CALL Z8AU$LENGTH (ID5$ -> LX_ETT_ITEM.ETT$, LENGTH_ID5$) ;
     1191    29713
     1192    29714                     /* SUBSTR (ID1, POINTER, Length(id5)) = ID5 */
     1193    29715
     1194    29716    4                CALL Z8EA$INSERT_ZERO (ID1$, POINTER$, LENGTH_ID5$, SUBSTR$) ;
     1195    29717    4                IF TYPE1 = %TYE OR TYPE1 = %TYB THEN
     1196    29718    4                  IF ID5$ -> LX_ETT_ITEM.ETT$ -> ETT.ID = %TRIAD THEN
     1197    29719    4                    CALL CONVERT_CONST (ID5$) ;
     1198    29720    4                CALL Z8E7$MOVE (SUBSTR$, ID5$) ;
     1199    29721
     1200    29722                     /* ADD Length(id5) TO POINTER */
     1201    29723
     1202    29724                     %NEW_ILL (@ID  = %AD2I,
     1203    29725                               @LOP = POINTER$ -> LX_ETT_ITEM.ETT$,
     1204    29726                               @ROP = LENGTH_ID5$ -> LX_ETT_ITEM.ETT$) ;
     1205    30105
     1206    30106                     /* GO TO END_LOOP */
     1207    30107
     1208    30108    4                CALL Z8EK$BRANCH (END_LOOP$) ;
     1209    30109
     1210    30110                     /* END (Pointer <= Before$) */
     1211    30111
     1212    30112    4                IF BEFORE$ ~= ADDR(NIL) THEN
     1213    30113                       %NEW_ILL (@ID = %DEFLB, @LOP = END_BEFORE_IF$) ;
     1214    30492
     1215    30493                     /* END (Pointer >= After$) */
     1216    30494
     1217    30495    4                IF AFTER$ ~= ADDR(NIL) THEN
     1218    30496                       %NEW_ILL (@ID = %DEFLB, @LOP = END_AFTER_IF$) ;
     1219    30875
     1220    30876    4                END ; /* Not Optimizable */
     1221    30877
     1222    30878    3            END /* CHARACTERS */ ;
     1223    30879
PL6.E3A0      #001=Z8EA$INSPECT_1 File=Z8EA.:Z8A6TSI                             SAT 08/09/97 11:39 Page:40
     1224    30880        %EJECT;
PL6.E3A0      #001=Z8EA$INSPECT_1 File=Z8EA.:Z8A6TSI                             SAT 08/09/97 11:39 Page:41
     1225    30881                   /*=====================================*/
     1226    30882                 /*V* INSPECT_REPLACING_PASS_3_ALL_CLAUSE */
     1227    30883                   /*=====================================*/
     1228    30884
     1229    30885    3            ELSE DO ; /* LEADING, ALL, or FIRST */
     1230    30886
     1231    30887    3              FIRST$ = REPLACE$ -> LX_LIST.TAIL$ -> LX_LIST.HEAD$ ;
     1232    30888
     1233    30889    4              DO WHILE (FIRST$ ~= ADDR(NIL)) ;
     1234    30890
     1235    30891    4                ID3$ = FIRST$ -> LX_LIST.HEAD$ ;
     1236    30892    4                CALL Z8AU$LENGTH (ID3$ -> LX_ETT_ITEM.ETT$, LENGTH_ID3$) ;
     1237    30893
     1238    30894    4                ID5$ = FIRST$ -> LX_LIST.HEAD$ -> LX_LIST.LINK ;
     1239    30895    4                IF TYPE1 = %TYE OR TYPE1 = %TYB THEN
     1240    30896    5                  DO ;
     1241    30897    5                    IF ID3$ -> LX_ETT_ITEM.ETT$ -> ETT.ID = %TRIAD THEN
     1242    30898    5                      CALL CONVERT_CONST (ID3$) ;
     1243    30899    5                    IF ID5$ -> LX_ETT_ITEM.ETT$ -> ETT.ID = %TRIAD THEN
     1244    30900    5                      CALL CONVERT_CONST (ID5$) ;
     1245    30901    5                  END ;
     1246    30902    4                BEFORE_AFTER$ = FIRST$ -> LX_LIST.TAIL$ ;
     1247    30903    4                CALL FIND_BEFORE_AFTER_INDEXES (BEFORE_AFTER$, BEFORE$, AFTER$) ;
     1248    30904
     1249    30905    5                DO CASE (CLAUSE_TYPE) ;
     1250    30906
     1251    30907    5                  CASE (%RSV_WRD_ALL) ;     /* ALL */
     1252    30908
     1253    30909    6                    IF OPTIMIZABLE THEN DO ;
     1254    30910
     1255    30911                           /* Create a constant MVT table:         */
     1256    30912                           /* ASCII-TO-ASCII with modification.    */
     1257    30913
     1258    30914    6                      IF TYPE1 = %TYB THEN
     1259    30915    7                        DO ;
     1260    30916    7                          ITERATION = 17 ; /* Table LCNST item size = 17 words */
     1261    30917    7                          J = 63 ; /* Table entries are 0 thru 63 */
PL6.E3A0      #001=Z8EA$INSPECT_1 File=Z8EA.:Z8A6TSI                             SAT 08/09/97 11:39 Page:42
     1262    30918    7                        END ;
     1263    30919    6                      ELSE
     1264    30920    7                        DO ;
     1265    30921    7                          ITERATION = 129 ; /* Table LCNST item size = 129 words */
     1266    30922    7                          J = 511 ; /* Table entries are 0 thru 511 */
     1267    30923    7                        END ;
     1268    30924                           %RESERVE_LTS (ITEM = %LCNST, POINTER = LTS$) ;
     1269    31010
     1270    31011    7                      DO I = 0 TO J ;
     1271    31012    7                        SUBSTR (LTS$ -> LCNST.CONST, I, 1) = BINASC (I) ;
     1272    31013    7                      END ;
     1273    31014
     1274    31015    6                      IF TYPE1 = %TYB THEN
     1275    31016    7                        DO ;
     1276    31017    7                          ID3_BCD_CHAR.MBZ3 = '0'B ;
     1277    31018    7                          ID3_BCD_CHAR.BCD_CHAR = ID3$ -> LX_ETT_ITEM.ETT$ -> ETT.LOP
     1278    31019    7                                                       -> CONST.CONSTB (0) ;
     1279    31020    7                          ID5_BCD_CHAR.MBZ5 = '0'B ;
     1280    31021    7                          ID5_BCD_CHAR.BCD_CHAR = ID5$ -> LX_ETT_ITEM.ETT$ -> ETT.LOP
     1281    31022    7                                                       -> CONST.CONSTB (0) ;
     1282    31023    7                        END ;
     1283    31024    6                      ELSE
     1284    31025    7                        DO ;
     1285    31026    7                          ID3_CHAR = ID3$ -> LX_ETT_ITEM.ETT$ -> ETT.LOP
     1286    31027    7                                          -> CONST.CONSTA ;
     1287    31028    7                          ID5_CHAR = ID5$ -> LX_ETT_ITEM.ETT$ -> ETT.LOP
     1288    31029    7                                          -> CONST.CONSTA ;
     1289    31030    7                        END ;
     1290    31031    6                      SUBSTR (LTS$ -> LCNST.CONST, ASCBIN (ID3_CHAR), 1)
     1291    31032    6                           = ID5_CHAR ;
     1292    31033
     1293    31034                           %NEW_CONST (@ST$           = ST$,
     1294    31035                                       @TYPE          = TYPE1,
     1295    31036                                       @LONG_CONSTANT = '1'B) ;
     1296    31077    6                      ST$ -> CONST.CONST$.PTR$ = LTS$ ;
     1297    31078    6                      CALL Z8AF$FORME (%TRIAD, ST$, ADDR(NIL), TABLE$) ;
     1298    31079
PL6.E3A0      #001=Z8EA$INSPECT_1 File=Z8EA.:Z8A6TSI                             SAT 08/09/97 11:39 Page:43
     1299    31080    6                      TABLE_LX_ETT$ = ADDR (TABLE_LX_ETT) ;
     1300    31081                           %INIT_LX_ETT_ITEM (@POINTER = TABLE_LX_ETT$,
     1301    31082                                              @TYPE    = %TYA) ;
     1302    31104    6                      TABLE_LX_ETT$ -> LX_ETT_ITEM.ETT$ = TABLE$ ;
     1303    31105
     1304    31106                           /* IF After < Before THEN     */
     1305    31107                           /*    MVT (id-1, id-1, Table) */
     1306    31108                           /* where id-1 = SUBSTR (id-1, After, Before - After) */
     1307    31109
     1308    31110    6                      IF BEFORE$ = ADDR(NIL)
     1309    31111    6                      THEN BEFORE$ = LENGTH_ID1$ ;
     1310    31112
     1311    31113    7                      IF AFTER$ ~= ADDR(NIL) THEN DO ;
     1312    31114
     1313    31115                             %IF_THEN_DO (@LOP = AFTER$,
     1314    31116                                          @REL = %OP_LESS_THAN,
     1315    31117                                          @ROP = BEFORE$,
     1316    31118                                          @LAB = END_IF$) ;
     1317    31153
     1318    31154                             %INIT_BINARY_OP (@POINTER = SUB$,
     1319    31155                                              @LOP$    = BEFORE$,
     1320    31156                                              @OP      = %OP_BINARY_MINUS,
     1321    31157                                              @ROP$    = AFTER$,
     1322    31158                                              @LINE    = "ID1$ -> LX_ETT_ITEM.LINE",
     1323    31159                                              @COLUMN  = "ID1$ -> LX_ETT_ITEM.COLUMN") ;
     1324    31177
     1325    31178    7                        CALL Z8EA$INSERT_ZERO (ID1$, AFTER$, SUB$, SUBSTR$) ;
     1326    31179
     1327    31180    7                      END ; /* AFTER clause exists */
     1328    31181
     1329    31182    7                      ELSE DO ; /* No AFTER clause */
     1330    31183
     1331    31184    7                        CALL Z8EY$INSERT (ID1$, ONE_LX_ETT$, BEFORE$, SUBSTR$) ;
             31184                                 /*#42050*/
     1332    31185    7                      END ; /* No AFTER clause */
     1333    31186
     1334    31187                           /* Move_and_Translate (id1 ==> id1) */
PL6.E3A0      #001=Z8EA$INSPECT_1 File=Z8EA.:Z8A6TSI                             SAT 08/09/97 11:39 Page:44
     1335    31188
     1336    31189                           %NEW_ILL (@ID  = %MVT,              /*#31076*/
     1337    31190                                     @TABLE = TABLE_LX_ETT$ -> LX_ETT_ITEM.ETT$,
     1338    31191                                     @FROM  = SUBSTR$ -> LX_ETT_ITEM.ETT$,
     1339    31192                                     @TO    = SUBSTR$ -> LX_ETT_ITEM.ETT$) ;
     1340    31571
     1341    31572    6                      IF AFTER$ ~= ADDR (NIL) THEN
     1342    31573                             %NEW_ILL (@ID = %DEFLB, @LOP = END_IF$) ;
     1343    31952
     1344    31953    6                    END ; /* Optimizable */
     1345    31954
     1346    31955    6                    ELSE DO ; /* Not Optimizable */
     1347    31956
     1348    31957    7                      IF AFTER$ ~= ADDR(NIL) THEN DO ;
     1349    31958
     1350    31959                             %IF_THEN_DO (@LOP = POINTER$,
     1351    31960                                          @REL = %OP_GREATER_THAN_OR_EQUAL,
     1352    31961                                          @ROP = AFTER$,
     1353    31962                                          @LAB = END_AFTER_IF$) ;
     1354    31997
     1355    31998    7                      END ;
     1356    31999
     1357    32000    7                      IF BEFORE$ ~= ADDR (NIL) THEN DO ;
     1358    32001
     1359    32002                             /* IF Pointer <= Before$ - Length(id3) THEN DO */
     1360    32003
     1361    32004    7                        CALL BEFORE_CHECK (END_BEFORE_IF$) ;
     1362    32005
     1363    32006    7                      END ;
     1364    32007
     1365    32008                           /* IF SUBSTR (id1, Pointer, Lengthc(id3)) = id3 THEN DO */
     1366    32009
     1367    32010    6                      CALL IF_SUBSTR_ID1_EQUALS_ID3 (END_IF$) ;
     1368    32011
     1369    32012                           /* SUBSTR (id1, Pointer, Lengthc (id3)) = id5 */
     1370    32013
     1371    32014    6                      CALL Z8E7$MOVE (SUBSTR$, ID5$) ;
PL6.E3A0      #001=Z8EA$INSPECT_1 File=Z8EA.:Z8A6TSI                             SAT 08/09/97 11:39 Page:45
     1372    32015
     1373    32016                           /* ADD Lengthc (id3) TO Pointer */
     1374    32017
     1375    32018                           %NEW_ILL (@ID  = %AD2I,
     1376    32019                                     @LOP = POINTER$ -> LX_ETT_ITEM.ETT$,
     1377    32020                                     @ROP = LENGTH_ID3$  -> LX_ETT_ITEM.ETT$) ;
     1378    32399
     1379    32400                           /* GO TO End_Loop */
     1380    32401
     1381    32402    6                      CALL Z8EK$BRANCH (END_LOOP$) ;
     1382    32403
     1383    32404                           /* END-IF */
     1384    32405
     1385    32406                           %NEW_ILL (@ID = %DEFLB, @LOP = END_IF$) ;
     1386    32785
     1387    32786                           /* END (Pointer <= Before$) */
     1388    32787
     1389    32788    6                      IF BEFORE$ ~= ADDR(NIL) THEN
     1390    32789                             %NEW_ILL (@ID = %DEFLB, @LOP = END_BEFORE_IF$) ;
     1391    33168
     1392    33169                           /* END (Pointer >= After$) */
     1393    33170
     1394    33171    6                      IF AFTER$ ~= ADDR(NIL) THEN
     1395    33172                             %NEW_ILL (@ID = %DEFLB, @LOP = END_AFTER_IF$) ;
     1396    33551
     1397    33552    6                    END ; /* Not Optimizable */
     1398    33553
     1399    33554        %EJECT;
PL6.E3A0      #001=Z8EA$INSPECT_1 File=Z8EA.:Z8A6TSI                             SAT 08/09/97 11:39 Page:46
     1400    33555                         /*=========================================*/
     1401    33556                       /*V* INSPECT_REPLACING_PASS_3_LEADING_CLAUSE */
     1402    33557                         /*=========================================*/
     1403    33558
     1404    33559    5                  CASE (%RSV_WRD_LEADING) ;  /* LEADING */
     1405    33560
     1406    33561    6                    IF OPTIMIZABLE THEN DO ;
     1407    33562
     1408    33563    6                      CALL LEADING_OPTIMIZED ; /* Search id1 via TCT */
     1409    33564
     1410    33565                           /* MOVE Filler('x') TO SUBSTR (id1, 1, Position) */
     1411    33566
     1412    33567    6                      CALL Z8EY$INSERT (ID1$, ONE_LX_ETT$, POSITION$, SUBSTR$) ;
             33567                               /*#42050*/
     1413    33568    6                      ID5$ -> LX_ETT_ITEM.B.ALL = TRUE ;
     1414    33569    6                      CALL Z8E7$MOVE (SUBSTR$, ID5$) ;
     1415    33570
     1416    33571    6                    END ; /* Optimizable */
     1417    33572
     1418    33573    6                    ELSE DO ; /* Not Optimizable */
     1419    33574
     1420    33575    7                      IF AFTER$ ~= ADDR(NIL) THEN DO ;
     1421    33576
     1422    33577                             %IF_THEN_DO (@LOP = POINTER$,
     1423    33578                                          @REL = %OP_EQUAL,
     1424    33579                                          @ROP = AFTER$,
     1425    33580                                          @LAB = END_AFTER_IF$) ;
     1426    33615
     1427    33616    7                      END ;
     1428    33617
     1429    33618    7                      IF BEFORE$ ~= ADDR (NIL) THEN DO ;
     1430    33619
     1431    33620                             /* IF Pointer <= Before$ - Length(id3) THEN DO */
     1432    33621
     1433    33622    7                        CALL BEFORE_CHECK (END_BEFORE_IF$) ;
     1434    33623
     1435    33624    7                      END ;
PL6.E3A0      #001=Z8EA$INSPECT_1 File=Z8EA.:Z8A6TSI                             SAT 08/09/97 11:39 Page:47
     1436    33625
     1437    33626                           /* IF SUBSTR (id1, Pointer, Lengthc(id3)) = id3 THEN DO */
     1438    33627
     1439    33628    6                      CALL IF_SUBSTR_ID1_EQUALS_ID3 (END_IF$) ;
     1440    33629
     1441    33630                           /* SUBSTR (id1, Pointer, Lengthc (id3)) = id5 */
     1442    33631
     1443    33632    6                      CALL Z8E7$MOVE (SUBSTR$, ID5$) ;
     1444    33633
     1445    33634                           /* ADD Lengthc (id3) TO Pointer */
     1446    33635
     1447    33636                           %NEW_ILL (@ID  = %AD2I,
     1448    33637                                     @LOP = POINTER$ -> LX_ETT_ITEM.ETT$,
     1449    33638                                     @ROP = LENGTH_ID3$  -> LX_ETT_ITEM.ETT$) ;
     1450    34017
     1451    34018                           /* AFTER$ = AFTER$ + LENGTHC (id3) */
     1452    34019
     1453    34020                           %NEW_ILL (@ID  = %AD2I,
     1454    34021                                     @LOP = AFTER$   -> LX_ETT_ITEM.ETT$,
     1455    34022                                     @ROP = LENGTH_ID3$  -> LX_ETT_ITEM.ETT$) ;
     1456    34401
     1457    34402                           /* GO TO End_Loop */
     1458    34403
     1459    34404    6                      CALL Z8EK$BRANCH (END_LOOP$) ;
     1460    34405
     1461    34406                           /* END-IF */
     1462    34407
     1463    34408                           %NEW_ILL (@ID = %DEFLB, @LOP = END_IF$) ;
     1464    34787
     1465    34788                           /* END (Pointer <= Before$) */
     1466    34789
     1467    34790    6                      IF BEFORE$ ~= ADDR(NIL) THEN
     1468    34791                             %NEW_ILL (@ID = %DEFLB, @LOP = END_BEFORE_IF$) ;
     1469    35170
     1470    35171                           /* END (Pointer >= After$) */
     1471    35172
     1472    35173    6                      IF AFTER$ ~= ADDR(NIL) THEN
PL6.E3A0      #001=Z8EA$INSPECT_1 File=Z8EA.:Z8A6TSI                             SAT 08/09/97 11:39 Page:48
     1473    35174                             %NEW_ILL (@ID = %DEFLB, @LOP = END_AFTER_IF$) ;
     1474    35553
     1475    35554    6                    END ; /* Not Optimizable */
     1476    35555
     1477    35556        %EJECT;
PL6.E3A0      #001=Z8EA$INSPECT_1 File=Z8EA.:Z8A6TSI                             SAT 08/09/97 11:39 Page:49
     1478    35557                         /*=======================================*/
     1479    35558                       /*V* INSPECT_REPLACING_PASS_3_FIRST_CLAUSE */
     1480    35559                         /*=======================================*/
     1481    35560
     1482    35561    5                  CASE (%RSV_WRD_FIRST) ;
     1483    35562
     1484    35563
     1485    35564    6                    IF AFTER$ ~= ADDR(NIL) THEN DO ;
     1486    35565
     1487    35566                           %IF_THEN_DO (@LOP = POINTER$,
     1488    35567                                        @REL = %OP_GREATER_THAN_OR_EQUAL,
     1489    35568                                        @ROP = AFTER$,
     1490    35569                                        @LAB = END_AFTER_IF$) ;
     1491    35604
     1492    35605    6                    END ;
     1493    35606
     1494    35607    6                    IF BEFORE$ ~= ADDR (NIL) THEN DO ;
     1495    35608
     1496    35609                           /* IF Pointer <= Before$ - Length(id3) THEN DO */
     1497    35610
     1498    35611    6                      CALL BEFORE_CHECK (END_BEFORE_IF$) ;
     1499    35612
     1500    35613    6                    END ;
     1501    35614
     1502    35615                         /* IF SUBSTR (id1, Pointer, Lengthc(id3)) = id3 THEN DO */
     1503    35616
     1504    35617    5                    CALL Z8EA$INSERT_ZERO (ID1$, POINTER$, LENGTH_ID3$, SUBSTR$) ;
     1505    35618                         %IF_THEN_DO (@LOP = SUBSTR$,
     1506    35619                                      @REL = %OP_EQUAL,
     1507    35620                                      @ROP = ID3$,
     1508    35621                                      @LAB = END_IF$) ;
     1509    35656
     1510    35657                         /* SUBSTR (id1, Pointer, Lengthc (id3)) = id5 */
     1511    35658
     1512    35659    5                    CALL Z8E7$MOVE (SUBSTR$, ID5$) ;
     1513    35660
     1514    35661                         /* ADD Lengthc (id3) TO Pointer */
PL6.E3A0      #001=Z8EA$INSPECT_1 File=Z8EA.:Z8A6TSI                             SAT 08/09/97 11:39 Page:50
     1515    35662
     1516    35663                         %NEW_ILL (@ID  = %AD2I,
     1517    35664                                   @LOP = POINTER$ -> LX_ETT_ITEM.ETT$,
     1518    35665                                   @ROP = LENGTH_ID3$  -> LX_ETT_ITEM.ETT$) ;
     1519    36044
     1520    36045                         /* AFTER$ = LENGTHC (id1) */
     1521    36046
     1522    36047    5                    CALL Z8E7$MOVE (AFTER$, LENGTH_ID1$) ;
     1523    36048
     1524    36049                         /* GO TO End_Loop */
     1525    36050
     1526    36051    5                    CALL Z8EK$BRANCH (END_LOOP$) ;
     1527    36052
     1528    36053                         /* END-IF */
     1529    36054
     1530    36055                         %NEW_ILL (@ID = %DEFLB, @LOP = END_IF$) ;
     1531    36434
     1532    36435                         /* END (Pointer <= Before$) */
     1533    36436
     1534    36437    5                    IF BEFORE$ ~= ADDR(NIL) THEN
     1535    36438                           %NEW_ILL (@ID = %DEFLB, @LOP = END_BEFORE_IF$) ;
     1536    36817
     1537    36818                         /* END (Pointer >= After$) */
     1538    36819
     1539    36820    5                    IF AFTER$ ~= ADDR(NIL) THEN
     1540    36821                           %NEW_ILL (@ID = %DEFLB, @LOP = END_AFTER_IF$) ;
     1541    37200
     1542    37201    5                END ; /* Case of Clause_Type */
     1543    37202
     1544    37203        %EJECT;
PL6.E3A0      #001=Z8EA$INSPECT_1 File=Z8EA.:Z8A6TSI                             SAT 08/09/97 11:39 Page:51
     1545    37204                       /*=================================*/
     1546    37205                     /*V* INSPECT_REPLACING_PASS_3_WRAPUP */
     1547    37206                       /*=================================*/
     1548    37207
     1549    37208    4                FIRST$ = FIRST$ -> LX_LIST.LINK ;
     1550    37209
     1551    37210    4              END /* Do While FIRST$ <> nil */ ;
     1552    37211
     1553    37212    3            END /* Else Do (Leading, All, or First) */ ;
     1554    37213
     1555    37214    2            REPLACE$ = REPLACE$ -> LX_LIST.LINK ;
     1556    37215
     1557    37216    2          END /* Do While REPLACE$ <> nil */ ;
     1558    37217
     1559    37218    2          IF NOT OPTIMIZABLE THEN DO ;
     1560    37219
     1561    37220    2            IF  CLAUSE_TYPE = %RSV_WRD_CHARACTERS
     1562    37221    2            AND AFTER$ = ADDR(NIL)
     1563    37222    3            AND BEFORE$ = ADDR(NIL) THEN DO ;
     1564    37223                   /* Avoid "Dead Code" error by not generating AOS */
     1565    37224    3            END ;
     1566    37225
     1567    37226    3            ELSE DO ; /* Last Clause was not CHARACTERS with no BEFORE/AFTER */
     1568    37227
     1569    37228                     %FISH( TRIAD = ID1$ -> LX_ETT_ITEM.ETT$,
     1570    37229                            RTN = ID1_ST$ );
     1571    37237
     1572    37238                     /* If Kanji, Add 2 to pointer, else add 1 */
     1573    37239
     1574    37240    3                IF ID1_ST$ -> SCALAR.B.KANJI   THEN
     1575    37241    4                  DO;
     1576    37242
     1577    37243                         %NEW_ILL( @ID  = %AD2I,
     1578    37244                                   @LOP = POINTER$ -> LX_ETT_ITEM.ETT$,
     1579    37245                                   @ROP = TWO$ );
     1580    37624
     1581    37625    4                  END;
PL6.E3A0      #001=Z8EA$INSPECT_1 File=Z8EA.:Z8A6TSI                             SAT 08/09/97 11:39 Page:52
     1582    37626    3                ELSE
     1583    37627    4                  DO;
     1584    37628
     1585    37629                         %NEW_ILL (@ID  = %AD2I,
     1586    37630                                   @LOP = POINTER$ -> LX_ETT_ITEM.ETT$,
     1587    37631                                   @ROP = ONE$) ;
     1588    38010
     1589    38011    4                  END;
     1590    38012
     1591    38013
     1592    38014                   /* ADD 1 TO Pointer */
     1593    38015    3            END ; /* Else Do */
     1594    38016
     1595    38017                 /* Wrapup DO WHILE */
     1596    38018
     1597    38019                 %NEW_ILL (@ID = %DEFLB, @LOP = END_LOOP$) ;
     1598    38398
     1599    38399    2            DO_BODY_ILS_LIST = O1COM.ILS_LIST ;
     1600    38400
     1601    38401    2            O1COM.ILS_LIST = SAVED_ILS_LIST ;
     1602    38402
     1603    38403    2            COMPARISON$ = ADDR (COMPARISON) ;
     1604    38404
     1605    38405    2            IF CLAUSE_TYPE = %RSV_WRD_CHARACTERS THEN
     1606    38406    3              DO ; /* Ignore LENGTH_ID3$ */
     1607    38407    3                I = %OP_LESS_THAN ;
     1608    38408    3                LENGTH_ID1_ID3$ = LENGTH_ID1$ ;
     1609    38409    3              END ;
     1610    38410    2            ELSE
     1611    38411    3              DO ;
     1612    38412    3                LENGTH_ID1_ID3$ = ADDR (LENGTH_ID1_ID3) ;
     1613    38413                     %INIT_BINARY_OP (@POINTER = LENGTH_ID1_ID3$,
     1614    38414                                      @LOP$    = LENGTH_ID1$,
     1615    38415                                      @OP      = %OP_BINARY_MINUS,
     1616    38416                                      @ROP$    = LENGTH_ID3$,
     1617    38417                                      @LINE    = "ID1$ -> LX_ETT_ITEM.LINE",
     1618    38418                                      @COLUMN  = "ID1$ -> LX_ETT_ITEM.COLUMN") ;
PL6.E3A0      #001=Z8EA$INSPECT_1 File=Z8EA.:Z8A6TSI                             SAT 08/09/97 11:39 Page:53
     1619    38436
     1620    38437    3                I = %OP_LESS_THAN_OR_EQUAL ;
     1621    38438    3              END ;
     1622    38439
     1623    38440                 %INIT_BINARY_OP (@POINTER = COMPARISON$,
     1624    38441                                  @LOP$    = POINTER$,
     1625    38442                                  @OP      = I,
     1626    38443                                  @ROP$    = LENGTH_ID1_ID3$,
     1627    38444                                  @LINE    = "ID1$ -> LX_ETT_ITEM.LINE",
     1628    38445                                  @COLUMN  = "ID1$ -> LX_ETT_ITEM.COLUMN") ;
     1629    38463
     1630    38464    2            CALL Z8EQ$CREATE_DO_WHILE (COMPARISON$, ADDR(DO_BODY_ILS_LIST) ) ;
     1631    38465
     1632    38466    2          END ; /* Not Optimizable */
     1633    38467
     1634    38468               %APPEND_ILS_LIST (@TO$ = "ADDR(O1COM.ILS_LIST)",
     1635    38469                                 @FROM$ = "ADDR(CONVERSION_ILS_LIST)") ;
     1636    38486
     1637    38487    1          RETURN ;
     1638    38488
     1639    38489
     1640    38490        %EJECT;
PL6.E3A0      #001=Z8EA$INSPECT_1 File=Z8EA.:Z8A6TSI                             SAT 08/09/97 11:39 Page:54
     1641    38491                 /*====================*/
     1642    38492               /*V* INSPECT_CONVERTING */
     1643    38493                 /*====================*/
     1644    38494
     1645    38495        /*==============*/
     1646    38496    1     Z8EA$INSPECT_4: ENTRY (INSPECT$) ; /* Inspect Converting */
     1647    38497        /*==============*/
     1648    38498
     1649    38499               /* INSPECT id1 CONVERTING id6 TO id7 BEFORE/AFTER id4 */
     1650    38500               /*                                                    */
     1651    38501               /* Pass 2 -- Verify all identifiers - - - - - - - - - */
     1652    38502
     1653    38503    1          IF COMCOM.OB.FIPS.LEVEL >= %INT_LEV THEN
     1654    38504    1            CALL Z8AE$ERROR (%E$LEVEL_CHECK,
     1655    38505    1                             INSPECT$ -> INSPECT_4_STMT.KEY_WORD$ -> LX_ITEM.LINE,
     1656    38506    1                             INSPECT$ -> INSPECT_4_STMT.KEY_WORD$ -> LX_ITEM.COLUMN);
     1657    38507    1          ONE_LX_ETT$ = ADDR(ONE) ;
     1658    38508    1          CALL Z8AC$LX_ETT_ITEM_TYI_CONST (1, ONE_LX_ETT$) ;
     1659    38509    1          ONE$ = ONE_LX_ETT$ -> LX_ETT_ITEM.ETT$ ;
     1660    38510    1          TWO_LX_ETT$ = ADDR (TWO) ;
     1661    38511    1          CALL Z8AC$LX_ETT_ITEM_TYI_CONST (2, TWO_LX_ETT$) ;
     1662    38512    1          TWO$ = TWO_LX_ETT$ -> LX_ETT_ITEM.ETT$ ;
     1663    38513
     1664    38514               %INIT_ILS_LIST (@POINTER = "ADDR(CONVERSION_ILS_LIST)") ;
     1665    38522    1          PRODUCE_INSPECT_ILS = TRUE ;
     1666    38523
     1667    38524    1          ID1$ = ADDR (ID1) ;
     1668    38525    1          CALL VERIFY_ALPHA_DEF (INSPECT$ -> INSPECT_4_STMT.ID_1$, ID1$) ;
     1669    38526
     1670    38527    1          ID6$ = INSPECT$ -> INSPECT_4_STMT.ID_6$ ;
     1671    38528    1          ID7$ = INSPECT$ -> INSPECT_4_STMT.ID_7$ ;
     1672    38529
     1673    38530    1          CALL VERIFY_ALPHA_REF (ID6$) ;
     1674    38531    1          CALL VERIFY_ALPHA_REF (ID7$) ;
     1675    38532
     1676    38533               /* If length (id6) <> length (id7), then error */
     1677    38534
PL6.E3A0      #001=Z8EA$INSPECT_1 File=Z8EA.:Z8A6TSI                             SAT 08/09/97 11:39 Page:55
     1678    38535    1          CALL Z8AU$TYPE_DESCRIPTOR (ID6$ -> LX_ETT_ITEM.ETT$, ID6_DESC) ;
     1679    38536    1          IF NOT ID7$ -> LX_ETT_ITEM.B.ALL THEN
     1680    38537    2            DO;
     1681    38538
     1682    38539    2              CALL Z8AU$TYPE_DESCRIPTOR (ID7$ -> LX_ETT_ITEM.ETT$, ID7_DESC) ;
     1683    38540
     1684    38541    2              IF ID6_DESC.DESC.ADSC.N ~= ID7_DESC.DESC.ADSC.N THEN
     1685    38542
     1686    38543    2                CALL Z8AE$ERROR (%E$INSPECT_ID6_N_NE_ID7_N,
     1687    38544    2                                 ID7$ -> LX_ETT_ITEM.LINE,
     1688    38545    2                                 ID7$ -> LX_ETT_ITEM.COLUMN) ;
     1689    38546
     1690    38547
     1691    38548    2            END ; /* id7 is not a figurative constant */
     1692    38549
     1693    38550    1          CALL SCAN_BEFORE_AFTER
     1694    38551    1              (INSPECT$ -> INSPECT_4_STMT.INSP_1_BEFORE_AFTER_OPT$,
     1695    38552    1               ADDR(NIL),
     1696    38553    1               %NOT_APPLICABLE,
     1697    38554    1               ID1$) ;
     1698    38555
     1699    38556    1          IF PRODUCE_INSPECT_ILS = FALSE THEN RETURN ;
     1700    38557
     1701    38558    1          CALL FIND_BEFORE_AFTER_INDEXES (INSPECT$ -> INSPECT_4_STMT.
             38558                   INSP_1_BEFORE_AFTER_OPT$,
     1702    38559    1                                          BEFORE$, AFTER$) ;
     1703    38560
     1704    38561               /*   Local Optz -- If ID6 & ID7 are literals, make table at compile time */
     1705    38562               /*   Error Check -- if id6 is a literal (literal-4),
     1706    38563                    (OPTZ ONLY)    check for duplicate characters. */
     1707    38564
     1708    38565    1          IF   ID6$ -> LX_ETT_ITEM.ETT$ -> ETT.ID = %TRIAD
     1709    38566    1          AND  ID7$ -> LX_ETT_ITEM.ETT$ -> ETT.ID = %TRIAD
     1710    38567    1          THEN OPTIMIZABLE = TRUE ;
     1711    38568    1          ELSE OPTIMIZABLE = FALSE ;
     1712    38569
     1713    38570        %EJECT;
PL6.E3A0      #001=Z8EA$INSPECT_1 File=Z8EA.:Z8A6TSI                             SAT 08/09/97 11:39 Page:56
     1714    38571               /*============================*/
     1715    38572               /*V* Inspect_Converting_Pass_3 -- Produce ILS/ILL -- an MVT */
     1716    38573               /*============================*/
     1717    38574
     1718    38575    1          LENGTH_ID1$ = ADDR (LENGTH_ID1) ;
     1719    38576    1          IF TYPE1 = %TYB OR TYPE1 = %TYE THEN
     1720    38577    2            DO ;
     1721    38578    2              ID1$ = INSPECT$ -> INSPECT_4_STMT.ID_1$ ;
     1722    38579    2              CALL CONVERT_ID (ID6$) ;
     1723    38580    2              CALL CONVERT_ID (ID7$) ;
     1724    38581    2            END ;
     1725    38582    1          CALL Z8AU$LENGTH (ID1$ -> LX_ETT_ITEM.ETT$, LENGTH_ID1$) ;
     1726    38583
     1727    38584    1          SUBSTR$ = ADDR(SUB_STR) ;
     1728    38585    1          ID7_SUBSTR$ = ADDR(ID7_SUBSTR) ;
     1729    38586    1          ASCBIN$ = ADDR (ASC_BIN) ;
     1730    38587    1          TABLE_LX_ETT$ = ADDR (TABLE_LX_ETT) ;
     1731    38588
     1732    38589    1          LENGTH$ = ADDR (LENGTH) ;
     1733    38590
     1734    38591               %INIT_LX_ETT_ITEM (@POINTER = ASCBIN$, @TYPE = %TYI) ;
     1735    38613               %INIT_LX_ETT_ITEM (@POINTER = ID7_SUBSTR$, @TYPE = %TYA) ;
     1736    38635
     1737    38636
     1738    38637               /*V* INSPECT_CONVERTING_Optimization --- create a constant
     1739    38638                    MVT table -- ascii-to-ascii with modifications.
     1740    38639               */
     1741    38640
     1742    38641    2          IF OPTIMIZABLE THEN DO ;
     1743    38642
     1744    38643    2            IF TYPE1 = %TYB THEN
     1745    38644    3              DO ;
     1746    38645    3                ITERATION = 17 ; /* Table LCNST item size = 17 words */
     1747    38646    3                J = 63 ; /* Table entries are 0 thru 63 */
     1748    38647    3              END ;
     1749    38648    2            ELSE
     1750    38649    3              DO ;
PL6.E3A0      #001=Z8EA$INSPECT_1 File=Z8EA.:Z8A6TSI                             SAT 08/09/97 11:39 Page:57
     1751    38650    3                ITERATION = 129 ; /* Table LCNST item size = 129 words */
     1752    38651    3                J = 511 ; /* Table entries are 0 thru 511 */
     1753    38652    3              END ;
     1754    38653                 %RESERVE_LTS (ITEM = %LCNST, POINTER = LTS$) ;
     1755    38739
     1756    38740    3            DO I = 0 TO J ;
     1757    38741    3              SUBSTR (LTS$ -> LCNST.CONST, I, 1) = BINASC (I) ;
     1758    38742    3            END ;
     1759    38743
     1760    38744    2            ID6_CHAR$ = ID6$ -> LX_ETT_ITEM.ETT$ -> ETT.LOP ;
     1761    38745                 %GET_CONSTANT_ADDRESS (@CONSTANT = ID6_CHAR$,
     1762    38746                                        @STRING   = ID6_CHAR$) ;
     1763    38754
     1764    38755    2            ID7_CHAR$ = ID7$ -> LX_ETT_ITEM.ETT$ -> ETT.LOP ;
     1765    38756                 %GET_CONSTANT_ADDRESS (@CONSTANT = ID7_CHAR$,
     1766    38757                                        @STRING   = ID7_CHAR$) ;
     1767    38765
     1768    38766    2            IF TYPE1 = %TYB THEN
     1769    38767    3              DO ;
     1770    38768    3                ID6_BCD_CHAR.MBZ6 = '0'B ;
     1771    38769    3                ID7_BCD_CHAR.MBZ7 = '0'B ;
     1772    38770    3              END ;
     1773    38771
     1774    38772    3            DO I = 0 TO ID6_DESC.DESC.ADSC.N - 1 ;
     1775    38773
     1776    38774    3              ID6_CHAR = SUBSTR (ID6_CHAR$ -> CHARS, I, 1) ;
     1777    38775
     1778    38776    3              IF TYPE1 = %TYB THEN
     1779    38777    4                DO ;
     1780    38778    4                  ID6_BCD_CHAR.BCD_CHAR = ID6_CHAR$ -> BCD$STRING.BCD_CHAR (I) ;
     1781    38779    4                  IF ID7$ -> LX_ETT_ITEM.B.ALL
     1782    38780    4                    THEN ID7_BCD_CHAR.BCD_CHAR = ID7_CHAR$ -> BCD$STRING.BCD_CHAR (0) ;
     1783    38781    4                    ELSE ID7_BCD_CHAR.BCD_CHAR = ID7_CHAR$ -> BCD$STRING.BCD_CHAR (I) ;
     1784    38782    4                END ;
     1785    38783    3              ELSE
     1786    38784    4                DO ;
     1787    38785    4                  IF   ID7$ -> LX_ETT_ITEM.B.ALL
PL6.E3A0      #001=Z8EA$INSPECT_1 File=Z8EA.:Z8A6TSI                             SAT 08/09/97 11:39 Page:58
     1788    38786    4                    THEN ID7_CHAR = SUBSTR (ID7_CHAR$ -> CHARS, 0, 1) ;
     1789    38787    4                    ELSE ID7_CHAR = SUBSTR (ID7_CHAR$ -> CHARS, I, 1) ;
     1790    38788    4                END ;
     1791    38789
     1792    38790                   /* Check for redundant character error */
     1793    38791
     1794    38792    3              ATOA_CHAR = SUBSTR (LTS$ -> LCNST.CONST, ASCBIN (ID6_CHAR), 1) ;
     1795    38793    4              IF  ATOA_CHAR ~= ID6_CHAR THEN DO ;
     1796    38794    4                CALL Z8AE$ERROR (%E$INSPECT_LIT4_SAME_CHAR,
     1797    38795    4                                 ID6$ -> LX_ETT_ITEM.LINE,
     1798    38796    4                                 ID6$ -> LX_ETT_ITEM.COLUMN) ;
     1799    38797    4              END ;
     1800    38798
     1801    38799    3              SUBSTR (LTS$ -> LCNST.CONST, ASCBIN (ID6_CHAR), 1) = ID7_CHAR ;
     1802    38800
     1803    38801    3            END ; /* DO I */
     1804    38802
     1805    38803                 %NEW_CONST (@ST$           = ST$,
     1806    38804                             @TYPE          = %TYA,
     1807    38805                             @LONG_CONSTANT = '1'B) ;
     1808    38846    2            ST$ -> CONST.CONST$.PTR$ = LTS$ ;
     1809    38847    2            IF TYPE1 = %TYB
     1810    38848    2              THEN ST$ -> SCALAR.DESCL = 64 ; /* Table for GBCD has 64 entries */
     1811    38849    2              ELSE ST$ -> SCALAR.DESCL = 512 ; /* Table for any other type has 512 */
     1812    38850    2            CALL Z8AF$FORME (%TRIAD, ST$, ADDR(NIL), TABLE$) ;
     1813    38851
     1814    38852                 %INIT_LX_ETT_ITEM (@POINTER = TABLE_LX_ETT$, @TYPE = %TYA) ;
     1815    38874    2            TABLE_LX_ETT$ -> LX_ETT_ITEM.ETT$ = TABLE$ ;
     1816    38875
     1817    38876    2          END ; /* OPTIMIZABLE */
     1818    38877
     1819    38878    2          ELSE DO ; /* NOT OPTIMIZABLE */
     1820    38879
     1821    38880    2            IF ASCASC$ = ADDR(NIL)
     1822    38881    2            THEN CALL Z8CO$CREATE_LIBRARY_BASE (%OP_ASCII_TO_ASCII,
     1823    38882    2                                                ASCASC$) ;
     1824    38883
PL6.E3A0      #001=Z8EA$INSPECT_1 File=Z8EA.:Z8A6TSI                             SAT 08/09/97 11:39 Page:59
     1825    38884    2            CALL Z8AT$CREATE_TEMP_WITH_BASE (%SCALAR, TABLE$) ;
     1826    38885    2            TABLE$ -> ETT.LOP -> ST.TYPE = %TYA ;
     1827    38886    2            IF TYPE1 = %TYB
     1828    38887    2              THEN TABLE$ -> ETT.LOP -> ST.ADSC.N = 64 ;
             38887                       /* Table for GBCD has 64 entries */
     1829    38888    2              ELSE TABLE$ -> ETT.LOP -> ST.ADSC.N = 512 ;
             38888                       /* Table for any other type has 512 */
     1830    38889
     1831    38890                 %INIT_LX_ETT_ITEM (@POINTER = TABLE_LX_ETT$, @TYPE = %TYA) ;
     1832    38912    2            TABLE_LX_ETT$ -> LX_ETT_ITEM.ETT$ = TABLE$ ;
     1833    38913
     1834    38914                 %NEW_ILL (@ID = %MVAN, @LOP = TABLE$, @ROP = ASCASC$) ;
     1835    39293
     1836    39294                 /* POINTER = 0 */
     1837    39295
     1838    39296    2            POINTER$ = ADDR(POINTER) ;
     1839    39297                 %INIT_LX_ETT_ITEM (@POINTER = POINTER$, @TYPE = %TYI) ;
     1840    39319    2            CALL Z8AT$CREATE_TEMP_WITH_BASE (%SCALAR, POINTER$ -> LX_ETT_ITEM.ETT$) ;
     1841    39320
     1842    39321                 %NEW_ILL (@ID  = %MVII,
     1843    39322                           @LOP = "POINTER$ -> LX_ETT_ITEM.ETT$",
     1844    39323                           @ROP = COMCOM.VALUE_0) ;
     1845    39702
     1846    39703                 /* DO WHILE (Pointer < LENGTHC(id6)) */
     1847    39704
     1848    39705    2            SAVED_ILS_LIST = O1COM.ILS_LIST ;
     1849    39706                 %INIT_ILS_LIST (@POINTER = "ADDR(O1COM.ILS_LIST)") ;
     1850    39714
     1851    39715                 /* DO Body */
     1852    39716
     1853    39717                 /* TABLE {ASCBIN [SUBSTR (id6, Pointer, 1)]} = SUBSTR (id7, Pointer, 1) */
     1854    39718
     1855    39719    2            CALL Z8EA$INSERT_ZERO (ID6$, POINTER$, ONE_LX_ETT$, SUBSTR$) ;
     1856    39720
     1857    39721    2            CALL Z8EA$ASCBIN (SUBSTR$, ASCBIN$) ;
     1858    39722    2            CALL Z8EA$INSERT_ZERO (TABLE_LX_ETT$, ASCBIN$, ONE_LX_ETT$, SUBSTR$) ;
     1859    39723
PL6.E3A0      #001=Z8EA$INSPECT_1 File=Z8EA.:Z8A6TSI                             SAT 08/09/97 11:39 Page:60
     1860    39724    3            IF ID7$ -> LX_ETT_ITEM.B.ALL THEN DO ;
     1861    39725    3              CALL Z8E7$MOVE (SUBSTR$, ID7$) ;
     1862    39726    3            END ; /* id7 is a figurative constant */
     1863    39727    3            ELSE DO ;
     1864    39728    3              CALL Z8EA$INSERT_ZERO (ID7$, POINTER$, ONE_LX_ETT$, ID7_SUBSTR$) ;
     1865    39729    3              CALL Z8E7$MOVE (SUBSTR$, ID7_SUBSTR$) ;
     1866    39730    3            END ; /* id7 is not a figurative constant */
     1867    39731
     1868    39732                 /* ADD 1 TO Pointer */
     1869    39733
     1870    39734                 %NEW_ILL (@ID  = %AD2I,
     1871    39735                           @LOP = "POINTER$ -> LX_ETT_ITEM.ETT$",
     1872    39736                           @ROP = ONE$) ;
     1873    40115
     1874    40116                 /* Wrapup DO While */
     1875    40117
     1876    40118    2            DO_BODY_ILS_LIST = O1COM.ILS_LIST ;
     1877    40119    2            O1COM.ILS_LIST = SAVED_ILS_LIST ;
     1878    40120
     1879    40121    2            CALL Z8AU$LENGTH (ID6$ -> LX_ETT_ITEM.ETT$,
     1880    40122    2                           LENGTH$) ;
     1881    40123
     1882    40124    2            COMPARISON$ = ADDR (COMPARISON) ;
     1883    40125                 %INIT_BINARY_OP (@POINTER = COMPARISON$,
     1884    40126                                  @LOP$    = POINTER$,
     1885    40127                                  @OP      = %OP_LESS_THAN,
     1886    40128                                  @ROP$    = LENGTH$,
     1887    40129                                  @LINE    = "LENGTH$ -> LX_ETT_ITEM.LINE",
     1888    40130                                  @COLUMN  = "LENGTH$ -> LX_ETT_ITEM.COLUMN") ;
     1889    40148
     1890    40149    2            CALL Z8EQ$CREATE_DO_WHILE (COMPARISON$, ADDR(DO_BODY_ILS_LIST)) ;
     1891    40150
     1892    40151    2          END ; /* NOT OPTIMIZABLE */
     1893    40152
     1894    40153    1          IF BEFORE$ = ADDR(NIL)
     1895    40154    1          THEN BEFORE$ = LENGTH_ID1$ ;
     1896    40155
PL6.E3A0      #001=Z8EA$INSPECT_1 File=Z8EA.:Z8A6TSI                             SAT 08/09/97 11:39 Page:61
     1897    40156    2          IF AFTER$ = ADDR(NIL) THEN DO ;
     1898    40157
     1899    40158                 /* SUBSTR (ID1, 1, BEFORE) = XLAT (ID1) */
     1900    40159
     1901    40160    2            CALL Z8EY$INSERT (ID1$, ONE_LX_ETT$, BEFORE$, SUBSTR$) ; /*#42050*/
     1902    40161
     1903    40162    2          END ;
     1904    40163
     1905    40164    2          ELSE DO ; /* ThERE IS AN "AFTER" CLAUSE */
     1906    40165
     1907    40166                 /* IF AFTER < BEFORE THEN                                 */
     1908    40167                 /*   MOVE XLAT (ID1) TO SUBSTR (ID1, AFTER, BEFORE-AFTER) */
     1909    40168
     1910    40169                 %IF_THEN_DO (@LOP = AFTER$,
     1911    40170                              @REL = %OP_LESS_THAN,
     1912    40171                              @ROP = BEFORE$,
     1913    40172                              @LAB = END_IF$) ;
     1914    40207
     1915    40208    2            SUB$ = ADDR(SUB) ;
     1916    40209                 %INIT_BINARY_OP (@POINTER = SUB$,
     1917    40210                                  @LOP$    = BEFORE$,
     1918    40211                                  @OP      = %OP_BINARY_MINUS,
     1919    40212                                  @ROP$    = AFTER$,
     1920    40213                                  @LINE    = "ID1$ -> LX_ETT_ITEM.LINE",
     1921    40214                                  @COLUMN  = "ID1$ -> LX_ETT_ITEM.COLUMN") ;
     1922    40232
     1923    40233    2            CALL Z8EA$INSERT_ZERO (ID1$, AFTER$, SUB$, SUBSTR$) ;
     1924    40234
     1925    40235    2          END ; /* "AFTER" CLAUSE EXISTS */
     1926    40236
     1927    40237               /* Move_and_Translate (id1 ==> id1) */
     1928    40238
     1929    40239               %NEW_ILL (@ID  = %MVT,              /*#31076*/
     1930    40240                         @TABLE = TABLE_LX_ETT$ -> LX_ETT_ITEM.ETT$,
     1931    40241                         @FROM  = SUBSTR$ -> LX_ETT_ITEM.ETT$,
     1932    40242                         @TO    = SUBSTR$ -> LX_ETT_ITEM.ETT$) ;
     1933    40621
PL6.E3A0      #001=Z8EA$INSPECT_1 File=Z8EA.:Z8A6TSI                             SAT 08/09/97 11:39 Page:62
     1934    40622    2          IF AFTER$ ~= ADDR(NIL) THEN DO ;
     1935    40623                 %NEW_ILL (@ID = %DEFLB, @LOP = END_IF$) ;
     1936    41002    2          END ; /* AFTER clause exists */
     1937    41003
     1938    41004               %APPEND_ILS_LIST (@TO$ = "ADDR(O1COM.ILS_LIST)",
     1939    41005                                 @FROM$ = "ADDR(CONVERSION_ILS_LIST)") ;
     1940    41022
     1941    41023    1          RETURN ;
     1942    41024
     1943    41025        %EJECT;
PL6.E3A0      #001=Z8EA$INSPECT_1 File=Z8EA.:Z8A6TSI                             SAT 08/09/97 11:39 Page:63
     1944    41026        /*============*/
     1945    41027    1     BEFORE_CHECK: PROC (END_BEFORE_IF$) ;
     1946    41028        /*============*/
     1947    41029
     1948    41030        /*I*     NAME: BEFORE_CHECK
     1949    41031
     1950    41032                INPUT: END_BEFORE_IF$, LENGTH_ID3$, POINTER$, BEFORE$
     1951    41033
     1952    41034               OUTPUT: ILS to perform the test.
     1953    41035
     1954    41036          DESCRIPTION: IF Pointer <= Before$ - Length(id3) THEN DO.
     1955    41037
     1956    41038        */
     1957    41039
     1958    41040    2   DCL  END_BEFORE_IF$  PTR ;
     1959    41041
     1960    41042             %INIT_BINARY_OP (@POINTER = SUB$,
     1961    41043                              @LOP$    = BEFORE$,
     1962    41044                              @OP      = %OP_BINARY_MINUS,
     1963    41045                              @ROP$    = LENGTH_ID3$,
     1964    41046                              @LINE    = "ID3$ -> LX_ETT_ITEM.LINE",
     1965    41047                              @COLUMN  = "ID3$ -> LX_ETT_ITEM.COLUMN") ;
     1966    41065
     1967    41066             %IF_THEN_DO (@LOP = POINTER$,
     1968    41067                          @REL = %OP_LESS_THAN_OR_EQUAL,
     1969    41068                          @ROP = SUB$,
     1970    41069                          @LAB = END_BEFORE_IF$) ;
     1971    41104
     1972    41105    2   END BEFORE_CHECK ;
     1973    41106
     1974    41107        %EJECT;
PL6.E3A0      #001=Z8EA$INSPECT_1 File=Z8EA.:Z8A6TSI                             SAT 08/09/97 11:39 Page:64
     1975    41108        /*=================*/
     1976    41109    1     LEADING_OPTIMIZED: PROC ; /* Search id1 via a TCT */
     1977    41110        /*=================*/
     1978    41111
     1979    41112        /*I*   NAME: LEADING_OPTIMIZED
     1980    41113
     1981    41114              INPUT: ID1$, AFTER$, ID3$ -- LX_ETT_ITEMs.
     1982    41115
     1983    41116             OUTPUT: POSITION$ -- LX_ETT_ITEM result.
     1984    41117
     1985    41118        DESCRIPTION: This procedure is used for optimized
     1986    41119                     INSPECT id1 TALLYING id2 FOR LEADING id3 and
     1987    41120                     INSPECT id1 REPLACING LEADING id3 BY id5.
     1988    41121                     It generates ILL to SEARCH id1 for id3.  The
     1989    41122                     result is the position of the first non id3
     1990    41123                     in id1.
     1991    41124        */
     1992    41125
     1993    41126    2   DCL    TABLE_INDEX     UBIN WORD ;
     1994    41127    2   DCL    CONST$  PTR ;
     1995    41128    2   DCL    CHAR1   CHAR (1) UNAL ;
     1996    41129    2   DCL 1  CH1     REDEF CHAR1,
     1997    41130    2        2 *       BIT  (1) UNAL,
     1998    41131    2        2 PD1     UBIN (4) UNAL, /* 1st packed decimal digit */
     1999    41132    2        2 *       UBIN (4) UNAL ;
     2000    41133    2   DCL 1  CH1B    REDEF CHAR1,
     2001    41134    2        2 MBZ     BIT  (3),
     2002    41135    2        2 BCD_CHAR BIT (6);
     2003    41136    2   DCL BCD_CHAR   BIT (6);
     2004    41137
     2005    41138    3           IF AFTER$ ~= ADDR(NIL) THEN DO ;
     2006    41139
     2007    41140                  /* Use SUBSTR (id1, INDEX(id1, id4)) instead of id1 */
     2008    41141
     2009    41142    3             CALL Z8EA$INSERT_ZERO (ID1$, AFTER$, ADDR(NIL), SUBSTR$) ;
     2010    41143    3             ID1$ -> LX_ETT_ITEM = SUBSTR$ -> LX_ETT_ITEM;
     2011    41144
PL6.E3A0      #001=Z8EA$INSPECT_1 File=Z8EA.:Z8A6TSI                             SAT 08/09/97 11:39 Page:65
     2012    41145    3           END ; /* AFTER clause exists */
     2013    41146
     2014    41147                /* Create a constant TCT table */
     2015    41148
     2016    41149    2           IF TYPE1 = %TYB THEN
     2017    41150    3             DO ;
     2018    41151    3               ITERATION = 17 ; /* Table LCNST item size = 17 words */
     2019    41152    3               J = 64 ; /* There are 64 possible GBCD characters */
     2020    41153    3             END ;
     2021    41154    2           ELSE
     2022    41155    3             DO ;
     2023    41156    3               ITERATION = 129 ; /* Table LCNST item size = 129 words */
     2024    41157    3               J = 512 ; /* There are 512 possible 9-bit characters */
     2025    41158    3             END ;
     2026    41159                %RESERVE_LTS (ITEM = %LCNST, POINTER = LTS$) ;
     2027    41245    2           SUBSTR (LTS$ -> LCNST.CONST, 0, J) = ' ' ;
     2028    41246
     2029    41247    2           CONST$ = ID3$ -> LX_ETT_ITEM.ETT$ -> ETT.LOP ;
     2030    41248    2           CHAR1 = CONST$ -> CONST.CONSTA ;
     2031    41249
     2032    41250    3           DO CASE (TYPE1);
     2033    41251    3             CASE (%TYE);
     2034    41252    3               CALL XLATE (CHAR1, EBCDIC, CHAR1);
     2035    41253    3             CASE (%TYB);
     2036    41254    3               CALL XLATE_9_TO_6 (BCD_CHAR, GBCD, CHAR1);
     2037    41255    3               CH1B.BCD_CHAR = BCD_CHAR;
     2038    41256    3               CH1B.MBZ = '0'B;
     2039    41257    3           END;
     2040    41258    2           IF  CONST$ -> ST.NDSC.TN = %NDSC4
     2041    41259    2           AND CONST$ -> ST.TYPE    = %TYD
     2042    41260    2           THEN TABLE_INDEX = CH1.PD1 + 48 ;
     2043    41261    2           ELSE TABLE_INDEX = ASCBIN (CHAR1) ;
     2044    41262
     2045    41263    2           SUBSTR (LTS$ -> LCNST.CONST, TABLE_INDEX, 1) = BITASC ('000'O) ;
     2046    41264
     2047    41265                %NEW_CONST (@ST$  = ST$,
     2048    41266                            @TYPE = TYPE1,
PL6.E3A0      #001=Z8EA$INSPECT_1 File=Z8EA.:Z8A6TSI                             SAT 08/09/97 11:39 Page:66
     2049    41267                            @LONG_CONSTANT = '1'B) ;
     2050    41308    2           ST$ -> CONST.CONST$.PTR$ = LTS$ ;
     2051    41309    2           CALL Z8AF$FORME (%TRIAD, ST$, ADDR(NIL), TABLE$) ;
     2052    41310
     2053    41311    2           TABLE_LX_ETT$ = ADDR (TABLE_LX_ETT) ;
     2054    41312                %INIT_LX_ETT_ITEM (@POINTER = TABLE_LX_ETT$,
     2055    41313                                   @TYPE    = %TYA) ;
     2056    41335    2           TABLE_LX_ETT$ -> LX_ETT_ITEM.ETT$ = TABLE$ ;
     2057    41336
     2058    41337                /* Generate the TCT of id1 using the table */
     2059    41338
     2060    41339    2           POSITION$ = ADDR (POSITION) ;
     2061    41340                %INIT_LX_ETT_ITEM (@POINTER = POSITION$,
     2062    41341                                   @TYPE    = %TYI) ;
     2063    41363    2           CALL Z8AT$CREATE_TEMP_WITH_BASE (%SCALAR,
     2064    41364    2                                            POSITION$ -> LX_ETT_ITEM.ETT$) ;
     2065    41365
     2066    41366    2           CALL Z8EZ$SEARCH (POSITION$,   /* Result of TCT */
     2067    41367    2                             ADDR(NIL),   /* Table Value   */
     2068    41368    2                             TABLE_LX_ETT$, /* Table       */
     2069    41369    2                             ID1$,        /* Searchee      */
     2070    41370    2                             ADDR(NIL)) ; /* Alt Return    */
     2071    41371
     2072    41372    2   END LEADING_OPTIMIZED ;
     2073    41373
     2074    41374        %EJECT;
PL6.E3A0      #001=Z8EA$INSPECT_1 File=Z8EA.:Z8A6TSI                             SAT 08/09/97 11:39 Page:67
     2075    41375        /*========================*/
     2076    41376    1     IF_SUBSTR_ID1_EQUALS_ID3: PROC (END_IF$) ;
     2077    41377        /*========================*/
     2078    41378
     2079    41379        /*I*   NAME: IF_SUBSTR_ID1_EQUALS_ID3
     2080    41380
     2081    41381              INPUT: ID1$, ID3$, LENGTH_ID3$, POINTER$
     2082    41382
     2083    41383             OUTPUT: END_IF$ -- a label is created.
     2084    41384
     2085    41385        DESCRIPTION: If the length of ID3 is not constant or not one,
     2086    41386                     then we must generate another test before testing
     2087    41387                     if SUBSTR (ID1) = ID3.  The first test would be:
     2088    41388                     if POINTER <= LENGTH (ID1) - LENGTH (ID3).
     2089    41389        */
     2090    41390
     2091    41391    2   DCL  END_IF$       PTR ;
     2092    41392    2   DCL  SUB$          PTR ;
     2093    41393
     2094    41394        %DCL_AUTO_LX_ITEM (@NAME = SUB) ;
     2095    41398
     2096    41399    2          CALL Z8AU$TYPE_DESCRIPTOR (ID3$ -> LX_ETT_ITEM.ETT$, ID3_DESC) ;
     2097    41400
     2098    41401    2          IF  ID3_DESC.SIZ$ = ADDR(NIL)
     2099    41402    3          AND ID3_DESC.DESC.ADSC.N = 1 THEN DO ;
     2100    41403
     2101    41404                 /* IF SUBSTR (ID1, POINTER, 1) = ID3 THEN DO */
     2102    41405
     2103    41406    3            CALL Z8EA$INSERT_ZERO (ID1$, POINTER$, LENGTH_ID3$, SUBSTR$) ;
     2104    41407
     2105    41408                 %IF_THEN_DO (@LOP = SUBSTR$,
     2106    41409                              @REL = %OP_EQUAL,
     2107    41410                              @ROP = ID3$,
     2108    41411                              @LAB = END_IF$) ;
     2109    41446
     2110    41447    3          END ; /* Length (id3) = 1 */
     2111    41448
PL6.E3A0      #001=Z8EA$INSPECT_1 File=Z8EA.:Z8A6TSI                             SAT 08/09/97 11:39 Page:68
     2112    41449    3          ELSE DO ;
     2113    41450
     2114    41451                 /* IF POINTER <= Length (id1) - Length (id3) THEN DO */
     2115    41452
     2116    41453    3            SUB$ = ADDR (SUB) ;
     2117    41454                 %INIT_BINARY_OP (@POINTER = SUB$,
     2118    41455                                  @LOP$    = LENGTH_ID1$,
     2119    41456                                  @OP      = %OP_BINARY_MINUS,
     2120    41457                                  @ROP$    = LENGTH_ID3$,
     2121    41458                                  @LINE    = "ID1$ -> LX_ETT_ITEM.LINE",
     2122    41459                                  @COLUMN  = "ID1$ -> LX_ETT_ITEM.COLUMN") ;
     2123    41477
     2124    41478                 %IF_THEN_DO (@LOP = POINTER$,
     2125    41479                              @REL = %OP_LESS_THAN_OR_EQUAL,
     2126    41480                              @ROP = SUB$,
     2127    41481                              @LAB = END_IF$) ;
     2128    41516
     2129    41517                 /* IF SUBSTR (id1, POINTER, Length (id3)) = id3 THEN DO */
     2130    41518
     2131    41519    3            CALL Z8EA$INSERT_ZERO (ID1$, POINTER$, LENGTH_ID3$, SUBSTR$) ;
     2132    41520
     2133    41521    3            COMPARISON$ = ADDR (COMPARISON) ;
     2134    41522
     2135    41523                 %INIT_BINARY_OP (@POINTER = COMPARISON$,
     2136    41524                                  @LOP$    = SUBSTR$,
     2137    41525                                  @OP      = %OP_EQUAL,
     2138    41526                                  @ROP$    = ID3$,
     2139    41527                                  @LINE    = "ID3$ -> LX_ETT_ITEM.LINE",
     2140    41528                                  @COLUMN  = "ID3$ -> LX_ETT_ITEM.COLUMN") ;
     2141    41546
     2142    41547    3            CALL Z8EK$BRANCH_FALSE (END_IF$, COMPARISON$) ;
     2143    41548
     2144    41549    3          END ;
     2145    41550
     2146    41551    2   END IF_SUBSTR_ID1_EQUALS_ID3 ;
     2147    41552
     2148    41553        %EJECT;
PL6.E3A0      #001=Z8EA$INSPECT_1 File=Z8EA.:Z8A6TSI                             SAT 08/09/97 11:39 Page:69
     2149    41554        /*=========================*/
     2150    41555    1     FIND_BEFORE_AFTER_INDEXES: PROC (LX_ITEM$, BEFORE$, AFTER$) ;
     2151    41556        /*=========================*/
     2152    41557
     2153    41558        /*I*   NAME: FIND_BEFORE_AFTER_INDEXES
     2154    41559
     2155    41560              INPUT: LX_ITEM$ -- (1) LX_TERMINAL (EMPTY),
     2156    41561                                 (2) LX_ETT_ITEM (AFTER default),
     2157    41562                              or (3) LX_LIST (COUNT = 1 or 2) of:
     2158    41563                                     (a) LX_LIST (LX_TERMINAL, LX_ETT_ITEM),
     2159    41564                                  or (b) LX_ETT_ITEM (AFTER default).
     2160    41565
     2161    41566             OUTPUT: BEFORE$ -- LX_ETT_ITEM (BASE) or nil.
     2162    41567                     AFTER$ --- LX_ETT_ITEM (BASE) or nil.
     2163    41568
     2164    41569        */
     2165    41570
     2166    41571    2   DCL  LX_ITEM$  PTR ;
     2167    41572    2   DCL  BEFORE$   PTR ;
     2168    41573    2   DCL  AFTER$    PTR ;
     2169    41574    2   DCL  CLAUSE$   PTR ; /* Before or After Clause */
     2170    41575
     2171    41576        %EJECT;
PL6.E3A0      #001=Z8EA$INSPECT_1 File=Z8EA.:Z8A6TSI                             SAT 08/09/97 11:39 Page:70
     2172    41577               /* FIND BEFORE AFTER INDEXES */
     2173    41578
     2174    41579    2          AFTER$  = ADDR(NIL) ;
     2175    41580    2          BEFORE$ = ADDR(NIL) ;
     2176    41581
     2177    41582    3          DO CASE (LX_ITEM$ -> LX_ITEM.ID) ;
     2178    41583
     2179    41584    3            CASE (%LX_TERMINAL) ; /* EMPTY */
     2180    41585
     2181    41586                   /* No After or Before clauses */
     2182    41587
     2183    41588    3            CASE (%LX_ETT_ITEM) ;
     2184    41589
     2185    41590    3              AFTER$ = LX_ITEM$ ;
     2186    41591
     2187    41592    3            CASE (%LX_LIST) ;
     2188    41593
     2189    41594    3              CLAUSE$ = LX_ITEM$ -> LX_LIST.HEAD$ ;
     2190    41595
     2191    41596    4              DO WHILE (CLAUSE$ ~= ADDR(NIL)) ;
     2192    41597
     2193    41598    5                DO CASE (CLAUSE$ -> LX_ITEM.ID) ;
     2194    41599
     2195    41600    5                  CASE (%LX_ETT_ITEM) ;
     2196    41601
     2197    41602    5                    AFTER$ = CLAUSE$ ;
     2198    41603    5                    CLAUSE$ = ADDR(NIL) ;
     2199    41604
     2200    41605    5                  CASE (%LX_TERMINAL) ; /* BEFORE or AFTER */
     2201    41606
     2202    41607    5                    IF CLAUSE$ -> LX_TERMINAL.SYMBOL = %RSV_WRD_BEFORE
     2203    41608    5                    THEN BEFORE$ = CLAUSE$ -> LX_TERMINAL.LINK ;
     2204    41609    5                    ELSE AFTER$  = CLAUSE$ -> LX_TERMINAL.LINK ;
     2205    41610    5                    CLAUSE$ = ADDR(NIL) ;
     2206    41611
     2207    41612    5                  CASE (%LX_LIST) ;
     2208    41613
PL6.E3A0      #001=Z8EA$INSPECT_1 File=Z8EA.:Z8A6TSI                             SAT 08/09/97 11:39 Page:71
     2209    41614    5                    IF CLAUSE$ -> LX_LIST.HEAD$ -> LX_TERMINAL.SYMBOL
     2210    41615    5                       = %RSV_WRD_BEFORE
     2211    41616    5                    THEN BEFORE$ = CLAUSE$ -> LX_LIST.TAIL$ ;
     2212    41617    5                    ELSE AFTER$  = CLAUSE$ -> LX_LIST.TAIL$ ;
     2213    41618
     2214    41619    5                    CLAUSE$ = CLAUSE$ -> LX_LIST.LINK ;
     2215    41620
     2216    41621    5                  CASE (ELSE) ;
     2217    41622
     2218    41623                         /*N* CALL Z8AE$ERROR (Unexpected Case) */
     2219    41624
     2220    41625    5                END ; /* Case of CLAUSE$'s ID */
     2221    41626
     2222    41627    4              END ; /* While CLAUSE$ <> nil */
     2223    41628
     2224    41629    3          END ; /* Case of LX_ITEM$'s ID */
     2225    41630
     2226    41631    2   END FIND_BEFORE_AFTER_INDEXES ;
     2227    41632
     2228    41633        %EJECT;
PL6.E3A0      #001=Z8EA$INSPECT_1 File=Z8EA.:Z8A6TSI                             SAT 08/09/97 11:39 Page:72
     2229    41634        /*===========*/
     2230    41635    1     CONVERT_ID2: PROC (ID2$) ;
     2231    41636        /*===========*/
     2232    41637
     2233    41638        /*I*   NAME: CONVERT_ID2 (for INSPECT statement).
     2234    41639
     2235    41640              INPUT: ID2$ -- LX_ETT_ITEM
     2236    41641
     2237    41642             OUTPUT: ID2$ -- LX_ETT_ITEM (Type = %TYI)
     2238    41643
     2239    41644        DESCRIPTION: For INSPECT TALLYING, if ID2 is not COMP-6, the
     2240    41645                     original ID2 is saved on a list, and ID2 is converted
     2241    41646                     to COMP-6.  VERIFY_INTEGER_DEF is called to
     2242    41647                     do the conversion.  After the ILS/ILL for the INSPECT
     2243    41648                     is completed, the list of original ID2's is scanned
     2244    41649                     to convert back from COMP-6.  Note: this could be
     2245    41650                     done without the list by using the linking mechanisms
     2246    41651                     of the ILS.
     2247    41652
     2248    41653        */
     2249    41654
     2250    41655    2   DCL  ID2_ORIGINAL$  PTR ;
     2251    41656    2   DCL  ID2$           PTR ;
     2252    41657
     2253    41658    2          CALL VERIFY_NUMERIC_ETT (ID2$) ;
     2254    41659
     2255    41660    3          DO CASE (ID2$ -> LX_ETT_ITEM.TYPE) ;
     2256    41661
     2257    41662    3            CASE (%TYI) ;
     2258    41663
     2259    41664                   /* No Conversion Needed */
     2260    41665
     2261    41666    3            CASE (%TYH, %TYK, %TYJ, %TYD, %TYO, %TYR, %TYQ, %TYF, %TYC) ;
     2262    41667
     2263    41668    3              ID2_ORIGINAL$ = ADDR(ID2_ORIGINAL) ;
     2264    41669    3              ID2_ORIGINAL$ -> LX_ETT_ITEM = ID2$ -> LX_ETT_ITEM ;
     2265    41670
PL6.E3A0      #001=Z8EA$INSPECT_1 File=Z8EA.:Z8A6TSI                             SAT 08/09/97 11:39 Page:73
     2266    41671    3              CALL Z8AT$CREATE_TEMP_WITH_BASE (%SCALAR, ID2$ -> LX_ETT_ITEM.ETT$) ;
     2267    41672    3              ID2$ -> LX_ETT_ITEM.TYPE = %TYI ;
     2268    41673    3              CALL Z8E7$MOVE (ID2$, ID2_ORIGINAL$) ;
     2269    41674
     2270    41675                   /* Create conversion move to be linked in later */
     2271    41676
     2272    41677    3              SAVED_ILS_LIST = O1COM.ILS_LIST ;
     2273    41678    3              O1COM.ILS_LIST = CONVERSION_ILS_LIST ;
     2274    41679
     2275    41680    3              CALL Z8E7$MOVE (ID2_ORIGINAL$, ID2$) ;
     2276    41681
     2277    41682    3              CONVERSION_ILS_LIST = O1COM.ILS_LIST ;
     2278    41683    3              O1COM.ILS_LIST = SAVED_ILS_LIST ;
     2279    41684
     2280    41685    3            CASE (ELSE) ;
     2281    41686
     2282    41687    3              PRODUCE_INSPECT_ILS = '0'B ;
     2283    41688
     2284    41689    3          END ; /* Case of Type of ID2 */
     2285    41690
     2286    41691    2   END CONVERT_ID2 ;
     2287    41692
     2288    41693        %EJECT;
PL6.E3A0      #001=Z8EA$INSPECT_1 File=Z8EA.:Z8A6TSI                             SAT 08/09/97 11:39 Page:74
     2289    41694        /*================*/
     2290    41695    1     VERIFY_ALPHA_DEF: PROC (ID$, TEMP$) ;
     2291    41696        /*================*/
     2292    41697
     2293    41698        /*I*   NAME: VERIFY_ALPHA_DEF
     2294    41699              INPUT: ID$ -- an LX_ETT_ITEM
     2295    41700          INTERFACE: VERIFY_ALPHA
     2296    41701        DESCRIPTION: This routine is called to verify and convert an
     2297    41702                     alphanumeric definition (eg, id1 of INSPECT id1 ...).
     2298    41703                     If the conversion consists of references triads
     2299    41704                     only (OFF, FISS, DNA), then no temp is required
     2300    41705                     and VERIFY_ALPHA can be used, but if
     2301    41706                     ID1$ is overpunched, then the original ID1$ must
     2302    41707                     be preserved before the conversion so that we
     2303    41708                     can convert back to overpunched after the INSPECT
     2304    41709                     or whatever:
     2305    41710                       INSPECT overpunched REPLACING ...
     2306    41711                     becomes
     2307    41712                       MOVE overpunched TO temp.
     2308    41713                       INSPECT temp REPLACING ...
     2309    41714                       MOVE temp TO overpunched.
     2310    41715        */
     2311    41716
     2312    41717    2   DCL   ID$      PTR ; /* Operand to convert to alpha (%TYA) */
     2313    41718    2   DCL   TEMP$    PTR ; /* Created id1 or original id1 */
     2314    41719    2   DCL   BASE$    PTR ;
     2315    41720
     2316    41721    2   DCL 1 TYPE_DESC  ALIGNED,
     2317    41722             %TYPE_DESC ;
     2318    41756
     2319    41757    2          IF ID$ -> LX_ETT_ITEM.TYPE = %TYO OR
     2320    41758    2             ID$ -> LX_ETT_ITEM.TYPE = %TYF OR
     2321    41759    3             ID$ -> LX_ETT_ITEM.TYPE = %TYC THEN DO ;
     2322    41760
     2323    41761                 %INIT_LX_ETT_ITEM (@POINTER = TEMP$,
     2324    41762                                    @TYPE = %TYD) ;
     2325    41784    3            CALL Z8AT$CREATE_TEMP_WITH_BASE (%SCALAR, BASE$) ;
PL6.E3A0      #001=Z8EA$INSPECT_1 File=Z8EA.:Z8A6TSI                             SAT 08/09/97 11:39 Page:75
     2326    41785    3            TEMP$ -> LX_ETT_ITEM.ETT$ = BASE$ ;
     2327    41786    3            BASE$ -> ETT.LOP -> ST.TYPE = %TYD ;
     2328    41787
     2329    41788    3            CALL Z8AU$TYPE_DESCRIPTOR (ID$ -> LX_ETT_ITEM.ETT$, TYPE_DESC) ;
     2330    41789    3            BASE$ -> ETT.LOP -> ST.DESCL  = TYPE_DESC.DESC.DESCL ;
     2331    41790    3            BASE$ -> ETT.LOP -> ST.ADSC.CN = 0 ; /*#34773*/
     2332    41791    3            BASE$ -> ETT.LOP -> ST.ADSC.N = TYPE_DESC.DESC.ADSC.N + 1 ;
     2333    41792
     2334    41793    3            CALL Z8E7$MOVE (TEMP$, ID$) ; /* TYD = TYO */
     2335    41794
     2336    41795                 /* Create Conversion Move to be linked in later */
     2337    41796
     2338    41797    3            SAVED_ILS_LIST = O1COM.ILS_LIST ;
     2339    41798    3            O1COM.ILS_LIST = CONVERSION_ILS_LIST ;
     2340    41799
     2341    41800    3            CALL Z8E7$MOVE (ID$, TEMP$) ; /* TYO = TYD */
     2342    41801
     2343    41802    3            CONVERSION_ILS_LIST = O1COM.ILS_LIST ;
     2344    41803    3            O1COM.ILS_LIST = SAVED_ILS_LIST ;
     2345    41804
     2346    41805    3            CALL Z8EV$CONVERT_TYA (TEMP$, TEMP$, ID1$) ; /* Convert to Alpha */
     2347    41806
     2348    41807    4            DO CASE (ID$ -> LX_ETT_ITEM.TYPE) ;
     2349    41808    4              CASE (%TYO) ;
     2350    41809    4                TYPE1 = %TYA ;
     2351    41810    4              CASE (%TYF) ;
     2352    41811    4                TYPE1 = %TYE ;
     2353    41812    4              CASE (%TYC) ;
     2354    41813    4                TYPE1 = %TYB ;
     2355    41814    4            END ;
     2356    41815
     2357    41816    3          END ; /* ID$ is type overpunched (TYO) or GBCD or EBCDIC numeric */
     2358    41817
     2359    41818    3          ELSE DO ; /* It ain't overpunched or GBCD or EBCDIC numeric */
     2360    41819
     2361    41820    3            TYPE1 = ID$ -> LX_ETT_ITEM.TYPE ;
     2362    41821
PL6.E3A0      #001=Z8EA$INSPECT_1 File=Z8EA.:Z8A6TSI                             SAT 08/09/97 11:39 Page:76
     2363    41822    3            TEMP$ -> LX_ITEM = ID$ -> LX_ITEM ;
     2364    41823    3            CALL VERIFY_ALPHA (TEMP$) ;
     2365    41824
     2366    41825    3          END ;
     2367    41826
     2368    41827    2   END VERIFY_ALPHA_DEF ;
     2369    41828
     2370    41829        %EJECT;
PL6.E3A0      #001=Z8EA$INSPECT_1 File=Z8EA.:Z8A6TSI                             SAT 08/09/97 11:39 Page:77
     2371    41830        /*====================*/
     2372    41831    1     VERIFY_ALPHA_REF_LEV: PROC (ID$) ;
     2373    41832        /*====================*/
     2374    41833
     2375    41834        /*I*   NAME: VERIFY_ALPHA_REF_LEV
     2376    41835              INPUT: ID$ -- see VERIFY_ALPHA for details.
     2377    41836             OUTPUT: ID$ --  "     "      "   "     "
     2378    41837
     2379    41838        DESCRIPTION: This routine checks that ID$ is not a group
     2380    41839                     item after calling VERIFY_ALPHA.
     2381    41840                     Also if VERIFY_ALPHA_REF_LEV then it checks for high-level
     2382    41841                     features for level checking.
     2383    41842        */
     2384    41843
     2385    41844    2   DCL   ID$      PTR ;
     2386    41845    2   DCL   ETT$$    PTR;
     2387    41846    2   DCL   DNT$$    PTR;
     2388    41847    2   DCL   LEN      SBIN;
     2389    41848
     2390    41849    2          IF COMCOM.OB.FIPS.LEVEL >= %INT_LEV THEN
     2391    41850    3            DO;
     2392    41851    3              IF ID$ -> LX_ITEM.B.HIGH_LEV THEN
     2393    41852    3                INSPECT$ -> INSPECT_1_STMT.HIGH_LEV = TRUE;
     2394    41853    3              ELSE
     2395    41854    4                DO;
     2396    41855    4                   IF ID$ -> LX_ITEM.ID = %LX_TERMINAL THEN
     2397    41856    5                    DO;
     2398    41857    5                      CALL Z8EC$INTERNAL_STRING_REP (ID$, DNT$$);
     2399    41858    5                      LEN = DNT$$ -> DNT.TEXT.LENGTH - 2;
     2400    41859    5                    END;
     2401    41860    4                  ELSE
     2402    41861    5                    DO;
     2403    41862    5                      CALL Z8AU$LENGTH_ETT (ID$ -> LX_ETT_ITEM.ETT$, ETT$$);
     2404    41863    5                      LEN = ETT$$ -> ETT.LOP -> CONST.CONSTI.WORD1;
     2405    41864    5                    END;
     2406    41865    4                  IF LEN > 1 AND (LEN > 2 OR ID1$ -> LX_ETT_ITEM.TYPE ~= %TYN) THEN
     2407    41866    4                    INSPECT$ -> INSPECT_1_STMT.HIGH_LEV = TRUE;
PL6.E3A0      #001=Z8EA$INSPECT_1 File=Z8EA.:Z8A6TSI                             SAT 08/09/97 11:39 Page:78
     2408    41867    4                END;
     2409    41868    3            END; /* LEVEL >= %INT_LEV */
     2410    41869
     2411    41870        /*================*/
     2412    41871    2     VERIFY_ALPHA_REF: ENTRY (ID$);
     2413    41872        /*================*/
     2414    41873
     2415    41874    2          CALL VERIFY_ALPHA (ID$) ;
     2416    41875
     2417    41876    3          IF ID$ -> LX_ETT_ITEM.B.ERROR = '0'B THEN DO ;
     2418    41877
     2419    41878                 %FISH (TRIAD = ID$ -> LX_ETT_ITEM.ETT$, RTN = ST$) ;
     2420    41886
     2421    41887    3            IF ST$ -> SCALAR.B.ELEMENTARY
     2422    41888    3            OR ST$ -> ST.ID = %CONST
     2423    41889    3            THEN ; /* No error */
     2424    41890    4            ELSE DO ; /* Error */
     2425    41891    4              CALL Z8AE$ERROR (%E$MUST_BE_ELEMENTARY,
     2426    41892    4                               ID$ -> LX_ETT_ITEM.LINE,
     2427    41893    4                               ID$ -> LX_ETT_ITEM.COLUMN) ;
     2428    41894    4            END ; /* Not elementary and not a constant */
     2429    41895
     2430    41896    3          END ; /* ID$ is not an error recovery item */
     2431    41897
     2432    41898    2   END VERIFY_ALPHA_REF_LEV ;
     2433    41899        %EJECT;
PL6.E3A0      #001=Z8EA$INSPECT_1 File=Z8EA.:Z8A6TSI                             SAT 08/09/97 11:39 Page:79
     2434    41900        /*================*/
     2435    41901    1     VERIFY_ALPHA: PROC (ID$) ;
     2436    41902        /*================*/
     2437    41903
     2438    41904        /*I*   NAME: VERIFY_ALPHA
     2439    41905              INPUT: ID$ -- operand to verify and convert to TYA.
     2440    41906             OUTPUT: ID$ -- converted.
     2441    41907        DESCRIPTION: If the type of ID$ is not alphanumeric, then
     2442    41908                     convert it.  If it's not USAGE DISPLAY, then
     2443    41909                     issue a diagnostic.  If it's no-sign-DISPLAY
     2444    41910                     (eg, PIC 9999), then use the DNA triad.  If
     2445    41911                     it's trailing-sign-DISPLAY, then use a DNA and
     2446    41912                     a FISS.  If it's leading-sign-DISPLAY, use a
     2447    41913                     DNA, a FISS, and an OFF.
     2448    41914        */
     2449    41915
     2450    41916    2   DCL  ID$  PTR ;
     2451    41917
     2452    41918    2          CALL Z8CO$DISPL_CHECK (ID$)
     2453    41919
     2454    41920    3          WHENRETURN DO ;
     2455    41921
     2456    41922    3            IF  INSPECT$-> INSPECT_1_STMT.KEY_WORD$->
     2457    41923    3                LX_TERMINAL.SYMBOL = %RSV_WRD_INSPECT
     2458    41924    3            AND ID$ -> LX_ETT_ITEM.TYPE ~= %TYN
     2459    41925    3            AND ID$ -> LX_ETT_ITEM.TYPE ~= %TYA THEN
     2460    41926    3              CALL Z8EV$CONVERT_TYA (ID$, ID$, ID1$) ;
     2461    41927
     2462    41928    3          END ;
     2463    41929
     2464    41930    3          WHENALTRETURN DO ;
     2465    41931
     2466    41932    3            PRODUCE_INSPECT_ILS = FALSE ;
     2467    41933
     2468    41934    3          END ;
     2469    41935
     2470    41936    2          RETURN ;
PL6.E3A0      #001=Z8EA$INSPECT_1 File=Z8EA.:Z8A6TSI                             SAT 08/09/97 11:39 Page:80
     2471    41937
     2472    41938    2   END VERIFY_ALPHA ;
     2473    41939        %EJECT;
PL6.E3A0      #001=Z8EA$INSPECT_1 File=Z8EA.:Z8A6TSI                             SAT 08/09/97 11:39 Page:81
     2474    41940        /*-----------------*/
     2475    41941    1     EXAMINE_ID_CHECK:   PROC ( ID1$, ID2$ );
     2476    41942        /*-----------------*/
     2477    41943
     2478    41944    2       DCL ID1$           PTR;
     2479    41945    2       DCL ID2$           PTR;
     2480    41946    2       DCL LINK$          PTR;
     2481    41947
     2482    41948        /*V*         Convert_ID2
     2483    41949              If ID2 is %TYT then it must be converted to:
     2484    41950                 %TYA if it is an alphanumeric literal or figurative constant
     2485    41951                 %TYD if it is a numeric literal
     2486    41952        */
     2487    41953
     2488    41954    2       IF ID2$-> LX_ETT_ITEM.TYPE = %TYT THEN
     2489    41955    2         IF ID2$-> LX_TERMINAL.DNT$-> DNT.B.ALPHA_LITERAL
     2490    41956    2         OR ID2$-> LX_TERMINAL.DNT$-> DNT.B.FIGURATIVE_CONSTANT  THEN
     2491    41957    2           CALL Z8EV$CONVERT_TYA (ID2$, ID2$, ID1$) ;
     2492    41958    2         ELSE
     2493    41959    3           DO;
     2494    41960    3             LINK$ = ID2$ -> LX_TERMINAL.LINK;
     2495    41961    3             CALL Z8EV$CONVERT( %TYD, ID2$, ID2$ );
     2496    41962    3             ID2$ -> LX_TERMINAL.LINK = LINK$;
     2497    41963    3           END;
     2498    41964
     2499    41965        /*V*          Compare_Types_ID1_ID2
     2500    41966              Id1 and Id2 must both be alphanumeric or they must both
     2501    41967              be numeric and regardless of type must be usage display.
     2502    41968        */
     2503    41969
     2504    41970    3       DO CASE ( ID1_ORIG_TYPE );
     2505    41971
     2506    41972    3         CASE (%TYA, %TYN, %TYE, %TYB) ;
     2507    41973
     2508    41974    4           DO CASE ( ID2$-> LX_ETT_ITEM.TYPE );
     2509    41975
     2510    41976    4             CASE (%TYA, %TYN, %TYE, %TYB) ;
PL6.E3A0      #001=Z8EA$INSPECT_1 File=Z8EA.:Z8A6TSI                             SAT 08/09/97 11:39 Page:82
     2511    41977
     2512    41978    4               CALL VERIFY_ALPHA_REF ( ID2$ );
     2513    41979
     2514    41980    4             CASE( ELSE );
     2515    41981
     2516    41982    4               CALL Z8AE$ERROR ( %E$ALPHANUMERIC_TYPE_EXPECTED,
     2517    41983    4                                 ID2$-> LX_ITEM.LINE,
     2518    41984    4                                 ID2$-> LX_ITEM.COLUMN );
     2519    41985    4           END; /* case id2 type */
     2520    41986
     2521    41987    3         CASE( ELSE );
     2522    41988
     2523    41989    4           DO CASE ( ID2$-> LX_ETT_ITEM.TYPE );
     2524    41990
     2525    41991    4              CASE (%TYA, %TYN, %TYE, %TYB) ;
     2526    41992
     2527    41993                     %CONDITIONAL_ERROR (@LX_ITEM$ = ID2$,
     2528    41994                                         @ERROR#   = %E$NUMERIC_TYPE_EXPECTED,
     2529    41995                                         @LINE     = "ID2$-> LX_ITEM.LINE",
     2530    41996                                         @COLUMN   = "ID2$-> LX_ITEM.COLUMN" );
     2531    42026    4              CASE( ELSE );
     2532    42027
     2533    42028    4                CALL Z8CO$DISPL_CHECK ( ID2$ );
     2534    42029
     2535    42030    4            END; /* case id2 type */
     2536    42031    3        END; /* case id1 type */
     2537    42032
     2538    42033
     2539    42034
     2540    42035        /*V*         Id2_Length_Check
     2541    42036             Length check: id2 should be 1 byte long.
     2542    42037        */
     2543    42038    2       CALL Z8AU$TYPE_DESCRIPTOR( ID2$-> LX_ETT_ITEM.ETT$, ID3_DESC );
     2544    42039    2       IF  ID1$ -> LX_ITEM.TYPE ~= %TYN
     2545    42040    2       AND ID3_DESC.DESC.ADSC.N > 1 THEN
     2546    42041    2         CALL Z8AE$ERROR ( %E$EXAMINE_NOT_1_BYTE,
     2547    42042    2                           ID2$-> LX_ITEM.LINE,
PL6.E3A0      #001=Z8EA$INSPECT_1 File=Z8EA.:Z8A6TSI                             SAT 08/09/97 11:39 Page:83
     2548    42043    2                           ID2$-> LX_ITEM.COLUMN  );
     2549    42044
     2550    42045    2   END EXAMINE_ID_CHECK;   /* proc */
     2551    42046        %EJECT ;
PL6.E3A0      #001=Z8EA$INSPECT_1 File=Z8EA.:Z8A6TSI                             SAT 08/09/97 11:39 Page:84
     2552    42047        /*------------------*/
     2553    42048    1     VERIFY_NUMERIC_ETT : PROC (ETT$);
     2554    42049        /*------------------*/
     2555    42050
     2556    42051        /*I*
     2557    42052                 NAME: VERIFY_NUMERIC_ETT
     2558    42053
     2559    42054          DESCRIPTION: A LX_ETT_ITEM is verified to be numeric.  If not,
     2560    42055                       an error message is issued. This routine was copied
     2561    42056                       from Z8EN except "CALL NUMERIC_ERROR" was changed to
     2562    42057                       "%CONDITIONAL_ERROR".
     2563    42058        */
     2564    42059
     2565    42060    2     DCL ETT$ PTR;
     2566    42061
     2567    42062    3          DO CASE (ETT$ -> LX_ETT_ITEM.TYPE);
     2568    42063
     2569    42064    3            CASE (
     2570    42065                        %SET_OF_NUMERIC_TYPES;
     2571    42068    3                 );
     2572    42069
     2573    42070                   /* OKAY */
     2574    42071
     2575    42072    3            CASE (ELSE);
     2576    42073
     2577    42074                   %CONDITIONAL_ERROR (@LX_ITEM$ = ETT$,
     2578    42075                                       @ERROR#   = %E$NUMERIC_TYPE_EXPECTED,
     2579    42076                                       @LINE     = "ETT$ -> LX_ETT_ITEM.LINE",
     2580    42077                                       @COLUMN   = "ETT$ -> LX_ETT_ITEM.COLUMN") ;
     2581    42107
     2582    42108    3          END; /* Case of type */
     2583    42109
     2584    42110    2     END VERIFY_NUMERIC_ETT;
     2585    42111
     2586    42112        %EJECT;
PL6.E3A0      #001=Z8EA$INSPECT_1 File=Z8EA.:Z8A6TSI                             SAT 08/09/97 11:39 Page:85
     2587    42113        /*=================*/
     2588    42114    1     SCAN_BEFORE_AFTER: PROC (LX_ITEM$, LINK$, CLAUSE_TYPE, ID1$) ;
     2589    42115        /*=================*/
     2590    42116
     2591    42117        /*I*   NAME: SCAN_BEFORE_AFTER
     2592    42118
     2593    42119              INPUT: LX_ITEM$ -- (1) LX_TERMINAL (EMPTY),
     2594    42120                                 (2) LX_LIST (COUNT=1) [BEFORE or AFTER],
     2595    42121                              or (3) LX_LIST (COUNT=2) [BEFORE and AFTER].
     2596    42122
     2597    42123                     Each item below the initial LX_LIST looks like:
     2598    42124
     2599    42125                                    LX_LIST
     2600    42126                                   /       \
     2601    42127                          LX_TERMINAL      LX_ETT_ITEM
     2602    42128                      (BEFORE or AFTER)    (id-4)
     2603    42129
     2604    42130             OUTPUT: (1) A temp is created for each BEFORE/AFTER clause.
     2605    42131                     (2) An assignment statement is created to initialize
     2606    42132                         the temp:
     2607    42133                                    TEMP = INDEX (id-1, id-4)
     2608    42134
     2609    42135                     (3) The id-4 LX_ETT_ITEM is disposed, and replaced
     2610    42136                         by an LX_ETT_ITEM representing the temp.
     2611    42137
     2612    42138        DESCRIPTION: In addition to the tasks performed listed above
     2613    42139                     under "OUTPUT", the following is done:
     2614    42140
     2615    42141                     (1) If id-4 is not alphanumeric, it must be converted.
     2616    42142                     (2) If the clause type is LEADING or FIRST, and there
     2617    42143                         is no AFTER clause, then one must be simulated.
     2618    42144                         A temp will be created, and the following
     2619    42145                         assignment will be created:
     2620    42146                                                     Temp = 0
     2621    42147
     2622    42148                         An LX_ETT_ITEM will be created for "Temp" and
     2623    42149                         put in the LX_LIST tree (in place of "EMPTY"
PL6.E3A0      #001=Z8EA$INSPECT_1 File=Z8EA.:Z8A6TSI                             SAT 08/09/97 11:39 Page:86
     2624    42150                         if there is no BEFORE clause).
     2625    42151
     2626    42152        */
     2627    42153
     2628    42154        /* SCAN BEFORE/AFTER */
     2629    42155
     2630    42156    2   DCL AB$         PTR ;          /* AFTER or BEFORE Temp */
     2631    42157    2   DCL AFTER$      PTR ;          /* LX_ITEM or LX_LIST   */
     2632    42158    2   DCL BEFORE$     PTR ;          /* LX_ITEM or LX_LIST   */
     2633    42159    2   DCL CLAUSE_TYPE SBIN WORD ;    /* eg, %RSV_WRD_ALL     */
     2634    42160    2   DCL ID1$        PTR ;          /* LX_ETT_ITEM          */
     2635    42161    2   DCL ID4$        PTR ;          /* LX_ETT_ITEM          */
     2636    42162    2   DCL INDEX$      PTR ;          /* INDEX operation */
     2637    42163    2   DCL LINK$       PTR ;          /* USED IF "EMPTY" IF DISPOSED */
     2638    42164    2   DCL LX_ITEM$    PTR ;          /* LX_TERMINAL, LX_ETT_ITEM, LX_LIST */
     2639    42165    2   DCL LX_LIST$    PTR ;          /* LX_LIST for Before/After clause */
     2640    42166    2   DCL RESULT$     PTR ;          /* %OP_PLUS or %OP_BINARY_MINUS */
     2641    42167
     2642    42168    2   DCL Z8E5$MATH_PACK              ENTRY (2) ;
     2643    42169    2   DCL Z8E7$MOVE                   ENTRY (2) ;
     2644    42170    2   DCL Z8ED$DISPOSE_ABSSYN_TREE    ENTRY (1) ;
     2645    42171
     2646    42172        %DCL_AUTO_LX_ITEM (@NAME = INDEXX) ;
     2647    42176        %DCL_AUTO_LX_ITEM (@NAME = RESULT) ;
     2648    42180
     2649    42181        %EJECT;
PL6.E3A0      #001=Z8EA$INSPECT_1 File=Z8EA.:Z8A6TSI                             SAT 08/09/97 11:39 Page:87
     2650    42182               /* SCAN BEFORE/AFTER */
     2651    42183
     2652    42184    2          AFTER$ = ADDR(NIL) ;
     2653    42185    2          BEFORE$ = ADDR(NIL) ;
     2654    42186    2          INDEX$ = ADDR (INDEXX) ;
     2655    42187    2          RESULT$ = ADDR (RESULT) ;
     2656    42188
     2657    42189    3          IF LX_ITEM$ -> LX_ITEM.ID = %LX_TERMINAL THEN DO ; /* EMPTY */
     2658    42190
     2659    42191    3            IF CLAUSE_TYPE = %RSV_WRD_FIRST
     2660    42192    4            OR CLAUSE_TYPE = %RSV_WRD_LEADING THEN DO ;
     2661    42193
     2662    42194    4              CALL CREATE_AFTER_LX_ETT_ITEM (AFTER$) ;
     2663    42195    4              CALL Z8ED$DISPOSE_ABSSYN_TREE (LX_ITEM$) ;
     2664    42196    4              LX_ITEM$ = AFTER$ ;
     2665    42197    4              IF LINK$ ~= ADDR(NIL)
     2666    42198    4              THEN LINK$ = AFTER$ ;
     2667    42199
     2668    42200    4            END ; /* FIRST or LEADING */
     2669    42201
     2670    42202    3          END ; /* Empty Before/After list */
     2671    42203
     2672    42204    3          ELSE DO ; /* There are 1 or 2 Before/After Clauses */
     2673    42205
     2674    42206    3            LX_LIST$ = LX_ITEM$ -> LX_LIST.HEAD$ ;
     2675    42207
     2676    42208    4            DO CASE (LX_LIST$ -> LX_LIST.ID) ;
     2677    42209
     2678    42210    4              CASE (%LX_TERMINAL) ; /* Delete this case after Z8EF change */
     2679    42211
     2680    42212    4                CALL BEFORE_OR_AFTER_CLAUSE (LX_ITEM$) ;
     2681    42213
     2682    42214    4              CASE (%LX_LIST) ;
     2683    42215
     2684    42216    5                DO WHILE (LX_LIST$ ~= ADDR(NIL)) ;
     2685    42217
     2686    42218    5                  CALL BEFORE_OR_AFTER_CLAUSE (LX_LIST$) ;
PL6.E3A0      #001=Z8EA$INSPECT_1 File=Z8EA.:Z8A6TSI                             SAT 08/09/97 11:39 Page:88
     2687    42219
     2688    42220    5                  LX_LIST$ = LX_LIST$ -> LX_LIST.LINK ;
     2689    42221
     2690    42222    5                END ; /* Do While LX_LIST$ <> Nil */
     2691    42223
     2692    42224    4              CASE (ELSE) ;
     2693    42225
     2694    42226                     /*N* CALL Z8AE$ERROR (Unexpected Case) */
     2695    42227
     2696    42228    4            END ; /* Case of LX_LIST ID */
     2697    42229
     2698    42230    4            IF AFTER$ = ADDR(NIL) THEN DO ;
     2699    42231
     2700    42232    4              IF CLAUSE_TYPE = %RSV_WRD_FIRST
     2701    42233    5              OR CLAUSE_TYPE = %RSV_WRD_LEADING THEN DO ;
     2702    42234
     2703    42235    5                CALL CREATE_AFTER_LX_ETT_ITEM (AFTER$) ;
     2704    42236
     2705    42237    5                LX_ITEM$ -> LX_LIST.COUNT = 2 ;
     2706    42238    5                LX_ITEM$ -> LX_LIST.TAIL$ = AFTER$ ;
     2707    42239    5                LX_ITEM$ -> LX_LIST.HEAD$ -> LX_LIST.LINK = AFTER$ ;
     2708    42240
     2709    42241    5              END ; /* FIRST or LEADING */
     2710    42242
     2711    42243    4            END ; /* AFTER$ = Nil */
     2712    42244
     2713    42245    3          END ; /* There's at least one Before/After clause */
     2714    42246
     2715    42247    2          RETURN ; /* SCAN_BEFORE_AFTER */
     2716    42248
     2717    42249        %EJECT;
PL6.E3A0      #001=Z8EA$INSPECT_1 File=Z8EA.:Z8A6TSI                             SAT 08/09/97 11:39 Page:89
     2718    42250        /*======================*/
     2719    42251    2     BEFORE_OR_AFTER_CLAUSE: PROC (LX_LIST$) ;
     2720    42252        /*======================*/
     2721    42253
     2722    42254        /*I*   NAME: BEFORE_OR_AFTER_CLAUSE
     2723    42255
     2724    42256        DESCRIPTION: See comments for SCAN_BEFORE_AFTER.  This
     2725    42257                     routine handles one clause:
     2726    42258                       BEFORE$ = INDEX (id4B, id1)
     2727    42259                       AFTER$  = INDEX (id4A, id1) + length (id4A)
     2728    42260
     2729    42261              INPUT: LX_LIST$ -- An LX_LIST of (LX_TERMINAL & id4).
     2730    42262
     2731    42263        */
     2732    42264
     2733    42265    3   DCL  LX_LIST$  PTR ;
     2734    42266    3   DCL  BEFORE_AFTER_TYPE SBIN WORD ; /* %RSV_WRD_BEFORE OR AFTER */
     2735    42267
     2736    42268    3              BEFORE_AFTER_TYPE = LX_LIST$ -> LX_LIST.HEAD$ -> LX_TERMINAL.SYMBOL ;
     2737    42269
     2738    42270    3              ID4$ = LX_LIST$ -> LX_LIST.TAIL$ ;
     2739    42271    3              IF INSPECT$-> INSPECT_1_STMT.KEY_WORD$->
     2740    42272    3                 LX_TERMINAL.SYMBOL = %RSV_WRD_EXAMINE  THEN
     2741    42273    3                CALL EXAMINE_ID_CHECK( ID1$, ID4$ );
     2742    42274    3              ELSE
     2743    42275    3                CALL VERIFY_ALPHA_REF_LEV ( ID4$ );
     2744    42276
     2745    42277                   %NEW (@TEMPLATE = LX_ETT_ITEM,
     2746    42278                         @POINTER  = AB$) ;
     2747    42288
     2748    42289                   %INIT_LX_ETT_ITEM (@POINTER = AB$,
     2749    42290                                      @TYPE    = %TYI) ;
     2750    42312
     2751    42313    3              CALL Z8AT$CREATE_TEMP_WITH_BASE (%SCALAR,
     2752    42314    3                                               AB$ -> LX_ETT_ITEM.ETT$);
     2753    42315
     2754    42316                   %FISH( TRIAD = ID1$ -> LX_ETT_ITEM.ETT$,
PL6.E3A0      #001=Z8EA$INSPECT_1 File=Z8EA.:Z8A6TSI                             SAT 08/09/97 11:39 Page:90
     2755    42317                          RTN   = ID1_ST$ );
     2756    42325
     2757    42326    3              IF  ID1_ST$ -> SCALAR.B.KANJI
     2758    42327    3              AND PRODUCE_INSPECT_ILS  THEN
     2759    42328    3                CALL BEFORE_OR_AFTER_KANJI;
     2760    42329    3              ELSE
     2761    42330    4                DO;
     2762    42331                       %INIT_BINARY_OP (@POINTER = INDEX$,
     2763    42332                                        @LOP$    = ID4$,
     2764    42333                                        @OP      = %OP_INDEX,
     2765    42334                                        @ROP$    = ID1$,
     2766    42335                                        @LINE    = "ID4$ -> LX_ETT_ITEM.LINE",
     2767    42336                                        @COLUMN  = "ID4$ -> LX_ETT_ITEM.COLUMN") ;
     2768    42354    4                END;
     2769    42355
     2770    42356    4              IF BEFORE_AFTER_TYPE = %RSV_WRD_AFTER THEN DO ;
     2771    42357
     2772    42358    4                LENGTH$ = ADDR(LENGTH) ;
     2773    42359    4                CALL Z8AU$LENGTH (ID4$ -> LX_ETT_ITEM.ETT$, LENGTH$) ;
     2774    42360
     2775    42361                     %INIT_BINARY_OP (@POINTER = RESULT$, /* Index + Length(id4) */
     2776    42362                                      @LOP$    = INDEX$,
     2777    42363                                      @OP      = %OP_PLUS,
     2778    42364                                      @ROP$    = LENGTH$,
     2779    42365                                      @LINE    = "ID4$ -> LX_ETT_ITEM.LINE",
     2780    42366                                      @COLUMN  = "ID4$ -> LX_ETT_ITEM.COLUMN") ;
     2781    42384
     2782    42385    4                CALL Z8E5$MATH_PACK (RESULT$, RESULT$) ;
     2783    42386
     2784    42387    4              END ;
     2785    42388
     2786    42389    4              ELSE DO ; /* BEFORE_AFTER_TYPE = %RSV_WRD_BEFORE */
     2787    42390
     2788    42391    4                CALL Z8E5$MATH_PACK (INDEX$, RESULT$) ;
     2789    42392
     2790    42393    4              END ; /* Before */
     2791    42394
PL6.E3A0      #001=Z8EA$INSPECT_1 File=Z8EA.:Z8A6TSI                             SAT 08/09/97 11:39 Page:91
     2792    42395    3              IF PRODUCE_INSPECT_ILS THEN
     2793    42396    3                CALL Z8E7$MOVE (AB$, RESULT$) ;
     2794    42397    3              CALL Z8ED$DISPOSE_ABSSYN_TREE (ID4$) ;
     2795    42398    3              LX_LIST$ -> LX_LIST.TAIL$ = AB$ ;
     2796    42399    3              LX_LIST$ -> LX_LIST.HEAD$ -> LX_TERMINAL.LINK = AB$ ;
     2797    42400
     2798    42401    3              IF BEFORE_AFTER_TYPE = %RSV_WRD_AFTER
     2799    42402    3              THEN AFTER$ = AB$ ;
     2800    42403    3              ELSE BEFORE$ = AB$ ;
     2801    42404
     2802    42405    3   END BEFORE_OR_AFTER_CLAUSE ;
     2803    42406
     2804    42407        %EJECT;
PL6.E3A0      #001=Z8EA$INSPECT_1 File=Z8EA.:Z8A6TSI                             SAT 08/09/97 11:39 Page:92
     2805    42408        /*====================*/
     2806    42409    2     BEFORE_OR_AFTER_KANJI : PROC;
     2807    42410        /*=====================*/
     2808    42411
     2809    42412    3   DCL BEGAIN_INDEX$       PTR;
     2810    42413    3   DCL END_INDEX$          PTR;
     2811    42414
     2812    42415        %DCL_AUTO_LX_ITEM( @NAME = COUNT );
     2813    42419        %DCL_AUTO_LX_ITEM( @NAME = SUB );
     2814    42423        %DCL_AUTO_LX_ITEM( @NAME = COMPARISON );
     2815    42427        %DCL_AUTO_LX_ITEM( @NAME = LENGTH_ID1 );
     2816    42431        %DCL_AUTO_LX_ITEM( @NAME = LENGTH_ID4 );
     2817    42435        %DCL_AUTO_LX_ITEM( @NAME = SUB_STR );
     2818    42439
     2819    42440    3   DCL COUNT$              PTR;
     2820    42441    3   DCL COUNT_BASE$         PTR;
     2821    42442    3   DCL SUBSTR$             PTR;
     2822    42443    3   DCL SUB$                PTR;
     2823    42444    3   DCL COMPARISON$         PTR;
     2824    42445    3   DCL LENGTH_ID1$         PTR;
     2825    42446    3   DCL LENGTH_ID4$         PTR;
     2826    42447
     2827    42448
     2828    42449    3   COUNT$ = ADDR( COUNT );
     2829    42450    3   SUB$ = ADDR( SUB );
     2830    42451    3   SUBSTR$ = ADDR( SUB_STR );
     2831    42452        %INIT_LX_ETT_ITEM( @POINTER = COUNT$,
     2832    42453                           @TYPE    = %TYI );
     2833    42475    3   CALL Z8AT$CREATE_TEMP_WITH_BASE( %SCALAR,
     2834    42476    3                                    COUNT$ -> LX_ETT_ITEM.ETT$ );
     2835    42477
     2836    42478    3   CALL Z8AT$CREATE_TEMPORARY( %PARA, BEGAIN_INDEX$ );
     2837    42479    3   CALL Z8AT$CREATE_TEMPORARY( %PARA, END_INDEX$ );
     2838    42480
     2839    42481    3   LENGTH_ID4$ = ADDR( LENGTH_ID4 );
     2840    42482    3   CALL Z8AU$LENGTH( ID4$ -> LX_ETT_ITEM.ETT$,
     2841    42483    3                     LENGTH_ID4$ );
PL6.E3A0      #001=Z8EA$INSPECT_1 File=Z8EA.:Z8A6TSI                             SAT 08/09/97 11:39 Page:93
     2842    42484
     2843    42485    3   LENGTH_ID1$ = ADDR( LENGTH_ID1 );
     2844    42486    3   CALL Z8AU$LENGTH( ID1$ -> LX_ETT_ITEM.ETT$,
     2845    42487    3                     LENGTH_ID1$ );
     2846    42488
     2847    42489        %NEW_ILL( @ID  = %MVII,
     2848    42490                  @LOP = COUNT$ -> LX_ETT_ITEM.ETT$,
     2849    42491                  @ROP = COMCOM.VALUE_0 );
     2850    42870
     2851    42871        %NEW_ILL( @ID  = %DEFLB,
     2852    42872                  @LOP = BEGAIN_INDEX$ );
     2853    43251
     2854    43252        %INIT_BINARY_OP( @POINTER = SUB$,
     2855    43253                         @LOP$    = LENGTH_ID1$,
     2856    43254                         @ROP$    = LENGTH_ID4$,
     2857    43255                         @OP      = %OP_BINARY_MINUS,
     2858    43256                         @LINE    = "ID1$ -> LX_ETT_ITEM.LINE",
     2859    43257                         @COLUMN  = "ID1$ -> LX_ETT_ITEM.COLUMN" );
     2860    43275
     2861    43276        %IF_THEN_DO( @LOP = COUNT$,
     2862    43277                     @ROP = SUB$,
     2863    43278                     @REL = %OP_LESS_THAN_OR_EQUAL,
     2864    43279                     @LAB = END_INDEX$ );
     2865    43314
     2866    43315    3   CALL Z8EA$INSERT_ZERO( ID1$,
     2867    43316    3                          COUNT$,
     2868    43317    3                          TWO_LX_ETT$,
     2869    43318    3                          SUBSTR$ );
     2870    43319    3   COMPARISON$ = ADDR( COMPARISON );
     2871    43320
     2872    43321        %INIT_BINARY_OP( @POINTER = COMPARISON$,
     2873    43322                         @LOP$    = SUBSTR$,
     2874    43323                         @OP      = %OP_EQUAL,
     2875    43324                         @ROP$    = ID4$,
     2876    43325                         @LINE    = "ID4$ -> LX_ETT_ITEM.LINE",
     2877    43326                         @COLUMN  = "ID4$ -> LX_ETT_ITEM.COLUMN" );
     2878    43344
PL6.E3A0      #001=Z8EA$INSPECT_1 File=Z8EA.:Z8A6TSI                             SAT 08/09/97 11:39 Page:94
     2879    43345    3   CALL Z8EK$BRANCH_TRUE( END_INDEX$,
     2880    43346    3                          COMPARISON$ );
     2881    43347
     2882    43348        %NEW_ILL( @ID  = %AD2I,
     2883    43349                  @LOP = COUNT$ -> LX_ETT_ITEM.ETT$,
     2884    43350                  @ROP = TWO$ );
     2885    43729
     2886    43730    3   CALL Z8EK$BRANCH( BEGAIN_INDEX$ );
     2887    43731
     2888    43732        %NEW_ILL( @ID = %DEFLB,
     2889    43733                  @LOP = END_INDEX$ );
     2890    44112
     2891    44113
     2892    44114    3   INDEX$ -> LX_ETT_ITEM = COUNT$ -> LX_ETT_ITEM;
     2893    44115
     2894    44116    3   END BEFORE_OR_AFTER_KANJI;
     2895    44117        %EJECT;
PL6.E3A0      #001=Z8EA$INSPECT_1 File=Z8EA.:Z8A6TSI                             SAT 08/09/97 11:39 Page:95
     2896    44118        /*========================*/
     2897    44119    2     CREATE_AFTER_LX_ETT_ITEM: PROC (AFTER$) ;
     2898    44120        /*========================*/
     2899    44121
     2900    44122        /*I*   NAME: CREATE_AFTER_LX_ETT_ITEM
     2901    44123
     2902    44124        DESCRIPTION: (1) Create an LX_ETT_ITEM,
     2903    44125                     (2) Create a Temp,
     2904    44126                     (3) Create a Move (Move 0 to Temp).
     2905    44127
     2906    44128             OUTPUT: AFTER$ -- Ptr to LX_ETT_ITEM.
     2907    44129
     2908    44130        */
     2909    44131
     2910    44132    3   DCL AFTER$  PTR ;
     2911    44133
     2912    44134               %NEW (@TEMPLATE = LX_ETT_ITEM,
     2913    44135                     @POINTER  = AFTER$) ;
     2914    44145
     2915    44146               %INIT_LX_ETT_ITEM (@POINTER = AFTER$,
     2916    44147                                  @TYPE    = %TYI) ;
     2917    44169
     2918    44170    3          CALL Z8AT$CREATE_TEMP_WITH_BASE (%SCALAR,
     2919    44171    3                                           AFTER$ -> LX_ETT_ITEM.ETT$) ;
     2920    44172
     2921    44173               %NEW_ILL (@ID  = %MVII,
     2922    44174                         @LOP = "AFTER$ -> LX_ETT_ITEM.ETT$",
     2923    44175                         @ROP = COMCOM.VALUE_0) ;
     2924    44554
     2925    44555    3   END CREATE_AFTER_LX_ETT_ITEM ;
     2926    44556
     2927    44557    2   END SCAN_BEFORE_AFTER ;
     2928    44558        %EJECT ;
PL6.E3A0      #001=Z8EA$INSPECT_1 File=Z8EA.:Z8A6TSI                             SAT 08/09/97 11:39 Page:96
     2929    44559        /*==========*/
     2930    44560    1     CONVERT_ID: PROC (ID$) ;
     2931    44561        /*==========*/
     2932    44562
     2933    44563        /*I*   NAME: CONVERT_ID
     2934    44564
     2935    44565        DESCRIPTION: Convert an ASCII literal or identifier to type TYPE1, GBCD or EBCDIC.
     2936    44566
     2937    44567        */
     2938    44568
     2939    44569    2   DCL ID$ PTR ;
     2940    44570
     2941    44571    2          IF ID$ -> LX_ETT_ITEM.ETT$ -> ETT.ID = %TRIAD THEN
     2942    44572    2            CALL CONVERT_CONST (ID$) ;
     2943    44573    2          ELSE
     2944    44574    3            DO ;
     2945    44575    3              IF TYPE1 = %TYB
     2946    44576    3                THEN J = %OP_ASCII_TO_GBCD ;
     2947    44577    3                ELSE J = %OP_ASCII_TO_EBCDIC ;
     2948    44578    3              CALL Z8CO$CREATE_LIBRARY_BASE (J, TABLE_ETT$) ;
     2949    44579    3              CALL Z8AF$FORME (%CVT, ID$ -> LX_ETT_ITEM.ETT$, TABLE_ETT$, ID$ ->
             44579                       LX_ETT_ITEM.ETT$) ;
     2950    44580    3            END ;
     2951    44581
     2952    44582    2   END CONVERT_ID ;
     2953    44583        %EJECT ;
PL6.E3A0      #001=Z8EA$INSPECT_1 File=Z8EA.:Z8A6TSI                             SAT 08/09/97 11:39 Page:97
     2954    44584        /*=============*/
     2955    44585    1     CONVERT_CONST: PROC (ID$) ;
     2956    44586        /*=============*/
     2957    44587
     2958    44588        /*I*   NAME: CONVERT_CONST
     2959    44589
     2960    44590        DESCRIPTION: Convert an ASCII constant to type TYPE1, GBCD or EBCDIC.
     2961    44591
     2962    44592        */
     2963    44593
     2964    44594    2   DCL ID$               PTR ;
     2965    44595    2   DCL LONG_CONST        BOOLEAN ;
     2966    44596    2   DCL ASC_CONST$        PTR ;
     2967    44597    2   DCL CONST_LEN         SBIN ;
     2968    44598    2   DCL CONST$            PTR ;
     2969    44599    2   DCL CONST_LEN_IN_BITS SBIN ;
     2970    44600    2   DCL BASED$STR         CHAR (CONST_LEN) BASED ;
     2971    44601    2   DCL BCD$STR           BIT (CONST_LEN_IN_BITS) ALIGNED BASED ;
     2972    44602
     2973    44603               %GET_CONSTANT_ADDRESS (@CONSTANT = ID$ -> LX_ETT_ITEM.ETT$ -> ETT.LOP,
     2974    44604                                      @STRING   = ASC_CONST$) ;
     2975    44612    2          CONST_LEN = ID$ -> LX_ETT_ITEM.ETT$ -> ETT.LOP -> CONST.ADSC.N ;
     2976    44613    2          IF TYPE1 = %TYE THEN
     2977    44614    3            DO ;
     2978    44615    3              IF CONST_LEN > 8 THEN
     2979    44616    4                DO ;
     2980    44617    4                  LONG_CONST = TRUE ;
     2981    44618    4                  ITERATION = (CONST_LEN + 7) / 4 ;
     2982    44619    4                END ;
     2983    44620    3              ELSE
     2984    44621    3                LONG_CONST = FALSE ;
     2985    44622    3            END ;
     2986    44623    2          ELSE IF CONST_LEN > 12 THEN
     2987    44624    3            DO ;
     2988    44625    3              LONG_CONST = TRUE ;
     2989    44626    3              ITERATION = (CONST_LEN + 11) / 6 ;
     2990    44627    3            END ;
PL6.E3A0      #001=Z8EA$INSPECT_1 File=Z8EA.:Z8A6TSI                             SAT 08/09/97 11:39 Page:98
     2991    44628    2          ELSE
     2992    44629    2            LONG_CONST = FALSE ;
     2993    44630
     2994    44631               %NEW_CONST (@ST$           = ST$,
     2995    44632                           @TYPE          = TYPE1,
     2996    44633                           @LONG_CONSTANT = LONG_CONST) ;
     2997    44674    2          ST$ -> CONST.DESCL = CONST_LEN ;
     2998    44675
     2999    44676    2          IF LONG_CONST THEN
     3000    44677    3            DO ;
     3001    44678                   %RESERVE_LTS (ITEM = %LCNST, POINTER = LTS$) ;
     3002    44764    3              CONST$ = ADDR (LTS$ -> LCNST.CONST) ;
     3003    44765    3              ST$ -> CONST.CONST$.PTR$ = LTS$ ;
     3004    44766    3            END ;
     3005    44767    2          ELSE
     3006    44768    2            CONST$ = ADDR (ST$ -> CONST.CONSTA) ;
     3007    44769    2          IF ID$ -> LX_ITEM.SYMBOL = %RSV_WRD_LOW_VALUES THEN
     3008    44770    3            DO ;
     3009    44771    3              ST$ -> CONST.CONSTI = '0'B ;
     3010    44772    3              IF TYPE1 = %TYB THEN
     3011    44773    3                ST$ -> CONST.ADSC.TA = %ADSC6 ;
     3012    44774    3            END ;
     3013    44775    2          ELSE IF TYPE1 = %TYE THEN
     3014    44776    3            DO ;
     3015    44777    3              IF ID$ -> LX_ITEM.SYMBOL = %RSV_WRD_HIGH_VALUES
     3016    44778    3                THEN CONST$ -> BASED$STR = BITASC ('377'O) ;
     3017    44779    3                ELSE CALL XLATE (CONST$ -> BASED$STR, EBCDIC, ASC_CONST$ -> BASED$STR)
             44779                         ;
     3018    44780    3            END ;
     3019    44781    2          ELSE
     3020    44782    3            DO ; /* %TYB */
     3021    44783    3              CONST_LEN_IN_BITS = CONST_LEN * 6 ;
     3022    44784    3              IF ID$ -> LX_ITEM.SYMBOL = %RSV_WRD_HIGH_VALUES
     3023    44785    3                THEN CONST$ -> BCD$STR = '77'O ;
     3024    44786    3                ELSE CALL XLATE_9_TO_6 (CONST$ -> BCD$STR, GBCD, ASC_CONST$ ->
             44786                         BASED$STR) ;
     3025    44787    3              ST$ -> CONST.ADSC.TA = %ADSC6 ;
PL6.E3A0      #001=Z8EA$INSPECT_1 File=Z8EA.:Z8A6TSI                             SAT 08/09/97 11:39 Page:99
     3026    44788    3            END ;
     3027    44789
     3028    44790    2          CALL Z8AF$FORME (%TRIAD, ST$, ADDR(NIL), ID$ -> LX_ETT_ITEM.ETT$) ;
     3029    44791    2          ID$ -> LX_ETT_ITEM.TYPE = TYPE1 ;
     3030    44792
     3031    44793    2   END CONVERT_CONST ;
     3032    44794
     3033    44795    1   END Z8EA$INSPECT_1 ;
     3034    44796
     3035    44797        %EOD;

PL6.E3A0      #001=Z8EA$INSPECT_1 File=Z8EA.:Z8A6TSI                             SAT 08/09/97 11:39 Page:100
--  Include file information  --

   Z8A_MKCN.:Z8A6TOU  cannot be made into a system file and is referenced.
   Z8A_ERR_NUMS.:Z8A6TOU  is referenced.
   Z8E_O1COM.:Z8A6TOU  cannot be made into a system file and is referenced.
   Z8E_TRANSLAT.:Z8A6TOU  cannot be made into a system file and is referenced.
   Z8A_LEX_SYMB.:Z8A6TOU  cannot be made into a system file and is referenced.
   Z8E_STACKS.:Z8A6TOU  cannot be made into a system file and is referenced.
   Z8E_NEW_ILL.:Z8A6TOU  is referenced.
   Z8E_MACROS.:Z8A6TOU  cannot be made into a system file and is referenced.
   Z8E_WINDOW.:Z8A6TOU  is referenced.
   Z8E_HEAP.:Z8A6TOU  cannot be made into a system file and is referenced.
   Z8A_LIBRARY.:Z8A6TOU  cannot be made into a system file and is referenced.
   Z8A_COMCOM.:Z8A6TOU  cannot be made into a system file and is referenced.
   Z8A_SRCH.:Z8A6TOU  cannot be made into a system file and is referenced.
   Z8A_LTS.:Z8A6TOU  cannot be made into a system file and is referenced.
   Z8A_ETT.:Z8A6TOU  cannot be made into a system file and is referenced.
   Z8A_DNT.:Z8A6TOU  cannot be made into a system file and is referenced.
   Z8A_TYPES.:Z8A6TOU  is referenced.
   Z8A_ST.:Z8A6TOU  cannot be made into a system file and is referenced.
   Z8A_ILS.:Z8A6TOU  cannot be made into a system file and is referenced.
   Z8A_ILL.:Z8A6TOU  cannot be made into a system file and is referenced.
   Z8E_ILS_LIST.:Z8A6TOU  is referenced.
   X8A_COM_MACS.:X8A6TOU  is referenced.
   Z8A_NAMES.:Z8A6TOU  is referenced.
   Z8A_SUPP_MAC.:Z8A6TOU  is referenced.
   Z8A_DEFC.:Z8A6TOU  cannot be made into a system file and is referenced.
      No diagnostics issued in procedure Z8EA$INSPECT_1.

   Procedure Z8EA$INSPECT_1 requires 6856 words for executable code.
   Procedure Z8EA$INSPECT_1 requires 372 words of local(AUTO) storage.

PL6.E3A0      #001=Z8EA$INSPECT_1 File=Z8EA.:Z8A6TSI                             SAT 08/09/97 11:39 Page:101

 Object Unit name= Z8EA$INSPECT_1                             File name= Z8EA.:Z8A6TOU
 UTS= AUG 09 '97 11:39:21.64 SAT                              Compiler= PL-6/E31         Sev=      00
 SharedLib= :SHARED_SYSTEM                                    Alt SharedLib=


    ****  Control sections  ****

 Sect   Type Bound  Init  Size OctSiz  Section name(segment info)
    0  LblCom even  none     1      1  ITERATION
    1  LblCom even  none     1      1  ILL$
    2  LblCom even  none     5      5  ILL_
    3  LblCom even  none     1      1  ILS$
    4  LblCom even  none     5      5  ILS_
    5  LblCom even  none     1      1  ST$
    6  LblCom even  none     5      5  ST_
    7  LblCom even  none     1      1  DNT$
    8  LblCom even  none     5      5  DNT_
    9  LblCom even  none     1      1  DNT_BUCKET_NUMBER
   10  LblCom even  none     1      1  DNT_OF_1$
   11  LblCom even  none     1      1  ETT$
   12  LblCom even  none     1      1  HEAD_ETT$
   13  LblCom even  none   512   1000  ETT_BUCKETS
   14  LblCom even  none     5      5  ETT_
   15  LblCom even  none     1      1  LTS$
   16  LblCom even  none     5      5  LTS_
   17  LblCom even  none     3      3  SRCH
   18  LblCom even  none     1      1  HEAP$
   19  LblCom even  none    90    132  LEX_SYMBOL
   20  LblCom even  none     1      1  CURRENT_LEX_SYMBOL$
   21  LblCom even  none    90    132  TEMP_LEX_SYMBOL
   22  LblCom even  none    90    132  TEMP_LEX_SYMBOL2
   23  LblCom even  none     2      2  MKCN
   24   Data  even  none     2      2  Z8EA$INSPECT_1
   25   Proc  even  none  6856  15310  Z8EA$INSPECT_1
   26  RoData even  none    79    117  Z8EA$INSPECT_1
PL6.E3A0      #001=Z8EA$INSPECT_1 File=Z8EA.:Z8A6TSI                             SAT 08/09/97 11:39 Page:102

    ****  Entry defs  ****

                              Check   Calling
                             calling  sequence
  Sect OctLoc Primary Altret sequence   type   Parms  Name
    25      0   yes            yes      Std        1  Z8EA$INSPECT_1
    25   3054                  yes      Std        1  Z8EA$INSPECT_2
    25   7531                  yes      Std        1  Z8EA$INSPECT_4

  ****  Entry refs  ****

         Check        Calling
        calling       sequence
Altret sequence SRef   type   Args  Name
         yes           Std       2 Z8AC$LX_ETT_ITEM_TYI_CONST
         yes           Std       2 Z8CO$CREATE_LIBRARY_BASE
         yes           Std       2 Z8AU$TYPE_DESCRIPTOR
         yes           Std       4 Z8AN$NEW_ILL
         yes           Std      12 Z8AE$ERROR
         yes           Std       1 Z8EK$BRANCH
         yes           Std       2 Z8AU$LENGTH
         yes           Std       2 Z8EQ$CREATE_DO_WHILE
         yes           Std       3 Z8EV$CONVERT_TYA
         yes           Std       1 Z8AR$RESERVER
         yes           Std       4 Z8AF$FORME
         yes           Std       2 Z8AT$CREATE_TEMPORARY
         yes           Std       2 Z8AT$CREATE_TEMP_WITH_BASE
         yes           Std       2 Z8EK$BRANCH_FALSE
         yes           Std       4 Z8EA$INSERT_ZERO
         yes           Std       5 Z8AN$NEW_ILL1
         yes           Std       2 Z8E7$MOVE
         yes           Std       2 Z8EA$ASCBIN
         yes           Std       2 Z8E5$MATH_PACK
         yes           Std       4 Z8EY$INSERT
         yes           Std       5 Z8EZ$SEARCH
         yes           Std       2 Z8EC$INTERNAL_STRING_REP
         yes           Std       2 Z8AU$LENGTH_ETT
PL6.E3A0      #001=Z8EA$INSPECT_1 File=Z8EA.:Z8A6TSI                             SAT 08/09/97 11:39 Page:103
 yes     yes           Std       1 Z8CO$DISPL_CHECK
         yes           Std       3 Z8EV$CONVERT
         yes           Std       1 Z8ED$DISPOSE_ABSSYN_TREE
         yes           Std       2 Z8ED$NEW_HEAP
         yes           Std       2 Z8E5$MATH_PACK
         yes           Std       2 Z8E7$MOVE
         yes           Std       2 Z8EK$BRANCH_TRUE
                       nStd      0 X66_AUTO_1
                       nStd      0 X66_ARET

  ****  Data refs  ****

  Flags:  r = read only, s = secondary
Flgs Name                             Flgs Name                             Flgs Name
r    ILL_STEP                         r    ILS_STEP_TABLE                   r    LTS_STEP
     COMCOM                           r    HBCD                             r    GBCD
r    EBCDIC                                O1COM                                 HIER_STK_PTR
     HIER_STK                              PAGE_FORMAT                           REP_STK_PTR
     REP_STK

  ****  Segment refs  ****

  Flags:  r = read only, s = secondary
Flgs Name                             Flgs Name                             Flgs Name
     NULLSID                               ISSID
PL6.E3A0      #001=Z8EA$INSPECT_1 File=Z8EA.:Z8A6TSI                             SAT 08/09/97 11:39 Page:104


        1        1        /*M*  Z8EA -- Create ILL/ETT for INSPECT */
        2        2        /*T***********************************************************/
        3        3        /*T*                                                         */
        4        4        /*T* Copyright (c) Bull HN Information Systems Inc., 1997    */
        5        5        /*T*                                                         */
        6        6        /*T***********************************************************/
        7        7
        8        8
        9        9        /*P*
       10       10               NAME:  Z8EA$INSPECT_1
       11       11             AUTHOR:  John Heath
       12       12            PURPOSE:  This procedure creates the ILL/ETT structure for the
       13       13                      INSPECT statement.
       14       14        */
       15       15
       16       16        /*D*
       17       17               NAME:  Z8EA$INSPECT_1
       18       18
       19       19              INPUT:  Abstract Syntax Tree for the INSPECT statement.
       20       20
       21       21             OUTPUT:  ILS/ILL/ETT table entries representing the INSPECT
       22       22                      statement.
       23       23
       24       24        DESCRIPTION:  This is pass 2 for handling inspect statements
       25       25                      with formats as shown below:
       26       26
       27       27                      FORMAT 1:
       28       28
       29       29        INSPECT id-1 TALLYING id-2 FOR CHARACTERS   BEFORE id-4 ...
       30       30        INSPECT id-1 TALLYING id-2 FOR ALL     id-3 AFTER  id-4 ...
       31       31        INSPECT id-1 TALLYING id-2 FOR LEADING id-3 ...
       32       32
       33       33                      FORMAT 2:
       34       34
       35       35        INSPECT id-1 REPLACING CHARACTERS   BY id-5 AFTER  id-4 ...
       36       36        INSPECT id-1 REPLACING ALL     id-3 BY id-5 BEFORE id-4 ...
PL6.E3A0      #001=Z8EA$INSPECT_1 File=Z8EA.:Z8A6TSI                             SAT 08/09/97 11:39 Page:105
       37       37        INSPECT id-1 REPLACING LEADING id-3 BY id-5 ...
       38       38        INSPECT id-1 REPLACING FIRST   id-3 BY id-5 ...
       39       39
       40       40                      FORMAT 3:
       41       41
       42       42        Split up by pass 1 into a Format 1 followed by a Format 2.
       43       43
       44       44                      FORMAT 4:
       45       45
       46       46        INSPECT id-1 CONVERTING id-6 TO id-7 BEFORE/AFTER id-4 ...
       47       47
       48       48                      Pass 1 does the syntax and semantic checking
       49       49                      and produces the Abstact Syntax Tree (AST).
       50       50                      Pass 2 uses the AST to produce the ILS/ILL/ETT
       51       51                      items needed for later phases.
       52       52
       53       53                      INSPECT$ points to an A.S.T. item (INSPECT_1_STMT,
       54       54                      INSPECT_2_STMT, or INSPECT_4_STMT:
       55       55
       56       56                      INSPECT_1_STMT
       57       57                     /              \
       58       58                    / ID_1$          \ INSPECT_1$
       59       59                   /                  \
       60       60               LX_ETT_ITEM            LX_LIST
       61       61                 (id1)               /       \
       62       62                              HEAD$ /         \ TAIL$
       63       63                                   /           \
       64       64                                  ...          ...
       65       65
       66       66                      INSPECT_2_STMT
       67       67                     /              \
       68       68                    / ID_1$          \ INSP_2_REPLACE$
       69       69                   /                  \
       70       70               LX_ETT_ITEM           LX_LIST
       71       71                 (id1)              /       \
       72       72                             HEAD$ /         \ TAIL$
       73       73                                  /    LINK   \
PL6.E3A0      #001=Z8EA$INSPECT_1 File=Z8EA.:Z8A6TSI                             SAT 08/09/97 11:39 Page:106
       74       74         REPLACE$->         LX_LIST -->...--> LX_LIST ---TAIL$------
       75       75                           /       \        /                       \
       76       76                    HEAD$ /   TAIL$ \      / HEAD$                   \
       77       77                         /           \    /                           \
       78       78               LX_TERMINAL ---> LX_LIST  LX_TERMINAL-->LX_ETT_ITEM-->LX_LIST
       79       79               ALL, LEADING,   <INSP_2_  CHARACTERS       id5        BEFORE/
       80       80               or FIRST          first>                              AFTER
       81       81                               /       \
       82       82                        HEAD$ /         \ TAIL$
       83       83                             /           \
       84       84         FIRST$->     LX_LIST --> ... --> LX_LIST
       85       85                     /       \           /       \
       86       86                    / HEAD$   \ TAIL$   ...      ...
       87       87                   /           \
       88       88                  /             \
       89       89        LX_ETT_ITEM->LX_ETT_ITEM->LX_LIST
       90       90           id3          id5       BEFORE/
       91       91                                  AFTER
       92       92
       93       93
       94       94                      Local Optimizations:
       95       95                      ===== =============
       96       96         (1) INSPECT id-1 TALLYING id-2 FOR LEADING "x" [BEFORE id-4].
       97       97             Ignore before clause, generate SEARCH ILL item.
       98       98         (2) INSPECT id-1 TALLYING id-2 FOR LEADING "x" AFTER id-4.
       99       99             Use INDEX ETT item (id-1, id-4) and SEARCH ILL item.
      100      100         (3) INSPECT id-1 TALLYING id-2 FOR CHARACTERS.
      101      101             Add Length of id-1 to id-2.
      102      102         (4) INSPECT id-1 TALLYING id-2 FOR CHARACTERS AFTER id-4.
      103      103             Use INDEX ETT item (id-1, id-4), math-pack, and move:
      104      104             IF INDEX (id-1, id-4) ~= LENGTH (id-1) THEN
      105      105               ADD Length (id-1) - Length (id-4) - INDEX (id-1, id-4) TO id-2.
      106      106         (5) INSPECT id-1 TALLYING id-2 FOR CHARACTERS BEFORE id-4.
      107      107             ADD INDEX (id-1, id-4) TO id-2.
      108      108         (6) INSPECT id-1 REPLACING CHARACTERS BY "x".
      109      109             Move filler("x") to id-1.
      110      110         (7) INSPECT id-1 REPLACING CHARACTERS BY "x" AFTER id-4.
PL6.E3A0      #001=Z8EA$INSPECT_1 File=Z8EA.:Z8A6TSI                             SAT 08/09/97 11:39 Page:107
      111      111             IF INDEX (id-1, id-4) ~= LENGTH (id-1) THEN
      112      112               Move filler("x") to Substring (id-1, INDEX (id-1, id-4) + Length(id-4) + 1).
      113      113         (8) INSPECT id-1 REPLACING CHARACTERS BY "x" BEFORE id-4.
      114      114             Move filler("x") to Substring (id-1, 1, INDEX (id-1, id-4)).
      115      115         (9) INSPECT id-1 REPLACING ALL "a" BY "x", "b" BY "y", ...
      116      116          or INSPECT id-1 CONVERTING "ab..." TO "xy...".
      117      117             MVT (id-1, id-1, table).
      118      118        (10) INSPECT id-1 REPLACING ALL "a" BY "x" ... AFTER id-4.
      119      119          or INSPECT id-1 CONVERTING "a..." TO "x..." AFTER id-4.
      120      120             IF INDEX (id-1, id-4) ~= LENGTH (id-1) THEN
      121      121               MVT (Substring (id-1, INDEX (id-1, id-4) + LENGTH (id-4) + 1),
      122      122                    Substring (id-1, INDEX (id-1, id-4) + LENGTH (id-4) + 1),
      123      123                    table).
      124      124        (11) INSPECT id-1 REPLACING ALL "a" BY "x" ... BEFORE id-4.
      125      125          or INSPECT id-1 CONVERTING "a..." BY "x..." BEFORE id-4.
      126      126             MVT (Substring (id-1, 1, INDEX (id-1, id-4)),
      127      127                  Substring (id-1, 1, INDEX (id-1, id-4)), table).
      128      128        (12) INSPECT id-1 REPLACING LEADING "x" BY "y".
      129      129             %NEW_ILL (@ID = SEARCH, @LOP = id-1, @ROP = table, @TO = result)
      130      130             Move filler("y") TO Substring (id-1, 1, result).
      131      131
      132      132        */
      133      133
      134      134        %EJECT;
PL6.E3A0      #001=Z8EA$INSPECT_1 File=Z8EA.:Z8A6TSI                             SAT 08/09/97 11:39 Page:108
      135      135        /*==============*/
      136      136          Z8EA$INSPECT_1: PROC (INSPECT$) ;

    136 25 000000   000000 700200 xent  Z8EA$INSPEC* TSX0  ! X66_AUTO_1
        25 000001   000564 000001                    ZERO    372,1

      137      137        /*==============*/
      138      138
      139      139        %EQU PHASE = 1 ;
      140      140        %EQU NOT_APPLICABLE = 0 ;
      141      141
      142      142        %INCLUDE Z8A_DEFC ;
      143      210        %INCLUDE Z8A_SUPP_MAC ;
      144     2610        %INCLUDE Z8E_ILS_LIST ;
      145     2694        %INCLUDE Z8A_ILL ;
      146     3387        %INCLUDE Z8A_ILS ;
      147     3496        %INCLUDE Z8A_ST ;
      148     7155        %INCLUDE Z8A_TYPES ;
      149     7329        %INCLUDE Z8A_DNT;
      150     7550        %INCLUDE Z8A_ETT ;
      151     7851        %INCLUDE Z8A_LTS ;
      152     9928        %INCLUDE Z8A_SRCH ;
      153     9977        %INCLUDE Z8A_COMCOM ;
      154    10627        %INCLUDE Z8A_LIBRARY ;
      155    10841        %INCLUDE Z8E_HEAP ;
      156    10897        %INCLUDE Z8E_WINDOW ;
      157    12967        %INCLUDE Z8E_MACROS ;
      158    13642        %INCLUDE Z8E_STACKS ;
      159    15908        %INCLUDE Z8E_TRANSLAT ;
      160    16326        %INCLUDE Z8E_O1COM ;
      161    17087        %INCLUDE Z8A_ERR_NUMS ;
      162    17851        %INCLUDE Z8A_MKCN;
      163    17868
      164    17869        %DCL_AUTO_LX_ITEM (@NAME = POINTER) ;
      165    17873        %DCL_AUTO_LX_ITEM (@NAME = LENGTH) ;
      166    17877        %DCL_AUTO_LX_ITEM (@NAME = LENGTH_ID1) ;
      167    17881        %DCL_AUTO_LX_ITEM (@NAME = LENGTH_ID3) ;
PL6.E3A0      #001=Z8EA$INSPECT_1 File=Z8EA.:Z8A6TSI                             SAT 08/09/97 11:39 Page:109
      168    17885        %DCL_AUTO_LX_ITEM (@NAME = LENGTH_ID1_ID3) ;
      169    17889        %DCL_AUTO_LX_ITEM (@NAME = LENGTH_ID5) ;
      170    17893        %DCL_AUTO_LX_ITEM (@NAME = POSITION) ;
      171    17897        %DCL_AUTO_LX_ITEM (@NAME = TABLE) ;
      172    17901        %DCL_AUTO_LX_ITEM (@NAME = ONE) ;
      173    17905        %DCL_AUTO_LX_ITEM (@NAME = TWO) ;
      174    17909        %DCL_AUTO_LX_ITEM (@NAME = SUB_STR) ;
      175    17913        %DCL_AUTO_LX_ITEM (@NAME = ID7_SUBSTR) ;
      176    17917        %DCL_AUTO_LX_ITEM (@NAME = ID2_ORIGINAL) ;
      177    17921        %DCL_AUTO_LX_ITEM (@NAME = ID1) ;
      178    17925        %DCL_AUTO_LX_ITEM (@NAME = COMPARISON) ;
      179    17929        %DCL_AUTO_LX_ITEM (@NAME = ASC_BIN) ;
      180    17933        %DCL_AUTO_LX_ITEM (@NAME = TABLE_LX_ETT) ;
      181    17937        %DCL_AUTO_LX_ITEM (@NAME = ADD) ;
      182    17941        %DCL_AUTO_LX_ITEM (@NAME = SUB) ;
      183    17945        %DCL_AUTO_LX_ITEM( @NAME = ETT_ITEM );
      184    17949        %DCL_AUTO_LX_ITEM( @NAME = OP_NODE );
      185    17953
      186    17954    1   DCL    ADD$            PTR ;
      187    17955    1   DCL    AFTER$          PTR ; /* LX_ETT_ITEM in Pass 3 */
      188    17956    1   DCL    ALL$            PTR ;       /* ALL or LEADING Clause */
      189    17957    1   DCL    ASCASC$         PTR STATIC INIT (ADDR(NIL)) ; /* Ascii2Ascii */
      190    17958    1   DCL    ASCBIN$         PTR ;       /* For INSPECT Format 4  */
      191    17959    1   DCL    ATOA_CHAR       CHAR (1) ;
      192    17960    1   DCL  1 BCD$STRING      ALIGNED BASED,
      193    17961    1          2 BCD_CHAR (0:0) BIT (6) ;
      194    17962    1   DCL    BEFORE$         PTR ; /* LX_ETT_ITEM in Pass 3 */
      195    17963    1   DCL    BEFORE_AFTER$   PTR ;
      196    17964    1   DCL    BLOCK$          PTR ;
      197    17965    1   DCL    CLAUSE_TYPE     SBIN WORD ; /* %RSV_WRD_ALL, etc. */
      198    17966    1   DCL    COMPARISON$     PTR ;
      199    17967                                               /*#31076*/
      200    17968    1   DCL    END_AFTER_IF$   PTR ;
      201    17969    1   DCL    END_BEFORE_IF$  PTR ;
      202    17970    1   DCL    END_IF$         PTR ;
      203    17971    1   DCL    END_LOOP$       PTR ;
      204    17972    1   DCL    FIRST$          PTR ;
PL6.E3A0      #001=Z8EA$INSPECT_1 File=Z8EA.:Z8A6TSI                             SAT 08/09/97 11:39 Page:110
      205    17973    1   DCL    FOR_LIST$       PTR ; /* Current FOR_LIST AST item */
      206    17974    1   DCL    FOR$            PTR ;       /* FOR Clause LX_LIST */
      207    17975    1   DCL    I               SBIN WORD ;
      208    17976    1   DCL    ID1_ORIG_TYPE   UBIN WORD;
      209    17977    1   DCL    ID1$            PTR ;
      210    17978    1   DCL    ID1_ST$         PTR ;
      211    17979    1   DCL    ID2$            PTR ;
      212    17980    1   DCL    ID3$            PTR ;
      213    17981    1   DCL    ID3_CHAR        CHAR (1) ;
      214    17982    1   DCL  1 ID3_BCD_CHAR    REDEF ID3_CHAR,
      215    17983    1          2 MBZ3          BIT (3),
      216    17984    1          2 BCD_CHAR      BIT (6) ;
      217    17985    1   DCL    ID6_CHAR        REDEF ID3_CHAR CHAR (1) ;
      218    17986    1   DCL  1 ID6_BCD_CHAR    REDEF ID3_CHAR,
      219    17987    1          2 MBZ6          BIT (3),
      220    17988    1          2 BCD_CHAR      BIT (6) ;
      221    17989    1   DCL    ID5_CHAR        CHAR (1) ;
      222    17990    1   DCL  1 ID5_BCD_CHAR    REDEF ID5_CHAR,
      223    17991    1          2 MBZ5          BIT (3),
      224    17992    1          2 BCD_CHAR      BIT (6) ;
      225    17993    1   DCL    ID7_CHAR        REDEF ID5_CHAR CHAR (1) ;
      226    17994    1   DCL  1 ID7_BCD_CHAR    REDEF ID5_CHAR,
      227    17995    1          2 MBZ7          BIT (3),
      228    17996    1          2 BCD_CHAR      BIT (6) ;
      229    17997    1   DCL    ID5$            PTR ;
      230    17998    1   DCL    ID6$            PTR ;       /* For INSPECT Format 4 */
      231    17999    1   DCL    ID6_CHAR$       PTR ;
      232    18000    1   DCL    ID7$            PTR ;       /* For INSPECT Format 4 */
      233    18001    1   DCL    ID7_CHAR$       PTR ;
      234    18002    1   DCL    ID7_SUBSTR$     PTR ;       /* For INSPECT Format 4 */
      235    18003    1   DCL    INSPECT$        PTR ; /* INSPECT_INFO AST item */
      236    18004    1   DCL    J               SBIN WORD ;
      237    18005    1   DCL    LENGTH$         PTR ;
      238    18006    1   DCL    LENGTH_ID1$     PTR ;
      239    18007    1   DCL    LENGTH_ID3$     PTR ;
      240    18008    1   DCL    LENGTH_ID1_ID3$ PTR ;
      241    18009    1   DCL    LENGTH_ID5$     PTR ;
PL6.E3A0      #001=Z8EA$INSPECT_1 File=Z8EA.:Z8A6TSI                             SAT 08/09/97 11:39 Page:111
      242    18010    1   DCL    LX_LIST$        PTR ;
      243    18011    1   DCL    NO_OF_CLAUSES   SBIN WORD ;
      244    18012    1   DCL    ONE$            PTR ; /* TRIAD for CONST (1) */
      245    18013    1   DCL    ONE_LX_ETT$     PTR ;       /* LX_ETT_ITEM for 1 */
      246    18014    1   DCL    OPTIMIZABLE     BOOLEAN ;
      247    18015    1   DCL    POINTER$        PTR STATIC INIT (ADDR(NIL)) ;
      248    18016    1   DCL    POSITION$       PTR ; /* Used in SEARCH (TCT) */
      249    18017    1   DCL    PRODUCE_INSPECT_ILS BOOLEAN ;
      250    18018    1   DCL    REPLACE$        PTR ;
      251    18019    1   DCL    REPLACE_LIST$   PTR ; /* Current REPLACE_LIST AST item */
      252    18020    1   DCL    SCALAR$         PTR ;
      253    18021    1   DCL    SUB$            PTR ;
      254    18022    1   DCL    SUBSTR$         PTR ;
      255    18023    1   DCL    TABLE$          PTR ; /* ETT ITEM */
      256    18024    1   DCL    TABLE_ETT$      PTR ;
      257    18025    1   DCL    TABLE_LX_ETT$   PTR ; /* LX_ETT_ITEM */
      258    18026    1   DCL    TALLY_LIST$     PTR ; /* Current TALLY_LIST AST item */
      259    18027    1   DCL    TWO$            PTR ; /* TRIAD for CONST (2) */
      260    18028    1   DCL    TWO_LX_ETT$     PTR ;
      261    18029    1   DCL    TYPE1           SBIN ;
      262    18030
      263    18031    1   DCL    Z8AC$LX_ETT_ITEM_TYI_CONST ENTRY (2) ;
      264    18032    1   DCL    Z8AC$MAKE_CONST            ENTRY (1) ;
      265    18033    1   DCL    Z8AE$ERROR                 ENTRY (12) ;
      266    18034    1   DCL    Z8AF$FORME                 ENTRY (4) ;
      267    18035    1   DCL    Z8AS$SR_ETT                ENTRY (1) ;
      268    18036    1   DCL    Z8AT$CREATE_TEMPORARY      ENTRY (2) ;
      269    18037    1   DCL    Z8AT$CREATE_TEMP_WITH_BASE ENTRY (2) ;
      270    18038    1   DCL    Z8AU$LENGTH                ENTRY (2) ; /* Args: ETT items */
      271    18039    1   DCL    Z8AU$LENGTH_ETT            ENTRY (2) ; /* Args: ETT items */
      272    18040    1   DCL    Z8AU$TYPE_DESCRIPTOR       ENTRY (2) ;
      273    18041    1   DCL    Z8EA$INSERT_ZERO           ENTRY (4) ;
      274    18042    1   DCL    Z8E5$MATH_PACK             ENTRY (2) ;
      275    18043    1   DCL    Z8E7$MOVE                  ENTRY (2) ;
      276    18044    1   DCL    Z8EC$INTERNAL_STRING_REP   ENTRY (2) ;
      277    18045    1   DCL    Z8EK$BRANCH                ENTRY (1) ;
      278    18046    1   DCL    Z8EK$BRANCH_FALSE          ENTRY (2) ;
PL6.E3A0      #001=Z8EA$INSPECT_1 File=Z8EA.:Z8A6TSI                             SAT 08/09/97 11:39 Page:112
      279    18047    1   DCL    Z8EK$BRANCH_TRUE           ENTRY (2) ;
      280    18048    1   DCL    Z8CO$CREATE_LIBRARY_BASE   ENTRY (2) ;
      281    18049    1   DCL    Z8CO$DISPL_CHECK           ENTRY (1) ALTRET ;
      282    18050    1   DCL    Z8CO$INTEGER_CHECK         ENTRY (1) ALTRET ;
      283    18051    1   DCL    Z8EV$CONVERT               ENTRY (3) ;
      284    18052    1   DCL    Z8EV$CONVERT_TYA           ENTRY (3) ;
      285    18053    1   DCL    Z8EA$ASCBIN                ENTRY (2) ;
      286    18054    1   DCL    Z8EQ$CREATE_DO_WHILE       ENTRY (2) ;
      287    18055    1   DCL    Z8EY$INSERT                ENTRY (4) ;              /*#42050*/
      288    18056    1   DCL    Z8EZ$SEARCH                ENTRY (5) ;
      289    18057
      290    18058    1   DCL 1  ID3_DESC      ALIGNED,
      291    18059             %TYPE_DESC ;
      292    18093    1   DCL 1  ID6_DESC      REDEF ID3_DESC ALIGNED,
      293    18094             %TYPE_DESC ;
      294    18128
      295    18129    1   DCL 1  ID5_DESC      ALIGNED,
      296    18130             %TYPE_DESC ;
      297    18164    1   DCL 1  ID7_DESC      REDEF ID5_DESC ALIGNED,
      298    18165             %TYPE_DESC ;
      299    18199
      300    18200    1   DCL 1  SAVED_ILS_LIST DALIGNED,
      301    18201    1        2 *     (0: %(LENGTH_LX_ITEM - 1)) PTR ALIGNED ;
      302    18202
      303    18203    1   DCL 1  DO_BODY_ILS_LIST DALIGNED,
      304    18204    1        2 *     (0: %(LENGTH_LX_ITEM - 1)) PTR ALIGNED ;
      305    18205
      306    18206    1   DCL 1  CONVERSION_ILS_LIST DALIGNED,
      307    18207    1        2 *     (0: %(LENGTH_LX_ITEM - 1)) PTR ALIGNED ;
      308    18208
      309    18209        %EJECT;
PL6.E3A0      #001=Z8EA$INSPECT_1 File=Z8EA.:Z8A6TSI                             SAT 08/09/97 11:39 Page:113
      310    18210
      311    18211             /*==========*/
      312    18212        %MACRO IF_THEN_DO (@LOP =, @REL =, @ROP =, @LAB =) ;
      313    18213             /*==========*/
      314    18214
      315    18215               DO ;
      316    18216                 %LSET LINE@ = CHARTEXT (CONCAT (TEXTCHAR (@LOP),
      317    18217                                                 ' -> LX_ETT_ITEM.LINE')) ;
      318    18218                 %LSET COLUMN@ = CHARTEXT (CONCAT (TEXTCHAR (@LOP),
      319    18219                                                 ' -> LX_ETT_ITEM.COLUMN')) ;
      320    18220
      321    18221                 COMPARISON$ = ADDR (COMPARISON) ;
      322    18222                 %INIT_BINARY_OP (@POINTER = COMPARISON$,
      323    18223                                  @LOP$    = @LOP,
      324    18224                                  @OP      = @REL,
      325    18225                                  @ROP$    = @ROP,
      326    18226                                  @LINE    = %LINE@,
      327    18227                                  @COLUMN  = %COLUMN@) ;
      328    18228
      329    18229                 CALL Z8AT$CREATE_TEMPORARY (%PARA, @LAB) ;
      330    18230                 CALL Z8EK$BRANCH_FALSE (@LAB, COMPARISON$) ;
      331    18231               END ;
      332    18232
      333    18233        %MEND ;
      334    18234
      335    18235        %EJECT;
PL6.E3A0      #001=Z8EA$INSPECT_1 File=Z8EA.:Z8A6TSI                             SAT 08/09/97 11:39 Page:114
      336    18236               /*===========================*/
      337    18237               /*V* INSPECT_TALLYING_Pass_2 */
      338    18238               /*===========================*/
      339    18239
      340    18240    1          ONE_LX_ETT$ = ADDR (ONE) ;

  18240 25 000002   200116 630500                    EPPR0   ONE,,AUTO
        25 000003   200336 450500                    STP0    ONE_LX_ETT$,,AUTO

      341    18241    1          CALL Z8AC$LX_ETT_ITEM_TYI_CONST (1, ONE_LX_ETT$) ;

  18241 25 000004   200336 631500                    EPPR1   ONE_LX_ETT$,,AUTO
        25 000005   200553 451500                    STP1    LENGTH_ID4$+3,,AUTO
        25 000006   000002 236000 26                 LDQ     2
        25 000007   200552 756100                    STQ     LENGTH_ID4$+2,,AUTO
        25 000010   200552 630500                    EPPR0   LENGTH_ID4$+2,,AUTO
        25 000011   000000 631400 26                 EPPR1   0
        25 000012   000000 701000 xent               TSX1    Z8AC$LX_ETT_ITEM_TYI_CONST
        25 000013   000000 011000                    NOP     0

      342    18242    1          ONE$ = ONE_LX_ETT$ -> LX_ETT_ITEM.ETT$ ;

  18242 25 000014   200336 470500                    LDP0    ONE_LX_ETT$,,AUTO
        25 000015   000001 236100                    LDQ     1,,PR0
        25 000016   200335 756100                    STQ     ONE$,,AUTO

      343    18243    1          TWO_LX_ETT$ = ADDR (TWO) ;

  18243 25 000017   200126 631500                    EPPR1   TWO,,AUTO
        25 000020   200354 451500                    STP1    TWO_LX_ETT$,,AUTO

      344    18244    1          CALL Z8AC$LX_ETT_ITEM_TYI_CONST (2, TWO_LX_ETT$) ;

  18244 25 000021   200354 633500                    EPPR3   TWO_LX_ETT$,,AUTO
        25 000022   200553 453500                    STP3    LENGTH_ID4$+3,,AUTO
        25 000023   000004 236000 26                 LDQ     4
        25 000024   200552 756100                    STQ     LENGTH_ID4$+2,,AUTO
PL6.E3A0      #001=Z8EA$INSPECT_1 File=Z8EA.:Z8A6TSI                             SAT 08/09/97 11:39 Page:115
        25 000025   200552 630500                    EPPR0   LENGTH_ID4$+2,,AUTO
        25 000026   000000 631400 26                 EPPR1   0
        25 000027   000000 701000 xent               TSX1    Z8AC$LX_ETT_ITEM_TYI_CONST
        25 000030   000000 011000                    NOP     0

      345    18245    1          TWO$ = TWO_LX_ETT$ -> LX_ETT_ITEM.ETT$ ;

  18245 25 000031   200354 470500                    LDP0    TWO_LX_ETT$,,AUTO
        25 000032   000001 236100                    LDQ     1,,PR0
        25 000033   200353 756100                    STQ     TWO$,,AUTO

      346    18246
      347    18247               %INIT_ILS_LIST (@POINTER = "ADDR(CONVERSION_ILS_LIST)") ;

  18249 25 000034   000007 220003                    LDX0    7,DU
        25 000035   200406 740100                    STX0    CONVERSION_ILS_LIST,,AUTO

  18250 25 000036   000005 236000 26                 LDQ     5
        25 000037   200407 756100                    STQ     CONVERSION_ILS_LIST+1,,AUTO

  18251 25 000040   200410 756100                    STQ     CONVERSION_ILS_LIST+2,,AUTO

  18252 25 000041   200415 756100                    STQ     CONVERSION_ILS_LIST+7,,AUTO

      348    18255    1          PRODUCE_INSPECT_ILS = TRUE ;

  18255 25 000042   400000 236003                    LDQ     -131072,DU
        25 000043   200341 756100                    STQ     PRODUCE_INSPECT_ILS,,AUTO

      349    18256    1          ID1 = INSPECT$-> INSPECT_1_STMT.ID_1$-> LX_ETT_ITEM;

  18256 25 000044   200003 471500                    LDP1    @INSPECT$,,AUTO
        25 000045   100000 473500                    LDP3    0,,PR1
        25 000046   300002 474500                    LDP4    2,,PR3
        25 000047   000100 100500                    MLR     fill='000'O
        25 000050   400000 000040                    ADSC9   0,,PR4                   cn=0,n=32
        25 000051   200166 000040                    ADSC9   ID1,,AUTO                cn=0,n=32
PL6.E3A0      #001=Z8EA$INSPECT_1 File=Z8EA.:Z8A6TSI                             SAT 08/09/97 11:39 Page:116

      350    18257    1          ID1$ = ADDR(ID1);

  18257 25 000052   200166 633500                    EPPR3   ID1,,AUTO
        25 000053   200311 453500                    STP3    ID1$,,AUTO

      351    18258    1          ID1_ORIG_TYPE = ID1$-> LX_ETT_ITEM.TYPE;

  18258 25 000054   300004 235100                    LDA     4,,PR3
        25 000055   200310 755100                    STA     ID1_ORIG_TYPE,,AUTO

      352    18259    2          DO CASE (ID1_ORIG_TYPE);

  18259 25 000056   000024 115007                    CMPA    20,DL
        25 000057   000061 602005 25                 TNC     s:18259+3,AL
        25 000060   000110 710000 25                 TRA     s:18263
        25 000061   000110 710000 25                 TRA     s:18263
        25 000062   000110 710000 25                 TRA     s:18263
        25 000063   000110 710000 25                 TRA     s:18263
        25 000064   000105 710000 25                 TRA     s:18261
        25 000065   000110 710000 25                 TRA     s:18263
        25 000066   000110 710000 25                 TRA     s:18263
        25 000067   000110 710000 25                 TRA     s:18263
        25 000070   000110 710000 25                 TRA     s:18263
        25 000071   000110 710000 25                 TRA     s:18263
        25 000072   000110 710000 25                 TRA     s:18263
        25 000073   000110 710000 25                 TRA     s:18263
        25 000074   000105 710000 25                 TRA     s:18261
        25 000075   000110 710000 25                 TRA     s:18263
        25 000076   000110 710000 25                 TRA     s:18263
        25 000077   000110 710000 25                 TRA     s:18263
        25 000100   000110 710000 25                 TRA     s:18263
        25 000101   000110 710000 25                 TRA     s:18263
        25 000102   000110 710000 25                 TRA     s:18263
        25 000103   000110 710000 25                 TRA     s:18263
        25 000104   000105 710000 25                 TRA     s:18261

PL6.E3A0      #001=Z8EA$INSPECT_1 File=Z8EA.:Z8A6TSI                             SAT 08/09/97 11:39 Page:117
      353    18260    2            CASE (%TYO, %TYF, %TYC);

      354    18261    2              TYPE1 = %TYA;

  18261 25 000105   000010 235007                    LDA     8,DL
        25 000106   200355 755100                    STA     TYPE1,,AUTO
        25 000107   000111 710000 25                 TRA     s:18265

      355    18262    2            CASE (ELSE);

      356    18263    2              TYPE1 = ID1_ORIG_TYPE;

  18263 25 000110   200355 755100                    STA     TYPE1,,AUTO

      357    18264    2          END;

      358    18265    1          IF ID1$ -> LX_ETT_ITEM.B.HIGH_LEV THEN INSPECT$ -> INSPECT_1_STMT.HIGH_LEV =
             18265                   TRUE;

  18265 25 000111   300000 236100                    LDQ     0,,PR3
        25 000112   004000 316007                    CANQ    2048,DL
        25 000113   000117 600000 25                 TZE     s:18266

  18265 25 000114   100000 474500                    LDP4    0,,PR1
        25 000115   400000 236007                    LDQ     -131072,DL
        25 000116   400000 256100                    ORSQ    0,,PR4

      359    18266    1          CALL VERIFY_ALPHA (ID1$) ;

  18266 25 000117   200311 630500                    EPPR0   ID1$,,AUTO
        25 000120   200471 450500                    STP0    LEN+3,,AUTO
        25 000121   013172 701000 25                 TSX1    VERIFY_ALPHA
        25 000122   000000 011000                    NOP     0

      360    18267
      361    18268    1          LX_LIST$ = INSPECT$ -> INSPECT_1_STMT.INSPECT_1$ ;

PL6.E3A0      #001=Z8EA$INSPECT_1 File=Z8EA.:Z8A6TSI                             SAT 08/09/97 11:39 Page:118
  18268 25 000123   200003 470500                    LDP0    @INSPECT$,,AUTO
        25 000124   000000 471500                    LDP1    0,,PR0
        25 000125   100003 236100                    LDQ     3,,PR1
        25 000126   200333 756100                    STQ     LX_LIST$,,AUTO

      362    18269    1          ID2$ = LX_LIST$ -> LX_LIST.HEAD$ ;

  18269 25 000127   200333 473500                    LDP3    LX_LIST$,,AUTO
        25 000130   300004 236100                    LDQ     4,,PR3
        25 000131   200313 756100                    STQ     ID2$,,AUTO

      363    18270    1          IF ID2$ -> LX_ETT_ITEM.B.HIGH_LEV THEN INSPECT$ -> INSPECT_1_STMT.HIGH_LEV =
             18270                   TRUE;

  18270 25 000132   200313 471500                    LDP1    ID2$,,AUTO
        25 000133   100000 236100                    LDQ     0,,PR1
        25 000134   004000 316007                    CANQ    2048,DL
        25 000135   000141 600000 25                 TZE     s:18271

  18270 25 000136   000000 474500                    LDP4    0,,PR0
        25 000137   400000 236007                    LDQ     -131072,DL
        25 000140   400000 256100                    ORSQ    0,,PR4

      364    18271    1          CALL CONVERT_ID2 (ID2$) ;

  18271 25 000141   200313 631500                    EPPR1   ID2$,,AUTO
        25 000142   200417 451500                    STP1    CONVERSION_ILS_LIST+9,,AUTO
        25 000143   012454 701000 25                 TSX1    CONVERT_ID2
        25 000144   000000 011000                    NOP     0

      365    18272    1          LX_LIST$ = LX_LIST$ -> LX_LIST.TAIL$ ;

  18272 25 000145   200333 470500                    LDP0    LX_LIST$,,AUTO
        25 000146   000001 236100                    LDQ     1,,PR0
        25 000147   200333 756100                    STQ     LX_LIST$,,AUTO

      366    18273
PL6.E3A0      #001=Z8EA$INSPECT_1 File=Z8EA.:Z8A6TSI                             SAT 08/09/97 11:39 Page:119
      367    18274    1          FOR$ = LX_LIST$ -> LX_LIST.HEAD$ ;

  18274 25 000150   200333 470500                    LDP0    LX_LIST$,,AUTO
        25 000151   000004 236100                    LDQ     4,,PR0
        25 000152   200306 756100                    STQ     FOR$,,AUTO

      368    18275    1          NO_OF_CLAUSES = 0 ;

  18275 25 000153   200334 450100                    STZ     NO_OF_CLAUSES,,AUTO

      369    18276
      370    18277    2          DO WHILE (FOR$ ~= ADDR(NIL)) ;

  18277 25 000154   000366 710000 25                 TRA     s:18351

      371    18278
      372    18279    2            CLAUSE_TYPE = FOR$ -> LX_LIST.HEAD$ -> LX_TERMINAL.SYMBOL ;

  18279 25 000155   200306 470500                    LDP0    FOR$,,AUTO
        25 000156   000004 471500                    LDP1    4,,PR0
        25 000157   100003 235100                    LDA     3,,PR1
        25 000160   200276 755100                    STA     CLAUSE_TYPE,,AUTO

      373    18280
      374    18281    3            IF CLAUSE_TYPE = %RSV_WRD_CHARACTERS THEN DO ;

  18281 25 000161   000120 115007                    CMPA    80,DL
        25 000162   000214 601000 25                 TNZ     s:18299

      375    18282
      376    18283    3              NO_OF_CLAUSES = NO_OF_CLAUSES + 1 ;

  18283 25 000163   200334 054100                    AOS     NO_OF_CLAUSES,,AUTO

      377    18284
      378    18285    3              CALL SCAN_BEFORE_AFTER (FOR$ -> LX_LIST.HEAD$ -> LX_TERMINAL.LINK,

PL6.E3A0      #001=Z8EA$INSPECT_1 File=Z8EA.:Z8A6TSI                             SAT 08/09/97 11:39 Page:120
  18285 25 000164   000004 471500                    LDP1    4,,PR0
        25 000165   000005 236000 26                 LDQ     5
        25 000166   200561 756100                    STQ     LENGTH_ID4$+9,,AUTO
        25 000167   200311 633500                    EPPR3   ID1$,,AUTO
        25 000170   200422 453500                    STP3    @ID$+1,,AUTO
        25 000171   000007 236000 26                 LDQ     7
        25 000172   200421 756100                    STQ     @LINK$+1,,AUTO
        25 000173   200561 634500                    EPPR4   LENGTH_ID4$+9,,AUTO
        25 000174   200420 454500                    STP4    @ID$+1,,AUTO
        25 000175   100007 635500                    EPPR5   7,,PR1
        25 000176   200417 455500                    STP5    CONVERSION_ILS_LIST+9,,AUTO
        25 000177   013540 701000 25                 TSX1    SCAN_BEFORE_AFTER
        25 000200   000000 011000                    NOP     0

      379    18286    3                                      ADDR(NIL),
      380    18287    3                                      %RSV_WRD_CHARACTERS,
      381    18288    3                                      ID1$) ;
      382    18289
      383    18290    4              IF FOR$ -> LX_LIST.COUNT = 3 THEN DO ;

  18290 25 000201   200306 470500                    LDP0    FOR$,,AUTO
        25 000202   000002 235100                    LDA     2,,PR0
        25 000203   000003 115007                    CMPA    3,DL
        25 000204   000363 601000 25                 TNZ     s:18349

      384    18291    4                ID2$ = FOR$ -> LX_LIST.TAIL$ ;

  18291 25 000205   000001 236100                    LDQ     1,,PR0
        25 000206   200313 756100                    STQ     ID2$,,AUTO

      385    18292    4                CALL CONVERT_ID2 (ID2$) ;

  18292 25 000207   200313 631500                    EPPR1   ID2$,,AUTO
        25 000210   200417 451500                    STP1    CONVERSION_ILS_LIST+9,,AUTO
        25 000211   012454 701000 25                 TSX1    CONVERT_ID2
        25 000212   000000 011000                    NOP     0

PL6.E3A0      #001=Z8EA$INSPECT_1 File=Z8EA.:Z8A6TSI                             SAT 08/09/97 11:39 Page:121
      386    18293    4              END ;

      387    18294
      388    18295    3            END ;

  18295 25 000213   000363 710000 25                 TRA     s:18349

      389    18296
      390    18297    3            ELSE DO ; /* ALL or LEADING */

      391    18298
      392    18299    4              IF FOR$ -> LX_LIST.COUNT = 3 THEN DO ;

  18299 25 000214   000002 235100                    LDA     2,,PR0
        25 000215   000003 115007                    CMPA    3,DL
        25 000216   000225 601000 25                 TNZ     s:18304

      393    18300    4                ID2$ = FOR$ -> LX_LIST.TAIL$ ;

  18300 25 000217   000001 236100                    LDQ     1,,PR0
        25 000220   200313 756100                    STQ     ID2$,,AUTO

      394    18301    4                CALL CONVERT_ID2 (ID2$) ;

  18301 25 000221   200313 631500                    EPPR1   ID2$,,AUTO
        25 000222   200417 451500                    STP1    CONVERSION_ILS_LIST+9,,AUTO
        25 000223   012454 701000 25                 TSX1    CONVERT_ID2
        25 000224   000000 011000                    NOP     0

      395    18302    4              END ;

      396    18303
      397    18304    3              ALL$ = FOR$ -> LX_LIST.HEAD$ -> LX_TERMINAL.LINK -> LX_LIST.HEAD$ ;

  18304 25 000225   200306 470500                    LDP0    FOR$,,AUTO
        25 000226   000004 471500                    LDP1    4,,PR0
        25 000227   100007 473500                    LDP3    7,,PR1
PL6.E3A0      #001=Z8EA$INSPECT_1 File=Z8EA.:Z8A6TSI                             SAT 08/09/97 11:39 Page:122
        25 000230   300004 236100                    LDQ     4,,PR3
        25 000231   200270 756100                    STQ     ALL$,,AUTO

      398    18305
      399    18306    4              DO WHILE (ALL$ ~= ADDR(NIL)) ;

  18306 25 000232   000361 710000 25                 TRA     s:18345

      400    18307
      401    18308    4                NO_OF_CLAUSES = NO_OF_CLAUSES + 1 ;

  18308 25 000233   200334 054100                    AOS     NO_OF_CLAUSES,,AUTO

      402    18309
      403    18310    4                ID3$ = ALL$ -> LX_LIST.HEAD$ ;

  18310 25 000234   200270 470500                    LDP0    ALL$,,AUTO
        25 000235   000004 236100                    LDQ     4,,PR0
        25 000236   200314 756100                    STQ     ID3$,,AUTO

      404    18311    4                IF INSPECT$-> INSPECT_1_STMT.KEY_WORD$->

  18311 25 000237   200003 471500                    LDP1    @INSPECT$,,AUTO
        25 000240   100000 473500                    LDP3    0,,PR1
        25 000241   300001 474500                    LDP4    1,,PR3
        25 000242   400003 235100                    LDA     3,,PR4
        25 000243   000304 115007                    CMPA    196,DL
        25 000244   000336 601000 25                 TNZ     s:18337

      405    18312    4                   LX_TERMINAL.SYMBOL = %RSV_WRD_EXAMINE  THEN
      406    18313    5                  DO;

      407    18314    5                    CALL EXAMINE_ID_CHECK( ID1$, ID3$ );

  18314 25 000245   200314 635500                    EPPR5   ID3$,,AUTO
        25 000246   200460 455500                    STP5    BEGAIN_INDEX$+1,,AUTO
        25 000247   200311 633500                    EPPR3   ID1$,,AUTO
PL6.E3A0      #001=Z8EA$INSPECT_1 File=Z8EA.:Z8A6TSI                             SAT 08/09/97 11:39 Page:123
        25 000250   200457 453500                    STP3    BEFORE_AFTER_TYPE+3,,AUTO
        25 000251   013231 701000 25                 TSX1    EXAMINE_ID_CHECK
        25 000252   000000 011000                    NOP     0

      408    18315    5                    IF ID1$ -> LX_ETT_ITEM.TYPE = %TYF THEN

  18315 25 000253   200311 470500                    LDP0    ID1$,,AUTO
        25 000254   000004 235100                    LDA     4,,PR0
        25 000255   000013 115007                    CMPA    11,DL
        25 000256   000310 601000 25                 TNZ     s:18326

      409    18316    6                      DO;

      410    18317    6                        CALL Z8AF$FORME (%CVOD4,

  18317 25 000257   200311 236100                    LDQ     ID1$,,AUTO
        25 000260   000001 036003                    ADLQ    1,DU
        25 000261   000013 235000 26                 LDA     11
        25 000262   200554 757100                    STAQ    LENGTH_ID4$+4,,AUTO
        25 000263   200311 236100                    LDQ     ID1$,,AUTO
        25 000264   000001 036003                    ADLQ    1,DU
        25 000265   000014 235000 26                 LDA     12
        25 000266   200552 757100                    STAQ    LENGTH_ID4$+2,,AUTO
        25 000267   200552 630500                    EPPR0   LENGTH_ID4$+2,,AUTO
        25 000270   000010 631400 26                 EPPR1   8
        25 000271   000000 701000 xent               TSX1    Z8AF$FORME
        25 000272   000000 011000                    NOP     0

      411    18318    6                                         ID1$ -> LX_ETT_ITEM.ETT$,
      412    18319    6                                         0,
      413    18320    6                                         ID1$ -> LX_ETT_ITEM.ETT$);
      414    18321    6                        CALL Z8AF$FORME (%CV49,

  18321 25 000273   200311 236100                    LDQ     ID1$,,AUTO
        25 000274   000001 036003                    ADLQ    1,DU
        25 000275   000013 235000 26                 LDA     11
        25 000276   200554 757100                    STAQ    LENGTH_ID4$+4,,AUTO
PL6.E3A0      #001=Z8EA$INSPECT_1 File=Z8EA.:Z8A6TSI                             SAT 08/09/97 11:39 Page:124
        25 000277   200311 236100                    LDQ     ID1$,,AUTO
        25 000300   000001 036003                    ADLQ    1,DU
        25 000301   000016 235000 26                 LDA     14
        25 000302   200552 757100                    STAQ    LENGTH_ID4$+2,,AUTO
        25 000303   200552 630500                    EPPR0   LENGTH_ID4$+2,,AUTO
        25 000304   000010 631400 26                 EPPR1   8
        25 000305   000000 701000 xent               TSX1    Z8AF$FORME
        25 000306   000000 011000                    NOP     0

      415    18322    6                                         ID1$ -> LX_ETT_ITEM.ETT$,
      416    18323    6                                         0,
      417    18324    6                                         ID1$ -> LX_ETT_ITEM.ETT$);
      418    18325    6                      END;

  18325 25 000307   000342 710000 25                 TRA     s:18339

      419    18326    5                    ELSE IF ID1$ -> LX_ETT_ITEM.TYPE = %TYC THEN

  18326 25 000310   000023 115007                    CMPA    19,DL
        25 000311   000342 601000 25                 TNZ     s:18339

      420    18327    6                      DO;

      421    18328    6                        CALL Z8CO$CREATE_LIBRARY_BASE (%OP_GBCD_TO_ASCII,

  18328 25 000312   200350 631500                    EPPR1   TABLE_ETT$,,AUTO
        25 000313   200553 451500                    STP1    LENGTH_ID4$+3,,AUTO
        25 000314   000020 236000 26                 LDQ     16
        25 000315   200552 756100                    STQ     LENGTH_ID4$+2,,AUTO
        25 000316   200552 630500                    EPPR0   LENGTH_ID4$+2,,AUTO
        25 000317   000000 631400 26                 EPPR1   0
        25 000320   000000 701000 xent               TSX1    Z8CO$CREATE_LIBRARY_BASE
        25 000321   000000 011000                    NOP     0

      422    18329    6                                                       TABLE_ETT$);
      423    18330    6                        CALL Z8AF$FORME (%CVT,

PL6.E3A0      #001=Z8EA$INSPECT_1 File=Z8EA.:Z8A6TSI                             SAT 08/09/97 11:39 Page:125
  18330 25 000322   200311 236100                    LDQ     ID1$,,AUTO
        25 000323   000001 036003                    ADLQ    1,DU
        25 000324   200555 756100                    STQ     LENGTH_ID4$+5,,AUTO
        25 000325   200350 630500                    EPPR0   TABLE_ETT$,,AUTO
        25 000326   200554 450500                    STP0    LENGTH_ID4$+4,,AUTO
        25 000327   000022 235000 26                 LDA     18
        25 000330   200552 757100                    STAQ    LENGTH_ID4$+2,,AUTO
        25 000331   200552 630500                    EPPR0   LENGTH_ID4$+2,,AUTO
        25 000332   000010 631400 26                 EPPR1   8
        25 000333   000000 701000 xent               TSX1    Z8AF$FORME
        25 000334   000000 011000                    NOP     0

      424    18331    6                                         ID1$ -> LX_ETT_ITEM.ETT$,
      425    18332    6                                         TABLE_ETT$,
      426    18333    6                                         ID1$ -> LX_ETT_ITEM.ETT$);
      427    18334    6                      END;

      428    18335    5                  END;

  18335 25 000335   000342 710000 25                 TRA     s:18339

      429    18336    4                ELSE
      430    18337    4                  CALL VERIFY_ALPHA_REF_LEV ( ID3$ );

  18337 25 000336   200314 635500                    EPPR5   ID3$,,AUTO
        25 000337   200463 455500                    STP5    COUNT+1,,AUTO
        25 000340   013026 701000 25                 TSX1    VERIFY_ALPHA_REF_LEV
        25 000341   000000 011000                    NOP     0

      431    18338
      432    18339    4                CALL SCAN_BEFORE_AFTER (ALL$ -> LX_LIST.TAIL$,

  18339 25 000342   200311 630500                    EPPR0   ID1$,,AUTO
        25 000343   200422 450500                    STP0    @ID$+1,,AUTO
        25 000344   200276 631500                    EPPR1   CLAUSE_TYPE,,AUTO
        25 000345   200421 451500                    STP1    @LINK$+1,,AUTO
        25 000346   200314 236100                    LDQ     ID3$,,AUTO
PL6.E3A0      #001=Z8EA$INSPECT_1 File=Z8EA.:Z8A6TSI                             SAT 08/09/97 11:39 Page:126
        25 000347   000007 036003                    ADLQ    7,DU
        25 000350   200420 756100                    STQ     @ID$+1,,AUTO
        25 000351   200270 236100                    LDQ     ALL$,,AUTO
        25 000352   000001 036003                    ADLQ    1,DU
        25 000353   200417 756100                    STQ     CONVERSION_ILS_LIST+9,,AUTO
        25 000354   013540 701000 25                 TSX1    SCAN_BEFORE_AFTER
        25 000355   000000 011000                    NOP     0

      433    18340    4                                        ID3$ -> LX_LIST.LINK,
      434    18341    4                                        CLAUSE_TYPE,
      435    18342    4                                        ID1$) ;
      436    18343    4                ALL$ = ALL$ -> LX_LIST.LINK ;

  18343 25 000356   200270 470500                    LDP0    ALL$,,AUTO
        25 000357   000007 236100                    LDQ     7,,PR0
        25 000360   200270 756100                    STQ     ALL$,,AUTO

      437    18344
      438    18345    4              END ; /* Do While */

  18345 25 000361   000005 116000 26                 CMPQ    5
        25 000362   000233 601000 25                 TNZ     s:18308

      439    18346
      440    18347    3            END ; /* ALL or LEADING */

      441    18348
      442    18349    2            FOR$ = FOR$ -> LX_LIST.LINK ;

  18349 25 000363   200306 470500                    LDP0    FOR$,,AUTO
        25 000364   000007 236100                    LDQ     7,,PR0
        25 000365   200306 756100                    STQ     FOR$,,AUTO

      443    18350
      444    18351    2          END ; /* Do While FOR$ <> Nil */

  18351 25 000366   000005 116000 26                 CMPQ    5
PL6.E3A0      #001=Z8EA$INSPECT_1 File=Z8EA.:Z8A6TSI                             SAT 08/09/97 11:39 Page:127
        25 000367   000155 601000 25                 TNZ     s:18279

      445    18352
      446    18353        %EJECT;
PL6.E3A0      #001=Z8EA$INSPECT_1 File=Z8EA.:Z8A6TSI                             SAT 08/09/97 11:39 Page:128
      447    18354               /*===========================*/
      448    18355               /*V* INSPECT_TALLYING_Pass_3 */
      449    18356               /*===========================*/
      450    18357
      451    18358    1          IF PRODUCE_INSPECT_ILS = FALSE THEN RETURN ;

  18358 25 000370   200341 234100                    SZN     PRODUCE_INSPECT_ILS,,AUTO
        25 000371   000373 604000 25                 TMI     s:18360

  18358 25 000372   000000 702200 xent               TSX2  ! X66_ARET

      452    18359
      453    18360    1          OPTIMIZABLE = (NO_OF_CLAUSES = 1) ;

  18360 25 000373   400000 220003                    LDX0    -131072,DU
        25 000374   200334 235100                    LDA     NO_OF_CLAUSES,,AUTO
        25 000375   000001 115007                    CMPA    1,DL
        25 000376   000400 600000 25                 TZE     s:18360+5
        25 000377   000000 220003                    LDX0    0,DU
        25 000400   000000 636010                    EAQ     0,X0
        25 000401   200337 756100                    STQ     OPTIMIZABLE,,AUTO

      454    18361    1          IF CLAUSE_TYPE = %RSV_WRD_ALL

  18361 25 000402   200276 235100                    LDA     CLAUSE_TYPE,,AUTO
        25 000403   000046 115007                    CMPA    38,DL
        25 000404   000406 601000 25                 TNZ     s:18367

      455    18362    1          THEN OPTIMIZABLE = FALSE ;

  18362 25 000405   200337 450100                    STZ     OPTIMIZABLE,,AUTO

      456    18363
      457    18364               %FISH( TRIAD = ID1$ -> LX_ETT_ITEM.ETT$,
      458    18365                      RTN   = ID1_ST$ );

  18367 25 000406   200311 470500                    LDP0    ID1$,,AUTO
PL6.E3A0      #001=Z8EA$INSPECT_1 File=Z8EA.:Z8A6TSI                             SAT 08/09/97 11:39 Page:129
        25 000407   000001 236100                    LDQ     1,,PR0
        25 000410   200312 756100                    STQ     ID1_ST$,,AUTO

  18368 25 000411   200312 471500                    LDP1    ID1_ST$,,AUTO
        25 000412   100000 220100                    LDX0    0,,PR1
        25 000413   000751 100003                    CMPX0   489,DU
        25 000414   000424 603000 25                 TRC     s:18374

  18369 25 000415   200312 470500                    LDP0    ID1_ST$,,AUTO
        25 000416   000001 236100                    LDQ     1,,PR0
        25 000417   200312 756100                    STQ     ID1_ST$,,AUTO

  18370 25 000420   200312 470500                    LDP0    ID1_ST$,,AUTO
        25 000421   000000 220100                    LDX0    0,,PR0
        25 000422   000751 100003                    CMPX0   489,DU
        25 000423   000415 602000 25                 TNC     s:18369

      459    18373
      460    18374    1          IF  CLAUSE_TYPE = %RSV_WRD_CHARACTERS    AND

  18374 25 000424   200276 235100                    LDA     CLAUSE_TYPE,,AUTO
        25 000425   000120 115007                    CMPA    80,DL
        25 000426   000434 601000 25                 TNZ     s:18380
        25 000427   200312 470500                    LDP0    ID1_ST$,,AUTO
        25 000430   000003 236100                    LDQ     3,,PR0
        25 000431   001000 316007                    CANQ    512,DL
        25 000432   000434 600000 25                 TZE     s:18380

      461    18375    1              ID1_ST$ -> SCALAR.B.KANJI                  THEN
      462    18376    1            OPTIMIZABLE = FALSE;

  18376 25 000433   200337 450100                    STZ     OPTIMIZABLE,,AUTO

      463    18377
      464    18378               /* LEADING must be one byte constant */
      465    18379
      466    18380    2          IF CLAUSE_TYPE = %RSV_WRD_LEADING THEN DO ;
PL6.E3A0      #001=Z8EA$INSPECT_1 File=Z8EA.:Z8A6TSI                             SAT 08/09/97 11:39 Page:130

  18380 25 000434   000415 115007                    CMPA    269,DL
        25 000435   000464 601000 25                 TNZ     s:18389

      467    18381    2            CALL Z8AU$TYPE_DESCRIPTOR (ID3$ -> LX_ETT_ITEM.ETT$,

  18381 25 000436   200356 630500                    EPPR0   ID3_DESC,,AUTO
        25 000437   200553 450500                    STP0    LENGTH_ID4$+3,,AUTO
        25 000440   200314 236100                    LDQ     ID3$,,AUTO
        25 000441   000001 036003                    ADLQ    1,DU
        25 000442   200552 756100                    STQ     LENGTH_ID4$+2,,AUTO
        25 000443   200552 630500                    EPPR0   LENGTH_ID4$+2,,AUTO
        25 000444   000000 631400 26                 EPPR1   0
        25 000445   000000 701000 xent               TSX1    Z8AU$TYPE_DESCRIPTOR
        25 000446   000000 011000                    NOP     0

      468    18382    2                                       ID3_DESC) ;
      469    18383    2            IF ID3_DESC.SIZ$ ~= ADDR (NIL)

  18383 25 000447   200360 236100                    LDQ     ID3_DESC+2,,AUTO
        25 000450   000005 116000 26                 CMPQ    5
        25 000451   000463 601000 25                 TNZ     s:18386
        25 000452   200357 236100                    LDQ     ID3_DESC+1,,AUTO
        25 000453   007777 376007                    ANQ     4095,DL
        25 000454   000001 116007                    CMPQ    1,DL
        25 000455   000463 601000 25                 TNZ     s:18386
        25 000456   200314 470500                    LDP0    ID3$,,AUTO
        25 000457   000001 471500                    LDP1    1,,PR0
        25 000460   100000 220100                    LDX0    0,,PR1
        25 000461   000015 100003                    CMPX0   13,DU
        25 000462   000464 600000 25                 TZE     s:18389

      470    18384    2            OR ID3_DESC.DESC.ADSC.N ~= 1
      471    18385    2            OR ID3$ -> LX_ETT_ITEM.ETT$ -> ETT.ID ~= %TRIAD
      472    18386    2            THEN OPTIMIZABLE = FALSE ;

  18386 25 000463   200337 450100                    STZ     OPTIMIZABLE,,AUTO
PL6.E3A0      #001=Z8EA$INSPECT_1 File=Z8EA.:Z8A6TSI                             SAT 08/09/97 11:39 Page:131

      473    18387    2          END ; /* Leading Check */

      474    18388
      475    18389    1          ADD$ = ADDR(ADD) ;

  18389 25 000464   200226 630500                    EPPR0   ADD,,AUTO
        25 000465   200266 450500                    STP0    ADD$,,AUTO

      476    18390    1          SUB$ = ADDR(SUB) ;

  18390 25 000466   200236 631500                    EPPR1   SUB,,AUTO
        25 000467   200345 451500                    STP1    SUB$,,AUTO

      477    18391    1          LENGTH$  = ADDR(LENGTH) ;

  18391 25 000470   200026 633500                    EPPR3   LENGTH,,AUTO
        25 000471   200326 453500                    STP3    LENGTH$,,AUTO

      478    18392    1          SUBSTR$  = ADDR(SUB_STR) ;

  18392 25 000472   200136 634500                    EPPR4   SUB_STR,,AUTO
        25 000473   200346 454500                    STP4    SUBSTR$,,AUTO

      479    18393
      480    18394    1          LENGTH_ID1$ = ADDR (LENGTH_ID1) ;

  18394 25 000474   200036 635500                    EPPR5   LENGTH_ID1,,AUTO
        25 000475   200327 455500                    STP5    LENGTH_ID1$,,AUTO

      481    18395    1          CALL Z8AU$LENGTH (ID1$ -> LX_ETT_ITEM.ETT$, LENGTH_ID1$) ;

  18395 25 000476   200327 636500                    EPPR6   LENGTH_ID1$,,AUTO
        25 000477   200553 456500                    STP6    LENGTH_ID4$+3,,AUTO
        25 000500   200311 236100                    LDQ     ID1$,,AUTO
        25 000501   000001 036003                    ADLQ    1,DU
        25 000502   200552 756100                    STQ     LENGTH_ID4$+2,,AUTO
PL6.E3A0      #001=Z8EA$INSPECT_1 File=Z8EA.:Z8A6TSI                             SAT 08/09/97 11:39 Page:132
        25 000503   200552 630500                    EPPR0   LENGTH_ID4$+2,,AUTO
        25 000504   000000 631400 26                 EPPR1   0
        25 000505   000000 701000 xent               TSX1    Z8AU$LENGTH
        25 000506   000000 011000                    NOP     0

      482    18396
      483    18397    2          IF NOT OPTIMIZABLE THEN DO ;

  18397 25 000507   200337 234100                    SZN     OPTIMIZABLE,,AUTO
        25 000510   000613 604000 25                 TMI     s:18834

      484    18398
      485    18399    2            CALL Z8AT$CREATE_TEMPORARY (%PARA, END_LOOP$) ;

  18399 25 000511   200303 630500                    EPPR0   END_LOOP$,,AUTO
        25 000512   200553 450500                    STP0    LENGTH_ID4$+3,,AUTO
        25 000513   000024 236000 26                 LDQ     20
        25 000514   200552 756100                    STQ     LENGTH_ID4$+2,,AUTO
        25 000515   200552 630500                    EPPR0   LENGTH_ID4$+2,,AUTO
        25 000516   000000 631400 26                 EPPR1   0
        25 000517   000000 701000 xent               TSX1    Z8AT$CREATE_TEMPORARY
        25 000520   000000 011000                    NOP     0

      486    18400
      487    18401    2            POINTER$ = ADDR(POINTER) ;

  18401 25 000521   200016 630500                    EPPR0   POINTER,,AUTO
        25 000522   000001 450400 24                 STP0    POINTER$

      488    18402                 %INIT_LX_ETT_ITEM (@POINTER = POINTER$, @TYPE = %TYI) ;

  18404 25 000523   000004 220003                    LDX0    4,DU
        25 000524   000000 740100                    STX0    0,,PR0

  18405 25 000525   000000 221003                    LDX1    0,DU
        25 000526   000001 470400 24                 LDP0    POINTER$
        25 000527   000000 441100                    SXL1    0,,PR0
PL6.E3A0      #001=Z8EA$INSPECT_1 File=Z8EA.:Z8A6TSI                             SAT 08/09/97 11:39 Page:133

  18406 25 000530   000001 235007                    LDA     1,DL
        25 000531   000001 470400 24                 LDP0    POINTER$
        25 000532   000004 755100                    STA     4,,PR0

  18407 25 000533   000005 236000 26                 LDQ     5
        25 000534   000007 756100                    STQ     7,,PR0

  18408 25 000535   000001 756100                    STQ     1,,PR0

  18409 25 000536   000005 236000 26                 LDQ     5
        25 000537   000001 470400 24                 LDP0    POINTER$
        25 000540   000002 756100                    STQ     2,,PR0

  18411 25 000541   000133 235000 xsym               LDA     COMCOM+91
        25 000542   000005 755100                    STA     5,,PR0

  18412 25 000543   000134 235000 xsym               LDA     COMCOM+92
        25 000544   000006 755100                    STA     6,,PR0

      489    18424    2            CALL Z8AT$CREATE_TEMP_WITH_BASE (%SCALAR, POINTER$ -> LX_ETT_ITEM.ETT$) ;

  18424 25 000545   000001 236000 24                 LDQ     POINTER$
        25 000546   000001 036003                    ADLQ    1,DU
        25 000547   000026 235000 26                 LDA     22
        25 000550   200552 757100                    STAQ    LENGTH_ID4$+2,,AUTO
        25 000551   200552 630500                    EPPR0   LENGTH_ID4$+2,,AUTO
        25 000552   000000 631400 26                 EPPR1   0
        25 000553   000000 701000 xent               TSX1    Z8AT$CREATE_TEMP_WITH_BASE
        25 000554   000000 011000                    NOP     0

      490    18425
      491    18426                 /* POINTER = 0 */
      492    18427
      493    18428                 %NEW_ILL (@ID  = %MVII,
      494    18429                           @LOP = "POINTER$ -> LX_ETT_ITEM.ETT$",
      495    18430                           @ROP = COMCOM.VALUE_0) ;
PL6.E3A0      #001=Z8EA$INSPECT_1 File=Z8EA.:Z8A6TSI                             SAT 08/09/97 11:39 Page:134

  18743 25 000555   000031 236000 26                 LDQ     25
        25 000556   200552 756100                    STQ     LENGTH_ID4$+2,,AUTO
        25 000557   000001 236000 24                 LDQ     POINTER$
        25 000560   000001 036003                    ADLQ    1,DU
        25 000561   200557 756100                    STQ     LENGTH_ID4$+7,,AUTO
        25 000562   200552 630500                    EPPR0   LENGTH_ID4$+2,,AUTO
        25 000563   200556 450500                    STP0    LENGTH_ID4$+6,,AUTO
        25 000564   000032 237000 26                 LDAQ    26
        25 000565   200554 757100                    STAQ    LENGTH_ID4$+4,,AUTO
        25 000566   000002 236000 26                 LDQ     2
        25 000567   200553 756100                    STQ     LENGTH_ID4$+3,,AUTO
        25 000570   200553 630500                    EPPR0   LENGTH_ID4$+3,,AUTO
        25 000571   000027 631400 26                 EPPR1   23
        25 000572   000000 701000 xent               TSX1    Z8AN$NEW_ILL1
        25 000573   000000 011000                    NOP     0

  18746 25 000574   000001 470400 24                 LDP0    POINTER$
        25 000575   000001 236100                    LDQ     1,,PR0
        25 000576   000000 471400 1                  LDP1    ILL$
        25 000577   100001 756100                    STQ     1,,PR1

  18747 25 000600   000124 236000 xsym               LDQ     COMCOM+84
        25 000601   100002 756100                    STQ     2,,PR1

      496    18809
      497    18810                 /* DO WHILE (POINTER < LENGTHC (id-1)) */
      498    18811
      499    18812                 /* (1) Save O1COM.ILS_LIST
      500    18813                    (2) Set O1COM.ILS_LIST to nil
      501    18814                    (3) Create body of loop
      502    18815                    (4) Save O1COM.ILS_LIST (now the body)
      503    18816                    (5) Restore O1COM.ILS_LIST
      504    18817                    (6) Call Z8EQ$CREATE$DO_WHILE (condition, body)
      505    18818                 */
      506    18819
      507    18820    2            SAVED_ILS_LIST = O1COM.ILS_LIST ;
PL6.E3A0      #001=Z8EA$INSPECT_1 File=Z8EA.:Z8A6TSI                             SAT 08/09/97 11:39 Page:135

  18820 25 000602   000100 100400                    MLR     fill='000'O
        25 000603   000016 000040 xsym               ADSC9   O1COM+14                 cn=0,n=32
        25 000604   200366 000040                    ADSC9   SAVED_ILS_LIST,,AUTO     cn=0,n=32

      508    18821                 %INIT_ILS_LIST (@POINTER = "ADDR(O1COM.ILS_LIST)") ;

  18823 25 000605   000007 220003                    LDX0    7,DU
        25 000606   000016 740000 xsym               STX0    O1COM+14

  18824 25 000607   000005 236000 26                 LDQ     5
        25 000610   000017 756000 xsym               STQ     O1COM+15

  18825 25 000611   000020 756000 xsym               STQ     O1COM+16

  18826 25 000612   000025 756000 xsym               STQ     O1COM+21

      509    18829
      510    18830    2          END ; /* Not optimizable */

      511    18831
      512    18832               /* DO Body */
      513    18833
      514    18834    1          LX_LIST$ = INSPECT$ -> INSPECT_1_STMT.INSPECT_1$ ;

  18834 25 000613   200003 470500                    LDP0    @INSPECT$,,AUTO
        25 000614   000000 471500                    LDP1    0,,PR0
        25 000615   100003 236100                    LDQ     3,,PR1
        25 000616   200333 756100                    STQ     LX_LIST$,,AUTO

      515    18835    1          ID2$ = LX_LIST$ -> LX_LIST.HEAD$ ;

  18835 25 000617   200333 473500                    LDP3    LX_LIST$,,AUTO
        25 000620   300004 236100                    LDQ     4,,PR3
        25 000621   200313 756100                    STQ     ID2$,,AUTO

      516    18836    1          LX_LIST$ = LX_LIST$ -> LX_LIST.TAIL$ ;
PL6.E3A0      #001=Z8EA$INSPECT_1 File=Z8EA.:Z8A6TSI                             SAT 08/09/97 11:39 Page:136

  18836 25 000622   300001 236100                    LDQ     1,,PR3
        25 000623   200333 756100                    STQ     LX_LIST$,,AUTO

      517    18837    1          FOR$ = LX_LIST$ -> LX_LIST.HEAD$ ;

  18837 25 000624   200333 471500                    LDP1    LX_LIST$,,AUTO
        25 000625   100004 236100                    LDQ     4,,PR1
        25 000626   200306 756100                    STQ     FOR$,,AUTO

      518    18838
      519    18839    2          DO WHILE (FOR$ ~= ADDR(NIL)) ;

  18839 25 000627   002646 710000 25                 TRA     s:27279

      520    18840
      521    18841    2            CLAUSE_TYPE = FOR$ -> LX_LIST.HEAD$ -> LX_TERMINAL.SYMBOL ;

  18841 25 000630   200306 470500                    LDP0    FOR$,,AUTO
        25 000631   000004 471500                    LDP1    4,,PR0
        25 000632   100003 235100                    LDA     3,,PR1
        25 000633   200276 755100                    STA     CLAUSE_TYPE,,AUTO

      522    18842
      523    18843        %EJECT;
PL6.E3A0      #001=Z8EA$INSPECT_1 File=Z8EA.:Z8A6TSI                             SAT 08/09/97 11:39 Page:137
      524    18844                 /*=============================================*/
      525    18845                 /*V* INSPECT_TALLYING_PASS_3_CHARACTERS_CLAUSE */
      526    18846                 /*=============================================*/
      527    18847
      528    18848    3            IF CLAUSE_TYPE = %RSV_WRD_CHARACTERS THEN DO ; /* CHARACTERS */

  18848 25 000634   000120 115007                    CMPA    80,DL
        25 000635   001444 601000 25                 TNZ     s:22510

      529    18849
      530    18850    3              CALL FIND_BEFORE_AFTER_INDEXES (FOR$ -> LX_LIST.HEAD$

  18850 25 000636   000004 471500                    LDP1    4,,PR0
        25 000637   200267 633500                    EPPR3   AFTER$,,AUTO
        25 000640   200421 453500                    STP3    @LINK$+1,,AUTO
        25 000641   200273 634500                    EPPR4   BEFORE$,,AUTO
        25 000642   200420 454500                    STP4    @ID$+1,,AUTO
        25 000643   100007 635500                    EPPR5   7,,PR1
        25 000644   200417 455500                    STP5    CONVERSION_ILS_LIST+9,,AUTO
        25 000645   012344 701000 25                 TSX1    FIND_BEFORE_AFTER_INDEXES
        25 000646   000000 011000                    NOP     0

      531    18851    3                                                   -> LX_TERMINAL.LINK,
      532    18852    3                                              BEFORE$,
      533    18853    3                                              AFTER$) ;
      534    18854
      535    18855    4              IF OPTIMIZABLE THEN DO ;

  18855 25 000647   200337 234100                    SZN     OPTIMIZABLE,,AUTO
        25 000650   001125 605000 25                 TPL     s:20481

      536    18856
      537    18857    5                IF AFTER$ = ADDR(NIL) THEN DO ;

  18857 25 000651   200267 236100                    LDQ     AFTER$,,AUTO
        25 000652   000005 116000 26                 CMPQ    5
        25 000653   000735 601000 25                 TNZ     s:19641
PL6.E3A0      #001=Z8EA$INSPECT_1 File=Z8EA.:Z8A6TSI                             SAT 08/09/97 11:39 Page:138

      538    18858
      539    18859    6                  IF BEFORE$ = ADDR(NIL) THEN DO ;

  18859 25 000654   200273 236100                    LDQ     BEFORE$,,AUTO
        25 000655   000005 116000 26                 CMPQ    5
        25 000656   000706 601000 25                 TNZ     s:19566

      540    18860
      541    18861                         /* ADD LENGTH (ID1) TO ID2 */
      542    18862
      543    18863                         %NEW_ILL (@ID  = %AD2I,
      544    18864                                   @LOP = ID2$ -> LX_ETT_ITEM.ETT$,
      545    18865                                   @ROP = LENGTH_ID1$ -> LX_ETT_ITEM.ETT$) ;

  19178 25 000657   000031 236000 26                 LDQ     25
        25 000660   200552 756100                    STQ     LENGTH_ID4$+2,,AUTO
        25 000661   200313 236100                    LDQ     ID2$,,AUTO
        25 000662   000001 036003                    ADLQ    1,DU
        25 000663   200557 756100                    STQ     LENGTH_ID4$+7,,AUTO
        25 000664   200552 630500                    EPPR0   LENGTH_ID4$+2,,AUTO
        25 000665   200556 450500                    STP0    LENGTH_ID4$+6,,AUTO
        25 000666   000036 237000 26                 LDAQ    30
        25 000667   200554 757100                    STAQ    LENGTH_ID4$+4,,AUTO
        25 000670   000002 236000 26                 LDQ     2
        25 000671   200553 756100                    STQ     LENGTH_ID4$+3,,AUTO
        25 000672   200553 630500                    EPPR0   LENGTH_ID4$+3,,AUTO
        25 000673   000027 631400 26                 EPPR1   23
        25 000674   000000 701000 xent               TSX1    Z8AN$NEW_ILL1
        25 000675   000000 011000                    NOP     0

  19181 25 000676   200313 470500                    LDP0    ID2$,,AUTO
        25 000677   000001 236100                    LDQ     1,,PR0
        25 000700   000000 471400 1                  LDP1    ILL$
        25 000701   100001 756100                    STQ     1,,PR1

  19182 25 000702   200327 470500                    LDP0    LENGTH_ID1$,,AUTO
PL6.E3A0      #001=Z8EA$INSPECT_1 File=Z8EA.:Z8A6TSI                             SAT 08/09/97 11:39 Page:139
        25 000703   000001 236100                    LDQ     1,,PR0
        25 000704   100002 756100                    STQ     2,,PR1

      546    19244
      547    19245    6                  END ; /* No before clause */

  19245 25 000705   002643 710000 25                 TRA     s:27277

      548    19246
      549    19247    6                  ELSE DO ; /* CHARACTERS, BEFORE, no AFTER */

      550    19248
      551    19249                         /* ADD BEFORE$ TO ID2 */
      552    19250
      553    19251                         %NEW_ILL (@ID  = %AD2I,
      554    19252                                   @LOP = ID2$ -> LX_ETT_ITEM.ETT$,
      555    19253                                   @ROP = BEFORE$ -> LX_ETT_ITEM.ETT$) ;

  19566 25 000706   000031 236000 26                 LDQ     25
        25 000707   200552 756100                    STQ     LENGTH_ID4$+2,,AUTO
        25 000710   200313 236100                    LDQ     ID2$,,AUTO
        25 000711   000001 036003                    ADLQ    1,DU
        25 000712   200557 756100                    STQ     LENGTH_ID4$+7,,AUTO
        25 000713   200552 630500                    EPPR0   LENGTH_ID4$+2,,AUTO
        25 000714   200556 450500                    STP0    LENGTH_ID4$+6,,AUTO
        25 000715   000036 237000 26                 LDAQ    30
        25 000716   200554 757100                    STAQ    LENGTH_ID4$+4,,AUTO
        25 000717   000002 236000 26                 LDQ     2
        25 000720   200553 756100                    STQ     LENGTH_ID4$+3,,AUTO
        25 000721   200553 630500                    EPPR0   LENGTH_ID4$+3,,AUTO
        25 000722   000027 631400 26                 EPPR1   23
        25 000723   000000 701000 xent               TSX1    Z8AN$NEW_ILL1
        25 000724   000000 011000                    NOP     0

  19569 25 000725   200313 470500                    LDP0    ID2$,,AUTO
        25 000726   000001 236100                    LDQ     1,,PR0
        25 000727   000000 471400 1                  LDP1    ILL$
PL6.E3A0      #001=Z8EA$INSPECT_1 File=Z8EA.:Z8A6TSI                             SAT 08/09/97 11:39 Page:140
        25 000730   100001 756100                    STQ     1,,PR1

  19570 25 000731   200273 470500                    LDP0    BEFORE$,,AUTO
        25 000732   000001 236100                    LDQ     1,,PR0
        25 000733   100002 756100                    STQ     2,,PR1

      556    19632
      557    19633    6                  END ; /* BEFORE */

      558    19634
      559    19635    5                END ; /* NO AFTER */

  19635 25 000734   002643 710000 25                 TRA     s:27277

      560    19636
      561    19637    5                ELSE DO ; /* AFTER */

      562    19638
      563    19639                       /* Use length(id1) instead of before if no before */
      564    19640
      565    19641    5                  IF BEFORE$ = ADDR(NIL)

  19641 25 000735   200273 236100                    LDQ     BEFORE$,,AUTO
        25 000736   000005 116000 26                 CMPQ    5
        25 000737   000742 601000 25                 TNZ     s:19658

      566    19642    5                  THEN BEFORE$ = LENGTH_ID1$ ;

  19642 25 000740   200327 236100                    LDQ     LENGTH_ID1$,,AUTO
        25 000741   200273 756100                    STQ     BEFORE$,,AUTO

      567    19643
      568    19644                       /* IF AFTER$ < BEFORE$ THEN
      569    19645                             ADD BEFORE$ - AFTER$ TO ID2
      570    19646                       */
      571    19647
      572    19648                       %IF_THEN_DO (@LOP = AFTER$,
PL6.E3A0      #001=Z8EA$INSPECT_1 File=Z8EA.:Z8A6TSI                             SAT 08/09/97 11:39 Page:141
      573    19649                                    @REL = %OP_LESS_THAN,
      574    19650                                    @ROP = BEFORE$,
      575    19651                                    @LAB = END_IF$) ;

  19658 25 000742   200176 630500                    EPPR0   COMPARISON,,AUTO
        25 000743   200277 450500                    STP0    COMPARISON$,,AUTO

  19666 25 000744   000005 220003                    LDX0    5,DU
        25 000745   000000 740100                    STX0    0,,PR0

  19667 25 000746   000000 221003                    LDX1    0,DU
        25 000747   200277 470500                    LDP0    COMPARISON$,,AUTO
        25 000750   000000 441100                    SXL1    0,,PR0

  19674 25 000751   200267 470500                    LDP0    AFTER$,,AUTO
        25 000752   200277 471500                    LDP1    COMPARISON$,,AUTO
        25 000753   000005 235100                    LDA     5,,PR0
        25 000754   100005 755100                    STA     5,,PR1

  19675 25 000755   200267 470500                    LDP0    AFTER$,,AUTO
        25 000756   200277 471500                    LDP1    COMPARISON$,,AUTO
        25 000757   000006 235100                    LDA     6,,PR0
        25 000760   100006 755100                    STA     6,,PR1

  19676 25 000761   200273 236100                    LDQ     BEFORE$,,AUTO
        25 000762   200277 470500                    LDP0    COMPARISON$,,AUTO
        25 000763   000002 756100                    STQ     2,,PR0

  19677 25 000764   200267 236100                    LDQ     AFTER$,,AUTO
        25 000765   200277 470500                    LDP0    COMPARISON$,,AUTO
        25 000766   000001 756100                    STQ     1,,PR0

  19678 25 000767   000026 235007                    LDA     22,DL
        25 000770   200277 470500                    LDP0    COMPARISON$,,AUTO
        25 000771   000003 755100                    STA     3,,PR0

  19679 25 000772   000005 236000 26                 LDQ     5
PL6.E3A0      #001=Z8EA$INSPECT_1 File=Z8EA.:Z8A6TSI                             SAT 08/09/97 11:39 Page:142
        25 000773   200277 470500                    LDP0    COMPARISON$,,AUTO
        25 000774   000007 756100                    STQ     7,,PR0

  19682 25 000775   200302 630500                    EPPR0   END_IF$,,AUTO
        25 000776   200553 450500                    STP0    LENGTH_ID4$+3,,AUTO
        25 000777   000024 236000 26                 LDQ     20
        25 001000   200552 756100                    STQ     LENGTH_ID4$+2,,AUTO
        25 001001   200552 630500                    EPPR0   LENGTH_ID4$+2,,AUTO
        25 001002   000000 631400 26                 EPPR1   0
        25 001003   000000 701000 xent               TSX1    Z8AT$CREATE_TEMPORARY
        25 001004   000000 011000                    NOP     0

  19683 25 001005   200277 630500                    EPPR0   COMPARISON$,,AUTO
        25 001006   200553 450500                    STP0    LENGTH_ID4$+3,,AUTO
        25 001007   200302 631500                    EPPR1   END_IF$,,AUTO
        25 001010   200552 451500                    STP1    LENGTH_ID4$+2,,AUTO
        25 001011   200552 630500                    EPPR0   LENGTH_ID4$+2,,AUTO
        25 001012   000000 631400 26                 EPPR1   0
        25 001013   000000 701000 xent               TSX1    Z8EK$BRANCH_FALSE
        25 001014   000000 011000                    NOP     0

      576    19686
      577    19687                       %INIT_BINARY_OP (@POINTER = SUB$,
      578    19688                                        @LOP$    = BEFORE$,
      579    19689                                        @OP      = %OP_BINARY_MINUS,
      580    19690                                        @ROP$    = AFTER$,
      581    19691                                        @LINE    = "ID1$ -> LX_ETT_ITEM.LINE",
      582    19692                                        @COLUMN  = "ID1$ -> LX_ETT_ITEM.COLUMN") ;

  19694 25 001015   000005 220003                    LDX0    5,DU
        25 001016   200345 470500                    LDP0    SUB$,,AUTO
        25 001017   000000 740100                    STX0    0,,PR0

  19695 25 001020   000000 221003                    LDX1    0,DU
        25 001021   200345 470500                    LDP0    SUB$,,AUTO
        25 001022   000000 441100                    SXL1    0,,PR0

PL6.E3A0      #001=Z8EA$INSPECT_1 File=Z8EA.:Z8A6TSI                             SAT 08/09/97 11:39 Page:143
  19702 25 001023   200311 470500                    LDP0    ID1$,,AUTO
        25 001024   200345 471500                    LDP1    SUB$,,AUTO
        25 001025   000005 235100                    LDA     5,,PR0
        25 001026   100005 755100                    STA     5,,PR1

  19703 25 001027   200311 470500                    LDP0    ID1$,,AUTO
        25 001030   200345 471500                    LDP1    SUB$,,AUTO
        25 001031   000006 235100                    LDA     6,,PR0
        25 001032   100006 755100                    STA     6,,PR1

  19704 25 001033   200267 236100                    LDQ     AFTER$,,AUTO
        25 001034   200345 470500                    LDP0    SUB$,,AUTO
        25 001035   000002 756100                    STQ     2,,PR0

  19705 25 001036   200273 236100                    LDQ     BEFORE$,,AUTO
        25 001037   200345 470500                    LDP0    SUB$,,AUTO
        25 001040   000001 756100                    STQ     1,,PR0

  19706 25 001041   000021 235007                    LDA     17,DL
        25 001042   200345 470500                    LDP0    SUB$,,AUTO
        25 001043   000003 755100                    STA     3,,PR0

  19707 25 001044   000005 236000 26                 LDQ     5
        25 001045   200345 470500                    LDP0    SUB$,,AUTO
        25 001046   000007 756100                    STQ     7,,PR0

      583    19710
      584    19711    5                  CALL Z8E5$MATH_PACK (SUB$, SUB$) ;

  19711 25 001047   200345 630500                    EPPR0   SUB$,,AUTO
        25 001050   200553 450500                    STP0    LENGTH_ID4$+3,,AUTO
        25 001051   200345 631500                    EPPR1   SUB$,,AUTO
        25 001052   200552 451500                    STP1    LENGTH_ID4$+2,,AUTO
        25 001053   200552 630500                    EPPR0   LENGTH_ID4$+2,,AUTO
        25 001054   000000 631400 26                 EPPR1   0
        25 001055   000000 701000 xent               TSX1    Z8E5$MATH_PACK
        25 001056   000000 011000                    NOP     0
PL6.E3A0      #001=Z8EA$INSPECT_1 File=Z8EA.:Z8A6TSI                             SAT 08/09/97 11:39 Page:144

      585    19712
      586    19713                       %NEW_ILL (@ID  = %AD2I,
      587    19714                                 @LOP = ID2$ -> LX_ETT_ITEM.ETT$,
      588    19715                                 @ROP = SUB$ -> LX_ETT_ITEM.ETT$) ;

  20028 25 001057   000031 236000 26                 LDQ     25
        25 001060   200552 756100                    STQ     LENGTH_ID4$+2,,AUTO
        25 001061   200313 236100                    LDQ     ID2$,,AUTO
        25 001062   000001 036003                    ADLQ    1,DU
        25 001063   200557 756100                    STQ     LENGTH_ID4$+7,,AUTO
        25 001064   200552 630500                    EPPR0   LENGTH_ID4$+2,,AUTO
        25 001065   200556 450500                    STP0    LENGTH_ID4$+6,,AUTO
        25 001066   000036 237000 26                 LDAQ    30
        25 001067   200554 757100                    STAQ    LENGTH_ID4$+4,,AUTO
        25 001070   000002 236000 26                 LDQ     2
        25 001071   200553 756100                    STQ     LENGTH_ID4$+3,,AUTO
        25 001072   200553 630500                    EPPR0   LENGTH_ID4$+3,,AUTO
        25 001073   000027 631400 26                 EPPR1   23
        25 001074   000000 701000 xent               TSX1    Z8AN$NEW_ILL1
        25 001075   000000 011000                    NOP     0

  20031 25 001076   200313 470500                    LDP0    ID2$,,AUTO
        25 001077   000001 236100                    LDQ     1,,PR0
        25 001100   000000 471400 1                  LDP1    ILL$
        25 001101   100001 756100                    STQ     1,,PR1

  20032 25 001102   200345 470500                    LDP0    SUB$,,AUTO
        25 001103   000001 236100                    LDQ     1,,PR0
        25 001104   100002 756100                    STQ     2,,PR1

      589    20094
      590    20095                       %NEW_ILL (@ID = %DEFLB, @LOP = END_IF$) ;

  20416 25 001105   000031 236000 26                 LDQ     25
        25 001106   200552 756100                    STQ     LENGTH_ID4$+2,,AUTO
        25 001107   200552 630500                    EPPR0   LENGTH_ID4$+2,,AUTO
PL6.E3A0      #001=Z8EA$INSPECT_1 File=Z8EA.:Z8A6TSI                             SAT 08/09/97 11:39 Page:145
        25 001110   200557 450500                    STP0    LENGTH_ID4$+7,,AUTO
        25 001111   000033 236000 26                 LDQ     27
        25 001112   200556 756100                    STQ     LENGTH_ID4$+6,,AUTO
        25 001113   000042 237000 26                 LDAQ    34
        25 001114   200554 757100                    STAQ    LENGTH_ID4$+4,,AUTO
        25 001115   200554 630500                    EPPR0   LENGTH_ID4$+4,,AUTO
        25 001116   000010 631400 26                 EPPR1   8
        25 001117   000000 701000 xent               TSX1    Z8AN$NEW_ILL
        25 001120   000000 011000                    NOP     0

  20425 25 001121   200302 236100                    LDQ     END_IF$,,AUTO
        25 001122   000000 470400 1                  LDP0    ILL$
        25 001123   000001 756100                    STQ     1,,PR0

      591    20474
      592    20475    5                END ; /* AFTER */

      593    20476
      594    20477    4              END ; /* OPTIMIZABLE */

  20477 25 001124   002643 710000 25                 TRA     s:27277

      595    20478
      596    20479    4              ELSE DO ; /* NOT OPTIMIZABLE */

      597    20480
      598    20481    5                IF AFTER$ ~= ADDR(NIL) THEN DO ;

  20481 25 001125   200267 236100                    LDQ     AFTER$,,AUTO
        25 001126   000005 116000 26                 CMPQ    5
        25 001127   001202 600000 25                 TZE     s:20524

      599    20482
      600    20483                       %IF_THEN_DO (@LOP = POINTER$,
      601    20484                                    @REL = %OP_GREATER_THAN_OR_EQUAL,
      602    20485                                    @ROP = AFTER$,
      603    20486                                    @LAB = END_AFTER_IF$) ;
PL6.E3A0      #001=Z8EA$INSPECT_1 File=Z8EA.:Z8A6TSI                             SAT 08/09/97 11:39 Page:146

  20493 25 001130   200176 630500                    EPPR0   COMPARISON,,AUTO
        25 001131   200277 450500                    STP0    COMPARISON$,,AUTO

  20501 25 001132   000005 220003                    LDX0    5,DU
        25 001133   000000 740100                    STX0    0,,PR0

  20502 25 001134   000000 221003                    LDX1    0,DU
        25 001135   200277 470500                    LDP0    COMPARISON$,,AUTO
        25 001136   000000 441100                    SXL1    0,,PR0

  20509 25 001137   000001 470400 24                 LDP0    POINTER$
        25 001140   200277 471500                    LDP1    COMPARISON$,,AUTO
        25 001141   000005 235100                    LDA     5,,PR0
        25 001142   100005 755100                    STA     5,,PR1

  20510 25 001143   200277 471500                    LDP1    COMPARISON$,,AUTO
        25 001144   000006 235100                    LDA     6,,PR0
        25 001145   100006 755100                    STA     6,,PR1

  20511 25 001146   200267 236100                    LDQ     AFTER$,,AUTO
        25 001147   200277 471500                    LDP1    COMPARISON$,,AUTO
        25 001150   100002 756100                    STQ     2,,PR1

  20512 25 001151   000001 236000 24                 LDQ     POINTER$
        25 001152   200277 471500                    LDP1    COMPARISON$,,AUTO
        25 001153   100001 756100                    STQ     1,,PR1

  20513 25 001154   000033 235007                    LDA     27,DL
        25 001155   200277 470500                    LDP0    COMPARISON$,,AUTO
        25 001156   000003 755100                    STA     3,,PR0

  20514 25 001157   000005 236000 26                 LDQ     5
        25 001160   200277 470500                    LDP0    COMPARISON$,,AUTO
        25 001161   000007 756100                    STQ     7,,PR0

  20517 25 001162   200300 630500                    EPPR0   END_AFTER_IF$,,AUTO
PL6.E3A0      #001=Z8EA$INSPECT_1 File=Z8EA.:Z8A6TSI                             SAT 08/09/97 11:39 Page:147
        25 001163   200553 450500                    STP0    LENGTH_ID4$+3,,AUTO
        25 001164   000024 236000 26                 LDQ     20
        25 001165   200552 756100                    STQ     LENGTH_ID4$+2,,AUTO
        25 001166   200552 630500                    EPPR0   LENGTH_ID4$+2,,AUTO
        25 001167   000000 631400 26                 EPPR1   0
        25 001170   000000 701000 xent               TSX1    Z8AT$CREATE_TEMPORARY
        25 001171   000000 011000                    NOP     0

  20518 25 001172   200277 630500                    EPPR0   COMPARISON$,,AUTO
        25 001173   200553 450500                    STP0    LENGTH_ID4$+3,,AUTO
        25 001174   200300 631500                    EPPR1   END_AFTER_IF$,,AUTO
        25 001175   200552 451500                    STP1    LENGTH_ID4$+2,,AUTO
        25 001176   200552 630500                    EPPR0   LENGTH_ID4$+2,,AUTO
        25 001177   000000 631400 26                 EPPR1   0
        25 001200   000000 701000 xent               TSX1    Z8EK$BRANCH_FALSE
        25 001201   000000 011000                    NOP     0

      604    20521
      605    20522    5                END ;

      606    20523
      607    20524    5                IF BEFORE$ ~= ADDR (NIL) THEN DO ;

  20524 25 001202   200273 236100                    LDQ     BEFORE$,,AUTO
        25 001203   000005 116000 26                 CMPQ    5
        25 001204   001257 600000 25                 TZE     s:20884

      608    20525
      609    20526                       %IF_THEN_DO (@LOP = POINTER$,
      610    20527                                    @REL = %OP_LESS_THAN,
      611    20528                                    @ROP = BEFORE$,
      612    20529                                    @LAB = END_BEFORE_IF$) ;

  20536 25 001205   200176 630500                    EPPR0   COMPARISON,,AUTO
        25 001206   200277 450500                    STP0    COMPARISON$,,AUTO

  20544 25 001207   000005 220003                    LDX0    5,DU
PL6.E3A0      #001=Z8EA$INSPECT_1 File=Z8EA.:Z8A6TSI                             SAT 08/09/97 11:39 Page:148
        25 001210   000000 740100                    STX0    0,,PR0

  20545 25 001211   000000 221003                    LDX1    0,DU
        25 001212   200277 470500                    LDP0    COMPARISON$,,AUTO
        25 001213   000000 441100                    SXL1    0,,PR0

  20552 25 001214   000001 470400 24                 LDP0    POINTER$
        25 001215   200277 471500                    LDP1    COMPARISON$,,AUTO
        25 001216   000005 235100                    LDA     5,,PR0
        25 001217   100005 755100                    STA     5,,PR1

  20553 25 001220   200277 471500                    LDP1    COMPARISON$,,AUTO
        25 001221   000006 235100                    LDA     6,,PR0
        25 001222   100006 755100                    STA     6,,PR1

  20554 25 001223   200273 236100                    LDQ     BEFORE$,,AUTO
        25 001224   200277 471500                    LDP1    COMPARISON$,,AUTO
        25 001225   100002 756100                    STQ     2,,PR1

  20555 25 001226   000001 236000 24                 LDQ     POINTER$
        25 001227   200277 471500                    LDP1    COMPARISON$,,AUTO
        25 001230   100001 756100                    STQ     1,,PR1

  20556 25 001231   000026 235007                    LDA     22,DL
        25 001232   200277 470500                    LDP0    COMPARISON$,,AUTO
        25 001233   000003 755100                    STA     3,,PR0

  20557 25 001234   000005 236000 26                 LDQ     5
        25 001235   200277 470500                    LDP0    COMPARISON$,,AUTO
        25 001236   000007 756100                    STQ     7,,PR0

  20560 25 001237   200301 630500                    EPPR0   END_BEFORE_IF$,,AUTO
        25 001240   200553 450500                    STP0    LENGTH_ID4$+3,,AUTO
        25 001241   000024 236000 26                 LDQ     20
        25 001242   200552 756100                    STQ     LENGTH_ID4$+2,,AUTO
        25 001243   200552 630500                    EPPR0   LENGTH_ID4$+2,,AUTO
        25 001244   000000 631400 26                 EPPR1   0
PL6.E3A0      #001=Z8EA$INSPECT_1 File=Z8EA.:Z8A6TSI                             SAT 08/09/97 11:39 Page:149
        25 001245   000000 701000 xent               TSX1    Z8AT$CREATE_TEMPORARY
        25 001246   000000 011000                    NOP     0

  20561 25 001247   200277 630500                    EPPR0   COMPARISON$,,AUTO
        25 001250   200553 450500                    STP0    LENGTH_ID4$+3,,AUTO
        25 001251   200301 631500                    EPPR1   END_BEFORE_IF$,,AUTO
        25 001252   200552 451500                    STP1    LENGTH_ID4$+2,,AUTO
        25 001253   200552 630500                    EPPR0   LENGTH_ID4$+2,,AUTO
        25 001254   000000 631400 26                 EPPR1   0
        25 001255   000000 701000 xent               TSX1    Z8EK$BRANCH_FALSE
        25 001256   000000 011000                    NOP     0

      613    20564
      614    20565    5                END ;

      615    20566
      616    20567                /*  Add 1 to ID1  */
      617    20568
      618    20569                     %NEW_ILL( @ID  = %AD2I,
      619    20570                               @LOP = ID2$ -> LX_ETT_ITEM.ETT$,
      620    20571                               @ROP = ONE$ );

  20884 25 001257   000031 236000 26                 LDQ     25
        25 001260   200552 756100                    STQ     LENGTH_ID4$+2,,AUTO
        25 001261   200313 236100                    LDQ     ID2$,,AUTO
        25 001262   000001 036003                    ADLQ    1,DU
        25 001263   200557 756100                    STQ     LENGTH_ID4$+7,,AUTO
        25 001264   200552 630500                    EPPR0   LENGTH_ID4$+2,,AUTO
        25 001265   200556 450500                    STP0    LENGTH_ID4$+6,,AUTO
        25 001266   000036 237000 26                 LDAQ    30
        25 001267   200554 757100                    STAQ    LENGTH_ID4$+4,,AUTO
        25 001270   000002 236000 26                 LDQ     2
        25 001271   200553 756100                    STQ     LENGTH_ID4$+3,,AUTO
        25 001272   200553 630500                    EPPR0   LENGTH_ID4$+3,,AUTO
        25 001273   000027 631400 26                 EPPR1   23
        25 001274   000000 701000 xent               TSX1    Z8AN$NEW_ILL1
        25 001275   000000 011000                    NOP     0
PL6.E3A0      #001=Z8EA$INSPECT_1 File=Z8EA.:Z8A6TSI                             SAT 08/09/97 11:39 Page:150

  20887 25 001276   200313 470500                    LDP0    ID2$,,AUTO
        25 001277   000001 236100                    LDQ     1,,PR0
        25 001300   000000 471400 1                  LDP1    ILL$
        25 001301   100001 756100                    STQ     1,,PR1

  20888 25 001302   200335 236100                    LDQ     ONE$,,AUTO
        25 001303   100002 756100                    STQ     2,,PR1

      621    20950
      622    20951                     /* If Kanji, Add 2 to pointer, else add 1 */
      623    20952
      624    20953    4                IF ID1_ST$ -> SCALAR.B.KANJI   THEN

  20953 25 001304   200312 470500                    LDP0    ID1_ST$,,AUTO
        25 001305   000003 236100                    LDQ     3,,PR0
        25 001306   001000 316007                    CANQ    512,DL
        25 001307   001336 600000 25                 TZE     s:21657

      625    20954    5                  DO;

      626    20955
      627    20956                         %NEW_ILL( @ID  = %AD2I,
      628    20957                                   @LOP = POINTER$ -> LX_ETT_ITEM.ETT$,
      629    20958                                   @ROP = TWO$ );

  21271 25 001310   000031 236000 26                 LDQ     25
        25 001311   200552 756100                    STQ     LENGTH_ID4$+2,,AUTO
        25 001312   000001 236000 24                 LDQ     POINTER$
        25 001313   000001 036003                    ADLQ    1,DU
        25 001314   200557 756100                    STQ     LENGTH_ID4$+7,,AUTO
        25 001315   200552 633500                    EPPR3   LENGTH_ID4$+2,,AUTO
        25 001316   200556 453500                    STP3    LENGTH_ID4$+6,,AUTO
        25 001317   000036 237000 26                 LDAQ    30
        25 001320   200554 757100                    STAQ    LENGTH_ID4$+4,,AUTO
        25 001321   000002 236000 26                 LDQ     2
        25 001322   200553 756100                    STQ     LENGTH_ID4$+3,,AUTO
PL6.E3A0      #001=Z8EA$INSPECT_1 File=Z8EA.:Z8A6TSI                             SAT 08/09/97 11:39 Page:151
        25 001323   200553 630500                    EPPR0   LENGTH_ID4$+3,,AUTO
        25 001324   000027 631400 26                 EPPR1   23
        25 001325   000000 701000 xent               TSX1    Z8AN$NEW_ILL1
        25 001326   000000 011000                    NOP     0

  21274 25 001327   000001 470400 24                 LDP0    POINTER$
        25 001330   000001 236100                    LDQ     1,,PR0
        25 001331   000000 471400 1                  LDP1    ILL$
        25 001332   100001 756100                    STQ     1,,PR1

  21275 25 001333   200353 236100                    LDQ     TWO$,,AUTO
        25 001334   100002 756100                    STQ     2,,PR1

      630    21337
      631    21338    5                  END;

  21338 25 001335   001363 710000 25                 TRA     s:21728

      632    21339    4                ELSE
      633    21340    5                  DO;

      634    21341
      635    21342                         %NEW_ILL (@ID  = %AD2I,
      636    21343                                   @LOP = POINTER$ -> LX_ETT_ITEM.ETT$,
      637    21344                                   @ROP = ONE$) ;

  21657 25 001336   000031 236000 26                 LDQ     25
        25 001337   200552 756100                    STQ     LENGTH_ID4$+2,,AUTO
        25 001340   000001 236000 24                 LDQ     POINTER$
        25 001341   000001 036003                    ADLQ    1,DU
        25 001342   200557 756100                    STQ     LENGTH_ID4$+7,,AUTO
        25 001343   200552 633500                    EPPR3   LENGTH_ID4$+2,,AUTO
        25 001344   200556 453500                    STP3    LENGTH_ID4$+6,,AUTO
        25 001345   000036 237000 26                 LDAQ    30
        25 001346   200554 757100                    STAQ    LENGTH_ID4$+4,,AUTO
        25 001347   000002 236000 26                 LDQ     2
        25 001350   200553 756100                    STQ     LENGTH_ID4$+3,,AUTO
PL6.E3A0      #001=Z8EA$INSPECT_1 File=Z8EA.:Z8A6TSI                             SAT 08/09/97 11:39 Page:152
        25 001351   200553 630500                    EPPR0   LENGTH_ID4$+3,,AUTO
        25 001352   000027 631400 26                 EPPR1   23
        25 001353   000000 701000 xent               TSX1    Z8AN$NEW_ILL1
        25 001354   000000 011000                    NOP     0

  21660 25 001355   000001 470400 24                 LDP0    POINTER$
        25 001356   000001 236100                    LDQ     1,,PR0
        25 001357   000000 471400 1                  LDP1    ILL$
        25 001360   100001 756100                    STQ     1,,PR1

  21661 25 001361   200335 236100                    LDQ     ONE$,,AUTO
        25 001362   100002 756100                    STQ     2,,PR1

      638    21723
      639    21724    5                  END;

      640    21725
      641    21726                     /* GO TO END_LOOP */
      642    21727
      643    21728    4                CALL Z8EK$BRANCH (END_LOOP$) ;

  21728 25 001363   200303 630500                    EPPR0   END_LOOP$,,AUTO
        25 001364   200552 450500                    STP0    LENGTH_ID4$+2,,AUTO
        25 001365   200552 630500                    EPPR0   LENGTH_ID4$+2,,AUTO
        25 001366   000041 631400 26                 EPPR1   33
        25 001367   000000 701000 xent               TSX1    Z8EK$BRANCH
        25 001370   000000 011000                    NOP     0

      644    21729
      645    21730                     /* END (Pointer <= Before$) */
      646    21731
      647    21732    4                IF BEFORE$ ~= ADDR(NIL) THEN

  21732 25 001371   200273 236100                    LDQ     BEFORE$,,AUTO
        25 001372   000005 116000 26                 CMPQ    5
        25 001373   001413 600000 25                 TZE     s:22115

PL6.E3A0      #001=Z8EA$INSPECT_1 File=Z8EA.:Z8A6TSI                             SAT 08/09/97 11:39 Page:153
      648    21733                       %NEW_ILL (@ID = %DEFLB, @LOP = END_BEFORE_IF$) ;

  22054 25 001374   000031 236000 26                 LDQ     25
        25 001375   200552 756100                    STQ     LENGTH_ID4$+2,,AUTO
        25 001376   200552 630500                    EPPR0   LENGTH_ID4$+2,,AUTO
        25 001377   200557 450500                    STP0    LENGTH_ID4$+7,,AUTO
        25 001400   000033 236000 26                 LDQ     27
        25 001401   200556 756100                    STQ     LENGTH_ID4$+6,,AUTO
        25 001402   000042 237000 26                 LDAQ    34
        25 001403   200554 757100                    STAQ    LENGTH_ID4$+4,,AUTO
        25 001404   200554 630500                    EPPR0   LENGTH_ID4$+4,,AUTO
        25 001405   000010 631400 26                 EPPR1   8
        25 001406   000000 701000 xent               TSX1    Z8AN$NEW_ILL
        25 001407   000000 011000                    NOP     0

  22063 25 001410   200301 236100                    LDQ     END_BEFORE_IF$,,AUTO
        25 001411   000000 470400 1                  LDP0    ILL$
        25 001412   000001 756100                    STQ     1,,PR0

      649    22112
      650    22113                     /* END (Pointer >= After$) */
      651    22114
      652    22115    4                IF AFTER$ ~= ADDR(NIL) THEN

  22115 25 001413   200267 236100                    LDQ     AFTER$,,AUTO
        25 001414   000005 116000 26                 CMPQ    5
        25 001415   001435 600000 25                 TZE     s:22496

      653    22116                       %NEW_ILL (@ID = %DEFLB, @LOP = END_AFTER_IF$) ;

  22437 25 001416   000031 236000 26                 LDQ     25
        25 001417   200552 756100                    STQ     LENGTH_ID4$+2,,AUTO
        25 001420   200552 630500                    EPPR0   LENGTH_ID4$+2,,AUTO
        25 001421   200557 450500                    STP0    LENGTH_ID4$+7,,AUTO
        25 001422   000033 236000 26                 LDQ     27
        25 001423   200556 756100                    STQ     LENGTH_ID4$+6,,AUTO
        25 001424   000042 237000 26                 LDAQ    34
PL6.E3A0      #001=Z8EA$INSPECT_1 File=Z8EA.:Z8A6TSI                             SAT 08/09/97 11:39 Page:154
        25 001425   200554 757100                    STAQ    LENGTH_ID4$+4,,AUTO
        25 001426   200554 630500                    EPPR0   LENGTH_ID4$+4,,AUTO
        25 001427   000010 631400 26                 EPPR1   8
        25 001430   000000 701000 xent               TSX1    Z8AN$NEW_ILL
        25 001431   000000 011000                    NOP     0

  22446 25 001432   200300 236100                    LDQ     END_AFTER_IF$,,AUTO
        25 001433   000000 470400 1                  LDP0    ILL$
        25 001434   000001 756100                    STQ     1,,PR0

      654    22495
      655    22496    4                IF FOR$ -> LX_LIST.COUNT = 3

  22496 25 001435   200306 470500                    LDP0    FOR$,,AUTO
        25 001436   000002 235100                    LDA     2,,PR0
        25 001437   000003 115007                    CMPA    3,DL
        25 001440   002643 601000 25                 TNZ     s:27277

      656    22497    4                THEN ID2$ = FOR$ -> LX_LIST.TAIL$ ;

  22497 25 001441   000001 236100                    LDQ     1,,PR0
        25 001442   200313 756100                    STQ     ID2$,,AUTO

      657    22498
      658    22499    4              END ; /* Not optimizable */

      659    22500
      660    22501    3            END /* CHARACTERS */ ;

  22501 25 001443   002643 710000 25                 TRA     s:27277

      661    22502
      662    22503        %EJECT;
PL6.E3A0      #001=Z8EA$INSPECT_1 File=Z8EA.:Z8A6TSI                             SAT 08/09/97 11:39 Page:155
      663    22504                 /*======================================*/
      664    22505                 /*V* INSPECT_TALLYING_PASS_3_ALL_CLAUSE */
      665    22506                 /*======================================*/
      666    22507
      667    22508    3            ELSE DO ; /* ALL or LEADING */

      668    22509
      669    22510    3              ALL$ = FOR$ -> LX_LIST.HEAD$ -> LX_TERMINAL.LINK -> LX_LIST.HEAD$ ;

  22510 25 001444   000004 471500                    LDP1    4,,PR0
        25 001445   100007 473500                    LDP3    7,,PR1
        25 001446   300004 236100                    LDQ     4,,PR3
        25 001447   200270 756100                    STQ     ALL$,,AUTO

      670    22511
      671    22512    4              DO WHILE (ALL$ ~= ADDR(NIL)) ;

  22512 25 001450   002633 710000 25                 TRA     s:27270

      672    22513
      673    22514    4                ID3$ = ALL$ -> LX_LIST.HEAD$ ;

  22514 25 001451   200270 470500                    LDP0    ALL$,,AUTO
        25 001452   000004 236100                    LDQ     4,,PR0
        25 001453   200314 756100                    STQ     ID3$,,AUTO

      674    22515    4                LENGTH_ID3$ = ADDR (LENGTH_ID3) ;

  22515 25 001454   200046 631500                    EPPR1   LENGTH_ID3,,AUTO
        25 001455   200330 451500                    STP1    LENGTH_ID3$,,AUTO

      675    22516    4                CALL Z8AU$LENGTH (ID3$ -> LX_ETT_ITEM.ETT$, LENGTH_ID3$) ;

  22516 25 001456   200330 633500                    EPPR3   LENGTH_ID3$,,AUTO
        25 001457   200553 453500                    STP3    LENGTH_ID4$+3,,AUTO
        25 001460   000001 036003                    ADLQ    1,DU
        25 001461   200552 756100                    STQ     LENGTH_ID4$+2,,AUTO
PL6.E3A0      #001=Z8EA$INSPECT_1 File=Z8EA.:Z8A6TSI                             SAT 08/09/97 11:39 Page:156
        25 001462   200552 630500                    EPPR0   LENGTH_ID4$+2,,AUTO
        25 001463   000000 631400 26                 EPPR1   0
        25 001464   000000 701000 xent               TSX1    Z8AU$LENGTH
        25 001465   000000 011000                    NOP     0

      676    22517
      677    22518    4                BEFORE_AFTER$ = ALL$ -> LX_LIST.TAIL$ ;

  22518 25 001466   200270 470500                    LDP0    ALL$,,AUTO
        25 001467   000001 236100                    LDQ     1,,PR0
        25 001470   200274 756100                    STQ     BEFORE_AFTER$,,AUTO

      678    22519    4                CALL FIND_BEFORE_AFTER_INDEXES (BEFORE_AFTER$, BEFORE$, AFTER$) ;

  22519 25 001471   200267 631500                    EPPR1   AFTER$,,AUTO
        25 001472   200421 451500                    STP1    @LINK$+1,,AUTO
        25 001473   200273 633500                    EPPR3   BEFORE$,,AUTO
        25 001474   200420 453500                    STP3    @ID$+1,,AUTO
        25 001475   200274 634500                    EPPR4   BEFORE_AFTER$,,AUTO
        25 001476   200417 454500                    STP4    CONVERSION_ILS_LIST+9,,AUTO
        25 001477   012344 701000 25                 TSX1    FIND_BEFORE_AFTER_INDEXES
        25 001500   000000 011000                    NOP     0

      679    22520
      680    22521    5                DO CASE (CLAUSE_TYPE) ;

  22521 25 001501   200276 235100                    LDA     CLAUSE_TYPE,,AUTO
        25 001502   000046 135007                    SBLA    38,DL
        25 001503   000350 115007                    CMPA    232,DL
        25 001504   001506 602005 25                 TNC     s:22521+5,AL
        25 001505   002630 710000 25                 TRA     s:27268
        25 001506   002056 710000 25                 TRA     s:22525
        25 001507   002630 710000 25                 TRA     s:27268
        25 001510   002630 710000 25                 TRA     s:27268
        25 001511   002630 710000 25                 TRA     s:27268
        25 001512   002630 710000 25                 TRA     s:27268
        25 001513   002630 710000 25                 TRA     s:27268
PL6.E3A0      #001=Z8EA$INSPECT_1 File=Z8EA.:Z8A6TSI                             SAT 08/09/97 11:39 Page:157
        25 001514   002630 710000 25                 TRA     s:27268
        25 001515   002630 710000 25                 TRA     s:27268
        25 001516   002630 710000 25                 TRA     s:27268
        25 001517   002630 710000 25                 TRA     s:27268
        25 001520   002630 710000 25                 TRA     s:27268
        25 001521   002630 710000 25                 TRA     s:27268
        25 001522   002630 710000 25                 TRA     s:27268
        25 001523   002630 710000 25                 TRA     s:27268
        25 001524   002630 710000 25                 TRA     s:27268
        25 001525   002630 710000 25                 TRA     s:27268
        25 001526   002630 710000 25                 TRA     s:27268
        25 001527   002630 710000 25                 TRA     s:27268
        25 001530   002630 710000 25                 TRA     s:27268
        25 001531   002630 710000 25                 TRA     s:27268
        25 001532   002630 710000 25                 TRA     s:27268
        25 001533   002630 710000 25                 TRA     s:27268
        25 001534   002630 710000 25                 TRA     s:27268
        25 001535   002630 710000 25                 TRA     s:27268
        25 001536   002630 710000 25                 TRA     s:27268
        25 001537   002630 710000 25                 TRA     s:27268
        25 001540   002630 710000 25                 TRA     s:27268
        25 001541   002630 710000 25                 TRA     s:27268
        25 001542   002630 710000 25                 TRA     s:27268
        25 001543   002630 710000 25                 TRA     s:27268
        25 001544   002630 710000 25                 TRA     s:27268
        25 001545   002630 710000 25                 TRA     s:27268
        25 001546   002630 710000 25                 TRA     s:27268
        25 001547   002630 710000 25                 TRA     s:27268
        25 001550   002630 710000 25                 TRA     s:27268
        25 001551   002630 710000 25                 TRA     s:27268
        25 001552   002630 710000 25                 TRA     s:27268
        25 001553   002630 710000 25                 TRA     s:27268
        25 001554   002630 710000 25                 TRA     s:27268
        25 001555   002630 710000 25                 TRA     s:27268
        25 001556   002630 710000 25                 TRA     s:27268
        25 001557   002630 710000 25                 TRA     s:27268
        25 001560   002630 710000 25                 TRA     s:27268
PL6.E3A0      #001=Z8EA$INSPECT_1 File=Z8EA.:Z8A6TSI                             SAT 08/09/97 11:39 Page:158
        25 001561   002630 710000 25                 TRA     s:27268
        25 001562   002630 710000 25                 TRA     s:27268
        25 001563   002630 710000 25                 TRA     s:27268
        25 001564   002630 710000 25                 TRA     s:27268
        25 001565   002630 710000 25                 TRA     s:27268
        25 001566   002630 710000 25                 TRA     s:27268
        25 001567   002630 710000 25                 TRA     s:27268
        25 001570   002630 710000 25                 TRA     s:27268
        25 001571   002630 710000 25                 TRA     s:27268
        25 001572   002630 710000 25                 TRA     s:27268
        25 001573   002630 710000 25                 TRA     s:27268
        25 001574   002630 710000 25                 TRA     s:27268
        25 001575   002630 710000 25                 TRA     s:27268
        25 001576   002630 710000 25                 TRA     s:27268
        25 001577   002630 710000 25                 TRA     s:27268
        25 001600   002630 710000 25                 TRA     s:27268
        25 001601   002630 710000 25                 TRA     s:27268
        25 001602   002630 710000 25                 TRA     s:27268
        25 001603   002630 710000 25                 TRA     s:27268
        25 001604   002630 710000 25                 TRA     s:27268
        25 001605   002630 710000 25                 TRA     s:27268
        25 001606   002630 710000 25                 TRA     s:27268
        25 001607   002630 710000 25                 TRA     s:27268
        25 001610   002630 710000 25                 TRA     s:27268
        25 001611   002630 710000 25                 TRA     s:27268
        25 001612   002630 710000 25                 TRA     s:27268
        25 001613   002630 710000 25                 TRA     s:27268
        25 001614   002630 710000 25                 TRA     s:27268
        25 001615   002630 710000 25                 TRA     s:27268
        25 001616   002630 710000 25                 TRA     s:27268
        25 001617   002630 710000 25                 TRA     s:27268
        25 001620   002630 710000 25                 TRA     s:27268
        25 001621   002630 710000 25                 TRA     s:27268
        25 001622   002630 710000 25                 TRA     s:27268
        25 001623   002630 710000 25                 TRA     s:27268
        25 001624   002630 710000 25                 TRA     s:27268
        25 001625   002630 710000 25                 TRA     s:27268
PL6.E3A0      #001=Z8EA$INSPECT_1 File=Z8EA.:Z8A6TSI                             SAT 08/09/97 11:39 Page:159
        25 001626   002630 710000 25                 TRA     s:27268
        25 001627   002630 710000 25                 TRA     s:27268
        25 001630   002630 710000 25                 TRA     s:27268
        25 001631   002630 710000 25                 TRA     s:27268
        25 001632   002630 710000 25                 TRA     s:27268
        25 001633   002630 710000 25                 TRA     s:27268
        25 001634   002630 710000 25                 TRA     s:27268
        25 001635   002630 710000 25                 TRA     s:27268
        25 001636   002630 710000 25                 TRA     s:27268
        25 001637   002630 710000 25                 TRA     s:27268
        25 001640   002630 710000 25                 TRA     s:27268
        25 001641   002630 710000 25                 TRA     s:27268
        25 001642   002630 710000 25                 TRA     s:27268
        25 001643   002630 710000 25                 TRA     s:27268
        25 001644   002630 710000 25                 TRA     s:27268
        25 001645   002630 710000 25                 TRA     s:27268
        25 001646   002630 710000 25                 TRA     s:27268
        25 001647   002630 710000 25                 TRA     s:27268
        25 001650   002630 710000 25                 TRA     s:27268
        25 001651   002630 710000 25                 TRA     s:27268
        25 001652   002630 710000 25                 TRA     s:27268
        25 001653   002630 710000 25                 TRA     s:27268
        25 001654   002630 710000 25                 TRA     s:27268
        25 001655   002630 710000 25                 TRA     s:27268
        25 001656   002630 710000 25                 TRA     s:27268
        25 001657   002630 710000 25                 TRA     s:27268
        25 001660   002630 710000 25                 TRA     s:27268
        25 001661   002630 710000 25                 TRA     s:27268
        25 001662   002630 710000 25                 TRA     s:27268
        25 001663   002630 710000 25                 TRA     s:27268
        25 001664   002630 710000 25                 TRA     s:27268
        25 001665   002630 710000 25                 TRA     s:27268
        25 001666   002630 710000 25                 TRA     s:27268
        25 001667   002630 710000 25                 TRA     s:27268
        25 001670   002630 710000 25                 TRA     s:27268
        25 001671   002630 710000 25                 TRA     s:27268
        25 001672   002630 710000 25                 TRA     s:27268
PL6.E3A0      #001=Z8EA$INSPECT_1 File=Z8EA.:Z8A6TSI                             SAT 08/09/97 11:39 Page:160
        25 001673   002630 710000 25                 TRA     s:27268
        25 001674   002630 710000 25                 TRA     s:27268
        25 001675   002630 710000 25                 TRA     s:27268
        25 001676   002630 710000 25                 TRA     s:27268
        25 001677   002630 710000 25                 TRA     s:27268
        25 001700   002630 710000 25                 TRA     s:27268
        25 001701   002630 710000 25                 TRA     s:27268
        25 001702   002630 710000 25                 TRA     s:27268
        25 001703   002630 710000 25                 TRA     s:27268
        25 001704   002630 710000 25                 TRA     s:27268
        25 001705   002630 710000 25                 TRA     s:27268
        25 001706   002630 710000 25                 TRA     s:27268
        25 001707   002630 710000 25                 TRA     s:27268
        25 001710   002630 710000 25                 TRA     s:27268
        25 001711   002630 710000 25                 TRA     s:27268
        25 001712   002630 710000 25                 TRA     s:27268
        25 001713   002630 710000 25                 TRA     s:27268
        25 001714   002630 710000 25                 TRA     s:27268
        25 001715   002630 710000 25                 TRA     s:27268
        25 001716   002630 710000 25                 TRA     s:27268
        25 001717   002630 710000 25                 TRA     s:27268
        25 001720   002630 710000 25                 TRA     s:27268
        25 001721   002630 710000 25                 TRA     s:27268
        25 001722   002630 710000 25                 TRA     s:27268
        25 001723   002630 710000 25                 TRA     s:27268
        25 001724   002630 710000 25                 TRA     s:27268
        25 001725   002630 710000 25                 TRA     s:27268
        25 001726   002630 710000 25                 TRA     s:27268
        25 001727   002630 710000 25                 TRA     s:27268
        25 001730   002630 710000 25                 TRA     s:27268
        25 001731   002630 710000 25                 TRA     s:27268
        25 001732   002630 710000 25                 TRA     s:27268
        25 001733   002630 710000 25                 TRA     s:27268
        25 001734   002630 710000 25                 TRA     s:27268
        25 001735   002630 710000 25                 TRA     s:27268
        25 001736   002630 710000 25                 TRA     s:27268
        25 001737   002630 710000 25                 TRA     s:27268
PL6.E3A0      #001=Z8EA$INSPECT_1 File=Z8EA.:Z8A6TSI                             SAT 08/09/97 11:39 Page:161
        25 001740   002630 710000 25                 TRA     s:27268
        25 001741   002630 710000 25                 TRA     s:27268
        25 001742   002630 710000 25                 TRA     s:27268
        25 001743   002630 710000 25                 TRA     s:27268
        25 001744   002630 710000 25                 TRA     s:27268
        25 001745   002630 710000 25                 TRA     s:27268
        25 001746   002630 710000 25                 TRA     s:27268
        25 001747   002630 710000 25                 TRA     s:27268
        25 001750   002630 710000 25                 TRA     s:27268
        25 001751   002630 710000 25                 TRA     s:27268
        25 001752   002630 710000 25                 TRA     s:27268
        25 001753   002630 710000 25                 TRA     s:27268
        25 001754   002630 710000 25                 TRA     s:27268
        25 001755   002630 710000 25                 TRA     s:27268
        25 001756   002630 710000 25                 TRA     s:27268
        25 001757   002630 710000 25                 TRA     s:27268
        25 001760   002630 710000 25                 TRA     s:27268
        25 001761   002630 710000 25                 TRA     s:27268
        25 001762   002630 710000 25                 TRA     s:27268
        25 001763   002630 710000 25                 TRA     s:27268
        25 001764   002630 710000 25                 TRA     s:27268
        25 001765   002630 710000 25                 TRA     s:27268
        25 001766   002630 710000 25                 TRA     s:27268
        25 001767   002630 710000 25                 TRA     s:27268
        25 001770   002630 710000 25                 TRA     s:27268
        25 001771   002630 710000 25                 TRA     s:27268
        25 001772   002630 710000 25                 TRA     s:27268
        25 001773   002630 710000 25                 TRA     s:27268
        25 001774   002630 710000 25                 TRA     s:27268
        25 001775   002630 710000 25                 TRA     s:27268
        25 001776   002630 710000 25                 TRA     s:27268
        25 001777   002630 710000 25                 TRA     s:27268
        25 002000   002630 710000 25                 TRA     s:27268
        25 002001   002630 710000 25                 TRA     s:27268
        25 002002   002630 710000 25                 TRA     s:27268
        25 002003   002630 710000 25                 TRA     s:27268
        25 002004   002630 710000 25                 TRA     s:27268
PL6.E3A0      #001=Z8EA$INSPECT_1 File=Z8EA.:Z8A6TSI                             SAT 08/09/97 11:39 Page:162
        25 002005   002630 710000 25                 TRA     s:27268
        25 002006   002630 710000 25                 TRA     s:27268
        25 002007   002630 710000 25                 TRA     s:27268
        25 002010   002630 710000 25                 TRA     s:27268
        25 002011   002630 710000 25                 TRA     s:27268
        25 002012   002630 710000 25                 TRA     s:27268
        25 002013   002630 710000 25                 TRA     s:27268
        25 002014   002630 710000 25                 TRA     s:27268
        25 002015   002630 710000 25                 TRA     s:27268
        25 002016   002630 710000 25                 TRA     s:27268
        25 002017   002630 710000 25                 TRA     s:27268
        25 002020   002630 710000 25                 TRA     s:27268
        25 002021   002630 710000 25                 TRA     s:27268
        25 002022   002630 710000 25                 TRA     s:27268
        25 002023   002630 710000 25                 TRA     s:27268
        25 002024   002630 710000 25                 TRA     s:27268
        25 002025   002630 710000 25                 TRA     s:27268
        25 002026   002630 710000 25                 TRA     s:27268
        25 002027   002630 710000 25                 TRA     s:27268
        25 002030   002630 710000 25                 TRA     s:27268
        25 002031   002630 710000 25                 TRA     s:27268
        25 002032   002630 710000 25                 TRA     s:27268
        25 002033   002630 710000 25                 TRA     s:27268
        25 002034   002630 710000 25                 TRA     s:27268
        25 002035   002630 710000 25                 TRA     s:27268
        25 002036   002630 710000 25                 TRA     s:27268
        25 002037   002630 710000 25                 TRA     s:27268
        25 002040   002630 710000 25                 TRA     s:27268
        25 002041   002630 710000 25                 TRA     s:27268
        25 002042   002630 710000 25                 TRA     s:27268
        25 002043   002630 710000 25                 TRA     s:27268
        25 002044   002630 710000 25                 TRA     s:27268
        25 002045   002630 710000 25                 TRA     s:27268
        25 002046   002630 710000 25                 TRA     s:27268
        25 002047   002630 710000 25                 TRA     s:27268
        25 002050   002630 710000 25                 TRA     s:27268
        25 002051   002630 710000 25                 TRA     s:27268
PL6.E3A0      #001=Z8EA$INSPECT_1 File=Z8EA.:Z8A6TSI                             SAT 08/09/97 11:39 Page:163
        25 002052   002630 710000 25                 TRA     s:27268
        25 002053   002630 710000 25                 TRA     s:27268
        25 002054   002630 710000 25                 TRA     s:27268
        25 002055   002313 710000 25                 TRA     s:24508

      681    22522
      682    22523    5                  CASE (%RSV_WRD_ALL) ;     /* ALL */

      683    22524
      684    22525    6                    IF AFTER$ ~= ADDR(NIL) THEN DO ;

  22525 25 002056   200267 236100                    LDQ     AFTER$,,AUTO
        25 002057   000005 116000 26                 CMPQ    5
        25 002060   002133 600000 25                 TZE     s:22568

      685    22526
      686    22527                           %IF_THEN_DO (@LOP = POINTER$,
      687    22528                                        @REL = %OP_GREATER_THAN_OR_EQUAL,
      688    22529                                        @ROP = AFTER$,
      689    22530                                        @LAB = END_AFTER_IF$) ;

  22537 25 002061   200176 630500                    EPPR0   COMPARISON,,AUTO
        25 002062   200277 450500                    STP0    COMPARISON$,,AUTO

  22545 25 002063   000005 220003                    LDX0    5,DU
        25 002064   000000 740100                    STX0    0,,PR0

  22546 25 002065   000000 221003                    LDX1    0,DU
        25 002066   200277 470500                    LDP0    COMPARISON$,,AUTO
        25 002067   000000 441100                    SXL1    0,,PR0

  22553 25 002070   000001 470400 24                 LDP0    POINTER$
        25 002071   200277 471500                    LDP1    COMPARISON$,,AUTO
        25 002072   000005 235100                    LDA     5,,PR0
        25 002073   100005 755100                    STA     5,,PR1

  22554 25 002074   200277 471500                    LDP1    COMPARISON$,,AUTO
PL6.E3A0      #001=Z8EA$INSPECT_1 File=Z8EA.:Z8A6TSI                             SAT 08/09/97 11:39 Page:164
        25 002075   000006 235100                    LDA     6,,PR0
        25 002076   100006 755100                    STA     6,,PR1

  22555 25 002077   200267 236100                    LDQ     AFTER$,,AUTO
        25 002100   200277 471500                    LDP1    COMPARISON$,,AUTO
        25 002101   100002 756100                    STQ     2,,PR1

  22556 25 002102   000001 236000 24                 LDQ     POINTER$
        25 002103   200277 471500                    LDP1    COMPARISON$,,AUTO
        25 002104   100001 756100                    STQ     1,,PR1

  22557 25 002105   000033 235007                    LDA     27,DL
        25 002106   200277 470500                    LDP0    COMPARISON$,,AUTO
        25 002107   000003 755100                    STA     3,,PR0

  22558 25 002110   000005 236000 26                 LDQ     5
        25 002111   200277 470500                    LDP0    COMPARISON$,,AUTO
        25 002112   000007 756100                    STQ     7,,PR0

  22561 25 002113   200300 630500                    EPPR0   END_AFTER_IF$,,AUTO
        25 002114   200553 450500                    STP0    LENGTH_ID4$+3,,AUTO
        25 002115   000024 236000 26                 LDQ     20
        25 002116   200552 756100                    STQ     LENGTH_ID4$+2,,AUTO
        25 002117   200552 630500                    EPPR0   LENGTH_ID4$+2,,AUTO
        25 002120   000000 631400 26                 EPPR1   0
        25 002121   000000 701000 xent               TSX1    Z8AT$CREATE_TEMPORARY
        25 002122   000000 011000                    NOP     0

  22562 25 002123   200277 630500                    EPPR0   COMPARISON$,,AUTO
        25 002124   200553 450500                    STP0    LENGTH_ID4$+3,,AUTO
        25 002125   200300 631500                    EPPR1   END_AFTER_IF$,,AUTO
        25 002126   200552 451500                    STP1    LENGTH_ID4$+2,,AUTO
        25 002127   200552 630500                    EPPR0   LENGTH_ID4$+2,,AUTO
        25 002130   000000 631400 26                 EPPR1   0
        25 002131   000000 701000 xent               TSX1    Z8EK$BRANCH_FALSE
        25 002132   000000 011000                    NOP     0

PL6.E3A0      #001=Z8EA$INSPECT_1 File=Z8EA.:Z8A6TSI                             SAT 08/09/97 11:39 Page:165
      690    22565
      691    22566    6                    END ;

      692    22567
      693    22568    6                    IF BEFORE$ ~= ADDR (NIL) THEN DO ;

  22568 25 002133   200273 236100                    LDQ     BEFORE$,,AUTO
        25 002134   000005 116000 26                 CMPQ    5
        25 002135   002142 600000 25                 TZE     s:22578

      694    22569
      695    22570                           /* IF Pointer <= Before$ - Length(id3) THEN DO */
      696    22571
      697    22572    6                      CALL BEFORE_CHECK (END_BEFORE_IF$) ;

  22572 25 002136   200301 630500                    EPPR0   END_BEFORE_IF$,,AUTO
        25 002137   200417 450500                    STP0    CONVERSION_ILS_LIST+9,,AUTO
        25 002140   011367 701000 25                 TSX1    BEFORE_CHECK
        25 002141   000000 011000                    NOP     0

      698    22573
      699    22574    6                    END ;

      700    22575
      701    22576                         /* IF SUBSTR (id1, Pointer, Lengthc(id3)) = id3 THEN DO */
      702    22577
      703    22578    5                    CALL IF_SUBSTR_ID1_EQUALS_ID3 (END_IF$) ;

  22578 25 002142   200302 630500                    EPPR0   END_IF$,,AUTO
        25 002143   200417 450500                    STP0    CONVERSION_ILS_LIST+9,,AUTO
        25 002144   012060 701000 25                 TSX1    IF_SUBSTR_ID1_EQUALS_ID3
        25 002145   000000 011000                    NOP     0

      704    22579
      705    22580                         /* ADD 1 TO id2 */
      706    22581
      707    22582                         %NEW_ILL (@ID  = %AD2I,
PL6.E3A0      #001=Z8EA$INSPECT_1 File=Z8EA.:Z8A6TSI                             SAT 08/09/97 11:39 Page:166
      708    22583                                   @LOP = ID2$ -> LX_ETT_ITEM.ETT$,
      709    22584                                   @ROP = ONE$) ;

  22897 25 002146   000031 236000 26                 LDQ     25
        25 002147   200552 756100                    STQ     LENGTH_ID4$+2,,AUTO
        25 002150   200313 236100                    LDQ     ID2$,,AUTO
        25 002151   000001 036003                    ADLQ    1,DU
        25 002152   200557 756100                    STQ     LENGTH_ID4$+7,,AUTO
        25 002153   200552 630500                    EPPR0   LENGTH_ID4$+2,,AUTO
        25 002154   200556 450500                    STP0    LENGTH_ID4$+6,,AUTO
        25 002155   000036 237000 26                 LDAQ    30
        25 002156   200554 757100                    STAQ    LENGTH_ID4$+4,,AUTO
        25 002157   000002 236000 26                 LDQ     2
        25 002160   200553 756100                    STQ     LENGTH_ID4$+3,,AUTO
        25 002161   200553 630500                    EPPR0   LENGTH_ID4$+3,,AUTO
        25 002162   000027 631400 26                 EPPR1   23
        25 002163   000000 701000 xent               TSX1    Z8AN$NEW_ILL1
        25 002164   000000 011000                    NOP     0

  22900 25 002165   200313 470500                    LDP0    ID2$,,AUTO
        25 002166   000001 236100                    LDQ     1,,PR0
        25 002167   000000 471400 1                  LDP1    ILL$
        25 002170   100001 756100                    STQ     1,,PR1

  22901 25 002171   200335 236100                    LDQ     ONE$,,AUTO
        25 002172   100002 756100                    STQ     2,,PR1

      710    22963
      711    22964
      712    22965                         /* ADD Lengthc (id3) TO Pointer */
      713    22966
      714    22967                         %NEW_ILL (@ID  = %AD2I,
      715    22968                                   @LOP = POINTER$ -> LX_ETT_ITEM.ETT$,
      716    22969                                   @ROP = LENGTH_ID3$  -> LX_ETT_ITEM.ETT$) ;

  23282 25 002173   000031 236000 26                 LDQ     25
        25 002174   200552 756100                    STQ     LENGTH_ID4$+2,,AUTO
PL6.E3A0      #001=Z8EA$INSPECT_1 File=Z8EA.:Z8A6TSI                             SAT 08/09/97 11:39 Page:167
        25 002175   000001 236000 24                 LDQ     POINTER$
        25 002176   000001 036003                    ADLQ    1,DU
        25 002177   200557 756100                    STQ     LENGTH_ID4$+7,,AUTO
        25 002200   200552 630500                    EPPR0   LENGTH_ID4$+2,,AUTO
        25 002201   200556 450500                    STP0    LENGTH_ID4$+6,,AUTO
        25 002202   000036 237000 26                 LDAQ    30
        25 002203   200554 757100                    STAQ    LENGTH_ID4$+4,,AUTO
        25 002204   000002 236000 26                 LDQ     2
        25 002205   200553 756100                    STQ     LENGTH_ID4$+3,,AUTO
        25 002206   200553 630500                    EPPR0   LENGTH_ID4$+3,,AUTO
        25 002207   000027 631400 26                 EPPR1   23
        25 002210   000000 701000 xent               TSX1    Z8AN$NEW_ILL1
        25 002211   000000 011000                    NOP     0

  23285 25 002212   000001 470400 24                 LDP0    POINTER$
        25 002213   000001 236100                    LDQ     1,,PR0
        25 002214   000000 471400 1                  LDP1    ILL$
        25 002215   100001 756100                    STQ     1,,PR1

  23286 25 002216   200330 470500                    LDP0    LENGTH_ID3$,,AUTO
        25 002217   000001 236100                    LDQ     1,,PR0
        25 002220   100002 756100                    STQ     2,,PR1

      717    23348
      718    23349                         /* GO TO End_Loop */
      719    23350
      720    23351    5                    CALL Z8EK$BRANCH (END_LOOP$) ;

  23351 25 002221   200303 630500                    EPPR0   END_LOOP$,,AUTO
        25 002222   200552 450500                    STP0    LENGTH_ID4$+2,,AUTO
        25 002223   200552 630500                    EPPR0   LENGTH_ID4$+2,,AUTO
        25 002224   000041 631400 26                 EPPR1   33
        25 002225   000000 701000 xent               TSX1    Z8EK$BRANCH
        25 002226   000000 011000                    NOP     0

      721    23352
      722    23353                         /* END-IF */
PL6.E3A0      #001=Z8EA$INSPECT_1 File=Z8EA.:Z8A6TSI                             SAT 08/09/97 11:39 Page:168
      723    23354
      724    23355                         %NEW_ILL (@ID = %DEFLB, @LOP = END_IF$) ;

  23676 25 002227   000031 236000 26                 LDQ     25
        25 002230   200552 756100                    STQ     LENGTH_ID4$+2,,AUTO
        25 002231   200552 630500                    EPPR0   LENGTH_ID4$+2,,AUTO
        25 002232   200557 450500                    STP0    LENGTH_ID4$+7,,AUTO
        25 002233   000033 236000 26                 LDQ     27
        25 002234   200556 756100                    STQ     LENGTH_ID4$+6,,AUTO
        25 002235   000042 237000 26                 LDAQ    34
        25 002236   200554 757100                    STAQ    LENGTH_ID4$+4,,AUTO
        25 002237   200554 630500                    EPPR0   LENGTH_ID4$+4,,AUTO
        25 002240   000010 631400 26                 EPPR1   8
        25 002241   000000 701000 xent               TSX1    Z8AN$NEW_ILL
        25 002242   000000 011000                    NOP     0

  23685 25 002243   200302 236100                    LDQ     END_IF$,,AUTO
        25 002244   000000 470400 1                  LDP0    ILL$
        25 002245   000001 756100                    STQ     1,,PR0

      725    23734
      726    23735                         /* END (Pointer <= Before$) */
      727    23736
      728    23737    5                    IF BEFORE$ ~= ADDR(NIL) THEN

  23737 25 002246   200273 236100                    LDQ     BEFORE$,,AUTO
        25 002247   000005 116000 26                 CMPQ    5
        25 002250   002270 600000 25                 TZE     s:24120

      729    23738                           %NEW_ILL (@ID = %DEFLB, @LOP = END_BEFORE_IF$) ;

  24059 25 002251   000031 236000 26                 LDQ     25
        25 002252   200552 756100                    STQ     LENGTH_ID4$+2,,AUTO
        25 002253   200552 631500                    EPPR1   LENGTH_ID4$+2,,AUTO
        25 002254   200557 451500                    STP1    LENGTH_ID4$+7,,AUTO
        25 002255   000033 236000 26                 LDQ     27
        25 002256   200556 756100                    STQ     LENGTH_ID4$+6,,AUTO
PL6.E3A0      #001=Z8EA$INSPECT_1 File=Z8EA.:Z8A6TSI                             SAT 08/09/97 11:39 Page:169
        25 002257   000042 237000 26                 LDAQ    34
        25 002260   200554 757100                    STAQ    LENGTH_ID4$+4,,AUTO
        25 002261   200554 630500                    EPPR0   LENGTH_ID4$+4,,AUTO
        25 002262   000010 631400 26                 EPPR1   8
        25 002263   000000 701000 xent               TSX1    Z8AN$NEW_ILL
        25 002264   000000 011000                    NOP     0

  24068 25 002265   200301 236100                    LDQ     END_BEFORE_IF$,,AUTO
        25 002266   000000 470400 1                  LDP0    ILL$
        25 002267   000001 756100                    STQ     1,,PR0

      730    24117
      731    24118                         /* END (Pointer >= After$) */
      732    24119
      733    24120    5                    IF AFTER$ ~= ADDR(NIL) THEN

  24120 25 002270   200267 236100                    LDQ     AFTER$,,AUTO
        25 002271   000005 116000 26                 CMPQ    5
        25 002272   002630 600000 25                 TZE     s:27268

      734    24121                           %NEW_ILL (@ID = %DEFLB, @LOP = END_AFTER_IF$) ;

  24442 25 002273   000031 236000 26                 LDQ     25
        25 002274   200552 756100                    STQ     LENGTH_ID4$+2,,AUTO
        25 002275   200552 631500                    EPPR1   LENGTH_ID4$+2,,AUTO
        25 002276   200557 451500                    STP1    LENGTH_ID4$+7,,AUTO
        25 002277   000033 236000 26                 LDQ     27
        25 002300   200556 756100                    STQ     LENGTH_ID4$+6,,AUTO
        25 002301   000042 237000 26                 LDAQ    34
        25 002302   200554 757100                    STAQ    LENGTH_ID4$+4,,AUTO
        25 002303   200554 630500                    EPPR0   LENGTH_ID4$+4,,AUTO
        25 002304   000010 631400 26                 EPPR1   8
        25 002305   000000 701000 xent               TSX1    Z8AN$NEW_ILL
        25 002306   000000 011000                    NOP     0

  24451 25 002307   200300 236100                    LDQ     END_AFTER_IF$,,AUTO
        25 002310   000000 470400 1                  LDP0    ILL$
PL6.E3A0      #001=Z8EA$INSPECT_1 File=Z8EA.:Z8A6TSI                             SAT 08/09/97 11:39 Page:170
        25 002311   000001 756100                    STQ     1,,PR0

  24470 25 002312   002630 710000 25                 TRA     s:27268

      735    24500
      736    24501        %EJECT;
PL6.E3A0      #001=Z8EA$INSPECT_1 File=Z8EA.:Z8A6TSI                             SAT 08/09/97 11:39 Page:171
      737    24502                       /*==========================================*/
      738    24503                       /*V* INSPECT_TALLYING_PASS_3_LEADING_CLAUSE */
      739    24504                       /*==========================================*/
      740    24505
      741    24506    5                  CASE (%RSV_WRD_LEADING) ;  /* LEADING */

      742    24507
      743    24508    6                    IF OPTIMIZABLE THEN DO ;

  24508 25 002313   200337 234100                    SZN     OPTIMIZABLE,,AUTO
        25 002314   002346 605000 25                 TPL     s:24900

      744    24509
      745    24510    6                      CALL LEADING_OPTIMIZED ; /* Search id1 via TCT */

  24510 25 002315   011473 701000 25                 TSX1    LEADING_OPTIMIZED
        25 002316   000000 011000                    NOP     0

      746    24511
      747    24512                           /* id2 = id2 + Result_of_TCT */
      748    24513
      749    24514                           %NEW_ILL (@ID  = %AD2I,
      750    24515                                     @LOP = ID2$ -> LX_ETT_ITEM.ETT$,
      751    24516                                     @ROP = POSITION$ -> LX_ETT_ITEM.ETT$) ;

  24829 25 002317   000031 236000 26                 LDQ     25
        25 002320   200552 756100                    STQ     LENGTH_ID4$+2,,AUTO
        25 002321   200313 236100                    LDQ     ID2$,,AUTO
        25 002322   000001 036003                    ADLQ    1,DU
        25 002323   200557 756100                    STQ     LENGTH_ID4$+7,,AUTO
        25 002324   200552 630500                    EPPR0   LENGTH_ID4$+2,,AUTO
        25 002325   200556 450500                    STP0    LENGTH_ID4$+6,,AUTO
        25 002326   000036 237000 26                 LDAQ    30
        25 002327   200554 757100                    STAQ    LENGTH_ID4$+4,,AUTO
        25 002330   000002 236000 26                 LDQ     2
        25 002331   200553 756100                    STQ     LENGTH_ID4$+3,,AUTO
        25 002332   200553 630500                    EPPR0   LENGTH_ID4$+3,,AUTO
PL6.E3A0      #001=Z8EA$INSPECT_1 File=Z8EA.:Z8A6TSI                             SAT 08/09/97 11:39 Page:172
        25 002333   000027 631400 26                 EPPR1   23
        25 002334   000000 701000 xent               TSX1    Z8AN$NEW_ILL1
        25 002335   000000 011000                    NOP     0

  24832 25 002336   200313 470500                    LDP0    ID2$,,AUTO
        25 002337   000001 236100                    LDQ     1,,PR0
        25 002340   000000 471400 1                  LDP1    ILL$
        25 002341   100001 756100                    STQ     1,,PR1

  24833 25 002342   200340 470500                    LDP0    POSITION$,,AUTO
        25 002343   000001 236100                    LDQ     1,,PR0
        25 002344   100002 756100                    STQ     2,,PR1

      752    24895
      753    24896    6                    END ; /* Tallying Leading Optimizing */

  24896 25 002345   002630 710000 25                 TRA     s:27268

      754    24897
      755    24898    6                    ELSE DO ; /* Not Optimizable */

      756    24899
      757    24900    7                      IF AFTER$ ~= ADDR(NIL) THEN DO ;

  24900 25 002346   200267 236100                    LDQ     AFTER$,,AUTO
        25 002347   000005 116000 26                 CMPQ    5
        25 002350   002423 600000 25                 TZE     s:24943

      758    24901
      759    24902                             %IF_THEN_DO (@LOP = POINTER$,
      760    24903                                          @REL = %OP_EQUAL,
      761    24904                                          @ROP = AFTER$,
      762    24905                                          @LAB = END_AFTER_IF$) ;

  24912 25 002351   200176 630500                    EPPR0   COMPARISON,,AUTO
        25 002352   200277 450500                    STP0    COMPARISON$,,AUTO

PL6.E3A0      #001=Z8EA$INSPECT_1 File=Z8EA.:Z8A6TSI                             SAT 08/09/97 11:39 Page:173
  24920 25 002353   000005 220003                    LDX0    5,DU
        25 002354   000000 740100                    STX0    0,,PR0

  24921 25 002355   000000 221003                    LDX1    0,DU
        25 002356   200277 470500                    LDP0    COMPARISON$,,AUTO
        25 002357   000000 441100                    SXL1    0,,PR0

  24928 25 002360   000001 470400 24                 LDP0    POINTER$
        25 002361   200277 471500                    LDP1    COMPARISON$,,AUTO
        25 002362   000005 235100                    LDA     5,,PR0
        25 002363   100005 755100                    STA     5,,PR1

  24929 25 002364   200277 471500                    LDP1    COMPARISON$,,AUTO
        25 002365   000006 235100                    LDA     6,,PR0
        25 002366   100006 755100                    STA     6,,PR1

  24930 25 002367   200267 236100                    LDQ     AFTER$,,AUTO
        25 002370   200277 471500                    LDP1    COMPARISON$,,AUTO
        25 002371   100002 756100                    STQ     2,,PR1

  24931 25 002372   000001 236000 24                 LDQ     POINTER$
        25 002373   200277 471500                    LDP1    COMPARISON$,,AUTO
        25 002374   100001 756100                    STQ     1,,PR1

  24932 25 002375   000027 235007                    LDA     23,DL
        25 002376   200277 470500                    LDP0    COMPARISON$,,AUTO
        25 002377   000003 755100                    STA     3,,PR0

  24933 25 002400   000005 236000 26                 LDQ     5
        25 002401   200277 470500                    LDP0    COMPARISON$,,AUTO
        25 002402   000007 756100                    STQ     7,,PR0

  24936 25 002403   200300 630500                    EPPR0   END_AFTER_IF$,,AUTO
        25 002404   200553 450500                    STP0    LENGTH_ID4$+3,,AUTO
        25 002405   000024 236000 26                 LDQ     20
        25 002406   200552 756100                    STQ     LENGTH_ID4$+2,,AUTO
        25 002407   200552 630500                    EPPR0   LENGTH_ID4$+2,,AUTO
PL6.E3A0      #001=Z8EA$INSPECT_1 File=Z8EA.:Z8A6TSI                             SAT 08/09/97 11:39 Page:174
        25 002410   000000 631400 26                 EPPR1   0
        25 002411   000000 701000 xent               TSX1    Z8AT$CREATE_TEMPORARY
        25 002412   000000 011000                    NOP     0

  24937 25 002413   200277 630500                    EPPR0   COMPARISON$,,AUTO
        25 002414   200553 450500                    STP0    LENGTH_ID4$+3,,AUTO
        25 002415   200300 631500                    EPPR1   END_AFTER_IF$,,AUTO
        25 002416   200552 451500                    STP1    LENGTH_ID4$+2,,AUTO
        25 002417   200552 630500                    EPPR0   LENGTH_ID4$+2,,AUTO
        25 002420   000000 631400 26                 EPPR1   0
        25 002421   000000 701000 xent               TSX1    Z8EK$BRANCH_FALSE
        25 002422   000000 011000                    NOP     0

      763    24940
      764    24941    7                      END ;

      765    24942
      766    24943    7                      IF BEFORE$ ~= ADDR (NIL) THEN DO ;

  24943 25 002423   200273 236100                    LDQ     BEFORE$,,AUTO
        25 002424   000005 116000 26                 CMPQ    5
        25 002425   002432 600000 25                 TZE     s:24953

      767    24944
      768    24945                             /* IF Pointer <= Before$ - Length(id3) THEN DO */
      769    24946
      770    24947    7                        CALL BEFORE_CHECK (END_BEFORE_IF$) ;

  24947 25 002426   200301 630500                    EPPR0   END_BEFORE_IF$,,AUTO
        25 002427   200417 450500                    STP0    CONVERSION_ILS_LIST+9,,AUTO
        25 002430   011367 701000 25                 TSX1    BEFORE_CHECK
        25 002431   000000 011000                    NOP     0

      771    24948
      772    24949    7                      END ;

      773    24950
PL6.E3A0      #001=Z8EA$INSPECT_1 File=Z8EA.:Z8A6TSI                             SAT 08/09/97 11:39 Page:175
      774    24951                           /* IF SUBSTR (id1, Pointer, Lengthc(id3)) = id3 THEN DO */
      775    24952
      776    24953    6                      CALL IF_SUBSTR_ID1_EQUALS_ID3 (END_IF$) ;

  24953 25 002432   200302 630500                    EPPR0   END_IF$,,AUTO
        25 002433   200417 450500                    STP0    CONVERSION_ILS_LIST+9,,AUTO
        25 002434   012060 701000 25                 TSX1    IF_SUBSTR_ID1_EQUALS_ID3
        25 002435   000000 011000                    NOP     0

      777    24954
      778    24955                           /* ADD 1 TO id2 */
      779    24956
      780    24957                           %NEW_ILL (@ID  = %AD2I,
      781    24958                                     @LOP = ID2$ -> LX_ETT_ITEM.ETT$,
      782    24959                                     @ROP = ONE$) ;

  25272 25 002436   000031 236000 26                 LDQ     25
        25 002437   200552 756100                    STQ     LENGTH_ID4$+2,,AUTO
        25 002440   200313 236100                    LDQ     ID2$,,AUTO
        25 002441   000001 036003                    ADLQ    1,DU
        25 002442   200557 756100                    STQ     LENGTH_ID4$+7,,AUTO
        25 002443   200552 630500                    EPPR0   LENGTH_ID4$+2,,AUTO
        25 002444   200556 450500                    STP0    LENGTH_ID4$+6,,AUTO
        25 002445   000036 237000 26                 LDAQ    30
        25 002446   200554 757100                    STAQ    LENGTH_ID4$+4,,AUTO
        25 002447   000002 236000 26                 LDQ     2
        25 002450   200553 756100                    STQ     LENGTH_ID4$+3,,AUTO
        25 002451   200553 630500                    EPPR0   LENGTH_ID4$+3,,AUTO
        25 002452   000027 631400 26                 EPPR1   23
        25 002453   000000 701000 xent               TSX1    Z8AN$NEW_ILL1
        25 002454   000000 011000                    NOP     0

  25275 25 002455   200313 470500                    LDP0    ID2$,,AUTO
        25 002456   000001 236100                    LDQ     1,,PR0
        25 002457   000000 471400 1                  LDP1    ILL$
        25 002460   100001 756100                    STQ     1,,PR1

PL6.E3A0      #001=Z8EA$INSPECT_1 File=Z8EA.:Z8A6TSI                             SAT 08/09/97 11:39 Page:176
  25276 25 002461   200335 236100                    LDQ     ONE$,,AUTO
        25 002462   100002 756100                    STQ     2,,PR1

      783    25338
      784    25339                           /* ADD Lengthc (id3) TO Pointer */
      785    25340
      786    25341                           %NEW_ILL (@ID  = %AD2I,
      787    25342                                     @LOP = POINTER$ -> LX_ETT_ITEM.ETT$,
      788    25343                                     @ROP = LENGTH_ID3$  -> LX_ETT_ITEM.ETT$) ;

  25656 25 002463   000031 236000 26                 LDQ     25
        25 002464   200552 756100                    STQ     LENGTH_ID4$+2,,AUTO
        25 002465   000001 236000 24                 LDQ     POINTER$
        25 002466   000001 036003                    ADLQ    1,DU
        25 002467   200557 756100                    STQ     LENGTH_ID4$+7,,AUTO
        25 002470   200552 630500                    EPPR0   LENGTH_ID4$+2,,AUTO
        25 002471   200556 450500                    STP0    LENGTH_ID4$+6,,AUTO
        25 002472   000036 237000 26                 LDAQ    30
        25 002473   200554 757100                    STAQ    LENGTH_ID4$+4,,AUTO
        25 002474   000002 236000 26                 LDQ     2
        25 002475   200553 756100                    STQ     LENGTH_ID4$+3,,AUTO
        25 002476   200553 630500                    EPPR0   LENGTH_ID4$+3,,AUTO
        25 002477   000027 631400 26                 EPPR1   23
        25 002500   000000 701000 xent               TSX1    Z8AN$NEW_ILL1
        25 002501   000000 011000                    NOP     0

  25659 25 002502   000001 470400 24                 LDP0    POINTER$
        25 002503   000001 236100                    LDQ     1,,PR0
        25 002504   000000 471400 1                  LDP1    ILL$
        25 002505   100001 756100                    STQ     1,,PR1

  25660 25 002506   200330 470500                    LDP0    LENGTH_ID3$,,AUTO
        25 002507   000001 236100                    LDQ     1,,PR0
        25 002510   100002 756100                    STQ     2,,PR1

      789    25722
      790    25723                           /* AFTER$ = AFTER$ + LENGTHC (id3) */
PL6.E3A0      #001=Z8EA$INSPECT_1 File=Z8EA.:Z8A6TSI                             SAT 08/09/97 11:39 Page:177
      791    25724
      792    25725                           %NEW_ILL (@ID  = %AD2I,
      793    25726                                     @LOP = AFTER$   -> LX_ETT_ITEM.ETT$,
      794    25727                                     @ROP = LENGTH_ID3$  -> LX_ETT_ITEM.ETT$) ;

  26040 25 002511   000031 236000 26                 LDQ     25
        25 002512   200552 756100                    STQ     LENGTH_ID4$+2,,AUTO
        25 002513   200267 236100                    LDQ     AFTER$,,AUTO
        25 002514   000001 036003                    ADLQ    1,DU
        25 002515   200557 756100                    STQ     LENGTH_ID4$+7,,AUTO
        25 002516   200552 630500                    EPPR0   LENGTH_ID4$+2,,AUTO
        25 002517   200556 450500                    STP0    LENGTH_ID4$+6,,AUTO
        25 002520   000036 237000 26                 LDAQ    30
        25 002521   200554 757100                    STAQ    LENGTH_ID4$+4,,AUTO
        25 002522   000002 236000 26                 LDQ     2
        25 002523   200553 756100                    STQ     LENGTH_ID4$+3,,AUTO
        25 002524   200553 630500                    EPPR0   LENGTH_ID4$+3,,AUTO
        25 002525   000027 631400 26                 EPPR1   23
        25 002526   000000 701000 xent               TSX1    Z8AN$NEW_ILL1
        25 002527   000000 011000                    NOP     0

  26043 25 002530   200267 470500                    LDP0    AFTER$,,AUTO
        25 002531   000001 236100                    LDQ     1,,PR0
        25 002532   000000 471400 1                  LDP1    ILL$
        25 002533   100001 756100                    STQ     1,,PR1

  26044 25 002534   200330 470500                    LDP0    LENGTH_ID3$,,AUTO
        25 002535   000001 236100                    LDQ     1,,PR0
        25 002536   100002 756100                    STQ     2,,PR1

      795    26106
      796    26107                           /* GO TO End_Loop */
      797    26108
      798    26109    6                      CALL Z8EK$BRANCH (END_LOOP$) ;

  26109 25 002537   200303 630500                    EPPR0   END_LOOP$,,AUTO
        25 002540   200552 450500                    STP0    LENGTH_ID4$+2,,AUTO
PL6.E3A0      #001=Z8EA$INSPECT_1 File=Z8EA.:Z8A6TSI                             SAT 08/09/97 11:39 Page:178
        25 002541   200552 630500                    EPPR0   LENGTH_ID4$+2,,AUTO
        25 002542   000041 631400 26                 EPPR1   33
        25 002543   000000 701000 xent               TSX1    Z8EK$BRANCH
        25 002544   000000 011000                    NOP     0

      799    26110
      800    26111                           /* END-IF */
      801    26112
      802    26113                           %NEW_ILL (@ID = %DEFLB, @LOP = END_IF$) ;

  26434 25 002545   000031 236000 26                 LDQ     25
        25 002546   200552 756100                    STQ     LENGTH_ID4$+2,,AUTO
        25 002547   200552 630500                    EPPR0   LENGTH_ID4$+2,,AUTO
        25 002550   200557 450500                    STP0    LENGTH_ID4$+7,,AUTO
        25 002551   000033 236000 26                 LDQ     27
        25 002552   200556 756100                    STQ     LENGTH_ID4$+6,,AUTO
        25 002553   000042 237000 26                 LDAQ    34
        25 002554   200554 757100                    STAQ    LENGTH_ID4$+4,,AUTO
        25 002555   200554 630500                    EPPR0   LENGTH_ID4$+4,,AUTO
        25 002556   000010 631400 26                 EPPR1   8
        25 002557   000000 701000 xent               TSX1    Z8AN$NEW_ILL
        25 002560   000000 011000                    NOP     0

  26443 25 002561   200302 236100                    LDQ     END_IF$,,AUTO
        25 002562   000000 470400 1                  LDP0    ILL$
        25 002563   000001 756100                    STQ     1,,PR0

      803    26492
      804    26493                           /* END (Pointer <= Before$) */
      805    26494
      806    26495    6                      IF BEFORE$ ~= ADDR(NIL) THEN

  26495 25 002564   200273 236100                    LDQ     BEFORE$,,AUTO
        25 002565   000005 116000 26                 CMPQ    5
        25 002566   002606 600000 25                 TZE     s:26878

      807    26496                             %NEW_ILL (@ID = %DEFLB, @LOP = END_BEFORE_IF$) ;
PL6.E3A0      #001=Z8EA$INSPECT_1 File=Z8EA.:Z8A6TSI                             SAT 08/09/97 11:39 Page:179

  26817 25 002567   000031 236000 26                 LDQ     25
        25 002570   200552 756100                    STQ     LENGTH_ID4$+2,,AUTO
        25 002571   200552 631500                    EPPR1   LENGTH_ID4$+2,,AUTO
        25 002572   200557 451500                    STP1    LENGTH_ID4$+7,,AUTO
        25 002573   000033 236000 26                 LDQ     27
        25 002574   200556 756100                    STQ     LENGTH_ID4$+6,,AUTO
        25 002575   000042 237000 26                 LDAQ    34
        25 002576   200554 757100                    STAQ    LENGTH_ID4$+4,,AUTO
        25 002577   200554 630500                    EPPR0   LENGTH_ID4$+4,,AUTO
        25 002600   000010 631400 26                 EPPR1   8
        25 002601   000000 701000 xent               TSX1    Z8AN$NEW_ILL
        25 002602   000000 011000                    NOP     0

  26826 25 002603   200301 236100                    LDQ     END_BEFORE_IF$,,AUTO
        25 002604   000000 470400 1                  LDP0    ILL$
        25 002605   000001 756100                    STQ     1,,PR0

      808    26875
      809    26876                           /* END (Pointer >= After$) */
      810    26877
      811    26878    6                      IF AFTER$ ~= ADDR(NIL) THEN

  26878 25 002606   200267 236100                    LDQ     AFTER$,,AUTO
        25 002607   000005 116000 26                 CMPQ    5
        25 002610   002630 600000 25                 TZE     s:27268

      812    26879                             %NEW_ILL (@ID = %DEFLB, @LOP = END_AFTER_IF$) ;

  27200 25 002611   000031 236000 26                 LDQ     25
        25 002612   200552 756100                    STQ     LENGTH_ID4$+2,,AUTO
        25 002613   200552 631500                    EPPR1   LENGTH_ID4$+2,,AUTO
        25 002614   200557 451500                    STP1    LENGTH_ID4$+7,,AUTO
        25 002615   000033 236000 26                 LDQ     27
        25 002616   200556 756100                    STQ     LENGTH_ID4$+6,,AUTO
        25 002617   000042 237000 26                 LDAQ    34
        25 002620   200554 757100                    STAQ    LENGTH_ID4$+4,,AUTO
PL6.E3A0      #001=Z8EA$INSPECT_1 File=Z8EA.:Z8A6TSI                             SAT 08/09/97 11:39 Page:180
        25 002621   200554 630500                    EPPR0   LENGTH_ID4$+4,,AUTO
        25 002622   000010 631400 26                 EPPR1   8
        25 002623   000000 701000 xent               TSX1    Z8AN$NEW_ILL
        25 002624   000000 011000                    NOP     0

  27209 25 002625   200300 236100                    LDQ     END_AFTER_IF$,,AUTO
        25 002626   000000 470400 1                  LDP0    ILL$
        25 002627   000001 756100                    STQ     1,,PR0

      813    27258
      814    27259    6                    END ; /* Tallying Leading Not-Optimizable */

      815    27260
      816    27261        %EJECT;
PL6.E3A0      #001=Z8EA$INSPECT_1 File=Z8EA.:Z8A6TSI                             SAT 08/09/97 11:39 Page:181
      817    27262                     /*==================================*/
      818    27263                     /*V* INSPECT_TALLYING_PASS_3_WRAPUP */
      819    27264                     /*==================================*/
      820    27265
      821    27266    5                END ; /* Case of Clause_Type */

      822    27267
      823    27268    4                ALL$ = ALL$ -> LX_LIST.LINK ;

  27268 25 002630   200270 470500                    LDP0    ALL$,,AUTO
        25 002631   000007 236100                    LDQ     7,,PR0
        25 002632   200270 756100                    STQ     ALL$,,AUTO

      824    27269
      825    27270    4              END /* Do While ALL$ <> nil */ ;

  27270 25 002633   000005 116000 26                 CMPQ    5
        25 002634   001451 601000 25                 TNZ     s:22514

      826    27271
      827    27272    3              IF FOR$ -> LX_LIST.COUNT = 3

  27272 25 002635   200306 470500                    LDP0    FOR$,,AUTO
        25 002636   000002 235100                    LDA     2,,PR0
        25 002637   000003 115007                    CMPA    3,DL
        25 002640   002643 601000 25                 TNZ     s:27277

      828    27273    3              THEN ID2$ = FOR$ -> LX_LIST.TAIL$ ;

  27273 25 002641   000001 236100                    LDQ     1,,PR0
        25 002642   200313 756100                    STQ     ID2$,,AUTO

      829    27274
      830    27275    3            END /* Else Do (Leading, All, or First) */ ;

      831    27276
      832    27277    2            FOR$ = FOR$ -> LX_LIST.LINK ;
PL6.E3A0      #001=Z8EA$INSPECT_1 File=Z8EA.:Z8A6TSI                             SAT 08/09/97 11:39 Page:182

  27277 25 002643   200306 470500                    LDP0    FOR$,,AUTO
        25 002644   000007 236100                    LDQ     7,,PR0
        25 002645   200306 756100                    STQ     FOR$,,AUTO

      833    27278
      834    27279    2          END /* Do While FOR$ <> nil */ ;

  27279 25 002646   000005 116000 26                 CMPQ    5
        25 002647   000630 601000 25                 TNZ     s:18841

      835    27280
      836    27281    2          IF NOT OPTIMIZABLE THEN DO ;

  27281 25 002650   200337 234100                    SZN     OPTIMIZABLE,,AUTO
        25 002651   003035 604000 25                 TMI     s:28490

      837    27282
      838    27283    2            IF  CLAUSE_TYPE = %RSV_WRD_CHARACTERS

  27283 25 002652   200276 235100                    LDA     CLAUSE_TYPE,,AUTO
        25 002653   000120 115007                    CMPA    80,DL
        25 002654   002664 601000 25                 TNZ     s:27293
        25 002655   200267 236100                    LDQ     AFTER$,,AUTO
        25 002656   000005 116000 26                 CMPQ    5
        25 002657   002664 601000 25                 TNZ     s:27293
        25 002660   200273 236100                    LDQ     BEFORE$,,AUTO
        25 002661   000005 116000 26                 CMPQ    5
        25 002662   002664 601000 25                 TNZ     s:27293

      839    27284    2            AND AFTER$ = ADDR(NIL)
      840    27285    3            AND BEFORE$ = ADDR(NIL) THEN DO ;

      841    27286                   /* Avoid "Dead Code" error by not generating AOS */
      842    27287    3            END ;

  27287 25 002663   002743 710000 25                 TRA     s:28391
PL6.E3A0      #001=Z8EA$INSPECT_1 File=Z8EA.:Z8A6TSI                             SAT 08/09/97 11:39 Page:183

      843    27288
      844    27289    3            ELSE DO ; /* Last Clause was not CHARACTERS with no BEFORE/AFTER */

      845    27290
      846    27291                     /* If Kanji, Add 2 to pointer, else add 1 */
      847    27292
      848    27293    3                IF ID1_ST$ -> SCALAR.B.KANJI   THEN

  27293 25 002664   200312 470500                    LDP0    ID1_ST$,,AUTO
        25 002665   000003 236100                    LDQ     3,,PR0
        25 002666   001000 316007                    CANQ    512,DL
        25 002667   002716 600000 25                 TZE     s:27997

      849    27294    4                  DO;

      850    27295
      851    27296                         %NEW_ILL( @ID  = %AD2I,
      852    27297                                   @LOP = POINTER$ -> LX_ETT_ITEM.ETT$,
      853    27298                                   @ROP = TWO$ );

  27611 25 002670   000031 236000 26                 LDQ     25
        25 002671   200552 756100                    STQ     LENGTH_ID4$+2,,AUTO
        25 002672   000001 236000 24                 LDQ     POINTER$
        25 002673   000001 036003                    ADLQ    1,DU
        25 002674   200557 756100                    STQ     LENGTH_ID4$+7,,AUTO
        25 002675   200552 631500                    EPPR1   LENGTH_ID4$+2,,AUTO
        25 002676   200556 451500                    STP1    LENGTH_ID4$+6,,AUTO
        25 002677   000036 237000 26                 LDAQ    30
        25 002700   200554 757100                    STAQ    LENGTH_ID4$+4,,AUTO
        25 002701   000002 236000 26                 LDQ     2
        25 002702   200553 756100                    STQ     LENGTH_ID4$+3,,AUTO
        25 002703   200553 630500                    EPPR0   LENGTH_ID4$+3,,AUTO
        25 002704   000027 631400 26                 EPPR1   23
        25 002705   000000 701000 xent               TSX1    Z8AN$NEW_ILL1
        25 002706   000000 011000                    NOP     0

PL6.E3A0      #001=Z8EA$INSPECT_1 File=Z8EA.:Z8A6TSI                             SAT 08/09/97 11:39 Page:184
  27614 25 002707   000001 470400 24                 LDP0    POINTER$
        25 002710   000001 236100                    LDQ     1,,PR0
        25 002711   000000 471400 1                  LDP1    ILL$
        25 002712   100001 756100                    STQ     1,,PR1

  27615 25 002713   200353 236100                    LDQ     TWO$,,AUTO
        25 002714   100002 756100                    STQ     2,,PR1

      854    27677
      855    27678    4                  END;

  27678 25 002715   002743 710000 25                 TRA     s:28391

      856    27679    3                ELSE
      857    27680    4                  DO;

      858    27681
      859    27682                         %NEW_ILL (@ID  = %AD2I,
      860    27683                                   @LOP = POINTER$ -> LX_ETT_ITEM.ETT$,
      861    27684                                   @ROP = ONE$) ;

  27997 25 002716   000031 236000 26                 LDQ     25
        25 002717   200552 756100                    STQ     LENGTH_ID4$+2,,AUTO
        25 002720   000001 236000 24                 LDQ     POINTER$
        25 002721   000001 036003                    ADLQ    1,DU
        25 002722   200557 756100                    STQ     LENGTH_ID4$+7,,AUTO
        25 002723   200552 631500                    EPPR1   LENGTH_ID4$+2,,AUTO
        25 002724   200556 451500                    STP1    LENGTH_ID4$+6,,AUTO
        25 002725   000036 237000 26                 LDAQ    30
        25 002726   200554 757100                    STAQ    LENGTH_ID4$+4,,AUTO
        25 002727   000002 236000 26                 LDQ     2
        25 002730   200553 756100                    STQ     LENGTH_ID4$+3,,AUTO
        25 002731   200553 630500                    EPPR0   LENGTH_ID4$+3,,AUTO
        25 002732   000027 631400 26                 EPPR1   23
        25 002733   000000 701000 xent               TSX1    Z8AN$NEW_ILL1
        25 002734   000000 011000                    NOP     0

PL6.E3A0      #001=Z8EA$INSPECT_1 File=Z8EA.:Z8A6TSI                             SAT 08/09/97 11:39 Page:185
  28000 25 002735   000001 470400 24                 LDP0    POINTER$
        25 002736   000001 236100                    LDQ     1,,PR0
        25 002737   000000 471400 1                  LDP1    ILL$
        25 002740   100001 756100                    STQ     1,,PR1

  28001 25 002741   200335 236100                    LDQ     ONE$,,AUTO
        25 002742   100002 756100                    STQ     2,,PR1

      862    28063
      863    28064    4                  END;

      864    28065
      865    28066    3            END ; /* Else Do */

      866    28067
      867    28068                 /* Wrapup DO WHILE */
      868    28069
      869    28070                 %NEW_ILL (@ID = %DEFLB, @LOP = END_LOOP$) ;

  28391 25 002743   000031 236000 26                 LDQ     25
        25 002744   200552 756100                    STQ     LENGTH_ID4$+2,,AUTO
        25 002745   200552 630500                    EPPR0   LENGTH_ID4$+2,,AUTO
        25 002746   200557 450500                    STP0    LENGTH_ID4$+7,,AUTO
        25 002747   000033 236000 26                 LDQ     27
        25 002750   200556 756100                    STQ     LENGTH_ID4$+6,,AUTO
        25 002751   000042 237000 26                 LDAQ    34
        25 002752   200554 757100                    STAQ    LENGTH_ID4$+4,,AUTO
        25 002753   200554 630500                    EPPR0   LENGTH_ID4$+4,,AUTO
        25 002754   000010 631400 26                 EPPR1   8
        25 002755   000000 701000 xent               TSX1    Z8AN$NEW_ILL
        25 002756   000000 011000                    NOP     0

  28400 25 002757   200303 236100                    LDQ     END_LOOP$,,AUTO
        25 002760   000000 470400 1                  LDP0    ILL$
        25 002761   000001 756100                    STQ     1,,PR0

      870    28449
PL6.E3A0      #001=Z8EA$INSPECT_1 File=Z8EA.:Z8A6TSI                             SAT 08/09/97 11:39 Page:186
      871    28450    2            DO_BODY_ILS_LIST = O1COM.ILS_LIST ;

  28450 25 002762   000100 100400                    MLR     fill='000'O
        25 002763   000016 000040 xsym               ADSC9   O1COM+14                 cn=0,n=32
        25 002764   200376 000040                    ADSC9   DO_BODY_ILS_LIST,,AUTO   cn=0,n=32

      872    28451
      873    28452    2            O1COM.ILS_LIST = SAVED_ILS_LIST ;

  28452 25 002765   000000 100500                    MLR     fill='000'O
        25 002766   200366 000040                    ADSC9   SAVED_ILS_LIST,,AUTO     cn=0,n=32
        25 002767   000016 000040 xsym               ADSC9   O1COM+14                 cn=0,n=32

      874    28453
      875    28454    2            COMPARISON$ = ADDR (COMPARISON) ;

  28454 25 002770   200176 631500                    EPPR1   COMPARISON,,AUTO
        25 002771   200277 451500                    STP1    COMPARISON$,,AUTO

      876    28455                 %INIT_BINARY_OP (@POINTER = COMPARISON$,
      877    28456                                  @LOP$    = POINTER$,
      878    28457                                  @OP      = %OP_LESS_THAN,
      879    28458                                  @ROP$    = LENGTH_ID1$,
      880    28459                                  @LINE    = "ID1$ -> LX_ETT_ITEM.LINE",
      881    28460                                  @COLUMN  = "ID1$ -> LX_ETT_ITEM.COLUMN") ;

  28462 25 002772   000005 220003                    LDX0    5,DU
        25 002773   100000 740100                    STX0    0,,PR1

  28463 25 002774   000000 221003                    LDX1    0,DU
        25 002775   200277 470500                    LDP0    COMPARISON$,,AUTO
        25 002776   000000 441100                    SXL1    0,,PR0

  28470 25 002777   200311 470500                    LDP0    ID1$,,AUTO
        25 003000   200277 471500                    LDP1    COMPARISON$,,AUTO
        25 003001   000005 235100                    LDA     5,,PR0
        25 003002   100005 755100                    STA     5,,PR1
PL6.E3A0      #001=Z8EA$INSPECT_1 File=Z8EA.:Z8A6TSI                             SAT 08/09/97 11:39 Page:187

  28471 25 003003   200311 470500                    LDP0    ID1$,,AUTO
        25 003004   200277 471500                    LDP1    COMPARISON$,,AUTO
        25 003005   000006 235100                    LDA     6,,PR0
        25 003006   100006 755100                    STA     6,,PR1

  28472 25 003007   200327 236100                    LDQ     LENGTH_ID1$,,AUTO
        25 003010   200277 470500                    LDP0    COMPARISON$,,AUTO
        25 003011   000002 756100                    STQ     2,,PR0

  28473 25 003012   000001 236000 24                 LDQ     POINTER$
        25 003013   200277 470500                    LDP0    COMPARISON$,,AUTO
        25 003014   000001 756100                    STQ     1,,PR0

  28474 25 003015   000026 235007                    LDA     22,DL
        25 003016   200277 470500                    LDP0    COMPARISON$,,AUTO
        25 003017   000003 755100                    STA     3,,PR0

  28475 25 003020   000005 236000 26                 LDQ     5
        25 003021   200277 470500                    LDP0    COMPARISON$,,AUTO
        25 003022   000007 756100                    STQ     7,,PR0

      882    28478
      883    28479    2            CALL Z8EQ$CREATE_DO_WHILE (COMPARISON$, ADDR(DO_BODY_ILS_LIST) ) ;

  28479 25 003023   200376 630500                    EPPR0   DO_BODY_ILS_LIST,,AUTO
        25 003024   200552 450500                    STP0    LENGTH_ID4$+2,,AUTO
        25 003025   200552 631500                    EPPR1   LENGTH_ID4$+2,,AUTO
        25 003026   200555 451500                    STP1    LENGTH_ID4$+5,,AUTO
        25 003027   200277 633500                    EPPR3   COMPARISON$,,AUTO
        25 003030   200554 453500                    STP3    LENGTH_ID4$+4,,AUTO
        25 003031   200554 630500                    EPPR0   LENGTH_ID4$+4,,AUTO
        25 003032   000000 631400 26                 EPPR1   0
        25 003033   000000 701000 xent               TSX1    Z8EQ$CREATE_DO_WHILE
        25 003034   000000 011000                    NOP     0

      884    28480
PL6.E3A0      #001=Z8EA$INSPECT_1 File=Z8EA.:Z8A6TSI                             SAT 08/09/97 11:39 Page:188
      885    28481    2          END ; /* Not optimizable */

      886    28482
      887    28483               %APPEND_ILS_LIST (@TO$ = "ADDR(O1COM.ILS_LIST)",
      888    28484                                 @FROM$ = "ADDR(CONVERSION_ILS_LIST)") ;

  28490 25 003035   200407 236100                    LDQ     CONVERSION_ILS_LIST+1,,AUTO
        25 003036   000005 116000 26                 CMPQ    5
        25 003037   003053 600000 25                 TZE     s:28502

  28491 25 003040   000017 236000 xsym               LDQ     O1COM+15
        25 003041   000005 116000 26                 CMPQ    5
        25 003042   003046 601000 25                 TNZ     s:28495

  28492 25 003043   200407 236100                    LDQ     CONVERSION_ILS_LIST+1,,AUTO
        25 003044   000017 756000 xsym               STQ     O1COM+15

  28493 25 003045   003051 710000 25                 TRA     s:28497

  28495 25 003046   200407 236100                    LDQ     CONVERSION_ILS_LIST+1,,AUTO
        25 003047   000020 470400 xsym               LDP0    O1COM+16
        25 003050   000002 756100                    STQ     2,,PR0

  28497 25 003051   200410 236100                    LDQ     CONVERSION_ILS_LIST+2,,AUTO
        25 003052   000020 756000 xsym               STQ     O1COM+16

      889    28501
      890    28502    1          RETURN ;

  28502 25 003053   000000 702200 xent               TSX2  ! X66_ARET

      891    28503
      892    28504
      893    28505        %EJECT;
PL6.E3A0      #001=Z8EA$INSPECT_1 File=Z8EA.:Z8A6TSI                             SAT 08/09/97 11:39 Page:189
      894    28506        /*==============*/
      895    28507    1     Z8EA$INSPECT_2: ENTRY (INSPECT$) ; /* Inspect Replacing */

  28507 25 003054   000000 700200 xent  Z8EA$INSPEC* TSX0  ! X66_AUTO_1
        25 003055   000564 000001                    ZERO    372,1

      896    28508        /*==============*/
      897    28509
      898    28510               /*V* INSPECT_REPLACING_PASS_2 */
      899    28511
      900    28512    1          ONE_LX_ETT$ = ADDR (ONE) ;

  28512 25 003056   200116 630500                    EPPR0   ONE,,AUTO
        25 003057   200336 450500                    STP0    ONE_LX_ETT$,,AUTO

      901    28513    1          CALL Z8AC$LX_ETT_ITEM_TYI_CONST (1, ONE_LX_ETT$) ;

  28513 25 003060   200336 631500                    EPPR1   ONE_LX_ETT$,,AUTO
        25 003061   200553 451500                    STP1    LENGTH_ID4$+3,,AUTO
        25 003062   000002 236000 26                 LDQ     2
        25 003063   200552 756100                    STQ     LENGTH_ID4$+2,,AUTO
        25 003064   200552 630500                    EPPR0   LENGTH_ID4$+2,,AUTO
        25 003065   000000 631400 26                 EPPR1   0
        25 003066   000000 701000 xent               TSX1    Z8AC$LX_ETT_ITEM_TYI_CONST
        25 003067   000000 011000                    NOP     0

      902    28514    1          ONE$ = ONE_LX_ETT$ -> LX_ETT_ITEM.ETT$ ;

  28514 25 003070   200336 470500                    LDP0    ONE_LX_ETT$,,AUTO
        25 003071   000001 236100                    LDQ     1,,PR0
        25 003072   200335 756100                    STQ     ONE$,,AUTO

      903    28515    1          TWO_LX_ETT$ = ADDR (TWO) ;

  28515 25 003073   200126 631500                    EPPR1   TWO,,AUTO
        25 003074   200354 451500                    STP1    TWO_LX_ETT$,,AUTO

PL6.E3A0      #001=Z8EA$INSPECT_1 File=Z8EA.:Z8A6TSI                             SAT 08/09/97 11:39 Page:190
      904    28516    1          CALL Z8AC$LX_ETT_ITEM_TYI_CONST (2, TWO_LX_ETT$) ;

  28516 25 003075   200354 633500                    EPPR3   TWO_LX_ETT$,,AUTO
        25 003076   200553 453500                    STP3    LENGTH_ID4$+3,,AUTO
        25 003077   000004 236000 26                 LDQ     4
        25 003100   200552 756100                    STQ     LENGTH_ID4$+2,,AUTO
        25 003101   200552 630500                    EPPR0   LENGTH_ID4$+2,,AUTO
        25 003102   000000 631400 26                 EPPR1   0
        25 003103   000000 701000 xent               TSX1    Z8AC$LX_ETT_ITEM_TYI_CONST
        25 003104   000000 011000                    NOP     0

      905    28517    1          TWO$ = TWO_LX_ETT$ -> LX_ETT_ITEM.ETT$ ;

  28517 25 003105   200354 470500                    LDP0    TWO_LX_ETT$,,AUTO
        25 003106   000001 236100                    LDQ     1,,PR0
        25 003107   200353 756100                    STQ     TWO$,,AUTO

      906    28518
      907    28519               %INIT_ILS_LIST (@POINTER = "ADDR(CONVERSION_ILS_LIST)") ;

  28521 25 003110   000007 220003                    LDX0    7,DU
        25 003111   200406 740100                    STX0    CONVERSION_ILS_LIST,,AUTO

  28522 25 003112   000005 236000 26                 LDQ     5
        25 003113   200407 756100                    STQ     CONVERSION_ILS_LIST+1,,AUTO

  28523 25 003114   200410 756100                    STQ     CONVERSION_ILS_LIST+2,,AUTO

  28524 25 003115   200415 756100                    STQ     CONVERSION_ILS_LIST+7,,AUTO

      908    28527    1          PRODUCE_INSPECT_ILS = TRUE ;

  28527 25 003116   400000 236003                    LDQ     -131072,DU
        25 003117   200341 756100                    STQ     PRODUCE_INSPECT_ILS,,AUTO

      909    28528
      910    28529    1          ID1$ = ADDR (ID1) ;
PL6.E3A0      #001=Z8EA$INSPECT_1 File=Z8EA.:Z8A6TSI                             SAT 08/09/97 11:39 Page:191

  28529 25 003120   200166 631500                    EPPR1   ID1,,AUTO
        25 003121   200311 451500                    STP1    ID1$,,AUTO

      911    28530    1          ID1_ORIG_TYPE = INSPECT$-> INSPECT_2_STMT.ID_1$-> LX_ETT_ITEM.TYPE;

  28530 25 003122   200003 473500                    LDP3    @INSPECT$,,AUTO
        25 003123   300000 474500                    LDP4    0,,PR3
        25 003124   400002 475500                    LDP5    2,,PR4
        25 003125   500004 235100                    LDA     4,,PR5
        25 003126   200310 755100                    STA     ID1_ORIG_TYPE,,AUTO

      912    28531    1          IF INSPECT$ -> INSPECT_2_STMT.ID_1$ -> LX_ETT_ITEM.B.HIGH_LEV THEN

  28531 25 003127   500000 236100                    LDQ     0,,PR5
        25 003130   004000 316007                    CANQ    2048,DL
        25 003131   003134 600000 25                 TZE     s:28533

      913    28532    1            INSPECT$ -> INSPECT_2_STMT.HIGH_LEV = TRUE;

  28532 25 003132   400000 236007                    LDQ     -131072,DL
        25 003133   400000 256100                    ORSQ    0,,PR4

      914    28533    1          CALL VERIFY_ALPHA_DEF (INSPECT$ -> INSPECT_2_STMT.ID_1$, ID1$) ;

  28533 25 003134   300000 470500                    LDP0    0,,PR3
        25 003135   200311 631500                    EPPR1   ID1$,,AUTO
        25 003136   200420 451500                    STP1    @ID$+1,,AUTO
        25 003137   000002 634500                    EPPR4   2,,PR0
        25 003140   200417 454500                    STP4    CONVERSION_ILS_LIST+9,,AUTO
        25 003141   012576 701000 25                 TSX1    VERIFY_ALPHA_DEF
        25 003142   000000 011000                    NOP     0

      915    28534
      916    28535    1          NO_OF_CLAUSES = 0 ;

  28535 25 003143   200334 450100                    STZ     NO_OF_CLAUSES,,AUTO
PL6.E3A0      #001=Z8EA$INSPECT_1 File=Z8EA.:Z8A6TSI                             SAT 08/09/97 11:39 Page:192

      917    28536    1          REPLACE$ = INSPECT$ -> INSPECT_2_STMT.INSP_2_REPLACE$ -> LX_LIST.HEAD$ ;

  28536 25 003144   200003 470500                    LDP0    @INSPECT$,,AUTO
        25 003145   000000 471500                    LDP1    0,,PR0
        25 003146   100003 473500                    LDP3    3,,PR1
        25 003147   300004 236100                    LDQ     4,,PR3
        25 003150   200342 756100                    STQ     REPLACE$,,AUTO

      918    28537
      919    28538    2          DO WHILE (REPLACE$ ~= ADDR(NIL)) ;

  28538 25 003151   003461 710000 25                 TRA     s:28639

      920    28539
      921    28540    2            CLAUSE_TYPE = REPLACE$ -> LX_LIST.HEAD$ -> LX_TERMINAL.SYMBOL ;

  28540 25 003152   200342 470500                    LDP0    REPLACE$,,AUTO
        25 003153   000004 471500                    LDP1    4,,PR0
        25 003154   100003 235100                    LDA     3,,PR1
        25 003155   200276 755100                    STA     CLAUSE_TYPE,,AUTO

      922    28541
      923    28542    3            IF CLAUSE_TYPE = %RSV_WRD_CHARACTERS THEN DO ;

  28542 25 003156   000120 115007                    CMPA    80,DL
        25 003157   003301 601000 25                 TNZ     s:28584

      924    28543
      925    28544    3              NO_OF_CLAUSES = NO_OF_CLAUSES + 1 ;

  28544 25 003160   200334 054100                    AOS     NO_OF_CLAUSES,,AUTO

      926    28545
      927    28546    3              ID5$ = REPLACE$ -> LX_LIST.HEAD$ -> LX_TERMINAL.LINK ;

  28546 25 003161   000004 471500                    LDP1    4,,PR0
PL6.E3A0      #001=Z8EA$INSPECT_1 File=Z8EA.:Z8A6TSI                             SAT 08/09/97 11:39 Page:193
        25 003162   100007 236100                    LDQ     7,,PR1
        25 003163   200317 756100                    STQ     ID5$,,AUTO

      928    28547    3              IF INSPECT$-> INSPECT_2_STMT.KEY_WORD$->

  28547 25 003164   200003 471500                    LDP1    @INSPECT$,,AUTO
        25 003165   100000 473500                    LDP3    0,,PR1
        25 003166   300001 474500                    LDP4    1,,PR3
        25 003167   400003 235100                    LDA     3,,PR4
        25 003170   000304 115007                    CMPA    196,DL
        25 003171   003213 601000 25                 TNZ     s:28554

      929    28548    3                 LX_TERMINAL.SYMBOL = %RSV_WRD_EXAMINE  THEN
      930    28549    4                DO;

      931    28550    4                  CALL EXAMINE_ID_CHECK( ID1$, ID5$ );

  28550 25 003172   200317 635500                    EPPR5   ID5$,,AUTO
        25 003173   200460 455500                    STP5    BEGAIN_INDEX$+1,,AUTO
        25 003174   200311 633500                    EPPR3   ID1$,,AUTO
        25 003175   200457 453500                    STP3    BEFORE_AFTER_TYPE+3,,AUTO
        25 003176   013231 701000 25                 TSX1    EXAMINE_ID_CHECK
        25 003177   000000 011000                    NOP     0

      932    28551    4                  CALL Z8EV$CONVERT_TYA (ID5$, ID5$, ID1$) ;

  28551 25 003200   200311 630500                    EPPR0   ID1$,,AUTO
        25 003201   200554 450500                    STP0    LENGTH_ID4$+4,,AUTO
        25 003202   200317 631500                    EPPR1   ID5$,,AUTO
        25 003203   200553 451500                    STP1    LENGTH_ID4$+3,,AUTO
        25 003204   200317 633500                    EPPR3   ID5$,,AUTO
        25 003205   200552 453500                    STP3    LENGTH_ID4$+2,,AUTO
        25 003206   200552 630500                    EPPR0   LENGTH_ID4$+2,,AUTO
        25 003207   000044 631400 26                 EPPR1   36
        25 003210   000000 701000 xent               TSX1    Z8EV$CONVERT_TYA
        25 003211   000000 011000                    NOP     0

PL6.E3A0      #001=Z8EA$INSPECT_1 File=Z8EA.:Z8A6TSI                             SAT 08/09/97 11:39 Page:194
      933    28552    4                END;

  28552 25 003212   003217 710000 25                 TRA     s:28558

      934    28553    3              ELSE
      935    28554    3                CALL VERIFY_ALPHA_REF ( ID5$ );

  28554 25 003213   200317 635500                    EPPR5   ID5$,,AUTO
        25 003214   200463 455500                    STP5    COUNT+1,,AUTO
        25 003215   013116 701000 25                 TSX1    VERIFY_ALPHA_REF
        25 003216   000000 011000                    NOP     0

      936    28555
      937    28556                   /* Check id5 for length of one */
      938    28557
      939    28558    3              IF PRODUCE_INSPECT_ILS THEN

  28558 25 003217   200341 234100                    SZN     PRODUCE_INSPECT_ILS,,AUTO
        25 003220   003262 605000 25                 TPL     s:28574

      940    28559    4                DO;

      941    28560    4                  CALL Z8AU$TYPE_DESCRIPTOR (ID5$ -> LX_ETT_ITEM.ETT$,

  28560 25 003221   200362 630500                    EPPR0   ID5_DESC,,AUTO
        25 003222   200553 450500                    STP0    LENGTH_ID4$+3,,AUTO
        25 003223   200317 236100                    LDQ     ID5$,,AUTO
        25 003224   000001 036003                    ADLQ    1,DU
        25 003225   200552 756100                    STQ     LENGTH_ID4$+2,,AUTO
        25 003226   200552 630500                    EPPR0   LENGTH_ID4$+2,,AUTO
        25 003227   000000 631400 26                 EPPR1   0
        25 003230   000000 701000 xent               TSX1    Z8AU$TYPE_DESCRIPTOR
        25 003231   000000 011000                    NOP     0

      942    28561    4                                             ID5_DESC) ;
      943    28562    4                  IF ID5_DESC.SIZ$ = ADDR(NIL) THEN

PL6.E3A0      #001=Z8EA$INSPECT_1 File=Z8EA.:Z8A6TSI                             SAT 08/09/97 11:39 Page:195
  28562 25 003232   200364 236100                    LDQ     ID5_DESC+2,,AUTO
        25 003233   000005 116000 26                 CMPQ    5
        25 003234   003262 601000 25                 TNZ     s:28574

      944    28563    4                    IF ID5_DESC.DESC.ADSC.N ~= 1 THEN

  28563 25 003235   200363 236100                    LDQ     ID5_DESC+1,,AUTO
        25 003236   007777 376007                    ANQ     4095,DL
        25 003237   000001 116007                    CMPQ    1,DL
        25 003240   003262 600000 25                 TZE     s:28574

      945    28564    4                      IF  ID5_DESC.DESC.ADSC.N = 2

  28564 25 003241   000002 116007                    CMPQ    2,DL
        25 003242   003247 601000 25                 TNZ     s:28568
        25 003243   200311 470500                    LDP0    ID1$,,AUTO
        25 003244   000004 235100                    LDA     4,,PR0
        25 003245   000016 115007                    CMPA    14,DL
        25 003246   003262 600000 25                 TZE     s:28574

      946    28565    4                      AND ID1$ -> LX_ITEM.TYPE = %TYN
      947    28566    4                      THEN ;         /* OK    */
      948    28567    5                      ELSE DO;       /* Error */

      949    28568    5                        CALL Z8AE$ERROR (%E$INSPECT_NOT_1_BYTE,

  28568 25 003247   200317 236100                    LDQ     ID5$,,AUTO
        25 003250   000006 036003                    ADLQ    6,DU
        25 003251   200554 756100                    STQ     LENGTH_ID4$+4,,AUTO
        25 003252   200317 236100                    LDQ     ID5$,,AUTO
        25 003253   000005 036003                    ADLQ    5,DU
        25 003254   000046 235000 26                 LDA     38
        25 003255   200552 757100                    STAQ    LENGTH_ID4$+2,,AUTO
        25 003256   200552 630500                    EPPR0   LENGTH_ID4$+2,,AUTO
        25 003257   000044 631400 26                 EPPR1   36
        25 003260   000000 701000 xent               TSX1    Z8AE$ERROR
        25 003261   000000 011000                    NOP     0
PL6.E3A0      #001=Z8EA$INSPECT_1 File=Z8EA.:Z8A6TSI                             SAT 08/09/97 11:39 Page:196

      950    28569    5                                         ID5$ -> LX_ITEM.LINE,
      951    28570    5                                         ID5$ -> LX_ITEM.COLUMN) ;
      952    28571    5                      END ;

      953    28572    4                END;  /* if produce_inspect_ils */

      954    28573
      955    28574    3              CALL SCAN_BEFORE_AFTER (REPLACE$ -> LX_LIST.TAIL$,

  28574 25 003262   200311 630500                    EPPR0   ID1$,,AUTO
        25 003263   200422 450500                    STP0    @ID$+1,,AUTO
        25 003264   000007 236000 26                 LDQ     7
        25 003265   200421 756100                    STQ     @LINK$+1,,AUTO
        25 003266   200317 236100                    LDQ     ID5$,,AUTO
        25 003267   000007 036003                    ADLQ    7,DU
        25 003270   200420 756100                    STQ     @ID$+1,,AUTO
        25 003271   200342 236100                    LDQ     REPLACE$,,AUTO
        25 003272   000001 036003                    ADLQ    1,DU
        25 003273   200417 756100                    STQ     CONVERSION_ILS_LIST+9,,AUTO
        25 003274   013540 701000 25                 TSX1    SCAN_BEFORE_AFTER
        25 003275   000000 011000                    NOP     0

      956    28575    3                                      ID5$ -> LX_ETT_ITEM.LINK,
      957    28576    3                                      %RSV_WRD_CHARACTERS,
      958    28577    3                                      ID1$) ;
      959    28578
      960    28579    3              LENGTH_ID5$ = ADDR(LENGTH_ID5) ;

  28579 25 003276   200066 630500                    EPPR0   LENGTH_ID5,,AUTO
        25 003277   200332 450500                    STP0    LENGTH_ID5$,,AUTO

      961    28580    3            END ;

  28580 25 003300   003456 710000 25                 TRA     s:28637

      962    28581
PL6.E3A0      #001=Z8EA$INSPECT_1 File=Z8EA.:Z8A6TSI                             SAT 08/09/97 11:39 Page:197
      963    28582    3            ELSE DO ; /* ALL, LEADING, or FIRST */

      964    28583
      965    28584    3              FIRST$ = REPLACE$ -> LX_LIST.TAIL$ -> LX_LIST.HEAD$ ;

  28584 25 003301   000001 471500                    LDP1    1,,PR0
        25 003302   100004 236100                    LDQ     4,,PR1
        25 003303   200304 756100                    STQ     FIRST$,,AUTO

      966    28585
      967    28586    4              DO WHILE (FIRST$ ~= ADDR(NIL)) ;

  28586 25 003304   003452 710000 25                 TRA     s:28632

      968    28587
      969    28588    4                NO_OF_CLAUSES = NO_OF_CLAUSES + 1 ;

  28588 25 003305   200334 054100                    AOS     NO_OF_CLAUSES,,AUTO

      970    28589
      971    28590    4                ID3$ = FIRST$ -> LX_LIST.HEAD$ ;

  28590 25 003306   200304 470500                    LDP0    FIRST$,,AUTO
        25 003307   000004 236100                    LDQ     4,,PR0
        25 003310   200314 756100                    STQ     ID3$,,AUTO

      972    28591    4                ID5$ = ID3$ -> LX_LIST.LINK ;

  28591 25 003311   200314 471500                    LDP1    ID3$,,AUTO
        25 003312   100007 236100                    LDQ     7,,PR1
        25 003313   200317 756100                    STQ     ID5$,,AUTO

      973    28592    4                IF INSPECT$-> INSPECT_2_STMT.KEY_WORD$->

  28592 25 003314   200003 473500                    LDP3    @INSPECT$,,AUTO
        25 003315   300000 474500                    LDP4    0,,PR3
        25 003316   400001 475500                    LDP5    1,,PR4
PL6.E3A0      #001=Z8EA$INSPECT_1 File=Z8EA.:Z8A6TSI                             SAT 08/09/97 11:39 Page:198
        25 003317   500003 235100                    LDA     3,,PR5
        25 003320   000304 115007                    CMPA    196,DL
        25 003321   003351 601000 25                 TNZ     s:28601

      974    28593    4                   LX_TERMINAL.SYMBOL = %RSV_WRD_EXAMINE  THEN
      975    28594    5                  DO;

      976    28595    5                    CALL EXAMINE_ID_CHECK (ID1$, ID3$);

  28595 25 003322   200314 636500                    EPPR6   ID3$,,AUTO
        25 003323   200460 456500                    STP6    BEGAIN_INDEX$+1,,AUTO
        25 003324   200311 634500                    EPPR4   ID1$,,AUTO
        25 003325   200457 454500                    STP4    BEFORE_AFTER_TYPE+3,,AUTO
        25 003326   013231 701000 25                 TSX1    EXAMINE_ID_CHECK
        25 003327   000000 011000                    NOP     0

      977    28596    5                    CALL EXAMINE_ID_CHECK (ID1$, ID5$);

  28596 25 003330   200317 630500                    EPPR0   ID5$,,AUTO
        25 003331   200460 450500                    STP0    BEGAIN_INDEX$+1,,AUTO
        25 003332   200311 631500                    EPPR1   ID1$,,AUTO
        25 003333   200457 451500                    STP1    BEFORE_AFTER_TYPE+3,,AUTO
        25 003334   013231 701000 25                 TSX1    EXAMINE_ID_CHECK
        25 003335   000000 011000                    NOP     0

      978    28597    5                    CALL Z8EV$CONVERT_TYA (ID5$, ID5$, ID1$) ;

  28597 25 003336   200311 630500                    EPPR0   ID1$,,AUTO
        25 003337   200554 450500                    STP0    LENGTH_ID4$+4,,AUTO
        25 003340   200317 631500                    EPPR1   ID5$,,AUTO
        25 003341   200553 451500                    STP1    LENGTH_ID4$+3,,AUTO
        25 003342   200317 633500                    EPPR3   ID5$,,AUTO
        25 003343   200552 453500                    STP3    LENGTH_ID4$+2,,AUTO
        25 003344   200552 630500                    EPPR0   LENGTH_ID4$+2,,AUTO
        25 003345   000044 631400 26                 EPPR1   36
        25 003346   000000 701000 xent               TSX1    Z8EV$CONVERT_TYA
        25 003347   000000 011000                    NOP     0
PL6.E3A0      #001=Z8EA$INSPECT_1 File=Z8EA.:Z8A6TSI                             SAT 08/09/97 11:39 Page:199

      979    28598    5                  END;

  28598 25 003350   003433 710000 25                 TRA     s:28625

      980    28599    4                ELSE  /* inspect statement */
      981    28600    5                  DO;

      982    28601    5                    CALL VERIFY_ALPHA_REF_LEV ( ID3$ );

  28601 25 003351   200314 636500                    EPPR6   ID3$,,AUTO
        25 003352   200463 456500                    STP6    COUNT+1,,AUTO
        25 003353   013026 701000 25                 TSX1    VERIFY_ALPHA_REF_LEV
        25 003354   000000 011000                    NOP     0

      983    28602    5                    CALL VERIFY_ALPHA_REF_LEV ( ID5$ );

  28602 25 003355   200317 630500                    EPPR0   ID5$,,AUTO
        25 003356   200463 450500                    STP0    COUNT+1,,AUTO
        25 003357   013026 701000 25                 TSX1    VERIFY_ALPHA_REF_LEV
        25 003360   000000 011000                    NOP     0

      984    28603
      985    28604                         /* Size (id3) must equal Size (id5) */
      986    28605
      987    28606    5                    IF  PRODUCE_INSPECT_ILS

  28606 25 003361   200341 234100                    SZN     PRODUCE_INSPECT_ILS,,AUTO
        25 003362   003433 605000 25                 TPL     s:28625
        25 003363   200317 470500                    LDP0    ID5$,,AUTO
        25 003364   000000 236100                    LDQ     0,,PR0
        25 003365   040000 316007                    CANQ    16384,DL
        25 003366   003433 601000 25                 TNZ     s:28625

      988    28607    5                    AND NOT ID5$-> LX_ETT_ITEM.B.ALL THEN
      989    28608    6                      DO;

PL6.E3A0      #001=Z8EA$INSPECT_1 File=Z8EA.:Z8A6TSI                             SAT 08/09/97 11:39 Page:200
      990    28609
      991    28610    6                        CALL Z8AU$TYPE_DESCRIPTOR (ID3$-> LX_ETT_ITEM.ETT$,

  28610 25 003367   200356 631500                    EPPR1   ID3_DESC,,AUTO
        25 003370   200553 451500                    STP1    LENGTH_ID4$+3,,AUTO
        25 003371   200314 236100                    LDQ     ID3$,,AUTO
        25 003372   000001 036003                    ADLQ    1,DU
        25 003373   200552 756100                    STQ     LENGTH_ID4$+2,,AUTO
        25 003374   200552 630500                    EPPR0   LENGTH_ID4$+2,,AUTO
        25 003375   000000 631400 26                 EPPR1   0
        25 003376   000000 701000 xent               TSX1    Z8AU$TYPE_DESCRIPTOR
        25 003377   000000 011000                    NOP     0

      992    28611    6                                                   ID3_DESC) ;
      993    28612    6                        CALL Z8AU$TYPE_DESCRIPTOR (ID5$-> LX_ETT_ITEM.ETT$,

  28612 25 003400   200362 630500                    EPPR0   ID5_DESC,,AUTO
        25 003401   200553 450500                    STP0    LENGTH_ID4$+3,,AUTO
        25 003402   200317 236100                    LDQ     ID5$,,AUTO
        25 003403   000001 036003                    ADLQ    1,DU
        25 003404   200552 756100                    STQ     LENGTH_ID4$+2,,AUTO
        25 003405   200552 630500                    EPPR0   LENGTH_ID4$+2,,AUTO
        25 003406   000000 631400 26                 EPPR1   0
        25 003407   000000 701000 xent               TSX1    Z8AU$TYPE_DESCRIPTOR
        25 003410   000000 011000                    NOP     0

      994    28613    6                                                   ID5_DESC) ;
      995    28614    6                        IF ID3_DESC.SIZ$ ~= ID5_DESC.SIZ$

  28614 25 003411   200360 236100                    LDQ     ID3_DESC+2,,AUTO
        25 003412   200364 116100                    CMPQ    ID5_DESC+2,,AUTO
        25 003413   003420 601000 25                 TNZ     s:28617
        25 003414   200357 236100                    LDQ     ID3_DESC+1,,AUTO
        25 003415   200363 676100                    ERQ     ID5_DESC+1,,AUTO
        25 003416   007777 376007                    ANQ     4095,DL
        25 003417   003433 600000 25                 TZE     s:28625

PL6.E3A0      #001=Z8EA$INSPECT_1 File=Z8EA.:Z8A6TSI                             SAT 08/09/97 11:39 Page:201
      996    28615    6                        OR ID3_DESC.DESC.ADSC.N ~= ID5_DESC.DESC.ADSC.N THEN
      997    28616    7                          DO;     /* Error */

      998    28617    7                            CALL Z8AE$ERROR (%E$INSPECT_ID3_N_NE_ID5_N,

  28617 25 003420   200317 236100                    LDQ     ID5$,,AUTO
        25 003421   000006 036003                    ADLQ    6,DU
        25 003422   200554 756100                    STQ     LENGTH_ID4$+4,,AUTO
        25 003423   200317 236100                    LDQ     ID5$,,AUTO
        25 003424   000005 036003                    ADLQ    5,DU
        25 003425   000050 235000 26                 LDA     40
        25 003426   200552 757100                    STAQ    LENGTH_ID4$+2,,AUTO
        25 003427   200552 630500                    EPPR0   LENGTH_ID4$+2,,AUTO
        25 003430   000044 631400 26                 EPPR1   36
        25 003431   000000 701000 xent               TSX1    Z8AE$ERROR
        25 003432   000000 011000                    NOP     0

      999    28618    7                                             ID5$ -> LX_ITEM.LINE,
     1000    28619    7                                             ID5$ -> LX_ITEM.COLUMN) ;
     1001    28620    7                          END ; /* length(id3) <> length(id5) */

     1002    28621
     1003    28622    6                      END ; /* id5 is not a figurative constant */

     1004    28623    5                  END;  /* inspect statement */

     1005    28624
     1006    28625    4                CALL SCAN_BEFORE_AFTER (FIRST$ -> LX_LIST.TAIL$,

  28625 25 003433   200311 630500                    EPPR0   ID1$,,AUTO
        25 003434   200422 450500                    STP0    @ID$+1,,AUTO
        25 003435   200276 631500                    EPPR1   CLAUSE_TYPE,,AUTO
        25 003436   200421 451500                    STP1    @LINK$+1,,AUTO
        25 003437   200317 236100                    LDQ     ID5$,,AUTO
        25 003440   000007 036003                    ADLQ    7,DU
        25 003441   200420 756100                    STQ     @ID$+1,,AUTO
        25 003442   200304 236100                    LDQ     FIRST$,,AUTO
PL6.E3A0      #001=Z8EA$INSPECT_1 File=Z8EA.:Z8A6TSI                             SAT 08/09/97 11:39 Page:202
        25 003443   000001 036003                    ADLQ    1,DU
        25 003444   200417 756100                    STQ     CONVERSION_ILS_LIST+9,,AUTO
        25 003445   013540 701000 25                 TSX1    SCAN_BEFORE_AFTER
        25 003446   000000 011000                    NOP     0

     1007    28626    4                                        ID5$ -> LX_ETT_ITEM.LINK,
     1008    28627    4                                        CLAUSE_TYPE,
     1009    28628    4                                        ID1$) ;
     1010    28629
     1011    28630    4                FIRST$ = FIRST$ -> LX_LIST.LINK ;

  28630 25 003447   200304 470500                    LDP0    FIRST$,,AUTO
        25 003450   000007 236100                    LDQ     7,,PR0
        25 003451   200304 756100                    STQ     FIRST$,,AUTO

     1012    28631
     1013    28632    4              END /* Do While */ ;

  28632 25 003452   000005 116000 26                 CMPQ    5
        25 003453   003305 601000 25                 TNZ     s:28588

     1014    28633
     1015    28634    3              LENGTH_ID3$ = ADDR (LENGTH_ID3) ;

  28634 25 003454   200046 630500                    EPPR0   LENGTH_ID3,,AUTO
        25 003455   200330 450500                    STP0    LENGTH_ID3$,,AUTO

     1016    28635    3            END /* ELSE DO (ALL, LEADING, FIRST) */ ;

     1017    28636
     1018    28637    2            REPLACE$ = REPLACE$ -> LX_LIST.LINK ;

  28637 25 003456   200342 470500                    LDP0    REPLACE$,,AUTO
        25 003457   000007 236100                    LDQ     7,,PR0
        25 003460   200342 756100                    STQ     REPLACE$,,AUTO

     1019    28638
PL6.E3A0      #001=Z8EA$INSPECT_1 File=Z8EA.:Z8A6TSI                             SAT 08/09/97 11:39 Page:203
     1020    28639    2          END /* Do While */ ;

  28639 25 003461   000005 116000 26                 CMPQ    5
        25 003462   003152 601000 25                 TNZ     s:28540

     1021    28640
     1022    28641        %EJECT;
PL6.E3A0      #001=Z8EA$INSPECT_1 File=Z8EA.:Z8A6TSI                             SAT 08/09/97 11:39 Page:204
     1023    28642               /*======================*/
     1024    28643               /*V* Local_Optimizations [see (6) thru (12) above] */
     1025    28644               /*======================*/
     1026    28645
     1027    28646    1          IF PRODUCE_INSPECT_ILS = FALSE THEN RETURN ;

  28646 25 003463   200341 234100                    SZN     PRODUCE_INSPECT_ILS,,AUTO
        25 003464   003466 604000 25                 TMI     s:28648

  28646 25 003465   000000 702200 xent               TSX2  ! X66_ARET

     1028    28647
     1029    28648    1          OPTIMIZABLE = (NO_OF_CLAUSES = 1) ;

  28648 25 003466   400000 220003                    LDX0    -131072,DU
        25 003467   200334 235100                    LDA     NO_OF_CLAUSES,,AUTO
        25 003470   000001 115007                    CMPA    1,DL
        25 003471   003473 600000 25                 TZE     s:28648+5
        25 003472   000000 220003                    LDX0    0,DU
        25 003473   000000 636010                    EAQ     0,X0
        25 003474   200337 756100                    STQ     OPTIMIZABLE,,AUTO

     1030    28649
     1031    28650               /* id-5 must be a one-byte constant */
     1032    28651
     1033    28652    1          IF INSPECT$ -> INSPECT_2_STMT.KEY_WORD$ ->

  28652 25 003475   200003 470500                    LDP0    @INSPECT$,,AUTO
        25 003476   000000 471500                    LDP1    0,,PR0
        25 003477   100001 473500                    LDP3    1,,PR1
        25 003500   300003 235100                    LDA     3,,PR3
        25 003501   000304 115007                    CMPA    196,DL
        25 003502   003514 601000 25                 TNZ     s:28658

     1034    28653    2            LX_TERMINAL.SYMBOL = %RSV_WRD_EXAMINE THEN DO ;

     1035    28654    2            CALL Z8AU$TYPE_DESCRIPTOR (ID5$-> LX_ETT_ITEM.ETT$,
PL6.E3A0      #001=Z8EA$INSPECT_1 File=Z8EA.:Z8A6TSI                             SAT 08/09/97 11:39 Page:205

  28654 25 003503   200362 634500                    EPPR4   ID5_DESC,,AUTO
        25 003504   200553 454500                    STP4    LENGTH_ID4$+3,,AUTO
        25 003505   200317 236100                    LDQ     ID5$,,AUTO
        25 003506   000001 036003                    ADLQ    1,DU
        25 003507   200552 756100                    STQ     LENGTH_ID4$+2,,AUTO
        25 003510   200552 630500                    EPPR0   LENGTH_ID4$+2,,AUTO
        25 003511   000000 631400 26                 EPPR1   0
        25 003512   000000 701000 xent               TSX1    Z8AU$TYPE_DESCRIPTOR
        25 003513   000000 011000                    NOP     0

     1036    28655    2                                       ID5_DESC) ;
     1037    28656    2          END ; /* Statement type is EXAMINE */

     1038    28657
     1039    28658    1          IF ID5_DESC.SIZ$ ~= ADDR(NIL)

  28658 25 003514   200364 236100                    LDQ     ID5_DESC+2,,AUTO
        25 003515   000005 116000 26                 CMPQ    5
        25 003516   003530 601000 25                 TNZ     s:28661
        25 003517   200363 236100                    LDQ     ID5_DESC+1,,AUTO
        25 003520   007777 376007                    ANQ     4095,DL
        25 003521   000001 116007                    CMPQ    1,DL
        25 003522   003530 601000 25                 TNZ     s:28661
        25 003523   200317 470500                    LDP0    ID5$,,AUTO
        25 003524   000001 471500                    LDP1    1,,PR0
        25 003525   100000 220100                    LDX0    0,,PR1
        25 003526   000015 100003                    CMPX0   13,DU
        25 003527   003531 600000 25                 TZE     s:28663

     1040    28659    1          OR ID5_DESC.DESC.ADSC.N ~= 1
     1041    28660    1          OR ID5$ -> LX_ETT_ITEM.ETT$ ->ETT.ID ~= %TRIAD
     1042    28661    1          THEN OPTIMIZABLE = FALSE ;

  28661 25 003530   200337 450100                    STZ     OPTIMIZABLE,,AUTO

     1043    28662
PL6.E3A0      #001=Z8EA$INSPECT_1 File=Z8EA.:Z8A6TSI                             SAT 08/09/97 11:39 Page:206
     1044    28663    2          DO CASE (CLAUSE_TYPE) ;

  28663 25 003531   200276 235100                    LDA     CLAUSE_TYPE,,AUTO
        25 003532   000046 135007                    SBLA    38,DL
        25 003533   000350 115007                    CMPA    232,DL
        25 003534   003536 602005 25                 TNC     s:28663+5,AL
        25 003535   004116 710000 25                 TRA     s:28683
        25 003536   004110 710000 25                 TRA     s:28673
        25 003537   004116 710000 25                 TRA     s:28683
        25 003540   004116 710000 25                 TRA     s:28683
        25 003541   004116 710000 25                 TRA     s:28683
        25 003542   004116 710000 25                 TRA     s:28683
        25 003543   004116 710000 25                 TRA     s:28683
        25 003544   004116 710000 25                 TRA     s:28683
        25 003545   004116 710000 25                 TRA     s:28683
        25 003546   004116 710000 25                 TRA     s:28683
        25 003547   004116 710000 25                 TRA     s:28683
        25 003550   004116 710000 25                 TRA     s:28683
        25 003551   004116 710000 25                 TRA     s:28683
        25 003552   004116 710000 25                 TRA     s:28683
        25 003553   004116 710000 25                 TRA     s:28683
        25 003554   004116 710000 25                 TRA     s:28683
        25 003555   004116 710000 25                 TRA     s:28683
        25 003556   004116 710000 25                 TRA     s:28683
        25 003557   004116 710000 25                 TRA     s:28683
        25 003560   004116 710000 25                 TRA     s:28683
        25 003561   004116 710000 25                 TRA     s:28683
        25 003562   004116 710000 25                 TRA     s:28683
        25 003563   004116 710000 25                 TRA     s:28683
        25 003564   004116 710000 25                 TRA     s:28683
        25 003565   004116 710000 25                 TRA     s:28683
        25 003566   004116 710000 25                 TRA     s:28683
        25 003567   004116 710000 25                 TRA     s:28683
        25 003570   004116 710000 25                 TRA     s:28683
        25 003571   004116 710000 25                 TRA     s:28683
        25 003572   004116 710000 25                 TRA     s:28683
        25 003573   004116 710000 25                 TRA     s:28683
PL6.E3A0      #001=Z8EA$INSPECT_1 File=Z8EA.:Z8A6TSI                             SAT 08/09/97 11:39 Page:207
        25 003574   004116 710000 25                 TRA     s:28683
        25 003575   004116 710000 25                 TRA     s:28683
        25 003576   004116 710000 25                 TRA     s:28683
        25 003577   004116 710000 25                 TRA     s:28683
        25 003600   004116 710000 25                 TRA     s:28683
        25 003601   004116 710000 25                 TRA     s:28683
        25 003602   004116 710000 25                 TRA     s:28683
        25 003603   004116 710000 25                 TRA     s:28683
        25 003604   004116 710000 25                 TRA     s:28683
        25 003605   004116 710000 25                 TRA     s:28683
        25 003606   004116 710000 25                 TRA     s:28683
        25 003607   004116 710000 25                 TRA     s:28683
        25 003610   004116 710000 25                 TRA     s:28683
        25 003611   004116 710000 25                 TRA     s:28683
        25 003612   004116 710000 25                 TRA     s:28683
        25 003613   004116 710000 25                 TRA     s:28683
        25 003614   004116 710000 25                 TRA     s:28683
        25 003615   004116 710000 25                 TRA     s:28683
        25 003616   004116 710000 25                 TRA     s:28683
        25 003617   004116 710000 25                 TRA     s:28683
        25 003620   004116 710000 25                 TRA     s:28683
        25 003621   004116 710000 25                 TRA     s:28683
        25 003622   004116 710000 25                 TRA     s:28683
        25 003623   004116 710000 25                 TRA     s:28683
        25 003624   004116 710000 25                 TRA     s:28683
        25 003625   004116 710000 25                 TRA     s:28683
        25 003626   004116 710000 25                 TRA     s:28683
        25 003627   004116 710000 25                 TRA     s:28683
        25 003630   004116 710000 25                 TRA     s:28683
        25 003631   004116 710000 25                 TRA     s:28683
        25 003632   004116 710000 25                 TRA     s:28683
        25 003633   004116 710000 25                 TRA     s:28683
        25 003634   004116 710000 25                 TRA     s:28683
        25 003635   004116 710000 25                 TRA     s:28683
        25 003636   004116 710000 25                 TRA     s:28683
        25 003637   004116 710000 25                 TRA     s:28683
        25 003640   004116 710000 25                 TRA     s:28683
PL6.E3A0      #001=Z8EA$INSPECT_1 File=Z8EA.:Z8A6TSI                             SAT 08/09/97 11:39 Page:208
        25 003641   004116 710000 25                 TRA     s:28683
        25 003642   004116 710000 25                 TRA     s:28683
        25 003643   004116 710000 25                 TRA     s:28683
        25 003644   004116 710000 25                 TRA     s:28683
        25 003645   004116 710000 25                 TRA     s:28683
        25 003646   004116 710000 25                 TRA     s:28683
        25 003647   004116 710000 25                 TRA     s:28683
        25 003650   004116 710000 25                 TRA     s:28683
        25 003651   004116 710000 25                 TRA     s:28683
        25 003652   004116 710000 25                 TRA     s:28683
        25 003653   004116 710000 25                 TRA     s:28683
        25 003654   004116 710000 25                 TRA     s:28683
        25 003655   004116 710000 25                 TRA     s:28683
        25 003656   004116 710000 25                 TRA     s:28683
        25 003657   004116 710000 25                 TRA     s:28683
        25 003660   004116 710000 25                 TRA     s:28683
        25 003661   004116 710000 25                 TRA     s:28683
        25 003662   004116 710000 25                 TRA     s:28683
        25 003663   004116 710000 25                 TRA     s:28683
        25 003664   004116 710000 25                 TRA     s:28683
        25 003665   004116 710000 25                 TRA     s:28683
        25 003666   004116 710000 25                 TRA     s:28683
        25 003667   004116 710000 25                 TRA     s:28683
        25 003670   004116 710000 25                 TRA     s:28683
        25 003671   004116 710000 25                 TRA     s:28683
        25 003672   004116 710000 25                 TRA     s:28683
        25 003673   004116 710000 25                 TRA     s:28683
        25 003674   004116 710000 25                 TRA     s:28683
        25 003675   004116 710000 25                 TRA     s:28683
        25 003676   004116 710000 25                 TRA     s:28683
        25 003677   004116 710000 25                 TRA     s:28683
        25 003700   004116 710000 25                 TRA     s:28683
        25 003701   004116 710000 25                 TRA     s:28683
        25 003702   004116 710000 25                 TRA     s:28683
        25 003703   004116 710000 25                 TRA     s:28683
        25 003704   004116 710000 25                 TRA     s:28683
        25 003705   004116 710000 25                 TRA     s:28683
PL6.E3A0      #001=Z8EA$INSPECT_1 File=Z8EA.:Z8A6TSI                             SAT 08/09/97 11:39 Page:209
        25 003706   004116 710000 25                 TRA     s:28683
        25 003707   004116 710000 25                 TRA     s:28683
        25 003710   004116 710000 25                 TRA     s:28683
        25 003711   004116 710000 25                 TRA     s:28683
        25 003712   004116 710000 25                 TRA     s:28683
        25 003713   004116 710000 25                 TRA     s:28683
        25 003714   004116 710000 25                 TRA     s:28683
        25 003715   004116 710000 25                 TRA     s:28683
        25 003716   004116 710000 25                 TRA     s:28683
        25 003717   004116 710000 25                 TRA     s:28683
        25 003720   004116 710000 25                 TRA     s:28683
        25 003721   004116 710000 25                 TRA     s:28683
        25 003722   004116 710000 25                 TRA     s:28683
        25 003723   004116 710000 25                 TRA     s:28683
        25 003724   004116 710000 25                 TRA     s:28683
        25 003725   004116 710000 25                 TRA     s:28683
        25 003726   004116 710000 25                 TRA     s:28683
        25 003727   004116 710000 25                 TRA     s:28683
        25 003730   004116 710000 25                 TRA     s:28683
        25 003731   004116 710000 25                 TRA     s:28683
        25 003732   004116 710000 25                 TRA     s:28683
        25 003733   004116 710000 25                 TRA     s:28683
        25 003734   004116 710000 25                 TRA     s:28683
        25 003735   004116 710000 25                 TRA     s:28683
        25 003736   004116 710000 25                 TRA     s:28683
        25 003737   004116 710000 25                 TRA     s:28683
        25 003740   004116 710000 25                 TRA     s:28683
        25 003741   004116 710000 25                 TRA     s:28683
        25 003742   004116 710000 25                 TRA     s:28683
        25 003743   004116 710000 25                 TRA     s:28683
        25 003744   004116 710000 25                 TRA     s:28683
        25 003745   004116 710000 25                 TRA     s:28683
        25 003746   004116 710000 25                 TRA     s:28683
        25 003747   004116 710000 25                 TRA     s:28683
        25 003750   004116 710000 25                 TRA     s:28683
        25 003751   004116 710000 25                 TRA     s:28683
        25 003752   004116 710000 25                 TRA     s:28683
PL6.E3A0      #001=Z8EA$INSPECT_1 File=Z8EA.:Z8A6TSI                             SAT 08/09/97 11:39 Page:210
        25 003753   004116 710000 25                 TRA     s:28683
        25 003754   004116 710000 25                 TRA     s:28683
        25 003755   004116 710000 25                 TRA     s:28683
        25 003756   004116 710000 25                 TRA     s:28683
        25 003757   004116 710000 25                 TRA     s:28683
        25 003760   004116 710000 25                 TRA     s:28683
        25 003761   004116 710000 25                 TRA     s:28683
        25 003762   004116 710000 25                 TRA     s:28683
        25 003763   004116 710000 25                 TRA     s:28683
        25 003764   004116 710000 25                 TRA     s:28683
        25 003765   004116 710000 25                 TRA     s:28683
        25 003766   004116 710000 25                 TRA     s:28683
        25 003767   004116 710000 25                 TRA     s:28683
        25 003770   004116 710000 25                 TRA     s:28683
        25 003771   004116 710000 25                 TRA     s:28683
        25 003772   004116 710000 25                 TRA     s:28683
        25 003773   004116 710000 25                 TRA     s:28683
        25 003774   004116 710000 25                 TRA     s:28683
        25 003775   004116 710000 25                 TRA     s:28683
        25 003776   004116 710000 25                 TRA     s:28683
        25 003777   004116 710000 25                 TRA     s:28683
        25 004000   004116 710000 25                 TRA     s:28683
        25 004001   004116 710000 25                 TRA     s:28683
        25 004002   004116 710000 25                 TRA     s:28683
        25 004003   004116 710000 25                 TRA     s:28683
        25 004004   004116 710000 25                 TRA     s:28683
        25 004005   004116 710000 25                 TRA     s:28683
        25 004006   004116 710000 25                 TRA     s:28683
        25 004007   004116 710000 25                 TRA     s:28683
        25 004010   004116 710000 25                 TRA     s:28683
        25 004011   004116 710000 25                 TRA     s:28683
        25 004012   004116 710000 25                 TRA     s:28683
        25 004013   004116 710000 25                 TRA     s:28683
        25 004014   004106 710000 25                 TRA     s:28667
        25 004015   004116 710000 25                 TRA     s:28683
        25 004016   004116 710000 25                 TRA     s:28683
        25 004017   004116 710000 25                 TRA     s:28683
PL6.E3A0      #001=Z8EA$INSPECT_1 File=Z8EA.:Z8A6TSI                             SAT 08/09/97 11:39 Page:211
        25 004020   004116 710000 25                 TRA     s:28683
        25 004021   004116 710000 25                 TRA     s:28683
        25 004022   004116 710000 25                 TRA     s:28683
        25 004023   004116 710000 25                 TRA     s:28683
        25 004024   004116 710000 25                 TRA     s:28683
        25 004025   004116 710000 25                 TRA     s:28683
        25 004026   004116 710000 25                 TRA     s:28683
        25 004027   004116 710000 25                 TRA     s:28683
        25 004030   004116 710000 25                 TRA     s:28683
        25 004031   004116 710000 25                 TRA     s:28683
        25 004032   004116 710000 25                 TRA     s:28683
        25 004033   004116 710000 25                 TRA     s:28683
        25 004034   004116 710000 25                 TRA     s:28683
        25 004035   004116 710000 25                 TRA     s:28683
        25 004036   004116 710000 25                 TRA     s:28683
        25 004037   004116 710000 25                 TRA     s:28683
        25 004040   004116 710000 25                 TRA     s:28683
        25 004041   004116 710000 25                 TRA     s:28683
        25 004042   004116 710000 25                 TRA     s:28683
        25 004043   004116 710000 25                 TRA     s:28683
        25 004044   004116 710000 25                 TRA     s:28683
        25 004045   004116 710000 25                 TRA     s:28683
        25 004046   004116 710000 25                 TRA     s:28683
        25 004047   004116 710000 25                 TRA     s:28683
        25 004050   004116 710000 25                 TRA     s:28683
        25 004051   004116 710000 25                 TRA     s:28683
        25 004052   004116 710000 25                 TRA     s:28683
        25 004053   004116 710000 25                 TRA     s:28683
        25 004054   004116 710000 25                 TRA     s:28683
        25 004055   004116 710000 25                 TRA     s:28683
        25 004056   004116 710000 25                 TRA     s:28683
        25 004057   004116 710000 25                 TRA     s:28683
        25 004060   004116 710000 25                 TRA     s:28683
        25 004061   004116 710000 25                 TRA     s:28683
        25 004062   004116 710000 25                 TRA     s:28683
        25 004063   004116 710000 25                 TRA     s:28683
        25 004064   004116 710000 25                 TRA     s:28683
PL6.E3A0      #001=Z8EA$INSPECT_1 File=Z8EA.:Z8A6TSI                             SAT 08/09/97 11:39 Page:212
        25 004065   004116 710000 25                 TRA     s:28683
        25 004066   004116 710000 25                 TRA     s:28683
        25 004067   004116 710000 25                 TRA     s:28683
        25 004070   004116 710000 25                 TRA     s:28683
        25 004071   004116 710000 25                 TRA     s:28683
        25 004072   004116 710000 25                 TRA     s:28683
        25 004073   004116 710000 25                 TRA     s:28683
        25 004074   004116 710000 25                 TRA     s:28683
        25 004075   004116 710000 25                 TRA     s:28683
        25 004076   004116 710000 25                 TRA     s:28683
        25 004077   004116 710000 25                 TRA     s:28683
        25 004100   004116 710000 25                 TRA     s:28683
        25 004101   004116 710000 25                 TRA     s:28683
        25 004102   004116 710000 25                 TRA     s:28683
        25 004103   004116 710000 25                 TRA     s:28683
        25 004104   004116 710000 25                 TRA     s:28683
        25 004105   004110 710000 25                 TRA     s:28673

     1045    28664
     1046    28665    2            CASE (%RSV_WRD_FIRST) ;

     1047    28666
     1048    28667    2              OPTIMIZABLE = FALSE ;

  28667 25 004106   200337 450100                    STZ     OPTIMIZABLE,,AUTO
        25 004107   004116 710000 25                 TRA     s:28683

     1049    28668
     1050    28669    2            CASE (%RSV_WRD_ALL, %RSV_WRD_LEADING) ;

     1051    28670
     1052    28671                   /* id-3 must be a one-byte constant */
     1053    28672
     1054    28673    2              IF ID3$ -> LX_ETT_ITEM.ETT$ -> ETT.ID ~= %TRIAD

  28673 25 004110   200314 470500                    LDP0    ID3$,,AUTO
        25 004111   000001 471500                    LDP1    1,,PR0
PL6.E3A0      #001=Z8EA$INSPECT_1 File=Z8EA.:Z8A6TSI                             SAT 08/09/97 11:39 Page:213
        25 004112   100000 220100                    LDX0    0,,PR1
        25 004113   000015 100003                    CMPX0   13,DU
        25 004114   004116 600000 25                 TZE     s:28683

     1055    28674    2              THEN OPTIMIZABLE = FALSE ;

  28674 25 004115   200337 450100                    STZ     OPTIMIZABLE,,AUTO

     1056    28675
     1057    28676    2          END ; /* Case of clause type */

     1058    28677
     1059    28678        %EJECT;
PL6.E3A0      #001=Z8EA$INSPECT_1 File=Z8EA.:Z8A6TSI                             SAT 08/09/97 11:39 Page:214
     1060    28679               /*============================*/
     1061    28680               /*V* INSPECT REPLACING Pass 3 */
     1062    28681               /*============================*/
     1063    28682
     1064    28683    1          ADD$ = ADDR(ADD) ;

  28683 25 004116   200226 630500                    EPPR0   ADD,,AUTO
        25 004117   200266 450500                    STP0    ADD$,,AUTO

     1065    28684    1          SUB$ = ADDR(SUB) ;

  28684 25 004120   200236 631500                    EPPR1   SUB,,AUTO
        25 004121   200345 451500                    STP1    SUB$,,AUTO

     1066    28685    1          LENGTH$  = ADDR(LENGTH) ;

  28685 25 004122   200026 633500                    EPPR3   LENGTH,,AUTO
        25 004123   200326 453500                    STP3    LENGTH$,,AUTO

     1067    28686    1          SUBSTR$  = ADDR(SUB_STR) ;

  28686 25 004124   200136 634500                    EPPR4   SUB_STR,,AUTO
        25 004125   200346 454500                    STP4    SUBSTR$,,AUTO

     1068    28687
     1069    28688    1          IF INSPECT$ -> INSPECT_2_STMT.ID_1$ -> LX_ETT_ITEM.TYPE = %TYB OR

  28688 25 004126   200003 475500                    LDP5    @INSPECT$,,AUTO
        25 004127   500000 476500                    LDP6    0,,PR5
        25 004130   600002 477500                    LDP7    2,,PR6
        25 004131   700004 235100                    LDA     4,,PR7
        25 004132   000014 115007                    CMPA    12,DL
        25 004133   004136 600000 25                 TZE     s:28690
        25 004134   000006 115007                    CMPA    6,DL
        25 004135   004140 601000 25                 TNZ     s:28691

     1070    28689    1             INSPECT$ -> INSPECT_2_STMT.ID_1$ -> LX_ETT_ITEM.TYPE = %TYE THEN
PL6.E3A0      #001=Z8EA$INSPECT_1 File=Z8EA.:Z8A6TSI                             SAT 08/09/97 11:39 Page:215
     1071    28690    1            ID1$ = INSPECT$ -> INSPECT_2_STMT.ID_1$ ;

  28690 25 004136   600002 236100                    LDQ     2,,PR6
        25 004137   200311 756100                    STQ     ID1$,,AUTO

     1072    28691    1          LENGTH_ID1$ = ADDR (LENGTH_ID1) ;

  28691 25 004140   200036 636500                    EPPR6   LENGTH_ID1,,AUTO
        25 004141   200327 456500                    STP6    LENGTH_ID1$,,AUTO

     1073    28692    1          CALL Z8AU$LENGTH (ID1$ -> LX_ETT_ITEM.ETT$, LENGTH_ID1$) ;

  28692 25 004142   200327 637500                    EPPR7   LENGTH_ID1$,,AUTO
        25 004143   200553 457500                    STP7    LENGTH_ID4$+3,,AUTO
        25 004144   200311 236100                    LDQ     ID1$,,AUTO
        25 004145   000001 036003                    ADLQ    1,DU
        25 004146   200552 756100                    STQ     LENGTH_ID4$+2,,AUTO
        25 004147   200552 630500                    EPPR0   LENGTH_ID4$+2,,AUTO
        25 004150   000000 631400 26                 EPPR1   0
        25 004151   000000 701000 xent               TSX1    Z8AU$LENGTH
        25 004152   000000 011000                    NOP     0

     1074    28693
     1075    28694    2          IF NOT OPTIMIZABLE THEN DO ;

  28694 25 004153   200337 234100                    SZN     OPTIMIZABLE,,AUTO
        25 004154   004257 604000 25                 TMI     s:29131

     1076    28695
     1077    28696    2            CALL Z8AT$CREATE_TEMPORARY (%PARA, END_LOOP$) ;

  28696 25 004155   200303 630500                    EPPR0   END_LOOP$,,AUTO
        25 004156   200553 450500                    STP0    LENGTH_ID4$+3,,AUTO
        25 004157   000024 236000 26                 LDQ     20
        25 004160   200552 756100                    STQ     LENGTH_ID4$+2,,AUTO
        25 004161   200552 630500                    EPPR0   LENGTH_ID4$+2,,AUTO
        25 004162   000000 631400 26                 EPPR1   0
PL6.E3A0      #001=Z8EA$INSPECT_1 File=Z8EA.:Z8A6TSI                             SAT 08/09/97 11:39 Page:216
        25 004163   000000 701000 xent               TSX1    Z8AT$CREATE_TEMPORARY
        25 004164   000000 011000                    NOP     0

     1078    28697
     1079    28698    2            POINTER$ = ADDR(POINTER) ;

  28698 25 004165   200016 630500                    EPPR0   POINTER,,AUTO
        25 004166   000001 450400 24                 STP0    POINTER$

     1080    28699                 %INIT_LX_ETT_ITEM (@POINTER = POINTER$, @TYPE = %TYI) ;

  28701 25 004167   000004 220003                    LDX0    4,DU
        25 004170   000000 740100                    STX0    0,,PR0

  28702 25 004171   000000 221003                    LDX1    0,DU
        25 004172   000001 470400 24                 LDP0    POINTER$
        25 004173   000000 441100                    SXL1    0,,PR0

  28703 25 004174   000001 235007                    LDA     1,DL
        25 004175   000001 470400 24                 LDP0    POINTER$
        25 004176   000004 755100                    STA     4,,PR0

  28704 25 004177   000005 236000 26                 LDQ     5
        25 004200   000007 756100                    STQ     7,,PR0

  28705 25 004201   000001 756100                    STQ     1,,PR0

  28706 25 004202   000005 236000 26                 LDQ     5
        25 004203   000001 470400 24                 LDP0    POINTER$
        25 004204   000002 756100                    STQ     2,,PR0

  28708 25 004205   000133 235000 xsym               LDA     COMCOM+91
        25 004206   000005 755100                    STA     5,,PR0

  28709 25 004207   000134 235000 xsym               LDA     COMCOM+92
        25 004210   000006 755100                    STA     6,,PR0

PL6.E3A0      #001=Z8EA$INSPECT_1 File=Z8EA.:Z8A6TSI                             SAT 08/09/97 11:39 Page:217
     1081    28721    2            CALL Z8AT$CREATE_TEMP_WITH_BASE (%SCALAR, POINTER$ -> LX_ETT_ITEM.ETT$) ;

  28721 25 004211   000001 236000 24                 LDQ     POINTER$
        25 004212   000001 036003                    ADLQ    1,DU
        25 004213   000026 235000 26                 LDA     22
        25 004214   200552 757100                    STAQ    LENGTH_ID4$+2,,AUTO
        25 004215   200552 630500                    EPPR0   LENGTH_ID4$+2,,AUTO
        25 004216   000000 631400 26                 EPPR1   0
        25 004217   000000 701000 xent               TSX1    Z8AT$CREATE_TEMP_WITH_BASE
        25 004220   000000 011000                    NOP     0

     1082    28722
     1083    28723                 /* POINTER = 0 */
     1084    28724
     1085    28725                 %NEW_ILL (@ID  = %MVII,
     1086    28726                           @LOP = "POINTER$ -> LX_ETT_ITEM.ETT$",
     1087    28727                           @ROP = COMCOM.VALUE_0) ;

  29040 25 004221   000031 236000 26                 LDQ     25
        25 004222   200552 756100                    STQ     LENGTH_ID4$+2,,AUTO
        25 004223   000001 236000 24                 LDQ     POINTER$
        25 004224   000001 036003                    ADLQ    1,DU
        25 004225   200557 756100                    STQ     LENGTH_ID4$+7,,AUTO
        25 004226   200552 630500                    EPPR0   LENGTH_ID4$+2,,AUTO
        25 004227   200556 450500                    STP0    LENGTH_ID4$+6,,AUTO
        25 004230   000032 237000 26                 LDAQ    26
        25 004231   200554 757100                    STAQ    LENGTH_ID4$+4,,AUTO
        25 004232   000002 236000 26                 LDQ     2
        25 004233   200553 756100                    STQ     LENGTH_ID4$+3,,AUTO
        25 004234   200553 630500                    EPPR0   LENGTH_ID4$+3,,AUTO
        25 004235   000027 631400 26                 EPPR1   23
        25 004236   000000 701000 xent               TSX1    Z8AN$NEW_ILL1
        25 004237   000000 011000                    NOP     0

  29043 25 004240   000001 470400 24                 LDP0    POINTER$
        25 004241   000001 236100                    LDQ     1,,PR0
        25 004242   000000 471400 1                  LDP1    ILL$
PL6.E3A0      #001=Z8EA$INSPECT_1 File=Z8EA.:Z8A6TSI                             SAT 08/09/97 11:39 Page:218
        25 004243   100001 756100                    STQ     1,,PR1

  29044 25 004244   000124 236000 xsym               LDQ     COMCOM+84
        25 004245   100002 756100                    STQ     2,,PR1

     1088    29106
     1089    29107                 /* DO WHILE (POINTER < LENGTHC (id-1)) */
     1090    29108
     1091    29109                 /* (1) Save O1COM.ILS_LIST
     1092    29110                    (2) Set O1COM.ILS_LIST to nil
     1093    29111                    (3) Create body of loop
     1094    29112                    (4) Save O1COM.ILS_LIST (now the body)
     1095    29113                    (5) Restore O1COM.ILS_LIST
     1096    29114                    (6) Call Z8EQ$CREATE$DO_WHILE (condition, body)
     1097    29115                 */
     1098    29116
     1099    29117    2            SAVED_ILS_LIST = O1COM.ILS_LIST ;

  29117 25 004246   000100 100400                    MLR     fill='000'O
        25 004247   000016 000040 xsym               ADSC9   O1COM+14                 cn=0,n=32
        25 004250   200366 000040                    ADSC9   SAVED_ILS_LIST,,AUTO     cn=0,n=32

     1100    29118                 %INIT_ILS_LIST (@POINTER = "ADDR(O1COM.ILS_LIST)") ;

  29120 25 004251   000007 220003                    LDX0    7,DU
        25 004252   000016 740000 xsym               STX0    O1COM+14

  29121 25 004253   000005 236000 26                 LDQ     5
        25 004254   000017 756000 xsym               STQ     O1COM+15

  29122 25 004255   000020 756000 xsym               STQ     O1COM+16

  29123 25 004256   000025 756000 xsym               STQ     O1COM+21

     1101    29126
     1102    29127    2          END ; /* Not Optimizable */

PL6.E3A0      #001=Z8EA$INSPECT_1 File=Z8EA.:Z8A6TSI                             SAT 08/09/97 11:39 Page:219
     1103    29128
     1104    29129               /* DO Body */
     1105    29130
     1106    29131    1          REPLACE$ = INSPECT$ -> INSPECT_2_STMT.INSP_2_REPLACE$ -> LX_LIST.HEAD$ ;

  29131 25 004257   200003 470500                    LDP0    @INSPECT$,,AUTO
        25 004260   000000 471500                    LDP1    0,,PR0
        25 004261   100003 473500                    LDP3    3,,PR1
        25 004262   300004 236100                    LDQ     4,,PR3
        25 004263   200342 756100                    STQ     REPLACE$,,AUTO

     1107    29132
     1108    29133    2          DO WHILE (REPLACE$ ~= ADDR(NIL)) ;

  29133 25 004264   007246 710000 25                 TRA     s:37216

     1109    29134
     1110    29135    2            CLAUSE_TYPE = REPLACE$ -> LX_LIST.HEAD$ -> LX_TERMINAL.SYMBOL ;

  29135 25 004265   200342 470500                    LDP0    REPLACE$,,AUTO
        25 004266   000004 471500                    LDP1    4,,PR0
        25 004267   100003 235100                    LDA     3,,PR1
        25 004270   200276 755100                    STA     CLAUSE_TYPE,,AUTO

     1111    29136
     1112    29137        %EJECT;
PL6.E3A0      #001=Z8EA$INSPECT_1 File=Z8EA.:Z8A6TSI                             SAT 08/09/97 11:39 Page:220
     1113    29138                   /*============================================*/
     1114    29139                 /*V* INSPECT_REPLACING_PASS_3_CHARACTERS_CLAUSE */
     1115    29140                   /*============================================*/
     1116    29141
     1117    29142    3            IF CLAUSE_TYPE = %RSV_WRD_CHARACTERS THEN DO ; /* CHARACTERS */

  29142 25 004271   000120 115007                    CMPA    80,DL
        25 004272   005041 601000 25                 TNZ     s:30887

     1118    29143
     1119    29144    3              CALL FIND_BEFORE_AFTER_INDEXES (REPLACE$ ->LX_LIST.TAIL$,

  29144 25 004273   200267 631500                    EPPR1   AFTER$,,AUTO
        25 004274   200421 451500                    STP1    @LINK$+1,,AUTO
        25 004275   200273 633500                    EPPR3   BEFORE$,,AUTO
        25 004276   200420 453500                    STP3    @ID$+1,,AUTO
        25 004277   200342 236100                    LDQ     REPLACE$,,AUTO
        25 004300   000001 036003                    ADLQ    1,DU
        25 004301   200417 756100                    STQ     CONVERSION_ILS_LIST+9,,AUTO
        25 004302   012344 701000 25                 TSX1    FIND_BEFORE_AFTER_INDEXES
        25 004303   000000 011000                    NOP     0

     1120    29145    3                                              BEFORE$,
     1121    29146    3                                              AFTER$) ;
     1122    29147
     1123    29148    4              IF OPTIMIZABLE THEN DO ;

  29148 25 004304   200337 234100                    SZN     OPTIMIZABLE,,AUTO
        25 004305   004530 605000 25                 TPL     s:29625

     1124    29149
     1125    29150    4                IF TYPE1 = %TYB OR TYPE1 = %TYE THEN

  29150 25 004306   200355 235100                    LDA     TYPE1,,AUTO
        25 004307   000014 115007                    CMPA    12,DL
        25 004310   004313 600000 25                 TZE     s:29151
        25 004311   000006 115007                    CMPA    6,DL
PL6.E3A0      #001=Z8EA$INSPECT_1 File=Z8EA.:Z8A6TSI                             SAT 08/09/97 11:39 Page:221
        25 004312   004317 601000 25                 TNZ     s:29153

     1126    29151    4                  CALL CONVERT_CONST (ID5$) ;

  29151 25 004313   200317 630500                    EPPR0   ID5$,,AUTO
        25 004314   200421 450500                    STP0    @LINK$+1,,AUTO
        25 004315   015001 701000 25                 TSX1    CONVERT_CONST
        25 004316   000000 011000                    NOP     0

     1127    29152
     1128    29153    4                ID5$ -> LX_ETT_ITEM.B.ALL = TRUE ;

  29153 25 004317   200317 470500                    LDP0    ID5$,,AUTO
        25 004320   040000 236007                    LDQ     16384,DL
        25 004321   000000 256100                    ORSQ    0,,PR0

     1129    29154
     1130    29155    4                IF BEFORE$ = ADDR(NIL)

  29155 25 004322   200273 236100                    LDQ     BEFORE$,,AUTO
        25 004323   000005 116000 26                 CMPQ    5
        25 004324   004327 601000 25                 TNZ     s:29158

     1131    29156    4                THEN BEFORE$ = LENGTH_ID1$ ;

  29156 25 004325   200327 236100                    LDQ     LENGTH_ID1$,,AUTO
        25 004326   200273 756100                    STQ     BEFORE$,,AUTO

     1132    29157
     1133    29158    5                IF AFTER$ ~= ADDR(NIL) THEN DO ;

  29158 25 004327   200267 236100                    LDQ     AFTER$,,AUTO
        25 004330   000005 116000 26                 CMPQ    5
        25 004331   004503 600000 25                 TZE     s:29616

     1134    29159
     1135    29160                       /* IF After < Before THEN                       */
PL6.E3A0      #001=Z8EA$INSPECT_1 File=Z8EA.:Z8A6TSI                             SAT 08/09/97 11:39 Page:222
     1136    29161                       /*   MOVE FILLER("x")                           */
     1137    29162                       /*     TO SUBSTR (id1, AFTER, BEFORE - AFTER)   */
     1138    29163
     1139    29164                       %IF_THEN_DO (@LOP = AFTER$,
     1140    29165                                    @REL = %OP_LESS_THAN,
     1141    29166                                    @ROP = BEFORE$,
     1142    29167                                    @LAB = END_IF$) ;

  29174 25 004332   200176 630500                    EPPR0   COMPARISON,,AUTO
        25 004333   200277 450500                    STP0    COMPARISON$,,AUTO

  29182 25 004334   000005 220003                    LDX0    5,DU
        25 004335   000000 740100                    STX0    0,,PR0

  29183 25 004336   000000 221003                    LDX1    0,DU
        25 004337   200277 470500                    LDP0    COMPARISON$,,AUTO
        25 004340   000000 441100                    SXL1    0,,PR0

  29190 25 004341   200267 470500                    LDP0    AFTER$,,AUTO
        25 004342   200277 471500                    LDP1    COMPARISON$,,AUTO
        25 004343   000005 235100                    LDA     5,,PR0
        25 004344   100005 755100                    STA     5,,PR1

  29191 25 004345   200267 470500                    LDP0    AFTER$,,AUTO
        25 004346   200277 471500                    LDP1    COMPARISON$,,AUTO
        25 004347   000006 235100                    LDA     6,,PR0
        25 004350   100006 755100                    STA     6,,PR1

  29192 25 004351   200273 236100                    LDQ     BEFORE$,,AUTO
        25 004352   200277 470500                    LDP0    COMPARISON$,,AUTO
        25 004353   000002 756100                    STQ     2,,PR0

  29193 25 004354   200267 236100                    LDQ     AFTER$,,AUTO
        25 004355   200277 470500                    LDP0    COMPARISON$,,AUTO
        25 004356   000001 756100                    STQ     1,,PR0

  29194 25 004357   000026 235007                    LDA     22,DL
PL6.E3A0      #001=Z8EA$INSPECT_1 File=Z8EA.:Z8A6TSI                             SAT 08/09/97 11:39 Page:223
        25 004360   200277 470500                    LDP0    COMPARISON$,,AUTO
        25 004361   000003 755100                    STA     3,,PR0

  29195 25 004362   000005 236000 26                 LDQ     5
        25 004363   200277 470500                    LDP0    COMPARISON$,,AUTO
        25 004364   000007 756100                    STQ     7,,PR0

  29198 25 004365   200302 630500                    EPPR0   END_IF$,,AUTO
        25 004366   200553 450500                    STP0    LENGTH_ID4$+3,,AUTO
        25 004367   000024 236000 26                 LDQ     20
        25 004370   200552 756100                    STQ     LENGTH_ID4$+2,,AUTO
        25 004371   200552 630500                    EPPR0   LENGTH_ID4$+2,,AUTO
        25 004372   000000 631400 26                 EPPR1   0
        25 004373   000000 701000 xent               TSX1    Z8AT$CREATE_TEMPORARY
        25 004374   000000 011000                    NOP     0

  29199 25 004375   200277 630500                    EPPR0   COMPARISON$,,AUTO
        25 004376   200553 450500                    STP0    LENGTH_ID4$+3,,AUTO
        25 004377   200302 631500                    EPPR1   END_IF$,,AUTO
        25 004400   200552 451500                    STP1    LENGTH_ID4$+2,,AUTO
        25 004401   200552 630500                    EPPR0   LENGTH_ID4$+2,,AUTO
        25 004402   000000 631400 26                 EPPR1   0
        25 004403   000000 701000 xent               TSX1    Z8EK$BRANCH_FALSE
        25 004404   000000 011000                    NOP     0

     1143    29202
     1144    29203                       %INIT_BINARY_OP (@POINTER = SUB$,
     1145    29204                                        @LOP$    = BEFORE$,
     1146    29205                                        @OP      = %OP_BINARY_MINUS,
     1147    29206                                        @ROP$    = AFTER$,
     1148    29207                                        @LINE    = "ID1$ -> LX_ETT_ITEM.LINE",
     1149    29208                                        @COLUMN  = "ID1$ -> LX_ETT_ITEM.COLUMN") ;

  29210 25 004405   000005 220003                    LDX0    5,DU
        25 004406   200345 470500                    LDP0    SUB$,,AUTO
        25 004407   000000 740100                    STX0    0,,PR0

PL6.E3A0      #001=Z8EA$INSPECT_1 File=Z8EA.:Z8A6TSI                             SAT 08/09/97 11:39 Page:224
  29211 25 004410   000000 221003                    LDX1    0,DU
        25 004411   200345 470500                    LDP0    SUB$,,AUTO
        25 004412   000000 441100                    SXL1    0,,PR0

  29218 25 004413   200311 470500                    LDP0    ID1$,,AUTO
        25 004414   200345 471500                    LDP1    SUB$,,AUTO
        25 004415   000005 235100                    LDA     5,,PR0
        25 004416   100005 755100                    STA     5,,PR1

  29219 25 004417   200311 470500                    LDP0    ID1$,,AUTO
        25 004420   200345 471500                    LDP1    SUB$,,AUTO
        25 004421   000006 235100                    LDA     6,,PR0
        25 004422   100006 755100                    STA     6,,PR1

  29220 25 004423   200267 236100                    LDQ     AFTER$,,AUTO
        25 004424   200345 470500                    LDP0    SUB$,,AUTO
        25 004425   000002 756100                    STQ     2,,PR0

  29221 25 004426   200273 236100                    LDQ     BEFORE$,,AUTO
        25 004427   200345 470500                    LDP0    SUB$,,AUTO
        25 004430   000001 756100                    STQ     1,,PR0

  29222 25 004431   000021 235007                    LDA     17,DL
        25 004432   200345 470500                    LDP0    SUB$,,AUTO
        25 004433   000003 755100                    STA     3,,PR0

  29223 25 004434   000005 236000 26                 LDQ     5
        25 004435   200345 470500                    LDP0    SUB$,,AUTO
        25 004436   000007 756100                    STQ     7,,PR0

     1150    29226
     1151    29227    5                  CALL Z8EA$INSERT_ZERO (ID1$, AFTER$, SUB$, SUBSTR$) ;

  29227 25 004437   200346 630500                    EPPR0   SUBSTR$,,AUTO
        25 004440   200555 450500                    STP0    LENGTH_ID4$+5,,AUTO
        25 004441   200345 631500                    EPPR1   SUB$,,AUTO
        25 004442   200554 451500                    STP1    LENGTH_ID4$+4,,AUTO
PL6.E3A0      #001=Z8EA$INSPECT_1 File=Z8EA.:Z8A6TSI                             SAT 08/09/97 11:39 Page:225
        25 004443   200267 633500                    EPPR3   AFTER$,,AUTO
        25 004444   200553 453500                    STP3    LENGTH_ID4$+3,,AUTO
        25 004445   200311 634500                    EPPR4   ID1$,,AUTO
        25 004446   200552 454500                    STP4    LENGTH_ID4$+2,,AUTO
        25 004447   200552 630500                    EPPR0   LENGTH_ID4$+2,,AUTO
        25 004450   000010 631400 26                 EPPR1   8
        25 004451   000000 701000 xent               TSX1    Z8EA$INSERT_ZERO
        25 004452   000000 011000                    NOP     0

     1152    29228    5                  CALL Z8E7$MOVE (SUBSTR$, ID5$) ;

  29228 25 004453   200317 630500                    EPPR0   ID5$,,AUTO
        25 004454   200553 450500                    STP0    LENGTH_ID4$+3,,AUTO
        25 004455   200346 631500                    EPPR1   SUBSTR$,,AUTO
        25 004456   200552 451500                    STP1    LENGTH_ID4$+2,,AUTO
        25 004457   200552 630500                    EPPR0   LENGTH_ID4$+2,,AUTO
        25 004460   000000 631400 26                 EPPR1   0
        25 004461   000000 701000 xent               TSX1    Z8E7$MOVE
        25 004462   000000 011000                    NOP     0

     1153    29229
     1154    29230                       %NEW_ILL (@ID = %DEFLB, @LOP = END_IF$) ;

  29551 25 004463   000031 236000 26                 LDQ     25
        25 004464   200552 756100                    STQ     LENGTH_ID4$+2,,AUTO
        25 004465   200552 630500                    EPPR0   LENGTH_ID4$+2,,AUTO
        25 004466   200557 450500                    STP0    LENGTH_ID4$+7,,AUTO
        25 004467   000033 236000 26                 LDQ     27
        25 004470   200556 756100                    STQ     LENGTH_ID4$+6,,AUTO
        25 004471   000042 237000 26                 LDAQ    34
        25 004472   200554 757100                    STAQ    LENGTH_ID4$+4,,AUTO
        25 004473   200554 630500                    EPPR0   LENGTH_ID4$+4,,AUTO
        25 004474   000010 631400 26                 EPPR1   8
        25 004475   000000 701000 xent               TSX1    Z8AN$NEW_ILL
        25 004476   000000 011000                    NOP     0

  29560 25 004477   200302 236100                    LDQ     END_IF$,,AUTO
PL6.E3A0      #001=Z8EA$INSPECT_1 File=Z8EA.:Z8A6TSI                             SAT 08/09/97 11:39 Page:226
        25 004500   000000 470400 1                  LDP0    ILL$
        25 004501   000001 756100                    STQ     1,,PR0

     1155    29609
     1156    29610    5                END ; /* AFTER clause exists */

  29610 25 004502   007243 710000 25                 TRA     s:37214

     1157    29611
     1158    29612    5                ELSE DO ; /* No AFTER Clause */

     1159    29613
     1160    29614                       /* MOVE FILLER("x") TO SUBSTR (id1, 1, Before) */
     1161    29615
     1162    29616    5                  CALL Z8EY$INSERT (ID1$, ONE_LX_ETT$, BEFORE$, SUBSTR$) ; /*#42050*/

  29616 25 004503   200346 630500                    EPPR0   SUBSTR$,,AUTO
        25 004504   200555 450500                    STP0    LENGTH_ID4$+5,,AUTO
        25 004505   200273 631500                    EPPR1   BEFORE$,,AUTO
        25 004506   200554 451500                    STP1    LENGTH_ID4$+4,,AUTO
        25 004507   200336 633500                    EPPR3   ONE_LX_ETT$,,AUTO
        25 004510   200553 453500                    STP3    LENGTH_ID4$+3,,AUTO
        25 004511   200311 634500                    EPPR4   ID1$,,AUTO
        25 004512   200552 454500                    STP4    LENGTH_ID4$+2,,AUTO
        25 004513   200552 630500                    EPPR0   LENGTH_ID4$+2,,AUTO
        25 004514   000010 631400 26                 EPPR1   8
        25 004515   000000 701000 xent               TSX1    Z8EY$INSERT
        25 004516   000000 011000                    NOP     0

     1163    29617    5                  CALL Z8E7$MOVE (SUBSTR$, ID5$) ;

  29617 25 004517   200317 630500                    EPPR0   ID5$,,AUTO
        25 004520   200553 450500                    STP0    LENGTH_ID4$+3,,AUTO
        25 004521   200346 631500                    EPPR1   SUBSTR$,,AUTO
        25 004522   200552 451500                    STP1    LENGTH_ID4$+2,,AUTO
        25 004523   200552 630500                    EPPR0   LENGTH_ID4$+2,,AUTO
        25 004524   000000 631400 26                 EPPR1   0
PL6.E3A0      #001=Z8EA$INSPECT_1 File=Z8EA.:Z8A6TSI                             SAT 08/09/97 11:39 Page:227
        25 004525   000000 701000 xent               TSX1    Z8E7$MOVE
        25 004526   000000 011000                    NOP     0

     1164    29618
     1165    29619    5                END ; /* No AFTER Clause */

     1166    29620
     1167    29621    4              END ; /* Optimizable */

  29621 25 004527   007243 710000 25                 TRA     s:37214

     1168    29622
     1169    29623    4              ELSE DO ; /* Not Optimizable */

     1170    29624
     1171    29625    5                IF AFTER$ ~= ADDR(NIL) THEN DO ;

  29625 25 004530   200267 236100                    LDQ     AFTER$,,AUTO
        25 004531   000005 116000 26                 CMPQ    5
        25 004532   004605 600000 25                 TZE     s:29668

     1172    29626
     1173    29627                       %IF_THEN_DO (@LOP = POINTER$,
     1174    29628                                    @REL = %OP_GREATER_THAN_OR_EQUAL,
     1175    29629                                    @ROP = AFTER$,
     1176    29630                                    @LAB = END_AFTER_IF$) ;

  29637 25 004533   200176 630500                    EPPR0   COMPARISON,,AUTO
        25 004534   200277 450500                    STP0    COMPARISON$,,AUTO

  29645 25 004535   000005 220003                    LDX0    5,DU
        25 004536   000000 740100                    STX0    0,,PR0

  29646 25 004537   000000 221003                    LDX1    0,DU
        25 004540   200277 470500                    LDP0    COMPARISON$,,AUTO
        25 004541   000000 441100                    SXL1    0,,PR0

PL6.E3A0      #001=Z8EA$INSPECT_1 File=Z8EA.:Z8A6TSI                             SAT 08/09/97 11:39 Page:228
  29653 25 004542   000001 470400 24                 LDP0    POINTER$
        25 004543   200277 471500                    LDP1    COMPARISON$,,AUTO
        25 004544   000005 235100                    LDA     5,,PR0
        25 004545   100005 755100                    STA     5,,PR1

  29654 25 004546   200277 471500                    LDP1    COMPARISON$,,AUTO
        25 004547   000006 235100                    LDA     6,,PR0
        25 004550   100006 755100                    STA     6,,PR1

  29655 25 004551   200267 236100                    LDQ     AFTER$,,AUTO
        25 004552   200277 471500                    LDP1    COMPARISON$,,AUTO
        25 004553   100002 756100                    STQ     2,,PR1

  29656 25 004554   000001 236000 24                 LDQ     POINTER$
        25 004555   200277 471500                    LDP1    COMPARISON$,,AUTO
        25 004556   100001 756100                    STQ     1,,PR1

  29657 25 004557   000033 235007                    LDA     27,DL
        25 004560   200277 470500                    LDP0    COMPARISON$,,AUTO
        25 004561   000003 755100                    STA     3,,PR0

  29658 25 004562   000005 236000 26                 LDQ     5
        25 004563   200277 470500                    LDP0    COMPARISON$,,AUTO
        25 004564   000007 756100                    STQ     7,,PR0

  29661 25 004565   200300 630500                    EPPR0   END_AFTER_IF$,,AUTO
        25 004566   200553 450500                    STP0    LENGTH_ID4$+3,,AUTO
        25 004567   000024 236000 26                 LDQ     20
        25 004570   200552 756100                    STQ     LENGTH_ID4$+2,,AUTO
        25 004571   200552 630500                    EPPR0   LENGTH_ID4$+2,,AUTO
        25 004572   000000 631400 26                 EPPR1   0
        25 004573   000000 701000 xent               TSX1    Z8AT$CREATE_TEMPORARY
        25 004574   000000 011000                    NOP     0

  29662 25 004575   200277 630500                    EPPR0   COMPARISON$,,AUTO
        25 004576   200553 450500                    STP0    LENGTH_ID4$+3,,AUTO
        25 004577   200300 631500                    EPPR1   END_AFTER_IF$,,AUTO
PL6.E3A0      #001=Z8EA$INSPECT_1 File=Z8EA.:Z8A6TSI                             SAT 08/09/97 11:39 Page:229
        25 004600   200552 451500                    STP1    LENGTH_ID4$+2,,AUTO
        25 004601   200552 630500                    EPPR0   LENGTH_ID4$+2,,AUTO
        25 004602   000000 631400 26                 EPPR1   0
        25 004603   000000 701000 xent               TSX1    Z8EK$BRANCH_FALSE
        25 004604   000000 011000                    NOP     0

     1177    29665
     1178    29666    5                END ;

     1179    29667
     1180    29668    5                IF BEFORE$ ~= ADDR (NIL) THEN DO ;

  29668 25 004605   200273 236100                    LDQ     BEFORE$,,AUTO
        25 004606   000005 116000 26                 CMPQ    5
        25 004607   004662 600000 25                 TZE     s:29711

     1181    29669
     1182    29670                       %IF_THEN_DO (@LOP = POINTER$,
     1183    29671                                    @REL = %OP_LESS_THAN,
     1184    29672                                    @ROP = BEFORE$,
     1185    29673                                    @LAB = END_BEFORE_IF$) ;

  29680 25 004610   200176 630500                    EPPR0   COMPARISON,,AUTO
        25 004611   200277 450500                    STP0    COMPARISON$,,AUTO

  29688 25 004612   000005 220003                    LDX0    5,DU
        25 004613   000000 740100                    STX0    0,,PR0

  29689 25 004614   000000 221003                    LDX1    0,DU
        25 004615   200277 470500                    LDP0    COMPARISON$,,AUTO
        25 004616   000000 441100                    SXL1    0,,PR0

  29696 25 004617   000001 470400 24                 LDP0    POINTER$
        25 004620   200277 471500                    LDP1    COMPARISON$,,AUTO
        25 004621   000005 235100                    LDA     5,,PR0
        25 004622   100005 755100                    STA     5,,PR1

PL6.E3A0      #001=Z8EA$INSPECT_1 File=Z8EA.:Z8A6TSI                             SAT 08/09/97 11:39 Page:230
  29697 25 004623   200277 471500                    LDP1    COMPARISON$,,AUTO
        25 004624   000006 235100                    LDA     6,,PR0
        25 004625   100006 755100                    STA     6,,PR1

  29698 25 004626   200273 236100                    LDQ     BEFORE$,,AUTO
        25 004627   200277 471500                    LDP1    COMPARISON$,,AUTO
        25 004630   100002 756100                    STQ     2,,PR1

  29699 25 004631   000001 236000 24                 LDQ     POINTER$
        25 004632   200277 471500                    LDP1    COMPARISON$,,AUTO
        25 004633   100001 756100                    STQ     1,,PR1

  29700 25 004634   000026 235007                    LDA     22,DL
        25 004635   200277 470500                    LDP0    COMPARISON$,,AUTO
        25 004636   000003 755100                    STA     3,,PR0

  29701 25 004637   000005 236000 26                 LDQ     5
        25 004640   200277 470500                    LDP0    COMPARISON$,,AUTO
        25 004641   000007 756100                    STQ     7,,PR0

  29704 25 004642   200301 630500                    EPPR0   END_BEFORE_IF$,,AUTO
        25 004643   200553 450500                    STP0    LENGTH_ID4$+3,,AUTO
        25 004644   000024 236000 26                 LDQ     20
        25 004645   200552 756100                    STQ     LENGTH_ID4$+2,,AUTO
        25 004646   200552 630500                    EPPR0   LENGTH_ID4$+2,,AUTO
        25 004647   000000 631400 26                 EPPR1   0
        25 004650   000000 701000 xent               TSX1    Z8AT$CREATE_TEMPORARY
        25 004651   000000 011000                    NOP     0

  29705 25 004652   200277 630500                    EPPR0   COMPARISON$,,AUTO
        25 004653   200553 450500                    STP0    LENGTH_ID4$+3,,AUTO
        25 004654   200301 631500                    EPPR1   END_BEFORE_IF$,,AUTO
        25 004655   200552 451500                    STP1    LENGTH_ID4$+2,,AUTO
        25 004656   200552 630500                    EPPR0   LENGTH_ID4$+2,,AUTO
        25 004657   000000 631400 26                 EPPR1   0
        25 004660   000000 701000 xent               TSX1    Z8EK$BRANCH_FALSE
        25 004661   000000 011000                    NOP     0
PL6.E3A0      #001=Z8EA$INSPECT_1 File=Z8EA.:Z8A6TSI                             SAT 08/09/97 11:39 Page:231

     1186    29708
     1187    29709    5                END ;

     1188    29710
     1189    29711    4                ID5$ = REPLACE$ -> LX_LIST.HEAD$ -> LX_TERMINAL.LINK ;

  29711 25 004662   200342 470500                    LDP0    REPLACE$,,AUTO
        25 004663   000004 471500                    LDP1    4,,PR0
        25 004664   100007 236100                    LDQ     7,,PR1
        25 004665   200317 756100                    STQ     ID5$,,AUTO

     1190    29712    4                CALL Z8AU$LENGTH (ID5$ -> LX_ETT_ITEM.ETT$, LENGTH_ID5$) ;

  29712 25 004666   200332 631500                    EPPR1   LENGTH_ID5$,,AUTO
        25 004667   200553 451500                    STP1    LENGTH_ID4$+3,,AUTO
        25 004670   000001 036003                    ADLQ    1,DU
        25 004671   200552 756100                    STQ     LENGTH_ID4$+2,,AUTO
        25 004672   200552 630500                    EPPR0   LENGTH_ID4$+2,,AUTO
        25 004673   000000 631400 26                 EPPR1   0
        25 004674   000000 701000 xent               TSX1    Z8AU$LENGTH
        25 004675   000000 011000                    NOP     0

     1191    29713
     1192    29714                     /* SUBSTR (ID1, POINTER, Length(id5)) = ID5 */
     1193    29715
     1194    29716    4                CALL Z8EA$INSERT_ZERO (ID1$, POINTER$, LENGTH_ID5$, SUBSTR$) ;

  29716 25 004676   200346 630500                    EPPR0   SUBSTR$,,AUTO
        25 004677   200555 450500                    STP0    LENGTH_ID4$+5,,AUTO
        25 004700   200332 631500                    EPPR1   LENGTH_ID5$,,AUTO
        25 004701   200554 451500                    STP1    LENGTH_ID4$+4,,AUTO
        25 004702   000051 236000 26                 LDQ     41
        25 004703   200553 756100                    STQ     LENGTH_ID4$+3,,AUTO
        25 004704   200311 633500                    EPPR3   ID1$,,AUTO
        25 004705   200552 453500                    STP3    LENGTH_ID4$+2,,AUTO
        25 004706   200552 630500                    EPPR0   LENGTH_ID4$+2,,AUTO
PL6.E3A0      #001=Z8EA$INSPECT_1 File=Z8EA.:Z8A6TSI                             SAT 08/09/97 11:39 Page:232
        25 004707   000010 631400 26                 EPPR1   8
        25 004710   000000 701000 xent               TSX1    Z8EA$INSERT_ZERO
        25 004711   000000 011000                    NOP     0

     1195    29717    4                IF TYPE1 = %TYE OR TYPE1 = %TYB THEN

  29717 25 004712   200355 235100                    LDA     TYPE1,,AUTO
        25 004713   000006 115007                    CMPA    6,DL
        25 004714   004717 600000 25                 TZE     s:29718
        25 004715   000014 115007                    CMPA    12,DL
        25 004716   004730 601000 25                 TNZ     s:29720

     1196    29718    4                  IF ID5$ -> LX_ETT_ITEM.ETT$ -> ETT.ID = %TRIAD THEN

  29718 25 004717   200317 470500                    LDP0    ID5$,,AUTO
        25 004720   000001 471500                    LDP1    1,,PR0
        25 004721   100000 220100                    LDX0    0,,PR1
        25 004722   000015 100003                    CMPX0   13,DU
        25 004723   004730 601000 25                 TNZ     s:29720

     1197    29719    4                    CALL CONVERT_CONST (ID5$) ;

  29719 25 004724   200317 633500                    EPPR3   ID5$,,AUTO
        25 004725   200421 453500                    STP3    @LINK$+1,,AUTO
        25 004726   015001 701000 25                 TSX1    CONVERT_CONST
        25 004727   000000 011000                    NOP     0

     1198    29720    4                CALL Z8E7$MOVE (SUBSTR$, ID5$) ;

  29720 25 004730   200317 630500                    EPPR0   ID5$,,AUTO
        25 004731   200553 450500                    STP0    LENGTH_ID4$+3,,AUTO
        25 004732   200346 631500                    EPPR1   SUBSTR$,,AUTO
        25 004733   200552 451500                    STP1    LENGTH_ID4$+2,,AUTO
        25 004734   200552 630500                    EPPR0   LENGTH_ID4$+2,,AUTO
        25 004735   000000 631400 26                 EPPR1   0
        25 004736   000000 701000 xent               TSX1    Z8E7$MOVE
        25 004737   000000 011000                    NOP     0
PL6.E3A0      #001=Z8EA$INSPECT_1 File=Z8EA.:Z8A6TSI                             SAT 08/09/97 11:39 Page:233

     1199    29721
     1200    29722                     /* ADD Length(id5) TO POINTER */
     1201    29723
     1202    29724                     %NEW_ILL (@ID  = %AD2I,
     1203    29725                               @LOP = POINTER$ -> LX_ETT_ITEM.ETT$,
     1204    29726                               @ROP = LENGTH_ID5$ -> LX_ETT_ITEM.ETT$) ;

  30039 25 004740   000031 236000 26                 LDQ     25
        25 004741   200552 756100                    STQ     LENGTH_ID4$+2,,AUTO
        25 004742   000001 236000 24                 LDQ     POINTER$
        25 004743   000001 036003                    ADLQ    1,DU
        25 004744   200557 756100                    STQ     LENGTH_ID4$+7,,AUTO
        25 004745   200552 630500                    EPPR0   LENGTH_ID4$+2,,AUTO
        25 004746   200556 450500                    STP0    LENGTH_ID4$+6,,AUTO
        25 004747   000036 237000 26                 LDAQ    30
        25 004750   200554 757100                    STAQ    LENGTH_ID4$+4,,AUTO
        25 004751   000002 236000 26                 LDQ     2
        25 004752   200553 756100                    STQ     LENGTH_ID4$+3,,AUTO
        25 004753   200553 630500                    EPPR0   LENGTH_ID4$+3,,AUTO
        25 004754   000027 631400 26                 EPPR1   23
        25 004755   000000 701000 xent               TSX1    Z8AN$NEW_ILL1
        25 004756   000000 011000                    NOP     0

  30042 25 004757   000001 470400 24                 LDP0    POINTER$
        25 004760   000001 236100                    LDQ     1,,PR0
        25 004761   000000 471400 1                  LDP1    ILL$
        25 004762   100001 756100                    STQ     1,,PR1

  30043 25 004763   200332 470500                    LDP0    LENGTH_ID5$,,AUTO
        25 004764   000001 236100                    LDQ     1,,PR0
        25 004765   100002 756100                    STQ     2,,PR1

     1205    30105
     1206    30106                     /* GO TO END_LOOP */
     1207    30107
     1208    30108    4                CALL Z8EK$BRANCH (END_LOOP$) ;
PL6.E3A0      #001=Z8EA$INSPECT_1 File=Z8EA.:Z8A6TSI                             SAT 08/09/97 11:39 Page:234

  30108 25 004766   200303 630500                    EPPR0   END_LOOP$,,AUTO
        25 004767   200552 450500                    STP0    LENGTH_ID4$+2,,AUTO
        25 004770   200552 630500                    EPPR0   LENGTH_ID4$+2,,AUTO
        25 004771   000041 631400 26                 EPPR1   33
        25 004772   000000 701000 xent               TSX1    Z8EK$BRANCH
        25 004773   000000 011000                    NOP     0

     1209    30109
     1210    30110                     /* END (Pointer <= Before$) */
     1211    30111
     1212    30112    4                IF BEFORE$ ~= ADDR(NIL) THEN

  30112 25 004774   200273 236100                    LDQ     BEFORE$,,AUTO
        25 004775   000005 116000 26                 CMPQ    5
        25 004776   005016 600000 25                 TZE     s:30495

     1213    30113                       %NEW_ILL (@ID = %DEFLB, @LOP = END_BEFORE_IF$) ;

  30434 25 004777   000031 236000 26                 LDQ     25
        25 005000   200552 756100                    STQ     LENGTH_ID4$+2,,AUTO
        25 005001   200552 630500                    EPPR0   LENGTH_ID4$+2,,AUTO
        25 005002   200557 450500                    STP0    LENGTH_ID4$+7,,AUTO
        25 005003   000033 236000 26                 LDQ     27
        25 005004   200556 756100                    STQ     LENGTH_ID4$+6,,AUTO
        25 005005   000042 237000 26                 LDAQ    34
        25 005006   200554 757100                    STAQ    LENGTH_ID4$+4,,AUTO
        25 005007   200554 630500                    EPPR0   LENGTH_ID4$+4,,AUTO
        25 005010   000010 631400 26                 EPPR1   8
        25 005011   000000 701000 xent               TSX1    Z8AN$NEW_ILL
        25 005012   000000 011000                    NOP     0

  30443 25 005013   200301 236100                    LDQ     END_BEFORE_IF$,,AUTO
        25 005014   000000 470400 1                  LDP0    ILL$
        25 005015   000001 756100                    STQ     1,,PR0

     1214    30492
PL6.E3A0      #001=Z8EA$INSPECT_1 File=Z8EA.:Z8A6TSI                             SAT 08/09/97 11:39 Page:235
     1215    30493                     /* END (Pointer >= After$) */
     1216    30494
     1217    30495    4                IF AFTER$ ~= ADDR(NIL) THEN

  30495 25 005016   200267 236100                    LDQ     AFTER$,,AUTO
        25 005017   000005 116000 26                 CMPQ    5
        25 005020   007243 600000 25                 TZE     s:37214

     1218    30496                       %NEW_ILL (@ID = %DEFLB, @LOP = END_AFTER_IF$) ;

  30817 25 005021   000031 236000 26                 LDQ     25
        25 005022   200552 756100                    STQ     LENGTH_ID4$+2,,AUTO
        25 005023   200552 630500                    EPPR0   LENGTH_ID4$+2,,AUTO
        25 005024   200557 450500                    STP0    LENGTH_ID4$+7,,AUTO
        25 005025   000033 236000 26                 LDQ     27
        25 005026   200556 756100                    STQ     LENGTH_ID4$+6,,AUTO
        25 005027   000042 237000 26                 LDAQ    34
        25 005030   200554 757100                    STAQ    LENGTH_ID4$+4,,AUTO
        25 005031   200554 630500                    EPPR0   LENGTH_ID4$+4,,AUTO
        25 005032   000010 631400 26                 EPPR1   8
        25 005033   000000 701000 xent               TSX1    Z8AN$NEW_ILL
        25 005034   000000 011000                    NOP     0

  30826 25 005035   200300 236100                    LDQ     END_AFTER_IF$,,AUTO
        25 005036   000000 470400 1                  LDP0    ILL$
        25 005037   000001 756100                    STQ     1,,PR0

     1219    30875
     1220    30876    4                END ; /* Not Optimizable */

     1221    30877
     1222    30878    3            END /* CHARACTERS */ ;

  30878 25 005040   007243 710000 25                 TRA     s:37214

     1223    30879
     1224    30880        %EJECT;
PL6.E3A0      #001=Z8EA$INSPECT_1 File=Z8EA.:Z8A6TSI                             SAT 08/09/97 11:39 Page:236
     1225    30881                   /*=====================================*/
     1226    30882                 /*V* INSPECT_REPLACING_PASS_3_ALL_CLAUSE */
     1227    30883                   /*=====================================*/
     1228    30884
     1229    30885    3            ELSE DO ; /* LEADING, ALL, or FIRST */

     1230    30886
     1231    30887    3              FIRST$ = REPLACE$ -> LX_LIST.TAIL$ -> LX_LIST.HEAD$ ;

  30887 25 005041   000001 471500                    LDP1    1,,PR0
        25 005042   100004 236100                    LDQ     4,,PR1
        25 005043   200304 756100                    STQ     FIRST$,,AUTO

     1232    30888
     1233    30889    4              DO WHILE (FIRST$ ~= ADDR(NIL)) ;

  30889 25 005044   007241 710000 25                 TRA     s:37210

     1234    30890
     1235    30891    4                ID3$ = FIRST$ -> LX_LIST.HEAD$ ;

  30891 25 005045   200304 470500                    LDP0    FIRST$,,AUTO
        25 005046   000004 236100                    LDQ     4,,PR0
        25 005047   200314 756100                    STQ     ID3$,,AUTO

     1236    30892    4                CALL Z8AU$LENGTH (ID3$ -> LX_ETT_ITEM.ETT$, LENGTH_ID3$) ;

  30892 25 005050   200330 631500                    EPPR1   LENGTH_ID3$,,AUTO
        25 005051   200553 451500                    STP1    LENGTH_ID4$+3,,AUTO
        25 005052   000001 036003                    ADLQ    1,DU
        25 005053   200552 756100                    STQ     LENGTH_ID4$+2,,AUTO
        25 005054   200552 630500                    EPPR0   LENGTH_ID4$+2,,AUTO
        25 005055   000000 631400 26                 EPPR1   0
        25 005056   000000 701000 xent               TSX1    Z8AU$LENGTH
        25 005057   000000 011000                    NOP     0

     1237    30893
PL6.E3A0      #001=Z8EA$INSPECT_1 File=Z8EA.:Z8A6TSI                             SAT 08/09/97 11:39 Page:237
     1238    30894    4                ID5$ = FIRST$ -> LX_LIST.HEAD$ -> LX_LIST.LINK ;

  30894 25 005060   200304 470500                    LDP0    FIRST$,,AUTO
        25 005061   000004 471500                    LDP1    4,,PR0
        25 005062   100007 236100                    LDQ     7,,PR1
        25 005063   200317 756100                    STQ     ID5$,,AUTO

     1239    30895    4                IF TYPE1 = %TYE OR TYPE1 = %TYB THEN

  30895 25 005064   200355 235100                    LDA     TYPE1,,AUTO
        25 005065   000006 115007                    CMPA    6,DL
        25 005066   005071 600000 25                 TZE     s:30897
        25 005067   000014 115007                    CMPA    12,DL
        25 005070   005113 601000 25                 TNZ     s:30902

     1240    30896    5                  DO ;

     1241    30897    5                    IF ID3$ -> LX_ETT_ITEM.ETT$ -> ETT.ID = %TRIAD THEN

  30897 25 005071   200314 471500                    LDP1    ID3$,,AUTO
        25 005072   100001 473500                    LDP3    1,,PR1
        25 005073   300000 220100                    LDX0    0,,PR3
        25 005074   000015 100003                    CMPX0   13,DU
        25 005075   005102 601000 25                 TNZ     s:30899

     1242    30898    5                      CALL CONVERT_CONST (ID3$) ;

  30898 25 005076   200314 634500                    EPPR4   ID3$,,AUTO
        25 005077   200421 454500                    STP4    @LINK$+1,,AUTO
        25 005100   015001 701000 25                 TSX1    CONVERT_CONST
        25 005101   000000 011000                    NOP     0

     1243    30899    5                    IF ID5$ -> LX_ETT_ITEM.ETT$ -> ETT.ID = %TRIAD THEN

  30899 25 005102   200317 470500                    LDP0    ID5$,,AUTO
        25 005103   000001 471500                    LDP1    1,,PR0
        25 005104   100000 220100                    LDX0    0,,PR1
PL6.E3A0      #001=Z8EA$INSPECT_1 File=Z8EA.:Z8A6TSI                             SAT 08/09/97 11:39 Page:238
        25 005105   000015 100003                    CMPX0   13,DU
        25 005106   005113 601000 25                 TNZ     s:30902

     1244    30900    5                      CALL CONVERT_CONST (ID5$) ;

  30900 25 005107   200317 633500                    EPPR3   ID5$,,AUTO
        25 005110   200421 453500                    STP3    @LINK$+1,,AUTO
        25 005111   015001 701000 25                 TSX1    CONVERT_CONST
        25 005112   000000 011000                    NOP     0

     1245    30901    5                  END ;

     1246    30902    4                BEFORE_AFTER$ = FIRST$ -> LX_LIST.TAIL$ ;

  30902 25 005113   200304 470500                    LDP0    FIRST$,,AUTO
        25 005114   000001 236100                    LDQ     1,,PR0
        25 005115   200274 756100                    STQ     BEFORE_AFTER$,,AUTO

     1247    30903    4                CALL FIND_BEFORE_AFTER_INDEXES (BEFORE_AFTER$, BEFORE$, AFTER$) ;

  30903 25 005116   200267 631500                    EPPR1   AFTER$,,AUTO
        25 005117   200421 451500                    STP1    @LINK$+1,,AUTO
        25 005120   200273 633500                    EPPR3   BEFORE$,,AUTO
        25 005121   200420 453500                    STP3    @ID$+1,,AUTO
        25 005122   200274 634500                    EPPR4   BEFORE_AFTER$,,AUTO
        25 005123   200417 454500                    STP4    CONVERSION_ILS_LIST+9,,AUTO
        25 005124   012344 701000 25                 TSX1    FIND_BEFORE_AFTER_INDEXES
        25 005125   000000 011000                    NOP     0

     1248    30904
     1249    30905    5                DO CASE (CLAUSE_TYPE) ;

  30905 25 005126   200276 235100                    LDA     CLAUSE_TYPE,,AUTO
        25 005127   000046 135007                    SBLA    38,DL
        25 005130   000350 115007                    CMPA    232,DL
        25 005131   005133 602005 25                 TNC     s:30905+5,AL
        25 005132   007236 710000 25                 TRA     s:37208
PL6.E3A0      #001=Z8EA$INSPECT_1 File=Z8EA.:Z8A6TSI                             SAT 08/09/97 11:39 Page:239
        25 005133   005503 710000 25                 TRA     s:30909
        25 005134   007236 710000 25                 TRA     s:37208
        25 005135   007236 710000 25                 TRA     s:37208
        25 005136   007236 710000 25                 TRA     s:37208
        25 005137   007236 710000 25                 TRA     s:37208
        25 005140   007236 710000 25                 TRA     s:37208
        25 005141   007236 710000 25                 TRA     s:37208
        25 005142   007236 710000 25                 TRA     s:37208
        25 005143   007236 710000 25                 TRA     s:37208
        25 005144   007236 710000 25                 TRA     s:37208
        25 005145   007236 710000 25                 TRA     s:37208
        25 005146   007236 710000 25                 TRA     s:37208
        25 005147   007236 710000 25                 TRA     s:37208
        25 005150   007236 710000 25                 TRA     s:37208
        25 005151   007236 710000 25                 TRA     s:37208
        25 005152   007236 710000 25                 TRA     s:37208
        25 005153   007236 710000 25                 TRA     s:37208
        25 005154   007236 710000 25                 TRA     s:37208
        25 005155   007236 710000 25                 TRA     s:37208
        25 005156   007236 710000 25                 TRA     s:37208
        25 005157   007236 710000 25                 TRA     s:37208
        25 005160   007236 710000 25                 TRA     s:37208
        25 005161   007236 710000 25                 TRA     s:37208
        25 005162   007236 710000 25                 TRA     s:37208
        25 005163   007236 710000 25                 TRA     s:37208
        25 005164   007236 710000 25                 TRA     s:37208
        25 005165   007236 710000 25                 TRA     s:37208
        25 005166   007236 710000 25                 TRA     s:37208
        25 005167   007236 710000 25                 TRA     s:37208
        25 005170   007236 710000 25                 TRA     s:37208
        25 005171   007236 710000 25                 TRA     s:37208
        25 005172   007236 710000 25                 TRA     s:37208
        25 005173   007236 710000 25                 TRA     s:37208
        25 005174   007236 710000 25                 TRA     s:37208
        25 005175   007236 710000 25                 TRA     s:37208
        25 005176   007236 710000 25                 TRA     s:37208
        25 005177   007236 710000 25                 TRA     s:37208
PL6.E3A0      #001=Z8EA$INSPECT_1 File=Z8EA.:Z8A6TSI                             SAT 08/09/97 11:39 Page:240
        25 005200   007236 710000 25                 TRA     s:37208
        25 005201   007236 710000 25                 TRA     s:37208
        25 005202   007236 710000 25                 TRA     s:37208
        25 005203   007236 710000 25                 TRA     s:37208
        25 005204   007236 710000 25                 TRA     s:37208
        25 005205   007236 710000 25                 TRA     s:37208
        25 005206   007236 710000 25                 TRA     s:37208
        25 005207   007236 710000 25                 TRA     s:37208
        25 005210   007236 710000 25                 TRA     s:37208
        25 005211   007236 710000 25                 TRA     s:37208
        25 005212   007236 710000 25                 TRA     s:37208
        25 005213   007236 710000 25                 TRA     s:37208
        25 005214   007236 710000 25                 TRA     s:37208
        25 005215   007236 710000 25                 TRA     s:37208
        25 005216   007236 710000 25                 TRA     s:37208
        25 005217   007236 710000 25                 TRA     s:37208
        25 005220   007236 710000 25                 TRA     s:37208
        25 005221   007236 710000 25                 TRA     s:37208
        25 005222   007236 710000 25                 TRA     s:37208
        25 005223   007236 710000 25                 TRA     s:37208
        25 005224   007236 710000 25                 TRA     s:37208
        25 005225   007236 710000 25                 TRA     s:37208
        25 005226   007236 710000 25                 TRA     s:37208
        25 005227   007236 710000 25                 TRA     s:37208
        25 005230   007236 710000 25                 TRA     s:37208
        25 005231   007236 710000 25                 TRA     s:37208
        25 005232   007236 710000 25                 TRA     s:37208
        25 005233   007236 710000 25                 TRA     s:37208
        25 005234   007236 710000 25                 TRA     s:37208
        25 005235   007236 710000 25                 TRA     s:37208
        25 005236   007236 710000 25                 TRA     s:37208
        25 005237   007236 710000 25                 TRA     s:37208
        25 005240   007236 710000 25                 TRA     s:37208
        25 005241   007236 710000 25                 TRA     s:37208
        25 005242   007236 710000 25                 TRA     s:37208
        25 005243   007236 710000 25                 TRA     s:37208
        25 005244   007236 710000 25                 TRA     s:37208
PL6.E3A0      #001=Z8EA$INSPECT_1 File=Z8EA.:Z8A6TSI                             SAT 08/09/97 11:39 Page:241
        25 005245   007236 710000 25                 TRA     s:37208
        25 005246   007236 710000 25                 TRA     s:37208
        25 005247   007236 710000 25                 TRA     s:37208
        25 005250   007236 710000 25                 TRA     s:37208
        25 005251   007236 710000 25                 TRA     s:37208
        25 005252   007236 710000 25                 TRA     s:37208
        25 005253   007236 710000 25                 TRA     s:37208
        25 005254   007236 710000 25                 TRA     s:37208
        25 005255   007236 710000 25                 TRA     s:37208
        25 005256   007236 710000 25                 TRA     s:37208
        25 005257   007236 710000 25                 TRA     s:37208
        25 005260   007236 710000 25                 TRA     s:37208
        25 005261   007236 710000 25                 TRA     s:37208
        25 005262   007236 710000 25                 TRA     s:37208
        25 005263   007236 710000 25                 TRA     s:37208
        25 005264   007236 710000 25                 TRA     s:37208
        25 005265   007236 710000 25                 TRA     s:37208
        25 005266   007236 710000 25                 TRA     s:37208
        25 005267   007236 710000 25                 TRA     s:37208
        25 005270   007236 710000 25                 TRA     s:37208
        25 005271   007236 710000 25                 TRA     s:37208
        25 005272   007236 710000 25                 TRA     s:37208
        25 005273   007236 710000 25                 TRA     s:37208
        25 005274   007236 710000 25                 TRA     s:37208
        25 005275   007236 710000 25                 TRA     s:37208
        25 005276   007236 710000 25                 TRA     s:37208
        25 005277   007236 710000 25                 TRA     s:37208
        25 005300   007236 710000 25                 TRA     s:37208
        25 005301   007236 710000 25                 TRA     s:37208
        25 005302   007236 710000 25                 TRA     s:37208
        25 005303   007236 710000 25                 TRA     s:37208
        25 005304   007236 710000 25                 TRA     s:37208
        25 005305   007236 710000 25                 TRA     s:37208
        25 005306   007236 710000 25                 TRA     s:37208
        25 005307   007236 710000 25                 TRA     s:37208
        25 005310   007236 710000 25                 TRA     s:37208
        25 005311   007236 710000 25                 TRA     s:37208
PL6.E3A0      #001=Z8EA$INSPECT_1 File=Z8EA.:Z8A6TSI                             SAT 08/09/97 11:39 Page:242
        25 005312   007236 710000 25                 TRA     s:37208
        25 005313   007236 710000 25                 TRA     s:37208
        25 005314   007236 710000 25                 TRA     s:37208
        25 005315   007236 710000 25                 TRA     s:37208
        25 005316   007236 710000 25                 TRA     s:37208
        25 005317   007236 710000 25                 TRA     s:37208
        25 005320   007236 710000 25                 TRA     s:37208
        25 005321   007236 710000 25                 TRA     s:37208
        25 005322   007236 710000 25                 TRA     s:37208
        25 005323   007236 710000 25                 TRA     s:37208
        25 005324   007236 710000 25                 TRA     s:37208
        25 005325   007236 710000 25                 TRA     s:37208
        25 005326   007236 710000 25                 TRA     s:37208
        25 005327   007236 710000 25                 TRA     s:37208
        25 005330   007236 710000 25                 TRA     s:37208
        25 005331   007236 710000 25                 TRA     s:37208
        25 005332   007236 710000 25                 TRA     s:37208
        25 005333   007236 710000 25                 TRA     s:37208
        25 005334   007236 710000 25                 TRA     s:37208
        25 005335   007236 710000 25                 TRA     s:37208
        25 005336   007236 710000 25                 TRA     s:37208
        25 005337   007236 710000 25                 TRA     s:37208
        25 005340   007236 710000 25                 TRA     s:37208
        25 005341   007236 710000 25                 TRA     s:37208
        25 005342   007236 710000 25                 TRA     s:37208
        25 005343   007236 710000 25                 TRA     s:37208
        25 005344   007236 710000 25                 TRA     s:37208
        25 005345   007236 710000 25                 TRA     s:37208
        25 005346   007236 710000 25                 TRA     s:37208
        25 005347   007236 710000 25                 TRA     s:37208
        25 005350   007236 710000 25                 TRA     s:37208
        25 005351   007236 710000 25                 TRA     s:37208
        25 005352   007236 710000 25                 TRA     s:37208
        25 005353   007236 710000 25                 TRA     s:37208
        25 005354   007236 710000 25                 TRA     s:37208
        25 005355   007236 710000 25                 TRA     s:37208
        25 005356   007236 710000 25                 TRA     s:37208
PL6.E3A0      #001=Z8EA$INSPECT_1 File=Z8EA.:Z8A6TSI                             SAT 08/09/97 11:39 Page:243
        25 005357   007236 710000 25                 TRA     s:37208
        25 005360   007236 710000 25                 TRA     s:37208
        25 005361   007236 710000 25                 TRA     s:37208
        25 005362   007236 710000 25                 TRA     s:37208
        25 005363   007236 710000 25                 TRA     s:37208
        25 005364   007236 710000 25                 TRA     s:37208
        25 005365   007236 710000 25                 TRA     s:37208
        25 005366   007236 710000 25                 TRA     s:37208
        25 005367   007236 710000 25                 TRA     s:37208
        25 005370   007236 710000 25                 TRA     s:37208
        25 005371   007236 710000 25                 TRA     s:37208
        25 005372   007236 710000 25                 TRA     s:37208
        25 005373   007236 710000 25                 TRA     s:37208
        25 005374   007236 710000 25                 TRA     s:37208
        25 005375   007236 710000 25                 TRA     s:37208
        25 005376   007236 710000 25                 TRA     s:37208
        25 005377   007236 710000 25                 TRA     s:37208
        25 005400   007236 710000 25                 TRA     s:37208
        25 005401   007236 710000 25                 TRA     s:37208
        25 005402   007236 710000 25                 TRA     s:37208
        25 005403   007236 710000 25                 TRA     s:37208
        25 005404   007236 710000 25                 TRA     s:37208
        25 005405   007236 710000 25                 TRA     s:37208
        25 005406   007236 710000 25                 TRA     s:37208
        25 005407   007236 710000 25                 TRA     s:37208
        25 005410   007236 710000 25                 TRA     s:37208
        25 005411   006724 710000 25                 TRA     s:35564
        25 005412   007236 710000 25                 TRA     s:37208
        25 005413   007236 710000 25                 TRA     s:37208
        25 005414   007236 710000 25                 TRA     s:37208
        25 005415   007236 710000 25                 TRA     s:37208
        25 005416   007236 710000 25                 TRA     s:37208
        25 005417   007236 710000 25                 TRA     s:37208
        25 005420   007236 710000 25                 TRA     s:37208
        25 005421   007236 710000 25                 TRA     s:37208
        25 005422   007236 710000 25                 TRA     s:37208
        25 005423   007236 710000 25                 TRA     s:37208
PL6.E3A0      #001=Z8EA$INSPECT_1 File=Z8EA.:Z8A6TSI                             SAT 08/09/97 11:39 Page:244
        25 005424   007236 710000 25                 TRA     s:37208
        25 005425   007236 710000 25                 TRA     s:37208
        25 005426   007236 710000 25                 TRA     s:37208
        25 005427   007236 710000 25                 TRA     s:37208
        25 005430   007236 710000 25                 TRA     s:37208
        25 005431   007236 710000 25                 TRA     s:37208
        25 005432   007236 710000 25                 TRA     s:37208
        25 005433   007236 710000 25                 TRA     s:37208
        25 005434   007236 710000 25                 TRA     s:37208
        25 005435   007236 710000 25                 TRA     s:37208
        25 005436   007236 710000 25                 TRA     s:37208
        25 005437   007236 710000 25                 TRA     s:37208
        25 005440   007236 710000 25                 TRA     s:37208
        25 005441   007236 710000 25                 TRA     s:37208
        25 005442   007236 710000 25                 TRA     s:37208
        25 005443   007236 710000 25                 TRA     s:37208
        25 005444   007236 710000 25                 TRA     s:37208
        25 005445   007236 710000 25                 TRA     s:37208
        25 005446   007236 710000 25                 TRA     s:37208
        25 005447   007236 710000 25                 TRA     s:37208
        25 005450   007236 710000 25                 TRA     s:37208
        25 005451   007236 710000 25                 TRA     s:37208
        25 005452   007236 710000 25                 TRA     s:37208
        25 005453   007236 710000 25                 TRA     s:37208
        25 005454   007236 710000 25                 TRA     s:37208
        25 005455   007236 710000 25                 TRA     s:37208
        25 005456   007236 710000 25                 TRA     s:37208
        25 005457   007236 710000 25                 TRA     s:37208
        25 005460   007236 710000 25                 TRA     s:37208
        25 005461   007236 710000 25                 TRA     s:37208
        25 005462   007236 710000 25                 TRA     s:37208
        25 005463   007236 710000 25                 TRA     s:37208
        25 005464   007236 710000 25                 TRA     s:37208
        25 005465   007236 710000 25                 TRA     s:37208
        25 005466   007236 710000 25                 TRA     s:37208
        25 005467   007236 710000 25                 TRA     s:37208
        25 005470   007236 710000 25                 TRA     s:37208
PL6.E3A0      #001=Z8EA$INSPECT_1 File=Z8EA.:Z8A6TSI                             SAT 08/09/97 11:39 Page:245
        25 005471   007236 710000 25                 TRA     s:37208
        25 005472   007236 710000 25                 TRA     s:37208
        25 005473   007236 710000 25                 TRA     s:37208
        25 005474   007236 710000 25                 TRA     s:37208
        25 005475   007236 710000 25                 TRA     s:37208
        25 005476   007236 710000 25                 TRA     s:37208
        25 005477   007236 710000 25                 TRA     s:37208
        25 005500   007236 710000 25                 TRA     s:37208
        25 005501   007236 710000 25                 TRA     s:37208
        25 005502   006422 710000 25                 TRA     s:33561

     1250    30906
     1251    30907    5                  CASE (%RSV_WRD_ALL) ;     /* ALL */

     1252    30908
     1253    30909    6                    IF OPTIMIZABLE THEN DO ;

  30909 25 005503   200337 234100                    SZN     OPTIMIZABLE,,AUTO
        25 005504   006202 605000 25                 TPL     s:31957

     1254    30910
     1255    30911                           /* Create a constant MVT table:         */
     1256    30912                           /* ASCII-TO-ASCII with modification.    */
     1257    30913
     1258    30914    6                      IF TYPE1 = %TYB THEN

  30914 25 005505   200355 236100                    LDQ     TYPE1,,AUTO
        25 005506   000014 116007                    CMPQ    12,DL
        25 005507   005515 601000 25                 TNZ     s:30921

     1259    30915    7                        DO ;

     1260    30916    7                          ITERATION = 17 ; /* Table LCNST item size = 17 words */

  30916 25 005510   000021 235007                    LDA     17,DL
        25 005511   000000 755000 0                  STA     ITERATION

PL6.E3A0      #001=Z8EA$INSPECT_1 File=Z8EA.:Z8A6TSI                             SAT 08/09/97 11:39 Page:246
     1261    30917    7                          J = 63 ; /* Table entries are 0 thru 63 */

  30917 25 005512   000077 235007                    LDA     63,DL
        25 005513   200325 755100                    STA     J,,AUTO

     1262    30918    7                        END ;

  30918 25 005514   005521 710000 25                 TRA     s:31000

     1263    30919    6                      ELSE
     1264    30920    7                        DO ;

     1265    30921    7                          ITERATION = 129 ; /* Table LCNST item size = 129 words */

  30921 25 005515   000201 235007                    LDA     129,DL
        25 005516   000000 755000 0                  STA     ITERATION

     1266    30922    7                          J = 511 ; /* Table entries are 0 thru 511 */

  30922 25 005517   000777 235007                    LDA     511,DL
        25 005520   200325 755100                    STA     J,,AUTO

     1267    30923    7                        END ;

     1268    30924                           %RESERVE_LTS (ITEM = %LCNST, POINTER = LTS$) ;

  31000 25 005521   000002 236000 16                 LDQ     LTS_+2
        25 005522   000000 036000 0                  ADLQ    ITERATION
        25 005523   000003 116000 16                 CMPQ    LTS_+3
        25 005524   005535 604000 25                 TMI     s:31002

  31001 25 005525   000052 236000 26                 LDQ     42
        25 005526   200552 756100                    STQ     LENGTH_ID4$+2,,AUTO
        25 005527   200552 630500                    EPPR0   LENGTH_ID4$+2,,AUTO
        25 005530   200553 450500                    STP0    LENGTH_ID4$+3,,AUTO
        25 005531   200553 630500                    EPPR0   LENGTH_ID4$+3,,AUTO
        25 005532   000041 631400 26                 EPPR1   33
PL6.E3A0      #001=Z8EA$INSPECT_1 File=Z8EA.:Z8A6TSI                             SAT 08/09/97 11:39 Page:247
        25 005533   000000 701000 xent               TSX1    Z8AR$RESERVER
        25 005534   000000 011000                    NOP     0

  31002 25 005535   000002 236000 16                 LDQ     LTS_+2
        25 005536   000022 736000                    QLS     18
        25 005537   000001 036000 16                 ADLQ    LTS_+1
        25 005540   000000 756000 15                 STQ     LTS$

  31003 25 005541   000002 236000 16                 LDQ     LTS_+2
        25 005542   000000 036000 0                  ADLQ    ITERATION
        25 005543   000002 756000 16                 STQ     LTS_+2

  31004 25 005544   001106 220003                    LDX0    582,DU
        25 005545   000000 470400 15                 LDP0    LTS$
        25 005546   000000 740100                    STX0    0,,PR0

  31006 25 005547   000000 721000 0                  LXL1    ITERATION
        25 005550   000000 470400 15                 LDP0    LTS$
        25 005551   000000 441100                    SXL1    0,,PR0

     1269    31010
     1270    31011    7                      DO I = 0 TO J ;

  31011 25 005552   200307 450100                    STZ     I,,AUTO
        25 005553   005566 710000 25                 TRA     s:31013+1

     1271    31012    7                        SUBSTR (LTS$ -> LCNST.CONST, I, 1) = BINASC (I) ;

  31012 25 005554   200307 236100                    LDQ     I,,AUTO
        25 005555   000033 736000                    QLS     27
        25 005556   000053 276000 26                 ORQ     43
        25 005557   200552 756100                    STQ     LENGTH_ID4$+2,,AUTO
        25 005560   000000 470400 15                 LDP0    LTS$
        25 005561   200307 235100                    LDA     I,,AUTO
        25 005562   040105 100500                    MLR     fill='040'O
        25 005563   200552 000004                    ADSC9   LENGTH_ID4$+2,,AUTO      cn=0,n=4
        25 005564   000001 000001                    ADSC9   1,A,PR0                  cn=0,n=1
PL6.E3A0      #001=Z8EA$INSPECT_1 File=Z8EA.:Z8A6TSI                             SAT 08/09/97 11:39 Page:248

     1272    31013    7                      END ;

  31013 25 005565   200307 054100                    AOS     I,,AUTO
        25 005566   200307 236100                    LDQ     I,,AUTO
        25 005567   200325 116100                    CMPQ    J,,AUTO
        25 005570   005554 604400 25                 TMOZ    s:31012

     1273    31014
     1274    31015    6                      IF TYPE1 = %TYB THEN

  31015 25 005571   200355 235100                    LDA     TYPE1,,AUTO
        25 005572   000014 115007                    CMPA    12,DL
        25 005573   005621 601000 25                 TNZ     s:31026

     1275    31016    7                        DO ;

     1276    31017    7                          ID3_BCD_CHAR.MBZ3 = '0'B ;

  31017 25 005574   000054 236000 26                 LDQ     44
        25 005575   200315 356100                    ANSQ    ID3_CHAR,,AUTO

     1277    31018    7                          ID3_BCD_CHAR.BCD_CHAR = ID3$ -> LX_ETT_ITEM.ETT$ -> ETT.LOP

  31018 25 005576   200314 470500                    LDP0    ID3$,,AUTO
        25 005577   000001 471500                    LDP1    1,,PR0
        25 005600   100001 473500                    LDP3    1,,PR1
        25 005601   300010 236100                    LDQ     8,,PR3
        25 005602   000003 772000                    QRL     3
        25 005603   200315 676100                    ERQ     ID3_CHAR,,AUTO
        25 005604   077000 376003                    ANQ     32256,DU
        25 005605   200315 656100                    ERSQ    ID3_CHAR,,AUTO

     1278    31019    7                                                       -> CONST.CONSTB (0) ;
     1279    31020    7                          ID5_BCD_CHAR.MBZ5 = '0'B ;

  31020 25 005606   000054 236000 26                 LDQ     44
PL6.E3A0      #001=Z8EA$INSPECT_1 File=Z8EA.:Z8A6TSI                             SAT 08/09/97 11:39 Page:249
        25 005607   200316 356100                    ANSQ    ID5_CHAR,,AUTO

     1280    31021    7                          ID5_BCD_CHAR.BCD_CHAR = ID5$ -> LX_ETT_ITEM.ETT$ -> ETT.LOP

  31021 25 005610   200317 474500                    LDP4    ID5$,,AUTO
        25 005611   400001 475500                    LDP5    1,,PR4
        25 005612   500001 476500                    LDP6    1,,PR5
        25 005613   600010 236100                    LDQ     8,,PR6
        25 005614   000003 772000                    QRL     3
        25 005615   200316 676100                    ERQ     ID5_CHAR,,AUTO
        25 005616   077000 376003                    ANQ     32256,DU
        25 005617   200316 656100                    ERSQ    ID5_CHAR,,AUTO

     1281    31022    7                                                       -> CONST.CONSTB (0) ;
     1282    31023    7                        END ;

  31023 25 005620   005633 710000 25                 TRA     s:31031

     1283    31024    6                      ELSE
     1284    31025    7                        DO ;

     1285    31026    7                          ID3_CHAR = ID3$ -> LX_ETT_ITEM.ETT$ -> ETT.LOP

  31026 25 005621   200314 470500                    LDP0    ID3$,,AUTO
        25 005622   000001 471500                    LDP1    1,,PR0
        25 005623   100001 473500                    LDP3    1,,PR1
        25 005624   300010 236100                    LDQ     8,,PR3
        25 005625   200315 552140                    STBQ    ID3_CHAR,'40'O,AUTO

     1286    31027    7                                          -> CONST.CONSTA ;
     1287    31028    7                          ID5_CHAR = ID5$ -> LX_ETT_ITEM.ETT$ -> ETT.LOP

  31028 25 005626   200317 474500                    LDP4    ID5$,,AUTO
        25 005627   400001 475500                    LDP5    1,,PR4
        25 005630   500001 476500                    LDP6    1,,PR5
        25 005631   600010 236100                    LDQ     8,,PR6
        25 005632   200316 552140                    STBQ    ID5_CHAR,'40'O,AUTO
PL6.E3A0      #001=Z8EA$INSPECT_1 File=Z8EA.:Z8A6TSI                             SAT 08/09/97 11:39 Page:250

     1288    31029    7                                          -> CONST.CONSTA ;
     1289    31030    7                        END ;

     1290    31031    6                      SUBSTR (LTS$ -> LCNST.CONST, ASCBIN (ID3_CHAR), 1)

  31031 25 005633   200315 236100                    LDQ     ID3_CHAR,,AUTO
        25 005634   000033 772000                    QRL     27
        25 005635   000000 477400 15                 LDP7    LTS$
        25 005636   040106 100500                    MLR     fill='040'O
        25 005637   200316 000001                    ADSC9   ID5_CHAR,,AUTO           cn=0,n=1
        25 005640   700001 000001                    ADSC9   1,Q,PR7                  cn=0,n=1

     1291    31032    6                           = ID5_CHAR ;
     1292    31033
     1293    31034                           %NEW_CONST (@ST$           = ST$,
     1294    31035                                       @TYPE          = TYPE1,
     1295    31036                                       @LONG_CONSTANT = '1'B) ;

  31040 25 005641   000002 236000 6                  LDQ     ST_+2
        25 005642   000013 036007                    ADLQ    11,DL
        25 005643   000003 116000 6                  CMPQ    ST_+3
        25 005644   005655 604000 25                 TMI     s:31042

  31041 25 005645   000055 236000 26                 LDQ     45
        25 005646   200552 756100                    STQ     LENGTH_ID4$+2,,AUTO
        25 005647   200552 630500                    EPPR0   LENGTH_ID4$+2,,AUTO
        25 005650   200553 450500                    STP0    LENGTH_ID4$+3,,AUTO
        25 005651   200553 630500                    EPPR0   LENGTH_ID4$+3,,AUTO
        25 005652   000041 631400 26                 EPPR1   33
        25 005653   000000 701000 xent               TSX1    Z8AR$RESERVER
        25 005654   000000 011000                    NOP     0

  31042 25 005655   000002 236000 6                  LDQ     ST_+2
        25 005656   000022 736000                    QLS     18
        25 005657   000001 036000 6                  ADLQ    ST_+1
        25 005660   000000 756000 5                  STQ     ST$
PL6.E3A0      #001=Z8EA$INSPECT_1 File=Z8EA.:Z8A6TSI                             SAT 08/09/97 11:39 Page:251

  31043 25 005661   000013 236007                    LDQ     11,DL
        25 005662   000002 056000 6                  ASQ     ST_+2

  31046 25 005663   000767 220003                    LDX0    503,DU
        25 005664   000000 470400 5                  LDP0    ST$
        25 005665   000000 740100                    STX0    0,,PR0

  31047 25 005666   000000 470400 5                  LDP0    ST$
        25 005667   001000 236007                    LDQ     512,DL
        25 005670   000000 552110                    STBQ    0,'10'O,PR0

  31048 25 005671   000000 470400 5                  LDP0    ST$
        25 005672   000126 236000 xsym               LDQ     O1COM+86
        25 005673   000000 552104                    STBQ    0,'04'O,PR0

  31049 25 005674   200355 721100                    LXL1    TYPE1,,AUTO
        25 005675   000000 470400 5                  LDP0    ST$
        25 005676   000002 741100                    STX1    2,,PR0

  31050 25 005677   000003 450100                    STZ     3,,PR0

  31051 25 005700   000005 236000 26                 LDQ     5
        25 005701   000004 756100                    STQ     4,,PR0

  31052 25 005702   000005 236000 26                 LDQ     5
        25 005703   000005 756100                    STQ     5,,PR0

  31053 25 005704   000005 236000 26                 LDQ     5
        25 005705   000006 756100                    STQ     6,,PR0

  31055 25 005706   400000 236003                    LDQ     -131072,DU
        25 005707   000003 256100                    ORSQ    3,,PR0

     1296    31077    6                      ST$ -> CONST.CONST$.PTR$ = LTS$ ;

  31077 25 005710   000000 236000 15                 LDQ     LTS$
PL6.E3A0      #001=Z8EA$INSPECT_1 File=Z8EA.:Z8A6TSI                             SAT 08/09/97 11:39 Page:252
        25 005711   000010 756100                    STQ     8,,PR0

     1297    31078    6                      CALL Z8AF$FORME (%TRIAD, ST$, ADDR(NIL), TABLE$) ;

  31078 25 005712   000005 236000 26                 LDQ     5
        25 005713   200552 756100                    STQ     LENGTH_ID4$+2,,AUTO
        25 005714   200347 631500                    EPPR1   TABLE$,,AUTO
        25 005715   200557 451500                    STP1    LENGTH_ID4$+7,,AUTO
        25 005716   200552 633500                    EPPR3   LENGTH_ID4$+2,,AUTO
        25 005717   200556 453500                    STP3    LENGTH_ID4$+6,,AUTO
        25 005720   000060 237000 26                 LDAQ    48
        25 005721   200554 757100                    STAQ    LENGTH_ID4$+4,,AUTO
        25 005722   200554 630500                    EPPR0   LENGTH_ID4$+4,,AUTO
        25 005723   000010 631400 26                 EPPR1   8
        25 005724   000000 701000 xent               TSX1    Z8AF$FORME
        25 005725   000000 011000                    NOP     0

     1298    31079
     1299    31080    6                      TABLE_LX_ETT$ = ADDR (TABLE_LX_ETT) ;

  31080 25 005726   200216 630500                    EPPR0   TABLE_LX_ETT,,AUTO
        25 005727   200351 450500                    STP0    TABLE_LX_ETT$,,AUTO

     1300    31081                           %INIT_LX_ETT_ITEM (@POINTER = TABLE_LX_ETT$,
     1301    31082                                              @TYPE    = %TYA) ;

  31084 25 005730   000004 220003                    LDX0    4,DU
        25 005731   000000 740100                    STX0    0,,PR0

  31085 25 005732   000000 221003                    LDX1    0,DU
        25 005733   200351 470500                    LDP0    TABLE_LX_ETT$,,AUTO
        25 005734   000000 441100                    SXL1    0,,PR0

  31086 25 005735   000010 235007                    LDA     8,DL
        25 005736   200351 470500                    LDP0    TABLE_LX_ETT$,,AUTO
        25 005737   000004 755100                    STA     4,,PR0

PL6.E3A0      #001=Z8EA$INSPECT_1 File=Z8EA.:Z8A6TSI                             SAT 08/09/97 11:39 Page:253
  31087 25 005740   000005 236000 26                 LDQ     5
        25 005741   200351 470500                    LDP0    TABLE_LX_ETT$,,AUTO
        25 005742   000007 756100                    STQ     7,,PR0

  31088 25 005743   200351 470500                    LDP0    TABLE_LX_ETT$,,AUTO
        25 005744   000001 756100                    STQ     1,,PR0

  31089 25 005745   000005 236000 26                 LDQ     5
        25 005746   200351 470500                    LDP0    TABLE_LX_ETT$,,AUTO
        25 005747   000002 756100                    STQ     2,,PR0

  31091 25 005750   000133 236000 xsym               LDQ     COMCOM+91
        25 005751   200351 470500                    LDP0    TABLE_LX_ETT$,,AUTO
        25 005752   000005 756100                    STQ     5,,PR0

  31092 25 005753   000134 236000 xsym               LDQ     COMCOM+92
        25 005754   200351 470500                    LDP0    TABLE_LX_ETT$,,AUTO
        25 005755   000006 756100                    STQ     6,,PR0

     1302    31104    6                      TABLE_LX_ETT$ -> LX_ETT_ITEM.ETT$ = TABLE$ ;

  31104 25 005756   200347 236100                    LDQ     TABLE$,,AUTO
        25 005757   200351 470500                    LDP0    TABLE_LX_ETT$,,AUTO
        25 005760   000001 756100                    STQ     1,,PR0

     1303    31105
     1304    31106                           /* IF After < Before THEN     */
     1305    31107                           /*    MVT (id-1, id-1, Table) */
     1306    31108                           /* where id-1 = SUBSTR (id-1, After, Before - After) */
     1307    31109
     1308    31110    6                      IF BEFORE$ = ADDR(NIL)

  31110 25 005761   200273 236100                    LDQ     BEFORE$,,AUTO
        25 005762   000005 116000 26                 CMPQ    5
        25 005763   005766 601000 25                 TNZ     s:31113

     1309    31111    6                      THEN BEFORE$ = LENGTH_ID1$ ;
PL6.E3A0      #001=Z8EA$INSPECT_1 File=Z8EA.:Z8A6TSI                             SAT 08/09/97 11:39 Page:254

  31111 25 005764   200327 236100                    LDQ     LENGTH_ID1$,,AUTO
        25 005765   200273 756100                    STQ     BEFORE$,,AUTO

     1310    31112
     1311    31113    7                      IF AFTER$ ~= ADDR(NIL) THEN DO ;

  31113 25 005766   200267 236100                    LDQ     AFTER$,,AUTO
        25 005767   000005 116000 26                 CMPQ    5
        25 005770   006112 600000 25                 TZE     s:31184

     1312    31114
     1313    31115                             %IF_THEN_DO (@LOP = AFTER$,
     1314    31116                                          @REL = %OP_LESS_THAN,
     1315    31117                                          @ROP = BEFORE$,
     1316    31118                                          @LAB = END_IF$) ;

  31125 25 005771   200176 630500                    EPPR0   COMPARISON,,AUTO
        25 005772   200277 450500                    STP0    COMPARISON$,,AUTO

  31133 25 005773   000005 222003                    LDX2    5,DU
        25 005774   000000 742100                    STX2    0,,PR0

  31134 25 005775   200277 470500                    LDP0    COMPARISON$,,AUTO
        25 005776   000000 441100                    SXL1    0,,PR0

  31141 25 005777   200267 470500                    LDP0    AFTER$,,AUTO
        25 006000   200277 471500                    LDP1    COMPARISON$,,AUTO
        25 006001   000005 235100                    LDA     5,,PR0
        25 006002   100005 755100                    STA     5,,PR1

  31142 25 006003   200267 470500                    LDP0    AFTER$,,AUTO
        25 006004   200277 471500                    LDP1    COMPARISON$,,AUTO
        25 006005   000006 235100                    LDA     6,,PR0
        25 006006   100006 755100                    STA     6,,PR1

  31143 25 006007   200273 236100                    LDQ     BEFORE$,,AUTO
PL6.E3A0      #001=Z8EA$INSPECT_1 File=Z8EA.:Z8A6TSI                             SAT 08/09/97 11:39 Page:255
        25 006010   200277 470500                    LDP0    COMPARISON$,,AUTO
        25 006011   000002 756100                    STQ     2,,PR0

  31144 25 006012   200267 236100                    LDQ     AFTER$,,AUTO
        25 006013   200277 470500                    LDP0    COMPARISON$,,AUTO
        25 006014   000001 756100                    STQ     1,,PR0

  31145 25 006015   000026 235007                    LDA     22,DL
        25 006016   200277 470500                    LDP0    COMPARISON$,,AUTO
        25 006017   000003 755100                    STA     3,,PR0

  31146 25 006020   000005 236000 26                 LDQ     5
        25 006021   200277 470500                    LDP0    COMPARISON$,,AUTO
        25 006022   000007 756100                    STQ     7,,PR0

  31149 25 006023   200302 630500                    EPPR0   END_IF$,,AUTO
        25 006024   200553 450500                    STP0    LENGTH_ID4$+3,,AUTO
        25 006025   000024 236000 26                 LDQ     20
        25 006026   200552 756100                    STQ     LENGTH_ID4$+2,,AUTO
        25 006027   200552 630500                    EPPR0   LENGTH_ID4$+2,,AUTO
        25 006030   000000 631400 26                 EPPR1   0
        25 006031   000000 701000 xent               TSX1    Z8AT$CREATE_TEMPORARY
        25 006032   000000 011000                    NOP     0

  31150 25 006033   200277 630500                    EPPR0   COMPARISON$,,AUTO
        25 006034   200553 450500                    STP0    LENGTH_ID4$+3,,AUTO
        25 006035   200302 631500                    EPPR1   END_IF$,,AUTO
        25 006036   200552 451500                    STP1    LENGTH_ID4$+2,,AUTO
        25 006037   200552 630500                    EPPR0   LENGTH_ID4$+2,,AUTO
        25 006040   000000 631400 26                 EPPR1   0
        25 006041   000000 701000 xent               TSX1    Z8EK$BRANCH_FALSE
        25 006042   000000 011000                    NOP     0

     1317    31153
     1318    31154                             %INIT_BINARY_OP (@POINTER = SUB$,
     1319    31155                                              @LOP$    = BEFORE$,
     1320    31156                                              @OP      = %OP_BINARY_MINUS,
PL6.E3A0      #001=Z8EA$INSPECT_1 File=Z8EA.:Z8A6TSI                             SAT 08/09/97 11:39 Page:256
     1321    31157                                              @ROP$    = AFTER$,
     1322    31158                                              @LINE    = "ID1$ -> LX_ETT_ITEM.LINE",
     1323    31159                                              @COLUMN  = "ID1$ -> LX_ETT_ITEM.COLUMN") ;

  31161 25 006043   000005 220003                    LDX0    5,DU
        25 006044   200345 470500                    LDP0    SUB$,,AUTO
        25 006045   000000 740100                    STX0    0,,PR0

  31162 25 006046   000000 221003                    LDX1    0,DU
        25 006047   200345 470500                    LDP0    SUB$,,AUTO
        25 006050   000000 441100                    SXL1    0,,PR0

  31169 25 006051   200311 470500                    LDP0    ID1$,,AUTO
        25 006052   200345 471500                    LDP1    SUB$,,AUTO
        25 006053   000005 235100                    LDA     5,,PR0
        25 006054   100005 755100                    STA     5,,PR1

  31170 25 006055   200311 470500                    LDP0    ID1$,,AUTO
        25 006056   200345 471500                    LDP1    SUB$,,AUTO
        25 006057   000006 235100                    LDA     6,,PR0
        25 006060   100006 755100                    STA     6,,PR1

  31171 25 006061   200267 236100                    LDQ     AFTER$,,AUTO
        25 006062   200345 470500                    LDP0    SUB$,,AUTO
        25 006063   000002 756100                    STQ     2,,PR0

  31172 25 006064   200273 236100                    LDQ     BEFORE$,,AUTO
        25 006065   200345 470500                    LDP0    SUB$,,AUTO
        25 006066   000001 756100                    STQ     1,,PR0

  31173 25 006067   000021 235007                    LDA     17,DL
        25 006070   200345 470500                    LDP0    SUB$,,AUTO
        25 006071   000003 755100                    STA     3,,PR0

  31174 25 006072   000005 236000 26                 LDQ     5
        25 006073   200345 470500                    LDP0    SUB$,,AUTO
        25 006074   000007 756100                    STQ     7,,PR0
PL6.E3A0      #001=Z8EA$INSPECT_1 File=Z8EA.:Z8A6TSI                             SAT 08/09/97 11:39 Page:257

     1324    31177
     1325    31178    7                        CALL Z8EA$INSERT_ZERO (ID1$, AFTER$, SUB$, SUBSTR$) ;

  31178 25 006075   200346 630500                    EPPR0   SUBSTR$,,AUTO
        25 006076   200555 450500                    STP0    LENGTH_ID4$+5,,AUTO
        25 006077   200345 631500                    EPPR1   SUB$,,AUTO
        25 006100   200554 451500                    STP1    LENGTH_ID4$+4,,AUTO
        25 006101   200267 633500                    EPPR3   AFTER$,,AUTO
        25 006102   200553 453500                    STP3    LENGTH_ID4$+3,,AUTO
        25 006103   200311 634500                    EPPR4   ID1$,,AUTO
        25 006104   200552 454500                    STP4    LENGTH_ID4$+2,,AUTO
        25 006105   200552 630500                    EPPR0   LENGTH_ID4$+2,,AUTO
        25 006106   000010 631400 26                 EPPR1   8
        25 006107   000000 701000 xent               TSX1    Z8EA$INSERT_ZERO
        25 006110   000000 011000                    NOP     0

     1326    31179
     1327    31180    7                      END ; /* AFTER clause exists */

  31180 25 006111   006126 710000 25                 TRA     s:31464

     1328    31181
     1329    31182    7                      ELSE DO ; /* No AFTER clause */

     1330    31183
     1331    31184    7                        CALL Z8EY$INSERT (ID1$, ONE_LX_ETT$, BEFORE$, SUBSTR$) ;
             31184                                 /*#42050*/

  31184 25 006112   200346 630500                    EPPR0   SUBSTR$,,AUTO
        25 006113   200555 450500                    STP0    LENGTH_ID4$+5,,AUTO
        25 006114   200273 631500                    EPPR1   BEFORE$,,AUTO
        25 006115   200554 451500                    STP1    LENGTH_ID4$+4,,AUTO
        25 006116   200336 633500                    EPPR3   ONE_LX_ETT$,,AUTO
        25 006117   200553 453500                    STP3    LENGTH_ID4$+3,,AUTO
        25 006120   200311 634500                    EPPR4   ID1$,,AUTO
        25 006121   200552 454500                    STP4    LENGTH_ID4$+2,,AUTO
PL6.E3A0      #001=Z8EA$INSPECT_1 File=Z8EA.:Z8A6TSI                             SAT 08/09/97 11:39 Page:258
        25 006122   200552 630500                    EPPR0   LENGTH_ID4$+2,,AUTO
        25 006123   000010 631400 26                 EPPR1   8
        25 006124   000000 701000 xent               TSX1    Z8EY$INSERT
        25 006125   000000 011000                    NOP     0

     1332    31185    7                      END ; /* No AFTER clause */

     1333    31186
     1334    31187                           /* Move_and_Translate (id1 ==> id1) */
     1335    31188
     1336    31189                           %NEW_ILL (@ID  = %MVT,              /*#31076*/
     1337    31190                                     @TABLE = TABLE_LX_ETT$ -> LX_ETT_ITEM.ETT$,
     1338    31191                                     @FROM  = SUBSTR$ -> LX_ETT_ITEM.ETT$,
     1339    31192                                     @TO    = SUBSTR$ -> LX_ETT_ITEM.ETT$) ;

  31464 25 006126   000031 236000 26                 LDQ     25
        25 006127   200552 756100                    STQ     LENGTH_ID4$+2,,AUTO
        25 006130   200346 236100                    LDQ     SUBSTR$,,AUTO
        25 006131   000001 036003                    ADLQ    1,DU
        25 006132   200557 756100                    STQ     LENGTH_ID4$+7,,AUTO
        25 006133   200552 630500                    EPPR0   LENGTH_ID4$+2,,AUTO
        25 006134   200556 450500                    STP0    LENGTH_ID4$+6,,AUTO
        25 006135   000062 237000 26                 LDAQ    50
        25 006136   200554 757100                    STAQ    LENGTH_ID4$+4,,AUTO
        25 006137   000002 236000 26                 LDQ     2
        25 006140   200553 756100                    STQ     LENGTH_ID4$+3,,AUTO
        25 006141   200553 630500                    EPPR0   LENGTH_ID4$+3,,AUTO
        25 006142   000027 631400 26                 EPPR1   23
        25 006143   000000 701000 xent               TSX1    Z8AN$NEW_ILL1
        25 006144   000000 011000                    NOP     0

  31465 25 006145   200346 470500                    LDP0    SUBSTR$,,AUTO
        25 006146   000001 236100                    LDQ     1,,PR0
        25 006147   000000 471400 1                  LDP1    ILL$
        25 006150   100001 756100                    STQ     1,,PR1

  31466 25 006151   200351 470500                    LDP0    TABLE_LX_ETT$,,AUTO
PL6.E3A0      #001=Z8EA$INSPECT_1 File=Z8EA.:Z8A6TSI                             SAT 08/09/97 11:39 Page:259
        25 006152   000001 236100                    LDQ     1,,PR0
        25 006153   100002 756100                    STQ     2,,PR1

  31467 25 006154   200346 470500                    LDP0    SUBSTR$,,AUTO
        25 006155   000001 236100                    LDQ     1,,PR0
        25 006156   100003 756100                    STQ     3,,PR1

     1340    31571
     1341    31572    6                      IF AFTER$ ~= ADDR (NIL) THEN

  31572 25 006157   200267 236100                    LDQ     AFTER$,,AUTO
        25 006160   000005 116000 26                 CMPQ    5
        25 006161   007236 600000 25                 TZE     s:37208

     1342    31573                             %NEW_ILL (@ID = %DEFLB, @LOP = END_IF$) ;

  31894 25 006162   000031 236000 26                 LDQ     25
        25 006163   200552 756100                    STQ     LENGTH_ID4$+2,,AUTO
        25 006164   200552 630500                    EPPR0   LENGTH_ID4$+2,,AUTO
        25 006165   200557 450500                    STP0    LENGTH_ID4$+7,,AUTO
        25 006166   000033 236000 26                 LDQ     27
        25 006167   200556 756100                    STQ     LENGTH_ID4$+6,,AUTO
        25 006170   000042 237000 26                 LDAQ    34
        25 006171   200554 757100                    STAQ    LENGTH_ID4$+4,,AUTO
        25 006172   200554 630500                    EPPR0   LENGTH_ID4$+4,,AUTO
        25 006173   000010 631400 26                 EPPR1   8
        25 006174   000000 701000 xent               TSX1    Z8AN$NEW_ILL
        25 006175   000000 011000                    NOP     0

  31903 25 006176   200302 236100                    LDQ     END_IF$,,AUTO
        25 006177   000000 470400 1                  LDP0    ILL$
        25 006200   000001 756100                    STQ     1,,PR0

     1343    31952
     1344    31953    6                    END ; /* Optimizable */

  31953 25 006201   007236 710000 25                 TRA     s:37208
PL6.E3A0      #001=Z8EA$INSPECT_1 File=Z8EA.:Z8A6TSI                             SAT 08/09/97 11:39 Page:260

     1345    31954
     1346    31955    6                    ELSE DO ; /* Not Optimizable */

     1347    31956
     1348    31957    7                      IF AFTER$ ~= ADDR(NIL) THEN DO ;

  31957 25 006202   200267 236100                    LDQ     AFTER$,,AUTO
        25 006203   000005 116000 26                 CMPQ    5
        25 006204   006257 600000 25                 TZE     s:32000

     1349    31958
     1350    31959                             %IF_THEN_DO (@LOP = POINTER$,
     1351    31960                                          @REL = %OP_GREATER_THAN_OR_EQUAL,
     1352    31961                                          @ROP = AFTER$,
     1353    31962                                          @LAB = END_AFTER_IF$) ;

  31969 25 006205   200176 630500                    EPPR0   COMPARISON,,AUTO
        25 006206   200277 450500                    STP0    COMPARISON$,,AUTO

  31977 25 006207   000005 220003                    LDX0    5,DU
        25 006210   000000 740100                    STX0    0,,PR0

  31978 25 006211   000000 221003                    LDX1    0,DU
        25 006212   200277 470500                    LDP0    COMPARISON$,,AUTO
        25 006213   000000 441100                    SXL1    0,,PR0

  31985 25 006214   000001 470400 24                 LDP0    POINTER$
        25 006215   200277 471500                    LDP1    COMPARISON$,,AUTO
        25 006216   000005 235100                    LDA     5,,PR0
        25 006217   100005 755100                    STA     5,,PR1

  31986 25 006220   200277 471500                    LDP1    COMPARISON$,,AUTO
        25 006221   000006 235100                    LDA     6,,PR0
        25 006222   100006 755100                    STA     6,,PR1

  31987 25 006223   200267 236100                    LDQ     AFTER$,,AUTO
PL6.E3A0      #001=Z8EA$INSPECT_1 File=Z8EA.:Z8A6TSI                             SAT 08/09/97 11:39 Page:261
        25 006224   200277 471500                    LDP1    COMPARISON$,,AUTO
        25 006225   100002 756100                    STQ     2,,PR1

  31988 25 006226   000001 236000 24                 LDQ     POINTER$
        25 006227   200277 471500                    LDP1    COMPARISON$,,AUTO
        25 006230   100001 756100                    STQ     1,,PR1

  31989 25 006231   000033 235007                    LDA     27,DL
        25 006232   200277 470500                    LDP0    COMPARISON$,,AUTO
        25 006233   000003 755100                    STA     3,,PR0

  31990 25 006234   000005 236000 26                 LDQ     5
        25 006235   200277 470500                    LDP0    COMPARISON$,,AUTO
        25 006236   000007 756100                    STQ     7,,PR0

  31993 25 006237   200300 630500                    EPPR0   END_AFTER_IF$,,AUTO
        25 006240   200553 450500                    STP0    LENGTH_ID4$+3,,AUTO
        25 006241   000024 236000 26                 LDQ     20
        25 006242   200552 756100                    STQ     LENGTH_ID4$+2,,AUTO
        25 006243   200552 630500                    EPPR0   LENGTH_ID4$+2,,AUTO
        25 006244   000000 631400 26                 EPPR1   0
        25 006245   000000 701000 xent               TSX1    Z8AT$CREATE_TEMPORARY
        25 006246   000000 011000                    NOP     0

  31994 25 006247   200277 630500                    EPPR0   COMPARISON$,,AUTO
        25 006250   200553 450500                    STP0    LENGTH_ID4$+3,,AUTO
        25 006251   200300 631500                    EPPR1   END_AFTER_IF$,,AUTO
        25 006252   200552 451500                    STP1    LENGTH_ID4$+2,,AUTO
        25 006253   200552 630500                    EPPR0   LENGTH_ID4$+2,,AUTO
        25 006254   000000 631400 26                 EPPR1   0
        25 006255   000000 701000 xent               TSX1    Z8EK$BRANCH_FALSE
        25 006256   000000 011000                    NOP     0

     1354    31997
     1355    31998    7                      END ;

     1356    31999
PL6.E3A0      #001=Z8EA$INSPECT_1 File=Z8EA.:Z8A6TSI                             SAT 08/09/97 11:39 Page:262
     1357    32000    7                      IF BEFORE$ ~= ADDR (NIL) THEN DO ;

  32000 25 006257   200273 236100                    LDQ     BEFORE$,,AUTO
        25 006260   000005 116000 26                 CMPQ    5
        25 006261   006266 600000 25                 TZE     s:32010

     1358    32001
     1359    32002                             /* IF Pointer <= Before$ - Length(id3) THEN DO */
     1360    32003
     1361    32004    7                        CALL BEFORE_CHECK (END_BEFORE_IF$) ;

  32004 25 006262   200301 630500                    EPPR0   END_BEFORE_IF$,,AUTO
        25 006263   200417 450500                    STP0    CONVERSION_ILS_LIST+9,,AUTO
        25 006264   011367 701000 25                 TSX1    BEFORE_CHECK
        25 006265   000000 011000                    NOP     0

     1362    32005
     1363    32006    7                      END ;

     1364    32007
     1365    32008                           /* IF SUBSTR (id1, Pointer, Lengthc(id3)) = id3 THEN DO */
     1366    32009
     1367    32010    6                      CALL IF_SUBSTR_ID1_EQUALS_ID3 (END_IF$) ;

  32010 25 006266   200302 630500                    EPPR0   END_IF$,,AUTO
        25 006267   200417 450500                    STP0    CONVERSION_ILS_LIST+9,,AUTO
        25 006270   012060 701000 25                 TSX1    IF_SUBSTR_ID1_EQUALS_ID3
        25 006271   000000 011000                    NOP     0

     1368    32011
     1369    32012                           /* SUBSTR (id1, Pointer, Lengthc (id3)) = id5 */
     1370    32013
     1371    32014    6                      CALL Z8E7$MOVE (SUBSTR$, ID5$) ;

  32014 25 006272   200317 630500                    EPPR0   ID5$,,AUTO
        25 006273   200553 450500                    STP0    LENGTH_ID4$+3,,AUTO
        25 006274   200346 631500                    EPPR1   SUBSTR$,,AUTO
PL6.E3A0      #001=Z8EA$INSPECT_1 File=Z8EA.:Z8A6TSI                             SAT 08/09/97 11:39 Page:263
        25 006275   200552 451500                    STP1    LENGTH_ID4$+2,,AUTO
        25 006276   200552 630500                    EPPR0   LENGTH_ID4$+2,,AUTO
        25 006277   000000 631400 26                 EPPR1   0
        25 006300   000000 701000 xent               TSX1    Z8E7$MOVE
        25 006301   000000 011000                    NOP     0

     1372    32015
     1373    32016                           /* ADD Lengthc (id3) TO Pointer */
     1374    32017
     1375    32018                           %NEW_ILL (@ID  = %AD2I,
     1376    32019                                     @LOP = POINTER$ -> LX_ETT_ITEM.ETT$,
     1377    32020                                     @ROP = LENGTH_ID3$  -> LX_ETT_ITEM.ETT$) ;

  32333 25 006302   000031 236000 26                 LDQ     25
        25 006303   200552 756100                    STQ     LENGTH_ID4$+2,,AUTO
        25 006304   000001 236000 24                 LDQ     POINTER$
        25 006305   000001 036003                    ADLQ    1,DU
        25 006306   200557 756100                    STQ     LENGTH_ID4$+7,,AUTO
        25 006307   200552 630500                    EPPR0   LENGTH_ID4$+2,,AUTO
        25 006310   200556 450500                    STP0    LENGTH_ID4$+6,,AUTO
        25 006311   000036 237000 26                 LDAQ    30
        25 006312   200554 757100                    STAQ    LENGTH_ID4$+4,,AUTO
        25 006313   000002 236000 26                 LDQ     2
        25 006314   200553 756100                    STQ     LENGTH_ID4$+3,,AUTO
        25 006315   200553 630500                    EPPR0   LENGTH_ID4$+3,,AUTO
        25 006316   000027 631400 26                 EPPR1   23
        25 006317   000000 701000 xent               TSX1    Z8AN$NEW_ILL1
        25 006320   000000 011000                    NOP     0

  32336 25 006321   000001 470400 24                 LDP0    POINTER$
        25 006322   000001 236100                    LDQ     1,,PR0
        25 006323   000000 471400 1                  LDP1    ILL$
        25 006324   100001 756100                    STQ     1,,PR1

  32337 25 006325   200330 470500                    LDP0    LENGTH_ID3$,,AUTO
        25 006326   000001 236100                    LDQ     1,,PR0
        25 006327   100002 756100                    STQ     2,,PR1
PL6.E3A0      #001=Z8EA$INSPECT_1 File=Z8EA.:Z8A6TSI                             SAT 08/09/97 11:39 Page:264

     1378    32399
     1379    32400                           /* GO TO End_Loop */
     1380    32401
     1381    32402    6                      CALL Z8EK$BRANCH (END_LOOP$) ;

  32402 25 006330   200303 630500                    EPPR0   END_LOOP$,,AUTO
        25 006331   200552 450500                    STP0    LENGTH_ID4$+2,,AUTO
        25 006332   200552 630500                    EPPR0   LENGTH_ID4$+2,,AUTO
        25 006333   000041 631400 26                 EPPR1   33
        25 006334   000000 701000 xent               TSX1    Z8EK$BRANCH
        25 006335   000000 011000                    NOP     0

     1382    32403
     1383    32404                           /* END-IF */
     1384    32405
     1385    32406                           %NEW_ILL (@ID = %DEFLB, @LOP = END_IF$) ;

  32727 25 006336   000031 236000 26                 LDQ     25
        25 006337   200552 756100                    STQ     LENGTH_ID4$+2,,AUTO
        25 006340   200552 630500                    EPPR0   LENGTH_ID4$+2,,AUTO
        25 006341   200557 450500                    STP0    LENGTH_ID4$+7,,AUTO
        25 006342   000033 236000 26                 LDQ     27
        25 006343   200556 756100                    STQ     LENGTH_ID4$+6,,AUTO
        25 006344   000042 237000 26                 LDAQ    34
        25 006345   200554 757100                    STAQ    LENGTH_ID4$+4,,AUTO
        25 006346   200554 630500                    EPPR0   LENGTH_ID4$+4,,AUTO
        25 006347   000010 631400 26                 EPPR1   8
        25 006350   000000 701000 xent               TSX1    Z8AN$NEW_ILL
        25 006351   000000 011000                    NOP     0

  32736 25 006352   200302 236100                    LDQ     END_IF$,,AUTO
        25 006353   000000 470400 1                  LDP0    ILL$
        25 006354   000001 756100                    STQ     1,,PR0

     1386    32785
     1387    32786                           /* END (Pointer <= Before$) */
PL6.E3A0      #001=Z8EA$INSPECT_1 File=Z8EA.:Z8A6TSI                             SAT 08/09/97 11:39 Page:265
     1388    32787
     1389    32788    6                      IF BEFORE$ ~= ADDR(NIL) THEN

  32788 25 006355   200273 236100                    LDQ     BEFORE$,,AUTO
        25 006356   000005 116000 26                 CMPQ    5
        25 006357   006377 600000 25                 TZE     s:33171

     1390    32789                             %NEW_ILL (@ID = %DEFLB, @LOP = END_BEFORE_IF$) ;

  33110 25 006360   000031 236000 26                 LDQ     25
        25 006361   200552 756100                    STQ     LENGTH_ID4$+2,,AUTO
        25 006362   200552 631500                    EPPR1   LENGTH_ID4$+2,,AUTO
        25 006363   200557 451500                    STP1    LENGTH_ID4$+7,,AUTO
        25 006364   000033 236000 26                 LDQ     27
        25 006365   200556 756100                    STQ     LENGTH_ID4$+6,,AUTO
        25 006366   000042 237000 26                 LDAQ    34
        25 006367   200554 757100                    STAQ    LENGTH_ID4$+4,,AUTO
        25 006370   200554 630500                    EPPR0   LENGTH_ID4$+4,,AUTO
        25 006371   000010 631400 26                 EPPR1   8
        25 006372   000000 701000 xent               TSX1    Z8AN$NEW_ILL
        25 006373   000000 011000                    NOP     0

  33119 25 006374   200301 236100                    LDQ     END_BEFORE_IF$,,AUTO
        25 006375   000000 470400 1                  LDP0    ILL$
        25 006376   000001 756100                    STQ     1,,PR0

     1391    33168
     1392    33169                           /* END (Pointer >= After$) */
     1393    33170
     1394    33171    6                      IF AFTER$ ~= ADDR(NIL) THEN

  33171 25 006377   200267 236100                    LDQ     AFTER$,,AUTO
        25 006400   000005 116000 26                 CMPQ    5
        25 006401   007236 600000 25                 TZE     s:37208

     1395    33172                             %NEW_ILL (@ID = %DEFLB, @LOP = END_AFTER_IF$) ;

PL6.E3A0      #001=Z8EA$INSPECT_1 File=Z8EA.:Z8A6TSI                             SAT 08/09/97 11:39 Page:266
  33493 25 006402   000031 236000 26                 LDQ     25
        25 006403   200552 756100                    STQ     LENGTH_ID4$+2,,AUTO
        25 006404   200552 631500                    EPPR1   LENGTH_ID4$+2,,AUTO
        25 006405   200557 451500                    STP1    LENGTH_ID4$+7,,AUTO
        25 006406   000033 236000 26                 LDQ     27
        25 006407   200556 756100                    STQ     LENGTH_ID4$+6,,AUTO
        25 006410   000042 237000 26                 LDAQ    34
        25 006411   200554 757100                    STAQ    LENGTH_ID4$+4,,AUTO
        25 006412   200554 630500                    EPPR0   LENGTH_ID4$+4,,AUTO
        25 006413   000010 631400 26                 EPPR1   8
        25 006414   000000 701000 xent               TSX1    Z8AN$NEW_ILL
        25 006415   000000 011000                    NOP     0

  33502 25 006416   200300 236100                    LDQ     END_AFTER_IF$,,AUTO
        25 006417   000000 470400 1                  LDP0    ILL$
        25 006420   000001 756100                    STQ     1,,PR0

     1396    33551
     1397    33552    6                    END ; /* Not Optimizable */

  33552 25 006421   007236 710000 25                 TRA     s:37208

     1398    33553
     1399    33554        %EJECT;
PL6.E3A0      #001=Z8EA$INSPECT_1 File=Z8EA.:Z8A6TSI                             SAT 08/09/97 11:39 Page:267
     1400    33555                         /*=========================================*/
     1401    33556                       /*V* INSPECT_REPLACING_PASS_3_LEADING_CLAUSE */
     1402    33557                         /*=========================================*/
     1403    33558
     1404    33559    5                  CASE (%RSV_WRD_LEADING) ;  /* LEADING */

     1405    33560
     1406    33561    6                    IF OPTIMIZABLE THEN DO ;

  33561 25 006422   200337 234100                    SZN     OPTIMIZABLE,,AUTO
        25 006423   006456 605000 25                 TPL     s:33575

     1407    33562
     1408    33563    6                      CALL LEADING_OPTIMIZED ; /* Search id1 via TCT */

  33563 25 006424   011473 701000 25                 TSX1    LEADING_OPTIMIZED
        25 006425   000000 011000                    NOP     0

     1409    33564
     1410    33565                           /* MOVE Filler('x') TO SUBSTR (id1, 1, Position) */
     1411    33566
     1412    33567    6                      CALL Z8EY$INSERT (ID1$, ONE_LX_ETT$, POSITION$, SUBSTR$) ;
             33567                               /*#42050*/

  33567 25 006426   200346 630500                    EPPR0   SUBSTR$,,AUTO
        25 006427   200555 450500                    STP0    LENGTH_ID4$+5,,AUTO
        25 006430   200340 631500                    EPPR1   POSITION$,,AUTO
        25 006431   200554 451500                    STP1    LENGTH_ID4$+4,,AUTO
        25 006432   200336 633500                    EPPR3   ONE_LX_ETT$,,AUTO
        25 006433   200553 453500                    STP3    LENGTH_ID4$+3,,AUTO
        25 006434   200311 634500                    EPPR4   ID1$,,AUTO
        25 006435   200552 454500                    STP4    LENGTH_ID4$+2,,AUTO
        25 006436   200552 630500                    EPPR0   LENGTH_ID4$+2,,AUTO
        25 006437   000010 631400 26                 EPPR1   8
        25 006440   000000 701000 xent               TSX1    Z8EY$INSERT
        25 006441   000000 011000                    NOP     0

PL6.E3A0      #001=Z8EA$INSPECT_1 File=Z8EA.:Z8A6TSI                             SAT 08/09/97 11:39 Page:268
     1413    33568    6                      ID5$ -> LX_ETT_ITEM.B.ALL = TRUE ;

  33568 25 006442   200317 470500                    LDP0    ID5$,,AUTO
        25 006443   040000 236007                    LDQ     16384,DL
        25 006444   000000 256100                    ORSQ    0,,PR0

     1414    33569    6                      CALL Z8E7$MOVE (SUBSTR$, ID5$) ;

  33569 25 006445   200317 630500                    EPPR0   ID5$,,AUTO
        25 006446   200553 450500                    STP0    LENGTH_ID4$+3,,AUTO
        25 006447   200346 631500                    EPPR1   SUBSTR$,,AUTO
        25 006450   200552 451500                    STP1    LENGTH_ID4$+2,,AUTO
        25 006451   200552 630500                    EPPR0   LENGTH_ID4$+2,,AUTO
        25 006452   000000 631400 26                 EPPR1   0
        25 006453   000000 701000 xent               TSX1    Z8E7$MOVE
        25 006454   000000 011000                    NOP     0

     1415    33570
     1416    33571    6                    END ; /* Optimizable */

  33571 25 006455   007236 710000 25                 TRA     s:37208

     1417    33572
     1418    33573    6                    ELSE DO ; /* Not Optimizable */

     1419    33574
     1420    33575    7                      IF AFTER$ ~= ADDR(NIL) THEN DO ;

  33575 25 006456   200267 236100                    LDQ     AFTER$,,AUTO
        25 006457   000005 116000 26                 CMPQ    5
        25 006460   006533 600000 25                 TZE     s:33618

     1421    33576
     1422    33577                             %IF_THEN_DO (@LOP = POINTER$,
     1423    33578                                          @REL = %OP_EQUAL,
     1424    33579                                          @ROP = AFTER$,
     1425    33580                                          @LAB = END_AFTER_IF$) ;
PL6.E3A0      #001=Z8EA$INSPECT_1 File=Z8EA.:Z8A6TSI                             SAT 08/09/97 11:39 Page:269

  33587 25 006461   200176 630500                    EPPR0   COMPARISON,,AUTO
        25 006462   200277 450500                    STP0    COMPARISON$,,AUTO

  33595 25 006463   000005 220003                    LDX0    5,DU
        25 006464   000000 740100                    STX0    0,,PR0

  33596 25 006465   000000 221003                    LDX1    0,DU
        25 006466   200277 470500                    LDP0    COMPARISON$,,AUTO
        25 006467   000000 441100                    SXL1    0,,PR0

  33603 25 006470   000001 470400 24                 LDP0    POINTER$
        25 006471   200277 471500                    LDP1    COMPARISON$,,AUTO
        25 006472   000005 235100                    LDA     5,,PR0
        25 006473   100005 755100                    STA     5,,PR1

  33604 25 006474   200277 471500                    LDP1    COMPARISON$,,AUTO
        25 006475   000006 235100                    LDA     6,,PR0
        25 006476   100006 755100                    STA     6,,PR1

  33605 25 006477   200267 236100                    LDQ     AFTER$,,AUTO
        25 006500   200277 471500                    LDP1    COMPARISON$,,AUTO
        25 006501   100002 756100                    STQ     2,,PR1

  33606 25 006502   000001 236000 24                 LDQ     POINTER$
        25 006503   200277 471500                    LDP1    COMPARISON$,,AUTO
        25 006504   100001 756100                    STQ     1,,PR1

  33607 25 006505   000027 235007                    LDA     23,DL
        25 006506   200277 470500                    LDP0    COMPARISON$,,AUTO
        25 006507   000003 755100                    STA     3,,PR0

  33608 25 006510   000005 236000 26                 LDQ     5
        25 006511   200277 470500                    LDP0    COMPARISON$,,AUTO
        25 006512   000007 756100                    STQ     7,,PR0

  33611 25 006513   200300 630500                    EPPR0   END_AFTER_IF$,,AUTO
PL6.E3A0      #001=Z8EA$INSPECT_1 File=Z8EA.:Z8A6TSI                             SAT 08/09/97 11:39 Page:270
        25 006514   200553 450500                    STP0    LENGTH_ID4$+3,,AUTO
        25 006515   000024 236000 26                 LDQ     20
        25 006516   200552 756100                    STQ     LENGTH_ID4$+2,,AUTO
        25 006517   200552 630500                    EPPR0   LENGTH_ID4$+2,,AUTO
        25 006520   000000 631400 26                 EPPR1   0
        25 006521   000000 701000 xent               TSX1    Z8AT$CREATE_TEMPORARY
        25 006522   000000 011000                    NOP     0

  33612 25 006523   200277 630500                    EPPR0   COMPARISON$,,AUTO
        25 006524   200553 450500                    STP0    LENGTH_ID4$+3,,AUTO
        25 006525   200300 631500                    EPPR1   END_AFTER_IF$,,AUTO
        25 006526   200552 451500                    STP1    LENGTH_ID4$+2,,AUTO
        25 006527   200552 630500                    EPPR0   LENGTH_ID4$+2,,AUTO
        25 006530   000000 631400 26                 EPPR1   0
        25 006531   000000 701000 xent               TSX1    Z8EK$BRANCH_FALSE
        25 006532   000000 011000                    NOP     0

     1426    33615
     1427    33616    7                      END ;

     1428    33617
     1429    33618    7                      IF BEFORE$ ~= ADDR (NIL) THEN DO ;

  33618 25 006533   200273 236100                    LDQ     BEFORE$,,AUTO
        25 006534   000005 116000 26                 CMPQ    5
        25 006535   006542 600000 25                 TZE     s:33628

     1430    33619
     1431    33620                             /* IF Pointer <= Before$ - Length(id3) THEN DO */
     1432    33621
     1433    33622    7                        CALL BEFORE_CHECK (END_BEFORE_IF$) ;

  33622 25 006536   200301 630500                    EPPR0   END_BEFORE_IF$,,AUTO
        25 006537   200417 450500                    STP0    CONVERSION_ILS_LIST+9,,AUTO
        25 006540   011367 701000 25                 TSX1    BEFORE_CHECK
        25 006541   000000 011000                    NOP     0

PL6.E3A0      #001=Z8EA$INSPECT_1 File=Z8EA.:Z8A6TSI                             SAT 08/09/97 11:39 Page:271
     1434    33623
     1435    33624    7                      END ;

     1436    33625
     1437    33626                           /* IF SUBSTR (id1, Pointer, Lengthc(id3)) = id3 THEN DO */
     1438    33627
     1439    33628    6                      CALL IF_SUBSTR_ID1_EQUALS_ID3 (END_IF$) ;

  33628 25 006542   200302 630500                    EPPR0   END_IF$,,AUTO
        25 006543   200417 450500                    STP0    CONVERSION_ILS_LIST+9,,AUTO
        25 006544   012060 701000 25                 TSX1    IF_SUBSTR_ID1_EQUALS_ID3
        25 006545   000000 011000                    NOP     0

     1440    33629
     1441    33630                           /* SUBSTR (id1, Pointer, Lengthc (id3)) = id5 */
     1442    33631
     1443    33632    6                      CALL Z8E7$MOVE (SUBSTR$, ID5$) ;

  33632 25 006546   200317 630500                    EPPR0   ID5$,,AUTO
        25 006547   200553 450500                    STP0    LENGTH_ID4$+3,,AUTO
        25 006550   200346 631500                    EPPR1   SUBSTR$,,AUTO
        25 006551   200552 451500                    STP1    LENGTH_ID4$+2,,AUTO
        25 006552   200552 630500                    EPPR0   LENGTH_ID4$+2,,AUTO
        25 006553   000000 631400 26                 EPPR1   0
        25 006554   000000 701000 xent               TSX1    Z8E7$MOVE
        25 006555   000000 011000                    NOP     0

     1444    33633
     1445    33634                           /* ADD Lengthc (id3) TO Pointer */
     1446    33635
     1447    33636                           %NEW_ILL (@ID  = %AD2I,
     1448    33637                                     @LOP = POINTER$ -> LX_ETT_ITEM.ETT$,
     1449    33638                                     @ROP = LENGTH_ID3$  -> LX_ETT_ITEM.ETT$) ;

  33951 25 006556   000031 236000 26                 LDQ     25
        25 006557   200552 756100                    STQ     LENGTH_ID4$+2,,AUTO
        25 006560   000001 236000 24                 LDQ     POINTER$
PL6.E3A0      #001=Z8EA$INSPECT_1 File=Z8EA.:Z8A6TSI                             SAT 08/09/97 11:39 Page:272
        25 006561   000001 036003                    ADLQ    1,DU
        25 006562   200557 756100                    STQ     LENGTH_ID4$+7,,AUTO
        25 006563   200552 630500                    EPPR0   LENGTH_ID4$+2,,AUTO
        25 006564   200556 450500                    STP0    LENGTH_ID4$+6,,AUTO
        25 006565   000036 237000 26                 LDAQ    30
        25 006566   200554 757100                    STAQ    LENGTH_ID4$+4,,AUTO
        25 006567   000002 236000 26                 LDQ     2
        25 006570   200553 756100                    STQ     LENGTH_ID4$+3,,AUTO
        25 006571   200553 630500                    EPPR0   LENGTH_ID4$+3,,AUTO
        25 006572   000027 631400 26                 EPPR1   23
        25 006573   000000 701000 xent               TSX1    Z8AN$NEW_ILL1
        25 006574   000000 011000                    NOP     0

  33954 25 006575   000001 470400 24                 LDP0    POINTER$
        25 006576   000001 236100                    LDQ     1,,PR0
        25 006577   000000 471400 1                  LDP1    ILL$
        25 006600   100001 756100                    STQ     1,,PR1

  33955 25 006601   200330 470500                    LDP0    LENGTH_ID3$,,AUTO
        25 006602   000001 236100                    LDQ     1,,PR0
        25 006603   100002 756100                    STQ     2,,PR1

     1450    34017
     1451    34018                           /* AFTER$ = AFTER$ + LENGTHC (id3) */
     1452    34019
     1453    34020                           %NEW_ILL (@ID  = %AD2I,
     1454    34021                                     @LOP = AFTER$   -> LX_ETT_ITEM.ETT$,
     1455    34022                                     @ROP = LENGTH_ID3$  -> LX_ETT_ITEM.ETT$) ;

  34335 25 006604   000031 236000 26                 LDQ     25
        25 006605   200552 756100                    STQ     LENGTH_ID4$+2,,AUTO
        25 006606   200267 236100                    LDQ     AFTER$,,AUTO
        25 006607   000001 036003                    ADLQ    1,DU
        25 006610   200557 756100                    STQ     LENGTH_ID4$+7,,AUTO
        25 006611   200552 630500                    EPPR0   LENGTH_ID4$+2,,AUTO
        25 006612   200556 450500                    STP0    LENGTH_ID4$+6,,AUTO
        25 006613   000036 237000 26                 LDAQ    30
PL6.E3A0      #001=Z8EA$INSPECT_1 File=Z8EA.:Z8A6TSI                             SAT 08/09/97 11:39 Page:273
        25 006614   200554 757100                    STAQ    LENGTH_ID4$+4,,AUTO
        25 006615   000002 236000 26                 LDQ     2
        25 006616   200553 756100                    STQ     LENGTH_ID4$+3,,AUTO
        25 006617   200553 630500                    EPPR0   LENGTH_ID4$+3,,AUTO
        25 006620   000027 631400 26                 EPPR1   23
        25 006621   000000 701000 xent               TSX1    Z8AN$NEW_ILL1
        25 006622   000000 011000                    NOP     0

  34338 25 006623   200267 470500                    LDP0    AFTER$,,AUTO
        25 006624   000001 236100                    LDQ     1,,PR0
        25 006625   000000 471400 1                  LDP1    ILL$
        25 006626   100001 756100                    STQ     1,,PR1

  34339 25 006627   200330 470500                    LDP0    LENGTH_ID3$,,AUTO
        25 006630   000001 236100                    LDQ     1,,PR0
        25 006631   100002 756100                    STQ     2,,PR1

     1456    34401
     1457    34402                           /* GO TO End_Loop */
     1458    34403
     1459    34404    6                      CALL Z8EK$BRANCH (END_LOOP$) ;

  34404 25 006632   200303 630500                    EPPR0   END_LOOP$,,AUTO
        25 006633   200552 450500                    STP0    LENGTH_ID4$+2,,AUTO
        25 006634   200552 630500                    EPPR0   LENGTH_ID4$+2,,AUTO
        25 006635   000041 631400 26                 EPPR1   33
        25 006636   000000 701000 xent               TSX1    Z8EK$BRANCH
        25 006637   000000 011000                    NOP     0

     1460    34405
     1461    34406                           /* END-IF */
     1462    34407
     1463    34408                           %NEW_ILL (@ID = %DEFLB, @LOP = END_IF$) ;

  34729 25 006640   000031 236000 26                 LDQ     25
        25 006641   200552 756100                    STQ     LENGTH_ID4$+2,,AUTO
        25 006642   200552 630500                    EPPR0   LENGTH_ID4$+2,,AUTO
PL6.E3A0      #001=Z8EA$INSPECT_1 File=Z8EA.:Z8A6TSI                             SAT 08/09/97 11:39 Page:274
        25 006643   200557 450500                    STP0    LENGTH_ID4$+7,,AUTO
        25 006644   000033 236000 26                 LDQ     27
        25 006645   200556 756100                    STQ     LENGTH_ID4$+6,,AUTO
        25 006646   000042 237000 26                 LDAQ    34
        25 006647   200554 757100                    STAQ    LENGTH_ID4$+4,,AUTO
        25 006650   200554 630500                    EPPR0   LENGTH_ID4$+4,,AUTO
        25 006651   000010 631400 26                 EPPR1   8
        25 006652   000000 701000 xent               TSX1    Z8AN$NEW_ILL
        25 006653   000000 011000                    NOP     0

  34738 25 006654   200302 236100                    LDQ     END_IF$,,AUTO
        25 006655   000000 470400 1                  LDP0    ILL$
        25 006656   000001 756100                    STQ     1,,PR0

     1464    34787
     1465    34788                           /* END (Pointer <= Before$) */
     1466    34789
     1467    34790    6                      IF BEFORE$ ~= ADDR(NIL) THEN

  34790 25 006657   200273 236100                    LDQ     BEFORE$,,AUTO
        25 006660   000005 116000 26                 CMPQ    5
        25 006661   006701 600000 25                 TZE     s:35173

     1468    34791                             %NEW_ILL (@ID = %DEFLB, @LOP = END_BEFORE_IF$) ;

  35112 25 006662   000031 236000 26                 LDQ     25
        25 006663   200552 756100                    STQ     LENGTH_ID4$+2,,AUTO
        25 006664   200552 631500                    EPPR1   LENGTH_ID4$+2,,AUTO
        25 006665   200557 451500                    STP1    LENGTH_ID4$+7,,AUTO
        25 006666   000033 236000 26                 LDQ     27
        25 006667   200556 756100                    STQ     LENGTH_ID4$+6,,AUTO
        25 006670   000042 237000 26                 LDAQ    34
        25 006671   200554 757100                    STAQ    LENGTH_ID4$+4,,AUTO
        25 006672   200554 630500                    EPPR0   LENGTH_ID4$+4,,AUTO
        25 006673   000010 631400 26                 EPPR1   8
        25 006674   000000 701000 xent               TSX1    Z8AN$NEW_ILL
        25 006675   000000 011000                    NOP     0
PL6.E3A0      #001=Z8EA$INSPECT_1 File=Z8EA.:Z8A6TSI                             SAT 08/09/97 11:39 Page:275

  35121 25 006676   200301 236100                    LDQ     END_BEFORE_IF$,,AUTO
        25 006677   000000 470400 1                  LDP0    ILL$
        25 006700   000001 756100                    STQ     1,,PR0

     1469    35170
     1470    35171                           /* END (Pointer >= After$) */
     1471    35172
     1472    35173    6                      IF AFTER$ ~= ADDR(NIL) THEN

  35173 25 006701   200267 236100                    LDQ     AFTER$,,AUTO
        25 006702   000005 116000 26                 CMPQ    5
        25 006703   007236 600000 25                 TZE     s:37208

     1473    35174                             %NEW_ILL (@ID = %DEFLB, @LOP = END_AFTER_IF$) ;

  35495 25 006704   000031 236000 26                 LDQ     25
        25 006705   200552 756100                    STQ     LENGTH_ID4$+2,,AUTO
        25 006706   200552 631500                    EPPR1   LENGTH_ID4$+2,,AUTO
        25 006707   200557 451500                    STP1    LENGTH_ID4$+7,,AUTO
        25 006710   000033 236000 26                 LDQ     27
        25 006711   200556 756100                    STQ     LENGTH_ID4$+6,,AUTO
        25 006712   000042 237000 26                 LDAQ    34
        25 006713   200554 757100                    STAQ    LENGTH_ID4$+4,,AUTO
        25 006714   200554 630500                    EPPR0   LENGTH_ID4$+4,,AUTO
        25 006715   000010 631400 26                 EPPR1   8
        25 006716   000000 701000 xent               TSX1    Z8AN$NEW_ILL
        25 006717   000000 011000                    NOP     0

  35504 25 006720   200300 236100                    LDQ     END_AFTER_IF$,,AUTO
        25 006721   000000 470400 1                  LDP0    ILL$
        25 006722   000001 756100                    STQ     1,,PR0

     1474    35553
     1475    35554    6                    END ; /* Not Optimizable */

  35554 25 006723   007236 710000 25                 TRA     s:37208
PL6.E3A0      #001=Z8EA$INSPECT_1 File=Z8EA.:Z8A6TSI                             SAT 08/09/97 11:39 Page:276

     1476    35555
     1477    35556        %EJECT;
PL6.E3A0      #001=Z8EA$INSPECT_1 File=Z8EA.:Z8A6TSI                             SAT 08/09/97 11:39 Page:277
     1478    35557                         /*=======================================*/
     1479    35558                       /*V* INSPECT_REPLACING_PASS_3_FIRST_CLAUSE */
     1480    35559                         /*=======================================*/
     1481    35560
     1482    35561    5                  CASE (%RSV_WRD_FIRST) ;

     1483    35562
     1484    35563
     1485    35564    6                    IF AFTER$ ~= ADDR(NIL) THEN DO ;

  35564 25 006724   200267 236100                    LDQ     AFTER$,,AUTO
        25 006725   000005 116000 26                 CMPQ    5
        25 006726   007001 600000 25                 TZE     s:35607

     1486    35565
     1487    35566                           %IF_THEN_DO (@LOP = POINTER$,
     1488    35567                                        @REL = %OP_GREATER_THAN_OR_EQUAL,
     1489    35568                                        @ROP = AFTER$,
     1490    35569                                        @LAB = END_AFTER_IF$) ;

  35576 25 006727   200176 630500                    EPPR0   COMPARISON,,AUTO
        25 006730   200277 450500                    STP0    COMPARISON$,,AUTO

  35584 25 006731   000005 220003                    LDX0    5,DU
        25 006732   000000 740100                    STX0    0,,PR0

  35585 25 006733   000000 221003                    LDX1    0,DU
        25 006734   200277 470500                    LDP0    COMPARISON$,,AUTO
        25 006735   000000 441100                    SXL1    0,,PR0

  35592 25 006736   000001 470400 24                 LDP0    POINTER$
        25 006737   200277 471500                    LDP1    COMPARISON$,,AUTO
        25 006740   000005 235100                    LDA     5,,PR0
        25 006741   100005 755100                    STA     5,,PR1

  35593 25 006742   200277 471500                    LDP1    COMPARISON$,,AUTO
        25 006743   000006 235100                    LDA     6,,PR0
PL6.E3A0      #001=Z8EA$INSPECT_1 File=Z8EA.:Z8A6TSI                             SAT 08/09/97 11:39 Page:278
        25 006744   100006 755100                    STA     6,,PR1

  35594 25 006745   200267 236100                    LDQ     AFTER$,,AUTO
        25 006746   200277 471500                    LDP1    COMPARISON$,,AUTO
        25 006747   100002 756100                    STQ     2,,PR1

  35595 25 006750   000001 236000 24                 LDQ     POINTER$
        25 006751   200277 471500                    LDP1    COMPARISON$,,AUTO
        25 006752   100001 756100                    STQ     1,,PR1

  35596 25 006753   000033 235007                    LDA     27,DL
        25 006754   200277 470500                    LDP0    COMPARISON$,,AUTO
        25 006755   000003 755100                    STA     3,,PR0

  35597 25 006756   000005 236000 26                 LDQ     5
        25 006757   200277 470500                    LDP0    COMPARISON$,,AUTO
        25 006760   000007 756100                    STQ     7,,PR0

  35600 25 006761   200300 630500                    EPPR0   END_AFTER_IF$,,AUTO
        25 006762   200553 450500                    STP0    LENGTH_ID4$+3,,AUTO
        25 006763   000024 236000 26                 LDQ     20
        25 006764   200552 756100                    STQ     LENGTH_ID4$+2,,AUTO
        25 006765   200552 630500                    EPPR0   LENGTH_ID4$+2,,AUTO
        25 006766   000000 631400 26                 EPPR1   0
        25 006767   000000 701000 xent               TSX1    Z8AT$CREATE_TEMPORARY
        25 006770   000000 011000                    NOP     0

  35601 25 006771   200277 630500                    EPPR0   COMPARISON$,,AUTO
        25 006772   200553 450500                    STP0    LENGTH_ID4$+3,,AUTO
        25 006773   200300 631500                    EPPR1   END_AFTER_IF$,,AUTO
        25 006774   200552 451500                    STP1    LENGTH_ID4$+2,,AUTO
        25 006775   200552 630500                    EPPR0   LENGTH_ID4$+2,,AUTO
        25 006776   000000 631400 26                 EPPR1   0
        25 006777   000000 701000 xent               TSX1    Z8EK$BRANCH_FALSE
        25 007000   000000 011000                    NOP     0

     1491    35604
PL6.E3A0      #001=Z8EA$INSPECT_1 File=Z8EA.:Z8A6TSI                             SAT 08/09/97 11:39 Page:279
     1492    35605    6                    END ;

     1493    35606
     1494    35607    6                    IF BEFORE$ ~= ADDR (NIL) THEN DO ;

  35607 25 007001   200273 236100                    LDQ     BEFORE$,,AUTO
        25 007002   000005 116000 26                 CMPQ    5
        25 007003   007010 600000 25                 TZE     s:35617

     1495    35608
     1496    35609                           /* IF Pointer <= Before$ - Length(id3) THEN DO */
     1497    35610
     1498    35611    6                      CALL BEFORE_CHECK (END_BEFORE_IF$) ;

  35611 25 007004   200301 630500                    EPPR0   END_BEFORE_IF$,,AUTO
        25 007005   200417 450500                    STP0    CONVERSION_ILS_LIST+9,,AUTO
        25 007006   011367 701000 25                 TSX1    BEFORE_CHECK
        25 007007   000000 011000                    NOP     0

     1499    35612
     1500    35613    6                    END ;

     1501    35614
     1502    35615                         /* IF SUBSTR (id1, Pointer, Lengthc(id3)) = id3 THEN DO */
     1503    35616
     1504    35617    5                    CALL Z8EA$INSERT_ZERO (ID1$, POINTER$, LENGTH_ID3$, SUBSTR$) ;

  35617 25 007010   200346 630500                    EPPR0   SUBSTR$,,AUTO
        25 007011   200555 450500                    STP0    LENGTH_ID4$+5,,AUTO
        25 007012   200330 631500                    EPPR1   LENGTH_ID3$,,AUTO
        25 007013   200554 451500                    STP1    LENGTH_ID4$+4,,AUTO
        25 007014   000051 236000 26                 LDQ     41
        25 007015   200553 756100                    STQ     LENGTH_ID4$+3,,AUTO
        25 007016   200311 633500                    EPPR3   ID1$,,AUTO
        25 007017   200552 453500                    STP3    LENGTH_ID4$+2,,AUTO
        25 007020   200552 630500                    EPPR0   LENGTH_ID4$+2,,AUTO
        25 007021   000010 631400 26                 EPPR1   8
PL6.E3A0      #001=Z8EA$INSPECT_1 File=Z8EA.:Z8A6TSI                             SAT 08/09/97 11:39 Page:280
        25 007022   000000 701000 xent               TSX1    Z8EA$INSERT_ZERO
        25 007023   000000 011000                    NOP     0

     1505    35618                         %IF_THEN_DO (@LOP = SUBSTR$,
     1506    35619                                      @REL = %OP_EQUAL,
     1507    35620                                      @ROP = ID3$,
     1508    35621                                      @LAB = END_IF$) ;

  35628 25 007024   200176 630500                    EPPR0   COMPARISON,,AUTO
        25 007025   200277 450500                    STP0    COMPARISON$,,AUTO

  35636 25 007026   000005 220003                    LDX0    5,DU
        25 007027   000000 740100                    STX0    0,,PR0

  35637 25 007030   000000 221003                    LDX1    0,DU
        25 007031   200277 470500                    LDP0    COMPARISON$,,AUTO
        25 007032   000000 441100                    SXL1    0,,PR0

  35644 25 007033   200346 470500                    LDP0    SUBSTR$,,AUTO
        25 007034   200277 471500                    LDP1    COMPARISON$,,AUTO
        25 007035   000005 235100                    LDA     5,,PR0
        25 007036   100005 755100                    STA     5,,PR1

  35645 25 007037   200346 470500                    LDP0    SUBSTR$,,AUTO
        25 007040   200277 471500                    LDP1    COMPARISON$,,AUTO
        25 007041   000006 235100                    LDA     6,,PR0
        25 007042   100006 755100                    STA     6,,PR1

  35646 25 007043   200314 236100                    LDQ     ID3$,,AUTO
        25 007044   200277 470500                    LDP0    COMPARISON$,,AUTO
        25 007045   000002 756100                    STQ     2,,PR0

  35647 25 007046   200346 236100                    LDQ     SUBSTR$,,AUTO
        25 007047   200277 470500                    LDP0    COMPARISON$,,AUTO
        25 007050   000001 756100                    STQ     1,,PR0

  35648 25 007051   000027 235007                    LDA     23,DL
PL6.E3A0      #001=Z8EA$INSPECT_1 File=Z8EA.:Z8A6TSI                             SAT 08/09/97 11:39 Page:281
        25 007052   200277 470500                    LDP0    COMPARISON$,,AUTO
        25 007053   000003 755100                    STA     3,,PR0

  35649 25 007054   000005 236000 26                 LDQ     5
        25 007055   200277 470500                    LDP0    COMPARISON$,,AUTO
        25 007056   000007 756100                    STQ     7,,PR0

  35652 25 007057   200302 630500                    EPPR0   END_IF$,,AUTO
        25 007060   200553 450500                    STP0    LENGTH_ID4$+3,,AUTO
        25 007061   000024 236000 26                 LDQ     20
        25 007062   200552 756100                    STQ     LENGTH_ID4$+2,,AUTO
        25 007063   200552 630500                    EPPR0   LENGTH_ID4$+2,,AUTO
        25 007064   000000 631400 26                 EPPR1   0
        25 007065   000000 701000 xent               TSX1    Z8AT$CREATE_TEMPORARY
        25 007066   000000 011000                    NOP     0

  35653 25 007067   200277 630500                    EPPR0   COMPARISON$,,AUTO
        25 007070   200553 450500                    STP0    LENGTH_ID4$+3,,AUTO
        25 007071   200302 631500                    EPPR1   END_IF$,,AUTO
        25 007072   200552 451500                    STP1    LENGTH_ID4$+2,,AUTO
        25 007073   200552 630500                    EPPR0   LENGTH_ID4$+2,,AUTO
        25 007074   000000 631400 26                 EPPR1   0
        25 007075   000000 701000 xent               TSX1    Z8EK$BRANCH_FALSE
        25 007076   000000 011000                    NOP     0

     1509    35656
     1510    35657                         /* SUBSTR (id1, Pointer, Lengthc (id3)) = id5 */
     1511    35658
     1512    35659    5                    CALL Z8E7$MOVE (SUBSTR$, ID5$) ;

  35659 25 007077   200317 630500                    EPPR0   ID5$,,AUTO
        25 007100   200553 450500                    STP0    LENGTH_ID4$+3,,AUTO
        25 007101   200346 631500                    EPPR1   SUBSTR$,,AUTO
        25 007102   200552 451500                    STP1    LENGTH_ID4$+2,,AUTO
        25 007103   200552 630500                    EPPR0   LENGTH_ID4$+2,,AUTO
        25 007104   000000 631400 26                 EPPR1   0
        25 007105   000000 701000 xent               TSX1    Z8E7$MOVE
PL6.E3A0      #001=Z8EA$INSPECT_1 File=Z8EA.:Z8A6TSI                             SAT 08/09/97 11:39 Page:282
        25 007106   000000 011000                    NOP     0

     1513    35660
     1514    35661                         /* ADD Lengthc (id3) TO Pointer */
     1515    35662
     1516    35663                         %NEW_ILL (@ID  = %AD2I,
     1517    35664                                   @LOP = POINTER$ -> LX_ETT_ITEM.ETT$,
     1518    35665                                   @ROP = LENGTH_ID3$  -> LX_ETT_ITEM.ETT$) ;

  35978 25 007107   000031 236000 26                 LDQ     25
        25 007110   200552 756100                    STQ     LENGTH_ID4$+2,,AUTO
        25 007111   000001 236000 24                 LDQ     POINTER$
        25 007112   000001 036003                    ADLQ    1,DU
        25 007113   200557 756100                    STQ     LENGTH_ID4$+7,,AUTO
        25 007114   200552 630500                    EPPR0   LENGTH_ID4$+2,,AUTO
        25 007115   200556 450500                    STP0    LENGTH_ID4$+6,,AUTO
        25 007116   000036 237000 26                 LDAQ    30
        25 007117   200554 757100                    STAQ    LENGTH_ID4$+4,,AUTO
        25 007120   000002 236000 26                 LDQ     2
        25 007121   200553 756100                    STQ     LENGTH_ID4$+3,,AUTO
        25 007122   200553 630500                    EPPR0   LENGTH_ID4$+3,,AUTO
        25 007123   000027 631400 26                 EPPR1   23
        25 007124   000000 701000 xent               TSX1    Z8AN$NEW_ILL1
        25 007125   000000 011000                    NOP     0

  35981 25 007126   000001 470400 24                 LDP0    POINTER$
        25 007127   000001 236100                    LDQ     1,,PR0
        25 007130   000000 471400 1                  LDP1    ILL$
        25 007131   100001 756100                    STQ     1,,PR1

  35982 25 007132   200330 470500                    LDP0    LENGTH_ID3$,,AUTO
        25 007133   000001 236100                    LDQ     1,,PR0
        25 007134   100002 756100                    STQ     2,,PR1

     1519    36044
     1520    36045                         /* AFTER$ = LENGTHC (id1) */
     1521    36046
PL6.E3A0      #001=Z8EA$INSPECT_1 File=Z8EA.:Z8A6TSI                             SAT 08/09/97 11:39 Page:283
     1522    36047    5                    CALL Z8E7$MOVE (AFTER$, LENGTH_ID1$) ;

  36047 25 007135   200327 630500                    EPPR0   LENGTH_ID1$,,AUTO
        25 007136   200553 450500                    STP0    LENGTH_ID4$+3,,AUTO
        25 007137   200267 633500                    EPPR3   AFTER$,,AUTO
        25 007140   200552 453500                    STP3    LENGTH_ID4$+2,,AUTO
        25 007141   200552 630500                    EPPR0   LENGTH_ID4$+2,,AUTO
        25 007142   000000 631400 26                 EPPR1   0
        25 007143   000000 701000 xent               TSX1    Z8E7$MOVE
        25 007144   000000 011000                    NOP     0

     1523    36048
     1524    36049                         /* GO TO End_Loop */
     1525    36050
     1526    36051    5                    CALL Z8EK$BRANCH (END_LOOP$) ;

  36051 25 007145   200303 630500                    EPPR0   END_LOOP$,,AUTO
        25 007146   200552 450500                    STP0    LENGTH_ID4$+2,,AUTO
        25 007147   200552 630500                    EPPR0   LENGTH_ID4$+2,,AUTO
        25 007150   000041 631400 26                 EPPR1   33
        25 007151   000000 701000 xent               TSX1    Z8EK$BRANCH
        25 007152   000000 011000                    NOP     0

     1527    36052
     1528    36053                         /* END-IF */
     1529    36054
     1530    36055                         %NEW_ILL (@ID = %DEFLB, @LOP = END_IF$) ;

  36376 25 007153   000031 236000 26                 LDQ     25
        25 007154   200552 756100                    STQ     LENGTH_ID4$+2,,AUTO
        25 007155   200552 630500                    EPPR0   LENGTH_ID4$+2,,AUTO
        25 007156   200557 450500                    STP0    LENGTH_ID4$+7,,AUTO
        25 007157   000033 236000 26                 LDQ     27
        25 007160   200556 756100                    STQ     LENGTH_ID4$+6,,AUTO
        25 007161   000042 237000 26                 LDAQ    34
        25 007162   200554 757100                    STAQ    LENGTH_ID4$+4,,AUTO
        25 007163   200554 630500                    EPPR0   LENGTH_ID4$+4,,AUTO
PL6.E3A0      #001=Z8EA$INSPECT_1 File=Z8EA.:Z8A6TSI                             SAT 08/09/97 11:39 Page:284
        25 007164   000010 631400 26                 EPPR1   8
        25 007165   000000 701000 xent               TSX1    Z8AN$NEW_ILL
        25 007166   000000 011000                    NOP     0

  36385 25 007167   200302 236100                    LDQ     END_IF$,,AUTO
        25 007170   000000 470400 1                  LDP0    ILL$
        25 007171   000001 756100                    STQ     1,,PR0

     1531    36434
     1532    36435                         /* END (Pointer <= Before$) */
     1533    36436
     1534    36437    5                    IF BEFORE$ ~= ADDR(NIL) THEN

  36437 25 007172   200273 236100                    LDQ     BEFORE$,,AUTO
        25 007173   000005 116000 26                 CMPQ    5
        25 007174   007214 600000 25                 TZE     s:36820

     1535    36438                           %NEW_ILL (@ID = %DEFLB, @LOP = END_BEFORE_IF$) ;

  36759 25 007175   000031 236000 26                 LDQ     25
        25 007176   200552 756100                    STQ     LENGTH_ID4$+2,,AUTO
        25 007177   200552 631500                    EPPR1   LENGTH_ID4$+2,,AUTO
        25 007200   200557 451500                    STP1    LENGTH_ID4$+7,,AUTO
        25 007201   000033 236000 26                 LDQ     27
        25 007202   200556 756100                    STQ     LENGTH_ID4$+6,,AUTO
        25 007203   000042 237000 26                 LDAQ    34
        25 007204   200554 757100                    STAQ    LENGTH_ID4$+4,,AUTO
        25 007205   200554 630500                    EPPR0   LENGTH_ID4$+4,,AUTO
        25 007206   000010 631400 26                 EPPR1   8
        25 007207   000000 701000 xent               TSX1    Z8AN$NEW_ILL
        25 007210   000000 011000                    NOP     0

  36768 25 007211   200301 236100                    LDQ     END_BEFORE_IF$,,AUTO
        25 007212   000000 470400 1                  LDP0    ILL$
        25 007213   000001 756100                    STQ     1,,PR0

     1536    36817
PL6.E3A0      #001=Z8EA$INSPECT_1 File=Z8EA.:Z8A6TSI                             SAT 08/09/97 11:39 Page:285
     1537    36818                         /* END (Pointer >= After$) */
     1538    36819
     1539    36820    5                    IF AFTER$ ~= ADDR(NIL) THEN

  36820 25 007214   200267 236100                    LDQ     AFTER$,,AUTO
        25 007215   000005 116000 26                 CMPQ    5
        25 007216   007236 600000 25                 TZE     s:37208

     1540    36821                           %NEW_ILL (@ID = %DEFLB, @LOP = END_AFTER_IF$) ;

  37142 25 007217   000031 236000 26                 LDQ     25
        25 007220   200552 756100                    STQ     LENGTH_ID4$+2,,AUTO
        25 007221   200552 631500                    EPPR1   LENGTH_ID4$+2,,AUTO
        25 007222   200557 451500                    STP1    LENGTH_ID4$+7,,AUTO
        25 007223   000033 236000 26                 LDQ     27
        25 007224   200556 756100                    STQ     LENGTH_ID4$+6,,AUTO
        25 007225   000042 237000 26                 LDAQ    34
        25 007226   200554 757100                    STAQ    LENGTH_ID4$+4,,AUTO
        25 007227   200554 630500                    EPPR0   LENGTH_ID4$+4,,AUTO
        25 007230   000010 631400 26                 EPPR1   8
        25 007231   000000 701000 xent               TSX1    Z8AN$NEW_ILL
        25 007232   000000 011000                    NOP     0

  37151 25 007233   200300 236100                    LDQ     END_AFTER_IF$,,AUTO
        25 007234   000000 470400 1                  LDP0    ILL$
        25 007235   000001 756100                    STQ     1,,PR0

     1541    37200
     1542    37201    5                END ; /* Case of Clause_Type */

     1543    37202
     1544    37203        %EJECT;
PL6.E3A0      #001=Z8EA$INSPECT_1 File=Z8EA.:Z8A6TSI                             SAT 08/09/97 11:39 Page:286
     1545    37204                       /*=================================*/
     1546    37205                     /*V* INSPECT_REPLACING_PASS_3_WRAPUP */
     1547    37206                       /*=================================*/
     1548    37207
     1549    37208    4                FIRST$ = FIRST$ -> LX_LIST.LINK ;

  37208 25 007236   200304 470500                    LDP0    FIRST$,,AUTO
        25 007237   000007 236100                    LDQ     7,,PR0
        25 007240   200304 756100                    STQ     FIRST$,,AUTO

     1550    37209
     1551    37210    4              END /* Do While FIRST$ <> nil */ ;

  37210 25 007241   000005 116000 26                 CMPQ    5
        25 007242   005045 601000 25                 TNZ     s:30891

     1552    37211
     1553    37212    3            END /* Else Do (Leading, All, or First) */ ;

     1554    37213
     1555    37214    2            REPLACE$ = REPLACE$ -> LX_LIST.LINK ;

  37214 25 007243   200342 470500                    LDP0    REPLACE$,,AUTO
        25 007244   000007 236100                    LDQ     7,,PR0
        25 007245   200342 756100                    STQ     REPLACE$,,AUTO

     1556    37215
     1557    37216    2          END /* Do While REPLACE$ <> nil */ ;

  37216 25 007246   000005 116000 26                 CMPQ    5
        25 007247   004265 601000 25                 TNZ     s:29135

     1558    37217
     1559    37218    2          IF NOT OPTIMIZABLE THEN DO ;

  37218 25 007250   200337 234100                    SZN     OPTIMIZABLE,,AUTO
        25 007251   007512 604000 25                 TMI     s:38475
PL6.E3A0      #001=Z8EA$INSPECT_1 File=Z8EA.:Z8A6TSI                             SAT 08/09/97 11:39 Page:287

     1560    37219
     1561    37220    2            IF  CLAUSE_TYPE = %RSV_WRD_CHARACTERS

  37220 25 007252   200276 235100                    LDA     CLAUSE_TYPE,,AUTO
        25 007253   000120 115007                    CMPA    80,DL
        25 007254   007264 601000 25                 TNZ     s:37231
        25 007255   200267 236100                    LDQ     AFTER$,,AUTO
        25 007256   000005 116000 26                 CMPQ    5
        25 007257   007264 601000 25                 TNZ     s:37231
        25 007260   200273 236100                    LDQ     BEFORE$,,AUTO
        25 007261   000005 116000 26                 CMPQ    5
        25 007262   007264 601000 25                 TNZ     s:37231

     1562    37221    2            AND AFTER$ = ADDR(NIL)
     1563    37222    3            AND BEFORE$ = ADDR(NIL) THEN DO ;

     1564    37223                   /* Avoid "Dead Code" error by not generating AOS */
     1565    37224    3            END ;

  37224 25 007263   007361 710000 25                 TRA     s:38340

     1566    37225
     1567    37226    3            ELSE DO ; /* Last Clause was not CHARACTERS with no BEFORE/AFTER */

     1568    37227
     1569    37228                     %FISH( TRIAD = ID1$ -> LX_ETT_ITEM.ETT$,
     1570    37229                            RTN = ID1_ST$ );

  37231 25 007264   200311 470500                    LDP0    ID1$,,AUTO
        25 007265   000001 236100                    LDQ     1,,PR0
        25 007266   200312 756100                    STQ     ID1_ST$,,AUTO

  37232 25 007267   200312 471500                    LDP1    ID1_ST$,,AUTO
        25 007270   100000 220100                    LDX0    0,,PR1
        25 007271   000751 100003                    CMPX0   489,DU
        25 007272   007302 603000 25                 TRC     s:37240
PL6.E3A0      #001=Z8EA$INSPECT_1 File=Z8EA.:Z8A6TSI                             SAT 08/09/97 11:39 Page:288

  37233 25 007273   200312 470500                    LDP0    ID1_ST$,,AUTO
        25 007274   000001 236100                    LDQ     1,,PR0
        25 007275   200312 756100                    STQ     ID1_ST$,,AUTO

  37234 25 007276   200312 470500                    LDP0    ID1_ST$,,AUTO
        25 007277   000000 220100                    LDX0    0,,PR0
        25 007300   000751 100003                    CMPX0   489,DU
        25 007301   007273 602000 25                 TNC     s:37233

     1571    37237
     1572    37238                     /* If Kanji, Add 2 to pointer, else add 1 */
     1573    37239
     1574    37240    3                IF ID1_ST$ -> SCALAR.B.KANJI   THEN

  37240 25 007302   200312 470500                    LDP0    ID1_ST$,,AUTO
        25 007303   000003 236100                    LDQ     3,,PR0
        25 007304   001000 316007                    CANQ    512,DL
        25 007305   007334 600000 25                 TZE     s:37944

     1575    37241    4                  DO;

     1576    37242
     1577    37243                         %NEW_ILL( @ID  = %AD2I,
     1578    37244                                   @LOP = POINTER$ -> LX_ETT_ITEM.ETT$,
     1579    37245                                   @ROP = TWO$ );

  37558 25 007306   000031 236000 26                 LDQ     25
        25 007307   200552 756100                    STQ     LENGTH_ID4$+2,,AUTO
        25 007310   000001 236000 24                 LDQ     POINTER$
        25 007311   000001 036003                    ADLQ    1,DU
        25 007312   200557 756100                    STQ     LENGTH_ID4$+7,,AUTO
        25 007313   200552 631500                    EPPR1   LENGTH_ID4$+2,,AUTO
        25 007314   200556 451500                    STP1    LENGTH_ID4$+6,,AUTO
        25 007315   000036 237000 26                 LDAQ    30
        25 007316   200554 757100                    STAQ    LENGTH_ID4$+4,,AUTO
        25 007317   000002 236000 26                 LDQ     2
PL6.E3A0      #001=Z8EA$INSPECT_1 File=Z8EA.:Z8A6TSI                             SAT 08/09/97 11:39 Page:289
        25 007320   200553 756100                    STQ     LENGTH_ID4$+3,,AUTO
        25 007321   200553 630500                    EPPR0   LENGTH_ID4$+3,,AUTO
        25 007322   000027 631400 26                 EPPR1   23
        25 007323   000000 701000 xent               TSX1    Z8AN$NEW_ILL1
        25 007324   000000 011000                    NOP     0

  37561 25 007325   000001 470400 24                 LDP0    POINTER$
        25 007326   000001 236100                    LDQ     1,,PR0
        25 007327   000000 471400 1                  LDP1    ILL$
        25 007330   100001 756100                    STQ     1,,PR1

  37562 25 007331   200353 236100                    LDQ     TWO$,,AUTO
        25 007332   100002 756100                    STQ     2,,PR1

     1580    37624
     1581    37625    4                  END;

  37625 25 007333   007361 710000 25                 TRA     s:38340

     1582    37626    3                ELSE
     1583    37627    4                  DO;

     1584    37628
     1585    37629                         %NEW_ILL (@ID  = %AD2I,
     1586    37630                                   @LOP = POINTER$ -> LX_ETT_ITEM.ETT$,
     1587    37631                                   @ROP = ONE$) ;

  37944 25 007334   000031 236000 26                 LDQ     25
        25 007335   200552 756100                    STQ     LENGTH_ID4$+2,,AUTO
        25 007336   000001 236000 24                 LDQ     POINTER$
        25 007337   000001 036003                    ADLQ    1,DU
        25 007340   200557 756100                    STQ     LENGTH_ID4$+7,,AUTO
        25 007341   200552 631500                    EPPR1   LENGTH_ID4$+2,,AUTO
        25 007342   200556 451500                    STP1    LENGTH_ID4$+6,,AUTO
        25 007343   000036 237000 26                 LDAQ    30
        25 007344   200554 757100                    STAQ    LENGTH_ID4$+4,,AUTO
        25 007345   000002 236000 26                 LDQ     2
PL6.E3A0      #001=Z8EA$INSPECT_1 File=Z8EA.:Z8A6TSI                             SAT 08/09/97 11:39 Page:290
        25 007346   200553 756100                    STQ     LENGTH_ID4$+3,,AUTO
        25 007347   200553 630500                    EPPR0   LENGTH_ID4$+3,,AUTO
        25 007350   000027 631400 26                 EPPR1   23
        25 007351   000000 701000 xent               TSX1    Z8AN$NEW_ILL1
        25 007352   000000 011000                    NOP     0

  37947 25 007353   000001 470400 24                 LDP0    POINTER$
        25 007354   000001 236100                    LDQ     1,,PR0
        25 007355   000000 471400 1                  LDP1    ILL$
        25 007356   100001 756100                    STQ     1,,PR1

  37948 25 007357   200335 236100                    LDQ     ONE$,,AUTO
        25 007360   100002 756100                    STQ     2,,PR1

     1588    38010
     1589    38011    4                  END;

     1590    38012
     1591    38013
     1592    38014                   /* ADD 1 TO Pointer */
     1593    38015    3            END ; /* Else Do */

     1594    38016
     1595    38017                 /* Wrapup DO WHILE */
     1596    38018
     1597    38019                 %NEW_ILL (@ID = %DEFLB, @LOP = END_LOOP$) ;

  38340 25 007361   000031 236000 26                 LDQ     25
        25 007362   200552 756100                    STQ     LENGTH_ID4$+2,,AUTO
        25 007363   200552 630500                    EPPR0   LENGTH_ID4$+2,,AUTO
        25 007364   200557 450500                    STP0    LENGTH_ID4$+7,,AUTO
        25 007365   000033 236000 26                 LDQ     27
        25 007366   200556 756100                    STQ     LENGTH_ID4$+6,,AUTO
        25 007367   000042 237000 26                 LDAQ    34
        25 007370   200554 757100                    STAQ    LENGTH_ID4$+4,,AUTO
        25 007371   200554 630500                    EPPR0   LENGTH_ID4$+4,,AUTO
        25 007372   000010 631400 26                 EPPR1   8
PL6.E3A0      #001=Z8EA$INSPECT_1 File=Z8EA.:Z8A6TSI                             SAT 08/09/97 11:39 Page:291
        25 007373   000000 701000 xent               TSX1    Z8AN$NEW_ILL
        25 007374   000000 011000                    NOP     0

  38349 25 007375   200303 236100                    LDQ     END_LOOP$,,AUTO
        25 007376   000000 470400 1                  LDP0    ILL$
        25 007377   000001 756100                    STQ     1,,PR0

     1598    38398
     1599    38399    2            DO_BODY_ILS_LIST = O1COM.ILS_LIST ;

  38399 25 007400   000100 100400                    MLR     fill='000'O
        25 007401   000016 000040 xsym               ADSC9   O1COM+14                 cn=0,n=32
        25 007402   200376 000040                    ADSC9   DO_BODY_ILS_LIST,,AUTO   cn=0,n=32

     1600    38400
     1601    38401    2            O1COM.ILS_LIST = SAVED_ILS_LIST ;

  38401 25 007403   000000 100500                    MLR     fill='000'O
        25 007404   200366 000040                    ADSC9   SAVED_ILS_LIST,,AUTO     cn=0,n=32
        25 007405   000016 000040 xsym               ADSC9   O1COM+14                 cn=0,n=32

     1602    38402
     1603    38403    2            COMPARISON$ = ADDR (COMPARISON) ;

  38403 25 007406   200176 631500                    EPPR1   COMPARISON,,AUTO
        25 007407   200277 451500                    STP1    COMPARISON$,,AUTO

     1604    38404
     1605    38405    2            IF CLAUSE_TYPE = %RSV_WRD_CHARACTERS THEN

  38405 25 007410   200276 235100                    LDA     CLAUSE_TYPE,,AUTO
        25 007411   000120 115007                    CMPA    80,DL
        25 007412   007420 601000 25                 TNZ     s:38412

     1606    38406    3              DO ; /* Ignore LENGTH_ID3$ */

     1607    38407    3                I = %OP_LESS_THAN ;
PL6.E3A0      #001=Z8EA$INSPECT_1 File=Z8EA.:Z8A6TSI                             SAT 08/09/97 11:39 Page:292

  38407 25 007413   000026 236007                    LDQ     22,DL
        25 007414   200307 756100                    STQ     I,,AUTO

     1608    38408    3                LENGTH_ID1_ID3$ = LENGTH_ID1$ ;

  38408 25 007415   200327 236100                    LDQ     LENGTH_ID1$,,AUTO
        25 007416   200331 756100                    STQ     LENGTH_ID1_ID3$,,AUTO

     1609    38409    3              END ;

  38409 25 007417   007446 710000 25                 TRA     s:38447

     1610    38410    2            ELSE
     1611    38411    3              DO ;

     1612    38412    3                LENGTH_ID1_ID3$ = ADDR (LENGTH_ID1_ID3) ;

  38412 25 007420   200056 633500                    EPPR3   LENGTH_ID1_ID3,,AUTO
        25 007421   200331 453500                    STP3    LENGTH_ID1_ID3$,,AUTO

     1613    38413                     %INIT_BINARY_OP (@POINTER = LENGTH_ID1_ID3$,
     1614    38414                                      @LOP$    = LENGTH_ID1$,
     1615    38415                                      @OP      = %OP_BINARY_MINUS,
     1616    38416                                      @ROP$    = LENGTH_ID3$,
     1617    38417                                      @LINE    = "ID1$ -> LX_ETT_ITEM.LINE",
     1618    38418                                      @COLUMN  = "ID1$ -> LX_ETT_ITEM.COLUMN") ;

  38420 25 007422   000005 220003                    LDX0    5,DU
        25 007423   300000 740100                    STX0    0,,PR3

  38421 25 007424   000000 221003                    LDX1    0,DU
        25 007425   300000 441100                    SXL1    0,,PR3

  38428 25 007426   200311 470500                    LDP0    ID1$,,AUTO
        25 007427   000005 235100                    LDA     5,,PR0
        25 007430   300005 755100                    STA     5,,PR3
PL6.E3A0      #001=Z8EA$INSPECT_1 File=Z8EA.:Z8A6TSI                             SAT 08/09/97 11:39 Page:293

  38429 25 007431   200311 470500                    LDP0    ID1$,,AUTO
        25 007432   000006 235100                    LDA     6,,PR0
        25 007433   300006 755100                    STA     6,,PR3

  38430 25 007434   200330 236100                    LDQ     LENGTH_ID3$,,AUTO
        25 007435   300002 756100                    STQ     2,,PR3

  38431 25 007436   200327 236100                    LDQ     LENGTH_ID1$,,AUTO
        25 007437   300001 756100                    STQ     1,,PR3

  38432 25 007440   000021 235007                    LDA     17,DL
        25 007441   300003 755100                    STA     3,,PR3

  38433 25 007442   000005 236000 26                 LDQ     5
        25 007443   300007 756100                    STQ     7,,PR3

     1619    38436
     1620    38437    3                I = %OP_LESS_THAN_OR_EQUAL ;

  38437 25 007444   000032 235007                    LDA     26,DL
        25 007445   200307 755100                    STA     I,,AUTO

     1621    38438    3              END ;

     1622    38439
     1623    38440                 %INIT_BINARY_OP (@POINTER = COMPARISON$,
     1624    38441                                  @LOP$    = POINTER$,
     1625    38442                                  @OP      = I,
     1626    38443                                  @ROP$    = LENGTH_ID1_ID3$,
     1627    38444                                  @LINE    = "ID1$ -> LX_ETT_ITEM.LINE",
     1628    38445                                  @COLUMN  = "ID1$ -> LX_ETT_ITEM.COLUMN") ;

  38447 25 007446   000005 220003                    LDX0    5,DU
        25 007447   200277 470500                    LDP0    COMPARISON$,,AUTO
        25 007450   000000 740100                    STX0    0,,PR0

PL6.E3A0      #001=Z8EA$INSPECT_1 File=Z8EA.:Z8A6TSI                             SAT 08/09/97 11:39 Page:294
  38448 25 007451   000000 221003                    LDX1    0,DU
        25 007452   200277 470500                    LDP0    COMPARISON$,,AUTO
        25 007453   000000 441100                    SXL1    0,,PR0

  38455 25 007454   200311 470500                    LDP0    ID1$,,AUTO
        25 007455   200277 471500                    LDP1    COMPARISON$,,AUTO
        25 007456   000005 235100                    LDA     5,,PR0
        25 007457   100005 755100                    STA     5,,PR1

  38456 25 007460   200311 470500                    LDP0    ID1$,,AUTO
        25 007461   200277 471500                    LDP1    COMPARISON$,,AUTO
        25 007462   000006 235100                    LDA     6,,PR0
        25 007463   100006 755100                    STA     6,,PR1

  38457 25 007464   200331 236100                    LDQ     LENGTH_ID1_ID3$,,AUTO
        25 007465   200277 470500                    LDP0    COMPARISON$,,AUTO
        25 007466   000002 756100                    STQ     2,,PR0

  38458 25 007467   000001 236000 24                 LDQ     POINTER$
        25 007470   200277 470500                    LDP0    COMPARISON$,,AUTO
        25 007471   000001 756100                    STQ     1,,PR0

  38459 25 007472   200307 235100                    LDA     I,,AUTO
        25 007473   200277 470500                    LDP0    COMPARISON$,,AUTO
        25 007474   000003 755100                    STA     3,,PR0

  38460 25 007475   000005 236000 26                 LDQ     5
        25 007476   200277 470500                    LDP0    COMPARISON$,,AUTO
        25 007477   000007 756100                    STQ     7,,PR0

     1629    38463
     1630    38464    2            CALL Z8EQ$CREATE_DO_WHILE (COMPARISON$, ADDR(DO_BODY_ILS_LIST) ) ;

  38464 25 007500   200376 630500                    EPPR0   DO_BODY_ILS_LIST,,AUTO
        25 007501   200552 450500                    STP0    LENGTH_ID4$+2,,AUTO
        25 007502   200552 631500                    EPPR1   LENGTH_ID4$+2,,AUTO
        25 007503   200555 451500                    STP1    LENGTH_ID4$+5,,AUTO
PL6.E3A0      #001=Z8EA$INSPECT_1 File=Z8EA.:Z8A6TSI                             SAT 08/09/97 11:39 Page:295
        25 007504   200277 633500                    EPPR3   COMPARISON$,,AUTO
        25 007505   200554 453500                    STP3    LENGTH_ID4$+4,,AUTO
        25 007506   200554 630500                    EPPR0   LENGTH_ID4$+4,,AUTO
        25 007507   000000 631400 26                 EPPR1   0
        25 007510   000000 701000 xent               TSX1    Z8EQ$CREATE_DO_WHILE
        25 007511   000000 011000                    NOP     0

     1631    38465
     1632    38466    2          END ; /* Not Optimizable */

     1633    38467
     1634    38468               %APPEND_ILS_LIST (@TO$ = "ADDR(O1COM.ILS_LIST)",
     1635    38469                                 @FROM$ = "ADDR(CONVERSION_ILS_LIST)") ;

  38475 25 007512   200407 236100                    LDQ     CONVERSION_ILS_LIST+1,,AUTO
        25 007513   000005 116000 26                 CMPQ    5
        25 007514   007530 600000 25                 TZE     s:38487

  38476 25 007515   000017 236000 xsym               LDQ     O1COM+15
        25 007516   000005 116000 26                 CMPQ    5
        25 007517   007523 601000 25                 TNZ     s:38480

  38477 25 007520   200407 236100                    LDQ     CONVERSION_ILS_LIST+1,,AUTO
        25 007521   000017 756000 xsym               STQ     O1COM+15

  38478 25 007522   007526 710000 25                 TRA     s:38482

  38480 25 007523   200407 236100                    LDQ     CONVERSION_ILS_LIST+1,,AUTO
        25 007524   000020 470400 xsym               LDP0    O1COM+16
        25 007525   000002 756100                    STQ     2,,PR0

  38482 25 007526   200410 236100                    LDQ     CONVERSION_ILS_LIST+2,,AUTO
        25 007527   000020 756000 xsym               STQ     O1COM+16

     1636    38486
     1637    38487    1          RETURN ;

PL6.E3A0      #001=Z8EA$INSPECT_1 File=Z8EA.:Z8A6TSI                             SAT 08/09/97 11:39 Page:296
  38487 25 007530   000000 702200 xent               TSX2  ! X66_ARET

     1638    38488
     1639    38489
     1640    38490        %EJECT;
PL6.E3A0      #001=Z8EA$INSPECT_1 File=Z8EA.:Z8A6TSI                             SAT 08/09/97 11:39 Page:297
     1641    38491                 /*====================*/
     1642    38492               /*V* INSPECT_CONVERTING */
     1643    38493                 /*====================*/
     1644    38494
     1645    38495        /*==============*/
     1646    38496    1     Z8EA$INSPECT_4: ENTRY (INSPECT$) ; /* Inspect Converting */

  38496 25 007531   000000 700200 xent  Z8EA$INSPEC* TSX0  ! X66_AUTO_1
        25 007532   000564 000001                    ZERO    372,1

     1647    38497        /*==============*/
     1648    38498
     1649    38499               /* INSPECT id1 CONVERTING id6 TO id7 BEFORE/AFTER id4 */
     1650    38500               /*                                                    */
     1651    38501               /* Pass 2 -- Verify all identifiers - - - - - - - - - */
     1652    38502
     1653    38503    1          IF COMCOM.OB.FIPS.LEVEL >= %INT_LEV THEN

  38503 25 007533   000036 720000 xsym               LXL0    COMCOM+30
        25 007534   000002 100003                    CMPX0   2,DU
        25 007535   007553 604000 25                 TMI     s:38507

     1654    38504    1            CALL Z8AE$ERROR (%E$LEVEL_CHECK,

  38504 25 007536   200003 470500                    LDP0    @INSPECT$,,AUTO
        25 007537   000000 471500                    LDP1    0,,PR0
        25 007540   100001 473500                    LDP3    1,,PR1
        25 007541   300006 634500                    EPPR4   6,,PR3
        25 007542   200554 454500                    STP4    LENGTH_ID4$+4,,AUTO
        25 007543   300005 631500                    EPPR1   5,,PR3
        25 007544   200553 451500                    STP1    LENGTH_ID4$+3,,AUTO
        25 007545   000065 236000 26                 LDQ     53
        25 007546   200552 756100                    STQ     LENGTH_ID4$+2,,AUTO
        25 007547   200552 630500                    EPPR0   LENGTH_ID4$+2,,AUTO
        25 007550   000044 631400 26                 EPPR1   36
        25 007551   000000 701000 xent               TSX1    Z8AE$ERROR
        25 007552   000000 011000                    NOP     0
PL6.E3A0      #001=Z8EA$INSPECT_1 File=Z8EA.:Z8A6TSI                             SAT 08/09/97 11:39 Page:298

     1655    38505    1                             INSPECT$ -> INSPECT_4_STMT.KEY_WORD$ -> LX_ITEM.LINE,
     1656    38506    1                             INSPECT$ -> INSPECT_4_STMT.KEY_WORD$ -> LX_ITEM.COLUMN);
     1657    38507    1          ONE_LX_ETT$ = ADDR(ONE) ;

  38507 25 007553   200116 630500                    EPPR0   ONE,,AUTO
        25 007554   200336 450500                    STP0    ONE_LX_ETT$,,AUTO

     1658    38508    1          CALL Z8AC$LX_ETT_ITEM_TYI_CONST (1, ONE_LX_ETT$) ;

  38508 25 007555   200336 631500                    EPPR1   ONE_LX_ETT$,,AUTO
        25 007556   200553 451500                    STP1    LENGTH_ID4$+3,,AUTO
        25 007557   000002 236000 26                 LDQ     2
        25 007560   200552 756100                    STQ     LENGTH_ID4$+2,,AUTO
        25 007561   200552 630500                    EPPR0   LENGTH_ID4$+2,,AUTO
        25 007562   000000 631400 26                 EPPR1   0
        25 007563   000000 701000 xent               TSX1    Z8AC$LX_ETT_ITEM_TYI_CONST
        25 007564   000000 011000                    NOP     0

     1659    38509    1          ONE$ = ONE_LX_ETT$ -> LX_ETT_ITEM.ETT$ ;

  38509 25 007565   200336 470500                    LDP0    ONE_LX_ETT$,,AUTO
        25 007566   000001 236100                    LDQ     1,,PR0
        25 007567   200335 756100                    STQ     ONE$,,AUTO

     1660    38510    1          TWO_LX_ETT$ = ADDR (TWO) ;

  38510 25 007570   200126 631500                    EPPR1   TWO,,AUTO
        25 007571   200354 451500                    STP1    TWO_LX_ETT$,,AUTO

     1661    38511    1          CALL Z8AC$LX_ETT_ITEM_TYI_CONST (2, TWO_LX_ETT$) ;

  38511 25 007572   200354 633500                    EPPR3   TWO_LX_ETT$,,AUTO
        25 007573   200553 453500                    STP3    LENGTH_ID4$+3,,AUTO
        25 007574   000004 236000 26                 LDQ     4
        25 007575   200552 756100                    STQ     LENGTH_ID4$+2,,AUTO
        25 007576   200552 630500                    EPPR0   LENGTH_ID4$+2,,AUTO
PL6.E3A0      #001=Z8EA$INSPECT_1 File=Z8EA.:Z8A6TSI                             SAT 08/09/97 11:39 Page:299
        25 007577   000000 631400 26                 EPPR1   0
        25 007600   000000 701000 xent               TSX1    Z8AC$LX_ETT_ITEM_TYI_CONST
        25 007601   000000 011000                    NOP     0

     1662    38512    1          TWO$ = TWO_LX_ETT$ -> LX_ETT_ITEM.ETT$ ;

  38512 25 007602   200354 470500                    LDP0    TWO_LX_ETT$,,AUTO
        25 007603   000001 236100                    LDQ     1,,PR0
        25 007604   200353 756100                    STQ     TWO$,,AUTO

     1663    38513
     1664    38514               %INIT_ILS_LIST (@POINTER = "ADDR(CONVERSION_ILS_LIST)") ;

  38516 25 007605   000007 220003                    LDX0    7,DU
        25 007606   200406 740100                    STX0    CONVERSION_ILS_LIST,,AUTO

  38517 25 007607   000005 236000 26                 LDQ     5
        25 007610   200407 756100                    STQ     CONVERSION_ILS_LIST+1,,AUTO

  38518 25 007611   200410 756100                    STQ     CONVERSION_ILS_LIST+2,,AUTO

  38519 25 007612   200415 756100                    STQ     CONVERSION_ILS_LIST+7,,AUTO

     1665    38522    1          PRODUCE_INSPECT_ILS = TRUE ;

  38522 25 007613   400000 236003                    LDQ     -131072,DU
        25 007614   200341 756100                    STQ     PRODUCE_INSPECT_ILS,,AUTO

     1666    38523
     1667    38524    1          ID1$ = ADDR (ID1) ;

  38524 25 007615   200166 631500                    EPPR1   ID1,,AUTO
        25 007616   200311 451500                    STP1    ID1$,,AUTO

     1668    38525    1          CALL VERIFY_ALPHA_DEF (INSPECT$ -> INSPECT_4_STMT.ID_1$, ID1$) ;

  38525 25 007617   200003 473500                    LDP3    @INSPECT$,,AUTO
PL6.E3A0      #001=Z8EA$INSPECT_1 File=Z8EA.:Z8A6TSI                             SAT 08/09/97 11:39 Page:300
        25 007620   300000 474500                    LDP4    0,,PR3
        25 007621   200311 635500                    EPPR5   ID1$,,AUTO
        25 007622   200420 455500                    STP5    @ID$+1,,AUTO
        25 007623   400002 636500                    EPPR6   2,,PR4
        25 007624   200417 456500                    STP6    CONVERSION_ILS_LIST+9,,AUTO
        25 007625   012576 701000 25                 TSX1    VERIFY_ALPHA_DEF
        25 007626   000000 011000                    NOP     0

     1669    38526
     1670    38527    1          ID6$ = INSPECT$ -> INSPECT_4_STMT.ID_6$ ;

  38527 25 007627   200003 470500                    LDP0    @INSPECT$,,AUTO
        25 007630   000000 471500                    LDP1    0,,PR0
        25 007631   100003 236100                    LDQ     3,,PR1
        25 007632   200320 756100                    STQ     ID6$,,AUTO

     1671    38528    1          ID7$ = INSPECT$ -> INSPECT_4_STMT.ID_7$ ;

  38528 25 007633   000000 471500                    LDP1    0,,PR0
        25 007634   100004 236100                    LDQ     4,,PR1
        25 007635   200322 756100                    STQ     ID7$,,AUTO

     1672    38529
     1673    38530    1          CALL VERIFY_ALPHA_REF (ID6$) ;

  38530 25 007636   200320 631500                    EPPR1   ID6$,,AUTO
        25 007637   200463 451500                    STP1    COUNT+1,,AUTO
        25 007640   013116 701000 25                 TSX1    VERIFY_ALPHA_REF
        25 007641   000000 011000                    NOP     0

     1674    38531    1          CALL VERIFY_ALPHA_REF (ID7$) ;

  38531 25 007642   200322 630500                    EPPR0   ID7$,,AUTO
        25 007643   200463 450500                    STP0    COUNT+1,,AUTO
        25 007644   013116 701000 25                 TSX1    VERIFY_ALPHA_REF
        25 007645   000000 011000                    NOP     0

PL6.E3A0      #001=Z8EA$INSPECT_1 File=Z8EA.:Z8A6TSI                             SAT 08/09/97 11:39 Page:301
     1675    38532
     1676    38533               /* If length (id6) <> length (id7), then error */
     1677    38534
     1678    38535    1          CALL Z8AU$TYPE_DESCRIPTOR (ID6$ -> LX_ETT_ITEM.ETT$, ID6_DESC) ;

  38535 25 007646   200356 630500                    EPPR0   ID3_DESC,,AUTO
        25 007647   200553 450500                    STP0    LENGTH_ID4$+3,,AUTO
        25 007650   200320 236100                    LDQ     ID6$,,AUTO
        25 007651   000001 036003                    ADLQ    1,DU
        25 007652   200552 756100                    STQ     LENGTH_ID4$+2,,AUTO
        25 007653   200552 630500                    EPPR0   LENGTH_ID4$+2,,AUTO
        25 007654   000000 631400 26                 EPPR1   0
        25 007655   000000 701000 xent               TSX1    Z8AU$TYPE_DESCRIPTOR
        25 007656   000000 011000                    NOP     0

     1679    38536    1          IF NOT ID7$ -> LX_ETT_ITEM.B.ALL THEN

  38536 25 007657   200322 470500                    LDP0    ID7$,,AUTO
        25 007660   000000 236100                    LDQ     0,,PR0
        25 007661   040000 316007                    CANQ    16384,DL
        25 007662   007713 601000 25                 TNZ     s:38550

     1680    38537    2            DO;

     1681    38538
     1682    38539    2              CALL Z8AU$TYPE_DESCRIPTOR (ID7$ -> LX_ETT_ITEM.ETT$, ID7_DESC) ;

  38539 25 007663   200362 631500                    EPPR1   ID5_DESC,,AUTO
        25 007664   200553 451500                    STP1    LENGTH_ID4$+3,,AUTO
        25 007665   200322 236100                    LDQ     ID7$,,AUTO
        25 007666   000001 036003                    ADLQ    1,DU
        25 007667   200552 756100                    STQ     LENGTH_ID4$+2,,AUTO
        25 007670   200552 630500                    EPPR0   LENGTH_ID4$+2,,AUTO
        25 007671   000000 631400 26                 EPPR1   0
        25 007672   000000 701000 xent               TSX1    Z8AU$TYPE_DESCRIPTOR
        25 007673   000000 011000                    NOP     0

PL6.E3A0      #001=Z8EA$INSPECT_1 File=Z8EA.:Z8A6TSI                             SAT 08/09/97 11:39 Page:302
     1683    38540
     1684    38541    2              IF ID6_DESC.DESC.ADSC.N ~= ID7_DESC.DESC.ADSC.N THEN

  38541 25 007674   200357 236100                    LDQ     ID3_DESC+1,,AUTO
        25 007675   200363 676100                    ERQ     ID5_DESC+1,,AUTO
        25 007676   007777 376007                    ANQ     4095,DL
        25 007677   007713 600000 25                 TZE     s:38550

     1685    38542
     1686    38543    2                CALL Z8AE$ERROR (%E$INSPECT_ID6_N_NE_ID7_N,

  38543 25 007700   200322 236100                    LDQ     ID7$,,AUTO
        25 007701   000006 036003                    ADLQ    6,DU
        25 007702   200554 756100                    STQ     LENGTH_ID4$+4,,AUTO
        25 007703   200322 236100                    LDQ     ID7$,,AUTO
        25 007704   000005 036003                    ADLQ    5,DU
        25 007705   000067 235000 26                 LDA     55
        25 007706   200552 757100                    STAQ    LENGTH_ID4$+2,,AUTO
        25 007707   200552 630500                    EPPR0   LENGTH_ID4$+2,,AUTO
        25 007710   000044 631400 26                 EPPR1   36
        25 007711   000000 701000 xent               TSX1    Z8AE$ERROR
        25 007712   000000 011000                    NOP     0

     1687    38544    2                                 ID7$ -> LX_ETT_ITEM.LINE,
     1688    38545    2                                 ID7$ -> LX_ETT_ITEM.COLUMN) ;
     1689    38546
     1690    38547
     1691    38548    2            END ; /* id7 is not a figurative constant */

     1692    38549
     1693    38550    1          CALL SCAN_BEFORE_AFTER

  38550 25 007713   200003 470500                    LDP0    @INSPECT$,,AUTO
        25 007714   000000 471500                    LDP1    0,,PR0
        25 007715   000005 236000 26                 LDQ     5
        25 007716   200562 756100                    STQ     LENGTH_ID4$+10,,AUTO
        25 007717   200311 633500                    EPPR3   ID1$,,AUTO
PL6.E3A0      #001=Z8EA$INSPECT_1 File=Z8EA.:Z8A6TSI                             SAT 08/09/97 11:39 Page:303
        25 007720   200422 453500                    STP3    @ID$+1,,AUTO
        25 007721   000013 236000 26                 LDQ     11
        25 007722   200421 756100                    STQ     @LINK$+1,,AUTO
        25 007723   200562 634500                    EPPR4   LENGTH_ID4$+10,,AUTO
        25 007724   200420 454500                    STP4    @ID$+1,,AUTO
        25 007725   100007 635500                    EPPR5   7,,PR1
        25 007726   200417 455500                    STP5    CONVERSION_ILS_LIST+9,,AUTO
        25 007727   013540 701000 25                 TSX1    SCAN_BEFORE_AFTER
        25 007730   000000 011000                    NOP     0

     1694    38551    1              (INSPECT$ -> INSPECT_4_STMT.INSP_1_BEFORE_AFTER_OPT$,
     1695    38552    1               ADDR(NIL),
     1696    38553    1               %NOT_APPLICABLE,
     1697    38554    1               ID1$) ;
     1698    38555
     1699    38556    1          IF PRODUCE_INSPECT_ILS = FALSE THEN RETURN ;

  38556 25 007731   200341 234100                    SZN     PRODUCE_INSPECT_ILS,,AUTO
        25 007732   007734 604000 25                 TMI     s:38558

  38556 25 007733   000000 702200 xent               TSX2  ! X66_ARET

     1700    38557
     1701    38558    1          CALL FIND_BEFORE_AFTER_INDEXES (INSPECT$ -> INSPECT_4_STMT.
             38558                   INSP_1_BEFORE_AFTER_OPT$,

  38558 25 007734   200003 470500                    LDP0    @INSPECT$,,AUTO
        25 007735   000000 471500                    LDP1    0,,PR0
        25 007736   200267 633500                    EPPR3   AFTER$,,AUTO
        25 007737   200421 453500                    STP3    @LINK$+1,,AUTO
        25 007740   200273 634500                    EPPR4   BEFORE$,,AUTO
        25 007741   200420 454500                    STP4    @ID$+1,,AUTO
        25 007742   100007 635500                    EPPR5   7,,PR1
        25 007743   200417 455500                    STP5    CONVERSION_ILS_LIST+9,,AUTO
        25 007744   012344 701000 25                 TSX1    FIND_BEFORE_AFTER_INDEXES
        25 007745   000000 011000                    NOP     0

PL6.E3A0      #001=Z8EA$INSPECT_1 File=Z8EA.:Z8A6TSI                             SAT 08/09/97 11:39 Page:304
     1702    38559    1                                          BEFORE$, AFTER$) ;
     1703    38560
     1704    38561               /*   Local Optz -- If ID6 & ID7 are literals, make table at compile time */
     1705    38562               /*   Error Check -- if id6 is a literal (literal-4),
     1706    38563                    (OPTZ ONLY)    check for duplicate characters. */
     1707    38564
     1708    38565    1          IF   ID6$ -> LX_ETT_ITEM.ETT$ -> ETT.ID = %TRIAD

  38565 25 007746   200320 470500                    LDP0    ID6$,,AUTO
        25 007747   000001 471500                    LDP1    1,,PR0
        25 007750   100000 220100                    LDX0    0,,PR1
        25 007751   000015 100003                    CMPX0   13,DU
        25 007752   007763 601000 25                 TNZ     s:38568
        25 007753   200322 473500                    LDP3    ID7$,,AUTO
        25 007754   300001 474500                    LDP4    1,,PR3
        25 007755   400000 221100                    LDX1    0,,PR4
        25 007756   000015 101003                    CMPX1   13,DU
        25 007757   007763 601000 25                 TNZ     s:38568

     1709    38566    1          AND  ID7$ -> LX_ETT_ITEM.ETT$ -> ETT.ID = %TRIAD
     1710    38567    1          THEN OPTIMIZABLE = TRUE ;

  38567 25 007760   400000 236003                    LDQ     -131072,DU
        25 007761   200337 756100                    STQ     OPTIMIZABLE,,AUTO
        25 007762   007764 710000 25                 TRA     s:38575

     1711    38568    1          ELSE OPTIMIZABLE = FALSE ;

  38568 25 007763   200337 450100                    STZ     OPTIMIZABLE,,AUTO

     1712    38569
     1713    38570        %EJECT;
PL6.E3A0      #001=Z8EA$INSPECT_1 File=Z8EA.:Z8A6TSI                             SAT 08/09/97 11:39 Page:305
     1714    38571               /*============================*/
     1715    38572               /*V* Inspect_Converting_Pass_3 -- Produce ILS/ILL -- an MVT */
     1716    38573               /*============================*/
     1717    38574
     1718    38575    1          LENGTH_ID1$ = ADDR (LENGTH_ID1) ;

  38575 25 007764   200036 633500                    EPPR3   LENGTH_ID1,,AUTO
        25 007765   200327 453500                    STP3    LENGTH_ID1$,,AUTO

     1719    38576    1          IF TYPE1 = %TYB OR TYPE1 = %TYE THEN

  38576 25 007766   200355 235100                    LDA     TYPE1,,AUTO
        25 007767   000014 115007                    CMPA    12,DL
        25 007770   007773 600000 25                 TZE     s:38578
        25 007771   000006 115007                    CMPA    6,DL
        25 007772   010007 601000 25                 TNZ     s:38582

     1720    38577    2            DO ;

     1721    38578    2              ID1$ = INSPECT$ -> INSPECT_4_STMT.ID_1$ ;

  38578 25 007773   200003 471500                    LDP1    @INSPECT$,,AUTO
        25 007774   100000 474500                    LDP4    0,,PR1
        25 007775   400002 236100                    LDQ     2,,PR4
        25 007776   200311 756100                    STQ     ID1$,,AUTO

     1722    38579    2              CALL CONVERT_ID (ID6$) ;

  38579 25 007777   200320 634500                    EPPR4   ID6$,,AUTO
        25 010000   200417 454500                    STP4    CONVERSION_ILS_LIST+9,,AUTO
        25 010001   014725 701000 25                 TSX1    CONVERT_ID
        25 010002   000000 011000                    NOP     0

     1723    38580    2              CALL CONVERT_ID (ID7$) ;

  38580 25 010003   200322 630500                    EPPR0   ID7$,,AUTO
        25 010004   200417 450500                    STP0    CONVERSION_ILS_LIST+9,,AUTO
PL6.E3A0      #001=Z8EA$INSPECT_1 File=Z8EA.:Z8A6TSI                             SAT 08/09/97 11:39 Page:306
        25 010005   014725 701000 25                 TSX1    CONVERT_ID
        25 010006   000000 011000                    NOP     0

     1724    38581    2            END ;

     1725    38582    1          CALL Z8AU$LENGTH (ID1$ -> LX_ETT_ITEM.ETT$, LENGTH_ID1$) ;

  38582 25 010007   200327 630500                    EPPR0   LENGTH_ID1$,,AUTO
        25 010010   200553 450500                    STP0    LENGTH_ID4$+3,,AUTO
        25 010011   200311 236100                    LDQ     ID1$,,AUTO
        25 010012   000001 036003                    ADLQ    1,DU
        25 010013   200552 756100                    STQ     LENGTH_ID4$+2,,AUTO
        25 010014   200552 630500                    EPPR0   LENGTH_ID4$+2,,AUTO
        25 010015   000000 631400 26                 EPPR1   0
        25 010016   000000 701000 xent               TSX1    Z8AU$LENGTH
        25 010017   000000 011000                    NOP     0

     1726    38583
     1727    38584    1          SUBSTR$ = ADDR(SUB_STR) ;

  38584 25 010020   200136 630500                    EPPR0   SUB_STR,,AUTO
        25 010021   200346 450500                    STP0    SUBSTR$,,AUTO

     1728    38585    1          ID7_SUBSTR$ = ADDR(ID7_SUBSTR) ;

  38585 25 010022   200146 631500                    EPPR1   ID7_SUBSTR,,AUTO
        25 010023   200324 451500                    STP1    ID7_SUBSTR$,,AUTO

     1729    38586    1          ASCBIN$ = ADDR (ASC_BIN) ;

  38586 25 010024   200206 633500                    EPPR3   ASC_BIN,,AUTO
        25 010025   200271 453500                    STP3    ASCBIN$,,AUTO

     1730    38587    1          TABLE_LX_ETT$ = ADDR (TABLE_LX_ETT) ;

  38587 25 010026   200216 634500                    EPPR4   TABLE_LX_ETT,,AUTO
        25 010027   200351 454500                    STP4    TABLE_LX_ETT$,,AUTO
PL6.E3A0      #001=Z8EA$INSPECT_1 File=Z8EA.:Z8A6TSI                             SAT 08/09/97 11:39 Page:307

     1731    38588
     1732    38589    1          LENGTH$ = ADDR (LENGTH) ;

  38589 25 010030   200026 635500                    EPPR5   LENGTH,,AUTO
        25 010031   200326 455500                    STP5    LENGTH$,,AUTO

     1733    38590
     1734    38591               %INIT_LX_ETT_ITEM (@POINTER = ASCBIN$, @TYPE = %TYI) ;

  38593 25 010032   000004 220003                    LDX0    4,DU
        25 010033   300000 740100                    STX0    0,,PR3

  38594 25 010034   000000 221003                    LDX1    0,DU
        25 010035   200271 470500                    LDP0    ASCBIN$,,AUTO
        25 010036   000000 441100                    SXL1    0,,PR0

  38595 25 010037   000001 235007                    LDA     1,DL
        25 010040   200271 470500                    LDP0    ASCBIN$,,AUTO
        25 010041   000004 755100                    STA     4,,PR0

  38596 25 010042   000005 236000 26                 LDQ     5
        25 010043   200271 470500                    LDP0    ASCBIN$,,AUTO
        25 010044   000007 756100                    STQ     7,,PR0

  38597 25 010045   200271 470500                    LDP0    ASCBIN$,,AUTO
        25 010046   000001 756100                    STQ     1,,PR0

  38598 25 010047   000005 236000 26                 LDQ     5
        25 010050   200271 470500                    LDP0    ASCBIN$,,AUTO
        25 010051   000002 756100                    STQ     2,,PR0

  38600 25 010052   000133 236000 xsym               LDQ     COMCOM+91
        25 010053   200271 470500                    LDP0    ASCBIN$,,AUTO
        25 010054   000005 756100                    STQ     5,,PR0

  38601 25 010055   000134 236000 xsym               LDQ     COMCOM+92
PL6.E3A0      #001=Z8EA$INSPECT_1 File=Z8EA.:Z8A6TSI                             SAT 08/09/97 11:39 Page:308
        25 010056   200271 470500                    LDP0    ASCBIN$,,AUTO
        25 010057   000006 756100                    STQ     6,,PR0

     1735    38613               %INIT_LX_ETT_ITEM (@POINTER = ID7_SUBSTR$, @TYPE = %TYA) ;

  38615 25 010060   200324 470500                    LDP0    ID7_SUBSTR$,,AUTO
        25 010061   000000 740100                    STX0    0,,PR0

  38616 25 010062   200324 470500                    LDP0    ID7_SUBSTR$,,AUTO
        25 010063   000000 441100                    SXL1    0,,PR0

  38617 25 010064   000010 236007                    LDQ     8,DL
        25 010065   200324 470500                    LDP0    ID7_SUBSTR$,,AUTO
        25 010066   000004 756100                    STQ     4,,PR0

  38618 25 010067   000005 236000 26                 LDQ     5
        25 010070   200324 470500                    LDP0    ID7_SUBSTR$,,AUTO
        25 010071   000007 756100                    STQ     7,,PR0

  38619 25 010072   200324 470500                    LDP0    ID7_SUBSTR$,,AUTO
        25 010073   000001 756100                    STQ     1,,PR0

  38620 25 010074   000005 236000 26                 LDQ     5
        25 010075   200324 470500                    LDP0    ID7_SUBSTR$,,AUTO
        25 010076   000002 756100                    STQ     2,,PR0

  38622 25 010077   000133 236000 xsym               LDQ     COMCOM+91
        25 010100   200324 470500                    LDP0    ID7_SUBSTR$,,AUTO
        25 010101   000005 756100                    STQ     5,,PR0

  38623 25 010102   000134 236000 xsym               LDQ     COMCOM+92
        25 010103   200324 470500                    LDP0    ID7_SUBSTR$,,AUTO
        25 010104   000006 756100                    STQ     6,,PR0

     1736    38635
     1737    38636
     1738    38637               /*V* INSPECT_CONVERTING_Optimization --- create a constant
PL6.E3A0      #001=Z8EA$INSPECT_1 File=Z8EA.:Z8A6TSI                             SAT 08/09/97 11:39 Page:309
     1739    38638                    MVT table -- ascii-to-ascii with modifications.
     1740    38639               */
     1741    38640
     1742    38641    2          IF OPTIMIZABLE THEN DO ;

  38641 25 010105   200337 234100                    SZN     OPTIMIZABLE,,AUTO
        25 010106   010506 605000 25                 TPL     s:38880

     1743    38642
     1744    38643    2            IF TYPE1 = %TYB THEN

  38643 25 010107   200355 236100                    LDQ     TYPE1,,AUTO
        25 010110   000014 116007                    CMPQ    12,DL
        25 010111   010117 601000 25                 TNZ     s:38650

     1745    38644    3              DO ;

     1746    38645    3                ITERATION = 17 ; /* Table LCNST item size = 17 words */

  38645 25 010112   000021 235007                    LDA     17,DL
        25 010113   000000 755000 0                  STA     ITERATION

     1747    38646    3                J = 63 ; /* Table entries are 0 thru 63 */

  38646 25 010114   000077 235007                    LDA     63,DL
        25 010115   200325 755100                    STA     J,,AUTO

     1748    38647    3              END ;

  38647 25 010116   010123 710000 25                 TRA     s:38729

     1749    38648    2            ELSE
     1750    38649    3              DO ;

     1751    38650    3                ITERATION = 129 ; /* Table LCNST item size = 129 words */

  38650 25 010117   000201 235007                    LDA     129,DL
PL6.E3A0      #001=Z8EA$INSPECT_1 File=Z8EA.:Z8A6TSI                             SAT 08/09/97 11:39 Page:310
        25 010120   000000 755000 0                  STA     ITERATION

     1752    38651    3                J = 511 ; /* Table entries are 0 thru 511 */

  38651 25 010121   000777 235007                    LDA     511,DL
        25 010122   200325 755100                    STA     J,,AUTO

     1753    38652    3              END ;

     1754    38653                 %RESERVE_LTS (ITEM = %LCNST, POINTER = LTS$) ;

  38729 25 010123   000002 236000 16                 LDQ     LTS_+2
        25 010124   000000 036000 0                  ADLQ    ITERATION
        25 010125   000003 116000 16                 CMPQ    LTS_+3
        25 010126   010137 604000 25                 TMI     s:38731

  38730 25 010127   000052 236000 26                 LDQ     42
        25 010130   200552 756100                    STQ     LENGTH_ID4$+2,,AUTO
        25 010131   200552 630500                    EPPR0   LENGTH_ID4$+2,,AUTO
        25 010132   200553 450500                    STP0    LENGTH_ID4$+3,,AUTO
        25 010133   200553 630500                    EPPR0   LENGTH_ID4$+3,,AUTO
        25 010134   000041 631400 26                 EPPR1   33
        25 010135   000000 701000 xent               TSX1    Z8AR$RESERVER
        25 010136   000000 011000                    NOP     0

  38731 25 010137   000002 236000 16                 LDQ     LTS_+2
        25 010140   000022 736000                    QLS     18
        25 010141   000001 036000 16                 ADLQ    LTS_+1
        25 010142   000000 756000 15                 STQ     LTS$

  38732 25 010143   000002 236000 16                 LDQ     LTS_+2
        25 010144   000000 036000 0                  ADLQ    ITERATION
        25 010145   000002 756000 16                 STQ     LTS_+2

  38733 25 010146   001106 220003                    LDX0    582,DU
        25 010147   000000 470400 15                 LDP0    LTS$
        25 010150   000000 740100                    STX0    0,,PR0
PL6.E3A0      #001=Z8EA$INSPECT_1 File=Z8EA.:Z8A6TSI                             SAT 08/09/97 11:39 Page:311

  38735 25 010151   000000 721000 0                  LXL1    ITERATION
        25 010152   000000 470400 15                 LDP0    LTS$
        25 010153   000000 441100                    SXL1    0,,PR0

     1755    38739
     1756    38740    3            DO I = 0 TO J ;

  38740 25 010154   200307 450100                    STZ     I,,AUTO
        25 010155   010170 710000 25                 TRA     s:38742+1

     1757    38741    3              SUBSTR (LTS$ -> LCNST.CONST, I, 1) = BINASC (I) ;

  38741 25 010156   200307 236100                    LDQ     I,,AUTO
        25 010157   000033 736000                    QLS     27
        25 010160   000053 276000 26                 ORQ     43
        25 010161   200552 756100                    STQ     LENGTH_ID4$+2,,AUTO
        25 010162   000000 470400 15                 LDP0    LTS$
        25 010163   200307 235100                    LDA     I,,AUTO
        25 010164   040105 100500                    MLR     fill='040'O
        25 010165   200552 000004                    ADSC9   LENGTH_ID4$+2,,AUTO      cn=0,n=4
        25 010166   000001 000001                    ADSC9   1,A,PR0                  cn=0,n=1

     1758    38742    3            END ;

  38742 25 010167   200307 054100                    AOS     I,,AUTO
        25 010170   200307 236100                    LDQ     I,,AUTO
        25 010171   200325 116100                    CMPQ    J,,AUTO
        25 010172   010156 604400 25                 TMOZ    s:38741

     1759    38743
     1760    38744    2            ID6_CHAR$ = ID6$ -> LX_ETT_ITEM.ETT$ -> ETT.LOP ;

  38744 25 010173   200320 470500                    LDP0    ID6$,,AUTO
        25 010174   000001 471500                    LDP1    1,,PR0
        25 010175   100001 236100                    LDQ     1,,PR1
        25 010176   200321 756100                    STQ     ID6_CHAR$,,AUTO
PL6.E3A0      #001=Z8EA$INSPECT_1 File=Z8EA.:Z8A6TSI                             SAT 08/09/97 11:39 Page:312

     1761    38745                 %GET_CONSTANT_ADDRESS (@CONSTANT = ID6_CHAR$,
     1762    38746                                        @STRING   = ID6_CHAR$) ;

  38748 25 010177   200321 473500                    LDP3    ID6_CHAR$,,AUTO
        25 010200   300003 234100                    SZN     3,,PR3
        25 010201   010206 605000 25                 TPL     s:38751

  38749 25 010202   300010 474500                    LDP4    8,,PR3
        25 010203   400001 635500                    EPPR5   1,,PR4
        25 010204   200321 455500                    STP5    ID6_CHAR$,,AUTO
        25 010205   010210 710000 25                 TRA     s:38755

  38751 25 010206   000010 036003                    ADLQ    8,DU
        25 010207   200321 756100                    STQ     ID6_CHAR$,,AUTO

     1763    38754
     1764    38755    2            ID7_CHAR$ = ID7$ -> LX_ETT_ITEM.ETT$ -> ETT.LOP ;

  38755 25 010210   200322 473500                    LDP3    ID7$,,AUTO
        25 010211   300001 474500                    LDP4    1,,PR3
        25 010212   400001 236100                    LDQ     1,,PR4
        25 010213   200323 756100                    STQ     ID7_CHAR$,,AUTO

     1765    38756                 %GET_CONSTANT_ADDRESS (@CONSTANT = ID7_CHAR$,
     1766    38757                                        @STRING   = ID7_CHAR$) ;

  38759 25 010214   200323 475500                    LDP5    ID7_CHAR$,,AUTO
        25 010215   500003 234100                    SZN     3,,PR5
        25 010216   010223 605000 25                 TPL     s:38762

  38760 25 010217   500010 476500                    LDP6    8,,PR5
        25 010220   600001 637500                    EPPR7   1,,PR6
        25 010221   200323 457500                    STP7    ID7_CHAR$,,AUTO
        25 010222   010225 710000 25                 TRA     s:38766

  38762 25 010223   000010 036003                    ADLQ    8,DU
PL6.E3A0      #001=Z8EA$INSPECT_1 File=Z8EA.:Z8A6TSI                             SAT 08/09/97 11:39 Page:313
        25 010224   200323 756100                    STQ     ID7_CHAR$,,AUTO

     1767    38765
     1768    38766    2            IF TYPE1 = %TYB THEN

  38766 25 010225   200355 235100                    LDA     TYPE1,,AUTO
        25 010226   000014 115007                    CMPA    12,DL
        25 010227   010233 601000 25                 TNZ     s:38772

     1769    38767    3              DO ;

     1770    38768    3                ID6_BCD_CHAR.MBZ6 = '0'B ;

  38768 25 010230   000054 236000 26                 LDQ     44
        25 010231   200315 356100                    ANSQ    ID3_CHAR,,AUTO

     1771    38769    3                ID7_BCD_CHAR.MBZ7 = '0'B ;

  38769 25 010232   200316 356100                    ANSQ    ID5_CHAR,,AUTO

     1772    38770    3              END ;

     1773    38771
     1774    38772    3            DO I = 0 TO ID6_DESC.DESC.ADSC.N - 1 ;

  38772 25 010233   200307 450100                    STZ     I,,AUTO
        25 010234   010352 710000 25                 TRA     s:38801+1

     1775    38773
     1776    38774    3              ID6_CHAR = SUBSTR (ID6_CHAR$ -> CHARS, I, 1) ;

  38774 25 010235   200321 470500                    LDP0    ID6_CHAR$,,AUTO
        25 010236   200307 235100                    LDA     I,,AUTO
        25 010237   040100 100505                    MLR     fill='040'O
        25 010240   000000 000001                    ADSC9   0,A,PR0                  cn=0,n=1
        25 010241   200315 000001                    ADSC9   ID3_CHAR,,AUTO           cn=0,n=1

PL6.E3A0      #001=Z8EA$INSPECT_1 File=Z8EA.:Z8A6TSI                             SAT 08/09/97 11:39 Page:314
     1777    38775
     1778    38776    3              IF TYPE1 = %TYB THEN

  38776 25 010242   200355 236100                    LDQ     TYPE1,,AUTO
        25 010243   000014 116007                    CMPQ    12,DL
        25 010244   010302 601000 25                 TNZ     s:38785

     1779    38777    4                DO ;

     1780    38778    4                  ID6_BCD_CHAR.BCD_CHAR = ID6_CHAR$ -> BCD$STRING.BCD_CHAR (I) ;

  38778 25 010245   200307 236100                    LDQ     I,,AUTO
        25 010246   000006 402007                    MPY     6,DL
        25 010247   000000 116003                    CMPQ    0,DU
        25 010250   010252 605000 25                 TPL     s:38778+5
        25 010251   000044 036003                    ADLQ    36,DU
        25 010252   003100 060506                    CSL     bolr='003'O
        25 010253   000000 000006                    BDSC    0,Q,PR0                  by=0,bit=0,n=6
        25 010254   200315 030006                    BDSC    ID3_CHAR,,AUTO           by=0,bit=3,n=6

     1781    38779    4                  IF ID7$ -> LX_ETT_ITEM.B.ALL

  38779 25 010255   200322 471500                    LDP1    ID7$,,AUTO
        25 010256   100000 236100                    LDQ     0,,PR1
        25 010257   040000 316007                    CANQ    16384,DL
        25 010260   010270 600000 25                 TZE     s:38781

     1782    38780    4                   THEN ID7_BCD_CHAR.BCD_CHAR = ID7_CHAR$ -> BCD$STRING.BCD_CHAR (0) ;

  38780 25 010261   200323 473500                    LDP3    ID7_CHAR$,,AUTO
        25 010262   300000 236100                    LDQ     0,,PR3
        25 010263   000003 772000                    QRL     3
        25 010264   200316 676100                    ERQ     ID5_CHAR,,AUTO
        25 010265   077000 376003                    ANQ     32256,DU
        25 010266   200316 656100                    ERSQ    ID5_CHAR,,AUTO
        25 010267   010316 710000 25                 TRA     s:38792

PL6.E3A0      #001=Z8EA$INSPECT_1 File=Z8EA.:Z8A6TSI                             SAT 08/09/97 11:39 Page:315
     1783    38781    4                   ELSE ID7_BCD_CHAR.BCD_CHAR = ID7_CHAR$ -> BCD$STRING.BCD_CHAR (I) ;

  38781 25 010270   200307 236100                    LDQ     I,,AUTO
        25 010271   000006 402007                    MPY     6,DL
        25 010272   000000 116003                    CMPQ    0,DU
        25 010273   010275 605000 25                 TPL     s:38781+5
        25 010274   000044 036003                    ADLQ    36,DU
        25 010275   200323 473500                    LDP3    ID7_CHAR$,,AUTO
        25 010276   003100 060506                    CSL     bolr='003'O
        25 010277   300000 000006                    BDSC    0,Q,PR3                  by=0,bit=0,n=6
        25 010300   200316 030006                    BDSC    ID5_CHAR,,AUTO           by=0,bit=3,n=6

     1784    38782    4                END ;

  38782 25 010301   010316 710000 25                 TRA     s:38792

     1785    38783    3              ELSE
     1786    38784    4                DO ;

     1787    38785    4                  IF   ID7$ -> LX_ETT_ITEM.B.ALL

  38785 25 010302   200322 471500                    LDP1    ID7$,,AUTO
        25 010303   100000 236100                    LDQ     0,,PR1
        25 010304   040000 316007                    CANQ    16384,DL
        25 010305   010312 600000 25                 TZE     s:38787

     1788    38786    4                    THEN ID7_CHAR = SUBSTR (ID7_CHAR$ -> CHARS, 0, 1) ;

  38786 25 010306   200323 473500                    LDP3    ID7_CHAR$,,AUTO
        25 010307   300000 236100                    LDQ     0,,PR3
        25 010310   200316 552140                    STBQ    ID5_CHAR,'40'O,AUTO
        25 010311   010316 710000 25                 TRA     s:38792

     1789    38787    4                    ELSE ID7_CHAR = SUBSTR (ID7_CHAR$ -> CHARS, I, 1) ;

  38787 25 010312   200323 473500                    LDP3    ID7_CHAR$,,AUTO
        25 010313   040100 100505                    MLR     fill='040'O
PL6.E3A0      #001=Z8EA$INSPECT_1 File=Z8EA.:Z8A6TSI                             SAT 08/09/97 11:39 Page:316
        25 010314   300000 000001                    ADSC9   0,A,PR3                  cn=0,n=1
        25 010315   200316 000001                    ADSC9   ID5_CHAR,,AUTO           cn=0,n=1

     1790    38788    4                END ;

     1791    38789
     1792    38790                   /* Check for redundant character error */
     1793    38791
     1794    38792    3              ATOA_CHAR = SUBSTR (LTS$ -> LCNST.CONST, ASCBIN (ID6_CHAR), 1) ;

  38792 25 010316   200315 236100                    LDQ     ID3_CHAR,,AUTO
        25 010317   000033 772000                    QRL     27
        25 010320   000000 474400 15                 LDP4    LTS$
        25 010321   040100 100506                    MLR     fill='040'O
        25 010322   400001 000001                    ADSC9   1,Q,PR4                  cn=0,n=1
        25 010323   200272 000001                    ADSC9   ATOA_CHAR,,AUTO          cn=0,n=1

     1795    38793    4              IF  ATOA_CHAR ~= ID6_CHAR THEN DO ;

  38793 25 010324   200272 236100                    LDQ     ATOA_CHAR,,AUTO
        25 010325   200315 676100                    ERQ     ID3_CHAR,,AUTO
        25 010326   777000 376003                    ANQ     -512,DU
        25 010327   010343 600000 25                 TZE     s:38799

     1796    38794    4                CALL Z8AE$ERROR (%E$INSPECT_LIT4_SAME_CHAR,

  38794 25 010330   200320 236100                    LDQ     ID6$,,AUTO
        25 010331   000006 036003                    ADLQ    6,DU
        25 010332   200554 756100                    STQ     LENGTH_ID4$+4,,AUTO
        25 010333   200320 236100                    LDQ     ID6$,,AUTO
        25 010334   000005 036003                    ADLQ    5,DU
        25 010335   000071 235000 26                 LDA     57
        25 010336   200552 757100                    STAQ    LENGTH_ID4$+2,,AUTO
        25 010337   200552 630500                    EPPR0   LENGTH_ID4$+2,,AUTO
        25 010340   000044 631400 26                 EPPR1   36
        25 010341   000000 701000 xent               TSX1    Z8AE$ERROR
        25 010342   000000 011000                    NOP     0
PL6.E3A0      #001=Z8EA$INSPECT_1 File=Z8EA.:Z8A6TSI                             SAT 08/09/97 11:39 Page:317

     1797    38795    4                                 ID6$ -> LX_ETT_ITEM.LINE,
     1798    38796    4                                 ID6$ -> LX_ETT_ITEM.COLUMN) ;
     1799    38797    4              END ;

     1800    38798
     1801    38799    3              SUBSTR (LTS$ -> LCNST.CONST, ASCBIN (ID6_CHAR), 1) = ID7_CHAR ;

  38799 25 010343   200315 236100                    LDQ     ID3_CHAR,,AUTO
        25 010344   000033 772000                    QRL     27
        25 010345   000000 470400 15                 LDP0    LTS$
        25 010346   040106 100500                    MLR     fill='040'O
        25 010347   200316 000001                    ADSC9   ID5_CHAR,,AUTO           cn=0,n=1
        25 010350   000001 000001                    ADSC9   1,Q,PR0                  cn=0,n=1

     1802    38800
     1803    38801    3            END ; /* DO I */

  38801 25 010351   200307 054100                    AOS     I,,AUTO
        25 010352   200357 236100                    LDQ     ID3_DESC+1,,AUTO
        25 010353   007777 376007                    ANQ     4095,DL
        25 010354   200307 116100                    CMPQ    I,,AUTO
        25 010355   010235 605400 25                 TPNZ    s:38774

     1804    38802
     1805    38803                 %NEW_CONST (@ST$           = ST$,
     1806    38804                             @TYPE          = %TYA,
     1807    38805                             @LONG_CONSTANT = '1'B) ;

  38809 25 010356   000002 236000 6                  LDQ     ST_+2
        25 010357   000013 036007                    ADLQ    11,DL
        25 010360   000003 116000 6                  CMPQ    ST_+3
        25 010361   010372 604000 25                 TMI     s:38811

  38810 25 010362   000055 236000 26                 LDQ     45
        25 010363   200552 756100                    STQ     LENGTH_ID4$+2,,AUTO
        25 010364   200552 630500                    EPPR0   LENGTH_ID4$+2,,AUTO
PL6.E3A0      #001=Z8EA$INSPECT_1 File=Z8EA.:Z8A6TSI                             SAT 08/09/97 11:39 Page:318
        25 010365   200553 450500                    STP0    LENGTH_ID4$+3,,AUTO
        25 010366   200553 630500                    EPPR0   LENGTH_ID4$+3,,AUTO
        25 010367   000041 631400 26                 EPPR1   33
        25 010370   000000 701000 xent               TSX1    Z8AR$RESERVER
        25 010371   000000 011000                    NOP     0

  38811 25 010372   000002 236000 6                  LDQ     ST_+2
        25 010373   000022 736000                    QLS     18
        25 010374   000001 036000 6                  ADLQ    ST_+1
        25 010375   000000 756000 5                  STQ     ST$

  38812 25 010376   000013 236007                    LDQ     11,DL
        25 010377   000002 056000 6                  ASQ     ST_+2

  38815 25 010400   000767 220003                    LDX0    503,DU
        25 010401   000000 470400 5                  LDP0    ST$
        25 010402   000000 740100                    STX0    0,,PR0

  38816 25 010403   000000 470400 5                  LDP0    ST$
        25 010404   001000 236007                    LDQ     512,DL
        25 010405   000000 552110                    STBQ    0,'10'O,PR0

  38817 25 010406   000000 470400 5                  LDP0    ST$
        25 010407   000126 236000 xsym               LDQ     O1COM+86
        25 010410   000000 552104                    STBQ    0,'04'O,PR0

  38818 25 010411   000010 221003                    LDX1    8,DU
        25 010412   000000 470400 5                  LDP0    ST$
        25 010413   000002 741100                    STX1    2,,PR0

  38819 25 010414   000003 450100                    STZ     3,,PR0

  38820 25 010415   000005 236000 26                 LDQ     5
        25 010416   000004 756100                    STQ     4,,PR0

  38821 25 010417   000005 236000 26                 LDQ     5
        25 010420   000005 756100                    STQ     5,,PR0
PL6.E3A0      #001=Z8EA$INSPECT_1 File=Z8EA.:Z8A6TSI                             SAT 08/09/97 11:39 Page:319

  38822 25 010421   000005 236000 26                 LDQ     5
        25 010422   000006 756100                    STQ     6,,PR0

  38824 25 010423   400000 236003                    LDQ     -131072,DU
        25 010424   000003 256100                    ORSQ    3,,PR0

     1808    38846    2            ST$ -> CONST.CONST$.PTR$ = LTS$ ;

  38846 25 010425   000000 236000 15                 LDQ     LTS$
        25 010426   000010 756100                    STQ     8,,PR0

     1809    38847    2            IF TYPE1 = %TYB

  38847 25 010427   200355 235100                    LDA     TYPE1,,AUTO
        25 010430   000014 115007                    CMPA    12,DL
        25 010431   010435 601000 25                 TNZ     s:38849

     1810    38848    2              THEN ST$ -> SCALAR.DESCL = 64 ; /* Table for GBCD has 64 entries */

  38848 25 010432   000100 222003                    LDX2    64,DU
        25 010433   000001 442100                    SXL2    1,,PR0
        25 010434   010437 710000 25                 TRA     s:38850

     1811    38849    2              ELSE ST$ -> SCALAR.DESCL = 512 ; /* Table for any other type has 512 */

  38849 25 010435   001000 222003                    LDX2    512,DU
        25 010436   000001 442100                    SXL2    1,,PR0

     1812    38850    2            CALL Z8AF$FORME (%TRIAD, ST$, ADDR(NIL), TABLE$) ;

  38850 25 010437   000005 236000 26                 LDQ     5
        25 010440   200552 756100                    STQ     LENGTH_ID4$+2,,AUTO
        25 010441   200347 631500                    EPPR1   TABLE$,,AUTO
        25 010442   200557 451500                    STP1    LENGTH_ID4$+7,,AUTO
        25 010443   200552 633500                    EPPR3   LENGTH_ID4$+2,,AUTO
        25 010444   200556 453500                    STP3    LENGTH_ID4$+6,,AUTO
PL6.E3A0      #001=Z8EA$INSPECT_1 File=Z8EA.:Z8A6TSI                             SAT 08/09/97 11:39 Page:320
        25 010445   000060 237000 26                 LDAQ    48
        25 010446   200554 757100                    STAQ    LENGTH_ID4$+4,,AUTO
        25 010447   200554 630500                    EPPR0   LENGTH_ID4$+4,,AUTO
        25 010450   000010 631400 26                 EPPR1   8
        25 010451   000000 701000 xent               TSX1    Z8AF$FORME
        25 010452   000000 011000                    NOP     0

     1813    38851
     1814    38852                 %INIT_LX_ETT_ITEM (@POINTER = TABLE_LX_ETT$, @TYPE = %TYA) ;

  38854 25 010453   000004 220003                    LDX0    4,DU
        25 010454   200351 470500                    LDP0    TABLE_LX_ETT$,,AUTO
        25 010455   000000 740100                    STX0    0,,PR0

  38855 25 010456   000000 221003                    LDX1    0,DU
        25 010457   200351 470500                    LDP0    TABLE_LX_ETT$,,AUTO
        25 010460   000000 441100                    SXL1    0,,PR0

  38856 25 010461   000010 235007                    LDA     8,DL
        25 010462   200351 470500                    LDP0    TABLE_LX_ETT$,,AUTO
        25 010463   000004 755100                    STA     4,,PR0

  38857 25 010464   000005 236000 26                 LDQ     5
        25 010465   200351 470500                    LDP0    TABLE_LX_ETT$,,AUTO
        25 010466   000007 756100                    STQ     7,,PR0

  38858 25 010467   200351 470500                    LDP0    TABLE_LX_ETT$,,AUTO
        25 010470   000001 756100                    STQ     1,,PR0

  38859 25 010471   000005 236000 26                 LDQ     5
        25 010472   200351 470500                    LDP0    TABLE_LX_ETT$,,AUTO
        25 010473   000002 756100                    STQ     2,,PR0

  38861 25 010474   000133 236000 xsym               LDQ     COMCOM+91
        25 010475   200351 470500                    LDP0    TABLE_LX_ETT$,,AUTO
        25 010476   000005 756100                    STQ     5,,PR0

PL6.E3A0      #001=Z8EA$INSPECT_1 File=Z8EA.:Z8A6TSI                             SAT 08/09/97 11:39 Page:321
  38862 25 010477   000134 236000 xsym               LDQ     COMCOM+92
        25 010500   200351 470500                    LDP0    TABLE_LX_ETT$,,AUTO
        25 010501   000006 756100                    STQ     6,,PR0

     1815    38874    2            TABLE_LX_ETT$ -> LX_ETT_ITEM.ETT$ = TABLE$ ;

  38874 25 010502   200347 236100                    LDQ     TABLE$,,AUTO
        25 010503   200351 470500                    LDP0    TABLE_LX_ETT$,,AUTO
        25 010504   000001 756100                    STQ     1,,PR0

     1816    38875
     1817    38876    2          END ; /* OPTIMIZABLE */

  38876 25 010505   011126 710000 25                 TRA     s:40153

     1818    38877
     1819    38878    2          ELSE DO ; /* NOT OPTIMIZABLE */

     1820    38879
     1821    38880    2            IF ASCASC$ = ADDR(NIL)

  38880 25 010506   000000 236000 24                 LDQ     ASCASC$
        25 010507   000005 116000 26                 CMPQ    5
        25 010510   010515 601000 25                 TNZ     s:38884

     1822    38881    2            THEN CALL Z8CO$CREATE_LIBRARY_BASE (%OP_ASCII_TO_ASCII,

  38881 25 010511   000073 630400 26                 EPPR0   59
        25 010512   000000 631400 26                 EPPR1   0
        25 010513   000000 701000 xent               TSX1    Z8CO$CREATE_LIBRARY_BASE
        25 010514   000000 011000                    NOP     0

     1823    38882    2                                                ASCASC$) ;
     1824    38883
     1825    38884    2            CALL Z8AT$CREATE_TEMP_WITH_BASE (%SCALAR, TABLE$) ;

  38884 25 010515   200347 630500                    EPPR0   TABLE$,,AUTO
PL6.E3A0      #001=Z8EA$INSPECT_1 File=Z8EA.:Z8A6TSI                             SAT 08/09/97 11:39 Page:322
        25 010516   200553 450500                    STP0    LENGTH_ID4$+3,,AUTO
        25 010517   000026 236000 26                 LDQ     22
        25 010520   200552 756100                    STQ     LENGTH_ID4$+2,,AUTO
        25 010521   200552 630500                    EPPR0   LENGTH_ID4$+2,,AUTO
        25 010522   000000 631400 26                 EPPR1   0
        25 010523   000000 701000 xent               TSX1    Z8AT$CREATE_TEMP_WITH_BASE
        25 010524   000000 011000                    NOP     0

     1826    38885    2            TABLE$ -> ETT.LOP -> ST.TYPE = %TYA ;

  38885 25 010525   200347 470500                    LDP0    TABLE$,,AUTO
        25 010526   000001 471500                    LDP1    1,,PR0
        25 010527   000010 220003                    LDX0    8,DU
        25 010530   100002 740100                    STX0    2,,PR1

     1827    38886    2            IF TYPE1 = %TYB

  38886 25 010531   200355 235100                    LDA     TYPE1,,AUTO
        25 010532   000014 115007                    CMPA    12,DL
        25 010533   010541 601000 25                 TNZ     s:38888

     1828    38887    2              THEN TABLE$ -> ETT.LOP -> ST.ADSC.N = 64 ;
             38887                       /* Table for GBCD has 64 entries */

  38887 25 010534   200347 470500                    LDP0    TABLE$,,AUTO
        25 010535   000001 471500                    LDP1    1,,PR0
        25 010536   000100 236007                    LDQ     64,DL
        25 010537   100001 752103                    STCQ    1,'03'O,PR1
        25 010540   010545 710000 25                 TRA     s:38892

     1829    38888    2              ELSE TABLE$ -> ETT.LOP -> ST.ADSC.N = 512 ;
             38888                       /* Table for any other type has 512 */

  38888 25 010541   200347 470500                    LDP0    TABLE$,,AUTO
        25 010542   000001 471500                    LDP1    1,,PR0
        25 010543   001000 236007                    LDQ     512,DL
        25 010544   100001 752103                    STCQ    1,'03'O,PR1
PL6.E3A0      #001=Z8EA$INSPECT_1 File=Z8EA.:Z8A6TSI                             SAT 08/09/97 11:39 Page:323

     1830    38889
     1831    38890                 %INIT_LX_ETT_ITEM (@POINTER = TABLE_LX_ETT$, @TYPE = %TYA) ;

  38892 25 010545   000004 221003                    LDX1    4,DU
        25 010546   200351 470500                    LDP0    TABLE_LX_ETT$,,AUTO
        25 010547   000000 741100                    STX1    0,,PR0

  38893 25 010550   000000 222003                    LDX2    0,DU
        25 010551   200351 470500                    LDP0    TABLE_LX_ETT$,,AUTO
        25 010552   000000 442100                    SXL2    0,,PR0

  38894 25 010553   000010 236007                    LDQ     8,DL
        25 010554   200351 470500                    LDP0    TABLE_LX_ETT$,,AUTO
        25 010555   000004 756100                    STQ     4,,PR0

  38895 25 010556   000005 236000 26                 LDQ     5
        25 010557   200351 470500                    LDP0    TABLE_LX_ETT$,,AUTO
        25 010560   000007 756100                    STQ     7,,PR0

  38896 25 010561   200351 470500                    LDP0    TABLE_LX_ETT$,,AUTO
        25 010562   000001 756100                    STQ     1,,PR0

  38897 25 010563   000005 236000 26                 LDQ     5
        25 010564   200351 470500                    LDP0    TABLE_LX_ETT$,,AUTO
        25 010565   000002 756100                    STQ     2,,PR0

  38899 25 010566   000133 236000 xsym               LDQ     COMCOM+91
        25 010567   200351 470500                    LDP0    TABLE_LX_ETT$,,AUTO
        25 010570   000005 756100                    STQ     5,,PR0

  38900 25 010571   000134 236000 xsym               LDQ     COMCOM+92
        25 010572   200351 470500                    LDP0    TABLE_LX_ETT$,,AUTO
        25 010573   000006 756100                    STQ     6,,PR0

     1832    38912    2            TABLE_LX_ETT$ -> LX_ETT_ITEM.ETT$ = TABLE$ ;

PL6.E3A0      #001=Z8EA$INSPECT_1 File=Z8EA.:Z8A6TSI                             SAT 08/09/97 11:39 Page:324
  38912 25 010574   200347 236100                    LDQ     TABLE$,,AUTO
        25 010575   200351 470500                    LDP0    TABLE_LX_ETT$,,AUTO
        25 010576   000001 756100                    STQ     1,,PR0

     1833    38913
     1834    38914                 %NEW_ILL (@ID = %MVAN, @LOP = TABLE$, @ROP = ASCASC$) ;

  39227 25 010577   000031 236000 26                 LDQ     25
        25 010600   200552 756100                    STQ     LENGTH_ID4$+2,,AUTO
        25 010601   200347 630500                    EPPR0   TABLE$,,AUTO
        25 010602   200557 450500                    STP0    LENGTH_ID4$+7,,AUTO
        25 010603   200552 631500                    EPPR1   LENGTH_ID4$+2,,AUTO
        25 010604   200556 451500                    STP1    LENGTH_ID4$+6,,AUTO
        25 010605   000076 237000 26                 LDAQ    62
        25 010606   200554 757100                    STAQ    LENGTH_ID4$+4,,AUTO
        25 010607   000002 236000 26                 LDQ     2
        25 010610   200553 756100                    STQ     LENGTH_ID4$+3,,AUTO
        25 010611   200553 630500                    EPPR0   LENGTH_ID4$+3,,AUTO
        25 010612   000027 631400 26                 EPPR1   23
        25 010613   000000 701000 xent               TSX1    Z8AN$NEW_ILL1
        25 010614   000000 011000                    NOP     0

  39230 25 010615   200347 236100                    LDQ     TABLE$,,AUTO
        25 010616   000000 470400 1                  LDP0    ILL$
        25 010617   000001 756100                    STQ     1,,PR0

  39231 25 010620   000000 236000 24                 LDQ     ASCASC$
        25 010621   000002 756100                    STQ     2,,PR0

     1835    39293
     1836    39294                 /* POINTER = 0 */
     1837    39295
     1838    39296    2            POINTER$ = ADDR(POINTER) ;

  39296 25 010622   200016 631500                    EPPR1   POINTER,,AUTO
        25 010623   000001 451400 24                 STP1    POINTER$

PL6.E3A0      #001=Z8EA$INSPECT_1 File=Z8EA.:Z8A6TSI                             SAT 08/09/97 11:39 Page:325
     1839    39297                 %INIT_LX_ETT_ITEM (@POINTER = POINTER$, @TYPE = %TYI) ;

  39299 25 010624   000004 220003                    LDX0    4,DU
        25 010625   100000 740100                    STX0    0,,PR1

  39300 25 010626   000000 221003                    LDX1    0,DU
        25 010627   000001 470400 24                 LDP0    POINTER$
        25 010630   000000 441100                    SXL1    0,,PR0

  39301 25 010631   000001 235007                    LDA     1,DL
        25 010632   000001 470400 24                 LDP0    POINTER$
        25 010633   000004 755100                    STA     4,,PR0

  39302 25 010634   000005 236000 26                 LDQ     5
        25 010635   000007 756100                    STQ     7,,PR0

  39303 25 010636   000001 756100                    STQ     1,,PR0

  39304 25 010637   000005 236000 26                 LDQ     5
        25 010640   000001 470400 24                 LDP0    POINTER$
        25 010641   000002 756100                    STQ     2,,PR0

  39306 25 010642   000133 235000 xsym               LDA     COMCOM+91
        25 010643   000005 755100                    STA     5,,PR0

  39307 25 010644   000134 235000 xsym               LDA     COMCOM+92
        25 010645   000006 755100                    STA     6,,PR0

     1840    39319    2            CALL Z8AT$CREATE_TEMP_WITH_BASE (%SCALAR, POINTER$ -> LX_ETT_ITEM.ETT$) ;

  39319 25 010646   000001 236000 24                 LDQ     POINTER$
        25 010647   000001 036003                    ADLQ    1,DU
        25 010650   000026 235000 26                 LDA     22
        25 010651   200552 757100                    STAQ    LENGTH_ID4$+2,,AUTO
        25 010652   200552 630500                    EPPR0   LENGTH_ID4$+2,,AUTO
        25 010653   000000 631400 26                 EPPR1   0
        25 010654   000000 701000 xent               TSX1    Z8AT$CREATE_TEMP_WITH_BASE
PL6.E3A0      #001=Z8EA$INSPECT_1 File=Z8EA.:Z8A6TSI                             SAT 08/09/97 11:39 Page:326
        25 010655   000000 011000                    NOP     0

     1841    39320
     1842    39321                 %NEW_ILL (@ID  = %MVII,
     1843    39322                           @LOP = "POINTER$ -> LX_ETT_ITEM.ETT$",
     1844    39323                           @ROP = COMCOM.VALUE_0) ;

  39636 25 010656   000031 236000 26                 LDQ     25
        25 010657   200552 756100                    STQ     LENGTH_ID4$+2,,AUTO
        25 010660   000001 236000 24                 LDQ     POINTER$
        25 010661   000001 036003                    ADLQ    1,DU
        25 010662   200557 756100                    STQ     LENGTH_ID4$+7,,AUTO
        25 010663   200552 630500                    EPPR0   LENGTH_ID4$+2,,AUTO
        25 010664   200556 450500                    STP0    LENGTH_ID4$+6,,AUTO
        25 010665   000032 237000 26                 LDAQ    26
        25 010666   200554 757100                    STAQ    LENGTH_ID4$+4,,AUTO
        25 010667   000002 236000 26                 LDQ     2
        25 010670   200553 756100                    STQ     LENGTH_ID4$+3,,AUTO
        25 010671   200553 630500                    EPPR0   LENGTH_ID4$+3,,AUTO
        25 010672   000027 631400 26                 EPPR1   23
        25 010673   000000 701000 xent               TSX1    Z8AN$NEW_ILL1
        25 010674   000000 011000                    NOP     0

  39639 25 010675   000001 470400 24                 LDP0    POINTER$
        25 010676   000001 236100                    LDQ     1,,PR0
        25 010677   000000 471400 1                  LDP1    ILL$
        25 010700   100001 756100                    STQ     1,,PR1

  39640 25 010701   000124 236000 xsym               LDQ     COMCOM+84
        25 010702   100002 756100                    STQ     2,,PR1

     1845    39702
     1846    39703                 /* DO WHILE (Pointer < LENGTHC(id6)) */
     1847    39704
     1848    39705    2            SAVED_ILS_LIST = O1COM.ILS_LIST ;

  39705 25 010703   000100 100400                    MLR     fill='000'O
PL6.E3A0      #001=Z8EA$INSPECT_1 File=Z8EA.:Z8A6TSI                             SAT 08/09/97 11:39 Page:327
        25 010704   000016 000040 xsym               ADSC9   O1COM+14                 cn=0,n=32
        25 010705   200366 000040                    ADSC9   SAVED_ILS_LIST,,AUTO     cn=0,n=32

     1849    39706                 %INIT_ILS_LIST (@POINTER = "ADDR(O1COM.ILS_LIST)") ;

  39708 25 010706   000007 220003                    LDX0    7,DU
        25 010707   000016 740000 xsym               STX0    O1COM+14

  39709 25 010710   000005 236000 26                 LDQ     5
        25 010711   000017 756000 xsym               STQ     O1COM+15

  39710 25 010712   000020 756000 xsym               STQ     O1COM+16

  39711 25 010713   000025 756000 xsym               STQ     O1COM+21

     1850    39714
     1851    39715                 /* DO Body */
     1852    39716
     1853    39717                 /* TABLE {ASCBIN [SUBSTR (id6, Pointer, 1)]} = SUBSTR (id7, Pointer, 1) */
     1854    39718
     1855    39719    2            CALL Z8EA$INSERT_ZERO (ID6$, POINTER$, ONE_LX_ETT$, SUBSTR$) ;

  39719 25 010714   200346 630500                    EPPR0   SUBSTR$,,AUTO
        25 010715   200555 450500                    STP0    LENGTH_ID4$+5,,AUTO
        25 010716   200336 633500                    EPPR3   ONE_LX_ETT$,,AUTO
        25 010717   200554 453500                    STP3    LENGTH_ID4$+4,,AUTO
        25 010720   000051 236000 26                 LDQ     41
        25 010721   200553 756100                    STQ     LENGTH_ID4$+3,,AUTO
        25 010722   200320 634500                    EPPR4   ID6$,,AUTO
        25 010723   200552 454500                    STP4    LENGTH_ID4$+2,,AUTO
        25 010724   200552 630500                    EPPR0   LENGTH_ID4$+2,,AUTO
        25 010725   000010 631400 26                 EPPR1   8
        25 010726   000000 701000 xent               TSX1    Z8EA$INSERT_ZERO
        25 010727   000000 011000                    NOP     0

     1856    39720
     1857    39721    2            CALL Z8EA$ASCBIN (SUBSTR$, ASCBIN$) ;
PL6.E3A0      #001=Z8EA$INSPECT_1 File=Z8EA.:Z8A6TSI                             SAT 08/09/97 11:39 Page:328

  39721 25 010730   200271 630500                    EPPR0   ASCBIN$,,AUTO
        25 010731   200553 450500                    STP0    LENGTH_ID4$+3,,AUTO
        25 010732   200346 631500                    EPPR1   SUBSTR$,,AUTO
        25 010733   200552 451500                    STP1    LENGTH_ID4$+2,,AUTO
        25 010734   200552 630500                    EPPR0   LENGTH_ID4$+2,,AUTO
        25 010735   000000 631400 26                 EPPR1   0
        25 010736   000000 701000 xent               TSX1    Z8EA$ASCBIN
        25 010737   000000 011000                    NOP     0

     1858    39722    2            CALL Z8EA$INSERT_ZERO (TABLE_LX_ETT$, ASCBIN$, ONE_LX_ETT$, SUBSTR$) ;

  39722 25 010740   200346 630500                    EPPR0   SUBSTR$,,AUTO
        25 010741   200555 450500                    STP0    LENGTH_ID4$+5,,AUTO
        25 010742   200336 631500                    EPPR1   ONE_LX_ETT$,,AUTO
        25 010743   200554 451500                    STP1    LENGTH_ID4$+4,,AUTO
        25 010744   200271 633500                    EPPR3   ASCBIN$,,AUTO
        25 010745   200553 453500                    STP3    LENGTH_ID4$+3,,AUTO
        25 010746   200351 634500                    EPPR4   TABLE_LX_ETT$,,AUTO
        25 010747   200552 454500                    STP4    LENGTH_ID4$+2,,AUTO
        25 010750   200552 630500                    EPPR0   LENGTH_ID4$+2,,AUTO
        25 010751   000010 631400 26                 EPPR1   8
        25 010752   000000 701000 xent               TSX1    Z8EA$INSERT_ZERO
        25 010753   000000 011000                    NOP     0

     1859    39723
     1860    39724    3            IF ID7$ -> LX_ETT_ITEM.B.ALL THEN DO ;

  39724 25 010754   200322 470500                    LDP0    ID7$,,AUTO
        25 010755   000000 236100                    LDQ     0,,PR0
        25 010756   040000 316007                    CANQ    16384,DL
        25 010757   010771 600000 25                 TZE     s:39728

     1861    39725    3              CALL Z8E7$MOVE (SUBSTR$, ID7$) ;

  39725 25 010760   200322 631500                    EPPR1   ID7$,,AUTO
        25 010761   200553 451500                    STP1    LENGTH_ID4$+3,,AUTO
PL6.E3A0      #001=Z8EA$INSPECT_1 File=Z8EA.:Z8A6TSI                             SAT 08/09/97 11:39 Page:329
        25 010762   200346 633500                    EPPR3   SUBSTR$,,AUTO
        25 010763   200552 453500                    STP3    LENGTH_ID4$+2,,AUTO
        25 010764   200552 630500                    EPPR0   LENGTH_ID4$+2,,AUTO
        25 010765   000000 631400 26                 EPPR1   0
        25 010766   000000 701000 xent               TSX1    Z8E7$MOVE
        25 010767   000000 011000                    NOP     0

     1862    39726    3            END ; /* id7 is a figurative constant */

  39726 25 010770   011015 710000 25                 TRA     s:40049

     1863    39727    3            ELSE DO ;

     1864    39728    3              CALL Z8EA$INSERT_ZERO (ID7$, POINTER$, ONE_LX_ETT$, ID7_SUBSTR$) ;

  39728 25 010771   200324 631500                    EPPR1   ID7_SUBSTR$,,AUTO
        25 010772   200555 451500                    STP1    LENGTH_ID4$+5,,AUTO
        25 010773   200336 633500                    EPPR3   ONE_LX_ETT$,,AUTO
        25 010774   200554 453500                    STP3    LENGTH_ID4$+4,,AUTO
        25 010775   000051 236000 26                 LDQ     41
        25 010776   200553 756100                    STQ     LENGTH_ID4$+3,,AUTO
        25 010777   200322 634500                    EPPR4   ID7$,,AUTO
        25 011000   200552 454500                    STP4    LENGTH_ID4$+2,,AUTO
        25 011001   200552 630500                    EPPR0   LENGTH_ID4$+2,,AUTO
        25 011002   000010 631400 26                 EPPR1   8
        25 011003   000000 701000 xent               TSX1    Z8EA$INSERT_ZERO
        25 011004   000000 011000                    NOP     0

     1865    39729    3              CALL Z8E7$MOVE (SUBSTR$, ID7_SUBSTR$) ;

  39729 25 011005   200324 630500                    EPPR0   ID7_SUBSTR$,,AUTO
        25 011006   200553 450500                    STP0    LENGTH_ID4$+3,,AUTO
        25 011007   200346 631500                    EPPR1   SUBSTR$,,AUTO
        25 011010   200552 451500                    STP1    LENGTH_ID4$+2,,AUTO
        25 011011   200552 630500                    EPPR0   LENGTH_ID4$+2,,AUTO
        25 011012   000000 631400 26                 EPPR1   0
        25 011013   000000 701000 xent               TSX1    Z8E7$MOVE
PL6.E3A0      #001=Z8EA$INSPECT_1 File=Z8EA.:Z8A6TSI                             SAT 08/09/97 11:39 Page:330
        25 011014   000000 011000                    NOP     0

     1866    39730    3            END ; /* id7 is not a figurative constant */

     1867    39731
     1868    39732                 /* ADD 1 TO Pointer */
     1869    39733
     1870    39734                 %NEW_ILL (@ID  = %AD2I,
     1871    39735                           @LOP = "POINTER$ -> LX_ETT_ITEM.ETT$",
     1872    39736                           @ROP = ONE$) ;

  40049 25 011015   000031 236000 26                 LDQ     25
        25 011016   200552 756100                    STQ     LENGTH_ID4$+2,,AUTO
        25 011017   000001 236000 24                 LDQ     POINTER$
        25 011020   000001 036003                    ADLQ    1,DU
        25 011021   200557 756100                    STQ     LENGTH_ID4$+7,,AUTO
        25 011022   200552 630500                    EPPR0   LENGTH_ID4$+2,,AUTO
        25 011023   200556 450500                    STP0    LENGTH_ID4$+6,,AUTO
        25 011024   000036 237000 26                 LDAQ    30
        25 011025   200554 757100                    STAQ    LENGTH_ID4$+4,,AUTO
        25 011026   000002 236000 26                 LDQ     2
        25 011027   200553 756100                    STQ     LENGTH_ID4$+3,,AUTO
        25 011030   200553 630500                    EPPR0   LENGTH_ID4$+3,,AUTO
        25 011031   000027 631400 26                 EPPR1   23
        25 011032   000000 701000 xent               TSX1    Z8AN$NEW_ILL1
        25 011033   000000 011000                    NOP     0

  40052 25 011034   000001 470400 24                 LDP0    POINTER$
        25 011035   000001 236100                    LDQ     1,,PR0
        25 011036   000000 471400 1                  LDP1    ILL$
        25 011037   100001 756100                    STQ     1,,PR1

  40053 25 011040   200335 236100                    LDQ     ONE$,,AUTO
        25 011041   100002 756100                    STQ     2,,PR1

     1873    40115
     1874    40116                 /* Wrapup DO While */
PL6.E3A0      #001=Z8EA$INSPECT_1 File=Z8EA.:Z8A6TSI                             SAT 08/09/97 11:39 Page:331
     1875    40117
     1876    40118    2            DO_BODY_ILS_LIST = O1COM.ILS_LIST ;

  40118 25 011042   000100 100400                    MLR     fill='000'O
        25 011043   000016 000040 xsym               ADSC9   O1COM+14                 cn=0,n=32
        25 011044   200376 000040                    ADSC9   DO_BODY_ILS_LIST,,AUTO   cn=0,n=32

     1877    40119    2            O1COM.ILS_LIST = SAVED_ILS_LIST ;

  40119 25 011045   000000 100500                    MLR     fill='000'O
        25 011046   200366 000040                    ADSC9   SAVED_ILS_LIST,,AUTO     cn=0,n=32
        25 011047   000016 000040 xsym               ADSC9   O1COM+14                 cn=0,n=32

     1878    40120
     1879    40121    2            CALL Z8AU$LENGTH (ID6$ -> LX_ETT_ITEM.ETT$,

  40121 25 011050   200326 630500                    EPPR0   LENGTH$,,AUTO
        25 011051   200553 450500                    STP0    LENGTH_ID4$+3,,AUTO
        25 011052   200320 236100                    LDQ     ID6$,,AUTO
        25 011053   000001 036003                    ADLQ    1,DU
        25 011054   200552 756100                    STQ     LENGTH_ID4$+2,,AUTO
        25 011055   200552 630500                    EPPR0   LENGTH_ID4$+2,,AUTO
        25 011056   000000 631400 26                 EPPR1   0
        25 011057   000000 701000 xent               TSX1    Z8AU$LENGTH
        25 011060   000000 011000                    NOP     0

     1880    40122    2                           LENGTH$) ;
     1881    40123
     1882    40124    2            COMPARISON$ = ADDR (COMPARISON) ;

  40124 25 011061   200176 630500                    EPPR0   COMPARISON,,AUTO
        25 011062   200277 450500                    STP0    COMPARISON$,,AUTO

     1883    40125                 %INIT_BINARY_OP (@POINTER = COMPARISON$,
     1884    40126                                  @LOP$    = POINTER$,
     1885    40127                                  @OP      = %OP_LESS_THAN,
     1886    40128                                  @ROP$    = LENGTH$,
PL6.E3A0      #001=Z8EA$INSPECT_1 File=Z8EA.:Z8A6TSI                             SAT 08/09/97 11:39 Page:332
     1887    40129                                  @LINE    = "LENGTH$ -> LX_ETT_ITEM.LINE",
     1888    40130                                  @COLUMN  = "LENGTH$ -> LX_ETT_ITEM.COLUMN") ;

  40132 25 011063   000005 220003                    LDX0    5,DU
        25 011064   000000 740100                    STX0    0,,PR0

  40133 25 011065   000000 221003                    LDX1    0,DU
        25 011066   200277 470500                    LDP0    COMPARISON$,,AUTO
        25 011067   000000 441100                    SXL1    0,,PR0

  40140 25 011070   200326 470500                    LDP0    LENGTH$,,AUTO
        25 011071   200277 471500                    LDP1    COMPARISON$,,AUTO
        25 011072   000005 235100                    LDA     5,,PR0
        25 011073   100005 755100                    STA     5,,PR1

  40141 25 011074   200326 470500                    LDP0    LENGTH$,,AUTO
        25 011075   200277 471500                    LDP1    COMPARISON$,,AUTO
        25 011076   000006 235100                    LDA     6,,PR0
        25 011077   100006 755100                    STA     6,,PR1

  40142 25 011100   200326 236100                    LDQ     LENGTH$,,AUTO
        25 011101   200277 470500                    LDP0    COMPARISON$,,AUTO
        25 011102   000002 756100                    STQ     2,,PR0

  40143 25 011103   000001 236000 24                 LDQ     POINTER$
        25 011104   200277 470500                    LDP0    COMPARISON$,,AUTO
        25 011105   000001 756100                    STQ     1,,PR0

  40144 25 011106   000026 235007                    LDA     22,DL
        25 011107   200277 470500                    LDP0    COMPARISON$,,AUTO
        25 011110   000003 755100                    STA     3,,PR0

  40145 25 011111   000005 236000 26                 LDQ     5
        25 011112   200277 470500                    LDP0    COMPARISON$,,AUTO
        25 011113   000007 756100                    STQ     7,,PR0

     1889    40148
PL6.E3A0      #001=Z8EA$INSPECT_1 File=Z8EA.:Z8A6TSI                             SAT 08/09/97 11:39 Page:333
     1890    40149    2            CALL Z8EQ$CREATE_DO_WHILE (COMPARISON$, ADDR(DO_BODY_ILS_LIST)) ;

  40149 25 011114   200376 630500                    EPPR0   DO_BODY_ILS_LIST,,AUTO
        25 011115   200552 450500                    STP0    LENGTH_ID4$+2,,AUTO
        25 011116   200552 631500                    EPPR1   LENGTH_ID4$+2,,AUTO
        25 011117   200555 451500                    STP1    LENGTH_ID4$+5,,AUTO
        25 011120   200277 633500                    EPPR3   COMPARISON$,,AUTO
        25 011121   200554 453500                    STP3    LENGTH_ID4$+4,,AUTO
        25 011122   200554 630500                    EPPR0   LENGTH_ID4$+4,,AUTO
        25 011123   000000 631400 26                 EPPR1   0
        25 011124   000000 701000 xent               TSX1    Z8EQ$CREATE_DO_WHILE
        25 011125   000000 011000                    NOP     0

     1891    40150
     1892    40151    2          END ; /* NOT OPTIMIZABLE */

     1893    40152
     1894    40153    1          IF BEFORE$ = ADDR(NIL)

  40153 25 011126   200273 236100                    LDQ     BEFORE$,,AUTO
        25 011127   000005 116000 26                 CMPQ    5
        25 011130   011133 601000 25                 TNZ     s:40156

     1895    40154    1          THEN BEFORE$ = LENGTH_ID1$ ;

  40154 25 011131   200327 236100                    LDQ     LENGTH_ID1$,,AUTO
        25 011132   200273 756100                    STQ     BEFORE$,,AUTO

     1896    40155
     1897    40156    2          IF AFTER$ = ADDR(NIL) THEN DO ;

  40156 25 011133   200267 236100                    LDQ     AFTER$,,AUTO
        25 011134   000005 116000 26                 CMPQ    5
        25 011135   011153 601000 25                 TNZ     s:40179

     1898    40157
     1899    40158                 /* SUBSTR (ID1, 1, BEFORE) = XLAT (ID1) */
PL6.E3A0      #001=Z8EA$INSPECT_1 File=Z8EA.:Z8A6TSI                             SAT 08/09/97 11:39 Page:334
     1900    40159
     1901    40160    2            CALL Z8EY$INSERT (ID1$, ONE_LX_ETT$, BEFORE$, SUBSTR$) ; /*#42050*/

  40160 25 011136   200346 630500                    EPPR0   SUBSTR$,,AUTO
        25 011137   200555 450500                    STP0    LENGTH_ID4$+5,,AUTO
        25 011140   200273 631500                    EPPR1   BEFORE$,,AUTO
        25 011141   200554 451500                    STP1    LENGTH_ID4$+4,,AUTO
        25 011142   200336 633500                    EPPR3   ONE_LX_ETT$,,AUTO
        25 011143   200553 453500                    STP3    LENGTH_ID4$+3,,AUTO
        25 011144   200311 634500                    EPPR4   ID1$,,AUTO
        25 011145   200552 454500                    STP4    LENGTH_ID4$+2,,AUTO
        25 011146   200552 630500                    EPPR0   LENGTH_ID4$+2,,AUTO
        25 011147   000010 631400 26                 EPPR1   8
        25 011150   000000 701000 xent               TSX1    Z8EY$INSERT
        25 011151   000000 011000                    NOP     0

     1902    40161
     1903    40162    2          END ;

  40162 25 011152   011275 710000 25                 TRA     s:40514

     1904    40163
     1905    40164    2          ELSE DO ; /* ThERE IS AN "AFTER" CLAUSE */

     1906    40165
     1907    40166                 /* IF AFTER < BEFORE THEN                                 */
     1908    40167                 /*   MOVE XLAT (ID1) TO SUBSTR (ID1, AFTER, BEFORE-AFTER) */
     1909    40168
     1910    40169                 %IF_THEN_DO (@LOP = AFTER$,
     1911    40170                              @REL = %OP_LESS_THAN,
     1912    40171                              @ROP = BEFORE$,
     1913    40172                              @LAB = END_IF$) ;

  40179 25 011153   200176 630500                    EPPR0   COMPARISON,,AUTO
        25 011154   200277 450500                    STP0    COMPARISON$,,AUTO

  40187 25 011155   000005 220003                    LDX0    5,DU
PL6.E3A0      #001=Z8EA$INSPECT_1 File=Z8EA.:Z8A6TSI                             SAT 08/09/97 11:39 Page:335
        25 011156   000000 740100                    STX0    0,,PR0

  40188 25 011157   000000 221003                    LDX1    0,DU
        25 011160   200277 470500                    LDP0    COMPARISON$,,AUTO
        25 011161   000000 441100                    SXL1    0,,PR0

  40195 25 011162   200267 470500                    LDP0    AFTER$,,AUTO
        25 011163   200277 471500                    LDP1    COMPARISON$,,AUTO
        25 011164   000005 235100                    LDA     5,,PR0
        25 011165   100005 755100                    STA     5,,PR1

  40196 25 011166   200267 470500                    LDP0    AFTER$,,AUTO
        25 011167   200277 471500                    LDP1    COMPARISON$,,AUTO
        25 011170   000006 235100                    LDA     6,,PR0
        25 011171   100006 755100                    STA     6,,PR1

  40197 25 011172   200273 236100                    LDQ     BEFORE$,,AUTO
        25 011173   200277 470500                    LDP0    COMPARISON$,,AUTO
        25 011174   000002 756100                    STQ     2,,PR0

  40198 25 011175   200267 236100                    LDQ     AFTER$,,AUTO
        25 011176   200277 470500                    LDP0    COMPARISON$,,AUTO
        25 011177   000001 756100                    STQ     1,,PR0

  40199 25 011200   000026 235007                    LDA     22,DL
        25 011201   200277 470500                    LDP0    COMPARISON$,,AUTO
        25 011202   000003 755100                    STA     3,,PR0

  40200 25 011203   000005 236000 26                 LDQ     5
        25 011204   200277 470500                    LDP0    COMPARISON$,,AUTO
        25 011205   000007 756100                    STQ     7,,PR0

  40203 25 011206   200302 630500                    EPPR0   END_IF$,,AUTO
        25 011207   200553 450500                    STP0    LENGTH_ID4$+3,,AUTO
        25 011210   000024 236000 26                 LDQ     20
        25 011211   200552 756100                    STQ     LENGTH_ID4$+2,,AUTO
        25 011212   200552 630500                    EPPR0   LENGTH_ID4$+2,,AUTO
PL6.E3A0      #001=Z8EA$INSPECT_1 File=Z8EA.:Z8A6TSI                             SAT 08/09/97 11:39 Page:336
        25 011213   000000 631400 26                 EPPR1   0
        25 011214   000000 701000 xent               TSX1    Z8AT$CREATE_TEMPORARY
        25 011215   000000 011000                    NOP     0

  40204 25 011216   200277 630500                    EPPR0   COMPARISON$,,AUTO
        25 011217   200553 450500                    STP0    LENGTH_ID4$+3,,AUTO
        25 011220   200302 631500                    EPPR1   END_IF$,,AUTO
        25 011221   200552 451500                    STP1    LENGTH_ID4$+2,,AUTO
        25 011222   200552 630500                    EPPR0   LENGTH_ID4$+2,,AUTO
        25 011223   000000 631400 26                 EPPR1   0
        25 011224   000000 701000 xent               TSX1    Z8EK$BRANCH_FALSE
        25 011225   000000 011000                    NOP     0

     1914    40207
     1915    40208    2            SUB$ = ADDR(SUB) ;

  40208 25 011226   200236 630500                    EPPR0   SUB,,AUTO
        25 011227   200345 450500                    STP0    SUB$,,AUTO

     1916    40209                 %INIT_BINARY_OP (@POINTER = SUB$,
     1917    40210                                  @LOP$    = BEFORE$,
     1918    40211                                  @OP      = %OP_BINARY_MINUS,
     1919    40212                                  @ROP$    = AFTER$,
     1920    40213                                  @LINE    = "ID1$ -> LX_ETT_ITEM.LINE",
     1921    40214                                  @COLUMN  = "ID1$ -> LX_ETT_ITEM.COLUMN") ;

  40216 25 011230   000005 220003                    LDX0    5,DU
        25 011231   000000 740100                    STX0    0,,PR0

  40217 25 011232   000000 221003                    LDX1    0,DU
        25 011233   200345 470500                    LDP0    SUB$,,AUTO
        25 011234   000000 441100                    SXL1    0,,PR0

  40224 25 011235   200311 470500                    LDP0    ID1$,,AUTO
        25 011236   200345 471500                    LDP1    SUB$,,AUTO
        25 011237   000005 235100                    LDA     5,,PR0
        25 011240   100005 755100                    STA     5,,PR1
PL6.E3A0      #001=Z8EA$INSPECT_1 File=Z8EA.:Z8A6TSI                             SAT 08/09/97 11:39 Page:337

  40225 25 011241   200311 470500                    LDP0    ID1$,,AUTO
        25 011242   200345 471500                    LDP1    SUB$,,AUTO
        25 011243   000006 235100                    LDA     6,,PR0
        25 011244   100006 755100                    STA     6,,PR1

  40226 25 011245   200267 236100                    LDQ     AFTER$,,AUTO
        25 011246   200345 470500                    LDP0    SUB$,,AUTO
        25 011247   000002 756100                    STQ     2,,PR0

  40227 25 011250   200273 236100                    LDQ     BEFORE$,,AUTO
        25 011251   200345 470500                    LDP0    SUB$,,AUTO
        25 011252   000001 756100                    STQ     1,,PR0

  40228 25 011253   000021 235007                    LDA     17,DL
        25 011254   200345 470500                    LDP0    SUB$,,AUTO
        25 011255   000003 755100                    STA     3,,PR0

  40229 25 011256   000005 236000 26                 LDQ     5
        25 011257   200345 470500                    LDP0    SUB$,,AUTO
        25 011260   000007 756100                    STQ     7,,PR0

     1922    40232
     1923    40233    2            CALL Z8EA$INSERT_ZERO (ID1$, AFTER$, SUB$, SUBSTR$) ;

  40233 25 011261   200346 630500                    EPPR0   SUBSTR$,,AUTO
        25 011262   200555 450500                    STP0    LENGTH_ID4$+5,,AUTO
        25 011263   200345 631500                    EPPR1   SUB$,,AUTO
        25 011264   200554 451500                    STP1    LENGTH_ID4$+4,,AUTO
        25 011265   200267 633500                    EPPR3   AFTER$,,AUTO
        25 011266   200553 453500                    STP3    LENGTH_ID4$+3,,AUTO
        25 011267   200311 634500                    EPPR4   ID1$,,AUTO
        25 011270   200552 454500                    STP4    LENGTH_ID4$+2,,AUTO
        25 011271   200552 630500                    EPPR0   LENGTH_ID4$+2,,AUTO
        25 011272   000010 631400 26                 EPPR1   8
        25 011273   000000 701000 xent               TSX1    Z8EA$INSERT_ZERO
        25 011274   000000 011000                    NOP     0
PL6.E3A0      #001=Z8EA$INSPECT_1 File=Z8EA.:Z8A6TSI                             SAT 08/09/97 11:39 Page:338

     1924    40234
     1925    40235    2          END ; /* "AFTER" CLAUSE EXISTS */

     1926    40236
     1927    40237               /* Move_and_Translate (id1 ==> id1) */
     1928    40238
     1929    40239               %NEW_ILL (@ID  = %MVT,              /*#31076*/
     1930    40240                         @TABLE = TABLE_LX_ETT$ -> LX_ETT_ITEM.ETT$,
     1931    40241                         @FROM  = SUBSTR$ -> LX_ETT_ITEM.ETT$,
     1932    40242                         @TO    = SUBSTR$ -> LX_ETT_ITEM.ETT$) ;

  40514 25 011275   000031 236000 26                 LDQ     25
        25 011276   200552 756100                    STQ     LENGTH_ID4$+2,,AUTO
        25 011277   200346 236100                    LDQ     SUBSTR$,,AUTO
        25 011300   000001 036003                    ADLQ    1,DU
        25 011301   200557 756100                    STQ     LENGTH_ID4$+7,,AUTO
        25 011302   200552 630500                    EPPR0   LENGTH_ID4$+2,,AUTO
        25 011303   200556 450500                    STP0    LENGTH_ID4$+6,,AUTO
        25 011304   000062 237000 26                 LDAQ    50
        25 011305   200554 757100                    STAQ    LENGTH_ID4$+4,,AUTO
        25 011306   000002 236000 26                 LDQ     2
        25 011307   200553 756100                    STQ     LENGTH_ID4$+3,,AUTO
        25 011310   200553 630500                    EPPR0   LENGTH_ID4$+3,,AUTO
        25 011311   000027 631400 26                 EPPR1   23
        25 011312   000000 701000 xent               TSX1    Z8AN$NEW_ILL1
        25 011313   000000 011000                    NOP     0

  40515 25 011314   200346 470500                    LDP0    SUBSTR$,,AUTO
        25 011315   000001 236100                    LDQ     1,,PR0
        25 011316   000000 471400 1                  LDP1    ILL$
        25 011317   100001 756100                    STQ     1,,PR1

  40516 25 011320   200351 470500                    LDP0    TABLE_LX_ETT$,,AUTO
        25 011321   000001 236100                    LDQ     1,,PR0
        25 011322   100002 756100                    STQ     2,,PR1

PL6.E3A0      #001=Z8EA$INSPECT_1 File=Z8EA.:Z8A6TSI                             SAT 08/09/97 11:39 Page:339
  40517 25 011323   200346 470500                    LDP0    SUBSTR$,,AUTO
        25 011324   000001 236100                    LDQ     1,,PR0
        25 011325   100003 756100                    STQ     3,,PR1

     1933    40621
     1934    40622    2          IF AFTER$ ~= ADDR(NIL) THEN DO ;

  40622 25 011326   200267 236100                    LDQ     AFTER$,,AUTO
        25 011327   000005 116000 26                 CMPQ    5
        25 011330   011350 600000 25                 TZE     s:41011

     1935    40623                 %NEW_ILL (@ID = %DEFLB, @LOP = END_IF$) ;

  40944 25 011331   000031 236000 26                 LDQ     25
        25 011332   200552 756100                    STQ     LENGTH_ID4$+2,,AUTO
        25 011333   200552 630500                    EPPR0   LENGTH_ID4$+2,,AUTO
        25 011334   200557 450500                    STP0    LENGTH_ID4$+7,,AUTO
        25 011335   000033 236000 26                 LDQ     27
        25 011336   200556 756100                    STQ     LENGTH_ID4$+6,,AUTO
        25 011337   000042 237000 26                 LDAQ    34
        25 011340   200554 757100                    STAQ    LENGTH_ID4$+4,,AUTO
        25 011341   200554 630500                    EPPR0   LENGTH_ID4$+4,,AUTO
        25 011342   000010 631400 26                 EPPR1   8
        25 011343   000000 701000 xent               TSX1    Z8AN$NEW_ILL
        25 011344   000000 011000                    NOP     0

  40953 25 011345   200302 236100                    LDQ     END_IF$,,AUTO
        25 011346   000000 470400 1                  LDP0    ILL$
        25 011347   000001 756100                    STQ     1,,PR0

     1936    41002    2          END ; /* AFTER clause exists */

     1937    41003
     1938    41004               %APPEND_ILS_LIST (@TO$ = "ADDR(O1COM.ILS_LIST)",
     1939    41005                                 @FROM$ = "ADDR(CONVERSION_ILS_LIST)") ;

  41011 25 011350   200407 236100                    LDQ     CONVERSION_ILS_LIST+1,,AUTO
PL6.E3A0      #001=Z8EA$INSPECT_1 File=Z8EA.:Z8A6TSI                             SAT 08/09/97 11:39 Page:340
        25 011351   000005 116000 26                 CMPQ    5
        25 011352   011366 600000 25                 TZE     s:41023

  41012 25 011353   000017 236000 xsym               LDQ     O1COM+15
        25 011354   000005 116000 26                 CMPQ    5
        25 011355   011361 601000 25                 TNZ     s:41016

  41013 25 011356   200407 236100                    LDQ     CONVERSION_ILS_LIST+1,,AUTO
        25 011357   000017 756000 xsym               STQ     O1COM+15

  41014 25 011360   011364 710000 25                 TRA     s:41018

  41016 25 011361   200407 236100                    LDQ     CONVERSION_ILS_LIST+1,,AUTO
        25 011362   000020 470400 xsym               LDP0    O1COM+16
        25 011363   000002 756100                    STQ     2,,PR0

  41018 25 011364   200410 236100                    LDQ     CONVERSION_ILS_LIST+2,,AUTO
        25 011365   000020 756000 xsym               STQ     O1COM+16

     1940    41022
     1941    41023    1          RETURN ;

  41023 25 011366   000000 702200 xent               TSX2  ! X66_ARET

     1942    41024
     1943    41025        %EJECT;
PL6.E3A0      #001=Z8EA$INSPECT_1 File=Z8EA.:Z8A6TSI                             SAT 08/09/97 11:39 Page:341
     1944    41026        /*============*/
     1945    41027    1     BEFORE_CHECK: PROC (END_BEFORE_IF$) ;

  41027 25 011367   200416 741300       BEFORE_CHECK STX1  ! CONVERSION_ILS_LIST+8,,AUTO

     1946    41028        /*============*/
     1947    41029
     1948    41030        /*I*     NAME: BEFORE_CHECK
     1949    41031
     1950    41032                INPUT: END_BEFORE_IF$, LENGTH_ID3$, POINTER$, BEFORE$
     1951    41033
     1952    41034               OUTPUT: ILS to perform the test.
     1953    41035
     1954    41036          DESCRIPTION: IF Pointer <= Before$ - Length(id3) THEN DO.
     1955    41037
     1956    41038        */
     1957    41039
     1958    41040    2   DCL  END_BEFORE_IF$  PTR ;
     1959    41041
     1960    41042             %INIT_BINARY_OP (@POINTER = SUB$,
     1961    41043                              @LOP$    = BEFORE$,
     1962    41044                              @OP      = %OP_BINARY_MINUS,
     1963    41045                              @ROP$    = LENGTH_ID3$,
     1964    41046                              @LINE    = "ID3$ -> LX_ETT_ITEM.LINE",
     1965    41047                              @COLUMN  = "ID3$ -> LX_ETT_ITEM.COLUMN") ;

  41049 25 011370   000005 220003                    LDX0    5,DU
        25 011371   200345 470500                    LDP0    SUB$,,AUTO
        25 011372   000000 740100                    STX0    0,,PR0

  41050 25 011373   000000 221003                    LDX1    0,DU
        25 011374   200345 470500                    LDP0    SUB$,,AUTO
        25 011375   000000 441100                    SXL1    0,,PR0

  41057 25 011376   200314 470500                    LDP0    ID3$,,AUTO
        25 011377   200345 471500                    LDP1    SUB$,,AUTO
        25 011400   000005 235100                    LDA     5,,PR0
PL6.E3A0      #001=Z8EA$INSPECT_1 File=Z8EA.:Z8A6TSI                             SAT 08/09/97 11:39 Page:342
        25 011401   100005 755100                    STA     5,,PR1

  41058 25 011402   200314 470500                    LDP0    ID3$,,AUTO
        25 011403   200345 471500                    LDP1    SUB$,,AUTO
        25 011404   000006 235100                    LDA     6,,PR0
        25 011405   100006 755100                    STA     6,,PR1

  41059 25 011406   200330 236100                    LDQ     LENGTH_ID3$,,AUTO
        25 011407   200345 470500                    LDP0    SUB$,,AUTO
        25 011410   000002 756100                    STQ     2,,PR0

  41060 25 011411   200273 236100                    LDQ     BEFORE$,,AUTO
        25 011412   200345 470500                    LDP0    SUB$,,AUTO
        25 011413   000001 756100                    STQ     1,,PR0

  41061 25 011414   000021 235007                    LDA     17,DL
        25 011415   200345 470500                    LDP0    SUB$,,AUTO
        25 011416   000003 755100                    STA     3,,PR0

  41062 25 011417   000005 236000 26                 LDQ     5
        25 011420   200345 470500                    LDP0    SUB$,,AUTO
        25 011421   000007 756100                    STQ     7,,PR0

     1966    41065
     1967    41066             %IF_THEN_DO (@LOP = POINTER$,
     1968    41067                          @REL = %OP_LESS_THAN_OR_EQUAL,
     1969    41068                          @ROP = SUB$,
     1970    41069                          @LAB = END_BEFORE_IF$) ;

  41076 25 011422   200176 630500                    EPPR0   COMPARISON,,AUTO
        25 011423   200277 450500                    STP0    COMPARISON$,,AUTO

  41084 25 011424   000000 740100                    STX0    0,,PR0

  41085 25 011425   200277 470500                    LDP0    COMPARISON$,,AUTO
        25 011426   000000 441100                    SXL1    0,,PR0

PL6.E3A0      #001=Z8EA$INSPECT_1 File=Z8EA.:Z8A6TSI                             SAT 08/09/97 11:39 Page:343
  41092 25 011427   000001 470400 24                 LDP0    POINTER$
        25 011430   200277 471500                    LDP1    COMPARISON$,,AUTO
        25 011431   000005 235100                    LDA     5,,PR0
        25 011432   100005 755100                    STA     5,,PR1

  41093 25 011433   200277 471500                    LDP1    COMPARISON$,,AUTO
        25 011434   000006 235100                    LDA     6,,PR0
        25 011435   100006 755100                    STA     6,,PR1

  41094 25 011436   200345 236100                    LDQ     SUB$,,AUTO
        25 011437   200277 471500                    LDP1    COMPARISON$,,AUTO
        25 011440   100002 756100                    STQ     2,,PR1

  41095 25 011441   000001 236000 24                 LDQ     POINTER$
        25 011442   200277 471500                    LDP1    COMPARISON$,,AUTO
        25 011443   100001 756100                    STQ     1,,PR1

  41096 25 011444   000032 235007                    LDA     26,DL
        25 011445   200277 470500                    LDP0    COMPARISON$,,AUTO
        25 011446   000003 755100                    STA     3,,PR0

  41097 25 011447   000005 236000 26                 LDQ     5
        25 011450   200277 470500                    LDP0    COMPARISON$,,AUTO
        25 011451   000007 756100                    STQ     7,,PR0

  41100 25 011452   200417 236100                    LDQ     @END_BEFORE_IF$,,AUTO
        25 011453   000024 235000 26                 LDA     20
        25 011454   200552 757100                    STAQ    LENGTH_ID4$+2,,AUTO
        25 011455   200552 630500                    EPPR0   LENGTH_ID4$+2,,AUTO
        25 011456   000000 631400 26                 EPPR1   0
        25 011457   000000 701000 xent               TSX1    Z8AT$CREATE_TEMPORARY
        25 011460   000000 011000                    NOP     0

  41101 25 011461   200277 630500                    EPPR0   COMPARISON$,,AUTO
        25 011462   200553 450500                    STP0    LENGTH_ID4$+3,,AUTO
        25 011463   200417 236100                    LDQ     @END_BEFORE_IF$,,AUTO
        25 011464   200552 756100                    STQ     LENGTH_ID4$+2,,AUTO
PL6.E3A0      #001=Z8EA$INSPECT_1 File=Z8EA.:Z8A6TSI                             SAT 08/09/97 11:39 Page:344
        25 011465   200552 630500                    EPPR0   LENGTH_ID4$+2,,AUTO
        25 011466   000000 631400 26                 EPPR1   0
        25 011467   000000 701000 xent               TSX1    Z8EK$BRANCH_FALSE
        25 011470   000000 011000                    NOP     0

     1971    41104
     1972    41105    2   END BEFORE_CHECK ;

  41105 25 011471   200416 221300                    LDX1  ! CONVERSION_ILS_LIST+8,,AUTO
        25 011472   000001 702211                    TSX2  ! 1,X1

     1973    41106
     1974    41107        %EJECT;
PL6.E3A0      #001=Z8EA$INSPECT_1 File=Z8EA.:Z8A6TSI                             SAT 08/09/97 11:39 Page:345
     1975    41108        /*=================*/
     1976    41109    1     LEADING_OPTIMIZED: PROC ; /* Search id1 via a TCT */

  41109 25 011473   200416 741300       LEADING_OPT* STX1  ! CONVERSION_ILS_LIST+8,,AUTO

     1977    41110        /*=================*/
     1978    41111
     1979    41112        /*I*   NAME: LEADING_OPTIMIZED
     1980    41113
     1981    41114              INPUT: ID1$, AFTER$, ID3$ -- LX_ETT_ITEMs.
     1982    41115
     1983    41116             OUTPUT: POSITION$ -- LX_ETT_ITEM result.
     1984    41117
     1985    41118        DESCRIPTION: This procedure is used for optimized
     1986    41119                     INSPECT id1 TALLYING id2 FOR LEADING id3 and
     1987    41120                     INSPECT id1 REPLACING LEADING id3 BY id5.
     1988    41121                     It generates ILL to SEARCH id1 for id3.  The
     1989    41122                     result is the position of the first non id3
     1990    41123                     in id1.
     1991    41124        */
     1992    41125
     1993    41126    2   DCL    TABLE_INDEX     UBIN WORD ;
     1994    41127    2   DCL    CONST$  PTR ;
     1995    41128    2   DCL    CHAR1   CHAR (1) UNAL ;
     1996    41129    2   DCL 1  CH1     REDEF CHAR1,
     1997    41130    2        2 *       BIT  (1) UNAL,
     1998    41131    2        2 PD1     UBIN (4) UNAL, /* 1st packed decimal digit */
     1999    41132    2        2 *       UBIN (4) UNAL ;
     2000    41133    2   DCL 1  CH1B    REDEF CHAR1,
     2001    41134    2        2 MBZ     BIT  (3),
     2002    41135    2        2 BCD_CHAR BIT (6);
     2003    41136    2   DCL BCD_CHAR   BIT (6);
     2004    41137
     2005    41138    3           IF AFTER$ ~= ADDR(NIL) THEN DO ;

  41138 25 011474   200267 236100                    LDQ     AFTER$,,AUTO
        25 011475   000005 116000 26                 CMPQ    5
PL6.E3A0      #001=Z8EA$INSPECT_1 File=Z8EA.:Z8A6TSI                             SAT 08/09/97 11:39 Page:346
        25 011476   011522 600000 25                 TZE     s:41149

     2006    41139
     2007    41140                  /* Use SUBSTR (id1, INDEX(id1, id4)) instead of id1 */
     2008    41141
     2009    41142    3             CALL Z8EA$INSERT_ZERO (ID1$, AFTER$, ADDR(NIL), SUBSTR$) ;

  41142 25 011477   000005 236000 26                 LDQ     5
        25 011500   200552 756100                    STQ     LENGTH_ID4$+2,,AUTO
        25 011501   200346 630500                    EPPR0   SUBSTR$,,AUTO
        25 011502   200557 450500                    STP0    LENGTH_ID4$+7,,AUTO
        25 011503   200552 631500                    EPPR1   LENGTH_ID4$+2,,AUTO
        25 011504   200556 451500                    STP1    LENGTH_ID4$+6,,AUTO
        25 011505   200267 633500                    EPPR3   AFTER$,,AUTO
        25 011506   200555 453500                    STP3    LENGTH_ID4$+5,,AUTO
        25 011507   200311 634500                    EPPR4   ID1$,,AUTO
        25 011510   200554 454500                    STP4    LENGTH_ID4$+4,,AUTO
        25 011511   200554 630500                    EPPR0   LENGTH_ID4$+4,,AUTO
        25 011512   000010 631400 26                 EPPR1   8
        25 011513   000000 701000 xent               TSX1    Z8EA$INSERT_ZERO
        25 011514   000000 011000                    NOP     0

     2010    41143    3             ID1$ -> LX_ETT_ITEM = SUBSTR$ -> LX_ETT_ITEM;

  41143 25 011515   200346 470500                    LDP0    SUBSTR$,,AUTO
        25 011516   200311 471500                    LDP1    ID1$,,AUTO
        25 011517   000100 100500                    MLR     fill='000'O
        25 011520   000000 000040                    ADSC9   0,,PR0                   cn=0,n=32
        25 011521   100000 000040                    ADSC9   0,,PR1                   cn=0,n=32

     2011    41144
     2012    41145    3           END ; /* AFTER clause exists */

     2013    41146
     2014    41147                /* Create a constant TCT table */
     2015    41148
     2016    41149    2           IF TYPE1 = %TYB THEN
PL6.E3A0      #001=Z8EA$INSPECT_1 File=Z8EA.:Z8A6TSI                             SAT 08/09/97 11:39 Page:347

  41149 25 011522   200355 235100                    LDA     TYPE1,,AUTO
        25 011523   000014 115007                    CMPA    12,DL
        25 011524   011532 601000 25                 TNZ     s:41156

     2017    41150    3             DO ;

     2018    41151    3               ITERATION = 17 ; /* Table LCNST item size = 17 words */

  41151 25 011525   000021 236007                    LDQ     17,DL
        25 011526   000000 756000 0                  STQ     ITERATION

     2019    41152    3               J = 64 ; /* There are 64 possible GBCD characters */

  41152 25 011527   000100 235007                    LDA     64,DL
        25 011530   200325 755100                    STA     J,,AUTO

     2020    41153    3             END ;

  41153 25 011531   011536 710000 25                 TRA     s:41235

     2021    41154    2           ELSE
     2022    41155    3             DO ;

     2023    41156    3               ITERATION = 129 ; /* Table LCNST item size = 129 words */

  41156 25 011532   000201 236007                    LDQ     129,DL
        25 011533   000000 756000 0                  STQ     ITERATION

     2024    41157    3               J = 512 ; /* There are 512 possible 9-bit characters */

  41157 25 011534   001000 235007                    LDA     512,DL
        25 011535   200325 755100                    STA     J,,AUTO

     2025    41158    3             END ;

     2026    41159                %RESERVE_LTS (ITEM = %LCNST, POINTER = LTS$) ;
PL6.E3A0      #001=Z8EA$INSPECT_1 File=Z8EA.:Z8A6TSI                             SAT 08/09/97 11:39 Page:348

  41235 25 011536   000002 036000 16                 ADLQ    LTS_+2
        25 011537   000003 116000 16                 CMPQ    LTS_+3
        25 011540   011551 604000 25                 TMI     s:41237

  41236 25 011541   000052 236000 26                 LDQ     42
        25 011542   200552 756100                    STQ     LENGTH_ID4$+2,,AUTO
        25 011543   200552 630500                    EPPR0   LENGTH_ID4$+2,,AUTO
        25 011544   200553 450500                    STP0    LENGTH_ID4$+3,,AUTO
        25 011545   200553 630500                    EPPR0   LENGTH_ID4$+3,,AUTO
        25 011546   000041 631400 26                 EPPR1   33
        25 011547   000000 701000 xent               TSX1    Z8AR$RESERVER
        25 011550   000000 011000                    NOP     0

  41237 25 011551   000002 236000 16                 LDQ     LTS_+2
        25 011552   000022 736000                    QLS     18
        25 011553   000001 036000 16                 ADLQ    LTS_+1
        25 011554   000000 756000 15                 STQ     LTS$

  41238 25 011555   000002 236000 16                 LDQ     LTS_+2
        25 011556   000000 036000 0                  ADLQ    ITERATION
        25 011557   000002 756000 16                 STQ     LTS_+2

  41239 25 011560   001106 220003                    LDX0    582,DU
        25 011561   000000 470400 15                 LDP0    LTS$
        25 011562   000000 740100                    STX0    0,,PR0

  41241 25 011563   000000 721000 0                  LXL1    ITERATION
        25 011564   000000 470400 15                 LDP0    LTS$
        25 011565   000000 441100                    SXL1    0,,PR0

     2027    41245    2           SUBSTR (LTS$ -> LCNST.CONST, 0, J) = ' ' ;

  41245 25 011566   000000 470400 15                 LDP0    LTS$
        25 011567   200325 721100                    LXL1    J,,AUTO
        25 011570   040140 100400                    MLR     fill='040'O
        25 011571   000100 000001 26                 ADSC9   64                       cn=0,n=1
PL6.E3A0      #001=Z8EA$INSPECT_1 File=Z8EA.:Z8A6TSI                             SAT 08/09/97 11:39 Page:349
        25 011572   000001 000011                    ADSC9   1,,PR0                   cn=0,n=*X1

     2028    41246
     2029    41247    2           CONST$ = ID3$ -> LX_ETT_ITEM.ETT$ -> ETT.LOP ;

  41247 25 011573   200314 471500                    LDP1    ID3$,,AUTO
        25 011574   100001 473500                    LDP3    1,,PR1
        25 011575   300001 236100                    LDQ     1,,PR3
        25 011576   200420 756100                    STQ     CONST$,,AUTO

     2030    41248    2           CHAR1 = CONST$ -> CONST.CONSTA ;

  41248 25 011577   200420 474500                    LDP4    CONST$,,AUTO
        25 011600   400010 236100                    LDQ     8,,PR4
        25 011601   200421 552140                    STBQ    CHAR1,'40'O,AUTO

     2031    41249
     2032    41250    3           DO CASE (TYPE1);

  41250 25 011602   200355 235100                    LDA     TYPE1,,AUTO
        25 011603   000006 135007                    SBLA    6,DL
        25 011604   000007 115007                    CMPA    7,DL
        25 011605   011607 602005 25                 TNC     s:41250+5,AL
        25 011606   011636 710000 25                 TRA     s:41258
        25 011607   011616 710000 25                 TRA     s:41252
        25 011610   011636 710000 25                 TRA     s:41258
        25 011611   011636 710000 25                 TRA     s:41258
        25 011612   011636 710000 25                 TRA     s:41258
        25 011613   011636 710000 25                 TRA     s:41258
        25 011614   011636 710000 25                 TRA     s:41258
        25 011615   011623 710000 25                 TRA     s:41254

     2033    41251    3             CASE (%TYE);

     2034    41252    3               CALL XLATE (CHAR1, EBCDIC, CHAR1);

  41252 25 011616   040100 160500                    MVT     fill='040'O
PL6.E3A0      #001=Z8EA$INSPECT_1 File=Z8EA.:Z8A6TSI                             SAT 08/09/97 11:39 Page:350
        25 011617   200421 000001                    ADSC9   CHAR1,,AUTO              cn=0,n=1
        25 011620   200421 000001                    ADSC9   CHAR1,,AUTO              cn=0,n=1
        25 011621   000000 000000 xsym               ARG     EBCDIC
        25 011622   011636 710000 25                 TRA     s:41258

     2035    41253    3             CASE (%TYB);

     2036    41254    3               CALL XLATE_9_TO_6 (BCD_CHAR, GBCD, CHAR1);

  41254 25 011623   040100 160500                    MVT     fill='040'O
        25 011624   200421 000001                    ADSC9   CHAR1,,AUTO              cn=0,n=1
        25 011625   200422 020001                    ADSC6   BCD_CHAR,,AUTO           cn=0,n=1
        25 011626   000000 000000 xsym               ARG     GBCD

     2037    41255    3               CH1B.BCD_CHAR = BCD_CHAR;

  41255 25 011627   200422 236100                    LDQ     BCD_CHAR,,AUTO
        25 011630   000003 772000                    QRL     3
        25 011631   200421 676100                    ERQ     CHAR1,,AUTO
        25 011632   077000 376003                    ANQ     32256,DU
        25 011633   200421 656100                    ERSQ    CHAR1,,AUTO

     2038    41256    3               CH1B.MBZ = '0'B;

  41256 25 011634   000054 236000 26                 LDQ     44
        25 011635   200421 356100                    ANSQ    CHAR1,,AUTO

     2039    41257    3           END;

     2040    41258    2           IF  CONST$ -> ST.NDSC.TN = %NDSC4

  41258 25 011636   400001 236100                    LDQ     1,,PR4
        25 011637   040000 316007                    CANQ    16384,DL
        25 011640   011651 600000 25                 TZE     s:41261
        25 011641   400002 221100                    LDX1    2,,PR4
        25 011642   011651 601000 25                 TNZ     s:41261

PL6.E3A0      #001=Z8EA$INSPECT_1 File=Z8EA.:Z8A6TSI                             SAT 08/09/97 11:39 Page:351
     2041    41259    2           AND CONST$ -> ST.TYPE    = %TYD
     2042    41260    2           THEN TABLE_INDEX = CH1.PD1 + 48 ;

  41260 25 011643   200421 236100                    LDQ     CHAR1,,AUTO
        25 011644   000037 772000                    QRL     31
        25 011645   000017 376007                    ANQ     15,DL
        25 011646   000060 036007                    ADLQ    48,DL
        25 011647   200417 756100                    STQ     TABLE_INDEX,,AUTO
        25 011650   011654 710000 25                 TRA     s:41263

     2043    41261    2           ELSE TABLE_INDEX = ASCBIN (CHAR1) ;

  41261 25 011651   200421 236100                    LDQ     CHAR1,,AUTO
        25 011652   000033 772000                    QRL     27
        25 011653   200417 756100                    STQ     TABLE_INDEX,,AUTO

     2044    41262
     2045    41263    2           SUBSTR (LTS$ -> LCNST.CONST, TABLE_INDEX, 1) = BITASC ('000'O) ;

  41263 25 011654   040106 100400                    MLR     fill='040'O
        25 011655   000053 000001 26                 ADSC9   43                       cn=0,n=1
        25 011656   000001 000001                    ADSC9   1,Q,PR0                  cn=0,n=1

     2046    41264
     2047    41265                %NEW_CONST (@ST$  = ST$,
     2048    41266                            @TYPE = TYPE1,
     2049    41267                            @LONG_CONSTANT = '1'B) ;

  41271 25 011657   000002 236000 6                  LDQ     ST_+2
        25 011660   000013 036007                    ADLQ    11,DL
        25 011661   000003 116000 6                  CMPQ    ST_+3
        25 011662   011673 604000 25                 TMI     s:41273

  41272 25 011663   000055 236000 26                 LDQ     45
        25 011664   200552 756100                    STQ     LENGTH_ID4$+2,,AUTO
        25 011665   200552 630500                    EPPR0   LENGTH_ID4$+2,,AUTO
        25 011666   200553 450500                    STP0    LENGTH_ID4$+3,,AUTO
PL6.E3A0      #001=Z8EA$INSPECT_1 File=Z8EA.:Z8A6TSI                             SAT 08/09/97 11:39 Page:352
        25 011667   200553 630500                    EPPR0   LENGTH_ID4$+3,,AUTO
        25 011670   000041 631400 26                 EPPR1   33
        25 011671   000000 701000 xent               TSX1    Z8AR$RESERVER
        25 011672   000000 011000                    NOP     0

  41273 25 011673   000002 236000 6                  LDQ     ST_+2
        25 011674   000022 736000                    QLS     18
        25 011675   000001 036000 6                  ADLQ    ST_+1
        25 011676   000000 756000 5                  STQ     ST$

  41274 25 011677   000013 236007                    LDQ     11,DL
        25 011700   000002 056000 6                  ASQ     ST_+2

  41277 25 011701   000767 220003                    LDX0    503,DU
        25 011702   000000 470400 5                  LDP0    ST$
        25 011703   000000 740100                    STX0    0,,PR0

  41278 25 011704   000000 470400 5                  LDP0    ST$
        25 011705   001000 236007                    LDQ     512,DL
        25 011706   000000 552110                    STBQ    0,'10'O,PR0

  41279 25 011707   000000 470400 5                  LDP0    ST$
        25 011710   000126 236000 xsym               LDQ     O1COM+86
        25 011711   000000 552104                    STBQ    0,'04'O,PR0

  41280 25 011712   200355 721100                    LXL1    TYPE1,,AUTO
        25 011713   000000 470400 5                  LDP0    ST$
        25 011714   000002 741100                    STX1    2,,PR0

  41281 25 011715   000003 450100                    STZ     3,,PR0

  41282 25 011716   000005 236000 26                 LDQ     5
        25 011717   000004 756100                    STQ     4,,PR0

  41283 25 011720   000005 236000 26                 LDQ     5
        25 011721   000005 756100                    STQ     5,,PR0

PL6.E3A0      #001=Z8EA$INSPECT_1 File=Z8EA.:Z8A6TSI                             SAT 08/09/97 11:39 Page:353
  41284 25 011722   000005 236000 26                 LDQ     5
        25 011723   000006 756100                    STQ     6,,PR0

  41286 25 011724   400000 236003                    LDQ     -131072,DU
        25 011725   000003 256100                    ORSQ    3,,PR0

     2050    41308    2           ST$ -> CONST.CONST$.PTR$ = LTS$ ;

  41308 25 011726   000000 236000 15                 LDQ     LTS$
        25 011727   000010 756100                    STQ     8,,PR0

     2051    41309    2           CALL Z8AF$FORME (%TRIAD, ST$, ADDR(NIL), TABLE$) ;

  41309 25 011730   000005 236000 26                 LDQ     5
        25 011731   200552 756100                    STQ     LENGTH_ID4$+2,,AUTO
        25 011732   200347 631500                    EPPR1   TABLE$,,AUTO
        25 011733   200557 451500                    STP1    LENGTH_ID4$+7,,AUTO
        25 011734   200552 633500                    EPPR3   LENGTH_ID4$+2,,AUTO
        25 011735   200556 453500                    STP3    LENGTH_ID4$+6,,AUTO
        25 011736   000060 237000 26                 LDAQ    48
        25 011737   200554 757100                    STAQ    LENGTH_ID4$+4,,AUTO
        25 011740   200554 630500                    EPPR0   LENGTH_ID4$+4,,AUTO
        25 011741   000010 631400 26                 EPPR1   8
        25 011742   000000 701000 xent               TSX1    Z8AF$FORME
        25 011743   000000 011000                    NOP     0

     2052    41310
     2053    41311    2           TABLE_LX_ETT$ = ADDR (TABLE_LX_ETT) ;

  41311 25 011744   200216 630500                    EPPR0   TABLE_LX_ETT,,AUTO
        25 011745   200351 450500                    STP0    TABLE_LX_ETT$,,AUTO

     2054    41312                %INIT_LX_ETT_ITEM (@POINTER = TABLE_LX_ETT$,
     2055    41313                                   @TYPE    = %TYA) ;

  41315 25 011746   000004 220003                    LDX0    4,DU
        25 011747   000000 740100                    STX0    0,,PR0
PL6.E3A0      #001=Z8EA$INSPECT_1 File=Z8EA.:Z8A6TSI                             SAT 08/09/97 11:39 Page:354

  41316 25 011750   000000 221003                    LDX1    0,DU
        25 011751   200351 470500                    LDP0    TABLE_LX_ETT$,,AUTO
        25 011752   000000 441100                    SXL1    0,,PR0

  41317 25 011753   000010 235007                    LDA     8,DL
        25 011754   200351 470500                    LDP0    TABLE_LX_ETT$,,AUTO
        25 011755   000004 755100                    STA     4,,PR0

  41318 25 011756   000005 236000 26                 LDQ     5
        25 011757   200351 470500                    LDP0    TABLE_LX_ETT$,,AUTO
        25 011760   000007 756100                    STQ     7,,PR0

  41319 25 011761   200351 470500                    LDP0    TABLE_LX_ETT$,,AUTO
        25 011762   000001 756100                    STQ     1,,PR0

  41320 25 011763   000005 236000 26                 LDQ     5
        25 011764   200351 470500                    LDP0    TABLE_LX_ETT$,,AUTO
        25 011765   000002 756100                    STQ     2,,PR0

  41322 25 011766   000133 236000 xsym               LDQ     COMCOM+91
        25 011767   200351 470500                    LDP0    TABLE_LX_ETT$,,AUTO
        25 011770   000005 756100                    STQ     5,,PR0

  41323 25 011771   000134 236000 xsym               LDQ     COMCOM+92
        25 011772   200351 470500                    LDP0    TABLE_LX_ETT$,,AUTO
        25 011773   000006 756100                    STQ     6,,PR0

     2056    41335    2           TABLE_LX_ETT$ -> LX_ETT_ITEM.ETT$ = TABLE$ ;

  41335 25 011774   200347 236100                    LDQ     TABLE$,,AUTO
        25 011775   200351 470500                    LDP0    TABLE_LX_ETT$,,AUTO
        25 011776   000001 756100                    STQ     1,,PR0

     2057    41336
     2058    41337                /* Generate the TCT of id1 using the table */
     2059    41338
PL6.E3A0      #001=Z8EA$INSPECT_1 File=Z8EA.:Z8A6TSI                             SAT 08/09/97 11:39 Page:355
     2060    41339    2           POSITION$ = ADDR (POSITION) ;

  41339 25 011777   200076 630500                    EPPR0   POSITION,,AUTO
        25 012000   200340 450500                    STP0    POSITION$,,AUTO

     2061    41340                %INIT_LX_ETT_ITEM (@POINTER = POSITION$,
     2062    41341                                   @TYPE    = %TYI) ;

  41343 25 012001   000000 740100                    STX0    0,,PR0

  41344 25 012002   200340 470500                    LDP0    POSITION$,,AUTO
        25 012003   000000 441100                    SXL1    0,,PR0

  41345 25 012004   000001 236007                    LDQ     1,DL
        25 012005   200340 470500                    LDP0    POSITION$,,AUTO
        25 012006   000004 756100                    STQ     4,,PR0

  41346 25 012007   000005 236000 26                 LDQ     5
        25 012010   200340 470500                    LDP0    POSITION$,,AUTO
        25 012011   000007 756100                    STQ     7,,PR0

  41347 25 012012   200340 470500                    LDP0    POSITION$,,AUTO
        25 012013   000001 756100                    STQ     1,,PR0

  41348 25 012014   000005 236000 26                 LDQ     5
        25 012015   200340 470500                    LDP0    POSITION$,,AUTO
        25 012016   000002 756100                    STQ     2,,PR0

  41350 25 012017   000133 236000 xsym               LDQ     COMCOM+91
        25 012020   200340 470500                    LDP0    POSITION$,,AUTO
        25 012021   000005 756100                    STQ     5,,PR0

  41351 25 012022   000134 236000 xsym               LDQ     COMCOM+92
        25 012023   200340 470500                    LDP0    POSITION$,,AUTO
        25 012024   000006 756100                    STQ     6,,PR0

     2063    41363    2           CALL Z8AT$CREATE_TEMP_WITH_BASE (%SCALAR,
PL6.E3A0      #001=Z8EA$INSPECT_1 File=Z8EA.:Z8A6TSI                             SAT 08/09/97 11:39 Page:356

  41363 25 012025   200340 236100                    LDQ     POSITION$,,AUTO
        25 012026   000001 036003                    ADLQ    1,DU
        25 012027   000026 235000 26                 LDA     22
        25 012030   200552 757100                    STAQ    LENGTH_ID4$+2,,AUTO
        25 012031   200552 630500                    EPPR0   LENGTH_ID4$+2,,AUTO
        25 012032   000000 631400 26                 EPPR1   0
        25 012033   000000 701000 xent               TSX1    Z8AT$CREATE_TEMP_WITH_BASE
        25 012034   000000 011000                    NOP     0

     2064    41364    2                                            POSITION$ -> LX_ETT_ITEM.ETT$) ;
     2065    41365
     2066    41366    2           CALL Z8EZ$SEARCH (POSITION$,   /* Result of TCT */

  41366 25 012035   000005 236000 26                 LDQ     5
        25 012036   200552 756100                    STQ     LENGTH_ID4$+2,,AUTO
        25 012037   200553 756100                    STQ     LENGTH_ID4$+3,,AUTO
        25 012040   200553 630500                    EPPR0   LENGTH_ID4$+3,,AUTO
        25 012041   200560 450500                    STP0    LENGTH_ID4$+8,,AUTO
        25 012042   200311 631500                    EPPR1   ID1$,,AUTO
        25 012043   200557 451500                    STP1    LENGTH_ID4$+7,,AUTO
        25 012044   200351 633500                    EPPR3   TABLE_LX_ETT$,,AUTO
        25 012045   200556 453500                    STP3    LENGTH_ID4$+6,,AUTO
        25 012046   200552 634500                    EPPR4   LENGTH_ID4$+2,,AUTO
        25 012047   200555 454500                    STP4    LENGTH_ID4$+5,,AUTO
        25 012050   200340 635500                    EPPR5   POSITION$,,AUTO
        25 012051   200554 455500                    STP5    LENGTH_ID4$+4,,AUTO
        25 012052   200554 630500                    EPPR0   LENGTH_ID4$+4,,AUTO
        25 012053   000027 631400 26                 EPPR1   23
        25 012054   000000 701000 xent               TSX1    Z8EZ$SEARCH
        25 012055   000000 011000                    NOP     0

     2067    41367    2                             ADDR(NIL),   /* Table Value   */
     2068    41368    2                             TABLE_LX_ETT$, /* Table       */
     2069    41369    2                             ID1$,        /* Searchee      */
     2070    41370    2                             ADDR(NIL)) ; /* Alt Return    */
     2071    41371
PL6.E3A0      #001=Z8EA$INSPECT_1 File=Z8EA.:Z8A6TSI                             SAT 08/09/97 11:39 Page:357
     2072    41372    2   END LEADING_OPTIMIZED ;

  41372 25 012056   200416 221300                    LDX1  ! CONVERSION_ILS_LIST+8,,AUTO
        25 012057   000001 702211                    TSX2  ! 1,X1

     2073    41373
     2074    41374        %EJECT;
PL6.E3A0      #001=Z8EA$INSPECT_1 File=Z8EA.:Z8A6TSI                             SAT 08/09/97 11:39 Page:358
     2075    41375        /*========================*/
     2076    41376    1     IF_SUBSTR_ID1_EQUALS_ID3: PROC (END_IF$) ;

  41376 25 012060   200416 741300       IF_SUBSTR_I* STX1  ! CONVERSION_ILS_LIST+8,,AUTO

     2077    41377        /*========================*/
     2078    41378
     2079    41379        /*I*   NAME: IF_SUBSTR_ID1_EQUALS_ID3
     2080    41380
     2081    41381              INPUT: ID1$, ID3$, LENGTH_ID3$, POINTER$
     2082    41382
     2083    41383             OUTPUT: END_IF$ -- a label is created.
     2084    41384
     2085    41385        DESCRIPTION: If the length of ID3 is not constant or not one,
     2086    41386                     then we must generate another test before testing
     2087    41387                     if SUBSTR (ID1) = ID3.  The first test would be:
     2088    41388                     if POINTER <= LENGTH (ID1) - LENGTH (ID3).
     2089    41389        */
     2090    41390
     2091    41391    2   DCL  END_IF$       PTR ;
     2092    41392    2   DCL  SUB$          PTR ;
     2093    41393
     2094    41394        %DCL_AUTO_LX_ITEM (@NAME = SUB) ;
     2095    41398
     2096    41399    2          CALL Z8AU$TYPE_DESCRIPTOR (ID3$ -> LX_ETT_ITEM.ETT$, ID3_DESC) ;

  41399 25 012061   200356 630500                    EPPR0   ID3_DESC,,AUTO
        25 012062   200553 450500                    STP0    LENGTH_ID4$+3,,AUTO
        25 012063   200314 236100                    LDQ     ID3$,,AUTO
        25 012064   000001 036003                    ADLQ    1,DU
        25 012065   200552 756100                    STQ     LENGTH_ID4$+2,,AUTO
        25 012066   200552 630500                    EPPR0   LENGTH_ID4$+2,,AUTO
        25 012067   000000 631400 26                 EPPR1   0
        25 012070   000000 701000 xent               TSX1    Z8AU$TYPE_DESCRIPTOR
        25 012071   000000 011000                    NOP     0

     2097    41400
PL6.E3A0      #001=Z8EA$INSPECT_1 File=Z8EA.:Z8A6TSI                             SAT 08/09/97 11:39 Page:359
     2098    41401    2          IF  ID3_DESC.SIZ$ = ADDR(NIL)

  41401 25 012072   200360 236100                    LDQ     ID3_DESC+2,,AUTO
        25 012073   000005 116000 26                 CMPQ    5
        25 012074   012170 601000 25                 TNZ     s:41453
        25 012075   200357 236100                    LDQ     ID3_DESC+1,,AUTO
        25 012076   007777 376007                    ANQ     4095,DL
        25 012077   000001 116007                    CMPQ    1,DL
        25 012100   012170 601000 25                 TNZ     s:41453

     2099    41402    3          AND ID3_DESC.DESC.ADSC.N = 1 THEN DO ;

     2100    41403
     2101    41404                 /* IF SUBSTR (ID1, POINTER, 1) = ID3 THEN DO */
     2102    41405
     2103    41406    3            CALL Z8EA$INSERT_ZERO (ID1$, POINTER$, LENGTH_ID3$, SUBSTR$) ;

  41406 25 012101   200346 630500                    EPPR0   SUBSTR$,,AUTO
        25 012102   200555 450500                    STP0    LENGTH_ID4$+5,,AUTO
        25 012103   200330 631500                    EPPR1   LENGTH_ID3$,,AUTO
        25 012104   200554 451500                    STP1    LENGTH_ID4$+4,,AUTO
        25 012105   000051 236000 26                 LDQ     41
        25 012106   200553 756100                    STQ     LENGTH_ID4$+3,,AUTO
        25 012107   200311 633500                    EPPR3   ID1$,,AUTO
        25 012110   200552 453500                    STP3    LENGTH_ID4$+2,,AUTO
        25 012111   200552 630500                    EPPR0   LENGTH_ID4$+2,,AUTO
        25 012112   000010 631400 26                 EPPR1   8
        25 012113   000000 701000 xent               TSX1    Z8EA$INSERT_ZERO
        25 012114   000000 011000                    NOP     0

     2104    41407
     2105    41408                 %IF_THEN_DO (@LOP = SUBSTR$,
     2106    41409                              @REL = %OP_EQUAL,
     2107    41410                              @ROP = ID3$,
     2108    41411                              @LAB = END_IF$) ;

  41418 25 012115   200176 630500                    EPPR0   COMPARISON,,AUTO
PL6.E3A0      #001=Z8EA$INSPECT_1 File=Z8EA.:Z8A6TSI                             SAT 08/09/97 11:39 Page:360
        25 012116   200277 450500                    STP0    COMPARISON$,,AUTO

  41426 25 012117   000005 220003                    LDX0    5,DU
        25 012120   000000 740100                    STX0    0,,PR0

  41427 25 012121   000000 221003                    LDX1    0,DU
        25 012122   200277 470500                    LDP0    COMPARISON$,,AUTO
        25 012123   000000 441100                    SXL1    0,,PR0

  41434 25 012124   200346 470500                    LDP0    SUBSTR$,,AUTO
        25 012125   200277 471500                    LDP1    COMPARISON$,,AUTO
        25 012126   000005 235100                    LDA     5,,PR0
        25 012127   100005 755100                    STA     5,,PR1

  41435 25 012130   200346 470500                    LDP0    SUBSTR$,,AUTO
        25 012131   200277 471500                    LDP1    COMPARISON$,,AUTO
        25 012132   000006 235100                    LDA     6,,PR0
        25 012133   100006 755100                    STA     6,,PR1

  41436 25 012134   200314 236100                    LDQ     ID3$,,AUTO
        25 012135   200277 470500                    LDP0    COMPARISON$,,AUTO
        25 012136   000002 756100                    STQ     2,,PR0

  41437 25 012137   200346 236100                    LDQ     SUBSTR$,,AUTO
        25 012140   200277 470500                    LDP0    COMPARISON$,,AUTO
        25 012141   000001 756100                    STQ     1,,PR0

  41438 25 012142   000027 235007                    LDA     23,DL
        25 012143   200277 470500                    LDP0    COMPARISON$,,AUTO
        25 012144   000003 755100                    STA     3,,PR0

  41439 25 012145   000005 236000 26                 LDQ     5
        25 012146   200277 470500                    LDP0    COMPARISON$,,AUTO
        25 012147   000007 756100                    STQ     7,,PR0

  41442 25 012150   200417 236100                    LDQ     @END_IF$,,AUTO
        25 012151   000024 235000 26                 LDA     20
PL6.E3A0      #001=Z8EA$INSPECT_1 File=Z8EA.:Z8A6TSI                             SAT 08/09/97 11:39 Page:361
        25 012152   200552 757100                    STAQ    LENGTH_ID4$+2,,AUTO
        25 012153   200552 630500                    EPPR0   LENGTH_ID4$+2,,AUTO
        25 012154   000000 631400 26                 EPPR1   0
        25 012155   000000 701000 xent               TSX1    Z8AT$CREATE_TEMPORARY
        25 012156   000000 011000                    NOP     0

  41443 25 012157   200277 630500                    EPPR0   COMPARISON$,,AUTO
        25 012160   200553 450500                    STP0    LENGTH_ID4$+3,,AUTO
        25 012161   200417 236100                    LDQ     @END_IF$,,AUTO
        25 012162   200552 756100                    STQ     LENGTH_ID4$+2,,AUTO
        25 012163   200552 630500                    EPPR0   LENGTH_ID4$+2,,AUTO
        25 012164   000000 631400 26                 EPPR1   0
        25 012165   000000 701000 xent               TSX1    Z8EK$BRANCH_FALSE
        25 012166   000000 011000                    NOP     0

     2109    41446
     2110    41447    3          END ; /* Length (id3) = 1 */

  41447 25 012167   012342 710000 25                 TRA     s:41551

     2111    41448
     2112    41449    3          ELSE DO ;

     2113    41450
     2114    41451                 /* IF POINTER <= Length (id1) - Length (id3) THEN DO */
     2115    41452
     2116    41453    3            SUB$ = ADDR (SUB) ;

  41453 25 012170   200422 630500                    EPPR0   SUB,,AUTO
        25 012171   200420 450500                    STP0    SUB$,,AUTO

     2117    41454                 %INIT_BINARY_OP (@POINTER = SUB$,
     2118    41455                                  @LOP$    = LENGTH_ID1$,
     2119    41456                                  @OP      = %OP_BINARY_MINUS,
     2120    41457                                  @ROP$    = LENGTH_ID3$,
     2121    41458                                  @LINE    = "ID1$ -> LX_ETT_ITEM.LINE",
     2122    41459                                  @COLUMN  = "ID1$ -> LX_ETT_ITEM.COLUMN") ;
PL6.E3A0      #001=Z8EA$INSPECT_1 File=Z8EA.:Z8A6TSI                             SAT 08/09/97 11:39 Page:362

  41461 25 012172   000005 220003                    LDX0    5,DU
        25 012173   000000 740100                    STX0    0,,PR0

  41462 25 012174   000000 221003                    LDX1    0,DU
        25 012175   000000 441100                    SXL1    0,,PR0

  41469 25 012176   200311 471500                    LDP1    ID1$,,AUTO
        25 012177   100005 235100                    LDA     5,,PR1
        25 012200   000005 755100                    STA     5,,PR0

  41470 25 012201   200311 471500                    LDP1    ID1$,,AUTO
        25 012202   100006 235100                    LDA     6,,PR1
        25 012203   000006 755100                    STA     6,,PR0

  41471 25 012204   200330 236100                    LDQ     LENGTH_ID3$,,AUTO
        25 012205   000002 756100                    STQ     2,,PR0

  41472 25 012206   200327 236100                    LDQ     LENGTH_ID1$,,AUTO
        25 012207   000001 756100                    STQ     1,,PR0

  41473 25 012210   000021 235007                    LDA     17,DL
        25 012211   000003 755100                    STA     3,,PR0

  41474 25 012212   000005 236000 26                 LDQ     5
        25 012213   000007 756100                    STQ     7,,PR0

     2123    41477
     2124    41478                 %IF_THEN_DO (@LOP = POINTER$,
     2125    41479                              @REL = %OP_LESS_THAN_OR_EQUAL,
     2126    41480                              @ROP = SUB$,
     2127    41481                              @LAB = END_IF$) ;

  41488 25 012214   200176 631500                    EPPR1   COMPARISON,,AUTO
        25 012215   200277 451500                    STP1    COMPARISON$,,AUTO

  41496 25 012216   100000 740100                    STX0    0,,PR1
PL6.E3A0      #001=Z8EA$INSPECT_1 File=Z8EA.:Z8A6TSI                             SAT 08/09/97 11:39 Page:363

  41497 25 012217   200277 471500                    LDP1    COMPARISON$,,AUTO
        25 012220   100000 441100                    SXL1    0,,PR1

  41504 25 012221   000001 471400 24                 LDP1    POINTER$
        25 012222   200277 473500                    LDP3    COMPARISON$,,AUTO
        25 012223   100005 235100                    LDA     5,,PR1
        25 012224   300005 755100                    STA     5,,PR3

  41505 25 012225   200277 473500                    LDP3    COMPARISON$,,AUTO
        25 012226   100006 235100                    LDA     6,,PR1
        25 012227   300006 755100                    STA     6,,PR3

  41506 25 012230   200420 236100                    LDQ     SUB$,,AUTO
        25 012231   200277 473500                    LDP3    COMPARISON$,,AUTO
        25 012232   300002 756100                    STQ     2,,PR3

  41507 25 012233   000001 236000 24                 LDQ     POINTER$
        25 012234   200277 473500                    LDP3    COMPARISON$,,AUTO
        25 012235   300001 756100                    STQ     1,,PR3

  41508 25 012236   000032 235007                    LDA     26,DL
        25 012237   200277 471500                    LDP1    COMPARISON$,,AUTO
        25 012240   100003 755100                    STA     3,,PR1

  41509 25 012241   000005 236000 26                 LDQ     5
        25 012242   200277 471500                    LDP1    COMPARISON$,,AUTO
        25 012243   100007 756100                    STQ     7,,PR1

  41512 25 012244   200417 236100                    LDQ     @END_IF$,,AUTO
        25 012245   000024 235000 26                 LDA     20
        25 012246   200552 757100                    STAQ    LENGTH_ID4$+2,,AUTO
        25 012247   200552 630500                    EPPR0   LENGTH_ID4$+2,,AUTO
        25 012250   000000 631400 26                 EPPR1   0
        25 012251   000000 701000 xent               TSX1    Z8AT$CREATE_TEMPORARY
        25 012252   000000 011000                    NOP     0

PL6.E3A0      #001=Z8EA$INSPECT_1 File=Z8EA.:Z8A6TSI                             SAT 08/09/97 11:39 Page:364
  41513 25 012253   200277 630500                    EPPR0   COMPARISON$,,AUTO
        25 012254   200553 450500                    STP0    LENGTH_ID4$+3,,AUTO
        25 012255   200417 236100                    LDQ     @END_IF$,,AUTO
        25 012256   200552 756100                    STQ     LENGTH_ID4$+2,,AUTO
        25 012257   200552 630500                    EPPR0   LENGTH_ID4$+2,,AUTO
        25 012260   000000 631400 26                 EPPR1   0
        25 012261   000000 701000 xent               TSX1    Z8EK$BRANCH_FALSE
        25 012262   000000 011000                    NOP     0

     2128    41516
     2129    41517                 /* IF SUBSTR (id1, POINTER, Length (id3)) = id3 THEN DO */
     2130    41518
     2131    41519    3            CALL Z8EA$INSERT_ZERO (ID1$, POINTER$, LENGTH_ID3$, SUBSTR$) ;

  41519 25 012263   200346 630500                    EPPR0   SUBSTR$,,AUTO
        25 012264   200555 450500                    STP0    LENGTH_ID4$+5,,AUTO
        25 012265   200330 631500                    EPPR1   LENGTH_ID3$,,AUTO
        25 012266   200554 451500                    STP1    LENGTH_ID4$+4,,AUTO
        25 012267   000051 236000 26                 LDQ     41
        25 012270   200553 756100                    STQ     LENGTH_ID4$+3,,AUTO
        25 012271   200311 633500                    EPPR3   ID1$,,AUTO
        25 012272   200552 453500                    STP3    LENGTH_ID4$+2,,AUTO
        25 012273   200552 630500                    EPPR0   LENGTH_ID4$+2,,AUTO
        25 012274   000010 631400 26                 EPPR1   8
        25 012275   000000 701000 xent               TSX1    Z8EA$INSERT_ZERO
        25 012276   000000 011000                    NOP     0

     2132    41520
     2133    41521    3            COMPARISON$ = ADDR (COMPARISON) ;

  41521 25 012277   200176 630500                    EPPR0   COMPARISON,,AUTO
        25 012300   200277 450500                    STP0    COMPARISON$,,AUTO

     2134    41522
     2135    41523                 %INIT_BINARY_OP (@POINTER = COMPARISON$,
     2136    41524                                  @LOP$    = SUBSTR$,
     2137    41525                                  @OP      = %OP_EQUAL,
PL6.E3A0      #001=Z8EA$INSPECT_1 File=Z8EA.:Z8A6TSI                             SAT 08/09/97 11:39 Page:365
     2138    41526                                  @ROP$    = ID3$,
     2139    41527                                  @LINE    = "ID3$ -> LX_ETT_ITEM.LINE",
     2140    41528                                  @COLUMN  = "ID3$ -> LX_ETT_ITEM.COLUMN") ;

  41530 25 012301   000005 220003                    LDX0    5,DU
        25 012302   000000 740100                    STX0    0,,PR0

  41531 25 012303   000000 221003                    LDX1    0,DU
        25 012304   200277 470500                    LDP0    COMPARISON$,,AUTO
        25 012305   000000 441100                    SXL1    0,,PR0

  41538 25 012306   200314 470500                    LDP0    ID3$,,AUTO
        25 012307   200277 471500                    LDP1    COMPARISON$,,AUTO
        25 012310   000005 235100                    LDA     5,,PR0
        25 012311   100005 755100                    STA     5,,PR1

  41539 25 012312   200314 470500                    LDP0    ID3$,,AUTO
        25 012313   200277 471500                    LDP1    COMPARISON$,,AUTO
        25 012314   000006 235100                    LDA     6,,PR0
        25 012315   100006 755100                    STA     6,,PR1

  41540 25 012316   200314 236100                    LDQ     ID3$,,AUTO
        25 012317   200277 470500                    LDP0    COMPARISON$,,AUTO
        25 012320   000002 756100                    STQ     2,,PR0

  41541 25 012321   200346 236100                    LDQ     SUBSTR$,,AUTO
        25 012322   200277 470500                    LDP0    COMPARISON$,,AUTO
        25 012323   000001 756100                    STQ     1,,PR0

  41542 25 012324   000027 235007                    LDA     23,DL
        25 012325   200277 470500                    LDP0    COMPARISON$,,AUTO
        25 012326   000003 755100                    STA     3,,PR0

  41543 25 012327   000005 236000 26                 LDQ     5
        25 012330   200277 470500                    LDP0    COMPARISON$,,AUTO
        25 012331   000007 756100                    STQ     7,,PR0

PL6.E3A0      #001=Z8EA$INSPECT_1 File=Z8EA.:Z8A6TSI                             SAT 08/09/97 11:39 Page:366
     2141    41546
     2142    41547    3            CALL Z8EK$BRANCH_FALSE (END_IF$, COMPARISON$) ;

  41547 25 012332   200277 630500                    EPPR0   COMPARISON$,,AUTO
        25 012333   200553 450500                    STP0    LENGTH_ID4$+3,,AUTO
        25 012334   200417 236100                    LDQ     @END_IF$,,AUTO
        25 012335   200552 756100                    STQ     LENGTH_ID4$+2,,AUTO
        25 012336   200552 630500                    EPPR0   LENGTH_ID4$+2,,AUTO
        25 012337   000000 631400 26                 EPPR1   0
        25 012340   000000 701000 xent               TSX1    Z8EK$BRANCH_FALSE
        25 012341   000000 011000                    NOP     0

     2143    41548
     2144    41549    3          END ;

     2145    41550
     2146    41551    2   END IF_SUBSTR_ID1_EQUALS_ID3 ;

  41551 25 012342   200416 221300                    LDX1  ! CONVERSION_ILS_LIST+8,,AUTO
        25 012343   000001 702211                    TSX2  ! 1,X1

     2147    41552
     2148    41553        %EJECT;
PL6.E3A0      #001=Z8EA$INSPECT_1 File=Z8EA.:Z8A6TSI                             SAT 08/09/97 11:39 Page:367
     2149    41554        /*=========================*/
     2150    41555    1     FIND_BEFORE_AFTER_INDEXES: PROC (LX_ITEM$, BEFORE$, AFTER$) ;

  41555 25 012344   200416 741300       FIND_BEFORE* STX1  ! CONVERSION_ILS_LIST+8,,AUTO

     2151    41556        /*=========================*/
     2152    41557
     2153    41558        /*I*   NAME: FIND_BEFORE_AFTER_INDEXES
     2154    41559
     2155    41560              INPUT: LX_ITEM$ -- (1) LX_TERMINAL (EMPTY),
     2156    41561                                 (2) LX_ETT_ITEM (AFTER default),
     2157    41562                              or (3) LX_LIST (COUNT = 1 or 2) of:
     2158    41563                                     (a) LX_LIST (LX_TERMINAL, LX_ETT_ITEM),
     2159    41564                                  or (b) LX_ETT_ITEM (AFTER default).
     2160    41565
     2161    41566             OUTPUT: BEFORE$ -- LX_ETT_ITEM (BASE) or nil.
     2162    41567                     AFTER$ --- LX_ETT_ITEM (BASE) or nil.
     2163    41568
     2164    41569        */
     2165    41570
     2166    41571    2   DCL  LX_ITEM$  PTR ;
     2167    41572    2   DCL  BEFORE$   PTR ;
     2168    41573    2   DCL  AFTER$    PTR ;
     2169    41574    2   DCL  CLAUSE$   PTR ; /* Before or After Clause */
     2170    41575
     2171    41576        %EJECT;
PL6.E3A0      #001=Z8EA$INSPECT_1 File=Z8EA.:Z8A6TSI                             SAT 08/09/97 11:39 Page:368
     2172    41577               /* FIND BEFORE AFTER INDEXES */
     2173    41578
     2174    41579    2          AFTER$  = ADDR(NIL) ;

  41579 25 012345   000005 236000 26                 LDQ     5
        25 012346   200421 470500                    LDP0    @AFTER$,,AUTO
        25 012347   000000 756100                    STQ     0,,PR0

     2175    41580    2          BEFORE$ = ADDR(NIL) ;

  41580 25 012350   000005 236000 26                 LDQ     5
        25 012351   200420 471500                    LDP1    @BEFORE$,,AUTO
        25 012352   100000 756100                    STQ     0,,PR1

     2176    41581
     2177    41582    3          DO CASE (LX_ITEM$ -> LX_ITEM.ID) ;

  41582 25 012353   200417 473500                    LDP3    @LX_ITEM$,,AUTO
        25 012354   300000 474500                    LDP4    0,,PR3
        25 012355   400000 220100                    LDX0    0,,PR4
        25 012356   000005 100003                    CMPX0   5,DU
        25 012357   012361 602010 25                 TNC     s:41582+6,X0
        25 012360   012452 710000 25                 TRA     s:41631
        25 012361   012452 710000 25                 TRA     s:41631
        25 012362   012452 710000 25                 TRA     s:41631
        25 012363   012371 710000 25                 TRA     s:41594
        25 012364   012452 710000 25                 TRA     s:41631
        25 012365   012366 710000 25                 TRA     s:41590

     2178    41583
     2179    41584    3            CASE (%LX_TERMINAL) ; /* EMPTY */

     2180    41585
     2181    41586                   /* No After or Before clauses */
     2182    41587
     2183    41588    3            CASE (%LX_ETT_ITEM) ;

PL6.E3A0      #001=Z8EA$INSPECT_1 File=Z8EA.:Z8A6TSI                             SAT 08/09/97 11:39 Page:369
     2184    41589
     2185    41590    3              AFTER$ = LX_ITEM$ ;

  41590 25 012366   300000 236100                    LDQ     0,,PR3
        25 012367   000000 756100                    STQ     0,,PR0
        25 012370   012452 710000 25                 TRA     s:41631

     2186    41591
     2187    41592    3            CASE (%LX_LIST) ;

     2188    41593
     2189    41594    3              CLAUSE$ = LX_ITEM$ -> LX_LIST.HEAD$ ;

  41594 25 012371   400004 236100                    LDQ     4,,PR4
        25 012372   200422 756100                    STQ     CLAUSE$,,AUTO

     2190    41595
     2191    41596    4              DO WHILE (CLAUSE$ ~= ADDR(NIL)) ;

  41596 25 012373   012447 710000 25                 TRA     s:41627

     2192    41597
     2193    41598    5                DO CASE (CLAUSE$ -> LX_ITEM.ID) ;

  41598 25 012374   200422 470500                    LDP0    CLAUSE$,,AUTO
        25 012375   000000 220100                    LDX0    0,,PR0
        25 012376   000005 100003                    CMPX0   5,DU
        25 012377   012401 602010 25                 TNC     s:41598+5,X0
        25 012400   012447 710000 25                 TRA     s:41627
        25 012401   012414 710000 25                 TRA     s:41607
        25 012402   012447 710000 25                 TRA     s:41627
        25 012403   012431 710000 25                 TRA     s:41614
        25 012404   012447 710000 25                 TRA     s:41627
        25 012405   012406 710000 25                 TRA     s:41602

     2194    41599
     2195    41600    5                  CASE (%LX_ETT_ITEM) ;
PL6.E3A0      #001=Z8EA$INSPECT_1 File=Z8EA.:Z8A6TSI                             SAT 08/09/97 11:39 Page:370

     2196    41601
     2197    41602    5                    AFTER$ = CLAUSE$ ;

  41602 25 012406   200422 236100                    LDQ     CLAUSE$,,AUTO
        25 012407   200421 471500                    LDP1    @AFTER$,,AUTO
        25 012410   100000 756100                    STQ     0,,PR1

     2198    41603    5                    CLAUSE$ = ADDR(NIL) ;

  41603 25 012411   000005 236000 26                 LDQ     5
        25 012412   200422 756100                    STQ     CLAUSE$,,AUTO
        25 012413   012447 710000 25                 TRA     s:41627

     2199    41604
     2200    41605    5                  CASE (%LX_TERMINAL) ; /* BEFORE or AFTER */

     2201    41606
     2202    41607    5                    IF CLAUSE$ -> LX_TERMINAL.SYMBOL = %RSV_WRD_BEFORE

  41607 25 012414   000003 235100                    LDA     3,,PR0
        25 012415   000075 115007                    CMPA    61,DL
        25 012416   012423 601000 25                 TNZ     s:41609

     2203    41608    5                    THEN BEFORE$ = CLAUSE$ -> LX_TERMINAL.LINK ;

  41608 25 012417   000007 236100                    LDQ     7,,PR0
        25 012420   200420 471500                    LDP1    @BEFORE$,,AUTO
        25 012421   100000 756100                    STQ     0,,PR1
        25 012422   012426 710000 25                 TRA     s:41610

     2204    41609    5                    ELSE AFTER$  = CLAUSE$ -> LX_TERMINAL.LINK ;

  41609 25 012423   000007 236100                    LDQ     7,,PR0
        25 012424   200421 471500                    LDP1    @AFTER$,,AUTO
        25 012425   100000 756100                    STQ     0,,PR1

PL6.E3A0      #001=Z8EA$INSPECT_1 File=Z8EA.:Z8A6TSI                             SAT 08/09/97 11:39 Page:371
     2205    41610    5                    CLAUSE$ = ADDR(NIL) ;

  41610 25 012426   000005 236000 26                 LDQ     5
        25 012427   200422 756100                    STQ     CLAUSE$,,AUTO
        25 012430   012447 710000 25                 TRA     s:41627

     2206    41611
     2207    41612    5                  CASE (%LX_LIST) ;

     2208    41613
     2209    41614    5                    IF CLAUSE$ -> LX_LIST.HEAD$ -> LX_TERMINAL.SYMBOL

  41614 25 012431   000004 471500                    LDP1    4,,PR0
        25 012432   100003 235100                    LDA     3,,PR1
        25 012433   000075 115007                    CMPA    61,DL
        25 012434   012441 601000 25                 TNZ     s:41617

     2210    41615    5                       = %RSV_WRD_BEFORE
     2211    41616    5                    THEN BEFORE$ = CLAUSE$ -> LX_LIST.TAIL$ ;

  41616 25 012435   000001 236100                    LDQ     1,,PR0
        25 012436   200420 473500                    LDP3    @BEFORE$,,AUTO
        25 012437   300000 756100                    STQ     0,,PR3
        25 012440   012444 710000 25                 TRA     s:41619

     2212    41617    5                    ELSE AFTER$  = CLAUSE$ -> LX_LIST.TAIL$ ;

  41617 25 012441   000001 236100                    LDQ     1,,PR0
        25 012442   200421 473500                    LDP3    @AFTER$,,AUTO
        25 012443   300000 756100                    STQ     0,,PR3

     2213    41618
     2214    41619    5                    CLAUSE$ = CLAUSE$ -> LX_LIST.LINK ;

  41619 25 012444   000007 236100                    LDQ     7,,PR0
        25 012445   200422 756100                    STQ     CLAUSE$,,AUTO
        25 012446   012447 710000 25                 TRA     s:41627
PL6.E3A0      #001=Z8EA$INSPECT_1 File=Z8EA.:Z8A6TSI                             SAT 08/09/97 11:39 Page:372

     2215    41620
     2216    41621    5                  CASE (ELSE) ;

     2217    41622
     2218    41623                         /*N* CALL Z8AE$ERROR (Unexpected Case) */
     2219    41624
     2220    41625    5                END ; /* Case of CLAUSE$'s ID */

     2221    41626
     2222    41627    4              END ; /* While CLAUSE$ <> nil */

  41627 25 012447   200422 236100                    LDQ     CLAUSE$,,AUTO
        25 012450   000005 116000 26                 CMPQ    5
        25 012451   012374 601000 25                 TNZ     s:41598

     2223    41628
     2224    41629    3          END ; /* Case of LX_ITEM$'s ID */

     2225    41630
     2226    41631    2   END FIND_BEFORE_AFTER_INDEXES ;

  41631 25 012452   200416 221300                    LDX1  ! CONVERSION_ILS_LIST+8,,AUTO
        25 012453   000001 702211                    TSX2  ! 1,X1

     2227    41632
     2228    41633        %EJECT;
PL6.E3A0      #001=Z8EA$INSPECT_1 File=Z8EA.:Z8A6TSI                             SAT 08/09/97 11:39 Page:373
     2229    41634        /*===========*/
     2230    41635    1     CONVERT_ID2: PROC (ID2$) ;

  41635 25 012454   200416 741300       CONVERT_ID2  STX1  ! CONVERSION_ILS_LIST+8,,AUTO

     2231    41636        /*===========*/
     2232    41637
     2233    41638        /*I*   NAME: CONVERT_ID2 (for INSPECT statement).
     2234    41639
     2235    41640              INPUT: ID2$ -- LX_ETT_ITEM
     2236    41641
     2237    41642             OUTPUT: ID2$ -- LX_ETT_ITEM (Type = %TYI)
     2238    41643
     2239    41644        DESCRIPTION: For INSPECT TALLYING, if ID2 is not COMP-6, the
     2240    41645                     original ID2 is saved on a list, and ID2 is converted
     2241    41646                     to COMP-6.  VERIFY_INTEGER_DEF is called to
     2242    41647                     do the conversion.  After the ILS/ILL for the INSPECT
     2243    41648                     is completed, the list of original ID2's is scanned
     2244    41649                     to convert back from COMP-6.  Note: this could be
     2245    41650                     done without the list by using the linking mechanisms
     2246    41651                     of the ILS.
     2247    41652
     2248    41653        */
     2249    41654
     2250    41655    2   DCL  ID2_ORIGINAL$  PTR ;
     2251    41656    2   DCL  ID2$           PTR ;
     2252    41657
     2253    41658    2          CALL VERIFY_NUMERIC_ETT (ID2$) ;

  41658 25 012455   200417 236100                    LDQ     @ID2$,,AUTO
        25 012456   200423 756100                    STQ     LONG_CONST+1,,AUTO
        25 012457   013462 701000 25                 TSX1    VERIFY_NUMERIC_ETT
        25 012460   000000 011000                    NOP     0

     2254    41659
     2255    41660    3          DO CASE (ID2$ -> LX_ETT_ITEM.TYPE) ;

PL6.E3A0      #001=Z8EA$INSPECT_1 File=Z8EA.:Z8A6TSI                             SAT 08/09/97 11:39 Page:374
  41660 25 012461   200417 470500                    LDP0    @ID2$,,AUTO
        25 012462   000000 471500                    LDP1    0,,PR0
        25 012463   100004 235100                    LDA     4,,PR1
        25 012464   000024 115007                    CMPA    20,DL
        25 012465   012467 602005 25                 TNC     s:41660+6,AL
        25 012466   012573 710000 25                 TRA     s:41687
        25 012467   012513 710000 25                 TRA     s:41668
        25 012470   012574 710000 25                 TRA     s:41691
        25 012471   012513 710000 25                 TRA     s:41668
        25 012472   012513 710000 25                 TRA     s:41668
        25 012473   012513 710000 25                 TRA     s:41668
        25 012474   012513 710000 25                 TRA     s:41668
        25 012475   012573 710000 25                 TRA     s:41687
        25 012476   012513 710000 25                 TRA     s:41668
        25 012477   012573 710000 25                 TRA     s:41687
        25 012500   012573 710000 25                 TRA     s:41687
        25 012501   012573 710000 25                 TRA     s:41687
        25 012502   012513 710000 25                 TRA     s:41668
        25 012503   012573 710000 25                 TRA     s:41687
        25 012504   012573 710000 25                 TRA     s:41687
        25 012505   012573 710000 25                 TRA     s:41687
        25 012506   012513 710000 25                 TRA     s:41668
        25 012507   012573 710000 25                 TRA     s:41687
        25 012510   012573 710000 25                 TRA     s:41687
        25 012511   012573 710000 25                 TRA     s:41687
        25 012512   012513 710000 25                 TRA     s:41668

     2256    41661
     2257    41662    3            CASE (%TYI) ;

     2258    41663
     2259    41664                   /* No Conversion Needed */
     2260    41665
     2261    41666    3            CASE (%TYH, %TYK, %TYJ, %TYD, %TYO, %TYR, %TYQ, %TYF, %TYC) ;

     2262    41667
     2263    41668    3              ID2_ORIGINAL$ = ADDR(ID2_ORIGINAL) ;
PL6.E3A0      #001=Z8EA$INSPECT_1 File=Z8EA.:Z8A6TSI                             SAT 08/09/97 11:39 Page:375

  41668 25 012513   200156 633500                    EPPR3   ID2_ORIGINAL,,AUTO
        25 012514   200420 453500                    STP3    ID2_ORIGINAL$,,AUTO

     2264    41669    3              ID2_ORIGINAL$ -> LX_ETT_ITEM = ID2$ -> LX_ETT_ITEM ;

  41669 25 012515   000000 471500                    LDP1    0,,PR0
        25 012516   000100 100500                    MLR     fill='000'O
        25 012517   100000 000040                    ADSC9   0,,PR1                   cn=0,n=32
        25 012520   300000 000040                    ADSC9   0,,PR3                   cn=0,n=32

     2265    41670
     2266    41671    3              CALL Z8AT$CREATE_TEMP_WITH_BASE (%SCALAR, ID2$ -> LX_ETT_ITEM.ETT$) ;

  41671 25 012521   000000 471500                    LDP1    0,,PR0
        25 012522   100001 633500                    EPPR3   1,,PR1
        25 012523   200553 453500                    STP3    LENGTH_ID4$+3,,AUTO
        25 012524   000026 236000 26                 LDQ     22
        25 012525   200552 756100                    STQ     LENGTH_ID4$+2,,AUTO
        25 012526   200552 630500                    EPPR0   LENGTH_ID4$+2,,AUTO
        25 012527   000000 631400 26                 EPPR1   0
        25 012530   000000 701000 xent               TSX1    Z8AT$CREATE_TEMP_WITH_BASE
        25 012531   000000 011000                    NOP     0

     2267    41672    3              ID2$ -> LX_ETT_ITEM.TYPE = %TYI ;

  41672 25 012532   200417 470500                    LDP0    @ID2$,,AUTO
        25 012533   000000 471500                    LDP1    0,,PR0
        25 012534   000001 235007                    LDA     1,DL
        25 012535   100004 755100                    STA     4,,PR1

     2268    41673    3              CALL Z8E7$MOVE (ID2$, ID2_ORIGINAL$) ;

  41673 25 012536   200420 631500                    EPPR1   ID2_ORIGINAL$,,AUTO
        25 012537   200553 451500                    STP1    LENGTH_ID4$+3,,AUTO
        25 012540   200417 236100                    LDQ     @ID2$,,AUTO
        25 012541   200552 756100                    STQ     LENGTH_ID4$+2,,AUTO
PL6.E3A0      #001=Z8EA$INSPECT_1 File=Z8EA.:Z8A6TSI                             SAT 08/09/97 11:39 Page:376
        25 012542   200552 630500                    EPPR0   LENGTH_ID4$+2,,AUTO
        25 012543   000000 631400 26                 EPPR1   0
        25 012544   000000 701000 xent               TSX1    Z8E7$MOVE
        25 012545   000000 011000                    NOP     0

     2269    41674
     2270    41675                   /* Create conversion move to be linked in later */
     2271    41676
     2272    41677    3              SAVED_ILS_LIST = O1COM.ILS_LIST ;

  41677 25 012546   000100 100400                    MLR     fill='000'O
        25 012547   000016 000040 xsym               ADSC9   O1COM+14                 cn=0,n=32
        25 012550   200366 000040                    ADSC9   SAVED_ILS_LIST,,AUTO     cn=0,n=32

     2273    41678    3              O1COM.ILS_LIST = CONVERSION_ILS_LIST ;

  41678 25 012551   000000 100500                    MLR     fill='000'O
        25 012552   200406 000040                    ADSC9   CONVERSION_ILS_LIST,,AUTO cn=0,n=32
        25 012553   000016 000040 xsym               ADSC9   O1COM+14                 cn=0,n=32

     2274    41679
     2275    41680    3              CALL Z8E7$MOVE (ID2_ORIGINAL$, ID2$) ;

  41680 25 012554   200417 236100                    LDQ     @ID2$,,AUTO
        25 012555   200553 756100                    STQ     LENGTH_ID4$+3,,AUTO
        25 012556   200420 630500                    EPPR0   ID2_ORIGINAL$,,AUTO
        25 012557   200552 450500                    STP0    LENGTH_ID4$+2,,AUTO
        25 012560   200552 630500                    EPPR0   LENGTH_ID4$+2,,AUTO
        25 012561   000000 631400 26                 EPPR1   0
        25 012562   000000 701000 xent               TSX1    Z8E7$MOVE
        25 012563   000000 011000                    NOP     0

     2276    41681
     2277    41682    3              CONVERSION_ILS_LIST = O1COM.ILS_LIST ;

  41682 25 012564   000100 100400                    MLR     fill='000'O
        25 012565   000016 000040 xsym               ADSC9   O1COM+14                 cn=0,n=32
PL6.E3A0      #001=Z8EA$INSPECT_1 File=Z8EA.:Z8A6TSI                             SAT 08/09/97 11:39 Page:377
        25 012566   200406 000040                    ADSC9   CONVERSION_ILS_LIST,,AUTO cn=0,n=32

     2278    41683    3              O1COM.ILS_LIST = SAVED_ILS_LIST ;

  41683 25 012567   000000 100500                    MLR     fill='000'O
        25 012570   200366 000040                    ADSC9   SAVED_ILS_LIST,,AUTO     cn=0,n=32
        25 012571   000016 000040 xsym               ADSC9   O1COM+14                 cn=0,n=32
        25 012572   012574 710000 25                 TRA     s:41691

     2279    41684
     2280    41685    3            CASE (ELSE) ;

     2281    41686
     2282    41687    3              PRODUCE_INSPECT_ILS = '0'B ;

  41687 25 012573   200341 450100                    STZ     PRODUCE_INSPECT_ILS,,AUTO

     2283    41688
     2284    41689    3          END ; /* Case of Type of ID2 */

     2285    41690
     2286    41691    2   END CONVERT_ID2 ;

  41691 25 012574   200416 221300                    LDX1  ! CONVERSION_ILS_LIST+8,,AUTO
        25 012575   000001 702211                    TSX2  ! 1,X1

     2287    41692
     2288    41693        %EJECT;
PL6.E3A0      #001=Z8EA$INSPECT_1 File=Z8EA.:Z8A6TSI                             SAT 08/09/97 11:39 Page:378
     2289    41694        /*================*/
     2290    41695    1     VERIFY_ALPHA_DEF: PROC (ID$, TEMP$) ;

  41695 25 012576   200416 741300       VERIFY_ALPH* STX1  ! CONVERSION_ILS_LIST+8,,AUTO

     2291    41696        /*================*/
     2292    41697
     2293    41698        /*I*   NAME: VERIFY_ALPHA_DEF
     2294    41699              INPUT: ID$ -- an LX_ETT_ITEM
     2295    41700          INTERFACE: VERIFY_ALPHA
     2296    41701        DESCRIPTION: This routine is called to verify and convert an
     2297    41702                     alphanumeric definition (eg, id1 of INSPECT id1 ...).
     2298    41703                     If the conversion consists of references triads
     2299    41704                     only (OFF, FISS, DNA), then no temp is required
     2300    41705                     and VERIFY_ALPHA can be used, but if
     2301    41706                     ID1$ is overpunched, then the original ID1$ must
     2302    41707                     be preserved before the conversion so that we
     2303    41708                     can convert back to overpunched after the INSPECT
     2304    41709                     or whatever:
     2305    41710                       INSPECT overpunched REPLACING ...
     2306    41711                     becomes
     2307    41712                       MOVE overpunched TO temp.
     2308    41713                       INSPECT temp REPLACING ...
     2309    41714                       MOVE temp TO overpunched.
     2310    41715        */
     2311    41716
     2312    41717    2   DCL   ID$      PTR ; /* Operand to convert to alpha (%TYA) */
     2313    41718    2   DCL   TEMP$    PTR ; /* Created id1 or original id1 */
     2314    41719    2   DCL   BASE$    PTR ;
     2315    41720
     2316    41721    2   DCL 1 TYPE_DESC  ALIGNED,
     2317    41722             %TYPE_DESC ;
     2318    41756
     2319    41757    2          IF ID$ -> LX_ETT_ITEM.TYPE = %TYO OR

  41757 25 012577   200417 470500                    LDP0    @ID$,,AUTO
        25 012600   000000 471500                    LDP1    0,,PR0
PL6.E3A0      #001=Z8EA$INSPECT_1 File=Z8EA.:Z8A6TSI                             SAT 08/09/97 11:39 Page:379
        25 012601   100004 235100                    LDA     4,,PR1
        25 012602   000003 115007                    CMPA    3,DL
        25 012603   012610 600000 25                 TZE     s:41764
        25 012604   000013 115007                    CMPA    11,DL
        25 012605   012610 600000 25                 TZE     s:41764
        25 012606   000023 115007                    CMPA    19,DL
        25 012607   013012 601000 25                 TNZ     s:41820

     2320    41758    2             ID$ -> LX_ETT_ITEM.TYPE = %TYF OR
     2321    41759    3             ID$ -> LX_ETT_ITEM.TYPE = %TYC THEN DO ;

     2322    41760
     2323    41761                 %INIT_LX_ETT_ITEM (@POINTER = TEMP$,
     2324    41762                                    @TYPE = %TYD) ;

  41764 25 012610   200420 473500                    LDP3    @TEMP$,,AUTO
        25 012611   300000 474500                    LDP4    0,,PR3
        25 012612   000004 220003                    LDX0    4,DU
        25 012613   400000 740100                    STX0    0,,PR4

  41765 25 012614   300000 471500                    LDP1    0,,PR3
        25 012615   000000 221003                    LDX1    0,DU
        25 012616   100000 441100                    SXL1    0,,PR1

  41766 25 012617   300000 471500                    LDP1    0,,PR3
        25 012620   100004 450100                    STZ     4,,PR1

  41767 25 012621   300000 471500                    LDP1    0,,PR3
        25 012622   000005 236000 26                 LDQ     5
        25 012623   100007 756100                    STQ     7,,PR1

  41768 25 012624   300000 471500                    LDP1    0,,PR3
        25 012625   100001 756100                    STQ     1,,PR1

  41769 25 012626   300000 471500                    LDP1    0,,PR3
        25 012627   000005 236000 26                 LDQ     5
        25 012630   100002 756100                    STQ     2,,PR1
PL6.E3A0      #001=Z8EA$INSPECT_1 File=Z8EA.:Z8A6TSI                             SAT 08/09/97 11:39 Page:380

  41771 25 012631   300000 471500                    LDP1    0,,PR3
        25 012632   000133 235000 xsym               LDA     COMCOM+91
        25 012633   100005 755100                    STA     5,,PR1

  41772 25 012634   300000 471500                    LDP1    0,,PR3
        25 012635   000134 235000 xsym               LDA     COMCOM+92
        25 012636   100006 755100                    STA     6,,PR1

     2325    41784    3            CALL Z8AT$CREATE_TEMP_WITH_BASE (%SCALAR, BASE$) ;

  41784 25 012637   200421 631500                    EPPR1   BASE$,,AUTO
        25 012640   200553 451500                    STP1    LENGTH_ID4$+3,,AUTO
        25 012641   000026 236000 26                 LDQ     22
        25 012642   200552 756100                    STQ     LENGTH_ID4$+2,,AUTO
        25 012643   200552 630500                    EPPR0   LENGTH_ID4$+2,,AUTO
        25 012644   000000 631400 26                 EPPR1   0
        25 012645   000000 701000 xent               TSX1    Z8AT$CREATE_TEMP_WITH_BASE
        25 012646   000000 011000                    NOP     0

     2326    41785    3            TEMP$ -> LX_ETT_ITEM.ETT$ = BASE$ ;

  41785 25 012647   200420 470500                    LDP0    @TEMP$,,AUTO
        25 012650   000000 471500                    LDP1    0,,PR0
        25 012651   200421 236100                    LDQ     BASE$,,AUTO
        25 012652   100001 756100                    STQ     1,,PR1

     2327    41786    3            BASE$ -> ETT.LOP -> ST.TYPE = %TYD ;

  41786 25 012653   200421 471500                    LDP1    BASE$,,AUTO
        25 012654   100001 473500                    LDP3    1,,PR1
        25 012655   000000 220003                    LDX0    0,DU
        25 012656   300002 740100                    STX0    2,,PR3

     2328    41787
     2329    41788    3            CALL Z8AU$TYPE_DESCRIPTOR (ID$ -> LX_ETT_ITEM.ETT$, TYPE_DESC) ;

PL6.E3A0      #001=Z8EA$INSPECT_1 File=Z8EA.:Z8A6TSI                             SAT 08/09/97 11:39 Page:381
  41788 25 012657   200417 471500                    LDP1    @ID$,,AUTO
        25 012660   100000 473500                    LDP3    0,,PR1
        25 012661   200422 634500                    EPPR4   TYPE_DESC,,AUTO
        25 012662   200553 454500                    STP4    LENGTH_ID4$+3,,AUTO
        25 012663   300001 635500                    EPPR5   1,,PR3
        25 012664   200552 455500                    STP5    LENGTH_ID4$+2,,AUTO
        25 012665   200552 630500                    EPPR0   LENGTH_ID4$+2,,AUTO
        25 012666   000000 631400 26                 EPPR1   0
        25 012667   000000 701000 xent               TSX1    Z8AU$TYPE_DESCRIPTOR
        25 012670   000000 011000                    NOP     0

     2330    41789    3            BASE$ -> ETT.LOP -> ST.DESCL  = TYPE_DESC.DESC.DESCL ;

  41789 25 012671   200421 470500                    LDP0    BASE$,,AUTO
        25 012672   000001 471500                    LDP1    1,,PR0
        25 012673   200423 720100                    LXL0    LONG_CONST+1,,AUTO
        25 012674   100001 440100                    SXL0    1,,PR1

     2331    41790    3            BASE$ -> ETT.LOP -> ST.ADSC.CN = 0 ; /*#34773*/

  41790 25 012675   200421 470500                    LDP0    BASE$,,AUTO
        25 012676   000001 471500                    LDP1    1,,PR0
        25 012677   000101 236000 26                 LDQ     65
        25 012700   100001 356100                    ANSQ    1,,PR1

     2332    41791    3            BASE$ -> ETT.LOP -> ST.ADSC.N = TYPE_DESC.DESC.ADSC.N + 1 ;

  41791 25 012701   200421 470500                    LDP0    BASE$,,AUTO
        25 012702   000001 471500                    LDP1    1,,PR0
        25 012703   200423 236100                    LDQ     LONG_CONST+1,,AUTO
        25 012704   007777 376007                    ANQ     4095,DL
        25 012705   000001 036007                    ADLQ    1,DL
        25 012706   100001 752103                    STCQ    1,'03'O,PR1

     2333    41792
     2334    41793    3            CALL Z8E7$MOVE (TEMP$, ID$) ; /* TYD = TYO */

PL6.E3A0      #001=Z8EA$INSPECT_1 File=Z8EA.:Z8A6TSI                             SAT 08/09/97 11:39 Page:382
  41793 25 012707   200417 236100                    LDQ     @ID$,,AUTO
        25 012710   200420 235100                    LDA     @TEMP$,,AUTO
        25 012711   200552 757100                    STAQ    LENGTH_ID4$+2,,AUTO
        25 012712   200552 630500                    EPPR0   LENGTH_ID4$+2,,AUTO
        25 012713   000000 631400 26                 EPPR1   0
        25 012714   000000 701000 xent               TSX1    Z8E7$MOVE
        25 012715   000000 011000                    NOP     0

     2335    41794
     2336    41795                 /* Create Conversion Move to be linked in later */
     2337    41796
     2338    41797    3            SAVED_ILS_LIST = O1COM.ILS_LIST ;

  41797 25 012716   000100 100400                    MLR     fill='000'O
        25 012717   000016 000040 xsym               ADSC9   O1COM+14                 cn=0,n=32
        25 012720   200366 000040                    ADSC9   SAVED_ILS_LIST,,AUTO     cn=0,n=32

     2339    41798    3            O1COM.ILS_LIST = CONVERSION_ILS_LIST ;

  41798 25 012721   000000 100500                    MLR     fill='000'O
        25 012722   200406 000040                    ADSC9   CONVERSION_ILS_LIST,,AUTO cn=0,n=32
        25 012723   000016 000040 xsym               ADSC9   O1COM+14                 cn=0,n=32

     2340    41799
     2341    41800    3            CALL Z8E7$MOVE (ID$, TEMP$) ; /* TYO = TYD */

  41800 25 012724   200417 630500                    EPPR0   @ID$,,AUTO
        25 012725   000000 631400 26                 EPPR1   0
        25 012726   000000 701000 xent               TSX1    Z8E7$MOVE
        25 012727   000000 011000                    NOP     0

     2342    41801
     2343    41802    3            CONVERSION_ILS_LIST = O1COM.ILS_LIST ;

  41802 25 012730   000100 100400                    MLR     fill='000'O
        25 012731   000016 000040 xsym               ADSC9   O1COM+14                 cn=0,n=32
        25 012732   200406 000040                    ADSC9   CONVERSION_ILS_LIST,,AUTO cn=0,n=32
PL6.E3A0      #001=Z8EA$INSPECT_1 File=Z8EA.:Z8A6TSI                             SAT 08/09/97 11:39 Page:383

     2344    41803    3            O1COM.ILS_LIST = SAVED_ILS_LIST ;

  41803 25 012733   000000 100500                    MLR     fill='000'O
        25 012734   200366 000040                    ADSC9   SAVED_ILS_LIST,,AUTO     cn=0,n=32
        25 012735   000016 000040 xsym               ADSC9   O1COM+14                 cn=0,n=32

     2345    41804
     2346    41805    3            CALL Z8EV$CONVERT_TYA (TEMP$, TEMP$, ID1$) ; /* Convert to Alpha */

  41805 25 012736   200311 630500                    EPPR0   ID1$,,AUTO
        25 012737   200554 450500                    STP0    LENGTH_ID4$+4,,AUTO
        25 012740   200420 236100                    LDQ     @TEMP$,,AUTO
        25 012741   200420 235100                    LDA     @TEMP$,,AUTO
        25 012742   200552 757100                    STAQ    LENGTH_ID4$+2,,AUTO
        25 012743   200552 630500                    EPPR0   LENGTH_ID4$+2,,AUTO
        25 012744   000044 631400 26                 EPPR1   36
        25 012745   000000 701000 xent               TSX1    Z8EV$CONVERT_TYA
        25 012746   000000 011000                    NOP     0

     2347    41806
     2348    41807    4            DO CASE (ID$ -> LX_ETT_ITEM.TYPE) ;

  41807 25 012747   200417 470500                    LDP0    @ID$,,AUTO
        25 012750   000000 471500                    LDP1    0,,PR0
        25 012751   100004 235100                    LDA     4,,PR1
        25 012752   000024 115007                    CMPA    20,DL
        25 012753   012755 602005 25                 TNC     s:41807+6,AL
        25 012754   013024 710000 25                 TRA     s:41827
        25 012755   013011 710000 25                 TRA     s:41816
        25 012756   013011 710000 25                 TRA     s:41816
        25 012757   013011 710000 25                 TRA     s:41816
        25 012760   013001 710000 25                 TRA     s:41809
        25 012761   013011 710000 25                 TRA     s:41816
        25 012762   013011 710000 25                 TRA     s:41816
        25 012763   013011 710000 25                 TRA     s:41816
        25 012764   013011 710000 25                 TRA     s:41816
PL6.E3A0      #001=Z8EA$INSPECT_1 File=Z8EA.:Z8A6TSI                             SAT 08/09/97 11:39 Page:384
        25 012765   013011 710000 25                 TRA     s:41816
        25 012766   013011 710000 25                 TRA     s:41816
        25 012767   013011 710000 25                 TRA     s:41816
        25 012770   013004 710000 25                 TRA     s:41811
        25 012771   013011 710000 25                 TRA     s:41816
        25 012772   013011 710000 25                 TRA     s:41816
        25 012773   013011 710000 25                 TRA     s:41816
        25 012774   013011 710000 25                 TRA     s:41816
        25 012775   013011 710000 25                 TRA     s:41816
        25 012776   013011 710000 25                 TRA     s:41816
        25 012777   013011 710000 25                 TRA     s:41816
        25 013000   013007 710000 25                 TRA     s:41813

     2349    41808    4              CASE (%TYO) ;

     2350    41809    4                TYPE1 = %TYA ;

  41809 25 013001   000010 236007                    LDQ     8,DL
        25 013002   200355 756100                    STQ     TYPE1,,AUTO
        25 013003   013024 710000 25                 TRA     s:41827

     2351    41810    4              CASE (%TYF) ;

     2352    41811    4                TYPE1 = %TYE ;

  41811 25 013004   000006 236007                    LDQ     6,DL
        25 013005   200355 756100                    STQ     TYPE1,,AUTO
        25 013006   013024 710000 25                 TRA     s:41827

     2353    41812    4              CASE (%TYC) ;

     2354    41813    4                TYPE1 = %TYB ;

  41813 25 013007   000014 236007                    LDQ     12,DL
        25 013010   200355 756100                    STQ     TYPE1,,AUTO

     2355    41814    4            END ;
PL6.E3A0      #001=Z8EA$INSPECT_1 File=Z8EA.:Z8A6TSI                             SAT 08/09/97 11:39 Page:385

     2356    41815
     2357    41816    3          END ; /* ID$ is type overpunched (TYO) or GBCD or EBCDIC numeric */

  41816 25 013011   013024 710000 25                 TRA     s:41827

     2358    41817
     2359    41818    3          ELSE DO ; /* It ain't overpunched or GBCD or EBCDIC numeric */

     2360    41819
     2361    41820    3            TYPE1 = ID$ -> LX_ETT_ITEM.TYPE ;

  41820 25 013012   200355 755100                    STA     TYPE1,,AUTO

     2362    41821
     2363    41822    3            TEMP$ -> LX_ITEM = ID$ -> LX_ITEM ;

  41822 25 013013   200420 473500                    LDP3    @TEMP$,,AUTO
        25 013014   300000 474500                    LDP4    0,,PR3
        25 013015   000100 100500                    MLR     fill='000'O
        25 013016   100000 000040                    ADSC9   0,,PR1                   cn=0,n=32
        25 013017   400000 000040                    ADSC9   0,,PR4                   cn=0,n=32

     2364    41823    3            CALL VERIFY_ALPHA (TEMP$) ;

  41823 25 013020   200420 236100                    LDQ     @TEMP$,,AUTO
        25 013021   200471 756100                    STQ     LEN+3,,AUTO
        25 013022   013172 701000 25                 TSX1    VERIFY_ALPHA
        25 013023   000000 011000                    NOP     0

     2365    41824
     2366    41825    3          END ;

     2367    41826
     2368    41827    2   END VERIFY_ALPHA_DEF ;

  41827 25 013024   200416 221300                    LDX1  ! CONVERSION_ILS_LIST+8,,AUTO
PL6.E3A0      #001=Z8EA$INSPECT_1 File=Z8EA.:Z8A6TSI                             SAT 08/09/97 11:39 Page:386
        25 013025   000001 702211                    TSX2  ! 1,X1

     2369    41828
     2370    41829        %EJECT;
PL6.E3A0      #001=Z8EA$INSPECT_1 File=Z8EA.:Z8A6TSI                             SAT 08/09/97 11:39 Page:387
     2371    41830        /*====================*/
     2372    41831    1     VERIFY_ALPHA_REF_LEV: PROC (ID$) ;

  41831 25 013026   200462 741300       VERIFY_ALPH* STX1  ! LINK$+1,,AUTO

     2373    41832        /*====================*/
     2374    41833
     2375    41834        /*I*   NAME: VERIFY_ALPHA_REF_LEV
     2376    41835              INPUT: ID$ -- see VERIFY_ALPHA for details.
     2377    41836             OUTPUT: ID$ --  "     "      "   "     "
     2378    41837
     2379    41838        DESCRIPTION: This routine checks that ID$ is not a group
     2380    41839                     item after calling VERIFY_ALPHA.
     2381    41840                     Also if VERIFY_ALPHA_REF_LEV then it checks for high-level
     2382    41841                     features for level checking.
     2383    41842        */
     2384    41843
     2385    41844    2   DCL   ID$      PTR ;
     2386    41845    2   DCL   ETT$$    PTR;
     2387    41846    2   DCL   DNT$$    PTR;
     2388    41847    2   DCL   LEN      SBIN;
     2389    41848
     2390    41849    2          IF COMCOM.OB.FIPS.LEVEL >= %INT_LEV THEN

  41849 25 013027   000036 720000 xsym               LXL0    COMCOM+30
        25 013030   000002 100003                    CMPX0   2,DU
        25 013031   013115 604000 25                 TMI     s:41868

     2391    41850    3            DO;

     2392    41851    3              IF ID$ -> LX_ITEM.B.HIGH_LEV THEN

  41851 25 013032   200463 470500                    LDP0    @ID$,,AUTO
        25 013033   000000 471500                    LDP1    0,,PR0
        25 013034   100000 236100                    LDQ     0,,PR1
        25 013035   004000 316007                    CANQ    2048,DL
        25 013036   013044 600000 25                 TZE     s:41855
PL6.E3A0      #001=Z8EA$INSPECT_1 File=Z8EA.:Z8A6TSI                             SAT 08/09/97 11:39 Page:388

     2393    41852    3                INSPECT$ -> INSPECT_1_STMT.HIGH_LEV = TRUE;

  41852 25 013037   200003 473500                    LDP3    @INSPECT$,,AUTO
        25 013040   300000 474500                    LDP4    0,,PR3
        25 013041   400000 236007                    LDQ     -131072,DL
        25 013042   400000 256100                    ORSQ    0,,PR4
        25 013043   013115 710000 25                 TRA     s:41868

     2394    41853    3              ELSE
     2395    41854    4                DO;

     2396    41855    4                   IF ID$ -> LX_ITEM.ID = %LX_TERMINAL THEN

  41855 25 013044   100000 222100                    LDX2    0,,PR1
        25 013045   013064 601000 25                 TNZ     s:41862

     2397    41856    5                    DO;

     2398    41857    5                      CALL Z8EC$INTERNAL_STRING_REP (ID$, DNT$$);

  41857 25 013046   200465 633500                    EPPR3   DNT$$,,AUTO
        25 013047   200553 453500                    STP3    LENGTH_ID4$+3,,AUTO
        25 013050   200463 236100                    LDQ     @ID$,,AUTO
        25 013051   200552 756100                    STQ     LENGTH_ID4$+2,,AUTO
        25 013052   200552 630500                    EPPR0   LENGTH_ID4$+2,,AUTO
        25 013053   000000 631400 26                 EPPR1   0
        25 013054   000000 701000 xent               TSX1    Z8EC$INTERNAL_STRING_REP
        25 013055   000000 011000                    NOP     0

     2399    41858    5                      LEN = DNT$$ -> DNT.TEXT.LENGTH - 2;

  41858 25 013056   200465 470500                    LDP0    DNT$$,,AUTO
        25 013057   000004 236100                    LDQ     4,,PR0
        25 013060   000022 772000                    QRL     18
        25 013061   000002 136007                    SBLQ    2,DL
        25 013062   200466 756100                    STQ     LEN,,AUTO
PL6.E3A0      #001=Z8EA$INSPECT_1 File=Z8EA.:Z8A6TSI                             SAT 08/09/97 11:39 Page:389

     2400    41859    5                    END;

  41859 25 013063   013100 710000 25                 TRA     s:41865

     2401    41860    4                  ELSE
     2402    41861    5                    DO;

     2403    41862    5                      CALL Z8AU$LENGTH_ETT (ID$ -> LX_ETT_ITEM.ETT$, ETT$$);

  41862 25 013064   200464 633500                    EPPR3   ETT$$,,AUTO
        25 013065   200553 453500                    STP3    LENGTH_ID4$+3,,AUTO
        25 013066   100001 634500                    EPPR4   1,,PR1
        25 013067   200552 454500                    STP4    LENGTH_ID4$+2,,AUTO
        25 013070   200552 630500                    EPPR0   LENGTH_ID4$+2,,AUTO
        25 013071   000000 631400 26                 EPPR1   0
        25 013072   000000 701000 xent               TSX1    Z8AU$LENGTH_ETT
        25 013073   000000 011000                    NOP     0

     2404    41863    5                      LEN = ETT$$ -> ETT.LOP -> CONST.CONSTI.WORD1;

  41863 25 013074   200464 470500                    LDP0    ETT$$,,AUTO
        25 013075   000001 471500                    LDP1    1,,PR0
        25 013076   100010 235100                    LDA     8,,PR1
        25 013077   200466 755100                    STA     LEN,,AUTO

     2405    41864    5                    END;

     2406    41865    4                  IF LEN > 1 AND (LEN > 2 OR ID1$ -> LX_ETT_ITEM.TYPE ~= %TYN) THEN

  41865 25 013100   200466 235100                    LDA     LEN,,AUTO
        25 013101   000001 115007                    CMPA    1,DL
        25 013102   013115 604400 25                 TMOZ    s:41868
        25 013103   000002 115007                    CMPA    2,DL
        25 013104   013111 605400 25                 TPNZ    s:41866
        25 013105   200311 470500                    LDP0    ID1$,,AUTO
        25 013106   000004 235100                    LDA     4,,PR0
PL6.E3A0      #001=Z8EA$INSPECT_1 File=Z8EA.:Z8A6TSI                             SAT 08/09/97 11:39 Page:390
        25 013107   000016 115007                    CMPA    14,DL
        25 013110   013115 600000 25                 TZE     s:41868

     2407    41866    4                    INSPECT$ -> INSPECT_1_STMT.HIGH_LEV = TRUE;

  41866 25 013111   200003 470500                    LDP0    @INSPECT$,,AUTO
        25 013112   000000 471500                    LDP1    0,,PR0
        25 013113   400000 236007                    LDQ     -131072,DL
        25 013114   100000 256100                    ORSQ    0,,PR1

     2408    41867    4                END;

     2409    41868    3            END; /* LEVEL >= %INT_LEV */

  41868 25 013115   013117 710000 25                 TRA     s:41874

     2410    41869
     2411    41870        /*================*/
     2412    41871    2     VERIFY_ALPHA_REF: ENTRY (ID$);

  41871 25 013116   200462 741300       VERIFY_ALPH* STX1  ! LINK$+1,,AUTO

     2413    41872        /*================*/
     2414    41873
     2415    41874    2          CALL VERIFY_ALPHA (ID$) ;

  41874 25 013117   200463 236100                    LDQ     @ID$,,AUTO
        25 013120   200471 756100                    STQ     LEN+3,,AUTO
        25 013121   013172 701000 25                 TSX1    VERIFY_ALPHA
        25 013122   000000 011000                    NOP     0

     2416    41875
     2417    41876    3          IF ID$ -> LX_ETT_ITEM.B.ERROR = '0'B THEN DO ;

  41876 25 013123   200463 470500                    LDP0    @ID$,,AUTO
        25 013124   000000 471500                    LDP1    0,,PR0
        25 013125   100000 236100                    LDQ     0,,PR1
PL6.E3A0      #001=Z8EA$INSPECT_1 File=Z8EA.:Z8A6TSI                             SAT 08/09/97 11:39 Page:391
        25 013126   400000 316007                    CANQ    -131072,DL
        25 013127   013170 601000 25                 TNZ     s:41898

     2418    41877
     2419    41878                 %FISH (TRIAD = ID$ -> LX_ETT_ITEM.ETT$, RTN = ST$) ;

  41880 25 013130   100001 236100                    LDQ     1,,PR1
        25 013131   000000 756000 5                  STQ     ST$

  41881 25 013132   000000 471400 5                  LDP1    ST$
        25 013133   100000 220100                    LDX0    0,,PR1
        25 013134   000751 100003                    CMPX0   489,DU
        25 013135   013145 603000 25                 TRC     s:41887

  41882 25 013136   000000 470400 5                  LDP0    ST$
        25 013137   000001 236100                    LDQ     1,,PR0
        25 013140   000000 756000 5                  STQ     ST$

  41883 25 013141   000000 470400 5                  LDP0    ST$
        25 013142   000000 220100                    LDX0    0,,PR0
        25 013143   000751 100003                    CMPX0   489,DU
        25 013144   013136 602000 25                 TNC     s:41882

     2420    41886
     2421    41887    3            IF ST$ -> SCALAR.B.ELEMENTARY

  41887 25 013145   000000 470400 5                  LDP0    ST$
        25 013146   000003 236100                    LDQ     3,,PR0
        25 013147   010000 316003                    CANQ    4096,DU
        25 013150   013170 601000 25                 TNZ     s:41898
        25 013151   000000 220100                    LDX0    0,,PR0
        25 013152   000767 100003                    CMPX0   503,DU
        25 013153   013170 600000 25                 TZE     s:41898

     2422    41888    3            OR ST$ -> ST.ID = %CONST
     2423    41889    3            THEN ; /* No error */
     2424    41890    4            ELSE DO ; /* Error */
PL6.E3A0      #001=Z8EA$INSPECT_1 File=Z8EA.:Z8A6TSI                             SAT 08/09/97 11:39 Page:392

     2425    41891    4              CALL Z8AE$ERROR (%E$MUST_BE_ELEMENTARY,

  41891 25 013154   200463 471500                    LDP1    @ID$,,AUTO
        25 013155   100000 473500                    LDP3    0,,PR1
        25 013156   300006 634500                    EPPR4   6,,PR3
        25 013157   200554 454500                    STP4    LENGTH_ID4$+4,,AUTO
        25 013160   300005 635500                    EPPR5   5,,PR3
        25 013161   200553 455500                    STP5    LENGTH_ID4$+3,,AUTO
        25 013162   000103 236000 26                 LDQ     67
        25 013163   200552 756100                    STQ     LENGTH_ID4$+2,,AUTO
        25 013164   200552 630500                    EPPR0   LENGTH_ID4$+2,,AUTO
        25 013165   000044 631400 26                 EPPR1   36
        25 013166   000000 701000 xent               TSX1    Z8AE$ERROR
        25 013167   000000 011000                    NOP     0

     2426    41892    4                               ID$ -> LX_ETT_ITEM.LINE,
     2427    41893    4                               ID$ -> LX_ETT_ITEM.COLUMN) ;
     2428    41894    4            END ; /* Not elementary and not a constant */

     2429    41895
     2430    41896    3          END ; /* ID$ is not an error recovery item */

     2431    41897
     2432    41898    2   END VERIFY_ALPHA_REF_LEV ;

  41898 25 013170   200462 221300                    LDX1  ! LINK$+1,,AUTO
        25 013171   000001 702211                    TSX2  ! 1,X1

     2433    41899        %EJECT;
PL6.E3A0      #001=Z8EA$INSPECT_1 File=Z8EA.:Z8A6TSI                             SAT 08/09/97 11:39 Page:393
     2434    41900        /*================*/
     2435    41901    1     VERIFY_ALPHA: PROC (ID$) ;

  41901 25 013172   200470 741300       VERIFY_ALPHA STX1  ! LEN+2,,AUTO

     2436    41902        /*================*/
     2437    41903
     2438    41904        /*I*   NAME: VERIFY_ALPHA
     2439    41905              INPUT: ID$ -- operand to verify and convert to TYA.
     2440    41906             OUTPUT: ID$ -- converted.
     2441    41907        DESCRIPTION: If the type of ID$ is not alphanumeric, then
     2442    41908                     convert it.  If it's not USAGE DISPLAY, then
     2443    41909                     issue a diagnostic.  If it's no-sign-DISPLAY
     2444    41910                     (eg, PIC 9999), then use the DNA triad.  If
     2445    41911                     it's trailing-sign-DISPLAY, then use a DNA and
     2446    41912                     a FISS.  If it's leading-sign-DISPLAY, use a
     2447    41913                     DNA, a FISS, and an OFF.
     2448    41914        */
     2449    41915
     2450    41916    2   DCL  ID$  PTR ;
     2451    41917
     2452    41918    2          CALL Z8CO$DISPL_CHECK (ID$)

  41918 25 013173   200471 630500                    EPPR0   @ID$,,AUTO
        25 013174   000041 631400 26                 EPPR1   33
        25 013175   000000 701000 xent               TSX1    Z8CO$DISPL_CHECK
        25 013176   013226 702000 25                 TSX2    s:41932

     2453    41919
     2454    41920    3          WHENRETURN DO ;

     2455    41921
     2456    41922    3            IF  INSPECT$-> INSPECT_1_STMT.KEY_WORD$->

  41922 25 013177   200003 470500                    LDP0    @INSPECT$,,AUTO
        25 013200   000000 471500                    LDP1    0,,PR0
        25 013201   100001 473500                    LDP3    1,,PR1
PL6.E3A0      #001=Z8EA$INSPECT_1 File=Z8EA.:Z8A6TSI                             SAT 08/09/97 11:39 Page:394
        25 013202   300003 235100                    LDA     3,,PR3
        25 013203   000375 115007                    CMPA    253,DL
        25 013204   013225 601000 25                 TNZ     s:41928
        25 013205   200471 474500                    LDP4    @ID$,,AUTO
        25 013206   400000 475500                    LDP5    0,,PR4
        25 013207   500004 235100                    LDA     4,,PR5
        25 013210   000016 115007                    CMPA    14,DL
        25 013211   013225 600000 25                 TZE     s:41928
        25 013212   000010 115007                    CMPA    8,DL
        25 013213   013225 600000 25                 TZE     s:41928

     2457    41923    3                LX_TERMINAL.SYMBOL = %RSV_WRD_INSPECT
     2458    41924    3            AND ID$ -> LX_ETT_ITEM.TYPE ~= %TYN
     2459    41925    3            AND ID$ -> LX_ETT_ITEM.TYPE ~= %TYA THEN
     2460    41926    3              CALL Z8EV$CONVERT_TYA (ID$, ID$, ID1$) ;

  41926 25 013214   200311 636500                    EPPR6   ID1$,,AUTO
        25 013215   200554 456500                    STP6    LENGTH_ID4$+4,,AUTO
        25 013216   200471 236100                    LDQ     @ID$,,AUTO
        25 013217   200471 235100                    LDA     @ID$,,AUTO
        25 013220   200552 757100                    STAQ    LENGTH_ID4$+2,,AUTO
        25 013221   200552 630500                    EPPR0   LENGTH_ID4$+2,,AUTO
        25 013222   000044 631400 26                 EPPR1   36
        25 013223   000000 701000 xent               TSX1    Z8EV$CONVERT_TYA
        25 013224   000000 011000                    NOP     0

     2461    41927
     2462    41928    3          END ;

  41928 25 013225   013227 710000 25                 TRA     s:41936

     2463    41929
     2464    41930    3          WHENALTRETURN DO ;

     2465    41931
     2466    41932    3            PRODUCE_INSPECT_ILS = FALSE ;

PL6.E3A0      #001=Z8EA$INSPECT_1 File=Z8EA.:Z8A6TSI                             SAT 08/09/97 11:39 Page:395
  41932 25 013226   200341 450100                    STZ     PRODUCE_INSPECT_ILS,,AUTO

     2467    41933
     2468    41934    3          END ;

     2469    41935
     2470    41936    2          RETURN ;

  41936 25 013227   200470 221300                    LDX1  ! LEN+2,,AUTO
        25 013230   000001 702211                    TSX2  ! 1,X1

     2471    41937
     2472    41938    2   END VERIFY_ALPHA ;
     2473    41939        %EJECT;
PL6.E3A0      #001=Z8EA$INSPECT_1 File=Z8EA.:Z8A6TSI                             SAT 08/09/97 11:39 Page:396
     2474    41940        /*-----------------*/
     2475    41941    1     EXAMINE_ID_CHECK:   PROC ( ID1$, ID2$ );

  41941 25 013231   200456 741300       EXAMINE_ID_* STX1  ! BEFORE_AFTER_TYPE+2,,AUTO

     2476    41942        /*-----------------*/
     2477    41943
     2478    41944    2       DCL ID1$           PTR;
     2479    41945    2       DCL ID2$           PTR;
     2480    41946    2       DCL LINK$          PTR;
     2481    41947
     2482    41948        /*V*         Convert_ID2
     2483    41949              If ID2 is %TYT then it must be converted to:
     2484    41950                 %TYA if it is an alphanumeric literal or figurative constant
     2485    41951                 %TYD if it is a numeric literal
     2486    41952        */
     2487    41953
     2488    41954    2       IF ID2$-> LX_ETT_ITEM.TYPE = %TYT THEN

  41954 25 013232   200460 470500                    LDP0    @ID2$,,AUTO
        25 013233   000000 471500                    LDP1    0,,PR0
        25 013234   100004 235100                    LDA     4,,PR1
        25 013235   000015 115007                    CMPA    13,DL
        25 013236   013275 601000 25                 TNZ     s:41970

     2489    41955    2         IF ID2$-> LX_TERMINAL.DNT$-> DNT.B.ALPHA_LITERAL

  41955 25 013237   100002 473500                    LDP3    2,,PR1
        25 013240   300003 236100                    LDQ     3,,PR3
        25 013241   004000 316003                    CANQ    2048,DU
        25 013242   013245 601000 25                 TNZ     s:41957
        25 013243   002000 316003                    CANQ    1024,DU
        25 013244   013257 600000 25                 TZE     s:41960

     2490    41956    2         OR ID2$-> LX_TERMINAL.DNT$-> DNT.B.FIGURATIVE_CONSTANT  THEN
     2491    41957    2           CALL Z8EV$CONVERT_TYA (ID2$, ID2$, ID1$) ;

PL6.E3A0      #001=Z8EA$INSPECT_1 File=Z8EA.:Z8A6TSI                             SAT 08/09/97 11:39 Page:397
  41957 25 013245   200457 236100                    LDQ     @ID1$,,AUTO
        25 013246   200554 756100                    STQ     LENGTH_ID4$+4,,AUTO
        25 013247   200460 236100                    LDQ     @ID2$,,AUTO
        25 013250   200460 235100                    LDA     @ID2$,,AUTO
        25 013251   200552 757100                    STAQ    LENGTH_ID4$+2,,AUTO
        25 013252   200552 630500                    EPPR0   LENGTH_ID4$+2,,AUTO
        25 013253   000044 631400 26                 EPPR1   36
        25 013254   000000 701000 xent               TSX1    Z8EV$CONVERT_TYA
        25 013255   000000 011000                    NOP     0
        25 013256   013275 710000 25                 TRA     s:41970

     2492    41958    2         ELSE
     2493    41959    3           DO;

     2494    41960    3             LINK$ = ID2$ -> LX_TERMINAL.LINK;

  41960 25 013257   100007 236100                    LDQ     7,,PR1
        25 013260   200461 756100                    STQ     LINK$,,AUTO

     2495    41961    3             CALL Z8EV$CONVERT( %TYD, ID2$, ID2$ );

  41961 25 013261   200460 236100                    LDQ     @ID2$,,AUTO
        25 013262   200554 756100                    STQ     LENGTH_ID4$+4,,AUTO
        25 013263   000013 235000 26                 LDA     11
        25 013264   200552 757100                    STAQ    LENGTH_ID4$+2,,AUTO
        25 013265   200552 630500                    EPPR0   LENGTH_ID4$+2,,AUTO
        25 013266   000044 631400 26                 EPPR1   36
        25 013267   000000 701000 xent               TSX1    Z8EV$CONVERT
        25 013270   000000 011000                    NOP     0

     2496    41962    3             ID2$ -> LX_TERMINAL.LINK = LINK$;

  41962 25 013271   200460 470500                    LDP0    @ID2$,,AUTO
        25 013272   000000 471500                    LDP1    0,,PR0
        25 013273   200461 236100                    LDQ     LINK$,,AUTO
        25 013274   100007 756100                    STQ     7,,PR1

PL6.E3A0      #001=Z8EA$INSPECT_1 File=Z8EA.:Z8A6TSI                             SAT 08/09/97 11:39 Page:398
     2497    41963    3           END;

     2498    41964
     2499    41965        /*V*          Compare_Types_ID1_ID2
     2500    41966              Id1 and Id2 must both be alphanumeric or they must both
     2501    41967              be numeric and regardless of type must be usage display.
     2502    41968        */
     2503    41969
     2504    41970    3       DO CASE ( ID1_ORIG_TYPE );

  41970 25 013275   200310 235100                    LDA     ID1_ORIG_TYPE,,AUTO
        25 013276   000006 135007                    SBLA    6,DL
        25 013277   000011 115007                    CMPA    9,DL
        25 013300   013302 602005 25                 TNC     s:41970+5,AL
        25 013301   013353 710000 25                 TRA     s:41989
        25 013302   013313 710000 25                 TRA     s:41974
        25 013303   013353 710000 25                 TRA     s:41989
        25 013304   013313 710000 25                 TRA     s:41974
        25 013305   013353 710000 25                 TRA     s:41989
        25 013306   013353 710000 25                 TRA     s:41989
        25 013307   013353 710000 25                 TRA     s:41989
        25 013310   013313 710000 25                 TRA     s:41974
        25 013311   013353 710000 25                 TRA     s:41989
        25 013312   013313 710000 25                 TRA     s:41974

     2505    41971
     2506    41972    3         CASE (%TYA, %TYN, %TYE, %TYB) ;

     2507    41973
     2508    41974    4           DO CASE ( ID2$-> LX_ETT_ITEM.TYPE );

  41974 25 013313   200460 470500                    LDP0    @ID2$,,AUTO
        25 013314   000000 471500                    LDP1    0,,PR0
        25 013315   100004 235100                    LDA     4,,PR1
        25 013316   000006 135007                    SBLA    6,DL
        25 013317   000011 115007                    CMPA    9,DL
        25 013320   013322 602005 25                 TNC     s:41974+7,AL
PL6.E3A0      #001=Z8EA$INSPECT_1 File=Z8EA.:Z8A6TSI                             SAT 08/09/97 11:39 Page:399
        25 013321   013340 710000 25                 TRA     s:41982
        25 013322   013333 710000 25                 TRA     s:41978
        25 013323   013340 710000 25                 TRA     s:41982
        25 013324   013333 710000 25                 TRA     s:41978
        25 013325   013340 710000 25                 TRA     s:41982
        25 013326   013340 710000 25                 TRA     s:41982
        25 013327   013340 710000 25                 TRA     s:41982
        25 013330   013333 710000 25                 TRA     s:41978
        25 013331   013340 710000 25                 TRA     s:41982
        25 013332   013333 710000 25                 TRA     s:41978

     2509    41975
     2510    41976    4             CASE (%TYA, %TYN, %TYE, %TYB) ;

     2511    41977
     2512    41978    4               CALL VERIFY_ALPHA_REF ( ID2$ );

  41978 25 013333   200460 236100                    LDQ     @ID2$,,AUTO
        25 013334   200463 756100                    STQ     @ID$,,AUTO
        25 013335   013116 701000 25                 TSX1    VERIFY_ALPHA_REF
        25 013336   000000 011000                    NOP     0
        25 013337   013421 710000 25                 TRA     s:42038

     2513    41979
     2514    41980    4             CASE( ELSE );

     2515    41981
     2516    41982    4               CALL Z8AE$ERROR ( %E$ALPHANUMERIC_TYPE_EXPECTED,

  41982 25 013340   100006 633500                    EPPR3   6,,PR1
        25 013341   200554 453500                    STP3    LENGTH_ID4$+4,,AUTO
        25 013342   100005 634500                    EPPR4   5,,PR1
        25 013343   200553 454500                    STP4    LENGTH_ID4$+3,,AUTO
        25 013344   000105 236000 26                 LDQ     69
        25 013345   200552 756100                    STQ     LENGTH_ID4$+2,,AUTO
        25 013346   200552 630500                    EPPR0   LENGTH_ID4$+2,,AUTO
        25 013347   000044 631400 26                 EPPR1   36
PL6.E3A0      #001=Z8EA$INSPECT_1 File=Z8EA.:Z8A6TSI                             SAT 08/09/97 11:39 Page:400
        25 013350   000000 701000 xent               TSX1    Z8AE$ERROR
        25 013351   000000 011000                    NOP     0

     2517    41983    4                                 ID2$-> LX_ITEM.LINE,
     2518    41984    4                                 ID2$-> LX_ITEM.COLUMN );
     2519    41985    4           END; /* case id2 type */

  41985 25 013352   013421 710000 25                 TRA     s:42038

     2520    41986
     2521    41987    3         CASE( ELSE );

     2522    41988
     2523    41989    4           DO CASE ( ID2$-> LX_ETT_ITEM.TYPE );

  41989 25 013353   200460 470500                    LDP0    @ID2$,,AUTO
        25 013354   000000 471500                    LDP1    0,,PR0
        25 013355   100004 235100                    LDA     4,,PR1
        25 013356   000006 135007                    SBLA    6,DL
        25 013357   000011 115007                    CMPA    9,DL
        25 013360   013362 602005 25                 TNC     s:41989+7,AL
        25 013361   013415 710000 25                 TRA     s:42028
        25 013362   013373 710000 25                 TRA     s:42006
        25 013363   013415 710000 25                 TRA     s:42028
        25 013364   013373 710000 25                 TRA     s:42006
        25 013365   013415 710000 25                 TRA     s:42028
        25 013366   013415 710000 25                 TRA     s:42028
        25 013367   013415 710000 25                 TRA     s:42028
        25 013370   013373 710000 25                 TRA     s:42006
        25 013371   013415 710000 25                 TRA     s:42028
        25 013372   013373 710000 25                 TRA     s:42006

     2524    41990
     2525    41991    4              CASE (%TYA, %TYN, %TYE, %TYB) ;

     2526    41992
     2527    41993                     %CONDITIONAL_ERROR (@LX_ITEM$ = ID2$,
PL6.E3A0      #001=Z8EA$INSPECT_1 File=Z8EA.:Z8A6TSI                             SAT 08/09/97 11:39 Page:401
     2528    41994                                         @ERROR#   = %E$NUMERIC_TYPE_EXPECTED,
     2529    41995                                         @LINE     = "ID2$-> LX_ITEM.LINE",
     2530    41996                                         @COLUMN   = "ID2$-> LX_ITEM.COLUMN" );

  42006 25 013373   100000 236100                    LDQ     0,,PR1
        25 013374   400000 316007                    CANQ    -131072,DL
        25 013375   013421 601000 25                 TNZ     s:42038

  42008 25 013376   100006 633500                    EPPR3   6,,PR1
        25 013377   200554 453500                    STP3    LENGTH_ID4$+4,,AUTO
        25 013400   100005 634500                    EPPR4   5,,PR1
        25 013401   200553 454500                    STP4    LENGTH_ID4$+3,,AUTO
        25 013402   000107 236000 26                 LDQ     71
        25 013403   200552 756100                    STQ     LENGTH_ID4$+2,,AUTO
        25 013404   200552 630500                    EPPR0   LENGTH_ID4$+2,,AUTO
        25 013405   000044 631400 26                 EPPR1   36
        25 013406   000000 701000 xent               TSX1    Z8AE$ERROR
        25 013407   000000 011000                    NOP     0

  42017 25 013410   200460 470500                    LDP0    @ID2$,,AUTO
        25 013411   000000 471500                    LDP1    0,,PR0
        25 013412   400000 236007                    LDQ     -131072,DL
        25 013413   100000 256100                    ORSQ    0,,PR1

  42024 25 013414   013421 710000 25                 TRA     s:42038

     2531    42026    4              CASE( ELSE );

     2532    42027
     2533    42028    4                CALL Z8CO$DISPL_CHECK ( ID2$ );

  42028 25 013415   200460 630500                    EPPR0   @ID2$,,AUTO
        25 013416   000041 631400 26                 EPPR1   33
        25 013417   000000 701000 xent               TSX1    Z8CO$DISPL_CHECK
        25 013420   000000 011000                    NOP     0

     2534    42029
PL6.E3A0      #001=Z8EA$INSPECT_1 File=Z8EA.:Z8A6TSI                             SAT 08/09/97 11:39 Page:402
     2535    42030    4            END; /* case id2 type */

     2536    42031    3        END; /* case id1 type */

     2537    42032
     2538    42033
     2539    42034
     2540    42035        /*V*         Id2_Length_Check
     2541    42036             Length check: id2 should be 1 byte long.
     2542    42037        */
     2543    42038    2       CALL Z8AU$TYPE_DESCRIPTOR( ID2$-> LX_ETT_ITEM.ETT$, ID3_DESC );

  42038 25 013421   200460 470500                    LDP0    @ID2$,,AUTO
        25 013422   000000 471500                    LDP1    0,,PR0
        25 013423   200356 633500                    EPPR3   ID3_DESC,,AUTO
        25 013424   200553 453500                    STP3    LENGTH_ID4$+3,,AUTO
        25 013425   100001 634500                    EPPR4   1,,PR1
        25 013426   200552 454500                    STP4    LENGTH_ID4$+2,,AUTO
        25 013427   200552 630500                    EPPR0   LENGTH_ID4$+2,,AUTO
        25 013430   000000 631400 26                 EPPR1   0
        25 013431   000000 701000 xent               TSX1    Z8AU$TYPE_DESCRIPTOR
        25 013432   000000 011000                    NOP     0

     2544    42039    2       IF  ID1$ -> LX_ITEM.TYPE ~= %TYN

  42039 25 013433   200457 470500                    LDP0    @ID1$,,AUTO
        25 013434   000000 471500                    LDP1    0,,PR0
        25 013435   100004 235100                    LDA     4,,PR1
        25 013436   000016 115007                    CMPA    14,DL
        25 013437   013460 600000 25                 TZE     s:42045
        25 013440   200357 236100                    LDQ     ID3_DESC+1,,AUTO
        25 013441   007777 376007                    ANQ     4095,DL
        25 013442   000002 116007                    CMPQ    2,DL
        25 013443   013460 602000 25                 TNC     s:42045

     2545    42040    2       AND ID3_DESC.DESC.ADSC.N > 1 THEN
     2546    42041    2         CALL Z8AE$ERROR ( %E$EXAMINE_NOT_1_BYTE,
PL6.E3A0      #001=Z8EA$INSPECT_1 File=Z8EA.:Z8A6TSI                             SAT 08/09/97 11:39 Page:403

  42041 25 013444   200460 473500                    LDP3    @ID2$,,AUTO
        25 013445   300000 474500                    LDP4    0,,PR3
        25 013446   400006 635500                    EPPR5   6,,PR4
        25 013447   200554 455500                    STP5    LENGTH_ID4$+4,,AUTO
        25 013450   400005 631500                    EPPR1   5,,PR4
        25 013451   200553 451500                    STP1    LENGTH_ID4$+3,,AUTO
        25 013452   000111 236000 26                 LDQ     73
        25 013453   200552 756100                    STQ     LENGTH_ID4$+2,,AUTO
        25 013454   200552 630500                    EPPR0   LENGTH_ID4$+2,,AUTO
        25 013455   000044 631400 26                 EPPR1   36
        25 013456   000000 701000 xent               TSX1    Z8AE$ERROR
        25 013457   000000 011000                    NOP     0

     2547    42042    2                           ID2$-> LX_ITEM.LINE,
     2548    42043    2                           ID2$-> LX_ITEM.COLUMN  );
     2549    42044
     2550    42045    2   END EXAMINE_ID_CHECK;   /* proc */

  42045 25 013460   200456 221300                    LDX1  ! BEFORE_AFTER_TYPE+2,,AUTO
        25 013461   000001 702211                    TSX2  ! 1,X1

     2551    42046        %EJECT ;
PL6.E3A0      #001=Z8EA$INSPECT_1 File=Z8EA.:Z8A6TSI                             SAT 08/09/97 11:39 Page:404
     2552    42047        /*------------------*/
     2553    42048    1     VERIFY_NUMERIC_ETT : PROC (ETT$);

  42048 25 013462   200422 741300       VERIFY_NUME* STX1  ! TYPE_DESC,,AUTO

     2554    42049        /*------------------*/
     2555    42050
     2556    42051        /*I*
     2557    42052                 NAME: VERIFY_NUMERIC_ETT
     2558    42053
     2559    42054          DESCRIPTION: A LX_ETT_ITEM is verified to be numeric.  If not,
     2560    42055                       an error message is issued. This routine was copied
     2561    42056                       from Z8EN except "CALL NUMERIC_ERROR" was changed to
     2562    42057                       "%CONDITIONAL_ERROR".
     2563    42058        */
     2564    42059
     2565    42060    2     DCL ETT$ PTR;
     2566    42061
     2567    42062    3          DO CASE (ETT$ -> LX_ETT_ITEM.TYPE);

  42062 25 013463   200423 470500                    LDP0    @ETT$,,AUTO
        25 013464   000000 471500                    LDP1    0,,PR0
        25 013465   100004 235100                    LDA     4,,PR1
        25 013466   000024 115007                    CMPA    20,DL
        25 013467   013471 602005 25                 TNC     s:42062+6,AL
        25 013470   013515 710000 25                 TRA     s:42087
        25 013471   013536 710000 25                 TRA     s:42110
        25 013472   013536 710000 25                 TRA     s:42110
        25 013473   013536 710000 25                 TRA     s:42110
        25 013474   013536 710000 25                 TRA     s:42110
        25 013475   013536 710000 25                 TRA     s:42110
        25 013476   013536 710000 25                 TRA     s:42110
        25 013477   013515 710000 25                 TRA     s:42087
        25 013500   013536 710000 25                 TRA     s:42110
        25 013501   013515 710000 25                 TRA     s:42087
        25 013502   013515 710000 25                 TRA     s:42087
        25 013503   013515 710000 25                 TRA     s:42087
PL6.E3A0      #001=Z8EA$INSPECT_1 File=Z8EA.:Z8A6TSI                             SAT 08/09/97 11:39 Page:405
        25 013504   013536 710000 25                 TRA     s:42110
        25 013505   013515 710000 25                 TRA     s:42087
        25 013506   013515 710000 25                 TRA     s:42087
        25 013507   013515 710000 25                 TRA     s:42087
        25 013510   013536 710000 25                 TRA     s:42110
        25 013511   013515 710000 25                 TRA     s:42087
        25 013512   013515 710000 25                 TRA     s:42087
        25 013513   013515 710000 25                 TRA     s:42087
        25 013514   013536 710000 25                 TRA     s:42110

     2568    42063
     2569    42064    3            CASE (

     2570    42065                        %SET_OF_NUMERIC_TYPES;
     2571    42068    3                 );
     2572    42069
     2573    42070                   /* OKAY */
     2574    42071
     2575    42072    3            CASE (ELSE);

     2576    42073
     2577    42074                   %CONDITIONAL_ERROR (@LX_ITEM$ = ETT$,
     2578    42075                                       @ERROR#   = %E$NUMERIC_TYPE_EXPECTED,
     2579    42076                                       @LINE     = "ETT$ -> LX_ETT_ITEM.LINE",
     2580    42077                                       @COLUMN   = "ETT$ -> LX_ETT_ITEM.COLUMN") ;

  42087 25 013515   100000 236100                    LDQ     0,,PR1
        25 013516   400000 316007                    CANQ    -131072,DL
        25 013517   013536 601000 25                 TNZ     s:42110

  42089 25 013520   100006 633500                    EPPR3   6,,PR1
        25 013521   200554 453500                    STP3    LENGTH_ID4$+4,,AUTO
        25 013522   100005 634500                    EPPR4   5,,PR1
        25 013523   200553 454500                    STP4    LENGTH_ID4$+3,,AUTO
        25 013524   000107 236000 26                 LDQ     71
        25 013525   200552 756100                    STQ     LENGTH_ID4$+2,,AUTO
        25 013526   200552 630500                    EPPR0   LENGTH_ID4$+2,,AUTO
PL6.E3A0      #001=Z8EA$INSPECT_1 File=Z8EA.:Z8A6TSI                             SAT 08/09/97 11:39 Page:406
        25 013527   000044 631400 26                 EPPR1   36
        25 013530   000000 701000 xent               TSX1    Z8AE$ERROR
        25 013531   000000 011000                    NOP     0

  42098 25 013532   200423 470500                    LDP0    @ETT$,,AUTO
        25 013533   000000 471500                    LDP1    0,,PR0
        25 013534   400000 236007                    LDQ     -131072,DL
        25 013535   100000 256100                    ORSQ    0,,PR1

     2581    42107
     2582    42108    3          END; /* Case of type */

     2583    42109
     2584    42110    2     END VERIFY_NUMERIC_ETT;

  42110 25 013536   200422 221300                    LDX1  ! TYPE_DESC,,AUTO
        25 013537   000001 702211                    TSX2  ! 1,X1

     2585    42111
     2586    42112        %EJECT;
PL6.E3A0      #001=Z8EA$INSPECT_1 File=Z8EA.:Z8A6TSI                             SAT 08/09/97 11:39 Page:407
     2587    42113        /*=================*/
     2588    42114    1     SCAN_BEFORE_AFTER: PROC (LX_ITEM$, LINK$, CLAUSE_TYPE, ID1$) ;

  42114 25 013540   200416 741300       SCAN_BEFORE* STX1  ! CONVERSION_ILS_LIST+8,,AUTO

     2589    42115        /*=================*/
     2590    42116
     2591    42117        /*I*   NAME: SCAN_BEFORE_AFTER
     2592    42118
     2593    42119              INPUT: LX_ITEM$ -- (1) LX_TERMINAL (EMPTY),
     2594    42120                                 (2) LX_LIST (COUNT=1) [BEFORE or AFTER],
     2595    42121                              or (3) LX_LIST (COUNT=2) [BEFORE and AFTER].
     2596    42122
     2597    42123                     Each item below the initial LX_LIST looks like:
     2598    42124
     2599    42125                                    LX_LIST
     2600    42126                                   /       \
     2601    42127                          LX_TERMINAL      LX_ETT_ITEM
     2602    42128                      (BEFORE or AFTER)    (id-4)
     2603    42129
     2604    42130             OUTPUT: (1) A temp is created for each BEFORE/AFTER clause.
     2605    42131                     (2) An assignment statement is created to initialize
     2606    42132                         the temp:
     2607    42133                                    TEMP = INDEX (id-1, id-4)
     2608    42134
     2609    42135                     (3) The id-4 LX_ETT_ITEM is disposed, and replaced
     2610    42136                         by an LX_ETT_ITEM representing the temp.
     2611    42137
     2612    42138        DESCRIPTION: In addition to the tasks performed listed above
     2613    42139                     under "OUTPUT", the following is done:
     2614    42140
     2615    42141                     (1) If id-4 is not alphanumeric, it must be converted.
     2616    42142                     (2) If the clause type is LEADING or FIRST, and there
     2617    42143                         is no AFTER clause, then one must be simulated.
     2618    42144                         A temp will be created, and the following
     2619    42145                         assignment will be created:
     2620    42146                                                     Temp = 0
PL6.E3A0      #001=Z8EA$INSPECT_1 File=Z8EA.:Z8A6TSI                             SAT 08/09/97 11:39 Page:408
     2621    42147
     2622    42148                         An LX_ETT_ITEM will be created for "Temp" and
     2623    42149                         put in the LX_LIST tree (in place of "EMPTY"
     2624    42150                         if there is no BEFORE clause).
     2625    42151
     2626    42152        */
     2627    42153
     2628    42154        /* SCAN BEFORE/AFTER */
     2629    42155
     2630    42156    2   DCL AB$         PTR ;          /* AFTER or BEFORE Temp */
     2631    42157    2   DCL AFTER$      PTR ;          /* LX_ITEM or LX_LIST   */
     2632    42158    2   DCL BEFORE$     PTR ;          /* LX_ITEM or LX_LIST   */
     2633    42159    2   DCL CLAUSE_TYPE SBIN WORD ;    /* eg, %RSV_WRD_ALL     */
     2634    42160    2   DCL ID1$        PTR ;          /* LX_ETT_ITEM          */
     2635    42161    2   DCL ID4$        PTR ;          /* LX_ETT_ITEM          */
     2636    42162    2   DCL INDEX$      PTR ;          /* INDEX operation */
     2637    42163    2   DCL LINK$       PTR ;          /* USED IF "EMPTY" IF DISPOSED */
     2638    42164    2   DCL LX_ITEM$    PTR ;          /* LX_TERMINAL, LX_ETT_ITEM, LX_LIST */
     2639    42165    2   DCL LX_LIST$    PTR ;          /* LX_LIST for Before/After clause */
     2640    42166    2   DCL RESULT$     PTR ;          /* %OP_PLUS or %OP_BINARY_MINUS */
     2641    42167
     2642    42168    2   DCL Z8E5$MATH_PACK              ENTRY (2) ;
     2643    42169    2   DCL Z8E7$MOVE                   ENTRY (2) ;
     2644    42170    2   DCL Z8ED$DISPOSE_ABSSYN_TREE    ENTRY (1) ;
     2645    42171
     2646    42172        %DCL_AUTO_LX_ITEM (@NAME = INDEXX) ;
     2647    42176        %DCL_AUTO_LX_ITEM (@NAME = RESULT) ;
     2648    42180
     2649    42181        %EJECT;
PL6.E3A0      #001=Z8EA$INSPECT_1 File=Z8EA.:Z8A6TSI                             SAT 08/09/97 11:39 Page:409
     2650    42182               /* SCAN BEFORE/AFTER */
     2651    42183
     2652    42184    2          AFTER$ = ADDR(NIL) ;

  42184 25 013541   000005 236000 26                 LDQ     5
        25 013542   200424 756100                    STQ     AFTER$,,AUTO

     2653    42185    2          BEFORE$ = ADDR(NIL) ;

  42185 25 013543   200425 756100                    STQ     BEFORE$,,AUTO

     2654    42186    2          INDEX$ = ADDR (INDEXX) ;

  42186 25 013544   200432 630500                    EPPR0   INDEXX,,AUTO
        25 013545   200427 450500                    STP0    INDEX$,,AUTO

     2655    42187    2          RESULT$ = ADDR (RESULT) ;

  42187 25 013546   200442 631500                    EPPR1   RESULT,,AUTO
        25 013547   200431 451500                    STP1    RESULT$,,AUTO

     2656    42188
     2657    42189    3          IF LX_ITEM$ -> LX_ITEM.ID = %LX_TERMINAL THEN DO ; /* EMPTY */

  42189 25 013550   200417 473500                    LDP3    @LX_ITEM$,,AUTO
        25 013551   300000 474500                    LDP4    0,,PR3
        25 013552   400000 220100                    LDX0    0,,PR4
        25 013553   013604 601000 25                 TNZ     s:42206

     2658    42190
     2659    42191    3            IF CLAUSE_TYPE = %RSV_WRD_FIRST

  42191 25 013554   200421 475500                    LDP5    @CLAUSE_TYPE,,AUTO
        25 013555   500000 235100                    LDA     0,,PR5
        25 013556   000324 115007                    CMPA    212,DL
        25 013557   013562 600000 25                 TZE     s:42194
        25 013560   000415 115007                    CMPA    269,DL
PL6.E3A0      #001=Z8EA$INSPECT_1 File=Z8EA.:Z8A6TSI                             SAT 08/09/97 11:39 Page:410
        25 013561   013666 601000 25                 TNZ     s:42247

     2660    42192    4            OR CLAUSE_TYPE = %RSV_WRD_LEADING THEN DO ;

     2661    42193
     2662    42194    4              CALL CREATE_AFTER_LX_ETT_ITEM (AFTER$) ;

  42194 25 013562   200424 636500                    EPPR6   AFTER$,,AUTO
        25 013563   200453 456500                    STP6    RESULT+9,,AUTO
        25 013564   014623 701000 25                 TSX1    CREATE_AFTER_LX_ETT_ITEM
        25 013565   000000 011000                    NOP     0

     2663    42195    4              CALL Z8ED$DISPOSE_ABSSYN_TREE (LX_ITEM$) ;

  42195 25 013566   200417 630500                    EPPR0   @LX_ITEM$,,AUTO
        25 013567   000041 631400 26                 EPPR1   33
        25 013570   000000 701000 xent               TSX1    Z8ED$DISPOSE_ABSSYN_TREE
        25 013571   000000 011000                    NOP     0

     2664    42196    4              LX_ITEM$ = AFTER$ ;

  42196 25 013572   200424 236100                    LDQ     AFTER$,,AUTO
        25 013573   200417 470500                    LDP0    @LX_ITEM$,,AUTO
        25 013574   000000 756100                    STQ     0,,PR0

     2665    42197    4              IF LINK$ ~= ADDR(NIL)

  42197 25 013575   200420 471500                    LDP1    @LINK$,,AUTO
        25 013576   100000 236100                    LDQ     0,,PR1
        25 013577   000005 116000 26                 CMPQ    5
        25 013600   013666 600000 25                 TZE     s:42247

     2666    42198    4              THEN LINK$ = AFTER$ ;

  42198 25 013601   200424 236100                    LDQ     AFTER$,,AUTO
        25 013602   100000 756100                    STQ     0,,PR1

PL6.E3A0      #001=Z8EA$INSPECT_1 File=Z8EA.:Z8A6TSI                             SAT 08/09/97 11:39 Page:411
     2667    42199
     2668    42200    4            END ; /* FIRST or LEADING */

     2669    42201
     2670    42202    3          END ; /* Empty Before/After list */

  42202 25 013603   013666 710000 25                 TRA     s:42247

     2671    42203
     2672    42204    3          ELSE DO ; /* There are 1 or 2 Before/After Clauses */

     2673    42205
     2674    42206    3            LX_LIST$ = LX_ITEM$ -> LX_LIST.HEAD$ ;

  42206 25 013604   400004 236100                    LDQ     4,,PR4
        25 013605   200430 756100                    STQ     LX_LIST$,,AUTO

     2675    42207
     2676    42208    4            DO CASE (LX_LIST$ -> LX_LIST.ID) ;

  42208 25 013606   200430 474500                    LDP4    LX_LIST$,,AUTO
        25 013607   400000 220100                    LDX0    0,,PR4
        25 013610   000003 100003                    CMPX0   3,DU
        25 013611   013613 602010 25                 TNC     s:42208+5,X0
        25 013612   013636 710000 25                 TRA     s:42230
        25 013613   013616 710000 25                 TRA     s:42212
        25 013614   013636 710000 25                 TRA     s:42230
        25 013615   013623 710000 25                 TRA     s:42216

     2677    42209
     2678    42210    4              CASE (%LX_TERMINAL) ; /* Delete this case after Z8EF change */

     2679    42211
     2680    42212    4                CALL BEFORE_OR_AFTER_CLAUSE (LX_ITEM$) ;

  42212 25 013616   200417 236100                    LDQ     @LX_ITEM$,,AUTO
        25 013617   200453 756100                    STQ     RESULT+9,,AUTO
PL6.E3A0      #001=Z8EA$INSPECT_1 File=Z8EA.:Z8A6TSI                             SAT 08/09/97 11:39 Page:412
        25 013620   013670 701000 25                 TSX1    BEFORE_OR_AFTER_CLAUSE
        25 013621   000000 011000                    NOP     0
        25 013622   013636 710000 25                 TRA     s:42230

     2681    42213
     2682    42214    4              CASE (%LX_LIST) ;

     2683    42215
     2684    42216    5                DO WHILE (LX_LIST$ ~= ADDR(NIL)) ;

  42216 25 013623   013633 710000 25                 TRA     s:42222

     2685    42217
     2686    42218    5                  CALL BEFORE_OR_AFTER_CLAUSE (LX_LIST$) ;

  42218 25 013624   200430 630500                    EPPR0   LX_LIST$,,AUTO
        25 013625   200453 450500                    STP0    RESULT+9,,AUTO
        25 013626   013670 701000 25                 TSX1    BEFORE_OR_AFTER_CLAUSE
        25 013627   000000 011000                    NOP     0

     2687    42219
     2688    42220    5                  LX_LIST$ = LX_LIST$ -> LX_LIST.LINK ;

  42220 25 013630   200430 470500                    LDP0    LX_LIST$,,AUTO
        25 013631   000007 236100                    LDQ     7,,PR0
        25 013632   200430 756100                    STQ     LX_LIST$,,AUTO

     2689    42221
     2690    42222    5                END ; /* Do While LX_LIST$ <> Nil */

  42222 25 013633   000005 116000 26                 CMPQ    5
        25 013634   013624 601000 25                 TNZ     s:42218
        25 013635   013636 710000 25                 TRA     s:42230

     2691    42223
     2692    42224    4              CASE (ELSE) ;

PL6.E3A0      #001=Z8EA$INSPECT_1 File=Z8EA.:Z8A6TSI                             SAT 08/09/97 11:39 Page:413
     2693    42225
     2694    42226                     /*N* CALL Z8AE$ERROR (Unexpected Case) */
     2695    42227
     2696    42228    4            END ; /* Case of LX_LIST ID */

     2697    42229
     2698    42230    4            IF AFTER$ = ADDR(NIL) THEN DO ;

  42230 25 013636   200424 236100                    LDQ     AFTER$,,AUTO
        25 013637   000005 116000 26                 CMPQ    5
        25 013640   013666 601000 25                 TNZ     s:42247

     2699    42231
     2700    42232    4              IF CLAUSE_TYPE = %RSV_WRD_FIRST

  42232 25 013641   200421 470500                    LDP0    @CLAUSE_TYPE,,AUTO
        25 013642   000000 235100                    LDA     0,,PR0
        25 013643   000324 115007                    CMPA    212,DL
        25 013644   013647 600000 25                 TZE     s:42235
        25 013645   000415 115007                    CMPA    269,DL
        25 013646   013666 601000 25                 TNZ     s:42247

     2701    42233    5              OR CLAUSE_TYPE = %RSV_WRD_LEADING THEN DO ;

     2702    42234
     2703    42235    5                CALL CREATE_AFTER_LX_ETT_ITEM (AFTER$) ;

  42235 25 013647   200424 631500                    EPPR1   AFTER$,,AUTO
        25 013650   200453 451500                    STP1    RESULT+9,,AUTO
        25 013651   014623 701000 25                 TSX1    CREATE_AFTER_LX_ETT_ITEM
        25 013652   000000 011000                    NOP     0

     2704    42236
     2705    42237    5                LX_ITEM$ -> LX_LIST.COUNT = 2 ;

  42237 25 013653   200417 470500                    LDP0    @LX_ITEM$,,AUTO
        25 013654   000000 471500                    LDP1    0,,PR0
PL6.E3A0      #001=Z8EA$INSPECT_1 File=Z8EA.:Z8A6TSI                             SAT 08/09/97 11:39 Page:414
        25 013655   000002 235007                    LDA     2,DL
        25 013656   100002 755100                    STA     2,,PR1

     2706    42238    5                LX_ITEM$ -> LX_LIST.TAIL$ = AFTER$ ;

  42238 25 013657   000000 471500                    LDP1    0,,PR0
        25 013660   200424 236100                    LDQ     AFTER$,,AUTO
        25 013661   100001 756100                    STQ     1,,PR1

     2707    42239    5                LX_ITEM$ -> LX_LIST.HEAD$ -> LX_LIST.LINK = AFTER$ ;

  42239 25 013662   000000 471500                    LDP1    0,,PR0
        25 013663   100004 473500                    LDP3    4,,PR1
        25 013664   200424 236100                    LDQ     AFTER$,,AUTO
        25 013665   300007 756100                    STQ     7,,PR3

     2708    42240
     2709    42241    5              END ; /* FIRST or LEADING */

     2710    42242
     2711    42243    4            END ; /* AFTER$ = Nil */

     2712    42244
     2713    42245    3          END ; /* There's at least one Before/After clause */

     2714    42246
     2715    42247    2          RETURN ; /* SCAN_BEFORE_AFTER */

  42247 25 013666   200416 221300                    LDX1  ! CONVERSION_ILS_LIST+8,,AUTO
        25 013667   000001 702211                    TSX2  ! 1,X1

     2716    42248
     2717    42249        %EJECT;
PL6.E3A0      #001=Z8EA$INSPECT_1 File=Z8EA.:Z8A6TSI                             SAT 08/09/97 11:39 Page:415
     2718    42250        /*======================*/
     2719    42251    2     BEFORE_OR_AFTER_CLAUSE: PROC (LX_LIST$) ;

  42251 25 013670   200452 741300       BEFORE_OR_A* STX1  ! RESULT+8,,AUTO

     2720    42252        /*======================*/
     2721    42253
     2722    42254        /*I*   NAME: BEFORE_OR_AFTER_CLAUSE
     2723    42255
     2724    42256        DESCRIPTION: See comments for SCAN_BEFORE_AFTER.  This
     2725    42257                     routine handles one clause:
     2726    42258                       BEFORE$ = INDEX (id4B, id1)
     2727    42259                       AFTER$  = INDEX (id4A, id1) + length (id4A)
     2728    42260
     2729    42261              INPUT: LX_LIST$ -- An LX_LIST of (LX_TERMINAL & id4).
     2730    42262
     2731    42263        */
     2732    42264
     2733    42265    3   DCL  LX_LIST$  PTR ;
     2734    42266    3   DCL  BEFORE_AFTER_TYPE SBIN WORD ; /* %RSV_WRD_BEFORE OR AFTER */
     2735    42267
     2736    42268    3              BEFORE_AFTER_TYPE = LX_LIST$ -> LX_LIST.HEAD$ -> LX_TERMINAL.SYMBOL ;

  42268 25 013671   200453 470500                    LDP0    @LX_LIST$,,AUTO
        25 013672   000000 471500                    LDP1    0,,PR0
        25 013673   100004 473500                    LDP3    4,,PR1
        25 013674   300003 235100                    LDA     3,,PR3
        25 013675   200454 755100                    STA     BEFORE_AFTER_TYPE,,AUTO

     2737    42269
     2738    42270    3              ID4$ = LX_LIST$ -> LX_LIST.TAIL$ ;

  42270 25 013676   100001 236100                    LDQ     1,,PR1
        25 013677   200426 756100                    STQ     ID4$,,AUTO

     2739    42271    3              IF INSPECT$-> INSPECT_1_STMT.KEY_WORD$->

PL6.E3A0      #001=Z8EA$INSPECT_1 File=Z8EA.:Z8A6TSI                             SAT 08/09/97 11:39 Page:416
  42271 25 013700   200003 471500                    LDP1    @INSPECT$,,AUTO
        25 013701   100000 473500                    LDP3    0,,PR1
        25 013702   300001 474500                    LDP4    1,,PR3
        25 013703   400003 235100                    LDA     3,,PR4
        25 013704   000304 115007                    CMPA    196,DL
        25 013705   013715 601000 25                 TNZ     s:42275

     2740    42272    3                 LX_TERMINAL.SYMBOL = %RSV_WRD_EXAMINE  THEN
     2741    42273    3                CALL EXAMINE_ID_CHECK( ID1$, ID4$ );

  42273 25 013706   200426 635500                    EPPR5   ID4$,,AUTO
        25 013707   200460 455500                    STP5    @ID2$,,AUTO
        25 013710   200422 236100                    LDQ     @ID1$,,AUTO
        25 013711   200457 756100                    STQ     @ID1$,,AUTO
        25 013712   013231 701000 25                 TSX1    EXAMINE_ID_CHECK
        25 013713   000000 011000                    NOP     0
        25 013714   013721 710000 25                 TRA     s:42284

     2742    42274    3              ELSE
     2743    42275    3                CALL VERIFY_ALPHA_REF_LEV ( ID4$ );

  42275 25 013715   200426 635500                    EPPR5   ID4$,,AUTO
        25 013716   200463 455500                    STP5    @ID$,,AUTO
        25 013717   013026 701000 25                 TSX1    VERIFY_ALPHA_REF_LEV
        25 013720   000000 011000                    NOP     0

     2744    42276
     2745    42277                   %NEW (@TEMPLATE = LX_ETT_ITEM,
     2746    42278                         @POINTER  = AB$) ;

  42284 25 013721   000113 236000 26                 LDQ     75
        25 013722   200553 756100                    STQ     LENGTH_ID4$+3,,AUTO
        25 013723   200423 630500                    EPPR0   AB$,,AUTO
        25 013724   200552 450500                    STP0    LENGTH_ID4$+2,,AUTO
        25 013725   200552 630500                    EPPR0   LENGTH_ID4$+2,,AUTO
        25 013726   000000 631400 26                 EPPR1   0
        25 013727   000000 701000 xent               TSX1    Z8ED$NEW_HEAP
PL6.E3A0      #001=Z8EA$INSPECT_1 File=Z8EA.:Z8A6TSI                             SAT 08/09/97 11:39 Page:417
        25 013730   000000 011000                    NOP     0

     2747    42288
     2748    42289                   %INIT_LX_ETT_ITEM (@POINTER = AB$,
     2749    42290                                      @TYPE    = %TYI) ;

  42292 25 013731   000004 220003                    LDX0    4,DU
        25 013732   200423 470500                    LDP0    AB$,,AUTO
        25 013733   000000 740100                    STX0    0,,PR0

  42293 25 013734   000000 221003                    LDX1    0,DU
        25 013735   200423 470500                    LDP0    AB$,,AUTO
        25 013736   000000 441100                    SXL1    0,,PR0

  42294 25 013737   000001 235007                    LDA     1,DL
        25 013740   200423 470500                    LDP0    AB$,,AUTO
        25 013741   000004 755100                    STA     4,,PR0

  42295 25 013742   000005 236000 26                 LDQ     5
        25 013743   200423 470500                    LDP0    AB$,,AUTO
        25 013744   000007 756100                    STQ     7,,PR0

  42296 25 013745   200423 470500                    LDP0    AB$,,AUTO
        25 013746   000001 756100                    STQ     1,,PR0

  42297 25 013747   000005 236000 26                 LDQ     5
        25 013750   200423 470500                    LDP0    AB$,,AUTO
        25 013751   000002 756100                    STQ     2,,PR0

  42299 25 013752   000133 236000 xsym               LDQ     COMCOM+91
        25 013753   200423 470500                    LDP0    AB$,,AUTO
        25 013754   000005 756100                    STQ     5,,PR0

  42300 25 013755   000134 236000 xsym               LDQ     COMCOM+92
        25 013756   200423 470500                    LDP0    AB$,,AUTO
        25 013757   000006 756100                    STQ     6,,PR0

PL6.E3A0      #001=Z8EA$INSPECT_1 File=Z8EA.:Z8A6TSI                             SAT 08/09/97 11:39 Page:418
     2750    42312
     2751    42313    3              CALL Z8AT$CREATE_TEMP_WITH_BASE (%SCALAR,

  42313 25 013760   200423 236100                    LDQ     AB$,,AUTO
        25 013761   000001 036003                    ADLQ    1,DU
        25 013762   000026 235000 26                 LDA     22
        25 013763   200552 757100                    STAQ    LENGTH_ID4$+2,,AUTO
        25 013764   200552 630500                    EPPR0   LENGTH_ID4$+2,,AUTO
        25 013765   000000 631400 26                 EPPR1   0
        25 013766   000000 701000 xent               TSX1    Z8AT$CREATE_TEMP_WITH_BASE
        25 013767   000000 011000                    NOP     0

     2752    42314    3                                               AB$ -> LX_ETT_ITEM.ETT$);
     2753    42315
     2754    42316                   %FISH( TRIAD = ID1$ -> LX_ETT_ITEM.ETT$,
     2755    42317                          RTN   = ID1_ST$ );

  42319 25 013770   200422 470500                    LDP0    @ID1$,,AUTO
        25 013771   000000 471500                    LDP1    0,,PR0
        25 013772   100001 236100                    LDQ     1,,PR1
        25 013773   200312 756100                    STQ     ID1_ST$,,AUTO

  42320 25 013774   200312 473500                    LDP3    ID1_ST$,,AUTO
        25 013775   300000 220100                    LDX0    0,,PR3
        25 013776   000751 100003                    CMPX0   489,DU
        25 013777   014007 603000 25                 TRC     s:42326

  42321 25 014000   200312 470500                    LDP0    ID1_ST$,,AUTO
        25 014001   000001 236100                    LDQ     1,,PR0
        25 014002   200312 756100                    STQ     ID1_ST$,,AUTO

  42322 25 014003   200312 470500                    LDP0    ID1_ST$,,AUTO
        25 014004   000000 220100                    LDX0    0,,PR0
        25 014005   000751 100003                    CMPX0   489,DU
        25 014006   014000 602000 25                 TNC     s:42321

     2756    42325
PL6.E3A0      #001=Z8EA$INSPECT_1 File=Z8EA.:Z8A6TSI                             SAT 08/09/97 11:39 Page:419
     2757    42326    3              IF  ID1_ST$ -> SCALAR.B.KANJI

  42326 25 014007   200312 470500                    LDP0    ID1_ST$,,AUTO
        25 014010   000003 236100                    LDQ     3,,PR0
        25 014011   001000 316007                    CANQ    512,DL
        25 014012   014020 600000 25                 TZE     s:42338
        25 014013   200341 234100                    SZN     PRODUCE_INSPECT_ILS,,AUTO
        25 014014   014020 605000 25                 TPL     s:42338

     2758    42327    3              AND PRODUCE_INSPECT_ILS  THEN
     2759    42328    3                CALL BEFORE_OR_AFTER_KANJI;

  42328 25 014015   014206 701000 25                 TSX1    BEFORE_OR_AFTER_KANJI
        25 014016   000000 011000                    NOP     0
        25 014017   014053 710000 25                 TRA     s:42356

     2760    42329    3              ELSE
     2761    42330    4                DO;

     2762    42331                       %INIT_BINARY_OP (@POINTER = INDEX$,
     2763    42332                                        @LOP$    = ID4$,
     2764    42333                                        @OP      = %OP_INDEX,
     2765    42334                                        @ROP$    = ID1$,
     2766    42335                                        @LINE    = "ID4$ -> LX_ETT_ITEM.LINE",
     2767    42336                                        @COLUMN  = "ID4$ -> LX_ETT_ITEM.COLUMN") ;

  42338 25 014020   000005 220003                    LDX0    5,DU
        25 014021   200427 471500                    LDP1    INDEX$,,AUTO
        25 014022   100000 740100                    STX0    0,,PR1

  42339 25 014023   000000 221003                    LDX1    0,DU
        25 014024   200427 471500                    LDP1    INDEX$,,AUTO
        25 014025   100000 441100                    SXL1    0,,PR1

  42346 25 014026   200426 471500                    LDP1    ID4$,,AUTO
        25 014027   200427 473500                    LDP3    INDEX$,,AUTO
        25 014030   100005 235100                    LDA     5,,PR1
PL6.E3A0      #001=Z8EA$INSPECT_1 File=Z8EA.:Z8A6TSI                             SAT 08/09/97 11:39 Page:420
        25 014031   300005 755100                    STA     5,,PR3

  42347 25 014032   200426 471500                    LDP1    ID4$,,AUTO
        25 014033   200427 473500                    LDP3    INDEX$,,AUTO
        25 014034   100006 235100                    LDA     6,,PR1
        25 014035   300006 755100                    STA     6,,PR3

  42348 25 014036   200422 471500                    LDP1    @ID1$,,AUTO
        25 014037   100000 236100                    LDQ     0,,PR1
        25 014040   200427 473500                    LDP3    INDEX$,,AUTO
        25 014041   300002 756100                    STQ     2,,PR3

  42349 25 014042   200426 236100                    LDQ     ID4$,,AUTO
        25 014043   200427 473500                    LDP3    INDEX$,,AUTO
        25 014044   300001 756100                    STQ     1,,PR3

  42350 25 014045   000035 235007                    LDA     29,DL
        25 014046   200427 473500                    LDP3    INDEX$,,AUTO
        25 014047   300003 755100                    STA     3,,PR3

  42351 25 014050   000005 236000 26                 LDQ     5
        25 014051   200427 473500                    LDP3    INDEX$,,AUTO
        25 014052   300007 756100                    STQ     7,,PR3

     2768    42354    4                END;

     2769    42355
     2770    42356    4              IF BEFORE_AFTER_TYPE = %RSV_WRD_AFTER THEN DO ;

  42356 25 014053   200454 235100                    LDA     BEFORE_AFTER_TYPE,,AUTO
        25 014054   000044 115007                    CMPA    36,DL
        25 014055   014134 601000 25                 TNZ     s:42391

     2771    42357
     2772    42358    4                LENGTH$ = ADDR(LENGTH) ;

  42358 25 014056   200026 630500                    EPPR0   LENGTH,,AUTO
PL6.E3A0      #001=Z8EA$INSPECT_1 File=Z8EA.:Z8A6TSI                             SAT 08/09/97 11:39 Page:421
        25 014057   200326 450500                    STP0    LENGTH$,,AUTO

     2773    42359    4                CALL Z8AU$LENGTH (ID4$ -> LX_ETT_ITEM.ETT$, LENGTH$) ;

  42359 25 014060   200326 631500                    EPPR1   LENGTH$,,AUTO
        25 014061   200553 451500                    STP1    LENGTH_ID4$+3,,AUTO
        25 014062   200426 236100                    LDQ     ID4$,,AUTO
        25 014063   000001 036003                    ADLQ    1,DU
        25 014064   200552 756100                    STQ     LENGTH_ID4$+2,,AUTO
        25 014065   200552 630500                    EPPR0   LENGTH_ID4$+2,,AUTO
        25 014066   000000 631400 26                 EPPR1   0
        25 014067   000000 701000 xent               TSX1    Z8AU$LENGTH
        25 014070   000000 011000                    NOP     0

     2774    42360
     2775    42361                     %INIT_BINARY_OP (@POINTER = RESULT$, /* Index + Length(id4) */
     2776    42362                                      @LOP$    = INDEX$,
     2777    42363                                      @OP      = %OP_PLUS,
     2778    42364                                      @ROP$    = LENGTH$,
     2779    42365                                      @LINE    = "ID4$ -> LX_ETT_ITEM.LINE",
     2780    42366                                      @COLUMN  = "ID4$ -> LX_ETT_ITEM.COLUMN") ;

  42368 25 014071   000005 220003                    LDX0    5,DU
        25 014072   200431 470500                    LDP0    RESULT$,,AUTO
        25 014073   000000 740100                    STX0    0,,PR0

  42369 25 014074   000000 221003                    LDX1    0,DU
        25 014075   200431 470500                    LDP0    RESULT$,,AUTO
        25 014076   000000 441100                    SXL1    0,,PR0

  42376 25 014077   200426 470500                    LDP0    ID4$,,AUTO
        25 014100   200431 471500                    LDP1    RESULT$,,AUTO
        25 014101   000005 235100                    LDA     5,,PR0
        25 014102   100005 755100                    STA     5,,PR1

  42377 25 014103   200426 470500                    LDP0    ID4$,,AUTO
        25 014104   200431 471500                    LDP1    RESULT$,,AUTO
PL6.E3A0      #001=Z8EA$INSPECT_1 File=Z8EA.:Z8A6TSI                             SAT 08/09/97 11:39 Page:422
        25 014105   000006 235100                    LDA     6,,PR0
        25 014106   100006 755100                    STA     6,,PR1

  42378 25 014107   200326 236100                    LDQ     LENGTH$,,AUTO
        25 014110   200431 470500                    LDP0    RESULT$,,AUTO
        25 014111   000002 756100                    STQ     2,,PR0

  42379 25 014112   200427 236100                    LDQ     INDEX$,,AUTO
        25 014113   200431 470500                    LDP0    RESULT$,,AUTO
        25 014114   000001 756100                    STQ     1,,PR0

  42380 25 014115   000020 235007                    LDA     16,DL
        25 014116   200431 470500                    LDP0    RESULT$,,AUTO
        25 014117   000003 755100                    STA     3,,PR0

  42381 25 014120   000005 236000 26                 LDQ     5
        25 014121   200431 470500                    LDP0    RESULT$,,AUTO
        25 014122   000007 756100                    STQ     7,,PR0

     2781    42384
     2782    42385    4                CALL Z8E5$MATH_PACK (RESULT$, RESULT$) ;

  42385 25 014123   200431 630500                    EPPR0   RESULT$,,AUTO
        25 014124   200553 450500                    STP0    LENGTH_ID4$+3,,AUTO
        25 014125   200431 631500                    EPPR1   RESULT$,,AUTO
        25 014126   200552 451500                    STP1    LENGTH_ID4$+2,,AUTO
        25 014127   200552 630500                    EPPR0   LENGTH_ID4$+2,,AUTO
        25 014130   000000 631400 26                 EPPR1   0
        25 014131   000000 701000 xent               TSX1    Z8E5$MATH_PACK
        25 014132   000000 011000                    NOP     0

     2783    42386
     2784    42387    4              END ;

  42387 25 014133   014144 710000 25                 TRA     s:42395

     2785    42388
PL6.E3A0      #001=Z8EA$INSPECT_1 File=Z8EA.:Z8A6TSI                             SAT 08/09/97 11:39 Page:423
     2786    42389    4              ELSE DO ; /* BEFORE_AFTER_TYPE = %RSV_WRD_BEFORE */

     2787    42390
     2788    42391    4                CALL Z8E5$MATH_PACK (INDEX$, RESULT$) ;

  42391 25 014134   200431 630500                    EPPR0   RESULT$,,AUTO
        25 014135   200553 450500                    STP0    LENGTH_ID4$+3,,AUTO
        25 014136   200427 631500                    EPPR1   INDEX$,,AUTO
        25 014137   200552 451500                    STP1    LENGTH_ID4$+2,,AUTO
        25 014140   200552 630500                    EPPR0   LENGTH_ID4$+2,,AUTO
        25 014141   000000 631400 26                 EPPR1   0
        25 014142   000000 701000 xent               TSX1    Z8E5$MATH_PACK
        25 014143   000000 011000                    NOP     0

     2789    42392
     2790    42393    4              END ; /* Before */

     2791    42394
     2792    42395    3              IF PRODUCE_INSPECT_ILS THEN

  42395 25 014144   200341 234100                    SZN     PRODUCE_INSPECT_ILS,,AUTO
        25 014145   014156 605000 25                 TPL     s:42397

     2793    42396    3                CALL Z8E7$MOVE (AB$, RESULT$) ;

  42396 25 014146   200431 630500                    EPPR0   RESULT$,,AUTO
        25 014147   200553 450500                    STP0    LENGTH_ID4$+3,,AUTO
        25 014150   200423 631500                    EPPR1   AB$,,AUTO
        25 014151   200552 451500                    STP1    LENGTH_ID4$+2,,AUTO
        25 014152   200552 630500                    EPPR0   LENGTH_ID4$+2,,AUTO
        25 014153   000000 631400 26                 EPPR1   0
        25 014154   000000 701000 xent               TSX1    Z8E7$MOVE
        25 014155   000000 011000                    NOP     0

     2794    42397    3              CALL Z8ED$DISPOSE_ABSSYN_TREE (ID4$) ;

  42397 25 014156   200426 630500                    EPPR0   ID4$,,AUTO
PL6.E3A0      #001=Z8EA$INSPECT_1 File=Z8EA.:Z8A6TSI                             SAT 08/09/97 11:39 Page:424
        25 014157   200552 450500                    STP0    LENGTH_ID4$+2,,AUTO
        25 014160   200552 630500                    EPPR0   LENGTH_ID4$+2,,AUTO
        25 014161   000041 631400 26                 EPPR1   33
        25 014162   000000 701000 xent               TSX1    Z8ED$DISPOSE_ABSSYN_TREE
        25 014163   000000 011000                    NOP     0

     2795    42398    3              LX_LIST$ -> LX_LIST.TAIL$ = AB$ ;

  42398 25 014164   200453 470500                    LDP0    @LX_LIST$,,AUTO
        25 014165   000000 471500                    LDP1    0,,PR0
        25 014166   200423 236100                    LDQ     AB$,,AUTO
        25 014167   100001 756100                    STQ     1,,PR1

     2796    42399    3              LX_LIST$ -> LX_LIST.HEAD$ -> LX_TERMINAL.LINK = AB$ ;

  42399 25 014170   000000 471500                    LDP1    0,,PR0
        25 014171   100004 473500                    LDP3    4,,PR1
        25 014172   200423 236100                    LDQ     AB$,,AUTO
        25 014173   300007 756100                    STQ     7,,PR3

     2797    42400
     2798    42401    3              IF BEFORE_AFTER_TYPE = %RSV_WRD_AFTER

  42401 25 014174   200454 235100                    LDA     BEFORE_AFTER_TYPE,,AUTO
        25 014175   000044 115007                    CMPA    36,DL
        25 014176   014202 601000 25                 TNZ     s:42403

     2799    42402    3              THEN AFTER$ = AB$ ;

  42402 25 014177   200423 236100                    LDQ     AB$,,AUTO
        25 014200   200424 756100                    STQ     AFTER$,,AUTO
        25 014201   014204 710000 25                 TRA     s:42405

     2800    42403    3              ELSE BEFORE$ = AB$ ;

  42403 25 014202   200423 236100                    LDQ     AB$,,AUTO
        25 014203   200425 756100                    STQ     BEFORE$,,AUTO
PL6.E3A0      #001=Z8EA$INSPECT_1 File=Z8EA.:Z8A6TSI                             SAT 08/09/97 11:39 Page:425

     2801    42404
     2802    42405    3   END BEFORE_OR_AFTER_CLAUSE ;

  42405 25 014204   200452 221300                    LDX1  ! RESULT+8,,AUTO
        25 014205   000001 702211                    TSX2  ! 1,X1

     2803    42406
     2804    42407        %EJECT;
PL6.E3A0      #001=Z8EA$INSPECT_1 File=Z8EA.:Z8A6TSI                             SAT 08/09/97 11:39 Page:426
     2805    42408        /*====================*/
     2806    42409    2     BEFORE_OR_AFTER_KANJI : PROC;

  42409 25 014206   200456 741300       BEFORE_OR_A* STX1  ! BEFORE_AFTER_TYPE+2,,AUTO

     2807    42410        /*=====================*/
     2808    42411
     2809    42412    3   DCL BEGAIN_INDEX$       PTR;
     2810    42413    3   DCL END_INDEX$          PTR;
     2811    42414
     2812    42415        %DCL_AUTO_LX_ITEM( @NAME = COUNT );
     2813    42419        %DCL_AUTO_LX_ITEM( @NAME = SUB );
     2814    42423        %DCL_AUTO_LX_ITEM( @NAME = COMPARISON );
     2815    42427        %DCL_AUTO_LX_ITEM( @NAME = LENGTH_ID1 );
     2816    42431        %DCL_AUTO_LX_ITEM( @NAME = LENGTH_ID4 );
     2817    42435        %DCL_AUTO_LX_ITEM( @NAME = SUB_STR );
     2818    42439
     2819    42440    3   DCL COUNT$              PTR;
     2820    42441    3   DCL COUNT_BASE$         PTR;
     2821    42442    3   DCL SUBSTR$             PTR;
     2822    42443    3   DCL SUB$                PTR;
     2823    42444    3   DCL COMPARISON$         PTR;
     2824    42445    3   DCL LENGTH_ID1$         PTR;
     2825    42446    3   DCL LENGTH_ID4$         PTR;
     2826    42447
     2827    42448
     2828    42449    3   COUNT$ = ADDR( COUNT );

  42449 25 014207   200462 630500                    EPPR0   COUNT,,AUTO
        25 014210   200542 450500                    STP0    COUNT$,,AUTO

     2829    42450    3   SUB$ = ADDR( SUB );

  42450 25 014211   200472 631500                    EPPR1   SUB,,AUTO
        25 014212   200545 451500                    STP1    SUB$,,AUTO

     2830    42451    3   SUBSTR$ = ADDR( SUB_STR );
PL6.E3A0      #001=Z8EA$INSPECT_1 File=Z8EA.:Z8A6TSI                             SAT 08/09/97 11:39 Page:427

  42451 25 014213   200532 633500                    EPPR3   SUB_STR,,AUTO
        25 014214   200544 453500                    STP3    SUBSTR$,,AUTO

     2831    42452        %INIT_LX_ETT_ITEM( @POINTER = COUNT$,
     2832    42453                           @TYPE    = %TYI );

  42455 25 014215   000004 220003                    LDX0    4,DU
        25 014216   000000 740100                    STX0    0,,PR0

  42456 25 014217   000000 221003                    LDX1    0,DU
        25 014220   200542 470500                    LDP0    COUNT$,,AUTO
        25 014221   000000 441100                    SXL1    0,,PR0

  42457 25 014222   000001 235007                    LDA     1,DL
        25 014223   200542 470500                    LDP0    COUNT$,,AUTO
        25 014224   000004 755100                    STA     4,,PR0

  42458 25 014225   000005 236000 26                 LDQ     5
        25 014226   200542 470500                    LDP0    COUNT$,,AUTO
        25 014227   000007 756100                    STQ     7,,PR0

  42459 25 014230   200542 470500                    LDP0    COUNT$,,AUTO
        25 014231   000001 756100                    STQ     1,,PR0

  42460 25 014232   000005 236000 26                 LDQ     5
        25 014233   200542 470500                    LDP0    COUNT$,,AUTO
        25 014234   000002 756100                    STQ     2,,PR0

  42462 25 014235   000133 236000 xsym               LDQ     COMCOM+91
        25 014236   200542 470500                    LDP0    COUNT$,,AUTO
        25 014237   000005 756100                    STQ     5,,PR0

  42463 25 014240   000134 236000 xsym               LDQ     COMCOM+92
        25 014241   200542 470500                    LDP0    COUNT$,,AUTO
        25 014242   000006 756100                    STQ     6,,PR0

PL6.E3A0      #001=Z8EA$INSPECT_1 File=Z8EA.:Z8A6TSI                             SAT 08/09/97 11:39 Page:428
     2833    42475    3   CALL Z8AT$CREATE_TEMP_WITH_BASE( %SCALAR,

  42475 25 014243   200542 236100                    LDQ     COUNT$,,AUTO
        25 014244   000001 036003                    ADLQ    1,DU
        25 014245   000026 235000 26                 LDA     22
        25 014246   200552 757100                    STAQ    LENGTH_ID4$+2,,AUTO
        25 014247   200552 630500                    EPPR0   LENGTH_ID4$+2,,AUTO
        25 014250   000000 631400 26                 EPPR1   0
        25 014251   000000 701000 xent               TSX1    Z8AT$CREATE_TEMP_WITH_BASE
        25 014252   000000 011000                    NOP     0

     2834    42476    3                                    COUNT$ -> LX_ETT_ITEM.ETT$ );
     2835    42477
     2836    42478    3   CALL Z8AT$CREATE_TEMPORARY( %PARA, BEGAIN_INDEX$ );

  42478 25 014253   200457 630500                    EPPR0   BEGAIN_INDEX$,,AUTO
        25 014254   200553 450500                    STP0    LENGTH_ID4$+3,,AUTO
        25 014255   000024 236000 26                 LDQ     20
        25 014256   200552 756100                    STQ     LENGTH_ID4$+2,,AUTO
        25 014257   200552 630500                    EPPR0   LENGTH_ID4$+2,,AUTO
        25 014260   000000 631400 26                 EPPR1   0
        25 014261   000000 701000 xent               TSX1    Z8AT$CREATE_TEMPORARY
        25 014262   000000 011000                    NOP     0

     2837    42479    3   CALL Z8AT$CREATE_TEMPORARY( %PARA, END_INDEX$ );

  42479 25 014263   200460 630500                    EPPR0   END_INDEX$,,AUTO
        25 014264   200553 450500                    STP0    LENGTH_ID4$+3,,AUTO
        25 014265   000024 236000 26                 LDQ     20
        25 014266   200552 756100                    STQ     LENGTH_ID4$+2,,AUTO
        25 014267   200552 630500                    EPPR0   LENGTH_ID4$+2,,AUTO
        25 014270   000000 631400 26                 EPPR1   0
        25 014271   000000 701000 xent               TSX1    Z8AT$CREATE_TEMPORARY
        25 014272   000000 011000                    NOP     0

     2838    42480
     2839    42481    3   LENGTH_ID4$ = ADDR( LENGTH_ID4 );
PL6.E3A0      #001=Z8EA$INSPECT_1 File=Z8EA.:Z8A6TSI                             SAT 08/09/97 11:39 Page:429

  42481 25 014273   200522 630500                    EPPR0   LENGTH_ID4,,AUTO
        25 014274   200550 450500                    STP0    LENGTH_ID4$,,AUTO

     2840    42482    3   CALL Z8AU$LENGTH( ID4$ -> LX_ETT_ITEM.ETT$,

  42482 25 014275   200550 631500                    EPPR1   LENGTH_ID4$,,AUTO
        25 014276   200553 451500                    STP1    LENGTH_ID4$+3,,AUTO
        25 014277   200426 236100                    LDQ     ID4$,,AUTO
        25 014300   000001 036003                    ADLQ    1,DU
        25 014301   200552 756100                    STQ     LENGTH_ID4$+2,,AUTO
        25 014302   200552 630500                    EPPR0   LENGTH_ID4$+2,,AUTO
        25 014303   000000 631400 26                 EPPR1   0
        25 014304   000000 701000 xent               TSX1    Z8AU$LENGTH
        25 014305   000000 011000                    NOP     0

     2841    42483    3                     LENGTH_ID4$ );
     2842    42484
     2843    42485    3   LENGTH_ID1$ = ADDR( LENGTH_ID1 );

  42485 25 014306   200512 630500                    EPPR0   LENGTH_ID1,,AUTO
        25 014307   200547 450500                    STP0    LENGTH_ID1$,,AUTO

     2844    42486    3   CALL Z8AU$LENGTH( ID1$ -> LX_ETT_ITEM.ETT$,

  42486 25 014310   200422 471500                    LDP1    @ID1$,,AUTO
        25 014311   100000 473500                    LDP3    0,,PR1
        25 014312   200547 634500                    EPPR4   LENGTH_ID1$,,AUTO
        25 014313   200553 454500                    STP4    LENGTH_ID4$+3,,AUTO
        25 014314   300001 635500                    EPPR5   1,,PR3
        25 014315   200552 455500                    STP5    LENGTH_ID4$+2,,AUTO
        25 014316   200552 630500                    EPPR0   LENGTH_ID4$+2,,AUTO
        25 014317   000000 631400 26                 EPPR1   0
        25 014320   000000 701000 xent               TSX1    Z8AU$LENGTH
        25 014321   000000 011000                    NOP     0

     2845    42487    3                     LENGTH_ID1$ );
PL6.E3A0      #001=Z8EA$INSPECT_1 File=Z8EA.:Z8A6TSI                             SAT 08/09/97 11:39 Page:430
     2846    42488
     2847    42489        %NEW_ILL( @ID  = %MVII,
     2848    42490                  @LOP = COUNT$ -> LX_ETT_ITEM.ETT$,
     2849    42491                  @ROP = COMCOM.VALUE_0 );

  42804 25 014322   000031 236000 26                 LDQ     25
        25 014323   200552 756100                    STQ     LENGTH_ID4$+2,,AUTO
        25 014324   200542 236100                    LDQ     COUNT$,,AUTO
        25 014325   000001 036003                    ADLQ    1,DU
        25 014326   200557 756100                    STQ     LENGTH_ID4$+7,,AUTO
        25 014327   200552 630500                    EPPR0   LENGTH_ID4$+2,,AUTO
        25 014330   200556 450500                    STP0    LENGTH_ID4$+6,,AUTO
        25 014331   000032 237000 26                 LDAQ    26
        25 014332   200554 757100                    STAQ    LENGTH_ID4$+4,,AUTO
        25 014333   000002 236000 26                 LDQ     2
        25 014334   200553 756100                    STQ     LENGTH_ID4$+3,,AUTO
        25 014335   200553 630500                    EPPR0   LENGTH_ID4$+3,,AUTO
        25 014336   000027 631400 26                 EPPR1   23
        25 014337   000000 701000 xent               TSX1    Z8AN$NEW_ILL1
        25 014340   000000 011000                    NOP     0

  42807 25 014341   200542 470500                    LDP0    COUNT$,,AUTO
        25 014342   000001 236100                    LDQ     1,,PR0
        25 014343   000000 471400 1                  LDP1    ILL$
        25 014344   100001 756100                    STQ     1,,PR1

  42808 25 014345   000124 236000 xsym               LDQ     COMCOM+84
        25 014346   100002 756100                    STQ     2,,PR1

     2850    42870
     2851    42871        %NEW_ILL( @ID  = %DEFLB,
     2852    42872                  @LOP = BEGAIN_INDEX$ );

  43193 25 014347   000031 236000 26                 LDQ     25
        25 014350   200552 756100                    STQ     LENGTH_ID4$+2,,AUTO
        25 014351   200552 630500                    EPPR0   LENGTH_ID4$+2,,AUTO
        25 014352   200557 450500                    STP0    LENGTH_ID4$+7,,AUTO
PL6.E3A0      #001=Z8EA$INSPECT_1 File=Z8EA.:Z8A6TSI                             SAT 08/09/97 11:39 Page:431
        25 014353   000033 236000 26                 LDQ     27
        25 014354   200556 756100                    STQ     LENGTH_ID4$+6,,AUTO
        25 014355   000042 237000 26                 LDAQ    34
        25 014356   200554 757100                    STAQ    LENGTH_ID4$+4,,AUTO
        25 014357   200554 630500                    EPPR0   LENGTH_ID4$+4,,AUTO
        25 014360   000010 631400 26                 EPPR1   8
        25 014361   000000 701000 xent               TSX1    Z8AN$NEW_ILL
        25 014362   000000 011000                    NOP     0

  43202 25 014363   200457 236100                    LDQ     BEGAIN_INDEX$,,AUTO
        25 014364   000000 470400 1                  LDP0    ILL$
        25 014365   000001 756100                    STQ     1,,PR0

     2853    43251
     2854    43252        %INIT_BINARY_OP( @POINTER = SUB$,
     2855    43253                         @LOP$    = LENGTH_ID1$,
     2856    43254                         @ROP$    = LENGTH_ID4$,
     2857    43255                         @OP      = %OP_BINARY_MINUS,
     2858    43256                         @LINE    = "ID1$ -> LX_ETT_ITEM.LINE",
     2859    43257                         @COLUMN  = "ID1$ -> LX_ETT_ITEM.COLUMN" );

  43259 25 014366   000005 220003                    LDX0    5,DU
        25 014367   200545 471500                    LDP1    SUB$,,AUTO
        25 014370   100000 740100                    STX0    0,,PR1

  43260 25 014371   000000 221003                    LDX1    0,DU
        25 014372   100000 441100                    SXL1    0,,PR1

  43267 25 014373   200422 470500                    LDP0    @ID1$,,AUTO
        25 014374   000000 473500                    LDP3    0,,PR0
        25 014375   300005 235100                    LDA     5,,PR3
        25 014376   100005 755100                    STA     5,,PR1

  43268 25 014377   000000 473500                    LDP3    0,,PR0
        25 014400   300006 235100                    LDA     6,,PR3
        25 014401   100006 755100                    STA     6,,PR1

PL6.E3A0      #001=Z8EA$INSPECT_1 File=Z8EA.:Z8A6TSI                             SAT 08/09/97 11:39 Page:432
  43269 25 014402   200550 236100                    LDQ     LENGTH_ID4$,,AUTO
        25 014403   100002 756100                    STQ     2,,PR1

  43270 25 014404   200547 236100                    LDQ     LENGTH_ID1$,,AUTO
        25 014405   100001 756100                    STQ     1,,PR1

  43271 25 014406   000021 235007                    LDA     17,DL
        25 014407   100003 755100                    STA     3,,PR1

  43272 25 014410   000005 236000 26                 LDQ     5
        25 014411   100007 756100                    STQ     7,,PR1

     2860    43275
     2861    43276        %IF_THEN_DO( @LOP = COUNT$,
     2862    43277                     @ROP = SUB$,
     2863    43278                     @REL = %OP_LESS_THAN_OR_EQUAL,
     2864    43279                     @LAB = END_INDEX$ );

  43286 25 014412   200502 633500                    EPPR3   COMPARISON,,AUTO
        25 014413   200546 453500                    STP3    COMPARISON$,,AUTO

  43294 25 014414   300000 740100                    STX0    0,,PR3

  43295 25 014415   200546 473500                    LDP3    COMPARISON$,,AUTO
        25 014416   300000 441100                    SXL1    0,,PR3

  43302 25 014417   200542 473500                    LDP3    COUNT$,,AUTO
        25 014420   200546 474500                    LDP4    COMPARISON$,,AUTO
        25 014421   300005 235100                    LDA     5,,PR3
        25 014422   400005 755100                    STA     5,,PR4

  43303 25 014423   200542 473500                    LDP3    COUNT$,,AUTO
        25 014424   200546 474500                    LDP4    COMPARISON$,,AUTO
        25 014425   300006 235100                    LDA     6,,PR3
        25 014426   400006 755100                    STA     6,,PR4

  43304 25 014427   200545 236100                    LDQ     SUB$,,AUTO
PL6.E3A0      #001=Z8EA$INSPECT_1 File=Z8EA.:Z8A6TSI                             SAT 08/09/97 11:39 Page:433
        25 014430   200546 473500                    LDP3    COMPARISON$,,AUTO
        25 014431   300002 756100                    STQ     2,,PR3

  43305 25 014432   200542 236100                    LDQ     COUNT$,,AUTO
        25 014433   200546 473500                    LDP3    COMPARISON$,,AUTO
        25 014434   300001 756100                    STQ     1,,PR3

  43306 25 014435   000032 235007                    LDA     26,DL
        25 014436   200546 473500                    LDP3    COMPARISON$,,AUTO
        25 014437   300003 755100                    STA     3,,PR3

  43307 25 014440   000005 236000 26                 LDQ     5
        25 014441   200546 473500                    LDP3    COMPARISON$,,AUTO
        25 014442   300007 756100                    STQ     7,,PR3

  43310 25 014443   200460 633500                    EPPR3   END_INDEX$,,AUTO
        25 014444   200553 453500                    STP3    LENGTH_ID4$+3,,AUTO
        25 014445   000024 236000 26                 LDQ     20
        25 014446   200552 756100                    STQ     LENGTH_ID4$+2,,AUTO
        25 014447   200552 630500                    EPPR0   LENGTH_ID4$+2,,AUTO
        25 014450   000000 631400 26                 EPPR1   0
        25 014451   000000 701000 xent               TSX1    Z8AT$CREATE_TEMPORARY
        25 014452   000000 011000                    NOP     0

  43311 25 014453   200546 630500                    EPPR0   COMPARISON$,,AUTO
        25 014454   200553 450500                    STP0    LENGTH_ID4$+3,,AUTO
        25 014455   200460 631500                    EPPR1   END_INDEX$,,AUTO
        25 014456   200552 451500                    STP1    LENGTH_ID4$+2,,AUTO
        25 014457   200552 630500                    EPPR0   LENGTH_ID4$+2,,AUTO
        25 014460   000000 631400 26                 EPPR1   0
        25 014461   000000 701000 xent               TSX1    Z8EK$BRANCH_FALSE
        25 014462   000000 011000                    NOP     0

     2865    43314
     2866    43315    3   CALL Z8EA$INSERT_ZERO( ID1$,

  43315 25 014463   200544 630500                    EPPR0   SUBSTR$,,AUTO
PL6.E3A0      #001=Z8EA$INSPECT_1 File=Z8EA.:Z8A6TSI                             SAT 08/09/97 11:39 Page:434
        25 014464   200555 450500                    STP0    LENGTH_ID4$+5,,AUTO
        25 014465   200354 631500                    EPPR1   TWO_LX_ETT$,,AUTO
        25 014466   200554 451500                    STP1    LENGTH_ID4$+4,,AUTO
        25 014467   200542 633500                    EPPR3   COUNT$,,AUTO
        25 014470   200553 453500                    STP3    LENGTH_ID4$+3,,AUTO
        25 014471   200422 236100                    LDQ     @ID1$,,AUTO
        25 014472   200552 756100                    STQ     LENGTH_ID4$+2,,AUTO
        25 014473   200552 630500                    EPPR0   LENGTH_ID4$+2,,AUTO
        25 014474   000010 631400 26                 EPPR1   8
        25 014475   000000 701000 xent               TSX1    Z8EA$INSERT_ZERO
        25 014476   000000 011000                    NOP     0

     2867    43316    3                          COUNT$,
     2868    43317    3                          TWO_LX_ETT$,
     2869    43318    3                          SUBSTR$ );
     2870    43319    3   COMPARISON$ = ADDR( COMPARISON );

  43319 25 014477   200502 630500                    EPPR0   COMPARISON,,AUTO
        25 014500   200546 450500                    STP0    COMPARISON$,,AUTO

     2871    43320
     2872    43321        %INIT_BINARY_OP( @POINTER = COMPARISON$,
     2873    43322                         @LOP$    = SUBSTR$,
     2874    43323                         @OP      = %OP_EQUAL,
     2875    43324                         @ROP$    = ID4$,
     2876    43325                         @LINE    = "ID4$ -> LX_ETT_ITEM.LINE",
     2877    43326                         @COLUMN  = "ID4$ -> LX_ETT_ITEM.COLUMN" );

  43328 25 014501   000005 220003                    LDX0    5,DU
        25 014502   000000 740100                    STX0    0,,PR0

  43329 25 014503   000000 221003                    LDX1    0,DU
        25 014504   200546 470500                    LDP0    COMPARISON$,,AUTO
        25 014505   000000 441100                    SXL1    0,,PR0

  43336 25 014506   200426 470500                    LDP0    ID4$,,AUTO
        25 014507   200546 471500                    LDP1    COMPARISON$,,AUTO
PL6.E3A0      #001=Z8EA$INSPECT_1 File=Z8EA.:Z8A6TSI                             SAT 08/09/97 11:39 Page:435
        25 014510   000005 235100                    LDA     5,,PR0
        25 014511   100005 755100                    STA     5,,PR1

  43337 25 014512   200426 470500                    LDP0    ID4$,,AUTO
        25 014513   200546 471500                    LDP1    COMPARISON$,,AUTO
        25 014514   000006 235100                    LDA     6,,PR0
        25 014515   100006 755100                    STA     6,,PR1

  43338 25 014516   200426 236100                    LDQ     ID4$,,AUTO
        25 014517   200546 470500                    LDP0    COMPARISON$,,AUTO
        25 014520   000002 756100                    STQ     2,,PR0

  43339 25 014521   200544 236100                    LDQ     SUBSTR$,,AUTO
        25 014522   200546 470500                    LDP0    COMPARISON$,,AUTO
        25 014523   000001 756100                    STQ     1,,PR0

  43340 25 014524   000027 235007                    LDA     23,DL
        25 014525   200546 470500                    LDP0    COMPARISON$,,AUTO
        25 014526   000003 755100                    STA     3,,PR0

  43341 25 014527   000005 236000 26                 LDQ     5
        25 014530   200546 470500                    LDP0    COMPARISON$,,AUTO
        25 014531   000007 756100                    STQ     7,,PR0

     2878    43344
     2879    43345    3   CALL Z8EK$BRANCH_TRUE( END_INDEX$,

  43345 25 014532   200546 630500                    EPPR0   COMPARISON$,,AUTO
        25 014533   200553 450500                    STP0    LENGTH_ID4$+3,,AUTO
        25 014534   200460 631500                    EPPR1   END_INDEX$,,AUTO
        25 014535   200552 451500                    STP1    LENGTH_ID4$+2,,AUTO
        25 014536   200552 630500                    EPPR0   LENGTH_ID4$+2,,AUTO
        25 014537   000000 631400 26                 EPPR1   0
        25 014540   000000 701000 xent               TSX1    Z8EK$BRANCH_TRUE
        25 014541   000000 011000                    NOP     0

     2880    43346    3                          COMPARISON$ );
PL6.E3A0      #001=Z8EA$INSPECT_1 File=Z8EA.:Z8A6TSI                             SAT 08/09/97 11:39 Page:436
     2881    43347
     2882    43348        %NEW_ILL( @ID  = %AD2I,
     2883    43349                  @LOP = COUNT$ -> LX_ETT_ITEM.ETT$,
     2884    43350                  @ROP = TWO$ );

  43663 25 014542   000031 236000 26                 LDQ     25
        25 014543   200552 756100                    STQ     LENGTH_ID4$+2,,AUTO
        25 014544   200542 236100                    LDQ     COUNT$,,AUTO
        25 014545   000001 036003                    ADLQ    1,DU
        25 014546   200557 756100                    STQ     LENGTH_ID4$+7,,AUTO
        25 014547   200552 630500                    EPPR0   LENGTH_ID4$+2,,AUTO
        25 014550   200556 450500                    STP0    LENGTH_ID4$+6,,AUTO
        25 014551   000036 237000 26                 LDAQ    30
        25 014552   200554 757100                    STAQ    LENGTH_ID4$+4,,AUTO
        25 014553   000002 236000 26                 LDQ     2
        25 014554   200553 756100                    STQ     LENGTH_ID4$+3,,AUTO
        25 014555   200553 630500                    EPPR0   LENGTH_ID4$+3,,AUTO
        25 014556   000027 631400 26                 EPPR1   23
        25 014557   000000 701000 xent               TSX1    Z8AN$NEW_ILL1
        25 014560   000000 011000                    NOP     0

  43666 25 014561   200542 470500                    LDP0    COUNT$,,AUTO
        25 014562   000001 236100                    LDQ     1,,PR0
        25 014563   000000 471400 1                  LDP1    ILL$
        25 014564   100001 756100                    STQ     1,,PR1

  43667 25 014565   200353 236100                    LDQ     TWO$,,AUTO
        25 014566   100002 756100                    STQ     2,,PR1

     2885    43729
     2886    43730    3   CALL Z8EK$BRANCH( BEGAIN_INDEX$ );

  43730 25 014567   200457 630500                    EPPR0   BEGAIN_INDEX$,,AUTO
        25 014570   200552 450500                    STP0    LENGTH_ID4$+2,,AUTO
        25 014571   200552 630500                    EPPR0   LENGTH_ID4$+2,,AUTO
        25 014572   000041 631400 26                 EPPR1   33
        25 014573   000000 701000 xent               TSX1    Z8EK$BRANCH
PL6.E3A0      #001=Z8EA$INSPECT_1 File=Z8EA.:Z8A6TSI                             SAT 08/09/97 11:39 Page:437
        25 014574   000000 011000                    NOP     0

     2887    43731
     2888    43732        %NEW_ILL( @ID = %DEFLB,
     2889    43733                  @LOP = END_INDEX$ );

  44054 25 014575   000031 236000 26                 LDQ     25
        25 014576   200552 756100                    STQ     LENGTH_ID4$+2,,AUTO
        25 014577   200552 630500                    EPPR0   LENGTH_ID4$+2,,AUTO
        25 014600   200557 450500                    STP0    LENGTH_ID4$+7,,AUTO
        25 014601   000033 236000 26                 LDQ     27
        25 014602   200556 756100                    STQ     LENGTH_ID4$+6,,AUTO
        25 014603   000042 237000 26                 LDAQ    34
        25 014604   200554 757100                    STAQ    LENGTH_ID4$+4,,AUTO
        25 014605   200554 630500                    EPPR0   LENGTH_ID4$+4,,AUTO
        25 014606   000010 631400 26                 EPPR1   8
        25 014607   000000 701000 xent               TSX1    Z8AN$NEW_ILL
        25 014610   000000 011000                    NOP     0

  44063 25 014611   200460 236100                    LDQ     END_INDEX$,,AUTO
        25 014612   000000 470400 1                  LDP0    ILL$
        25 014613   000001 756100                    STQ     1,,PR0

     2890    44112
     2891    44113
     2892    44114    3   INDEX$ -> LX_ETT_ITEM = COUNT$ -> LX_ETT_ITEM;

  44114 25 014614   200542 471500                    LDP1    COUNT$,,AUTO
        25 014615   200427 473500                    LDP3    INDEX$,,AUTO
        25 014616   000100 100500                    MLR     fill='000'O
        25 014617   100000 000040                    ADSC9   0,,PR1                   cn=0,n=32
        25 014620   300000 000040                    ADSC9   0,,PR3                   cn=0,n=32

     2893    44115
     2894    44116    3   END BEFORE_OR_AFTER_KANJI;

  44116 25 014621   200456 221300                    LDX1  ! BEFORE_AFTER_TYPE+2,,AUTO
PL6.E3A0      #001=Z8EA$INSPECT_1 File=Z8EA.:Z8A6TSI                             SAT 08/09/97 11:39 Page:438
        25 014622   000001 702211                    TSX2  ! 1,X1

     2895    44117        %EJECT;
PL6.E3A0      #001=Z8EA$INSPECT_1 File=Z8EA.:Z8A6TSI                             SAT 08/09/97 11:39 Page:439
     2896    44118        /*========================*/
     2897    44119    2     CREATE_AFTER_LX_ETT_ITEM: PROC (AFTER$) ;

  44119 25 014623   200452 741300       CREATE_AFTE* STX1  ! RESULT+8,,AUTO

     2898    44120        /*========================*/
     2899    44121
     2900    44122        /*I*   NAME: CREATE_AFTER_LX_ETT_ITEM
     2901    44123
     2902    44124        DESCRIPTION: (1) Create an LX_ETT_ITEM,
     2903    44125                     (2) Create a Temp,
     2904    44126                     (3) Create a Move (Move 0 to Temp).
     2905    44127
     2906    44128             OUTPUT: AFTER$ -- Ptr to LX_ETT_ITEM.
     2907    44129
     2908    44130        */
     2909    44131
     2910    44132    3   DCL AFTER$  PTR ;
     2911    44133
     2912    44134               %NEW (@TEMPLATE = LX_ETT_ITEM,
     2913    44135                     @POINTER  = AFTER$) ;

  44141 25 014624   000113 236000 26                 LDQ     75
        25 014625   200453 235100                    LDA     @AFTER$,,AUTO
        25 014626   200552 757100                    STAQ    LENGTH_ID4$+2,,AUTO
        25 014627   200552 630500                    EPPR0   LENGTH_ID4$+2,,AUTO
        25 014630   000000 631400 26                 EPPR1   0
        25 014631   000000 701000 xent               TSX1    Z8ED$NEW_HEAP
        25 014632   000000 011000                    NOP     0

     2914    44145
     2915    44146               %INIT_LX_ETT_ITEM (@POINTER = AFTER$,
     2916    44147                                  @TYPE    = %TYI) ;

  44149 25 014633   200453 470500                    LDP0    @AFTER$,,AUTO
        25 014634   000000 471500                    LDP1    0,,PR0
        25 014635   000004 220003                    LDX0    4,DU
PL6.E3A0      #001=Z8EA$INSPECT_1 File=Z8EA.:Z8A6TSI                             SAT 08/09/97 11:39 Page:440
        25 014636   100000 740100                    STX0    0,,PR1

  44150 25 014637   000000 471500                    LDP1    0,,PR0
        25 014640   000000 221003                    LDX1    0,DU
        25 014641   100000 441100                    SXL1    0,,PR1

  44151 25 014642   000000 471500                    LDP1    0,,PR0
        25 014643   000001 235007                    LDA     1,DL
        25 014644   100004 755100                    STA     4,,PR1

  44152 25 014645   000000 471500                    LDP1    0,,PR0
        25 014646   000005 236000 26                 LDQ     5
        25 014647   100007 756100                    STQ     7,,PR1

  44153 25 014650   000000 471500                    LDP1    0,,PR0
        25 014651   100001 756100                    STQ     1,,PR1

  44154 25 014652   000000 471500                    LDP1    0,,PR0
        25 014653   000005 236000 26                 LDQ     5
        25 014654   100002 756100                    STQ     2,,PR1

  44156 25 014655   000000 471500                    LDP1    0,,PR0
        25 014656   000133 236000 xsym               LDQ     COMCOM+91
        25 014657   100005 756100                    STQ     5,,PR1

  44157 25 014660   000000 471500                    LDP1    0,,PR0
        25 014661   000134 236000 xsym               LDQ     COMCOM+92
        25 014662   100006 756100                    STQ     6,,PR1

     2917    44169
     2918    44170    3          CALL Z8AT$CREATE_TEMP_WITH_BASE (%SCALAR,

  44170 25 014663   000000 471500                    LDP1    0,,PR0
        25 014664   100001 633500                    EPPR3   1,,PR1
        25 014665   200553 453500                    STP3    LENGTH_ID4$+3,,AUTO
        25 014666   000026 236000 26                 LDQ     22
        25 014667   200552 756100                    STQ     LENGTH_ID4$+2,,AUTO
PL6.E3A0      #001=Z8EA$INSPECT_1 File=Z8EA.:Z8A6TSI                             SAT 08/09/97 11:39 Page:441
        25 014670   200552 630500                    EPPR0   LENGTH_ID4$+2,,AUTO
        25 014671   000000 631400 26                 EPPR1   0
        25 014672   000000 701000 xent               TSX1    Z8AT$CREATE_TEMP_WITH_BASE
        25 014673   000000 011000                    NOP     0

     2919    44171    3                                           AFTER$ -> LX_ETT_ITEM.ETT$) ;
     2920    44172
     2921    44173               %NEW_ILL (@ID  = %MVII,
     2922    44174                         @LOP = "AFTER$ -> LX_ETT_ITEM.ETT$",
     2923    44175                         @ROP = COMCOM.VALUE_0) ;

  44488 25 014674   200453 470500                    LDP0    @AFTER$,,AUTO
        25 014675   000000 471500                    LDP1    0,,PR0
        25 014676   000031 236000 26                 LDQ     25
        25 014677   200552 756100                    STQ     LENGTH_ID4$+2,,AUTO
        25 014700   100001 633500                    EPPR3   1,,PR1
        25 014701   200557 453500                    STP3    LENGTH_ID4$+7,,AUTO
        25 014702   200552 631500                    EPPR1   LENGTH_ID4$+2,,AUTO
        25 014703   200556 451500                    STP1    LENGTH_ID4$+6,,AUTO
        25 014704   000032 237000 26                 LDAQ    26
        25 014705   200554 757100                    STAQ    LENGTH_ID4$+4,,AUTO
        25 014706   000002 236000 26                 LDQ     2
        25 014707   200553 756100                    STQ     LENGTH_ID4$+3,,AUTO
        25 014710   200553 630500                    EPPR0   LENGTH_ID4$+3,,AUTO
        25 014711   000027 631400 26                 EPPR1   23
        25 014712   000000 701000 xent               TSX1    Z8AN$NEW_ILL1
        25 014713   000000 011000                    NOP     0

  44491 25 014714   200453 470500                    LDP0    @AFTER$,,AUTO
        25 014715   000000 471500                    LDP1    0,,PR0
        25 014716   100001 236100                    LDQ     1,,PR1
        25 014717   000000 473400 1                  LDP3    ILL$
        25 014720   300001 756100                    STQ     1,,PR3

  44492 25 014721   000124 236000 xsym               LDQ     COMCOM+84
        25 014722   300002 756100                    STQ     2,,PR3

PL6.E3A0      #001=Z8EA$INSPECT_1 File=Z8EA.:Z8A6TSI                             SAT 08/09/97 11:39 Page:442
     2924    44554
     2925    44555    3   END CREATE_AFTER_LX_ETT_ITEM ;

  44555 25 014723   200452 221300                    LDX1  ! RESULT+8,,AUTO
        25 014724   000001 702211                    TSX2  ! 1,X1

     2926    44556
     2927    44557    2   END SCAN_BEFORE_AFTER ;
     2928    44558        %EJECT ;
PL6.E3A0      #001=Z8EA$INSPECT_1 File=Z8EA.:Z8A6TSI                             SAT 08/09/97 11:39 Page:443
     2929    44559        /*==========*/
     2930    44560    1     CONVERT_ID: PROC (ID$) ;

  44560 25 014725   200416 741300       CONVERT_ID   STX1  ! CONVERSION_ILS_LIST+8,,AUTO

     2931    44561        /*==========*/
     2932    44562
     2933    44563        /*I*   NAME: CONVERT_ID
     2934    44564
     2935    44565        DESCRIPTION: Convert an ASCII literal or identifier to type TYPE1, GBCD or EBCDIC.
     2936    44566
     2937    44567        */
     2938    44568
     2939    44569    2   DCL ID$ PTR ;
     2940    44570
     2941    44571    2          IF ID$ -> LX_ETT_ITEM.ETT$ -> ETT.ID = %TRIAD THEN

  44571 25 014726   200417 470500                    LDP0    @ID$,,AUTO
        25 014727   000000 471500                    LDP1    0,,PR0
        25 014730   100001 473500                    LDP3    1,,PR1
        25 014731   300000 220100                    LDX0    0,,PR3
        25 014732   000015 100003                    CMPX0   13,DU
        25 014733   014741 601000 25                 TNZ     s:44575

     2942    44572    2            CALL CONVERT_CONST (ID$) ;

  44572 25 014734   200417 236100                    LDQ     @ID$,,AUTO
        25 014735   200421 756100                    STQ     @CLAUSE_TYPE,,AUTO
        25 014736   015001 701000 25                 TSX1    CONVERT_CONST
        25 014737   000000 011000                    NOP     0
        25 014740   014777 710000 25                 TRA     s:44582

     2943    44573    2          ELSE
     2944    44574    3            DO ;

     2945    44575    3              IF TYPE1 = %TYB

PL6.E3A0      #001=Z8EA$INSPECT_1 File=Z8EA.:Z8A6TSI                             SAT 08/09/97 11:39 Page:444
  44575 25 014741   200355 235100                    LDA     TYPE1,,AUTO
        25 014742   000014 115007                    CMPA    12,DL
        25 014743   014747 601000 25                 TNZ     s:44577

     2946    44576    3                THEN J = %OP_ASCII_TO_GBCD ;

  44576 25 014744   000262 236007                    LDQ     178,DL
        25 014745   200325 756100                    STQ     J,,AUTO
        25 014746   014751 710000 25                 TRA     s:44578

     2947    44577    3                ELSE J = %OP_ASCII_TO_EBCDIC ;

  44577 25 014747   001662 236007                    LDQ     946,DL
        25 014750   200325 756100                    STQ     J,,AUTO

     2948    44578    3              CALL Z8CO$CREATE_LIBRARY_BASE (J, TABLE_ETT$) ;

  44578 25 014751   200350 631500                    EPPR1   TABLE_ETT$,,AUTO
        25 014752   200553 451500                    STP1    LENGTH_ID4$+3,,AUTO
        25 014753   200325 633500                    EPPR3   J,,AUTO
        25 014754   200552 453500                    STP3    LENGTH_ID4$+2,,AUTO
        25 014755   200552 630500                    EPPR0   LENGTH_ID4$+2,,AUTO
        25 014756   000000 631400 26                 EPPR1   0
        25 014757   000000 701000 xent               TSX1    Z8CO$CREATE_LIBRARY_BASE
        25 014760   000000 011000                    NOP     0

     2949    44579    3              CALL Z8AF$FORME (%CVT, ID$ -> LX_ETT_ITEM.ETT$, TABLE_ETT$, ID$ ->
             44579                       LX_ETT_ITEM.ETT$) ;

  44579 25 014761   200417 470500                    LDP0    @ID$,,AUTO
        25 014762   000000 471500                    LDP1    0,,PR0
        25 014763   100001 633500                    EPPR3   1,,PR1
        25 014764   200555 453500                    STP3    LENGTH_ID4$+5,,AUTO
        25 014765   200350 634500                    EPPR4   TABLE_ETT$,,AUTO
        25 014766   200554 454500                    STP4    LENGTH_ID4$+4,,AUTO
        25 014767   100001 635500                    EPPR5   1,,PR1
        25 014770   200553 455500                    STP5    LENGTH_ID4$+3,,AUTO
PL6.E3A0      #001=Z8EA$INSPECT_1 File=Z8EA.:Z8A6TSI                             SAT 08/09/97 11:39 Page:445
        25 014771   000022 236000 26                 LDQ     18
        25 014772   200552 756100                    STQ     LENGTH_ID4$+2,,AUTO
        25 014773   200552 630500                    EPPR0   LENGTH_ID4$+2,,AUTO
        25 014774   000010 631400 26                 EPPR1   8
        25 014775   000000 701000 xent               TSX1    Z8AF$FORME
        25 014776   000000 011000                    NOP     0

     2950    44580    3            END ;

     2951    44581
     2952    44582    2   END CONVERT_ID ;

  44582 25 014777   200416 221300                    LDX1  ! CONVERSION_ILS_LIST+8,,AUTO
        25 015000   000001 702211                    TSX2  ! 1,X1

     2953    44583        %EJECT ;
PL6.E3A0      #001=Z8EA$INSPECT_1 File=Z8EA.:Z8A6TSI                             SAT 08/09/97 11:39 Page:446
     2954    44584        /*=============*/
     2955    44585    1     CONVERT_CONST: PROC (ID$) ;

  44585 25 015001   200420 741300       CONVERT_CON* STX1  ! @LINK$,,AUTO

     2956    44586        /*=============*/
     2957    44587
     2958    44588        /*I*   NAME: CONVERT_CONST
     2959    44589
     2960    44590        DESCRIPTION: Convert an ASCII constant to type TYPE1, GBCD or EBCDIC.
     2961    44591
     2962    44592        */
     2963    44593
     2964    44594    2   DCL ID$               PTR ;
     2965    44595    2   DCL LONG_CONST        BOOLEAN ;
     2966    44596    2   DCL ASC_CONST$        PTR ;
     2967    44597    2   DCL CONST_LEN         SBIN ;
     2968    44598    2   DCL CONST$            PTR ;
     2969    44599    2   DCL CONST_LEN_IN_BITS SBIN ;
     2970    44600    2   DCL BASED$STR         CHAR (CONST_LEN) BASED ;
     2971    44601    2   DCL BCD$STR           BIT (CONST_LEN_IN_BITS) ALIGNED BASED ;
     2972    44602
     2973    44603               %GET_CONSTANT_ADDRESS (@CONSTANT = ID$ -> LX_ETT_ITEM.ETT$ -> ETT.LOP,
     2974    44604                                      @STRING   = ASC_CONST$) ;

  44606 25 015002   200421 470500                    LDP0    @ID$,,AUTO
        25 015003   000000 471500                    LDP1    0,,PR0
        25 015004   100001 473500                    LDP3    1,,PR1
        25 015005   300001 474500                    LDP4    1,,PR3
        25 015006   400003 234100                    SZN     3,,PR4
        25 015007   015014 605000 25                 TPL     s:44609

  44607 25 015010   400010 475500                    LDP5    8,,PR4
        25 015011   500001 636500                    EPPR6   1,,PR5
        25 015012   200423 456500                    STP6    ASC_CONST$,,AUTO
        25 015013   015016 710000 25                 TRA     s:44612

PL6.E3A0      #001=Z8EA$INSPECT_1 File=Z8EA.:Z8A6TSI                             SAT 08/09/97 11:39 Page:447
  44609 25 015014   400010 635500                    EPPR5   8,,PR4
        25 015015   200423 455500                    STP5    ASC_CONST$,,AUTO

     2975    44612    2          CONST_LEN = ID$ -> LX_ETT_ITEM.ETT$ -> ETT.LOP -> CONST.ADSC.N ;

  44612 25 015016   400001 236100                    LDQ     1,,PR4
        25 015017   007777 376007                    ANQ     4095,DL
        25 015020   200424 756100                    STQ     CONST_LEN,,AUTO

     2976    44613    2          IF TYPE1 = %TYE THEN

  44613 25 015021   200355 235100                    LDA     TYPE1,,AUTO
        25 015022   000006 115007                    CMPA    6,DL
        25 015023   015037 601000 25                 TNZ     s:44623

     2977    44614    3            DO ;

     2978    44615    3              IF CONST_LEN > 8 THEN

  44615 25 015024   000010 116007                    CMPQ    8,DL
        25 015025   015035 604400 25                 TMOZ    s:44621

     2979    44616    4                DO ;

     2980    44617    4                  LONG_CONST = TRUE ;

  44617 25 015026   400000 236003                    LDQ     -131072,DU
        25 015027   200422 756100                    STQ     LONG_CONST,,AUTO

     2981    44618    4                  ITERATION = (CONST_LEN + 7) / 4 ;

  44618 25 015030   200424 236100                    LDQ     CONST_LEN,,AUTO
        25 015031   000007 036007                    ADLQ    7,DL
        25 015032   000004 506007                    DIV     4,DL
        25 015033   000000 756000 0                  STQ     ITERATION

     2982    44619    4                END ;
PL6.E3A0      #001=Z8EA$INSPECT_1 File=Z8EA.:Z8A6TSI                             SAT 08/09/97 11:39 Page:448

  44619 25 015034   015051 710000 25                 TRA     s:44637

     2983    44620    3              ELSE
     2984    44621    3                LONG_CONST = FALSE ;

  44621 25 015035   200422 450100                    STZ     LONG_CONST,,AUTO

     2985    44622    3            END ;

  44622 25 015036   015051 710000 25                 TRA     s:44637

     2986    44623    2          ELSE IF CONST_LEN > 12 THEN

  44623 25 015037   000014 116007                    CMPQ    12,DL
        25 015040   015050 604400 25                 TMOZ    s:44629

     2987    44624    3            DO ;

     2988    44625    3              LONG_CONST = TRUE ;

  44625 25 015041   400000 236003                    LDQ     -131072,DU
        25 015042   200422 756100                    STQ     LONG_CONST,,AUTO

     2989    44626    3              ITERATION = (CONST_LEN + 11) / 6 ;

  44626 25 015043   200424 236100                    LDQ     CONST_LEN,,AUTO
        25 015044   000013 036007                    ADLQ    11,DL
        25 015045   000006 506007                    DIV     6,DL
        25 015046   000000 756000 0                  STQ     ITERATION

     2990    44627    3            END ;

  44627 25 015047   015051 710000 25                 TRA     s:44637

     2991    44628    2          ELSE
     2992    44629    2            LONG_CONST = FALSE ;
PL6.E3A0      #001=Z8EA$INSPECT_1 File=Z8EA.:Z8A6TSI                             SAT 08/09/97 11:39 Page:449

  44629 25 015050   200422 450100                    STZ     LONG_CONST,,AUTO

     2993    44630
     2994    44631               %NEW_CONST (@ST$           = ST$,
     2995    44632                           @TYPE          = TYPE1,
     2996    44633                           @LONG_CONSTANT = LONG_CONST) ;

  44637 25 015051   000002 236000 6                  LDQ     ST_+2
        25 015052   000013 036007                    ADLQ    11,DL
        25 015053   000003 116000 6                  CMPQ    ST_+3
        25 015054   015065 604000 25                 TMI     s:44639

  44638 25 015055   000055 236000 26                 LDQ     45
        25 015056   200552 756100                    STQ     LENGTH_ID4$+2,,AUTO
        25 015057   200552 631500                    EPPR1   LENGTH_ID4$+2,,AUTO
        25 015060   200553 451500                    STP1    LENGTH_ID4$+3,,AUTO
        25 015061   200553 630500                    EPPR0   LENGTH_ID4$+3,,AUTO
        25 015062   000041 631400 26                 EPPR1   33
        25 015063   000000 701000 xent               TSX1    Z8AR$RESERVER
        25 015064   000000 011000                    NOP     0

  44639 25 015065   000002 236000 6                  LDQ     ST_+2
        25 015066   000022 736000                    QLS     18
        25 015067   000001 036000 6                  ADLQ    ST_+1
        25 015070   000000 756000 5                  STQ     ST$

  44640 25 015071   000013 236007                    LDQ     11,DL
        25 015072   000002 056000 6                  ASQ     ST_+2

  44643 25 015073   000767 220003                    LDX0    503,DU
        25 015074   000000 470400 5                  LDP0    ST$
        25 015075   000000 740100                    STX0    0,,PR0

  44644 25 015076   000000 470400 5                  LDP0    ST$
        25 015077   001000 236007                    LDQ     512,DL
        25 015100   000000 552110                    STBQ    0,'10'O,PR0
PL6.E3A0      #001=Z8EA$INSPECT_1 File=Z8EA.:Z8A6TSI                             SAT 08/09/97 11:39 Page:450

  44645 25 015101   000000 470400 5                  LDP0    ST$
        25 015102   000126 236000 xsym               LDQ     O1COM+86
        25 015103   000000 552104                    STBQ    0,'04'O,PR0

  44646 25 015104   200355 721100                    LXL1    TYPE1,,AUTO
        25 015105   000000 470400 5                  LDP0    ST$
        25 015106   000002 741100                    STX1    2,,PR0

  44647 25 015107   000003 450100                    STZ     3,,PR0

  44648 25 015110   000005 236000 26                 LDQ     5
        25 015111   000004 756100                    STQ     4,,PR0

  44649 25 015112   000005 236000 26                 LDQ     5
        25 015113   000005 756100                    STQ     5,,PR0

  44650 25 015114   000005 236000 26                 LDQ     5
        25 015115   000006 756100                    STQ     6,,PR0

  44652 25 015116   200422 236100                    LDQ     LONG_CONST,,AUTO
        25 015117   000003 676100                    ERQ     3,,PR0
        25 015120   400000 376003                    ANQ     -131072,DU
        25 015121   000003 656100                    ERSQ    3,,PR0

     2997    44674    2          ST$ -> CONST.DESCL = CONST_LEN ;

  44674 25 015122   200424 722100                    LXL2    CONST_LEN,,AUTO
        25 015123   000001 442100                    SXL2    1,,PR0

     2998    44675
     2999    44676    2          IF LONG_CONST THEN

  44676 25 015124   200422 234100                    SZN     LONG_CONST,,AUTO
        25 015125   015166 605000 25                 TPL     s:44768

     3000    44677    3            DO ;
PL6.E3A0      #001=Z8EA$INSPECT_1 File=Z8EA.:Z8A6TSI                             SAT 08/09/97 11:39 Page:451

     3001    44678                   %RESERVE_LTS (ITEM = %LCNST, POINTER = LTS$) ;

  44754 25 015126   000002 236000 16                 LDQ     LTS_+2
        25 015127   000000 036000 0                  ADLQ    ITERATION
        25 015130   000003 116000 16                 CMPQ    LTS_+3
        25 015131   015142 604000 25                 TMI     s:44756

  44755 25 015132   000052 236000 26                 LDQ     42
        25 015133   200552 756100                    STQ     LENGTH_ID4$+2,,AUTO
        25 015134   200552 631500                    EPPR1   LENGTH_ID4$+2,,AUTO
        25 015135   200553 451500                    STP1    LENGTH_ID4$+3,,AUTO
        25 015136   200553 630500                    EPPR0   LENGTH_ID4$+3,,AUTO
        25 015137   000041 631400 26                 EPPR1   33
        25 015140   000000 701000 xent               TSX1    Z8AR$RESERVER
        25 015141   000000 011000                    NOP     0

  44756 25 015142   000002 236000 16                 LDQ     LTS_+2
        25 015143   000022 736000                    QLS     18
        25 015144   000001 036000 16                 ADLQ    LTS_+1
        25 015145   000000 756000 15                 STQ     LTS$

  44757 25 015146   000002 236000 16                 LDQ     LTS_+2
        25 015147   000000 036000 0                  ADLQ    ITERATION
        25 015150   000002 756000 16                 STQ     LTS_+2

  44758 25 015151   001106 220003                    LDX0    582,DU
        25 015152   000000 470400 15                 LDP0    LTS$
        25 015153   000000 740100                    STX0    0,,PR0

  44760 25 015154   000000 721000 0                  LXL1    ITERATION
        25 015155   000000 470400 15                 LDP0    LTS$
        25 015156   000000 441100                    SXL1    0,,PR0

     3002    44764    3              CONST$ = ADDR (LTS$ -> LCNST.CONST) ;

  44764 25 015157   000000 236000 15                 LDQ     LTS$
PL6.E3A0      #001=Z8EA$INSPECT_1 File=Z8EA.:Z8A6TSI                             SAT 08/09/97 11:39 Page:452
        25 015160   000001 036003                    ADLQ    1,DU
        25 015161   200425 756100                    STQ     CONST$,,AUTO

     3003    44765    3              ST$ -> CONST.CONST$.PTR$ = LTS$ ;

  44765 25 015162   000000 236000 15                 LDQ     LTS$
        25 015163   000000 470400 5                  LDP0    ST$
        25 015164   000010 756100                    STQ     8,,PR0

     3004    44766    3            END ;

  44766 25 015165   015171 710000 25                 TRA     s:44769

     3005    44767    2          ELSE
     3006    44768    2            CONST$ = ADDR (ST$ -> CONST.CONSTA) ;

  44768 25 015166   000000 236000 5                  LDQ     ST$
        25 015167   000010 036003                    ADLQ    8,DU
        25 015170   200425 756100                    STQ     CONST$,,AUTO

     3007    44769    2          IF ID$ -> LX_ITEM.SYMBOL = %RSV_WRD_LOW_VALUES THEN

  44769 25 015171   200421 471500                    LDP1    @ID$,,AUTO
        25 015172   100000 473500                    LDP3    0,,PR1
        25 015173   300003 235100                    LDA     3,,PR3
        25 015174   000433 115007                    CMPA    283,DL
        25 015175   015210 601000 25                 TNZ     s:44775

     3008    44770    3            DO ;

     3009    44771    3              ST$ -> CONST.CONSTI = '0'B ;

  44771 25 015176   000010 450100                    STZ     8,,PR0
        25 015177   000011 450100                    STZ     9,,PR0

     3010    44772    3              IF TYPE1 = %TYB THEN

PL6.E3A0      #001=Z8EA$INSPECT_1 File=Z8EA.:Z8A6TSI                             SAT 08/09/97 11:39 Page:453
  44772 25 015200   200355 235100                    LDA     TYPE1,,AUTO
        25 015201   000014 115007                    CMPA    12,DL
        25 015202   015265 601000 25                 TNZ     s:44790

     3011    44773    3                ST$ -> CONST.ADSC.TA = %ADSC6 ;

  44773 25 015203   000001 236100                    LDQ     1,,PR0
        25 015204   000114 376000 26                 ANQ     76
        25 015205   020000 276007                    ORQ     8192,DL
        25 015206   000001 756100                    STQ     1,,PR0

     3012    44774    3            END ;

  44774 25 015207   015265 710000 25                 TRA     s:44790

     3013    44775    2          ELSE IF TYPE1 = %TYE THEN

  44775 25 015210   200355 236100                    LDQ     TYPE1,,AUTO
        25 015211   000006 116007                    CMPQ    6,DL
        25 015212   015233 601000 25                 TNZ     s:44783

     3014    44776    3            DO ;

     3015    44777    3              IF ID$ -> LX_ITEM.SYMBOL = %RSV_WRD_HIGH_VALUES

  44777 25 015213   000351 115007                    CMPA    233,DL
        25 015214   015223 601000 25                 TNZ     s:44779

     3016    44778    3                THEN CONST$ -> BASED$STR = BITASC ('377'O) ;

  44778 25 015215   200425 474500                    LDP4    CONST$,,AUTO
        25 015216   200424 720100                    LXL0    CONST_LEN,,AUTO
        25 015217   040140 100400                    MLR     fill='040'O
        25 015220   000115 000001 26                 ADSC9   77                       cn=0,n=1
        25 015221   400000 000010                    ADSC9   0,,PR4                   cn=0,n=*X0
        25 015222   015265 710000 25                 TRA     s:44790

PL6.E3A0      #001=Z8EA$INSPECT_1 File=Z8EA.:Z8A6TSI                             SAT 08/09/97 11:39 Page:454
     3017    44779    3                ELSE CALL XLATE (CONST$ -> BASED$STR, EBCDIC, ASC_CONST$ -> BASED$STR)
             44779                         ;

  44779 25 015223   200423 474500                    LDP4    ASC_CONST$,,AUTO
        25 015224   200424 720100                    LXL0    CONST_LEN,,AUTO
        25 015225   200425 475500                    LDP5    CONST$,,AUTO
        25 015226   040140 160540                    MVT     fill='040'O
        25 015227   400000 000010                    ADSC9   0,,PR4                   cn=0,n=*X0
        25 015230   500000 000010                    ADSC9   0,,PR5                   cn=0,n=*X0
        25 015231   000000 000000 xsym               ARG     EBCDIC

     3018    44780    3            END ;

  44780 25 015232   015265 710000 25                 TRA     s:44790

     3019    44781    2          ELSE
     3020    44782    3            DO ; /* %TYB */

     3021    44783    3              CONST_LEN_IN_BITS = CONST_LEN * 6 ;

  44783 25 015233   200424 236100                    LDQ     CONST_LEN,,AUTO
        25 015234   000006 402007                    MPY     6,DL
        25 015235   200426 756100                    STQ     CONST_LEN_IN_BITS,,AUTO

     3022    44784    3              IF ID$ -> LX_ITEM.SYMBOL = %RSV_WRD_HIGH_VALUES

  44784 25 015236   300003 235100                    LDA     3,,PR3
        25 015237   000351 115007                    CMPA    233,DL
        25 015240   015247 601000 25                 TNZ     s:44786

     3023    44785    3                THEN CONST$ -> BCD$STR = '77'O ;

  44785 25 015241   200425 474500                    LDP4    CONST$,,AUTO
        25 015242   000000 620006                    EAX0    0,QL
        25 015243   003140 060400                    CSL     bolr='003'O
        25 015244   000116 000006 26                 BDSC    78                       by=0,bit=0,n=6
        25 015245   400000 000010                    BDSC    0,,PR4                   by=0,bit=0,n=*X0
PL6.E3A0      #001=Z8EA$INSPECT_1 File=Z8EA.:Z8A6TSI                             SAT 08/09/97 11:39 Page:455
        25 015246   015260 710000 25                 TRA     s:44787

     3024    44786    3                ELSE CALL XLATE_9_TO_6 (CONST$ -> BCD$STR, GBCD, ASC_CONST$ ->
             44786                         BASED$STR) ;

  44786 25 015247   000006 506007                    DIV     6,DL
        25 015250   200423 474500                    LDP4    ASC_CONST$,,AUTO
        25 015251   200424 720100                    LXL0    CONST_LEN,,AUTO
        25 015252   200425 475500                    LDP5    CONST$,,AUTO
        25 015253   000000 621006                    EAX1    0,QL
        25 015254   040140 160540                    MVT     fill='040'O
        25 015255   400000 000010                    ADSC9   0,,PR4                   cn=0,n=*X0
        25 015256   500000 020011                    ADSC6   0,,PR5                   cn=0,n=*X1
        25 015257   000000 000000 xsym               ARG     GBCD

     3025    44787    3              ST$ -> CONST.ADSC.TA = %ADSC6 ;

  44787 25 015260   000000 470400 5                  LDP0    ST$
        25 015261   000001 236100                    LDQ     1,,PR0
        25 015262   000114 376000 26                 ANQ     76
        25 015263   020000 276007                    ORQ     8192,DL
        25 015264   000001 756100                    STQ     1,,PR0

     3026    44788    3            END ;

     3027    44789
     3028    44790    2          CALL Z8AF$FORME (%TRIAD, ST$, ADDR(NIL), ID$ -> LX_ETT_ITEM.ETT$) ;

  44790 25 015265   100000 470500                    LDP0    0,,PR1
        25 015266   000005 236000 26                 LDQ     5
        25 015267   200552 756100                    STQ     LENGTH_ID4$+2,,AUTO
        25 015270   000001 633500                    EPPR3   1,,PR0
        25 015271   200557 453500                    STP3    LENGTH_ID4$+7,,AUTO
        25 015272   200552 630500                    EPPR0   LENGTH_ID4$+2,,AUTO
        25 015273   200556 450500                    STP0    LENGTH_ID4$+6,,AUTO
        25 015274   000060 237000 26                 LDAQ    48
        25 015275   200554 757100                    STAQ    LENGTH_ID4$+4,,AUTO
PL6.E3A0      #001=Z8EA$INSPECT_1 File=Z8EA.:Z8A6TSI                             SAT 08/09/97 11:39 Page:456
        25 015276   200554 630500                    EPPR0   LENGTH_ID4$+4,,AUTO
        25 015277   000010 631400 26                 EPPR1   8
        25 015300   000000 701000 xent               TSX1    Z8AF$FORME
        25 015301   000000 011000                    NOP     0

     3029    44791    2          ID$ -> LX_ETT_ITEM.TYPE = TYPE1 ;

  44791 25 015302   200421 470500                    LDP0    @ID$,,AUTO
        25 015303   000000 471500                    LDP1    0,,PR0
        25 015304   200355 235100                    LDA     TYPE1,,AUTO
        25 015305   100004 755100                    STA     4,,PR1

     3030    44792
     3031    44793    2   END CONVERT_CONST ;

  44793 25 015306   200420 221300                    LDX1  ! @LINK$,,AUTO
        25 015307   000001 702211                    TSX2  ! 1,X1
     3032    44794
     3033    44795    1   END Z8EA$INSPECT_1 ;
     3034    44796
     3035    44797        %EOD;

PL6.E3A0      #001=Z8EA$INSPECT_1 File=Z8EA.:Z8A6TSI                             SAT 08/09/97 11:39 Page:457
--  Include file information  --

   Z8A_MKCN.:Z8A6TOU  cannot be made into a system file and is referenced.
   Z8A_ERR_NUMS.:Z8A6TOU  is referenced.
   Z8E_O1COM.:Z8A6TOU  cannot be made into a system file and is referenced.
   Z8E_TRANSLAT.:Z8A6TOU  cannot be made into a system file and is referenced.
   Z8A_LEX_SYMB.:Z8A6TOU  cannot be made into a system file and is referenced.
   Z8E_STACKS.:Z8A6TOU  cannot be made into a system file and is referenced.
   Z8E_NEW_ILL.:Z8A6TOU  is referenced.
   Z8E_MACROS.:Z8A6TOU  cannot be made into a system file and is referenced.
   Z8E_WINDOW.:Z8A6TOU  is referenced.
   Z8E_HEAP.:Z8A6TOU  cannot be made into a system file and is referenced.
   Z8A_LIBRARY.:Z8A6TOU  cannot be made into a system file and is referenced.
   Z8A_COMCOM.:Z8A6TOU  cannot be made into a system file and is referenced.
   Z8A_SRCH.:Z8A6TOU  cannot be made into a system file and is referenced.
   Z8A_LTS.:Z8A6TOU  cannot be made into a system file and is referenced.
   Z8A_ETT.:Z8A6TOU  cannot be made into a system file and is referenced.
   Z8A_DNT.:Z8A6TOU  cannot be made into a system file and is referenced.
   Z8A_TYPES.:Z8A6TOU  is referenced.
   Z8A_ST.:Z8A6TOU  cannot be made into a system file and is referenced.
   Z8A_ILS.:Z8A6TOU  cannot be made into a system file and is referenced.
   Z8A_ILL.:Z8A6TOU  cannot be made into a system file and is referenced.
   Z8E_ILS_LIST.:Z8A6TOU  is referenced.
   X8A_COM_MACS.:X8A6TOU  is referenced.
   Z8A_NAMES.:Z8A6TOU  is referenced.
   Z8A_SUPP_MAC.:Z8A6TOU  is referenced.
   Z8A_DEFC.:Z8A6TOU  cannot be made into a system file and is referenced.
      No diagnostics issued in procedure Z8EA$INSPECT_1.
PL6.E3A0      #001=Z8EA$INSPECT_1 File=Z8EA.:Z8A6TSI                             SAT 08/09/97 11:39 Page:458

 **** Variables and constants ****

  ****  Section 000 LblCom ITERATION

  ****  Scalars and arrays  ****
OctLoc.c.b A Datatyp(siz) R M Lvl/name                 OctLoc.c.b A Datatyp(siz) R M Lvl/name

     0-0-0/w SBIN        r     1 ITERATION

  ****  Section 001 LblCom ILL$

  ****  Scalars and arrays  ****
OctLoc.c.b A Datatyp(siz) R M Lvl/name                 OctLoc.c.b A Datatyp(siz) R M Lvl/name

     0-0-0/w PTR         r     1 ILL$

  ****  Section 002 LblCom ILL_

  ****  Scalars and arrays  ****
OctLoc.c.b A Datatyp(siz) R M Lvl/name                 OctLoc.c.b A Datatyp(siz) R M Lvl/name

     0-0-0/w STRC(180)         1 ILL_

  ****  Section 003 LblCom ILS$

  ****  Scalars and arrays  ****
OctLoc.c.b A Datatyp(siz) R M Lvl/name                 OctLoc.c.b A Datatyp(siz) R M Lvl/name

     0-0-0/w PTR         r     1 ILS$

  ****  Section 004 LblCom ILS_

  ****  Scalars and arrays  ****
OctLoc.c.b A Datatyp(siz) R M Lvl/name                 OctLoc.c.b A Datatyp(siz) R M Lvl/name

     0-0-0/w STRC(180)         1 ILS_

PL6.E3A0      #001=Z8EA$INSPECT_1 File=Z8EA.:Z8A6TSI                             SAT 08/09/97 11:39 Page:459
  ****  Section 005 LblCom ST$

  ****  Scalars and arrays  ****
OctLoc.c.b A Datatyp(siz) R M Lvl/name                 OctLoc.c.b A Datatyp(siz) R M Lvl/name

     0-0-0/w PTR         r     1 ST$

  ****  Section 006 LblCom ST_

  ****  Scalars and arrays  ****
OctLoc.c.b A Datatyp(siz) R M Lvl/name                 OctLoc.c.b A Datatyp(siz) R M Lvl/name

     0-0-0/w STRC(180)   r     1 ST_

  ****  Section 007 LblCom DNT$

  ****  Scalars and arrays  ****
OctLoc.c.b A Datatyp(siz) R M Lvl/name                 OctLoc.c.b A Datatyp(siz) R M Lvl/name

     0-0-0/w PTR         r     1 DNT$

  ****  Section 008 LblCom DNT_

  ****  Scalars and arrays  ****
OctLoc.c.b A Datatyp(siz) R M Lvl/name                 OctLoc.c.b A Datatyp(siz) R M Lvl/name

     0-0-0/w STRC(180)         1 DNT_

  ****  Section 009 LblCom DNT_BUCKET_NUMBER

  ****  Scalars and arrays  ****
OctLoc.c.b A Datatyp(siz) R M Lvl/name                 OctLoc.c.b A Datatyp(siz) R M Lvl/name

     0-0-0/w UBIN              1 DNT_BUCKET_NUMBER

  ****  Section 010 LblCom DNT_OF_1$

PL6.E3A0      #001=Z8EA$INSPECT_1 File=Z8EA.:Z8A6TSI                             SAT 08/09/97 11:39 Page:460
  ****  Scalars and arrays  ****
OctLoc.c.b A Datatyp(siz) R M Lvl/name                 OctLoc.c.b A Datatyp(siz) R M Lvl/name

     0-0-0/w PTR               1 DNT_OF_1$

  ****  Section 011 LblCom ETT$

  ****  Scalars and arrays  ****
OctLoc.c.b A Datatyp(siz) R M Lvl/name                 OctLoc.c.b A Datatyp(siz) R M Lvl/name

     0-0-0/w PTR         r     1 ETT$

  ****  Section 012 LblCom HEAD_ETT$

  ****  Scalars and arrays  ****
OctLoc.c.b A Datatyp(siz) R M Lvl/name                 OctLoc.c.b A Datatyp(siz) R M Lvl/name

     0-0-0/w PTR               1 HEAD_ETT$

  ****  Section 013 LblCom ETT_BUCKETS

  ****  Scalars and arrays  ****
OctLoc.c.b A Datatyp(siz) R M Lvl/name                 OctLoc.c.b A Datatyp(siz) R M Lvl/name

     0-0-0/w PTR               1 ETT_BUCKETS(0:511)

  ****  Section 014 LblCom ETT_

  ****  Scalars and arrays  ****
OctLoc.c.b A Datatyp(siz) R M Lvl/name                 OctLoc.c.b A Datatyp(siz) R M Lvl/name

     0-0-0/w STRC(180)         1 ETT_

  ****  Section 015 LblCom LTS$

  ****  Scalars and arrays  ****
OctLoc.c.b A Datatyp(siz) R M Lvl/name                 OctLoc.c.b A Datatyp(siz) R M Lvl/name
PL6.E3A0      #001=Z8EA$INSPECT_1 File=Z8EA.:Z8A6TSI                             SAT 08/09/97 11:39 Page:461

     0-0-0/w PTR               1 LONG_ITEM$                 0-0-0/w PTR         r     1 LTS$

  ****  Section 016 LblCom LTS_

  ****  Scalars and arrays  ****
OctLoc.c.b A Datatyp(siz) R M Lvl/name                 OctLoc.c.b A Datatyp(siz) R M Lvl/name

     0-0-0/w STRC(180)   r     1 LTS_

  ****  Section 017 LblCom SRCH

  ****  Scalars and arrays  ****
OctLoc.c.b A Datatyp(siz) R M Lvl/name                 OctLoc.c.b A Datatyp(siz) R M Lvl/name

     0-0-0/w STRC(108)         1 SRCH

  ****  Section 018 LblCom HEAP$

  ****  Scalars and arrays  ****
OctLoc.c.b A Datatyp(siz) R M Lvl/name                 OctLoc.c.b A Datatyp(siz) R M Lvl/name

     0-0-0/w PTR               1 HEAP$

  ****  Section 019 LblCom LEX_SYMBOL

  ****  Scalars and arrays  ****
OctLoc.c.b A Datatyp(siz) R M Lvl/name                 OctLoc.c.b A Datatyp(siz) R M Lvl/name

     0-0-0/w STRC(3240)  r     1 LEX_SYMBOL                 0-0-0/w STRC(3240)        1 LEX_SYMBOL_WORDS

  ****  Section 020 LblCom CURRENT_LEX_SYMBOL$

  ****  Scalars and arrays  ****
OctLoc.c.b A Datatyp(siz) R M Lvl/name                 OctLoc.c.b A Datatyp(siz) R M Lvl/name

     0-0-0/w PTR         r     1 CURRENT_LEX_SYMBOL$
PL6.E3A0      #001=Z8EA$INSPECT_1 File=Z8EA.:Z8A6TSI                             SAT 08/09/97 11:39 Page:462

  ****  Section 021 LblCom TEMP_LEX_SYMBOL

  ****  Scalars and arrays  ****
OctLoc.c.b A Datatyp(siz) R M Lvl/name                 OctLoc.c.b A Datatyp(siz) R M Lvl/name

     0-0-0/w STRC(3240)        1 TEMP_LEX_SYMBOL

  ****  Section 022 LblCom TEMP_LEX_SYMBOL2

  ****  Scalars and arrays  ****
OctLoc.c.b A Datatyp(siz) R M Lvl/name                 OctLoc.c.b A Datatyp(siz) R M Lvl/name

     0-0-0/w STRC(3240)        1 TEMP_LEX_SYMBOL2

  ****  Section 023 LblCom MKCN

  ****  Scalars and arrays  ****
OctLoc.c.b A Datatyp(siz) R M Lvl/name                 OctLoc.c.b A Datatyp(siz) R M Lvl/name

     0-0-0/w STRC(72)          1 MKCN

  ****  Section 024  Data  Z8EA$INSPECT_1

  ****  Scalars and arrays  ****
OctLoc.c.b A Datatyp(siz) R M Lvl/name                 OctLoc.c.b A Datatyp(siz) R M Lvl/name

     0-0-0/w PTR         r     1 ASCASC$                    1-0-0/w PTR         r     1 POINTER$

  ****  Auto variables  ****

  ****  Scalars and arrays  ****
OctLoc.c.b A Datatyp(siz) R M Lvl/name                 OctLoc.c.b A Datatyp(siz) R M Lvl/name

   421-0-0/w PTR         r     1 @AFTER$                  453-0-0/w PTR         r     1 @AFTER$
   420-0-0/w PTR         r     1 @BEFORE$                 421-0-0/w PTR         r     1 @CLAUSE_TYPE
   417-0-0/w PTR         r     1 @END_BEFORE_IF$          417-0-0/w PTR         r     1 @END_IF$
PL6.E3A0      #001=Z8EA$INSPECT_1 File=Z8EA.:Z8A6TSI                             SAT 08/09/97 11:39 Page:463
   423-0-0/w PTR         r     1 @ETT$                    417-0-0/w PTR         r     1 @ID$
   463-0-0/w PTR         r     1 @ID$                     471-0-0/w PTR         r     1 @ID$
   417-0-0/w PTR         r     1 @ID$                     421-0-0/w PTR         r     1 @ID$
   457-0-0/w PTR         r     1 @ID1$                    422-0-0/w PTR         r     1 @ID1$
   417-0-0/w PTR         r     1 @ID2$                    460-0-0/w PTR         r     1 @ID2$
     3-0-0/w PTR         r     1 @INSPECT$                420-0-0/w PTR         r     1 @LINK$
   417-0-0/w PTR         r     1 @LX_ITEM$                417-0-0/w PTR         r     1 @LX_ITEM$
   453-0-0/w PTR         r     1 @LX_LIST$                420-0-0/w PTR         r     1 @TEMP$
   423-0-0/w PTR         r     1 AB$                      226-0-0/d STRC(288)   r     1 ADD
   266-0-0/w PTR         r     1 ADD$                     267-0-0/w PTR         r     1 AFTER$
    *0-0-0/w PTR         r     1 AFTER$                   424-0-0/w PTR         r     1 AFTER$
    *0-0-0/w PTR         r     1 AFTER$                   270-0-0/w PTR         r     1 ALL$
   271-0-0/w PTR         r     1 ASCBIN$                  206-0-0/d STRC(288)   r     1 ASC_BIN
   423-0-0/w PTR         r     1 ASC_CONST$               272-0-0/c CHAR        r     1 ATOA_CHAR
   421-0-0/w PTR         r     1 BASE$                    422-0-0/b BIT (6)     r     1 BCD_CHAR
   273-0-0/w PTR         r     1 BEFORE$                   *0-0-0/w PTR         r     1 BEFORE$
   425-0-0/w PTR         r     1 BEFORE$                  274-0-0/w PTR         r     1 BEFORE_AFTER$
   454-0-0/w SBIN        r     1 BEFORE_AFTER_TYPE        457-0-0/w PTR         r     1 BEGAIN_INDEX$
   275-0-0/w PTR               1 BLOCK$                   421-0-0/c STRC(9)     r     1 CH1
   421-0-0/c STRC(9)     r     1 CH1B                     421-0-0/c CHAR        r     1 CHAR1
   422-0-0/w PTR         r     1 CLAUSE$                  276-0-0/w SBIN        r     1 CLAUSE_TYPE
    *0-0-0/w SBIN        r     1 CLAUSE_TYPE              176-0-0/d STRC(288)   r     1 COMPARISON
   502-0-0/d STRC(288)   r     1 COMPARISON               277-0-0/w PTR         r     1 COMPARISON$
   546-0-0/w PTR         r     1 COMPARISON$              420-0-0/w PTR         r     1 CONST$
   425-0-0/w PTR         r     1 CONST$                   424-0-0/w SBIN        r     1 CONST_LEN
   426-0-0/w SBIN        r     1 CONST_LEN_IN_BITS        406-0-0/d STRC(288)   r     1 CONVERSION_ILS_LIST
   462-0-0/d STRC(288)   r     1 COUNT                    542-0-0/w PTR         r     1 COUNT$
   543-0-0/w PTR               1 COUNT_BASE$              465-0-0/w PTR         r     1 DNT$$
   376-0-0/d STRC(288)   r     1 DO_BODY_ILS_LIST         300-0-0/w PTR         r     1 END_AFTER_IF$
   301-0-0/w PTR         r     1 END_BEFORE_IF$            *0-0-0/w PTR         r     1 END_BEFORE_IF$
   302-0-0/w PTR         r     1 END_IF$                   *0-0-0/w PTR         r     1 END_IF$
   460-0-0/w PTR         r     1 END_INDEX$               303-0-0/w PTR         r     1 END_LOOP$
    *0-0-0/w PTR         r     1 ETT$                     464-0-0/w PTR         r     1 ETT$$
   246-0-0/d STRC(288)         1 ETT_ITEM                 304-0-0/w PTR         r     1 FIRST$
   306-0-0/w PTR         r     1 FOR$                     305-0-0/w PTR               1 FOR_LIST$
   307-0-0/w SBIN        r     1 I                         *0-0-0/w PTR         r     1 ID$
    *0-0-0/w PTR         r     1 ID$                       *0-0-0/w PTR         r     1 ID$
PL6.E3A0      #001=Z8EA$INSPECT_1 File=Z8EA.:Z8A6TSI                             SAT 08/09/97 11:39 Page:464
    *0-0-0/w PTR         r     1 ID$                       *0-0-0/w PTR         r     1 ID$
   166-0-0/d STRC(288)   r     1 ID1                      311-0-0/w PTR         r     1 ID1$
    *0-0-0/w PTR         r     1 ID1$                      *0-0-0/w PTR         r     1 ID1$
   310-0-0/w UBIN        r     1 ID1_ORIG_TYPE            312-0-0/w PTR         r     1 ID1_ST$
   313-0-0/w PTR         r     1 ID2$                      *0-0-0/w PTR         r     1 ID2$
    *0-0-0/w PTR         r     1 ID2$                     156-0-0/d STRC(288)   r     1 ID2_ORIGINAL
   420-0-0/w PTR         r     1 ID2_ORIGINAL$            314-0-0/w PTR         r     1 ID3$
   315-0-0/c STRC(9)     r     1 ID3_BCD_CHAR             315-0-0/c CHAR        r     1 ID3_CHAR
   356-0-0/w STRC(144)   r     1 ID3_DESC                 426-0-0/w PTR         r     1 ID4$
   317-0-0/w PTR         r     1 ID5$                     316-0-0/c STRC(9)     r     1 ID5_BCD_CHAR
   316-0-0/c CHAR        r     1 ID5_CHAR                 362-0-0/w STRC(144)   r     1 ID5_DESC
   320-0-0/w PTR         r     1 ID6$                     315-0-0/c STRC(9)     r     1 ID6_BCD_CHAR
   315-0-0/c CHAR        r     1 ID6_CHAR                 321-0-0/w PTR         r     1 ID6_CHAR$
   356-0-0/w STRC(144)   r     1 ID6_DESC                 322-0-0/w PTR         r     1 ID7$
   316-0-0/c STRC(9)     r     1 ID7_BCD_CHAR             316-0-0/c CHAR        r     1 ID7_CHAR
   323-0-0/w PTR         r     1 ID7_CHAR$                362-0-0/w STRC(144)   r     1 ID7_DESC
   146-0-0/d STRC(288)   r     1 ID7_SUBSTR               324-0-0/w PTR         r     1 ID7_SUBSTR$
   427-0-0/w PTR         r     1 INDEX$                   432-0-0/d STRC(288)   r     1 INDEXX
    *0-0-0/w PTR         r     1 INSPECT$                 325-0-0/w SBIN        r     1 J
   466-0-0/w SBIN        r     1 LEN                       26-0-0/d STRC(288)   r     1 LENGTH
   326-0-0/w PTR         r     1 LENGTH$                   36-0-0/d STRC(288)   r     1 LENGTH_ID1
   512-0-0/d STRC(288)   r     1 LENGTH_ID1               327-0-0/w PTR         r     1 LENGTH_ID1$
   547-0-0/w PTR         r     1 LENGTH_ID1$               56-0-0/d STRC(288)   r     1 LENGTH_ID1_ID3
   331-0-0/w PTR         r     1 LENGTH_ID1_ID3$           46-0-0/d STRC(288)   r     1 LENGTH_ID3
   330-0-0/w PTR         r     1 LENGTH_ID3$              522-0-0/d STRC(288)   r     1 LENGTH_ID4
   550-0-0/w PTR         r     1 LENGTH_ID4$               66-0-0/d STRC(288)   r     1 LENGTH_ID5
   332-0-0/w PTR         r     1 LENGTH_ID5$              461-0-0/w PTR         r     1 LINK$
    *0-0-0/w PTR         r     1 LINK$                    422-0-0/b BIT         r     1 LONG_CONST
    *0-0-0/w PTR         r     1 LX_ITEM$                  *0-0-0/w PTR         r     1 LX_ITEM$
   333-0-0/w PTR         r     1 LX_LIST$                 430-0-0/w PTR         r     1 LX_LIST$
    *0-0-0/w PTR         r     1 LX_LIST$                   4-0-0/w STRC(324)         1 NAME
   334-0-0/w SBIN        r     1 NO_OF_CLAUSES            116-0-0/d STRC(288)   r     1 ONE
   335-0-0/w PTR         r     1 ONE$                     336-0-0/w PTR         r     1 ONE_LX_ETT$
   337-0-0/b BIT         r     1 OPTIMIZABLE              256-0-0/d STRC(288)         1 OP_NODE
    16-0-0/d STRC(288)   r     1 POINTER                   76-0-0/d STRC(288)   r     1 POSITION
   340-0-0/w PTR         r     1 POSITION$                341-0-0/b BIT         r     1 PRODUCE_INSPECT_ILS
   342-0-0/w PTR         r     1 REPLACE$                 343-0-0/w PTR               1 REPLACE_LIST$
PL6.E3A0      #001=Z8EA$INSPECT_1 File=Z8EA.:Z8A6TSI                             SAT 08/09/97 11:39 Page:465
   442-0-0/d STRC(288)   r     1 RESULT                   431-0-0/w PTR         r     1 RESULT$
   366-0-0/d STRC(288)   r     1 SAVED_ILS_LIST           344-0-0/w PTR               1 SCALAR$
   236-0-0/d STRC(288)   r     1 SUB                      422-0-0/d STRC(288)   r     1 SUB
   472-0-0/d STRC(288)   r     1 SUB                      345-0-0/w PTR         r     1 SUB$
   420-0-0/w PTR         r     1 SUB$                     545-0-0/w PTR         r     1 SUB$
   346-0-0/w PTR         r     1 SUBSTR$                  544-0-0/w PTR         r     1 SUBSTR$
   136-0-0/d STRC(288)   r     1 SUB_STR                  532-0-0/d STRC(288)   r     1 SUB_STR
   106-0-0/d STRC(288)         1 TABLE                    347-0-0/w PTR         r     1 TABLE$
   350-0-0/w PTR         r     1 TABLE_ETT$               417-0-0/w UBIN        r     1 TABLE_INDEX
   216-0-0/d STRC(288)   r     1 TABLE_LX_ETT             351-0-0/w PTR         r     1 TABLE_LX_ETT$
   352-0-0/w PTR               1 TALLY_LIST$               *0-0-0/w PTR         r     1 TEMP$
   126-0-0/d STRC(288)   r     1 TWO                      353-0-0/w PTR         r     1 TWO$
   354-0-0/w PTR         r     1 TWO_LX_ETT$              355-0-0/w SBIN        r     1 TYPE1
   422-0-0/w STRC(144)   r     1 TYPE_DESC

  ****  SYMREF variables  ****

  ****  Scalars and arrays  ****
OctLoc.c.b A Datatyp(siz) R M Lvl/name                 OctLoc.c.b A Datatyp(siz) R M Lvl/name

     0-0-0/d STRC(13248) r     1 COMCOM                     0-0-0/c STRC(9)     r     1 EBCDIC(0:511)
     0-0-0/c STRC(9)     r     1 GBCD(0:511)                0-0-0/c STRC(9)           1 HBCD(0:511)
     0-0-0/w STRC(180)         1 HIER_STK(0:50)
     0-0-0/w SBIN              1 HIER_STK_PTR               0-0-0/w UBIN              1 ILL_STEP(0:144)
     0-0-0/w UBIN              1 ILS_STEP_TABLE(0:2)
     0-0-0/w UBIN              1 LTS_STEP(0:37)
     0-0-0/d STRC(11580) r     1 O1COM                      0-0-0/w STRC(144)         1 PAGE_FORMAT
     0-0-0/w STRC(153)         1 REP_STK(0:50)              0-0-0/w SBIN              1 REP_STK_PTR

  ****  BASED and DCB variables  ****

  ****  Scalars and arrays  ****
OctLoc.c.b A Datatyp(siz) R M Lvl/name                 OctLoc.c.b A Datatyp(siz) R M Lvl/name

     0-0-0/w STRC(108)         1 ACCEPT_DISPLAY             0-0-0/w STRC(288)         1 ADD_STMT
     0-0-0/w STRC(396)         1 ALPHABET                   0-0-0/w STRC(144)         1 ALTER_LTS
     0-0-0/w STRC(3672)        1 ALT_KEY                    0-0-0/w STRC(36864)       1 ARGLIST
PL6.E3A0      #001=Z8EA$INSPECT_1 File=Z8EA.:Z8A6TSI                             SAT 08/09/97 11:39 Page:466
     0-0-0/w STRC(396)         1 ARRAY                      0-0-0/w STRC(180)         1 ARRAY_PRESET_LTS
     0-0-0/c ACHR        r     1 BASED$STR                  0-0-0/w ASTR(324)   r     1 BASED_LEX_SYMBOL
     0-0-0/w STRC(360)         1 BASED_LEX_SYMBOL_WORDS
     0-0-0/w STRC(288)         1 BASE_LTS                   0-0-0/w ABIT        r     1 BCD$STR
     0-0-0/w STRC(6)     r     1 BCD$STRING                 0-0-0/w STRC(108)   r     1 BINARY_ILL
     0-0-0/w STRC(288)   r     1 BINARY_OP                  0-0-0/w STRC(396)         1 BLOCK
     0-0-0/w STRC(144)         1 BRANCH_ILL                 0-0-0/w STRC(144)         1 BT
     0-0-0/w STRC(288)         1 CALL_STMT                  0-0-0/w STRC(216)         1 CCOSU
     0-0-0/w STRC(396)         1 CD                         0-0-0/w STRC(288)         1 CD_LTS
     0-0-0/w CHAR(4096)  r     1 CHARS                      0-0-0/w STRC(396)         1 CLASS
     0-0-0/w STRC(108)         1 CODED_MOVE                 0-0-0/w STRC(288)         1 COMPUTE_STMT
     0-0-0/w STRC(396)         1 CONDITION                  0-0-0/w STRC(396)   r     1 CONST
     0-0-0/w STRC(72)          1 CONT                       0-0-0/w STRC(540)         1 CONTROL_NAME_LTS
     0-0-0/w STRC(1872)        1 COPY_FILE                  0-0-0/w STRC(396)         1 DB
     0-0-0/w STRC(396)         1 DCB_                       0-0-0/w STRC(288)         1 DEFERED_IDENTIFIER
     0-0-0/w STRC(252)         1 DEFERED_ID_TREE            0-0-0/w STRC(288)         1 DEFERED_QUAL_ID
     0-0-0/w STRC(288)         1 DEFERED_SUM_CLAUSE
     0-0-0/w STRC(288)         1 DEFERED_SUM_CLAUSE_LIST
     0-0-0/w STRC(144)         1 DEFLB                      0-0-0/w STRC(288)         1 DELETE_STMT
     0-0-0/w STRC(108)         1 DEPENDING_SIZE             0-0-0/w STRC(5472)        1 DIMS
     0-0-0/w STRC(288)         1 DIVIDE_STMT                0-0-0/w STRC(396)         1 DML_ITEM
     0-0-0/w STRC(216)         1 DML_REC                    0-0-0/w ASTR(180)   r     1 DNT
     0-0-0/w STRC(144)         1 DOEND                      0-0-0/w STRC(396)         1 DO_N
     0-0-0/w STRC(180)         1 DV4I                       0-0-0/w STRC(180)         1 ENTRY_ILL
     0-0-0/w STRC(180)   r     1 ETT                        0-0-0/w STRC(108)         1 EVALU
     0-0-0/w STRC(73836)       1 EVALUATE                   0-0-0/w STRC(396)         1 FD
     0-0-0/w STRC(1692)        1 FILE_LTS                   0-0-0/w STRC(144)         1 GO
     0-0-0/w STRC(180)         1 ILL                        0-0-0/w STRC              1 ILL_NO_OPS
     0-0-0/w STRC(180)   r     1 ILS                        0-0-0/w STRC(288)   r     1 ILS_LIST
     0-0-0/w STRC(108)         1 INDEXES                    0-0-0/w STRC(360)         1 INIT_LTS
     0-0-0/w STRC(288)   r     1 INSPECT_1_STMT             0-0-0/w STRC(288)   r     1 INSPECT_2_STMT
     0-0-0/w STRC(288)   r     1 INSPECT_4_STMT             0-0-0/w STRC(396)         1 INTDEF
     0-0-0/w STRC(180)         1 IO_RESTORE_CHAIN           0-0-0/w STRC(144)         1 KEY
     0-0-0/w STRC(396)         1 LABEL                      0-0-0/w STRC(288)         1 LA_ITEM
     0-0-0/w STRC(36864) r     1 LCNST                      0-0-0/w STRC(108)         1 LINOI
     0-0-0/w STRC(72)          1 LONG                       0-0-0/w STRC        r     1 LTS
     0-0-0/w STRC(360)         1 LTSS                       0-0-0/w STRC(36936)       1 LTS_PTR_ARRAY
PL6.E3A0      #001=Z8EA$INSPECT_1 File=Z8EA.:Z8A6TSI                             SAT 08/09/97 11:39 Page:467
     0-0-0/w STRC(504)         1 LX_CD_INPUT                0-0-0/w STRC(324)         1 LX_CD_I_O
     0-0-0/w STRC(396)         1 LX_CD_OUTPUT               0-0-0/w STRC(288)   r     1 LX_ETT_ITEM
     0-0-0/w STRC(288)   r     1 LX_ITEM                    0-0-0/w STRC(288)         1 LX_LARGE
     0-0-0/w STRC(288)   r     1 LX_LIST                    0-0-0/w STRC(1224)        1 LX_REC_DECL
     0-0-0/w STRC(864)         1 LX_REPORT_REC              0-0-0/w STRC(288)   r     1 LX_TERMINAL
     0-0-0/w STRC(72)          1 MFILL                      0-0-0/w STRC(396)         1 MNEMONIC
     0-0-0/w STRC(288)         1 MULTIPLY_STMT              0-0-0/w STRC(180)         1 MULTI_GO
     0-0-0/w STRC(180)         1 MVEAL                      0-0-0/w STRC(108)         1 MVFIL
     0-0-0/w STRC(72)          1 MVIIS                      0-0-0/w STRC(144)         1 NEL
     0-0-0/w STRC(216)         1 OPEN_LTS                   0-0-0/w STRC(144)         1 OPN
     0-0-0/w STRC(180)         1 OS_CALL                    0-0-0/w STRC(36864)       1 PAGE
     0-0-0/w STRC(396)         1 PARA                       0-0-0/w STRC(216)         1 PFORM
     0-0-0/w STRC(144)         1 PINC                       0-0-0/w STRC(144)         1 PREOFF
     0-0-0/w STRC(108)         1 PRESET                     0-0-0/w STRC(144)         1 PRIME
     0-0-0/w STRC(396)         1 PROC_                      0-0-0/w STRC(396)         1 PROC_DEF
     0-0-0/w STRC(900)         1 PROC_SUPP                  0-0-0/w STRC(144)         1 P_A_PRESET
     0-0-0/w STRC(144)         1 P_P_PRESET                 0-0-0/w STRC(396)         1 RD
     0-0-0/w STRC(288)         1 READ_STMT                  0-0-0/w STRC(216)         1 REF
     0-0-0/w STRC(144)         1 REMEM                      0-0-0/w STRC(108)         1 RENAMES
     0-0-0/w STRC(720)         1 REPORT_01_LTS              0-0-0/w STRC(432)         1 REPORT_ELEM_LTS
     0-0-0/w STRC(252)         1 REPORT_GRP_LTS             0-0-0/w STRC(1332)        1 REPORT_LTS
     0-0-0/w STRC(288)         1 REWRITE_STMT               0-0-0/w STRC(144)         1 RVA_LTS
     0-0-0/w STRC(396)   r     1 SCALAR                     0-0-0/w STRC(144)         1 SCOPE
     0-0-0/w STRC(396)         1 SD                         0-0-0/w STRC(216)         1 SEARCH_
     0-0-0/w STRC(396)         1 SECTION                    0-0-0/w STRC(396)         1 SEGMENT
     0-0-0/w STRC(360)         1 SEGMENT_LTS                0-0-0/w STRC(396)   r     1 ST
     0-0-0/w STRC(288)         1 START_STMT                 0-0-0/w STRC(72)          1 STP2
     0-0-0/w STRC(252)         1 STRING_STMT                0-0-0/w STRC(288)         1 SUBTRACT_STMT
     0-0-0/w STRC(252)         1 SUM_LTS                    0-0-0/w STRC(396)         1 SWITCH
     0-0-0/w STRC(396)         1 SYMBOLIC_CHAR              0-0-0/w STRC(396)         1 SYMDEF_
     0-0-0/w STRC(396)         1 SYMREF_                    0-0-0/w STRC(396)         1 TEMP
     0-0-0/w STRC(4608)        1 TRANS                      0-0-0/w STRC(144)   r     1 TRINARY_ILL
     0-0-0/w STRC(72)    r     1 UNARY_ILL                  0-0-0/w STRC(288)         1 UNARY_OP
     0-0-0/w STRC(288)         1 UNSTRING_STMT              0-0-0/d STRC(612)         1 USE
     0-0-0/w STRC(216)         1 USER_CALL                  0-0-0/w STRC(252)         1 USE_SUPP
     0-0-0/w STRC(108)         1 VAL                        0-0-0/w STRC(108)         1 VAL_END
     0-0-0/w STRC(396)         1 VARIABLE                   0-0-0/w STRC(72)          1 WHEN
PL6.E3A0      #001=Z8EA$INSPECT_1 File=Z8EA.:Z8A6TSI                             SAT 08/09/97 11:39 Page:468
     0-0-0/w STRC(288)         1 WRITE_STMT


   Procedure Z8EA$INSPECT_1 requires 6856 words for executable code.
   Procedure Z8EA$INSPECT_1 requires 372 words of local(AUTO) storage.

