PL6.E3A0      #002=Z8EC$FLOAT File=Z8EC.:Z8A6TSI                                 SAT 08/09/97 11:51 Page:364
     2098        1        /*T***********************************************************/
     2099        2        /*T*                                                         */
     2100        3        /*T* Copyright (c) Bull HN Information Systems Inc., 1997    */
     2101        4        /*T*                                                         */
     2102        5        /*T***********************************************************/
     2103        6        Z8EC$FLOAT: PROC (TEXT, LENGTH, TEMP_RESULT, VALUE_OVERFLOW );
     2104        7        /*D*
     2105        8                   NAME      : Z8EC$FLOAT &
     2106        9                               Z8EC$DOUBLE_FLOAT
     2107       10                   CALL      : CALL Z8EC$FLOAT (TEXT,LENGTH,TEMP_RESULT,VALUE_OVERFLOW);
     2108       11                                      -or-
     2109       12                            CALL Z8EC$DOUBLE_FLOAT (TEXT,LENGTH,TEMP_RESULT,VALUE_OVERFLOW);
     2110       13                   INTERFACE : X9DR$CVDR - conversion from decimal to single word real.
     2111       14                               X9DR$CVDQ - conversion from decimal to double word real.
     2112       15                               X9DR$CVDR_SMALL - conversion from decimal to single word
     2113       16                                                 with exponent < -128.
     2114       17                               X9DR$CVDQ_SMALL - conversion from decimal to double word
     2115       18                                                 with exponent < -128.
     2116       19                   INPUT     : REAL_DNT$ - pointer to the data name table entry
     2117       20                                           allowing access to the attributes and
     2118       21                                           the data name itself.
     2119       22                   OUTPUT    : TEMP_RESULT - the result variable defined in bits
     2120       23                                             so a real number can be placed in
     2121       24                                             the location.
     2122       25                   SCRATCH   : O1COM.NDSC - this location is destroyed when
     2123       26                                            creating a descriptor for the decimal
     2124       27                                            number.
     2125       28                   REFERENCE : None
     2126       29
     2127       30                   DESCRIPTION : This module extracts the number from the literal
     2128       31                                 and places it in a decimal floating point temp-
     2129       32                                 late.  An EIS descriptor is created to represent
     2130       33                                 that number, and then from those the decimal
     2131       34                                 number is converted to real using X9DR$CVDR or X9DR$CVDQ
     2132       35                                 (%TYR or %TYQ). If the exponent is < 128, a special
     2133       36                                 entry, X9DR$CVDR_SMALL or X9DR$CVDQ_SMALL, is called
     2134       37                                 to do the conversion and adjust for the underflow
PL6.E3A0      #002=Z8EC$FLOAT File=Z8EC.:Z8A6TSI                                 SAT 08/09/97 11:51 Page:365
     2135       38                                 that occurred in moving TEMP_EXPONENT.EXPONENT to
     2136       39                                 FLOAT.EXPONENT.
     2137       40        */
     2138       41
     2139       42        %SET PHASE = 1;
     2140       43        %INCLUDE Z8A_DEFC;
     2141      111        %INCLUDE Z8A_SUPP_MAC;
     2142     2511        %INCLUDE Z8A_COMCOM;
     2143     3161        %INCLUDE Z8E_MACROS;
     2144     3836        %INCLUDE Z8A_ST;
     2145     7495
     2146     7496    1   DCL Z8AU$CREATE_NUM_DESC      ENTRY(3);
     2147     7497
     2148     7498        %EQU E_IN_EXPONENT = 'E' ;
     2149     7499        %EQU FLOAT_DECIMAL_LENGTH = 60;
     2150     7500        %EQU MANTISSA_ZEROS =
     2151     7501            '000000000000000000000000000000000000000000000000000000000000';
     2152     7502
     2153     7503    1   DCL X9DR$CVDQ               ENTRY(3) ;
     2154     7504    1   DCL X9DR$CVDR               ENTRY(3) ;
     2155     7505    1   DCL X9DR$CVDQ_SMALL         ENTRY(3) ;
     2156     7506    1   DCL X9DR$CVDR_SMALL         ENTRY(3) ;
     2157     7507
     2158     7508    1   DCL LENGTH             SBIN;
     2159     7509    1   DCL TEXT               CHAR (LENGTH);
     2160     7510
     2161     7511    1   DCL TEMP_RESULT        BIT (72) ALIGNED;
     2162     7512
     2163     7513    1   DCL 1 REAL_RESULT DALIGNED,
     2164     7514    1        2 DOUBLE_REAL     BIT (72) UNAL,
     2165     7515    1        2 SINGLE_REAL REDEF DOUBLE_REAL,
     2166     7516    1         3 ONE_WORD       BIT (36) UNAL,
     2167     7517    1         3 *              BIT (36) UNAL;
     2168     7518
     2169     7519    1   DCL VALUE_OVERFLOW     BIT (1) ALIGNED;
     2170     7520    1   DCL COLUMN             UBIN WORD ;
     2171     7521    1   DCL OFFSET             SBIN WORD ;
PL6.E3A0      #002=Z8EC$FLOAT File=Z8EC.:Z8A6TSI                                 SAT 08/09/97 11:51 Page:366
     2172     7522    1   DCL DESCRIPTOR         UBIN WORD ;
     2173     7523    1   DCL 1 DESC             REDEF DESCRIPTOR,
     2174     7524            %DESCRIPTOR (LVL = 2, ENDING = YES);
     2175     7552        %DCL_NUM_DESC ( @STRN = NUM_DESC );
     2176     7561    1   DCL TOTAL_DIGITS       UBIN WORD ;
     2177     7562    1   DCL LEFT_LENGTH        UBIN WORD;
     2178     7563    1   DCL RIGHT_LENGTH       UBIN WORD;
     2179     7564        %EQU PLUS_SIGN_ = '+';
     2180     7565    1   DCL TOTAL_ZEROS        UBIN WORD;
     2181     7566    1   DCL TOTAL_SIZE         SBIN WORD;
     2182     7567    1   DCL DOUBLE_FLOAT       BIT(1);
     2183     7568    1   DCL I                  SBIN WORD;
     2184     7569
     2185     7570    1   DCL 1 WORD_EXPONENT    SBIN WORD ;
     2186     7571    1   DCL 1 TEMP_EXPONENT REDEF WORD_EXPONENT ,
     2187     7572    1        2 *               UBIN(28) UNAL,
     2188     7573    1        2 EXPONENT        SBIN(8) UNAL ;
     2189     7574
     2190     7575    1   DCL 1 FLOAT            STATIC ALIGNED,
     2191     7576    1        2 SIGN            CHAR(1) UNAL,
     2192     7577    1        2 MANTISSA        CHAR(60) UNAL,
     2193     7578    1        2 MBZ             BIT(1) INIT ('0'B),
     2194     7579    1        2 EXPONENT        SBIN(8) UNAL ;
     2195     7580
     2196     7581        /*V*
     2197     7582                   TWO_ENTRIES -- The reasoning for two entries is to accom-
     2198     7583                                  odate single and double word real variables.
     2199     7584                                  The variable DOUBLE_FLOAT is set if the double
     2200     7585                                  word entry is entered, reset if single.  The
     2201     7586                                  only other difference in code is which conv-
     2202     7587                                  sion routine to call, single (X9DR$CVDR) or double
     2203     7588                                  (X9DR$CVDQ).
     2204     7589
     2205     7590        */
     2206     7591
     2207     7592    1      DOUBLE_FLOAT = FALSE ;
     2208     7593    1      GOTO CONVERT;
PL6.E3A0      #002=Z8EC$FLOAT File=Z8EC.:Z8A6TSI                                 SAT 08/09/97 11:51 Page:367
     2209     7594
     2210     7595    1   Z8EC$DOUBLE_FLOAT:     ENTRY (TEXT, LENGTH, TEMP_RESULT, VALUE_OVERFLOW );
     2211     7596
     2212     7597    1      DOUBLE_FLOAT = TRUE ;
     2213     7598
     2214     7599        %EJECT;
PL6.E3A0      #002=Z8EC$FLOAT File=Z8EC.:Z8A6TSI                                 SAT 08/09/97 11:51 Page:368
     2215     7600    1   CONVERT:
     2216     7601        /*V*
     2217     7602                            -- To determine if there is an exponent, and where
     2218     7603                               it is located in relation to the start of the
     2219     7604                               literal, the index function is called looking
     2220     7605                               for an "E".  If no "E" is found then the exponent
     2221     7606                               is set to zero, else it is taken as is and put
     2222     7607                               in the exponent of the decimal float variable
     2223     7608                               ( FLOAT.EXPONENT ).
     2224     7609
     2225     7610        */
     2226     7611    1      FLOAT.MANTISSA = %MANTISSA_ZEROS ;
     2227     7612    1      FLOAT.SIGN = ' ' ;
     2228     7613    1      FLOAT.EXPONENT = 0 ;
     2229     7614
     2230     7615    1      CALL Z8AU$CREATE_NUM_DESC (TEXT,
     2231     7616    1                                 LENGTH,
     2232     7617    1                                 NUM_DESC);
     2233     7618
     2234     7619    1      LEFT_LENGTH = NUM_DESC.DIGITS_LEFT ;
     2235     7620    1      RIGHT_LENGTH = NUM_DESC.DIGITS_RIGHT ;
     2236     7621    1      TOTAL_DIGITS = LEFT_LENGTH + RIGHT_LENGTH ;
     2237     7622    1      CALL INDEX(COLUMN,%E_IN_EXPONENT,TEXT) ;
     2238     7623
     2239     7624    1      IF COLUMN = LENGTH THEN
     2240     7625    1        WORD_EXPONENT = 0 ;
     2241     7626    1      ELSE
     2242     7627    1        IF NUM_DESC.EXPONENT_SIGN_VALUE = %NO_SIGN_VALUE THEN
     2243     7628    1          CALL CHARBIN(WORD_EXPONENT,SUBSTR(TEXT,COLUMN+1)) ;
     2244     7629    1        ELSE
     2245     7630    1          CALL XCHARBIN(WORD_EXPONENT,SUBSTR(TEXT,COLUMN+1)) ;
     2246     7631
     2247     7632    1      WORD_EXPONENT = WORD_EXPONENT - RIGHT_LENGTH;
     2248     7633        %EJECT;
PL6.E3A0      #002=Z8EC$FLOAT File=Z8EC.:Z8A6TSI                                 SAT 08/09/97 11:51 Page:369
     2249     7634        /*     We now have a normalized number.  If the exponent is
     2250     7635               greater then 127, we will try to unnormalize it with
     2251     7636               an exponent of 127.
     2252     7637                                                                       */
     2253     7638
     2254     7639    1   IF WORD_EXPONENT > 127  THEN
     2255     7640    2     DO;
     2256     7641
     2257     7642    2       TOTAL_DIGITS = TOTAL_DIGITS + WORD_EXPONENT - 127;
     2258     7643    2       WORD_EXPONENT = 127;
     2259     7644
     2260     7645    2     END;
     2261     7646
     2262     7647    1   FLOAT.EXPONENT = TEMP_EXPONENT.EXPONENT;
     2263     7648    1   OFFSET = LENGTHC( FLOAT.MANTISSA ) - TOTAL_DIGITS;
     2264     7649        %EJECT;
PL6.E3A0      #002=Z8EC$FLOAT File=Z8EC.:Z8A6TSI                                 SAT 08/09/97 11:51 Page:370
     2265     7650        /*V*
     2266     7651                   FILL_MANTISSA -- The mantissa and sign portion of FLOAT are
     2267     7652                                    filled here, taken from the DNT text, ex-
     2268     7653                                    cluding the decimal point.
     2269     7654
     2270     7655        */
     2271     7656
     2272     7657    1      IF NUM_DESC.MANTISSA_SIGN_VALUE = %NO_SIGN_VALUE THEN
     2273     7658    2        DO ;
     2274     7659    2          FLOAT.SIGN = %PLUS_SIGN_ ;
     2275     7660    2          CALL INSERT(FLOAT.MANTISSA,OFFSET,LEFT_LENGTH+RIGHT_LENGTH,
     2276     7661    2              SUBSTR(TEXT,0,LEFT_LENGTH),
     2277     7662    2              SUBSTR(TEXT,LEFT_LENGTH+1,RIGHT_LENGTH)) ;
     2278     7663    2        END ;
     2279     7664    1      ELSE
     2280     7665    2        DO ;
     2281     7666    2          FLOAT.SIGN = SUBSTR(TEXT,0,1) ;
     2282     7667    2          CALL INSERT(FLOAT.MANTISSA,OFFSET,LEFT_LENGTH+RIGHT_LENGTH,
     2283     7668    2              SUBSTR(TEXT,1,LEFT_LENGTH),
     2284     7669    2              SUBSTR(TEXT,LEFT_LENGTH+2,RIGHT_LENGTH)) ;
     2285     7670    2        END ;
     2286     7671        %EJECT;
PL6.E3A0      #002=Z8EC$FLOAT File=Z8EC.:Z8A6TSI                                 SAT 08/09/97 11:51 Page:371
     2287     7672    1   TOTAL_ZEROS = 0;
     2288     7673
     2289     7674    2   DO I = 0 TO (LEFT_LENGTH - 1);
     2290     7675    2     IF SUBSTR(FLOAT.MANTISSA, OFFSET + I, 1) = '0' THEN
     2291     7676    2       TOTAL_ZEROS = TOTAL_ZEROS + 1;
     2292     7677    2     ELSE
     2293     7678    2       EXIT;
     2294     7679    2   END;
     2295     7680
     2296     7681    1   IF TOTAL_ZEROS = LEFT_LENGTH      THEN
     2297     7682
     2298     7683    2     DO I = 0 TO (RIGHT_LENGTH - 1);
     2299     7684    2       IF SUBSTR( FLOAT.MANTISSA, LEFT_LENGTH + OFFSET + I, 1 ) = '0'  THEN
     2300     7685    2         TOTAL_ZEROS = TOTAL_ZEROS + 1;
     2301     7686    2       ELSE
     2302     7687    2         EXIT;
     2303     7688    2     END;
     2304     7689
     2305     7690
     2306     7691    1   TOTAL_DIGITS = TOTAL_DIGITS - TOTAL_ZEROS;
     2307     7692         %EJECT;
PL6.E3A0      #002=Z8EC$FLOAT File=Z8EC.:Z8A6TSI                                 SAT 08/09/97 11:51 Page:372
     2308     7693        /*   Check for values too large or small.  In hex mode the
     2309     7694             largest exponent is 152 and the smallest is -155.  In
     2310     7695             binary mode it is + or - 38.
     2311     7696                                                                     */
     2312     7697    1   TOTAL_SIZE = WORD_EXPONENT + TOTAL_DIGITS;
     2313     7698
     2314     7699    2    IF COMCOM.OB.HEX THEN DO;
     2315     7700    2      IF TOTAL_SIZE < -155   OR   TOTAL_SIZE > 153   OR
     2316     7701    2         (TOTAL_SIZE = 153 AND SUBSTR (FLOAT.MANTISSA, OFFSET, 6)
     2317     7702    2         >= '837988')   THEN
     2318     7703    2       VALUE_OVERFLOW = TRUE;
     2319     7704    2    END;
     2320     7705
     2321     7706    1   ELSE
     2322     7707
     2323     7708    1      IF  TOTAL_SIZE > 38  OR  TOTAL_SIZE < -38   THEN
     2324     7709    1        VALUE_OVERFLOW = TRUE;
     2325     7710
     2326     7711
     2327     7712    1   IF VALUE_OVERFLOW      THEN
     2328     7713    2     DO;
     2329     7714    2       FLOAT.MANTISSA = %MANTISSA_ZEROS;
     2330     7715    2       FLOAT.EXPONENT = 0;
     2331     7716    2     END;
     2332     7717        %EJECT;
PL6.E3A0      #002=Z8EC$FLOAT File=Z8EC.:Z8A6TSI                                 SAT 08/09/97 11:51 Page:373
     2333     7718
     2334     7719           %PACK_NDSC (@DESC   = DESC,
     2335     7720                       @LENGTH = %FLOAT_DECIMAL_LENGTH,
     2336     7721                       @SIGN   = %FLOATING_POINT_LEADING_SIGN,
     2337     7722                       @TN     = %NDSC9,
     2338     7723                       @SCALE  = 0 );
     2339     7772
     2340     7773        /*V*
     2341     7774                           -- The decimal number is converted to real, single
     2342     7775                              or double.  REAL_RESULT must be double word aligned
     2343     7776                              for the double word cases.  The parameter passed
     2344     7777                              in cannot be guaranteed of that.  This is why the
     2345     7778                              answer is put in a temp then moved into the actual
     2346     7779                              result location.
     2347     7780
     2348     7781        */
     2349     7782
     2350     7783    2     IF WORD_EXPONENT < -128 THEN DO ;
     2351     7784    2      IF DOUBLE_FLOAT THEN
     2352     7785    2        CALL X9DR$CVDQ_SMALL(FLOAT, REAL_RESULT.DOUBLE_REAL, DESCRIPTOR) ;
     2353     7786    2      ELSE
     2354     7787    2        CALL X9DR$CVDR_SMALL(FLOAT, REAL_RESULT.SINGLE_REAL, DESCRIPTOR) ;
     2355     7788    2     END ;
     2356     7789    1     ELSE
     2357     7790    1      IF DOUBLE_FLOAT THEN
     2358     7791    1        CALL X9DR$CVDQ(FLOAT, REAL_RESULT.DOUBLE_REAL, DESCRIPTOR) ;
     2359     7792    1      ELSE
     2360     7793    1        CALL X9DR$CVDR(FLOAT, REAL_RESULT.SINGLE_REAL, DESCRIPTOR) ;
     2361     7794
     2362     7795    1      TEMP_RESULT = REAL_RESULT ;
     2363     7796
     2364     7797    1      RETURN;
     2365     7798    1   END Z8EC$FLOAT;
     2366     7799        %EOD;

PL6.E3A0      #002=Z8EC$FLOAT File=Z8EC.:Z8A6TSI                                 SAT 08/09/97 11:51 Page:374
--  Include file information  --

   Z8A_ST.:Z8A6TOU  cannot be made into a system file and is referenced.
   Z8E_NEW_ILL.:Z8A6TOU  is referenced.
   Z8E_MACROS.:Z8A6TOU  cannot be made into a system file and is referenced.
   Z8A_COMCOM.:Z8A6TOU  cannot be made into a system file and is referenced.
   X8A_COM_MACS.:X8A6TOU  is referenced.
   Z8A_NAMES.:Z8A6TOU  is referenced.
   Z8A_SUPP_MAC.:Z8A6TOU  is referenced.
   Z8A_DEFC.:Z8A6TOU  cannot be made into a system file and is referenced.
      No diagnostics issued in procedure Z8EC$FLOAT.

   Procedure Z8EC$FLOAT requires 283 words for executable code.
   Procedure Z8EC$FLOAT requires 32 words of local(AUTO) storage.

PL6.E3A0      #002=Z8EC$FLOAT File=Z8EC.:Z8A6TSI                                 SAT 08/09/97 11:51 Page:375

 Object Unit name= Z8EC$FLOAT                                 File name= Z8EC.:Z8A6TOU
 UTS= AUG 09 '97 11:51:16.40 SAT                              Compiler= PL-6/E31         Sev=      00
 SharedLib= :SHARED_SYSTEM                                    Alt SharedLib=


    ****  Control sections  ****

 Sect   Type Bound  Init  Size OctSiz  Section name(segment info)
    0  LblCom even  none     1      1  ITERATION
    1  LblCom even  none     1      1  ST$
    2  LblCom even  none     5      5  ST_
    3   Data  even  none    16     20  Z8EC$FLOAT
    4  RoData even  UTS     17     21  Z8EC$FLOAT
    5   Proc  even  none   283    433  Z8EC$FLOAT
    6  RoData even  none    11     13  Z8EC$FLOAT

    ****  Entry defs  ****

                              Check   Calling
                             calling  sequence
  Sect OctLoc Primary Altret sequence   type   Parms  Name
     5      0   yes            yes      Std        4  Z8EC$FLOAT
     5      4                  yes      Std        4  Z8EC$DOUBLE_FLOAT

  ****  Entry refs  ****

         Check        Calling
        calling       sequence
Altret sequence SRef   type   Args  Name
         yes           Std       3 Z8AU$CREATE_NUM_DESC
         yes           Std       3 X9DR$CVDQ_SMALL
         yes           Std       3 X9DR$CVDR_SMALL
         yes           Std       3 X9DR$CVDQ
         yes           Std       3 X9DR$CVDR
                       nStd      0 X66_AUTO_4
                       nStd      0 X66_ARET
PL6.E3A0      #002=Z8EC$FLOAT File=Z8EC.:Z8A6TSI                                 SAT 08/09/97 11:51 Page:376

  ****  Data refs  ****

  Flags:  r = read only, s = secondary
Flgs Name                             Flgs Name                             Flgs Name
     COMCOM

  ****  Segment refs  ****

  Flags:  r = read only, s = secondary
Flgs Name                             Flgs Name                             Flgs Name
     NULLSID                               ISSID
PL6.E3A0      #002=Z8EC$FLOAT File=Z8EC.:Z8A6TSI                                 SAT 08/09/97 11:51 Page:377


     2098        1        /*T***********************************************************/
     2099        2        /*T*                                                         */
     2100        3        /*T* Copyright (c) Bull HN Information Systems Inc., 1997    */
     2101        4        /*T*                                                         */
     2102        5        /*T***********************************************************/
     2103        6        Z8EC$FLOAT: PROC (TEXT, LENGTH, TEMP_RESULT, VALUE_OVERFLOW );

      6  5 000000   000000 700200 xent  Z8EC$FLOAT   TSX0  ! X66_AUTO_4
         5 000001   000040 000004                    ZERO    32,4

     2104        7        /*D*
     2105        8                   NAME      : Z8EC$FLOAT &
     2106        9                               Z8EC$DOUBLE_FLOAT
     2107       10                   CALL      : CALL Z8EC$FLOAT (TEXT,LENGTH,TEMP_RESULT,VALUE_OVERFLOW);
     2108       11                                      -or-
     2109       12                           CALL Z8EC$DOUBLE_FLOAT (TEXT,LENGTH,TEMP_RESULT,VALUE_OVERFLOW);
     2110       13                   INTERFACE : X9DR$CVDR - conversion from decimal to single word real.
     2111       14                               X9DR$CVDQ - conversion from decimal to double word real.
     2112       15                               X9DR$CVDR_SMALL - conversion from decimal to single word
     2113       16                                                 with exponent < -128.
     2114       17                               X9DR$CVDQ_SMALL - conversion from decimal to double word
     2115       18                                                 with exponent < -128.
     2116       19                   INPUT     : REAL_DNT$ - pointer to the data name table entry
     2117       20                                           allowing access to the attributes and
     2118       21                                           the data name itself.
     2119       22                   OUTPUT    : TEMP_RESULT - the result variable defined in bits
     2120       23                                             so a real number can be placed in
     2121       24                                             the location.
     2122       25                   SCRATCH   : O1COM.NDSC - this location is destroyed when
     2123       26                                            creating a descriptor for the decimal
     2124       27                                            number.
     2125       28                   REFERENCE : None
     2126       29
     2127       30                   DESCRIPTION : This module extracts the number from the literal
     2128       31                                 and places it in a decimal floating point temp-
     2129       32                                 late.  An EIS descriptor is created to represent
PL6.E3A0      #002=Z8EC$FLOAT File=Z8EC.:Z8A6TSI                                 SAT 08/09/97 11:51 Page:378
     2130       33                                 that number, and then from those the decimal
     2131       34                                 number is converted to real using X9DR$CVDR or X9DR$CVDQ
     2132       35                                 (%TYR or %TYQ). If the exponent is < 128, a special
     2133       36                                 entry, X9DR$CVDR_SMALL or X9DR$CVDQ_SMALL, is called
     2134       37                                 to do the conversion and adjust for the underflow
     2135       38                                 that occurred in moving TEMP_EXPONENT.EXPONENT to
     2136       39                                 FLOAT.EXPONENT.
     2137       40        */
     2138       41
     2139       42        %SET PHASE = 1;
     2140       43        %INCLUDE Z8A_DEFC;
     2141      111        %INCLUDE Z8A_SUPP_MAC;
     2142     2511        %INCLUDE Z8A_COMCOM;
     2143     3161        %INCLUDE Z8E_MACROS;
     2144     3836        %INCLUDE Z8A_ST;
     2145     7495
     2146     7496    1   DCL Z8AU$CREATE_NUM_DESC      ENTRY(3);
     2147     7497
     2148     7498        %EQU E_IN_EXPONENT = 'E' ;
     2149     7499        %EQU FLOAT_DECIMAL_LENGTH = 60;
     2150     7500        %EQU MANTISSA_ZEROS =
     2151     7501            '000000000000000000000000000000000000000000000000000000000000';
     2152     7502
     2153     7503    1   DCL X9DR$CVDQ               ENTRY(3) ;
     2154     7504    1   DCL X9DR$CVDR               ENTRY(3) ;
     2155     7505    1   DCL X9DR$CVDQ_SMALL         ENTRY(3) ;
     2156     7506    1   DCL X9DR$CVDR_SMALL         ENTRY(3) ;
     2157     7507
     2158     7508    1   DCL LENGTH             SBIN;
     2159     7509    1   DCL TEXT               CHAR (LENGTH);
     2160     7510
     2161     7511    1   DCL TEMP_RESULT        BIT (72) ALIGNED;
     2162     7512
     2163     7513    1   DCL 1 REAL_RESULT DALIGNED,
     2164     7514    1        2 DOUBLE_REAL     BIT (72) UNAL,
     2165     7515    1        2 SINGLE_REAL REDEF DOUBLE_REAL,
     2166     7516    1         3 ONE_WORD       BIT (36) UNAL,
PL6.E3A0      #002=Z8EC$FLOAT File=Z8EC.:Z8A6TSI                                 SAT 08/09/97 11:51 Page:379
     2167     7517    1         3 *              BIT (36) UNAL;
     2168     7518
     2169     7519    1   DCL VALUE_OVERFLOW     BIT (1) ALIGNED;
     2170     7520    1   DCL COLUMN             UBIN WORD ;
     2171     7521    1   DCL OFFSET             SBIN WORD ;
     2172     7522    1   DCL DESCRIPTOR         UBIN WORD ;
     2173     7523    1   DCL 1 DESC             REDEF DESCRIPTOR,
     2174     7524            %DESCRIPTOR (LVL = 2, ENDING = YES);
     2175     7552        %DCL_NUM_DESC ( @STRN = NUM_DESC );
     2176     7561    1   DCL TOTAL_DIGITS       UBIN WORD ;
     2177     7562    1   DCL LEFT_LENGTH        UBIN WORD;
     2178     7563    1   DCL RIGHT_LENGTH       UBIN WORD;
     2179     7564        %EQU PLUS_SIGN_ = '+';
     2180     7565    1   DCL TOTAL_ZEROS        UBIN WORD;
     2181     7566    1   DCL TOTAL_SIZE         SBIN WORD;
     2182     7567    1   DCL DOUBLE_FLOAT       BIT(1);
     2183     7568    1   DCL I                  SBIN WORD;
     2184     7569
     2185     7570    1   DCL 1 WORD_EXPONENT    SBIN WORD ;
     2186     7571    1   DCL 1 TEMP_EXPONENT REDEF WORD_EXPONENT ,
     2187     7572    1        2 *               UBIN(28) UNAL,
     2188     7573    1        2 EXPONENT        SBIN(8) UNAL ;
     2189     7574
     2190     7575    1   DCL 1 FLOAT            STATIC ALIGNED,
     2191     7576    1        2 SIGN            CHAR(1) UNAL,
     2192     7577    1        2 MANTISSA        CHAR(60) UNAL,
     2193     7578    1        2 MBZ             BIT(1) INIT ('0'B),
     2194     7579    1        2 EXPONENT        SBIN(8) UNAL ;
     2195     7580
     2196     7581        /*V*
     2197     7582                   TWO_ENTRIES -- The reasoning for two entries is to accom-
     2198     7583                                  odate single and double word real variables.
     2199     7584                                  The variable DOUBLE_FLOAT is set if the double
     2200     7585                                  word entry is entered, reset if single.  The
     2201     7586                                  only other difference in code is which conv-
     2202     7587                                  sion routine to call, single (X9DR$CVDR) or double
     2203     7588                                  (X9DR$CVDQ).
PL6.E3A0      #002=Z8EC$FLOAT File=Z8EC.:Z8A6TSI                                 SAT 08/09/97 11:51 Page:380
     2204     7589
     2205     7590        */
     2206     7591
     2207     7592    1      DOUBLE_FLOAT = FALSE ;

   7592  5 000002   200030 450100                    STZ     DOUBLE_FLOAT,,AUTO

     2208     7593    1      GOTO CONVERT;

   7593  5 000003   000010 710000 5                  TRA     CONVERT

     2209     7594
     2210     7595    1   Z8EC$DOUBLE_FLOAT:     ENTRY (TEXT, LENGTH, TEMP_RESULT, VALUE_OVERFLOW );

   7595  5 000004   000000 700200 xent  Z8EC$DOUBLE* TSX0  ! X66_AUTO_4
         5 000005   000040 000004                    ZERO    32,4

     2211     7596
     2212     7597    1      DOUBLE_FLOAT = TRUE ;

   7597  5 000006   400000 236003                    LDQ     -131072,DU
         5 000007   200030 756100                    STQ     DOUBLE_FLOAT,,AUTO

     2213     7598
     2214     7599        %EJECT;
PL6.E3A0      #002=Z8EC$FLOAT File=Z8EC.:Z8A6TSI                                 SAT 08/09/97 11:51 Page:381
     2215     7600    1   CONVERT:
     2216     7601        /*V*
     2217     7602                            -- To determine if there is an exponent, and where
     2218     7603                               it is located in relation to the start of the
     2219     7604                               literal, the index function is called looking
     2220     7605                               for an "E".  If no "E" is found then the exponent
     2221     7606                               is set to zero, else it is taken as is and put
     2222     7607                               in the exponent of the decimal float variable
     2223     7608                               ( FLOAT.EXPONENT ).
     2224     7609
     2225     7610        */
     2226     7611    1      FLOAT.MANTISSA = %MANTISSA_ZEROS ;

   7611  5 000010   040000 100400       CONVERT      MLR     fill='040'O
         5 000011   000000 000074 4                  ADSC9   0                        cn=0,n=60
         5 000012   000000 200074 3                  ADSC9   FLOAT                    cn=1,n=60

     2227     7612    1      FLOAT.SIGN = ' ' ;

   7612  5 000013   040000 236003                    LDQ     16384,DU
         5 000014   000000 552040 3                  STBQ    FLOAT,'40'O

     2228     7613    1      FLOAT.EXPONENT = 0 ;

   7613  5 000015   000000 236000 6                  LDQ     0
         5 000016   000017 356000 3                  ANSQ    FLOAT+15

     2229     7614
     2230     7615    1      CALL Z8AU$CREATE_NUM_DESC (TEXT,

   7615  5 000017   200015 630500                    EPPR0   NUM_DESC,,AUTO
         5 000020   200036 450500                    STP0    WORD_EXPONENT+4,,AUTO
         5 000021   200004 236100                    LDQ     @LENGTH,,AUTO
         5 000022   200003 235100                    LDA     @TEXT,,AUTO
         5 000023   200034 757100                    STAQ    WORD_EXPONENT+2,,AUTO
         5 000024   200034 630500                    EPPR0   WORD_EXPONENT+2,,AUTO
         5 000025   000001 631400 6                  EPPR1   1
PL6.E3A0      #002=Z8EC$FLOAT File=Z8EC.:Z8A6TSI                                 SAT 08/09/97 11:51 Page:382
         5 000026   000000 701000 xent               TSX1    Z8AU$CREATE_NUM_DESC
         5 000027   000000 011000                    NOP     0

     2231     7616    1                                 LENGTH,
     2232     7617    1                                 NUM_DESC);
     2233     7618
     2234     7619    1      LEFT_LENGTH = NUM_DESC.DIGITS_LEFT ;

   7619  5 000030   200015 235100                    LDA     NUM_DESC,,AUTO
         5 000031   200024 755100                    STA     LEFT_LENGTH,,AUTO

     2235     7620    1      RIGHT_LENGTH = NUM_DESC.DIGITS_RIGHT ;

   7620  5 000032   200016 236100                    LDQ     NUM_DESC+1,,AUTO
         5 000033   200025 756100                    STQ     RIGHT_LENGTH,,AUTO

     2236     7621    1      TOTAL_DIGITS = LEFT_LENGTH + RIGHT_LENGTH ;

   7621  5 000034   200024 036100                    ADLQ    LEFT_LENGTH,,AUTO
         5 000035   200023 756100                    STQ     TOTAL_DIGITS,,AUTO

     2237     7622    1      CALL INDEX(COLUMN,%E_IN_EXPONENT,TEXT) ;

   7622  5 000036   200004 470500                    LDP0    @LENGTH,,AUTO
         5 000037   000000 720100                    LXL0    0,,PR0
         5 000040   200003 471500                    LDP1    @TEXT,,AUTO
         5 000041   000000 124540                    SCM     mask='000'O
         5 000042   100000 000010                    ADSC9   0,,PR1                   cn=0,n=*X0
         5 000043   000002 000001 6                  ADSC9   2                        cn=0,n=1
         5 000044   200012 000100                    ARG     COLUMN,,AUTO

     2238     7623
     2239     7624    1      IF COLUMN = LENGTH THEN

   7624  5 000045   200012 236100                    LDQ     COLUMN,,AUTO
         5 000046   000053 604000 5                  TMI     s:7627
         5 000047   000000 116100                    CMPQ    0,,PR0
PL6.E3A0      #002=Z8EC$FLOAT File=Z8EC.:Z8A6TSI                                 SAT 08/09/97 11:51 Page:383
         5 000050   000053 601000 5                  TNZ     s:7627

     2240     7625    1        WORD_EXPONENT = 0 ;

   7625  5 000051   200032 450100                    STZ     WORD_EXPONENT,,AUTO
         5 000052   000076 710000 5                  TRA     s:7632

     2241     7626    1      ELSE
     2242     7627    1        IF NUM_DESC.EXPONENT_SIGN_VALUE = %NO_SIGN_VALUE THEN

   7627  5 000053   200021 235100                    LDA     NUM_DESC+4,,AUTO
         5 000054   000066 601000 5                  TNZ     s:7630

     2243     7628    1          CALL CHARBIN(WORD_EXPONENT,SUBSTR(TEXT,COLUMN+1)) ;

   7628  5 000055   000000 636010                    EAQ     0,X0
         5 000056   000022 732000                    QRS     18
         5 000057   200012 136100                    SBLQ    COLUMN,,AUTO
         5 000060   777777 621006                    EAX1    -1,QL
         5 000061   200012 236100                    LDQ     COLUMN,,AUTO
         5 000062   000100 305546                    DTB
         5 000063   100000 230011                    NDSC9   0,Q,PR1                  cn=1,s=nosgn,sf=0,n=*X1
         5 000064   200032 000004                    NDSC9   WORD_EXPONENT,,AUTO      cn=0,s=lsgnf,sf=0,n=4
         5 000065   000076 710000 5                  TRA     s:7632

     2244     7629    1        ELSE
     2245     7630    1          CALL XCHARBIN(WORD_EXPONENT,SUBSTR(TEXT,COLUMN+1)) ;

   7630  5 000066   000000 636010                    EAQ     0,X0
         5 000067   000022 732000                    QRS     18
         5 000070   200012 136100                    SBLQ    COLUMN,,AUTO
         5 000071   777777 621006                    EAX1    -1,QL
         5 000072   200012 236100                    LDQ     COLUMN,,AUTO
         5 000073   000100 305546                    DTB
         5 000074   100000 210011                    NDSC9   0,Q,PR1                  cn=1,s=lsgns,sf=0,n=*X1
         5 000075   200032 000004                    NDSC9   WORD_EXPONENT,,AUTO      cn=0,s=lsgnf,sf=0,n=4

PL6.E3A0      #002=Z8EC$FLOAT File=Z8EC.:Z8A6TSI                                 SAT 08/09/97 11:51 Page:384
     2246     7631
     2247     7632    1      WORD_EXPONENT = WORD_EXPONENT - RIGHT_LENGTH;

   7632  5 000076   200032 236100                    LDQ     WORD_EXPONENT,,AUTO
         5 000077   200025 136100                    SBLQ    RIGHT_LENGTH,,AUTO
         5 000100   200032 756100                    STQ     WORD_EXPONENT,,AUTO

     2248     7633        %EJECT;
PL6.E3A0      #002=Z8EC$FLOAT File=Z8EC.:Z8A6TSI                                 SAT 08/09/97 11:51 Page:385
     2249     7634        /*     We now have a normalized number.  If the exponent is
     2250     7635               greater then 127, we will try to unnormalize it with
     2251     7636               an exponent of 127.
     2252     7637                                                                       */
     2253     7638
     2254     7639    1   IF WORD_EXPONENT > 127  THEN

   7639  5 000101   000177 116007                    CMPQ    127,DL
         5 000102   000110 604400 5                  TMOZ    s:7647

     2255     7640    2     DO;

     2256     7641
     2257     7642    2       TOTAL_DIGITS = TOTAL_DIGITS + WORD_EXPONENT - 127;

   7642  5 000103   200023 036100                    ADLQ    TOTAL_DIGITS,,AUTO
         5 000104   000177 136007                    SBLQ    127,DL
         5 000105   200023 756100                    STQ     TOTAL_DIGITS,,AUTO

     2258     7643    2       WORD_EXPONENT = 127;

   7643  5 000106   000177 235007                    LDA     127,DL
         5 000107   200032 755100                    STA     WORD_EXPONENT,,AUTO

     2259     7644
     2260     7645    2     END;

     2261     7646
     2262     7647    1   FLOAT.EXPONENT = TEMP_EXPONENT.EXPONENT;

   7647  5 000110   200032 236100                    LDQ     WORD_EXPONENT,,AUTO
         5 000111   000022 736000                    QLS     18
         5 000112   000017 676000 3                  ERQ     FLOAT+15
         5 000113   000377 376003                    ANQ     255,DU
         5 000114   000017 656000 3                  ERSQ    FLOAT+15

     2263     7648    1   OFFSET = LENGTHC( FLOAT.MANTISSA ) - TOTAL_DIGITS;
PL6.E3A0      #002=Z8EC$FLOAT File=Z8EC.:Z8A6TSI                                 SAT 08/09/97 11:51 Page:386

   7648  5 000115   000074 235007                    LDA     60,DL
         5 000116   200023 135100                    SBLA    TOTAL_DIGITS,,AUTO
         5 000117   200013 755100                    STA     OFFSET,,AUTO

     2264     7649        %EJECT;
PL6.E3A0      #002=Z8EC$FLOAT File=Z8EC.:Z8A6TSI                                 SAT 08/09/97 11:51 Page:387
     2265     7650        /*V*
     2266     7651                   FILL_MANTISSA -- The mantissa and sign portion of FLOAT are
     2267     7652                                    filled here, taken from the DNT text, ex-
     2268     7653                                    cluding the decimal point.
     2269     7654
     2270     7655        */
     2271     7656
     2272     7657    1      IF NUM_DESC.MANTISSA_SIGN_VALUE = %NO_SIGN_VALUE THEN

   7657  5 000120   200020 236100                    LDQ     NUM_DESC+3,,AUTO
         5 000121   000150 601000 5                  TNZ     s:7666

     2273     7658    2        DO ;

     2274     7659    2          FLOAT.SIGN = %PLUS_SIGN_ ;

   7659  5 000122   053000 236003                    LDQ     22016,DU
         5 000123   000000 552040 3                  STBQ    FLOAT,'40'O

     2275     7660    2          CALL INSERT(FLOAT.MANTISSA,OFFSET,LEFT_LENGTH+RIGHT_LENGTH,

   7660  5 000124   200024 236100                    LDQ     LEFT_LENGTH,,AUTO
         5 000125   200025 036100                    ADLQ    RIGHT_LENGTH,,AUTO
         5 000126   000000 720100                    LXL0    0,,PR0
         5 000127   200024 721100                    LXL1    LEFT_LENGTH,,AUTO
         5 000130   000000 622006                    EAX2    0,QL
         5 000131   040045 100540                    MLR     fill='040'O
         5 000132   100000 000011                    ADSC9   0,,PR1                   cn=0,n=*X1
         5 000133   000000 200012 3                  ADSC9   FLOAT,A                  cn=1,n=*X2
         5 000134   200024 136100                    SBLQ    LEFT_LENGTH,,AUTO
         5 000135   000147 604400 5                  TMOZ    s:7663
         5 000136   200034 756100                    STQ     WORD_EXPONENT+2,,AUTO
         5 000137   200013 236100                    LDQ     OFFSET,,AUTO
         5 000140   200024 036100                    ADLQ    LEFT_LENGTH,,AUTO
         5 000141   200025 720100                    LXL0    RIGHT_LENGTH,,AUTO
         5 000142   200024 235100                    LDA     LEFT_LENGTH,,AUTO
         5 000143   200034 722100                    LXL2    WORD_EXPONENT+2,,AUTO
PL6.E3A0      #002=Z8EC$FLOAT File=Z8EC.:Z8A6TSI                                 SAT 08/09/97 11:51 Page:388
         5 000144   040046 100545                    MLR     fill='040'O
         5 000145   100000 200010                    ADSC9   0,A,PR1                  cn=1,n=*X0
         5 000146   000000 200012 3                  ADSC9   FLOAT,Q                  cn=1,n=*X2

     2276     7661    2              SUBSTR(TEXT,0,LEFT_LENGTH),
     2277     7662    2              SUBSTR(TEXT,LEFT_LENGTH+1,RIGHT_LENGTH)) ;
     2278     7663    2        END ;

   7663  5 000147   000177 710000 5                  TRA     s:7672

     2279     7664    1      ELSE
     2280     7665    2        DO ;

     2281     7666    2          FLOAT.SIGN = SUBSTR(TEXT,0,1) ;

   7666  5 000150   000000 720100                    LXL0    0,,PR0
         5 000151   040000 100500                    MLR     fill='040'O
         5 000152   100000 000001                    ADSC9   0,,PR1                   cn=0,n=1
         5 000153   000000 000001 3                  ADSC9   FLOAT                    cn=0,n=1

     2282     7667    2          CALL INSERT(FLOAT.MANTISSA,OFFSET,LEFT_LENGTH+RIGHT_LENGTH,

   7667  5 000154   200024 236100                    LDQ     LEFT_LENGTH,,AUTO
         5 000155   200025 036100                    ADLQ    RIGHT_LENGTH,,AUTO
         5 000156   000000 721100                    LXL1    0,,PR0
         5 000157   200024 722100                    LXL2    LEFT_LENGTH,,AUTO
         5 000160   000000 623006                    EAX3    0,QL
         5 000161   040045 100540                    MLR     fill='040'O
         5 000162   100000 200012                    ADSC9   0,,PR1                   cn=1,n=*X2
         5 000163   000000 200013 3                  ADSC9   FLOAT,A                  cn=1,n=*X3
         5 000164   200024 136100                    SBLQ    LEFT_LENGTH,,AUTO
         5 000165   000177 604400 5                  TMOZ    s:7672
         5 000166   200034 756100                    STQ     WORD_EXPONENT+2,,AUTO
         5 000167   200013 236100                    LDQ     OFFSET,,AUTO
         5 000170   200024 036100                    ADLQ    LEFT_LENGTH,,AUTO
         5 000171   200025 720100                    LXL0    RIGHT_LENGTH,,AUTO
         5 000172   200024 235100                    LDA     LEFT_LENGTH,,AUTO
PL6.E3A0      #002=Z8EC$FLOAT File=Z8EC.:Z8A6TSI                                 SAT 08/09/97 11:51 Page:389
         5 000173   200034 721100                    LXL1    WORD_EXPONENT+2,,AUTO
         5 000174   040046 100545                    MLR     fill='040'O
         5 000175   100000 400010                    ADSC9   0,A,PR1                  cn=2,n=*X0
         5 000176   000000 200011 3                  ADSC9   FLOAT,Q                  cn=1,n=*X1

     2283     7668    2              SUBSTR(TEXT,1,LEFT_LENGTH),
     2284     7669    2              SUBSTR(TEXT,LEFT_LENGTH+2,RIGHT_LENGTH)) ;
     2285     7670    2        END ;

     2286     7671        %EJECT;
PL6.E3A0      #002=Z8EC$FLOAT File=Z8EC.:Z8A6TSI                                 SAT 08/09/97 11:51 Page:390
     2287     7672    1   TOTAL_ZEROS = 0;

   7672  5 000177   200026 450100                    STZ     TOTAL_ZEROS,,AUTO

     2288     7673
     2289     7674    2   DO I = 0 TO (LEFT_LENGTH - 1);

   7674  5 000200   200031 450100                    STZ     I,,AUTO
         5 000201   000215 710000 5                  TRA     s:7679+1

     2290     7675    2     IF SUBSTR(FLOAT.MANTISSA, OFFSET + I, 1) = '0' THEN

   7675  5 000202   200013 236100                    LDQ     OFFSET,,AUTO
         5 000203   200031 036100                    ADLQ    I,,AUTO
         5 000204   040000 106406                    CMPC    fill='040'O
         5 000205   000000 200001 3                  ADSC9   FLOAT,Q                  cn=1,n=1
         5 000206   000003 000001 6                  ADSC9   3                        cn=0,n=1
         5 000207   000221 601000 5                  TNZ     s:7681

     2291     7676    2       TOTAL_ZEROS = TOTAL_ZEROS + 1;

   7676  5 000210   200026 235100                    LDA     TOTAL_ZEROS,,AUTO
         5 000211   000001 035007                    ADLA    1,DL
         5 000212   200026 755100                    STA     TOTAL_ZEROS,,AUTO
         5 000213   000214 710000 5                  TRA     s:7679

     2292     7677    2     ELSE
     2293     7678    2       EXIT;
     2294     7679    2   END;

   7679  5 000214   200031 054100                    AOS     I,,AUTO
         5 000215   200031 236100                    LDQ     I,,AUTO
         5 000216   000202 604000 5                  TMI     s:7675
         5 000217   200024 116100                    CMPQ    LEFT_LENGTH,,AUTO
         5 000220   000202 602000 5                  TNC     s:7675

     2295     7680
PL6.E3A0      #002=Z8EC$FLOAT File=Z8EC.:Z8A6TSI                                 SAT 08/09/97 11:51 Page:391
     2296     7681    1   IF TOTAL_ZEROS = LEFT_LENGTH      THEN

   7681  5 000221   200026 236100                    LDQ     TOTAL_ZEROS,,AUTO
         5 000222   200024 116100                    CMPQ    LEFT_LENGTH,,AUTO
         5 000223   000246 601000 5                  TNZ     s:7691

     2297     7682
     2298     7683    2     DO I = 0 TO (RIGHT_LENGTH - 1);

   7683  5 000224   200031 450100                    STZ     I,,AUTO
         5 000225   000242 710000 5                  TRA     s:7688+1

     2299     7684    2       IF SUBSTR( FLOAT.MANTISSA, LEFT_LENGTH + OFFSET + I, 1 ) = '0'  THEN

   7684  5 000226   200024 236100                    LDQ     LEFT_LENGTH,,AUTO
         5 000227   200013 036100                    ADLQ    OFFSET,,AUTO
         5 000230   200031 036100                    ADLQ    I,,AUTO
         5 000231   040000 106406                    CMPC    fill='040'O
         5 000232   000000 200001 3                  ADSC9   FLOAT,Q                  cn=1,n=1
         5 000233   000003 000001 6                  ADSC9   3                        cn=0,n=1
         5 000234   000246 601000 5                  TNZ     s:7691

     2300     7685    2         TOTAL_ZEROS = TOTAL_ZEROS + 1;

   7685  5 000235   200026 235100                    LDA     TOTAL_ZEROS,,AUTO
         5 000236   000001 035007                    ADLA    1,DL
         5 000237   200026 755100                    STA     TOTAL_ZEROS,,AUTO
         5 000240   000241 710000 5                  TRA     s:7688

     2301     7686    2       ELSE
     2302     7687    2         EXIT;
     2303     7688    2     END;

   7688  5 000241   200031 054100                    AOS     I,,AUTO
         5 000242   200031 236100                    LDQ     I,,AUTO
         5 000243   000226 604000 5                  TMI     s:7684
         5 000244   200025 116100                    CMPQ    RIGHT_LENGTH,,AUTO
PL6.E3A0      #002=Z8EC$FLOAT File=Z8EC.:Z8A6TSI                                 SAT 08/09/97 11:51 Page:392
         5 000245   000226 602000 5                  TNC     s:7684

     2304     7689
     2305     7690
     2306     7691    1   TOTAL_DIGITS = TOTAL_DIGITS - TOTAL_ZEROS;

   7691  5 000246   200023 236100                    LDQ     TOTAL_DIGITS,,AUTO
         5 000247   200026 136100                    SBLQ    TOTAL_ZEROS,,AUTO
         5 000250   200023 756100                    STQ     TOTAL_DIGITS,,AUTO

     2307     7692         %EJECT;
PL6.E3A0      #002=Z8EC$FLOAT File=Z8EC.:Z8A6TSI                                 SAT 08/09/97 11:51 Page:393
     2308     7693        /*   Check for values too large or small.  In hex mode the
     2309     7694             largest exponent is 152 and the smallest is -155.  In
     2310     7695             binary mode it is + or - 38.
     2311     7696                                                                     */
     2312     7697    1   TOTAL_SIZE = WORD_EXPONENT + TOTAL_DIGITS;

   7697  5 000251   200032 036100                    ADLQ    WORD_EXPONENT,,AUTO
         5 000252   200027 756100                    STQ     TOTAL_SIZE,,AUTO

     2313     7698
     2314     7699    2    IF COMCOM.OB.HEX THEN DO;

   7699  5 000253   000027 234000 xsym               SZN     COMCOM+23
         5 000254   000273 605000 5                  TPL     s:7708

     2315     7700    2      IF TOTAL_SIZE < -155   OR   TOTAL_SIZE > 153   OR

   7700  5 000255   000004 116000 6                  CMPQ    4
         5 000256   000267 604000 5                  TMI     s:7703
         5 000257   000231 116007                    CMPQ    153,DL
         5 000260   000267 605400 5                  TPNZ    s:7703
         5 000261   000302 601000 5                  TNZ     s:7712
         5 000262   200013 235100                    LDA     OFFSET,,AUTO
         5 000263   040000 106405                    CMPC    fill='040'O
         5 000264   000000 200006 3                  ADSC9   FLOAT,A                  cn=1,n=6
         5 000265   000017 000006 4                  ADSC9   15                       cn=0,n=6
         5 000266   000302 602000 5                  TNC     s:7712

     2316     7701    2         (TOTAL_SIZE = 153 AND SUBSTR (FLOAT.MANTISSA, OFFSET, 6)
     2317     7702    2         >= '837988')   THEN
     2318     7703    2       VALUE_OVERFLOW = TRUE;

   7703  5 000267   400000 236003                    LDQ     -131072,DU
         5 000270   200006 470500                    LDP0    @VALUE_OVERFLOW,,AUTO
         5 000271   000000 756100                    STQ     0,,PR0

     2319     7704    2    END;
PL6.E3A0      #002=Z8EC$FLOAT File=Z8EC.:Z8A6TSI                                 SAT 08/09/97 11:51 Page:394

   7704  5 000272   000302 710000 5                  TRA     s:7712

     2320     7705
     2321     7706    1   ELSE
     2322     7707
     2323     7708    1      IF  TOTAL_SIZE > 38  OR  TOTAL_SIZE < -38   THEN

   7708  5 000273   000046 116007                    CMPQ    38,DL
         5 000274   000277 605400 5                  TPNZ    s:7709
         5 000275   000005 116000 6                  CMPQ    5
         5 000276   000302 605000 5                  TPL     s:7712

     2324     7709    1        VALUE_OVERFLOW = TRUE;

   7709  5 000277   400000 236003                    LDQ     -131072,DU
         5 000300   200006 470500                    LDP0    @VALUE_OVERFLOW,,AUTO
         5 000301   000000 756100                    STQ     0,,PR0

     2325     7710
     2326     7711
     2327     7712    1   IF VALUE_OVERFLOW      THEN

   7712  5 000302   200006 470500                    LDP0    @VALUE_OVERFLOW,,AUTO
         5 000303   000000 234100                    SZN     0,,PR0
         5 000304   000312 605000 5                  TPL     s:7728

     2328     7713    2     DO;

     2329     7714    2       FLOAT.MANTISSA = %MANTISSA_ZEROS;

   7714  5 000305   040000 100400                    MLR     fill='040'O
         5 000306   000000 000074 4                  ADSC9   0                        cn=0,n=60
         5 000307   000000 200074 3                  ADSC9   FLOAT                    cn=1,n=60

     2330     7715    2       FLOAT.EXPONENT = 0;

PL6.E3A0      #002=Z8EC$FLOAT File=Z8EC.:Z8A6TSI                                 SAT 08/09/97 11:51 Page:395
   7715  5 000310   000000 236000 6                  LDQ     0
         5 000311   000017 356000 3                  ANSQ    FLOAT+15

     2331     7716    2     END;

     2332     7717        %EJECT;
PL6.E3A0      #002=Z8EC$FLOAT File=Z8EC.:Z8A6TSI                                 SAT 08/09/97 11:51 Page:396
     2333     7718
     2334     7719           %PACK_NDSC (@DESC   = DESC,
     2335     7720                       @LENGTH = %FLOAT_DECIMAL_LENGTH,
     2336     7721                       @SIGN   = %FLOATING_POINT_LEADING_SIGN,
     2337     7722                       @TN     = %NDSC9,
     2338     7723                       @SCALE  = 0 );

   7728  5 000312   000000 220003                    LDX0    0,DU
         5 000313   200014 740100                    STX0    DESCRIPTOR,,AUTO

   7729  5 000314   000006 236000 6                  LDQ     6
         5 000315   200014 356100                    ANSQ    DESCRIPTOR,,AUTO

   7730  5 000316   000007 236000 6                  LDQ     7
         5 000317   200014 356100                    ANSQ    DESCRIPTOR,,AUTO

   7731  5 000320   000010 236000 6                  LDQ     8
         5 000321   200014 356100                    ANSQ    DESCRIPTOR,,AUTO

   7732  5 000322   000000 236003                    LDQ     0,DU
         5 000323   200014 752102                    STCQ    DESCRIPTOR,'02'O,AUTO

   7733  5 000324   000000 235003                    LDA     0,DU
         5 000325   000004 115007                    CMPA    4,DL
         5 000326   000330 602005 5                  TNC     s:7733+4,AL
         5 000327   000344 710000 5                  TRA     s:7783
         5 000330   000342 710000 5                  TRA     s:7764
         5 000331   000337 710000 5                  TRA     s:7740
         5 000332   000337 710000 5                  TRA     s:7740
         5 000333   000334 710000 5                  TRA     s:7735

   7735  5 000334   000074 236007                    LDQ     60,DL
         5 000335   200014 752101                    STCQ    DESCRIPTOR,'01'O,AUTO
         5 000336   000344 710000 5                  TRA     s:7783

   7740  5 000337   000075 236007                    LDQ     61,DL
         5 000340   200014 752101                    STCQ    DESCRIPTOR,'01'O,AUTO
PL6.E3A0      #002=Z8EC$FLOAT File=Z8EC.:Z8A6TSI                                 SAT 08/09/97 11:51 Page:397
         5 000341   000344 710000 5                  TRA     s:7783

   7764  5 000342   000076 236007                    LDQ     62,DL
         5 000343   200014 752101                    STCQ    DESCRIPTOR,'01'O,AUTO

     2339     7772
     2340     7773        /*V*
     2341     7774                           -- The decimal number is converted to real, single
     2342     7775                              or double.  REAL_RESULT must be double word aligned
     2343     7776                              for the double word cases.  The parameter passed
     2344     7777                              in cannot be guaranteed of that.  This is why the
     2345     7778                              answer is put in a temp then moved into the actual
     2346     7779                              result location.
     2347     7780
     2348     7781        */
     2349     7782
     2350     7783    2     IF WORD_EXPONENT < -128 THEN DO ;

   7783  5 000344   200032 236100                    LDQ     WORD_EXPONENT,,AUTO
         5 000345   000011 116000 6                  CMPQ    9
         5 000346   000377 605000 5                  TPL     s:7790

     2351     7784    2      IF DOUBLE_FLOAT THEN

   7784  5 000347   200030 234100                    SZN     DOUBLE_FLOAT,,AUTO
         5 000350   000364 605000 5                  TPL     s:7787

     2352     7785    2        CALL X9DR$CVDQ_SMALL(FLOAT, REAL_RESULT.DOUBLE_REAL, DESCRIPTOR) ;

   7785  5 000351   200014 631500                    EPPR1   DESCRIPTOR,,AUTO
         5 000352   200036 451500                    STP1    WORD_EXPONENT+4,,AUTO
         5 000353   200010 633500                    EPPR3   REAL_RESULT,,AUTO
         5 000354   200035 453500                    STP3    WORD_EXPONENT+3,,AUTO
         5 000355   000012 236000 6                  LDQ     10
         5 000356   200034 756100                    STQ     WORD_EXPONENT+2,,AUTO
         5 000357   200034 630500                    EPPR0   WORD_EXPONENT+2,,AUTO
         5 000360   000001 631400 6                  EPPR1   1
PL6.E3A0      #002=Z8EC$FLOAT File=Z8EC.:Z8A6TSI                                 SAT 08/09/97 11:51 Page:398
         5 000361   000000 701000 xent               TSX1    X9DR$CVDQ_SMALL
         5 000362   000000 011000                    NOP     0
         5 000363   000426 710000 5                  TRA     s:7795

     2353     7786    2      ELSE
     2354     7787    2        CALL X9DR$CVDR_SMALL(FLOAT, REAL_RESULT.SINGLE_REAL, DESCRIPTOR) ;

   7787  5 000364   200014 631500                    EPPR1   DESCRIPTOR,,AUTO
         5 000365   200036 451500                    STP1    WORD_EXPONENT+4,,AUTO
         5 000366   200010 633500                    EPPR3   REAL_RESULT,,AUTO
         5 000367   200035 453500                    STP3    WORD_EXPONENT+3,,AUTO
         5 000370   000012 236000 6                  LDQ     10
         5 000371   200034 756100                    STQ     WORD_EXPONENT+2,,AUTO
         5 000372   200034 630500                    EPPR0   WORD_EXPONENT+2,,AUTO
         5 000373   000001 631400 6                  EPPR1   1
         5 000374   000000 701000 xent               TSX1    X9DR$CVDR_SMALL
         5 000375   000000 011000                    NOP     0

     2355     7788    2     END ;

   7788  5 000376   000426 710000 5                  TRA     s:7795

     2356     7789    1     ELSE
     2357     7790    1      IF DOUBLE_FLOAT THEN

   7790  5 000377   200030 234100                    SZN     DOUBLE_FLOAT,,AUTO
         5 000400   000414 605000 5                  TPL     s:7793

     2358     7791    1        CALL X9DR$CVDQ(FLOAT, REAL_RESULT.DOUBLE_REAL, DESCRIPTOR) ;

   7791  5 000401   200014 631500                    EPPR1   DESCRIPTOR,,AUTO
         5 000402   200036 451500                    STP1    WORD_EXPONENT+4,,AUTO
         5 000403   200010 633500                    EPPR3   REAL_RESULT,,AUTO
         5 000404   200035 453500                    STP3    WORD_EXPONENT+3,,AUTO
         5 000405   000012 236000 6                  LDQ     10
         5 000406   200034 756100                    STQ     WORD_EXPONENT+2,,AUTO
         5 000407   200034 630500                    EPPR0   WORD_EXPONENT+2,,AUTO
PL6.E3A0      #002=Z8EC$FLOAT File=Z8EC.:Z8A6TSI                                 SAT 08/09/97 11:51 Page:399
         5 000410   000001 631400 6                  EPPR1   1
         5 000411   000000 701000 xent               TSX1    X9DR$CVDQ
         5 000412   000000 011000                    NOP     0
         5 000413   000426 710000 5                  TRA     s:7795

     2359     7792    1      ELSE
     2360     7793    1        CALL X9DR$CVDR(FLOAT, REAL_RESULT.SINGLE_REAL, DESCRIPTOR) ;

   7793  5 000414   200014 631500                    EPPR1   DESCRIPTOR,,AUTO
         5 000415   200036 451500                    STP1    WORD_EXPONENT+4,,AUTO
         5 000416   200010 633500                    EPPR3   REAL_RESULT,,AUTO
         5 000417   200035 453500                    STP3    WORD_EXPONENT+3,,AUTO
         5 000420   000012 236000 6                  LDQ     10
         5 000421   200034 756100                    STQ     WORD_EXPONENT+2,,AUTO
         5 000422   200034 630500                    EPPR0   WORD_EXPONENT+2,,AUTO
         5 000423   000001 631400 6                  EPPR1   1
         5 000424   000000 701000 xent               TSX1    X9DR$CVDR
         5 000425   000000 011000                    NOP     0

     2361     7794
     2362     7795    1      TEMP_RESULT = REAL_RESULT ;

   7795  5 000426   200005 470500                    LDP0    @TEMP_RESULT,,AUTO
         5 000427   200010 237100                    LDAQ    REAL_RESULT,,AUTO
         5 000430   000000 755100                    STA     0,,PR0
         5 000431   000001 756100                    STQ     1,,PR0

     2363     7796
     2364     7797    1      RETURN;

   7797  5 000432   000000 702200 xent               TSX2  ! X66_ARET
     2365     7798    1   END Z8EC$FLOAT;
     2366     7799        %EOD;

PL6.E3A0      #002=Z8EC$FLOAT File=Z8EC.:Z8A6TSI                                 SAT 08/09/97 11:51 Page:400
--  Include file information  --

   Z8A_ST.:Z8A6TOU  cannot be made into a system file and is referenced.
   Z8E_NEW_ILL.:Z8A6TOU  is referenced.
   Z8E_MACROS.:Z8A6TOU  cannot be made into a system file and is referenced.
   Z8A_COMCOM.:Z8A6TOU  cannot be made into a system file and is referenced.
   X8A_COM_MACS.:X8A6TOU  is referenced.
   Z8A_NAMES.:Z8A6TOU  is referenced.
   Z8A_SUPP_MAC.:Z8A6TOU  is referenced.
   Z8A_DEFC.:Z8A6TOU  cannot be made into a system file and is referenced.
      No diagnostics issued in procedure Z8EC$FLOAT.
PL6.E3A0      #002=Z8EC$FLOAT File=Z8EC.:Z8A6TSI                                 SAT 08/09/97 11:51 Page:401

 **** Variables and constants ****

  ****  Section 000 LblCom ITERATION

  ****  Scalars and arrays  ****
OctLoc.c.b A Datatyp(siz) R M Lvl/name                 OctLoc.c.b A Datatyp(siz) R M Lvl/name

     0-0-0/w SBIN              1 ITERATION

  ****  Section 001 LblCom ST$

  ****  Scalars and arrays  ****
OctLoc.c.b A Datatyp(siz) R M Lvl/name                 OctLoc.c.b A Datatyp(siz) R M Lvl/name

     0-0-0/w PTR         r     1 ST$

  ****  Section 002 LblCom ST_

  ****  Scalars and arrays  ****
OctLoc.c.b A Datatyp(siz) R M Lvl/name                 OctLoc.c.b A Datatyp(siz) R M Lvl/name

     0-0-0/w STRC(180)         1 ST_

  ****  Section 003  Data  Z8EC$FLOAT

  ****  Scalars and arrays  ****
OctLoc.c.b A Datatyp(siz) R M Lvl/name                 OctLoc.c.b A Datatyp(siz) R M Lvl/name

     0-0-0/w STRC(558)   r     1 FLOAT

  ****  Auto variables  ****

  ****  Scalars and arrays  ****
OctLoc.c.b A Datatyp(siz) R M Lvl/name                 OctLoc.c.b A Datatyp(siz) R M Lvl/name

     4-0-0/w PTR         r     1 @LENGTH                    5-0-0/w PTR         r     1 @TEMP_RESULT
     3-0-0/w PTR         r     1 @TEXT                      6-0-0/w PTR         r     1 @VALUE_OVERFLOW
PL6.E3A0      #002=Z8EC$FLOAT File=Z8EC.:Z8A6TSI                                 SAT 08/09/97 11:51 Page:402
    12-0-0/w UBIN        r     1 COLUMN                    14-0-0/w STRC        r     1 DESC
    14-0-0/w UBIN        r     1 DESCRIPTOR                30-0-0/b BIT         r     1 DOUBLE_FLOAT
    31-0-0/w SBIN        r     1 I                         24-0-0/w UBIN        r     1 LEFT_LENGTH
    *0-0-0/w SBIN        r     1 LENGTH                    15-0-0/w STRC(216)   r     1 NUM_DESC
    13-0-0/w SBIN        r     1 OFFSET                    10-0-0/d STRC(72)    r     1 REAL_RESULT
    25-0-0/w UBIN        r     1 RIGHT_LENGTH              32-0-0/w STRC        r     1 TEMP_EXPONENT
    *0-0-0/w BIT (72)    r     1 TEMP_RESULT               *0-0-0/c ACHR        r     1 TEXT
    23-0-0/w UBIN        r     1 TOTAL_DIGITS              27-0-0/w SBIN        r     1 TOTAL_SIZE
    26-0-0/w UBIN        r     1 TOTAL_ZEROS               *0-0-0/w BIT         r     1 VALUE_OVERFLOW
    32-0-0/w SBIN        r     1 WORD_EXPONENT

  ****  SYMREF variables  ****

  ****  Scalars and arrays  ****
OctLoc.c.b A Datatyp(siz) R M Lvl/name                 OctLoc.c.b A Datatyp(siz) R M Lvl/name

     0-0-0/d STRC(13248) r     1 COMCOM

  ****  BASED and DCB variables  ****

  ****  Scalars and arrays  ****
OctLoc.c.b A Datatyp(siz) R M Lvl/name                 OctLoc.c.b A Datatyp(siz) R M Lvl/name

     0-0-0/w STRC(396)         1 ALPHABET                   0-0-0/w STRC(396)         1 ARRAY
     0-0-0/w STRC(396)         1 BLOCK                      0-0-0/w STRC(396)         1 CD
     0-0-0/w CHAR(4096)        1 CHARS                      0-0-0/w STRC(396)         1 CLASS
     0-0-0/w STRC(396)         1 CONDITION                  0-0-0/w STRC(396)         1 CONST
     0-0-0/w STRC(72)          1 CONT                       0-0-0/w STRC(396)         1 DB
     0-0-0/w STRC(396)         1 DCB_                       0-0-0/w STRC(396)         1 DML_ITEM
     0-0-0/w STRC(396)         1 FD                         0-0-0/w STRC(396)         1 INTDEF
     0-0-0/w STRC(396)         1 LABEL                      0-0-0/w STRC(396)         1 MNEMONIC
     0-0-0/w STRC(36864)       1 PAGE                       0-0-0/w STRC(396)         1 PARA
     0-0-0/w STRC(396)         1 PROC_                      0-0-0/w STRC(396)         1 PROC_DEF
     0-0-0/w STRC(396)         1 RD                         0-0-0/w STRC(396)         1 SCALAR
     0-0-0/w STRC(396)         1 SD                         0-0-0/w STRC(396)         1 SECTION
     0-0-0/w STRC(396)         1 SEGMENT                    0-0-0/w STRC(396)         1 ST
     0-0-0/w STRC(396)         1 SWITCH                     0-0-0/w STRC(396)         1 SYMBOLIC_CHAR
PL6.E3A0      #002=Z8EC$FLOAT File=Z8EC.:Z8A6TSI                                 SAT 08/09/97 11:51 Page:403
     0-0-0/w STRC(396)         1 SYMDEF_                    0-0-0/w STRC(396)         1 SYMREF_
     0-0-0/w STRC(396)         1 TEMP                       0-0-0/w STRC(396)         1 VARIABLE


   Procedure Z8EC$FLOAT requires 283 words for executable code.
   Procedure Z8EC$FLOAT requires 32 words of local(AUTO) storage.

PL6.E3A0      #003=Z8EC$INTERNAL_STRING_REP File=Z8EC.:Z8A6TSI                   SAT 08/09/97 11:52 Page:404
     2367        1        /*T***********************************************************/
     2368        2        /*T*                                                         */
     2369        3        /*T* Copyright (c) Bull HN Information Systems Inc., 1997    */
     2370        4        /*T*                                                         */
     2371        5        /*T***********************************************************/
     2372        6        Z8EC$INTERNAL_STRING_REP : PROC ( STRING$,
     2373        7                                          NEW_DNT$);
     2374        8
     2375        9    1   DCL STRING$ PTR;  /* TO LX_TERMINAL */
     2376       10    1   DCL NEW_DNT$ PTR;
     2377       11
     2378       12        %SET PHASE = 1;
     2379       13
     2380       14        %INCLUDE Z8A_DEFC;
     2381       82        %INCLUDE Z8A_SUPP_MAC;
     2382     2482        %INCLUDE Z8A_COMCOM;
     2383     3132        %INCLUDE Z8A_DNT;
     2384     3353        %INCLUDE Z8A_ST;
     2385     7012        %INCLUDE Z8A_TYPES;
     2386     7186        %INCLUDE Z8A_LTS;
     2387     9263        %INCLUDE Z8A_ERR_NUMS;
     2388    10027        %INCLUDE Z8E_WINDOW;
     2389    12097        %INCLUDE Z8E_TABLES;
     2390    12650        %INCLUDE Z8E_STACKS;
     2391    14916        %INCLUDE Z8E_MACROS;
     2392    15591        %INCLUDE Z8E_O1COM;
     2393    16352
     2394    16353    1   DCL Z8AH$SEARCH_ ENTRY;
     2395    16354    1   DCL Z8AE$ERROR ENTRY(12);
     2396    16355
     2397    16356    1   DCL LOC SBIN WORD;
     2398    16357    1   DCL LAST_LOC SBIN WORD;
     2399    16358    1   DCL DELIM CHAR(1);
     2400    16359    1   DCL ORDVAL SBIN WORD;
     2401    16360    1   DCL ITEM_CLASS SBIN WORD;
     2402    16361    1   DCL ORIG_DNT$ PTR;
     2403    16362
PL6.E3A0      #003=Z8EC$INTERNAL_STRING_REP File=Z8EC.:Z8A6TSI                   SAT 08/09/97 11:52 Page:405
     2404    16363
     2405    16364
     2406    16365    1     ADD_CHAR : PROC (CH);
     2407    16366
     2408    16367    2       DCL CH CHAR(1) CALIGNED;
     2409    16368
     2410    16369    2       LEX_SYMBOL.SIZE = MINIMUM (LEX_SYMBOL.SIZE + 1,
     2411    16370    2                                  %MAX_SYMBOL_SIZE_PLUS_1);
     2412    16371
     2413    16372    2       SUBSTR(LEX_SYMBOL.SYMBOL,
     2414    16373    2              LEX_SYMBOL.SIZE - 1,
     2415    16374    2              1) = CH;
     2416    16375
     2417    16376    2     END ADD_CHAR;
     2418    16377
     2419    16378
     2420    16379    1     ADD_STR : PROC (STR, LEN);
     2421    16380
     2422    16381    2       DCL LEN SBIN WORD;
     2423    16382    2       DCL STR CHAR(LEN) CALIGNED;
     2424    16383
     2425    16384    2       SUBSTR(LEX_SYMBOL.SYMBOL,
     2426    16385    2              LEX_SYMBOL.SIZE,
     2427    16386    2              MINIMUM (LEN,
     2428    16387    2                       %MAX_SYMBOL_SIZE_PLUS_1 - LEX_SYMBOL.SIZE)) = STR;
     2429    16388
     2430    16389    2       LEX_SYMBOL.SIZE = MINIMUM (LEX_SYMBOL.SIZE + LEN,
     2431    16390    2                                  %MAX_SYMBOL_SIZE_PLUS_1);
     2432    16391
     2433    16392    2     END ADD_STR;
     2434    16393
     2435    16394        %EJECT;
PL6.E3A0      #003=Z8EC$INTERNAL_STRING_REP File=Z8EC.:Z8A6TSI                   SAT 08/09/97 11:52 Page:406
     2436    16395    1       KANJI_CHECK: PROC ALTRET ;
     2437    16396
     2438    16397    2         NEW_DNT$ = ORIG_DNT$ ;
     2439    16398
     2440    16399              /* Check that length of Kanji literal is even */
     2441    16400
     2442    16401    3         IF MOD (ORIG_DNT$ -> DNT.TEXT.LENGTH, 2) = 1 THEN DO ;
     2443    16402
     2444    16403                %CONDITIONAL_ERROR (@LX_ITEM$ = STRING$,
     2445    16404                                    @ERROR#   = %E$GRAPHIC_LITERAL_ODD,
     2446    16405                                    @LINE     = STRING$ -> LX_TERMINAL.LINE,
     2447    16406                                    @COLUMN   = STRING$ -> LX_TERMINAL.COLUMN) ;
     2448    16436    3           ALTRETURN ;
     2449    16437
     2450    16438    3         END ; /* Length is not even number of 9-bit bytes */
     2451    16439
     2452    16440    2         IF SUBSTR (ORIG_DNT$ -> DNT.TEXT.NAME,
     2453    16441    3              ORIG_DNT$ -> DNT.TEXT.LENGTH - 2, 1) ~= %KANJI_END THEN DO ;
     2454    16442
     2455    16443                %CONDITIONAL_ERROR (@LX_ITEM$ = STRING$,
     2456    16444                                    @ERROR#   = %E$ILLEGAL_GRAPHIC_LITERAL,
     2457    16445                                    @LINE     = STRING$ -> LX_TERMINAL.LINE,
     2458    16446                                    @COLUMN   = STRING$ -> LX_TERMINAL.COLUMN) ;
     2459    16476    3           ALTRETURN ;
     2460    16477
     2461    16478    3         END ; /* Last character is not Kanji_End (KE) */
     2462    16479
     2463    16480              /* Quickly check for embedded Kanji_End characters */
     2464    16481
     2465    16482    2         CALL INDEX (LOC,
     2466    16483    2                     %KANJI_END,
     2467    16484    2                     ORIG_DNT$ -> DNT.TEXT.NAME,
     2468    16485    2                     1) ;
     2469    16486
     2470    16487    3         IF LOC < ORIG_DNT$ -> DNT.TEXT.LENGTH - 2 THEN DO ;
     2471    16488
     2472    16489                /* There are embedded KE-KS pairs, so a new DNT must be created */
PL6.E3A0      #003=Z8EC$INTERNAL_STRING_REP File=Z8EC.:Z8A6TSI                   SAT 08/09/97 11:52 Page:407
     2473    16490
     2474    16491    3           LAST_LOC = 0 ;
     2475    16492
     2476    16493    4           DO WHILE LOC + 2 < ORIG_DNT$ -> DNT.TEXT.LENGTH ;
     2477    16494
     2478    16495    4             CALL ADD_STR (SUBSTR (ORIG_DNT$ -> DNT.TEXT.NAME,
     2479    16496    4                                   LAST_LOC,
     2480    16497    4                                   LOC - LAST_LOC),
     2481    16498    4                           LOC - LAST_LOC) ;
     2482    16499
     2483    16500    4             LAST_LOC = LOC ;
     2484    16501
     2485    16502                  /* LOC contains KE; see if LOC+1 contains KS */
     2486    16503
     2487    16504    4             IF SUBSTR (ORIG_DNT$ -> DNT.TEXT.NAME, LOC + 1, 1) ~=
     2488    16505    5                %KANJI_START THEN DO ;
     2489    16506
     2490    16507                    %CONDITIONAL_ERROR (@LX_ITEM$ = STRING$,
     2491    16508                                        @ERROR#   = %E$GRAPHIC_LITERAL_KE_KS_ERROR,
     2492    16509                                        @LINE     = STRING$ -> LX_TERMINAL.LINE,
     2493    16510                                        @COLUMN   = STRING$ -> LX_TERMINAL.COLUMN) ;
     2494    16540    5               ALTRETURN ;
     2495    16541
     2496    16542    5             END ; /* KS is missing after KE */
     2497    16543
     2498    16544    4             LAST_LOC = LOC + 2 ; /* Remove KE and KS */
     2499    16545    4             LOC      = LOC + 2 ;
     2500    16546
     2501    16547    4             CALL INDEX (LOC,
     2502    16548    4                         %KANJI_END,
     2503    16549    4                         ORIG_DNT$ -> DNT.TEXT.NAME,
     2504    16550    4                         LAST_LOC) ;
     2505    16551
     2506    16552    4           END ; /* Do While LOC+2 < original length */
     2507    16553
     2508    16554    3           CALL ADD_STR (SUBSTR (ORIG_DNT$ -> DNT.TEXT.NAME,
     2509    16555    3                                 LAST_LOC,
PL6.E3A0      #003=Z8EC$INTERNAL_STRING_REP File=Z8EC.:Z8A6TSI                   SAT 08/09/97 11:52 Page:408
     2510    16556    3                                 ORIG_DNT$ -> DNT.TEXT.LENGTH - LAST_LOC),
     2511    16557    3                         ORIG_DNT$ -> DNT.TEXT.LENGTH - LAST_LOC) ;
     2512    16558
     2513    16559    3           CALL Z8AH$SEARCH_ ;
     2514    16560    3           NEW_DNT$ = DNT$ ;
     2515    16561
     2516    16562    3         END ; /* There is an embedded KE-KS pair */
     2517    16563
     2518    16564    2       END KANJI_CHECK ;
     2519    16565
     2520    16566        %EJECT;
PL6.E3A0      #003=Z8EC$INTERNAL_STRING_REP File=Z8EC.:Z8A6TSI                   SAT 08/09/97 11:52 Page:409
     2521    16567    1       CHECK_KANJI_BYTES: PROC (DNT$$) ;
     2522    16568
     2523    16569    2         DCL  DNT$$      PTR ;
     2524    16570    2         DCL  CHARACTER  CHAR (1) ;
     2525    16571    2         DCL  CHAR_UBIN  REDEF CHARACTER UBIN BYTE UNAL ;
     2526    16572
     2527    16573              /* Check 2nd thru (n-1)th characters (exclude quotes). */
     2528    16574
     2529    16575    3         DO LOC = 1 TO DNT$$ -> DNT.TEXT.LENGTH - 2 ;
     2530    16576
     2531    16577    3           CHARACTER = SUBSTR (DNT$$ -> DNT.TEXT.NAME, LOC, 1) ;
     2532    16578
     2533    16579    4           IF CHAR_UBIN < 128 THEN DO ; /* (200)octal */
     2534    16580
     2535    16581                  %CONDITIONAL_ERROR (@LX_ITEM$ = STRING$,
     2536    16582                                      @ERROR#   = %E$ILLEGAL_GRAPHIC_CHARACTER,
     2537    16583                                      @LINE     = STRING$ -> LX_TERMINAL.LINE,
     2538    16584                                      @COLUMN   = STRING$ -> LX_TERMINAL.COLUMN) ;
     2539    16614    4             RETURN ;
     2540    16615
     2541    16616    4           END ; /* Found an illegel kanji character */
     2542    16617
     2543    16618    3         END ; /* Do While */
     2544    16619
     2545    16620    2       END CHECK_KANJI_BYTES ;
     2546    16621
     2547    16622        %EJECT;
PL6.E3A0      #003=Z8EC$INTERNAL_STRING_REP File=Z8EC.:Z8A6TSI                   SAT 08/09/97 11:52 Page:410
     2548    16623        /* Start of Z8EC$INTERNAL_STRING_REP */
     2549    16624
     2550    16625    1   LEX_SYMBOL.SIZE = 0;
     2551    16626
     2552    16627    2   DO CASE(STRING$ -> LX_TERMINAL.SYMBOL);
     2553    16628
     2554    16629    2     CASE(%SINGLE_QUOTE, %DOUBLE_QUOTE);
     2555    16630
     2556    16631    2       ORIG_DNT$ = STRING$ -> LX_TERMINAL.DNT$;
     2557    16632
     2558    16633        %EJECT;
PL6.E3A0      #003=Z8EC$INTERNAL_STRING_REP File=Z8EC.:Z8A6TSI                   SAT 08/09/97 11:52 Page:411
     2559    16634            /* Check Kanji literal for legality */
     2560    16635
     2561    16636    2       IF  STRING$ -> LX_TERMINAL.TYPE = %TYN
     2562    16637    3       AND SUBSTR (ORIG_DNT$ -> DNT.TEXT.NAME, 1, 1) = %KANJI_START THEN DO ;
     2563    16638
     2564    16639    3         CALL KANJI_CHECK ALTRET (ERROR_EXIT) ;
     2565    16640    3         CALL CHECK_KANJI_BYTES (NEW_DNT$) ;
     2566    16641    3         GOTO REGULAR_EXIT ;
     2567    16642
     2568    16643    3       END ; /* Kanji context */
     2569    16644
     2570    16645        %EJECT;
PL6.E3A0      #003=Z8EC$INTERNAL_STRING_REP File=Z8EC.:Z8A6TSI                   SAT 08/09/97 11:52 Page:412
     2571    16646            /* Quickly check the string for embedded quotes */
     2572    16647
     2573    16648    2       CALL INDEX (LOC,
     2574    16649    2                   SUBSTR(ORIG_DNT$ -> DNT.TEXT.NAME, 0, 1),
     2575    16650    2                   ORIG_DNT$ -> DNT.TEXT.NAME,
     2576    16651    2                   1);
     2577    16652
     2578    16653    2       IF LOC >= ORIG_DNT$ -> DNT.TEXT.LENGTH - 1 THEN
     2579    16654    2         NEW_DNT$ = ORIG_DNT$;
     2580    16655    2       ELSE
     2581    16656    3         DO;
     2582    16657                /* There are embedded quotes, so a new DNT must be created */
     2583    16658
     2584    16659
     2585    16660    3           DELIM = SUBSTR (ORIG_DNT$ -> DNT.TEXT.NAME,
     2586    16661    3                           0,
     2587    16662    3                           1);
     2588    16663
     2589    16664    3           IF SUBSTR(ORIG_DNT$ -> DNT.TEXT.NAME,
     2590    16665    3                     ORIG_DNT$ -> DNT.TEXT.LENGTH - 1,
     2591    16666    3                     1) ~= DELIM THEN
     2592    16667    3             GOTO STR_ERROR;
     2593    16668
     2594    16669    3           LAST_LOC = 0;
     2595    16670
     2596    16671    4           DO WHILE LOC + 2 < ORIG_DNT$ -> DNT.TEXT.LENGTH;
     2597    16672
     2598    16673    4             CALL ADD_STR (SUBSTR(ORIG_DNT$ -> DNT.TEXT.NAME,
     2599    16674    4                                  LAST_LOC,
     2600    16675    4                                  LOC - LAST_LOC),
     2601    16676    4                           LOC - LAST_LOC);
     2602    16677
     2603    16678    4             LAST_LOC = LOC;
     2604    16679
     2605    16680    4             IF SUBSTR(ORIG_DNT$ -> DNT.TEXT.NAME,
     2606    16681    4                       LOC + 1,
     2607    16682    4                      1) = DELIM THEN
PL6.E3A0      #003=Z8EC$INTERNAL_STRING_REP File=Z8EC.:Z8A6TSI                   SAT 08/09/97 11:52 Page:413
     2608    16683    5               DO;
     2609    16684    5                 CALL ADD_CHAR(DELIM);
     2610    16685    5                 LAST_LOC = LOC + 2;
     2611    16686    5                 LOC      = LOC + 2;
     2612    16687    5               END;
     2613    16688    4             ELSE
     2614    16689    5               DO;
     2615    16690                      /* Determine character type */
     2616    16691
     2617    16692    5                 LAST_LOC = LOC + 1;
     2618    16693    5                 CALL SEARCH (LOC,
     2619    16694    5                              ITEM_CLASS,
     2620    16695    5                              ASCII_SEARCH_TABLE,
     2621    16696    5                              ORIG_DNT$ -> DNT.TEXT.NAME,
     2622    16697    5                              LAST_LOC);
     2623    16698
     2624    16699    5                 IF ITEM_CLASS = %DIGIT THEN
     2625    16700    6                   DO;
     2626    16701    7                     DO WHILE ITEM_CLASS = %DIGIT;
     2627    16702
     2628    16703    7                       CALL SEARCH (LOC,
     2629    16704    7                                    ITEM_CLASS,
     2630    16705    7                                    DIGIT_SCAN_TABLE,
     2631    16706    7                                    ORIG_DNT$ -> DNT.TEXT.NAME,
     2632    16707    7                                    LAST_LOC);
     2633    16708
     2634    16709    7                       IF LOC - LAST_LOC > 10 THEN
     2635    16710    7                         GOTO STR_ERROR;
     2636    16711    7                       CALL CHARBIN (ORDVAL,
     2637    16712    7                                     SUBSTR(ORIG_DNT$ -> DNT.TEXT.NAME,
     2638    16713    7                                            LAST_LOC,
     2639    16714    7                                            LOC - LAST_LOC));
     2640    16715
     2641    16716    7                       IF ORDVAL > 512
     2642    16717    7                       OR ORDVAL = 0 THEN
     2643    16718    7                          GOTO BAD_ORDINAL;
     2644    16719
PL6.E3A0      #003=Z8EC$INTERNAL_STRING_REP File=Z8EC.:Z8A6TSI                   SAT 08/09/97 11:52 Page:414
     2645    16720    7                       IF COMCOM.OB.FIPS.LEVEL >= %HIGH_LEV AND
     2646    16721    7                           ORDVAL > 256 THEN
     2647    16722    7                         CALL Z8AE$ERROR (%E$NON_ANSI_ORDINAL,
     2648    16723    7                                          STRING$ -> LX_TERMINAL.LINE,
     2649    16724    7                                          STRING$ -> LX_TERMINAL.COLUMN);
     2650    16725
     2651    16726    7                       CALL ADD_CHAR (BINASC(ORDVAL - 1));
     2652    16727
     2653    16728                            /* Skip blanks & commas */
     2654    16729    8                       DO WHILE ITEM_CLASS = %SPACE OR ITEM_CLASS = %COMMA;
     2655    16730
     2656    16731    8                         CALL SEARCH (LOC,
     2657    16732    8                                      ITEM_CLASS,
     2658    16733    8                                      ASCII_SEARCH_TABLE,
     2659    16734    8                                      ORIG_DNT$ -> DNT.TEXT.NAME,
     2660    16735    8                                      LOC + 1);
     2661    16736
     2662    16737    8                       END;
     2663    16738
     2664    16739    7                       LAST_LOC = LOC;
     2665    16740    7                     END;  /* do while class */
     2666    16741
     2667    16742    6                     IF SUBSTR (ORIG_DNT$ -> DNT.TEXT.NAME,
     2668    16743    6                                LOC,
     2669    16744    6                               1) ~= DELIM THEN
     2670    16745    6                       GOTO STR_ERROR;
     2671    16746
     2672    16747    6                     LAST_LOC = LOC + 1;
     2673    16748    6                     LOC      = LOC + 1;
     2674    16749    6                   END;
     2675    16750    5                 ELSE
     2676    16751    5                   GOTO STR_ERROR;
     2677    16752    5               END;
     2678    16753
     2679    16754    4             CALL INDEX (LOC,
     2680    16755    4                         DELIM,
     2681    16756    4                         ORIG_DNT$ -> DNT.TEXT.NAME,
PL6.E3A0      #003=Z8EC$INTERNAL_STRING_REP File=Z8EC.:Z8A6TSI                   SAT 08/09/97 11:52 Page:415
     2682    16757    4                         LAST_LOC);
     2683    16758    4           END;  /* do while */
     2684    16759    3           IF LOC ~= ORIG_DNT$ -> DNT.TEXT.LENGTH - 1 THEN
     2685    16760    3             GOTO STR_ERROR;
     2686    16761
     2687    16762    3           CALL ADD_STR(SUBSTR(ORIG_DNT$ -> DNT.TEXT.NAME,
     2688    16763    3                               LAST_LOC,
     2689    16764    3                               ORIG_DNT$ -> DNT.TEXT.LENGTH - LAST_LOC),
     2690    16765    3                        ORIG_DNT$ -> DNT.TEXT.LENGTH - LAST_LOC);
     2691    16766
     2692    16767    3           CALL Z8AH$SEARCH_;
     2693    16768    3           NEW_DNT$ = DNT$;
     2694    16769
     2695    16770    3         END;
     2696    16771
     2697    16772              /* Check that length of Kanji literal is even */
     2698    16773
     2699    16774    3         IF STRING$ -> LX_TERMINAL.TYPE = %TYN THEN DO ;
     2700    16775
     2701    16776    4           IF MOD (NEW_DNT$ -> DNT.TEXT.LENGTH, 2) = 1 THEN DO ;
     2702    16777
     2703    16778                  %CONDITIONAL_ERROR (@LX_ITEM$ = STRING$,
     2704    16779                                      @ERROR#   = %E$GRAPHIC_LITERAL_ODD,
     2705    16780                                      @LINE     = STRING$ -> LX_TERMINAL.LINE,
     2706    16781                                      @COLUMN   = STRING$ -> LX_TERMINAL.COLUMN) ;
     2707    16811
     2708    16812    4           END ; /* Length is not even number of 9-bit bytes */
     2709    16813
     2710    16814    3           CALL CHECK_KANJI_BYTES (NEW_DNT$) ;
     2711    16815
     2712    16816    3         END ; /* String is type kanji */
     2713    16817
     2714    16818    2     CASE(ELSE);
     2715    16819
     2716    16820    3       DO SELECT (STRING$ -> LX_TERMINAL.SYMBOL);
     2717    16821
     2718    16822    3         SELECT(%RSV_WRD_ZEROES);
PL6.E3A0      #003=Z8EC$INTERNAL_STRING_REP File=Z8EC.:Z8A6TSI                   SAT 08/09/97 11:52 Page:416
     2719    16823
     2720    16824    3           CALL ADD_STR('"0"',3);
     2721    16825
     2722    16826    3         SELECT(%RSV_WRD_SPACES);
     2723    16827
     2724    16828    3           CALL ADD_STR('" "',3);
     2725    16829
     2726    16830    3         SELECT(%RSV_WRD_QUOTES);
     2727    16831
     2728    16832    3           CALL ADD_STR('"""', 3);
     2729    16833
     2730    16834    3         SELECT(%RSV_WRD_HIGH_VALUES);
     2731    16835
     2732    16836    3           CALL ADD_CHAR('"');
     2733    16837    3           CALL ADD_STR (O1COM.CURRENT_PROC$ -> PROC_.PROC_SUPP$ ->
     2734    16838    3                         PROC_SUPP.HIGH_VALUE, 1);
     2735    16839    3           CALL ADD_CHAR('"');
     2736    16840
     2737    16841    3         SELECT(%RSV_WRD_LOW_VALUES);
     2738    16842
     2739    16843    3           CALL ADD_CHAR('"');
     2740    16844    3           CALL ADD_STR (O1COM.CURRENT_PROC$ -> PROC_.PROC_SUPP$ ->
     2741    16845    3                         PROC_SUPP.LOW_VALUE, 1);
     2742    16846    3           CALL ADD_CHAR('"');
     2743    16847    3         SELECT(ELSE);
     2744    16848
     2745    16849    3           CALL Z8AE$ERROR (%E$UNEXPECTED_CASE);
     2746    16850    3           CALL ADD_STR('" "', 3);
     2747    16851    3       END;
     2748    16852
     2749    16853    2       CALL Z8AH$SEARCH_;
     2750    16854    2       NEW_DNT$ = DNT$;
     2751    16855    2   END;  /* do case on LX_TERMINAL.SYMBOL */
     2752    16856
     2753    16857    1   REGULAR_EXIT:
     2754    16858
     2755    16859    1     RETURN;
PL6.E3A0      #003=Z8EC$INTERNAL_STRING_REP File=Z8EC.:Z8A6TSI                   SAT 08/09/97 11:52 Page:417
     2756    16860
     2757    16861    1   BAD_ORDINAL:
     2758    16862
     2759    16863          %CONDITIONAL_ERROR (@LX_ITEM$ = STRING$,
     2760    16864                              @ERROR# = %E$BAD_ORDINAL_CHARACTER,
     2761    16865                              @LINE = STRING$ -> LX_TERMINAL.LINE,
     2762    16866                              @COLUMN = STRING$ -> LX_TERMINAL.COLUMN);
     2763    16896
     2764    16897    1     GOTO ERROR_EXIT;
     2765    16898
     2766    16899    1   STR_ERROR:
     2767    16900
     2768    16901          %CONDITIONAL_ERROR (@LX_ITEM$ = STRING$,
     2769    16902                              @ERROR# = %E$EMBEDDED_QUOTES,
     2770    16903                              @LINE = STRING$ -> LX_TERMINAL.LINE,
     2771    16904                              @COLUMN = STRING$ -> LX_TERMINAL.COLUMN);
     2772    16934
     2773    16935    1   ERROR_EXIT:
     2774    16936
     2775    16937    1     NEW_DNT$ = ORIG_DNT$;
     2776    16938
     2777    16939    1     RETURN;
     2778    16940
     2779    16941    1   END Z8EC$INTERNAL_STRING_REP;

PL6.E3A0      #003=Z8EC$INTERNAL_STRING_REP File=Z8EC.:Z8A6TSI                   SAT 08/09/97 11:52 Page:418
--  Include file information  --

   Z8E_O1COM.:Z8A6TOU  cannot be made into a system file and is referenced.
   Z8E_NEW_ILL.:Z8A6TOU  is referenced.
   Z8E_MACROS.:Z8A6TOU  cannot be made into a system file and is referenced.
   Z8A_LEX_SYMB.:Z8A6TOU  cannot be made into a system file and is referenced.
   Z8E_STACKS.:Z8A6TOU  cannot be made into a system file and is referenced.
   Z8E_TABLES.:Z8A6TOU  cannot be made into a system file and is referenced.
   Z8E_WINDOW.:Z8A6TOU  is referenced.
   Z8A_ERR_NUMS.:Z8A6TOU  is referenced.
   Z8A_LTS.:Z8A6TOU  cannot be made into a system file and is referenced.
   Z8A_TYPES.:Z8A6TOU  is referenced.
   Z8A_ST.:Z8A6TOU  cannot be made into a system file and is referenced.
   Z8A_DNT.:Z8A6TOU  cannot be made into a system file and is referenced.
   Z8A_COMCOM.:Z8A6TOU  cannot be made into a system file and is referenced.
   X8A_COM_MACS.:X8A6TOU  is referenced.
   Z8A_NAMES.:Z8A6TOU  is referenced.
   Z8A_SUPP_MAC.:Z8A6TOU  is referenced.
   Z8A_DEFC.:Z8A6TOU  cannot be made into a system file and is referenced.
      No diagnostics issued in procedure Z8EC$INTERNAL_STRING_REP.

   Procedure Z8EC$INTERNAL_STRING_REP requires 680 words for executable code.
   Procedure Z8EC$INTERNAL_STRING_REP requires 30 words of local(AUTO) storage.

    No errors detected in file Z8EC.:Z8A6TSI    .

PL6.E3A0      #003=Z8EC$INTERNAL_STRING_REP File=Z8EC.:Z8A6TSI                   SAT 08/09/97 11:52 Page:419

 Object Unit name= Z8EC$INTERNAL_STRING_REP                   File name= Z8EC.:Z8A6TOU
 UTS= AUG 09 '97 11:52:25.64 SAT                              Compiler= PL-6/E31         Sev=      00
 SharedLib= :SHARED_SYSTEM                                    Alt SharedLib=


    ****  Control sections  ****

 Sect   Type Bound  Init  Size OctSiz  Section name(segment info)
    0  LblCom even  none     1      1  ITERATION
    1  LblCom even  none     1      1  DNT$
    2  LblCom even  none     5      5  DNT_
    3  LblCom even  none     1      1  DNT_BUCKET_NUMBER
    4  LblCom even  none     1      1  DNT_OF_1$
    5  LblCom even  none     1      1  ST$
    6  LblCom even  none     5      5  ST_
    7  LblCom even  none     1      1  LTS$
    8  LblCom even  none     5      5  LTS_
    9  LblCom even  none    90    132  LEX_SYMBOL
   10  LblCom even  none     1      1  CURRENT_LEX_SYMBOL$
   11  LblCom even  none    90    132  TEMP_LEX_SYMBOL
   12  LblCom even  none    90    132  TEMP_LEX_SYMBOL2
   13  RoData even  UTS      3      3  Z8EC$INTERNAL_STRING_REP
   14   Proc  even  none   680   1250  Z8EC$INTERNAL_STRING_REP
   15  RoData even  none    34     42  Z8EC$INTERNAL_STRING_REP

    ****  Entry defs  ****

                              Check   Calling
                             calling  sequence
  Sect OctLoc Primary Altret sequence   type   Parms  Name
    14      0   yes            yes      Std        2  Z8EC$INTERNAL_STRING_REP
PL6.E3A0      #003=Z8EC$INTERNAL_STRING_REP File=Z8EC.:Z8A6TSI                   SAT 08/09/97 11:52 Page:420

  ****  Entry refs  ****

         Check        Calling
        calling       sequence
Altret sequence SRef   type   Args  Name
         yes           Std       0 Z8AH$SEARCH_
         yes           Std      12 Z8AE$ERROR
                       nStd      0 X66_AUTO_2
                       nStd      0 X66_ARET

  ****  Data refs  ****

  Flags:  r = read only, s = secondary
Flgs Name                             Flgs Name                             Flgs Name
     COMCOM                           r    LTS_STEP                         r    USERWORD_SCAN_TABLE
r    ANSI_USERWORD_SCAN_TABLE         r    ASCII_SEARCH_TABLE               r    BLANK_SCAN_TABLE
r    DIGIT_SCAN_TABLE                 r    LETTER_SEARCH_TABLE              r    DOUBLE_QUOTE_SEARCH_TABLE
r    SINGLE_QUOTE_SEARCH_TABLE        r    DBL_QUOTE_PSEUDO_SEARCH_TABLE    r  SNGL_QUOTE_PSEUDO_SEARCH_TABLE
r    SEPARATORS_TABLE                 r    LOWER_TO_UPPER_CASE              r    CURRENCY_SIGN_CHARS
     O1COM                                 HIER_STK_PTR                          HIER_STK
     PAGE_FORMAT                           REP_STK_PTR                           REP_STK

  ****  Segment refs  ****

  Flags:  r = read only, s = secondary
Flgs Name                             Flgs Name                             Flgs Name
     NULLSID                               ISSID
PL6.E3A0      #003=Z8EC$INTERNAL_STRING_REP File=Z8EC.:Z8A6TSI                   SAT 08/09/97 11:52 Page:421


     2367        1        /*T***********************************************************/
     2368        2        /*T*                                                         */
     2369        3        /*T* Copyright (c) Bull HN Information Systems Inc., 1997    */
     2370        4        /*T*                                                         */
     2371        5        /*T***********************************************************/
     2372        6        Z8EC$INTERNAL_STRING_REP : PROC ( STRING$,

      6 14 000000   000000 700200 xent  Z8EC$INTERN* TSX0  ! X66_AUTO_2
        14 000001   000036 000002                    ZERO    30,2
        14 000002   000367 710000 14                 TRA     s:16625

     2373        7                                          NEW_DNT$);
     2374        8
     2375        9    1   DCL STRING$ PTR;  /* TO LX_TERMINAL */
     2376       10    1   DCL NEW_DNT$ PTR;
     2377       11
     2378       12        %SET PHASE = 1;
     2379       13
     2380       14        %INCLUDE Z8A_DEFC;
     2381       82        %INCLUDE Z8A_SUPP_MAC;
     2382     2482        %INCLUDE Z8A_COMCOM;
     2383     3132        %INCLUDE Z8A_DNT;
     2384     3353        %INCLUDE Z8A_ST;
     2385     7012        %INCLUDE Z8A_TYPES;
     2386     7186        %INCLUDE Z8A_LTS;
     2387     9263        %INCLUDE Z8A_ERR_NUMS;
     2388    10027        %INCLUDE Z8E_WINDOW;
     2389    12097        %INCLUDE Z8E_TABLES;
     2390    12650        %INCLUDE Z8E_STACKS;
     2391    14916        %INCLUDE Z8E_MACROS;
     2392    15591        %INCLUDE Z8E_O1COM;
     2393    16352
     2394    16353    1   DCL Z8AH$SEARCH_ ENTRY;
     2395    16354    1   DCL Z8AE$ERROR ENTRY(12);
     2396    16355
     2397    16356    1   DCL LOC SBIN WORD;
PL6.E3A0      #003=Z8EC$INTERNAL_STRING_REP File=Z8EC.:Z8A6TSI                   SAT 08/09/97 11:52 Page:422
     2398    16357    1   DCL LAST_LOC SBIN WORD;
     2399    16358    1   DCL DELIM CHAR(1);
     2400    16359    1   DCL ORDVAL SBIN WORD;
     2401    16360    1   DCL ITEM_CLASS SBIN WORD;
     2402    16361    1   DCL ORIG_DNT$ PTR;
     2403    16362
     2404    16363
     2405    16364
     2406    16365    1     ADD_CHAR : PROC (CH);

  16365 14 000003   200014 741300       ADD_CHAR     STX1  ! ORIG_DNT$+2,,AUTO

     2407    16366
     2408    16367    2       DCL CH CHAR(1) CALIGNED;
     2409    16368
     2410    16369    2       LEX_SYMBOL.SIZE = MINIMUM (LEX_SYMBOL.SIZE + 1,

  16369 14 000004   000010 236000 9                  LDQ     LEX_SYMBOL+8
        14 000005   000001 036007                    ADLQ    1,DL
        14 000006   000504 116007                    CMPQ    324,DL
        14 000007   000011 604400 14                 TMOZ    s:16369+5
        14 000010   000504 236007                    LDQ     324,DL
        14 000011   000010 756000 9                  STQ     LEX_SYMBOL+8

     2411    16370    2                                  %MAX_SYMBOL_SIZE_PLUS_1);
     2412    16371
     2413    16372    2       SUBSTR(LEX_SYMBOL.SYMBOL,

  16372 14 000012   200015 470500                    LDP0    @CH,,AUTO
        14 000013   040006 100500                    MLR     fill='040'O
        14 000014   000000 000001                    ADSC9   0,,PR0                   cn=0,n=1
        14 000015   000010 600001 9                  ADSC9   LEX_SYMBOL+8,Q           cn=3,n=1

     2414    16373    2              LEX_SYMBOL.SIZE - 1,
     2415    16374    2              1) = CH;
     2416    16375
     2417    16376    2     END ADD_CHAR;
PL6.E3A0      #003=Z8EC$INTERNAL_STRING_REP File=Z8EC.:Z8A6TSI                   SAT 08/09/97 11:52 Page:423

  16376 14 000016   000001 702211                    TSX2  ! 1,X1

     2418    16377
     2419    16378
     2420    16379    1     ADD_STR : PROC (STR, LEN);

  16379 14 000017   200016 741300       ADD_STR      STX1  ! @DNT$$+1,,AUTO

     2421    16380
     2422    16381    2       DCL LEN SBIN WORD;
     2423    16382    2       DCL STR CHAR(LEN) CALIGNED;
     2424    16383
     2425    16384    2       SUBSTR(LEX_SYMBOL.SYMBOL,

  16384 14 000020   000504 236007                    LDQ     324,DL
        14 000021   000010 136000 9                  SBLQ    LEX_SYMBOL+8
        14 000022   200020 470500                    LDP0    @LEN,,AUTO
        14 000023   000000 116100                    CMPQ    0,,PR0
        14 000024   000026 604400 14                 TMOZ    s:16384+6
        14 000025   000000 236100                    LDQ     0,,PR0
        14 000026   000000 720100                    LXL0    0,,PR0
        14 000027   200017 471500                    LDP1    @STR,,AUTO
        14 000030   000000 622006                    EAX2    0,QL
        14 000031   000010 235000 9                  LDA     LEX_SYMBOL+8
        14 000032   040045 100540                    MLR     fill='040'O
        14 000033   100000 000010                    ADSC9   0,,PR1                   cn=0,n=*X0
        14 000034   000011 000012 9                  ADSC9   LEX_SYMBOL+9,A           cn=0,n=*X2

     2426    16385    2              LEX_SYMBOL.SIZE,
     2427    16386    2              MINIMUM (LEN,
     2428    16387    2                       %MAX_SYMBOL_SIZE_PLUS_1 - LEX_SYMBOL.SIZE)) = STR;
     2429    16388
     2430    16389    2       LEX_SYMBOL.SIZE = MINIMUM (LEX_SYMBOL.SIZE + LEN,

  16389 14 000035   000010 236000 9                  LDQ     LEX_SYMBOL+8
        14 000036   000000 036100                    ADLQ    0,,PR0
PL6.E3A0      #003=Z8EC$INTERNAL_STRING_REP File=Z8EC.:Z8A6TSI                   SAT 08/09/97 11:52 Page:424
        14 000037   000504 116007                    CMPQ    324,DL
        14 000040   000042 604400 14                 TMOZ    s:16389+5
        14 000041   000504 236007                    LDQ     324,DL
        14 000042   000010 756000 9                  STQ     LEX_SYMBOL+8

     2431    16390    2                                  %MAX_SYMBOL_SIZE_PLUS_1);
     2432    16391
     2433    16392    2     END ADD_STR;

  16392 14 000043   000001 702211                    TSX2  ! 1,X1

     2434    16393
     2435    16394        %EJECT;
PL6.E3A0      #003=Z8EC$INTERNAL_STRING_REP File=Z8EC.:Z8A6TSI                   SAT 08/09/97 11:52 Page:425
     2436    16395    1       KANJI_CHECK: PROC ALTRET ;

  16395 14 000044   200014 741300       KANJI_CHECK  STX1  ! ORIG_DNT$+2,,AUTO

     2437    16396
     2438    16397    2         NEW_DNT$ = ORIG_DNT$ ;

  16397 14 000045   200012 236100                    LDQ     ORIG_DNT$,,AUTO
        14 000046   200004 470500                    LDP0    @NEW_DNT$,,AUTO
        14 000047   000000 756100                    STQ     0,,PR0

     2439    16398
     2440    16399              /* Check that length of Kanji literal is even */
     2441    16400
     2442    16401    3         IF MOD (ORIG_DNT$ -> DNT.TEXT.LENGTH, 2) = 1 THEN DO ;

  16401 14 000050   200012 471500                    LDP1    ORIG_DNT$,,AUTO
        14 000051   100004 236100                    LDQ     4,,PR1
        14 000052   000022 772000                    QRL     18
        14 000053   000001 376007                    ANQ     1,DL
        14 000054   000001 116007                    CMPQ    1,DL
        14 000055   000103 601000 14                 TNZ     s:16440

     2443    16402
     2444    16403                %CONDITIONAL_ERROR (@LX_ITEM$ = STRING$,
     2445    16404                                    @ERROR#   = %E$GRAPHIC_LITERAL_ODD,
     2446    16405                                    @LINE     = STRING$ -> LX_TERMINAL.LINE,
     2447    16406                                    @COLUMN   = STRING$ -> LX_TERMINAL.COLUMN) ;

  16416 14 000056   200003 473500                    LDP3    @STRING$,,AUTO
        14 000057   300000 474500                    LDP4    0,,PR3
        14 000060   400000 236100                    LDQ     0,,PR4
        14 000061   400000 316007                    CANQ    -131072,DL
        14 000062   000101 601000 14                 TNZ     s:16436

  16418 14 000063   400006 635500                    EPPR5   6,,PR4
        14 000064   200024 455500                    STP5    @LEN+4,,AUTO
PL6.E3A0      #003=Z8EC$INTERNAL_STRING_REP File=Z8EC.:Z8A6TSI                   SAT 08/09/97 11:52 Page:426
        14 000065   400005 636500                    EPPR6   5,,PR4
        14 000066   200023 456500                    STP6    @LEN+3,,AUTO
        14 000067   000002 236000 15                 LDQ     2
        14 000070   200022 756100                    STQ     @LEN+2,,AUTO
        14 000071   200022 630500                    EPPR0   @LEN+2,,AUTO
        14 000072   000000 631400 15                 EPPR1   0
        14 000073   000000 701000 xent               TSX1    Z8AE$ERROR
        14 000074   000000 011000                    NOP     0

  16427 14 000075   200003 470500                    LDP0    @STRING$,,AUTO
        14 000076   000000 471500                    LDP1    0,,PR0
        14 000077   400000 236007                    LDQ     -131072,DL
        14 000100   100000 256100                    ORSQ    0,,PR1

     2448    16436    3           ALTRETURN ;

  16436 14 000101   200014 221300                    LDX1  ! ORIG_DNT$+2,,AUTO
        14 000102   000000 702211                    TSX2  ! 0,X1

     2449    16437
     2450    16438    3         END ; /* Length is not even number of 9-bit bytes */
     2451    16439
     2452    16440    2         IF SUBSTR (ORIG_DNT$ -> DNT.TEXT.NAME,

  16440 14 000103   100004 220100                    LDX0    4,,PR1
        14 000104   100004 236100                    LDQ     4,,PR1
        14 000105   000022 772000                    QRL     18
        14 000106   040000 106506                    CMPC    fill='040'O
        14 000107   100004 000001                    ADSC9   4,Q,PR1                  cn=0,n=1
        14 000110   000003 000001 15                 ADSC9   3                        cn=0,n=1
        14 000111   000137 600000 14                 TZE     s:16482

     2453    16441    3              ORIG_DNT$ -> DNT.TEXT.LENGTH - 2, 1) ~= %KANJI_END THEN DO ;

     2454    16442
     2455    16443                %CONDITIONAL_ERROR (@LX_ITEM$ = STRING$,
     2456    16444                                    @ERROR#   = %E$ILLEGAL_GRAPHIC_LITERAL,
PL6.E3A0      #003=Z8EC$INTERNAL_STRING_REP File=Z8EC.:Z8A6TSI                   SAT 08/09/97 11:52 Page:427
     2457    16445                                    @LINE     = STRING$ -> LX_TERMINAL.LINE,
     2458    16446                                    @COLUMN   = STRING$ -> LX_TERMINAL.COLUMN) ;

  16456 14 000112   200003 473500                    LDP3    @STRING$,,AUTO
        14 000113   300000 474500                    LDP4    0,,PR3
        14 000114   400000 236100                    LDQ     0,,PR4
        14 000115   400000 316007                    CANQ    -131072,DL
        14 000116   000135 601000 14                 TNZ     s:16476

  16458 14 000117   400006 635500                    EPPR5   6,,PR4
        14 000120   200024 455500                    STP5    @LEN+4,,AUTO
        14 000121   400005 636500                    EPPR6   5,,PR4
        14 000122   200023 456500                    STP6    @LEN+3,,AUTO
        14 000123   000005 236000 15                 LDQ     5
        14 000124   200022 756100                    STQ     @LEN+2,,AUTO
        14 000125   200022 630500                    EPPR0   @LEN+2,,AUTO
        14 000126   000000 631400 15                 EPPR1   0
        14 000127   000000 701000 xent               TSX1    Z8AE$ERROR
        14 000130   000000 011000                    NOP     0

  16467 14 000131   200003 470500                    LDP0    @STRING$,,AUTO
        14 000132   000000 471500                    LDP1    0,,PR0
        14 000133   400000 236007                    LDQ     -131072,DL
        14 000134   100000 256100                    ORSQ    0,,PR1

     2459    16476    3           ALTRETURN ;

  16476 14 000135   200014 221300                    LDX1  ! ORIG_DNT$+2,,AUTO
        14 000136   000000 702211                    TSX2  ! 0,X1

     2460    16477
     2461    16478    3         END ; /* Last character is not Kanji_End (KE) */
     2462    16479
     2463    16480              /* Quickly check for embedded Kanji_End characters */
     2464    16481
     2465    16482    2         CALL INDEX (LOC,

PL6.E3A0      #003=Z8EC$INTERNAL_STRING_REP File=Z8EC.:Z8A6TSI                   SAT 08/09/97 11:52 Page:428
  16482 14 000137   777777 621010                    EAX1    -1,X0
        14 000140   000000 124540                    SCM     mask='000'O
        14 000141   100004 600011                    ADSC9   4,,PR1                   cn=3,n=*X1
        14 000142   000003 000001 15                 ADSC9   3                        cn=0,n=1
        14 000143   200005 000100                    ARG     LOC,,AUTO
        14 000144   200005 054100                    AOS     LOC,,AUTO

     2466    16483    2                     %KANJI_END,
     2467    16484    2                     ORIG_DNT$ -> DNT.TEXT.NAME,
     2468    16485    2                     1) ;
     2469    16486
     2470    16487    3         IF LOC < ORIG_DNT$ -> DNT.TEXT.LENGTH - 2 THEN DO ;

  16487 14 000145   000002 136007                    SBLQ    2,DL
        14 000146   200005 116100                    CMPQ    LOC,,AUTO
        14 000147   000307 604400 14                 TMOZ    s:16564

     2471    16488
     2472    16489                /* There are embedded KE-KS pairs, so a new DNT must be created */
     2473    16490
     2474    16491    3           LAST_LOC = 0 ;

  16491 14 000150   200006 450100                    STZ     LAST_LOC,,AUTO

     2475    16492
     2476    16493    4           DO WHILE LOC + 2 < ORIG_DNT$ -> DNT.TEXT.LENGTH ;

  16493 14 000151   000247 710000 14                 TRA     s:16552

     2477    16494
     2478    16495    4             CALL ADD_STR (SUBSTR (ORIG_DNT$ -> DNT.TEXT.NAME,

  16495 14 000152   200012 470500                    LDP0    ORIG_DNT$,,AUTO
        14 000153   000004 220100                    LDX0    4,,PR0
        14 000154   200005 236100                    LDQ     LOC,,AUTO
        14 000155   200006 136100                    SBLQ    LAST_LOC,,AUTO
        14 000156   200022 756100                    STQ     @LEN+2,,AUTO
PL6.E3A0      #003=Z8EC$INTERNAL_STRING_REP File=Z8EC.:Z8A6TSI                   SAT 08/09/97 11:52 Page:429
        14 000157   200005 236100                    LDQ     LOC,,AUTO
        14 000160   200006 136100                    SBLQ    LAST_LOC,,AUTO
        14 000161   200026 756100                    STQ     @LEN+6,,AUTO
        14 000162   200026 631500                    EPPR1   @LEN+6,,AUTO
        14 000163   200020 451500                    STP1    @LEN,,AUTO
        14 000164   200006 236100                    LDQ     LAST_LOC,,AUTO
        14 000165   000020 736000                    QLS     16
        14 000166   000006 036000 15                 ADLQ    6
        14 000167   200012 036100                    ADLQ    ORIG_DNT$,,AUTO
        14 000170   200017 756100                    STQ     @STR,,AUTO
        14 000171   000017 701000 14                 TSX1    ADD_STR
        14 000172   000000 011000                    NOP     0

     2479    16496    4                                   LAST_LOC,
     2480    16497    4                                   LOC - LAST_LOC),
     2481    16498    4                           LOC - LAST_LOC) ;
     2482    16499
     2483    16500    4             LAST_LOC = LOC ;

  16500 14 000173   200005 235100                    LDA     LOC,,AUTO
        14 000174   200006 755100                    STA     LAST_LOC,,AUTO

     2484    16501
     2485    16502                  /* LOC contains KE; see if LOC+1 contains KS */
     2486    16503
     2487    16504    4             IF SUBSTR (ORIG_DNT$ -> DNT.TEXT.NAME, LOC + 1, 1) ~=

  16504 14 000175   200012 470500                    LDP0    ORIG_DNT$,,AUTO
        14 000176   000004 220100                    LDX0    4,,PR0
        14 000177   040000 106505                    CMPC    fill='040'O
        14 000200   000004 600001                    ADSC9   4,A,PR0                  cn=3,n=1
        14 000201   000007 000001 15                 ADSC9   7                        cn=0,n=1
        14 000202   000230 600000 14                 TZE     s:16544

     2488    16505    5                %KANJI_START THEN DO ;

     2489    16506
PL6.E3A0      #003=Z8EC$INTERNAL_STRING_REP File=Z8EC.:Z8A6TSI                   SAT 08/09/97 11:52 Page:430
     2490    16507                    %CONDITIONAL_ERROR (@LX_ITEM$ = STRING$,
     2491    16508                                        @ERROR#   = %E$GRAPHIC_LITERAL_KE_KS_ERROR,
     2492    16509                                        @LINE     = STRING$ -> LX_TERMINAL.LINE,
     2493    16510                                        @COLUMN   = STRING$ -> LX_TERMINAL.COLUMN) ;

  16520 14 000203   200003 471500                    LDP1    @STRING$,,AUTO
        14 000204   100000 473500                    LDP3    0,,PR1
        14 000205   300000 236100                    LDQ     0,,PR3
        14 000206   400000 316007                    CANQ    -131072,DL
        14 000207   000226 601000 14                 TNZ     s:16540

  16522 14 000210   300006 634500                    EPPR4   6,,PR3
        14 000211   200024 454500                    STP4    @LEN+4,,AUTO
        14 000212   300005 635500                    EPPR5   5,,PR3
        14 000213   200023 455500                    STP5    @LEN+3,,AUTO
        14 000214   000011 236000 15                 LDQ     9
        14 000215   200022 756100                    STQ     @LEN+2,,AUTO
        14 000216   200022 630500                    EPPR0   @LEN+2,,AUTO
        14 000217   000000 631400 15                 EPPR1   0
        14 000220   000000 701000 xent               TSX1    Z8AE$ERROR
        14 000221   000000 011000                    NOP     0

  16531 14 000222   200003 470500                    LDP0    @STRING$,,AUTO
        14 000223   000000 471500                    LDP1    0,,PR0
        14 000224   400000 236007                    LDQ     -131072,DL
        14 000225   100000 256100                    ORSQ    0,,PR1

     2494    16540    5               ALTRETURN ;

  16540 14 000226   200014 221300                    LDX1  ! ORIG_DNT$+2,,AUTO
        14 000227   000000 702211                    TSX2  ! 0,X1

     2495    16541
     2496    16542    5             END ; /* KS is missing after KE */
     2497    16543
     2498    16544    4             LAST_LOC = LOC + 2 ; /* Remove KE and KS */

PL6.E3A0      #003=Z8EC$INTERNAL_STRING_REP File=Z8EC.:Z8A6TSI                   SAT 08/09/97 11:52 Page:431
  16544 14 000230   000002 035007                    ADLA    2,DL
        14 000231   200006 755100                    STA     LAST_LOC,,AUTO

     2499    16545    4             LOC      = LOC + 2 ;

  16545 14 000232   000002 236007                    LDQ     2,DL
        14 000233   200005 056100                    ASQ     LOC,,AUTO

     2500    16546
     2501    16547    4             CALL INDEX (LOC,

  16547 14 000234   000000 636010                    EAQ     0,X0
        14 000235   000022 772000                    QRL     18
        14 000236   200006 136100                    SBLQ    LAST_LOC,,AUTO
        14 000237   200022 756100                    STQ     @LEN+2,,AUTO
        14 000240   200006 236100                    LDQ     LAST_LOC,,AUTO
        14 000241   200022 720100                    LXL0    @LEN+2,,AUTO
        14 000242   000000 124545                    SCM     mask='000'O
        14 000243   000004 400010                    ADSC9   4,A,PR0                  cn=2,n=*X0
        14 000244   000003 000001 15                 ADSC9   3                        cn=0,n=1
        14 000245   200005 000100                    ARG     LOC,,AUTO
        14 000246   200005 056100                    ASQ     LOC,,AUTO

     2502    16548    4                         %KANJI_END,
     2503    16549    4                         ORIG_DNT$ -> DNT.TEXT.NAME,
     2504    16550    4                         LAST_LOC) ;
     2505    16551
     2506    16552    4           END ; /* Do While LOC+2 < original length */

  16552 14 000247   200012 470500                    LDP0    ORIG_DNT$,,AUTO
        14 000250   000004 236100                    LDQ     4,,PR0
        14 000251   000022 772000                    QRL     18
        14 000252   200022 756100                    STQ     @LEN+2,,AUTO
        14 000253   200005 236100                    LDQ     LOC,,AUTO
        14 000254   000002 036007                    ADLQ    2,DL
        14 000255   200022 116100                    CMPQ    @LEN+2,,AUTO
        14 000256   000152 604000 14                 TMI     s:16495
PL6.E3A0      #003=Z8EC$INTERNAL_STRING_REP File=Z8EC.:Z8A6TSI                   SAT 08/09/97 11:52 Page:432

     2507    16553
     2508    16554    3           CALL ADD_STR (SUBSTR (ORIG_DNT$ -> DNT.TEXT.NAME,

  16554 14 000257   000004 220100                    LDX0    4,,PR0
        14 000260   000004 236100                    LDQ     4,,PR0
        14 000261   000022 772000                    QRL     18
        14 000262   200006 136100                    SBLQ    LAST_LOC,,AUTO
        14 000263   200022 756100                    STQ     @LEN+2,,AUTO
        14 000264   000004 236100                    LDQ     4,,PR0
        14 000265   000022 772000                    QRL     18
        14 000266   200006 136100                    SBLQ    LAST_LOC,,AUTO
        14 000267   200027 756100                    STQ     @LEN+7,,AUTO
        14 000270   200027 631500                    EPPR1   @LEN+7,,AUTO
        14 000271   200020 451500                    STP1    @LEN,,AUTO
        14 000272   200006 236100                    LDQ     LAST_LOC,,AUTO
        14 000273   000020 736000                    QLS     16
        14 000274   000006 036000 15                 ADLQ    6
        14 000275   200012 036100                    ADLQ    ORIG_DNT$,,AUTO
        14 000276   200017 756100                    STQ     @STR,,AUTO
        14 000277   000017 701000 14                 TSX1    ADD_STR
        14 000300   000000 011000                    NOP     0

     2509    16555    3                                 LAST_LOC,
     2510    16556    3                                 ORIG_DNT$ -> DNT.TEXT.LENGTH - LAST_LOC),
     2511    16557    3                         ORIG_DNT$ -> DNT.TEXT.LENGTH - LAST_LOC) ;
     2512    16558
     2513    16559    3           CALL Z8AH$SEARCH_ ;

  16559 14 000301   000012 631400 15                 EPPR1   10
        14 000302   000000 701000 xent               TSX1    Z8AH$SEARCH_
        14 000303   000000 011000                    NOP     0

     2514    16560    3           NEW_DNT$ = DNT$ ;

  16560 14 000304   000000 236000 1                  LDQ     DNT$
        14 000305   200004 470500                    LDP0    @NEW_DNT$,,AUTO
PL6.E3A0      #003=Z8EC$INTERNAL_STRING_REP File=Z8EC.:Z8A6TSI                   SAT 08/09/97 11:52 Page:433
        14 000306   000000 756100                    STQ     0,,PR0

     2515    16561
     2516    16562    3         END ; /* There is an embedded KE-KS pair */

     2517    16563
     2518    16564    2       END KANJI_CHECK ;

  16564 14 000307   200014 221300                    LDX1  ! ORIG_DNT$+2,,AUTO
        14 000310   000001 702211                    TSX2  ! 1,X1

     2519    16565
     2520    16566        %EJECT;
PL6.E3A0      #003=Z8EC$INTERNAL_STRING_REP File=Z8EC.:Z8A6TSI                   SAT 08/09/97 11:52 Page:434
     2521    16567    1       CHECK_KANJI_BYTES: PROC (DNT$$) ;

  16567 14 000311   200014 741300       CHECK_KANJI* STX1  ! ORIG_DNT$+2,,AUTO

     2522    16568
     2523    16569    2         DCL  DNT$$      PTR ;
     2524    16570    2         DCL  CHARACTER  CHAR (1) ;
     2525    16571    2         DCL  CHAR_UBIN  REDEF CHARACTER UBIN BYTE UNAL ;
     2526    16572
     2527    16573              /* Check 2nd thru (n-1)th characters (exclude quotes). */
     2528    16574
     2529    16575    3         DO LOC = 1 TO DNT$$ -> DNT.TEXT.LENGTH - 2 ;

  16575 14 000312   000001 235007                    LDA     1,DL
        14 000313   200005 755100                    STA     LOC,,AUTO
        14 000314   000356 710000 14                 TRA     s:16618+1

     2530    16576
     2531    16577    3           CHARACTER = SUBSTR (DNT$$ -> DNT.TEXT.NAME, LOC, 1) ;

  16577 14 000315   200015 470500                    LDP0    @DNT$$,,AUTO
        14 000316   000000 471500                    LDP1    0,,PR0
        14 000317   100004 220100                    LDX0    4,,PR1
        14 000320   200005 235100                    LDA     LOC,,AUTO
        14 000321   040100 100505                    MLR     fill='040'O
        14 000322   100004 400001                    ADSC9   4,A,PR1                  cn=2,n=1
        14 000323   200016 000001                    ADSC9   CHARACTER,,AUTO          cn=0,n=1

     2532    16578
     2533    16579    4           IF CHAR_UBIN < 128 THEN DO ; /* (200)octal */

  16579 14 000324   200016 236100                    LDQ     CHARACTER,,AUTO
        14 000325   777000 376003                    ANQ     -512,DU
        14 000326   200000 116003                    CMPQ    65536,DU
        14 000327   000355 603000 14                 TRC     s:16618

     2534    16580
PL6.E3A0      #003=Z8EC$INTERNAL_STRING_REP File=Z8EC.:Z8A6TSI                   SAT 08/09/97 11:52 Page:435
     2535    16581                  %CONDITIONAL_ERROR (@LX_ITEM$ = STRING$,
     2536    16582                                      @ERROR#   = %E$ILLEGAL_GRAPHIC_CHARACTER,
     2537    16583                                      @LINE     = STRING$ -> LX_TERMINAL.LINE,
     2538    16584                                      @COLUMN   = STRING$ -> LX_TERMINAL.COLUMN) ;

  16594 14 000330   200003 473500                    LDP3    @STRING$,,AUTO
        14 000331   300000 474500                    LDP4    0,,PR3
        14 000332   400000 236100                    LDQ     0,,PR4
        14 000333   400000 316007                    CANQ    -131072,DL
        14 000334   000353 601000 14                 TNZ     s:16614

  16596 14 000335   400006 635500                    EPPR5   6,,PR4
        14 000336   200024 455500                    STP5    @LEN+4,,AUTO
        14 000337   400005 631500                    EPPR1   5,,PR4
        14 000340   200023 451500                    STP1    @LEN+3,,AUTO
        14 000341   000014 236000 15                 LDQ     12
        14 000342   200022 756100                    STQ     @LEN+2,,AUTO
        14 000343   200022 630500                    EPPR0   @LEN+2,,AUTO
        14 000344   000000 631400 15                 EPPR1   0
        14 000345   000000 701000 xent               TSX1    Z8AE$ERROR
        14 000346   000000 011000                    NOP     0

  16605 14 000347   200003 470500                    LDP0    @STRING$,,AUTO
        14 000350   000000 471500                    LDP1    0,,PR0
        14 000351   400000 236007                    LDQ     -131072,DL
        14 000352   100000 256100                    ORSQ    0,,PR1

     2539    16614    4             RETURN ;

  16614 14 000353   200014 221300                    LDX1  ! ORIG_DNT$+2,,AUTO
        14 000354   000001 702211                    TSX2  ! 1,X1

     2540    16615
     2541    16616    4           END ; /* Found an illegel kanji character */
     2542    16617
     2543    16618    3         END ; /* Do While */

PL6.E3A0      #003=Z8EC$INTERNAL_STRING_REP File=Z8EC.:Z8A6TSI                   SAT 08/09/97 11:52 Page:436
  16618 14 000355   200005 054100                    AOS     LOC,,AUTO
        14 000356   200015 470500                    LDP0    @DNT$$,,AUTO
        14 000357   000000 471500                    LDP1    0,,PR0
        14 000360   100004 236100                    LDQ     4,,PR1
        14 000361   000022 772000                    QRL     18
        14 000362   000002 136007                    SBLQ    2,DL
        14 000363   200005 116100                    CMPQ    LOC,,AUTO
        14 000364   000315 605000 14                 TPL     s:16577

     2544    16619
     2545    16620    2       END CHECK_KANJI_BYTES ;

  16620 14 000365   200014 221300                    LDX1  ! ORIG_DNT$+2,,AUTO
        14 000366   000001 702211                    TSX2  ! 1,X1

     2546    16621
     2547    16622        %EJECT;
PL6.E3A0      #003=Z8EC$INTERNAL_STRING_REP File=Z8EC.:Z8A6TSI                   SAT 08/09/97 11:52 Page:437
     2548    16623        /* Start of Z8EC$INTERNAL_STRING_REP */
     2549    16624
     2550    16625    1   LEX_SYMBOL.SIZE = 0;

  16625 14 000367   000010 450000 9                  STZ     LEX_SYMBOL+8

     2551    16626
     2552    16627    2   DO CASE(STRING$ -> LX_TERMINAL.SYMBOL);

  16627 14 000370   200003 470500                    LDP0    @STRING$,,AUTO
        14 000371   000000 471500                    LDP1    0,,PR0
        14 000372   100003 235100                    LDA     3,,PR1
        14 000373   000005 115007                    CMPA    5,DL
        14 000374   000376 602005 14                 TNC     s:16627+6,AL
        14 000375   001041 710000 14                 TRA     s:16820
        14 000376   001041 710000 14                 TRA     s:16820
        14 000377   001041 710000 14                 TRA     s:16820
        14 000400   001041 710000 14                 TRA     s:16820
        14 000401   000403 710000 14                 TRA     s:16631
        14 000402   000403 710000 14                 TRA     s:16631

     2553    16628
     2554    16629    2     CASE(%SINGLE_QUOTE, %DOUBLE_QUOTE);

     2555    16630
     2556    16631    2       ORIG_DNT$ = STRING$ -> LX_TERMINAL.DNT$;

  16631 14 000403   100002 236100                    LDQ     2,,PR1
        14 000404   200012 756100                    STQ     ORIG_DNT$,,AUTO

     2557    16632
     2558    16633        %EJECT;
PL6.E3A0      #003=Z8EC$INTERNAL_STRING_REP File=Z8EC.:Z8A6TSI                   SAT 08/09/97 11:52 Page:438
     2559    16634            /* Check Kanji literal for legality */
     2560    16635
     2561    16636    2       IF  STRING$ -> LX_TERMINAL.TYPE = %TYN

  16636 14 000405   100004 235100                    LDA     4,,PR1
        14 000406   000016 115007                    CMPA    14,DL
        14 000407   000425 601000 14                 TNZ     s:16648
        14 000410   200012 473500                    LDP3    ORIG_DNT$,,AUTO
        14 000411   300004 220100                    LDX0    4,,PR3
        14 000412   300004 236100                    LDQ     4,,PR3
        14 000413   000777 376007                    ANQ     511,DL
        14 000414   000216 116007                    CMPQ    142,DL
        14 000415   000425 601000 14                 TNZ     s:16648

     2562    16637    3       AND SUBSTR (ORIG_DNT$ -> DNT.TEXT.NAME, 1, 1) = %KANJI_START THEN DO ;

     2563    16638
     2564    16639    3         CALL KANJI_CHECK ALTRET (ERROR_EXIT) ;

  16639 14 000416   000044 701000 14                 TSX1    KANJI_CHECK
        14 000417   001244 702000 14                 TSX2    ERROR_EXIT

     2565    16640    3         CALL CHECK_KANJI_BYTES (NEW_DNT$) ;

  16640 14 000420   200004 236100                    LDQ     @NEW_DNT$,,AUTO
        14 000421   200015 756100                    STQ     ORIG_DNT$+3,,AUTO
        14 000422   000311 701000 14                 TSX1    CHECK_KANJI_BYTES
        14 000423   000000 011000                    NOP     0

     2566    16641    3         GOTO REGULAR_EXIT ;

  16641 14 000424   001174 710000 14                 TRA     REGULAR_EXIT

     2567    16642
     2568    16643    3       END ; /* Kanji context */
     2569    16644
     2570    16645        %EJECT;
PL6.E3A0      #003=Z8EC$INTERNAL_STRING_REP File=Z8EC.:Z8A6TSI                   SAT 08/09/97 11:52 Page:439
     2571    16646            /* Quickly check the string for embedded quotes */
     2572    16647
     2573    16648    2       CALL INDEX (LOC,

  16648 14 000425   200012 473500                    LDP3    ORIG_DNT$,,AUTO
        14 000426   300004 220100                    LDX0    4,,PR3
        14 000427   777777 621010                    EAX1    -1,X0
        14 000430   000100 124540                    SCM     mask='000'O
        14 000431   300004 600011                    ADSC9   4,,PR3                   cn=3,n=*X1
        14 000432   300004 400001                    ADSC9   4,,PR3                   cn=2,n=1
        14 000433   200005 000100                    ARG     LOC,,AUTO
        14 000434   200005 054100                    AOS     LOC,,AUTO

     2574    16649    2                   SUBSTR(ORIG_DNT$ -> DNT.TEXT.NAME, 0, 1),
     2575    16650    2                   ORIG_DNT$ -> DNT.TEXT.NAME,
     2576    16651    2                   1);
     2577    16652
     2578    16653    2       IF LOC >= ORIG_DNT$ -> DNT.TEXT.LENGTH - 1 THEN

  16653 14 000435   300004 236100                    LDQ     4,,PR3
        14 000436   000022 772000                    QRL     18
        14 000437   000001 136007                    SBLQ    1,DL
        14 000440   200005 116100                    CMPQ    LOC,,AUTO
        14 000441   000446 605400 14                 TPNZ    s:16660

     2579    16654    2         NEW_DNT$ = ORIG_DNT$;

  16654 14 000442   200012 236100                    LDQ     ORIG_DNT$,,AUTO
        14 000443   200004 474500                    LDP4    @NEW_DNT$,,AUTO
        14 000444   400000 756100                    STQ     0,,PR4
        14 000445   000777 710000 14                 TRA     s:16774

     2580    16655    2       ELSE
     2581    16656    3         DO;

     2582    16657                /* There are embedded quotes, so a new DNT must be created */
     2583    16658
PL6.E3A0      #003=Z8EC$INTERNAL_STRING_REP File=Z8EC.:Z8A6TSI                   SAT 08/09/97 11:52 Page:440
     2584    16659
     2585    16660    3           DELIM = SUBSTR (ORIG_DNT$ -> DNT.TEXT.NAME,

  16660 14 000446   300004 236100                    LDQ     4,,PR3
        14 000447   000022 736000                    QLS     18
        14 000450   777000 376003                    ANQ     -512,DU
        14 000451   000015 276000 15                 ORQ     13
        14 000452   200007 756100                    STQ     DELIM,,AUTO

     2586    16661    3                           0,
     2587    16662    3                           1);
     2588    16663
     2589    16664    3           IF SUBSTR(ORIG_DNT$ -> DNT.TEXT.NAME,

  16664 14 000453   300004 220100                    LDX0    4,,PR3
        14 000454   300004 236100                    LDQ     4,,PR3
        14 000455   000022 772000                    QRL     18
        14 000456   040100 106506                    CMPC    fill='040'O
        14 000457   300004 200001                    ADSC9   4,Q,PR3                  cn=1,n=1
        14 000460   200007 000001                    ADSC9   DELIM,,AUTO              cn=0,n=1
        14 000461   001221 601000 14                 TNZ     STR_ERROR

     2590    16665    3                     ORIG_DNT$ -> DNT.TEXT.LENGTH - 1,
     2591    16666    3                     1) ~= DELIM THEN
     2592    16667    3             GOTO STR_ERROR;
     2593    16668
     2594    16669    3           LAST_LOC = 0;

  16669 14 000462   200006 450100                    STZ     LAST_LOC,,AUTO

     2595    16670
     2596    16671    4           DO WHILE LOC + 2 < ORIG_DNT$ -> DNT.TEXT.LENGTH;

  16671 14 000463   000732 710000 14                 TRA     s:16758

     2597    16672
     2598    16673    4             CALL ADD_STR (SUBSTR(ORIG_DNT$ -> DNT.TEXT.NAME,
PL6.E3A0      #003=Z8EC$INTERNAL_STRING_REP File=Z8EC.:Z8A6TSI                   SAT 08/09/97 11:52 Page:441

  16673 14 000464   200012 470500                    LDP0    ORIG_DNT$,,AUTO
        14 000465   000004 220100                    LDX0    4,,PR0
        14 000466   200005 236100                    LDQ     LOC,,AUTO
        14 000467   200006 136100                    SBLQ    LAST_LOC,,AUTO
        14 000470   200022 756100                    STQ     @LEN+2,,AUTO
        14 000471   200005 236100                    LDQ     LOC,,AUTO
        14 000472   200006 136100                    SBLQ    LAST_LOC,,AUTO
        14 000473   200030 756100                    STQ     @LEN+8,,AUTO
        14 000474   200030 631500                    EPPR1   @LEN+8,,AUTO
        14 000475   200020 451500                    STP1    @STR+1,,AUTO
        14 000476   200006 236100                    LDQ     LAST_LOC,,AUTO
        14 000477   000020 736000                    QLS     16
        14 000500   000006 036000 15                 ADLQ    6
        14 000501   200012 036100                    ADLQ    ORIG_DNT$,,AUTO
        14 000502   200017 756100                    STQ     CHARACTER+1,,AUTO
        14 000503   000017 701000 14                 TSX1    ADD_STR
        14 000504   000000 011000                    NOP     0

     2599    16674    4                                  LAST_LOC,
     2600    16675    4                                  LOC - LAST_LOC),
     2601    16676    4                           LOC - LAST_LOC);
     2602    16677
     2603    16678    4             LAST_LOC = LOC;

  16678 14 000505   200005 235100                    LDA     LOC,,AUTO
        14 000506   200006 755100                    STA     LAST_LOC,,AUTO

     2604    16679
     2605    16680    4             IF SUBSTR(ORIG_DNT$ -> DNT.TEXT.NAME,

  16680 14 000507   200012 470500                    LDP0    ORIG_DNT$,,AUTO
        14 000510   000004 220100                    LDX0    4,,PR0
        14 000511   040100 106505                    CMPC    fill='040'O
        14 000512   000004 600001                    ADSC9   4,A,PR0                  cn=3,n=1
        14 000513   200007 000001                    ADSC9   DELIM,,AUTO              cn=0,n=1
        14 000514   000527 601000 14                 TNZ     s:16692
PL6.E3A0      #003=Z8EC$INTERNAL_STRING_REP File=Z8EC.:Z8A6TSI                   SAT 08/09/97 11:52 Page:442

     2606    16681    4                       LOC + 1,
     2607    16682    4                      1) = DELIM THEN
     2608    16683    5               DO;

     2609    16684    5                 CALL ADD_CHAR(DELIM);

  16684 14 000515   200007 631500                    EPPR1   DELIM,,AUTO
        14 000516   200015 451500                    STP1    ORIG_DNT$+3,,AUTO
        14 000517   000003 701000 14                 TSX1    ADD_CHAR
        14 000520   000000 011000                    NOP     0

     2610    16685    5                 LAST_LOC = LOC + 2;

  16685 14 000521   200005 235100                    LDA     LOC,,AUTO
        14 000522   000002 035007                    ADLA    2,DL
        14 000523   200006 755100                    STA     LAST_LOC,,AUTO

     2611    16686    5                 LOC      = LOC + 2;

  16686 14 000524   000002 236007                    LDQ     2,DL
        14 000525   200005 056100                    ASQ     LOC,,AUTO

     2612    16687    5               END;

  16687 14 000526   000715 710000 14                 TRA     s:16754

     2613    16688    4             ELSE
     2614    16689    5               DO;

     2615    16690                      /* Determine character type */
     2616    16691
     2617    16692    5                 LAST_LOC = LOC + 1;

  16692 14 000527   000001 035007                    ADLA    1,DL
        14 000530   200006 755100                    STA     LAST_LOC,,AUTO

PL6.E3A0      #003=Z8EC$INTERNAL_STRING_REP File=Z8EC.:Z8A6TSI                   SAT 08/09/97 11:52 Page:443
     2618    16693    5                 CALL SEARCH (LOC,

  16693 14 000531   000000 636010                    EAQ     0,X0
        14 000532   000022 772000                    QRL     18
        14 000533   200006 136100                    SBLQ    LAST_LOC,,AUTO
        14 000534   200022 756100                    STQ     @LEN+2,,AUTO
        14 000535   200006 236100                    LDQ     LAST_LOC,,AUTO
        14 000536   200022 720100                    LXL0    @LEN+2,,AUTO
        14 000537   000000 164546                    TCT
        14 000540   000004 400010                    ADSC9   4,Q,PR0                  cn=2,n=*X0
        14 000541   000000 000000 xsym               ARG     ASCII_SEARCH_TABLE
        14 000542   200005 000100                    ARG     LOC,,AUTO
        14 000543   200005 235100                    LDA     LOC,,AUTO
        14 000544   000033 771000                    ARL     27
        14 000545   200011 755100                    STA     ITEM_CLASS,,AUTO
        14 000546   200005 551140                    STBA    LOC,'40'O,AUTO
        14 000547   200005 056100                    ASQ     LOC,,AUTO

     2619    16694    5                              ITEM_CLASS,
     2620    16695    5                              ASCII_SEARCH_TABLE,
     2621    16696    5                              ORIG_DNT$ -> DNT.TEXT.NAME,
     2622    16697    5                              LAST_LOC);
     2623    16698
     2624    16699    5                 IF ITEM_CLASS = %DIGIT THEN

  16699 14 000550   000002 115007                    CMPA    2,DL
        14 000551   001221 601000 14                 TNZ     STR_ERROR

     2625    16700    6                   DO;

     2626    16701    7                     DO WHILE ITEM_CLASS = %DIGIT;

  16701 14 000552   000702 601000 14                 TNZ     s:16742

     2627    16702
     2628    16703    7                       CALL SEARCH (LOC,

PL6.E3A0      #003=Z8EC$INTERNAL_STRING_REP File=Z8EC.:Z8A6TSI                   SAT 08/09/97 11:52 Page:444
  16703 14 000553   200012 470500                    LDP0    ORIG_DNT$,,AUTO
        14 000554   000004 220100                    LDX0    4,,PR0
        14 000555   000000 636010                    EAQ     0,X0
        14 000556   000022 772000                    QRL     18
        14 000557   200006 136100                    SBLQ    LAST_LOC,,AUTO
        14 000560   200022 756100                    STQ     @LEN+2,,AUTO
        14 000561   200006 236100                    LDQ     LAST_LOC,,AUTO
        14 000562   200022 720100                    LXL0    @LEN+2,,AUTO
        14 000563   000000 164546                    TCT
        14 000564   000004 400010                    ADSC9   4,Q,PR0                  cn=2,n=*X0
        14 000565   000000 000000 xsym               ARG     DIGIT_SCAN_TABLE
        14 000566   200005 000100                    ARG     LOC,,AUTO
        14 000567   200005 235100                    LDA     LOC,,AUTO
        14 000570   000033 771000                    ARL     27
        14 000571   200011 755100                    STA     ITEM_CLASS,,AUTO
        14 000572   200005 551140                    STBA    LOC,'40'O,AUTO
        14 000573   200005 056100                    ASQ     LOC,,AUTO

     2629    16704    7                                    ITEM_CLASS,
     2630    16705    7                                    DIGIT_SCAN_TABLE,
     2631    16706    7                                    ORIG_DNT$ -> DNT.TEXT.NAME,
     2632    16707    7                                    LAST_LOC);
     2633    16708
     2634    16709    7                       IF LOC - LAST_LOC > 10 THEN

  16709 14 000574   200005 236100                    LDQ     LOC,,AUTO
        14 000575   200006 136100                    SBLQ    LAST_LOC,,AUTO
        14 000576   000012 116007                    CMPQ    10,DL
        14 000577   001221 605400 14                 TPNZ    STR_ERROR

     2635    16710    7                         GOTO STR_ERROR;
     2636    16711    7                       CALL CHARBIN (ORDVAL,

  16711 14 000600   000004 220100                    LDX0    4,,PR0
        14 000601   200005 236100                    LDQ     LOC,,AUTO
        14 000602   200006 136100                    SBLQ    LAST_LOC,,AUTO
        14 000603   000000 621006                    EAX1    0,QL
PL6.E3A0      #003=Z8EC$INTERNAL_STRING_REP File=Z8EC.:Z8A6TSI                   SAT 08/09/97 11:52 Page:445
        14 000604   200006 236100                    LDQ     LAST_LOC,,AUTO
        14 000605   000100 305546                    DTB
        14 000606   000004 430011                    NDSC9   4,Q,PR0                  cn=2,s=nosgn,sf=0,n=*X1
        14 000607   200010 000004                    NDSC9   ORDVAL,,AUTO             cn=0,s=lsgnf,sf=0,n=4

     2637    16712    7                                     SUBSTR(ORIG_DNT$ -> DNT.TEXT.NAME,
     2638    16713    7                                            LAST_LOC,
     2639    16714    7                                            LOC - LAST_LOC));
     2640    16715
     2641    16716    7                       IF ORDVAL > 512

  16716 14 000610   200010 235100                    LDA     ORDVAL,,AUTO
        14 000611   001000 115007                    CMPA    512,DL
        14 000612   001175 605400 14                 TPNZ    BAD_ORDINAL
        14 000613   000000 115003                    CMPA    0,DU
        14 000614   001175 600000 14                 TZE     BAD_ORDINAL

     2642    16717    7                       OR ORDVAL = 0 THEN
     2643    16718    7                          GOTO BAD_ORDINAL;
     2644    16719
     2645    16720    7                       IF COMCOM.OB.FIPS.LEVEL >= %HIGH_LEV AND

  16720 14 000615   000036 721000 xsym               LXL1    COMCOM+30
        14 000616   000635 604400 14                 TMOZ    s:16726
        14 000617   000400 115007                    CMPA    256,DL
        14 000620   000635 604400 14                 TMOZ    s:16726

     2646    16721    7                           ORDVAL > 256 THEN
     2647    16722    7                         CALL Z8AE$ERROR (%E$NON_ANSI_ORDINAL,

  16722 14 000621   200003 471500                    LDP1    @STRING$,,AUTO
        14 000622   100000 473500                    LDP3    0,,PR1
        14 000623   300006 634500                    EPPR4   6,,PR3
        14 000624   200024 454500                    STP4    @LEN+4,,AUTO
        14 000625   300005 635500                    EPPR5   5,,PR3
        14 000626   200023 455500                    STP5    @LEN+3,,AUTO
        14 000627   000017 236000 15                 LDQ     15
PL6.E3A0      #003=Z8EC$INTERNAL_STRING_REP File=Z8EC.:Z8A6TSI                   SAT 08/09/97 11:52 Page:446
        14 000630   200022 756100                    STQ     @LEN+2,,AUTO
        14 000631   200022 630500                    EPPR0   @LEN+2,,AUTO
        14 000632   000000 631400 15                 EPPR1   0
        14 000633   000000 701000 xent               TSX1    Z8AE$ERROR
        14 000634   000000 011000                    NOP     0

     2648    16723    7                                          STRING$ -> LX_TERMINAL.LINE,
     2649    16724    7                                          STRING$ -> LX_TERMINAL.COLUMN);
     2650    16725
     2651    16726    7                       CALL ADD_CHAR (BINASC(ORDVAL - 1));

  16726 14 000635   200010 236100                    LDQ     ORDVAL,,AUTO
        14 000636   000001 136007                    SBLQ    1,DL
        14 000637   000033 736000                    QLS     27
        14 000640   000015 276000 15                 ORQ     13
        14 000641   200032 552140                    STBQ    @LEN+10,'40'O,AUTO
        14 000642   200032 630500                    EPPR0   @LEN+10,,AUTO
        14 000643   200015 450500                    STP0    ORIG_DNT$+3,,AUTO
        14 000644   000003 701000 14                 TSX1    ADD_CHAR
        14 000645   000000 011000                    NOP     0

     2652    16727
     2653    16728                            /* Skip blanks & commas */
     2654    16729    8                       DO WHILE ITEM_CLASS = %SPACE OR ITEM_CLASS = %COMMA;

  16729 14 000646   000671 710000 14                 TRA     s:16737

     2655    16730
     2656    16731    8                         CALL SEARCH (LOC,

  16731 14 000647   200012 470500                    LDP0    ORIG_DNT$,,AUTO
        14 000650   000004 220100                    LDX0    4,,PR0
        14 000651   000000 636010                    EAQ     0,X0
        14 000652   000022 772000                    QRL     18
        14 000653   200005 136100                    SBLQ    LOC,,AUTO
        14 000654   777777 621006                    EAX1    -1,QL
        14 000655   200005 236100                    LDQ     LOC,,AUTO
PL6.E3A0      #003=Z8EC$INTERNAL_STRING_REP File=Z8EC.:Z8A6TSI                   SAT 08/09/97 11:52 Page:447
        14 000656   000001 036007                    ADLQ    1,DL
        14 000657   200005 235100                    LDA     LOC,,AUTO
        14 000660   000000 164545                    TCT
        14 000661   000004 600011                    ADSC9   4,A,PR0                  cn=3,n=*X1
        14 000662   000000 000000 xsym               ARG     ASCII_SEARCH_TABLE
        14 000663   200005 000100                    ARG     LOC,,AUTO
        14 000664   200005 235100                    LDA     LOC,,AUTO
        14 000665   000033 771000                    ARL     27
        14 000666   200011 755100                    STA     ITEM_CLASS,,AUTO
        14 000667   200005 551140                    STBA    LOC,'40'O,AUTO
        14 000670   200005 056100                    ASQ     LOC,,AUTO

     2657    16732    8                                      ITEM_CLASS,
     2658    16733    8                                      ASCII_SEARCH_TABLE,
     2659    16734    8                                      ORIG_DNT$ -> DNT.TEXT.NAME,
     2660    16735    8                                      LOC + 1);
     2661    16736
     2662    16737    8                       END;

  16737 14 000671   200011 235100                    LDA     ITEM_CLASS,,AUTO
        14 000672   000042 115007                    CMPA    34,DL
        14 000673   000647 600000 14                 TZE     s:16731
        14 000674   000035 115007                    CMPA    29,DL
        14 000675   000647 600000 14                 TZE     s:16731

     2663    16738
     2664    16739    7                       LAST_LOC = LOC;

  16739 14 000676   200005 236100                    LDQ     LOC,,AUTO
        14 000677   200006 756100                    STQ     LAST_LOC,,AUTO

     2665    16740    7                     END;  /* do while class */

  16740 14 000700   000002 115007                    CMPA    2,DL
        14 000701   000553 600000 14                 TZE     s:16703

     2666    16741
PL6.E3A0      #003=Z8EC$INTERNAL_STRING_REP File=Z8EC.:Z8A6TSI                   SAT 08/09/97 11:52 Page:448
     2667    16742    6                     IF SUBSTR (ORIG_DNT$ -> DNT.TEXT.NAME,

  16742 14 000702   200012 470500                    LDP0    ORIG_DNT$,,AUTO
        14 000703   000004 220100                    LDX0    4,,PR0
        14 000704   200005 235100                    LDA     LOC,,AUTO
        14 000705   040100 106505                    CMPC    fill='040'O
        14 000706   000004 400001                    ADSC9   4,A,PR0                  cn=2,n=1
        14 000707   200007 000001                    ADSC9   DELIM,,AUTO              cn=0,n=1
        14 000710   001221 601000 14                 TNZ     STR_ERROR

     2668    16743    6                                LOC,
     2669    16744    6                               1) ~= DELIM THEN
     2670    16745    6                       GOTO STR_ERROR;
     2671    16746
     2672    16747    6                     LAST_LOC = LOC + 1;

  16747 14 000711   000001 035007                    ADLA    1,DL
        14 000712   200006 755100                    STA     LAST_LOC,,AUTO

     2673    16748    6                     LOC      = LOC + 1;

  16748 14 000713   200005 054100                    AOS     LOC,,AUTO

     2674    16749    6                   END;

  16749 14 000714   000715 710000 14                 TRA     s:16754

     2675    16750    5                 ELSE
     2676    16751    5                   GOTO STR_ERROR;
     2677    16752    5               END;
     2678    16753
     2679    16754    4             CALL INDEX (LOC,

  16754 14 000715   200012 470500                    LDP0    ORIG_DNT$,,AUTO
        14 000716   000004 220100                    LDX0    4,,PR0
        14 000717   000000 636010                    EAQ     0,X0
        14 000720   000022 772000                    QRL     18
PL6.E3A0      #003=Z8EC$INTERNAL_STRING_REP File=Z8EC.:Z8A6TSI                   SAT 08/09/97 11:52 Page:449
        14 000721   200006 136100                    SBLQ    LAST_LOC,,AUTO
        14 000722   200022 756100                    STQ     @LEN+2,,AUTO
        14 000723   200006 236100                    LDQ     LAST_LOC,,AUTO
        14 000724   200022 720100                    LXL0    @LEN+2,,AUTO
        14 000725   000100 124545                    SCM     mask='000'O
        14 000726   000004 400010                    ADSC9   4,A,PR0                  cn=2,n=*X0
        14 000727   200007 000001                    ADSC9   DELIM,,AUTO              cn=0,n=1
        14 000730   200005 000100                    ARG     LOC,,AUTO
        14 000731   200005 056100                    ASQ     LOC,,AUTO

     2680    16755    4                         DELIM,
     2681    16756    4                         ORIG_DNT$ -> DNT.TEXT.NAME,
     2682    16757    4                         LAST_LOC);
     2683    16758    4           END;  /* do while */

  16758 14 000732   200012 470500                    LDP0    ORIG_DNT$,,AUTO
        14 000733   000004 236100                    LDQ     4,,PR0
        14 000734   000022 772000                    QRL     18
        14 000735   200022 756100                    STQ     @LEN+2,,AUTO
        14 000736   200005 236100                    LDQ     LOC,,AUTO
        14 000737   000002 036007                    ADLQ    2,DL
        14 000740   200022 116100                    CMPQ    @LEN+2,,AUTO
        14 000741   000464 604000 14                 TMI     s:16673

     2684    16759    3           IF LOC ~= ORIG_DNT$ -> DNT.TEXT.LENGTH - 1 THEN

  16759 14 000742   000004 236100                    LDQ     4,,PR0
        14 000743   000022 772000                    QRL     18
        14 000744   000001 136007                    SBLQ    1,DL
        14 000745   200005 116100                    CMPQ    LOC,,AUTO
        14 000746   001221 601000 14                 TNZ     STR_ERROR

     2685    16760    3             GOTO STR_ERROR;
     2686    16761
     2687    16762    3           CALL ADD_STR(SUBSTR(ORIG_DNT$ -> DNT.TEXT.NAME,

  16762 14 000747   000004 220100                    LDX0    4,,PR0
PL6.E3A0      #003=Z8EC$INTERNAL_STRING_REP File=Z8EC.:Z8A6TSI                   SAT 08/09/97 11:52 Page:450
        14 000750   000004 236100                    LDQ     4,,PR0
        14 000751   000022 772000                    QRL     18
        14 000752   200006 136100                    SBLQ    LAST_LOC,,AUTO
        14 000753   200022 756100                    STQ     @LEN+2,,AUTO
        14 000754   000004 236100                    LDQ     4,,PR0
        14 000755   000022 772000                    QRL     18
        14 000756   200006 136100                    SBLQ    LAST_LOC,,AUTO
        14 000757   200034 756100                    STQ     @LEN+12,,AUTO
        14 000760   200034 631500                    EPPR1   @LEN+12,,AUTO
        14 000761   200020 451500                    STP1    @STR+1,,AUTO
        14 000762   200006 236100                    LDQ     LAST_LOC,,AUTO
        14 000763   000020 736000                    QLS     16
        14 000764   000006 036000 15                 ADLQ    6
        14 000765   200012 036100                    ADLQ    ORIG_DNT$,,AUTO
        14 000766   200017 756100                    STQ     CHARACTER+1,,AUTO
        14 000767   000017 701000 14                 TSX1    ADD_STR
        14 000770   000000 011000                    NOP     0

     2688    16763    3                               LAST_LOC,
     2689    16764    3                               ORIG_DNT$ -> DNT.TEXT.LENGTH - LAST_LOC),
     2690    16765    3                        ORIG_DNT$ -> DNT.TEXT.LENGTH - LAST_LOC);
     2691    16766
     2692    16767    3           CALL Z8AH$SEARCH_;

  16767 14 000771   000012 631400 15                 EPPR1   10
        14 000772   000000 701000 xent               TSX1    Z8AH$SEARCH_
        14 000773   000000 011000                    NOP     0

     2693    16768    3           NEW_DNT$ = DNT$;

  16768 14 000774   000000 236000 1                  LDQ     DNT$
        14 000775   200004 470500                    LDP0    @NEW_DNT$,,AUTO
        14 000776   000000 756100                    STQ     0,,PR0

     2694    16769
     2695    16770    3         END;

PL6.E3A0      #003=Z8EC$INTERNAL_STRING_REP File=Z8EC.:Z8A6TSI                   SAT 08/09/97 11:52 Page:451
     2696    16771
     2697    16772              /* Check that length of Kanji literal is even */
     2698    16773
     2699    16774    3         IF STRING$ -> LX_TERMINAL.TYPE = %TYN THEN DO ;

  16774 14 000777   200003 470500                    LDP0    @STRING$,,AUTO
        14 001000   000000 471500                    LDP1    0,,PR0
        14 001001   100004 235100                    LDA     4,,PR1
        14 001002   000016 115007                    CMPA    14,DL
        14 001003   001174 601000 14                 TNZ     REGULAR_EXIT

     2700    16775
     2701    16776    4           IF MOD (NEW_DNT$ -> DNT.TEXT.LENGTH, 2) = 1 THEN DO ;

  16776 14 001004   200004 473500                    LDP3    @NEW_DNT$,,AUTO
        14 001005   300000 474500                    LDP4    0,,PR3
        14 001006   400004 236100                    LDQ     4,,PR4
        14 001007   000022 772000                    QRL     18
        14 001010   000001 376007                    ANQ     1,DL
        14 001011   000001 116007                    CMPQ    1,DL
        14 001012   001034 601000 14                 TNZ     s:16814

     2702    16777
     2703    16778                  %CONDITIONAL_ERROR (@LX_ITEM$ = STRING$,
     2704    16779                                      @ERROR#   = %E$GRAPHIC_LITERAL_ODD,
     2705    16780                                      @LINE     = STRING$ -> LX_TERMINAL.LINE,
     2706    16781                                      @COLUMN   = STRING$ -> LX_TERMINAL.COLUMN) ;

  16791 14 001013   100000 236100                    LDQ     0,,PR1
        14 001014   400000 316007                    CANQ    -131072,DL
        14 001015   001034 601000 14                 TNZ     s:16814

  16793 14 001016   100006 635500                    EPPR5   6,,PR1
        14 001017   200024 455500                    STP5    @LEN+4,,AUTO
        14 001020   100005 634500                    EPPR4   5,,PR1
        14 001021   200023 454500                    STP4    @LEN+3,,AUTO
        14 001022   000002 236000 15                 LDQ     2
PL6.E3A0      #003=Z8EC$INTERNAL_STRING_REP File=Z8EC.:Z8A6TSI                   SAT 08/09/97 11:52 Page:452
        14 001023   200022 756100                    STQ     @LEN+2,,AUTO
        14 001024   200022 630500                    EPPR0   @LEN+2,,AUTO
        14 001025   000000 631400 15                 EPPR1   0
        14 001026   000000 701000 xent               TSX1    Z8AE$ERROR
        14 001027   000000 011000                    NOP     0

  16802 14 001030   200003 470500                    LDP0    @STRING$,,AUTO
        14 001031   000000 471500                    LDP1    0,,PR0
        14 001032   400000 236007                    LDQ     -131072,DL
        14 001033   100000 256100                    ORSQ    0,,PR1

     2707    16811
     2708    16812    4           END ; /* Length is not even number of 9-bit bytes */

     2709    16813
     2710    16814    3           CALL CHECK_KANJI_BYTES (NEW_DNT$) ;

  16814 14 001034   200004 236100                    LDQ     @NEW_DNT$,,AUTO
        14 001035   200015 756100                    STQ     ORIG_DNT$+3,,AUTO
        14 001036   000311 701000 14                 TSX1    CHECK_KANJI_BYTES
        14 001037   000000 011000                    NOP     0

     2711    16815
     2712    16816    3         END ; /* String is type kanji */

  16816 14 001040   001174 710000 14                 TRA     REGULAR_EXIT

     2713    16817
     2714    16818    2     CASE(ELSE);

     2715    16819
     2716    16820    3       DO SELECT (STRING$ -> LX_TERMINAL.SYMBOL);

  16820 14 001041   100003 236100                    LDQ     3,,PR1
        14 001042   000650 116007                    CMPQ    424,DL
        14 001043   001050 604000 14                 TMI     s:16820+7
        14 001044   001070 600000 14                 TZE     s:16828
PL6.E3A0      #003=Z8EC$INTERNAL_STRING_REP File=Z8EC.:Z8A6TSI                   SAT 08/09/97 11:52 Page:453
        14 001045   000761 116007                    CMPQ    497,DL
        14 001046   001154 601000 14                 TNZ     s:16849
        14 001047   001061 710000 14                 TRA     s:16824
        14 001050   000433 116007                    CMPQ    283,DL
        14 001051   001056 604000 14                 TMI     s:16820+13
        14 001052   001131 600000 14                 TZE     s:16843
        14 001053   000543 116007                    CMPQ    355,DL
        14 001054   001154 601000 14                 TNZ     s:16849
        14 001055   001077 710000 14                 TRA     s:16832
        14 001056   000351 116007                    CMPQ    233,DL
        14 001057   001154 601000 14                 TNZ     s:16849
        14 001060   001106 710000 14                 TRA     s:16836

     2717    16821
     2718    16822    3         SELECT(%RSV_WRD_ZEROES);

     2719    16823
     2720    16824    3           CALL ADD_STR('"0"',3);

  16824 14 001061   000021 236000 15                 LDQ     17
        14 001062   200020 756100                    STQ     @STR+1,,AUTO
        14 001063   000022 236000 15                 LDQ     18
        14 001064   200017 756100                    STQ     CHARACTER+1,,AUTO
        14 001065   000017 701000 14                 TSX1    ADD_STR
        14 001066   000000 011000                    NOP     0
        14 001067   001166 710000 14                 TRA     s:16853

     2721    16825
     2722    16826    3         SELECT(%RSV_WRD_SPACES);

     2723    16827
     2724    16828    3           CALL ADD_STR('" "',3);

  16828 14 001070   000021 236000 15                 LDQ     17
        14 001071   200020 756100                    STQ     @STR+1,,AUTO
        14 001072   000023 236000 15                 LDQ     19
        14 001073   200017 756100                    STQ     CHARACTER+1,,AUTO
PL6.E3A0      #003=Z8EC$INTERNAL_STRING_REP File=Z8EC.:Z8A6TSI                   SAT 08/09/97 11:52 Page:454
        14 001074   000017 701000 14                 TSX1    ADD_STR
        14 001075   000000 011000                    NOP     0
        14 001076   001166 710000 14                 TRA     s:16853

     2725    16829
     2726    16830    3         SELECT(%RSV_WRD_QUOTES);

     2727    16831
     2728    16832    3           CALL ADD_STR('"""', 3);

  16832 14 001077   000021 236000 15                 LDQ     17
        14 001100   200020 756100                    STQ     @STR+1,,AUTO
        14 001101   000024 236000 15                 LDQ     20
        14 001102   200017 756100                    STQ     CHARACTER+1,,AUTO
        14 001103   000017 701000 14                 TSX1    ADD_STR
        14 001104   000000 011000                    NOP     0
        14 001105   001166 710000 14                 TRA     s:16853

     2729    16833
     2730    16834    3         SELECT(%RSV_WRD_HIGH_VALUES);

     2731    16835
     2732    16836    3           CALL ADD_CHAR('"');

  16836 14 001106   000026 236000 15                 LDQ     22
        14 001107   200015 756100                    STQ     ORIG_DNT$+3,,AUTO
        14 001110   000003 701000 14                 TSX1    ADD_CHAR
        14 001111   000000 011000                    NOP     0

     2733    16837    3           CALL ADD_STR (O1COM.CURRENT_PROC$ -> PROC_.PROC_SUPP$ ->

  16837 14 001112   000057 470400 xsym               LDP0    O1COM+47
        14 001113   000001 471500                    LDP1    1,,PR0
        14 001114   000030 236000 15                 LDQ     24
        14 001115   200020 756100                    STQ     @STR+1,,AUTO
        14 001116   200022 451500                    STP1    @LEN+2,,AUTO
        14 001117   200022 236100                    LDQ     @LEN+2,,AUTO
PL6.E3A0      #003=Z8EC$INTERNAL_STRING_REP File=Z8EC.:Z8A6TSI                   SAT 08/09/97 11:52 Page:455
        14 001120   000031 036000 15                 ADLQ    25
        14 001121   200017 756100                    STQ     CHARACTER+1,,AUTO
        14 001122   000017 701000 14                 TSX1    ADD_STR
        14 001123   000000 011000                    NOP     0

     2734    16838    3                         PROC_SUPP.HIGH_VALUE, 1);
     2735    16839    3           CALL ADD_CHAR('"');

  16839 14 001124   000026 236000 15                 LDQ     22
        14 001125   200015 756100                    STQ     ORIG_DNT$+3,,AUTO
        14 001126   000003 701000 14                 TSX1    ADD_CHAR
        14 001127   000000 011000                    NOP     0
        14 001130   001166 710000 14                 TRA     s:16853

     2736    16840
     2737    16841    3         SELECT(%RSV_WRD_LOW_VALUES);

     2738    16842
     2739    16843    3           CALL ADD_CHAR('"');

  16843 14 001131   000026 236000 15                 LDQ     22
        14 001132   200015 756100                    STQ     ORIG_DNT$+3,,AUTO
        14 001133   000003 701000 14                 TSX1    ADD_CHAR
        14 001134   000000 011000                    NOP     0

     2740    16844    3           CALL ADD_STR (O1COM.CURRENT_PROC$ -> PROC_.PROC_SUPP$ ->

  16844 14 001135   000057 470400 xsym               LDP0    O1COM+47
        14 001136   000001 471500                    LDP1    1,,PR0
        14 001137   000030 236000 15                 LDQ     24
        14 001140   200020 756100                    STQ     @STR+1,,AUTO
        14 001141   200022 451500                    STP1    @LEN+2,,AUTO
        14 001142   200022 236100                    LDQ     @LEN+2,,AUTO
        14 001143   000032 036000 15                 ADLQ    26
        14 001144   200017 756100                    STQ     CHARACTER+1,,AUTO
        14 001145   000017 701000 14                 TSX1    ADD_STR
        14 001146   000000 011000                    NOP     0
PL6.E3A0      #003=Z8EC$INTERNAL_STRING_REP File=Z8EC.:Z8A6TSI                   SAT 08/09/97 11:52 Page:456

     2741    16845    3                         PROC_SUPP.LOW_VALUE, 1);
     2742    16846    3           CALL ADD_CHAR('"');

  16846 14 001147   000026 236000 15                 LDQ     22
        14 001150   200015 756100                    STQ     ORIG_DNT$+3,,AUTO
        14 001151   000003 701000 14                 TSX1    ADD_CHAR
        14 001152   000000 011000                    NOP     0
        14 001153   001166 710000 14                 TRA     s:16853

     2743    16847    3         SELECT(ELSE);

     2744    16848
     2745    16849    3           CALL Z8AE$ERROR (%E$UNEXPECTED_CASE);

  16849 14 001154   000035 630400 15                 EPPR0   29
        14 001155   000033 631400 15                 EPPR1   27
        14 001156   000000 701000 xent               TSX1    Z8AE$ERROR
        14 001157   000000 011000                    NOP     0

     2746    16850    3           CALL ADD_STR('" "', 3);

  16850 14 001160   000021 236000 15                 LDQ     17
        14 001161   200020 756100                    STQ     @STR+1,,AUTO
        14 001162   000023 236000 15                 LDQ     19
        14 001163   200017 756100                    STQ     CHARACTER+1,,AUTO
        14 001164   000017 701000 14                 TSX1    ADD_STR
        14 001165   000000 011000                    NOP     0

     2747    16851    3       END;

     2748    16852
     2749    16853    2       CALL Z8AH$SEARCH_;

  16853 14 001166   000012 631400 15                 EPPR1   10
        14 001167   000000 701000 xent               TSX1    Z8AH$SEARCH_
        14 001170   000000 011000                    NOP     0
PL6.E3A0      #003=Z8EC$INTERNAL_STRING_REP File=Z8EC.:Z8A6TSI                   SAT 08/09/97 11:52 Page:457

     2750    16854    2       NEW_DNT$ = DNT$;

  16854 14 001171   000000 236000 1                  LDQ     DNT$
        14 001172   200004 470500                    LDP0    @NEW_DNT$,,AUTO
        14 001173   000000 756100                    STQ     0,,PR0

     2751    16855    2   END;  /* do case on LX_TERMINAL.SYMBOL */

     2752    16856
     2753    16857    1   REGULAR_EXIT:
     2754    16858
     2755    16859    1     RETURN;

  16859 14 001174   000000 702200 xent  REGULAR_EXIT TSX2  ! X66_ARET

     2756    16860
     2757    16861    1   BAD_ORDINAL:
     2758    16862
     2759    16863          %CONDITIONAL_ERROR (@LX_ITEM$ = STRING$,
     2760    16864                              @ERROR# = %E$BAD_ORDINAL_CHARACTER,
     2761    16865                              @LINE = STRING$ -> LX_TERMINAL.LINE,
     2762    16866                              @COLUMN = STRING$ -> LX_TERMINAL.COLUMN);

  16867 14 001175                       BAD_ORDINAL  null
  16876 14 001175   200003 471500                    LDP1    @STRING$,,AUTO
        14 001176   100000 473500                    LDP3    0,,PR1
        14 001177   300000 236100                    LDQ     0,,PR3
        14 001200   400000 316007                    CANQ    -131072,DL
        14 001201   001220 601000 14                 TNZ     s:16897

  16878 14 001202   300006 634500                    EPPR4   6,,PR3
        14 001203   200024 454500                    STP4    @LEN+4,,AUTO
        14 001204   300005 635500                    EPPR5   5,,PR3
        14 001205   200023 455500                    STP5    @LEN+3,,AUTO
        14 001206   000037 236000 15                 LDQ     31
        14 001207   200022 756100                    STQ     @LEN+2,,AUTO
PL6.E3A0      #003=Z8EC$INTERNAL_STRING_REP File=Z8EC.:Z8A6TSI                   SAT 08/09/97 11:52 Page:458
        14 001210   200022 630500                    EPPR0   @LEN+2,,AUTO
        14 001211   000000 631400 15                 EPPR1   0
        14 001212   000000 701000 xent               TSX1    Z8AE$ERROR
        14 001213   000000 011000                    NOP     0

  16887 14 001214   200003 470500                    LDP0    @STRING$,,AUTO
        14 001215   000000 471500                    LDP1    0,,PR0
        14 001216   400000 236007                    LDQ     -131072,DL
        14 001217   100000 256100                    ORSQ    0,,PR1

     2763    16896
     2764    16897    1     GOTO ERROR_EXIT;

  16897 14 001220   001244 710000 14                 TRA     ERROR_EXIT

     2765    16898
     2766    16899    1   STR_ERROR:
     2767    16900
     2768    16901          %CONDITIONAL_ERROR (@LX_ITEM$ = STRING$,
     2769    16902                              @ERROR# = %E$EMBEDDED_QUOTES,
     2770    16903                              @LINE = STRING$ -> LX_TERMINAL.LINE,
     2771    16904                              @COLUMN = STRING$ -> LX_TERMINAL.COLUMN);

  16905 14 001221                       STR_ERROR    null
  16914 14 001221   200003 470500                    LDP0    @STRING$,,AUTO
        14 001222   000000 471500                    LDP1    0,,PR0
        14 001223   100000 236100                    LDQ     0,,PR1
        14 001224   400000 316007                    CANQ    -131072,DL
        14 001225   001244 601000 14                 TNZ     ERROR_EXIT

  16916 14 001226   100006 633500                    EPPR3   6,,PR1
        14 001227   200024 453500                    STP3    @LEN+4,,AUTO
        14 001230   100005 634500                    EPPR4   5,,PR1
        14 001231   200023 454500                    STP4    @LEN+3,,AUTO
        14 001232   000041 236000 15                 LDQ     33
        14 001233   200022 756100                    STQ     @LEN+2,,AUTO
        14 001234   200022 630500                    EPPR0   @LEN+2,,AUTO
PL6.E3A0      #003=Z8EC$INTERNAL_STRING_REP File=Z8EC.:Z8A6TSI                   SAT 08/09/97 11:52 Page:459
        14 001235   000000 631400 15                 EPPR1   0
        14 001236   000000 701000 xent               TSX1    Z8AE$ERROR
        14 001237   000000 011000                    NOP     0

  16925 14 001240   200003 470500                    LDP0    @STRING$,,AUTO
        14 001241   000000 471500                    LDP1    0,,PR0
        14 001242   400000 236007                    LDQ     -131072,DL
        14 001243   100000 256100                    ORSQ    0,,PR1

     2772    16934
     2773    16935    1   ERROR_EXIT:
     2774    16936
     2775    16937    1     NEW_DNT$ = ORIG_DNT$;

  16937 14 001244   200012 236100       ERROR_EXIT   LDQ     ORIG_DNT$,,AUTO
        14 001245   200004 470500                    LDP0    @NEW_DNT$,,AUTO
        14 001246   000000 756100                    STQ     0,,PR0

     2776    16938
     2777    16939    1     RETURN;

  16939 14 001247   000000 702200 xent               TSX2  ! X66_ARET
     2778    16940
     2779    16941    1   END Z8EC$INTERNAL_STRING_REP;

PL6.E3A0      #003=Z8EC$INTERNAL_STRING_REP File=Z8EC.:Z8A6TSI                   SAT 08/09/97 11:52 Page:460
--  Include file information  --

   Z8E_O1COM.:Z8A6TOU  cannot be made into a system file and is referenced.
   Z8E_NEW_ILL.:Z8A6TOU  is referenced.
   Z8E_MACROS.:Z8A6TOU  cannot be made into a system file and is referenced.
   Z8A_LEX_SYMB.:Z8A6TOU  cannot be made into a system file and is referenced.
   Z8E_STACKS.:Z8A6TOU  cannot be made into a system file and is referenced.
   Z8E_TABLES.:Z8A6TOU  cannot be made into a system file and is referenced.
   Z8E_WINDOW.:Z8A6TOU  is referenced.
   Z8A_ERR_NUMS.:Z8A6TOU  is referenced.
   Z8A_LTS.:Z8A6TOU  cannot be made into a system file and is referenced.
   Z8A_TYPES.:Z8A6TOU  is referenced.
   Z8A_ST.:Z8A6TOU  cannot be made into a system file and is referenced.
   Z8A_DNT.:Z8A6TOU  cannot be made into a system file and is referenced.
   Z8A_COMCOM.:Z8A6TOU  cannot be made into a system file and is referenced.
   X8A_COM_MACS.:X8A6TOU  is referenced.
   Z8A_NAMES.:Z8A6TOU  is referenced.
   Z8A_SUPP_MAC.:Z8A6TOU  is referenced.
   Z8A_DEFC.:Z8A6TOU  cannot be made into a system file and is referenced.
      No diagnostics issued in procedure Z8EC$INTERNAL_STRING_REP.
PL6.E3A0      #003=Z8EC$INTERNAL_STRING_REP File=Z8EC.:Z8A6TSI                   SAT 08/09/97 11:52 Page:461

 **** Variables and constants ****

  ****  Section 000 LblCom ITERATION

  ****  Scalars and arrays  ****
OctLoc.c.b A Datatyp(siz) R M Lvl/name                 OctLoc.c.b A Datatyp(siz) R M Lvl/name

     0-0-0/w SBIN              1 ITERATION

  ****  Section 001 LblCom DNT$

  ****  Scalars and arrays  ****
OctLoc.c.b A Datatyp(siz) R M Lvl/name                 OctLoc.c.b A Datatyp(siz) R M Lvl/name

     0-0-0/w PTR         r     1 DNT$

  ****  Section 002 LblCom DNT_

  ****  Scalars and arrays  ****
OctLoc.c.b A Datatyp(siz) R M Lvl/name                 OctLoc.c.b A Datatyp(siz) R M Lvl/name

     0-0-0/w STRC(180)         1 DNT_

  ****  Section 003 LblCom DNT_BUCKET_NUMBER

  ****  Scalars and arrays  ****
OctLoc.c.b A Datatyp(siz) R M Lvl/name                 OctLoc.c.b A Datatyp(siz) R M Lvl/name

     0-0-0/w UBIN              1 DNT_BUCKET_NUMBER

  ****  Section 004 LblCom DNT_OF_1$

  ****  Scalars and arrays  ****
OctLoc.c.b A Datatyp(siz) R M Lvl/name                 OctLoc.c.b A Datatyp(siz) R M Lvl/name

     0-0-0/w PTR               1 DNT_OF_1$

PL6.E3A0      #003=Z8EC$INTERNAL_STRING_REP File=Z8EC.:Z8A6TSI                   SAT 08/09/97 11:52 Page:462
  ****  Section 005 LblCom ST$

  ****  Scalars and arrays  ****
OctLoc.c.b A Datatyp(siz) R M Lvl/name                 OctLoc.c.b A Datatyp(siz) R M Lvl/name

     0-0-0/w PTR         r     1 ST$

  ****  Section 006 LblCom ST_

  ****  Scalars and arrays  ****
OctLoc.c.b A Datatyp(siz) R M Lvl/name                 OctLoc.c.b A Datatyp(siz) R M Lvl/name

     0-0-0/w STRC(180)         1 ST_

  ****  Section 007 LblCom LTS$

  ****  Scalars and arrays  ****
OctLoc.c.b A Datatyp(siz) R M Lvl/name                 OctLoc.c.b A Datatyp(siz) R M Lvl/name

     0-0-0/w PTR               1 LONG_ITEM$                 0-0-0/w PTR         r     1 LTS$

  ****  Section 008 LblCom LTS_

  ****  Scalars and arrays  ****
OctLoc.c.b A Datatyp(siz) R M Lvl/name                 OctLoc.c.b A Datatyp(siz) R M Lvl/name

     0-0-0/w STRC(180)         1 LTS_

  ****  Section 009 LblCom LEX_SYMBOL

  ****  Scalars and arrays  ****
OctLoc.c.b A Datatyp(siz) R M Lvl/name                 OctLoc.c.b A Datatyp(siz) R M Lvl/name

     0-0-0/w STRC(3240)  r     1 LEX_SYMBOL                 0-0-0/w STRC(3240)        1 LEX_SYMBOL_WORDS

  ****  Section 010 LblCom CURRENT_LEX_SYMBOL$

PL6.E3A0      #003=Z8EC$INTERNAL_STRING_REP File=Z8EC.:Z8A6TSI                   SAT 08/09/97 11:52 Page:463
  ****  Scalars and arrays  ****
OctLoc.c.b A Datatyp(siz) R M Lvl/name                 OctLoc.c.b A Datatyp(siz) R M Lvl/name

     0-0-0/w PTR         r     1 CURRENT_LEX_SYMBOL$

  ****  Section 011 LblCom TEMP_LEX_SYMBOL

  ****  Scalars and arrays  ****
OctLoc.c.b A Datatyp(siz) R M Lvl/name                 OctLoc.c.b A Datatyp(siz) R M Lvl/name

     0-0-0/w STRC(3240)        1 TEMP_LEX_SYMBOL

  ****  Section 012 LblCom TEMP_LEX_SYMBOL2

  ****  Scalars and arrays  ****
OctLoc.c.b A Datatyp(siz) R M Lvl/name                 OctLoc.c.b A Datatyp(siz) R M Lvl/name

     0-0-0/w STRC(3240)        1 TEMP_LEX_SYMBOL2

  ****  Auto variables  ****

  ****  Scalars and arrays  ****
OctLoc.c.b A Datatyp(siz) R M Lvl/name                 OctLoc.c.b A Datatyp(siz) R M Lvl/name

    15-0-0/w PTR         r     1 @CH                       15-0-0/w PTR         r     1 @DNT$$
    20-0-0/w PTR         r     1 @LEN                       4-0-0/w PTR         r     1 @NEW_DNT$
    17-0-0/w PTR         r     1 @STR                       3-0-0/w PTR         r     1 @STRING$
    *0-0-0/c CHAR        r     1 CH                        16-0-0/c CHAR        r     1 CHARACTER
    16-0-0/c UBIN(9)     r     1 CHAR_UBIN                  7-0-0/c CHAR        r     1 DELIM
    *0-0-0/w PTR         r     1 DNT$$                     11-0-0/w SBIN        r     1 ITEM_CLASS
     6-0-0/w SBIN        r     1 LAST_LOC                  *0-0-0/w SBIN        r     1 LEN
     5-0-0/w SBIN        r     1 LOC                       *0-0-0/w PTR         r     1 NEW_DNT$
    10-0-0/w SBIN        r     1 ORDVAL                    12-0-0/w PTR         r     1 ORIG_DNT$
    *0-0-0/c ACHR        r     1 STR                       *0-0-0/w PTR         r     1 STRING$

  ****  SYMREF variables  ****

PL6.E3A0      #003=Z8EC$INTERNAL_STRING_REP File=Z8EC.:Z8A6TSI                   SAT 08/09/97 11:52 Page:464
  ****  Scalars and arrays  ****
OctLoc.c.b A Datatyp(siz) R M Lvl/name                 OctLoc.c.b A Datatyp(siz) R M Lvl/name

     0-0-0/w STRC(4608)        1 ANSI_USERWORD_SCAN_TABLE
     0-0-0/w STRC(4608)  r     1 ASCII_SEARCH_TABLE         0-0-0/w STRC(4608)        1 BLANK_SCAN_TABLE
     0-0-0/d STRC(13248) r     1 COMCOM
     0-0-0/c CHAR              1 CURRENCY_SIGN_CHARS(0:511)
     0-0-0/w STRC(4608)        1 DBL_QUOTE_PSEUDO_SEARCH_TABLE
     0-0-0/w STRC(4608)  r     1 DIGIT_SCAN_TABLE
     0-0-0/w STRC(4608)        1 DOUBLE_QUOTE_SEARCH_TABLE
     0-0-0/w STRC(180)         1 HIER_STK(0:50)
     0-0-0/w SBIN              1 HIER_STK_PTR               0-0-0/w STRC(4608)        1 LETTER_SEARCH_TABLE
     0-0-0/c CHAR              1 LOWER_TO_UPPER_CASE(0:511)
     0-0-0/w UBIN              1 LTS_STEP(0:37)
     0-0-0/d STRC(11580) r     1 O1COM                      0-0-0/w STRC(144)         1 PAGE_FORMAT
     0-0-0/w STRC(153)         1 REP_STK(0:50)              0-0-0/w SBIN              1 REP_STK_PTR
     0-0-0/w STRC(4608)        1 SEPARATORS_TABLE
     0-0-0/w STRC(4608)        1 SINGLE_QUOTE_SEARCH_TABLE
     0-0-0/w STRC(4608)        1 SNGL_QUOTE_PSEUDO_SEARCH_TABLE
     0-0-0/w STRC(4608)        1 USERWORD_SCAN_TABLE

  ****  BASED and DCB variables  ****

  ****  Scalars and arrays  ****
OctLoc.c.b A Datatyp(siz) R M Lvl/name                 OctLoc.c.b A Datatyp(siz) R M Lvl/name

     0-0-0/w STRC(288)         1 ADD_STMT                   0-0-0/w STRC(396)         1 ALPHABET
     0-0-0/w STRC(144)         1 ALTER_LTS                  0-0-0/w STRC(3672)        1 ALT_KEY
     0-0-0/w STRC(36864)       1 ARGLIST                    0-0-0/w STRC(396)         1 ARRAY
     0-0-0/w STRC(180)         1 ARRAY_PRESET_LTS           0-0-0/w ASTR(324)   r     1 BASED_LEX_SYMBOL
     0-0-0/w STRC(360)         1 BASED_LEX_SYMBOL_WORDS
     0-0-0/w STRC(288)         1 BASE_LTS                   0-0-0/w STRC(288)         1 BINARY_OP
     0-0-0/w STRC(396)         1 BLOCK                      0-0-0/w STRC(144)         1 BT
     0-0-0/w STRC(288)         1 CALL_STMT                  0-0-0/w STRC(396)         1 CD
     0-0-0/w STRC(288)         1 CD_LTS                     0-0-0/w CHAR(4096)        1 CHARS
     0-0-0/w STRC(396)         1 CLASS                      0-0-0/w STRC(288)         1 COMPUTE_STMT
     0-0-0/w STRC(396)         1 CONDITION                  0-0-0/w STRC(396)         1 CONST
PL6.E3A0      #003=Z8EC$INTERNAL_STRING_REP File=Z8EC.:Z8A6TSI                   SAT 08/09/97 11:52 Page:465
     0-0-0/w STRC(72)          1 CONT                       0-0-0/w STRC(540)         1 CONTROL_NAME_LTS
     0-0-0/w STRC(1872)        1 COPY_FILE                  0-0-0/w STRC(396)         1 DB
     0-0-0/w STRC(396)         1 DCB_                       0-0-0/w STRC(288)         1 DEFERED_IDENTIFIER
     0-0-0/w STRC(252)         1 DEFERED_ID_TREE            0-0-0/w STRC(288)         1 DEFERED_QUAL_ID
     0-0-0/w STRC(288)         1 DEFERED_SUM_CLAUSE
     0-0-0/w STRC(288)         1 DEFERED_SUM_CLAUSE_LIST
     0-0-0/w STRC(288)         1 DELETE_STMT                0-0-0/w STRC(108)         1 DEPENDING_SIZE
     0-0-0/w STRC(5472)        1 DIMS                       0-0-0/w STRC(288)         1 DIVIDE_STMT
     0-0-0/w STRC(396)         1 DML_ITEM                   0-0-0/w STRC(216)         1 DML_REC
     0-0-0/w ASTR(180)   r     1 DNT                        0-0-0/w STRC(73836)       1 EVALUATE
     0-0-0/w STRC(396)         1 FD                         0-0-0/w STRC(1692)        1 FILE_LTS
     0-0-0/w STRC(288)         1 ILS_LIST                   0-0-0/w STRC(108)         1 INDEXES
     0-0-0/w STRC(360)         1 INIT_LTS                   0-0-0/w STRC(288)         1 INSPECT_1_STMT
     0-0-0/w STRC(288)         1 INSPECT_2_STMT             0-0-0/w STRC(288)         1 INSPECT_4_STMT
     0-0-0/w STRC(396)         1 INTDEF                     0-0-0/w STRC(180)         1 IO_RESTORE_CHAIN
     0-0-0/w STRC(144)         1 KEY                        0-0-0/w STRC(396)         1 LABEL
     0-0-0/w STRC(288)         1 LA_ITEM                    0-0-0/w STRC(36864)       1 LCNST
     0-0-0/w STRC(72)          1 LONG                       0-0-0/w STRC              1 LTS
     0-0-0/w STRC(360)         1 LTSS                       0-0-0/w STRC(36936)       1 LTS_PTR_ARRAY
     0-0-0/w STRC(504)         1 LX_CD_INPUT                0-0-0/w STRC(324)         1 LX_CD_I_O
     0-0-0/w STRC(396)         1 LX_CD_OUTPUT               0-0-0/w STRC(288)         1 LX_ETT_ITEM
     0-0-0/w STRC(288)   r     1 LX_ITEM                    0-0-0/w STRC(288)         1 LX_LARGE
     0-0-0/w STRC(288)         1 LX_LIST                    0-0-0/w STRC(1224)        1 LX_REC_DECL
     0-0-0/w STRC(864)         1 LX_REPORT_REC              0-0-0/w STRC(288)   r     1 LX_TERMINAL
     0-0-0/w STRC(396)         1 MNEMONIC                   0-0-0/w STRC(288)         1 MULTIPLY_STMT
     0-0-0/w STRC(144)         1 NEL                        0-0-0/w STRC(216)         1 OPEN_LTS
     0-0-0/w STRC(36864)       1 PAGE                       0-0-0/w STRC(396)         1 PARA
     0-0-0/w STRC(144)         1 PRIME                      0-0-0/w STRC(396)   r     1 PROC_
     0-0-0/w STRC(396)         1 PROC_DEF                   0-0-0/w STRC(900)   r     1 PROC_SUPP
     0-0-0/w STRC(396)         1 RD                         0-0-0/w STRC(288)         1 READ_STMT
     0-0-0/w STRC(216)         1 REF                        0-0-0/w STRC(108)         1 RENAMES
     0-0-0/w STRC(720)         1 REPORT_01_LTS              0-0-0/w STRC(432)         1 REPORT_ELEM_LTS
     0-0-0/w STRC(252)         1 REPORT_GRP_LTS             0-0-0/w STRC(1332)        1 REPORT_LTS
     0-0-0/w STRC(288)         1 REWRITE_STMT               0-0-0/w STRC(144)         1 RVA_LTS
     0-0-0/w STRC(396)         1 SCALAR                     0-0-0/w STRC(396)         1 SD
     0-0-0/w STRC(396)         1 SECTION                    0-0-0/w STRC(396)         1 SEGMENT
     0-0-0/w STRC(360)         1 SEGMENT_LTS                0-0-0/w STRC(396)         1 ST
PL6.E3A0      #003=Z8EC$INTERNAL_STRING_REP File=Z8EC.:Z8A6TSI                   SAT 08/09/97 11:52 Page:466
     0-0-0/w STRC(288)         1 START_STMT                 0-0-0/w STRC(252)         1 STRING_STMT
     0-0-0/w STRC(288)         1 SUBTRACT_STMT              0-0-0/w STRC(252)         1 SUM_LTS
     0-0-0/w STRC(396)         1 SWITCH                     0-0-0/w STRC(396)         1 SYMBOLIC_CHAR
     0-0-0/w STRC(396)         1 SYMDEF_                    0-0-0/w STRC(396)         1 SYMREF_
     0-0-0/w STRC(396)         1 TEMP                       0-0-0/w STRC(288)         1 UNARY_OP
     0-0-0/w STRC(288)         1 UNSTRING_STMT              0-0-0/d STRC(612)         1 USE
     0-0-0/w STRC(252)         1 USE_SUPP                   0-0-0/w STRC(396)         1 VARIABLE
     0-0-0/w STRC(288)         1 WRITE_STMT


   Procedure Z8EC$INTERNAL_STRING_REP requires 680 words for executable code.
   Procedure Z8EC$INTERNAL_STRING_REP requires 30 words of local(AUTO) storage.

    No errors detected in file Z8EC.:Z8A6TSI    .
