VERSION A06

PL6.E3A0      #001=Z8ED$DISPOSE_HEAP File=Z8ED.:Z8A6TSI                          SAT 08/09/97 11:46 Page:1
        1        1        /*T***********************************************************/
        2        2        /*T*                                                         */
        3        3        /*T* Copyright (c) Bull HN Information Systems Inc., 1997    */
        4        4        /*T*                                                         */
        5        5        /*T***********************************************************/
        6        6        Z8ED$DISPOSE_HEAP : PROC (H$, HEAP_LEN) NOAUTO;
        7        7
        8        8    1   DCL H$       PTR;   /* to heap space to be collected */
        9        9    1   DCL HEAP_LEN UBIN;  /* length of heap space in words */
       10       10
       11       11        %EQU PHASE = 1;
       12       12        %INCLUDE Z8A_DEFC;
       13       80        %INCLUDE Z8A_SUPP_MAC;
       14     2480        %INCLUDE Z8E_HEAPINFO;
       15     2518
       16     2519              /* Main body of Z8ED$DISPOSE_HEAP */
       17     2520
       18     2521    1   HEAP_WORDS_ALLOCATED = HEAP_WORDS_ALLOCATED - HEAP_LEN;
       19     2522
       20     2523    1   IF HEAP_LEN < %MAX_HEAP_ITEM_SIZE THEN
       21     2524    2     DO;
       22     2525    2       H$ -> HEAP_CELL.LINK$ = HEAP_POOL(HEAP_LEN);
       23     2526    2       HEAP_POOL(HEAP_LEN)   = H$;
       24     2527    2     END;
       25     2528    1   ELSE
       26     2529    2     DO;
       27     2530    2       H$ -> HEAP_CELL.LINK$          = HEAP_POOL(%MAX_HEAP_ITEM_SIZE);
       28     2531    2       HEAP_POOL(%MAX_HEAP_ITEM_SIZE) = H$;
       29     2532    2       H$ -> HEAP_CELL.HEAP_LEN       = HEAP_LEN;
       30     2533    2     END;
       31     2534
       32     2535    1   END Z8ED$DISPOSE_HEAP;
       33     2536        %EOD;

PL6.E3A0      #001=Z8ED$DISPOSE_HEAP File=Z8ED.:Z8A6TSI                          SAT 08/09/97 11:46 Page:2
--  Include file information  --

   Z8E_HEAPINFO.:Z8A6TOU  cannot be made into a system file and is referenced.
   X8A_COM_MACS.:X8A6TOU  is referenced.
   Z8A_NAMES.:Z8A6TOU  is referenced.
   Z8A_SUPP_MAC.:Z8A6TOU  is referenced.
   Z8A_DEFC.:Z8A6TOU  cannot be made into a system file and is referenced.
      No diagnostics issued in procedure Z8ED$DISPOSE_HEAP.

   Procedure Z8ED$DISPOSE_HEAP requires 29 words for executable code.
   Procedure Z8ED$DISPOSE_HEAP is declared NOAUTO and requires 4 words of local(STATIC) storage.

PL6.E3A0      #001=Z8ED$DISPOSE_HEAP File=Z8ED.:Z8A6TSI                          SAT 08/09/97 11:46 Page:3

 Object Unit name= Z8ED$DISPOSE_HEAP                          File name= Z8ED.:Z8A6TOU
 UTS= AUG 09 '97 11:46:23.00 SAT                              Compiler= PL-6/E31         Sev=      00
 SharedLib= :SHARED_SYSTEM                                    Alt SharedLib=


    ****  Control sections  ****

 Sect   Type Bound  Init  Size OctSiz  Section name(segment info)
    0   Data  even  none     4      4  Z8ED$DISPOSE_HEAP
    1  LblCom even  none     1      1  ITERATION
    2  LblCom even  none   101    145  HEAP_POOL
    3  LblCom even  none     1      1  HEAP_WORDS_ALLOCATED
    4  LblCom even  none     5      5  HEAP_
    5  LblCom even  none     1      1  HEAP$
    6   Proc  even  none    29     35  Z8ED$DISPOSE_HEAP

    ****  Entry defs  ****

                              Check   Calling
                             calling  sequence
  Sect OctLoc Primary Altret sequence   type   Parms  Name
     6      0   yes            yes      Std        2  Z8ED$DISPOSE_HEAP

  ****  Entry refs  ****

         Check        Calling
        calling       sequence
Altret sequence SRef   type   Args  Name
                       nStd      0 X66_STATIC_2

  ****  Segment refs  ****

  Flags:  r = read only, s = secondary
Flgs Name                             Flgs Name                             Flgs Name
     NULLSID
PL6.E3A0      #001=Z8ED$DISPOSE_HEAP File=Z8ED.:Z8A6TSI                          SAT 08/09/97 11:46 Page:4


        1        1        /*T***********************************************************/
        2        2        /*T*                                                         */
        3        3        /*T* Copyright (c) Bull HN Information Systems Inc., 1997    */
        4        4        /*T*                                                         */
        5        5        /*T***********************************************************/
        6        6        Z8ED$DISPOSE_HEAP : PROC (H$, HEAP_LEN) NOAUTO;

      6  6 000000   000000 700200 xent  Z8ED$DISPOS* TSX0  ! X66_STATIC_2
         6 000001   000000 000002 0                  ZERO    0,2

        7        7
        8        8    1   DCL H$       PTR;   /* to heap space to be collected */
        9        9    1   DCL HEAP_LEN UBIN;  /* length of heap space in words */
       10       10
       11       11        %EQU PHASE = 1;
       12       12        %INCLUDE Z8A_DEFC;
       13       80        %INCLUDE Z8A_SUPP_MAC;
       14     2480        %INCLUDE Z8E_HEAPINFO;
       15     2518
       16     2519              /* Main body of Z8ED$DISPOSE_HEAP */
       17     2520
       18     2521    1   HEAP_WORDS_ALLOCATED = HEAP_WORDS_ALLOCATED - HEAP_LEN;

   2521  6 000002   000002 470400 0                  LDP0    @HEAP_LEN
         6 000003   000000 236000 3                  LDQ     HEAP_WORDS_ALLOCATED
         6 000004   000000 136100                    SBLQ    0,,PR0
         6 000005   000000 756000 3                  STQ     HEAP_WORDS_ALLOCATED

       19     2522
       20     2523    1   IF HEAP_LEN < %MAX_HEAP_ITEM_SIZE THEN

   2523  6 000006   000000 235100                    LDA     0,,PR0
         6 000007   000144 115007                    CMPA    100,DL
         6 000010   000022 603000 6                  TRC     s:2530

       21     2524    2     DO;
PL6.E3A0      #001=Z8ED$DISPOSE_HEAP File=Z8ED.:Z8A6TSI                          SAT 08/09/97 11:46 Page:5

       22     2525    2       H$ -> HEAP_CELL.LINK$ = HEAP_POOL(HEAP_LEN);

   2525  6 000011   000001 471400 0                  LDP1    @H$
         6 000012   100000 473500                    LDP3    0,,PR1
         6 000013   000000 720100                    LXL0    0,,PR0
         6 000014   000000 236010 2                  LDQ     HEAP_POOL,X0
         6 000015   300000 756100                    STQ     0,,PR3

       23     2526    2       HEAP_POOL(HEAP_LEN)   = H$;

   2526  6 000016   000000 720100                    LXL0    0,,PR0
         6 000017   100000 236100                    LDQ     0,,PR1
         6 000020   000000 756010 2                  STQ     HEAP_POOL,X0

       24     2527    2     END;

   2527  6 000021   000033 710000 6                  TRA     s:2535

       25     2528    1   ELSE
       26     2529    2     DO;

       27     2530    2       H$ -> HEAP_CELL.LINK$          = HEAP_POOL(%MAX_HEAP_ITEM_SIZE);

   2530  6 000022   000001 471400 0                  LDP1    @H$
         6 000023   100000 473500                    LDP3    0,,PR1
         6 000024   000144 236000 2                  LDQ     HEAP_POOL+100
         6 000025   300000 756100                    STQ     0,,PR3

       28     2531    2       HEAP_POOL(%MAX_HEAP_ITEM_SIZE) = H$;

   2531  6 000026   100000 236100                    LDQ     0,,PR1
         6 000027   000144 756000 2                  STQ     HEAP_POOL+100

       29     2532    2       H$ -> HEAP_CELL.HEAP_LEN       = HEAP_LEN;

   2532  6 000030   100000 473500                    LDP3    0,,PR1
PL6.E3A0      #001=Z8ED$DISPOSE_HEAP File=Z8ED.:Z8A6TSI                          SAT 08/09/97 11:46 Page:6
         6 000031   000000 235100                    LDA     0,,PR0
         6 000032   300001 755100                    STA     1,,PR3

       30     2533    2     END;

       31     2534
       32     2535    1   END Z8ED$DISPOSE_HEAP;

   2535  6 000033   000000 221200 0                  LDX1  ! 0
         6 000034   000001 702211                    TSX2  ! 1,X1
       33     2536        %EOD;

PL6.E3A0      #001=Z8ED$DISPOSE_HEAP File=Z8ED.:Z8A6TSI                          SAT 08/09/97 11:46 Page:7
--  Include file information  --

   Z8E_HEAPINFO.:Z8A6TOU  cannot be made into a system file and is referenced.
   X8A_COM_MACS.:X8A6TOU  is referenced.
   Z8A_NAMES.:Z8A6TOU  is referenced.
   Z8A_SUPP_MAC.:Z8A6TOU  is referenced.
   Z8A_DEFC.:Z8A6TOU  cannot be made into a system file and is referenced.
      No diagnostics issued in procedure Z8ED$DISPOSE_HEAP.
PL6.E3A0      #001=Z8ED$DISPOSE_HEAP File=Z8ED.:Z8A6TSI                          SAT 08/09/97 11:46 Page:8

 **** Variables and constants ****

  ****  Section 000  Data  Z8ED$DISPOSE_HEAP

  ****  Scalars and arrays  ****
OctLoc.c.b A Datatyp(siz) R M Lvl/name                 OctLoc.c.b A Datatyp(siz) R M Lvl/name

     1-0-0/w PTR         r     1 @H$                        2-0-0/w PTR         r     1 @HEAP_LEN
    *0-0-0/w PTR         r     1 H$                        *0-0-0/w UBIN        r     1 HEAP_LEN

  ****  Section 001 LblCom ITERATION

  ****  Scalars and arrays  ****
OctLoc.c.b A Datatyp(siz) R M Lvl/name                 OctLoc.c.b A Datatyp(siz) R M Lvl/name

     0-0-0/w SBIN              1 ITERATION

  ****  Section 002 LblCom HEAP_POOL

  ****  Scalars and arrays  ****
OctLoc.c.b A Datatyp(siz) R M Lvl/name                 OctLoc.c.b A Datatyp(siz) R M Lvl/name

     0-0-0/w PTR         r     1 HEAP_POOL(0:100)

  ****  Section 003 LblCom HEAP_WORDS_ALLOCATED

  ****  Scalars and arrays  ****
OctLoc.c.b A Datatyp(siz) R M Lvl/name                 OctLoc.c.b A Datatyp(siz) R M Lvl/name

     0-0-0/w SBIN        r     1 HEAP_WORDS_ALLOCATED

  ****  Section 004 LblCom HEAP_

  ****  Scalars and arrays  ****
OctLoc.c.b A Datatyp(siz) R M Lvl/name                 OctLoc.c.b A Datatyp(siz) R M Lvl/name

     0-0-0/w STRC(180)         1 HEAP_
PL6.E3A0      #001=Z8ED$DISPOSE_HEAP File=Z8ED.:Z8A6TSI                          SAT 08/09/97 11:46 Page:9

  ****  Section 005 LblCom HEAP$

  ****  Scalars and arrays  ****
OctLoc.c.b A Datatyp(siz) R M Lvl/name                 OctLoc.c.b A Datatyp(siz) R M Lvl/name

     0-0-0/w PTR               1 HEAP$

  ****  BASED and DCB variables  ****

  ****  Scalars and arrays  ****
OctLoc.c.b A Datatyp(siz) R M Lvl/name                 OctLoc.c.b A Datatyp(siz) R M Lvl/name

     0-0-0/w CHAR(4096)        1 CHARS                      0-0-0/w STRC(72)          1 CONT
     0-0-0/w STRC(72)    r     1 HEAP_CELL                  0-0-0/w STRC(36864)       1 PAGE


   Procedure Z8ED$DISPOSE_HEAP requires 29 words for executable code.
   Procedure Z8ED$DISPOSE_HEAP is declared NOAUTO and requires 4 words of local(STATIC) storage.

PL6.E3A0      #002=Z8ED$NEW_HEAP File=Z8ED.:Z8A6TSI                              SAT 08/09/97 11:46 Page:10
       34        1        /*T***********************************************************/
       35        2        /*T*                                                         */
       36        3        /*T* Copyright (c) Bull HN Information Systems Inc., 1997    */
       37        4        /*T*                                                         */
       38        5        /*T***********************************************************/
       39        6        Z8ED$NEW_HEAP : PROC (H$, HEAP_LEN) NOAUTO;
       40        7
       41        8    1   DCL H$          PTR;    /* Pointer returned to cell */
       42        9    1   DCL HEAP_LEN UBIN;      /* Length of cell in words (input) */
       43       10
       44       11        %EQU PHASE = 1;
       45       12        %INCLUDE Z8A_DEFC;
       46       80        %INCLUDE Z8A_SUPP_MAC;
       47     2480        %INCLUDE Z8E_HEAPINFO;
       48     2518
       49     2519    1   DCL Z8ED$DISPOSE_HEAP ENTRY(2);
       50     2520    1   DCL TP$ PTR;  /* TEMPORARY */
       51     2521
       52     2522          /* Main body of Z8ED$NEW_HEAP */
       53     2523
       54     2524    1   HEAP_WORDS_ALLOCATED = HEAP_WORDS_ALLOCATED + HEAP_LEN;
       55     2525
       56     2526    1   IF HEAP_LEN < %MAX_HEAP_ITEM_SIZE THEN
       57     2527    2     DO;
       58     2528    2       IF HEAP_POOL(HEAP_LEN) ~= ADDR(NIL) THEN
       59     2529    3         DO;
       60     2530    3           H$ = HEAP_POOL(HEAP_LEN);
       61     2531    3           HEAP_POOL(HEAP_LEN) = H$ -> HEAP_CELL.LINK$;
       62     2532    3         END;
       63     2533    2       ELSE
       64     2534    3         DO;
       65     2535                %RESERVE_HEAP(@SIZE=HEAP_LEN, @POINTER=H$);
       66     2543    3         END;
       67     2544    2     END;
       68     2545    1   ELSE
       69     2546    2     DO;
       70     2547    2       TP$ = ADDR(HEAP_POOL(%MAX_HEAP_ITEM_SIZE));
PL6.E3A0      #002=Z8ED$NEW_HEAP File=Z8ED.:Z8A6TSI                              SAT 08/09/97 11:46 Page:11
       71     2548
       72     2549    3       DO WHILE (TP$ -> HEAP_CELL.LINK$ ~= ADDR(NIL))
       73     2550    3               AND (TP$ -> HEAP_CELL.LINK$ -> HEAP_CELL.HEAP_LEN < HEAP_LEN);
       74     2551
       75     2552    3         TP$ = TP$ -> HEAP_CELL.LINK$;
       76     2553
       77     2554    3       END;  /* DO WHILE */
       78     2555
       79     2556    2       IF TP$ -> HEAP_CELL.LINK$ = ADDR(NIL) THEN
       80     2557    3         DO;
       81     2558                %RESERVE_HEAP (@SIZE = HEAP_LEN, @POINTER = H$);
       82     2566    3         END;
       83     2567    2       ELSE
       84     2568    3         DO;
       85     2569    3           H$ = TP$ -> HEAP_CELL.LINK$;
       86     2570    3           TP$ -> HEAP_CELL.LINK$ = H$ -> HEAP_CELL.LINK$;
       87     2571    3           IF H$ -> HEAP_CELL.HEAP_LEN > HEAP_LEN THEN
       88     2572    3             CALL Z8ED$DISPOSE_HEAP (PINCRW(H$, HEAP_LEN),
       89     2573    3                                   H$ -> HEAP_CELL.HEAP_LEN - HEAP_LEN);
       90     2574    3         END;
       91     2575    2     END;
       92     2576
       93     2577    1   END Z8ED$NEW_HEAP;
       94     2578        %EOD;

PL6.E3A0      #002=Z8ED$NEW_HEAP File=Z8ED.:Z8A6TSI                              SAT 08/09/97 11:46 Page:12
--  Include file information  --

   Z8E_HEAPINFO.:Z8A6TOU  cannot be made into a system file and is referenced.
   X8A_COM_MACS.:X8A6TOU  is referenced.
   Z8A_NAMES.:Z8A6TOU  is referenced.
   Z8A_SUPP_MAC.:Z8A6TOU  is referenced.
   Z8A_DEFC.:Z8A6TOU  cannot be made into a system file and is referenced.
      No diagnostics issued in procedure Z8ED$NEW_HEAP.

   Procedure Z8ED$NEW_HEAP requires 109 words for executable code.
   Procedure Z8ED$NEW_HEAP is declared NOAUTO and requires 8 words of local(STATIC) storage.

PL6.E3A0      #002=Z8ED$NEW_HEAP File=Z8ED.:Z8A6TSI                              SAT 08/09/97 11:46 Page:13

 Object Unit name= Z8ED$NEW_HEAP                              File name= Z8ED.:Z8A6TOU
 UTS= AUG 09 '97 11:46:39.36 SAT                              Compiler= PL-6/E31         Sev=      00
 SharedLib= :SHARED_SYSTEM                                    Alt SharedLib=


    ****  Control sections  ****

 Sect   Type Bound  Init  Size OctSiz  Section name(segment info)
    0   Data  even  none     8     10  Z8ED$NEW_HEAP
    1  LblCom even  none     1      1  ITERATION
    2  LblCom even  none   101    145  HEAP_POOL
    3  LblCom even  none     1      1  HEAP_WORDS_ALLOCATED
    4  LblCom even  none     5      5  HEAP_
    5  LblCom even  none     1      1  HEAP$
    6   Proc  even  none   109    155  Z8ED$NEW_HEAP
    7  RoData even  none     5      5  Z8ED$NEW_HEAP

    ****  Entry defs  ****

                              Check   Calling
                             calling  sequence
  Sect OctLoc Primary Altret sequence   type   Parms  Name
     6      0   yes            yes      Std        2  Z8ED$NEW_HEAP

  ****  Entry refs  ****

         Check        Calling
        calling       sequence
Altret sequence SRef   type   Args  Name
         yes           Std       1 Z8AR$RESERVER
         yes           Std       2 Z8ED$DISPOSE_HEAP
                       nStd      0 X66_STATIC_2
PL6.E3A0      #002=Z8ED$NEW_HEAP File=Z8ED.:Z8A6TSI                              SAT 08/09/97 11:46 Page:14

  ****  Segment refs  ****

  Flags:  r = read only, s = secondary
Flgs Name                             Flgs Name                             Flgs Name
     NULLSID                               ISSID
PL6.E3A0      #002=Z8ED$NEW_HEAP File=Z8ED.:Z8A6TSI                              SAT 08/09/97 11:46 Page:15


       34        1        /*T***********************************************************/
       35        2        /*T*                                                         */
       36        3        /*T* Copyright (c) Bull HN Information Systems Inc., 1997    */
       37        4        /*T*                                                         */
       38        5        /*T***********************************************************/
       39        6        Z8ED$NEW_HEAP : PROC (H$, HEAP_LEN) NOAUTO;

      6  6 000000   000000 700200 xent  Z8ED$NEW_HE* TSX0  ! X66_STATIC_2
         6 000001   000000 000002 0                  ZERO    0,2

       40        7
       41        8    1   DCL H$          PTR;    /* Pointer returned to cell */
       42        9    1   DCL HEAP_LEN UBIN;      /* Length of cell in words (input) */
       43       10
       44       11        %EQU PHASE = 1;
       45       12        %INCLUDE Z8A_DEFC;
       46       80        %INCLUDE Z8A_SUPP_MAC;
       47     2480        %INCLUDE Z8E_HEAPINFO;
       48     2518
       49     2519    1   DCL Z8ED$DISPOSE_HEAP ENTRY(2);
       50     2520    1   DCL TP$ PTR;  /* TEMPORARY */
       51     2521
       52     2522          /* Main body of Z8ED$NEW_HEAP */
       53     2523
       54     2524    1   HEAP_WORDS_ALLOCATED = HEAP_WORDS_ALLOCATED + HEAP_LEN;

   2524  6 000002   000002 470400 0                  LDP0    @HEAP_LEN
         6 000003   000000 236000 3                  LDQ     HEAP_WORDS_ALLOCATED
         6 000004   000000 036100                    ADLQ    0,,PR0
         6 000005   000000 756000 3                  STQ     HEAP_WORDS_ALLOCATED

       55     2525
       56     2526    1   IF HEAP_LEN < %MAX_HEAP_ITEM_SIZE THEN

   2526  6 000006   000000 235100                    LDA     0,,PR0
         6 000007   000144 115007                    CMPA    100,DL
PL6.E3A0      #002=Z8ED$NEW_HEAP File=Z8ED.:Z8A6TSI                              SAT 08/09/97 11:46 Page:16
         6 000010   000052 603000 6                  TRC     s:2547

       57     2527    2     DO;

       58     2528    2       IF HEAP_POOL(HEAP_LEN) ~= ADDR(NIL) THEN

   2528  6 000011   000000 720100                    LXL0    0,,PR0
         6 000012   000000 236010 2                  LDQ     HEAP_POOL,X0
         6 000013   000000 116000 7                  CMPQ    0
         6 000014   000024 600000 6                  TZE     s:2537

       59     2529    3         DO;

       60     2530    3           H$ = HEAP_POOL(HEAP_LEN);

   2530  6 000015   000001 471400 0                  LDP1    @H$
         6 000016   100000 756100                    STQ     0,,PR1

       61     2531    3           HEAP_POOL(HEAP_LEN) = H$ -> HEAP_CELL.LINK$;

   2531  6 000017   000000 720100                    LXL0    0,,PR0
         6 000020   100000 473500                    LDP3    0,,PR1
         6 000021   300000 236100                    LDQ     0,,PR3
         6 000022   000000 756010 2                  STQ     HEAP_POOL,X0

       62     2532    3         END;

   2532  6 000023   000153 710000 6                  TRA     s:2577

       63     2533    2       ELSE
       64     2534    3         DO;

       65     2535                %RESERVE_HEAP(@SIZE=HEAP_LEN, @POINTER=H$);

   2537  6 000024   000002 236000 4                  LDQ     HEAP_+2
         6 000025   000000 036100                    ADLQ    0,,PR0
         6 000026   000003 116000 4                  CMPQ    HEAP_+3
PL6.E3A0      #002=Z8ED$NEW_HEAP File=Z8ED.:Z8A6TSI                              SAT 08/09/97 11:46 Page:17
         6 000027   000040 602000 6                  TNC     s:2539

   2538  6 000030   000002 236000 7                  LDQ     2
         6 000031   000004 756000 0                  STQ     TP$+1
         6 000032   000004 631400 0                  EPPR1   TP$+1
         6 000033   000005 451400 0                  STP1    TP$+2
         6 000034   000005 630400 0                  EPPR0   TP$+2
         6 000035   000001 631400 7                  EPPR1   1
         6 000036   000000 701000 xent               TSX1    Z8AR$RESERVER
         6 000037   000000 011000                    NOP     0

   2539  6 000040   000002 236000 4                  LDQ     HEAP_+2
         6 000041   000022 736000                    QLS     18
         6 000042   000001 036000 4                  ADLQ    HEAP_+1
         6 000043   000001 470400 0                  LDP0    @H$
         6 000044   000000 756100                    STQ     0,,PR0

   2540  6 000045   000002 471400 0                  LDP1    @HEAP_LEN
         6 000046   000002 236000 4                  LDQ     HEAP_+2
         6 000047   100000 036100                    ADLQ    0,,PR1
         6 000050   000002 756000 4                  STQ     HEAP_+2

       66     2543    3         END;

       67     2544    2     END;

   2544  6 000051   000153 710000 6                  TRA     s:2577

       68     2545    1   ELSE
       69     2546    2     DO;

       70     2547    2       TP$ = ADDR(HEAP_POOL(%MAX_HEAP_ITEM_SIZE));

   2547  6 000052   000003 236000 7                  LDQ     3
         6 000053   000003 756000 0                  STQ     TP$

       71     2548
PL6.E3A0      #002=Z8ED$NEW_HEAP File=Z8ED.:Z8A6TSI                              SAT 08/09/97 11:46 Page:18
       72     2549    3       DO WHILE (TP$ -> HEAP_CELL.LINK$ ~= ADDR(NIL))

   2549  6 000054   000060 710000 6                  TRA     s:2554

       73     2550    3               AND (TP$ -> HEAP_CELL.LINK$ -> HEAP_CELL.HEAP_LEN < HEAP_LEN);
       74     2551
       75     2552    3         TP$ = TP$ -> HEAP_CELL.LINK$;

   2552  6 000055   000003 470400 0                  LDP0    TP$
         6 000056   000000 236100                    LDQ     0,,PR0
         6 000057   000003 756000 0                  STQ     TP$

       76     2553
       77     2554    3       END;  /* DO WHILE */

   2554  6 000060   000003 470400 0                  LDP0    TP$
         6 000061   000000 236100                    LDQ     0,,PR0
         6 000062   000000 116000 7                  CMPQ    0
         6 000063   000071 600000 6                  TZE     s:2556
         6 000064   000000 471500                    LDP1    0,,PR0
         6 000065   000002 473400 0                  LDP3    @HEAP_LEN
         6 000066   100001 236100                    LDQ     1,,PR1
         6 000067   300000 116100                    CMPQ    0,,PR3
         6 000070   000055 602000 6                  TNC     s:2552

       78     2555
       79     2556    2       IF TP$ -> HEAP_CELL.LINK$ = ADDR(NIL) THEN

   2556  6 000071   000000 236100                    LDQ     0,,PR0
         6 000072   000000 116000 7                  CMPQ    0
         6 000073   000123 601000 6                  TNZ     s:2569

       80     2557    3         DO;

       81     2558                %RESERVE_HEAP (@SIZE = HEAP_LEN, @POINTER = H$);

   2560  6 000074   000002 471400 0                  LDP1    @HEAP_LEN
PL6.E3A0      #002=Z8ED$NEW_HEAP File=Z8ED.:Z8A6TSI                              SAT 08/09/97 11:46 Page:19
         6 000075   000002 236000 4                  LDQ     HEAP_+2
         6 000076   100000 036100                    ADLQ    0,,PR1
         6 000077   000003 116000 4                  CMPQ    HEAP_+3
         6 000100   000111 602000 6                  TNC     s:2562

   2561  6 000101   000002 236000 7                  LDQ     2
         6 000102   000004 756000 0                  STQ     TP$+1
         6 000103   000004 633400 0                  EPPR3   TP$+1
         6 000104   000005 453400 0                  STP3    TP$+2
         6 000105   000005 630400 0                  EPPR0   TP$+2
         6 000106   000001 631400 7                  EPPR1   1
         6 000107   000000 701000 xent               TSX1    Z8AR$RESERVER
         6 000110   000000 011000                    NOP     0

   2562  6 000111   000002 236000 4                  LDQ     HEAP_+2
         6 000112   000022 736000                    QLS     18
         6 000113   000001 036000 4                  ADLQ    HEAP_+1
         6 000114   000001 470400 0                  LDP0    @H$
         6 000115   000000 756100                    STQ     0,,PR0

   2563  6 000116   000002 471400 0                  LDP1    @HEAP_LEN
         6 000117   000002 236000 4                  LDQ     HEAP_+2
         6 000120   100000 036100                    ADLQ    0,,PR1
         6 000121   000002 756000 4                  STQ     HEAP_+2

       82     2566    3         END;

   2566  6 000122   000153 710000 6                  TRA     s:2577

       83     2567    2       ELSE
       84     2568    3         DO;

       85     2569    3           H$ = TP$ -> HEAP_CELL.LINK$;

   2569  6 000123   000001 471400 0                  LDP1    @H$
         6 000124   100000 756100                    STQ     0,,PR1

PL6.E3A0      #002=Z8ED$NEW_HEAP File=Z8ED.:Z8A6TSI                              SAT 08/09/97 11:46 Page:20
       86     2570    3           TP$ -> HEAP_CELL.LINK$ = H$ -> HEAP_CELL.LINK$;

   2570  6 000125   100000 473500                    LDP3    0,,PR1
         6 000126   300000 236100                    LDQ     0,,PR3
         6 000127   000000 756100                    STQ     0,,PR0

       87     2571    3           IF H$ -> HEAP_CELL.HEAP_LEN > HEAP_LEN THEN

   2571  6 000130   100000 473500                    LDP3    0,,PR1
         6 000131   000002 474400 0                  LDP4    @HEAP_LEN
         6 000132   400000 236100                    LDQ     0,,PR4
         6 000133   300001 116100                    CMPQ    1,,PR3
         6 000134   000153 603000 6                  TRC     s:2577

       88     2572    3             CALL Z8ED$DISPOSE_HEAP (PINCRW(H$, HEAP_LEN),

   2572  6 000135   400000 720100                    LXL0    0,,PR4
         6 000136   300001 236100                    LDQ     1,,PR3
         6 000137   400000 136100                    SBLQ    0,,PR4
         6 000140   300000 635510                    EPPR5   0,X0,PR3
         6 000141   000004 455400 0                  STP5    TP$+1
         6 000142   000005 756000 0                  STQ     TP$+2
         6 000143   000005 633400 0                  EPPR3   TP$+2
         6 000144   000007 453400 0                  STP3    TP$+4
         6 000145   000004 636400 0                  EPPR6   TP$+1
         6 000146   000006 456400 0                  STP6    TP$+3
         6 000147   000006 630400 0                  EPPR0   TP$+3
         6 000150   000004 631400 7                  EPPR1   4
         6 000151   000000 701000 xent               TSX1    Z8ED$DISPOSE_HEAP
         6 000152   000000 011000                    NOP     0

       89     2573    3                                   H$ -> HEAP_CELL.HEAP_LEN - HEAP_LEN);
       90     2574    3         END;

       91     2575    2     END;

       92     2576
PL6.E3A0      #002=Z8ED$NEW_HEAP File=Z8ED.:Z8A6TSI                              SAT 08/09/97 11:46 Page:21
       93     2577    1   END Z8ED$NEW_HEAP;

   2577  6 000153   000000 221200 0                  LDX1  ! 0
         6 000154   000001 702211                    TSX2  ! 1,X1
       94     2578        %EOD;

PL6.E3A0      #002=Z8ED$NEW_HEAP File=Z8ED.:Z8A6TSI                              SAT 08/09/97 11:46 Page:22
--  Include file information  --

   Z8E_HEAPINFO.:Z8A6TOU  cannot be made into a system file and is referenced.
   X8A_COM_MACS.:X8A6TOU  is referenced.
   Z8A_NAMES.:Z8A6TOU  is referenced.
   Z8A_SUPP_MAC.:Z8A6TOU  is referenced.
   Z8A_DEFC.:Z8A6TOU  cannot be made into a system file and is referenced.
      No diagnostics issued in procedure Z8ED$NEW_HEAP.
PL6.E3A0      #002=Z8ED$NEW_HEAP File=Z8ED.:Z8A6TSI                              SAT 08/09/97 11:46 Page:23

 **** Variables and constants ****

  ****  Section 000  Data  Z8ED$NEW_HEAP

  ****  Scalars and arrays  ****
OctLoc.c.b A Datatyp(siz) R M Lvl/name                 OctLoc.c.b A Datatyp(siz) R M Lvl/name

     1-0-0/w PTR         r     1 @H$                        2-0-0/w PTR         r     1 @HEAP_LEN
    *0-0-0/w PTR         r     1 H$                        *0-0-0/w UBIN        r     1 HEAP_LEN
     3-0-0/w PTR         r     1 TP$

  ****  Section 001 LblCom ITERATION

  ****  Scalars and arrays  ****
OctLoc.c.b A Datatyp(siz) R M Lvl/name                 OctLoc.c.b A Datatyp(siz) R M Lvl/name

     0-0-0/w SBIN              1 ITERATION

  ****  Section 002 LblCom HEAP_POOL

  ****  Scalars and arrays  ****
OctLoc.c.b A Datatyp(siz) R M Lvl/name                 OctLoc.c.b A Datatyp(siz) R M Lvl/name

     0-0-0/w PTR         r     1 HEAP_POOL(0:100)

  ****  Section 003 LblCom HEAP_WORDS_ALLOCATED

  ****  Scalars and arrays  ****
OctLoc.c.b A Datatyp(siz) R M Lvl/name                 OctLoc.c.b A Datatyp(siz) R M Lvl/name

     0-0-0/w SBIN        r     1 HEAP_WORDS_ALLOCATED

  ****  Section 004 LblCom HEAP_

  ****  Scalars and arrays  ****
OctLoc.c.b A Datatyp(siz) R M Lvl/name                 OctLoc.c.b A Datatyp(siz) R M Lvl/name

PL6.E3A0      #002=Z8ED$NEW_HEAP File=Z8ED.:Z8A6TSI                              SAT 08/09/97 11:46 Page:24
     0-0-0/w STRC(180)   r     1 HEAP_

  ****  Section 005 LblCom HEAP$

  ****  Scalars and arrays  ****
OctLoc.c.b A Datatyp(siz) R M Lvl/name                 OctLoc.c.b A Datatyp(siz) R M Lvl/name

     0-0-0/w PTR               1 HEAP$

  ****  BASED and DCB variables  ****

  ****  Scalars and arrays  ****
OctLoc.c.b A Datatyp(siz) R M Lvl/name                 OctLoc.c.b A Datatyp(siz) R M Lvl/name

     0-0-0/w CHAR(4096)        1 CHARS                      0-0-0/w STRC(72)          1 CONT
     0-0-0/w STRC(72)    r     1 HEAP_CELL                  0-0-0/w STRC(36864)       1 PAGE


   Procedure Z8ED$NEW_HEAP requires 109 words for executable code.
   Procedure Z8ED$NEW_HEAP is declared NOAUTO and requires 8 words of local(STATIC) storage.

PL6.E3A0      #003=Z8ED$DISPOSE_ABSSYN_TREE File=Z8ED.:Z8A6TSI                   SAT 08/09/97 11:47 Page:25
       95        1        /*T***********************************************************/
       96        2        /*T*                                                         */
       97        3        /*T* Copyright (c) Bull HN Information Systems Inc., 1997    */
       98        4        /*T*                                                         */
       99        5        /*T***********************************************************/
      100        6        Z8ED$DISPOSE_ABSSYN_TREE: PROC (TREE$);
      101        7
      102        8    1     DCL TREE$ PTR;
      103        9
      104       10          %EQU PHASE = 1;
      105       11          %INCLUDE Z8A_DEFC;
      106       79          %INCLUDE Z8A_SUPP_MAC;
      107     2479          %INCLUDE Z8E_HEAP;
      108     2535          %INCLUDE Z8E_STACKS;
      109     4801
      110     4802    1     DCL NEXT_NODE$ PTR;
      111     4803    1     DCL CURRENT_NODE$ PTR;
      112     4804
      113     4805    1     DCL I SBIN WORD;
      114     4806
      115     4807
      116     4808    1   NEXT_NODE$ = TREE$;
      117     4809
      118     4810    2   DO WHILE NEXT_NODE$ ~= ADDR(NIL);
      119     4811
      120     4812    2     CURRENT_NODE$ = NEXT_NODE$;
      121     4813
      122     4814    3     DO CASE (CURRENT_NODE$ -> LX_ITEM.ID);
      123     4815
      124     4816    3       CASE(%LX_TERMINAL, %LX_ETT_ITEM, %ILS_LIST);
      125     4817
      126     4818    3         NEXT_NODE$ = CURRENT_NODE$ -> LX_ITEM.LINK;
      127     4819    3         CALL Z8ED$DISPOSE_HEAP (CURRENT_NODE$,
      128     4820    3                                 %LENGTH_LX_ITEM);
      129     4821
      130     4822    3       CASE (%LX_LIST);
      131     4823
PL6.E3A0      #003=Z8ED$DISPOSE_ABSSYN_TREE File=Z8ED.:Z8A6TSI                   SAT 08/09/97 11:47 Page:26
      132     4824    3         CALL Z8ED$DISPOSE_ABSSYN_TREE (CURRENT_NODE$ -> LX_LIST.HEAD$);
      133     4825    3         NEXT_NODE$ = CURRENT_NODE$ -> LX_LIST.LINK;
      134     4826    3         CALL Z8ED$DISPOSE_HEAP (CURRENT_NODE$,
      135     4827    3                                 %LENGTH_LX_ITEM);
      136     4828
      137     4829
      138     4830    3       CASE (%LX_LARGE);
      139     4831
      140     4832    3         CALL Z8ED$DISPOSE_ABSSYN_TREE (CURRENT_NODE$ -> LX_LARGE.LARGE_ITEM$);
      141     4833    3         NEXT_NODE$ = CURRENT_NODE$ -> LX_LARGE.LINK;
      142     4834    3         CALL Z8ED$DISPOSE_HEAP (CURRENT_NODE$,
      143     4835    3                                 %LENGTH_LX_ITEM);
      144     4836
      145     4837    3       CASE (%LX_REC_DECL);
      146     4838
      147     4839    4         DO I = 0 TO %REC_DECL_MAX_FIELD;
      148     4840
      149     4841    4           IF CURRENT_NODE$ -> LX_REC_DECL.P_PTRS(I) ~= ADDR(NIL) THEN
      150     4842    4             CALL Z8ED$DISPOSE_ABSSYN_TREE (CURRENT_NODE$ -> LX_REC_DECL.P_PTRS(I));
      151     4843
      152     4844    4         END;
      153     4845    3         CALL Z8ED$DISPOSE_HEAP (CURRENT_NODE$,
      154     4846    3                                 LENGTHW(LX_REC_DECL));
      155     4847    3         NEXT_NODE$ = ADDR(NIL);
      156     4848
      157     4849    3       CASE (%BINARY_OP);
      158     4850
      159     4851    3         CALL Z8ED$DISPOSE_ABSSYN_TREE (CURRENT_NODE$ -> BINARY_OP.LOP$);
      160     4852    3         CALL Z8ED$DISPOSE_ABSSYN_TREE (CURRENT_NODE$ -> BINARY_OP.ROP$);
      161     4853    3         NEXT_NODE$ = CURRENT_NODE$ -> BINARY_OP.LINK;
      162     4854    3         CALL Z8ED$DISPOSE_HEAP (CURRENT_NODE$,
      163     4855    3                            %LENGTH_LX_ITEM);
      164     4856
      165     4857    3       CASE (%UNARY_OP);
      166     4858
      167     4859    3         CALL Z8ED$DISPOSE_ABSSYN_TREE (CURRENT_NODE$ -> UNARY_OP.LOP$);
      168     4860    3         NEXT_NODE$ = CURRENT_NODE$ -> UNARY_OP.LINK;
PL6.E3A0      #003=Z8ED$DISPOSE_ABSSYN_TREE File=Z8ED.:Z8A6TSI                   SAT 08/09/97 11:47 Page:27
      169     4861    3         CALL Z8ED$DISPOSE_HEAP (CURRENT_NODE$,
      170     4862    3                                 %LENGTH_LX_ITEM);
      171     4863
      172     4864
      173     4865    3       CASE (%DEFERED_QUAL_ID, %DEFERED_IDENTIFIER, %DEFERED_SUM_CLAUSE_LIST);
      174     4866
      175     4867    3         CALL Z8ED$DISPOSE_ABSSYN_TREE (CURRENT_NODE$ -> DEFERED_QUAL_ID.QUAL_ID_LIST$)
              4867                  ;
      176     4868    3         NEXT_NODE$ = CURRENT_NODE$ -> DEFERED_QUAL_ID.LINK;
      177     4869    3         CALL Z8ED$DISPOSE_HEAP (CURRENT_NODE$,
      178     4870    3                                 %LENGTH_LX_ITEM);
      179     4871
      180     4872
      181     4873    3     CASE (%LX_REPORT_REC);
      182     4874    4         DO I = 0 TO %REPORT_REC_MAX_FIELD;
      183     4875    4           IF CURRENT_NODE$ -> LX_REPORT_REC.P_PTRS(I) ~= ADDR(NIL) THEN
      184     4876    4             CALL Z8ED$DISPOSE_ABSSYN_TREE(CURRENT_NODE$ -> LX_REPORT_REC.P_PTRS(I));
      185     4877    4         END;
      186     4878    3         CALL Z8ED$DISPOSE_HEAP (CURRENT_NODE$,
      187     4879    3                                 LENGTHW(LX_REPORT_REC));
      188     4880    3         NEXT_NODE$ = ADDR(NIL);
      189     4881
      190     4882    3       CASE (%DEFERED_ID_TREE);
      191     4883    3         CALL Z8ED$DISPOSE_ABSSYN_TREE (CURRENT_NODE$ -> DEFERED_ID_TREE.QUAL_ID$);
      192     4884    3         CALL Z8ED$DISPOSE_ABSSYN_TREE (CURRENT_NODE$ -> DEFERED_ID_TREE.SUB$);
      193     4885    3         CALL Z8ED$DISPOSE_ABSSYN_TREE (CURRENT_NODE$ -> DEFERED_ID_TREE.REF$);
      194     4886    3         CALL Z8ED$DISPOSE_HEAP(CURRENT_NODE$,
      195     4887    3                                %LENGTH_LX_ITEM);
      196     4888    3         NEXT_NODE$ = ADDR(NIL);
      197     4889
      198     4890    3     CASE (%DEFERED_SUM_CLAUSE);
      199     4891    3         CALL Z8ED$DISPOSE_ABSSYN_TREE (CURRENT_NODE$ -> DEFERED_SUM_CLAUSE.DEFERED_ID$
              4891                  );
      200     4892    3         CALL Z8ED$DISPOSE_ABSSYN_TREE (CURRENT_NODE$ -> DEFERED_SUM_CLAUSE.SUM_UPON$);
      201     4893    3         CALL Z8ED$DISPOSE_ABSSYN_TREE (CURRENT_NODE$ -> DEFERED_SUM_CLAUSE.SUM_RESET$)
              4893                  ;
      202     4894    3         NEXT_NODE$ = CURRENT_NODE$ -> DEFERED_SUM_CLAUSE.LINK;
PL6.E3A0      #003=Z8ED$DISPOSE_ABSSYN_TREE File=Z8ED.:Z8A6TSI                   SAT 08/09/97 11:47 Page:28
      203     4895    3         CALL Z8ED$DISPOSE_HEAP (CURRENT_NODE$,
      204     4896    3                                 %LENGTH_LX_ITEM);
      205     4897
      206     4898
      207     4899    3       CASE (ELSE);
      208     4900
      209     4901    3         CALL Z8ED$DISPOSE_HEAP (CURRENT_NODE$,
      210     4902    3                                 %LENGTH_LX_ITEM);
      211     4903    3         NEXT_NODE$ = ADDR(NIL);
      212     4904
      213     4905    3     END;
      214     4906    2   END;
      215     4907
      216     4908    1   TREE$ = ADDR(NIL);
      217     4909
      218     4910    1   END Z8ED$DISPOSE_ABSSYN_TREE;

PL6.E3A0      #003=Z8ED$DISPOSE_ABSSYN_TREE File=Z8ED.:Z8A6TSI                   SAT 08/09/97 11:47 Page:29
--  Include file information  --

   Z8A_LEX_SYMB.:Z8A6TOU  cannot be made into a system file and is referenced.
   Z8E_STACKS.:Z8A6TOU  cannot be made into a system file and is referenced.
   Z8E_HEAP.:Z8A6TOU  cannot be made into a system file and is referenced.
   X8A_COM_MACS.:X8A6TOU  is referenced.
   Z8A_NAMES.:Z8A6TOU  is referenced.
   Z8A_SUPP_MAC.:Z8A6TOU  is referenced.
   Z8A_DEFC.:Z8A6TOU  cannot be made into a system file and is referenced.
      No diagnostics issued in procedure Z8ED$DISPOSE_ABSSYN_TREE.

   Procedure Z8ED$DISPOSE_ABSSYN_TREE requires 289 words for executable code.
   Procedure Z8ED$DISPOSE_ABSSYN_TREE requires 10 words of local(AUTO) storage.

    No errors detected in file Z8ED.:Z8A6TSI    .

PL6.E3A0      #003=Z8ED$DISPOSE_ABSSYN_TREE File=Z8ED.:Z8A6TSI                   SAT 08/09/97 11:47 Page:30

 Object Unit name= Z8ED$DISPOSE_ABSSYN_TREE                   File name= Z8ED.:Z8A6TOU
 UTS= AUG 09 '97 11:47:01.68 SAT                              Compiler= PL-6/E31         Sev=      00
 SharedLib= :SHARED_SYSTEM                                    Alt SharedLib=


    ****  Control sections  ****

 Sect   Type Bound  Init  Size OctSiz  Section name(segment info)
    0  LblCom even  none     1      1  ITERATION
    1  LblCom even  none     1      1  HEAP$
    2  LblCom even  none    90    132  LEX_SYMBOL
    3  LblCom even  none     1      1  CURRENT_LEX_SYMBOL$
    4  LblCom even  none    90    132  TEMP_LEX_SYMBOL
    5  LblCom even  none    90    132  TEMP_LEX_SYMBOL2
    6   Proc  even  none   289    441  Z8ED$DISPOSE_ABSSYN_TREE
    7  RoData even  none     9     11  Z8ED$DISPOSE_ABSSYN_TREE

    ****  Entry defs  ****

                              Check   Calling
                             calling  sequence
  Sect OctLoc Primary Altret sequence   type   Parms  Name
     6      0   yes            yes      Std        1  Z8ED$DISPOSE_ABSSYN_TREE

  ****  Entry refs  ****

         Check        Calling
        calling       sequence
Altret sequence SRef   type   Args  Name
         yes           Std       2 Z8ED$DISPOSE_HEAP
                       nStd      0 X66_AUTO_1
                       nStd      0 X66_ARET
PL6.E3A0      #003=Z8ED$DISPOSE_ABSSYN_TREE File=Z8ED.:Z8A6TSI                   SAT 08/09/97 11:47 Page:31

  ****  Segment refs  ****

  Flags:  r = read only, s = secondary
Flgs Name                             Flgs Name                             Flgs Name
     ISSID                                 NULLSID
PL6.E3A0      #003=Z8ED$DISPOSE_ABSSYN_TREE File=Z8ED.:Z8A6TSI                   SAT 08/09/97 11:47 Page:32


       95        1        /*T***********************************************************/
       96        2        /*T*                                                         */
       97        3        /*T* Copyright (c) Bull HN Information Systems Inc., 1997    */
       98        4        /*T*                                                         */
       99        5        /*T***********************************************************/
      100        6        Z8ED$DISPOSE_ABSSYN_TREE: PROC (TREE$);

      6  6 000000   000000 700200 xent  Z8ED$DISPOS* TSX0  ! X66_AUTO_1
         6 000001   000012 000001                    ZERO    10,1

      101        7
      102        8    1     DCL TREE$ PTR;
      103        9
      104       10          %EQU PHASE = 1;
      105       11          %INCLUDE Z8A_DEFC;
      106       79          %INCLUDE Z8A_SUPP_MAC;
      107     2479          %INCLUDE Z8E_HEAP;
      108     2535          %INCLUDE Z8E_STACKS;
      109     4801
      110     4802    1     DCL NEXT_NODE$ PTR;
      111     4803    1     DCL CURRENT_NODE$ PTR;
      112     4804
      113     4805    1     DCL I SBIN WORD;
      114     4806
      115     4807
      116     4808    1   NEXT_NODE$ = TREE$;

   4808  6 000002   200003 470500                    LDP0    @TREE$,,AUTO
         6 000003   000000 236100                    LDQ     0,,PR0
         6 000004   200004 756100                    STQ     NEXT_NODE$,,AUTO

      117     4809
      118     4810    2   DO WHILE NEXT_NODE$ ~= ADDR(NIL);

   4810  6 000005   000432 710000 6                  TRA     s:4906

PL6.E3A0      #003=Z8ED$DISPOSE_ABSSYN_TREE File=Z8ED.:Z8A6TSI                   SAT 08/09/97 11:47 Page:33
      119     4811
      120     4812    2     CURRENT_NODE$ = NEXT_NODE$;

   4812  6 000006   200004 236100                    LDQ     NEXT_NODE$,,AUTO
         6 000007   200005 756100                    STQ     CURRENT_NODE$,,AUTO

      121     4813
      122     4814    3     DO CASE (CURRENT_NODE$ -> LX_ITEM.ID);

   4814  6 000010   200005 470500                    LDP0    CURRENT_NODE$,,AUTO
         6 000011   000000 220100                    LDX0    0,,PR0
         6 000012   000034 100003                    CMPX0   28,DU
         6 000013   000015 602010 6                  TNC     s:4814+5,X0
         6 000014   000420 710000 6                  TRA     s:4901
         6 000015   000051 710000 6                  TRA     s:4818
         6 000016   000106 710000 6                  TRA     s:4832
         6 000017   000064 710000 6                  TRA     s:4824
         6 000020   000130 710000 6                  TRA     s:4839
         6 000021   000051 710000 6                  TRA     s:4818
         6 000022   000166 710000 6                  TRA     s:4851
         6 000023   000217 710000 6                  TRA     s:4859
         6 000024   000051 710000 6                  TRA     s:4818
         6 000025   000420 710000 6                  TRA     s:4901
         6 000026   000420 710000 6                  TRA     s:4901
         6 000027   000420 710000 6                  TRA     s:4901
         6 000030   000420 710000 6                  TRA     s:4901
         6 000031   000420 710000 6                  TRA     s:4901
         6 000032   000241 710000 6                  TRA     s:4867
         6 000033   000420 710000 6                  TRA     s:4901
         6 000034   000420 710000 6                  TRA     s:4901
         6 000035   000420 710000 6                  TRA     s:4901
         6 000036   000420 710000 6                  TRA     s:4901
         6 000037   000420 710000 6                  TRA     s:4901
         6 000040   000420 710000 6                  TRA     s:4901
         6 000041   000420 710000 6                  TRA     s:4901
         6 000042   000420 710000 6                  TRA     s:4901
         6 000043   000263 710000 6                  TRA     s:4874
PL6.E3A0      #003=Z8ED$DISPOSE_ABSSYN_TREE File=Z8ED.:Z8A6TSI                   SAT 08/09/97 11:47 Page:34
         6 000044   000420 710000 6                  TRA     s:4901
         6 000045   000241 710000 6                  TRA     s:4867
         6 000046   000241 710000 6                  TRA     s:4867
         6 000047   000360 710000 6                  TRA     s:4891
         6 000050   000321 710000 6                  TRA     s:4883

      123     4815
      124     4816    3       CASE(%LX_TERMINAL, %LX_ETT_ITEM, %ILS_LIST);

      125     4817
      126     4818    3         NEXT_NODE$ = CURRENT_NODE$ -> LX_ITEM.LINK;

   4818  6 000051   000007 236100                    LDQ     7,,PR0
         6 000052   200004 756100                    STQ     NEXT_NODE$,,AUTO

      127     4819    3         CALL Z8ED$DISPOSE_HEAP (CURRENT_NODE$,

   4819  6 000053   000002 236000 7                  LDQ     2
         6 000054   200011 756100                    STQ     I+3,,AUTO
         6 000055   200005 631500                    EPPR1   CURRENT_NODE$,,AUTO
         6 000056   200010 451500                    STP1    I+2,,AUTO
         6 000057   200010 630500                    EPPR0   I+2,,AUTO
         6 000060   000000 631400 7                  EPPR1   0
         6 000061   000000 701000 xent               TSX1    Z8ED$DISPOSE_HEAP
         6 000062   000000 011000                    NOP     0
         6 000063   000432 710000 6                  TRA     s:4906

      128     4820    3                                 %LENGTH_LX_ITEM);
      129     4821
      130     4822    3       CASE (%LX_LIST);

      131     4823
      132     4824    3         CALL Z8ED$DISPOSE_ABSSYN_TREE (CURRENT_NODE$ -> LX_LIST.HEAD$);

   4824  6 000064   000004 036003                    ADLQ    4,DU
         6 000065   200010 756100                    STQ     I+2,,AUTO
         6 000066   200010 630500                    EPPR0   I+2,,AUTO
PL6.E3A0      #003=Z8ED$DISPOSE_ABSSYN_TREE File=Z8ED.:Z8A6TSI                   SAT 08/09/97 11:47 Page:35
         6 000067   000003 631400 7                  EPPR1   3
         6 000070   000000 701000 6                  TSX1    s:6
         6 000071   000000 011000                    NOP     0

      133     4825    3         NEXT_NODE$ = CURRENT_NODE$ -> LX_LIST.LINK;

   4825  6 000072   200005 470500                    LDP0    CURRENT_NODE$,,AUTO
         6 000073   000007 236100                    LDQ     7,,PR0
         6 000074   200004 756100                    STQ     NEXT_NODE$,,AUTO

      134     4826    3         CALL Z8ED$DISPOSE_HEAP (CURRENT_NODE$,

   4826  6 000075   000002 236000 7                  LDQ     2
         6 000076   200011 756100                    STQ     I+3,,AUTO
         6 000077   200005 631500                    EPPR1   CURRENT_NODE$,,AUTO
         6 000100   200010 451500                    STP1    I+2,,AUTO
         6 000101   200010 630500                    EPPR0   I+2,,AUTO
         6 000102   000000 631400 7                  EPPR1   0
         6 000103   000000 701000 xent               TSX1    Z8ED$DISPOSE_HEAP
         6 000104   000000 011000                    NOP     0
         6 000105   000432 710000 6                  TRA     s:4906

      135     4827    3                                 %LENGTH_LX_ITEM);
      136     4828
      137     4829
      138     4830    3       CASE (%LX_LARGE);

      139     4831
      140     4832    3         CALL Z8ED$DISPOSE_ABSSYN_TREE (CURRENT_NODE$ -> LX_LARGE.LARGE_ITEM$);

   4832  6 000106   000001 036003                    ADLQ    1,DU
         6 000107   200010 756100                    STQ     I+2,,AUTO
         6 000110   200010 630500                    EPPR0   I+2,,AUTO
         6 000111   000003 631400 7                  EPPR1   3
         6 000112   000000 701000 6                  TSX1    s:6
         6 000113   000000 011000                    NOP     0

PL6.E3A0      #003=Z8ED$DISPOSE_ABSSYN_TREE File=Z8ED.:Z8A6TSI                   SAT 08/09/97 11:47 Page:36
      141     4833    3         NEXT_NODE$ = CURRENT_NODE$ -> LX_LARGE.LINK;

   4833  6 000114   200005 470500                    LDP0    CURRENT_NODE$,,AUTO
         6 000115   000007 236100                    LDQ     7,,PR0
         6 000116   200004 756100                    STQ     NEXT_NODE$,,AUTO

      142     4834    3         CALL Z8ED$DISPOSE_HEAP (CURRENT_NODE$,

   4834  6 000117   000002 236000 7                  LDQ     2
         6 000120   200011 756100                    STQ     I+3,,AUTO
         6 000121   200005 631500                    EPPR1   CURRENT_NODE$,,AUTO
         6 000122   200010 451500                    STP1    I+2,,AUTO
         6 000123   200010 630500                    EPPR0   I+2,,AUTO
         6 000124   000000 631400 7                  EPPR1   0
         6 000125   000000 701000 xent               TSX1    Z8ED$DISPOSE_HEAP
         6 000126   000000 011000                    NOP     0
         6 000127   000432 710000 6                  TRA     s:4906

      143     4835    3                                 %LENGTH_LX_ITEM);
      144     4836
      145     4837    3       CASE (%LX_REC_DECL);

      146     4838
      147     4839    4         DO I = 0 TO %REC_DECL_MAX_FIELD;

   4839  6 000130   200006 450100                    STZ     I,,AUTO

      148     4840
      149     4841    4           IF CURRENT_NODE$ -> LX_REC_DECL.P_PTRS(I) ~= ADDR(NIL) THEN

   4841  6 000131   200005 470500                    LDP0    CURRENT_NODE$,,AUTO
         6 000132   200006 720100                    LXL0    I,,AUTO
         6 000133   000001 236110                    LDQ     1,X0,PR0
         6 000134   000004 116000 7                  CMPQ    4
         6 000135   000147 600000 6                  TZE     s:4844

      150     4842    4             CALL Z8ED$DISPOSE_ABSSYN_TREE (CURRENT_NODE$ -> LX_REC_DECL.P_PTRS(I));
PL6.E3A0      #003=Z8ED$DISPOSE_ABSSYN_TREE File=Z8ED.:Z8A6TSI                   SAT 08/09/97 11:47 Page:37

   4842  6 000136   200006 236100                    LDQ     I,,AUTO
         6 000137   000022 736000                    QLS     18
         6 000140   000001 036003                    ADLQ    1,DU
         6 000141   200005 036100                    ADLQ    CURRENT_NODE$,,AUTO
         6 000142   200010 756100                    STQ     I+2,,AUTO
         6 000143   200010 630500                    EPPR0   I+2,,AUTO
         6 000144   000003 631400 7                  EPPR1   3
         6 000145   000000 701000 6                  TSX1    s:6
         6 000146   000000 011000                    NOP     0

      151     4843
      152     4844    4         END;

   4844  6 000147   200006 054100                    AOS     I,,AUTO
         6 000150   200006 235100                    LDA     I,,AUTO
         6 000151   000017 115007                    CMPA    15,DL
         6 000152   000131 604400 6                  TMOZ    s:4841

      153     4845    3         CALL Z8ED$DISPOSE_HEAP (CURRENT_NODE$,

   4845  6 000153   000006 236000 7                  LDQ     6
         6 000154   200011 756100                    STQ     I+3,,AUTO
         6 000155   200005 630500                    EPPR0   CURRENT_NODE$,,AUTO
         6 000156   200010 450500                    STP0    I+2,,AUTO
         6 000157   200010 630500                    EPPR0   I+2,,AUTO
         6 000160   000000 631400 7                  EPPR1   0
         6 000161   000000 701000 xent               TSX1    Z8ED$DISPOSE_HEAP
         6 000162   000000 011000                    NOP     0

      154     4846    3                                 LENGTHW(LX_REC_DECL));
      155     4847    3         NEXT_NODE$ = ADDR(NIL);

   4847  6 000163   000004 236000 7                  LDQ     4
         6 000164   200004 756100                    STQ     NEXT_NODE$,,AUTO
         6 000165   000432 710000 6                  TRA     s:4906

PL6.E3A0      #003=Z8ED$DISPOSE_ABSSYN_TREE File=Z8ED.:Z8A6TSI                   SAT 08/09/97 11:47 Page:38
      156     4848
      157     4849    3       CASE (%BINARY_OP);

      158     4850
      159     4851    3         CALL Z8ED$DISPOSE_ABSSYN_TREE (CURRENT_NODE$ -> BINARY_OP.LOP$);

   4851  6 000166   000001 036003                    ADLQ    1,DU
         6 000167   200010 756100                    STQ     I+2,,AUTO
         6 000170   200010 630500                    EPPR0   I+2,,AUTO
         6 000171   000003 631400 7                  EPPR1   3
         6 000172   000000 701000 6                  TSX1    s:6
         6 000173   000000 011000                    NOP     0

      160     4852    3         CALL Z8ED$DISPOSE_ABSSYN_TREE (CURRENT_NODE$ -> BINARY_OP.ROP$);

   4852  6 000174   200005 236100                    LDQ     CURRENT_NODE$,,AUTO
         6 000175   000002 036003                    ADLQ    2,DU
         6 000176   200010 756100                    STQ     I+2,,AUTO
         6 000177   200010 630500                    EPPR0   I+2,,AUTO
         6 000200   000003 631400 7                  EPPR1   3
         6 000201   000000 701000 6                  TSX1    s:6
         6 000202   000000 011000                    NOP     0

      161     4853    3         NEXT_NODE$ = CURRENT_NODE$ -> BINARY_OP.LINK;

   4853  6 000203   200005 470500                    LDP0    CURRENT_NODE$,,AUTO
         6 000204   000007 236100                    LDQ     7,,PR0
         6 000205   200004 756100                    STQ     NEXT_NODE$,,AUTO

      162     4854    3         CALL Z8ED$DISPOSE_HEAP (CURRENT_NODE$,

   4854  6 000206   000002 236000 7                  LDQ     2
         6 000207   200011 756100                    STQ     I+3,,AUTO
         6 000210   200005 631500                    EPPR1   CURRENT_NODE$,,AUTO
         6 000211   200010 451500                    STP1    I+2,,AUTO
         6 000212   200010 630500                    EPPR0   I+2,,AUTO
         6 000213   000000 631400 7                  EPPR1   0
PL6.E3A0      #003=Z8ED$DISPOSE_ABSSYN_TREE File=Z8ED.:Z8A6TSI                   SAT 08/09/97 11:47 Page:39
         6 000214   000000 701000 xent               TSX1    Z8ED$DISPOSE_HEAP
         6 000215   000000 011000                    NOP     0
         6 000216   000432 710000 6                  TRA     s:4906

      163     4855    3                            %LENGTH_LX_ITEM);
      164     4856
      165     4857    3       CASE (%UNARY_OP);

      166     4858
      167     4859    3         CALL Z8ED$DISPOSE_ABSSYN_TREE (CURRENT_NODE$ -> UNARY_OP.LOP$);

   4859  6 000217   000001 036003                    ADLQ    1,DU
         6 000220   200010 756100                    STQ     I+2,,AUTO
         6 000221   200010 630500                    EPPR0   I+2,,AUTO
         6 000222   000003 631400 7                  EPPR1   3
         6 000223   000000 701000 6                  TSX1    s:6
         6 000224   000000 011000                    NOP     0

      168     4860    3         NEXT_NODE$ = CURRENT_NODE$ -> UNARY_OP.LINK;

   4860  6 000225   200005 470500                    LDP0    CURRENT_NODE$,,AUTO
         6 000226   000007 236100                    LDQ     7,,PR0
         6 000227   200004 756100                    STQ     NEXT_NODE$,,AUTO

      169     4861    3         CALL Z8ED$DISPOSE_HEAP (CURRENT_NODE$,

   4861  6 000230   000002 236000 7                  LDQ     2
         6 000231   200011 756100                    STQ     I+3,,AUTO
         6 000232   200005 631500                    EPPR1   CURRENT_NODE$,,AUTO
         6 000233   200010 451500                    STP1    I+2,,AUTO
         6 000234   200010 630500                    EPPR0   I+2,,AUTO
         6 000235   000000 631400 7                  EPPR1   0
         6 000236   000000 701000 xent               TSX1    Z8ED$DISPOSE_HEAP
         6 000237   000000 011000                    NOP     0
         6 000240   000432 710000 6                  TRA     s:4906

      170     4862    3                                 %LENGTH_LX_ITEM);
PL6.E3A0      #003=Z8ED$DISPOSE_ABSSYN_TREE File=Z8ED.:Z8A6TSI                   SAT 08/09/97 11:47 Page:40
      171     4863
      172     4864
      173     4865    3       CASE (%DEFERED_QUAL_ID, %DEFERED_IDENTIFIER, %DEFERED_SUM_CLAUSE_LIST);

      174     4866
      175     4867    3        CALL Z8ED$DISPOSE_ABSSYN_TREE (CURRENT_NODE$ -> DEFERED_QUAL_ID.QUAL_ID_LIST$)
              4867                  ;

   4867  6 000241   000001 036003                    ADLQ    1,DU
         6 000242   200010 756100                    STQ     I+2,,AUTO
         6 000243   200010 630500                    EPPR0   I+2,,AUTO
         6 000244   000003 631400 7                  EPPR1   3
         6 000245   000000 701000 6                  TSX1    s:6
         6 000246   000000 011000                    NOP     0

      176     4868    3         NEXT_NODE$ = CURRENT_NODE$ -> DEFERED_QUAL_ID.LINK;

   4868  6 000247   200005 470500                    LDP0    CURRENT_NODE$,,AUTO
         6 000250   000007 236100                    LDQ     7,,PR0
         6 000251   200004 756100                    STQ     NEXT_NODE$,,AUTO

      177     4869    3         CALL Z8ED$DISPOSE_HEAP (CURRENT_NODE$,

   4869  6 000252   000002 236000 7                  LDQ     2
         6 000253   200011 756100                    STQ     I+3,,AUTO
         6 000254   200005 631500                    EPPR1   CURRENT_NODE$,,AUTO
         6 000255   200010 451500                    STP1    I+2,,AUTO
         6 000256   200010 630500                    EPPR0   I+2,,AUTO
         6 000257   000000 631400 7                  EPPR1   0
         6 000260   000000 701000 xent               TSX1    Z8ED$DISPOSE_HEAP
         6 000261   000000 011000                    NOP     0
         6 000262   000432 710000 6                  TRA     s:4906

      178     4870    3                                 %LENGTH_LX_ITEM);
      179     4871
      180     4872
      181     4873    3     CASE (%LX_REPORT_REC);
PL6.E3A0      #003=Z8ED$DISPOSE_ABSSYN_TREE File=Z8ED.:Z8A6TSI                   SAT 08/09/97 11:47 Page:41

      182     4874    4         DO I = 0 TO %REPORT_REC_MAX_FIELD;

   4874  6 000263   200006 450100                    STZ     I,,AUTO

      183     4875    4           IF CURRENT_NODE$ -> LX_REPORT_REC.P_PTRS(I) ~= ADDR(NIL) THEN

   4875  6 000264   200005 470500                    LDP0    CURRENT_NODE$,,AUTO
         6 000265   200006 720100                    LXL0    I,,AUTO
         6 000266   000004 236110                    LDQ     4,X0,PR0
         6 000267   000004 116000 7                  CMPQ    4
         6 000270   000302 600000 6                  TZE     s:4877

      184     4876    4             CALL Z8ED$DISPOSE_ABSSYN_TREE(CURRENT_NODE$ -> LX_REPORT_REC.P_PTRS(I));

   4876  6 000271   200006 236100                    LDQ     I,,AUTO
         6 000272   000022 736000                    QLS     18
         6 000273   000004 036003                    ADLQ    4,DU
         6 000274   200005 036100                    ADLQ    CURRENT_NODE$,,AUTO
         6 000275   200010 756100                    STQ     I+2,,AUTO
         6 000276   200010 630500                    EPPR0   I+2,,AUTO
         6 000277   000003 631400 7                  EPPR1   3
         6 000300   000000 701000 6                  TSX1    s:6
         6 000301   000000 011000                    NOP     0

      185     4877    4         END;

   4877  6 000302   200006 054100                    AOS     I,,AUTO
         6 000303   200006 235100                    LDA     I,,AUTO
         6 000304   000016 115007                    CMPA    14,DL
         6 000305   000264 604400 6                  TMOZ    s:4875

      186     4878    3         CALL Z8ED$DISPOSE_HEAP (CURRENT_NODE$,

   4878  6 000306   000010 236000 7                  LDQ     8
         6 000307   200011 756100                    STQ     I+3,,AUTO
         6 000310   200005 630500                    EPPR0   CURRENT_NODE$,,AUTO
PL6.E3A0      #003=Z8ED$DISPOSE_ABSSYN_TREE File=Z8ED.:Z8A6TSI                   SAT 08/09/97 11:47 Page:42
         6 000311   200010 450500                    STP0    I+2,,AUTO
         6 000312   200010 630500                    EPPR0   I+2,,AUTO
         6 000313   000000 631400 7                  EPPR1   0
         6 000314   000000 701000 xent               TSX1    Z8ED$DISPOSE_HEAP
         6 000315   000000 011000                    NOP     0

      187     4879    3                                 LENGTHW(LX_REPORT_REC));
      188     4880    3         NEXT_NODE$ = ADDR(NIL);

   4880  6 000316   000004 236000 7                  LDQ     4
         6 000317   200004 756100                    STQ     NEXT_NODE$,,AUTO
         6 000320   000432 710000 6                  TRA     s:4906

      189     4881
      190     4882    3       CASE (%DEFERED_ID_TREE);

      191     4883    3         CALL Z8ED$DISPOSE_ABSSYN_TREE (CURRENT_NODE$ -> DEFERED_ID_TREE.QUAL_ID$);

   4883  6 000321   000001 036003                    ADLQ    1,DU
         6 000322   200010 756100                    STQ     I+2,,AUTO
         6 000323   200010 630500                    EPPR0   I+2,,AUTO
         6 000324   000003 631400 7                  EPPR1   3
         6 000325   000000 701000 6                  TSX1    s:6
         6 000326   000000 011000                    NOP     0

      192     4884    3         CALL Z8ED$DISPOSE_ABSSYN_TREE (CURRENT_NODE$ -> DEFERED_ID_TREE.SUB$);

   4884  6 000327   200005 236100                    LDQ     CURRENT_NODE$,,AUTO
         6 000330   000002 036003                    ADLQ    2,DU
         6 000331   200010 756100                    STQ     I+2,,AUTO
         6 000332   200010 630500                    EPPR0   I+2,,AUTO
         6 000333   000003 631400 7                  EPPR1   3
         6 000334   000000 701000 6                  TSX1    s:6
         6 000335   000000 011000                    NOP     0

      193     4885    3         CALL Z8ED$DISPOSE_ABSSYN_TREE (CURRENT_NODE$ -> DEFERED_ID_TREE.REF$);

PL6.E3A0      #003=Z8ED$DISPOSE_ABSSYN_TREE File=Z8ED.:Z8A6TSI                   SAT 08/09/97 11:47 Page:43
   4885  6 000336   200005 236100                    LDQ     CURRENT_NODE$,,AUTO
         6 000337   000003 036003                    ADLQ    3,DU
         6 000340   200010 756100                    STQ     I+2,,AUTO
         6 000341   200010 630500                    EPPR0   I+2,,AUTO
         6 000342   000003 631400 7                  EPPR1   3
         6 000343   000000 701000 6                  TSX1    s:6
         6 000344   000000 011000                    NOP     0

      194     4886    3         CALL Z8ED$DISPOSE_HEAP(CURRENT_NODE$,

   4886  6 000345   000002 236000 7                  LDQ     2
         6 000346   200011 756100                    STQ     I+3,,AUTO
         6 000347   200005 630500                    EPPR0   CURRENT_NODE$,,AUTO
         6 000350   200010 450500                    STP0    I+2,,AUTO
         6 000351   200010 630500                    EPPR0   I+2,,AUTO
         6 000352   000000 631400 7                  EPPR1   0
         6 000353   000000 701000 xent               TSX1    Z8ED$DISPOSE_HEAP
         6 000354   000000 011000                    NOP     0

      195     4887    3                                %LENGTH_LX_ITEM);
      196     4888    3         NEXT_NODE$ = ADDR(NIL);

   4888  6 000355   000004 236000 7                  LDQ     4
         6 000356   200004 756100                    STQ     NEXT_NODE$,,AUTO
         6 000357   000432 710000 6                  TRA     s:4906

      197     4889
      198     4890    3     CASE (%DEFERED_SUM_CLAUSE);

      199     4891    3        CALL Z8ED$DISPOSE_ABSSYN_TREE (CURRENT_NODE$ -> DEFERED_SUM_CLAUSE.DEFERED_ID$
              4891                  );

   4891  6 000360   000001 036003                    ADLQ    1,DU
         6 000361   200010 756100                    STQ     I+2,,AUTO
         6 000362   200010 630500                    EPPR0   I+2,,AUTO
         6 000363   000003 631400 7                  EPPR1   3
         6 000364   000000 701000 6                  TSX1    s:6
PL6.E3A0      #003=Z8ED$DISPOSE_ABSSYN_TREE File=Z8ED.:Z8A6TSI                   SAT 08/09/97 11:47 Page:44
         6 000365   000000 011000                    NOP     0

      200     4892    3        CALL Z8ED$DISPOSE_ABSSYN_TREE (CURRENT_NODE$ -> DEFERED_SUM_CLAUSE.SUM_UPON$);

   4892  6 000366   200005 236100                    LDQ     CURRENT_NODE$,,AUTO
         6 000367   000003 036003                    ADLQ    3,DU
         6 000370   200010 756100                    STQ     I+2,,AUTO
         6 000371   200010 630500                    EPPR0   I+2,,AUTO
         6 000372   000003 631400 7                  EPPR1   3
         6 000373   000000 701000 6                  TSX1    s:6
         6 000374   000000 011000                    NOP     0

      201     4893    3        CALL Z8ED$DISPOSE_ABSSYN_TREE (CURRENT_NODE$ -> DEFERED_SUM_CLAUSE.SUM_RESET$)
              4893                  ;

   4893  6 000375   200005 236100                    LDQ     CURRENT_NODE$,,AUTO
         6 000376   000004 036003                    ADLQ    4,DU
         6 000377   200010 756100                    STQ     I+2,,AUTO
         6 000400   200010 630500                    EPPR0   I+2,,AUTO
         6 000401   000003 631400 7                  EPPR1   3
         6 000402   000000 701000 6                  TSX1    s:6
         6 000403   000000 011000                    NOP     0

      202     4894    3         NEXT_NODE$ = CURRENT_NODE$ -> DEFERED_SUM_CLAUSE.LINK;

   4894  6 000404   200005 470500                    LDP0    CURRENT_NODE$,,AUTO
         6 000405   000007 236100                    LDQ     7,,PR0
         6 000406   200004 756100                    STQ     NEXT_NODE$,,AUTO

      203     4895    3         CALL Z8ED$DISPOSE_HEAP (CURRENT_NODE$,

   4895  6 000407   000002 236000 7                  LDQ     2
         6 000410   200011 756100                    STQ     I+3,,AUTO
         6 000411   200005 631500                    EPPR1   CURRENT_NODE$,,AUTO
         6 000412   200010 451500                    STP1    I+2,,AUTO
         6 000413   200010 630500                    EPPR0   I+2,,AUTO
         6 000414   000000 631400 7                  EPPR1   0
PL6.E3A0      #003=Z8ED$DISPOSE_ABSSYN_TREE File=Z8ED.:Z8A6TSI                   SAT 08/09/97 11:47 Page:45
         6 000415   000000 701000 xent               TSX1    Z8ED$DISPOSE_HEAP
         6 000416   000000 011000                    NOP     0
         6 000417   000432 710000 6                  TRA     s:4906

      204     4896    3                                 %LENGTH_LX_ITEM);
      205     4897
      206     4898
      207     4899    3       CASE (ELSE);

      208     4900
      209     4901    3         CALL Z8ED$DISPOSE_HEAP (CURRENT_NODE$,

   4901  6 000420   000002 236000 7                  LDQ     2
         6 000421   200011 756100                    STQ     I+3,,AUTO
         6 000422   200005 631500                    EPPR1   CURRENT_NODE$,,AUTO
         6 000423   200010 451500                    STP1    I+2,,AUTO
         6 000424   200010 630500                    EPPR0   I+2,,AUTO
         6 000425   000000 631400 7                  EPPR1   0
         6 000426   000000 701000 xent               TSX1    Z8ED$DISPOSE_HEAP
         6 000427   000000 011000                    NOP     0

      210     4902    3                                 %LENGTH_LX_ITEM);
      211     4903    3         NEXT_NODE$ = ADDR(NIL);

   4903  6 000430   000004 236000 7                  LDQ     4
         6 000431   200004 756100                    STQ     NEXT_NODE$,,AUTO

      212     4904
      213     4905    3     END;

      214     4906    2   END;

   4906  6 000432   200004 236100                    LDQ     NEXT_NODE$,,AUTO
         6 000433   000004 116000 7                  CMPQ    4
         6 000434   000006 601000 6                  TNZ     s:4812

      215     4907
PL6.E3A0      #003=Z8ED$DISPOSE_ABSSYN_TREE File=Z8ED.:Z8A6TSI                   SAT 08/09/97 11:47 Page:46
      216     4908    1   TREE$ = ADDR(NIL);

   4908  6 000435   000004 236000 7                  LDQ     4
         6 000436   200003 470500                    LDP0    @TREE$,,AUTO
         6 000437   000000 756100                    STQ     0,,PR0

      217     4909
      218     4910    1   END Z8ED$DISPOSE_ABSSYN_TREE;

   4910  6 000440   000000 702200 xent               TSX2  ! X66_ARET

PL6.E3A0      #003=Z8ED$DISPOSE_ABSSYN_TREE File=Z8ED.:Z8A6TSI                   SAT 08/09/97 11:47 Page:47
--  Include file information  --

   Z8A_LEX_SYMB.:Z8A6TOU  cannot be made into a system file and is referenced.
   Z8E_STACKS.:Z8A6TOU  cannot be made into a system file and is referenced.
   Z8E_HEAP.:Z8A6TOU  cannot be made into a system file and is referenced.
   X8A_COM_MACS.:X8A6TOU  is referenced.
   Z8A_NAMES.:Z8A6TOU  is referenced.
   Z8A_SUPP_MAC.:Z8A6TOU  is referenced.
   Z8A_DEFC.:Z8A6TOU  cannot be made into a system file and is referenced.
      No diagnostics issued in procedure Z8ED$DISPOSE_ABSSYN_TREE.
PL6.E3A0      #003=Z8ED$DISPOSE_ABSSYN_TREE File=Z8ED.:Z8A6TSI                   SAT 08/09/97 11:47 Page:48

 **** Variables and constants ****

  ****  Section 000 LblCom ITERATION

  ****  Scalars and arrays  ****
OctLoc.c.b A Datatyp(siz) R M Lvl/name                 OctLoc.c.b A Datatyp(siz) R M Lvl/name

     0-0-0/w SBIN              1 ITERATION

  ****  Section 001 LblCom HEAP$

  ****  Scalars and arrays  ****
OctLoc.c.b A Datatyp(siz) R M Lvl/name                 OctLoc.c.b A Datatyp(siz) R M Lvl/name

     0-0-0/w PTR               1 HEAP$

  ****  Section 002 LblCom LEX_SYMBOL

  ****  Scalars and arrays  ****
OctLoc.c.b A Datatyp(siz) R M Lvl/name                 OctLoc.c.b A Datatyp(siz) R M Lvl/name

     0-0-0/w STRC(3240)  r     1 LEX_SYMBOL                 0-0-0/w STRC(3240)        1 LEX_SYMBOL_WORDS

  ****  Section 003 LblCom CURRENT_LEX_SYMBOL$

  ****  Scalars and arrays  ****
OctLoc.c.b A Datatyp(siz) R M Lvl/name                 OctLoc.c.b A Datatyp(siz) R M Lvl/name

     0-0-0/w PTR         r     1 CURRENT_LEX_SYMBOL$

  ****  Section 004 LblCom TEMP_LEX_SYMBOL

  ****  Scalars and arrays  ****
OctLoc.c.b A Datatyp(siz) R M Lvl/name                 OctLoc.c.b A Datatyp(siz) R M Lvl/name

     0-0-0/w STRC(3240)        1 TEMP_LEX_SYMBOL

PL6.E3A0      #003=Z8ED$DISPOSE_ABSSYN_TREE File=Z8ED.:Z8A6TSI                   SAT 08/09/97 11:47 Page:49
  ****  Section 005 LblCom TEMP_LEX_SYMBOL2

  ****  Scalars and arrays  ****
OctLoc.c.b A Datatyp(siz) R M Lvl/name                 OctLoc.c.b A Datatyp(siz) R M Lvl/name

     0-0-0/w STRC(3240)        1 TEMP_LEX_SYMBOL2

  ****  Auto variables  ****

  ****  Scalars and arrays  ****
OctLoc.c.b A Datatyp(siz) R M Lvl/name                 OctLoc.c.b A Datatyp(siz) R M Lvl/name

     3-0-0/w PTR         r     1 @TREE$                     5-0-0/w PTR         r     1 CURRENT_NODE$
     6-0-0/w SBIN        r     1 I                          4-0-0/w PTR         r     1 NEXT_NODE$
    *0-0-0/w PTR         r     1 TREE$

  ****  BASED and DCB variables  ****

  ****  Scalars and arrays  ****
OctLoc.c.b A Datatyp(siz) R M Lvl/name                 OctLoc.c.b A Datatyp(siz) R M Lvl/name

     0-0-0/w STRC(288)         1 ADD_STMT                   0-0-0/w ASTR(324)   r     1 BASED_LEX_SYMBOL
     0-0-0/w STRC(360)         1 BASED_LEX_SYMBOL_WORDS
     0-0-0/w STRC(288)   r     1 BINARY_OP                  0-0-0/w STRC(288)         1 CALL_STMT
     0-0-0/w CHAR(4096)        1 CHARS                      0-0-0/w STRC(288)         1 COMPUTE_STMT
     0-0-0/w STRC(72)          1 CONT                       0-0-0/w STRC(288)         1 DEFERED_IDENTIFIER
     0-0-0/w STRC(252)   r     1 DEFERED_ID_TREE            0-0-0/w STRC(288)   r     1 DEFERED_QUAL_ID
     0-0-0/w STRC(288)   r     1 DEFERED_SUM_CLAUSE
     0-0-0/w STRC(288)         1 DEFERED_SUM_CLAUSE_LIST
     0-0-0/w STRC(288)         1 DELETE_STMT                0-0-0/w STRC(288)         1 DIVIDE_STMT
     0-0-0/w STRC(288)         1 ILS_LIST                   0-0-0/w STRC(288)         1 INSPECT_1_STMT
     0-0-0/w STRC(288)         1 INSPECT_2_STMT             0-0-0/w STRC(288)         1 INSPECT_4_STMT
     0-0-0/w STRC(288)         1 LA_ITEM                    0-0-0/w STRC(504)         1 LX_CD_INPUT
     0-0-0/w STRC(324)         1 LX_CD_I_O                  0-0-0/w STRC(396)         1 LX_CD_OUTPUT
     0-0-0/w STRC(288)         1 LX_ETT_ITEM                0-0-0/w STRC(288)   r     1 LX_ITEM
     0-0-0/w STRC(288)   r     1 LX_LARGE                   0-0-0/w STRC(288)   r     1 LX_LIST
     0-0-0/w STRC(1224)  r     1 LX_REC_DECL                0-0-0/w STRC(864)   r     1 LX_REPORT_REC
PL6.E3A0      #003=Z8ED$DISPOSE_ABSSYN_TREE File=Z8ED.:Z8A6TSI                   SAT 08/09/97 11:47 Page:50
     0-0-0/w STRC(288)         1 LX_TERMINAL                0-0-0/w STRC(288)         1 MULTIPLY_STMT
     0-0-0/w STRC(36864)       1 PAGE                       0-0-0/w STRC(288)         1 READ_STMT
     0-0-0/w STRC(288)         1 REWRITE_STMT               0-0-0/w STRC(288)         1 START_STMT
     0-0-0/w STRC(252)         1 STRING_STMT                0-0-0/w STRC(288)         1 SUBTRACT_STMT
     0-0-0/w STRC(288)   r     1 UNARY_OP                   0-0-0/w STRC(288)         1 UNSTRING_STMT
     0-0-0/w STRC(288)         1 WRITE_STMT


   Procedure Z8ED$DISPOSE_ABSSYN_TREE requires 289 words for executable code.
   Procedure Z8ED$DISPOSE_ABSSYN_TREE requires 10 words of local(AUTO) storage.

    No errors detected in file Z8ED.:Z8A6TSI    .
