VERSION A06

PL6.E3A0      #001=Z8EG$ERROR_CORR_PROC_DIV File=Z8EG.:Z8A6TSI                   SAT 08/09/97 11:50 Page:1
        1        1        /*T***********************************************************/
        2        2        /*T*                                                         */
        3        3        /*T* Copyright (c) Bull HN Information Systems Inc., 1997    */
        4        4        /*T*                                                         */
        5        5        /*T***********************************************************/
        6        6        Z8EG$ERROR_CORR_PROC_DIV : PROC;
        7        7
        8        8        %EQU PHASE = 1;
        9        9        %INCLUDE Z8A_DEFC;
       10       77        %INCLUDE Z8A_SUPP_MAC;
       11     2477        %INCLUDE Z8A_ERR_NUMS;
       12     3241        %INCLUDE Z8A_COMCOM;
       13     3891        %INCLUDE Z8A_DNT;
       14     4112
       15     4113        %INCLUDE Z8E_PD_SUBS;
       16     4142        %INCLUDE Z8E_PDPDA_S;
       17     4835
       18     4836        %INCLUDE Z8E_STACKS;
       19     7102        %INCLUDE Z8E_O1COM;
       20     7863        %INCLUDE Z8A_P_STATE;
       21     7873
       22     7874    1   DCL Z8EL$LEX ENTRY;
       23     7875    1   DCL Z9AT$TERMINATOR ENTRY;
       24     7876
       25     7877
       26     7878
       27     7879
       28     7880        %EJECT;
PL6.E3A0      #001=Z8EG$ERROR_CORR_PROC_DIV File=Z8EG.:Z8A6TSI                   SAT 08/09/97 11:50 Page:2
       29     7881        /* The following macros and code may need to be customized
       30     7882           for a specific application.
       31     7883        */
       32     7884
       33     7885
       34     7886
       35     7887
       36     7888        %MACRO TERMINATE;
       37     7889          /* Insert code for abnormal termination of parser */
       38     7890          CALL Z9AT$TERMINATOR;
       39     7891        %MEND;
       40     7892
       41     7893
       42     7894        %EQU DI_CHAR_LEN_MAX = 100;   /* Maximum length of an error plug-in */
       43     7895
       44     7896
       45     7897        %MACRO ERRORPROC;
       46     7898        ERROR : PROC(ERROR_TYPE, PLUG1$, PLUG2$);
       47     7899
       48     7900        DCL ERROR_TYPE SBIN WORD;
       49     7901        DCL PLUG1$ PTR;  /* TO DNT */
       50     7902        DCL PLUG2$ PTR;  /* TO DNT */
       51     7903
       52     7904        DCL NEWPLUG1$ PTR;
       53     7905        DCL NEWPLUG2$ PTR;
       54     7906        DCL Z8AE$ERROR ENTRY(12);
       55     7907
       56     7908        DCL 1 PARSEDNT BASED ALIGNED,
       57     7909              2 TEXT,
       58     7910                3 LENGTH SBIN WORD,
       59     7911                3 NAME CHAR(PARSEDNT.TEXT.LENGTH);
       60     7912
       61     7913        /* ERROR LOCATION IS SET WITH THE RESET_ERROR_LOC MACRO BEFORE
       62     7914           THE ERROR PROCEDURE IS CALLED */
       63     7915
       64     7916        IF ADDR(PLUG1$) = ADDR(NIL) THEN
       65     7917          /* Only error type is specified */
PL6.E3A0      #001=Z8EG$ERROR_CORR_PROC_DIV File=Z8EG.:Z8A6TSI                   SAT 08/09/97 11:50 Page:3
       66     7918          CALL Z8AE$ERROR(ERROR_TYPE, O1COM.ERRLINE, O1COM.ERRCOL);
       67     7919        ELSE
       68     7920          IF ADDR(PLUG2$) = ADDR(NIL) THEN
       69     7921            /* Only 1 plug is specified */
       70     7922            DO;
       71     7923              %NEW_DNT(@POINTER = NEWPLUG1$,
       72     7924                          @SIZE = "PLUG1$ -> PARSEDNT.TEXT.LENGTH",
       73     7925                          @NAME = "PLUG1$ -> PARSEDNT.TEXT.NAME");
       74     7926              CALL Z8AE$ERROR(ERROR_TYPE, O1COM.ERRLINE, O1COM.ERRCOL, NEWPLUG1$);
       75     7927            END;
       76     7928          ELSE
       77     7929            /* 2 PLUGS WERE SPECIFIED */
       78     7930            DO;
       79     7931              %NEW_DNT(@POINTER = NEWPLUG1$,
       80     7932                            @SIZE = "PLUG1$ -> PARSEDNT.TEXT.LENGTH",
       81     7933                            @NAME = "PLUG1$ -> PARSEDNT.TEXT.NAME");
       82     7934              %NEW_DNT(@POINTER = NEWPLUG2$,
       83     7935                          @SIZE = "PLUG2$ -> PARSEDNT.TEXT.LENGTH",
       84     7936                          @NAME = "PLUG2$ -> PARSEDNT.TEXT.NAME");
       85     7937            CALL Z8AE$ERROR (ERROR_TYPE, O1COM.ERRLINE, O1COM.ERRCOL, NEWPLUG1$, NEWPLUG2$);
       86     7938            END;
       87     7939
       88     7940        END ERROR;
       89     7941        %MEND;
       90     7942
       91     7943
       92     7944
       93     7945
       94     7946
       95     7947
       96     7948        %MACRO RESET_ERROR_LOC;
       97     7949
       98     7950          /* RESET THE LINE & COLUMN TO THE POINT OF ERROR */
       99     7951          DO;
      100     7952             O1COM.ERRLINE = O1COM.LA_STK.LINE(O1COM.LA_GET);
      101     7953             O1COM.ERRCOL  = O1COM.LA_STK.COLUMN(O1COM.LA_GET);
      102     7954          END;
PL6.E3A0      #001=Z8EG$ERROR_CORR_PROC_DIV File=Z8EG.:Z8A6TSI                   SAT 08/09/97 11:50 Page:4
      103     7955        %MEND;
      104     7956
      105     7957
      106     7958
      107     7959
      108     7960
      109     7961
      110     7962
      111     7963        /* Set up the trial parse length to try a sample parse on
      112     7964           any proposed correction during error recovery.  The specified
      113     7965           number designates how many tokens to parse past the proposed
      114     7966           correction.  If the trial parse fails, the cost to insert these
      115     7967           symbols will be doubled.  This will encourage deletion of
      116     7968           symbols when multiple corrections need to be made in adjacent
      117     7969           contexts.  Setting trial  parse length to 0 will disable
      118     7970           the trial parse.
      119     7971        */
      120     7972        %EQU TRAIL_PARSE_LENGTH = 2;
      121     7973
      122     7974        %MACRO CALL_SCANNER;
      123     7975
      124     7976          /* Call the scanner to obtain the next token.  The token should be
      125     7977             placed in LA_STK(LA_PUT).
      126     7978          */
      127     7979          CALL Z8EL$LEX;
      128     7980
      129     7981        %MEND;
      130     7982
      131     7983
      132     7984        %INCLUDE Z8A_P_EC;
      133     9350
      134     9351    1   CALL LOCALLY_LEAST_COST_CORRECTION;
      135     9352
      136     9353    1   END Z8EG$ERROR_CORR_PROC_DIV;
      137     9354        %EOD;

PL6.E3A0      #001=Z8EG$ERROR_CORR_PROC_DIV File=Z8EG.:Z8A6TSI                   SAT 08/09/97 11:50 Page:5
--  Include file information  --

   Z8A_P_EC.:Z8A6TOU  cannot be made into a system file and is referenced.
   Z8A_P_STATE.:Z8A6TOU  cannot be made into a system file and is referenced.
   Z8E_O1COM.:Z8A6TOU  cannot be made into a system file and is referenced.
   Z8A_LEX_SYMB.:Z8A6TOU  cannot be made into a system file and is referenced.
   Z8E_STACKS.:Z8A6TOU  cannot be made into a system file and is referenced.
   Z8E_PDPDA_S.:Z8A6TOU  is referenced.
   Z8E_PD_SUBS.:Z8A6TOU  is referenced.
   Z8A_DNT.:Z8A6TOU  cannot be made into a system file and is referenced.
   Z8A_COMCOM.:Z8A6TOU  cannot be made into a system file and is referenced.
   Z8A_ERR_NUMS.:Z8A6TOU  is referenced.
   X8A_COM_MACS.:X8A6TOU  is referenced.
   Z8A_NAMES.:Z8A6TOU  is referenced.
   Z8A_SUPP_MAC.:Z8A6TOU  is referenced.
   Z8A_DEFC.:Z8A6TOU  cannot be made into a system file and is referenced.
      No diagnostics issued in procedure Z8EG$ERROR_CORR_PROC_DIV.

   Procedure Z8EG$ERROR_CORR_PROC_DIV requires 2264 words for executable code.
   Procedure Z8EG$ERROR_CORR_PROC_DIV requires 11526 words of local(AUTO) storage.

PL6.E3A0      #001=Z8EG$ERROR_CORR_PROC_DIV File=Z8EG.:Z8A6TSI                   SAT 08/09/97 11:50 Page:6

 Object Unit name= Z8EG$ERROR_CORR_PROC_DIV                   File name= Z8EG.:Z8A6TOU
 UTS= AUG 09 '97 11:50:16.44 SAT                              Compiler= PL-6/E31         Sev=      00
 SharedLib= :SHARED_SYSTEM                                    Alt SharedLib=


    ****  Control sections  ****

 Sect   Type Bound  Init  Size OctSiz  Section name(segment info)
    0  LblCom even  none     1      1  ITERATION
    1  LblCom even  none     1      1  DNT$
    2  LblCom even  none     5      5  DNT_
    3  LblCom even  none     1      1  DNT_BUCKET_NUMBER
    4  LblCom even  none     1      1  DNT_OF_1$
    5  LblCom even  none    90    132  LEX_SYMBOL
    6  LblCom even  none     1      1  CURRENT_LEX_SYMBOL$
    7  LblCom even  none    90    132  TEMP_LEX_SYMBOL
    8  LblCom even  none    90    132  TEMP_LEX_SYMBOL2
    9   Data  even  none     1      1  Z8EG$ERROR_CORR_PROC_DIV
   10  RoData even  UTS      1      1  Z8EG$ERROR_CORR_PROC_DIV
   11   Proc  even  none  2264   4330  Z8EG$ERROR_CORR_PROC_DIV
   12  RoData even  none    27     33  Z8EG$ERROR_CORR_PROC_DIV

    ****  Entry defs  ****

                              Check   Calling
                             calling  sequence
  Sect OctLoc Primary Altret sequence   type   Parms  Name
    11      0   yes            yes      Std        0  Z8EG$ERROR_CORR_PROC_DIV
PL6.E3A0      #001=Z8EG$ERROR_CORR_PROC_DIV File=Z8EG.:Z8A6TSI                   SAT 08/09/97 11:50 Page:7

  ****  Entry refs  ****

         Check        Calling
        calling       sequence
Altret sequence SRef   type   Args  Name
         yes           Std       0 Z8EL$LEX
         yes           Std      12 Z8AE$ERROR
         yes           Std       1 Z8AR$RESERVER
         yes           Std       0 Z9AT$TERMINATOR
                       nStd      0 X66_AUTO_0
                       nStd      0 X66_ARET

  ****  Data refs  ****

  Flags:  r = read only, s = secondary
Flgs Name                             Flgs Name                             Flgs Name
     COMCOM                                O1COM                                 HIER_STK_PTR
     HIER_STK                              PAGE_FORMAT                           REP_STK_PTR
     REP_STK                          r    PD_DEL_COST                      r    PD_LCS
r    PD_LCS_ELEM                      r    PD_LCP                           r    PD_LCP_UBOUND
r    PD_LCP_ELEM                      r    PD_ITEM                          r    PD_STATE_ITEM
r    PD_PATH                          r    PD_PATH_ELEM                     r    PD_TERM_STRING
r    PD_TSTRING_SPACE                 r    PD_PRODR                         r    PD_ACTION_COL
r    PD_ACTION_ROW                    r    PD_GOTO_COL                      r    PD_GOTO_ROW

  ****  Segment refs  ****

  Flags:  r = read only, s = secondary
Flgs Name                             Flgs Name                             Flgs Name
     NULLSID                               ISSID
PL6.E3A0      #001=Z8EG$ERROR_CORR_PROC_DIV File=Z8EG.:Z8A6TSI                   SAT 08/09/97 11:50 Page:8


        1        1        /*T***********************************************************/
        2        2        /*T*                                                         */
        3        3        /*T* Copyright (c) Bull HN Information Systems Inc., 1997    */
        4        4        /*T*                                                         */
        5        5        /*T***********************************************************/
        6        6        Z8EG$ERROR_CORR_PROC_DIV : PROC;

      6 11 000000   000000 700200 xent  Z8EG$ERROR_* TSX0  ! X66_AUTO_0
        11 000001   026406 000000                    ZERO    11526,0
        11 000002   004325 710000 11                 TRA     s:9351

        7        7
        8        8        %EQU PHASE = 1;
        9        9        %INCLUDE Z8A_DEFC;
       10       77        %INCLUDE Z8A_SUPP_MAC;
       11     2477        %INCLUDE Z8A_ERR_NUMS;
       12     3241        %INCLUDE Z8A_COMCOM;
       13     3891        %INCLUDE Z8A_DNT;
       14     4112
       15     4113        %INCLUDE Z8E_PD_SUBS;
       16     4142        %INCLUDE Z8E_PDPDA_S;
       17     4835
       18     4836        %INCLUDE Z8E_STACKS;
       19     7102        %INCLUDE Z8E_O1COM;
       20     7863        %INCLUDE Z8A_P_STATE;
       21     7873
       22     7874    1   DCL Z8EL$LEX ENTRY;
       23     7875    1   DCL Z9AT$TERMINATOR ENTRY;
       24     7876
       25     7877
       26     7878
       27     7879
       28     7880        %EJECT;
PL6.E3A0      #001=Z8EG$ERROR_CORR_PROC_DIV File=Z8EG.:Z8A6TSI                   SAT 08/09/97 11:50 Page:9
       29     7881        /* The following macros and code may need to be customized
       30     7882           for a specific application.
       31     7883        */
       32     7884
       33     7885
       34     7886
       35     7887
       36     7888        %MACRO TERMINATE;
       37     7889          /* Insert code for abnormal termination of parser */
       38     7890          CALL Z9AT$TERMINATOR;
       39     7891        %MEND;
       40     7892
       41     7893
       42     7894        %EQU DI_CHAR_LEN_MAX = 100;   /* Maximum length of an error plug-in */
       43     7895
       44     7896
       45     7897        %MACRO ERRORPROC;
       46     7898        ERROR : PROC(ERROR_TYPE, PLUG1$, PLUG2$);
       47     7899
       48     7900        DCL ERROR_TYPE SBIN WORD;
       49     7901        DCL PLUG1$ PTR;  /* TO DNT */
       50     7902        DCL PLUG2$ PTR;  /* TO DNT */
       51     7903
       52     7904        DCL NEWPLUG1$ PTR;
       53     7905        DCL NEWPLUG2$ PTR;
       54     7906        DCL Z8AE$ERROR ENTRY(12);
       55     7907
       56     7908        DCL 1 PARSEDNT BASED ALIGNED,
       57     7909              2 TEXT,
       58     7910                3 LENGTH SBIN WORD,
       59     7911                3 NAME CHAR(PARSEDNT.TEXT.LENGTH);
       60     7912
       61     7913        /* ERROR LOCATION IS SET WITH THE RESET_ERROR_LOC MACRO BEFORE
       62     7914           THE ERROR PROCEDURE IS CALLED */
       63     7915
       64     7916        IF ADDR(PLUG1$) = ADDR(NIL) THEN
       65     7917          /* Only error type is specified */
PL6.E3A0      #001=Z8EG$ERROR_CORR_PROC_DIV File=Z8EG.:Z8A6TSI                   SAT 08/09/97 11:50 Page:10
       66     7918          CALL Z8AE$ERROR(ERROR_TYPE, O1COM.ERRLINE, O1COM.ERRCOL);
       67     7919        ELSE
       68     7920          IF ADDR(PLUG2$) = ADDR(NIL) THEN
       69     7921            /* Only 1 plug is specified */
       70     7922            DO;
       71     7923              %NEW_DNT(@POINTER = NEWPLUG1$,
       72     7924                          @SIZE = "PLUG1$ -> PARSEDNT.TEXT.LENGTH",
       73     7925                          @NAME = "PLUG1$ -> PARSEDNT.TEXT.NAME");
       74     7926              CALL Z8AE$ERROR(ERROR_TYPE, O1COM.ERRLINE, O1COM.ERRCOL, NEWPLUG1$);
       75     7927            END;
       76     7928          ELSE
       77     7929            /* 2 PLUGS WERE SPECIFIED */
       78     7930            DO;
       79     7931              %NEW_DNT(@POINTER = NEWPLUG1$,
       80     7932                            @SIZE = "PLUG1$ -> PARSEDNT.TEXT.LENGTH",
       81     7933                            @NAME = "PLUG1$ -> PARSEDNT.TEXT.NAME");
       82     7934              %NEW_DNT(@POINTER = NEWPLUG2$,
       83     7935                          @SIZE = "PLUG2$ -> PARSEDNT.TEXT.LENGTH",
       84     7936                          @NAME = "PLUG2$ -> PARSEDNT.TEXT.NAME");
       85     7937           CALL Z8AE$ERROR (ERROR_TYPE, O1COM.ERRLINE, O1COM.ERRCOL, NEWPLUG1$, NEWPLUG2$);
       86     7938            END;
       87     7939
       88     7940        END ERROR;
       89     7941        %MEND;
       90     7942
       91     7943
       92     7944
       93     7945
       94     7946
       95     7947
       96     7948        %MACRO RESET_ERROR_LOC;
       97     7949
       98     7950          /* RESET THE LINE & COLUMN TO THE POINT OF ERROR */
       99     7951          DO;
      100     7952             O1COM.ERRLINE = O1COM.LA_STK.LINE(O1COM.LA_GET);
      101     7953             O1COM.ERRCOL  = O1COM.LA_STK.COLUMN(O1COM.LA_GET);
      102     7954          END;
PL6.E3A0      #001=Z8EG$ERROR_CORR_PROC_DIV File=Z8EG.:Z8A6TSI                   SAT 08/09/97 11:50 Page:11
      103     7955        %MEND;
      104     7956
      105     7957
      106     7958
      107     7959
      108     7960
      109     7961
      110     7962
      111     7963        /* Set up the trial parse length to try a sample parse on
      112     7964           any proposed correction during error recovery.  The specified
      113     7965           number designates how many tokens to parse past the proposed
      114     7966           correction.  If the trial parse fails, the cost to insert these
      115     7967           symbols will be doubled.  This will encourage deletion of
      116     7968           symbols when multiple corrections need to be made in adjacent
      117     7969           contexts.  Setting trial  parse length to 0 will disable
      118     7970           the trial parse.
      119     7971        */
      120     7972        %EQU TRAIL_PARSE_LENGTH = 2;
      121     7973
      122     7974        %MACRO CALL_SCANNER;
      123     7975
      124     7976          /* Call the scanner to obtain the next token.  The token should be
      125     7977             placed in LA_STK(LA_PUT).
      126     7978          */
      127     7979          CALL Z8EL$LEX;
      128     7980
      129     7981        %MEND;
      130     7982
      131     7983
      132     7984        %INCLUDE Z8A_P_EC;

   7990 11 000003   200004 741300       LOCALLY_LEA* STX1  ! PARSE_STACK_IDX_IN_CHARS+1,,AUTO
        11 000004   004102 710000 11                 TRA     s:9256

   8079 11 000005   226354 741300       ERROR        STX1  ! @PREVSTATE+1,,AUTO

   8092 11 000006   226356 236100                    LDQ     @PLUG1$,,AUTO
PL6.E3A0      #001=Z8EG$ERROR_CORR_PROC_DIV File=Z8EG.:Z8A6TSI                   SAT 08/09/97 11:50 Page:12
        11 000007   000000 116000 12                 CMPQ    0
        11 000010   000023 601000 11                 TNZ     s:8096

   8094 11 000011   000002 236000 12                 LDQ     2
        11 000012   226364 756100                    STQ     NEWPLUG2$+3,,AUTO
        11 000013   000003 236000 12                 LDQ     3
        11 000014   226355 235100                    LDA     @ERROR_TYPE,,AUTO
        11 000015   226362 757100                    STAQ    NEWPLUG2$+1,,AUTO
        11 000016   226362 630500                    EPPR0   NEWPLUG2$+1,,AUTO
        11 000017   000001 631400 12                 EPPR1   1
        11 000020   000000 701000 xent               TSX1    Z8AE$ERROR
        11 000021   000000 011000                    NOP     0
        11 000022   000321 710000 11                 TRA     s:8286

   8096 11 000023   226357 236100                    LDQ     @PLUG2$,,AUTO
        11 000024   000000 116000 12                 CMPQ    0
        11 000025   000130 601000 11                 TNZ     s:8169

   8104 11 000026   226356 470500                    LDP0    @PLUG1$,,AUTO
        11 000027   000000 471500                    LDP1    0,,PR0
        11 000030   100000 236100                    LDQ     0,,PR1
        11 000031   000025 036007                    ADLQ    21,DL
        11 000032   000004 506007                    DIV     4,DL
        11 000033   000000 756000 0                  STQ     ITERATION

   8105 11 000034   000002 036000 2                  ADLQ    DNT_+2
        11 000035   000050 604000 11                 TMI     s:8107
        11 000036   000003 116000 2                  CMPQ    DNT_+3
        11 000037   000050 602000 11                 TNC     s:8107

   8106 11 000040   000005 236000 12                 LDQ     5
        11 000041   226362 756100                    STQ     NEWPLUG2$+1,,AUTO
        11 000042   226362 631500                    EPPR1   NEWPLUG2$+1,,AUTO
        11 000043   226363 451500                    STP1    NEWPLUG2$+2,,AUTO
        11 000044   226363 630500                    EPPR0   NEWPLUG2$+2,,AUTO
        11 000045   000004 631400 12                 EPPR1   4
        11 000046   000000 701000 xent               TSX1    Z8AR$RESERVER
PL6.E3A0      #001=Z8EG$ERROR_CORR_PROC_DIV File=Z8EG.:Z8A6TSI                   SAT 08/09/97 11:50 Page:13
        11 000047   000000 011000                    NOP     0

   8107 11 000050   000002 236000 2                  LDQ     DNT_+2
        11 000051   000022 736000                    QLS     18
        11 000052   000001 036000 2                  ADLQ    DNT_+1
        11 000053   226360 756100                    STQ     NEWPLUG1$,,AUTO

   8108 11 000054   000002 236000 2                  LDQ     DNT_+2
        11 000055   000000 036000 0                  ADLQ    ITERATION
        11 000056   000002 756000 2                  STQ     DNT_+2

   8109 11 000057   001046 220003                    LDX0    550,DU
        11 000060   226360 470500                    LDP0    NEWPLUG1$,,AUTO
        11 000061   000000 740100                    STX0    0,,PR0

   8110 11 000062   000000 721000 0                  LXL1    ITERATION
        11 000063   226360 470500                    LDP0    NEWPLUG1$,,AUTO
        11 000064   000000 441100                    SXL1    0,,PR0

   8111 11 000065   226356 470500                    LDP0    @PLUG1$,,AUTO
        11 000066   000000 471500                    LDP1    0,,PR0
        11 000067   100000 721100                    LXL1    0,,PR1
        11 000070   226360 473500                    LDP3    NEWPLUG1$,,AUTO
        11 000071   300004 741100                    STX1    4,,PR3

   8114 11 000072   000000 236000 12                 LDQ     0
        11 000073   226360 471500                    LDP1    NEWPLUG1$,,AUTO
        11 000074   100001 756100                    STQ     1,,PR1

   8115 11 000075   226360 471500                    LDP1    NEWPLUG1$,,AUTO
        11 000076   100002 756100                    STQ     2,,PR1

   8116 11 000077   000000 221003                    LDX1    0,DU
        11 000100   226360 471500                    LDP1    NEWPLUG1$,,AUTO
        11 000101   100003 741100                    STX1    3,,PR1

   8117 11 000102   000000 222003                    LDX2    0,DU
PL6.E3A0      #001=Z8EG$ERROR_CORR_PROC_DIV File=Z8EG.:Z8A6TSI                   SAT 08/09/97 11:50 Page:14
        11 000103   226360 471500                    LDP1    NEWPLUG1$,,AUTO
        11 000104   100003 442100                    SXL2    3,,PR1

   8118 11 000105   226360 471500                    LDP1    NEWPLUG1$,,AUTO
        11 000106   100004 223100                    LDX3    4,,PR1
        11 000107   000000 473500                    LDP3    0,,PR0
        11 000110   300000 724100                    LXL4    0,,PR3
        11 000111   040140 100540                    MLR     fill='040'O
        11 000112   300001 000014                    ADSC9   1,,PR3                   cn=0,n=*X4
        11 000113   100004 400013                    ADSC9   4,,PR1                   cn=2,n=*X3

   8159 11 000114   226360 631500                    EPPR1   NEWPLUG1$,,AUTO
        11 000115   226365 451500                    STP1    NEWPLUG2$+4,,AUTO
        11 000116   000002 236000 12                 LDQ     2
        11 000117   226364 756100                    STQ     NEWPLUG2$+3,,AUTO
        11 000120   000003 236000 12                 LDQ     3
        11 000121   226355 235100                    LDA     @ERROR_TYPE,,AUTO
        11 000122   226362 757100                    STAQ    NEWPLUG2$+1,,AUTO
        11 000123   226362 630500                    EPPR0   NEWPLUG2$+1,,AUTO
        11 000124   000006 631400 12                 EPPR1   6
        11 000125   000000 701000 xent               TSX1    Z8AE$ERROR
        11 000126   000000 011000                    NOP     0

   8160 11 000127   000321 710000 11                 TRA     s:8286

   8169 11 000130   226356 470500                    LDP0    @PLUG1$,,AUTO
        11 000131   000000 471500                    LDP1    0,,PR0
        11 000132   100000 236100                    LDQ     0,,PR1
        11 000133   000025 036007                    ADLQ    21,DL
        11 000134   000004 506007                    DIV     4,DL
        11 000135   000000 756000 0                  STQ     ITERATION

   8170 11 000136   000002 036000 2                  ADLQ    DNT_+2
        11 000137   000152 604000 11                 TMI     s:8172
        11 000140   000003 116000 2                  CMPQ    DNT_+3
        11 000141   000152 602000 11                 TNC     s:8172

PL6.E3A0      #001=Z8EG$ERROR_CORR_PROC_DIV File=Z8EG.:Z8A6TSI                   SAT 08/09/97 11:50 Page:15
   8171 11 000142   000005 236000 12                 LDQ     5
        11 000143   226362 756100                    STQ     NEWPLUG2$+1,,AUTO
        11 000144   226362 631500                    EPPR1   NEWPLUG2$+1,,AUTO
        11 000145   226363 451500                    STP1    NEWPLUG2$+2,,AUTO
        11 000146   226363 630500                    EPPR0   NEWPLUG2$+2,,AUTO
        11 000147   000004 631400 12                 EPPR1   4
        11 000150   000000 701000 xent               TSX1    Z8AR$RESERVER
        11 000151   000000 011000                    NOP     0

   8172 11 000152   000002 236000 2                  LDQ     DNT_+2
        11 000153   000022 736000                    QLS     18
        11 000154   000001 036000 2                  ADLQ    DNT_+1
        11 000155   226360 756100                    STQ     NEWPLUG1$,,AUTO

   8173 11 000156   000002 236000 2                  LDQ     DNT_+2
        11 000157   000000 036000 0                  ADLQ    ITERATION
        11 000160   000002 756000 2                  STQ     DNT_+2

   8174 11 000161   001046 220003                    LDX0    550,DU
        11 000162   226360 470500                    LDP0    NEWPLUG1$,,AUTO
        11 000163   000000 740100                    STX0    0,,PR0

   8175 11 000164   000000 721000 0                  LXL1    ITERATION
        11 000165   226360 470500                    LDP0    NEWPLUG1$,,AUTO
        11 000166   000000 441100                    SXL1    0,,PR0

   8176 11 000167   226356 470500                    LDP0    @PLUG1$,,AUTO
        11 000170   000000 471500                    LDP1    0,,PR0
        11 000171   100000 721100                    LXL1    0,,PR1
        11 000172   226360 473500                    LDP3    NEWPLUG1$,,AUTO
        11 000173   300004 741100                    STX1    4,,PR3

   8179 11 000174   000000 236000 12                 LDQ     0
        11 000175   226360 471500                    LDP1    NEWPLUG1$,,AUTO
        11 000176   100001 756100                    STQ     1,,PR1

   8180 11 000177   226360 471500                    LDP1    NEWPLUG1$,,AUTO
PL6.E3A0      #001=Z8EG$ERROR_CORR_PROC_DIV File=Z8EG.:Z8A6TSI                   SAT 08/09/97 11:50 Page:16
        11 000200   100002 756100                    STQ     2,,PR1

   8181 11 000201   000000 221003                    LDX1    0,DU
        11 000202   226360 471500                    LDP1    NEWPLUG1$,,AUTO
        11 000203   100003 741100                    STX1    3,,PR1

   8182 11 000204   000000 222003                    LDX2    0,DU
        11 000205   226360 471500                    LDP1    NEWPLUG1$,,AUTO
        11 000206   100003 442100                    SXL2    3,,PR1

   8183 11 000207   226360 471500                    LDP1    NEWPLUG1$,,AUTO
        11 000210   100004 223100                    LDX3    4,,PR1
        11 000211   000000 473500                    LDP3    0,,PR0
        11 000212   300000 724100                    LXL4    0,,PR3
        11 000213   040140 100540                    MLR     fill='040'O
        11 000214   300001 000014                    ADSC9   1,,PR3                   cn=0,n=*X4
        11 000215   100004 400013                    ADSC9   4,,PR1                   cn=2,n=*X3

   8229 11 000216   226357 471500                    LDP1    @PLUG2$,,AUTO
        11 000217   100000 473500                    LDP3    0,,PR1
        11 000220   300000 236100                    LDQ     0,,PR3
        11 000221   000025 036007                    ADLQ    21,DL
        11 000222   000004 506007                    DIV     4,DL
        11 000223   000000 756000 0                  STQ     ITERATION

   8230 11 000224   000002 036000 2                  ADLQ    DNT_+2
        11 000225   000240 604000 11                 TMI     s:8232
        11 000226   000003 116000 2                  CMPQ    DNT_+3
        11 000227   000240 602000 11                 TNC     s:8232

   8231 11 000230   000005 236000 12                 LDQ     5
        11 000231   226362 756100                    STQ     NEWPLUG2$+1,,AUTO
        11 000232   226362 633500                    EPPR3   NEWPLUG2$+1,,AUTO
        11 000233   226363 453500                    STP3    NEWPLUG2$+2,,AUTO
        11 000234   226363 630500                    EPPR0   NEWPLUG2$+2,,AUTO
        11 000235   000004 631400 12                 EPPR1   4
        11 000236   000000 701000 xent               TSX1    Z8AR$RESERVER
PL6.E3A0      #001=Z8EG$ERROR_CORR_PROC_DIV File=Z8EG.:Z8A6TSI                   SAT 08/09/97 11:50 Page:17
        11 000237   000000 011000                    NOP     0

   8232 11 000240   000002 236000 2                  LDQ     DNT_+2
        11 000241   000022 736000                    QLS     18
        11 000242   000001 036000 2                  ADLQ    DNT_+1
        11 000243   226361 756100                    STQ     NEWPLUG2$,,AUTO

   8233 11 000244   000002 236000 2                  LDQ     DNT_+2
        11 000245   000000 036000 0                  ADLQ    ITERATION
        11 000246   000002 756000 2                  STQ     DNT_+2

   8234 11 000247   001046 220003                    LDX0    550,DU
        11 000250   226361 470500                    LDP0    NEWPLUG2$,,AUTO
        11 000251   000000 740100                    STX0    0,,PR0

   8235 11 000252   000000 721000 0                  LXL1    ITERATION
        11 000253   226361 470500                    LDP0    NEWPLUG2$,,AUTO
        11 000254   000000 441100                    SXL1    0,,PR0

   8236 11 000255   226357 470500                    LDP0    @PLUG2$,,AUTO
        11 000256   000000 471500                    LDP1    0,,PR0
        11 000257   100000 721100                    LXL1    0,,PR1
        11 000260   226361 473500                    LDP3    NEWPLUG2$,,AUTO
        11 000261   300004 741100                    STX1    4,,PR3

   8239 11 000262   000000 236000 12                 LDQ     0
        11 000263   226361 471500                    LDP1    NEWPLUG2$,,AUTO
        11 000264   100001 756100                    STQ     1,,PR1

   8240 11 000265   226361 471500                    LDP1    NEWPLUG2$,,AUTO
        11 000266   100002 756100                    STQ     2,,PR1

   8241 11 000267   000000 221003                    LDX1    0,DU
        11 000270   226361 471500                    LDP1    NEWPLUG2$,,AUTO
        11 000271   100003 741100                    STX1    3,,PR1

   8242 11 000272   000000 222003                    LDX2    0,DU
PL6.E3A0      #001=Z8EG$ERROR_CORR_PROC_DIV File=Z8EG.:Z8A6TSI                   SAT 08/09/97 11:50 Page:18
        11 000273   226361 471500                    LDP1    NEWPLUG2$,,AUTO
        11 000274   100003 442100                    SXL2    3,,PR1

   8243 11 000275   226361 471500                    LDP1    NEWPLUG2$,,AUTO
        11 000276   100004 223100                    LDX3    4,,PR1
        11 000277   000000 473500                    LDP3    0,,PR0
        11 000300   300000 724100                    LXL4    0,,PR3
        11 000301   040140 100540                    MLR     fill='040'O
        11 000302   300001 000014                    ADSC9   1,,PR3                   cn=0,n=*X4
        11 000303   100004 400013                    ADSC9   4,,PR1                   cn=2,n=*X3

   8284 11 000304   226361 631500                    EPPR1   NEWPLUG2$,,AUTO
        11 000305   226366 451500                    STP1    NEWPLUG2$+5,,AUTO
        11 000306   226360 633500                    EPPR3   NEWPLUG1$,,AUTO
        11 000307   226365 453500                    STP3    NEWPLUG2$+4,,AUTO
        11 000310   000002 236000 12                 LDQ     2
        11 000311   226364 756100                    STQ     NEWPLUG2$+3,,AUTO
        11 000312   000003 236000 12                 LDQ     3
        11 000313   226355 235100                    LDA     @ERROR_TYPE,,AUTO
        11 000314   226362 757100                    STAQ    NEWPLUG2$+1,,AUTO
        11 000315   226362 630500                    EPPR0   NEWPLUG2$+1,,AUTO
        11 000316   000007 631400 12                 EPPR1   7
        11 000317   000000 701000 xent               TSX1    Z8AE$ERROR
        11 000320   000000 011000                    NOP     0

   8286 11 000321   226354 221300                    LDX1  ! @PREVSTATE+1,,AUTO
        11 000322   000001 702211                    TSX2  ! 1,X1

   8291 11 000323   200172 741300       CREATE_LARG* STX1  ! ACCUM_INS_TO_SYM+2,,AUTO

   8303 11 000324   000133 235000 xsym               LDA     O1COM+91
        11 000325   200173 755100                    STA     OLA_GET,,AUTO

   8305 11 000326   000003 735000                    ALS     3
        11 000327   000246 235005 xsym               LDA     O1COM+166,AL
        11 000330   000002 735000                    ALS     2
        11 000331   000001 735000                    ALS     1
PL6.E3A0      #001=Z8EG$ERROR_CORR_PROC_DIV File=Z8EG.:Z8A6TSI                   SAT 08/09/97 11:50 Page:19
        11 000332   000246 236005 xsym               LDQ     O1COM+166,AL
        11 000333   000336 604000 11                 TMI     s:8307
        11 000334   000132 116000 xsym               CMPQ    O1COM+90
        11 000335   000352 600000 11                 TZE     s:8311

   8307 11 000336   000133 235000 xsym               LDA     O1COM+91
        11 000337   000003 735000                    ALS     3
        11 000340   000246 235005 xsym               LDA     O1COM+166,AL
        11 000341   000133 755000 xsym               STA     O1COM+91

   8309 11 000342   000003 735000                    ALS     3
        11 000343   000246 235005 xsym               LDA     O1COM+166,AL
        11 000344   000002 735000                    ALS     2
        11 000345   000001 735000                    ALS     1
        11 000346   000246 236005 xsym               LDQ     O1COM+166,AL
        11 000347   000336 604000 11                 TMI     s:8307
        11 000350   000132 116000 xsym               CMPQ    O1COM+90
        11 000351   000336 601000 11                 TNZ     s:8307

   8311 11 000352   000133 235000 xsym               LDA     O1COM+91
        11 000353   000003 735000                    ALS     3
        11 000354   000246 235005 xsym               LDA     O1COM+166,AL
        11 000355   200174 755100                    STA     OLINK,,AUTO

   8312 11 000356   200173 236100                    LDQ     OLA_GET,,AUTO
        11 000357   000005 736000                    QLS     5
        11 000360   000133 235000 xsym               LDA     O1COM+91
        11 000361   000005 735000                    ALS     5
        11 000362   000005 100406                    MLR     fill='000'O
        11 000363   000237 000040 xsym               ADSC9   O1COM+159,Q              cn=0,n=32
        11 000364   000237 000040 xsym               ADSC9   O1COM+159,A              cn=0,n=32

   8313 11 000365   000133 235000 xsym               LDA     O1COM+91
        11 000366   000003 735000                    ALS     3
        11 000367   200174 236100                    LDQ     OLINK,,AUTO
        11 000370   000246 756005 xsym               STQ     O1COM+166,AL

PL6.E3A0      #001=Z8EG$ERROR_CORR_PROC_DIV File=Z8EG.:Z8A6TSI                   SAT 08/09/97 11:50 Page:20
   8314 11 000371   000133 235000 xsym               LDA     O1COM+91
        11 000372   000003 735000                    ALS     3
        11 000373   000246 235005 xsym               LDA     O1COM+166,AL
        11 000374   200170 755100                    STA     ACCUM_INS_TO_SYM,,AUTO

   8315 11 000375   200077 755100                    STA     LR+2,,AUTO

   8316 11 000376   000002 235007                    LDA     2,DL
        11 000377   200166 755100                    STA     ACCUM_DEL_LEN,,AUTO

   8317 11 000400   000133 235000 xsym               LDA     O1COM+91
        11 000401   000003 735000                    ALS     3
        11 000402   000242 236005 xsym               LDQ     O1COM+162,AL
        11 000403   000021 402007                    MPY     17,DL
        11 000404   000000 116003                    CMPQ    0,DU
        11 000405   000407 605000 11                 TPL     s:8317+7
        11 000406   000044 036003                    ADLQ    36,DU
        11 000407   003100 061406                    CSR     bolr='003'O
        11 000410   000000 000021 xsym               BDSC    PD_DEL_COST,Q            by=0,bit=0,n=17
        11 000411   200167 000044                    BDSC    ACCUM_DEL_COST,,AUTO     by=0,bit=0,n=36

   8318 11 000412   200167 235100                    LDA     ACCUM_DEL_COST,,AUTO
        11 000413   200076 755100                    STA     LR+1,,AUTO

   8319 11 000414   200166 236100                    LDQ     ACCUM_DEL_LEN,,AUTO
        11 000415   200075 756100                    STQ     LR,,AUTO

   8320 11 000416   000002 235007                    LDA     2,DL
        11 000417   000131 755000 xsym               STA     O1COM+89

   8322 11 000420   400000 236003                    LDQ     -131072,DU
        11 000421   200165 756100                    STQ     LARGE_DELETION,,AUTO

   8325 11 000422   200172 221300                    LDX1  ! ACCUM_INS_TO_SYM+2,,AUTO
        11 000423   000001 702211                    TSX2  ! 1,X1

   8329 11 000424   226352 741300       ABORT_CORRE* STX1  ! PELEM+1,,AUTO
PL6.E3A0      #001=Z8EG$ERROR_CORR_PROC_DIV File=Z8EG.:Z8A6TSI                   SAT 08/09/97 11:50 Page:21

   8337 11 000425   000133 235000 xsym               LDA     O1COM+91
        11 000426   000003 735000                    ALS     3
        11 000427   000244 235005 xsym               LDA     O1COM+164,AL
        11 000430   000136 755000 xsym               STA     O1COM+94

   8338 11 000431   000133 236000 xsym               LDQ     O1COM+91
        11 000432   000003 736000                    QLS     3
        11 000433   000245 235006 xsym               LDA     O1COM+165,QL
        11 000434   000137 755000 xsym               STA     O1COM+95

   8341 11 000435   000000 236000 12                 LDQ     0
        11 000436   000000 235000 12                 LDA     0
        11 000437   226356 757100                    STAQ    @PLUG1$,,AUTO
        11 000440   000011 236000 12                 LDQ     9
        11 000441   226355 756100                    STQ     @ERROR_TYPE,,AUTO
        11 000442   000005 701000 11                 TSX1    ERROR
        11 000443   000000 011000                    NOP     0

   8344 11 000444   000012 631400 12                 EPPR1   10
        11 000445   000000 701000 xent               TSX1    Z9AT$TERMINATOR
        11 000446   000000 011000                    NOP     0

   8348 11 000447   226352 221300                    LDX1  ! PELEM+1,,AUTO
        11 000450   000001 702211                    TSX2  ! 1,X1

   8350 11 000451   204126 741300       CALC_CORREC* STX1  ! J+2,,AUTO

   8369 11 000452   000152 450000 xsym               STZ     O1COM+106

   8370 11 000453   000153 450000 xsym               STZ     O1COM+107

   8372 11 000454   204130 450100                    STZ     I,,AUTO
        11 000455   000554 710000 11                 TRA     s:8383+1

   8373 11 000456   204130 235100                    LDA     I,,AUTO
        11 000457   000001 735000                    ALS     1
PL6.E3A0      #001=Z8EG$ERROR_CORR_PROC_DIV File=Z8EG.:Z8A6TSI                   SAT 08/09/97 11:50 Page:22
        11 000460   204127 470500                    LDP0    @LRC,,AUTO
        11 000461   000100 100505                    MLR     fill='000'O
        11 000462   000005 000002                    ADSC9   5,A,PR0                  cn=0,n=2
        11 000463   226362 000004                    ADSC9   NEWPLUG2$+1,,AUTO        cn=0,n=4
        11 000464   226362 236100                    LDQ     NEWPLUG2$+1,,AUTO
        11 000465   000022 732000                    QRS     18
        11 000466   000037 402007                    MPY     31,DL
        11 000467   000000 116003                    CMPQ    0,DU
        11 000470   000472 605000 11                 TPL     s:8373+12
        11 000471   000044 036003                    ADLQ    36,DU
        11 000472   003100 061406                    CSR     bolr='003'O
        11 000473   000000 300012 xsym               BDSC    PD_LCS,Q                 by=1,bit=8,n=10
        11 000474   204131 000044                    BDSC    J,,AUTO                  by=0,bit=0,n=36
        11 000475   000510 710000 11                 TRA     s:8382+1

   8376 11 000476   000152 235000 xsym               LDA     O1COM+106
        11 000477   000144 115007                    CMPA    100,DL
        11 000500   000507 605000 11                 TPL     s:8382

   8378 11 000501   000001 735000                    ALS     1
        11 000502   204131 236100                    LDQ     J,,AUTO
        11 000503   000005 101406                    MRL     fill='000'O
        11 000504   000000 000001 xsym               ADSC9   PD_LCS_ELEM,Q            cn=0,n=1
        11 000505   000154 000002 xsym               ADSC9   O1COM+108,A              cn=0,n=2

   8379 11 000506   000152 054000 xsym               AOS     O1COM+106

   8382 11 000507   204131 054100                    AOS     J,,AUTO
        11 000510   204130 235100                    LDA     I,,AUTO
        11 000511   000001 735000                    ALS     1
        11 000512   204127 470500                    LDP0    @LRC,,AUTO
        11 000513   000100 100505                    MLR     fill='000'O
        11 000514   000005 000002                    ADSC9   5,A,PR0                  cn=0,n=2
        11 000515   226362 000004                    ADSC9   NEWPLUG2$+1,,AUTO        cn=0,n=4
        11 000516   226362 236100                    LDQ     NEWPLUG2$+1,,AUTO
        11 000517   000022 732000                    QRS     18
        11 000520   000037 402007                    MPY     31,DL
PL6.E3A0      #001=Z8EG$ERROR_CORR_PROC_DIV File=Z8EG.:Z8A6TSI                   SAT 08/09/97 11:50 Page:23
        11 000521   204130 235100                    LDA     I,,AUTO
        11 000522   000001 735000                    ALS     1
        11 000523   000100 100505                    MLR     fill='000'O
        11 000524   000005 000002                    ADSC9   5,A,PR0                  cn=0,n=2
        11 000525   226363 000004                    ADSC9   NEWPLUG2$+2,,AUTO        cn=0,n=4
        11 000526   226364 756100                    STQ     NEWPLUG2$+3,,AUTO
        11 000527   226363 236100                    LDQ     NEWPLUG2$+2,,AUTO
        11 000530   000022 732000                    QRS     18
        11 000531   000037 402007                    MPY     31,DL
        11 000532   000000 116003                    CMPQ    0,DU
        11 000533   000535 605000 11                 TPL     s:8382+22
        11 000534   000044 036003                    ADLQ    36,DU
        11 000535   003100 061406                    CSR     bolr='003'O
        11 000536   000000 600004 xsym               BDSC    PD_LCS,Q                 by=3,bit=0,n=4
        11 000537   226365 000044                    BDSC    NEWPLUG2$+4,,AUTO        by=0,bit=0,n=36
        11 000540   226364 235100                    LDA     NEWPLUG2$+3,,AUTO
        11 000541   000543 605000 11                 TPL     s:8382+28
        11 000542   000044 035003                    ADLA    36,DU
        11 000543   003100 061405                    CSR     bolr='003'O
        11 000544   000000 300012 xsym               BDSC    PD_LCS,A                 by=1,bit=8,n=10
        11 000545   226366 000044                    BDSC    NEWPLUG2$+5,,AUTO        by=0,bit=0,n=36
        11 000546   226366 236100                    LDQ     NEWPLUG2$+5,,AUTO
        11 000547   226365 036100                    ADLQ    NEWPLUG2$+4,,AUTO
        11 000550   000476 604000 11                 TMI     s:8376
        11 000551   204131 116100                    CMPQ    J,,AUTO
        11 000552   000476 605400 11                 TPNZ    s:8376

   8383 11 000553   204130 054100                    AOS     I,,AUTO
        11 000554   204127 470500                    LDP0    @LRC,,AUTO
        11 000555   204130 236100                    LDQ     I,,AUTO
        11 000556   000003 116100                    CMPQ    3,,PR0
        11 000557   000456 604000 11                 TMI     s:8373

   8386 11 000560   204126 221300                    LDX1  ! J+2,,AUTO
        11 000561   000001 702211                    TSX2  ! 1,X1

   8388 11 000562   200172 741300       GIVE_CORREC* STX1  ! ACCUM_INS_TO_SYM+2,,AUTO
PL6.E3A0      #001=Z8EG$ERROR_CORR_PROC_DIV File=Z8EG.:Z8A6TSI                   SAT 08/09/97 11:50 Page:24
        11 000563   001331 710000 11                 TRA     s:8585

   8417 11 000564   200322 741300       PACK_TERM    STX1  ! I+3,,AUTO

   8433 11 000565   200323 470500                    LDP0    @DI,,AUTO
        11 000566   000000 235100                    LDA     0,,PR0
        11 000567   000144 115007                    CMPA    100,DL
        11 000570   000577 605000 11                 TPL     s:8439
        11 000571   000000 115003                    CMPA    0,DU
        11 000572   000577 604400 11                 TMOZ    s:8439

   8435 11 000573   040105 100400                    MLR     fill='040'O
        11 000574   000013 000001 12                 ADSC9   11                       cn=0,n=1
        11 000575   000001 000001                    ADSC9   1,A,PR0                  cn=0,n=1

   8436 11 000576   000000 054100                    AOS     0,,PR0

   8439 11 000577   200325 471500                    LDP1    @PT_LEN,,AUTO
        11 000600   000144 236007                    LDQ     100,DL
        11 000601   000000 136100                    SBLQ    0,,PR0
        11 000602   100000 116100                    CMPQ    0,,PR1
        11 000603   000620 604000 11                 TMI     s:8445

   8441 11 000604   000000 235100                    LDA     0,,PR0
        11 000605   200326 473500                    LDP3    @PT_PTR,,AUTO
        11 000606   300000 474500                    LDP4    0,,PR3
        11 000607   100000 720100                    LXL0    0,,PR1
        11 000610   000000 621006                    EAX1    0,QL
        11 000611   040145 100540                    MLR     fill='040'O
        11 000612   400000 000010                    ADSC9   0,,PR4                   cn=0,n=*X0
        11 000613   000001 000011                    ADSC9   1,A,PR0                  cn=0,n=*X1

   8442 11 000614   000000 236100                    LDQ     0,,PR0
        11 000615   100000 036100                    ADLQ    0,,PR1
        11 000616   000000 756100                    STQ     0,,PR0

   8443 11 000617   000722 710000 11                 TRA     s:8468
PL6.E3A0      #001=Z8EG$ERROR_CORR_PROC_DIV File=Z8EG.:Z8A6TSI                   SAT 08/09/97 11:50 Page:25

   8445 11 000620   200324 473500                    LDP3    @DI_CHAR_OVERFLOW,,AUTO
        11 000621   300000 235100                    LDA     0,,PR3
        11 000622   000646 604400 11                 TMOZ    s:8452

   8447 11 000623   226362 755100                    STA     NEWPLUG2$+1,,AUTO
        11 000624   300000 235100                    LDA     0,,PR3
        11 000625   000014 675000 12                 ERA     12
        11 000626   000145 035007                    ADLA    101,DL
        11 000627   200326 474500                    LDP4    @PT_PTR,,AUTO
        11 000630   400000 475500                    LDP5    0,,PR4
        11 000631   100000 720100                    LXL0    0,,PR1
        11 000632   000000 621005                    EAX1    0,AL
        11 000633   226362 235100                    LDA     NEWPLUG2$+1,,AUTO
        11 000634   040145 100540                    MLR     fill='040'O
        11 000635   500000 000010                    ADSC9   0,,PR5                   cn=0,n=*X0
        11 000636   000001 000011                    ADSC9   1,A,PR0                  cn=0,n=*X1

   8448 11 000637   300000 236100                    LDQ     0,,PR3
        11 000640   100000 036100                    ADLQ    0,,PR1
        11 000641   000144 116007                    CMPQ    100,DL
        11 000642   000644 604400 11                 TMOZ    s:8448+5
        11 000643   000144 236007                    LDQ     100,DL
        11 000644   000000 756100                    STQ     0,,PR0

   8450 11 000645   000722 710000 11                 TRA     s:8468

   8452 11 000646   000000 235100                    LDA     0,,PR0
        11 000647   000712 604400 11                 TMOZ    s:8464

   8454 11 000650   000000 236100                    LDQ     0,,PR0
        11 000651   000060 116007                    CMPQ    48,DL
        11 000652   000654 604400 11                 TMOZ    s:8454+4
        11 000653   000060 236007                    LDQ     48,DL
        11 000654   300000 756100                    STQ     0,,PR3

   8456 11 000655   300000 235100                    LDA     0,,PR3
PL6.E3A0      #001=Z8EG$ERROR_CORR_PROC_DIV File=Z8EG.:Z8A6TSI                   SAT 08/09/97 11:50 Page:26
        11 000656   000014 675000 12                 ERA     12
        11 000657   000145 035007                    ADLA    101,DL
        11 000660   000000 620005                    EAX0    0,AL
        11 000661   040146 100400                    MLR     fill='040'O
        11 000662   000000 000004 10                 ADSC9   0                        cn=0,n=4
        11 000663   000001 000010                    ADSC9   1,Q,PR0                  cn=0,n=*X0

   8457 11 000664   000004 236007                    LDQ     4,DL
        11 000665   300000 056100                    ASQ     0,,PR3

   8458 11 000666   300000 235100                    LDA     0,,PR3
        11 000667   226362 755100                    STA     NEWPLUG2$+1,,AUTO
        11 000670   300000 235100                    LDA     0,,PR3
        11 000671   000014 675000 12                 ERA     12
        11 000672   000145 035007                    ADLA    101,DL
        11 000673   200326 474500                    LDP4    @PT_PTR,,AUTO
        11 000674   400000 475500                    LDP5    0,,PR4
        11 000675   100000 720100                    LXL0    0,,PR1
        11 000676   000000 621005                    EAX1    0,AL
        11 000677   226362 235100                    LDA     NEWPLUG2$+1,,AUTO
        11 000700   040145 100540                    MLR     fill='040'O
        11 000701   500000 000010                    ADSC9   0,,PR5                   cn=0,n=*X0
        11 000702   000001 000011                    ADSC9   1,A,PR0                  cn=0,n=*X1

   8459 11 000703   300000 236100                    LDQ     0,,PR3
        11 000704   100000 036100                    ADLQ    0,,PR1
        11 000705   000144 116007                    CMPQ    100,DL
        11 000706   000710 604400 11                 TMOZ    s:8459+5
        11 000707   000144 236007                    LDQ     100,DL
        11 000710   000000 756100                    STQ     0,,PR0

   8461 11 000711   000722 710000 11                 TRA     s:8468

   8464 11 000712   000144 235007                    LDA     100,DL
        11 000713   000000 755100                    STA     0,,PR0

   8465 11 000714   200326 474500                    LDP4    @PT_PTR,,AUTO
PL6.E3A0      #001=Z8EG$ERROR_CORR_PROC_DIV File=Z8EG.:Z8A6TSI                   SAT 08/09/97 11:50 Page:27
        11 000715   400000 475500                    LDP5    0,,PR4
        11 000716   100000 720100                    LXL0    0,,PR1
        11 000717   040100 100540                    MLR     fill='040'O
        11 000720   500000 000010                    ADSC9   0,,PR5                   cn=0,n=*X0
        11 000721   000001 000144                    ADSC9   1,,PR0                   cn=0,n=100

   8468 11 000722   200322 221300                    LDX1  ! I+3,,AUTO
        11 000723   000001 702211                    TSX2  ! 1,X1

   8473 11 000724   200316 741300       CREATE_DEL_* STX1  ! INS_BEF_DNT$+1,,AUTO
        11 000725   001040 710000 11                 TRA     s:8501

   8481 11 000726   200320 741300       PACK_DEL_TE* STX1  ! I+1,,AUTO

   8484 11 000727   000133 235000 xsym               LDA     O1COM+91
        11 000730   000003 735000                    ALS     3
        11 000731   000241 236005 xsym               LDQ     O1COM+161,AL
        11 000732   000000 116000 12                 CMPQ    0
        11 000733   001014 601000 11                 TNZ     s:8490

   8488 11 000734   000242 236005 xsym               LDQ     O1COM+162,AL
        11 000735   000021 402007                    MPY     17,DL
        11 000736   000000 116003                    CMPQ    0,DU
        11 000737   000741 605000 11                 TPL     s:8488+5
        11 000740   000044 036003                    ADLQ    36,DU
        11 000741   003100 061406                    CSR     bolr='003'O
        11 000742   000000 230005 xsym               BDSC    PD_TERM_STRING,Q         by=1,bit=3,n=5
        11 000743   226362 000044                    BDSC    NEWPLUG2$+1,,AUTO        by=0,bit=0,n=36
        11 000744   226362 236100                    LDQ     NEWPLUG2$+1,,AUTO
        11 000745   000133 235000 xsym               LDA     O1COM+91
        11 000746   000003 735000                    ALS     3
        11 000747   226363 756100                    STQ     NEWPLUG2$+2,,AUTO
        11 000750   000242 236005 xsym               LDQ     O1COM+162,AL
        11 000751   000021 402007                    MPY     17,DL
        11 000752   226365 756100                    STQ     NEWPLUG2$+4,,AUTO
        11 000753   000000 116003                    CMPQ    0,DU
        11 000754   000756 605000 11                 TPL     s:8488+18
PL6.E3A0      #001=Z8EG$ERROR_CORR_PROC_DIV File=Z8EG.:Z8A6TSI                   SAT 08/09/97 11:50 Page:28
        11 000755   000044 036003                    ADLQ    36,DU
        11 000756   003100 061406                    CSR     bolr='003'O
        11 000757   000000 000014 xsym               BDSC    PD_TERM_STRING,Q         by=0,bit=0,n=12
        11 000760   226364 000044                    BDSC    NEWPLUG2$+3,,AUTO        by=0,bit=0,n=36
        11 000761   226364 236100                    LDQ     NEWPLUG2$+3,,AUTO
        11 000762   226365 235100                    LDA     NEWPLUG2$+4,,AUTO
        11 000763   000765 605000 11                 TPL     s:8488+25
        11 000764   000044 035003                    ADLA    36,DU
        11 000765   003100 061405                    CSR     bolr='003'O
        11 000766   000000 000014 xsym               BDSC    PD_TERM_STRING,A         by=0,bit=0,n=12
        11 000767   226366 000022                    BDSC    NEWPLUG2$+5,,AUTO        by=0,bit=0,n=18
        11 000770   006060 220003                    LDX0    3120,DU
        11 000771   226366 120100                    SBLX0   NEWPLUG2$+5,,AUTO
        11 000772   226367 756100                    STQ     NEWPLUG2$+6,,AUTO
        11 000773   226363 236100                    LDQ     NEWPLUG2$+2,,AUTO
        11 000774   226372 756100                    STQ     NEWPLUG2$+9,,AUTO
        11 000775   226367 236100                    LDQ     NEWPLUG2$+6,,AUTO
        11 000776   000020 736000                    QLS     16
        11 000777   000015 036000 12                 ADLQ    13
        11 001000   226374 756100                    STQ     NEWPLUG2$+11,,AUTO
        11 001001   226374 630500                    EPPR0   NEWPLUG2$+11,,AUTO
        11 001002   200326 450500                    STP0    @PT_PTR,,AUTO
        11 001003   226372 631500                    EPPR1   NEWPLUG2$+9,,AUTO
        11 001004   200325 451500                    STP1    @PT_LEN,,AUTO
        11 001005   200173 633500                    EPPR3   DEL_CHAR_OVERFLOW,,AUTO
        11 001006   200324 453500                    STP3    @DI_CHAR_OVERFLOW,,AUTO
        11 001007   200174 634500                    EPPR4   DEL,,AUTO
        11 001010   200323 454500                    STP4    @DI,,AUTO
        11 001011   000564 701000 11                 TSX1    PACK_TERM
        11 001012   000000 011000                    NOP     0
        11 001013   001036 710000 11                 TRA     s:8496

   8490 11 001014   000241 470405 xsym               LDP0    O1COM+161,AL
        11 001015   000004 236100                    LDQ     4,,PR0
        11 001016   000022 772000                    QRL     18
        11 001017   226376 756100                    STQ     NEWPLUG2$+13,,AUTO
        11 001020   226362 450500                    STP0    NEWPLUG2$+1,,AUTO
PL6.E3A0      #001=Z8EG$ERROR_CORR_PROC_DIV File=Z8EG.:Z8A6TSI                   SAT 08/09/97 11:50 Page:29
        11 001021   226362 236100                    LDQ     NEWPLUG2$+1,,AUTO
        11 001022   000016 036000 12                 ADLQ    14
        11 001023   226400 756100                    STQ     NEWPLUG2$+15,,AUTO
        11 001024   226400 631500                    EPPR1   NEWPLUG2$+15,,AUTO
        11 001025   200326 451500                    STP1    @PT_PTR,,AUTO
        11 001026   226376 633500                    EPPR3   NEWPLUG2$+13,,AUTO
        11 001027   200325 453500                    STP3    @PT_LEN,,AUTO
        11 001030   200173 634500                    EPPR4   DEL_CHAR_OVERFLOW,,AUTO
        11 001031   200324 454500                    STP4    @DI_CHAR_OVERFLOW,,AUTO
        11 001032   200174 635500                    EPPR5   DEL,,AUTO
        11 001033   200323 455500                    STP5    @DI,,AUTO
        11 001034   000564 701000 11                 TSX1    PACK_TERM
        11 001035   000000 011000                    NOP     0

   8496 11 001036   200320 221300                    LDX1  ! I+1,,AUTO
        11 001037   000001 702211                    TSX2  ! 1,X1

   8501 11 001040   000000 236000 12                 LDQ     0
        11 001041   200313 756100                    STQ     DEL_DNT$,,AUTO

   8502 11 001042   200174 450100                    STZ     DEL,,AUTO

   8503 11 001043   200173 450100                    STZ     DEL_CHAR_OVERFLOW,,AUTO

   8505 11 001044   200005 235100                    LDA     LC,,AUTO
        11 001045   001117 604400 11                 TMOZ    s:8532

   8507 11 001046   200165 234100                    SZN     LARGE_DELETION,,AUTO
        11 001047   001077 605000 11                 TPL     s:8519

   8509 11 001050   000726 701000 11                 TSX1    PACK_DEL_TERM
        11 001051   000000 011000                    NOP     0

   8510 11 001052   000020 236000 12                 LDQ     16
        11 001053   226401 756100                    STQ     NEWPLUG2$+16,,AUTO
        11 001054   226401 630500                    EPPR0   NEWPLUG2$+16,,AUTO
        11 001055   200326 450500                    STP0    @PT_PTR,,AUTO
PL6.E3A0      #001=Z8EG$ERROR_CORR_PROC_DIV File=Z8EG.:Z8A6TSI                   SAT 08/09/97 11:50 Page:30
        11 001056   000021 236000 12                 LDQ     17
        11 001057   200325 756100                    STQ     @PT_LEN,,AUTO
        11 001060   200173 631500                    EPPR1   DEL_CHAR_OVERFLOW,,AUTO
        11 001061   200324 451500                    STP1    @DI_CHAR_OVERFLOW,,AUTO
        11 001062   200174 633500                    EPPR3   DEL,,AUTO
        11 001063   200323 453500                    STP3    @DI,,AUTO
        11 001064   000564 701000 11                 TSX1    PACK_TERM
        11 001065   000000 011000                    NOP     0

   8514 11 001066   200174 235100                    LDA     DEL,,AUTO
        11 001067   200173 755100                    STA     DEL_CHAR_OVERFLOW,,AUTO

   8515 11 001070   000133 236000 xsym               LDQ     O1COM+91
        11 001071   000003 736000                    QLS     3
        11 001072   000246 235006 xsym               LDA     O1COM+166,QL
        11 001073   000133 755000 xsym               STA     O1COM+91

   8516 11 001074   000001 336007                    LCQ     1,DL
        11 001075   000131 056000 xsym               ASQ     O1COM+89

   8517 11 001076   200005 056100                    ASQ     LC,,AUTO

   8519 11 001077   200005 235100                    LDA     LC,,AUTO
        11 001100   001113 604400 11                 TMOZ    s:8526

   8520 11 001101   000726 701000 11                 TSX1    PACK_DEL_TERM
        11 001102   000000 011000                    NOP     0

   8521 11 001103   000133 235000 xsym               LDA     O1COM+91
        11 001104   000003 735000                    ALS     3
        11 001105   000246 235005 xsym               LDA     O1COM+166,AL
        11 001106   000133 755000 xsym               STA     O1COM+91

   8522 11 001107   000001 336007                    LCQ     1,DL
        11 001110   000131 056000 xsym               ASQ     O1COM+89

   8523 11 001111   200005 056100                    ASQ     LC,,AUTO
PL6.E3A0      #001=Z8EG$ERROR_CORR_PROC_DIV File=Z8EG.:Z8A6TSI                   SAT 08/09/97 11:50 Page:31

   8524 11 001112   001101 605400 11                 TPNZ    s:8520

   8526 11 001113   200174 235100                    LDA     DEL,,AUTO
        11 001114   001117 604400 11                 TMOZ    s:8532

   8528 11 001115   200174 630500                    EPPR0   DEL,,AUTO
        11 001116   200313 450500                    STP0    DEL_DNT$,,AUTO

   8532 11 001117   200316 221300                    LDX1  ! INS_BEF_DNT$+1,,AUTO
        11 001120   000001 702211                    TSX2  ! 1,X1

   8536 11 001121   200316 741300       CREATE_INS_* STX1  ! INS_BEF_DNT$+1,,AUTO

   8543 11 001122   000000 236000 12                 LDQ     0
        11 001123   200314 756100                    STQ     INS_DNT$,,AUTO

   8544 11 001124   200315 756100                    STQ     INS_BEF_DNT$,,AUTO

   8545 11 001125   200227 450100                    STZ     INS,,AUTO

   8546 11 001126   200226 450100                    STZ     INS_CHAR_OVERFLOW,,AUTO

   8548 11 001127   000152 235000 xsym               LDA     O1COM+106
        11 001130   001327 604400 11                 TMOZ    s:8577

   8550 11 001131   200317 450100                    STZ     I,,AUTO
        11 001132   001225 710000 11                 TRA     s:8555+1

   8551 11 001133   200317 235100                    LDA     I,,AUTO
        11 001134   000001 735000                    ALS     1
        11 001135   000100 100405                    MLR     fill='000'O
        11 001136   000154 000002 xsym               ADSC9   O1COM+108,A              cn=0,n=2
        11 001137   226362 000004                    ADSC9   NEWPLUG2$+1,,AUTO        cn=0,n=4
        11 001140   226362 236100                    LDQ     NEWPLUG2$+1,,AUTO
        11 001141   000022 732000                    QRS     18
        11 001142   000021 402007                    MPY     17,DL
PL6.E3A0      #001=Z8EG$ERROR_CORR_PROC_DIV File=Z8EG.:Z8A6TSI                   SAT 08/09/97 11:50 Page:32
        11 001143   000000 116003                    CMPQ    0,DU
        11 001144   001146 605000 11                 TPL     s:8551+11
        11 001145   000044 036003                    ADLQ    36,DU
        11 001146   003100 061406                    CSR     bolr='003'O
        11 001147   000000 230005 xsym               BDSC    PD_TERM_STRING,Q         by=1,bit=3,n=5
        11 001150   226363 000044                    BDSC    NEWPLUG2$+2,,AUTO        by=0,bit=0,n=36
        11 001151   226363 236100                    LDQ     NEWPLUG2$+2,,AUTO
        11 001152   200317 235100                    LDA     I,,AUTO
        11 001153   000001 735000                    ALS     1
        11 001154   000100 100405                    MLR     fill='000'O
        11 001155   000154 000002 xsym               ADSC9   O1COM+108,A              cn=0,n=2
        11 001156   226364 000004                    ADSC9   NEWPLUG2$+3,,AUTO        cn=0,n=4
        11 001157   226365 756100                    STQ     NEWPLUG2$+4,,AUTO
        11 001160   226364 236100                    LDQ     NEWPLUG2$+3,,AUTO
        11 001161   000022 732000                    QRS     18
        11 001162   000021 402007                    MPY     17,DL
        11 001163   226367 756100                    STQ     NEWPLUG2$+6,,AUTO
        11 001164   000000 116003                    CMPQ    0,DU
        11 001165   001167 605000 11                 TPL     s:8551+28
        11 001166   000044 036003                    ADLQ    36,DU
        11 001167   003100 061406                    CSR     bolr='003'O
        11 001170   000000 000014 xsym               BDSC    PD_TERM_STRING,Q         by=0,bit=0,n=12
        11 001171   226366 000044                    BDSC    NEWPLUG2$+5,,AUTO        by=0,bit=0,n=36
        11 001172   226366 236100                    LDQ     NEWPLUG2$+5,,AUTO
        11 001173   226367 235100                    LDA     NEWPLUG2$+6,,AUTO
        11 001174   001176 605000 11                 TPL     s:8551+35
        11 001175   000044 035003                    ADLA    36,DU
        11 001176   003100 061405                    CSR     bolr='003'O
        11 001177   000000 000014 xsym               BDSC    PD_TERM_STRING,A         by=0,bit=0,n=12
        11 001200   226370 000022                    BDSC    NEWPLUG2$+7,,AUTO        by=0,bit=0,n=18
        11 001201   006060 220003                    LDX0    3120,DU
        11 001202   226370 120100                    SBLX0   NEWPLUG2$+7,,AUTO
        11 001203   226371 756100                    STQ     NEWPLUG2$+8,,AUTO
        11 001204   226365 236100                    LDQ     NEWPLUG2$+4,,AUTO
        11 001205   226402 756100                    STQ     NEWPLUG2$+17,,AUTO
        11 001206   226371 236100                    LDQ     NEWPLUG2$+8,,AUTO
        11 001207   000020 736000                    QLS     16
PL6.E3A0      #001=Z8EG$ERROR_CORR_PROC_DIV File=Z8EG.:Z8A6TSI                   SAT 08/09/97 11:50 Page:33
        11 001210   000015 036000 12                 ADLQ    13
        11 001211   226404 756100                    STQ     NEWPLUG2$+19,,AUTO
        11 001212   226404 630500                    EPPR0   NEWPLUG2$+19,,AUTO
        11 001213   200326 450500                    STP0    @PT_PTR,,AUTO
        11 001214   226402 631500                    EPPR1   NEWPLUG2$+17,,AUTO
        11 001215   200325 451500                    STP1    @PT_LEN,,AUTO
        11 001216   200226 633500                    EPPR3   INS_CHAR_OVERFLOW,,AUTO
        11 001217   200324 453500                    STP3    @DI_CHAR_OVERFLOW,,AUTO
        11 001220   200227 634500                    EPPR4   INS,,AUTO
        11 001221   200323 454500                    STP4    @DI,,AUTO
        11 001222   000564 701000 11                 TSX1    PACK_TERM
        11 001223   000000 011000                    NOP     0

   8555 11 001224   200317 054100                    AOS     I,,AUTO
        11 001225   200317 236100                    LDQ     I,,AUTO
        11 001226   000152 116000 xsym               CMPQ    O1COM+106
        11 001227   001133 604000 11                 TMI     s:8551

   8557 11 001230   200227 235100                    LDA     INS,,AUTO
        11 001231   001234 604400 11                 TMOZ    s:8561

   8559 11 001232   200227 630500                    EPPR0   INS,,AUTO
        11 001233   200314 450500                    STP0    INS_DNT$,,AUTO

   8561 11 001234   000133 235000 xsym               LDA     O1COM+91
        11 001235   000003 735000                    ALS     3
        11 001236   000241 236005 xsym               LDQ     O1COM+161,AL
        11 001237   000000 116000 12                 CMPQ    0
        11 001240   001311 601000 11                 TNZ     s:8569

   8563 11 001241   000242 236005 xsym               LDQ     O1COM+162,AL
        11 001242   000021 402007                    MPY     17,DL
        11 001243   000000 116003                    CMPQ    0,DU
        11 001244   001246 605000 11                 TPL     s:8563+5
        11 001245   000044 036003                    ADLQ    36,DU
        11 001246   003100 061406                    CSR     bolr='003'O
        11 001247   000000 230005 xsym               BDSC    PD_TERM_STRING,Q         by=1,bit=3,n=5
PL6.E3A0      #001=Z8EG$ERROR_CORR_PROC_DIV File=Z8EG.:Z8A6TSI                   SAT 08/09/97 11:50 Page:34
        11 001250   226362 000044                    BDSC    NEWPLUG2$+1,,AUTO        by=0,bit=0,n=36
        11 001251   226362 236100                    LDQ     NEWPLUG2$+1,,AUTO
        11 001252   000144 116007                    CMPQ    100,DL
        11 001253   001256 602000 11                 TNC     s:8563+13
        11 001254   001256 600000 11                 TZE     s:8563+13
        11 001255   000144 236007                    LDQ     100,DL
        11 001256   200261 756100                    STQ     BEF,,AUTO

   8564 11 001257   000133 235000 xsym               LDA     O1COM+91
        11 001260   000003 735000                    ALS     3
        11 001261   000242 236005 xsym               LDQ     O1COM+162,AL
        11 001262   000021 402007                    MPY     17,DL
        11 001263   226363 756100                    STQ     NEWPLUG2$+2,,AUTO
        11 001264   000000 116003                    CMPQ    0,DU
        11 001265   001267 605000 11                 TPL     s:8564+8
        11 001266   000044 036003                    ADLQ    36,DU
        11 001267   003100 061406                    CSR     bolr='003'O
        11 001270   000000 000014 xsym               BDSC    PD_TERM_STRING,Q         by=0,bit=0,n=12
        11 001271   226362 000044                    BDSC    NEWPLUG2$+1,,AUTO        by=0,bit=0,n=36
        11 001272   226362 236100                    LDQ     NEWPLUG2$+1,,AUTO
        11 001273   226363 235100                    LDA     NEWPLUG2$+2,,AUTO
        11 001274   001276 605000 11                 TPL     s:8564+15
        11 001275   000044 035003                    ADLA    36,DU
        11 001276   003100 061405                    CSR     bolr='003'O
        11 001277   000000 000014 xsym               BDSC    PD_TERM_STRING,A         by=0,bit=0,n=12
        11 001300   226364 000022                    BDSC    NEWPLUG2$+3,,AUTO        by=0,bit=0,n=18
        11 001301   006060 220003                    LDX0    3120,DU
        11 001302   226364 120100                    SBLX0   NEWPLUG2$+3,,AUTO
        11 001303   040100 100446                    MLR     fill='040'O
        11 001304   000000 000010 xsym               ADSC9   PD_TSTRING_SPACE,Q       cn=0,n=*X0
        11 001305   200262 000144                    ADSC9   BEF+1,,AUTO              cn=0,n=100

   8565 11 001306   200261 630500                    EPPR0   BEF,,AUTO
        11 001307   200315 450500                    STP0    INS_BEF_DNT$,,AUTO

   8566 11 001310   001327 710000 11                 TRA     s:8577

PL6.E3A0      #001=Z8EG$ERROR_CORR_PROC_DIV File=Z8EG.:Z8A6TSI                   SAT 08/09/97 11:50 Page:35
   8569 11 001311   000241 470405 xsym               LDP0    O1COM+161,AL
        11 001312   000004 236100                    LDQ     4,,PR0
        11 001313   000022 772000                    QRL     18
        11 001314   000144 116007                    CMPQ    100,DL
        11 001315   001320 602000 11                 TNC     s:8569+7
        11 001316   001320 600000 11                 TZE     s:8569+7
        11 001317   000144 236007                    LDQ     100,DL
        11 001320   200261 756100                    STQ     BEF,,AUTO

   8571 11 001321   000004 220100                    LDX0    4,,PR0
        11 001322   040100 100540                    MLR     fill='040'O
        11 001323   000004 400010                    ADSC9   4,,PR0                   cn=2,n=*X0
        11 001324   200262 000144                    ADSC9   BEF+1,,AUTO              cn=0,n=100

   8572 11 001325   200261 631500                    EPPR1   BEF,,AUTO
        11 001326   200315 451500                    STP1    INS_BEF_DNT$,,AUTO

   8577 11 001327   200316 221300                    LDX1  ! INS_BEF_DNT$+1,,AUTO
        11 001330   000001 702211                    TSX2  ! 1,X1

   8585 11 001331   000133 235000 xsym               LDA     O1COM+91
        11 001332   000003 735000                    ALS     3
        11 001333   000244 235005 xsym               LDA     O1COM+164,AL
        11 001334   000136 755000 xsym               STA     O1COM+94

   8586 11 001335   000133 236000 xsym               LDQ     O1COM+91
        11 001336   000003 736000                    QLS     3
        11 001337   000245 235006 xsym               LDA     O1COM+165,QL
        11 001340   000137 755000 xsym               STA     O1COM+95

   8590 11 001341   200005 630500                    EPPR0   LC,,AUTO
        11 001342   204127 450500                    STP0    @LRC,,AUTO
        11 001343   000451 701000 11                 TSX1    CALC_CORRECTION
        11 001344   000000 011000                    NOP     0

   8591 11 001345   000724 701000 11                 TSX1    CREATE_DEL_DNT
        11 001346   000000 011000                    NOP     0
PL6.E3A0      #001=Z8EG$ERROR_CORR_PROC_DIV File=Z8EG.:Z8A6TSI                   SAT 08/09/97 11:50 Page:36

   8592 11 001347   001121 701000 11                 TSX1    CREATE_INS_DNT
        11 001350   000000 011000                    NOP     0

   8594 11 001351   200313 236100                    LDQ     DEL_DNT$,,AUTO
        11 001352   000000 116000 12                 CMPQ    0
        11 001353   001365 601000 11                 TNZ     s:8597

   8595 11 001354   200315 630500                    EPPR0   INS_BEF_DNT$,,AUTO
        11 001355   226357 450500                    STP0    @PLUG2$,,AUTO
        11 001356   200314 631500                    EPPR1   INS_DNT$,,AUTO
        11 001357   226356 451500                    STP1    @PLUG1$,,AUTO
        11 001360   000023 236000 12                 LDQ     19
        11 001361   226355 756100                    STQ     @ERROR_TYPE,,AUTO
        11 001362   000005 701000 11                 TSX1    ERROR
        11 001363   000000 011000                    NOP     0
        11 001364   001411 710000 11                 TRA     s:8602

   8597 11 001365   200314 236100                    LDQ     INS_DNT$,,AUTO
        11 001366   000000 116000 12                 CMPQ    0
        11 001367   001401 601000 11                 TNZ     s:8600

   8598 11 001370   000000 236000 12                 LDQ     0
        11 001371   226357 756100                    STQ     @PLUG2$,,AUTO
        11 001372   200313 630500                    EPPR0   DEL_DNT$,,AUTO
        11 001373   226356 450500                    STP0    @PLUG1$,,AUTO
        11 001374   000025 236000 12                 LDQ     21
        11 001375   226355 756100                    STQ     @ERROR_TYPE,,AUTO
        11 001376   000005 701000 11                 TSX1    ERROR
        11 001377   000000 011000                    NOP     0
        11 001400   001411 710000 11                 TRA     s:8602

   8600 11 001401   200314 630500                    EPPR0   INS_DNT$,,AUTO
        11 001402   226357 450500                    STP0    @PLUG2$,,AUTO
        11 001403   200313 631500                    EPPR1   DEL_DNT$,,AUTO
        11 001404   226356 451500                    STP1    @PLUG1$,,AUTO
        11 001405   000027 236000 12                 LDQ     23
PL6.E3A0      #001=Z8EG$ERROR_CORR_PROC_DIV File=Z8EG.:Z8A6TSI                   SAT 08/09/97 11:50 Page:37
        11 001406   226355 756100                    STQ     @ERROR_TYPE,,AUTO
        11 001407   000005 701000 11                 TSX1    ERROR
        11 001410   000000 011000                    NOP     0

   8602 11 001411   000152 235000 xsym               LDA     O1COM+106
        11 001412   001424 604400 11                 TMOZ    s:8611

   8604 11 001413   000133 236000 xsym               LDQ     O1COM+91
        11 001414   000140 756000 xsym               STQ     O1COM+96

   8605 11 001415   000132 235000 xsym               LDA     O1COM+90
        11 001416   000141 755000 xsym               STA     O1COM+97

   8606 11 001417   000131 235000 xsym               LDA     O1COM+89
        11 001420   000142 755000 xsym               STA     O1COM+98

   8607 11 001421   000131 450000 xsym               STZ     O1COM+89

   8608 11 001422   000132 235000 xsym               LDA     O1COM+90
        11 001423   000133 755000 xsym               STA     O1COM+91

   8611 11 001424   200172 221300                    LDX1  ! ACCUM_INS_TO_SYM+2,,AUTO
        11 001425   000001 702211                    TSX2  ! 1,X1

   8614 11 001426   200172 741300       CHECK_CONTE* STX1  ! ACCUM_INS_TO_SYM+2,,AUTO
        11 001427   001756 710000 11                 TRA     s:8808

   8644 11 001430   204122 741300       GET_CONTEXT  STX1  ! NT+2,,AUTO

   8646 11 001431   001447 710000 11                 TRA     s:8657

   8651 11 001432   000012 631400 12                 EPPR1   10
        11 001433   000000 701000 xent               TSX1    Z8EL$LEX
        11 001434   000000 011000                    NOP     0

   8653 11 001435   000132 235000 xsym               LDA     O1COM+90
        11 001436   000003 735000                    ALS     3
PL6.E3A0      #001=Z8EG$ERROR_CORR_PROC_DIV File=Z8EG.:Z8A6TSI                   SAT 08/09/97 11:50 Page:38
        11 001437   000246 235005 xsym               LDA     O1COM+166,AL
        11 001440   000132 755000 xsym               STA     O1COM+90

   8654 11 001441   000131 236000 xsym               LDQ     O1COM+89
        11 001442   000106 116007                    CMPQ    70,DL
        11 001443   001446 604400 11                 TMOZ    s:8656

   8655 11 001444   000424 701000 11                 TSX1    ABORT_CORRECTION
        11 001445   000000 011000                    NOP     0

   8656 11 001446   000131 054000 xsym               AOS     O1COM+89

   8657 11 001447   000131 236000 xsym               LDQ     O1COM+89
        11 001450   000002 136007                    SBLQ    2,DL
        11 001451   200075 116100                    CMPQ    LR,,AUTO
        11 001452   001432 604000 11                 TMI     s:8651

   8659 11 001453   204122 221300                    LDX1  ! NT+2,,AUTO
        11 001454   000001 702211                    TSX2  ! 1,X1

   8662 11 001455   204122 741300       SAVE_STATE   STX1  ! NT+2,,AUTO

   8664 11 001456   017504 220003                    LDX0    8004,DU
        11 001457   000140 100440                    MLR     fill='000'O
        11 001460   001364 000010 xsym               ADSC9   O1COM+756                cn=0,n=*X0
        11 001461   200173 000010                    ADSC9   PS,,AUTO                 cn=0,n=*X0

   8665 11 001462   000135 235000 xsym               LDA     O1COM+93
        11 001463   204114 755100                    STA     PS_IDX,,AUTO

   8666 11 001464   000130 236000 xsym               LDQ     O1COM+88
        11 001465   204115 756100                    STQ     PSTATE,,AUTO

   8667 11 001466   000133 235000 xsym               LDA     O1COM+91
        11 001467   000140 755000 xsym               STA     O1COM+96

   8668 11 001470   000132 235000 xsym               LDA     O1COM+90
PL6.E3A0      #001=Z8EG$ERROR_CORR_PROC_DIV File=Z8EG.:Z8A6TSI                   SAT 08/09/97 11:50 Page:39
        11 001471   000141 755000 xsym               STA     O1COM+97

   8669 11 001472   000131 235000 xsym               LDA     O1COM+89
        11 001473   000142 755000 xsym               STA     O1COM+98

   8671 11 001474   000001 702211                    TSX2  ! 1,X1

   8674 11 001475   204122 741300       RESTORE_STA* STX1  ! NT+2,,AUTO

   8676 11 001476   000142 235000 xsym               LDA     O1COM+98
        11 001477   000131 755000 xsym               STA     O1COM+89

   8677 11 001500   000140 236000 xsym               LDQ     O1COM+96
        11 001501   000133 756000 xsym               STQ     O1COM+91

   8678 11 001502   000141 235000 xsym               LDA     O1COM+97
        11 001503   000132 755000 xsym               STA     O1COM+90

   8679 11 001504   017504 220003                    LDX0    8004,DU
        11 001505   000040 100540                    MLR     fill='000'O
        11 001506   200173 000010                    ADSC9   PS,,AUTO                 cn=0,n=*X0
        11 001507   001364 000010 xsym               ADSC9   O1COM+756                cn=0,n=*X0

   8680 11 001510   204114 235100                    LDA     PS_IDX,,AUTO
        11 001511   000135 755000 xsym               STA     O1COM+93

   8681 11 001512   204115 235100                    LDA     PSTATE,,AUTO
        11 001513   000130 755000 xsym               STA     O1COM+88

   8682 11 001514   000152 450000 xsym               STZ     O1COM+106

   8683 11 001515   000153 450000 xsym               STZ     O1COM+107

   8685 11 001516   000001 702211                    TSX2  ! 1,X1

   8688 11 001517   204122 741300       BUILD_LOOKA* STX1  ! NT+2,,AUTO

PL6.E3A0      #001=Z8EG$ERROR_CORR_PROC_DIV File=Z8EG.:Z8A6TSI                   SAT 08/09/97 11:50 Page:40
   8693 11 001520   200075 630500                    EPPR0   LR,,AUTO
        11 001521   204127 450500                    STP0    @LRC,,AUTO
        11 001522   000451 701000 11                 TSX1    CALC_CORRECTION
        11 001523   000000 011000                    NOP     0

   8695 11 001524   000152 235000 xsym               LDA     O1COM+106
        11 001525   001532 604400 11                 TMOZ    s:8702

   8697 11 001526   000131 450000 xsym               STZ     O1COM+89

   8698 11 001527   000132 236000 xsym               LDQ     O1COM+90
        11 001530   000133 756000 xsym               STQ     O1COM+91

   8699 11 001531   001537 710000 11                 TRA     s:8706

   8702 11 001532   000142 236000 xsym               LDQ     O1COM+98
        11 001533   200075 136100                    SBLQ    LR,,AUTO
        11 001534   000131 756000 xsym               STQ     O1COM+89

   8703 11 001535   200077 235100                    LDA     LR+2,,AUTO
        11 001536   000133 755000 xsym               STA     O1COM+91

   8706 11 001537   204122 221300                    LDX1  ! NT+2,,AUTO
        11 001540   000001 702211                    TSX2  ! 1,X1

   8709 11 001541   204122 741300       TRAIL_PARSE  STX1  ! NT+2,,AUTO

   8713 11 001542   000130 720000 xsym               LXL0    O1COM+88
        11 001543   000000 721010 xsym               LXL1    PD_ACTION_COL,X0
        11 001544   001551 601000 11                 TNZ     s:8717

   8714 11 001545   000000 236010 xsym               LDQ     PD_ACTION_COL,X0
        11 001546   000022 732000                    QRS     18
        11 001547   204117 756100                    STQ     ACTION,,AUTO
        11 001550   001635 710000 11                 TRA     s:8746

   8717 11 001551   000131 235000 xsym               LDA     O1COM+89
PL6.E3A0      #001=Z8EG$ERROR_CORR_PROC_DIV File=Z8EG.:Z8A6TSI                   SAT 08/09/97 11:50 Page:41
        11 001552   001611 605400 11                 TPNZ    s:8735

   8718 11 001553   000152 236000 xsym               LDQ     O1COM+106
        11 001554   001557 601000 11                 TNZ     s:8721
        11 001555   000153 235000 xsym               LDA     O1COM+107
        11 001556   001754 600000 11                 TZE     CORRECT_PARSE

   8721 11 001557   000000 116003                    CMPQ    0,DU
        11 001560   001603 604400 11                 TMOZ    s:8731

   8723 11 001561   000132 235000 xsym               LDA     O1COM+90
        11 001562   000133 755000 xsym               STA     O1COM+91

   8724 11 001563   000001 235007                    LDA     1,DL
        11 001564   000131 755000 xsym               STA     O1COM+89

   8725 11 001565   000133 235000 xsym               LDA     O1COM+91
        11 001566   000003 735000                    ALS     3
        11 001567   000153 236000 xsym               LDQ     O1COM+107
        11 001570   000001 736000                    QLS     1
        11 001571   000100 100406                    MLR     fill='000'O
        11 001572   000154 000002 xsym               ADSC9   O1COM+108,Q              cn=0,n=2
        11 001573   226362 000004                    ADSC9   NEWPLUG2$+1,,AUTO        cn=0,n=4
        11 001574   226362 236100                    LDQ     NEWPLUG2$+1,,AUTO
        11 001575   000022 732000                    QRS     18
        11 001576   000242 756005 xsym               STQ     O1COM+162,AL

   8726 11 001577   000001 336007                    LCQ     1,DL
        11 001600   000152 056000 xsym               ASQ     O1COM+106

   8727 11 001601   000153 054000 xsym               AOS     O1COM+107

   8728 11 001602   001611 710000 11                 TRA     s:8735

   8731 11 001603   000153 450000 xsym               STZ     O1COM+107

   8732 11 001604   000142 236000 xsym               LDQ     O1COM+98
PL6.E3A0      #001=Z8EG$ERROR_CORR_PROC_DIV File=Z8EG.:Z8A6TSI                   SAT 08/09/97 11:50 Page:42
        11 001605   200075 136100                    SBLQ    LR,,AUTO
        11 001606   000131 756000 xsym               STQ     O1COM+89

   8733 11 001607   200077 235100                    LDA     LR+2,,AUTO
        11 001610   000133 755000 xsym               STA     O1COM+91

   8735 11 001611   000133 235000 xsym               LDA     O1COM+91
        11 001612   000003 735000                    ALS     3
        11 001613   000130 720000 xsym               LXL0    O1COM+88
        11 001614   000000 236010 xsym               LDQ     PD_ACTION_COL,X0
        11 001615   777777 376007                    ANQ     -1,DL
        11 001616   000242 036005 xsym               ADLQ    O1COM+162,AL
        11 001617   204116 756100                    STQ     INDX,,AUTO

   8736 11 001620   000000 236006 xsym               LDQ     PD_ACTION_ROW,QL
        11 001621   777777 376007                    ANQ     -1,DL
        11 001622   000130 116000 xsym               CMPQ    O1COM+88
        11 001623   001632 601000 11                 TNZ     s:8743

   8738 11 001624   204116 721100                    LXL1    INDX,,AUTO
        11 001625   000000 236011 xsym               LDQ     PD_ACTION_ROW,X1
        11 001626   000022 732000                    QRS     18
        11 001627   204117 756100                    STQ     ACTION,,AUTO

   8739 11 001630   001754 600000 11                 TZE     CORRECT_PARSE

   8741 11 001631   001635 710000 11                 TRA     s:8746

   8743 11 001632   000000 236010 xsym               LDQ     PD_ACTION_COL,X0
        11 001633   000022 732000                    QRS     18
        11 001634   204117 756100                    STQ     ACTION,,AUTO

   8746 11 001635   001700 604400 11                 TMOZ    s:8777

   8748 11 001636   000001 336007                    LCQ     1,DL
        11 001637   000131 056000 xsym               ASQ     O1COM+89

PL6.E3A0      #001=Z8EG$ERROR_CORR_PROC_DIV File=Z8EG.:Z8A6TSI                   SAT 08/09/97 11:50 Page:43
   8749 11 001640   000133 235000 xsym               LDA     O1COM+91
        11 001641   000003 735000                    ALS     3
        11 001642   000246 235005 xsym               LDA     O1COM+166,AL
        11 001643   000133 755000 xsym               STA     O1COM+91

   8750 11 001644   000135 235000 xsym               LDA     O1COM+93
        11 001645   003720 115007                    CMPA    2000,DL
        11 001646   001672 604000 11                 TMI     s:8771

   8758 11 001647   000133 235000 xsym               LDA     O1COM+91
        11 001650   000003 735000                    ALS     3
        11 001651   000244 235005 xsym               LDA     O1COM+164,AL
        11 001652   000136 755000 xsym               STA     O1COM+94

   8759 11 001653   000133 235000 xsym               LDA     O1COM+91
        11 001654   000003 735000                    ALS     3
        11 001655   000245 235005 xsym               LDA     O1COM+165,AL
        11 001656   000137 755000 xsym               STA     O1COM+95

   8762 11 001657   000000 236000 12                 LDQ     0
        11 001660   000000 235000 12                 LDA     0
        11 001661   226356 757100                    STAQ    @PLUG1$,,AUTO
        11 001662   000031 236000 12                 LDQ     25
        11 001663   226355 756100                    STQ     @ERROR_TYPE,,AUTO
        11 001664   000005 701000 11                 TSX1    ERROR
        11 001665   000000 011000                    NOP     0

   8765 11 001666   000012 631400 12                 EPPR1   10
        11 001667   000000 701000 xent               TSX1    Z9AT$TERMINATOR
        11 001670   000000 011000                    NOP     0

   8767 11 001671   001542 710000 11                 TRA     s:8713

   8771 11 001672   204117 235100                    LDA     ACTION,,AUTO
        11 001673   000130 755000 xsym               STA     O1COM+88

   8772 11 001674   000135 054000 xsym               AOS     O1COM+93
PL6.E3A0      #001=Z8EG$ERROR_CORR_PROC_DIV File=Z8EG.:Z8A6TSI                   SAT 08/09/97 11:50 Page:44

   8773 11 001675   000135 720000 xsym               LXL0    O1COM+93
        11 001676   001364 755010 xsym               STA     O1COM+756,X0

   8775 11 001677   001542 710000 11                 TRA     s:8713

   8777 11 001700   001752 605000 11                 TPL     BAD_PARSE

   8779 11 001701   204117 335100                    LCA     ACTION,,AUTO
        11 001702   204117 755100                    STA     ACTION,,AUTO

   8780 11 001703   000001 735000                    ALS     1
        11 001704   000000 236005 xsym               LDQ     PD_PRODR,AL
        11 001705   777777 376007                    ANQ     -1,DL
        11 001706   226362 756100                    STQ     NEWPLUG2$+1,,AUTO
        11 001707   000135 236000 xsym               LDQ     O1COM+93
        11 001710   226362 136100                    SBLQ    NEWPLUG2$+1,,AUTO
        11 001711   000135 756000 xsym               STQ     O1COM+93

   8781 11 001712   000000 236005 xsym               LDQ     PD_PRODR,AL
        11 001713   000022 772000                    QRL     18
        11 001714   204120 756100                    STQ     NT,,AUTO

   8782 11 001715   000000 721006 xsym               LXL1    PD_GOTO_COL,QL
        11 001716   001724 601000 11                 TNZ     s:8786

   8783 11 001717   204120 721100                    LXL1    NT,,AUTO
        11 001720   000000 236011 xsym               LDQ     PD_GOTO_COL,X1
        11 001721   000022 772000                    QRL     18
        11 001722   000130 756000 xsym               STQ     O1COM+88
        11 001723   001746 710000 11                 TRA     s:8792

   8786 11 001724   000135 721000 xsym               LXL1    O1COM+93
        11 001725   204120 722100                    LXL2    NT,,AUTO
        11 001726   000000 236012 xsym               LDQ     PD_GOTO_COL,X2
        11 001727   777777 376007                    ANQ     -1,DL
        11 001730   001364 036011 xsym               ADLQ    O1COM+756,X1
PL6.E3A0      #001=Z8EG$ERROR_CORR_PROC_DIV File=Z8EG.:Z8A6TSI                   SAT 08/09/97 11:50 Page:45
        11 001731   204116 756100                    STQ     INDX,,AUTO

   8787 11 001732   000000 236006 xsym               LDQ     PD_GOTO_ROW,QL
        11 001733   777777 376007                    ANQ     -1,DL
        11 001734   204120 116100                    CMPQ    NT,,AUTO
        11 001735   001743 601000 11                 TNZ     s:8790

   8788 11 001736   204116 723100                    LXL3    INDX,,AUTO
        11 001737   000000 236013 xsym               LDQ     PD_GOTO_ROW,X3
        11 001740   000022 772000                    QRL     18
        11 001741   000130 756000 xsym               STQ     O1COM+88
        11 001742   001746 710000 11                 TRA     s:8792

   8790 11 001743   000000 236012 xsym               LDQ     PD_GOTO_COL,X2
        11 001744   000022 772000                    QRL     18
        11 001745   000130 756000 xsym               STQ     O1COM+88

   8792 11 001746   000135 054000 xsym               AOS     O1COM+93

   8793 11 001747   000135 720000 xsym               LXL0    O1COM+93
        11 001750   001364 756010 xsym               STQ     O1COM+756,X0

   8794 11 001751   001542 710000 11                 TRA     s:8713

   8801 11 001752   200101 236100       BAD_PARSE    LDQ     LR+4,,AUTO
        11 001753   200101 056100                    ASQ     LR+4,,AUTO

   8805 11 001754                       CORRECT_PAR* null
   8805 11 001754   204122 221300                    LDX1  ! NT+2,,AUTO
        11 001755   000001 702211                    TSX2  ! 1,X1

   8808 11 001756   001430 701000 11                 TSX1    GET_CONTEXT
        11 001757   000000 011000                    NOP     0

   8809 11 001760   001455 701000 11                 TSX1    SAVE_STATE
        11 001761   000000 011000                    NOP     0

PL6.E3A0      #001=Z8EG$ERROR_CORR_PROC_DIV File=Z8EG.:Z8A6TSI                   SAT 08/09/97 11:50 Page:46
   8810 11 001762   001517 701000 11                 TSX1    BUILD_LOOKAHEAD
        11 001763   000000 011000                    NOP     0

   8811 11 001764   001541 701000 11                 TSX1    TRAIL_PARSE
        11 001765   000000 011000                    NOP     0

   8812 11 001766   001475 701000 11                 TSX1    RESTORE_STATE
        11 001767   000000 011000                    NOP     0

   8814 11 001770   200172 221300                    LDX1  ! ACCUM_INS_TO_SYM+2,,AUTO
        11 001771   000001 702211                    TSX2  ! 1,X1

   8817 11 001772   200172 741300       LR_INSERT    STX1  ! ACCUM_INS_TO_SYM+2,,AUTO
        11 001773   002147 710000 11                 TRA     s:8986

   8916 11 001774   226352 741300       INITSTAGES   STX1  ! PELEM+1,,AUTO

   8922 11 001775   226353 450100                    STZ     I,,AUTO

   8924 11 001776   226353 236100                    LDQ     I,,AUTO
        11 001777   000064 402007                    MPY     52,DL
        11 002000   200544 630506                    EPPR0   LCC_SPACE,QL,AUTO
        11 002001   226353 720100                    LXL0    I,,AUTO
        11 002002   200216 450510                    STP0    STAGE1$,X0,AUTO

   8925 11 002003   213440 631506                    EPPR1   J+3783,QL,AUTO
        11 002004   200371 451510                    STP1    STAGE2$,X0,AUTO

   8927 11 002005   226353 054100                    AOS     I,,AUTO
        11 002006   226353 235100                    LDA     I,,AUTO
        11 002007   000152 115007                    CMPA    106,DL
        11 002010   001776 604400 11                 TMOZ    s:8924

   8929 11 002011   200216 630500                    EPPR0   STAGE1$,,AUTO
        11 002012   200214 450500                    STP0    CURRSTAGE$,,AUTO

   8930 11 002013   200371 631500                    EPPR1   STAGE2$,,AUTO
PL6.E3A0      #001=Z8EG$ERROR_CORR_PROC_DIV File=Z8EG.:Z8A6TSI                   SAT 08/09/97 11:50 Page:47
        11 002014   200215 451500                    STP1    NEXTSTAGE$,,AUTO

   8931 11 002015   002023 701000 11                 TSX1    NEWSTAGE
        11 002016   000000 011000                    NOP     0

   8932 11 002017   002023 701000 11                 TSX1    NEWSTAGE
        11 002020   000000 011000                    NOP     0

   8934 11 002021   226352 221300                    LDX1  ! PELEM+1,,AUTO
        11 002022   000001 702211                    TSX2  ! 1,X1

   8937 11 002023   226354 741300       NEWSTAGE     STX1  ! @PREVSTATE+1,,AUTO

   8943 11 002024   200215 236100                    LDQ     NEXTSTAGE$,,AUTO
        11 002025   226356 756100                    STQ     TPTR,,AUTO

   8944 11 002026   200214 236100                    LDQ     CURRSTAGE$,,AUTO
        11 002027   200215 756100                    STQ     NEXTSTAGE$,,AUTO

   8945 11 002030   226356 236100                    LDQ     TPTR,,AUTO
        11 002031   200214 756100                    STQ     CURRSTAGE$,,AUTO

   8947 11 002032   226355 450100                    STZ     I,,AUTO

   8949 11 002033   200215 470500                    LDP0    NEXTSTAGE$,,AUTO
        11 002034   226355 720100                    LXL0    I,,AUTO
        11 002035   000000 471510                    LDP1    0,X0,PR0
        11 002036   000100 101400                    MRL     fill='000'O
        11 002037   000032 000004 12                 ADSC9   26                       cn=0,n=4
        11 002040   100000 000002                    ADSC9   0,,PR1                   cn=0,n=2

   8950 11 002041   000000 471510                    LDP1    0,X0,PR0
        11 002042   000100 101400                    MRL     fill='000'O
        11 002043   000012 000004 12                 ADSC9   10                       cn=0,n=4
        11 002044   100000 400002                    ADSC9   0,,PR1                   cn=2,n=2

   8952 11 002045   226355 054100                    AOS     I,,AUTO
PL6.E3A0      #001=Z8EG$ERROR_CORR_PROC_DIV File=Z8EG.:Z8A6TSI                   SAT 08/09/97 11:50 Page:48
        11 002046   226355 235100                    LDA     I,,AUTO
        11 002047   000152 115007                    CMPA    106,DL
        11 002050   002033 604400 11                 TMOZ    s:8949

   8954 11 002051   226354 221300                    LDX1  ! @PREVSTATE+1,,AUTO
        11 002052   000001 702211                    TSX2  ! 1,X1

   8958 11 002053   226352 741300       FINDPRED     STX1  ! PELEM+1,,AUTO

   8968 11 002054   226353 470500                    LDP0    @PREVSTATE,,AUTO
        11 002055   000000 236100                    LDQ     0,,PR0
        11 002056   000036 402007                    MPY     30,DL
        11 002057   000000 116003                    CMPQ    0,DU
        11 002060   002062 605000 11                 TPL     s:8968+6
        11 002061   000044 036003                    ADLQ    36,DU
        11 002062   003100 061406                    CSR     bolr='003'O
        11 002063   777777 430017 xsym               BDSC    PD_STATE_ITEM-1,Q        by=2,bit=3,n=15
        11 002064   226362 000044                    BDSC    NEWPLUG2$+1,,AUTO        by=0,bit=0,n=36
        11 002065   226362 236100                    LDQ     NEWPLUG2$+1,,AUTO
        11 002066   000001 036007                    ADLQ    1,DL
        11 002067   226356 756100                    STQ     I,,AUTO

   8970 11 002070   002072 710000 11                 TRA     s:8973

   8972 11 002071   226356 054100                    AOS     I,,AUTO

   8973 11 002072   226354 470500                    LDP0    @SUCCSTATE,,AUTO
        11 002073   226356 236100                    LDQ     I,,AUTO
        11 002074   000045 402007                    MPY     37,DL
        11 002075   000000 116003                    CMPQ    0,DU
        11 002076   002100 605000 11                 TPL     s:8973+6
        11 002077   000044 036003                    ADLQ    36,DU
        11 002100   003100 060406                    CSL     bolr='003'O
        11 002101   000000 000014 xsym               BDSC    PD_ITEM,Q                by=0,bit=0,n=12
        11 002102   226362 000044                    BDSC    NEWPLUG2$+1,,AUTO        by=0,bit=0,n=36
        11 002103   226362 236100                    LDQ     NEWPLUG2$+1,,AUTO
        11 002104   000030 732000                    QRS     24
PL6.E3A0      #001=Z8EG$ERROR_CORR_PROC_DIV File=Z8EG.:Z8A6TSI                   SAT 08/09/97 11:50 Page:49
        11 002105   000000 116100                    CMPQ    0,,PR0
        11 002106   002071 601000 11                 TNZ     s:8972
        11 002107   226355 471500                    LDP1    @ITM,,AUTO
        11 002110   226356 236100                    LDQ     I,,AUTO
        11 002111   000045 402007                    MPY     37,DL
        11 002112   000000 116003                    CMPQ    0,DU
        11 002113   002115 605000 11                 TPL     s:8973+19
        11 002114   000044 036003                    ADLQ    36,DU
        11 002115   003100 061406                    CSR     bolr='003'O
        11 002116   000000 230007 xsym               BDSC    PD_ITEM,Q                by=1,bit=3,n=7
        11 002117   226363 000044                    BDSC    NEWPLUG2$+2,,AUTO        by=0,bit=0,n=36
        11 002120   226363 236100                    LDQ     NEWPLUG2$+2,,AUTO
        11 002121   100000 116100                    CMPQ    0,,PR1
        11 002122   002071 601000 11                 TNZ     s:8972

   8975 11 002123   226356 235100                    LDA     I,,AUTO
        11 002124   226335 755100                    STA     PRED_ITEM,,AUTO

   8976 11 002125   226353 473500                    LDP3    @PREVSTATE,,AUTO
        11 002126   300000 236100                    LDQ     0,,PR3
        11 002127   000036 402007                    MPY     30,DL
        11 002130   400000 220003                    LDX0    -131072,DU
        11 002131   000000 116003                    CMPQ    0,DU
        11 002132   002134 605000 11                 TPL     s:8976+7
        11 002133   000044 036003                    ADLQ    36,DU
        11 002134   003100 061406                    CSR     bolr='003'O
        11 002135   000000 000017 xsym               BDSC    PD_STATE_ITEM,Q          by=0,bit=0,n=15
        11 002136   226362 000044                    BDSC    NEWPLUG2$+1,,AUTO        by=0,bit=0,n=36
        11 002137   226362 236100                    LDQ     NEWPLUG2$+1,,AUTO
        11 002140   226356 116100                    CMPQ    I,,AUTO
        11 002141   002143 604000 11                 TMI     s:8976+14
        11 002142   000000 220003                    LDX0    0,DU
        11 002143   000000 636010                    EAQ     0,X0
        11 002144   226336 756100                    STQ     PRED_CLOSURE,,AUTO

   8978 11 002145   226352 221300                    LDX1  ! PELEM+1,,AUTO
        11 002146   000001 702211                    TSX2  ! 1,X1
PL6.E3A0      #001=Z8EG$ERROR_CORR_PROC_DIV File=Z8EG.:Z8A6TSI                   SAT 08/09/97 11:50 Page:50

   8986 11 002147   001774 701000 11                 TSX1    INITSTAGES
        11 002150   000000 011000                    NOP     0

   8988 11 002151   000135 235000 xsym               LDA     O1COM+93
        11 002152   200175 755100                    STA     K,,AUTO

   8990 11 002153   303237 236007                    LDQ     99999,DL
        11 002154   200101 756100                    STQ     LR+4,,AUTO

   8991 11 002155   200100 450100                    STZ     LR+3,,AUTO

   8996 11 002156   001364 236005 xsym               LDQ     O1COM+756,AL
        11 002157   000036 402007                    MPY     30,DL
        11 002160   000000 116003                    CMPQ    0,DU
        11 002161   002163 605000 11                 TPL     s:8996+5
        11 002162   000044 036003                    ADLQ    36,DU
        11 002163   003100 061406                    CSR     bolr='003'O
        11 002164   777777 430017 xsym               BDSC    PD_STATE_ITEM-1,Q        by=2,bit=3,n=15
        11 002165   226362 000044                    BDSC    NEWPLUG2$+1,,AUTO        by=0,bit=0,n=36
        11 002166   226362 236100                    LDQ     NEWPLUG2$+1,,AUTO
        11 002167   000001 036007                    ADLQ    1,DL
        11 002170   200202 756100                    STQ     LOWBASIS,,AUTO

   8997 11 002171   000135 720000 xsym               LXL0    O1COM+93
        11 002172   001364 236010 xsym               LDQ     O1COM+756,X0
        11 002173   000036 402007                    MPY     30,DL
        11 002174   000000 116003                    CMPQ    0,DU
        11 002175   002177 605000 11                 TPL     s:8997+6
        11 002176   000044 036003                    ADLQ    36,DU
        11 002177   003100 061406                    CSR     bolr='003'O
        11 002200   000000 000017 xsym               BDSC    PD_STATE_ITEM,Q          by=0,bit=0,n=15
        11 002201   200203 000044                    BDSC    HIGHBASIS,,AUTO          by=0,bit=0,n=36

   9000 11 002202   303237 235007                    LDA     99999,DL
        11 002203   200205 755100                    STA     MINCOST,,AUTO

PL6.E3A0      #001=Z8EG$ERROR_CORR_PROC_DIV File=Z8EG.:Z8A6TSI                   SAT 08/09/97 11:50 Page:51
   9002 11 002204   200202 236100                    LDQ     LOWBASIS,,AUTO
        11 002205   200173 756100                    STQ     I,,AUTO
        11 002206   002531 710000 11                 TRA     s:9054+1

   9007 11 002207   200173 236100                    LDQ     I,,AUTO
        11 002210   200202 136100                    SBLQ    LOWBASIS,,AUTO
        11 002211   200214 470500                    LDP0    CURRSTAGE$,,AUTO
        11 002212   000000 471506                    LDP1    0,QL,PR0
        11 002213   200173 236100                    LDQ     I,,AUTO
        11 002214   000045 402007                    MPY     37,DL
        11 002215   000000 116003                    CMPQ    0,DU
        11 002216   002220 605000 11                 TPL     s:9007+9
        11 002217   000044 036003                    ADLQ    36,DU
        11 002220   003100 061406                    CSR     bolr='003'O
        11 002221   000000 650005 xsym               BDSC    PD_ITEM,Q                by=3,bit=5,n=5
        11 002222   100000 400022                    BDSC    0,,PR1                   by=2,bit=0,n=18

   9008 11 002223   200176 450100                    STZ     I2,,AUTO

   9009 11 002224   200212 450100                    STZ     TRYCOST,,AUTO

   9010 11 002225   200173 236100                    LDQ     I,,AUTO
        11 002226   200202 136100                    SBLQ    LOWBASIS,,AUTO
        11 002227   000000 471506                    LDP1    0,QL,PR0
        11 002230   000100 101400                    MRL     fill='000'O
        11 002231   000012 000004 12                 ADSC9   10                       cn=0,n=4
        11 002232   100000 000002                    ADSC9   0,,PR1                   cn=0,n=2

   9012 11 002233   200173 236100                    LDQ     I,,AUTO
        11 002234   000045 402007                    MPY     37,DL
        11 002235   000000 116003                    CMPQ    0,DU
        11 002236   002240 605000 11                 TPL     s:9012+5
        11 002237   000044 036003                    ADLQ    36,DU
        11 002240   003100 061406                    CSR     bolr='003'O
        11 002241   000000 410015 xsym               BDSC    PD_ITEM,Q                by=2,bit=1,n=13
        11 002242   200174 000044                    BDSC    J,,AUTO                  by=0,bit=0,n=36
        11 002243   002503 710000 11                 TRA     s:9052+1
PL6.E3A0      #001=Z8EG$ERROR_CORR_PROC_DIV File=Z8EG.:Z8A6TSI                   SAT 08/09/97 11:50 Page:52

   9016 11 002244   200077 235100                    LDA     LR+2,,AUTO
        11 002245   000003 735000                    ALS     3
        11 002246   000242 236005 xsym               LDQ     O1COM+162,AL
        11 002247   000017 402007                    MPY     15,DL
        11 002250   000000 116003                    CMPQ    0,DU
        11 002251   002253 605000 11                 TPL     s:9016+7
        11 002252   000044 036003                    ADLQ    36,DU
        11 002253   003100 061406                    CSR     bolr='003'O
        11 002254   000000 000017 xsym               BDSC    PD_LCP_UBOUND,Q          by=0,bit=0,n=15
        11 002255   200177 000044                    BDSC    H,,AUTO                  by=0,bit=0,n=36

   9017 11 002256   200077 235100                    LDA     LR+2,,AUTO
        11 002257   000003 735000                    ALS     3
        11 002260   000242 236005 xsym               LDQ     O1COM+162,AL
        11 002261   000017 402007                    MPY     15,DL
        11 002262   000000 116003                    CMPQ    0,DU
        11 002263   002265 605000 11                 TPL     s:9017+7
        11 002264   000044 036003                    ADLQ    36,DU
        11 002265   003100 061406                    CSR     bolr='003'O
        11 002266   777777 430017 xsym               BDSC    PD_LCP_UBOUND-1,Q        by=2,bit=3,n=15
        11 002267   226362 000044                    BDSC    NEWPLUG2$+1,,AUTO        by=0,bit=0,n=36
        11 002270   226362 236100                    LDQ     NEWPLUG2$+1,,AUTO
        11 002271   000001 036007                    ADLQ    1,DL
        11 002272   200200 756100                    STQ     L,,AUTO

   9018 11 002273   000001 335007                    LCA     1,DL
        11 002274   200211 755100                    STA     LCP_ELEM_RET,,AUTO

   9019 11 002275   200177 116100                    CMPQ    H,,AUTO
        11 002276   002300 600000 11                 TZE     s:9020
        11 002277   002363 603000 11                 TRC     s:9035

   9020 11 002300   200200 236100                    LDQ     L,,AUTO
        11 002301   200177 036100                    ADLQ    H,,AUTO
        11 002302   000001 772000                    QRL     1
        11 002303   200201 756100                    STQ     M,,AUTO
PL6.E3A0      #001=Z8EG$ERROR_CORR_PROC_DIV File=Z8EG.:Z8A6TSI                   SAT 08/09/97 11:50 Page:53

   9021 11 002304   000056 402007                    MPY     46,DL
        11 002305   003100 061406                    CSR     bolr='003'O
        11 002306   000000 000022 xsym               BDSC    PD_LCP,Q                 by=0,bit=0,n=18
        11 002307   226362 000044                    BDSC    NEWPLUG2$+1,,AUTO        by=0,bit=0,n=36
        11 002310   200174 236100                    LDQ     J,,AUTO
        11 002311   000013 402007                    MPY     11,DL
        11 002312   000000 116003                    CMPQ    0,DU
        11 002313   002315 605000 11                 TPL     s:9021+9
        11 002314   000044 036003                    ADLQ    36,DU
        11 002315   003100 061406                    CSR     bolr='003'O
        11 002316   000000 000013 xsym               BDSC    PD_PATH_ELEM,Q           by=0,bit=0,n=11
        11 002317   226363 000044                    BDSC    NEWPLUG2$+2,,AUTO        by=0,bit=0,n=36
        11 002320   226363 236100                    LDQ     NEWPLUG2$+2,,AUTO
        11 002321   226362 116100                    CMPQ    NEWPLUG2$+1,,AUTO
        11 002322   002331 601000 11                 TNZ     s:9027

   9023 11 002323   200201 235100                    LDA     M,,AUTO
        11 002324   200211 755100                    STA     LCP_ELEM_RET,,AUTO

   9024 11 002325   200200 236100                    LDQ     L,,AUTO
        11 002326   000001 136007                    SBLQ    1,DL
        11 002327   200177 756100                    STQ     H,,AUTO

   9025 11 002330   002360 710000 11                 TRA     s:9031

   9027 11 002331   200201 236100                    LDQ     M,,AUTO
        11 002332   000056 402007                    MPY     46,DL
        11 002333   003100 061406                    CSR     bolr='003'O
        11 002334   000000 000022 xsym               BDSC    PD_LCP,Q                 by=0,bit=0,n=18
        11 002335   226362 000044                    BDSC    NEWPLUG2$+1,,AUTO        by=0,bit=0,n=36
        11 002336   200174 236100                    LDQ     J,,AUTO
        11 002337   000013 402007                    MPY     11,DL
        11 002340   000000 116003                    CMPQ    0,DU
        11 002341   002343 605000 11                 TPL     s:9027+10
        11 002342   000044 036003                    ADLQ    36,DU
        11 002343   003100 061406                    CSR     bolr='003'O
PL6.E3A0      #001=Z8EG$ERROR_CORR_PROC_DIV File=Z8EG.:Z8A6TSI                   SAT 08/09/97 11:50 Page:54
        11 002344   000000 000013 xsym               BDSC    PD_PATH_ELEM,Q           by=0,bit=0,n=11
        11 002345   226363 000044                    BDSC    NEWPLUG2$+2,,AUTO        by=0,bit=0,n=36
        11 002346   226363 236100                    LDQ     NEWPLUG2$+2,,AUTO
        11 002347   226362 116100                    CMPQ    NEWPLUG2$+1,,AUTO
        11 002350   002355 605000 11                 TPL     s:9030

   9028 11 002351   200201 235100                    LDA     M,,AUTO
        11 002352   000001 135007                    SBLA    1,DL
        11 002353   200177 755100                    STA     H,,AUTO
        11 002354   002360 710000 11                 TRA     s:9031

   9030 11 002355   200201 235100                    LDA     M,,AUTO
        11 002356   000001 035007                    ADLA    1,DL
        11 002357   200200 755100                    STA     L,,AUTO

   9031 11 002360   200177 236100                    LDQ     H,,AUTO
        11 002361   200200 116100                    CMPQ    L,,AUTO
        11 002362   002300 603000 11                 TRC     s:9020

   9035 11 002363   200211 235100                    LDA     LCP_ELEM_RET,,AUTO
        11 002364   002421 604000 11                 TMI     s:9047

   9037 11 002365   200173 236100                    LDQ     I,,AUTO
        11 002366   200202 136100                    SBLQ    LOWBASIS,,AUTO
        11 002367   200214 470500                    LDP0    CURRSTAGE$,,AUTO
        11 002370   000000 471506                    LDP1    0,QL,PR0
        11 002371   200211 236100                    LDQ     LCP_ELEM_RET,,AUTO
        11 002372   000056 402007                    MPY     46,DL
        11 002373   000000 116003                    CMPQ    0,DU
        11 002374   002376 605000 11                 TPL     s:9037+9
        11 002375   000044 036003                    ADLQ    36,DU
        11 002376   003100 061406                    CSR     bolr='003'O
        11 002377   000000 400011 xsym               BDSC    PD_LCP,Q                 by=2,bit=0,n=9
        11 002400   226362 000044                    BDSC    NEWPLUG2$+1,,AUTO        by=0,bit=0,n=36
        11 002401   000100 100500                    MLR     fill='000'O
        11 002402   100000 000002                    ADSC9   0,,PR1                   cn=0,n=2
        11 002403   226363 000004                    ADSC9   NEWPLUG2$+2,,AUTO        cn=0,n=4
PL6.E3A0      #001=Z8EG$ERROR_CORR_PROC_DIV File=Z8EG.:Z8A6TSI                   SAT 08/09/97 11:50 Page:55
        11 002404   226363 236100                    LDQ     NEWPLUG2$+2,,AUTO
        11 002405   000022 732000                    QRS     18
        11 002406   226362 036100                    ADLQ    NEWPLUG2$+1,,AUTO
        11 002407   200212 756100                    STQ     TRYCOST,,AUTO

   9038 11 002410   200205 116100                    CMPQ    MINCOST,,AUTO
        11 002411   002421 605000 11                 TPL     s:9047

   9040 11 002412   200173 235100                    LDA     I,,AUTO
        11 002413   200204 755100                    STA     MINITEM,,AUTO

   9041 11 002414   200174 235100                    LDA     J,,AUTO
        11 002415   200206 755100                    STA     MINPOS,,AUTO

   9042 11 002416   200205 756100                    STQ     MINCOST,,AUTO

   9043 11 002417   200211 235100                    LDA     LCP_ELEM_RET,,AUTO
        11 002420   200207 755100                    STA     MINLCPINDX,,AUTO

   9047 11 002421   200173 236100                    LDQ     I,,AUTO
        11 002422   200202 136100                    SBLQ    LOWBASIS,,AUTO
        11 002423   200214 470500                    LDP0    CURRSTAGE$,,AUTO
        11 002424   000000 471506                    LDP1    0,QL,PR0
        11 002425   200173 236100                    LDQ     I,,AUTO
        11 002426   200202 136100                    SBLQ    LOWBASIS,,AUTO
        11 002427   000000 473506                    LDP3    0,QL,PR0
        11 002430   200174 236100                    LDQ     J,,AUTO
        11 002431   000013 402007                    MPY     11,DL
        11 002432   000000 116003                    CMPQ    0,DU
        11 002433   002435 605000 11                 TPL     s:9047+12
        11 002434   000044 036003                    ADLQ    36,DU
        11 002435   003100 061406                    CSR     bolr='003'O
        11 002436   000000 000013 xsym               BDSC    PD_PATH_ELEM,Q           by=0,bit=0,n=11
        11 002437   226362 000044                    BDSC    NEWPLUG2$+1,,AUTO        by=0,bit=0,n=36
        11 002440   226362 236100                    LDQ     NEWPLUG2$+1,,AUTO
        11 002441   000037 402007                    MPY     31,DL
        11 002442   003100 061406                    CSR     bolr='003'O
PL6.E3A0      #001=Z8EG$ERROR_CORR_PROC_DIV File=Z8EG.:Z8A6TSI                   SAT 08/09/97 11:50 Page:56
        11 002443   000000 000021 xsym               BDSC    PD_LCS,Q                 by=0,bit=0,n=17
        11 002444   226363 000044                    BDSC    NEWPLUG2$+2,,AUTO        by=0,bit=0,n=36
        11 002445   000100 100500                    MLR     fill='000'O
        11 002446   300000 000002                    ADSC9   0,,PR3                   cn=0,n=2
        11 002447   226364 000004                    ADSC9   NEWPLUG2$+3,,AUTO        cn=0,n=4
        11 002450   226364 236100                    LDQ     NEWPLUG2$+3,,AUTO
        11 002451   000022 732000                    QRS     18
        11 002452   226363 036100                    ADLQ    NEWPLUG2$+2,,AUTO
        11 002453   226365 756100                    STQ     NEWPLUG2$+4,,AUTO
        11 002454   000100 101500                    MRL     fill='000'O
        11 002455   226365 000004                    ADSC9   NEWPLUG2$+4,,AUTO        cn=0,n=4
        11 002456   100000 000002                    ADSC9   0,,PR1                   cn=0,n=2

   9049 11 002457   200173 236100                    LDQ     I,,AUTO
        11 002460   200202 136100                    SBLQ    LOWBASIS,,AUTO
        11 002461   000000 471506                    LDP1    0,QL,PR0
        11 002462   200174 236100                    LDQ     J,,AUTO
        11 002463   000013 402007                    MPY     11,DL
        11 002464   000000 116003                    CMPQ    0,DU
        11 002465   002467 605000 11                 TPL     s:9049+8
        11 002466   000044 036003                    ADLQ    36,DU
        11 002467   226362 756100                    STQ     NEWPLUG2$+1,,AUTO
        11 002470   200176 236100                    LDQ     I2,,AUTO
        11 002471   000022 402007                    MPY     18,DL
        11 002472   000000 116003                    CMPQ    0,DU
        11 002473   002475 605000 11                 TPL     s:9049+14
        11 002474   000044 036003                    ADLQ    36,DU
        11 002475   226362 235100                    LDA     NEWPLUG2$+1,,AUTO
        11 002476   003106 061405                    CSR     bolr='003'O
        11 002477   000000 000013 xsym               BDSC    PD_PATH_ELEM,A           by=0,bit=0,n=11
        11 002500   100001 000022                    BDSC    1,Q,PR1                  by=0,bit=0,n=18

   9051 11 002501   200176 054100                    AOS     I2,,AUTO

   9052 11 002502   200174 054100                    AOS     J,,AUTO
        11 002503   200173 236100                    LDQ     I,,AUTO
        11 002504   000045 402007                    MPY     37,DL
PL6.E3A0      #001=Z8EG$ERROR_CORR_PROC_DIV File=Z8EG.:Z8A6TSI                   SAT 08/09/97 11:50 Page:57
        11 002505   000000 116003                    CMPQ    0,DU
        11 002506   002510 605000 11                 TPL     s:9052+6
        11 002507   000044 036003                    ADLQ    36,DU
        11 002510   003100 061406                    CSR     bolr='003'O
        11 002511   000000 650005 xsym               BDSC    PD_ITEM,Q                by=3,bit=5,n=5
        11 002512   226362 000044                    BDSC    NEWPLUG2$+1,,AUTO        by=0,bit=0,n=36
        11 002513   200173 236100                    LDQ     I,,AUTO
        11 002514   000045 402007                    MPY     37,DL
        11 002515   000000 116003                    CMPQ    0,DU
        11 002516   002520 605000 11                 TPL     s:9052+14
        11 002517   000044 036003                    ADLQ    36,DU
        11 002520   003100 061406                    CSR     bolr='003'O
        11 002521   000000 410015 xsym               BDSC    PD_ITEM,Q                by=2,bit=1,n=13
        11 002522   226363 000044                    BDSC    NEWPLUG2$+2,,AUTO        by=0,bit=0,n=36
        11 002523   226363 236100                    LDQ     NEWPLUG2$+2,,AUTO
        11 002524   226362 036100                    ADLQ    NEWPLUG2$+1,,AUTO
        11 002525   002244 604000 11                 TMI     s:9016
        11 002526   200174 116100                    CMPQ    J,,AUTO
        11 002527   002244 605400 11                 TPNZ    s:9016

   9054 11 002530   200173 054100                    AOS     I,,AUTO
        11 002531   200173 236100                    LDQ     I,,AUTO
        11 002532   200203 116100                    CMPQ    HIGHBASIS,,AUTO
        11 002533   002207 604400 11                 TMOZ    s:9007

   9058 11 002534   200205 235100                    LDA     MINCOST,,AUTO
        11 002535   303237 115007                    CMPA    99999,DL
        11 002536   002673 605000 11                 TPL     s:9084

   9060 11 002537   200101 755100                    STA     LR+4,,AUTO

   9061 11 002540   200100 450100                    STZ     LR+3,,AUTO

   9063 11 002541   200204 236100                    LDQ     MINITEM,,AUTO
        11 002542   000045 402007                    MPY     37,DL
        11 002543   000000 116003                    CMPQ    0,DU
        11 002544   002546 605000 11                 TPL     s:9063+5
PL6.E3A0      #001=Z8EG$ERROR_CORR_PROC_DIV File=Z8EG.:Z8A6TSI                   SAT 08/09/97 11:50 Page:58
        11 002545   000044 036003                    ADLQ    36,DU
        11 002546   003100 061406                    CSR     bolr='003'O
        11 002547   000000 410015 xsym               BDSC    PD_ITEM,Q                by=2,bit=1,n=13
        11 002550   200174 000044                    BDSC    J,,AUTO                  by=0,bit=0,n=36
        11 002551   002573 710000 11                 TRA     s:9068+1

   9065 11 002552   200174 236100                    LDQ     J,,AUTO
        11 002553   000013 402007                    MPY     11,DL
        11 002554   000000 116003                    CMPQ    0,DU
        11 002555   002557 605000 11                 TPL     s:9065+5
        11 002556   000044 036003                    ADLQ    36,DU
        11 002557   226362 756100                    STQ     NEWPLUG2$+1,,AUTO
        11 002560   200100 236100                    LDQ     LR+3,,AUTO
        11 002561   000022 402007                    MPY     18,DL
        11 002562   000000 116003                    CMPQ    0,DU
        11 002563   002565 605000 11                 TPL     s:9065+11
        11 002564   000044 036003                    ADLQ    36,DU
        11 002565   226362 235100                    LDA     NEWPLUG2$+1,,AUTO
        11 002566   003106 061405                    CSR     bolr='003'O
        11 002567   000000 000013 xsym               BDSC    PD_PATH_ELEM,A           by=0,bit=0,n=11
        11 002570   200102 000022                    BDSC    LR+5,Q,AUTO              by=0,bit=0,n=18

   9066 11 002571   200100 054100                    AOS     LR+3,,AUTO

   9068 11 002572   200174 054100                    AOS     J,,AUTO
        11 002573   200174 236100                    LDQ     J,,AUTO
        11 002574   200206 116100                    CMPQ    MINPOS,,AUTO
        11 002575   002552 604000 11                 TMI     s:9065

   9072 11 002576   200207 236100                    LDQ     MINLCPINDX,,AUTO
        11 002577   000056 402007                    MPY     46,DL
        11 002600   000000 116003                    CMPQ    0,DU
        11 002601   002603 605000 11                 TPL     s:9072+5
        11 002602   000044 036003                    ADLQ    36,DU
        11 002603   003100 061406                    CSR     bolr='003'O
        11 002604   000001 060004 xsym               BDSC    PD_LCP+1,Q               by=0,bit=6,n=4
        11 002605   226362 000044                    BDSC    NEWPLUG2$+1,,AUTO        by=0,bit=0,n=36
PL6.E3A0      #001=Z8EG$ERROR_CORR_PROC_DIV File=Z8EG.:Z8A6TSI                   SAT 08/09/97 11:50 Page:59
        11 002606   226362 236100                    LDQ     NEWPLUG2$+1,,AUTO
        11 002607   200100 036100                    ADLQ    LR+3,,AUTO
        11 002610   000144 116007                    CMPQ    100,DL
        11 002611   002614 604400 11                 TMOZ    s:9075

   9073 11 002612   000424 701000 11                 TSX1    ABORT_CORRECTION
        11 002613   000000 011000                    NOP     0

   9075 11 002614   200207 236100                    LDQ     MINLCPINDX,,AUTO
        11 002615   000056 402007                    MPY     46,DL
        11 002616   000000 116003                    CMPQ    0,DU
        11 002617   002621 605000 11                 TPL     s:9075+5
        11 002620   000044 036003                    ADLQ    36,DU
        11 002621   003100 061406                    CSR     bolr='003'O
        11 002622   000000 600017 xsym               BDSC    PD_LCP,Q                 by=3,bit=0,n=15
        11 002623   200174 000044                    BDSC    J,,AUTO                  by=0,bit=0,n=36
        11 002624   002646 710000 11                 TRA     s:9081+1

   9078 11 002625   200174 236100                    LDQ     J,,AUTO
        11 002626   000013 402007                    MPY     11,DL
        11 002627   000000 116003                    CMPQ    0,DU
        11 002630   002632 605000 11                 TPL     s:9078+5
        11 002631   000044 036003                    ADLQ    36,DU
        11 002632   226362 756100                    STQ     NEWPLUG2$+1,,AUTO
        11 002633   200100 236100                    LDQ     LR+3,,AUTO
        11 002634   000022 402007                    MPY     18,DL
        11 002635   000000 116003                    CMPQ    0,DU
        11 002636   002640 605000 11                 TPL     s:9078+11
        11 002637   000044 036003                    ADLQ    36,DU
        11 002640   226362 235100                    LDA     NEWPLUG2$+1,,AUTO
        11 002641   003106 061405                    CSR     bolr='003'O
        11 002642   000000 000013 xsym               BDSC    PD_LCP_ELEM,A            by=0,bit=0,n=11
        11 002643   200102 000022                    BDSC    LR+5,Q,AUTO              by=0,bit=0,n=18

   9079 11 002644   200100 054100                    AOS     LR+3,,AUTO

   9081 11 002645   200174 054100                    AOS     J,,AUTO
PL6.E3A0      #001=Z8EG$ERROR_CORR_PROC_DIV File=Z8EG.:Z8A6TSI                   SAT 08/09/97 11:50 Page:60
        11 002646   200207 236100                    LDQ     MINLCPINDX,,AUTO
        11 002647   000056 402007                    MPY     46,DL
        11 002650   000000 116003                    CMPQ    0,DU
        11 002651   002653 605000 11                 TPL     s:9081+6
        11 002652   000044 036003                    ADLQ    36,DU
        11 002653   003100 061406                    CSR     bolr='003'O
        11 002654   000001 060004 xsym               BDSC    PD_LCP+1,Q               by=0,bit=6,n=4
        11 002655   226362 000044                    BDSC    NEWPLUG2$+1,,AUTO        by=0,bit=0,n=36
        11 002656   200207 236100                    LDQ     MINLCPINDX,,AUTO
        11 002657   000056 402007                    MPY     46,DL
        11 002660   000000 116003                    CMPQ    0,DU
        11 002661   002663 605000 11                 TPL     s:9081+14
        11 002662   000044 036003                    ADLQ    36,DU
        11 002663   003100 061406                    CSR     bolr='003'O
        11 002664   000000 600017 xsym               BDSC    PD_LCP,Q                 by=3,bit=0,n=15
        11 002665   226363 000044                    BDSC    NEWPLUG2$+2,,AUTO        by=0,bit=0,n=36
        11 002666   226363 236100                    LDQ     NEWPLUG2$+2,,AUTO
        11 002667   226362 036100                    ADLQ    NEWPLUG2$+1,,AUTO
        11 002670   002625 604000 11                 TMI     s:9078
        11 002671   200174 116100                    CMPQ    J,,AUTO
        11 002672   002625 605400 11                 TPNZ    s:9078

   9084 11 002673   400000 220003                    LDX0    -131072,DU
        11 002674   200175 235100                    LDA     K,,AUTO
        11 002675   002677 605400 11                 TPNZ    s:9084+4
        11 002676   000000 220003                    LDX0    0,DU
        11 002677   000000 636010                    EAQ     0,X0
        11 002700   226337 756100                    STQ     WORTHCONTINUING,,AUTO

   9086 11 002701   226337 234100                    SZN     WORTHCONTINUING,,AUTO
        11 002702   004100 605000 11                 TPL     s:9249

   9088 11 002703   226337 450100                    STZ     WORTHCONTINUING,,AUTO

   9094 11 002704   200175 720100                    LXL0    K,,AUTO
        11 002705   001364 236010 xsym               LDQ     O1COM+756,X0
        11 002706   000036 402007                    MPY     30,DL
PL6.E3A0      #001=Z8EG$ERROR_CORR_PROC_DIV File=Z8EG.:Z8A6TSI                   SAT 08/09/97 11:50 Page:61
        11 002707   000000 116003                    CMPQ    0,DU
        11 002710   002712 605000 11                 TPL     s:9094+6
        11 002711   000044 036003                    ADLQ    36,DU
        11 002712   003100 061406                    CSR     bolr='003'O
        11 002713   777777 430017 xsym               BDSC    PD_STATE_ITEM-1,Q        by=2,bit=3,n=15
        11 002714   226362 000044                    BDSC    NEWPLUG2$+1,,AUTO        by=0,bit=0,n=36
        11 002715   226362 236100                    LDQ     NEWPLUG2$+1,,AUTO
        11 002716   000001 036007                    ADLQ    1,DL
        11 002717   226340 756100                    STQ     CURRLOWBASIS,,AUTO

   9095 11 002720   001364 236010 xsym               LDQ     O1COM+756,X0
        11 002721   000036 402007                    MPY     30,DL
        11 002722   000000 116003                    CMPQ    0,DU
        11 002723   002725 605000 11                 TPL     s:9095+5
        11 002724   000044 036003                    ADLQ    36,DU
        11 002725   003100 061406                    CSR     bolr='003'O
        11 002726   000000 000017 xsym               BDSC    PD_STATE_ITEM,Q          by=0,bit=0,n=15
        11 002727   226341 000044                    BDSC    CURRHIGHBASIS,,AUTO      by=0,bit=0,n=36

   9099 11 002730   226342 450100                    STZ     ITM,,AUTO
        11 002731   004060 710000 11                 TRA     s:9235+1

   9101 11 002732   200214 470500                    LDP0    CURRSTAGE$,,AUTO
        11 002733   226342 720100                    LXL0    ITM,,AUTO
        11 002734   000000 471510                    LDP1    0,X0,PR0
        11 002735   000100 100500                    MLR     fill='000'O
        11 002736   100000 000002                    ADSC9   0,,PR1                   cn=0,n=2
        11 002737   226362 000004                    ADSC9   NEWPLUG2$+1,,AUTO        cn=0,n=4
        11 002740   226362 236100                    LDQ     NEWPLUG2$+1,,AUTO
        11 002741   000022 732000                    QRS     18
        11 002742   200101 116100                    CMPQ    LR+4,,AUTO
        11 002743   004057 605000 11                 TPL     s:9235

   9103 11 002744   400000 236003                    LDQ     -131072,DU
        11 002745   226337 756100                    STQ     WORTHCONTINUING,,AUTO

   9105 11 002746   226342 631500                    EPPR1   ITM,,AUTO
PL6.E3A0      #001=Z8EG$ERROR_CORR_PROC_DIV File=Z8EG.:Z8A6TSI                   SAT 08/09/97 11:50 Page:62
        11 002747   226355 451500                    STP1    @ERROR_TYPE,,AUTO
        11 002750   200175 721100                    LXL1    K,,AUTO
        11 002751   001364 633411 xsym               EPPR3   O1COM+756,X1
        11 002752   226354 453500                    STP3    @PREVSTATE+1,,AUTO
        11 002753   001363 634411 xsym               EPPR4   O1COM+755,X1
        11 002754   226353 454500                    STP4    PELEM+2,,AUTO
        11 002755   002053 701000 11                 TSX1    FINDPRED
        11 002756   000000 011000                    NOP     0

   9113 11 002757   200175 720100                    LXL0    K,,AUTO
        11 002760   001363 236010 xsym               LDQ     O1COM+755,X0
        11 002761   000036 402007                    MPY     30,DL
        11 002762   000000 116003                    CMPQ    0,DU
        11 002763   002765 605000 11                 TPL     s:9113+6
        11 002764   000044 036003                    ADLQ    36,DU
        11 002765   003100 061406                    CSR     bolr='003'O
        11 002766   777777 430017 xsym               BDSC    PD_STATE_ITEM-1,Q        by=2,bit=3,n=15
        11 002767   226362 000044                    BDSC    NEWPLUG2$+1,,AUTO        by=0,bit=0,n=36
        11 002770   226362 236100                    LDQ     NEWPLUG2$+1,,AUTO
        11 002771   000001 036007                    ADLQ    1,DL
        11 002772   226343 756100                    STQ     NEXTLOWBASIS,,AUTO

   9114 11 002773   001363 236010 xsym               LDQ     O1COM+755,X0
        11 002774   000036 402007                    MPY     30,DL
        11 002775   000000 116003                    CMPQ    0,DU
        11 002776   003000 605000 11                 TPL     s:9114+5
        11 002777   000044 036003                    ADLQ    36,DU
        11 003000   003100 061406                    CSR     bolr='003'O
        11 003001   000000 000017 xsym               BDSC    PD_STATE_ITEM,Q          by=0,bit=0,n=15
        11 003002   226344 000044                    BDSC    NEXTHIGHBASIS,,AUTO      by=0,bit=0,n=36

   9118 11 003003   226336 234100                    SZN     PRED_CLOSURE,,AUTO
        11 003004   004024 605000 11                 TPL     s:9232

   9121 11 003005   226345 450100                    STZ     NEXTITEM,,AUTO
        11 003006   003312 710000 11                 TRA     s:9152+1

PL6.E3A0      #001=Z8EG$ERROR_CORR_PROC_DIV File=Z8EG.:Z8A6TSI                   SAT 08/09/97 11:50 Page:63
   9125 11 003007   226335 236100                    LDQ     PRED_ITEM,,AUTO
        11 003010   000045 402007                    MPY     37,DL
        11 003011   000000 116003                    CMPQ    0,DU
        11 003012   003014 605000 11                 TPL     s:9125+5
        11 003013   000044 036003                    ADLQ    36,DU
        11 003014   003100 061406                    CSR     bolr='003'O
        11 003015   000000 410015 xsym               BDSC    PD_ITEM,Q                by=2,bit=1,n=13
        11 003016   226362 000044                    BDSC    NEWPLUG2$+1,,AUTO        by=0,bit=0,n=36
        11 003017   226362 236100                    LDQ     NEWPLUG2$+1,,AUTO
        11 003020   226345 036100                    ADLQ    NEXTITEM,,AUTO
        11 003021   226346 756100                    STQ     P,,AUTO

   9127 11 003022   226346 235100                    LDA     P,,AUTO
        11 003023   000004 735000                    ALS     4
        11 003024   003026 605000 11                 TPL     s:9127+4
        11 003025   000044 035003                    ADLA    36,DU
        11 003026   003100 060405                    CSL     bolr='003'O
        11 003027   000000 000014 xsym               BDSC    PD_PATH,A                by=0,bit=0,n=12
        11 003030   226362 000044                    BDSC    NEWPLUG2$+1,,AUTO        by=0,bit=0,n=36
        11 003031   226362 236100                    LDQ     NEWPLUG2$+1,,AUTO
        11 003032   000030 732000                    QRS     24
        11 003033   000000 116003                    CMPQ    0,DU
        11 003034   003040 605000 11                 TPL     s:9131

   9128 11 003035   303237 235007                    LDA     99999,DL
        11 003036   226350 755100                    STA     PATH_COST,,AUTO
        11 003037   003120 710000 11                 TRA     s:9136

   9131 11 003040   226350 450100                    STZ     PATH_COST,,AUTO

   9132 11 003041   226346 235100                    LDA     P,,AUTO
        11 003042   000004 735000                    ALS     4
        11 003043   003045 605000 11                 TPL     s:9132+4
        11 003044   000044 035003                    ADLA    36,DU
        11 003045   003100 060405                    CSL     bolr='003'O
        11 003046   000000 000014 xsym               BDSC    PD_PATH,A                by=0,bit=0,n=12
        11 003047   226362 000044                    BDSC    NEWPLUG2$+1,,AUTO        by=0,bit=0,n=36
PL6.E3A0      #001=Z8EG$ERROR_CORR_PROC_DIV File=Z8EG.:Z8A6TSI                   SAT 08/09/97 11:50 Page:64
        11 003050   226362 236100                    LDQ     NEWPLUG2$+1,,AUTO
        11 003051   000030 732000                    QRS     24
        11 003052   226347 756100                    STQ     PE,,AUTO
        11 003053   003075 710000 11                 TRA     s:9134+1

   9133 11 003054   226347 236100                    LDQ     PE,,AUTO
        11 003055   000013 402007                    MPY     11,DL
        11 003056   000000 116003                    CMPQ    0,DU
        11 003057   003061 605000 11                 TPL     s:9133+5
        11 003060   000044 036003                    ADLQ    36,DU
        11 003061   003100 061406                    CSR     bolr='003'O
        11 003062   000000 000013 xsym               BDSC    PD_PATH_ELEM,Q           by=0,bit=0,n=11
        11 003063   226362 000044                    BDSC    NEWPLUG2$+1,,AUTO        by=0,bit=0,n=36
        11 003064   226362 236100                    LDQ     NEWPLUG2$+1,,AUTO
        11 003065   000037 402007                    MPY     31,DL
        11 003066   003100 061406                    CSR     bolr='003'O
        11 003067   000000 000021 xsym               BDSC    PD_LCS,Q                 by=0,bit=0,n=17
        11 003070   226363 000044                    BDSC    NEWPLUG2$+2,,AUTO        by=0,bit=0,n=36
        11 003071   226363 236100                    LDQ     NEWPLUG2$+2,,AUTO
        11 003072   226350 036100                    ADLQ    PATH_COST,,AUTO
        11 003073   226350 756100                    STQ     PATH_COST,,AUTO

   9134 11 003074   226347 054100                    AOS     PE,,AUTO
        11 003075   226346 235100                    LDA     P,,AUTO
        11 003076   000004 735000                    ALS     4
        11 003077   003101 605000 11                 TPL     s:9134+5
        11 003100   000044 035003                    ADLA    36,DU
        11 003101   003100 061405                    CSR     bolr='003'O
        11 003102   000000 230004 xsym               BDSC    PD_PATH,A                by=1,bit=3,n=4
        11 003103   226362 000044                    BDSC    NEWPLUG2$+1,,AUTO        by=0,bit=0,n=36
        11 003104   226346 235100                    LDA     P,,AUTO
        11 003105   000004 735000                    ALS     4
        11 003106   003110 605000 11                 TPL     s:9134+12
        11 003107   000044 035003                    ADLA    36,DU
        11 003110   003100 060405                    CSL     bolr='003'O
        11 003111   000000 000014 xsym               BDSC    PD_PATH,A                by=0,bit=0,n=12
        11 003112   226363 000044                    BDSC    NEWPLUG2$+2,,AUTO        by=0,bit=0,n=36
PL6.E3A0      #001=Z8EG$ERROR_CORR_PROC_DIV File=Z8EG.:Z8A6TSI                   SAT 08/09/97 11:50 Page:65
        11 003113   226363 236100                    LDQ     NEWPLUG2$+2,,AUTO
        11 003114   000030 732000                    QRS     24
        11 003115   226362 036100                    ADLQ    NEWPLUG2$+1,,AUTO
        11 003116   226347 116100                    CMPQ    PE,,AUTO
        11 003117   003054 605400 11                 TPNZ    s:9133

   9136 11 003120   200214 470500                    LDP0    CURRSTAGE$,,AUTO
        11 003121   226342 720100                    LXL0    ITM,,AUTO
        11 003122   000000 471510                    LDP1    0,X0,PR0
        11 003123   000100 100500                    MLR     fill='000'O
        11 003124   100000 000002                    ADSC9   0,,PR1                   cn=0,n=2
        11 003125   226362 000004                    ADSC9   NEWPLUG2$+1,,AUTO        cn=0,n=4
        11 003126   226362 236100                    LDQ     NEWPLUG2$+1,,AUTO
        11 003127   000022 732000                    QRS     18
        11 003130   226350 036100                    ADLQ    PATH_COST,,AUTO
        11 003131   200215 471500                    LDP1    NEXTSTAGE$,,AUTO
        11 003132   226345 721100                    LXL1    NEXTITEM,,AUTO
        11 003133   100000 473511                    LDP3    0,X1,PR1
        11 003134   000100 100500                    MLR     fill='000'O
        11 003135   300000 000002                    ADSC9   0,,PR3                   cn=0,n=2
        11 003136   226363 000004                    ADSC9   NEWPLUG2$+2,,AUTO        cn=0,n=4
        11 003137   226364 756100                    STQ     NEWPLUG2$+3,,AUTO
        11 003140   226363 236100                    LDQ     NEWPLUG2$+2,,AUTO
        11 003141   000022 732000                    QRS     18
        11 003142   226365 756100                    STQ     NEWPLUG2$+4,,AUTO
        11 003143   226364 236100                    LDQ     NEWPLUG2$+3,,AUTO
        11 003144   226365 116100                    CMPQ    NEWPLUG2$+4,,AUTO
        11 003145   003311 605000 11                 TPL     s:9152

   9139 11 003146   100000 473511                    LDP3    0,X1,PR1
        11 003147   000000 474510                    LDP4    0,X0,PR0
        11 003150   000100 100500                    MLR     fill='000'O
        11 003151   400000 000316                    ADSC9   0,,PR4                   cn=0,n=206
        11 003152   300000 000316                    ADSC9   0,,PR3                   cn=0,n=206

   9141 11 003153   226346 235100                    LDA     P,,AUTO
        11 003154   000004 735000                    ALS     4
PL6.E3A0      #001=Z8EG$ERROR_CORR_PROC_DIV File=Z8EG.:Z8A6TSI                   SAT 08/09/97 11:50 Page:66
        11 003155   003157 605000 11                 TPL     s:9141+4
        11 003156   000044 035003                    ADLA    36,DU
        11 003157   003100 060405                    CSL     bolr='003'O
        11 003160   000000 000014 xsym               BDSC    PD_PATH,A                by=0,bit=0,n=12
        11 003161   226362 000044                    BDSC    NEWPLUG2$+1,,AUTO        by=0,bit=0,n=36
        11 003162   226362 236100                    LDQ     NEWPLUG2$+1,,AUTO
        11 003163   000030 732000                    QRS     24
        11 003164   226347 756100                    STQ     PE,,AUTO
        11 003165   003246 710000 11                 TRA     s:9148+1

   9142 11 003166   200215 470500                    LDP0    NEXTSTAGE$,,AUTO
        11 003167   226345 720100                    LXL0    NEXTITEM,,AUTO
        11 003170   000000 471510                    LDP1    0,X0,PR0
        11 003171   000100 100500                    MLR     fill='000'O
        11 003172   100000 400002                    ADSC9   0,,PR1                   cn=2,n=2
        11 003173   226362 000004                    ADSC9   NEWPLUG2$+1,,AUTO        cn=0,n=4
        11 003174   226362 236100                    LDQ     NEWPLUG2$+1,,AUTO
        11 003175   000022 732000                    QRS     18
        11 003176   000144 116007                    CMPQ    100,DL
        11 003177   003202 604000 11                 TMI     s:9144

   9143 11 003200   000424 701000 11                 TSX1    ABORT_CORRECTION
        11 003201   000000 011000                    NOP     0

   9144 11 003202   200215 470500                    LDP0    NEXTSTAGE$,,AUTO
        11 003203   226345 720100                    LXL0    NEXTITEM,,AUTO
        11 003204   000000 471510                    LDP1    0,X0,PR0
        11 003205   000100 100500                    MLR     fill='000'O
        11 003206   100000 400002                    ADSC9   0,,PR1                   cn=2,n=2
        11 003207   226362 000004                    ADSC9   NEWPLUG2$+1,,AUTO        cn=0,n=4
        11 003210   226362 236100                    LDQ     NEWPLUG2$+1,,AUTO
        11 003211   000022 732000                    QRS     18
        11 003212   226363 756100                    STQ     NEWPLUG2$+2,,AUTO
        11 003213   226347 236100                    LDQ     PE,,AUTO
        11 003214   000013 402007                    MPY     11,DL
        11 003215   000000 116003                    CMPQ    0,DU
        11 003216   003220 605000 11                 TPL     s:9144+14
PL6.E3A0      #001=Z8EG$ERROR_CORR_PROC_DIV File=Z8EG.:Z8A6TSI                   SAT 08/09/97 11:50 Page:67
        11 003217   000044 036003                    ADLQ    36,DU
        11 003220   226364 756100                    STQ     NEWPLUG2$+3,,AUTO
        11 003221   226363 236100                    LDQ     NEWPLUG2$+2,,AUTO
        11 003222   000022 402007                    MPY     18,DL
        11 003223   000000 116003                    CMPQ    0,DU
        11 003224   003226 605000 11                 TPL     s:9144+20
        11 003225   000044 036003                    ADLQ    36,DU
        11 003226   226364 235100                    LDA     NEWPLUG2$+3,,AUTO
        11 003227   003106 061405                    CSR     bolr='003'O
        11 003230   000000 000013 xsym               BDSC    PD_PATH_ELEM,A           by=0,bit=0,n=11
        11 003231   100001 000022                    BDSC    1,Q,PR1                  by=0,bit=0,n=18

   9146 11 003232   000000 471510                    LDP1    0,X0,PR0
        11 003233   000100 100500                    MLR     fill='000'O
        11 003234   100000 400002                    ADSC9   0,,PR1                   cn=2,n=2
        11 003235   226363 000004                    ADSC9   NEWPLUG2$+2,,AUTO        cn=0,n=4
        11 003236   226363 236100                    LDQ     NEWPLUG2$+2,,AUTO
        11 003237   000022 732000                    QRS     18
        11 003240   000001 036007                    ADLQ    1,DL
        11 003241   226362 756100                    STQ     NEWPLUG2$+1,,AUTO
        11 003242   000100 101500                    MRL     fill='000'O
        11 003243   226362 000004                    ADSC9   NEWPLUG2$+1,,AUTO        cn=0,n=4
        11 003244   100000 400002                    ADSC9   0,,PR1                   cn=2,n=2

   9148 11 003245   226347 054100                    AOS     PE,,AUTO
        11 003246   226346 235100                    LDA     P,,AUTO
        11 003247   000004 735000                    ALS     4
        11 003250   003252 605000 11                 TPL     s:9148+5
        11 003251   000044 035003                    ADLA    36,DU
        11 003252   003100 061405                    CSR     bolr='003'O
        11 003253   000000 230004 xsym               BDSC    PD_PATH,A                by=1,bit=3,n=4
        11 003254   226362 000044                    BDSC    NEWPLUG2$+1,,AUTO        by=0,bit=0,n=36
        11 003255   226346 235100                    LDA     P,,AUTO
        11 003256   000004 735000                    ALS     4
        11 003257   003261 605000 11                 TPL     s:9148+12
        11 003260   000044 035003                    ADLA    36,DU
        11 003261   003100 060405                    CSL     bolr='003'O
PL6.E3A0      #001=Z8EG$ERROR_CORR_PROC_DIV File=Z8EG.:Z8A6TSI                   SAT 08/09/97 11:50 Page:68
        11 003262   000000 000014 xsym               BDSC    PD_PATH,A                by=0,bit=0,n=12
        11 003263   226363 000044                    BDSC    NEWPLUG2$+2,,AUTO        by=0,bit=0,n=36
        11 003264   226363 236100                    LDQ     NEWPLUG2$+2,,AUTO
        11 003265   000030 732000                    QRS     24
        11 003266   226362 036100                    ADLQ    NEWPLUG2$+1,,AUTO
        11 003267   226347 116100                    CMPQ    PE,,AUTO
        11 003270   003166 605400 11                 TPNZ    s:9142

   9150 11 003271   200215 470500                    LDP0    NEXTSTAGE$,,AUTO
        11 003272   226345 720100                    LXL0    NEXTITEM,,AUTO
        11 003273   000000 471510                    LDP1    0,X0,PR0
        11 003274   200214 473500                    LDP3    CURRSTAGE$,,AUTO
        11 003275   226342 721100                    LXL1    ITM,,AUTO
        11 003276   300000 474511                    LDP4    0,X1,PR3
        11 003277   000100 100500                    MLR     fill='000'O
        11 003300   400000 000002                    ADSC9   0,,PR4                   cn=0,n=2
        11 003301   226362 000004                    ADSC9   NEWPLUG2$+1,,AUTO        cn=0,n=4
        11 003302   226362 236100                    LDQ     NEWPLUG2$+1,,AUTO
        11 003303   000022 732000                    QRS     18
        11 003304   226350 036100                    ADLQ    PATH_COST,,AUTO
        11 003305   226363 756100                    STQ     NEWPLUG2$+2,,AUTO
        11 003306   000100 101500                    MRL     fill='000'O
        11 003307   226363 000004                    ADSC9   NEWPLUG2$+2,,AUTO        cn=0,n=4
        11 003310   100000 000002                    ADSC9   0,,PR1                   cn=0,n=2

   9152 11 003311   226345 054100                    AOS     NEXTITEM,,AUTO
        11 003312   226344 236100                    LDQ     NEXTHIGHBASIS,,AUTO
        11 003313   226343 136100                    SBLQ    NEXTLOWBASIS,,AUTO
        11 003314   226345 116100                    CMPQ    NEXTITEM,,AUTO
        11 003315   003007 605000 11                 TPL     s:9125

   9156 11 003316   200214 470500                    LDP0    CURRSTAGE$,,AUTO
        11 003317   226342 720100                    LXL0    ITM,,AUTO
        11 003320   000000 471510                    LDP1    0,X0,PR0
        11 003321   000100 100500                    MLR     fill='000'O
        11 003322   100000 000002                    ADSC9   0,,PR1                   cn=0,n=2
        11 003323   226362 000004                    ADSC9   NEWPLUG2$+1,,AUTO        cn=0,n=4
PL6.E3A0      #001=Z8EG$ERROR_CORR_PROC_DIV File=Z8EG.:Z8A6TSI                   SAT 08/09/97 11:50 Page:69
        11 003324   226362 236100                    LDQ     NEWPLUG2$+1,,AUTO
        11 003325   000022 732000                    QRS     18
        11 003326   200101 116100                    CMPQ    LR+4,,AUTO
        11 003327   004057 605000 11                 TPL     s:9235

   9158 11 003330   303237 235007                    LDA     99999,DL
        11 003331   200205 755100                    STA     MINCOST,,AUTO

   9161 11 003332   226335 236100                    LDQ     PRED_ITEM,,AUTO
        11 003333   000045 402007                    MPY     37,DL
        11 003334   000000 116003                    CMPQ    0,DU
        11 003335   003337 605000 11                 TPL     s:9161+5
        11 003336   000044 036003                    ADLQ    36,DU
        11 003337   003100 061406                    CSR     bolr='003'O
        11 003340   000000 410015 xsym               BDSC    PD_ITEM,Q                by=2,bit=1,n=13
        11 003341   226346 000044                    BDSC    P,,AUTO                  by=0,bit=0,n=36
        11 003342   003577 710000 11                 TRA     s:9203+1

   9164 11 003343   200212 450100                    STZ     TRYCOST,,AUTO

   9165 11 003344   200213 450100                    STZ     ACCUM_COST,,AUTO

   9166 11 003345   226346 235100                    LDA     P,,AUTO
        11 003346   000004 735000                    ALS     4
        11 003347   003351 605000 11                 TPL     s:9166+4
        11 003350   000044 035003                    ADLA    36,DU
        11 003351   003100 060405                    CSL     bolr='003'O
        11 003352   000000 000014 xsym               BDSC    PD_PATH,A                by=0,bit=0,n=12
        11 003353   226362 000044                    BDSC    NEWPLUG2$+1,,AUTO        by=0,bit=0,n=36
        11 003354   226362 236100                    LDQ     NEWPLUG2$+1,,AUTO
        11 003355   000030 732000                    QRS     24
        11 003356   000000 116003                    CMPQ    0,DU
        11 003357   003576 604000 11                 TMI     s:9203

   9167 11 003360   226346 235100                    LDA     P,,AUTO
        11 003361   000004 735000                    ALS     4
        11 003362   003364 605000 11                 TPL     s:9167+4
PL6.E3A0      #001=Z8EG$ERROR_CORR_PROC_DIV File=Z8EG.:Z8A6TSI                   SAT 08/09/97 11:50 Page:70
        11 003363   000044 035003                    ADLA    36,DU
        11 003364   003100 060405                    CSL     bolr='003'O
        11 003365   000000 000014 xsym               BDSC    PD_PATH,A                by=0,bit=0,n=12
        11 003366   226362 000044                    BDSC    NEWPLUG2$+1,,AUTO        by=0,bit=0,n=36
        11 003367   226362 236100                    LDQ     NEWPLUG2$+1,,AUTO
        11 003370   000030 732000                    QRS     24
        11 003371   226347 756100                    STQ     PE,,AUTO
        11 003372   003553 710000 11                 TRA     s:9202+1

   9168 11 003373   226347 236100                    LDQ     PE,,AUTO
        11 003374   000013 402007                    MPY     11,DL
        11 003375   000000 116003                    CMPQ    0,DU
        11 003376   003400 605000 11                 TPL     s:9168+5
        11 003377   000044 036003                    ADLQ    36,DU
        11 003400   003100 061406                    CSR     bolr='003'O
        11 003401   000000 000013 xsym               BDSC    PD_PATH_ELEM,Q           by=0,bit=0,n=11
        11 003402   226351 000022                    BDSC    PELEM,,AUTO              by=0,bit=0,n=18

   9171 11 003403   200077 235100                    LDA     LR+2,,AUTO
        11 003404   000003 735000                    ALS     3
        11 003405   000242 236005 xsym               LDQ     O1COM+162,AL
        11 003406   000017 402007                    MPY     15,DL
        11 003407   000000 116003                    CMPQ    0,DU
        11 003410   003412 605000 11                 TPL     s:9171+7
        11 003411   000044 036003                    ADLQ    36,DU
        11 003412   003100 061406                    CSR     bolr='003'O
        11 003413   000000 000017 xsym               BDSC    PD_LCP_UBOUND,Q          by=0,bit=0,n=15
        11 003414   200177 000044                    BDSC    H,,AUTO                  by=0,bit=0,n=36

   9172 11 003415   200077 235100                    LDA     LR+2,,AUTO
        11 003416   000003 735000                    ALS     3
        11 003417   000242 236005 xsym               LDQ     O1COM+162,AL
        11 003420   000017 402007                    MPY     15,DL
        11 003421   000000 116003                    CMPQ    0,DU
        11 003422   003424 605000 11                 TPL     s:9172+7
        11 003423   000044 036003                    ADLQ    36,DU
        11 003424   003100 061406                    CSR     bolr='003'O
PL6.E3A0      #001=Z8EG$ERROR_CORR_PROC_DIV File=Z8EG.:Z8A6TSI                   SAT 08/09/97 11:50 Page:71
        11 003425   777777 430017 xsym               BDSC    PD_LCP_UBOUND-1,Q        by=2,bit=3,n=15
        11 003426   226362 000044                    BDSC    NEWPLUG2$+1,,AUTO        by=0,bit=0,n=36
        11 003427   226362 236100                    LDQ     NEWPLUG2$+1,,AUTO
        11 003430   000001 036007                    ADLQ    1,DL
        11 003431   200200 756100                    STQ     L,,AUTO

   9173 11 003432   000001 335007                    LCA     1,DL
        11 003433   200211 755100                    STA     LCP_ELEM_RET,,AUTO

   9174 11 003434   200177 116100                    CMPQ    H,,AUTO
        11 003435   003437 600000 11                 TZE     s:9175
        11 003436   003504 603000 11                 TRC     s:9190

   9175 11 003437   200200 236100                    LDQ     L,,AUTO
        11 003440   200177 036100                    ADLQ    H,,AUTO
        11 003441   000001 772000                    QRL     1
        11 003442   200201 756100                    STQ     M,,AUTO

   9176 11 003443   000056 402007                    MPY     46,DL
        11 003444   003100 061406                    CSR     bolr='003'O
        11 003445   000000 000022 xsym               BDSC    PD_LCP,Q                 by=0,bit=0,n=18
        11 003446   226362 000044                    BDSC    NEWPLUG2$+1,,AUTO        by=0,bit=0,n=36
        11 003447   226351 236100                    LDQ     PELEM,,AUTO
        11 003450   000022 772000                    QRL     18
        11 003451   226362 116100                    CMPQ    NEWPLUG2$+1,,AUTO
        11 003452   003461 601000 11                 TNZ     s:9182

   9178 11 003453   200201 235100                    LDA     M,,AUTO
        11 003454   200211 755100                    STA     LCP_ELEM_RET,,AUTO

   9179 11 003455   200200 235100                    LDA     L,,AUTO
        11 003456   000001 135007                    SBLA    1,DL
        11 003457   200177 755100                    STA     H,,AUTO

   9180 11 003460   003501 710000 11                 TRA     s:9186

   9182 11 003461   200201 236100                    LDQ     M,,AUTO
PL6.E3A0      #001=Z8EG$ERROR_CORR_PROC_DIV File=Z8EG.:Z8A6TSI                   SAT 08/09/97 11:50 Page:72
        11 003462   000056 402007                    MPY     46,DL
        11 003463   003100 061406                    CSR     bolr='003'O
        11 003464   000000 000022 xsym               BDSC    PD_LCP,Q                 by=0,bit=0,n=18
        11 003465   226362 000044                    BDSC    NEWPLUG2$+1,,AUTO        by=0,bit=0,n=36
        11 003466   226351 236100                    LDQ     PELEM,,AUTO
        11 003467   000022 772000                    QRL     18
        11 003470   226362 116100                    CMPQ    NEWPLUG2$+1,,AUTO
        11 003471   003476 605000 11                 TPL     s:9185

   9183 11 003472   200201 235100                    LDA     M,,AUTO
        11 003473   000001 135007                    SBLA    1,DL
        11 003474   200177 755100                    STA     H,,AUTO
        11 003475   003501 710000 11                 TRA     s:9186

   9185 11 003476   200201 235100                    LDA     M,,AUTO
        11 003477   000001 035007                    ADLA    1,DL
        11 003500   200200 755100                    STA     L,,AUTO

   9186 11 003501   200177 236100                    LDQ     H,,AUTO
        11 003502   200200 116100                    CMPQ    L,,AUTO
        11 003503   003437 603000 11                 TRC     s:9175

   9190 11 003504   200211 235100                    LDA     LCP_ELEM_RET,,AUTO
        11 003505   003532 604000 11                 TMI     s:9201

   9192 11 003506   200211 236100                    LDQ     LCP_ELEM_RET,,AUTO
        11 003507   000056 402007                    MPY     46,DL
        11 003510   000000 116003                    CMPQ    0,DU
        11 003511   003513 605000 11                 TPL     s:9192+5
        11 003512   000044 036003                    ADLQ    36,DU
        11 003513   003100 061406                    CSR     bolr='003'O
        11 003514   000000 400011 xsym               BDSC    PD_LCP,Q                 by=2,bit=0,n=9
        11 003515   226362 000044                    BDSC    NEWPLUG2$+1,,AUTO        by=0,bit=0,n=36
        11 003516   226362 236100                    LDQ     NEWPLUG2$+1,,AUTO
        11 003517   200213 036100                    ADLQ    ACCUM_COST,,AUTO
        11 003520   200212 756100                    STQ     TRYCOST,,AUTO

PL6.E3A0      #001=Z8EG$ERROR_CORR_PROC_DIV File=Z8EG.:Z8A6TSI                   SAT 08/09/97 11:50 Page:73
   9193 11 003521   200205 116100                    CMPQ    MINCOST,,AUTO
        11 003522   003532 605000 11                 TPL     s:9201

   9195 11 003523   226346 235100                    LDA     P,,AUTO
        11 003524   200210 755100                    STA     MINPATH,,AUTO

   9196 11 003525   226347 235100                    LDA     PE,,AUTO
        11 003526   200206 755100                    STA     MINPOS,,AUTO

   9197 11 003527   200205 756100                    STQ     MINCOST,,AUTO

   9198 11 003530   200211 235100                    LDA     LCP_ELEM_RET,,AUTO
        11 003531   200207 755100                    STA     MINLCPINDX,,AUTO

   9201 11 003532   226347 236100                    LDQ     PE,,AUTO
        11 003533   000013 402007                    MPY     11,DL
        11 003534   000000 116003                    CMPQ    0,DU
        11 003535   003537 605000 11                 TPL     s:9201+5
        11 003536   000044 036003                    ADLQ    36,DU
        11 003537   003100 061406                    CSR     bolr='003'O
        11 003540   000000 000013 xsym               BDSC    PD_PATH_ELEM,Q           by=0,bit=0,n=11
        11 003541   226362 000044                    BDSC    NEWPLUG2$+1,,AUTO        by=0,bit=0,n=36
        11 003542   226362 236100                    LDQ     NEWPLUG2$+1,,AUTO
        11 003543   000037 402007                    MPY     31,DL
        11 003544   003100 061406                    CSR     bolr='003'O
        11 003545   000000 000021 xsym               BDSC    PD_LCS,Q                 by=0,bit=0,n=17
        11 003546   226363 000044                    BDSC    NEWPLUG2$+2,,AUTO        by=0,bit=0,n=36
        11 003547   226363 236100                    LDQ     NEWPLUG2$+2,,AUTO
        11 003550   200213 036100                    ADLQ    ACCUM_COST,,AUTO
        11 003551   200213 756100                    STQ     ACCUM_COST,,AUTO

   9202 11 003552   226347 054100                    AOS     PE,,AUTO
        11 003553   226346 235100                    LDA     P,,AUTO
        11 003554   000004 735000                    ALS     4
        11 003555   003557 605000 11                 TPL     s:9202+5
        11 003556   000044 035003                    ADLA    36,DU
        11 003557   003100 061405                    CSR     bolr='003'O
PL6.E3A0      #001=Z8EG$ERROR_CORR_PROC_DIV File=Z8EG.:Z8A6TSI                   SAT 08/09/97 11:50 Page:74
        11 003560   000000 230004 xsym               BDSC    PD_PATH,A                by=1,bit=3,n=4
        11 003561   226362 000044                    BDSC    NEWPLUG2$+1,,AUTO        by=0,bit=0,n=36
        11 003562   226346 235100                    LDA     P,,AUTO
        11 003563   000004 735000                    ALS     4
        11 003564   003566 605000 11                 TPL     s:9202+12
        11 003565   000044 035003                    ADLA    36,DU
        11 003566   003100 060405                    CSL     bolr='003'O
        11 003567   000000 000014 xsym               BDSC    PD_PATH,A                by=0,bit=0,n=12
        11 003570   226363 000044                    BDSC    NEWPLUG2$+2,,AUTO        by=0,bit=0,n=36
        11 003571   226363 236100                    LDQ     NEWPLUG2$+2,,AUTO
        11 003572   000030 732000                    QRS     24
        11 003573   226362 036100                    ADLQ    NEWPLUG2$+1,,AUTO
        11 003574   226347 116100                    CMPQ    PE,,AUTO
        11 003575   003373 605400 11                 TPNZ    s:9168

   9203 11 003576   226346 054100                    AOS     P,,AUTO
        11 003577   226335 236100                    LDQ     PRED_ITEM,,AUTO
        11 003600   000045 402007                    MPY     37,DL
        11 003601   000000 116003                    CMPQ    0,DU
        11 003602   003604 605000 11                 TPL     s:9203+6
        11 003603   000044 036003                    ADLQ    36,DU
        11 003604   003100 061406                    CSR     bolr='003'O
        11 003605   000000 650005 xsym               BDSC    PD_ITEM,Q                by=3,bit=5,n=5
        11 003606   226362 000044                    BDSC    NEWPLUG2$+1,,AUTO        by=0,bit=0,n=36
        11 003607   226335 236100                    LDQ     PRED_ITEM,,AUTO
        11 003610   000045 402007                    MPY     37,DL
        11 003611   000000 116003                    CMPQ    0,DU
        11 003612   003614 605000 11                 TPL     s:9203+14
        11 003613   000044 036003                    ADLQ    36,DU
        11 003614   003100 061406                    CSR     bolr='003'O
        11 003615   000000 410015 xsym               BDSC    PD_ITEM,Q                by=2,bit=1,n=13
        11 003616   226363 000044                    BDSC    NEWPLUG2$+2,,AUTO        by=0,bit=0,n=36
        11 003617   226363 236100                    LDQ     NEWPLUG2$+2,,AUTO
        11 003620   226362 036100                    ADLQ    NEWPLUG2$+1,,AUTO
        11 003621   003343 604000 11                 TMI     s:9164
        11 003622   226346 116100                    CMPQ    P,,AUTO
        11 003623   003343 605400 11                 TPNZ    s:9164
PL6.E3A0      #001=Z8EG$ERROR_CORR_PROC_DIV File=Z8EG.:Z8A6TSI                   SAT 08/09/97 11:50 Page:75

   9204 11 003624   200214 470500                    LDP0    CURRSTAGE$,,AUTO
        11 003625   226342 720100                    LXL0    ITM,,AUTO
        11 003626   000000 471510                    LDP1    0,X0,PR0
        11 003627   000100 100500                    MLR     fill='000'O
        11 003630   100000 000002                    ADSC9   0,,PR1                   cn=0,n=2
        11 003631   226362 000004                    ADSC9   NEWPLUG2$+1,,AUTO        cn=0,n=4
        11 003632   226362 236100                    LDQ     NEWPLUG2$+1,,AUTO
        11 003633   000022 732000                    QRS     18
        11 003634   200205 036100                    ADLQ    MINCOST,,AUTO
        11 003635   200101 116100                    CMPQ    LR+4,,AUTO
        11 003636   004057 605000 11                 TPL     s:9235

   9207 11 003637   000000 471510                    LDP1    0,X0,PR0
        11 003640   000100 100500                    MLR     fill='000'O
        11 003641   100000 400002                    ADSC9   0,,PR1                   cn=2,n=2
        11 003642   226362 000004                    ADSC9   NEWPLUG2$+1,,AUTO        cn=0,n=4
        11 003643   226362 236100                    LDQ     NEWPLUG2$+1,,AUTO
        11 003644   000022 732000                    QRS     18
        11 003645   200100 756100                    STQ     LR+3,,AUTO

   9208 11 003646   000000 471510                    LDP1    0,X0,PR0
        11 003647   000100 100500                    MLR     fill='000'O
        11 003650   100001 000312                    ADSC9   1,,PR1                   cn=0,n=202
        11 003651   200102 000312                    ADSC9   LR+5,,AUTO               cn=0,n=202

   9209 11 003652   000000 471510                    LDP1    0,X0,PR0
        11 003653   000100 100500                    MLR     fill='000'O
        11 003654   100000 000002                    ADSC9   0,,PR1                   cn=0,n=2
        11 003655   226362 000004                    ADSC9   NEWPLUG2$+1,,AUTO        cn=0,n=4
        11 003656   226362 236100                    LDQ     NEWPLUG2$+1,,AUTO
        11 003657   000022 732000                    QRS     18
        11 003660   200205 036100                    ADLQ    MINCOST,,AUTO
        11 003661   200101 756100                    STQ     LR+4,,AUTO

   9211 11 003662   200210 235100                    LDA     MINPATH,,AUTO
        11 003663   000004 735000                    ALS     4
PL6.E3A0      #001=Z8EG$ERROR_CORR_PROC_DIV File=Z8EG.:Z8A6TSI                   SAT 08/09/97 11:50 Page:76
        11 003664   003666 605000 11                 TPL     s:9211+4
        11 003665   000044 035003                    ADLA    36,DU
        11 003666   003100 060405                    CSL     bolr='003'O
        11 003667   000000 000014 xsym               BDSC    PD_PATH,A                by=0,bit=0,n=12
        11 003670   226362 000044                    BDSC    NEWPLUG2$+1,,AUTO        by=0,bit=0,n=36
        11 003671   226362 236100                    LDQ     NEWPLUG2$+1,,AUTO
        11 003672   000030 732000                    QRS     24
        11 003673   226347 756100                    STQ     PE,,AUTO
        11 003674   003723 710000 11                 TRA     s:9216+1

   9212 11 003675   200100 235100                    LDA     LR+3,,AUTO
        11 003676   000144 115007                    CMPA    100,DL
        11 003677   003702 604000 11                 TMI     s:9214

   9213 11 003700   000424 701000 11                 TSX1    ABORT_CORRECTION
        11 003701   000000 011000                    NOP     0

   9214 11 003702   226347 236100                    LDQ     PE,,AUTO
        11 003703   000013 402007                    MPY     11,DL
        11 003704   000000 116003                    CMPQ    0,DU
        11 003705   003707 605000 11                 TPL     s:9214+5
        11 003706   000044 036003                    ADLQ    36,DU
        11 003707   226362 756100                    STQ     NEWPLUG2$+1,,AUTO
        11 003710   200100 236100                    LDQ     LR+3,,AUTO
        11 003711   000022 402007                    MPY     18,DL
        11 003712   000000 116003                    CMPQ    0,DU
        11 003713   003715 605000 11                 TPL     s:9214+11
        11 003714   000044 036003                    ADLQ    36,DU
        11 003715   226362 235100                    LDA     NEWPLUG2$+1,,AUTO
        11 003716   003106 061405                    CSR     bolr='003'O
        11 003717   000000 000013 xsym               BDSC    PD_PATH_ELEM,A           by=0,bit=0,n=11
        11 003720   200102 000022                    BDSC    LR+5,Q,AUTO              by=0,bit=0,n=18

   9215 11 003721   200100 054100                    AOS     LR+3,,AUTO

   9216 11 003722   226347 054100                    AOS     PE,,AUTO
        11 003723   226347 236100                    LDQ     PE,,AUTO
PL6.E3A0      #001=Z8EG$ERROR_CORR_PROC_DIV File=Z8EG.:Z8A6TSI                   SAT 08/09/97 11:50 Page:77
        11 003724   200206 116100                    CMPQ    MINPOS,,AUTO
        11 003725   003675 604000 11                 TMI     s:9212

   9217 11 003726   200207 236100                    LDQ     MINLCPINDX,,AUTO
        11 003727   000056 402007                    MPY     46,DL
        11 003730   000000 116003                    CMPQ    0,DU
        11 003731   003733 605000 11                 TPL     s:9217+5
        11 003732   000044 036003                    ADLQ    36,DU
        11 003733   003100 061406                    CSR     bolr='003'O
        11 003734   000001 060004 xsym               BDSC    PD_LCP+1,Q               by=0,bit=6,n=4
        11 003735   226362 000044                    BDSC    NEWPLUG2$+1,,AUTO        by=0,bit=0,n=36
        11 003736   226362 236100                    LDQ     NEWPLUG2$+1,,AUTO
        11 003737   200100 036100                    ADLQ    LR+3,,AUTO
        11 003740   000144 116007                    CMPQ    100,DL
        11 003741   003744 604400 11                 TMOZ    s:9220

   9218 11 003742   000424 701000 11                 TSX1    ABORT_CORRECTION
        11 003743   000000 011000                    NOP     0

   9220 11 003744   200207 236100                    LDQ     MINLCPINDX,,AUTO
        11 003745   000056 402007                    MPY     46,DL
        11 003746   000000 116003                    CMPQ    0,DU
        11 003747   003751 605000 11                 TPL     s:9220+5
        11 003750   000044 036003                    ADLQ    36,DU
        11 003751   003100 061406                    CSR     bolr='003'O
        11 003752   000000 600017 xsym               BDSC    PD_LCP,Q                 by=3,bit=0,n=15
        11 003753   200173 000044                    BDSC    I,,AUTO                  by=0,bit=0,n=36
        11 003754   003776 710000 11                 TRA     s:9225+1

   9223 11 003755   200173 236100                    LDQ     I,,AUTO
        11 003756   000013 402007                    MPY     11,DL
        11 003757   000000 116003                    CMPQ    0,DU
        11 003760   003762 605000 11                 TPL     s:9223+5
        11 003761   000044 036003                    ADLQ    36,DU
        11 003762   226362 756100                    STQ     NEWPLUG2$+1,,AUTO
        11 003763   200100 236100                    LDQ     LR+3,,AUTO
        11 003764   000022 402007                    MPY     18,DL
PL6.E3A0      #001=Z8EG$ERROR_CORR_PROC_DIV File=Z8EG.:Z8A6TSI                   SAT 08/09/97 11:50 Page:78
        11 003765   000000 116003                    CMPQ    0,DU
        11 003766   003770 605000 11                 TPL     s:9223+11
        11 003767   000044 036003                    ADLQ    36,DU
        11 003770   226362 235100                    LDA     NEWPLUG2$+1,,AUTO
        11 003771   003106 061405                    CSR     bolr='003'O
        11 003772   000000 000013 xsym               BDSC    PD_LCP_ELEM,A            by=0,bit=0,n=11
        11 003773   200102 000022                    BDSC    LR+5,Q,AUTO              by=0,bit=0,n=18

   9224 11 003774   200100 054100                    AOS     LR+3,,AUTO

   9225 11 003775   200173 054100                    AOS     I,,AUTO
        11 003776   200207 236100                    LDQ     MINLCPINDX,,AUTO
        11 003777   000056 402007                    MPY     46,DL
        11 004000   000000 116003                    CMPQ    0,DU
        11 004001   004003 605000 11                 TPL     s:9225+6
        11 004002   000044 036003                    ADLQ    36,DU
        11 004003   003100 061406                    CSR     bolr='003'O
        11 004004   000001 060004 xsym               BDSC    PD_LCP+1,Q               by=0,bit=6,n=4
        11 004005   226362 000044                    BDSC    NEWPLUG2$+1,,AUTO        by=0,bit=0,n=36
        11 004006   200207 236100                    LDQ     MINLCPINDX,,AUTO
        11 004007   000056 402007                    MPY     46,DL
        11 004010   000000 116003                    CMPQ    0,DU
        11 004011   004013 605000 11                 TPL     s:9225+14
        11 004012   000044 036003                    ADLQ    36,DU
        11 004013   003100 061406                    CSR     bolr='003'O
        11 004014   000000 600017 xsym               BDSC    PD_LCP,Q                 by=3,bit=0,n=15
        11 004015   226363 000044                    BDSC    NEWPLUG2$+2,,AUTO        by=0,bit=0,n=36
        11 004016   226363 236100                    LDQ     NEWPLUG2$+2,,AUTO
        11 004017   226362 036100                    ADLQ    NEWPLUG2$+1,,AUTO
        11 004020   003755 604000 11                 TMI     s:9223
        11 004021   200173 116100                    CMPQ    I,,AUTO
        11 004022   003755 605400 11                 TPNZ    s:9223

   9229 11 004023   004057 710000 11                 TRA     s:9235

   9232 11 004024   200214 470500                    LDP0    CURRSTAGE$,,AUTO
        11 004025   226342 721100                    LXL1    ITM,,AUTO
PL6.E3A0      #001=Z8EG$ERROR_CORR_PROC_DIV File=Z8EG.:Z8A6TSI                   SAT 08/09/97 11:50 Page:79
        11 004026   000000 471511                    LDP1    0,X1,PR0
        11 004027   226335 236100                    LDQ     PRED_ITEM,,AUTO
        11 004030   226343 136100                    SBLQ    NEXTLOWBASIS,,AUTO
        11 004031   200215 473500                    LDP3    NEXTSTAGE$,,AUTO
        11 004032   300000 474506                    LDP4    0,QL,PR3
        11 004033   000100 100500                    MLR     fill='000'O
        11 004034   400000 000002                    ADSC9   0,,PR4                   cn=0,n=2
        11 004035   226362 000004                    ADSC9   NEWPLUG2$+1,,AUTO        cn=0,n=4
        11 004036   226362 236100                    LDQ     NEWPLUG2$+1,,AUTO
        11 004037   000022 732000                    QRS     18
        11 004040   226363 756100                    STQ     NEWPLUG2$+2,,AUTO
        11 004041   000100 100500                    MLR     fill='000'O
        11 004042   100000 000002                    ADSC9   0,,PR1                   cn=0,n=2
        11 004043   226364 000004                    ADSC9   NEWPLUG2$+3,,AUTO        cn=0,n=4
        11 004044   226364 236100                    LDQ     NEWPLUG2$+3,,AUTO
        11 004045   000022 732000                    QRS     18
        11 004046   226363 116100                    CMPQ    NEWPLUG2$+2,,AUTO
        11 004047   004057 605000 11                 TPL     s:9235

   9233 11 004050   226335 236100                    LDQ     PRED_ITEM,,AUTO
        11 004051   226343 136100                    SBLQ    NEXTLOWBASIS,,AUTO
        11 004052   300000 471506                    LDP1    0,QL,PR3
        11 004053   000000 474511                    LDP4    0,X1,PR0
        11 004054   000100 100500                    MLR     fill='000'O
        11 004055   400000 000316                    ADSC9   0,,PR4                   cn=0,n=206
        11 004056   100000 000316                    ADSC9   0,,PR1                   cn=0,n=206

   9235 11 004057   226342 054100                    AOS     ITM,,AUTO
        11 004060   226341 236100                    LDQ     CURRHIGHBASIS,,AUTO
        11 004061   226340 136100                    SBLQ    CURRLOWBASIS,,AUTO
        11 004062   226342 116100                    CMPQ    ITM,,AUTO
        11 004063   002732 605000 11                 TPL     s:9101

   9237 11 004064   200175 235100                    LDA     K,,AUTO
        11 004065   000001 115007                    CMPA    1,DL
        11 004066   004070 605400 11                 TPNZ    s:9240

PL6.E3A0      #001=Z8EG$ERROR_CORR_PROC_DIV File=Z8EG.:Z8A6TSI                   SAT 08/09/97 11:50 Page:80
   9238 11 004067   226337 450100                    STZ     WORTHCONTINUING,,AUTO

   9240 11 004070   226337 234100                    SZN     WORTHCONTINUING,,AUTO
        11 004071   004076 605000 11                 TPL     s:9246

   9242 11 004072   000001 336007                    LCQ     1,DL
        11 004073   200175 056100                    ASQ     K,,AUTO

   9243 11 004074   002023 701000 11                 TSX1    NEWSTAGE
        11 004075   000000 011000                    NOP     0

   9246 11 004076   226337 234100                    SZN     WORTHCONTINUING,,AUTO
        11 004077   002703 604000 11                 TMI     s:9088

   9249 11 004100   200172 221300                    LDX1  ! ACCUM_INS_TO_SYM+2,,AUTO
        11 004101   000001 702211                    TSX2  ! 1,X1

   9256 11 004102   200100 450100                    STZ     LR+3,,AUTO

   9257 11 004103   303237 235007                    LDA     99999,DL
        11 004104   200101 755100                    STA     LR+4,,AUTO

   9258 11 004105   200166 450100                    STZ     ACCUM_DEL_LEN,,AUTO

   9259 11 004106   200167 450100                    STZ     ACCUM_DEL_COST,,AUTO

   9260 11 004107   200166 236100                    LDQ     ACCUM_DEL_LEN,,AUTO
        11 004110   200075 756100                    STQ     LR,,AUTO

   9261 11 004111   200167 235100                    LDA     ACCUM_DEL_COST,,AUTO
        11 004112   200076 755100                    STA     LR+1,,AUTO

   9263 11 004113   200165 450100                    STZ     LARGE_DELETION,,AUTO

   9265 11 004114   000133 235000 xsym               LDA     O1COM+91
        11 004115   200170 755100                    STA     ACCUM_INS_TO_SYM,,AUTO

PL6.E3A0      #001=Z8EG$ERROR_CORR_PROC_DIV File=Z8EG.:Z8A6TSI                   SAT 08/09/97 11:50 Page:81
   9266 11 004116   200077 755100                    STA     LR+2,,AUTO

   9271 11 004117   001772 701000 11                 TSX1    LR_INSERT
        11 004120   000000 011000                    NOP     0

   9273 11 004121   200101 235100                    LDA     LR+4,,AUTO
        11 004122   303237 115007                    CMPA    99999,DL
        11 004123   004175 604000 11                 TMI     s:9297

   9275 11 004124   200166 054100                    AOS     ACCUM_DEL_LEN,,AUTO

   9276 11 004125   200166 236100                    LDQ     ACCUM_DEL_LEN,,AUTO
        11 004126   200075 756100                    STQ     LR,,AUTO

   9277 11 004127   000106 116007                    CMPQ    70,DL
        11 004130   004133 604000 11                 TMI     s:9279

   9278 11 004131   000323 701000 11                 TSX1    CREATE_LARGE_DELETION
        11 004132   000000 011000                    NOP     0

   9279 11 004133   200170 235100                    LDA     ACCUM_INS_TO_SYM,,AUTO
        11 004134   000003 735000                    ALS     3
        11 004135   000242 236005 xsym               LDQ     O1COM+162,AL
        11 004136   000021 402007                    MPY     17,DL
        11 004137   000000 116003                    CMPQ    0,DU
        11 004140   004142 605000 11                 TPL     s:9279+7
        11 004141   000044 036003                    ADLQ    36,DU
        11 004142   003100 061406                    CSR     bolr='003'O
        11 004143   000000 000021 xsym               BDSC    PD_DEL_COST,Q            by=0,bit=0,n=17
        11 004144   226362 000044                    BDSC    NEWPLUG2$+1,,AUTO        by=0,bit=0,n=36
        11 004145   226362 236100                    LDQ     NEWPLUG2$+1,,AUTO
        11 004146   200167 036100                    ADLQ    ACCUM_DEL_COST,,AUTO
        11 004147   200167 756100                    STQ     ACCUM_DEL_COST,,AUTO

   9280 11 004150   200076 756100                    STQ     LR+1,,AUTO

   9281 11 004151   303237 116007                    CMPQ    99999,DL
PL6.E3A0      #001=Z8EG$ERROR_CORR_PROC_DIV File=Z8EG.:Z8A6TSI                   SAT 08/09/97 11:50 Page:82
        11 004152   004155 604000 11                 TMI     s:9283

   9282 11 004153   000424 701000 11                 TSX1    ABORT_CORRECTION
        11 004154   000000 011000                    NOP     0

   9283 11 004155   200075 236100                    LDQ     LR,,AUTO
        11 004156   000131 116000 xsym               CMPQ    O1COM+89
        11 004157   004170 604000 11                 TMI     s:9294

   9289 11 004160   000012 631400 12                 EPPR1   10
        11 004161   000000 701000 xent               TSX1    Z8EL$LEX
        11 004162   000000 011000                    NOP     0

   9291 11 004163   000132 235000 xsym               LDA     O1COM+90
        11 004164   000003 735000                    ALS     3
        11 004165   000246 235005 xsym               LDA     O1COM+166,AL
        11 004166   000132 755000 xsym               STA     O1COM+90

   9292 11 004167   000131 054000 xsym               AOS     O1COM+89

   9294 11 004170   200170 235100                    LDA     ACCUM_INS_TO_SYM,,AUTO
        11 004171   000003 735000                    ALS     3
        11 004172   000246 235005 xsym               LDA     O1COM+166,AL
        11 004173   200170 755100                    STA     ACCUM_INS_TO_SYM,,AUTO

   9295 11 004174   200077 755100                    STA     LR+2,,AUTO

   9297 11 004175   200101 235100                    LDA     LR+4,,AUTO
        11 004176   303237 115007                    CMPA    99999,DL
        11 004177   004117 605000 11                 TPL     s:9271

   9300 11 004200   001426 701000 11                 TSX1    CHECK_CONTEXT
        11 004201   000000 011000                    NOP     0

   9302 11 004202   000100 100500                    MLR     fill='000'O
        11 004203   200075 000336                    ADSC9   LR,,AUTO                 cn=0,n=222
        11 004204   200005 000336                    ADSC9   LC,,AUTO                 cn=0,n=222
PL6.E3A0      #001=Z8EG$ERROR_CORR_PROC_DIV File=Z8EG.:Z8A6TSI                   SAT 08/09/97 11:50 Page:83

   9304 11 004205   200170 235100                    LDA     ACCUM_INS_TO_SYM,,AUTO
        11 004206   000003 735000                    ALS     3
        11 004207   000242 236005 xsym               LDQ     O1COM+162,AL
        11 004210   000021 402007                    MPY     17,DL
        11 004211   000000 116003                    CMPQ    0,DU
        11 004212   004214 605000 11                 TPL     s:9304+7
        11 004213   000044 036003                    ADLQ    36,DU
        11 004214   003100 061406                    CSR     bolr='003'O
        11 004215   000000 000021 xsym               BDSC    PD_DEL_COST,Q            by=0,bit=0,n=17
        11 004216   226362 000044                    BDSC    NEWPLUG2$+1,,AUTO        by=0,bit=0,n=36
        11 004217   226362 236100                    LDQ     NEWPLUG2$+1,,AUTO
        11 004220   200167 036100                    ADLQ    ACCUM_DEL_COST,,AUTO
        11 004221   200167 756100                    STQ     ACCUM_DEL_COST,,AUTO

   9305 11 004222   200076 756100                    STQ     LR+1,,AUTO

   9307 11 004223   004312 710000 11                 TRA     s:9344

   9313 11 004224   200166 054100                    AOS     ACCUM_DEL_LEN,,AUTO

   9314 11 004225   200166 235100                    LDA     ACCUM_DEL_LEN,,AUTO
        11 004226   200075 755100                    STA     LR,,AUTO

   9315 11 004227   200075 236100                    LDQ     LR,,AUTO
        11 004230   000131 116000 xsym               CMPQ    O1COM+89
        11 004231   004242 604000 11                 TMI     s:9328

   9321 11 004232   000012 631400 12                 EPPR1   10
        11 004233   000000 701000 xent               TSX1    Z8EL$LEX
        11 004234   000000 011000                    NOP     0

   9323 11 004235   000132 235000 xsym               LDA     O1COM+90
        11 004236   000003 735000                    ALS     3
        11 004237   000246 235005 xsym               LDA     O1COM+166,AL
        11 004240   000132 755000 xsym               STA     O1COM+90

PL6.E3A0      #001=Z8EG$ERROR_CORR_PROC_DIV File=Z8EG.:Z8A6TSI                   SAT 08/09/97 11:50 Page:84
   9324 11 004241   000131 054000 xsym               AOS     O1COM+89

   9328 11 004242   200170 235100                    LDA     ACCUM_INS_TO_SYM,,AUTO
        11 004243   000003 735000                    ALS     3
        11 004244   000246 235005 xsym               LDA     O1COM+166,AL
        11 004245   200170 755100                    STA     ACCUM_INS_TO_SYM,,AUTO

   9329 11 004246   200077 755100                    STA     LR+2,,AUTO

   9332 11 004247   001772 701000 11                 TSX1    LR_INSERT
        11 004250   000000 011000                    NOP     0

   9335 11 004251   200101 236100                    LDQ     LR+4,,AUTO
        11 004252   200076 036100                    ADLQ    LR+1,,AUTO
        11 004253   226362 756100                    STQ     NEWPLUG2$+1,,AUTO
        11 004254   200006 236100                    LDQ     LC+1,,AUTO
        11 004255   200011 036100                    ADLQ    LC+4,,AUTO
        11 004256   226362 116100                    CMPQ    NEWPLUG2$+1,,AUTO
        11 004257   004262 604400 11                 TMOZ    s:9338

   9336 11 004260   001426 701000 11                 TSX1    CHECK_CONTEXT
        11 004261   000000 011000                    NOP     0

   9338 11 004262   200101 236100                    LDQ     LR+4,,AUTO
        11 004263   200076 036100                    ADLQ    LR+1,,AUTO
        11 004264   226362 756100                    STQ     NEWPLUG2$+1,,AUTO
        11 004265   200006 236100                    LDQ     LC+1,,AUTO
        11 004266   200011 036100                    ADLQ    LC+4,,AUTO
        11 004267   226362 116100                    CMPQ    NEWPLUG2$+1,,AUTO
        11 004270   004274 604400 11                 TMOZ    s:9341

   9339 11 004271   000100 100500                    MLR     fill='000'O
        11 004272   200075 000336                    ADSC9   LR,,AUTO                 cn=0,n=222
        11 004273   200005 000336                    ADSC9   LC,,AUTO                 cn=0,n=222

   9341 11 004274   200170 235100                    LDA     ACCUM_INS_TO_SYM,,AUTO
        11 004275   000003 735000                    ALS     3
PL6.E3A0      #001=Z8EG$ERROR_CORR_PROC_DIV File=Z8EG.:Z8A6TSI                   SAT 08/09/97 11:50 Page:85
        11 004276   000242 236005 xsym               LDQ     O1COM+162,AL
        11 004277   000021 402007                    MPY     17,DL
        11 004300   000000 116003                    CMPQ    0,DU
        11 004301   004303 605000 11                 TPL     s:9341+7
        11 004302   000044 036003                    ADLQ    36,DU
        11 004303   003100 061406                    CSR     bolr='003'O
        11 004304   000000 000021 xsym               BDSC    PD_DEL_COST,Q            by=0,bit=0,n=17
        11 004305   226362 000044                    BDSC    NEWPLUG2$+1,,AUTO        by=0,bit=0,n=36
        11 004306   226362 236100                    LDQ     NEWPLUG2$+1,,AUTO
        11 004307   200167 036100                    ADLQ    ACCUM_DEL_COST,,AUTO
        11 004310   200167 756100                    STQ     ACCUM_DEL_COST,,AUTO

   9342 11 004311   200076 756100                    STQ     LR+1,,AUTO

   9344 11 004312   200006 236100                    LDQ     LC+1,,AUTO
        11 004313   200011 036100                    ADLQ    LC+4,,AUTO
        11 004314   200167 116100                    CMPQ    ACCUM_DEL_COST,,AUTO
        11 004315   004321 604400 11                 TMOZ    s:9346
        11 004316   200166 235100                    LDA     ACCUM_DEL_LEN,,AUTO
        11 004317   000105 115007                    CMPA    69,DL
        11 004320   004224 604000 11                 TMI     s:9313

   9346 11 004321   000562 701000 11                 TSX1    GIVE_CORRECTION_MESSAGE
        11 004322   000000 011000                    NOP     0

   9349 11 004323   200004 221300                    LDX1  ! PARSE_STACK_IDX_IN_CHARS+1,,AUTO
        11 004324   000001 702211                    TSX2  ! 1,X1

      133     9350
      134     9351    1   CALL LOCALLY_LEAST_COST_CORRECTION;

   9351 11 004325   000003 701000 11                 TSX1    LOCALLY_LEAST_COST_CORRECTION
        11 004326   000000 011000                    NOP     0

      135     9352
      136     9353    1   END Z8EG$ERROR_CORR_PROC_DIV;

PL6.E3A0      #001=Z8EG$ERROR_CORR_PROC_DIV File=Z8EG.:Z8A6TSI                   SAT 08/09/97 11:50 Page:86
   9353 11 004327   000000 702200 xent               TSX2  ! X66_ARET
      137     9354        %EOD;

PL6.E3A0      #001=Z8EG$ERROR_CORR_PROC_DIV File=Z8EG.:Z8A6TSI                   SAT 08/09/97 11:50 Page:87
--  Include file information  --

   Z8A_P_EC.:Z8A6TOU  cannot be made into a system file and is referenced.
   Z8A_P_STATE.:Z8A6TOU  cannot be made into a system file and is referenced.
   Z8E_O1COM.:Z8A6TOU  cannot be made into a system file and is referenced.
   Z8A_LEX_SYMB.:Z8A6TOU  cannot be made into a system file and is referenced.
   Z8E_STACKS.:Z8A6TOU  cannot be made into a system file and is referenced.
   Z8E_PDPDA_S.:Z8A6TOU  is referenced.
   Z8E_PD_SUBS.:Z8A6TOU  is referenced.
   Z8A_DNT.:Z8A6TOU  cannot be made into a system file and is referenced.
   Z8A_COMCOM.:Z8A6TOU  cannot be made into a system file and is referenced.
   Z8A_ERR_NUMS.:Z8A6TOU  is referenced.
   X8A_COM_MACS.:X8A6TOU  is referenced.
   Z8A_NAMES.:Z8A6TOU  is referenced.
   Z8A_SUPP_MAC.:Z8A6TOU  is referenced.
   Z8A_DEFC.:Z8A6TOU  cannot be made into a system file and is referenced.
      No diagnostics issued in procedure Z8EG$ERROR_CORR_PROC_DIV.
PL6.E3A0      #001=Z8EG$ERROR_CORR_PROC_DIV File=Z8EG.:Z8A6TSI                   SAT 08/09/97 11:50 Page:88

 **** Variables and constants ****

  ****  Section 000 LblCom ITERATION

  ****  Scalars and arrays  ****
OctLoc.c.b A Datatyp(siz) R M Lvl/name                 OctLoc.c.b A Datatyp(siz) R M Lvl/name

     0-0-0/w SBIN        r     1 ITERATION

  ****  Section 001 LblCom DNT$

  ****  Scalars and arrays  ****
OctLoc.c.b A Datatyp(siz) R M Lvl/name                 OctLoc.c.b A Datatyp(siz) R M Lvl/name

     0-0-0/w PTR         r     1 DNT$

  ****  Section 002 LblCom DNT_

  ****  Scalars and arrays  ****
OctLoc.c.b A Datatyp(siz) R M Lvl/name                 OctLoc.c.b A Datatyp(siz) R M Lvl/name

     0-0-0/w STRC(180)   r     1 DNT_

  ****  Section 003 LblCom DNT_BUCKET_NUMBER

  ****  Scalars and arrays  ****
OctLoc.c.b A Datatyp(siz) R M Lvl/name                 OctLoc.c.b A Datatyp(siz) R M Lvl/name

     0-0-0/w UBIN              1 DNT_BUCKET_NUMBER

  ****  Section 004 LblCom DNT_OF_1$

  ****  Scalars and arrays  ****
OctLoc.c.b A Datatyp(siz) R M Lvl/name                 OctLoc.c.b A Datatyp(siz) R M Lvl/name

     0-0-0/w PTR               1 DNT_OF_1$

PL6.E3A0      #001=Z8EG$ERROR_CORR_PROC_DIV File=Z8EG.:Z8A6TSI                   SAT 08/09/97 11:50 Page:89
  ****  Section 005 LblCom LEX_SYMBOL

  ****  Scalars and arrays  ****
OctLoc.c.b A Datatyp(siz) R M Lvl/name                 OctLoc.c.b A Datatyp(siz) R M Lvl/name

     0-0-0/w STRC(3240)  r     1 LEX_SYMBOL                 0-0-0/w STRC(3240)        1 LEX_SYMBOL_WORDS

  ****  Section 006 LblCom CURRENT_LEX_SYMBOL$

  ****  Scalars and arrays  ****
OctLoc.c.b A Datatyp(siz) R M Lvl/name                 OctLoc.c.b A Datatyp(siz) R M Lvl/name

     0-0-0/w PTR         r     1 CURRENT_LEX_SYMBOL$

  ****  Section 007 LblCom TEMP_LEX_SYMBOL

  ****  Scalars and arrays  ****
OctLoc.c.b A Datatyp(siz) R M Lvl/name                 OctLoc.c.b A Datatyp(siz) R M Lvl/name

     0-0-0/w STRC(3240)        1 TEMP_LEX_SYMBOL

  ****  Section 008 LblCom TEMP_LEX_SYMBOL2

  ****  Scalars and arrays  ****
OctLoc.c.b A Datatyp(siz) R M Lvl/name                 OctLoc.c.b A Datatyp(siz) R M Lvl/name

     0-0-0/w STRC(3240)        1 TEMP_LEX_SYMBOL2

  ****  Section 009  Data  Z8EG$ERROR_CORR_PROC_DIV

  ****  Scalars and arrays  ****
OctLoc.c.b A Datatyp(siz) R M Lvl/name                 OctLoc.c.b A Datatyp(siz) R M Lvl/name

     0-0-0/c CHAR(4)     r     1 CONT_STR

  ****  Auto variables  ****

PL6.E3A0      #001=Z8EG$ERROR_CORR_PROC_DIV File=Z8EG.:Z8A6TSI                   SAT 08/09/97 11:50 Page:90
  ****  Scalars and arrays  ****
OctLoc.c.b A Datatyp(siz) R M Lvl/name                 OctLoc.c.b A Datatyp(siz) R M Lvl/name

   323-0-0/w PTR         r     1 @DI                      324-0-0/w PTR         r     1 @DI_CHAR_OVERFLOW
 26355-0-0/w PTR         r     1 @ERROR_TYPE            26355-0-0/w PTR         r     1 @ITM
  4127-0-0/w PTR         r     1 @LRC                   26356-0-0/w PTR         r     1 @PLUG1$
 26357-0-0/w PTR         r     1 @PLUG2$                26353-0-0/w PTR         r     1 @PREVSTATE
   325-0-0/w PTR         r     1 @PT_LEN                  326-0-0/w PTR         r     1 @PT_PTR
 26354-0-0/w PTR         r     1 @SUCCSTATE               213-0-0/w SBIN        r     1 ACCUM_COST
   167-0-0/w SBIN        r     1 ACCUM_DEL_COST           166-0-0/w SBIN        r     1 ACCUM_DEL_LEN
   170-0-0/w SBIN        r     1 ACCUM_INS_TO_SYM        4117-0-0/w SBIN        r     1 ACTION
   261-0-0/w STRC(936)   r     1 BEF                    26341-0-0/w SBIN        r     1 CURRHIGHBASIS
 26340-0-0/w SBIN        r     1 CURRLOWBASIS             214-0-0/w PTR         r     1 CURRSTAGE$
   174-0-0/w STRC(936)   r     1 DEL                      173-0-0/w SBIN        r     1 DEL_CHAR_OVERFLOW
   313-0-0/w PTR         r     1 DEL_DNT$                  *0-0-0/w STRC(936)   r     1 DI
    *0-0-0/w SBIN        r     1 DI_CHAR_OVERFLOW          *0-0-0/w SBIN        r     1 ERROR_TYPE
   177-0-0/w UBIN        r     1 H                        203-0-0/w SBIN        r     1 HIGHBASIS
  4130-0-0/w SBIN        r     1 I                        317-0-0/w SBIN        r     1 I
  4123-0-0/w SBIN              1 I                        173-0-0/w SBIN        r     1 I
 26353-0-0/w SBIN        r     1 I                      26355-0-0/w SBIN        r     1 I
 26356-0-0/w SBIN        r     1 I                        176-0-0/w SBIN        r     1 I2
  4116-0-0/w SBIN        r     1 INDX                     227-0-0/w STRC(936)   r     1 INS
   315-0-0/w PTR         r     1 INS_BEF_DNT$             226-0-0/w SBIN        r     1 INS_CHAR_OVERFLOW
   314-0-0/w PTR         r     1 INS_DNT$               26342-0-0/w SBIN        r     1 ITM
    *0-0-0/w SBIN        r     1 ITM                     4131-0-0/w SBIN        r     1 J
  4124-0-0/w SBIN              1 J                        174-0-0/w SBIN        r     1 J
   175-0-0/w SBIN        r     1 K                        200-0-0/w UBIN        r     1 L
   165-0-0/b BIT         r     1 LARGE_DELETION             5-0-0/w STRC(1998)  r     1 LC
   544-0-0/w SBIN        r     1 LCC_SPACE(0:11128)       211-0-0/w SBIN        r     1 LCP_ELEM_RET
   202-0-0/w SBIN        r     1 LOWBASIS                  75-0-0/w STRC(1998)  r     1 LR
    *0-0-0/w STRC(1998)  r     1 LRC                      201-0-0/w UBIN        r     1 M
   205-0-0/w SBIN        r     1 MINCOST                  204-0-0/w SBIN        r     1 MINITEM
   207-0-0/w SBIN        r     1 MINLCPINDX               210-0-0/w SBIN        r     1 MINPATH
   206-0-0/w SBIN        r     1 MINPOS                 26360-0-0/w PTR         r     1 NEWPLUG1$
 26361-0-0/w PTR         r     1 NEWPLUG2$              26344-0-0/w SBIN        r     1 NEXTHIGHBASIS
 26345-0-0/w SBIN        r     1 NEXTITEM               26343-0-0/w SBIN        r     1 NEXTLOWBASIS
   215-0-0/w PTR         r     1 NEXTSTAGE$              4120-0-0/w SBIN        r     1 NT
PL6.E3A0      #001=Z8EG$ERROR_CORR_PROC_DIV File=Z8EG.:Z8A6TSI                   SAT 08/09/97 11:50 Page:91
   173-0-0/w SBIN        r     1 OLA_GET                  174-0-0/w SBIN        r     1 OLINK
 26346-0-0/w SBIN        r     1 P
     3-0-0/w SBIN        r     1 PARSE_STACK_IDX_IN_CHARS
 26350-0-0/w SBIN        r     1 PATH_COST              26347-0-0/w SBIN        r     1 PE
 26351-0-0/w UBIN(18)    r     1 PELEM                     *0-0-0/w PTR         r     1 PLUG1$
    *0-0-0/w PTR         r     1 PLUG2$                 26336-0-0/b BIT         r     1 PRED_CLOSURE
 26335-0-0/w SBIN        r     1 PRED_ITEM                 *0-0-0/w SBIN        r     1 PREVSTATE
   173-0-0/w SBIN        r     1 PS(0:2000)              4115-0-0/w SBIN        r     1 PSTATE
  4114-0-0/w SBIN        r     1 PS_IDX                    *0-0-0/w SBIN        r     1 PT_LEN
    *0-0-0/w PTR         r     1 PT_PTR                   216-0-0/w PTR         r     1 STAGE1$(0:106)
   371-0-0/w PTR         r     1 STAGE2$(0:106)            *0-0-0/w SBIN        r     1 SUCCSTATE
 26356-0-0/w PTR         r     1 TPTR                     212-0-0/w SBIN        r     1 TRYCOST
 26337-0-0/b BIT         r     1 WORTHCONTINUING

  ****  SYMREF variables  ****

  ****  Scalars and arrays  ****
OctLoc.c.b A Datatyp(siz) R M Lvl/name                 OctLoc.c.b A Datatyp(siz) R M Lvl/name

     0-0-0/d STRC(13248)       1 COMCOM
     0-0-0/w STRC(180)         1 HIER_STK(0:50)
     0-0-0/w SBIN              1 HIER_STK_PTR               0-0-0/d STRC(11580) r     1 O1COM
     0-0-0/w STRC(144)         1 PAGE_FORMAT
     0-0-0/b STRC        r     1 PD_ACTION_COL(0:1535)
     0-0-0/b STRC        r     1 PD_ACTION_ROW(0:7207)
     0-0-0/b UBIN(17)    r     1 PD_DEL_COST(0:498)
     0-0-0/b STRC        r     1 PD_GOTO_COL(0:729)
     0-0-0/b STRC        r     1 PD_GOTO_ROW(0:2903)
     0-0-0/b STRC(37)    r     1 PD_ITEM(0:23452)           0-0-0/b STRC(46)    r     1 PD_LCP(0:24371)
     0-0-0/b UBIN(11)    r     1 PD_LCP_ELEM(0:21865)
     0-0-0/b UBIN(15)    r     1 PD_LCP_UBOUND(0:498)
     0-0-0/b STRC(31)    r     1 PD_LCS(0:1227)
     0-0-0/b UBIN(9)     r     1 PD_LCS_ELEM(0:833)
     0-0-0/b STRC(16)    r     1 PD_PATH(0:6198)
     0-0-0/b UBIN(11)    r     1 PD_PATH_ELEM(0:1638)
     0-0-0/b STRC(72)    r     1 PD_PRODR(0:970)
     0-0-0/b STRC(30)    r     1 PD_STATE_ITEM(0:1535)
PL6.E3A0      #001=Z8EG$ERROR_CORR_PROC_DIV File=Z8EG.:Z8A6TSI                   SAT 08/09/97 11:50 Page:92
     0-0-0/b STRC(17)    r     1 PD_TERM_STRING(0:498)
     0-0-0/c CHAR(3120)  r     1 PD_TSTRING_SPACE           0-0-0/w STRC(153)         1 REP_STK(0:50)
     0-0-0/w SBIN              1 REP_STK_PTR

  ****  BASED and DCB variables  ****

  ****  Scalars and arrays  ****
OctLoc.c.b A Datatyp(siz) R M Lvl/name                 OctLoc.c.b A Datatyp(siz) R M Lvl/name

     0-0-0/w STRC(288)         1 ADD_STMT                   0-0-0/w ASTR(324)   r     1 BASED_LEX_SYMBOL
     0-0-0/w STRC(360)         1 BASED_LEX_SYMBOL_WORDS
     0-0-0/w STRC(288)         1 BINARY_OP                  0-0-0/w STRC(288)         1 CALL_STMT
     0-0-0/w CHAR(4096)        1 CHARS                      0-0-0/w STRC(288)         1 COMPUTE_STMT
     0-0-0/w STRC(72)          1 CONT
     0-0-0/w PTR         r     1 CURRSTAGE(0:106)
     0-0-0/w STRC(288)         1 DEFERED_IDENTIFIER         0-0-0/w STRC(252)         1 DEFERED_ID_TREE
     0-0-0/w STRC(288)         1 DEFERED_QUAL_ID            0-0-0/w STRC(288)         1 DEFERED_SUM_CLAUSE
     0-0-0/w STRC(288)         1 DEFERED_SUM_CLAUSE_LIST
     0-0-0/w STRC(288)         1 DELETE_STMT                0-0-0/w STRC(288)         1 DIVIDE_STMT
     0-0-0/w ASTR(180)   r     1 DNT                        0-0-0/w STRC(288)         1 ILS_LIST
     0-0-0/w STRC(288)         1 INSPECT_1_STMT             0-0-0/w STRC(288)         1 INSPECT_2_STMT
     0-0-0/w STRC(288)         1 INSPECT_4_STMT             0-0-0/w STRC(288)         1 LA_ITEM
     0-0-0/h STRC(1854)  r     1 LCC                        0-0-0/w STRC(504)         1 LX_CD_INPUT
     0-0-0/w STRC(324)         1 LX_CD_I_O                  0-0-0/w STRC(396)         1 LX_CD_OUTPUT
     0-0-0/w STRC(288)         1 LX_ETT_ITEM                0-0-0/w STRC(288)         1 LX_ITEM
     0-0-0/w STRC(288)         1 LX_LARGE                   0-0-0/w STRC(288)         1 LX_LIST
     0-0-0/w STRC(1224)        1 LX_REC_DECL                0-0-0/w STRC(864)         1 LX_REPORT_REC
     0-0-0/w STRC(288)         1 LX_TERMINAL                0-0-0/w STRC(288)         1 MULTIPLY_STMT
     0-0-0/w PTR         r     1 NEXTSTAGE(0:106)
     0-0-0/w STRC(36864)       1 PAGE                       0-0-0/w ASTR        r     1 PARSEDNT
     0-0-0/c ACHR              1 PARSE_STACK_USED           0-0-0/c ACHR        r     1 PT_CHAR
     0-0-0/w STRC(288)         1 READ_STMT                  0-0-0/w STRC(288)         1 REWRITE_STMT
     0-0-0/w STRC(288)         1 START_STMT                 0-0-0/w STRC(252)         1 STRING_STMT
     0-0-0/w STRC(288)         1 SUBTRACT_STMT              0-0-0/w STRC(288)         1 UNARY_OP
     0-0-0/w STRC(288)         1 UNSTRING_STMT              0-0-0/w STRC(288)         1 WRITE_STMT

PL6.E3A0      #001=Z8EG$ERROR_CORR_PROC_DIV File=Z8EG.:Z8A6TSI                   SAT 08/09/97 11:50 Page:93

   Procedure Z8EG$ERROR_CORR_PROC_DIV requires 2264 words for executable code.
   Procedure Z8EG$ERROR_CORR_PROC_DIV requires 11526 words of local(AUTO) storage.

PL6.E3A0      #002=ERROR_TABLES_PROC_DIV File=Z8EG.:Z8A6TSI                      SAT 08/09/97 11:52 Page:94
      138        1        /*T***********************************************************/
      139        2        /*T*                                                         */
      140        3        /*T* Copyright (c) Bull HN Information Systems Inc., 1997    */
      141        4        /*T*                                                         */
      142        5        /*T***********************************************************/
      143        6        ERROR_TABLES_PROC_DIV : PROC;
      144        7
      145        8        /* This dummy procedure is used to compile the
      146        9           parse tables.  This method of separate compilation
      147       10           is required due to size restrictions of the PL/6
      148       11           compiler.
      149       12        */
      150       13
      151       14        %INCLUDE Z8E_PD_SUBS;
      152       43        %INCLUDE Z8E_PDPDA_S;
      153      736        %INCLUDE Z8E_PDPDA_E1;
      154    10167
      155    10168
      156    10169    1   END ERROR_TABLES_PROC_DIV;
      157    10170        %EOD;

PL6.E3A0      #002=ERROR_TABLES_PROC_DIV File=Z8EG.:Z8A6TSI                      SAT 08/09/97 11:52 Page:95
--  Include file information  --

   Z8E_PDPDA_E1.:Z8A6TOU  cannot be made into a system file and is referenced.
   Z8E_PDPDA_S.:Z8A6TOU  is referenced.
   Z8E_PD_SUBS.:Z8A6TOU  is referenced.
      No diagnostics issued in procedure ERROR_TABLES_PROC_DIV.

   No code generated for procedure ERROR_TABLES_PROC_DIV .
   Procedure ERROR_TABLES_PROC_DIV requires 4 words of local(AUTO) storage.

PL6.E3A0      #002=ERROR_TABLES_PROC_DIV File=Z8EG.:Z8A6TSI                      SAT 08/09/97 11:52 Page:96

 Object Unit name= ERROR_TABLES_PROC_DIV                      File name= Z8EG.:Z8A6TOU
 UTS= AUG 09 '97 11:52:25.00 SAT                              Compiler= PL-6/E31         Sev=      00
 SharedLib= :SHARED_SYSTEM                                    Alt SharedLib=


    ****  Control sections  ****

 Sect   Type Bound  Init  Size OctSiz  Section name(segment info)
    0  RoData even  UTS   2519   4727  ERROR_TABLES_PROC_DIV
    1   Proc  even  none     0      0  ERROR_TABLES_PROC_DIV

    ****  Entry defs  ****

                              Check   Calling
                             calling  sequence
  Sect OctLoc Primary Altret sequence   type   Parms  Name
     1      0   yes            yes     ~proc       0  ERROR_TABLES_PROC_DIV

  ****  Data defs  ****

 Sect OctLoc  Name                           Sect OctLoc  Name
    0      0  PD_TERM_STRING                     0    354  PD_TSTRING_SPACE
    0   1770  PD_DEL_COST                        0   2344  PD_LCS
    0   4406  PD_LCS_ELEM
PL6.E3A0      #002=ERROR_TABLES_PROC_DIV File=Z8EG.:Z8A6TSI                      SAT 08/09/97 11:52 Page:97

      138        1        /*T***********************************************************/
      139        2        /*T*                                                         */
      140        3        /*T* Copyright (c) Bull HN Information Systems Inc., 1997    */
      141        4        /*T*                                                         */
      142        5        /*T***********************************************************/
      143        6        ERROR_TABLES_PROC_DIV : PROC;
      144        7
      145        8        /* This dummy procedure is used to compile the
      146        9           parse tables.  This method of separate compilation
      147       10           is required due to size restrictions of the PL/6
      148       11           compiler.
      149       12        */
      150       13
      151       14        %INCLUDE Z8E_PD_SUBS;
      152       43        %INCLUDE Z8E_PDPDA_S;
      153      736        %INCLUDE Z8E_PDPDA_E1;
      154    10167
      155    10168
      156    10169    1   END ERROR_TABLES_PROC_DIV;
      157    10170        %EOD;

PL6.E3A0      #002=ERROR_TABLES_PROC_DIV File=Z8EG.:Z8A6TSI                      SAT 08/09/97 11:52 Page:98
--  Include file information  --

   Z8E_PDPDA_E1.:Z8A6TOU  cannot be made into a system file and is referenced.
   Z8E_PDPDA_S.:Z8A6TOU  is referenced.
   Z8E_PD_SUBS.:Z8A6TOU  is referenced.
      No diagnostics issued in procedure ERROR_TABLES_PROC_DIV.
PL6.E3A0      #002=ERROR_TABLES_PROC_DIV File=Z8EG.:Z8A6TSI                      SAT 08/09/97 11:52 Page:99

 **** Variables and constants ****

  ****  Section 000 RoData ERROR_TABLES_PROC_DIV

  ****  Scalars and arrays  ****
OctLoc.c.b A Datatyp(siz) R M Lvl/name                 OctLoc.c.b A Datatyp(siz) R M Lvl/name

  1770-0-0/b UBIN(17)          1 PD_DEL_COST(0:498)
  2344-0-0/b BIT (31)          1 PD_LCS(0:1227)
  4406-0-0/b UBIN(9)           1 PD_LCS_ELEM(0:833)
     0-0-0/b BIT (17)          1 PD_TERM_STRING(0:498)
   354-0-0/c CHAR(40)          1 PD_TSTRING_SPACE(0:77)


   No code generated for procedure ERROR_TABLES_PROC_DIV .
   Procedure ERROR_TABLES_PROC_DIV requires 4 words of local(AUTO) storage.

PL6.E3A0      #003=ERROR_TABLES_PROC_DIV2 File=Z8EG.:Z8A6TSI                     SAT 08/09/97 11:53 Page:100
      158        1        /*T***********************************************************/
      159        2        /*T*                                                         */
      160        3        /*T* Copyright (c) Bull HN Information Systems Inc., 1997    */
      161        4        /*T*                                                         */
      162        5        /*T***********************************************************/
      163        6        ERROR_TABLES_PROC_DIV2 : PROC;
      164        7
      165        8        /* This dummy procedure is used to compile the
      166        9           parse tables.  This method of separate compilation
      167       10           is required due to size restrictions of the PL/6
      168       11           compiler.
      169       12        */
      170       13
      171       14        %INCLUDE Z8E_PD_SUBS;
      172       43        %INCLUDE Z8E_PDPDA_S;
      173      736        %INCLUDE Z8E_PDPDA_E2;
      174    73856
      175    73857
      176    73858    1   END ERROR_TABLES_PROC_DIV2;
      177    73859        %EOD;

PL6.E3A0      #003=ERROR_TABLES_PROC_DIV2 File=Z8EG.:Z8A6TSI                     SAT 08/09/97 11:53 Page:101
--  Include file information  --

   Z8E_PDPDA_E2.:Z8A6TOU  cannot be made into a system file and is referenced.
   Z8E_PDPDA_S.:Z8A6TOU  is referenced.
   Z8E_PD_SUBS.:Z8A6TOU  is referenced.
      No diagnostics issued in procedure ERROR_TABLES_PROC_DIV2.

   No code generated for procedure ERROR_TABLES_PROC_DIV2 .
   Procedure ERROR_TABLES_PROC_DIV2 requires 4 words of local(AUTO) storage.

PL6.E3A0      #003=ERROR_TABLES_PROC_DIV2 File=Z8EG.:Z8A6TSI                     SAT 08/09/97 11:53 Page:102

 Object Unit name= ERROR_TABLES_PROC_DIV2                     File name= Z8EG.:Z8A6TOU
 UTS= AUG 09 '97 11:53:51.32 SAT                              Compiler= PL-6/E31         Sev=      00
 SharedLib= :SHARED_SYSTEM                                    Alt SharedLib=


    ****  Control sections  ****

 Sect   Type Bound  Init  Size OctSiz  Section name(segment info)
    0  RoData even  UTS  31142  74646  ERROR_TABLES_PROC_DIV2
    1   Proc  even  none     0      0  ERROR_TABLES_PROC_DIV2

    ****  Entry defs  ****

                              Check   Calling
                             calling  sequence
  Sect OctLoc Primary Altret sequence   type   Parms  Name
     1      0   yes            yes     ~proc       0  ERROR_TABLES_PROC_DIV2

  ****  Data defs  ****

 Sect OctLoc  Name                           Sect OctLoc  Name
    0      0  PD_LCP
PL6.E3A0      #003=ERROR_TABLES_PROC_DIV2 File=Z8EG.:Z8A6TSI                     SAT 08/09/97 11:53 Page:103

      158        1        /*T***********************************************************/
      159        2        /*T*                                                         */
      160        3        /*T* Copyright (c) Bull HN Information Systems Inc., 1997    */
      161        4        /*T*                                                         */
      162        5        /*T***********************************************************/
      163        6        ERROR_TABLES_PROC_DIV2 : PROC;
      164        7
      165        8        /* This dummy procedure is used to compile the
      166        9           parse tables.  This method of separate compilation
      167       10           is required due to size restrictions of the PL/6
      168       11           compiler.
      169       12        */
      170       13
      171       14        %INCLUDE Z8E_PD_SUBS;
      172       43        %INCLUDE Z8E_PDPDA_S;
      173      736        %INCLUDE Z8E_PDPDA_E2;
      174    73856
      175    73857
      176    73858    1   END ERROR_TABLES_PROC_DIV2;
      177    73859        %EOD;

PL6.E3A0      #003=ERROR_TABLES_PROC_DIV2 File=Z8EG.:Z8A6TSI                     SAT 08/09/97 11:53 Page:104
--  Include file information  --

   Z8E_PDPDA_E2.:Z8A6TOU  cannot be made into a system file and is referenced.
   Z8E_PDPDA_S.:Z8A6TOU  is referenced.
   Z8E_PD_SUBS.:Z8A6TOU  is referenced.
      No diagnostics issued in procedure ERROR_TABLES_PROC_DIV2.
PL6.E3A0      #003=ERROR_TABLES_PROC_DIV2 File=Z8EG.:Z8A6TSI                     SAT 08/09/97 11:53 Page:105

 **** Variables and constants ****

  ****  Section 000 RoData ERROR_TABLES_PROC_DIV2

  ****  Scalars and arrays  ****
OctLoc.c.b A Datatyp(siz) R M Lvl/name                 OctLoc.c.b A Datatyp(siz) R M Lvl/name

     0-0-0/b BIT (46)          1 PD_LCP(0:24371)


   No code generated for procedure ERROR_TABLES_PROC_DIV2 .
   Procedure ERROR_TABLES_PROC_DIV2 requires 4 words of local(AUTO) storage.

PL6.E3A0      #004=ERROR_TABLES_PROC_DIV3 File=Z8EG.:Z8A6TSI                     SAT 08/09/97 12:15 Page:106
      178        1        /*T***********************************************************/
      179        2        /*T*                                                         */
      180        3        /*T* Copyright (c) Bull HN Information Systems Inc., 1997    */
      181        4        /*T*                                                         */
      182        5        /*T***********************************************************/
      183        6        ERROR_TABLES_PROC_DIV3 : PROC;
      184        7
      185        8        /* This dummy procedure is used to compile the
      186        9           parse tables.  This method of separate compilation
      187       10           is required due to size restrictions of the PL/6
      188       11           compiler.
      189       12        */
      190       13
      191       14        %INCLUDE Z8E_PD_SUBS;
      192       43        %INCLUDE Z8E_PDPDA_S;
      193      736        %INCLUDE Z8E_PDPDA_E3;
      194    67838
      195    67839
      196    67840    1   END ERROR_TABLES_PROC_DIV3;
      197    67841        %EOD;

PL6.E3A0      #004=ERROR_TABLES_PROC_DIV3 File=Z8EG.:Z8A6TSI                     SAT 08/09/97 12:15 Page:107
--  Include file information  --

   Z8E_PDPDA_E3.:Z8A6TOU  cannot be made into a system file and is referenced.
   Z8E_PDPDA_S.:Z8A6TOU  is referenced.
   Z8E_PD_SUBS.:Z8A6TOU  is referenced.
      No diagnostics issued in procedure ERROR_TABLES_PROC_DIV3.

   No code generated for procedure ERROR_TABLES_PROC_DIV3 .
   Procedure ERROR_TABLES_PROC_DIV3 requires 4 words of local(AUTO) storage.

PL6.E3A0      #004=ERROR_TABLES_PROC_DIV3 File=Z8EG.:Z8A6TSI                     SAT 08/09/97 12:15 Page:108

 Object Unit name= ERROR_TABLES_PROC_DIV3                     File name= Z8EG.:Z8A6TOU
 UTS= AUG 09 '97 12:15:39.20 SAT                              Compiler= PL-6/E31         Sev=      00
 SharedLib= :SHARED_SYSTEM                                    Alt SharedLib=


    ****  Control sections  ****

 Sect   Type Bound  Init  Size OctSiz  Section name(segment info)
    0  RoData even  UTS   6890  15352  ERROR_TABLES_PROC_DIV3
    1   Proc  even  none     0      0  ERROR_TABLES_PROC_DIV3

    ****  Entry defs  ****

                              Check   Calling
                             calling  sequence
  Sect OctLoc Primary Altret sequence   type   Parms  Name
     1      0   yes            yes     ~proc       0  ERROR_TABLES_PROC_DIV3

  ****  Data defs  ****

 Sect OctLoc  Name                           Sect OctLoc  Name
    0      0  PD_LCP_UBOUND                      0    320  PD_LCP_ELEM
PL6.E3A0      #004=ERROR_TABLES_PROC_DIV3 File=Z8EG.:Z8A6TSI                     SAT 08/09/97 12:15 Page:109

      178        1        /*T***********************************************************/
      179        2        /*T*                                                         */
      180        3        /*T* Copyright (c) Bull HN Information Systems Inc., 1997    */
      181        4        /*T*                                                         */
      182        5        /*T***********************************************************/
      183        6        ERROR_TABLES_PROC_DIV3 : PROC;
      184        7
      185        8        /* This dummy procedure is used to compile the
      186        9           parse tables.  This method of separate compilation
      187       10           is required due to size restrictions of the PL/6
      188       11           compiler.
      189       12        */
      190       13
      191       14        %INCLUDE Z8E_PD_SUBS;
      192       43        %INCLUDE Z8E_PDPDA_S;
      193      736        %INCLUDE Z8E_PDPDA_E3;
      194    67838
      195    67839
      196    67840    1   END ERROR_TABLES_PROC_DIV3;
      197    67841        %EOD;

PL6.E3A0      #004=ERROR_TABLES_PROC_DIV3 File=Z8EG.:Z8A6TSI                     SAT 08/09/97 12:15 Page:110
--  Include file information  --

   Z8E_PDPDA_E3.:Z8A6TOU  cannot be made into a system file and is referenced.
   Z8E_PDPDA_S.:Z8A6TOU  is referenced.
   Z8E_PD_SUBS.:Z8A6TOU  is referenced.
      No diagnostics issued in procedure ERROR_TABLES_PROC_DIV3.
PL6.E3A0      #004=ERROR_TABLES_PROC_DIV3 File=Z8EG.:Z8A6TSI                     SAT 08/09/97 12:15 Page:111

 **** Variables and constants ****

  ****  Section 000 RoData ERROR_TABLES_PROC_DIV3

  ****  Scalars and arrays  ****
OctLoc.c.b A Datatyp(siz) R M Lvl/name                 OctLoc.c.b A Datatyp(siz) R M Lvl/name

   320-0-0/b UBIN(11)          1 PD_LCP_ELEM(0:21865)
     0-0-0/b UBIN(15)          1 PD_LCP_UBOUND(0:498)


   No code generated for procedure ERROR_TABLES_PROC_DIV3 .
   Procedure ERROR_TABLES_PROC_DIV3 requires 4 words of local(AUTO) storage.

PL6.E3A0      #005=ERROR_TABLES_PROC_DIV4 File=Z8EG.:Z8A6TSI                     SAT 08/09/97 12:21 Page:112
      198        1        /*T***********************************************************/
      199        2        /*T*                                                         */
      200        3        /*T* Copyright (c) Bull HN Information Systems Inc., 1997    */
      201        4        /*T*                                                         */
      202        5        /*T***********************************************************/
      203        6        ERROR_TABLES_PROC_DIV4 : PROC;
      204        7
      205        8        /* This dummy procedure is used to compile the
      206        9           parse tables.  This method of separate compilation
      207       10           is required due to size restrictions of the PL/6
      208       11           compiler.
      209       12        */
      210       13
      211       14        %INCLUDE Z8E_PD_SUBS;
      212       43        %INCLUDE Z8E_PDPDA_S;
      213      736        %INCLUDE Z8E_PDPDA_E4;
      214    71099
      215    71100
      216    71101    1   END ERROR_TABLES_PROC_DIV4;
      217    71102        %EOD;

PL6.E3A0      #005=ERROR_TABLES_PROC_DIV4 File=Z8EG.:Z8A6TSI                     SAT 08/09/97 12:21 Page:113
--  Include file information  --

   Z8E_PDPDA_E4.:Z8A6TOU  cannot be made into a system file and is referenced.
   Z8E_PDPDA_S.:Z8A6TOU  is referenced.
   Z8E_PD_SUBS.:Z8A6TOU  is referenced.
      No diagnostics issued in procedure ERROR_TABLES_PROC_DIV4.

   No code generated for procedure ERROR_TABLES_PROC_DIV4 .
   Procedure ERROR_TABLES_PROC_DIV4 requires 4 words of local(AUTO) storage.

PL6.E3A0      #005=ERROR_TABLES_PROC_DIV4 File=Z8EG.:Z8A6TSI                     SAT 08/09/97 12:21 Page:114

 Object Unit name= ERROR_TABLES_PROC_DIV4                     File name= Z8EG.:Z8A6TOU
 UTS= AUG 09 '97 12:21:01.88 SAT                              Compiler= PL-6/E31         Sev=      00
 SharedLib= :SHARED_SYSTEM                                    Alt SharedLib=


    ****  Control sections  ****

 Sect   Type Bound  Init  Size OctSiz  Section name(segment info)
    0  RoData even  UTS  24105  57051  ERROR_TABLES_PROC_DIV4
    1   Proc  even  none     0      0  ERROR_TABLES_PROC_DIV4

    ****  Entry defs  ****

                              Check   Calling
                             calling  sequence
  Sect OctLoc Primary Altret sequence   type   Parms  Name
     1      0   yes            yes     ~proc       0  ERROR_TABLES_PROC_DIV4

  ****  Data defs  ****

 Sect OctLoc  Name                           Sect OctLoc  Name
    0      0  PD_ITEM
PL6.E3A0      #005=ERROR_TABLES_PROC_DIV4 File=Z8EG.:Z8A6TSI                     SAT 08/09/97 12:21 Page:115

      198        1        /*T***********************************************************/
      199        2        /*T*                                                         */
      200        3        /*T* Copyright (c) Bull HN Information Systems Inc., 1997    */
      201        4        /*T*                                                         */
      202        5        /*T***********************************************************/
      203        6        ERROR_TABLES_PROC_DIV4 : PROC;
      204        7
      205        8        /* This dummy procedure is used to compile the
      206        9           parse tables.  This method of separate compilation
      207       10           is required due to size restrictions of the PL/6
      208       11           compiler.
      209       12        */
      210       13
      211       14        %INCLUDE Z8E_PD_SUBS;
      212       43        %INCLUDE Z8E_PDPDA_S;
      213      736        %INCLUDE Z8E_PDPDA_E4;
      214    71099
      215    71100
      216    71101    1   END ERROR_TABLES_PROC_DIV4;
      217    71102        %EOD;

PL6.E3A0      #005=ERROR_TABLES_PROC_DIV4 File=Z8EG.:Z8A6TSI                     SAT 08/09/97 12:21 Page:116
--  Include file information  --

   Z8E_PDPDA_E4.:Z8A6TOU  cannot be made into a system file and is referenced.
   Z8E_PDPDA_S.:Z8A6TOU  is referenced.
   Z8E_PD_SUBS.:Z8A6TOU  is referenced.
      No diagnostics issued in procedure ERROR_TABLES_PROC_DIV4.
PL6.E3A0      #005=ERROR_TABLES_PROC_DIV4 File=Z8EG.:Z8A6TSI                     SAT 08/09/97 12:21 Page:117

 **** Variables and constants ****

  ****  Section 000 RoData ERROR_TABLES_PROC_DIV4

  ****  Scalars and arrays  ****
OctLoc.c.b A Datatyp(siz) R M Lvl/name                 OctLoc.c.b A Datatyp(siz) R M Lvl/name

     0-0-0/b BIT (37)          1 PD_ITEM(0:23452)


   No code generated for procedure ERROR_TABLES_PROC_DIV4 .
   Procedure ERROR_TABLES_PROC_DIV4 requires 4 words of local(AUTO) storage.

PL6.E3A0      #006=ERROR_TABLES_PROC_DIV5 File=Z8EG.:Z8A6TSI                     SAT 08/09/97 12:43 Page:118
      218        1        /*T***********************************************************/
      219        2        /*T*                                                         */
      220        3        /*T* Copyright (c) Bull HN Information Systems Inc., 1997    */
      221        4        /*T*                                                         */
      222        5        /*T***********************************************************/
      223        6        ERROR_TABLES_PROC_DIV5 : PROC;
      224        7
      225        8        /* This dummy procedure is used to compile the
      226        9           parse tables.  This method of separate compilation
      227       10           is required due to size restrictions of the PL/6
      228       11           compiler.
      229       12        */
      230       13
      231       14        %INCLUDE Z8E_PD_SUBS;
      232       43        %INCLUDE Z8E_PDPDA_S;
      233      736        %INCLUDE Z8E_PDPDA_E5;
      234    28868
      235    28869
      236    28870    1   END ERROR_TABLES_PROC_DIV5;

PL6.E3A0      #006=ERROR_TABLES_PROC_DIV5 File=Z8EG.:Z8A6TSI                     SAT 08/09/97 12:43 Page:119
--  Include file information  --

   Z8E_PDPDA_E5.:Z8A6TOU  cannot be made into a system file and is referenced.
   Z8E_PDPDA_S.:Z8A6TOU  is referenced.
   Z8E_PD_SUBS.:Z8A6TOU  is referenced.
      No diagnostics issued in procedure ERROR_TABLES_PROC_DIV5.

   No code generated for procedure ERROR_TABLES_PROC_DIV5 .
   Procedure ERROR_TABLES_PROC_DIV5 requires 4 words of local(AUTO) storage.

    No errors detected in file Z8EG.:Z8A6TSI    .

PL6.E3A0      #006=ERROR_TABLES_PROC_DIV5 File=Z8EG.:Z8A6TSI                     SAT 08/09/97 12:43 Page:120

 Object Unit name= ERROR_TABLES_PROC_DIV5                     File name= Z8EG.:Z8A6TOU
 UTS= AUG 09 '97 12:43:39.92 SAT                              Compiler= PL-6/E31         Sev=      00
 SharedLib= :SHARED_SYSTEM                                    Alt SharedLib=


    ****  Control sections  ****

 Sect   Type Bound  Init  Size OctSiz  Section name(segment info)
    0  RoData even  UTS   4537  10671  ERROR_TABLES_PROC_DIV5
    1   Proc  even  none     0      0  ERROR_TABLES_PROC_DIV5

    ****  Entry defs  ****

                              Check   Calling
                             calling  sequence
  Sect OctLoc Primary Altret sequence   type   Parms  Name
     1      0   yes            yes     ~proc       0  ERROR_TABLES_PROC_DIV5

  ****  Data defs  ****

 Sect OctLoc  Name                           Sect OctLoc  Name
    0      0  PD_STATE_ITEM                      0   2400  PD_PATH
    0   7704  PD_PATH_ELEM
PL6.E3A0      #006=ERROR_TABLES_PROC_DIV5 File=Z8EG.:Z8A6TSI                     SAT 08/09/97 12:43 Page:121

      218        1        /*T***********************************************************/
      219        2        /*T*                                                         */
      220        3        /*T* Copyright (c) Bull HN Information Systems Inc., 1997    */
      221        4        /*T*                                                         */
      222        5        /*T***********************************************************/
      223        6        ERROR_TABLES_PROC_DIV5 : PROC;
      224        7
      225        8        /* This dummy procedure is used to compile the
      226        9           parse tables.  This method of separate compilation
      227       10           is required due to size restrictions of the PL/6
      228       11           compiler.
      229       12        */
      230       13
      231       14        %INCLUDE Z8E_PD_SUBS;
      232       43        %INCLUDE Z8E_PDPDA_S;
      233      736        %INCLUDE Z8E_PDPDA_E5;
      234    28868
      235    28869
      236    28870    1   END ERROR_TABLES_PROC_DIV5;

PL6.E3A0      #006=ERROR_TABLES_PROC_DIV5 File=Z8EG.:Z8A6TSI                     SAT 08/09/97 12:43 Page:122
--  Include file information  --

   Z8E_PDPDA_E5.:Z8A6TOU  cannot be made into a system file and is referenced.
   Z8E_PDPDA_S.:Z8A6TOU  is referenced.
   Z8E_PD_SUBS.:Z8A6TOU  is referenced.
      No diagnostics issued in procedure ERROR_TABLES_PROC_DIV5.
PL6.E3A0      #006=ERROR_TABLES_PROC_DIV5 File=Z8EG.:Z8A6TSI                     SAT 08/09/97 12:43 Page:123

 **** Variables and constants ****

  ****  Section 000 RoData ERROR_TABLES_PROC_DIV5

  ****  Scalars and arrays  ****
OctLoc.c.b A Datatyp(siz) R M Lvl/name                 OctLoc.c.b A Datatyp(siz) R M Lvl/name

  2400-0-0/b BIT (16)          1 PD_PATH(0:6198)
  7704-0-0/b UBIN(11)          1 PD_PATH_ELEM(0:1638)
     0-0-0/b BIT (30)          1 PD_STATE_ITEM(0:1535)


   No code generated for procedure ERROR_TABLES_PROC_DIV5 .
   Procedure ERROR_TABLES_PROC_DIV5 requires 4 words of local(AUTO) storage.

    No errors detected in file Z8EG.:Z8A6TSI    .
