VERSION A06

PL6.E3A0      #001=Z8EH$ACCEPT_STATEMENT File=Z8EH.:Z8A6TSI                      SAT 08/09/97 11:51 Page:1
        1        1        /*M*     BAAAZ8eh  COBOL85 MODULE  */
        2        2        /*T***********************************************************/
        3        3        /*T*                                                         */
        4        4        /*T* Copyright (c) Bull HN Information Systems Inc., 1997    */
        5        5        /*T*                                                         */
        6        6        /*T***********************************************************/
        7        7        /*************/
        8        8          Z8EH$ACCEPT_STATEMENT : PROC ( ACCEPT_ARG$,
        9        9        /*************/        ACCEPT_CODE );
       10       10
       11       11        %EQU PHASE = 1;
       12       12
       13       13        %INCLUDE Z8A_DEFC;
       14       81        %INCLUDE Z8A_SUPP_MAC ;
       15     2481        %INCLUDE Z8A_COMCOM ;
       16     3131        %INCLUDE Z8E_STACKS ;
       17     5397        %INCLUDE Z8E_O1COM;
       18     6158        %INCLUDE Z8E_MACROS;
       19     6833        %INCLUDE Z8A_ERR_NUMS ;
       20     7597        %INCLUDE Z8A_ST;
       21    11256        %INCLUDE Z8A_TYPES;
       22    11430        %INCLUDE Z8A_ETT ;
       23    11731        %INCLUDE Z8A_ILL ;
       24    12424        %INCLUDE Z8A_LTS ;
       25    14501        %EJECT;
PL6.E3A0      #001=Z8EH$ACCEPT_STATEMENT File=Z8EH.:Z8A6TSI                      SAT 08/09/97 11:51 Page:2
       26    14502        /*I*
       27    14503                 NAME: ACCEPT_STATEMENT
       28    14504
       29    14505          DESCRIPTION: Generate an %ACCEP ILL item with references to a descriptor
       30    14506                       list and an argument list.  If the variable being accepted
       31    14507                       has a format that cannot be directly input , a temporary
       32    14508                       variable is created, the ACCEPT is done to the temporary
       33    14509                       variable, and then this value is moved into the actual variable.
       34    14510        */
       35    14511
       36    14512
       37    14513    1    DCL ACCEPT_ARG$               PTR;
       38    14514    1    DCL ACCEPT_CODE               SBIN WORD;
       39    14515
       40    14516         %DCL_AUTO_LX_ITEM (@NAME=TEMP_ITEM);
       41    14520    1    DCL TEMP_REQUIRED BOOLEAN;
       42    14521    1    DCL TEMP_ST$ PTR;
       43    14522    1    DCL ST$$     PTR;
       44    14523    1    DCL RT_DESC_LIST$ PTR;
       45    14524    1    DCL RT_ARG_LIST$ PTR;
       46    14525    1    DCL NEL$ PTR;
       47    14526    1    DCL 1 TYPE_DESC,
       48    14527              %TYPE_DESC;
       49    14561
       50    14562    1    DCL Z8AT$CREATE_TEMPORARY          ENTRY(2);
       51    14563    1    DCL Z8AF$NEW_BASE                  ENTRY(3);
       52    14564    1    DCL Z8AE$ERROR                     ENTRY(12);
       53    14565    1    DCL Z9EY$BUILD_RUNTIME_DESCRIPTOR  ENTRY(3);
       54    14566    1    DCL Z8EY$BUILD_RUNTIME_ARGLIST     ENTRY(3);
       55    14567    1    DCL Z8E7$MOVE                      ENTRY(2);
       56    14568    1    DCL Z8EU$NEW_TEMP_FROM_DESC        ENTRY(2);
       57    14569    1    DCL Z8EU$NEW_TEMP_FROM_ETT         ENTRY(2);
       58    14570
       59    14571    1    TEMP_REQUIRED = FALSE;
       60    14572
       61    14573    1   IF COMCOM.OB.FIPS.LEVEL >= %INT_LEV THEN
       62    14574    1     IF ACCEPT_CODE ~= %ACCEPT_SYSIN OR ACCEPT_ARG$ -> LX_ETT_ITEM.B.HIGH_LEV THEN
PL6.E3A0      #001=Z8EH$ACCEPT_STATEMENT File=Z8EH.:Z8A6TSI                      SAT 08/09/97 11:51 Page:3
       63    14575    1       CALL Z8AE$ERROR (%E$LEVEL_CHECK,
       64    14576    1                        O1COM.LINE_NO,
       65    14577    1                        O1COM.COLUMN_NO);
       66    14578
       67    14579        /* Check type of identifiers */
       68    14580
       69    14581    2    DO CASE( ACCEPT_ARG$ -> LX_ETT_ITEM.TYPE );
       70    14582
       71    14583    2      CASE( %TYD, %TYO );
       72    14584
       73    14585             /*  OKAY   */
       74    14586
       75    14587    2      CASE( %TYA, %TYN );
       76    14588
       77    14589    2        IF NOT ACCEPT_ARG$ -> LX_ETT_ITEM.B.REFMOD   THEN
       78    14590    3          DO;
       79    14591
       80    14592                 %FISH(TRIAD = ACCEPT_ARG$ -> LX_ETT_ITEM.ETT$,
       81    14593                       RTN = TEMP_ST$);
       82    14601
       83    14602    3            IF TEMP_ST$ -> VARIABLE.B.CLASS = %CLASS_NUMERIC_EDITED THEN
       84    14603    4              DO;
       85    14604    4                TEMP_REQUIRED = TRUE;
       86    14605                     %GET_LTS (@ID = %NEL,
       87    14606                              @ST$ = TEMP_ST$,
       88    14607                              @RETURN$ = NEL$);
       89    14650
       90    14651    4                TYPE_DESC.DESC = NEL$ -> NEL.DESC;
       91    14652    4                TYPE_DESC.TYPE = %TYD;
       92    14653    4                TYPE_DESC.SIZ$ = ADDR(NIL);
       93    14654
       94    14655    4                CALL Z8EU$NEW_TEMP_FROM_DESC (TYPE_DESC,
       95    14656    4                                              ADDR(TEMP_ITEM));
       96    14657    4              END;
       97    14658    3    END;
       98    14659
       99    14660    2      CASE( %TYB, %TYE );
PL6.E3A0      #001=Z8EH$ACCEPT_STATEMENT File=Z8EH.:Z8A6TSI                      SAT 08/09/97 11:51 Page:4
      100    14661
      101    14662    2        TEMP_REQUIRED = TRUE;
      102    14663    2        IF ACCEPT_ARG$ -> LX_ETT_ITEM.B.REFMOD THEN
      103    14664    2          CALL Z8EU$NEW_TEMP_FROM_ETT (ACCEPT_ARG$ -> LX_ETT_ITEM.ETT$,
      104    14665    2                                       ADDR(TEMP_ITEM));
      105    14666    2        ELSE
      106    14667    3          DO;
      107    14668
      108    14669                 %FISH(TRIAD = ACCEPT_ARG$ -> LX_ETT_ITEM.ETT$,
      109    14670                       RTN   = TEMP_ST$);
      110    14678
      111    14679    3            IF TEMP_ST$ -> VARIABLE.B.CLASS = %CLASS_NUMERIC_EDITED THEN
      112    14680    4              DO;
      113    14681                     %GET_LTS (@ID = %NEL,
      114    14682                              @ST$ = TEMP_ST$,
      115    14683                              @RETURN$ = NEL$);
      116    14726
      117    14727    4                TYPE_DESC.DESC = NEL$ -> NEL.DESC;
      118    14728    4                TYPE_DESC.TYPE = %TYD;
      119    14729    4                TYPE_DESC.SIZ$ = ADDR(NIL);
      120    14730
      121    14731    4                CALL Z8EU$NEW_TEMP_FROM_DESC (TYPE_DESC,
      122    14732    4                                              ADDR(TEMP_ITEM));
      123    14733    4              END;
      124    14734    3            ELSE
      125    14735    3              CALL Z8EU$NEW_TEMP_FROM_ETT (ACCEPT_ARG$ -> LX_ETT_ITEM.ETT$,
      126    14736    3                                           ADDR(TEMP_ITEM));
      127    14737    3          END;
      128    14738
      129    14739    2      CASE(%TYR, %TYH, %TYI, %TYJ, %TYK, %TYQ, %TYF, %TYC);
      130    14740
      131    14741    2        TEMP_REQUIRED = TRUE;
      132    14742             %INIT_LX_ETT_ITEM (     @POINTER = "ADDR(TEMP_ITEM)");
      133    14764    2        ADDR(TEMP_ITEM) -> LX_ETT_ITEM.TYPE = %TYD;
      134    14765
      135    14766    2        CALL Z8AT$CREATE_TEMPORARY (%SCALAR, TEMP_ST$);
      136    14767    2        TEMP_ST$ -> VARIABLE.TYPE = %TYD;
PL6.E3A0      #001=Z8EH$ACCEPT_STATEMENT File=Z8EH.:Z8A6TSI                      SAT 08/09/97 11:51 Page:5
      137    14768    2        TEMP_ST$ -> VARIABLE.NDSC.TN = %NDSC9;
      138    14769
      139    14770    3        DO CASE (ACCEPT_ARG$ -> LX_ETT_ITEM.TYPE);
      140    14771
      141    14772    3         CASE (%TYH, %TYI, %TYJ, %TYK);
      142    14773
      143    14774    3           TEMP_ST$ -> VARIABLE.NDSC.N = %CVID9_LENGTH;
      144    14775    3           TEMP_ST$ -> VARIABLE.NDSC.S = %LEADING_SIGN;
      145    14776
      146    14777    3         CASE (%TYQ);
      147    14778
      148    14779    3           TEMP_ST$ -> VARIABLE.NDSC.N = %CVQD9_LENGTH;
      149    14780    3           TEMP_ST$ -> VARIABLE.NDSC.S = %FLOATING_POINT_LEADING_SIGN;
      150    14781
      151    14782    3         CASE (%TYR);
      152    14783
      153    14784    3           TEMP_ST$ -> VARIABLE.NDSC.N = %CVRD9_LENGTH;
      154    14785    3           TEMP_ST$ -> VARIABLE.NDSC.S = %FLOATING_POINT_LEADING_SIGN;
      155    14786
      156    14787    3         CASE (%TYF, %TYC);
      157    14788
      158    14789                %FISH (TRIAD = ACCEPT_ARG$ -> LX_ETT_ITEM.ETT$,
      159    14790                       RTN   = ST$$);
      160    14798
      161    14799    3           ST$$ -> VARIABLE.NDSC.N = TEMP_ST$ -> VARIABLE.NDSC.N;
      162    14800    3           ST$$ -> VARIABLE.NDSC.SF = TEMP_ST$ -> VARIABLE.NDSC.SF;
      163    14801    3           ST$$ -> VARIABLE.NDSC.S = %TRAILING_SIGN;
      164    14802
      165    14803    3        END;
      166    14804
      167    14805    2        CALL Z8AF$NEW_BASE ( TEMP_ST$,
      168    14806    2          ADDR(NIL),
      169    14807    2          ADDR(TEMP_ITEM) -> LX_ETT_ITEM.ETT$);
      170    14808
      171    14809    2      CASE(ELSE);
      172    14810
      173    14811    2        CALL Z8AE$ERROR (%E$INVALID_ACCEPT_TYPE,
PL6.E3A0      #001=Z8EH$ACCEPT_STATEMENT File=Z8EH.:Z8A6TSI                      SAT 08/09/97 11:51 Page:6
      174    14812    2          ACCEPT_ARG$ -> LX_ETT_ITEM.LINE,
      175    14813    2          ACCEPT_ARG$ -> LX_ETT_ITEM.COLUMN);
      176    14814    2        RETURN;                      /* skip accept statement              */
      177    14815
      178    14816    2    END;
      179    14817
      180    14818    1    IF TEMP_REQUIRED THEN
      181    14819    2    DO;
      182    14820    2       CALL Z9EY$BUILD_RUNTIME_DESCRIPTOR ( ADDR(TEMP_ITEM),
      183    14821    2         RT_DESC_LIST$,
      184    14822    2         1);
      185    14823    2       CALL Z8EY$BUILD_RUNTIME_ARGLIST (ADDR(TEMP_ITEM),
      186    14824    2         RT_ARG_LIST$,
      187    14825    2         1);
      188    14826    2       END;
      189    14827    1    ELSE
      190    14828    2    DO;
      191    14829    2       CALL Z9EY$BUILD_RUNTIME_DESCRIPTOR ( ACCEPT_ARG$,
      192    14830    2         RT_DESC_LIST$,
      193    14831    2         1);
      194    14832    2       CALL Z8EY$BUILD_RUNTIME_ARGLIST ( ACCEPT_ARG$,
      195    14833    2         RT_ARG_LIST$,
      196    14834    2         1);
      197    14835    2    END;
      198    14836
      199    14837        %NEW_ILL ( @ID = %ACCEP,
      200    14838                   @LOP = RT_DESC_LIST$,
      201    14839                   @ROP = RT_ARG_LIST$,
      202    14840                   @CODE = ACCEPT_CODE);
      203    15219
      204    15220    1     IF TEMP_REQUIRED THEN
      205    15221    1       CALL Z8E7$MOVE (ACCEPT_ARG$,
      206    15222    1                ADDR(TEMP_ITEM));
      207    15223
      208    15224
      209    15225    1   END Z8EH$ACCEPT_STATEMENT;
      210    15226        %EOD;
PL6.E3A0      #001=Z8EH$ACCEPT_STATEMENT File=Z8EH.:Z8A6TSI                      SAT 08/09/97 11:51 Page:7

PL6.E3A0      #001=Z8EH$ACCEPT_STATEMENT File=Z8EH.:Z8A6TSI                      SAT 08/09/97 11:51 Page:8
--  Include file information  --

   Z8A_LTS.:Z8A6TOU  cannot be made into a system file and is referenced.
   Z8A_ILL.:Z8A6TOU  cannot be made into a system file and is referenced.
   Z8A_ETT.:Z8A6TOU  cannot be made into a system file and is referenced.
   Z8A_TYPES.:Z8A6TOU  is referenced.
   Z8A_ST.:Z8A6TOU  cannot be made into a system file and is referenced.
   Z8A_ERR_NUMS.:Z8A6TOU  is referenced.
   Z8E_NEW_ILL.:Z8A6TOU  is referenced.
   Z8E_MACROS.:Z8A6TOU  cannot be made into a system file and is referenced.
   Z8E_O1COM.:Z8A6TOU  cannot be made into a system file and is referenced.
   Z8A_LEX_SYMB.:Z8A6TOU  cannot be made into a system file and is referenced.
   Z8E_STACKS.:Z8A6TOU  cannot be made into a system file and is referenced.
   Z8A_COMCOM.:Z8A6TOU  cannot be made into a system file and is referenced.
   X8A_COM_MACS.:X8A6TOU  is referenced.
   Z8A_NAMES.:Z8A6TOU  is referenced.
   Z8A_SUPP_MAC.:Z8A6TOU  is referenced.
   Z8A_DEFC.:Z8A6TOU  cannot be made into a system file and is referenced.
      No diagnostics issued in procedure Z8EH$ACCEPT_STATEMENT.

   Procedure Z8EH$ACCEPT_STATEMENT requires 401 words for executable code.
   Procedure Z8EH$ACCEPT_STATEMENT requires 30 words of local(AUTO) storage.

PL6.E3A0      #001=Z8EH$ACCEPT_STATEMENT File=Z8EH.:Z8A6TSI                      SAT 08/09/97 11:51 Page:9

 Object Unit name= Z8EH$ACCEPT_STATEMENT                      File name= Z8EH.:Z8A6TOU
 UTS= AUG 09 '97 11:51:45.44 SAT                              Compiler= PL-6/E31         Sev=      00
 SharedLib= :SHARED_SYSTEM                                    Alt SharedLib=


    ****  Control sections  ****

 Sect   Type Bound  Init  Size OctSiz  Section name(segment info)
    0  LblCom even  none     1      1  ITERATION
    1  LblCom even  none    90    132  LEX_SYMBOL
    2  LblCom even  none     1      1  CURRENT_LEX_SYMBOL$
    3  LblCom even  none    90    132  TEMP_LEX_SYMBOL
    4  LblCom even  none    90    132  TEMP_LEX_SYMBOL2
    5  LblCom even  none     1      1  ST$
    6  LblCom even  none     5      5  ST_
    7  LblCom even  none     1      1  ETT$
    8  LblCom even  none     1      1  HEAD_ETT$
    9  LblCom even  none   512   1000  ETT_BUCKETS
   10  LblCom even  none     5      5  ETT_
   11  LblCom even  none     1      1  ILL$
   12  LblCom even  none     5      5  ILL_
   13  LblCom even  none     1      1  LTS$
   14  LblCom even  none     5      5  LTS_
   15   Proc  even  none   401    621  Z8EH$ACCEPT_STATEMENT
   16  RoData even  none    23     27  Z8EH$ACCEPT_STATEMENT

    ****  Entry defs  ****

                              Check   Calling
                             calling  sequence
  Sect OctLoc Primary Altret sequence   type   Parms  Name
    15      0   yes            yes      Std        2  Z8EH$ACCEPT_STATEMENT
PL6.E3A0      #001=Z8EH$ACCEPT_STATEMENT File=Z8EH.:Z8A6TSI                      SAT 08/09/97 11:51 Page:10

  ****  Entry refs  ****

         Check        Calling
        calling       sequence
Altret sequence SRef   type   Args  Name
         yes           Std      12 Z8AE$ERROR
         yes           Std       2 Z8EU$NEW_TEMP_FROM_DESC
         yes           Std       2 Z8AT$CREATE_TEMPORARY
         yes           Std       3 Z8AF$NEW_BASE
         yes           Std       3 Z9EY$BUILD_RUNTIME_DESCRIPTOR
         yes           Std       3 Z8EY$BUILD_RUNTIME_ARGLIST
         yes           Std       2 Z8EU$NEW_TEMP_FROM_ETT
         yes           Std       5 Z8AN$NEW_ILL1
         yes           Std       2 Z8E7$MOVE
                       nStd      0 X66_AUTO_2
                       nStd      0 X66_ARET

  ****  Data refs  ****

  Flags:  r = read only, s = secondary
Flgs Name                             Flgs Name                             Flgs Name
     COMCOM                                O1COM                                 HIER_STK_PTR
     HIER_STK                              PAGE_FORMAT                           REP_STK_PTR
     REP_STK                          r    ILL_STEP                         r    LTS_STEP

  ****  Segment refs  ****

  Flags:  r = read only, s = secondary
Flgs Name                             Flgs Name                             Flgs Name
     ISSID                                 NULLSID
PL6.E3A0      #001=Z8EH$ACCEPT_STATEMENT File=Z8EH.:Z8A6TSI                      SAT 08/09/97 11:51 Page:11


        1        1        /*M*     BAAAZ8eh  COBOL85 MODULE  */
        2        2        /*T***********************************************************/
        3        3        /*T*                                                         */
        4        4        /*T* Copyright (c) Bull HN Information Systems Inc., 1997    */
        5        5        /*T*                                                         */
        6        6        /*T***********************************************************/
        7        7        /*************/
        8        8          Z8EH$ACCEPT_STATEMENT : PROC ( ACCEPT_ARG$,

      8 15 000000   000000 700200 xent  Z8EH$ACCEPT* TSX0  ! X66_AUTO_2
        15 000001   000036 000002                    ZERO    30,2

        9        9        /*************/        ACCEPT_CODE );
       10       10
       11       11        %EQU PHASE = 1;
       12       12
       13       13        %INCLUDE Z8A_DEFC;
       14       81        %INCLUDE Z8A_SUPP_MAC ;
       15     2481        %INCLUDE Z8A_COMCOM ;
       16     3131        %INCLUDE Z8E_STACKS ;
       17     5397        %INCLUDE Z8E_O1COM;
       18     6158        %INCLUDE Z8E_MACROS;
       19     6833        %INCLUDE Z8A_ERR_NUMS ;
       20     7597        %INCLUDE Z8A_ST;
       21    11256        %INCLUDE Z8A_TYPES;
       22    11430        %INCLUDE Z8A_ETT ;
       23    11731        %INCLUDE Z8A_ILL ;
       24    12424        %INCLUDE Z8A_LTS ;
       25    14501        %EJECT;
PL6.E3A0      #001=Z8EH$ACCEPT_STATEMENT File=Z8EH.:Z8A6TSI                      SAT 08/09/97 11:51 Page:12
       26    14502        /*I*
       27    14503                 NAME: ACCEPT_STATEMENT
       28    14504
       29    14505          DESCRIPTION: Generate an %ACCEP ILL item with references to a descriptor
       30    14506                       list and an argument list.  If the variable being accepted
       31    14507                       has a format that cannot be directly input , a temporary
       32    14508                       variable is created, the ACCEPT is done to the temporary
       33    14509                       variable, and then this value is moved into the actual variable.
       34    14510        */
       35    14511
       36    14512
       37    14513    1    DCL ACCEPT_ARG$               PTR;
       38    14514    1    DCL ACCEPT_CODE               SBIN WORD;
       39    14515
       40    14516         %DCL_AUTO_LX_ITEM (@NAME=TEMP_ITEM);
       41    14520    1    DCL TEMP_REQUIRED BOOLEAN;
       42    14521    1    DCL TEMP_ST$ PTR;
       43    14522    1    DCL ST$$     PTR;
       44    14523    1    DCL RT_DESC_LIST$ PTR;
       45    14524    1    DCL RT_ARG_LIST$ PTR;
       46    14525    1    DCL NEL$ PTR;
       47    14526    1    DCL 1 TYPE_DESC,
       48    14527              %TYPE_DESC;
       49    14561
       50    14562    1    DCL Z8AT$CREATE_TEMPORARY          ENTRY(2);
       51    14563    1    DCL Z8AF$NEW_BASE                  ENTRY(3);
       52    14564    1    DCL Z8AE$ERROR                     ENTRY(12);
       53    14565    1    DCL Z9EY$BUILD_RUNTIME_DESCRIPTOR  ENTRY(3);
       54    14566    1    DCL Z8EY$BUILD_RUNTIME_ARGLIST     ENTRY(3);
       55    14567    1    DCL Z8E7$MOVE                      ENTRY(2);
       56    14568    1    DCL Z8EU$NEW_TEMP_FROM_DESC        ENTRY(2);
       57    14569    1    DCL Z8EU$NEW_TEMP_FROM_ETT         ENTRY(2);
       58    14570
       59    14571    1    TEMP_REQUIRED = FALSE;

  14571 15 000002   200016 450100                    STZ     TEMP_REQUIRED,,AUTO

PL6.E3A0      #001=Z8EH$ACCEPT_STATEMENT File=Z8EH.:Z8A6TSI                      SAT 08/09/97 11:51 Page:13
       60    14572
       61    14573    1   IF COMCOM.OB.FIPS.LEVEL >= %INT_LEV THEN

  14573 15 000003   000036 720000 xsym               LXL0    COMCOM+30
        15 000004   000002 100003                    CMPX0   2,DU
        15 000005   000023 604000 15                 TMI     s:14581

       62    14574    1     IF ACCEPT_CODE ~= %ACCEPT_SYSIN OR ACCEPT_ARG$ -> LX_ETT_ITEM.B.HIGH_LEV THEN

  14574 15 000006   200004 470500                    LDP0    @ACCEPT_CODE,,AUTO
        15 000007   000000 235100                    LDA     0,,PR0
        15 000010   000004 115007                    CMPA    4,DL
        15 000011   000017 601000 15                 TNZ     s:14575
        15 000012   200003 471500                    LDP1    @ACCEPT_ARG$,,AUTO
        15 000013   100000 473500                    LDP3    0,,PR1
        15 000014   300000 236100                    LDQ     0,,PR3
        15 000015   004000 316007                    CANQ    2048,DL
        15 000016   000023 600000 15                 TZE     s:14581

       63    14575    1       CALL Z8AE$ERROR (%E$LEVEL_CHECK,

  14575 15 000017   000002 630400 16                 EPPR0   2
        15 000020   000000 631400 16                 EPPR1   0
        15 000021   000000 701000 xent               TSX1    Z8AE$ERROR
        15 000022   000000 011000                    NOP     0

       64    14576    1                        O1COM.LINE_NO,
       65    14577    1                        O1COM.COLUMN_NO);
       66    14578
       67    14579        /* Check type of identifiers */
       68    14580
       69    14581    2    DO CASE( ACCEPT_ARG$ -> LX_ETT_ITEM.TYPE );

  14581 15 000023   200003 470500                    LDP0    @ACCEPT_ARG$,,AUTO
        15 000024   000000 471500                    LDP1    0,,PR0
        15 000025   100004 235100                    LDA     4,,PR1
        15 000026   000024 115007                    CMPA    20,DL
PL6.E3A0      #001=Z8EH$ACCEPT_STATEMENT File=Z8EH.:Z8A6TSI                      SAT 08/09/97 11:51 Page:14
        15 000027   000031 602005 15                 TNC     s:14581+6,AL
        15 000030   000462 710000 15                 TRA     s:14811
        15 000031   000475 710000 15                 TRA     s:14818
        15 000032   000275 710000 15                 TRA     s:14741
        15 000033   000275 710000 15                 TRA     s:14741
        15 000034   000475 710000 15                 TRA     s:14818
        15 000035   000275 710000 15                 TRA     s:14741
        15 000036   000275 710000 15                 TRA     s:14741
        15 000037   000151 710000 15                 TRA     s:14662
        15 000040   000275 710000 15                 TRA     s:14741
        15 000041   000055 710000 15                 TRA     s:14589
        15 000042   000462 710000 15                 TRA     s:14811
        15 000043   000462 710000 15                 TRA     s:14811
        15 000044   000275 710000 15                 TRA     s:14741
        15 000045   000151 710000 15                 TRA     s:14662
        15 000046   000462 710000 15                 TRA     s:14811
        15 000047   000055 710000 15                 TRA     s:14589
        15 000050   000275 710000 15                 TRA     s:14741
        15 000051   000462 710000 15                 TRA     s:14811
        15 000052   000462 710000 15                 TRA     s:14811
        15 000053   000462 710000 15                 TRA     s:14811
        15 000054   000275 710000 15                 TRA     s:14741

       70    14582
       71    14583    2      CASE( %TYD, %TYO );

       72    14584
       73    14585             /*  OKAY   */
       74    14586
       75    14587    2      CASE( %TYA, %TYN );

       76    14588
       77    14589    2        IF NOT ACCEPT_ARG$ -> LX_ETT_ITEM.B.REFMOD   THEN

  14589 15 000055   100000 236100                    LDQ     0,,PR1
        15 000056   010000 316007                    CANQ    4096,DL
        15 000057   000475 601000 15                 TNZ     s:14818
PL6.E3A0      #001=Z8EH$ACCEPT_STATEMENT File=Z8EH.:Z8A6TSI                      SAT 08/09/97 11:51 Page:15

       78    14590    3          DO;

       79    14591
       80    14592                 %FISH(TRIAD = ACCEPT_ARG$ -> LX_ETT_ITEM.ETT$,
       81    14593                       RTN = TEMP_ST$);

  14595 15 000060   100001 236100                    LDQ     1,,PR1
        15 000061   200017 756100                    STQ     TEMP_ST$,,AUTO

  14596 15 000062   200017 471500                    LDP1    TEMP_ST$,,AUTO
        15 000063   100000 220100                    LDX0    0,,PR1
        15 000064   000751 100003                    CMPX0   489,DU
        15 000065   000075 603000 15                 TRC     s:14602

  14597 15 000066   200017 470500                    LDP0    TEMP_ST$,,AUTO
        15 000067   000001 236100                    LDQ     1,,PR0
        15 000070   200017 756100                    STQ     TEMP_ST$,,AUTO

  14598 15 000071   200017 470500                    LDP0    TEMP_ST$,,AUTO
        15 000072   000000 220100                    LDX0    0,,PR0
        15 000073   000751 100003                    CMPX0   489,DU
        15 000074   000066 602000 15                 TNC     s:14597

       82    14601
       83    14602    3            IF TEMP_ST$ -> VARIABLE.B.CLASS = %CLASS_NUMERIC_EDITED THEN

  14602 15 000075   200017 470500                    LDP0    TEMP_ST$,,AUTO
        15 000076   000003 236100                    LDQ     3,,PR0
        15 000077   000007 376007                    ANQ     7,DL
        15 000100   000005 116007                    CMPQ    5,DL
        15 000101   000475 601000 15                 TNZ     s:14818

       84    14603    4              DO;

       85    14604    4                TEMP_REQUIRED = TRUE;

PL6.E3A0      #001=Z8EH$ACCEPT_STATEMENT File=Z8EH.:Z8A6TSI                      SAT 08/09/97 11:51 Page:16
  14604 15 000102   400000 236003                    LDQ     -131072,DU
        15 000103   200016 756100                    STQ     TEMP_REQUIRED,,AUTO

       86    14605                     %GET_LTS (@ID = %NEL,
       87    14606                              @ST$ = TEMP_ST$,
       88    14607                              @RETURN$ = NEL$);

  14609 15 000104   000005 236100                    LDQ     5,,PR0
        15 000105   000005 116000 16                 CMPQ    5
        15 000106   000116 600000 15                 TZE     s:14643
        15 000107   000005 471500                    LDP1    5,,PR0
        15 000110   100000 220100                    LDX0    0,,PR1
        15 000111   001105 100003                    CMPX0   581,DU
        15 000112   000116 601000 15                 TNZ     s:14643

  14615 15 000113   100002 236100                    LDQ     2,,PR1
        15 000114   200023 756100                    STQ     NEL$,,AUTO

  14641 15 000115   000130 710000 15                 TRA     s:14651

  14643 15 000116   000005 116000 16                 CMPQ    5
        15 000117   000126 600000 15                 TZE     s:14647
        15 000120   000005 471500                    LDP1    5,,PR0
        15 000121   100000 220100                    LDX0    0,,PR1
        15 000122   001115 100003                    CMPX0   589,DU
        15 000123   000126 601000 15                 TNZ     s:14647

  14645 15 000124   200023 756100                    STQ     NEL$,,AUTO
        15 000125   000130 710000 15                 TRA     s:14651

  14647 15 000126   000005 236000 16                 LDQ     5
        15 000127   200023 756100                    STQ     NEL$,,AUTO

       89    14650
       90    14651    4                TYPE_DESC.DESC = NEL$ -> NEL.DESC;

  14651 15 000130   200023 471500                    LDP1    NEL$,,AUTO
PL6.E3A0      #001=Z8EH$ACCEPT_STATEMENT File=Z8EH.:Z8A6TSI                      SAT 08/09/97 11:51 Page:17
        15 000131   100001 236100                    LDQ     1,,PR1
        15 000132   200025 756100                    STQ     TYPE_DESC+1,,AUTO

       91    14652    4                TYPE_DESC.TYPE = %TYD;

  14652 15 000133   200024 450100                    STZ     TYPE_DESC,,AUTO

       92    14653    4                TYPE_DESC.SIZ$ = ADDR(NIL);

  14653 15 000134   000005 236000 16                 LDQ     5
        15 000135   200026 756100                    STQ     TYPE_DESC+2,,AUTO

       93    14654
       94    14655    4                CALL Z8EU$NEW_TEMP_FROM_DESC (TYPE_DESC,

  14655 15 000136   200006 633500                    EPPR3   TEMP_ITEM,,AUTO
        15 000137   200030 453500                    STP3    TYPE_DESC+4,,AUTO
        15 000140   200030 634500                    EPPR4   TYPE_DESC+4,,AUTO
        15 000141   200033 454500                    STP4    TYPE_DESC+7,,AUTO
        15 000142   200024 635500                    EPPR5   TYPE_DESC,,AUTO
        15 000143   200032 455500                    STP5    TYPE_DESC+6,,AUTO
        15 000144   200032 630500                    EPPR0   TYPE_DESC+6,,AUTO
        15 000145   000006 631400 16                 EPPR1   6
        15 000146   000000 701000 xent               TSX1    Z8EU$NEW_TEMP_FROM_DESC
        15 000147   000000 011000                    NOP     0

       95    14656    4                                              ADDR(TEMP_ITEM));
       96    14657    4              END;

       97    14658    3    END;

  14658 15 000150   000475 710000 15                 TRA     s:14818

       98    14659
       99    14660    2      CASE( %TYB, %TYE );

      100    14661
PL6.E3A0      #001=Z8EH$ACCEPT_STATEMENT File=Z8EH.:Z8A6TSI                      SAT 08/09/97 11:51 Page:18
      101    14662    2        TEMP_REQUIRED = TRUE;

  14662 15 000151   400000 236003                    LDQ     -131072,DU
        15 000152   200016 756100                    STQ     TEMP_REQUIRED,,AUTO

      102    14663    2        IF ACCEPT_ARG$ -> LX_ETT_ITEM.B.REFMOD THEN

  14663 15 000153   100000 236100                    LDQ     0,,PR1
        15 000154   010000 316007                    CANQ    4096,DL
        15 000155   000171 600000 15                 TZE     s:14672

      103    14664    2          CALL Z8EU$NEW_TEMP_FROM_ETT (ACCEPT_ARG$ -> LX_ETT_ITEM.ETT$,

  14664 15 000156   200006 633500                    EPPR3   TEMP_ITEM,,AUTO
        15 000157   200030 453500                    STP3    TYPE_DESC+4,,AUTO
        15 000160   200030 634500                    EPPR4   TYPE_DESC+4,,AUTO
        15 000161   200033 454500                    STP4    TYPE_DESC+7,,AUTO
        15 000162   100001 635500                    EPPR5   1,,PR1
        15 000163   200032 455500                    STP5    TYPE_DESC+6,,AUTO
        15 000164   200032 630500                    EPPR0   TYPE_DESC+6,,AUTO
        15 000165   000006 631400 16                 EPPR1   6
        15 000166   000000 701000 xent               TSX1    Z8EU$NEW_TEMP_FROM_ETT
        15 000167   000000 011000                    NOP     0
        15 000170   000475 710000 15                 TRA     s:14818

      104    14665    2                                       ADDR(TEMP_ITEM));
      105    14666    2        ELSE
      106    14667    3          DO;

      107    14668
      108    14669                 %FISH(TRIAD = ACCEPT_ARG$ -> LX_ETT_ITEM.ETT$,
      109    14670                       RTN   = TEMP_ST$);

  14672 15 000171   100001 236100                    LDQ     1,,PR1
        15 000172   200017 756100                    STQ     TEMP_ST$,,AUTO

  14673 15 000173   200017 471500                    LDP1    TEMP_ST$,,AUTO
PL6.E3A0      #001=Z8EH$ACCEPT_STATEMENT File=Z8EH.:Z8A6TSI                      SAT 08/09/97 11:51 Page:19
        15 000174   100000 220100                    LDX0    0,,PR1
        15 000175   000751 100003                    CMPX0   489,DU
        15 000176   000206 603000 15                 TRC     s:14679

  14674 15 000177   200017 470500                    LDP0    TEMP_ST$,,AUTO
        15 000200   000001 236100                    LDQ     1,,PR0
        15 000201   200017 756100                    STQ     TEMP_ST$,,AUTO

  14675 15 000202   200017 470500                    LDP0    TEMP_ST$,,AUTO
        15 000203   000000 220100                    LDX0    0,,PR0
        15 000204   000751 100003                    CMPX0   489,DU
        15 000205   000177 602000 15                 TNC     s:14674

      110    14678
      111    14679    3            IF TEMP_ST$ -> VARIABLE.B.CLASS = %CLASS_NUMERIC_EDITED THEN

  14679 15 000206   200017 470500                    LDP0    TEMP_ST$,,AUTO
        15 000207   000003 236100                    LDQ     3,,PR0
        15 000210   000007 376007                    ANQ     7,DL
        15 000211   000005 116007                    CMPQ    5,DL
        15 000212   000260 601000 15                 TNZ     s:14735

      112    14680    4              DO;

      113    14681                     %GET_LTS (@ID = %NEL,
      114    14682                              @ST$ = TEMP_ST$,
      115    14683                              @RETURN$ = NEL$);

  14685 15 000213   000005 236100                    LDQ     5,,PR0
        15 000214   000005 116000 16                 CMPQ    5
        15 000215   000225 600000 15                 TZE     s:14719
        15 000216   000005 471500                    LDP1    5,,PR0
        15 000217   100000 220100                    LDX0    0,,PR1
        15 000220   001105 100003                    CMPX0   581,DU
        15 000221   000225 601000 15                 TNZ     s:14719

  14691 15 000222   100002 236100                    LDQ     2,,PR1
PL6.E3A0      #001=Z8EH$ACCEPT_STATEMENT File=Z8EH.:Z8A6TSI                      SAT 08/09/97 11:51 Page:20
        15 000223   200023 756100                    STQ     NEL$,,AUTO

  14717 15 000224   000237 710000 15                 TRA     s:14727

  14719 15 000225   000005 116000 16                 CMPQ    5
        15 000226   000235 600000 15                 TZE     s:14723
        15 000227   000005 471500                    LDP1    5,,PR0
        15 000230   100000 220100                    LDX0    0,,PR1
        15 000231   001115 100003                    CMPX0   589,DU
        15 000232   000235 601000 15                 TNZ     s:14723

  14721 15 000233   200023 756100                    STQ     NEL$,,AUTO
        15 000234   000237 710000 15                 TRA     s:14727

  14723 15 000235   000005 236000 16                 LDQ     5
        15 000236   200023 756100                    STQ     NEL$,,AUTO

      116    14726
      117    14727    4                TYPE_DESC.DESC = NEL$ -> NEL.DESC;

  14727 15 000237   200023 471500                    LDP1    NEL$,,AUTO
        15 000240   100001 236100                    LDQ     1,,PR1
        15 000241   200025 756100                    STQ     TYPE_DESC+1,,AUTO

      118    14728    4                TYPE_DESC.TYPE = %TYD;

  14728 15 000242   200024 450100                    STZ     TYPE_DESC,,AUTO

      119    14729    4                TYPE_DESC.SIZ$ = ADDR(NIL);

  14729 15 000243   000005 236000 16                 LDQ     5
        15 000244   200026 756100                    STQ     TYPE_DESC+2,,AUTO

      120    14730
      121    14731    4                CALL Z8EU$NEW_TEMP_FROM_DESC (TYPE_DESC,

  14731 15 000245   200006 633500                    EPPR3   TEMP_ITEM,,AUTO
PL6.E3A0      #001=Z8EH$ACCEPT_STATEMENT File=Z8EH.:Z8A6TSI                      SAT 08/09/97 11:51 Page:21
        15 000246   200030 453500                    STP3    TYPE_DESC+4,,AUTO
        15 000247   200030 634500                    EPPR4   TYPE_DESC+4,,AUTO
        15 000250   200033 454500                    STP4    TYPE_DESC+7,,AUTO
        15 000251   200024 635500                    EPPR5   TYPE_DESC,,AUTO
        15 000252   200032 455500                    STP5    TYPE_DESC+6,,AUTO
        15 000253   200032 630500                    EPPR0   TYPE_DESC+6,,AUTO
        15 000254   000006 631400 16                 EPPR1   6
        15 000255   000000 701000 xent               TSX1    Z8EU$NEW_TEMP_FROM_DESC
        15 000256   000000 011000                    NOP     0

      122    14732    4                                              ADDR(TEMP_ITEM));
      123    14733    4              END;

  14733 15 000257   000475 710000 15                 TRA     s:14818

      124    14734    3            ELSE
      125    14735    3              CALL Z8EU$NEW_TEMP_FROM_ETT (ACCEPT_ARG$ -> LX_ETT_ITEM.ETT$,

  14735 15 000260   200003 471500                    LDP1    @ACCEPT_ARG$,,AUTO
        15 000261   100000 473500                    LDP3    0,,PR1
        15 000262   200006 634500                    EPPR4   TEMP_ITEM,,AUTO
        15 000263   200030 454500                    STP4    TYPE_DESC+4,,AUTO
        15 000264   200030 635500                    EPPR5   TYPE_DESC+4,,AUTO
        15 000265   200033 455500                    STP5    TYPE_DESC+7,,AUTO
        15 000266   300001 636500                    EPPR6   1,,PR3
        15 000267   200032 456500                    STP6    TYPE_DESC+6,,AUTO
        15 000270   200032 630500                    EPPR0   TYPE_DESC+6,,AUTO
        15 000271   000006 631400 16                 EPPR1   6
        15 000272   000000 701000 xent               TSX1    Z8EU$NEW_TEMP_FROM_ETT
        15 000273   000000 011000                    NOP     0

      126    14736    3                                           ADDR(TEMP_ITEM));
      127    14737    3          END;

  14737 15 000274   000475 710000 15                 TRA     s:14818

      128    14738
PL6.E3A0      #001=Z8EH$ACCEPT_STATEMENT File=Z8EH.:Z8A6TSI                      SAT 08/09/97 11:51 Page:22
      129    14739    2      CASE(%TYR, %TYH, %TYI, %TYJ, %TYK, %TYQ, %TYF, %TYC);

      130    14740
      131    14741    2        TEMP_REQUIRED = TRUE;

  14741 15 000275   400000 236003                    LDQ     -131072,DU
        15 000276   200016 756100                    STQ     TEMP_REQUIRED,,AUTO

      132    14742             %INIT_LX_ETT_ITEM (     @POINTER = "ADDR(TEMP_ITEM)");

  14744 15 000277   000004 220003                    LDX0    4,DU
        15 000300   200006 740100                    STX0    TEMP_ITEM,,AUTO

  14745 15 000301   000000 221003                    LDX1    0,DU
        15 000302   200006 441100                    SXL1    TEMP_ITEM,,AUTO

  14746 15 000303   000015 235007                    LDA     13,DL
        15 000304   200012 755100                    STA     TEMP_ITEM+4,,AUTO

  14747 15 000305   000005 236000 16                 LDQ     5
        15 000306   200015 756100                    STQ     TEMP_ITEM+7,,AUTO

  14748 15 000307   200007 756100                    STQ     TEMP_ITEM+1,,AUTO

  14749 15 000310   200010 756100                    STQ     TEMP_ITEM+2,,AUTO

  14751 15 000311   000133 235000 xsym               LDA     COMCOM+91
        15 000312   200013 755100                    STA     TEMP_ITEM+5,,AUTO

  14752 15 000313   000134 235000 xsym               LDA     COMCOM+92
        15 000314   200014 755100                    STA     TEMP_ITEM+6,,AUTO

      133    14764    2        ADDR(TEMP_ITEM) -> LX_ETT_ITEM.TYPE = %TYD;

  14764 15 000315   200012 450100                    STZ     TEMP_ITEM+4,,AUTO

      134    14765
PL6.E3A0      #001=Z8EH$ACCEPT_STATEMENT File=Z8EH.:Z8A6TSI                      SAT 08/09/97 11:51 Page:23
      135    14766    2        CALL Z8AT$CREATE_TEMPORARY (%SCALAR, TEMP_ST$);

  14766 15 000316   200017 631500                    EPPR1   TEMP_ST$,,AUTO
        15 000317   200031 451500                    STP1    TYPE_DESC+5,,AUTO
        15 000320   000010 236000 16                 LDQ     8
        15 000321   200030 756100                    STQ     TYPE_DESC+4,,AUTO
        15 000322   200030 630500                    EPPR0   TYPE_DESC+4,,AUTO
        15 000323   000006 631400 16                 EPPR1   6
        15 000324   000000 701000 xent               TSX1    Z8AT$CREATE_TEMPORARY
        15 000325   000000 011000                    NOP     0

      136    14767    2        TEMP_ST$ -> VARIABLE.TYPE = %TYD;

  14767 15 000326   000000 220003                    LDX0    0,DU
        15 000327   200017 470500                    LDP0    TEMP_ST$,,AUTO
        15 000330   000002 740100                    STX0    2,,PR0

      137    14768    2        TEMP_ST$ -> VARIABLE.NDSC.TN = %NDSC9;

  14768 15 000331   200017 470500                    LDP0    TEMP_ST$,,AUTO
        15 000332   000011 236000 16                 LDQ     9
        15 000333   000001 356100                    ANSQ    1,,PR0

      138    14769
      139    14770    3        DO CASE (ACCEPT_ARG$ -> LX_ETT_ITEM.TYPE);

  14770 15 000334   200003 470500                    LDP0    @ACCEPT_ARG$,,AUTO
        15 000335   000000 471500                    LDP1    0,,PR0
        15 000336   100004 235100                    LDA     4,,PR1
        15 000337   000024 115007                    CMPA    20,DL
        15 000340   000342 602005 15                 TNC     s:14770+6,AL
        15 000341   000445 710000 15                 TRA     s:14805
        15 000342   000445 710000 15                 TRA     s:14805
        15 000343   000366 710000 15                 TRA     s:14774
        15 000344   000366 710000 15                 TRA     s:14774
        15 000345   000445 710000 15                 TRA     s:14805
        15 000346   000406 710000 15                 TRA     s:14784
PL6.E3A0      #001=Z8EH$ACCEPT_STATEMENT File=Z8EH.:Z8A6TSI                      SAT 08/09/97 11:51 Page:24
        15 000347   000377 710000 15                 TRA     s:14779
        15 000350   000445 710000 15                 TRA     s:14805
        15 000351   000366 710000 15                 TRA     s:14774
        15 000352   000445 710000 15                 TRA     s:14805
        15 000353   000445 710000 15                 TRA     s:14805
        15 000354   000445 710000 15                 TRA     s:14805
        15 000355   000415 710000 15                 TRA     s:14792
        15 000356   000445 710000 15                 TRA     s:14805
        15 000357   000445 710000 15                 TRA     s:14805
        15 000360   000445 710000 15                 TRA     s:14805
        15 000361   000366 710000 15                 TRA     s:14774
        15 000362   000445 710000 15                 TRA     s:14805
        15 000363   000445 710000 15                 TRA     s:14805
        15 000364   000445 710000 15                 TRA     s:14805
        15 000365   000415 710000 15                 TRA     s:14792

      140    14771
      141    14772    3         CASE (%TYH, %TYI, %TYJ, %TYK);

      142    14773
      143    14774    3           TEMP_ST$ -> VARIABLE.NDSC.N = %CVID9_LENGTH;

  14774 15 000366   200017 473500                    LDP3    TEMP_ST$,,AUTO
        15 000367   000014 236007                    LDQ     12,DL
        15 000370   300001 752101                    STCQ    1,'01'O,PR3

      144    14775    3           TEMP_ST$ -> VARIABLE.NDSC.S = %LEADING_SIGN;

  14775 15 000371   200017 471500                    LDP1    TEMP_ST$,,AUTO
        15 000372   100001 236100                    LDQ     1,,PR1
        15 000373   000012 376000 16                 ANQ     10
        15 000374   010000 276007                    ORQ     4096,DL
        15 000375   100001 756100                    STQ     1,,PR1
        15 000376   000445 710000 15                 TRA     s:14805

      145    14776
      146    14777    3         CASE (%TYQ);
PL6.E3A0      #001=Z8EH$ACCEPT_STATEMENT File=Z8EH.:Z8A6TSI                      SAT 08/09/97 11:51 Page:25

      147    14778
      148    14779    3           TEMP_ST$ -> VARIABLE.NDSC.N = %CVQD9_LENGTH;

  14779 15 000377   200017 473500                    LDP3    TEMP_ST$,,AUTO
        15 000400   000024 236007                    LDQ     20,DL
        15 000401   300001 752101                    STCQ    1,'01'O,PR3

      149    14780    3           TEMP_ST$ -> VARIABLE.NDSC.S = %FLOATING_POINT_LEADING_SIGN;

  14780 15 000402   200017 471500                    LDP1    TEMP_ST$,,AUTO
        15 000403   000012 236000 16                 LDQ     10
        15 000404   100001 356100                    ANSQ    1,,PR1
        15 000405   000445 710000 15                 TRA     s:14805

      150    14781
      151    14782    3         CASE (%TYR);

      152    14783
      153    14784    3           TEMP_ST$ -> VARIABLE.NDSC.N = %CVRD9_LENGTH;

  14784 15 000406   200017 473500                    LDP3    TEMP_ST$,,AUTO
        15 000407   000012 236007                    LDQ     10,DL
        15 000410   300001 752101                    STCQ    1,'01'O,PR3

      154    14785    3           TEMP_ST$ -> VARIABLE.NDSC.S = %FLOATING_POINT_LEADING_SIGN;

  14785 15 000411   200017 471500                    LDP1    TEMP_ST$,,AUTO
        15 000412   000012 236000 16                 LDQ     10
        15 000413   100001 356100                    ANSQ    1,,PR1
        15 000414   000445 710000 15                 TRA     s:14805

      155    14786
      156    14787    3         CASE (%TYF, %TYC);

      157    14788
      158    14789                %FISH (TRIAD = ACCEPT_ARG$ -> LX_ETT_ITEM.ETT$,
PL6.E3A0      #001=Z8EH$ACCEPT_STATEMENT File=Z8EH.:Z8A6TSI                      SAT 08/09/97 11:51 Page:26
      159    14790                       RTN   = ST$$);

  14792 15 000415   100001 236100                    LDQ     1,,PR1
        15 000416   200020 756100                    STQ     ST$$,,AUTO

  14793 15 000417   200020 473500                    LDP3    ST$$,,AUTO
        15 000420   300000 221100                    LDX1    0,,PR3
        15 000421   000751 101003                    CMPX1   489,DU
        15 000422   000432 603000 15                 TRC     s:14799

  14794 15 000423   200020 470500                    LDP0    ST$$,,AUTO
        15 000424   000001 236100                    LDQ     1,,PR0
        15 000425   200020 756100                    STQ     ST$$,,AUTO

  14795 15 000426   200020 470500                    LDP0    ST$$,,AUTO
        15 000427   000000 220100                    LDX0    0,,PR0
        15 000430   000751 100003                    CMPX0   489,DU
        15 000431   000423 602000 15                 TNC     s:14794

      160    14798
      161    14799    3           ST$$ -> VARIABLE.NDSC.N = TEMP_ST$ -> VARIABLE.NDSC.N;

  14799 15 000432   200017 470500                    LDP0    TEMP_ST$,,AUTO
        15 000433   200020 471500                    LDP1    ST$$,,AUTO
        15 000434   000001 236100                    LDQ     1,,PR0
        15 000435   100001 752101                    STCQ    1,'01'O,PR1

      162    14800    3           ST$$ -> VARIABLE.NDSC.SF = TEMP_ST$ -> VARIABLE.NDSC.SF;

  14800 15 000436   200017 470500                    LDP0    TEMP_ST$,,AUTO
        15 000437   000001 236100                    LDQ     1,,PR0
        15 000440   100001 752102                    STCQ    1,'02'O,PR1

      163    14801    3           ST$$ -> VARIABLE.NDSC.S = %TRAILING_SIGN;

  14801 15 000441   100001 236100                    LDQ     1,,PR1
        15 000442   000012 376000 16                 ANQ     10
PL6.E3A0      #001=Z8EH$ACCEPT_STATEMENT File=Z8EH.:Z8A6TSI                      SAT 08/09/97 11:51 Page:27
        15 000443   020000 276007                    ORQ     8192,DL
        15 000444   100001 756100                    STQ     1,,PR1

      164    14802
      165    14803    3        END;

      166    14804
      167    14805    2        CALL Z8AF$NEW_BASE ( TEMP_ST$,

  14805 15 000445   000005 236000 16                 LDQ     5
        15 000446   200030 756100                    STQ     TYPE_DESC+4,,AUTO
        15 000447   200007 630500                    EPPR0   TEMP_ITEM+1,,AUTO
        15 000450   200033 450500                    STP0    TYPE_DESC+7,,AUTO
        15 000451   200030 631500                    EPPR1   TYPE_DESC+4,,AUTO
        15 000452   200032 451500                    STP1    TYPE_DESC+6,,AUTO
        15 000453   200017 633500                    EPPR3   TEMP_ST$,,AUTO
        15 000454   200031 453500                    STP3    TYPE_DESC+5,,AUTO
        15 000455   200031 630500                    EPPR0   TYPE_DESC+5,,AUTO
        15 000456   000000 631400 16                 EPPR1   0
        15 000457   000000 701000 xent               TSX1    Z8AF$NEW_BASE
        15 000460   000000 011000                    NOP     0
        15 000461   000475 710000 15                 TRA     s:14818

      168    14806    2          ADDR(NIL),
      169    14807    2          ADDR(TEMP_ITEM) -> LX_ETT_ITEM.ETT$);
      170    14808
      171    14809    2      CASE(ELSE);

      172    14810
      173    14811    2        CALL Z8AE$ERROR (%E$INVALID_ACCEPT_TYPE,

  14811 15 000462   100006 633500                    EPPR3   6,,PR1
        15 000463   200032 453500                    STP3    TYPE_DESC+6,,AUTO
        15 000464   100005 634500                    EPPR4   5,,PR1
        15 000465   200031 454500                    STP4    TYPE_DESC+5,,AUTO
        15 000466   000014 236000 16                 LDQ     12
        15 000467   200030 756100                    STQ     TYPE_DESC+4,,AUTO
PL6.E3A0      #001=Z8EH$ACCEPT_STATEMENT File=Z8EH.:Z8A6TSI                      SAT 08/09/97 11:51 Page:28
        15 000470   200030 630500                    EPPR0   TYPE_DESC+4,,AUTO
        15 000471   000000 631400 16                 EPPR1   0
        15 000472   000000 701000 xent               TSX1    Z8AE$ERROR
        15 000473   000000 011000                    NOP     0

      174    14812    2          ACCEPT_ARG$ -> LX_ETT_ITEM.LINE,
      175    14813    2          ACCEPT_ARG$ -> LX_ETT_ITEM.COLUMN);
      176    14814    2        RETURN;                      /* skip accept statement              */

  14814 15 000474   000000 702200 xent               TSX2  ! X66_ARET

      177    14815
      178    14816    2    END;

      179    14817
      180    14818    1    IF TEMP_REQUIRED THEN

  14818 15 000475   200016 234100                    SZN     TEMP_REQUIRED,,AUTO
        15 000476   000530 605000 15                 TPL     s:14829

      181    14819    2    DO;

      182    14820    2       CALL Z9EY$BUILD_RUNTIME_DESCRIPTOR ( ADDR(TEMP_ITEM),

  14820 15 000477   200006 630500                    EPPR0   TEMP_ITEM,,AUTO
        15 000500   200030 450500                    STP0    TYPE_DESC+4,,AUTO
        15 000501   000016 236000 16                 LDQ     14
        15 000502   200033 756100                    STQ     TYPE_DESC+7,,AUTO
        15 000503   200021 631500                    EPPR1   RT_DESC_LIST$,,AUTO
        15 000504   200032 451500                    STP1    TYPE_DESC+6,,AUTO
        15 000505   200030 633500                    EPPR3   TYPE_DESC+4,,AUTO
        15 000506   200031 453500                    STP3    TYPE_DESC+5,,AUTO
        15 000507   200031 630500                    EPPR0   TYPE_DESC+5,,AUTO
        15 000510   000000 631400 16                 EPPR1   0
        15 000511   000000 701000 xent               TSX1    Z9EY$BUILD_RUNTIME_DESCRIPTOR
        15 000512   000000 011000                    NOP     0

PL6.E3A0      #001=Z8EH$ACCEPT_STATEMENT File=Z8EH.:Z8A6TSI                      SAT 08/09/97 11:51 Page:29
      183    14821    2         RT_DESC_LIST$,
      184    14822    2         1);
      185    14823    2       CALL Z8EY$BUILD_RUNTIME_ARGLIST (ADDR(TEMP_ITEM),

  14823 15 000513   200006 630500                    EPPR0   TEMP_ITEM,,AUTO
        15 000514   200030 450500                    STP0    TYPE_DESC+4,,AUTO
        15 000515   000016 236000 16                 LDQ     14
        15 000516   200033 756100                    STQ     TYPE_DESC+7,,AUTO
        15 000517   200022 631500                    EPPR1   RT_ARG_LIST$,,AUTO
        15 000520   200032 451500                    STP1    TYPE_DESC+6,,AUTO
        15 000521   200030 633500                    EPPR3   TYPE_DESC+4,,AUTO
        15 000522   200031 453500                    STP3    TYPE_DESC+5,,AUTO
        15 000523   200031 630500                    EPPR0   TYPE_DESC+5,,AUTO
        15 000524   000000 631400 16                 EPPR1   0
        15 000525   000000 701000 xent               TSX1    Z8EY$BUILD_RUNTIME_ARGLIST
        15 000526   000000 011000                    NOP     0

      186    14824    2         RT_ARG_LIST$,
      187    14825    2         1);
      188    14826    2       END;

  14826 15 000527   000554 710000 15                 TRA     s:15035

      189    14827    1    ELSE
      190    14828    2    DO;

      191    14829    2       CALL Z9EY$BUILD_RUNTIME_DESCRIPTOR ( ACCEPT_ARG$,

  14829 15 000530   000016 236000 16                 LDQ     14
        15 000531   200032 756100                    STQ     TYPE_DESC+6,,AUTO
        15 000532   200021 630500                    EPPR0   RT_DESC_LIST$,,AUTO
        15 000533   200031 450500                    STP0    TYPE_DESC+5,,AUTO
        15 000534   200003 236100                    LDQ     @ACCEPT_ARG$,,AUTO
        15 000535   200030 756100                    STQ     TYPE_DESC+4,,AUTO
        15 000536   200030 630500                    EPPR0   TYPE_DESC+4,,AUTO
        15 000537   000000 631400 16                 EPPR1   0
        15 000540   000000 701000 xent               TSX1    Z9EY$BUILD_RUNTIME_DESCRIPTOR
PL6.E3A0      #001=Z8EH$ACCEPT_STATEMENT File=Z8EH.:Z8A6TSI                      SAT 08/09/97 11:51 Page:30
        15 000541   000000 011000                    NOP     0

      192    14830    2         RT_DESC_LIST$,
      193    14831    2         1);
      194    14832    2       CALL Z8EY$BUILD_RUNTIME_ARGLIST ( ACCEPT_ARG$,

  14832 15 000542   000016 236000 16                 LDQ     14
        15 000543   200032 756100                    STQ     TYPE_DESC+6,,AUTO
        15 000544   200022 630500                    EPPR0   RT_ARG_LIST$,,AUTO
        15 000545   200031 450500                    STP0    TYPE_DESC+5,,AUTO
        15 000546   200003 236100                    LDQ     @ACCEPT_ARG$,,AUTO
        15 000547   200030 756100                    STQ     TYPE_DESC+4,,AUTO
        15 000550   200030 630500                    EPPR0   TYPE_DESC+4,,AUTO
        15 000551   000000 631400 16                 EPPR1   0
        15 000552   000000 701000 xent               TSX1    Z8EY$BUILD_RUNTIME_ARGLIST
        15 000553   000000 011000                    NOP     0

      195    14833    2         RT_ARG_LIST$,
      196    14834    2         1);
      197    14835    2    END;

      198    14836
      199    14837        %NEW_ILL ( @ID = %ACCEP,
      200    14838                   @LOP = RT_DESC_LIST$,
      201    14839                   @ROP = RT_ARG_LIST$,
      202    14840                   @CODE = ACCEPT_CODE);

  15035 15 000554   000022 236000 16                 LDQ     18
        15 000555   200030 756100                    STQ     TYPE_DESC+4,,AUTO
        15 000556   200022 236100                    LDQ     RT_ARG_LIST$,,AUTO
        15 000557   000001 036003                    ADLQ    1,DU
        15 000560   200035 756100                    STQ     TYPE_DESC+9,,AUTO
        15 000561   200030 630500                    EPPR0   TYPE_DESC+4,,AUTO
        15 000562   200034 450500                    STP0    TYPE_DESC+8,,AUTO
        15 000563   000024 237000 16                 LDAQ    20
        15 000564   200032 757100                    STAQ    TYPE_DESC+6,,AUTO
        15 000565   000026 236000 16                 LDQ     22
PL6.E3A0      #001=Z8EH$ACCEPT_STATEMENT File=Z8EH.:Z8A6TSI                      SAT 08/09/97 11:51 Page:31
        15 000566   200031 756100                    STQ     TYPE_DESC+5,,AUTO
        15 000567   200031 630500                    EPPR0   TYPE_DESC+5,,AUTO
        15 000570   000017 631400 16                 EPPR1   15
        15 000571   000000 701000 xent               TSX1    Z8AN$NEW_ILL1
        15 000572   000000 011000                    NOP     0

  15037 15 000573   200004 470500                    LDP0    @ACCEPT_CODE,,AUTO
        15 000574   000000 720100                    LXL0    0,,PR0
        15 000575   000000 471400 11                 LDP1    ILL$
        15 000576   100000 440100                    SXL0    0,,PR1

  15038 15 000577   200021 236100                    LDQ     RT_DESC_LIST$,,AUTO
        15 000600   000000 471400 11                 LDP1    ILL$
        15 000601   100001 756100                    STQ     1,,PR1

  15039 15 000602   200022 236100                    LDQ     RT_ARG_LIST$,,AUTO
        15 000603   100002 756100                    STQ     2,,PR1

      203    15219
      204    15220    1     IF TEMP_REQUIRED THEN

  15220 15 000604   200016 234100                    SZN     TEMP_REQUIRED,,AUTO
        15 000605   000620 605000 15                 TPL     s:15225

      205    15221    1       CALL Z8E7$MOVE (ACCEPT_ARG$,

  15221 15 000606   200006 633500                    EPPR3   TEMP_ITEM,,AUTO
        15 000607   200030 453500                    STP3    TYPE_DESC+4,,AUTO
        15 000610   200030 634500                    EPPR4   TYPE_DESC+4,,AUTO
        15 000611   200033 454500                    STP4    TYPE_DESC+7,,AUTO
        15 000612   200003 236100                    LDQ     @ACCEPT_ARG$,,AUTO
        15 000613   200032 756100                    STQ     TYPE_DESC+6,,AUTO
        15 000614   200032 630500                    EPPR0   TYPE_DESC+6,,AUTO
        15 000615   000006 631400 16                 EPPR1   6
        15 000616   000000 701000 xent               TSX1    Z8E7$MOVE
        15 000617   000000 011000                    NOP     0

PL6.E3A0      #001=Z8EH$ACCEPT_STATEMENT File=Z8EH.:Z8A6TSI                      SAT 08/09/97 11:51 Page:32
      206    15222    1                ADDR(TEMP_ITEM));
      207    15223
      208    15224
      209    15225    1   END Z8EH$ACCEPT_STATEMENT;

  15225 15 000620   000000 702200 xent               TSX2  ! X66_ARET
      210    15226        %EOD;

PL6.E3A0      #001=Z8EH$ACCEPT_STATEMENT File=Z8EH.:Z8A6TSI                      SAT 08/09/97 11:51 Page:33
--  Include file information  --

   Z8A_LTS.:Z8A6TOU  cannot be made into a system file and is referenced.
   Z8A_ILL.:Z8A6TOU  cannot be made into a system file and is referenced.
   Z8A_ETT.:Z8A6TOU  cannot be made into a system file and is referenced.
   Z8A_TYPES.:Z8A6TOU  is referenced.
   Z8A_ST.:Z8A6TOU  cannot be made into a system file and is referenced.
   Z8A_ERR_NUMS.:Z8A6TOU  is referenced.
   Z8E_NEW_ILL.:Z8A6TOU  is referenced.
   Z8E_MACROS.:Z8A6TOU  cannot be made into a system file and is referenced.
   Z8E_O1COM.:Z8A6TOU  cannot be made into a system file and is referenced.
   Z8A_LEX_SYMB.:Z8A6TOU  cannot be made into a system file and is referenced.
   Z8E_STACKS.:Z8A6TOU  cannot be made into a system file and is referenced.
   Z8A_COMCOM.:Z8A6TOU  cannot be made into a system file and is referenced.
   X8A_COM_MACS.:X8A6TOU  is referenced.
   Z8A_NAMES.:Z8A6TOU  is referenced.
   Z8A_SUPP_MAC.:Z8A6TOU  is referenced.
   Z8A_DEFC.:Z8A6TOU  cannot be made into a system file and is referenced.
      No diagnostics issued in procedure Z8EH$ACCEPT_STATEMENT.
PL6.E3A0      #001=Z8EH$ACCEPT_STATEMENT File=Z8EH.:Z8A6TSI                      SAT 08/09/97 11:51 Page:34

 **** Variables and constants ****

  ****  Section 000 LblCom ITERATION

  ****  Scalars and arrays  ****
OctLoc.c.b A Datatyp(siz) R M Lvl/name                 OctLoc.c.b A Datatyp(siz) R M Lvl/name

     0-0-0/w SBIN              1 ITERATION

  ****  Section 001 LblCom LEX_SYMBOL

  ****  Scalars and arrays  ****
OctLoc.c.b A Datatyp(siz) R M Lvl/name                 OctLoc.c.b A Datatyp(siz) R M Lvl/name

     0-0-0/w STRC(3240)  r     1 LEX_SYMBOL                 0-0-0/w STRC(3240)        1 LEX_SYMBOL_WORDS

  ****  Section 002 LblCom CURRENT_LEX_SYMBOL$

  ****  Scalars and arrays  ****
OctLoc.c.b A Datatyp(siz) R M Lvl/name                 OctLoc.c.b A Datatyp(siz) R M Lvl/name

     0-0-0/w PTR         r     1 CURRENT_LEX_SYMBOL$

  ****  Section 003 LblCom TEMP_LEX_SYMBOL

  ****  Scalars and arrays  ****
OctLoc.c.b A Datatyp(siz) R M Lvl/name                 OctLoc.c.b A Datatyp(siz) R M Lvl/name

     0-0-0/w STRC(3240)        1 TEMP_LEX_SYMBOL

  ****  Section 004 LblCom TEMP_LEX_SYMBOL2

  ****  Scalars and arrays  ****
OctLoc.c.b A Datatyp(siz) R M Lvl/name                 OctLoc.c.b A Datatyp(siz) R M Lvl/name

     0-0-0/w STRC(3240)        1 TEMP_LEX_SYMBOL2

PL6.E3A0      #001=Z8EH$ACCEPT_STATEMENT File=Z8EH.:Z8A6TSI                      SAT 08/09/97 11:51 Page:35
  ****  Section 005 LblCom ST$

  ****  Scalars and arrays  ****
OctLoc.c.b A Datatyp(siz) R M Lvl/name                 OctLoc.c.b A Datatyp(siz) R M Lvl/name

     0-0-0/w PTR         r     1 ST$

  ****  Section 006 LblCom ST_

  ****  Scalars and arrays  ****
OctLoc.c.b A Datatyp(siz) R M Lvl/name                 OctLoc.c.b A Datatyp(siz) R M Lvl/name

     0-0-0/w STRC(180)         1 ST_

  ****  Section 007 LblCom ETT$

  ****  Scalars and arrays  ****
OctLoc.c.b A Datatyp(siz) R M Lvl/name                 OctLoc.c.b A Datatyp(siz) R M Lvl/name

     0-0-0/w PTR         r     1 ETT$

  ****  Section 008 LblCom HEAD_ETT$

  ****  Scalars and arrays  ****
OctLoc.c.b A Datatyp(siz) R M Lvl/name                 OctLoc.c.b A Datatyp(siz) R M Lvl/name

     0-0-0/w PTR               1 HEAD_ETT$

  ****  Section 009 LblCom ETT_BUCKETS

  ****  Scalars and arrays  ****
OctLoc.c.b A Datatyp(siz) R M Lvl/name                 OctLoc.c.b A Datatyp(siz) R M Lvl/name

     0-0-0/w PTR               1 ETT_BUCKETS(0:511)

  ****  Section 010 LblCom ETT_

PL6.E3A0      #001=Z8EH$ACCEPT_STATEMENT File=Z8EH.:Z8A6TSI                      SAT 08/09/97 11:51 Page:36
  ****  Scalars and arrays  ****
OctLoc.c.b A Datatyp(siz) R M Lvl/name                 OctLoc.c.b A Datatyp(siz) R M Lvl/name

     0-0-0/w STRC(180)         1 ETT_

  ****  Section 011 LblCom ILL$

  ****  Scalars and arrays  ****
OctLoc.c.b A Datatyp(siz) R M Lvl/name                 OctLoc.c.b A Datatyp(siz) R M Lvl/name

     0-0-0/w PTR         r     1 ILL$

  ****  Section 012 LblCom ILL_

  ****  Scalars and arrays  ****
OctLoc.c.b A Datatyp(siz) R M Lvl/name                 OctLoc.c.b A Datatyp(siz) R M Lvl/name

     0-0-0/w STRC(180)         1 ILL_

  ****  Section 013 LblCom LTS$

  ****  Scalars and arrays  ****
OctLoc.c.b A Datatyp(siz) R M Lvl/name                 OctLoc.c.b A Datatyp(siz) R M Lvl/name

     0-0-0/w PTR               1 LONG_ITEM$                 0-0-0/w PTR         r     1 LTS$

  ****  Section 014 LblCom LTS_

  ****  Scalars and arrays  ****
OctLoc.c.b A Datatyp(siz) R M Lvl/name                 OctLoc.c.b A Datatyp(siz) R M Lvl/name

     0-0-0/w STRC(180)         1 LTS_

  ****  Auto variables  ****

  ****  Scalars and arrays  ****
OctLoc.c.b A Datatyp(siz) R M Lvl/name                 OctLoc.c.b A Datatyp(siz) R M Lvl/name
PL6.E3A0      #001=Z8EH$ACCEPT_STATEMENT File=Z8EH.:Z8A6TSI                      SAT 08/09/97 11:51 Page:37

     3-0-0/w PTR         r     1 @ACCEPT_ARG$               4-0-0/w PTR         r     1 @ACCEPT_CODE
    *0-0-0/w PTR         r     1 ACCEPT_ARG$               *0-0-0/w SBIN        r     1 ACCEPT_CODE
    23-0-0/w PTR         r     1 NEL$                      22-0-0/w PTR         r     1 RT_ARG_LIST$
    21-0-0/w PTR         r     1 RT_DESC_LIST$             20-0-0/w PTR         r     1 ST$$
     6-0-0/d STRC(288)   r     1 TEMP_ITEM                 16-0-0/b BIT         r     1 TEMP_REQUIRED
    17-0-0/w PTR         r     1 TEMP_ST$                  24-0-0/w STRC(144)   r     1 TYPE_DESC

  ****  SYMREF variables  ****

  ****  Scalars and arrays  ****
OctLoc.c.b A Datatyp(siz) R M Lvl/name                 OctLoc.c.b A Datatyp(siz) R M Lvl/name

     0-0-0/d STRC(13248) r     1 COMCOM
     0-0-0/w STRC(180)         1 HIER_STK(0:50)
     0-0-0/w SBIN              1 HIER_STK_PTR               0-0-0/w UBIN              1 ILL_STEP(0:144)
     0-0-0/w UBIN              1 LTS_STEP(0:37)
     0-0-0/d STRC(11580) r     1 O1COM                      0-0-0/w STRC(144)         1 PAGE_FORMAT
     0-0-0/w STRC(153)         1 REP_STK(0:50)              0-0-0/w SBIN              1 REP_STK_PTR

  ****  BASED and DCB variables  ****

  ****  Scalars and arrays  ****
OctLoc.c.b A Datatyp(siz) R M Lvl/name                 OctLoc.c.b A Datatyp(siz) R M Lvl/name

     0-0-0/w STRC(108)   r     1 ACCEPT_DISPLAY             0-0-0/w STRC(288)         1 ADD_STMT
     0-0-0/w STRC(396)         1 ALPHABET                   0-0-0/w STRC(144)         1 ALTER_LTS
     0-0-0/w STRC(3672)        1 ALT_KEY                    0-0-0/w STRC(36864) r     1 ARGLIST
     0-0-0/w STRC(396)         1 ARRAY                      0-0-0/w STRC(180)         1 ARRAY_PRESET_LTS
     0-0-0/w ASTR(324)   r     1 BASED_LEX_SYMBOL
     0-0-0/w STRC(360)         1 BASED_LEX_SYMBOL_WORDS
     0-0-0/w STRC(288)         1 BASE_LTS                   0-0-0/w STRC(108)         1 BINARY_ILL
     0-0-0/w STRC(288)         1 BINARY_OP                  0-0-0/w STRC(396)         1 BLOCK
     0-0-0/w STRC(144)         1 BRANCH_ILL                 0-0-0/w STRC(144)         1 BT
     0-0-0/w STRC(288)         1 CALL_STMT                  0-0-0/w STRC(216)         1 CCOSU
     0-0-0/w STRC(396)         1 CD                         0-0-0/w STRC(288)         1 CD_LTS
     0-0-0/w CHAR(4096)        1 CHARS                      0-0-0/w STRC(396)         1 CLASS
PL6.E3A0      #001=Z8EH$ACCEPT_STATEMENT File=Z8EH.:Z8A6TSI                      SAT 08/09/97 11:51 Page:38
     0-0-0/w STRC(108)         1 CODED_MOVE                 0-0-0/w STRC(288)         1 COMPUTE_STMT
     0-0-0/w STRC(396)         1 CONDITION                  0-0-0/w STRC(396)         1 CONST
     0-0-0/w STRC(72)          1 CONT                       0-0-0/w STRC(540)         1 CONTROL_NAME_LTS
     0-0-0/w STRC(1872)        1 COPY_FILE                  0-0-0/w STRC(396)         1 DB
     0-0-0/w STRC(396)         1 DCB_                       0-0-0/w STRC(288)         1 DEFERED_IDENTIFIER
     0-0-0/w STRC(252)         1 DEFERED_ID_TREE            0-0-0/w STRC(288)         1 DEFERED_QUAL_ID
     0-0-0/w STRC(288)         1 DEFERED_SUM_CLAUSE
     0-0-0/w STRC(288)         1 DEFERED_SUM_CLAUSE_LIST
     0-0-0/w STRC(144)         1 DEFLB                      0-0-0/w STRC(288)         1 DELETE_STMT
     0-0-0/w STRC(108)         1 DEPENDING_SIZE             0-0-0/w STRC(5472)        1 DIMS
     0-0-0/w STRC(288)         1 DIVIDE_STMT                0-0-0/w STRC(396)         1 DML_ITEM
     0-0-0/w STRC(216)         1 DML_REC                    0-0-0/w STRC(144)         1 DOEND
     0-0-0/w STRC(396)         1 DO_N                       0-0-0/w STRC(180)         1 DV4I
     0-0-0/w STRC(180)         1 ENTRY_ILL                  0-0-0/w STRC(180)   r     1 ETT
     0-0-0/w STRC(108)         1 EVALU                      0-0-0/w STRC(73836)       1 EVALUATE
     0-0-0/w STRC(396)         1 FD                         0-0-0/w STRC(1692)        1 FILE_LTS
     0-0-0/w STRC(144)         1 GO                         0-0-0/w STRC(180)         1 ILL
     0-0-0/w STRC              1 ILL_NO_OPS                 0-0-0/w STRC(288)         1 ILS_LIST
     0-0-0/w STRC(108)         1 INDEXES                    0-0-0/w STRC(360)         1 INIT_LTS
     0-0-0/w STRC(288)         1 INSPECT_1_STMT             0-0-0/w STRC(288)         1 INSPECT_2_STMT
     0-0-0/w STRC(288)         1 INSPECT_4_STMT             0-0-0/w STRC(396)         1 INTDEF
     0-0-0/w STRC(180)         1 IO_RESTORE_CHAIN           0-0-0/w STRC(144)         1 KEY
     0-0-0/w STRC(396)         1 LABEL                      0-0-0/w STRC(288)         1 LA_ITEM
     0-0-0/w STRC(36864)       1 LCNST                      0-0-0/w STRC(108)         1 LINOI
     0-0-0/w STRC(72)          1 LONG                       0-0-0/w STRC        r     1 LTS
     0-0-0/w STRC(360)   r     1 LTSS                       0-0-0/w STRC(36936)       1 LTS_PTR_ARRAY
     0-0-0/w STRC(504)         1 LX_CD_INPUT                0-0-0/w STRC(324)         1 LX_CD_I_O
     0-0-0/w STRC(396)         1 LX_CD_OUTPUT               0-0-0/w STRC(288)   r     1 LX_ETT_ITEM
     0-0-0/w STRC(288)         1 LX_ITEM                    0-0-0/w STRC(288)         1 LX_LARGE
     0-0-0/w STRC(288)         1 LX_LIST                    0-0-0/w STRC(1224)        1 LX_REC_DECL
     0-0-0/w STRC(864)         1 LX_REPORT_REC              0-0-0/w STRC(288)         1 LX_TERMINAL
     0-0-0/w STRC(72)          1 MFILL                      0-0-0/w STRC(396)         1 MNEMONIC
     0-0-0/w STRC(288)         1 MULTIPLY_STMT              0-0-0/w STRC(180)         1 MULTI_GO
     0-0-0/w STRC(180)         1 MVEAL                      0-0-0/w STRC(108)         1 MVFIL
     0-0-0/w STRC(72)          1 MVIIS                      0-0-0/w STRC(144)   r     1 NEL
     0-0-0/w STRC(216)         1 OPEN_LTS                   0-0-0/w STRC(180)         1 OS_CALL
     0-0-0/w STRC(36864)       1 PAGE                       0-0-0/w STRC(396)         1 PARA
PL6.E3A0      #001=Z8EH$ACCEPT_STATEMENT File=Z8EH.:Z8A6TSI                      SAT 08/09/97 11:51 Page:39
     0-0-0/w STRC(216)         1 PFORM                      0-0-0/w STRC(144)         1 PINC
     0-0-0/w STRC(144)         1 PREOFF                     0-0-0/w STRC(108)         1 PRESET
     0-0-0/w STRC(144)         1 PRIME                      0-0-0/w STRC(396)         1 PROC_
     0-0-0/w STRC(396)         1 PROC_DEF                   0-0-0/w STRC(900)         1 PROC_SUPP
     0-0-0/w STRC(144)         1 P_A_PRESET                 0-0-0/w STRC(144)         1 P_P_PRESET
     0-0-0/w STRC(396)         1 RD                         0-0-0/w STRC(288)         1 READ_STMT
     0-0-0/w STRC(216)         1 REF                        0-0-0/w STRC(144)         1 REMEM
     0-0-0/w STRC(108)         1 RENAMES                    0-0-0/w STRC(720)         1 REPORT_01_LTS
     0-0-0/w STRC(432)         1 REPORT_ELEM_LTS            0-0-0/w STRC(252)         1 REPORT_GRP_LTS
     0-0-0/w STRC(1332)        1 REPORT_LTS                 0-0-0/w STRC(288)         1 REWRITE_STMT
     0-0-0/w STRC(144)         1 RVA_LTS                    0-0-0/w STRC(396)         1 SCALAR
     0-0-0/w STRC(144)         1 SCOPE                      0-0-0/w STRC(396)         1 SD
     0-0-0/w STRC(216)         1 SEARCH_                    0-0-0/w STRC(396)         1 SECTION
     0-0-0/w STRC(396)         1 SEGMENT                    0-0-0/w STRC(360)         1 SEGMENT_LTS
     0-0-0/w STRC(396)         1 ST                         0-0-0/w STRC(288)         1 START_STMT
     0-0-0/w STRC(72)          1 STP2                       0-0-0/w STRC(252)         1 STRING_STMT
     0-0-0/w STRC(288)         1 SUBTRACT_STMT              0-0-0/w STRC(252)         1 SUM_LTS
     0-0-0/w STRC(396)         1 SWITCH                     0-0-0/w STRC(396)         1 SYMBOLIC_CHAR
     0-0-0/w STRC(396)         1 SYMDEF_                    0-0-0/w STRC(396)         1 SYMREF_
     0-0-0/w STRC(396)         1 TEMP                       0-0-0/w STRC(144)         1 TRINARY_ILL
     0-0-0/w STRC(72)          1 UNARY_ILL                  0-0-0/w STRC(288)         1 UNARY_OP
     0-0-0/w STRC(288)         1 UNSTRING_STMT              0-0-0/d STRC(612)         1 USE
     0-0-0/w STRC(216)         1 USER_CALL                  0-0-0/w STRC(252)         1 USE_SUPP
     0-0-0/w STRC(108)         1 VAL                        0-0-0/w STRC(108)         1 VAL_END
     0-0-0/w STRC(396)   r     1 VARIABLE                   0-0-0/w STRC(72)          1 WHEN
     0-0-0/w STRC(288)         1 WRITE_STMT


   Procedure Z8EH$ACCEPT_STATEMENT requires 401 words for executable code.
   Procedure Z8EH$ACCEPT_STATEMENT requires 30 words of local(AUTO) storage.

PL6.E3A0      #002=Z8EH$ACCEPT_MNEMONIC File=Z8EH.:Z8A6TSI                       SAT 08/09/97 11:53 Page:40
      211        1        /*T***********************************************************/
      212        2        /*T*                                                         */
      213        3        /*T* Copyright (c) Bull HN Information Systems Inc., 1997    */
      214        4        /*T*                                                         */
      215        5        /*T***********************************************************/
      216        6        /**********************/
      217        7          Z8EH$ACCEPT_MNEMONIC : PROC ( ACCEPT_ARG$,
      218        8        /**********************/        ACCEPT_MNEMONIC$ );
      219        9
      220       10        /*I*
      221       11                 NAME: ACCEPT_MNEMONIC
      222       12
      223       13          DESCRIPTION: The mnemonic name specified is valideated;  the name
      224       14                       must either be CONSOLE or SYSIN, or refer to  CONSOLE
      225       15                       or SYSIN.  The internal procedure ACCEPT_STATEMENT is
      226       16                       used to generate the ILL.
      227       17        */
      228       18
      229       19
      230       20    1    DCL ACCEPT_ARG$ PTR;
      231       21    1    DCL ACCEPT_MNEMONIC$ PTR;
      232       22
      233       23         %EQU PHASE = 1;
      234       24         %INCLUDE Z8A_DEFC;
      235       92         %INCLUDE Z8A_SUPP_MAC;
      236     2492         %INCLUDE Z8A_ERR_NUMS;
      237     3256         %INCLUDE Z8E_STACKS;
      238     5522         %INCLUDE Z8A_ST;
      239     9181         %INCLUDE Z8E_WINDOW;
      240    11251         %INCLUDE Z8A_ILL;
      241    11944
      242    11945    1    DCL Z8EH$ACCEPT_STATEMENT          ENTRY(2);
      243    11946    1    DCL Z8AE$ERROR                     ENTRY(12);
      244    11947
      245    11948
      246    11949    2           DO SELECT(ACCEPT_MNEMONIC$ -> LX_TERMINAL.SYMBOL);
      247    11950
PL6.E3A0      #002=Z8EH$ACCEPT_MNEMONIC File=Z8EH.:Z8A6TSI                       SAT 08/09/97 11:53 Page:41
      248    11951    2            SELECT(%NAME, %NAME_OR_PARA);
      249    11952
      250    11953    2              IF ACCEPT_MNEMONIC$ -> LX_TERMINAL.ST$ ~= ADDR(NIL)
      251    11954    2                AND ACCEPT_MNEMONIC$ -> LX_TERMINAL.ST$ -> ST.ID = %MNEMONIC
      252    11955    2                AND ACCEPT_MNEMONIC$ -> LX_TERMINAL.ST$ -> MNEMONIC.B.MNEMONIC_NAME
             11955                         THEN
      253    11956    3              DO SELECT(ACCEPT_MNEMONIC$ -> LX_TERMINAL.ST$ -> MNEMONIC.NAME);
      254    11957
      255    11958    3               SELECT(%RSV_WRD_CONSOLE);
      256    11959
      257    11960    3                 CALL Z8EH$ACCEPT_STATEMENT (
      258    11961    3                   ACCEPT_ARG$,
      259    11962    3                   %ACCEPT_CONSOLE);
      260    11963
      261    11964    3               SELECT(%RSV_WRD_SYSIN);
      262    11965
      263    11966    3                 CALL Z8EH$ACCEPT_STATEMENT (
      264    11967    3                   ACCEPT_ARG$,
      265    11968    3                   %ACCEPT_SYSIN);
      266    11969
      267    11970    3               SELECT(ELSE);
      268    11971
      269    11972    3                 CALL Z8AE$ERROR (%E$INVALID_ACCEPT_FROM,
      270    11973    3                   ACCEPT_MNEMONIC$ -> LX_TERMINAL.LINE,
      271    11974    3                   ACCEPT_MNEMONIC$ -> LX_TERMINAL.COLUMN);
      272    11975    3               END;
      273    11976    2              ELSE
      274    11977    2                 CALL Z8AE$ERROR (%E$INVALID_ACCEPT_FROM,
      275    11978    2                   ACCEPT_MNEMONIC$ -> LX_TERMINAL.LINE,
      276    11979    2                   ACCEPT_MNEMONIC$ -> LX_TERMINAL.COLUMN);
      277    11980
      278    11981    2            SELECT(%RSV_WRD_CONSOLE);
      279    11982
      280    11983    2              CALL Z8EH$ACCEPT_STATEMENT(
      281    11984    2                ACCEPT_ARG$,
      282    11985    2                %ACCEPT_CONSOLE);
      283    11986
PL6.E3A0      #002=Z8EH$ACCEPT_MNEMONIC File=Z8EH.:Z8A6TSI                       SAT 08/09/97 11:53 Page:42
      284    11987    2            SELECT(%RSV_WRD_SYSIN);
      285    11988
      286    11989    2              CALL Z8EH$ACCEPT_STATEMENT(
      287    11990    2                ACCEPT_ARG$,
      288    11991    2                %ACCEPT_SYSIN);
      289    11992
      290    11993    2            SELECT(ELSE);
      291    11994
      292    11995    2              CALL Z8AE$ERROR (%E$INVALID_ACCEPT_FROM,
      293    11996    2                ACCEPT_MNEMONIC$ -> LX_TERMINAL.LINE,
      294    11997    2                ACCEPT_MNEMONIC$ -> LX_TERMINAL.COLUMN);
      295    11998    2            END;
      296    11999
      297    12000    1   END Z8EH$ACCEPT_MNEMONIC;
      298    12001        %EOD;

PL6.E3A0      #002=Z8EH$ACCEPT_MNEMONIC File=Z8EH.:Z8A6TSI                       SAT 08/09/97 11:53 Page:43
--  Include file information  --

   Z8A_ILL.:Z8A6TOU  cannot be made into a system file and is referenced.
   Z8E_WINDOW.:Z8A6TOU  is referenced.
   Z8A_ST.:Z8A6TOU  cannot be made into a system file and is referenced.
   Z8A_LEX_SYMB.:Z8A6TOU  cannot be made into a system file and is referenced.
   Z8E_STACKS.:Z8A6TOU  cannot be made into a system file and is referenced.
   Z8A_ERR_NUMS.:Z8A6TOU  is referenced.
   X8A_COM_MACS.:X8A6TOU  is referenced.
   Z8A_NAMES.:Z8A6TOU  is referenced.
   Z8A_SUPP_MAC.:Z8A6TOU  is referenced.
   Z8A_DEFC.:Z8A6TOU  cannot be made into a system file and is referenced.
      No diagnostics issued in procedure Z8EH$ACCEPT_MNEMONIC.

   Procedure Z8EH$ACCEPT_MNEMONIC requires 99 words for executable code.
   Procedure Z8EH$ACCEPT_MNEMONIC requires 10 words of local(AUTO) storage.

PL6.E3A0      #002=Z8EH$ACCEPT_MNEMONIC File=Z8EH.:Z8A6TSI                       SAT 08/09/97 11:53 Page:44

 Object Unit name= Z8EH$ACCEPT_MNEMONIC                       File name= Z8EH.:Z8A6TOU
 UTS= AUG 09 '97 11:53:53.64 SAT                              Compiler= PL-6/E31         Sev=      00
 SharedLib= :SHARED_SYSTEM                                    Alt SharedLib=


    ****  Control sections  ****

 Sect   Type Bound  Init  Size OctSiz  Section name(segment info)
    0  LblCom even  none     1      1  ITERATION
    1  LblCom even  none    90    132  LEX_SYMBOL
    2  LblCom even  none     1      1  CURRENT_LEX_SYMBOL$
    3  LblCom even  none    90    132  TEMP_LEX_SYMBOL
    4  LblCom even  none    90    132  TEMP_LEX_SYMBOL2
    5  LblCom even  none     1      1  ST$
    6  LblCom even  none     5      5  ST_
    7  LblCom even  none     1      1  ILL$
    8  LblCom even  none     5      5  ILL_
    9   Proc  even  none    99    143  Z8EH$ACCEPT_MNEMONIC
   10  RoData even  none     9     11  Z8EH$ACCEPT_MNEMONIC

    ****  Entry defs  ****

                              Check   Calling
                             calling  sequence
  Sect OctLoc Primary Altret sequence   type   Parms  Name
     9      0   yes            yes      Std        2  Z8EH$ACCEPT_MNEMONIC

  ****  Entry refs  ****

         Check        Calling
        calling       sequence
Altret sequence SRef   type   Args  Name
         yes           Std       2 Z8EH$ACCEPT_STATEMENT
         yes           Std      12 Z8AE$ERROR
                       nStd      0 X66_AUTO_2
                       nStd      0 X66_ARET
PL6.E3A0      #002=Z8EH$ACCEPT_MNEMONIC File=Z8EH.:Z8A6TSI                       SAT 08/09/97 11:53 Page:45

  ****  Data refs  ****

  Flags:  r = read only, s = secondary
Flgs Name                             Flgs Name                             Flgs Name
r    ILL_STEP

  ****  Segment refs  ****

  Flags:  r = read only, s = secondary
Flgs Name                             Flgs Name                             Flgs Name
     ISSID                                 NULLSID
PL6.E3A0      #002=Z8EH$ACCEPT_MNEMONIC File=Z8EH.:Z8A6TSI                       SAT 08/09/97 11:53 Page:46


      211        1        /*T***********************************************************/
      212        2        /*T*                                                         */
      213        3        /*T* Copyright (c) Bull HN Information Systems Inc., 1997    */
      214        4        /*T*                                                         */
      215        5        /*T***********************************************************/
      216        6        /**********************/
      217        7          Z8EH$ACCEPT_MNEMONIC : PROC ( ACCEPT_ARG$,

      7  9 000000   000000 700200 xent  Z8EH$ACCEPT* TSX0  ! X66_AUTO_2
         9 000001   000012 000002                    ZERO    10,2

      218        8        /**********************/        ACCEPT_MNEMONIC$ );
      219        9
      220       10        /*I*
      221       11                 NAME: ACCEPT_MNEMONIC
      222       12
      223       13          DESCRIPTION: The mnemonic name specified is valideated;  the name
      224       14                       must either be CONSOLE or SYSIN, or refer to  CONSOLE
      225       15                       or SYSIN.  The internal procedure ACCEPT_STATEMENT is
      226       16                       used to generate the ILL.
      227       17        */
      228       18
      229       19
      230       20    1    DCL ACCEPT_ARG$ PTR;
      231       21    1    DCL ACCEPT_MNEMONIC$ PTR;
      232       22
      233       23         %EQU PHASE = 1;
      234       24         %INCLUDE Z8A_DEFC;
      235       92         %INCLUDE Z8A_SUPP_MAC;
      236     2492         %INCLUDE Z8A_ERR_NUMS;
      237     3256         %INCLUDE Z8E_STACKS;
      238     5522         %INCLUDE Z8A_ST;
      239     9181         %INCLUDE Z8E_WINDOW;
      240    11251         %INCLUDE Z8A_ILL;
      241    11944
      242    11945    1    DCL Z8EH$ACCEPT_STATEMENT          ENTRY(2);
PL6.E3A0      #002=Z8EH$ACCEPT_MNEMONIC File=Z8EH.:Z8A6TSI                       SAT 08/09/97 11:53 Page:47
      243    11946    1    DCL Z8AE$ERROR                     ENTRY(12);
      244    11947
      245    11948
      246    11949    2           DO SELECT(ACCEPT_MNEMONIC$ -> LX_TERMINAL.SYMBOL);

  11949  9 000002   200004 470500                    LDP0    @ACCEPT_MNEMONIC$,,AUTO
         9 000003   000000 471500                    LDP1    0,,PR0
         9 000004   100003 236100                    LDQ     3,,PR1
         9 000005   000027 116007                    CMPQ    23,DL
         9 000006   000016 604000 9                  TMI     s:11949+12
         9 000007   000021 600000 9                  TZE     s:11953
         9 000010   000155 116007                    CMPQ    109,DL
         9 000011   000130 604000 9                  TMI     s:11995
         9 000012   000110 600000 9                  TZE     s:11983
         9 000013   000700 116007                    CMPQ    448,DL
         9 000014   000130 601000 9                  TNZ     s:11995
         9 000015   000120 710000 9                  TRA     s:11989
         9 000016   000005 116007                    CMPQ    5,DL
         9 000017   000130 601000 9                  TNZ     s:11995
         9 000020   000021 710000 9                  TRA     s:11953

      247    11950
      248    11951    2            SELECT(%NAME, %NAME_OR_PARA);

      249    11952
      250    11953    2              IF ACCEPT_MNEMONIC$ -> LX_TERMINAL.ST$ ~= ADDR(NIL)

  11953  9 000021   100001 236100                    LDQ     1,,PR1
         9 000022   000000 116000 10                 CMPQ    0
         9 000023   000075 600000 9                  TZE     s:11977
         9 000024   100001 473500                    LDP3    1,,PR1
         9 000025   300000 220100                    LDX0    0,,PR3
         9 000026   000761 100003                    CMPX0   497,DU
         9 000027   000075 601000 9                  TNZ     s:11977
         9 000030   300003 236100                    LDQ     3,,PR3
         9 000031   100000 316003                    CANQ    32768,DU
         9 000032   000075 600000 9                  TZE     s:11977
PL6.E3A0      #002=Z8EH$ACCEPT_MNEMONIC File=Z8EH.:Z8A6TSI                       SAT 08/09/97 11:53 Page:48

      251    11954    2                AND ACCEPT_MNEMONIC$ -> LX_TERMINAL.ST$ -> ST.ID = %MNEMONIC
      252    11955    2                AND ACCEPT_MNEMONIC$ -> LX_TERMINAL.ST$ -> MNEMONIC.B.MNEMONIC_NAME
             11955                         THEN
      253    11956    3              DO SELECT(ACCEPT_MNEMONIC$ -> LX_TERMINAL.ST$ -> MNEMONIC.NAME);

  11956  9 000033   300001 236100                    LDQ     1,,PR3
         9 000034   000155 116007                    CMPQ    109,DL
         9 000035   000062 602000 9                  TNC     s:11972
         9 000036   000042 600000 9                  TZE     s:11960
         9 000037   000700 116007                    CMPQ    448,DL
         9 000040   000062 601000 9                  TNZ     s:11972
         9 000041   000052 710000 9                  TRA     s:11966

      254    11957
      255    11958    3               SELECT(%RSV_WRD_CONSOLE);

      256    11959
      257    11960    3                 CALL Z8EH$ACCEPT_STATEMENT (

  11960  9 000042   000003 236000 10                 LDQ     3
         9 000043   200003 235100                    LDA     @ACCEPT_ARG$,,AUTO
         9 000044   200006 757100                    STAQ    @ACCEPT_MNEMONIC$+2,,AUTO
         9 000045   200006 630500                    EPPR0   @ACCEPT_MNEMONIC$+2,,AUTO
         9 000046   000001 631400 10                 EPPR1   1
         9 000047   000000 701000 xent               TSX1    Z8EH$ACCEPT_STATEMENT
         9 000050   000000 011000                    NOP     0
         9 000051   000142 710000 9                  TRA     s:12000

      258    11961    3                   ACCEPT_ARG$,
      259    11962    3                   %ACCEPT_CONSOLE);
      260    11963
      261    11964    3               SELECT(%RSV_WRD_SYSIN);

      262    11965
      263    11966    3                 CALL Z8EH$ACCEPT_STATEMENT (

PL6.E3A0      #002=Z8EH$ACCEPT_MNEMONIC File=Z8EH.:Z8A6TSI                       SAT 08/09/97 11:53 Page:49
  11966  9 000052   000005 236000 10                 LDQ     5
         9 000053   200003 235100                    LDA     @ACCEPT_ARG$,,AUTO
         9 000054   200006 757100                    STAQ    @ACCEPT_MNEMONIC$+2,,AUTO
         9 000055   200006 630500                    EPPR0   @ACCEPT_MNEMONIC$+2,,AUTO
         9 000056   000001 631400 10                 EPPR1   1
         9 000057   000000 701000 xent               TSX1    Z8EH$ACCEPT_STATEMENT
         9 000060   000000 011000                    NOP     0
         9 000061   000142 710000 9                  TRA     s:12000

      264    11967    3                   ACCEPT_ARG$,
      265    11968    3                   %ACCEPT_SYSIN);
      266    11969
      267    11970    3               SELECT(ELSE);

      268    11971
      269    11972    3                 CALL Z8AE$ERROR (%E$INVALID_ACCEPT_FROM,

  11972  9 000062   100006 634500                    EPPR4   6,,PR1
         9 000063   200010 454500                    STP4    @ACCEPT_MNEMONIC$+4,,AUTO
         9 000064   100005 633500                    EPPR3   5,,PR1
         9 000065   200007 453500                    STP3    @ACCEPT_MNEMONIC$+3,,AUTO
         9 000066   000010 236000 10                 LDQ     8
         9 000067   200006 756100                    STQ     @ACCEPT_MNEMONIC$+2,,AUTO
         9 000070   200006 630500                    EPPR0   @ACCEPT_MNEMONIC$+2,,AUTO
         9 000071   000006 631400 10                 EPPR1   6
         9 000072   000000 701000 xent               TSX1    Z8AE$ERROR
         9 000073   000000 011000                    NOP     0

      270    11973    3                   ACCEPT_MNEMONIC$ -> LX_TERMINAL.LINE,
      271    11974    3                   ACCEPT_MNEMONIC$ -> LX_TERMINAL.COLUMN);
      272    11975    3               END;

  11975  9 000074   000142 710000 9                  TRA     s:12000

      273    11976    2              ELSE
      274    11977    2                 CALL Z8AE$ERROR (%E$INVALID_ACCEPT_FROM,

PL6.E3A0      #002=Z8EH$ACCEPT_MNEMONIC File=Z8EH.:Z8A6TSI                       SAT 08/09/97 11:53 Page:50
  11977  9 000075   100006 633500                    EPPR3   6,,PR1
         9 000076   200010 453500                    STP3    @ACCEPT_MNEMONIC$+4,,AUTO
         9 000077   100005 634500                    EPPR4   5,,PR1
         9 000100   200007 454500                    STP4    @ACCEPT_MNEMONIC$+3,,AUTO
         9 000101   000010 236000 10                 LDQ     8
         9 000102   200006 756100                    STQ     @ACCEPT_MNEMONIC$+2,,AUTO
         9 000103   200006 630500                    EPPR0   @ACCEPT_MNEMONIC$+2,,AUTO
         9 000104   000006 631400 10                 EPPR1   6
         9 000105   000000 701000 xent               TSX1    Z8AE$ERROR
         9 000106   000000 011000                    NOP     0
         9 000107   000142 710000 9                  TRA     s:12000

      275    11978    2                   ACCEPT_MNEMONIC$ -> LX_TERMINAL.LINE,
      276    11979    2                   ACCEPT_MNEMONIC$ -> LX_TERMINAL.COLUMN);
      277    11980
      278    11981    2            SELECT(%RSV_WRD_CONSOLE);

      279    11982
      280    11983    2              CALL Z8EH$ACCEPT_STATEMENT(

  11983  9 000110   000003 236000 10                 LDQ     3
         9 000111   200003 235100                    LDA     @ACCEPT_ARG$,,AUTO
         9 000112   200006 757100                    STAQ    @ACCEPT_MNEMONIC$+2,,AUTO
         9 000113   200006 630500                    EPPR0   @ACCEPT_MNEMONIC$+2,,AUTO
         9 000114   000001 631400 10                 EPPR1   1
         9 000115   000000 701000 xent               TSX1    Z8EH$ACCEPT_STATEMENT
         9 000116   000000 011000                    NOP     0
         9 000117   000142 710000 9                  TRA     s:12000

      281    11984    2                ACCEPT_ARG$,
      282    11985    2                %ACCEPT_CONSOLE);
      283    11986
      284    11987    2            SELECT(%RSV_WRD_SYSIN);

      285    11988
      286    11989    2              CALL Z8EH$ACCEPT_STATEMENT(

PL6.E3A0      #002=Z8EH$ACCEPT_MNEMONIC File=Z8EH.:Z8A6TSI                       SAT 08/09/97 11:53 Page:51
  11989  9 000120   000005 236000 10                 LDQ     5
         9 000121   200003 235100                    LDA     @ACCEPT_ARG$,,AUTO
         9 000122   200006 757100                    STAQ    @ACCEPT_MNEMONIC$+2,,AUTO
         9 000123   200006 630500                    EPPR0   @ACCEPT_MNEMONIC$+2,,AUTO
         9 000124   000001 631400 10                 EPPR1   1
         9 000125   000000 701000 xent               TSX1    Z8EH$ACCEPT_STATEMENT
         9 000126   000000 011000                    NOP     0
         9 000127   000142 710000 9                  TRA     s:12000

      287    11990    2                ACCEPT_ARG$,
      288    11991    2                %ACCEPT_SYSIN);
      289    11992
      290    11993    2            SELECT(ELSE);

      291    11994
      292    11995    2              CALL Z8AE$ERROR (%E$INVALID_ACCEPT_FROM,

  11995  9 000130   100006 633500                    EPPR3   6,,PR1
         9 000131   200010 453500                    STP3    @ACCEPT_MNEMONIC$+4,,AUTO
         9 000132   100005 634500                    EPPR4   5,,PR1
         9 000133   200007 454500                    STP4    @ACCEPT_MNEMONIC$+3,,AUTO
         9 000134   000010 236000 10                 LDQ     8
         9 000135   200006 756100                    STQ     @ACCEPT_MNEMONIC$+2,,AUTO
         9 000136   200006 630500                    EPPR0   @ACCEPT_MNEMONIC$+2,,AUTO
         9 000137   000006 631400 10                 EPPR1   6
         9 000140   000000 701000 xent               TSX1    Z8AE$ERROR
         9 000141   000000 011000                    NOP     0

      293    11996    2                ACCEPT_MNEMONIC$ -> LX_TERMINAL.LINE,
      294    11997    2                ACCEPT_MNEMONIC$ -> LX_TERMINAL.COLUMN);
      295    11998    2            END;

      296    11999
      297    12000    1   END Z8EH$ACCEPT_MNEMONIC;

  12000  9 000142   000000 702200 xent               TSX2  ! X66_ARET
      298    12001        %EOD;
PL6.E3A0      #002=Z8EH$ACCEPT_MNEMONIC File=Z8EH.:Z8A6TSI                       SAT 08/09/97 11:53 Page:52

PL6.E3A0      #002=Z8EH$ACCEPT_MNEMONIC File=Z8EH.:Z8A6TSI                       SAT 08/09/97 11:53 Page:53
--  Include file information  --

   Z8A_ILL.:Z8A6TOU  cannot be made into a system file and is referenced.
   Z8E_WINDOW.:Z8A6TOU  is referenced.
   Z8A_ST.:Z8A6TOU  cannot be made into a system file and is referenced.
   Z8A_LEX_SYMB.:Z8A6TOU  cannot be made into a system file and is referenced.
   Z8E_STACKS.:Z8A6TOU  cannot be made into a system file and is referenced.
   Z8A_ERR_NUMS.:Z8A6TOU  is referenced.
   X8A_COM_MACS.:X8A6TOU  is referenced.
   Z8A_NAMES.:Z8A6TOU  is referenced.
   Z8A_SUPP_MAC.:Z8A6TOU  is referenced.
   Z8A_DEFC.:Z8A6TOU  cannot be made into a system file and is referenced.
      No diagnostics issued in procedure Z8EH$ACCEPT_MNEMONIC.
PL6.E3A0      #002=Z8EH$ACCEPT_MNEMONIC File=Z8EH.:Z8A6TSI                       SAT 08/09/97 11:53 Page:54

 **** Variables and constants ****

  ****  Section 000 LblCom ITERATION

  ****  Scalars and arrays  ****
OctLoc.c.b A Datatyp(siz) R M Lvl/name                 OctLoc.c.b A Datatyp(siz) R M Lvl/name

     0-0-0/w SBIN              1 ITERATION

  ****  Section 001 LblCom LEX_SYMBOL

  ****  Scalars and arrays  ****
OctLoc.c.b A Datatyp(siz) R M Lvl/name                 OctLoc.c.b A Datatyp(siz) R M Lvl/name

     0-0-0/w STRC(3240)  r     1 LEX_SYMBOL                 0-0-0/w STRC(3240)        1 LEX_SYMBOL_WORDS

  ****  Section 002 LblCom CURRENT_LEX_SYMBOL$

  ****  Scalars and arrays  ****
OctLoc.c.b A Datatyp(siz) R M Lvl/name                 OctLoc.c.b A Datatyp(siz) R M Lvl/name

     0-0-0/w PTR         r     1 CURRENT_LEX_SYMBOL$

  ****  Section 003 LblCom TEMP_LEX_SYMBOL

  ****  Scalars and arrays  ****
OctLoc.c.b A Datatyp(siz) R M Lvl/name                 OctLoc.c.b A Datatyp(siz) R M Lvl/name

     0-0-0/w STRC(3240)        1 TEMP_LEX_SYMBOL

  ****  Section 004 LblCom TEMP_LEX_SYMBOL2

  ****  Scalars and arrays  ****
OctLoc.c.b A Datatyp(siz) R M Lvl/name                 OctLoc.c.b A Datatyp(siz) R M Lvl/name

     0-0-0/w STRC(3240)        1 TEMP_LEX_SYMBOL2

PL6.E3A0      #002=Z8EH$ACCEPT_MNEMONIC File=Z8EH.:Z8A6TSI                       SAT 08/09/97 11:53 Page:55
  ****  Section 005 LblCom ST$

  ****  Scalars and arrays  ****
OctLoc.c.b A Datatyp(siz) R M Lvl/name                 OctLoc.c.b A Datatyp(siz) R M Lvl/name

     0-0-0/w PTR         r     1 ST$

  ****  Section 006 LblCom ST_

  ****  Scalars and arrays  ****
OctLoc.c.b A Datatyp(siz) R M Lvl/name                 OctLoc.c.b A Datatyp(siz) R M Lvl/name

     0-0-0/w STRC(180)         1 ST_

  ****  Section 007 LblCom ILL$

  ****  Scalars and arrays  ****
OctLoc.c.b A Datatyp(siz) R M Lvl/name                 OctLoc.c.b A Datatyp(siz) R M Lvl/name

     0-0-0/w PTR         r     1 ILL$

  ****  Section 008 LblCom ILL_

  ****  Scalars and arrays  ****
OctLoc.c.b A Datatyp(siz) R M Lvl/name                 OctLoc.c.b A Datatyp(siz) R M Lvl/name

     0-0-0/w STRC(180)         1 ILL_

  ****  Auto variables  ****

  ****  Scalars and arrays  ****
OctLoc.c.b A Datatyp(siz) R M Lvl/name                 OctLoc.c.b A Datatyp(siz) R M Lvl/name

     3-0-0/w PTR         r     1 @ACCEPT_ARG$               4-0-0/w PTR         r     1 @ACCEPT_MNEMONIC$
    *0-0-0/w PTR         r     1 ACCEPT_ARG$               *0-0-0/w PTR         r     1 ACCEPT_MNEMONIC$

  ****  SYMREF variables  ****
PL6.E3A0      #002=Z8EH$ACCEPT_MNEMONIC File=Z8EH.:Z8A6TSI                       SAT 08/09/97 11:53 Page:56

  ****  Scalars and arrays  ****
OctLoc.c.b A Datatyp(siz) R M Lvl/name                 OctLoc.c.b A Datatyp(siz) R M Lvl/name

     0-0-0/w UBIN              1 ILL_STEP(0:144)

  ****  BASED and DCB variables  ****

  ****  Scalars and arrays  ****
OctLoc.c.b A Datatyp(siz) R M Lvl/name                 OctLoc.c.b A Datatyp(siz) R M Lvl/name

     0-0-0/w STRC(108)         1 ACCEPT_DISPLAY             0-0-0/w STRC(288)         1 ADD_STMT
     0-0-0/w STRC(396)         1 ALPHABET                   0-0-0/w STRC(396)         1 ARRAY
     0-0-0/w ASTR(324)   r     1 BASED_LEX_SYMBOL
     0-0-0/w STRC(360)         1 BASED_LEX_SYMBOL_WORDS
     0-0-0/w STRC(108)         1 BINARY_ILL                 0-0-0/w STRC(288)         1 BINARY_OP
     0-0-0/w STRC(396)         1 BLOCK                      0-0-0/w STRC(144)         1 BRANCH_ILL
     0-0-0/w STRC(288)         1 CALL_STMT                  0-0-0/w STRC(216)         1 CCOSU
     0-0-0/w STRC(396)         1 CD                         0-0-0/w CHAR(4096)        1 CHARS
     0-0-0/w STRC(396)         1 CLASS                      0-0-0/w STRC(108)         1 CODED_MOVE
     0-0-0/w STRC(288)         1 COMPUTE_STMT               0-0-0/w STRC(396)         1 CONDITION
     0-0-0/w STRC(396)         1 CONST                      0-0-0/w STRC(72)          1 CONT
     0-0-0/w STRC(396)         1 DB                         0-0-0/w STRC(396)         1 DCB_
     0-0-0/w STRC(288)         1 DEFERED_IDENTIFIER         0-0-0/w STRC(252)         1 DEFERED_ID_TREE
     0-0-0/w STRC(288)         1 DEFERED_QUAL_ID            0-0-0/w STRC(288)         1 DEFERED_SUM_CLAUSE
     0-0-0/w STRC(288)         1 DEFERED_SUM_CLAUSE_LIST
     0-0-0/w STRC(144)         1 DEFLB                      0-0-0/w STRC(288)         1 DELETE_STMT
     0-0-0/w STRC(288)         1 DIVIDE_STMT                0-0-0/w STRC(396)         1 DML_ITEM
     0-0-0/w STRC(144)         1 DOEND                      0-0-0/w STRC(396)         1 DO_N
     0-0-0/w STRC(180)         1 DV4I                       0-0-0/w STRC(180)         1 ENTRY_ILL
     0-0-0/w STRC(108)         1 EVALU                      0-0-0/w STRC(396)         1 FD
     0-0-0/w STRC(144)         1 GO                         0-0-0/w STRC(180)         1 ILL
     0-0-0/w STRC              1 ILL_NO_OPS                 0-0-0/w STRC(288)         1 ILS_LIST
     0-0-0/w STRC(288)         1 INSPECT_1_STMT             0-0-0/w STRC(288)         1 INSPECT_2_STMT
     0-0-0/w STRC(288)         1 INSPECT_4_STMT             0-0-0/w STRC(396)         1 INTDEF
     0-0-0/w STRC(396)         1 LABEL                      0-0-0/w STRC(288)         1 LA_ITEM
     0-0-0/w STRC(108)         1 LINOI                      0-0-0/w STRC(504)         1 LX_CD_INPUT
PL6.E3A0      #002=Z8EH$ACCEPT_MNEMONIC File=Z8EH.:Z8A6TSI                       SAT 08/09/97 11:53 Page:57
     0-0-0/w STRC(324)         1 LX_CD_I_O                  0-0-0/w STRC(396)         1 LX_CD_OUTPUT
     0-0-0/w STRC(288)         1 LX_ETT_ITEM                0-0-0/w STRC(288)         1 LX_ITEM
     0-0-0/w STRC(288)         1 LX_LARGE                   0-0-0/w STRC(288)         1 LX_LIST
     0-0-0/w STRC(1224)        1 LX_REC_DECL                0-0-0/w STRC(864)         1 LX_REPORT_REC
     0-0-0/w STRC(288)   r     1 LX_TERMINAL                0-0-0/w STRC(72)          1 MFILL
     0-0-0/w STRC(396)   r     1 MNEMONIC                   0-0-0/w STRC(288)         1 MULTIPLY_STMT
     0-0-0/w STRC(180)         1 MULTI_GO                   0-0-0/w STRC(180)         1 MVEAL
     0-0-0/w STRC(108)         1 MVFIL                      0-0-0/w STRC(72)          1 MVIIS
     0-0-0/w STRC(180)         1 OS_CALL                    0-0-0/w STRC(36864)       1 PAGE
     0-0-0/w STRC(396)         1 PARA                       0-0-0/w STRC(216)         1 PFORM
     0-0-0/w STRC(144)         1 PINC                       0-0-0/w STRC(144)         1 PREOFF
     0-0-0/w STRC(108)         1 PRESET                     0-0-0/w STRC(396)         1 PROC_
     0-0-0/w STRC(396)         1 PROC_DEF                   0-0-0/w STRC(144)         1 P_A_PRESET
     0-0-0/w STRC(144)         1 P_P_PRESET                 0-0-0/w STRC(396)         1 RD
     0-0-0/w STRC(288)         1 READ_STMT                  0-0-0/w STRC(144)         1 REMEM
     0-0-0/w STRC(288)         1 REWRITE_STMT               0-0-0/w STRC(396)         1 SCALAR
     0-0-0/w STRC(144)         1 SCOPE                      0-0-0/w STRC(396)         1 SD
     0-0-0/w STRC(216)         1 SEARCH_                    0-0-0/w STRC(396)         1 SECTION
     0-0-0/w STRC(396)         1 SEGMENT                    0-0-0/w STRC(396)   r     1 ST
     0-0-0/w STRC(288)         1 START_STMT                 0-0-0/w STRC(72)          1 STP2
     0-0-0/w STRC(252)         1 STRING_STMT                0-0-0/w STRC(288)         1 SUBTRACT_STMT
     0-0-0/w STRC(396)         1 SWITCH                     0-0-0/w STRC(396)         1 SYMBOLIC_CHAR
     0-0-0/w STRC(396)         1 SYMDEF_                    0-0-0/w STRC(396)         1 SYMREF_
     0-0-0/w STRC(396)         1 TEMP                       0-0-0/w STRC(144)         1 TRINARY_ILL
     0-0-0/w STRC(72)          1 UNARY_ILL                  0-0-0/w STRC(288)         1 UNARY_OP
     0-0-0/w STRC(288)         1 UNSTRING_STMT              0-0-0/w STRC(216)         1 USER_CALL
     0-0-0/w STRC(108)         1 VAL                        0-0-0/w STRC(108)         1 VAL_END
     0-0-0/w STRC(396)         1 VARIABLE                   0-0-0/w STRC(72)          1 WHEN
     0-0-0/w STRC(288)         1 WRITE_STMT


   Procedure Z8EH$ACCEPT_MNEMONIC requires 99 words for executable code.
   Procedure Z8EH$ACCEPT_MNEMONIC requires 10 words of local(AUTO) storage.

PL6.E3A0      #003=Z8EH$ADD_SEG_LIST File=Z8EH.:Z8A6TSI                          SAT 08/09/97 11:55 Page:58
      299        1        /*T***********************************************************/
      300        2        /*T*                                                         */
      301        3        /*T* Copyright (c) Bull HN Information Systems Inc., 1997    */
      302        4        /*T*                                                         */
      303        5        /*T***********************************************************/
      304        6        /*******************/
      305        7          Z8EH$ADD_SEG_LIST : PROC ( LIST$,
      306        8        /*******************/        SEG$ );
      307        9
      308       10
      309       11    1    DCL LIST$          PTR;
      310       12    1    DCL SEG$           PTR;
      311       13    1    DCL NEXT$          PTR;
      312       14
      313       15         %EQU PHASE = 1;
      314       16         %INCLUDE Z8A_DEFC;
      315       84         %INCLUDE Z8A_SUPP_MAC;
      316     2484         %INCLUDE Z8A_LTS;
      317     4561
      318     4562
      319     4563    1     IF LIST$ = ADDR(NIL) THEN
      320     4564    1       LIST$ = SEG$;
      321     4565    1     ELSE
      322     4566    2       DO;
      323     4567    2         NEXT$ = LIST$;
      324     4568
      325     4569    3         DO WHILE (NEXT$ -> SEGMENT_LTS.NEXT ~= ADDR(NIL));
      326     4570
      327     4571    3           NEXT$ = NEXT$ -> SEGMENT_LTS.NEXT;
      328     4572
      329     4573    3         END;
      330     4574
      331     4575    2         NEXT$ -> SEGMENT_LTS.NEXT = SEG$;
      332     4576    2       END;
      333     4577
      334     4578    1   END Z8EH$ADD_SEG_LIST;
      335     4579        %EOD;
PL6.E3A0      #003=Z8EH$ADD_SEG_LIST File=Z8EH.:Z8A6TSI                          SAT 08/09/97 11:55 Page:59

PL6.E3A0      #003=Z8EH$ADD_SEG_LIST File=Z8EH.:Z8A6TSI                          SAT 08/09/97 11:55 Page:60
--  Include file information  --

   Z8A_LTS.:Z8A6TOU  cannot be made into a system file and is referenced.
   X8A_COM_MACS.:X8A6TOU  is referenced.
   Z8A_NAMES.:Z8A6TOU  is referenced.
   Z8A_SUPP_MAC.:Z8A6TOU  is referenced.
   Z8A_DEFC.:Z8A6TOU  cannot be made into a system file and is referenced.
      No diagnostics issued in procedure Z8EH$ADD_SEG_LIST.

   Procedure Z8EH$ADD_SEG_LIST requires 23 words for executable code.
   Procedure Z8EH$ADD_SEG_LIST requires 6 words of local(AUTO) storage.

PL6.E3A0      #003=Z8EH$ADD_SEG_LIST File=Z8EH.:Z8A6TSI                          SAT 08/09/97 11:55 Page:61

 Object Unit name= Z8EH$ADD_SEG_LIST                          File name= Z8EH.:Z8A6TOU
 UTS= AUG 09 '97 11:55:19.96 SAT                              Compiler= PL-6/E31         Sev=      00
 SharedLib= :SHARED_SYSTEM                                    Alt SharedLib=


    ****  Control sections  ****

 Sect   Type Bound  Init  Size OctSiz  Section name(segment info)
    0  LblCom even  none     1      1  ITERATION
    1  LblCom even  none     1      1  LTS$
    2  LblCom even  none     5      5  LTS_
    3   Proc  even  none    23     27  Z8EH$ADD_SEG_LIST
    4  RoData even  none     1      1  Z8EH$ADD_SEG_LIST

    ****  Entry defs  ****

                              Check   Calling
                             calling  sequence
  Sect OctLoc Primary Altret sequence   type   Parms  Name
     3      0   yes            yes      Std        2  Z8EH$ADD_SEG_LIST

  ****  Entry refs  ****

         Check        Calling
        calling       sequence
Altret sequence SRef   type   Args  Name
                       nStd      0 X66_AUTO_2
                       nStd      0 X66_ARET

  ****  Data refs  ****

  Flags:  r = read only, s = secondary
Flgs Name                             Flgs Name                             Flgs Name
r    LTS_STEP
PL6.E3A0      #003=Z8EH$ADD_SEG_LIST File=Z8EH.:Z8A6TSI                          SAT 08/09/97 11:55 Page:62

  ****  Segment refs  ****

  Flags:  r = read only, s = secondary
Flgs Name                             Flgs Name                             Flgs Name
     NULLSID
PL6.E3A0      #003=Z8EH$ADD_SEG_LIST File=Z8EH.:Z8A6TSI                          SAT 08/09/97 11:55 Page:63


      299        1        /*T***********************************************************/
      300        2        /*T*                                                         */
      301        3        /*T* Copyright (c) Bull HN Information Systems Inc., 1997    */
      302        4        /*T*                                                         */
      303        5        /*T***********************************************************/
      304        6        /*******************/
      305        7          Z8EH$ADD_SEG_LIST : PROC ( LIST$,

      7  3 000000   000000 700200 xent  Z8EH$ADD_SE* TSX0  ! X66_AUTO_2
         3 000001   000006 000002                    ZERO    6,2

      306        8        /*******************/        SEG$ );
      307        9
      308       10
      309       11    1    DCL LIST$          PTR;
      310       12    1    DCL SEG$           PTR;
      311       13    1    DCL NEXT$          PTR;
      312       14
      313       15         %EQU PHASE = 1;
      314       16         %INCLUDE Z8A_DEFC;
      315       84         %INCLUDE Z8A_SUPP_MAC;
      316     2484         %INCLUDE Z8A_LTS;
      317     4561
      318     4562
      319     4563    1     IF LIST$ = ADDR(NIL) THEN

   4563  3 000002   200003 470500                    LDP0    @LIST$,,AUTO
         3 000003   000000 236100                    LDQ     0,,PR0
         3 000004   000000 116000 4                  CMPQ    0
         3 000005   000012 601000 3                  TNZ     s:4567

      320     4564    1       LIST$ = SEG$;

   4564  3 000006   200004 471500                    LDP1    @SEG$,,AUTO
         3 000007   100000 236100                    LDQ     0,,PR1
         3 000010   000000 756100                    STQ     0,,PR0
PL6.E3A0      #003=Z8EH$ADD_SEG_LIST File=Z8EH.:Z8A6TSI                          SAT 08/09/97 11:55 Page:64
         3 000011   000026 710000 3                  TRA     s:4578

      321     4565    1     ELSE
      322     4566    2       DO;

      323     4567    2         NEXT$ = LIST$;

   4567  3 000012   200005 756100                    STQ     NEXT$,,AUTO

      324     4568
      325     4569    3         DO WHILE (NEXT$ -> SEGMENT_LTS.NEXT ~= ADDR(NIL));

   4569  3 000013   000017 710000 3                  TRA     s:4573

      326     4570
      327     4571    3           NEXT$ = NEXT$ -> SEGMENT_LTS.NEXT;

   4571  3 000014   200005 470500                    LDP0    NEXT$,,AUTO
         3 000015   000005 236100                    LDQ     5,,PR0
         3 000016   200005 756100                    STQ     NEXT$,,AUTO

      328     4572
      329     4573    3         END;

   4573  3 000017   200005 470500                    LDP0    NEXT$,,AUTO
         3 000020   000005 236100                    LDQ     5,,PR0
         3 000021   000000 116000 4                  CMPQ    0
         3 000022   000014 601000 3                  TNZ     s:4571

      330     4574
      331     4575    2         NEXT$ -> SEGMENT_LTS.NEXT = SEG$;

   4575  3 000023   200004 471500                    LDP1    @SEG$,,AUTO
         3 000024   100000 236100                    LDQ     0,,PR1
         3 000025   000005 756100                    STQ     5,,PR0

      332     4576    2       END;
PL6.E3A0      #003=Z8EH$ADD_SEG_LIST File=Z8EH.:Z8A6TSI                          SAT 08/09/97 11:55 Page:65

      333     4577
      334     4578    1   END Z8EH$ADD_SEG_LIST;

   4578  3 000026   000000 702200 xent               TSX2  ! X66_ARET
      335     4579        %EOD;

PL6.E3A0      #003=Z8EH$ADD_SEG_LIST File=Z8EH.:Z8A6TSI                          SAT 08/09/97 11:55 Page:66
--  Include file information  --

   Z8A_LTS.:Z8A6TOU  cannot be made into a system file and is referenced.
   X8A_COM_MACS.:X8A6TOU  is referenced.
   Z8A_NAMES.:Z8A6TOU  is referenced.
   Z8A_SUPP_MAC.:Z8A6TOU  is referenced.
   Z8A_DEFC.:Z8A6TOU  cannot be made into a system file and is referenced.
      No diagnostics issued in procedure Z8EH$ADD_SEG_LIST.
PL6.E3A0      #003=Z8EH$ADD_SEG_LIST File=Z8EH.:Z8A6TSI                          SAT 08/09/97 11:55 Page:67

 **** Variables and constants ****

  ****  Section 000 LblCom ITERATION

  ****  Scalars and arrays  ****
OctLoc.c.b A Datatyp(siz) R M Lvl/name                 OctLoc.c.b A Datatyp(siz) R M Lvl/name

     0-0-0/w SBIN              1 ITERATION

  ****  Section 001 LblCom LTS$

  ****  Scalars and arrays  ****
OctLoc.c.b A Datatyp(siz) R M Lvl/name                 OctLoc.c.b A Datatyp(siz) R M Lvl/name

     0-0-0/w PTR               1 LONG_ITEM$                 0-0-0/w PTR         r     1 LTS$

  ****  Section 002 LblCom LTS_

  ****  Scalars and arrays  ****
OctLoc.c.b A Datatyp(siz) R M Lvl/name                 OctLoc.c.b A Datatyp(siz) R M Lvl/name

     0-0-0/w STRC(180)         1 LTS_

  ****  Auto variables  ****

  ****  Scalars and arrays  ****
OctLoc.c.b A Datatyp(siz) R M Lvl/name                 OctLoc.c.b A Datatyp(siz) R M Lvl/name

     3-0-0/w PTR         r     1 @LIST$                     4-0-0/w PTR         r     1 @SEG$
    *0-0-0/w PTR         r     1 LIST$                      5-0-0/w PTR         r     1 NEXT$
    *0-0-0/w PTR         r     1 SEG$

  ****  SYMREF variables  ****

  ****  Scalars and arrays  ****
OctLoc.c.b A Datatyp(siz) R M Lvl/name                 OctLoc.c.b A Datatyp(siz) R M Lvl/name

PL6.E3A0      #003=Z8EH$ADD_SEG_LIST File=Z8EH.:Z8A6TSI                          SAT 08/09/97 11:55 Page:68
     0-0-0/w UBIN              1 LTS_STEP(0:37)

  ****  BASED and DCB variables  ****

  ****  Scalars and arrays  ****
OctLoc.c.b A Datatyp(siz) R M Lvl/name                 OctLoc.c.b A Datatyp(siz) R M Lvl/name

     0-0-0/w STRC(144)         1 ALTER_LTS                  0-0-0/w STRC(3672)        1 ALT_KEY
     0-0-0/w STRC(36864)       1 ARGLIST                    0-0-0/w STRC(180)         1 ARRAY_PRESET_LTS
     0-0-0/w STRC(288)         1 BASE_LTS                   0-0-0/w STRC(144)         1 BT
     0-0-0/w STRC(288)         1 CD_LTS                     0-0-0/w CHAR(4096)        1 CHARS
     0-0-0/w STRC(72)          1 CONT                       0-0-0/w STRC(540)         1 CONTROL_NAME_LTS
     0-0-0/w STRC(1872)        1 COPY_FILE                  0-0-0/w STRC(108)         1 DEPENDING_SIZE
     0-0-0/w STRC(5472)        1 DIMS                       0-0-0/w STRC(216)         1 DML_REC
     0-0-0/w STRC(73836)       1 EVALUATE                   0-0-0/w STRC(1692)        1 FILE_LTS
     0-0-0/w STRC(108)         1 INDEXES                    0-0-0/w STRC(360)         1 INIT_LTS
     0-0-0/w STRC(180)         1 IO_RESTORE_CHAIN           0-0-0/w STRC(144)         1 KEY
     0-0-0/w STRC(36864)       1 LCNST                      0-0-0/w STRC(72)          1 LONG
     0-0-0/w STRC              1 LTS                        0-0-0/w STRC(360)         1 LTSS
     0-0-0/w STRC(36936)       1 LTS_PTR_ARRAY              0-0-0/w STRC(144)         1 NEL
     0-0-0/w STRC(216)         1 OPEN_LTS                   0-0-0/w STRC(36864)       1 PAGE
     0-0-0/w STRC(144)         1 PRIME                      0-0-0/w STRC(900)         1 PROC_SUPP
     0-0-0/w STRC(216)         1 REF                        0-0-0/w STRC(108)         1 RENAMES
     0-0-0/w STRC(720)         1 REPORT_01_LTS              0-0-0/w STRC(432)         1 REPORT_ELEM_LTS
     0-0-0/w STRC(252)         1 REPORT_GRP_LTS             0-0-0/w STRC(1332)        1 REPORT_LTS
     0-0-0/w STRC(144)         1 RVA_LTS                    0-0-0/w STRC(360)   r     1 SEGMENT_LTS
     0-0-0/w STRC(252)         1 SUM_LTS                    0-0-0/d STRC(612)         1 USE
     0-0-0/w STRC(252)         1 USE_SUPP


   Procedure Z8EH$ADD_SEG_LIST requires 23 words for executable code.
   Procedure Z8EH$ADD_SEG_LIST requires 6 words of local(AUTO) storage.

PL6.E3A0      #004=Z8EH$ALTER File=Z8EH.:Z8A6TSI                                 SAT 08/09/97 11:55 Page:69
      336        1        /*T***********************************************************/
      337        2        /*T*                                                         */
      338        3        /*T* Copyright (c) Bull HN Information Systems Inc., 1997    */
      339        4        /*T*                                                         */
      340        5        /*T***********************************************************/
      341        6        /************/
      342        7          Z8EH$ALTER : PROC( ALTER_LIST$ );
      343        8        /************/
      344        9
      345       10
      346       11        /*I*
      347       12                 NAME: Z8EH$ALTER_STATEMENT
      348       13
      349       14          DESCRIPTION: For ALTER statements, an ILL item, %ALTER, is generated.
      350       15                       This ILL item contains two pointers to DNT entries, the
      351       16                       ALTER paragraph subject and the ALTER paragraph object.
      352       17        */
      353       18
      354       19
      355       20    1    DCL ALTER_LIST$ PTR;
      356       21
      357       22
      358       23    1    DCL ALTER$             PTR;
      359       24    1    DCL FROM_REF$ PTR;
      360       25    1    DCL TO_REF$ PTR;
      361       26
      362       27
      363       28         %EQU PHASE = 1;
      364       29         %INCLUDE Z8A_DEFC;
      365       97         %INCLUDE Z8E_STACKS;
      366     2363         %INCLUDE Z8E_MACROS;
      367     3038         %INCLUDE Z8A_NAMES;
      368     4838         %INCLUDE Z8A_ILL;
      369     5531         %INCLUDE Z8A_COMCOM;
      370     6181         %INCLUDE Z8A_ERR_NUMS;
      371     6945         %INCLUDE Z8E_O1COM;
      372     7706
PL6.E3A0      #004=Z8EH$ALTER File=Z8EH.:Z8A6TSI                                 SAT 08/09/97 11:55 Page:70
      373     7707    1    DCL Z8AE$ERROR ENTRY (12);
      374     7708
      375     7709    1           IF COMCOM.OB.FIPS.OBS THEN
      376     7710    1             CALL Z8AE$ERROR (%E$OBSOLETE,
      377     7711    1                              O1COM.LINE_NO,
      378     7712    1                              O1COM.COLUMN_NO);
      379     7713
      380     7714    1           ALTER$ = ALTER_LIST$ -> LX_LIST.HEAD$;
      381     7715
      382     7716    1           IF COMCOM.OB.FIPS.LEVEL >= %INT_LEV AND ALTER$ -> LX_LIST.LINK ~= ADDR(NIL)
              7716                    THEN
      383     7717    1             CALL Z8AE$ERROR (%E$LEVEL_CHECK,
      384     7718    1                              O1COM.LINE_NO,
      385     7719    1                              O1COM.COLUMN_NO);
      386     7720
      387     7721    2           DO WHILE ALTER$ ~= ADDR(NIL);
      388     7722
      389     7723    2              IF ALTER$ -> LX_LIST.HEAD$ -> LX_TERMINAL.ST$ = ADDR(NIL)  THEN
      390     7724    2                FROM_REF$ =  ALTER$ -> LX_LIST.HEAD$ -> LX_TERMINAL.DNT$;
      391     7725    2              ELSE
      392     7726    2                FROM_REF$ = ALTER$ -> LX_LIST.HEAD$ -> LX_TERMINAL.ST$;
      393     7727
      394     7728    2             IF ALTER$ -> LX_LIST.TAIL$ -> LX_TERMINAL.ST$ = ADDR(NIL)  THEN
      395     7729    2               TO_REF$ = ALTER$ -> LX_LIST.TAIL$ -> LX_TERMINAL.DNT$;
      396     7730    2             ELSE
      397     7731    2               TO_REF$ = ALTER$ -> LX_LIST.TAIL$ -> LX_TERMINAL.ST$;
      398     7732
      399     7733                   %NEW_ILL ( @ID = %ALTER,
      400     7734                   @LOP = FROM_REF$,
      401     7735                   @ROP = TO_REF$);
      402     8114
      403     8115    2              ALTER$ = ALTER$ -> LX_LIST.LINK;
      404     8116    2              END;
      405     8117
      406     8118    1   END Z8EH$ALTER;                    /* Proc                               */
      407     8119        %EOD;

PL6.E3A0      #004=Z8EH$ALTER File=Z8EH.:Z8A6TSI                                 SAT 08/09/97 11:55 Page:71
--  Include file information  --

   Z8E_O1COM.:Z8A6TOU  cannot be made into a system file and is referenced.
   Z8A_ERR_NUMS.:Z8A6TOU  is referenced.
   Z8A_COMCOM.:Z8A6TOU  cannot be made into a system file and is referenced.
   Z8A_ILL.:Z8A6TOU  cannot be made into a system file and is referenced.
   Z8A_NAMES.:Z8A6TOU  is referenced.
   Z8E_NEW_ILL.:Z8A6TOU  is referenced.
   Z8E_MACROS.:Z8A6TOU  cannot be made into a system file and is referenced.
   Z8A_LEX_SYMB.:Z8A6TOU  cannot be made into a system file and is referenced.
   Z8E_STACKS.:Z8A6TOU  cannot be made into a system file and is referenced.
   Z8A_DEFC.:Z8A6TOU  cannot be made into a system file and is referenced.
      No diagnostics issued in procedure Z8EH$ALTER.

   Procedure Z8EH$ALTER requires 65 words for executable code.
   Procedure Z8EH$ALTER requires 14 words of local(AUTO) storage.

PL6.E3A0      #004=Z8EH$ALTER File=Z8EH.:Z8A6TSI                                 SAT 08/09/97 11:55 Page:72

 Object Unit name= Z8EH$ALTER                                 File name= Z8EH.:Z8A6TOU
 UTS= AUG 09 '97 11:55:53.64 SAT                              Compiler= PL-6/E31         Sev=      00
 SharedLib= :SHARED_SYSTEM                                    Alt SharedLib=


    ****  Control sections  ****

 Sect   Type Bound  Init  Size OctSiz  Section name(segment info)
    0  LblCom even  none     1      1  ITERATION
    1  LblCom even  none    90    132  LEX_SYMBOL
    2  LblCom even  none     1      1  CURRENT_LEX_SYMBOL$
    3  LblCom even  none    90    132  TEMP_LEX_SYMBOL
    4  LblCom even  none    90    132  TEMP_LEX_SYMBOL2
    5  LblCom even  none     1      1  ILL$
    6  LblCom even  none     5      5  ILL_
    7   Proc  even  none    65    101  Z8EH$ALTER
    8  RoData even  none    18     22  Z8EH$ALTER

    ****  Entry defs  ****

                              Check   Calling
                             calling  sequence
  Sect OctLoc Primary Altret sequence   type   Parms  Name
     7      0   yes            yes      Std        1  Z8EH$ALTER

  ****  Entry refs  ****

         Check        Calling
        calling       sequence
Altret sequence SRef   type   Args  Name
         yes           Std      12 Z8AE$ERROR
         yes           Std       4 Z8AN$NEW_ILL
                       nStd      0 X66_AUTO_1
                       nStd      0 X66_ARET
PL6.E3A0      #004=Z8EH$ALTER File=Z8EH.:Z8A6TSI                                 SAT 08/09/97 11:55 Page:73

  ****  Data refs  ****

  Flags:  r = read only, s = secondary
Flgs Name                             Flgs Name                             Flgs Name
r    ILL_STEP                              COMCOM                                O1COM
     HIER_STK_PTR                          HIER_STK                              PAGE_FORMAT
     REP_STK_PTR                           REP_STK

  ****  Segment refs  ****

  Flags:  r = read only, s = secondary
Flgs Name                             Flgs Name                             Flgs Name
     ISSID                                 NULLSID
PL6.E3A0      #004=Z8EH$ALTER File=Z8EH.:Z8A6TSI                                 SAT 08/09/97 11:55 Page:74


      336        1        /*T***********************************************************/
      337        2        /*T*                                                         */
      338        3        /*T* Copyright (c) Bull HN Information Systems Inc., 1997    */
      339        4        /*T*                                                         */
      340        5        /*T***********************************************************/
      341        6        /************/
      342        7          Z8EH$ALTER : PROC( ALTER_LIST$ );

      7  7 000000   000000 700200 xent  Z8EH$ALTER   TSX0  ! X66_AUTO_1
         7 000001   000016 000001                    ZERO    14,1

      343        8        /************/
      344        9
      345       10
      346       11        /*I*
      347       12                 NAME: Z8EH$ALTER_STATEMENT
      348       13
      349       14          DESCRIPTION: For ALTER statements, an ILL item, %ALTER, is generated.
      350       15                       This ILL item contains two pointers to DNT entries, the
      351       16                       ALTER paragraph subject and the ALTER paragraph object.
      352       17        */
      353       18
      354       19
      355       20    1    DCL ALTER_LIST$ PTR;
      356       21
      357       22
      358       23    1    DCL ALTER$             PTR;
      359       24    1    DCL FROM_REF$ PTR;
      360       25    1    DCL TO_REF$ PTR;
      361       26
      362       27
      363       28         %EQU PHASE = 1;
      364       29         %INCLUDE Z8A_DEFC;
      365       97         %INCLUDE Z8E_STACKS;
      366     2363         %INCLUDE Z8E_MACROS;
      367     3038         %INCLUDE Z8A_NAMES;
PL6.E3A0      #004=Z8EH$ALTER File=Z8EH.:Z8A6TSI                                 SAT 08/09/97 11:55 Page:75
      368     4838         %INCLUDE Z8A_ILL;
      369     5531         %INCLUDE Z8A_COMCOM;
      370     6181         %INCLUDE Z8A_ERR_NUMS;
      371     6945         %INCLUDE Z8E_O1COM;
      372     7706
      373     7707    1    DCL Z8AE$ERROR ENTRY (12);
      374     7708
      375     7709    1           IF COMCOM.OB.FIPS.OBS THEN

   7709  7 000002   000036 234000 xsym               SZN     COMCOM+30
         7 000003   000010 605000 7                  TPL     s:7714

      376     7710    1             CALL Z8AE$ERROR (%E$OBSOLETE,

   7710  7 000004   000002 630400 8                  EPPR0   2
         7 000005   000000 631400 8                  EPPR1   0
         7 000006   000000 701000 xent               TSX1    Z8AE$ERROR
         7 000007   000000 011000                    NOP     0

      377     7711    1                              O1COM.LINE_NO,
      378     7712    1                              O1COM.COLUMN_NO);
      379     7713
      380     7714    1           ALTER$ = ALTER_LIST$ -> LX_LIST.HEAD$;

   7714  7 000010   200003 470500                    LDP0    @ALTER_LIST$,,AUTO
         7 000011   000000 471500                    LDP1    0,,PR0
         7 000012   100004 236100                    LDQ     4,,PR1
         7 000013   200004 756100                    STQ     ALTER$,,AUTO

      381     7715
      382     7716    1           IF COMCOM.OB.FIPS.LEVEL >= %INT_LEV AND ALTER$ -> LX_LIST.LINK ~= ADDR(NIL)
              7716                    THEN

   7716  7 000014   000036 720000 xsym               LXL0    COMCOM+30
         7 000015   000002 100003                    CMPX0   2,DU
         7 000016   000027 604000 7                  TMI     s:7721
         7 000017   200004 473500                    LDP3    ALTER$,,AUTO
PL6.E3A0      #004=Z8EH$ALTER File=Z8EH.:Z8A6TSI                                 SAT 08/09/97 11:55 Page:76
         7 000020   300007 236100                    LDQ     7,,PR3
         7 000021   000005 116000 8                  CMPQ    5
         7 000022   000027 600000 7                  TZE     s:7721

      383     7717    1             CALL Z8AE$ERROR (%E$LEVEL_CHECK,

   7717  7 000023   000007 630400 8                  EPPR0   7
         7 000024   000000 631400 8                  EPPR1   0
         7 000025   000000 701000 xent               TSX1    Z8AE$ERROR
         7 000026   000000 011000                    NOP     0

      384     7718    1                              O1COM.LINE_NO,
      385     7719    1                              O1COM.COLUMN_NO);
      386     7720
      387     7721    2           DO WHILE ALTER$ ~= ADDR(NIL);

   7721  7 000027   000075 710000 7                  TRA     s:8116

      388     7722
      389     7723    2              IF ALTER$ -> LX_LIST.HEAD$ -> LX_TERMINAL.ST$ = ADDR(NIL)  THEN

   7723  7 000030   200004 470500                    LDP0    ALTER$,,AUTO
         7 000031   000004 471500                    LDP1    4,,PR0
         7 000032   100001 236100                    LDQ     1,,PR1
         7 000033   000005 116000 8                  CMPQ    5
         7 000034   000040 601000 7                  TNZ     s:7726

      390     7724    2                FROM_REF$ =  ALTER$ -> LX_LIST.HEAD$ -> LX_TERMINAL.DNT$;

   7724  7 000035   100002 236100                    LDQ     2,,PR1
         7 000036   200005 756100                    STQ     FROM_REF$,,AUTO
         7 000037   000041 710000 7                  TRA     s:7728

      391     7725    2              ELSE
      392     7726    2                FROM_REF$ = ALTER$ -> LX_LIST.HEAD$ -> LX_TERMINAL.ST$;

   7726  7 000040   200005 756100                    STQ     FROM_REF$,,AUTO
PL6.E3A0      #004=Z8EH$ALTER File=Z8EH.:Z8A6TSI                                 SAT 08/09/97 11:55 Page:77

      393     7727
      394     7728    2             IF ALTER$ -> LX_LIST.TAIL$ -> LX_TERMINAL.ST$ = ADDR(NIL)  THEN

   7728  7 000041   000001 473500                    LDP3    1,,PR0
         7 000042   300001 236100                    LDQ     1,,PR3
         7 000043   000005 116000 8                  CMPQ    5
         7 000044   000050 601000 7                  TNZ     s:7731

      395     7729    2               TO_REF$ = ALTER$ -> LX_LIST.TAIL$ -> LX_TERMINAL.DNT$;

   7729  7 000045   300002 236100                    LDQ     2,,PR3
         7 000046   200006 756100                    STQ     TO_REF$,,AUTO
         7 000047   000051 710000 7                  TRA     s:8046

      396     7730    2             ELSE
      397     7731    2               TO_REF$ = ALTER$ -> LX_LIST.TAIL$ -> LX_TERMINAL.ST$;

   7731  7 000050   200006 756100                    STQ     TO_REF$,,AUTO

      398     7732
      399     7733                   %NEW_ILL ( @ID = %ALTER,
      400     7734                   @LOP = FROM_REF$,
      401     7735                   @ROP = TO_REF$);

   8046  7 000051   000015 236000 8                  LDQ     13
         7 000052   200010 756100                    STQ     TO_REF$+2,,AUTO
         7 000053   200010 631500                    EPPR1   TO_REF$+2,,AUTO
         7 000054   200015 451500                    STP1    TO_REF$+7,,AUTO
         7 000055   000016 236000 8                  LDQ     14
         7 000056   200014 756100                    STQ     TO_REF$+6,,AUTO
         7 000057   000020 237000 8                  LDAQ    16
         7 000060   200012 757100                    STAQ    TO_REF$+4,,AUTO
         7 000061   200012 630500                    EPPR0   TO_REF$+4,,AUTO
         7 000062   000012 631400 8                  EPPR1   10
         7 000063   000000 701000 xent               TSX1    Z8AN$NEW_ILL
         7 000064   000000 011000                    NOP     0
PL6.E3A0      #004=Z8EH$ALTER File=Z8EH.:Z8A6TSI                                 SAT 08/09/97 11:55 Page:78

   8051  7 000065   200005 236100                    LDQ     FROM_REF$,,AUTO
         7 000066   000000 470400 5                  LDP0    ILL$
         7 000067   000001 756100                    STQ     1,,PR0

   8052  7 000070   200006 236100                    LDQ     TO_REF$,,AUTO
         7 000071   000002 756100                    STQ     2,,PR0

      402     8114
      403     8115    2              ALTER$ = ALTER$ -> LX_LIST.LINK;

   8115  7 000072   200004 471500                    LDP1    ALTER$,,AUTO
         7 000073   100007 236100                    LDQ     7,,PR1
         7 000074   200004 756100                    STQ     ALTER$,,AUTO

      404     8116    2              END;

   8116  7 000075   200004 236100                    LDQ     ALTER$,,AUTO
         7 000076   000005 116000 8                  CMPQ    5
         7 000077   000030 601000 7                  TNZ     s:7723

      405     8117
      406     8118    1   END Z8EH$ALTER;                    /* Proc                               */

   8118  7 000100   000000 702200 xent               TSX2  ! X66_ARET
      407     8119        %EOD;

PL6.E3A0      #004=Z8EH$ALTER File=Z8EH.:Z8A6TSI                                 SAT 08/09/97 11:55 Page:79
--  Include file information  --

   Z8E_O1COM.:Z8A6TOU  cannot be made into a system file and is referenced.
   Z8A_ERR_NUMS.:Z8A6TOU  is referenced.
   Z8A_COMCOM.:Z8A6TOU  cannot be made into a system file and is referenced.
   Z8A_ILL.:Z8A6TOU  cannot be made into a system file and is referenced.
   Z8A_NAMES.:Z8A6TOU  is referenced.
   Z8E_NEW_ILL.:Z8A6TOU  is referenced.
   Z8E_MACROS.:Z8A6TOU  cannot be made into a system file and is referenced.
   Z8A_LEX_SYMB.:Z8A6TOU  cannot be made into a system file and is referenced.
   Z8E_STACKS.:Z8A6TOU  cannot be made into a system file and is referenced.
   Z8A_DEFC.:Z8A6TOU  cannot be made into a system file and is referenced.
      No diagnostics issued in procedure Z8EH$ALTER.
PL6.E3A0      #004=Z8EH$ALTER File=Z8EH.:Z8A6TSI                                 SAT 08/09/97 11:55 Page:80

 **** Variables and constants ****

  ****  Section 000 LblCom ITERATION

  ****  Scalars and arrays  ****
OctLoc.c.b A Datatyp(siz) R M Lvl/name                 OctLoc.c.b A Datatyp(siz) R M Lvl/name

     0-0-0/w SBIN              1 ITERATION

  ****  Section 001 LblCom LEX_SYMBOL

  ****  Scalars and arrays  ****
OctLoc.c.b A Datatyp(siz) R M Lvl/name                 OctLoc.c.b A Datatyp(siz) R M Lvl/name

     0-0-0/w STRC(3240)  r     1 LEX_SYMBOL                 0-0-0/w STRC(3240)        1 LEX_SYMBOL_WORDS

  ****  Section 002 LblCom CURRENT_LEX_SYMBOL$

  ****  Scalars and arrays  ****
OctLoc.c.b A Datatyp(siz) R M Lvl/name                 OctLoc.c.b A Datatyp(siz) R M Lvl/name

     0-0-0/w PTR         r     1 CURRENT_LEX_SYMBOL$

  ****  Section 003 LblCom TEMP_LEX_SYMBOL

  ****  Scalars and arrays  ****
OctLoc.c.b A Datatyp(siz) R M Lvl/name                 OctLoc.c.b A Datatyp(siz) R M Lvl/name

     0-0-0/w STRC(3240)        1 TEMP_LEX_SYMBOL

  ****  Section 004 LblCom TEMP_LEX_SYMBOL2

  ****  Scalars and arrays  ****
OctLoc.c.b A Datatyp(siz) R M Lvl/name                 OctLoc.c.b A Datatyp(siz) R M Lvl/name

     0-0-0/w STRC(3240)        1 TEMP_LEX_SYMBOL2

PL6.E3A0      #004=Z8EH$ALTER File=Z8EH.:Z8A6TSI                                 SAT 08/09/97 11:55 Page:81
  ****  Section 005 LblCom ILL$

  ****  Scalars and arrays  ****
OctLoc.c.b A Datatyp(siz) R M Lvl/name                 OctLoc.c.b A Datatyp(siz) R M Lvl/name

     0-0-0/w PTR         r     1 ILL$

  ****  Section 006 LblCom ILL_

  ****  Scalars and arrays  ****
OctLoc.c.b A Datatyp(siz) R M Lvl/name                 OctLoc.c.b A Datatyp(siz) R M Lvl/name

     0-0-0/w STRC(180)         1 ILL_

  ****  Auto variables  ****

  ****  Scalars and arrays  ****
OctLoc.c.b A Datatyp(siz) R M Lvl/name                 OctLoc.c.b A Datatyp(siz) R M Lvl/name

     3-0-0/w PTR         r     1 @ALTER_LIST$               4-0-0/w PTR         r     1 ALTER$
    *0-0-0/w PTR         r     1 ALTER_LIST$                5-0-0/w PTR         r     1 FROM_REF$
     6-0-0/w PTR         r     1 TO_REF$

  ****  SYMREF variables  ****

  ****  Scalars and arrays  ****
OctLoc.c.b A Datatyp(siz) R M Lvl/name                 OctLoc.c.b A Datatyp(siz) R M Lvl/name

     0-0-0/d STRC(13248) r     1 COMCOM
     0-0-0/w STRC(180)         1 HIER_STK(0:50)
     0-0-0/w SBIN              1 HIER_STK_PTR               0-0-0/w UBIN              1 ILL_STEP(0:144)
     0-0-0/d STRC(11580) r     1 O1COM                      0-0-0/w STRC(144)         1 PAGE_FORMAT
     0-0-0/w STRC(153)         1 REP_STK(0:50)              0-0-0/w SBIN              1 REP_STK_PTR

  ****  BASED and DCB variables  ****

  ****  Scalars and arrays  ****
PL6.E3A0      #004=Z8EH$ALTER File=Z8EH.:Z8A6TSI                                 SAT 08/09/97 11:55 Page:82
OctLoc.c.b A Datatyp(siz) R M Lvl/name                 OctLoc.c.b A Datatyp(siz) R M Lvl/name

     0-0-0/w STRC(108)         1 ACCEPT_DISPLAY             0-0-0/w STRC(288)         1 ADD_STMT
     0-0-0/w ASTR(324)   r     1 BASED_LEX_SYMBOL
     0-0-0/w STRC(360)         1 BASED_LEX_SYMBOL_WORDS
     0-0-0/w STRC(108)   r     1 BINARY_ILL                 0-0-0/w STRC(288)         1 BINARY_OP
     0-0-0/w STRC(144)         1 BRANCH_ILL                 0-0-0/w STRC(288)         1 CALL_STMT
     0-0-0/w STRC(216)         1 CCOSU                      0-0-0/w CHAR(4096)        1 CHARS
     0-0-0/w STRC(108)         1 CODED_MOVE                 0-0-0/w STRC(288)         1 COMPUTE_STMT
     0-0-0/w STRC(72)          1 CONT                       0-0-0/w STRC(288)         1 DEFERED_IDENTIFIER
     0-0-0/w STRC(252)         1 DEFERED_ID_TREE            0-0-0/w STRC(288)         1 DEFERED_QUAL_ID
     0-0-0/w STRC(288)         1 DEFERED_SUM_CLAUSE
     0-0-0/w STRC(288)         1 DEFERED_SUM_CLAUSE_LIST
     0-0-0/w STRC(144)         1 DEFLB                      0-0-0/w STRC(288)         1 DELETE_STMT
     0-0-0/w STRC(288)         1 DIVIDE_STMT                0-0-0/w STRC(144)         1 DOEND
     0-0-0/w STRC(396)         1 DO_N                       0-0-0/w STRC(180)         1 DV4I
     0-0-0/w STRC(180)         1 ENTRY_ILL                  0-0-0/w STRC(108)         1 EVALU
     0-0-0/w STRC(144)         1 GO                         0-0-0/w STRC(180)         1 ILL
     0-0-0/w STRC              1 ILL_NO_OPS                 0-0-0/w STRC(288)         1 ILS_LIST
     0-0-0/w STRC(288)         1 INSPECT_1_STMT             0-0-0/w STRC(288)         1 INSPECT_2_STMT
     0-0-0/w STRC(288)         1 INSPECT_4_STMT             0-0-0/w STRC(288)         1 LA_ITEM
     0-0-0/w STRC(108)         1 LINOI                      0-0-0/w STRC(504)         1 LX_CD_INPUT
     0-0-0/w STRC(324)         1 LX_CD_I_O                  0-0-0/w STRC(396)         1 LX_CD_OUTPUT
     0-0-0/w STRC(288)         1 LX_ETT_ITEM                0-0-0/w STRC(288)         1 LX_ITEM
     0-0-0/w STRC(288)         1 LX_LARGE                   0-0-0/w STRC(288)   r     1 LX_LIST
     0-0-0/w STRC(1224)        1 LX_REC_DECL                0-0-0/w STRC(864)         1 LX_REPORT_REC
     0-0-0/w STRC(288)   r     1 LX_TERMINAL                0-0-0/w STRC(72)          1 MFILL
     0-0-0/w STRC(288)         1 MULTIPLY_STMT              0-0-0/w STRC(180)         1 MULTI_GO
     0-0-0/w STRC(180)         1 MVEAL                      0-0-0/w STRC(108)         1 MVFIL
     0-0-0/w STRC(72)          1 MVIIS                      0-0-0/w STRC(180)         1 OS_CALL
     0-0-0/w STRC(36864)       1 PAGE                       0-0-0/w STRC(216)         1 PFORM
     0-0-0/w STRC(144)         1 PINC                       0-0-0/w STRC(144)         1 PREOFF
     0-0-0/w STRC(108)         1 PRESET                     0-0-0/w STRC(144)         1 P_A_PRESET
     0-0-0/w STRC(144)         1 P_P_PRESET                 0-0-0/w STRC(288)         1 READ_STMT
     0-0-0/w STRC(144)         1 REMEM                      0-0-0/w STRC(288)         1 REWRITE_STMT
     0-0-0/w STRC(144)         1 SCOPE                      0-0-0/w STRC(216)         1 SEARCH_
     0-0-0/w STRC(288)         1 START_STMT                 0-0-0/w STRC(72)          1 STP2
PL6.E3A0      #004=Z8EH$ALTER File=Z8EH.:Z8A6TSI                                 SAT 08/09/97 11:55 Page:83
     0-0-0/w STRC(252)         1 STRING_STMT                0-0-0/w STRC(288)         1 SUBTRACT_STMT
     0-0-0/w STRC(144)         1 TRINARY_ILL                0-0-0/w STRC(72)          1 UNARY_ILL
     0-0-0/w STRC(288)         1 UNARY_OP                   0-0-0/w STRC(288)         1 UNSTRING_STMT
     0-0-0/w STRC(216)         1 USER_CALL                  0-0-0/w STRC(108)         1 VAL
     0-0-0/w STRC(108)         1 VAL_END                    0-0-0/w STRC(72)          1 WHEN
     0-0-0/w STRC(288)         1 WRITE_STMT


   Procedure Z8EH$ALTER requires 65 words for executable code.
   Procedure Z8EH$ALTER requires 14 words of local(AUTO) storage.

PL6.E3A0      #005=Z8EH$CANCEL File=Z8EH.:Z8A6TSI                                SAT 08/09/97 11:56 Page:84
      408        1        /*T***********************************************************/
      409        2        /*T*                                                         */
      410        3        /*T* Copyright (c) Bull HN Information Systems Inc., 1997    */
      411        4        /*T*                                                         */
      412        5        /*T***********************************************************/
      413        6        /*************/
      414        7          Z8EH$CANCEL : PROC ( CANCEL_LIST$ );
      415        8        /*************/
      416        9
      417       10        /*I*
      418       11                 NAME: Z8EH$CANCEL
      419       12          DESCRIPTION: Build ILL to call the CANCEL entry in the operator
      420       13                       segment.  Two arguments, the name of the routine to
      421       14                       be canceled and the current CSIB, are passed.
      422       15        */
      423       16
      424       17    1    DCL CANCEL_LIST$ PTR;
      425       18
      426       19    1    DCL PROC$ PTR;
      427       20    1    DCL RT_DESC_LIST$ PTR;
      428       21    1    DCL RT_ARG_LIST$ PTR;
      429       22    1    DCL CONST$ PTR;
      430       23    1    DCL NEW_DNT$ PTR;
      431       24
      432       25         %EQU PHASE = 1;
      433       26         %INCLUDE Z8A_DEFC;
      434       94         %INCLUDE Z8A_SUPP_MAC;
      435     2494         %INCLUDE Z9A_FLAGS;
      436     2508         %INCLUDE Z8A_DNT;
      437     2729         %INCLUDE Z8A_TYPES;
      438     2903         %INCLUDE Z8A_ST; /* Z8E_MACROS uses PROC_ */
      439     6562         %INCLUDE Z8E_MACROS;
      440     7237         %INCLUDE Z8E_STACKS;
      441     9503         %INCLUDE Z8A_ILL;
      442    10196         %INCLUDE Z8A_ERR_NUMS;
      443    10960         %INCLUDE Z8A_COMCOM;
      444    11610         %INCLUDE Z8E_O1COM;
PL6.E3A0      #005=Z8EH$CANCEL File=Z8EH.:Z8A6TSI                                SAT 08/09/97 11:56 Page:85
      445    12371         %INCLUDE Z8A_LIBRARY;
      446    12585
      447    12586    1    DCL Z8EC$INTERNAL_STRING_REP       ENTRY(2);
      448    12587    1    DCL Z8AC$MAKE_TYA_CONST            ENTRY(4);
      449    12588    1    DCL Z9EY$BUILD_RUNTIME_DESCRIPTOR  ENTRY(3);
      450    12589    1    DCL Z8EY$BUILD_RUNTIME_ARGLIST     ENTRY(3);
      451    12590    1    DCL Z8ED$DISPOSE_ABSSYN_TREE       ENTRY(1);
      452    12591    1    DCL Z8AE$ERROR                     ENTRY(12);
      453    12592
      454    12593          %DCL_AUTO_LX_ITEM (@NAME = PROC_NAME);
      455    12597          %DCL_AUTO_LX_ITEM (@NAME = PROC_CSIB);
      456    12601
      457    12602    1           IF COMCOM.OB.FIPS.LEVEL >= %INT_LEV THEN
      458    12603    1             CALL Z8AE$ERROR (%E$LEVEL_CHECK,
      459    12604    1                              O1COM.LX_STK.LINE(O1COM.LX_TOP - 1),
      460    12605    1                              O1COM.LX_STK.COLUMN(O1COM.LX_TOP - 1));
      461    12606
      462    12607    1           PROC$ = CANCEL_LIST$ -> LX_LIST.HEAD$;
      463    12608
      464    12609    2           DO WHILE PROC$ ~= ADDR(NIL);
      465    12610
      466    12611    2              IF PROC$ -> LX_ITEM.ID = %LX_TERMINAL THEN
      467    12612    3              DO;
      468    12613    3                 CALL Z8EC$INTERNAL_STRING_REP (PROC$, NEW_DNT$);
      469    12614
      470    12615    3                 CALL Z8AC$MAKE_TYA_CONST (SUBSTR (NEW_DNT$ -> DNT.TEXT.NAME, 1),
      471    12616    3                   NEW_DNT$ -> DNT.TEXT.LENGTH - 2,
      472    12617    3                   0,                      /* CN                                 */
      473    12618    3                   CONST$);
      474    12619
      475    12620                      %INIT_LX_ETT_ITEM (@POINTER = "ADDR(PROC_NAME)",
      476    12621                      @ETT$ = CONST$,
      477    12622                      @LINE = PROC$ -> LX_TERMINAL.LINE,
      478    12623                      @COLUMN = PROC$ -> LX_TERMINAL.COLUMN,
      479    12624                      @TYPE = %TYA);
      480    12646    3                 END;
      481    12647    2              ELSE
PL6.E3A0      #005=Z8EH$CANCEL File=Z8EH.:Z8A6TSI                                SAT 08/09/97 11:56 Page:86
      482    12648    3              DO;
      483    12649    3                 IF PROC$ -> LX_ETT_ITEM.TYPE ~= %TYA THEN
      484    12650    4                 DO;
      485    12651                         %CONDITIONAL_ERROR (@LX_ITEM$ = PROC$,
      486    12652                         @ERROR# = %E$ALPHANUMERIC_TYPE_EXPECTED,
      487    12653                         @LINE = PROC$ -> LX_ETT_ITEM.LINE,
      488    12654                         @COLUMN = PROC$ -> LX_ETT_ITEM.COLUMN);
      489    12684
      490    12685    4                    GOTO NEXT_CANCEL;
      491    12686    4                    END;
      492    12687
      493    12688    3                 ADDR(PROC_NAME) -> LX_ETT_ITEM = PROC$ -> LX_ETT_ITEM;
      494    12689    3                 COMCOM.CANCEL_ID = TRUE;
      495    12690
      496    12691    3                 END;
      497    12692
      498    12693    2              ADDR(PROC_NAME) -> LX_ETT_ITEM.LINK = ADDR(PROC_CSIB) ;
      499    12694                   %INIT_LX_ETT_ITEM (@POINTER = "ADDR(PROC_CSIB)",
      500    12695                   @ETT$ = COMCOM.VALUE_0,
      501    12696                   @TYPE = %TYI) ;
      502    12718
      503    12719    2              CALL Z9EY$BUILD_RUNTIME_DESCRIPTOR (ADDR(PROC_NAME),
      504    12720    2                RT_DESC_LIST$,
      505    12721    2                2);
      506    12722    2              CALL Z8EY$BUILD_RUNTIME_ARGLIST (ADDR(PROC_NAME),
      507    12723    2                RT_ARG_LIST$,
      508    12724    2                2);
      509    12725
      510    12726                   %NEW_ILL (@ID = %OS_CALL,
      511    12727                   @CODE = %OP_CANCEL,
      512    12728                   @ROP = RT_DESC_LIST$,
      513    12729                   @LOP = RT_ARG_LIST$);
      514    13108    2   NEXT_CANCEL:
      515    13109
      516    13110
      517    13111    2              PROC$ = PROC$ -> LX_ITEM.LINK;
      518    13112    2              END;
PL6.E3A0      #005=Z8EH$CANCEL File=Z8EH.:Z8A6TSI                                SAT 08/09/97 11:56 Page:87
      519    13113
      520    13114    1           CALL Z8ED$DISPOSE_ABSSYN_TREE (CANCEL_LIST$ -> LX_LIST.HEAD$);
      521    13115
      522    13116    1   END Z8EH$CANCEL;
      523    13117        %EOD;

PL6.E3A0      #005=Z8EH$CANCEL File=Z8EH.:Z8A6TSI                                SAT 08/09/97 11:56 Page:88
--  Include file information  --

   Z8A_LIBRARY.:Z8A6TOU  cannot be made into a system file and is referenced.
   Z8E_O1COM.:Z8A6TOU  cannot be made into a system file and is referenced.
   Z8A_COMCOM.:Z8A6TOU  cannot be made into a system file and is referenced.
   Z8A_ERR_NUMS.:Z8A6TOU  is referenced.
   Z8A_ILL.:Z8A6TOU  cannot be made into a system file and is referenced.
   Z8A_LEX_SYMB.:Z8A6TOU  cannot be made into a system file and is referenced.
   Z8E_STACKS.:Z8A6TOU  cannot be made into a system file and is referenced.
   Z8E_NEW_ILL.:Z8A6TOU  is referenced.
   Z8E_MACROS.:Z8A6TOU  cannot be made into a system file and is referenced.
   Z8A_ST.:Z8A6TOU  cannot be made into a system file and is referenced.
   Z8A_TYPES.:Z8A6TOU  is referenced.
   Z8A_DNT.:Z8A6TOU  cannot be made into a system file and is referenced.
   Z9A_FLAGS.:Z8A6TOU  is referenced.
   X8A_COM_MACS.:X8A6TOU  is referenced.
   Z8A_NAMES.:Z8A6TOU  is referenced.
   Z8A_SUPP_MAC.:Z8A6TOU  is referenced.
   Z8A_DEFC.:Z8A6TOU  cannot be made into a system file and is referenced.
      No diagnostics issued in procedure Z8EH$CANCEL.

   Procedure Z8EH$CANCEL requires 175 words for executable code.
   Procedure Z8EH$CANCEL requires 40 words of local(AUTO) storage.

PL6.E3A0      #005=Z8EH$CANCEL File=Z8EH.:Z8A6TSI                                SAT 08/09/97 11:56 Page:89

 Object Unit name= Z8EH$CANCEL                                File name= Z8EH.:Z8A6TOU
 UTS= AUG 09 '97 11:56:52.84 SAT                              Compiler= PL-6/E31         Sev=      00
 SharedLib= :SHARED_SYSTEM                                    Alt SharedLib=


    ****  Control sections  ****

 Sect   Type Bound  Init  Size OctSiz  Section name(segment info)
    0  LblCom even  none     1      1  ITERATION
    1  LblCom even  none     1      1  DNT$
    2  LblCom even  none     5      5  DNT_
    3  LblCom even  none     1      1  DNT_BUCKET_NUMBER
    4  LblCom even  none     1      1  DNT_OF_1$
    5  LblCom even  none     1      1  ST$
    6  LblCom even  none     5      5  ST_
    7  LblCom even  none    90    132  LEX_SYMBOL
    8  LblCom even  none     1      1  CURRENT_LEX_SYMBOL$
    9  LblCom even  none    90    132  TEMP_LEX_SYMBOL
   10  LblCom even  none    90    132  TEMP_LEX_SYMBOL2
   11  LblCom even  none     1      1  ILL$
   12  LblCom even  none     5      5  ILL_
   13   Proc  even  none   175    257  Z8EH$CANCEL
   14  RoData even  none    23     27  Z8EH$CANCEL

    ****  Entry defs  ****

                              Check   Calling
                             calling  sequence
  Sect OctLoc Primary Altret sequence   type   Parms  Name
    13      0   yes            yes      Std        1  Z8EH$CANCEL
PL6.E3A0      #005=Z8EH$CANCEL File=Z8EH.:Z8A6TSI                                SAT 08/09/97 11:56 Page:90

  ****  Entry refs  ****

         Check        Calling
        calling       sequence
Altret sequence SRef   type   Args  Name
         yes           Std      12 Z8AE$ERROR
         yes           Std       4 Z8AC$MAKE_TYA_CONST
         yes           Std       2 Z8EC$INTERNAL_STRING_REP
         yes           Std       3 Z9EY$BUILD_RUNTIME_DESCRIPTOR
         yes           Std       4 Z8AN$NEW_ILL
         yes           Std       3 Z8EY$BUILD_RUNTIME_ARGLIST
         yes           Std       1 Z8ED$DISPOSE_ABSSYN_TREE
                       nStd      0 X66_AUTO_1
                       nStd      0 X66_ARET

  ****  Data refs  ****

  Flags:  r = read only, s = secondary
Flgs Name                             Flgs Name                             Flgs Name
r    ILL_STEP                              COMCOM                                O1COM
     HIER_STK_PTR                          HIER_STK                              PAGE_FORMAT
     REP_STK_PTR                           REP_STK

  ****  Segment refs  ****

  Flags:  r = read only, s = secondary
Flgs Name                             Flgs Name                             Flgs Name
     NULLSID                               ISSID
PL6.E3A0      #005=Z8EH$CANCEL File=Z8EH.:Z8A6TSI                                SAT 08/09/97 11:56 Page:91


      408        1        /*T***********************************************************/
      409        2        /*T*                                                         */
      410        3        /*T* Copyright (c) Bull HN Information Systems Inc., 1997    */
      411        4        /*T*                                                         */
      412        5        /*T***********************************************************/
      413        6        /*************/
      414        7          Z8EH$CANCEL : PROC ( CANCEL_LIST$ );

      7 13 000000   000000 700200 xent  Z8EH$CANCEL  TSX0  ! X66_AUTO_1
        13 000001   000050 000001                    ZERO    40,1

      415        8        /*************/
      416        9
      417       10        /*I*
      418       11                 NAME: Z8EH$CANCEL
      419       12          DESCRIPTION: Build ILL to call the CANCEL entry in the operator
      420       13                       segment.  Two arguments, the name of the routine to
      421       14                       be canceled and the current CSIB, are passed.
      422       15        */
      423       16
      424       17    1    DCL CANCEL_LIST$ PTR;
      425       18
      426       19    1    DCL PROC$ PTR;
      427       20    1    DCL RT_DESC_LIST$ PTR;
      428       21    1    DCL RT_ARG_LIST$ PTR;
      429       22    1    DCL CONST$ PTR;
      430       23    1    DCL NEW_DNT$ PTR;
      431       24
      432       25         %EQU PHASE = 1;
      433       26         %INCLUDE Z8A_DEFC;
      434       94         %INCLUDE Z8A_SUPP_MAC;
      435     2494         %INCLUDE Z9A_FLAGS;
      436     2508         %INCLUDE Z8A_DNT;
      437     2729         %INCLUDE Z8A_TYPES;
      438     2903         %INCLUDE Z8A_ST; /* Z8E_MACROS uses PROC_ */
      439     6562         %INCLUDE Z8E_MACROS;
PL6.E3A0      #005=Z8EH$CANCEL File=Z8EH.:Z8A6TSI                                SAT 08/09/97 11:56 Page:92
      440     7237         %INCLUDE Z8E_STACKS;
      441     9503         %INCLUDE Z8A_ILL;
      442    10196         %INCLUDE Z8A_ERR_NUMS;
      443    10960         %INCLUDE Z8A_COMCOM;
      444    11610         %INCLUDE Z8E_O1COM;
      445    12371         %INCLUDE Z8A_LIBRARY;
      446    12585
      447    12586    1    DCL Z8EC$INTERNAL_STRING_REP       ENTRY(2);
      448    12587    1    DCL Z8AC$MAKE_TYA_CONST            ENTRY(4);
      449    12588    1    DCL Z9EY$BUILD_RUNTIME_DESCRIPTOR  ENTRY(3);
      450    12589    1    DCL Z8EY$BUILD_RUNTIME_ARGLIST     ENTRY(3);
      451    12590    1    DCL Z8ED$DISPOSE_ABSSYN_TREE       ENTRY(1);
      452    12591    1    DCL Z8AE$ERROR                     ENTRY(12);
      453    12592
      454    12593          %DCL_AUTO_LX_ITEM (@NAME = PROC_NAME);
      455    12597          %DCL_AUTO_LX_ITEM (@NAME = PROC_CSIB);
      456    12601
      457    12602    1           IF COMCOM.OB.FIPS.LEVEL >= %INT_LEV THEN

  12602 13 000002   000036 720000 xsym               LXL0    COMCOM+30
        13 000003   000002 100003                    CMPX0   2,DU
        13 000004   000022 604000 13                 TMI     s:12607

      458    12603    1             CALL Z8AE$ERROR (%E$LEVEL_CHECK,

  12603 13 000005   000151 236000 xsym               LDQ     O1COM+105
        13 000006   000025 736000                    QLS     21
        13 000007   000002 036000 14                 ADLQ    2
        13 000010   200044 756100                    STQ     PROC_CSIB+10,,AUTO
        13 000011   000151 236000 xsym               LDQ     O1COM+105
        13 000012   000025 736000                    QLS     21
        13 000013   000003 036000 14                 ADLQ    3
        13 000014   000004 235000 14                 LDA     4
        13 000015   200042 757100                    STAQ    PROC_CSIB+8,,AUTO
        13 000016   200042 630500                    EPPR0   PROC_CSIB+8,,AUTO
        13 000017   000000 631400 14                 EPPR1   0
        13 000020   000000 701000 xent               TSX1    Z8AE$ERROR
PL6.E3A0      #005=Z8EH$CANCEL File=Z8EH.:Z8A6TSI                                SAT 08/09/97 11:56 Page:93
        13 000021   000000 011000                    NOP     0

      459    12604    1                              O1COM.LX_STK.LINE(O1COM.LX_TOP - 1),
      460    12605    1                              O1COM.LX_STK.COLUMN(O1COM.LX_TOP - 1));
      461    12606
      462    12607    1           PROC$ = CANCEL_LIST$ -> LX_LIST.HEAD$;

  12607 13 000022   200003 470500                    LDP0    @CANCEL_LIST$,,AUTO
        13 000023   000000 471500                    LDP1    0,,PR0
        13 000024   100004 236100                    LDQ     4,,PR1
        13 000025   200004 756100                    STQ     PROC$,,AUTO

      463    12608
      464    12609    2           DO WHILE PROC$ ~= ADDR(NIL);

  12609 13 000026   000244 710000 13                 TRA     s:13112

      465    12610
      466    12611    2              IF PROC$ -> LX_ITEM.ID = %LX_TERMINAL THEN

  12611 13 000027   200004 470500                    LDP0    PROC$,,AUTO
        13 000030   000000 220100                    LDX0    0,,PR0
        13 000031   000107 601000 13                 TNZ     s:12649

      467    12612    3              DO;

      468    12613    3                 CALL Z8EC$INTERNAL_STRING_REP (PROC$, NEW_DNT$);

  12613 13 000032   200010 631500                    EPPR1   NEW_DNT$,,AUTO
        13 000033   200043 451500                    STP1    PROC_CSIB+9,,AUTO
        13 000034   200004 633500                    EPPR3   PROC$,,AUTO
        13 000035   200042 453500                    STP3    PROC_CSIB+8,,AUTO
        13 000036   200042 630500                    EPPR0   PROC_CSIB+8,,AUTO
        13 000037   000005 631400 14                 EPPR1   5
        13 000040   000000 701000 xent               TSX1    Z8EC$INTERNAL_STRING_REP
        13 000041   000000 011000                    NOP     0

PL6.E3A0      #005=Z8EH$CANCEL File=Z8EH.:Z8A6TSI                                SAT 08/09/97 11:56 Page:94
      469    12614
      470    12615    3                 CALL Z8AC$MAKE_TYA_CONST (SUBSTR (NEW_DNT$ -> DNT.TEXT.NAME, 1),

  12615 13 000042   200010 470500                    LDP0    NEW_DNT$,,AUTO
        13 000043   000004 220100                    LDX0    4,,PR0
        13 000044   000004 236100                    LDQ     4,,PR0
        13 000045   000022 772000                    QRL     18
        13 000046   000002 136007                    SBLQ    2,DL
        13 000047   200042 756100                    STQ     PROC_CSIB+8,,AUTO
        13 000050   200007 631500                    EPPR1   CONST$,,AUTO
        13 000051   200047 451500                    STP1    PROC_CSIB+13,,AUTO
        13 000052   000010 236000 14                 LDQ     8
        13 000053   200046 756100                    STQ     PROC_CSIB+12,,AUTO
        13 000054   200042 633500                    EPPR3   PROC_CSIB+8,,AUTO
        13 000055   200045 453500                    STP3    PROC_CSIB+11,,AUTO
        13 000056   200010 236100                    LDQ     NEW_DNT$,,AUTO
        13 000057   000011 036000 14                 ADLQ    9
        13 000060   200044 756100                    STQ     PROC_CSIB+10,,AUTO
        13 000061   200044 630500                    EPPR0   PROC_CSIB+10,,AUTO
        13 000062   000006 631400 14                 EPPR1   6
        13 000063   000000 701000 xent               TSX1    Z8AC$MAKE_TYA_CONST
        13 000064   000000 011000                    NOP     0

      471    12616    3                   NEW_DNT$ -> DNT.TEXT.LENGTH - 2,
      472    12617    3                   0,                      /* CN                                 */
      473    12618    3                   CONST$);
      474    12619
      475    12620                      %INIT_LX_ETT_ITEM (@POINTER = "ADDR(PROC_NAME)",
      476    12621                      @ETT$ = CONST$,
      477    12622                      @LINE = PROC$ -> LX_TERMINAL.LINE,
      478    12623                      @COLUMN = PROC$ -> LX_TERMINAL.COLUMN,
      479    12624                      @TYPE = %TYA);

  12626 13 000065   000004 220003                    LDX0    4,DU
        13 000066   200022 740100                    STX0    PROC_NAME,,AUTO

  12627 13 000067   000000 221003                    LDX1    0,DU
PL6.E3A0      #005=Z8EH$CANCEL File=Z8EH.:Z8A6TSI                                SAT 08/09/97 11:56 Page:95
        13 000070   200022 441100                    SXL1    PROC_NAME,,AUTO

  12628 13 000071   000010 235007                    LDA     8,DL
        13 000072   200026 755100                    STA     PROC_NAME+4,,AUTO

  12629 13 000073   000012 236000 14                 LDQ     10
        13 000074   200031 756100                    STQ     PROC_NAME+7,,AUTO

  12630 13 000075   200007 236100                    LDQ     CONST$,,AUTO
        13 000076   200023 756100                    STQ     PROC_NAME+1,,AUTO

  12631 13 000077   000012 236000 14                 LDQ     10
        13 000100   200024 756100                    STQ     PROC_NAME+2,,AUTO

  12633 13 000101   200004 470500                    LDP0    PROC$,,AUTO
        13 000102   000005 235100                    LDA     5,,PR0
        13 000103   200027 755100                    STA     PROC_NAME+5,,AUTO

  12634 13 000104   000006 235100                    LDA     6,,PR0
        13 000105   200030 755100                    STA     PROC_NAME+6,,AUTO

      480    12646    3                 END;

  12646 13 000106   000141 710000 13                 TRA     s:12693

      481    12647    2              ELSE
      482    12648    3              DO;

      483    12649    3                 IF PROC$ -> LX_ETT_ITEM.TYPE ~= %TYA THEN

  12649 13 000107   000004 235100                    LDA     4,,PR0
        13 000110   000010 115007                    CMPA    8,DL
        13 000111   000134 600000 13                 TZE     s:12688

      484    12650    4                 DO;

      485    12651                         %CONDITIONAL_ERROR (@LX_ITEM$ = PROC$,
PL6.E3A0      #005=Z8EH$CANCEL File=Z8EH.:Z8A6TSI                                SAT 08/09/97 11:56 Page:96
      486    12652                         @ERROR# = %E$ALPHANUMERIC_TYPE_EXPECTED,
      487    12653                         @LINE = PROC$ -> LX_ETT_ITEM.LINE,
      488    12654                         @COLUMN = PROC$ -> LX_ETT_ITEM.COLUMN);

  12664 13 000112   000000 236100                    LDQ     0,,PR0
        13 000113   400000 316007                    CANQ    -131072,DL
        13 000114   000133 601000 13                 TNZ     s:12685

  12666 13 000115   200004 236100                    LDQ     PROC$,,AUTO
        13 000116   000006 036003                    ADLQ    6,DU
        13 000117   200044 756100                    STQ     PROC_CSIB+10,,AUTO
        13 000120   200004 236100                    LDQ     PROC$,,AUTO
        13 000121   000005 036003                    ADLQ    5,DU
        13 000122   000014 235000 14                 LDA     12
        13 000123   200042 757100                    STAQ    PROC_CSIB+8,,AUTO
        13 000124   200042 630500                    EPPR0   PROC_CSIB+8,,AUTO
        13 000125   000000 631400 14                 EPPR1   0
        13 000126   000000 701000 xent               TSX1    Z8AE$ERROR
        13 000127   000000 011000                    NOP     0

  12675 13 000130   200004 470500                    LDP0    PROC$,,AUTO
        13 000131   400000 236007                    LDQ     -131072,DL
        13 000132   000000 256100                    ORSQ    0,,PR0

      489    12684
      490    12685    4                    GOTO NEXT_CANCEL;

  12685 13 000133   000241 710000 13                 TRA     NEXT_CANCEL

      491    12686    4                    END;
      492    12687
      493    12688    3                 ADDR(PROC_NAME) -> LX_ETT_ITEM = PROC$ -> LX_ETT_ITEM;

  12688 13 000134   000100 100500                    MLR     fill='000'O
        13 000135   000000 000040                    ADSC9   0,,PR0                   cn=0,n=32
        13 000136   200022 000040                    ADSC9   PROC_NAME,,AUTO          cn=0,n=32

PL6.E3A0      #005=Z8EH$CANCEL File=Z8EH.:Z8A6TSI                                SAT 08/09/97 11:56 Page:97
      494    12689    3                 COMCOM.CANCEL_ID = TRUE;

  12689 13 000137   400000 236003                    LDQ     -131072,DU
        13 000140   000463 756000 xsym               STQ     COMCOM+307

      495    12690
      496    12691    3                 END;

      497    12692
      498    12693    2              ADDR(PROC_NAME) -> LX_ETT_ITEM.LINK = ADDR(PROC_CSIB) ;

  12693 13 000141   200032 631500                    EPPR1   PROC_CSIB,,AUTO
        13 000142   200031 451500                    STP1    PROC_NAME+7,,AUTO

      499    12694                   %INIT_LX_ETT_ITEM (@POINTER = "ADDR(PROC_CSIB)",
      500    12695                   @ETT$ = COMCOM.VALUE_0,
      501    12696                   @TYPE = %TYI) ;

  12698 13 000143   000004 220003                    LDX0    4,DU
        13 000144   200032 740100                    STX0    PROC_CSIB,,AUTO

  12699 13 000145   000000 221003                    LDX1    0,DU
        13 000146   200032 441100                    SXL1    PROC_CSIB,,AUTO

  12700 13 000147   000001 235007                    LDA     1,DL
        13 000150   200036 755100                    STA     PROC_CSIB+4,,AUTO

  12701 13 000151   000012 236000 14                 LDQ     10
        13 000152   200041 756100                    STQ     PROC_CSIB+7,,AUTO

  12702 13 000153   000124 236000 xsym               LDQ     COMCOM+84
        13 000154   200033 756100                    STQ     PROC_CSIB+1,,AUTO

  12703 13 000155   000012 236000 14                 LDQ     10
        13 000156   200034 756100                    STQ     PROC_CSIB+2,,AUTO

  12705 13 000157   000133 235000 xsym               LDA     COMCOM+91
PL6.E3A0      #005=Z8EH$CANCEL File=Z8EH.:Z8A6TSI                                SAT 08/09/97 11:56 Page:98
        13 000160   200037 755100                    STA     PROC_CSIB+5,,AUTO

  12706 13 000161   000134 235000 xsym               LDA     COMCOM+92
        13 000162   200040 755100                    STA     PROC_CSIB+6,,AUTO

      502    12718
      503    12719    2              CALL Z9EY$BUILD_RUNTIME_DESCRIPTOR (ADDR(PROC_NAME),

  12719 13 000163   200022 633500                    EPPR3   PROC_NAME,,AUTO
        13 000164   200042 453500                    STP3    PROC_CSIB+8,,AUTO
        13 000165   000016 236000 14                 LDQ     14
        13 000166   200045 756100                    STQ     PROC_CSIB+11,,AUTO
        13 000167   200005 634500                    EPPR4   RT_DESC_LIST$,,AUTO
        13 000170   200044 454500                    STP4    PROC_CSIB+10,,AUTO
        13 000171   200042 635500                    EPPR5   PROC_CSIB+8,,AUTO
        13 000172   200043 455500                    STP5    PROC_CSIB+9,,AUTO
        13 000173   200043 630500                    EPPR0   PROC_CSIB+9,,AUTO
        13 000174   000000 631400 14                 EPPR1   0
        13 000175   000000 701000 xent               TSX1    Z9EY$BUILD_RUNTIME_DESCRIPTOR
        13 000176   000000 011000                    NOP     0

      504    12720    2                RT_DESC_LIST$,
      505    12721    2                2);
      506    12722    2              CALL Z8EY$BUILD_RUNTIME_ARGLIST (ADDR(PROC_NAME),

  12722 13 000177   200022 630500                    EPPR0   PROC_NAME,,AUTO
        13 000200   200042 450500                    STP0    PROC_CSIB+8,,AUTO
        13 000201   000016 236000 14                 LDQ     14
        13 000202   200045 756100                    STQ     PROC_CSIB+11,,AUTO
        13 000203   200006 631500                    EPPR1   RT_ARG_LIST$,,AUTO
        13 000204   200044 451500                    STP1    PROC_CSIB+10,,AUTO
        13 000205   200042 633500                    EPPR3   PROC_CSIB+8,,AUTO
        13 000206   200043 453500                    STP3    PROC_CSIB+9,,AUTO
        13 000207   200043 630500                    EPPR0   PROC_CSIB+9,,AUTO
        13 000210   000000 631400 14                 EPPR1   0
        13 000211   000000 701000 xent               TSX1    Z8EY$BUILD_RUNTIME_ARGLIST
        13 000212   000000 011000                    NOP     0
PL6.E3A0      #005=Z8EH$CANCEL File=Z8EH.:Z8A6TSI                                SAT 08/09/97 11:56 Page:99

      507    12723    2                RT_ARG_LIST$,
      508    12724    2                2);
      509    12725
      510    12726                   %NEW_ILL (@ID = %OS_CALL,
      511    12727                   @CODE = %OP_CANCEL,
      512    12728                   @ROP = RT_DESC_LIST$,
      513    12729                   @LOP = RT_ARG_LIST$);

  12819 13 000213   000021 236000 14                 LDQ     17
        13 000214   200042 756100                    STQ     PROC_CSIB+8,,AUTO
        13 000215   200042 630500                    EPPR0   PROC_CSIB+8,,AUTO
        13 000216   200047 450500                    STP0    PROC_CSIB+13,,AUTO
        13 000217   000022 236000 14                 LDQ     18
        13 000220   200046 756100                    STQ     PROC_CSIB+12,,AUTO
        13 000221   000024 237000 14                 LDAQ    20
        13 000222   200044 757100                    STAQ    PROC_CSIB+10,,AUTO
        13 000223   200044 630500                    EPPR0   PROC_CSIB+10,,AUTO
        13 000224   000006 631400 14                 EPPR1   6
        13 000225   000000 701000 xent               TSX1    Z8AN$NEW_ILL
        13 000226   000000 011000                    NOP     0

  12820 13 000227   000063 220003                    LDX0    51,DU
        13 000230   000000 470400 11                 LDP0    ILL$
        13 000231   000000 440100                    SXL0    0,,PR0

  12821 13 000232   200006 236100                    LDQ     RT_ARG_LIST$,,AUTO
        13 000233   000000 470400 11                 LDP0    ILL$
        13 000234   000001 756100                    STQ     1,,PR0

  12822 13 000235   200005 236100                    LDQ     RT_DESC_LIST$,,AUTO
        13 000236   000002 756100                    STQ     2,,PR0

  12829 13 000237   000012 236000 14                 LDQ     10
        13 000240   000004 756100                    STQ     4,,PR0

      514    13108    2   NEXT_CANCEL:
PL6.E3A0      #005=Z8EH$CANCEL File=Z8EH.:Z8A6TSI                                SAT 08/09/97 11:56 Page:100
      515    13109
      516    13110
      517    13111    2              PROC$ = PROC$ -> LX_ITEM.LINK;

  13111 13 000241   200004 470500       NEXT_CANCEL  LDP0    PROC$,,AUTO
        13 000242   000007 236100                    LDQ     7,,PR0
        13 000243   200004 756100                    STQ     PROC$,,AUTO

      518    13112    2              END;

  13112 13 000244   000012 116000 14                 CMPQ    10
        13 000245   000027 601000 13                 TNZ     s:12611

      519    13113
      520    13114    1           CALL Z8ED$DISPOSE_ABSSYN_TREE (CANCEL_LIST$ -> LX_LIST.HEAD$);

  13114 13 000246   200003 470500                    LDP0    @CANCEL_LIST$,,AUTO
        13 000247   000000 471500                    LDP1    0,,PR0
        13 000250   100004 633500                    EPPR3   4,,PR1
        13 000251   200042 453500                    STP3    PROC_CSIB+8,,AUTO
        13 000252   200042 630500                    EPPR0   PROC_CSIB+8,,AUTO
        13 000253   000026 631400 14                 EPPR1   22
        13 000254   000000 701000 xent               TSX1    Z8ED$DISPOSE_ABSSYN_TREE
        13 000255   000000 011000                    NOP     0

      521    13115
      522    13116    1   END Z8EH$CANCEL;

  13116 13 000256   000000 702200 xent               TSX2  ! X66_ARET
      523    13117        %EOD;

PL6.E3A0      #005=Z8EH$CANCEL File=Z8EH.:Z8A6TSI                                SAT 08/09/97 11:56 Page:101
--  Include file information  --

   Z8A_LIBRARY.:Z8A6TOU  cannot be made into a system file and is referenced.
   Z8E_O1COM.:Z8A6TOU  cannot be made into a system file and is referenced.
   Z8A_COMCOM.:Z8A6TOU  cannot be made into a system file and is referenced.
   Z8A_ERR_NUMS.:Z8A6TOU  is referenced.
   Z8A_ILL.:Z8A6TOU  cannot be made into a system file and is referenced.
   Z8A_LEX_SYMB.:Z8A6TOU  cannot be made into a system file and is referenced.
   Z8E_STACKS.:Z8A6TOU  cannot be made into a system file and is referenced.
   Z8E_NEW_ILL.:Z8A6TOU  is referenced.
   Z8E_MACROS.:Z8A6TOU  cannot be made into a system file and is referenced.
   Z8A_ST.:Z8A6TOU  cannot be made into a system file and is referenced.
   Z8A_TYPES.:Z8A6TOU  is referenced.
   Z8A_DNT.:Z8A6TOU  cannot be made into a system file and is referenced.
   Z9A_FLAGS.:Z8A6TOU  is referenced.
   X8A_COM_MACS.:X8A6TOU  is referenced.
   Z8A_NAMES.:Z8A6TOU  is referenced.
   Z8A_SUPP_MAC.:Z8A6TOU  is referenced.
   Z8A_DEFC.:Z8A6TOU  cannot be made into a system file and is referenced.
      No diagnostics issued in procedure Z8EH$CANCEL.
PL6.E3A0      #005=Z8EH$CANCEL File=Z8EH.:Z8A6TSI                                SAT 08/09/97 11:56 Page:102

 **** Variables and constants ****

  ****  Section 000 LblCom ITERATION

  ****  Scalars and arrays  ****
OctLoc.c.b A Datatyp(siz) R M Lvl/name                 OctLoc.c.b A Datatyp(siz) R M Lvl/name

     0-0-0/w SBIN              1 ITERATION

  ****  Section 001 LblCom DNT$

  ****  Scalars and arrays  ****
OctLoc.c.b A Datatyp(siz) R M Lvl/name                 OctLoc.c.b A Datatyp(siz) R M Lvl/name

     0-0-0/w PTR         r     1 DNT$

  ****  Section 002 LblCom DNT_

  ****  Scalars and arrays  ****
OctLoc.c.b A Datatyp(siz) R M Lvl/name                 OctLoc.c.b A Datatyp(siz) R M Lvl/name

     0-0-0/w STRC(180)         1 DNT_

  ****  Section 003 LblCom DNT_BUCKET_NUMBER

  ****  Scalars and arrays  ****
OctLoc.c.b A Datatyp(siz) R M Lvl/name                 OctLoc.c.b A Datatyp(siz) R M Lvl/name

     0-0-0/w UBIN              1 DNT_BUCKET_NUMBER

  ****  Section 004 LblCom DNT_OF_1$

  ****  Scalars and arrays  ****
OctLoc.c.b A Datatyp(siz) R M Lvl/name                 OctLoc.c.b A Datatyp(siz) R M Lvl/name

     0-0-0/w PTR               1 DNT_OF_1$

PL6.E3A0      #005=Z8EH$CANCEL File=Z8EH.:Z8A6TSI                                SAT 08/09/97 11:56 Page:103
  ****  Section 005 LblCom ST$

  ****  Scalars and arrays  ****
OctLoc.c.b A Datatyp(siz) R M Lvl/name                 OctLoc.c.b A Datatyp(siz) R M Lvl/name

     0-0-0/w PTR         r     1 ST$

  ****  Section 006 LblCom ST_

  ****  Scalars and arrays  ****
OctLoc.c.b A Datatyp(siz) R M Lvl/name                 OctLoc.c.b A Datatyp(siz) R M Lvl/name

     0-0-0/w STRC(180)         1 ST_

  ****  Section 007 LblCom LEX_SYMBOL

  ****  Scalars and arrays  ****
OctLoc.c.b A Datatyp(siz) R M Lvl/name                 OctLoc.c.b A Datatyp(siz) R M Lvl/name

     0-0-0/w STRC(3240)  r     1 LEX_SYMBOL                 0-0-0/w STRC(3240)        1 LEX_SYMBOL_WORDS

  ****  Section 008 LblCom CURRENT_LEX_SYMBOL$

  ****  Scalars and arrays  ****
OctLoc.c.b A Datatyp(siz) R M Lvl/name                 OctLoc.c.b A Datatyp(siz) R M Lvl/name

     0-0-0/w PTR         r     1 CURRENT_LEX_SYMBOL$

  ****  Section 009 LblCom TEMP_LEX_SYMBOL

  ****  Scalars and arrays  ****
OctLoc.c.b A Datatyp(siz) R M Lvl/name                 OctLoc.c.b A Datatyp(siz) R M Lvl/name

     0-0-0/w STRC(3240)        1 TEMP_LEX_SYMBOL

  ****  Section 010 LblCom TEMP_LEX_SYMBOL2

PL6.E3A0      #005=Z8EH$CANCEL File=Z8EH.:Z8A6TSI                                SAT 08/09/97 11:56 Page:104
  ****  Scalars and arrays  ****
OctLoc.c.b A Datatyp(siz) R M Lvl/name                 OctLoc.c.b A Datatyp(siz) R M Lvl/name

     0-0-0/w STRC(3240)        1 TEMP_LEX_SYMBOL2

  ****  Section 011 LblCom ILL$

  ****  Scalars and arrays  ****
OctLoc.c.b A Datatyp(siz) R M Lvl/name                 OctLoc.c.b A Datatyp(siz) R M Lvl/name

     0-0-0/w PTR         r     1 ILL$

  ****  Section 012 LblCom ILL_

  ****  Scalars and arrays  ****
OctLoc.c.b A Datatyp(siz) R M Lvl/name                 OctLoc.c.b A Datatyp(siz) R M Lvl/name

     0-0-0/w STRC(180)         1 ILL_

  ****  Auto variables  ****

  ****  Scalars and arrays  ****
OctLoc.c.b A Datatyp(siz) R M Lvl/name                 OctLoc.c.b A Datatyp(siz) R M Lvl/name

     3-0-0/w PTR         r     1 @CANCEL_LIST$             *0-0-0/w PTR         r     1 CANCEL_LIST$
     7-0-0/w PTR         r     1 CONST$                    11-0-0/w STRC(324)         1 NAME
    10-0-0/w PTR         r     1 NEW_DNT$                   4-0-0/w PTR         r     1 PROC$
    32-0-0/d STRC(288)   r     1 PROC_CSIB                 22-0-0/d STRC(288)   r     1 PROC_NAME
     6-0-0/w PTR         r     1 RT_ARG_LIST$               5-0-0/w PTR         r     1 RT_DESC_LIST$

  ****  SYMREF variables  ****

  ****  Scalars and arrays  ****
OctLoc.c.b A Datatyp(siz) R M Lvl/name                 OctLoc.c.b A Datatyp(siz) R M Lvl/name

     0-0-0/d STRC(13248) r     1 COMCOM
     0-0-0/w STRC(180)         1 HIER_STK(0:50)
PL6.E3A0      #005=Z8EH$CANCEL File=Z8EH.:Z8A6TSI                                SAT 08/09/97 11:56 Page:105
     0-0-0/w SBIN              1 HIER_STK_PTR               0-0-0/w UBIN              1 ILL_STEP(0:144)
     0-0-0/d STRC(11580) r     1 O1COM                      0-0-0/w STRC(144)         1 PAGE_FORMAT
     0-0-0/w STRC(153)         1 REP_STK(0:50)              0-0-0/w SBIN              1 REP_STK_PTR

  ****  BASED and DCB variables  ****

  ****  Scalars and arrays  ****
OctLoc.c.b A Datatyp(siz) R M Lvl/name                 OctLoc.c.b A Datatyp(siz) R M Lvl/name

     0-0-0/w STRC(108)         1 ACCEPT_DISPLAY             0-0-0/w STRC(288)         1 ADD_STMT
     0-0-0/w STRC(396)         1 ALPHABET                   0-0-0/w STRC(396)         1 ARRAY
     0-0-0/w ASTR(324)   r     1 BASED_LEX_SYMBOL
     0-0-0/w STRC(360)         1 BASED_LEX_SYMBOL_WORDS
     0-0-0/w STRC(108)         1 BINARY_ILL                 0-0-0/w STRC(288)         1 BINARY_OP
     0-0-0/w STRC(396)         1 BLOCK                      0-0-0/w STRC(144)         1 BRANCH_ILL
     0-0-0/w STRC(288)         1 CALL_STMT                  0-0-0/w STRC(216)         1 CCOSU
     0-0-0/w STRC(396)         1 CD                         0-0-0/w CHAR(4096)        1 CHARS
     0-0-0/w STRC(396)         1 CLASS                      0-0-0/w STRC(108)         1 CODED_MOVE
     0-0-0/w STRC(288)         1 COMPUTE_STMT               0-0-0/w STRC(396)         1 CONDITION
     0-0-0/w STRC(396)         1 CONST                      0-0-0/w STRC(72)          1 CONT
     0-0-0/w STRC(396)         1 DB                         0-0-0/w STRC(396)         1 DCB_
     0-0-0/w STRC(288)         1 DEFERED_IDENTIFIER         0-0-0/w STRC(252)         1 DEFERED_ID_TREE
     0-0-0/w STRC(288)         1 DEFERED_QUAL_ID            0-0-0/w STRC(288)         1 DEFERED_SUM_CLAUSE
     0-0-0/w STRC(288)         1 DEFERED_SUM_CLAUSE_LIST
     0-0-0/w STRC(144)         1 DEFLB                      0-0-0/w STRC(288)         1 DELETE_STMT
     0-0-0/w STRC(288)         1 DIVIDE_STMT                0-0-0/w STRC(396)         1 DML_ITEM
     0-0-0/w ASTR(180)   r     1 DNT                        0-0-0/w STRC(144)         1 DOEND
     0-0-0/w STRC(396)         1 DO_N                       0-0-0/w STRC(180)         1 DV4I
     0-0-0/w STRC(180)         1 ENTRY_ILL                  0-0-0/w STRC(108)         1 EVALU
     0-0-0/w STRC(396)         1 FD                         0-0-0/w STRC(144)         1 GO
     0-0-0/w STRC(180)         1 ILL                        0-0-0/w STRC              1 ILL_NO_OPS
     0-0-0/w STRC(288)         1 ILS_LIST                   0-0-0/w STRC(288)         1 INSPECT_1_STMT
     0-0-0/w STRC(288)         1 INSPECT_2_STMT             0-0-0/w STRC(288)         1 INSPECT_4_STMT
     0-0-0/w STRC(396)         1 INTDEF                     0-0-0/w STRC(396)         1 LABEL
     0-0-0/w STRC(288)         1 LA_ITEM                    0-0-0/w STRC(108)         1 LINOI
     0-0-0/w STRC(504)         1 LX_CD_INPUT                0-0-0/w STRC(324)         1 LX_CD_I_O
     0-0-0/w STRC(396)         1 LX_CD_OUTPUT               0-0-0/w STRC(288)   r     1 LX_ETT_ITEM
PL6.E3A0      #005=Z8EH$CANCEL File=Z8EH.:Z8A6TSI                                SAT 08/09/97 11:56 Page:106
     0-0-0/w STRC(288)   r     1 LX_ITEM                    0-0-0/w STRC(288)         1 LX_LARGE
     0-0-0/w STRC(288)   r     1 LX_LIST                    0-0-0/w STRC(1224)        1 LX_REC_DECL
     0-0-0/w STRC(864)         1 LX_REPORT_REC              0-0-0/w STRC(288)   r     1 LX_TERMINAL
     0-0-0/w STRC(72)          1 MFILL                      0-0-0/w STRC(396)         1 MNEMONIC
     0-0-0/w STRC(288)         1 MULTIPLY_STMT              0-0-0/w STRC(180)         1 MULTI_GO
     0-0-0/w STRC(180)         1 MVEAL                      0-0-0/w STRC(108)         1 MVFIL
     0-0-0/w STRC(72)          1 MVIIS                      0-0-0/w STRC(180)   r     1 OS_CALL
     0-0-0/w STRC(36864)       1 PAGE                       0-0-0/w STRC(396)         1 PARA
     0-0-0/w STRC(216)         1 PFORM                      0-0-0/w STRC(144)         1 PINC
     0-0-0/w STRC(144)         1 PREOFF                     0-0-0/w STRC(108)         1 PRESET
     0-0-0/w STRC(396)         1 PROC_                      0-0-0/w STRC(396)         1 PROC_DEF
     0-0-0/w STRC(144)         1 P_A_PRESET                 0-0-0/w STRC(144)         1 P_P_PRESET
     0-0-0/w STRC(396)         1 RD                         0-0-0/w STRC(288)         1 READ_STMT
     0-0-0/w STRC(144)         1 REMEM                      0-0-0/w STRC(288)         1 REWRITE_STMT
     0-0-0/w STRC(396)         1 SCALAR                     0-0-0/w STRC(144)         1 SCOPE
     0-0-0/w STRC(396)         1 SD                         0-0-0/w STRC(216)         1 SEARCH_
     0-0-0/w STRC(396)         1 SECTION                    0-0-0/w STRC(396)         1 SEGMENT
     0-0-0/w STRC(396)         1 ST                         0-0-0/w STRC(288)         1 START_STMT
     0-0-0/w STRC(72)          1 STP2                       0-0-0/w STRC(252)         1 STRING_STMT
     0-0-0/w STRC(288)         1 SUBTRACT_STMT              0-0-0/w STRC(396)         1 SWITCH
     0-0-0/w STRC(396)         1 SYMBOLIC_CHAR              0-0-0/w STRC(396)         1 SYMDEF_
     0-0-0/w STRC(396)         1 SYMREF_                    0-0-0/w STRC(396)         1 TEMP
     0-0-0/w STRC(144)         1 TRINARY_ILL                0-0-0/w STRC(72)          1 UNARY_ILL
     0-0-0/w STRC(288)         1 UNARY_OP                   0-0-0/w STRC(288)         1 UNSTRING_STMT
     0-0-0/w STRC(216)         1 USER_CALL                  0-0-0/w STRC(108)         1 VAL
     0-0-0/w STRC(108)         1 VAL_END                    0-0-0/w STRC(396)         1 VARIABLE
     0-0-0/w STRC(72)          1 WHEN                       0-0-0/w STRC(288)         1 WRITE_STMT


   Procedure Z8EH$CANCEL requires 175 words for executable code.
   Procedure Z8EH$CANCEL requires 40 words of local(AUTO) storage.

PL6.E3A0      #006=Z8EH$CHECK_ARGS File=Z8EH.:Z8A6TSI                            SAT 08/09/97 11:58 Page:107
      524        1        /*T***********************************************************/
      525        2        /*T*                                                         */
      526        3        /*T* Copyright (c) Bull HN Information Systems Inc., 1997    */
      527        4        /*T*                                                         */
      528        5        /*T***********************************************************/
      529        6        /*****************/
      530        7          Z8EH$CHECK_ARGS : PROC ( LIST$ );
      531        8        /*****************/
      532        9
      533       10        /*I*
      534       11                 NAME: CHECK_ARGS
      535       12
      536       13          DESCRIPTION: A LX_LIST of LX_ETT_ITEMS is validated for proper
      537       14                       type.  Proper types are extended from the standard
      538       15                       to include group as well as elementary items.
      539       16        */
      540       17
      541       18
      542       19    1    DCL LIST$ PTR;
      543       20
      544       21    1    DCL L$ PTR;
      545       22    1    DCL SAVE_LINK$ PTR;
      546       23    1    DCL SAVE_LINE SBIN;
      547       24    1    DCL SAVE_COLUMN SBIN;
      548       25    1    DCL TEMP_ST$ PTR;
      549       26    1    DCL INDEX_GUY$ PTR;
      550       27
      551       28         %EQU PHASE = 1;
      552       29         %INCLUDE Z8A_DEFC;
      553       97         %INCLUDE Z8A_SUPP_MAC;
      554     2497         %INCLUDE Z8A_TYPES;
      555     2671         %INCLUDE Z8A_ST;
      556     6330         %INCLUDE Z8E_MACROS;
      557     7005         %INCLUDE Z8A_ERR_NUMS;
      558     7769         %INCLUDE Z8E_STACKS;
      559    10035         %INCLUDE Z8A_ETT;
      560    10336         %INCLUDE Z8A_QLT;
PL6.E3A0      #006=Z8EH$CHECK_ARGS File=Z8EH.:Z8A6TSI                            SAT 08/09/97 11:58 Page:108
      561    10442
      562    10443    1    DCL Z8AT$CREATE_TEMPORARY          ENTRY(2);
      563    10444    1    DCL Z8AE$ERROR                     ENTRY(12);
      564    10445    1    DCL Z8EU$CREATE_IDENTIFIER_FROM_ST ENTRY(4);
      565    10446
      566    10447
      567    10448        /*---------*/
      568    10449    1     ARG_ERROR : PROC;
      569    10450        /*---------*/
      570    10451
      571    10452                  %CONDITIONAL_ERROR (@LX_ITEM$ = L$,
      572    10453                                      @ERROR# = %E$INVALID_CALL_ARGUMENT,
      573    10454                                      @LINE = L$ -> LX_ETT_ITEM.LINE,
      574    10455                                      @COLUMN = L$ -> LX_ETT_ITEM.COLUMN);
      575    10485
      576    10486    2           CALL Z8AT$CREATE_TEMPORARY (%SCALAR,
      577    10487    2                                       TEMP_ST$ );
      578    10488
      579    10489    2           SAVE_LINE = L$ -> LX_ETT_ITEM.LINE;
      580    10490    2           SAVE_COLUMN = L$ -> LX_ETT_ITEM.COLUMN;
      581    10491    2           SAVE_LINK$ = L$ -> LX_ETT_ITEM.LINK;
      582    10492
      583    10493    2           CALL Z8EU$CREATE_IDENTIFIER_FROM_ST( TEMP_ST$,
      584    10494    2                                                L$,
      585    10495    2                                                SAVE_LINE,
      586    10496    2                                                SAVE_COLUMN );
      587    10497
      588    10498    2           L$ -> LX_ETT_ITEM.LINK = SAVE_LINK$;
      589    10499    2           L$ -> LX_ETT_ITEM.B.ERROR = TRUE;
      590    10500
      591    10501    2   END ARG_ERROR;
      592    10502         %EJECT;
PL6.E3A0      #006=Z8EH$CHECK_ARGS File=Z8EH.:Z8A6TSI                            SAT 08/09/97 11:58 Page:109
      593    10503    1           L$ = LIST$ -> LX_LIST.HEAD$;
      594    10504
      595    10505    2           DO WHILE L$ ~= ADDR(NIL);
      596    10506
      597    10507    3              DO CASE(L$ -> LX_ETT_ITEM.TYPE);
      598    10508
      599    10509    3               CASE(%TYD, %TYI, %TYJ, %TYO, %TYR, %TYQ, %TYE, %TYH, %TYA,
      600    10510    3                %TYP, %TYK, %TYN, %TYB, %TYC, %TYF);
      601    10511
      602    10512                      %FISH (TRIAD = L$ -> LX_ETT_ITEM.ETT$, RTN = ST$);
      603    10520    4                 DO CASE (ST$ -> ST.ID);
      604    10521    4                   CASE (%SCALAR, %ARRAY, %POINTER, %CONST);
      605    10522    4      /* Okay */ ;
      606    10523    4                   CASE (ELSE);
      607    10524    4                     CALL ARG_ERROR;
      608    10525    4                 END;
      609    10526
      610    10527    3               CASE(%TYY, %TYX);
      611    10528              /* IBM index data type.  This type is meaningless for
      612    10529                 calling other procs, and for moving in the case of
      613    10530                 CALL ... BY CONTENT.  For this reason, we will use
      614    10531                 the TYA guy that redefines the index guy.          */
      615    10532
      616    10533                      %FISH (TRIAD = L$ -> LX_ETT_ITEM.ETT$,
      617    10534                      RTN = INDEX_GUY$);
      618    10542
      619    10543    3                 IF INDEX_GUY$ -> SCALAR.TYPE = %TYX
      620    10544    3                   AND INDEX_GUY$ -> SCALAR.LTS$ ~= ADDR(NIL) THEN
      621    10545    3                    CALL ARG_ERROR;
      622    10546    3                 ELSE
      623    10547    4                 DO;
      624    10548
      625    10549    4                    INDEX_GUY$ = INDEX_GUY$ -> SCALAR.QLT$ -> QLT.BROTHER -> QLT.ST$;
      626    10550
      627    10551    4                    SAVE_LINE = L$ -> LX_ETT_ITEM.LINE;
      628    10552    4                    SAVE_COLUMN = L$ -> LX_ETT_ITEM.COLUMN;
      629    10553    4                    SAVE_LINK$ = L$ -> LX_ETT_ITEM.LINK;
PL6.E3A0      #006=Z8EH$CHECK_ARGS File=Z8EH.:Z8A6TSI                            SAT 08/09/97 11:58 Page:110
      630    10554
      631    10555    4                    CALL Z8EU$CREATE_IDENTIFIER_FROM_ST (INDEX_GUY$,
      632    10556    4                      L$,
      633    10557    4                      SAVE_LINE,
      634    10558    4                      SAVE_COLUMN);
      635    10559
      636    10560    4                    L$ -> LX_ETT_ITEM.LINK = SAVE_LINK$;
      637    10561    4                    END;
      638    10562
      639    10563    3               CASE(%TYG);
      640    10564
      641    10565                      %FISH (TRIAD = L$ -> LX_ETT_ITEM.ETT$, RTN = ST$);
      642    10573    3                 IF ST$ -> ST.ID ~= %PARA   AND
      643    10574    3                   ST$ -> ST.ID ~= %SECTION   THEN
      644    10575    3                    CALL ARG_ERROR;        /*  This is for the                   */
      645    10576                                                /*  remember call to                  */
      646    10577                                                /*  to PL6.                           */
      647    10578
      648    10579    3               CASE(ELSE);
      649    10580
      650    10581    3                 CALL ARG_ERROR;
      651    10582
      652    10583    3               END;                        /* case                               */
      653    10584
      654    10585    2              L$ = L$ -> LX_ETT_ITEM.LINK;
      655    10586    2              END;                         /* Do while                           */
      656    10587
      657    10588    1   END Z8EH$CHECK_ARGS;
      658    10589        %EOD;

PL6.E3A0      #006=Z8EH$CHECK_ARGS File=Z8EH.:Z8A6TSI                            SAT 08/09/97 11:58 Page:111
--  Include file information  --

   Z8A_QLT.:Z8A6TOU  cannot be made into a system file and is referenced.
   Z8A_ETT.:Z8A6TOU  cannot be made into a system file and is referenced.
   Z8A_LEX_SYMB.:Z8A6TOU  cannot be made into a system file and is referenced.
   Z8E_STACKS.:Z8A6TOU  cannot be made into a system file and is referenced.
   Z8A_ERR_NUMS.:Z8A6TOU  is referenced.
   Z8E_NEW_ILL.:Z8A6TOU  is referenced.
   Z8E_MACROS.:Z8A6TOU  cannot be made into a system file and is referenced.
   Z8A_ST.:Z8A6TOU  cannot be made into a system file and is referenced.
   Z8A_TYPES.:Z8A6TOU  is referenced.
   X8A_COM_MACS.:X8A6TOU  is referenced.
   Z8A_NAMES.:Z8A6TOU  is referenced.
   Z8A_SUPP_MAC.:Z8A6TOU  is referenced.
   Z8A_DEFC.:Z8A6TOU  cannot be made into a system file and is referenced.
      No diagnostics issued in procedure Z8EH$CHECK_ARGS.

   Procedure Z8EH$CHECK_ARGS requires 200 words for executable code.
   Procedure Z8EH$CHECK_ARGS requires 16 words of local(AUTO) storage.

PL6.E3A0      #006=Z8EH$CHECK_ARGS File=Z8EH.:Z8A6TSI                            SAT 08/09/97 11:58 Page:112

 Object Unit name= Z8EH$CHECK_ARGS                            File name= Z8EH.:Z8A6TOU
 UTS= AUG 09 '97 11:58:37.36 SAT                              Compiler= PL-6/E31         Sev=      00
 SharedLib= :SHARED_SYSTEM                                    Alt SharedLib=


    ****  Control sections  ****

 Sect   Type Bound  Init  Size OctSiz  Section name(segment info)
    0  LblCom even  none     1      1  ITERATION
    1  LblCom even  none     1      1  ST$
    2  LblCom even  none     5      5  ST_
    3  LblCom even  none    90    132  LEX_SYMBOL
    4  LblCom even  none     1      1  CURRENT_LEX_SYMBOL$
    5  LblCom even  none    90    132  TEMP_LEX_SYMBOL
    6  LblCom even  none    90    132  TEMP_LEX_SYMBOL2
    7  LblCom even  none     1      1  ETT$
    8  LblCom even  none     1      1  HEAD_ETT$
    9  LblCom even  none   512   1000  ETT_BUCKETS
   10  LblCom even  none     5      5  ETT_
   11  LblCom even  none     1      1  QLT$
   12  LblCom even  none     1      1  PREV_01_QLT$
   13  LblCom even  none     5      5  QLT_
   14   Proc  even  none   200    310  Z8EH$CHECK_ARGS
   15  RoData even  none     8     10  Z8EH$CHECK_ARGS

    ****  Entry defs  ****

                              Check   Calling
                             calling  sequence
  Sect OctLoc Primary Altret sequence   type   Parms  Name
    14      0   yes            yes      Std        1  Z8EH$CHECK_ARGS
PL6.E3A0      #006=Z8EH$CHECK_ARGS File=Z8EH.:Z8A6TSI                            SAT 08/09/97 11:58 Page:113

  ****  Entry refs  ****

         Check        Calling
        calling       sequence
Altret sequence SRef   type   Args  Name
         yes           Std       4 Z8EU$CREATE_IDENTIFIER_FROM_ST
         yes           Std      12 Z8AE$ERROR
         yes           Std       2 Z8AT$CREATE_TEMPORARY
                       nStd      0 X66_AUTO_1
                       nStd      0 X66_ARET

  ****  Segment refs  ****

  Flags:  r = read only, s = secondary
Flgs Name                             Flgs Name                             Flgs Name
     NULLSID                               ISSID
PL6.E3A0      #006=Z8EH$CHECK_ARGS File=Z8EH.:Z8A6TSI                            SAT 08/09/97 11:58 Page:114


      524        1        /*T***********************************************************/
      525        2        /*T*                                                         */
      526        3        /*T* Copyright (c) Bull HN Information Systems Inc., 1997    */
      527        4        /*T*                                                         */
      528        5        /*T***********************************************************/
      529        6        /*****************/
      530        7          Z8EH$CHECK_ARGS : PROC ( LIST$ );

      7 14 000000   000000 700200 xent  Z8EH$CHECK_* TSX0  ! X66_AUTO_1
        14 000001   000020 000001                    ZERO    16,1
        14 000002   000070 710000 14                 TRA     s:10503

      531        8        /*****************/
      532        9
      533       10        /*I*
      534       11                 NAME: CHECK_ARGS
      535       12
      536       13          DESCRIPTION: A LX_LIST of LX_ETT_ITEMS is validated for proper
      537       14                       type.  Proper types are extended from the standard
      538       15                       to include group as well as elementary items.
      539       16        */
      540       17
      541       18
      542       19    1    DCL LIST$ PTR;
      543       20
      544       21    1    DCL L$ PTR;
      545       22    1    DCL SAVE_LINK$ PTR;
      546       23    1    DCL SAVE_LINE SBIN;
      547       24    1    DCL SAVE_COLUMN SBIN;
      548       25    1    DCL TEMP_ST$ PTR;
      549       26    1    DCL INDEX_GUY$ PTR;
      550       27
      551       28         %EQU PHASE = 1;
      552       29         %INCLUDE Z8A_DEFC;
      553       97         %INCLUDE Z8A_SUPP_MAC;
      554     2497         %INCLUDE Z8A_TYPES;
PL6.E3A0      #006=Z8EH$CHECK_ARGS File=Z8EH.:Z8A6TSI                            SAT 08/09/97 11:58 Page:115
      555     2671         %INCLUDE Z8A_ST;
      556     6330         %INCLUDE Z8E_MACROS;
      557     7005         %INCLUDE Z8A_ERR_NUMS;
      558     7769         %INCLUDE Z8E_STACKS;
      559    10035         %INCLUDE Z8A_ETT;
      560    10336         %INCLUDE Z8A_QLT;
      561    10442
      562    10443    1    DCL Z8AT$CREATE_TEMPORARY          ENTRY(2);
      563    10444    1    DCL Z8AE$ERROR                     ENTRY(12);
      564    10445    1    DCL Z8EU$CREATE_IDENTIFIER_FROM_ST ENTRY(4);
      565    10446
      566    10447
      567    10448        /*---------*/
      568    10449    1     ARG_ERROR : PROC;

  10449 14 000003   200012 741300       ARG_ERROR    STX1  ! INDEX_GUY$+1,,AUTO

      569    10450        /*---------*/
      570    10451
      571    10452                  %CONDITIONAL_ERROR (@LX_ITEM$ = L$,
      572    10453                                      @ERROR# = %E$INVALID_CALL_ARGUMENT,
      573    10454                                      @LINE = L$ -> LX_ETT_ITEM.LINE,
      574    10455                                      @COLUMN = L$ -> LX_ETT_ITEM.COLUMN);

  10465 14 000004   200004 470500                    LDP0    L$,,AUTO
        14 000005   000000 236100                    LDQ     0,,PR0
        14 000006   400000 316007                    CANQ    -131072,DL
        14 000007   000026 601000 14                 TNZ     s:10486

  10467 14 000010   200004 236100                    LDQ     L$,,AUTO
        14 000011   000006 036003                    ADLQ    6,DU
        14 000012   200016 756100                    STQ     INDEX_GUY$+5,,AUTO
        14 000013   200004 236100                    LDQ     L$,,AUTO
        14 000014   000005 036003                    ADLQ    5,DU
        14 000015   000002 235000 15                 LDA     2
        14 000016   200014 757100                    STAQ    INDEX_GUY$+3,,AUTO
        14 000017   200014 630500                    EPPR0   INDEX_GUY$+3,,AUTO
PL6.E3A0      #006=Z8EH$CHECK_ARGS File=Z8EH.:Z8A6TSI                            SAT 08/09/97 11:58 Page:116
        14 000020   000000 631400 15                 EPPR1   0
        14 000021   000000 701000 xent               TSX1    Z8AE$ERROR
        14 000022   000000 011000                    NOP     0

  10476 14 000023   200004 470500                    LDP0    L$,,AUTO
        14 000024   400000 236007                    LDQ     -131072,DL
        14 000025   000000 256100                    ORSQ    0,,PR0

      575    10485
      576    10486    2           CALL Z8AT$CREATE_TEMPORARY (%SCALAR,

  10486 14 000026   200010 630500                    EPPR0   TEMP_ST$,,AUTO
        14 000027   200015 450500                    STP0    INDEX_GUY$+4,,AUTO
        14 000030   000005 236000 15                 LDQ     5
        14 000031   200014 756100                    STQ     INDEX_GUY$+3,,AUTO
        14 000032   200014 630500                    EPPR0   INDEX_GUY$+3,,AUTO
        14 000033   000003 631400 15                 EPPR1   3
        14 000034   000000 701000 xent               TSX1    Z8AT$CREATE_TEMPORARY
        14 000035   000000 011000                    NOP     0

      577    10487    2                                       TEMP_ST$ );
      578    10488
      579    10489    2           SAVE_LINE = L$ -> LX_ETT_ITEM.LINE;

  10489 14 000036   200004 470500                    LDP0    L$,,AUTO
        14 000037   000005 235100                    LDA     5,,PR0
        14 000040   200006 755100                    STA     SAVE_LINE,,AUTO

      580    10490    2           SAVE_COLUMN = L$ -> LX_ETT_ITEM.COLUMN;

  10490 14 000041   000006 235100                    LDA     6,,PR0
        14 000042   200007 755100                    STA     SAVE_COLUMN,,AUTO

      581    10491    2           SAVE_LINK$ = L$ -> LX_ETT_ITEM.LINK;

  10491 14 000043   000007 236100                    LDQ     7,,PR0
        14 000044   200005 756100                    STQ     SAVE_LINK$,,AUTO
PL6.E3A0      #006=Z8EH$CHECK_ARGS File=Z8EH.:Z8A6TSI                            SAT 08/09/97 11:58 Page:117

      582    10492
      583    10493    2           CALL Z8EU$CREATE_IDENTIFIER_FROM_ST( TEMP_ST$,

  10493 14 000045   200007 631500                    EPPR1   SAVE_COLUMN,,AUTO
        14 000046   200017 451500                    STP1    INDEX_GUY$+6,,AUTO
        14 000047   200006 633500                    EPPR3   SAVE_LINE,,AUTO
        14 000050   200016 453500                    STP3    INDEX_GUY$+5,,AUTO
        14 000051   200004 634500                    EPPR4   L$,,AUTO
        14 000052   200015 454500                    STP4    INDEX_GUY$+4,,AUTO
        14 000053   200010 635500                    EPPR5   TEMP_ST$,,AUTO
        14 000054   200014 455500                    STP5    INDEX_GUY$+3,,AUTO
        14 000055   200014 630500                    EPPR0   INDEX_GUY$+3,,AUTO
        14 000056   000006 631400 15                 EPPR1   6
        14 000057   000000 701000 xent               TSX1    Z8EU$CREATE_IDENTIFIER_FROM_ST
        14 000060   000000 011000                    NOP     0

      584    10494    2                                                L$,
      585    10495    2                                                SAVE_LINE,
      586    10496    2                                                SAVE_COLUMN );
      587    10497
      588    10498    2           L$ -> LX_ETT_ITEM.LINK = SAVE_LINK$;

  10498 14 000061   200005 236100                    LDQ     SAVE_LINK$,,AUTO
        14 000062   200004 470500                    LDP0    L$,,AUTO
        14 000063   000007 756100                    STQ     7,,PR0

      589    10499    2           L$ -> LX_ETT_ITEM.B.ERROR = TRUE;

  10499 14 000064   400000 236007                    LDQ     -131072,DL
        14 000065   000000 256100                    ORSQ    0,,PR0

      590    10500
      591    10501    2   END ARG_ERROR;

  10501 14 000066   200012 221300                    LDX1  ! INDEX_GUY$+1,,AUTO
        14 000067   000001 702211                    TSX2  ! 1,X1
PL6.E3A0      #006=Z8EH$CHECK_ARGS File=Z8EH.:Z8A6TSI                            SAT 08/09/97 11:58 Page:118

      592    10502         %EJECT;
PL6.E3A0      #006=Z8EH$CHECK_ARGS File=Z8EH.:Z8A6TSI                            SAT 08/09/97 11:58 Page:119
      593    10503    1           L$ = LIST$ -> LX_LIST.HEAD$;

  10503 14 000070   200003 470500                    LDP0    @LIST$,,AUTO
        14 000071   000000 471500                    LDP1    0,,PR0
        14 000072   100004 236100                    LDQ     4,,PR1
        14 000073   200004 756100                    STQ     L$,,AUTO

      594    10504
      595    10505    2           DO WHILE L$ ~= ADDR(NIL);

  10505 14 000074   000305 710000 14                 TRA     s:10586

      596    10506
      597    10507    3              DO CASE(L$ -> LX_ETT_ITEM.TYPE);

  10507 14 000075   200004 470500                    LDP0    L$,,AUTO
        14 000076   000004 235100                    LDA     4,,PR0
        14 000077   000024 115007                    CMPA    20,DL
        14 000100   000102 602005 14                 TNC     s:10507+5,AL
        14 000101   000300 710000 14                 TRA     s:10581
        14 000102   000126 710000 14                 TRA     s:10514
        14 000103   000126 710000 14                 TRA     s:10514
        14 000104   000126 710000 14                 TRA     s:10514
        14 000105   000126 710000 14                 TRA     s:10514
        14 000106   000126 710000 14                 TRA     s:10514
        14 000107   000126 710000 14                 TRA     s:10514
        14 000110   000126 710000 14                 TRA     s:10514
        14 000111   000126 710000 14                 TRA     s:10514
        14 000112   000126 710000 14                 TRA     s:10514
        14 000113   000170 710000 14                 TRA     s:10536
        14 000114   000170 710000 14                 TRA     s:10536
        14 000115   000126 710000 14                 TRA     s:10514
        14 000116   000126 710000 14                 TRA     s:10514
        14 000117   000300 710000 14                 TRA     s:10581
        14 000120   000126 710000 14                 TRA     s:10514
        14 000121   000126 710000 14                 TRA     s:10514
        14 000122   000252 710000 14                 TRA     s:10567
PL6.E3A0      #006=Z8EH$CHECK_ARGS File=Z8EH.:Z8A6TSI                            SAT 08/09/97 11:58 Page:120
        14 000123   000300 710000 14                 TRA     s:10581
        14 000124   000126 710000 14                 TRA     s:10514
        14 000125   000126 710000 14                 TRA     s:10514

      598    10508
      599    10509    3               CASE(%TYD, %TYI, %TYJ, %TYO, %TYR, %TYQ, %TYE, %TYH, %TYA,

      600    10510    3                %TYP, %TYK, %TYN, %TYB, %TYC, %TYF);
      601    10511
      602    10512                      %FISH (TRIAD = L$ -> LX_ETT_ITEM.ETT$, RTN = ST$);

  10514 14 000126   000001 236100                    LDQ     1,,PR0
        14 000127   000000 756000 1                  STQ     ST$

  10515 14 000130   000000 471400 1                  LDP1    ST$
        14 000131   100000 220100                    LDX0    0,,PR1
        14 000132   000751 100003                    CMPX0   489,DU
        14 000133   000143 603000 14                 TRC     s:10520

  10516 14 000134   000000 470400 1                  LDP0    ST$
        14 000135   000001 236100                    LDQ     1,,PR0
        14 000136   000000 756000 1                  STQ     ST$

  10517 14 000137   000000 470400 1                  LDP0    ST$
        14 000140   000000 220100                    LDX0    0,,PR0
        14 000141   000751 100003                    CMPX0   489,DU
        14 000142   000134 602000 14                 TNC     s:10516

      603    10520    4                 DO CASE (ST$ -> ST.ID);

  10520 14 000143   000000 470400 1                  LDP0    ST$
        14 000144   000000 236100                    LDQ     0,,PR0
        14 000145   000022 772000                    QRL     18
        14 000146   000765 136007                    SBLQ    501,DL
        14 000147   000013 116007                    CMPQ    11,DL
        14 000150   000152 602006 14                 TNC     s:10520+7,QL
        14 000151   000165 710000 14                 TRA     s:10524
PL6.E3A0      #006=Z8EH$CHECK_ARGS File=Z8EH.:Z8A6TSI                            SAT 08/09/97 11:58 Page:121
        14 000152   000167 710000 14                 TRA     s:10525
        14 000153   000167 710000 14                 TRA     s:10525
        14 000154   000167 710000 14                 TRA     s:10525
        14 000155   000165 710000 14                 TRA     s:10524
        14 000156   000165 710000 14                 TRA     s:10524
        14 000157   000165 710000 14                 TRA     s:10524
        14 000160   000165 710000 14                 TRA     s:10524
        14 000161   000165 710000 14                 TRA     s:10524
        14 000162   000165 710000 14                 TRA     s:10524
        14 000163   000165 710000 14                 TRA     s:10524
        14 000164   000167 710000 14                 TRA     s:10525

      604    10521    4                   CASE (%SCALAR, %ARRAY, %POINTER, %CONST);

      605    10522    4      /* Okay */ ;
      606    10523    4                   CASE (ELSE);

      607    10524    4                     CALL ARG_ERROR;

  10524 14 000165   000003 701000 14                 TSX1    ARG_ERROR
        14 000166   000000 011000                    NOP     0

      608    10525    4                 END;

  10525 14 000167   000302 710000 14                 TRA     s:10585

      609    10526
      610    10527    3               CASE(%TYY, %TYX);

      611    10528              /* IBM index data type.  This type is meaningless for
      612    10529                 calling other procs, and for moving in the case of
      613    10530                 CALL ... BY CONTENT.  For this reason, we will use
      614    10531                 the TYA guy that redefines the index guy.          */
      615    10532
      616    10533                      %FISH (TRIAD = L$ -> LX_ETT_ITEM.ETT$,
      617    10534                      RTN = INDEX_GUY$);

PL6.E3A0      #006=Z8EH$CHECK_ARGS File=Z8EH.:Z8A6TSI                            SAT 08/09/97 11:58 Page:122
  10536 14 000170   000001 236100                    LDQ     1,,PR0
        14 000171   200011 756100                    STQ     INDEX_GUY$,,AUTO

  10537 14 000172   200011 471500                    LDP1    INDEX_GUY$,,AUTO
        14 000173   100000 220100                    LDX0    0,,PR1
        14 000174   000751 100003                    CMPX0   489,DU
        14 000175   000205 603000 14                 TRC     s:10543

  10538 14 000176   200011 470500                    LDP0    INDEX_GUY$,,AUTO
        14 000177   000001 236100                    LDQ     1,,PR0
        14 000200   200011 756100                    STQ     INDEX_GUY$,,AUTO

  10539 14 000201   200011 470500                    LDP0    INDEX_GUY$,,AUTO
        14 000202   000000 220100                    LDX0    0,,PR0
        14 000203   000751 100003                    CMPX0   489,DU
        14 000204   000176 602000 14                 TNC     s:10538

      618    10542
      619    10543    3                 IF INDEX_GUY$ -> SCALAR.TYPE = %TYX

  10543 14 000205   200011 470500                    LDP0    INDEX_GUY$,,AUTO
        14 000206   000002 220100                    LDX0    2,,PR0
        14 000207   000011 100003                    CMPX0   9,DU
        14 000210   000217 601000 14                 TNZ     s:10549
        14 000211   000005 236100                    LDQ     5,,PR0
        14 000212   000007 116000 15                 CMPQ    7
        14 000213   000217 600000 14                 TZE     s:10549

      620    10544    3                   AND INDEX_GUY$ -> SCALAR.LTS$ ~= ADDR(NIL) THEN
      621    10545    3                    CALL ARG_ERROR;

  10545 14 000214   000003 701000 14                 TSX1    ARG_ERROR
        14 000215   000000 011000                    NOP     0
        14 000216   000302 710000 14                 TRA     s:10585

      622    10546    3                 ELSE
      623    10547    4                 DO;
PL6.E3A0      #006=Z8EH$CHECK_ARGS File=Z8EH.:Z8A6TSI                            SAT 08/09/97 11:58 Page:123

      624    10548
      625    10549    4                    INDEX_GUY$ = INDEX_GUY$ -> SCALAR.QLT$ -> QLT.BROTHER -> QLT.ST$;

  10549 14 000217   000007 471500                    LDP1    7,,PR0
        14 000220   100002 473500                    LDP3    2,,PR1
        14 000221   300004 236100                    LDQ     4,,PR3
        14 000222   200011 756100                    STQ     INDEX_GUY$,,AUTO

      626    10550
      627    10551    4                    SAVE_LINE = L$ -> LX_ETT_ITEM.LINE;

  10551 14 000223   200004 470500                    LDP0    L$,,AUTO
        14 000224   000005 235100                    LDA     5,,PR0
        14 000225   200006 755100                    STA     SAVE_LINE,,AUTO

      628    10552    4                    SAVE_COLUMN = L$ -> LX_ETT_ITEM.COLUMN;

  10552 14 000226   000006 235100                    LDA     6,,PR0
        14 000227   200007 755100                    STA     SAVE_COLUMN,,AUTO

      629    10553    4                    SAVE_LINK$ = L$ -> LX_ETT_ITEM.LINK;

  10553 14 000230   000007 236100                    LDQ     7,,PR0
        14 000231   200005 756100                    STQ     SAVE_LINK$,,AUTO

      630    10554
      631    10555    4                    CALL Z8EU$CREATE_IDENTIFIER_FROM_ST (INDEX_GUY$,

  10555 14 000232   200007 631500                    EPPR1   SAVE_COLUMN,,AUTO
        14 000233   200017 451500                    STP1    INDEX_GUY$+6,,AUTO
        14 000234   200006 633500                    EPPR3   SAVE_LINE,,AUTO
        14 000235   200016 453500                    STP3    INDEX_GUY$+5,,AUTO
        14 000236   200004 634500                    EPPR4   L$,,AUTO
        14 000237   200015 454500                    STP4    INDEX_GUY$+4,,AUTO
        14 000240   200011 635500                    EPPR5   INDEX_GUY$,,AUTO
        14 000241   200014 455500                    STP5    INDEX_GUY$+3,,AUTO
PL6.E3A0      #006=Z8EH$CHECK_ARGS File=Z8EH.:Z8A6TSI                            SAT 08/09/97 11:58 Page:124
        14 000242   200014 630500                    EPPR0   INDEX_GUY$+3,,AUTO
        14 000243   000006 631400 15                 EPPR1   6
        14 000244   000000 701000 xent               TSX1    Z8EU$CREATE_IDENTIFIER_FROM_ST
        14 000245   000000 011000                    NOP     0

      632    10556    4                      L$,
      633    10557    4                      SAVE_LINE,
      634    10558    4                      SAVE_COLUMN);
      635    10559
      636    10560    4                    L$ -> LX_ETT_ITEM.LINK = SAVE_LINK$;

  10560 14 000246   200005 236100                    LDQ     SAVE_LINK$,,AUTO
        14 000247   200004 470500                    LDP0    L$,,AUTO
        14 000250   000007 756100                    STQ     7,,PR0

      637    10561    4                    END;

  10561 14 000251   000302 710000 14                 TRA     s:10585

      638    10562
      639    10563    3               CASE(%TYG);

      640    10564
      641    10565                      %FISH (TRIAD = L$ -> LX_ETT_ITEM.ETT$, RTN = ST$);

  10567 14 000252   000001 236100                    LDQ     1,,PR0
        14 000253   000000 756000 1                  STQ     ST$

  10568 14 000254   000000 471400 1                  LDP1    ST$
        14 000255   100000 220100                    LDX0    0,,PR1
        14 000256   000751 100003                    CMPX0   489,DU
        14 000257   000267 603000 14                 TRC     s:10573

  10569 14 000260   000000 470400 1                  LDP0    ST$
        14 000261   000001 236100                    LDQ     1,,PR0
        14 000262   000000 756000 1                  STQ     ST$

PL6.E3A0      #006=Z8EH$CHECK_ARGS File=Z8EH.:Z8A6TSI                            SAT 08/09/97 11:58 Page:125
  10570 14 000263   000000 470400 1                  LDP0    ST$
        14 000264   000000 220100                    LDX0    0,,PR0
        14 000265   000751 100003                    CMPX0   489,DU
        14 000266   000260 602000 14                 TNC     s:10569

      642    10573    3                 IF ST$ -> ST.ID ~= %PARA   AND

  10573 14 000267   000000 470400 1                  LDP0    ST$
        14 000270   000000 220100                    LDX0    0,,PR0
        14 000271   000771 100003                    CMPX0   505,DU
        14 000272   000302 600000 14                 TZE     s:10585
        14 000273   000770 100003                    CMPX0   504,DU
        14 000274   000302 600000 14                 TZE     s:10585

      643    10574    3                   ST$ -> ST.ID ~= %SECTION   THEN
      644    10575    3                    CALL ARG_ERROR;        /*  This is for the                   */

  10575 14 000275   000003 701000 14                 TSX1    ARG_ERROR
        14 000276   000000 011000                    NOP     0
        14 000277   000302 710000 14                 TRA     s:10585

      645    10576                                                /*  remember call to                  */
      646    10577                                                /*  to PL6.                           */
      647    10578
      648    10579    3               CASE(ELSE);

      649    10580
      650    10581    3                 CALL ARG_ERROR;

  10581 14 000300   000003 701000 14                 TSX1    ARG_ERROR
        14 000301   000000 011000                    NOP     0

      651    10582
      652    10583    3               END;                        /* case                               */

      653    10584
      654    10585    2              L$ = L$ -> LX_ETT_ITEM.LINK;
PL6.E3A0      #006=Z8EH$CHECK_ARGS File=Z8EH.:Z8A6TSI                            SAT 08/09/97 11:58 Page:126

  10585 14 000302   200004 470500                    LDP0    L$,,AUTO
        14 000303   000007 236100                    LDQ     7,,PR0
        14 000304   200004 756100                    STQ     L$,,AUTO

      655    10586    2              END;                         /* Do while                           */

  10586 14 000305   000007 116000 15                 CMPQ    7
        14 000306   000075 601000 14                 TNZ     s:10507

      656    10587
      657    10588    1   END Z8EH$CHECK_ARGS;

  10588 14 000307   000000 702200 xent               TSX2  ! X66_ARET
      658    10589        %EOD;

PL6.E3A0      #006=Z8EH$CHECK_ARGS File=Z8EH.:Z8A6TSI                            SAT 08/09/97 11:58 Page:127
--  Include file information  --

   Z8A_QLT.:Z8A6TOU  cannot be made into a system file and is referenced.
   Z8A_ETT.:Z8A6TOU  cannot be made into a system file and is referenced.
   Z8A_LEX_SYMB.:Z8A6TOU  cannot be made into a system file and is referenced.
   Z8E_STACKS.:Z8A6TOU  cannot be made into a system file and is referenced.
   Z8A_ERR_NUMS.:Z8A6TOU  is referenced.
   Z8E_NEW_ILL.:Z8A6TOU  is referenced.
   Z8E_MACROS.:Z8A6TOU  cannot be made into a system file and is referenced.
   Z8A_ST.:Z8A6TOU  cannot be made into a system file and is referenced.
   Z8A_TYPES.:Z8A6TOU  is referenced.
   X8A_COM_MACS.:X8A6TOU  is referenced.
   Z8A_NAMES.:Z8A6TOU  is referenced.
   Z8A_SUPP_MAC.:Z8A6TOU  is referenced.
   Z8A_DEFC.:Z8A6TOU  cannot be made into a system file and is referenced.
      No diagnostics issued in procedure Z8EH$CHECK_ARGS.
PL6.E3A0      #006=Z8EH$CHECK_ARGS File=Z8EH.:Z8A6TSI                            SAT 08/09/97 11:58 Page:128

 **** Variables and constants ****

  ****  Section 000 LblCom ITERATION

  ****  Scalars and arrays  ****
OctLoc.c.b A Datatyp(siz) R M Lvl/name                 OctLoc.c.b A Datatyp(siz) R M Lvl/name

     0-0-0/w SBIN              1 ITERATION

  ****  Section 001 LblCom ST$

  ****  Scalars and arrays  ****
OctLoc.c.b A Datatyp(siz) R M Lvl/name                 OctLoc.c.b A Datatyp(siz) R M Lvl/name

     0-0-0/w PTR         r     1 ST$

  ****  Section 002 LblCom ST_

  ****  Scalars and arrays  ****
OctLoc.c.b A Datatyp(siz) R M Lvl/name                 OctLoc.c.b A Datatyp(siz) R M Lvl/name

     0-0-0/w STRC(180)         1 ST_

  ****  Section 003 LblCom LEX_SYMBOL

  ****  Scalars and arrays  ****
OctLoc.c.b A Datatyp(siz) R M Lvl/name                 OctLoc.c.b A Datatyp(siz) R M Lvl/name

     0-0-0/w STRC(3240)  r     1 LEX_SYMBOL                 0-0-0/w STRC(3240)        1 LEX_SYMBOL_WORDS

  ****  Section 004 LblCom CURRENT_LEX_SYMBOL$

  ****  Scalars and arrays  ****
OctLoc.c.b A Datatyp(siz) R M Lvl/name                 OctLoc.c.b A Datatyp(siz) R M Lvl/name

     0-0-0/w PTR         r     1 CURRENT_LEX_SYMBOL$

PL6.E3A0      #006=Z8EH$CHECK_ARGS File=Z8EH.:Z8A6TSI                            SAT 08/09/97 11:58 Page:129
  ****  Section 005 LblCom TEMP_LEX_SYMBOL

  ****  Scalars and arrays  ****
OctLoc.c.b A Datatyp(siz) R M Lvl/name                 OctLoc.c.b A Datatyp(siz) R M Lvl/name

     0-0-0/w STRC(3240)        1 TEMP_LEX_SYMBOL

  ****  Section 006 LblCom TEMP_LEX_SYMBOL2

  ****  Scalars and arrays  ****
OctLoc.c.b A Datatyp(siz) R M Lvl/name                 OctLoc.c.b A Datatyp(siz) R M Lvl/name

     0-0-0/w STRC(3240)        1 TEMP_LEX_SYMBOL2

  ****  Section 007 LblCom ETT$

  ****  Scalars and arrays  ****
OctLoc.c.b A Datatyp(siz) R M Lvl/name                 OctLoc.c.b A Datatyp(siz) R M Lvl/name

     0-0-0/w PTR         r     1 ETT$

  ****  Section 008 LblCom HEAD_ETT$

  ****  Scalars and arrays  ****
OctLoc.c.b A Datatyp(siz) R M Lvl/name                 OctLoc.c.b A Datatyp(siz) R M Lvl/name

     0-0-0/w PTR               1 HEAD_ETT$

  ****  Section 009 LblCom ETT_BUCKETS

  ****  Scalars and arrays  ****
OctLoc.c.b A Datatyp(siz) R M Lvl/name                 OctLoc.c.b A Datatyp(siz) R M Lvl/name

     0-0-0/w PTR               1 ETT_BUCKETS(0:511)

  ****  Section 010 LblCom ETT_

PL6.E3A0      #006=Z8EH$CHECK_ARGS File=Z8EH.:Z8A6TSI                            SAT 08/09/97 11:58 Page:130
  ****  Scalars and arrays  ****
OctLoc.c.b A Datatyp(siz) R M Lvl/name                 OctLoc.c.b A Datatyp(siz) R M Lvl/name

     0-0-0/w STRC(180)         1 ETT_

  ****  Section 011 LblCom QLT$

  ****  Scalars and arrays  ****
OctLoc.c.b A Datatyp(siz) R M Lvl/name                 OctLoc.c.b A Datatyp(siz) R M Lvl/name

     0-0-0/w PTR         r     1 QLT$

  ****  Section 012 LblCom PREV_01_QLT$

  ****  Scalars and arrays  ****
OctLoc.c.b A Datatyp(siz) R M Lvl/name                 OctLoc.c.b A Datatyp(siz) R M Lvl/name

     0-0-0/w PTR               1 PREV_01_QLT$

  ****  Section 013 LblCom QLT_

  ****  Scalars and arrays  ****
OctLoc.c.b A Datatyp(siz) R M Lvl/name                 OctLoc.c.b A Datatyp(siz) R M Lvl/name

     0-0-0/w STRC(180)         1 QLT_

  ****  Auto variables  ****

  ****  Scalars and arrays  ****
OctLoc.c.b A Datatyp(siz) R M Lvl/name                 OctLoc.c.b A Datatyp(siz) R M Lvl/name

     3-0-0/w PTR         r     1 @LIST$                    11-0-0/w PTR         r     1 INDEX_GUY$
     4-0-0/w PTR         r     1 L$                        *0-0-0/w PTR         r     1 LIST$
     7-0-0/w SBIN        r     1 SAVE_COLUMN                6-0-0/w SBIN        r     1 SAVE_LINE
     5-0-0/w PTR         r     1 SAVE_LINK$                10-0-0/w PTR         r     1 TEMP_ST$

  ****  BASED and DCB variables  ****
PL6.E3A0      #006=Z8EH$CHECK_ARGS File=Z8EH.:Z8A6TSI                            SAT 08/09/97 11:58 Page:131

  ****  Scalars and arrays  ****
OctLoc.c.b A Datatyp(siz) R M Lvl/name                 OctLoc.c.b A Datatyp(siz) R M Lvl/name

     0-0-0/w STRC(288)         1 ADD_STMT                   0-0-0/w STRC(396)         1 ALPHABET
     0-0-0/w STRC(396)         1 ARRAY                      0-0-0/w ASTR(324)   r     1 BASED_LEX_SYMBOL
     0-0-0/w STRC(360)         1 BASED_LEX_SYMBOL_WORDS
     0-0-0/w STRC(288)         1 BINARY_OP                  0-0-0/w STRC(396)         1 BLOCK
     0-0-0/w STRC(288)         1 CALL_STMT                  0-0-0/w STRC(396)         1 CD
     0-0-0/w CHAR(4096)        1 CHARS                      0-0-0/w STRC(396)         1 CLASS
     0-0-0/w STRC(288)         1 COMPUTE_STMT               0-0-0/w STRC(396)         1 CONDITION
     0-0-0/w STRC(396)         1 CONST                      0-0-0/w STRC(72)          1 CONT
     0-0-0/w STRC(396)         1 DB                         0-0-0/w STRC(396)         1 DCB_
     0-0-0/w STRC(288)         1 DEFERED_IDENTIFIER         0-0-0/w STRC(252)         1 DEFERED_ID_TREE
     0-0-0/w STRC(288)         1 DEFERED_QUAL_ID            0-0-0/w STRC(288)         1 DEFERED_SUM_CLAUSE
     0-0-0/w STRC(288)         1 DEFERED_SUM_CLAUSE_LIST
     0-0-0/w STRC(288)         1 DELETE_STMT                0-0-0/w STRC(288)         1 DIVIDE_STMT
     0-0-0/w STRC(396)         1 DML_ITEM                   0-0-0/w STRC(180)   r     1 ETT
     0-0-0/w STRC(396)         1 FD                         0-0-0/w STRC(288)         1 ILS_LIST
     0-0-0/w STRC(288)         1 INSPECT_1_STMT             0-0-0/w STRC(288)         1 INSPECT_2_STMT
     0-0-0/w STRC(288)         1 INSPECT_4_STMT             0-0-0/w STRC(396)         1 INTDEF
     0-0-0/w STRC(396)         1 LABEL                      0-0-0/w STRC(288)         1 LA_ITEM
     0-0-0/w STRC(504)         1 LX_CD_INPUT                0-0-0/w STRC(324)         1 LX_CD_I_O
     0-0-0/w STRC(396)         1 LX_CD_OUTPUT               0-0-0/w STRC(288)   r     1 LX_ETT_ITEM
     0-0-0/w STRC(288)   r     1 LX_ITEM                    0-0-0/w STRC(288)         1 LX_LARGE
     0-0-0/w STRC(288)   r     1 LX_LIST                    0-0-0/w STRC(1224)        1 LX_REC_DECL
     0-0-0/w STRC(864)         1 LX_REPORT_REC              0-0-0/w STRC(288)         1 LX_TERMINAL
     0-0-0/w STRC(396)         1 MNEMONIC                   0-0-0/w STRC(288)         1 MULTIPLY_STMT
     0-0-0/w STRC(36864)       1 PAGE                       0-0-0/w STRC(396)         1 PARA
     0-0-0/w STRC(396)         1 PROC_                      0-0-0/w STRC(396)         1 PROC_DEF
     0-0-0/w STRC(216)   r     1 QLT                        0-0-0/w STRC(396)         1 RD
     0-0-0/w STRC(288)         1 READ_STMT                  0-0-0/w STRC(288)         1 REWRITE_STMT
     0-0-0/w STRC(396)   r     1 SCALAR                     0-0-0/w STRC(396)         1 SD
     0-0-0/w STRC(396)         1 SECTION                    0-0-0/w STRC(396)         1 SEGMENT
     0-0-0/w STRC(396)   r     1 ST                         0-0-0/w STRC(288)         1 START_STMT
     0-0-0/w STRC(252)         1 STRING_STMT                0-0-0/w STRC(288)         1 SUBTRACT_STMT
     0-0-0/w STRC(396)         1 SWITCH                     0-0-0/w STRC(396)         1 SYMBOLIC_CHAR
PL6.E3A0      #006=Z8EH$CHECK_ARGS File=Z8EH.:Z8A6TSI                            SAT 08/09/97 11:58 Page:132
     0-0-0/w STRC(396)         1 SYMDEF_                    0-0-0/w STRC(396)         1 SYMREF_
     0-0-0/w STRC(396)         1 TEMP                       0-0-0/w STRC(288)         1 UNARY_OP
     0-0-0/w STRC(288)         1 UNSTRING_STMT              0-0-0/w STRC(396)         1 VARIABLE
     0-0-0/w STRC(288)         1 WRITE_STMT


   Procedure Z8EH$CHECK_ARGS requires 200 words for executable code.
   Procedure Z8EH$CHECK_ARGS requires 16 words of local(AUTO) storage.

PL6.E3A0      #007=Z8EH$CHECK_LABEL File=Z8EH.:Z8A6TSI                           SAT 08/09/97 12:00 Page:133
      659        1        /*T***********************************************************/
      660        2        /*T*                                                         */
      661        3        /*T* Copyright (c) Bull HN Information Systems Inc., 1997    */
      662        4        /*T*                                                         */
      663        5        /*T***********************************************************/
      664        6        /******************/
      665        7          Z8EH$CHECK_LABEL : PROC ( LABEL_TYPE,
      666        8        /******************/        LABEL_CHECK,
      667        9                                    LABEL_ERROR,
      668       10                                    LABEL$ );
      669       11
      670       12        /*I*
      671       13                 NAME: CHECK_LABEL
      672       14
      673       15          DESCRIPTION: A label (section or paragraph) is checked to ensure
      674       16                       that it has not been used as a variable.  An error
      675       17                       message is issued if the multiple use is detected.
      676       18        */
      677       19
      678       20
      679       21    1    DCL LABEL_TYPE SBIN WORD;               /* %PARA or %SECTION                  */
      680       22    1    DCL LABEL_CHECK SBIN WORD;              /* %PARA or %SECTION                  */
      681       23    1    DCL LABEL_ERROR SBIN WORD;              /* error number                       */
      682       24    1    DCL LABEL$      PTR;                    /* to LX_TERMINAL                     */
      683       25
      684       26    1    DCL LABEL_ST$ PTR;
      685       27
      686       28        /* Check a section or paragraph for illegal use as a data name.
      687       29        */
      688       30         %EQU PHASE = 1;
      689       31         %INCLUDE Z8A_DEFC;
      690       99         %INCLUDE Z8A_SUPP_MAC;
      691     2499         %INCLUDE Z8A_ST;
      692     6158         %INCLUDE Z8A_ERR_NUMS;
      693     6922         %INCLUDE Z8E_STACKS;
      694     9188         %INCLUDE Z8E_O1COM;
      695     9949         %INCLUDE Z8A_DNT;
PL6.E3A0      #007=Z8EH$CHECK_LABEL File=Z8EH.:Z8A6TSI                           SAT 08/09/97 12:00 Page:134
      696    10170         %INCLUDE Z8E_MACROS;
      697    10845
      698    10846    1    DCL Z8AE$ERROR                     ENTRY(12);
      699    10847
      700    10848    1    DCL LABEL_CHECK_FOUND BOOLEAN;
      701    10849    1    DCL DATA_NAME_FOUND BOOLEAN;
      702    10850
      703    10851    1           LABEL_ST$ = LABEL$ -> LX_TERMINAL.DNT$ -> DNT.ST$;
      704    10852
      705    10853    1           DATA_NAME_FOUND = FALSE;
      706    10854    1           LABEL_CHECK_FOUND = FALSE;
      707    10855
      708    10856    2           DO WHILE LABEL_ST$ ~= ADDR(NIL);
      709    10857
      710    10858
      711    10859    2              IF LABEL_ST$ -> VARIABLE.ID = LABEL_CHECK
      712    10860    2                AND LABEL_ST$ -> LABEL.PROC$ = O1COM.CURRENT_PROC$ THEN
      713    10861    2                 LABEL_CHECK_FOUND = TRUE;
      714    10862
      715    10863    2              IF LABEL_ST$ -> VARIABLE.PROC$ = O1COM.CURRENT_PROC$ THEN
      716    10864    3                DO CASE (LABEL_ST$ -> ST.ID);
      717    10865    3                  CASE (%ALPHABET, %ARRAY, %CLASS, %CONDITION, %DML_KEY, %DML_SET,
      718    10866    3                        %FD, %MNEMONIC, %RD, %REALM, %SCALAR, %SD, %SWITCH);
      719    10867    3                    DATA_NAME_FOUND = TRUE;
      720    10868    3                END;
      721    10869
      722    10870    2              LABEL_ST$ = LABEL_ST$ -> VARIABLE.NEXT;
      723    10871
      724    10872    2              END;
      725    10873
      726    10874    1           IF LABEL_CHECK_FOUND THEN
      727    10875                   %CONDITIONAL_ERROR (@LX_ITEM$ = LABEL$,
      728    10876                     @ERROR# = %E$SECTION_PARA_USAGE,
      729    10877                     @LINE = LABEL$ -> LX_TERMINAL.LINE,
      730    10878                     @COLUMN = LABEL$ -> LX_TERMINAL.COLUMN,
      731    10879                     @PLUG1 = LABEL$ -> LX_TERMINAL.DNT$);
      732    10909
PL6.E3A0      #007=Z8EH$CHECK_LABEL File=Z8EH.:Z8A6TSI                           SAT 08/09/97 12:00 Page:135
      733    10910    1           IF DATA_NAME_FOUND THEN
      734    10911                   %CONDITIONAL_ERROR (@LX_ITEM$ = LABEL$,
      735    10912                     @ERROR# = LABEL_ERROR,
      736    10913                     @LINE = LABEL$ -> LX_TERMINAL.LINE,
      737    10914                     @COLUMN = LABEL$ -> LX_TERMINAL.COLUMN,
      738    10915                     @PLUG1 = LABEL$ -> LX_TERMINAL.DNT$);
      739    10945
      740    10946    1   END Z8EH$CHECK_LABEL;
      741    10947        %EOD;

PL6.E3A0      #007=Z8EH$CHECK_LABEL File=Z8EH.:Z8A6TSI                           SAT 08/09/97 12:00 Page:136
--  Include file information  --

   Z8E_NEW_ILL.:Z8A6TOU  is referenced.
   Z8E_MACROS.:Z8A6TOU  cannot be made into a system file and is referenced.
   Z8A_DNT.:Z8A6TOU  cannot be made into a system file and is referenced.
   Z8E_O1COM.:Z8A6TOU  cannot be made into a system file and is referenced.
   Z8A_LEX_SYMB.:Z8A6TOU  cannot be made into a system file and is referenced.
   Z8E_STACKS.:Z8A6TOU  cannot be made into a system file and is referenced.
   Z8A_ERR_NUMS.:Z8A6TOU  is referenced.
   Z8A_ST.:Z8A6TOU  cannot be made into a system file and is referenced.
   X8A_COM_MACS.:X8A6TOU  is referenced.
   Z8A_NAMES.:Z8A6TOU  is referenced.
   Z8A_SUPP_MAC.:Z8A6TOU  is referenced.
   Z8A_DEFC.:Z8A6TOU  cannot be made into a system file and is referenced.
      No diagnostics issued in procedure Z8EH$CHECK_LABEL.

   Procedure Z8EH$CHECK_LABEL requires 115 words for executable code.
   Procedure Z8EH$CHECK_LABEL requires 14 words of local(AUTO) storage.

PL6.E3A0      #007=Z8EH$CHECK_LABEL File=Z8EH.:Z8A6TSI                           SAT 08/09/97 12:00 Page:137

 Object Unit name= Z8EH$CHECK_LABEL                           File name= Z8EH.:Z8A6TOU
 UTS= AUG 09 '97 12:00:09.80 SAT                              Compiler= PL-6/E31         Sev=      00
 SharedLib= :SHARED_SYSTEM                                    Alt SharedLib=


    ****  Control sections  ****

 Sect   Type Bound  Init  Size OctSiz  Section name(segment info)
    0  LblCom even  none     1      1  ITERATION
    1  LblCom even  none     1      1  ST$
    2  LblCom even  none     5      5  ST_
    3  LblCom even  none    90    132  LEX_SYMBOL
    4  LblCom even  none     1      1  CURRENT_LEX_SYMBOL$
    5  LblCom even  none    90    132  TEMP_LEX_SYMBOL
    6  LblCom even  none    90    132  TEMP_LEX_SYMBOL2
    7  LblCom even  none     1      1  DNT$
    8  LblCom even  none     5      5  DNT_
    9  LblCom even  none     1      1  DNT_BUCKET_NUMBER
   10  LblCom even  none     1      1  DNT_OF_1$
   11   Proc  even  none   115    163  Z8EH$CHECK_LABEL
   12  RoData even  none     4      4  Z8EH$CHECK_LABEL

    ****  Entry defs  ****

                              Check   Calling
                             calling  sequence
  Sect OctLoc Primary Altret sequence   type   Parms  Name
    11      0   yes            yes      Std        4  Z8EH$CHECK_LABEL

  ****  Entry refs  ****

         Check        Calling
        calling       sequence
Altret sequence SRef   type   Args  Name
         yes           Std      12 Z8AE$ERROR
                       nStd      0 X66_AUTO_4
                       nStd      0 X66_ARET
PL6.E3A0      #007=Z8EH$CHECK_LABEL File=Z8EH.:Z8A6TSI                           SAT 08/09/97 12:00 Page:138

  ****  Data refs  ****

  Flags:  r = read only, s = secondary
Flgs Name                             Flgs Name                             Flgs Name
     O1COM                                 HIER_STK_PTR                          HIER_STK
     PAGE_FORMAT                           REP_STK_PTR                           REP_STK

  ****  Segment refs  ****

  Flags:  r = read only, s = secondary
Flgs Name                             Flgs Name                             Flgs Name
     NULLSID                               ISSID
PL6.E3A0      #007=Z8EH$CHECK_LABEL File=Z8EH.:Z8A6TSI                           SAT 08/09/97 12:00 Page:139


      659        1        /*T***********************************************************/
      660        2        /*T*                                                         */
      661        3        /*T* Copyright (c) Bull HN Information Systems Inc., 1997    */
      662        4        /*T*                                                         */
      663        5        /*T***********************************************************/
      664        6        /******************/
      665        7          Z8EH$CHECK_LABEL : PROC ( LABEL_TYPE,

      7 11 000000   000000 700200 xent  Z8EH$CHECK_* TSX0  ! X66_AUTO_4
        11 000001   000016 000004                    ZERO    14,4

      666        8        /******************/        LABEL_CHECK,
      667        9                                    LABEL_ERROR,
      668       10                                    LABEL$ );
      669       11
      670       12        /*I*
      671       13                 NAME: CHECK_LABEL
      672       14
      673       15          DESCRIPTION: A label (section or paragraph) is checked to ensure
      674       16                       that it has not been used as a variable.  An error
      675       17                       message is issued if the multiple use is detected.
      676       18        */
      677       19
      678       20
      679       21    1    DCL LABEL_TYPE SBIN WORD;               /* %PARA or %SECTION                  */
      680       22    1    DCL LABEL_CHECK SBIN WORD;              /* %PARA or %SECTION                  */
      681       23    1    DCL LABEL_ERROR SBIN WORD;              /* error number                       */
      682       24    1    DCL LABEL$      PTR;                    /* to LX_TERMINAL                     */
      683       25
      684       26    1    DCL LABEL_ST$ PTR;
      685       27
      686       28        /* Check a section or paragraph for illegal use as a data name.
      687       29        */
      688       30         %EQU PHASE = 1;
      689       31         %INCLUDE Z8A_DEFC;
      690       99         %INCLUDE Z8A_SUPP_MAC;
PL6.E3A0      #007=Z8EH$CHECK_LABEL File=Z8EH.:Z8A6TSI                           SAT 08/09/97 12:00 Page:140
      691     2499         %INCLUDE Z8A_ST;
      692     6158         %INCLUDE Z8A_ERR_NUMS;
      693     6922         %INCLUDE Z8E_STACKS;
      694     9188         %INCLUDE Z8E_O1COM;
      695     9949         %INCLUDE Z8A_DNT;
      696    10170         %INCLUDE Z8E_MACROS;
      697    10845
      698    10846    1    DCL Z8AE$ERROR                     ENTRY(12);
      699    10847
      700    10848    1    DCL LABEL_CHECK_FOUND BOOLEAN;
      701    10849    1    DCL DATA_NAME_FOUND BOOLEAN;
      702    10850
      703    10851    1           LABEL_ST$ = LABEL$ -> LX_TERMINAL.DNT$ -> DNT.ST$;

  10851 11 000002   200006 470500                    LDP0    @LABEL$,,AUTO
        11 000003   000000 471500                    LDP1    0,,PR0
        11 000004   100002 473500                    LDP3    2,,PR1
        11 000005   300001 236100                    LDQ     1,,PR3
        11 000006   200007 756100                    STQ     LABEL_ST$,,AUTO

      704    10852
      705    10853    1           DATA_NAME_FOUND = FALSE;

  10853 11 000007   200011 450100                    STZ     DATA_NAME_FOUND,,AUTO

      706    10854    1           LABEL_CHECK_FOUND = FALSE;

  10854 11 000010   200010 450100                    STZ     LABEL_CHECK_FOUND,,AUTO

      707    10855
      708    10856    2           DO WHILE LABEL_ST$ ~= ADDR(NIL);

  10856 11 000011   000076 710000 11                 TRA     s:10872

      709    10857
      710    10858
      711    10859    2              IF LABEL_ST$ -> VARIABLE.ID = LABEL_CHECK
PL6.E3A0      #007=Z8EH$CHECK_LABEL File=Z8EH.:Z8A6TSI                           SAT 08/09/97 12:00 Page:141

  10859 11 000012   200004 470500                    LDP0    @LABEL_CHECK,,AUTO
        11 000013   200007 471500                    LDP1    LABEL_ST$,,AUTO
        11 000014   100000 236100                    LDQ     0,,PR1
        11 000015   000022 772000                    QRL     18
        11 000016   000000 116100                    CMPQ    0,,PR0
        11 000017   000025 601000 11                 TNZ     s:10863
        11 000020   100011 236100                    LDQ     9,,PR1
        11 000021   000057 116000 xsym               CMPQ    O1COM+47
        11 000022   000025 601000 11                 TNZ     s:10863

      712    10860    2                AND LABEL_ST$ -> LABEL.PROC$ = O1COM.CURRENT_PROC$ THEN
      713    10861    2                 LABEL_CHECK_FOUND = TRUE;

  10861 11 000023   400000 236003                    LDQ     -131072,DU
        11 000024   200010 756100                    STQ     LABEL_CHECK_FOUND,,AUTO

      714    10862
      715    10863    2              IF LABEL_ST$ -> VARIABLE.PROC$ = O1COM.CURRENT_PROC$ THEN

  10863 11 000025   100011 236100                    LDQ     9,,PR1
        11 000026   000057 116000 xsym               CMPQ    O1COM+47
        11 000027   000074 601000 11                 TNZ     s:10870

      716    10864    3                DO CASE (LABEL_ST$ -> ST.ID);

  10864 11 000030   100000 236100                    LDQ     0,,PR1
        11 000031   000022 772000                    QRL     18
        11 000032   000752 136007                    SBLQ    490,DL
        11 000033   000034 116007                    CMPQ    28,DL
        11 000034   000036 602006 11                 TNC     s:10864+6,QL
        11 000035   000074 710000 11                 TRA     s:10870
        11 000036   000072 710000 11                 TRA     s:10867
        11 000037   000072 710000 11                 TRA     s:10867
        11 000040   000072 710000 11                 TRA     s:10867
        11 000041   000074 710000 11                 TRA     s:10870
        11 000042   000074 710000 11                 TRA     s:10870
PL6.E3A0      #007=Z8EH$CHECK_LABEL File=Z8EH.:Z8A6TSI                           SAT 08/09/97 12:00 Page:142
        11 000043   000072 710000 11                 TRA     s:10867
        11 000044   000074 710000 11                 TRA     s:10870
        11 000045   000072 710000 11                 TRA     s:10867
        11 000046   000072 710000 11                 TRA     s:10867
        11 000047   000072 710000 11                 TRA     s:10867
        11 000050   000072 710000 11                 TRA     s:10867
        11 000051   000072 710000 11                 TRA     s:10867
        11 000052   000072 710000 11                 TRA     s:10867
        11 000053   000074 710000 11                 TRA     s:10870
        11 000054   000074 710000 11                 TRA     s:10870
        11 000055   000074 710000 11                 TRA     s:10870
        11 000056   000074 710000 11                 TRA     s:10870
        11 000057   000074 710000 11                 TRA     s:10870
        11 000060   000074 710000 11                 TRA     s:10870
        11 000061   000074 710000 11                 TRA     s:10870
        11 000062   000074 710000 11                 TRA     s:10870
        11 000063   000074 710000 11                 TRA     s:10870
        11 000064   000074 710000 11                 TRA     s:10870
        11 000065   000074 710000 11                 TRA     s:10870
        11 000066   000072 710000 11                 TRA     s:10867
        11 000067   000072 710000 11                 TRA     s:10867
        11 000070   000074 710000 11                 TRA     s:10870
        11 000071   000072 710000 11                 TRA     s:10867

      717    10865    3                  CASE (%ALPHABET, %ARRAY, %CLASS, %CONDITION, %DML_KEY, %DML_SET,

      718    10866    3                        %FD, %MNEMONIC, %RD, %REALM, %SCALAR, %SD, %SWITCH);
      719    10867    3                    DATA_NAME_FOUND = TRUE;

  10867 11 000072   400000 236003                    LDQ     -131072,DU
        11 000073   200011 756100                    STQ     DATA_NAME_FOUND,,AUTO

      720    10868    3                END;

      721    10869
      722    10870    2              LABEL_ST$ = LABEL_ST$ -> VARIABLE.NEXT;

PL6.E3A0      #007=Z8EH$CHECK_LABEL File=Z8EH.:Z8A6TSI                           SAT 08/09/97 12:00 Page:143
  10870 11 000074   100004 236100                    LDQ     4,,PR1
        11 000075   200007 756100                    STQ     LABEL_ST$,,AUTO

      723    10871
      724    10872    2              END;

  10872 11 000076   000000 116000 12                 CMPQ    0
        11 000077   000012 601000 11                 TNZ     s:10859

      725    10873
      726    10874    1           IF LABEL_CHECK_FOUND THEN

  10874 11 000100   200010 234100                    SZN     LABEL_CHECK_FOUND,,AUTO
        11 000101   000127 605000 11                 TPL     s:10910

      727    10875                   %CONDITIONAL_ERROR (@LX_ITEM$ = LABEL$,
      728    10876                     @ERROR# = %E$SECTION_PARA_USAGE,
      729    10877                     @LINE = LABEL$ -> LX_TERMINAL.LINE,
      730    10878                     @COLUMN = LABEL$ -> LX_TERMINAL.COLUMN,
      731    10879                     @PLUG1 = LABEL$ -> LX_TERMINAL.DNT$);

  10889 11 000102   200006 470500                    LDP0    @LABEL$,,AUTO
        11 000103   000000 471500                    LDP1    0,,PR0
        11 000104   100000 236100                    LDQ     0,,PR1
        11 000105   400000 316007                    CANQ    -131072,DL
        11 000106   000127 601000 11                 TNZ     s:10910

  10891 11 000107   100002 633500                    EPPR3   2,,PR1
        11 000110   200015 453500                    STP3    DATA_NAME_FOUND+4,,AUTO
        11 000111   100006 634500                    EPPR4   6,,PR1
        11 000112   200014 454500                    STP4    DATA_NAME_FOUND+3,,AUTO
        11 000113   100005 635500                    EPPR5   5,,PR1
        11 000114   200013 455500                    STP5    DATA_NAME_FOUND+2,,AUTO
        11 000115   000003 236000 12                 LDQ     3
        11 000116   200012 756100                    STQ     DATA_NAME_FOUND+1,,AUTO
        11 000117   200012 630500                    EPPR0   DATA_NAME_FOUND+1,,AUTO
        11 000120   000001 631400 12                 EPPR1   1
PL6.E3A0      #007=Z8EH$CHECK_LABEL File=Z8EH.:Z8A6TSI                           SAT 08/09/97 12:00 Page:144
        11 000121   000000 701000 xent               TSX1    Z8AE$ERROR
        11 000122   000000 011000                    NOP     0

  10900 11 000123   200006 470500                    LDP0    @LABEL$,,AUTO
        11 000124   000000 471500                    LDP1    0,,PR0
        11 000125   400000 236007                    LDQ     -131072,DL
        11 000126   100000 256100                    ORSQ    0,,PR1

      732    10909
      733    10910    1           IF DATA_NAME_FOUND THEN

  10910 11 000127   200011 234100                    SZN     DATA_NAME_FOUND,,AUTO
        11 000130   000162 605000 11                 TPL     s:10946

      734    10911                   %CONDITIONAL_ERROR (@LX_ITEM$ = LABEL$,
      735    10912                     @ERROR# = LABEL_ERROR,
      736    10913                     @LINE = LABEL$ -> LX_TERMINAL.LINE,
      737    10914                     @COLUMN = LABEL$ -> LX_TERMINAL.COLUMN,
      738    10915                     @PLUG1 = LABEL$ -> LX_TERMINAL.DNT$);

  10925 11 000131   200006 470500                    LDP0    @LABEL$,,AUTO
        11 000132   000000 471500                    LDP1    0,,PR0
        11 000133   100000 236100                    LDQ     0,,PR1
        11 000134   400000 316007                    CANQ    -131072,DL
        11 000135   000162 601000 11                 TNZ     s:10946

  10927 11 000136   100002 633500                    EPPR3   2,,PR1
        11 000137   200015 453500                    STP3    DATA_NAME_FOUND+4,,AUTO
        11 000140   100006 634500                    EPPR4   6,,PR1
        11 000141   200014 454500                    STP4    DATA_NAME_FOUND+3,,AUTO
        11 000142   100005 635500                    EPPR5   5,,PR1
        11 000143   200013 455500                    STP5    DATA_NAME_FOUND+2,,AUTO
        11 000144   200005 236100                    LDQ     @LABEL_ERROR,,AUTO
        11 000145   200012 756100                    STQ     DATA_NAME_FOUND+1,,AUTO
        11 000146   200012 630500                    EPPR0   DATA_NAME_FOUND+1,,AUTO
        11 000147   000001 631400 12                 EPPR1   1
        11 000150   000000 701000 xent               TSX1    Z8AE$ERROR
PL6.E3A0      #007=Z8EH$CHECK_LABEL File=Z8EH.:Z8A6TSI                           SAT 08/09/97 12:00 Page:145
        11 000151   000000 011000                    NOP     0

  10939 11 000152   200005 470500                    LDP0    @LABEL_ERROR,,AUTO
        11 000153   000000 235100                    LDA     0,,PR0
        11 000154   000310 115007                    CMPA    200,DL
        11 000155   000162 604000 11                 TMI     s:10946

  10940 11 000156   200006 471500                    LDP1    @LABEL$,,AUTO
        11 000157   100000 473500                    LDP3    0,,PR1
        11 000160   400000 236007                    LDQ     -131072,DL
        11 000161   300000 256100                    ORSQ    0,,PR3

      739    10945
      740    10946    1   END Z8EH$CHECK_LABEL;

  10946 11 000162   000000 702200 xent               TSX2  ! X66_ARET
      741    10947        %EOD;

PL6.E3A0      #007=Z8EH$CHECK_LABEL File=Z8EH.:Z8A6TSI                           SAT 08/09/97 12:00 Page:146
--  Include file information  --

   Z8E_NEW_ILL.:Z8A6TOU  is referenced.
   Z8E_MACROS.:Z8A6TOU  cannot be made into a system file and is referenced.
   Z8A_DNT.:Z8A6TOU  cannot be made into a system file and is referenced.
   Z8E_O1COM.:Z8A6TOU  cannot be made into a system file and is referenced.
   Z8A_LEX_SYMB.:Z8A6TOU  cannot be made into a system file and is referenced.
   Z8E_STACKS.:Z8A6TOU  cannot be made into a system file and is referenced.
   Z8A_ERR_NUMS.:Z8A6TOU  is referenced.
   Z8A_ST.:Z8A6TOU  cannot be made into a system file and is referenced.
   X8A_COM_MACS.:X8A6TOU  is referenced.
   Z8A_NAMES.:Z8A6TOU  is referenced.
   Z8A_SUPP_MAC.:Z8A6TOU  is referenced.
   Z8A_DEFC.:Z8A6TOU  cannot be made into a system file and is referenced.
      No diagnostics issued in procedure Z8EH$CHECK_LABEL.
PL6.E3A0      #007=Z8EH$CHECK_LABEL File=Z8EH.:Z8A6TSI                           SAT 08/09/97 12:00 Page:147

 **** Variables and constants ****

  ****  Section 000 LblCom ITERATION

  ****  Scalars and arrays  ****
OctLoc.c.b A Datatyp(siz) R M Lvl/name                 OctLoc.c.b A Datatyp(siz) R M Lvl/name

     0-0-0/w SBIN              1 ITERATION

  ****  Section 001 LblCom ST$

  ****  Scalars and arrays  ****
OctLoc.c.b A Datatyp(siz) R M Lvl/name                 OctLoc.c.b A Datatyp(siz) R M Lvl/name

     0-0-0/w PTR         r     1 ST$

  ****  Section 002 LblCom ST_

  ****  Scalars and arrays  ****
OctLoc.c.b A Datatyp(siz) R M Lvl/name                 OctLoc.c.b A Datatyp(siz) R M Lvl/name

     0-0-0/w STRC(180)         1 ST_

  ****  Section 003 LblCom LEX_SYMBOL

  ****  Scalars and arrays  ****
OctLoc.c.b A Datatyp(siz) R M Lvl/name                 OctLoc.c.b A Datatyp(siz) R M Lvl/name

     0-0-0/w STRC(3240)  r     1 LEX_SYMBOL                 0-0-0/w STRC(3240)        1 LEX_SYMBOL_WORDS

  ****  Section 004 LblCom CURRENT_LEX_SYMBOL$

  ****  Scalars and arrays  ****
OctLoc.c.b A Datatyp(siz) R M Lvl/name                 OctLoc.c.b A Datatyp(siz) R M Lvl/name

     0-0-0/w PTR         r     1 CURRENT_LEX_SYMBOL$

PL6.E3A0      #007=Z8EH$CHECK_LABEL File=Z8EH.:Z8A6TSI                           SAT 08/09/97 12:00 Page:148
  ****  Section 005 LblCom TEMP_LEX_SYMBOL

  ****  Scalars and arrays  ****
OctLoc.c.b A Datatyp(siz) R M Lvl/name                 OctLoc.c.b A Datatyp(siz) R M Lvl/name

     0-0-0/w STRC(3240)        1 TEMP_LEX_SYMBOL

  ****  Section 006 LblCom TEMP_LEX_SYMBOL2

  ****  Scalars and arrays  ****
OctLoc.c.b A Datatyp(siz) R M Lvl/name                 OctLoc.c.b A Datatyp(siz) R M Lvl/name

     0-0-0/w STRC(3240)        1 TEMP_LEX_SYMBOL2

  ****  Section 007 LblCom DNT$

  ****  Scalars and arrays  ****
OctLoc.c.b A Datatyp(siz) R M Lvl/name                 OctLoc.c.b A Datatyp(siz) R M Lvl/name

     0-0-0/w PTR         r     1 DNT$

  ****  Section 008 LblCom DNT_

  ****  Scalars and arrays  ****
OctLoc.c.b A Datatyp(siz) R M Lvl/name                 OctLoc.c.b A Datatyp(siz) R M Lvl/name

     0-0-0/w STRC(180)         1 DNT_

  ****  Section 009 LblCom DNT_BUCKET_NUMBER

  ****  Scalars and arrays  ****
OctLoc.c.b A Datatyp(siz) R M Lvl/name                 OctLoc.c.b A Datatyp(siz) R M Lvl/name

     0-0-0/w UBIN              1 DNT_BUCKET_NUMBER

  ****  Section 010 LblCom DNT_OF_1$

PL6.E3A0      #007=Z8EH$CHECK_LABEL File=Z8EH.:Z8A6TSI                           SAT 08/09/97 12:00 Page:149
  ****  Scalars and arrays  ****
OctLoc.c.b A Datatyp(siz) R M Lvl/name                 OctLoc.c.b A Datatyp(siz) R M Lvl/name

     0-0-0/w PTR               1 DNT_OF_1$

  ****  Auto variables  ****

  ****  Scalars and arrays  ****
OctLoc.c.b A Datatyp(siz) R M Lvl/name                 OctLoc.c.b A Datatyp(siz) R M Lvl/name

     6-0-0/w PTR         r     1 @LABEL$                    4-0-0/w PTR         r     1 @LABEL_CHECK
     5-0-0/w PTR         r     1 @LABEL_ERROR               3-0-0/w PTR         r     1 @LABEL_TYPE
    11-0-0/b BIT         r     1 DATA_NAME_FOUND           *0-0-0/w PTR         r     1 LABEL$
    *0-0-0/w SBIN        r     1 LABEL_CHECK               10-0-0/b BIT         r     1 LABEL_CHECK_FOUND
    *0-0-0/w SBIN        r     1 LABEL_ERROR                7-0-0/w PTR         r     1 LABEL_ST$
    *0-0-0/w SBIN        r     1 LABEL_TYPE

  ****  SYMREF variables  ****

  ****  Scalars and arrays  ****
OctLoc.c.b A Datatyp(siz) R M Lvl/name                 OctLoc.c.b A Datatyp(siz) R M Lvl/name

     0-0-0/w STRC(180)         1 HIER_STK(0:50)
     0-0-0/w SBIN              1 HIER_STK_PTR               0-0-0/d STRC(11580) r     1 O1COM
     0-0-0/w STRC(144)         1 PAGE_FORMAT                0-0-0/w STRC(153)         1 REP_STK(0:50)
     0-0-0/w SBIN              1 REP_STK_PTR

  ****  BASED and DCB variables  ****

  ****  Scalars and arrays  ****
OctLoc.c.b A Datatyp(siz) R M Lvl/name                 OctLoc.c.b A Datatyp(siz) R M Lvl/name

     0-0-0/w STRC(288)         1 ADD_STMT                   0-0-0/w STRC(396)         1 ALPHABET
     0-0-0/w STRC(396)         1 ARRAY                      0-0-0/w ASTR(324)   r     1 BASED_LEX_SYMBOL
     0-0-0/w STRC(360)         1 BASED_LEX_SYMBOL_WORDS
     0-0-0/w STRC(288)         1 BINARY_OP                  0-0-0/w STRC(396)         1 BLOCK
     0-0-0/w STRC(288)         1 CALL_STMT                  0-0-0/w STRC(396)         1 CD
PL6.E3A0      #007=Z8EH$CHECK_LABEL File=Z8EH.:Z8A6TSI                           SAT 08/09/97 12:00 Page:150
     0-0-0/w CHAR(4096)        1 CHARS                      0-0-0/w STRC(396)         1 CLASS
     0-0-0/w STRC(288)         1 COMPUTE_STMT               0-0-0/w STRC(396)         1 CONDITION
     0-0-0/w STRC(396)         1 CONST                      0-0-0/w STRC(72)          1 CONT
     0-0-0/w STRC(396)         1 DB                         0-0-0/w STRC(396)         1 DCB_
     0-0-0/w STRC(288)         1 DEFERED_IDENTIFIER         0-0-0/w STRC(252)         1 DEFERED_ID_TREE
     0-0-0/w STRC(288)         1 DEFERED_QUAL_ID            0-0-0/w STRC(288)         1 DEFERED_SUM_CLAUSE
     0-0-0/w STRC(288)         1 DEFERED_SUM_CLAUSE_LIST
     0-0-0/w STRC(288)         1 DELETE_STMT                0-0-0/w STRC(288)         1 DIVIDE_STMT
     0-0-0/w STRC(396)         1 DML_ITEM                   0-0-0/w ASTR(180)   r     1 DNT
     0-0-0/w STRC(396)         1 FD                         0-0-0/w STRC(288)         1 ILS_LIST
     0-0-0/w STRC(288)         1 INSPECT_1_STMT             0-0-0/w STRC(288)         1 INSPECT_2_STMT
     0-0-0/w STRC(288)         1 INSPECT_4_STMT             0-0-0/w STRC(396)         1 INTDEF
     0-0-0/w STRC(396)   r     1 LABEL                      0-0-0/w STRC(288)         1 LA_ITEM
     0-0-0/w STRC(504)         1 LX_CD_INPUT                0-0-0/w STRC(324)         1 LX_CD_I_O
     0-0-0/w STRC(396)         1 LX_CD_OUTPUT               0-0-0/w STRC(288)         1 LX_ETT_ITEM
     0-0-0/w STRC(288)   r     1 LX_ITEM                    0-0-0/w STRC(288)         1 LX_LARGE
     0-0-0/w STRC(288)         1 LX_LIST                    0-0-0/w STRC(1224)        1 LX_REC_DECL
     0-0-0/w STRC(864)         1 LX_REPORT_REC              0-0-0/w STRC(288)   r     1 LX_TERMINAL
     0-0-0/w STRC(396)         1 MNEMONIC                   0-0-0/w STRC(288)         1 MULTIPLY_STMT
     0-0-0/w STRC(36864)       1 PAGE                       0-0-0/w STRC(396)         1 PARA
     0-0-0/w STRC(396)         1 PROC_                      0-0-0/w STRC(396)         1 PROC_DEF
     0-0-0/w STRC(396)         1 RD                         0-0-0/w STRC(288)         1 READ_STMT
     0-0-0/w STRC(288)         1 REWRITE_STMT               0-0-0/w STRC(396)         1 SCALAR
     0-0-0/w STRC(396)         1 SD                         0-0-0/w STRC(396)         1 SECTION
     0-0-0/w STRC(396)         1 SEGMENT                    0-0-0/w STRC(396)   r     1 ST
     0-0-0/w STRC(288)         1 START_STMT                 0-0-0/w STRC(252)         1 STRING_STMT
     0-0-0/w STRC(288)         1 SUBTRACT_STMT              0-0-0/w STRC(396)         1 SWITCH
     0-0-0/w STRC(396)         1 SYMBOLIC_CHAR              0-0-0/w STRC(396)         1 SYMDEF_
     0-0-0/w STRC(396)         1 SYMREF_                    0-0-0/w STRC(396)         1 TEMP
     0-0-0/w STRC(288)         1 UNARY_OP                   0-0-0/w STRC(288)         1 UNSTRING_STMT
     0-0-0/w STRC(396)   r     1 VARIABLE                   0-0-0/w STRC(288)         1 WRITE_STMT


   Procedure Z8EH$CHECK_LABEL requires 115 words for executable code.
   Procedure Z8EH$CHECK_LABEL requires 14 words of local(AUTO) storage.

PL6.E3A0      #008=Z8EH$CHECK_NOMINAL_KEY File=Z8EH.:Z8A6TSI                     SAT 08/09/97 12:01 Page:151
      742        1        /*T***********************************************************/
      743        2        /*T*                                                         */
      744        3        /*T* Copyright (c) Bull HN Information Systems Inc., 1997    */
      745        4        /*T*                                                         */
      746        5        /*T***********************************************************/
      747        6        /************************/
      748        7          Z8EH$CHECK_NOMINAL_KEY : PROC( FILE_LTS$ );
      749        8        /************************/
      750        9
      751       10    1    DCL FILE_LTS$ PTR;
      752       11
      753       12         %EQU PHASE = 1;
      754       13         %INCLUDE Z8A_DEFC;
      755       81         %INCLUDE Z8A_SUPP_MAC;
      756     2481         %INCLUDE Z8A_LTS;
      757     4558         %INCLUDE Z8E_STACKS;
      758     6824
      759     6825    1    DCL Z8EU$CREATE_IDENTIFIER_FROM_ST ENTRY(4);
      760     6826    1    DCL Z8E7$MOVE                      ENTRY(2);
      761     6827
      762     6828          %DCL_AUTO_LX_ITEM (@NAME = RECORD_KEY);
      763     6832          %DCL_AUTO_LX_ITEM (@NAME = NOMINAL_KEY);
      764     6836
      765     6837                                      /* Move Nominal key to record key if present    */
      766     6838
      767     6839    1           IF FILE_LTS$ -> FILE_LTS.NOMINAL_KEY$ ~= ADDR(NIL) THEN
      768     6840    2           DO;
      769     6841    2              CALL Z8EU$CREATE_IDENTIFIER_FROM_ST
      770     6842    2                (FILE_LTS$ -> FILE_LTS.NOMINAL_KEY$,
      771     6843    2                ADDR(NOMINAL_KEY));
      772     6844
      773     6845    2              CALL Z8EU$CREATE_IDENTIFIER_FROM_ST
      774     6846    2                (FILE_LTS$ -> FILE_LTS.RECORD_KEY$,
      775     6847    2                ADDR(RECORD_KEY));
      776     6848
      777     6849    2              CALL Z8E7$MOVE (ADDR(RECORD_KEY),
      778     6850    2                ADDR(NOMINAL_KEY));
PL6.E3A0      #008=Z8EH$CHECK_NOMINAL_KEY File=Z8EH.:Z8A6TSI                     SAT 08/09/97 12:01 Page:152
      779     6851    2              END;
      780     6852
      781     6853    1   END Z8EH$CHECK_NOMINAL_KEY;
      782     6854        %EOD;

PL6.E3A0      #008=Z8EH$CHECK_NOMINAL_KEY File=Z8EH.:Z8A6TSI                     SAT 08/09/97 12:01 Page:153
--  Include file information  --

   Z8A_LEX_SYMB.:Z8A6TOU  cannot be made into a system file and is referenced.
   Z8E_STACKS.:Z8A6TOU  cannot be made into a system file and is referenced.
   Z8A_LTS.:Z8A6TOU  cannot be made into a system file and is referenced.
   X8A_COM_MACS.:X8A6TOU  is referenced.
   Z8A_NAMES.:Z8A6TOU  is referenced.
   Z8A_SUPP_MAC.:Z8A6TOU  is referenced.
   Z8A_DEFC.:Z8A6TOU  cannot be made into a system file and is referenced.
      No diagnostics issued in procedure Z8EH$CHECK_NOMINAL_KEY.

   Procedure Z8EH$CHECK_NOMINAL_KEY requires 42 words for executable code.
   Procedure Z8EH$CHECK_NOMINAL_KEY requires 24 words of local(AUTO) storage.

PL6.E3A0      #008=Z8EH$CHECK_NOMINAL_KEY File=Z8EH.:Z8A6TSI                     SAT 08/09/97 12:01 Page:154

 Object Unit name= Z8EH$CHECK_NOMINAL_KEY                     File name= Z8EH.:Z8A6TOU
 UTS= AUG 09 '97 12:01:41.88 SAT                              Compiler= PL-6/E31         Sev=      00
 SharedLib= :SHARED_SYSTEM                                    Alt SharedLib=


    ****  Control sections  ****

 Sect   Type Bound  Init  Size OctSiz  Section name(segment info)
    0  LblCom even  none     1      1  ITERATION
    1  LblCom even  none     1      1  LTS$
    2  LblCom even  none     5      5  LTS_
    3  LblCom even  none    90    132  LEX_SYMBOL
    4  LblCom even  none     1      1  CURRENT_LEX_SYMBOL$
    5  LblCom even  none    90    132  TEMP_LEX_SYMBOL
    6  LblCom even  none    90    132  TEMP_LEX_SYMBOL2
    7   Proc  even  none    42     52  Z8EH$CHECK_NOMINAL_KEY
    8  RoData even  none     2      2  Z8EH$CHECK_NOMINAL_KEY

    ****  Entry defs  ****

                              Check   Calling
                             calling  sequence
  Sect OctLoc Primary Altret sequence   type   Parms  Name
     7      0   yes            yes      Std        1  Z8EH$CHECK_NOMINAL_KEY

  ****  Entry refs  ****

         Check        Calling
        calling       sequence
Altret sequence SRef   type   Args  Name
         yes           Std       4 Z8EU$CREATE_IDENTIFIER_FROM_ST
         yes           Std       2 Z8E7$MOVE
                       nStd      0 X66_AUTO_1
                       nStd      0 X66_ARET
PL6.E3A0      #008=Z8EH$CHECK_NOMINAL_KEY File=Z8EH.:Z8A6TSI                     SAT 08/09/97 12:01 Page:155

  ****  Data refs  ****

  Flags:  r = read only, s = secondary
Flgs Name                             Flgs Name                             Flgs Name
r    LTS_STEP

  ****  Segment refs  ****

  Flags:  r = read only, s = secondary
Flgs Name                             Flgs Name                             Flgs Name
     NULLSID                               ISSID
PL6.E3A0      #008=Z8EH$CHECK_NOMINAL_KEY File=Z8EH.:Z8A6TSI                     SAT 08/09/97 12:01 Page:156


      742        1        /*T***********************************************************/
      743        2        /*T*                                                         */
      744        3        /*T* Copyright (c) Bull HN Information Systems Inc., 1997    */
      745        4        /*T*                                                         */
      746        5        /*T***********************************************************/
      747        6        /************************/
      748        7          Z8EH$CHECK_NOMINAL_KEY : PROC( FILE_LTS$ );

      7  7 000000   000000 700200 xent  Z8EH$CHECK_* TSX0  ! X66_AUTO_1
         7 000001   000030 000001                    ZERO    24,1

      749        8        /************************/
      750        9
      751       10    1    DCL FILE_LTS$ PTR;
      752       11
      753       12         %EQU PHASE = 1;
      754       13         %INCLUDE Z8A_DEFC;
      755       81         %INCLUDE Z8A_SUPP_MAC;
      756     2481         %INCLUDE Z8A_LTS;
      757     4558         %INCLUDE Z8E_STACKS;
      758     6824
      759     6825    1    DCL Z8EU$CREATE_IDENTIFIER_FROM_ST ENTRY(4);
      760     6826    1    DCL Z8E7$MOVE                      ENTRY(2);
      761     6827
      762     6828          %DCL_AUTO_LX_ITEM (@NAME = RECORD_KEY);
      763     6832          %DCL_AUTO_LX_ITEM (@NAME = NOMINAL_KEY);
      764     6836
      765     6837                                      /* Move Nominal key to record key if present    */
      766     6838
      767     6839    1           IF FILE_LTS$ -> FILE_LTS.NOMINAL_KEY$ ~= ADDR(NIL) THEN

   6839  7 000002   200003 470500                    LDP0    @FILE_LTS$,,AUTO
         7 000003   000000 471500                    LDP1    0,,PR0
         7 000004   100020 236100                    LDQ     16,,PR1
         7 000005   000000 116000 8                  CMPQ    0
         7 000006   000051 600000 7                  TZE     s:6853
PL6.E3A0      #008=Z8EH$CHECK_NOMINAL_KEY File=Z8EH.:Z8A6TSI                     SAT 08/09/97 12:01 Page:157

      768     6840    2           DO;

      769     6841    2              CALL Z8EU$CREATE_IDENTIFIER_FROM_ST

   6841  7 000007   200014 633500                    EPPR3   NOMINAL_KEY,,AUTO
         7 000010   200024 453500                    STP3    NOMINAL_KEY+8,,AUTO
         7 000011   200024 634500                    EPPR4   NOMINAL_KEY+8,,AUTO
         7 000012   200027 454500                    STP4    NOMINAL_KEY+11,,AUTO
         7 000013   100020 635500                    EPPR5   16,,PR1
         7 000014   200026 455500                    STP5    NOMINAL_KEY+10,,AUTO
         7 000015   200026 630500                    EPPR0   NOMINAL_KEY+10,,AUTO
         7 000016   000001 631400 8                  EPPR1   1
         7 000017   000000 701000 xent               TSX1    Z8EU$CREATE_IDENTIFIER_FROM_ST
         7 000020   000000 011000                    NOP     0

      770     6842    2                (FILE_LTS$ -> FILE_LTS.NOMINAL_KEY$,
      771     6843    2                ADDR(NOMINAL_KEY));
      772     6844
      773     6845    2              CALL Z8EU$CREATE_IDENTIFIER_FROM_ST

   6845  7 000021   200003 470500                    LDP0    @FILE_LTS$,,AUTO
         7 000022   000000 471500                    LDP1    0,,PR0
         7 000023   200004 633500                    EPPR3   RECORD_KEY,,AUTO
         7 000024   200024 453500                    STP3    NOMINAL_KEY+8,,AUTO
         7 000025   200024 634500                    EPPR4   NOMINAL_KEY+8,,AUTO
         7 000026   200027 454500                    STP4    NOMINAL_KEY+11,,AUTO
         7 000027   100015 635500                    EPPR5   13,,PR1
         7 000030   200026 455500                    STP5    NOMINAL_KEY+10,,AUTO
         7 000031   200026 630500                    EPPR0   NOMINAL_KEY+10,,AUTO
         7 000032   000001 631400 8                  EPPR1   1
         7 000033   000000 701000 xent               TSX1    Z8EU$CREATE_IDENTIFIER_FROM_ST
         7 000034   000000 011000                    NOP     0

      774     6846    2                (FILE_LTS$ -> FILE_LTS.RECORD_KEY$,
      775     6847    2                ADDR(RECORD_KEY));
      776     6848
PL6.E3A0      #008=Z8EH$CHECK_NOMINAL_KEY File=Z8EH.:Z8A6TSI                     SAT 08/09/97 12:01 Page:158
      777     6849    2              CALL Z8E7$MOVE (ADDR(RECORD_KEY),

   6849  7 000035   200004 630500                    EPPR0   RECORD_KEY,,AUTO
         7 000036   200024 450500                    STP0    NOMINAL_KEY+8,,AUTO
         7 000037   200014 631500                    EPPR1   NOMINAL_KEY,,AUTO
         7 000040   200025 451500                    STP1    NOMINAL_KEY+9,,AUTO
         7 000041   200025 633500                    EPPR3   NOMINAL_KEY+9,,AUTO
         7 000042   200027 453500                    STP3    NOMINAL_KEY+11,,AUTO
         7 000043   200024 634500                    EPPR4   NOMINAL_KEY+8,,AUTO
         7 000044   200026 454500                    STP4    NOMINAL_KEY+10,,AUTO
         7 000045   200026 630500                    EPPR0   NOMINAL_KEY+10,,AUTO
         7 000046   000001 631400 8                  EPPR1   1
         7 000047   000000 701000 xent               TSX1    Z8E7$MOVE
         7 000050   000000 011000                    NOP     0

      778     6850    2                ADDR(NOMINAL_KEY));
      779     6851    2              END;

      780     6852
      781     6853    1   END Z8EH$CHECK_NOMINAL_KEY;

   6853  7 000051   000000 702200 xent               TSX2  ! X66_ARET
      782     6854        %EOD;

PL6.E3A0      #008=Z8EH$CHECK_NOMINAL_KEY File=Z8EH.:Z8A6TSI                     SAT 08/09/97 12:01 Page:159
--  Include file information  --

   Z8A_LEX_SYMB.:Z8A6TOU  cannot be made into a system file and is referenced.
   Z8E_STACKS.:Z8A6TOU  cannot be made into a system file and is referenced.
   Z8A_LTS.:Z8A6TOU  cannot be made into a system file and is referenced.
   X8A_COM_MACS.:X8A6TOU  is referenced.
   Z8A_NAMES.:Z8A6TOU  is referenced.
   Z8A_SUPP_MAC.:Z8A6TOU  is referenced.
   Z8A_DEFC.:Z8A6TOU  cannot be made into a system file and is referenced.
      No diagnostics issued in procedure Z8EH$CHECK_NOMINAL_KEY.
PL6.E3A0      #008=Z8EH$CHECK_NOMINAL_KEY File=Z8EH.:Z8A6TSI                     SAT 08/09/97 12:01 Page:160

 **** Variables and constants ****

  ****  Section 000 LblCom ITERATION

  ****  Scalars and arrays  ****
OctLoc.c.b A Datatyp(siz) R M Lvl/name                 OctLoc.c.b A Datatyp(siz) R M Lvl/name

     0-0-0/w SBIN              1 ITERATION

  ****  Section 001 LblCom LTS$

  ****  Scalars and arrays  ****
OctLoc.c.b A Datatyp(siz) R M Lvl/name                 OctLoc.c.b A Datatyp(siz) R M Lvl/name

     0-0-0/w PTR               1 LONG_ITEM$                 0-0-0/w PTR         r     1 LTS$

  ****  Section 002 LblCom LTS_

  ****  Scalars and arrays  ****
OctLoc.c.b A Datatyp(siz) R M Lvl/name                 OctLoc.c.b A Datatyp(siz) R M Lvl/name

     0-0-0/w STRC(180)         1 LTS_

  ****  Section 003 LblCom LEX_SYMBOL

  ****  Scalars and arrays  ****
OctLoc.c.b A Datatyp(siz) R M Lvl/name                 OctLoc.c.b A Datatyp(siz) R M Lvl/name

     0-0-0/w STRC(3240)  r     1 LEX_SYMBOL                 0-0-0/w STRC(3240)        1 LEX_SYMBOL_WORDS

  ****  Section 004 LblCom CURRENT_LEX_SYMBOL$

  ****  Scalars and arrays  ****
OctLoc.c.b A Datatyp(siz) R M Lvl/name                 OctLoc.c.b A Datatyp(siz) R M Lvl/name

     0-0-0/w PTR         r     1 CURRENT_LEX_SYMBOL$

PL6.E3A0      #008=Z8EH$CHECK_NOMINAL_KEY File=Z8EH.:Z8A6TSI                     SAT 08/09/97 12:01 Page:161
  ****  Section 005 LblCom TEMP_LEX_SYMBOL

  ****  Scalars and arrays  ****
OctLoc.c.b A Datatyp(siz) R M Lvl/name                 OctLoc.c.b A Datatyp(siz) R M Lvl/name

     0-0-0/w STRC(3240)        1 TEMP_LEX_SYMBOL

  ****  Section 006 LblCom TEMP_LEX_SYMBOL2

  ****  Scalars and arrays  ****
OctLoc.c.b A Datatyp(siz) R M Lvl/name                 OctLoc.c.b A Datatyp(siz) R M Lvl/name

     0-0-0/w STRC(3240)        1 TEMP_LEX_SYMBOL2

  ****  Auto variables  ****

  ****  Scalars and arrays  ****
OctLoc.c.b A Datatyp(siz) R M Lvl/name                 OctLoc.c.b A Datatyp(siz) R M Lvl/name

     3-0-0/w PTR         r     1 @FILE_LTS$                *0-0-0/w PTR         r     1 FILE_LTS$
    14-0-0/d STRC(288)   r     1 NOMINAL_KEY                4-0-0/d STRC(288)   r     1 RECORD_KEY

  ****  SYMREF variables  ****

  ****  Scalars and arrays  ****
OctLoc.c.b A Datatyp(siz) R M Lvl/name                 OctLoc.c.b A Datatyp(siz) R M Lvl/name

     0-0-0/w UBIN              1 LTS_STEP(0:37)

  ****  BASED and DCB variables  ****

  ****  Scalars and arrays  ****
OctLoc.c.b A Datatyp(siz) R M Lvl/name                 OctLoc.c.b A Datatyp(siz) R M Lvl/name

     0-0-0/w STRC(288)         1 ADD_STMT                   0-0-0/w STRC(144)         1 ALTER_LTS
     0-0-0/w STRC(3672)        1 ALT_KEY                    0-0-0/w STRC(36864)       1 ARGLIST
     0-0-0/w STRC(180)         1 ARRAY_PRESET_LTS           0-0-0/w ASTR(324)   r     1 BASED_LEX_SYMBOL
PL6.E3A0      #008=Z8EH$CHECK_NOMINAL_KEY File=Z8EH.:Z8A6TSI                     SAT 08/09/97 12:01 Page:162
     0-0-0/w STRC(360)         1 BASED_LEX_SYMBOL_WORDS
     0-0-0/w STRC(288)         1 BASE_LTS                   0-0-0/w STRC(288)         1 BINARY_OP
     0-0-0/w STRC(144)         1 BT                         0-0-0/w STRC(288)         1 CALL_STMT
     0-0-0/w STRC(288)         1 CD_LTS                     0-0-0/w CHAR(4096)        1 CHARS
     0-0-0/w STRC(288)         1 COMPUTE_STMT               0-0-0/w STRC(72)          1 CONT
     0-0-0/w STRC(540)         1 CONTROL_NAME_LTS           0-0-0/w STRC(1872)        1 COPY_FILE
     0-0-0/w STRC(288)         1 DEFERED_IDENTIFIER         0-0-0/w STRC(252)         1 DEFERED_ID_TREE
     0-0-0/w STRC(288)         1 DEFERED_QUAL_ID            0-0-0/w STRC(288)         1 DEFERED_SUM_CLAUSE
     0-0-0/w STRC(288)         1 DEFERED_SUM_CLAUSE_LIST
     0-0-0/w STRC(288)         1 DELETE_STMT                0-0-0/w STRC(108)         1 DEPENDING_SIZE
     0-0-0/w STRC(5472)        1 DIMS                       0-0-0/w STRC(288)         1 DIVIDE_STMT
     0-0-0/w STRC(216)         1 DML_REC                    0-0-0/w STRC(73836)       1 EVALUATE
     0-0-0/w STRC(1692)  r     1 FILE_LTS                   0-0-0/w STRC(288)         1 ILS_LIST
     0-0-0/w STRC(108)         1 INDEXES                    0-0-0/w STRC(360)         1 INIT_LTS
     0-0-0/w STRC(288)         1 INSPECT_1_STMT             0-0-0/w STRC(288)         1 INSPECT_2_STMT
     0-0-0/w STRC(288)         1 INSPECT_4_STMT             0-0-0/w STRC(180)         1 IO_RESTORE_CHAIN
     0-0-0/w STRC(144)         1 KEY                        0-0-0/w STRC(288)         1 LA_ITEM
     0-0-0/w STRC(36864)       1 LCNST                      0-0-0/w STRC(72)          1 LONG
     0-0-0/w STRC              1 LTS                        0-0-0/w STRC(360)         1 LTSS
     0-0-0/w STRC(36936)       1 LTS_PTR_ARRAY              0-0-0/w STRC(504)         1 LX_CD_INPUT
     0-0-0/w STRC(324)         1 LX_CD_I_O                  0-0-0/w STRC(396)         1 LX_CD_OUTPUT
     0-0-0/w STRC(288)         1 LX_ETT_ITEM                0-0-0/w STRC(288)         1 LX_ITEM
     0-0-0/w STRC(288)         1 LX_LARGE                   0-0-0/w STRC(288)         1 LX_LIST
     0-0-0/w STRC(1224)        1 LX_REC_DECL                0-0-0/w STRC(864)         1 LX_REPORT_REC
     0-0-0/w STRC(288)         1 LX_TERMINAL                0-0-0/w STRC(288)         1 MULTIPLY_STMT
     0-0-0/w STRC(144)         1 NEL                        0-0-0/w STRC(216)         1 OPEN_LTS
     0-0-0/w STRC(36864)       1 PAGE                       0-0-0/w STRC(144)         1 PRIME
     0-0-0/w STRC(900)         1 PROC_SUPP                  0-0-0/w STRC(288)         1 READ_STMT
     0-0-0/w STRC(216)         1 REF                        0-0-0/w STRC(108)         1 RENAMES
     0-0-0/w STRC(720)         1 REPORT_01_LTS              0-0-0/w STRC(432)         1 REPORT_ELEM_LTS
     0-0-0/w STRC(252)         1 REPORT_GRP_LTS             0-0-0/w STRC(1332)        1 REPORT_LTS
     0-0-0/w STRC(288)         1 REWRITE_STMT               0-0-0/w STRC(144)         1 RVA_LTS
     0-0-0/w STRC(360)         1 SEGMENT_LTS                0-0-0/w STRC(288)         1 START_STMT
     0-0-0/w STRC(252)         1 STRING_STMT                0-0-0/w STRC(288)         1 SUBTRACT_STMT
     0-0-0/w STRC(252)         1 SUM_LTS                    0-0-0/w STRC(288)         1 UNARY_OP
     0-0-0/w STRC(288)         1 UNSTRING_STMT              0-0-0/d STRC(612)         1 USE
     0-0-0/w STRC(252)         1 USE_SUPP                   0-0-0/w STRC(288)         1 WRITE_STMT
PL6.E3A0      #008=Z8EH$CHECK_NOMINAL_KEY File=Z8EH.:Z8A6TSI                     SAT 08/09/97 12:01 Page:163


   Procedure Z8EH$CHECK_NOMINAL_KEY requires 42 words for executable code.
   Procedure Z8EH$CHECK_NOMINAL_KEY requires 24 words of local(AUTO) storage.

