PL6.E3A0      #009=Z8EH$CONVERT_DISPLAY File=Z8EH.:Z8A6TSI                       SAT 08/09/97 12:02 Page:164
      783        1        /*T***********************************************************/
      784        2        /*T*                                                         */
      785        3        /*T* Copyright (c) Bull HN Information Systems Inc., 1997    */
      786        4        /*T*                                                         */
      787        5        /*T***********************************************************/
      788        6        /**************/
      789        7          Z8EH$CONVERT_DISPLAY : PROC ( ITEM$,
      790        8        /**************/        ETT_NODE$ )   ALTRET;
      791        9
      792       10        /*I*
      793       11                 NAME: CONVERT_TO_DISPLAYABLE_TYPE
      794       12
      795       13          DESCRIPTION: Coerce all types to decimal or alpha-numeric, so that
      796       14                       the display runtime routine will handle correctly.
      797       15        */
      798       16
      799       17    1    DCL ITEM$     PTR;
      800       18    1    DCL ETT_NODE$ PTR;
      801       19         %EQU PHASE = 1;
      802       20         %INCLUDE Z8A_DEFC;
      803       88         %INCLUDE Z8A_SUPP_MAC;
      804     2488         %INCLUDE Z8A_TYPES;
      805     2662         %INCLUDE Z8A_ERR_NUMS;
      806     3426         %INCLUDE Z8E_STACKS;
      807     5692         %INCLUDE Z8E_MACROS;
      808     6367         %INCLUDE Z8E_WINDOW;
      809     8437         %INCLUDE Z8A_QLT;
      810     8543         %INCLUDE Z8A_ETT;
      811     8844         %INCLUDE Z8A_ST;
      812    12503         %INCLUDE Z8A_LIBRARY;
      813    12717
      814    12718    1    DCL Z8CO$CREATE_LIBRARY_BASE       ENTRY(2);
      815    12719    1    DCL Z8AF$FORME                     ENTRY(4);
      816    12720    1    DCL Z8EU$CREATE_IDENTIFIER_FROM_ST ENTRY(4);
      817    12721    1    DCL Z8EV$CONVERT                   ENTRY(3);
      818    12722    1    DCL Z8AE$ERROR                     ENTRY(12);
      819    12723
PL6.E3A0      #009=Z8EH$CONVERT_DISPLAY File=Z8EH.:Z8A6TSI                       SAT 08/09/97 12:02 Page:165
      820    12724
      821    12725        %DCL_AUTO_LX_ITEM (@NAME = OCC_NUM);
      822    12729    1    DCL ITEM_ST$ PTR;
      823    12730    1    DCL TABLE_ETT$ PTR;
      824    12731
      825    12732
      826    12733    2           DO CASE (ITEM$ -> LX_ITEM.ID);
      827    12734
      828    12735    2            CASE (%LX_ETT_ITEM);
      829    12736
      830    12737    3              DO CASE (ITEM$ -> LX_ETT_ITEM.TYPE);
      831    12738
      832    12739    3               CASE (%TYI, %TYJ, %TYF, %TYH,  %TYT, %TYK);
      833    12740    3                 CALL Z8EV$CONVERT (%TYD,
      834    12741    3                   ITEM$,
      835    12742    3                   ETT_NODE$);
      836    12743
      837    12744    3               CASE(%TYX, %TYY);
      838    12745
      839    12746                      %FISH (TRIAD = ITEM$ -> LX_ETT_ITEM.ETT$,
      840    12747                             RTN = ITEM_ST$ );
      841    12755
      842    12756    3                 CALL Z8EU$CREATE_IDENTIFIER_FROM_ST( ITEM_ST$ -> SCALAR.QLT$
      843    12757    3                                                      -> QLT.BROTHER -> QLT.SON
      844    12758    3                                                      -> QLT.BROTHER -> QLT.ST$,
      845    12759    3                                                      ADDR(OCC_NUM) );
      846    12760
      847    12761    3                 CALL Z8EV$CONVERT (%TYD,
      848    12762    3                   ADDR(OCC_NUM),
      849    12763    3                   ETT_NODE$);
      850    12764
      851    12765    3               CASE (%TYC);
      852    12766    3                 ETT_NODE$ -> LX_ETT_ITEM = ITEM$ -> LX_ETT_ITEM;
      853    12767                      %FISH (TRIAD = ITEM$ -> LX_ETT_ITEM.ETT$,
      854    12768                             RTN = ITEM_ST$ );
      855    12776
      856    12777    3                 CALL Z8CO$CREATE_LIBRARY_BASE (%OP_GBCD_TO_ASCII, TABLE_ETT$);
PL6.E3A0      #009=Z8EH$CONVERT_DISPLAY File=Z8EH.:Z8A6TSI                       SAT 08/09/97 12:02 Page:166
      857    12778    3                 CALL Z8AF$FORME (%CVT,
      858    12779    3                                  ITEM$ -> LX_ETT_ITEM.ETT$,
      859    12780    3                                  TABLE_ETT$,
      860    12781    3                                  ETT_NODE$ -> LX_ETT_ITEM.ETT$);
      861    12782    3                 IF ITEM_ST$ -> VARIABLE.NDSC.TN = %NDSC4 /* Overpunched */
      862    12783    3                   THEN ETT_NODE$ -> LX_ETT_ITEM.TYPE = %TYO;
      863    12784    3                   ELSE ETT_NODE$ -> LX_ETT_ITEM.TYPE = %TYD;
      864    12785
      865    12786    3               CASE (%TYE, %TYB);
      866    12787    3                 CALL Z8EV$CONVERT (%TYA,
      867    12788    3                   ITEM$,
      868    12789    3                   ETT_NODE$);
      869    12790
      870    12791    3               CASE (%TYA, %TYD, %TYO, %TYN, %TYQ, %TYR);
      871    12792    3                 ETT_NODE$ -> LX_ETT_ITEM = ITEM$ -> LX_ETT_ITEM;
      872    12793
      873    12794    3               CASE (ELSE);
      874    12795                      %CONDITIONAL_ERROR (@ERROR# = %E$INVALID_DISPLAY_TYPE,
      875    12796                      @LX_ITEM$ = ITEM$,
      876    12797                      @LINE = ITEM$ -> LX_ETT_ITEM.LINE,
      877    12798                      @COLUMN = ITEM$ -> LX_ETT_ITEM.COLUMN);
      878    12828    3                 ALTRETURN;
      879    12829
      880    12830    3               END;
      881    12831
      882    12832    2            CASE (%LX_TERMINAL);
      883    12833
      884    12834    2              IF ITEM$ -> LX_TERMINAL.SYMBOL = %NUMERIC_LITERAL THEN
      885    12835    2                 CALL Z8EV$CONVERT (%TYD,
      886    12836    2                   ITEM$,
      887    12837    2                   ETT_NODE$);
      888    12838    2              ELSE
      889    12839    2                 CALL Z8EV$CONVERT (%TYA,
      890    12840    2                   ITEM$,
      891    12841    2                   ETT_NODE$);
      892    12842
      893    12843    2            END;
PL6.E3A0      #009=Z8EH$CONVERT_DISPLAY File=Z8EH.:Z8A6TSI                       SAT 08/09/97 12:02 Page:167
      894    12844    1   END Z8EH$CONVERT_DISPLAY;
      895    12845        %EOD;

PL6.E3A0      #009=Z8EH$CONVERT_DISPLAY File=Z8EH.:Z8A6TSI                       SAT 08/09/97 12:02 Page:168
--  Include file information  --

   Z8A_LIBRARY.:Z8A6TOU  cannot be made into a system file and is referenced.
   Z8A_ST.:Z8A6TOU  cannot be made into a system file and is referenced.
   Z8A_ETT.:Z8A6TOU  cannot be made into a system file and is referenced.
   Z8A_QLT.:Z8A6TOU  cannot be made into a system file and is referenced.
   Z8E_WINDOW.:Z8A6TOU  is referenced.
   Z8E_NEW_ILL.:Z8A6TOU  is referenced.
   Z8E_MACROS.:Z8A6TOU  cannot be made into a system file and is referenced.
   Z8A_LEX_SYMB.:Z8A6TOU  cannot be made into a system file and is referenced.
   Z8E_STACKS.:Z8A6TOU  cannot be made into a system file and is referenced.
   Z8A_ERR_NUMS.:Z8A6TOU  is referenced.
   Z8A_TYPES.:Z8A6TOU  is referenced.
   X8A_COM_MACS.:X8A6TOU  is referenced.
   Z8A_NAMES.:Z8A6TOU  is referenced.
   Z8A_SUPP_MAC.:Z8A6TOU  is referenced.
   Z8A_DEFC.:Z8A6TOU  cannot be made into a system file and is referenced.
      No diagnostics issued in procedure Z8EH$CONVERT_DISPLAY.

   Procedure Z8EH$CONVERT_DISPLAY requires 201 words for executable code.
   Procedure Z8EH$CONVERT_DISPLAY requires 28 words of local(AUTO) storage.

PL6.E3A0      #009=Z8EH$CONVERT_DISPLAY File=Z8EH.:Z8A6TSI                       SAT 08/09/97 12:02 Page:169

 Object Unit name= Z8EH$CONVERT_DISPLAY                       File name= Z8EH.:Z8A6TOU
 UTS= AUG 09 '97 12:02:36.12 SAT                              Compiler= PL-6/E31         Sev=      00
 SharedLib= :SHARED_SYSTEM                                    Alt SharedLib=


    ****  Control sections  ****

 Sect   Type Bound  Init  Size OctSiz  Section name(segment info)
    0  LblCom even  none     1      1  ITERATION
    1  LblCom even  none    90    132  LEX_SYMBOL
    2  LblCom even  none     1      1  CURRENT_LEX_SYMBOL$
    3  LblCom even  none    90    132  TEMP_LEX_SYMBOL
    4  LblCom even  none    90    132  TEMP_LEX_SYMBOL2
    5  LblCom even  none     1      1  QLT$
    6  LblCom even  none     1      1  PREV_01_QLT$
    7  LblCom even  none     5      5  QLT_
    8  LblCom even  none     1      1  ETT$
    9  LblCom even  none     1      1  HEAD_ETT$
   10  LblCom even  none   512   1000  ETT_BUCKETS
   11  LblCom even  none     5      5  ETT_
   12  LblCom even  none     1      1  ST$
   13  LblCom even  none     5      5  ST_
   14   Proc  even  none   201    311  Z8EH$CONVERT_DISPLAY
   15  RoData even  none    13     15  Z8EH$CONVERT_DISPLAY

    ****  Entry defs  ****

                              Check   Calling
                             calling  sequence
  Sect OctLoc Primary Altret sequence   type   Parms  Name
    14      0   yes    yes     yes      Std        2  Z8EH$CONVERT_DISPLAY
PL6.E3A0      #009=Z8EH$CONVERT_DISPLAY File=Z8EH.:Z8A6TSI                       SAT 08/09/97 12:02 Page:170

  ****  Entry refs  ****

         Check        Calling
        calling       sequence
Altret sequence SRef   type   Args  Name
         yes           Std       3 Z8EV$CONVERT
         yes           Std       4 Z8EU$CREATE_IDENTIFIER_FROM_ST
         yes           Std       2 Z8CO$CREATE_LIBRARY_BASE
         yes           Std      12 Z8AE$ERROR
         yes           Std       4 Z8AF$FORME
                       nStd      0 X66_AUTO_2
                       nStd      0 X66_AALT
                       nStd      0 X66_ARET

  ****  Segment refs  ****

  Flags:  r = read only, s = secondary
Flgs Name                             Flgs Name                             Flgs Name
     ISSID                                 NULLSID
PL6.E3A0      #009=Z8EH$CONVERT_DISPLAY File=Z8EH.:Z8A6TSI                       SAT 08/09/97 12:02 Page:171


      783        1        /*T***********************************************************/
      784        2        /*T*                                                         */
      785        3        /*T* Copyright (c) Bull HN Information Systems Inc., 1997    */
      786        4        /*T*                                                         */
      787        5        /*T***********************************************************/
      788        6        /**************/
      789        7          Z8EH$CONVERT_DISPLAY : PROC ( ITEM$,

      7 14 000000   000000 700200 xent  Z8EH$CONVER* TSX0  ! X66_AUTO_2
        14 000001   000034 000002                    ZERO    28,2

      790        8        /**************/        ETT_NODE$ )   ALTRET;
      791        9
      792       10        /*I*
      793       11                 NAME: CONVERT_TO_DISPLAYABLE_TYPE
      794       12
      795       13          DESCRIPTION: Coerce all types to decimal or alpha-numeric, so that
      796       14                       the display runtime routine will handle correctly.
      797       15        */
      798       16
      799       17    1    DCL ITEM$     PTR;
      800       18    1    DCL ETT_NODE$ PTR;
      801       19         %EQU PHASE = 1;
      802       20         %INCLUDE Z8A_DEFC;
      803       88         %INCLUDE Z8A_SUPP_MAC;
      804     2488         %INCLUDE Z8A_TYPES;
      805     2662         %INCLUDE Z8A_ERR_NUMS;
      806     3426         %INCLUDE Z8E_STACKS;
      807     5692         %INCLUDE Z8E_MACROS;
      808     6367         %INCLUDE Z8E_WINDOW;
      809     8437         %INCLUDE Z8A_QLT;
      810     8543         %INCLUDE Z8A_ETT;
      811     8844         %INCLUDE Z8A_ST;
      812    12503         %INCLUDE Z8A_LIBRARY;
      813    12717
      814    12718    1    DCL Z8CO$CREATE_LIBRARY_BASE       ENTRY(2);
PL6.E3A0      #009=Z8EH$CONVERT_DISPLAY File=Z8EH.:Z8A6TSI                       SAT 08/09/97 12:02 Page:172
      815    12719    1    DCL Z8AF$FORME                     ENTRY(4);
      816    12720    1    DCL Z8EU$CREATE_IDENTIFIER_FROM_ST ENTRY(4);
      817    12721    1    DCL Z8EV$CONVERT                   ENTRY(3);
      818    12722    1    DCL Z8AE$ERROR                     ENTRY(12);
      819    12723
      820    12724
      821    12725        %DCL_AUTO_LX_ITEM (@NAME = OCC_NUM);
      822    12729    1    DCL ITEM_ST$ PTR;
      823    12730    1    DCL TABLE_ETT$ PTR;
      824    12731
      825    12732
      826    12733    2           DO CASE (ITEM$ -> LX_ITEM.ID);

  12733 14 000002   200003 470500                    LDP0    @ITEM$,,AUTO
        14 000003   000000 471500                    LDP1    0,,PR0
        14 000004   100000 220100                    LDX0    0,,PR1
        14 000005   000005 100003                    CMPX0   5,DU
        14 000006   000010 602010 14                 TNC     s:12733+6,X0
        14 000007   000310 710000 14                 TRA     s:12844
        14 000010   000262 710000 14                 TRA     s:12834
        14 000011   000310 710000 14                 TRA     s:12844
        14 000012   000310 710000 14                 TRA     s:12844
        14 000013   000310 710000 14                 TRA     s:12844
        14 000014   000015 710000 14                 TRA     s:12737

      827    12734
      828    12735    2            CASE (%LX_ETT_ITEM);

      829    12736
      830    12737    3              DO CASE (ITEM$ -> LX_ETT_ITEM.TYPE);

  12737 14 000015   100004 235100                    LDA     4,,PR1
        14 000016   000024 115007                    CMPA    20,DL
        14 000017   000021 602005 14                 TNC     s:12737+4,AL
        14 000020   000240 710000 14                 TRA     s:12808
        14 000021   000232 710000 14                 TRA     s:12792
        14 000022   000045 710000 14                 TRA     s:12740
PL6.E3A0      #009=Z8EH$CONVERT_DISPLAY File=Z8EH.:Z8A6TSI                       SAT 08/09/97 12:02 Page:173
        14 000023   000045 710000 14                 TRA     s:12740
        14 000024   000232 710000 14                 TRA     s:12792
        14 000025   000232 710000 14                 TRA     s:12792
        14 000026   000232 710000 14                 TRA     s:12792
        14 000027   000220 710000 14                 TRA     s:12787
        14 000030   000045 710000 14                 TRA     s:12740
        14 000031   000232 710000 14                 TRA     s:12792
        14 000032   000057 710000 14                 TRA     s:12749
        14 000033   000057 710000 14                 TRA     s:12749
        14 000034   000045 710000 14                 TRA     s:12740
        14 000035   000220 710000 14                 TRA     s:12787
        14 000036   000045 710000 14                 TRA     s:12740
        14 000037   000232 710000 14                 TRA     s:12792
        14 000040   000045 710000 14                 TRA     s:12740
        14 000041   000240 710000 14                 TRA     s:12808
        14 000042   000240 710000 14                 TRA     s:12808
        14 000043   000240 710000 14                 TRA     s:12808
        14 000044   000130 710000 14                 TRA     s:12766

      831    12738
      832    12739    3               CASE (%TYI, %TYJ, %TYF, %TYH,  %TYT, %TYK);

      833    12740    3                 CALL Z8EV$CONVERT (%TYD,

  12740 14 000045   200004 236100                    LDQ     @ETT_NODE$,,AUTO
        14 000046   200032 756100                    STQ     TABLE_ETT$+3,,AUTO
        14 000047   200003 236100                    LDQ     @ITEM$,,AUTO
        14 000050   000002 235000 15                 LDA     2
        14 000051   200030 757100                    STAQ    TABLE_ETT$+1,,AUTO
        14 000052   200030 630500                    EPPR0   TABLE_ETT$+1,,AUTO
        14 000053   000000 631400 15                 EPPR1   0
        14 000054   000000 701000 xent               TSX1    Z8EV$CONVERT
        14 000055   000000 011000                    NOP     0
        14 000056   000310 710000 14                 TRA     s:12844

      834    12741    3                   ITEM$,
      835    12742    3                   ETT_NODE$);
PL6.E3A0      #009=Z8EH$CONVERT_DISPLAY File=Z8EH.:Z8A6TSI                       SAT 08/09/97 12:02 Page:174
      836    12743
      837    12744    3               CASE(%TYX, %TYY);

      838    12745
      839    12746                      %FISH (TRIAD = ITEM$ -> LX_ETT_ITEM.ETT$,
      840    12747                             RTN = ITEM_ST$ );

  12749 14 000057   100001 236100                    LDQ     1,,PR1
        14 000060   200026 756100                    STQ     ITEM_ST$,,AUTO

  12750 14 000061   200026 473500                    LDP3    ITEM_ST$,,AUTO
        14 000062   300000 221100                    LDX1    0,,PR3
        14 000063   000751 101003                    CMPX1   489,DU
        14 000064   000074 603000 14                 TRC     s:12756

  12751 14 000065   200026 470500                    LDP0    ITEM_ST$,,AUTO
        14 000066   000001 236100                    LDQ     1,,PR0
        14 000067   200026 756100                    STQ     ITEM_ST$,,AUTO

  12752 14 000070   200026 470500                    LDP0    ITEM_ST$,,AUTO
        14 000071   000000 220100                    LDX0    0,,PR0
        14 000072   000751 100003                    CMPX0   489,DU
        14 000073   000065 602000 14                 TNC     s:12751

      841    12755
      842    12756    3                 CALL Z8EU$CREATE_IDENTIFIER_FROM_ST( ITEM_ST$ -> SCALAR.QLT$

  12756 14 000074   200026 470500                    LDP0    ITEM_ST$,,AUTO
        14 000075   000007 471500                    LDP1    7,,PR0
        14 000076   100002 473500                    LDP3    2,,PR1
        14 000077   300003 474500                    LDP4    3,,PR3
        14 000100   400002 475500                    LDP5    2,,PR4
        14 000101   200016 636500                    EPPR6   OCC_NUM,,AUTO
        14 000102   200030 456500                    STP6    TABLE_ETT$+1,,AUTO
        14 000103   200030 631500                    EPPR1   TABLE_ETT$+1,,AUTO
        14 000104   200033 451500                    STP1    TABLE_ETT$+4,,AUTO
        14 000105   500004 633500                    EPPR3   4,,PR5
PL6.E3A0      #009=Z8EH$CONVERT_DISPLAY File=Z8EH.:Z8A6TSI                       SAT 08/09/97 12:02 Page:175
        14 000106   200032 453500                    STP3    TABLE_ETT$+3,,AUTO
        14 000107   200032 630500                    EPPR0   TABLE_ETT$+3,,AUTO
        14 000110   000003 631400 15                 EPPR1   3
        14 000111   000000 701000 xent               TSX1    Z8EU$CREATE_IDENTIFIER_FROM_ST
        14 000112   000000 011000                    NOP     0

      843    12757    3                                                      -> QLT.BROTHER -> QLT.SON
      844    12758    3                                                      -> QLT.BROTHER -> QLT.ST$,
      845    12759    3                                                      ADDR(OCC_NUM) );
      846    12760
      847    12761    3                 CALL Z8EV$CONVERT (%TYD,

  12761 14 000113   200016 630500                    EPPR0   OCC_NUM,,AUTO
        14 000114   200030 450500                    STP0    TABLE_ETT$+1,,AUTO
        14 000115   200004 236100                    LDQ     @ETT_NODE$,,AUTO
        14 000116   200033 756100                    STQ     TABLE_ETT$+4,,AUTO
        14 000117   200030 631500                    EPPR1   TABLE_ETT$+1,,AUTO
        14 000120   200032 451500                    STP1    TABLE_ETT$+3,,AUTO
        14 000121   000002 236000 15                 LDQ     2
        14 000122   200031 756100                    STQ     TABLE_ETT$+2,,AUTO
        14 000123   200031 630500                    EPPR0   TABLE_ETT$+2,,AUTO
        14 000124   000000 631400 15                 EPPR1   0
        14 000125   000000 701000 xent               TSX1    Z8EV$CONVERT
        14 000126   000000 011000                    NOP     0
        14 000127   000310 710000 14                 TRA     s:12844

      848    12762    3                   ADDR(OCC_NUM),
      849    12763    3                   ETT_NODE$);
      850    12764
      851    12765    3               CASE (%TYC);

      852    12766    3                 ETT_NODE$ -> LX_ETT_ITEM = ITEM$ -> LX_ETT_ITEM;

  12766 14 000130   200004 473500                    LDP3    @ETT_NODE$,,AUTO
        14 000131   300000 474500                    LDP4    0,,PR3
        14 000132   000100 100500                    MLR     fill='000'O
        14 000133   100000 000040                    ADSC9   0,,PR1                   cn=0,n=32
PL6.E3A0      #009=Z8EH$CONVERT_DISPLAY File=Z8EH.:Z8A6TSI                       SAT 08/09/97 12:02 Page:176
        14 000134   400000 000040                    ADSC9   0,,PR4                   cn=0,n=32

      853    12767                      %FISH (TRIAD = ITEM$ -> LX_ETT_ITEM.ETT$,
      854    12768                             RTN = ITEM_ST$ );

  12770 14 000135   000000 471500                    LDP1    0,,PR0
        14 000136   100001 236100                    LDQ     1,,PR1
        14 000137   200026 756100                    STQ     ITEM_ST$,,AUTO

  12771 14 000140   200026 474500                    LDP4    ITEM_ST$,,AUTO
        14 000141   400000 220100                    LDX0    0,,PR4
        14 000142   000751 100003                    CMPX0   489,DU
        14 000143   000153 603000 14                 TRC     s:12777

  12772 14 000144   200026 470500                    LDP0    ITEM_ST$,,AUTO
        14 000145   000001 236100                    LDQ     1,,PR0
        14 000146   200026 756100                    STQ     ITEM_ST$,,AUTO

  12773 14 000147   200026 470500                    LDP0    ITEM_ST$,,AUTO
        14 000150   000000 220100                    LDX0    0,,PR0
        14 000151   000751 100003                    CMPX0   489,DU
        14 000152   000144 602000 14                 TNC     s:12772

      855    12776
      856    12777    3                 CALL Z8CO$CREATE_LIBRARY_BASE (%OP_GBCD_TO_ASCII, TABLE_ETT$);

  12777 14 000153   200027 630500                    EPPR0   TABLE_ETT$,,AUTO
        14 000154   200031 450500                    STP0    TABLE_ETT$+2,,AUTO
        14 000155   000005 236000 15                 LDQ     5
        14 000156   200030 756100                    STQ     TABLE_ETT$+1,,AUTO
        14 000157   200030 630500                    EPPR0   TABLE_ETT$+1,,AUTO
        14 000160   000003 631400 15                 EPPR1   3
        14 000161   000000 701000 xent               TSX1    Z8CO$CREATE_LIBRARY_BASE
        14 000162   000000 011000                    NOP     0

      857    12778    3                 CALL Z8AF$FORME (%CVT,

PL6.E3A0      #009=Z8EH$CONVERT_DISPLAY File=Z8EH.:Z8A6TSI                       SAT 08/09/97 12:02 Page:177
  12778 14 000163   200003 470500                    LDP0    @ITEM$,,AUTO
        14 000164   000000 471500                    LDP1    0,,PR0
        14 000165   200004 473500                    LDP3    @ETT_NODE$,,AUTO
        14 000166   300000 474500                    LDP4    0,,PR3
        14 000167   400001 635500                    EPPR5   1,,PR4
        14 000170   200033 455500                    STP5    TABLE_ETT$+4,,AUTO
        14 000171   200027 634500                    EPPR4   TABLE_ETT$,,AUTO
        14 000172   200032 454500                    STP4    TABLE_ETT$+3,,AUTO
        14 000173   100001 636500                    EPPR6   1,,PR1
        14 000174   200031 456500                    STP6    TABLE_ETT$+2,,AUTO
        14 000175   000010 236000 15                 LDQ     8
        14 000176   200030 756100                    STQ     TABLE_ETT$+1,,AUTO
        14 000177   200030 630500                    EPPR0   TABLE_ETT$+1,,AUTO
        14 000200   000006 631400 15                 EPPR1   6
        14 000201   000000 701000 xent               TSX1    Z8AF$FORME
        14 000202   000000 011000                    NOP     0

      858    12779    3                                  ITEM$ -> LX_ETT_ITEM.ETT$,
      859    12780    3                                  TABLE_ETT$,
      860    12781    3                                  ETT_NODE$ -> LX_ETT_ITEM.ETT$);
      861    12782    3                 IF ITEM_ST$ -> VARIABLE.NDSC.TN = %NDSC4 /* Overpunched */

  12782 14 000203   200026 470500                    LDP0    ITEM_ST$,,AUTO
        14 000204   000001 236100                    LDQ     1,,PR0
        14 000205   040000 316007                    CANQ    16384,DL
        14 000206   000214 600000 14                 TZE     s:12784

      862    12783    3                   THEN ETT_NODE$ -> LX_ETT_ITEM.TYPE = %TYO;

  12783 14 000207   200004 471500                    LDP1    @ETT_NODE$,,AUTO
        14 000210   100000 473500                    LDP3    0,,PR1
        14 000211   000003 235007                    LDA     3,DL
        14 000212   300004 755100                    STA     4,,PR3
        14 000213   000310 710000 14                 TRA     s:12844

      863    12784    3                   ELSE ETT_NODE$ -> LX_ETT_ITEM.TYPE = %TYD;

PL6.E3A0      #009=Z8EH$CONVERT_DISPLAY File=Z8EH.:Z8A6TSI                       SAT 08/09/97 12:02 Page:178
  12784 14 000214   200004 471500                    LDP1    @ETT_NODE$,,AUTO
        14 000215   100000 473500                    LDP3    0,,PR1
        14 000216   300004 450100                    STZ     4,,PR3
        14 000217   000310 710000 14                 TRA     s:12844

      864    12785
      865    12786    3               CASE (%TYE, %TYB);

      866    12787    3                 CALL Z8EV$CONVERT (%TYA,

  12787 14 000220   200004 236100                    LDQ     @ETT_NODE$,,AUTO
        14 000221   200032 756100                    STQ     TABLE_ETT$+3,,AUTO
        14 000222   200003 236100                    LDQ     @ITEM$,,AUTO
        14 000223   000012 235000 15                 LDA     10
        14 000224   200030 757100                    STAQ    TABLE_ETT$+1,,AUTO
        14 000225   200030 630500                    EPPR0   TABLE_ETT$+1,,AUTO
        14 000226   000000 631400 15                 EPPR1   0
        14 000227   000000 701000 xent               TSX1    Z8EV$CONVERT
        14 000230   000000 011000                    NOP     0
        14 000231   000310 710000 14                 TRA     s:12844

      867    12788    3                   ITEM$,
      868    12789    3                   ETT_NODE$);
      869    12790
      870    12791    3               CASE (%TYA, %TYD, %TYO, %TYN, %TYQ, %TYR);

      871    12792    3                 ETT_NODE$ -> LX_ETT_ITEM = ITEM$ -> LX_ETT_ITEM;

  12792 14 000232   200004 473500                    LDP3    @ETT_NODE$,,AUTO
        14 000233   300000 474500                    LDP4    0,,PR3
        14 000234   000100 100500                    MLR     fill='000'O
        14 000235   100000 000040                    ADSC9   0,,PR1                   cn=0,n=32
        14 000236   400000 000040                    ADSC9   0,,PR4                   cn=0,n=32
        14 000237   000310 710000 14                 TRA     s:12844

      872    12793
      873    12794    3               CASE (ELSE);
PL6.E3A0      #009=Z8EH$CONVERT_DISPLAY File=Z8EH.:Z8A6TSI                       SAT 08/09/97 12:02 Page:179

      874    12795                      %CONDITIONAL_ERROR (@ERROR# = %E$INVALID_DISPLAY_TYPE,
      875    12796                      @LX_ITEM$ = ITEM$,
      876    12797                      @LINE = ITEM$ -> LX_ETT_ITEM.LINE,
      877    12798                      @COLUMN = ITEM$ -> LX_ETT_ITEM.COLUMN);

  12808 14 000240   100000 236100                    LDQ     0,,PR1
        14 000241   400000 316007                    CANQ    -131072,DL
        14 000242   000261 601000 14                 TNZ     s:12828

  12810 14 000243   100006 633500                    EPPR3   6,,PR1
        14 000244   200032 453500                    STP3    TABLE_ETT$+3,,AUTO
        14 000245   100005 634500                    EPPR4   5,,PR1
        14 000246   200031 454500                    STP4    TABLE_ETT$+2,,AUTO
        14 000247   000014 236000 15                 LDQ     12
        14 000250   200030 756100                    STQ     TABLE_ETT$+1,,AUTO
        14 000251   200030 630500                    EPPR0   TABLE_ETT$+1,,AUTO
        14 000252   000000 631400 15                 EPPR1   0
        14 000253   000000 701000 xent               TSX1    Z8AE$ERROR
        14 000254   000000 011000                    NOP     0

  12819 14 000255   200003 470500                    LDP0    @ITEM$,,AUTO
        14 000256   000000 471500                    LDP1    0,,PR0
        14 000257   400000 236007                    LDQ     -131072,DL
        14 000260   100000 256100                    ORSQ    0,,PR1

      878    12828    3                 ALTRETURN;

  12828 14 000261   000000 702200 xent               TSX2  ! X66_AALT

      879    12829
      880    12830    3               END;

      881    12831
      882    12832    2            CASE (%LX_TERMINAL);

      883    12833
PL6.E3A0      #009=Z8EH$CONVERT_DISPLAY File=Z8EH.:Z8A6TSI                       SAT 08/09/97 12:02 Page:180
      884    12834    2              IF ITEM$ -> LX_TERMINAL.SYMBOL = %NUMERIC_LITERAL THEN

  12834 14 000262   100003 235100                    LDA     3,,PR1
        14 000263   000026 115007                    CMPA    22,DL
        14 000264   000277 601000 14                 TNZ     s:12839

      885    12835    2                 CALL Z8EV$CONVERT (%TYD,

  12835 14 000265   200004 236100                    LDQ     @ETT_NODE$,,AUTO
        14 000266   200032 756100                    STQ     TABLE_ETT$+3,,AUTO
        14 000267   200003 236100                    LDQ     @ITEM$,,AUTO
        14 000270   000002 235000 15                 LDA     2
        14 000271   200030 757100                    STAQ    TABLE_ETT$+1,,AUTO
        14 000272   200030 630500                    EPPR0   TABLE_ETT$+1,,AUTO
        14 000273   000000 631400 15                 EPPR1   0
        14 000274   000000 701000 xent               TSX1    Z8EV$CONVERT
        14 000275   000000 011000                    NOP     0
        14 000276   000310 710000 14                 TRA     s:12844

      886    12836    2                   ITEM$,
      887    12837    2                   ETT_NODE$);
      888    12838    2              ELSE
      889    12839    2                 CALL Z8EV$CONVERT (%TYA,

  12839 14 000277   200004 236100                    LDQ     @ETT_NODE$,,AUTO
        14 000300   200032 756100                    STQ     TABLE_ETT$+3,,AUTO
        14 000301   200003 236100                    LDQ     @ITEM$,,AUTO
        14 000302   000012 235000 15                 LDA     10
        14 000303   200030 757100                    STAQ    TABLE_ETT$+1,,AUTO
        14 000304   200030 630500                    EPPR0   TABLE_ETT$+1,,AUTO
        14 000305   000000 631400 15                 EPPR1   0
        14 000306   000000 701000 xent               TSX1    Z8EV$CONVERT
        14 000307   000000 011000                    NOP     0

      890    12840    2                   ITEM$,
      891    12841    2                   ETT_NODE$);
      892    12842
PL6.E3A0      #009=Z8EH$CONVERT_DISPLAY File=Z8EH.:Z8A6TSI                       SAT 08/09/97 12:02 Page:181
      893    12843    2            END;

      894    12844    1   END Z8EH$CONVERT_DISPLAY;

  12844 14 000310   000000 702200 xent               TSX2  ! X66_ARET
      895    12845        %EOD;

PL6.E3A0      #009=Z8EH$CONVERT_DISPLAY File=Z8EH.:Z8A6TSI                       SAT 08/09/97 12:02 Page:182
--  Include file information  --

   Z8A_LIBRARY.:Z8A6TOU  cannot be made into a system file and is referenced.
   Z8A_ST.:Z8A6TOU  cannot be made into a system file and is referenced.
   Z8A_ETT.:Z8A6TOU  cannot be made into a system file and is referenced.
   Z8A_QLT.:Z8A6TOU  cannot be made into a system file and is referenced.
   Z8E_WINDOW.:Z8A6TOU  is referenced.
   Z8E_NEW_ILL.:Z8A6TOU  is referenced.
   Z8E_MACROS.:Z8A6TOU  cannot be made into a system file and is referenced.
   Z8A_LEX_SYMB.:Z8A6TOU  cannot be made into a system file and is referenced.
   Z8E_STACKS.:Z8A6TOU  cannot be made into a system file and is referenced.
   Z8A_ERR_NUMS.:Z8A6TOU  is referenced.
   Z8A_TYPES.:Z8A6TOU  is referenced.
   X8A_COM_MACS.:X8A6TOU  is referenced.
   Z8A_NAMES.:Z8A6TOU  is referenced.
   Z8A_SUPP_MAC.:Z8A6TOU  is referenced.
   Z8A_DEFC.:Z8A6TOU  cannot be made into a system file and is referenced.
      No diagnostics issued in procedure Z8EH$CONVERT_DISPLAY.
PL6.E3A0      #009=Z8EH$CONVERT_DISPLAY File=Z8EH.:Z8A6TSI                       SAT 08/09/97 12:02 Page:183

 **** Variables and constants ****

  ****  Section 000 LblCom ITERATION

  ****  Scalars and arrays  ****
OctLoc.c.b A Datatyp(siz) R M Lvl/name                 OctLoc.c.b A Datatyp(siz) R M Lvl/name

     0-0-0/w SBIN              1 ITERATION

  ****  Section 001 LblCom LEX_SYMBOL

  ****  Scalars and arrays  ****
OctLoc.c.b A Datatyp(siz) R M Lvl/name                 OctLoc.c.b A Datatyp(siz) R M Lvl/name

     0-0-0/w STRC(3240)  r     1 LEX_SYMBOL                 0-0-0/w STRC(3240)        1 LEX_SYMBOL_WORDS

  ****  Section 002 LblCom CURRENT_LEX_SYMBOL$

  ****  Scalars and arrays  ****
OctLoc.c.b A Datatyp(siz) R M Lvl/name                 OctLoc.c.b A Datatyp(siz) R M Lvl/name

     0-0-0/w PTR         r     1 CURRENT_LEX_SYMBOL$

  ****  Section 003 LblCom TEMP_LEX_SYMBOL

  ****  Scalars and arrays  ****
OctLoc.c.b A Datatyp(siz) R M Lvl/name                 OctLoc.c.b A Datatyp(siz) R M Lvl/name

     0-0-0/w STRC(3240)        1 TEMP_LEX_SYMBOL

  ****  Section 004 LblCom TEMP_LEX_SYMBOL2

  ****  Scalars and arrays  ****
OctLoc.c.b A Datatyp(siz) R M Lvl/name                 OctLoc.c.b A Datatyp(siz) R M Lvl/name

     0-0-0/w STRC(3240)        1 TEMP_LEX_SYMBOL2

PL6.E3A0      #009=Z8EH$CONVERT_DISPLAY File=Z8EH.:Z8A6TSI                       SAT 08/09/97 12:02 Page:184
  ****  Section 005 LblCom QLT$

  ****  Scalars and arrays  ****
OctLoc.c.b A Datatyp(siz) R M Lvl/name                 OctLoc.c.b A Datatyp(siz) R M Lvl/name

     0-0-0/w PTR         r     1 QLT$

  ****  Section 006 LblCom PREV_01_QLT$

  ****  Scalars and arrays  ****
OctLoc.c.b A Datatyp(siz) R M Lvl/name                 OctLoc.c.b A Datatyp(siz) R M Lvl/name

     0-0-0/w PTR               1 PREV_01_QLT$

  ****  Section 007 LblCom QLT_

  ****  Scalars and arrays  ****
OctLoc.c.b A Datatyp(siz) R M Lvl/name                 OctLoc.c.b A Datatyp(siz) R M Lvl/name

     0-0-0/w STRC(180)         1 QLT_

  ****  Section 008 LblCom ETT$

  ****  Scalars and arrays  ****
OctLoc.c.b A Datatyp(siz) R M Lvl/name                 OctLoc.c.b A Datatyp(siz) R M Lvl/name

     0-0-0/w PTR         r     1 ETT$

  ****  Section 009 LblCom HEAD_ETT$

  ****  Scalars and arrays  ****
OctLoc.c.b A Datatyp(siz) R M Lvl/name                 OctLoc.c.b A Datatyp(siz) R M Lvl/name

     0-0-0/w PTR               1 HEAD_ETT$

  ****  Section 010 LblCom ETT_BUCKETS

PL6.E3A0      #009=Z8EH$CONVERT_DISPLAY File=Z8EH.:Z8A6TSI                       SAT 08/09/97 12:02 Page:185
  ****  Scalars and arrays  ****
OctLoc.c.b A Datatyp(siz) R M Lvl/name                 OctLoc.c.b A Datatyp(siz) R M Lvl/name

     0-0-0/w PTR               1 ETT_BUCKETS(0:511)

  ****  Section 011 LblCom ETT_

  ****  Scalars and arrays  ****
OctLoc.c.b A Datatyp(siz) R M Lvl/name                 OctLoc.c.b A Datatyp(siz) R M Lvl/name

     0-0-0/w STRC(180)         1 ETT_

  ****  Section 012 LblCom ST$

  ****  Scalars and arrays  ****
OctLoc.c.b A Datatyp(siz) R M Lvl/name                 OctLoc.c.b A Datatyp(siz) R M Lvl/name

     0-0-0/w PTR         r     1 ST$

  ****  Section 013 LblCom ST_

  ****  Scalars and arrays  ****
OctLoc.c.b A Datatyp(siz) R M Lvl/name                 OctLoc.c.b A Datatyp(siz) R M Lvl/name

     0-0-0/w STRC(180)         1 ST_

  ****  Auto variables  ****

  ****  Scalars and arrays  ****
OctLoc.c.b A Datatyp(siz) R M Lvl/name                 OctLoc.c.b A Datatyp(siz) R M Lvl/name

     4-0-0/w PTR         r     1 @ETT_NODE$                 3-0-0/w PTR         r     1 @ITEM$
    *0-0-0/w PTR         r     1 ETT_NODE$                 *0-0-0/w PTR         r     1 ITEM$
    26-0-0/w PTR         r     1 ITEM_ST$                   5-0-0/w STRC(324)         1 NAME
    16-0-0/d STRC(288)   r     1 OCC_NUM                   27-0-0/w PTR         r     1 TABLE_ETT$

  ****  BASED and DCB variables  ****
PL6.E3A0      #009=Z8EH$CONVERT_DISPLAY File=Z8EH.:Z8A6TSI                       SAT 08/09/97 12:02 Page:186

  ****  Scalars and arrays  ****
OctLoc.c.b A Datatyp(siz) R M Lvl/name                 OctLoc.c.b A Datatyp(siz) R M Lvl/name

     0-0-0/w STRC(288)         1 ADD_STMT                   0-0-0/w STRC(396)         1 ALPHABET
     0-0-0/w STRC(396)         1 ARRAY                      0-0-0/w ASTR(324)   r     1 BASED_LEX_SYMBOL
     0-0-0/w STRC(360)         1 BASED_LEX_SYMBOL_WORDS
     0-0-0/w STRC(288)         1 BINARY_OP                  0-0-0/w STRC(396)         1 BLOCK
     0-0-0/w STRC(288)         1 CALL_STMT                  0-0-0/w STRC(396)         1 CD
     0-0-0/w CHAR(4096)        1 CHARS                      0-0-0/w STRC(396)         1 CLASS
     0-0-0/w STRC(288)         1 COMPUTE_STMT               0-0-0/w STRC(396)         1 CONDITION
     0-0-0/w STRC(396)         1 CONST                      0-0-0/w STRC(72)          1 CONT
     0-0-0/w STRC(396)         1 DB                         0-0-0/w STRC(396)         1 DCB_
     0-0-0/w STRC(288)         1 DEFERED_IDENTIFIER         0-0-0/w STRC(252)         1 DEFERED_ID_TREE
     0-0-0/w STRC(288)         1 DEFERED_QUAL_ID            0-0-0/w STRC(288)         1 DEFERED_SUM_CLAUSE
     0-0-0/w STRC(288)         1 DEFERED_SUM_CLAUSE_LIST
     0-0-0/w STRC(288)         1 DELETE_STMT                0-0-0/w STRC(288)         1 DIVIDE_STMT
     0-0-0/w STRC(396)         1 DML_ITEM                   0-0-0/w STRC(180)   r     1 ETT
     0-0-0/w STRC(396)         1 FD                         0-0-0/w STRC(288)         1 ILS_LIST
     0-0-0/w STRC(288)         1 INSPECT_1_STMT             0-0-0/w STRC(288)         1 INSPECT_2_STMT
     0-0-0/w STRC(288)         1 INSPECT_4_STMT             0-0-0/w STRC(396)         1 INTDEF
     0-0-0/w STRC(396)         1 LABEL                      0-0-0/w STRC(288)         1 LA_ITEM
     0-0-0/w STRC(504)         1 LX_CD_INPUT                0-0-0/w STRC(324)         1 LX_CD_I_O
     0-0-0/w STRC(396)         1 LX_CD_OUTPUT               0-0-0/w STRC(288)   r     1 LX_ETT_ITEM
     0-0-0/w STRC(288)   r     1 LX_ITEM                    0-0-0/w STRC(288)         1 LX_LARGE
     0-0-0/w STRC(288)         1 LX_LIST                    0-0-0/w STRC(1224)        1 LX_REC_DECL
     0-0-0/w STRC(864)         1 LX_REPORT_REC              0-0-0/w STRC(288)   r     1 LX_TERMINAL
     0-0-0/w STRC(396)         1 MNEMONIC                   0-0-0/w STRC(288)         1 MULTIPLY_STMT
     0-0-0/w STRC(36864)       1 PAGE                       0-0-0/w STRC(396)         1 PARA
     0-0-0/w STRC(396)         1 PROC_                      0-0-0/w STRC(396)         1 PROC_DEF
     0-0-0/w STRC(216)   r     1 QLT                        0-0-0/w STRC(396)         1 RD
     0-0-0/w STRC(288)         1 READ_STMT                  0-0-0/w STRC(288)         1 REWRITE_STMT
     0-0-0/w STRC(396)   r     1 SCALAR                     0-0-0/w STRC(396)         1 SD
     0-0-0/w STRC(396)         1 SECTION                    0-0-0/w STRC(396)         1 SEGMENT
     0-0-0/w STRC(396)         1 ST                         0-0-0/w STRC(288)         1 START_STMT
     0-0-0/w STRC(252)         1 STRING_STMT                0-0-0/w STRC(288)         1 SUBTRACT_STMT
     0-0-0/w STRC(396)         1 SWITCH                     0-0-0/w STRC(396)         1 SYMBOLIC_CHAR
PL6.E3A0      #009=Z8EH$CONVERT_DISPLAY File=Z8EH.:Z8A6TSI                       SAT 08/09/97 12:02 Page:187
     0-0-0/w STRC(396)         1 SYMDEF_                    0-0-0/w STRC(396)         1 SYMREF_
     0-0-0/w STRC(396)         1 TEMP                       0-0-0/w STRC(288)         1 UNARY_OP
     0-0-0/w STRC(288)         1 UNSTRING_STMT              0-0-0/w STRC(396)   r     1 VARIABLE
     0-0-0/w STRC(288)         1 WRITE_STMT


   Procedure Z8EH$CONVERT_DISPLAY requires 201 words for executable code.
   Procedure Z8EH$CONVERT_DISPLAY requires 28 words of local(AUTO) storage.

PL6.E3A0      #010=Z8EH$COPY_ARGS File=Z8EH.:Z8A6TSI                             SAT 08/09/97 12:04 Page:188
      896        1        /*T***********************************************************/
      897        2        /*T*                                                         */
      898        3        /*T* Copyright (c) Bull HN Information Systems Inc., 1997    */
      899        4        /*T*                                                         */
      900        5        /*T***********************************************************/
      901        6        /****************/
      902        7          Z8EH$COPY_ARGS : PROC ( LIST$ );
      903        8        /****************/
      904        9
      905       10        /*I*
      906       11                 NAME: COPY_CALL_ARGS
      907       12
      908       13          DESCRIPTION: Builds a duplicate set of identifiers and assigns the
      909       14                       values from the original identifiers into the new
      910       15                       copies.  The LX_LIST of the duplicate set of identifiers
      911       16                       is returned in TEMP_LX_NODE.
      912       17             MODIFIED:  By John Heath, 9/9/86, to save the current state of
      913       18                        O1COM.ILS_LIST, and put the ILS generated by Z8E7$MOVE
      914       19                        into the LX_ETT_ITEM for the temp arg.  Before this,
      915       20                        the Z8E7 ILS was being merged with the OVERFLOW /
      916       21                        EXCEPTION ILS, causing IC225 to fail.
      917       22        */
      918       23
      919       24    1    DCL LIST$ PTR;
      920       25
      921       26    1    DCL L$ PTR;
      922       27    1    DCL NEW_ETT$ PTR;
      923       28
      924       29         %EQU PHASE = 1;
      925       30         %INCLUDE Z8A_DEFC;
      926       98         %INCLUDE Z8A_SUPP_MAC;
      927     2498         %INCLUDE Z8E_STACKS;
      928     4764         %INCLUDE Z8A_TYPES;
      929     4938         %INCLUDE Z8A_ILL;
      930     5631         %INCLUDE Z8E_NEW_ILL;
      931     5645         %INCLUDE Z8E_O1COM;
      932     6406         %INCLUDE Z8E_HEAP;
PL6.E3A0      #010=Z8EH$COPY_ARGS File=Z8EH.:Z8A6TSI                             SAT 08/09/97 12:04 Page:189
      933     6462         %INCLUDE Z8E_ABSSYN;
      934     6668
      935     6669    1    DCL Z8EU$NEW_TEMP_FROM_ETT         ENTRY(2);
      936     6670    1    DCL Z8E7$MOVE                      ENTRY(2);
      937     6671    1    DCL Z8ED$DISPOSE_ABSSYN_TREE       ENTRY(1);
      938     6672    1    DCL Z8AN$NEW_ILL1                  ENTRY(5);
      939     6673
      940     6674
      941     6675           %DCL_AUTO_LX_ITEM (@NAME = SAVE_O1COM_ILS_LIST) ;
      942     6679
      943     6680        %INIT_LX_LIST(@POINTER = "ADDR(TEMP_LX_NODE)");
      944     6690
      945     6691    1           SAVE_O1COM_ILS_LIST = O1COM.ILS_LIST ;
      946     6692    1           L$ = LIST$ -> LX_LIST.HEAD$;
      947     6693    2           DO WHILE L$ ~= ADDR(NIL);
      948     6694
      949     6695                   %INIT_ILS_LIST (@POINTER = "ADDR(O1COM.ILS_LIST)") ;
      950     6703                   %NEW (@TEMPLATE = LX_ETT_ITEM,
      951     6704                   @POINTER = NEW_ETT$);
      952     6714
      953     6715    2              CALL Z8EU$NEW_TEMP_FROM_ETT (L$ -> LX_ETT_ITEM.ETT$,
      954     6716    2                NEW_ETT$);
      955     6717
      956     6718
      957     6719    2              IF L$ -> LX_ETT_ITEM.TYPE = %TYP THEN
      958     6720    3                DO;
      959     6721    3                  CALL Z8AN$NEW_ILL1 (%ONE_REDEF, %MVPP, ILL$,
      960     6722    3                                      ADDR(O1COM.ILS_LIST),
      961     6723    3                                      NEW_ETT$ -> LX_ETT_ITEM.ETT$);
      962     6724
      963     6725    3                  ILL$ -> BINARY_ILL.LOP = NEW_ETT$ -> LX_ETT_ITEM.ETT$;
      964     6726    3                  ILL$ -> BINARY_ILL.ROP = L$ -> LX_ETT_ITEM.ETT$;
      965     6727    3                END;
      966     6728    2              ELSE
      967     6729    2                CALL Z8E7$MOVE (NEW_ETT$, L$);
      968     6730
      969     6731
PL6.E3A0      #010=Z8EH$COPY_ARGS File=Z8EH.:Z8A6TSI                             SAT 08/09/97 12:04 Page:190
      970     6732                   %NEW (@TEMPLATE = ILS_LIST,
      971     6733                         @POINTER  = NEW_ETT$ -> LX_ETT_ITEM.BY_CONTENT_ILS_LIST$) ;
      972     6743    2              NEW_ETT$ -> LX_ETT_ITEM.BY_CONTENT_ILS_LIST$ -> ILS_LIST =
      973     6744    2                                                        O1COM.ILS_LIST ;
      974     6745
      975     6746                   %ADD_LX_ITEM_TO_LIST_TAIL (@FROM$ = NEW_ETT$,
      976     6747                   @LIST$ = "ADDR(TEMP_LX_NODE)");
      977     6763
      978     6764    2              L$ = L$ -> LX_ETT_ITEM.LINK;
      979     6765    2              END;                         /* Do while                           */
      980     6766    1           O1COM.ILS_LIST = SAVE_O1COM_ILS_LIST ;
      981     6767
      982     6768    1           CALL Z8ED$DISPOSE_ABSSYN_TREE (LIST$ -> LX_LIST.HEAD$);
      983     6769
      984     6770    1   END Z8EH$COPY_ARGS;
      985     6771        %EOD;

PL6.E3A0      #010=Z8EH$COPY_ARGS File=Z8EH.:Z8A6TSI                             SAT 08/09/97 12:04 Page:191
--  Include file information  --

   Z8E_ABSSYN.:Z8A6TOU  cannot be made into a system file and is referenced.
   Z8E_HEAP.:Z8A6TOU  cannot be made into a system file and is referenced.
   Z8E_O1COM.:Z8A6TOU  cannot be made into a system file and is referenced.
   Z8E_NEW_ILL.:Z8A6TOU  is referenced.
   Z8A_ILL.:Z8A6TOU  cannot be made into a system file and is referenced.
   Z8A_TYPES.:Z8A6TOU  is referenced.
   Z8A_LEX_SYMB.:Z8A6TOU  cannot be made into a system file and is referenced.
   Z8E_STACKS.:Z8A6TOU  cannot be made into a system file and is referenced.
   X8A_COM_MACS.:X8A6TOU  is referenced.
   Z8A_NAMES.:Z8A6TOU  is referenced.
   Z8A_SUPP_MAC.:Z8A6TOU  is referenced.
   Z8A_DEFC.:Z8A6TOU  cannot be made into a system file and is referenced.
      No diagnostics issued in procedure Z8EH$COPY_ARGS.

   Procedure Z8EH$COPY_ARGS requires 122 words for executable code.
   Procedure Z8EH$COPY_ARGS requires 20 words of local(AUTO) storage.

PL6.E3A0      #010=Z8EH$COPY_ARGS File=Z8EH.:Z8A6TSI                             SAT 08/09/97 12:04 Page:192

 Object Unit name= Z8EH$COPY_ARGS                             File name= Z8EH.:Z8A6TOU
 UTS= AUG 09 '97 12:04:13.68 SAT                              Compiler= PL-6/E31         Sev=      00
 SharedLib= :SHARED_SYSTEM                                    Alt SharedLib=


    ****  Control sections  ****

 Sect   Type Bound  Init  Size OctSiz  Section name(segment info)
    0  LblCom even  none     1      1  ITERATION
    1  LblCom even  none    90    132  LEX_SYMBOL
    2  LblCom even  none     1      1  CURRENT_LEX_SYMBOL$
    3  LblCom even  none    90    132  TEMP_LEX_SYMBOL
    4  LblCom even  none    90    132  TEMP_LEX_SYMBOL2
    5  LblCom even  none     1      1  ILL$
    6  LblCom even  none     5      5  ILL_
    7  LblCom even  none     1      1  HEAP$
    8  LblCom even  none     8     10  TEMP_LX_NODE
    9   Proc  even  none   122    172  Z8EH$COPY_ARGS
   10  RoData even  none    12     14  Z8EH$COPY_ARGS

    ****  Entry defs  ****

                              Check   Calling
                             calling  sequence
  Sect OctLoc Primary Altret sequence   type   Parms  Name
     9      0   yes            yes      Std        1  Z8EH$COPY_ARGS
PL6.E3A0      #010=Z8EH$COPY_ARGS File=Z8EH.:Z8A6TSI                             SAT 08/09/97 12:04 Page:193

  ****  Entry refs  ****

         Check        Calling
        calling       sequence
Altret sequence SRef   type   Args  Name
         yes           Std       2 Z8ED$NEW_HEAP
         yes           Std       2 Z8EU$NEW_TEMP_FROM_ETT
         yes           Std       1 Z8ED$DISPOSE_ABSSYN_TREE
         yes           Std       5 Z8AN$NEW_ILL1
         yes           Std       2 Z8E7$MOVE
                       nStd      0 X66_AUTO_1
                       nStd      0 X66_ARET

  ****  Data refs  ****

  Flags:  r = read only, s = secondary
Flgs Name                             Flgs Name                             Flgs Name
r    ILL_STEP                              O1COM                                 HIER_STK_PTR
     HIER_STK                              PAGE_FORMAT                           REP_STK_PTR
     REP_STK

  ****  Segment refs  ****

  Flags:  r = read only, s = secondary
Flgs Name                             Flgs Name                             Flgs Name
     ISSID                                 NULLSID
PL6.E3A0      #010=Z8EH$COPY_ARGS File=Z8EH.:Z8A6TSI                             SAT 08/09/97 12:04 Page:194


      896        1        /*T***********************************************************/
      897        2        /*T*                                                         */
      898        3        /*T* Copyright (c) Bull HN Information Systems Inc., 1997    */
      899        4        /*T*                                                         */
      900        5        /*T***********************************************************/
      901        6        /****************/
      902        7          Z8EH$COPY_ARGS : PROC ( LIST$ );

      7  9 000000   000000 700200 xent  Z8EH$COPY_A* TSX0  ! X66_AUTO_1
         9 000001   000024 000001                    ZERO    20,1

      903        8        /****************/
      904        9
      905       10        /*I*
      906       11                 NAME: COPY_CALL_ARGS
      907       12
      908       13          DESCRIPTION: Builds a duplicate set of identifiers and assigns the
      909       14                       values from the original identifiers into the new
      910       15                       copies.  The LX_LIST of the duplicate set of identifiers
      911       16                       is returned in TEMP_LX_NODE.
      912       17             MODIFIED:  By John Heath, 9/9/86, to save the current state of
      913       18                        O1COM.ILS_LIST, and put the ILS generated by Z8E7$MOVE
      914       19                        into the LX_ETT_ITEM for the temp arg.  Before this,
      915       20                        the Z8E7 ILS was being merged with the OVERFLOW /
      916       21                        EXCEPTION ILS, causing IC225 to fail.
      917       22        */
      918       23
      919       24    1    DCL LIST$ PTR;
      920       25
      921       26    1    DCL L$ PTR;
      922       27    1    DCL NEW_ETT$ PTR;
      923       28
      924       29         %EQU PHASE = 1;
      925       30         %INCLUDE Z8A_DEFC;
      926       98         %INCLUDE Z8A_SUPP_MAC;
      927     2498         %INCLUDE Z8E_STACKS;
PL6.E3A0      #010=Z8EH$COPY_ARGS File=Z8EH.:Z8A6TSI                             SAT 08/09/97 12:04 Page:195
      928     4764         %INCLUDE Z8A_TYPES;
      929     4938         %INCLUDE Z8A_ILL;
      930     5631         %INCLUDE Z8E_NEW_ILL;
      931     5645         %INCLUDE Z8E_O1COM;
      932     6406         %INCLUDE Z8E_HEAP;
      933     6462         %INCLUDE Z8E_ABSSYN;
      934     6668
      935     6669    1    DCL Z8EU$NEW_TEMP_FROM_ETT         ENTRY(2);
      936     6670    1    DCL Z8E7$MOVE                      ENTRY(2);
      937     6671    1    DCL Z8ED$DISPOSE_ABSSYN_TREE       ENTRY(1);
      938     6672    1    DCL Z8AN$NEW_ILL1                  ENTRY(5);
      939     6673
      940     6674
      941     6675           %DCL_AUTO_LX_ITEM (@NAME = SAVE_O1COM_ILS_LIST) ;
      942     6679
      943     6680        %INIT_LX_LIST(@POINTER = "ADDR(TEMP_LX_NODE)");

   6682  9 000002   000002 220003                    LDX0    2,DU
         9 000003   000000 740000 8                  STX0    TEMP_LX_NODE

   6683  9 000004   000000 221003                    LDX1    0,DU
         9 000005   000000 441000 8                  SXL1    TEMP_LX_NODE

   6684  9 000006   000000 236000 10                 LDQ     0
         9 000007   000001 756000 8                  STQ     TEMP_LX_NODE+1

   6685  9 000010   000004 756000 8                  STQ     TEMP_LX_NODE+4

   6686  9 000011   000007 756000 8                  STQ     TEMP_LX_NODE+7

   6687  9 000012   000002 450000 8                  STZ     TEMP_LX_NODE+2

      944     6690
      945     6691    1           SAVE_O1COM_ILS_LIST = O1COM.ILS_LIST ;

   6691  9 000013   000100 100400                    MLR     fill='000'O
         9 000014   000016 000040 xsym               ADSC9   O1COM+14                 cn=0,n=32
PL6.E3A0      #010=Z8EH$COPY_ARGS File=Z8EH.:Z8A6TSI                             SAT 08/09/97 12:04 Page:196
         9 000015   200006 000040                    ADSC9   SAVE_O1COM_ILS_LIST,,AUTO cn=0,n=32

      946     6692    1           L$ = LIST$ -> LX_LIST.HEAD$;

   6692  9 000016   200003 470500                    LDP0    @LIST$,,AUTO
         9 000017   000000 471500                    LDP1    0,,PR0
         9 000020   100004 236100                    LDQ     4,,PR1
         9 000021   200004 756100                    STQ     L$,,AUTO

      947     6693    2           DO WHILE L$ ~= ADDR(NIL);

   6693  9 000022   000154 710000 9                  TRA     s:6765

      948     6694
      949     6695                   %INIT_ILS_LIST (@POINTER = "ADDR(O1COM.ILS_LIST)") ;

   6697  9 000023   000007 220003                    LDX0    7,DU
         9 000024   000016 740000 xsym               STX0    O1COM+14

   6698  9 000025   000000 236000 10                 LDQ     0
         9 000026   000017 756000 xsym               STQ     O1COM+15

   6699  9 000027   000020 756000 xsym               STQ     O1COM+16

   6700  9 000030   000025 756000 xsym               STQ     O1COM+21

      950     6703                   %NEW (@TEMPLATE = LX_ETT_ITEM,
      951     6704                   @POINTER = NEW_ETT$);

   6710  9 000031   000003 236000 10                 LDQ     3
         9 000032   200017 756100                    STQ     SAVE_O1COM_ILS_LIST+9,,AUTO
         9 000033   200005 630500                    EPPR0   NEW_ETT$,,AUTO
         9 000034   200016 450500                    STP0    SAVE_O1COM_ILS_LIST+8,,AUTO
         9 000035   200016 630500                    EPPR0   SAVE_O1COM_ILS_LIST+8,,AUTO
         9 000036   000001 631400 10                 EPPR1   1
         9 000037   000000 701000 xent               TSX1    Z8ED$NEW_HEAP
         9 000040   000000 011000                    NOP     0
PL6.E3A0      #010=Z8EH$COPY_ARGS File=Z8EH.:Z8A6TSI                             SAT 08/09/97 12:04 Page:197

      952     6714
      953     6715    2              CALL Z8EU$NEW_TEMP_FROM_ETT (L$ -> LX_ETT_ITEM.ETT$,

   6715  9 000041   200005 630500                    EPPR0   NEW_ETT$,,AUTO
         9 000042   200017 450500                    STP0    SAVE_O1COM_ILS_LIST+9,,AUTO
         9 000043   200004 236100                    LDQ     L$,,AUTO
         9 000044   000001 036003                    ADLQ    1,DU
         9 000045   200016 756100                    STQ     SAVE_O1COM_ILS_LIST+8,,AUTO
         9 000046   200016 630500                    EPPR0   SAVE_O1COM_ILS_LIST+8,,AUTO
         9 000047   000001 631400 10                 EPPR1   1
         9 000050   000000 701000 xent               TSX1    Z8EU$NEW_TEMP_FROM_ETT
         9 000051   000000 011000                    NOP     0

      954     6716    2                NEW_ETT$);
      955     6717
      956     6718
      957     6719    2              IF L$ -> LX_ETT_ITEM.TYPE = %TYP THEN

   6719  9 000052   200004 470500                    LDP0    L$,,AUTO
         9 000053   000004 235100                    LDA     4,,PR0
         9 000054   000022 115007                    CMPA    18,DL
         9 000055   000105 601000 9                  TNZ     s:6729

      958     6720    3                DO;

      959     6721    3                  CALL Z8AN$NEW_ILL1 (%ONE_REDEF, %MVPP, ILL$,

   6721  9 000056   000007 236000 10                 LDQ     7
         9 000057   200016 756100                    STQ     SAVE_O1COM_ILS_LIST+8,,AUTO
         9 000060   200005 236100                    LDQ     NEW_ETT$,,AUTO
         9 000061   000001 036003                    ADLQ    1,DU
         9 000062   200023 756100                    STQ     SAVE_O1COM_ILS_LIST+13,,AUTO
         9 000063   200016 631500                    EPPR1   SAVE_O1COM_ILS_LIST+8,,AUTO
         9 000064   200022 451500                    STP1    SAVE_O1COM_ILS_LIST+12,,AUTO
         9 000065   000010 237000 10                 LDAQ    8
         9 000066   200020 757100                    STAQ    SAVE_O1COM_ILS_LIST+10,,AUTO
PL6.E3A0      #010=Z8EH$COPY_ARGS File=Z8EH.:Z8A6TSI                             SAT 08/09/97 12:04 Page:198
         9 000067   000012 236000 10                 LDQ     10
         9 000070   200017 756100                    STQ     SAVE_O1COM_ILS_LIST+9,,AUTO
         9 000071   200017 630500                    EPPR0   SAVE_O1COM_ILS_LIST+9,,AUTO
         9 000072   000004 631400 10                 EPPR1   4
         9 000073   000000 701000 xent               TSX1    Z8AN$NEW_ILL1
         9 000074   000000 011000                    NOP     0

      960     6722    3                                      ADDR(O1COM.ILS_LIST),
      961     6723    3                                      NEW_ETT$ -> LX_ETT_ITEM.ETT$);
      962     6724
      963     6725    3                  ILL$ -> BINARY_ILL.LOP = NEW_ETT$ -> LX_ETT_ITEM.ETT$;

   6725  9 000075   200005 470500                    LDP0    NEW_ETT$,,AUTO
         9 000076   000001 236100                    LDQ     1,,PR0
         9 000077   000000 471400 5                  LDP1    ILL$
         9 000100   100001 756100                    STQ     1,,PR1

      964     6726    3                  ILL$ -> BINARY_ILL.ROP = L$ -> LX_ETT_ITEM.ETT$;

   6726  9 000101   200004 470500                    LDP0    L$,,AUTO
         9 000102   000001 236100                    LDQ     1,,PR0
         9 000103   100002 756100                    STQ     2,,PR1

      965     6727    3                END;

   6727  9 000104   000115 710000 9                  TRA     s:6739

      966     6728    2              ELSE
      967     6729    2                CALL Z8E7$MOVE (NEW_ETT$, L$);

   6729  9 000105   200004 631500                    EPPR1   L$,,AUTO
         9 000106   200017 451500                    STP1    SAVE_O1COM_ILS_LIST+9,,AUTO
         9 000107   200005 633500                    EPPR3   NEW_ETT$,,AUTO
         9 000110   200016 453500                    STP3    SAVE_O1COM_ILS_LIST+8,,AUTO
         9 000111   200016 630500                    EPPR0   SAVE_O1COM_ILS_LIST+8,,AUTO
         9 000112   000001 631400 10                 EPPR1   1
         9 000113   000000 701000 xent               TSX1    Z8E7$MOVE
PL6.E3A0      #010=Z8EH$COPY_ARGS File=Z8EH.:Z8A6TSI                             SAT 08/09/97 12:04 Page:199
         9 000114   000000 011000                    NOP     0

      968     6730
      969     6731
      970     6732                   %NEW (@TEMPLATE = ILS_LIST,
      971     6733                         @POINTER  = NEW_ETT$ -> LX_ETT_ITEM.BY_CONTENT_ILS_LIST$) ;

   6739  9 000115   000003 236000 10                 LDQ     3
         9 000116   200017 756100                    STQ     SAVE_O1COM_ILS_LIST+9,,AUTO
         9 000117   200005 236100                    LDQ     NEW_ETT$,,AUTO
         9 000120   000002 036003                    ADLQ    2,DU
         9 000121   200016 756100                    STQ     SAVE_O1COM_ILS_LIST+8,,AUTO
         9 000122   200016 630500                    EPPR0   SAVE_O1COM_ILS_LIST+8,,AUTO
         9 000123   000001 631400 10                 EPPR1   1
         9 000124   000000 701000 xent               TSX1    Z8ED$NEW_HEAP
         9 000125   000000 011000                    NOP     0

      972     6743    2              NEW_ETT$ -> LX_ETT_ITEM.BY_CONTENT_ILS_LIST$ -> ILS_LIST =

   6743  9 000126   200005 470500                    LDP0    NEW_ETT$,,AUTO
         9 000127   000002 471500                    LDP1    2,,PR0
         9 000130   000100 100400                    MLR     fill='000'O
         9 000131   000016 000040 xsym               ADSC9   O1COM+14                 cn=0,n=32
         9 000132   100000 000040                    ADSC9   0,,PR1                   cn=0,n=32

      973     6744    2                                                        O1COM.ILS_LIST ;
      974     6745
      975     6746                   %ADD_LX_ITEM_TO_LIST_TAIL (@FROM$ = NEW_ETT$,
      976     6747                   @LIST$ = "ADDR(TEMP_LX_NODE)");

   6749  9 000133   000000 236000 10                 LDQ     0
         9 000134   200005 470500                    LDP0    NEW_ETT$,,AUTO
         9 000135   000007 756100                    STQ     7,,PR0

   6750  9 000136   000002 235000 8                  LDA     TEMP_LX_NODE+2
         9 000137   000144 601000 9                  TNZ     s:6757

PL6.E3A0      #010=Z8EH$COPY_ARGS File=Z8EH.:Z8A6TSI                             SAT 08/09/97 12:04 Page:200
   6752  9 000140   200005 236100                    LDQ     NEW_ETT$,,AUTO
         9 000141   000004 756000 8                  STQ     TEMP_LX_NODE+4

   6753  9 000142   000001 756000 8                  STQ     TEMP_LX_NODE+1

   6754  9 000143   000150 710000 9                  TRA     s:6760

   6757  9 000144   200005 236100                    LDQ     NEW_ETT$,,AUTO
         9 000145   000001 471400 8                  LDP1    TEMP_LX_NODE+1
         9 000146   100007 756100                    STQ     7,,PR1

   6758  9 000147   000001 756000 8                  STQ     TEMP_LX_NODE+1

   6760  9 000150   000002 054000 8                  AOS     TEMP_LX_NODE+2

      977     6763
      978     6764    2              L$ = L$ -> LX_ETT_ITEM.LINK;

   6764  9 000151   200004 471500                    LDP1    L$,,AUTO
         9 000152   100007 236100                    LDQ     7,,PR1
         9 000153   200004 756100                    STQ     L$,,AUTO

      979     6765    2              END;                         /* Do while                           */

   6765  9 000154   000000 116000 10                 CMPQ    0
         9 000155   000023 601000 9                  TNZ     s:6697

      980     6766    1           O1COM.ILS_LIST = SAVE_O1COM_ILS_LIST ;

   6766  9 000156   000000 100500                    MLR     fill='000'O
         9 000157   200006 000040                    ADSC9   SAVE_O1COM_ILS_LIST,,AUTO cn=0,n=32
         9 000160   000016 000040 xsym               ADSC9   O1COM+14                 cn=0,n=32

      981     6767
      982     6768    1           CALL Z8ED$DISPOSE_ABSSYN_TREE (LIST$ -> LX_LIST.HEAD$);

   6768  9 000161   200003 470500                    LDP0    @LIST$,,AUTO
PL6.E3A0      #010=Z8EH$COPY_ARGS File=Z8EH.:Z8A6TSI                             SAT 08/09/97 12:04 Page:201
         9 000162   000000 471500                    LDP1    0,,PR0
         9 000163   100004 633500                    EPPR3   4,,PR1
         9 000164   200016 453500                    STP3    SAVE_O1COM_ILS_LIST+8,,AUTO
         9 000165   200016 630500                    EPPR0   SAVE_O1COM_ILS_LIST+8,,AUTO
         9 000166   000013 631400 10                 EPPR1   11
         9 000167   000000 701000 xent               TSX1    Z8ED$DISPOSE_ABSSYN_TREE
         9 000170   000000 011000                    NOP     0

      983     6769
      984     6770    1   END Z8EH$COPY_ARGS;

   6770  9 000171   000000 702200 xent               TSX2  ! X66_ARET
      985     6771        %EOD;

PL6.E3A0      #010=Z8EH$COPY_ARGS File=Z8EH.:Z8A6TSI                             SAT 08/09/97 12:04 Page:202
--  Include file information  --

   Z8E_ABSSYN.:Z8A6TOU  cannot be made into a system file and is referenced.
   Z8E_HEAP.:Z8A6TOU  cannot be made into a system file and is referenced.
   Z8E_O1COM.:Z8A6TOU  cannot be made into a system file and is referenced.
   Z8E_NEW_ILL.:Z8A6TOU  is referenced.
   Z8A_ILL.:Z8A6TOU  cannot be made into a system file and is referenced.
   Z8A_TYPES.:Z8A6TOU  is referenced.
   Z8A_LEX_SYMB.:Z8A6TOU  cannot be made into a system file and is referenced.
   Z8E_STACKS.:Z8A6TOU  cannot be made into a system file and is referenced.
   X8A_COM_MACS.:X8A6TOU  is referenced.
   Z8A_NAMES.:Z8A6TOU  is referenced.
   Z8A_SUPP_MAC.:Z8A6TOU  is referenced.
   Z8A_DEFC.:Z8A6TOU  cannot be made into a system file and is referenced.
      No diagnostics issued in procedure Z8EH$COPY_ARGS.
PL6.E3A0      #010=Z8EH$COPY_ARGS File=Z8EH.:Z8A6TSI                             SAT 08/09/97 12:04 Page:203

 **** Variables and constants ****

  ****  Section 000 LblCom ITERATION

  ****  Scalars and arrays  ****
OctLoc.c.b A Datatyp(siz) R M Lvl/name                 OctLoc.c.b A Datatyp(siz) R M Lvl/name

     0-0-0/w SBIN              1 ITERATION

  ****  Section 001 LblCom LEX_SYMBOL

  ****  Scalars and arrays  ****
OctLoc.c.b A Datatyp(siz) R M Lvl/name                 OctLoc.c.b A Datatyp(siz) R M Lvl/name

     0-0-0/w STRC(3240)  r     1 LEX_SYMBOL                 0-0-0/w STRC(3240)        1 LEX_SYMBOL_WORDS

  ****  Section 002 LblCom CURRENT_LEX_SYMBOL$

  ****  Scalars and arrays  ****
OctLoc.c.b A Datatyp(siz) R M Lvl/name                 OctLoc.c.b A Datatyp(siz) R M Lvl/name

     0-0-0/w PTR         r     1 CURRENT_LEX_SYMBOL$

  ****  Section 003 LblCom TEMP_LEX_SYMBOL

  ****  Scalars and arrays  ****
OctLoc.c.b A Datatyp(siz) R M Lvl/name                 OctLoc.c.b A Datatyp(siz) R M Lvl/name

     0-0-0/w STRC(3240)        1 TEMP_LEX_SYMBOL

  ****  Section 004 LblCom TEMP_LEX_SYMBOL2

  ****  Scalars and arrays  ****
OctLoc.c.b A Datatyp(siz) R M Lvl/name                 OctLoc.c.b A Datatyp(siz) R M Lvl/name

     0-0-0/w STRC(3240)        1 TEMP_LEX_SYMBOL2

PL6.E3A0      #010=Z8EH$COPY_ARGS File=Z8EH.:Z8A6TSI                             SAT 08/09/97 12:04 Page:204
  ****  Section 005 LblCom ILL$

  ****  Scalars and arrays  ****
OctLoc.c.b A Datatyp(siz) R M Lvl/name                 OctLoc.c.b A Datatyp(siz) R M Lvl/name

     0-0-0/w PTR         r     1 ILL$

  ****  Section 006 LblCom ILL_

  ****  Scalars and arrays  ****
OctLoc.c.b A Datatyp(siz) R M Lvl/name                 OctLoc.c.b A Datatyp(siz) R M Lvl/name

     0-0-0/w STRC(180)         1 ILL_

  ****  Section 007 LblCom HEAP$

  ****  Scalars and arrays  ****
OctLoc.c.b A Datatyp(siz) R M Lvl/name                 OctLoc.c.b A Datatyp(siz) R M Lvl/name

     0-0-0/w PTR               1 HEAP$

  ****  Section 008 LblCom TEMP_LX_NODE

  ****  Scalars and arrays  ****
OctLoc.c.b A Datatyp(siz) R M Lvl/name                 OctLoc.c.b A Datatyp(siz) R M Lvl/name

     0-0-0/d STRC(288)   r     1 TEMP_LX_NODE

  ****  Auto variables  ****

  ****  Scalars and arrays  ****
OctLoc.c.b A Datatyp(siz) R M Lvl/name                 OctLoc.c.b A Datatyp(siz) R M Lvl/name

     3-0-0/w PTR         r     1 @LIST$                     4-0-0/w PTR         r     1 L$
    *0-0-0/w PTR         r     1 LIST$                      5-0-0/w PTR         r     1 NEW_ETT$
     6-0-0/d STRC(288)   r     1 SAVE_O1COM_ILS_LIST

PL6.E3A0      #010=Z8EH$COPY_ARGS File=Z8EH.:Z8A6TSI                             SAT 08/09/97 12:04 Page:205
  ****  SYMREF variables  ****

  ****  Scalars and arrays  ****
OctLoc.c.b A Datatyp(siz) R M Lvl/name                 OctLoc.c.b A Datatyp(siz) R M Lvl/name

     0-0-0/w STRC(180)         1 HIER_STK(0:50)
     0-0-0/w SBIN              1 HIER_STK_PTR               0-0-0/w UBIN              1 ILL_STEP(0:144)
     0-0-0/d STRC(11580) r     1 O1COM                      0-0-0/w STRC(144)         1 PAGE_FORMAT
     0-0-0/w STRC(153)         1 REP_STK(0:50)              0-0-0/w SBIN              1 REP_STK_PTR

  ****  BASED and DCB variables  ****

  ****  Scalars and arrays  ****
OctLoc.c.b A Datatyp(siz) R M Lvl/name                 OctLoc.c.b A Datatyp(siz) R M Lvl/name

     0-0-0/w STRC(108)         1 ACCEPT_DISPLAY             0-0-0/w STRC(288)         1 ADD_STMT
     0-0-0/w ASTR(324)   r     1 BASED_LEX_SYMBOL
     0-0-0/w STRC(360)         1 BASED_LEX_SYMBOL_WORDS
     0-0-0/w STRC(108)   r     1 BINARY_ILL                 0-0-0/w STRC(288)         1 BINARY_OP
     0-0-0/w STRC(144)         1 BRANCH_ILL                 0-0-0/w STRC(288)         1 CALL_STMT
     0-0-0/w STRC(216)         1 CCOSU                      0-0-0/w CHAR(4096)        1 CHARS
     0-0-0/w STRC(108)         1 CODED_MOVE                 0-0-0/w STRC(288)         1 COMPUTE_STMT
     0-0-0/w STRC(72)          1 CONT                       0-0-0/w STRC(288)         1 DEFERED_IDENTIFIER
     0-0-0/w STRC(252)         1 DEFERED_ID_TREE            0-0-0/w STRC(288)         1 DEFERED_QUAL_ID
     0-0-0/w STRC(288)         1 DEFERED_SUM_CLAUSE
     0-0-0/w STRC(288)         1 DEFERED_SUM_CLAUSE_LIST
     0-0-0/w STRC(144)         1 DEFLB                      0-0-0/w STRC(288)         1 DELETE_STMT
     0-0-0/w STRC(288)         1 DIVIDE_STMT                0-0-0/w STRC(144)         1 DOEND
     0-0-0/w STRC(396)         1 DO_N                       0-0-0/w STRC(180)         1 DV4I
     0-0-0/w STRC(180)         1 ENTRY_ILL                  0-0-0/w STRC(108)         1 EVALU
     0-0-0/w STRC(144)         1 GO                         0-0-0/w STRC(180)         1 ILL
     0-0-0/w STRC              1 ILL_NO_OPS                 0-0-0/w STRC(288)   r     1 ILS_LIST
     0-0-0/w STRC(288)         1 INSPECT_1_STMT             0-0-0/w STRC(288)         1 INSPECT_2_STMT
     0-0-0/w STRC(288)         1 INSPECT_4_STMT             0-0-0/w STRC(288)         1 LA_ITEM
     0-0-0/w STRC(108)         1 LINOI                      0-0-0/w STRC(504)         1 LX_CD_INPUT
     0-0-0/w STRC(324)         1 LX_CD_I_O                  0-0-0/w STRC(396)         1 LX_CD_OUTPUT
     0-0-0/w STRC(288)   r     1 LX_ETT_ITEM                0-0-0/w STRC(288)   r     1 LX_ITEM
PL6.E3A0      #010=Z8EH$COPY_ARGS File=Z8EH.:Z8A6TSI                             SAT 08/09/97 12:04 Page:206
     0-0-0/w STRC(288)         1 LX_LARGE                   0-0-0/w STRC(288)   r     1 LX_LIST
     0-0-0/w STRC(1224)        1 LX_REC_DECL                0-0-0/w STRC(864)         1 LX_REPORT_REC
     0-0-0/w STRC(288)         1 LX_TERMINAL                0-0-0/w STRC(72)          1 MFILL
     0-0-0/w STRC(288)         1 MULTIPLY_STMT              0-0-0/w STRC(180)         1 MULTI_GO
     0-0-0/w STRC(180)         1 MVEAL                      0-0-0/w STRC(108)         1 MVFIL
     0-0-0/w STRC(72)          1 MVIIS                      0-0-0/w STRC(180)         1 OS_CALL
     0-0-0/w STRC(36864)       1 PAGE                       0-0-0/w STRC(216)         1 PFORM
     0-0-0/w STRC(144)         1 PINC                       0-0-0/w STRC(144)         1 PREOFF
     0-0-0/w STRC(108)         1 PRESET                     0-0-0/w STRC(144)         1 P_A_PRESET
     0-0-0/w STRC(144)         1 P_P_PRESET                 0-0-0/w STRC(288)         1 READ_STMT
     0-0-0/w STRC(144)         1 REMEM                      0-0-0/w STRC(288)         1 REWRITE_STMT
     0-0-0/w STRC(144)         1 SCOPE                      0-0-0/w STRC(216)         1 SEARCH_
     0-0-0/w STRC(288)         1 START_STMT                 0-0-0/w STRC(72)          1 STP2
     0-0-0/w STRC(252)         1 STRING_STMT                0-0-0/w STRC(288)         1 SUBTRACT_STMT
     0-0-0/w STRC(144)         1 TRINARY_ILL                0-0-0/w STRC(72)          1 UNARY_ILL
     0-0-0/w STRC(288)         1 UNARY_OP                   0-0-0/w STRC(288)         1 UNSTRING_STMT
     0-0-0/w STRC(216)         1 USER_CALL                  0-0-0/w STRC(108)         1 VAL
     0-0-0/w STRC(108)         1 VAL_END                    0-0-0/w STRC(72)          1 WHEN
     0-0-0/w STRC(288)         1 WRITE_STMT


   Procedure Z8EH$COPY_ARGS requires 122 words for executable code.
   Procedure Z8EH$COPY_ARGS requires 20 words of local(AUTO) storage.

PL6.E3A0      #011=Z8EH$EXAMINE_R File=Z8EH.:Z8A6TSI                             SAT 08/09/97 12:05 Page:207
      986        1        /*T***********************************************************/
      987        2        /*T*                                                         */
      988        3        /*T* Copyright (c) Bull HN Information Systems Inc., 1997    */
      989        4        /*T*                                                         */
      990        5        /*T***********************************************************/
      991        6        /*-------------------*/
      992        7          Z8EH$EXAMINE_R: PROC (EXAMINE$, ID_1$, LIST$) ;
      993        8        /*-------------------*/
      994        9
      995       10        /*I*   NAME: Z8EH$EXAMINE_R (EXAMINE id1 REPLACING)
      996       11
      997       12              INPUT: EXAMINE$ - LX_TERMINAL, "EXAMINE"
      998       13                     ID_1$ ---- LX_ITEM for id1
      999       14                     LIST$ ---- LX_LIST OF PHRASES, EACH LX_LIST (ALL$, ID_4$, ID_5$)
     1000       15                     ALL$ ----- LX_TERMINAL: ALL, LEADING, FIRST, or UNTIL
     1001       16                     ID_4$ ---- LX_ITEM for id4
     1002       17                     ID_5$ ---- LX_ITEM for id5
     1003       18
     1004       19        DESCRIPTION: (3) Transforms: EXAMINE id1 REPLACING ALL/LEADING/FIRST
     1005       20                                                 id4 BY id5
     1006       21                               into: INSPECT id1 REPLACING ALL/LEADING/FIRST
     1007       22                                                 id4 BY id5
     1008       23                     (4) transforms: EXAMINE id1 REPLACING UNTIL FIRST
     1009       24                                                 id4 BY id5
     1010       25                               into: INSPECT id1 REPLACING CHARACTERS
     1011       26                                                 BY id5 BEFORE id4
     1012       27                     Calls Z8EA$INSPECT_2 to do the INSPECT semantics.
     1013       28
     1014       29        */
     1015       30
     1016       31        %EQU PHASE = 1;
     1017       32        %INCLUDE Z8A_DEFC;
     1018      100        %INCLUDE Z8A_SUPP_MAC;
     1019     2500        %INCLUDE Z8A_COMCOM;
     1020     3150        %INCLUDE Z8A_TYPES;
     1021     3324        %INCLUDE Z8E_STACKS;
     1022     5590        %INCLUDE Z8E_WINDOW;
PL6.E3A0      #011=Z8EH$EXAMINE_R File=Z8EH.:Z8A6TSI                             SAT 08/09/97 12:05 Page:208
     1023     7660        %INCLUDE Z8E_ABSSYN;
     1024     7866        %INCLUDE Z8E_HEAP;
     1025     7922    1   DCL   EXAMINE$         PTR ; /* "EXAMINE" */
     1026     7923    1   DCL   ID_1$            PTR ; /* id1 */
     1027     7924    1   DCL   LIST$            PTR ;
     1028     7925    1   DCL   PHRASE$          PTR ;
     1029     7926    1   DCL   LX_LIST1$        PTR ;
     1030     7927    1   DCL   ALL$             PTR ; /* ALL, LEADING, FIRST, or UNTIL */
     1031     7928    1   DCL   ID_4$            PTR ; /* id4 */
     1032     7929    1   DCL   ID_5$            PTR ; /* id5 */
     1033     7930    1   DCL   REPLACE$         PTR ; /* LX_LIST */
     1034     7931    1   DCL   CLAUSE$          PTR ; /* LX_LIST */
     1035     7932    1   DCL   STMT$            PTR ; /* INSPECT_2_STMT */
     1036     7933    1   DCL   LX_TERMINAL$     PTR  ;
     1037     7934    1   DCL   LX_LIST$         PTR  ;
     1038     7935
     1039     7936    1   DCL   Z8EA$INSPECT_2   ENTRY (1) ; /* Inspect Replacing semantics */
     1040     7937    1   DCL   Z8ED$DISPOSE_ABSSYN_TREE ENTRY (1) ;
     1041     7938
     1042     7939        %DCL_AUTO_LX_ITEM (@NAME = INSPECT) ;
     1043     7943
     1044     7944    1     STMT$ = ADDR (INSPECT) ;
     1045     7945
     1046     7946    1     STMT$ -> INSPECT_2_STMT.ID     = %INSPECT_2 ;
     1047     7947    1     STMT$ -> INSPECT_2_STMT.KEY_WORD$ = EXAMINE$ ;
     1048     7948    1     STMT$ -> INSPECT_2_STMT.ID_1$  = ID_1$ ;
     1049     7949    1     STMT$ -> INSPECT_2_STMT.LINE   = EXAMINE$ -> LX_TERMINAL.LINE ;
     1050     7950    1     STMT$ -> INSPECT_2_STMT.COLUMN = EXAMINE$ -> LX_TERMINAL.COLUMN ;
     1051     7951
     1052     7952    1     PHRASE$ = LIST$ -> LX_LIST.HEAD$ ;
     1053     7953
     1054     7954          /* (3) & (4) LX_LIST (REPLACE$) */
     1055     7955
     1056     7956          %NEW (@TEMPLATE = LX_LIST,
     1057     7957                @POINTER  = LX_LIST1$) ;
     1058     7967          %INIT_LX_LIST (@POINTER = LX_LIST1$) ;
     1059     7977
PL6.E3A0      #011=Z8EH$EXAMINE_R File=Z8EH.:Z8A6TSI                             SAT 08/09/97 12:05 Page:209
     1060     7978    2     DO UNTIL  PHRASE$ = ADDR (NIL) ;
     1061     7979
     1062     7980    2       ALL$ = PHRASE$ -> LX_LIST.HEAD$ ;
     1063     7981            %NEW_COPY_LX_ITEM (@FROM$ = PHRASE$ -> LX_LIST.TAIL$,
     1064     7982                               @TO$   = ID_5$) ;
     1065     7994            %NEW_COPY_LX_ITEM (@FROM$ = ALL$ -> LX_LIST.LINK,
     1066     7995                               @TO$   = ID_4$) ;
     1067     8007
     1068     8008            /* (3) LX_LIST (id4, id5, EMPTY) */
     1069     8009            /* (4) LX_LIST (BEFORE, id4)     */
     1070     8010
     1071     8011            %NEW (@TEMPLATE = LX_TERMINAL,
     1072     8012                  @POINTER  = LX_TERMINAL$) ;
     1073     8022
     1074     8023            %NEW (@TEMPLATE = LX_LIST,
     1075     8024                  @POINTER  = CLAUSE$) ;
     1076     8034
     1077     8035            %INIT_LX_LIST (@POINTER = CLAUSE$) ;
     1078     8045
     1079     8046    3       IF ALL$ -> LX_TERMINAL.SYMBOL = %RSV_WRD_UNTIL THEN DO ;
     1080     8047
     1081     8048              %INIT_LX_TERMINAL (@POINTER = LX_TERMINAL$,
     1082     8049                                 @SYMBOL  = %RSV_WRD_BEFORE) ;
     1083     8067
     1084     8068              %ADD_LX_ITEM_TO_LIST_TAIL (@LIST$ = CLAUSE$,
     1085     8069                                         @FROM$ = LX_TERMINAL$) ;
     1086     8085
     1087     8086    3       END ; /* UNTIL */
     1088     8087
     1089     8088            %ADD_LX_ITEM_TO_LIST_TAIL (@LIST$ = CLAUSE$,
     1090     8089                                       @FROM$ = ID_4$) ;
     1091     8105
     1092     8106    3       IF ALL$ -> LX_TERMINAL.SYMBOL ~= %RSV_WRD_UNTIL THEN DO ;
     1093     8107
     1094     8108              %ADD_LX_ITEM_TO_LIST_TAIL (@LIST$ = CLAUSE$,
     1095     8109                                         @FROM$ = ID_5$) ;
     1096     8125
PL6.E3A0      #011=Z8EH$EXAMINE_R File=Z8EH.:Z8A6TSI                             SAT 08/09/97 12:05 Page:210
     1097     8126              %INIT_LX_TERMINAL (@POINTER = LX_TERMINAL$,
     1098     8127                                 @SYMBOL  = %RSV_WRD_EMPTY) ;
     1099     8145
     1100     8146              %ADD_LX_ITEM_TO_LIST_TAIL (@LIST$ = CLAUSE$,
     1101     8147                                         @FROM$ = LX_TERMINAL$) ;
     1102     8163
     1103     8164    3       END ; /* ALL, LEADING, or FIRST */
     1104     8165
     1105     8166            /* (3) & (4) LX_LIST (CLAUSE$) */
     1106     8167
     1107     8168            %NEW (@TEMPLATE = LX_LIST,
     1108     8169                  @POINTER  = LX_LIST$) ;
     1109     8179
     1110     8180            %INIT_LX_LIST (@POINTER = LX_LIST$,
     1111     8181                           @HEAD$   = CLAUSE$,
     1112     8182                           @TAIL$   = CLAUSE$,
     1113     8183                           @COUNT   = 1) ;
     1114     8193
     1115     8194            /* (3) LX_LIST (ALL/LEADING/FIRST, LX_LIST) */
     1116     8195            /* (4) LX_LIST (CHARACTERS, id5, LX_LIST) */
     1117     8196
     1118     8197            %NEW (@TEMPLATE = LX_TERMINAL,
     1119     8198                  @POINTER  = LX_TERMINAL$) ;
     1120     8208
     1121     8209            %NEW (@TEMPLATE = LX_LIST,
     1122     8210                  @POINTER  = REPLACE$) ;
     1123     8220
     1124     8221            %INIT_LX_LIST (@POINTER = REPLACE$) ;
     1125     8231
     1126     8232    3       IF ALL$ -> LX_TERMINAL.SYMBOL = %RSV_WRD_UNTIL THEN DO ;
     1127     8233
     1128     8234              %INIT_LX_TERMINAL (@POINTER = LX_TERMINAL$,
     1129     8235                                 @SYMBOL  = %RSV_WRD_CHARACTERS) ;
     1130     8253
     1131     8254              %ADD_LX_ITEM_TO_LIST_TAIL (@LIST$ = REPLACE$,
     1132     8255                                         @FROM$ = LX_TERMINAL$) ;
     1133     8271
PL6.E3A0      #011=Z8EH$EXAMINE_R File=Z8EH.:Z8A6TSI                             SAT 08/09/97 12:05 Page:211
     1134     8272              %ADD_LX_ITEM_TO_LIST_TAIL (@LIST$ = REPLACE$,
     1135     8273                                         @FROM$ = ID_5$) ;
     1136     8289
     1137     8290    3       END ; /* (4) UNTIL */
     1138     8291
     1139     8292    3       ELSE DO ; /* (3) ALL, LEADING, or FIRST */
     1140     8293
     1141     8294              %INIT_LX_TERMINAL (@POINTER = LX_TERMINAL$,
     1142     8295                                 @SYMBOL  = "ALL$ -> LX_TERMINAL.SYMBOL") ;
     1143     8313
     1144     8314              %ADD_LX_ITEM_TO_LIST_TAIL (@LIST$ = REPLACE$,
     1145     8315                                         @FROM$ = LX_TERMINAL$) ;
     1146     8331
     1147     8332    3       END ; /* (3) ALL, LEADING, or FIRST */
     1148     8333
     1149     8334            %ADD_LX_ITEM_TO_LIST_TAIL (@LIST$ = REPLACE$,
     1150     8335                                       @FROM$ = LX_LIST$) ;
     1151     8351
     1152     8352            %ADD_LX_ITEM_TO_LIST_TAIL (@LIST$ = LX_LIST1$,
     1153     8353                                       @FROM$ = REPLACE$) ;
     1154     8369
     1155     8370    2       PHRASE$ = PHRASE$ -> LX_ITEM.LINK ;
     1156     8371    2     END ; /* UNTIL PHRASE$ = ADDR (NIL) */
     1157     8372
     1158     8373          /* Call Inspect Replacing semantics */
     1159     8374
     1160     8375    1     STMT$ -> INSPECT_2_STMT.INSP_2_REPLACE$ = LX_LIST1$ ;
     1161     8376
     1162     8377    1     CALL Z8EA$INSPECT_2 (STMT$) ;
     1163     8378
     1164     8379    1     CALL Z8ED$DISPOSE_ABSSYN_TREE (LX_LIST1$) ;
     1165     8380
     1166     8381    1   END Z8EH$EXAMINE_R ;
     1167     8382        %EOD;

PL6.E3A0      #011=Z8EH$EXAMINE_R File=Z8EH.:Z8A6TSI                             SAT 08/09/97 12:05 Page:212
--  Include file information  --

   Z8E_HEAP.:Z8A6TOU  cannot be made into a system file and is referenced.
   Z8E_ABSSYN.:Z8A6TOU  cannot be made into a system file and is referenced.
   Z8E_WINDOW.:Z8A6TOU  is referenced.
   Z8A_LEX_SYMB.:Z8A6TOU  cannot be made into a system file and is referenced.
   Z8E_STACKS.:Z8A6TOU  cannot be made into a system file and is referenced.
   Z8A_TYPES.:Z8A6TOU  is referenced.
   Z8A_COMCOM.:Z8A6TOU  cannot be made into a system file and is referenced.
   X8A_COM_MACS.:X8A6TOU  is referenced.
   Z8A_NAMES.:Z8A6TOU  is referenced.
   Z8A_SUPP_MAC.:Z8A6TOU  is referenced.
   Z8A_DEFC.:Z8A6TOU  cannot be made into a system file and is referenced.
      No diagnostics issued in procedure Z8EH$EXAMINE_R.

   Procedure Z8EH$EXAMINE_R requires 479 words for executable code.
   Procedure Z8EH$EXAMINE_R requires 26 words of local(AUTO) storage.

PL6.E3A0      #011=Z8EH$EXAMINE_R File=Z8EH.:Z8A6TSI                             SAT 08/09/97 12:05 Page:213

 Object Unit name= Z8EH$EXAMINE_R                             File name= Z8EH.:Z8A6TOU
 UTS= AUG 09 '97 12:05:17.68 SAT                              Compiler= PL-6/E31         Sev=      00
 SharedLib= :SHARED_SYSTEM                                    Alt SharedLib=


    ****  Control sections  ****

 Sect   Type Bound  Init  Size OctSiz  Section name(segment info)
    0  LblCom even  none     1      1  ITERATION
    1  LblCom even  none    90    132  LEX_SYMBOL
    2  LblCom even  none     1      1  CURRENT_LEX_SYMBOL$
    3  LblCom even  none    90    132  TEMP_LEX_SYMBOL
    4  LblCom even  none    90    132  TEMP_LEX_SYMBOL2
    5  LblCom even  none     8     10  TEMP_LX_NODE
    6  LblCom even  none     1      1  HEAP$
    7   Proc  even  none   479    737  Z8EH$EXAMINE_R
    8  RoData even  none     5      5  Z8EH$EXAMINE_R

    ****  Entry defs  ****

                              Check   Calling
                             calling  sequence
  Sect OctLoc Primary Altret sequence   type   Parms  Name
     7      0   yes            yes      Std        3  Z8EH$EXAMINE_R

  ****  Entry refs  ****

         Check        Calling
        calling       sequence
Altret sequence SRef   type   Args  Name
         yes           Std       2 Z8ED$NEW_HEAP
         yes           Std       1 Z8EA$INSPECT_2
         yes           Std       1 Z8ED$DISPOSE_ABSSYN_TREE
                       nStd      0 X66_AUTO_3
                       nStd      0 X66_ARET
PL6.E3A0      #011=Z8EH$EXAMINE_R File=Z8EH.:Z8A6TSI                             SAT 08/09/97 12:05 Page:214

  ****  Data refs  ****

  Flags:  r = read only, s = secondary
Flgs Name                             Flgs Name                             Flgs Name
     COMCOM

  ****  Segment refs  ****

  Flags:  r = read only, s = secondary
Flgs Name                             Flgs Name                             Flgs Name
     ISSID                                 NULLSID
PL6.E3A0      #011=Z8EH$EXAMINE_R File=Z8EH.:Z8A6TSI                             SAT 08/09/97 12:05 Page:215


      986        1        /*T***********************************************************/
      987        2        /*T*                                                         */
      988        3        /*T* Copyright (c) Bull HN Information Systems Inc., 1997    */
      989        4        /*T*                                                         */
      990        5        /*T***********************************************************/
      991        6        /*-------------------*/
      992        7          Z8EH$EXAMINE_R: PROC (EXAMINE$, ID_1$, LIST$) ;

      7  7 000000   000000 700200 xent  Z8EH$EXAMIN* TSX0  ! X66_AUTO_3
         7 000001   000032 000003                    ZERO    26,3

      993        8        /*-------------------*/
      994        9
      995       10        /*I*   NAME: Z8EH$EXAMINE_R (EXAMINE id1 REPLACING)
      996       11
      997       12              INPUT: EXAMINE$ - LX_TERMINAL, "EXAMINE"
      998       13                     ID_1$ ---- LX_ITEM for id1
      999       14                     LIST$ ---- LX_LIST OF PHRASES, EACH LX_LIST (ALL$, ID_4$, ID_5$)
     1000       15                     ALL$ ----- LX_TERMINAL: ALL, LEADING, FIRST, or UNTIL
     1001       16                     ID_4$ ---- LX_ITEM for id4
     1002       17                     ID_5$ ---- LX_ITEM for id5
     1003       18
     1004       19        DESCRIPTION: (3) Transforms: EXAMINE id1 REPLACING ALL/LEADING/FIRST
     1005       20                                                 id4 BY id5
     1006       21                               into: INSPECT id1 REPLACING ALL/LEADING/FIRST
     1007       22                                                 id4 BY id5
     1008       23                     (4) transforms: EXAMINE id1 REPLACING UNTIL FIRST
     1009       24                                                 id4 BY id5
     1010       25                               into: INSPECT id1 REPLACING CHARACTERS
     1011       26                                                 BY id5 BEFORE id4
     1012       27                     Calls Z8EA$INSPECT_2 to do the INSPECT semantics.
     1013       28
     1014       29        */
     1015       30
     1016       31        %EQU PHASE = 1;
     1017       32        %INCLUDE Z8A_DEFC;
PL6.E3A0      #011=Z8EH$EXAMINE_R File=Z8EH.:Z8A6TSI                             SAT 08/09/97 12:05 Page:216
     1018      100        %INCLUDE Z8A_SUPP_MAC;
     1019     2500        %INCLUDE Z8A_COMCOM;
     1020     3150        %INCLUDE Z8A_TYPES;
     1021     3324        %INCLUDE Z8E_STACKS;
     1022     5590        %INCLUDE Z8E_WINDOW;
     1023     7660        %INCLUDE Z8E_ABSSYN;
     1024     7866        %INCLUDE Z8E_HEAP;
     1025     7922    1   DCL   EXAMINE$         PTR ; /* "EXAMINE" */
     1026     7923    1   DCL   ID_1$            PTR ; /* id1 */
     1027     7924    1   DCL   LIST$            PTR ;
     1028     7925    1   DCL   PHRASE$          PTR ;
     1029     7926    1   DCL   LX_LIST1$        PTR ;
     1030     7927    1   DCL   ALL$             PTR ; /* ALL, LEADING, FIRST, or UNTIL */
     1031     7928    1   DCL   ID_4$            PTR ; /* id4 */
     1032     7929    1   DCL   ID_5$            PTR ; /* id5 */
     1033     7930    1   DCL   REPLACE$         PTR ; /* LX_LIST */
     1034     7931    1   DCL   CLAUSE$          PTR ; /* LX_LIST */
     1035     7932    1   DCL   STMT$            PTR ; /* INSPECT_2_STMT */
     1036     7933    1   DCL   LX_TERMINAL$     PTR  ;
     1037     7934    1   DCL   LX_LIST$         PTR  ;
     1038     7935
     1039     7936    1   DCL   Z8EA$INSPECT_2   ENTRY (1) ; /* Inspect Replacing semantics */
     1040     7937    1   DCL   Z8ED$DISPOSE_ABSSYN_TREE ENTRY (1) ;
     1041     7938
     1042     7939        %DCL_AUTO_LX_ITEM (@NAME = INSPECT) ;
     1043     7943
     1044     7944    1     STMT$ = ADDR (INSPECT) ;

   7944  7 000002   200020 630500                    EPPR0   INSPECT,,AUTO
         7 000003   200015 450500                    STP0    STMT$,,AUTO

     1045     7945
     1046     7946    1     STMT$ -> INSPECT_2_STMT.ID     = %INSPECT_2 ;

   7946  7 000004   002006 220003                    LDX0    1030,DU
         7 000005   000000 740100                    STX0    0,,PR0

PL6.E3A0      #011=Z8EH$EXAMINE_R File=Z8EH.:Z8A6TSI                             SAT 08/09/97 12:05 Page:217
     1047     7947    1     STMT$ -> INSPECT_2_STMT.KEY_WORD$ = EXAMINE$ ;

   7947  7 000006   200003 470500                    LDP0    @EXAMINE$,,AUTO
         7 000007   000000 236100                    LDQ     0,,PR0
         7 000010   200015 471500                    LDP1    STMT$,,AUTO
         7 000011   100001 756100                    STQ     1,,PR1

     1048     7948    1     STMT$ -> INSPECT_2_STMT.ID_1$  = ID_1$ ;

   7948  7 000012   200004 471500                    LDP1    @ID_1$,,AUTO
         7 000013   100000 236100                    LDQ     0,,PR1
         7 000014   200015 473500                    LDP3    STMT$,,AUTO
         7 000015   300002 756100                    STQ     2,,PR3

     1049     7949    1     STMT$ -> INSPECT_2_STMT.LINE   = EXAMINE$ -> LX_TERMINAL.LINE ;

   7949  7 000016   000000 473500                    LDP3    0,,PR0
         7 000017   300005 235100                    LDA     5,,PR3
         7 000020   200015 474500                    LDP4    STMT$,,AUTO
         7 000021   400005 755100                    STA     5,,PR4

     1050     7950    1     STMT$ -> INSPECT_2_STMT.COLUMN = EXAMINE$ -> LX_TERMINAL.COLUMN ;

   7950  7 000022   000000 473500                    LDP3    0,,PR0
         7 000023   300006 235100                    LDA     6,,PR3
         7 000024   200015 474500                    LDP4    STMT$,,AUTO
         7 000025   400006 755100                    STA     6,,PR4

     1051     7951
     1052     7952    1     PHRASE$ = LIST$ -> LX_LIST.HEAD$ ;

   7952  7 000026   200005 473500                    LDP3    @LIST$,,AUTO
         7 000027   300000 474500                    LDP4    0,,PR3
         7 000030   400004 236100                    LDQ     4,,PR4
         7 000031   200006 756100                    STQ     PHRASE$,,AUTO

     1053     7953
PL6.E3A0      #011=Z8EH$EXAMINE_R File=Z8EH.:Z8A6TSI                             SAT 08/09/97 12:05 Page:218
     1054     7954          /* (3) & (4) LX_LIST (REPLACE$) */
     1055     7955
     1056     7956          %NEW (@TEMPLATE = LX_LIST,
     1057     7957                @POINTER  = LX_LIST1$) ;

   7963  7 000032   000003 236000 8                  LDQ     3
         7 000033   200031 756100                    STQ     INSPECT+9,,AUTO
         7 000034   200007 634500                    EPPR4   LX_LIST1$,,AUTO
         7 000035   200030 454500                    STP4    INSPECT+8,,AUTO
         7 000036   200030 630500                    EPPR0   INSPECT+8,,AUTO
         7 000037   000001 631400 8                  EPPR1   1
         7 000040   000000 701000 xent               TSX1    Z8ED$NEW_HEAP
         7 000041   000000 011000                    NOP     0

     1058     7967          %INIT_LX_LIST (@POINTER = LX_LIST1$) ;

   7969  7 000042   000002 220003                    LDX0    2,DU
         7 000043   200007 470500                    LDP0    LX_LIST1$,,AUTO
         7 000044   000000 740100                    STX0    0,,PR0

   7970  7 000045   000000 221003                    LDX1    0,DU
         7 000046   200007 470500                    LDP0    LX_LIST1$,,AUTO
         7 000047   000000 441100                    SXL1    0,,PR0

   7971  7 000050   000000 236000 8                  LDQ     0
         7 000051   200007 470500                    LDP0    LX_LIST1$,,AUTO
         7 000052   000001 756100                    STQ     1,,PR0

   7972  7 000053   200007 470500                    LDP0    LX_LIST1$,,AUTO
         7 000054   000004 756100                    STQ     4,,PR0

   7973  7 000055   200007 470500                    LDP0    LX_LIST1$,,AUTO
         7 000056   000007 756100                    STQ     7,,PR0

   7974  7 000057   200007 470500                    LDP0    LX_LIST1$,,AUTO
         7 000060   000002 450100                    STZ     2,,PR0

PL6.E3A0      #011=Z8EH$EXAMINE_R File=Z8EH.:Z8A6TSI                             SAT 08/09/97 12:05 Page:219
     1059     7977
     1060     7978    2     DO UNTIL  PHRASE$ = ADDR (NIL) ;

     1061     7979
     1062     7980    2       ALL$ = PHRASE$ -> LX_LIST.HEAD$ ;

   7980  7 000061   200006 470500                    LDP0    PHRASE$,,AUTO
         7 000062   000004 236100                    LDQ     4,,PR0
         7 000063   200010 756100                    STQ     ALL$,,AUTO

     1063     7981            %NEW_COPY_LX_ITEM (@FROM$ = PHRASE$ -> LX_LIST.TAIL$,
     1064     7982                               @TO$   = ID_5$) ;

   7987  7 000064   000003 236000 8                  LDQ     3
         7 000065   200031 756100                    STQ     INSPECT+9,,AUTO
         7 000066   200012 631500                    EPPR1   ID_5$,,AUTO
         7 000067   200030 451500                    STP1    INSPECT+8,,AUTO
         7 000070   200030 630500                    EPPR0   INSPECT+8,,AUTO
         7 000071   000001 631400 8                  EPPR1   1
         7 000072   000000 701000 xent               TSX1    Z8ED$NEW_HEAP
         7 000073   000000 011000                    NOP     0

   7990  7 000074   200006 470500                    LDP0    PHRASE$,,AUTO
         7 000075   000001 471500                    LDP1    1,,PR0
         7 000076   200012 473500                    LDP3    ID_5$,,AUTO
         7 000077   000100 100500                    MLR     fill='000'O
         7 000100   100000 000040                    ADSC9   0,,PR1                   cn=0,n=32
         7 000101   300000 000040                    ADSC9   0,,PR3                   cn=0,n=32

   7991  7 000102   000000 236000 8                  LDQ     0
         7 000103   200012 471500                    LDP1    ID_5$,,AUTO
         7 000104   100007 756100                    STQ     7,,PR1

     1065     7994            %NEW_COPY_LX_ITEM (@FROM$ = ALL$ -> LX_LIST.LINK,
     1066     7995                               @TO$   = ID_4$) ;

   8000  7 000105   000003 236000 8                  LDQ     3
PL6.E3A0      #011=Z8EH$EXAMINE_R File=Z8EH.:Z8A6TSI                             SAT 08/09/97 12:05 Page:220
         7 000106   200031 756100                    STQ     INSPECT+9,,AUTO
         7 000107   200011 631500                    EPPR1   ID_4$,,AUTO
         7 000110   200030 451500                    STP1    INSPECT+8,,AUTO
         7 000111   200030 630500                    EPPR0   INSPECT+8,,AUTO
         7 000112   000001 631400 8                  EPPR1   1
         7 000113   000000 701000 xent               TSX1    Z8ED$NEW_HEAP
         7 000114   000000 011000                    NOP     0

   8003  7 000115   200010 470500                    LDP0    ALL$,,AUTO
         7 000116   000007 471500                    LDP1    7,,PR0
         7 000117   200011 473500                    LDP3    ID_4$,,AUTO
         7 000120   000100 100500                    MLR     fill='000'O
         7 000121   100000 000040                    ADSC9   0,,PR1                   cn=0,n=32
         7 000122   300000 000040                    ADSC9   0,,PR3                   cn=0,n=32

   8004  7 000123   000000 236000 8                  LDQ     0
         7 000124   200011 471500                    LDP1    ID_4$,,AUTO
         7 000125   100007 756100                    STQ     7,,PR1

     1067     8007
     1068     8008            /* (3) LX_LIST (id4, id5, EMPTY) */
     1069     8009            /* (4) LX_LIST (BEFORE, id4)     */
     1070     8010
     1071     8011            %NEW (@TEMPLATE = LX_TERMINAL,
     1072     8012                  @POINTER  = LX_TERMINAL$) ;

   8018  7 000126   000003 236000 8                  LDQ     3
         7 000127   200031 756100                    STQ     INSPECT+9,,AUTO
         7 000130   200016 631500                    EPPR1   LX_TERMINAL$,,AUTO
         7 000131   200030 451500                    STP1    INSPECT+8,,AUTO
         7 000132   200030 630500                    EPPR0   INSPECT+8,,AUTO
         7 000133   000001 631400 8                  EPPR1   1
         7 000134   000000 701000 xent               TSX1    Z8ED$NEW_HEAP
         7 000135   000000 011000                    NOP     0

     1073     8022
     1074     8023            %NEW (@TEMPLATE = LX_LIST,
PL6.E3A0      #011=Z8EH$EXAMINE_R File=Z8EH.:Z8A6TSI                             SAT 08/09/97 12:05 Page:221
     1075     8024                  @POINTER  = CLAUSE$) ;

   8030  7 000136   000003 236000 8                  LDQ     3
         7 000137   200031 756100                    STQ     INSPECT+9,,AUTO
         7 000140   200014 630500                    EPPR0   CLAUSE$,,AUTO
         7 000141   200030 450500                    STP0    INSPECT+8,,AUTO
         7 000142   200030 630500                    EPPR0   INSPECT+8,,AUTO
         7 000143   000001 631400 8                  EPPR1   1
         7 000144   000000 701000 xent               TSX1    Z8ED$NEW_HEAP
         7 000145   000000 011000                    NOP     0

     1076     8034
     1077     8035            %INIT_LX_LIST (@POINTER = CLAUSE$) ;

   8037  7 000146   000002 220003                    LDX0    2,DU
         7 000147   200014 470500                    LDP0    CLAUSE$,,AUTO
         7 000150   000000 740100                    STX0    0,,PR0

   8038  7 000151   000000 221003                    LDX1    0,DU
         7 000152   200014 470500                    LDP0    CLAUSE$,,AUTO
         7 000153   000000 441100                    SXL1    0,,PR0

   8039  7 000154   000000 236000 8                  LDQ     0
         7 000155   200014 470500                    LDP0    CLAUSE$,,AUTO
         7 000156   000001 756100                    STQ     1,,PR0

   8040  7 000157   200014 470500                    LDP0    CLAUSE$,,AUTO
         7 000160   000004 756100                    STQ     4,,PR0

   8041  7 000161   200014 470500                    LDP0    CLAUSE$,,AUTO
         7 000162   000007 756100                    STQ     7,,PR0

   8042  7 000163   200014 470500                    LDP0    CLAUSE$,,AUTO
         7 000164   000002 450100                    STZ     2,,PR0

     1078     8045
     1079     8046    3       IF ALL$ -> LX_TERMINAL.SYMBOL = %RSV_WRD_UNTIL THEN DO ;
PL6.E3A0      #011=Z8EH$EXAMINE_R File=Z8EH.:Z8A6TSI                             SAT 08/09/97 12:05 Page:222

   8046  7 000165   200010 470500                    LDP0    ALL$,,AUTO
         7 000166   000003 235100                    LDA     3,,PR0
         7 000167   000734 115007                    CMPA    476,DL
         7 000170   000244 601000 7                  TNZ     s:8091

     1080     8047
     1081     8048              %INIT_LX_TERMINAL (@POINTER = LX_TERMINAL$,
     1082     8049                                 @SYMBOL  = %RSV_WRD_BEFORE) ;

   8051  7 000171   000000 222003                    LDX2    0,DU
         7 000172   200016 471500                    LDP1    LX_TERMINAL$,,AUTO
         7 000173   100000 742100                    STX2    0,,PR1

   8052  7 000174   200016 471500                    LDP1    LX_TERMINAL$,,AUTO
         7 000175   100000 441100                    SXL1    0,,PR1

   8056  7 000176   000015 235007                    LDA     13,DL
         7 000177   200016 471500                    LDP1    LX_TERMINAL$,,AUTO
         7 000200   100004 755100                    STA     4,,PR1

   8058  7 000201   000000 236000 8                  LDQ     0
         7 000202   200016 471500                    LDP1    LX_TERMINAL$,,AUTO
         7 000203   100007 756100                    STQ     7,,PR1

   8060  7 000204   200016 471500                    LDP1    LX_TERMINAL$,,AUTO
         7 000205   100001 756100                    STQ     1,,PR1

   8061  7 000206   000075 235007                    LDA     61,DL
         7 000207   200016 471500                    LDP1    LX_TERMINAL$,,AUTO
         7 000210   100003 755100                    STA     3,,PR1

   8062  7 000211   200016 471500                    LDP1    LX_TERMINAL$,,AUTO
         7 000212   100002 756100                    STQ     2,,PR1

   8063  7 000213   000133 235000 xsym               LDA     COMCOM+91
         7 000214   200016 471500                    LDP1    LX_TERMINAL$,,AUTO
PL6.E3A0      #011=Z8EH$EXAMINE_R File=Z8EH.:Z8A6TSI                             SAT 08/09/97 12:05 Page:223
         7 000215   100005 755100                    STA     5,,PR1

   8064  7 000216   000134 235000 xsym               LDA     COMCOM+92
         7 000217   200016 471500                    LDP1    LX_TERMINAL$,,AUTO
         7 000220   100006 755100                    STA     6,,PR1

     1083     8067
     1084     8068              %ADD_LX_ITEM_TO_LIST_TAIL (@LIST$ = CLAUSE$,
     1085     8069                                         @FROM$ = LX_TERMINAL$) ;

   8071  7 000221   200016 471500                    LDP1    LX_TERMINAL$,,AUTO
         7 000222   100007 756100                    STQ     7,,PR1

   8072  7 000223   200014 471500                    LDP1    CLAUSE$,,AUTO
         7 000224   100002 235100                    LDA     2,,PR1
         7 000225   000234 601000 7                  TNZ     s:8079

   8074  7 000226   200016 236100                    LDQ     LX_TERMINAL$,,AUTO
         7 000227   100004 756100                    STQ     4,,PR1

   8075  7 000230   200016 236100                    LDQ     LX_TERMINAL$,,AUTO
         7 000231   200014 471500                    LDP1    CLAUSE$,,AUTO
         7 000232   100001 756100                    STQ     1,,PR1

   8076  7 000233   000242 710000 7                  TRA     s:8082

   8079  7 000234   100001 473500                    LDP3    1,,PR1
         7 000235   200016 236100                    LDQ     LX_TERMINAL$,,AUTO
         7 000236   300007 756100                    STQ     7,,PR3

   8080  7 000237   200016 236100                    LDQ     LX_TERMINAL$,,AUTO
         7 000240   200014 471500                    LDP1    CLAUSE$,,AUTO
         7 000241   100001 756100                    STQ     1,,PR1

   8082  7 000242   200014 471500                    LDP1    CLAUSE$,,AUTO
         7 000243   100002 054100                    AOS     2,,PR1

PL6.E3A0      #011=Z8EH$EXAMINE_R File=Z8EH.:Z8A6TSI                             SAT 08/09/97 12:05 Page:224
     1086     8085
     1087     8086    3       END ; /* UNTIL */

     1088     8087
     1089     8088            %ADD_LX_ITEM_TO_LIST_TAIL (@LIST$ = CLAUSE$,
     1090     8089                                       @FROM$ = ID_4$) ;

   8091  7 000244   000000 236000 8                  LDQ     0
         7 000245   200011 471500                    LDP1    ID_4$,,AUTO
         7 000246   100007 756100                    STQ     7,,PR1

   8092  7 000247   200014 471500                    LDP1    CLAUSE$,,AUTO
         7 000250   100002 235100                    LDA     2,,PR1
         7 000251   000260 601000 7                  TNZ     s:8099

   8094  7 000252   200011 236100                    LDQ     ID_4$,,AUTO
         7 000253   100004 756100                    STQ     4,,PR1

   8095  7 000254   200011 236100                    LDQ     ID_4$,,AUTO
         7 000255   200014 471500                    LDP1    CLAUSE$,,AUTO
         7 000256   100001 756100                    STQ     1,,PR1

   8096  7 000257   000266 710000 7                  TRA     s:8102

   8099  7 000260   100001 473500                    LDP3    1,,PR1
         7 000261   200011 236100                    LDQ     ID_4$,,AUTO
         7 000262   300007 756100                    STQ     7,,PR3

   8100  7 000263   200011 236100                    LDQ     ID_4$,,AUTO
         7 000264   200014 471500                    LDP1    CLAUSE$,,AUTO
         7 000265   100001 756100                    STQ     1,,PR1

   8102  7 000266   200014 471500                    LDP1    CLAUSE$,,AUTO
         7 000267   100002 054100                    AOS     2,,PR1

     1091     8105
     1092     8106    3       IF ALL$ -> LX_TERMINAL.SYMBOL ~= %RSV_WRD_UNTIL THEN DO ;
PL6.E3A0      #011=Z8EH$EXAMINE_R File=Z8EH.:Z8A6TSI                             SAT 08/09/97 12:05 Page:225

   8106  7 000270   000003 235100                    LDA     3,,PR0
         7 000271   000734 115007                    CMPA    476,DL
         7 000272   000372 600000 7                  TZE     s:8175

     1093     8107
     1094     8108              %ADD_LX_ITEM_TO_LIST_TAIL (@LIST$ = CLAUSE$,
     1095     8109                                         @FROM$ = ID_5$) ;

   8111  7 000273   000000 236000 8                  LDQ     0
         7 000274   200012 471500                    LDP1    ID_5$,,AUTO
         7 000275   100007 756100                    STQ     7,,PR1

   8112  7 000276   200014 471500                    LDP1    CLAUSE$,,AUTO
         7 000277   100002 235100                    LDA     2,,PR1
         7 000300   000307 601000 7                  TNZ     s:8119

   8114  7 000301   200012 236100                    LDQ     ID_5$,,AUTO
         7 000302   100004 756100                    STQ     4,,PR1

   8115  7 000303   200012 236100                    LDQ     ID_5$,,AUTO
         7 000304   200014 471500                    LDP1    CLAUSE$,,AUTO
         7 000305   100001 756100                    STQ     1,,PR1

   8116  7 000306   000315 710000 7                  TRA     s:8122

   8119  7 000307   100001 473500                    LDP3    1,,PR1
         7 000310   200012 236100                    LDQ     ID_5$,,AUTO
         7 000311   300007 756100                    STQ     7,,PR3

   8120  7 000312   200012 236100                    LDQ     ID_5$,,AUTO
         7 000313   200014 471500                    LDP1    CLAUSE$,,AUTO
         7 000314   100001 756100                    STQ     1,,PR1

   8122  7 000315   200014 471500                    LDP1    CLAUSE$,,AUTO
         7 000316   100002 054100                    AOS     2,,PR1

PL6.E3A0      #011=Z8EH$EXAMINE_R File=Z8EH.:Z8A6TSI                             SAT 08/09/97 12:05 Page:226
     1096     8125
     1097     8126              %INIT_LX_TERMINAL (@POINTER = LX_TERMINAL$,
     1098     8127                                 @SYMBOL  = %RSV_WRD_EMPTY) ;

   8129  7 000317   000000 222003                    LDX2    0,DU
         7 000320   200016 471500                    LDP1    LX_TERMINAL$,,AUTO
         7 000321   100000 742100                    STX2    0,,PR1

   8130  7 000322   200016 471500                    LDP1    LX_TERMINAL$,,AUTO
         7 000323   100000 441100                    SXL1    0,,PR1

   8134  7 000324   000015 235007                    LDA     13,DL
         7 000325   200016 471500                    LDP1    LX_TERMINAL$,,AUTO
         7 000326   100004 755100                    STA     4,,PR1

   8136  7 000327   000000 236000 8                  LDQ     0
         7 000330   200016 471500                    LDP1    LX_TERMINAL$,,AUTO
         7 000331   100007 756100                    STQ     7,,PR1

   8138  7 000332   200016 471500                    LDP1    LX_TERMINAL$,,AUTO
         7 000333   100001 756100                    STQ     1,,PR1

   8139  7 000334   000242 235007                    LDA     162,DL
         7 000335   200016 471500                    LDP1    LX_TERMINAL$,,AUTO
         7 000336   100003 755100                    STA     3,,PR1

   8140  7 000337   200016 471500                    LDP1    LX_TERMINAL$,,AUTO
         7 000340   100002 756100                    STQ     2,,PR1

   8141  7 000341   000133 235000 xsym               LDA     COMCOM+91
         7 000342   200016 471500                    LDP1    LX_TERMINAL$,,AUTO
         7 000343   100005 755100                    STA     5,,PR1

   8142  7 000344   000134 235000 xsym               LDA     COMCOM+92
         7 000345   200016 471500                    LDP1    LX_TERMINAL$,,AUTO
         7 000346   100006 755100                    STA     6,,PR1

PL6.E3A0      #011=Z8EH$EXAMINE_R File=Z8EH.:Z8A6TSI                             SAT 08/09/97 12:05 Page:227
     1099     8145
     1100     8146              %ADD_LX_ITEM_TO_LIST_TAIL (@LIST$ = CLAUSE$,
     1101     8147                                         @FROM$ = LX_TERMINAL$) ;

   8149  7 000347   200016 471500                    LDP1    LX_TERMINAL$,,AUTO
         7 000350   100007 756100                    STQ     7,,PR1

   8150  7 000351   200014 471500                    LDP1    CLAUSE$,,AUTO
         7 000352   100002 235100                    LDA     2,,PR1
         7 000353   000362 601000 7                  TNZ     s:8157

   8152  7 000354   200016 236100                    LDQ     LX_TERMINAL$,,AUTO
         7 000355   100004 756100                    STQ     4,,PR1

   8153  7 000356   200016 236100                    LDQ     LX_TERMINAL$,,AUTO
         7 000357   200014 471500                    LDP1    CLAUSE$,,AUTO
         7 000360   100001 756100                    STQ     1,,PR1

   8154  7 000361   000370 710000 7                  TRA     s:8160

   8157  7 000362   100001 473500                    LDP3    1,,PR1
         7 000363   200016 236100                    LDQ     LX_TERMINAL$,,AUTO
         7 000364   300007 756100                    STQ     7,,PR3

   8158  7 000365   200016 236100                    LDQ     LX_TERMINAL$,,AUTO
         7 000366   200014 471500                    LDP1    CLAUSE$,,AUTO
         7 000367   100001 756100                    STQ     1,,PR1

   8160  7 000370   200014 471500                    LDP1    CLAUSE$,,AUTO
         7 000371   100002 054100                    AOS     2,,PR1

     1102     8163
     1103     8164    3       END ; /* ALL, LEADING, or FIRST */

     1104     8165
     1105     8166            /* (3) & (4) LX_LIST (CLAUSE$) */
     1106     8167
PL6.E3A0      #011=Z8EH$EXAMINE_R File=Z8EH.:Z8A6TSI                             SAT 08/09/97 12:05 Page:228
     1107     8168            %NEW (@TEMPLATE = LX_LIST,
     1108     8169                  @POINTER  = LX_LIST$) ;

   8175  7 000372   000003 236000 8                  LDQ     3
         7 000373   200031 756100                    STQ     INSPECT+9,,AUTO
         7 000374   200017 631500                    EPPR1   LX_LIST$,,AUTO
         7 000375   200030 451500                    STP1    INSPECT+8,,AUTO
         7 000376   200030 630500                    EPPR0   INSPECT+8,,AUTO
         7 000377   000001 631400 8                  EPPR1   1
         7 000400   000000 701000 xent               TSX1    Z8ED$NEW_HEAP
         7 000401   000000 011000                    NOP     0

     1109     8179
     1110     8180            %INIT_LX_LIST (@POINTER = LX_LIST$,
     1111     8181                           @HEAD$   = CLAUSE$,
     1112     8182                           @TAIL$   = CLAUSE$,
     1113     8183                           @COUNT   = 1) ;

   8185  7 000402   000002 220003                    LDX0    2,DU
         7 000403   200017 470500                    LDP0    LX_LIST$,,AUTO
         7 000404   000000 740100                    STX0    0,,PR0

   8186  7 000405   000000 221003                    LDX1    0,DU
         7 000406   200017 470500                    LDP0    LX_LIST$,,AUTO
         7 000407   000000 441100                    SXL1    0,,PR0

   8187  7 000410   200014 236100                    LDQ     CLAUSE$,,AUTO
         7 000411   200017 470500                    LDP0    LX_LIST$,,AUTO
         7 000412   000001 756100                    STQ     1,,PR0

   8188  7 000413   200014 236100                    LDQ     CLAUSE$,,AUTO
         7 000414   200017 470500                    LDP0    LX_LIST$,,AUTO
         7 000415   000004 756100                    STQ     4,,PR0

   8189  7 000416   000000 236000 8                  LDQ     0
         7 000417   200017 470500                    LDP0    LX_LIST$,,AUTO
         7 000420   000007 756100                    STQ     7,,PR0
PL6.E3A0      #011=Z8EH$EXAMINE_R File=Z8EH.:Z8A6TSI                             SAT 08/09/97 12:05 Page:229

   8190  7 000421   000001 235007                    LDA     1,DL
         7 000422   200017 470500                    LDP0    LX_LIST$,,AUTO
         7 000423   000002 755100                    STA     2,,PR0

     1114     8193
     1115     8194            /* (3) LX_LIST (ALL/LEADING/FIRST, LX_LIST) */
     1116     8195            /* (4) LX_LIST (CHARACTERS, id5, LX_LIST) */
     1117     8196
     1118     8197            %NEW (@TEMPLATE = LX_TERMINAL,
     1119     8198                  @POINTER  = LX_TERMINAL$) ;

   8204  7 000424   000003 236000 8                  LDQ     3
         7 000425   200031 756100                    STQ     INSPECT+9,,AUTO
         7 000426   200016 630500                    EPPR0   LX_TERMINAL$,,AUTO
         7 000427   200030 450500                    STP0    INSPECT+8,,AUTO
         7 000430   200030 630500                    EPPR0   INSPECT+8,,AUTO
         7 000431   000001 631400 8                  EPPR1   1
         7 000432   000000 701000 xent               TSX1    Z8ED$NEW_HEAP
         7 000433   000000 011000                    NOP     0

     1120     8208
     1121     8209            %NEW (@TEMPLATE = LX_LIST,
     1122     8210                  @POINTER  = REPLACE$) ;

   8216  7 000434   000003 236000 8                  LDQ     3
         7 000435   200031 756100                    STQ     INSPECT+9,,AUTO
         7 000436   200013 630500                    EPPR0   REPLACE$,,AUTO
         7 000437   200030 450500                    STP0    INSPECT+8,,AUTO
         7 000440   200030 630500                    EPPR0   INSPECT+8,,AUTO
         7 000441   000001 631400 8                  EPPR1   1
         7 000442   000000 701000 xent               TSX1    Z8ED$NEW_HEAP
         7 000443   000000 011000                    NOP     0

     1123     8220
     1124     8221            %INIT_LX_LIST (@POINTER = REPLACE$) ;

PL6.E3A0      #011=Z8EH$EXAMINE_R File=Z8EH.:Z8A6TSI                             SAT 08/09/97 12:05 Page:230
   8223  7 000444   000002 220003                    LDX0    2,DU
         7 000445   200013 470500                    LDP0    REPLACE$,,AUTO
         7 000446   000000 740100                    STX0    0,,PR0

   8224  7 000447   000000 221003                    LDX1    0,DU
         7 000450   200013 470500                    LDP0    REPLACE$,,AUTO
         7 000451   000000 441100                    SXL1    0,,PR0

   8225  7 000452   000000 236000 8                  LDQ     0
         7 000453   200013 470500                    LDP0    REPLACE$,,AUTO
         7 000454   000001 756100                    STQ     1,,PR0

   8226  7 000455   200013 470500                    LDP0    REPLACE$,,AUTO
         7 000456   000004 756100                    STQ     4,,PR0

   8227  7 000457   200013 470500                    LDP0    REPLACE$,,AUTO
         7 000460   000007 756100                    STQ     7,,PR0

   8228  7 000461   200013 470500                    LDP0    REPLACE$,,AUTO
         7 000462   000002 450100                    STZ     2,,PR0

     1125     8231
     1126     8232    3       IF ALL$ -> LX_TERMINAL.SYMBOL = %RSV_WRD_UNTIL THEN DO ;

   8232  7 000463   200010 470500                    LDP0    ALL$,,AUTO
         7 000464   000003 235100                    LDA     3,,PR0
         7 000465   000734 115007                    CMPA    476,DL
         7 000466   000567 601000 7                  TNZ     s:8297

     1127     8233
     1128     8234              %INIT_LX_TERMINAL (@POINTER = LX_TERMINAL$,
     1129     8235                                 @SYMBOL  = %RSV_WRD_CHARACTERS) ;

   8237  7 000467   000000 222003                    LDX2    0,DU
         7 000470   200016 471500                    LDP1    LX_TERMINAL$,,AUTO
         7 000471   100000 742100                    STX2    0,,PR1

PL6.E3A0      #011=Z8EH$EXAMINE_R File=Z8EH.:Z8A6TSI                             SAT 08/09/97 12:05 Page:231
   8238  7 000472   200016 471500                    LDP1    LX_TERMINAL$,,AUTO
         7 000473   100000 441100                    SXL1    0,,PR1

   8242  7 000474   000015 235007                    LDA     13,DL
         7 000475   200016 471500                    LDP1    LX_TERMINAL$,,AUTO
         7 000476   100004 755100                    STA     4,,PR1

   8244  7 000477   000000 236000 8                  LDQ     0
         7 000500   200016 471500                    LDP1    LX_TERMINAL$,,AUTO
         7 000501   100007 756100                    STQ     7,,PR1

   8246  7 000502   200016 471500                    LDP1    LX_TERMINAL$,,AUTO
         7 000503   100001 756100                    STQ     1,,PR1

   8247  7 000504   000120 235007                    LDA     80,DL
         7 000505   200016 471500                    LDP1    LX_TERMINAL$,,AUTO
         7 000506   100003 755100                    STA     3,,PR1

   8248  7 000507   200016 471500                    LDP1    LX_TERMINAL$,,AUTO
         7 000510   100002 756100                    STQ     2,,PR1

   8249  7 000511   000133 235000 xsym               LDA     COMCOM+91
         7 000512   200016 471500                    LDP1    LX_TERMINAL$,,AUTO
         7 000513   100005 755100                    STA     5,,PR1

   8250  7 000514   000134 235000 xsym               LDA     COMCOM+92
         7 000515   200016 471500                    LDP1    LX_TERMINAL$,,AUTO
         7 000516   100006 755100                    STA     6,,PR1

     1130     8253
     1131     8254              %ADD_LX_ITEM_TO_LIST_TAIL (@LIST$ = REPLACE$,
     1132     8255                                         @FROM$ = LX_TERMINAL$) ;

   8257  7 000517   200016 471500                    LDP1    LX_TERMINAL$,,AUTO
         7 000520   100007 756100                    STQ     7,,PR1

   8258  7 000521   200013 471500                    LDP1    REPLACE$,,AUTO
PL6.E3A0      #011=Z8EH$EXAMINE_R File=Z8EH.:Z8A6TSI                             SAT 08/09/97 12:05 Page:232
         7 000522   100002 235100                    LDA     2,,PR1
         7 000523   000532 601000 7                  TNZ     s:8265

   8260  7 000524   200016 236100                    LDQ     LX_TERMINAL$,,AUTO
         7 000525   100004 756100                    STQ     4,,PR1

   8261  7 000526   200016 236100                    LDQ     LX_TERMINAL$,,AUTO
         7 000527   200013 471500                    LDP1    REPLACE$,,AUTO
         7 000530   100001 756100                    STQ     1,,PR1

   8262  7 000531   000540 710000 7                  TRA     s:8268

   8265  7 000532   100001 473500                    LDP3    1,,PR1
         7 000533   200016 236100                    LDQ     LX_TERMINAL$,,AUTO
         7 000534   300007 756100                    STQ     7,,PR3

   8266  7 000535   200016 236100                    LDQ     LX_TERMINAL$,,AUTO
         7 000536   200013 471500                    LDP1    REPLACE$,,AUTO
         7 000537   100001 756100                    STQ     1,,PR1

   8268  7 000540   200013 471500                    LDP1    REPLACE$,,AUTO
         7 000541   100002 054100                    AOS     2,,PR1

     1133     8271
     1134     8272              %ADD_LX_ITEM_TO_LIST_TAIL (@LIST$ = REPLACE$,
     1135     8273                                         @FROM$ = ID_5$) ;

   8275  7 000542   000000 236000 8                  LDQ     0
         7 000543   200012 471500                    LDP1    ID_5$,,AUTO
         7 000544   100007 756100                    STQ     7,,PR1

   8276  7 000545   200013 471500                    LDP1    REPLACE$,,AUTO
         7 000546   100002 235100                    LDA     2,,PR1
         7 000547   000556 601000 7                  TNZ     s:8283

   8278  7 000550   200012 236100                    LDQ     ID_5$,,AUTO
         7 000551   100004 756100                    STQ     4,,PR1
PL6.E3A0      #011=Z8EH$EXAMINE_R File=Z8EH.:Z8A6TSI                             SAT 08/09/97 12:05 Page:233

   8279  7 000552   200012 236100                    LDQ     ID_5$,,AUTO
         7 000553   200013 471500                    LDP1    REPLACE$,,AUTO
         7 000554   100001 756100                    STQ     1,,PR1

   8280  7 000555   000564 710000 7                  TRA     s:8286

   8283  7 000556   100001 473500                    LDP3    1,,PR1
         7 000557   200012 236100                    LDQ     ID_5$,,AUTO
         7 000560   300007 756100                    STQ     7,,PR3

   8284  7 000561   200012 236100                    LDQ     ID_5$,,AUTO
         7 000562   200013 471500                    LDP1    REPLACE$,,AUTO
         7 000563   100001 756100                    STQ     1,,PR1

   8286  7 000564   200013 471500                    LDP1    REPLACE$,,AUTO
         7 000565   100002 054100                    AOS     2,,PR1

     1136     8289
     1137     8290    3       END ; /* (4) UNTIL */

   8290  7 000566   000642 710000 7                  TRA     s:8337

     1138     8291
     1139     8292    3       ELSE DO ; /* (3) ALL, LEADING, or FIRST */

     1140     8293
     1141     8294              %INIT_LX_TERMINAL (@POINTER = LX_TERMINAL$,
     1142     8295                                 @SYMBOL  = "ALL$ -> LX_TERMINAL.SYMBOL") ;

   8297  7 000567   000000 222003                    LDX2    0,DU
         7 000570   200016 471500                    LDP1    LX_TERMINAL$,,AUTO
         7 000571   100000 742100                    STX2    0,,PR1

   8298  7 000572   200016 471500                    LDP1    LX_TERMINAL$,,AUTO
         7 000573   100000 441100                    SXL1    0,,PR1

PL6.E3A0      #011=Z8EH$EXAMINE_R File=Z8EH.:Z8A6TSI                             SAT 08/09/97 12:05 Page:234
   8302  7 000574   000015 235007                    LDA     13,DL
         7 000575   200016 471500                    LDP1    LX_TERMINAL$,,AUTO
         7 000576   100004 755100                    STA     4,,PR1

   8304  7 000577   000000 236000 8                  LDQ     0
         7 000600   200016 471500                    LDP1    LX_TERMINAL$,,AUTO
         7 000601   100007 756100                    STQ     7,,PR1

   8306  7 000602   200016 471500                    LDP1    LX_TERMINAL$,,AUTO
         7 000603   100001 756100                    STQ     1,,PR1

   8307  7 000604   200016 471500                    LDP1    LX_TERMINAL$,,AUTO
         7 000605   000003 235100                    LDA     3,,PR0
         7 000606   100003 755100                    STA     3,,PR1

   8308  7 000607   200016 471500                    LDP1    LX_TERMINAL$,,AUTO
         7 000610   100002 756100                    STQ     2,,PR1

   8309  7 000611   000133 235000 xsym               LDA     COMCOM+91
         7 000612   200016 471500                    LDP1    LX_TERMINAL$,,AUTO
         7 000613   100005 755100                    STA     5,,PR1

   8310  7 000614   000134 235000 xsym               LDA     COMCOM+92
         7 000615   200016 471500                    LDP1    LX_TERMINAL$,,AUTO
         7 000616   100006 755100                    STA     6,,PR1

     1143     8313
     1144     8314              %ADD_LX_ITEM_TO_LIST_TAIL (@LIST$ = REPLACE$,
     1145     8315                                         @FROM$ = LX_TERMINAL$) ;

   8317  7 000617   200016 471500                    LDP1    LX_TERMINAL$,,AUTO
         7 000620   100007 756100                    STQ     7,,PR1

   8318  7 000621   200013 471500                    LDP1    REPLACE$,,AUTO
         7 000622   100002 235100                    LDA     2,,PR1
         7 000623   000632 601000 7                  TNZ     s:8325

PL6.E3A0      #011=Z8EH$EXAMINE_R File=Z8EH.:Z8A6TSI                             SAT 08/09/97 12:05 Page:235
   8320  7 000624   200016 236100                    LDQ     LX_TERMINAL$,,AUTO
         7 000625   100004 756100                    STQ     4,,PR1

   8321  7 000626   200016 236100                    LDQ     LX_TERMINAL$,,AUTO
         7 000627   200013 471500                    LDP1    REPLACE$,,AUTO
         7 000630   100001 756100                    STQ     1,,PR1

   8322  7 000631   000640 710000 7                  TRA     s:8328

   8325  7 000632   100001 473500                    LDP3    1,,PR1
         7 000633   200016 236100                    LDQ     LX_TERMINAL$,,AUTO
         7 000634   300007 756100                    STQ     7,,PR3

   8326  7 000635   200016 236100                    LDQ     LX_TERMINAL$,,AUTO
         7 000636   200013 471500                    LDP1    REPLACE$,,AUTO
         7 000637   100001 756100                    STQ     1,,PR1

   8328  7 000640   200013 471500                    LDP1    REPLACE$,,AUTO
         7 000641   100002 054100                    AOS     2,,PR1

     1146     8331
     1147     8332    3       END ; /* (3) ALL, LEADING, or FIRST */

     1148     8333
     1149     8334            %ADD_LX_ITEM_TO_LIST_TAIL (@LIST$ = REPLACE$,
     1150     8335                                       @FROM$ = LX_LIST$) ;

   8337  7 000642   000000 236000 8                  LDQ     0
         7 000643   200017 471500                    LDP1    LX_LIST$,,AUTO
         7 000644   100007 756100                    STQ     7,,PR1

   8338  7 000645   200013 471500                    LDP1    REPLACE$,,AUTO
         7 000646   100002 235100                    LDA     2,,PR1
         7 000647   000656 601000 7                  TNZ     s:8345

   8340  7 000650   200017 236100                    LDQ     LX_LIST$,,AUTO
         7 000651   100004 756100                    STQ     4,,PR1
PL6.E3A0      #011=Z8EH$EXAMINE_R File=Z8EH.:Z8A6TSI                             SAT 08/09/97 12:05 Page:236

   8341  7 000652   200017 236100                    LDQ     LX_LIST$,,AUTO
         7 000653   200013 471500                    LDP1    REPLACE$,,AUTO
         7 000654   100001 756100                    STQ     1,,PR1

   8342  7 000655   000664 710000 7                  TRA     s:8348

   8345  7 000656   100001 473500                    LDP3    1,,PR1
         7 000657   200017 236100                    LDQ     LX_LIST$,,AUTO
         7 000660   300007 756100                    STQ     7,,PR3

   8346  7 000661   200017 236100                    LDQ     LX_LIST$,,AUTO
         7 000662   200013 471500                    LDP1    REPLACE$,,AUTO
         7 000663   100001 756100                    STQ     1,,PR1

   8348  7 000664   200013 471500                    LDP1    REPLACE$,,AUTO
         7 000665   100002 054100                    AOS     2,,PR1

     1151     8351
     1152     8352            %ADD_LX_ITEM_TO_LIST_TAIL (@LIST$ = LX_LIST1$,
     1153     8353                                       @FROM$ = REPLACE$) ;

   8355  7 000666   000000 236000 8                  LDQ     0
         7 000667   200013 471500                    LDP1    REPLACE$,,AUTO
         7 000670   100007 756100                    STQ     7,,PR1

   8356  7 000671   200007 471500                    LDP1    LX_LIST1$,,AUTO
         7 000672   100002 235100                    LDA     2,,PR1
         7 000673   000702 601000 7                  TNZ     s:8363

   8358  7 000674   200013 236100                    LDQ     REPLACE$,,AUTO
         7 000675   100004 756100                    STQ     4,,PR1

   8359  7 000676   200013 236100                    LDQ     REPLACE$,,AUTO
         7 000677   200007 471500                    LDP1    LX_LIST1$,,AUTO
         7 000700   100001 756100                    STQ     1,,PR1

PL6.E3A0      #011=Z8EH$EXAMINE_R File=Z8EH.:Z8A6TSI                             SAT 08/09/97 12:05 Page:237
   8360  7 000701   000710 710000 7                  TRA     s:8366

   8363  7 000702   100001 473500                    LDP3    1,,PR1
         7 000703   200013 236100                    LDQ     REPLACE$,,AUTO
         7 000704   300007 756100                    STQ     7,,PR3

   8364  7 000705   200013 236100                    LDQ     REPLACE$,,AUTO
         7 000706   200007 471500                    LDP1    LX_LIST1$,,AUTO
         7 000707   100001 756100                    STQ     1,,PR1

   8366  7 000710   200007 471500                    LDP1    LX_LIST1$,,AUTO
         7 000711   100002 054100                    AOS     2,,PR1

     1154     8369
     1155     8370    2       PHRASE$ = PHRASE$ -> LX_ITEM.LINK ;

   8370  7 000712   200006 471500                    LDP1    PHRASE$,,AUTO
         7 000713   100007 236100                    LDQ     7,,PR1
         7 000714   200006 756100                    STQ     PHRASE$,,AUTO

     1156     8371    2     END ; /* UNTIL PHRASE$ = ADDR (NIL) */

   8371  7 000715   000000 116000 8                  CMPQ    0
         7 000716   000061 601000 7                  TNZ     s:7980

     1157     8372
     1158     8373          /* Call Inspect Replacing semantics */
     1159     8374
     1160     8375    1     STMT$ -> INSPECT_2_STMT.INSP_2_REPLACE$ = LX_LIST1$ ;

   8375  7 000717   200007 236100                    LDQ     LX_LIST1$,,AUTO
         7 000720   200015 471500                    LDP1    STMT$,,AUTO
         7 000721   100003 756100                    STQ     3,,PR1

     1161     8376
     1162     8377    1     CALL Z8EA$INSPECT_2 (STMT$) ;

PL6.E3A0      #011=Z8EH$EXAMINE_R File=Z8EH.:Z8A6TSI                             SAT 08/09/97 12:05 Page:238
   8377  7 000722   200015 631500                    EPPR1   STMT$,,AUTO
         7 000723   200030 451500                    STP1    INSPECT+8,,AUTO
         7 000724   200030 630500                    EPPR0   INSPECT+8,,AUTO
         7 000725   000004 631400 8                  EPPR1   4
         7 000726   000000 701000 xent               TSX1    Z8EA$INSPECT_2
         7 000727   000000 011000                    NOP     0

     1163     8378
     1164     8379    1     CALL Z8ED$DISPOSE_ABSSYN_TREE (LX_LIST1$) ;

   8379  7 000730   200007 630500                    EPPR0   LX_LIST1$,,AUTO
         7 000731   200030 450500                    STP0    INSPECT+8,,AUTO
         7 000732   200030 630500                    EPPR0   INSPECT+8,,AUTO
         7 000733   000004 631400 8                  EPPR1   4
         7 000734   000000 701000 xent               TSX1    Z8ED$DISPOSE_ABSSYN_TREE
         7 000735   000000 011000                    NOP     0

     1165     8380
     1166     8381    1   END Z8EH$EXAMINE_R ;

   8381  7 000736   000000 702200 xent               TSX2  ! X66_ARET
     1167     8382        %EOD;

PL6.E3A0      #011=Z8EH$EXAMINE_R File=Z8EH.:Z8A6TSI                             SAT 08/09/97 12:05 Page:239
--  Include file information  --

   Z8E_HEAP.:Z8A6TOU  cannot be made into a system file and is referenced.
   Z8E_ABSSYN.:Z8A6TOU  cannot be made into a system file and is referenced.
   Z8E_WINDOW.:Z8A6TOU  is referenced.
   Z8A_LEX_SYMB.:Z8A6TOU  cannot be made into a system file and is referenced.
   Z8E_STACKS.:Z8A6TOU  cannot be made into a system file and is referenced.
   Z8A_TYPES.:Z8A6TOU  is referenced.
   Z8A_COMCOM.:Z8A6TOU  cannot be made into a system file and is referenced.
   X8A_COM_MACS.:X8A6TOU  is referenced.
   Z8A_NAMES.:Z8A6TOU  is referenced.
   Z8A_SUPP_MAC.:Z8A6TOU  is referenced.
   Z8A_DEFC.:Z8A6TOU  cannot be made into a system file and is referenced.
      No diagnostics issued in procedure Z8EH$EXAMINE_R.
PL6.E3A0      #011=Z8EH$EXAMINE_R File=Z8EH.:Z8A6TSI                             SAT 08/09/97 12:05 Page:240

 **** Variables and constants ****

  ****  Section 000 LblCom ITERATION

  ****  Scalars and arrays  ****
OctLoc.c.b A Datatyp(siz) R M Lvl/name                 OctLoc.c.b A Datatyp(siz) R M Lvl/name

     0-0-0/w SBIN              1 ITERATION

  ****  Section 001 LblCom LEX_SYMBOL

  ****  Scalars and arrays  ****
OctLoc.c.b A Datatyp(siz) R M Lvl/name                 OctLoc.c.b A Datatyp(siz) R M Lvl/name

     0-0-0/w STRC(3240)  r     1 LEX_SYMBOL                 0-0-0/w STRC(3240)        1 LEX_SYMBOL_WORDS

  ****  Section 002 LblCom CURRENT_LEX_SYMBOL$

  ****  Scalars and arrays  ****
OctLoc.c.b A Datatyp(siz) R M Lvl/name                 OctLoc.c.b A Datatyp(siz) R M Lvl/name

     0-0-0/w PTR         r     1 CURRENT_LEX_SYMBOL$

  ****  Section 003 LblCom TEMP_LEX_SYMBOL

  ****  Scalars and arrays  ****
OctLoc.c.b A Datatyp(siz) R M Lvl/name                 OctLoc.c.b A Datatyp(siz) R M Lvl/name

     0-0-0/w STRC(3240)        1 TEMP_LEX_SYMBOL

  ****  Section 004 LblCom TEMP_LEX_SYMBOL2

  ****  Scalars and arrays  ****
OctLoc.c.b A Datatyp(siz) R M Lvl/name                 OctLoc.c.b A Datatyp(siz) R M Lvl/name

     0-0-0/w STRC(3240)        1 TEMP_LEX_SYMBOL2

PL6.E3A0      #011=Z8EH$EXAMINE_R File=Z8EH.:Z8A6TSI                             SAT 08/09/97 12:05 Page:241
  ****  Section 005 LblCom TEMP_LX_NODE

  ****  Scalars and arrays  ****
OctLoc.c.b A Datatyp(siz) R M Lvl/name                 OctLoc.c.b A Datatyp(siz) R M Lvl/name

     0-0-0/d STRC(288)         1 TEMP_LX_NODE

  ****  Section 006 LblCom HEAP$

  ****  Scalars and arrays  ****
OctLoc.c.b A Datatyp(siz) R M Lvl/name                 OctLoc.c.b A Datatyp(siz) R M Lvl/name

     0-0-0/w PTR               1 HEAP$

  ****  Auto variables  ****

  ****  Scalars and arrays  ****
OctLoc.c.b A Datatyp(siz) R M Lvl/name                 OctLoc.c.b A Datatyp(siz) R M Lvl/name

     3-0-0/w PTR         r     1 @EXAMINE$                  4-0-0/w PTR         r     1 @ID_1$
     5-0-0/w PTR         r     1 @LIST$                    10-0-0/w PTR         r     1 ALL$
    14-0-0/w PTR         r     1 CLAUSE$                   *0-0-0/w PTR         r     1 EXAMINE$
    *0-0-0/w PTR         r     1 ID_1$                     11-0-0/w PTR         r     1 ID_4$
    12-0-0/w PTR         r     1 ID_5$                     20-0-0/d STRC(288)   r     1 INSPECT
    *0-0-0/w PTR         r     1 LIST$                     17-0-0/w PTR         r     1 LX_LIST$
     7-0-0/w PTR         r     1 LX_LIST1$                 16-0-0/w PTR         r     1 LX_TERMINAL$
     6-0-0/w PTR         r     1 PHRASE$                   13-0-0/w PTR         r     1 REPLACE$
    15-0-0/w PTR         r     1 STMT$

  ****  SYMREF variables  ****

  ****  Scalars and arrays  ****
OctLoc.c.b A Datatyp(siz) R M Lvl/name                 OctLoc.c.b A Datatyp(siz) R M Lvl/name

     0-0-0/d STRC(13248) r     1 COMCOM

  ****  BASED and DCB variables  ****
PL6.E3A0      #011=Z8EH$EXAMINE_R File=Z8EH.:Z8A6TSI                             SAT 08/09/97 12:05 Page:242

  ****  Scalars and arrays  ****
OctLoc.c.b A Datatyp(siz) R M Lvl/name                 OctLoc.c.b A Datatyp(siz) R M Lvl/name

     0-0-0/w STRC(288)         1 ADD_STMT                   0-0-0/w ASTR(324)   r     1 BASED_LEX_SYMBOL
     0-0-0/w STRC(360)         1 BASED_LEX_SYMBOL_WORDS
     0-0-0/w STRC(288)         1 BINARY_OP                  0-0-0/w STRC(288)         1 CALL_STMT
     0-0-0/w CHAR(4096)        1 CHARS                      0-0-0/w STRC(288)         1 COMPUTE_STMT
     0-0-0/w STRC(72)          1 CONT                       0-0-0/w STRC(288)         1 DEFERED_IDENTIFIER
     0-0-0/w STRC(252)         1 DEFERED_ID_TREE            0-0-0/w STRC(288)         1 DEFERED_QUAL_ID
     0-0-0/w STRC(288)         1 DEFERED_SUM_CLAUSE
     0-0-0/w STRC(288)         1 DEFERED_SUM_CLAUSE_LIST
     0-0-0/w STRC(288)         1 DELETE_STMT                0-0-0/w STRC(288)         1 DIVIDE_STMT
     0-0-0/w STRC(288)         1 ILS_LIST                   0-0-0/w STRC(288)         1 INSPECT_1_STMT
     0-0-0/w STRC(288)   r     1 INSPECT_2_STMT             0-0-0/w STRC(288)         1 INSPECT_4_STMT
     0-0-0/w STRC(288)         1 LA_ITEM                    0-0-0/w STRC(504)         1 LX_CD_INPUT
     0-0-0/w STRC(324)         1 LX_CD_I_O                  0-0-0/w STRC(396)         1 LX_CD_OUTPUT
     0-0-0/w STRC(288)         1 LX_ETT_ITEM                0-0-0/w STRC(288)   r     1 LX_ITEM
     0-0-0/w STRC(288)         1 LX_LARGE                   0-0-0/w STRC(288)   r     1 LX_LIST
     0-0-0/w STRC(1224)        1 LX_REC_DECL                0-0-0/w STRC(864)         1 LX_REPORT_REC
     0-0-0/w STRC(288)   r     1 LX_TERMINAL                0-0-0/w STRC(288)         1 MULTIPLY_STMT
     0-0-0/w STRC(36864)       1 PAGE                       0-0-0/w STRC(288)         1 READ_STMT
     0-0-0/w STRC(288)         1 REWRITE_STMT               0-0-0/w STRC(288)         1 START_STMT
     0-0-0/w STRC(252)         1 STRING_STMT                0-0-0/w STRC(288)         1 SUBTRACT_STMT
     0-0-0/w STRC(288)         1 UNARY_OP                   0-0-0/w STRC(288)         1 UNSTRING_STMT
     0-0-0/w STRC(288)         1 WRITE_STMT


   Procedure Z8EH$EXAMINE_R requires 479 words for executable code.
   Procedure Z8EH$EXAMINE_R requires 26 words of local(AUTO) storage.

PL6.E3A0      #012=Z8EH$EXAMINE_T File=Z8EH.:Z8A6TSI                             SAT 08/09/97 12:06 Page:243
     1168        1        /*T***********************************************************/
     1169        2        /*T*                                                         */
     1170        3        /*T* Copyright (c) Bull HN Information Systems Inc., 1997    */
     1171        4        /*T*                                                         */
     1172        5        /*T***********************************************************/
     1173        6          Z8EH$EXAMINE_T: PROC (EXAMINE$, ID_1$, LIST$) ;
     1174        7        /*-------------------*/
     1175        8
     1176        9        /*I*  NAME: Z8EH$EXAMINE_T
     1177       10
     1178       11             INPUT: EXAMINE$ -- Ptr to LEX_TERMINAL "EXAMINE".
     1179       12                    ID_1$    -- Ptr to LX_ITEM for id-1.
     1180       13                    LIST$    -- Ptr to list of lists (ALL$, ID_2$).
     1181       14                    ALL$     -- Ptr to LX_TERMINAL (ALL, LEADING, UNTIL).
     1182       15                    ID_2$    -- Ptr to LX_ITEM (id or literal).
     1183       16
     1184       17        DESCRIPTION: (1) Transform EXAMINE id1 TALLYING ALL/LEADING id2
     1185       18                              into MOVE ZERO TO TALLY
     1186       19                                   INSPECT id1 TALLYING TALLY
     1187       20                                           FOR ALL/LEADING id2,
     1188       21
     1189       22                     (2) transform EXAMINE id1 TALLYING UNTIL FIRST id2
     1190       23                              into MOVE ZERO TO TALLY
     1191       24                                   INSPECT id1 TALLYING TALLY
     1192       25                                           FOR CHARACTERS BEFORE id2.
     1193       26        */
     1194       27
     1195       28        %EQU PHASE = 1;
     1196       29        %INCLUDE Z8A_DEFC;
     1197       97        %INCLUDE Z8A_SUPP_MAC;
     1198     2497        %INCLUDE Z8A_DNT;
     1199     2718        %INCLUDE Z8A_ST;
     1200     6377        %INCLUDE Z8A_ETT;
     1201     6678        %INCLUDE Z8A_LTS;
     1202     8755        %INCLUDE Z8A_COMCOM;
     1203     9405        %INCLUDE Z8A_TYPES;
     1204     9579        %INCLUDE Z8A_QLT;
PL6.E3A0      #012=Z8EH$EXAMINE_T File=Z8EH.:Z8A6TSI                             SAT 08/09/97 12:06 Page:244
     1205     9685        %INCLUDE Z8E_STACKS;
     1206    11951        %INCLUDE Z8E_O1COM;
     1207    12712        %INCLUDE Z8E_HEAP;
     1208    12768        %INCLUDE Z8E_WINDOW;
     1209    14838        %INCLUDE Z8E_ABSSYN;
     1210    15044    1   DCL    Z8EA$INSPECT_1  ENTRY (1) ; /* Inspect Tallying */
     1211    15045    1   DCL    Z8ED$DISPOSE_ABSSYN_TREE ENTRY (1) ;
     1212    15046    1   DCL    Z8AH$SEARCH_ ENTRY ;
     1213    15047    1   DCL    Z8E7$MOVE ENTRY (2) ;
     1214    15048    1   DCL    Z8AF$NEW_BASE ENTRY (3) ;
     1215    15049
     1216    15050    1   DCL    EXAMINE$        PTR ;   /* key word -- EXAMINE */
     1217    15051    1   DCL    ID_1$           PTR ;   /* id1 */
     1218    15052    1   DCL    LIST$           PTR ;
     1219    15053    1   DCL    PHRASE$         PTR ;
     1220    15054    1   DCL    LX_LIST1$       PTR ;
     1221    15055    1   DCL    ALL$            PTR ;   /* ALL, LEADING, UNTIL */
     1222    15056    1   DCL    ID_2$           PTR ;   /* id or literal */
     1223    15057    1   DCL    TALLY$          PTR ;   /* TALLY created identifier */
     1224    15058    1   DCL    CLAUSE$         PTR ;   /* LX_LIST */
     1225    15059    1   DCL    FOR$            PTR ;   /* LX_LIST */
     1226    15060    1   DCL    INSPECT_1$      PTR ;   /* LX_LIST */
     1227    15061    1   DCL    STMT$           PTR ;   /* INSPECT_1_STMT */
     1228    15062    1   DCL    LX_TERMINAL$    PTR ;
     1229    15063    1   DCL    LX_LIST$        PTR ;
     1230    15064
     1231    15065        %DCL_AUTO_LX_ITEM (@NAME = INSPECT) ;
     1232    15069        %DCL_AUTO_LX_ITEM (@NAME = ZERO) ;
     1233    15073
     1234    15074    1     CALL CREATE_TALLY_LX_ETT_ITEM (TALLY$) ;
     1235    15075
     1236    15076          /* MOVE ZERO TO TALLY */
     1237    15077
     1238    15078          %INIT_LX_ETT_ITEM (@POINTER = "ADDR(ZERO)",
     1239    15079                             @TYPE    = %TYI,
     1240    15080                             @ETT$    = COMCOM.VALUE_0) ;
     1241    15102    1     CALL Z8E7$MOVE (TALLY$, ADDR (ZERO)) ;
PL6.E3A0      #012=Z8EH$EXAMINE_T File=Z8EH.:Z8A6TSI                             SAT 08/09/97 12:06 Page:245
     1242    15103
     1243    15104          /* INSPECT id1 TALLYING TALLY FOR ... */
     1244    15105    1     STMT$ = ADDR (INSPECT) ;
     1245    15106
     1246    15107    1     STMT$ -> INSPECT_1_STMT.ID     = %INSPECT_1 ;
     1247    15108    1     STMT$ -> INSPECT_1_STMT.KEY_WORD$ = EXAMINE$ ;
     1248    15109    1     STMT$ -> INSPECT_1_STMT.ID_1$  = ID_1$ ;
     1249    15110    1     STMT$ -> INSPECT_1_STMT.LINE   = EXAMINE$ -> LX_TERMINAL.LINE ;
     1250    15111    1     STMT$ -> INSPECT_1_STMT.COLUMN = EXAMINE$ -> LX_TERMINAL.COLUMN ;
     1251    15112
     1252    15113    1     PHRASE$ = LIST$ -> LX_LIST.HEAD$ ;
     1253    15114
     1254    15115          %NEW (@TEMPLATE = LX_LIST,
     1255    15116                @POINTER  = INSPECT_1$) ;
     1256    15126
     1257    15127          %INIT_LX_LIST (@POINTER = INSPECT_1$,
     1258    15128                         @HEAD$   = TALLY$,
     1259    15129                         @TAIL$   = TALLY$,
     1260    15130                         @COUNT   = 1) ;
     1261    15140
     1262    15141          /* (1) & (2) LX_LIST (FOR$) */
     1263    15142
     1264    15143          %NEW (@TEMPLATE = LX_LIST,
     1265    15144                @POINTER  = LX_LIST1$) ;
     1266    15154
     1267    15155          %INIT_LX_LIST (@POINTER = LX_LIST1$) ;
     1268    15165
     1269    15166    2     DO UNTIL PHRASE$ = ADDR (NIL) ;
     1270    15167    2       ALL$ = PHRASE$ -> LX_LIST.HEAD$ ;
     1271    15168            %NEW_COPY_LX_ITEM (@FROM$ = PHRASE$ -> LX_LIST.TAIL$,
     1272    15169                               @TO$   = ID_2$) ;
     1273    15181
     1274    15182            /* (1) LX_LIST (id2, EMPTY)  */
     1275    15183            /* (2) LX_LIST (BEFORE, id2) */
     1276    15184
     1277    15185            %NEW (@TEMPLATE = LX_TERMINAL,
     1278    15186                  @POINTER  = LX_TERMINAL$) ;
PL6.E3A0      #012=Z8EH$EXAMINE_T File=Z8EH.:Z8A6TSI                             SAT 08/09/97 12:06 Page:246
     1279    15196
     1280    15197            %NEW (@TEMPLATE = LX_LIST,
     1281    15198                  @POINTER  = CLAUSE$) ;
     1282    15208
     1283    15209            %INIT_LX_LIST (@POINTER = CLAUSE$) ;
     1284    15219
     1285    15220    3       IF ALL$ -> LX_TERMINAL.SYMBOL = %RSV_WRD_UNTIL THEN DO ;
     1286    15221
     1287    15222              %INIT_LX_TERMINAL (@POINTER = LX_TERMINAL$,
     1288    15223                                 @SYMBOL  = %RSV_WRD_BEFORE) ;
     1289    15241
     1290    15242              %ADD_LX_ITEM_TO_LIST_TAIL (@LIST$ = CLAUSE$,
     1291    15243                                         @FROM$ = LX_TERMINAL$) ;
     1292    15259
     1293    15260              %ADD_LX_ITEM_TO_LIST_TAIL (@LIST$ = CLAUSE$,
     1294    15261                                         @FROM$ = ID_2$) ;
     1295    15277
     1296    15278    3       END ; /* (2) UNTIL */
     1297    15279
     1298    15280    3       ELSE DO ; /* (1) ALL or LEADING */
     1299    15281
     1300    15282              %INIT_LX_TERMINAL (@POINTER = LX_TERMINAL$,
     1301    15283                                 @SYMBOL  = %RSV_WRD_EMPTY) ;
     1302    15301
     1303    15302              %ADD_LX_ITEM_TO_LIST_TAIL (@LIST$ = CLAUSE$,
     1304    15303                                         @FROM$ = ID_2$) ;
     1305    15319
     1306    15320              %ADD_LX_ITEM_TO_LIST_TAIL (@LIST$ = CLAUSE$,
     1307    15321                                         @FROM$ = LX_TERMINAL$) ;
     1308    15337
     1309    15338    3       END ; /* (1) ALL or LEADING */
     1310    15339
     1311    15340            /* (1) & (2) LX_LIST (CLAUSE$) */
     1312    15341
     1313    15342            %NEW (@TEMPLATE = LX_LIST,
     1314    15343                  @POINTER  = LX_LIST$) ;
     1315    15353
PL6.E3A0      #012=Z8EH$EXAMINE_T File=Z8EH.:Z8A6TSI                             SAT 08/09/97 12:06 Page:247
     1316    15354            %INIT_LX_LIST (@POINTER = LX_LIST$,
     1317    15355                           @HEAD$   = CLAUSE$,
     1318    15356                           @TAIL$   = CLAUSE$,
     1319    15357                           @COUNT   = 1) ;
     1320    15367
     1321    15368            /* (1) LX_LIST (ALL/LEADING, LX_LIST) */
     1322    15369            /* (2) LX_LIST (CHARACTERS , LX_LIST) */
     1323    15370
     1324    15371            %NEW (@TEMPLATE = LX_LIST,
     1325    15372                  @POINTER  = FOR$) ;
     1326    15382
     1327    15383            %NEW (@TEMPLATE = LX_TERMINAL,
     1328    15384                  @POINTER  = LX_TERMINAL$) ;
     1329    15394
     1330    15395    3       IF ALL$ -> LX_TERMINAL.SYMBOL = %RSV_WRD_UNTIL THEN DO ;
     1331    15396
     1332    15397              %INIT_LX_TERMINAL (@POINTER = LX_TERMINAL$,
     1333    15398                                 @SYMBOL  = %RSV_WRD_CHARACTERS) ;
     1334    15416
     1335    15417    3       END ; /* (2) EXAMINE ... UNTIL FIRST */
     1336    15418
     1337    15419    3       ELSE DO ; /* (1) EXAMINE ... ALL or LEADING */
     1338    15420
     1339    15421              %INIT_LX_TERMINAL (@POINTER = LX_TERMINAL$,
     1340    15422                                 @SYMBOL  = "ALL$ -> LX_TERMINAL.SYMBOL") ;
     1341    15440
     1342    15441    3       END ; /* (1) ALL or LEADING */
     1343    15442
     1344    15443            %INIT_LX_LIST (@POINTER = FOR$,
     1345    15444                           @HEAD$   = LX_TERMINAL$,
     1346    15445                           @TAIL$   = LX_TERMINAL$,
     1347    15446                           @COUNT   = 1) ;
     1348    15456
     1349    15457            %ADD_LX_ITEM_TO_LIST_TAIL (@LIST$ = FOR$,
     1350    15458                                       @FROM$ = LX_LIST$) ;
     1351    15474
     1352    15475            %ADD_LX_ITEM_TO_LIST_TAIL (@LIST$ = LX_LIST1$,
PL6.E3A0      #012=Z8EH$EXAMINE_T File=Z8EH.:Z8A6TSI                             SAT 08/09/97 12:06 Page:248
     1353    15476                                       @FROM$ = FOR$) ;
     1354    15492
     1355    15493    2       PHRASE$ = PHRASE$ -> LX_ITEM.LINK ;
     1356    15494
     1357    15495    2     END ; /* UNTIL PHRASE$ = ADDR (NIL) */
     1358    15496
     1359    15497          %ADD_LX_ITEM_TO_LIST_TAIL (@LIST$ = INSPECT_1$,
     1360    15498                                     @FROM$ = LX_LIST1$) ;
     1361    15514
     1362    15515          /* Call INSPECT TALLYING semantic routine */
     1363    15516
     1364    15517    1     STMT$ -> INSPECT_1_STMT.INSPECT_1$ = INSPECT_1$ ;
     1365    15518
     1366    15519    1     CALL Z8EA$INSPECT_1 (STMT$) ;
     1367    15520
     1368    15521    1     CALL Z8ED$DISPOSE_ABSSYN_TREE (INSPECT_1$) ;
     1369    15522
     1370    15523    1     RETURN ;
     1371    15524
     1372    15525        %EJECT; /* Next page starts Z8EH$EXAMINE_T's internal PROCs */
PL6.E3A0      #012=Z8EH$EXAMINE_T File=Z8EH.:Z8A6TSI                             SAT 08/09/97 12:06 Page:249
     1373    15526        /*------------------------*/
     1374    15527    1     CREATE_TALLY_LX_ETT_ITEM: PROC (TALLY$) ;
     1375    15528        /*------------------------*/
     1376    15529
     1377    15530        /*I*   NAME: CREATE_TALLY_LX_ETT_ITEM
     1378    15531
     1379    15532               CALL: Called by Z8EH$EXAMINE_T
     1380    15533
     1381    15534              INPUT: O1COM.TALLY$ -- Base item or NIL.
     1382    15535
     1383    15536             OUTPUT: TALLY$ -- LX_ETT_ITEM
     1384    15537
     1385    15538        DESCRIPTION: Create the TALLY identifier (if it doesn't exist).
     1386    15539                     Create the associated LX_ETT_ITEM.
     1387    15540
     1388    15541        */
     1389    15542
     1390    15543    2   DCL   TALLY$   PTR ; /* Result -- a LX_ETT_ITEM */
     1391    15544
     1392    15545    3       IF O1COM.TALLY$ = ADDR(NIL) THEN DO ;
     1393    15546
     1394    15547    3         LEX_SYMBOL.SIZE   = 5 ;
     1395    15548    3         LEX_SYMBOL.SYMBOL = 'TALLY' ;
     1396    15549    3         CALL Z8AH$SEARCH_ ; /* Result is DNT$ */
     1397    15550
     1398    15551    4         IF DNT$ -> DNT.ST$ = ADDR(NIL) THEN DO ;
     1399    15552
     1400    15553                %NEW_SCALAR (@ST$   = ST$,
     1401    15554                             @TYPE  = %TYI,
     1402    15555                             @DESCL = 4,
     1403    15556                             @DNT$  = DNT$,
     1404    15557                             @ELEMENTARY = TRUE) ;
     1405    15757
     1406    15758                %NEW_QLT (@POINTER = QLT$,
     1407    15759                          @ST$     = ST$,
     1408    15760                          @DNT$    = DNT$,
     1409    15761                          @ID      = %QUAL) ;
PL6.E3A0      #012=Z8EH$EXAMINE_T File=Z8EH.:Z8A6TSI                             SAT 08/09/97 12:06 Page:250
     1410    15786
     1411    15787    4           ST$ -> SCALAR.QLT$ = QLT$ ;
     1412    15788    4           DNT$ -> DNT.ST$ = ST$ ;
     1413    15789
     1414    15790                %UPDATE_PREV_QLT$ (@NEW_QLT$ = QLT$) ;
     1415    15797
     1416    15798    4         END ; /* ST$ = nil */
     1417    15799
     1418    15800    3         CALL Z8AF$NEW_BASE (DNT$ -> DNT.ST$, ADDR(NIL), O1COM.TALLY$) ;
     1419    15801
     1420    15802    3       END ; /* O1COM.TALLY$ = nil */
     1421    15803
     1422    15804            %NEW (@TEMPLATE = LX_ETT_ITEM,
     1423    15805                  @POINTER  = TALLY$) ;
     1424    15815
     1425    15816            %INIT_LX_ETT_ITEM (@POINTER = TALLY$,
     1426    15817                               @ETT$    = O1COM.TALLY$,
     1427    15818                               @TYPE    = "O1COM.TALLY$ -> ETT.LOP -> ST.TYPE") ;
     1428    15840
     1429    15841    2     END CREATE_TALLY_LX_ETT_ITEM ;
     1430    15842
     1431    15843    1   END Z8EH$EXAMINE_T ;
     1432    15844

PL6.E3A0      #012=Z8EH$EXAMINE_T File=Z8EH.:Z8A6TSI                             SAT 08/09/97 12:06 Page:251
--  Include file information  --

   Z8E_ABSSYN.:Z8A6TOU  cannot be made into a system file and is referenced.
   Z8E_WINDOW.:Z8A6TOU  is referenced.
   Z8E_HEAP.:Z8A6TOU  cannot be made into a system file and is referenced.
   Z8E_O1COM.:Z8A6TOU  cannot be made into a system file and is referenced.
   Z8A_LEX_SYMB.:Z8A6TOU  cannot be made into a system file and is referenced.
   Z8E_STACKS.:Z8A6TOU  cannot be made into a system file and is referenced.
   Z8A_QLT.:Z8A6TOU  cannot be made into a system file and is referenced.
   Z8A_TYPES.:Z8A6TOU  is referenced.
   Z8A_COMCOM.:Z8A6TOU  cannot be made into a system file and is referenced.
   Z8A_LTS.:Z8A6TOU  cannot be made into a system file and is referenced.
   Z8A_ETT.:Z8A6TOU  cannot be made into a system file and is referenced.
   Z8A_ST.:Z8A6TOU  cannot be made into a system file and is referenced.
   Z8A_DNT.:Z8A6TOU  cannot be made into a system file and is referenced.
   X8A_COM_MACS.:X8A6TOU  is referenced.
   Z8A_NAMES.:Z8A6TOU  is referenced.
   Z8A_SUPP_MAC.:Z8A6TOU  is referenced.
   Z8A_DEFC.:Z8A6TOU  cannot be made into a system file and is referenced.
      No diagnostics issued in procedure Z8EH$EXAMINE_T.

   Procedure Z8EH$EXAMINE_T requires 680 words for executable code.
   Procedure Z8EH$EXAMINE_T requires 40 words of local(AUTO) storage.

    No errors detected in file Z8EH.:Z8A6TSI    .

PL6.E3A0      #012=Z8EH$EXAMINE_T File=Z8EH.:Z8A6TSI                             SAT 08/09/97 12:06 Page:252

 Object Unit name= Z8EH$EXAMINE_T                             File name= Z8EH.:Z8A6TOU
 UTS= AUG 09 '97 12:06:36.76 SAT                              Compiler= PL-6/E31         Sev=      00
 SharedLib= :SHARED_SYSTEM                                    Alt SharedLib=


    ****  Control sections  ****

 Sect   Type Bound  Init  Size OctSiz  Section name(segment info)
    0  LblCom even  none     1      1  ITERATION
    1  LblCom even  none     1      1  DNT$
    2  LblCom even  none     5      5  DNT_
    3  LblCom even  none     1      1  DNT_BUCKET_NUMBER
    4  LblCom even  none     1      1  DNT_OF_1$
    5  LblCom even  none     1      1  ST$
    6  LblCom even  none     5      5  ST_
    7  LblCom even  none     1      1  ETT$
    8  LblCom even  none     1      1  HEAD_ETT$
    9  LblCom even  none   512   1000  ETT_BUCKETS
   10  LblCom even  none     5      5  ETT_
   11  LblCom even  none     1      1  LTS$
   12  LblCom even  none     5      5  LTS_
   13  LblCom even  none     1      1  QLT$
   14  LblCom even  none     1      1  PREV_01_QLT$
   15  LblCom even  none     5      5  QLT_
   16  LblCom even  none    90    132  LEX_SYMBOL
   17  LblCom even  none     1      1  CURRENT_LEX_SYMBOL$
   18  LblCom even  none    90    132  TEMP_LEX_SYMBOL
   19  LblCom even  none    90    132  TEMP_LEX_SYMBOL2
   20  LblCom even  none     1      1  HEAP$
   21  LblCom even  none     8     10  TEMP_LX_NODE
   22  RoData even  UTS      2      2  Z8EH$EXAMINE_T
   23   Proc  even  none   680   1250  Z8EH$EXAMINE_T
   24  RoData even  none    14     16  Z8EH$EXAMINE_T
PL6.E3A0      #012=Z8EH$EXAMINE_T File=Z8EH.:Z8A6TSI                             SAT 08/09/97 12:06 Page:253

    ****  Entry defs  ****

                              Check   Calling
                             calling  sequence
  Sect OctLoc Primary Altret sequence   type   Parms  Name
    23      0   yes            yes      Std        3  Z8EH$EXAMINE_T

  ****  Entry refs  ****

         Check        Calling
        calling       sequence
Altret sequence SRef   type   Args  Name
         yes           Std       2 Z8ED$NEW_HEAP
         yes           Std       1 Z8EA$INSPECT_1
         yes           Std       2 Z8E7$MOVE
         yes           Std       1 Z8ED$DISPOSE_ABSSYN_TREE
         yes           Std       0 Z8AH$SEARCH_
         yes           Std       1 Z8AR$RESERVER
         yes           Std       3 Z8AF$NEW_BASE
                       nStd      0 X66_AUTO_3
                       nStd      0 X66_ARET

  ****  Data refs  ****

  Flags:  r = read only, s = secondary
Flgs Name                             Flgs Name                             Flgs Name
r    LTS_STEP                              COMCOM                                O1COM
     HIER_STK_PTR                          HIER_STK                              PAGE_FORMAT
     REP_STK_PTR                           REP_STK

  ****  Segment refs  ****

  Flags:  r = read only, s = secondary
Flgs Name                             Flgs Name                             Flgs Name
     NULLSID                               ISSID
PL6.E3A0      #012=Z8EH$EXAMINE_T File=Z8EH.:Z8A6TSI                             SAT 08/09/97 12:06 Page:254


     1168        1        /*T***********************************************************/
     1169        2        /*T*                                                         */
     1170        3        /*T* Copyright (c) Bull HN Information Systems Inc., 1997    */
     1171        4        /*T*                                                         */
     1172        5        /*T***********************************************************/
     1173        6          Z8EH$EXAMINE_T: PROC (EXAMINE$, ID_1$, LIST$) ;

      6 23 000000   000000 700200 xent  Z8EH$EXAMIN* TSX0  ! X66_AUTO_3
        23 000001   000050 000003                    ZERO    40,3

     1174        7        /*-------------------*/
     1175        8
     1176        9        /*I*  NAME: Z8EH$EXAMINE_T
     1177       10
     1178       11             INPUT: EXAMINE$ -- Ptr to LEX_TERMINAL "EXAMINE".
     1179       12                    ID_1$    -- Ptr to LX_ITEM for id-1.
     1180       13                    LIST$    -- Ptr to list of lists (ALL$, ID_2$).
     1181       14                    ALL$     -- Ptr to LX_TERMINAL (ALL, LEADING, UNTIL).
     1182       15                    ID_2$    -- Ptr to LX_ITEM (id or literal).
     1183       16
     1184       17        DESCRIPTION: (1) Transform EXAMINE id1 TALLYING ALL/LEADING id2
     1185       18                              into MOVE ZERO TO TALLY
     1186       19                                   INSPECT id1 TALLYING TALLY
     1187       20                                           FOR ALL/LEADING id2,
     1188       21
     1189       22                     (2) transform EXAMINE id1 TALLYING UNTIL FIRST id2
     1190       23                              into MOVE ZERO TO TALLY
     1191       24                                   INSPECT id1 TALLYING TALLY
     1192       25                                           FOR CHARACTERS BEFORE id2.
     1193       26        */
     1194       27
     1195       28        %EQU PHASE = 1;
     1196       29        %INCLUDE Z8A_DEFC;
     1197       97        %INCLUDE Z8A_SUPP_MAC;
     1198     2497        %INCLUDE Z8A_DNT;
     1199     2718        %INCLUDE Z8A_ST;
PL6.E3A0      #012=Z8EH$EXAMINE_T File=Z8EH.:Z8A6TSI                             SAT 08/09/97 12:06 Page:255
     1200     6377        %INCLUDE Z8A_ETT;
     1201     6678        %INCLUDE Z8A_LTS;
     1202     8755        %INCLUDE Z8A_COMCOM;
     1203     9405        %INCLUDE Z8A_TYPES;
     1204     9579        %INCLUDE Z8A_QLT;
     1205     9685        %INCLUDE Z8E_STACKS;
     1206    11951        %INCLUDE Z8E_O1COM;
     1207    12712        %INCLUDE Z8E_HEAP;
     1208    12768        %INCLUDE Z8E_WINDOW;
     1209    14838        %INCLUDE Z8E_ABSSYN;
     1210    15044    1   DCL    Z8EA$INSPECT_1  ENTRY (1) ; /* Inspect Tallying */
     1211    15045    1   DCL    Z8ED$DISPOSE_ABSSYN_TREE ENTRY (1) ;
     1212    15046    1   DCL    Z8AH$SEARCH_ ENTRY ;
     1213    15047    1   DCL    Z8E7$MOVE ENTRY (2) ;
     1214    15048    1   DCL    Z8AF$NEW_BASE ENTRY (3) ;
     1215    15049
     1216    15050    1   DCL    EXAMINE$        PTR ;   /* key word -- EXAMINE */
     1217    15051    1   DCL    ID_1$           PTR ;   /* id1 */
     1218    15052    1   DCL    LIST$           PTR ;
     1219    15053    1   DCL    PHRASE$         PTR ;
     1220    15054    1   DCL    LX_LIST1$       PTR ;
     1221    15055    1   DCL    ALL$            PTR ;   /* ALL, LEADING, UNTIL */
     1222    15056    1   DCL    ID_2$           PTR ;   /* id or literal */
     1223    15057    1   DCL    TALLY$          PTR ;   /* TALLY created identifier */
     1224    15058    1   DCL    CLAUSE$         PTR ;   /* LX_LIST */
     1225    15059    1   DCL    FOR$            PTR ;   /* LX_LIST */
     1226    15060    1   DCL    INSPECT_1$      PTR ;   /* LX_LIST */
     1227    15061    1   DCL    STMT$           PTR ;   /* INSPECT_1_STMT */
     1228    15062    1   DCL    LX_TERMINAL$    PTR ;
     1229    15063    1   DCL    LX_LIST$        PTR ;
     1230    15064
     1231    15065        %DCL_AUTO_LX_ITEM (@NAME = INSPECT) ;
     1232    15069        %DCL_AUTO_LX_ITEM (@NAME = ZERO) ;
     1233    15073
     1234    15074    1     CALL CREATE_TALLY_LX_ETT_ITEM (TALLY$) ;

  15074 23 000002   200012 630500                    EPPR0   TALLY$,,AUTO
PL6.E3A0      #012=Z8EH$EXAMINE_T File=Z8EH.:Z8A6TSI                             SAT 08/09/97 12:06 Page:256
        23 000003   200043 450500                    STP0    ZERO+9,,AUTO
        23 000004   000741 701000 23                 TSX1    CREATE_TALLY_LX_ETT_ITEM
        23 000005   000000 011000                    NOP     0

     1235    15075
     1236    15076          /* MOVE ZERO TO TALLY */
     1237    15077
     1238    15078          %INIT_LX_ETT_ITEM (@POINTER = "ADDR(ZERO)",
     1239    15079                             @TYPE    = %TYI,
     1240    15080                             @ETT$    = COMCOM.VALUE_0) ;

  15082 23 000006   000004 220003                    LDX0    4,DU
        23 000007   200032 740100                    STX0    ZERO,,AUTO

  15083 23 000010   000000 221003                    LDX1    0,DU
        23 000011   200032 441100                    SXL1    ZERO,,AUTO

  15084 23 000012   000001 235007                    LDA     1,DL
        23 000013   200036 755100                    STA     ZERO+4,,AUTO

  15085 23 000014   000000 236000 24                 LDQ     0
        23 000015   200041 756100                    STQ     ZERO+7,,AUTO

  15086 23 000016   000124 236000 xsym               LDQ     COMCOM+84
        23 000017   200033 756100                    STQ     ZERO+1,,AUTO

  15087 23 000020   000000 236000 24                 LDQ     0
        23 000021   200034 756100                    STQ     ZERO+2,,AUTO

  15089 23 000022   000133 235000 xsym               LDA     COMCOM+91
        23 000023   200037 755100                    STA     ZERO+5,,AUTO

  15090 23 000024   000134 235000 xsym               LDA     COMCOM+92
        23 000025   200040 755100                    STA     ZERO+6,,AUTO

     1241    15102    1     CALL Z8E7$MOVE (TALLY$, ADDR (ZERO)) ;

PL6.E3A0      #012=Z8EH$EXAMINE_T File=Z8EH.:Z8A6TSI                             SAT 08/09/97 12:06 Page:257
  15102 23 000026   200032 630500                    EPPR0   ZERO,,AUTO
        23 000027   200044 450500                    STP0    @TALLY$+1,,AUTO
        23 000030   200044 631500                    EPPR1   @TALLY$+1,,AUTO
        23 000031   200047 451500                    STP1    @TALLY$+4,,AUTO
        23 000032   200012 633500                    EPPR3   TALLY$,,AUTO
        23 000033   200046 453500                    STP3    @TALLY$+3,,AUTO
        23 000034   200046 630500                    EPPR0   @TALLY$+3,,AUTO
        23 000035   000001 631400 24                 EPPR1   1
        23 000036   000000 701000 xent               TSX1    Z8E7$MOVE
        23 000037   000000 011000                    NOP     0

     1242    15103
     1243    15104          /* INSPECT id1 TALLYING TALLY FOR ... */
     1244    15105    1     STMT$ = ADDR (INSPECT) ;

  15105 23 000040   200022 630500                    EPPR0   INSPECT,,AUTO
        23 000041   200016 450500                    STP0    STMT$,,AUTO

     1245    15106
     1246    15107    1     STMT$ -> INSPECT_1_STMT.ID     = %INSPECT_1 ;

  15107 23 000042   002005 220003                    LDX0    1029,DU
        23 000043   000000 740100                    STX0    0,,PR0

     1247    15108    1     STMT$ -> INSPECT_1_STMT.KEY_WORD$ = EXAMINE$ ;

  15108 23 000044   200003 470500                    LDP0    @EXAMINE$,,AUTO
        23 000045   000000 236100                    LDQ     0,,PR0
        23 000046   200016 471500                    LDP1    STMT$,,AUTO
        23 000047   100001 756100                    STQ     1,,PR1

     1248    15109    1     STMT$ -> INSPECT_1_STMT.ID_1$  = ID_1$ ;

  15109 23 000050   200004 471500                    LDP1    @ID_1$,,AUTO
        23 000051   100000 236100                    LDQ     0,,PR1
        23 000052   200016 473500                    LDP3    STMT$,,AUTO
        23 000053   300002 756100                    STQ     2,,PR3
PL6.E3A0      #012=Z8EH$EXAMINE_T File=Z8EH.:Z8A6TSI                             SAT 08/09/97 12:06 Page:258

     1249    15110    1     STMT$ -> INSPECT_1_STMT.LINE   = EXAMINE$ -> LX_TERMINAL.LINE ;

  15110 23 000054   000000 473500                    LDP3    0,,PR0
        23 000055   300005 235100                    LDA     5,,PR3
        23 000056   200016 474500                    LDP4    STMT$,,AUTO
        23 000057   400005 755100                    STA     5,,PR4

     1250    15111    1     STMT$ -> INSPECT_1_STMT.COLUMN = EXAMINE$ -> LX_TERMINAL.COLUMN ;

  15111 23 000060   000000 473500                    LDP3    0,,PR0
        23 000061   300006 235100                    LDA     6,,PR3
        23 000062   200016 474500                    LDP4    STMT$,,AUTO
        23 000063   400006 755100                    STA     6,,PR4

     1251    15112
     1252    15113    1     PHRASE$ = LIST$ -> LX_LIST.HEAD$ ;

  15113 23 000064   200005 473500                    LDP3    @LIST$,,AUTO
        23 000065   300000 474500                    LDP4    0,,PR3
        23 000066   400004 236100                    LDQ     4,,PR4
        23 000067   200006 756100                    STQ     PHRASE$,,AUTO

     1253    15114
     1254    15115          %NEW (@TEMPLATE = LX_LIST,
     1255    15116                @POINTER  = INSPECT_1$) ;

  15122 23 000070   000003 236000 24                 LDQ     3
        23 000071   200045 756100                    STQ     @TALLY$+2,,AUTO
        23 000072   200015 634500                    EPPR4   INSPECT_1$,,AUTO
        23 000073   200044 454500                    STP4    @TALLY$+1,,AUTO
        23 000074   200044 630500                    EPPR0   @TALLY$+1,,AUTO
        23 000075   000001 631400 24                 EPPR1   1
        23 000076   000000 701000 xent               TSX1    Z8ED$NEW_HEAP
        23 000077   000000 011000                    NOP     0

     1256    15126
PL6.E3A0      #012=Z8EH$EXAMINE_T File=Z8EH.:Z8A6TSI                             SAT 08/09/97 12:06 Page:259
     1257    15127          %INIT_LX_LIST (@POINTER = INSPECT_1$,
     1258    15128                         @HEAD$   = TALLY$,
     1259    15129                         @TAIL$   = TALLY$,
     1260    15130                         @COUNT   = 1) ;

  15132 23 000100   000002 220003                    LDX0    2,DU
        23 000101   200015 470500                    LDP0    INSPECT_1$,,AUTO
        23 000102   000000 740100                    STX0    0,,PR0

  15133 23 000103   000000 221003                    LDX1    0,DU
        23 000104   200015 470500                    LDP0    INSPECT_1$,,AUTO
        23 000105   000000 441100                    SXL1    0,,PR0

  15134 23 000106   200012 236100                    LDQ     TALLY$,,AUTO
        23 000107   200015 470500                    LDP0    INSPECT_1$,,AUTO
        23 000110   000001 756100                    STQ     1,,PR0

  15135 23 000111   200012 236100                    LDQ     TALLY$,,AUTO
        23 000112   200015 470500                    LDP0    INSPECT_1$,,AUTO
        23 000113   000004 756100                    STQ     4,,PR0

  15136 23 000114   000000 236000 24                 LDQ     0
        23 000115   200015 470500                    LDP0    INSPECT_1$,,AUTO
        23 000116   000007 756100                    STQ     7,,PR0

  15137 23 000117   000001 235007                    LDA     1,DL
        23 000120   200015 470500                    LDP0    INSPECT_1$,,AUTO
        23 000121   000002 755100                    STA     2,,PR0

     1261    15140
     1262    15141          /* (1) & (2) LX_LIST (FOR$) */
     1263    15142
     1264    15143          %NEW (@TEMPLATE = LX_LIST,
     1265    15144                @POINTER  = LX_LIST1$) ;

  15150 23 000122   000003 236000 24                 LDQ     3
        23 000123   200045 756100                    STQ     @TALLY$+2,,AUTO
PL6.E3A0      #012=Z8EH$EXAMINE_T File=Z8EH.:Z8A6TSI                             SAT 08/09/97 12:06 Page:260
        23 000124   200007 630500                    EPPR0   LX_LIST1$,,AUTO
        23 000125   200044 450500                    STP0    @TALLY$+1,,AUTO
        23 000126   200044 630500                    EPPR0   @TALLY$+1,,AUTO
        23 000127   000001 631400 24                 EPPR1   1
        23 000130   000000 701000 xent               TSX1    Z8ED$NEW_HEAP
        23 000131   000000 011000                    NOP     0

     1266    15154
     1267    15155          %INIT_LX_LIST (@POINTER = LX_LIST1$) ;

  15157 23 000132   000002 220003                    LDX0    2,DU
        23 000133   200007 470500                    LDP0    LX_LIST1$,,AUTO
        23 000134   000000 740100                    STX0    0,,PR0

  15158 23 000135   000000 221003                    LDX1    0,DU
        23 000136   200007 470500                    LDP0    LX_LIST1$,,AUTO
        23 000137   000000 441100                    SXL1    0,,PR0

  15159 23 000140   000000 236000 24                 LDQ     0
        23 000141   200007 470500                    LDP0    LX_LIST1$,,AUTO
        23 000142   000001 756100                    STQ     1,,PR0

  15160 23 000143   200007 470500                    LDP0    LX_LIST1$,,AUTO
        23 000144   000004 756100                    STQ     4,,PR0

  15161 23 000145   200007 470500                    LDP0    LX_LIST1$,,AUTO
        23 000146   000007 756100                    STQ     7,,PR0

  15162 23 000147   200007 470500                    LDP0    LX_LIST1$,,AUTO
        23 000150   000002 450100                    STZ     2,,PR0

     1268    15165
     1269    15166    2     DO UNTIL PHRASE$ = ADDR (NIL) ;

     1270    15167    2       ALL$ = PHRASE$ -> LX_LIST.HEAD$ ;

  15167 23 000151   200006 470500                    LDP0    PHRASE$,,AUTO
PL6.E3A0      #012=Z8EH$EXAMINE_T File=Z8EH.:Z8A6TSI                             SAT 08/09/97 12:06 Page:261
        23 000152   000004 236100                    LDQ     4,,PR0
        23 000153   200010 756100                    STQ     ALL$,,AUTO

     1271    15168            %NEW_COPY_LX_ITEM (@FROM$ = PHRASE$ -> LX_LIST.TAIL$,
     1272    15169                               @TO$   = ID_2$) ;

  15174 23 000154   000003 236000 24                 LDQ     3
        23 000155   200045 756100                    STQ     @TALLY$+2,,AUTO
        23 000156   200011 631500                    EPPR1   ID_2$,,AUTO
        23 000157   200044 451500                    STP1    @TALLY$+1,,AUTO
        23 000160   200044 630500                    EPPR0   @TALLY$+1,,AUTO
        23 000161   000001 631400 24                 EPPR1   1
        23 000162   000000 701000 xent               TSX1    Z8ED$NEW_HEAP
        23 000163   000000 011000                    NOP     0

  15177 23 000164   200006 470500                    LDP0    PHRASE$,,AUTO
        23 000165   000001 471500                    LDP1    1,,PR0
        23 000166   200011 473500                    LDP3    ID_2$,,AUTO
        23 000167   000100 100500                    MLR     fill='000'O
        23 000170   100000 000040                    ADSC9   0,,PR1                   cn=0,n=32
        23 000171   300000 000040                    ADSC9   0,,PR3                   cn=0,n=32

  15178 23 000172   000000 236000 24                 LDQ     0
        23 000173   200011 471500                    LDP1    ID_2$,,AUTO
        23 000174   100007 756100                    STQ     7,,PR1

     1273    15181
     1274    15182            /* (1) LX_LIST (id2, EMPTY)  */
     1275    15183            /* (2) LX_LIST (BEFORE, id2) */
     1276    15184
     1277    15185            %NEW (@TEMPLATE = LX_TERMINAL,
     1278    15186                  @POINTER  = LX_TERMINAL$) ;

  15192 23 000175   000003 236000 24                 LDQ     3
        23 000176   200045 756100                    STQ     @TALLY$+2,,AUTO
        23 000177   200017 631500                    EPPR1   LX_TERMINAL$,,AUTO
        23 000200   200044 451500                    STP1    @TALLY$+1,,AUTO
PL6.E3A0      #012=Z8EH$EXAMINE_T File=Z8EH.:Z8A6TSI                             SAT 08/09/97 12:06 Page:262
        23 000201   200044 630500                    EPPR0   @TALLY$+1,,AUTO
        23 000202   000001 631400 24                 EPPR1   1
        23 000203   000000 701000 xent               TSX1    Z8ED$NEW_HEAP
        23 000204   000000 011000                    NOP     0

     1279    15196
     1280    15197            %NEW (@TEMPLATE = LX_LIST,
     1281    15198                  @POINTER  = CLAUSE$) ;

  15204 23 000205   000003 236000 24                 LDQ     3
        23 000206   200045 756100                    STQ     @TALLY$+2,,AUTO
        23 000207   200013 630500                    EPPR0   CLAUSE$,,AUTO
        23 000210   200044 450500                    STP0    @TALLY$+1,,AUTO
        23 000211   200044 630500                    EPPR0   @TALLY$+1,,AUTO
        23 000212   000001 631400 24                 EPPR1   1
        23 000213   000000 701000 xent               TSX1    Z8ED$NEW_HEAP
        23 000214   000000 011000                    NOP     0

     1282    15208
     1283    15209            %INIT_LX_LIST (@POINTER = CLAUSE$) ;

  15211 23 000215   000002 220003                    LDX0    2,DU
        23 000216   200013 470500                    LDP0    CLAUSE$,,AUTO
        23 000217   000000 740100                    STX0    0,,PR0

  15212 23 000220   000000 221003                    LDX1    0,DU
        23 000221   200013 470500                    LDP0    CLAUSE$,,AUTO
        23 000222   000000 441100                    SXL1    0,,PR0

  15213 23 000223   000000 236000 24                 LDQ     0
        23 000224   200013 470500                    LDP0    CLAUSE$,,AUTO
        23 000225   000001 756100                    STQ     1,,PR0

  15214 23 000226   200013 470500                    LDP0    CLAUSE$,,AUTO
        23 000227   000004 756100                    STQ     4,,PR0

  15215 23 000230   200013 470500                    LDP0    CLAUSE$,,AUTO
PL6.E3A0      #012=Z8EH$EXAMINE_T File=Z8EH.:Z8A6TSI                             SAT 08/09/97 12:06 Page:263
        23 000231   000007 756100                    STQ     7,,PR0

  15216 23 000232   200013 470500                    LDP0    CLAUSE$,,AUTO
        23 000233   000002 450100                    STZ     2,,PR0

     1284    15219
     1285    15220    3       IF ALL$ -> LX_TERMINAL.SYMBOL = %RSV_WRD_UNTIL THEN DO ;

  15220 23 000234   200010 470500                    LDP0    ALL$,,AUTO
        23 000235   000003 235100                    LDA     3,,PR0
        23 000236   000734 115007                    CMPA    476,DL
        23 000237   000340 601000 23                 TNZ     s:15285

     1286    15221
     1287    15222              %INIT_LX_TERMINAL (@POINTER = LX_TERMINAL$,
     1288    15223                                 @SYMBOL  = %RSV_WRD_BEFORE) ;

  15225 23 000240   000000 222003                    LDX2    0,DU
        23 000241   200017 471500                    LDP1    LX_TERMINAL$,,AUTO
        23 000242   100000 742100                    STX2    0,,PR1

  15226 23 000243   200017 471500                    LDP1    LX_TERMINAL$,,AUTO
        23 000244   100000 441100                    SXL1    0,,PR1

  15230 23 000245   000015 235007                    LDA     13,DL
        23 000246   200017 471500                    LDP1    LX_TERMINAL$,,AUTO
        23 000247   100004 755100                    STA     4,,PR1

  15232 23 000250   000000 236000 24                 LDQ     0
        23 000251   200017 471500                    LDP1    LX_TERMINAL$,,AUTO
        23 000252   100007 756100                    STQ     7,,PR1

  15234 23 000253   200017 471500                    LDP1    LX_TERMINAL$,,AUTO
        23 000254   100001 756100                    STQ     1,,PR1

  15235 23 000255   000075 235007                    LDA     61,DL
        23 000256   200017 471500                    LDP1    LX_TERMINAL$,,AUTO
PL6.E3A0      #012=Z8EH$EXAMINE_T File=Z8EH.:Z8A6TSI                             SAT 08/09/97 12:06 Page:264
        23 000257   100003 755100                    STA     3,,PR1

  15236 23 000260   200017 471500                    LDP1    LX_TERMINAL$,,AUTO
        23 000261   100002 756100                    STQ     2,,PR1

  15237 23 000262   000133 235000 xsym               LDA     COMCOM+91
        23 000263   200017 471500                    LDP1    LX_TERMINAL$,,AUTO
        23 000264   100005 755100                    STA     5,,PR1

  15238 23 000265   000134 235000 xsym               LDA     COMCOM+92
        23 000266   200017 471500                    LDP1    LX_TERMINAL$,,AUTO
        23 000267   100006 755100                    STA     6,,PR1

     1289    15241
     1290    15242              %ADD_LX_ITEM_TO_LIST_TAIL (@LIST$ = CLAUSE$,
     1291    15243                                         @FROM$ = LX_TERMINAL$) ;

  15245 23 000270   200017 471500                    LDP1    LX_TERMINAL$,,AUTO
        23 000271   100007 756100                    STQ     7,,PR1

  15246 23 000272   200013 471500                    LDP1    CLAUSE$,,AUTO
        23 000273   100002 235100                    LDA     2,,PR1
        23 000274   000303 601000 23                 TNZ     s:15253

  15248 23 000275   200017 236100                    LDQ     LX_TERMINAL$,,AUTO
        23 000276   100004 756100                    STQ     4,,PR1

  15249 23 000277   200017 236100                    LDQ     LX_TERMINAL$,,AUTO
        23 000300   200013 471500                    LDP1    CLAUSE$,,AUTO
        23 000301   100001 756100                    STQ     1,,PR1

  15250 23 000302   000311 710000 23                 TRA     s:15256

  15253 23 000303   100001 473500                    LDP3    1,,PR1
        23 000304   200017 236100                    LDQ     LX_TERMINAL$,,AUTO
        23 000305   300007 756100                    STQ     7,,PR3

PL6.E3A0      #012=Z8EH$EXAMINE_T File=Z8EH.:Z8A6TSI                             SAT 08/09/97 12:06 Page:265
  15254 23 000306   200017 236100                    LDQ     LX_TERMINAL$,,AUTO
        23 000307   200013 471500                    LDP1    CLAUSE$,,AUTO
        23 000310   100001 756100                    STQ     1,,PR1

  15256 23 000311   200013 471500                    LDP1    CLAUSE$,,AUTO
        23 000312   100002 054100                    AOS     2,,PR1

     1292    15259
     1293    15260              %ADD_LX_ITEM_TO_LIST_TAIL (@LIST$ = CLAUSE$,
     1294    15261                                         @FROM$ = ID_2$) ;

  15263 23 000313   000000 236000 24                 LDQ     0
        23 000314   200011 471500                    LDP1    ID_2$,,AUTO
        23 000315   100007 756100                    STQ     7,,PR1

  15264 23 000316   200013 471500                    LDP1    CLAUSE$,,AUTO
        23 000317   100002 235100                    LDA     2,,PR1
        23 000320   000327 601000 23                 TNZ     s:15271

  15266 23 000321   200011 236100                    LDQ     ID_2$,,AUTO
        23 000322   100004 756100                    STQ     4,,PR1

  15267 23 000323   200011 236100                    LDQ     ID_2$,,AUTO
        23 000324   200013 471500                    LDP1    CLAUSE$,,AUTO
        23 000325   100001 756100                    STQ     1,,PR1

  15268 23 000326   000335 710000 23                 TRA     s:15274

  15271 23 000327   100001 473500                    LDP3    1,,PR1
        23 000330   200011 236100                    LDQ     ID_2$,,AUTO
        23 000331   300007 756100                    STQ     7,,PR3

  15272 23 000332   200011 236100                    LDQ     ID_2$,,AUTO
        23 000333   200013 471500                    LDP1    CLAUSE$,,AUTO
        23 000334   100001 756100                    STQ     1,,PR1

  15274 23 000335   200013 471500                    LDP1    CLAUSE$,,AUTO
PL6.E3A0      #012=Z8EH$EXAMINE_T File=Z8EH.:Z8A6TSI                             SAT 08/09/97 12:06 Page:266
        23 000336   100002 054100                    AOS     2,,PR1

     1295    15277
     1296    15278    3       END ; /* (2) UNTIL */

  15278 23 000337   000437 710000 23                 TRA     s:15349

     1297    15279
     1298    15280    3       ELSE DO ; /* (1) ALL or LEADING */

     1299    15281
     1300    15282              %INIT_LX_TERMINAL (@POINTER = LX_TERMINAL$,
     1301    15283                                 @SYMBOL  = %RSV_WRD_EMPTY) ;

  15285 23 000340   000000 222003                    LDX2    0,DU
        23 000341   200017 471500                    LDP1    LX_TERMINAL$,,AUTO
        23 000342   100000 742100                    STX2    0,,PR1

  15286 23 000343   200017 471500                    LDP1    LX_TERMINAL$,,AUTO
        23 000344   100000 441100                    SXL1    0,,PR1

  15290 23 000345   000015 235007                    LDA     13,DL
        23 000346   200017 471500                    LDP1    LX_TERMINAL$,,AUTO
        23 000347   100004 755100                    STA     4,,PR1

  15292 23 000350   000000 236000 24                 LDQ     0
        23 000351   200017 471500                    LDP1    LX_TERMINAL$,,AUTO
        23 000352   100007 756100                    STQ     7,,PR1

  15294 23 000353   200017 471500                    LDP1    LX_TERMINAL$,,AUTO
        23 000354   100001 756100                    STQ     1,,PR1

  15295 23 000355   000242 235007                    LDA     162,DL
        23 000356   200017 471500                    LDP1    LX_TERMINAL$,,AUTO
        23 000357   100003 755100                    STA     3,,PR1

  15296 23 000360   200017 471500                    LDP1    LX_TERMINAL$,,AUTO
PL6.E3A0      #012=Z8EH$EXAMINE_T File=Z8EH.:Z8A6TSI                             SAT 08/09/97 12:06 Page:267
        23 000361   100002 756100                    STQ     2,,PR1

  15297 23 000362   000133 235000 xsym               LDA     COMCOM+91
        23 000363   200017 471500                    LDP1    LX_TERMINAL$,,AUTO
        23 000364   100005 755100                    STA     5,,PR1

  15298 23 000365   000134 235000 xsym               LDA     COMCOM+92
        23 000366   200017 471500                    LDP1    LX_TERMINAL$,,AUTO
        23 000367   100006 755100                    STA     6,,PR1

     1302    15301
     1303    15302              %ADD_LX_ITEM_TO_LIST_TAIL (@LIST$ = CLAUSE$,
     1304    15303                                         @FROM$ = ID_2$) ;

  15305 23 000370   200011 471500                    LDP1    ID_2$,,AUTO
        23 000371   100007 756100                    STQ     7,,PR1

  15306 23 000372   200013 471500                    LDP1    CLAUSE$,,AUTO
        23 000373   100002 235100                    LDA     2,,PR1
        23 000374   000403 601000 23                 TNZ     s:15313

  15308 23 000375   200011 236100                    LDQ     ID_2$,,AUTO
        23 000376   100004 756100                    STQ     4,,PR1

  15309 23 000377   200011 236100                    LDQ     ID_2$,,AUTO
        23 000400   200013 471500                    LDP1    CLAUSE$,,AUTO
        23 000401   100001 756100                    STQ     1,,PR1

  15310 23 000402   000411 710000 23                 TRA     s:15316

  15313 23 000403   100001 473500                    LDP3    1,,PR1
        23 000404   200011 236100                    LDQ     ID_2$,,AUTO
        23 000405   300007 756100                    STQ     7,,PR3

  15314 23 000406   200011 236100                    LDQ     ID_2$,,AUTO
        23 000407   200013 471500                    LDP1    CLAUSE$,,AUTO
        23 000410   100001 756100                    STQ     1,,PR1
PL6.E3A0      #012=Z8EH$EXAMINE_T File=Z8EH.:Z8A6TSI                             SAT 08/09/97 12:06 Page:268

  15316 23 000411   200013 471500                    LDP1    CLAUSE$,,AUTO
        23 000412   100002 054100                    AOS     2,,PR1

     1305    15319
     1306    15320              %ADD_LX_ITEM_TO_LIST_TAIL (@LIST$ = CLAUSE$,
     1307    15321                                         @FROM$ = LX_TERMINAL$) ;

  15323 23 000413   000000 236000 24                 LDQ     0
        23 000414   200017 471500                    LDP1    LX_TERMINAL$,,AUTO
        23 000415   100007 756100                    STQ     7,,PR1

  15324 23 000416   200013 471500                    LDP1    CLAUSE$,,AUTO
        23 000417   100002 235100                    LDA     2,,PR1
        23 000420   000427 601000 23                 TNZ     s:15331

  15326 23 000421   200017 236100                    LDQ     LX_TERMINAL$,,AUTO
        23 000422   100004 756100                    STQ     4,,PR1

  15327 23 000423   200017 236100                    LDQ     LX_TERMINAL$,,AUTO
        23 000424   200013 471500                    LDP1    CLAUSE$,,AUTO
        23 000425   100001 756100                    STQ     1,,PR1

  15328 23 000426   000435 710000 23                 TRA     s:15334

  15331 23 000427   100001 473500                    LDP3    1,,PR1
        23 000430   200017 236100                    LDQ     LX_TERMINAL$,,AUTO
        23 000431   300007 756100                    STQ     7,,PR3

  15332 23 000432   200017 236100                    LDQ     LX_TERMINAL$,,AUTO
        23 000433   200013 471500                    LDP1    CLAUSE$,,AUTO
        23 000434   100001 756100                    STQ     1,,PR1

  15334 23 000435   200013 471500                    LDP1    CLAUSE$,,AUTO
        23 000436   100002 054100                    AOS     2,,PR1

     1308    15337
PL6.E3A0      #012=Z8EH$EXAMINE_T File=Z8EH.:Z8A6TSI                             SAT 08/09/97 12:06 Page:269
     1309    15338    3       END ; /* (1) ALL or LEADING */

     1310    15339
     1311    15340            /* (1) & (2) LX_LIST (CLAUSE$) */
     1312    15341
     1313    15342            %NEW (@TEMPLATE = LX_LIST,
     1314    15343                  @POINTER  = LX_LIST$) ;

  15349 23 000437   000003 236000 24                 LDQ     3
        23 000440   200045 756100                    STQ     @TALLY$+2,,AUTO
        23 000441   200020 631500                    EPPR1   LX_LIST$,,AUTO
        23 000442   200044 451500                    STP1    @TALLY$+1,,AUTO
        23 000443   200044 630500                    EPPR0   @TALLY$+1,,AUTO
        23 000444   000001 631400 24                 EPPR1   1
        23 000445   000000 701000 xent               TSX1    Z8ED$NEW_HEAP
        23 000446   000000 011000                    NOP     0

     1315    15353
     1316    15354            %INIT_LX_LIST (@POINTER = LX_LIST$,
     1317    15355                           @HEAD$   = CLAUSE$,
     1318    15356                           @TAIL$   = CLAUSE$,
     1319    15357                           @COUNT   = 1) ;

  15359 23 000447   000002 220003                    LDX0    2,DU
        23 000450   200020 470500                    LDP0    LX_LIST$,,AUTO
        23 000451   000000 740100                    STX0    0,,PR0

  15360 23 000452   000000 221003                    LDX1    0,DU
        23 000453   200020 470500                    LDP0    LX_LIST$,,AUTO
        23 000454   000000 441100                    SXL1    0,,PR0

  15361 23 000455   200013 236100                    LDQ     CLAUSE$,,AUTO
        23 000456   200020 470500                    LDP0    LX_LIST$,,AUTO
        23 000457   000001 756100                    STQ     1,,PR0

  15362 23 000460   200013 236100                    LDQ     CLAUSE$,,AUTO
        23 000461   200020 470500                    LDP0    LX_LIST$,,AUTO
PL6.E3A0      #012=Z8EH$EXAMINE_T File=Z8EH.:Z8A6TSI                             SAT 08/09/97 12:06 Page:270
        23 000462   000004 756100                    STQ     4,,PR0

  15363 23 000463   000000 236000 24                 LDQ     0
        23 000464   200020 470500                    LDP0    LX_LIST$,,AUTO
        23 000465   000007 756100                    STQ     7,,PR0

  15364 23 000466   000001 235007                    LDA     1,DL
        23 000467   200020 470500                    LDP0    LX_LIST$,,AUTO
        23 000470   000002 755100                    STA     2,,PR0

     1320    15367
     1321    15368            /* (1) LX_LIST (ALL/LEADING, LX_LIST) */
     1322    15369            /* (2) LX_LIST (CHARACTERS , LX_LIST) */
     1323    15370
     1324    15371            %NEW (@TEMPLATE = LX_LIST,
     1325    15372                  @POINTER  = FOR$) ;

  15378 23 000471   000003 236000 24                 LDQ     3
        23 000472   200045 756100                    STQ     @TALLY$+2,,AUTO
        23 000473   200014 630500                    EPPR0   FOR$,,AUTO
        23 000474   200044 450500                    STP0    @TALLY$+1,,AUTO
        23 000475   200044 630500                    EPPR0   @TALLY$+1,,AUTO
        23 000476   000001 631400 24                 EPPR1   1
        23 000477   000000 701000 xent               TSX1    Z8ED$NEW_HEAP
        23 000500   000000 011000                    NOP     0

     1326    15382
     1327    15383            %NEW (@TEMPLATE = LX_TERMINAL,
     1328    15384                  @POINTER  = LX_TERMINAL$) ;

  15390 23 000501   000003 236000 24                 LDQ     3
        23 000502   200045 756100                    STQ     @TALLY$+2,,AUTO
        23 000503   200017 630500                    EPPR0   LX_TERMINAL$,,AUTO
        23 000504   200044 450500                    STP0    @TALLY$+1,,AUTO
        23 000505   200044 630500                    EPPR0   @TALLY$+1,,AUTO
        23 000506   000001 631400 24                 EPPR1   1
        23 000507   000000 701000 xent               TSX1    Z8ED$NEW_HEAP
PL6.E3A0      #012=Z8EH$EXAMINE_T File=Z8EH.:Z8A6TSI                             SAT 08/09/97 12:06 Page:271
        23 000510   000000 011000                    NOP     0

     1329    15394
     1330    15395    3       IF ALL$ -> LX_TERMINAL.SYMBOL = %RSV_WRD_UNTIL THEN DO ;

  15395 23 000511   200010 470500                    LDP0    ALL$,,AUTO
        23 000512   000003 235100                    LDA     3,,PR0
        23 000513   000734 115007                    CMPA    476,DL
        23 000514   000547 601000 23                 TNZ     s:15424

     1331    15396
     1332    15397              %INIT_LX_TERMINAL (@POINTER = LX_TERMINAL$,
     1333    15398                                 @SYMBOL  = %RSV_WRD_CHARACTERS) ;

  15400 23 000515   000000 220003                    LDX0    0,DU
        23 000516   200017 471500                    LDP1    LX_TERMINAL$,,AUTO
        23 000517   100000 740100                    STX0    0,,PR1

  15401 23 000520   000000 221003                    LDX1    0,DU
        23 000521   200017 471500                    LDP1    LX_TERMINAL$,,AUTO
        23 000522   100000 441100                    SXL1    0,,PR1

  15405 23 000523   000015 235007                    LDA     13,DL
        23 000524   200017 471500                    LDP1    LX_TERMINAL$,,AUTO
        23 000525   100004 755100                    STA     4,,PR1

  15407 23 000526   000000 236000 24                 LDQ     0
        23 000527   200017 471500                    LDP1    LX_TERMINAL$,,AUTO
        23 000530   100007 756100                    STQ     7,,PR1

  15409 23 000531   200017 471500                    LDP1    LX_TERMINAL$,,AUTO
        23 000532   100001 756100                    STQ     1,,PR1

  15410 23 000533   000120 235007                    LDA     80,DL
        23 000534   200017 471500                    LDP1    LX_TERMINAL$,,AUTO
        23 000535   100003 755100                    STA     3,,PR1

PL6.E3A0      #012=Z8EH$EXAMINE_T File=Z8EH.:Z8A6TSI                             SAT 08/09/97 12:06 Page:272
  15411 23 000536   200017 471500                    LDP1    LX_TERMINAL$,,AUTO
        23 000537   100002 756100                    STQ     2,,PR1

  15412 23 000540   000133 235000 xsym               LDA     COMCOM+91
        23 000541   200017 471500                    LDP1    LX_TERMINAL$,,AUTO
        23 000542   100005 755100                    STA     5,,PR1

  15413 23 000543   000134 235000 xsym               LDA     COMCOM+92
        23 000544   200017 471500                    LDP1    LX_TERMINAL$,,AUTO
        23 000545   100006 755100                    STA     6,,PR1

     1334    15416
     1335    15417    3       END ; /* (2) EXAMINE ... UNTIL FIRST */

  15417 23 000546   000600 710000 23                 TRA     s:15448

     1336    15418
     1337    15419    3       ELSE DO ; /* (1) EXAMINE ... ALL or LEADING */

     1338    15420
     1339    15421              %INIT_LX_TERMINAL (@POINTER = LX_TERMINAL$,
     1340    15422                                 @SYMBOL  = "ALL$ -> LX_TERMINAL.SYMBOL") ;

  15424 23 000547   000000 220003                    LDX0    0,DU
        23 000550   200017 471500                    LDP1    LX_TERMINAL$,,AUTO
        23 000551   100000 740100                    STX0    0,,PR1

  15425 23 000552   000000 221003                    LDX1    0,DU
        23 000553   200017 471500                    LDP1    LX_TERMINAL$,,AUTO
        23 000554   100000 441100                    SXL1    0,,PR1

  15429 23 000555   000015 235007                    LDA     13,DL
        23 000556   200017 471500                    LDP1    LX_TERMINAL$,,AUTO
        23 000557   100004 755100                    STA     4,,PR1

  15431 23 000560   000000 236000 24                 LDQ     0
        23 000561   200017 471500                    LDP1    LX_TERMINAL$,,AUTO
PL6.E3A0      #012=Z8EH$EXAMINE_T File=Z8EH.:Z8A6TSI                             SAT 08/09/97 12:06 Page:273
        23 000562   100007 756100                    STQ     7,,PR1

  15433 23 000563   200017 471500                    LDP1    LX_TERMINAL$,,AUTO
        23 000564   100001 756100                    STQ     1,,PR1

  15434 23 000565   200017 471500                    LDP1    LX_TERMINAL$,,AUTO
        23 000566   000003 235100                    LDA     3,,PR0
        23 000567   100003 755100                    STA     3,,PR1

  15435 23 000570   200017 471500                    LDP1    LX_TERMINAL$,,AUTO
        23 000571   100002 756100                    STQ     2,,PR1

  15436 23 000572   000133 235000 xsym               LDA     COMCOM+91
        23 000573   200017 471500                    LDP1    LX_TERMINAL$,,AUTO
        23 000574   100005 755100                    STA     5,,PR1

  15437 23 000575   000134 235000 xsym               LDA     COMCOM+92
        23 000576   200017 471500                    LDP1    LX_TERMINAL$,,AUTO
        23 000577   100006 755100                    STA     6,,PR1

     1341    15440
     1342    15441    3       END ; /* (1) ALL or LEADING */

     1343    15442
     1344    15443            %INIT_LX_LIST (@POINTER = FOR$,
     1345    15444                           @HEAD$   = LX_TERMINAL$,
     1346    15445                           @TAIL$   = LX_TERMINAL$,
     1347    15446                           @COUNT   = 1) ;

  15448 23 000600   000002 222003                    LDX2    2,DU
        23 000601   200014 471500                    LDP1    FOR$,,AUTO
        23 000602   100000 742100                    STX2    0,,PR1

  15449 23 000603   200014 471500                    LDP1    FOR$,,AUTO
        23 000604   100000 441100                    SXL1    0,,PR1

  15450 23 000605   200017 236100                    LDQ     LX_TERMINAL$,,AUTO
PL6.E3A0      #012=Z8EH$EXAMINE_T File=Z8EH.:Z8A6TSI                             SAT 08/09/97 12:06 Page:274
        23 000606   200014 471500                    LDP1    FOR$,,AUTO
        23 000607   100001 756100                    STQ     1,,PR1

  15451 23 000610   200017 236100                    LDQ     LX_TERMINAL$,,AUTO
        23 000611   200014 471500                    LDP1    FOR$,,AUTO
        23 000612   100004 756100                    STQ     4,,PR1

  15452 23 000613   000000 236000 24                 LDQ     0
        23 000614   200014 471500                    LDP1    FOR$,,AUTO
        23 000615   100007 756100                    STQ     7,,PR1

  15453 23 000616   000001 235007                    LDA     1,DL
        23 000617   200014 471500                    LDP1    FOR$,,AUTO
        23 000620   100002 755100                    STA     2,,PR1

     1348    15456
     1349    15457            %ADD_LX_ITEM_TO_LIST_TAIL (@LIST$ = FOR$,
     1350    15458                                       @FROM$ = LX_LIST$) ;

  15460 23 000621   200020 471500                    LDP1    LX_LIST$,,AUTO
        23 000622   100007 756100                    STQ     7,,PR1

  15461 23 000623   200014 471500                    LDP1    FOR$,,AUTO
        23 000624   100002 235100                    LDA     2,,PR1
        23 000625   000634 601000 23                 TNZ     s:15468

  15463 23 000626   200020 236100                    LDQ     LX_LIST$,,AUTO
        23 000627   100004 756100                    STQ     4,,PR1

  15464 23 000630   200020 236100                    LDQ     LX_LIST$,,AUTO
        23 000631   200014 471500                    LDP1    FOR$,,AUTO
        23 000632   100001 756100                    STQ     1,,PR1

  15465 23 000633   000642 710000 23                 TRA     s:15471

  15468 23 000634   100001 473500                    LDP3    1,,PR1
        23 000635   200020 236100                    LDQ     LX_LIST$,,AUTO
PL6.E3A0      #012=Z8EH$EXAMINE_T File=Z8EH.:Z8A6TSI                             SAT 08/09/97 12:06 Page:275
        23 000636   300007 756100                    STQ     7,,PR3

  15469 23 000637   200020 236100                    LDQ     LX_LIST$,,AUTO
        23 000640   200014 471500                    LDP1    FOR$,,AUTO
        23 000641   100001 756100                    STQ     1,,PR1

  15471 23 000642   200014 471500                    LDP1    FOR$,,AUTO
        23 000643   100002 054100                    AOS     2,,PR1

     1351    15474
     1352    15475            %ADD_LX_ITEM_TO_LIST_TAIL (@LIST$ = LX_LIST1$,
     1353    15476                                       @FROM$ = FOR$) ;

  15478 23 000644   000000 236000 24                 LDQ     0
        23 000645   200014 471500                    LDP1    FOR$,,AUTO
        23 000646   100007 756100                    STQ     7,,PR1

  15479 23 000647   200007 471500                    LDP1    LX_LIST1$,,AUTO
        23 000650   100002 235100                    LDA     2,,PR1
        23 000651   000660 601000 23                 TNZ     s:15486

  15481 23 000652   200014 236100                    LDQ     FOR$,,AUTO
        23 000653   100004 756100                    STQ     4,,PR1

  15482 23 000654   200014 236100                    LDQ     FOR$,,AUTO
        23 000655   200007 471500                    LDP1    LX_LIST1$,,AUTO
        23 000656   100001 756100                    STQ     1,,PR1

  15483 23 000657   000666 710000 23                 TRA     s:15489

  15486 23 000660   100001 473500                    LDP3    1,,PR1
        23 000661   200014 236100                    LDQ     FOR$,,AUTO
        23 000662   300007 756100                    STQ     7,,PR3

  15487 23 000663   200014 236100                    LDQ     FOR$,,AUTO
        23 000664   200007 471500                    LDP1    LX_LIST1$,,AUTO
        23 000665   100001 756100                    STQ     1,,PR1
PL6.E3A0      #012=Z8EH$EXAMINE_T File=Z8EH.:Z8A6TSI                             SAT 08/09/97 12:06 Page:276

  15489 23 000666   200007 471500                    LDP1    LX_LIST1$,,AUTO
        23 000667   100002 054100                    AOS     2,,PR1

     1354    15492
     1355    15493    2       PHRASE$ = PHRASE$ -> LX_ITEM.LINK ;

  15493 23 000670   200006 471500                    LDP1    PHRASE$,,AUTO
        23 000671   100007 236100                    LDQ     7,,PR1
        23 000672   200006 756100                    STQ     PHRASE$,,AUTO

     1356    15494
     1357    15495    2     END ; /* UNTIL PHRASE$ = ADDR (NIL) */

  15495 23 000673   000000 116000 24                 CMPQ    0
        23 000674   000151 601000 23                 TNZ     s:15167

     1358    15496
     1359    15497          %ADD_LX_ITEM_TO_LIST_TAIL (@LIST$ = INSPECT_1$,
     1360    15498                                     @FROM$ = LX_LIST1$) ;

  15500 23 000675   000000 236000 24                 LDQ     0
        23 000676   200007 471500                    LDP1    LX_LIST1$,,AUTO
        23 000677   100007 756100                    STQ     7,,PR1

  15501 23 000700   200015 471500                    LDP1    INSPECT_1$,,AUTO
        23 000701   100002 235100                    LDA     2,,PR1
        23 000702   000711 601000 23                 TNZ     s:15508

  15503 23 000703   200007 236100                    LDQ     LX_LIST1$,,AUTO
        23 000704   100004 756100                    STQ     4,,PR1

  15504 23 000705   200007 236100                    LDQ     LX_LIST1$,,AUTO
        23 000706   200015 471500                    LDP1    INSPECT_1$,,AUTO
        23 000707   100001 756100                    STQ     1,,PR1

  15505 23 000710   000717 710000 23                 TRA     s:15511
PL6.E3A0      #012=Z8EH$EXAMINE_T File=Z8EH.:Z8A6TSI                             SAT 08/09/97 12:06 Page:277

  15508 23 000711   100001 473500                    LDP3    1,,PR1
        23 000712   200007 236100                    LDQ     LX_LIST1$,,AUTO
        23 000713   300007 756100                    STQ     7,,PR3

  15509 23 000714   200007 236100                    LDQ     LX_LIST1$,,AUTO
        23 000715   200015 471500                    LDP1    INSPECT_1$,,AUTO
        23 000716   100001 756100                    STQ     1,,PR1

  15511 23 000717   200015 471500                    LDP1    INSPECT_1$,,AUTO
        23 000720   100002 054100                    AOS     2,,PR1

     1361    15514
     1362    15515          /* Call INSPECT TALLYING semantic routine */
     1363    15516
     1364    15517    1     STMT$ -> INSPECT_1_STMT.INSPECT_1$ = INSPECT_1$ ;

  15517 23 000721   200015 236100                    LDQ     INSPECT_1$,,AUTO
        23 000722   200016 471500                    LDP1    STMT$,,AUTO
        23 000723   100003 756100                    STQ     3,,PR1

     1365    15518
     1366    15519    1     CALL Z8EA$INSPECT_1 (STMT$) ;

  15519 23 000724   200016 631500                    EPPR1   STMT$,,AUTO
        23 000725   200044 451500                    STP1    @TALLY$+1,,AUTO
        23 000726   200044 630500                    EPPR0   @TALLY$+1,,AUTO
        23 000727   000004 631400 24                 EPPR1   4
        23 000730   000000 701000 xent               TSX1    Z8EA$INSPECT_1
        23 000731   000000 011000                    NOP     0

     1367    15520
     1368    15521    1     CALL Z8ED$DISPOSE_ABSSYN_TREE (INSPECT_1$) ;

  15521 23 000732   200015 630500                    EPPR0   INSPECT_1$,,AUTO
        23 000733   200044 450500                    STP0    @TALLY$+1,,AUTO
        23 000734   200044 630500                    EPPR0   @TALLY$+1,,AUTO
PL6.E3A0      #012=Z8EH$EXAMINE_T File=Z8EH.:Z8A6TSI                             SAT 08/09/97 12:06 Page:278
        23 000735   000004 631400 24                 EPPR1   4
        23 000736   000000 701000 xent               TSX1    Z8ED$DISPOSE_ABSSYN_TREE
        23 000737   000000 011000                    NOP     0

     1369    15522
     1370    15523    1     RETURN ;

  15523 23 000740   000000 702200 xent               TSX2  ! X66_ARET

     1371    15524
     1372    15525        %EJECT; /* Next page starts Z8EH$EXAMINE_T's internal PROCs */
PL6.E3A0      #012=Z8EH$EXAMINE_T File=Z8EH.:Z8A6TSI                             SAT 08/09/97 12:06 Page:279
     1373    15526        /*------------------------*/
     1374    15527    1     CREATE_TALLY_LX_ETT_ITEM: PROC (TALLY$) ;

  15527 23 000741   200042 741300       CREATE_TALL* STX1  ! ZERO+8,,AUTO

     1375    15528        /*------------------------*/
     1376    15529
     1377    15530        /*I*   NAME: CREATE_TALLY_LX_ETT_ITEM
     1378    15531
     1379    15532               CALL: Called by Z8EH$EXAMINE_T
     1380    15533
     1381    15534              INPUT: O1COM.TALLY$ -- Base item or NIL.
     1382    15535
     1383    15536             OUTPUT: TALLY$ -- LX_ETT_ITEM
     1384    15537
     1385    15538        DESCRIPTION: Create the TALLY identifier (if it doesn't exist).
     1386    15539                     Create the associated LX_ETT_ITEM.
     1387    15540
     1388    15541        */
     1389    15542
     1390    15543    2   DCL   TALLY$   PTR ; /* Result -- a LX_ETT_ITEM */
     1391    15544
     1392    15545    3       IF O1COM.TALLY$ = ADDR(NIL) THEN DO ;

  15545 23 000742   000051 236000 xsym               LDQ     O1COM+41
        23 000743   000000 116000 24                 CMPQ    0
        23 000744   001203 601000 23                 TNZ     s:15811

     1393    15546
     1394    15547    3         LEX_SYMBOL.SIZE   = 5 ;

  15547 23 000745   000005 235007                    LDA     5,DL
        23 000746   000010 755000 16                 STA     LEX_SYMBOL+8

     1395    15548    3         LEX_SYMBOL.SYMBOL = 'TALLY' ;

  15548 23 000747   040000 100400                    MLR     fill='040'O
PL6.E3A0      #012=Z8EH$EXAMINE_T File=Z8EH.:Z8A6TSI                             SAT 08/09/97 12:06 Page:280
        23 000750   000000 000005 22                 ADSC9   0                        cn=0,n=5
        23 000751   000011 000504 16                 ADSC9   LEX_SYMBOL+9             cn=0,n=324

     1396    15549    3         CALL Z8AH$SEARCH_ ; /* Result is DNT$ */

  15549 23 000752   000005 631400 24                 EPPR1   5
        23 000753   000000 701000 xent               TSX1    Z8AH$SEARCH_
        23 000754   000000 011000                    NOP     0

     1397    15550
     1398    15551    4         IF DNT$ -> DNT.ST$ = ADDR(NIL) THEN DO ;

  15551 23 000755   000000 470400 1                  LDP0    DNT$
        23 000756   000001 236100                    LDQ     1,,PR0
        23 000757   000000 116000 24                 CMPQ    0
        23 000760   001166 601000 23                 TNZ     s:15800

     1399    15552
     1400    15553                %NEW_SCALAR (@ST$   = ST$,
     1401    15554                             @TYPE  = %TYI,
     1402    15555                             @DESCL = 4,
     1403    15556                             @DNT$  = DNT$,
     1404    15557                             @ELEMENTARY = TRUE) ;

  15561 23 000761   000002 236000 6                  LDQ     ST_+2
        23 000762   000013 036007                    ADLQ    11,DL
        23 000763   000003 116000 6                  CMPQ    ST_+3
        23 000764   000775 604000 23                 TMI     s:15563

  15562 23 000765   000006 236000 24                 LDQ     6
        23 000766   200044 756100                    STQ     @TALLY$+1,,AUTO
        23 000767   200044 631500                    EPPR1   @TALLY$+1,,AUTO
        23 000770   200045 451500                    STP1    @TALLY$+2,,AUTO
        23 000771   200045 630500                    EPPR0   @TALLY$+2,,AUTO
        23 000772   000004 631400 24                 EPPR1   4
        23 000773   000000 701000 xent               TSX1    Z8AR$RESERVER
        23 000774   000000 011000                    NOP     0
PL6.E3A0      #012=Z8EH$EXAMINE_T File=Z8EH.:Z8A6TSI                             SAT 08/09/97 12:06 Page:281

  15563 23 000775   000002 236000 6                  LDQ     ST_+2
        23 000776   000022 736000                    QLS     18
        23 000777   000001 036000 6                  ADLQ    ST_+1
        23 001000   000000 756000 5                  STQ     ST$

  15564 23 001001   000013 236007                    LDQ     11,DL
        23 001002   000002 056000 6                  ASQ     ST_+2

  15612 23 001003   000766 220003                    LDX0    502,DU
        23 001004   000000 470400 5                  LDP0    ST$
        23 001005   000000 740100                    STX0    0,,PR0

  15613 23 001006   000000 470400 5                  LDP0    ST$
        23 001007   003000 236007                    LDQ     1536,DL
        23 001010   000000 552110                    STBQ    0,'10'O,PR0

  15614 23 001011   000000 470400 5                  LDP0    ST$
        23 001012   000001 236007                    LDQ     1,DL
        23 001013   000000 552104                    STBQ    0,'04'O,PR0

  15615 23 001014   000000 221003                    LDX1    0,DU
        23 001015   000000 470400 5                  LDP0    ST$
        23 001016   000001 741100                    STX1    1,,PR0

  15616 23 001017   000004 222003                    LDX2    4,DU
        23 001020   000001 442100                    SXL2    1,,PR0

  15617 23 001021   000133 723000 xsym               LXL3    COMCOM+91
        23 001022   000002 443100                    SXL3    2,,PR0

  15618 23 001023   000003 450100                    STZ     3,,PR0

  15619 23 001024   000000 236000 24                 LDQ     0
        23 001025   000004 756100                    STQ     4,,PR0

  15620 23 001026   000005 756100                    STQ     5,,PR0
PL6.E3A0      #012=Z8EH$EXAMINE_T File=Z8EH.:Z8A6TSI                             SAT 08/09/97 12:06 Page:282

  15621 23 001027   000007 756100                    STQ     7,,PR0

  15622 23 001030   000010 741100                    STX1    8,,PR0

  15623 23 001031   777777 224003                    LDX4    -1,DU
        23 001032   000010 444100                    SXL4    8,,PR0

  15627 23 001033   000012 756100                    STQ     10,,PR0

  15630 23 001034   000057 236000 xsym               LDQ     O1COM+47
        23 001035   000011 756100                    STQ     9,,PR0

  15631 23 001036   000057 236000 xsym               LDQ     O1COM+47
        23 001037   000000 116000 24                 CMPQ    0
        23 001040   001062 600000 23                 TZE     s:15666

  15635 23 001041   000057 471400 xsym               LDP1    O1COM+47
        23 001042   100001 473500                    LDP3    1,,PR1
        23 001043   300012 236100                    LDQ     10,,PR3
        23 001044   000000 116000 24                 CMPQ    0
        23 001045   001054 601000 23                 TNZ     s:15642

  15637 23 001046   000000 236000 5                  LDQ     ST$
        23 001047   300011 756100                    STQ     9,,PR3

  15638 23 001050   000057 471400 xsym               LDP1    O1COM+47
        23 001051   100001 473500                    LDP3    1,,PR1
        23 001052   300012 756100                    STQ     10,,PR3

  15639 23 001053   001062 710000 23                 TRA     s:15666

  15642 23 001054   300012 474500                    LDP4    10,,PR3
        23 001055   000000 236000 5                  LDQ     ST$
        23 001056   400012 756100                    STQ     10,,PR4

  15643 23 001057   000057 471400 xsym               LDP1    O1COM+47
PL6.E3A0      #012=Z8EH$EXAMINE_T File=Z8EH.:Z8A6TSI                             SAT 08/09/97 12:06 Page:283
        23 001060   100001 473500                    LDP3    1,,PR1
        23 001061   300012 756100                    STQ     10,,PR3

  15666 23 001062   000001 223003                    LDX3    1,DU
        23 001063   000002 743100                    STX3    2,,PR0

  15671 23 001064   000000 236000 1                  LDQ     DNT$
        23 001065   000006 756100                    STQ     6,,PR0

  15688 23 001066   010000 236003                    LDQ     4096,DU
        23 001067   000003 256100                    ORSQ    3,,PR0

     1405    15757
     1406    15758                %NEW_QLT (@POINTER = QLT$,
     1407    15759                          @ST$     = ST$,
     1408    15760                          @DNT$    = DNT$,
     1409    15761                          @ID      = %QUAL) ;

  15766 23 001070   000002 236000 15                 LDQ     QLT_+2
        23 001071   000006 036007                    ADLQ    6,DL
        23 001072   000003 116000 15                 CMPQ    QLT_+3
        23 001073   001104 602000 23                 TNC     s:15768

  15767 23 001074   000007 236000 24                 LDQ     7
        23 001075   200044 756100                    STQ     @TALLY$+1,,AUTO
        23 001076   200044 631500                    EPPR1   @TALLY$+1,,AUTO
        23 001077   200045 451500                    STP1    @TALLY$+2,,AUTO
        23 001100   200045 630500                    EPPR0   @TALLY$+2,,AUTO
        23 001101   000004 631400 24                 EPPR1   4
        23 001102   000000 701000 xent               TSX1    Z8AR$RESERVER
        23 001103   000000 011000                    NOP     0

  15768 23 001104   000002 236000 15                 LDQ     QLT_+2
        23 001105   000022 736000                    QLS     18
        23 001106   000001 036000 15                 ADLQ    QLT_+1
        23 001107   000000 756000 13                 STQ     QLT$

PL6.E3A0      #012=Z8EH$EXAMINE_T File=Z8EH.:Z8A6TSI                             SAT 08/09/97 12:06 Page:284
  15769 23 001110   000002 235000 15                 LDA     QLT_+2
        23 001111   000006 035007                    ADLA    6,DL
        23 001112   000002 755000 15                 STA     QLT_+2

  15770 23 001113   001053 220003                    LDX0    555,DU
        23 001114   000000 470400 13                 LDP0    QLT$
        23 001115   000000 740100                    STX0    0,,PR0

  15773 23 001116   000000 236000 24                 LDQ     0
        23 001117   000000 470400 13                 LDP0    QLT$
        23 001120   000001 756100                    STQ     1,,PR0

  15774 23 001121   000002 756100                    STQ     2,,PR0

  15775 23 001122   000003 756100                    STQ     3,,PR0

  15776 23 001123   000000 236000 5                  LDQ     ST$
        23 001124   000004 756100                    STQ     4,,PR0

  15777 23 001125   000000 236000 1                  LDQ     DNT$
        23 001126   000005 756100                    STQ     5,,PR0

  15778 23 001127   000001 236007                    LDQ     1,DL
        23 001130   000000 552104                    STBQ    0,'04'O,PR0

  15779 23 001131   000000 470400 13                 LDP0    QLT$
        23 001132   000000 236003                    LDQ     0,DU
        23 001133   000000 552110                    STBQ    0,'10'O,PR0

  15780 23 001134   000000 470400 13                 LDP0    QLT$
        23 001135   000010 236000 24                 LDQ     8
        23 001136   000000 356100                    ANSQ    0,,PR0

  15781 23 001137   000000 470400 13                 LDP0    QLT$
        23 001140   000011 236000 24                 LDQ     9
        23 001141   000000 356100                    ANSQ    0,,PR0

PL6.E3A0      #012=Z8EH$EXAMINE_T File=Z8EH.:Z8A6TSI                             SAT 08/09/97 12:06 Page:285
  15782 23 001142   000000 470400 13                 LDP0    QLT$
        23 001143   000012 236000 24                 LDQ     10
        23 001144   000000 356100                    ANSQ    0,,PR0

  15783 23 001145   000000 470400 13                 LDP0    QLT$
        23 001146   000013 236000 24                 LDQ     11
        23 001147   000000 356100                    ANSQ    0,,PR0

     1410    15786
     1411    15787    4           ST$ -> SCALAR.QLT$ = QLT$ ;

  15787 23 001150   000000 236000 13                 LDQ     QLT$
        23 001151   000000 470400 5                  LDP0    ST$
        23 001152   000007 756100                    STQ     7,,PR0

     1412    15788    4           DNT$ -> DNT.ST$ = ST$ ;

  15788 23 001153   000000 236000 5                  LDQ     ST$
        23 001154   000000 471400 1                  LDP1    DNT$
        23 001155   100001 756100                    STQ     1,,PR1

     1413    15789
     1414    15790                %UPDATE_PREV_QLT$ (@NEW_QLT$ = QLT$) ;

  15792 23 001156   000424 236000 xsym               LDQ     COMCOM+276
        23 001157   000000 116000 24                 CMPQ    0
        23 001160   001164 600000 23                 TZE     s:15794

  15793 23 001161   000000 236000 13                 LDQ     QLT$
        23 001162   000424 473400 xsym               LDP3    COMCOM+276
        23 001163   300002 756100                    STQ     2,,PR3

  15794 23 001164   000000 236000 13                 LDQ     QLT$
        23 001165   000424 756000 xsym               STQ     COMCOM+276

     1415    15797
     1416    15798    4         END ; /* ST$ = nil */
PL6.E3A0      #012=Z8EH$EXAMINE_T File=Z8EH.:Z8A6TSI                             SAT 08/09/97 12:06 Page:286

     1417    15799
     1418    15800    3         CALL Z8AF$NEW_BASE (DNT$ -> DNT.ST$, ADDR(NIL), O1COM.TALLY$) ;

  15800 23 001166   000000 236000 24                 LDQ     0
        23 001167   200044 756100                    STQ     @TALLY$+1,,AUTO
        23 001170   000015 236000 24                 LDQ     13
        23 001171   200047 756100                    STQ     @TALLY$+4,,AUTO
        23 001172   200044 630500                    EPPR0   @TALLY$+1,,AUTO
        23 001173   200046 450500                    STP0    @TALLY$+3,,AUTO
        23 001174   000000 236000 1                  LDQ     DNT$
        23 001175   000001 036003                    ADLQ    1,DU
        23 001176   200045 756100                    STQ     @TALLY$+2,,AUTO
        23 001177   200045 630500                    EPPR0   @TALLY$+2,,AUTO
        23 001200   000014 631400 24                 EPPR1   12
        23 001201   000000 701000 xent               TSX1    Z8AF$NEW_BASE
        23 001202   000000 011000                    NOP     0

     1419    15801
     1420    15802    3       END ; /* O1COM.TALLY$ = nil */

     1421    15803
     1422    15804            %NEW (@TEMPLATE = LX_ETT_ITEM,
     1423    15805                  @POINTER  = TALLY$) ;

  15811 23 001203   000003 236000 24                 LDQ     3
        23 001204   200043 235100                    LDA     @TALLY$,,AUTO
        23 001205   200044 757100                    STAQ    @TALLY$+1,,AUTO
        23 001206   200044 630500                    EPPR0   @TALLY$+1,,AUTO
        23 001207   000001 631400 24                 EPPR1   1
        23 001210   000000 701000 xent               TSX1    Z8ED$NEW_HEAP
        23 001211   000000 011000                    NOP     0

     1424    15815
     1425    15816            %INIT_LX_ETT_ITEM (@POINTER = TALLY$,
     1426    15817                               @ETT$    = O1COM.TALLY$,
     1427    15818                               @TYPE    = "O1COM.TALLY$ -> ETT.LOP -> ST.TYPE") ;
PL6.E3A0      #012=Z8EH$EXAMINE_T File=Z8EH.:Z8A6TSI                             SAT 08/09/97 12:06 Page:287

  15820 23 001212   200043 470500                    LDP0    @TALLY$,,AUTO
        23 001213   000000 471500                    LDP1    0,,PR0
        23 001214   000004 220003                    LDX0    4,DU
        23 001215   100000 740100                    STX0    0,,PR1

  15821 23 001216   000000 471500                    LDP1    0,,PR0
        23 001217   000000 221003                    LDX1    0,DU
        23 001220   100000 441100                    SXL1    0,,PR1

  15822 23 001221   000000 471500                    LDP1    0,,PR0
        23 001222   000051 473400 xsym               LDP3    O1COM+41
        23 001223   300001 474500                    LDP4    1,,PR3
        23 001224   400002 236100                    LDQ     2,,PR4
        23 001225   000022 772000                    QRL     18
        23 001226   100004 756100                    STQ     4,,PR1

  15823 23 001227   000000 471500                    LDP1    0,,PR0
        23 001230   000000 236000 24                 LDQ     0
        23 001231   100007 756100                    STQ     7,,PR1

  15824 23 001232   000000 471500                    LDP1    0,,PR0
        23 001233   000051 236000 xsym               LDQ     O1COM+41
        23 001234   100001 756100                    STQ     1,,PR1

  15825 23 001235   000000 471500                    LDP1    0,,PR0
        23 001236   000000 236000 24                 LDQ     0
        23 001237   100002 756100                    STQ     2,,PR1

  15827 23 001240   000000 471500                    LDP1    0,,PR0
        23 001241   000133 235000 xsym               LDA     COMCOM+91
        23 001242   100005 755100                    STA     5,,PR1

  15828 23 001243   000000 471500                    LDP1    0,,PR0
        23 001244   000134 235000 xsym               LDA     COMCOM+92
        23 001245   100006 755100                    STA     6,,PR1

PL6.E3A0      #012=Z8EH$EXAMINE_T File=Z8EH.:Z8A6TSI                             SAT 08/09/97 12:06 Page:288
     1428    15840
     1429    15841    2     END CREATE_TALLY_LX_ETT_ITEM ;

  15841 23 001246   200042 221300                    LDX1  ! ZERO+8,,AUTO
        23 001247   000001 702211                    TSX2  ! 1,X1
     1430    15842
     1431    15843    1   END Z8EH$EXAMINE_T ;
     1432    15844

PL6.E3A0      #012=Z8EH$EXAMINE_T File=Z8EH.:Z8A6TSI                             SAT 08/09/97 12:06 Page:289
--  Include file information  --

   Z8E_ABSSYN.:Z8A6TOU  cannot be made into a system file and is referenced.
   Z8E_WINDOW.:Z8A6TOU  is referenced.
   Z8E_HEAP.:Z8A6TOU  cannot be made into a system file and is referenced.
   Z8E_O1COM.:Z8A6TOU  cannot be made into a system file and is referenced.
   Z8A_LEX_SYMB.:Z8A6TOU  cannot be made into a system file and is referenced.
   Z8E_STACKS.:Z8A6TOU  cannot be made into a system file and is referenced.
   Z8A_QLT.:Z8A6TOU  cannot be made into a system file and is referenced.
   Z8A_TYPES.:Z8A6TOU  is referenced.
   Z8A_COMCOM.:Z8A6TOU  cannot be made into a system file and is referenced.
   Z8A_LTS.:Z8A6TOU  cannot be made into a system file and is referenced.
   Z8A_ETT.:Z8A6TOU  cannot be made into a system file and is referenced.
   Z8A_ST.:Z8A6TOU  cannot be made into a system file and is referenced.
   Z8A_DNT.:Z8A6TOU  cannot be made into a system file and is referenced.
   X8A_COM_MACS.:X8A6TOU  is referenced.
   Z8A_NAMES.:Z8A6TOU  is referenced.
   Z8A_SUPP_MAC.:Z8A6TOU  is referenced.
   Z8A_DEFC.:Z8A6TOU  cannot be made into a system file and is referenced.
      No diagnostics issued in procedure Z8EH$EXAMINE_T.
PL6.E3A0      #012=Z8EH$EXAMINE_T File=Z8EH.:Z8A6TSI                             SAT 08/09/97 12:06 Page:290

 **** Variables and constants ****

  ****  Section 000 LblCom ITERATION

  ****  Scalars and arrays  ****
OctLoc.c.b A Datatyp(siz) R M Lvl/name                 OctLoc.c.b A Datatyp(siz) R M Lvl/name

     0-0-0/w SBIN              1 ITERATION

  ****  Section 001 LblCom DNT$

  ****  Scalars and arrays  ****
OctLoc.c.b A Datatyp(siz) R M Lvl/name                 OctLoc.c.b A Datatyp(siz) R M Lvl/name

     0-0-0/w PTR         r     1 DNT$

  ****  Section 002 LblCom DNT_

  ****  Scalars and arrays  ****
OctLoc.c.b A Datatyp(siz) R M Lvl/name                 OctLoc.c.b A Datatyp(siz) R M Lvl/name

     0-0-0/w STRC(180)         1 DNT_

  ****  Section 003 LblCom DNT_BUCKET_NUMBER

  ****  Scalars and arrays  ****
OctLoc.c.b A Datatyp(siz) R M Lvl/name                 OctLoc.c.b A Datatyp(siz) R M Lvl/name

     0-0-0/w UBIN              1 DNT_BUCKET_NUMBER

  ****  Section 004 LblCom DNT_OF_1$

  ****  Scalars and arrays  ****
OctLoc.c.b A Datatyp(siz) R M Lvl/name                 OctLoc.c.b A Datatyp(siz) R M Lvl/name

     0-0-0/w PTR               1 DNT_OF_1$

PL6.E3A0      #012=Z8EH$EXAMINE_T File=Z8EH.:Z8A6TSI                             SAT 08/09/97 12:06 Page:291
  ****  Section 005 LblCom ST$

  ****  Scalars and arrays  ****
OctLoc.c.b A Datatyp(siz) R M Lvl/name                 OctLoc.c.b A Datatyp(siz) R M Lvl/name

     0-0-0/w PTR         r     1 ST$

  ****  Section 006 LblCom ST_

  ****  Scalars and arrays  ****
OctLoc.c.b A Datatyp(siz) R M Lvl/name                 OctLoc.c.b A Datatyp(siz) R M Lvl/name

     0-0-0/w STRC(180)   r     1 ST_

  ****  Section 007 LblCom ETT$

  ****  Scalars and arrays  ****
OctLoc.c.b A Datatyp(siz) R M Lvl/name                 OctLoc.c.b A Datatyp(siz) R M Lvl/name

     0-0-0/w PTR         r     1 ETT$

  ****  Section 008 LblCom HEAD_ETT$

  ****  Scalars and arrays  ****
OctLoc.c.b A Datatyp(siz) R M Lvl/name                 OctLoc.c.b A Datatyp(siz) R M Lvl/name

     0-0-0/w PTR               1 HEAD_ETT$

  ****  Section 009 LblCom ETT_BUCKETS

  ****  Scalars and arrays  ****
OctLoc.c.b A Datatyp(siz) R M Lvl/name                 OctLoc.c.b A Datatyp(siz) R M Lvl/name

     0-0-0/w PTR               1 ETT_BUCKETS(0:511)

  ****  Section 010 LblCom ETT_

PL6.E3A0      #012=Z8EH$EXAMINE_T File=Z8EH.:Z8A6TSI                             SAT 08/09/97 12:06 Page:292
  ****  Scalars and arrays  ****
OctLoc.c.b A Datatyp(siz) R M Lvl/name                 OctLoc.c.b A Datatyp(siz) R M Lvl/name

     0-0-0/w STRC(180)         1 ETT_

  ****  Section 011 LblCom LTS$

  ****  Scalars and arrays  ****
OctLoc.c.b A Datatyp(siz) R M Lvl/name                 OctLoc.c.b A Datatyp(siz) R M Lvl/name

     0-0-0/w PTR               1 LONG_ITEM$                 0-0-0/w PTR         r     1 LTS$

  ****  Section 012 LblCom LTS_

  ****  Scalars and arrays  ****
OctLoc.c.b A Datatyp(siz) R M Lvl/name                 OctLoc.c.b A Datatyp(siz) R M Lvl/name

     0-0-0/w STRC(180)         1 LTS_

  ****  Section 013 LblCom QLT$

  ****  Scalars and arrays  ****
OctLoc.c.b A Datatyp(siz) R M Lvl/name                 OctLoc.c.b A Datatyp(siz) R M Lvl/name

     0-0-0/w PTR         r     1 QLT$

  ****  Section 014 LblCom PREV_01_QLT$

  ****  Scalars and arrays  ****
OctLoc.c.b A Datatyp(siz) R M Lvl/name                 OctLoc.c.b A Datatyp(siz) R M Lvl/name

     0-0-0/w PTR               1 PREV_01_QLT$

  ****  Section 015 LblCom QLT_

  ****  Scalars and arrays  ****
OctLoc.c.b A Datatyp(siz) R M Lvl/name                 OctLoc.c.b A Datatyp(siz) R M Lvl/name
PL6.E3A0      #012=Z8EH$EXAMINE_T File=Z8EH.:Z8A6TSI                             SAT 08/09/97 12:06 Page:293

     0-0-0/w STRC(180)   r     1 QLT_

  ****  Section 016 LblCom LEX_SYMBOL

  ****  Scalars and arrays  ****
OctLoc.c.b A Datatyp(siz) R M Lvl/name                 OctLoc.c.b A Datatyp(siz) R M Lvl/name

     0-0-0/w STRC(3240)  r     1 LEX_SYMBOL                 0-0-0/w STRC(3240)        1 LEX_SYMBOL_WORDS

  ****  Section 017 LblCom CURRENT_LEX_SYMBOL$

  ****  Scalars and arrays  ****
OctLoc.c.b A Datatyp(siz) R M Lvl/name                 OctLoc.c.b A Datatyp(siz) R M Lvl/name

     0-0-0/w PTR         r     1 CURRENT_LEX_SYMBOL$

  ****  Section 018 LblCom TEMP_LEX_SYMBOL

  ****  Scalars and arrays  ****
OctLoc.c.b A Datatyp(siz) R M Lvl/name                 OctLoc.c.b A Datatyp(siz) R M Lvl/name

     0-0-0/w STRC(3240)        1 TEMP_LEX_SYMBOL

  ****  Section 019 LblCom TEMP_LEX_SYMBOL2

  ****  Scalars and arrays  ****
OctLoc.c.b A Datatyp(siz) R M Lvl/name                 OctLoc.c.b A Datatyp(siz) R M Lvl/name

     0-0-0/w STRC(3240)        1 TEMP_LEX_SYMBOL2

  ****  Section 020 LblCom HEAP$

  ****  Scalars and arrays  ****
OctLoc.c.b A Datatyp(siz) R M Lvl/name                 OctLoc.c.b A Datatyp(siz) R M Lvl/name

     0-0-0/w PTR               1 HEAP$
PL6.E3A0      #012=Z8EH$EXAMINE_T File=Z8EH.:Z8A6TSI                             SAT 08/09/97 12:06 Page:294

  ****  Section 021 LblCom TEMP_LX_NODE

  ****  Scalars and arrays  ****
OctLoc.c.b A Datatyp(siz) R M Lvl/name                 OctLoc.c.b A Datatyp(siz) R M Lvl/name

     0-0-0/d STRC(288)         1 TEMP_LX_NODE

  ****  Auto variables  ****

  ****  Scalars and arrays  ****
OctLoc.c.b A Datatyp(siz) R M Lvl/name                 OctLoc.c.b A Datatyp(siz) R M Lvl/name

     3-0-0/w PTR         r     1 @EXAMINE$                  4-0-0/w PTR         r     1 @ID_1$
     5-0-0/w PTR         r     1 @LIST$                    43-0-0/w PTR         r     1 @TALLY$
    10-0-0/w PTR         r     1 ALL$                      13-0-0/w PTR         r     1 CLAUSE$
    *0-0-0/w PTR         r     1 EXAMINE$                  14-0-0/w PTR         r     1 FOR$
    *0-0-0/w PTR         r     1 ID_1$                     11-0-0/w PTR         r     1 ID_2$
    22-0-0/d STRC(288)   r     1 INSPECT                   15-0-0/w PTR         r     1 INSPECT_1$
    *0-0-0/w PTR         r     1 LIST$                     20-0-0/w PTR         r     1 LX_LIST$
     7-0-0/w PTR         r     1 LX_LIST1$                 17-0-0/w PTR         r     1 LX_TERMINAL$
     6-0-0/w PTR         r     1 PHRASE$                   16-0-0/w PTR         r     1 STMT$
    12-0-0/w PTR         r     1 TALLY$                    *0-0-0/w PTR         r     1 TALLY$
    32-0-0/d STRC(288)   r     1 ZERO

  ****  SYMREF variables  ****

  ****  Scalars and arrays  ****
OctLoc.c.b A Datatyp(siz) R M Lvl/name                 OctLoc.c.b A Datatyp(siz) R M Lvl/name

     0-0-0/d STRC(13248) r     1 COMCOM
     0-0-0/w STRC(180)         1 HIER_STK(0:50)
     0-0-0/w SBIN              1 HIER_STK_PTR
     0-0-0/w UBIN              1 LTS_STEP(0:37)
     0-0-0/d STRC(11580) r     1 O1COM                      0-0-0/w STRC(144)         1 PAGE_FORMAT
     0-0-0/w STRC(153)         1 REP_STK(0:50)              0-0-0/w SBIN              1 REP_STK_PTR

PL6.E3A0      #012=Z8EH$EXAMINE_T File=Z8EH.:Z8A6TSI                             SAT 08/09/97 12:06 Page:295
  ****  BASED and DCB variables  ****

  ****  Scalars and arrays  ****
OctLoc.c.b A Datatyp(siz) R M Lvl/name                 OctLoc.c.b A Datatyp(siz) R M Lvl/name

     0-0-0/w STRC(288)         1 ADD_STMT                   0-0-0/w STRC(396)         1 ALPHABET
     0-0-0/w STRC(144)         1 ALTER_LTS                  0-0-0/w STRC(3672)        1 ALT_KEY
     0-0-0/w STRC(36864)       1 ARGLIST                    0-0-0/w STRC(396)         1 ARRAY
     0-0-0/w STRC(180)         1 ARRAY_PRESET_LTS           0-0-0/w ASTR(324)   r     1 BASED_LEX_SYMBOL
     0-0-0/w STRC(360)         1 BASED_LEX_SYMBOL_WORDS
     0-0-0/w STRC(288)         1 BASE_LTS                   0-0-0/w STRC(288)         1 BINARY_OP
     0-0-0/w STRC(396)         1 BLOCK                      0-0-0/w STRC(144)         1 BT
     0-0-0/w STRC(288)         1 CALL_STMT                  0-0-0/w STRC(396)         1 CD
     0-0-0/w STRC(288)         1 CD_LTS                     0-0-0/w CHAR(4096)        1 CHARS
     0-0-0/w STRC(396)         1 CLASS                      0-0-0/w STRC(288)         1 COMPUTE_STMT
     0-0-0/w STRC(396)         1 CONDITION                  0-0-0/w STRC(396)         1 CONST
     0-0-0/w STRC(72)          1 CONT                       0-0-0/w STRC(540)         1 CONTROL_NAME_LTS
     0-0-0/w STRC(1872)        1 COPY_FILE                  0-0-0/w STRC(396)         1 DB
     0-0-0/w STRC(396)         1 DCB_                       0-0-0/w STRC(288)         1 DEFERED_IDENTIFIER
     0-0-0/w STRC(252)         1 DEFERED_ID_TREE            0-0-0/w STRC(288)         1 DEFERED_QUAL_ID
     0-0-0/w STRC(288)         1 DEFERED_SUM_CLAUSE
     0-0-0/w STRC(288)         1 DEFERED_SUM_CLAUSE_LIST
     0-0-0/w STRC(288)         1 DELETE_STMT                0-0-0/w STRC(108)         1 DEPENDING_SIZE
     0-0-0/w STRC(5472)        1 DIMS                       0-0-0/w STRC(288)         1 DIVIDE_STMT
     0-0-0/w STRC(396)         1 DML_ITEM                   0-0-0/w STRC(216)         1 DML_REC
     0-0-0/w ASTR(180)   r     1 DNT                        0-0-0/w STRC(180)   r     1 ETT
     0-0-0/w STRC(73836)       1 EVALUATE                   0-0-0/w STRC(396)         1 FD
     0-0-0/w STRC(1692)        1 FILE_LTS                   0-0-0/w STRC(288)         1 ILS_LIST
     0-0-0/w STRC(108)         1 INDEXES                    0-0-0/w STRC(360)         1 INIT_LTS
     0-0-0/w STRC(288)   r     1 INSPECT_1_STMT             0-0-0/w STRC(288)         1 INSPECT_2_STMT
     0-0-0/w STRC(288)         1 INSPECT_4_STMT             0-0-0/w STRC(396)         1 INTDEF
     0-0-0/w STRC(180)         1 IO_RESTORE_CHAIN           0-0-0/w STRC(144)         1 KEY
     0-0-0/w STRC(396)         1 LABEL                      0-0-0/w STRC(288)         1 LA_ITEM
     0-0-0/w STRC(36864)       1 LCNST                      0-0-0/w STRC(72)          1 LONG
     0-0-0/w STRC              1 LTS                        0-0-0/w STRC(360)         1 LTSS
     0-0-0/w STRC(36936)       1 LTS_PTR_ARRAY              0-0-0/w STRC(504)         1 LX_CD_INPUT
     0-0-0/w STRC(324)         1 LX_CD_I_O                  0-0-0/w STRC(396)         1 LX_CD_OUTPUT
PL6.E3A0      #012=Z8EH$EXAMINE_T File=Z8EH.:Z8A6TSI                             SAT 08/09/97 12:06 Page:296
     0-0-0/w STRC(288)   r     1 LX_ETT_ITEM                0-0-0/w STRC(288)   r     1 LX_ITEM
     0-0-0/w STRC(288)         1 LX_LARGE                   0-0-0/w STRC(288)   r     1 LX_LIST
     0-0-0/w STRC(1224)        1 LX_REC_DECL                0-0-0/w STRC(864)         1 LX_REPORT_REC
     0-0-0/w STRC(288)   r     1 LX_TERMINAL                0-0-0/w STRC(396)         1 MNEMONIC
     0-0-0/w STRC(288)         1 MULTIPLY_STMT              0-0-0/w STRC(144)         1 NEL
     0-0-0/w STRC(216)         1 OPEN_LTS                   0-0-0/w STRC(36864)       1 PAGE
     0-0-0/w STRC(396)         1 PARA                       0-0-0/w STRC(144)         1 PRIME
     0-0-0/w STRC(396)   r     1 PROC_                      0-0-0/w STRC(396)         1 PROC_DEF
     0-0-0/w STRC(900)   r     1 PROC_SUPP                  0-0-0/w STRC(216)   r     1 QLT
     0-0-0/w STRC(396)         1 RD                         0-0-0/w STRC(288)         1 READ_STMT
     0-0-0/w STRC(216)         1 REF                        0-0-0/w STRC(108)         1 RENAMES
     0-0-0/w STRC(720)         1 REPORT_01_LTS              0-0-0/w STRC(432)         1 REPORT_ELEM_LTS
     0-0-0/w STRC(252)         1 REPORT_GRP_LTS             0-0-0/w STRC(1332)        1 REPORT_LTS
     0-0-0/w STRC(288)         1 REWRITE_STMT               0-0-0/w STRC(144)         1 RVA_LTS
     0-0-0/w STRC(396)   r     1 SCALAR                     0-0-0/w STRC(396)         1 SD
     0-0-0/w STRC(396)         1 SECTION                    0-0-0/w STRC(396)         1 SEGMENT
     0-0-0/w STRC(360)         1 SEGMENT_LTS                0-0-0/w STRC(396)   r     1 ST
     0-0-0/w STRC(288)         1 START_STMT                 0-0-0/w STRC(252)         1 STRING_STMT
     0-0-0/w STRC(288)         1 SUBTRACT_STMT              0-0-0/w STRC(252)         1 SUM_LTS
     0-0-0/w STRC(396)         1 SWITCH                     0-0-0/w STRC(396)         1 SYMBOLIC_CHAR
     0-0-0/w STRC(396)         1 SYMDEF_                    0-0-0/w STRC(396)         1 SYMREF_
     0-0-0/w STRC(396)         1 TEMP                       0-0-0/w STRC(288)         1 UNARY_OP
     0-0-0/w STRC(288)         1 UNSTRING_STMT              0-0-0/d STRC(612)         1 USE
     0-0-0/w STRC(252)         1 USE_SUPP                   0-0-0/w STRC(396)         1 VARIABLE
     0-0-0/w STRC(288)         1 WRITE_STMT


   Procedure Z8EH$EXAMINE_T requires 680 words for executable code.
   Procedure Z8EH$EXAMINE_T requires 40 words of local(AUTO) storage.

    No errors detected in file Z8EH.:Z8A6TSI    .
