VERSION A06

PL6.E3A0      #001=Z8EI$INIT File=Z8EI.:Z8A6TSI                                  SAT 08/09/97 11:52 Page:1
        1        1        /*M*  Z8EI$INIT -- Initialization for Phase 1. */
        2        2        /*T***********************************************************/
        3        3        /*T*                                                         */
        4        4        /*T* Copyright (c) Bull HN Information Systems Inc., 1997    */
        5        5        /*T*                                                         */
        6        6        /*T***********************************************************/
        7        7        Z8EI$INIT: PROC NOAUTO;
        8        8
        9        9        /*P*
       10       10               NAME:  Z8EI$INIT
       11       11            PURPOSE:  Initializes everything that needs to be set up for Phase 1.
       12       12                      This involves creating some table entries, opening the input
       13       13                      file, and calling a procedure for reserved word declarations.
       14       14        */
       15       15
       16       16        /*D*
       17       17               NAME:  Z8EI$INIT
       18       18               CALL:  CALL Z8EI$INIT ;
       19       19          INTERFACE:  Z8AA$PREPARE_SOURCE_INPUT - Opens file to be compiled.
       20       20                      Z8AS$SR_ETT - Creates ETT entries.
       21       21
       22       22             OUTPUT:  COMCOM.CURRENT.LINE - Initialized to zero.
       23       23                      COMCOM.CURRENT.COLUMN - Initialized to zero.
       24       24
       25       25                      Creates .PROC. segment and assigns segment variables,
       26       26                           (COMCOM.SEGMENT$(0), COMCOM.SEGMENTC).
       27       27
       28       28                      Creates ESC triad for .DATA. and ST entry, also assigns block
       29       29                           variables (COMCOM.BLOCK$, O1COM.LAST_BLOCK$).
       30       30
       31       31                      Creates ST entry for COMCOM.ALMOST_ONE variable.
       32       32
       33       33                      Creates ST and ETT entries for args and assigns variables
       34       34                           (COMCOM.ARGS1, COMCOM.ARGS2, COMCOM.ARGS3, COMCOM.ARGS4).
       35       35
       36       36                      Initializes O1COM.AREA_A_COLUMN_START and O1COM.AREA_B_COLUMN_START
       37       37                           to (7, 11) for fixed_format or (1, 5) for free_format.
PL6.E3A0      #001=Z8EI$INIT File=Z8EI.:Z8A6TSI                                  SAT 08/09/97 11:52 Page:2
       38       38
       39       39        DESCRIPTION:  This procedure initializes the items needed for Phase 1.
       40       40                      The segment for .PROC. is created as well as the block item
       41       41                      for .DATA.  Also ARGS1 through ARGS4 are set up and
       42       42                      COMCOM.ALMOST_ONE is initialized.
       43       43        */
       44       44        %EJECT ;
PL6.E3A0      #001=Z8EI$INIT File=Z8EI.:Z8A6TSI                                  SAT 08/09/97 11:52 Page:3
       45       45
       46       46        %SET PHASE = 1;
       47       47        %INCLUDE Z8A_DEFC;
       48      115        %INCLUDE Z9A_FLAGS;
       49      129        %INCLUDE Z8A_SUPP_MAC ;
       50     2529        %INCLUDE Z8A_COMCOM;
       51     3179        %INCLUDE Z8E_STACKS ;
       52     5445        %INCLUDE Z8E_O1COM;
       53     6206
       54     6207
       55     6208    1   DCL Z8AA$PREPARE_SOURCE_INPUT ENTRY ALTRET ;
       56     6209
       57     6210        %EJECT;
PL6.E3A0      #001=Z8EI$INIT File=Z8EI.:Z8A6TSI                                  SAT 08/09/97 11:52 Page:4
       58     6211
       59     6212        /*V*
       60     6213            OPEN_SOURCE_INPUT -- The source file is opened and the current line
       61     6214                                 and column are initialized to zero.
       62     6215        */
       63     6216
       64     6217    1          CALL Z8AA$PREPARE_SOURCE_INPUT ;
       65     6218    1          COMCOM.CURRENT.LINE = 0;
       66     6219    1          COMCOM.CURRENT.COLUMN = 0;
       67     6220    1          COMCOM.MAX_RECEIVING_ITEMS = 0 ;                /*#28761*/
       68     6221               %IF GCOS ;
       70     6223               %ENDIF ;
       71     6224
       72     6225        /*V*
       73     6226            PROGRAM_ENTRY -- The entry item in the ILL table is created.  This
       74     6227                             statement is created here and the END is created in WRAPUP.
       75     6228                             This is done because error recovery might not call the
       76     6229                             action if it was done semantically.
       77     6230        */
       78     6231
       79     6232               %INIT_ILS_LIST (@POINTER = "ADDR(O1COM.ILS_LIST)");
       80     6240
       81     6241        /*V*
       82     6242            FREE_FORMAT -- If the FORM[AT] option is used then area-A
       83     6243                           starts after column 1, and area-B after 5
       84     6244                           (normally these values are 7 and 11).
       85     6245                           Also Margin-R is column 256 instead of 72.
       86     6246        */
       87     6247
       88     6248    2          IF COMCOM.OB.FORMAT THEN DO ;
       89     6249    2            O1COM.AREA_A_COLUMN_START = %AREA_A_COLUMN_START - 6 ;
       90     6250    2            O1COM.AREA_B_COLUMN_START = %AREA_B_COLUMN_START - 6 ;
       91     6251    2            O1COM.MARGIN_R = 256 ;
       92     6252    2          END ;
       93     6253
       94     6254    1   END Z8EI$INIT ;
       95     6255        %EOD;
PL6.E3A0      #001=Z8EI$INIT File=Z8EI.:Z8A6TSI                                  SAT 08/09/97 11:52 Page:5

PL6.E3A0      #001=Z8EI$INIT File=Z8EI.:Z8A6TSI                                  SAT 08/09/97 11:52 Page:6
--  Include file information  --

   Z8E_O1COM.:Z8A6TOU  cannot be made into a system file and is referenced.
   Z8A_LEX_SYMB.:Z8A6TOU  cannot be made into a system file and is referenced.
   Z8E_STACKS.:Z8A6TOU  cannot be made into a system file and is referenced.
   Z8A_COMCOM.:Z8A6TOU  cannot be made into a system file and is referenced.
   X8A_COM_MACS.:X8A6TOU  is referenced.
   Z8A_NAMES.:Z8A6TOU  is referenced.
   Z8A_SUPP_MAC.:Z8A6TOU  is referenced.
   Z9A_FLAGS.:Z8A6TOU  is referenced.
   Z8A_DEFC.:Z8A6TOU  cannot be made into a system file and is referenced.
      No diagnostics issued in procedure Z8EI$INIT.

   Procedure Z8EI$INIT requires 23 words for executable code.
   Procedure Z8EI$INIT is declared NOAUTO and requires 2 words of local(STATIC) storage.

PL6.E3A0      #001=Z8EI$INIT File=Z8EI.:Z8A6TSI                                  SAT 08/09/97 11:52 Page:7

 Object Unit name= Z8EI$INIT                                  File name= Z8EI.:Z8A6TOU
 UTS= AUG 09 '97 11:52:33.44 SAT                              Compiler= PL-6/E31         Sev=      00
 SharedLib= :SHARED_SYSTEM                                    Alt SharedLib=


    ****  Control sections  ****

 Sect   Type Bound  Init  Size OctSiz  Section name(segment info)
    0   Data  even  none     2      2  Z8EI$INIT
    1  LblCom even  none     1      1  ITERATION
    2  LblCom even  none    90    132  LEX_SYMBOL
    3  LblCom even  none     1      1  CURRENT_LEX_SYMBOL$
    4  LblCom even  none    90    132  TEMP_LEX_SYMBOL
    5  LblCom even  none    90    132  TEMP_LEX_SYMBOL2
    6   Proc  even  none    23     27  Z8EI$INIT
    7  RoData even  none     2      2  Z8EI$INIT

    ****  Entry defs  ****

                              Check   Calling
                             calling  sequence
  Sect OctLoc Primary Altret sequence   type   Parms  Name
     6      0   yes            yes      Std        0  Z8EI$INIT

  ****  Entry refs  ****

         Check        Calling
        calling       sequence
Altret sequence SRef   type   Args  Name
 yes     yes           Std       0 Z8AA$PREPARE_SOURCE_INPUT
PL6.E3A0      #001=Z8EI$INIT File=Z8EI.:Z8A6TSI                                  SAT 08/09/97 11:52 Page:8

  ****  Data refs  ****

  Flags:  r = read only, s = secondary
Flgs Name                             Flgs Name                             Flgs Name
     COMCOM                                O1COM                                 HIER_STK_PTR
     HIER_STK                              PAGE_FORMAT                           REP_STK_PTR
     REP_STK

  ****  Segment refs  ****

  Flags:  r = read only, s = secondary
Flgs Name                             Flgs Name                             Flgs Name
     ISSID                                 NULLSID
PL6.E3A0      #001=Z8EI$INIT File=Z8EI.:Z8A6TSI                                  SAT 08/09/97 11:52 Page:9


        1        1        /*M*  Z8EI$INIT -- Initialization for Phase 1. */
        2        2        /*T***********************************************************/
        3        3        /*T*                                                         */
        4        4        /*T* Copyright (c) Bull HN Information Systems Inc., 1997    */
        5        5        /*T*                                                         */
        6        6        /*T***********************************************************/
        7        7        Z8EI$INIT: PROC NOAUTO;

      7  6 000000   000000 741200 0     Z8EI$INIT    STX1  ! 0

        8        8
        9        9        /*P*
       10       10               NAME:  Z8EI$INIT
       11       11            PURPOSE:  Initializes everything that needs to be set up for Phase 1.
       12       12                      This involves creating some table entries, opening the input
       13       13                      file, and calling a procedure for reserved word declarations.
       14       14        */
       15       15
       16       16        /*D*
       17       17               NAME:  Z8EI$INIT
       18       18               CALL:  CALL Z8EI$INIT ;
       19       19          INTERFACE:  Z8AA$PREPARE_SOURCE_INPUT - Opens file to be compiled.
       20       20                      Z8AS$SR_ETT - Creates ETT entries.
       21       21
       22       22             OUTPUT:  COMCOM.CURRENT.LINE - Initialized to zero.
       23       23                      COMCOM.CURRENT.COLUMN - Initialized to zero.
       24       24
       25       25                      Creates .PROC. segment and assigns segment variables,
       26       26                           (COMCOM.SEGMENT$(0), COMCOM.SEGMENTC).
       27       27
       28       28                      Creates ESC triad for .DATA. and ST entry, also assigns block
       29       29                           variables (COMCOM.BLOCK$, O1COM.LAST_BLOCK$).
       30       30
       31       31                      Creates ST entry for COMCOM.ALMOST_ONE variable.
       32       32
       33       33                      Creates ST and ETT entries for args and assigns variables
PL6.E3A0      #001=Z8EI$INIT File=Z8EI.:Z8A6TSI                                  SAT 08/09/97 11:52 Page:10
       34       34                           (COMCOM.ARGS1, COMCOM.ARGS2, COMCOM.ARGS3, COMCOM.ARGS4).
       35       35
       36       36                      Initializes O1COM.AREA_A_COLUMN_START and O1COM.AREA_B_COLUMN_START
       37       37                           to (7, 11) for fixed_format or (1, 5) for free_format.
       38       38
       39       39        DESCRIPTION:  This procedure initializes the items needed for Phase 1.
       40       40                      The segment for .PROC. is created as well as the block item
       41       41                      for .DATA.  Also ARGS1 through ARGS4 are set up and
       42       42                      COMCOM.ALMOST_ONE is initialized.
       43       43        */
       44       44        %EJECT ;
PL6.E3A0      #001=Z8EI$INIT File=Z8EI.:Z8A6TSI                                  SAT 08/09/97 11:52 Page:11
       45       45
       46       46        %SET PHASE = 1;
       47       47        %INCLUDE Z8A_DEFC;
       48      115        %INCLUDE Z9A_FLAGS;
       49      129        %INCLUDE Z8A_SUPP_MAC ;
       50     2529        %INCLUDE Z8A_COMCOM;
       51     3179        %INCLUDE Z8E_STACKS ;
       52     5445        %INCLUDE Z8E_O1COM;
       53     6206
       54     6207
       55     6208    1   DCL Z8AA$PREPARE_SOURCE_INPUT ENTRY ALTRET ;
       56     6209
       57     6210        %EJECT;
PL6.E3A0      #001=Z8EI$INIT File=Z8EI.:Z8A6TSI                                  SAT 08/09/97 11:52 Page:12
       58     6211
       59     6212        /*V*
       60     6213            OPEN_SOURCE_INPUT -- The source file is opened and the current line
       61     6214                                 and column are initialized to zero.
       62     6215        */
       63     6216
       64     6217    1          CALL Z8AA$PREPARE_SOURCE_INPUT ;

   6217  6 000001   000000 631400 7                  EPPR1   0
         6 000002   000000 701000 xent               TSX1    Z8AA$PREPARE_SOURCE_INPUT
         6 000003   000000 011000                    NOP     0

       65     6218    1          COMCOM.CURRENT.LINE = 0;

   6218  6 000004   000133 450000 xsym               STZ     COMCOM+91

       66     6219    1          COMCOM.CURRENT.COLUMN = 0;

   6219  6 000005   000134 450000 xsym               STZ     COMCOM+92

       67     6220    1          COMCOM.MAX_RECEIVING_ITEMS = 0 ;                /*#28761*/

   6220  6 000006   000360 450000 xsym               STZ     COMCOM+240

       68     6221               %IF GCOS ;
       70     6223               %ENDIF ;
       71     6224
       72     6225        /*V*
       73     6226            PROGRAM_ENTRY -- The entry item in the ILL table is created.  This
       74     6227                             statement is created here and the END is created in WRAPUP.
       75     6228                             This is done because error recovery might not call the
       76     6229                             action if it was done semantically.
       77     6230        */
       78     6231
       79     6232               %INIT_ILS_LIST (@POINTER = "ADDR(O1COM.ILS_LIST)");

   6234  6 000007   000007 220003                    LDX0    7,DU
PL6.E3A0      #001=Z8EI$INIT File=Z8EI.:Z8A6TSI                                  SAT 08/09/97 11:52 Page:13
         6 000010   000016 740000 xsym               STX0    O1COM+14

   6235  6 000011   000001 236000 7                  LDQ     1
         6 000012   000017 756000 xsym               STQ     O1COM+15

   6236  6 000013   000020 756000 xsym               STQ     O1COM+16

   6237  6 000014   000025 756000 xsym               STQ     O1COM+21

       80     6240
       81     6241        /*V*
       82     6242            FREE_FORMAT -- If the FORM[AT] option is used then area-A
       83     6243                           starts after column 1, and area-B after 5
       84     6244                           (normally these values are 7 and 11).
       85     6245                           Also Margin-R is column 256 instead of 72.
       86     6246        */
       87     6247
       88     6248    2          IF COMCOM.OB.FORMAT THEN DO ;

   6248  6 000015   000030 234000 xsym               SZN     COMCOM+24
         6 000016   000025 605000 6                  TPL     s:6254

       89     6249    2            O1COM.AREA_A_COLUMN_START = %AREA_A_COLUMN_START - 6 ;

   6249  6 000017   000001 235007                    LDA     1,DL
         6 000020   000122 755000 xsym               STA     O1COM+82

       90     6250    2            O1COM.AREA_B_COLUMN_START = %AREA_B_COLUMN_START - 6 ;

   6250  6 000021   000005 235007                    LDA     5,DL
         6 000022   000121 755000 xsym               STA     O1COM+81

       91     6251    2            O1COM.MARGIN_R = 256 ;

   6251  6 000023   000400 235007                    LDA     256,DL
         6 000024   000123 755000 xsym               STA     O1COM+83

PL6.E3A0      #001=Z8EI$INIT File=Z8EI.:Z8A6TSI                                  SAT 08/09/97 11:52 Page:14
       92     6252    2          END ;

       93     6253
       94     6254    1   END Z8EI$INIT ;

   6254  6 000025   000000 221200 0                  LDX1  ! 0
         6 000026   000001 702211                    TSX2  ! 1,X1
       95     6255        %EOD;

PL6.E3A0      #001=Z8EI$INIT File=Z8EI.:Z8A6TSI                                  SAT 08/09/97 11:52 Page:15
--  Include file information  --

   Z8E_O1COM.:Z8A6TOU  cannot be made into a system file and is referenced.
   Z8A_LEX_SYMB.:Z8A6TOU  cannot be made into a system file and is referenced.
   Z8E_STACKS.:Z8A6TOU  cannot be made into a system file and is referenced.
   Z8A_COMCOM.:Z8A6TOU  cannot be made into a system file and is referenced.
   X8A_COM_MACS.:X8A6TOU  is referenced.
   Z8A_NAMES.:Z8A6TOU  is referenced.
   Z8A_SUPP_MAC.:Z8A6TOU  is referenced.
   Z9A_FLAGS.:Z8A6TOU  is referenced.
   Z8A_DEFC.:Z8A6TOU  cannot be made into a system file and is referenced.
      No diagnostics issued in procedure Z8EI$INIT.
PL6.E3A0      #001=Z8EI$INIT File=Z8EI.:Z8A6TSI                                  SAT 08/09/97 11:52 Page:16

 **** Variables and constants ****

  ****  Section 001 LblCom ITERATION

  ****  Scalars and arrays  ****
OctLoc.c.b A Datatyp(siz) R M Lvl/name                 OctLoc.c.b A Datatyp(siz) R M Lvl/name

     0-0-0/w SBIN              1 ITERATION

  ****  Section 002 LblCom LEX_SYMBOL

  ****  Scalars and arrays  ****
OctLoc.c.b A Datatyp(siz) R M Lvl/name                 OctLoc.c.b A Datatyp(siz) R M Lvl/name

     0-0-0/w STRC(3240)  r     1 LEX_SYMBOL                 0-0-0/w STRC(3240)        1 LEX_SYMBOL_WORDS

  ****  Section 003 LblCom CURRENT_LEX_SYMBOL$

  ****  Scalars and arrays  ****
OctLoc.c.b A Datatyp(siz) R M Lvl/name                 OctLoc.c.b A Datatyp(siz) R M Lvl/name

     0-0-0/w PTR         r     1 CURRENT_LEX_SYMBOL$

  ****  Section 004 LblCom TEMP_LEX_SYMBOL

  ****  Scalars and arrays  ****
OctLoc.c.b A Datatyp(siz) R M Lvl/name                 OctLoc.c.b A Datatyp(siz) R M Lvl/name

     0-0-0/w STRC(3240)        1 TEMP_LEX_SYMBOL

  ****  Section 005 LblCom TEMP_LEX_SYMBOL2

  ****  Scalars and arrays  ****
OctLoc.c.b A Datatyp(siz) R M Lvl/name                 OctLoc.c.b A Datatyp(siz) R M Lvl/name

     0-0-0/w STRC(3240)        1 TEMP_LEX_SYMBOL2

PL6.E3A0      #001=Z8EI$INIT File=Z8EI.:Z8A6TSI                                  SAT 08/09/97 11:52 Page:17
  ****  SYMREF variables  ****

  ****  Scalars and arrays  ****
OctLoc.c.b A Datatyp(siz) R M Lvl/name                 OctLoc.c.b A Datatyp(siz) R M Lvl/name

     0-0-0/d STRC(13248) r     1 COMCOM
     0-0-0/w STRC(180)         1 HIER_STK(0:50)
     0-0-0/w SBIN              1 HIER_STK_PTR               0-0-0/d STRC(11580) r     1 O1COM
     0-0-0/w STRC(144)         1 PAGE_FORMAT                0-0-0/w STRC(153)         1 REP_STK(0:50)
     0-0-0/w SBIN              1 REP_STK_PTR

  ****  BASED and DCB variables  ****

  ****  Scalars and arrays  ****
OctLoc.c.b A Datatyp(siz) R M Lvl/name                 OctLoc.c.b A Datatyp(siz) R M Lvl/name

     0-0-0/w STRC(288)         1 ADD_STMT                   0-0-0/w ASTR(324)   r     1 BASED_LEX_SYMBOL
     0-0-0/w STRC(360)         1 BASED_LEX_SYMBOL_WORDS
     0-0-0/w STRC(288)         1 BINARY_OP                  0-0-0/w STRC(288)         1 CALL_STMT
     0-0-0/w CHAR(4096)        1 CHARS                      0-0-0/w STRC(288)         1 COMPUTE_STMT
     0-0-0/w STRC(72)          1 CONT                       0-0-0/w STRC(288)         1 DEFERED_IDENTIFIER
     0-0-0/w STRC(252)         1 DEFERED_ID_TREE            0-0-0/w STRC(288)         1 DEFERED_QUAL_ID
     0-0-0/w STRC(288)         1 DEFERED_SUM_CLAUSE
     0-0-0/w STRC(288)         1 DEFERED_SUM_CLAUSE_LIST
     0-0-0/w STRC(288)         1 DELETE_STMT                0-0-0/w STRC(288)         1 DIVIDE_STMT
     0-0-0/w STRC(288)   r     1 ILS_LIST                   0-0-0/w STRC(288)         1 INSPECT_1_STMT
     0-0-0/w STRC(288)         1 INSPECT_2_STMT             0-0-0/w STRC(288)         1 INSPECT_4_STMT
     0-0-0/w STRC(288)         1 LA_ITEM                    0-0-0/w STRC(504)         1 LX_CD_INPUT
     0-0-0/w STRC(324)         1 LX_CD_I_O                  0-0-0/w STRC(396)         1 LX_CD_OUTPUT
     0-0-0/w STRC(288)         1 LX_ETT_ITEM                0-0-0/w STRC(288)         1 LX_ITEM
     0-0-0/w STRC(288)         1 LX_LARGE                   0-0-0/w STRC(288)         1 LX_LIST
     0-0-0/w STRC(1224)        1 LX_REC_DECL                0-0-0/w STRC(864)         1 LX_REPORT_REC
     0-0-0/w STRC(288)         1 LX_TERMINAL                0-0-0/w STRC(288)         1 MULTIPLY_STMT
     0-0-0/w STRC(36864)       1 PAGE                       0-0-0/w STRC(288)         1 READ_STMT
     0-0-0/w STRC(288)         1 REWRITE_STMT               0-0-0/w STRC(288)         1 START_STMT
     0-0-0/w STRC(252)         1 STRING_STMT                0-0-0/w STRC(288)         1 SUBTRACT_STMT
     0-0-0/w STRC(288)         1 UNARY_OP                   0-0-0/w STRC(288)         1 UNSTRING_STMT
PL6.E3A0      #001=Z8EI$INIT File=Z8EI.:Z8A6TSI                                  SAT 08/09/97 11:52 Page:18
     0-0-0/w STRC(288)         1 WRITE_STMT


   Procedure Z8EI$INIT requires 23 words for executable code.
   Procedure Z8EI$INIT is declared NOAUTO and requires 2 words of local(STATIC) storage.

PL6.E3A0      #002=Z8EI$INIT_PROGRAM File=Z8EI.:Z8A6TSI                          SAT 08/09/97 11:53 Page:19
       96        1        /*M*  Z8EI$INIT_PROGRAM -- Initialization for Phase 1. */
       97        2        /*T***********************************************************/
       98        3        /*T*                                                         */
       99        4        /*T* Copyright (c) Bull HN Information Systems Inc., 1997    */
      100        5        /*T*                                                         */
      101        6        /*T***********************************************************/
      102        7        Z8EI$INIT_PROGRAM: PROC;
      103        8
      104        9        /*P*
      105       10               NAME:  Z8EI$INIT_PROGRAM
      106       11            PURPOSE:  Initializes everything that needs to be set up for Phase 1.
      107       12                      This involves creating some table entries,
      108       13        */
      109       14
      110       15        /*D*
      111       16               NAME:  Z8EI$INIT_PROGRAM
      112       17               CALL:  CALL Z8EI$INIT_PROGRAM;
      113       18          INTERFACE:
      114       19                      Z8AS$SR_ETT - Creates ETT entries.
      115       20
      116       21             OUTPUT:
      117       22
      118       23                      Creates .PROC. segment and assigns segment variables,
      119       24                           (COMCOM.SEGMENT$(0), COMCOM.SEGMENTC).
      120       25
      121       26                      Creates ESC triad for .DATA. and ST entry, also assigns block
      122       27                           variables (COMCOM.BLOCK$, O1COM.LAST_BLOCK$).
      123       28
      124       29                      Creates ST entry for COMCOM.ALMOST_ONE variable.
      125       30
      126       31                      Creates ST and ETT entries for args and assigns variables
      127       32                           (COMCOM.ARGS1, COMCOM.ARGS2, COMCOM.ARGS3, COMCOM.ARGS4).
      128       33
      129       34                      Initializes O1COM.AREA_A_COLUMN_START and O1COM.AREA_B_COLUMN_START
      130       35                           to (7, 11) for fixed_format or (1, 5) for free_format.
      131       36
      132       37        DESCRIPTION:  This procedure initializes the items needed for Phase 1.
PL6.E3A0      #002=Z8EI$INIT_PROGRAM File=Z8EI.:Z8A6TSI                          SAT 08/09/97 11:53 Page:20
      133       38                      The segment for .PROC. is created as well as the block item
      134       39                      for .DATA.  Also ARGS1 through ARGS4 are set up and
      135       40                      COMCOM.ALMOST_ONE is initialized.
      136       41        */
      137       42        %EJECT ;
PL6.E3A0      #002=Z8EI$INIT_PROGRAM File=Z8EI.:Z8A6TSI                          SAT 08/09/97 11:53 Page:21
      138       43
      139       44        %SET PHASE = 1;
      140       45        %INCLUDE Z8A_DEFC;
      141      113        %INCLUDE Z8A_SUPP_MAC ;
      142     2513        %INCLUDE Z8A_COMCOM;
      143     3163        %INCLUDE Z8A_SRCH;
      144     3212        %INCLUDE Z8A_MKCN;
      145     3229        %INCLUDE Z8A_ETT;
      146     3530        %INCLUDE Z8A_ST;
      147     7189        %INCLUDE Z8A_LTS;
      148     9266        %INCLUDE Z8A_TYPES ;
      149     9440        %INCLUDE Z8A_DNT;
      150     9661        %INCLUDE Z8E_STACKS;
      151    11927        %INCLUDE Z8E_O1COM;
      152    12688
      153    12689
      154    12690    1   DCL Z8AC$MAKE_CONST           ENTRY(1);
      155    12691    1   DCL Z8AT$CREATE_TEMPORARY     ENTRY (2);
      156    12692    1   DCL Z8AF$NEW_BASE             ENTRY (3);
      157    12693    1   DCL Z8AC$MAKE_CONST_Q         ENTRY(1);
      158    12694    1   DCL Z8AF$FORME                ENTRY(4);
      159    12695    1   DCL Z8AH$SEARCH_              ENTRY;
      160    12696
      161    12697    1   DCL ST$$                      PTR;
      162    12698    1   DCL P$                        PTR;
      163    12699    1   DCL BLK$                      PTR;
      164    12700    1   DCL PROC_NAME                 CHAR(40);
      165    12701    1   DCL NAME_LENGTH               SBIN;
      166    12702    1   DCL NULL$                      PTR;
      167    12703    1   DCL NULL_VALUE REDEF NULL$     UBIN WORD;
      168    12704
      169    12705        %EJECT;
PL6.E3A0      #002=Z8EI$INIT_PROGRAM File=Z8EI.:Z8A6TSI                          SAT 08/09/97 11:53 Page:22
      170    12706
      171    12707        /*V*
      172    12708            PROC_SEGMENT -- The segment item for .PROC. is created in the ST and
      173    12709                            a DNT item is created.  COMCOM variables relating to
      174    12710                            the segment item are also initialized.
      175    12711        */
      176    12712
      177    12713    1          NAME_LENGTH = O1COM.PROG_ID_DNT$ -> DNT.TEXT.LENGTH;  /*#30017*/
      178    12714    1          IF NAME_LENGTH > 28  THEN
      179    12715    1            NAME_LENGTH = 28;
      180    12716    1          SUBSTR( PROC_NAME, 0, 1 ) = '.';
      181    12717    1          SUBSTR( PROC_NAME, 1, NAME_LENGTH ) = O1COM.PROG_ID_DNT$ -> DNT.TEXT.NAME;
      182    12718    1          SUBSTR( PROC_NAME, NAME_LENGTH + 1, 1 ) = '.';
      183    12719
      184    12720               %NEW_DNT ( @SIZE = "NAME_LENGTH + 2",
      185    12721                          @NAME = PROC_NAME );
      186    12779
      187    12780               %NEW_SEGMENT (@ST$  = ST$,
      188    12781                             @R = %PROGRAM,
      189    12782                             @COUNT = 0,
      190    12783                             @DNT$ = DNT$);
      191    12845
      192    12846    1          COMCOM.SEGMENT$(0) = ST$;
      193    12847    1          COMCOM.SEGMENTC = 1;
      194    12848
      195    12849        /*V*
      196    12850            DATA_BLOCK -- The block item for .DATA. is created in the ST as well
      197    12851                          as a DNT entry and a TRIAD item above the BLOCK item.
      198    12852                          The COMCOM variables are also set up.
      199    12853        */
      200    12854
      201    12855    1          IF NAME_LENGTH > 24 THEN
      202    12856    1            NAME_LENGTH = 24;
      203    12857    1          SUBSTR( PROC_NAME, 0, 6 ) = '.DATA.';
      204    12858    1          SUBSTR( PROC_NAME, 6, NAME_LENGTH ) = O1COM.PROG_ID_DNT$ -> DNT.TEXT.NAME;
      205    12859    1          SUBSTR( PROC_NAME, NAME_LENGTH + 6, 1 ) = '.';
      206    12860
PL6.E3A0      #002=Z8EI$INIT_PROGRAM File=Z8EI.:Z8A6TSI                          SAT 08/09/97 11:53 Page:23
      207    12861               %NEW_DNT ( @SIZE = "NAME_LENGTH + 7",
      208    12862                          @NAME = PROC_NAME );
      209    12920
      210    12921               %NEW_BLOCK (@ST$    = ST$,
      211    12922                           @R      = %BLOCK_,
      212    12923                           @COUNT = 1,
      213    12924                           @DNT$   = DNT$);
      214    13001    1          COMCOM.BLOCKC = 1;
      215    13002
      216    13003    1          O1COM.LAST_BLOCK$ = ST$;
      217    13004    1          COMCOM.BLOCK$ =  ST$ ;
      218    13005        /*V* Operator_segment_entry -- The operator segment (for the X9OS)
      219    13006                                       entry is created along with the escape
      220    13007                                       triad.  The escape is put in
      221    13008                                       COMCOM.OPERATOR_SEGMENT.
      222    13009        */
      223    13010
      224    13011               %NEW_DNT (@NAME = "'X9OS'",
      225    13012                         @SIZE = 4);
      226    13070
      227    13071               %NEW_SYMREF_ (@ST$     = ST$,
      228    13072                            @R       = %EXT_PROGRAM,
      229    13073                            @DNT$    = DNT$);
      230    13138    1          O1COM.LAST_SYMREF$    = ST$;
      231    13139
      232    13140    1          COMCOM.SYMREF$ = ST$;
      233    13141
      234    13142    1          CALL Z8AF$FORME (%ESC, ST$, 0, COMCOM.OPERATOR_SEGMENT$);
      235    13143
      236    13144        /*V* Create a symref for LIBCOM#COM.  That is the for the option bits
      237    13145             to be set for the library.  A pointer to a base resides in
      238    13146             COMCOM.LIBCOM#COM$
      239    13147        * /
      240    13148
      241    13149             %NEW_DNT (@NAME = "'LIBCOM#COM'",
      242    13150                       @SIZE = 10);
      243    13151
PL6.E3A0      #002=Z8EI$INIT_PROGRAM File=Z8EI.:Z8A6TSI                          SAT 08/09/97 11:53 Page:24
      244    13152             %NEW_BLOCK (@ST$   = BLK$,
      245    13153                         @R     = %BLOCK_,
      246    13154                         @DNT$  = DNT$);
      247    13155
      248    13156             CALL Z8AT$CREATE_TEMPORARY (%SCALAR, ST$$);
      249    13157
      250    13158             ST$$ -> SCALAR.TYPE = %TYA;
      251    13159             ST$$ -> SCALAR.ADSC.N = 4;
      252    13160             ST$$ -> SCALAR.B.CLASS = %CLASS_ALPHANUMERIC;
      253    13161             ST$$ -> SCALAR.COUNT = BLK$ -> BLOCK.COUNT;
      254    13162
      255    13163             CALL Z8AF$NEW_BASE (ST$$, ADDR(NIL), COMCOM.LIBCOM#COM$);
      256    13164         */
      257    13165
      258    13166
      259    13167        /*V*
      260    13168            ALMOST_ONE_ENTRY -- A entry is created in the symbol table for a constant
      261    13169                                item whose value is as close to 1 as possible.
      262    13170                                A TRIAD entry is created above it.
      263    13171        */
      264    13172
      265    13173
      266    13174    1          MKCN.CON    = BITBIN('000777777777'O);
      267    13175    1          MKCN.WORD2  = BITBIN('777777777777'O);
      268    13176    1          CALL Z8AC$MAKE_CONST_Q (COMCOM.ALMOST_ONE);
      269    13177
      270    13178        /*V*
      271    13179            VALUE_1 -- A constant with the value of 1 is created to be used throughout the
      272    13180                       phases.
      273    13181        */
      274    13182
      275    13183    1          LEX_SYMBOL.SIZE = 1;
      276    13184    1          LEX_SYMBOL.SYMBOL = '1';
      277    13185    1          CALL Z8AH$SEARCH_; /* Constants 0 and 1 need to be in DNT buckets */
      278    13186    1          DNT$ -> DNT.B.NUMERIC_LITERAL = TRUE ;
      279    13187    1          DNT_OF_1$ = DNT$;
      280    13188
PL6.E3A0      #002=Z8EI$INIT_PROGRAM File=Z8EI.:Z8A6TSI                          SAT 08/09/97 11:53 Page:25
      281    13189    1          MKCN.CON   = BITBIN('00000000001'O);
      282    13190    1          CALL Z8AC$MAKE_CONST (COMCOM.VALUE_1);
      283    13191
      284    13192    1          COMCOM.VALUE_1 -> ETT.LOP -> CONST.DNT$ = DNT$;
      285    13193    1          DNT$ -> DNT.ST$                      = COMCOM.VALUE_1 -> ETT.LOP;
      286    13194
      287    13195        /*V*
      288    13196            ARGS_ITEMS -- The five ARGS items are created in the ST as well as the
      289    13197                          TRIADs above them.
      290    13198        */
      291    13199
      292    13200    1          LEX_SYMBOL.SIZE = 1;
      293    13201    1          LEX_SYMBOL.SYMBOL = '0';
      294    13202    1          CALL Z8AH$SEARCH_;
      295    13203    1          DNT$ -> DNT.B.NUMERIC_LITERAL = TRUE ;
      296    13204
      297    13205    1          MKCN.CON  = BITBIN('000000000000'O);
      298    13206    1          CALL Z8AC$MAKE_CONST (COMCOM.VALUE_0);
      299    13207
      300    13208    1          COMCOM.VALUE_0 -> ETT.LOP -> CONST.DNT$ = DNT$;
      301    13209    1          DNT$ -> DNT.ST$                      = COMCOM.VALUE_0 -> ETT.LOP;
      302    13210
      303    13211    1          NULL$ = ADDR(NIL);
      304    13212    1          MKCN.CON = NULL_VALUE;
      305    13213    1          CALL Z8AC$MAKE_CONST (COMCOM.NULL_PTR$);
      306    13214
      307    13215               %NEW_CONST (@ST$ = ST$$);
      308    13256
      309    13257    1          ST$$ -> CONST.CONSTI.WORD1 = BITBIN('000001000000'O);
      310    13258
      311    13259               %NEW_ETT (@ID      = %TRIAD,
      312    13260                         @POINTER = COMCOM.ARGS1,
      313    13261                         @LOP     = ST$$,
      314    13262                         @ROP     = "ADDR(NIL)");
      315    13332
      316    13333               %NEW_CONST (@ST$ = ST$$);
      317    13374
PL6.E3A0      #002=Z8EI$INIT_PROGRAM File=Z8EI.:Z8A6TSI                          SAT 08/09/97 11:53 Page:26
      318    13375    1          ST$$ -> CONST.CONSTI.WORD1 = BITBIN('000002000000'O);
      319    13376
      320    13377               %NEW_ETT (@ID      = %TRIAD,
      321    13378                         @POINTER = COMCOM.ARGS2,
      322    13379                         @LOP     = ST$$,
      323    13380                         @ROP     = "ADDR(NIL)");
      324    13450
      325    13451               %NEW_CONST (@ST$ = ST$$);
      326    13492
      327    13493    1          ST$$ -> CONST.CONSTI.WORD1 = BITBIN('000003000000'O);
      328    13494
      329    13495               %NEW_ETT (@ID      = %TRIAD,
      330    13496                         @POINTER = COMCOM.ARGS3,
      331    13497                         @LOP     = ST$$,
      332    13498                         @ROP     = "ADDR(NIL)");
      333    13568
      334    13569               %NEW_CONST (@ST$ = ST$$);
      335    13610
      336    13611    1          ST$$ -> CONST.CONSTI.WORD1 = BITBIN('000004000000'O);
      337    13612
      338    13613               %NEW_ETT (@ID      = %TRIAD,
      339    13614                         @POINTER = COMCOM.ARGS4,
      340    13615                         @LOP     = ST$$,
      341    13616                         @ROP     = "ADDR(NIL)");
      342    13686
      343    13687
      344    13688
      345    13689    1   END Z8EI$INIT_PROGRAM ;

PL6.E3A0      #002=Z8EI$INIT_PROGRAM File=Z8EI.:Z8A6TSI                          SAT 08/09/97 11:53 Page:27
--  Include file information  --

   Z8E_O1COM.:Z8A6TOU  cannot be made into a system file and is referenced.
   Z8A_LEX_SYMB.:Z8A6TOU  cannot be made into a system file and is referenced.
   Z8E_STACKS.:Z8A6TOU  cannot be made into a system file and is referenced.
   Z8A_DNT.:Z8A6TOU  cannot be made into a system file and is referenced.
   Z8A_TYPES.:Z8A6TOU  is referenced.
   Z8A_LTS.:Z8A6TOU  cannot be made into a system file and is referenced.
   Z8A_ST.:Z8A6TOU  cannot be made into a system file and is referenced.
   Z8A_ETT.:Z8A6TOU  cannot be made into a system file and is referenced.
   Z8A_MKCN.:Z8A6TOU  cannot be made into a system file and is referenced.
   Z8A_SRCH.:Z8A6TOU  cannot be made into a system file and is referenced.
   Z8A_COMCOM.:Z8A6TOU  cannot be made into a system file and is referenced.
   X8A_COM_MACS.:X8A6TOU  is referenced.
   Z8A_NAMES.:Z8A6TOU  is referenced.
   Z8A_SUPP_MAC.:Z8A6TOU  is referenced.
   Z8A_DEFC.:Z8A6TOU  cannot be made into a system file and is referenced.
      No diagnostics issued in procedure Z8EI$INIT_PROGRAM.

   Procedure Z8EI$INIT_PROGRAM requires 731 words for executable code.
   Procedure Z8EI$INIT_PROGRAM requires 20 words of local(AUTO) storage.

    No errors detected in file Z8EI.:Z8A6TSI    .

PL6.E3A0      #002=Z8EI$INIT_PROGRAM File=Z8EI.:Z8A6TSI                          SAT 08/09/97 11:53 Page:28

 Object Unit name= Z8EI$INIT_PROGRAM                          File name= Z8EI.:Z8A6TOU
 UTS= AUG 09 '97 11:53:18.80 SAT                              Compiler= PL-6/E31         Sev=      00
 SharedLib= :SHARED_SYSTEM                                    Alt SharedLib=


    ****  Control sections  ****

 Sect   Type Bound  Init  Size OctSiz  Section name(segment info)
    0  LblCom even  none     1      1  ITERATION
    1  LblCom even  none     3      3  SRCH
    2  LblCom even  none     2      2  MKCN
    3  LblCom even  none     1      1  ETT$
    4  LblCom even  none     1      1  HEAD_ETT$
    5  LblCom even  none   512   1000  ETT_BUCKETS
    6  LblCom even  none     5      5  ETT_
    7  LblCom even  none     1      1  ST$
    8  LblCom even  none     5      5  ST_
    9  LblCom even  none     1      1  LTS$
   10  LblCom even  none     5      5  LTS_
   11  LblCom even  none     1      1  DNT$
   12  LblCom even  none     5      5  DNT_
   13  LblCom even  none     1      1  DNT_BUCKET_NUMBER
   14  LblCom even  none     1      1  DNT_OF_1$
   15  LblCom even  none    90    132  LEX_SYMBOL
   16  LblCom even  none     1      1  CURRENT_LEX_SYMBOL$
   17  LblCom even  none    90    132  TEMP_LEX_SYMBOL
   18  LblCom even  none    90    132  TEMP_LEX_SYMBOL2
   19  RoData even  UTS     11     13  Z8EI$INIT_PROGRAM
   20   Proc  even  none   731   1333  Z8EI$INIT_PROGRAM
   21  RoData even  none    19     23  Z8EI$INIT_PROGRAM

    ****  Entry defs  ****

                              Check   Calling
                             calling  sequence
  Sect OctLoc Primary Altret sequence   type   Parms  Name
    20      0   yes            yes      Std        0  Z8EI$INIT_PROGRAM
PL6.E3A0      #002=Z8EI$INIT_PROGRAM File=Z8EI.:Z8A6TSI                          SAT 08/09/97 11:53 Page:29

  ****  Entry refs  ****

         Check        Calling
        calling       sequence
Altret sequence SRef   type   Args  Name
         yes           Std       1 Z8AR$RESERVER
         yes           Std       1 Z8AC$MAKE_CONST_Q
         yes           Std       0 Z8AH$SEARCH_
         yes           Std       4 Z8AF$FORME
         yes           Std       1 Z8AC$MAKE_CONST
                       nStd      0 X66_AUTO_0
                       nStd      0 X66_ARET

  ****  Data refs  ****

  Flags:  r = read only, s = secondary
Flgs Name                             Flgs Name                             Flgs Name
     COMCOM                           r    LTS_STEP                              O1COM
     HIER_STK_PTR                          HIER_STK                              PAGE_FORMAT
     REP_STK_PTR                           REP_STK

  ****  Segment refs  ****

  Flags:  r = read only, s = secondary
Flgs Name                             Flgs Name                             Flgs Name
     NULLSID                               ISSID
PL6.E3A0      #002=Z8EI$INIT_PROGRAM File=Z8EI.:Z8A6TSI                          SAT 08/09/97 11:53 Page:30


       96        1        /*M*  Z8EI$INIT_PROGRAM -- Initialization for Phase 1. */
       97        2        /*T***********************************************************/
       98        3        /*T*                                                         */
       99        4        /*T* Copyright (c) Bull HN Information Systems Inc., 1997    */
      100        5        /*T*                                                         */
      101        6        /*T***********************************************************/
      102        7        Z8EI$INIT_PROGRAM: PROC;

      7 20 000000   000000 700200 xent  Z8EI$INIT_P* TSX0  ! X66_AUTO_0
        20 000001   000024 000000                    ZERO    20,0

      103        8
      104        9        /*P*
      105       10               NAME:  Z8EI$INIT_PROGRAM
      106       11            PURPOSE:  Initializes everything that needs to be set up for Phase 1.
      107       12                      This involves creating some table entries,
      108       13        */
      109       14
      110       15        /*D*
      111       16               NAME:  Z8EI$INIT_PROGRAM
      112       17               CALL:  CALL Z8EI$INIT_PROGRAM;
      113       18          INTERFACE:
      114       19                      Z8AS$SR_ETT - Creates ETT entries.
      115       20
      116       21             OUTPUT:
      117       22
      118       23                      Creates .PROC. segment and assigns segment variables,
      119       24                           (COMCOM.SEGMENT$(0), COMCOM.SEGMENTC).
      120       25
      121       26                      Creates ESC triad for .DATA. and ST entry, also assigns block
      122       27                           variables (COMCOM.BLOCK$, O1COM.LAST_BLOCK$).
      123       28
      124       29                      Creates ST entry for COMCOM.ALMOST_ONE variable.
      125       30
      126       31                      Creates ST and ETT entries for args and assigns variables
      127       32                           (COMCOM.ARGS1, COMCOM.ARGS2, COMCOM.ARGS3, COMCOM.ARGS4).
PL6.E3A0      #002=Z8EI$INIT_PROGRAM File=Z8EI.:Z8A6TSI                          SAT 08/09/97 11:53 Page:31
      128       33
      129       34                      Initializes O1COM.AREA_A_COLUMN_START and O1COM.AREA_B_COLUMN_START
      130       35                           to (7, 11) for fixed_format or (1, 5) for free_format.
      131       36
      132       37        DESCRIPTION:  This procedure initializes the items needed for Phase 1.
      133       38                      The segment for .PROC. is created as well as the block item
      134       39                      for .DATA.  Also ARGS1 through ARGS4 are set up and
      135       40                      COMCOM.ALMOST_ONE is initialized.
      136       41        */
      137       42        %EJECT ;
PL6.E3A0      #002=Z8EI$INIT_PROGRAM File=Z8EI.:Z8A6TSI                          SAT 08/09/97 11:53 Page:32
      138       43
      139       44        %SET PHASE = 1;
      140       45        %INCLUDE Z8A_DEFC;
      141      113        %INCLUDE Z8A_SUPP_MAC ;
      142     2513        %INCLUDE Z8A_COMCOM;
      143     3163        %INCLUDE Z8A_SRCH;
      144     3212        %INCLUDE Z8A_MKCN;
      145     3229        %INCLUDE Z8A_ETT;
      146     3530        %INCLUDE Z8A_ST;
      147     7189        %INCLUDE Z8A_LTS;
      148     9266        %INCLUDE Z8A_TYPES ;
      149     9440        %INCLUDE Z8A_DNT;
      150     9661        %INCLUDE Z8E_STACKS;
      151    11927        %INCLUDE Z8E_O1COM;
      152    12688
      153    12689
      154    12690    1   DCL Z8AC$MAKE_CONST           ENTRY(1);
      155    12691    1   DCL Z8AT$CREATE_TEMPORARY     ENTRY (2);
      156    12692    1   DCL Z8AF$NEW_BASE             ENTRY (3);
      157    12693    1   DCL Z8AC$MAKE_CONST_Q         ENTRY(1);
      158    12694    1   DCL Z8AF$FORME                ENTRY(4);
      159    12695    1   DCL Z8AH$SEARCH_              ENTRY;
      160    12696
      161    12697    1   DCL ST$$                      PTR;
      162    12698    1   DCL P$                        PTR;
      163    12699    1   DCL BLK$                      PTR;
      164    12700    1   DCL PROC_NAME                 CHAR(40);
      165    12701    1   DCL NAME_LENGTH               SBIN;
      166    12702    1   DCL NULL$                      PTR;
      167    12703    1   DCL NULL_VALUE REDEF NULL$     UBIN WORD;
      168    12704
      169    12705        %EJECT;
PL6.E3A0      #002=Z8EI$INIT_PROGRAM File=Z8EI.:Z8A6TSI                          SAT 08/09/97 11:53 Page:33
      170    12706
      171    12707        /*V*
      172    12708            PROC_SEGMENT -- The segment item for .PROC. is created in the ST and
      173    12709                            a DNT item is created.  COMCOM variables relating to
      174    12710                            the segment item are also initialized.
      175    12711        */
      176    12712
      177    12713    1          NAME_LENGTH = O1COM.PROG_ID_DNT$ -> DNT.TEXT.LENGTH;  /*#30017*/

  12713 20 000002   000110 470400 xsym               LDP0    O1COM+72
        20 000003   000004 236100                    LDQ     4,,PR0
        20 000004   000022 772000                    QRL     18
        20 000005   200020 756100                    STQ     NAME_LENGTH,,AUTO

      178    12714    1          IF NAME_LENGTH > 28  THEN

  12714 20 000006   000034 116007                    CMPQ    28,DL
        20 000007   000012 604400 20                 TMOZ    s:12716

      179    12715    1            NAME_LENGTH = 28;

  12715 20 000010   000034 235007                    LDA     28,DL
        20 000011   200020 755100                    STA     NAME_LENGTH,,AUTO

      180    12716    1          SUBSTR( PROC_NAME, 0, 1 ) = '.';

  12716 20 000012   056000 236003                    LDQ     23552,DU
        20 000013   200006 552140                    STBQ    PROC_NAME,'40'O,AUTO

      181    12717    1          SUBSTR( PROC_NAME, 1, NAME_LENGTH ) = O1COM.PROG_ID_DNT$ -> DNT.TEXT.NAME;

  12717 20 000014   000004 220100                    LDX0    4,,PR0
        20 000015   200020 721100                    LXL1    NAME_LENGTH,,AUTO
        20 000016   040140 100540                    MLR     fill='040'O
        20 000017   000004 400010                    ADSC9   4,,PR0                   cn=2,n=*X0
        20 000020   200006 200011                    ADSC9   PROC_NAME,,AUTO          cn=1,n=*X1

PL6.E3A0      #002=Z8EI$INIT_PROGRAM File=Z8EI.:Z8A6TSI                          SAT 08/09/97 11:53 Page:34
      182    12718    1          SUBSTR( PROC_NAME, NAME_LENGTH + 1, 1 ) = '.';

  12718 20 000021   200020 235100                    LDA     NAME_LENGTH,,AUTO
        20 000022   040105 100400                    MLR     fill='040'O
        20 000023   000000 000001 21                 ADSC9   0                        cn=0,n=1
        20 000024   200006 200001                    ADSC9   PROC_NAME,A,AUTO         cn=1,n=1

      183    12719
      184    12720               %NEW_DNT ( @SIZE = "NAME_LENGTH + 2",
      185    12721                          @NAME = PROC_NAME );

  12724 20 000025   200020 236100                    LDQ     NAME_LENGTH,,AUTO
        20 000026   000027 036007                    ADLQ    23,DL
        20 000027   000004 506007                    DIV     4,DL
        20 000030   000000 756000 0                  STQ     ITERATION

  12725 20 000031   000002 036000 12                 ADLQ    DNT_+2
        20 000032   000045 604000 20                 TMI     s:12727
        20 000033   000003 116000 12                 CMPQ    DNT_+3
        20 000034   000045 602000 20                 TNC     s:12727

  12726 20 000035   000002 236000 21                 LDQ     2
        20 000036   200022 756100                    STQ     NULL$+1,,AUTO
        20 000037   200022 631500                    EPPR1   NULL$+1,,AUTO
        20 000040   200023 451500                    STP1    NULL$+2,,AUTO
        20 000041   200023 630500                    EPPR0   NULL$+2,,AUTO
        20 000042   000001 631400 21                 EPPR1   1
        20 000043   000000 701000 xent               TSX1    Z8AR$RESERVER
        20 000044   000000 011000                    NOP     0

  12727 20 000045   000002 236000 12                 LDQ     DNT_+2
        20 000046   000022 736000                    QLS     18
        20 000047   000001 036000 12                 ADLQ    DNT_+1
        20 000050   000000 756000 11                 STQ     DNT$

  12728 20 000051   000002 236000 12                 LDQ     DNT_+2
        20 000052   000000 036000 0                  ADLQ    ITERATION
PL6.E3A0      #002=Z8EI$INIT_PROGRAM File=Z8EI.:Z8A6TSI                          SAT 08/09/97 11:53 Page:35
        20 000053   000002 756000 12                 STQ     DNT_+2

  12729 20 000054   001046 220003                    LDX0    550,DU
        20 000055   000000 470400 11                 LDP0    DNT$
        20 000056   000000 740100                    STX0    0,,PR0

  12730 20 000057   000000 721000 0                  LXL1    ITERATION
        20 000060   000000 470400 11                 LDP0    DNT$
        20 000061   000000 441100                    SXL1    0,,PR0

  12731 20 000062   200020 721100                    LXL1    NAME_LENGTH,,AUTO
        20 000063   000002 622011                    EAX2    2,X1
        20 000064   000000 470400 11                 LDP0    DNT$
        20 000065   000004 742100                    STX2    4,,PR0

  12734 20 000066   000003 236000 21                 LDQ     3
        20 000067   000001 756100                    STQ     1,,PR0

  12735 20 000070   000003 236000 21                 LDQ     3
        20 000071   000002 756100                    STQ     2,,PR0

  12736 20 000072   000000 223003                    LDX3    0,DU
        20 000073   000003 743100                    STX3    3,,PR0

  12737 20 000074   000000 224003                    LDX4    0,DU
        20 000075   000003 444100                    SXL4    3,,PR0

  12738 20 000076   040140 100500                    MLR     fill='040'O
        20 000077   200006 000050                    ADSC9   PROC_NAME,,AUTO          cn=0,n=40
        20 000100   000004 400012                    ADSC9   4,,PR0                   cn=2,n=*X2

      186    12779
      187    12780               %NEW_SEGMENT (@ST$  = ST$,
      188    12781                             @R = %PROGRAM,
      189    12782                             @COUNT = 0,
      190    12783                             @DNT$ = DNT$);

PL6.E3A0      #002=Z8EI$INIT_PROGRAM File=Z8EI.:Z8A6TSI                          SAT 08/09/97 11:53 Page:36
  12787 20 000101   000002 236000 8                  LDQ     ST_+2
        20 000102   000013 036007                    ADLQ    11,DL
        20 000103   000003 116000 8                  CMPQ    ST_+3
        20 000104   000115 604000 20                 TMI     s:12789

  12788 20 000105   000004 236000 21                 LDQ     4
        20 000106   200022 756100                    STQ     NULL$+1,,AUTO
        20 000107   200022 631500                    EPPR1   NULL$+1,,AUTO
        20 000110   200023 451500                    STP1    NULL$+2,,AUTO
        20 000111   200023 630500                    EPPR0   NULL$+2,,AUTO
        20 000112   000001 631400 21                 EPPR1   1
        20 000113   000000 701000 xent               TSX1    Z8AR$RESERVER
        20 000114   000000 011000                    NOP     0

  12789 20 000115   000002 236000 8                  LDQ     ST_+2
        20 000116   000022 736000                    QLS     18
        20 000117   000001 036000 8                  ADLQ    ST_+1
        20 000120   000000 756000 7                  STQ     ST$

  12790 20 000121   000013 236007                    LDQ     11,DL
        20 000122   000002 056000 8                  ASQ     ST_+2

  12793 20 000123   001000 220003                    LDX0    512,DU
        20 000124   000000 470400 7                  LDP0    ST$
        20 000125   000000 740100                    STX0    0,,PR0

  12794 20 000126   000000 470400 7                  LDP0    ST$
        20 000127   001000 236007                    LDQ     512,DL
        20 000130   000000 552110                    STBQ    0,'10'O,PR0

  12795 20 000131   000000 470400 7                  LDP0    ST$
        20 000132   000000 236003                    LDQ     0,DU
        20 000133   000000 552104                    STBQ    0,'04'O,PR0

  12796 20 000134   000000 221003                    LDX1    0,DU
        20 000135   000000 470400 7                  LDP0    ST$
        20 000136   000002 741100                    STX1    2,,PR0
PL6.E3A0      #002=Z8EI$INIT_PROGRAM File=Z8EI.:Z8A6TSI                          SAT 08/09/97 11:53 Page:37

  12797 20 000137   000133 722000 xsym               LXL2    COMCOM+91
        20 000140   000002 442100                    SXL2    2,,PR0

  12798 20 000141   000003 450100                    STZ     3,,PR0

  12799 20 000142   000000 236000 11                 LDQ     DNT$
        20 000143   000006 756100                    STQ     6,,PR0

  12800 20 000144   000003 236000 21                 LDQ     3
        20 000145   000007 756100                    STQ     7,,PR0

  12801 20 000146   000010 756100                    STQ     8,,PR0

  12805 20 000147   000012 756100                    STQ     10,,PR0

  12808 20 000150   000057 236000 xsym               LDQ     O1COM+47
        20 000151   000011 756100                    STQ     9,,PR0

  12809 20 000152   000057 236000 xsym               LDQ     O1COM+47
        20 000153   000003 116000 21                 CMPQ    3
        20 000154   000176 600000 20                 TZE     s:12846

  12813 20 000155   000057 471400 xsym               LDP1    O1COM+47
        20 000156   100001 473500                    LDP3    1,,PR1
        20 000157   300012 236100                    LDQ     10,,PR3
        20 000160   000003 116000 21                 CMPQ    3
        20 000161   000170 601000 20                 TNZ     s:12820

  12815 20 000162   000000 236000 7                  LDQ     ST$
        20 000163   300011 756100                    STQ     9,,PR3

  12816 20 000164   000057 471400 xsym               LDP1    O1COM+47
        20 000165   100001 473500                    LDP3    1,,PR1
        20 000166   300012 756100                    STQ     10,,PR3

  12817 20 000167   000176 710000 20                 TRA     s:12846
PL6.E3A0      #002=Z8EI$INIT_PROGRAM File=Z8EI.:Z8A6TSI                          SAT 08/09/97 11:53 Page:38

  12820 20 000170   300012 474500                    LDP4    10,,PR3
        20 000171   000000 236000 7                  LDQ     ST$
        20 000172   400012 756100                    STQ     10,,PR4

  12821 20 000173   000057 471400 xsym               LDP1    O1COM+47
        20 000174   100001 473500                    LDP3    1,,PR1
        20 000175   300012 756100                    STQ     10,,PR3

      191    12845
      192    12846    1          COMCOM.SEGMENT$(0) = ST$;

  12846 20 000176   000000 236000 7                  LDQ     ST$
        20 000177   000150 756000 xsym               STQ     COMCOM+104

      193    12847    1          COMCOM.SEGMENTC = 1;

  12847 20 000200   000001 235007                    LDA     1,DL
        20 000201   000314 755000 xsym               STA     COMCOM+204

      194    12848
      195    12849        /*V*
      196    12850            DATA_BLOCK -- The block item for .DATA. is created in the ST as well
      197    12851                          as a DNT entry and a TRIAD item above the BLOCK item.
      198    12852                          The COMCOM variables are also set up.
      199    12853        */
      200    12854
      201    12855    1          IF NAME_LENGTH > 24 THEN

  12855 20 000202   200020 235100                    LDA     NAME_LENGTH,,AUTO
        20 000203   000030 115007                    CMPA    24,DL
        20 000204   000207 604400 20                 TMOZ    s:12857

      202    12856    1            NAME_LENGTH = 24;

  12856 20 000205   000030 235007                    LDA     24,DL
        20 000206   200020 755100                    STA     NAME_LENGTH,,AUTO
PL6.E3A0      #002=Z8EI$INIT_PROGRAM File=Z8EI.:Z8A6TSI                          SAT 08/09/97 11:53 Page:39

      203    12857    1          SUBSTR( PROC_NAME, 0, 6 ) = '.DATA.';

  12857 20 000207   040100 100400                    MLR     fill='040'O
        20 000210   000000 000006 19                 ADSC9   0                        cn=0,n=6
        20 000211   200006 000006                    ADSC9   PROC_NAME,,AUTO          cn=0,n=6

      204    12858    1          SUBSTR( PROC_NAME, 6, NAME_LENGTH ) = O1COM.PROG_ID_DNT$ -> DNT.TEXT.NAME;

  12858 20 000212   000110 471400 xsym               LDP1    O1COM+72
        20 000213   100004 222100                    LDX2    4,,PR1
        20 000214   000000 623005                    EAX3    0,AL
        20 000215   040140 100540                    MLR     fill='040'O
        20 000216   100004 400012                    ADSC9   4,,PR1                   cn=2,n=*X2
        20 000217   200007 400013                    ADSC9   PROC_NAME+1,,AUTO        cn=2,n=*X3

      205    12859    1          SUBSTR( PROC_NAME, NAME_LENGTH + 6, 1 ) = '.';

  12859 20 000220   200020 235100                    LDA     NAME_LENGTH,,AUTO
        20 000221   040105 100400                    MLR     fill='040'O
        20 000222   000000 000001 21                 ADSC9   0                        cn=0,n=1
        20 000223   200007 400001                    ADSC9   PROC_NAME+1,A,AUTO       cn=2,n=1

      206    12860
      207    12861               %NEW_DNT ( @SIZE = "NAME_LENGTH + 7",
      208    12862                          @NAME = PROC_NAME );

  12865 20 000224   200020 236100                    LDQ     NAME_LENGTH,,AUTO
        20 000225   000034 036007                    ADLQ    28,DL
        20 000226   000004 506007                    DIV     4,DL
        20 000227   000000 756000 0                  STQ     ITERATION

  12866 20 000230   000002 036000 12                 ADLQ    DNT_+2
        20 000231   000244 604000 20                 TMI     s:12868
        20 000232   000003 116000 12                 CMPQ    DNT_+3
        20 000233   000244 602000 20                 TNC     s:12868

PL6.E3A0      #002=Z8EI$INIT_PROGRAM File=Z8EI.:Z8A6TSI                          SAT 08/09/97 11:53 Page:40
  12867 20 000234   000002 236000 21                 LDQ     2
        20 000235   200022 756100                    STQ     NULL$+1,,AUTO
        20 000236   200022 633500                    EPPR3   NULL$+1,,AUTO
        20 000237   200023 453500                    STP3    NULL$+2,,AUTO
        20 000240   200023 630500                    EPPR0   NULL$+2,,AUTO
        20 000241   000001 631400 21                 EPPR1   1
        20 000242   000000 701000 xent               TSX1    Z8AR$RESERVER
        20 000243   000000 011000                    NOP     0

  12868 20 000244   000002 236000 12                 LDQ     DNT_+2
        20 000245   000022 736000                    QLS     18
        20 000246   000001 036000 12                 ADLQ    DNT_+1
        20 000247   000000 756000 11                 STQ     DNT$

  12869 20 000250   000002 236000 12                 LDQ     DNT_+2
        20 000251   000000 036000 0                  ADLQ    ITERATION
        20 000252   000002 756000 12                 STQ     DNT_+2

  12870 20 000253   001046 220003                    LDX0    550,DU
        20 000254   000000 470400 11                 LDP0    DNT$
        20 000255   000000 740100                    STX0    0,,PR0

  12871 20 000256   000000 721000 0                  LXL1    ITERATION
        20 000257   000000 470400 11                 LDP0    DNT$
        20 000260   000000 441100                    SXL1    0,,PR0

  12872 20 000261   200020 721100                    LXL1    NAME_LENGTH,,AUTO
        20 000262   000007 622011                    EAX2    7,X1
        20 000263   000000 470400 11                 LDP0    DNT$
        20 000264   000004 742100                    STX2    4,,PR0

  12875 20 000265   000003 236000 21                 LDQ     3
        20 000266   000001 756100                    STQ     1,,PR0

  12876 20 000267   000003 236000 21                 LDQ     3
        20 000270   000002 756100                    STQ     2,,PR0

PL6.E3A0      #002=Z8EI$INIT_PROGRAM File=Z8EI.:Z8A6TSI                          SAT 08/09/97 11:53 Page:41
  12877 20 000271   000000 223003                    LDX3    0,DU
        20 000272   000003 743100                    STX3    3,,PR0

  12878 20 000273   000000 224003                    LDX4    0,DU
        20 000274   000003 444100                    SXL4    3,,PR0

  12879 20 000275   040140 100500                    MLR     fill='040'O
        20 000276   200006 000050                    ADSC9   PROC_NAME,,AUTO          cn=0,n=40
        20 000277   000004 400012                    ADSC9   4,,PR0                   cn=2,n=*X2

      209    12920
      210    12921               %NEW_BLOCK (@ST$    = ST$,
      211    12922                           @R      = %BLOCK_,
      212    12923                           @COUNT = 1,
      213    12924                           @DNT$   = DNT$);

  12928 20 000300   000002 236000 8                  LDQ     ST_+2
        20 000301   000013 036007                    ADLQ    11,DL
        20 000302   000003 116000 8                  CMPQ    ST_+3
        20 000303   000314 604000 20                 TMI     s:12930

  12929 20 000304   000004 236000 21                 LDQ     4
        20 000305   200022 756100                    STQ     NULL$+1,,AUTO
        20 000306   200022 631500                    EPPR1   NULL$+1,,AUTO
        20 000307   200023 451500                    STP1    NULL$+2,,AUTO
        20 000310   200023 630500                    EPPR0   NULL$+2,,AUTO
        20 000311   000001 631400 21                 EPPR1   1
        20 000312   000000 701000 xent               TSX1    Z8AR$RESERVER
        20 000313   000000 011000                    NOP     0

  12930 20 000314   000002 236000 8                  LDQ     ST_+2
        20 000315   000022 736000                    QLS     18
        20 000316   000001 036000 8                  ADLQ    ST_+1
        20 000317   000000 756000 7                  STQ     ST$

  12931 20 000320   000013 236007                    LDQ     11,DL
        20 000321   000002 056000 8                  ASQ     ST_+2
PL6.E3A0      #002=Z8EI$INIT_PROGRAM File=Z8EI.:Z8A6TSI                          SAT 08/09/97 11:53 Page:42

  12942 20 000322   000000 470400 7                  LDP0    ST$
        20 000323   000001 236007                    LDQ     1,DL
        20 000324   000000 552104                    STBQ    0,'04'O,PR0

  12944 20 000325   000774 220003                    LDX0    508,DU
        20 000326   000000 470400 7                  LDP0    ST$
        20 000327   000000 740100                    STX0    0,,PR0

  12945 20 000330   000000 470400 7                  LDP0    ST$
        20 000331   003000 236007                    LDQ     1536,DL
        20 000332   000000 552110                    STBQ    0,'10'O,PR0

  12946 20 000333   000000 221003                    LDX1    0,DU
        20 000334   000000 470400 7                  LDP0    ST$
        20 000335   000002 741100                    STX1    2,,PR0

  12947 20 000336   000133 722000 xsym               LXL2    COMCOM+91
        20 000337   000002 442100                    SXL2    2,,PR0

  12948 20 000340   000003 450100                    STZ     3,,PR0

  12949 20 000341   000003 236000 21                 LDQ     3
        20 000342   000004 756100                    STQ     4,,PR0

  12950 20 000343   000000 236000 11                 LDQ     DNT$
        20 000344   000006 756100                    STQ     6,,PR0

  12951 20 000345   000003 236000 21                 LDQ     3
        20 000346   000007 756100                    STQ     7,,PR0

  12961 20 000347   000012 756100                    STQ     10,,PR0

  12964 20 000350   000057 236000 xsym               LDQ     O1COM+47
        20 000351   000011 756100                    STQ     9,,PR0

  12965 20 000352   000057 236000 xsym               LDQ     O1COM+47
PL6.E3A0      #002=Z8EI$INIT_PROGRAM File=Z8EI.:Z8A6TSI                          SAT 08/09/97 11:53 Page:43
        20 000353   000003 116000 21                 CMPQ    3
        20 000354   000376 600000 20                 TZE     s:13001

  12969 20 000355   000057 471400 xsym               LDP1    O1COM+47
        20 000356   100001 473500                    LDP3    1,,PR1
        20 000357   300012 236100                    LDQ     10,,PR3
        20 000360   000003 116000 21                 CMPQ    3
        20 000361   000370 601000 20                 TNZ     s:12976

  12971 20 000362   000000 236000 7                  LDQ     ST$
        20 000363   300011 756100                    STQ     9,,PR3

  12972 20 000364   000057 471400 xsym               LDP1    O1COM+47
        20 000365   100001 473500                    LDP3    1,,PR1
        20 000366   300012 756100                    STQ     10,,PR3

  12973 20 000367   000376 710000 20                 TRA     s:13001

  12976 20 000370   300012 474500                    LDP4    10,,PR3
        20 000371   000000 236000 7                  LDQ     ST$
        20 000372   400012 756100                    STQ     10,,PR4

  12977 20 000373   000057 471400 xsym               LDP1    O1COM+47
        20 000374   100001 473500                    LDP3    1,,PR1
        20 000375   300012 756100                    STQ     10,,PR3

      214    13001    1          COMCOM.BLOCKC = 1;

  13001 20 000376   000001 235007                    LDA     1,DL
        20 000377   000144 755000 xsym               STA     COMCOM+100

      215    13002
      216    13003    1          O1COM.LAST_BLOCK$ = ST$;

  13003 20 000400   000000 236000 7                  LDQ     ST$
        20 000401   000004 756000 xsym               STQ     O1COM+4

PL6.E3A0      #002=Z8EI$INIT_PROGRAM File=Z8EI.:Z8A6TSI                          SAT 08/09/97 11:53 Page:44
      217    13004    1          COMCOM.BLOCK$ =  ST$ ;

  13004 20 000402   000145 756000 xsym               STQ     COMCOM+101

      218    13005        /*V* Operator_segment_entry -- The operator segment (for the X9OS)
      219    13006                                       entry is created along with the escape
      220    13007                                       triad.  The escape is put in
      221    13008                                       COMCOM.OPERATOR_SEGMENT.
      222    13009        */
      223    13010
      224    13011               %NEW_DNT (@NAME = "'X9OS'",
      225    13012                         @SIZE = 4);

  13015 20 000403   000006 235007                    LDA     6,DL
        20 000404   000000 755000 0                  STA     ITERATION

  13016 20 000405   000002 236000 12                 LDQ     DNT_+2
        20 000406   000000 036000 0                  ADLQ    ITERATION
        20 000407   000422 604000 20                 TMI     s:13018
        20 000410   000003 116000 12                 CMPQ    DNT_+3
        20 000411   000422 602000 20                 TNC     s:13018

  13017 20 000412   000002 236000 21                 LDQ     2
        20 000413   200022 756100                    STQ     NULL$+1,,AUTO
        20 000414   200022 631500                    EPPR1   NULL$+1,,AUTO
        20 000415   200023 451500                    STP1    NULL$+2,,AUTO
        20 000416   200023 630500                    EPPR0   NULL$+2,,AUTO
        20 000417   000001 631400 21                 EPPR1   1
        20 000420   000000 701000 xent               TSX1    Z8AR$RESERVER
        20 000421   000000 011000                    NOP     0

  13018 20 000422   000002 236000 12                 LDQ     DNT_+2
        20 000423   000022 736000                    QLS     18
        20 000424   000001 036000 12                 ADLQ    DNT_+1
        20 000425   000000 756000 11                 STQ     DNT$

  13019 20 000426   000002 236000 12                 LDQ     DNT_+2
PL6.E3A0      #002=Z8EI$INIT_PROGRAM File=Z8EI.:Z8A6TSI                          SAT 08/09/97 11:53 Page:45
        20 000427   000000 036000 0                  ADLQ    ITERATION
        20 000430   000002 756000 12                 STQ     DNT_+2

  13020 20 000431   001046 220003                    LDX0    550,DU
        20 000432   000000 470400 11                 LDP0    DNT$
        20 000433   000000 740100                    STX0    0,,PR0

  13021 20 000434   000000 721000 0                  LXL1    ITERATION
        20 000435   000000 470400 11                 LDP0    DNT$
        20 000436   000000 441100                    SXL1    0,,PR0

  13022 20 000437   000004 221003                    LDX1    4,DU
        20 000440   000000 470400 11                 LDP0    DNT$
        20 000441   000004 741100                    STX1    4,,PR0

  13025 20 000442   000003 236000 21                 LDQ     3
        20 000443   000001 756100                    STQ     1,,PR0

  13026 20 000444   000003 236000 21                 LDQ     3
        20 000445   000002 756100                    STQ     2,,PR0

  13027 20 000446   000000 222003                    LDX2    0,DU
        20 000447   000003 742100                    STX2    3,,PR0

  13028 20 000450   000000 223003                    LDX3    0,DU
        20 000451   000003 443100                    SXL3    3,,PR0

  13029 20 000452   040140 100400                    MLR     fill='040'O
        20 000453   000002 000004 19                 ADSC9   2                        cn=0,n=4
        20 000454   000004 400011                    ADSC9   4,,PR0                   cn=2,n=*X1

      226    13070
      227    13071               %NEW_SYMREF_ (@ST$     = ST$,
      228    13072                            @R       = %EXT_PROGRAM,
      229    13073                            @DNT$    = DNT$);

  13077 20 000455   000002 236000 8                  LDQ     ST_+2
PL6.E3A0      #002=Z8EI$INIT_PROGRAM File=Z8EI.:Z8A6TSI                          SAT 08/09/97 11:53 Page:46
        20 000456   000013 036007                    ADLQ    11,DL
        20 000457   000003 116000 8                  CMPQ    ST_+3
        20 000460   000471 604000 20                 TMI     s:13079

  13078 20 000461   000004 236000 21                 LDQ     4
        20 000462   200022 756100                    STQ     NULL$+1,,AUTO
        20 000463   200022 631500                    EPPR1   NULL$+1,,AUTO
        20 000464   200023 451500                    STP1    NULL$+2,,AUTO
        20 000465   200023 630500                    EPPR0   NULL$+2,,AUTO
        20 000466   000001 631400 21                 EPPR1   1
        20 000467   000000 701000 xent               TSX1    Z8AR$RESERVER
        20 000470   000000 011000                    NOP     0

  13079 20 000471   000002 236000 8                  LDQ     ST_+2
        20 000472   000022 736000                    QLS     18
        20 000473   000001 036000 8                  ADLQ    ST_+1
        20 000474   000000 756000 7                  STQ     ST$

  13080 20 000475   000013 236007                    LDQ     11,DL
        20 000476   000002 056000 8                  ASQ     ST_+2

  13083 20 000477   000772 220003                    LDX0    506,DU
        20 000500   000000 470400 7                  LDP0    ST$
        20 000501   000000 740100                    STX0    0,,PR0

  13084 20 000502   000000 470400 7                  LDP0    ST$
        20 000503   002000 236007                    LDQ     1024,DL
        20 000504   000000 552110                    STBQ    0,'10'O,PR0

  13085 20 000505   000000 470400 7                  LDP0    ST$
        20 000506   000000 236003                    LDQ     0,DU
        20 000507   000000 552104                    STBQ    0,'04'O,PR0

  13086 20 000510   000001 235007                    LDA     1,DL
        20 000511   000000 470400 7                  LDP0    ST$
        20 000512   000010 755100                    STA     8,,PR0

PL6.E3A0      #002=Z8EI$INIT_PROGRAM File=Z8EI.:Z8A6TSI                          SAT 08/09/97 11:53 Page:47
  13087 20 000513   000020 221003                    LDX1    16,DU
        20 000514   000002 741100                    STX1    2,,PR0

  13088 20 000515   000133 722000 xsym               LXL2    COMCOM+91
        20 000516   000002 442100                    SXL2    2,,PR0

  13089 20 000517   000003 236000 21                 LDQ     3
        20 000520   000004 756100                    STQ     4,,PR0

  13090 20 000521   000003 450100                    STZ     3,,PR0

  13092 20 000522   000001 236007                    LDQ     1,DL
        20 000523   000003 256100                    ORSQ    3,,PR0

  13094 20 000524   000000 236000 11                 LDQ     DNT$
        20 000525   000006 756100                    STQ     6,,PR0

  13098 20 000526   000003 236000 21                 LDQ     3
        20 000527   000012 756100                    STQ     10,,PR0

  13101 20 000530   000057 236000 xsym               LDQ     O1COM+47
        20 000531   000011 756100                    STQ     9,,PR0

  13102 20 000532   000057 236000 xsym               LDQ     O1COM+47
        20 000533   000003 116000 21                 CMPQ    3
        20 000534   000556 600000 20                 TZE     s:13138

  13106 20 000535   000057 471400 xsym               LDP1    O1COM+47
        20 000536   100001 473500                    LDP3    1,,PR1
        20 000537   300012 236100                    LDQ     10,,PR3
        20 000540   000003 116000 21                 CMPQ    3
        20 000541   000550 601000 20                 TNZ     s:13113

  13108 20 000542   000000 236000 7                  LDQ     ST$
        20 000543   300011 756100                    STQ     9,,PR3

  13109 20 000544   000057 471400 xsym               LDP1    O1COM+47
PL6.E3A0      #002=Z8EI$INIT_PROGRAM File=Z8EI.:Z8A6TSI                          SAT 08/09/97 11:53 Page:48
        20 000545   100001 473500                    LDP3    1,,PR1
        20 000546   300012 756100                    STQ     10,,PR3

  13110 20 000547   000556 710000 20                 TRA     s:13138

  13113 20 000550   300012 474500                    LDP4    10,,PR3
        20 000551   000000 236000 7                  LDQ     ST$
        20 000552   400012 756100                    STQ     10,,PR4

  13114 20 000553   000057 471400 xsym               LDP1    O1COM+47
        20 000554   100001 473500                    LDP3    1,,PR1
        20 000555   300012 756100                    STQ     10,,PR3

      230    13138    1          O1COM.LAST_SYMREF$    = ST$;

  13138 20 000556   000000 236000 7                  LDQ     ST$
        20 000557   000052 756000 xsym               STQ     O1COM+42

      231    13139
      232    13140    1          COMCOM.SYMREF$ = ST$;

  13140 20 000560   000436 756000 xsym               STQ     COMCOM+286

      233    13141
      234    13142    1          CALL Z8AF$FORME (%ESC, ST$, 0, COMCOM.OPERATOR_SEGMENT$);

  13142 20 000561   000010 630400 21                 EPPR0   8
        20 000562   000005 631400 21                 EPPR1   5
        20 000563   000000 701000 xent               TSX1    Z8AF$FORME
        20 000564   000000 011000                    NOP     0

      235    13143
      236    13144        /*V* Create a symref for LIBCOM#COM.  That is the for the option bits
      237    13145             to be set for the library.  A pointer to a base resides in
      238    13146             COMCOM.LIBCOM#COM$
      239    13147        * /
      240    13148
PL6.E3A0      #002=Z8EI$INIT_PROGRAM File=Z8EI.:Z8A6TSI                          SAT 08/09/97 11:53 Page:49
      241    13149             %NEW_DNT (@NAME = "'LIBCOM#COM'",
      242    13150                       @SIZE = 10);
      243    13151
      244    13152             %NEW_BLOCK (@ST$   = BLK$,
      245    13153                         @R     = %BLOCK_,
      246    13154                         @DNT$  = DNT$);
      247    13155
      248    13156             CALL Z8AT$CREATE_TEMPORARY (%SCALAR, ST$$);
      249    13157
      250    13158             ST$$ -> SCALAR.TYPE = %TYA;
      251    13159             ST$$ -> SCALAR.ADSC.N = 4;
      252    13160             ST$$ -> SCALAR.B.CLASS = %CLASS_ALPHANUMERIC;
      253    13161             ST$$ -> SCALAR.COUNT = BLK$ -> BLOCK.COUNT;
      254    13162
      255    13163             CALL Z8AF$NEW_BASE (ST$$, ADDR(NIL), COMCOM.LIBCOM#COM$);
      256    13164         */
      257    13165
      258    13166
      259    13167        /*V*
      260    13168            ALMOST_ONE_ENTRY -- A entry is created in the symbol table for a constant
      261    13169                                item whose value is as close to 1 as possible.
      262    13170                                A TRIAD entry is created above it.
      263    13171        */
      264    13172
      265    13173
      266    13174    1          MKCN.CON    = BITBIN('000777777777'O);

  13174 20 000565   000003 235000 19                 LDA     3
        20 000566   000000 755000 2                  STA     MKCN

      267    13175    1          MKCN.WORD2  = BITBIN('777777777777'O);

  13175 20 000567   000004 236000 19                 LDQ     4
        20 000570   000001 756000 2                  STQ     MKCN+1

      268    13176    1          CALL Z8AC$MAKE_CONST_Q (COMCOM.ALMOST_ONE);

PL6.E3A0      #002=Z8EI$INIT_PROGRAM File=Z8EI.:Z8A6TSI                          SAT 08/09/97 11:53 Page:50
  13176 20 000571   000014 630400 21                 EPPR0   12
        20 000572   000001 631400 21                 EPPR1   1
        20 000573   000000 701000 xent               TSX1    Z8AC$MAKE_CONST_Q
        20 000574   000000 011000                    NOP     0

      269    13177
      270    13178        /*V*
      271    13179            VALUE_1 -- A constant with the value of 1 is created to be used throughout the
      272    13180                       phases.
      273    13181        */
      274    13182
      275    13183    1          LEX_SYMBOL.SIZE = 1;

  13183 20 000575   000001 235007                    LDA     1,DL
        20 000576   000010 755000 15                 STA     LEX_SYMBOL+8

      276    13184    1          LEX_SYMBOL.SYMBOL = '1';

  13184 20 000577   040000 100400                    MLR     fill='040'O
        20 000600   000015 000001 21                 ADSC9   13                       cn=0,n=1
        20 000601   000011 000504 15                 ADSC9   LEX_SYMBOL+9             cn=0,n=324

      277    13185    1          CALL Z8AH$SEARCH_; /* Constants 0 and 1 need to be in DNT buckets */

  13185 20 000602   000007 631400 21                 EPPR1   7
        20 000603   000000 701000 xent               TSX1    Z8AH$SEARCH_
        20 000604   000000 011000                    NOP     0

      278    13186    1          DNT$ -> DNT.B.NUMERIC_LITERAL = TRUE ;

  13186 20 000605   000000 470400 11                 LDP0    DNT$
        20 000606   020000 236003                    LDQ     8192,DU
        20 000607   000003 256100                    ORSQ    3,,PR0

      279    13187    1          DNT_OF_1$ = DNT$;

  13187 20 000610   000000 236000 11                 LDQ     DNT$
PL6.E3A0      #002=Z8EI$INIT_PROGRAM File=Z8EI.:Z8A6TSI                          SAT 08/09/97 11:53 Page:51
        20 000611   000000 756000 14                 STQ     DNT_OF_1$

      280    13188
      281    13189    1          MKCN.CON   = BITBIN('00000000001'O);

  13189 20 000612   000005 236000 19                 LDQ     5
        20 000613   000003 772000                    QRL     3
        20 000614   000000 756000 2                  STQ     MKCN

      282    13190    1          CALL Z8AC$MAKE_CONST (COMCOM.VALUE_1);

  13190 20 000615   000016 630400 21                 EPPR0   14
        20 000616   000001 631400 21                 EPPR1   1
        20 000617   000000 701000 xent               TSX1    Z8AC$MAKE_CONST
        20 000620   000000 011000                    NOP     0

      283    13191
      284    13192    1          COMCOM.VALUE_1 -> ETT.LOP -> CONST.DNT$ = DNT$;

  13192 20 000621   000125 470400 xsym               LDP0    COMCOM+85
        20 000622   000001 471500                    LDP1    1,,PR0
        20 000623   000000 236000 11                 LDQ     DNT$
        20 000624   100006 756100                    STQ     6,,PR1

      285    13193    1          DNT$ -> DNT.ST$                      = COMCOM.VALUE_1 -> ETT.LOP;

  13193 20 000625   000125 470400 xsym               LDP0    COMCOM+85
        20 000626   000001 236100                    LDQ     1,,PR0
        20 000627   000000 471400 11                 LDP1    DNT$
        20 000630   100001 756100                    STQ     1,,PR1

      286    13194
      287    13195        /*V*
      288    13196            ARGS_ITEMS -- The five ARGS items are created in the ST as well as the
      289    13197                          TRIADs above them.
      290    13198        */
      291    13199
PL6.E3A0      #002=Z8EI$INIT_PROGRAM File=Z8EI.:Z8A6TSI                          SAT 08/09/97 11:53 Page:52
      292    13200    1          LEX_SYMBOL.SIZE = 1;

  13200 20 000631   000001 235007                    LDA     1,DL
        20 000632   000010 755000 15                 STA     LEX_SYMBOL+8

      293    13201    1          LEX_SYMBOL.SYMBOL = '0';

  13201 20 000633   040000 100400                    MLR     fill='040'O
        20 000634   000017 000001 21                 ADSC9   15                       cn=0,n=1
        20 000635   000011 000504 15                 ADSC9   LEX_SYMBOL+9             cn=0,n=324

      294    13202    1          CALL Z8AH$SEARCH_;

  13202 20 000636   000007 631400 21                 EPPR1   7
        20 000637   000000 701000 xent               TSX1    Z8AH$SEARCH_
        20 000640   000000 011000                    NOP     0

      295    13203    1          DNT$ -> DNT.B.NUMERIC_LITERAL = TRUE ;

  13203 20 000641   000000 470400 11                 LDP0    DNT$
        20 000642   020000 236003                    LDQ     8192,DU
        20 000643   000003 256100                    ORSQ    3,,PR0

      296    13204
      297    13205    1          MKCN.CON  = BITBIN('000000000000'O);

  13205 20 000644   000006 235000 19                 LDA     6
        20 000645   000000 755000 2                  STA     MKCN

      298    13206    1          CALL Z8AC$MAKE_CONST (COMCOM.VALUE_0);

  13206 20 000646   000020 630400 21                 EPPR0   16
        20 000647   000001 631400 21                 EPPR1   1
        20 000650   000000 701000 xent               TSX1    Z8AC$MAKE_CONST
        20 000651   000000 011000                    NOP     0

      299    13207
PL6.E3A0      #002=Z8EI$INIT_PROGRAM File=Z8EI.:Z8A6TSI                          SAT 08/09/97 11:53 Page:53
      300    13208    1          COMCOM.VALUE_0 -> ETT.LOP -> CONST.DNT$ = DNT$;

  13208 20 000652   000124 470400 xsym               LDP0    COMCOM+84
        20 000653   000001 471500                    LDP1    1,,PR0
        20 000654   000000 236000 11                 LDQ     DNT$
        20 000655   100006 756100                    STQ     6,,PR1

      301    13209    1          DNT$ -> DNT.ST$                      = COMCOM.VALUE_0 -> ETT.LOP;

  13209 20 000656   000124 470400 xsym               LDP0    COMCOM+84
        20 000657   000001 236100                    LDQ     1,,PR0
        20 000660   000000 471400 11                 LDP1    DNT$
        20 000661   100001 756100                    STQ     1,,PR1

      302    13210
      303    13211    1          NULL$ = ADDR(NIL);

  13211 20 000662   000003 236000 21                 LDQ     3
        20 000663   200021 756100                    STQ     NULL$,,AUTO

      304    13212    1          MKCN.CON = NULL_VALUE;

  13212 20 000664   200021 235100                    LDA     NULL$,,AUTO
        20 000665   000000 755000 2                  STA     MKCN

      305    13213    1          CALL Z8AC$MAKE_CONST (COMCOM.NULL_PTR$);

  13213 20 000666   000021 630400 21                 EPPR0   17
        20 000667   000001 631400 21                 EPPR1   1
        20 000670   000000 701000 xent               TSX1    Z8AC$MAKE_CONST
        20 000671   000000 011000                    NOP     0

      306    13214
      307    13215               %NEW_CONST (@ST$ = ST$$);

  13219 20 000672   000002 236000 8                  LDQ     ST_+2
        20 000673   000013 036007                    ADLQ    11,DL
PL6.E3A0      #002=Z8EI$INIT_PROGRAM File=Z8EI.:Z8A6TSI                          SAT 08/09/97 11:53 Page:54
        20 000674   000003 116000 8                  CMPQ    ST_+3
        20 000675   000706 604000 20                 TMI     s:13221

  13220 20 000676   000004 236000 21                 LDQ     4
        20 000677   200022 756100                    STQ     NULL$+1,,AUTO
        20 000700   200022 630500                    EPPR0   NULL$+1,,AUTO
        20 000701   200023 450500                    STP0    NULL$+2,,AUTO
        20 000702   200023 630500                    EPPR0   NULL$+2,,AUTO
        20 000703   000001 631400 21                 EPPR1   1
        20 000704   000000 701000 xent               TSX1    Z8AR$RESERVER
        20 000705   000000 011000                    NOP     0

  13221 20 000706   000002 236000 8                  LDQ     ST_+2
        20 000707   000022 736000                    QLS     18
        20 000710   000001 036000 8                  ADLQ    ST_+1
        20 000711   200003 756100                    STQ     ST$$,,AUTO

  13222 20 000712   000013 236007                    LDQ     11,DL
        20 000713   000002 056000 8                  ASQ     ST_+2

  13225 20 000714   000767 220003                    LDX0    503,DU
        20 000715   200003 470500                    LDP0    ST$$,,AUTO
        20 000716   000000 740100                    STX0    0,,PR0

  13226 20 000717   001000 236007                    LDQ     512,DL
        20 000720   000000 552110                    STBQ    0,'10'O,PR0

  13227 20 000721   000126 236000 xsym               LDQ     O1COM+86
        20 000722   000000 552104                    STBQ    0,'04'O,PR0

  13228 20 000723   000001 221003                    LDX1    1,DU
        20 000724   000002 741100                    STX1    2,,PR0

  13229 20 000725   000003 450100                    STZ     3,,PR0

  13230 20 000726   000003 236000 21                 LDQ     3
        20 000727   000004 756100                    STQ     4,,PR0
PL6.E3A0      #002=Z8EI$INIT_PROGRAM File=Z8EI.:Z8A6TSI                          SAT 08/09/97 11:53 Page:55

  13231 20 000730   000005 756100                    STQ     5,,PR0

  13232 20 000731   000006 756100                    STQ     6,,PR0

      308    13256
      309    13257    1          ST$$ -> CONST.CONSTI.WORD1 = BITBIN('000001000000'O);

  13257 20 000732   000007 235000 19                 LDA     7
        20 000733   000010 755100                    STA     8,,PR0

      310    13258
      311    13259               %NEW_ETT (@ID      = %TRIAD,
      312    13260                         @POINTER = COMCOM.ARGS1,
      313    13261                         @LOP     = ST$$,
      314    13262                         @ROP     = "ADDR(NIL)");

  13266 20 000734   000000 236000 4                  LDQ     HEAD_ETT$
        20 000735   000003 116000 21                 CMPQ    3
        20 000736   000762 601000 20                 TNZ     s:13278

  13268 20 000737   000002 236000 6                  LDQ     ETT_+2
        20 000740   000005 036007                    ADLQ    5,DL
        20 000741   000003 116000 6                  CMPQ    ETT_+3
        20 000742   000753 604000 20                 TMI     s:13270

  13269 20 000743   000022 236000 21                 LDQ     18
        20 000744   200022 756100                    STQ     NULL$+1,,AUTO
        20 000745   200022 631500                    EPPR1   NULL$+1,,AUTO
        20 000746   200023 451500                    STP1    NULL$+2,,AUTO
        20 000747   200023 630500                    EPPR0   NULL$+2,,AUTO
        20 000750   000001 631400 21                 EPPR1   1
        20 000751   000000 701000 xent               TSX1    Z8AR$RESERVER
        20 000752   000000 011000                    NOP     0

  13270 20 000753   000002 236000 6                  LDQ     ETT_+2
        20 000754   000022 736000                    QLS     18
PL6.E3A0      #002=Z8EI$INIT_PROGRAM File=Z8EI.:Z8A6TSI                          SAT 08/09/97 11:53 Page:56
        20 000755   000001 036000 6                  ADLQ    ETT_+1
        20 000756   000004 756000 xsym               STQ     COMCOM+4

  13271 20 000757   000005 236007                    LDQ     5,DL
        20 000760   000002 056000 6                  ASQ     ETT_+2

  13272 20 000761   000766 710000 20                 TRA     s:13288

  13278 20 000762   000004 756000 xsym               STQ     COMCOM+4

  13279 20 000763   000000 471400 4                  LDP1    HEAD_ETT$
        20 000764   100003 236100                    LDQ     3,,PR1
        20 000765   000000 756000 4                  STQ     HEAD_ETT$

  13288 20 000766   000015 220003                    LDX0    13,DU
        20 000767   000004 470400 xsym               LDP0    COMCOM+4
        20 000770   000000 740100                    STX0    0,,PR0

  13311 20 000771   200003 236100                    LDQ     ST$$,,AUTO
        20 000772   000004 470400 xsym               LDP0    COMCOM+4
        20 000773   000001 756100                    STQ     1,,PR0

  13316 20 000774   000003 236000 21                 LDQ     3
        20 000775   000004 470400 xsym               LDP0    COMCOM+4
        20 000776   000003 756100                    STQ     3,,PR0

  13318 20 000777   000003 236000 21                 LDQ     3
        20 001000   000004 470400 xsym               LDP0    COMCOM+4
        20 001001   000002 756100                    STQ     2,,PR0

      315    13332
      316    13333               %NEW_CONST (@ST$ = ST$$);

  13337 20 001002   000002 236000 8                  LDQ     ST_+2
        20 001003   000013 036007                    ADLQ    11,DL
        20 001004   000003 116000 8                  CMPQ    ST_+3
        20 001005   001016 604000 20                 TMI     s:13339
PL6.E3A0      #002=Z8EI$INIT_PROGRAM File=Z8EI.:Z8A6TSI                          SAT 08/09/97 11:53 Page:57

  13338 20 001006   000004 236000 21                 LDQ     4
        20 001007   200022 756100                    STQ     NULL$+1,,AUTO
        20 001010   200022 630500                    EPPR0   NULL$+1,,AUTO
        20 001011   200023 450500                    STP0    NULL$+2,,AUTO
        20 001012   200023 630500                    EPPR0   NULL$+2,,AUTO
        20 001013   000001 631400 21                 EPPR1   1
        20 001014   000000 701000 xent               TSX1    Z8AR$RESERVER
        20 001015   000000 011000                    NOP     0

  13339 20 001016   000002 236000 8                  LDQ     ST_+2
        20 001017   000022 736000                    QLS     18
        20 001020   000001 036000 8                  ADLQ    ST_+1
        20 001021   200003 756100                    STQ     ST$$,,AUTO

  13340 20 001022   000013 236007                    LDQ     11,DL
        20 001023   000002 056000 8                  ASQ     ST_+2

  13343 20 001024   000767 220003                    LDX0    503,DU
        20 001025   200003 470500                    LDP0    ST$$,,AUTO
        20 001026   000000 740100                    STX0    0,,PR0

  13344 20 001027   001000 236007                    LDQ     512,DL
        20 001030   000000 552110                    STBQ    0,'10'O,PR0

  13345 20 001031   000126 236000 xsym               LDQ     O1COM+86
        20 001032   000000 552104                    STBQ    0,'04'O,PR0

  13346 20 001033   000001 221003                    LDX1    1,DU
        20 001034   000002 741100                    STX1    2,,PR0

  13347 20 001035   000003 450100                    STZ     3,,PR0

  13348 20 001036   000003 236000 21                 LDQ     3
        20 001037   000004 756100                    STQ     4,,PR0

  13349 20 001040   000005 756100                    STQ     5,,PR0
PL6.E3A0      #002=Z8EI$INIT_PROGRAM File=Z8EI.:Z8A6TSI                          SAT 08/09/97 11:53 Page:58

  13350 20 001041   000006 756100                    STQ     6,,PR0

      317    13374
      318    13375    1          ST$$ -> CONST.CONSTI.WORD1 = BITBIN('000002000000'O);

  13375 20 001042   000010 235000 19                 LDA     8
        20 001043   000010 755100                    STA     8,,PR0

      319    13376
      320    13377               %NEW_ETT (@ID      = %TRIAD,
      321    13378                         @POINTER = COMCOM.ARGS2,
      322    13379                         @LOP     = ST$$,
      323    13380                         @ROP     = "ADDR(NIL)");

  13384 20 001044   000000 236000 4                  LDQ     HEAD_ETT$
        20 001045   000003 116000 21                 CMPQ    3
        20 001046   001072 601000 20                 TNZ     s:13396

  13386 20 001047   000002 236000 6                  LDQ     ETT_+2
        20 001050   000005 036007                    ADLQ    5,DL
        20 001051   000003 116000 6                  CMPQ    ETT_+3
        20 001052   001063 604000 20                 TMI     s:13388

  13387 20 001053   000022 236000 21                 LDQ     18
        20 001054   200022 756100                    STQ     NULL$+1,,AUTO
        20 001055   200022 631500                    EPPR1   NULL$+1,,AUTO
        20 001056   200023 451500                    STP1    NULL$+2,,AUTO
        20 001057   200023 630500                    EPPR0   NULL$+2,,AUTO
        20 001060   000001 631400 21                 EPPR1   1
        20 001061   000000 701000 xent               TSX1    Z8AR$RESERVER
        20 001062   000000 011000                    NOP     0

  13388 20 001063   000002 236000 6                  LDQ     ETT_+2
        20 001064   000022 736000                    QLS     18
        20 001065   000001 036000 6                  ADLQ    ETT_+1
        20 001066   000005 756000 xsym               STQ     COMCOM+5
PL6.E3A0      #002=Z8EI$INIT_PROGRAM File=Z8EI.:Z8A6TSI                          SAT 08/09/97 11:53 Page:59

  13389 20 001067   000005 236007                    LDQ     5,DL
        20 001070   000002 056000 6                  ASQ     ETT_+2

  13390 20 001071   001076 710000 20                 TRA     s:13406

  13396 20 001072   000005 756000 xsym               STQ     COMCOM+5

  13397 20 001073   000000 471400 4                  LDP1    HEAD_ETT$
        20 001074   100003 236100                    LDQ     3,,PR1
        20 001075   000000 756000 4                  STQ     HEAD_ETT$

  13406 20 001076   000015 220003                    LDX0    13,DU
        20 001077   000005 470400 xsym               LDP0    COMCOM+5
        20 001100   000000 740100                    STX0    0,,PR0

  13429 20 001101   200003 236100                    LDQ     ST$$,,AUTO
        20 001102   000005 470400 xsym               LDP0    COMCOM+5
        20 001103   000001 756100                    STQ     1,,PR0

  13434 20 001104   000003 236000 21                 LDQ     3
        20 001105   000005 470400 xsym               LDP0    COMCOM+5
        20 001106   000003 756100                    STQ     3,,PR0

  13436 20 001107   000003 236000 21                 LDQ     3
        20 001110   000005 470400 xsym               LDP0    COMCOM+5
        20 001111   000002 756100                    STQ     2,,PR0

      324    13450
      325    13451               %NEW_CONST (@ST$ = ST$$);

  13455 20 001112   000002 236000 8                  LDQ     ST_+2
        20 001113   000013 036007                    ADLQ    11,DL
        20 001114   000003 116000 8                  CMPQ    ST_+3
        20 001115   001126 604000 20                 TMI     s:13457

  13456 20 001116   000004 236000 21                 LDQ     4
PL6.E3A0      #002=Z8EI$INIT_PROGRAM File=Z8EI.:Z8A6TSI                          SAT 08/09/97 11:53 Page:60
        20 001117   200022 756100                    STQ     NULL$+1,,AUTO
        20 001120   200022 630500                    EPPR0   NULL$+1,,AUTO
        20 001121   200023 450500                    STP0    NULL$+2,,AUTO
        20 001122   200023 630500                    EPPR0   NULL$+2,,AUTO
        20 001123   000001 631400 21                 EPPR1   1
        20 001124   000000 701000 xent               TSX1    Z8AR$RESERVER
        20 001125   000000 011000                    NOP     0

  13457 20 001126   000002 236000 8                  LDQ     ST_+2
        20 001127   000022 736000                    QLS     18
        20 001130   000001 036000 8                  ADLQ    ST_+1
        20 001131   200003 756100                    STQ     ST$$,,AUTO

  13458 20 001132   000013 236007                    LDQ     11,DL
        20 001133   000002 056000 8                  ASQ     ST_+2

  13461 20 001134   000767 220003                    LDX0    503,DU
        20 001135   200003 470500                    LDP0    ST$$,,AUTO
        20 001136   000000 740100                    STX0    0,,PR0

  13462 20 001137   001000 236007                    LDQ     512,DL
        20 001140   000000 552110                    STBQ    0,'10'O,PR0

  13463 20 001141   000126 236000 xsym               LDQ     O1COM+86
        20 001142   000000 552104                    STBQ    0,'04'O,PR0

  13464 20 001143   000001 221003                    LDX1    1,DU
        20 001144   000002 741100                    STX1    2,,PR0

  13465 20 001145   000003 450100                    STZ     3,,PR0

  13466 20 001146   000003 236000 21                 LDQ     3
        20 001147   000004 756100                    STQ     4,,PR0

  13467 20 001150   000005 756100                    STQ     5,,PR0

  13468 20 001151   000006 756100                    STQ     6,,PR0
PL6.E3A0      #002=Z8EI$INIT_PROGRAM File=Z8EI.:Z8A6TSI                          SAT 08/09/97 11:53 Page:61

      326    13492
      327    13493    1          ST$$ -> CONST.CONSTI.WORD1 = BITBIN('000003000000'O);

  13493 20 001152   000011 235000 19                 LDA     9
        20 001153   000010 755100                    STA     8,,PR0

      328    13494
      329    13495               %NEW_ETT (@ID      = %TRIAD,
      330    13496                         @POINTER = COMCOM.ARGS3,
      331    13497                         @LOP     = ST$$,
      332    13498                         @ROP     = "ADDR(NIL)");

  13502 20 001154   000000 236000 4                  LDQ     HEAD_ETT$
        20 001155   000003 116000 21                 CMPQ    3
        20 001156   001202 601000 20                 TNZ     s:13514

  13504 20 001157   000002 236000 6                  LDQ     ETT_+2
        20 001160   000005 036007                    ADLQ    5,DL
        20 001161   000003 116000 6                  CMPQ    ETT_+3
        20 001162   001173 604000 20                 TMI     s:13506

  13505 20 001163   000022 236000 21                 LDQ     18
        20 001164   200022 756100                    STQ     NULL$+1,,AUTO
        20 001165   200022 631500                    EPPR1   NULL$+1,,AUTO
        20 001166   200023 451500                    STP1    NULL$+2,,AUTO
        20 001167   200023 630500                    EPPR0   NULL$+2,,AUTO
        20 001170   000001 631400 21                 EPPR1   1
        20 001171   000000 701000 xent               TSX1    Z8AR$RESERVER
        20 001172   000000 011000                    NOP     0

  13506 20 001173   000002 236000 6                  LDQ     ETT_+2
        20 001174   000022 736000                    QLS     18
        20 001175   000001 036000 6                  ADLQ    ETT_+1
        20 001176   000006 756000 xsym               STQ     COMCOM+6

  13507 20 001177   000005 236007                    LDQ     5,DL
PL6.E3A0      #002=Z8EI$INIT_PROGRAM File=Z8EI.:Z8A6TSI                          SAT 08/09/97 11:53 Page:62
        20 001200   000002 056000 6                  ASQ     ETT_+2

  13508 20 001201   001206 710000 20                 TRA     s:13524

  13514 20 001202   000006 756000 xsym               STQ     COMCOM+6

  13515 20 001203   000000 471400 4                  LDP1    HEAD_ETT$
        20 001204   100003 236100                    LDQ     3,,PR1
        20 001205   000000 756000 4                  STQ     HEAD_ETT$

  13524 20 001206   000015 220003                    LDX0    13,DU
        20 001207   000006 470400 xsym               LDP0    COMCOM+6
        20 001210   000000 740100                    STX0    0,,PR0

  13547 20 001211   200003 236100                    LDQ     ST$$,,AUTO
        20 001212   000006 470400 xsym               LDP0    COMCOM+6
        20 001213   000001 756100                    STQ     1,,PR0

  13552 20 001214   000003 236000 21                 LDQ     3
        20 001215   000006 470400 xsym               LDP0    COMCOM+6
        20 001216   000003 756100                    STQ     3,,PR0

  13554 20 001217   000003 236000 21                 LDQ     3
        20 001220   000006 470400 xsym               LDP0    COMCOM+6
        20 001221   000002 756100                    STQ     2,,PR0

      333    13568
      334    13569               %NEW_CONST (@ST$ = ST$$);

  13573 20 001222   000002 236000 8                  LDQ     ST_+2
        20 001223   000013 036007                    ADLQ    11,DL
        20 001224   000003 116000 8                  CMPQ    ST_+3
        20 001225   001236 604000 20                 TMI     s:13575

  13574 20 001226   000004 236000 21                 LDQ     4
        20 001227   200022 756100                    STQ     NULL$+1,,AUTO
        20 001230   200022 630500                    EPPR0   NULL$+1,,AUTO
PL6.E3A0      #002=Z8EI$INIT_PROGRAM File=Z8EI.:Z8A6TSI                          SAT 08/09/97 11:53 Page:63
        20 001231   200023 450500                    STP0    NULL$+2,,AUTO
        20 001232   200023 630500                    EPPR0   NULL$+2,,AUTO
        20 001233   000001 631400 21                 EPPR1   1
        20 001234   000000 701000 xent               TSX1    Z8AR$RESERVER
        20 001235   000000 011000                    NOP     0

  13575 20 001236   000002 236000 8                  LDQ     ST_+2
        20 001237   000022 736000                    QLS     18
        20 001240   000001 036000 8                  ADLQ    ST_+1
        20 001241   200003 756100                    STQ     ST$$,,AUTO

  13576 20 001242   000013 236007                    LDQ     11,DL
        20 001243   000002 056000 8                  ASQ     ST_+2

  13579 20 001244   000767 220003                    LDX0    503,DU
        20 001245   200003 470500                    LDP0    ST$$,,AUTO
        20 001246   000000 740100                    STX0    0,,PR0

  13580 20 001247   001000 236007                    LDQ     512,DL
        20 001250   000000 552110                    STBQ    0,'10'O,PR0

  13581 20 001251   000126 236000 xsym               LDQ     O1COM+86
        20 001252   000000 552104                    STBQ    0,'04'O,PR0

  13582 20 001253   000001 221003                    LDX1    1,DU
        20 001254   000002 741100                    STX1    2,,PR0

  13583 20 001255   000003 450100                    STZ     3,,PR0

  13584 20 001256   000003 236000 21                 LDQ     3
        20 001257   000004 756100                    STQ     4,,PR0

  13585 20 001260   000005 756100                    STQ     5,,PR0

  13586 20 001261   000006 756100                    STQ     6,,PR0

      335    13610
PL6.E3A0      #002=Z8EI$INIT_PROGRAM File=Z8EI.:Z8A6TSI                          SAT 08/09/97 11:53 Page:64
      336    13611    1          ST$$ -> CONST.CONSTI.WORD1 = BITBIN('000004000000'O);

  13611 20 001262   000012 235000 19                 LDA     10
        20 001263   000010 755100                    STA     8,,PR0

      337    13612
      338    13613               %NEW_ETT (@ID      = %TRIAD,
      339    13614                         @POINTER = COMCOM.ARGS4,
      340    13615                         @LOP     = ST$$,
      341    13616                         @ROP     = "ADDR(NIL)");

  13620 20 001264   000000 236000 4                  LDQ     HEAD_ETT$
        20 001265   000003 116000 21                 CMPQ    3
        20 001266   001312 601000 20                 TNZ     s:13632

  13622 20 001267   000002 236000 6                  LDQ     ETT_+2
        20 001270   000005 036007                    ADLQ    5,DL
        20 001271   000003 116000 6                  CMPQ    ETT_+3
        20 001272   001303 604000 20                 TMI     s:13624

  13623 20 001273   000022 236000 21                 LDQ     18
        20 001274   200022 756100                    STQ     NULL$+1,,AUTO
        20 001275   200022 631500                    EPPR1   NULL$+1,,AUTO
        20 001276   200023 451500                    STP1    NULL$+2,,AUTO
        20 001277   200023 630500                    EPPR0   NULL$+2,,AUTO
        20 001300   000001 631400 21                 EPPR1   1
        20 001301   000000 701000 xent               TSX1    Z8AR$RESERVER
        20 001302   000000 011000                    NOP     0

  13624 20 001303   000002 236000 6                  LDQ     ETT_+2
        20 001304   000022 736000                    QLS     18
        20 001305   000001 036000 6                  ADLQ    ETT_+1
        20 001306   000135 756000 xsym               STQ     COMCOM+93

  13625 20 001307   000005 236007                    LDQ     5,DL
        20 001310   000002 056000 6                  ASQ     ETT_+2

PL6.E3A0      #002=Z8EI$INIT_PROGRAM File=Z8EI.:Z8A6TSI                          SAT 08/09/97 11:53 Page:65
  13626 20 001311   001316 710000 20                 TRA     s:13642

  13632 20 001312   000135 756000 xsym               STQ     COMCOM+93

  13633 20 001313   000000 471400 4                  LDP1    HEAD_ETT$
        20 001314   100003 236100                    LDQ     3,,PR1
        20 001315   000000 756000 4                  STQ     HEAD_ETT$

  13642 20 001316   000015 220003                    LDX0    13,DU
        20 001317   000135 470400 xsym               LDP0    COMCOM+93
        20 001320   000000 740100                    STX0    0,,PR0

  13665 20 001321   200003 236100                    LDQ     ST$$,,AUTO
        20 001322   000135 470400 xsym               LDP0    COMCOM+93
        20 001323   000001 756100                    STQ     1,,PR0

  13670 20 001324   000003 236000 21                 LDQ     3
        20 001325   000135 470400 xsym               LDP0    COMCOM+93
        20 001326   000003 756100                    STQ     3,,PR0

  13672 20 001327   000003 236000 21                 LDQ     3
        20 001330   000135 470400 xsym               LDP0    COMCOM+93
        20 001331   000002 756100                    STQ     2,,PR0

      342    13686
      343    13687
      344    13688
      345    13689    1   END Z8EI$INIT_PROGRAM ;

  13689 20 001332   000000 702200 xent               TSX2  ! X66_ARET

PL6.E3A0      #002=Z8EI$INIT_PROGRAM File=Z8EI.:Z8A6TSI                          SAT 08/09/97 11:53 Page:66
--  Include file information  --

   Z8E_O1COM.:Z8A6TOU  cannot be made into a system file and is referenced.
   Z8A_LEX_SYMB.:Z8A6TOU  cannot be made into a system file and is referenced.
   Z8E_STACKS.:Z8A6TOU  cannot be made into a system file and is referenced.
   Z8A_DNT.:Z8A6TOU  cannot be made into a system file and is referenced.
   Z8A_TYPES.:Z8A6TOU  is referenced.
   Z8A_LTS.:Z8A6TOU  cannot be made into a system file and is referenced.
   Z8A_ST.:Z8A6TOU  cannot be made into a system file and is referenced.
   Z8A_ETT.:Z8A6TOU  cannot be made into a system file and is referenced.
   Z8A_MKCN.:Z8A6TOU  cannot be made into a system file and is referenced.
   Z8A_SRCH.:Z8A6TOU  cannot be made into a system file and is referenced.
   Z8A_COMCOM.:Z8A6TOU  cannot be made into a system file and is referenced.
   X8A_COM_MACS.:X8A6TOU  is referenced.
   Z8A_NAMES.:Z8A6TOU  is referenced.
   Z8A_SUPP_MAC.:Z8A6TOU  is referenced.
   Z8A_DEFC.:Z8A6TOU  cannot be made into a system file and is referenced.
      No diagnostics issued in procedure Z8EI$INIT_PROGRAM.
PL6.E3A0      #002=Z8EI$INIT_PROGRAM File=Z8EI.:Z8A6TSI                          SAT 08/09/97 11:53 Page:67

 **** Variables and constants ****

  ****  Section 000 LblCom ITERATION

  ****  Scalars and arrays  ****
OctLoc.c.b A Datatyp(siz) R M Lvl/name                 OctLoc.c.b A Datatyp(siz) R M Lvl/name

     0-0-0/w SBIN        r     1 ITERATION

  ****  Section 001 LblCom SRCH

  ****  Scalars and arrays  ****
OctLoc.c.b A Datatyp(siz) R M Lvl/name                 OctLoc.c.b A Datatyp(siz) R M Lvl/name

     0-0-0/w STRC(108)         1 SRCH

  ****  Section 002 LblCom MKCN

  ****  Scalars and arrays  ****
OctLoc.c.b A Datatyp(siz) R M Lvl/name                 OctLoc.c.b A Datatyp(siz) R M Lvl/name

     0-0-0/w STRC(72)    r     1 MKCN

  ****  Section 003 LblCom ETT$

  ****  Scalars and arrays  ****
OctLoc.c.b A Datatyp(siz) R M Lvl/name                 OctLoc.c.b A Datatyp(siz) R M Lvl/name

     0-0-0/w PTR         r     1 ETT$

  ****  Section 004 LblCom HEAD_ETT$

  ****  Scalars and arrays  ****
OctLoc.c.b A Datatyp(siz) R M Lvl/name                 OctLoc.c.b A Datatyp(siz) R M Lvl/name

     0-0-0/w PTR         r     1 HEAD_ETT$

PL6.E3A0      #002=Z8EI$INIT_PROGRAM File=Z8EI.:Z8A6TSI                          SAT 08/09/97 11:53 Page:68
  ****  Section 005 LblCom ETT_BUCKETS

  ****  Scalars and arrays  ****
OctLoc.c.b A Datatyp(siz) R M Lvl/name                 OctLoc.c.b A Datatyp(siz) R M Lvl/name

     0-0-0/w PTR               1 ETT_BUCKETS(0:511)

  ****  Section 006 LblCom ETT_

  ****  Scalars and arrays  ****
OctLoc.c.b A Datatyp(siz) R M Lvl/name                 OctLoc.c.b A Datatyp(siz) R M Lvl/name

     0-0-0/w STRC(180)   r     1 ETT_

  ****  Section 007 LblCom ST$

  ****  Scalars and arrays  ****
OctLoc.c.b A Datatyp(siz) R M Lvl/name                 OctLoc.c.b A Datatyp(siz) R M Lvl/name

     0-0-0/w PTR         r     1 ST$

  ****  Section 008 LblCom ST_

  ****  Scalars and arrays  ****
OctLoc.c.b A Datatyp(siz) R M Lvl/name                 OctLoc.c.b A Datatyp(siz) R M Lvl/name

     0-0-0/w STRC(180)   r     1 ST_

  ****  Section 009 LblCom LTS$

  ****  Scalars and arrays  ****
OctLoc.c.b A Datatyp(siz) R M Lvl/name                 OctLoc.c.b A Datatyp(siz) R M Lvl/name

     0-0-0/w PTR               1 LONG_ITEM$                 0-0-0/w PTR         r     1 LTS$

  ****  Section 010 LblCom LTS_

PL6.E3A0      #002=Z8EI$INIT_PROGRAM File=Z8EI.:Z8A6TSI                          SAT 08/09/97 11:53 Page:69
  ****  Scalars and arrays  ****
OctLoc.c.b A Datatyp(siz) R M Lvl/name                 OctLoc.c.b A Datatyp(siz) R M Lvl/name

     0-0-0/w STRC(180)         1 LTS_

  ****  Section 011 LblCom DNT$

  ****  Scalars and arrays  ****
OctLoc.c.b A Datatyp(siz) R M Lvl/name                 OctLoc.c.b A Datatyp(siz) R M Lvl/name

     0-0-0/w PTR         r     1 DNT$

  ****  Section 012 LblCom DNT_

  ****  Scalars and arrays  ****
OctLoc.c.b A Datatyp(siz) R M Lvl/name                 OctLoc.c.b A Datatyp(siz) R M Lvl/name

     0-0-0/w STRC(180)   r     1 DNT_

  ****  Section 013 LblCom DNT_BUCKET_NUMBER

  ****  Scalars and arrays  ****
OctLoc.c.b A Datatyp(siz) R M Lvl/name                 OctLoc.c.b A Datatyp(siz) R M Lvl/name

     0-0-0/w UBIN              1 DNT_BUCKET_NUMBER

  ****  Section 014 LblCom DNT_OF_1$

  ****  Scalars and arrays  ****
OctLoc.c.b A Datatyp(siz) R M Lvl/name                 OctLoc.c.b A Datatyp(siz) R M Lvl/name

     0-0-0/w PTR         r     1 DNT_OF_1$

  ****  Section 015 LblCom LEX_SYMBOL

  ****  Scalars and arrays  ****
OctLoc.c.b A Datatyp(siz) R M Lvl/name                 OctLoc.c.b A Datatyp(siz) R M Lvl/name
PL6.E3A0      #002=Z8EI$INIT_PROGRAM File=Z8EI.:Z8A6TSI                          SAT 08/09/97 11:53 Page:70

     0-0-0/w STRC(3240)  r     1 LEX_SYMBOL                 0-0-0/w STRC(3240)        1 LEX_SYMBOL_WORDS

  ****  Section 016 LblCom CURRENT_LEX_SYMBOL$

  ****  Scalars and arrays  ****
OctLoc.c.b A Datatyp(siz) R M Lvl/name                 OctLoc.c.b A Datatyp(siz) R M Lvl/name

     0-0-0/w PTR         r     1 CURRENT_LEX_SYMBOL$

  ****  Section 017 LblCom TEMP_LEX_SYMBOL

  ****  Scalars and arrays  ****
OctLoc.c.b A Datatyp(siz) R M Lvl/name                 OctLoc.c.b A Datatyp(siz) R M Lvl/name

     0-0-0/w STRC(3240)        1 TEMP_LEX_SYMBOL

  ****  Section 018 LblCom TEMP_LEX_SYMBOL2

  ****  Scalars and arrays  ****
OctLoc.c.b A Datatyp(siz) R M Lvl/name                 OctLoc.c.b A Datatyp(siz) R M Lvl/name

     0-0-0/w STRC(3240)        1 TEMP_LEX_SYMBOL2

  ****  Auto variables  ****

  ****  Scalars and arrays  ****
OctLoc.c.b A Datatyp(siz) R M Lvl/name                 OctLoc.c.b A Datatyp(siz) R M Lvl/name

     5-0-0/w PTR               1 BLK$                      20-0-0/w SBIN        r     1 NAME_LENGTH
    21-0-0/w PTR         r     1 NULL$                     21-0-0/w UBIN        r     1 NULL_VALUE
     4-0-0/w PTR               1 P$                         6-0-0/c CHAR(40)    r     1 PROC_NAME
     3-0-0/w PTR         r     1 ST$$

  ****  SYMREF variables  ****

  ****  Scalars and arrays  ****
PL6.E3A0      #002=Z8EI$INIT_PROGRAM File=Z8EI.:Z8A6TSI                          SAT 08/09/97 11:53 Page:71
OctLoc.c.b A Datatyp(siz) R M Lvl/name                 OctLoc.c.b A Datatyp(siz) R M Lvl/name

     0-0-0/d STRC(13248) r     1 COMCOM
     0-0-0/w STRC(180)         1 HIER_STK(0:50)
     0-0-0/w SBIN              1 HIER_STK_PTR
     0-0-0/w UBIN              1 LTS_STEP(0:37)
     0-0-0/d STRC(11580) r     1 O1COM                      0-0-0/w STRC(144)         1 PAGE_FORMAT
     0-0-0/w STRC(153)         1 REP_STK(0:50)              0-0-0/w SBIN              1 REP_STK_PTR

  ****  BASED and DCB variables  ****

  ****  Scalars and arrays  ****
OctLoc.c.b A Datatyp(siz) R M Lvl/name                 OctLoc.c.b A Datatyp(siz) R M Lvl/name

     0-0-0/w STRC(288)         1 ADD_STMT                   0-0-0/w STRC(396)         1 ALPHABET
     0-0-0/w STRC(144)         1 ALTER_LTS                  0-0-0/w STRC(3672)        1 ALT_KEY
     0-0-0/w STRC(36864)       1 ARGLIST                    0-0-0/w STRC(396)         1 ARRAY
     0-0-0/w STRC(180)         1 ARRAY_PRESET_LTS           0-0-0/w ASTR(324)   r     1 BASED_LEX_SYMBOL
     0-0-0/w STRC(360)         1 BASED_LEX_SYMBOL_WORDS
     0-0-0/w STRC(288)         1 BASE_LTS                   0-0-0/w STRC(288)         1 BINARY_OP
     0-0-0/w STRC(396)   r     1 BLOCK                      0-0-0/w STRC(144)         1 BT
     0-0-0/w STRC(288)         1 CALL_STMT                  0-0-0/w STRC(396)         1 CD
     0-0-0/w STRC(288)         1 CD_LTS                     0-0-0/w CHAR(4096)        1 CHARS
     0-0-0/w STRC(396)         1 CLASS                      0-0-0/w STRC(288)         1 COMPUTE_STMT
     0-0-0/w STRC(396)         1 CONDITION                  0-0-0/w STRC(396)   r     1 CONST
     0-0-0/w STRC(72)          1 CONT                       0-0-0/w STRC(540)         1 CONTROL_NAME_LTS
     0-0-0/w STRC(1872)        1 COPY_FILE                  0-0-0/w STRC(396)         1 DB
     0-0-0/w STRC(396)         1 DCB_                       0-0-0/w STRC(288)         1 DEFERED_IDENTIFIER
     0-0-0/w STRC(252)         1 DEFERED_ID_TREE            0-0-0/w STRC(288)         1 DEFERED_QUAL_ID
     0-0-0/w STRC(288)         1 DEFERED_SUM_CLAUSE
     0-0-0/w STRC(288)         1 DEFERED_SUM_CLAUSE_LIST
     0-0-0/w STRC(288)         1 DELETE_STMT                0-0-0/w STRC(108)         1 DEPENDING_SIZE
     0-0-0/w STRC(5472)        1 DIMS                       0-0-0/w STRC(288)         1 DIVIDE_STMT
     0-0-0/w STRC(396)         1 DML_ITEM                   0-0-0/w STRC(216)         1 DML_REC
     0-0-0/w ASTR(180)   r     1 DNT                        0-0-0/w STRC(180)   r     1 ETT
     0-0-0/w STRC(73836)       1 EVALUATE                   0-0-0/w STRC(396)         1 FD
     0-0-0/w STRC(1692)        1 FILE_LTS                   0-0-0/w STRC(288)         1 ILS_LIST
PL6.E3A0      #002=Z8EI$INIT_PROGRAM File=Z8EI.:Z8A6TSI                          SAT 08/09/97 11:53 Page:72
     0-0-0/w STRC(108)         1 INDEXES                    0-0-0/w STRC(360)         1 INIT_LTS
     0-0-0/w STRC(288)         1 INSPECT_1_STMT             0-0-0/w STRC(288)         1 INSPECT_2_STMT
     0-0-0/w STRC(288)         1 INSPECT_4_STMT             0-0-0/w STRC(396)         1 INTDEF
     0-0-0/w STRC(180)         1 IO_RESTORE_CHAIN           0-0-0/w STRC(144)         1 KEY
     0-0-0/w STRC(396)         1 LABEL                      0-0-0/w STRC(288)         1 LA_ITEM
     0-0-0/w STRC(36864)       1 LCNST                      0-0-0/w STRC(72)          1 LONG
     0-0-0/w STRC              1 LTS                        0-0-0/w STRC(360)         1 LTSS
     0-0-0/w STRC(36936)       1 LTS_PTR_ARRAY              0-0-0/w STRC(504)         1 LX_CD_INPUT
     0-0-0/w STRC(324)         1 LX_CD_I_O                  0-0-0/w STRC(396)         1 LX_CD_OUTPUT
     0-0-0/w STRC(288)         1 LX_ETT_ITEM                0-0-0/w STRC(288)         1 LX_ITEM
     0-0-0/w STRC(288)         1 LX_LARGE                   0-0-0/w STRC(288)         1 LX_LIST
     0-0-0/w STRC(1224)        1 LX_REC_DECL                0-0-0/w STRC(864)         1 LX_REPORT_REC
     0-0-0/w STRC(288)         1 LX_TERMINAL                0-0-0/w STRC(396)         1 MNEMONIC
     0-0-0/w STRC(288)         1 MULTIPLY_STMT              0-0-0/w STRC(144)         1 NEL
     0-0-0/w STRC(216)         1 OPEN_LTS                   0-0-0/w STRC(36864)       1 PAGE
     0-0-0/w STRC(396)         1 PARA                       0-0-0/w STRC(144)         1 PRIME
     0-0-0/w STRC(396)   r     1 PROC_                      0-0-0/w STRC(396)         1 PROC_DEF
     0-0-0/w STRC(900)   r     1 PROC_SUPP                  0-0-0/w STRC(396)         1 RD
     0-0-0/w STRC(288)         1 READ_STMT                  0-0-0/w STRC(216)         1 REF
     0-0-0/w STRC(108)         1 RENAMES                    0-0-0/w STRC(720)         1 REPORT_01_LTS
     0-0-0/w STRC(432)         1 REPORT_ELEM_LTS            0-0-0/w STRC(252)         1 REPORT_GRP_LTS
     0-0-0/w STRC(1332)        1 REPORT_LTS                 0-0-0/w STRC(288)         1 REWRITE_STMT
     0-0-0/w STRC(144)         1 RVA_LTS                    0-0-0/w STRC(396)         1 SCALAR
     0-0-0/w STRC(396)         1 SD                         0-0-0/w STRC(396)         1 SECTION
     0-0-0/w STRC(396)   r     1 SEGMENT                    0-0-0/w STRC(360)         1 SEGMENT_LTS
     0-0-0/w STRC(396)   r     1 ST                         0-0-0/w STRC(288)         1 START_STMT
     0-0-0/w STRC(252)         1 STRING_STMT                0-0-0/w STRC(288)         1 SUBTRACT_STMT
     0-0-0/w STRC(252)         1 SUM_LTS                    0-0-0/w STRC(396)         1 SWITCH
     0-0-0/w STRC(396)         1 SYMBOLIC_CHAR              0-0-0/w STRC(396)         1 SYMDEF_
     0-0-0/w STRC(396)   r     1 SYMREF_                    0-0-0/w STRC(396)         1 TEMP
     0-0-0/w STRC(288)         1 UNARY_OP                   0-0-0/w STRC(288)         1 UNSTRING_STMT
     0-0-0/d STRC(612)         1 USE                        0-0-0/w STRC(252)         1 USE_SUPP
     0-0-0/w STRC(396)         1 VARIABLE                   0-0-0/w STRC(288)         1 WRITE_STMT


   Procedure Z8EI$INIT_PROGRAM requires 731 words for executable code.
PL6.E3A0      #002=Z8EI$INIT_PROGRAM File=Z8EI.:Z8A6TSI                          SAT 08/09/97 11:53 Page:73
   Procedure Z8EI$INIT_PROGRAM requires 20 words of local(AUTO) storage.

    No errors detected in file Z8EI.:Z8A6TSI    .
