PL6.E3A0      #002=Z8EK$BRANCH_TRUE File=Z8EK.:Z8A6TSI                           SAT 08/09/97 12:03 Page:363
     2338        1        /*T***********************************************************/
     2339        2        /*T*                                                         */
     2340        3        /*T* Copyright (c) Bull HN Information Systems Inc., 1997    */
     2341        4        /*T*                                                         */
     2342        5        /*T***********************************************************/
     2343        6        Z8EK$BRANCH_TRUE: PROC (LABEL$, NODE$);
     2344        7
     2345        8    1        DCL LABEL$  PTR;
     2346        9    1        DCL NODE$   PTR;
     2347       10
     2348       11             %EQU PHASE = 1;
     2349       12             %INCLUDE Z8A_DEFC;
     2350       80             %INCLUDE Z8A_SUPP_MAC;
     2351     2480             %INCLUDE Z8A_ILL;
     2352     3173             %INCLUDE Z8A_ST;
     2353     6832             %INCLUDE Z8E_STACKS;
     2354     9098             %INCLUDE Z8E_O1COM;
     2355     9859             %INCLUDE Z8E_MACROS;
     2356    10534
     2357    10535    1        DCL TEMP_LABEL$      PTR;
     2358    10536    1        DCL Z8AT$CREATE_TEMPORARY ENTRY(2);
     2359    10537    1        DCL Z8EK$NODE_TRUE ENTRY(2);
     2360    10538    1        DCL Z8EK$NODE_FALSE ENTRY(2);
     2361    10539
     2362    10540    2        DO CASE(NODE$ -> LX_ITEM.ID);
     2363    10541    2          CASE(%UNARY_OP);
     2364    10542    2            IF NODE$ -> UNARY_OP.OP = %OP_NOT
     2365    10543    2              THEN CALL Z8EK$BRANCH_FALSE (LABEL$, NODE$ -> UNARY_OP.LOP$);
     2366    10544    2            ELSE IF NODE$ -> UNARY_OP.OP = %OP_PAREN
     2367    10545    2              THEN CALL Z8EK$BRANCH_TRUE (LABEL$, NODE$ -> UNARY_OP.LOP$);
     2368    10546    2            ELSE CALL Z8EK$NODE_TRUE (LABEL$, NODE$);
     2369    10547    2          CASE(%BINARY_OP);
     2370    10548    3            IF NODE$ -> BINARY_OP.OP = %OP_AND THEN DO;
     2371    10549    3              CALL Z8AT$CREATE_TEMPORARY (%PARA, TEMP_LABEL$);
     2372    10550
     2373    10551    3              CALL Z8EK$BRANCH_FALSE (TEMP_LABEL$, NODE$ -> BINARY_OP.LOP$);
     2374    10552    3              CALL Z8EK$BRANCH_TRUE (LABEL$, NODE$ -> BINARY_OP.ROP$);
PL6.E3A0      #002=Z8EK$BRANCH_TRUE File=Z8EK.:Z8A6TSI                           SAT 08/09/97 12:03 Page:364
     2375    10553
     2376    10554                   %NEW_ILL ( @ID  = %DEFLB ,
     2377    10555                              @LOP = TEMP_LABEL$ );
     2378    10934    3            END;
     2379    10935    3            ELSE IF NODE$ -> BINARY_OP.OP = %OP_OR THEN DO;
     2380    10936    3              CALL Z8EK$BRANCH_TRUE (LABEL$, NODE$ -> BINARY_OP.LOP$);
     2381    10937    3              CALL Z8EK$BRANCH_TRUE (LABEL$, NODE$ -> BINARY_OP.ROP$);
     2382    10938
     2383    10939    3            END;
     2384    10940    2            ELSE CALL Z8EK$NODE_TRUE (LABEL$, NODE$);
     2385    10941    2          CASE(ELSE);
     2386    10942    2            CALL Z8EK$NODE_TRUE (LABEL$, NODE$);
     2387    10943    2        END; /* Case */
     2388    10944    1        RETURN;
     2389    10945        %EJECT;
PL6.E3A0      #002=Z8EK$BRANCH_TRUE File=Z8EK.:Z8A6TSI                           SAT 08/09/97 12:03 Page:365
     2390    10946    1   Z8EK$BRANCH_FALSE: ENTRY (LABEL$, NODE$);
     2391    10947
     2392    10948    2        DO CASE (NODE$ -> LX_ITEM.ID);
     2393    10949    2          CASE(%UNARY_OP);
     2394    10950    2            IF NODE$ -> UNARY_OP.OP = %OP_NOT
     2395    10951    2              THEN CALL Z8EK$BRANCH_TRUE (LABEL$, NODE$ -> UNARY_OP.LOP$);
     2396    10952    2            ELSE IF NODE$ -> UNARY_OP.OP = %OP_PAREN
     2397    10953    2              THEN CALL Z8EK$BRANCH_FALSE (LABEL$, NODE$ -> UNARY_OP.LOP$);
     2398    10954    2            ELSE CALL Z8EK$NODE_FALSE (LABEL$, NODE$);
     2399    10955    2          CASE(%BINARY_OP);
     2400    10956    3            IF NODE$ -> BINARY_OP.OP = %OP_AND THEN DO;
     2401    10957    3              CALL Z8EK$BRANCH_FALSE (LABEL$, NODE$ -> BINARY_OP.LOP$);
     2402    10958    3              CALL Z8EK$BRANCH_FALSE (LABEL$, NODE$ -> BINARY_OP.ROP$);
     2403    10959
     2404    10960    3            END;
     2405    10961    3            ELSE IF NODE$ -> BINARY_OP.OP = %OP_OR THEN DO;
     2406    10962    3              CALL Z8AT$CREATE_TEMPORARY (%PARA, TEMP_LABEL$);
     2407    10963
     2408    10964    3              CALL Z8EK$BRANCH_TRUE (TEMP_LABEL$, NODE$ -> BINARY_OP.LOP$);
     2409    10965    3              CALL Z8EK$BRANCH_FALSE (LABEL$, NODE$ -> BINARY_OP.ROP$);
     2410    10966
     2411    10967                   %NEW_ILL ( @ID  = %DEFLB,
     2412    10968                              @LOP = TEMP_LABEL$);
     2413    11347    3            END;
     2414    11348    2            ELSE CALL Z8EK$NODE_FALSE (LABEL$, NODE$);
     2415    11349    2          CASE(ELSE);
     2416    11350    2            CALL Z8EK$NODE_FALSE (LABEL$, NODE$);
     2417    11351    2        END; /* Case */
     2418    11352    1        RETURN;
     2419    11353    1   END Z8EK$BRANCH_TRUE;
     2420    11354        %EOD;

PL6.E3A0      #002=Z8EK$BRANCH_TRUE File=Z8EK.:Z8A6TSI                           SAT 08/09/97 12:03 Page:366
--  Include file information  --

   Z8E_NEW_ILL.:Z8A6TOU  is referenced.
   Z8E_MACROS.:Z8A6TOU  cannot be made into a system file and is referenced.
   Z8E_O1COM.:Z8A6TOU  cannot be made into a system file and is referenced.
   Z8A_LEX_SYMB.:Z8A6TOU  cannot be made into a system file and is referenced.
   Z8E_STACKS.:Z8A6TOU  cannot be made into a system file and is referenced.
   Z8A_ST.:Z8A6TOU  cannot be made into a system file and is referenced.
   Z8A_ILL.:Z8A6TOU  cannot be made into a system file and is referenced.
   X8A_COM_MACS.:X8A6TOU  is referenced.
   Z8A_NAMES.:Z8A6TOU  is referenced.
   Z8A_SUPP_MAC.:Z8A6TOU  is referenced.
   Z8A_DEFC.:Z8A6TOU  cannot be made into a system file and is referenced.
      No diagnostics issued in procedure Z8EK$BRANCH_TRUE.

   Procedure Z8EK$BRANCH_TRUE requires 234 words for executable code.
   Procedure Z8EK$BRANCH_TRUE requires 12 words of local(AUTO) storage.

PL6.E3A0      #002=Z8EK$BRANCH_TRUE File=Z8EK.:Z8A6TSI                           SAT 08/09/97 12:03 Page:367

 Object Unit name= Z8EK$BRANCH_TRUE                           File name= Z8EK.:Z8A6TOU
 UTS= AUG 09 '97 12:03:24.60 SAT                              Compiler= PL-6/E31         Sev=      00
 SharedLib= :SHARED_SYSTEM                                    Alt SharedLib=


    ****  Control sections  ****

 Sect   Type Bound  Init  Size OctSiz  Section name(segment info)
    0  LblCom even  none     1      1  ITERATION
    1  LblCom even  none     1      1  ILL$
    2  LblCom even  none     5      5  ILL_
    3  LblCom even  none     1      1  ST$
    4  LblCom even  none     5      5  ST_
    5  LblCom even  none    90    132  LEX_SYMBOL
    6  LblCom even  none     1      1  CURRENT_LEX_SYMBOL$
    7  LblCom even  none    90    132  TEMP_LEX_SYMBOL
    8  LblCom even  none    90    132  TEMP_LEX_SYMBOL2
    9   Proc  even  none   234    352  Z8EK$BRANCH_TRUE
   10  RoData even  none    10     12  Z8EK$BRANCH_TRUE

    ****  Entry defs  ****

                              Check   Calling
                             calling  sequence
  Sect OctLoc Primary Altret sequence   type   Parms  Name
     9      0   yes            yes      Std        2  Z8EK$BRANCH_TRUE
     9    165                  yes      Std        2  Z8EK$BRANCH_FALSE
PL6.E3A0      #002=Z8EK$BRANCH_TRUE File=Z8EK.:Z8A6TSI                           SAT 08/09/97 12:03 Page:368

  ****  Entry refs  ****

         Check        Calling
        calling       sequence
Altret sequence SRef   type   Args  Name
         yes           Std       2 Z8EK$NODE_TRUE
         yes           Std       4 Z8AN$NEW_ILL
         yes           Std       2 Z8AT$CREATE_TEMPORARY
         yes           Std       2 Z8EK$NODE_FALSE
                       nStd      0 X66_AUTO_2
                       nStd      0 X66_ARET

  ****  Data refs  ****

  Flags:  r = read only, s = secondary
Flgs Name                             Flgs Name                             Flgs Name
r    ILL_STEP                              O1COM                                 HIER_STK_PTR
     HIER_STK                              PAGE_FORMAT                           REP_STK_PTR
     REP_STK

  ****  Segment refs  ****

  Flags:  r = read only, s = secondary
Flgs Name                             Flgs Name                             Flgs Name
     NULLSID                               ISSID
PL6.E3A0      #002=Z8EK$BRANCH_TRUE File=Z8EK.:Z8A6TSI                           SAT 08/09/97 12:03 Page:369


     2338        1        /*T***********************************************************/
     2339        2        /*T*                                                         */
     2340        3        /*T* Copyright (c) Bull HN Information Systems Inc., 1997    */
     2341        4        /*T*                                                         */
     2342        5        /*T***********************************************************/
     2343        6        Z8EK$BRANCH_TRUE: PROC (LABEL$, NODE$);

      6  9 000000   000000 700200 xent  Z8EK$BRANCH* TSX0  ! X66_AUTO_2
         9 000001   000014 000002                    ZERO    12,2

     2344        7
     2345        8    1        DCL LABEL$  PTR;
     2346        9    1        DCL NODE$   PTR;
     2347       10
     2348       11             %EQU PHASE = 1;
     2349       12             %INCLUDE Z8A_DEFC;
     2350       80             %INCLUDE Z8A_SUPP_MAC;
     2351     2480             %INCLUDE Z8A_ILL;
     2352     3173             %INCLUDE Z8A_ST;
     2353     6832             %INCLUDE Z8E_STACKS;
     2354     9098             %INCLUDE Z8E_O1COM;
     2355     9859             %INCLUDE Z8E_MACROS;
     2356    10534
     2357    10535    1        DCL TEMP_LABEL$      PTR;
     2358    10536    1        DCL Z8AT$CREATE_TEMPORARY ENTRY(2);
     2359    10537    1        DCL Z8EK$NODE_TRUE ENTRY(2);
     2360    10538    1        DCL Z8EK$NODE_FALSE ENTRY(2);
     2361    10539
     2362    10540    2        DO CASE(NODE$ -> LX_ITEM.ID);

  10540  9 000002   200004 470500                    LDP0    @NODE$,,AUTO
         9 000003   000000 471500                    LDP1    0,,PR0
         9 000004   100000 236100                    LDQ     0,,PR1
         9 000005   000022 772000                    QRL     18
         9 000006   000005 136007                    SBLQ    5,DL
         9 000007   000002 116007                    CMPQ    2,DL
PL6.E3A0      #002=Z8EK$BRANCH_TRUE File=Z8EK.:Z8A6TSI                           SAT 08/09/97 12:03 Page:370
         9 000010   000012 602006 9                  TNC     s:10540+8,QL
         9 000011   000160 710000 9                  TRA     s:10942
         9 000012   000047 710000 9                  TRA     s:10548
         9 000013   000014 710000 9                  TRA     s:10542

     2363    10541    2          CASE(%UNARY_OP);

     2364    10542    2            IF NODE$ -> UNARY_OP.OP = %OP_NOT

  10542  9 000014   100003 235100                    LDA     3,,PR1
         9 000015   000027 601000 9                  TNZ     s:10544

     2365    10543    2              THEN CALL Z8EK$BRANCH_FALSE (LABEL$, NODE$ -> UNARY_OP.LOP$);

  10543  9 000016   100001 633500                    EPPR3   1,,PR1
         9 000017   200007 453500                    STP3    TEMP_LABEL$+2,,AUTO
         9 000020   200003 236100                    LDQ     @LABEL$,,AUTO
         9 000021   200006 756100                    STQ     TEMP_LABEL$+1,,AUTO
         9 000022   200006 630500                    EPPR0   TEMP_LABEL$+1,,AUTO
         9 000023   000000 631400 10                 EPPR1   0
         9 000024   000165 701000 9                  TSX1    s:10946
         9 000025   000000 011000                    NOP     0
         9 000026   000164 710000 9                  TRA     s:10944

     2366    10544    2            ELSE IF NODE$ -> UNARY_OP.OP = %OP_PAREN

  10544  9 000027   000002 115007                    CMPA    2,DL
         9 000030   000042 601000 9                  TNZ     s:10546

     2367    10545    2              THEN CALL Z8EK$BRANCH_TRUE (LABEL$, NODE$ -> UNARY_OP.LOP$);

  10545  9 000031   100001 633500                    EPPR3   1,,PR1
         9 000032   200007 453500                    STP3    TEMP_LABEL$+2,,AUTO
         9 000033   200003 236100                    LDQ     @LABEL$,,AUTO
         9 000034   200006 756100                    STQ     TEMP_LABEL$+1,,AUTO
         9 000035   200006 630500                    EPPR0   TEMP_LABEL$+1,,AUTO
         9 000036   000000 631400 10                 EPPR1   0
PL6.E3A0      #002=Z8EK$BRANCH_TRUE File=Z8EK.:Z8A6TSI                           SAT 08/09/97 12:03 Page:371
         9 000037   000000 701000 9                  TSX1    s:6
         9 000040   000000 011000                    NOP     0
         9 000041   000164 710000 9                  TRA     s:10944

     2368    10546    2            ELSE CALL Z8EK$NODE_TRUE (LABEL$, NODE$);

  10546  9 000042   200003 630500                    EPPR0   @LABEL$,,AUTO
         9 000043   000000 631400 10                 EPPR1   0
         9 000044   000000 701000 xent               TSX1    Z8EK$NODE_TRUE
         9 000045   000000 011000                    NOP     0
         9 000046   000164 710000 9                  TRA     s:10944

     2369    10547    2          CASE(%BINARY_OP);

     2370    10548    3            IF NODE$ -> BINARY_OP.OP = %OP_AND THEN DO;

  10548  9 000047   100003 235100                    LDA     3,,PR1
         9 000050   000016 115007                    CMPA    14,DL
         9 000051   000126 601000 9                  TNZ     s:10935

     2371    10549    3              CALL Z8AT$CREATE_TEMPORARY (%PARA, TEMP_LABEL$);

  10549  9 000052   200005 633500                    EPPR3   TEMP_LABEL$,,AUTO
         9 000053   200007 453500                    STP3    TEMP_LABEL$+2,,AUTO
         9 000054   000002 236000 10                 LDQ     2
         9 000055   200006 756100                    STQ     TEMP_LABEL$+1,,AUTO
         9 000056   200006 630500                    EPPR0   TEMP_LABEL$+1,,AUTO
         9 000057   000000 631400 10                 EPPR1   0
         9 000060   000000 701000 xent               TSX1    Z8AT$CREATE_TEMPORARY
         9 000061   000000 011000                    NOP     0

     2372    10550
     2373    10551    3              CALL Z8EK$BRANCH_FALSE (TEMP_LABEL$, NODE$ -> BINARY_OP.LOP$);

  10551  9 000062   200004 470500                    LDP0    @NODE$,,AUTO
         9 000063   000000 471500                    LDP1    0,,PR0
         9 000064   100001 633500                    EPPR3   1,,PR1
PL6.E3A0      #002=Z8EK$BRANCH_TRUE File=Z8EK.:Z8A6TSI                           SAT 08/09/97 12:03 Page:372
         9 000065   200007 453500                    STP3    TEMP_LABEL$+2,,AUTO
         9 000066   200005 631500                    EPPR1   TEMP_LABEL$,,AUTO
         9 000067   200006 451500                    STP1    TEMP_LABEL$+1,,AUTO
         9 000070   200006 630500                    EPPR0   TEMP_LABEL$+1,,AUTO
         9 000071   000000 631400 10                 EPPR1   0
         9 000072   000165 701000 9                  TSX1    s:10946
         9 000073   000000 011000                    NOP     0

     2374    10552    3              CALL Z8EK$BRANCH_TRUE (LABEL$, NODE$ -> BINARY_OP.ROP$);

  10552  9 000074   200004 470500                    LDP0    @NODE$,,AUTO
         9 000075   000000 471500                    LDP1    0,,PR0
         9 000076   100002 633500                    EPPR3   2,,PR1
         9 000077   200007 453500                    STP3    TEMP_LABEL$+2,,AUTO
         9 000100   200003 236100                    LDQ     @LABEL$,,AUTO
         9 000101   200006 756100                    STQ     TEMP_LABEL$+1,,AUTO
         9 000102   200006 630500                    EPPR0   TEMP_LABEL$+1,,AUTO
         9 000103   000000 631400 10                 EPPR1   0
         9 000104   000000 701000 9                  TSX1    s:6
         9 000105   000000 011000                    NOP     0

     2375    10553
     2376    10554                   %NEW_ILL ( @ID  = %DEFLB ,
     2377    10555                              @LOP = TEMP_LABEL$ );

  10876  9 000106   000006 236000 10                 LDQ     6
         9 000107   200006 756100                    STQ     TEMP_LABEL$+1,,AUTO
         9 000110   200006 630500                    EPPR0   TEMP_LABEL$+1,,AUTO
         9 000111   200013 450500                    STP0    TEMP_LABEL$+6,,AUTO
         9 000112   000007 236000 10                 LDQ     7
         9 000113   200012 756100                    STQ     TEMP_LABEL$+5,,AUTO
         9 000114   000010 237000 10                 LDAQ    8
         9 000115   200010 757100                    STAQ    TEMP_LABEL$+3,,AUTO
         9 000116   200010 630500                    EPPR0   TEMP_LABEL$+3,,AUTO
         9 000117   000003 631400 10                 EPPR1   3
         9 000120   000000 701000 xent               TSX1    Z8AN$NEW_ILL
         9 000121   000000 011000                    NOP     0
PL6.E3A0      #002=Z8EK$BRANCH_TRUE File=Z8EK.:Z8A6TSI                           SAT 08/09/97 12:03 Page:373

  10885  9 000122   200005 236100                    LDQ     TEMP_LABEL$,,AUTO
         9 000123   000000 470400 1                  LDP0    ILL$
         9 000124   000001 756100                    STQ     1,,PR0

     2378    10934    3            END;

  10934  9 000125   000164 710000 9                  TRA     s:10944

     2379    10935    3            ELSE IF NODE$ -> BINARY_OP.OP = %OP_OR THEN DO;

  10935  9 000126   000017 115007                    CMPA    15,DL
         9 000127   000153 601000 9                  TNZ     s:10940

     2380    10936    3              CALL Z8EK$BRANCH_TRUE (LABEL$, NODE$ -> BINARY_OP.LOP$);

  10936  9 000130   100001 633500                    EPPR3   1,,PR1
         9 000131   200007 453500                    STP3    TEMP_LABEL$+2,,AUTO
         9 000132   200003 236100                    LDQ     @LABEL$,,AUTO
         9 000133   200006 756100                    STQ     TEMP_LABEL$+1,,AUTO
         9 000134   200006 630500                    EPPR0   TEMP_LABEL$+1,,AUTO
         9 000135   000000 631400 10                 EPPR1   0
         9 000136   000000 701000 9                  TSX1    s:6
         9 000137   000000 011000                    NOP     0

     2381    10937    3              CALL Z8EK$BRANCH_TRUE (LABEL$, NODE$ -> BINARY_OP.ROP$);

  10937  9 000140   200004 470500                    LDP0    @NODE$,,AUTO
         9 000141   000000 471500                    LDP1    0,,PR0
         9 000142   100002 633500                    EPPR3   2,,PR1
         9 000143   200007 453500                    STP3    TEMP_LABEL$+2,,AUTO
         9 000144   200003 236100                    LDQ     @LABEL$,,AUTO
         9 000145   200006 756100                    STQ     TEMP_LABEL$+1,,AUTO
         9 000146   200006 630500                    EPPR0   TEMP_LABEL$+1,,AUTO
         9 000147   000000 631400 10                 EPPR1   0
         9 000150   000000 701000 9                  TSX1    s:6
         9 000151   000000 011000                    NOP     0
PL6.E3A0      #002=Z8EK$BRANCH_TRUE File=Z8EK.:Z8A6TSI                           SAT 08/09/97 12:03 Page:374

     2382    10938
     2383    10939    3            END;

  10939  9 000152   000164 710000 9                  TRA     s:10944

     2384    10940    2            ELSE CALL Z8EK$NODE_TRUE (LABEL$, NODE$);

  10940  9 000153   200003 630500                    EPPR0   @LABEL$,,AUTO
         9 000154   000000 631400 10                 EPPR1   0
         9 000155   000000 701000 xent               TSX1    Z8EK$NODE_TRUE
         9 000156   000000 011000                    NOP     0
         9 000157   000164 710000 9                  TRA     s:10944

     2385    10941    2          CASE(ELSE);

     2386    10942    2            CALL Z8EK$NODE_TRUE (LABEL$, NODE$);

  10942  9 000160   200003 630500                    EPPR0   @LABEL$,,AUTO
         9 000161   000000 631400 10                 EPPR1   0
         9 000162   000000 701000 xent               TSX1    Z8EK$NODE_TRUE
         9 000163   000000 011000                    NOP     0

     2387    10943    2        END; /* Case */

     2388    10944    1        RETURN;

  10944  9 000164   000000 702200 xent               TSX2  ! X66_ARET

     2389    10945        %EJECT;
PL6.E3A0      #002=Z8EK$BRANCH_TRUE File=Z8EK.:Z8A6TSI                           SAT 08/09/97 12:03 Page:375
     2390    10946    1   Z8EK$BRANCH_FALSE: ENTRY (LABEL$, NODE$);

  10946  9 000165   000000 700200 xent  Z8EK$BRANCH* TSX0  ! X66_AUTO_2
         9 000166   000014 000002                    ZERO    12,2

     2391    10947
     2392    10948    2        DO CASE (NODE$ -> LX_ITEM.ID);

  10948  9 000167   200004 470500                    LDP0    @NODE$,,AUTO
         9 000170   000000 471500                    LDP1    0,,PR0
         9 000171   100000 236100                    LDQ     0,,PR1
         9 000172   000022 772000                    QRL     18
         9 000173   000005 136007                    SBLQ    5,DL
         9 000174   000002 116007                    CMPQ    2,DL
         9 000175   000177 602006 9                  TNC     s:10948+8,QL
         9 000176   000345 710000 9                  TRA     s:11350
         9 000177   000234 710000 9                  TRA     s:10956
         9 000200   000201 710000 9                  TRA     s:10950

     2393    10949    2          CASE(%UNARY_OP);

     2394    10950    2            IF NODE$ -> UNARY_OP.OP = %OP_NOT

  10950  9 000201   100003 235100                    LDA     3,,PR1
         9 000202   000214 601000 9                  TNZ     s:10952

     2395    10951    2              THEN CALL Z8EK$BRANCH_TRUE (LABEL$, NODE$ -> UNARY_OP.LOP$);

  10951  9 000203   100001 633500                    EPPR3   1,,PR1
         9 000204   200007 453500                    STP3    TEMP_LABEL$+2,,AUTO
         9 000205   200003 236100                    LDQ     @LABEL$,,AUTO
         9 000206   200006 756100                    STQ     TEMP_LABEL$+1,,AUTO
         9 000207   200006 630500                    EPPR0   TEMP_LABEL$+1,,AUTO
         9 000210   000000 631400 10                 EPPR1   0
         9 000211   000000 701000 9                  TSX1    s:6
         9 000212   000000 011000                    NOP     0
         9 000213   000351 710000 9                  TRA     s:11352
PL6.E3A0      #002=Z8EK$BRANCH_TRUE File=Z8EK.:Z8A6TSI                           SAT 08/09/97 12:03 Page:376

     2396    10952    2            ELSE IF NODE$ -> UNARY_OP.OP = %OP_PAREN

  10952  9 000214   000002 115007                    CMPA    2,DL
         9 000215   000227 601000 9                  TNZ     s:10954

     2397    10953    2              THEN CALL Z8EK$BRANCH_FALSE (LABEL$, NODE$ -> UNARY_OP.LOP$);

  10953  9 000216   100001 633500                    EPPR3   1,,PR1
         9 000217   200007 453500                    STP3    TEMP_LABEL$+2,,AUTO
         9 000220   200003 236100                    LDQ     @LABEL$,,AUTO
         9 000221   200006 756100                    STQ     TEMP_LABEL$+1,,AUTO
         9 000222   200006 630500                    EPPR0   TEMP_LABEL$+1,,AUTO
         9 000223   000000 631400 10                 EPPR1   0
         9 000224   000165 701000 9                  TSX1    s:10946
         9 000225   000000 011000                    NOP     0
         9 000226   000351 710000 9                  TRA     s:11352

     2398    10954    2            ELSE CALL Z8EK$NODE_FALSE (LABEL$, NODE$);

  10954  9 000227   200003 630500                    EPPR0   @LABEL$,,AUTO
         9 000230   000000 631400 10                 EPPR1   0
         9 000231   000000 701000 xent               TSX1    Z8EK$NODE_FALSE
         9 000232   000000 011000                    NOP     0
         9 000233   000351 710000 9                  TRA     s:11352

     2399    10955    2          CASE(%BINARY_OP);

     2400    10956    3            IF NODE$ -> BINARY_OP.OP = %OP_AND THEN DO;

  10956  9 000234   100003 235100                    LDA     3,,PR1
         9 000235   000016 115007                    CMPA    14,DL
         9 000236   000262 601000 9                  TNZ     s:10961

     2401    10957    3              CALL Z8EK$BRANCH_FALSE (LABEL$, NODE$ -> BINARY_OP.LOP$);

  10957  9 000237   100001 633500                    EPPR3   1,,PR1
PL6.E3A0      #002=Z8EK$BRANCH_TRUE File=Z8EK.:Z8A6TSI                           SAT 08/09/97 12:03 Page:377
         9 000240   200007 453500                    STP3    TEMP_LABEL$+2,,AUTO
         9 000241   200003 236100                    LDQ     @LABEL$,,AUTO
         9 000242   200006 756100                    STQ     TEMP_LABEL$+1,,AUTO
         9 000243   200006 630500                    EPPR0   TEMP_LABEL$+1,,AUTO
         9 000244   000000 631400 10                 EPPR1   0
         9 000245   000165 701000 9                  TSX1    s:10946
         9 000246   000000 011000                    NOP     0

     2402    10958    3              CALL Z8EK$BRANCH_FALSE (LABEL$, NODE$ -> BINARY_OP.ROP$);

  10958  9 000247   200004 470500                    LDP0    @NODE$,,AUTO
         9 000250   000000 471500                    LDP1    0,,PR0
         9 000251   100002 633500                    EPPR3   2,,PR1
         9 000252   200007 453500                    STP3    TEMP_LABEL$+2,,AUTO
         9 000253   200003 236100                    LDQ     @LABEL$,,AUTO
         9 000254   200006 756100                    STQ     TEMP_LABEL$+1,,AUTO
         9 000255   200006 630500                    EPPR0   TEMP_LABEL$+1,,AUTO
         9 000256   000000 631400 10                 EPPR1   0
         9 000257   000165 701000 9                  TSX1    s:10946
         9 000260   000000 011000                    NOP     0

     2403    10959
     2404    10960    3            END;

  10960  9 000261   000351 710000 9                  TRA     s:11352

     2405    10961    3            ELSE IF NODE$ -> BINARY_OP.OP = %OP_OR THEN DO;

  10961  9 000262   000017 115007                    CMPA    15,DL
         9 000263   000340 601000 9                  TNZ     s:11348

     2406    10962    3              CALL Z8AT$CREATE_TEMPORARY (%PARA, TEMP_LABEL$);

  10962  9 000264   200005 633500                    EPPR3   TEMP_LABEL$,,AUTO
         9 000265   200007 453500                    STP3    TEMP_LABEL$+2,,AUTO
         9 000266   000002 236000 10                 LDQ     2
         9 000267   200006 756100                    STQ     TEMP_LABEL$+1,,AUTO
PL6.E3A0      #002=Z8EK$BRANCH_TRUE File=Z8EK.:Z8A6TSI                           SAT 08/09/97 12:03 Page:378
         9 000270   200006 630500                    EPPR0   TEMP_LABEL$+1,,AUTO
         9 000271   000000 631400 10                 EPPR1   0
         9 000272   000000 701000 xent               TSX1    Z8AT$CREATE_TEMPORARY
         9 000273   000000 011000                    NOP     0

     2407    10963
     2408    10964    3              CALL Z8EK$BRANCH_TRUE (TEMP_LABEL$, NODE$ -> BINARY_OP.LOP$);

  10964  9 000274   200004 470500                    LDP0    @NODE$,,AUTO
         9 000275   000000 471500                    LDP1    0,,PR0
         9 000276   100001 633500                    EPPR3   1,,PR1
         9 000277   200007 453500                    STP3    TEMP_LABEL$+2,,AUTO
         9 000300   200005 631500                    EPPR1   TEMP_LABEL$,,AUTO
         9 000301   200006 451500                    STP1    TEMP_LABEL$+1,,AUTO
         9 000302   200006 630500                    EPPR0   TEMP_LABEL$+1,,AUTO
         9 000303   000000 631400 10                 EPPR1   0
         9 000304   000000 701000 9                  TSX1    s:6
         9 000305   000000 011000                    NOP     0

     2409    10965    3              CALL Z8EK$BRANCH_FALSE (LABEL$, NODE$ -> BINARY_OP.ROP$);

  10965  9 000306   200004 470500                    LDP0    @NODE$,,AUTO
         9 000307   000000 471500                    LDP1    0,,PR0
         9 000310   100002 633500                    EPPR3   2,,PR1
         9 000311   200007 453500                    STP3    TEMP_LABEL$+2,,AUTO
         9 000312   200003 236100                    LDQ     @LABEL$,,AUTO
         9 000313   200006 756100                    STQ     TEMP_LABEL$+1,,AUTO
         9 000314   200006 630500                    EPPR0   TEMP_LABEL$+1,,AUTO
         9 000315   000000 631400 10                 EPPR1   0
         9 000316   000165 701000 9                  TSX1    s:10946
         9 000317   000000 011000                    NOP     0

     2410    10966
     2411    10967                   %NEW_ILL ( @ID  = %DEFLB,
     2412    10968                              @LOP = TEMP_LABEL$);

  11289  9 000320   000006 236000 10                 LDQ     6
PL6.E3A0      #002=Z8EK$BRANCH_TRUE File=Z8EK.:Z8A6TSI                           SAT 08/09/97 12:03 Page:379
         9 000321   200006 756100                    STQ     TEMP_LABEL$+1,,AUTO
         9 000322   200006 630500                    EPPR0   TEMP_LABEL$+1,,AUTO
         9 000323   200013 450500                    STP0    TEMP_LABEL$+6,,AUTO
         9 000324   000007 236000 10                 LDQ     7
         9 000325   200012 756100                    STQ     TEMP_LABEL$+5,,AUTO
         9 000326   000010 237000 10                 LDAQ    8
         9 000327   200010 757100                    STAQ    TEMP_LABEL$+3,,AUTO
         9 000330   200010 630500                    EPPR0   TEMP_LABEL$+3,,AUTO
         9 000331   000003 631400 10                 EPPR1   3
         9 000332   000000 701000 xent               TSX1    Z8AN$NEW_ILL
         9 000333   000000 011000                    NOP     0

  11298  9 000334   200005 236100                    LDQ     TEMP_LABEL$,,AUTO
         9 000335   000000 470400 1                  LDP0    ILL$
         9 000336   000001 756100                    STQ     1,,PR0

     2413    11347    3            END;

  11347  9 000337   000351 710000 9                  TRA     s:11352

     2414    11348    2            ELSE CALL Z8EK$NODE_FALSE (LABEL$, NODE$);

  11348  9 000340   200003 630500                    EPPR0   @LABEL$,,AUTO
         9 000341   000000 631400 10                 EPPR1   0
         9 000342   000000 701000 xent               TSX1    Z8EK$NODE_FALSE
         9 000343   000000 011000                    NOP     0
         9 000344   000351 710000 9                  TRA     s:11352

     2415    11349    2          CASE(ELSE);

     2416    11350    2            CALL Z8EK$NODE_FALSE (LABEL$, NODE$);

  11350  9 000345   200003 630500                    EPPR0   @LABEL$,,AUTO
         9 000346   000000 631400 10                 EPPR1   0
         9 000347   000000 701000 xent               TSX1    Z8EK$NODE_FALSE
         9 000350   000000 011000                    NOP     0

PL6.E3A0      #002=Z8EK$BRANCH_TRUE File=Z8EK.:Z8A6TSI                           SAT 08/09/97 12:03 Page:380
     2417    11351    2        END; /* Case */

     2418    11352    1        RETURN;

  11352  9 000351   000000 702200 xent               TSX2  ! X66_ARET
     2419    11353    1   END Z8EK$BRANCH_TRUE;
     2420    11354        %EOD;

PL6.E3A0      #002=Z8EK$BRANCH_TRUE File=Z8EK.:Z8A6TSI                           SAT 08/09/97 12:03 Page:381
--  Include file information  --

   Z8E_NEW_ILL.:Z8A6TOU  is referenced.
   Z8E_MACROS.:Z8A6TOU  cannot be made into a system file and is referenced.
   Z8E_O1COM.:Z8A6TOU  cannot be made into a system file and is referenced.
   Z8A_LEX_SYMB.:Z8A6TOU  cannot be made into a system file and is referenced.
   Z8E_STACKS.:Z8A6TOU  cannot be made into a system file and is referenced.
   Z8A_ST.:Z8A6TOU  cannot be made into a system file and is referenced.
   Z8A_ILL.:Z8A6TOU  cannot be made into a system file and is referenced.
   X8A_COM_MACS.:X8A6TOU  is referenced.
   Z8A_NAMES.:Z8A6TOU  is referenced.
   Z8A_SUPP_MAC.:Z8A6TOU  is referenced.
   Z8A_DEFC.:Z8A6TOU  cannot be made into a system file and is referenced.
      No diagnostics issued in procedure Z8EK$BRANCH_TRUE.
PL6.E3A0      #002=Z8EK$BRANCH_TRUE File=Z8EK.:Z8A6TSI                           SAT 08/09/97 12:03 Page:382

 **** Variables and constants ****

  ****  Section 000 LblCom ITERATION

  ****  Scalars and arrays  ****
OctLoc.c.b A Datatyp(siz) R M Lvl/name                 OctLoc.c.b A Datatyp(siz) R M Lvl/name

     0-0-0/w SBIN              1 ITERATION

  ****  Section 001 LblCom ILL$

  ****  Scalars and arrays  ****
OctLoc.c.b A Datatyp(siz) R M Lvl/name                 OctLoc.c.b A Datatyp(siz) R M Lvl/name

     0-0-0/w PTR         r     1 ILL$

  ****  Section 002 LblCom ILL_

  ****  Scalars and arrays  ****
OctLoc.c.b A Datatyp(siz) R M Lvl/name                 OctLoc.c.b A Datatyp(siz) R M Lvl/name

     0-0-0/w STRC(180)         1 ILL_

  ****  Section 003 LblCom ST$

  ****  Scalars and arrays  ****
OctLoc.c.b A Datatyp(siz) R M Lvl/name                 OctLoc.c.b A Datatyp(siz) R M Lvl/name

     0-0-0/w PTR         r     1 ST$

  ****  Section 004 LblCom ST_

  ****  Scalars and arrays  ****
OctLoc.c.b A Datatyp(siz) R M Lvl/name                 OctLoc.c.b A Datatyp(siz) R M Lvl/name

     0-0-0/w STRC(180)         1 ST_

PL6.E3A0      #002=Z8EK$BRANCH_TRUE File=Z8EK.:Z8A6TSI                           SAT 08/09/97 12:03 Page:383
  ****  Section 005 LblCom LEX_SYMBOL

  ****  Scalars and arrays  ****
OctLoc.c.b A Datatyp(siz) R M Lvl/name                 OctLoc.c.b A Datatyp(siz) R M Lvl/name

     0-0-0/w STRC(3240)  r     1 LEX_SYMBOL                 0-0-0/w STRC(3240)        1 LEX_SYMBOL_WORDS

  ****  Section 006 LblCom CURRENT_LEX_SYMBOL$

  ****  Scalars and arrays  ****
OctLoc.c.b A Datatyp(siz) R M Lvl/name                 OctLoc.c.b A Datatyp(siz) R M Lvl/name

     0-0-0/w PTR         r     1 CURRENT_LEX_SYMBOL$

  ****  Section 007 LblCom TEMP_LEX_SYMBOL

  ****  Scalars and arrays  ****
OctLoc.c.b A Datatyp(siz) R M Lvl/name                 OctLoc.c.b A Datatyp(siz) R M Lvl/name

     0-0-0/w STRC(3240)        1 TEMP_LEX_SYMBOL

  ****  Section 008 LblCom TEMP_LEX_SYMBOL2

  ****  Scalars and arrays  ****
OctLoc.c.b A Datatyp(siz) R M Lvl/name                 OctLoc.c.b A Datatyp(siz) R M Lvl/name

     0-0-0/w STRC(3240)        1 TEMP_LEX_SYMBOL2

  ****  Auto variables  ****

  ****  Scalars and arrays  ****
OctLoc.c.b A Datatyp(siz) R M Lvl/name                 OctLoc.c.b A Datatyp(siz) R M Lvl/name

     3-0-0/w PTR         r     1 @LABEL$                    4-0-0/w PTR         r     1 @NODE$
    *0-0-0/w PTR         r     1 LABEL$                    *0-0-0/w PTR         r     1 NODE$
     5-0-0/w PTR         r     1 TEMP_LABEL$

PL6.E3A0      #002=Z8EK$BRANCH_TRUE File=Z8EK.:Z8A6TSI                           SAT 08/09/97 12:03 Page:384
  ****  SYMREF variables  ****

  ****  Scalars and arrays  ****
OctLoc.c.b A Datatyp(siz) R M Lvl/name                 OctLoc.c.b A Datatyp(siz) R M Lvl/name

     0-0-0/w STRC(180)         1 HIER_STK(0:50)
     0-0-0/w SBIN              1 HIER_STK_PTR               0-0-0/w UBIN              1 ILL_STEP(0:144)
     0-0-0/d STRC(11580) r     1 O1COM                      0-0-0/w STRC(144)         1 PAGE_FORMAT
     0-0-0/w STRC(153)         1 REP_STK(0:50)              0-0-0/w SBIN              1 REP_STK_PTR

  ****  BASED and DCB variables  ****

  ****  Scalars and arrays  ****
OctLoc.c.b A Datatyp(siz) R M Lvl/name                 OctLoc.c.b A Datatyp(siz) R M Lvl/name

     0-0-0/w STRC(108)         1 ACCEPT_DISPLAY             0-0-0/w STRC(288)         1 ADD_STMT
     0-0-0/w STRC(396)         1 ALPHABET                   0-0-0/w STRC(396)         1 ARRAY
     0-0-0/w ASTR(324)   r     1 BASED_LEX_SYMBOL
     0-0-0/w STRC(360)         1 BASED_LEX_SYMBOL_WORDS
     0-0-0/w STRC(108)         1 BINARY_ILL                 0-0-0/w STRC(288)   r     1 BINARY_OP
     0-0-0/w STRC(396)         1 BLOCK                      0-0-0/w STRC(144)         1 BRANCH_ILL
     0-0-0/w STRC(288)         1 CALL_STMT                  0-0-0/w STRC(216)         1 CCOSU
     0-0-0/w STRC(396)         1 CD                         0-0-0/w CHAR(4096)        1 CHARS
     0-0-0/w STRC(396)         1 CLASS                      0-0-0/w STRC(108)         1 CODED_MOVE
     0-0-0/w STRC(288)         1 COMPUTE_STMT               0-0-0/w STRC(396)         1 CONDITION
     0-0-0/w STRC(396)         1 CONST                      0-0-0/w STRC(72)          1 CONT
     0-0-0/w STRC(396)         1 DB                         0-0-0/w STRC(396)         1 DCB_
     0-0-0/w STRC(288)         1 DEFERED_IDENTIFIER         0-0-0/w STRC(252)         1 DEFERED_ID_TREE
     0-0-0/w STRC(288)         1 DEFERED_QUAL_ID            0-0-0/w STRC(288)         1 DEFERED_SUM_CLAUSE
     0-0-0/w STRC(288)         1 DEFERED_SUM_CLAUSE_LIST
     0-0-0/w STRC(144)         1 DEFLB                      0-0-0/w STRC(288)         1 DELETE_STMT
     0-0-0/w STRC(288)         1 DIVIDE_STMT                0-0-0/w STRC(396)         1 DML_ITEM
     0-0-0/w STRC(144)         1 DOEND                      0-0-0/w STRC(396)         1 DO_N
     0-0-0/w STRC(180)         1 DV4I                       0-0-0/w STRC(180)         1 ENTRY_ILL
     0-0-0/w STRC(108)         1 EVALU                      0-0-0/w STRC(396)         1 FD
     0-0-0/w STRC(144)         1 GO                         0-0-0/w STRC(180)         1 ILL
     0-0-0/w STRC              1 ILL_NO_OPS                 0-0-0/w STRC(288)         1 ILS_LIST
PL6.E3A0      #002=Z8EK$BRANCH_TRUE File=Z8EK.:Z8A6TSI                           SAT 08/09/97 12:03 Page:385
     0-0-0/w STRC(288)         1 INSPECT_1_STMT             0-0-0/w STRC(288)         1 INSPECT_2_STMT
     0-0-0/w STRC(288)         1 INSPECT_4_STMT             0-0-0/w STRC(396)         1 INTDEF
     0-0-0/w STRC(396)         1 LABEL                      0-0-0/w STRC(288)         1 LA_ITEM
     0-0-0/w STRC(108)         1 LINOI                      0-0-0/w STRC(504)         1 LX_CD_INPUT
     0-0-0/w STRC(324)         1 LX_CD_I_O                  0-0-0/w STRC(396)         1 LX_CD_OUTPUT
     0-0-0/w STRC(288)         1 LX_ETT_ITEM                0-0-0/w STRC(288)   r     1 LX_ITEM
     0-0-0/w STRC(288)         1 LX_LARGE                   0-0-0/w STRC(288)         1 LX_LIST
     0-0-0/w STRC(1224)        1 LX_REC_DECL                0-0-0/w STRC(864)         1 LX_REPORT_REC
     0-0-0/w STRC(288)         1 LX_TERMINAL                0-0-0/w STRC(72)          1 MFILL
     0-0-0/w STRC(396)         1 MNEMONIC                   0-0-0/w STRC(288)         1 MULTIPLY_STMT
     0-0-0/w STRC(180)         1 MULTI_GO                   0-0-0/w STRC(180)         1 MVEAL
     0-0-0/w STRC(108)         1 MVFIL                      0-0-0/w STRC(72)          1 MVIIS
     0-0-0/w STRC(180)         1 OS_CALL                    0-0-0/w STRC(36864)       1 PAGE
     0-0-0/w STRC(396)         1 PARA                       0-0-0/w STRC(216)         1 PFORM
     0-0-0/w STRC(144)         1 PINC                       0-0-0/w STRC(144)         1 PREOFF
     0-0-0/w STRC(108)         1 PRESET                     0-0-0/w STRC(396)         1 PROC_
     0-0-0/w STRC(396)         1 PROC_DEF                   0-0-0/w STRC(144)         1 P_A_PRESET
     0-0-0/w STRC(144)         1 P_P_PRESET                 0-0-0/w STRC(396)         1 RD
     0-0-0/w STRC(288)         1 READ_STMT                  0-0-0/w STRC(144)         1 REMEM
     0-0-0/w STRC(288)         1 REWRITE_STMT               0-0-0/w STRC(396)         1 SCALAR
     0-0-0/w STRC(144)         1 SCOPE                      0-0-0/w STRC(396)         1 SD
     0-0-0/w STRC(216)         1 SEARCH_                    0-0-0/w STRC(396)         1 SECTION
     0-0-0/w STRC(396)         1 SEGMENT                    0-0-0/w STRC(396)         1 ST
     0-0-0/w STRC(288)         1 START_STMT                 0-0-0/w STRC(72)          1 STP2
     0-0-0/w STRC(252)         1 STRING_STMT                0-0-0/w STRC(288)         1 SUBTRACT_STMT
     0-0-0/w STRC(396)         1 SWITCH                     0-0-0/w STRC(396)         1 SYMBOLIC_CHAR
     0-0-0/w STRC(396)         1 SYMDEF_                    0-0-0/w STRC(396)         1 SYMREF_
     0-0-0/w STRC(396)         1 TEMP                       0-0-0/w STRC(144)         1 TRINARY_ILL
     0-0-0/w STRC(72)    r     1 UNARY_ILL                  0-0-0/w STRC(288)   r     1 UNARY_OP
     0-0-0/w STRC(288)         1 UNSTRING_STMT              0-0-0/w STRC(216)         1 USER_CALL
     0-0-0/w STRC(108)         1 VAL                        0-0-0/w STRC(108)         1 VAL_END
     0-0-0/w STRC(396)         1 VARIABLE                   0-0-0/w STRC(72)          1 WHEN
     0-0-0/w STRC(288)         1 WRITE_STMT


   Procedure Z8EK$BRANCH_TRUE requires 234 words for executable code.
PL6.E3A0      #002=Z8EK$BRANCH_TRUE File=Z8EK.:Z8A6TSI                           SAT 08/09/97 12:03 Page:386
   Procedure Z8EK$BRANCH_TRUE requires 12 words of local(AUTO) storage.

PL6.E3A0      #003=Z8EK$RANGE File=Z8EK.:Z8A6TSI                                 SAT 08/09/97 12:05 Page:387
     2421        1        /*T***********************************************************/
     2422        2        /*T*                                                         */
     2423        3        /*T* Copyright (c) Bull HN Information Systems Inc., 1997    */
     2424        4        /*T*                                                         */
     2425        5        /*T***********************************************************/
     2426        6        Z8EK$RANGE:PROC (VALUE$,
     2427        7                         LOWER$,
     2428        8                         UPPER$,
     2429        9                         RETURN$);
     2430       10
     2431       11    1        DCL VALUE$ PTR;  /*V* To LX_ETT_ITEM or LX_TERMINAL */
     2432       12    1        DCL LOWER$ PTR;  /*V* To LX_ETT_ITEM or LX_TERMINAL */
     2433       13    1        DCL UPPER$ PTR;  /*V* To LX_ETT_ITEM or LX_TERMINAL */
     2434       14    1        DCL RETURN$ PTR;  /*V* To space for LX_ETT_ITEM */
     2435       15
     2436       16             %EQU PHASE = 1;
     2437       17             %INCLUDE Z8A_DEFC;
     2438       85             %INCLUDE Z8A_SUPP_MAC;
     2439     2485             %INCLUDE Z8E_STACKS;
     2440     4751             %INCLUDE Z8E_HEAP;
     2441     4807             %INCLUDE Z8E_ABSSYN;
     2442     5013             %INCLUDE Z8A_COMCOM;
     2443     5663
     2444     5664    1        DCL Z8EK$COMPARE           ENTRY(4);
     2445     5665
     2446     5666
     2447     5667             %NEW (@POINTER = RETURN$,
     2448     5668                   @TEMPLATE = BINARY_OP);
     2449     5678
     2450     5679             %INIT_BINARY_OP (@POINTER = RETURN$,
     2451     5680                              @OP = %OP_AND);
     2452     5698
     2453     5699    1        CALL Z8EK$COMPARE(VALUE$,
     2454     5700    1                          %OP_GREATER_THAN_OR_EQUAL,
     2455     5701    1                          LOWER$,
     2456     5702    1                          RETURN$ -> BINARY_OP.LOP$);
     2457     5703
PL6.E3A0      #003=Z8EK$RANGE File=Z8EK.:Z8A6TSI                                 SAT 08/09/97 12:05 Page:388
     2458     5704    1        CALL Z8EK$COMPARE(VALUE$,
     2459     5705    1                          %OP_LESS_THAN_OR_EQUAL,
     2460     5706    1                          UPPER$,
     2461     5707    1                          RETURN$ -> BINARY_OP.ROP$);
     2462     5708
     2463     5709
     2464     5710    1   END Z8EK$RANGE;
     2465     5711        %EOD;

PL6.E3A0      #003=Z8EK$RANGE File=Z8EK.:Z8A6TSI                                 SAT 08/09/97 12:05 Page:389
--  Include file information  --

   Z8A_COMCOM.:Z8A6TOU  cannot be made into a system file and is referenced.
   Z8E_ABSSYN.:Z8A6TOU  cannot be made into a system file and is referenced.
   Z8E_HEAP.:Z8A6TOU  cannot be made into a system file and is referenced.
   Z8A_LEX_SYMB.:Z8A6TOU  cannot be made into a system file and is referenced.
   Z8E_STACKS.:Z8A6TOU  cannot be made into a system file and is referenced.
   X8A_COM_MACS.:X8A6TOU  is referenced.
   Z8A_NAMES.:Z8A6TOU  is referenced.
   Z8A_SUPP_MAC.:Z8A6TOU  is referenced.
   Z8A_DEFC.:Z8A6TOU  cannot be made into a system file and is referenced.
      No diagnostics issued in procedure Z8EK$RANGE.

   Procedure Z8EK$RANGE requires 58 words for executable code.
   Procedure Z8EK$RANGE requires 12 words of local(AUTO) storage.

PL6.E3A0      #003=Z8EK$RANGE File=Z8EK.:Z8A6TSI                                 SAT 08/09/97 12:05 Page:390

 Object Unit name= Z8EK$RANGE                                 File name= Z8EK.:Z8A6TOU
 UTS= AUG 09 '97 12:05:05.84 SAT                              Compiler= PL-6/E31         Sev=      00
 SharedLib= :SHARED_SYSTEM                                    Alt SharedLib=


    ****  Control sections  ****

 Sect   Type Bound  Init  Size OctSiz  Section name(segment info)
    0  LblCom even  none     1      1  ITERATION
    1  LblCom even  none    90    132  LEX_SYMBOL
    2  LblCom even  none     1      1  CURRENT_LEX_SYMBOL$
    3  LblCom even  none    90    132  TEMP_LEX_SYMBOL
    4  LblCom even  none    90    132  TEMP_LEX_SYMBOL2
    5  LblCom even  none     1      1  HEAP$
    6  LblCom even  none     8     10  TEMP_LX_NODE
    7   Proc  even  none    58     72  Z8EK$RANGE
    8  RoData even  none     9     11  Z8EK$RANGE

    ****  Entry defs  ****

                              Check   Calling
                             calling  sequence
  Sect OctLoc Primary Altret sequence   type   Parms  Name
     7      0   yes            yes      Std        4  Z8EK$RANGE

  ****  Entry refs  ****

         Check        Calling
        calling       sequence
Altret sequence SRef   type   Args  Name
         yes           Std       2 Z8ED$NEW_HEAP
         yes           Std       4 Z8EK$COMPARE
                       nStd      0 X66_AUTO_4
                       nStd      0 X66_ARET
PL6.E3A0      #003=Z8EK$RANGE File=Z8EK.:Z8A6TSI                                 SAT 08/09/97 12:05 Page:391

  ****  Data refs  ****

  Flags:  r = read only, s = secondary
Flgs Name                             Flgs Name                             Flgs Name
     COMCOM

  ****  Segment refs  ****

  Flags:  r = read only, s = secondary
Flgs Name                             Flgs Name                             Flgs Name
     ISSID                                 NULLSID
PL6.E3A0      #003=Z8EK$RANGE File=Z8EK.:Z8A6TSI                                 SAT 08/09/97 12:05 Page:392


     2421        1        /*T***********************************************************/
     2422        2        /*T*                                                         */
     2423        3        /*T* Copyright (c) Bull HN Information Systems Inc., 1997    */
     2424        4        /*T*                                                         */
     2425        5        /*T***********************************************************/
     2426        6        Z8EK$RANGE:PROC (VALUE$,

      6  7 000000   000000 700200 xent  Z8EK$RANGE   TSX0  ! X66_AUTO_4
         7 000001   000014 000004                    ZERO    12,4

     2427        7                         LOWER$,
     2428        8                         UPPER$,
     2429        9                         RETURN$);
     2430       10
     2431       11    1        DCL VALUE$ PTR;  /*V* To LX_ETT_ITEM or LX_TERMINAL */
     2432       12    1        DCL LOWER$ PTR;  /*V* To LX_ETT_ITEM or LX_TERMINAL */
     2433       13    1        DCL UPPER$ PTR;  /*V* To LX_ETT_ITEM or LX_TERMINAL */
     2434       14    1        DCL RETURN$ PTR;  /*V* To space for LX_ETT_ITEM */
     2435       15
     2436       16             %EQU PHASE = 1;
     2437       17             %INCLUDE Z8A_DEFC;
     2438       85             %INCLUDE Z8A_SUPP_MAC;
     2439     2485             %INCLUDE Z8E_STACKS;
     2440     4751             %INCLUDE Z8E_HEAP;
     2441     4807             %INCLUDE Z8E_ABSSYN;
     2442     5013             %INCLUDE Z8A_COMCOM;
     2443     5663
     2444     5664    1        DCL Z8EK$COMPARE           ENTRY(4);
     2445     5665
     2446     5666
     2447     5667             %NEW (@POINTER = RETURN$,
     2448     5668                   @TEMPLATE = BINARY_OP);

   5674  7 000002   000003 236000 8                  LDQ     3
         7 000003   200006 235100                    LDA     @RETURN$,,AUTO
         7 000004   200010 757100                    STAQ    @RETURN$+2,,AUTO
PL6.E3A0      #003=Z8EK$RANGE File=Z8EK.:Z8A6TSI                                 SAT 08/09/97 12:05 Page:393
         7 000005   200010 630500                    EPPR0   @RETURN$+2,,AUTO
         7 000006   000001 631400 8                  EPPR1   1
         7 000007   000000 701000 xent               TSX1    Z8ED$NEW_HEAP
         7 000010   000000 011000                    NOP     0

     2449     5678
     2450     5679             %INIT_BINARY_OP (@POINTER = RETURN$,
     2451     5680                              @OP = %OP_AND);

   5682  7 000011   200006 470500                    LDP0    @RETURN$,,AUTO
         7 000012   000000 471500                    LDP1    0,,PR0
         7 000013   000005 220003                    LDX0    5,DU
         7 000014   100000 740100                    STX0    0,,PR1

   5683  7 000015   000000 471500                    LDP1    0,,PR0
         7 000016   000000 221003                    LDX1    0,DU
         7 000017   100000 441100                    SXL1    0,,PR1

   5690  7 000020   000000 471500                    LDP1    0,,PR0
         7 000021   000133 235000 xsym               LDA     COMCOM+91
         7 000022   100005 755100                    STA     5,,PR1

   5691  7 000023   000000 471500                    LDP1    0,,PR0
         7 000024   000134 235000 xsym               LDA     COMCOM+92
         7 000025   100006 755100                    STA     6,,PR1

   5692  7 000026   000000 471500                    LDP1    0,,PR0
         7 000027   000000 236000 8                  LDQ     0
         7 000030   100002 756100                    STQ     2,,PR1

   5693  7 000031   000000 471500                    LDP1    0,,PR0
         7 000032   100001 756100                    STQ     1,,PR1

   5694  7 000033   000000 471500                    LDP1    0,,PR0
         7 000034   000016 235007                    LDA     14,DL
         7 000035   100003 755100                    STA     3,,PR1

PL6.E3A0      #003=Z8EK$RANGE File=Z8EK.:Z8A6TSI                                 SAT 08/09/97 12:05 Page:394
   5695  7 000036   000000 471500                    LDP1    0,,PR0
         7 000037   100007 756100                    STQ     7,,PR1

     2452     5698
     2453     5699    1        CALL Z8EK$COMPARE(VALUE$,

   5699  7 000040   000000 471500                    LDP1    0,,PR0
         7 000041   100001 633500                    EPPR3   1,,PR1
         7 000042   200013 453500                    STP3    @RETURN$+5,,AUTO
         7 000043   200004 236100                    LDQ     @LOWER$,,AUTO
         7 000044   200012 756100                    STQ     @RETURN$+4,,AUTO
         7 000045   000006 236000 8                  LDQ     6
         7 000046   200003 235100                    LDA     @VALUE$,,AUTO
         7 000047   200010 757100                    STAQ    @RETURN$+2,,AUTO
         7 000050   200010 630500                    EPPR0   @RETURN$+2,,AUTO
         7 000051   000004 631400 8                  EPPR1   4
         7 000052   000000 701000 xent               TSX1    Z8EK$COMPARE
         7 000053   000000 011000                    NOP     0

     2454     5700    1                          %OP_GREATER_THAN_OR_EQUAL,
     2455     5701    1                          LOWER$,
     2456     5702    1                          RETURN$ -> BINARY_OP.LOP$);
     2457     5703
     2458     5704    1        CALL Z8EK$COMPARE(VALUE$,

   5704  7 000054   200006 470500                    LDP0    @RETURN$,,AUTO
         7 000055   000000 471500                    LDP1    0,,PR0
         7 000056   100002 633500                    EPPR3   2,,PR1
         7 000057   200013 453500                    STP3    @RETURN$+5,,AUTO
         7 000060   200005 236100                    LDQ     @UPPER$,,AUTO
         7 000061   200012 756100                    STQ     @RETURN$+4,,AUTO
         7 000062   000010 236000 8                  LDQ     8
         7 000063   200003 235100                    LDA     @VALUE$,,AUTO
         7 000064   200010 757100                    STAQ    @RETURN$+2,,AUTO
         7 000065   200010 630500                    EPPR0   @RETURN$+2,,AUTO
         7 000066   000004 631400 8                  EPPR1   4
         7 000067   000000 701000 xent               TSX1    Z8EK$COMPARE
PL6.E3A0      #003=Z8EK$RANGE File=Z8EK.:Z8A6TSI                                 SAT 08/09/97 12:05 Page:395
         7 000070   000000 011000                    NOP     0

     2459     5705    1                          %OP_LESS_THAN_OR_EQUAL,
     2460     5706    1                          UPPER$,
     2461     5707    1                          RETURN$ -> BINARY_OP.ROP$);
     2462     5708
     2463     5709
     2464     5710    1   END Z8EK$RANGE;

   5710  7 000071   000000 702200 xent               TSX2  ! X66_ARET
     2465     5711        %EOD;

PL6.E3A0      #003=Z8EK$RANGE File=Z8EK.:Z8A6TSI                                 SAT 08/09/97 12:05 Page:396
--  Include file information  --

   Z8A_COMCOM.:Z8A6TOU  cannot be made into a system file and is referenced.
   Z8E_ABSSYN.:Z8A6TOU  cannot be made into a system file and is referenced.
   Z8E_HEAP.:Z8A6TOU  cannot be made into a system file and is referenced.
   Z8A_LEX_SYMB.:Z8A6TOU  cannot be made into a system file and is referenced.
   Z8E_STACKS.:Z8A6TOU  cannot be made into a system file and is referenced.
   X8A_COM_MACS.:X8A6TOU  is referenced.
   Z8A_NAMES.:Z8A6TOU  is referenced.
   Z8A_SUPP_MAC.:Z8A6TOU  is referenced.
   Z8A_DEFC.:Z8A6TOU  cannot be made into a system file and is referenced.
      No diagnostics issued in procedure Z8EK$RANGE.
PL6.E3A0      #003=Z8EK$RANGE File=Z8EK.:Z8A6TSI                                 SAT 08/09/97 12:05 Page:397

 **** Variables and constants ****

  ****  Section 000 LblCom ITERATION

  ****  Scalars and arrays  ****
OctLoc.c.b A Datatyp(siz) R M Lvl/name                 OctLoc.c.b A Datatyp(siz) R M Lvl/name

     0-0-0/w SBIN              1 ITERATION

  ****  Section 001 LblCom LEX_SYMBOL

  ****  Scalars and arrays  ****
OctLoc.c.b A Datatyp(siz) R M Lvl/name                 OctLoc.c.b A Datatyp(siz) R M Lvl/name

     0-0-0/w STRC(3240)  r     1 LEX_SYMBOL                 0-0-0/w STRC(3240)        1 LEX_SYMBOL_WORDS

  ****  Section 002 LblCom CURRENT_LEX_SYMBOL$

  ****  Scalars and arrays  ****
OctLoc.c.b A Datatyp(siz) R M Lvl/name                 OctLoc.c.b A Datatyp(siz) R M Lvl/name

     0-0-0/w PTR         r     1 CURRENT_LEX_SYMBOL$

  ****  Section 003 LblCom TEMP_LEX_SYMBOL

  ****  Scalars and arrays  ****
OctLoc.c.b A Datatyp(siz) R M Lvl/name                 OctLoc.c.b A Datatyp(siz) R M Lvl/name

     0-0-0/w STRC(3240)        1 TEMP_LEX_SYMBOL

  ****  Section 004 LblCom TEMP_LEX_SYMBOL2

  ****  Scalars and arrays  ****
OctLoc.c.b A Datatyp(siz) R M Lvl/name                 OctLoc.c.b A Datatyp(siz) R M Lvl/name

     0-0-0/w STRC(3240)        1 TEMP_LEX_SYMBOL2

PL6.E3A0      #003=Z8EK$RANGE File=Z8EK.:Z8A6TSI                                 SAT 08/09/97 12:05 Page:398
  ****  Section 005 LblCom HEAP$

  ****  Scalars and arrays  ****
OctLoc.c.b A Datatyp(siz) R M Lvl/name                 OctLoc.c.b A Datatyp(siz) R M Lvl/name

     0-0-0/w PTR               1 HEAP$

  ****  Section 006 LblCom TEMP_LX_NODE

  ****  Scalars and arrays  ****
OctLoc.c.b A Datatyp(siz) R M Lvl/name                 OctLoc.c.b A Datatyp(siz) R M Lvl/name

     0-0-0/d STRC(288)         1 TEMP_LX_NODE

  ****  Auto variables  ****

  ****  Scalars and arrays  ****
OctLoc.c.b A Datatyp(siz) R M Lvl/name                 OctLoc.c.b A Datatyp(siz) R M Lvl/name

     4-0-0/w PTR         r     1 @LOWER$                    6-0-0/w PTR         r     1 @RETURN$
     5-0-0/w PTR         r     1 @UPPER$                    3-0-0/w PTR         r     1 @VALUE$
    *0-0-0/w PTR         r     1 LOWER$                    *0-0-0/w PTR         r     1 RETURN$
    *0-0-0/w PTR         r     1 UPPER$                    *0-0-0/w PTR         r     1 VALUE$

  ****  SYMREF variables  ****

  ****  Scalars and arrays  ****
OctLoc.c.b A Datatyp(siz) R M Lvl/name                 OctLoc.c.b A Datatyp(siz) R M Lvl/name

     0-0-0/d STRC(13248) r     1 COMCOM

  ****  BASED and DCB variables  ****

  ****  Scalars and arrays  ****
OctLoc.c.b A Datatyp(siz) R M Lvl/name                 OctLoc.c.b A Datatyp(siz) R M Lvl/name

     0-0-0/w STRC(288)         1 ADD_STMT                   0-0-0/w ASTR(324)   r     1 BASED_LEX_SYMBOL
PL6.E3A0      #003=Z8EK$RANGE File=Z8EK.:Z8A6TSI                                 SAT 08/09/97 12:05 Page:399
     0-0-0/w STRC(360)         1 BASED_LEX_SYMBOL_WORDS
     0-0-0/w STRC(288)   r     1 BINARY_OP                  0-0-0/w STRC(288)         1 CALL_STMT
     0-0-0/w CHAR(4096)        1 CHARS                      0-0-0/w STRC(288)         1 COMPUTE_STMT
     0-0-0/w STRC(72)          1 CONT                       0-0-0/w STRC(288)         1 DEFERED_IDENTIFIER
     0-0-0/w STRC(252)         1 DEFERED_ID_TREE            0-0-0/w STRC(288)         1 DEFERED_QUAL_ID
     0-0-0/w STRC(288)         1 DEFERED_SUM_CLAUSE
     0-0-0/w STRC(288)         1 DEFERED_SUM_CLAUSE_LIST
     0-0-0/w STRC(288)         1 DELETE_STMT                0-0-0/w STRC(288)         1 DIVIDE_STMT
     0-0-0/w STRC(288)         1 ILS_LIST                   0-0-0/w STRC(288)         1 INSPECT_1_STMT
     0-0-0/w STRC(288)         1 INSPECT_2_STMT             0-0-0/w STRC(288)         1 INSPECT_4_STMT
     0-0-0/w STRC(288)         1 LA_ITEM                    0-0-0/w STRC(504)         1 LX_CD_INPUT
     0-0-0/w STRC(324)         1 LX_CD_I_O                  0-0-0/w STRC(396)         1 LX_CD_OUTPUT
     0-0-0/w STRC(288)         1 LX_ETT_ITEM                0-0-0/w STRC(288)         1 LX_ITEM
     0-0-0/w STRC(288)         1 LX_LARGE                   0-0-0/w STRC(288)         1 LX_LIST
     0-0-0/w STRC(1224)        1 LX_REC_DECL                0-0-0/w STRC(864)         1 LX_REPORT_REC
     0-0-0/w STRC(288)         1 LX_TERMINAL                0-0-0/w STRC(288)         1 MULTIPLY_STMT
     0-0-0/w STRC(36864)       1 PAGE                       0-0-0/w STRC(288)         1 READ_STMT
     0-0-0/w STRC(288)         1 REWRITE_STMT               0-0-0/w STRC(288)         1 START_STMT
     0-0-0/w STRC(252)         1 STRING_STMT                0-0-0/w STRC(288)         1 SUBTRACT_STMT
     0-0-0/w STRC(288)         1 UNARY_OP                   0-0-0/w STRC(288)         1 UNSTRING_STMT
     0-0-0/w STRC(288)         1 WRITE_STMT


   Procedure Z8EK$RANGE requires 58 words for executable code.
   Procedure Z8EK$RANGE requires 12 words of local(AUTO) storage.

PL6.E3A0      #004=Z8EK$COMPARE File=Z8EK.:Z8A6TSI                               SAT 08/09/97 12:05 Page:400
     2466        1        /*T***********************************************************/
     2467        2        /*T*                                                         */
     2468        3        /*T* Copyright (c) Bull HN Information Systems Inc., 1997    */
     2469        4        /*T*                                                         */
     2470        5        /*T***********************************************************/
     2471        6        Z8EK$COMPARE:PROC(LOP$, OP, ROP$, RETURN$);
     2472        7
     2473        8    1        DCL LOP$        PTR;
     2474        9    1        DCL OP          SBIN WORD;
     2475       10    1        DCL ROP$        PTR;
     2476       11    1        DCL RETURN$     PTR;
     2477       12
     2478       13             %EQU PHASE = 1;
     2479       14             %INCLUDE Z8A_DEFC;
     2480       82             %INCLUDE Z8A_SUPP_MAC;
     2481     2482             %INCLUDE Z8E_STACKS;
     2482     4748             %INCLUDE Z8E_HEAP;
     2483     4804             %INCLUDE Z8E_ABSSYN;
     2484     5010             %INCLUDE Z8A_COMCOM;
     2485     5660
     2486     5661    1        DCL Z8EU$DUP_ABSSYN_TREE ENTRY(2);
     2487     5662
     2488     5663
     2489     5664             %NEW ( @POINTER   = RETURN$ ,
     2490     5665                    @TEMPLATE  = BINARY_OP );
     2491     5675
     2492     5676             %INIT_BINARY_OP ( @POINTER    = RETURN$ ,
     2493     5677                               @LINE       = LOP$ -> LX_ITEM.LINE,
     2494     5678                               @COLUMN     = LOP$ -> LX_ITEM.COLUMN,
     2495     5679                               @OP         = OP );
     2496     5697
     2497     5698    1        CALL Z8EU$DUP_ABSSYN_TREE (LOP$,
     2498     5699    1                                   RETURN$ -> BINARY_OP.LOP$);
     2499     5700
     2500     5701    1        CALL Z8EU$DUP_ABSSYN_TREE (ROP$,
     2501     5702    1                                   RETURN$ -> BINARY_OP.ROP$);
     2502     5703
PL6.E3A0      #004=Z8EK$COMPARE File=Z8EK.:Z8A6TSI                               SAT 08/09/97 12:05 Page:401
     2503     5704    1   END Z8EK$COMPARE;
     2504     5705        %EOD;

PL6.E3A0      #004=Z8EK$COMPARE File=Z8EK.:Z8A6TSI                               SAT 08/09/97 12:05 Page:402
--  Include file information  --

   Z8A_COMCOM.:Z8A6TOU  cannot be made into a system file and is referenced.
   Z8E_ABSSYN.:Z8A6TOU  cannot be made into a system file and is referenced.
   Z8E_HEAP.:Z8A6TOU  cannot be made into a system file and is referenced.
   Z8A_LEX_SYMB.:Z8A6TOU  cannot be made into a system file and is referenced.
   Z8E_STACKS.:Z8A6TOU  cannot be made into a system file and is referenced.
   X8A_COM_MACS.:X8A6TOU  is referenced.
   Z8A_NAMES.:Z8A6TOU  is referenced.
   Z8A_SUPP_MAC.:Z8A6TOU  is referenced.
   Z8A_DEFC.:Z8A6TOU  cannot be made into a system file and is referenced.
      No diagnostics issued in procedure Z8EK$COMPARE.

   Procedure Z8EK$COMPARE requires 56 words for executable code.
   Procedure Z8EK$COMPARE requires 10 words of local(AUTO) storage.

PL6.E3A0      #004=Z8EK$COMPARE File=Z8EK.:Z8A6TSI                               SAT 08/09/97 12:05 Page:403

 Object Unit name= Z8EK$COMPARE                               File name= Z8EK.:Z8A6TOU
 UTS= AUG 09 '97 12:05:53.92 SAT                              Compiler= PL-6/E31         Sev=      00
 SharedLib= :SHARED_SYSTEM                                    Alt SharedLib=


    ****  Control sections  ****

 Sect   Type Bound  Init  Size OctSiz  Section name(segment info)
    0  LblCom even  none     1      1  ITERATION
    1  LblCom even  none    90    132  LEX_SYMBOL
    2  LblCom even  none     1      1  CURRENT_LEX_SYMBOL$
    3  LblCom even  none    90    132  TEMP_LEX_SYMBOL
    4  LblCom even  none    90    132  TEMP_LEX_SYMBOL2
    5  LblCom even  none     1      1  HEAP$
    6  LblCom even  none     8     10  TEMP_LX_NODE
    7   Proc  even  none    56     70  Z8EK$COMPARE
    8  RoData even  none     4      4  Z8EK$COMPARE

    ****  Entry defs  ****

                              Check   Calling
                             calling  sequence
  Sect OctLoc Primary Altret sequence   type   Parms  Name
     7      0   yes            yes      Std        4  Z8EK$COMPARE

  ****  Entry refs  ****

         Check        Calling
        calling       sequence
Altret sequence SRef   type   Args  Name
         yes           Std       2 Z8ED$NEW_HEAP
         yes           Std       2 Z8EU$DUP_ABSSYN_TREE
                       nStd      0 X66_AUTO_4
                       nStd      0 X66_ARET
PL6.E3A0      #004=Z8EK$COMPARE File=Z8EK.:Z8A6TSI                               SAT 08/09/97 12:05 Page:404

  ****  Data refs  ****

  Flags:  r = read only, s = secondary
Flgs Name                             Flgs Name                             Flgs Name
     COMCOM

  ****  Segment refs  ****

  Flags:  r = read only, s = secondary
Flgs Name                             Flgs Name                             Flgs Name
     ISSID                                 NULLSID
PL6.E3A0      #004=Z8EK$COMPARE File=Z8EK.:Z8A6TSI                               SAT 08/09/97 12:05 Page:405


     2466        1        /*T***********************************************************/
     2467        2        /*T*                                                         */
     2468        3        /*T* Copyright (c) Bull HN Information Systems Inc., 1997    */
     2469        4        /*T*                                                         */
     2470        5        /*T***********************************************************/
     2471        6        Z8EK$COMPARE:PROC(LOP$, OP, ROP$, RETURN$);

      6  7 000000   000000 700200 xent  Z8EK$COMPARE TSX0  ! X66_AUTO_4
         7 000001   000012 000004                    ZERO    10,4

     2472        7
     2473        8    1        DCL LOP$        PTR;
     2474        9    1        DCL OP          SBIN WORD;
     2475       10    1        DCL ROP$        PTR;
     2476       11    1        DCL RETURN$     PTR;
     2477       12
     2478       13             %EQU PHASE = 1;
     2479       14             %INCLUDE Z8A_DEFC;
     2480       82             %INCLUDE Z8A_SUPP_MAC;
     2481     2482             %INCLUDE Z8E_STACKS;
     2482     4748             %INCLUDE Z8E_HEAP;
     2483     4804             %INCLUDE Z8E_ABSSYN;
     2484     5010             %INCLUDE Z8A_COMCOM;
     2485     5660
     2486     5661    1        DCL Z8EU$DUP_ABSSYN_TREE ENTRY(2);
     2487     5662
     2488     5663
     2489     5664             %NEW ( @POINTER   = RETURN$ ,
     2490     5665                    @TEMPLATE  = BINARY_OP );

   5671  7 000002   000003 236000 8                  LDQ     3
         7 000003   200006 235100                    LDA     @RETURN$,,AUTO
         7 000004   200010 757100                    STAQ    @RETURN$+2,,AUTO
         7 000005   200010 630500                    EPPR0   @RETURN$+2,,AUTO
         7 000006   000001 631400 8                  EPPR1   1
         7 000007   000000 701000 xent               TSX1    Z8ED$NEW_HEAP
PL6.E3A0      #004=Z8EK$COMPARE File=Z8EK.:Z8A6TSI                               SAT 08/09/97 12:05 Page:406
         7 000010   000000 011000                    NOP     0

     2491     5675
     2492     5676             %INIT_BINARY_OP ( @POINTER    = RETURN$ ,
     2493     5677                               @LINE       = LOP$ -> LX_ITEM.LINE,
     2494     5678                               @COLUMN     = LOP$ -> LX_ITEM.COLUMN,
     2495     5679                               @OP         = OP );

   5681  7 000011   200006 470500                    LDP0    @RETURN$,,AUTO
         7 000012   000000 471500                    LDP1    0,,PR0
         7 000013   000005 220003                    LDX0    5,DU
         7 000014   100000 740100                    STX0    0,,PR1

   5682  7 000015   000000 471500                    LDP1    0,,PR0
         7 000016   000000 221003                    LDX1    0,DU
         7 000017   100000 441100                    SXL1    0,,PR1

   5689  7 000020   000000 471500                    LDP1    0,,PR0
         7 000021   200003 473500                    LDP3    @LOP$,,AUTO
         7 000022   300000 474500                    LDP4    0,,PR3
         7 000023   400005 235100                    LDA     5,,PR4
         7 000024   100005 755100                    STA     5,,PR1

   5690  7 000025   000000 471500                    LDP1    0,,PR0
         7 000026   300000 474500                    LDP4    0,,PR3
         7 000027   400006 235100                    LDA     6,,PR4
         7 000030   100006 755100                    STA     6,,PR1

   5691  7 000031   000000 471500                    LDP1    0,,PR0
         7 000032   000000 236000 8                  LDQ     0
         7 000033   100002 756100                    STQ     2,,PR1

   5692  7 000034   000000 471500                    LDP1    0,,PR0
         7 000035   100001 756100                    STQ     1,,PR1

   5693  7 000036   000000 471500                    LDP1    0,,PR0
         7 000037   200004 474500                    LDP4    @OP,,AUTO
PL6.E3A0      #004=Z8EK$COMPARE File=Z8EK.:Z8A6TSI                               SAT 08/09/97 12:05 Page:407
         7 000040   400000 235100                    LDA     0,,PR4
         7 000041   100003 755100                    STA     3,,PR1

   5694  7 000042   000000 471500                    LDP1    0,,PR0
         7 000043   100007 756100                    STQ     7,,PR1

     2496     5697
     2497     5698    1        CALL Z8EU$DUP_ABSSYN_TREE (LOP$,

   5698  7 000044   000000 471500                    LDP1    0,,PR0
         7 000045   100001 635500                    EPPR5   1,,PR1
         7 000046   200011 455500                    STP5    @RETURN$+3,,AUTO
         7 000047   200003 236100                    LDQ     @LOP$,,AUTO
         7 000050   200010 756100                    STQ     @RETURN$+2,,AUTO
         7 000051   200010 630500                    EPPR0   @RETURN$+2,,AUTO
         7 000052   000001 631400 8                  EPPR1   1
         7 000053   000000 701000 xent               TSX1    Z8EU$DUP_ABSSYN_TREE
         7 000054   000000 011000                    NOP     0

     2498     5699    1                                   RETURN$ -> BINARY_OP.LOP$);
     2499     5700
     2500     5701    1        CALL Z8EU$DUP_ABSSYN_TREE (ROP$,

   5701  7 000055   200006 470500                    LDP0    @RETURN$,,AUTO
         7 000056   000000 471500                    LDP1    0,,PR0
         7 000057   100002 633500                    EPPR3   2,,PR1
         7 000060   200011 453500                    STP3    @RETURN$+3,,AUTO
         7 000061   200005 236100                    LDQ     @ROP$,,AUTO
         7 000062   200010 756100                    STQ     @RETURN$+2,,AUTO
         7 000063   200010 630500                    EPPR0   @RETURN$+2,,AUTO
         7 000064   000001 631400 8                  EPPR1   1
         7 000065   000000 701000 xent               TSX1    Z8EU$DUP_ABSSYN_TREE
         7 000066   000000 011000                    NOP     0

     2501     5702    1                                   RETURN$ -> BINARY_OP.ROP$);
     2502     5703
     2503     5704    1   END Z8EK$COMPARE;
PL6.E3A0      #004=Z8EK$COMPARE File=Z8EK.:Z8A6TSI                               SAT 08/09/97 12:05 Page:408

   5704  7 000067   000000 702200 xent               TSX2  ! X66_ARET
     2504     5705        %EOD;

PL6.E3A0      #004=Z8EK$COMPARE File=Z8EK.:Z8A6TSI                               SAT 08/09/97 12:05 Page:409
--  Include file information  --

   Z8A_COMCOM.:Z8A6TOU  cannot be made into a system file and is referenced.
   Z8E_ABSSYN.:Z8A6TOU  cannot be made into a system file and is referenced.
   Z8E_HEAP.:Z8A6TOU  cannot be made into a system file and is referenced.
   Z8A_LEX_SYMB.:Z8A6TOU  cannot be made into a system file and is referenced.
   Z8E_STACKS.:Z8A6TOU  cannot be made into a system file and is referenced.
   X8A_COM_MACS.:X8A6TOU  is referenced.
   Z8A_NAMES.:Z8A6TOU  is referenced.
   Z8A_SUPP_MAC.:Z8A6TOU  is referenced.
   Z8A_DEFC.:Z8A6TOU  cannot be made into a system file and is referenced.
      No diagnostics issued in procedure Z8EK$COMPARE.
PL6.E3A0      #004=Z8EK$COMPARE File=Z8EK.:Z8A6TSI                               SAT 08/09/97 12:05 Page:410

 **** Variables and constants ****

  ****  Section 000 LblCom ITERATION

  ****  Scalars and arrays  ****
OctLoc.c.b A Datatyp(siz) R M Lvl/name                 OctLoc.c.b A Datatyp(siz) R M Lvl/name

     0-0-0/w SBIN              1 ITERATION

  ****  Section 001 LblCom LEX_SYMBOL

  ****  Scalars and arrays  ****
OctLoc.c.b A Datatyp(siz) R M Lvl/name                 OctLoc.c.b A Datatyp(siz) R M Lvl/name

     0-0-0/w STRC(3240)  r     1 LEX_SYMBOL                 0-0-0/w STRC(3240)        1 LEX_SYMBOL_WORDS

  ****  Section 002 LblCom CURRENT_LEX_SYMBOL$

  ****  Scalars and arrays  ****
OctLoc.c.b A Datatyp(siz) R M Lvl/name                 OctLoc.c.b A Datatyp(siz) R M Lvl/name

     0-0-0/w PTR         r     1 CURRENT_LEX_SYMBOL$

  ****  Section 003 LblCom TEMP_LEX_SYMBOL

  ****  Scalars and arrays  ****
OctLoc.c.b A Datatyp(siz) R M Lvl/name                 OctLoc.c.b A Datatyp(siz) R M Lvl/name

     0-0-0/w STRC(3240)        1 TEMP_LEX_SYMBOL

  ****  Section 004 LblCom TEMP_LEX_SYMBOL2

  ****  Scalars and arrays  ****
OctLoc.c.b A Datatyp(siz) R M Lvl/name                 OctLoc.c.b A Datatyp(siz) R M Lvl/name

     0-0-0/w STRC(3240)        1 TEMP_LEX_SYMBOL2

PL6.E3A0      #004=Z8EK$COMPARE File=Z8EK.:Z8A6TSI                               SAT 08/09/97 12:05 Page:411
  ****  Section 005 LblCom HEAP$

  ****  Scalars and arrays  ****
OctLoc.c.b A Datatyp(siz) R M Lvl/name                 OctLoc.c.b A Datatyp(siz) R M Lvl/name

     0-0-0/w PTR               1 HEAP$

  ****  Section 006 LblCom TEMP_LX_NODE

  ****  Scalars and arrays  ****
OctLoc.c.b A Datatyp(siz) R M Lvl/name                 OctLoc.c.b A Datatyp(siz) R M Lvl/name

     0-0-0/d STRC(288)         1 TEMP_LX_NODE

  ****  Auto variables  ****

  ****  Scalars and arrays  ****
OctLoc.c.b A Datatyp(siz) R M Lvl/name                 OctLoc.c.b A Datatyp(siz) R M Lvl/name

     3-0-0/w PTR         r     1 @LOP$                      4-0-0/w PTR         r     1 @OP
     6-0-0/w PTR         r     1 @RETURN$                   5-0-0/w PTR         r     1 @ROP$
    *0-0-0/w PTR         r     1 LOP$                      *0-0-0/w SBIN        r     1 OP
    *0-0-0/w PTR         r     1 RETURN$                   *0-0-0/w PTR         r     1 ROP$

  ****  SYMREF variables  ****

  ****  Scalars and arrays  ****
OctLoc.c.b A Datatyp(siz) R M Lvl/name                 OctLoc.c.b A Datatyp(siz) R M Lvl/name

     0-0-0/d STRC(13248)       1 COMCOM

  ****  BASED and DCB variables  ****

  ****  Scalars and arrays  ****
OctLoc.c.b A Datatyp(siz) R M Lvl/name                 OctLoc.c.b A Datatyp(siz) R M Lvl/name

     0-0-0/w STRC(288)         1 ADD_STMT                   0-0-0/w ASTR(324)   r     1 BASED_LEX_SYMBOL
PL6.E3A0      #004=Z8EK$COMPARE File=Z8EK.:Z8A6TSI                               SAT 08/09/97 12:05 Page:412
     0-0-0/w STRC(360)         1 BASED_LEX_SYMBOL_WORDS
     0-0-0/w STRC(288)   r     1 BINARY_OP                  0-0-0/w STRC(288)         1 CALL_STMT
     0-0-0/w CHAR(4096)        1 CHARS                      0-0-0/w STRC(288)         1 COMPUTE_STMT
     0-0-0/w STRC(72)          1 CONT                       0-0-0/w STRC(288)         1 DEFERED_IDENTIFIER
     0-0-0/w STRC(252)         1 DEFERED_ID_TREE            0-0-0/w STRC(288)         1 DEFERED_QUAL_ID
     0-0-0/w STRC(288)         1 DEFERED_SUM_CLAUSE
     0-0-0/w STRC(288)         1 DEFERED_SUM_CLAUSE_LIST
     0-0-0/w STRC(288)         1 DELETE_STMT                0-0-0/w STRC(288)         1 DIVIDE_STMT
     0-0-0/w STRC(288)         1 ILS_LIST                   0-0-0/w STRC(288)         1 INSPECT_1_STMT
     0-0-0/w STRC(288)         1 INSPECT_2_STMT             0-0-0/w STRC(288)         1 INSPECT_4_STMT
     0-0-0/w STRC(288)         1 LA_ITEM                    0-0-0/w STRC(504)         1 LX_CD_INPUT
     0-0-0/w STRC(324)         1 LX_CD_I_O                  0-0-0/w STRC(396)         1 LX_CD_OUTPUT
     0-0-0/w STRC(288)         1 LX_ETT_ITEM                0-0-0/w STRC(288)   r     1 LX_ITEM
     0-0-0/w STRC(288)         1 LX_LARGE                   0-0-0/w STRC(288)         1 LX_LIST
     0-0-0/w STRC(1224)        1 LX_REC_DECL                0-0-0/w STRC(864)         1 LX_REPORT_REC
     0-0-0/w STRC(288)         1 LX_TERMINAL                0-0-0/w STRC(288)         1 MULTIPLY_STMT
     0-0-0/w STRC(36864)       1 PAGE                       0-0-0/w STRC(288)         1 READ_STMT
     0-0-0/w STRC(288)         1 REWRITE_STMT               0-0-0/w STRC(288)         1 START_STMT
     0-0-0/w STRC(252)         1 STRING_STMT                0-0-0/w STRC(288)         1 SUBTRACT_STMT
     0-0-0/w STRC(288)         1 UNARY_OP                   0-0-0/w STRC(288)         1 UNSTRING_STMT
     0-0-0/w STRC(288)         1 WRITE_STMT


   Procedure Z8EK$COMPARE requires 56 words for executable code.
   Procedure Z8EK$COMPARE requires 10 words of local(AUTO) storage.

PL6.E3A0      #005=Z8EK$ABBREV_COMPARE File=Z8EK.:Z8A6TSI                        SAT 08/09/97 12:06 Page:413
     2505        1        /*T***********************************************************/
     2506        2        /*T*                                                         */
     2507        3        /*T* Copyright (c) Bull HN Information Systems Inc., 1997    */
     2508        4        /*T*                                                         */
     2509        5        /*T***********************************************************/
     2510        6        Z8EK$ABBREV_COMPARE:PROC(LOP$, OP, TREE$, RESULT$);
     2511        7
     2512        8    1   DCL LOP$    PTR;
     2513        9    1   DCL OP      UBIN;
     2514       10    1   DCL TREE$   PTR;
     2515       11    1   DCL RESULT$ PTR;
     2516       12
     2517       13        %EQU PHASE = 1;
     2518       14        %INCLUDE Z8A_DEFC;
     2519       82        %INCLUDE Z8A_SUPP_MAC;
     2520     2482        %INCLUDE Z8A_ILL;
     2521     3175        %INCLUDE Z8A_ERR_NUMS;
     2522     3939        %INCLUDE Z8E_WINDOW;
     2523     6009        %INCLUDE Z8E_STACKS;
     2524     8275        %INCLUDE Z8E_O1COM;
     2525     9036        %INCLUDE Z8E_ABSSYN;
     2526     9242        %INCLUDE Z8E_HEAP;
     2527     9298
     2528     9299    1   DCL OP1$ PTR;
     2529     9300    1   DCL OP2$ PTR;
     2530     9301    1   DCL OP1  UBIN;
     2531     9302
     2532     9303    1   DCL Z8AE$ERROR ENTRY (12);
     2533     9304        %EJECT;
PL6.E3A0      #005=Z8EK$ABBREV_COMPARE File=Z8EK.:Z8A6TSI                        SAT 08/09/97 12:06 Page:414
     2534     9305    1          OP1 = OP;
     2535     9306    1          IF TREE$ -> LX_ITEM.ID = %BINARY_OP THEN
     2536     9307    2            DO CASE (TREE$ -> BINARY_OP.OP);
     2537     9308    2              CASE (%OP_OR, %OP_AND);
     2538     9309                     %NEW_HEAP (@POINTER = OP1$);
     2539     9314                     %NEW_HEAP (@POINTER = OP2$);
     2540     9319    2                CALL Z8EK$ABBREV_COMPARE (LOP$,
     2541     9320    2                                          OP,
     2542     9321    2                                          TREE$ -> BINARY_OP.LOP$,
     2543     9322    2                                          OP1$);
     2544     9323    2                CALL Z8EK$ABBREV_COMPARE (LOP$,
     2545     9324    2                                          OP,
     2546     9325    2                                          TREE$ -> BINARY_OP.ROP$,
     2547     9326    2                                          OP2$);
     2548     9327                     %INIT_BINARY_OP (@POINTER = RESULT$,
     2549     9328                                      @LINE = TREE$ -> BINARY_OP.LINE,
     2550     9329                                      @COLUMN = TREE$ -> BINARY_OP.COLUMN,
     2551     9330                                      @HIGH_LEV = TRUE,
     2552     9331                                      @LOP$ = OP1$,
     2553     9332                                      @ROP$ = OP2$,
     2554     9333                                      @OP = TREE$ -> BINARY_OP.OP);
     2555     9351                     %DISPOSE_HEAP (@POINTER = TREE$);
     2556     9356    2              CASE (ELSE);
     2557     9357                     %NEW_COPY_LX_ITEM (@FROM$ = LOP$,
     2558     9358                                        @TO$ = OP1$);
     2559     9370                     %INIT_BINARY_OP (@POINTER = RESULT$,
     2560     9371                                      @LINE = TREE$ -> BINARY_OP.LINE,
     2561     9372                                      @COLUMN = TREE$ -> BINARY_OP.COLUMN,
     2562     9373                                      @HIGH_LEV = TRUE,
     2563     9374                                      @LOP$ = OP1$,
     2564     9375                                      @ROP$ = TREE$,
     2565     9376                                      @OP = OP1);
     2566     9394    2                IF TREE$ -> LX_ITEM.B.NEGATE THEN
     2567     9395    3                  DO;
     2568     9396                         %NEW_COPY_LX_ITEM (@FROM$ = RESULT$,
     2569     9397                                            @TO$ = OP1$);
     2570     9409                         %INIT_UNARY_OP (@POINTER = RESULT$,
PL6.E3A0      #005=Z8EK$ABBREV_COMPARE File=Z8EK.:Z8A6TSI                        SAT 08/09/97 12:06 Page:415
     2571     9410                                         @LINE = TREE$ -> BINARY_OP.LINE,
     2572     9411                                         @COLUMN = TREE$ -> BINARY_OP.COLUMN,
     2573     9412                                         @HIGH_LEV = TRUE,
     2574     9413                                         @LOP$ = OP1$,
     2575     9414                                         @OP = %OP_NOT);
     2576     9431    3                  END;
     2577     9432    2            END;
     2578     9433    1          ELSE
     2579     9434    2            DO;
     2580     9435                   %NEW_COPY_LX_ITEM (@FROM$ = LOP$,
     2581     9436                                      @TO$ = OP1$);
     2582     9448                   %INIT_BINARY_OP (@POINTER = RESULT$,
     2583     9449                                    @LINE = TREE$ -> LX_ITEM.LINE,
     2584     9450                                    @COLUMN = TREE$ -> LX_ITEM.COLUMN,
     2585     9451                                    @HIGH_LEV = TRUE,
     2586     9452                                    @LOP$ = OP1$,
     2587     9453                                    @ROP$ = TREE$,
     2588     9454                                    @OP = OP1);
     2589     9472    2              IF TREE$ -> LX_ITEM.B.NEGATE THEN
     2590     9473    3                DO;
     2591     9474                       %NEW_COPY_LX_ITEM (@FROM$ = RESULT$,
     2592     9475                                          @TO$ = OP1$);
     2593     9487                       %INIT_UNARY_OP (@POINTER = RESULT$,
     2594     9488                                       @LINE = TREE$ -> BINARY_OP.LINE,
     2595     9489                                       @COLUMN = TREE$ -> BINARY_OP.COLUMN,
     2596     9490                                       @HIGH_LEV = TRUE,
     2597     9491                                       @LOP$ = OP1$,
     2598     9492                                       @OP = %OP_NOT);
     2599     9509    3                END;
     2600     9510    2            END;
     2601     9511    1   END Z8EK$ABBREV_COMPARE;

PL6.E3A0      #005=Z8EK$ABBREV_COMPARE File=Z8EK.:Z8A6TSI                        SAT 08/09/97 12:06 Page:416
--  Include file information  --

   Z8E_HEAP.:Z8A6TOU  cannot be made into a system file and is referenced.
   Z8E_ABSSYN.:Z8A6TOU  cannot be made into a system file and is referenced.
   Z8E_O1COM.:Z8A6TOU  cannot be made into a system file and is referenced.
   Z8A_LEX_SYMB.:Z8A6TOU  cannot be made into a system file and is referenced.
   Z8E_STACKS.:Z8A6TOU  cannot be made into a system file and is referenced.
   Z8E_WINDOW.:Z8A6TOU  is referenced.
   Z8A_ERR_NUMS.:Z8A6TOU  is referenced.
   Z8A_ILL.:Z8A6TOU  cannot be made into a system file and is referenced.
   X8A_COM_MACS.:X8A6TOU  is referenced.
   Z8A_NAMES.:Z8A6TOU  is referenced.
   Z8A_SUPP_MAC.:Z8A6TOU  is referenced.
   Z8A_DEFC.:Z8A6TOU  cannot be made into a system file and is referenced.
      No diagnostics issued in procedure Z8EK$ABBREV_COMPARE.

   Procedure Z8EK$ABBREV_COMPARE requires 291 words for executable code.
   Procedure Z8EK$ABBREV_COMPARE requires 14 words of local(AUTO) storage.

    No errors detected in file Z8EK.:Z8A6TSI    .

PL6.E3A0      #005=Z8EK$ABBREV_COMPARE File=Z8EK.:Z8A6TSI                        SAT 08/09/97 12:06 Page:417

 Object Unit name= Z8EK$ABBREV_COMPARE                        File name= Z8EK.:Z8A6TOU
 UTS= AUG 09 '97 12:06:37.36 SAT                              Compiler= PL-6/E31         Sev=      00
 SharedLib= :SHARED_SYSTEM                                    Alt SharedLib=


    ****  Control sections  ****

 Sect   Type Bound  Init  Size OctSiz  Section name(segment info)
    0  LblCom even  none     1      1  ITERATION
    1  LblCom even  none     1      1  ILL$
    2  LblCom even  none     5      5  ILL_
    3  LblCom even  none    90    132  LEX_SYMBOL
    4  LblCom even  none     1      1  CURRENT_LEX_SYMBOL$
    5  LblCom even  none    90    132  TEMP_LEX_SYMBOL
    6  LblCom even  none    90    132  TEMP_LEX_SYMBOL2
    7  LblCom even  none     8     10  TEMP_LX_NODE
    8  LblCom even  none     1      1  HEAP$
    9   Proc  even  none   291    443  Z8EK$ABBREV_COMPARE
   10  RoData even  none     5      5  Z8EK$ABBREV_COMPARE

    ****  Entry defs  ****

                              Check   Calling
                             calling  sequence
  Sect OctLoc Primary Altret sequence   type   Parms  Name
     9      0   yes            yes      Std        4  Z8EK$ABBREV_COMPARE

  ****  Entry refs  ****

         Check        Calling
        calling       sequence
Altret sequence SRef   type   Args  Name
         yes           Std       2 Z8ED$NEW_HEAP
         yes           Std       2 Z8ED$DISPOSE_HEAP
                       nStd      0 X66_AUTO_4
                       nStd      0 X66_ARET
PL6.E3A0      #005=Z8EK$ABBREV_COMPARE File=Z8EK.:Z8A6TSI                        SAT 08/09/97 12:06 Page:418

  ****  Data refs  ****

  Flags:  r = read only, s = secondary
Flgs Name                             Flgs Name                             Flgs Name
r    ILL_STEP                              O1COM                                 HIER_STK_PTR
     HIER_STK                              PAGE_FORMAT                           REP_STK_PTR
     REP_STK

  ****  Segment refs  ****

  Flags:  r = read only, s = secondary
Flgs Name                             Flgs Name                             Flgs Name
     NULLSID                               ISSID
PL6.E3A0      #005=Z8EK$ABBREV_COMPARE File=Z8EK.:Z8A6TSI                        SAT 08/09/97 12:06 Page:419


     2505        1        /*T***********************************************************/
     2506        2        /*T*                                                         */
     2507        3        /*T* Copyright (c) Bull HN Information Systems Inc., 1997    */
     2508        4        /*T*                                                         */
     2509        5        /*T***********************************************************/
     2510        6        Z8EK$ABBREV_COMPARE:PROC(LOP$, OP, TREE$, RESULT$);

      6  9 000000   000000 700200 xent  Z8EK$ABBREV* TSX0  ! X66_AUTO_4
         9 000001   000016 000004                    ZERO    14,4

     2511        7
     2512        8    1   DCL LOP$    PTR;
     2513        9    1   DCL OP      UBIN;
     2514       10    1   DCL TREE$   PTR;
     2515       11    1   DCL RESULT$ PTR;
     2516       12
     2517       13        %EQU PHASE = 1;
     2518       14        %INCLUDE Z8A_DEFC;
     2519       82        %INCLUDE Z8A_SUPP_MAC;
     2520     2482        %INCLUDE Z8A_ILL;
     2521     3175        %INCLUDE Z8A_ERR_NUMS;
     2522     3939        %INCLUDE Z8E_WINDOW;
     2523     6009        %INCLUDE Z8E_STACKS;
     2524     8275        %INCLUDE Z8E_O1COM;
     2525     9036        %INCLUDE Z8E_ABSSYN;
     2526     9242        %INCLUDE Z8E_HEAP;
     2527     9298
     2528     9299    1   DCL OP1$ PTR;
     2529     9300    1   DCL OP2$ PTR;
     2530     9301    1   DCL OP1  UBIN;
     2531     9302
     2532     9303    1   DCL Z8AE$ERROR ENTRY (12);
     2533     9304        %EJECT;
PL6.E3A0      #005=Z8EK$ABBREV_COMPARE File=Z8EK.:Z8A6TSI                        SAT 08/09/97 12:06 Page:420
     2534     9305    1          OP1 = OP;

   9305  9 000002   200004 470500                    LDP0    @OP,,AUTO
         9 000003   000000 235100                    LDA     0,,PR0
         9 000004   200011 755100                    STA     OP1,,AUTO

     2535     9306    1          IF TREE$ -> LX_ITEM.ID = %BINARY_OP THEN

   9306  9 000005   200005 471500                    LDP1    @TREE$,,AUTO
         9 000006   100000 473500                    LDP3    0,,PR1
         9 000007   300000 220100                    LDX0    0,,PR3
         9 000010   000005 100003                    CMPX0   5,DU
         9 000011   000303 601000 9                  TNZ     s:9441

     2536     9307    2            DO CASE (TREE$ -> BINARY_OP.OP);

   9307  9 000012   300003 235100                    LDA     3,,PR3
         9 000013   000016 135007                    SBLA    14,DL
         9 000014   000002 115007                    CMPA    2,DL
         9 000015   000017 602005 9                  TNC     s:9307+5,AL
         9 000016   000143 710000 9                  TRA     s:9363
         9 000017   000021 710000 9                  TRA     s:9311
         9 000020   000021 710000 9                  TRA     s:9311

     2537     9308    2              CASE (%OP_OR, %OP_AND);

     2538     9309                     %NEW_HEAP (@POINTER = OP1$);

   9311  9 000021   000003 236000 10                 LDQ     3
         9 000022   200013 756100                    STQ     OP1+2,,AUTO
         9 000023   200007 633500                    EPPR3   OP1$,,AUTO
         9 000024   200012 453500                    STP3    OP1+1,,AUTO
         9 000025   200012 630500                    EPPR0   OP1+1,,AUTO
         9 000026   000001 631400 10                 EPPR1   1
         9 000027   000000 701000 xent               TSX1    Z8ED$NEW_HEAP
         9 000030   000000 011000                    NOP     0

PL6.E3A0      #005=Z8EK$ABBREV_COMPARE File=Z8EK.:Z8A6TSI                        SAT 08/09/97 12:06 Page:421
     2539     9314                     %NEW_HEAP (@POINTER = OP2$);

   9316  9 000031   000003 236000 10                 LDQ     3
         9 000032   200013 756100                    STQ     OP1+2,,AUTO
         9 000033   200010 630500                    EPPR0   OP2$,,AUTO
         9 000034   200012 450500                    STP0    OP1+1,,AUTO
         9 000035   200012 630500                    EPPR0   OP1+1,,AUTO
         9 000036   000001 631400 10                 EPPR1   1
         9 000037   000000 701000 xent               TSX1    Z8ED$NEW_HEAP
         9 000040   000000 011000                    NOP     0

     2540     9319    2                CALL Z8EK$ABBREV_COMPARE (LOP$,

   9319  9 000041   200005 470500                    LDP0    @TREE$,,AUTO
         9 000042   000000 471500                    LDP1    0,,PR0
         9 000043   200007 633500                    EPPR3   OP1$,,AUTO
         9 000044   200015 453500                    STP3    OP1+4,,AUTO
         9 000045   100001 634500                    EPPR4   1,,PR1
         9 000046   200014 454500                    STP4    OP1+3,,AUTO
         9 000047   200004 236100                    LDQ     @OP,,AUTO
         9 000050   200003 235100                    LDA     @LOP$,,AUTO
         9 000051   200012 757100                    STAQ    OP1+1,,AUTO
         9 000052   200012 630500                    EPPR0   OP1+1,,AUTO
         9 000053   000004 631400 10                 EPPR1   4
         9 000054   000000 701000 9                  TSX1    s:6
         9 000055   000000 011000                    NOP     0

     2541     9320    2                                          OP,
     2542     9321    2                                          TREE$ -> BINARY_OP.LOP$,
     2543     9322    2                                          OP1$);
     2544     9323    2                CALL Z8EK$ABBREV_COMPARE (LOP$,

   9323  9 000056   200005 470500                    LDP0    @TREE$,,AUTO
         9 000057   000000 471500                    LDP1    0,,PR0
         9 000060   200010 633500                    EPPR3   OP2$,,AUTO
         9 000061   200015 453500                    STP3    OP1+4,,AUTO
         9 000062   100002 634500                    EPPR4   2,,PR1
PL6.E3A0      #005=Z8EK$ABBREV_COMPARE File=Z8EK.:Z8A6TSI                        SAT 08/09/97 12:06 Page:422
         9 000063   200014 454500                    STP4    OP1+3,,AUTO
         9 000064   200004 236100                    LDQ     @OP,,AUTO
         9 000065   200003 235100                    LDA     @LOP$,,AUTO
         9 000066   200012 757100                    STAQ    OP1+1,,AUTO
         9 000067   200012 630500                    EPPR0   OP1+1,,AUTO
         9 000070   000004 631400 10                 EPPR1   4
         9 000071   000000 701000 9                  TSX1    s:6
         9 000072   000000 011000                    NOP     0

     2545     9324    2                                          OP,
     2546     9325    2                                          TREE$ -> BINARY_OP.ROP$,
     2547     9326    2                                          OP2$);
     2548     9327                     %INIT_BINARY_OP (@POINTER = RESULT$,
     2549     9328                                      @LINE = TREE$ -> BINARY_OP.LINE,
     2550     9329                                      @COLUMN = TREE$ -> BINARY_OP.COLUMN,
     2551     9330                                      @HIGH_LEV = TRUE,
     2552     9331                                      @LOP$ = OP1$,
     2553     9332                                      @ROP$ = OP2$,
     2554     9333                                      @OP = TREE$ -> BINARY_OP.OP);

   9335  9 000073   200006 470500                    LDP0    @RESULT$,,AUTO
         9 000074   000000 471500                    LDP1    0,,PR0
         9 000075   000005 220003                    LDX0    5,DU
         9 000076   100000 740100                    STX0    0,,PR1

   9336  9 000077   000000 471500                    LDP1    0,,PR0
         9 000100   000000 221003                    LDX1    0,DU
         9 000101   100000 441100                    SXL1    0,,PR1

   9341  9 000102   000000 471500                    LDP1    0,,PR0
         9 000103   004000 236007                    LDQ     2048,DL
         9 000104   100000 256100                    ORSQ    0,,PR1

   9343  9 000105   000000 471500                    LDP1    0,,PR0
         9 000106   200005 473500                    LDP3    @TREE$,,AUTO
         9 000107   300000 474500                    LDP4    0,,PR3
         9 000110   400005 235100                    LDA     5,,PR4
PL6.E3A0      #005=Z8EK$ABBREV_COMPARE File=Z8EK.:Z8A6TSI                        SAT 08/09/97 12:06 Page:423
         9 000111   100005 755100                    STA     5,,PR1

   9344  9 000112   000000 471500                    LDP1    0,,PR0
         9 000113   300000 474500                    LDP4    0,,PR3
         9 000114   400006 235100                    LDA     6,,PR4
         9 000115   100006 755100                    STA     6,,PR1

   9345  9 000116   000000 471500                    LDP1    0,,PR0
         9 000117   200010 236100                    LDQ     OP2$,,AUTO
         9 000120   100002 756100                    STQ     2,,PR1

   9346  9 000121   000000 471500                    LDP1    0,,PR0
         9 000122   200007 236100                    LDQ     OP1$,,AUTO
         9 000123   100001 756100                    STQ     1,,PR1

   9347  9 000124   000000 471500                    LDP1    0,,PR0
         9 000125   300000 474500                    LDP4    0,,PR3
         9 000126   400003 235100                    LDA     3,,PR4
         9 000127   100003 755100                    STA     3,,PR1

   9348  9 000130   000000 471500                    LDP1    0,,PR0
         9 000131   000000 236000 10                 LDQ     0
         9 000132   100007 756100                    STQ     7,,PR1

     2555     9351                     %DISPOSE_HEAP (@POINTER = TREE$);

   9353  9 000133   000003 236000 10                 LDQ     3
         9 000134   200005 235100                    LDA     @TREE$,,AUTO
         9 000135   200012 757100                    STAQ    OP1+1,,AUTO
         9 000136   200012 630500                    EPPR0   OP1+1,,AUTO
         9 000137   000001 631400 10                 EPPR1   1
         9 000140   000000 701000 xent               TSX1    Z8ED$DISPOSE_HEAP
         9 000141   000000 011000                    NOP     0

   9354  9 000142   000442 710000 9                  TRA     s:9511

     2556     9356    2              CASE (ELSE);
PL6.E3A0      #005=Z8EK$ABBREV_COMPARE File=Z8EK.:Z8A6TSI                        SAT 08/09/97 12:06 Page:424

     2557     9357                     %NEW_COPY_LX_ITEM (@FROM$ = LOP$,
     2558     9358                                        @TO$ = OP1$);

   9363  9 000143   000003 236000 10                 LDQ     3
         9 000144   200013 756100                    STQ     OP1+2,,AUTO
         9 000145   200007 633500                    EPPR3   OP1$,,AUTO
         9 000146   200012 453500                    STP3    OP1+1,,AUTO
         9 000147   200012 630500                    EPPR0   OP1+1,,AUTO
         9 000150   000001 631400 10                 EPPR1   1
         9 000151   000000 701000 xent               TSX1    Z8ED$NEW_HEAP
         9 000152   000000 011000                    NOP     0

   9366  9 000153   200003 470500                    LDP0    @LOP$,,AUTO
         9 000154   000000 471500                    LDP1    0,,PR0
         9 000155   200007 473500                    LDP3    OP1$,,AUTO
         9 000156   000100 100500                    MLR     fill='000'O
         9 000157   100000 000040                    ADSC9   0,,PR1                   cn=0,n=32
         9 000160   300000 000040                    ADSC9   0,,PR3                   cn=0,n=32

   9367  9 000161   000000 236000 10                 LDQ     0
         9 000162   200007 471500                    LDP1    OP1$,,AUTO
         9 000163   100007 756100                    STQ     7,,PR1

     2559     9370                     %INIT_BINARY_OP (@POINTER = RESULT$,
     2560     9371                                      @LINE = TREE$ -> BINARY_OP.LINE,
     2561     9372                                      @COLUMN = TREE$ -> BINARY_OP.COLUMN,
     2562     9373                                      @HIGH_LEV = TRUE,
     2563     9374                                      @LOP$ = OP1$,
     2564     9375                                      @ROP$ = TREE$,
     2565     9376                                      @OP = OP1);

   9378  9 000164   200006 471500                    LDP1    @RESULT$,,AUTO
         9 000165   100000 473500                    LDP3    0,,PR1
         9 000166   000005 220003                    LDX0    5,DU
         9 000167   300000 740100                    STX0    0,,PR3

PL6.E3A0      #005=Z8EK$ABBREV_COMPARE File=Z8EK.:Z8A6TSI                        SAT 08/09/97 12:06 Page:425
   9379  9 000170   100000 473500                    LDP3    0,,PR1
         9 000171   000000 221003                    LDX1    0,DU
         9 000172   300000 441100                    SXL1    0,,PR3

   9384  9 000173   100000 473500                    LDP3    0,,PR1
         9 000174   004000 236007                    LDQ     2048,DL
         9 000175   300000 256100                    ORSQ    0,,PR3

   9386  9 000176   100000 473500                    LDP3    0,,PR1
         9 000177   200005 474500                    LDP4    @TREE$,,AUTO
         9 000200   400000 475500                    LDP5    0,,PR4
         9 000201   500005 235100                    LDA     5,,PR5
         9 000202   300005 755100                    STA     5,,PR3

   9387  9 000203   100000 473500                    LDP3    0,,PR1
         9 000204   400000 475500                    LDP5    0,,PR4
         9 000205   500006 235100                    LDA     6,,PR5
         9 000206   300006 755100                    STA     6,,PR3

   9388  9 000207   100000 473500                    LDP3    0,,PR1
         9 000210   400000 236100                    LDQ     0,,PR4
         9 000211   300002 756100                    STQ     2,,PR3

   9389  9 000212   100000 473500                    LDP3    0,,PR1
         9 000213   200007 236100                    LDQ     OP1$,,AUTO
         9 000214   300001 756100                    STQ     1,,PR3

   9390  9 000215   100000 473500                    LDP3    0,,PR1
         9 000216   200011 235100                    LDA     OP1,,AUTO
         9 000217   300003 755100                    STA     3,,PR3

   9391  9 000220   100000 473500                    LDP3    0,,PR1
         9 000221   000000 236000 10                 LDQ     0
         9 000222   300007 756100                    STQ     7,,PR3

     2566     9394    2                IF TREE$ -> LX_ITEM.B.NEGATE THEN

PL6.E3A0      #005=Z8EK$ABBREV_COMPARE File=Z8EK.:Z8A6TSI                        SAT 08/09/97 12:06 Page:426
   9394  9 000223   400000 473500                    LDP3    0,,PR4
         9 000224   300000 236100                    LDQ     0,,PR3
         9 000225   020000 316007                    CANQ    8192,DL
         9 000226   000442 600000 9                  TZE     s:9511

     2567     9395    3                  DO;

     2568     9396                         %NEW_COPY_LX_ITEM (@FROM$ = RESULT$,
     2569     9397                                            @TO$ = OP1$);

   9402  9 000227   000003 236000 10                 LDQ     3
         9 000230   200013 756100                    STQ     OP1+2,,AUTO
         9 000231   200007 633500                    EPPR3   OP1$,,AUTO
         9 000232   200012 453500                    STP3    OP1+1,,AUTO
         9 000233   200012 630500                    EPPR0   OP1+1,,AUTO
         9 000234   000001 631400 10                 EPPR1   1
         9 000235   000000 701000 xent               TSX1    Z8ED$NEW_HEAP
         9 000236   000000 011000                    NOP     0

   9405  9 000237   200006 470500                    LDP0    @RESULT$,,AUTO
         9 000240   000000 471500                    LDP1    0,,PR0
         9 000241   200007 473500                    LDP3    OP1$,,AUTO
         9 000242   000100 100500                    MLR     fill='000'O
         9 000243   100000 000040                    ADSC9   0,,PR1                   cn=0,n=32
         9 000244   300000 000040                    ADSC9   0,,PR3                   cn=0,n=32

   9406  9 000245   000000 236000 10                 LDQ     0
         9 000246   200007 471500                    LDP1    OP1$,,AUTO
         9 000247   100007 756100                    STQ     7,,PR1

     2570     9409                         %INIT_UNARY_OP (@POINTER = RESULT$,
     2571     9410                                         @LINE = TREE$ -> BINARY_OP.LINE,
     2572     9411                                         @COLUMN = TREE$ -> BINARY_OP.COLUMN,
     2573     9412                                         @HIGH_LEV = TRUE,
     2574     9413                                         @LOP$ = OP1$,
     2575     9414                                         @OP = %OP_NOT);

PL6.E3A0      #005=Z8EK$ABBREV_COMPARE File=Z8EK.:Z8A6TSI                        SAT 08/09/97 12:06 Page:427
   9416  9 000250   000000 471500                    LDP1    0,,PR0
         9 000251   000006 220003                    LDX0    6,DU
         9 000252   100000 740100                    STX0    0,,PR1

   9417  9 000253   000000 471500                    LDP1    0,,PR0
         9 000254   000000 221003                    LDX1    0,DU
         9 000255   100000 441100                    SXL1    0,,PR1

   9422  9 000256   000000 471500                    LDP1    0,,PR0
         9 000257   004000 236007                    LDQ     2048,DL
         9 000260   100000 256100                    ORSQ    0,,PR1

   9424  9 000261   000000 471500                    LDP1    0,,PR0
         9 000262   200005 473500                    LDP3    @TREE$,,AUTO
         9 000263   300000 474500                    LDP4    0,,PR3
         9 000264   400005 235100                    LDA     5,,PR4
         9 000265   100005 755100                    STA     5,,PR1

   9425  9 000266   000000 471500                    LDP1    0,,PR0
         9 000267   300000 474500                    LDP4    0,,PR3
         9 000270   400006 235100                    LDA     6,,PR4
         9 000271   100006 755100                    STA     6,,PR1

   9426  9 000272   000000 471500                    LDP1    0,,PR0
         9 000273   200007 236100                    LDQ     OP1$,,AUTO
         9 000274   100001 756100                    STQ     1,,PR1

   9427  9 000275   000000 471500                    LDP1    0,,PR0
         9 000276   100003 450100                    STZ     3,,PR1

   9428  9 000277   000000 471500                    LDP1    0,,PR0
         9 000300   000000 236000 10                 LDQ     0
         9 000301   100007 756100                    STQ     7,,PR1

     2576     9431    3                  END;

     2577     9432    2            END;
PL6.E3A0      #005=Z8EK$ABBREV_COMPARE File=Z8EK.:Z8A6TSI                        SAT 08/09/97 12:06 Page:428

   9432  9 000302   000442 710000 9                  TRA     s:9511

     2578     9433    1          ELSE
     2579     9434    2            DO;

     2580     9435                   %NEW_COPY_LX_ITEM (@FROM$ = LOP$,
     2581     9436                                      @TO$ = OP1$);

   9441  9 000303   000003 236000 10                 LDQ     3
         9 000304   200013 756100                    STQ     OP1+2,,AUTO
         9 000305   200007 633500                    EPPR3   OP1$,,AUTO
         9 000306   200012 453500                    STP3    OP1+1,,AUTO
         9 000307   200012 630500                    EPPR0   OP1+1,,AUTO
         9 000310   000001 631400 10                 EPPR1   1
         9 000311   000000 701000 xent               TSX1    Z8ED$NEW_HEAP
         9 000312   000000 011000                    NOP     0

   9444  9 000313   200003 470500                    LDP0    @LOP$,,AUTO
         9 000314   000000 471500                    LDP1    0,,PR0
         9 000315   200007 473500                    LDP3    OP1$,,AUTO
         9 000316   000100 100500                    MLR     fill='000'O
         9 000317   100000 000040                    ADSC9   0,,PR1                   cn=0,n=32
         9 000320   300000 000040                    ADSC9   0,,PR3                   cn=0,n=32

   9445  9 000321   000000 236000 10                 LDQ     0
         9 000322   200007 471500                    LDP1    OP1$,,AUTO
         9 000323   100007 756100                    STQ     7,,PR1

     2582     9448                   %INIT_BINARY_OP (@POINTER = RESULT$,
     2583     9449                                    @LINE = TREE$ -> LX_ITEM.LINE,
     2584     9450                                    @COLUMN = TREE$ -> LX_ITEM.COLUMN,
     2585     9451                                    @HIGH_LEV = TRUE,
     2586     9452                                    @LOP$ = OP1$,
     2587     9453                                    @ROP$ = TREE$,
     2588     9454                                    @OP = OP1);

PL6.E3A0      #005=Z8EK$ABBREV_COMPARE File=Z8EK.:Z8A6TSI                        SAT 08/09/97 12:06 Page:429
   9456  9 000324   200006 471500                    LDP1    @RESULT$,,AUTO
         9 000325   100000 473500                    LDP3    0,,PR1
         9 000326   000005 220003                    LDX0    5,DU
         9 000327   300000 740100                    STX0    0,,PR3

   9457  9 000330   100000 473500                    LDP3    0,,PR1
         9 000331   000000 221003                    LDX1    0,DU
         9 000332   300000 441100                    SXL1    0,,PR3

   9462  9 000333   100000 473500                    LDP3    0,,PR1
         9 000334   004000 236007                    LDQ     2048,DL
         9 000335   300000 256100                    ORSQ    0,,PR3

   9464  9 000336   100000 473500                    LDP3    0,,PR1
         9 000337   200005 474500                    LDP4    @TREE$,,AUTO
         9 000340   400000 475500                    LDP5    0,,PR4
         9 000341   500005 235100                    LDA     5,,PR5
         9 000342   300005 755100                    STA     5,,PR3

   9465  9 000343   100000 473500                    LDP3    0,,PR1
         9 000344   400000 475500                    LDP5    0,,PR4
         9 000345   500006 235100                    LDA     6,,PR5
         9 000346   300006 755100                    STA     6,,PR3

   9466  9 000347   100000 473500                    LDP3    0,,PR1
         9 000350   400000 236100                    LDQ     0,,PR4
         9 000351   300002 756100                    STQ     2,,PR3

   9467  9 000352   100000 473500                    LDP3    0,,PR1
         9 000353   200007 236100                    LDQ     OP1$,,AUTO
         9 000354   300001 756100                    STQ     1,,PR3

   9468  9 000355   100000 473500                    LDP3    0,,PR1
         9 000356   200011 235100                    LDA     OP1,,AUTO
         9 000357   300003 755100                    STA     3,,PR3

   9469  9 000360   100000 473500                    LDP3    0,,PR1
PL6.E3A0      #005=Z8EK$ABBREV_COMPARE File=Z8EK.:Z8A6TSI                        SAT 08/09/97 12:06 Page:430
         9 000361   000000 236000 10                 LDQ     0
         9 000362   300007 756100                    STQ     7,,PR3

     2589     9472    2              IF TREE$ -> LX_ITEM.B.NEGATE THEN

   9472  9 000363   400000 473500                    LDP3    0,,PR4
         9 000364   300000 236100                    LDQ     0,,PR3
         9 000365   020000 316007                    CANQ    8192,DL
         9 000366   000442 600000 9                  TZE     s:9511

     2590     9473    3                DO;

     2591     9474                       %NEW_COPY_LX_ITEM (@FROM$ = RESULT$,
     2592     9475                                          @TO$ = OP1$);

   9480  9 000367   000003 236000 10                 LDQ     3
         9 000370   200013 756100                    STQ     OP1+2,,AUTO
         9 000371   200007 633500                    EPPR3   OP1$,,AUTO
         9 000372   200012 453500                    STP3    OP1+1,,AUTO
         9 000373   200012 630500                    EPPR0   OP1+1,,AUTO
         9 000374   000001 631400 10                 EPPR1   1
         9 000375   000000 701000 xent               TSX1    Z8ED$NEW_HEAP
         9 000376   000000 011000                    NOP     0

   9483  9 000377   200006 470500                    LDP0    @RESULT$,,AUTO
         9 000400   000000 471500                    LDP1    0,,PR0
         9 000401   200007 473500                    LDP3    OP1$,,AUTO
         9 000402   000100 100500                    MLR     fill='000'O
         9 000403   100000 000040                    ADSC9   0,,PR1                   cn=0,n=32
         9 000404   300000 000040                    ADSC9   0,,PR3                   cn=0,n=32

   9484  9 000405   000000 236000 10                 LDQ     0
         9 000406   200007 471500                    LDP1    OP1$,,AUTO
         9 000407   100007 756100                    STQ     7,,PR1

     2593     9487                       %INIT_UNARY_OP (@POINTER = RESULT$,
     2594     9488                                       @LINE = TREE$ -> BINARY_OP.LINE,
PL6.E3A0      #005=Z8EK$ABBREV_COMPARE File=Z8EK.:Z8A6TSI                        SAT 08/09/97 12:06 Page:431
     2595     9489                                       @COLUMN = TREE$ -> BINARY_OP.COLUMN,
     2596     9490                                       @HIGH_LEV = TRUE,
     2597     9491                                       @LOP$ = OP1$,
     2598     9492                                       @OP = %OP_NOT);

   9494  9 000410   000000 471500                    LDP1    0,,PR0
         9 000411   000006 220003                    LDX0    6,DU
         9 000412   100000 740100                    STX0    0,,PR1

   9495  9 000413   000000 471500                    LDP1    0,,PR0
         9 000414   000000 221003                    LDX1    0,DU
         9 000415   100000 441100                    SXL1    0,,PR1

   9500  9 000416   000000 471500                    LDP1    0,,PR0
         9 000417   004000 236007                    LDQ     2048,DL
         9 000420   100000 256100                    ORSQ    0,,PR1

   9502  9 000421   000000 471500                    LDP1    0,,PR0
         9 000422   200005 473500                    LDP3    @TREE$,,AUTO
         9 000423   300000 474500                    LDP4    0,,PR3
         9 000424   400005 235100                    LDA     5,,PR4
         9 000425   100005 755100                    STA     5,,PR1

   9503  9 000426   000000 471500                    LDP1    0,,PR0
         9 000427   300000 474500                    LDP4    0,,PR3
         9 000430   400006 235100                    LDA     6,,PR4
         9 000431   100006 755100                    STA     6,,PR1

   9504  9 000432   000000 471500                    LDP1    0,,PR0
         9 000433   200007 236100                    LDQ     OP1$,,AUTO
         9 000434   100001 756100                    STQ     1,,PR1

   9505  9 000435   000000 471500                    LDP1    0,,PR0
         9 000436   100003 450100                    STZ     3,,PR1

   9506  9 000437   000000 471500                    LDP1    0,,PR0
         9 000440   000000 236000 10                 LDQ     0
PL6.E3A0      #005=Z8EK$ABBREV_COMPARE File=Z8EK.:Z8A6TSI                        SAT 08/09/97 12:06 Page:432
         9 000441   100007 756100                    STQ     7,,PR1

     2599     9509    3                END;

     2600     9510    2            END;

     2601     9511    1   END Z8EK$ABBREV_COMPARE;

   9511  9 000442   000000 702200 xent               TSX2  ! X66_ARET

PL6.E3A0      #005=Z8EK$ABBREV_COMPARE File=Z8EK.:Z8A6TSI                        SAT 08/09/97 12:06 Page:433
--  Include file information  --

   Z8E_HEAP.:Z8A6TOU  cannot be made into a system file and is referenced.
   Z8E_ABSSYN.:Z8A6TOU  cannot be made into a system file and is referenced.
   Z8E_O1COM.:Z8A6TOU  cannot be made into a system file and is referenced.
   Z8A_LEX_SYMB.:Z8A6TOU  cannot be made into a system file and is referenced.
   Z8E_STACKS.:Z8A6TOU  cannot be made into a system file and is referenced.
   Z8E_WINDOW.:Z8A6TOU  is referenced.
   Z8A_ERR_NUMS.:Z8A6TOU  is referenced.
   Z8A_ILL.:Z8A6TOU  cannot be made into a system file and is referenced.
   X8A_COM_MACS.:X8A6TOU  is referenced.
   Z8A_NAMES.:Z8A6TOU  is referenced.
   Z8A_SUPP_MAC.:Z8A6TOU  is referenced.
   Z8A_DEFC.:Z8A6TOU  cannot be made into a system file and is referenced.
      No diagnostics issued in procedure Z8EK$ABBREV_COMPARE.
PL6.E3A0      #005=Z8EK$ABBREV_COMPARE File=Z8EK.:Z8A6TSI                        SAT 08/09/97 12:06 Page:434

 **** Variables and constants ****

  ****  Section 000 LblCom ITERATION

  ****  Scalars and arrays  ****
OctLoc.c.b A Datatyp(siz) R M Lvl/name                 OctLoc.c.b A Datatyp(siz) R M Lvl/name

     0-0-0/w SBIN              1 ITERATION

  ****  Section 001 LblCom ILL$

  ****  Scalars and arrays  ****
OctLoc.c.b A Datatyp(siz) R M Lvl/name                 OctLoc.c.b A Datatyp(siz) R M Lvl/name

     0-0-0/w PTR         r     1 ILL$

  ****  Section 002 LblCom ILL_

  ****  Scalars and arrays  ****
OctLoc.c.b A Datatyp(siz) R M Lvl/name                 OctLoc.c.b A Datatyp(siz) R M Lvl/name

     0-0-0/w STRC(180)         1 ILL_

  ****  Section 003 LblCom LEX_SYMBOL

  ****  Scalars and arrays  ****
OctLoc.c.b A Datatyp(siz) R M Lvl/name                 OctLoc.c.b A Datatyp(siz) R M Lvl/name

     0-0-0/w STRC(3240)  r     1 LEX_SYMBOL                 0-0-0/w STRC(3240)        1 LEX_SYMBOL_WORDS

  ****  Section 004 LblCom CURRENT_LEX_SYMBOL$

  ****  Scalars and arrays  ****
OctLoc.c.b A Datatyp(siz) R M Lvl/name                 OctLoc.c.b A Datatyp(siz) R M Lvl/name

     0-0-0/w PTR         r     1 CURRENT_LEX_SYMBOL$

PL6.E3A0      #005=Z8EK$ABBREV_COMPARE File=Z8EK.:Z8A6TSI                        SAT 08/09/97 12:06 Page:435
  ****  Section 005 LblCom TEMP_LEX_SYMBOL

  ****  Scalars and arrays  ****
OctLoc.c.b A Datatyp(siz) R M Lvl/name                 OctLoc.c.b A Datatyp(siz) R M Lvl/name

     0-0-0/w STRC(3240)        1 TEMP_LEX_SYMBOL

  ****  Section 006 LblCom TEMP_LEX_SYMBOL2

  ****  Scalars and arrays  ****
OctLoc.c.b A Datatyp(siz) R M Lvl/name                 OctLoc.c.b A Datatyp(siz) R M Lvl/name

     0-0-0/w STRC(3240)        1 TEMP_LEX_SYMBOL2

  ****  Section 007 LblCom TEMP_LX_NODE

  ****  Scalars and arrays  ****
OctLoc.c.b A Datatyp(siz) R M Lvl/name                 OctLoc.c.b A Datatyp(siz) R M Lvl/name

     0-0-0/d STRC(288)         1 TEMP_LX_NODE

  ****  Section 008 LblCom HEAP$

  ****  Scalars and arrays  ****
OctLoc.c.b A Datatyp(siz) R M Lvl/name                 OctLoc.c.b A Datatyp(siz) R M Lvl/name

     0-0-0/w PTR               1 HEAP$

  ****  Auto variables  ****

  ****  Scalars and arrays  ****
OctLoc.c.b A Datatyp(siz) R M Lvl/name                 OctLoc.c.b A Datatyp(siz) R M Lvl/name

     3-0-0/w PTR         r     1 @LOP$                      4-0-0/w PTR         r     1 @OP
     6-0-0/w PTR         r     1 @RESULT$                   5-0-0/w PTR         r     1 @TREE$
    *0-0-0/w PTR         r     1 LOP$                      *0-0-0/w UBIN        r     1 OP
    11-0-0/w UBIN        r     1 OP1                        7-0-0/w PTR         r     1 OP1$
PL6.E3A0      #005=Z8EK$ABBREV_COMPARE File=Z8EK.:Z8A6TSI                        SAT 08/09/97 12:06 Page:436
    10-0-0/w PTR         r     1 OP2$                      *0-0-0/w PTR         r     1 RESULT$
    *0-0-0/w PTR         r     1 TREE$

  ****  SYMREF variables  ****

  ****  Scalars and arrays  ****
OctLoc.c.b A Datatyp(siz) R M Lvl/name                 OctLoc.c.b A Datatyp(siz) R M Lvl/name

     0-0-0/w STRC(180)         1 HIER_STK(0:50)
     0-0-0/w SBIN              1 HIER_STK_PTR               0-0-0/w UBIN              1 ILL_STEP(0:144)
     0-0-0/d STRC(11580)       1 O1COM                      0-0-0/w STRC(144)         1 PAGE_FORMAT
     0-0-0/w STRC(153)         1 REP_STK(0:50)              0-0-0/w SBIN              1 REP_STK_PTR

  ****  BASED and DCB variables  ****

  ****  Scalars and arrays  ****
OctLoc.c.b A Datatyp(siz) R M Lvl/name                 OctLoc.c.b A Datatyp(siz) R M Lvl/name

     0-0-0/w STRC(108)         1 ACCEPT_DISPLAY             0-0-0/w STRC(288)         1 ADD_STMT
     0-0-0/w ASTR(324)   r     1 BASED_LEX_SYMBOL
     0-0-0/w STRC(360)         1 BASED_LEX_SYMBOL_WORDS
     0-0-0/w STRC(108)         1 BINARY_ILL                 0-0-0/w STRC(288)   r     1 BINARY_OP
     0-0-0/w STRC(144)         1 BRANCH_ILL                 0-0-0/w STRC(288)         1 CALL_STMT
     0-0-0/w STRC(216)         1 CCOSU                      0-0-0/w CHAR(4096)        1 CHARS
     0-0-0/w STRC(108)         1 CODED_MOVE                 0-0-0/w STRC(288)         1 COMPUTE_STMT
     0-0-0/w STRC(72)          1 CONT                       0-0-0/w STRC(288)         1 DEFERED_IDENTIFIER
     0-0-0/w STRC(252)         1 DEFERED_ID_TREE            0-0-0/w STRC(288)         1 DEFERED_QUAL_ID
     0-0-0/w STRC(288)         1 DEFERED_SUM_CLAUSE
     0-0-0/w STRC(288)         1 DEFERED_SUM_CLAUSE_LIST
     0-0-0/w STRC(144)         1 DEFLB                      0-0-0/w STRC(288)         1 DELETE_STMT
     0-0-0/w STRC(288)         1 DIVIDE_STMT                0-0-0/w STRC(144)         1 DOEND
     0-0-0/w STRC(396)         1 DO_N                       0-0-0/w STRC(180)         1 DV4I
     0-0-0/w STRC(180)         1 ENTRY_ILL                  0-0-0/w STRC(108)         1 EVALU
     0-0-0/w STRC(144)         1 GO                         0-0-0/w STRC(180)         1 ILL
     0-0-0/w STRC              1 ILL_NO_OPS                 0-0-0/w STRC(288)         1 ILS_LIST
     0-0-0/w STRC(288)         1 INSPECT_1_STMT             0-0-0/w STRC(288)         1 INSPECT_2_STMT
     0-0-0/w STRC(288)         1 INSPECT_4_STMT             0-0-0/w STRC(288)         1 LA_ITEM
PL6.E3A0      #005=Z8EK$ABBREV_COMPARE File=Z8EK.:Z8A6TSI                        SAT 08/09/97 12:06 Page:437
     0-0-0/w STRC(108)         1 LINOI                      0-0-0/w STRC(504)         1 LX_CD_INPUT
     0-0-0/w STRC(324)         1 LX_CD_I_O                  0-0-0/w STRC(396)         1 LX_CD_OUTPUT
     0-0-0/w STRC(288)         1 LX_ETT_ITEM                0-0-0/w STRC(288)   r     1 LX_ITEM
     0-0-0/w STRC(288)         1 LX_LARGE                   0-0-0/w STRC(288)         1 LX_LIST
     0-0-0/w STRC(1224)        1 LX_REC_DECL                0-0-0/w STRC(864)         1 LX_REPORT_REC
     0-0-0/w STRC(288)         1 LX_TERMINAL                0-0-0/w STRC(72)          1 MFILL
     0-0-0/w STRC(288)         1 MULTIPLY_STMT              0-0-0/w STRC(180)         1 MULTI_GO
     0-0-0/w STRC(180)         1 MVEAL                      0-0-0/w STRC(108)         1 MVFIL
     0-0-0/w STRC(72)          1 MVIIS                      0-0-0/w STRC(180)         1 OS_CALL
     0-0-0/w STRC(36864)       1 PAGE                       0-0-0/w STRC(216)         1 PFORM
     0-0-0/w STRC(144)         1 PINC                       0-0-0/w STRC(144)         1 PREOFF
     0-0-0/w STRC(108)         1 PRESET                     0-0-0/w STRC(144)         1 P_A_PRESET
     0-0-0/w STRC(144)         1 P_P_PRESET                 0-0-0/w STRC(288)         1 READ_STMT
     0-0-0/w STRC(144)         1 REMEM                      0-0-0/w STRC(288)         1 REWRITE_STMT
     0-0-0/w STRC(144)         1 SCOPE                      0-0-0/w STRC(216)         1 SEARCH_
     0-0-0/w STRC(288)         1 START_STMT                 0-0-0/w STRC(72)          1 STP2
     0-0-0/w STRC(252)         1 STRING_STMT                0-0-0/w STRC(288)         1 SUBTRACT_STMT
     0-0-0/w STRC(144)         1 TRINARY_ILL                0-0-0/w STRC(72)          1 UNARY_ILL
     0-0-0/w STRC(288)   r     1 UNARY_OP                   0-0-0/w STRC(288)         1 UNSTRING_STMT
     0-0-0/w STRC(216)         1 USER_CALL                  0-0-0/w STRC(108)         1 VAL
     0-0-0/w STRC(108)         1 VAL_END                    0-0-0/w STRC(72)          1 WHEN
     0-0-0/w STRC(288)         1 WRITE_STMT


   Procedure Z8EK$ABBREV_COMPARE requires 291 words for executable code.
   Procedure Z8EK$ABBREV_COMPARE requires 14 words of local(AUTO) storage.

    No errors detected in file Z8EK.:Z8A6TSI    .
