PL6.E3A0      #001=Z8EK$OPTIMAL_BRANCHES File=Z8EK.:Z8A6TSI                      SAT 08/09/97 11:56 Page:1
        1        1        /*T***********************************************************/
        2        2        /*T*                                                         */
        3        3        /*T* Copyright (c) Bull HN Information Systems Inc., 1997    */
        4        4        /*T*                                                         */
        5        5        /*T***********************************************************/
        6        6        Z8EK$OPTIMAL_BRANCHES:PROC(LABEL$, NODE$);
        7        7
        8        8    1        DCL NODE$   PTR;
        9        9    1        DCL LABEL$  PTR;
       10       10
       11       11    1        DCL EXPRESSION$ PTR;
       12       12
       13       13
       14       14             %EQU PHASE = 1;
       15       15             %INCLUDE Z8A_DEFC;
       16       83             %INCLUDE Z8A_SUPP_MAC;
       17     2483             %INCLUDE Z8A_COMCOM;
       18     3133             %INCLUDE Z8E_STACKS;
       19     5399             %INCLUDE Z8E_MACROS;
       20     6074             %INCLUDE Z8E_WINDOW;
       21     8144             %INCLUDE Z8E_ABSSYN;
       22     8350             %INCLUDE Z8E_HEAP;
       23     8406             %INCLUDE Z8E_TRANSLAT;
       24     8824             %INCLUDE Z8A_ILL;
       25     9517             %INCLUDE Z8A_QLT;
       26     9623             %INCLUDE Z8A_ETT;
       27     9924             %INCLUDE Z8A_ILS;
       28    10033             %INCLUDE Z8E_O1COM;
       29    10794             %INCLUDE Z8A_TYPES;
       30    10968             %INCLUDE Z8A_ST;
       31    14627             %INCLUDE Z8A_ERR_NUMS;
       32    15391             %INCLUDE Z8E_ILS_LIST;
       33    15475             %INCLUDE Z8A_LTS;
       34    17552             %INCLUDE Z8A_LIBRARY;
       35    17766             %INCLUDE Z8E_DML;
       36    17886             %INCLUDE Z8A_DNT ;
       37    18107
PL6.E3A0      #001=Z8EK$OPTIMAL_BRANCHES File=Z8EK.:Z8A6TSI                      SAT 08/09/97 11:56 Page:2
       38    18108    1        DCL Z8AC$MAKE_TYA_CONST ENTRY(4);
       39    18109    1        DCL Z8AT$CREATE_TEMPORARY ENTRY(2);
       40    18110    1        DCL Z8AE$ERROR        ENTRY(12);
       41    18111    1        DCL Z8AC$LX_ETT_ITEM_TYI_CONST ENTRY(2);
       42    18112    1        DCL Z8EK$COMPARE               ENTRY(4);
       43    18113    1        DCL Z8EK$BRANCH_TRUE           ENTRY(2);
       44    18114    1        DCL Z8EK$BRANCH_FALSE          ENTRY(2);
       45    18115    1        DCL Z8ED$DISPOSE_ABSSYN_TREE   ENTRY(1);
       46    18116    1        DCL Z8AU$LENGTH_ETT            ENTRY(2);
       47    18117    1        DCL Z8AU$LENGTH                ENTRY(2);
       48    18118    1        DCL Z8AU$TYPE_DESCRIPTOR       ENTRY(2);
       49    18119    1        DCL Z8EU$NEW_TEMP_FROM_ETT     ENTRY(2);
       50    18120    1        DCL Z8EU$CREATE_IDENTIFIER_FROM_ST ENTRY (4);
       51    18121    1        DCL Z8EY$SUBSTR                ENTRY(4);
       52    18122    1        DCL Z8AF$NEW_BASE              ENTRY(3);
       53    18123    1        DCL Z8AF$FORME                 ENTRY(4);
       54    18124    1        DCL Z8EQ$MERGE_ITERATED_DO_WHILE ENTRY(4);
       55    18125    1        DCL Z8EU$DISPOSE_TEMP          ENTRY(1);
       56    18126    1        DCL Z8EV$COMPATIBLE_TYPES ENTRY(3) ALTRET;
       57    18127    1        DCL Z8EV$LEAST_STRONGEST_TYPE ENTRY(3);
       58    18128    1        DCL Z8E5$MATH_PACK        ENTRY(2);
       59    18129    1        DCL Z8CO$CHECK_INTEGER_TERMINAL ENTRY(1) ALTRET;
       60    18130    1        DCL Z8EV$CONVERT ENTRY(3);
       61    18131    1        DCL Z8CO$CREATE_LIBRARY_BASE ENTRY(2);
       62    18132    1        DCL Z9EB$DB_COMPARE   ENTRY(2);
       63    18133    1        DCL Z9EB$COMPARE_EMPTY ENTRY (2);
       64    18134
       65    18135             %DCL_AUTO_LX_ITEM( @NAME = TEMP_EXPRESSION STATIC );
       66    18139             %DCL_AUTO_LX_ITEM( @NAME = TWO STATIC );
       67    18143             %DCL_AUTO_LX_ITEM( @NAME = LENGTH STATIC );
       68    18147             %DCL_AUTO_LX_ITEM( @NAME = LENGTH_MINUS_1 STATIC );
       69    18151
       70    18152    1        DCL 1 ZERO STATIC,
       71    18153    1              2 ID UBIN HALF HALIGNED INIT (%LX_ETT_ITEM),
       72    18154    1              2 * UBIN HALF HALIGNED INIT (0),
       73    18155    1              2 ETT$ PTR,
       74    18156    1              2 * (0:1) UBIN INIT (0 * 0),
PL6.E3A0      #001=Z8EK$OPTIMAL_BRANCHES File=Z8EK.:Z8A6TSI                      SAT 08/09/97 11:56 Page:3
       75    18157    1              2 * UBIN INIT (%TYI),
       76    18158    1              2 LINE UBIN,
       77    18159    1              2 COLUMN UBIN,
       78    18160    1              2 * PTR INIT (ADDR (NIL));
       79    18161    1        DCL 1 ONE STATIC,
       80    18162    1              2 ID UBIN HALF HALIGNED INIT (%LX_ETT_ITEM),
       81    18163    1              2 * UBIN HALF HALIGNED INIT (0),
       82    18164    1              2 ETT$ PTR,
       83    18165    1              2 * (0:1) UBIN INIT (0 * 0),
       84    18166    1              2 * UBIN INIT (%TYI),
       85    18167    1              2 * (0:1) UBIN INIT (0 * 0),
       86    18168    1              2 * PTR INIT (ADDR (NIL));
       87    18169
       88    18170    1        DCL ETT$$            PTR;
       89    18171    1        DCL TEMP_ST$         PTR;
       90    18172    1        DCL COMPARE$         PTR;
       91    18173    1        DCL FLAG$            PTR;
       92    18174
       93    18175    1        DCL 1 TYPE_DESC,
       94    18176                   %TYPE_DESC;
       95    18210
       96    18211    1        DCL VAR_ST$ PTR;
       97    18212    1        DCL TEMP_LAB$ PTR;
       98    18213    1        DCL TRANS_TABLE_ETT$ PTR;
       99    18214
      100    18215    1        DCL 1 DIGIT_VALUES CONSTANT,
      101    18216    1            2 WORD1        BIT(36) INIT('000000000000'O),
      102    18217    1            2 WORD2        BIT(36) INIT('000000000000'O),
      103    18218    1            2 WORD3        BIT(36) INIT('000000001001'O),
      104    18219    1            2 WORD4        BIT(36) INIT('001001001001'O);
      105    18220    1        DCL DIGIT_TABLE    REDEF DIGIT_VALUES CHAR(16);
      106    18221
      107    18222        %EJECT;
PL6.E3A0      #001=Z8EK$OPTIMAL_BRANCHES File=Z8EK.:Z8A6TSI                      SAT 08/09/97 11:56 Page:4
      108    18223
      109    18224        %TYPE_MATRIX_BEGIN(@NAME = COMPARISON_MATRIX);
      110    18228          %TYPE_MATRIX_ENTRY(@LOP = %TYI, @ROP = %TYI, @LOP_BECOMES = %TYI, @ROP_BECOMES =
             18228              %TYI);
      111    18237          %TYPE_MATRIX_ENTRY(@LOP = %TYI, @ROP = %TYD, @LOP_BECOMES = %TYD, @ROP_BECOMES =
             18237              %TYD);
      112    18246          %TYPE_MATRIX_ENTRY(@LOP = %TYI, @ROP = %TYH, @LOP_BECOMES = %TYI, @ROP_BECOMES =
             18246              %TYI);
      113    18255          %TYPE_MATRIX_ENTRY(@LOP = %TYI, @ROP = %TYR, @LOP_BECOMES = %TYQ, @ROP_BECOMES =
             18255              %TYQ);
      114    18264          %TYPE_MATRIX_ENTRY(@LOP = %TYI, @ROP = %TYQ, @LOP_BECOMES = %TYQ, @ROP_BECOMES =
             18264              %TYQ);
      115    18273          %TYPE_MATRIX_ENTRY(@LOP = %TYI, @ROP = %TYJ, @LOP_BECOMES = %TYI, @ROP_BECOMES =
             18273              %TYI);
      116    18282          %TYPE_MATRIX_ENTRY(@LOP = %TYI, @ROP = %TYO, @LOP_BECOMES = %TYD, @ROP_BECOMES =
             18282              %TYO);
      117    18291          %TYPE_MATRIX_ENTRY(@LOP = %TYI, @ROP = %TYK, @LOP_BECOMES = %TYI, @ROP_BECOMES =
             18291              %TYI);
      118    18300          %TYPE_MATRIX_ENTRY(@LOP = %TYI, @ROP = %TYA, @LOP_BECOMES = %TYA, @ROP_BECOMES =
             18300              %TYA);
      119    18309          %TYPE_MATRIX_ENTRY(@LOP = %TYI, @ROP = %TYE, @LOP_BECOMES = %TYA, @ROP_BECOMES =
             18309              %TYA);
      120    18318          %TYPE_MATRIX_ENTRY(@LOP = %TYI, @ROP = %TYF, @LOP_BECOMES = %TYD, @ROP_BECOMES =
             18318              %TYD);
      121    18327          %TYPE_MATRIX_ENTRY(@LOP = %TYI, @ROP = %TYB, @LOP_BECOMES = %TYA, @ROP_BECOMES =
             18327              %TYA);
      122    18336          %TYPE_MATRIX_ENTRY(@LOP = %TYD, @ROP = %TYI, @LOP_BECOMES = %TYD, @ROP_BECOMES =
             18336              %TYD);
      123    18345          %TYPE_MATRIX_ENTRY(@LOP = %TYD, @ROP = %TYD, @LOP_BECOMES = %TYD, @ROP_BECOMES =
             18345              %TYD);
      124    18354          %TYPE_MATRIX_ENTRY(@LOP = %TYD, @ROP = %TYH, @LOP_BECOMES = %TYD, @ROP_BECOMES =
             18354              %TYD);
      125    18363          %TYPE_MATRIX_ENTRY(@LOP = %TYD, @ROP = %TYR, @LOP_BECOMES = %TYR, @ROP_BECOMES =
             18363              %TYR);
      126    18372          %TYPE_MATRIX_ENTRY(@LOP = %TYD, @ROP = %TYQ, @LOP_BECOMES = %TYQ, @ROP_BECOMES =
             18372              %TYQ);
      127    18381          %TYPE_MATRIX_ENTRY(@LOP = %TYD, @ROP = %TYJ, @LOP_BECOMES = %TYD, @ROP_BECOMES =
PL6.E3A0      #001=Z8EK$OPTIMAL_BRANCHES File=Z8EK.:Z8A6TSI                      SAT 08/09/97 11:56 Page:5
             18381              %TYD);
      128    18390          %TYPE_MATRIX_ENTRY(@LOP = %TYD, @ROP = %TYO, @LOP_BECOMES = %TYD, @ROP_BECOMES =
             18390              %TYO);
      129    18399          %TYPE_MATRIX_ENTRY(@LOP = %TYD, @ROP = %TYK, @LOP_BECOMES = %TYD, @ROP_BECOMES =
             18399              %TYD);
      130    18408          %TYPE_MATRIX_ENTRY(@LOP = %TYD, @ROP = %TYA, @LOP_BECOMES = %TYA, @ROP_BECOMES =
             18408              %TYA);
      131    18417          %TYPE_MATRIX_ENTRY(@LOP = %TYD, @ROP = %TYE, @LOP_BECOMES = %TYA, @ROP_BECOMES =
             18417              %TYA);
      132    18426          %TYPE_MATRIX_ENTRY(@LOP = %TYD, @ROP = %TYF, @LOP_BECOMES = %TYD, @ROP_BECOMES =
             18426              %TYD);
      133    18435          %TYPE_MATRIX_ENTRY(@LOP = %TYD, @ROP = %TYB, @LOP_BECOMES = %TYA, @ROP_BECOMES =
             18435              %TYA);
      134    18444          %TYPE_MATRIX_ENTRY(@LOP = %TYH, @ROP = %TYI, @LOP_BECOMES = %TYI, @ROP_BECOMES =
             18444              %TYI);
      135    18453          %TYPE_MATRIX_ENTRY(@LOP = %TYH, @ROP = %TYD, @LOP_BECOMES = %TYD, @ROP_BECOMES =
             18453              %TYD);
      136    18462          %TYPE_MATRIX_ENTRY(@LOP = %TYH, @ROP = %TYH, @LOP_BECOMES = %TYI, @ROP_BECOMES =
             18462              %TYI);
      137    18471          %TYPE_MATRIX_ENTRY(@LOP = %TYH, @ROP = %TYR, @LOP_BECOMES = %TYQ, @ROP_BECOMES =
             18471              %TYQ);
      138    18480          %TYPE_MATRIX_ENTRY(@LOP = %TYH, @ROP = %TYQ, @LOP_BECOMES = %TYQ, @ROP_BECOMES =
             18480              %TYQ);
      139    18489          %TYPE_MATRIX_ENTRY(@LOP = %TYH, @ROP = %TYJ, @LOP_BECOMES = %TYI, @ROP_BECOMES =
             18489              %TYI);
      140    18498          %TYPE_MATRIX_ENTRY(@LOP = %TYH, @ROP = %TYO, @LOP_BECOMES = %TYD, @ROP_BECOMES =
             18498              %TYO);
      141    18507          %TYPE_MATRIX_ENTRY(@LOP = %TYH, @ROP = %TYK, @LOP_BECOMES = %TYI, @ROP_BECOMES =
             18507              %TYI);
      142    18516          %TYPE_MATRIX_ENTRY(@LOP = %TYH, @ROP = %TYA, @LOP_BECOMES = %TYA, @ROP_BECOMES =
             18516              %TYA);
      143    18525          %TYPE_MATRIX_ENTRY(@LOP = %TYH, @ROP = %TYE, @LOP_BECOMES = %TYA, @ROP_BECOMES =
             18525              %TYA);
      144    18534          %TYPE_MATRIX_ENTRY(@LOP = %TYH, @ROP = %TYF, @LOP_BECOMES = %TYD, @ROP_BECOMES =
             18534              %TYD);
      145    18543          %TYPE_MATRIX_ENTRY(@LOP = %TYH, @ROP = %TYB, @LOP_BECOMES = %TYA, @ROP_BECOMES =
             18543              %TYA);
PL6.E3A0      #001=Z8EK$OPTIMAL_BRANCHES File=Z8EK.:Z8A6TSI                      SAT 08/09/97 11:56 Page:6
      146    18552          %TYPE_MATRIX_ENTRY(@LOP = %TYR, @ROP = %TYI, @LOP_BECOMES = %TYR, @ROP_BECOMES =
             18552              %TYR);
      147    18561          %TYPE_MATRIX_ENTRY(@LOP = %TYR, @ROP = %TYD, @LOP_BECOMES = %TYR, @ROP_BECOMES =
             18561              %TYR);
      148    18570          %TYPE_MATRIX_ENTRY(@LOP = %TYR, @ROP = %TYH, @LOP_BECOMES = %TYR, @ROP_BECOMES =
             18570              %TYR);
      149    18579          %TYPE_MATRIX_ENTRY(@LOP = %TYR, @ROP = %TYR, @LOP_BECOMES = %TYR, @ROP_BECOMES =
             18579              %TYR);
      150    18588          %TYPE_MATRIX_ENTRY(@LOP = %TYR, @ROP = %TYQ, @LOP_BECOMES = %TYQ, @ROP_BECOMES =
             18588              %TYQ);
      151    18597          %TYPE_MATRIX_ENTRY(@LOP = %TYR, @ROP = %TYJ, @LOP_BECOMES = %TYR, @ROP_BECOMES =
             18597              %TYR);
      152    18606          %TYPE_MATRIX_ENTRY(@LOP = %TYR, @ROP = %TYO, @LOP_BECOMES = %TYR, @ROP_BECOMES =
             18606              %TYR);
      153    18615          %TYPE_MATRIX_ENTRY(@LOP = %TYR, @ROP = %TYK, @LOP_BECOMES = %TYR, @ROP_BECOMES =
             18615              %TYR);
      154    18624          %TYPE_MATRIX_ENTRY(@LOP = %TYR, @ROP = %TYA, @LOP_BECOMES = %TYA, @ROP_BECOMES =
             18624              %TYA);
      155    18633          %TYPE_MATRIX_ENTRY(@LOP = %TYR, @ROP = %TYE, @LOP_BECOMES = %TYA, @ROP_BECOMES =
             18633              %TYA);
      156    18642          %TYPE_MATRIX_ENTRY(@LOP = %TYR, @ROP = %TYF, @LOP_BECOMES = %TYQ, @ROP_BECOMES =
             18642              %TYQ);
      157    18651          %TYPE_MATRIX_ENTRY(@LOP = %TYR, @ROP = %TYB, @LOP_BECOMES = %TYA, @ROP_BECOMES =
             18651              %TYA);
      158    18660          %TYPE_MATRIX_ENTRY(@LOP = %TYQ, @ROP = %TYI, @LOP_BECOMES = %TYQ, @ROP_BECOMES =
             18660              %TYQ);
      159    18669          %TYPE_MATRIX_ENTRY(@LOP = %TYQ, @ROP = %TYD, @LOP_BECOMES = %TYQ, @ROP_BECOMES =
             18669              %TYQ);
      160    18678          %TYPE_MATRIX_ENTRY(@LOP = %TYQ, @ROP = %TYH, @LOP_BECOMES = %TYQ, @ROP_BECOMES =
             18678              %TYQ);
      161    18687          %TYPE_MATRIX_ENTRY(@LOP = %TYQ, @ROP = %TYR, @LOP_BECOMES = %TYQ, @ROP_BECOMES =
             18687              %TYQ);
      162    18696          %TYPE_MATRIX_ENTRY(@LOP = %TYQ, @ROP = %TYQ, @LOP_BECOMES = %TYQ, @ROP_BECOMES =
             18696              %TYQ);
      163    18705          %TYPE_MATRIX_ENTRY(@LOP = %TYQ, @ROP = %TYJ, @LOP_BECOMES = %TYQ, @ROP_BECOMES =
             18705              %TYQ);
      164    18714          %TYPE_MATRIX_ENTRY(@LOP = %TYQ, @ROP = %TYO, @LOP_BECOMES = %TYQ, @ROP_BECOMES =
PL6.E3A0      #001=Z8EK$OPTIMAL_BRANCHES File=Z8EK.:Z8A6TSI                      SAT 08/09/97 11:56 Page:7
             18714              %TYQ);
      165    18723          %TYPE_MATRIX_ENTRY(@LOP = %TYQ, @ROP = %TYK, @LOP_BECOMES = %TYQ, @ROP_BECOMES =
             18723              %TYQ);
      166    18732          %TYPE_MATRIX_ENTRY(@LOP = %TYQ, @ROP = %TYA, @LOP_BECOMES = %TYA, @ROP_BECOMES =
             18732              %TYA);
      167    18741          %TYPE_MATRIX_ENTRY(@LOP = %TYQ, @ROP = %TYE, @LOP_BECOMES = %TYA, @ROP_BECOMES =
             18741              %TYA);
      168    18750          %TYPE_MATRIX_ENTRY(@LOP = %TYQ, @ROP = %TYF, @LOP_BECOMES = %TYQ, @ROP_BECOMES =
             18750              %TYQ);
      169    18759          %TYPE_MATRIX_ENTRY(@LOP = %TYQ, @ROP = %TYB, @LOP_BECOMES = %TYA, @ROP_BECOMES =
             18759              %TYA);
      170    18768          %TYPE_MATRIX_ENTRY(@LOP = %TYJ, @ROP = %TYI, @LOP_BECOMES = %TYI, @ROP_BECOMES =
             18768              %TYI);
      171    18777          %TYPE_MATRIX_ENTRY(@LOP = %TYJ, @ROP = %TYD, @LOP_BECOMES = %TYD, @ROP_BECOMES =
             18777              %TYD);
      172    18786          %TYPE_MATRIX_ENTRY(@LOP = %TYJ, @ROP = %TYH, @LOP_BECOMES = %TYI, @ROP_BECOMES =
             18786              %TYI);
      173    18795          %TYPE_MATRIX_ENTRY(@LOP = %TYJ, @ROP = %TYR, @LOP_BECOMES = %TYR, @ROP_BECOMES =
             18795              %TYR);
      174    18804          %TYPE_MATRIX_ENTRY(@LOP = %TYJ, @ROP = %TYQ, @LOP_BECOMES = %TYQ, @ROP_BECOMES =
             18804              %TYQ);
      175    18813          %TYPE_MATRIX_ENTRY(@LOP = %TYJ, @ROP = %TYJ, @LOP_BECOMES = %TYI, @ROP_BECOMES =
             18813              %TYI);
      176    18822          %TYPE_MATRIX_ENTRY(@LOP = %TYJ, @ROP = %TYO, @LOP_BECOMES = %TYD, @ROP_BECOMES =
             18822              %TYO);
      177    18831          %TYPE_MATRIX_ENTRY(@LOP = %TYJ, @ROP = %TYK, @LOP_BECOMES = %TYI, @ROP_BECOMES =
             18831              %TYI);
      178    18840          %TYPE_MATRIX_ENTRY(@LOP = %TYJ, @ROP = %TYA, @LOP_BECOMES = %TYA, @ROP_BECOMES =
             18840              %TYA);
      179    18849          %TYPE_MATRIX_ENTRY(@LOP = %TYJ, @ROP = %TYE, @LOP_BECOMES = %TYA, @ROP_BECOMES =
             18849              %TYA);
      180    18858          %TYPE_MATRIX_ENTRY(@LOP = %TYJ, @ROP = %TYF, @LOP_BECOMES = %TYD, @ROP_BECOMES =
             18858              %TYD);
      181    18867          %TYPE_MATRIX_ENTRY(@LOP = %TYJ, @ROP = %TYB, @LOP_BECOMES = %TYA, @ROP_BECOMES =
             18867              %TYA);
      182    18876          %TYPE_MATRIX_ENTRY(@LOP = %TYO, @ROP = %TYI, @LOP_BECOMES = %TYO, @ROP_BECOMES =
             18876              %TYD);
PL6.E3A0      #001=Z8EK$OPTIMAL_BRANCHES File=Z8EK.:Z8A6TSI                      SAT 08/09/97 11:56 Page:8
      183    18885          %TYPE_MATRIX_ENTRY(@LOP = %TYO, @ROP = %TYD, @LOP_BECOMES = %TYO, @ROP_BECOMES =
             18885              %TYD);
      184    18894          %TYPE_MATRIX_ENTRY(@LOP = %TYO, @ROP = %TYH, @LOP_BECOMES = %TYO, @ROP_BECOMES =
             18894              %TYD);
      185    18903          %TYPE_MATRIX_ENTRY(@LOP = %TYO, @ROP = %TYR, @LOP_BECOMES = %TYR, @ROP_BECOMES =
             18903              %TYR);
      186    18912          %TYPE_MATRIX_ENTRY(@LOP = %TYO, @ROP = %TYQ, @LOP_BECOMES = %TYQ, @ROP_BECOMES =
             18912              %TYQ);
      187    18921          %TYPE_MATRIX_ENTRY(@LOP = %TYO, @ROP = %TYJ, @LOP_BECOMES = %TYO, @ROP_BECOMES =
             18921              %TYD);
      188    18930          %TYPE_MATRIX_ENTRY(@LOP = %TYO, @ROP = %TYO, @LOP_BECOMES = %TYO, @ROP_BECOMES =
             18930              %TYO);
      189    18939          %TYPE_MATRIX_ENTRY(@LOP = %TYO, @ROP = %TYK, @LOP_BECOMES = %TYO, @ROP_BECOMES =
             18939              %TYD);
      190    18948          %TYPE_MATRIX_ENTRY(@LOP = %TYO, @ROP = %TYA, @LOP_BECOMES = %TYA, @ROP_BECOMES =
             18948              %TYA);
      191    18957          %TYPE_MATRIX_ENTRY(@LOP = %TYO, @ROP = %TYE, @LOP_BECOMES = %TYA, @ROP_BECOMES =
             18957              %TYA);
      192    18966          %TYPE_MATRIX_ENTRY(@LOP = %TYO, @ROP = %TYF, @LOP_BECOMES = %TYO, @ROP_BECOMES =
             18966              %TYD);
      193    18975          %TYPE_MATRIX_ENTRY(@LOP = %TYO, @ROP = %TYB, @LOP_BECOMES = %TYA, @ROP_BECOMES =
             18975              %TYA);
      194    18984          %TYPE_MATRIX_ENTRY(@LOP = %TYK, @ROP = %TYI, @LOP_BECOMES = %TYI, @ROP_BECOMES =
             18984              %TYI);
      195    18993          %TYPE_MATRIX_ENTRY(@LOP = %TYK, @ROP = %TYD, @LOP_BECOMES = %TYD, @ROP_BECOMES =
             18993              %TYD);
      196    19002          %TYPE_MATRIX_ENTRY(@LOP = %TYK, @ROP = %TYH, @LOP_BECOMES = %TYI, @ROP_BECOMES =
             19002              %TYI);
      197    19011          %TYPE_MATRIX_ENTRY(@LOP = %TYK, @ROP = %TYR, @LOP_BECOMES = %TYR, @ROP_BECOMES =
             19011              %TYR);
      198    19020          %TYPE_MATRIX_ENTRY(@LOP = %TYK, @ROP = %TYQ, @LOP_BECOMES = %TYQ, @ROP_BECOMES =
             19020              %TYQ);
      199    19029          %TYPE_MATRIX_ENTRY(@LOP = %TYK, @ROP = %TYJ, @LOP_BECOMES = %TYI, @ROP_BECOMES =
             19029              %TYI);
      200    19038          %TYPE_MATRIX_ENTRY(@LOP = %TYK, @ROP = %TYO, @LOP_BECOMES = %TYD, @ROP_BECOMES =
             19038              %TYO);
      201    19047          %TYPE_MATRIX_ENTRY(@LOP = %TYK, @ROP = %TYK, @LOP_BECOMES = %TYI, @ROP_BECOMES =
PL6.E3A0      #001=Z8EK$OPTIMAL_BRANCHES File=Z8EK.:Z8A6TSI                      SAT 08/09/97 11:56 Page:9
             19047              %TYI);
      202    19056          %TYPE_MATRIX_ENTRY(@LOP = %TYK, @ROP = %TYA, @LOP_BECOMES = %TYA, @ROP_BECOMES =
             19056              %TYA);
      203    19065          %TYPE_MATRIX_ENTRY(@LOP = %TYK, @ROP = %TYE, @LOP_BECOMES = %TYA, @ROP_BECOMES =
             19065              %TYA);
      204    19074          %TYPE_MATRIX_ENTRY(@LOP = %TYK, @ROP = %TYF, @LOP_BECOMES = %TYD, @ROP_BECOMES =
             19074              %TYD);
      205    19083          %TYPE_MATRIX_ENTRY(@LOP = %TYK, @ROP = %TYB, @LOP_BECOMES = %TYA, @ROP_BECOMES =
             19083              %TYA);
      206    19092          %TYPE_MATRIX_ENTRY(@LOP = %TYA, @ROP = %TYI, @LOP_BECOMES = %TYA, @ROP_BECOMES =
             19092              %TYA);
      207    19101          %TYPE_MATRIX_ENTRY(@LOP = %TYA, @ROP = %TYD, @LOP_BECOMES = %TYA, @ROP_BECOMES =
             19101              %TYA);
      208    19110          %TYPE_MATRIX_ENTRY(@LOP = %TYA, @ROP = %TYH, @LOP_BECOMES = %TYA, @ROP_BECOMES =
             19110              %TYA);
      209    19119          %TYPE_MATRIX_ENTRY(@LOP = %TYA, @ROP = %TYR, @LOP_BECOMES = %TYA, @ROP_BECOMES =
             19119              %TYA);
      210    19128          %TYPE_MATRIX_ENTRY(@LOP = %TYA, @ROP = %TYQ, @LOP_BECOMES = %TYA, @ROP_BECOMES =
             19128              %TYA);
      211    19137          %TYPE_MATRIX_ENTRY(@LOP = %TYA, @ROP = %TYJ, @LOP_BECOMES = %TYA, @ROP_BECOMES =
             19137              %TYA);
      212    19146          %TYPE_MATRIX_ENTRY(@LOP = %TYA, @ROP = %TYO, @LOP_BECOMES = %TYA, @ROP_BECOMES =
             19146              %TYA);
      213    19155          %TYPE_MATRIX_ENTRY(@LOP = %TYA, @ROP = %TYK, @LOP_BECOMES = %TYA, @ROP_BECOMES =
             19155              %TYA);
      214    19164          %TYPE_MATRIX_ENTRY(@LOP = %TYA, @ROP = %TYA, @LOP_BECOMES = %TYA, @ROP_BECOMES =
             19164              %TYA);
      215    19173          %TYPE_MATRIX_ENTRY(@LOP = %TYA, @ROP = %TYE, @LOP_BECOMES = %TYA, @ROP_BECOMES =
             19173              %TYA);
      216    19182          %TYPE_MATRIX_ENTRY(@LOP = %TYA, @ROP = %TYF, @LOP_BECOMES = %TYA, @ROP_BECOMES =
             19182              %TYA);
      217    19191          %TYPE_MATRIX_ENTRY(@LOP = %TYA, @ROP = %TYB, @LOP_BECOMES = %TYA, @ROP_BECOMES =
             19191              %TYA);
      218    19200          %TYPE_MATRIX_ENTRY(@LOP = %TYE, @ROP = %TYI, @LOP_BECOMES = %TYA, @ROP_BECOMES =
             19200              %TYA);
      219    19209          %TYPE_MATRIX_ENTRY(@LOP = %TYE, @ROP = %TYD, @LOP_BECOMES = %TYA, @ROP_BECOMES =
             19209              %TYA);
PL6.E3A0      #001=Z8EK$OPTIMAL_BRANCHES File=Z8EK.:Z8A6TSI                      SAT 08/09/97 11:56 Page:10
      220    19218          %TYPE_MATRIX_ENTRY(@LOP = %TYE, @ROP = %TYH, @LOP_BECOMES = %TYA, @ROP_BECOMES =
             19218              %TYA);
      221    19227          %TYPE_MATRIX_ENTRY(@LOP = %TYE, @ROP = %TYR, @LOP_BECOMES = %TYA, @ROP_BECOMES =
             19227              %TYA);
      222    19236          %TYPE_MATRIX_ENTRY(@LOP = %TYE, @ROP = %TYQ, @LOP_BECOMES = %TYA, @ROP_BECOMES =
             19236              %TYA);
      223    19245          %TYPE_MATRIX_ENTRY(@LOP = %TYE, @ROP = %TYJ, @LOP_BECOMES = %TYA, @ROP_BECOMES =
             19245              %TYA);
      224    19254          %TYPE_MATRIX_ENTRY(@LOP = %TYE, @ROP = %TYO, @LOP_BECOMES = %TYA, @ROP_BECOMES =
             19254              %TYA);
      225    19263          %TYPE_MATRIX_ENTRY(@LOP = %TYE, @ROP = %TYK, @LOP_BECOMES = %TYA, @ROP_BECOMES =
             19263              %TYA);
      226    19272          %TYPE_MATRIX_ENTRY(@LOP = %TYE, @ROP = %TYA, @LOP_BECOMES = %TYA, @ROP_BECOMES =
             19272              %TYA);
      227    19281          %TYPE_MATRIX_ENTRY(@LOP = %TYE, @ROP = %TYE, @LOP_BECOMES = %TYA, @ROP_BECOMES =
             19281              %TYA);
      228    19290          %TYPE_MATRIX_ENTRY(@LOP = %TYE, @ROP = %TYF, @LOP_BECOMES = %TYA, @ROP_BECOMES =
             19290              %TYA);
      229    19299          %TYPE_MATRIX_ENTRY(@LOP = %TYE, @ROP = %TYB, @LOP_BECOMES = %TYA, @ROP_BECOMES =
             19299              %TYA);
      230    19308          %TYPE_MATRIX_ENTRY(@LOP = %TYF, @ROP = %TYI, @LOP_BECOMES = %TYD, @ROP_BECOMES =
             19308              %TYD);
      231    19317          %TYPE_MATRIX_ENTRY(@LOP = %TYF, @ROP = %TYD, @LOP_BECOMES = %TYD, @ROP_BECOMES =
             19317              %TYD);
      232    19326          %TYPE_MATRIX_ENTRY(@LOP = %TYF, @ROP = %TYH, @LOP_BECOMES = %TYD, @ROP_BECOMES =
             19326              %TYD);
      233    19335          %TYPE_MATRIX_ENTRY(@LOP = %TYF, @ROP = %TYR, @LOP_BECOMES = %TYQ, @ROP_BECOMES =
             19335              %TYQ);
      234    19344          %TYPE_MATRIX_ENTRY(@LOP = %TYF, @ROP = %TYQ, @LOP_BECOMES = %TYQ, @ROP_BECOMES =
             19344              %TYQ);
      235    19353          %TYPE_MATRIX_ENTRY(@LOP = %TYF, @ROP = %TYJ, @LOP_BECOMES = %TYD, @ROP_BECOMES =
             19353              %TYD);
      236    19362          %TYPE_MATRIX_ENTRY(@LOP = %TYF, @ROP = %TYO, @LOP_BECOMES = %TYD, @ROP_BECOMES =
             19362              %TYO);
      237    19371          %TYPE_MATRIX_ENTRY(@LOP = %TYF, @ROP = %TYK, @LOP_BECOMES = %TYD, @ROP_BECOMES =
             19371              %TYD);
      238    19380          %TYPE_MATRIX_ENTRY(@LOP = %TYF, @ROP = %TYA, @LOP_BECOMES = %TYA, @ROP_BECOMES =
PL6.E3A0      #001=Z8EK$OPTIMAL_BRANCHES File=Z8EK.:Z8A6TSI                      SAT 08/09/97 11:56 Page:11
             19380              %TYA);
      239    19389          %TYPE_MATRIX_ENTRY(@LOP = %TYF, @ROP = %TYE, @LOP_BECOMES = %TYA, @ROP_BECOMES =
             19389              %TYA);
      240    19398          %TYPE_MATRIX_ENTRY(@LOP = %TYF, @ROP = %TYF, @LOP_BECOMES = %TYF, @ROP_BECOMES =
             19398              %TYF);
      241    19407          %TYPE_MATRIX_ENTRY(@LOP = %TYF, @ROP = %TYB, @LOP_BECOMES = %TYA, @ROP_BECOMES =
             19407              %TYA);
      242    19416          %TYPE_MATRIX_ENTRY(@LOP = %TYB, @ROP = %TYI, @LOP_BECOMES = %TYA, @ROP_BECOMES =
             19416              %TYA);
      243    19425          %TYPE_MATRIX_ENTRY(@LOP = %TYB, @ROP = %TYD, @LOP_BECOMES = %TYA, @ROP_BECOMES =
             19425              %TYA);
      244    19434          %TYPE_MATRIX_ENTRY(@LOP = %TYB, @ROP = %TYH, @LOP_BECOMES = %TYA, @ROP_BECOMES =
             19434              %TYA);
      245    19443          %TYPE_MATRIX_ENTRY(@LOP = %TYB, @ROP = %TYR, @LOP_BECOMES = %TYA, @ROP_BECOMES =
             19443              %TYA);
      246    19452          %TYPE_MATRIX_ENTRY(@LOP = %TYB, @ROP = %TYQ, @LOP_BECOMES = %TYA, @ROP_BECOMES =
             19452              %TYA);
      247    19461          %TYPE_MATRIX_ENTRY(@LOP = %TYB, @ROP = %TYJ, @LOP_BECOMES = %TYA, @ROP_BECOMES =
             19461              %TYA);
      248    19470          %TYPE_MATRIX_ENTRY(@LOP = %TYB, @ROP = %TYO, @LOP_BECOMES = %TYA, @ROP_BECOMES =
             19470              %TYA);
      249    19479          %TYPE_MATRIX_ENTRY(@LOP = %TYB, @ROP = %TYK, @LOP_BECOMES = %TYA, @ROP_BECOMES =
             19479              %TYA);
      250    19488          %TYPE_MATRIX_ENTRY(@LOP = %TYB, @ROP = %TYA, @LOP_BECOMES = %TYA, @ROP_BECOMES =
             19488              %TYA);
      251    19497          %TYPE_MATRIX_ENTRY(@LOP = %TYB, @ROP = %TYE, @LOP_BECOMES = %TYA, @ROP_BECOMES =
             19497              %TYA);
      252    19506          %TYPE_MATRIX_ENTRY(@LOP = %TYB, @ROP = %TYF, @LOP_BECOMES = %TYA, @ROP_BECOMES =
             19506              %TYA);
      253    19515          %TYPE_MATRIX_ENTRY(@LOP = %TYB, @ROP = %TYB, @LOP_BECOMES = %TYA, @ROP_BECOMES =
             19515              %TYA);
      254    19524          %TYPE_MATRIX_ENTRY(@LOP = %TYN, @ROP = %TYN, @LOP_BECOMES = %TYN, @ROP_BECOMES =
             19524              %TYN);
      255    19533        %TYPE_MATRIX_END;
      256    19542        %EJECT;
PL6.E3A0      #001=Z8EK$OPTIMAL_BRANCHES File=Z8EK.:Z8A6TSI                      SAT 08/09/97 11:56 Page:12
      257    19543    1   COMPARE_LOOP : PROC (LIST$,
      258    19544    1                        LABEL$,
      259    19545    1                        COND_OP);
      260    19546
      261    19547    2     DCL LIST$ PTR;
      262    19548    2     DCL LABEL$ PTR;
      263    19549    2     DCL COND_OP SBIN WORD;
      264    19550
      265    19551    2     DCL END_LABEL$ PTR;
      266    19552
      267    19553
      268    19554    2     GEN_COMPARE : PROC (OP,
      269    19555    2                         LABEL$);
      270    19556
      271    19557    3       DCL OP SBIN WORD;
      272    19558    3       DCL LABEL$ PTR;
      273    19559
      274    19560          /*V*  This procedure generates a comparison loop for  constructs like
      275    19561                         IF STR = ALL "XXX"
      276    19562
      277    19563              The algorithm is :
      278    19564
      279    19565                   NUM_COMPARISONS = DIV (LEN(STR), LEN(LIT));
      280    19566                   REMAINING_CHARS = MOD (LEN(STR), LEN(LIT))
      281    19567
      282    19568                   <Emit only if NUM_COMPARISONS ~= constant 0>
      283    19569
      284    19570                       DO I = 1 TO LEN(STR) - LEN(LIT) + 1  BY LEN(LIT);
      285    19571
      286    19572                         IF LIT ~= SUBSTR(STR, I, LEN(LIT)) THEN
      287    19573                           IF LIT <OP> SUBSTR(STR, I, LEN(LIT)) THEN
      288    19574                             GO TO LABEL$
      289    19575                           ELSE
      290    19576                             GO TO END_OF_LOOP;
      291    19577
      292    19578                       END;
      293    19579
PL6.E3A0      #001=Z8EK$OPTIMAL_BRANCHES File=Z8EK.:Z8A6TSI                      SAT 08/09/97 11:56 Page:13
      294    19580                   <Emit only if REMAINING_CHARS ~= constant 0>
      295    19581
      296    19582                       IF REMAINING_CHARS > 0
      297    19583                         IF SUBSTR(LIT, 1, REMAINING_CHARS)
      298    19584                             <OP> SUBSTR (STR,
      299    19585                                          I,  (or 1 if above loop was not emitted)
      300    19586                                          REMAINING_CHARS)
      301    19587                           GO TO LABEL$
      302    19588          */
      303    19589
      304    19590    3       DCL STR$ PTR;
      305    19591    3       DCL LIT$ PTR;
      306    19592    3       DCL END_LABEL$ PTR;
      307    19593    3       DCL TEMP_LABEL$ PTR;
      308    19594
      309    19595            %DCL_AUTO_LX_ITEM(@NAME = STR_LEN);
      310    19599            %DCL_AUTO_LX_ITEM(@NAME = LIT_LEN);
      311    19603            %DCL_AUTO_LX_ITEM(@NAME = LOOP_COUNTER);
      312    19607            %DCL_AUTO_LX_ITEM(@NAME = NUM_COMPARISONS STATIC);
      313    19611            %DCL_AUTO_LX_ITEM(@NAME = REM_CHARS);
      314    19615            %DCL_AUTO_LX_ITEM(@NAME = SUBSTRING);
      315    19619            %DCL_AUTO_LX_ITEM(@NAME = SUBSTRING2);
      316    19623            %DCL_AUTO_LX_ITEM(@NAME = COMPARE);
      317    19627            %DCL_AUTO_LX_ITEM(@NAME = MINUS STATIC);
      318    19631            %DCL_AUTO_LX_ITEM(@NAME = PLUS STATIC);
      319    19635            %DCL_AUTO_LX_ITEM (@NAME = SAVED_ILS_LIST);
      320    19639
      321    19640    3       ADDR(SAVED_ILS_LIST) -> ILS_LIST = O1COM.ILS_LIST;
      322    19641
      323    19642            %INIT_ILS_LIST(@POINTER ="ADDR(O1COM.ILS_LIST)");
      324    19650
      325    19651    3       END_LABEL$ = ADDR(NIL);
      326    19652
      327    19653            %INIT_LX_ETT_ITEM (@POINTER = "ADDR(LOOP_COUNTER)",
      328    19654                               @ETT$ = "ADDR(NIL)");
      329    19676
      330    19677    3       ONE.ETT$ = COMCOM.VALUE_1;
PL6.E3A0      #001=Z8EK$OPTIMAL_BRANCHES File=Z8EK.:Z8A6TSI                      SAT 08/09/97 11:56 Page:14
      331    19678
      332    19679            /*V* Get the two operands to be compared from the list.
      333    19680               The first is the string;  the second is the ALL <literal>
      334    19681            */
      335    19682
      336    19683    3       STR$ = LIST$ -> LX_LIST.HEAD$;
      337    19684    3       LIT$ = LIST$ -> LX_LIST.TAIL$;
      338    19685    3       LIT$ -> LX_ETT_ITEM.B.ALL = FALSE;
      339    19686
      340    19687            /*V* Calculate the lengths */
      341    19688
      342    19689            %INIT_LX_ETT_ITEM (@POINTER = "ADDR(STR_LEN)",
      343    19690                               @TYPE = %TYI);
      344    19712
      345    19713    3       CALL Z8AU$LENGTH_ETT (STR$ -> LX_ETT_ITEM.ETT$,
      346    19714    3                             ADDR(STR_LEN) -> LX_ETT_ITEM.ETT$);
      347    19715
      348    19716            %INIT_LX_ETT_ITEM (@POINTER = "ADDR(LIT_LEN)",
      349    19717                               @TYPE = %TYI);
      350    19739
      351    19740    3       CALL Z8AU$LENGTH_ETT (LIT$ -> LX_ETT_ITEM.ETT$,
      352    19741    3                             ADDR(LIT_LEN) -> LX_ETT_ITEM.ETT$);
      353    19742
      354    19743            /*V* Calculate NUM_COMPARISONS & REM_CHARS */
      355    19744
      356    19745            %INIT_LX_ETT_ITEM (@POINTER = "ADDR(NUM_COMPARISONS)",
      357    19746                               @TYPE = %TYI);
      358    19768
      359    19769    3       CALL Z8AF$FORME (%DVI,
      360    19770    3                        ADDR(STR_LEN) -> LX_ETT_ITEM.ETT$,
      361    19771    3                        ADDR(LIT_LEN) -> LX_ETT_ITEM.ETT$,
      362    19772    3                        ADDR(NUM_COMPARISONS) -> LX_ETT_ITEM.ETT$);
      363    19773
      364    19774            %INIT_LX_ETT_ITEM (@POINTER = "ADDR(REM_CHARS)",
      365    19775                               @TYPE = %TYI);
      366    19797
      367    19798    3       CALL Z8AF$FORME (%MODI,
PL6.E3A0      #001=Z8EK$OPTIMAL_BRANCHES File=Z8EK.:Z8A6TSI                      SAT 08/09/97 11:56 Page:15
      368    19799    3                        ADDR(STR_LEN) -> LX_ETT_ITEM.ETT$,
      369    19800    3                        ADDR(LIT_LEN) -> LX_ETT_ITEM.ETT$,
      370    19801    3                        ADDR(REM_CHARS) -> LX_ETT_ITEM.ETT$);
      371    19802
      372    19803            /*V* Issue loop for whole comparisons */
      373    19804
      374    19805    3       IF ADDR(NUM_COMPARISONS) -> LX_ETT_ITEM.ETT$ ~= COMCOM.VALUE_0 THEN
      375    19806    4         DO;
      376    19807    4           CALL Z8EU$NEW_TEMP_FROM_ETT (COMCOM.VALUE_1,
      377    19808    4                                        ADDR(LOOP_COUNTER));
      378    19809
      379    19810
      380    19811    4           CALL Z8EY$SUBSTR (STR$,
      381    19812    4                             ADDR(LOOP_COUNTER),
      382    19813    4                             ADDR(LIT_LEN),
      383    19814    4                             ADDR(SUBSTRING));
      384    19815
      385    19816                %INIT_BINARY_OP (@POINTER = "ADDR(COMPARE)",
      386    19817                                 @LOP$ = LIT$,
      387    19818                                 @ROP$ = "ADDR(SUBSTRING)",
      388    19819                                 @OP = %OP_NOT_EQUAL);
      389    19837
      390    19838    4           IF OP = %OP_NOT_EQUAL THEN
      391    19839    4             CALL Z8EK$BRANCH_TRUE (LABEL$,
      392    19840    4                                    ADDR(COMPARE));
      393    19841    4           ELSE
      394    19842    5             DO;
      395    19843    5               CALL Z8AT$CREATE_TEMPORARY (%PARA,
      396    19844    5                                           TEMP_LABEL$);
      397    19845
      398    19846    5               CALL Z8EK$BRANCH_FALSE (TEMP_LABEL$,
      399    19847    5                                       ADDR(COMPARE));
      400    19848
      401    19849    5               ADDR(COMPARE) -> BINARY_OP.OP = OP;
      402    19850
      403    19851    5               CALL Z8EK$BRANCH_TRUE (LABEL$,
      404    19852    5                                      ADDR(COMPARE));
PL6.E3A0      #001=Z8EK$OPTIMAL_BRANCHES File=Z8EK.:Z8A6TSI                      SAT 08/09/97 11:56 Page:16
      405    19853
      406    19854    5               CALL Z8AT$CREATE_TEMPORARY (%PARA,
      407    19855    5                                           END_LABEL$);
      408    19856
      409    19857    5               CALL Z8EK$BRANCH (END_LABEL$);
      410    19858
      411    19859                    %NEW_ILL (@ID = %DEFLB,
      412    19860                              @LABEL$ = TEMP_LABEL$);
      413    20239    5             END;
      414    20240
      415    20241                /*V* Merge loop over IF statements */
      416    20242
      417    20243                %INIT_BINARY_OP (@POINTER = "ADDR(PLUS)",
      418    20244                                 @LOP$ = "ADDR(ONE)",
      419    20245                                 @ROP$ = "ADDR(STR_LEN)",
      420    20246                                 @OP = %OP_PLUS);
      421    20264
      422    20265                %INIT_BINARY_OP (@POINTER = "ADDR(MINUS)",
      423    20266                                 @LOP$ = "ADDR(PLUS)",
      424    20267                                 @ROP$ = "ADDR(LIT_LEN)",
      425    20268                                 @OP = %OP_BINARY_MINUS);
      426    20286
      427    20287                %INIT_BINARY_OP (@POINTER = "ADDR(COMPARE)",
      428    20288                                 @LOP$ = "ADDR(LOOP_COUNTER)",
      429    20289                                 @ROP$ = "ADDR(MINUS)",
      430    20290                                 @OP = %OP_LESS_THAN_OR_EQUAL);
      431    20308
      432    20309    4           CALL Z8EQ$MERGE_ITERATED_DO_WHILE (ADDR(LOOP_COUNTER),
      433    20310    4                                              ADDR(ONE),
      434    20311    4                                              ADDR(LIT_LEN),
      435    20312    4                                              ADDR(COMPARE));
      436    20313    4         END;
      437    20314
      438    20315            /*V* Issue last IF statement */
      439    20316
      440    20317    3       IF ADDR(REM_CHARS) -> LX_ETT_ITEM.ETT$ ~= COMCOM.VALUE_0 THEN
      441    20318    4         DO;
PL6.E3A0      #001=Z8EK$OPTIMAL_BRANCHES File=Z8EK.:Z8A6TSI                      SAT 08/09/97 11:56 Page:17
      442    20319    4           ZERO.ETT$ = COMCOM.VALUE_0;
      443    20320
      444    20321                %INIT_BINARY_OP (@POINTER = "ADDR(COMPARE)",
      445    20322                                 @LOP$ = "ADDR(REM_CHARS)",
      446    20323                                 @ROP$ = "ADDR(ZERO)",
      447    20324                                 @OP = %OP_GREATER_THAN);
      448    20342
      449    20343    4           IF END_LABEL$ = ADDR(NIL) THEN
      450    20344    4             CALL Z8AT$CREATE_TEMPORARY (%PARA,
      451    20345    4                                         END_LABEL$);
      452    20346
      453    20347    4           CALL Z8EK$BRANCH_FALSE (END_LABEL$,
      454    20348    4                                 ADDR(COMPARE));
      455    20349
      456    20350    4           CALL Z8EY$SUBSTR (LIT$,
      457    20351    4                             ADDR(ONE),
      458    20352    4                             ADDR(REM_CHARS),
      459    20353    4                             ADDR(SUBSTRING));
      460    20354
      461    20355    4           IF ADDR(LOOP_COUNTER) -> LX_ETT_ITEM.ETT$ = ADDR(NIL) THEN
      462    20356    4             CALL Z8EY$SUBSTR (STR$,
      463    20357    4                               ADDR(ONE),
      464    20358    4                               ADDR(REM_CHARS),
      465    20359    4                               ADDR(SUBSTRING2));
      466    20360    4           ELSE
      467    20361    4             CALL Z8EY$SUBSTR (STR$,
      468    20362    4                               ADDR(LOOP_COUNTER),
      469    20363    4                               ADDR(REM_CHARS),
      470    20364    4                               ADDR(SUBSTRING2));
      471    20365
      472    20366                %INIT_BINARY_OP (@POINTER = "ADDR(COMPARE)",
      473    20367                                 @LOP$ = "ADDR(SUBSTRING)",
      474    20368                                 @ROP$ = "ADDR(SUBSTRING2)",
      475    20369                                 @OP = OP);
      476    20387
      477    20388    4           CALL Z8EK$BRANCH_TRUE (LABEL$,
      478    20389    4                                  ADDR(COMPARE));
PL6.E3A0      #001=Z8EK$OPTIMAL_BRANCHES File=Z8EK.:Z8A6TSI                      SAT 08/09/97 11:56 Page:18
      479    20390
      480    20391    4         END;
      481    20392
      482    20393    3       IF END_LABEL$ ~= ADDR(NIL) THEN
      483    20394              %NEW_ILL (@ID = %DEFLB,
      484    20395                        @LABEL$ = END_LABEL$);
      485    20774
      486    20775    3       IF ADDR(LOOP_COUNTER) -> LX_ETT_ITEM.ETT$ ~= ADDR(NIL) THEN
      487    20776    3         CALL Z8EU$DISPOSE_TEMP (ADDR(LOOP_COUNTER) -> LX_ETT_ITEM.ETT$);
      488    20777
      489    20778            %APPEND_ILS_LIST(@FROM$ = "ADDR(O1COM.ILS_LIST)",
      490    20779                             @TO$ = "ADDR(SAVED_ILS_LIST)");
      491    20796
      492    20797    3       O1COM.ILS_LIST = ADDR(SAVED_ILS_LIST) -> ILS_LIST;
      493    20798
      494    20799    3     END GEN_COMPARE;
      495    20800
      496    20801
      497    20802
      498    20803    2   GEN_MODIFIED_LOOP : PROC (OP);
      499    20804
      500    20805    3     DCL OP SBIN WORD;
      501    20806
      502    20807    3         CALL Z8AT$CREATE_TEMPORARY (%PARA,
      503    20808    3                                     END_LABEL$);
      504    20809
      505    20810    3         CALL GEN_COMPARE (OP,
      506    20811    3                           END_LABEL$);
      507    20812
      508    20813    3         CALL Z8EK$BRANCH(LABEL$);
      509    20814
      510    20815              %NEW_ILL (@ID = %DEFLB,
      511    20816                        @LABEL$ = END_LABEL$);
      512    21195
      513    21196    3   END GEN_MODIFIED_LOOP;
      514    21197
      515    21198
PL6.E3A0      #001=Z8EK$OPTIMAL_BRANCHES File=Z8EK.:Z8A6TSI                      SAT 08/09/97 11:56 Page:19
      516    21199
      517    21200          /*V* Main body of COMPARE_LOOP */
      518    21201
      519    21202    3     DO CASE (COND_OP);
      520    21203
      521    21204    3       CASE (%OP_EQUAL);
      522    21205
      523    21206    3         CALL GEN_MODIFIED_LOOP (%OP_NOT_EQUAL);
      524    21207
      525    21208    3       CASE(%OP_NOT_EQUAL);
      526    21209
      527    21210    3         CALL GEN_COMPARE (%OP_NOT_EQUAL,
      528    21211    3                           LABEL$);
      529    21212
      530    21213    3       CASE(%OP_LESS_THAN);
      531    21214
      532    21215    3         CALL GEN_COMPARE (%OP_LESS_THAN,
      533    21216    3                           LABEL$);
      534    21217
      535    21218    3       CASE (%OP_LESS_THAN_OR_EQUAL);
      536    21219
      537    21220    3         CALL GEN_MODIFIED_LOOP (%OP_GREATER_THAN);
      538    21221
      539    21222    3       CASE (%OP_GREATER_THAN);
      540    21223
      541    21224    3         CALL GEN_COMPARE (%OP_GREATER_THAN,
      542    21225    3                           LABEL$);
      543    21226
      544    21227    3       CASE (%OP_GREATER_THAN_OR_EQUAL);
      545    21228
      546    21229    3         CALL GEN_MODIFIED_LOOP (%OP_LESS_THAN);
      547    21230
      548    21231    3     END;
      549    21232
      550    21233    2     CALL Z8ED$DISPOSE_ABSSYN_TREE (LIST$);
      551    21234
      552    21235    2   END COMPARE_LOOP;
PL6.E3A0      #001=Z8EK$OPTIMAL_BRANCHES File=Z8EK.:Z8A6TSI                      SAT 08/09/97 11:56 Page:20
      553    21236        %EJECT;
PL6.E3A0      #001=Z8EK$OPTIMAL_BRANCHES File=Z8EK.:Z8A6TSI                      SAT 08/09/97 11:56 Page:21
      554    21237    1   GEN_COMPARISONS:PROC(NODE$, RETURN$) ALTRET;
      555    21238
      556    21239    2        DCL NODE$   PTR;
      557    21240    2        DCL RETURN$ PTR;
      558    21241
      559    21242
      560    21243        /*P*
      561    21244              NAME : GEN_COMPARISONS
      562    21245           PURPOSE : Interface between Abstract Syntax Tree and ETT comparison
      563    21246                     items.
      564    21247
      565    21248        */
      566    21249
      567    21250
      568    21251    2        DCL DB_FLAG_LOP    BOOLEAN;
      569    21252    2        DCL DB_FLAG_ROP    BOOLEAN;
      570    21253    2        DCL DB_REG_LOP     BOOLEAN;
      571    21254    2        DCL DB_REG_ROP     BOOLEAN;
      572    21255    2        DCL ID             SBIN WORD;
      573    21256    2        DCL ETT$$          PTR;
      574    21257    2        DCL LOP$           PTR;
      575    21258    2        DCL ROP$           PTR;
      576    21259    2        DCL LOP_IS_POINTER BOOLEAN;
      577    21260    2        DCL ROP_IS_POINTER BOOLEAN;
      578    21261    2        DCL LOP_IS_TYI     BOOLEAN;
      579    21262    2        DCL ROP_IS_TYI     BOOLEAN;
      580    21263    2        DCL TEMP_SBIN      SBIN;
      581    21264    2        DCL DEC_PT         CHAR (1); /* '.' or ',' */
      582    21265
      583    21266    2        DCL ST$$           PTR;
      584    21267    2        DCL TEMP$          PTR;
      585    21268    2        DCL CONTEXT        SBIN WORD;
      586    21269
      587    21270    2        DCL 1 CFILL_ROP UNAL,
      588    21271    2              2 CH     CHAR(1) UNAL,
      589    21272    2              2 REM_CH UBIN(27) UNAL;
      590    21273
PL6.E3A0      #001=Z8EK$OPTIMAL_BRANCHES File=Z8EK.:Z8A6TSI                      SAT 08/09/97 11:56 Page:22
      591    21274             %DCL_AUTO_LX_ITEM( @NAME = TEMP_LOP_ITEM );
      592    21278             %DCL_AUTO_LX_ITEM( @NAME = TEMP_ROP_ITEM );
      593    21282
      594    21283
      595    21284    2   CHECK_NONNUM_NUM_COMP : PROC (ORIG$,
      596    21285    2                                 NEW$);
      597    21286
      598    21287    3     DCL ORIG$ PTR;
      599    21288    3     DCL NEW$  PTR;
      600    21289
      601    21290    3   IF ORIG$ -> LX_ITEM.ID = %LX_TERMINAL THEN
      602    21291    3     IF ORIG$ -> LX_TERMINAL.SYMBOL = %NUMBER
      603    21292    3        OR ORIG$ -> LX_TERMINAL.SYMBOL = %RSV_WRD_ZEROES THEN
      604    21293    3       CALL Z8EV$CONVERT (%TYA,
      605    21294    3                          ORIG$,
      606    21295    3                          NEW$);
      607    21296    3     ELSE
      608    21297    4       DO;
      609    21298    4         CALL Z8CO$CHECK_INTEGER_TERMINAL (ORIG$) ALTRET (NONINTEGER);
      610    21299
      611    21300    4         CALL Z8EV$CONVERT (%TYA,
      612    21301    4                            ORIG$,
      613    21302    4                            NEW$);
      614    21303
      615    21304    4         NONINTEGER: ;
      616    21305    4       END;
      617    21306
      618    21307    3   END CHECK_NONNUM_NUM_COMP;
      619    21308        %EJECT;
PL6.E3A0      #001=Z8EK$OPTIMAL_BRANCHES File=Z8EK.:Z8A6TSI                      SAT 08/09/97 11:56 Page:23
      620    21309    2   INDEX_OCCURRENCE_ITEM:PROC(NODE$, RETURN$);
      621    21310
      622    21311    3        DCL NODE$     PTR;
      623    21312    3        DCL RETURN$   PTR;
      624    21313
      625    21314    3        DCL ST$$      PTR;
      626    21315
      627    21316
      628    21317    3        DCL Z8EU$CREATE_IDENTIFIER_FROM_ST       ENTRY(4);
      629    21318
      630    21319
      631    21320
      632    21321             %FISH(TRIAD = NODE$ -> LX_ETT_ITEM.ETT$, RTN = ST$$);
      633    21329
      634    21330    3        ST$$ = ST$$ -> SCALAR.QLT$ -> QLT.BROTHER -> QLT.SON ->
      635    21331    3               QLT.BROTHER -> QLT.ST$;
      636    21332
      637    21333    3        CALL Z8EU$CREATE_IDENTIFIER_FROM_ST(ST$$, RETURN$);
      638    21334
      639    21335    3   END INDEX_OCCURRENCE_ITEM;
      640    21336        %EJECT;
PL6.E3A0      #001=Z8EK$OPTIMAL_BRANCHES File=Z8EK.:Z8A6TSI                      SAT 08/09/97 11:56 Page:24
      641    21337    2   GEN_CMPA_WITH_OPT_CVT : PROC (LOP$, ROP$);
      642    21338
      643    21339    3     DCL LOP$ PTR;
      644    21340    3     DCL ROP$ PTR;
      645    21341    3     DCL COLLATING$ PTR;
      646    21342    4                DO;
      647    21343    4                  COLLATING$ = O1COM.CURRENT_PROC$ -> PROC_.PROC_SUPP$ ->
      648    21344    4                               PROC_SUPP.COLLATING_SEQ$;
      649    21345
      650    21346    4                  IF COLLATING$ ~= ADDR(NIL)
      651    21347    4                  AND ((NODE$ -> BINARY_OP.OP ~= %OP_EQUAL
      652    21348    4                        AND NODE$ -> BINARY_OP.OP ~= %OP_NOT_EQUAL)
      653    21349    4                        OR COLLATING$ -> ALPHABET.B.ALSO) THEN
      654    21350    5                    DO;
      655    21351    5                      CALL Z8AF$FORME (%CVT,
      656    21352    5                                       LOP$ -> LX_ETT_ITEM.ETT$,
      657    21353    5                                       COLLATING$ -> ALPHABET.TABLE_ETT$,
      658    21354    5                                       LOP$ -> LX_ETT_ITEM.ETT$);
      659    21355    5                      CALL Z8AF$FORME (%CVT,
      660    21356    5                                       ROP$ -> LX_ETT_ITEM.ETT$,
      661    21357    5                                       COLLATING$ -> ALPHABET.TABLE_ETT$,
      662    21358    5                                       ROP$ -> LX_ETT_ITEM.ETT$);
      663    21359    5                    END;
      664    21360    4                  CALL Z8AF$FORME( %CMPA ,
      665    21361    4                                   LOP$ -> LX_ETT_ITEM.ETT$ ,
      666    21362    4                                   ROP$ -> LX_ETT_ITEM.ETT$ ,
      667    21363    4                                   ETT$$ );
      668    21364    4                END;
      669    21365
      670    21366    3   END GEN_CMPA_WITH_OPT_CVT;
      671    21367        %EJECT;
PL6.E3A0      #001=Z8EK$OPTIMAL_BRANCHES File=Z8EK.:Z8A6TSI                      SAT 08/09/97 11:56 Page:25
      672    21368
      673    21369    2   CHECK_ALL_COMPARE : PROC (LOP$, ROP$, TYPE_CFILL) ALTRET;
      674    21370
      675    21371    3     DCL LOP$ PTR;
      676    21372    3     DCL ROP$ PTR;
      677    21373    3     DCL TYPE_CFILL SBIN;
      678    21374
      679    21375          %EQU MAX_BUF_LEN = 512;
      680    21376
      681    21377    3     DCL CONST_BUF CHAR(%MAX_BUF_LEN);
      682    21378
      683    21379    3     DCL BUF_LEN_ETT$    PTR;
      684    21380    3     DCL NUM_COMPARISONS SBIN;
      685    21381    3     DCL REMAINING_CHARS SBIN;
      686    21382    3     DCL LEN_STR         SBIN;
      687    21383    3     DCL LEN_LIT         SBIN;
      688    21384    3     DCL ADDR_LIT$       PTR;
      689    21385    3     DCL DIFF_LEN        UBIN;
      690    21386    3     DCL BASED_LIT       CHAR(LEN_LIT) BASED(ADDR_LIT$);
      691    21387    3     DCL I               SBIN;
      692    21388    3     DCL COLLATING$      PTR;
      693    21389        %EJECT;
PL6.E3A0      #001=Z8EK$OPTIMAL_BRANCHES File=Z8EK.:Z8A6TSI                      SAT 08/09/97 11:56 Page:26
      694    21390
      695    21391    3     COLLATING$ = O1COM.CURRENT_PROC$ -> PROC_.PROC_SUPP$ ->
      696    21392    3                  PROC_SUPP.COLLATING_SEQ$;
      697    21393
      698    21394          %FISH(TRIAD = LOP$ -> LX_ETT_ITEM.ETT$, RTN = ST$$);
      699    21402
      700    21403    3     CALL Z8AU$LENGTH_ETT(LOP$ -> LX_ETT_ITEM.ETT$, ETT$$);
      701    21404
      702    21405    3     IF ETT$$ = COMCOM.VALUE_1 THEN
      703    21406    3       IF COLLATING$ = ADDR(NIL)
      704    21407    3           OR ((NODE$ -> BINARY_OP.OP = %OP_EQUAL
      705    21408    3                OR NODE$ -> BINARY_OP.OP = %OP_NOT_EQUAL)
      706    21409    3                AND NOT COLLATING$ -> ALPHABET.B.ALSO) THEN
      707    21410    4         DO;
      708    21411    4           IF  ROP$ -> LX_ETT_ITEM.TYPE = %TYN
      709    21412    4           AND (ST$$ -> ST.DNT$ -> DNT.TEXT.NAME = 'SPACE'
      710    21413    4             OR ST$$ -> ST.DNT$ -> DNT.TEXT.NAME = 'SPACES') THEN
      711    21414    4             CFILL_ROP.CH = %KANJI_SPACE ;
      712    21415    4           ELSE
      713    21416    4             CFILL_ROP.CH = SUBSTR (ST$$ -> CONST.CONSTA, 0, 1);
      714    21417    4           CFILL_ROP.REM_CH = 0;
      715    21418    4           CALL Z8AF$FORME(TYPE_CFILL,
      716    21419    4                           ROP$ -> LX_ETT_ITEM.ETT$,
      717    21420    4                           CFILL_ROP,
      718    21421    4                           ETT$$);
      719    21422    4         END;
      720    21423    3       ELSE
      721    21424    4         DO;
      722    21425    4           CFILL_ROP.CH = COLLATING$
      723    21426    4                             -> ALPHABET.TABLE$
      724    21427    4                             -> TRANS.TABLE_C (ASCBIN(
      725    21428    4                                  SUBSTR(ST$$ -> CONST.CONSTA,0,1)));
      726    21429    4           CFILL_ROP.REM_CH = 0;
      727    21430
      728    21431    4           CALL Z8AF$FORME (%CVT,
      729    21432    4                            ROP$ -> LX_ETT_ITEM.ETT$,
      730    21433    4                            COLLATING$ ->
PL6.E3A0      #001=Z8EK$OPTIMAL_BRANCHES File=Z8EK.:Z8A6TSI                      SAT 08/09/97 11:56 Page:27
      731    21434    4                              ALPHABET.TABLE_ETT$,
      732    21435    4                            ROP$ -> LX_ETT_ITEM.ETT$);
      733    21436
      734    21437    4           CALL Z8AF$FORME (TYPE_CFILL,
      735    21438    4                            ROP$ -> LX_ETT_ITEM.ETT$,
      736    21439    4                            CFILL_ROP,
      737    21440    4                            ETT$$);
      738    21441    4         END;
      739    21442    3     ELSE
      740    21443    4       DO;
      741    21444              /*Local-opt : Determine if constant can be created for ALL "string",
      742    21445                   so that one compare can be done;  otherwise, a loop will
      743    21446                   have to be generated */
      744    21447
      745    21448    4         CALL Z8AU$LENGTH_ETT (ROP$ -> LX_ETT_ITEM.ETT$,
      746    21449    4                               BUF_LEN_ETT$);
      747    21450
      748    21451    4         IF ST$$ -> ST.ID = %CONST
      749    21452    4             AND BUF_LEN_ETT$ -> ETT.ID = %TRIAD
      750    21453    4             AND BUF_LEN_ETT$ -> ETT.LOP -> CONST.CONSTI.WORD1 <= %MAX_BUF_LEN THEN
      751    21454    5           DO;
      752    21455                  /*V* Build constant for compare */
      753    21456
      754    21457    5             LEN_STR = BUF_LEN_ETT$ -> ETT.LOP -> CONST.CONSTI.WORD1;
      755    21458    5             LEN_LIT = ETT$$ -> ETT.LOP -> CONST.CONSTI.WORD1;
      756    21459    5             NUM_COMPARISONS = LEN_STR / LEN_LIT;
      757    21460    5             REMAINING_CHARS = MOD(LEN_STR, LEN_LIT);
      758    21461    5             DIFF_LEN = LEN_STR - LEN_LIT;
      759    21462
      760    21463                  %GET_CONSTANT_ADDRESS (@CONSTANT = LOP$ -> LX_ETT_ITEM.ETT$ -> ETT.LOP,
      761    21464                                         @STRING = ADDR_LIT$);
      762    21472
      763    21473    5             I = 0;
      764    21474    5             IF NUM_COMPARISONS > 0 THEN
      765    21475    6               DO I = 0 TO DIFF_LEN BY LEN_LIT;
      766    21476
      767    21477    6                 SUBSTR(CONST_BUF, I, LEN_LIT) = BASED_LIT;
PL6.E3A0      #001=Z8EK$OPTIMAL_BRANCHES File=Z8EK.:Z8A6TSI                      SAT 08/09/97 11:56 Page:28
      768    21478
      769    21479    6               END;
      770    21480
      771    21481    5             IF REMAINING_CHARS > 0 THEN
      772    21482    5               SUBSTR( CONST_BUF, I, REMAINING_CHARS)
      773    21483    5                   = SUBSTR(BASED_LIT, 0, REMAINING_CHARS);
      774    21484
      775    21485    5             CALL Z8AC$MAKE_TYA_CONST (CONST_BUF,
      776    21486    5                                       LEN_STR,
      777    21487    5                                       0,
      778    21488    5                                       LOP$ -> LX_ETT_ITEM.ETT$);
      779    21489    5             LOP$ -> LX_ETT_ITEM.B.ALL = FALSE;
      780    21490
      781    21491    5             IF TYPE_CFILL = %CFILL THEN
      782    21492    5               CALL GEN_CMPA_WITH_OPT_CVT (ROP$, LOP$);
      783    21493    5             ELSE
      784    21494    5               CALL GEN_CMPA_WITH_OPT_CVT (LOP$, ROP$);
      785    21495    5           END;
      786    21496    4         ELSE
      787    21497    5           DO;
      788    21498                  /*V* Save data for generation of ILL loop */
      789    21499
      790    21500                  %NEW (@TEMPLATE = LX_LIST,
      791    21501                        @POINTER = RETURN$);
      792    21511
      793    21512                  %INIT_LX_LIST (@POINTER = RETURN$);
      794    21522
      795    21523                  %NEW_COPY_LX_ITEM (@FROM$ = ROP$,
      796    21524                                     @TO$   = TEMP$);
      797    21536
      798    21537                  %ADD_LX_ITEM_TO_LIST_HEAD (@LIST$ = RETURN$,
      799    21538                                             @FROM$ = TEMP$);
      800    21547
      801    21548                  %NEW_COPY_LX_ITEM (@FROM$ = LOP$,
      802    21549                                     @TO$   = TEMP$);
      803    21561
      804    21562                  %ADD_LX_ITEM_TO_LIST_TAIL (@LIST$ = RETURN$,
PL6.E3A0      #001=Z8EK$OPTIMAL_BRANCHES File=Z8EK.:Z8A6TSI                      SAT 08/09/97 11:56 Page:29
      805    21563                                             @FROM$ = TEMP$);
      806    21579
      807    21580    5             ALTRETURN;
      808    21581    5           END;
      809    21582    4       END;
      810    21583
      811    21584    3   END CHECK_ALL_COMPARE;
      812    21585
      813    21586        %EJECT;
PL6.E3A0      #001=Z8EK$OPTIMAL_BRANCHES File=Z8EK.:Z8A6TSI                      SAT 08/09/97 11:56 Page:30
      814    21587        /*V* Main body of GEN_COMPARISONS */
      815    21588
      816    21589    2        LOP$ = ADDR(TEMP_LOP_ITEM);
      817    21590    2        ROP$ = ADDR(TEMP_ROP_ITEM);
      818    21591    2        DB_FLAG_LOP = %FALSE;
      819    21592    2        DB_FLAG_ROP = %FALSE;
      820    21593    2        DB_REG_LOP = %FALSE;
      821    21594    2        DB_REG_ROP = %FALSE;
      822    21595    2        LOP_IS_POINTER = %FALSE;
      823    21596    2        ROP_IS_POINTER = %FALSE;
      824    21597    2        LOP_IS_TYI = %FALSE;
      825    21598    2        ROP_IS_TYI = %FALSE;
      826    21599
      827    21600    3        DO SELECT(NODE$ -> BINARY_OP.LOP$ -> LX_ITEM.ID);
      828    21601    3          SELECT(%LX_ETT_ITEM);
      829    21602    4            DO CASE(NODE$ -> BINARY_OP.LOP$ -> LX_ETT_ITEM.TYPE);
      830    21603    4              CASE(%TYX, %TYY);
      831    21604    4                CALL INDEX_OCCURRENCE_ITEM(NODE$ -> BINARY_OP.LOP$,
      832    21605    4                                          LOP$);
      833    21606
      834    21607    4              CASE(%TYP);
      835    21608    5                DO;
      836    21609    5                  LOP_IS_POINTER = %TRUE;
      837    21610
      838    21611    5                  LOP$ -> LX_ETT_ITEM = NODE$ -> BINARY_OP.LOP$ -> LX_ETT_ITEM;
      839    21612    5                  LOP$ -> LX_ETT_ITEM.TYPE = %TYI;
      840    21613    5                END;
      841    21614
      842    21615    4              CASE(%TYC);
      843    21616    4                CALL Z8CO$CREATE_LIBRARY_BASE(%OP_GBCD_TO_ASCII, TRANS_TABLE_ETT$);
      844    21617    4                LOP$ -> LX_ETT_ITEM = NODE$ -> BINARY_OP.LOP$ -> LX_ETT_ITEM;
      845    21618    4                CALL Z8AF$FORME(%CVT,
      846    21619    4                                LOP$ -> LX_ETT_ITEM.ETT$,
      847    21620    4                                TRANS_TABLE_ETT$,
      848    21621    4                                LOP$ -> LX_ETT_ITEM.ETT$);
      849    21622                     %FISH(TRIAD = NODE$ -> BINARY_OP.LOP$ -> LX_ETT_ITEM.ETT$, RTN = ST$$);
      850    21630    4                IF ST$$ -> VARIABLE.NDSC.TN = %NDSC4 /* Overpunched */
PL6.E3A0      #001=Z8EK$OPTIMAL_BRANCHES File=Z8EK.:Z8A6TSI                      SAT 08/09/97 11:56 Page:31
      851    21631    4                  THEN LOP$ -> LX_ETT_ITEM.TYPE = %TYO;
      852    21632    4                  ELSE LOP$ -> LX_ETT_ITEM.TYPE = %TYD;
      853    21633
      854    21634    4              CASE(ELSE);
      855    21635    4                LOP$ -> LX_ETT_ITEM = NODE$ -> BINARY_OP.LOP$ -> LX_ETT_ITEM;
      856    21636
      857    21637    4                IF LOP$ -> LX_ETT_ITEM.TYPE = %TYI   THEN
      858    21638    5                  DO;
      859    21639                         %FISH(TRIAD = LOP$ -> LX_ETT_ITEM.ETT$, RTN = ST$$);
      860    21647    5                    LOP_IS_TYI = %TRUE;
      861    21648    5                    IF ST$$ -> SCALAR.B.DML_TYPE = %DATA_BASE_KEY   OR
      862    21649    5                       ST$$ -> SCALAR.B.DML_TYPE = %DIRECT_REFERENCE  THEN
      863    21650    5                        DB_FLAG_LOP = %TRUE;
      864    21651    5                  END;
      865    21652    4                ELSE IF LOP$ -> LX_ETT_ITEM.TYPE = %TYA THEN
      866    21653    5                  DO;
      867    21654                         %FISH(TRIAD = LOP$ -> LX_ETT_ITEM.ETT$, RTN = ST$$);
      868    21662    5                    IF ST$$ -> VARIABLE.B.DML_TYPE = %DML_REG THEN
      869    21663    5                      DB_REG_LOP = %TRUE;
      870    21664    5                  END;
      871    21665
      872    21666    4            END /*V* Case */;
      873    21667
      874    21668    3          SELECT(%LX_TERMINAL);
      875    21669    4            DO;
      876    21670    4              IF NODE$ -> BINARY_OP.ROP$ -> LX_ITEM.TYPE = %TYN THEN
      877    21671    4                CONTEXT = %CONTEXT_KANJI;
      878    21672    4              ELSE
      879    21673    4                CONTEXT = %CONTEXT_NUMERIC;
      880    21674    4              CALL Z8EV$LEAST_STRONGEST_TYPE(NODE$ -> BINARY_OP.LOP$,
      881    21675    4                                             CONTEXT,
      882    21676    4                                             LOP$);
      883    21677
      884    21678    4              IF NODE$ -> BINARY_OP.LOP$ -> LX_TERMINAL.SYMBOL = %RSV_WRD_NULL THEN
      885    21679    5                DO;
      886    21680    5                  IF NODE$ ->BINARY_OP.ROP$ -> LX_ITEM.ID = %LX_ETT_ITEM AND
      887    21681    5                     NODE$ ->BINARY_OP.ROP$ -> LX_ETT_ITEM.TYPE = %TYP THEN
PL6.E3A0      #001=Z8EK$OPTIMAL_BRANCHES File=Z8EK.:Z8A6TSI                      SAT 08/09/97 11:56 Page:32
      888    21682    6                    DO;
      889    21683                           %INIT_LX_ETT_ITEM (@POINTER = LOP$,
      890    21684                                              @TYPE = %TYI,
      891    21685                                              @ETT$ = COMCOM.NULL_PTR$);
      892    21707    6                      LOP_IS_POINTER = %TRUE;
      893    21708    6                    END;
      894    21709    5                  ELSE
      895    21710    5                    DB_FLAG_LOP = %TRUE;
      896    21711    5                END;
      897    21712    4              ELSE
      898    21713    5                DO CASE (LOP$ -> LX_ETT_ITEM.TYPE);
      899    21714    5                  CASE (%TYD);
      900    21715    5                    IF COMCOM.COMMA_DECIMAL_PRESENT
      901    21716    5                      THEN DEC_PT = ',';
      902    21717    5                      ELSE DEC_PT = '.';
      903    21718
      904    21719    5                    CALL INDEX (TEMP_SBIN, DEC_PT, NODE$ -> BINARY_OP.LOP$ ->
             21719                             LX_TERMINAL.DNT$ -> DNT.TEXT.NAME)
      905    21720    6                      WHENALTRETURN DO; /* No decimal point present */
      906    21721    6                        LOP_IS_TYI = %TRUE;
      907    21722    6                      END;
      908    21723
      909    21724    5                  CASE (%TYI);
      910    21725    5                    LOP_IS_TYI = %TRUE;
      911    21726
      912    21727    5                END;
      913    21728    4            END;
      914    21729
      915    21730    3          SELECT(ELSE);
      916    21731    3            CALL Z8E5$MATH_PACK(NODE$ -> BINARY_OP.LOP$, LOP$);
      917    21732
      918    21733    3        END /*V* Case */;
      919    21734
      920    21735    3        DO SELECT(NODE$ -> BINARY_OP.ROP$ -> LX_ITEM.ID);
      921    21736    3          SELECT(%LX_ETT_ITEM);
      922    21737    4            DO CASE(NODE$ -> BINARY_OP.ROP$ -> LX_ETT_ITEM.TYPE);
      923    21738    4              CASE(%TYX, %TYY);
PL6.E3A0      #001=Z8EK$OPTIMAL_BRANCHES File=Z8EK.:Z8A6TSI                      SAT 08/09/97 11:56 Page:33
      924    21739    4                CALL INDEX_OCCURRENCE_ITEM(NODE$ -> BINARY_OP.ROP$,
      925    21740    4                                          ROP$);
      926    21741
      927    21742    4              CASE(%TYP);
      928    21743    5                DO;
      929    21744    5                  ROP_IS_POINTER = %TRUE;
      930    21745
      931    21746    5                  ROP$ -> LX_ETT_ITEM = NODE$ -> BINARY_OP.ROP$ -> LX_ETT_ITEM;
      932    21747    5                  ROP$ -> LX_ETT_ITEM.TYPE = %TYI;
      933    21748    5                END;
      934    21749
      935    21750    4              CASE(%TYC);
      936    21751    4                CALL Z8CO$CREATE_LIBRARY_BASE(%OP_GBCD_TO_ASCII, TRANS_TABLE_ETT$);
      937    21752    4                ROP$ -> LX_ETT_ITEM = NODE$ -> BINARY_OP.ROP$ -> LX_ETT_ITEM;
      938    21753    4                CALL Z8AF$FORME(%CVT,
      939    21754    4                                ROP$ -> LX_ETT_ITEM.ETT$,
      940    21755    4                                TRANS_TABLE_ETT$,
      941    21756    4                                ROP$ -> LX_ETT_ITEM.ETT$);
      942    21757                     %FISH(TRIAD = NODE$ -> BINARY_OP.ROP$ -> LX_ETT_ITEM.ETT$, RTN = ST$$);
      943    21765    4                IF ST$$ -> VARIABLE.NDSC.TN = %NDSC4 /* Overpunched */
      944    21766    4                  THEN ROP$ -> LX_ETT_ITEM.TYPE = %TYO;
      945    21767    4                  ELSE ROP$ -> LX_ETT_ITEM.TYPE = %TYD;
      946    21768
      947    21769    4              CASE(ELSE);
      948    21770    4                ROP$ -> LX_ETT_ITEM = NODE$ -> BINARY_OP.ROP$ -> LX_ETT_ITEM;
      949    21771
      950    21772    4                IF ROP$ -> LX_ETT_ITEM.TYPE = %TYI     THEN
      951    21773    5                  DO;
      952    21774                         %FISH(TRIAD = ROP$ -> LX_ETT_ITEM.ETT$, RTN = ST$$);
      953    21782    5                    ROP_IS_TYI = %TRUE;
      954    21783    5                    IF ST$$ -> SCALAR.B.DML_TYPE = %DATA_BASE_KEY    OR
      955    21784    5                       ST$$ -> SCALAR.B.DML_TYPE = %DIRECT_REFERENCE  THEN
      956    21785    5                      DB_FLAG_ROP = %TRUE;
      957    21786    5                  END;
      958    21787    4                ELSE IF ROP$ -> LX_ETT_ITEM.TYPE = %TYA THEN
      959    21788    5                  DO;
      960    21789                         %FISH(TRIAD = ROP$ -> LX_ETT_ITEM.ETT$, RTN = ST$$);
PL6.E3A0      #001=Z8EK$OPTIMAL_BRANCHES File=Z8EK.:Z8A6TSI                      SAT 08/09/97 11:56 Page:34
      961    21797    5                    IF ST$$ -> VARIABLE.B.DML_TYPE = %DML_REG THEN
      962    21798    5                      DB_REG_ROP = %TRUE;
      963    21799    5                  END;
      964    21800
      965    21801
      966    21802    4            END /*V* Case */;
      967    21803
      968    21804    3          SELECT(%LX_TERMINAL);
      969    21805    4            DO;
      970    21806    4              IF NODE$ -> BINARY_OP.LOP$ -> LX_ITEM.TYPE = %TYN THEN
      971    21807    4                CONTEXT = %CONTEXT_KANJI;
      972    21808    4              ELSE
      973    21809    4                CONTEXT = %CONTEXT_NUMERIC;
      974    21810    4              CALL Z8EV$LEAST_STRONGEST_TYPE(NODE$ -> BINARY_OP.ROP$,
      975    21811    4                                             CONTEXT,
      976    21812    4                                             ROP$);
      977    21813    4              IF NODE$ -> BINARY_OP.ROP$ -> LX_TERMINAL.SYMBOL = %RSV_WRD_NULL  THEN
      978    21814    5                DO;
      979    21815    5                  IF LOP_IS_POINTER THEN
      980    21816    6                    DO;
      981    21817                           %INIT_LX_ETT_ITEM (@POINTER = ROP$,
      982    21818                                              @TYPE = %TYI,
      983    21819                                              @ETT$ = COMCOM.NULL_PTR$);
      984    21841    6                      ROP_IS_POINTER = %TRUE;
      985    21842    6                    END;
      986    21843    5                  ELSE
      987    21844    5                    DB_FLAG_ROP = %TRUE;
      988    21845    5                END;
      989    21846    4              ELSE
      990    21847    5                DO CASE (ROP$ -> LX_ETT_ITEM.TYPE);
      991    21848    5                  CASE (%TYD);
      992    21849    5                    IF COMCOM.COMMA_DECIMAL_PRESENT
      993    21850    5                      THEN DEC_PT = ',';
      994    21851    5                      ELSE DEC_PT = '.';
      995    21852
      996    21853    5                    CALL INDEX (TEMP_SBIN, DEC_PT, NODE$ -> BINARY_OP.ROP$ ->
             21853                             LX_TERMINAL.DNT$ -> DNT.TEXT.NAME)
PL6.E3A0      #001=Z8EK$OPTIMAL_BRANCHES File=Z8EK.:Z8A6TSI                      SAT 08/09/97 11:56 Page:35
      997    21854    6                      WHENALTRETURN DO; /* No decimal point present */
      998    21855    6                        ROP_IS_TYI = %TRUE;
      999    21856    6                      END;
     1000    21857
     1001    21858    5                  CASE (%TYI);
     1002    21859    5                    ROP_IS_TYI = %TRUE;
     1003    21860
     1004    21861    5                END;
     1005    21862    4            END;
     1006    21863
     1007    21864    3          SELECT(ELSE);
     1008    21865    3            CALL Z8E5$MATH_PACK(NODE$ -> BINARY_OP.ROP$, ROP$);
     1009    21866
     1010    21867    3        END /*V* Case */;
     1011    21868
     1012    21869
     1013    21870             /*V*    Check for Data Base Key comparisons       */
     1014    21871
     1015    21872    2        IF DB_FLAG_LOP   OR   DB_FLAG_ROP    THEN
     1016    21873    3          DO;
     1017    21874
     1018    21875    3            IF NODE$ -> BINARY_OP.OP ~= %OP_EQUAL      AND
     1019    21876    3               NODE$ -> BINARY_OP.OP ~= %OP_NOT_EQUAL       THEN
     1020    21877    3                CALL Z8AE$ERROR(%E$DB_KEY_EQUALITY_ERROR,
     1021    21878    3                                NODE$ -> BINARY_OP.LOP$ -> LX_ITEM.LINE,
     1022    21879    3                                NODE$ -> BINARY_OP.LOP$ -> LX_ITEM.COLUMN);
     1023    21880
     1024    21881    3            IF DB_FLAG_LOP = %FALSE THEN
     1025    21882    3              IF LOP_IS_TYI = %TRUE OR
     1026    21883    3                  NODE$ -> BINARY_OP.LOP$ -> LX_TERMINAL.SYMBOL = %RSV_WRD_ZEROES  THEN
             21883                           ; /* OK */
     1027    21884    3              ELSE
     1028    21885    3                CALL Z8AE$ERROR(%E$DB_KEY_COMPARISON_ERROR,
     1029    21886    3                                NODE$ -> BINARY_OP.LOP$ -> LX_ITEM.LINE,
     1030    21887    3                                NODE$ -> BINARY_OP.LOP$ -> LX_ITEM.COLUMN);
     1031    21888
     1032    21889    3            IF DB_FLAG_ROP = %FALSE THEN
PL6.E3A0      #001=Z8EK$OPTIMAL_BRANCHES File=Z8EK.:Z8A6TSI                      SAT 08/09/97 11:56 Page:36
     1033    21890    3              IF ROP_IS_TYI = %TRUE OR
     1034    21891    3                  NODE$ -> BINARY_OP.ROP$ -> LX_TERMINAL.SYMBOL = %RSV_WRD_ZEROES  THEN
             21891                           ; /* OK */
     1035    21892    3              ELSE
     1036    21893    3                CALL Z8AE$ERROR(%E$DB_KEY_COMPARISON_ERROR,
     1037    21894    3                                NODE$ -> BINARY_OP.ROP$ -> LX_ITEM.LINE,
     1038    21895    3                                NODE$ -> BINARY_OP.ROP$ -> LX_ITEM.COLUMN);
     1039    21896
     1040    21897    3          END;
     1041    21898    2        ELSE IF DB_REG_LOP OR DB_REG_ROP THEN
     1042    21899    3          DO;
     1043    21900    3            IF NODE$ -> BINARY_OP.OP ~= %OP_EQUAL      AND
     1044    21901    3               NODE$ -> BINARY_OP.OP ~= %OP_NOT_EQUAL       THEN
     1045    21902    3                  CALL Z8AE$ERROR(%E$DB_REG_EQUALITY_ERROR,
     1046    21903    3                                  NODE$ -> BINARY_OP.LOP$ -> LX_ITEM.LINE,
     1047    21904    3                                  NODE$ -> BINARY_OP.LOP$ -> LX_ITEM.COLUMN);
     1048    21905    3            IF DB_REG_LOP AND ROP$ -> LX_ITEM.TYPE = %TYG THEN
     1049    21906    4              DO;
     1050    21907    4                TEMP_SBIN = ROP$ -> LX_ETT_ITEM.ETT$ -> ETT.LOP ->
     1051    21908    4                    DML_ITEM.DNT$ -> DNT.TEXT.LENGTH;
     1052    21909    4                CALL Z8AC$MAKE_TYA_CONST(ROP$ -> LX_ETT_ITEM.ETT$ -> ETT.LOP ->
     1053    21910    4                                             DML_ITEM.DNT$ -> DNT.TEXT.NAME,
     1054    21911    4                                         TEMP_SBIN,
     1055    21912    4                                         0,
     1056    21913    4                                         ROP$ -> LX_ETT_ITEM.ETT$);
     1057    21914    4                ROP$ -> LX_ETT_ITEM.TYPE = %TYA;
     1058    21915    4              END;
     1059    21916    3            IF DB_REG_ROP AND LOP$ -> LX_ITEM.TYPE = %TYG THEN
     1060    21917    4              DO;
     1061    21918    4                TEMP_SBIN = LOP$ -> LX_ETT_ITEM.ETT$ -> ETT.LOP ->
     1062    21919    4                    DML_ITEM.DNT$ -> DNT.TEXT.LENGTH;
     1063    21920    4                CALL Z8AC$MAKE_TYA_CONST(LOP$ -> LX_ETT_ITEM.ETT$ -> ETT.LOP ->
     1064    21921    4                                             DML_ITEM.DNT$ -> DNT.TEXT.NAME,
     1065    21922    4                                         TEMP_SBIN,
     1066    21923    4                                         0,
     1067    21924    4                                         LOP$ -> LX_ETT_ITEM.ETT$);
     1068    21925    4                LOP$ -> LX_ETT_ITEM.TYPE = %TYA;
PL6.E3A0      #001=Z8EK$OPTIMAL_BRANCHES File=Z8EK.:Z8A6TSI                      SAT 08/09/97 11:56 Page:37
     1069    21926    4              END;
     1070    21927    3          END;
     1071    21928    2        ELSE
     1072    21929    2          IF LOP_IS_POINTER OR ROP_IS_POINTER THEN
     1073    21930    3            DO;
     1074    21931    3              IF LOP_IS_POINTER AND ROP_IS_POINTER THEN
     1075    21932    4                DO;
     1076    21933    4                  IF NODE$ -> BINARY_OP.OP ~= %OP_EQUAL AND
     1077    21934    4                    NODE$ -> BINARY_OP.OP ~= %OP_NOT_EQUAL THEN
     1078    21935                         %CONDITIONAL_ERROR(@ERROR# = %E$POINTER_EQUALITY_ERROR,
     1079    21936                                 @LX_ITEM$= NODE$,
     1080    21937                                 @LINE  = LOP$ -> LX_ITEM.LINE,
     1081    21938                                 @COLUMN = 0);
     1082    21968    4                END;
     1083    21969    3              ELSE
     1084    21970    3                IF NOT LOP_IS_POINTER THEN
     1085    21971    4                  DO;
     1086    21972                         %CONDITIONAL_ERROR(@ERROR# = %E$POINTER_INCOMPATIBLE,
     1087    21973                                @LX_ITEM$ = NODE$ -> BINARY_OP.LOP$,
     1088    21974                                @LINE   = LOP$ -> LX_ITEM.LINE,
     1089    21975                                @COLUMN = LOP$ -> LX_ITEM.COLUMN);
     1090    22005    4                    ROP$ -> LX_ETT_ITEM.ETT$ = COMCOM.VALUE_0;
     1091    22006    4                    LOP$ -> LX_ETT_ITEM.ETT$ = COMCOM.VALUE_0;
     1092    22007    4                    LOP$ -> LX_ETT_ITEM.TYPE = %TYI;
     1093    22008    4                  END;
     1094    22009    3                ELSE
     1095    22010    3                  IF NOT ROP_IS_POINTER THEN
     1096    22011    4                    DO;
     1097    22012                           %CONDITIONAL_ERROR(@ERROR# = %E$POINTER_INCOMPATIBLE,
     1098    22013                                   @LX_ITEM$ = NODE$ -> BINARY_OP.ROP$,
     1099    22014                                   @LINE  = ROP$ -> LX_ITEM.LINE,
     1100    22015                                   @COLUMN= ROP$ -> LX_ITEM.COLUMN);
     1101    22045    4                      LOP$ -> LX_ETT_ITEM.ETT$ = COMCOM.VALUE_0;
     1102    22046    4                      ROP$ -> LX_ETT_ITEM.TYPE = %TYI;
     1103    22047    4                      ROP$ -> LX_ETT_ITEM.ETT$ = COMCOM.VALUE_0;
     1104    22048    4                    END;
     1105    22049    3            END;
PL6.E3A0      #001=Z8EK$OPTIMAL_BRANCHES File=Z8EK.:Z8A6TSI                      SAT 08/09/97 11:56 Page:38
     1106    22050
     1107    22051
     1108    22052             /*V* Check for comparison of non-numeric to numeric,
     1109    22053                where the numeric item is a terminal symbol.  It
     1110    22054                was converted to integer by least strongest type,
     1111    22055                but needs to be alphanumeric for a valid comparison
     1112    22056             */
     1113    22057
     1114    22058    2        IF ROP$ -> LX_ETT_ITEM.TYPE = %TYA THEN
     1115    22059    2          CALL CHECK_NONNUM_NUM_COMP (NODE$ -> BINARY_OP.LOP$,
     1116    22060    2                                      LOP$);
     1117    22061    2        ELSE
     1118    22062    2          IF LOP$ -> LX_ETT_ITEM.TYPE = %TYA THEN
     1119    22063    2            CALL CHECK_NONNUM_NUM_COMP (NODE$ -> BINARY_OP.ROP$,
     1120    22064    2                                        ROP$);
     1121    22065
     1122    22066
     1123    22067    2        CALL Z8EV$COMPATIBLE_TYPES(LOP$ ,
     1124    22068    2                                   ROP$ ,
     1125    22069    2                                   COMPARISON_MATRIX)
     1126    22070    2          WHENALTRETURN
     1127    22071    3            DO;
     1128    22072    3              CALL Z8AE$ERROR(%E$INVALID_COMP_OPERANDS,
     1129    22073    3                             NODE$ -> BINARY_OP.LINE,
     1130    22074    3                             NODE$ -> BINARY_OP.COLUMN);
     1131    22075    3              CALL Z8AT$CREATE_TEMPORARY (%SCALAR, TEMP$);
     1132    22076    3              CALL Z8EU$CREATE_IDENTIFIER_FROM_ST (TEMP$,
     1133    22077    3                         LOP$,
     1134    22078    3                         NODE$ -> BINARY_OP.LINE,
     1135    22079    3                         NODE$ -> BINARY_OP.COLUMN);
     1136    22080    3              ROP$ -> LX_ETT_ITEM = LOP$ -> LX_ETT_ITEM;
     1137    22081    3            END;
     1138    22082
     1139    22083    3        DO CASE(LOP$ -> LX_ITEM.TYPE);
     1140    22084    3          CASE(%TYI);
     1141    22085    3            ID = %CMPI;
     1142    22086
PL6.E3A0      #001=Z8EK$OPTIMAL_BRANCHES File=Z8EK.:Z8A6TSI                      SAT 08/09/97 11:56 Page:39
     1143    22087    3          CASE(%TYD);
     1144    22088    3            IF ROP$ -> LX_ITEM.TYPE = %TYO OR
     1145    22089    3                ROP$ -> LX_ITEM.TYPE = %TYF THEN
     1146    22090    4              DO;
     1147    22091    4                CALL Z8AU$TYPE_DESCRIPTOR (LOP$, TYPE_DESC);
     1148    22092
     1149    22093    4                IF COMCOM.OB.ELS
     1150    22094    4                    AND (TYPE_DESC.DESC.NDSC.TN  /*V* packed */
     1151    22095    4                          OR TYPE_DESC.DESC.NDSC.S ~= %NO_SIGN) THEN
     1152    22096    4                  ID = %CMPO;
     1153    22097    4                ELSE
     1154    22098    5                  DO;
     1155    22099    5                    CALL Z8EV$CONVERT (%TYD, ROP$, ROP$);
     1156    22100    5                    ID = %CMPD;
     1157    22101    5                  END;
     1158    22102    4              END;
     1159    22103    3            ELSE
     1160    22104    3              ID = %CMPD;
     1161    22105
     1162    22106    3         CASE(%TYO, %TYF);
     1163    22107    3           IF COMCOM.OB.ELS THEN
     1164    22108    4             DO;
     1165    22109    4                 ID = %CMPO; /* If LOP TYD ASCII no sign, it is OK with CMPNX */
     1166    22110    4             END;
     1167    22111    3           ELSE
     1168    22112    4             DO;
     1169    22113    4               CALL Z8EV$CONVERT (%TYD, LOP$, LOP$);
     1170    22114    4               CALL Z8EV$CONVERT (%TYD, ROP$, ROP$);
     1171    22115    4               ID = %CMPD;
     1172    22116    4             END;
     1173    22117
     1174    22118
     1175    22119    3          CASE(%TYR);
     1176    22120    3            ID = %CMPR;
     1177    22121
     1178    22122    3          CASE(%TYQ);
     1179    22123    3            ID = %CMPQ;
PL6.E3A0      #001=Z8EK$OPTIMAL_BRANCHES File=Z8EK.:Z8A6TSI                      SAT 08/09/97 11:56 Page:40
     1180    22124
     1181    22125    3          CASE(%TYA, %TYN);
     1182    22126    3            ID = %CMPA;
     1183    22127
     1184    22128    3          CASE(ELSE);
     1185    22129    3            CALL Z8AE$ERROR(%E$UNEXPECTED_CASE,
     1186    22130    3                            LOP$ -> LX_ITEM.LINE,
     1187    22131    3                            LOP$ -> LX_ITEM.COLUMN);
     1188    22132
     1189    22133    3        END /*V* Case */;
     1190    22134
     1191    22135
     1192    22136        %EJECT;
PL6.E3A0      #001=Z8EK$OPTIMAL_BRANCHES File=Z8EK.:Z8A6TSI                      SAT 08/09/97 11:56 Page:41
     1193    22137    3        DO CASE(ID);
     1194    22138
     1195    22139    3          CASE(%CMPA);
     1196    22140
     1197    22141    3            IF LOP$ -> LX_ETT_ITEM.B.ALL THEN
     1198    22142    3              IF ROP$ -> LX_ETT_ITEM.B.ALL THEN
     1199    22143    4                DO;
     1200    22144    4                  LOP$ -> LX_ETT_ITEM.B.ALL = FALSE;
     1201    22145    4                  ROP$ -> LX_ETT_ITEM.B.ALL = FALSE;
     1202    22146    4                  CALL GEN_CMPA_WITH_OPT_CVT (LOP$, ROP$);
     1203    22147    4                END;
     1204    22148    3              ELSE
     1205    22149    4                DO;
     1206    22150    4                  CALL CHECK_ALL_COMPARE (LOP$, ROP$, %CFILLR)
     1207    22151    4                     WHENALTRETURN
     1208    22152    5                       DO;
     1209    22153    5                         ALTRETURN;
     1210    22154    5                       END;
     1211    22155    4                END;
     1212    22156    3            ELSE
     1213    22157    3              IF ROP$ -> LX_ETT_ITEM.B.ALL THEN
     1214    22158    4                DO;
     1215    22159    4                  CALL CHECK_ALL_COMPARE (ROP$, LOP$, %CFILL)
     1216    22160    4                    WHENALTRETURN
     1217    22161    5                      DO;
     1218    22162    5                        ALTRETURN;
     1219    22163    5                      END;
     1220    22164    4                END;
     1221    22165    3              ELSE
     1222    22166    3                CALL GEN_CMPA_WITH_OPT_CVT (LOP$, ROP$);
     1223    22167
     1224    22168    3          CASE(ELSE);
     1225    22169    3            CALL Z8AF$FORME(ID,
     1226    22170    3                            LOP$ -> LX_ETT_ITEM.ETT$,
     1227    22171    3                            ROP$ -> LX_ETT_ITEM.ETT$,
     1228    22172    3                            ETT$$);
     1229    22173    3        END /*V* Case */;
PL6.E3A0      #001=Z8EK$OPTIMAL_BRANCHES File=Z8EK.:Z8A6TSI                      SAT 08/09/97 11:56 Page:42
     1230    22174
     1231    22175             %INIT_LX_ETT_ITEM( @POINTER = RETURN$ ,
     1232    22176                                @TYPE    = LOP$ -> LX_ITEM.TYPE ,
     1233    22177                                @ETT$    = ETT$$);
     1234    22199
     1235    22200    2        RETURN;  /*V* Note ALTRETURNs above */
     1236    22201
     1237    22202    2   END GEN_COMPARISONS;
     1238    22203        %EJECT;
PL6.E3A0      #001=Z8EK$OPTIMAL_BRANCHES File=Z8EK.:Z8A6TSI                      SAT 08/09/97 11:56 Page:43
     1239    22204    1   SET_UP_BRA_TRUE_NUMERIC : PROC;
     1240    22205
     1241    22206    2      CALL Z8AT$CREATE_TEMPORARY (%PARA,
     1242    22207    2                                  TEMP_LAB$);
     1243    22208
     1244    22209    2      CALL SET_UP_BRA_FALSE_NUMERIC;
     1245    22210
     1246    22211    2   END SET_UP_BRA_TRUE_NUMERIC;
     1247    22212        %EJECT;
PL6.E3A0      #001=Z8EK$OPTIMAL_BRANCHES File=Z8EK.:Z8A6TSI                      SAT 08/09/97 11:56 Page:44
     1248    22213    1   BRA_TRUE_LEADING_SIGN_NUMERIC : PROC (LABEL$);
     1249    22214
     1250    22215    2      DCL LABEL$ PTR;
     1251    22216
     1252    22217    2          IF TYPE_DESC.DESC.NDSC.TN = %NDSC4 THEN
     1253    22218    3            DO;
     1254    22219    3              TYPE_DESC.DESC.NDSC.S = '00'B;
     1255    22220    3              TYPE_DESC.DESC.NDSC.SF = 0;
     1256    22221    3              CALL Z8AF$FORME ( %DNA,
     1257    22222    3                                NODE$-> UNARY_OP.LOP$-> LX_ETT_ITEM.ETT$,
     1258    22223    3                                TYPE_DESC.DESC,
     1259    22224    3                                ETT$$     );
     1260    22225    3              NODE$-> UNARY_OP.LOP$-> LX_ETT_ITEM.ETT$ = ETT$$;
     1261    22226    3              NODE$-> UNARY_OP.LOP$-> LX_ETT_ITEM.TYPE = %TYA;
     1262    22227    3            END; /*V* if %ndsc4 */
     1263    22228
     1264    22229    2          CALL Z8EY$SUBSTR (NODE$ -> UNARY_OP.LOP$,
     1265    22230    2                            ADDR(ONE),
     1266    22231    2                            ADDR(ONE),
     1267    22232    2                            ADDR(TEMP_EXPRESSION));
     1268    22233
     1269    22234               %NEW_ILL (@ID = %LINOI);
     1270    22613    2          IF TYPE_DESC.DESC.NDSC.TN = %NDSC4 THEN
     1271    22614    3            DO; /* Packed decimal */
     1272    22615    3              CALL Z8AC$MAKE_TYA_CONST (%BITASC ('240'O), 1, 0, ETT$$);
     1273    22616    3              CALL Z8AF$FORME (%CMPA,
     1274    22617    3                               ADDR(TEMP_EXPRESSION) -> LX_ETT_ITEM.ETT$,
     1275    22618    3                               ETT$$,
     1276    22619    3                               ETT$$);
     1277    22620                   %NEW_ILL (@ID = %GO,
     1278    22621                             @CODE = %GO_LESS_THAN,
     1279    22622                             @EXPR$ = ETT$$,
     1280    22623                             @LABEL$ = LABEL$);
     1281    23002    3            END;
     1282    23003    2          ELSE /* ASCII or overpunched */
     1283    23004    3            DO;
     1284    23005    3              IF NODE$-> UNARY_OP.LOP$-> LX_ETT_ITEM.TYPE = %TYO THEN
PL6.E3A0      #001=Z8EK$OPTIMAL_BRANCHES File=Z8EK.:Z8A6TSI                      SAT 08/09/97 11:56 Page:45
     1285    23006    3                CALL Z8CO$CREATE_LIBRARY_BASE (%OP_CLASS_OVERPUNCHED_SIGN,
     1286    23007    3                                               TRANS_TABLE_ETT$);
     1287    23008    3              ELSE
     1288    23009    3                CALL Z8CO$CREATE_LIBRARY_BASE (%OP_CLASS_DECIMAL_SIGN,
     1289    23010    3                                               TRANS_TABLE_ETT$       );
     1290    23011
     1291    23012    3              CALL Z8AF$FORME (%CMPC,
     1292    23013    3                               ADDR(TEMP_EXPRESSION) -> LX_ETT_ITEM.ETT$,
     1293    23014    3                               TRANS_TABLE_ETT$,
     1294    23015    3                               ETT$$);
     1295    23016
     1296    23017                   %NEW_ILL (@ID = %GO,
     1297    23018                             @CODE = %GO_NOT_CLASS,
     1298    23019                             @EXPR$ = ETT$$,
     1299    23020                             @LABEL$ = LABEL$);
     1300    23399    3            END;
     1301    23400
     1302    23401    2          CALL Z8AC$LX_ETT_ITEM_TYI_CONST (2, ADDR(TWO));
     1303    23402
     1304    23403    2          CALL Z8EY$SUBSTR (NODE$ -> UNARY_OP.LOP$,
     1305    23404    2                            ADDR(TWO),
     1306    23405    2                            ADDR(LENGTH_MINUS_1),
     1307    23406    2                            ADDR(TEMP_EXPRESSION));
     1308    23407
     1309    23408
     1310    23409    2          IF TYPE_DESC.DESC.NDSC.TN = %NDSC9 THEN
     1311    23410    2            CALL Z8CO$CREATE_LIBRARY_BASE (%OP_CLASS_NUMERIC,
     1312    23411    2                                           TRANS_TABLE_ETT$);
     1313    23412    2          ELSE                         /*V* %NDSC4 */
     1314    23413    2            CALL Z8AC$MAKE_TYA_CONST ( DIGIT_TABLE, 16, 0,
     1315    23414    2                                       TRANS_TABLE_ETT$   );
     1316    23415
     1317    23416
     1318    23417    2          CALL Z8AF$FORME (%CMPC,
     1319    23418    2                           ADDR(TEMP_EXPRESSION) -> LX_ETT_ITEM.ETT$,
     1320    23419    2                           TRANS_TABLE_ETT$,
     1321    23420    2                           ETT$$);
PL6.E3A0      #001=Z8EK$OPTIMAL_BRANCHES File=Z8EK.:Z8A6TSI                      SAT 08/09/97 11:56 Page:46
     1322    23421
     1323    23422    2   END BRA_TRUE_LEADING_SIGN_NUMERIC;
     1324    23423        %EJECT;
PL6.E3A0      #001=Z8EK$OPTIMAL_BRANCHES File=Z8EK.:Z8A6TSI                      SAT 08/09/97 11:56 Page:47
     1325    23424    1   BRA_TRUE_TRAILING_SIGN_NUMERIC : PROC (LABEL$);
     1326    23425
     1327    23426    2     DCL LABEL$ PTR;
     1328    23427
     1329    23428
     1330    23429
     1331    23430    2          IF TYPE_DESC.DESC.NDSC.TN = %NDSC4 THEN
     1332    23431    3            DO;
     1333    23432    3              TYPE_DESC.DESC.NDSC.S = '00'B;
     1334    23433    3              TYPE_DESC.DESC.NDSC.SF = 0;
     1335    23434    3              CALL Z8AF$FORME ( %DNA,
     1336    23435    3                                NODE$-> UNARY_OP.LOP$-> LX_ETT_ITEM.ETT$,
     1337    23436    3                                TYPE_DESC.DESC,
     1338    23437    3                                ETT$$     );
     1339    23438    3              NODE$-> UNARY_OP.LOP$-> LX_ETT_ITEM.ETT$ = ETT$$;
     1340    23439    3              NODE$-> UNARY_OP.LOP$-> LX_ETT_ITEM.TYPE = %TYA;
     1341    23440    3            END; /*V* if %ndsc4 */
     1342    23441
     1343    23442    2          CALL Z8EY$SUBSTR(NODE$ -> UNARY_OP.LOP$,
     1344    23443    2                           ADDR(ONE),
     1345    23444    2                           ADDR(LENGTH_MINUS_1),
     1346    23445    2                           ADDR(TEMP_EXPRESSION));
     1347    23446
     1348    23447    2          IF TYPE_DESC.DESC.NDSC.TN = %NDSC9 THEN
     1349    23448    2            CALL Z8CO$CREATE_LIBRARY_BASE (%OP_CLASS_NUMERIC,
     1350    23449    2                                           TRANS_TABLE_ETT$);
     1351    23450    2          ELSE                         /*V* %NDSC4 */
     1352    23451    2            CALL Z8AC$MAKE_TYA_CONST ( DIGIT_TABLE, 16, 0,
     1353    23452    2                                       TRANS_TABLE_ETT$   );
     1354    23453
     1355    23454    2          CALL Z8AF$FORME (%CMPC,
     1356    23455    2                           ADDR(TEMP_EXPRESSION) -> LX_ETT_ITEM.ETT$,
     1357    23456    2                           TRANS_TABLE_ETT$,
     1358    23457    2                           ETT$$);
     1359    23458
     1360    23459               %NEW_ILL (@ID = %LINOI);
     1361    23838               %NEW_ILL (@ID = %GO,
PL6.E3A0      #001=Z8EK$OPTIMAL_BRANCHES File=Z8EK.:Z8A6TSI                      SAT 08/09/97 11:56 Page:48
     1362    23839                         @CODE = %GO_NOT_CLASS,
     1363    23840                         @EXPR$ = ETT$$,
     1364    23841                         @LABEL$ = LABEL$);
     1365    24220
     1366    24221    2          CALL Z8EY$SUBSTR (NODE$ -> UNARY_OP.LOP$,
     1367    24222    2                            ADDR(LENGTH),
     1368    24223    2                            ADDR(ONE),
     1369    24224    2                            ADDR(TEMP_EXPRESSION));
     1370    24225
     1371    24226    2          IF TYPE_DESC.DESC.NDSC.TN = %NDSC4 THEN
     1372    24227    3            DO; /* Packed decimal */
     1373    24228    3              CALL Z8AC$MAKE_TYA_CONST (%BITASC ('240'O), 1, 0, ETT$$);
     1374    24229    3              CALL Z8AF$FORME (%CMPA,
     1375    24230    3                               ADDR(TEMP_EXPRESSION) -> LX_ETT_ITEM.ETT$,
     1376    24231    3                               ETT$$,
     1377    24232    3                               ETT$$);
     1378    24233    3            END;
     1379    24234    2          ELSE /* ASCII or overpunched */
     1380    24235    3            DO;
     1381    24236    3              IF NODE$-> UNARY_OP.LOP$-> LX_ETT_ITEM.TYPE = %TYO THEN
     1382    24237    3                CALL Z8CO$CREATE_LIBRARY_BASE (%OP_CLASS_OVERPUNCHED_SIGN,
     1383    24238    3                                               TRANS_TABLE_ETT$);
     1384    24239    3              ELSE
     1385    24240    3                CALL Z8CO$CREATE_LIBRARY_BASE (%OP_CLASS_DECIMAL_SIGN,
     1386    24241    3                                               TRANS_TABLE_ETT$       );
     1387    24242
     1388    24243    3              CALL Z8AF$FORME (%CMPC,
     1389    24244    3                               ADDR(TEMP_EXPRESSION)
     1390    24245    3                                     -> LX_ETT_ITEM.ETT$,
     1391    24246    3                               TRANS_TABLE_ETT$,
     1392    24247    3                               ETT$$);
     1393    24248    3            END;
     1394    24249
     1395    24250    2   END BRA_TRUE_TRAILING_SIGN_NUMERIC;
     1396    24251        %EJECT;
PL6.E3A0      #001=Z8EK$OPTIMAL_BRANCHES File=Z8EK.:Z8A6TSI                      SAT 08/09/97 11:56 Page:49
     1397    24252    1   END_BRA_TRUE_NUMERIC : PROC;
     1398    24253
     1399    24254    2     DCL GO_CODE SBIN WORD;
     1400    24255
     1401    24256             %NEW_ILL (@ID = %LINOI);
     1402    24635             %FISH (TRIAD = ETT$$, RTN = TEMP_ST$);
     1403    24643    2        IF TYPE_DESC.DESC.NDSC.TN = %NDSC4 AND
     1404    24644    2            TEMP_ST$ -> VARIABLE.NDSC.S = %TRAILING_SIGN
     1405    24645    2          THEN GO_CODE = %GO_GREATER_THAN_OR_EQUAL;
     1406    24646    2          ELSE GO_CODE = %GO_CLASS;
     1407    24647             %NEW_ILL (@ID = %GO,
     1408    24648                       @CODE = GO_CODE,
     1409    24649                       @EXPR$ = ETT$$,
     1410    24650                       @LABEL$ = LABEL$);
     1411    25029
     1412    25030             %NEW_ILL (@ID = %DEFLB,
     1413    25031                       @LABEL$ = TEMP_LAB$);
     1414    25410
     1415    25411    2   END END_BRA_TRUE_NUMERIC;
     1416    25412        %EJECT;
PL6.E3A0      #001=Z8EK$OPTIMAL_BRANCHES File=Z8EK.:Z8A6TSI                      SAT 08/09/97 11:56 Page:50
     1417    25413    1   SET_UP_BRA_FALSE_NUMERIC : PROC;
     1418    25414
     1419    25415
     1420    25416    2      ONE.ETT$ = COMCOM.VALUE_1;
     1421    25417
     1422    25418    2      CALL Z8AU$LENGTH (NODE$ -> UNARY_OP.LOP$
     1423    25419    2                            -> LX_ETT_ITEM.ETT$,
     1424    25420    2                        ADDR(LENGTH));
     1425    25421
     1426    25422    2      LENGTH_MINUS_1 = LENGTH;
     1427    25423
     1428    25424    2      CALL Z8AF$FORME (%SBI,
     1429    25425    2                       ADDR(LENGTH_MINUS_1) -> LX_ETT_ITEM.ETT$,
     1430    25426    2                       COMCOM.VALUE_1,
     1431    25427    2                       ADDR(LENGTH_MINUS_1) -> LX_ETT_ITEM.ETT$);
     1432    25428
     1433    25429    2   END SET_UP_BRA_FALSE_NUMERIC;
     1434    25430        %EJECT;
PL6.E3A0      #001=Z8EK$OPTIMAL_BRANCHES File=Z8EK.:Z8A6TSI                      SAT 08/09/97 11:56 Page:51
     1435    25431    1   END_BRA_FALSE_NUMERIC : PROC;
     1436    25432
     1437    25433    2     DCL GO_CODE SBIN WORD;
     1438    25434
     1439    25435             %NEW_ILL (@ID = %LINOI);
     1440    25814             %FISH (TRIAD = ETT$$, RTN = TEMP_ST$);
     1441    25822    2        IF TYPE_DESC.DESC.NDSC.TN = %NDSC4 AND
     1442    25823    2            TEMP_ST$ -> VARIABLE.NDSC.S = %TRAILING_SIGN
     1443    25824    2          THEN GO_CODE = %GO_LESS_THAN;
     1444    25825    2          ELSE GO_CODE = %GO_NOT_CLASS;
     1445    25826             %NEW_ILL (@ID = %GO,
     1446    25827                       @CODE = GO_CODE,
     1447    25828                       @EXPR$ = ETT$$,
     1448    25829                       @LABEL$ = LABEL$);
     1449    26208
     1450    26209
     1451    26210    2   END END_BRA_FALSE_NUMERIC;
     1452    26211        %EJECT;
PL6.E3A0      #001=Z8EK$OPTIMAL_BRANCHES File=Z8EK.:Z8A6TSI                      SAT 08/09/97 11:56 Page:52
     1453    26212    1   COMPARE_ARITH_CLASS : PROC (OP);
     1454    26213
     1455    26214    2     DCL OP SBIN WORD;
     1456    26215
     1457    26216    2     ZERO.ETT$ = COMCOM.VALUE_0;
     1458    26217
     1459    26218    2     ZERO.LINE = NODE$ -> UNARY_OP.LINE;
     1460    26219    2     ZERO.COLUMN = NODE$ -> UNARY_OP.COLUMN;
     1461    26220
     1462    26221    2     CALL Z8EK$COMPARE(NODE$ -> UNARY_OP.LOP$,
     1463    26222    2                       OP,
     1464    26223    2                       ADDR (ZERO),
     1465    26224    2                       COMPARE$);
     1466    26225
     1467    26226    2     CALL Z8EK$BRANCH_TRUE(LABEL$, COMPARE$);
     1468    26227    2     CALL Z8ED$DISPOSE_ABSSYN_TREE(COMPARE$);
     1469    26228
     1470    26229    2   END COMPARE_ARITH_CLASS;
     1471    26230        %EJECT;
PL6.E3A0      #001=Z8EK$OPTIMAL_BRANCHES File=Z8EK.:Z8A6TSI                      SAT 08/09/97 11:56 Page:53
     1472    26231    1   COMPARE_ALPHABETIC : PROC (ALPHABETIC_TYPE,
     1473    26232    1                              GO_CODE);
     1474    26233
     1475    26234    2     DCL ALPHABETIC_TYPE SBIN WORD;
     1476    26235    2     DCL GO_CODE SBIN WORD;
     1477    26236
     1478    26237    2     IF NODE$ -> UNARY_OP.LOP$ -> LX_ITEM.ID ~= %LX_ETT_ITEM THEN
     1479    26238
     1480    26239            %CONDITIONAL_ERROR (@ERROR# = %E$CLASS_ON_NON_IDENTIFIER,
     1481    26240                  @LX_ITEM$ = NODE$ -> UNARY_OP.LOP$,
     1482    26241                  @LINE = NODE$ -> UNARY_OP.LOP$ -> LX_ITEM.LINE,
     1483    26242                  @COLUMN = NODE$ -> UNARY_OP.LOP$ -> LX_ITEM.COLUMN);
     1484    26272
     1485    26273    2     ELSE
     1486    26274    3       DO;
     1487    26275    4         DO CASE (NODE$ -> UNARY_OP.LOP$ -> LX_ETT_ITEM.TYPE);
     1488    26276    4           CASE (%TYA);
     1489    26277                  /* OK */
     1490    26278    4           CASE (%TYE);
     1491    26279    4             CALL Z8CO$CREATE_LIBRARY_BASE (%OP_EBCDIC_TO_ASCII, TRANS_TABLE_ETT$);
     1492    26280    4             CALL Z8AF$FORME (%CVT,
     1493    26281    4                              NODE$ -> UNARY_OP.LOP$ -> LX_ETT_ITEM.ETT$,
     1494    26282    4                              TRANS_TABLE_ETT$,
     1495    26283    4                              NODE$ -> UNARY_OP.LOP$ -> LX_ETT_ITEM.ETT$);
     1496    26284    4           CASE (%TYB);
     1497    26285    4             CALL Z8CO$CREATE_LIBRARY_BASE (%OP_GBCD_TO_ASCII, TRANS_TABLE_ETT$);
     1498    26286    4             CALL Z8AF$FORME (%CVT,
     1499    26287    4                              NODE$ -> UNARY_OP.LOP$ -> LX_ETT_ITEM.ETT$,
     1500    26288    4                              TRANS_TABLE_ETT$,
     1501    26289    4                              NODE$ -> UNARY_OP.LOP$ -> LX_ETT_ITEM.ETT$);
     1502    26290    4           CASE (ELSE);
     1503    26291
     1504    26292                  %CONDITIONAL_ERROR (@LX_ITEM$ = NODE$ -> UNARY_OP.LOP$,
     1505    26293                       @ERROR# = %E$CLASS_ALPHABETIC_NOT_TYA,
     1506    26294                       @LINE = NODE$ -> UNARY_OP.LOP$ -> LX_ITEM.LINE,
     1507    26295                       @COLUMN = NODE$ -> UNARY_OP.LOP$ -> LX_ITEM.COLUMN);
     1508    26325    4             RETURN;
PL6.E3A0      #001=Z8EK$OPTIMAL_BRANCHES File=Z8EK.:Z8A6TSI                      SAT 08/09/97 11:56 Page:54
     1509    26326
     1510    26327    4         END; /* CASE */
     1511    26328
     1512    26329    3         CALL Z8CO$CREATE_LIBRARY_BASE (ALPHABETIC_TYPE,
     1513    26330    3                                       TRANS_TABLE_ETT$);
     1514    26331
     1515    26332    3         CALL Z8AF$FORME( %CMPC ,
     1516    26333    3                          NODE$ -> UNARY_OP.LOP$ -> LX_ETT_ITEM.ETT$ ,
     1517    26334    3                          TRANS_TABLE_ETT$,
     1518    26335    3                          ETT$$ );
     1519    26336
     1520    26337              %NEW_ILL (@ID = %LINOI);
     1521    26716              %NEW_ILL( @ID        = %GO ,
     1522    26717                        @CODE      = GO_CODE ,
     1523    26718                        @EXPR$     = ETT$$ ,
     1524    26719                        @LABEL$    = LABEL$ );
     1525    27098    3       END;
     1526    27099
     1527    27100    2   END COMPARE_ALPHABETIC;
     1528    27101        %EJECT;
PL6.E3A0      #001=Z8EK$OPTIMAL_BRANCHES File=Z8EK.:Z8A6TSI                      SAT 08/09/97 11:56 Page:55
     1529    27102    1   COMPARE_USER_CLASS : PROC (USER_CLASS$,
     1530    27103    1                              GO_CODE);
     1531    27104
     1532    27105    2     DCL USER_CLASS$ PTR;
     1533    27106    2     DCL GO_CODE SBIN;
     1534    27107
     1535    27108    2     DCL CLASS_ST$ PTR;
     1536    27109    2     DCL CLASS_TABLE_ETT$ PTR;
     1537    27110
     1538    27111    2     IF NODE$ -> BINARY_OP.LOP$ -> LX_ITEM.ID ~= %LX_ETT_ITEM THEN
     1539    27112
     1540    27113            %CONDITIONAL_ERROR (@ERROR# = %E$CLASS_ON_NON_IDENTIFIER,
     1541    27114                  @LX_ITEM$ = NODE$ -> BINARY_OP.LOP$,
     1542    27115                  @LINE = NODE$ -> BINARY_OP.LOP$ -> LX_ITEM.LINE,
     1543    27116                  @COLUMN = NODE$ -> BINARY_OP.LOP$ -> LX_ITEM.COLUMN);
     1544    27146
     1545    27147    2     ELSE
     1546    27148    2       IF NODE$ -> BINARY_OP.LOP$ -> LX_ETT_ITEM.TYPE ~= %TYA THEN
     1547    27149
     1548    27150              %CONDITIONAL_ERROR (@LX_ITEM$ = NODE$ -> BINARY_OP.LOP$,
     1549    27151                   @ERROR# = %E$CLASS_ALPHABETIC_NOT_TYA,
     1550    27152                   @LINE = NODE$ -> BINARY_OP.LOP$ -> LX_ITEM.LINE,
     1551    27153                   @COLUMN = NODE$ -> BINARY_OP.LOP$ -> LX_ITEM.COLUMN);
     1552    27183
     1553    27184    2       ELSE
     1554    27185    3         DO;
     1555    27186                %FISH (TRIAD = USER_CLASS$ -> LX_ETT_ITEM.ETT$,
     1556    27187                       RTN = CLASS_ST$);
     1557    27195
     1558    27196    3           IF CLASS_ST$ -> ST.ID ~= %CLASS THEN
     1559    27197                  %CONDITIONAL_ERROR (@ERROR# = %E$CLASS_EXPECTED,
     1560    27198                                      @LX_ITEM$ = USER_CLASS$,
     1561    27199                                      @LINE = USER_CLASS$ -> LX_ETT_ITEM.LINE,
     1562    27200                                      @COLUMN = USER_CLASS$ -> LX_ETT_ITEM.COLUMN);
     1563    27230    3           ELSE
     1564    27231    4             DO;
     1565    27232    4               CALL Z8AF$FORME (%TRIAD,
PL6.E3A0      #001=Z8EK$OPTIMAL_BRANCHES File=Z8EK.:Z8A6TSI                      SAT 08/09/97 11:56 Page:56
     1566    27233    4                                CLASS_ST$ -> CLASS.TABLE$,
     1567    27234    4                                ADDR(NIL),
     1568    27235    4                                CLASS_TABLE_ETT$);
     1569    27236    4               CALL Z8AF$FORME (%CMPC,
     1570    27237    4                                NODE$ -> BINARY_OP.LOP$ -> LX_ETT_ITEM.ETT$,
     1571    27238    4                                CLASS_TABLE_ETT$,
     1572    27239    4                                ETT$$);
     1573    27240                    %NEW_ILL (@ID = %LINOI);
     1574    27619                    %NEW_ILL (@ID = %GO,
     1575    27620                              @CODE = GO_CODE,
     1576    27621                              @EXPR$ = ETT$$,
     1577    27622                              @LABEL$ = LABEL$);
     1578    28001    4             END;
     1579    28002    3         END;
     1580    28003
     1581    28004    2   END COMPARE_USER_CLASS;
     1582    28005        %EJECT;
PL6.E3A0      #001=Z8EK$OPTIMAL_BRANCHES File=Z8EK.:Z8A6TSI                      SAT 08/09/97 11:56 Page:57
     1583    28006    1   GEN_GO : PROC (GO_CODE);
     1584    28007
     1585    28008    2     DCL GO_CODE SBIN WORD;
     1586    28009
     1587    28010          %NEW_ILL ( @ID = %LINOI );
     1588    28389          %NEW_ILL ( @ID          = %GO ,
     1589    28390                     @CODE        = GO_CODE,
     1590    28391                     @EXPR$       = EXPRESSION$ -> LX_ETT_ITEM.ETT$,
     1591    28392                     @LABEL$      = LABEL$ );
     1592    28771
     1593    28772    2   END GEN_GO;
     1594    28773        %EJECT;
PL6.E3A0      #001=Z8EK$OPTIMAL_BRANCHES File=Z8EK.:Z8A6TSI                      SAT 08/09/97 11:56 Page:58
     1595    28774    1   GEN_NUMERIC_COMPARE : PROC;
     1596    28775
     1597    28776          %FISH (TRIAD = NODE$ -> UNARY_OP.LOP$ -> LX_ETT_ITEM.ETT$,
     1598    28777                 RTN = VAR_ST$);
     1599    28785
     1600    28786    2     IF (VAR_ST$ -> ST.ID = %SCALAR
     1601    28787    2           OR VAR_ST$ -> ST.ID = %ARRAY)
     1602    28788    2        AND VAR_ST$ -> VARIABLE.B.CLASS = %CLASS_ALPHABETIC THEN
     1603    28789
     1604    28790            %CONDITIONAL_ERROR (@ERROR# = %E$CLASS_NUMERIC_ON_ALPHABETIC,
     1605    28791                 @LX_ITEM$ = NODE$ -> UNARY_OP.LOP$,
     1606    28792                 @LINE = NODE$ -> UNARY_OP.LOP$ -> LX_ETT_ITEM.LINE,
     1607    28793                 @COLUMN = NODE$ -> UNARY_OP.LOP$ -> LX_ETT_ITEM.COLUMN);
     1608    28823
     1609    28824    2     CALL Z8CO$CREATE_LIBRARY_BASE (%OP_CLASS_NUMERIC,
     1610    28825    2                                    TRANS_TABLE_ETT$);
     1611    28826
     1612    28827    2     CALL Z8AF$FORME (%CMPC,
     1613    28828    2                      NODE$ -> UNARY_OP.LOP$ -> LX_ETT_ITEM.ETT$,
     1614    28829    2                      TRANS_TABLE_ETT$,
     1615    28830    2                      ETT$$);
     1616    28831
     1617    28832    2   END GEN_NUMERIC_COMPARE;
     1618    28833        %EJECT;
PL6.E3A0      #001=Z8EK$OPTIMAL_BRANCHES File=Z8EK.:Z8A6TSI                      SAT 08/09/97 11:56 Page:59
     1619    28834    1   CONV_TO_ASCII : PROC;
     1620    28835        /*I*
     1621    28836            NAME: CONV_TO_ASCII
     1622    28837         PURPOSE: Convert a GBCD or EBCDIC variable to ASCII
     1623    28838        */
     1624    28839          %FISH (TRIAD = NODE$ -> UNARY_OP.LOP$ -> LX_ETT_ITEM.ETT$,
     1625    28840                 RTN = VAR_ST$);
     1626    28848
     1627    28849    2     CALL Z8AT$CREATE_TEMPORARY (%SCALAR, TEMP_ST$);
     1628    28850    2     TEMP_ST$ -> SCALAR.DESCL = TYPE_DESC.DESC.DESCL;
     1629    28851    2     TEMP_ST$ -> SCALAR.NDSC.CN = 0;
     1630    28852    2     TEMP_ST$ -> SCALAR.B.CLASS = VAR_ST$ -> SCALAR.B.CLASS;
     1631    28853    2     CALL Z8AF$NEW_BASE (TEMP_ST$, ADDR(NIL), ETT$$);
     1632    28854    2     IF NODE$ -> UNARY_OP.LOP$ -> LX_ETT_ITEM.TYPE = %TYE OR
     1633    28855    2         NODE$ -> UNARY_OP.LOP$ -> LX_ETT_ITEM.TYPE = %TYF
     1634    28856    2       THEN CALL Z8CO$CREATE_LIBRARY_BASE (%OP_EBCDIC_TO_ASCII, TRANS_TABLE_ETT$);
     1635    28857    2       ELSE CALL Z8CO$CREATE_LIBRARY_BASE (%OP_GBCD_TO_ASCII, TRANS_TABLE_ETT$);
     1636    28858          %NEW_ILL (@ID = %MVT,
     1637    28859                    @FROM = NODE$ -> UNARY_OP.LOP$ -> LX_ETT_ITEM.ETT$,
     1638    28860                    @TABLE = TRANS_TABLE_ETT$,
     1639    28861                    @TO = ETT$$);
     1640    29240
     1641    29241    2     NODE$ -> UNARY_OP.LOP$ -> LX_ETT_ITEM.ETT$ = ETT$$;
     1642    29242    2   END CONV_TO_ASCII;
     1643    29243        %EJECT;
PL6.E3A0      #001=Z8EK$OPTIMAL_BRANCHES File=Z8EK.:Z8A6TSI                      SAT 08/09/97 11:56 Page:60
     1644    29244    1   COMPARE_NUMERIC_CLASS : PROC;
     1645    29245
     1646    29246    2     IF NODE$ -> UNARY_OP.LOP$ -> LX_ITEM.ID ~= %LX_ETT_ITEM THEN
     1647    29247
     1648    29248            %CONDITIONAL_ERROR (@ERROR# = %E$CLASS_ON_NON_IDENTIFIER,
     1649    29249                  @LX_ITEM$ = NODE$ -> UNARY_OP.LOP$,
     1650    29250                  @LINE = NODE$ -> UNARY_OP.LOP$ -> LX_ITEM.LINE,
     1651    29251                  @COLUMN = NODE$ -> UNARY_OP.LOP$ -> LX_ITEM.COLUMN);
     1652    29281
     1653    29282    2     ELSE
     1654    29283    3       DO;
     1655    29284
     1656    29285    3         CALL Z8AU$TYPE_DESCRIPTOR
     1657    29286    3                (NODE$ -> UNARY_OP.LOP$ -> LX_ETT_ITEM.ETT$,
     1658    29287    3                 TYPE_DESC);
     1659    29288
     1660    29289    4         DO CASE (NODE$ -> UNARY_OP.LOP$ -> LX_ETT_ITEM.TYPE);
     1661    29290
     1662    29291    4           CASE(%TYO);
     1663    29292
     1664    29293    4             CALL SET_UP_BRA_TRUE_NUMERIC;
     1665    29294
     1666    29295    5             DO SELECT(TYPE_DESC.DESC.NDSC.S);
     1667    29296
     1668    29297    5               SELECT(%LEADING_SIGN);
     1669    29298
     1670    29299    5                 CALL BRA_TRUE_LEADING_SIGN_NUMERIC (TEMP_LAB$);
     1671    29300
     1672    29301    5               SELECT(%TRAILING_SIGN);
     1673    29302
     1674    29303    5                 CALL BRA_TRUE_TRAILING_SIGN_NUMERIC (TEMP_LAB$);
     1675    29304
     1676    29305    5               SELECT(ELSE);
     1677    29306
     1678    29307    5                 CALL Z8AE$ERROR (%E$UNEXPECTED_CASE);
     1679    29308    5             END;  /*V* case on TYO sign */
     1680    29309
PL6.E3A0      #001=Z8EK$OPTIMAL_BRANCHES File=Z8EK.:Z8A6TSI                      SAT 08/09/97 11:56 Page:61
     1681    29310    4             CALL END_BRA_TRUE_NUMERIC;
     1682    29311
     1683    29312    4           CASE(%TYD);
     1684    29313
     1685    29314    5             DO SELECT(TYPE_DESC.DESC.NDSC.S);
     1686    29315
     1687    29316    5               SELECT(%NO_SIGN);
     1688    29317
     1689    29318    5                 CALL Z8AF$FORME (%DNA,
     1690    29319    5                                  NODE$ -> UNARY_OP.LOP$
     1691    29320    5                                     -> LX_ETT_ITEM.ETT$,
     1692    29321    5                                  0,
     1693    29322    5                                  ETT$$);
     1694    29323
     1695    29324    5                 IF TYPE_DESC.DESC.NDSC.TN = %NDSC9 THEN
     1696    29325    5                   CALL Z8CO$CREATE_LIBRARY_BASE (%OP_CLASS_NUMERIC,
     1697    29326    5                                                  TRANS_TABLE_ETT$);
     1698    29327    5                 ELSE                         /*V* %NDSC4 */
     1699    29328    5                   CALL Z8AC$MAKE_TYA_CONST ( DIGIT_TABLE, 16, 0,
     1700    29329    5                                              TRANS_TABLE_ETT$   );
     1701    29330
     1702    29331    5                 CALL Z8AF$FORME (%CMPC,
     1703    29332    5                                  ETT$$,
     1704    29333    5                                  TRANS_TABLE_ETT$,
     1705    29334    5                                  ETT$$);
     1706    29335
     1707    29336                      %NEW_ILL (@ID = %LINOI);
     1708    29715                      %NEW_ILL (@ID = %GO,
     1709    29716                                @CODE = %GO_CLASS,
     1710    29717                                @EXPR$ = ETT$$,
     1711    29718                                @LABEL$ = LABEL$);
     1712    30097
     1713    30098    5               SELECT(%LEADING_SIGN);
     1714    30099
     1715    30100    5                 CALL SET_UP_BRA_TRUE_NUMERIC;
     1716    30101    5                 CALL BRA_TRUE_LEADING_SIGN_NUMERIC (TEMP_LAB$);
     1717    30102    5                 CALL END_BRA_TRUE_NUMERIC;
PL6.E3A0      #001=Z8EK$OPTIMAL_BRANCHES File=Z8EK.:Z8A6TSI                      SAT 08/09/97 11:56 Page:62
     1718    30103
     1719    30104    5               SELECT(%TRAILING_SIGN);
     1720    30105
     1721    30106    5                 CALL SET_UP_BRA_TRUE_NUMERIC;
     1722    30107    5                 CALL BRA_TRUE_TRAILING_SIGN_NUMERIC (TEMP_LAB$);
     1723    30108    5                 CALL END_BRA_TRUE_NUMERIC;
     1724    30109
     1725    30110    5               SELECT(ELSE);
     1726    30111
     1727    30112    5                 CALL Z8AE$ERROR (%E$UNEXPECTED_CASE);
     1728    30113    5             END;  /*V* case of TYD sign */
     1729    30114
     1730    30115    4           CASE(%TYE, %TYF, %TYB, %TYC);
     1731    30116
     1732    30117    4             CALL CONV_TO_ASCII;
     1733    30118    4             IF NODE$ -> UNARY_OP.LOP$ -> LX_ETT_ITEM.TYPE = %TYC OR
     1734    30119    4                 NODE$ -> UNARY_OP.LOP$ -> LX_ETT_ITEM.TYPE = %TYF THEN
     1735    30120    5               DO;
     1736    30121
     1737    30122    5                 IF TYPE_DESC.DESC.NDSC.TN = %NDSC4 /* Overpunched */ THEN
     1738    30123    6                   DO;
     1739    30124    6                     NODE$ -> UNARY_OP.LOP$ -> LX_ETT_ITEM.TYPE = %TYO;
     1740    30125    6                     TEMP_ST$ -> SCALAR.TYPE = %TYO;
     1741    30126    6                     TEMP_ST$ -> SCALAR.NDSC.TN = %NDSC9;
     1742    30127    6                     TYPE_DESC.DESC.NDSC.TN = %NDSC9;
     1743    30128    6                   END;
     1744    30129    5                 ELSE
     1745    30130    5                   TEMP_ST$ -> SCALAR.TYPE = %TYD;
     1746    30131
     1747    30132    6                 DO SELECT(TYPE_DESC.DESC.NDSC.S);
     1748    30133
     1749    30134    6                   SELECT(%NO_SIGN);
     1750    30135
     1751    30136    6                     CALL Z8AF$FORME (%DNA,
     1752    30137    6                                      NODE$ -> UNARY_OP.LOP$
     1753    30138    6                                         -> LX_ETT_ITEM.ETT$,
     1754    30139    6                                      0,
PL6.E3A0      #001=Z8EK$OPTIMAL_BRANCHES File=Z8EK.:Z8A6TSI                      SAT 08/09/97 11:56 Page:63
     1755    30140    6                                      ETT$$);
     1756    30141
     1757    30142    6                     CALL Z8CO$CREATE_LIBRARY_BASE (%OP_CLASS_NUMERIC,
     1758    30143    6                                                    TRANS_TABLE_ETT$);
     1759    30144
     1760    30145    6                     CALL Z8AF$FORME (%CMPC,
     1761    30146    6                                      ETT$$,
     1762    30147    6                                      TRANS_TABLE_ETT$,
     1763    30148    6                                      ETT$$);
     1764    30149
     1765    30150                          %NEW_ILL (@ID = %LINOI);
     1766    30529                          %NEW_ILL (@ID = %GO,
     1767    30530                                    @CODE = %GO_CLASS,
     1768    30531                                    @EXPR$ = ETT$$,
     1769    30532                                    @LABEL$ = LABEL$);
     1770    30911
     1771    30912    6                   SELECT(%LEADING_SIGN);
     1772    30913
     1773    30914    6                     CALL SET_UP_BRA_TRUE_NUMERIC;
     1774    30915    6                     CALL BRA_TRUE_LEADING_SIGN_NUMERIC (TEMP_LAB$);
     1775    30916    6                     CALL END_BRA_TRUE_NUMERIC;
     1776    30917
     1777    30918    6                   SELECT(%TRAILING_SIGN);
     1778    30919
     1779    30920    6                     CALL SET_UP_BRA_TRUE_NUMERIC;
     1780    30921    6                     CALL BRA_TRUE_TRAILING_SIGN_NUMERIC (TEMP_LAB$);
     1781    30922    6                     CALL END_BRA_TRUE_NUMERIC;
     1782    30923
     1783    30924    6                   SELECT(ELSE);
     1784    30925
     1785    30926    6                     CALL Z8AE$ERROR (%E$UNEXPECTED_CASE);
     1786    30927    6                 END;  /*V* case of TYD sign */
     1787    30928
     1788    30929    5               END; /* GBCD/EBCDIC numeric */
     1789    30930    4             ELSE
     1790    30931    5               DO; /* GBCD/EBCDIC non-numeric */
     1791    30932
PL6.E3A0      #001=Z8EK$OPTIMAL_BRANCHES File=Z8EK.:Z8A6TSI                      SAT 08/09/97 11:56 Page:64
     1792    30933    5                 TEMP_ST$ -> SCALAR.TYPE = %TYA;
     1793    30934    5                 TEMP_ST$ -> SCALAR.ADSC.TA = %ADSC9;
     1794    30935
     1795    30936    5                 CALL GEN_NUMERIC_COMPARE;
     1796    30937
     1797    30938                      %NEW_ILL (@ID = %LINOI);
     1798    31317                      %NEW_ILL (@ID = %GO,
     1799    31318                                @CODE = %GO_CLASS,
     1800    31319                                @EXPR$ = ETT$$,
     1801    31320                                @LABEL$ = LABEL$);
     1802    31699
     1803    31700    5               END;
     1804    31701
     1805    31702    4           CASE(%TYA);
     1806    31703
     1807    31704    4             CALL GEN_NUMERIC_COMPARE;
     1808    31705
     1809    31706                  %NEW_ILL (@ID = %LINOI);
     1810    32085                  %NEW_ILL (@ID = %GO,
     1811    32086                            @CODE = %GO_CLASS,
     1812    32087                            @EXPR$ = ETT$$,
     1813    32088                            @LABEL$ = LABEL$);
     1814    32467
     1815    32468    4           CASE(ELSE);
     1816    32469
     1817    32470                  %CONDITIONAL_ERROR (@ERROR# = %E$MUST_BE_DISPLAY,
     1818    32471                      @LX_ITEM$ = NODE$ -> UNARY_OP.LOP$,
     1819    32472                      @LINE = NODE$ -> UNARY_OP.LOP$ -> LX_ETT_ITEM.LINE,
     1820    32473                      @COLUMN = NODE$ -> UNARY_OP.LOP$ -> LX_ETT_ITEM.COLUMN);
     1821    32503
     1822    32504    4         END;  /*V* case of variable type */
     1823    32505    3       END;
     1824    32506
     1825    32507    2   END COMPARE_NUMERIC_CLASS;
     1826    32508        %EJECT;
PL6.E3A0      #001=Z8EK$OPTIMAL_BRANCHES File=Z8EK.:Z8A6TSI                      SAT 08/09/97 11:56 Page:65
     1827    32509    1   COMPARE_NOT_NUMERIC_CLASS: PROC;
     1828    32510
     1829    32511    2     IF NODE$ -> UNARY_OP.LOP$ -> LX_ITEM.ID ~= %LX_ETT_ITEM THEN
     1830    32512
     1831    32513            %CONDITIONAL_ERROR (@ERROR# = %E$CLASS_ON_NON_IDENTIFIER,
     1832    32514                  @LX_ITEM$ = NODE$ -> UNARY_OP.LOP$,
     1833    32515                  @LINE = NODE$ -> UNARY_OP.LOP$ -> LX_ITEM.LINE,
     1834    32516                  @COLUMN = NODE$ -> UNARY_OP.LOP$ -> LX_ITEM.COLUMN);
     1835    32546
     1836    32547    2     ELSE
     1837    32548    3       DO;
     1838    32549
     1839    32550    3         CALL Z8AU$TYPE_DESCRIPTOR
     1840    32551    3                (NODE$ -> UNARY_OP.LOP$ -> LX_ETT_ITEM.ETT$,
     1841    32552    3                 TYPE_DESC);
     1842    32553
     1843    32554    4         DO CASE (NODE$ -> UNARY_OP.LOP$ -> LX_ETT_ITEM.TYPE);
     1844    32555
     1845    32556    4           CASE(%TYO);
     1846    32557
     1847    32558    4             CALL SET_UP_BRA_FALSE_NUMERIC;
     1848    32559
     1849    32560    5             DO SELECT(TYPE_DESC.DESC.NDSC.S);
     1850    32561
     1851    32562    5               SELECT(%LEADING_SIGN);
     1852    32563
     1853    32564    5                 CALL BRA_TRUE_LEADING_SIGN_NUMERIC (LABEL$);
     1854    32565
     1855    32566    5               SELECT(%TRAILING_SIGN);
     1856    32567
     1857    32568    5                 CALL BRA_TRUE_TRAILING_SIGN_NUMERIC (LABEL$);
     1858    32569
     1859    32570    5               SELECT(ELSE);
     1860    32571
     1861    32572    5                 CALL Z8AE$ERROR (%E$UNEXPECTED_CASE);
     1862    32573    5             END;  /*V* case on TYO sign */
     1863    32574
PL6.E3A0      #001=Z8EK$OPTIMAL_BRANCHES File=Z8EK.:Z8A6TSI                      SAT 08/09/97 11:56 Page:66
     1864    32575    4             CALL END_BRA_FALSE_NUMERIC;
     1865    32576
     1866    32577    4           CASE ( %TYD );
     1867    32578
     1868    32579    5             DO SELECT ( TYPE_DESC.DESC.NDSC.S );
     1869    32580
     1870    32581    5               SELECT(%NO_SIGN);
     1871    32582
     1872    32583    5                 CALL Z8AF$FORME (%DNA,
     1873    32584    5                                  NODE$ -> UNARY_OP.LOP$
     1874    32585    5                                     -> LX_ETT_ITEM.ETT$,
     1875    32586    5                                  0,
     1876    32587    5                                  ETT$$);
     1877    32588
     1878    32589    5                 IF TYPE_DESC.DESC.NDSC.TN = %NDSC9 OR
     1879    32590    5                     NODE$ -> UNARY_OP.LOP$ -> LX_ETT_ITEM.TYPE = %TYF THEN
     1880    32591    5                   CALL Z8CO$CREATE_LIBRARY_BASE (%OP_CLASS_NUMERIC,
     1881    32592    5                                                  TRANS_TABLE_ETT$);
     1882    32593    5                 ELSE                         /*V* %NDSC4 */
     1883    32594    5                   CALL Z8AC$MAKE_TYA_CONST ( DIGIT_TABLE, 16, 0,
     1884    32595    5                                              TRANS_TABLE_ETT$   );
     1885    32596
     1886    32597    5                 CALL Z8AF$FORME (%CMPC,
     1887    32598    5                                  ETT$$,
     1888    32599    5                                  TRANS_TABLE_ETT$,
     1889    32600    5                                  ETT$$);
     1890    32601
     1891    32602    5                 CALL END_BRA_FALSE_NUMERIC;
     1892    32603
     1893    32604    5               SELECT(%LEADING_SIGN);
     1894    32605
     1895    32606    5                 CALL SET_UP_BRA_FALSE_NUMERIC;
     1896    32607    5                 CALL BRA_TRUE_LEADING_SIGN_NUMERIC (LABEL$);
     1897    32608    5                 CALL END_BRA_FALSE_NUMERIC;
     1898    32609
     1899    32610    5               SELECT(%TRAILING_SIGN);
     1900    32611
PL6.E3A0      #001=Z8EK$OPTIMAL_BRANCHES File=Z8EK.:Z8A6TSI                      SAT 08/09/97 11:56 Page:67
     1901    32612    5                 CALL SET_UP_BRA_FALSE_NUMERIC;
     1902    32613    5                 CALL BRA_TRUE_TRAILING_SIGN_NUMERIC (LABEL$);
     1903    32614    5                 CALL END_BRA_FALSE_NUMERIC;
     1904    32615
     1905    32616    5               SELECT(ELSE);
     1906    32617
     1907    32618    5                 CALL Z8AE$ERROR (%E$UNEXPECTED_CASE);
     1908    32619    5             END;  /*V* case of TYD sign */
     1909    32620
     1910    32621    4           CASE(%TYE, %TYF, %TYB, %TYC);
     1911    32622
     1912    32623    4             CALL CONV_TO_ASCII;
     1913    32624    4             IF NODE$ -> UNARY_OP.LOP$ -> LX_ETT_ITEM.TYPE = %TYC OR
     1914    32625    4                 NODE$ -> UNARY_OP.LOP$ -> LX_ETT_ITEM.TYPE = %TYF THEN
     1915    32626    5               DO;
     1916    32627
     1917    32628    5                 IF TYPE_DESC.DESC.NDSC.TN = %NDSC4 /* Overpunched */ THEN
     1918    32629    6                   DO;
     1919    32630    6                     NODE$ -> UNARY_OP.LOP$ -> LX_ETT_ITEM.TYPE = %TYO;
     1920    32631    6                     TEMP_ST$ -> SCALAR.TYPE = %TYO;
     1921    32632    6                     TEMP_ST$ -> SCALAR.NDSC.TN = %NDSC9;
     1922    32633    6                     TYPE_DESC.DESC.NDSC.TN = %NDSC9;
     1923    32634    6                   END;
     1924    32635    5                 ELSE
     1925    32636    5                   TEMP_ST$ -> SCALAR.TYPE = %TYD;
     1926    32637
     1927    32638    6                 DO SELECT ( TYPE_DESC.DESC.NDSC.S );
     1928    32639
     1929    32640    6                   SELECT(%NO_SIGN);
     1930    32641
     1931    32642    6                     CALL Z8AF$FORME (%DNA,
     1932    32643    6                                      NODE$ -> UNARY_OP.LOP$
     1933    32644    6                                         -> LX_ETT_ITEM.ETT$,
     1934    32645    6                                      0,
     1935    32646    6                                      ETT$$);
     1936    32647
     1937    32648    6                     CALL Z8CO$CREATE_LIBRARY_BASE (%OP_CLASS_NUMERIC,
PL6.E3A0      #001=Z8EK$OPTIMAL_BRANCHES File=Z8EK.:Z8A6TSI                      SAT 08/09/97 11:56 Page:68
     1938    32649    6                                                    TRANS_TABLE_ETT$);
     1939    32650
     1940    32651    6                     CALL Z8AF$FORME (%CMPC,
     1941    32652    6                                      ETT$$,
     1942    32653    6                                      TRANS_TABLE_ETT$,
     1943    32654    6                                      ETT$$);
     1944    32655
     1945    32656    6                     CALL END_BRA_FALSE_NUMERIC;
     1946    32657
     1947    32658    6                   SELECT(%LEADING_SIGN);
     1948    32659
     1949    32660    6                     CALL SET_UP_BRA_FALSE_NUMERIC;
     1950    32661    6                     CALL BRA_TRUE_LEADING_SIGN_NUMERIC (LABEL$);
     1951    32662    6                     CALL END_BRA_FALSE_NUMERIC;
     1952    32663
     1953    32664    6                   SELECT(%TRAILING_SIGN);
     1954    32665
     1955    32666    6                     CALL SET_UP_BRA_FALSE_NUMERIC;
     1956    32667    6                     CALL BRA_TRUE_TRAILING_SIGN_NUMERIC (LABEL$);
     1957    32668    6                     CALL END_BRA_FALSE_NUMERIC;
     1958    32669
     1959    32670    6                   SELECT(ELSE);
     1960    32671
     1961    32672    6                     CALL Z8AE$ERROR (%E$UNEXPECTED_CASE);
     1962    32673    6                 END;  /*V* case of TYD sign */
     1963    32674
     1964    32675    5               END; /* GBCD/EBCDIC numeric */
     1965    32676    4             ELSE
     1966    32677    5               DO; /* GBCD/EBCDIC non-numeric */
     1967    32678
     1968    32679    5                 TEMP_ST$ -> SCALAR.TYPE = %TYA;
     1969    32680    5                 TEMP_ST$ -> SCALAR.ADSC.TA = %ADSC9;
     1970    32681
     1971    32682    5                 CALL GEN_NUMERIC_COMPARE;
     1972    32683
     1973    32684    5                 CALL END_BRA_FALSE_NUMERIC;
     1974    32685
PL6.E3A0      #001=Z8EK$OPTIMAL_BRANCHES File=Z8EK.:Z8A6TSI                      SAT 08/09/97 11:56 Page:69
     1975    32686    5               END;
     1976    32687
     1977    32688    4           CASE(%TYA);
     1978    32689
     1979    32690    4             CALL GEN_NUMERIC_COMPARE;
     1980    32691
     1981    32692    4             CALL END_BRA_FALSE_NUMERIC;
     1982    32693
     1983    32694    4           CASE(ELSE);
     1984    32695
     1985    32696                  %CONDITIONAL_ERROR (@ERROR# = %E$MUST_BE_DISPLAY,
     1986    32697                      @LX_ITEM$ = NODE$ -> UNARY_OP.LOP$,
     1987    32698                      @LINE = NODE$ -> UNARY_OP.LOP$ -> LX_ETT_ITEM.LINE,
     1988    32699                      @COLUMN = NODE$ -> UNARY_OP.LOP$ -> LX_ETT_ITEM.COLUMN);
     1989    32729    4         END;  /*V* case of variable type */
     1990    32730    3       END;
     1991    32731
     1992    32732    2   END COMPARE_NOT_NUMERIC_CLASS;
     1993    32733        %EJECT;
PL6.E3A0      #001=Z8EK$OPTIMAL_BRANCHES File=Z8EK.:Z8A6TSI                      SAT 08/09/97 11:56 Page:70
     1994    32734    1   Z8EK$BRANCH:ENTRY(LABEL$);
     1995    32735
     1996    32736             %NEW_ILL (@ID = %LINOI);
     1997    33115             %NEW_ILL ( @ID        = %GO ,
     1998    33116                        @CODE      = %GO_UNCONDITIONAL ,
     1999    33117                        @EXPR$     = "ADDR(NIL)",
     2000    33118                        @LABEL$    = LABEL$ );
     2001    33497    1        RETURN;
     2002    33498
     2003    33499        %EJECT;
PL6.E3A0      #001=Z8EK$OPTIMAL_BRANCHES File=Z8EK.:Z8A6TSI                      SAT 08/09/97 11:56 Page:71
     2004    33500    1   Z8EK$NODE_TRUE:ENTRY(LABEL$, NODE$);
     2005    33501
     2006    33502    1        EXPRESSION$ = ADDR(TEMP_EXPRESSION);
     2007    33503
     2008    33504    2        DO CASE(NODE$ -> LX_ITEM.ID);
     2009    33505    2          CASE(%UNARY_OP);
     2010    33506    3            DO CASE(NODE$ -> UNARY_OP.OP);
     2011    33507    3              CASE(%OP_ZERO);
     2012    33508    3                CALL COMPARE_ARITH_CLASS (%OP_EQUAL);
     2013    33509
     2014    33510    3              CASE(%OP_NEGATIVE);
     2015    33511    3                CALL COMPARE_ARITH_CLASS (%OP_LESS_THAN);
     2016    33512
     2017    33513    3              CASE(%OP_POSITIVE);
     2018    33514    3                CALL COMPARE_ARITH_CLASS (%OP_GREATER_THAN);
     2019    33515
     2020    33516
     2021    33517    3              CASE(%OP_NUMERIC);
     2022    33518    3                CALL COMPARE_NUMERIC_CLASS;
     2023    33519
     2024    33520    3              CASE(%OP_ALPHABETIC);
     2025    33521    3                CALL COMPARE_ALPHABETIC (%OP_CLASS_ALPHA,
     2026    33522    3                                         %GO_CLASS);
     2027    33523
     2028    33524    3              CASE(%OP_ALPHABETIC_LOWER);
     2029    33525    3                CALL COMPARE_ALPHABETIC (%OP_CLASS_ALPHA_LOWER,
     2030    33526    3                                         %GO_CLASS);
     2031    33527
     2032    33528    3              CASE(%OP_ALPHABETIC_UPPER);
     2033    33529    3                CALL COMPARE_ALPHABETIC (%OP_CLASS_ALPHA_UPPER,
     2034    33530    3                                         %GO_CLASS);
     2035    33531
     2036    33532    3              CASE(%OP_SWITCH_IS_ON);
     2037    33533
     2038    33534                     %NEW_ILL (@ID = %LINOI);
     2039    33913                     %NEW_ILL (@ID = %GO,
     2040    33914                               @CODE = %GO_SWITCH_ON,
PL6.E3A0      #001=Z8EK$OPTIMAL_BRANCHES File=Z8EK.:Z8A6TSI                      SAT 08/09/97 11:56 Page:72
     2041    33915                               @EXPR$ = NODE$ -> UNARY_OP.LOP$ -> LX_ETT_ITEM.ETT$,
     2042    33916                               @LABEL$ = LABEL$);
     2043    34295
     2044    34296    3              CASE(%OP_SWITCH_IS_OFF);
     2045    34297
     2046    34298                     %NEW_ILL (@ID = %LINOI);
     2047    34677                     %NEW_ILL (@ID = %GO,
     2048    34678                               @CODE = %GO_SWITCH_OFF,
     2049    34679                               @EXPR$ = NODE$ -> UNARY_OP.LOP$ -> LX_ETT_ITEM.ETT$,
     2050    34680                               @LABEL$ = LABEL$);
     2051    35059
     2052    35060    3              CASE(%OP_MEMBER, %OP_OWNER, %OP_TENANT);
     2053    35061
     2054    35062    3                  IF COMCOM.IDS_SUB_SCHEMA = %FALSE  THEN
     2055    35063    3                    CALL Z8AE$ERROR( %E$NO_VALID_SUB_SCHEMA );
     2056    35064    3                  ELSE
     2057    35065    4                    DO;
     2058    35066    4                      FLAG$ = NODE$;
     2059    35067    4                      CALL Z9EB$DB_COMPARE( NODE$, FLAG$ );
     2060    35068    4                      IF FLAG$ = ADDR(NIL)    THEN
     2061    35069    4                           RETURN;
     2062    35070    4                      CALL COMPARE_ARITH_CLASS (%OP_NOT_EQUAL);
     2063    35071    4                    END;
     2064    35072
     2065    35073
     2066    35074
     2067    35075    3              CASE( %OP_EMPTY );
     2068    35076
     2069    35077    3                IF COMCOM.IDS_SUB_SCHEMA = %FALSE    THEN
     2070    35078    3                  CALL Z8AE$ERROR( %E$NO_VALID_SUB_SCHEMA );
     2071    35079    3                ELSE
     2072    35080    4                  DO;
     2073    35081    4                    FLAG$ = NODE$;
     2074    35082    4                    CALL Z9EB$COMPARE_EMPTY ( NODE$, FLAG$ );
     2075    35083    4                    IF FLAG$ = ADDR( NIL )   THEN
     2076    35084    4                       RETURN;
     2077    35085    4                    CALL COMPARE_ARITH_CLASS (%OP_NOT_EQUAL);
PL6.E3A0      #001=Z8EK$OPTIMAL_BRANCHES File=Z8EK.:Z8A6TSI                      SAT 08/09/97 11:56 Page:73
     2078    35086    4                  END;
     2079    35087
     2080    35088    3              CASE(ELSE);
     2081    35089                     %CONDITIONAL_ERROR (@LX_ITEM$ = NODE$,
     2082    35090                                         @ERROR# = %E$INVALID_COMP_OPERANDS,
     2083    35091                                         @LINE = NODE$ -> LX_ITEM.LINE,
     2084    35092                                         @COLUMN = NODE$ -> LX_ITEM.COLUMN);
     2085    35122
     2086    35123    3            END /*V* Case */;
     2087    35124
     2088    35125        %EJECT;
PL6.E3A0      #001=Z8EK$OPTIMAL_BRANCHES File=Z8EK.:Z8A6TSI                      SAT 08/09/97 11:56 Page:74
     2089    35126    2          CASE(%BINARY_OP);
     2090    35127    3            DO CASE(NODE$ -> BINARY_OP.OP);
     2091    35128    3              CASE(%OP_EQUAL);
     2092    35129    3                CALL GEN_COMPARISONS(NODE$, EXPRESSION$) ALTRET(CLOOP);
     2093    35130
     2094    35131    3                CALL GEN_GO (%GO_EQUAL);
     2095    35132
     2096    35133    3              CASE(%OP_LESS_THAN);
     2097    35134    3                CALL GEN_COMPARISONS(NODE$, EXPRESSION$) ALTRET(CLOOP);
     2098    35135
     2099    35136    3                CALL GEN_GO (%GO_LESS_THAN);
     2100    35137
     2101    35138    3              CASE(%OP_LESS_THAN_OR_EQUAL);
     2102    35139    3                CALL GEN_COMPARISONS(NODE$, EXPRESSION$) ALTRET(CLOOP);
     2103    35140
     2104    35141    3                CALL GEN_GO (%GO_LESS_THAN_OR_EQUAL);
     2105    35142
     2106    35143    3              CASE(%OP_NOT_EQUAL);
     2107    35144    3                CALL GEN_COMPARISONS(NODE$, EXPRESSION$) ALTRET(CLOOP);
     2108    35145
     2109    35146    3                CALL GEN_GO (%GO_NOT_EQUAL);
     2110    35147
     2111    35148    3              CASE(%OP_GREATER_THAN_OR_EQUAL);
     2112    35149    3                CALL GEN_COMPARISONS(NODE$, EXPRESSION$) ALTRET(CLOOP);
     2113    35150
     2114    35151    3                CALL GEN_GO (%GO_GREATER_THAN_OR_EQUAL);
     2115    35152
     2116    35153    3              CASE(%OP_GREATER_THAN);
     2117    35154    3                CALL GEN_COMPARISONS(NODE$, EXPRESSION$) ALTRET(CLOOP);
     2118    35155
     2119    35156    3                CALL GEN_GO (%GO_GREATER_THAN);
     2120    35157
     2121    35158    3              CASE (%OP_USER_CLASS);
     2122    35159    3                CALL COMPARE_USER_CLASS (NODE$ -> BINARY_OP.ROP$,
     2123    35160    3                                         %GO_CLASS);
     2124    35161
     2125    35162    3              CASE(ELSE);
PL6.E3A0      #001=Z8EK$OPTIMAL_BRANCHES File=Z8EK.:Z8A6TSI                      SAT 08/09/97 11:56 Page:75
     2126    35163                     %CONDITIONAL_ERROR (@LX_ITEM$ = NODE$,
     2127    35164                                         @ERROR# = %E$INVALID_COMP_OPERANDS,
     2128    35165                                         @LINE = NODE$ -> LX_ITEM.LINE,
     2129    35166                                         @COLUMN = NODE$ -> LX_ITEM.COLUMN);
     2130    35196
     2131    35197    3            END /*V* Case */;
     2132    35198
     2133    35199    2          CASE(ELSE);
     2134    35200                 %CONDITIONAL_ERROR (@LX_ITEM$ = NODE$,
     2135    35201                                     @ERROR#   = %E$INVALID_COMP_OPERANDS,
     2136    35202                                     @LINE     = NODE$ -> LX_ITEM.LINE,
     2137    35203                                     @COLUMN   = NODE$ -> LX_ITEM.COLUMN);
     2138    35233    2        END /*V* Case */;
     2139    35234
     2140    35235    1        RETURN;
     2141    35236
     2142    35237
     2143    35238    1   CLOOP:
     2144    35239
     2145    35240    1     CALL COMPARE_LOOP (EXPRESSION$,
     2146    35241    1                        LABEL$,
     2147    35242    1                        NODE$ -> BINARY_OP.OP);
     2148    35243
     2149    35244    1     RETURN;
     2150    35245
     2151    35246        %EJECT;
PL6.E3A0      #001=Z8EK$OPTIMAL_BRANCHES File=Z8EK.:Z8A6TSI                      SAT 08/09/97 11:56 Page:76
     2152    35247    1   Z8EK$NODE_FALSE:ENTRY(LABEL$, NODE$);
     2153    35248
     2154    35249    1        EXPRESSION$ = ADDR(TEMP_EXPRESSION);
     2155    35250
     2156    35251    2        DO CASE(NODE$ -> LX_ITEM.ID);
     2157    35252    2          CASE(%UNARY_OP);
     2158    35253    3            DO CASE(NODE$ -> UNARY_OP.OP);
     2159    35254    3              CASE(%OP_ZERO);
     2160    35255    3                CALL COMPARE_ARITH_CLASS (%OP_NOT_EQUAL);
     2161    35256
     2162    35257    3              CASE(%OP_NEGATIVE);
     2163    35258    3                CALL COMPARE_ARITH_CLASS (%OP_GREATER_THAN_OR_EQUAL);
     2164    35259
     2165    35260    3              CASE(%OP_POSITIVE);
     2166    35261    3                CALL COMPARE_ARITH_CLASS (%OP_LESS_THAN_OR_EQUAL);
     2167    35262
     2168    35263
     2169    35264    3              CASE(%OP_NUMERIC);
     2170    35265    3                CALL COMPARE_NOT_NUMERIC_CLASS;
     2171    35266
     2172    35267
     2173    35268    3              CASE(%OP_ALPHABETIC);
     2174    35269    3                CALL COMPARE_ALPHABETIC (%OP_CLASS_ALPHA,
     2175    35270    3                                         %GO_NOT_CLASS);
     2176    35271
     2177    35272    3              CASE(%OP_ALPHABETIC_LOWER);
     2178    35273    3                CALL COMPARE_ALPHABETIC (%OP_CLASS_ALPHA_LOWER,
     2179    35274    3                                         %GO_NOT_CLASS);
     2180    35275
     2181    35276    3              CASE(%OP_ALPHABETIC_UPPER);
     2182    35277    3                CALL COMPARE_ALPHABETIC (%OP_CLASS_ALPHA_UPPER,
     2183    35278    3                                         %GO_NOT_CLASS);
     2184    35279
     2185    35280    3              CASE(%OP_SWITCH_IS_ON);
     2186    35281
     2187    35282                     %NEW_ILL (@ID = %LINOI);
     2188    35661                     %NEW_ILL (@ID = %GO,
PL6.E3A0      #001=Z8EK$OPTIMAL_BRANCHES File=Z8EK.:Z8A6TSI                      SAT 08/09/97 11:56 Page:77
     2189    35662                               @CODE = %GO_SWITCH_OFF,
     2190    35663                               @EXPR$ = NODE$ -> UNARY_OP.LOP$ -> LX_ETT_ITEM.ETT$,
     2191    35664                               @LABEL$ = LABEL$);
     2192    36043
     2193    36044    3              CASE(%OP_SWITCH_IS_OFF);
     2194    36045
     2195    36046                     %NEW_ILL (@ID = %LINOI);
     2196    36425                     %NEW_ILL (@ID = %GO,
     2197    36426                               @CODE = %GO_SWITCH_ON,
     2198    36427                               @EXPR$ = NODE$ -> UNARY_OP.LOP$ -> LX_ETT_ITEM.ETT$,
     2199    36428                               @LABEL$ = LABEL$);
     2200    36807
     2201    36808    3              CASE(%OP_MEMBER, %OP_OWNER, %OP_TENANT);
     2202    36809
     2203    36810    3                  IF COMCOM.IDS_SUB_SCHEMA = %FALSE   THEN
     2204    36811    3                    CALL Z8AE$ERROR( %E$NO_VALID_SUB_SCHEMA );
     2205    36812    3                  ELSE
     2206    36813    4                    DO;
     2207    36814    4                      FLAG$ = NODE$;
     2208    36815    4                      CALL Z9EB$DB_COMPARE( NODE$, FLAG$);
     2209    36816    4                      IF FLAG$ = ADDR(NIL)    THEN
     2210    36817    4                           RETURN;
     2211    36818    4                      CALL COMPARE_ARITH_CLASS (%OP_EQUAL);
     2212    36819    4                    END;
     2213    36820
     2214    36821    3              CASE( %OP_EMPTY );
     2215    36822
     2216    36823    3                  IF COMCOM.IDS_SUB_SCHEMA = %FALSE    THEN
     2217    36824    3                    CALL Z8AE$ERROR( %E$NO_VALID_SUB_SCHEMA );
     2218    36825    3                  ELSE
     2219    36826    4                    DO;
     2220    36827    4                      FLAG$ = NODE$;
     2221    36828    4                      CALL Z9EB$COMPARE_EMPTY( NODE$, FLAG$);
     2222    36829    4                      IF FLAG$ = ADDR(NIL)   THEN
     2223    36830    4                          RETURN;
     2224    36831    4                      CALL COMPARE_ARITH_CLASS( %OP_EQUAL );
     2225    36832    4                    END;
PL6.E3A0      #001=Z8EK$OPTIMAL_BRANCHES File=Z8EK.:Z8A6TSI                      SAT 08/09/97 11:56 Page:78
     2226    36833
     2227    36834    3              CASE(ELSE);
     2228    36835                     %CONDITIONAL_ERROR (@LX_ITEM$ = NODE$,
     2229    36836                                         @ERROR# = %E$INVALID_COMP_OPERANDS,
     2230    36837                                         @LINE = NODE$ -> LX_ITEM.LINE,
     2231    36838                                         @COLUMN = NODE$ -> LX_ITEM.COLUMN);
     2232    36868
     2233    36869    3            END /*V* Case */;
     2234    36870
     2235    36871        %EJECT;
PL6.E3A0      #001=Z8EK$OPTIMAL_BRANCHES File=Z8EK.:Z8A6TSI                      SAT 08/09/97 11:56 Page:79
     2236    36872    2          CASE(%BINARY_OP);
     2237    36873    3            DO CASE(NODE$ -> BINARY_OP.OP);
     2238    36874    3              CASE(%OP_NOT_EQUAL);
     2239    36875    3                CALL GEN_COMPARISONS(NODE$, EXPRESSION$)
     2240    36876    3                  WHENRETURN
     2241    36877    4                    DO;
     2242    36878    4                      CALL GEN_GO (%GO_EQUAL);
     2243    36879    4                    END;
     2244    36880    3                  WHENALTRETURN
     2245    36881    4                    DO;
     2246    36882    4                      CALL COMPARE_LOOP (EXPRESSION$,
     2247    36883    4                                         LABEL$,
     2248    36884    4                                         %OP_EQUAL);
     2249    36885    4                    END;
     2250    36886
     2251    36887    3              CASE(%OP_GREATER_THAN_OR_EQUAL);
     2252    36888    3                CALL GEN_COMPARISONS(NODE$, EXPRESSION$)
     2253    36889    3                  WHENRETURN
     2254    36890    4                    DO;
     2255    36891    4                      CALL GEN_GO (%GO_LESS_THAN);
     2256    36892    4                    END;
     2257    36893    3                  WHENALTRETURN
     2258    36894    4                    DO;
     2259    36895    4                      CALL COMPARE_LOOP (EXPRESSION$,
     2260    36896    4                                         LABEL$,
     2261    36897    4                                         %OP_LESS_THAN);
     2262    36898    4                    END;
     2263    36899
     2264    36900    3              CASE(%OP_GREATER_THAN);
     2265    36901    3                CALL GEN_COMPARISONS(NODE$, EXPRESSION$)
     2266    36902    3                  WHENRETURN
     2267    36903    4                    DO;
     2268    36904    4                      CALL GEN_GO (%GO_LESS_THAN_OR_EQUAL);
     2269    36905    4                    END;
     2270    36906    3                  WHENALTRETURN
     2271    36907    4                    DO;
     2272    36908    4                      CALL COMPARE_LOOP (EXPRESSION$,
PL6.E3A0      #001=Z8EK$OPTIMAL_BRANCHES File=Z8EK.:Z8A6TSI                      SAT 08/09/97 11:56 Page:80
     2273    36909    4                                         LABEL$,
     2274    36910    4                                         %OP_LESS_THAN_OR_EQUAL);
     2275    36911    4                    END;
     2276    36912
     2277    36913    3              CASE(%OP_EQUAL);
     2278    36914    3                CALL GEN_COMPARISONS(NODE$, EXPRESSION$)
     2279    36915    3                  WHENRETURN
     2280    36916    4                    DO;
     2281    36917    4                      CALL GEN_GO (%GO_NOT_EQUAL);
     2282    36918    4                    END;
     2283    36919    3                  WHENALTRETURN
     2284    36920    4                    DO;
     2285    36921    4                      CALL COMPARE_LOOP (EXPRESSION$,
     2286    36922    4                                         LABEL$,
     2287    36923    4                                         %OP_NOT_EQUAL);
     2288    36924    4                    END;
     2289    36925
     2290    36926    3              CASE(%OP_LESS_THAN);
     2291    36927    3                CALL GEN_COMPARISONS(NODE$, EXPRESSION$)
     2292    36928    3                  WHENRETURN
     2293    36929    4                    DO;
     2294    36930    4                      CALL GEN_GO (%GO_GREATER_THAN_OR_EQUAL);
     2295    36931    4                    END;
     2296    36932    3                  WHENALTRETURN
     2297    36933    4                    DO;
     2298    36934    4                      CALL COMPARE_LOOP (EXPRESSION$,
     2299    36935    4                                         LABEL$,
     2300    36936    4                                         %OP_GREATER_THAN_OR_EQUAL);
     2301    36937    4                    END;
     2302    36938
     2303    36939    3              CASE(%OP_LESS_THAN_OR_EQUAL);
     2304    36940    3                CALL GEN_COMPARISONS(NODE$, EXPRESSION$)
     2305    36941    3                  WHENRETURN
     2306    36942    4                    DO;
     2307    36943    4                      CALL GEN_GO (%GO_GREATER_THAN);
     2308    36944    4                    END;
     2309    36945    3                  WHENALTRETURN
PL6.E3A0      #001=Z8EK$OPTIMAL_BRANCHES File=Z8EK.:Z8A6TSI                      SAT 08/09/97 11:56 Page:81
     2310    36946    4                    DO;
     2311    36947    4                      CALL COMPARE_LOOP (EXPRESSION$,
     2312    36948    4                                         LABEL$,
     2313    36949    4                                         %OP_GREATER_THAN);
     2314    36950    4                    END;
     2315    36951
     2316    36952    3              CASE (%OP_USER_CLASS);
     2317    36953    3                CALL COMPARE_USER_CLASS (NODE$ -> BINARY_OP.ROP$,
     2318    36954    3                                         %GO_NOT_CLASS);
     2319    36955
     2320    36956    3              CASE(ELSE);
     2321    36957                     %CONDITIONAL_ERROR (@LX_ITEM$ = NODE$,
     2322    36958                                         @ERROR# = %E$INVALID_COMP_OPERANDS,
     2323    36959                                         @LINE = NODE$ -> LX_ITEM.LINE,
     2324    36960                                         @COLUMN = NODE$ -> LX_ITEM.COLUMN);
     2325    36990    3            END /*V* Case */;
     2326    36991
     2327    36992    2          CASE(ELSE);
     2328    36993                 %CONDITIONAL_ERROR (@LX_ITEM$ = NODE$,
     2329    36994                                     @ERROR#   = %E$INVALID_COMP_OPERANDS,
     2330    36995                                     @LINE     = NODE$ -> LX_ITEM.LINE,
     2331    36996                                     @COLUMN   = NODE$ -> LX_ITEM.COLUMN);
     2332    37026    2        END /*V* Case */;
     2333    37027
     2334    37028    1        RETURN;
     2335    37029
     2336    37030    1   END Z8EK$OPTIMAL_BRANCHES;
     2337    37031        %EOD;

PL6.E3A0      #001=Z8EK$OPTIMAL_BRANCHES File=Z8EK.:Z8A6TSI                      SAT 08/09/97 11:56 Page:82
--  Include file information  --

   Z8A_DNT.:Z8A6TOU  cannot be made into a system file and is referenced.
   Z8E_DML.:Z8A6TOU  is referenced.
   Z8A_LIBRARY.:Z8A6TOU  cannot be made into a system file and is referenced.
   Z8A_LTS.:Z8A6TOU  cannot be made into a system file and is referenced.
   Z8E_ILS_LIST.:Z8A6TOU  is referenced.
   Z8A_ERR_NUMS.:Z8A6TOU  is referenced.
   Z8A_ST.:Z8A6TOU  cannot be made into a system file and is referenced.
   Z8A_TYPES.:Z8A6TOU  is referenced.
   Z8E_O1COM.:Z8A6TOU  cannot be made into a system file and is referenced.
   Z8A_ILS.:Z8A6TOU  cannot be made into a system file and is referenced.
   Z8A_ETT.:Z8A6TOU  cannot be made into a system file and is referenced.
   Z8A_QLT.:Z8A6TOU  cannot be made into a system file and is referenced.
   Z8A_ILL.:Z8A6TOU  cannot be made into a system file and is referenced.
   Z8E_TRANSLAT.:Z8A6TOU  cannot be made into a system file and is referenced.
   Z8E_HEAP.:Z8A6TOU  cannot be made into a system file and is referenced.
   Z8E_ABSSYN.:Z8A6TOU  cannot be made into a system file and is referenced.
   Z8E_WINDOW.:Z8A6TOU  is referenced.
   Z8E_NEW_ILL.:Z8A6TOU  is referenced.
   Z8E_MACROS.:Z8A6TOU  cannot be made into a system file and is referenced.
   Z8A_LEX_SYMB.:Z8A6TOU  cannot be made into a system file and is referenced.
   Z8E_STACKS.:Z8A6TOU  cannot be made into a system file and is referenced.
   Z8A_COMCOM.:Z8A6TOU  cannot be made into a system file and is referenced.
   X8A_COM_MACS.:X8A6TOU  is referenced.
   Z8A_NAMES.:Z8A6TOU  is referenced.
   Z8A_SUPP_MAC.:Z8A6TOU  is referenced.
   Z8A_DEFC.:Z8A6TOU  cannot be made into a system file and is referenced.
      No diagnostics issued in procedure Z8EK$OPTIMAL_BRANCHES.

   Procedure Z8EK$OPTIMAL_BRANCHES requires 4856 words for executable code.
   Procedure Z8EK$OPTIMAL_BRANCHES requires 218 words of local(AUTO) storage.

PL6.E3A0      #001=Z8EK$OPTIMAL_BRANCHES File=Z8EK.:Z8A6TSI                      SAT 08/09/97 11:56 Page:83

 Object Unit name= Z8EK$OPTIMAL_BRANCHES                      File name= Z8EK.:Z8A6TOU
 UTS= AUG 09 '97 11:56:20.52 SAT                              Compiler= PL-6/E31         Sev=      00
 SharedLib= :SHARED_SYSTEM                                    Alt SharedLib=


    ****  Control sections  ****

 Sect   Type Bound  Init  Size OctSiz  Section name(segment info)
    0  LblCom even  none     1      1  ITERATION
    1  LblCom even  none    90    132  LEX_SYMBOL
    2  LblCom even  none     1      1  CURRENT_LEX_SYMBOL$
    3  LblCom even  none    90    132  TEMP_LEX_SYMBOL
    4  LblCom even  none    90    132  TEMP_LEX_SYMBOL2
    5  LblCom even  none     8     10  TEMP_LX_NODE
    6  LblCom even  none     1      1  HEAP$
    7  LblCom even  none     1      1  ILL$
    8  LblCom even  none     5      5  ILL_
    9  LblCom even  none     1      1  QLT$
   10  LblCom even  none     1      1  PREV_01_QLT$
   11  LblCom even  none     5      5  QLT_
   12  LblCom even  none     1      1  ETT$
   13  LblCom even  none     1      1  HEAD_ETT$
   14  LblCom even  none   512   1000  ETT_BUCKETS
   15  LblCom even  none     5      5  ETT_
   16  LblCom even  none     1      1  ILS$
   17  LblCom even  none     5      5  ILS_
   18  LblCom even  none     1      1  ST$
   19  LblCom even  none     5      5  ST_
   20  LblCom even  none     1      1  LTS$
   21  LblCom even  none     5      5  LTS_
   22  LblCom even  none     1      1  DNT$
   23  LblCom even  none     5      5  DNT_
   24  LblCom even  none     1      1  DNT_BUCKET_NUMBER
   25  LblCom even  none     1      1  DNT_OF_1$
   26   Data  even  none    72    110  Z8EK$OPTIMAL_BRANCHES
   27  RoData even  UTS    104    150  Z8EK$OPTIMAL_BRANCHES
   28   Proc  even  none  4856  11370  Z8EK$OPTIMAL_BRANCHES
PL6.E3A0      #001=Z8EK$OPTIMAL_BRANCHES File=Z8EK.:Z8A6TSI                      SAT 08/09/97 11:56 Page:84
   29  RoData even  none   145    221  Z8EK$OPTIMAL_BRANCHES

    ****  Entry defs  ****

                              Check   Calling
                             calling  sequence
  Sect OctLoc Primary Altret sequence   type   Parms  Name
    28      0   yes            yes      Std        2  Z8EK$OPTIMAL_BRANCHES
    28   7711                  yes      Std        1  Z8EK$BRANCH
    28   7755                  yes      Std        2  Z8EK$NODE_TRUE
    28  10540                  yes      Std        2  Z8EK$NODE_FALSE

  ****  Entry refs  ****

         Check        Calling
        calling       sequence
Altret sequence SRef   type   Args  Name
         yes           Std       4 Z8AN$NEW_ILL
         yes           Std      12 Z8AE$ERROR
         yes           Std       2 Z9EB$COMPARE_EMPTY
         yes           Std       2 Z9EB$DB_COMPARE
         yes           Std       1 Z8ED$DISPOSE_ABSSYN_TREE
         yes           Std       2 Z8AU$LENGTH_ETT
         yes           Std       4 Z8AF$FORME
         yes           Std       2 Z8EU$NEW_TEMP_FROM_ETT
         yes           Std       4 Z8EY$SUBSTR
         yes           Std       2 Z8EK$BRANCH_TRUE
         yes           Std       2 Z8AT$CREATE_TEMPORARY
         yes           Std       1 Z8EU$DISPOSE_TEMP
         yes           Std       4 Z8EQ$MERGE_ITERATED_DO_WHILE
         yes           Std       2 Z8EK$BRANCH_FALSE
         yes           Std       2 Z8CO$CREATE_LIBRARY_BASE
         yes           Std       3 Z8EV$CONVERT
         yes           Std       3 Z8EV$LEAST_STRONGEST_TYPE
         yes           Std       4 Z8AC$MAKE_TYA_CONST
 yes     yes           Std       3 Z8EV$COMPATIBLE_TYPES
         yes           Std       4 Z8EU$CREATE_IDENTIFIER_FROM_ST
PL6.E3A0      #001=Z8EK$OPTIMAL_BRANCHES File=Z8EK.:Z8A6TSI                      SAT 08/09/97 11:56 Page:85
         yes           Std       2 Z8AU$TYPE_DESCRIPTOR
         yes           Std       2 Z8E5$MATH_PACK
 yes     yes           Std       1 Z8CO$CHECK_INTEGER_TERMINAL
         yes           Std       4 Z8EU$CREATE_IDENTIFIER_FROM_ST
         yes           Std       2 Z8ED$NEW_HEAP
         yes           Std       2 Z8AC$LX_ETT_ITEM_TYI_CONST
         yes           Std       2 Z8AU$LENGTH
         yes           Std       4 Z8EK$COMPARE
         yes           Std       3 Z8AF$NEW_BASE
         yes           Std       5 Z8AN$NEW_ILL1
                       nStd      0 X66_AUTO_2
                       nStd      0 X66_ARET

  ****  Data refs  ****

  Flags:  r = read only, s = secondary
Flgs Name                             Flgs Name                             Flgs Name
     COMCOM                           r    HBCD                             r    GBCD
r    EBCDIC                           r    ILL_STEP                         r    ILS_STEP_TABLE
     O1COM                                 HIER_STK_PTR                          HIER_STK
     PAGE_FORMAT                           REP_STK_PTR                           REP_STK
r    LTS_STEP

  ****  Segment refs  ****

  Flags:  r = read only, s = secondary
Flgs Name                             Flgs Name                             Flgs Name
     ISSID                                 NULLSID
PL6.E3A0      #001=Z8EK$OPTIMAL_BRANCHES File=Z8EK.:Z8A6TSI                      SAT 08/09/97 11:56 Page:86


        1        1        /*T***********************************************************/
        2        2        /*T*                                                         */
        3        3        /*T* Copyright (c) Bull HN Information Systems Inc., 1997    */
        4        4        /*T*                                                         */
        5        5        /*T***********************************************************/
        6        6        Z8EK$OPTIMAL_BRANCHES:PROC(LABEL$, NODE$);

      6 28 000000   000000 700200 xent  Z8EK$OPTIMA* TSX0  ! X66_AUTO_2
        28 000001   000332 000002                    ZERO    218,2
        28 000002   007710 710000 28                 TRA     s:32732+2

        7        7
        8        8    1        DCL NODE$   PTR;
        9        9    1        DCL LABEL$  PTR;
       10       10
       11       11    1        DCL EXPRESSION$ PTR;
       12       12
       13       13
       14       14             %EQU PHASE = 1;
       15       15             %INCLUDE Z8A_DEFC;
       16       83             %INCLUDE Z8A_SUPP_MAC;
       17     2483             %INCLUDE Z8A_COMCOM;
       18     3133             %INCLUDE Z8E_STACKS;
       19     5399             %INCLUDE Z8E_MACROS;
       20     6074             %INCLUDE Z8E_WINDOW;
       21     8144             %INCLUDE Z8E_ABSSYN;
       22     8350             %INCLUDE Z8E_HEAP;
       23     8406             %INCLUDE Z8E_TRANSLAT;
       24     8824             %INCLUDE Z8A_ILL;
       25     9517             %INCLUDE Z8A_QLT;
       26     9623             %INCLUDE Z8A_ETT;
       27     9924             %INCLUDE Z8A_ILS;
       28    10033             %INCLUDE Z8E_O1COM;
       29    10794             %INCLUDE Z8A_TYPES;
       30    10968             %INCLUDE Z8A_ST;
       31    14627             %INCLUDE Z8A_ERR_NUMS;
PL6.E3A0      #001=Z8EK$OPTIMAL_BRANCHES File=Z8EK.:Z8A6TSI                      SAT 08/09/97 11:56 Page:87
       32    15391             %INCLUDE Z8E_ILS_LIST;
       33    15475             %INCLUDE Z8A_LTS;
       34    17552             %INCLUDE Z8A_LIBRARY;
       35    17766             %INCLUDE Z8E_DML;
       36    17886             %INCLUDE Z8A_DNT ;
       37    18107
       38    18108    1        DCL Z8AC$MAKE_TYA_CONST ENTRY(4);
       39    18109    1        DCL Z8AT$CREATE_TEMPORARY ENTRY(2);
       40    18110    1        DCL Z8AE$ERROR        ENTRY(12);
       41    18111    1        DCL Z8AC$LX_ETT_ITEM_TYI_CONST ENTRY(2);
       42    18112    1        DCL Z8EK$COMPARE               ENTRY(4);
       43    18113    1        DCL Z8EK$BRANCH_TRUE           ENTRY(2);
       44    18114    1        DCL Z8EK$BRANCH_FALSE          ENTRY(2);
       45    18115    1        DCL Z8ED$DISPOSE_ABSSYN_TREE   ENTRY(1);
       46    18116    1        DCL Z8AU$LENGTH_ETT            ENTRY(2);
       47    18117    1        DCL Z8AU$LENGTH                ENTRY(2);
       48    18118    1        DCL Z8AU$TYPE_DESCRIPTOR       ENTRY(2);
       49    18119    1        DCL Z8EU$NEW_TEMP_FROM_ETT     ENTRY(2);
       50    18120    1        DCL Z8EU$CREATE_IDENTIFIER_FROM_ST ENTRY (4);
       51    18121    1        DCL Z8EY$SUBSTR                ENTRY(4);
       52    18122    1        DCL Z8AF$NEW_BASE              ENTRY(3);
       53    18123    1        DCL Z8AF$FORME                 ENTRY(4);
       54    18124    1        DCL Z8EQ$MERGE_ITERATED_DO_WHILE ENTRY(4);
       55    18125    1        DCL Z8EU$DISPOSE_TEMP          ENTRY(1);
       56    18126    1        DCL Z8EV$COMPATIBLE_TYPES ENTRY(3) ALTRET;
       57    18127    1        DCL Z8EV$LEAST_STRONGEST_TYPE ENTRY(3);
       58    18128    1        DCL Z8E5$MATH_PACK        ENTRY(2);
       59    18129    1        DCL Z8CO$CHECK_INTEGER_TERMINAL ENTRY(1) ALTRET;
       60    18130    1        DCL Z8EV$CONVERT ENTRY(3);
       61    18131    1        DCL Z8CO$CREATE_LIBRARY_BASE ENTRY(2);
       62    18132    1        DCL Z9EB$DB_COMPARE   ENTRY(2);
       63    18133    1        DCL Z9EB$COMPARE_EMPTY ENTRY (2);
       64    18134
       65    18135             %DCL_AUTO_LX_ITEM( @NAME = TEMP_EXPRESSION STATIC );
       66    18139             %DCL_AUTO_LX_ITEM( @NAME = TWO STATIC );
       67    18143             %DCL_AUTO_LX_ITEM( @NAME = LENGTH STATIC );
       68    18147             %DCL_AUTO_LX_ITEM( @NAME = LENGTH_MINUS_1 STATIC );
PL6.E3A0      #001=Z8EK$OPTIMAL_BRANCHES File=Z8EK.:Z8A6TSI                      SAT 08/09/97 11:56 Page:88
       69    18151
       70    18152    1        DCL 1 ZERO STATIC,
       71    18153    1              2 ID UBIN HALF HALIGNED INIT (%LX_ETT_ITEM),
       72    18154    1              2 * UBIN HALF HALIGNED INIT (0),
       73    18155    1              2 ETT$ PTR,
       74    18156    1              2 * (0:1) UBIN INIT (0 * 0),
       75    18157    1              2 * UBIN INIT (%TYI),
       76    18158    1              2 LINE UBIN,
       77    18159    1              2 COLUMN UBIN,
       78    18160    1              2 * PTR INIT (ADDR (NIL));
       79    18161    1        DCL 1 ONE STATIC,
       80    18162    1              2 ID UBIN HALF HALIGNED INIT (%LX_ETT_ITEM),
       81    18163    1              2 * UBIN HALF HALIGNED INIT (0),
       82    18164    1              2 ETT$ PTR,
       83    18165    1              2 * (0:1) UBIN INIT (0 * 0),
       84    18166    1              2 * UBIN INIT (%TYI),
       85    18167    1              2 * (0:1) UBIN INIT (0 * 0),
       86    18168    1              2 * PTR INIT (ADDR (NIL));
       87    18169
       88    18170    1        DCL ETT$$            PTR;
       89    18171    1        DCL TEMP_ST$         PTR;
       90    18172    1        DCL COMPARE$         PTR;
       91    18173    1        DCL FLAG$            PTR;
       92    18174
       93    18175    1        DCL 1 TYPE_DESC,
       94    18176                   %TYPE_DESC;
       95    18210
       96    18211    1        DCL VAR_ST$ PTR;
       97    18212    1        DCL TEMP_LAB$ PTR;
       98    18213    1        DCL TRANS_TABLE_ETT$ PTR;
       99    18214
      100    18215    1        DCL 1 DIGIT_VALUES CONSTANT,
      101    18216    1            2 WORD1        BIT(36) INIT('000000000000'O),
      102    18217    1            2 WORD2        BIT(36) INIT('000000000000'O),
      103    18218    1            2 WORD3        BIT(36) INIT('000000001001'O),
      104    18219    1            2 WORD4        BIT(36) INIT('001001001001'O);
      105    18220    1        DCL DIGIT_TABLE    REDEF DIGIT_VALUES CHAR(16);
PL6.E3A0      #001=Z8EK$OPTIMAL_BRANCHES File=Z8EK.:Z8A6TSI                      SAT 08/09/97 11:56 Page:89
      106    18221
      107    18222        %EJECT;
PL6.E3A0      #001=Z8EK$OPTIMAL_BRANCHES File=Z8EK.:Z8A6TSI                      SAT 08/09/97 11:56 Page:90
      108    18223
      109    18224        %TYPE_MATRIX_BEGIN(@NAME = COMPARISON_MATRIX);
      110    18228          %TYPE_MATRIX_ENTRY(@LOP = %TYI, @ROP = %TYI, @LOP_BECOMES = %TYI, @ROP_BECOMES =
             18228              %TYI);
      111    18237          %TYPE_MATRIX_ENTRY(@LOP = %TYI, @ROP = %TYD, @LOP_BECOMES = %TYD, @ROP_BECOMES =
             18237              %TYD);
      112    18246          %TYPE_MATRIX_ENTRY(@LOP = %TYI, @ROP = %TYH, @LOP_BECOMES = %TYI, @ROP_BECOMES =
             18246              %TYI);
      113    18255          %TYPE_MATRIX_ENTRY(@LOP = %TYI, @ROP = %TYR, @LOP_BECOMES = %TYQ, @ROP_BECOMES =
             18255              %TYQ);
      114    18264          %TYPE_MATRIX_ENTRY(@LOP = %TYI, @ROP = %TYQ, @LOP_BECOMES = %TYQ, @ROP_BECOMES =
             18264              %TYQ);
      115    18273          %TYPE_MATRIX_ENTRY(@LOP = %TYI, @ROP = %TYJ, @LOP_BECOMES = %TYI, @ROP_BECOMES =
             18273              %TYI);
      116    18282          %TYPE_MATRIX_ENTRY(@LOP = %TYI, @ROP = %TYO, @LOP_BECOMES = %TYD, @ROP_BECOMES =
             18282              %TYO);
      117    18291          %TYPE_MATRIX_ENTRY(@LOP = %TYI, @ROP = %TYK, @LOP_BECOMES = %TYI, @ROP_BECOMES =
             18291              %TYI);
      118    18300          %TYPE_MATRIX_ENTRY(@LOP = %TYI, @ROP = %TYA, @LOP_BECOMES = %TYA, @ROP_BECOMES =
             18300              %TYA);
      119    18309          %TYPE_MATRIX_ENTRY(@LOP = %TYI, @ROP = %TYE, @LOP_BECOMES = %TYA, @ROP_BECOMES =
             18309              %TYA);
      120    18318          %TYPE_MATRIX_ENTRY(@LOP = %TYI, @ROP = %TYF, @LOP_BECOMES = %TYD, @ROP_BECOMES =
             18318              %TYD);
      121    18327          %TYPE_MATRIX_ENTRY(@LOP = %TYI, @ROP = %TYB, @LOP_BECOMES = %TYA, @ROP_BECOMES =
             18327              %TYA);
      122    18336          %TYPE_MATRIX_ENTRY(@LOP = %TYD, @ROP = %TYI, @LOP_BECOMES = %TYD, @ROP_BECOMES =
             18336              %TYD);
      123    18345          %TYPE_MATRIX_ENTRY(@LOP = %TYD, @ROP = %TYD, @LOP_BECOMES = %TYD, @ROP_BECOMES =
             18345              %TYD);
      124    18354          %TYPE_MATRIX_ENTRY(@LOP = %TYD, @ROP = %TYH, @LOP_BECOMES = %TYD, @ROP_BECOMES =
             18354              %TYD);
      125    18363          %TYPE_MATRIX_ENTRY(@LOP = %TYD, @ROP = %TYR, @LOP_BECOMES = %TYR, @ROP_BECOMES =
             18363              %TYR);
      126    18372          %TYPE_MATRIX_ENTRY(@LOP = %TYD, @ROP = %TYQ, @LOP_BECOMES = %TYQ, @ROP_BECOMES =
             18372              %TYQ);
      127    18381          %TYPE_MATRIX_ENTRY(@LOP = %TYD, @ROP = %TYJ, @LOP_BECOMES = %TYD, @ROP_BECOMES =
PL6.E3A0      #001=Z8EK$OPTIMAL_BRANCHES File=Z8EK.:Z8A6TSI                      SAT 08/09/97 11:56 Page:91
             18381              %TYD);
      128    18390          %TYPE_MATRIX_ENTRY(@LOP = %TYD, @ROP = %TYO, @LOP_BECOMES = %TYD, @ROP_BECOMES =
             18390              %TYO);
      129    18399          %TYPE_MATRIX_ENTRY(@LOP = %TYD, @ROP = %TYK, @LOP_BECOMES = %TYD, @ROP_BECOMES =
             18399              %TYD);
      130    18408          %TYPE_MATRIX_ENTRY(@LOP = %TYD, @ROP = %TYA, @LOP_BECOMES = %TYA, @ROP_BECOMES =
             18408              %TYA);
      131    18417          %TYPE_MATRIX_ENTRY(@LOP = %TYD, @ROP = %TYE, @LOP_BECOMES = %TYA, @ROP_BECOMES =
             18417              %TYA);
      132    18426          %TYPE_MATRIX_ENTRY(@LOP = %TYD, @ROP = %TYF, @LOP_BECOMES = %TYD, @ROP_BECOMES =
             18426              %TYD);
      133    18435          %TYPE_MATRIX_ENTRY(@LOP = %TYD, @ROP = %TYB, @LOP_BECOMES = %TYA, @ROP_BECOMES =
             18435              %TYA);
      134    18444          %TYPE_MATRIX_ENTRY(@LOP = %TYH, @ROP = %TYI, @LOP_BECOMES = %TYI, @ROP_BECOMES =
             18444              %TYI);
      135    18453          %TYPE_MATRIX_ENTRY(@LOP = %TYH, @ROP = %TYD, @LOP_BECOMES = %TYD, @ROP_BECOMES =
             18453              %TYD);
      136    18462          %TYPE_MATRIX_ENTRY(@LOP = %TYH, @ROP = %TYH, @LOP_BECOMES = %TYI, @ROP_BECOMES =
             18462              %TYI);
      137    18471          %TYPE_MATRIX_ENTRY(@LOP = %TYH, @ROP = %TYR, @LOP_BECOMES = %TYQ, @ROP_BECOMES =
             18471              %TYQ);
      138    18480          %TYPE_MATRIX_ENTRY(@LOP = %TYH, @ROP = %TYQ, @LOP_BECOMES = %TYQ, @ROP_BECOMES =
             18480              %TYQ);
      139    18489          %TYPE_MATRIX_ENTRY(@LOP = %TYH, @ROP = %TYJ, @LOP_BECOMES = %TYI, @ROP_BECOMES =
             18489              %TYI);
      140    18498          %TYPE_MATRIX_ENTRY(@LOP = %TYH, @ROP = %TYO, @LOP_BECOMES = %TYD, @ROP_BECOMES =
             18498              %TYO);
      141    18507          %TYPE_MATRIX_ENTRY(@LOP = %TYH, @ROP = %TYK, @LOP_BECOMES = %TYI, @ROP_BECOMES =
             18507              %TYI);
      142    18516          %TYPE_MATRIX_ENTRY(@LOP = %TYH, @ROP = %TYA, @LOP_BECOMES = %TYA, @ROP_BECOMES =
             18516              %TYA);
      143    18525          %TYPE_MATRIX_ENTRY(@LOP = %TYH, @ROP = %TYE, @LOP_BECOMES = %TYA, @ROP_BECOMES =
             18525              %TYA);
      144    18534          %TYPE_MATRIX_ENTRY(@LOP = %TYH, @ROP = %TYF, @LOP_BECOMES = %TYD, @ROP_BECOMES =
             18534              %TYD);
      145    18543          %TYPE_MATRIX_ENTRY(@LOP = %TYH, @ROP = %TYB, @LOP_BECOMES = %TYA, @ROP_BECOMES =
             18543              %TYA);
PL6.E3A0      #001=Z8EK$OPTIMAL_BRANCHES File=Z8EK.:Z8A6TSI                      SAT 08/09/97 11:56 Page:92
      146    18552          %TYPE_MATRIX_ENTRY(@LOP = %TYR, @ROP = %TYI, @LOP_BECOMES = %TYR, @ROP_BECOMES =
             18552              %TYR);
      147    18561          %TYPE_MATRIX_ENTRY(@LOP = %TYR, @ROP = %TYD, @LOP_BECOMES = %TYR, @ROP_BECOMES =
             18561              %TYR);
      148    18570          %TYPE_MATRIX_ENTRY(@LOP = %TYR, @ROP = %TYH, @LOP_BECOMES = %TYR, @ROP_BECOMES =
             18570              %TYR);
      149    18579          %TYPE_MATRIX_ENTRY(@LOP = %TYR, @ROP = %TYR, @LOP_BECOMES = %TYR, @ROP_BECOMES =
             18579              %TYR);
      150    18588          %TYPE_MATRIX_ENTRY(@LOP = %TYR, @ROP = %TYQ, @LOP_BECOMES = %TYQ, @ROP_BECOMES =
             18588              %TYQ);
      151    18597          %TYPE_MATRIX_ENTRY(@LOP = %TYR, @ROP = %TYJ, @LOP_BECOMES = %TYR, @ROP_BECOMES =
             18597              %TYR);
      152    18606          %TYPE_MATRIX_ENTRY(@LOP = %TYR, @ROP = %TYO, @LOP_BECOMES = %TYR, @ROP_BECOMES =
             18606              %TYR);
      153    18615          %TYPE_MATRIX_ENTRY(@LOP = %TYR, @ROP = %TYK, @LOP_BECOMES = %TYR, @ROP_BECOMES =
             18615              %TYR);
      154    18624          %TYPE_MATRIX_ENTRY(@LOP = %TYR, @ROP = %TYA, @LOP_BECOMES = %TYA, @ROP_BECOMES =
             18624              %TYA);
      155    18633          %TYPE_MATRIX_ENTRY(@LOP = %TYR, @ROP = %TYE, @LOP_BECOMES = %TYA, @ROP_BECOMES =
             18633              %TYA);
      156    18642          %TYPE_MATRIX_ENTRY(@LOP = %TYR, @ROP = %TYF, @LOP_BECOMES = %TYQ, @ROP_BECOMES =
             18642              %TYQ);
      157    18651          %TYPE_MATRIX_ENTRY(@LOP = %TYR, @ROP = %TYB, @LOP_BECOMES = %TYA, @ROP_BECOMES =
             18651              %TYA);
      158    18660          %TYPE_MATRIX_ENTRY(@LOP = %TYQ, @ROP = %TYI, @LOP_BECOMES = %TYQ, @ROP_BECOMES =
             18660              %TYQ);
      159    18669          %TYPE_MATRIX_ENTRY(@LOP = %TYQ, @ROP = %TYD, @LOP_BECOMES = %TYQ, @ROP_BECOMES =
             18669              %TYQ);
      160    18678          %TYPE_MATRIX_ENTRY(@LOP = %TYQ, @ROP = %TYH, @LOP_BECOMES = %TYQ, @ROP_BECOMES =
             18678              %TYQ);
      161    18687          %TYPE_MATRIX_ENTRY(@LOP = %TYQ, @ROP = %TYR, @LOP_BECOMES = %TYQ, @ROP_BECOMES =
             18687              %TYQ);
      162    18696          %TYPE_MATRIX_ENTRY(@LOP = %TYQ, @ROP = %TYQ, @LOP_BECOMES = %TYQ, @ROP_BECOMES =
             18696              %TYQ);
      163    18705          %TYPE_MATRIX_ENTRY(@LOP = %TYQ, @ROP = %TYJ, @LOP_BECOMES = %TYQ, @ROP_BECOMES =
             18705              %TYQ);
      164    18714          %TYPE_MATRIX_ENTRY(@LOP = %TYQ, @ROP = %TYO, @LOP_BECOMES = %TYQ, @ROP_BECOMES =
PL6.E3A0      #001=Z8EK$OPTIMAL_BRANCHES File=Z8EK.:Z8A6TSI                      SAT 08/09/97 11:56 Page:93
             18714              %TYQ);
      165    18723          %TYPE_MATRIX_ENTRY(@LOP = %TYQ, @ROP = %TYK, @LOP_BECOMES = %TYQ, @ROP_BECOMES =
             18723              %TYQ);
      166    18732          %TYPE_MATRIX_ENTRY(@LOP = %TYQ, @ROP = %TYA, @LOP_BECOMES = %TYA, @ROP_BECOMES =
             18732              %TYA);
      167    18741          %TYPE_MATRIX_ENTRY(@LOP = %TYQ, @ROP = %TYE, @LOP_BECOMES = %TYA, @ROP_BECOMES =
             18741              %TYA);
      168    18750          %TYPE_MATRIX_ENTRY(@LOP = %TYQ, @ROP = %TYF, @LOP_BECOMES = %TYQ, @ROP_BECOMES =
             18750              %TYQ);
      169    18759          %TYPE_MATRIX_ENTRY(@LOP = %TYQ, @ROP = %TYB, @LOP_BECOMES = %TYA, @ROP_BECOMES =
             18759              %TYA);
      170    18768          %TYPE_MATRIX_ENTRY(@LOP = %TYJ, @ROP = %TYI, @LOP_BECOMES = %TYI, @ROP_BECOMES =
             18768              %TYI);
      171    18777          %TYPE_MATRIX_ENTRY(@LOP = %TYJ, @ROP = %TYD, @LOP_BECOMES = %TYD, @ROP_BECOMES =
             18777              %TYD);
      172    18786          %TYPE_MATRIX_ENTRY(@LOP = %TYJ, @ROP = %TYH, @LOP_BECOMES = %TYI, @ROP_BECOMES =
             18786              %TYI);
      173    18795          %TYPE_MATRIX_ENTRY(@LOP = %TYJ, @ROP = %TYR, @LOP_BECOMES = %TYR, @ROP_BECOMES =
             18795              %TYR);
      174    18804          %TYPE_MATRIX_ENTRY(@LOP = %TYJ, @ROP = %TYQ, @LOP_BECOMES = %TYQ, @ROP_BECOMES =
             18804              %TYQ);
      175    18813          %TYPE_MATRIX_ENTRY(@LOP = %TYJ, @ROP = %TYJ, @LOP_BECOMES = %TYI, @ROP_BECOMES =
             18813              %TYI);
      176    18822          %TYPE_MATRIX_ENTRY(@LOP = %TYJ, @ROP = %TYO, @LOP_BECOMES = %TYD, @ROP_BECOMES =
             18822              %TYO);
      177    18831          %TYPE_MATRIX_ENTRY(@LOP = %TYJ, @ROP = %TYK, @LOP_BECOMES = %TYI, @ROP_BECOMES =
             18831              %TYI);
      178    18840          %TYPE_MATRIX_ENTRY(@LOP = %TYJ, @ROP = %TYA, @LOP_BECOMES = %TYA, @ROP_BECOMES =
             18840              %TYA);
      179    18849          %TYPE_MATRIX_ENTRY(@LOP = %TYJ, @ROP = %TYE, @LOP_BECOMES = %TYA, @ROP_BECOMES =
             18849              %TYA);
      180    18858          %TYPE_MATRIX_ENTRY(@LOP = %TYJ, @ROP = %TYF, @LOP_BECOMES = %TYD, @ROP_BECOMES =
             18858              %TYD);
      181    18867          %TYPE_MATRIX_ENTRY(@LOP = %TYJ, @ROP = %TYB, @LOP_BECOMES = %TYA, @ROP_BECOMES =
             18867              %TYA);
      182    18876          %TYPE_MATRIX_ENTRY(@LOP = %TYO, @ROP = %TYI, @LOP_BECOMES = %TYO, @ROP_BECOMES =
             18876              %TYD);
PL6.E3A0      #001=Z8EK$OPTIMAL_BRANCHES File=Z8EK.:Z8A6TSI                      SAT 08/09/97 11:56 Page:94
      183    18885          %TYPE_MATRIX_ENTRY(@LOP = %TYO, @ROP = %TYD, @LOP_BECOMES = %TYO, @ROP_BECOMES =
             18885              %TYD);
      184    18894          %TYPE_MATRIX_ENTRY(@LOP = %TYO, @ROP = %TYH, @LOP_BECOMES = %TYO, @ROP_BECOMES =
             18894              %TYD);
      185    18903          %TYPE_MATRIX_ENTRY(@LOP = %TYO, @ROP = %TYR, @LOP_BECOMES = %TYR, @ROP_BECOMES =
             18903              %TYR);
      186    18912          %TYPE_MATRIX_ENTRY(@LOP = %TYO, @ROP = %TYQ, @LOP_BECOMES = %TYQ, @ROP_BECOMES =
             18912              %TYQ);
      187    18921          %TYPE_MATRIX_ENTRY(@LOP = %TYO, @ROP = %TYJ, @LOP_BECOMES = %TYO, @ROP_BECOMES =
             18921              %TYD);
      188    18930          %TYPE_MATRIX_ENTRY(@LOP = %TYO, @ROP = %TYO, @LOP_BECOMES = %TYO, @ROP_BECOMES =
             18930              %TYO);
      189    18939          %TYPE_MATRIX_ENTRY(@LOP = %TYO, @ROP = %TYK, @LOP_BECOMES = %TYO, @ROP_BECOMES =
             18939              %TYD);
      190    18948          %TYPE_MATRIX_ENTRY(@LOP = %TYO, @ROP = %TYA, @LOP_BECOMES = %TYA, @ROP_BECOMES =
             18948              %TYA);
      191    18957          %TYPE_MATRIX_ENTRY(@LOP = %TYO, @ROP = %TYE, @LOP_BECOMES = %TYA, @ROP_BECOMES =
             18957              %TYA);
      192    18966          %TYPE_MATRIX_ENTRY(@LOP = %TYO, @ROP = %TYF, @LOP_BECOMES = %TYO, @ROP_BECOMES =
             18966              %TYD);
      193    18975          %TYPE_MATRIX_ENTRY(@LOP = %TYO, @ROP = %TYB, @LOP_BECOMES = %TYA, @ROP_BECOMES =
             18975              %TYA);
      194    18984          %TYPE_MATRIX_ENTRY(@LOP = %TYK, @ROP = %TYI, @LOP_BECOMES = %TYI, @ROP_BECOMES =
             18984              %TYI);
      195    18993          %TYPE_MATRIX_ENTRY(@LOP = %TYK, @ROP = %TYD, @LOP_BECOMES = %TYD, @ROP_BECOMES =
             18993              %TYD);
      196    19002          %TYPE_MATRIX_ENTRY(@LOP = %TYK, @ROP = %TYH, @LOP_BECOMES = %TYI, @ROP_BECOMES =
             19002              %TYI);
      197    19011          %TYPE_MATRIX_ENTRY(@LOP = %TYK, @ROP = %TYR, @LOP_BECOMES = %TYR, @ROP_BECOMES =
             19011              %TYR);
      198    19020          %TYPE_MATRIX_ENTRY(@LOP = %TYK, @ROP = %TYQ, @LOP_BECOMES = %TYQ, @ROP_BECOMES =
             19020              %TYQ);
      199    19029          %TYPE_MATRIX_ENTRY(@LOP = %TYK, @ROP = %TYJ, @LOP_BECOMES = %TYI, @ROP_BECOMES =
             19029              %TYI);
      200    19038          %TYPE_MATRIX_ENTRY(@LOP = %TYK, @ROP = %TYO, @LOP_BECOMES = %TYD, @ROP_BECOMES =
             19038              %TYO);
      201    19047          %TYPE_MATRIX_ENTRY(@LOP = %TYK, @ROP = %TYK, @LOP_BECOMES = %TYI, @ROP_BECOMES =
PL6.E3A0      #001=Z8EK$OPTIMAL_BRANCHES File=Z8EK.:Z8A6TSI                      SAT 08/09/97 11:56 Page:95
             19047              %TYI);
      202    19056          %TYPE_MATRIX_ENTRY(@LOP = %TYK, @ROP = %TYA, @LOP_BECOMES = %TYA, @ROP_BECOMES =
             19056              %TYA);
      203    19065          %TYPE_MATRIX_ENTRY(@LOP = %TYK, @ROP = %TYE, @LOP_BECOMES = %TYA, @ROP_BECOMES =
             19065              %TYA);
      204    19074          %TYPE_MATRIX_ENTRY(@LOP = %TYK, @ROP = %TYF, @LOP_BECOMES = %TYD, @ROP_BECOMES =
             19074              %TYD);
      205    19083          %TYPE_MATRIX_ENTRY(@LOP = %TYK, @ROP = %TYB, @LOP_BECOMES = %TYA, @ROP_BECOMES =
             19083              %TYA);
      206    19092          %TYPE_MATRIX_ENTRY(@LOP = %TYA, @ROP = %TYI, @LOP_BECOMES = %TYA, @ROP_BECOMES =
             19092              %TYA);
      207    19101          %TYPE_MATRIX_ENTRY(@LOP = %TYA, @ROP = %TYD, @LOP_BECOMES = %TYA, @ROP_BECOMES =
             19101              %TYA);
      208    19110          %TYPE_MATRIX_ENTRY(@LOP = %TYA, @ROP = %TYH, @LOP_BECOMES = %TYA, @ROP_BECOMES =
             19110              %TYA);
      209    19119          %TYPE_MATRIX_ENTRY(@LOP = %TYA, @ROP = %TYR, @LOP_BECOMES = %TYA, @ROP_BECOMES =
             19119              %TYA);
      210    19128          %TYPE_MATRIX_ENTRY(@LOP = %TYA, @ROP = %TYQ, @LOP_BECOMES = %TYA, @ROP_BECOMES =
             19128              %TYA);
      211    19137          %TYPE_MATRIX_ENTRY(@LOP = %TYA, @ROP = %TYJ, @LOP_BECOMES = %TYA, @ROP_BECOMES =
             19137              %TYA);
      212    19146          %TYPE_MATRIX_ENTRY(@LOP = %TYA, @ROP = %TYO, @LOP_BECOMES = %TYA, @ROP_BECOMES =
             19146              %TYA);
      213    19155          %TYPE_MATRIX_ENTRY(@LOP = %TYA, @ROP = %TYK, @LOP_BECOMES = %TYA, @ROP_BECOMES =
             19155              %TYA);
      214    19164          %TYPE_MATRIX_ENTRY(@LOP = %TYA, @ROP = %TYA, @LOP_BECOMES = %TYA, @ROP_BECOMES =
             19164              %TYA);
      215    19173          %TYPE_MATRIX_ENTRY(@LOP = %TYA, @ROP = %TYE, @LOP_BECOMES = %TYA, @ROP_BECOMES =
             19173              %TYA);
      216    19182          %TYPE_MATRIX_ENTRY(@LOP = %TYA, @ROP = %TYF, @LOP_BECOMES = %TYA, @ROP_BECOMES =
             19182              %TYA);
      217    19191          %TYPE_MATRIX_ENTRY(@LOP = %TYA, @ROP = %TYB, @LOP_BECOMES = %TYA, @ROP_BECOMES =
             19191              %TYA);
      218    19200          %TYPE_MATRIX_ENTRY(@LOP = %TYE, @ROP = %TYI, @LOP_BECOMES = %TYA, @ROP_BECOMES =
             19200              %TYA);
      219    19209          %TYPE_MATRIX_ENTRY(@LOP = %TYE, @ROP = %TYD, @LOP_BECOMES = %TYA, @ROP_BECOMES =
             19209              %TYA);
PL6.E3A0      #001=Z8EK$OPTIMAL_BRANCHES File=Z8EK.:Z8A6TSI                      SAT 08/09/97 11:56 Page:96
      220    19218          %TYPE_MATRIX_ENTRY(@LOP = %TYE, @ROP = %TYH, @LOP_BECOMES = %TYA, @ROP_BECOMES =
             19218              %TYA);
      221    19227          %TYPE_MATRIX_ENTRY(@LOP = %TYE, @ROP = %TYR, @LOP_BECOMES = %TYA, @ROP_BECOMES =
             19227              %TYA);
      222    19236          %TYPE_MATRIX_ENTRY(@LOP = %TYE, @ROP = %TYQ, @LOP_BECOMES = %TYA, @ROP_BECOMES =
             19236              %TYA);
      223    19245          %TYPE_MATRIX_ENTRY(@LOP = %TYE, @ROP = %TYJ, @LOP_BECOMES = %TYA, @ROP_BECOMES =
             19245              %TYA);
      224    19254          %TYPE_MATRIX_ENTRY(@LOP = %TYE, @ROP = %TYO, @LOP_BECOMES = %TYA, @ROP_BECOMES =
             19254              %TYA);
      225    19263          %TYPE_MATRIX_ENTRY(@LOP = %TYE, @ROP = %TYK, @LOP_BECOMES = %TYA, @ROP_BECOMES =
             19263              %TYA);
      226    19272          %TYPE_MATRIX_ENTRY(@LOP = %TYE, @ROP = %TYA, @LOP_BECOMES = %TYA, @ROP_BECOMES =
             19272              %TYA);
      227    19281          %TYPE_MATRIX_ENTRY(@LOP = %TYE, @ROP = %TYE, @LOP_BECOMES = %TYA, @ROP_BECOMES =
             19281              %TYA);
      228    19290          %TYPE_MATRIX_ENTRY(@LOP = %TYE, @ROP = %TYF, @LOP_BECOMES = %TYA, @ROP_BECOMES =
             19290              %TYA);
      229    19299          %TYPE_MATRIX_ENTRY(@LOP = %TYE, @ROP = %TYB, @LOP_BECOMES = %TYA, @ROP_BECOMES =
             19299              %TYA);
      230    19308          %TYPE_MATRIX_ENTRY(@LOP = %TYF, @ROP = %TYI, @LOP_BECOMES = %TYD, @ROP_BECOMES =
             19308              %TYD);
      231    19317          %TYPE_MATRIX_ENTRY(@LOP = %TYF, @ROP = %TYD, @LOP_BECOMES = %TYD, @ROP_BECOMES =
             19317              %TYD);
      232    19326          %TYPE_MATRIX_ENTRY(@LOP = %TYF, @ROP = %TYH, @LOP_BECOMES = %TYD, @ROP_BECOMES =
             19326              %TYD);
      233    19335          %TYPE_MATRIX_ENTRY(@LOP = %TYF, @ROP = %TYR, @LOP_BECOMES = %TYQ, @ROP_BECOMES =
             19335              %TYQ);
      234    19344          %TYPE_MATRIX_ENTRY(@LOP = %TYF, @ROP = %TYQ, @LOP_BECOMES = %TYQ, @ROP_BECOMES =
             19344              %TYQ);
      235    19353          %TYPE_MATRIX_ENTRY(@LOP = %TYF, @ROP = %TYJ, @LOP_BECOMES = %TYD, @ROP_BECOMES =
             19353              %TYD);
      236    19362          %TYPE_MATRIX_ENTRY(@LOP = %TYF, @ROP = %TYO, @LOP_BECOMES = %TYD, @ROP_BECOMES =
             19362              %TYO);
      237    19371          %TYPE_MATRIX_ENTRY(@LOP = %TYF, @ROP = %TYK, @LOP_BECOMES = %TYD, @ROP_BECOMES =
             19371              %TYD);
      238    19380          %TYPE_MATRIX_ENTRY(@LOP = %TYF, @ROP = %TYA, @LOP_BECOMES = %TYA, @ROP_BECOMES =
PL6.E3A0      #001=Z8EK$OPTIMAL_BRANCHES File=Z8EK.:Z8A6TSI                      SAT 08/09/97 11:56 Page:97
             19380              %TYA);
      239    19389          %TYPE_MATRIX_ENTRY(@LOP = %TYF, @ROP = %TYE, @LOP_BECOMES = %TYA, @ROP_BECOMES =
             19389              %TYA);
      240    19398          %TYPE_MATRIX_ENTRY(@LOP = %TYF, @ROP = %TYF, @LOP_BECOMES = %TYF, @ROP_BECOMES =
             19398              %TYF);
      241    19407          %TYPE_MATRIX_ENTRY(@LOP = %TYF, @ROP = %TYB, @LOP_BECOMES = %TYA, @ROP_BECOMES =
             19407              %TYA);
      242    19416          %TYPE_MATRIX_ENTRY(@LOP = %TYB, @ROP = %TYI, @LOP_BECOMES = %TYA, @ROP_BECOMES =
             19416              %TYA);
      243    19425          %TYPE_MATRIX_ENTRY(@LOP = %TYB, @ROP = %TYD, @LOP_BECOMES = %TYA, @ROP_BECOMES =
             19425              %TYA);
      244    19434          %TYPE_MATRIX_ENTRY(@LOP = %TYB, @ROP = %TYH, @LOP_BECOMES = %TYA, @ROP_BECOMES =
             19434              %TYA);
      245    19443          %TYPE_MATRIX_ENTRY(@LOP = %TYB, @ROP = %TYR, @LOP_BECOMES = %TYA, @ROP_BECOMES =
             19443              %TYA);
      246    19452          %TYPE_MATRIX_ENTRY(@LOP = %TYB, @ROP = %TYQ, @LOP_BECOMES = %TYA, @ROP_BECOMES =
             19452              %TYA);
      247    19461          %TYPE_MATRIX_ENTRY(@LOP = %TYB, @ROP = %TYJ, @LOP_BECOMES = %TYA, @ROP_BECOMES =
             19461              %TYA);
      248    19470          %TYPE_MATRIX_ENTRY(@LOP = %TYB, @ROP = %TYO, @LOP_BECOMES = %TYA, @ROP_BECOMES =
             19470              %TYA);
      249    19479          %TYPE_MATRIX_ENTRY(@LOP = %TYB, @ROP = %TYK, @LOP_BECOMES = %TYA, @ROP_BECOMES =
             19479              %TYA);
      250    19488          %TYPE_MATRIX_ENTRY(@LOP = %TYB, @ROP = %TYA, @LOP_BECOMES = %TYA, @ROP_BECOMES =
             19488              %TYA);
      251    19497          %TYPE_MATRIX_ENTRY(@LOP = %TYB, @ROP = %TYE, @LOP_BECOMES = %TYA, @ROP_BECOMES =
             19497              %TYA);
      252    19506          %TYPE_MATRIX_ENTRY(@LOP = %TYB, @ROP = %TYF, @LOP_BECOMES = %TYA, @ROP_BECOMES =
             19506              %TYA);
      253    19515          %TYPE_MATRIX_ENTRY(@LOP = %TYB, @ROP = %TYB, @LOP_BECOMES = %TYA, @ROP_BECOMES =
             19515              %TYA);
      254    19524          %TYPE_MATRIX_ENTRY(@LOP = %TYN, @ROP = %TYN, @LOP_BECOMES = %TYN, @ROP_BECOMES =
             19524              %TYN);
      255    19533        %TYPE_MATRIX_END;
      256    19542        %EJECT;
PL6.E3A0      #001=Z8EK$OPTIMAL_BRANCHES File=Z8EK.:Z8A6TSI                      SAT 08/09/97 11:56 Page:98
      257    19543    1   COMPARE_LOOP : PROC (LIST$,

  19543 28 000003   200032 741300       COMPARE_LOOP STX1  ! TRANS_TABLE_ETT$+1,,AUTO
        28 000004   001024 710000 28                 TRA     s:21202

      258    19544    1                        LABEL$,
      259    19545    1                        COND_OP);
      260    19546
      261    19547    2     DCL LIST$ PTR;
      262    19548    2     DCL LABEL$ PTR;
      263    19549    2     DCL COND_OP SBIN WORD;
      264    19550
      265    19551    2     DCL END_LABEL$ PTR;
      266    19552
      267    19553
      268    19554    2     GEN_COMPARE : PROC (OP,

  19554 28 000005   200042 741300       GEN_COMPARE  STX1  ! ID+1,,AUTO

      269    19555    2                         LABEL$);
      270    19556
      271    19557    3       DCL OP SBIN WORD;
      272    19558    3       DCL LABEL$ PTR;
      273    19559
      274    19560          /*V*  This procedure generates a comparison loop for  constructs like
      275    19561                         IF STR = ALL "XXX"
      276    19562
      277    19563              The algorithm is :
      278    19564
      279    19565                   NUM_COMPARISONS = DIV (LEN(STR), LEN(LIT));
      280    19566                   REMAINING_CHARS = MOD (LEN(STR), LEN(LIT))
      281    19567
      282    19568                   <Emit only if NUM_COMPARISONS ~= constant 0>
      283    19569
      284    19570                       DO I = 1 TO LEN(STR) - LEN(LIT) + 1  BY LEN(LIT);
      285    19571
      286    19572                         IF LIT ~= SUBSTR(STR, I, LEN(LIT)) THEN
PL6.E3A0      #001=Z8EK$OPTIMAL_BRANCHES File=Z8EK.:Z8A6TSI                      SAT 08/09/97 11:56 Page:99
      287    19573                           IF LIT <OP> SUBSTR(STR, I, LEN(LIT)) THEN
      288    19574                             GO TO LABEL$
      289    19575                           ELSE
      290    19576                             GO TO END_OF_LOOP;
      291    19577
      292    19578                       END;
      293    19579
      294    19580                   <Emit only if REMAINING_CHARS ~= constant 0>
      295    19581
      296    19582                       IF REMAINING_CHARS > 0
      297    19583                         IF SUBSTR(LIT, 1, REMAINING_CHARS)
      298    19584                             <OP> SUBSTR (STR,
      299    19585                                          I,  (or 1 if above loop was not emitted)
      300    19586                                          REMAINING_CHARS)
      301    19587                           GO TO LABEL$
      302    19588          */
      303    19589
      304    19590    3       DCL STR$ PTR;
      305    19591    3       DCL LIT$ PTR;
      306    19592    3       DCL END_LABEL$ PTR;
      307    19593    3       DCL TEMP_LABEL$ PTR;
      308    19594
      309    19595            %DCL_AUTO_LX_ITEM(@NAME = STR_LEN);
      310    19599            %DCL_AUTO_LX_ITEM(@NAME = LIT_LEN);
      311    19603            %DCL_AUTO_LX_ITEM(@NAME = LOOP_COUNTER);
      312    19607            %DCL_AUTO_LX_ITEM(@NAME = NUM_COMPARISONS STATIC);
      313    19611            %DCL_AUTO_LX_ITEM(@NAME = REM_CHARS);
      314    19615            %DCL_AUTO_LX_ITEM(@NAME = SUBSTRING);
      315    19619            %DCL_AUTO_LX_ITEM(@NAME = SUBSTRING2);
      316    19623            %DCL_AUTO_LX_ITEM(@NAME = COMPARE);
      317    19627            %DCL_AUTO_LX_ITEM(@NAME = MINUS STATIC);
      318    19631            %DCL_AUTO_LX_ITEM(@NAME = PLUS STATIC);
      319    19635            %DCL_AUTO_LX_ITEM (@NAME = SAVED_ILS_LIST);
      320    19639
      321    19640    3       ADDR(SAVED_ILS_LIST) -> ILS_LIST = O1COM.ILS_LIST;

  19640 28 000006   000100 100400                    MLR     fill='000'O
PL6.E3A0      #001=Z8EK$OPTIMAL_BRANCHES File=Z8EK.:Z8A6TSI                      SAT 08/09/97 11:56 Page:100
        28 000007   000016 000040 xsym               ADSC9   O1COM+14                 cn=0,n=32
        28 000010   200142 000040                    ADSC9   SAVED_ILS_LIST,,AUTO     cn=0,n=32

      322    19641
      323    19642            %INIT_ILS_LIST(@POINTER ="ADDR(O1COM.ILS_LIST)");

  19644 28 000011   000007 220003                    LDX0    7,DU
        28 000012   000016 740000 xsym               STX0    O1COM+14

  19645 28 000013   000000 236000 29                 LDQ     0
        28 000014   000017 756000 xsym               STQ     O1COM+15

  19646 28 000015   000020 756000 xsym               STQ     O1COM+16

  19647 28 000016   000025 756000 xsym               STQ     O1COM+21

      324    19650
      325    19651    3       END_LABEL$ = ADDR(NIL);

  19651 28 000017   200047 756100                    STQ     END_LABEL$,,AUTO

      326    19652
      327    19653            %INIT_LX_ETT_ITEM (@POINTER = "ADDR(LOOP_COUNTER)",
      328    19654                               @ETT$ = "ADDR(NIL)");

  19656 28 000020   000004 222003                    LDX2    4,DU
        28 000021   200072 742100                    STX2    LOOP_COUNTER,,AUTO

  19657 28 000022   000000 223003                    LDX3    0,DU
        28 000023   200072 443100                    SXL3    LOOP_COUNTER,,AUTO

  19658 28 000024   000015 235007                    LDA     13,DL
        28 000025   200076 755100                    STA     LOOP_COUNTER+4,,AUTO

  19659 28 000026   200101 756100                    STQ     LOOP_COUNTER+7,,AUTO

  19660 28 000027   200073 756100                    STQ     LOOP_COUNTER+1,,AUTO
PL6.E3A0      #001=Z8EK$OPTIMAL_BRANCHES File=Z8EK.:Z8A6TSI                      SAT 08/09/97 11:56 Page:101

  19661 28 000030   200074 756100                    STQ     LOOP_COUNTER+2,,AUTO

  19663 28 000031   000133 235000 xsym               LDA     COMCOM+91
        28 000032   200077 755100                    STA     LOOP_COUNTER+5,,AUTO

  19664 28 000033   000134 235000 xsym               LDA     COMCOM+92
        28 000034   200100 755100                    STA     LOOP_COUNTER+6,,AUTO

      329    19676
      330    19677    3       ONE.ETT$ = COMCOM.VALUE_1;

  19677 28 000035   000125 236000 xsym               LDQ     COMCOM+85
        28 000036   000051 756000 26                 STQ     ONE+1

      331    19678
      332    19679            /*V* Get the two operands to be compared from the list.
      333    19680               The first is the string;  the second is the ALL <literal>
      334    19681            */
      335    19682
      336    19683    3       STR$ = LIST$ -> LX_LIST.HEAD$;

  19683 28 000037   200033 470500                    LDP0    @LIST$,,AUTO
        28 000040   000000 471500                    LDP1    0,,PR0
        28 000041   100004 236100                    LDQ     4,,PR1
        28 000042   200045 756100                    STQ     STR$,,AUTO

      337    19684    3       LIT$ = LIST$ -> LX_LIST.TAIL$;

  19684 28 000043   000000 471500                    LDP1    0,,PR0
        28 000044   100001 236100                    LDQ     1,,PR1
        28 000045   200046 756100                    STQ     LIT$,,AUTO

      338    19685    3       LIT$ -> LX_ETT_ITEM.B.ALL = FALSE;

  19685 28 000046   200046 471500                    LDP1    LIT$,,AUTO
        28 000047   000001 236000 29                 LDQ     1
PL6.E3A0      #001=Z8EK$OPTIMAL_BRANCHES File=Z8EK.:Z8A6TSI                      SAT 08/09/97 11:56 Page:102
        28 000050   100000 356100                    ANSQ    0,,PR1

      339    19686
      340    19687            /*V* Calculate the lengths */
      341    19688
      342    19689            %INIT_LX_ETT_ITEM (@POINTER = "ADDR(STR_LEN)",
      343    19690                               @TYPE = %TYI);

  19692 28 000051   200052 742100                    STX2    STR_LEN,,AUTO

  19693 28 000052   200052 443100                    SXL3    STR_LEN,,AUTO

  19694 28 000053   000001 235007                    LDA     1,DL
        28 000054   200056 755100                    STA     CONTEXT+1,,AUTO

  19695 28 000055   000000 236000 29                 LDQ     0
        28 000056   200061 756100                    STQ     TEMP_LOP_ITEM+1,,AUTO

  19696 28 000057   200053 756100                    STQ     DEC_PT+1,,AUTO

  19697 28 000060   200054 756100                    STQ     ST$$+1,,AUTO

  19699 28 000061   000133 235000 xsym               LDA     COMCOM+91
        28 000062   200057 755100                    STA     CFILL_ROP+1,,AUTO

  19700 28 000063   000134 235000 xsym               LDA     COMCOM+92
        28 000064   200060 755100                    STA     CFILL_ROP+2,,AUTO

      344    19712
      345    19713    3       CALL Z8AU$LENGTH_ETT (STR$ -> LX_ETT_ITEM.ETT$,

  19713 28 000065   200053 631500                    EPPR1   DEC_PT+1,,AUTO
        28 000066   200323 451500                    STP1    COLLATING$+2,,AUTO
        28 000067   200045 236100                    LDQ     STR$,,AUTO
        28 000070   000001 036003                    ADLQ    1,DU
        28 000071   200322 756100                    STQ     COLLATING$+1,,AUTO
        28 000072   200322 630500                    EPPR0   COLLATING$+1,,AUTO
PL6.E3A0      #001=Z8EK$OPTIMAL_BRANCHES File=Z8EK.:Z8A6TSI                      SAT 08/09/97 11:56 Page:103
        28 000073   000002 631400 29                 EPPR1   2
        28 000074   000000 701000 xent               TSX1    Z8AU$LENGTH_ETT
        28 000075   000000 011000                    NOP     0

      346    19714    3                             ADDR(STR_LEN) -> LX_ETT_ITEM.ETT$);
      347    19715
      348    19716            %INIT_LX_ETT_ITEM (@POINTER = "ADDR(LIT_LEN)",
      349    19717                               @TYPE = %TYI);

  19719 28 000076   000004 220003                    LDX0    4,DU
        28 000077   200062 740100                    STX0    LIT_LEN,,AUTO

  19720 28 000100   000000 221003                    LDX1    0,DU
        28 000101   200062 441100                    SXL1    LIT_LEN,,AUTO

  19721 28 000102   000001 235007                    LDA     1,DL
        28 000103   200066 755100                    STA     LIT_LEN+4,,AUTO

  19722 28 000104   000000 236000 29                 LDQ     0
        28 000105   200071 756100                    STQ     TEMP_ROP_ITEM+1,,AUTO

  19723 28 000106   200063 756100                    STQ     LIT_LEN+1,,AUTO

  19724 28 000107   200064 756100                    STQ     LIT_LEN+2,,AUTO

  19726 28 000110   000133 235000 xsym               LDA     COMCOM+91
        28 000111   200067 755100                    STA     LIT_LEN+5,,AUTO

  19727 28 000112   000134 235000 xsym               LDA     COMCOM+92
        28 000113   200070 755100                    STA     LIT_LEN+6,,AUTO

      350    19739
      351    19740    3       CALL Z8AU$LENGTH_ETT (LIT$ -> LX_ETT_ITEM.ETT$,

  19740 28 000114   200063 630500                    EPPR0   LIT_LEN+1,,AUTO
        28 000115   200323 450500                    STP0    COLLATING$+2,,AUTO
        28 000116   200046 236100                    LDQ     LIT$,,AUTO
PL6.E3A0      #001=Z8EK$OPTIMAL_BRANCHES File=Z8EK.:Z8A6TSI                      SAT 08/09/97 11:56 Page:104
        28 000117   000001 036003                    ADLQ    1,DU
        28 000120   200322 756100                    STQ     COLLATING$+1,,AUTO
        28 000121   200322 630500                    EPPR0   COLLATING$+1,,AUTO
        28 000122   000002 631400 29                 EPPR1   2
        28 000123   000000 701000 xent               TSX1    Z8AU$LENGTH_ETT
        28 000124   000000 011000                    NOP     0

      352    19741    3                             ADDR(LIT_LEN) -> LX_ETT_ITEM.ETT$);
      353    19742
      354    19743            /*V* Calculate NUM_COMPARISONS & REM_CHARS */
      355    19744
      356    19745            %INIT_LX_ETT_ITEM (@POINTER = "ADDR(NUM_COMPARISONS)",
      357    19746                               @TYPE = %TYI);

  19748 28 000125   000004 220003                    LDX0    4,DU
        28 000126   000060 740000 26                 STX0    NUM_COMPARISONS

  19749 28 000127   000000 221003                    LDX1    0,DU
        28 000130   000060 441000 26                 SXL1    NUM_COMPARISONS

  19750 28 000131   000001 235007                    LDA     1,DL
        28 000132   000064 755000 26                 STA     NUM_COMPARISONS+4

  19751 28 000133   000000 236000 29                 LDQ     0
        28 000134   000067 756000 26                 STQ     NUM_COMPARISONS+7

  19752 28 000135   000061 756000 26                 STQ     NUM_COMPARISONS+1

  19753 28 000136   000062 756000 26                 STQ     NUM_COMPARISONS+2

  19755 28 000137   000133 235000 xsym               LDA     COMCOM+91
        28 000140   000065 755000 26                 STA     NUM_COMPARISONS+5

  19756 28 000141   000134 235000 xsym               LDA     COMCOM+92
        28 000142   000066 755000 26                 STA     NUM_COMPARISONS+6

      358    19768
PL6.E3A0      #001=Z8EK$OPTIMAL_BRANCHES File=Z8EK.:Z8A6TSI                      SAT 08/09/97 11:56 Page:105
      359    19769    3       CALL Z8AF$FORME (%DVI,

  19769 28 000143   000005 236000 29                 LDQ     5
        28 000144   200325 756100                    STQ     COLLATING$+4,,AUTO
        28 000145   200063 630500                    EPPR0   LIT_LEN+1,,AUTO
        28 000146   200324 450500                    STP0    COLLATING$+3,,AUTO
        28 000147   200053 631500                    EPPR1   DEC_PT+1,,AUTO
        28 000150   200323 451500                    STP1    COLLATING$+2,,AUTO
        28 000151   000006 236000 29                 LDQ     6
        28 000152   200322 756100                    STQ     COLLATING$+1,,AUTO
        28 000153   200322 630500                    EPPR0   COLLATING$+1,,AUTO
        28 000154   000003 631400 29                 EPPR1   3
        28 000155   000000 701000 xent               TSX1    Z8AF$FORME
        28 000156   000000 011000                    NOP     0

      360    19770    3                        ADDR(STR_LEN) -> LX_ETT_ITEM.ETT$,
      361    19771    3                        ADDR(LIT_LEN) -> LX_ETT_ITEM.ETT$,
      362    19772    3                        ADDR(NUM_COMPARISONS) -> LX_ETT_ITEM.ETT$);
      363    19773
      364    19774            %INIT_LX_ETT_ITEM (@POINTER = "ADDR(REM_CHARS)",
      365    19775                               @TYPE = %TYI);

  19777 28 000157   000004 220003                    LDX0    4,DU
        28 000160   200102 740100                    STX0    REM_CHARS,,AUTO

  19778 28 000161   000000 221003                    LDX1    0,DU
        28 000162   200102 441100                    SXL1    REM_CHARS,,AUTO

  19779 28 000163   000001 235007                    LDA     1,DL
        28 000164   200106 755100                    STA     CONST_BUF+2,,AUTO

  19780 28 000165   000000 236000 29                 LDQ     0
        28 000166   200111 756100                    STQ     CONST_BUF+5,,AUTO

  19781 28 000167   200103 756100                    STQ     @ROP$+1,,AUTO

  19782 28 000170   200104 756100                    STQ     @TYPE_CFILL+1,,AUTO
PL6.E3A0      #001=Z8EK$OPTIMAL_BRANCHES File=Z8EK.:Z8A6TSI                      SAT 08/09/97 11:56 Page:106

  19784 28 000171   000133 235000 xsym               LDA     COMCOM+91
        28 000172   200107 755100                    STA     CONST_BUF+3,,AUTO

  19785 28 000173   000134 235000 xsym               LDA     COMCOM+92
        28 000174   200110 755100                    STA     CONST_BUF+4,,AUTO

      366    19797
      367    19798    3       CALL Z8AF$FORME (%MODI,

  19798 28 000175   200103 630500                    EPPR0   @ROP$+1,,AUTO
        28 000176   200325 450500                    STP0    COLLATING$+4,,AUTO
        28 000177   200063 631500                    EPPR1   LIT_LEN+1,,AUTO
        28 000200   200324 451500                    STP1    COLLATING$+3,,AUTO
        28 000201   200053 633500                    EPPR3   DEC_PT+1,,AUTO
        28 000202   200323 453500                    STP3    COLLATING$+2,,AUTO
        28 000203   000010 236000 29                 LDQ     8
        28 000204   200322 756100                    STQ     COLLATING$+1,,AUTO
        28 000205   200322 630500                    EPPR0   COLLATING$+1,,AUTO
        28 000206   000003 631400 29                 EPPR1   3
        28 000207   000000 701000 xent               TSX1    Z8AF$FORME
        28 000210   000000 011000                    NOP     0

      368    19799    3                        ADDR(STR_LEN) -> LX_ETT_ITEM.ETT$,
      369    19800    3                        ADDR(LIT_LEN) -> LX_ETT_ITEM.ETT$,
      370    19801    3                        ADDR(REM_CHARS) -> LX_ETT_ITEM.ETT$);
      371    19802
      372    19803            /*V* Issue loop for whole comparisons */
      373    19804
      374    19805    3       IF ADDR(NUM_COMPARISONS) -> LX_ETT_ITEM.ETT$ ~= COMCOM.VALUE_0 THEN

  19805 28 000211   000061 236000 26                 LDQ     NUM_COMPARISONS+1
        28 000212   000124 116000 xsym               CMPQ    COMCOM+84
        28 000213   000503 600000 28                 TZE     s:20317

      375    19806    4         DO;

PL6.E3A0      #001=Z8EK$OPTIMAL_BRANCHES File=Z8EK.:Z8A6TSI                      SAT 08/09/97 11:56 Page:107
      376    19807    4           CALL Z8EU$NEW_TEMP_FROM_ETT (COMCOM.VALUE_1,

  19807 28 000214   200072 630500                    EPPR0   LOOP_COUNTER,,AUTO
        28 000215   200322 450500                    STP0    COLLATING$+1,,AUTO
        28 000216   200322 631500                    EPPR1   COLLATING$+1,,AUTO
        28 000217   200325 451500                    STP1    COLLATING$+4,,AUTO
        28 000220   000011 236000 29                 LDQ     9
        28 000221   200324 756100                    STQ     COLLATING$+3,,AUTO
        28 000222   200324 630500                    EPPR0   COLLATING$+3,,AUTO
        28 000223   000002 631400 29                 EPPR1   2
        28 000224   000000 701000 xent               TSX1    Z8EU$NEW_TEMP_FROM_ETT
        28 000225   000000 011000                    NOP     0

      377    19808    4                                        ADDR(LOOP_COUNTER));
      378    19809
      379    19810
      380    19811    4           CALL Z8EY$SUBSTR (STR$,

  19811 28 000226   200072 630500                    EPPR0   LOOP_COUNTER,,AUTO
        28 000227   200322 450500                    STP0    COLLATING$+1,,AUTO
        28 000230   200062 631500                    EPPR1   LIT_LEN,,AUTO
        28 000231   200323 451500                    STP1    COLLATING$+2,,AUTO
        28 000232   200112 633500                    EPPR3   SUBSTRING,,AUTO
        28 000233   200324 453500                    STP3    COLLATING$+3,,AUTO
        28 000234   200324 634500                    EPPR4   COLLATING$+3,,AUTO
        28 000235   200331 454500                    STP4    COLLATING$+8,,AUTO
        28 000236   200323 635500                    EPPR5   COLLATING$+2,,AUTO
        28 000237   200330 455500                    STP5    COLLATING$+7,,AUTO
        28 000240   200322 636500                    EPPR6   COLLATING$+1,,AUTO
        28 000241   200327 456500                    STP6    COLLATING$+6,,AUTO
        28 000242   200045 637500                    EPPR7   STR$,,AUTO
        28 000243   200326 457500                    STP7    COLLATING$+5,,AUTO
        28 000244   200326 630500                    EPPR0   COLLATING$+5,,AUTO
        28 000245   000003 631400 29                 EPPR1   3
        28 000246   000000 701000 xent               TSX1    Z8EY$SUBSTR
        28 000247   000000 011000                    NOP     0

PL6.E3A0      #001=Z8EK$OPTIMAL_BRANCHES File=Z8EK.:Z8A6TSI                      SAT 08/09/97 11:56 Page:108
      381    19812    4                             ADDR(LOOP_COUNTER),
      382    19813    4                             ADDR(LIT_LEN),
      383    19814    4                             ADDR(SUBSTRING));
      384    19815
      385    19816                %INIT_BINARY_OP (@POINTER = "ADDR(COMPARE)",
      386    19817                                 @LOP$ = LIT$,
      387    19818                                 @ROP$ = "ADDR(SUBSTRING)",
      388    19819                                 @OP = %OP_NOT_EQUAL);

  19821 28 000250   000005 220003                    LDX0    5,DU
        28 000251   200132 740100                    STX0    COMPARE,,AUTO

  19822 28 000252   000000 221003                    LDX1    0,DU
        28 000253   200132 441100                    SXL1    COMPARE,,AUTO

  19829 28 000254   000133 235000 xsym               LDA     COMCOM+91
        28 000255   200137 755100                    STA     COMPARE+5,,AUTO

  19830 28 000256   000134 236000 xsym               LDQ     COMCOM+92
        28 000257   200140 756100                    STQ     COMPARE+6,,AUTO

  19831 28 000260   200112 630500                    EPPR0   SUBSTRING,,AUTO
        28 000261   200134 450500                    STP0    COMPARE+2,,AUTO

  19832 28 000262   200046 236100                    LDQ     LIT$,,AUTO
        28 000263   200133 756100                    STQ     COMPARE+1,,AUTO

  19833 28 000264   000031 235007                    LDA     25,DL
        28 000265   200135 755100                    STA     COMPARE+3,,AUTO

  19834 28 000266   000000 236000 29                 LDQ     0
        28 000267   200141 756100                    STQ     COMPARE+7,,AUTO

      389    19837
      390    19838    4           IF OP = %OP_NOT_EQUAL THEN

  19838 28 000270   200043 471500                    LDP1    @OP,,AUTO
PL6.E3A0      #001=Z8EK$OPTIMAL_BRANCHES File=Z8EK.:Z8A6TSI                      SAT 08/09/97 11:56 Page:109
        28 000271   100000 235100                    LDA     0,,PR1
        28 000272   000031 115007                    CMPA    25,DL
        28 000273   000307 601000 28                 TNZ     s:19843

      391    19839    4             CALL Z8EK$BRANCH_TRUE (LABEL$,

  19839 28 000274   200132 633500                    EPPR3   COMPARE,,AUTO
        28 000275   200322 453500                    STP3    COLLATING$+1,,AUTO
        28 000276   200322 634500                    EPPR4   COLLATING$+1,,AUTO
        28 000277   200325 454500                    STP4    COLLATING$+4,,AUTO
        28 000300   200044 236100                    LDQ     @LABEL$,,AUTO
        28 000301   200324 756100                    STQ     COLLATING$+3,,AUTO
        28 000302   200324 630500                    EPPR0   COLLATING$+3,,AUTO
        28 000303   000002 631400 29                 EPPR1   2
        28 000304   000000 701000 xent               TSX1    Z8EK$BRANCH_TRUE
        28 000305   000000 011000                    NOP     0
        28 000306   000403 710000 28                 TRA     s:20248

      392    19840    4                                    ADDR(COMPARE));
      393    19841    4           ELSE
      394    19842    5             DO;

      395    19843    5               CALL Z8AT$CREATE_TEMPORARY (%PARA,

  19843 28 000307   200050 633500                    EPPR3   TEMP_LABEL$,,AUTO
        28 000310   200323 453500                    STP3    COLLATING$+2,,AUTO
        28 000311   000013 236000 29                 LDQ     11
        28 000312   200322 756100                    STQ     COLLATING$+1,,AUTO
        28 000313   200322 630500                    EPPR0   COLLATING$+1,,AUTO
        28 000314   000002 631400 29                 EPPR1   2
        28 000315   000000 701000 xent               TSX1    Z8AT$CREATE_TEMPORARY
        28 000316   000000 011000                    NOP     0

      396    19844    5                                           TEMP_LABEL$);
      397    19845
      398    19846    5               CALL Z8EK$BRANCH_FALSE (TEMP_LABEL$,

PL6.E3A0      #001=Z8EK$OPTIMAL_BRANCHES File=Z8EK.:Z8A6TSI                      SAT 08/09/97 11:56 Page:110
  19846 28 000317   200132 630500                    EPPR0   COMPARE,,AUTO
        28 000320   200322 450500                    STP0    COLLATING$+1,,AUTO
        28 000321   200322 631500                    EPPR1   COLLATING$+1,,AUTO
        28 000322   200325 451500                    STP1    COLLATING$+4,,AUTO
        28 000323   200050 633500                    EPPR3   TEMP_LABEL$,,AUTO
        28 000324   200324 453500                    STP3    COLLATING$+3,,AUTO
        28 000325   200324 630500                    EPPR0   COLLATING$+3,,AUTO
        28 000326   000002 631400 29                 EPPR1   2
        28 000327   000000 701000 xent               TSX1    Z8EK$BRANCH_FALSE
        28 000330   000000 011000                    NOP     0

      399    19847    5                                       ADDR(COMPARE));
      400    19848
      401    19849    5               ADDR(COMPARE) -> BINARY_OP.OP = OP;

  19849 28 000331   200043 470500                    LDP0    @OP,,AUTO
        28 000332   000000 235100                    LDA     0,,PR0
        28 000333   200135 755100                    STA     COMPARE+3,,AUTO

      402    19850
      403    19851    5               CALL Z8EK$BRANCH_TRUE (LABEL$,

  19851 28 000334   200132 631500                    EPPR1   COMPARE,,AUTO
        28 000335   200322 451500                    STP1    COLLATING$+1,,AUTO
        28 000336   200322 633500                    EPPR3   COLLATING$+1,,AUTO
        28 000337   200325 453500                    STP3    COLLATING$+4,,AUTO
        28 000340   200044 236100                    LDQ     @LABEL$,,AUTO
        28 000341   200324 756100                    STQ     COLLATING$+3,,AUTO
        28 000342   200324 630500                    EPPR0   COLLATING$+3,,AUTO
        28 000343   000002 631400 29                 EPPR1   2
        28 000344   000000 701000 xent               TSX1    Z8EK$BRANCH_TRUE
        28 000345   000000 011000                    NOP     0

      404    19852    5                                      ADDR(COMPARE));
      405    19853
      406    19854    5               CALL Z8AT$CREATE_TEMPORARY (%PARA,

PL6.E3A0      #001=Z8EK$OPTIMAL_BRANCHES File=Z8EK.:Z8A6TSI                      SAT 08/09/97 11:56 Page:111
  19854 28 000346   200047 630500                    EPPR0   END_LABEL$,,AUTO
        28 000347   200323 450500                    STP0    COLLATING$+2,,AUTO
        28 000350   000013 236000 29                 LDQ     11
        28 000351   200322 756100                    STQ     COLLATING$+1,,AUTO
        28 000352   200322 630500                    EPPR0   COLLATING$+1,,AUTO
        28 000353   000002 631400 29                 EPPR1   2
        28 000354   000000 701000 xent               TSX1    Z8AT$CREATE_TEMPORARY
        28 000355   000000 011000                    NOP     0

      407    19855    5                                           END_LABEL$);
      408    19856
      409    19857    5               CALL Z8EK$BRANCH (END_LABEL$);

  19857 28 000356   200047 630500                    EPPR0   END_LABEL$,,AUTO
        28 000357   200322 450500                    STP0    COLLATING$+1,,AUTO
        28 000360   200322 630500                    EPPR0   COLLATING$+1,,AUTO
        28 000361   000014 631400 29                 EPPR1   12
        28 000362   007711 701000 28                 TSX1    s:32734
        28 000363   000000 011000                    NOP     0

      410    19858
      411    19859                    %NEW_ILL (@ID = %DEFLB,
      412    19860                              @LABEL$ = TEMP_LABEL$);

  20192 28 000364   000017 236000 29                 LDQ     15
        28 000365   200322 756100                    STQ     COLLATING$+1,,AUTO
        28 000366   200322 630500                    EPPR0   COLLATING$+1,,AUTO
        28 000367   200327 450500                    STP0    COLLATING$+6,,AUTO
        28 000370   000020 236000 29                 LDQ     16
        28 000371   200326 756100                    STQ     COLLATING$+5,,AUTO
        28 000372   000022 237000 29                 LDAQ    18
        28 000373   200324 757100                    STAQ    COLLATING$+3,,AUTO
        28 000374   200324 630500                    EPPR0   COLLATING$+3,,AUTO
        28 000375   000003 631400 29                 EPPR1   3
        28 000376   000000 701000 xent               TSX1    Z8AN$NEW_ILL
        28 000377   000000 011000                    NOP     0

PL6.E3A0      #001=Z8EK$OPTIMAL_BRANCHES File=Z8EK.:Z8A6TSI                      SAT 08/09/97 11:56 Page:112
  20193 28 000400   200050 236100                    LDQ     TEMP_LABEL$,,AUTO
        28 000401   000000 470400 7                  LDP0    ILL$
        28 000402   000001 756100                    STQ     1,,PR0

      413    20239    5             END;

      414    20240
      415    20241                /*V* Merge loop over IF statements */
      416    20242
      417    20243                %INIT_BINARY_OP (@POINTER = "ADDR(PLUS)",
      418    20244                                 @LOP$ = "ADDR(ONE)",
      419    20245                                 @ROP$ = "ADDR(STR_LEN)",
      420    20246                                 @OP = %OP_PLUS);

  20248 28 000403   000005 220003                    LDX0    5,DU
        28 000404   000100 740000 26                 STX0    PLUS

  20249 28 000405   000000 221003                    LDX1    0,DU
        28 000406   000100 441000 26                 SXL1    PLUS

  20256 28 000407   000133 235000 xsym               LDA     COMCOM+91
        28 000410   000105 755000 26                 STA     PLUS+5

  20257 28 000411   000134 236000 xsym               LDQ     COMCOM+92
        28 000412   000106 756000 26                 STQ     PLUS+6

  20258 28 000413   200052 630500                    EPPR0   STR_LEN,,AUTO
        28 000414   000102 450400 26                 STP0    PLUS+2

  20259 28 000415   000024 236000 29                 LDQ     20
        28 000416   000101 756000 26                 STQ     PLUS+1

  20260 28 000417   000020 235007                    LDA     16,DL
        28 000420   000103 755000 26                 STA     PLUS+3

  20261 28 000421   000000 236000 29                 LDQ     0
        28 000422   000107 756000 26                 STQ     PLUS+7
PL6.E3A0      #001=Z8EK$OPTIMAL_BRANCHES File=Z8EK.:Z8A6TSI                      SAT 08/09/97 11:56 Page:113

      421    20264
      422    20265                %INIT_BINARY_OP (@POINTER = "ADDR(MINUS)",
      423    20266                                 @LOP$ = "ADDR(PLUS)",
      424    20267                                 @ROP$ = "ADDR(LIT_LEN)",
      425    20268                                 @OP = %OP_BINARY_MINUS);

  20270 28 000423   000070 740000 26                 STX0    MINUS

  20271 28 000424   000070 441000 26                 SXL1    MINUS

  20278 28 000425   000133 235000 xsym               LDA     COMCOM+91
        28 000426   000075 755000 26                 STA     MINUS+5

  20279 28 000427   000134 235000 xsym               LDA     COMCOM+92
        28 000430   000076 755000 26                 STA     MINUS+6

  20280 28 000431   200062 631500                    EPPR1   LIT_LEN,,AUTO
        28 000432   000072 451400 26                 STP1    MINUS+2

  20281 28 000433   000025 236000 29                 LDQ     21
        28 000434   000071 756000 26                 STQ     MINUS+1

  20282 28 000435   000021 235007                    LDA     17,DL
        28 000436   000073 755000 26                 STA     MINUS+3

  20283 28 000437   000000 236000 29                 LDQ     0
        28 000440   000077 756000 26                 STQ     MINUS+7

      426    20286
      427    20287                %INIT_BINARY_OP (@POINTER = "ADDR(COMPARE)",
      428    20288                                 @LOP$ = "ADDR(LOOP_COUNTER)",
      429    20289                                 @ROP$ = "ADDR(MINUS)",
      430    20290                                 @OP = %OP_LESS_THAN_OR_EQUAL);

  20292 28 000441   200132 740100                    STX0    COMPARE,,AUTO

PL6.E3A0      #001=Z8EK$OPTIMAL_BRANCHES File=Z8EK.:Z8A6TSI                      SAT 08/09/97 11:56 Page:114
  20293 28 000442   200132 441100                    SXL1    COMPARE,,AUTO

  20300 28 000443   000133 235000 xsym               LDA     COMCOM+91
        28 000444   200137 755100                    STA     COMPARE+5,,AUTO

  20301 28 000445   000134 235000 xsym               LDA     COMCOM+92
        28 000446   200140 755100                    STA     COMPARE+6,,AUTO

  20302 28 000447   000026 236000 29                 LDQ     22
        28 000450   200134 756100                    STQ     COMPARE+2,,AUTO

  20303 28 000451   200072 633500                    EPPR3   LOOP_COUNTER,,AUTO
        28 000452   200133 453500                    STP3    COMPARE+1,,AUTO

  20304 28 000453   000032 235007                    LDA     26,DL
        28 000454   200135 755100                    STA     COMPARE+3,,AUTO

  20305 28 000455   000000 236000 29                 LDQ     0
        28 000456   200141 756100                    STQ     COMPARE+7,,AUTO

      431    20308
      432    20309    4           CALL Z8EQ$MERGE_ITERATED_DO_WHILE (ADDR(LOOP_COUNTER),

  20309 28 000457   200072 634500                    EPPR4   LOOP_COUNTER,,AUTO
        28 000460   200322 454500                    STP4    COLLATING$+1,,AUTO
        28 000461   000024 236000 29                 LDQ     20
        28 000462   200323 756100                    STQ     COLLATING$+2,,AUTO
        28 000463   200062 635500                    EPPR5   LIT_LEN,,AUTO
        28 000464   200324 455500                    STP5    COLLATING$+3,,AUTO
        28 000465   200132 636500                    EPPR6   COMPARE,,AUTO
        28 000466   200325 456500                    STP6    COLLATING$+4,,AUTO
        28 000467   200325 637500                    EPPR7   COLLATING$+4,,AUTO
        28 000470   200331 457500                    STP7    COLLATING$+8,,AUTO
        28 000471   200324 630500                    EPPR0   COLLATING$+3,,AUTO
        28 000472   200330 450500                    STP0    COLLATING$+7,,AUTO
        28 000473   200323 630500                    EPPR0   COLLATING$+2,,AUTO
        28 000474   200327 450500                    STP0    COLLATING$+6,,AUTO
PL6.E3A0      #001=Z8EK$OPTIMAL_BRANCHES File=Z8EK.:Z8A6TSI                      SAT 08/09/97 11:56 Page:115
        28 000475   200322 630500                    EPPR0   COLLATING$+1,,AUTO
        28 000476   200326 450500                    STP0    COLLATING$+5,,AUTO
        28 000477   200326 630500                    EPPR0   COLLATING$+5,,AUTO
        28 000500   000003 631400 29                 EPPR1   3
        28 000501   000000 701000 xent               TSX1    Z8EQ$MERGE_ITERATED_DO_WHILE
        28 000502   000000 011000                    NOP     0

      433    20310    4                                              ADDR(ONE),
      434    20311    4                                              ADDR(LIT_LEN),
      435    20312    4                                              ADDR(COMPARE));
      436    20313    4         END;

      437    20314
      438    20315            /*V* Issue last IF statement */
      439    20316
      440    20317    3       IF ADDR(REM_CHARS) -> LX_ETT_ITEM.ETT$ ~= COMCOM.VALUE_0 THEN

  20317 28 000503   200103 236100                    LDQ     @ROP$+1,,AUTO
        28 000504   000124 116000 xsym               CMPQ    COMCOM+84
        28 000505   000702 600000 28                 TZE     s:20393

      441    20318    4         DO;

      442    20319    4           ZERO.ETT$ = COMCOM.VALUE_0;

  20319 28 000506   000124 236000 xsym               LDQ     COMCOM+84
        28 000507   000041 756000 26                 STQ     ZERO+1

      443    20320
      444    20321                %INIT_BINARY_OP (@POINTER = "ADDR(COMPARE)",
      445    20322                                 @LOP$ = "ADDR(REM_CHARS)",
      446    20323                                 @ROP$ = "ADDR(ZERO)",
      447    20324                                 @OP = %OP_GREATER_THAN);

  20326 28 000510   000005 220003                    LDX0    5,DU
        28 000511   200132 740100                    STX0    COMPARE,,AUTO

PL6.E3A0      #001=Z8EK$OPTIMAL_BRANCHES File=Z8EK.:Z8A6TSI                      SAT 08/09/97 11:56 Page:116
  20327 28 000512   000000 221003                    LDX1    0,DU
        28 000513   200132 441100                    SXL1    COMPARE,,AUTO

  20334 28 000514   000133 235000 xsym               LDA     COMCOM+91
        28 000515   200137 755100                    STA     COMPARE+5,,AUTO

  20335 28 000516   000134 235000 xsym               LDA     COMCOM+92
        28 000517   200140 755100                    STA     COMPARE+6,,AUTO

  20336 28 000520   000027 236000 29                 LDQ     23
        28 000521   200134 756100                    STQ     COMPARE+2,,AUTO

  20337 28 000522   200102 630500                    EPPR0   REM_CHARS,,AUTO
        28 000523   200133 450500                    STP0    COMPARE+1,,AUTO

  20338 28 000524   000030 235007                    LDA     24,DL
        28 000525   200135 755100                    STA     COMPARE+3,,AUTO

  20339 28 000526   000000 236000 29                 LDQ     0
        28 000527   200141 756100                    STQ     COMPARE+7,,AUTO

      448    20342
      449    20343    4           IF END_LABEL$ = ADDR(NIL) THEN

  20343 28 000530   200047 236100                    LDQ     END_LABEL$,,AUTO
        28 000531   000000 116000 29                 CMPQ    0
        28 000532   000543 601000 28                 TNZ     s:20347

      450    20344    4             CALL Z8AT$CREATE_TEMPORARY (%PARA,

  20344 28 000533   200047 631500                    EPPR1   END_LABEL$,,AUTO
        28 000534   200323 451500                    STP1    COLLATING$+2,,AUTO
        28 000535   000013 236000 29                 LDQ     11
        28 000536   200322 756100                    STQ     COLLATING$+1,,AUTO
        28 000537   200322 630500                    EPPR0   COLLATING$+1,,AUTO
        28 000540   000002 631400 29                 EPPR1   2
        28 000541   000000 701000 xent               TSX1    Z8AT$CREATE_TEMPORARY
PL6.E3A0      #001=Z8EK$OPTIMAL_BRANCHES File=Z8EK.:Z8A6TSI                      SAT 08/09/97 11:56 Page:117
        28 000542   000000 011000                    NOP     0

      451    20345    4                                         END_LABEL$);
      452    20346
      453    20347    4           CALL Z8EK$BRANCH_FALSE (END_LABEL$,

  20347 28 000543   200132 630500                    EPPR0   COMPARE,,AUTO
        28 000544   200322 450500                    STP0    COLLATING$+1,,AUTO
        28 000545   200322 631500                    EPPR1   COLLATING$+1,,AUTO
        28 000546   200325 451500                    STP1    COLLATING$+4,,AUTO
        28 000547   200047 633500                    EPPR3   END_LABEL$,,AUTO
        28 000550   200324 453500                    STP3    COLLATING$+3,,AUTO
        28 000551   200324 630500                    EPPR0   COLLATING$+3,,AUTO
        28 000552   000002 631400 29                 EPPR1   2
        28 000553   000000 701000 xent               TSX1    Z8EK$BRANCH_FALSE
        28 000554   000000 011000                    NOP     0

      454    20348    4                                 ADDR(COMPARE));
      455    20349
      456    20350    4           CALL Z8EY$SUBSTR (LIT$,

  20350 28 000555   000024 236000 29                 LDQ     20
        28 000556   200322 756100                    STQ     COLLATING$+1,,AUTO
        28 000557   200102 630500                    EPPR0   REM_CHARS,,AUTO
        28 000560   200323 450500                    STP0    COLLATING$+2,,AUTO
        28 000561   200112 631500                    EPPR1   SUBSTRING,,AUTO
        28 000562   200324 451500                    STP1    COLLATING$+3,,AUTO
        28 000563   200324 633500                    EPPR3   COLLATING$+3,,AUTO
        28 000564   200331 453500                    STP3    COLLATING$+8,,AUTO
        28 000565   200323 634500                    EPPR4   COLLATING$+2,,AUTO
        28 000566   200330 454500                    STP4    COLLATING$+7,,AUTO
        28 000567   200322 635500                    EPPR5   COLLATING$+1,,AUTO
        28 000570   200327 455500                    STP5    COLLATING$+6,,AUTO
        28 000571   200046 636500                    EPPR6   LIT$,,AUTO
        28 000572   200326 456500                    STP6    COLLATING$+5,,AUTO
        28 000573   200326 630500                    EPPR0   COLLATING$+5,,AUTO
        28 000574   000003 631400 29                 EPPR1   3
PL6.E3A0      #001=Z8EK$OPTIMAL_BRANCHES File=Z8EK.:Z8A6TSI                      SAT 08/09/97 11:56 Page:118
        28 000575   000000 701000 xent               TSX1    Z8EY$SUBSTR
        28 000576   000000 011000                    NOP     0

      457    20351    4                             ADDR(ONE),
      458    20352    4                             ADDR(REM_CHARS),
      459    20353    4                             ADDR(SUBSTRING));
      460    20354
      461    20355    4           IF ADDR(LOOP_COUNTER) -> LX_ETT_ITEM.ETT$ = ADDR(NIL) THEN

  20355 28 000577   200073 236100                    LDQ     LOOP_COUNTER+1,,AUTO
        28 000600   000000 116000 29                 CMPQ    0
        28 000601   000625 601000 28                 TNZ     s:20361

      462    20356    4             CALL Z8EY$SUBSTR (STR$,

  20356 28 000602   000024 236000 29                 LDQ     20
        28 000603   200322 756100                    STQ     COLLATING$+1,,AUTO
        28 000604   200102 630500                    EPPR0   REM_CHARS,,AUTO
        28 000605   200323 450500                    STP0    COLLATING$+2,,AUTO
        28 000606   200122 631500                    EPPR1   SUBSTRING2,,AUTO
        28 000607   200324 451500                    STP1    COLLATING$+3,,AUTO
        28 000610   200324 633500                    EPPR3   COLLATING$+3,,AUTO
        28 000611   200331 453500                    STP3    COLLATING$+8,,AUTO
        28 000612   200323 634500                    EPPR4   COLLATING$+2,,AUTO
        28 000613   200330 454500                    STP4    COLLATING$+7,,AUTO
        28 000614   200322 635500                    EPPR5   COLLATING$+1,,AUTO
        28 000615   200327 455500                    STP5    COLLATING$+6,,AUTO
        28 000616   200045 636500                    EPPR6   STR$,,AUTO
        28 000617   200326 456500                    STP6    COLLATING$+5,,AUTO
        28 000620   200326 630500                    EPPR0   COLLATING$+5,,AUTO
        28 000621   000003 631400 29                 EPPR1   3
        28 000622   000000 701000 xent               TSX1    Z8EY$SUBSTR
        28 000623   000000 011000                    NOP     0
        28 000624   000647 710000 28                 TRA     s:20371

      463    20357    4                               ADDR(ONE),
      464    20358    4                               ADDR(REM_CHARS),
PL6.E3A0      #001=Z8EK$OPTIMAL_BRANCHES File=Z8EK.:Z8A6TSI                      SAT 08/09/97 11:56 Page:119
      465    20359    4                               ADDR(SUBSTRING2));
      466    20360    4           ELSE
      467    20361    4             CALL Z8EY$SUBSTR (STR$,

  20361 28 000625   200072 630500                    EPPR0   LOOP_COUNTER,,AUTO
        28 000626   200322 450500                    STP0    COLLATING$+1,,AUTO
        28 000627   200102 631500                    EPPR1   REM_CHARS,,AUTO
        28 000630   200323 451500                    STP1    COLLATING$+2,,AUTO
        28 000631   200122 633500                    EPPR3   SUBSTRING2,,AUTO
        28 000632   200324 453500                    STP3    COLLATING$+3,,AUTO
        28 000633   200324 634500                    EPPR4   COLLATING$+3,,AUTO
        28 000634   200331 454500                    STP4    COLLATING$+8,,AUTO
        28 000635   200323 635500                    EPPR5   COLLATING$+2,,AUTO
        28 000636   200330 455500                    STP5    COLLATING$+7,,AUTO
        28 000637   200322 636500                    EPPR6   COLLATING$+1,,AUTO
        28 000640   200327 456500                    STP6    COLLATING$+6,,AUTO
        28 000641   200045 637500                    EPPR7   STR$,,AUTO
        28 000642   200326 457500                    STP7    COLLATING$+5,,AUTO
        28 000643   200326 630500                    EPPR0   COLLATING$+5,,AUTO
        28 000644   000003 631400 29                 EPPR1   3
        28 000645   000000 701000 xent               TSX1    Z8EY$SUBSTR
        28 000646   000000 011000                    NOP     0

      468    20362    4                               ADDR(LOOP_COUNTER),
      469    20363    4                               ADDR(REM_CHARS),
      470    20364    4                               ADDR(SUBSTRING2));
      471    20365
      472    20366                %INIT_BINARY_OP (@POINTER = "ADDR(COMPARE)",
      473    20367                                 @LOP$ = "ADDR(SUBSTRING)",
      474    20368                                 @ROP$ = "ADDR(SUBSTRING2)",
      475    20369                                 @OP = OP);

  20371 28 000647   000005 220003                    LDX0    5,DU
        28 000650   200132 740100                    STX0    COMPARE,,AUTO

  20372 28 000651   000000 221003                    LDX1    0,DU
        28 000652   200132 441100                    SXL1    COMPARE,,AUTO
PL6.E3A0      #001=Z8EK$OPTIMAL_BRANCHES File=Z8EK.:Z8A6TSI                      SAT 08/09/97 11:56 Page:120

  20379 28 000653   000133 235000 xsym               LDA     COMCOM+91
        28 000654   200137 755100                    STA     COMPARE+5,,AUTO

  20380 28 000655   000134 236000 xsym               LDQ     COMCOM+92
        28 000656   200140 756100                    STQ     COMPARE+6,,AUTO

  20381 28 000657   200122 630500                    EPPR0   SUBSTRING2,,AUTO
        28 000660   200134 450500                    STP0    COMPARE+2,,AUTO

  20382 28 000661   200112 631500                    EPPR1   SUBSTRING,,AUTO
        28 000662   200133 451500                    STP1    COMPARE+1,,AUTO

  20383 28 000663   200043 473500                    LDP3    @OP,,AUTO
        28 000664   300000 235100                    LDA     0,,PR3
        28 000665   200135 755100                    STA     COMPARE+3,,AUTO

  20384 28 000666   000000 236000 29                 LDQ     0
        28 000667   200141 756100                    STQ     COMPARE+7,,AUTO

      476    20387
      477    20388    4           CALL Z8EK$BRANCH_TRUE (LABEL$,

  20388 28 000670   200132 634500                    EPPR4   COMPARE,,AUTO
        28 000671   200322 454500                    STP4    COLLATING$+1,,AUTO
        28 000672   200322 635500                    EPPR5   COLLATING$+1,,AUTO
        28 000673   200325 455500                    STP5    COLLATING$+4,,AUTO
        28 000674   200044 236100                    LDQ     @LABEL$,,AUTO
        28 000675   200324 756100                    STQ     COLLATING$+3,,AUTO
        28 000676   200324 630500                    EPPR0   COLLATING$+3,,AUTO
        28 000677   000002 631400 29                 EPPR1   2
        28 000700   000000 701000 xent               TSX1    Z8EK$BRANCH_TRUE
        28 000701   000000 011000                    NOP     0

      478    20389    4                                  ADDR(COMPARE));
      479    20390
      480    20391    4         END;
PL6.E3A0      #001=Z8EK$OPTIMAL_BRANCHES File=Z8EK.:Z8A6TSI                      SAT 08/09/97 11:56 Page:121

      481    20392
      482    20393    3       IF END_LABEL$ ~= ADDR(NIL) THEN

  20393 28 000702   200047 236100                    LDQ     END_LABEL$,,AUTO
        28 000703   000000 116000 29                 CMPQ    0
        28 000704   000724 600000 28                 TZE     s:20775

      483    20394              %NEW_ILL (@ID = %DEFLB,
      484    20395                        @LABEL$ = END_LABEL$);

  20727 28 000705   000017 236000 29                 LDQ     15
        28 000706   200322 756100                    STQ     COLLATING$+1,,AUTO
        28 000707   200322 630500                    EPPR0   COLLATING$+1,,AUTO
        28 000710   200327 450500                    STP0    COLLATING$+6,,AUTO
        28 000711   000020 236000 29                 LDQ     16
        28 000712   200326 756100                    STQ     COLLATING$+5,,AUTO
        28 000713   000022 237000 29                 LDAQ    18
        28 000714   200324 757100                    STAQ    COLLATING$+3,,AUTO
        28 000715   200324 630500                    EPPR0   COLLATING$+3,,AUTO
        28 000716   000003 631400 29                 EPPR1   3
        28 000717   000000 701000 xent               TSX1    Z8AN$NEW_ILL
        28 000720   000000 011000                    NOP     0

  20728 28 000721   200047 236100                    LDQ     END_LABEL$,,AUTO
        28 000722   000000 470400 7                  LDP0    ILL$
        28 000723   000001 756100                    STQ     1,,PR0

      485    20774
      486    20775    3       IF ADDR(LOOP_COUNTER) -> LX_ETT_ITEM.ETT$ ~= ADDR(NIL) THEN

  20775 28 000724   200073 236100                    LDQ     LOOP_COUNTER+1,,AUTO
        28 000725   000000 116000 29                 CMPQ    0
        28 000726   000735 600000 28                 TZE     s:20785

      487    20776    3         CALL Z8EU$DISPOSE_TEMP (ADDR(LOOP_COUNTER) -> LX_ETT_ITEM.ETT$);

PL6.E3A0      #001=Z8EK$OPTIMAL_BRANCHES File=Z8EK.:Z8A6TSI                      SAT 08/09/97 11:56 Page:122
  20776 28 000727   200073 630500                    EPPR0   LOOP_COUNTER+1,,AUTO
        28 000730   200322 450500                    STP0    COLLATING$+1,,AUTO
        28 000731   200322 630500                    EPPR0   COLLATING$+1,,AUTO
        28 000732   000014 631400 29                 EPPR1   12
        28 000733   000000 701000 xent               TSX1    Z8EU$DISPOSE_TEMP
        28 000734   000000 011000                    NOP     0

      488    20777
      489    20778            %APPEND_ILS_LIST(@FROM$ = "ADDR(O1COM.ILS_LIST)",
      490    20779                             @TO$ = "ADDR(SAVED_ILS_LIST)");

  20785 28 000735   000017 236000 xsym               LDQ     O1COM+15
        28 000736   000000 116000 29                 CMPQ    0
        28 000737   000753 600000 28                 TZE     s:20797

  20786 28 000740   200143 236100                    LDQ     SAVED_ILS_LIST+1,,AUTO
        28 000741   000000 116000 29                 CMPQ    0
        28 000742   000746 601000 28                 TNZ     s:20790

  20787 28 000743   000017 236000 xsym               LDQ     O1COM+15
        28 000744   200143 756100                    STQ     SAVED_ILS_LIST+1,,AUTO

  20788 28 000745   000751 710000 28                 TRA     s:20792

  20790 28 000746   000017 236000 xsym               LDQ     O1COM+15
        28 000747   200144 470500                    LDP0    SAVED_ILS_LIST+2,,AUTO
        28 000750   000002 756100                    STQ     2,,PR0

  20792 28 000751   000020 236000 xsym               LDQ     O1COM+16
        28 000752   200144 756100                    STQ     SAVED_ILS_LIST+2,,AUTO

      491    20796
      492    20797    3       O1COM.ILS_LIST = ADDR(SAVED_ILS_LIST) -> ILS_LIST;

  20797 28 000753   000000 100500                    MLR     fill='000'O
        28 000754   200142 000040                    ADSC9   SAVED_ILS_LIST,,AUTO     cn=0,n=32
        28 000755   000016 000040 xsym               ADSC9   O1COM+14                 cn=0,n=32
PL6.E3A0      #001=Z8EK$OPTIMAL_BRANCHES File=Z8EK.:Z8A6TSI                      SAT 08/09/97 11:56 Page:123

      493    20798
      494    20799    3     END GEN_COMPARE;

  20799 28 000756   200042 221300                    LDX1  ! ID+1,,AUTO
        28 000757   000001 702211                    TSX2  ! 1,X1

      495    20800
      496    20801
      497    20802
      498    20803    2   GEN_MODIFIED_LOOP : PROC (OP);

  20803 28 000760   200040 741300       GEN_MODIFIE* STX1  ! DB_REG_LOP+1,,AUTO

      499    20804
      500    20805    3     DCL OP SBIN WORD;
      501    20806
      502    20807    3         CALL Z8AT$CREATE_TEMPORARY (%PARA,

  20807 28 000761   200036 630500                    EPPR0   END_LABEL$,,AUTO
        28 000762   200323 450500                    STP0    COLLATING$+2,,AUTO
        28 000763   000013 236000 29                 LDQ     11
        28 000764   200322 756100                    STQ     COLLATING$+1,,AUTO
        28 000765   200322 630500                    EPPR0   COLLATING$+1,,AUTO
        28 000766   000002 631400 29                 EPPR1   2
        28 000767   000000 701000 xent               TSX1    Z8AT$CREATE_TEMPORARY
        28 000770   000000 011000                    NOP     0

      503    20808    3                                     END_LABEL$);
      504    20809
      505    20810    3         CALL GEN_COMPARE (OP,

  20810 28 000771   200036 630500                    EPPR0   END_LABEL$,,AUTO
        28 000772   200044 450500                    STP0    @LABEL$,,AUTO
        28 000773   200041 236100                    LDQ     @OP,,AUTO
        28 000774   200043 756100                    STQ     @OP,,AUTO
        28 000775   000005 701000 28                 TSX1    GEN_COMPARE
PL6.E3A0      #001=Z8EK$OPTIMAL_BRANCHES File=Z8EK.:Z8A6TSI                      SAT 08/09/97 11:56 Page:124
        28 000776   000000 011000                    NOP     0

      506    20811    3                           END_LABEL$);
      507    20812
      508    20813    3         CALL Z8EK$BRANCH(LABEL$);

  20813 28 000777   200034 630500                    EPPR0   @LABEL$,,AUTO
        28 001000   000014 631400 29                 EPPR1   12
        28 001001   007711 701000 28                 TSX1    s:32734
        28 001002   000000 011000                    NOP     0

      509    20814
      510    20815              %NEW_ILL (@ID = %DEFLB,
      511    20816                        @LABEL$ = END_LABEL$);

  21148 28 001003   000017 236000 29                 LDQ     15
        28 001004   200322 756100                    STQ     COLLATING$+1,,AUTO
        28 001005   200322 630500                    EPPR0   COLLATING$+1,,AUTO
        28 001006   200327 450500                    STP0    COLLATING$+6,,AUTO
        28 001007   000020 236000 29                 LDQ     16
        28 001010   200326 756100                    STQ     COLLATING$+5,,AUTO
        28 001011   000022 237000 29                 LDAQ    18
        28 001012   200324 757100                    STAQ    COLLATING$+3,,AUTO
        28 001013   200324 630500                    EPPR0   COLLATING$+3,,AUTO
        28 001014   000003 631400 29                 EPPR1   3
        28 001015   000000 701000 xent               TSX1    Z8AN$NEW_ILL
        28 001016   000000 011000                    NOP     0

  21149 28 001017   200036 236100                    LDQ     END_LABEL$,,AUTO
        28 001020   000000 470400 7                  LDP0    ILL$
        28 001021   000001 756100                    STQ     1,,PR0

      512    21195
      513    21196    3   END GEN_MODIFIED_LOOP;

  21196 28 001022   200040 221300                    LDX1  ! DB_REG_LOP+1,,AUTO
        28 001023   000001 702211                    TSX2  ! 1,X1
PL6.E3A0      #001=Z8EK$OPTIMAL_BRANCHES File=Z8EK.:Z8A6TSI                      SAT 08/09/97 11:56 Page:125

      514    21197
      515    21198
      516    21199
      517    21200          /*V* Main body of COMPARE_LOOP */
      518    21201
      519    21202    3     DO CASE (COND_OP);

  21202 28 001024   200035 470500                    LDP0    @COND_OP,,AUTO
        28 001025   000000 235100                    LDA     0,,PR0
        28 001026   000026 135007                    SBLA    22,DL
        28 001027   000006 115007                    CMPA    6,DL
        28 001030   001032 602005 28                 TNC     s:21202+6,AL
        28 001031   001103 710000 28                 TRA     s:21233
        28 001032   001054 710000 28                 TRA     s:21215
        28 001033   001040 710000 28                 TRA     s:21206
        28 001034   001070 710000 28                 TRA     s:21224
        28 001035   001045 710000 28                 TRA     s:21210
        28 001036   001063 710000 28                 TRA     s:21220
        28 001037   001077 710000 28                 TRA     s:21229

      520    21203
      521    21204    3       CASE (%OP_EQUAL);

      522    21205
      523    21206    3         CALL GEN_MODIFIED_LOOP (%OP_NOT_EQUAL);

  21206 28 001040   000031 236000 29                 LDQ     25
        28 001041   200041 756100                    STQ     DB_REG_ROP+1,,AUTO
        28 001042   000760 701000 28                 TSX1    GEN_MODIFIED_LOOP
        28 001043   000000 011000                    NOP     0
        28 001044   001103 710000 28                 TRA     s:21233

      524    21207
      525    21208    3       CASE(%OP_NOT_EQUAL);

      526    21209
PL6.E3A0      #001=Z8EK$OPTIMAL_BRANCHES File=Z8EK.:Z8A6TSI                      SAT 08/09/97 11:56 Page:126
      527    21210    3         CALL GEN_COMPARE (%OP_NOT_EQUAL,

  21210 28 001045   200034 236100                    LDQ     @LABEL$,,AUTO
        28 001046   200044 756100                    STQ     LOP$+1,,AUTO
        28 001047   000031 236000 29                 LDQ     25
        28 001050   200043 756100                    STQ     ETT$$+1,,AUTO
        28 001051   000005 701000 28                 TSX1    GEN_COMPARE
        28 001052   000000 011000                    NOP     0
        28 001053   001103 710000 28                 TRA     s:21233

      528    21211    3                           LABEL$);
      529    21212
      530    21213    3       CASE(%OP_LESS_THAN);

      531    21214
      532    21215    3         CALL GEN_COMPARE (%OP_LESS_THAN,

  21215 28 001054   200034 236100                    LDQ     @LABEL$,,AUTO
        28 001055   200044 756100                    STQ     LOP$+1,,AUTO
        28 001056   000033 236000 29                 LDQ     27
        28 001057   200043 756100                    STQ     ETT$$+1,,AUTO
        28 001060   000005 701000 28                 TSX1    GEN_COMPARE
        28 001061   000000 011000                    NOP     0
        28 001062   001103 710000 28                 TRA     s:21233

      533    21216    3                           LABEL$);
      534    21217
      535    21218    3       CASE (%OP_LESS_THAN_OR_EQUAL);

      536    21219
      537    21220    3         CALL GEN_MODIFIED_LOOP (%OP_GREATER_THAN);

  21220 28 001063   000035 236000 29                 LDQ     29
        28 001064   200041 756100                    STQ     DB_REG_ROP+1,,AUTO
        28 001065   000760 701000 28                 TSX1    GEN_MODIFIED_LOOP
        28 001066   000000 011000                    NOP     0
        28 001067   001103 710000 28                 TRA     s:21233
PL6.E3A0      #001=Z8EK$OPTIMAL_BRANCHES File=Z8EK.:Z8A6TSI                      SAT 08/09/97 11:56 Page:127

      538    21221
      539    21222    3       CASE (%OP_GREATER_THAN);

      540    21223
      541    21224    3         CALL GEN_COMPARE (%OP_GREATER_THAN,

  21224 28 001070   200034 236100                    LDQ     @LABEL$,,AUTO
        28 001071   200044 756100                    STQ     LOP$+1,,AUTO
        28 001072   000035 236000 29                 LDQ     29
        28 001073   200043 756100                    STQ     ETT$$+1,,AUTO
        28 001074   000005 701000 28                 TSX1    GEN_COMPARE
        28 001075   000000 011000                    NOP     0
        28 001076   001103 710000 28                 TRA     s:21233

      542    21225    3                           LABEL$);
      543    21226
      544    21227    3       CASE (%OP_GREATER_THAN_OR_EQUAL);

      545    21228
      546    21229    3         CALL GEN_MODIFIED_LOOP (%OP_LESS_THAN);

  21229 28 001077   000033 236000 29                 LDQ     27
        28 001100   200041 756100                    STQ     DB_REG_ROP+1,,AUTO
        28 001101   000760 701000 28                 TSX1    GEN_MODIFIED_LOOP
        28 001102   000000 011000                    NOP     0

      547    21230
      548    21231    3     END;

      549    21232
      550    21233    2     CALL Z8ED$DISPOSE_ABSSYN_TREE (LIST$);

  21233 28 001103   200033 630500                    EPPR0   @LIST$,,AUTO
        28 001104   000014 631400 29                 EPPR1   12
        28 001105   000000 701000 xent               TSX1    Z8ED$DISPOSE_ABSSYN_TREE
        28 001106   000000 011000                    NOP     0
PL6.E3A0      #001=Z8EK$OPTIMAL_BRANCHES File=Z8EK.:Z8A6TSI                      SAT 08/09/97 11:56 Page:128

      551    21234
      552    21235    2   END COMPARE_LOOP;

  21235 28 001107   200032 221300                    LDX1  ! TRANS_TABLE_ETT$+1,,AUTO
        28 001110   000001 702211                    TSX2  ! 1,X1

      553    21236        %EJECT;
PL6.E3A0      #001=Z8EK$OPTIMAL_BRANCHES File=Z8EK.:Z8A6TSI                      SAT 08/09/97 11:56 Page:129
      554    21237    1   GEN_COMPARISONS:PROC(NODE$, RETURN$) ALTRET;

  21237 28 001111   200032 741300       GEN_COMPARI* STX1  ! TRANS_TABLE_ETT$+1,,AUTO
        28 001112   002032 710000 28                 TRA     s:21589

      555    21238
      556    21239    2        DCL NODE$   PTR;
      557    21240    2        DCL RETURN$ PTR;
      558    21241
      559    21242
      560    21243        /*P*
      561    21244              NAME : GEN_COMPARISONS
      562    21245           PURPOSE : Interface between Abstract Syntax Tree and ETT comparison
      563    21246                     items.
      564    21247
      565    21248        */
      566    21249
      567    21250
      568    21251    2        DCL DB_FLAG_LOP    BOOLEAN;
      569    21252    2        DCL DB_FLAG_ROP    BOOLEAN;
      570    21253    2        DCL DB_REG_LOP     BOOLEAN;
      571    21254    2        DCL DB_REG_ROP     BOOLEAN;
      572    21255    2        DCL ID             SBIN WORD;
      573    21256    2        DCL ETT$$          PTR;
      574    21257    2        DCL LOP$           PTR;
      575    21258    2        DCL ROP$           PTR;
      576    21259    2        DCL LOP_IS_POINTER BOOLEAN;
      577    21260    2        DCL ROP_IS_POINTER BOOLEAN;
      578    21261    2        DCL LOP_IS_TYI     BOOLEAN;
      579    21262    2        DCL ROP_IS_TYI     BOOLEAN;
      580    21263    2        DCL TEMP_SBIN      SBIN;
      581    21264    2        DCL DEC_PT         CHAR (1); /* '.' or ',' */
      582    21265
      583    21266    2        DCL ST$$           PTR;
      584    21267    2        DCL TEMP$          PTR;
      585    21268    2        DCL CONTEXT        SBIN WORD;
      586    21269
PL6.E3A0      #001=Z8EK$OPTIMAL_BRANCHES File=Z8EK.:Z8A6TSI                      SAT 08/09/97 11:56 Page:130
      587    21270    2        DCL 1 CFILL_ROP UNAL,
      588    21271    2              2 CH     CHAR(1) UNAL,
      589    21272    2              2 REM_CH UBIN(27) UNAL;
      590    21273
      591    21274             %DCL_AUTO_LX_ITEM( @NAME = TEMP_LOP_ITEM );
      592    21278             %DCL_AUTO_LX_ITEM( @NAME = TEMP_ROP_ITEM );
      593    21282
      594    21283
      595    21284    2   CHECK_NONNUM_NUM_COMP : PROC (ORIG$,

  21284 28 001113   200100 741300       CHECK_NONNU* STX1  ! LOOP_COUNTER+6,,AUTO

      596    21285    2                                 NEW$);
      597    21286
      598    21287    3     DCL ORIG$ PTR;
      599    21288    3     DCL NEW$  PTR;
      600    21289
      601    21290    3   IF ORIG$ -> LX_ITEM.ID = %LX_TERMINAL THEN

  21290 28 001114   200101 470500                    LDP0    @ORIG$,,AUTO
        28 001115   000000 471500                    LDP1    0,,PR0
        28 001116   100000 220100                    LDX0    0,,PR1
        28 001117   001154 601000 28                 TNZ     NONINTEGER

      602    21291    3     IF ORIG$ -> LX_TERMINAL.SYMBOL = %NUMBER

  21291 28 001120   100003 235100                    LDA     3,,PR1
        28 001121   000025 115007                    CMPA    21,DL
        28 001122   001125 600000 28                 TZE     s:21293
        28 001123   000761 115007                    CMPA    497,DL
        28 001124   001137 601000 28                 TNZ     s:21298

      603    21292    3        OR ORIG$ -> LX_TERMINAL.SYMBOL = %RSV_WRD_ZEROES THEN
      604    21293    3       CALL Z8EV$CONVERT (%TYA,

  21293 28 001125   200102 236100                    LDQ     @NEW$,,AUTO
        28 001126   200324 756100                    STQ     COLLATING$+3,,AUTO
PL6.E3A0      #001=Z8EK$OPTIMAL_BRANCHES File=Z8EK.:Z8A6TSI                      SAT 08/09/97 11:56 Page:131
        28 001127   200101 236100                    LDQ     @ORIG$,,AUTO
        28 001130   000040 235000 29                 LDA     32
        28 001131   200322 757100                    STAQ    COLLATING$+1,,AUTO
        28 001132   200322 630500                    EPPR0   COLLATING$+1,,AUTO
        28 001133   000036 631400 29                 EPPR1   30
        28 001134   000000 701000 xent               TSX1    Z8EV$CONVERT
        28 001135   000000 011000                    NOP     0
        28 001136   001154 710000 28                 TRA     NONINTEGER

      605    21294    3                          ORIG$,
      606    21295    3                          NEW$);
      607    21296    3     ELSE
      608    21297    4       DO;

      609    21298    4         CALL Z8CO$CHECK_INTEGER_TERMINAL (ORIG$) ALTRET (NONINTEGER);

  21298 28 001137   200101 630500                    EPPR0   @ORIG$,,AUTO
        28 001140   000014 631400 29                 EPPR1   12
        28 001141   000000 701000 xent               TSX1    Z8CO$CHECK_INTEGER_TERMINAL
        28 001142   001154 702000 28                 TSX2    NONINTEGER

      610    21299
      611    21300    4         CALL Z8EV$CONVERT (%TYA,

  21300 28 001143   200102 236100                    LDQ     @NEW$,,AUTO
        28 001144   200324 756100                    STQ     COLLATING$+3,,AUTO
        28 001145   200101 236100                    LDQ     @ORIG$,,AUTO
        28 001146   000040 235000 29                 LDA     32
        28 001147   200322 757100                    STAQ    COLLATING$+1,,AUTO
        28 001150   200322 630500                    EPPR0   COLLATING$+1,,AUTO
        28 001151   000036 631400 29                 EPPR1   30
        28 001152   000000 701000 xent               TSX1    Z8EV$CONVERT
        28 001153   000000 011000                    NOP     0

  21298 28 001154                       NONINTEGER   null
      612    21301    4                            ORIG$,
      613    21302    4                            NEW$);
PL6.E3A0      #001=Z8EK$OPTIMAL_BRANCHES File=Z8EK.:Z8A6TSI                      SAT 08/09/97 11:56 Page:132
      614    21303
      615    21304    4         NONINTEGER: ;
      616    21305    4       END;

      617    21306
      618    21307    3   END CHECK_NONNUM_NUM_COMP;

  21307 28 001154   200100 221300                    LDX1  ! LOOP_COUNTER+6,,AUTO
        28 001155   000001 702211                    TSX2  ! 1,X1

      619    21308        %EJECT;
PL6.E3A0      #001=Z8EK$OPTIMAL_BRANCHES File=Z8EK.:Z8A6TSI                      SAT 08/09/97 11:56 Page:133
      620    21309    2   INDEX_OCCURRENCE_ITEM:PROC(NODE$, RETURN$);

  21309 28 001156   200100 741300       INDEX_OCCUR* STX1  ! LOOP_COUNTER+6,,AUTO

      621    21310
      622    21311    3        DCL NODE$     PTR;
      623    21312    3        DCL RETURN$   PTR;
      624    21313
      625    21314    3        DCL ST$$      PTR;
      626    21315
      627    21316
      628    21317    3        DCL Z8EU$CREATE_IDENTIFIER_FROM_ST       ENTRY(4);
      629    21318
      630    21319
      631    21320
      632    21321             %FISH(TRIAD = NODE$ -> LX_ETT_ITEM.ETT$, RTN = ST$$);

  21323 28 001157   200101 470500                    LDP0    @NODE$,,AUTO
        28 001160   000000 471500                    LDP1    0,,PR0
        28 001161   100001 236100                    LDQ     1,,PR1
        28 001162   200103 756100                    STQ     ST$$,,AUTO

  21324 28 001163   200103 471500                    LDP1    ST$$,,AUTO
        28 001164   100000 220100                    LDX0    0,,PR1
        28 001165   000751 100003                    CMPX0   489,DU
        28 001166   001176 603000 28                 TRC     s:21330

  21325 28 001167   200103 470500                    LDP0    ST$$,,AUTO
        28 001170   000001 236100                    LDQ     1,,PR0
        28 001171   200103 756100                    STQ     ST$$,,AUTO

  21326 28 001172   200103 470500                    LDP0    ST$$,,AUTO
        28 001173   000000 220100                    LDX0    0,,PR0
        28 001174   000751 100003                    CMPX0   489,DU
        28 001175   001167 602000 28                 TNC     s:21325

      633    21329
PL6.E3A0      #001=Z8EK$OPTIMAL_BRANCHES File=Z8EK.:Z8A6TSI                      SAT 08/09/97 11:56 Page:134
      634    21330    3        ST$$ = ST$$ -> SCALAR.QLT$ -> QLT.BROTHER -> QLT.SON ->

  21330 28 001176   200103 470500                    LDP0    ST$$,,AUTO
        28 001177   000007 471500                    LDP1    7,,PR0
        28 001200   100002 473500                    LDP3    2,,PR1
        28 001201   300003 474500                    LDP4    3,,PR3
        28 001202   400002 475500                    LDP5    2,,PR4
        28 001203   500004 236100                    LDQ     4,,PR5
        28 001204   200103 756100                    STQ     ST$$,,AUTO

      635    21331    3               QLT.BROTHER -> QLT.ST$;
      636    21332
      637    21333    3        CALL Z8EU$CREATE_IDENTIFIER_FROM_ST(ST$$, RETURN$);

  21333 28 001205   200102 236100                    LDQ     @RETURN$,,AUTO
        28 001206   200323 756100                    STQ     COLLATING$+2,,AUTO
        28 001207   200103 630500                    EPPR0   ST$$,,AUTO
        28 001210   200322 450500                    STP0    COLLATING$+1,,AUTO
        28 001211   200322 630500                    EPPR0   COLLATING$+1,,AUTO
        28 001212   000002 631400 29                 EPPR1   2
        28 001213   000000 701000 xent               TSX1    Z8EU$CREATE_IDENTIFIER_FROM_ST
        28 001214   000000 011000                    NOP     0

      638    21334
      639    21335    3   END INDEX_OCCURRENCE_ITEM;

  21335 28 001215   200100 221300                    LDX1  ! LOOP_COUNTER+6,,AUTO
        28 001216   000001 702211                    TSX2  ! 1,X1

      640    21336        %EJECT;
PL6.E3A0      #001=Z8EK$OPTIMAL_BRANCHES File=Z8EK.:Z8A6TSI                      SAT 08/09/97 11:56 Page:135
      641    21337    2   GEN_CMPA_WITH_OPT_CVT : PROC (LOP$, ROP$);

  21337 28 001217   200316 741300       GEN_CMPA_WI* STX1  ! COLLATING$+2,,AUTO

      642    21338
      643    21339    3     DCL LOP$ PTR;
      644    21340    3     DCL ROP$ PTR;
      645    21341    3     DCL COLLATING$ PTR;
      646    21342    4                DO;

      647    21343    4                  COLLATING$ = O1COM.CURRENT_PROC$ -> PROC_.PROC_SUPP$ ->

  21343 28 001220   000057 470400 xsym               LDP0    O1COM+47
        28 001221   000001 471500                    LDP1    1,,PR0
        28 001222   100002 236100                    LDQ     2,,PR1
        28 001223   200321 756100                    STQ     COLLATING$,,AUTO

      648    21344    4                               PROC_SUPP.COLLATING_SEQ$;
      649    21345
      650    21346    4                  IF COLLATING$ ~= ADDR(NIL)

  21346 28 001224   000000 116000 29                 CMPQ    0
        28 001225   001275 600000 28                 TZE     s:21360
        28 001226   200033 473500                    LDP3    @NODE$,,AUTO
        28 001227   300000 474500                    LDP4    0,,PR3
        28 001230   400003 235100                    LDA     3,,PR4
        28 001231   000027 115007                    CMPA    23,DL
        28 001232   001235 600000 28                 TZE     s:21346+9
        28 001233   000031 115007                    CMPA    25,DL
        28 001234   001240 601000 28                 TNZ     s:21351
        28 001235   200321 475500                    LDP5    COLLATING$,,AUTO
        28 001236   500003 234100                    SZN     3,,PR5
        28 001237   001275 605000 28                 TPL     s:21360

      651    21347    4                  AND ((NODE$ -> BINARY_OP.OP ~= %OP_EQUAL
      652    21348    4                        AND NODE$ -> BINARY_OP.OP ~= %OP_NOT_EQUAL)
      653    21349    4                        OR COLLATING$ -> ALPHABET.B.ALSO) THEN
PL6.E3A0      #001=Z8EK$OPTIMAL_BRANCHES File=Z8EK.:Z8A6TSI                      SAT 08/09/97 11:56 Page:136
      654    21350    5                    DO;

      655    21351    5                      CALL Z8AF$FORME (%CVT,

  21351 28 001240   200317 475500                    LDP5    @LOP$,,AUTO
        28 001241   500000 476500                    LDP6    0,,PR5
        28 001242   600001 637500                    EPPR7   1,,PR6
        28 001243   200325 457500                    STP7    COLLATING$+4,,AUTO
        28 001244   000001 036003                    ADLQ    1,DU
        28 001245   200324 756100                    STQ     COLLATING$+3,,AUTO
        28 001246   600001 631500                    EPPR1   1,,PR6
        28 001247   200323 451500                    STP1    COLLATING$+2,,AUTO
        28 001250   000042 236000 29                 LDQ     34
        28 001251   200322 756100                    STQ     COLLATING$+1,,AUTO
        28 001252   200322 630500                    EPPR0   COLLATING$+1,,AUTO
        28 001253   000003 631400 29                 EPPR1   3
        28 001254   000000 701000 xent               TSX1    Z8AF$FORME
        28 001255   000000 011000                    NOP     0

      656    21352    5                                       LOP$ -> LX_ETT_ITEM.ETT$,
      657    21353    5                                       COLLATING$ -> ALPHABET.TABLE_ETT$,
      658    21354    5                                       LOP$ -> LX_ETT_ITEM.ETT$);
      659    21355    5                      CALL Z8AF$FORME (%CVT,

  21355 28 001256   200320 470500                    LDP0    @ROP$,,AUTO
        28 001257   000000 471500                    LDP1    0,,PR0
        28 001260   100001 633500                    EPPR3   1,,PR1
        28 001261   200325 453500                    STP3    COLLATING$+4,,AUTO
        28 001262   200321 236100                    LDQ     COLLATING$,,AUTO
        28 001263   000001 036003                    ADLQ    1,DU
        28 001264   200324 756100                    STQ     COLLATING$+3,,AUTO
        28 001265   100001 634500                    EPPR4   1,,PR1
        28 001266   200323 454500                    STP4    COLLATING$+2,,AUTO
        28 001267   000042 236000 29                 LDQ     34
        28 001270   200322 756100                    STQ     COLLATING$+1,,AUTO
        28 001271   200322 630500                    EPPR0   COLLATING$+1,,AUTO
        28 001272   000003 631400 29                 EPPR1   3
PL6.E3A0      #001=Z8EK$OPTIMAL_BRANCHES File=Z8EK.:Z8A6TSI                      SAT 08/09/97 11:56 Page:137
        28 001273   000000 701000 xent               TSX1    Z8AF$FORME
        28 001274   000000 011000                    NOP     0

      660    21356    5                                       ROP$ -> LX_ETT_ITEM.ETT$,
      661    21357    5                                       COLLATING$ -> ALPHABET.TABLE_ETT$,
      662    21358    5                                       ROP$ -> LX_ETT_ITEM.ETT$);
      663    21359    5                    END;

      664    21360    4                  CALL Z8AF$FORME( %CMPA ,

  21360 28 001275   200317 470500                    LDP0    @LOP$,,AUTO
        28 001276   000000 471500                    LDP1    0,,PR0
        28 001277   200320 473500                    LDP3    @ROP$,,AUTO
        28 001300   300000 474500                    LDP4    0,,PR3
        28 001301   200042 635500                    EPPR5   ETT$$,,AUTO
        28 001302   200325 455500                    STP5    COLLATING$+4,,AUTO
        28 001303   400001 636500                    EPPR6   1,,PR4
        28 001304   200324 456500                    STP6    COLLATING$+3,,AUTO
        28 001305   100001 634500                    EPPR4   1,,PR1
        28 001306   200323 454500                    STP4    COLLATING$+2,,AUTO
        28 001307   000044 236000 29                 LDQ     36
        28 001310   200322 756100                    STQ     COLLATING$+1,,AUTO
        28 001311   200322 630500                    EPPR0   COLLATING$+1,,AUTO
        28 001312   000003 631400 29                 EPPR1   3
        28 001313   000000 701000 xent               TSX1    Z8AF$FORME
        28 001314   000000 011000                    NOP     0

      665    21361    4                                   LOP$ -> LX_ETT_ITEM.ETT$ ,
      666    21362    4                                   ROP$ -> LX_ETT_ITEM.ETT$ ,
      667    21363    4                                   ETT$$ );
      668    21364    4                END;

      669    21365
      670    21366    3   END GEN_CMPA_WITH_OPT_CVT;

  21366 28 001315   200316 221300                    LDX1  ! COLLATING$+2,,AUTO
        28 001316   000001 702211                    TSX2  ! 1,X1
PL6.E3A0      #001=Z8EK$OPTIMAL_BRANCHES File=Z8EK.:Z8A6TSI                      SAT 08/09/97 11:56 Page:138

      671    21367        %EJECT;
PL6.E3A0      #001=Z8EK$OPTIMAL_BRANCHES File=Z8EK.:Z8A6TSI                      SAT 08/09/97 11:56 Page:139
      672    21368
      673    21369    2   CHECK_ALL_COMPARE : PROC (LOP$, ROP$, TYPE_CFILL) ALTRET;

  21369 28 001317   200100 741300       CHECK_ALL_C* STX1  ! LOOP_COUNTER+6,,AUTO

      674    21370
      675    21371    3     DCL LOP$ PTR;
      676    21372    3     DCL ROP$ PTR;
      677    21373    3     DCL TYPE_CFILL SBIN;
      678    21374
      679    21375          %EQU MAX_BUF_LEN = 512;
      680    21376
      681    21377    3     DCL CONST_BUF CHAR(%MAX_BUF_LEN);
      682    21378
      683    21379    3     DCL BUF_LEN_ETT$    PTR;
      684    21380    3     DCL NUM_COMPARISONS SBIN;
      685    21381    3     DCL REMAINING_CHARS SBIN;
      686    21382    3     DCL LEN_STR         SBIN;
      687    21383    3     DCL LEN_LIT         SBIN;
      688    21384    3     DCL ADDR_LIT$       PTR;
      689    21385    3     DCL DIFF_LEN        UBIN;
      690    21386    3     DCL BASED_LIT       CHAR(LEN_LIT) BASED(ADDR_LIT$);
      691    21387    3     DCL I               SBIN;
      692    21388    3     DCL COLLATING$      PTR;
      693    21389        %EJECT;
PL6.E3A0      #001=Z8EK$OPTIMAL_BRANCHES File=Z8EK.:Z8A6TSI                      SAT 08/09/97 11:56 Page:140
      694    21390
      695    21391    3     COLLATING$ = O1COM.CURRENT_PROC$ -> PROC_.PROC_SUPP$ ->

  21391 28 001320   000057 470400 xsym               LDP0    O1COM+47
        28 001321   000001 471500                    LDP1    1,,PR0
        28 001322   100002 236100                    LDQ     2,,PR1
        28 001323   200314 756100                    STQ     COLLATING$,,AUTO

      696    21392    3                  PROC_SUPP.COLLATING_SEQ$;
      697    21393
      698    21394          %FISH(TRIAD = LOP$ -> LX_ETT_ITEM.ETT$, RTN = ST$$);

  21396 28 001324   200101 473500                    LDP3    @LOP$,,AUTO
        28 001325   300000 474500                    LDP4    0,,PR3
        28 001326   400001 236100                    LDQ     1,,PR4
        28 001327   200053 756100                    STQ     ST$$,,AUTO

  21397 28 001330   200053 475500                    LDP5    ST$$,,AUTO
        28 001331   500000 220100                    LDX0    0,,PR5
        28 001332   000751 100003                    CMPX0   489,DU
        28 001333   001343 603000 28                 TRC     s:21403

  21398 28 001334   200053 470500                    LDP0    ST$$,,AUTO
        28 001335   000001 236100                    LDQ     1,,PR0
        28 001336   200053 756100                    STQ     ST$$,,AUTO

  21399 28 001337   200053 470500                    LDP0    ST$$,,AUTO
        28 001340   000000 220100                    LDX0    0,,PR0
        28 001341   000751 100003                    CMPX0   489,DU
        28 001342   001334 602000 28                 TNC     s:21398

      699    21402
      700    21403    3     CALL Z8AU$LENGTH_ETT(LOP$ -> LX_ETT_ITEM.ETT$, ETT$$);

  21403 28 001343   200101 470500                    LDP0    @LOP$,,AUTO
        28 001344   000000 471500                    LDP1    0,,PR0
        28 001345   200042 633500                    EPPR3   ETT$$,,AUTO
PL6.E3A0      #001=Z8EK$OPTIMAL_BRANCHES File=Z8EK.:Z8A6TSI                      SAT 08/09/97 11:56 Page:141
        28 001346   200323 453500                    STP3    COLLATING$+2,,AUTO
        28 001347   100001 634500                    EPPR4   1,,PR1
        28 001350   200322 454500                    STP4    COLLATING$+1,,AUTO
        28 001351   200322 630500                    EPPR0   COLLATING$+1,,AUTO
        28 001352   000002 631400 29                 EPPR1   2
        28 001353   000000 701000 xent               TSX1    Z8AU$LENGTH_ETT
        28 001354   000000 011000                    NOP     0

      701    21404
      702    21405    3     IF ETT$$ = COMCOM.VALUE_1 THEN

  21405 28 001355   200042 236100                    LDQ     ETT$$,,AUTO
        28 001356   000125 116000 xsym               CMPQ    COMCOM+85
        28 001357   001513 601000 28                 TNZ     s:21448

      703    21406    3       IF COLLATING$ = ADDR(NIL)

  21406 28 001360   200314 236100                    LDQ     COLLATING$,,AUTO
        28 001361   000000 116000 29                 CMPQ    0
        28 001362   001375 600000 28                 TZE     s:21411
        28 001363   200033 470500                    LDP0    @NODE$,,AUTO
        28 001364   000000 471500                    LDP1    0,,PR0
        28 001365   100003 235100                    LDA     3,,PR1
        28 001366   000027 115007                    CMPA    23,DL
        28 001367   001372 600000 28                 TZE     s:21406+10
        28 001370   000031 115007                    CMPA    25,DL
        28 001371   001443 601000 28                 TNZ     s:21425
        28 001372   200314 473500                    LDP3    COLLATING$,,AUTO
        28 001373   300003 234100                    SZN     3,,PR3
        28 001374   001443 604000 28                 TMI     s:21425

      704    21407    3           OR ((NODE$ -> BINARY_OP.OP = %OP_EQUAL
      705    21408    3                OR NODE$ -> BINARY_OP.OP = %OP_NOT_EQUAL)
      706    21409    3                AND NOT COLLATING$ -> ALPHABET.B.ALSO) THEN
      707    21410    4         DO;

      708    21411    4           IF  ROP$ -> LX_ETT_ITEM.TYPE = %TYN
PL6.E3A0      #001=Z8EK$OPTIMAL_BRANCHES File=Z8EK.:Z8A6TSI                      SAT 08/09/97 11:56 Page:142

  21411 28 001375   200102 470500                    LDP0    @ROP$,,AUTO
        28 001376   000000 471500                    LDP1    0,,PR0
        28 001377   100004 235100                    LDA     4,,PR1
        28 001400   000016 115007                    CMPA    14,DL
        28 001401   001420 601000 28                 TNZ     s:21416
        28 001402   200053 473500                    LDP3    ST$$,,AUTO
        28 001403   300006 474500                    LDP4    6,,PR3
        28 001404   400004 220100                    LDX0    4,,PR4
        28 001405   040000 106540                    CMPC    fill='040'O
        28 001406   400004 400010                    ADSC9   4,,PR4                   cn=2,n=*X0
        28 001407   000144 000005 27                 ADSC9   COMPARISON_MATRIX+96     cn=0,n=5
        28 001410   001415 600000 28                 TZE     s:21414
        28 001411   040000 106540                    CMPC    fill='040'O
        28 001412   400004 400010                    ADSC9   4,,PR4                   cn=2,n=*X0
        28 001413   000146 000006 27                 ADSC9   COMPARISON_MATRIX+98     cn=0,n=6
        28 001414   001420 601000 28                 TNZ     s:21416

      709    21412    4           AND (ST$$ -> ST.DNT$ -> DNT.TEXT.NAME = 'SPACE'
      710    21413    4             OR ST$$ -> ST.DNT$ -> DNT.TEXT.NAME = 'SPACES') THEN
      711    21414    4             CFILL_ROP.CH = %KANJI_SPACE ;

  21414 28 001415   241000 236003                    LDQ     82432,DU
        28 001416   200056 552140                    STBQ    CFILL_ROP,'40'O,AUTO
        28 001417   001423 710000 28                 TRA     s:21417

      712    21415    4           ELSE
      713    21416    4             CFILL_ROP.CH = SUBSTR (ST$$ -> CONST.CONSTA, 0, 1);

  21416 28 001420   200053 473500                    LDP3    ST$$,,AUTO
        28 001421   300010 236100                    LDQ     8,,PR3
        28 001422   200056 552140                    STBQ    CFILL_ROP,'40'O,AUTO

      714    21417    4           CFILL_ROP.REM_CH = 0;

  21417 28 001423   000000 236003                    LDQ     0,DU
        28 001424   200056 552134                    STBQ    CFILL_ROP,'34'O,AUTO
PL6.E3A0      #001=Z8EK$OPTIMAL_BRANCHES File=Z8EK.:Z8A6TSI                      SAT 08/09/97 11:56 Page:143

      715    21418    4           CALL Z8AF$FORME(TYPE_CFILL,

  21418 28 001425   000000 471500                    LDP1    0,,PR0
        28 001426   200042 634500                    EPPR4   ETT$$,,AUTO
        28 001427   200325 454500                    STP4    COLLATING$+4,,AUTO
        28 001430   200056 635500                    EPPR5   CFILL_ROP,,AUTO
        28 001431   200324 455500                    STP5    COLLATING$+3,,AUTO
        28 001432   100001 636500                    EPPR6   1,,PR1
        28 001433   200323 456500                    STP6    COLLATING$+2,,AUTO
        28 001434   200103 236100                    LDQ     @TYPE_CFILL,,AUTO
        28 001435   200322 756100                    STQ     COLLATING$+1,,AUTO
        28 001436   200322 630500                    EPPR0   COLLATING$+1,,AUTO
        28 001437   000003 631400 29                 EPPR1   3
        28 001440   000000 701000 xent               TSX1    Z8AF$FORME
        28 001441   000000 011000                    NOP     0

      716    21419    4                           ROP$ -> LX_ETT_ITEM.ETT$,
      717    21420    4                           CFILL_ROP,
      718    21421    4                           ETT$$);
      719    21422    4         END;

  21422 28 001442   002030 710000 28                 TRA     s:21584

      720    21423    3       ELSE
      721    21424    4         DO;

      722    21425    4           CFILL_ROP.CH = COLLATING$

  21425 28 001443   200053 473500                    LDP3    ST$$,,AUTO
        28 001444   300010 236100                    LDQ     8,,PR3
        28 001445   000033 772000                    QRL     27
        28 001446   200314 474500                    LDP4    COLLATING$,,AUTO
        28 001447   400005 475500                    LDP5    5,,PR4
        28 001450   040100 100506                    MLR     fill='040'O
        28 001451   500000 000001                    ADSC9   0,Q,PR5                  cn=0,n=1
        28 001452   200056 000001                    ADSC9   CFILL_ROP,,AUTO          cn=0,n=1
PL6.E3A0      #001=Z8EK$OPTIMAL_BRANCHES File=Z8EK.:Z8A6TSI                      SAT 08/09/97 11:56 Page:144

      723    21426    4                             -> ALPHABET.TABLE$
      724    21427    4                             -> TRANS.TABLE_C (ASCBIN(
      725    21428    4                                  SUBSTR(ST$$ -> CONST.CONSTA,0,1)));
      726    21429    4           CFILL_ROP.REM_CH = 0;

  21429 28 001453   000000 236003                    LDQ     0,DU
        28 001454   200056 552134                    STBQ    CFILL_ROP,'34'O,AUTO

      727    21430
      728    21431    4           CALL Z8AF$FORME (%CVT,

  21431 28 001455   200102 471500                    LDP1    @ROP$,,AUTO
        28 001456   100000 475500                    LDP5    0,,PR1
        28 001457   500001 636500                    EPPR6   1,,PR5
        28 001460   200325 456500                    STP6    COLLATING$+4,,AUTO
        28 001461   200314 236100                    LDQ     COLLATING$,,AUTO
        28 001462   000001 036003                    ADLQ    1,DU
        28 001463   200324 756100                    STQ     COLLATING$+3,,AUTO
        28 001464   500001 637500                    EPPR7   1,,PR5
        28 001465   200323 457500                    STP7    COLLATING$+2,,AUTO
        28 001466   000042 236000 29                 LDQ     34
        28 001467   200322 756100                    STQ     COLLATING$+1,,AUTO
        28 001470   200322 630500                    EPPR0   COLLATING$+1,,AUTO
        28 001471   000003 631400 29                 EPPR1   3
        28 001472   000000 701000 xent               TSX1    Z8AF$FORME
        28 001473   000000 011000                    NOP     0

      729    21432    4                            ROP$ -> LX_ETT_ITEM.ETT$,
      730    21433    4                            COLLATING$ ->
      731    21434    4                              ALPHABET.TABLE_ETT$,
      732    21435    4                            ROP$ -> LX_ETT_ITEM.ETT$);
      733    21436
      734    21437    4           CALL Z8AF$FORME (TYPE_CFILL,

  21437 28 001474   200102 470500                    LDP0    @ROP$,,AUTO
        28 001475   000000 471500                    LDP1    0,,PR0
PL6.E3A0      #001=Z8EK$OPTIMAL_BRANCHES File=Z8EK.:Z8A6TSI                      SAT 08/09/97 11:56 Page:145
        28 001476   200042 633500                    EPPR3   ETT$$,,AUTO
        28 001477   200325 453500                    STP3    COLLATING$+4,,AUTO
        28 001500   200056 634500                    EPPR4   CFILL_ROP,,AUTO
        28 001501   200324 454500                    STP4    COLLATING$+3,,AUTO
        28 001502   100001 635500                    EPPR5   1,,PR1
        28 001503   200323 455500                    STP5    COLLATING$+2,,AUTO
        28 001504   200103 236100                    LDQ     @TYPE_CFILL,,AUTO
        28 001505   200322 756100                    STQ     COLLATING$+1,,AUTO
        28 001506   200322 630500                    EPPR0   COLLATING$+1,,AUTO
        28 001507   000003 631400 29                 EPPR1   3
        28 001510   000000 701000 xent               TSX1    Z8AF$FORME
        28 001511   000000 011000                    NOP     0

      735    21438    4                            ROP$ -> LX_ETT_ITEM.ETT$,
      736    21439    4                            CFILL_ROP,
      737    21440    4                            ETT$$);
      738    21441    4         END;

  21441 28 001512   002030 710000 28                 TRA     s:21584

      739    21442    3     ELSE
      740    21443    4       DO;

      741    21444              /*Local-opt : Determine if constant can be created for ALL "string",
      742    21445                   so that one compare can be done;  otherwise, a loop will
      743    21446                   have to be generated */
      744    21447
      745    21448    4         CALL Z8AU$LENGTH_ETT (ROP$ -> LX_ETT_ITEM.ETT$,

  21448 28 001513   200102 470500                    LDP0    @ROP$,,AUTO
        28 001514   000000 471500                    LDP1    0,,PR0
        28 001515   200304 633500                    EPPR3   BUF_LEN_ETT$,,AUTO
        28 001516   200323 453500                    STP3    COLLATING$+2,,AUTO
        28 001517   100001 634500                    EPPR4   1,,PR1
        28 001520   200322 454500                    STP4    COLLATING$+1,,AUTO
        28 001521   200322 630500                    EPPR0   COLLATING$+1,,AUTO
        28 001522   000002 631400 29                 EPPR1   2
PL6.E3A0      #001=Z8EK$OPTIMAL_BRANCHES File=Z8EK.:Z8A6TSI                      SAT 08/09/97 11:56 Page:146
        28 001523   000000 701000 xent               TSX1    Z8AU$LENGTH_ETT
        28 001524   000000 011000                    NOP     0

      746    21449    4                               BUF_LEN_ETT$);
      747    21450
      748    21451    4         IF ST$$ -> ST.ID = %CONST

  21451 28 001525   200053 470500                    LDP0    ST$$,,AUTO
        28 001526   000000 220100                    LDX0    0,,PR0
        28 001527   000767 100003                    CMPX0   503,DU
        28 001530   001672 601000 28                 TNZ     s:21507
        28 001531   200304 471500                    LDP1    BUF_LEN_ETT$,,AUTO
        28 001532   100000 221100                    LDX1    0,,PR1
        28 001533   000015 101003                    CMPX1   13,DU
        28 001534   001672 601000 28                 TNZ     s:21507
        28 001535   100001 473500                    LDP3    1,,PR1
        28 001536   300010 235100                    LDA     8,,PR3
        28 001537   001000 115007                    CMPA    512,DL
        28 001540   001672 605400 28                 TPNZ    s:21507

      749    21452    4             AND BUF_LEN_ETT$ -> ETT.ID = %TRIAD
      750    21453    4             AND BUF_LEN_ETT$ -> ETT.LOP -> CONST.CONSTI.WORD1 <= %MAX_BUF_LEN THEN
      751    21454    5           DO;

      752    21455                  /*V* Build constant for compare */
      753    21456
      754    21457    5             LEN_STR = BUF_LEN_ETT$ -> ETT.LOP -> CONST.CONSTI.WORD1;

  21457 28 001541   200307 755100                    STA     LEN_STR,,AUTO

      755    21458    5             LEN_LIT = ETT$$ -> ETT.LOP -> CONST.CONSTI.WORD1;

  21458 28 001542   200042 473500                    LDP3    ETT$$,,AUTO
        28 001543   300001 474500                    LDP4    1,,PR3
        28 001544   400010 235100                    LDA     8,,PR4
        28 001545   200310 755100                    STA     LEN_LIT,,AUTO

PL6.E3A0      #001=Z8EK$OPTIMAL_BRANCHES File=Z8EK.:Z8A6TSI                      SAT 08/09/97 11:56 Page:147
      756    21459    5             NUM_COMPARISONS = LEN_STR / LEN_LIT;

  21459 28 001546   200307 236100                    LDQ     LEN_STR,,AUTO
        28 001547   200310 506100                    DIV     LEN_LIT,,AUTO
        28 001550   200305 756100                    STQ     NUM_COMPARISONS,,AUTO

      757    21460    5             REMAINING_CHARS = MOD(LEN_STR, LEN_LIT);

  21460 28 001551   200307 236100                    LDQ     LEN_STR,,AUTO
        28 001552   200310 506100                    DIV     LEN_LIT,,AUTO
        28 001553   200306 755100                    STA     REMAINING_CHARS,,AUTO

      758    21461    5             DIFF_LEN = LEN_STR - LEN_LIT;

  21461 28 001554   200307 236100                    LDQ     LEN_STR,,AUTO
        28 001555   200310 136100                    SBLQ    LEN_LIT,,AUTO
        28 001556   200312 756100                    STQ     DIFF_LEN,,AUTO

      759    21462
      760    21463                  %GET_CONSTANT_ADDRESS (@CONSTANT = LOP$ -> LX_ETT_ITEM.ETT$ -> ETT.LOP,
      761    21464                                         @STRING = ADDR_LIT$);

  21466 28 001557   200101 475500                    LDP5    @LOP$,,AUTO
        28 001560   500000 476500                    LDP6    0,,PR5
        28 001561   600001 477500                    LDP7    1,,PR6
        28 001562   700001 470500                    LDP0    1,,PR7
        28 001563   000003 234100                    SZN     3,,PR0
        28 001564   001571 605000 28                 TPL     s:21469

  21467 28 001565   000010 471500                    LDP1    8,,PR0
        28 001566   100001 630500                    EPPR0   1,,PR1
        28 001567   200311 450500                    STP0    ADDR_LIT$,,AUTO
        28 001570   001573 710000 28                 TRA     s:21473

  21469 28 001571   000010 631500                    EPPR1   8,,PR0
        28 001572   200311 451500                    STP1    ADDR_LIT$,,AUTO

PL6.E3A0      #001=Z8EK$OPTIMAL_BRANCHES File=Z8EK.:Z8A6TSI                      SAT 08/09/97 11:56 Page:148
      762    21472
      763    21473    5             I = 0;

  21473 28 001573   200313 450100                    STZ     I,,AUTO

      764    21474    5             IF NUM_COMPARISONS > 0 THEN

  21474 28 001574   200305 235100                    LDA     NUM_COMPARISONS,,AUTO
        28 001575   001615 604400 28                 TMOZ    s:21481

      765    21475    6               DO I = 0 TO DIFF_LEN BY LEN_LIT;

  21475 28 001576   200313 450100                    STZ     I,,AUTO
        28 001577   001611 710000 28                 TRA     s:21479+3

      766    21476
      767    21477    6                 SUBSTR(CONST_BUF, I, LEN_LIT) = BASED_LIT;

  21477 28 001600   200311 470500                    LDP0    ADDR_LIT$,,AUTO
        28 001601   200310 720100                    LXL0    LEN_LIT,,AUTO
        28 001602   200313 235100                    LDA     I,,AUTO
        28 001603   040145 100540                    MLR     fill='040'O
        28 001604   000000 000010                    ADSC9   0,,PR0                   cn=0,n=*X0
        28 001605   200104 000010                    ADSC9   CONST_BUF,A,AUTO         cn=0,n=*X0

      768    21478
      769    21479    6               END;

  21479 28 001606   200310 236100                    LDQ     LEN_LIT,,AUTO
        28 001607   200313 036100                    ADLQ    I,,AUTO
        28 001610   200313 756100                    STQ     I,,AUTO
        28 001611   200312 236100                    LDQ     DIFF_LEN,,AUTO
        28 001612   001600 604000 28                 TMI     s:21477
        28 001613   200313 116100                    CMPQ    I,,AUTO
        28 001614   001600 605000 28                 TPL     s:21477

      770    21480
PL6.E3A0      #001=Z8EK$OPTIMAL_BRANCHES File=Z8EK.:Z8A6TSI                      SAT 08/09/97 11:56 Page:149
      771    21481    5             IF REMAINING_CHARS > 0 THEN

  21481 28 001615   200306 235100                    LDA     REMAINING_CHARS,,AUTO
        28 001616   001626 604400 28                 TMOZ    s:21485

      772    21482    5               SUBSTR( CONST_BUF, I, REMAINING_CHARS)

  21482 28 001617   200311 470500                    LDP0    ADDR_LIT$,,AUTO
        28 001620   000000 620005                    EAX0    0,AL
        28 001621   200306 721100                    LXL1    REMAINING_CHARS,,AUTO
        28 001622   200313 235100                    LDA     I,,AUTO
        28 001623   040145 100540                    MLR     fill='040'O
        28 001624   000000 000010                    ADSC9   0,,PR0                   cn=0,n=*X0
        28 001625   200104 000011                    ADSC9   CONST_BUF,A,AUTO         cn=0,n=*X1

      773    21483    5                   = SUBSTR(BASED_LIT, 0, REMAINING_CHARS);
      774    21484
      775    21485    5             CALL Z8AC$MAKE_TYA_CONST (CONST_BUF,

  21485 28 001626   200101 470500                    LDP0    @LOP$,,AUTO
        28 001627   000000 471500                    LDP1    0,,PR0
        28 001630   100001 633500                    EPPR3   1,,PR1
        28 001631   200325 453500                    STP3    COLLATING$+4,,AUTO
        28 001632   000046 236000 29                 LDQ     38
        28 001633   200324 756100                    STQ     COLLATING$+3,,AUTO
        28 001634   200307 631500                    EPPR1   LEN_STR,,AUTO
        28 001635   200323 451500                    STP1    COLLATING$+2,,AUTO
        28 001636   200104 634500                    EPPR4   CONST_BUF,,AUTO
        28 001637   200322 454500                    STP4    COLLATING$+1,,AUTO
        28 001640   200322 630500                    EPPR0   COLLATING$+1,,AUTO
        28 001641   000003 631400 29                 EPPR1   3
        28 001642   000000 701000 xent               TSX1    Z8AC$MAKE_TYA_CONST
        28 001643   000000 011000                    NOP     0

      776    21486    5                                       LEN_STR,
      777    21487    5                                       0,
      778    21488    5                                       LOP$ -> LX_ETT_ITEM.ETT$);
PL6.E3A0      #001=Z8EK$OPTIMAL_BRANCHES File=Z8EK.:Z8A6TSI                      SAT 08/09/97 11:56 Page:150
      779    21489    5             LOP$ -> LX_ETT_ITEM.B.ALL = FALSE;

  21489 28 001644   200101 470500                    LDP0    @LOP$,,AUTO
        28 001645   000000 471500                    LDP1    0,,PR0
        28 001646   000001 236000 29                 LDQ     1
        28 001647   100000 356100                    ANSQ    0,,PR1

      780    21490
      781    21491    5             IF TYPE_CFILL = %CFILL THEN

  21491 28 001650   200103 471500                    LDP1    @TYPE_CFILL,,AUTO
        28 001651   100000 235100                    LDA     0,,PR1
        28 001652   000025 115007                    CMPA    21,DL
        28 001653   001663 601000 28                 TNZ     s:21494

      782    21492    5               CALL GEN_CMPA_WITH_OPT_CVT (ROP$, LOP$);

  21492 28 001654   200101 236100                    LDQ     @LOP$,,AUTO
        28 001655   200320 756100                    STQ     @ROP$,,AUTO
        28 001656   200102 236100                    LDQ     @ROP$,,AUTO
        28 001657   200317 756100                    STQ     @LOP$,,AUTO
        28 001660   001217 701000 28                 TSX1    GEN_CMPA_WITH_OPT_CVT
        28 001661   000000 011000                    NOP     0
        28 001662   002030 710000 28                 TRA     s:21584

      783    21493    5             ELSE
      784    21494    5               CALL GEN_CMPA_WITH_OPT_CVT (LOP$, ROP$);

  21494 28 001663   200102 236100                    LDQ     @ROP$,,AUTO
        28 001664   200320 756100                    STQ     @ROP$,,AUTO
        28 001665   200101 236100                    LDQ     @LOP$,,AUTO
        28 001666   200317 756100                    STQ     @LOP$,,AUTO
        28 001667   001217 701000 28                 TSX1    GEN_CMPA_WITH_OPT_CVT
        28 001670   000000 011000                    NOP     0

      785    21495    5           END;

PL6.E3A0      #001=Z8EK$OPTIMAL_BRANCHES File=Z8EK.:Z8A6TSI                      SAT 08/09/97 11:56 Page:151
  21495 28 001671   002030 710000 28                 TRA     s:21584

      786    21496    4         ELSE
      787    21497    5           DO;

      788    21498                  /*V* Save data for generation of ILL loop */
      789    21499
      790    21500                  %NEW (@TEMPLATE = LX_LIST,
      791    21501                        @POINTER = RETURN$);

  21507 28 001672   000040 236000 29                 LDQ     32
        28 001673   200034 235100                    LDA     @RETURN$,,AUTO
        28 001674   200322 757100                    STAQ    COLLATING$+1,,AUTO
        28 001675   200322 630500                    EPPR0   COLLATING$+1,,AUTO
        28 001676   000002 631400 29                 EPPR1   2
        28 001677   000000 701000 xent               TSX1    Z8ED$NEW_HEAP
        28 001700   000000 011000                    NOP     0

      792    21511
      793    21512                  %INIT_LX_LIST (@POINTER = RETURN$);

  21514 28 001701   200034 470500                    LDP0    @RETURN$,,AUTO
        28 001702   000000 471500                    LDP1    0,,PR0
        28 001703   000002 220003                    LDX0    2,DU
        28 001704   100000 740100                    STX0    0,,PR1

  21515 28 001705   000000 471500                    LDP1    0,,PR0
        28 001706   000000 221003                    LDX1    0,DU
        28 001707   100000 441100                    SXL1    0,,PR1

  21516 28 001710   000000 471500                    LDP1    0,,PR0
        28 001711   000000 236000 29                 LDQ     0
        28 001712   100001 756100                    STQ     1,,PR1

  21517 28 001713   000000 471500                    LDP1    0,,PR0
        28 001714   100004 756100                    STQ     4,,PR1

PL6.E3A0      #001=Z8EK$OPTIMAL_BRANCHES File=Z8EK.:Z8A6TSI                      SAT 08/09/97 11:56 Page:152
  21518 28 001715   000000 471500                    LDP1    0,,PR0
        28 001716   100007 756100                    STQ     7,,PR1

  21519 28 001717   000000 471500                    LDP1    0,,PR0
        28 001720   100002 450100                    STZ     2,,PR1

      794    21522
      795    21523                  %NEW_COPY_LX_ITEM (@FROM$ = ROP$,
      796    21524                                     @TO$   = TEMP$);

  21529 28 001721   000040 236000 29                 LDQ     32
        28 001722   200323 756100                    STQ     COLLATING$+2,,AUTO
        28 001723   200054 631500                    EPPR1   TEMP$,,AUTO
        28 001724   200322 451500                    STP1    COLLATING$+1,,AUTO
        28 001725   200322 630500                    EPPR0   COLLATING$+1,,AUTO
        28 001726   000002 631400 29                 EPPR1   2
        28 001727   000000 701000 xent               TSX1    Z8ED$NEW_HEAP
        28 001730   000000 011000                    NOP     0

  21532 28 001731   200102 470500                    LDP0    @ROP$,,AUTO
        28 001732   000000 471500                    LDP1    0,,PR0
        28 001733   200054 473500                    LDP3    TEMP$,,AUTO
        28 001734   000100 100500                    MLR     fill='000'O
        28 001735   100000 000040                    ADSC9   0,,PR1                   cn=0,n=32
        28 001736   300000 000040                    ADSC9   0,,PR3                   cn=0,n=32

  21533 28 001737   000000 236000 29                 LDQ     0
        28 001740   200054 471500                    LDP1    TEMP$,,AUTO
        28 001741   100007 756100                    STQ     7,,PR1

      797    21536
      798    21537                  %ADD_LX_ITEM_TO_LIST_HEAD (@LIST$ = RETURN$,
      799    21538                                             @FROM$ = TEMP$);

  21540 28 001742   200034 471500                    LDP1    @RETURN$,,AUTO
        28 001743   100000 473500                    LDP3    0,,PR1
        28 001744   300004 236100                    LDQ     4,,PR3
PL6.E3A0      #001=Z8EK$OPTIMAL_BRANCHES File=Z8EK.:Z8A6TSI                      SAT 08/09/97 11:56 Page:153
        28 001745   200054 474500                    LDP4    TEMP$,,AUTO
        28 001746   400007 756100                    STQ     7,,PR4

  21541 28 001747   100000 473500                    LDP3    0,,PR1
        28 001750   200054 236100                    LDQ     TEMP$,,AUTO
        28 001751   300004 756100                    STQ     4,,PR3

  21542 28 001752   100000 473500                    LDP3    0,,PR1
        28 001753   300002 235100                    LDA     2,,PR3
        28 001754   001757 601000 28                 TNZ     s:21544

  21543 28 001755   200054 236100                    LDQ     TEMP$,,AUTO
        28 001756   300001 756100                    STQ     1,,PR3

  21544 28 001757   100000 473500                    LDP3    0,,PR1
        28 001760   300002 054100                    AOS     2,,PR3

      800    21547
      801    21548                  %NEW_COPY_LX_ITEM (@FROM$ = LOP$,
      802    21549                                     @TO$   = TEMP$);

  21554 28 001761   000040 236000 29                 LDQ     32
        28 001762   200323 756100                    STQ     COLLATING$+2,,AUTO
        28 001763   200054 633500                    EPPR3   TEMP$,,AUTO
        28 001764   200322 453500                    STP3    COLLATING$+1,,AUTO
        28 001765   200322 630500                    EPPR0   COLLATING$+1,,AUTO
        28 001766   000002 631400 29                 EPPR1   2
        28 001767   000000 701000 xent               TSX1    Z8ED$NEW_HEAP
        28 001770   000000 011000                    NOP     0

  21557 28 001771   200101 470500                    LDP0    @LOP$,,AUTO
        28 001772   000000 471500                    LDP1    0,,PR0
        28 001773   200054 473500                    LDP3    TEMP$,,AUTO
        28 001774   000100 100500                    MLR     fill='000'O
        28 001775   100000 000040                    ADSC9   0,,PR1                   cn=0,n=32
        28 001776   300000 000040                    ADSC9   0,,PR3                   cn=0,n=32

PL6.E3A0      #001=Z8EK$OPTIMAL_BRANCHES File=Z8EK.:Z8A6TSI                      SAT 08/09/97 11:56 Page:154
  21558 28 001777   000000 236000 29                 LDQ     0
        28 002000   200054 471500                    LDP1    TEMP$,,AUTO
        28 002001   100007 756100                    STQ     7,,PR1

      803    21561
      804    21562                  %ADD_LX_ITEM_TO_LIST_TAIL (@LIST$ = RETURN$,
      805    21563                                             @FROM$ = TEMP$);

  21565 28 002002   200054 471500                    LDP1    TEMP$,,AUTO
        28 002003   100007 756100                    STQ     7,,PR1

  21566 28 002004   200034 471500                    LDP1    @RETURN$,,AUTO
        28 002005   100000 473500                    LDP3    0,,PR1
        28 002006   300002 235100                    LDA     2,,PR3
        28 002007   002016 601000 28                 TNZ     s:21573

  21568 28 002010   200054 236100                    LDQ     TEMP$,,AUTO
        28 002011   300004 756100                    STQ     4,,PR3

  21569 28 002012   100000 473500                    LDP3    0,,PR1
        28 002013   200054 236100                    LDQ     TEMP$,,AUTO
        28 002014   300001 756100                    STQ     1,,PR3

  21570 28 002015   002024 710000 28                 TRA     s:21576

  21573 28 002016   300001 474500                    LDP4    1,,PR3
        28 002017   200054 236100                    LDQ     TEMP$,,AUTO
        28 002020   400007 756100                    STQ     7,,PR4

  21574 28 002021   100000 473500                    LDP3    0,,PR1
        28 002022   200054 236100                    LDQ     TEMP$,,AUTO
        28 002023   300001 756100                    STQ     1,,PR3

  21576 28 002024   100000 473500                    LDP3    0,,PR1
        28 002025   300002 054100                    AOS     2,,PR3

      806    21579
PL6.E3A0      #001=Z8EK$OPTIMAL_BRANCHES File=Z8EK.:Z8A6TSI                      SAT 08/09/97 11:56 Page:155
      807    21580    5             ALTRETURN;

  21580 28 002026   200100 221300                    LDX1  ! LOOP_COUNTER+6,,AUTO
        28 002027   000000 702211                    TSX2  ! 0,X1

      808    21581    5           END;
      809    21582    4       END;
      810    21583
      811    21584    3   END CHECK_ALL_COMPARE;

  21584 28 002030   200100 221300                    LDX1  ! LOOP_COUNTER+6,,AUTO
        28 002031   000001 702211                    TSX2  ! 1,X1

      812    21585
      813    21586        %EJECT;
PL6.E3A0      #001=Z8EK$OPTIMAL_BRANCHES File=Z8EK.:Z8A6TSI                      SAT 08/09/97 11:56 Page:156
      814    21587        /*V* Main body of GEN_COMPARISONS */
      815    21588
      816    21589    2        LOP$ = ADDR(TEMP_LOP_ITEM);

  21589 28 002032   200060 630500                    EPPR0   TEMP_LOP_ITEM,,AUTO
        28 002033   200043 450500                    STP0    LOP$,,AUTO

      817    21590    2        ROP$ = ADDR(TEMP_ROP_ITEM);

  21590 28 002034   200070 631500                    EPPR1   TEMP_ROP_ITEM,,AUTO
        28 002035   200044 451500                    STP1    ROP$,,AUTO

      818    21591    2        DB_FLAG_LOP = %FALSE;

  21591 28 002036   200035 450100                    STZ     DB_FLAG_LOP,,AUTO

      819    21592    2        DB_FLAG_ROP = %FALSE;

  21592 28 002037   200036 450100                    STZ     DB_FLAG_ROP,,AUTO

      820    21593    2        DB_REG_LOP = %FALSE;

  21593 28 002040   200037 450100                    STZ     DB_REG_LOP,,AUTO

      821    21594    2        DB_REG_ROP = %FALSE;

  21594 28 002041   200040 450100                    STZ     DB_REG_ROP,,AUTO

      822    21595    2        LOP_IS_POINTER = %FALSE;

  21595 28 002042   200045 450100                    STZ     LOP_IS_POINTER,,AUTO

      823    21596    2        ROP_IS_POINTER = %FALSE;

  21596 28 002043   200046 450100                    STZ     ROP_IS_POINTER,,AUTO

      824    21597    2        LOP_IS_TYI = %FALSE;
PL6.E3A0      #001=Z8EK$OPTIMAL_BRANCHES File=Z8EK.:Z8A6TSI                      SAT 08/09/97 11:56 Page:157

  21597 28 002044   200047 450100                    STZ     LOP_IS_TYI,,AUTO

      825    21598    2        ROP_IS_TYI = %FALSE;

  21598 28 002045   200050 450100                    STZ     ROP_IS_TYI,,AUTO

      826    21599
      827    21600    3        DO SELECT(NODE$ -> BINARY_OP.LOP$ -> LX_ITEM.ID);

  21600 28 002046   200033 473500                    LDP3    @NODE$,,AUTO
        28 002047   300000 474500                    LDP4    0,,PR3
        28 002050   400001 475500                    LDP5    1,,PR4
        28 002051   500000 236100                    LDQ     0,,PR5
        28 002052   000022 772000                    QRL     18
        28 002053   000004 116007                    CMPQ    4,DL
        28 002054   002057 602000 28                 TNC     s:21600+9
        28 002055   002062 600000 28                 TZE     s:21602
        28 002056   002430 710000 28                 TRA     s:21731
        28 002057   500000 220100                    LDX0    0,,PR5
        28 002060   002276 600000 28                 TZE     s:21670
        28 002061   002430 710000 28                 TRA     s:21731

      828    21601    3          SELECT(%LX_ETT_ITEM);

      829    21602    4            DO CASE(NODE$ -> BINARY_OP.LOP$ -> LX_ETT_ITEM.TYPE);

  21602 28 002062   500004 235100                    LDA     4,,PR5
        28 002063   000011 135007                    SBLA    9,DL
        28 002064   000013 115007                    CMPA    11,DL
        28 002065   002067 602005 28                 TNC     s:21602+5,AL
        28 002066   002207 710000 28                 TRA     s:21635
        28 002067   002102 710000 28                 TRA     s:21604
        28 002070   002102 710000 28                 TRA     s:21604
        28 002071   002207 710000 28                 TRA     s:21635
        28 002072   002207 710000 28                 TRA     s:21635
        28 002073   002207 710000 28                 TRA     s:21635
PL6.E3A0      #001=Z8EK$OPTIMAL_BRANCHES File=Z8EK.:Z8A6TSI                      SAT 08/09/97 11:56 Page:158
        28 002074   002207 710000 28                 TRA     s:21635
        28 002075   002207 710000 28                 TRA     s:21635
        28 002076   002207 710000 28                 TRA     s:21635
        28 002077   002207 710000 28                 TRA     s:21635
        28 002100   002111 710000 28                 TRA     s:21609
        28 002101   002122 710000 28                 TRA     s:21616

      830    21603    4              CASE(%TYX, %TYY);

      831    21604    4                CALL INDEX_OCCURRENCE_ITEM(NODE$ -> BINARY_OP.LOP$,

  21604 28 002102   200043 636500                    EPPR6   LOP$,,AUTO
        28 002103   200102 456500                    STP6    REM_CHARS,,AUTO
        28 002104   400001 635500                    EPPR5   1,,PR4
        28 002105   200101 455500                    STP5    LOOP_COUNTER+7,,AUTO
        28 002106   001156 701000 28                 TSX1    INDEX_OCCURRENCE_ITEM
        28 002107   000000 011000                    NOP     0
        28 002110   002440 710000 28                 TRA     s:21735

      832    21605    4                                          LOP$);
      833    21606
      834    21607    4              CASE(%TYP);

      835    21608    5                DO;

      836    21609    5                  LOP_IS_POINTER = %TRUE;

  21609 28 002111   400000 236003                    LDQ     -131072,DU
        28 002112   200045 756100                    STQ     LOP_IS_POINTER,,AUTO

      837    21610
      838    21611    5                  LOP$ -> LX_ETT_ITEM = NODE$ -> BINARY_OP.LOP$ -> LX_ETT_ITEM;

  21611 28 002113   000100 100500                    MLR     fill='000'O
        28 002114   500000 000040                    ADSC9   0,,PR5                   cn=0,n=32
        28 002115   000000 000040                    ADSC9   0,,PR0                   cn=0,n=32

PL6.E3A0      #001=Z8EK$OPTIMAL_BRANCHES File=Z8EK.:Z8A6TSI                      SAT 08/09/97 11:56 Page:159
      839    21612    5                  LOP$ -> LX_ETT_ITEM.TYPE = %TYI;

  21612 28 002116   000001 235007                    LDA     1,DL
        28 002117   200043 470500                    LDP0    LOP$,,AUTO
        28 002120   000004 755100                    STA     4,,PR0

      840    21613    5                END;

  21613 28 002121   002440 710000 28                 TRA     s:21735

      841    21614
      842    21615    4              CASE(%TYC);

      843    21616    4                CALL Z8CO$CREATE_LIBRARY_BASE(%OP_GBCD_TO_ASCII, TRANS_TABLE_ETT$);

  21616 28 002122   200031 636500                    EPPR6   TRANS_TABLE_ETT$,,AUTO
        28 002123   200323 456500                    STP6    COLLATING$+2,,AUTO
        28 002124   000050 236000 29                 LDQ     40
        28 002125   200322 756100                    STQ     COLLATING$+1,,AUTO
        28 002126   200322 630500                    EPPR0   COLLATING$+1,,AUTO
        28 002127   000002 631400 29                 EPPR1   2
        28 002130   000000 701000 xent               TSX1    Z8CO$CREATE_LIBRARY_BASE
        28 002131   000000 011000                    NOP     0

      844    21617    4                LOP$ -> LX_ETT_ITEM = NODE$ -> BINARY_OP.LOP$ -> LX_ETT_ITEM;

  21617 28 002132   200033 470500                    LDP0    @NODE$,,AUTO
        28 002133   000000 471500                    LDP1    0,,PR0
        28 002134   100001 473500                    LDP3    1,,PR1
        28 002135   200043 474500                    LDP4    LOP$,,AUTO
        28 002136   000100 100500                    MLR     fill='000'O
        28 002137   300000 000040                    ADSC9   0,,PR3                   cn=0,n=32
        28 002140   400000 000040                    ADSC9   0,,PR4                   cn=0,n=32

      845    21618    4                CALL Z8AF$FORME(%CVT,

  21618 28 002141   200043 236100                    LDQ     LOP$,,AUTO
PL6.E3A0      #001=Z8EK$OPTIMAL_BRANCHES File=Z8EK.:Z8A6TSI                      SAT 08/09/97 11:56 Page:160
        28 002142   000001 036003                    ADLQ    1,DU
        28 002143   200325 756100                    STQ     COLLATING$+4,,AUTO
        28 002144   200031 631500                    EPPR1   TRANS_TABLE_ETT$,,AUTO
        28 002145   200324 451500                    STP1    COLLATING$+3,,AUTO
        28 002146   000042 235000 29                 LDA     34
        28 002147   200322 757100                    STAQ    COLLATING$+1,,AUTO
        28 002150   200322 630500                    EPPR0   COLLATING$+1,,AUTO
        28 002151   000003 631400 29                 EPPR1   3
        28 002152   000000 701000 xent               TSX1    Z8AF$FORME
        28 002153   000000 011000                    NOP     0

      846    21619    4                                LOP$ -> LX_ETT_ITEM.ETT$,
      847    21620    4                                TRANS_TABLE_ETT$,
      848    21621    4                                LOP$ -> LX_ETT_ITEM.ETT$);
      849    21622                    %FISH(TRIAD = NODE$ -> BINARY_OP.LOP$ -> LX_ETT_ITEM.ETT$, RTN = ST$$);

  21624 28 002154   200033 470500                    LDP0    @NODE$,,AUTO
        28 002155   000000 471500                    LDP1    0,,PR0
        28 002156   100001 473500                    LDP3    1,,PR1
        28 002157   300001 236100                    LDQ     1,,PR3
        28 002160   200053 756100                    STQ     ST$$,,AUTO

  21625 28 002161   200053 474500                    LDP4    ST$$,,AUTO
        28 002162   400000 220100                    LDX0    0,,PR4
        28 002163   000751 100003                    CMPX0   489,DU
        28 002164   002174 603000 28                 TRC     s:21630

  21626 28 002165   200053 470500                    LDP0    ST$$,,AUTO
        28 002166   000001 236100                    LDQ     1,,PR0
        28 002167   200053 756100                    STQ     ST$$,,AUTO

  21627 28 002170   200053 470500                    LDP0    ST$$,,AUTO
        28 002171   000000 220100                    LDX0    0,,PR0
        28 002172   000751 100003                    CMPX0   489,DU
        28 002173   002165 602000 28                 TNC     s:21626

      850    21630    4                IF ST$$ -> VARIABLE.NDSC.TN = %NDSC4 /* Overpunched */
PL6.E3A0      #001=Z8EK$OPTIMAL_BRANCHES File=Z8EK.:Z8A6TSI                      SAT 08/09/97 11:56 Page:161

  21630 28 002174   200053 470500                    LDP0    ST$$,,AUTO
        28 002175   000001 236100                    LDQ     1,,PR0
        28 002176   040000 316007                    CANQ    16384,DL
        28 002177   002204 600000 28                 TZE     s:21632

      851    21631    4                  THEN LOP$ -> LX_ETT_ITEM.TYPE = %TYO;

  21631 28 002200   000003 235007                    LDA     3,DL
        28 002201   200043 471500                    LDP1    LOP$,,AUTO
        28 002202   100004 755100                    STA     4,,PR1
        28 002203   002440 710000 28                 TRA     s:21735

      852    21632    4                  ELSE LOP$ -> LX_ETT_ITEM.TYPE = %TYD;

  21632 28 002204   200043 471500                    LDP1    LOP$,,AUTO
        28 002205   100004 450100                    STZ     4,,PR1
        28 002206   002440 710000 28                 TRA     s:21735

      853    21633
      854    21634    4              CASE(ELSE);

      855    21635    4                LOP$ -> LX_ETT_ITEM = NODE$ -> BINARY_OP.LOP$ -> LX_ETT_ITEM;

  21635 28 002207   000100 100500                    MLR     fill='000'O
        28 002210   500000 000040                    ADSC9   0,,PR5                   cn=0,n=32
        28 002211   000000 000040                    ADSC9   0,,PR0                   cn=0,n=32

      856    21636
      857    21637    4                IF LOP$ -> LX_ETT_ITEM.TYPE = %TYI   THEN

  21637 28 002212   200043 470500                    LDP0    LOP$,,AUTO
        28 002213   000004 235100                    LDA     4,,PR0
        28 002214   000001 115007                    CMPA    1,DL
        28 002215   002247 601000 28                 TNZ     s:21652

      858    21638    5                  DO;
PL6.E3A0      #001=Z8EK$OPTIMAL_BRANCHES File=Z8EK.:Z8A6TSI                      SAT 08/09/97 11:56 Page:162

      859    21639                         %FISH(TRIAD = LOP$ -> LX_ETT_ITEM.ETT$, RTN = ST$$);

  21641 28 002216   000001 236100                    LDQ     1,,PR0
        28 002217   200053 756100                    STQ     ST$$,,AUTO

  21642 28 002220   200053 471500                    LDP1    ST$$,,AUTO
        28 002221   100000 220100                    LDX0    0,,PR1
        28 002222   000751 100003                    CMPX0   489,DU
        28 002223   002233 603000 28                 TRC     s:21647

  21643 28 002224   200053 470500                    LDP0    ST$$,,AUTO
        28 002225   000001 236100                    LDQ     1,,PR0
        28 002226   200053 756100                    STQ     ST$$,,AUTO

  21644 28 002227   200053 470500                    LDP0    ST$$,,AUTO
        28 002230   000000 220100                    LDX0    0,,PR0
        28 002231   000751 100003                    CMPX0   489,DU
        28 002232   002224 602000 28                 TNC     s:21643

      860    21647    5                    LOP_IS_TYI = %TRUE;

  21647 28 002233   400000 236003                    LDQ     -131072,DU
        28 002234   200047 756100                    STQ     LOP_IS_TYI,,AUTO

      861    21648    5                    IF ST$$ -> SCALAR.B.DML_TYPE = %DATA_BASE_KEY   OR

  21648 28 002235   200053 470500                    LDP0    ST$$,,AUTO
        28 002236   000003 236100                    LDQ     3,,PR0
        28 002237   160000 376007                    ANQ     57344,DL
        28 002240   040000 116007                    CMPQ    16384,DL
        28 002241   002244 600000 28                 TZE     s:21650
        28 002242   120000 116007                    CMPQ    40960,DL
        28 002243   002440 601000 28                 TNZ     s:21735

      862    21649    5                       ST$$ -> SCALAR.B.DML_TYPE = %DIRECT_REFERENCE  THEN
      863    21650    5                        DB_FLAG_LOP = %TRUE;
PL6.E3A0      #001=Z8EK$OPTIMAL_BRANCHES File=Z8EK.:Z8A6TSI                      SAT 08/09/97 11:56 Page:163

  21650 28 002244   400000 236003                    LDQ     -131072,DU
        28 002245   200035 756100                    STQ     DB_FLAG_LOP,,AUTO

      864    21651    5                  END;

  21651 28 002246   002440 710000 28                 TRA     s:21735

      865    21652    4                ELSE IF LOP$ -> LX_ETT_ITEM.TYPE = %TYA THEN

  21652 28 002247   000010 115007                    CMPA    8,DL
        28 002250   002440 601000 28                 TNZ     s:21735

      866    21653    5                  DO;

      867    21654                         %FISH(TRIAD = LOP$ -> LX_ETT_ITEM.ETT$, RTN = ST$$);

  21656 28 002251   000001 236100                    LDQ     1,,PR0
        28 002252   200053 756100                    STQ     ST$$,,AUTO

  21657 28 002253   200053 471500                    LDP1    ST$$,,AUTO
        28 002254   100000 220100                    LDX0    0,,PR1
        28 002255   000751 100003                    CMPX0   489,DU
        28 002256   002266 603000 28                 TRC     s:21662

  21658 28 002257   200053 470500                    LDP0    ST$$,,AUTO
        28 002260   000001 236100                    LDQ     1,,PR0
        28 002261   200053 756100                    STQ     ST$$,,AUTO

  21659 28 002262   200053 470500                    LDP0    ST$$,,AUTO
        28 002263   000000 220100                    LDX0    0,,PR0
        28 002264   000751 100003                    CMPX0   489,DU
        28 002265   002257 602000 28                 TNC     s:21658

      868    21662    5                    IF ST$$ -> VARIABLE.B.DML_TYPE = %DML_REG THEN

  21662 28 002266   200053 470500                    LDP0    ST$$,,AUTO
PL6.E3A0      #001=Z8EK$OPTIMAL_BRANCHES File=Z8EK.:Z8A6TSI                      SAT 08/09/97 11:56 Page:164
        28 002267   000003 236100                    LDQ     3,,PR0
        28 002270   160000 376007                    ANQ     57344,DL
        28 002271   100000 116007                    CMPQ    32768,DL
        28 002272   002440 601000 28                 TNZ     s:21735

      869    21663    5                      DB_REG_LOP = %TRUE;

  21663 28 002273   400000 236003                    LDQ     -131072,DU
        28 002274   200037 756100                    STQ     DB_REG_LOP,,AUTO

      870    21664    5                  END;

      871    21665
      872    21666    4            END /*V* Case */;

  21666 28 002275   002440 710000 28                 TRA     s:21735

      873    21667
      874    21668    3          SELECT(%LX_TERMINAL);

      875    21669    4            DO;

      876    21670    4              IF NODE$ -> BINARY_OP.ROP$ -> LX_ITEM.TYPE = %TYN THEN

  21670 28 002276   400002 476500                    LDP6    2,,PR4
        28 002277   600004 235100                    LDA     4,,PR6
        28 002300   000016 115007                    CMPA    14,DL
        28 002301   002305 601000 28                 TNZ     s:21673

      877    21671    4                CONTEXT = %CONTEXT_KANJI;

  21671 28 002302   000003 235007                    LDA     3,DL
        28 002303   200055 755100                    STA     CONTEXT,,AUTO
        28 002304   002306 710000 28                 TRA     s:21674

      878    21672    4              ELSE
      879    21673    4                CONTEXT = %CONTEXT_NUMERIC;
PL6.E3A0      #001=Z8EK$OPTIMAL_BRANCHES File=Z8EK.:Z8A6TSI                      SAT 08/09/97 11:56 Page:165

  21673 28 002305   200055 450100                    STZ     CONTEXT,,AUTO

      880    21674    4              CALL Z8EV$LEAST_STRONGEST_TYPE(NODE$ -> BINARY_OP.LOP$,

  21674 28 002306   300000 474500                    LDP4    0,,PR3
        28 002307   200043 635500                    EPPR5   LOP$,,AUTO
        28 002310   200324 455500                    STP5    COLLATING$+3,,AUTO
        28 002311   200055 636500                    EPPR6   CONTEXT,,AUTO
        28 002312   200323 456500                    STP6    COLLATING$+2,,AUTO
        28 002313   400001 637500                    EPPR7   1,,PR4
        28 002314   200322 457500                    STP7    COLLATING$+1,,AUTO
        28 002315   200322 630500                    EPPR0   COLLATING$+1,,AUTO
        28 002316   000036 631400 29                 EPPR1   30
        28 002317   000000 701000 xent               TSX1    Z8EV$LEAST_STRONGEST_TYPE
        28 002320   000000 011000                    NOP     0

      881    21675    4                                             CONTEXT,
      882    21676    4                                             LOP$);
      883    21677
      884    21678    4              IF NODE$ -> BINARY_OP.LOP$ -> LX_TERMINAL.SYMBOL = %RSV_WRD_NULL THEN

  21678 28 002321   200033 470500                    LDP0    @NODE$,,AUTO
        28 002322   000000 471500                    LDP1    0,,PR0
        28 002323   100001 473500                    LDP3    1,,PR1
        28 002324   300003 235100                    LDA     3,,PR3
        28 002325   000463 115007                    CMPA    307,DL
        28 002326   002374 601000 28                 TNZ     s:21713

      885    21679    5                DO;

      886    21680    5                  IF NODE$ ->BINARY_OP.ROP$ -> LX_ITEM.ID = %LX_ETT_ITEM AND

  21680 28 002327   100002 474500                    LDP4    2,,PR1
        28 002330   400000 220100                    LDX0    0,,PR4
        28 002331   000004 100003                    CMPX0   4,DU
        28 002332   002371 601000 28                 TNZ     s:21710
PL6.E3A0      #001=Z8EK$OPTIMAL_BRANCHES File=Z8EK.:Z8A6TSI                      SAT 08/09/97 11:56 Page:166
        28 002333   400004 235100                    LDA     4,,PR4
        28 002334   000022 115007                    CMPA    18,DL
        28 002335   002371 601000 28                 TNZ     s:21710

      887    21681    5                     NODE$ ->BINARY_OP.ROP$ -> LX_ETT_ITEM.TYPE = %TYP THEN
      888    21682    6                    DO;

      889    21683                           %INIT_LX_ETT_ITEM (@POINTER = LOP$,
      890    21684                                              @TYPE = %TYI,
      891    21685                                              @ETT$ = COMCOM.NULL_PTR$);

  21687 28 002336   000004 221003                    LDX1    4,DU
        28 002337   200043 475500                    LDP5    LOP$,,AUTO
        28 002340   500000 741100                    STX1    0,,PR5

  21688 28 002341   000000 220003                    LDX0    0,DU
        28 002342   200043 471500                    LDP1    LOP$,,AUTO
        28 002343   100000 440100                    SXL0    0,,PR1

  21689 28 002344   000001 235007                    LDA     1,DL
        28 002345   200043 471500                    LDP1    LOP$,,AUTO
        28 002346   100004 755100                    STA     4,,PR1

  21690 28 002347   000000 236000 29                 LDQ     0
        28 002350   200043 471500                    LDP1    LOP$,,AUTO
        28 002351   100007 756100                    STQ     7,,PR1

  21691 28 002352   000556 236000 xsym               LDQ     COMCOM+366
        28 002353   200043 471500                    LDP1    LOP$,,AUTO
        28 002354   100001 756100                    STQ     1,,PR1

  21692 28 002355   000000 236000 29                 LDQ     0
        28 002356   200043 471500                    LDP1    LOP$,,AUTO
        28 002357   100002 756100                    STQ     2,,PR1

  21694 28 002360   000133 235000 xsym               LDA     COMCOM+91
        28 002361   200043 471500                    LDP1    LOP$,,AUTO
PL6.E3A0      #001=Z8EK$OPTIMAL_BRANCHES File=Z8EK.:Z8A6TSI                      SAT 08/09/97 11:56 Page:167
        28 002362   100005 755100                    STA     5,,PR1

  21695 28 002363   000134 235000 xsym               LDA     COMCOM+92
        28 002364   200043 471500                    LDP1    LOP$,,AUTO
        28 002365   100006 755100                    STA     6,,PR1

      892    21707    6                      LOP_IS_POINTER = %TRUE;

  21707 28 002366   400000 236003                    LDQ     -131072,DU
        28 002367   200045 756100                    STQ     LOP_IS_POINTER,,AUTO

      893    21708    6                    END;

  21708 28 002370   002440 710000 28                 TRA     s:21735

      894    21709    5                  ELSE
      895    21710    5                    DB_FLAG_LOP = %TRUE;

  21710 28 002371   400000 236003                    LDQ     -131072,DU
        28 002372   200035 756100                    STQ     DB_FLAG_LOP,,AUTO

      896    21711    5                END;

  21711 28 002373   002440 710000 28                 TRA     s:21735

      897    21712    4              ELSE
      898    21713    5                DO CASE (LOP$ -> LX_ETT_ITEM.TYPE);

  21713 28 002374   200043 474500                    LDP4    LOP$,,AUTO
        28 002375   400004 235100                    LDA     4,,PR4
        28 002376   000002 115007                    CMPA    2,DL
        28 002377   002401 602005 28                 TNC     s:21713+5,AL
        28 002400   002440 710000 28                 TRA     s:21735
        28 002401   002403 710000 28                 TRA     s:21715
        28 002402   002425 710000 28                 TRA     s:21725

      899    21714    5                  CASE (%TYD);
PL6.E3A0      #001=Z8EK$OPTIMAL_BRANCHES File=Z8EK.:Z8A6TSI                      SAT 08/09/97 11:56 Page:168

      900    21715    5                    IF COMCOM.COMMA_DECIMAL_PRESENT

  21715 28 002403   000471 234000 xsym               SZN     COMCOM+313
        28 002404   002410 605000 28                 TPL     s:21717

      901    21716    5                      THEN DEC_PT = ',';

  21716 28 002405   054000 236003                    LDQ     22528,DU
        28 002406   200052 756100                    STQ     DEC_PT,,AUTO
        28 002407   002412 710000 28                 TRA     s:21719

      902    21717    5                      ELSE DEC_PT = '.';

  21717 28 002410   056000 236003                    LDQ     23552,DU
        28 002411   200052 756100                    STQ     DEC_PT,,AUTO

      903    21718
      904    21719    5                    CALL INDEX (TEMP_SBIN, DEC_PT, NODE$ -> BINARY_OP.LOP$ ->
             21719                             LX_TERMINAL.DNT$ -> DNT.TEXT.NAME)

  21719 28 002412   300002 475500                    LDP5    2,,PR3
        28 002413   500004 220100                    LDX0    4,,PR5
        28 002414   000100 124540                    SCM     mask='000'O
        28 002415   500004 400010                    ADSC9   4,,PR5                   cn=2,n=*X0
        28 002416   200052 000001                    ADSC9   DEC_PT,,AUTO             cn=0,n=1
        28 002417   200051 000100                    ARG     TEMP_SBIN,,AUTO
        28 002420   002422 606400 28                 TTN     s:21721
        28 002421   002424 710000 28                 TRA     s:21722

      905    21720    6                      WHENALTRETURN DO; /* No decimal point present */

      906    21721    6                        LOP_IS_TYI = %TRUE;

  21721 28 002422   400000 236003                    LDQ     -131072,DU
        28 002423   200047 756100                    STQ     LOP_IS_TYI,,AUTO

PL6.E3A0      #001=Z8EK$OPTIMAL_BRANCHES File=Z8EK.:Z8A6TSI                      SAT 08/09/97 11:56 Page:169
      907    21722    6                      END;

  21722 28 002424   002440 710000 28                 TRA     s:21735

      908    21723
      909    21724    5                  CASE (%TYI);

      910    21725    5                    LOP_IS_TYI = %TRUE;

  21725 28 002425   400000 236003                    LDQ     -131072,DU
        28 002426   200047 756100                    STQ     LOP_IS_TYI,,AUTO

      911    21726
      912    21727    5                END;

      913    21728    4            END;

  21728 28 002427   002440 710000 28                 TRA     s:21735

      914    21729
      915    21730    3          SELECT(ELSE);

      916    21731    3            CALL Z8E5$MATH_PACK(NODE$ -> BINARY_OP.LOP$, LOP$);

  21731 28 002430   200043 636500                    EPPR6   LOP$,,AUTO
        28 002431   200323 456500                    STP6    COLLATING$+2,,AUTO
        28 002432   400001 635500                    EPPR5   1,,PR4
        28 002433   200322 455500                    STP5    COLLATING$+1,,AUTO
        28 002434   200322 630500                    EPPR0   COLLATING$+1,,AUTO
        28 002435   000002 631400 29                 EPPR1   2
        28 002436   000000 701000 xent               TSX1    Z8E5$MATH_PACK
        28 002437   000000 011000                    NOP     0

      917    21732
      918    21733    3        END /*V* Case */;

      919    21734
PL6.E3A0      #001=Z8EK$OPTIMAL_BRANCHES File=Z8EK.:Z8A6TSI                      SAT 08/09/97 11:56 Page:170
      920    21735    3        DO SELECT(NODE$ -> BINARY_OP.ROP$ -> LX_ITEM.ID);

  21735 28 002440   200033 470500                    LDP0    @NODE$,,AUTO
        28 002441   000000 471500                    LDP1    0,,PR0
        28 002442   100002 473500                    LDP3    2,,PR1
        28 002443   300000 236100                    LDQ     0,,PR3
        28 002444   000022 772000                    QRL     18
        28 002445   000004 116007                    CMPQ    4,DL
        28 002446   002451 602000 28                 TNC     s:21735+9
        28 002447   002454 600000 28                 TZE     s:21737
        28 002450   003017 710000 28                 TRA     s:21865
        28 002451   300000 220100                    LDX0    0,,PR3
        28 002452   002672 600000 28                 TZE     s:21806
        28 002453   003017 710000 28                 TRA     s:21865

      921    21736    3          SELECT(%LX_ETT_ITEM);

      922    21737    4            DO CASE(NODE$ -> BINARY_OP.ROP$ -> LX_ETT_ITEM.TYPE);

  21737 28 002454   300004 235100                    LDA     4,,PR3
        28 002455   000011 135007                    SBLA    9,DL
        28 002456   000013 115007                    CMPA    11,DL
        28 002457   002461 602005 28                 TNC     s:21737+5,AL
        28 002460   002602 710000 28                 TRA     s:21770
        28 002461   002474 710000 28                 TRA     s:21739
        28 002462   002474 710000 28                 TRA     s:21739
        28 002463   002602 710000 28                 TRA     s:21770
        28 002464   002602 710000 28                 TRA     s:21770
        28 002465   002602 710000 28                 TRA     s:21770
        28 002466   002602 710000 28                 TRA     s:21770
        28 002467   002602 710000 28                 TRA     s:21770
        28 002470   002602 710000 28                 TRA     s:21770
        28 002471   002602 710000 28                 TRA     s:21770
        28 002472   002503 710000 28                 TRA     s:21744
        28 002473   002515 710000 28                 TRA     s:21751

      923    21738    4              CASE(%TYX, %TYY);
PL6.E3A0      #001=Z8EK$OPTIMAL_BRANCHES File=Z8EK.:Z8A6TSI                      SAT 08/09/97 11:56 Page:171

      924    21739    4                CALL INDEX_OCCURRENCE_ITEM(NODE$ -> BINARY_OP.ROP$,

  21739 28 002474   200044 634500                    EPPR4   ROP$,,AUTO
        28 002475   200102 454500                    STP4    REM_CHARS,,AUTO
        28 002476   100002 633500                    EPPR3   2,,PR1
        28 002477   200101 453500                    STP3    LOOP_COUNTER+7,,AUTO
        28 002500   001156 701000 28                 TSX1    INDEX_OCCURRENCE_ITEM
        28 002501   000000 011000                    NOP     0
        28 002502   003027 710000 28                 TRA     s:21872

      925    21740    4                                          ROP$);
      926    21741
      927    21742    4              CASE(%TYP);

      928    21743    5                DO;

      929    21744    5                  ROP_IS_POINTER = %TRUE;

  21744 28 002503   400000 236003                    LDQ     -131072,DU
        28 002504   200046 756100                    STQ     ROP_IS_POINTER,,AUTO

      930    21745
      931    21746    5                  ROP$ -> LX_ETT_ITEM = NODE$ -> BINARY_OP.ROP$ -> LX_ETT_ITEM;

  21746 28 002505   200044 474500                    LDP4    ROP$,,AUTO
        28 002506   000100 100500                    MLR     fill='000'O
        28 002507   300000 000040                    ADSC9   0,,PR3                   cn=0,n=32
        28 002510   400000 000040                    ADSC9   0,,PR4                   cn=0,n=32

      932    21747    5                  ROP$ -> LX_ETT_ITEM.TYPE = %TYI;

  21747 28 002511   000001 235007                    LDA     1,DL
        28 002512   200044 471500                    LDP1    ROP$,,AUTO
        28 002513   100004 755100                    STA     4,,PR1

      933    21748    5                END;
PL6.E3A0      #001=Z8EK$OPTIMAL_BRANCHES File=Z8EK.:Z8A6TSI                      SAT 08/09/97 11:56 Page:172

  21748 28 002514   003027 710000 28                 TRA     s:21872

      934    21749
      935    21750    4              CASE(%TYC);

      936    21751    4                CALL Z8CO$CREATE_LIBRARY_BASE(%OP_GBCD_TO_ASCII, TRANS_TABLE_ETT$);

  21751 28 002515   200031 634500                    EPPR4   TRANS_TABLE_ETT$,,AUTO
        28 002516   200323 454500                    STP4    COLLATING$+2,,AUTO
        28 002517   000050 236000 29                 LDQ     40
        28 002520   200322 756100                    STQ     COLLATING$+1,,AUTO
        28 002521   200322 630500                    EPPR0   COLLATING$+1,,AUTO
        28 002522   000002 631400 29                 EPPR1   2
        28 002523   000000 701000 xent               TSX1    Z8CO$CREATE_LIBRARY_BASE
        28 002524   000000 011000                    NOP     0

      937    21752    4                ROP$ -> LX_ETT_ITEM = NODE$ -> BINARY_OP.ROP$ -> LX_ETT_ITEM;

  21752 28 002525   200033 470500                    LDP0    @NODE$,,AUTO
        28 002526   000000 471500                    LDP1    0,,PR0
        28 002527   100002 473500                    LDP3    2,,PR1
        28 002530   200044 474500                    LDP4    ROP$,,AUTO
        28 002531   000100 100500                    MLR     fill='000'O
        28 002532   300000 000040                    ADSC9   0,,PR3                   cn=0,n=32
        28 002533   400000 000040                    ADSC9   0,,PR4                   cn=0,n=32

      938    21753    4                CALL Z8AF$FORME(%CVT,

  21753 28 002534   200044 236100                    LDQ     ROP$,,AUTO
        28 002535   000001 036003                    ADLQ    1,DU
        28 002536   200325 756100                    STQ     COLLATING$+4,,AUTO
        28 002537   200031 631500                    EPPR1   TRANS_TABLE_ETT$,,AUTO
        28 002540   200324 451500                    STP1    COLLATING$+3,,AUTO
        28 002541   000042 235000 29                 LDA     34
        28 002542   200322 757100                    STAQ    COLLATING$+1,,AUTO
        28 002543   200322 630500                    EPPR0   COLLATING$+1,,AUTO
PL6.E3A0      #001=Z8EK$OPTIMAL_BRANCHES File=Z8EK.:Z8A6TSI                      SAT 08/09/97 11:56 Page:173
        28 002544   000003 631400 29                 EPPR1   3
        28 002545   000000 701000 xent               TSX1    Z8AF$FORME
        28 002546   000000 011000                    NOP     0

      939    21754    4                                ROP$ -> LX_ETT_ITEM.ETT$,
      940    21755    4                                TRANS_TABLE_ETT$,
      941    21756    4                                ROP$ -> LX_ETT_ITEM.ETT$);
      942    21757                    %FISH(TRIAD = NODE$ -> BINARY_OP.ROP$ -> LX_ETT_ITEM.ETT$, RTN = ST$$);

  21759 28 002547   200033 470500                    LDP0    @NODE$,,AUTO
        28 002550   000000 471500                    LDP1    0,,PR0
        28 002551   100002 473500                    LDP3    2,,PR1
        28 002552   300001 236100                    LDQ     1,,PR3
        28 002553   200053 756100                    STQ     ST$$,,AUTO

  21760 28 002554   200053 474500                    LDP4    ST$$,,AUTO
        28 002555   400000 220100                    LDX0    0,,PR4
        28 002556   000751 100003                    CMPX0   489,DU
        28 002557   002567 603000 28                 TRC     s:21765

  21761 28 002560   200053 470500                    LDP0    ST$$,,AUTO
        28 002561   000001 236100                    LDQ     1,,PR0
        28 002562   200053 756100                    STQ     ST$$,,AUTO

  21762 28 002563   200053 470500                    LDP0    ST$$,,AUTO
        28 002564   000000 220100                    LDX0    0,,PR0
        28 002565   000751 100003                    CMPX0   489,DU
        28 002566   002560 602000 28                 TNC     s:21761

      943    21765    4                IF ST$$ -> VARIABLE.NDSC.TN = %NDSC4 /* Overpunched */

  21765 28 002567   200053 470500                    LDP0    ST$$,,AUTO
        28 002570   000001 236100                    LDQ     1,,PR0
        28 002571   040000 316007                    CANQ    16384,DL
        28 002572   002577 600000 28                 TZE     s:21767

      944    21766    4                  THEN ROP$ -> LX_ETT_ITEM.TYPE = %TYO;
PL6.E3A0      #001=Z8EK$OPTIMAL_BRANCHES File=Z8EK.:Z8A6TSI                      SAT 08/09/97 11:56 Page:174

  21766 28 002573   000003 235007                    LDA     3,DL
        28 002574   200044 471500                    LDP1    ROP$,,AUTO
        28 002575   100004 755100                    STA     4,,PR1
        28 002576   003027 710000 28                 TRA     s:21872

      945    21767    4                  ELSE ROP$ -> LX_ETT_ITEM.TYPE = %TYD;

  21767 28 002577   200044 471500                    LDP1    ROP$,,AUTO
        28 002600   100004 450100                    STZ     4,,PR1
        28 002601   003027 710000 28                 TRA     s:21872

      946    21768
      947    21769    4              CASE(ELSE);

      948    21770    4                ROP$ -> LX_ETT_ITEM = NODE$ -> BINARY_OP.ROP$ -> LX_ETT_ITEM;

  21770 28 002602   200044 474500                    LDP4    ROP$,,AUTO
        28 002603   000100 100500                    MLR     fill='000'O
        28 002604   300000 000040                    ADSC9   0,,PR3                   cn=0,n=32
        28 002605   400000 000040                    ADSC9   0,,PR4                   cn=0,n=32

      949    21771
      950    21772    4                IF ROP$ -> LX_ETT_ITEM.TYPE = %TYI     THEN

  21772 28 002606   200044 471500                    LDP1    ROP$,,AUTO
        28 002607   100004 235100                    LDA     4,,PR1
        28 002610   000001 115007                    CMPA    1,DL
        28 002611   002643 601000 28                 TNZ     s:21787

      951    21773    5                  DO;

      952    21774                         %FISH(TRIAD = ROP$ -> LX_ETT_ITEM.ETT$, RTN = ST$$);

  21776 28 002612   100001 236100                    LDQ     1,,PR1
        28 002613   200053 756100                    STQ     ST$$,,AUTO

PL6.E3A0      #001=Z8EK$OPTIMAL_BRANCHES File=Z8EK.:Z8A6TSI                      SAT 08/09/97 11:56 Page:175
  21777 28 002614   200053 473500                    LDP3    ST$$,,AUTO
        28 002615   300000 220100                    LDX0    0,,PR3
        28 002616   000751 100003                    CMPX0   489,DU
        28 002617   002627 603000 28                 TRC     s:21782

  21778 28 002620   200053 470500                    LDP0    ST$$,,AUTO
        28 002621   000001 236100                    LDQ     1,,PR0
        28 002622   200053 756100                    STQ     ST$$,,AUTO

  21779 28 002623   200053 470500                    LDP0    ST$$,,AUTO
        28 002624   000000 220100                    LDX0    0,,PR0
        28 002625   000751 100003                    CMPX0   489,DU
        28 002626   002620 602000 28                 TNC     s:21778

      953    21782    5                    ROP_IS_TYI = %TRUE;

  21782 28 002627   400000 236003                    LDQ     -131072,DU
        28 002630   200050 756100                    STQ     ROP_IS_TYI,,AUTO

      954    21783    5                    IF ST$$ -> SCALAR.B.DML_TYPE = %DATA_BASE_KEY    OR

  21783 28 002631   200053 470500                    LDP0    ST$$,,AUTO
        28 002632   000003 236100                    LDQ     3,,PR0
        28 002633   160000 376007                    ANQ     57344,DL
        28 002634   040000 116007                    CMPQ    16384,DL
        28 002635   002640 600000 28                 TZE     s:21785
        28 002636   120000 116007                    CMPQ    40960,DL
        28 002637   003027 601000 28                 TNZ     s:21872

      955    21784    5                       ST$$ -> SCALAR.B.DML_TYPE = %DIRECT_REFERENCE  THEN
      956    21785    5                      DB_FLAG_ROP = %TRUE;

  21785 28 002640   400000 236003                    LDQ     -131072,DU
        28 002641   200036 756100                    STQ     DB_FLAG_ROP,,AUTO

      957    21786    5                  END;

PL6.E3A0      #001=Z8EK$OPTIMAL_BRANCHES File=Z8EK.:Z8A6TSI                      SAT 08/09/97 11:56 Page:176
  21786 28 002642   003027 710000 28                 TRA     s:21872

      958    21787    4                ELSE IF ROP$ -> LX_ETT_ITEM.TYPE = %TYA THEN

  21787 28 002643   000010 115007                    CMPA    8,DL
        28 002644   003027 601000 28                 TNZ     s:21872

      959    21788    5                  DO;

      960    21789                         %FISH(TRIAD = ROP$ -> LX_ETT_ITEM.ETT$, RTN = ST$$);

  21791 28 002645   100001 236100                    LDQ     1,,PR1
        28 002646   200053 756100                    STQ     ST$$,,AUTO

  21792 28 002647   200053 473500                    LDP3    ST$$,,AUTO
        28 002650   300000 220100                    LDX0    0,,PR3
        28 002651   000751 100003                    CMPX0   489,DU
        28 002652   002662 603000 28                 TRC     s:21797

  21793 28 002653   200053 470500                    LDP0    ST$$,,AUTO
        28 002654   000001 236100                    LDQ     1,,PR0
        28 002655   200053 756100                    STQ     ST$$,,AUTO

  21794 28 002656   200053 470500                    LDP0    ST$$,,AUTO
        28 002657   000000 220100                    LDX0    0,,PR0
        28 002660   000751 100003                    CMPX0   489,DU
        28 002661   002653 602000 28                 TNC     s:21793

      961    21797    5                    IF ST$$ -> VARIABLE.B.DML_TYPE = %DML_REG THEN

  21797 28 002662   200053 470500                    LDP0    ST$$,,AUTO
        28 002663   000003 236100                    LDQ     3,,PR0
        28 002664   160000 376007                    ANQ     57344,DL
        28 002665   100000 116007                    CMPQ    32768,DL
        28 002666   003027 601000 28                 TNZ     s:21872

      962    21798    5                      DB_REG_ROP = %TRUE;
PL6.E3A0      #001=Z8EK$OPTIMAL_BRANCHES File=Z8EK.:Z8A6TSI                      SAT 08/09/97 11:56 Page:177

  21798 28 002667   400000 236003                    LDQ     -131072,DU
        28 002670   200040 756100                    STQ     DB_REG_ROP,,AUTO

      963    21799    5                  END;

      964    21800
      965    21801
      966    21802    4            END /*V* Case */;

  21802 28 002671   003027 710000 28                 TRA     s:21872

      967    21803
      968    21804    3          SELECT(%LX_TERMINAL);

      969    21805    4            DO;

      970    21806    4              IF NODE$ -> BINARY_OP.LOP$ -> LX_ITEM.TYPE = %TYN THEN

  21806 28 002672   100001 474500                    LDP4    1,,PR1
        28 002673   400004 235100                    LDA     4,,PR4
        28 002674   000016 115007                    CMPA    14,DL
        28 002675   002701 601000 28                 TNZ     s:21809

      971    21807    4                CONTEXT = %CONTEXT_KANJI;

  21807 28 002676   000003 235007                    LDA     3,DL
        28 002677   200055 755100                    STA     CONTEXT,,AUTO
        28 002700   002702 710000 28                 TRA     s:21810

      972    21808    4              ELSE
      973    21809    4                CONTEXT = %CONTEXT_NUMERIC;

  21809 28 002701   200055 450100                    STZ     CONTEXT,,AUTO

      974    21810    4              CALL Z8EV$LEAST_STRONGEST_TYPE(NODE$ -> BINARY_OP.ROP$,

PL6.E3A0      #001=Z8EK$OPTIMAL_BRANCHES File=Z8EK.:Z8A6TSI                      SAT 08/09/97 11:56 Page:178
  21810 28 002702   000000 471500                    LDP1    0,,PR0
        28 002703   200044 633500                    EPPR3   ROP$,,AUTO
        28 002704   200324 453500                    STP3    COLLATING$+3,,AUTO
        28 002705   200055 634500                    EPPR4   CONTEXT,,AUTO
        28 002706   200323 454500                    STP4    COLLATING$+2,,AUTO
        28 002707   100002 635500                    EPPR5   2,,PR1
        28 002710   200322 455500                    STP5    COLLATING$+1,,AUTO
        28 002711   200322 630500                    EPPR0   COLLATING$+1,,AUTO
        28 002712   000036 631400 29                 EPPR1   30
        28 002713   000000 701000 xent               TSX1    Z8EV$LEAST_STRONGEST_TYPE
        28 002714   000000 011000                    NOP     0

      975    21811    4                                             CONTEXT,
      976    21812    4                                             ROP$);
      977    21813    4              IF NODE$ -> BINARY_OP.ROP$ -> LX_TERMINAL.SYMBOL = %RSV_WRD_NULL  THEN

  21813 28 002715   200033 470500                    LDP0    @NODE$,,AUTO
        28 002716   000000 471500                    LDP1    0,,PR0
        28 002717   100002 473500                    LDP3    2,,PR1
        28 002720   300003 235100                    LDA     3,,PR3
        28 002721   000463 115007                    CMPA    307,DL
        28 002722   002763 601000 28                 TNZ     s:21847

      978    21814    5                DO;

      979    21815    5                  IF LOP_IS_POINTER THEN

  21815 28 002723   200045 234100                    SZN     LOP_IS_POINTER,,AUTO
        28 002724   002760 605000 28                 TPL     s:21844

      980    21816    6                    DO;

      981    21817                           %INIT_LX_ETT_ITEM (@POINTER = ROP$,
      982    21818                                              @TYPE = %TYI,
      983    21819                                              @ETT$ = COMCOM.NULL_PTR$);

  21821 28 002725   000004 220003                    LDX0    4,DU
PL6.E3A0      #001=Z8EK$OPTIMAL_BRANCHES File=Z8EK.:Z8A6TSI                      SAT 08/09/97 11:56 Page:179
        28 002726   200044 474500                    LDP4    ROP$,,AUTO
        28 002727   400000 740100                    STX0    0,,PR4

  21822 28 002730   000000 221003                    LDX1    0,DU
        28 002731   200044 471500                    LDP1    ROP$,,AUTO
        28 002732   100000 441100                    SXL1    0,,PR1

  21823 28 002733   000001 235007                    LDA     1,DL
        28 002734   200044 471500                    LDP1    ROP$,,AUTO
        28 002735   100004 755100                    STA     4,,PR1

  21824 28 002736   000000 236000 29                 LDQ     0
        28 002737   200044 471500                    LDP1    ROP$,,AUTO
        28 002740   100007 756100                    STQ     7,,PR1

  21825 28 002741   000556 236000 xsym               LDQ     COMCOM+366
        28 002742   200044 471500                    LDP1    ROP$,,AUTO
        28 002743   100001 756100                    STQ     1,,PR1

  21826 28 002744   000000 236000 29                 LDQ     0
        28 002745   200044 471500                    LDP1    ROP$,,AUTO
        28 002746   100002 756100                    STQ     2,,PR1

  21828 28 002747   000133 235000 xsym               LDA     COMCOM+91
        28 002750   200044 471500                    LDP1    ROP$,,AUTO
        28 002751   100005 755100                    STA     5,,PR1

  21829 28 002752   000134 235000 xsym               LDA     COMCOM+92
        28 002753   200044 471500                    LDP1    ROP$,,AUTO
        28 002754   100006 755100                    STA     6,,PR1

      984    21841    6                      ROP_IS_POINTER = %TRUE;

  21841 28 002755   400000 236003                    LDQ     -131072,DU
        28 002756   200046 756100                    STQ     ROP_IS_POINTER,,AUTO

      985    21842    6                    END;
PL6.E3A0      #001=Z8EK$OPTIMAL_BRANCHES File=Z8EK.:Z8A6TSI                      SAT 08/09/97 11:56 Page:180

  21842 28 002757   003027 710000 28                 TRA     s:21872

      986    21843    5                  ELSE
      987    21844    5                    DB_FLAG_ROP = %TRUE;

  21844 28 002760   400000 236003                    LDQ     -131072,DU
        28 002761   200036 756100                    STQ     DB_FLAG_ROP,,AUTO

      988    21845    5                END;

  21845 28 002762   003027 710000 28                 TRA     s:21872

      989    21846    4              ELSE
      990    21847    5                DO CASE (ROP$ -> LX_ETT_ITEM.TYPE);

  21847 28 002763   200044 474500                    LDP4    ROP$,,AUTO
        28 002764   400004 235100                    LDA     4,,PR4
        28 002765   000002 115007                    CMPA    2,DL
        28 002766   002770 602005 28                 TNC     s:21847+5,AL
        28 002767   003027 710000 28                 TRA     s:21872
        28 002770   002772 710000 28                 TRA     s:21849
        28 002771   003014 710000 28                 TRA     s:21859

      991    21848    5                  CASE (%TYD);

      992    21849    5                    IF COMCOM.COMMA_DECIMAL_PRESENT

  21849 28 002772   000471 234000 xsym               SZN     COMCOM+313
        28 002773   002777 605000 28                 TPL     s:21851

      993    21850    5                      THEN DEC_PT = ',';

  21850 28 002774   054000 236003                    LDQ     22528,DU
        28 002775   200052 756100                    STQ     DEC_PT,,AUTO
        28 002776   003001 710000 28                 TRA     s:21853

PL6.E3A0      #001=Z8EK$OPTIMAL_BRANCHES File=Z8EK.:Z8A6TSI                      SAT 08/09/97 11:56 Page:181
      994    21851    5                      ELSE DEC_PT = '.';

  21851 28 002777   056000 236003                    LDQ     23552,DU
        28 003000   200052 756100                    STQ     DEC_PT,,AUTO

      995    21852
      996    21853    5                    CALL INDEX (TEMP_SBIN, DEC_PT, NODE$ -> BINARY_OP.ROP$ ->
             21853                             LX_TERMINAL.DNT$ -> DNT.TEXT.NAME)

  21853 28 003001   300002 475500                    LDP5    2,,PR3
        28 003002   500004 220100                    LDX0    4,,PR5
        28 003003   000100 124540                    SCM     mask='000'O
        28 003004   500004 400010                    ADSC9   4,,PR5                   cn=2,n=*X0
        28 003005   200052 000001                    ADSC9   DEC_PT,,AUTO             cn=0,n=1
        28 003006   200051 000100                    ARG     TEMP_SBIN,,AUTO
        28 003007   003011 606400 28                 TTN     s:21855
        28 003010   003013 710000 28                 TRA     s:21856

      997    21854    6                      WHENALTRETURN DO; /* No decimal point present */

      998    21855    6                        ROP_IS_TYI = %TRUE;

  21855 28 003011   400000 236003                    LDQ     -131072,DU
        28 003012   200050 756100                    STQ     ROP_IS_TYI,,AUTO

      999    21856    6                      END;

  21856 28 003013   003027 710000 28                 TRA     s:21872

     1000    21857
     1001    21858    5                  CASE (%TYI);

     1002    21859    5                    ROP_IS_TYI = %TRUE;

  21859 28 003014   400000 236003                    LDQ     -131072,DU
        28 003015   200050 756100                    STQ     ROP_IS_TYI,,AUTO

PL6.E3A0      #001=Z8EK$OPTIMAL_BRANCHES File=Z8EK.:Z8A6TSI                      SAT 08/09/97 11:56 Page:182
     1003    21860
     1004    21861    5                END;

     1005    21862    4            END;

  21862 28 003016   003027 710000 28                 TRA     s:21872

     1006    21863
     1007    21864    3          SELECT(ELSE);

     1008    21865    3            CALL Z8E5$MATH_PACK(NODE$ -> BINARY_OP.ROP$, ROP$);

  21865 28 003017   200044 634500                    EPPR4   ROP$,,AUTO
        28 003020   200323 454500                    STP4    COLLATING$+2,,AUTO
        28 003021   100002 633500                    EPPR3   2,,PR1
        28 003022   200322 453500                    STP3    COLLATING$+1,,AUTO
        28 003023   200322 630500                    EPPR0   COLLATING$+1,,AUTO
        28 003024   000002 631400 29                 EPPR1   2
        28 003025   000000 701000 xent               TSX1    Z8E5$MATH_PACK
        28 003026   000000 011000                    NOP     0

     1009    21866
     1010    21867    3        END /*V* Case */;

     1011    21868
     1012    21869
     1013    21870             /*V*    Check for Data Base Key comparisons       */
     1014    21871
     1015    21872    2        IF DB_FLAG_LOP   OR   DB_FLAG_ROP    THEN

  21872 28 003027   200035 234100                    SZN     DB_FLAG_LOP,,AUTO
        28 003030   003033 604000 28                 TMI     s:21875
        28 003031   200036 234100                    SZN     DB_FLAG_ROP,,AUTO
        28 003032   003126 605000 28                 TPL     s:21898

     1016    21873    3          DO;

PL6.E3A0      #001=Z8EK$OPTIMAL_BRANCHES File=Z8EK.:Z8A6TSI                      SAT 08/09/97 11:56 Page:183
     1017    21874
     1018    21875    3            IF NODE$ -> BINARY_OP.OP ~= %OP_EQUAL      AND

  21875 28 003033   200033 470500                    LDP0    @NODE$,,AUTO
        28 003034   000000 471500                    LDP1    0,,PR0
        28 003035   100003 235100                    LDA     3,,PR1
        28 003036   000027 115007                    CMPA    23,DL
        28 003037   003055 600000 28                 TZE     s:21881
        28 003040   000031 115007                    CMPA    25,DL
        28 003041   003055 600000 28                 TZE     s:21881

     1019    21876    3               NODE$ -> BINARY_OP.OP ~= %OP_NOT_EQUAL       THEN
     1020    21877    3                CALL Z8AE$ERROR(%E$DB_KEY_EQUALITY_ERROR,

  21877 28 003042   100001 473500                    LDP3    1,,PR1
        28 003043   300006 634500                    EPPR4   6,,PR3
        28 003044   200324 454500                    STP4    COLLATING$+3,,AUTO
        28 003045   300005 631500                    EPPR1   5,,PR3
        28 003046   200323 451500                    STP1    COLLATING$+2,,AUTO
        28 003047   000052 236000 29                 LDQ     42
        28 003050   200322 756100                    STQ     COLLATING$+1,,AUTO
        28 003051   200322 630500                    EPPR0   COLLATING$+1,,AUTO
        28 003052   000036 631400 29                 EPPR1   30
        28 003053   000000 701000 xent               TSX1    Z8AE$ERROR
        28 003054   000000 011000                    NOP     0

     1021    21878    3                                NODE$ -> BINARY_OP.LOP$ -> LX_ITEM.LINE,
     1022    21879    3                                NODE$ -> BINARY_OP.LOP$ -> LX_ITEM.COLUMN);
     1023    21880
     1024    21881    3            IF DB_FLAG_LOP = %FALSE THEN

  21881 28 003055   200035 234100                    SZN     DB_FLAG_LOP,,AUTO
        28 003056   003101 604000 28                 TMI     s:21889

     1025    21882    3              IF LOP_IS_TYI = %TRUE OR

  21882 28 003057   200047 234100                    SZN     LOP_IS_TYI,,AUTO
PL6.E3A0      #001=Z8EK$OPTIMAL_BRANCHES File=Z8EK.:Z8A6TSI                      SAT 08/09/97 11:56 Page:184
        28 003060   003101 604000 28                 TMI     s:21889
        28 003061   200033 470500                    LDP0    @NODE$,,AUTO
        28 003062   000000 471500                    LDP1    0,,PR0
        28 003063   100001 473500                    LDP3    1,,PR1
        28 003064   300003 235100                    LDA     3,,PR3
        28 003065   000761 115007                    CMPA    497,DL
        28 003066   003101 600000 28                 TZE     s:21889

     1026    21883    3                  NODE$ -> BINARY_OP.LOP$ -> LX_TERMINAL.SYMBOL = %RSV_WRD_ZEROES THEN
             21883                           ; /* OK */
     1027    21884    3              ELSE
     1028    21885    3                CALL Z8AE$ERROR(%E$DB_KEY_COMPARISON_ERROR,

  21885 28 003067   300006 634500                    EPPR4   6,,PR3
        28 003070   200324 454500                    STP4    COLLATING$+3,,AUTO
        28 003071   300005 631500                    EPPR1   5,,PR3
        28 003072   200323 451500                    STP1    COLLATING$+2,,AUTO
        28 003073   000054 236000 29                 LDQ     44
        28 003074   200322 756100                    STQ     COLLATING$+1,,AUTO
        28 003075   200322 630500                    EPPR0   COLLATING$+1,,AUTO
        28 003076   000036 631400 29                 EPPR1   30
        28 003077   000000 701000 xent               TSX1    Z8AE$ERROR
        28 003100   000000 011000                    NOP     0

     1029    21886    3                                NODE$ -> BINARY_OP.LOP$ -> LX_ITEM.LINE,
     1030    21887    3                                NODE$ -> BINARY_OP.LOP$ -> LX_ITEM.COLUMN);
     1031    21888
     1032    21889    3            IF DB_FLAG_ROP = %FALSE THEN

  21889 28 003101   200036 234100                    SZN     DB_FLAG_ROP,,AUTO
        28 003102   003415 604000 28                 TMI     s:22058

     1033    21890    3              IF ROP_IS_TYI = %TRUE OR

  21890 28 003103   200050 234100                    SZN     ROP_IS_TYI,,AUTO
        28 003104   003415 604000 28                 TMI     s:22058
        28 003105   200033 470500                    LDP0    @NODE$,,AUTO
PL6.E3A0      #001=Z8EK$OPTIMAL_BRANCHES File=Z8EK.:Z8A6TSI                      SAT 08/09/97 11:56 Page:185
        28 003106   000000 471500                    LDP1    0,,PR0
        28 003107   100002 473500                    LDP3    2,,PR1
        28 003110   300003 235100                    LDA     3,,PR3
        28 003111   000761 115007                    CMPA    497,DL
        28 003112   003415 600000 28                 TZE     s:22058

     1034    21891    3                  NODE$ -> BINARY_OP.ROP$ -> LX_TERMINAL.SYMBOL = %RSV_WRD_ZEROES THEN
             21891                           ; /* OK */
     1035    21892    3              ELSE
     1036    21893    3                CALL Z8AE$ERROR(%E$DB_KEY_COMPARISON_ERROR,

  21893 28 003113   300006 634500                    EPPR4   6,,PR3
        28 003114   200324 454500                    STP4    COLLATING$+3,,AUTO
        28 003115   300005 631500                    EPPR1   5,,PR3
        28 003116   200323 451500                    STP1    COLLATING$+2,,AUTO
        28 003117   000054 236000 29                 LDQ     44
        28 003120   200322 756100                    STQ     COLLATING$+1,,AUTO
        28 003121   200322 630500                    EPPR0   COLLATING$+1,,AUTO
        28 003122   000036 631400 29                 EPPR1   30
        28 003123   000000 701000 xent               TSX1    Z8AE$ERROR
        28 003124   000000 011000                    NOP     0

     1037    21894    3                                NODE$ -> BINARY_OP.ROP$ -> LX_ITEM.LINE,
     1038    21895    3                                NODE$ -> BINARY_OP.ROP$ -> LX_ITEM.COLUMN);
     1039    21896
     1040    21897    3          END;

  21897 28 003125   003415 710000 28                 TRA     s:22058

     1041    21898    2        ELSE IF DB_REG_LOP OR DB_REG_ROP THEN

  21898 28 003126   200037 234100                    SZN     DB_REG_LOP,,AUTO
        28 003127   003132 604000 28                 TMI     s:21900
        28 003130   200040 234100                    SZN     DB_REG_ROP,,AUTO
        28 003131   003255 605000 28                 TPL     s:21929

     1042    21899    3          DO;
PL6.E3A0      #001=Z8EK$OPTIMAL_BRANCHES File=Z8EK.:Z8A6TSI                      SAT 08/09/97 11:56 Page:186

     1043    21900    3            IF NODE$ -> BINARY_OP.OP ~= %OP_EQUAL      AND

  21900 28 003132   200033 470500                    LDP0    @NODE$,,AUTO
        28 003133   000000 471500                    LDP1    0,,PR0
        28 003134   100003 235100                    LDA     3,,PR1
        28 003135   000027 115007                    CMPA    23,DL
        28 003136   003154 600000 28                 TZE     s:21905
        28 003137   000031 115007                    CMPA    25,DL
        28 003140   003154 600000 28                 TZE     s:21905

     1044    21901    3               NODE$ -> BINARY_OP.OP ~= %OP_NOT_EQUAL       THEN
     1045    21902    3                  CALL Z8AE$ERROR(%E$DB_REG_EQUALITY_ERROR,

  21902 28 003141   100001 473500                    LDP3    1,,PR1
        28 003142   300006 634500                    EPPR4   6,,PR3
        28 003143   200324 454500                    STP4    COLLATING$+3,,AUTO
        28 003144   300005 631500                    EPPR1   5,,PR3
        28 003145   200323 451500                    STP1    COLLATING$+2,,AUTO
        28 003146   000056 236000 29                 LDQ     46
        28 003147   200322 756100                    STQ     COLLATING$+1,,AUTO
        28 003150   200322 630500                    EPPR0   COLLATING$+1,,AUTO
        28 003151   000036 631400 29                 EPPR1   30
        28 003152   000000 701000 xent               TSX1    Z8AE$ERROR
        28 003153   000000 011000                    NOP     0

     1046    21903    3                                  NODE$ -> BINARY_OP.LOP$ -> LX_ITEM.LINE,
     1047    21904    3                                  NODE$ -> BINARY_OP.LOP$ -> LX_ITEM.COLUMN);
     1048    21905    3            IF DB_REG_LOP AND ROP$ -> LX_ITEM.TYPE = %TYG THEN

  21905 28 003154   200037 234100                    SZN     DB_REG_LOP,,AUTO
        28 003155   003214 605000 28                 TPL     s:21916
        28 003156   200044 470500                    LDP0    ROP$,,AUTO
        28 003157   000004 235100                    LDA     4,,PR0
        28 003160   000020 115007                    CMPA    16,DL
        28 003161   003214 601000 28                 TNZ     s:21916

PL6.E3A0      #001=Z8EK$OPTIMAL_BRANCHES File=Z8EK.:Z8A6TSI                      SAT 08/09/97 11:56 Page:187
     1049    21906    4              DO;

     1050    21907    4                TEMP_SBIN = ROP$ -> LX_ETT_ITEM.ETT$ -> ETT.LOP ->

  21907 28 003162   000001 471500                    LDP1    1,,PR0
        28 003163   100001 473500                    LDP3    1,,PR1
        28 003164   300006 474500                    LDP4    6,,PR3
        28 003165   400004 236100                    LDQ     4,,PR4
        28 003166   000022 772000                    QRL     18
        28 003167   200051 756100                    STQ     TEMP_SBIN,,AUTO

     1051    21908    4                    DML_ITEM.DNT$ -> DNT.TEXT.LENGTH;
     1052    21909    4                CALL Z8AC$MAKE_TYA_CONST(ROP$ -> LX_ETT_ITEM.ETT$ -> ETT.LOP ->

  21909 28 003170   000001 471500                    LDP1    1,,PR0
        28 003171   100001 473500                    LDP3    1,,PR1
        28 003172   300006 474500                    LDP4    6,,PR3
        28 003173   200044 236100                    LDQ     ROP$,,AUTO
        28 003174   000001 036003                    ADLQ    1,DU
        28 003175   000046 235000 29                 LDA     38
        28 003176   200324 757100                    STAQ    COLLATING$+3,,AUTO
        28 003177   200051 631500                    EPPR1   TEMP_SBIN,,AUTO
        28 003200   200323 451500                    STP1    COLLATING$+2,,AUTO
        28 003201   200326 454500                    STP4    COLLATING$+5,,AUTO
        28 003202   200326 236100                    LDQ     COLLATING$+5,,AUTO
        28 003203   000057 036000 29                 ADLQ    47
        28 003204   200322 756100                    STQ     COLLATING$+1,,AUTO
        28 003205   200322 630500                    EPPR0   COLLATING$+1,,AUTO
        28 003206   000003 631400 29                 EPPR1   3
        28 003207   000000 701000 xent               TSX1    Z8AC$MAKE_TYA_CONST
        28 003210   000000 011000                    NOP     0

     1053    21910    4                                             DML_ITEM.DNT$ -> DNT.TEXT.NAME,
     1054    21911    4                                         TEMP_SBIN,
     1055    21912    4                                         0,
     1056    21913    4                                         ROP$ -> LX_ETT_ITEM.ETT$);
     1057    21914    4                ROP$ -> LX_ETT_ITEM.TYPE = %TYA;
PL6.E3A0      #001=Z8EK$OPTIMAL_BRANCHES File=Z8EK.:Z8A6TSI                      SAT 08/09/97 11:56 Page:188

  21914 28 003211   000010 235007                    LDA     8,DL
        28 003212   200044 470500                    LDP0    ROP$,,AUTO
        28 003213   000004 755100                    STA     4,,PR0

     1058    21915    4              END;

     1059    21916    3            IF DB_REG_ROP AND LOP$ -> LX_ITEM.TYPE = %TYG THEN

  21916 28 003214   200040 234100                    SZN     DB_REG_ROP,,AUTO
        28 003215   003415 605000 28                 TPL     s:22058
        28 003216   200043 470500                    LDP0    LOP$,,AUTO
        28 003217   000004 235100                    LDA     4,,PR0
        28 003220   000020 115007                    CMPA    16,DL
        28 003221   003415 601000 28                 TNZ     s:22058

     1060    21917    4              DO;

     1061    21918    4                TEMP_SBIN = LOP$ -> LX_ETT_ITEM.ETT$ -> ETT.LOP ->

  21918 28 003222   000001 471500                    LDP1    1,,PR0
        28 003223   100001 473500                    LDP3    1,,PR1
        28 003224   300006 474500                    LDP4    6,,PR3
        28 003225   400004 236100                    LDQ     4,,PR4
        28 003226   000022 772000                    QRL     18
        28 003227   200051 756100                    STQ     TEMP_SBIN,,AUTO

     1062    21919    4                    DML_ITEM.DNT$ -> DNT.TEXT.LENGTH;
     1063    21920    4                CALL Z8AC$MAKE_TYA_CONST(LOP$ -> LX_ETT_ITEM.ETT$ -> ETT.LOP ->

  21920 28 003230   000001 471500                    LDP1    1,,PR0
        28 003231   100001 473500                    LDP3    1,,PR1
        28 003232   300006 474500                    LDP4    6,,PR3
        28 003233   200043 236100                    LDQ     LOP$,,AUTO
        28 003234   000001 036003                    ADLQ    1,DU
        28 003235   000046 235000 29                 LDA     38
        28 003236   200324 757100                    STAQ    COLLATING$+3,,AUTO
PL6.E3A0      #001=Z8EK$OPTIMAL_BRANCHES File=Z8EK.:Z8A6TSI                      SAT 08/09/97 11:56 Page:189
        28 003237   200051 631500                    EPPR1   TEMP_SBIN,,AUTO
        28 003240   200323 451500                    STP1    COLLATING$+2,,AUTO
        28 003241   200326 454500                    STP4    COLLATING$+5,,AUTO
        28 003242   200326 236100                    LDQ     COLLATING$+5,,AUTO
        28 003243   000057 036000 29                 ADLQ    47
        28 003244   200322 756100                    STQ     COLLATING$+1,,AUTO
        28 003245   200322 630500                    EPPR0   COLLATING$+1,,AUTO
        28 003246   000003 631400 29                 EPPR1   3
        28 003247   000000 701000 xent               TSX1    Z8AC$MAKE_TYA_CONST
        28 003250   000000 011000                    NOP     0

     1064    21921    4                                             DML_ITEM.DNT$ -> DNT.TEXT.NAME,
     1065    21922    4                                         TEMP_SBIN,
     1066    21923    4                                         0,
     1067    21924    4                                         LOP$ -> LX_ETT_ITEM.ETT$);
     1068    21925    4                LOP$ -> LX_ETT_ITEM.TYPE = %TYA;

  21925 28 003251   000010 235007                    LDA     8,DL
        28 003252   200043 470500                    LDP0    LOP$,,AUTO
        28 003253   000004 755100                    STA     4,,PR0

     1069    21926    4              END;

     1070    21927    3          END;

  21927 28 003254   003415 710000 28                 TRA     s:22058

     1071    21928    2        ELSE
     1072    21929    2          IF LOP_IS_POINTER OR ROP_IS_POINTER THEN

  21929 28 003255   200045 234100                    SZN     LOP_IS_POINTER,,AUTO
        28 003256   003261 604000 28                 TMI     s:21931
        28 003257   200046 234100                    SZN     ROP_IS_POINTER,,AUTO
        28 003260   003415 605000 28                 TPL     s:22058

     1073    21930    3            DO;

PL6.E3A0      #001=Z8EK$OPTIMAL_BRANCHES File=Z8EK.:Z8A6TSI                      SAT 08/09/97 11:56 Page:190
     1074    21931    3              IF LOP_IS_POINTER AND ROP_IS_POINTER THEN

  21931 28 003261   200045 234100                    SZN     LOP_IS_POINTER,,AUTO
        28 003262   003312 605000 28                 TPL     s:21970
        28 003263   200046 234100                    SZN     ROP_IS_POINTER,,AUTO
        28 003264   003312 605000 28                 TPL     s:21970

     1075    21932    4                DO;

     1076    21933    4                  IF NODE$ -> BINARY_OP.OP ~= %OP_EQUAL AND

  21933 28 003265   200033 470500                    LDP0    @NODE$,,AUTO
        28 003266   000000 471500                    LDP1    0,,PR0
        28 003267   100003 235100                    LDA     3,,PR1
        28 003270   000027 115007                    CMPA    23,DL
        28 003271   003415 600000 28                 TZE     s:22058
        28 003272   000031 115007                    CMPA    25,DL
        28 003273   003415 600000 28                 TZE     s:22058

     1077    21934    4                    NODE$ -> BINARY_OP.OP ~= %OP_NOT_EQUAL THEN
     1078    21935                         %CONDITIONAL_ERROR(@ERROR# = %E$POINTER_EQUALITY_ERROR,
     1079    21936                                 @LX_ITEM$= NODE$,
     1080    21937                                 @LINE  = LOP$ -> LX_ITEM.LINE,
     1081    21938                                 @COLUMN = 0);

  21948 28 003274   100000 236100                    LDQ     0,,PR1
        28 003275   400000 316007                    CANQ    -131072,DL
        28 003276   003415 601000 28                 TNZ     s:22058

  21950 28 003277   000046 236000 29                 LDQ     38
        28 003300   200324 756100                    STQ     COLLATING$+3,,AUTO
        28 003301   200043 236100                    LDQ     LOP$,,AUTO
        28 003302   000005 036003                    ADLQ    5,DU
        28 003303   000061 235000 29                 LDA     49
        28 003304   200322 757100                    STAQ    COLLATING$+1,,AUTO
        28 003305   200322 630500                    EPPR0   COLLATING$+1,,AUTO
        28 003306   000036 631400 29                 EPPR1   30
PL6.E3A0      #001=Z8EK$OPTIMAL_BRANCHES File=Z8EK.:Z8A6TSI                      SAT 08/09/97 11:56 Page:191
        28 003307   000000 701000 xent               TSX1    Z8AE$ERROR
        28 003310   000000 011000                    NOP     0

     1082    21968    4                END;

  21968 28 003311   003415 710000 28                 TRA     s:22058

     1083    21969    3              ELSE
     1084    21970    3                IF NOT LOP_IS_POINTER THEN

  21970 28 003312   200045 234100                    SZN     LOP_IS_POINTER,,AUTO
        28 003313   003354 604000 28                 TMI     s:22010

     1085    21971    4                  DO;

     1086    21972                         %CONDITIONAL_ERROR(@ERROR# = %E$POINTER_INCOMPATIBLE,
     1087    21973                                @LX_ITEM$ = NODE$ -> BINARY_OP.LOP$,
     1088    21974                                @LINE   = LOP$ -> LX_ITEM.LINE,
     1089    21975                                @COLUMN = LOP$ -> LX_ITEM.COLUMN);

  21985 28 003314   200033 470500                    LDP0    @NODE$,,AUTO
        28 003315   000000 471500                    LDP1    0,,PR0
        28 003316   100001 473500                    LDP3    1,,PR1
        28 003317   300000 236100                    LDQ     0,,PR3
        28 003320   400000 316007                    CANQ    -131072,DL
        28 003321   003342 601000 28                 TNZ     s:22005

  21987 28 003322   200043 236100                    LDQ     LOP$,,AUTO
        28 003323   000006 036003                    ADLQ    6,DU
        28 003324   200324 756100                    STQ     COLLATING$+3,,AUTO
        28 003325   200043 236100                    LDQ     LOP$,,AUTO
        28 003326   000005 036003                    ADLQ    5,DU
        28 003327   000063 235000 29                 LDA     51
        28 003330   200322 757100                    STAQ    COLLATING$+1,,AUTO
        28 003331   200322 630500                    EPPR0   COLLATING$+1,,AUTO
        28 003332   000036 631400 29                 EPPR1   30
        28 003333   000000 701000 xent               TSX1    Z8AE$ERROR
PL6.E3A0      #001=Z8EK$OPTIMAL_BRANCHES File=Z8EK.:Z8A6TSI                      SAT 08/09/97 11:56 Page:192
        28 003334   000000 011000                    NOP     0

  21996 28 003335   200033 470500                    LDP0    @NODE$,,AUTO
        28 003336   000000 471500                    LDP1    0,,PR0
        28 003337   100001 473500                    LDP3    1,,PR1
        28 003340   400000 236007                    LDQ     -131072,DL
        28 003341   300000 256100                    ORSQ    0,,PR3

     1090    22005    4                    ROP$ -> LX_ETT_ITEM.ETT$ = COMCOM.VALUE_0;

  22005 28 003342   000124 236000 xsym               LDQ     COMCOM+84
        28 003343   200044 471500                    LDP1    ROP$,,AUTO
        28 003344   100001 756100                    STQ     1,,PR1

     1091    22006    4                    LOP$ -> LX_ETT_ITEM.ETT$ = COMCOM.VALUE_0;

  22006 28 003345   000124 236000 xsym               LDQ     COMCOM+84
        28 003346   200043 471500                    LDP1    LOP$,,AUTO
        28 003347   100001 756100                    STQ     1,,PR1

     1092    22007    4                    LOP$ -> LX_ETT_ITEM.TYPE = %TYI;

  22007 28 003350   000001 235007                    LDA     1,DL
        28 003351   200043 471500                    LDP1    LOP$,,AUTO
        28 003352   100004 755100                    STA     4,,PR1

     1093    22008    4                  END;

  22008 28 003353   003415 710000 28                 TRA     s:22058

     1094    22009    3                ELSE
     1095    22010    3                  IF NOT ROP_IS_POINTER THEN

  22010 28 003354   200046 234100                    SZN     ROP_IS_POINTER,,AUTO
        28 003355   003415 604000 28                 TMI     s:22058

     1096    22011    4                    DO;
PL6.E3A0      #001=Z8EK$OPTIMAL_BRANCHES File=Z8EK.:Z8A6TSI                      SAT 08/09/97 11:56 Page:193

     1097    22012                           %CONDITIONAL_ERROR(@ERROR# = %E$POINTER_INCOMPATIBLE,
     1098    22013                                   @LX_ITEM$ = NODE$ -> BINARY_OP.ROP$,
     1099    22014                                   @LINE  = ROP$ -> LX_ITEM.LINE,
     1100    22015                                   @COLUMN= ROP$ -> LX_ITEM.COLUMN);

  22025 28 003356   200033 470500                    LDP0    @NODE$,,AUTO
        28 003357   000000 471500                    LDP1    0,,PR0
        28 003360   100002 473500                    LDP3    2,,PR1
        28 003361   300000 236100                    LDQ     0,,PR3
        28 003362   400000 316007                    CANQ    -131072,DL
        28 003363   003404 601000 28                 TNZ     s:22045

  22027 28 003364   200044 236100                    LDQ     ROP$,,AUTO
        28 003365   000006 036003                    ADLQ    6,DU
        28 003366   200324 756100                    STQ     COLLATING$+3,,AUTO
        28 003367   200044 236100                    LDQ     ROP$,,AUTO
        28 003370   000005 036003                    ADLQ    5,DU
        28 003371   000063 235000 29                 LDA     51
        28 003372   200322 757100                    STAQ    COLLATING$+1,,AUTO
        28 003373   200322 630500                    EPPR0   COLLATING$+1,,AUTO
        28 003374   000036 631400 29                 EPPR1   30
        28 003375   000000 701000 xent               TSX1    Z8AE$ERROR
        28 003376   000000 011000                    NOP     0

  22036 28 003377   200033 470500                    LDP0    @NODE$,,AUTO
        28 003400   000000 471500                    LDP1    0,,PR0
        28 003401   100002 473500                    LDP3    2,,PR1
        28 003402   400000 236007                    LDQ     -131072,DL
        28 003403   300000 256100                    ORSQ    0,,PR3

     1101    22045    4                      LOP$ -> LX_ETT_ITEM.ETT$ = COMCOM.VALUE_0;

  22045 28 003404   000124 236000 xsym               LDQ     COMCOM+84
        28 003405   200043 471500                    LDP1    LOP$,,AUTO
        28 003406   100001 756100                    STQ     1,,PR1

PL6.E3A0      #001=Z8EK$OPTIMAL_BRANCHES File=Z8EK.:Z8A6TSI                      SAT 08/09/97 11:56 Page:194
     1102    22046    4                      ROP$ -> LX_ETT_ITEM.TYPE = %TYI;

  22046 28 003407   000001 235007                    LDA     1,DL
        28 003410   200044 471500                    LDP1    ROP$,,AUTO
        28 003411   100004 755100                    STA     4,,PR1

     1103    22047    4                      ROP$ -> LX_ETT_ITEM.ETT$ = COMCOM.VALUE_0;

  22047 28 003412   000124 236000 xsym               LDQ     COMCOM+84
        28 003413   200044 471500                    LDP1    ROP$,,AUTO
        28 003414   100001 756100                    STQ     1,,PR1

     1104    22048    4                    END;

     1105    22049    3            END;

     1106    22050
     1107    22051
     1108    22052             /*V* Check for comparison of non-numeric to numeric,
     1109    22053                where the numeric item is a terminal symbol.  It
     1110    22054                was converted to integer by least strongest type,
     1111    22055                but needs to be alphanumeric for a valid comparison
     1112    22056             */
     1113    22057
     1114    22058    2        IF ROP$ -> LX_ETT_ITEM.TYPE = %TYA THEN

  22058 28 003415   200044 470500                    LDP0    ROP$,,AUTO
        28 003416   000004 235100                    LDA     4,,PR0
        28 003417   000010 115007                    CMPA    8,DL
        28 003420   003432 601000 28                 TNZ     s:22062

     1115    22059    2          CALL CHECK_NONNUM_NUM_COMP (NODE$ -> BINARY_OP.LOP$,

  22059 28 003421   200033 471500                    LDP1    @NODE$,,AUTO
        28 003422   100000 473500                    LDP3    0,,PR1
        28 003423   200043 634500                    EPPR4   LOP$,,AUTO
        28 003424   200102 454500                    STP4    REM_CHARS,,AUTO
PL6.E3A0      #001=Z8EK$OPTIMAL_BRANCHES File=Z8EK.:Z8A6TSI                      SAT 08/09/97 11:56 Page:195
        28 003425   300001 635500                    EPPR5   1,,PR3
        28 003426   200101 455500                    STP5    LOOP_COUNTER+7,,AUTO
        28 003427   001113 701000 28                 TSX1    CHECK_NONNUM_NUM_COMP
        28 003430   000000 011000                    NOP     0
        28 003431   003446 710000 28                 TRA     s:22067

     1116    22060    2                                      LOP$);
     1117    22061    2        ELSE
     1118    22062    2          IF LOP$ -> LX_ETT_ITEM.TYPE = %TYA THEN

  22062 28 003432   200043 471500                    LDP1    LOP$,,AUTO
        28 003433   100004 235100                    LDA     4,,PR1
        28 003434   000010 115007                    CMPA    8,DL
        28 003435   003446 601000 28                 TNZ     s:22067

     1119    22063    2            CALL CHECK_NONNUM_NUM_COMP (NODE$ -> BINARY_OP.ROP$,

  22063 28 003436   200033 473500                    LDP3    @NODE$,,AUTO
        28 003437   300000 474500                    LDP4    0,,PR3
        28 003440   200044 635500                    EPPR5   ROP$,,AUTO
        28 003441   200102 455500                    STP5    REM_CHARS,,AUTO
        28 003442   400002 636500                    EPPR6   2,,PR4
        28 003443   200101 456500                    STP6    LOOP_COUNTER+7,,AUTO
        28 003444   001113 701000 28                 TSX1    CHECK_NONNUM_NUM_COMP
        28 003445   000000 011000                    NOP     0

     1120    22064    2                                        ROP$);
     1121    22065
     1122    22066
     1123    22067    2        CALL Z8EV$COMPATIBLE_TYPES(LOP$ ,

  22067 28 003446   000064 236000 29                 LDQ     52
        28 003447   200324 756100                    STQ     COLLATING$+3,,AUTO
        28 003450   200044 630500                    EPPR0   ROP$,,AUTO
        28 003451   200323 450500                    STP0    COLLATING$+2,,AUTO
        28 003452   200043 631500                    EPPR1   LOP$,,AUTO
        28 003453   200322 451500                    STP1    COLLATING$+1,,AUTO
PL6.E3A0      #001=Z8EK$OPTIMAL_BRANCHES File=Z8EK.:Z8A6TSI                      SAT 08/09/97 11:56 Page:196
        28 003454   200322 630500                    EPPR0   COLLATING$+1,,AUTO
        28 003455   000036 631400 29                 EPPR1   30
        28 003456   000000 701000 xent               TSX1    Z8EV$COMPATIBLE_TYPES
        28 003457   003461 702000 28                 TSX2    s:22072
        28 003460   003530 710000 28                 TRA     s:22083

     1124    22068    2                                   ROP$ ,
     1125    22069    2                                   COMPARISON_MATRIX)
     1126    22070    2          WHENALTRETURN
     1127    22071    3            DO;

     1128    22072    3              CALL Z8AE$ERROR(%E$INVALID_COMP_OPERANDS,

  22072 28 003461   200033 470500                    LDP0    @NODE$,,AUTO
        28 003462   000000 471500                    LDP1    0,,PR0
        28 003463   100006 633500                    EPPR3   6,,PR1
        28 003464   200324 453500                    STP3    COLLATING$+3,,AUTO
        28 003465   100005 634500                    EPPR4   5,,PR1
        28 003466   200323 454500                    STP4    COLLATING$+2,,AUTO
        28 003467   000066 236000 29                 LDQ     54
        28 003470   200322 756100                    STQ     COLLATING$+1,,AUTO
        28 003471   200322 630500                    EPPR0   COLLATING$+1,,AUTO
        28 003472   000036 631400 29                 EPPR1   30
        28 003473   000000 701000 xent               TSX1    Z8AE$ERROR
        28 003474   000000 011000                    NOP     0

     1129    22073    3                             NODE$ -> BINARY_OP.LINE,
     1130    22074    3                             NODE$ -> BINARY_OP.COLUMN);
     1131    22075    3              CALL Z8AT$CREATE_TEMPORARY (%SCALAR, TEMP$);

  22075 28 003475   200054 630500                    EPPR0   TEMP$,,AUTO
        28 003476   200323 450500                    STP0    COLLATING$+2,,AUTO
        28 003477   000070 236000 29                 LDQ     56
        28 003500   200322 756100                    STQ     COLLATING$+1,,AUTO
        28 003501   200322 630500                    EPPR0   COLLATING$+1,,AUTO
        28 003502   000002 631400 29                 EPPR1   2
        28 003503   000000 701000 xent               TSX1    Z8AT$CREATE_TEMPORARY
PL6.E3A0      #001=Z8EK$OPTIMAL_BRANCHES File=Z8EK.:Z8A6TSI                      SAT 08/09/97 11:56 Page:197
        28 003504   000000 011000                    NOP     0

     1132    22076    3              CALL Z8EU$CREATE_IDENTIFIER_FROM_ST (TEMP$,

  22076 28 003505   200033 470500                    LDP0    @NODE$,,AUTO
        28 003506   000000 471500                    LDP1    0,,PR0
        28 003507   100006 633500                    EPPR3   6,,PR1
        28 003510   200325 453500                    STP3    COLLATING$+4,,AUTO
        28 003511   100005 634500                    EPPR4   5,,PR1
        28 003512   200324 454500                    STP4    COLLATING$+3,,AUTO
        28 003513   200043 631500                    EPPR1   LOP$,,AUTO
        28 003514   200323 451500                    STP1    COLLATING$+2,,AUTO
        28 003515   200054 635500                    EPPR5   TEMP$,,AUTO
        28 003516   200322 455500                    STP5    COLLATING$+1,,AUTO
        28 003517   200322 630500                    EPPR0   COLLATING$+1,,AUTO
        28 003520   000003 631400 29                 EPPR1   3
        28 003521   000000 701000 xent               TSX1    Z8EU$CREATE_IDENTIFIER_FROM_ST
        28 003522   000000 011000                    NOP     0

     1133    22077    3                         LOP$,
     1134    22078    3                         NODE$ -> BINARY_OP.LINE,
     1135    22079    3                         NODE$ -> BINARY_OP.COLUMN);
     1136    22080    3              ROP$ -> LX_ETT_ITEM = LOP$ -> LX_ETT_ITEM;

  22080 28 003523   200043 470500                    LDP0    LOP$,,AUTO
        28 003524   200044 471500                    LDP1    ROP$,,AUTO
        28 003525   000100 100500                    MLR     fill='000'O
        28 003526   000000 000040                    ADSC9   0,,PR0                   cn=0,n=32
        28 003527   100000 000040                    ADSC9   0,,PR1                   cn=0,n=32

     1137    22081    3            END;

     1138    22082
     1139    22083    3        DO CASE(LOP$ -> LX_ITEM.TYPE);

  22083 28 003530   200043 470500                    LDP0    LOP$,,AUTO
        28 003531   000004 235100                    LDA     4,,PR0
PL6.E3A0      #001=Z8EK$OPTIMAL_BRANCHES File=Z8EK.:Z8A6TSI                      SAT 08/09/97 11:56 Page:198
        28 003532   000017 115007                    CMPA    15,DL
        28 003533   003535 602005 28                 TNC     s:22083+5,AL
        28 003534   003675 710000 28                 TRA     s:22129
        28 003535   003557 710000 28                 TRA     s:22088
        28 003536   003554 710000 28                 TRA     s:22085
        28 003537   003675 710000 28                 TRA     s:22129
        28 003540   003630 710000 28                 TRA     s:22107
        28 003541   003664 710000 28                 TRA     s:22120
        28 003542   003667 710000 28                 TRA     s:22123
        28 003543   003675 710000 28                 TRA     s:22129
        28 003544   003675 710000 28                 TRA     s:22129
        28 003545   003672 710000 28                 TRA     s:22126
        28 003546   003675 710000 28                 TRA     s:22129
        28 003547   003675 710000 28                 TRA     s:22129
        28 003550   003630 710000 28                 TRA     s:22107
        28 003551   003675 710000 28                 TRA     s:22129
        28 003552   003675 710000 28                 TRA     s:22129
        28 003553   003672 710000 28                 TRA     s:22126

     1140    22084    3          CASE(%TYI);

     1141    22085    3            ID = %CMPI;

  22085 28 003554   000106 236007                    LDQ     70,DL
        28 003555   200041 756100                    STQ     ID,,AUTO
        28 003556   003710 710000 28                 TRA     s:22137

     1142    22086
     1143    22087    3          CASE(%TYD);

     1144    22088    3            IF ROP$ -> LX_ITEM.TYPE = %TYO OR

  22088 28 003557   200044 471500                    LDP1    ROP$,,AUTO
        28 003560   100004 235100                    LDA     4,,PR1
        28 003561   000003 115007                    CMPA    3,DL
        28 003562   003565 600000 28                 TZE     s:22091
        28 003563   000013 115007                    CMPA    11,DL
PL6.E3A0      #001=Z8EK$OPTIMAL_BRANCHES File=Z8EK.:Z8A6TSI                      SAT 08/09/97 11:56 Page:199
        28 003564   003625 601000 28                 TNZ     s:22104

     1145    22089    3                ROP$ -> LX_ITEM.TYPE = %TYF THEN
     1146    22090    4              DO;

     1147    22091    4                CALL Z8AU$TYPE_DESCRIPTOR (LOP$, TYPE_DESC);

  22091 28 003565   200023 633500                    EPPR3   TYPE_DESC,,AUTO
        28 003566   200323 453500                    STP3    COLLATING$+2,,AUTO
        28 003567   200043 634500                    EPPR4   LOP$,,AUTO
        28 003570   200322 454500                    STP4    COLLATING$+1,,AUTO
        28 003571   200322 630500                    EPPR0   COLLATING$+1,,AUTO
        28 003572   000002 631400 29                 EPPR1   2
        28 003573   000000 701000 xent               TSX1    Z8AU$TYPE_DESCRIPTOR
        28 003574   000000 011000                    NOP     0

     1148    22092
     1149    22093    4                IF COMCOM.OB.ELS

  22093 28 003575   000026 234000 xsym               SZN     COMCOM+22
        28 003576   003610 605000 28                 TPL     s:22099
        28 003577   200024 236100                    LDQ     TYPE_DESC+1,,AUTO
        28 003600   040000 316007                    CANQ    16384,DL
        28 003601   003605 601000 28                 TNZ     s:22096
        28 003602   030000 376007                    ANQ     12288,DL
        28 003603   030000 116007                    CMPQ    12288,DL
        28 003604   003610 600000 28                 TZE     s:22099

     1150    22094    4                    AND (TYPE_DESC.DESC.NDSC.TN  /*V* packed */
     1151    22095    4                          OR TYPE_DESC.DESC.NDSC.S ~= %NO_SIGN) THEN
     1152    22096    4                  ID = %CMPO;

  22096 28 003605   000170 235007                    LDA     120,DL
        28 003606   200041 755100                    STA     ID,,AUTO
        28 003607   003710 710000 28                 TRA     s:22137

     1153    22097    4                ELSE
PL6.E3A0      #001=Z8EK$OPTIMAL_BRANCHES File=Z8EK.:Z8A6TSI                      SAT 08/09/97 11:56 Page:200
     1154    22098    5                  DO;

     1155    22099    5                    CALL Z8EV$CONVERT (%TYD, ROP$, ROP$);

  22099 28 003610   200044 630500                    EPPR0   ROP$,,AUTO
        28 003611   200324 450500                    STP0    COLLATING$+3,,AUTO
        28 003612   200044 631500                    EPPR1   ROP$,,AUTO
        28 003613   200323 451500                    STP1    COLLATING$+2,,AUTO
        28 003614   000046 236000 29                 LDQ     38
        28 003615   200322 756100                    STQ     COLLATING$+1,,AUTO
        28 003616   200322 630500                    EPPR0   COLLATING$+1,,AUTO
        28 003617   000036 631400 29                 EPPR1   30
        28 003620   000000 701000 xent               TSX1    Z8EV$CONVERT
        28 003621   000000 011000                    NOP     0

     1156    22100    5                    ID = %CMPD;

  22100 28 003622   000107 235007                    LDA     71,DL
        28 003623   200041 755100                    STA     ID,,AUTO

     1157    22101    5                  END;

     1158    22102    4              END;

  22102 28 003624   003710 710000 28                 TRA     s:22137

     1159    22103    3            ELSE
     1160    22104    3              ID = %CMPD;

  22104 28 003625   000107 236007                    LDQ     71,DL
        28 003626   200041 756100                    STQ     ID,,AUTO
        28 003627   003710 710000 28                 TRA     s:22137

     1161    22105
     1162    22106    3         CASE(%TYO, %TYF);

     1163    22107    3           IF COMCOM.OB.ELS THEN
PL6.E3A0      #001=Z8EK$OPTIMAL_BRANCHES File=Z8EK.:Z8A6TSI                      SAT 08/09/97 11:56 Page:201

  22107 28 003630   000026 234000 xsym               SZN     COMCOM+22
        28 003631   003635 605000 28                 TPL     s:22113

     1164    22108    4             DO;

     1165    22109    4                 ID = %CMPO; /* If LOP TYD ASCII no sign, it is OK with CMPNX */

  22109 28 003632   000170 236007                    LDQ     120,DL
        28 003633   200041 756100                    STQ     ID,,AUTO

     1166    22110    4             END;

  22110 28 003634   003710 710000 28                 TRA     s:22137

     1167    22111    3           ELSE
     1168    22112    4             DO;

     1169    22113    4               CALL Z8EV$CONVERT (%TYD, LOP$, LOP$);

  22113 28 003635   200043 631500                    EPPR1   LOP$,,AUTO
        28 003636   200324 451500                    STP1    COLLATING$+3,,AUTO
        28 003637   200043 633500                    EPPR3   LOP$,,AUTO
        28 003640   200323 453500                    STP3    COLLATING$+2,,AUTO
        28 003641   000046 236000 29                 LDQ     38
        28 003642   200322 756100                    STQ     COLLATING$+1,,AUTO
        28 003643   200322 630500                    EPPR0   COLLATING$+1,,AUTO
        28 003644   000036 631400 29                 EPPR1   30
        28 003645   000000 701000 xent               TSX1    Z8EV$CONVERT
        28 003646   000000 011000                    NOP     0

     1170    22114    4               CALL Z8EV$CONVERT (%TYD, ROP$, ROP$);

  22114 28 003647   200044 630500                    EPPR0   ROP$,,AUTO
        28 003650   200324 450500                    STP0    COLLATING$+3,,AUTO
        28 003651   200044 631500                    EPPR1   ROP$,,AUTO
        28 003652   200323 451500                    STP1    COLLATING$+2,,AUTO
PL6.E3A0      #001=Z8EK$OPTIMAL_BRANCHES File=Z8EK.:Z8A6TSI                      SAT 08/09/97 11:56 Page:202
        28 003653   000046 236000 29                 LDQ     38
        28 003654   200322 756100                    STQ     COLLATING$+1,,AUTO
        28 003655   200322 630500                    EPPR0   COLLATING$+1,,AUTO
        28 003656   000036 631400 29                 EPPR1   30
        28 003657   000000 701000 xent               TSX1    Z8EV$CONVERT
        28 003660   000000 011000                    NOP     0

     1171    22115    4               ID = %CMPD;

  22115 28 003661   000107 235007                    LDA     71,DL
        28 003662   200041 755100                    STA     ID,,AUTO

     1172    22116    4             END;

  22116 28 003663   003710 710000 28                 TRA     s:22137

     1173    22117
     1174    22118
     1175    22119    3          CASE(%TYR);

     1176    22120    3            ID = %CMPR;

  22120 28 003664   000112 236007                    LDQ     74,DL
        28 003665   200041 756100                    STQ     ID,,AUTO
        28 003666   003710 710000 28                 TRA     s:22137

     1177    22121
     1178    22122    3          CASE(%TYQ);

     1179    22123    3            ID = %CMPQ;

  22123 28 003667   000033 236007                    LDQ     27,DL
        28 003670   200041 756100                    STQ     ID,,AUTO
        28 003671   003710 710000 28                 TRA     s:22137

     1180    22124
     1181    22125    3          CASE(%TYA, %TYN);
PL6.E3A0      #001=Z8EK$OPTIMAL_BRANCHES File=Z8EK.:Z8A6TSI                      SAT 08/09/97 11:56 Page:203

     1182    22126    3            ID = %CMPA;

  22126 28 003672   000111 236007                    LDQ     73,DL
        28 003673   200041 756100                    STQ     ID,,AUTO
        28 003674   003710 710000 28                 TRA     s:22137

     1183    22127
     1184    22128    3          CASE(ELSE);

     1185    22129    3            CALL Z8AE$ERROR(%E$UNEXPECTED_CASE,

  22129 28 003675   200043 236100                    LDQ     LOP$,,AUTO
        28 003676   000006 036003                    ADLQ    6,DU
        28 003677   200324 756100                    STQ     COLLATING$+3,,AUTO
        28 003700   200043 236100                    LDQ     LOP$,,AUTO
        28 003701   000005 036003                    ADLQ    5,DU
        28 003702   000072 235000 29                 LDA     58
        28 003703   200322 757100                    STAQ    COLLATING$+1,,AUTO
        28 003704   200322 630500                    EPPR0   COLLATING$+1,,AUTO
        28 003705   000036 631400 29                 EPPR1   30
        28 003706   000000 701000 xent               TSX1    Z8AE$ERROR
        28 003707   000000 011000                    NOP     0

     1186    22130    3                            LOP$ -> LX_ITEM.LINE,
     1187    22131    3                            LOP$ -> LX_ITEM.COLUMN);
     1188    22132
     1189    22133    3        END /*V* Case */;

     1190    22134
     1191    22135
     1192    22136        %EJECT;
PL6.E3A0      #001=Z8EK$OPTIMAL_BRANCHES File=Z8EK.:Z8A6TSI                      SAT 08/09/97 11:56 Page:204
     1193    22137    3        DO CASE(ID);

  22137 28 003710   200041 235100                    LDA     ID,,AUTO
        28 003711   000111 135007                    SBLA    73,DL
        28 003712   000001 115007                    CMPA    1,DL
        28 003713   003715 602005 28                 TNC     s:22137+5,AL
        28 003714   004004 710000 28                 TRA     s:22169
        28 003715   003716 710000 28                 TRA     s:22141

     1194    22138
     1195    22139    3          CASE(%CMPA);

     1196    22140
     1197    22141    3            IF LOP$ -> LX_ETT_ITEM.B.ALL THEN

  22141 28 003716   200043 470500                    LDP0    LOP$,,AUTO
        28 003717   000000 236100                    LDQ     0,,PR0
        28 003720   040000 316007                    CANQ    16384,DL
        28 003721   003755 600000 28                 TZE     s:22157

     1198    22142    3              IF ROP$ -> LX_ETT_ITEM.B.ALL THEN

  22142 28 003722   200044 471500                    LDP1    ROP$,,AUTO
        28 003723   100000 236100                    LDQ     0,,PR1
        28 003724   040000 316007                    CANQ    16384,DL
        28 003725   003741 600000 28                 TZE     s:22150

     1199    22143    4                DO;

     1200    22144    4                  LOP$ -> LX_ETT_ITEM.B.ALL = FALSE;

  22144 28 003726   000001 236000 29                 LDQ     1
        28 003727   000000 356100                    ANSQ    0,,PR0

     1201    22145    4                  ROP$ -> LX_ETT_ITEM.B.ALL = FALSE;

  22145 28 003730   200044 470500                    LDP0    ROP$,,AUTO
PL6.E3A0      #001=Z8EK$OPTIMAL_BRANCHES File=Z8EK.:Z8A6TSI                      SAT 08/09/97 11:56 Page:205
        28 003731   000000 356100                    ANSQ    0,,PR0

     1202    22146    4                  CALL GEN_CMPA_WITH_OPT_CVT (LOP$, ROP$);

  22146 28 003732   200044 630500                    EPPR0   ROP$,,AUTO
        28 003733   200320 450500                    STP0    @LOP$+1,,AUTO
        28 003734   200043 631500                    EPPR1   LOP$,,AUTO
        28 003735   200317 451500                    STP1    COLLATING$+3,,AUTO
        28 003736   001217 701000 28                 TSX1    GEN_CMPA_WITH_OPT_CVT
        28 003737   000000 011000                    NOP     0

     1203    22147    4                END;

  22147 28 003740   004022 710000 28                 TRA     s:22179

     1204    22148    3              ELSE
     1205    22149    4                DO;

     1206    22150    4                  CALL CHECK_ALL_COMPARE (LOP$, ROP$, %CFILLR)

  22150 28 003741   000074 236000 29                 LDQ     60
        28 003742   200103 756100                    STQ     @ROP$+1,,AUTO
        28 003743   200044 633500                    EPPR3   ROP$,,AUTO
        28 003744   200102 453500                    STP3    REM_CHARS,,AUTO
        28 003745   200043 634500                    EPPR4   LOP$,,AUTO
        28 003746   200101 454500                    STP4    LOOP_COUNTER+7,,AUTO
        28 003747   001317 701000 28                 TSX1    CHECK_ALL_COMPARE
        28 003750   003752 702000 28                 TSX2    s:22153
        28 003751   003754 710000 28                 TRA     s:22155

     1207    22151    4                     WHENALTRETURN
     1208    22152    5                       DO;

     1209    22153    5                         ALTRETURN;

  22153 28 003752   200032 221300                    LDX1  ! TRANS_TABLE_ETT$+1,,AUTO
        28 003753   000000 702211                    TSX2  ! 0,X1
PL6.E3A0      #001=Z8EK$OPTIMAL_BRANCHES File=Z8EK.:Z8A6TSI                      SAT 08/09/97 11:56 Page:206

     1210    22154    5                       END;
     1211    22155    4                END;

  22155 28 003754   004022 710000 28                 TRA     s:22179

     1212    22156    3            ELSE
     1213    22157    3              IF ROP$ -> LX_ETT_ITEM.B.ALL THEN

  22157 28 003755   200044 471500                    LDP1    ROP$,,AUTO
        28 003756   100000 236100                    LDQ     0,,PR1
        28 003757   040000 316007                    CANQ    16384,DL
        28 003760   003775 600000 28                 TZE     s:22166

     1214    22158    4                DO;

     1215    22159    4                  CALL CHECK_ALL_COMPARE (ROP$, LOP$, %CFILL)

  22159 28 003761   000076 236000 29                 LDQ     62
        28 003762   200103 756100                    STQ     @ROP$+1,,AUTO
        28 003763   200043 633500                    EPPR3   LOP$,,AUTO
        28 003764   200102 453500                    STP3    REM_CHARS,,AUTO
        28 003765   200044 634500                    EPPR4   ROP$,,AUTO
        28 003766   200101 454500                    STP4    LOOP_COUNTER+7,,AUTO
        28 003767   001317 701000 28                 TSX1    CHECK_ALL_COMPARE
        28 003770   003772 702000 28                 TSX2    s:22162
        28 003771   003774 710000 28                 TRA     s:22164

     1216    22160    4                    WHENALTRETURN
     1217    22161    5                      DO;

     1218    22162    5                        ALTRETURN;

  22162 28 003772   200032 221300                    LDX1  ! TRANS_TABLE_ETT$+1,,AUTO
        28 003773   000000 702211                    TSX2  ! 0,X1

     1219    22163    5                      END;
PL6.E3A0      #001=Z8EK$OPTIMAL_BRANCHES File=Z8EK.:Z8A6TSI                      SAT 08/09/97 11:56 Page:207
     1220    22164    4                END;

  22164 28 003774   004022 710000 28                 TRA     s:22179

     1221    22165    3              ELSE
     1222    22166    3                CALL GEN_CMPA_WITH_OPT_CVT (LOP$, ROP$);

  22166 28 003775   200044 633500                    EPPR3   ROP$,,AUTO
        28 003776   200320 453500                    STP3    @LOP$+1,,AUTO
        28 003777   200043 634500                    EPPR4   LOP$,,AUTO
        28 004000   200317 454500                    STP4    COLLATING$+3,,AUTO
        28 004001   001217 701000 28                 TSX1    GEN_CMPA_WITH_OPT_CVT
        28 004002   000000 011000                    NOP     0
        28 004003   004022 710000 28                 TRA     s:22179

     1223    22167
     1224    22168    3          CASE(ELSE);

     1225    22169    3            CALL Z8AF$FORME(ID,

  22169 28 004004   200042 630500                    EPPR0   ETT$$,,AUTO
        28 004005   200325 450500                    STP0    COLLATING$+4,,AUTO
        28 004006   200044 236100                    LDQ     ROP$,,AUTO
        28 004007   000001 036003                    ADLQ    1,DU
        28 004010   200324 756100                    STQ     COLLATING$+3,,AUTO
        28 004011   200043 236100                    LDQ     LOP$,,AUTO
        28 004012   000001 036003                    ADLQ    1,DU
        28 004013   200323 756100                    STQ     COLLATING$+2,,AUTO
        28 004014   200041 631500                    EPPR1   ID,,AUTO
        28 004015   200322 451500                    STP1    COLLATING$+1,,AUTO
        28 004016   200322 630500                    EPPR0   COLLATING$+1,,AUTO
        28 004017   000003 631400 29                 EPPR1   3
        28 004020   000000 701000 xent               TSX1    Z8AF$FORME
        28 004021   000000 011000                    NOP     0

     1226    22170    3                            LOP$ -> LX_ETT_ITEM.ETT$,
     1227    22171    3                            ROP$ -> LX_ETT_ITEM.ETT$,
PL6.E3A0      #001=Z8EK$OPTIMAL_BRANCHES File=Z8EK.:Z8A6TSI                      SAT 08/09/97 11:56 Page:208
     1228    22172    3                            ETT$$);
     1229    22173    3        END /*V* Case */;

     1230    22174
     1231    22175             %INIT_LX_ETT_ITEM( @POINTER = RETURN$ ,
     1232    22176                                @TYPE    = LOP$ -> LX_ITEM.TYPE ,
     1233    22177                                @ETT$    = ETT$$);

  22179 28 004022   200034 470500                    LDP0    @RETURN$,,AUTO
        28 004023   000000 471500                    LDP1    0,,PR0
        28 004024   000004 220003                    LDX0    4,DU
        28 004025   100000 740100                    STX0    0,,PR1

  22180 28 004026   000000 471500                    LDP1    0,,PR0
        28 004027   000000 221003                    LDX1    0,DU
        28 004030   100000 441100                    SXL1    0,,PR1

  22181 28 004031   000000 471500                    LDP1    0,,PR0
        28 004032   200043 473500                    LDP3    LOP$,,AUTO
        28 004033   300004 235100                    LDA     4,,PR3
        28 004034   100004 755100                    STA     4,,PR1

  22182 28 004035   000000 471500                    LDP1    0,,PR0
        28 004036   000000 236000 29                 LDQ     0
        28 004037   100007 756100                    STQ     7,,PR1

  22183 28 004040   000000 471500                    LDP1    0,,PR0
        28 004041   200042 236100                    LDQ     ETT$$,,AUTO
        28 004042   100001 756100                    STQ     1,,PR1

  22184 28 004043   000000 471500                    LDP1    0,,PR0
        28 004044   000000 236000 29                 LDQ     0
        28 004045   100002 756100                    STQ     2,,PR1

  22186 28 004046   000000 471500                    LDP1    0,,PR0
        28 004047   000133 235000 xsym               LDA     COMCOM+91
        28 004050   100005 755100                    STA     5,,PR1
PL6.E3A0      #001=Z8EK$OPTIMAL_BRANCHES File=Z8EK.:Z8A6TSI                      SAT 08/09/97 11:56 Page:209

  22187 28 004051   000000 471500                    LDP1    0,,PR0
        28 004052   000134 235000 xsym               LDA     COMCOM+92
        28 004053   100006 755100                    STA     6,,PR1

     1234    22199
     1235    22200    2        RETURN;  /*V* Note ALTRETURNs above */

  22200 28 004054   200032 221300                    LDX1  ! TRANS_TABLE_ETT$+1,,AUTO
        28 004055   000001 702211                    TSX2  ! 1,X1

     1236    22201
     1237    22202    2   END GEN_COMPARISONS;
     1238    22203        %EJECT;
PL6.E3A0      #001=Z8EK$OPTIMAL_BRANCHES File=Z8EK.:Z8A6TSI                      SAT 08/09/97 11:56 Page:210
     1239    22204    1   SET_UP_BRA_TRUE_NUMERIC : PROC;

  22204 28 004056   200034 741300       SET_UP_BRA_* STX1  ! @RETURN$,,AUTO

     1240    22205
     1241    22206    2      CALL Z8AT$CREATE_TEMPORARY (%PARA,

  22206 28 004057   200030 630500                    EPPR0   TEMP_LAB$,,AUTO
        28 004060   200323 450500                    STP0    COLLATING$+2,,AUTO
        28 004061   000013 236000 29                 LDQ     11
        28 004062   200322 756100                    STQ     COLLATING$+1,,AUTO
        28 004063   200322 630500                    EPPR0   COLLATING$+1,,AUTO
        28 004064   000002 631400 29                 EPPR1   2
        28 004065   000000 701000 xent               TSX1    Z8AT$CREATE_TEMPORARY
        28 004066   000000 011000                    NOP     0

     1242    22207    2                                  TEMP_LAB$);
     1243    22208
     1244    22209    2      CALL SET_UP_BRA_FALSE_NUMERIC;

  22209 28 004067   005055 701000 28                 TSX1    SET_UP_BRA_FALSE_NUMERIC
        28 004070   000000 011000                    NOP     0

     1245    22210
     1246    22211    2   END SET_UP_BRA_TRUE_NUMERIC;

  22211 28 004071   200034 221300                    LDX1  ! @RETURN$,,AUTO
        28 004072   000001 702211                    TSX2  ! 1,X1

     1247    22212        %EJECT;
PL6.E3A0      #001=Z8EK$OPTIMAL_BRANCHES File=Z8EK.:Z8A6TSI                      SAT 08/09/97 11:56 Page:211
     1248    22213    1   BRA_TRUE_LEADING_SIGN_NUMERIC : PROC (LABEL$);

  22213 28 004073   200034 741300       BRA_TRUE_LE* STX1  ! @RETURN$,,AUTO

     1249    22214
     1250    22215    2      DCL LABEL$ PTR;
     1251    22216
     1252    22217    2          IF TYPE_DESC.DESC.NDSC.TN = %NDSC4 THEN

  22217 28 004074   200024 236100                    LDQ     TYPE_DESC+1,,AUTO
        28 004075   040000 316007                    CANQ    16384,DL
        28 004076   004133 600000 28                 TZE     s:22229

     1253    22218    3            DO;

     1254    22219    3              TYPE_DESC.DESC.NDSC.S = '00'B;

  22219 28 004077   000077 236000 29                 LDQ     63
        28 004100   200024 356100                    ANSQ    TYPE_DESC+1,,AUTO

     1255    22220    3              TYPE_DESC.DESC.NDSC.SF = 0;

  22220 28 004101   000000 236003                    LDQ     0,DU
        28 004102   200024 752102                    STCQ    TYPE_DESC+1,'02'O,AUTO

     1256    22221    3              CALL Z8AF$FORME ( %DNA,

  22221 28 004103   200004 470500                    LDP0    @NODE$,,AUTO
        28 004104   000000 471500                    LDP1    0,,PR0
        28 004105   100001 473500                    LDP3    1,,PR1
        28 004106   200017 634500                    EPPR4   ETT$$,,AUTO
        28 004107   200325 454500                    STP4    COLLATING$+4,,AUTO
        28 004110   200024 631500                    EPPR1   TYPE_DESC+1,,AUTO
        28 004111   200324 451500                    STP1    COLLATING$+3,,AUTO
        28 004112   300001 635500                    EPPR5   1,,PR3
        28 004113   200323 455500                    STP5    COLLATING$+2,,AUTO
        28 004114   000101 236000 29                 LDQ     65
PL6.E3A0      #001=Z8EK$OPTIMAL_BRANCHES File=Z8EK.:Z8A6TSI                      SAT 08/09/97 11:56 Page:212
        28 004115   200322 756100                    STQ     COLLATING$+1,,AUTO
        28 004116   200322 630500                    EPPR0   COLLATING$+1,,AUTO
        28 004117   000003 631400 29                 EPPR1   3
        28 004120   000000 701000 xent               TSX1    Z8AF$FORME
        28 004121   000000 011000                    NOP     0

     1257    22222    3                                NODE$-> UNARY_OP.LOP$-> LX_ETT_ITEM.ETT$,
     1258    22223    3                                TYPE_DESC.DESC,
     1259    22224    3                                ETT$$     );
     1260    22225    3              NODE$-> UNARY_OP.LOP$-> LX_ETT_ITEM.ETT$ = ETT$$;

  22225 28 004122   200004 470500                    LDP0    @NODE$,,AUTO
        28 004123   000000 471500                    LDP1    0,,PR0
        28 004124   100001 473500                    LDP3    1,,PR1
        28 004125   200017 236100                    LDQ     ETT$$,,AUTO
        28 004126   300001 756100                    STQ     1,,PR3

     1261    22226    3              NODE$-> UNARY_OP.LOP$-> LX_ETT_ITEM.TYPE = %TYA;

  22226 28 004127   000000 471500                    LDP1    0,,PR0
        28 004130   100001 473500                    LDP3    1,,PR1
        28 004131   000010 235007                    LDA     8,DL
        28 004132   300004 755100                    STA     4,,PR3

     1262    22227    3            END; /*V* if %ndsc4 */

     1263    22228
     1264    22229    2          CALL Z8EY$SUBSTR (NODE$ -> UNARY_OP.LOP$,

  22229 28 004133   200004 470500                    LDP0    @NODE$,,AUTO
        28 004134   000000 471500                    LDP1    0,,PR0
        28 004135   000024 236000 29                 LDQ     20
        28 004136   200322 756100                    STQ     COLLATING$+1,,AUTO
        28 004137   200323 756100                    STQ     COLLATING$+2,,AUTO
        28 004140   000102 236000 29                 LDQ     66
        28 004141   200324 756100                    STQ     COLLATING$+3,,AUTO
        28 004142   200324 633500                    EPPR3   COLLATING$+3,,AUTO
PL6.E3A0      #001=Z8EK$OPTIMAL_BRANCHES File=Z8EK.:Z8A6TSI                      SAT 08/09/97 11:56 Page:213
        28 004143   200331 453500                    STP3    COLLATING$+8,,AUTO
        28 004144   200323 634500                    EPPR4   COLLATING$+2,,AUTO
        28 004145   200330 454500                    STP4    COLLATING$+7,,AUTO
        28 004146   200322 635500                    EPPR5   COLLATING$+1,,AUTO
        28 004147   200327 455500                    STP5    COLLATING$+6,,AUTO
        28 004150   100001 636500                    EPPR6   1,,PR1
        28 004151   200326 456500                    STP6    COLLATING$+5,,AUTO
        28 004152   200326 630500                    EPPR0   COLLATING$+5,,AUTO
        28 004153   000003 631400 29                 EPPR1   3
        28 004154   000000 701000 xent               TSX1    Z8EY$SUBSTR
        28 004155   000000 011000                    NOP     0

     1265    22230    2                            ADDR(ONE),
     1266    22231    2                            ADDR(ONE),
     1267    22232    2                            ADDR(TEMP_EXPRESSION));
     1268    22233
     1269    22234               %NEW_ILL (@ID = %LINOI);

  22267 28 004156   000017 236000 29                 LDQ     15
        28 004157   200322 756100                    STQ     COLLATING$+1,,AUTO
        28 004160   200322 630500                    EPPR0   COLLATING$+1,,AUTO
        28 004161   200327 450500                    STP0    COLLATING$+6,,AUTO
        28 004162   000020 236000 29                 LDQ     16
        28 004163   200326 756100                    STQ     COLLATING$+5,,AUTO
        28 004164   000104 237000 29                 LDAQ    68
        28 004165   200324 757100                    STAQ    COLLATING$+3,,AUTO
        28 004166   200324 630500                    EPPR0   COLLATING$+3,,AUTO
        28 004167   000003 631400 29                 EPPR1   3
        28 004170   000000 701000 xent               TSX1    Z8AN$NEW_ILL
        28 004171   000000 011000                    NOP     0

     1270    22613    2          IF TYPE_DESC.DESC.NDSC.TN = %NDSC4 THEN

  22613 28 004172   200024 236100                    LDQ     TYPE_DESC+1,,AUTO
        28 004173   040000 316007                    CANQ    16384,DL
        28 004174   004247 600000 28                 TZE     s:23005

PL6.E3A0      #001=Z8EK$OPTIMAL_BRANCHES File=Z8EK.:Z8A6TSI                      SAT 08/09/97 11:56 Page:214
     1271    22614    3            DO; /* Packed decimal */

     1272    22615    3              CALL Z8AC$MAKE_TYA_CONST (%BITASC ('240'O), 1, 0, ETT$$);

  22615 28 004175   200017 630500                    EPPR0   ETT$$,,AUTO
        28 004176   200325 450500                    STP0    COLLATING$+4,,AUTO
        28 004177   000046 236000 29                 LDQ     38
        28 004200   200324 756100                    STQ     COLLATING$+3,,AUTO
        28 004201   000110 237000 29                 LDAQ    72
        28 004202   200322 757100                    STAQ    COLLATING$+1,,AUTO
        28 004203   200322 630500                    EPPR0   COLLATING$+1,,AUTO
        28 004204   000003 631400 29                 EPPR1   3
        28 004205   000000 701000 xent               TSX1    Z8AC$MAKE_TYA_CONST
        28 004206   000000 011000                    NOP     0

     1273    22616    3              CALL Z8AF$FORME (%CMPA,

  22616 28 004207   200017 630500                    EPPR0   ETT$$,,AUTO
        28 004210   200325 450500                    STP0    COLLATING$+4,,AUTO
        28 004211   200017 631500                    EPPR1   ETT$$,,AUTO
        28 004212   200324 451500                    STP1    COLLATING$+3,,AUTO
        28 004213   000112 237000 29                 LDAQ    74
        28 004214   200322 757100                    STAQ    COLLATING$+1,,AUTO
        28 004215   200322 630500                    EPPR0   COLLATING$+1,,AUTO
        28 004216   000003 631400 29                 EPPR1   3
        28 004217   000000 701000 xent               TSX1    Z8AF$FORME
        28 004220   000000 011000                    NOP     0

     1274    22617    3                               ADDR(TEMP_EXPRESSION) -> LX_ETT_ITEM.ETT$,
     1275    22618    3                               ETT$$,
     1276    22619    3                               ETT$$);
     1277    22620                   %NEW_ILL (@ID = %GO,
     1278    22621                             @CODE = %GO_LESS_THAN,
     1279    22622                             @EXPR$ = ETT$$,
     1280    22623                             @LABEL$ = LABEL$);

  22784 28 004221   000017 236000 29                 LDQ     15
PL6.E3A0      #001=Z8EK$OPTIMAL_BRANCHES File=Z8EK.:Z8A6TSI                      SAT 08/09/97 11:56 Page:215
        28 004222   200322 756100                    STQ     COLLATING$+1,,AUTO
        28 004223   200322 630500                    EPPR0   COLLATING$+1,,AUTO
        28 004224   200327 450500                    STP0    COLLATING$+6,,AUTO
        28 004225   000020 236000 29                 LDQ     16
        28 004226   200326 756100                    STQ     COLLATING$+5,,AUTO
        28 004227   000116 237000 29                 LDAQ    78
        28 004230   200324 757100                    STAQ    COLLATING$+3,,AUTO
        28 004231   200324 630500                    EPPR0   COLLATING$+3,,AUTO
        28 004232   000003 631400 29                 EPPR1   3
        28 004233   000000 701000 xent               TSX1    Z8AN$NEW_ILL
        28 004234   000000 011000                    NOP     0

  22785 28 004235   000001 220003                    LDX0    1,DU
        28 004236   000000 470400 7                  LDP0    ILL$
        28 004237   000000 440100                    SXL0    0,,PR0

  22786 28 004240   200035 470500                    LDP0    @LABEL$,,AUTO
        28 004241   000000 236100                    LDQ     0,,PR0
        28 004242   000000 471400 7                  LDP1    ILL$
        28 004243   100001 756100                    STQ     1,,PR1

  22787 28 004244   200017 236100                    LDQ     ETT$$,,AUTO
        28 004245   100002 756100                    STQ     2,,PR1

     1281    23002    3            END;

  23002 28 004246   004335 710000 28                 TRA     s:23401

     1282    23003    2          ELSE /* ASCII or overpunched */
     1283    23004    3            DO;

     1284    23005    3              IF NODE$-> UNARY_OP.LOP$-> LX_ETT_ITEM.TYPE = %TYO THEN

  23005 28 004247   200004 470500                    LDP0    @NODE$,,AUTO
        28 004250   000000 471500                    LDP1    0,,PR0
        28 004251   100001 473500                    LDP3    1,,PR1
        28 004252   300004 235100                    LDA     4,,PR3
PL6.E3A0      #001=Z8EK$OPTIMAL_BRANCHES File=Z8EK.:Z8A6TSI                      SAT 08/09/97 11:56 Page:216
        28 004253   000003 115007                    CMPA    3,DL
        28 004254   004266 601000 28                 TNZ     s:23009

     1285    23006    3                CALL Z8CO$CREATE_LIBRARY_BASE (%OP_CLASS_OVERPUNCHED_SIGN,

  23006 28 004255   200031 634500                    EPPR4   TRANS_TABLE_ETT$,,AUTO
        28 004256   200323 454500                    STP4    COLLATING$+2,,AUTO
        28 004257   000120 236000 29                 LDQ     80
        28 004260   200322 756100                    STQ     COLLATING$+1,,AUTO
        28 004261   200322 630500                    EPPR0   COLLATING$+1,,AUTO
        28 004262   000002 631400 29                 EPPR1   2
        28 004263   000000 701000 xent               TSX1    Z8CO$CREATE_LIBRARY_BASE
        28 004264   000000 011000                    NOP     0
        28 004265   004276 710000 28                 TRA     s:23012

     1286    23007    3                                               TRANS_TABLE_ETT$);
     1287    23008    3              ELSE
     1288    23009    3                CALL Z8CO$CREATE_LIBRARY_BASE (%OP_CLASS_DECIMAL_SIGN,

  23009 28 004266   200031 634500                    EPPR4   TRANS_TABLE_ETT$,,AUTO
        28 004267   200323 454500                    STP4    COLLATING$+2,,AUTO
        28 004270   000122 236000 29                 LDQ     82
        28 004271   200322 756100                    STQ     COLLATING$+1,,AUTO
        28 004272   200322 630500                    EPPR0   COLLATING$+1,,AUTO
        28 004273   000002 631400 29                 EPPR1   2
        28 004274   000000 701000 xent               TSX1    Z8CO$CREATE_LIBRARY_BASE
        28 004275   000000 011000                    NOP     0

     1289    23010    3                                               TRANS_TABLE_ETT$       );
     1290    23011
     1291    23012    3              CALL Z8AF$FORME (%CMPC,

  23012 28 004276   200017 630500                    EPPR0   ETT$$,,AUTO
        28 004277   200325 450500                    STP0    COLLATING$+4,,AUTO
        28 004300   200031 631500                    EPPR1   TRANS_TABLE_ETT$,,AUTO
        28 004301   200324 451500                    STP1    COLLATING$+3,,AUTO
        28 004302   000124 237000 29                 LDAQ    84
PL6.E3A0      #001=Z8EK$OPTIMAL_BRANCHES File=Z8EK.:Z8A6TSI                      SAT 08/09/97 11:56 Page:217
        28 004303   200322 757100                    STAQ    COLLATING$+1,,AUTO
        28 004304   200322 630500                    EPPR0   COLLATING$+1,,AUTO
        28 004305   000003 631400 29                 EPPR1   3
        28 004306   000000 701000 xent               TSX1    Z8AF$FORME
        28 004307   000000 011000                    NOP     0

     1292    23013    3                               ADDR(TEMP_EXPRESSION) -> LX_ETT_ITEM.ETT$,
     1293    23014    3                               TRANS_TABLE_ETT$,
     1294    23015    3                               ETT$$);
     1295    23016
     1296    23017                   %NEW_ILL (@ID = %GO,
     1297    23018                             @CODE = %GO_NOT_CLASS,
     1298    23019                             @EXPR$ = ETT$$,
     1299    23020                             @LABEL$ = LABEL$);

  23181 28 004310   000017 236000 29                 LDQ     15
        28 004311   200322 756100                    STQ     COLLATING$+1,,AUTO
        28 004312   200322 630500                    EPPR0   COLLATING$+1,,AUTO
        28 004313   200327 450500                    STP0    COLLATING$+6,,AUTO
        28 004314   000020 236000 29                 LDQ     16
        28 004315   200326 756100                    STQ     COLLATING$+5,,AUTO
        28 004316   000116 237000 29                 LDAQ    78
        28 004317   200324 757100                    STAQ    COLLATING$+3,,AUTO
        28 004320   200324 630500                    EPPR0   COLLATING$+3,,AUTO
        28 004321   000003 631400 29                 EPPR1   3
        28 004322   000000 701000 xent               TSX1    Z8AN$NEW_ILL
        28 004323   000000 011000                    NOP     0

  23182 28 004324   000014 220003                    LDX0    12,DU
        28 004325   000000 470400 7                  LDP0    ILL$
        28 004326   000000 440100                    SXL0    0,,PR0

  23183 28 004327   200035 470500                    LDP0    @LABEL$,,AUTO
        28 004330   000000 236100                    LDQ     0,,PR0
        28 004331   000000 471400 7                  LDP1    ILL$
        28 004332   100001 756100                    STQ     1,,PR1

PL6.E3A0      #001=Z8EK$OPTIMAL_BRANCHES File=Z8EK.:Z8A6TSI                      SAT 08/09/97 11:56 Page:218
  23184 28 004333   200017 236100                    LDQ     ETT$$,,AUTO
        28 004334   100002 756100                    STQ     2,,PR1

     1300    23399    3            END;

     1301    23400
     1302    23401    2          CALL Z8AC$LX_ETT_ITEM_TYI_CONST (2, ADDR(TWO));

  23401 28 004335   000127 236000 29                 LDQ     87
        28 004336   200322 756100                    STQ     COLLATING$+1,,AUTO
        28 004337   200322 633500                    EPPR3   COLLATING$+1,,AUTO
        28 004340   200325 453500                    STP3    COLLATING$+4,,AUTO
        28 004341   000130 236000 29                 LDQ     88
        28 004342   200324 756100                    STQ     COLLATING$+3,,AUTO
        28 004343   200324 630500                    EPPR0   COLLATING$+3,,AUTO
        28 004344   000002 631400 29                 EPPR1   2
        28 004345   000000 701000 xent               TSX1    Z8AC$LX_ETT_ITEM_TYI_CONST
        28 004346   000000 011000                    NOP     0

     1303    23402
     1304    23403    2          CALL Z8EY$SUBSTR (NODE$ -> UNARY_OP.LOP$,

  23403 28 004347   200004 470500                    LDP0    @NODE$,,AUTO
        28 004350   000000 471500                    LDP1    0,,PR0
        28 004351   000127 236000 29                 LDQ     87
        28 004352   200322 756100                    STQ     COLLATING$+1,,AUTO
        28 004353   000131 236000 29                 LDQ     89
        28 004354   200323 756100                    STQ     COLLATING$+2,,AUTO
        28 004355   000102 236000 29                 LDQ     66
        28 004356   200324 756100                    STQ     COLLATING$+3,,AUTO
        28 004357   200324 633500                    EPPR3   COLLATING$+3,,AUTO
        28 004360   200331 453500                    STP3    COLLATING$+8,,AUTO
        28 004361   200323 634500                    EPPR4   COLLATING$+2,,AUTO
        28 004362   200330 454500                    STP4    COLLATING$+7,,AUTO
        28 004363   200322 635500                    EPPR5   COLLATING$+1,,AUTO
        28 004364   200327 455500                    STP5    COLLATING$+6,,AUTO
        28 004365   100001 636500                    EPPR6   1,,PR1
PL6.E3A0      #001=Z8EK$OPTIMAL_BRANCHES File=Z8EK.:Z8A6TSI                      SAT 08/09/97 11:56 Page:219
        28 004366   200326 456500                    STP6    COLLATING$+5,,AUTO
        28 004367   200326 630500                    EPPR0   COLLATING$+5,,AUTO
        28 004370   000003 631400 29                 EPPR1   3
        28 004371   000000 701000 xent               TSX1    Z8EY$SUBSTR
        28 004372   000000 011000                    NOP     0

     1305    23404    2                            ADDR(TWO),
     1306    23405    2                            ADDR(LENGTH_MINUS_1),
     1307    23406    2                            ADDR(TEMP_EXPRESSION));
     1308    23407
     1309    23408
     1310    23409    2          IF TYPE_DESC.DESC.NDSC.TN = %NDSC9 THEN

  23409 28 004373   200024 236100                    LDQ     TYPE_DESC+1,,AUTO
        28 004374   040000 316007                    CANQ    16384,DL
        28 004375   004407 601000 28                 TNZ     s:23413

     1311    23410    2            CALL Z8CO$CREATE_LIBRARY_BASE (%OP_CLASS_NUMERIC,

  23410 28 004376   200031 630500                    EPPR0   TRANS_TABLE_ETT$,,AUTO
        28 004377   200323 450500                    STP0    COLLATING$+2,,AUTO
        28 004400   000133 236000 29                 LDQ     91
        28 004401   200322 756100                    STQ     COLLATING$+1,,AUTO
        28 004402   200322 630500                    EPPR0   COLLATING$+1,,AUTO
        28 004403   000002 631400 29                 EPPR1   2
        28 004404   000000 701000 xent               TSX1    Z8CO$CREATE_LIBRARY_BASE
        28 004405   000000 011000                    NOP     0
        28 004406   004421 710000 28                 TRA     s:23417

     1312    23411    2                                           TRANS_TABLE_ETT$);
     1313    23412    2          ELSE                         /*V* %NDSC4 */
     1314    23413    2            CALL Z8AC$MAKE_TYA_CONST ( DIGIT_TABLE, 16, 0,

  23413 28 004407   200031 630500                    EPPR0   TRANS_TABLE_ETT$,,AUTO
        28 004410   200325 450500                    STP0    COLLATING$+4,,AUTO
        28 004411   000046 236000 29                 LDQ     38
        28 004412   200324 756100                    STQ     COLLATING$+3,,AUTO
PL6.E3A0      #001=Z8EK$OPTIMAL_BRANCHES File=Z8EK.:Z8A6TSI                      SAT 08/09/97 11:56 Page:220
        28 004413   000136 237000 29                 LDAQ    94
        28 004414   200322 757100                    STAQ    COLLATING$+1,,AUTO
        28 004415   200322 630500                    EPPR0   COLLATING$+1,,AUTO
        28 004416   000003 631400 29                 EPPR1   3
        28 004417   000000 701000 xent               TSX1    Z8AC$MAKE_TYA_CONST
        28 004420   000000 011000                    NOP     0

     1315    23414    2                                       TRANS_TABLE_ETT$   );
     1316    23415
     1317    23416
     1318    23417    2          CALL Z8AF$FORME (%CMPC,

  23417 28 004421   200017 630500                    EPPR0   ETT$$,,AUTO
        28 004422   200325 450500                    STP0    COLLATING$+4,,AUTO
        28 004423   200031 631500                    EPPR1   TRANS_TABLE_ETT$,,AUTO
        28 004424   200324 451500                    STP1    COLLATING$+3,,AUTO
        28 004425   000124 237000 29                 LDAQ    84
        28 004426   200322 757100                    STAQ    COLLATING$+1,,AUTO
        28 004427   200322 630500                    EPPR0   COLLATING$+1,,AUTO
        28 004430   000003 631400 29                 EPPR1   3
        28 004431   000000 701000 xent               TSX1    Z8AF$FORME
        28 004432   000000 011000                    NOP     0

     1319    23418    2                           ADDR(TEMP_EXPRESSION) -> LX_ETT_ITEM.ETT$,
     1320    23419    2                           TRANS_TABLE_ETT$,
     1321    23420    2                           ETT$$);
     1322    23421
     1323    23422    2   END BRA_TRUE_LEADING_SIGN_NUMERIC;

  23422 28 004433   200034 221300                    LDX1  ! @RETURN$,,AUTO
        28 004434   000001 702211                    TSX2  ! 1,X1

     1324    23423        %EJECT;
PL6.E3A0      #001=Z8EK$OPTIMAL_BRANCHES File=Z8EK.:Z8A6TSI                      SAT 08/09/97 11:56 Page:221
     1325    23424    1   BRA_TRUE_TRAILING_SIGN_NUMERIC : PROC (LABEL$);

  23424 28 004435   200034 741300       BRA_TRUE_TR* STX1  ! @RETURN$,,AUTO

     1326    23425
     1327    23426    2     DCL LABEL$ PTR;
     1328    23427
     1329    23428
     1330    23429
     1331    23430    2          IF TYPE_DESC.DESC.NDSC.TN = %NDSC4 THEN

  23430 28 004436   200024 236100                    LDQ     TYPE_DESC+1,,AUTO
        28 004437   040000 316007                    CANQ    16384,DL
        28 004440   004475 600000 28                 TZE     s:23442

     1332    23431    3            DO;

     1333    23432    3              TYPE_DESC.DESC.NDSC.S = '00'B;

  23432 28 004441   000077 236000 29                 LDQ     63
        28 004442   200024 356100                    ANSQ    TYPE_DESC+1,,AUTO

     1334    23433    3              TYPE_DESC.DESC.NDSC.SF = 0;

  23433 28 004443   000000 236003                    LDQ     0,DU
        28 004444   200024 752102                    STCQ    TYPE_DESC+1,'02'O,AUTO

     1335    23434    3              CALL Z8AF$FORME ( %DNA,

  23434 28 004445   200004 470500                    LDP0    @NODE$,,AUTO
        28 004446   000000 471500                    LDP1    0,,PR0
        28 004447   100001 473500                    LDP3    1,,PR1
        28 004450   200017 634500                    EPPR4   ETT$$,,AUTO
        28 004451   200325 454500                    STP4    COLLATING$+4,,AUTO
        28 004452   200024 631500                    EPPR1   TYPE_DESC+1,,AUTO
        28 004453   200324 451500                    STP1    COLLATING$+3,,AUTO
        28 004454   300001 635500                    EPPR5   1,,PR3
PL6.E3A0      #001=Z8EK$OPTIMAL_BRANCHES File=Z8EK.:Z8A6TSI                      SAT 08/09/97 11:56 Page:222
        28 004455   200323 455500                    STP5    COLLATING$+2,,AUTO
        28 004456   000101 236000 29                 LDQ     65
        28 004457   200322 756100                    STQ     COLLATING$+1,,AUTO
        28 004460   200322 630500                    EPPR0   COLLATING$+1,,AUTO
        28 004461   000003 631400 29                 EPPR1   3
        28 004462   000000 701000 xent               TSX1    Z8AF$FORME
        28 004463   000000 011000                    NOP     0

     1336    23435    3                                NODE$-> UNARY_OP.LOP$-> LX_ETT_ITEM.ETT$,
     1337    23436    3                                TYPE_DESC.DESC,
     1338    23437    3                                ETT$$     );
     1339    23438    3              NODE$-> UNARY_OP.LOP$-> LX_ETT_ITEM.ETT$ = ETT$$;

  23438 28 004464   200004 470500                    LDP0    @NODE$,,AUTO
        28 004465   000000 471500                    LDP1    0,,PR0
        28 004466   100001 473500                    LDP3    1,,PR1
        28 004467   200017 236100                    LDQ     ETT$$,,AUTO
        28 004470   300001 756100                    STQ     1,,PR3

     1340    23439    3              NODE$-> UNARY_OP.LOP$-> LX_ETT_ITEM.TYPE = %TYA;

  23439 28 004471   000000 471500                    LDP1    0,,PR0
        28 004472   100001 473500                    LDP3    1,,PR1
        28 004473   000010 235007                    LDA     8,DL
        28 004474   300004 755100                    STA     4,,PR3

     1341    23440    3            END; /*V* if %ndsc4 */

     1342    23441
     1343    23442    2          CALL Z8EY$SUBSTR(NODE$ -> UNARY_OP.LOP$,

  23442 28 004475   200004 470500                    LDP0    @NODE$,,AUTO
        28 004476   000000 471500                    LDP1    0,,PR0
        28 004477   000024 236000 29                 LDQ     20
        28 004500   200322 756100                    STQ     COLLATING$+1,,AUTO
        28 004501   000131 236000 29                 LDQ     89
        28 004502   200323 756100                    STQ     COLLATING$+2,,AUTO
PL6.E3A0      #001=Z8EK$OPTIMAL_BRANCHES File=Z8EK.:Z8A6TSI                      SAT 08/09/97 11:56 Page:223
        28 004503   000102 236000 29                 LDQ     66
        28 004504   200324 756100                    STQ     COLLATING$+3,,AUTO
        28 004505   200324 633500                    EPPR3   COLLATING$+3,,AUTO
        28 004506   200331 453500                    STP3    COLLATING$+8,,AUTO
        28 004507   200323 634500                    EPPR4   COLLATING$+2,,AUTO
        28 004510   200330 454500                    STP4    COLLATING$+7,,AUTO
        28 004511   200322 635500                    EPPR5   COLLATING$+1,,AUTO
        28 004512   200327 455500                    STP5    COLLATING$+6,,AUTO
        28 004513   100001 636500                    EPPR6   1,,PR1
        28 004514   200326 456500                    STP6    COLLATING$+5,,AUTO
        28 004515   200326 630500                    EPPR0   COLLATING$+5,,AUTO
        28 004516   000003 631400 29                 EPPR1   3
        28 004517   000000 701000 xent               TSX1    Z8EY$SUBSTR
        28 004520   000000 011000                    NOP     0

     1344    23443    2                           ADDR(ONE),
     1345    23444    2                           ADDR(LENGTH_MINUS_1),
     1346    23445    2                           ADDR(TEMP_EXPRESSION));
     1347    23446
     1348    23447    2          IF TYPE_DESC.DESC.NDSC.TN = %NDSC9 THEN

  23447 28 004521   200024 236100                    LDQ     TYPE_DESC+1,,AUTO
        28 004522   040000 316007                    CANQ    16384,DL
        28 004523   004535 601000 28                 TNZ     s:23451

     1349    23448    2            CALL Z8CO$CREATE_LIBRARY_BASE (%OP_CLASS_NUMERIC,

  23448 28 004524   200031 630500                    EPPR0   TRANS_TABLE_ETT$,,AUTO
        28 004525   200323 450500                    STP0    COLLATING$+2,,AUTO
        28 004526   000133 236000 29                 LDQ     91
        28 004527   200322 756100                    STQ     COLLATING$+1,,AUTO
        28 004530   200322 630500                    EPPR0   COLLATING$+1,,AUTO
        28 004531   000002 631400 29                 EPPR1   2
        28 004532   000000 701000 xent               TSX1    Z8CO$CREATE_LIBRARY_BASE
        28 004533   000000 011000                    NOP     0
        28 004534   004547 710000 28                 TRA     s:23454

PL6.E3A0      #001=Z8EK$OPTIMAL_BRANCHES File=Z8EK.:Z8A6TSI                      SAT 08/09/97 11:56 Page:224
     1350    23449    2                                           TRANS_TABLE_ETT$);
     1351    23450    2          ELSE                         /*V* %NDSC4 */
     1352    23451    2            CALL Z8AC$MAKE_TYA_CONST ( DIGIT_TABLE, 16, 0,

  23451 28 004535   200031 630500                    EPPR0   TRANS_TABLE_ETT$,,AUTO
        28 004536   200325 450500                    STP0    COLLATING$+4,,AUTO
        28 004537   000046 236000 29                 LDQ     38
        28 004540   200324 756100                    STQ     COLLATING$+3,,AUTO
        28 004541   000136 237000 29                 LDAQ    94
        28 004542   200322 757100                    STAQ    COLLATING$+1,,AUTO
        28 004543   200322 630500                    EPPR0   COLLATING$+1,,AUTO
        28 004544   000003 631400 29                 EPPR1   3
        28 004545   000000 701000 xent               TSX1    Z8AC$MAKE_TYA_CONST
        28 004546   000000 011000                    NOP     0

     1353    23452    2                                       TRANS_TABLE_ETT$   );
     1354    23453
     1355    23454    2          CALL Z8AF$FORME (%CMPC,

  23454 28 004547   200017 630500                    EPPR0   ETT$$,,AUTO
        28 004550   200325 450500                    STP0    COLLATING$+4,,AUTO
        28 004551   200031 631500                    EPPR1   TRANS_TABLE_ETT$,,AUTO
        28 004552   200324 451500                    STP1    COLLATING$+3,,AUTO
        28 004553   000124 237000 29                 LDAQ    84
        28 004554   200322 757100                    STAQ    COLLATING$+1,,AUTO
        28 004555   200322 630500                    EPPR0   COLLATING$+1,,AUTO
        28 004556   000003 631400 29                 EPPR1   3
        28 004557   000000 701000 xent               TSX1    Z8AF$FORME
        28 004560   000000 011000                    NOP     0

     1356    23455    2                           ADDR(TEMP_EXPRESSION) -> LX_ETT_ITEM.ETT$,
     1357    23456    2                           TRANS_TABLE_ETT$,
     1358    23457    2                           ETT$$);
     1359    23458
     1360    23459               %NEW_ILL (@ID = %LINOI);

  23492 28 004561   000017 236000 29                 LDQ     15
PL6.E3A0      #001=Z8EK$OPTIMAL_BRANCHES File=Z8EK.:Z8A6TSI                      SAT 08/09/97 11:56 Page:225
        28 004562   200322 756100                    STQ     COLLATING$+1,,AUTO
        28 004563   200322 630500                    EPPR0   COLLATING$+1,,AUTO
        28 004564   200327 450500                    STP0    COLLATING$+6,,AUTO
        28 004565   000020 236000 29                 LDQ     16
        28 004566   200326 756100                    STQ     COLLATING$+5,,AUTO
        28 004567   000104 237000 29                 LDAQ    68
        28 004570   200324 757100                    STAQ    COLLATING$+3,,AUTO
        28 004571   200324 630500                    EPPR0   COLLATING$+3,,AUTO
        28 004572   000003 631400 29                 EPPR1   3
        28 004573   000000 701000 xent               TSX1    Z8AN$NEW_ILL
        28 004574   000000 011000                    NOP     0

     1361    23838               %NEW_ILL (@ID = %GO,
     1362    23839                         @CODE = %GO_NOT_CLASS,
     1363    23840                         @EXPR$ = ETT$$,
     1364    23841                         @LABEL$ = LABEL$);

  24002 28 004575   000017 236000 29                 LDQ     15
        28 004576   200322 756100                    STQ     COLLATING$+1,,AUTO
        28 004577   200322 630500                    EPPR0   COLLATING$+1,,AUTO
        28 004600   200327 450500                    STP0    COLLATING$+6,,AUTO
        28 004601   000020 236000 29                 LDQ     16
        28 004602   200326 756100                    STQ     COLLATING$+5,,AUTO
        28 004603   000116 237000 29                 LDAQ    78
        28 004604   200324 757100                    STAQ    COLLATING$+3,,AUTO
        28 004605   200324 630500                    EPPR0   COLLATING$+3,,AUTO
        28 004606   000003 631400 29                 EPPR1   3
        28 004607   000000 701000 xent               TSX1    Z8AN$NEW_ILL
        28 004610   000000 011000                    NOP     0

  24003 28 004611   000014 220003                    LDX0    12,DU
        28 004612   000000 470400 7                  LDP0    ILL$
        28 004613   000000 440100                    SXL0    0,,PR0

  24004 28 004614   200035 470500                    LDP0    @LABEL$,,AUTO
        28 004615   000000 236100                    LDQ     0,,PR0
        28 004616   000000 471400 7                  LDP1    ILL$
PL6.E3A0      #001=Z8EK$OPTIMAL_BRANCHES File=Z8EK.:Z8A6TSI                      SAT 08/09/97 11:56 Page:226
        28 004617   100001 756100                    STQ     1,,PR1

  24005 28 004620   200017 236100                    LDQ     ETT$$,,AUTO
        28 004621   100002 756100                    STQ     2,,PR1

     1365    24220
     1366    24221    2          CALL Z8EY$SUBSTR (NODE$ -> UNARY_OP.LOP$,

  24221 28 004622   200004 473500                    LDP3    @NODE$,,AUTO
        28 004623   300000 474500                    LDP4    0,,PR3
        28 004624   000135 236000 29                 LDQ     93
        28 004625   200322 756100                    STQ     COLLATING$+1,,AUTO
        28 004626   000024 236000 29                 LDQ     20
        28 004627   200323 756100                    STQ     COLLATING$+2,,AUTO
        28 004630   000102 236000 29                 LDQ     66
        28 004631   200324 756100                    STQ     COLLATING$+3,,AUTO
        28 004632   200324 635500                    EPPR5   COLLATING$+3,,AUTO
        28 004633   200331 455500                    STP5    COLLATING$+8,,AUTO
        28 004634   200323 636500                    EPPR6   COLLATING$+2,,AUTO
        28 004635   200330 456500                    STP6    COLLATING$+7,,AUTO
        28 004636   200322 637500                    EPPR7   COLLATING$+1,,AUTO
        28 004637   200327 457500                    STP7    COLLATING$+6,,AUTO
        28 004640   400001 630500                    EPPR0   1,,PR4
        28 004641   200326 450500                    STP0    COLLATING$+5,,AUTO
        28 004642   200326 630500                    EPPR0   COLLATING$+5,,AUTO
        28 004643   000003 631400 29                 EPPR1   3
        28 004644   000000 701000 xent               TSX1    Z8EY$SUBSTR
        28 004645   000000 011000                    NOP     0

     1367    24222    2                            ADDR(LENGTH),
     1368    24223    2                            ADDR(ONE),
     1369    24224    2                            ADDR(TEMP_EXPRESSION));
     1370    24225
     1371    24226    2          IF TYPE_DESC.DESC.NDSC.TN = %NDSC4 THEN

  24226 28 004646   200024 236100                    LDQ     TYPE_DESC+1,,AUTO
        28 004647   040000 316007                    CANQ    16384,DL
PL6.E3A0      #001=Z8EK$OPTIMAL_BRANCHES File=Z8EK.:Z8A6TSI                      SAT 08/09/97 11:56 Page:227
        28 004650   004676 600000 28                 TZE     s:24236

     1372    24227    3            DO; /* Packed decimal */

     1373    24228    3              CALL Z8AC$MAKE_TYA_CONST (%BITASC ('240'O), 1, 0, ETT$$);

  24228 28 004651   200017 630500                    EPPR0   ETT$$,,AUTO
        28 004652   200325 450500                    STP0    COLLATING$+4,,AUTO
        28 004653   000046 236000 29                 LDQ     38
        28 004654   200324 756100                    STQ     COLLATING$+3,,AUTO
        28 004655   000110 237000 29                 LDAQ    72
        28 004656   200322 757100                    STAQ    COLLATING$+1,,AUTO
        28 004657   200322 630500                    EPPR0   COLLATING$+1,,AUTO
        28 004660   000003 631400 29                 EPPR1   3
        28 004661   000000 701000 xent               TSX1    Z8AC$MAKE_TYA_CONST
        28 004662   000000 011000                    NOP     0

     1374    24229    3              CALL Z8AF$FORME (%CMPA,

  24229 28 004663   200017 630500                    EPPR0   ETT$$,,AUTO
        28 004664   200325 450500                    STP0    COLLATING$+4,,AUTO
        28 004665   200017 631500                    EPPR1   ETT$$,,AUTO
        28 004666   200324 451500                    STP1    COLLATING$+3,,AUTO
        28 004667   000112 237000 29                 LDAQ    74
        28 004670   200322 757100                    STAQ    COLLATING$+1,,AUTO
        28 004671   200322 630500                    EPPR0   COLLATING$+1,,AUTO
        28 004672   000003 631400 29                 EPPR1   3
        28 004673   000000 701000 xent               TSX1    Z8AF$FORME
        28 004674   000000 011000                    NOP     0

     1375    24230    3                               ADDR(TEMP_EXPRESSION) -> LX_ETT_ITEM.ETT$,
     1376    24231    3                               ETT$$,
     1377    24232    3                               ETT$$);
     1378    24233    3            END;

  24233 28 004675   004737 710000 28                 TRA     s:24250

PL6.E3A0      #001=Z8EK$OPTIMAL_BRANCHES File=Z8EK.:Z8A6TSI                      SAT 08/09/97 11:56 Page:228
     1379    24234    2          ELSE /* ASCII or overpunched */
     1380    24235    3            DO;

     1381    24236    3              IF NODE$-> UNARY_OP.LOP$-> LX_ETT_ITEM.TYPE = %TYO THEN

  24236 28 004676   200004 470500                    LDP0    @NODE$,,AUTO
        28 004677   000000 471500                    LDP1    0,,PR0
        28 004700   100001 473500                    LDP3    1,,PR1
        28 004701   300004 235100                    LDA     4,,PR3
        28 004702   000003 115007                    CMPA    3,DL
        28 004703   004715 601000 28                 TNZ     s:24240

     1382    24237    3                CALL Z8CO$CREATE_LIBRARY_BASE (%OP_CLASS_OVERPUNCHED_SIGN,

  24237 28 004704   200031 634500                    EPPR4   TRANS_TABLE_ETT$,,AUTO
        28 004705   200323 454500                    STP4    COLLATING$+2,,AUTO
        28 004706   000120 236000 29                 LDQ     80
        28 004707   200322 756100                    STQ     COLLATING$+1,,AUTO
        28 004710   200322 630500                    EPPR0   COLLATING$+1,,AUTO
        28 004711   000002 631400 29                 EPPR1   2
        28 004712   000000 701000 xent               TSX1    Z8CO$CREATE_LIBRARY_BASE
        28 004713   000000 011000                    NOP     0
        28 004714   004725 710000 28                 TRA     s:24243

     1383    24238    3                                               TRANS_TABLE_ETT$);
     1384    24239    3              ELSE
     1385    24240    3                CALL Z8CO$CREATE_LIBRARY_BASE (%OP_CLASS_DECIMAL_SIGN,

  24240 28 004715   200031 634500                    EPPR4   TRANS_TABLE_ETT$,,AUTO
        28 004716   200323 454500                    STP4    COLLATING$+2,,AUTO
        28 004717   000122 236000 29                 LDQ     82
        28 004720   200322 756100                    STQ     COLLATING$+1,,AUTO
        28 004721   200322 630500                    EPPR0   COLLATING$+1,,AUTO
        28 004722   000002 631400 29                 EPPR1   2
        28 004723   000000 701000 xent               TSX1    Z8CO$CREATE_LIBRARY_BASE
        28 004724   000000 011000                    NOP     0

PL6.E3A0      #001=Z8EK$OPTIMAL_BRANCHES File=Z8EK.:Z8A6TSI                      SAT 08/09/97 11:56 Page:229
     1386    24241    3                                               TRANS_TABLE_ETT$       );
     1387    24242
     1388    24243    3              CALL Z8AF$FORME (%CMPC,

  24243 28 004725   200017 630500                    EPPR0   ETT$$,,AUTO
        28 004726   200325 450500                    STP0    COLLATING$+4,,AUTO
        28 004727   200031 631500                    EPPR1   TRANS_TABLE_ETT$,,AUTO
        28 004730   200324 451500                    STP1    COLLATING$+3,,AUTO
        28 004731   000124 237000 29                 LDAQ    84
        28 004732   200322 757100                    STAQ    COLLATING$+1,,AUTO
        28 004733   200322 630500                    EPPR0   COLLATING$+1,,AUTO
        28 004734   000003 631400 29                 EPPR1   3
        28 004735   000000 701000 xent               TSX1    Z8AF$FORME
        28 004736   000000 011000                    NOP     0

     1389    24244    3                               ADDR(TEMP_EXPRESSION)
     1390    24245    3                                     -> LX_ETT_ITEM.ETT$,
     1391    24246    3                               TRANS_TABLE_ETT$,
     1392    24247    3                               ETT$$);
     1393    24248    3            END;

     1394    24249
     1395    24250    2   END BRA_TRUE_TRAILING_SIGN_NUMERIC;

  24250 28 004737   200034 221300                    LDX1  ! @RETURN$,,AUTO
        28 004740   000001 702211                    TSX2  ! 1,X1

     1396    24251        %EJECT;
PL6.E3A0      #001=Z8EK$OPTIMAL_BRANCHES File=Z8EK.:Z8A6TSI                      SAT 08/09/97 11:56 Page:230
     1397    24252    1   END_BRA_TRUE_NUMERIC : PROC;

  24252 28 004741   200034 741300       END_BRA_TRU* STX1  ! @RETURN$,,AUTO

     1398    24253
     1399    24254    2     DCL GO_CODE SBIN WORD;
     1400    24255
     1401    24256             %NEW_ILL (@ID = %LINOI);

  24289 28 004742   000017 236000 29                 LDQ     15
        28 004743   200322 756100                    STQ     COLLATING$+1,,AUTO
        28 004744   200322 630500                    EPPR0   COLLATING$+1,,AUTO
        28 004745   200327 450500                    STP0    COLLATING$+6,,AUTO
        28 004746   000020 236000 29                 LDQ     16
        28 004747   200326 756100                    STQ     COLLATING$+5,,AUTO
        28 004750   000104 237000 29                 LDAQ    68
        28 004751   200324 757100                    STAQ    COLLATING$+3,,AUTO
        28 004752   200324 630500                    EPPR0   COLLATING$+3,,AUTO
        28 004753   000003 631400 29                 EPPR1   3
        28 004754   000000 701000 xent               TSX1    Z8AN$NEW_ILL
        28 004755   000000 011000                    NOP     0

     1402    24635             %FISH (TRIAD = ETT$$, RTN = TEMP_ST$);

  24637 28 004756   200017 236100                    LDQ     ETT$$,,AUTO
        28 004757   200020 756100                    STQ     TEMP_ST$,,AUTO

  24638 28 004760   200020 470500                    LDP0    TEMP_ST$,,AUTO
        28 004761   000000 220100                    LDX0    0,,PR0
        28 004762   000751 100003                    CMPX0   489,DU
        28 004763   004773 603000 28                 TRC     s:24643

  24639 28 004764   200020 470500                    LDP0    TEMP_ST$,,AUTO
        28 004765   000001 236100                    LDQ     1,,PR0
        28 004766   200020 756100                    STQ     TEMP_ST$,,AUTO

  24640 28 004767   200020 470500                    LDP0    TEMP_ST$,,AUTO
PL6.E3A0      #001=Z8EK$OPTIMAL_BRANCHES File=Z8EK.:Z8A6TSI                      SAT 08/09/97 11:56 Page:231
        28 004770   000000 220100                    LDX0    0,,PR0
        28 004771   000751 100003                    CMPX0   489,DU
        28 004772   004764 602000 28                 TNC     s:24639

     1403    24643    2        IF TYPE_DESC.DESC.NDSC.TN = %NDSC4 AND

  24643 28 004773   200024 236100                    LDQ     TYPE_DESC+1,,AUTO
        28 004774   040000 316007                    CANQ    16384,DL
        28 004775   005005 600000 28                 TZE     s:24646
        28 004776   000001 236100                    LDQ     1,,PR0
        28 004777   030000 376007                    ANQ     12288,DL
        28 005000   020000 116007                    CMPQ    8192,DL
        28 005001   005005 601000 28                 TNZ     s:24646

     1404    24644    2            TEMP_ST$ -> VARIABLE.NDSC.S = %TRAILING_SIGN
     1405    24645    2          THEN GO_CODE = %GO_GREATER_THAN_OR_EQUAL;

  24645 28 005002   000007 235007                    LDA     7,DL
        28 005003   200035 755100                    STA     GO_CODE,,AUTO
        28 005004   005007 710000 28                 TRA     s:24811

     1406    24646    2          ELSE GO_CODE = %GO_CLASS;

  24646 28 005005   000013 235007                    LDA     11,DL
        28 005006   200035 755100                    STA     GO_CODE,,AUTO

     1407    24647             %NEW_ILL (@ID = %GO,
     1408    24648                       @CODE = GO_CODE,
     1409    24649                       @EXPR$ = ETT$$,
     1410    24650                       @LABEL$ = LABEL$);

  24811 28 005007   000017 236000 29                 LDQ     15
        28 005010   200322 756100                    STQ     COLLATING$+1,,AUTO
        28 005011   200322 631500                    EPPR1   COLLATING$+1,,AUTO
        28 005012   200327 451500                    STP1    COLLATING$+6,,AUTO
        28 005013   000020 236000 29                 LDQ     16
        28 005014   200326 756100                    STQ     COLLATING$+5,,AUTO
PL6.E3A0      #001=Z8EK$OPTIMAL_BRANCHES File=Z8EK.:Z8A6TSI                      SAT 08/09/97 11:56 Page:232
        28 005015   000116 237000 29                 LDAQ    78
        28 005016   200324 757100                    STAQ    COLLATING$+3,,AUTO
        28 005017   200324 630500                    EPPR0   COLLATING$+3,,AUTO
        28 005020   000003 631400 29                 EPPR1   3
        28 005021   000000 701000 xent               TSX1    Z8AN$NEW_ILL
        28 005022   000000 011000                    NOP     0

  24812 28 005023   200035 720100                    LXL0    GO_CODE,,AUTO
        28 005024   000000 470400 7                  LDP0    ILL$
        28 005025   000000 440100                    SXL0    0,,PR0

  24813 28 005026   200003 470500                    LDP0    @LABEL$,,AUTO
        28 005027   000000 236100                    LDQ     0,,PR0
        28 005030   000000 471400 7                  LDP1    ILL$
        28 005031   100001 756100                    STQ     1,,PR1

  24814 28 005032   200017 236100                    LDQ     ETT$$,,AUTO
        28 005033   100002 756100                    STQ     2,,PR1

     1411    25029
     1412    25030             %NEW_ILL (@ID = %DEFLB,
     1413    25031                       @LABEL$ = TEMP_LAB$);

  25363 28 005034   000017 236000 29                 LDQ     15
        28 005035   200322 756100                    STQ     COLLATING$+1,,AUTO
        28 005036   200322 633500                    EPPR3   COLLATING$+1,,AUTO
        28 005037   200327 453500                    STP3    COLLATING$+6,,AUTO
        28 005040   000020 236000 29                 LDQ     16
        28 005041   200326 756100                    STQ     COLLATING$+5,,AUTO
        28 005042   000022 237000 29                 LDAQ    18
        28 005043   200324 757100                    STAQ    COLLATING$+3,,AUTO
        28 005044   200324 630500                    EPPR0   COLLATING$+3,,AUTO
        28 005045   000003 631400 29                 EPPR1   3
        28 005046   000000 701000 xent               TSX1    Z8AN$NEW_ILL
        28 005047   000000 011000                    NOP     0

  25364 28 005050   200030 236100                    LDQ     TEMP_LAB$,,AUTO
PL6.E3A0      #001=Z8EK$OPTIMAL_BRANCHES File=Z8EK.:Z8A6TSI                      SAT 08/09/97 11:56 Page:233
        28 005051   000000 470400 7                  LDP0    ILL$
        28 005052   000001 756100                    STQ     1,,PR0

     1414    25410
     1415    25411    2   END END_BRA_TRUE_NUMERIC;

  25411 28 005053   200034 221300                    LDX1  ! @RETURN$,,AUTO
        28 005054   000001 702211                    TSX2  ! 1,X1

     1416    25412        %EJECT;
PL6.E3A0      #001=Z8EK$OPTIMAL_BRANCHES File=Z8EK.:Z8A6TSI                      SAT 08/09/97 11:56 Page:234
     1417    25413    1   SET_UP_BRA_FALSE_NUMERIC : PROC;

  25413 28 005055   200036 741300       SET_UP_BRA_* STX1  ! DB_FLAG_ROP,,AUTO

     1418    25414
     1419    25415
     1420    25416    2      ONE.ETT$ = COMCOM.VALUE_1;

  25416 28 005056   000125 236000 xsym               LDQ     COMCOM+85
        28 005057   000051 756000 26                 STQ     ONE+1

     1421    25417
     1422    25418    2      CALL Z8AU$LENGTH (NODE$ -> UNARY_OP.LOP$

  25418 28 005060   200004 470500                    LDP0    @NODE$,,AUTO
        28 005061   000000 471500                    LDP1    0,,PR0
        28 005062   100001 473500                    LDP3    1,,PR1
        28 005063   000135 236000 29                 LDQ     93
        28 005064   200322 756100                    STQ     COLLATING$+1,,AUTO
        28 005065   200322 631500                    EPPR1   COLLATING$+1,,AUTO
        28 005066   200325 451500                    STP1    COLLATING$+4,,AUTO
        28 005067   300001 634500                    EPPR4   1,,PR3
        28 005070   200324 454500                    STP4    COLLATING$+3,,AUTO
        28 005071   200324 630500                    EPPR0   COLLATING$+3,,AUTO
        28 005072   000002 631400 29                 EPPR1   2
        28 005073   000000 701000 xent               TSX1    Z8AU$LENGTH
        28 005074   000000 011000                    NOP     0

     1423    25419    2                            -> LX_ETT_ITEM.ETT$,
     1424    25420    2                        ADDR(LENGTH));
     1425    25421
     1426    25422    2      LENGTH_MINUS_1 = LENGTH;

  25422 28 005075   000000 100400                    MLR     fill='000'O
        28 005076   000020 000040 26                 ADSC9   LENGTH                   cn=0,n=32
        28 005077   000030 000040 26                 ADSC9   LENGTH_MINUS_1           cn=0,n=32

PL6.E3A0      #001=Z8EK$OPTIMAL_BRANCHES File=Z8EK.:Z8A6TSI                      SAT 08/09/97 11:56 Page:235
     1427    25423
     1428    25424    2      CALL Z8AF$FORME (%SBI,

  25424 28 005100   000141 630400 29                 EPPR0   97
        28 005101   000003 631400 29                 EPPR1   3
        28 005102   000000 701000 xent               TSX1    Z8AF$FORME
        28 005103   000000 011000                    NOP     0

     1429    25425    2                       ADDR(LENGTH_MINUS_1) -> LX_ETT_ITEM.ETT$,
     1430    25426    2                       COMCOM.VALUE_1,
     1431    25427    2                       ADDR(LENGTH_MINUS_1) -> LX_ETT_ITEM.ETT$);
     1432    25428
     1433    25429    2   END SET_UP_BRA_FALSE_NUMERIC;

  25429 28 005104   200036 221300                    LDX1  ! DB_FLAG_ROP,,AUTO
        28 005105   000001 702211                    TSX2  ! 1,X1

     1434    25430        %EJECT;
PL6.E3A0      #001=Z8EK$OPTIMAL_BRANCHES File=Z8EK.:Z8A6TSI                      SAT 08/09/97 11:56 Page:236
     1435    25431    1   END_BRA_FALSE_NUMERIC : PROC;

  25431 28 005106   200034 741300       END_BRA_FAL* STX1  ! @RETURN$,,AUTO

     1436    25432
     1437    25433    2     DCL GO_CODE SBIN WORD;
     1438    25434
     1439    25435             %NEW_ILL (@ID = %LINOI);

  25468 28 005107   000017 236000 29                 LDQ     15
        28 005110   200322 756100                    STQ     COLLATING$+1,,AUTO
        28 005111   200322 630500                    EPPR0   COLLATING$+1,,AUTO
        28 005112   200327 450500                    STP0    COLLATING$+6,,AUTO
        28 005113   000020 236000 29                 LDQ     16
        28 005114   200326 756100                    STQ     COLLATING$+5,,AUTO
        28 005115   000104 237000 29                 LDAQ    68
        28 005116   200324 757100                    STAQ    COLLATING$+3,,AUTO
        28 005117   200324 630500                    EPPR0   COLLATING$+3,,AUTO
        28 005120   000003 631400 29                 EPPR1   3
        28 005121   000000 701000 xent               TSX1    Z8AN$NEW_ILL
        28 005122   000000 011000                    NOP     0

     1440    25814             %FISH (TRIAD = ETT$$, RTN = TEMP_ST$);

  25816 28 005123   200017 236100                    LDQ     ETT$$,,AUTO
        28 005124   200020 756100                    STQ     TEMP_ST$,,AUTO

  25817 28 005125   200020 470500                    LDP0    TEMP_ST$,,AUTO
        28 005126   000000 220100                    LDX0    0,,PR0
        28 005127   000751 100003                    CMPX0   489,DU
        28 005130   005140 603000 28                 TRC     s:25822

  25818 28 005131   200020 470500                    LDP0    TEMP_ST$,,AUTO
        28 005132   000001 236100                    LDQ     1,,PR0
        28 005133   200020 756100                    STQ     TEMP_ST$,,AUTO

  25819 28 005134   200020 470500                    LDP0    TEMP_ST$,,AUTO
PL6.E3A0      #001=Z8EK$OPTIMAL_BRANCHES File=Z8EK.:Z8A6TSI                      SAT 08/09/97 11:56 Page:237
        28 005135   000000 220100                    LDX0    0,,PR0
        28 005136   000751 100003                    CMPX0   489,DU
        28 005137   005131 602000 28                 TNC     s:25818

     1441    25822    2        IF TYPE_DESC.DESC.NDSC.TN = %NDSC4 AND

  25822 28 005140   200024 236100                    LDQ     TYPE_DESC+1,,AUTO
        28 005141   040000 316007                    CANQ    16384,DL
        28 005142   005152 600000 28                 TZE     s:25825
        28 005143   000001 236100                    LDQ     1,,PR0
        28 005144   030000 376007                    ANQ     12288,DL
        28 005145   020000 116007                    CMPQ    8192,DL
        28 005146   005152 601000 28                 TNZ     s:25825

     1442    25823    2            TEMP_ST$ -> VARIABLE.NDSC.S = %TRAILING_SIGN
     1443    25824    2          THEN GO_CODE = %GO_LESS_THAN;

  25824 28 005147   000001 235007                    LDA     1,DL
        28 005150   200035 755100                    STA     GO_CODE,,AUTO
        28 005151   005154 710000 28                 TRA     s:25990

     1444    25825    2          ELSE GO_CODE = %GO_NOT_CLASS;

  25825 28 005152   000014 235007                    LDA     12,DL
        28 005153   200035 755100                    STA     GO_CODE,,AUTO

     1445    25826             %NEW_ILL (@ID = %GO,
     1446    25827                       @CODE = GO_CODE,
     1447    25828                       @EXPR$ = ETT$$,
     1448    25829                       @LABEL$ = LABEL$);

  25990 28 005154   000017 236000 29                 LDQ     15
        28 005155   200322 756100                    STQ     COLLATING$+1,,AUTO
        28 005156   200322 631500                    EPPR1   COLLATING$+1,,AUTO
        28 005157   200327 451500                    STP1    COLLATING$+6,,AUTO
        28 005160   000020 236000 29                 LDQ     16
        28 005161   200326 756100                    STQ     COLLATING$+5,,AUTO
PL6.E3A0      #001=Z8EK$OPTIMAL_BRANCHES File=Z8EK.:Z8A6TSI                      SAT 08/09/97 11:56 Page:238
        28 005162   000116 237000 29                 LDAQ    78
        28 005163   200324 757100                    STAQ    COLLATING$+3,,AUTO
        28 005164   200324 630500                    EPPR0   COLLATING$+3,,AUTO
        28 005165   000003 631400 29                 EPPR1   3
        28 005166   000000 701000 xent               TSX1    Z8AN$NEW_ILL
        28 005167   000000 011000                    NOP     0

  25991 28 005170   200035 720100                    LXL0    GO_CODE,,AUTO
        28 005171   000000 470400 7                  LDP0    ILL$
        28 005172   000000 440100                    SXL0    0,,PR0

  25992 28 005173   200003 470500                    LDP0    @LABEL$,,AUTO
        28 005174   000000 236100                    LDQ     0,,PR0
        28 005175   000000 471400 7                  LDP1    ILL$
        28 005176   100001 756100                    STQ     1,,PR1

  25993 28 005177   200017 236100                    LDQ     ETT$$,,AUTO
        28 005200   100002 756100                    STQ     2,,PR1

     1449    26208
     1450    26209
     1451    26210    2   END END_BRA_FALSE_NUMERIC;

  26210 28 005201   200034 221300                    LDX1  ! @RETURN$,,AUTO
        28 005202   000001 702211                    TSX2  ! 1,X1

     1452    26211        %EJECT;
PL6.E3A0      #001=Z8EK$OPTIMAL_BRANCHES File=Z8EK.:Z8A6TSI                      SAT 08/09/97 11:56 Page:239
     1453    26212    1   COMPARE_ARITH_CLASS : PROC (OP);

  26212 28 005203   200032 741300       COMPARE_ARI* STX1  ! TRANS_TABLE_ETT$+1,,AUTO

     1454    26213
     1455    26214    2     DCL OP SBIN WORD;
     1456    26215
     1457    26216    2     ZERO.ETT$ = COMCOM.VALUE_0;

  26216 28 005204   000124 236000 xsym               LDQ     COMCOM+84
        28 005205   000041 756000 26                 STQ     ZERO+1

     1458    26217
     1459    26218    2     ZERO.LINE = NODE$ -> UNARY_OP.LINE;

  26218 28 005206   200004 470500                    LDP0    @NODE$,,AUTO
        28 005207   000000 471500                    LDP1    0,,PR0
        28 005210   100005 235100                    LDA     5,,PR1
        28 005211   000045 755000 26                 STA     ZERO+5

     1460    26219    2     ZERO.COLUMN = NODE$ -> UNARY_OP.COLUMN;

  26219 28 005212   000000 471500                    LDP1    0,,PR0
        28 005213   100006 235100                    LDA     6,,PR1
        28 005214   000046 755000 26                 STA     ZERO+6

     1461    26220
     1462    26221    2     CALL Z8EK$COMPARE(NODE$ -> UNARY_OP.LOP$,

  26221 28 005215   000000 471500                    LDP1    0,,PR0
        28 005216   000027 236000 29                 LDQ     23
        28 005217   200322 756100                    STQ     COLLATING$+1,,AUTO
        28 005220   200021 633500                    EPPR3   COMPARE$,,AUTO
        28 005221   200327 453500                    STP3    COLLATING$+6,,AUTO
        28 005222   200322 634500                    EPPR4   COLLATING$+1,,AUTO
        28 005223   200326 454500                    STP4    COLLATING$+5,,AUTO
        28 005224   200033 236100                    LDQ     @OP,,AUTO
PL6.E3A0      #001=Z8EK$OPTIMAL_BRANCHES File=Z8EK.:Z8A6TSI                      SAT 08/09/97 11:56 Page:240
        28 005225   200325 756100                    STQ     COLLATING$+4,,AUTO
        28 005226   100001 635500                    EPPR5   1,,PR1
        28 005227   200324 455500                    STP5    COLLATING$+3,,AUTO
        28 005230   200324 630500                    EPPR0   COLLATING$+3,,AUTO
        28 005231   000003 631400 29                 EPPR1   3
        28 005232   000000 701000 xent               TSX1    Z8EK$COMPARE
        28 005233   000000 011000                    NOP     0

     1463    26222    2                       OP,
     1464    26223    2                       ADDR (ZERO),
     1465    26224    2                       COMPARE$);
     1466    26225
     1467    26226    2     CALL Z8EK$BRANCH_TRUE(LABEL$, COMPARE$);

  26226 28 005234   200021 630500                    EPPR0   COMPARE$,,AUTO
        28 005235   200323 450500                    STP0    COLLATING$+2,,AUTO
        28 005236   200003 236100                    LDQ     @LABEL$,,AUTO
        28 005237   200322 756100                    STQ     COLLATING$+1,,AUTO
        28 005240   200322 630500                    EPPR0   COLLATING$+1,,AUTO
        28 005241   000002 631400 29                 EPPR1   2
        28 005242   000000 701000 xent               TSX1    Z8EK$BRANCH_TRUE
        28 005243   000000 011000                    NOP     0

     1468    26227    2     CALL Z8ED$DISPOSE_ABSSYN_TREE(COMPARE$);

  26227 28 005244   200021 630500                    EPPR0   COMPARE$,,AUTO
        28 005245   200322 450500                    STP0    COLLATING$+1,,AUTO
        28 005246   200322 630500                    EPPR0   COLLATING$+1,,AUTO
        28 005247   000014 631400 29                 EPPR1   12
        28 005250   000000 701000 xent               TSX1    Z8ED$DISPOSE_ABSSYN_TREE
        28 005251   000000 011000                    NOP     0

     1469    26228
     1470    26229    2   END COMPARE_ARITH_CLASS;

  26229 28 005252   200032 221300                    LDX1  ! TRANS_TABLE_ETT$+1,,AUTO
        28 005253   000001 702211                    TSX2  ! 1,X1
PL6.E3A0      #001=Z8EK$OPTIMAL_BRANCHES File=Z8EK.:Z8A6TSI                      SAT 08/09/97 11:56 Page:241

     1471    26230        %EJECT;
PL6.E3A0      #001=Z8EK$OPTIMAL_BRANCHES File=Z8EK.:Z8A6TSI                      SAT 08/09/97 11:56 Page:242
     1472    26231    1   COMPARE_ALPHABETIC : PROC (ALPHABETIC_TYPE,

  26231 28 005254   200032 741300       COMPARE_ALP* STX1  ! TRANS_TABLE_ETT$+1,,AUTO

     1473    26232    1                              GO_CODE);
     1474    26233
     1475    26234    2     DCL ALPHABETIC_TYPE SBIN WORD;
     1476    26235    2     DCL GO_CODE SBIN WORD;
     1477    26236
     1478    26237    2     IF NODE$ -> UNARY_OP.LOP$ -> LX_ITEM.ID ~= %LX_ETT_ITEM THEN

  26237 28 005255   200004 470500                    LDP0    @NODE$,,AUTO
        28 005256   000000 471500                    LDP1    0,,PR0
        28 005257   100001 473500                    LDP3    1,,PR1
        28 005260   300000 220100                    LDX0    0,,PR3
        28 005261   000004 100003                    CMPX0   4,DU
        28 005262   005306 600000 28                 TZE     s:26275

     1479    26238
     1480    26239            %CONDITIONAL_ERROR (@ERROR# = %E$CLASS_ON_NON_IDENTIFIER,
     1481    26240                  @LX_ITEM$ = NODE$ -> UNARY_OP.LOP$,
     1482    26241                  @LINE = NODE$ -> UNARY_OP.LOP$ -> LX_ITEM.LINE,
     1483    26242                  @COLUMN = NODE$ -> UNARY_OP.LOP$ -> LX_ITEM.COLUMN);

  26252 28 005263   300000 236100                    LDQ     0,,PR3
        28 005264   400000 316007                    CANQ    -131072,DL
        28 005265   005517 601000 28                 TNZ     s:27100

  26254 28 005266   300006 634500                    EPPR4   6,,PR3
        28 005267   200324 454500                    STP4    COLLATING$+3,,AUTO
        28 005270   300005 631500                    EPPR1   5,,PR3
        28 005271   200323 451500                    STP1    COLLATING$+2,,AUTO
        28 005272   000146 236000 29                 LDQ     102
        28 005273   200322 756100                    STQ     COLLATING$+1,,AUTO
        28 005274   200322 630500                    EPPR0   COLLATING$+1,,AUTO
        28 005275   000036 631400 29                 EPPR1   30
        28 005276   000000 701000 xent               TSX1    Z8AE$ERROR
PL6.E3A0      #001=Z8EK$OPTIMAL_BRANCHES File=Z8EK.:Z8A6TSI                      SAT 08/09/97 11:56 Page:243
        28 005277   000000 011000                    NOP     0

  26263 28 005300   200004 470500                    LDP0    @NODE$,,AUTO
        28 005301   000000 471500                    LDP1    0,,PR0
        28 005302   100001 473500                    LDP3    1,,PR1
        28 005303   400000 236007                    LDQ     -131072,DL
        28 005304   300000 256100                    ORSQ    0,,PR3

  26270 28 005305   005517 710000 28                 TRA     s:27100

     1484    26272
     1485    26273    2     ELSE
     1486    26274    3       DO;

     1487    26275    4         DO CASE (NODE$ -> UNARY_OP.LOP$ -> LX_ETT_ITEM.TYPE);

  26275 28 005306   300004 235100                    LDA     4,,PR3
        28 005307   000006 135007                    SBLA    6,DL
        28 005310   000007 115007                    CMPA    7,DL
        28 005311   005313 602005 28                 TNC     s:26275+5,AL
        28 005312   005402 710000 28                 TRA     s:26305
        28 005313   005322 710000 28                 TRA     s:26279
        28 005314   005402 710000 28                 TRA     s:26305
        28 005315   005426 710000 28                 TRA     s:26329
        28 005316   005402 710000 28                 TRA     s:26305
        28 005317   005402 710000 28                 TRA     s:26305
        28 005320   005402 710000 28                 TRA     s:26305
        28 005321   005352 710000 28                 TRA     s:26285

     1488    26276    4           CASE (%TYA);

     1489    26277                  /* OK */
     1490    26278    4           CASE (%TYE);

     1491    26279    4             CALL Z8CO$CREATE_LIBRARY_BASE (%OP_EBCDIC_TO_ASCII, TRANS_TABLE_ETT$);

  26279 28 005322   200031 634500                    EPPR4   TRANS_TABLE_ETT$,,AUTO
PL6.E3A0      #001=Z8EK$OPTIMAL_BRANCHES File=Z8EK.:Z8A6TSI                      SAT 08/09/97 11:56 Page:244
        28 005323   200323 454500                    STP4    COLLATING$+2,,AUTO
        28 005324   000150 236000 29                 LDQ     104
        28 005325   200322 756100                    STQ     COLLATING$+1,,AUTO
        28 005326   200322 630500                    EPPR0   COLLATING$+1,,AUTO
        28 005327   000002 631400 29                 EPPR1   2
        28 005330   000000 701000 xent               TSX1    Z8CO$CREATE_LIBRARY_BASE
        28 005331   000000 011000                    NOP     0

     1492    26280    4             CALL Z8AF$FORME (%CVT,

  26280 28 005332   200004 470500                    LDP0    @NODE$,,AUTO
        28 005333   000000 471500                    LDP1    0,,PR0
        28 005334   100001 473500                    LDP3    1,,PR1
        28 005335   300001 634500                    EPPR4   1,,PR3
        28 005336   200325 454500                    STP4    COLLATING$+4,,AUTO
        28 005337   200031 631500                    EPPR1   TRANS_TABLE_ETT$,,AUTO
        28 005340   200324 451500                    STP1    COLLATING$+3,,AUTO
        28 005341   300001 635500                    EPPR5   1,,PR3
        28 005342   200323 455500                    STP5    COLLATING$+2,,AUTO
        28 005343   000042 236000 29                 LDQ     34
        28 005344   200322 756100                    STQ     COLLATING$+1,,AUTO
        28 005345   200322 630500                    EPPR0   COLLATING$+1,,AUTO
        28 005346   000003 631400 29                 EPPR1   3
        28 005347   000000 701000 xent               TSX1    Z8AF$FORME
        28 005350   000000 011000                    NOP     0
        28 005351   005426 710000 28                 TRA     s:26329

     1493    26281    4                              NODE$ -> UNARY_OP.LOP$ -> LX_ETT_ITEM.ETT$,
     1494    26282    4                              TRANS_TABLE_ETT$,
     1495    26283    4                              NODE$ -> UNARY_OP.LOP$ -> LX_ETT_ITEM.ETT$);
     1496    26284    4           CASE (%TYB);

     1497    26285    4             CALL Z8CO$CREATE_LIBRARY_BASE (%OP_GBCD_TO_ASCII, TRANS_TABLE_ETT$);

  26285 28 005352   200031 634500                    EPPR4   TRANS_TABLE_ETT$,,AUTO
        28 005353   200323 454500                    STP4    COLLATING$+2,,AUTO
        28 005354   000050 236000 29                 LDQ     40
PL6.E3A0      #001=Z8EK$OPTIMAL_BRANCHES File=Z8EK.:Z8A6TSI                      SAT 08/09/97 11:56 Page:245
        28 005355   200322 756100                    STQ     COLLATING$+1,,AUTO
        28 005356   200322 630500                    EPPR0   COLLATING$+1,,AUTO
        28 005357   000002 631400 29                 EPPR1   2
        28 005360   000000 701000 xent               TSX1    Z8CO$CREATE_LIBRARY_BASE
        28 005361   000000 011000                    NOP     0

     1498    26286    4             CALL Z8AF$FORME (%CVT,

  26286 28 005362   200004 470500                    LDP0    @NODE$,,AUTO
        28 005363   000000 471500                    LDP1    0,,PR0
        28 005364   100001 473500                    LDP3    1,,PR1
        28 005365   300001 634500                    EPPR4   1,,PR3
        28 005366   200325 454500                    STP4    COLLATING$+4,,AUTO
        28 005367   200031 631500                    EPPR1   TRANS_TABLE_ETT$,,AUTO
        28 005370   200324 451500                    STP1    COLLATING$+3,,AUTO
        28 005371   300001 635500                    EPPR5   1,,PR3
        28 005372   200323 455500                    STP5    COLLATING$+2,,AUTO
        28 005373   000042 236000 29                 LDQ     34
        28 005374   200322 756100                    STQ     COLLATING$+1,,AUTO
        28 005375   200322 630500                    EPPR0   COLLATING$+1,,AUTO
        28 005376   000003 631400 29                 EPPR1   3
        28 005377   000000 701000 xent               TSX1    Z8AF$FORME
        28 005400   000000 011000                    NOP     0
        28 005401   005426 710000 28                 TRA     s:26329

     1499    26287    4                              NODE$ -> UNARY_OP.LOP$ -> LX_ETT_ITEM.ETT$,
     1500    26288    4                              TRANS_TABLE_ETT$,
     1501    26289    4                              NODE$ -> UNARY_OP.LOP$ -> LX_ETT_ITEM.ETT$);
     1502    26290    4           CASE (ELSE);

     1503    26291
     1504    26292                  %CONDITIONAL_ERROR (@LX_ITEM$ = NODE$ -> UNARY_OP.LOP$,
     1505    26293                       @ERROR# = %E$CLASS_ALPHABETIC_NOT_TYA,
     1506    26294                       @LINE = NODE$ -> UNARY_OP.LOP$ -> LX_ITEM.LINE,
     1507    26295                       @COLUMN = NODE$ -> UNARY_OP.LOP$ -> LX_ITEM.COLUMN);

  26305 28 005402   300000 236100                    LDQ     0,,PR3
PL6.E3A0      #001=Z8EK$OPTIMAL_BRANCHES File=Z8EK.:Z8A6TSI                      SAT 08/09/97 11:56 Page:246
        28 005403   400000 316007                    CANQ    -131072,DL
        28 005404   005424 601000 28                 TNZ     s:26325

  26307 28 005405   300006 634500                    EPPR4   6,,PR3
        28 005406   200324 454500                    STP4    COLLATING$+3,,AUTO
        28 005407   300005 631500                    EPPR1   5,,PR3
        28 005410   200323 451500                    STP1    COLLATING$+2,,AUTO
        28 005411   000152 236000 29                 LDQ     106
        28 005412   200322 756100                    STQ     COLLATING$+1,,AUTO
        28 005413   200322 630500                    EPPR0   COLLATING$+1,,AUTO
        28 005414   000036 631400 29                 EPPR1   30
        28 005415   000000 701000 xent               TSX1    Z8AE$ERROR
        28 005416   000000 011000                    NOP     0

  26316 28 005417   200004 470500                    LDP0    @NODE$,,AUTO
        28 005420   000000 471500                    LDP1    0,,PR0
        28 005421   100001 473500                    LDP3    1,,PR1
        28 005422   400000 236007                    LDQ     -131072,DL
        28 005423   300000 256100                    ORSQ    0,,PR3

     1508    26325    4             RETURN;

  26325 28 005424   200032 221300                    LDX1  ! TRANS_TABLE_ETT$+1,,AUTO
        28 005425   000001 702211                    TSX2  ! 1,X1

     1509    26326
     1510    26327    4         END; /* CASE */

     1511    26328
     1512    26329    3         CALL Z8CO$CREATE_LIBRARY_BASE (ALPHABETIC_TYPE,

  26329 28 005426   200031 630500                    EPPR0   TRANS_TABLE_ETT$,,AUTO
        28 005427   200323 450500                    STP0    COLLATING$+2,,AUTO
        28 005430   200033 236100                    LDQ     @ALPHABETIC_TYPE,,AUTO
        28 005431   200322 756100                    STQ     COLLATING$+1,,AUTO
        28 005432   200322 630500                    EPPR0   COLLATING$+1,,AUTO
        28 005433   000002 631400 29                 EPPR1   2
PL6.E3A0      #001=Z8EK$OPTIMAL_BRANCHES File=Z8EK.:Z8A6TSI                      SAT 08/09/97 11:56 Page:247
        28 005434   000000 701000 xent               TSX1    Z8CO$CREATE_LIBRARY_BASE
        28 005435   000000 011000                    NOP     0

     1513    26330    3                                       TRANS_TABLE_ETT$);
     1514    26331
     1515    26332    3         CALL Z8AF$FORME( %CMPC ,

  26332 28 005436   200004 470500                    LDP0    @NODE$,,AUTO
        28 005437   000000 471500                    LDP1    0,,PR0
        28 005440   100001 473500                    LDP3    1,,PR1
        28 005441   200017 634500                    EPPR4   ETT$$,,AUTO
        28 005442   200325 454500                    STP4    COLLATING$+4,,AUTO
        28 005443   200031 631500                    EPPR1   TRANS_TABLE_ETT$,,AUTO
        28 005444   200324 451500                    STP1    COLLATING$+3,,AUTO
        28 005445   300001 635500                    EPPR5   1,,PR3
        28 005446   200323 455500                    STP5    COLLATING$+2,,AUTO
        28 005447   000124 236000 29                 LDQ     84
        28 005450   200322 756100                    STQ     COLLATING$+1,,AUTO
        28 005451   200322 630500                    EPPR0   COLLATING$+1,,AUTO
        28 005452   000003 631400 29                 EPPR1   3
        28 005453   000000 701000 xent               TSX1    Z8AF$FORME
        28 005454   000000 011000                    NOP     0

     1516    26333    3                          NODE$ -> UNARY_OP.LOP$ -> LX_ETT_ITEM.ETT$ ,
     1517    26334    3                          TRANS_TABLE_ETT$,
     1518    26335    3                          ETT$$ );
     1519    26336
     1520    26337              %NEW_ILL (@ID = %LINOI);

  26370 28 005455   000017 236000 29                 LDQ     15
        28 005456   200322 756100                    STQ     COLLATING$+1,,AUTO
        28 005457   200322 630500                    EPPR0   COLLATING$+1,,AUTO
        28 005460   200327 450500                    STP0    COLLATING$+6,,AUTO
        28 005461   000020 236000 29                 LDQ     16
        28 005462   200326 756100                    STQ     COLLATING$+5,,AUTO
        28 005463   000104 237000 29                 LDAQ    68
        28 005464   200324 757100                    STAQ    COLLATING$+3,,AUTO
PL6.E3A0      #001=Z8EK$OPTIMAL_BRANCHES File=Z8EK.:Z8A6TSI                      SAT 08/09/97 11:56 Page:248
        28 005465   200324 630500                    EPPR0   COLLATING$+3,,AUTO
        28 005466   000003 631400 29                 EPPR1   3
        28 005467   000000 701000 xent               TSX1    Z8AN$NEW_ILL
        28 005470   000000 011000                    NOP     0

     1521    26716              %NEW_ILL( @ID        = %GO ,
     1522    26717                        @CODE      = GO_CODE ,
     1523    26718                        @EXPR$     = ETT$$ ,
     1524    26719                        @LABEL$    = LABEL$ );

  26880 28 005471   000017 236000 29                 LDQ     15
        28 005472   200322 756100                    STQ     COLLATING$+1,,AUTO
        28 005473   200322 630500                    EPPR0   COLLATING$+1,,AUTO
        28 005474   200327 450500                    STP0    COLLATING$+6,,AUTO
        28 005475   000020 236000 29                 LDQ     16
        28 005476   200326 756100                    STQ     COLLATING$+5,,AUTO
        28 005477   000116 237000 29                 LDAQ    78
        28 005500   200324 757100                    STAQ    COLLATING$+3,,AUTO
        28 005501   200324 630500                    EPPR0   COLLATING$+3,,AUTO
        28 005502   000003 631400 29                 EPPR1   3
        28 005503   000000 701000 xent               TSX1    Z8AN$NEW_ILL
        28 005504   000000 011000                    NOP     0

  26881 28 005505   200034 470500                    LDP0    @GO_CODE,,AUTO
        28 005506   000000 720100                    LXL0    0,,PR0
        28 005507   000000 471400 7                  LDP1    ILL$
        28 005510   100000 440100                    SXL0    0,,PR1

  26882 28 005511   200003 471500                    LDP1    @LABEL$,,AUTO
        28 005512   100000 236100                    LDQ     0,,PR1
        28 005513   000000 473400 7                  LDP3    ILL$
        28 005514   300001 756100                    STQ     1,,PR3

  26883 28 005515   200017 236100                    LDQ     ETT$$,,AUTO
        28 005516   300002 756100                    STQ     2,,PR3

     1525    27098    3       END;
PL6.E3A0      #001=Z8EK$OPTIMAL_BRANCHES File=Z8EK.:Z8A6TSI                      SAT 08/09/97 11:56 Page:249

     1526    27099
     1527    27100    2   END COMPARE_ALPHABETIC;

  27100 28 005517   200032 221300                    LDX1  ! TRANS_TABLE_ETT$+1,,AUTO
        28 005520   000001 702211                    TSX2  ! 1,X1

     1528    27101        %EJECT;
PL6.E3A0      #001=Z8EK$OPTIMAL_BRANCHES File=Z8EK.:Z8A6TSI                      SAT 08/09/97 11:56 Page:250
     1529    27102    1   COMPARE_USER_CLASS : PROC (USER_CLASS$,

  27102 28 005521   200032 741300       COMPARE_USE* STX1  ! TRANS_TABLE_ETT$+1,,AUTO

     1530    27103    1                              GO_CODE);
     1531    27104
     1532    27105    2     DCL USER_CLASS$ PTR;
     1533    27106    2     DCL GO_CODE SBIN;
     1534    27107
     1535    27108    2     DCL CLASS_ST$ PTR;
     1536    27109    2     DCL CLASS_TABLE_ETT$ PTR;
     1537    27110
     1538    27111    2     IF NODE$ -> BINARY_OP.LOP$ -> LX_ITEM.ID ~= %LX_ETT_ITEM THEN

  27111 28 005522   200004 470500                    LDP0    @NODE$,,AUTO
        28 005523   000000 471500                    LDP1    0,,PR0
        28 005524   100001 473500                    LDP3    1,,PR1
        28 005525   300000 220100                    LDX0    0,,PR3
        28 005526   000004 100003                    CMPX0   4,DU
        28 005527   005553 600000 28                 TZE     s:27148

     1539    27112
     1540    27113            %CONDITIONAL_ERROR (@ERROR# = %E$CLASS_ON_NON_IDENTIFIER,
     1541    27114                  @LX_ITEM$ = NODE$ -> BINARY_OP.LOP$,
     1542    27115                  @LINE = NODE$ -> BINARY_OP.LOP$ -> LX_ITEM.LINE,
     1543    27116                  @COLUMN = NODE$ -> BINARY_OP.LOP$ -> LX_ITEM.COLUMN);

  27126 28 005530   300000 236100                    LDQ     0,,PR3
        28 005531   400000 316007                    CANQ    -131072,DL
        28 005532   005747 601000 28                 TNZ     s:28004

  27128 28 005533   300006 634500                    EPPR4   6,,PR3
        28 005534   200324 454500                    STP4    COLLATING$+3,,AUTO
        28 005535   300005 631500                    EPPR1   5,,PR3
        28 005536   200323 451500                    STP1    COLLATING$+2,,AUTO
        28 005537   000146 236000 29                 LDQ     102
        28 005540   200322 756100                    STQ     COLLATING$+1,,AUTO
PL6.E3A0      #001=Z8EK$OPTIMAL_BRANCHES File=Z8EK.:Z8A6TSI                      SAT 08/09/97 11:56 Page:251
        28 005541   200322 630500                    EPPR0   COLLATING$+1,,AUTO
        28 005542   000036 631400 29                 EPPR1   30
        28 005543   000000 701000 xent               TSX1    Z8AE$ERROR
        28 005544   000000 011000                    NOP     0

  27137 28 005545   200004 470500                    LDP0    @NODE$,,AUTO
        28 005546   000000 471500                    LDP1    0,,PR0
        28 005547   100001 473500                    LDP3    1,,PR1
        28 005550   400000 236007                    LDQ     -131072,DL
        28 005551   300000 256100                    ORSQ    0,,PR3

  27144 28 005552   005747 710000 28                 TRA     s:28004

     1544    27146
     1545    27147    2     ELSE
     1546    27148    2       IF NODE$ -> BINARY_OP.LOP$ -> LX_ETT_ITEM.TYPE ~= %TYA THEN

  27148 28 005553   300004 235100                    LDA     4,,PR3
        28 005554   000010 115007                    CMPA    8,DL
        28 005555   005601 600000 28                 TZE     s:27189

     1547    27149
     1548    27150              %CONDITIONAL_ERROR (@LX_ITEM$ = NODE$ -> BINARY_OP.LOP$,
     1549    27151                   @ERROR# = %E$CLASS_ALPHABETIC_NOT_TYA,
     1550    27152                   @LINE = NODE$ -> BINARY_OP.LOP$ -> LX_ITEM.LINE,
     1551    27153                   @COLUMN = NODE$ -> BINARY_OP.LOP$ -> LX_ITEM.COLUMN);

  27163 28 005556   300000 236100                    LDQ     0,,PR3
        28 005557   400000 316007                    CANQ    -131072,DL
        28 005560   005747 601000 28                 TNZ     s:28004

  27165 28 005561   300006 634500                    EPPR4   6,,PR3
        28 005562   200324 454500                    STP4    COLLATING$+3,,AUTO
        28 005563   300005 631500                    EPPR1   5,,PR3
        28 005564   200323 451500                    STP1    COLLATING$+2,,AUTO
        28 005565   000152 236000 29                 LDQ     106
        28 005566   200322 756100                    STQ     COLLATING$+1,,AUTO
PL6.E3A0      #001=Z8EK$OPTIMAL_BRANCHES File=Z8EK.:Z8A6TSI                      SAT 08/09/97 11:56 Page:252
        28 005567   200322 630500                    EPPR0   COLLATING$+1,,AUTO
        28 005570   000036 631400 29                 EPPR1   30
        28 005571   000000 701000 xent               TSX1    Z8AE$ERROR
        28 005572   000000 011000                    NOP     0

  27174 28 005573   200004 470500                    LDP0    @NODE$,,AUTO
        28 005574   000000 471500                    LDP1    0,,PR0
        28 005575   100001 473500                    LDP3    1,,PR1
        28 005576   400000 236007                    LDQ     -131072,DL
        28 005577   300000 256100                    ORSQ    0,,PR3

  27181 28 005600   005747 710000 28                 TRA     s:28004

     1552    27183
     1553    27184    2       ELSE
     1554    27185    3         DO;

     1555    27186                %FISH (TRIAD = USER_CLASS$ -> LX_ETT_ITEM.ETT$,
     1556    27187                       RTN = CLASS_ST$);

  27189 28 005601   200033 474500                    LDP4    @USER_CLASS$,,AUTO
        28 005602   400000 475500                    LDP5    0,,PR4
        28 005603   500001 236100                    LDQ     1,,PR5
        28 005604   200035 756100                    STQ     CLASS_ST$,,AUTO

  27190 28 005605   200035 476500                    LDP6    CLASS_ST$,,AUTO
        28 005606   600000 222100                    LDX2    0,,PR6
        28 005607   000751 102003                    CMPX2   489,DU
        28 005610   005620 603000 28                 TRC     s:27196

  27191 28 005611   200035 470500                    LDP0    CLASS_ST$,,AUTO
        28 005612   000001 236100                    LDQ     1,,PR0
        28 005613   200035 756100                    STQ     CLASS_ST$,,AUTO

  27192 28 005614   200035 470500                    LDP0    CLASS_ST$,,AUTO
        28 005615   000000 220100                    LDX0    0,,PR0
        28 005616   000751 100003                    CMPX0   489,DU
PL6.E3A0      #001=Z8EK$OPTIMAL_BRANCHES File=Z8EK.:Z8A6TSI                      SAT 08/09/97 11:56 Page:253
        28 005617   005611 602000 28                 TNC     s:27191

     1557    27195
     1558    27196    3           IF CLASS_ST$ -> ST.ID ~= %CLASS THEN

  27196 28 005620   200035 470500                    LDP0    CLASS_ST$,,AUTO
        28 005621   000000 220100                    LDX0    0,,PR0
        28 005622   000757 100003                    CMPX0   495,DU
        28 005623   005650 600000 28                 TZE     s:27232

     1559    27197                  %CONDITIONAL_ERROR (@ERROR# = %E$CLASS_EXPECTED,
     1560    27198                                      @LX_ITEM$ = USER_CLASS$,
     1561    27199                                      @LINE = USER_CLASS$ -> LX_ETT_ITEM.LINE,
     1562    27200                                      @COLUMN = USER_CLASS$ -> LX_ETT_ITEM.COLUMN);

  27210 28 005624   200033 471500                    LDP1    @USER_CLASS$,,AUTO
        28 005625   100000 473500                    LDP3    0,,PR1
        28 005626   300000 236100                    LDQ     0,,PR3
        28 005627   400000 316007                    CANQ    -131072,DL
        28 005630   005747 601000 28                 TNZ     s:28004

  27212 28 005631   300006 634500                    EPPR4   6,,PR3
        28 005632   200324 454500                    STP4    COLLATING$+3,,AUTO
        28 005633   300005 635500                    EPPR5   5,,PR3
        28 005634   200323 455500                    STP5    COLLATING$+2,,AUTO
        28 005635   000154 236000 29                 LDQ     108
        28 005636   200322 756100                    STQ     COLLATING$+1,,AUTO
        28 005637   200322 630500                    EPPR0   COLLATING$+1,,AUTO
        28 005640   000036 631400 29                 EPPR1   30
        28 005641   000000 701000 xent               TSX1    Z8AE$ERROR
        28 005642   000000 011000                    NOP     0

  27221 28 005643   200033 470500                    LDP0    @USER_CLASS$,,AUTO
        28 005644   000000 471500                    LDP1    0,,PR0
        28 005645   400000 236007                    LDQ     -131072,DL
        28 005646   100000 256100                    ORSQ    0,,PR1

PL6.E3A0      #001=Z8EK$OPTIMAL_BRANCHES File=Z8EK.:Z8A6TSI                      SAT 08/09/97 11:56 Page:254
  27228 28 005647   005747 710000 28                 TRA     s:28004

     1563    27230    3           ELSE
     1564    27231    4             DO;

     1565    27232    4               CALL Z8AF$FORME (%TRIAD,

  27232 28 005650   000000 236000 29                 LDQ     0
        28 005651   200322 756100                    STQ     COLLATING$+1,,AUTO
        28 005652   200036 631500                    EPPR1   CLASS_TABLE_ETT$,,AUTO
        28 005653   200327 451500                    STP1    COLLATING$+6,,AUTO
        28 005654   200322 633500                    EPPR3   COLLATING$+1,,AUTO
        28 005655   200326 453500                    STP3    COLLATING$+5,,AUTO
        28 005656   200035 236100                    LDQ     CLASS_ST$,,AUTO
        28 005657   000001 036003                    ADLQ    1,DU
        28 005660   000156 235000 29                 LDA     110
        28 005661   200324 757100                    STAQ    COLLATING$+3,,AUTO
        28 005662   200324 630500                    EPPR0   COLLATING$+3,,AUTO
        28 005663   000003 631400 29                 EPPR1   3
        28 005664   000000 701000 xent               TSX1    Z8AF$FORME
        28 005665   000000 011000                    NOP     0

     1566    27233    4                                CLASS_ST$ -> CLASS.TABLE$,
     1567    27234    4                                ADDR(NIL),
     1568    27235    4                                CLASS_TABLE_ETT$);
     1569    27236    4               CALL Z8AF$FORME (%CMPC,

  27236 28 005666   200004 470500                    LDP0    @NODE$,,AUTO
        28 005667   000000 471500                    LDP1    0,,PR0
        28 005670   100001 473500                    LDP3    1,,PR1
        28 005671   200017 634500                    EPPR4   ETT$$,,AUTO
        28 005672   200325 454500                    STP4    COLLATING$+4,,AUTO
        28 005673   200036 631500                    EPPR1   CLASS_TABLE_ETT$,,AUTO
        28 005674   200324 451500                    STP1    COLLATING$+3,,AUTO
        28 005675   300001 635500                    EPPR5   1,,PR3
        28 005676   200323 455500                    STP5    COLLATING$+2,,AUTO
        28 005677   000124 236000 29                 LDQ     84
PL6.E3A0      #001=Z8EK$OPTIMAL_BRANCHES File=Z8EK.:Z8A6TSI                      SAT 08/09/97 11:56 Page:255
        28 005700   200322 756100                    STQ     COLLATING$+1,,AUTO
        28 005701   200322 630500                    EPPR0   COLLATING$+1,,AUTO
        28 005702   000003 631400 29                 EPPR1   3
        28 005703   000000 701000 xent               TSX1    Z8AF$FORME
        28 005704   000000 011000                    NOP     0

     1570    27237    4                                NODE$ -> BINARY_OP.LOP$ -> LX_ETT_ITEM.ETT$,
     1571    27238    4                                CLASS_TABLE_ETT$,
     1572    27239    4                                ETT$$);
     1573    27240                    %NEW_ILL (@ID = %LINOI);

  27273 28 005705   000017 236000 29                 LDQ     15
        28 005706   200322 756100                    STQ     COLLATING$+1,,AUTO
        28 005707   200322 630500                    EPPR0   COLLATING$+1,,AUTO
        28 005710   200327 450500                    STP0    COLLATING$+6,,AUTO
        28 005711   000020 236000 29                 LDQ     16
        28 005712   200326 756100                    STQ     COLLATING$+5,,AUTO
        28 005713   000104 237000 29                 LDAQ    68
        28 005714   200324 757100                    STAQ    COLLATING$+3,,AUTO
        28 005715   200324 630500                    EPPR0   COLLATING$+3,,AUTO
        28 005716   000003 631400 29                 EPPR1   3
        28 005717   000000 701000 xent               TSX1    Z8AN$NEW_ILL
        28 005720   000000 011000                    NOP     0

     1574    27619                    %NEW_ILL (@ID = %GO,
     1575    27620                              @CODE = GO_CODE,
     1576    27621                              @EXPR$ = ETT$$,
     1577    27622                              @LABEL$ = LABEL$);

  27783 28 005721   000017 236000 29                 LDQ     15
        28 005722   200322 756100                    STQ     COLLATING$+1,,AUTO
        28 005723   200322 630500                    EPPR0   COLLATING$+1,,AUTO
        28 005724   200327 450500                    STP0    COLLATING$+6,,AUTO
        28 005725   000020 236000 29                 LDQ     16
        28 005726   200326 756100                    STQ     COLLATING$+5,,AUTO
        28 005727   000116 237000 29                 LDAQ    78
        28 005730   200324 757100                    STAQ    COLLATING$+3,,AUTO
PL6.E3A0      #001=Z8EK$OPTIMAL_BRANCHES File=Z8EK.:Z8A6TSI                      SAT 08/09/97 11:56 Page:256
        28 005731   200324 630500                    EPPR0   COLLATING$+3,,AUTO
        28 005732   000003 631400 29                 EPPR1   3
        28 005733   000000 701000 xent               TSX1    Z8AN$NEW_ILL
        28 005734   000000 011000                    NOP     0

  27784 28 005735   200034 470500                    LDP0    @GO_CODE,,AUTO
        28 005736   000000 720100                    LXL0    0,,PR0
        28 005737   000000 471400 7                  LDP1    ILL$
        28 005740   100000 440100                    SXL0    0,,PR1

  27785 28 005741   200003 471500                    LDP1    @LABEL$,,AUTO
        28 005742   100000 236100                    LDQ     0,,PR1
        28 005743   000000 473400 7                  LDP3    ILL$
        28 005744   300001 756100                    STQ     1,,PR3

  27786 28 005745   200017 236100                    LDQ     ETT$$,,AUTO
        28 005746   300002 756100                    STQ     2,,PR3

     1578    28001    4             END;

     1579    28002    3         END;

     1580    28003
     1581    28004    2   END COMPARE_USER_CLASS;

  28004 28 005747   200032 221300                    LDX1  ! TRANS_TABLE_ETT$+1,,AUTO
        28 005750   000001 702211                    TSX2  ! 1,X1

     1582    28005        %EJECT;
PL6.E3A0      #001=Z8EK$OPTIMAL_BRANCHES File=Z8EK.:Z8A6TSI                      SAT 08/09/97 11:56 Page:257
     1583    28006    1   GEN_GO : PROC (GO_CODE);

  28006 28 005751   200032 741300       GEN_GO       STX1  ! TRANS_TABLE_ETT$+1,,AUTO

     1584    28007
     1585    28008    2     DCL GO_CODE SBIN WORD;
     1586    28009
     1587    28010          %NEW_ILL ( @ID = %LINOI );

  28043 28 005752   000017 236000 29                 LDQ     15
        28 005753   200322 756100                    STQ     COLLATING$+1,,AUTO
        28 005754   200322 630500                    EPPR0   COLLATING$+1,,AUTO
        28 005755   200327 450500                    STP0    COLLATING$+6,,AUTO
        28 005756   000020 236000 29                 LDQ     16
        28 005757   200326 756100                    STQ     COLLATING$+5,,AUTO
        28 005760   000104 237000 29                 LDAQ    68
        28 005761   200324 757100                    STAQ    COLLATING$+3,,AUTO
        28 005762   200324 630500                    EPPR0   COLLATING$+3,,AUTO
        28 005763   000003 631400 29                 EPPR1   3
        28 005764   000000 701000 xent               TSX1    Z8AN$NEW_ILL
        28 005765   000000 011000                    NOP     0

     1588    28389          %NEW_ILL ( @ID          = %GO ,
     1589    28390                     @CODE        = GO_CODE,
     1590    28391                     @EXPR$       = EXPRESSION$ -> LX_ETT_ITEM.ETT$,
     1591    28392                     @LABEL$      = LABEL$ );

  28553 28 005766   000017 236000 29                 LDQ     15
        28 005767   200322 756100                    STQ     COLLATING$+1,,AUTO
        28 005770   200322 630500                    EPPR0   COLLATING$+1,,AUTO
        28 005771   200327 450500                    STP0    COLLATING$+6,,AUTO
        28 005772   000020 236000 29                 LDQ     16
        28 005773   200326 756100                    STQ     COLLATING$+5,,AUTO
        28 005774   000116 237000 29                 LDAQ    78
        28 005775   200324 757100                    STAQ    COLLATING$+3,,AUTO
        28 005776   200324 630500                    EPPR0   COLLATING$+3,,AUTO
        28 005777   000003 631400 29                 EPPR1   3
PL6.E3A0      #001=Z8EK$OPTIMAL_BRANCHES File=Z8EK.:Z8A6TSI                      SAT 08/09/97 11:56 Page:258
        28 006000   000000 701000 xent               TSX1    Z8AN$NEW_ILL
        28 006001   000000 011000                    NOP     0

  28554 28 006002   200033 470500                    LDP0    @GO_CODE,,AUTO
        28 006003   000000 720100                    LXL0    0,,PR0
        28 006004   000000 471400 7                  LDP1    ILL$
        28 006005   100000 440100                    SXL0    0,,PR1

  28555 28 006006   200003 471500                    LDP1    @LABEL$,,AUTO
        28 006007   100000 236100                    LDQ     0,,PR1
        28 006010   000000 473400 7                  LDP3    ILL$
        28 006011   300001 756100                    STQ     1,,PR3

  28556 28 006012   200005 474500                    LDP4    EXPRESSION$,,AUTO
        28 006013   400001 236100                    LDQ     1,,PR4
        28 006014   300002 756100                    STQ     2,,PR3

     1592    28771
     1593    28772    2   END GEN_GO;

  28772 28 006015   200032 221300                    LDX1  ! TRANS_TABLE_ETT$+1,,AUTO
        28 006016   000001 702211                    TSX2  ! 1,X1

     1594    28773        %EJECT;
PL6.E3A0      #001=Z8EK$OPTIMAL_BRANCHES File=Z8EK.:Z8A6TSI                      SAT 08/09/97 11:56 Page:259
     1595    28774    1   GEN_NUMERIC_COMPARE : PROC;

  28774 28 006017   200034 741300       GEN_NUMERIC* STX1  ! @GO_CODE,,AUTO

     1596    28775
     1597    28776          %FISH (TRIAD = NODE$ -> UNARY_OP.LOP$ -> LX_ETT_ITEM.ETT$,
     1598    28777                 RTN = VAR_ST$);

  28779 28 006020   200004 470500                    LDP0    @NODE$,,AUTO
        28 006021   000000 471500                    LDP1    0,,PR0
        28 006022   100001 473500                    LDP3    1,,PR1
        28 006023   300001 236100                    LDQ     1,,PR3
        28 006024   200027 756100                    STQ     VAR_ST$,,AUTO

  28780 28 006025   200027 474500                    LDP4    VAR_ST$,,AUTO
        28 006026   400000 220100                    LDX0    0,,PR4
        28 006027   000751 100003                    CMPX0   489,DU
        28 006030   006040 603000 28                 TRC     s:28786

  28781 28 006031   200027 470500                    LDP0    VAR_ST$,,AUTO
        28 006032   000001 236100                    LDQ     1,,PR0
        28 006033   200027 756100                    STQ     VAR_ST$,,AUTO

  28782 28 006034   200027 470500                    LDP0    VAR_ST$,,AUTO
        28 006035   000000 220100                    LDX0    0,,PR0
        28 006036   000751 100003                    CMPX0   489,DU
        28 006037   006031 602000 28                 TNC     s:28781

     1599    28785
     1600    28786    2     IF (VAR_ST$ -> ST.ID = %SCALAR

  28786 28 006040   200027 470500                    LDP0    VAR_ST$,,AUTO
        28 006041   000000 220100                    LDX0    0,,PR0
        28 006042   000766 100003                    CMPX0   502,DU
        28 006043   006046 600000 28                 TZE     s:28786+6
        28 006044   000765 100003                    CMPX0   501,DU
        28 006045   006077 601000 28                 TNZ     s:28824
PL6.E3A0      #001=Z8EK$OPTIMAL_BRANCHES File=Z8EK.:Z8A6TSI                      SAT 08/09/97 11:56 Page:260
        28 006046   000003 236100                    LDQ     3,,PR0
        28 006047   000007 376007                    ANQ     7,DL
        28 006050   000002 116007                    CMPQ    2,DL
        28 006051   006077 601000 28                 TNZ     s:28824

     1601    28787    2           OR VAR_ST$ -> ST.ID = %ARRAY)
     1602    28788    2        AND VAR_ST$ -> VARIABLE.B.CLASS = %CLASS_ALPHABETIC THEN
     1603    28789
     1604    28790            %CONDITIONAL_ERROR (@ERROR# = %E$CLASS_NUMERIC_ON_ALPHABETIC,
     1605    28791                 @LX_ITEM$ = NODE$ -> UNARY_OP.LOP$,
     1606    28792                 @LINE = NODE$ -> UNARY_OP.LOP$ -> LX_ETT_ITEM.LINE,
     1607    28793                 @COLUMN = NODE$ -> UNARY_OP.LOP$ -> LX_ETT_ITEM.COLUMN);

  28803 28 006052   200004 471500                    LDP1    @NODE$,,AUTO
        28 006053   100000 473500                    LDP3    0,,PR1
        28 006054   300001 474500                    LDP4    1,,PR3
        28 006055   400000 236100                    LDQ     0,,PR4
        28 006056   400000 316007                    CANQ    -131072,DL
        28 006057   006077 601000 28                 TNZ     s:28824

  28805 28 006060   400006 635500                    EPPR5   6,,PR4
        28 006061   200324 455500                    STP5    COLLATING$+3,,AUTO
        28 006062   400005 633500                    EPPR3   5,,PR4
        28 006063   200323 453500                    STP3    COLLATING$+2,,AUTO
        28 006064   000160 236000 29                 LDQ     112
        28 006065   200322 756100                    STQ     COLLATING$+1,,AUTO
        28 006066   200322 630500                    EPPR0   COLLATING$+1,,AUTO
        28 006067   000036 631400 29                 EPPR1   30
        28 006070   000000 701000 xent               TSX1    Z8AE$ERROR
        28 006071   000000 011000                    NOP     0

  28814 28 006072   200004 470500                    LDP0    @NODE$,,AUTO
        28 006073   000000 471500                    LDP1    0,,PR0
        28 006074   100001 473500                    LDP3    1,,PR1
        28 006075   400000 236007                    LDQ     -131072,DL
        28 006076   300000 256100                    ORSQ    0,,PR3

PL6.E3A0      #001=Z8EK$OPTIMAL_BRANCHES File=Z8EK.:Z8A6TSI                      SAT 08/09/97 11:56 Page:261
     1608    28823
     1609    28824    2     CALL Z8CO$CREATE_LIBRARY_BASE (%OP_CLASS_NUMERIC,

  28824 28 006077   200031 630500                    EPPR0   TRANS_TABLE_ETT$,,AUTO
        28 006100   200323 450500                    STP0    COLLATING$+2,,AUTO
        28 006101   000133 236000 29                 LDQ     91
        28 006102   200322 756100                    STQ     COLLATING$+1,,AUTO
        28 006103   200322 630500                    EPPR0   COLLATING$+1,,AUTO
        28 006104   000002 631400 29                 EPPR1   2
        28 006105   000000 701000 xent               TSX1    Z8CO$CREATE_LIBRARY_BASE
        28 006106   000000 011000                    NOP     0

     1610    28825    2                                    TRANS_TABLE_ETT$);
     1611    28826
     1612    28827    2     CALL Z8AF$FORME (%CMPC,

  28827 28 006107   200004 470500                    LDP0    @NODE$,,AUTO
        28 006110   000000 471500                    LDP1    0,,PR0
        28 006111   100001 473500                    LDP3    1,,PR1
        28 006112   200017 634500                    EPPR4   ETT$$,,AUTO
        28 006113   200325 454500                    STP4    COLLATING$+4,,AUTO
        28 006114   200031 631500                    EPPR1   TRANS_TABLE_ETT$,,AUTO
        28 006115   200324 451500                    STP1    COLLATING$+3,,AUTO
        28 006116   300001 635500                    EPPR5   1,,PR3
        28 006117   200323 455500                    STP5    COLLATING$+2,,AUTO
        28 006120   000124 236000 29                 LDQ     84
        28 006121   200322 756100                    STQ     COLLATING$+1,,AUTO
        28 006122   200322 630500                    EPPR0   COLLATING$+1,,AUTO
        28 006123   000003 631400 29                 EPPR1   3
        28 006124   000000 701000 xent               TSX1    Z8AF$FORME
        28 006125   000000 011000                    NOP     0

     1613    28828    2                      NODE$ -> UNARY_OP.LOP$ -> LX_ETT_ITEM.ETT$,
     1614    28829    2                      TRANS_TABLE_ETT$,
     1615    28830    2                      ETT$$);
     1616    28831
     1617    28832    2   END GEN_NUMERIC_COMPARE;
PL6.E3A0      #001=Z8EK$OPTIMAL_BRANCHES File=Z8EK.:Z8A6TSI                      SAT 08/09/97 11:56 Page:262

  28832 28 006126   200034 221300                    LDX1  ! @GO_CODE,,AUTO
        28 006127   000001 702211                    TSX2  ! 1,X1

     1618    28833        %EJECT;
PL6.E3A0      #001=Z8EK$OPTIMAL_BRANCHES File=Z8EK.:Z8A6TSI                      SAT 08/09/97 11:56 Page:263
     1619    28834    1   CONV_TO_ASCII : PROC;

  28834 28 006130   200034 741300       CONV_TO_ASC* STX1  ! @GO_CODE,,AUTO

     1620    28835        /*I*
     1621    28836            NAME: CONV_TO_ASCII
     1622    28837         PURPOSE: Convert a GBCD or EBCDIC variable to ASCII
     1623    28838        */
     1624    28839          %FISH (TRIAD = NODE$ -> UNARY_OP.LOP$ -> LX_ETT_ITEM.ETT$,
     1625    28840                 RTN = VAR_ST$);

  28842 28 006131   200004 470500                    LDP0    @NODE$,,AUTO
        28 006132   000000 471500                    LDP1    0,,PR0
        28 006133   100001 473500                    LDP3    1,,PR1
        28 006134   300001 236100                    LDQ     1,,PR3
        28 006135   200027 756100                    STQ     VAR_ST$,,AUTO

  28843 28 006136   200027 474500                    LDP4    VAR_ST$,,AUTO
        28 006137   400000 220100                    LDX0    0,,PR4
        28 006140   000751 100003                    CMPX0   489,DU
        28 006141   006151 603000 28                 TRC     s:28849

  28844 28 006142   200027 470500                    LDP0    VAR_ST$,,AUTO
        28 006143   000001 236100                    LDQ     1,,PR0
        28 006144   200027 756100                    STQ     VAR_ST$,,AUTO

  28845 28 006145   200027 470500                    LDP0    VAR_ST$,,AUTO
        28 006146   000000 220100                    LDX0    0,,PR0
        28 006147   000751 100003                    CMPX0   489,DU
        28 006150   006142 602000 28                 TNC     s:28844

     1626    28848
     1627    28849    2     CALL Z8AT$CREATE_TEMPORARY (%SCALAR, TEMP_ST$);

  28849 28 006151   200020 630500                    EPPR0   TEMP_ST$,,AUTO
        28 006152   200323 450500                    STP0    COLLATING$+2,,AUTO
        28 006153   000070 236000 29                 LDQ     56
PL6.E3A0      #001=Z8EK$OPTIMAL_BRANCHES File=Z8EK.:Z8A6TSI                      SAT 08/09/97 11:56 Page:264
        28 006154   200322 756100                    STQ     COLLATING$+1,,AUTO
        28 006155   200322 630500                    EPPR0   COLLATING$+1,,AUTO
        28 006156   000002 631400 29                 EPPR1   2
        28 006157   000000 701000 xent               TSX1    Z8AT$CREATE_TEMPORARY
        28 006160   000000 011000                    NOP     0

     1628    28850    2     TEMP_ST$ -> SCALAR.DESCL = TYPE_DESC.DESC.DESCL;

  28850 28 006161   200024 720100                    LXL0    TYPE_DESC+1,,AUTO
        28 006162   200020 470500                    LDP0    TEMP_ST$,,AUTO
        28 006163   000001 440100                    SXL0    1,,PR0

     1629    28851    2     TEMP_ST$ -> SCALAR.NDSC.CN = 0;

  28851 28 006164   200020 470500                    LDP0    TEMP_ST$,,AUTO
        28 006165   000161 236000 29                 LDQ     113
        28 006166   000001 356100                    ANSQ    1,,PR0

     1630    28852    2     TEMP_ST$ -> SCALAR.B.CLASS = VAR_ST$ -> SCALAR.B.CLASS;

  28852 28 006167   200027 470500                    LDP0    VAR_ST$,,AUTO
        28 006170   200020 471500                    LDP1    TEMP_ST$,,AUTO
        28 006171   000003 236100                    LDQ     3,,PR0
        28 006172   100003 676100                    ERQ     3,,PR1
        28 006173   000007 376007                    ANQ     7,DL
        28 006174   100003 656100                    ERSQ    3,,PR1

     1631    28853    2     CALL Z8AF$NEW_BASE (TEMP_ST$, ADDR(NIL), ETT$$);

  28853 28 006175   000000 236000 29                 LDQ     0
        28 006176   200322 756100                    STQ     COLLATING$+1,,AUTO
        28 006177   200017 631500                    EPPR1   ETT$$,,AUTO
        28 006200   200325 451500                    STP1    COLLATING$+4,,AUTO
        28 006201   200322 633500                    EPPR3   COLLATING$+1,,AUTO
        28 006202   200324 453500                    STP3    COLLATING$+3,,AUTO
        28 006203   200020 634500                    EPPR4   TEMP_ST$,,AUTO
        28 006204   200323 454500                    STP4    COLLATING$+2,,AUTO
PL6.E3A0      #001=Z8EK$OPTIMAL_BRANCHES File=Z8EK.:Z8A6TSI                      SAT 08/09/97 11:56 Page:265
        28 006205   200323 630500                    EPPR0   COLLATING$+2,,AUTO
        28 006206   000036 631400 29                 EPPR1   30
        28 006207   000000 701000 xent               TSX1    Z8AF$NEW_BASE
        28 006210   000000 011000                    NOP     0

     1632    28854    2     IF NODE$ -> UNARY_OP.LOP$ -> LX_ETT_ITEM.TYPE = %TYE OR

  28854 28 006211   200004 470500                    LDP0    @NODE$,,AUTO
        28 006212   000000 471500                    LDP1    0,,PR0
        28 006213   100001 473500                    LDP3    1,,PR1
        28 006214   300004 235100                    LDA     4,,PR3
        28 006215   000006 115007                    CMPA    6,DL
        28 006216   006221 600000 28                 TZE     s:28856
        28 006217   000013 115007                    CMPA    11,DL
        28 006220   006232 601000 28                 TNZ     s:28857

     1633    28855    2         NODE$ -> UNARY_OP.LOP$ -> LX_ETT_ITEM.TYPE = %TYF
     1634    28856    2       THEN CALL Z8CO$CREATE_LIBRARY_BASE (%OP_EBCDIC_TO_ASCII, TRANS_TABLE_ETT$);

  28856 28 006221   200031 634500                    EPPR4   TRANS_TABLE_ETT$,,AUTO
        28 006222   200323 454500                    STP4    COLLATING$+2,,AUTO
        28 006223   000150 236000 29                 LDQ     104
        28 006224   200322 756100                    STQ     COLLATING$+1,,AUTO
        28 006225   200322 630500                    EPPR0   COLLATING$+1,,AUTO
        28 006226   000002 631400 29                 EPPR1   2
        28 006227   000000 701000 xent               TSX1    Z8CO$CREATE_LIBRARY_BASE
        28 006230   000000 011000                    NOP     0
        28 006231   006242 710000 28                 TRA     s:29133

     1635    28857    2       ELSE CALL Z8CO$CREATE_LIBRARY_BASE (%OP_GBCD_TO_ASCII, TRANS_TABLE_ETT$);

  28857 28 006232   200031 634500                    EPPR4   TRANS_TABLE_ETT$,,AUTO
        28 006233   200323 454500                    STP4    COLLATING$+2,,AUTO
        28 006234   000050 236000 29                 LDQ     40
        28 006235   200322 756100                    STQ     COLLATING$+1,,AUTO
        28 006236   200322 630500                    EPPR0   COLLATING$+1,,AUTO
        28 006237   000002 631400 29                 EPPR1   2
PL6.E3A0      #001=Z8EK$OPTIMAL_BRANCHES File=Z8EK.:Z8A6TSI                      SAT 08/09/97 11:56 Page:266
        28 006240   000000 701000 xent               TSX1    Z8CO$CREATE_LIBRARY_BASE
        28 006241   000000 011000                    NOP     0

     1636    28858          %NEW_ILL (@ID = %MVT,
     1637    28859                    @FROM = NODE$ -> UNARY_OP.LOP$ -> LX_ETT_ITEM.ETT$,
     1638    28860                    @TABLE = TRANS_TABLE_ETT$,
     1639    28861                    @TO = ETT$$);

  29133 28 006242   000017 236000 29                 LDQ     15
        28 006243   200322 756100                    STQ     COLLATING$+1,,AUTO
        28 006244   200017 630500                    EPPR0   ETT$$,,AUTO
        28 006245   200327 450500                    STP0    COLLATING$+6,,AUTO
        28 006246   200322 631500                    EPPR1   COLLATING$+1,,AUTO
        28 006247   200326 451500                    STP1    COLLATING$+5,,AUTO
        28 006250   000164 237000 29                 LDAQ    116
        28 006251   200324 757100                    STAQ    COLLATING$+3,,AUTO
        28 006252   000111 236000 29                 LDQ     73
        28 006253   200323 756100                    STQ     COLLATING$+2,,AUTO
        28 006254   200323 630500                    EPPR0   COLLATING$+2,,AUTO
        28 006255   000162 631400 29                 EPPR1   114
        28 006256   000000 701000 xent               TSX1    Z8AN$NEW_ILL1
        28 006257   000000 011000                    NOP     0

  29134 28 006260   200004 470500                    LDP0    @NODE$,,AUTO
        28 006261   000000 471500                    LDP1    0,,PR0
        28 006262   100001 473500                    LDP3    1,,PR1
        28 006263   300001 236100                    LDQ     1,,PR3
        28 006264   000000 474400 7                  LDP4    ILL$
        28 006265   400001 756100                    STQ     1,,PR4

  29135 28 006266   200031 236100                    LDQ     TRANS_TABLE_ETT$,,AUTO
        28 006267   400002 756100                    STQ     2,,PR4

  29136 28 006270   200017 236100                    LDQ     ETT$$,,AUTO
        28 006271   400003 756100                    STQ     3,,PR4

     1640    29240
PL6.E3A0      #001=Z8EK$OPTIMAL_BRANCHES File=Z8EK.:Z8A6TSI                      SAT 08/09/97 11:56 Page:267
     1641    29241    2     NODE$ -> UNARY_OP.LOP$ -> LX_ETT_ITEM.ETT$ = ETT$$;

  29241 28 006272   000000 471500                    LDP1    0,,PR0
        28 006273   100001 473500                    LDP3    1,,PR1
        28 006274   200017 236100                    LDQ     ETT$$,,AUTO
        28 006275   300001 756100                    STQ     1,,PR3

     1642    29242    2   END CONV_TO_ASCII;

  29242 28 006276   200034 221300                    LDX1  ! @GO_CODE,,AUTO
        28 006277   000001 702211                    TSX2  ! 1,X1

     1643    29243        %EJECT;
PL6.E3A0      #001=Z8EK$OPTIMAL_BRANCHES File=Z8EK.:Z8A6TSI                      SAT 08/09/97 11:56 Page:268
     1644    29244    1   COMPARE_NUMERIC_CLASS : PROC;

  29244 28 006300   200032 741300       COMPARE_NUM* STX1  ! TRANS_TABLE_ETT$+1,,AUTO

     1645    29245
     1646    29246    2     IF NODE$ -> UNARY_OP.LOP$ -> LX_ITEM.ID ~= %LX_ETT_ITEM THEN

  29246 28 006301   200004 470500                    LDP0    @NODE$,,AUTO
        28 006302   000000 471500                    LDP1    0,,PR0
        28 006303   100001 473500                    LDP3    1,,PR1
        28 006304   300000 220100                    LDX0    0,,PR3
        28 006305   000004 100003                    CMPX0   4,DU
        28 006306   006332 600000 28                 TZE     s:29285

     1647    29247
     1648    29248            %CONDITIONAL_ERROR (@ERROR# = %E$CLASS_ON_NON_IDENTIFIER,
     1649    29249                  @LX_ITEM$ = NODE$ -> UNARY_OP.LOP$,
     1650    29250                  @LINE = NODE$ -> UNARY_OP.LOP$ -> LX_ITEM.LINE,
     1651    29251                  @COLUMN = NODE$ -> UNARY_OP.LOP$ -> LX_ITEM.COLUMN);

  29261 28 006307   300000 236100                    LDQ     0,,PR3
        28 006310   400000 316007                    CANQ    -131072,DL
        28 006311   007175 601000 28                 TNZ     s:32507

  29263 28 006312   300006 634500                    EPPR4   6,,PR3
        28 006313   200324 454500                    STP4    COLLATING$+3,,AUTO
        28 006314   300005 631500                    EPPR1   5,,PR3
        28 006315   200323 451500                    STP1    COLLATING$+2,,AUTO
        28 006316   000146 236000 29                 LDQ     102
        28 006317   200322 756100                    STQ     COLLATING$+1,,AUTO
        28 006320   200322 630500                    EPPR0   COLLATING$+1,,AUTO
        28 006321   000036 631400 29                 EPPR1   30
        28 006322   000000 701000 xent               TSX1    Z8AE$ERROR
        28 006323   000000 011000                    NOP     0

  29272 28 006324   200004 470500                    LDP0    @NODE$,,AUTO
        28 006325   000000 471500                    LDP1    0,,PR0
PL6.E3A0      #001=Z8EK$OPTIMAL_BRANCHES File=Z8EK.:Z8A6TSI                      SAT 08/09/97 11:56 Page:269
        28 006326   100001 473500                    LDP3    1,,PR1
        28 006327   400000 236007                    LDQ     -131072,DL
        28 006330   300000 256100                    ORSQ    0,,PR3

  29279 28 006331   007175 710000 28                 TRA     s:32507

     1652    29281
     1653    29282    2     ELSE
     1654    29283    3       DO;

     1655    29284
     1656    29285    3         CALL Z8AU$TYPE_DESCRIPTOR

  29285 28 006332   200023 634500                    EPPR4   TYPE_DESC,,AUTO
        28 006333   200323 454500                    STP4    COLLATING$+2,,AUTO
        28 006334   300001 631500                    EPPR1   1,,PR3
        28 006335   200322 451500                    STP1    COLLATING$+1,,AUTO
        28 006336   200322 630500                    EPPR0   COLLATING$+1,,AUTO
        28 006337   000002 631400 29                 EPPR1   2
        28 006340   000000 701000 xent               TSX1    Z8AU$TYPE_DESCRIPTOR
        28 006341   000000 011000                    NOP     0

     1657    29286    3                (NODE$ -> UNARY_OP.LOP$ -> LX_ETT_ITEM.ETT$,
     1658    29287    3                 TYPE_DESC);
     1659    29288
     1660    29289    4         DO CASE (NODE$ -> UNARY_OP.LOP$ -> LX_ETT_ITEM.TYPE);

  29289 28 006342   200004 470500                    LDP0    @NODE$,,AUTO
        28 006343   000000 471500                    LDP1    0,,PR0
        28 006344   100001 473500                    LDP3    1,,PR1
        28 006345   300004 235100                    LDA     4,,PR3
        28 006346   000024 115007                    CMPA    20,DL
        28 006347   006351 602005 28                 TNC     s:29289+7,AL
        28 006350   007153 710000 28                 TRA     s:32483
        28 006351   006435 710000 28                 TRA     s:29314
        28 006352   007153 710000 28                 TRA     s:32483
        28 006353   007153 710000 28                 TRA     s:32483
PL6.E3A0      #001=Z8EK$OPTIMAL_BRANCHES File=Z8EK.:Z8A6TSI                      SAT 08/09/97 11:56 Page:270
        28 006354   006375 710000 28                 TRA     s:29293
        28 006355   007153 710000 28                 TRA     s:32483
        28 006356   007153 710000 28                 TRA     s:32483
        28 006357   006626 710000 28                 TRA     s:30117
        28 006360   007153 710000 28                 TRA     s:32483
        28 006361   007107 710000 28                 TRA     s:31704
        28 006362   007153 710000 28                 TRA     s:32483
        28 006363   007153 710000 28                 TRA     s:32483
        28 006364   006626 710000 28                 TRA     s:30117
        28 006365   006626 710000 28                 TRA     s:30117
        28 006366   007153 710000 28                 TRA     s:32483
        28 006367   007153 710000 28                 TRA     s:32483
        28 006370   007153 710000 28                 TRA     s:32483
        28 006371   007153 710000 28                 TRA     s:32483
        28 006372   007153 710000 28                 TRA     s:32483
        28 006373   007153 710000 28                 TRA     s:32483
        28 006374   006626 710000 28                 TRA     s:30117

     1661    29290
     1662    29291    4           CASE(%TYO);

     1663    29292
     1664    29293    4             CALL SET_UP_BRA_TRUE_NUMERIC;

  29293 28 006375   004056 701000 28                 TSX1    SET_UP_BRA_TRUE_NUMERIC
        28 006376   000000 011000                    NOP     0

     1665    29294
     1666    29295    5             DO SELECT(TYPE_DESC.DESC.NDSC.S);

  29295 28 006377   200024 236100                    LDQ     TYPE_DESC+1,,AUTO
        28 006400   030000 376007                    ANQ     12288,DL
        28 006401   010000 116007                    CMPQ    4096,DL
        28 006402   006426 602000 28                 TNC     s:29307
        28 006403   200024 236100                    LDQ     TYPE_DESC+1,,AUTO
        28 006404   030000 376007                    ANQ     12288,DL
        28 006405   010000 116007                    CMPQ    4096,DL
PL6.E3A0      #001=Z8EK$OPTIMAL_BRANCHES File=Z8EK.:Z8A6TSI                      SAT 08/09/97 11:56 Page:271
        28 006406   006414 600000 28                 TZE     s:29299
        28 006407   200024 236100                    LDQ     TYPE_DESC+1,,AUTO
        28 006410   030000 376007                    ANQ     12288,DL
        28 006411   020000 116007                    CMPQ    8192,DL
        28 006412   006426 601000 28                 TNZ     s:29307
        28 006413   006421 710000 28                 TRA     s:29303

     1667    29296
     1668    29297    5               SELECT(%LEADING_SIGN);

     1669    29298
     1670    29299    5                 CALL BRA_TRUE_LEADING_SIGN_NUMERIC (TEMP_LAB$);

  29299 28 006414   200030 630500                    EPPR0   TEMP_LAB$,,AUTO
        28 006415   200035 450500                    STP0    CLASS_ST$,,AUTO
        28 006416   004073 701000 28                 TSX1    BRA_TRUE_LEADING_SIGN_NUMERIC
        28 006417   000000 011000                    NOP     0
        28 006420   006432 710000 28                 TRA     s:29310

     1671    29300
     1672    29301    5               SELECT(%TRAILING_SIGN);

     1673    29302
     1674    29303    5                 CALL BRA_TRUE_TRAILING_SIGN_NUMERIC (TEMP_LAB$);

  29303 28 006421   200030 630500                    EPPR0   TEMP_LAB$,,AUTO
        28 006422   200035 450500                    STP0    CLASS_ST$,,AUTO
        28 006423   004435 701000 28                 TSX1    BRA_TRUE_TRAILING_SIGN_NUMERIC
        28 006424   000000 011000                    NOP     0
        28 006425   006432 710000 28                 TRA     s:29310

     1675    29304
     1676    29305    5               SELECT(ELSE);

     1677    29306
     1678    29307    5                 CALL Z8AE$ERROR (%E$UNEXPECTED_CASE);

PL6.E3A0      #001=Z8EK$OPTIMAL_BRANCHES File=Z8EK.:Z8A6TSI                      SAT 08/09/97 11:56 Page:272
  29307 28 006426   000072 630400 29                 EPPR0   58
        28 006427   000014 631400 29                 EPPR1   12
        28 006430   000000 701000 xent               TSX1    Z8AE$ERROR
        28 006431   000000 011000                    NOP     0

     1679    29308    5             END;  /*V* case on TYO sign */

     1680    29309
     1681    29310    4             CALL END_BRA_TRUE_NUMERIC;

  29310 28 006432   004741 701000 28                 TSX1    END_BRA_TRUE_NUMERIC
        28 006433   000000 011000                    NOP     0
        28 006434   007175 710000 28                 TRA     s:32507

     1682    29311
     1683    29312    4           CASE(%TYD);

     1684    29313
     1685    29314    5             DO SELECT(TYPE_DESC.DESC.NDSC.S);

  29314 28 006435   200024 236100                    LDQ     TYPE_DESC+1,,AUTO
        28 006436   030000 376007                    ANQ     12288,DL
        28 006437   020000 116007                    CMPQ    8192,DL
        28 006440   006452 602000 28                 TNC     s:29314+13
        28 006441   200024 236100                    LDQ     TYPE_DESC+1,,AUTO
        28 006442   030000 376007                    ANQ     12288,DL
        28 006443   020000 116007                    CMPQ    8192,DL
        28 006444   006610 600000 28                 TZE     s:30106
        28 006445   200024 236100                    LDQ     TYPE_DESC+1,,AUTO
        28 006446   030000 376007                    ANQ     12288,DL
        28 006447   030000 116007                    CMPQ    12288,DL
        28 006450   006621 601000 28                 TNZ     s:30112
        28 006451   006457 710000 28                 TRA     s:29318
        28 006452   200024 236100                    LDQ     TYPE_DESC+1,,AUTO
        28 006453   030000 376007                    ANQ     12288,DL
        28 006454   010000 116007                    CMPQ    4096,DL
        28 006455   006621 601000 28                 TNZ     s:30112
PL6.E3A0      #001=Z8EK$OPTIMAL_BRANCHES File=Z8EK.:Z8A6TSI                      SAT 08/09/97 11:56 Page:273
        28 006456   006577 710000 28                 TRA     s:30100

     1686    29315
     1687    29316    5               SELECT(%NO_SIGN);

     1688    29317
     1689    29318    5                 CALL Z8AF$FORME (%DNA,

  29318 28 006457   200017 634500                    EPPR4   ETT$$,,AUTO
        28 006460   200325 454500                    STP4    COLLATING$+4,,AUTO
        28 006461   000046 236000 29                 LDQ     38
        28 006462   200324 756100                    STQ     COLLATING$+3,,AUTO
        28 006463   300001 631500                    EPPR1   1,,PR3
        28 006464   200323 451500                    STP1    COLLATING$+2,,AUTO
        28 006465   000101 236000 29                 LDQ     65
        28 006466   200322 756100                    STQ     COLLATING$+1,,AUTO
        28 006467   200322 630500                    EPPR0   COLLATING$+1,,AUTO
        28 006470   000003 631400 29                 EPPR1   3
        28 006471   000000 701000 xent               TSX1    Z8AF$FORME
        28 006472   000000 011000                    NOP     0

     1690    29319    5                                  NODE$ -> UNARY_OP.LOP$
     1691    29320    5                                     -> LX_ETT_ITEM.ETT$,
     1692    29321    5                                  0,
     1693    29322    5                                  ETT$$);
     1694    29323
     1695    29324    5                 IF TYPE_DESC.DESC.NDSC.TN = %NDSC9 THEN

  29324 28 006473   200024 236100                    LDQ     TYPE_DESC+1,,AUTO
        28 006474   040000 316007                    CANQ    16384,DL
        28 006475   006507 601000 28                 TNZ     s:29328

     1696    29325    5                   CALL Z8CO$CREATE_LIBRARY_BASE (%OP_CLASS_NUMERIC,

  29325 28 006476   200031 630500                    EPPR0   TRANS_TABLE_ETT$,,AUTO
        28 006477   200323 450500                    STP0    COLLATING$+2,,AUTO
        28 006500   000133 236000 29                 LDQ     91
PL6.E3A0      #001=Z8EK$OPTIMAL_BRANCHES File=Z8EK.:Z8A6TSI                      SAT 08/09/97 11:56 Page:274
        28 006501   200322 756100                    STQ     COLLATING$+1,,AUTO
        28 006502   200322 630500                    EPPR0   COLLATING$+1,,AUTO
        28 006503   000002 631400 29                 EPPR1   2
        28 006504   000000 701000 xent               TSX1    Z8CO$CREATE_LIBRARY_BASE
        28 006505   000000 011000                    NOP     0
        28 006506   006521 710000 28                 TRA     s:29331

     1697    29326    5                                                  TRANS_TABLE_ETT$);
     1698    29327    5                 ELSE                         /*V* %NDSC4 */
     1699    29328    5                   CALL Z8AC$MAKE_TYA_CONST ( DIGIT_TABLE, 16, 0,

  29328 28 006507   200031 630500                    EPPR0   TRANS_TABLE_ETT$,,AUTO
        28 006510   200325 450500                    STP0    COLLATING$+4,,AUTO
        28 006511   000046 236000 29                 LDQ     38
        28 006512   200324 756100                    STQ     COLLATING$+3,,AUTO
        28 006513   000136 237000 29                 LDAQ    94
        28 006514   200322 757100                    STAQ    COLLATING$+1,,AUTO
        28 006515   200322 630500                    EPPR0   COLLATING$+1,,AUTO
        28 006516   000003 631400 29                 EPPR1   3
        28 006517   000000 701000 xent               TSX1    Z8AC$MAKE_TYA_CONST
        28 006520   000000 011000                    NOP     0

     1700    29329    5                                              TRANS_TABLE_ETT$   );
     1701    29330
     1702    29331    5                 CALL Z8AF$FORME (%CMPC,

  29331 28 006521   200017 630500                    EPPR0   ETT$$,,AUTO
        28 006522   200325 450500                    STP0    COLLATING$+4,,AUTO
        28 006523   200031 631500                    EPPR1   TRANS_TABLE_ETT$,,AUTO
        28 006524   200324 451500                    STP1    COLLATING$+3,,AUTO
        28 006525   200017 633500                    EPPR3   ETT$$,,AUTO
        28 006526   200323 453500                    STP3    COLLATING$+2,,AUTO
        28 006527   000124 236000 29                 LDQ     84
        28 006530   200322 756100                    STQ     COLLATING$+1,,AUTO
        28 006531   200322 630500                    EPPR0   COLLATING$+1,,AUTO
        28 006532   000003 631400 29                 EPPR1   3
        28 006533   000000 701000 xent               TSX1    Z8AF$FORME
PL6.E3A0      #001=Z8EK$OPTIMAL_BRANCHES File=Z8EK.:Z8A6TSI                      SAT 08/09/97 11:56 Page:275
        28 006534   000000 011000                    NOP     0

     1703    29332    5                                  ETT$$,
     1704    29333    5                                  TRANS_TABLE_ETT$,
     1705    29334    5                                  ETT$$);
     1706    29335
     1707    29336                      %NEW_ILL (@ID = %LINOI);

  29369 28 006535   000017 236000 29                 LDQ     15
        28 006536   200322 756100                    STQ     COLLATING$+1,,AUTO
        28 006537   200322 630500                    EPPR0   COLLATING$+1,,AUTO
        28 006540   200327 450500                    STP0    COLLATING$+6,,AUTO
        28 006541   000020 236000 29                 LDQ     16
        28 006542   200326 756100                    STQ     COLLATING$+5,,AUTO
        28 006543   000104 237000 29                 LDAQ    68
        28 006544   200324 757100                    STAQ    COLLATING$+3,,AUTO
        28 006545   200324 630500                    EPPR0   COLLATING$+3,,AUTO
        28 006546   000003 631400 29                 EPPR1   3
        28 006547   000000 701000 xent               TSX1    Z8AN$NEW_ILL
        28 006550   000000 011000                    NOP     0

     1708    29715                      %NEW_ILL (@ID = %GO,
     1709    29716                                @CODE = %GO_CLASS,
     1710    29717                                @EXPR$ = ETT$$,
     1711    29718                                @LABEL$ = LABEL$);

  29879 28 006551   000017 236000 29                 LDQ     15
        28 006552   200322 756100                    STQ     COLLATING$+1,,AUTO
        28 006553   200322 630500                    EPPR0   COLLATING$+1,,AUTO
        28 006554   200327 450500                    STP0    COLLATING$+6,,AUTO
        28 006555   000020 236000 29                 LDQ     16
        28 006556   200326 756100                    STQ     COLLATING$+5,,AUTO
        28 006557   000116 237000 29                 LDAQ    78
        28 006560   200324 757100                    STAQ    COLLATING$+3,,AUTO
        28 006561   200324 630500                    EPPR0   COLLATING$+3,,AUTO
        28 006562   000003 631400 29                 EPPR1   3
        28 006563   000000 701000 xent               TSX1    Z8AN$NEW_ILL
PL6.E3A0      #001=Z8EK$OPTIMAL_BRANCHES File=Z8EK.:Z8A6TSI                      SAT 08/09/97 11:56 Page:276
        28 006564   000000 011000                    NOP     0

  29880 28 006565   000013 220003                    LDX0    11,DU
        28 006566   000000 470400 7                  LDP0    ILL$
        28 006567   000000 440100                    SXL0    0,,PR0

  29881 28 006570   200003 470500                    LDP0    @LABEL$,,AUTO
        28 006571   000000 236100                    LDQ     0,,PR0
        28 006572   000000 471400 7                  LDP1    ILL$
        28 006573   100001 756100                    STQ     1,,PR1

  29882 28 006574   200017 236100                    LDQ     ETT$$,,AUTO
        28 006575   100002 756100                    STQ     2,,PR1

  30067 28 006576   007175 710000 28                 TRA     s:32507

     1712    30097
     1713    30098    5               SELECT(%LEADING_SIGN);

     1714    30099
     1715    30100    5                 CALL SET_UP_BRA_TRUE_NUMERIC;

  30100 28 006577   004056 701000 28                 TSX1    SET_UP_BRA_TRUE_NUMERIC
        28 006600   000000 011000                    NOP     0

     1716    30101    5                 CALL BRA_TRUE_LEADING_SIGN_NUMERIC (TEMP_LAB$);

  30101 28 006601   200030 630500                    EPPR0   TEMP_LAB$,,AUTO
        28 006602   200035 450500                    STP0    CLASS_ST$,,AUTO
        28 006603   004073 701000 28                 TSX1    BRA_TRUE_LEADING_SIGN_NUMERIC
        28 006604   000000 011000                    NOP     0

     1717    30102    5                 CALL END_BRA_TRUE_NUMERIC;

  30102 28 006605   004741 701000 28                 TSX1    END_BRA_TRUE_NUMERIC
        28 006606   000000 011000                    NOP     0
        28 006607   007175 710000 28                 TRA     s:32507
PL6.E3A0      #001=Z8EK$OPTIMAL_BRANCHES File=Z8EK.:Z8A6TSI                      SAT 08/09/97 11:56 Page:277

     1718    30103
     1719    30104    5               SELECT(%TRAILING_SIGN);

     1720    30105
     1721    30106    5                 CALL SET_UP_BRA_TRUE_NUMERIC;

  30106 28 006610   004056 701000 28                 TSX1    SET_UP_BRA_TRUE_NUMERIC
        28 006611   000000 011000                    NOP     0

     1722    30107    5                 CALL BRA_TRUE_TRAILING_SIGN_NUMERIC (TEMP_LAB$);

  30107 28 006612   200030 630500                    EPPR0   TEMP_LAB$,,AUTO
        28 006613   200035 450500                    STP0    CLASS_ST$,,AUTO
        28 006614   004435 701000 28                 TSX1    BRA_TRUE_TRAILING_SIGN_NUMERIC
        28 006615   000000 011000                    NOP     0

     1723    30108    5                 CALL END_BRA_TRUE_NUMERIC;

  30108 28 006616   004741 701000 28                 TSX1    END_BRA_TRUE_NUMERIC
        28 006617   000000 011000                    NOP     0
        28 006620   007175 710000 28                 TRA     s:32507

     1724    30109
     1725    30110    5               SELECT(ELSE);

     1726    30111
     1727    30112    5                 CALL Z8AE$ERROR (%E$UNEXPECTED_CASE);

  30112 28 006621   000072 630400 29                 EPPR0   58
        28 006622   000014 631400 29                 EPPR1   12
        28 006623   000000 701000 xent               TSX1    Z8AE$ERROR
        28 006624   000000 011000                    NOP     0

     1728    30113    5             END;  /*V* case of TYD sign */

  30113 28 006625   007175 710000 28                 TRA     s:32507
PL6.E3A0      #001=Z8EK$OPTIMAL_BRANCHES File=Z8EK.:Z8A6TSI                      SAT 08/09/97 11:56 Page:278

     1729    30114
     1730    30115    4           CASE(%TYE, %TYF, %TYB, %TYC);

     1731    30116
     1732    30117    4             CALL CONV_TO_ASCII;

  30117 28 006626   006130 701000 28                 TSX1    CONV_TO_ASCII
        28 006627   000000 011000                    NOP     0

     1733    30118    4             IF NODE$ -> UNARY_OP.LOP$ -> LX_ETT_ITEM.TYPE = %TYC OR

  30118 28 006630   200004 470500                    LDP0    @NODE$,,AUTO
        28 006631   000000 471500                    LDP1    0,,PR0
        28 006632   100001 473500                    LDP3    1,,PR1
        28 006633   300004 235100                    LDA     4,,PR3
        28 006634   000023 115007                    CMPA    19,DL
        28 006635   006640 600000 28                 TZE     s:30122
        28 006636   000013 115007                    CMPA    11,DL
        28 006637   007035 601000 28                 TNZ     s:30933

     1734    30119    4                 NODE$ -> UNARY_OP.LOP$ -> LX_ETT_ITEM.TYPE = %TYF THEN
     1735    30120    5               DO;

     1736    30121
     1737    30122    5                 IF TYPE_DESC.DESC.NDSC.TN = %NDSC4 /* Overpunched */ THEN

  30122 28 006640   200024 236100                    LDQ     TYPE_DESC+1,,AUTO
        28 006641   040000 316007                    CANQ    16384,DL
        28 006642   006655 600000 28                 TZE     s:30130

     1738    30123    6                   DO;

     1739    30124    6                     NODE$ -> UNARY_OP.LOP$ -> LX_ETT_ITEM.TYPE = %TYO;

  30124 28 006643   000003 235007                    LDA     3,DL
        28 006644   300004 755100                    STA     4,,PR3
PL6.E3A0      #001=Z8EK$OPTIMAL_BRANCHES File=Z8EK.:Z8A6TSI                      SAT 08/09/97 11:56 Page:279

     1740    30125    6                     TEMP_ST$ -> SCALAR.TYPE = %TYO;

  30125 28 006645   000003 220003                    LDX0    3,DU
        28 006646   200020 471500                    LDP1    TEMP_ST$,,AUTO
        28 006647   100002 740100                    STX0    2,,PR1

     1741    30126    6                     TEMP_ST$ -> SCALAR.NDSC.TN = %NDSC9;

  30126 28 006650   200020 471500                    LDP1    TEMP_ST$,,AUTO
        28 006651   000001 236000 29                 LDQ     1
        28 006652   100001 356100                    ANSQ    1,,PR1

     1742    30127    6                     TYPE_DESC.DESC.NDSC.TN = %NDSC9;

  30127 28 006653   200024 356100                    ANSQ    TYPE_DESC+1,,AUTO

     1743    30128    6                   END;

  30128 28 006654   006660 710000 28                 TRA     s:30132

     1744    30129    5                 ELSE
     1745    30130    5                   TEMP_ST$ -> SCALAR.TYPE = %TYD;

  30130 28 006655   000000 220003                    LDX0    0,DU
        28 006656   200020 474500                    LDP4    TEMP_ST$,,AUTO
        28 006657   400002 740100                    STX0    2,,PR4

     1746    30131
     1747    30132    6                 DO SELECT(TYPE_DESC.DESC.NDSC.S);

  30132 28 006660   200024 236100                    LDQ     TYPE_DESC+1,,AUTO
        28 006661   030000 376007                    ANQ     12288,DL
        28 006662   020000 116007                    CMPQ    8192,DL
        28 006663   006675 602000 28                 TNC     s:30132+13
        28 006664   200024 236100                    LDQ     TYPE_DESC+1,,AUTO
        28 006665   030000 376007                    ANQ     12288,DL
PL6.E3A0      #001=Z8EK$OPTIMAL_BRANCHES File=Z8EK.:Z8A6TSI                      SAT 08/09/97 11:56 Page:280
        28 006666   020000 116007                    CMPQ    8192,DL
        28 006667   007017 600000 28                 TZE     s:30920
        28 006670   200024 236100                    LDQ     TYPE_DESC+1,,AUTO
        28 006671   030000 376007                    ANQ     12288,DL
        28 006672   030000 116007                    CMPQ    12288,DL
        28 006673   007030 601000 28                 TNZ     s:30926
        28 006674   006702 710000 28                 TRA     s:30136
        28 006675   200024 236100                    LDQ     TYPE_DESC+1,,AUTO
        28 006676   030000 376007                    ANQ     12288,DL
        28 006677   010000 116007                    CMPQ    4096,DL
        28 006700   007030 601000 28                 TNZ     s:30926
        28 006701   007006 710000 28                 TRA     s:30914

     1748    30133
     1749    30134    6                   SELECT(%NO_SIGN);

     1750    30135
     1751    30136    6                     CALL Z8AF$FORME (%DNA,

  30136 28 006702   000000 471500                    LDP1    0,,PR0
        28 006703   100001 473500                    LDP3    1,,PR1
        28 006704   200017 634500                    EPPR4   ETT$$,,AUTO
        28 006705   200325 454500                    STP4    COLLATING$+4,,AUTO
        28 006706   000046 236000 29                 LDQ     38
        28 006707   200324 756100                    STQ     COLLATING$+3,,AUTO
        28 006710   300001 631500                    EPPR1   1,,PR3
        28 006711   200323 451500                    STP1    COLLATING$+2,,AUTO
        28 006712   000101 236000 29                 LDQ     65
        28 006713   200322 756100                    STQ     COLLATING$+1,,AUTO
        28 006714   200322 630500                    EPPR0   COLLATING$+1,,AUTO
        28 006715   000003 631400 29                 EPPR1   3
        28 006716   000000 701000 xent               TSX1    Z8AF$FORME
        28 006717   000000 011000                    NOP     0

     1752    30137    6                                      NODE$ -> UNARY_OP.LOP$
     1753    30138    6                                         -> LX_ETT_ITEM.ETT$,
     1754    30139    6                                      0,
PL6.E3A0      #001=Z8EK$OPTIMAL_BRANCHES File=Z8EK.:Z8A6TSI                      SAT 08/09/97 11:56 Page:281
     1755    30140    6                                      ETT$$);
     1756    30141
     1757    30142    6                     CALL Z8CO$CREATE_LIBRARY_BASE (%OP_CLASS_NUMERIC,

  30142 28 006720   200031 630500                    EPPR0   TRANS_TABLE_ETT$,,AUTO
        28 006721   200323 450500                    STP0    COLLATING$+2,,AUTO
        28 006722   000133 236000 29                 LDQ     91
        28 006723   200322 756100                    STQ     COLLATING$+1,,AUTO
        28 006724   200322 630500                    EPPR0   COLLATING$+1,,AUTO
        28 006725   000002 631400 29                 EPPR1   2
        28 006726   000000 701000 xent               TSX1    Z8CO$CREATE_LIBRARY_BASE
        28 006727   000000 011000                    NOP     0

     1758    30143    6                                                    TRANS_TABLE_ETT$);
     1759    30144
     1760    30145    6                     CALL Z8AF$FORME (%CMPC,

  30145 28 006730   200017 630500                    EPPR0   ETT$$,,AUTO
        28 006731   200325 450500                    STP0    COLLATING$+4,,AUTO
        28 006732   200031 631500                    EPPR1   TRANS_TABLE_ETT$,,AUTO
        28 006733   200324 451500                    STP1    COLLATING$+3,,AUTO
        28 006734   200017 633500                    EPPR3   ETT$$,,AUTO
        28 006735   200323 453500                    STP3    COLLATING$+2,,AUTO
        28 006736   000124 236000 29                 LDQ     84
        28 006737   200322 756100                    STQ     COLLATING$+1,,AUTO
        28 006740   200322 630500                    EPPR0   COLLATING$+1,,AUTO
        28 006741   000003 631400 29                 EPPR1   3
        28 006742   000000 701000 xent               TSX1    Z8AF$FORME
        28 006743   000000 011000                    NOP     0

     1761    30146    6                                      ETT$$,
     1762    30147    6                                      TRANS_TABLE_ETT$,
     1763    30148    6                                      ETT$$);
     1764    30149
     1765    30150                          %NEW_ILL (@ID = %LINOI);

  30183 28 006744   000017 236000 29                 LDQ     15
PL6.E3A0      #001=Z8EK$OPTIMAL_BRANCHES File=Z8EK.:Z8A6TSI                      SAT 08/09/97 11:56 Page:282
        28 006745   200322 756100                    STQ     COLLATING$+1,,AUTO
        28 006746   200322 630500                    EPPR0   COLLATING$+1,,AUTO
        28 006747   200327 450500                    STP0    COLLATING$+6,,AUTO
        28 006750   000020 236000 29                 LDQ     16
        28 006751   200326 756100                    STQ     COLLATING$+5,,AUTO
        28 006752   000104 237000 29                 LDAQ    68
        28 006753   200324 757100                    STAQ    COLLATING$+3,,AUTO
        28 006754   200324 630500                    EPPR0   COLLATING$+3,,AUTO
        28 006755   000003 631400 29                 EPPR1   3
        28 006756   000000 701000 xent               TSX1    Z8AN$NEW_ILL
        28 006757   000000 011000                    NOP     0

     1766    30529                          %NEW_ILL (@ID = %GO,
     1767    30530                                    @CODE = %GO_CLASS,
     1768    30531                                    @EXPR$ = ETT$$,
     1769    30532                                    @LABEL$ = LABEL$);

  30693 28 006760   000017 236000 29                 LDQ     15
        28 006761   200322 756100                    STQ     COLLATING$+1,,AUTO
        28 006762   200322 630500                    EPPR0   COLLATING$+1,,AUTO
        28 006763   200327 450500                    STP0    COLLATING$+6,,AUTO
        28 006764   000020 236000 29                 LDQ     16
        28 006765   200326 756100                    STQ     COLLATING$+5,,AUTO
        28 006766   000116 237000 29                 LDAQ    78
        28 006767   200324 757100                    STAQ    COLLATING$+3,,AUTO
        28 006770   200324 630500                    EPPR0   COLLATING$+3,,AUTO
        28 006771   000003 631400 29                 EPPR1   3
        28 006772   000000 701000 xent               TSX1    Z8AN$NEW_ILL
        28 006773   000000 011000                    NOP     0

  30694 28 006774   000013 220003                    LDX0    11,DU
        28 006775   000000 470400 7                  LDP0    ILL$
        28 006776   000000 440100                    SXL0    0,,PR0

  30695 28 006777   200003 470500                    LDP0    @LABEL$,,AUTO
        28 007000   000000 236100                    LDQ     0,,PR0
        28 007001   000000 471400 7                  LDP1    ILL$
PL6.E3A0      #001=Z8EK$OPTIMAL_BRANCHES File=Z8EK.:Z8A6TSI                      SAT 08/09/97 11:56 Page:283
        28 007002   100001 756100                    STQ     1,,PR1

  30696 28 007003   200017 236100                    LDQ     ETT$$,,AUTO
        28 007004   100002 756100                    STQ     2,,PR1

  30881 28 007005   007175 710000 28                 TRA     s:32507

     1770    30911
     1771    30912    6                   SELECT(%LEADING_SIGN);

     1772    30913
     1773    30914    6                     CALL SET_UP_BRA_TRUE_NUMERIC;

  30914 28 007006   004056 701000 28                 TSX1    SET_UP_BRA_TRUE_NUMERIC
        28 007007   000000 011000                    NOP     0

     1774    30915    6                     CALL BRA_TRUE_LEADING_SIGN_NUMERIC (TEMP_LAB$);

  30915 28 007010   200030 630500                    EPPR0   TEMP_LAB$,,AUTO
        28 007011   200035 450500                    STP0    CLASS_ST$,,AUTO
        28 007012   004073 701000 28                 TSX1    BRA_TRUE_LEADING_SIGN_NUMERIC
        28 007013   000000 011000                    NOP     0

     1775    30916    6                     CALL END_BRA_TRUE_NUMERIC;

  30916 28 007014   004741 701000 28                 TSX1    END_BRA_TRUE_NUMERIC
        28 007015   000000 011000                    NOP     0
        28 007016   007175 710000 28                 TRA     s:32507

     1776    30917
     1777    30918    6                   SELECT(%TRAILING_SIGN);

     1778    30919
     1779    30920    6                     CALL SET_UP_BRA_TRUE_NUMERIC;

  30920 28 007017   004056 701000 28                 TSX1    SET_UP_BRA_TRUE_NUMERIC
        28 007020   000000 011000                    NOP     0
PL6.E3A0      #001=Z8EK$OPTIMAL_BRANCHES File=Z8EK.:Z8A6TSI                      SAT 08/09/97 11:56 Page:284

     1780    30921    6                     CALL BRA_TRUE_TRAILING_SIGN_NUMERIC (TEMP_LAB$);

  30921 28 007021   200030 630500                    EPPR0   TEMP_LAB$,,AUTO
        28 007022   200035 450500                    STP0    CLASS_ST$,,AUTO
        28 007023   004435 701000 28                 TSX1    BRA_TRUE_TRAILING_SIGN_NUMERIC
        28 007024   000000 011000                    NOP     0

     1781    30922    6                     CALL END_BRA_TRUE_NUMERIC;

  30922 28 007025   004741 701000 28                 TSX1    END_BRA_TRUE_NUMERIC
        28 007026   000000 011000                    NOP     0
        28 007027   007175 710000 28                 TRA     s:32507

     1782    30923
     1783    30924    6                   SELECT(ELSE);

     1784    30925
     1785    30926    6                     CALL Z8AE$ERROR (%E$UNEXPECTED_CASE);

  30926 28 007030   000072 630400 29                 EPPR0   58
        28 007031   000014 631400 29                 EPPR1   12
        28 007032   000000 701000 xent               TSX1    Z8AE$ERROR
        28 007033   000000 011000                    NOP     0

     1786    30927    6                 END;  /*V* case of TYD sign */

     1787    30928
     1788    30929    5               END; /* GBCD/EBCDIC numeric */

  30929 28 007034   007175 710000 28                 TRA     s:32507

     1789    30930    4             ELSE
     1790    30931    5               DO; /* GBCD/EBCDIC non-numeric */

     1791    30932
     1792    30933    5                 TEMP_ST$ -> SCALAR.TYPE = %TYA;
PL6.E3A0      #001=Z8EK$OPTIMAL_BRANCHES File=Z8EK.:Z8A6TSI                      SAT 08/09/97 11:56 Page:285

  30933 28 007035   000010 220003                    LDX0    8,DU
        28 007036   200020 474500                    LDP4    TEMP_ST$,,AUTO
        28 007037   400002 740100                    STX0    2,,PR4

     1793    30934    5                 TEMP_ST$ -> SCALAR.ADSC.TA = %ADSC9;

  30934 28 007040   200020 471500                    LDP1    TEMP_ST$,,AUTO
        28 007041   000166 236000 29                 LDQ     118
        28 007042   100001 356100                    ANSQ    1,,PR1

     1794    30935
     1795    30936    5                 CALL GEN_NUMERIC_COMPARE;

  30936 28 007043   006017 701000 28                 TSX1    GEN_NUMERIC_COMPARE
        28 007044   000000 011000                    NOP     0

     1796    30937
     1797    30938                      %NEW_ILL (@ID = %LINOI);

  30971 28 007045   000017 236000 29                 LDQ     15
        28 007046   200322 756100                    STQ     COLLATING$+1,,AUTO
        28 007047   200322 630500                    EPPR0   COLLATING$+1,,AUTO
        28 007050   200327 450500                    STP0    COLLATING$+6,,AUTO
        28 007051   000020 236000 29                 LDQ     16
        28 007052   200326 756100                    STQ     COLLATING$+5,,AUTO
        28 007053   000104 237000 29                 LDAQ    68
        28 007054   200324 757100                    STAQ    COLLATING$+3,,AUTO
        28 007055   200324 630500                    EPPR0   COLLATING$+3,,AUTO
        28 007056   000003 631400 29                 EPPR1   3
        28 007057   000000 701000 xent               TSX1    Z8AN$NEW_ILL
        28 007060   000000 011000                    NOP     0

     1798    31317                      %NEW_ILL (@ID = %GO,
     1799    31318                                @CODE = %GO_CLASS,
     1800    31319                                @EXPR$ = ETT$$,
     1801    31320                                @LABEL$ = LABEL$);
PL6.E3A0      #001=Z8EK$OPTIMAL_BRANCHES File=Z8EK.:Z8A6TSI                      SAT 08/09/97 11:56 Page:286

  31481 28 007061   000017 236000 29                 LDQ     15
        28 007062   200322 756100                    STQ     COLLATING$+1,,AUTO
        28 007063   200322 630500                    EPPR0   COLLATING$+1,,AUTO
        28 007064   200327 450500                    STP0    COLLATING$+6,,AUTO
        28 007065   000020 236000 29                 LDQ     16
        28 007066   200326 756100                    STQ     COLLATING$+5,,AUTO
        28 007067   000116 237000 29                 LDAQ    78
        28 007070   200324 757100                    STAQ    COLLATING$+3,,AUTO
        28 007071   200324 630500                    EPPR0   COLLATING$+3,,AUTO
        28 007072   000003 631400 29                 EPPR1   3
        28 007073   000000 701000 xent               TSX1    Z8AN$NEW_ILL
        28 007074   000000 011000                    NOP     0

  31482 28 007075   000013 220003                    LDX0    11,DU
        28 007076   000000 470400 7                  LDP0    ILL$
        28 007077   000000 440100                    SXL0    0,,PR0

  31483 28 007100   200003 470500                    LDP0    @LABEL$,,AUTO
        28 007101   000000 236100                    LDQ     0,,PR0
        28 007102   000000 471400 7                  LDP1    ILL$
        28 007103   100001 756100                    STQ     1,,PR1

  31484 28 007104   200017 236100                    LDQ     ETT$$,,AUTO
        28 007105   100002 756100                    STQ     2,,PR1

     1802    31699
     1803    31700    5               END;

  31700 28 007106   007175 710000 28                 TRA     s:32507

     1804    31701
     1805    31702    4           CASE(%TYA);

     1806    31703
     1807    31704    4             CALL GEN_NUMERIC_COMPARE;

PL6.E3A0      #001=Z8EK$OPTIMAL_BRANCHES File=Z8EK.:Z8A6TSI                      SAT 08/09/97 11:56 Page:287
  31704 28 007107   006017 701000 28                 TSX1    GEN_NUMERIC_COMPARE
        28 007110   000000 011000                    NOP     0

     1808    31705
     1809    31706                  %NEW_ILL (@ID = %LINOI);

  31739 28 007111   000017 236000 29                 LDQ     15
        28 007112   200322 756100                    STQ     COLLATING$+1,,AUTO
        28 007113   200322 630500                    EPPR0   COLLATING$+1,,AUTO
        28 007114   200327 450500                    STP0    COLLATING$+6,,AUTO
        28 007115   000020 236000 29                 LDQ     16
        28 007116   200326 756100                    STQ     COLLATING$+5,,AUTO
        28 007117   000104 237000 29                 LDAQ    68
        28 007120   200324 757100                    STAQ    COLLATING$+3,,AUTO
        28 007121   200324 630500                    EPPR0   COLLATING$+3,,AUTO
        28 007122   000003 631400 29                 EPPR1   3
        28 007123   000000 701000 xent               TSX1    Z8AN$NEW_ILL
        28 007124   000000 011000                    NOP     0

     1810    32085                  %NEW_ILL (@ID = %GO,
     1811    32086                            @CODE = %GO_CLASS,
     1812    32087                            @EXPR$ = ETT$$,
     1813    32088                            @LABEL$ = LABEL$);

  32249 28 007125   000017 236000 29                 LDQ     15
        28 007126   200322 756100                    STQ     COLLATING$+1,,AUTO
        28 007127   200322 630500                    EPPR0   COLLATING$+1,,AUTO
        28 007130   200327 450500                    STP0    COLLATING$+6,,AUTO
        28 007131   000020 236000 29                 LDQ     16
        28 007132   200326 756100                    STQ     COLLATING$+5,,AUTO
        28 007133   000116 237000 29                 LDAQ    78
        28 007134   200324 757100                    STAQ    COLLATING$+3,,AUTO
        28 007135   200324 630500                    EPPR0   COLLATING$+3,,AUTO
        28 007136   000003 631400 29                 EPPR1   3
        28 007137   000000 701000 xent               TSX1    Z8AN$NEW_ILL
        28 007140   000000 011000                    NOP     0

PL6.E3A0      #001=Z8EK$OPTIMAL_BRANCHES File=Z8EK.:Z8A6TSI                      SAT 08/09/97 11:56 Page:288
  32250 28 007141   000013 220003                    LDX0    11,DU
        28 007142   000000 470400 7                  LDP0    ILL$
        28 007143   000000 440100                    SXL0    0,,PR0

  32251 28 007144   200003 470500                    LDP0    @LABEL$,,AUTO
        28 007145   000000 236100                    LDQ     0,,PR0
        28 007146   000000 471400 7                  LDP1    ILL$
        28 007147   100001 756100                    STQ     1,,PR1

  32252 28 007150   200017 236100                    LDQ     ETT$$,,AUTO
        28 007151   100002 756100                    STQ     2,,PR1

  32437 28 007152   007175 710000 28                 TRA     s:32507

     1814    32467
     1815    32468    4           CASE(ELSE);

     1816    32469
     1817    32470                  %CONDITIONAL_ERROR (@ERROR# = %E$MUST_BE_DISPLAY,
     1818    32471                      @LX_ITEM$ = NODE$ -> UNARY_OP.LOP$,
     1819    32472                      @LINE = NODE$ -> UNARY_OP.LOP$ -> LX_ETT_ITEM.LINE,
     1820    32473                      @COLUMN = NODE$ -> UNARY_OP.LOP$ -> LX_ETT_ITEM.COLUMN);

  32483 28 007153   300000 236100                    LDQ     0,,PR3
        28 007154   400000 316007                    CANQ    -131072,DL
        28 007155   007175 601000 28                 TNZ     s:32507

  32485 28 007156   300006 634500                    EPPR4   6,,PR3
        28 007157   200324 454500                    STP4    COLLATING$+3,,AUTO
        28 007160   300005 631500                    EPPR1   5,,PR3
        28 007161   200323 451500                    STP1    COLLATING$+2,,AUTO
        28 007162   000170 236000 29                 LDQ     120
        28 007163   200322 756100                    STQ     COLLATING$+1,,AUTO
        28 007164   200322 630500                    EPPR0   COLLATING$+1,,AUTO
        28 007165   000036 631400 29                 EPPR1   30
        28 007166   000000 701000 xent               TSX1    Z8AE$ERROR
        28 007167   000000 011000                    NOP     0
PL6.E3A0      #001=Z8EK$OPTIMAL_BRANCHES File=Z8EK.:Z8A6TSI                      SAT 08/09/97 11:56 Page:289

  32494 28 007170   200004 470500                    LDP0    @NODE$,,AUTO
        28 007171   000000 471500                    LDP1    0,,PR0
        28 007172   100001 473500                    LDP3    1,,PR1
        28 007173   400000 236007                    LDQ     -131072,DL
        28 007174   300000 256100                    ORSQ    0,,PR3

     1821    32503
     1822    32504    4         END;  /*V* case of variable type */

     1823    32505    3       END;

     1824    32506
     1825    32507    2   END COMPARE_NUMERIC_CLASS;

  32507 28 007175   200032 221300                    LDX1  ! TRANS_TABLE_ETT$+1,,AUTO
        28 007176   000001 702211                    TSX2  ! 1,X1

     1826    32508        %EJECT;
PL6.E3A0      #001=Z8EK$OPTIMAL_BRANCHES File=Z8EK.:Z8A6TSI                      SAT 08/09/97 11:56 Page:290
     1827    32509    1   COMPARE_NOT_NUMERIC_CLASS: PROC;

  32509 28 007177   200032 741300       COMPARE_NOT* STX1  ! TRANS_TABLE_ETT$+1,,AUTO

     1828    32510
     1829    32511    2     IF NODE$ -> UNARY_OP.LOP$ -> LX_ITEM.ID ~= %LX_ETT_ITEM THEN

  32511 28 007200   200004 470500                    LDP0    @NODE$,,AUTO
        28 007201   000000 471500                    LDP1    0,,PR0
        28 007202   100001 473500                    LDP3    1,,PR1
        28 007203   300000 220100                    LDX0    0,,PR3
        28 007204   000004 100003                    CMPX0   4,DU
        28 007205   007231 600000 28                 TZE     s:32550

     1830    32512
     1831    32513            %CONDITIONAL_ERROR (@ERROR# = %E$CLASS_ON_NON_IDENTIFIER,
     1832    32514                  @LX_ITEM$ = NODE$ -> UNARY_OP.LOP$,
     1833    32515                  @LINE = NODE$ -> UNARY_OP.LOP$ -> LX_ITEM.LINE,
     1834    32516                  @COLUMN = NODE$ -> UNARY_OP.LOP$ -> LX_ITEM.COLUMN);

  32526 28 007206   300000 236100                    LDQ     0,,PR3
        28 007207   400000 316007                    CANQ    -131072,DL
        28 007210   007706 601000 28                 TNZ     s:32732

  32528 28 007211   300006 634500                    EPPR4   6,,PR3
        28 007212   200324 454500                    STP4    COLLATING$+3,,AUTO
        28 007213   300005 631500                    EPPR1   5,,PR3
        28 007214   200323 451500                    STP1    COLLATING$+2,,AUTO
        28 007215   000146 236000 29                 LDQ     102
        28 007216   200322 756100                    STQ     COLLATING$+1,,AUTO
        28 007217   200322 630500                    EPPR0   COLLATING$+1,,AUTO
        28 007220   000036 631400 29                 EPPR1   30
        28 007221   000000 701000 xent               TSX1    Z8AE$ERROR
        28 007222   000000 011000                    NOP     0

  32537 28 007223   200004 470500                    LDP0    @NODE$,,AUTO
        28 007224   000000 471500                    LDP1    0,,PR0
PL6.E3A0      #001=Z8EK$OPTIMAL_BRANCHES File=Z8EK.:Z8A6TSI                      SAT 08/09/97 11:56 Page:291
        28 007225   100001 473500                    LDP3    1,,PR1
        28 007226   400000 236007                    LDQ     -131072,DL
        28 007227   300000 256100                    ORSQ    0,,PR3

  32544 28 007230   007706 710000 28                 TRA     s:32732

     1835    32546
     1836    32547    2     ELSE
     1837    32548    3       DO;

     1838    32549
     1839    32550    3         CALL Z8AU$TYPE_DESCRIPTOR

  32550 28 007231   200023 634500                    EPPR4   TYPE_DESC,,AUTO
        28 007232   200323 454500                    STP4    COLLATING$+2,,AUTO
        28 007233   300001 631500                    EPPR1   1,,PR3
        28 007234   200322 451500                    STP1    COLLATING$+1,,AUTO
        28 007235   200322 630500                    EPPR0   COLLATING$+1,,AUTO
        28 007236   000002 631400 29                 EPPR1   2
        28 007237   000000 701000 xent               TSX1    Z8AU$TYPE_DESCRIPTOR
        28 007240   000000 011000                    NOP     0

     1840    32551    3                (NODE$ -> UNARY_OP.LOP$ -> LX_ETT_ITEM.ETT$,
     1841    32552    3                 TYPE_DESC);
     1842    32553
     1843    32554    4         DO CASE (NODE$ -> UNARY_OP.LOP$ -> LX_ETT_ITEM.TYPE);

  32554 28 007241   200004 470500                    LDP0    @NODE$,,AUTO
        28 007242   000000 471500                    LDP1    0,,PR0
        28 007243   100001 473500                    LDP3    1,,PR1
        28 007244   300004 235100                    LDA     4,,PR3
        28 007245   000024 115007                    CMPA    20,DL
        28 007246   007250 602005 28                 TNC     s:32554+7,AL
        28 007247   007664 710000 28                 TRA     s:32709
        28 007250   007334 710000 28                 TRA     s:32579
        28 007251   007664 710000 28                 TRA     s:32709
        28 007252   007664 710000 28                 TRA     s:32709
PL6.E3A0      #001=Z8EK$OPTIMAL_BRANCHES File=Z8EK.:Z8A6TSI                      SAT 08/09/97 11:56 Page:292
        28 007253   007274 710000 28                 TRA     s:32558
        28 007254   007664 710000 28                 TRA     s:32709
        28 007255   007664 710000 28                 TRA     s:32709
        28 007256   007474 710000 28                 TRA     s:32623
        28 007257   007664 710000 28                 TRA     s:32709
        28 007260   007657 710000 28                 TRA     s:32690
        28 007261   007664 710000 28                 TRA     s:32709
        28 007262   007664 710000 28                 TRA     s:32709
        28 007263   007474 710000 28                 TRA     s:32623
        28 007264   007474 710000 28                 TRA     s:32623
        28 007265   007664 710000 28                 TRA     s:32709
        28 007266   007664 710000 28                 TRA     s:32709
        28 007267   007664 710000 28                 TRA     s:32709
        28 007270   007664 710000 28                 TRA     s:32709
        28 007271   007664 710000 28                 TRA     s:32709
        28 007272   007664 710000 28                 TRA     s:32709
        28 007273   007474 710000 28                 TRA     s:32623

     1844    32555
     1845    32556    4           CASE(%TYO);

     1846    32557
     1847    32558    4             CALL SET_UP_BRA_FALSE_NUMERIC;

  32558 28 007274   005055 701000 28                 TSX1    SET_UP_BRA_FALSE_NUMERIC
        28 007275   000000 011000                    NOP     0

     1848    32559
     1849    32560    5             DO SELECT(TYPE_DESC.DESC.NDSC.S);

  32560 28 007276   200024 236100                    LDQ     TYPE_DESC+1,,AUTO
        28 007277   030000 376007                    ANQ     12288,DL
        28 007300   010000 116007                    CMPQ    4096,DL
        28 007301   007325 602000 28                 TNC     s:32572
        28 007302   200024 236100                    LDQ     TYPE_DESC+1,,AUTO
        28 007303   030000 376007                    ANQ     12288,DL
        28 007304   010000 116007                    CMPQ    4096,DL
PL6.E3A0      #001=Z8EK$OPTIMAL_BRANCHES File=Z8EK.:Z8A6TSI                      SAT 08/09/97 11:56 Page:293
        28 007305   007313 600000 28                 TZE     s:32564
        28 007306   200024 236100                    LDQ     TYPE_DESC+1,,AUTO
        28 007307   030000 376007                    ANQ     12288,DL
        28 007310   020000 116007                    CMPQ    8192,DL
        28 007311   007325 601000 28                 TNZ     s:32572
        28 007312   007320 710000 28                 TRA     s:32568

     1850    32561
     1851    32562    5               SELECT(%LEADING_SIGN);

     1852    32563
     1853    32564    5                 CALL BRA_TRUE_LEADING_SIGN_NUMERIC (LABEL$);

  32564 28 007313   200003 236100                    LDQ     @LABEL$,,AUTO
        28 007314   200035 756100                    STQ     CLASS_ST$,,AUTO
        28 007315   004073 701000 28                 TSX1    BRA_TRUE_LEADING_SIGN_NUMERIC
        28 007316   000000 011000                    NOP     0
        28 007317   007331 710000 28                 TRA     s:32575

     1854    32565
     1855    32566    5               SELECT(%TRAILING_SIGN);

     1856    32567
     1857    32568    5                 CALL BRA_TRUE_TRAILING_SIGN_NUMERIC (LABEL$);

  32568 28 007320   200003 236100                    LDQ     @LABEL$,,AUTO
        28 007321   200035 756100                    STQ     CLASS_ST$,,AUTO
        28 007322   004435 701000 28                 TSX1    BRA_TRUE_TRAILING_SIGN_NUMERIC
        28 007323   000000 011000                    NOP     0
        28 007324   007331 710000 28                 TRA     s:32575

     1858    32569
     1859    32570    5               SELECT(ELSE);

     1860    32571
     1861    32572    5                 CALL Z8AE$ERROR (%E$UNEXPECTED_CASE);

PL6.E3A0      #001=Z8EK$OPTIMAL_BRANCHES File=Z8EK.:Z8A6TSI                      SAT 08/09/97 11:56 Page:294
  32572 28 007325   000072 630400 29                 EPPR0   58
        28 007326   000014 631400 29                 EPPR1   12
        28 007327   000000 701000 xent               TSX1    Z8AE$ERROR
        28 007330   000000 011000                    NOP     0

     1862    32573    5             END;  /*V* case on TYO sign */

     1863    32574
     1864    32575    4             CALL END_BRA_FALSE_NUMERIC;

  32575 28 007331   005106 701000 28                 TSX1    END_BRA_FALSE_NUMERIC
        28 007332   000000 011000                    NOP     0
        28 007333   007706 710000 28                 TRA     s:32732

     1865    32576
     1866    32577    4           CASE ( %TYD );

     1867    32578
     1868    32579    5             DO SELECT ( TYPE_DESC.DESC.NDSC.S );

  32579 28 007334   200024 236100                    LDQ     TYPE_DESC+1,,AUTO
        28 007335   030000 376007                    ANQ     12288,DL
        28 007336   020000 116007                    CMPQ    8192,DL
        28 007337   007351 602000 28                 TNC     s:32579+13
        28 007340   200024 236100                    LDQ     TYPE_DESC+1,,AUTO
        28 007341   030000 376007                    ANQ     12288,DL
        28 007342   020000 116007                    CMPQ    8192,DL
        28 007343   007456 600000 28                 TZE     s:32612
        28 007344   200024 236100                    LDQ     TYPE_DESC+1,,AUTO
        28 007345   030000 376007                    ANQ     12288,DL
        28 007346   030000 116007                    CMPQ    12288,DL
        28 007347   007467 601000 28                 TNZ     s:32618
        28 007350   007356 710000 28                 TRA     s:32583
        28 007351   200024 236100                    LDQ     TYPE_DESC+1,,AUTO
        28 007352   030000 376007                    ANQ     12288,DL
        28 007353   010000 116007                    CMPQ    4096,DL
        28 007354   007467 601000 28                 TNZ     s:32618
PL6.E3A0      #001=Z8EK$OPTIMAL_BRANCHES File=Z8EK.:Z8A6TSI                      SAT 08/09/97 11:56 Page:295
        28 007355   007445 710000 28                 TRA     s:32606

     1869    32580
     1870    32581    5               SELECT(%NO_SIGN);

     1871    32582
     1872    32583    5                 CALL Z8AF$FORME (%DNA,

  32583 28 007356   200017 634500                    EPPR4   ETT$$,,AUTO
        28 007357   200325 454500                    STP4    COLLATING$+4,,AUTO
        28 007360   000046 236000 29                 LDQ     38
        28 007361   200324 756100                    STQ     COLLATING$+3,,AUTO
        28 007362   300001 631500                    EPPR1   1,,PR3
        28 007363   200323 451500                    STP1    COLLATING$+2,,AUTO
        28 007364   000101 236000 29                 LDQ     65
        28 007365   200322 756100                    STQ     COLLATING$+1,,AUTO
        28 007366   200322 630500                    EPPR0   COLLATING$+1,,AUTO
        28 007367   000003 631400 29                 EPPR1   3
        28 007370   000000 701000 xent               TSX1    Z8AF$FORME
        28 007371   000000 011000                    NOP     0

     1873    32584    5                                  NODE$ -> UNARY_OP.LOP$
     1874    32585    5                                     -> LX_ETT_ITEM.ETT$,
     1875    32586    5                                  0,
     1876    32587    5                                  ETT$$);
     1877    32588
     1878    32589    5                 IF TYPE_DESC.DESC.NDSC.TN = %NDSC9 OR

  32589 28 007372   200024 236100                    LDQ     TYPE_DESC+1,,AUTO
        28 007373   040000 316007                    CANQ    16384,DL
        28 007374   007403 600000 28                 TZE     s:32591
        28 007375   200004 470500                    LDP0    @NODE$,,AUTO
        28 007376   000000 471500                    LDP1    0,,PR0
        28 007377   100001 473500                    LDP3    1,,PR1
        28 007400   300004 235100                    LDA     4,,PR3
        28 007401   000013 115007                    CMPA    11,DL
        28 007402   007414 601000 28                 TNZ     s:32594
PL6.E3A0      #001=Z8EK$OPTIMAL_BRANCHES File=Z8EK.:Z8A6TSI                      SAT 08/09/97 11:56 Page:296

     1879    32590    5                     NODE$ -> UNARY_OP.LOP$ -> LX_ETT_ITEM.TYPE = %TYF THEN
     1880    32591    5                   CALL Z8CO$CREATE_LIBRARY_BASE (%OP_CLASS_NUMERIC,

  32591 28 007403   200031 630500                    EPPR0   TRANS_TABLE_ETT$,,AUTO
        28 007404   200323 450500                    STP0    COLLATING$+2,,AUTO
        28 007405   000133 236000 29                 LDQ     91
        28 007406   200322 756100                    STQ     COLLATING$+1,,AUTO
        28 007407   200322 630500                    EPPR0   COLLATING$+1,,AUTO
        28 007410   000002 631400 29                 EPPR1   2
        28 007411   000000 701000 xent               TSX1    Z8CO$CREATE_LIBRARY_BASE
        28 007412   000000 011000                    NOP     0
        28 007413   007426 710000 28                 TRA     s:32597

     1881    32592    5                                                  TRANS_TABLE_ETT$);
     1882    32593    5                 ELSE                         /*V* %NDSC4 */
     1883    32594    5                   CALL Z8AC$MAKE_TYA_CONST ( DIGIT_TABLE, 16, 0,

  32594 28 007414   200031 634500                    EPPR4   TRANS_TABLE_ETT$,,AUTO
        28 007415   200325 454500                    STP4    COLLATING$+4,,AUTO
        28 007416   000046 236000 29                 LDQ     38
        28 007417   200324 756100                    STQ     COLLATING$+3,,AUTO
        28 007420   000136 237000 29                 LDAQ    94
        28 007421   200322 757100                    STAQ    COLLATING$+1,,AUTO
        28 007422   200322 630500                    EPPR0   COLLATING$+1,,AUTO
        28 007423   000003 631400 29                 EPPR1   3
        28 007424   000000 701000 xent               TSX1    Z8AC$MAKE_TYA_CONST
        28 007425   000000 011000                    NOP     0

     1884    32595    5                                              TRANS_TABLE_ETT$   );
     1885    32596
     1886    32597    5                 CALL Z8AF$FORME (%CMPC,

  32597 28 007426   200017 630500                    EPPR0   ETT$$,,AUTO
        28 007427   200325 450500                    STP0    COLLATING$+4,,AUTO
        28 007430   200031 631500                    EPPR1   TRANS_TABLE_ETT$,,AUTO
        28 007431   200324 451500                    STP1    COLLATING$+3,,AUTO
PL6.E3A0      #001=Z8EK$OPTIMAL_BRANCHES File=Z8EK.:Z8A6TSI                      SAT 08/09/97 11:56 Page:297
        28 007432   200017 633500                    EPPR3   ETT$$,,AUTO
        28 007433   200323 453500                    STP3    COLLATING$+2,,AUTO
        28 007434   000124 236000 29                 LDQ     84
        28 007435   200322 756100                    STQ     COLLATING$+1,,AUTO
        28 007436   200322 630500                    EPPR0   COLLATING$+1,,AUTO
        28 007437   000003 631400 29                 EPPR1   3
        28 007440   000000 701000 xent               TSX1    Z8AF$FORME
        28 007441   000000 011000                    NOP     0

     1887    32598    5                                  ETT$$,
     1888    32599    5                                  TRANS_TABLE_ETT$,
     1889    32600    5                                  ETT$$);
     1890    32601
     1891    32602    5                 CALL END_BRA_FALSE_NUMERIC;

  32602 28 007442   005106 701000 28                 TSX1    END_BRA_FALSE_NUMERIC
        28 007443   000000 011000                    NOP     0
        28 007444   007706 710000 28                 TRA     s:32732

     1892    32603
     1893    32604    5               SELECT(%LEADING_SIGN);

     1894    32605
     1895    32606    5                 CALL SET_UP_BRA_FALSE_NUMERIC;

  32606 28 007445   005055 701000 28                 TSX1    SET_UP_BRA_FALSE_NUMERIC
        28 007446   000000 011000                    NOP     0

     1896    32607    5                 CALL BRA_TRUE_LEADING_SIGN_NUMERIC (LABEL$);

  32607 28 007447   200003 236100                    LDQ     @LABEL$,,AUTO
        28 007450   200035 756100                    STQ     CLASS_ST$,,AUTO
        28 007451   004073 701000 28                 TSX1    BRA_TRUE_LEADING_SIGN_NUMERIC
        28 007452   000000 011000                    NOP     0

     1897    32608    5                 CALL END_BRA_FALSE_NUMERIC;

PL6.E3A0      #001=Z8EK$OPTIMAL_BRANCHES File=Z8EK.:Z8A6TSI                      SAT 08/09/97 11:56 Page:298
  32608 28 007453   005106 701000 28                 TSX1    END_BRA_FALSE_NUMERIC
        28 007454   000000 011000                    NOP     0
        28 007455   007706 710000 28                 TRA     s:32732

     1898    32609
     1899    32610    5               SELECT(%TRAILING_SIGN);

     1900    32611
     1901    32612    5                 CALL SET_UP_BRA_FALSE_NUMERIC;

  32612 28 007456   005055 701000 28                 TSX1    SET_UP_BRA_FALSE_NUMERIC
        28 007457   000000 011000                    NOP     0

     1902    32613    5                 CALL BRA_TRUE_TRAILING_SIGN_NUMERIC (LABEL$);

  32613 28 007460   200003 236100                    LDQ     @LABEL$,,AUTO
        28 007461   200035 756100                    STQ     CLASS_ST$,,AUTO
        28 007462   004435 701000 28                 TSX1    BRA_TRUE_TRAILING_SIGN_NUMERIC
        28 007463   000000 011000                    NOP     0

     1903    32614    5                 CALL END_BRA_FALSE_NUMERIC;

  32614 28 007464   005106 701000 28                 TSX1    END_BRA_FALSE_NUMERIC
        28 007465   000000 011000                    NOP     0
        28 007466   007706 710000 28                 TRA     s:32732

     1904    32615
     1905    32616    5               SELECT(ELSE);

     1906    32617
     1907    32618    5                 CALL Z8AE$ERROR (%E$UNEXPECTED_CASE);

  32618 28 007467   000072 630400 29                 EPPR0   58
        28 007470   000014 631400 29                 EPPR1   12
        28 007471   000000 701000 xent               TSX1    Z8AE$ERROR
        28 007472   000000 011000                    NOP     0

PL6.E3A0      #001=Z8EK$OPTIMAL_BRANCHES File=Z8EK.:Z8A6TSI                      SAT 08/09/97 11:56 Page:299
     1908    32619    5             END;  /*V* case of TYD sign */

  32619 28 007473   007706 710000 28                 TRA     s:32732

     1909    32620
     1910    32621    4           CASE(%TYE, %TYF, %TYB, %TYC);

     1911    32622
     1912    32623    4             CALL CONV_TO_ASCII;

  32623 28 007474   006130 701000 28                 TSX1    CONV_TO_ASCII
        28 007475   000000 011000                    NOP     0

     1913    32624    4             IF NODE$ -> UNARY_OP.LOP$ -> LX_ETT_ITEM.TYPE = %TYC OR

  32624 28 007476   200004 470500                    LDP0    @NODE$,,AUTO
        28 007477   000000 471500                    LDP1    0,,PR0
        28 007500   100001 473500                    LDP3    1,,PR1
        28 007501   300004 235100                    LDA     4,,PR3
        28 007502   000023 115007                    CMPA    19,DL
        28 007503   007506 600000 28                 TZE     s:32628
        28 007504   000013 115007                    CMPA    11,DL
        28 007505   007644 601000 28                 TNZ     s:32679

     1914    32625    4                 NODE$ -> UNARY_OP.LOP$ -> LX_ETT_ITEM.TYPE = %TYF THEN
     1915    32626    5               DO;

     1916    32627
     1917    32628    5                 IF TYPE_DESC.DESC.NDSC.TN = %NDSC4 /* Overpunched */ THEN

  32628 28 007506   200024 236100                    LDQ     TYPE_DESC+1,,AUTO
        28 007507   040000 316007                    CANQ    16384,DL
        28 007510   007523 600000 28                 TZE     s:32636

     1918    32629    6                   DO;

     1919    32630    6                     NODE$ -> UNARY_OP.LOP$ -> LX_ETT_ITEM.TYPE = %TYO;
PL6.E3A0      #001=Z8EK$OPTIMAL_BRANCHES File=Z8EK.:Z8A6TSI                      SAT 08/09/97 11:56 Page:300

  32630 28 007511   000003 235007                    LDA     3,DL
        28 007512   300004 755100                    STA     4,,PR3

     1920    32631    6                     TEMP_ST$ -> SCALAR.TYPE = %TYO;

  32631 28 007513   000003 220003                    LDX0    3,DU
        28 007514   200020 471500                    LDP1    TEMP_ST$,,AUTO
        28 007515   100002 740100                    STX0    2,,PR1

     1921    32632    6                     TEMP_ST$ -> SCALAR.NDSC.TN = %NDSC9;

  32632 28 007516   200020 471500                    LDP1    TEMP_ST$,,AUTO
        28 007517   000001 236000 29                 LDQ     1
        28 007520   100001 356100                    ANSQ    1,,PR1

     1922    32633    6                     TYPE_DESC.DESC.NDSC.TN = %NDSC9;

  32633 28 007521   200024 356100                    ANSQ    TYPE_DESC+1,,AUTO

     1923    32634    6                   END;

  32634 28 007522   007526 710000 28                 TRA     s:32638

     1924    32635    5                 ELSE
     1925    32636    5                   TEMP_ST$ -> SCALAR.TYPE = %TYD;

  32636 28 007523   000000 220003                    LDX0    0,DU
        28 007524   200020 474500                    LDP4    TEMP_ST$,,AUTO
        28 007525   400002 740100                    STX0    2,,PR4

     1926    32637
     1927    32638    6                 DO SELECT ( TYPE_DESC.DESC.NDSC.S );

  32638 28 007526   200024 236100                    LDQ     TYPE_DESC+1,,AUTO
        28 007527   030000 376007                    ANQ     12288,DL
        28 007530   020000 116007                    CMPQ    8192,DL
PL6.E3A0      #001=Z8EK$OPTIMAL_BRANCHES File=Z8EK.:Z8A6TSI                      SAT 08/09/97 11:56 Page:301
        28 007531   007543 602000 28                 TNC     s:32638+13
        28 007532   200024 236100                    LDQ     TYPE_DESC+1,,AUTO
        28 007533   030000 376007                    ANQ     12288,DL
        28 007534   020000 116007                    CMPQ    8192,DL
        28 007535   007626 600000 28                 TZE     s:32666
        28 007536   200024 236100                    LDQ     TYPE_DESC+1,,AUTO
        28 007537   030000 376007                    ANQ     12288,DL
        28 007540   030000 116007                    CMPQ    12288,DL
        28 007541   007637 601000 28                 TNZ     s:32672
        28 007542   007550 710000 28                 TRA     s:32642
        28 007543   200024 236100                    LDQ     TYPE_DESC+1,,AUTO
        28 007544   030000 376007                    ANQ     12288,DL
        28 007545   010000 116007                    CMPQ    4096,DL
        28 007546   007637 601000 28                 TNZ     s:32672
        28 007547   007615 710000 28                 TRA     s:32660

     1928    32639
     1929    32640    6                   SELECT(%NO_SIGN);

     1930    32641
     1931    32642    6                     CALL Z8AF$FORME (%DNA,

  32642 28 007550   000000 471500                    LDP1    0,,PR0
        28 007551   100001 473500                    LDP3    1,,PR1
        28 007552   200017 634500                    EPPR4   ETT$$,,AUTO
        28 007553   200325 454500                    STP4    COLLATING$+4,,AUTO
        28 007554   000046 236000 29                 LDQ     38
        28 007555   200324 756100                    STQ     COLLATING$+3,,AUTO
        28 007556   300001 631500                    EPPR1   1,,PR3
        28 007557   200323 451500                    STP1    COLLATING$+2,,AUTO
        28 007560   000101 236000 29                 LDQ     65
        28 007561   200322 756100                    STQ     COLLATING$+1,,AUTO
        28 007562   200322 630500                    EPPR0   COLLATING$+1,,AUTO
        28 007563   000003 631400 29                 EPPR1   3
        28 007564   000000 701000 xent               TSX1    Z8AF$FORME
        28 007565   000000 011000                    NOP     0

PL6.E3A0      #001=Z8EK$OPTIMAL_BRANCHES File=Z8EK.:Z8A6TSI                      SAT 08/09/97 11:56 Page:302
     1932    32643    6                                      NODE$ -> UNARY_OP.LOP$
     1933    32644    6                                         -> LX_ETT_ITEM.ETT$,
     1934    32645    6                                      0,
     1935    32646    6                                      ETT$$);
     1936    32647
     1937    32648    6                     CALL Z8CO$CREATE_LIBRARY_BASE (%OP_CLASS_NUMERIC,

  32648 28 007566   200031 630500                    EPPR0   TRANS_TABLE_ETT$,,AUTO
        28 007567   200323 450500                    STP0    COLLATING$+2,,AUTO
        28 007570   000133 236000 29                 LDQ     91
        28 007571   200322 756100                    STQ     COLLATING$+1,,AUTO
        28 007572   200322 630500                    EPPR0   COLLATING$+1,,AUTO
        28 007573   000002 631400 29                 EPPR1   2
        28 007574   000000 701000 xent               TSX1    Z8CO$CREATE_LIBRARY_BASE
        28 007575   000000 011000                    NOP     0

     1938    32649    6                                                    TRANS_TABLE_ETT$);
     1939    32650
     1940    32651    6                     CALL Z8AF$FORME (%CMPC,

  32651 28 007576   200017 630500                    EPPR0   ETT$$,,AUTO
        28 007577   200325 450500                    STP0    COLLATING$+4,,AUTO
        28 007600   200031 631500                    EPPR1   TRANS_TABLE_ETT$,,AUTO
        28 007601   200324 451500                    STP1    COLLATING$+3,,AUTO
        28 007602   200017 633500                    EPPR3   ETT$$,,AUTO
        28 007603   200323 453500                    STP3    COLLATING$+2,,AUTO
        28 007604   000124 236000 29                 LDQ     84
        28 007605   200322 756100                    STQ     COLLATING$+1,,AUTO
        28 007606   200322 630500                    EPPR0   COLLATING$+1,,AUTO
        28 007607   000003 631400 29                 EPPR1   3
        28 007610   000000 701000 xent               TSX1    Z8AF$FORME
        28 007611   000000 011000                    NOP     0

     1941    32652    6                                      ETT$$,
     1942    32653    6                                      TRANS_TABLE_ETT$,
     1943    32654    6                                      ETT$$);
     1944    32655
PL6.E3A0      #001=Z8EK$OPTIMAL_BRANCHES File=Z8EK.:Z8A6TSI                      SAT 08/09/97 11:56 Page:303
     1945    32656    6                     CALL END_BRA_FALSE_NUMERIC;

  32656 28 007612   005106 701000 28                 TSX1    END_BRA_FALSE_NUMERIC
        28 007613   000000 011000                    NOP     0
        28 007614   007706 710000 28                 TRA     s:32732

     1946    32657
     1947    32658    6                   SELECT(%LEADING_SIGN);

     1948    32659
     1949    32660    6                     CALL SET_UP_BRA_FALSE_NUMERIC;

  32660 28 007615   005055 701000 28                 TSX1    SET_UP_BRA_FALSE_NUMERIC
        28 007616   000000 011000                    NOP     0

     1950    32661    6                     CALL BRA_TRUE_LEADING_SIGN_NUMERIC (LABEL$);

  32661 28 007617   200003 236100                    LDQ     @LABEL$,,AUTO
        28 007620   200035 756100                    STQ     CLASS_ST$,,AUTO
        28 007621   004073 701000 28                 TSX1    BRA_TRUE_LEADING_SIGN_NUMERIC
        28 007622   000000 011000                    NOP     0

     1951    32662    6                     CALL END_BRA_FALSE_NUMERIC;

  32662 28 007623   005106 701000 28                 TSX1    END_BRA_FALSE_NUMERIC
        28 007624   000000 011000                    NOP     0
        28 007625   007706 710000 28                 TRA     s:32732

     1952    32663
     1953    32664    6                   SELECT(%TRAILING_SIGN);

     1954    32665
     1955    32666    6                     CALL SET_UP_BRA_FALSE_NUMERIC;

  32666 28 007626   005055 701000 28                 TSX1    SET_UP_BRA_FALSE_NUMERIC
        28 007627   000000 011000                    NOP     0

PL6.E3A0      #001=Z8EK$OPTIMAL_BRANCHES File=Z8EK.:Z8A6TSI                      SAT 08/09/97 11:56 Page:304
     1956    32667    6                     CALL BRA_TRUE_TRAILING_SIGN_NUMERIC (LABEL$);

  32667 28 007630   200003 236100                    LDQ     @LABEL$,,AUTO
        28 007631   200035 756100                    STQ     CLASS_ST$,,AUTO
        28 007632   004435 701000 28                 TSX1    BRA_TRUE_TRAILING_SIGN_NUMERIC
        28 007633   000000 011000                    NOP     0

     1957    32668    6                     CALL END_BRA_FALSE_NUMERIC;

  32668 28 007634   005106 701000 28                 TSX1    END_BRA_FALSE_NUMERIC
        28 007635   000000 011000                    NOP     0
        28 007636   007706 710000 28                 TRA     s:32732

     1958    32669
     1959    32670    6                   SELECT(ELSE);

     1960    32671
     1961    32672    6                     CALL Z8AE$ERROR (%E$UNEXPECTED_CASE);

  32672 28 007637   000072 630400 29                 EPPR0   58
        28 007640   000014 631400 29                 EPPR1   12
        28 007641   000000 701000 xent               TSX1    Z8AE$ERROR
        28 007642   000000 011000                    NOP     0

     1962    32673    6                 END;  /*V* case of TYD sign */

     1963    32674
     1964    32675    5               END; /* GBCD/EBCDIC numeric */

  32675 28 007643   007706 710000 28                 TRA     s:32732

     1965    32676    4             ELSE
     1966    32677    5               DO; /* GBCD/EBCDIC non-numeric */

     1967    32678
     1968    32679    5                 TEMP_ST$ -> SCALAR.TYPE = %TYA;

PL6.E3A0      #001=Z8EK$OPTIMAL_BRANCHES File=Z8EK.:Z8A6TSI                      SAT 08/09/97 11:56 Page:305
  32679 28 007644   000010 220003                    LDX0    8,DU
        28 007645   200020 474500                    LDP4    TEMP_ST$,,AUTO
        28 007646   400002 740100                    STX0    2,,PR4

     1969    32680    5                 TEMP_ST$ -> SCALAR.ADSC.TA = %ADSC9;

  32680 28 007647   200020 471500                    LDP1    TEMP_ST$,,AUTO
        28 007650   000166 236000 29                 LDQ     118
        28 007651   100001 356100                    ANSQ    1,,PR1

     1970    32681
     1971    32682    5                 CALL GEN_NUMERIC_COMPARE;

  32682 28 007652   006017 701000 28                 TSX1    GEN_NUMERIC_COMPARE
        28 007653   000000 011000                    NOP     0

     1972    32683
     1973    32684    5                 CALL END_BRA_FALSE_NUMERIC;

  32684 28 007654   005106 701000 28                 TSX1    END_BRA_FALSE_NUMERIC
        28 007655   000000 011000                    NOP     0

     1974    32685
     1975    32686    5               END;

  32686 28 007656   007706 710000 28                 TRA     s:32732

     1976    32687
     1977    32688    4           CASE(%TYA);

     1978    32689
     1979    32690    4             CALL GEN_NUMERIC_COMPARE;

  32690 28 007657   006017 701000 28                 TSX1    GEN_NUMERIC_COMPARE
        28 007660   000000 011000                    NOP     0

     1980    32691
PL6.E3A0      #001=Z8EK$OPTIMAL_BRANCHES File=Z8EK.:Z8A6TSI                      SAT 08/09/97 11:56 Page:306
     1981    32692    4             CALL END_BRA_FALSE_NUMERIC;

  32692 28 007661   005106 701000 28                 TSX1    END_BRA_FALSE_NUMERIC
        28 007662   000000 011000                    NOP     0
        28 007663   007706 710000 28                 TRA     s:32732

     1982    32693
     1983    32694    4           CASE(ELSE);

     1984    32695
     1985    32696                  %CONDITIONAL_ERROR (@ERROR# = %E$MUST_BE_DISPLAY,
     1986    32697                      @LX_ITEM$ = NODE$ -> UNARY_OP.LOP$,
     1987    32698                      @LINE = NODE$ -> UNARY_OP.LOP$ -> LX_ETT_ITEM.LINE,
     1988    32699                      @COLUMN = NODE$ -> UNARY_OP.LOP$ -> LX_ETT_ITEM.COLUMN);

  32709 28 007664   300000 236100                    LDQ     0,,PR3
        28 007665   400000 316007                    CANQ    -131072,DL
        28 007666   007706 601000 28                 TNZ     s:32732

  32711 28 007667   300006 634500                    EPPR4   6,,PR3
        28 007670   200324 454500                    STP4    COLLATING$+3,,AUTO
        28 007671   300005 631500                    EPPR1   5,,PR3
        28 007672   200323 451500                    STP1    COLLATING$+2,,AUTO
        28 007673   000170 236000 29                 LDQ     120
        28 007674   200322 756100                    STQ     COLLATING$+1,,AUTO
        28 007675   200322 630500                    EPPR0   COLLATING$+1,,AUTO
        28 007676   000036 631400 29                 EPPR1   30
        28 007677   000000 701000 xent               TSX1    Z8AE$ERROR
        28 007700   000000 011000                    NOP     0

  32720 28 007701   200004 470500                    LDP0    @NODE$,,AUTO
        28 007702   000000 471500                    LDP1    0,,PR0
        28 007703   100001 473500                    LDP3    1,,PR1
        28 007704   400000 236007                    LDQ     -131072,DL
        28 007705   300000 256100                    ORSQ    0,,PR3

     1989    32729    4         END;  /*V* case of variable type */
PL6.E3A0      #001=Z8EK$OPTIMAL_BRANCHES File=Z8EK.:Z8A6TSI                      SAT 08/09/97 11:56 Page:307

     1990    32730    3       END;

     1991    32731
     1992    32732    2   END COMPARE_NOT_NUMERIC_CLASS;

  32732 28 007706   200032 221300                    LDX1  ! TRANS_TABLE_ETT$+1,,AUTO
        28 007707   000001 702211                    TSX2  ! 1,X1
        28 007710   007713 710000 28                 TRA     s:32769

     1993    32733        %EJECT;
PL6.E3A0      #001=Z8EK$OPTIMAL_BRANCHES File=Z8EK.:Z8A6TSI                      SAT 08/09/97 11:56 Page:308
     1994    32734    1   Z8EK$BRANCH:ENTRY(LABEL$);

  32734 28 007711   000000 700200 xent  Z8EK$BRANCH  TSX0  ! X66_AUTO_2
        28 007712   000332 000002                    ZERO    218,2

     1995    32735
     1996    32736             %NEW_ILL (@ID = %LINOI);

  32769 28 007713   000017 236000 29                 LDQ     15
        28 007714   200322 756100                    STQ     COLLATING$+1,,AUTO
        28 007715   200322 630500                    EPPR0   COLLATING$+1,,AUTO
        28 007716   200327 450500                    STP0    COLLATING$+6,,AUTO
        28 007717   000020 236000 29                 LDQ     16
        28 007720   200326 756100                    STQ     COLLATING$+5,,AUTO
        28 007721   000104 237000 29                 LDAQ    68
        28 007722   200324 757100                    STAQ    COLLATING$+3,,AUTO
        28 007723   200324 630500                    EPPR0   COLLATING$+3,,AUTO
        28 007724   000003 631400 29                 EPPR1   3
        28 007725   000000 701000 xent               TSX1    Z8AN$NEW_ILL
        28 007726   000000 011000                    NOP     0

     1997    33115             %NEW_ILL ( @ID        = %GO ,
     1998    33116                        @CODE      = %GO_UNCONDITIONAL ,
     1999    33117                        @EXPR$     = "ADDR(NIL)",
     2000    33118                        @LABEL$    = LABEL$ );

  33279 28 007727   000017 236000 29                 LDQ     15
        28 007730   200322 756100                    STQ     COLLATING$+1,,AUTO
        28 007731   200322 630500                    EPPR0   COLLATING$+1,,AUTO
        28 007732   200327 450500                    STP0    COLLATING$+6,,AUTO
        28 007733   000020 236000 29                 LDQ     16
        28 007734   200326 756100                    STQ     COLLATING$+5,,AUTO
        28 007735   000116 237000 29                 LDAQ    78
        28 007736   200324 757100                    STAQ    COLLATING$+3,,AUTO
        28 007737   200324 630500                    EPPR0   COLLATING$+3,,AUTO
        28 007740   000003 631400 29                 EPPR1   3
        28 007741   000000 701000 xent               TSX1    Z8AN$NEW_ILL
PL6.E3A0      #001=Z8EK$OPTIMAL_BRANCHES File=Z8EK.:Z8A6TSI                      SAT 08/09/97 11:56 Page:309
        28 007742   000000 011000                    NOP     0

  33280 28 007743   000000 220003                    LDX0    0,DU
        28 007744   000000 470400 7                  LDP0    ILL$
        28 007745   000000 440100                    SXL0    0,,PR0

  33281 28 007746   200003 470500                    LDP0    @LABEL$,,AUTO
        28 007747   000000 236100                    LDQ     0,,PR0
        28 007750   000000 471400 7                  LDP1    ILL$
        28 007751   100001 756100                    STQ     1,,PR1

  33282 28 007752   000000 236000 29                 LDQ     0
        28 007753   100002 756100                    STQ     2,,PR1

     2001    33497    1        RETURN;

  33497 28 007754   000000 702200 xent               TSX2  ! X66_ARET

     2002    33498
     2003    33499        %EJECT;
PL6.E3A0      #001=Z8EK$OPTIMAL_BRANCHES File=Z8EK.:Z8A6TSI                      SAT 08/09/97 11:56 Page:310
     2004    33500    1   Z8EK$NODE_TRUE:ENTRY(LABEL$, NODE$);

  33500 28 007755   000000 700200 xent  Z8EK$NODE_T* TSX0  ! X66_AUTO_2
        28 007756   000332 000002                    ZERO    218,2

     2005    33501
     2006    33502    1        EXPRESSION$ = ADDR(TEMP_EXPRESSION);

  33502 28 007757   000102 236000 29                 LDQ     66
        28 007760   200005 756100                    STQ     EXPRESSION$,,AUTO

     2007    33503
     2008    33504    2        DO CASE(NODE$ -> LX_ITEM.ID);

  33504 28 007761   200004 470500                    LDP0    @NODE$,,AUTO
        28 007762   000000 471500                    LDP1    0,,PR0
        28 007763   100000 236100                    LDQ     0,,PR1
        28 007764   000022 772000                    QRL     18
        28 007765   000005 136007                    SBLQ    5,DL
        28 007766   000002 116007                    CMPQ    2,DL
        28 007767   007771 602006 28                 TNC     s:33504+8,QL
        28 007770   010503 710000 28                 TRA     s:35213
        28 007771   010326 710000 28                 TRA     s:35127
        28 007772   007773 710000 28                 TRA     s:33506

     2009    33505    2          CASE(%UNARY_OP);

     2010    33506    3            DO CASE(NODE$ -> UNARY_OP.OP);

  33506 28 007773   100003 235100                    LDA     3,,PR1
        28 007774   000040 115007                    CMPA    32,DL
        28 007775   007777 602005 28                 TNC     s:33506+4,AL
        28 007776   010304 710000 28                 TRA     s:35102
        28 007777   010304 710000 28                 TRA     s:35102
        28 010000   010304 710000 28                 TRA     s:35102
        28 010001   010304 710000 28                 TRA     s:35102
        28 010002   010220 710000 28                 TRA     s:35062
PL6.E3A0      #001=Z8EK$OPTIMAL_BRANCHES File=Z8EK.:Z8A6TSI                      SAT 08/09/97 11:56 Page:311
        28 010003   010220 710000 28                 TRA     s:35062
        28 010004   010220 710000 28                 TRA     s:35062
        28 010005   010056 710000 28                 TRA     s:33518
        28 010006   010061 710000 28                 TRA     s:33521
        28 010007   010070 710000 28                 TRA     s:33525
        28 010010   010077 710000 28                 TRA     s:33529
        28 010011   010051 710000 28                 TRA     s:33514
        28 010012   010044 710000 28                 TRA     s:33511
        28 010013   010037 710000 28                 TRA     s:33508
        28 010014   010252 710000 28                 TRA     s:35077
        28 010015   010304 710000 28                 TRA     s:35102
        28 010016   010304 710000 28                 TRA     s:35102
        28 010017   010304 710000 28                 TRA     s:35102
        28 010020   010304 710000 28                 TRA     s:35102
        28 010021   010304 710000 28                 TRA     s:35102
        28 010022   010304 710000 28                 TRA     s:35102
        28 010023   010304 710000 28                 TRA     s:35102
        28 010024   010304 710000 28                 TRA     s:35102
        28 010025   010304 710000 28                 TRA     s:35102
        28 010026   010304 710000 28                 TRA     s:35102
        28 010027   010304 710000 28                 TRA     s:35102
        28 010030   010304 710000 28                 TRA     s:35102
        28 010031   010304 710000 28                 TRA     s:35102
        28 010032   010304 710000 28                 TRA     s:35102
        28 010033   010304 710000 28                 TRA     s:35102
        28 010034   010304 710000 28                 TRA     s:35102
        28 010035   010106 710000 28                 TRA     s:33567
        28 010036   010153 710000 28                 TRA     s:34331

     2011    33507    3              CASE(%OP_ZERO);

     2012    33508    3                CALL COMPARE_ARITH_CLASS (%OP_EQUAL);

  33508 28 010037   000172 236000 29                 LDQ     122
        28 010040   200033 756100                    STQ     TRANS_TABLE_ETT$+2,,AUTO
        28 010041   005203 701000 28                 TSX1    COMPARE_ARITH_CLASS
        28 010042   000000 011000                    NOP     0
PL6.E3A0      #001=Z8EK$OPTIMAL_BRANCHES File=Z8EK.:Z8A6TSI                      SAT 08/09/97 11:56 Page:312
        28 010043   010524 710000 28                 TRA     s:35235

     2013    33509
     2014    33510    3              CASE(%OP_NEGATIVE);

     2015    33511    3                CALL COMPARE_ARITH_CLASS (%OP_LESS_THAN);

  33511 28 010044   000033 236000 29                 LDQ     27
        28 010045   200033 756100                    STQ     TRANS_TABLE_ETT$+2,,AUTO
        28 010046   005203 701000 28                 TSX1    COMPARE_ARITH_CLASS
        28 010047   000000 011000                    NOP     0
        28 010050   010524 710000 28                 TRA     s:35235

     2016    33512
     2017    33513    3              CASE(%OP_POSITIVE);

     2018    33514    3                CALL COMPARE_ARITH_CLASS (%OP_GREATER_THAN);

  33514 28 010051   000035 236000 29                 LDQ     29
        28 010052   200033 756100                    STQ     TRANS_TABLE_ETT$+2,,AUTO
        28 010053   005203 701000 28                 TSX1    COMPARE_ARITH_CLASS
        28 010054   000000 011000                    NOP     0
        28 010055   010524 710000 28                 TRA     s:35235

     2019    33515
     2020    33516
     2021    33517    3              CASE(%OP_NUMERIC);

     2022    33518    3                CALL COMPARE_NUMERIC_CLASS;

  33518 28 010056   006300 701000 28                 TSX1    COMPARE_NUMERIC_CLASS
        28 010057   000000 011000                    NOP     0
        28 010060   010524 710000 28                 TRA     s:35235

     2023    33519
     2024    33520    3              CASE(%OP_ALPHABETIC);

PL6.E3A0      #001=Z8EK$OPTIMAL_BRANCHES File=Z8EK.:Z8A6TSI                      SAT 08/09/97 11:56 Page:313
     2025    33521    3                CALL COMPARE_ALPHABETIC (%OP_CLASS_ALPHA,

  33521 28 010061   000175 236000 29                 LDQ     125
        28 010062   200034 756100                    STQ     @GO_CODE+1,,AUTO
        28 010063   000176 236000 29                 LDQ     126
        28 010064   200033 756100                    STQ     TRANS_TABLE_ETT$+2,,AUTO
        28 010065   005254 701000 28                 TSX1    COMPARE_ALPHABETIC
        28 010066   000000 011000                    NOP     0
        28 010067   010524 710000 28                 TRA     s:35235

     2026    33522    3                                         %GO_CLASS);
     2027    33523
     2028    33524    3              CASE(%OP_ALPHABETIC_LOWER);

     2029    33525    3                CALL COMPARE_ALPHABETIC (%OP_CLASS_ALPHA_LOWER,

  33525 28 010070   000175 236000 29                 LDQ     125
        28 010071   200034 756100                    STQ     @GO_CODE+1,,AUTO
        28 010072   000200 236000 29                 LDQ     128
        28 010073   200033 756100                    STQ     TRANS_TABLE_ETT$+2,,AUTO
        28 010074   005254 701000 28                 TSX1    COMPARE_ALPHABETIC
        28 010075   000000 011000                    NOP     0
        28 010076   010524 710000 28                 TRA     s:35235

     2030    33526    3                                         %GO_CLASS);
     2031    33527
     2032    33528    3              CASE(%OP_ALPHABETIC_UPPER);

     2033    33529    3                CALL COMPARE_ALPHABETIC (%OP_CLASS_ALPHA_UPPER,

  33529 28 010077   000175 236000 29                 LDQ     125
        28 010100   200034 756100                    STQ     @GO_CODE+1,,AUTO
        28 010101   000202 236000 29                 LDQ     130
        28 010102   200033 756100                    STQ     TRANS_TABLE_ETT$+2,,AUTO
        28 010103   005254 701000 28                 TSX1    COMPARE_ALPHABETIC
        28 010104   000000 011000                    NOP     0
        28 010105   010524 710000 28                 TRA     s:35235
PL6.E3A0      #001=Z8EK$OPTIMAL_BRANCHES File=Z8EK.:Z8A6TSI                      SAT 08/09/97 11:56 Page:314

     2034    33530    3                                         %GO_CLASS);
     2035    33531
     2036    33532    3              CASE(%OP_SWITCH_IS_ON);

     2037    33533
     2038    33534                     %NEW_ILL (@ID = %LINOI);

  33567 28 010106   000017 236000 29                 LDQ     15
        28 010107   200322 756100                    STQ     COLLATING$+1,,AUTO
        28 010110   200322 631500                    EPPR1   COLLATING$+1,,AUTO
        28 010111   200327 451500                    STP1    COLLATING$+6,,AUTO
        28 010112   000020 236000 29                 LDQ     16
        28 010113   200326 756100                    STQ     COLLATING$+5,,AUTO
        28 010114   000104 237000 29                 LDAQ    68
        28 010115   200324 757100                    STAQ    COLLATING$+3,,AUTO
        28 010116   200324 630500                    EPPR0   COLLATING$+3,,AUTO
        28 010117   000003 631400 29                 EPPR1   3
        28 010120   000000 701000 xent               TSX1    Z8AN$NEW_ILL
        28 010121   000000 011000                    NOP     0

     2039    33913                     %NEW_ILL (@ID = %GO,
     2040    33914                               @CODE = %GO_SWITCH_ON,
     2041    33915                               @EXPR$ = NODE$ -> UNARY_OP.LOP$ -> LX_ETT_ITEM.ETT$,
     2042    33916                               @LABEL$ = LABEL$);

  34077 28 010122   000017 236000 29                 LDQ     15
        28 010123   200322 756100                    STQ     COLLATING$+1,,AUTO
        28 010124   200322 630500                    EPPR0   COLLATING$+1,,AUTO
        28 010125   200327 450500                    STP0    COLLATING$+6,,AUTO
        28 010126   000020 236000 29                 LDQ     16
        28 010127   200326 756100                    STQ     COLLATING$+5,,AUTO
        28 010130   000116 237000 29                 LDAQ    78
        28 010131   200324 757100                    STAQ    COLLATING$+3,,AUTO
        28 010132   200324 630500                    EPPR0   COLLATING$+3,,AUTO
        28 010133   000003 631400 29                 EPPR1   3
        28 010134   000000 701000 xent               TSX1    Z8AN$NEW_ILL
PL6.E3A0      #001=Z8EK$OPTIMAL_BRANCHES File=Z8EK.:Z8A6TSI                      SAT 08/09/97 11:56 Page:315
        28 010135   000000 011000                    NOP     0

  34078 28 010136   000025 220003                    LDX0    21,DU
        28 010137   000000 470400 7                  LDP0    ILL$
        28 010140   000000 440100                    SXL0    0,,PR0

  34079 28 010141   200003 470500                    LDP0    @LABEL$,,AUTO
        28 010142   000000 236100                    LDQ     0,,PR0
        28 010143   000000 471400 7                  LDP1    ILL$
        28 010144   100001 756100                    STQ     1,,PR1

  34080 28 010145   200004 473500                    LDP3    @NODE$,,AUTO
        28 010146   300000 474500                    LDP4    0,,PR3
        28 010147   400001 475500                    LDP5    1,,PR4
        28 010150   500001 236100                    LDQ     1,,PR5
        28 010151   100002 756100                    STQ     2,,PR1

  34265 28 010152   010524 710000 28                 TRA     s:35235

     2043    34295
     2044    34296    3              CASE(%OP_SWITCH_IS_OFF);

     2045    34297
     2046    34298                     %NEW_ILL (@ID = %LINOI);

  34331 28 010153   000017 236000 29                 LDQ     15
        28 010154   200322 756100                    STQ     COLLATING$+1,,AUTO
        28 010155   200322 631500                    EPPR1   COLLATING$+1,,AUTO
        28 010156   200327 451500                    STP1    COLLATING$+6,,AUTO
        28 010157   000020 236000 29                 LDQ     16
        28 010160   200326 756100                    STQ     COLLATING$+5,,AUTO
        28 010161   000104 237000 29                 LDAQ    68
        28 010162   200324 757100                    STAQ    COLLATING$+3,,AUTO
        28 010163   200324 630500                    EPPR0   COLLATING$+3,,AUTO
        28 010164   000003 631400 29                 EPPR1   3
        28 010165   000000 701000 xent               TSX1    Z8AN$NEW_ILL
        28 010166   000000 011000                    NOP     0
PL6.E3A0      #001=Z8EK$OPTIMAL_BRANCHES File=Z8EK.:Z8A6TSI                      SAT 08/09/97 11:56 Page:316

     2047    34677                     %NEW_ILL (@ID = %GO,
     2048    34678                               @CODE = %GO_SWITCH_OFF,
     2049    34679                               @EXPR$ = NODE$ -> UNARY_OP.LOP$ -> LX_ETT_ITEM.ETT$,
     2050    34680                               @LABEL$ = LABEL$);

  34841 28 010167   000017 236000 29                 LDQ     15
        28 010170   200322 756100                    STQ     COLLATING$+1,,AUTO
        28 010171   200322 630500                    EPPR0   COLLATING$+1,,AUTO
        28 010172   200327 450500                    STP0    COLLATING$+6,,AUTO
        28 010173   000020 236000 29                 LDQ     16
        28 010174   200326 756100                    STQ     COLLATING$+5,,AUTO
        28 010175   000116 237000 29                 LDAQ    78
        28 010176   200324 757100                    STAQ    COLLATING$+3,,AUTO
        28 010177   200324 630500                    EPPR0   COLLATING$+3,,AUTO
        28 010200   000003 631400 29                 EPPR1   3
        28 010201   000000 701000 xent               TSX1    Z8AN$NEW_ILL
        28 010202   000000 011000                    NOP     0

  34842 28 010203   000026 220003                    LDX0    22,DU
        28 010204   000000 470400 7                  LDP0    ILL$
        28 010205   000000 440100                    SXL0    0,,PR0

  34843 28 010206   200003 470500                    LDP0    @LABEL$,,AUTO
        28 010207   000000 236100                    LDQ     0,,PR0
        28 010210   000000 471400 7                  LDP1    ILL$
        28 010211   100001 756100                    STQ     1,,PR1

  34844 28 010212   200004 473500                    LDP3    @NODE$,,AUTO
        28 010213   300000 474500                    LDP4    0,,PR3
        28 010214   400001 475500                    LDP5    1,,PR4
        28 010215   500001 236100                    LDQ     1,,PR5
        28 010216   100002 756100                    STQ     2,,PR1

  35029 28 010217   010524 710000 28                 TRA     s:35235

     2051    35059
PL6.E3A0      #001=Z8EK$OPTIMAL_BRANCHES File=Z8EK.:Z8A6TSI                      SAT 08/09/97 11:56 Page:317
     2052    35060    3              CASE(%OP_MEMBER, %OP_OWNER, %OP_TENANT);

     2053    35061
     2054    35062    3                  IF COMCOM.IDS_SUB_SCHEMA = %FALSE  THEN

  35062 28 010220   000477 234000 xsym               SZN     COMCOM+319
        28 010221   010227 604000 28                 TMI     s:35066

     2055    35063    3                    CALL Z8AE$ERROR( %E$NO_VALID_SUB_SCHEMA );

  35063 28 010222   000204 630400 29                 EPPR0   132
        28 010223   000014 631400 29                 EPPR1   12
        28 010224   000000 701000 xent               TSX1    Z8AE$ERROR
        28 010225   000000 011000                    NOP     0
        28 010226   010524 710000 28                 TRA     s:35235

     2056    35064    3                  ELSE
     2057    35065    4                    DO;

     2058    35066    4                      FLAG$ = NODE$;

  35066 28 010227   000000 236100                    LDQ     0,,PR0
        28 010230   200022 756100                    STQ     FLAG$,,AUTO

     2059    35067    4                      CALL Z9EB$DB_COMPARE( NODE$, FLAG$ );

  35067 28 010231   200022 631500                    EPPR1   FLAG$,,AUTO
        28 010232   200323 451500                    STP1    COLLATING$+2,,AUTO
        28 010233   200004 236100                    LDQ     @NODE$,,AUTO
        28 010234   200322 756100                    STQ     COLLATING$+1,,AUTO
        28 010235   200322 630500                    EPPR0   COLLATING$+1,,AUTO
        28 010236   000002 631400 29                 EPPR1   2
        28 010237   000000 701000 xent               TSX1    Z9EB$DB_COMPARE
        28 010240   000000 011000                    NOP     0

     2060    35068    4                      IF FLAG$ = ADDR(NIL)    THEN

PL6.E3A0      #001=Z8EK$OPTIMAL_BRANCHES File=Z8EK.:Z8A6TSI                      SAT 08/09/97 11:56 Page:318
  35068 28 010241   200022 236100                    LDQ     FLAG$,,AUTO
        28 010242   000000 116000 29                 CMPQ    0
        28 010243   010245 601000 28                 TNZ     s:35070

     2061    35069    4                           RETURN;

  35069 28 010244   000000 702200 xent               TSX2  ! X66_ARET

     2062    35070    4                      CALL COMPARE_ARITH_CLASS (%OP_NOT_EQUAL);

  35070 28 010245   000031 236000 29                 LDQ     25
        28 010246   200033 756100                    STQ     TRANS_TABLE_ETT$+2,,AUTO
        28 010247   005203 701000 28                 TSX1    COMPARE_ARITH_CLASS
        28 010250   000000 011000                    NOP     0

     2063    35071    4                    END;

  35071 28 010251   010524 710000 28                 TRA     s:35235

     2064    35072
     2065    35073
     2066    35074
     2067    35075    3              CASE( %OP_EMPTY );

     2068    35076
     2069    35077    3                IF COMCOM.IDS_SUB_SCHEMA = %FALSE    THEN

  35077 28 010252   000477 234000 xsym               SZN     COMCOM+319
        28 010253   010261 604000 28                 TMI     s:35081

     2070    35078    3                  CALL Z8AE$ERROR( %E$NO_VALID_SUB_SCHEMA );

  35078 28 010254   000204 630400 29                 EPPR0   132
        28 010255   000014 631400 29                 EPPR1   12
        28 010256   000000 701000 xent               TSX1    Z8AE$ERROR
        28 010257   000000 011000                    NOP     0
        28 010260   010524 710000 28                 TRA     s:35235
PL6.E3A0      #001=Z8EK$OPTIMAL_BRANCHES File=Z8EK.:Z8A6TSI                      SAT 08/09/97 11:56 Page:319

     2071    35079    3                ELSE
     2072    35080    4                  DO;

     2073    35081    4                    FLAG$ = NODE$;

  35081 28 010261   000000 236100                    LDQ     0,,PR0
        28 010262   200022 756100                    STQ     FLAG$,,AUTO

     2074    35082    4                    CALL Z9EB$COMPARE_EMPTY ( NODE$, FLAG$ );

  35082 28 010263   200022 631500                    EPPR1   FLAG$,,AUTO
        28 010264   200323 451500                    STP1    COLLATING$+2,,AUTO
        28 010265   200004 236100                    LDQ     @NODE$,,AUTO
        28 010266   200322 756100                    STQ     COLLATING$+1,,AUTO
        28 010267   200322 630500                    EPPR0   COLLATING$+1,,AUTO
        28 010270   000002 631400 29                 EPPR1   2
        28 010271   000000 701000 xent               TSX1    Z9EB$COMPARE_EMPTY
        28 010272   000000 011000                    NOP     0

     2075    35083    4                    IF FLAG$ = ADDR( NIL )   THEN

  35083 28 010273   200022 236100                    LDQ     FLAG$,,AUTO
        28 010274   000000 116000 29                 CMPQ    0
        28 010275   010277 601000 28                 TNZ     s:35085

     2076    35084    4                       RETURN;

  35084 28 010276   000000 702200 xent               TSX2  ! X66_ARET

     2077    35085    4                    CALL COMPARE_ARITH_CLASS (%OP_NOT_EQUAL);

  35085 28 010277   000031 236000 29                 LDQ     25
        28 010300   200033 756100                    STQ     TRANS_TABLE_ETT$+2,,AUTO
        28 010301   005203 701000 28                 TSX1    COMPARE_ARITH_CLASS
        28 010302   000000 011000                    NOP     0

PL6.E3A0      #001=Z8EK$OPTIMAL_BRANCHES File=Z8EK.:Z8A6TSI                      SAT 08/09/97 11:56 Page:320
     2078    35086    4                  END;

  35086 28 010303   010524 710000 28                 TRA     s:35235

     2079    35087
     2080    35088    3              CASE(ELSE);

     2081    35089                     %CONDITIONAL_ERROR (@LX_ITEM$ = NODE$,
     2082    35090                                         @ERROR# = %E$INVALID_COMP_OPERANDS,
     2083    35091                                         @LINE = NODE$ -> LX_ITEM.LINE,
     2084    35092                                         @COLUMN = NODE$ -> LX_ITEM.COLUMN);

  35102 28 010304   100000 236100                    LDQ     0,,PR1
        28 010305   400000 316007                    CANQ    -131072,DL
        28 010306   010524 601000 28                 TNZ     s:35235

  35104 28 010307   100006 633500                    EPPR3   6,,PR1
        28 010310   200324 453500                    STP3    COLLATING$+3,,AUTO
        28 010311   100005 634500                    EPPR4   5,,PR1
        28 010312   200323 454500                    STP4    COLLATING$+2,,AUTO
        28 010313   000066 236000 29                 LDQ     54
        28 010314   200322 756100                    STQ     COLLATING$+1,,AUTO
        28 010315   200322 630500                    EPPR0   COLLATING$+1,,AUTO
        28 010316   000036 631400 29                 EPPR1   30
        28 010317   000000 701000 xent               TSX1    Z8AE$ERROR
        28 010320   000000 011000                    NOP     0

  35113 28 010321   200004 470500                    LDP0    @NODE$,,AUTO
        28 010322   000000 471500                    LDP1    0,,PR0
        28 010323   400000 236007                    LDQ     -131072,DL
        28 010324   100000 256100                    ORSQ    0,,PR1

     2085    35122
     2086    35123    3            END /*V* Case */;

  35123 28 010325   010524 710000 28                 TRA     s:35235

PL6.E3A0      #001=Z8EK$OPTIMAL_BRANCHES File=Z8EK.:Z8A6TSI                      SAT 08/09/97 11:56 Page:321
     2087    35124
     2088    35125        %EJECT;
PL6.E3A0      #001=Z8EK$OPTIMAL_BRANCHES File=Z8EK.:Z8A6TSI                      SAT 08/09/97 11:56 Page:322
     2089    35126    2          CASE(%BINARY_OP);

     2090    35127    3            DO CASE(NODE$ -> BINARY_OP.OP);

  35127 28 010326   100003 235100                    LDA     3,,PR1
        28 010327   000026 135007                    SBLA    22,DL
        28 010330   000015 115007                    CMPA    13,DL
        28 010331   010333 602005 28                 TNC     s:35127+5,AL
        28 010332   010461 710000 28                 TRA     s:35176
        28 010333   010363 710000 28                 TRA     s:35134
        28 010334   010350 710000 28                 TRA     s:35129
        28 010335   010437 710000 28                 TRA     s:35154
        28 010336   010411 710000 28                 TRA     s:35144
        28 010337   010376 710000 28                 TRA     s:35139
        28 010340   010424 710000 28                 TRA     s:35149
        28 010341   010461 710000 28                 TRA     s:35176
        28 010342   010461 710000 28                 TRA     s:35176
        28 010343   010461 710000 28                 TRA     s:35176
        28 010344   010461 710000 28                 TRA     s:35176
        28 010345   010461 710000 28                 TRA     s:35176
        28 010346   010461 710000 28                 TRA     s:35176
        28 010347   010452 710000 28                 TRA     s:35159

     2091    35128    3              CASE(%OP_EQUAL);

     2092    35129    3                CALL GEN_COMPARISONS(NODE$, EXPRESSION$) ALTRET(CLOOP);

  35129 28 010350   200005 633500                    EPPR3   EXPRESSION$,,AUTO
        28 010351   200034 453500                    STP3    @GO_CODE+1,,AUTO
        28 010352   200004 236100                    LDQ     @NODE$,,AUTO
        28 010353   200033 756100                    STQ     TRANS_TABLE_ETT$+2,,AUTO
        28 010354   001111 701000 28                 TSX1    GEN_COMPARISONS
        28 010355   010525 702000 28                 TSX2    CLOOP

     2093    35130
     2094    35131    3                CALL GEN_GO (%GO_EQUAL);

PL6.E3A0      #001=Z8EK$OPTIMAL_BRANCHES File=Z8EK.:Z8A6TSI                      SAT 08/09/97 11:56 Page:323
  35131 28 010356   000206 236000 29                 LDQ     134
        28 010357   200033 756100                    STQ     TRANS_TABLE_ETT$+2,,AUTO
        28 010360   005751 701000 28                 TSX1    GEN_GO
        28 010361   000000 011000                    NOP     0
        28 010362   010524 710000 28                 TRA     s:35235

     2095    35132
     2096    35133    3              CASE(%OP_LESS_THAN);

     2097    35134    3                CALL GEN_COMPARISONS(NODE$, EXPRESSION$) ALTRET(CLOOP);

  35134 28 010363   200005 633500                    EPPR3   EXPRESSION$,,AUTO
        28 010364   200034 453500                    STP3    @GO_CODE+1,,AUTO
        28 010365   200004 236100                    LDQ     @NODE$,,AUTO
        28 010366   200033 756100                    STQ     TRANS_TABLE_ETT$+2,,AUTO
        28 010367   001111 701000 28                 TSX1    GEN_COMPARISONS
        28 010370   010525 702000 28                 TSX2    CLOOP

     2098    35135
     2099    35136    3                CALL GEN_GO (%GO_LESS_THAN);

  35136 28 010371   000111 236000 29                 LDQ     73
        28 010372   200033 756100                    STQ     TRANS_TABLE_ETT$+2,,AUTO
        28 010373   005751 701000 28                 TSX1    GEN_GO
        28 010374   000000 011000                    NOP     0
        28 010375   010524 710000 28                 TRA     s:35235

     2100    35137
     2101    35138    3              CASE(%OP_LESS_THAN_OR_EQUAL);

     2102    35139    3                CALL GEN_COMPARISONS(NODE$, EXPRESSION$) ALTRET(CLOOP);

  35139 28 010376   200005 633500                    EPPR3   EXPRESSION$,,AUTO
        28 010377   200034 453500                    STP3    @GO_CODE+1,,AUTO
        28 010400   200004 236100                    LDQ     @NODE$,,AUTO
        28 010401   200033 756100                    STQ     TRANS_TABLE_ETT$+2,,AUTO
        28 010402   001111 701000 28                 TSX1    GEN_COMPARISONS
PL6.E3A0      #001=Z8EK$OPTIMAL_BRANCHES File=Z8EK.:Z8A6TSI                      SAT 08/09/97 11:56 Page:324
        28 010403   010525 702000 28                 TSX2    CLOOP

     2103    35140
     2104    35141    3                CALL GEN_GO (%GO_LESS_THAN_OR_EQUAL);

  35141 28 010404   000210 236000 29                 LDQ     136
        28 010405   200033 756100                    STQ     TRANS_TABLE_ETT$+2,,AUTO
        28 010406   005751 701000 28                 TSX1    GEN_GO
        28 010407   000000 011000                    NOP     0
        28 010410   010524 710000 28                 TRA     s:35235

     2105    35142
     2106    35143    3              CASE(%OP_NOT_EQUAL);

     2107    35144    3                CALL GEN_COMPARISONS(NODE$, EXPRESSION$) ALTRET(CLOOP);

  35144 28 010411   200005 633500                    EPPR3   EXPRESSION$,,AUTO
        28 010412   200034 453500                    STP3    @GO_CODE+1,,AUTO
        28 010413   200004 236100                    LDQ     @NODE$,,AUTO
        28 010414   200033 756100                    STQ     TRANS_TABLE_ETT$+2,,AUTO
        28 010415   001111 701000 28                 TSX1    GEN_COMPARISONS
        28 010416   010525 702000 28                 TSX2    CLOOP

     2108    35145
     2109    35146    3                CALL GEN_GO (%GO_NOT_EQUAL);

  35146 28 010417   000212 236000 29                 LDQ     138
        28 010420   200033 756100                    STQ     TRANS_TABLE_ETT$+2,,AUTO
        28 010421   005751 701000 28                 TSX1    GEN_GO
        28 010422   000000 011000                    NOP     0
        28 010423   010524 710000 28                 TRA     s:35235

     2110    35147
     2111    35148    3              CASE(%OP_GREATER_THAN_OR_EQUAL);

     2112    35149    3                CALL GEN_COMPARISONS(NODE$, EXPRESSION$) ALTRET(CLOOP);

PL6.E3A0      #001=Z8EK$OPTIMAL_BRANCHES File=Z8EK.:Z8A6TSI                      SAT 08/09/97 11:56 Page:325
  35149 28 010424   200005 633500                    EPPR3   EXPRESSION$,,AUTO
        28 010425   200034 453500                    STP3    @GO_CODE+1,,AUTO
        28 010426   200004 236100                    LDQ     @NODE$,,AUTO
        28 010427   200033 756100                    STQ     TRANS_TABLE_ETT$+2,,AUTO
        28 010430   001111 701000 28                 TSX1    GEN_COMPARISONS
        28 010431   010525 702000 28                 TSX2    CLOOP

     2113    35150
     2114    35151    3                CALL GEN_GO (%GO_GREATER_THAN_OR_EQUAL);

  35151 28 010432   000101 236000 29                 LDQ     65
        28 010433   200033 756100                    STQ     TRANS_TABLE_ETT$+2,,AUTO
        28 010434   005751 701000 28                 TSX1    GEN_GO
        28 010435   000000 011000                    NOP     0
        28 010436   010524 710000 28                 TRA     s:35235

     2115    35152
     2116    35153    3              CASE(%OP_GREATER_THAN);

     2117    35154    3                CALL GEN_COMPARISONS(NODE$, EXPRESSION$) ALTRET(CLOOP);

  35154 28 010437   200005 633500                    EPPR3   EXPRESSION$,,AUTO
        28 010440   200034 453500                    STP3    @GO_CODE+1,,AUTO
        28 010441   200004 236100                    LDQ     @NODE$,,AUTO
        28 010442   200033 756100                    STQ     TRANS_TABLE_ETT$+2,,AUTO
        28 010443   001111 701000 28                 TSX1    GEN_COMPARISONS
        28 010444   010525 702000 28                 TSX2    CLOOP

     2118    35155
     2119    35156    3                CALL GEN_GO (%GO_GREATER_THAN);

  35156 28 010445   000022 236000 29                 LDQ     18
        28 010446   200033 756100                    STQ     TRANS_TABLE_ETT$+2,,AUTO
        28 010447   005751 701000 28                 TSX1    GEN_GO
        28 010450   000000 011000                    NOP     0
        28 010451   010524 710000 28                 TRA     s:35235

PL6.E3A0      #001=Z8EK$OPTIMAL_BRANCHES File=Z8EK.:Z8A6TSI                      SAT 08/09/97 11:56 Page:326
     2120    35157
     2121    35158    3              CASE (%OP_USER_CLASS);

     2122    35159    3                CALL COMPARE_USER_CLASS (NODE$ -> BINARY_OP.ROP$,

  35159 28 010452   000175 236000 29                 LDQ     125
        28 010453   200034 756100                    STQ     @GO_CODE+1,,AUTO
        28 010454   100002 633500                    EPPR3   2,,PR1
        28 010455   200033 453500                    STP3    TRANS_TABLE_ETT$+2,,AUTO
        28 010456   005521 701000 28                 TSX1    COMPARE_USER_CLASS
        28 010457   000000 011000                    NOP     0
        28 010460   010524 710000 28                 TRA     s:35235

     2123    35160    3                                         %GO_CLASS);
     2124    35161
     2125    35162    3              CASE(ELSE);

     2126    35163                     %CONDITIONAL_ERROR (@LX_ITEM$ = NODE$,
     2127    35164                                         @ERROR# = %E$INVALID_COMP_OPERANDS,
     2128    35165                                         @LINE = NODE$ -> LX_ITEM.LINE,
     2129    35166                                         @COLUMN = NODE$ -> LX_ITEM.COLUMN);

  35176 28 010461   100000 236100                    LDQ     0,,PR1
        28 010462   400000 316007                    CANQ    -131072,DL
        28 010463   010524 601000 28                 TNZ     s:35235

  35178 28 010464   100006 633500                    EPPR3   6,,PR1
        28 010465   200324 453500                    STP3    COLLATING$+3,,AUTO
        28 010466   100005 634500                    EPPR4   5,,PR1
        28 010467   200323 454500                    STP4    COLLATING$+2,,AUTO
        28 010470   000066 236000 29                 LDQ     54
        28 010471   200322 756100                    STQ     COLLATING$+1,,AUTO
        28 010472   200322 630500                    EPPR0   COLLATING$+1,,AUTO
        28 010473   000036 631400 29                 EPPR1   30
        28 010474   000000 701000 xent               TSX1    Z8AE$ERROR
        28 010475   000000 011000                    NOP     0

PL6.E3A0      #001=Z8EK$OPTIMAL_BRANCHES File=Z8EK.:Z8A6TSI                      SAT 08/09/97 11:56 Page:327
  35187 28 010476   200004 470500                    LDP0    @NODE$,,AUTO
        28 010477   000000 471500                    LDP1    0,,PR0
        28 010500   400000 236007                    LDQ     -131072,DL
        28 010501   100000 256100                    ORSQ    0,,PR1

     2130    35196
     2131    35197    3            END /*V* Case */;

  35197 28 010502   010524 710000 28                 TRA     s:35235

     2132    35198
     2133    35199    2          CASE(ELSE);

     2134    35200                 %CONDITIONAL_ERROR (@LX_ITEM$ = NODE$,
     2135    35201                                     @ERROR#   = %E$INVALID_COMP_OPERANDS,
     2136    35202                                     @LINE     = NODE$ -> LX_ITEM.LINE,
     2137    35203                                     @COLUMN   = NODE$ -> LX_ITEM.COLUMN);

  35213 28 010503   100000 236100                    LDQ     0,,PR1
        28 010504   400000 316007                    CANQ    -131072,DL
        28 010505   010524 601000 28                 TNZ     s:35235

  35215 28 010506   100006 633500                    EPPR3   6,,PR1
        28 010507   200324 453500                    STP3    COLLATING$+3,,AUTO
        28 010510   100005 634500                    EPPR4   5,,PR1
        28 010511   200323 454500                    STP4    COLLATING$+2,,AUTO
        28 010512   000066 236000 29                 LDQ     54
        28 010513   200322 756100                    STQ     COLLATING$+1,,AUTO
        28 010514   200322 630500                    EPPR0   COLLATING$+1,,AUTO
        28 010515   000036 631400 29                 EPPR1   30
        28 010516   000000 701000 xent               TSX1    Z8AE$ERROR
        28 010517   000000 011000                    NOP     0

  35224 28 010520   200004 470500                    LDP0    @NODE$,,AUTO
        28 010521   000000 471500                    LDP1    0,,PR0
        28 010522   400000 236007                    LDQ     -131072,DL
        28 010523   100000 256100                    ORSQ    0,,PR1
PL6.E3A0      #001=Z8EK$OPTIMAL_BRANCHES File=Z8EK.:Z8A6TSI                      SAT 08/09/97 11:56 Page:328

     2138    35233    2        END /*V* Case */;

     2139    35234
     2140    35235    1        RETURN;

  35235 28 010524   000000 702200 xent               TSX2  ! X66_ARET

     2141    35236
     2142    35237
     2143    35238    1   CLOOP:
     2144    35239
     2145    35240    1     CALL COMPARE_LOOP (EXPRESSION$,

  35240 28 010525   200004 470500       CLOOP        LDP0    @NODE$,,AUTO
        28 010526   000000 471500                    LDP1    0,,PR0
        28 010527   100003 633500                    EPPR3   3,,PR1
        28 010530   200035 453500                    STP3    @GO_CODE+1,,AUTO
        28 010531   200003 236100                    LDQ     @LABEL$,,AUTO
        28 010532   200034 756100                    STQ     @GO_CODE+1,,AUTO
        28 010533   200005 631500                    EPPR1   EXPRESSION$,,AUTO
        28 010534   200033 451500                    STP1    TRANS_TABLE_ETT$+2,,AUTO
        28 010535   000003 701000 28                 TSX1    COMPARE_LOOP
        28 010536   000000 011000                    NOP     0

     2146    35241    1                        LABEL$,
     2147    35242    1                        NODE$ -> BINARY_OP.OP);
     2148    35243
     2149    35244    1     RETURN;

  35244 28 010537   000000 702200 xent               TSX2  ! X66_ARET

     2150    35245
     2151    35246        %EJECT;
PL6.E3A0      #001=Z8EK$OPTIMAL_BRANCHES File=Z8EK.:Z8A6TSI                      SAT 08/09/97 11:56 Page:329
     2152    35247    1   Z8EK$NODE_FALSE:ENTRY(LABEL$, NODE$);

  35247 28 010540   000000 700200 xent  Z8EK$NODE_F* TSX0  ! X66_AUTO_2
        28 010541   000332 000002                    ZERO    218,2

     2153    35248
     2154    35249    1        EXPRESSION$ = ADDR(TEMP_EXPRESSION);

  35249 28 010542   000102 236000 29                 LDQ     66
        28 010543   200005 756100                    STQ     EXPRESSION$,,AUTO

     2155    35250
     2156    35251    2        DO CASE(NODE$ -> LX_ITEM.ID);

  35251 28 010544   200004 470500                    LDP0    @NODE$,,AUTO
        28 010545   000000 471500                    LDP1    0,,PR0
        28 010546   100000 236100                    LDQ     0,,PR1
        28 010547   000022 772000                    QRL     18
        28 010550   000005 136007                    SBLQ    5,DL
        28 010551   000002 116007                    CMPQ    2,DL
        28 010552   010554 602006 28                 TNC     s:35251+8,QL
        28 010553   011346 710000 28                 TRA     s:37006
        28 010554   011111 710000 28                 TRA     s:36873
        28 010555   010556 710000 28                 TRA     s:35253

     2157    35252    2          CASE(%UNARY_OP);

     2158    35253    3            DO CASE(NODE$ -> UNARY_OP.OP);

  35253 28 010556   100003 235100                    LDA     3,,PR1
        28 010557   000040 115007                    CMPA    32,DL
        28 010560   010562 602005 28                 TNC     s:35253+4,AL
        28 010561   011067 710000 28                 TRA     s:36848
        28 010562   011067 710000 28                 TRA     s:36848
        28 010563   011067 710000 28                 TRA     s:36848
        28 010564   011067 710000 28                 TRA     s:36848
        28 010565   011003 710000 28                 TRA     s:36810
PL6.E3A0      #001=Z8EK$OPTIMAL_BRANCHES File=Z8EK.:Z8A6TSI                      SAT 08/09/97 11:56 Page:330
        28 010566   011003 710000 28                 TRA     s:36810
        28 010567   011003 710000 28                 TRA     s:36810
        28 010570   010641 710000 28                 TRA     s:35265
        28 010571   010644 710000 28                 TRA     s:35269
        28 010572   010653 710000 28                 TRA     s:35273
        28 010573   010662 710000 28                 TRA     s:35277
        28 010574   010634 710000 28                 TRA     s:35261
        28 010575   010627 710000 28                 TRA     s:35258
        28 010576   010622 710000 28                 TRA     s:35255
        28 010577   011035 710000 28                 TRA     s:36823
        28 010600   011067 710000 28                 TRA     s:36848
        28 010601   011067 710000 28                 TRA     s:36848
        28 010602   011067 710000 28                 TRA     s:36848
        28 010603   011067 710000 28                 TRA     s:36848
        28 010604   011067 710000 28                 TRA     s:36848
        28 010605   011067 710000 28                 TRA     s:36848
        28 010606   011067 710000 28                 TRA     s:36848
        28 010607   011067 710000 28                 TRA     s:36848
        28 010610   011067 710000 28                 TRA     s:36848
        28 010611   011067 710000 28                 TRA     s:36848
        28 010612   011067 710000 28                 TRA     s:36848
        28 010613   011067 710000 28                 TRA     s:36848
        28 010614   011067 710000 28                 TRA     s:36848
        28 010615   011067 710000 28                 TRA     s:36848
        28 010616   011067 710000 28                 TRA     s:36848
        28 010617   011067 710000 28                 TRA     s:36848
        28 010620   010671 710000 28                 TRA     s:35315
        28 010621   010736 710000 28                 TRA     s:36079

     2159    35254    3              CASE(%OP_ZERO);

     2160    35255    3                CALL COMPARE_ARITH_CLASS (%OP_NOT_EQUAL);

  35255 28 010622   000031 236000 29                 LDQ     25
        28 010623   200033 756100                    STQ     TRANS_TABLE_ETT$+2,,AUTO
        28 010624   005203 701000 28                 TSX1    COMPARE_ARITH_CLASS
        28 010625   000000 011000                    NOP     0
PL6.E3A0      #001=Z8EK$OPTIMAL_BRANCHES File=Z8EK.:Z8A6TSI                      SAT 08/09/97 11:56 Page:331
        28 010626   011367 710000 28                 TRA     s:37028

     2161    35256
     2162    35257    3              CASE(%OP_NEGATIVE);

     2163    35258    3                CALL COMPARE_ARITH_CLASS (%OP_GREATER_THAN_OR_EQUAL);

  35258 28 010627   000214 236000 29                 LDQ     140
        28 010630   200033 756100                    STQ     TRANS_TABLE_ETT$+2,,AUTO
        28 010631   005203 701000 28                 TSX1    COMPARE_ARITH_CLASS
        28 010632   000000 011000                    NOP     0
        28 010633   011367 710000 28                 TRA     s:37028

     2164    35259
     2165    35260    3              CASE(%OP_POSITIVE);

     2166    35261    3                CALL COMPARE_ARITH_CLASS (%OP_LESS_THAN_OR_EQUAL);

  35261 28 010634   000216 236000 29                 LDQ     142
        28 010635   200033 756100                    STQ     TRANS_TABLE_ETT$+2,,AUTO
        28 010636   005203 701000 28                 TSX1    COMPARE_ARITH_CLASS
        28 010637   000000 011000                    NOP     0
        28 010640   011367 710000 28                 TRA     s:37028

     2167    35262
     2168    35263
     2169    35264    3              CASE(%OP_NUMERIC);

     2170    35265    3                CALL COMPARE_NOT_NUMERIC_CLASS;

  35265 28 010641   007177 701000 28                 TSX1    COMPARE_NOT_NUMERIC_CLASS
        28 010642   000000 011000                    NOP     0
        28 010643   011367 710000 28                 TRA     s:37028

     2171    35266
     2172    35267
     2173    35268    3              CASE(%OP_ALPHABETIC);
PL6.E3A0      #001=Z8EK$OPTIMAL_BRANCHES File=Z8EK.:Z8A6TSI                      SAT 08/09/97 11:56 Page:332

     2174    35269    3                CALL COMPARE_ALPHABETIC (%OP_CLASS_ALPHA,

  35269 28 010644   000220 236000 29                 LDQ     144
        28 010645   200034 756100                    STQ     @GO_CODE+1,,AUTO
        28 010646   000176 236000 29                 LDQ     126
        28 010647   200033 756100                    STQ     TRANS_TABLE_ETT$+2,,AUTO
        28 010650   005254 701000 28                 TSX1    COMPARE_ALPHABETIC
        28 010651   000000 011000                    NOP     0
        28 010652   011367 710000 28                 TRA     s:37028

     2175    35270    3                                         %GO_NOT_CLASS);
     2176    35271
     2177    35272    3              CASE(%OP_ALPHABETIC_LOWER);

     2178    35273    3                CALL COMPARE_ALPHABETIC (%OP_CLASS_ALPHA_LOWER,

  35273 28 010653   000220 236000 29                 LDQ     144
        28 010654   200034 756100                    STQ     @GO_CODE+1,,AUTO
        28 010655   000200 236000 29                 LDQ     128
        28 010656   200033 756100                    STQ     TRANS_TABLE_ETT$+2,,AUTO
        28 010657   005254 701000 28                 TSX1    COMPARE_ALPHABETIC
        28 010660   000000 011000                    NOP     0
        28 010661   011367 710000 28                 TRA     s:37028

     2179    35274    3                                         %GO_NOT_CLASS);
     2180    35275
     2181    35276    3              CASE(%OP_ALPHABETIC_UPPER);

     2182    35277    3                CALL COMPARE_ALPHABETIC (%OP_CLASS_ALPHA_UPPER,

  35277 28 010662   000220 236000 29                 LDQ     144
        28 010663   200034 756100                    STQ     @GO_CODE+1,,AUTO
        28 010664   000202 236000 29                 LDQ     130
        28 010665   200033 756100                    STQ     TRANS_TABLE_ETT$+2,,AUTO
        28 010666   005254 701000 28                 TSX1    COMPARE_ALPHABETIC
        28 010667   000000 011000                    NOP     0
PL6.E3A0      #001=Z8EK$OPTIMAL_BRANCHES File=Z8EK.:Z8A6TSI                      SAT 08/09/97 11:56 Page:333
        28 010670   011367 710000 28                 TRA     s:37028

     2183    35278    3                                         %GO_NOT_CLASS);
     2184    35279
     2185    35280    3              CASE(%OP_SWITCH_IS_ON);

     2186    35281
     2187    35282                     %NEW_ILL (@ID = %LINOI);

  35315 28 010671   000017 236000 29                 LDQ     15
        28 010672   200322 756100                    STQ     COLLATING$+1,,AUTO
        28 010673   200322 631500                    EPPR1   COLLATING$+1,,AUTO
        28 010674   200327 451500                    STP1    COLLATING$+6,,AUTO
        28 010675   000020 236000 29                 LDQ     16
        28 010676   200326 756100                    STQ     COLLATING$+5,,AUTO
        28 010677   000104 237000 29                 LDAQ    68
        28 010700   200324 757100                    STAQ    COLLATING$+3,,AUTO
        28 010701   200324 630500                    EPPR0   COLLATING$+3,,AUTO
        28 010702   000003 631400 29                 EPPR1   3
        28 010703   000000 701000 xent               TSX1    Z8AN$NEW_ILL
        28 010704   000000 011000                    NOP     0

     2188    35661                     %NEW_ILL (@ID = %GO,
     2189    35662                               @CODE = %GO_SWITCH_OFF,
     2190    35663                               @EXPR$ = NODE$ -> UNARY_OP.LOP$ -> LX_ETT_ITEM.ETT$,
     2191    35664                               @LABEL$ = LABEL$);

  35825 28 010705   000017 236000 29                 LDQ     15
        28 010706   200322 756100                    STQ     COLLATING$+1,,AUTO
        28 010707   200322 630500                    EPPR0   COLLATING$+1,,AUTO
        28 010710   200327 450500                    STP0    COLLATING$+6,,AUTO
        28 010711   000020 236000 29                 LDQ     16
        28 010712   200326 756100                    STQ     COLLATING$+5,,AUTO
        28 010713   000116 237000 29                 LDAQ    78
        28 010714   200324 757100                    STAQ    COLLATING$+3,,AUTO
        28 010715   200324 630500                    EPPR0   COLLATING$+3,,AUTO
        28 010716   000003 631400 29                 EPPR1   3
PL6.E3A0      #001=Z8EK$OPTIMAL_BRANCHES File=Z8EK.:Z8A6TSI                      SAT 08/09/97 11:56 Page:334
        28 010717   000000 701000 xent               TSX1    Z8AN$NEW_ILL
        28 010720   000000 011000                    NOP     0

  35826 28 010721   000026 220003                    LDX0    22,DU
        28 010722   000000 470400 7                  LDP0    ILL$
        28 010723   000000 440100                    SXL0    0,,PR0

  35827 28 010724   200003 470500                    LDP0    @LABEL$,,AUTO
        28 010725   000000 236100                    LDQ     0,,PR0
        28 010726   000000 471400 7                  LDP1    ILL$
        28 010727   100001 756100                    STQ     1,,PR1

  35828 28 010730   200004 473500                    LDP3    @NODE$,,AUTO
        28 010731   300000 474500                    LDP4    0,,PR3
        28 010732   400001 475500                    LDP5    1,,PR4
        28 010733   500001 236100                    LDQ     1,,PR5
        28 010734   100002 756100                    STQ     2,,PR1

  36013 28 010735   011367 710000 28                 TRA     s:37028

     2192    36043
     2193    36044    3              CASE(%OP_SWITCH_IS_OFF);

     2194    36045
     2195    36046                     %NEW_ILL (@ID = %LINOI);

  36079 28 010736   000017 236000 29                 LDQ     15
        28 010737   200322 756100                    STQ     COLLATING$+1,,AUTO
        28 010740   200322 631500                    EPPR1   COLLATING$+1,,AUTO
        28 010741   200327 451500                    STP1    COLLATING$+6,,AUTO
        28 010742   000020 236000 29                 LDQ     16
        28 010743   200326 756100                    STQ     COLLATING$+5,,AUTO
        28 010744   000104 237000 29                 LDAQ    68
        28 010745   200324 757100                    STAQ    COLLATING$+3,,AUTO
        28 010746   200324 630500                    EPPR0   COLLATING$+3,,AUTO
        28 010747   000003 631400 29                 EPPR1   3
        28 010750   000000 701000 xent               TSX1    Z8AN$NEW_ILL
PL6.E3A0      #001=Z8EK$OPTIMAL_BRANCHES File=Z8EK.:Z8A6TSI                      SAT 08/09/97 11:56 Page:335
        28 010751   000000 011000                    NOP     0

     2196    36425                     %NEW_ILL (@ID = %GO,
     2197    36426                               @CODE = %GO_SWITCH_ON,
     2198    36427                               @EXPR$ = NODE$ -> UNARY_OP.LOP$ -> LX_ETT_ITEM.ETT$,
     2199    36428                               @LABEL$ = LABEL$);

  36589 28 010752   000017 236000 29                 LDQ     15
        28 010753   200322 756100                    STQ     COLLATING$+1,,AUTO
        28 010754   200322 630500                    EPPR0   COLLATING$+1,,AUTO
        28 010755   200327 450500                    STP0    COLLATING$+6,,AUTO
        28 010756   000020 236000 29                 LDQ     16
        28 010757   200326 756100                    STQ     COLLATING$+5,,AUTO
        28 010760   000116 237000 29                 LDAQ    78
        28 010761   200324 757100                    STAQ    COLLATING$+3,,AUTO
        28 010762   200324 630500                    EPPR0   COLLATING$+3,,AUTO
        28 010763   000003 631400 29                 EPPR1   3
        28 010764   000000 701000 xent               TSX1    Z8AN$NEW_ILL
        28 010765   000000 011000                    NOP     0

  36590 28 010766   000025 220003                    LDX0    21,DU
        28 010767   000000 470400 7                  LDP0    ILL$
        28 010770   000000 440100                    SXL0    0,,PR0

  36591 28 010771   200003 470500                    LDP0    @LABEL$,,AUTO
        28 010772   000000 236100                    LDQ     0,,PR0
        28 010773   000000 471400 7                  LDP1    ILL$
        28 010774   100001 756100                    STQ     1,,PR1

  36592 28 010775   200004 473500                    LDP3    @NODE$,,AUTO
        28 010776   300000 474500                    LDP4    0,,PR3
        28 010777   400001 475500                    LDP5    1,,PR4
        28 011000   500001 236100                    LDQ     1,,PR5
        28 011001   100002 756100                    STQ     2,,PR1

  36777 28 011002   011367 710000 28                 TRA     s:37028

PL6.E3A0      #001=Z8EK$OPTIMAL_BRANCHES File=Z8EK.:Z8A6TSI                      SAT 08/09/97 11:56 Page:336
     2200    36807
     2201    36808    3              CASE(%OP_MEMBER, %OP_OWNER, %OP_TENANT);

     2202    36809
     2203    36810    3                  IF COMCOM.IDS_SUB_SCHEMA = %FALSE   THEN

  36810 28 011003   000477 234000 xsym               SZN     COMCOM+319
        28 011004   011012 604000 28                 TMI     s:36814

     2204    36811    3                    CALL Z8AE$ERROR( %E$NO_VALID_SUB_SCHEMA );

  36811 28 011005   000204 630400 29                 EPPR0   132
        28 011006   000014 631400 29                 EPPR1   12
        28 011007   000000 701000 xent               TSX1    Z8AE$ERROR
        28 011010   000000 011000                    NOP     0
        28 011011   011367 710000 28                 TRA     s:37028

     2205    36812    3                  ELSE
     2206    36813    4                    DO;

     2207    36814    4                      FLAG$ = NODE$;

  36814 28 011012   000000 236100                    LDQ     0,,PR0
        28 011013   200022 756100                    STQ     FLAG$,,AUTO

     2208    36815    4                      CALL Z9EB$DB_COMPARE( NODE$, FLAG$);

  36815 28 011014   200022 631500                    EPPR1   FLAG$,,AUTO
        28 011015   200323 451500                    STP1    COLLATING$+2,,AUTO
        28 011016   200004 236100                    LDQ     @NODE$,,AUTO
        28 011017   200322 756100                    STQ     COLLATING$+1,,AUTO
        28 011020   200322 630500                    EPPR0   COLLATING$+1,,AUTO
        28 011021   000002 631400 29                 EPPR1   2
        28 011022   000000 701000 xent               TSX1    Z9EB$DB_COMPARE
        28 011023   000000 011000                    NOP     0

     2209    36816    4                      IF FLAG$ = ADDR(NIL)    THEN
PL6.E3A0      #001=Z8EK$OPTIMAL_BRANCHES File=Z8EK.:Z8A6TSI                      SAT 08/09/97 11:56 Page:337

  36816 28 011024   200022 236100                    LDQ     FLAG$,,AUTO
        28 011025   000000 116000 29                 CMPQ    0
        28 011026   011030 601000 28                 TNZ     s:36818

     2210    36817    4                           RETURN;

  36817 28 011027   000000 702200 xent               TSX2  ! X66_ARET

     2211    36818    4                      CALL COMPARE_ARITH_CLASS (%OP_EQUAL);

  36818 28 011030   000172 236000 29                 LDQ     122
        28 011031   200033 756100                    STQ     TRANS_TABLE_ETT$+2,,AUTO
        28 011032   005203 701000 28                 TSX1    COMPARE_ARITH_CLASS
        28 011033   000000 011000                    NOP     0

     2212    36819    4                    END;

  36819 28 011034   011367 710000 28                 TRA     s:37028

     2213    36820
     2214    36821    3              CASE( %OP_EMPTY );

     2215    36822
     2216    36823    3                  IF COMCOM.IDS_SUB_SCHEMA = %FALSE    THEN

  36823 28 011035   000477 234000 xsym               SZN     COMCOM+319
        28 011036   011044 604000 28                 TMI     s:36827

     2217    36824    3                    CALL Z8AE$ERROR( %E$NO_VALID_SUB_SCHEMA );

  36824 28 011037   000204 630400 29                 EPPR0   132
        28 011040   000014 631400 29                 EPPR1   12
        28 011041   000000 701000 xent               TSX1    Z8AE$ERROR
        28 011042   000000 011000                    NOP     0
        28 011043   011367 710000 28                 TRA     s:37028

PL6.E3A0      #001=Z8EK$OPTIMAL_BRANCHES File=Z8EK.:Z8A6TSI                      SAT 08/09/97 11:56 Page:338
     2218    36825    3                  ELSE
     2219    36826    4                    DO;

     2220    36827    4                      FLAG$ = NODE$;

  36827 28 011044   000000 236100                    LDQ     0,,PR0
        28 011045   200022 756100                    STQ     FLAG$,,AUTO

     2221    36828    4                      CALL Z9EB$COMPARE_EMPTY( NODE$, FLAG$);

  36828 28 011046   200022 631500                    EPPR1   FLAG$,,AUTO
        28 011047   200323 451500                    STP1    COLLATING$+2,,AUTO
        28 011050   200004 236100                    LDQ     @NODE$,,AUTO
        28 011051   200322 756100                    STQ     COLLATING$+1,,AUTO
        28 011052   200322 630500                    EPPR0   COLLATING$+1,,AUTO
        28 011053   000002 631400 29                 EPPR1   2
        28 011054   000000 701000 xent               TSX1    Z9EB$COMPARE_EMPTY
        28 011055   000000 011000                    NOP     0

     2222    36829    4                      IF FLAG$ = ADDR(NIL)   THEN

  36829 28 011056   200022 236100                    LDQ     FLAG$,,AUTO
        28 011057   000000 116000 29                 CMPQ    0
        28 011060   011062 601000 28                 TNZ     s:36831

     2223    36830    4                          RETURN;

  36830 28 011061   000000 702200 xent               TSX2  ! X66_ARET

     2224    36831    4                      CALL COMPARE_ARITH_CLASS( %OP_EQUAL );

  36831 28 011062   000172 236000 29                 LDQ     122
        28 011063   200033 756100                    STQ     TRANS_TABLE_ETT$+2,,AUTO
        28 011064   005203 701000 28                 TSX1    COMPARE_ARITH_CLASS
        28 011065   000000 011000                    NOP     0

     2225    36832    4                    END;
PL6.E3A0      #001=Z8EK$OPTIMAL_BRANCHES File=Z8EK.:Z8A6TSI                      SAT 08/09/97 11:56 Page:339

  36832 28 011066   011367 710000 28                 TRA     s:37028

     2226    36833
     2227    36834    3              CASE(ELSE);

     2228    36835                     %CONDITIONAL_ERROR (@LX_ITEM$ = NODE$,
     2229    36836                                         @ERROR# = %E$INVALID_COMP_OPERANDS,
     2230    36837                                         @LINE = NODE$ -> LX_ITEM.LINE,
     2231    36838                                         @COLUMN = NODE$ -> LX_ITEM.COLUMN);

  36848 28 011067   100000 236100                    LDQ     0,,PR1
        28 011070   400000 316007                    CANQ    -131072,DL
        28 011071   011367 601000 28                 TNZ     s:37028

  36850 28 011072   100006 633500                    EPPR3   6,,PR1
        28 011073   200324 453500                    STP3    COLLATING$+3,,AUTO
        28 011074   100005 634500                    EPPR4   5,,PR1
        28 011075   200323 454500                    STP4    COLLATING$+2,,AUTO
        28 011076   000066 236000 29                 LDQ     54
        28 011077   200322 756100                    STQ     COLLATING$+1,,AUTO
        28 011100   200322 630500                    EPPR0   COLLATING$+1,,AUTO
        28 011101   000036 631400 29                 EPPR1   30
        28 011102   000000 701000 xent               TSX1    Z8AE$ERROR
        28 011103   000000 011000                    NOP     0

  36859 28 011104   200004 470500                    LDP0    @NODE$,,AUTO
        28 011105   000000 471500                    LDP1    0,,PR0
        28 011106   400000 236007                    LDQ     -131072,DL
        28 011107   100000 256100                    ORSQ    0,,PR1

     2232    36868
     2233    36869    3            END /*V* Case */;

  36869 28 011110   011367 710000 28                 TRA     s:37028

     2234    36870
PL6.E3A0      #001=Z8EK$OPTIMAL_BRANCHES File=Z8EK.:Z8A6TSI                      SAT 08/09/97 11:56 Page:340
     2235    36871        %EJECT;
PL6.E3A0      #001=Z8EK$OPTIMAL_BRANCHES File=Z8EK.:Z8A6TSI                      SAT 08/09/97 11:56 Page:341
     2236    36872    2          CASE(%BINARY_OP);

     2237    36873    3            DO CASE(NODE$ -> BINARY_OP.OP);

  36873 28 011111   100003 235100                    LDA     3,,PR1
        28 011112   000026 135007                    SBLA    22,DL
        28 011113   000015 115007                    CMPA    13,DL
        28 011114   011116 602005 28                 TNC     s:36873+5,AL
        28 011115   011324 710000 28                 TRA     s:36970
        28 011116   011247 710000 28                 TRA     s:36927
        28 011117   011224 710000 28                 TRA     s:36914
        28 011120   011201 710000 28                 TRA     s:36901
        28 011121   011133 710000 28                 TRA     s:36875
        28 011122   011272 710000 28                 TRA     s:36940
        28 011123   011156 710000 28                 TRA     s:36888
        28 011124   011324 710000 28                 TRA     s:36970
        28 011125   011324 710000 28                 TRA     s:36970
        28 011126   011324 710000 28                 TRA     s:36970
        28 011127   011324 710000 28                 TRA     s:36970
        28 011130   011324 710000 28                 TRA     s:36970
        28 011131   011324 710000 28                 TRA     s:36970
        28 011132   011315 710000 28                 TRA     s:36953

     2238    36874    3              CASE(%OP_NOT_EQUAL);

     2239    36875    3                CALL GEN_COMPARISONS(NODE$, EXPRESSION$)

  36875 28 011133   200005 633500                    EPPR3   EXPRESSION$,,AUTO
        28 011134   200034 453500                    STP3    @GO_CODE+1,,AUTO
        28 011135   200004 236100                    LDQ     @NODE$,,AUTO
        28 011136   200033 756100                    STQ     TRANS_TABLE_ETT$+2,,AUTO
        28 011137   001111 701000 28                 TSX1    GEN_COMPARISONS
        28 011140   011146 702000 28                 TSX2    s:36882

     2240    36876    3                  WHENRETURN
     2241    36877    4                    DO;

PL6.E3A0      #001=Z8EK$OPTIMAL_BRANCHES File=Z8EK.:Z8A6TSI                      SAT 08/09/97 11:56 Page:342
     2242    36878    4                      CALL GEN_GO (%GO_EQUAL);

  36878 28 011141   000206 236000 29                 LDQ     134
        28 011142   200033 756100                    STQ     TRANS_TABLE_ETT$+2,,AUTO
        28 011143   005751 701000 28                 TSX1    GEN_GO
        28 011144   000000 011000                    NOP     0

     2243    36879    4                    END;

  36879 28 011145   011155 710000 28                 TRA     s:36885

     2244    36880    3                  WHENALTRETURN
     2245    36881    4                    DO;

     2246    36882    4                      CALL COMPARE_LOOP (EXPRESSION$,

  36882 28 011146   000172 236000 29                 LDQ     122
        28 011147   200003 235100                    LDA     @LABEL$,,AUTO
        28 011150   200034 757100                    STAQ    @GO_CODE+1,,AUTO
        28 011151   200005 630500                    EPPR0   EXPRESSION$,,AUTO
        28 011152   200033 450500                    STP0    TRANS_TABLE_ETT$+2,,AUTO
        28 011153   000003 701000 28                 TSX1    COMPARE_LOOP
        28 011154   000000 011000                    NOP     0

     2247    36883    4                                         LABEL$,
     2248    36884    4                                         %OP_EQUAL);
     2249    36885    4                    END;

  36885 28 011155   011367 710000 28                 TRA     s:37028

     2250    36886
     2251    36887    3              CASE(%OP_GREATER_THAN_OR_EQUAL);

     2252    36888    3                CALL GEN_COMPARISONS(NODE$, EXPRESSION$)

  36888 28 011156   200005 633500                    EPPR3   EXPRESSION$,,AUTO
        28 011157   200034 453500                    STP3    @GO_CODE+1,,AUTO
PL6.E3A0      #001=Z8EK$OPTIMAL_BRANCHES File=Z8EK.:Z8A6TSI                      SAT 08/09/97 11:56 Page:343
        28 011160   200004 236100                    LDQ     @NODE$,,AUTO
        28 011161   200033 756100                    STQ     TRANS_TABLE_ETT$+2,,AUTO
        28 011162   001111 701000 28                 TSX1    GEN_COMPARISONS
        28 011163   011171 702000 28                 TSX2    s:36895

     2253    36889    3                  WHENRETURN
     2254    36890    4                    DO;

     2255    36891    4                      CALL GEN_GO (%GO_LESS_THAN);

  36891 28 011164   000111 236000 29                 LDQ     73
        28 011165   200033 756100                    STQ     TRANS_TABLE_ETT$+2,,AUTO
        28 011166   005751 701000 28                 TSX1    GEN_GO
        28 011167   000000 011000                    NOP     0

     2256    36892    4                    END;

  36892 28 011170   011200 710000 28                 TRA     s:36898

     2257    36893    3                  WHENALTRETURN
     2258    36894    4                    DO;

     2259    36895    4                      CALL COMPARE_LOOP (EXPRESSION$,

  36895 28 011171   000033 236000 29                 LDQ     27
        28 011172   200003 235100                    LDA     @LABEL$,,AUTO
        28 011173   200034 757100                    STAQ    @GO_CODE+1,,AUTO
        28 011174   200005 630500                    EPPR0   EXPRESSION$,,AUTO
        28 011175   200033 450500                    STP0    TRANS_TABLE_ETT$+2,,AUTO
        28 011176   000003 701000 28                 TSX1    COMPARE_LOOP
        28 011177   000000 011000                    NOP     0

     2260    36896    4                                         LABEL$,
     2261    36897    4                                         %OP_LESS_THAN);
     2262    36898    4                    END;

  36898 28 011200   011367 710000 28                 TRA     s:37028
PL6.E3A0      #001=Z8EK$OPTIMAL_BRANCHES File=Z8EK.:Z8A6TSI                      SAT 08/09/97 11:56 Page:344

     2263    36899
     2264    36900    3              CASE(%OP_GREATER_THAN);

     2265    36901    3                CALL GEN_COMPARISONS(NODE$, EXPRESSION$)

  36901 28 011201   200005 633500                    EPPR3   EXPRESSION$,,AUTO
        28 011202   200034 453500                    STP3    @GO_CODE+1,,AUTO
        28 011203   200004 236100                    LDQ     @NODE$,,AUTO
        28 011204   200033 756100                    STQ     TRANS_TABLE_ETT$+2,,AUTO
        28 011205   001111 701000 28                 TSX1    GEN_COMPARISONS
        28 011206   011214 702000 28                 TSX2    s:36908

     2266    36902    3                  WHENRETURN
     2267    36903    4                    DO;

     2268    36904    4                      CALL GEN_GO (%GO_LESS_THAN_OR_EQUAL);

  36904 28 011207   000210 236000 29                 LDQ     136
        28 011210   200033 756100                    STQ     TRANS_TABLE_ETT$+2,,AUTO
        28 011211   005751 701000 28                 TSX1    GEN_GO
        28 011212   000000 011000                    NOP     0

     2269    36905    4                    END;

  36905 28 011213   011223 710000 28                 TRA     s:36911

     2270    36906    3                  WHENALTRETURN
     2271    36907    4                    DO;

     2272    36908    4                      CALL COMPARE_LOOP (EXPRESSION$,

  36908 28 011214   000216 236000 29                 LDQ     142
        28 011215   200003 235100                    LDA     @LABEL$,,AUTO
        28 011216   200034 757100                    STAQ    @GO_CODE+1,,AUTO
        28 011217   200005 630500                    EPPR0   EXPRESSION$,,AUTO
        28 011220   200033 450500                    STP0    TRANS_TABLE_ETT$+2,,AUTO
PL6.E3A0      #001=Z8EK$OPTIMAL_BRANCHES File=Z8EK.:Z8A6TSI                      SAT 08/09/97 11:56 Page:345
        28 011221   000003 701000 28                 TSX1    COMPARE_LOOP
        28 011222   000000 011000                    NOP     0

     2273    36909    4                                         LABEL$,
     2274    36910    4                                         %OP_LESS_THAN_OR_EQUAL);
     2275    36911    4                    END;

  36911 28 011223   011367 710000 28                 TRA     s:37028

     2276    36912
     2277    36913    3              CASE(%OP_EQUAL);

     2278    36914    3                CALL GEN_COMPARISONS(NODE$, EXPRESSION$)

  36914 28 011224   200005 633500                    EPPR3   EXPRESSION$,,AUTO
        28 011225   200034 453500                    STP3    @GO_CODE+1,,AUTO
        28 011226   200004 236100                    LDQ     @NODE$,,AUTO
        28 011227   200033 756100                    STQ     TRANS_TABLE_ETT$+2,,AUTO
        28 011230   001111 701000 28                 TSX1    GEN_COMPARISONS
        28 011231   011237 702000 28                 TSX2    s:36921

     2279    36915    3                  WHENRETURN
     2280    36916    4                    DO;

     2281    36917    4                      CALL GEN_GO (%GO_NOT_EQUAL);

  36917 28 011232   000212 236000 29                 LDQ     138
        28 011233   200033 756100                    STQ     TRANS_TABLE_ETT$+2,,AUTO
        28 011234   005751 701000 28                 TSX1    GEN_GO
        28 011235   000000 011000                    NOP     0

     2282    36918    4                    END;

  36918 28 011236   011246 710000 28                 TRA     s:36924

     2283    36919    3                  WHENALTRETURN
     2284    36920    4                    DO;
PL6.E3A0      #001=Z8EK$OPTIMAL_BRANCHES File=Z8EK.:Z8A6TSI                      SAT 08/09/97 11:56 Page:346

     2285    36921    4                      CALL COMPARE_LOOP (EXPRESSION$,

  36921 28 011237   000031 236000 29                 LDQ     25
        28 011240   200003 235100                    LDA     @LABEL$,,AUTO
        28 011241   200034 757100                    STAQ    @GO_CODE+1,,AUTO
        28 011242   200005 630500                    EPPR0   EXPRESSION$,,AUTO
        28 011243   200033 450500                    STP0    TRANS_TABLE_ETT$+2,,AUTO
        28 011244   000003 701000 28                 TSX1    COMPARE_LOOP
        28 011245   000000 011000                    NOP     0

     2286    36922    4                                         LABEL$,
     2287    36923    4                                         %OP_NOT_EQUAL);
     2288    36924    4                    END;

  36924 28 011246   011367 710000 28                 TRA     s:37028

     2289    36925
     2290    36926    3              CASE(%OP_LESS_THAN);

     2291    36927    3                CALL GEN_COMPARISONS(NODE$, EXPRESSION$)

  36927 28 011247   200005 633500                    EPPR3   EXPRESSION$,,AUTO
        28 011250   200034 453500                    STP3    @GO_CODE+1,,AUTO
        28 011251   200004 236100                    LDQ     @NODE$,,AUTO
        28 011252   200033 756100                    STQ     TRANS_TABLE_ETT$+2,,AUTO
        28 011253   001111 701000 28                 TSX1    GEN_COMPARISONS
        28 011254   011262 702000 28                 TSX2    s:36934

     2292    36928    3                  WHENRETURN
     2293    36929    4                    DO;

     2294    36930    4                      CALL GEN_GO (%GO_GREATER_THAN_OR_EQUAL);

  36930 28 011255   000101 236000 29                 LDQ     65
        28 011256   200033 756100                    STQ     TRANS_TABLE_ETT$+2,,AUTO
        28 011257   005751 701000 28                 TSX1    GEN_GO
PL6.E3A0      #001=Z8EK$OPTIMAL_BRANCHES File=Z8EK.:Z8A6TSI                      SAT 08/09/97 11:56 Page:347
        28 011260   000000 011000                    NOP     0

     2295    36931    4                    END;

  36931 28 011261   011271 710000 28                 TRA     s:36937

     2296    36932    3                  WHENALTRETURN
     2297    36933    4                    DO;

     2298    36934    4                      CALL COMPARE_LOOP (EXPRESSION$,

  36934 28 011262   000214 236000 29                 LDQ     140
        28 011263   200003 235100                    LDA     @LABEL$,,AUTO
        28 011264   200034 757100                    STAQ    @GO_CODE+1,,AUTO
        28 011265   200005 630500                    EPPR0   EXPRESSION$,,AUTO
        28 011266   200033 450500                    STP0    TRANS_TABLE_ETT$+2,,AUTO
        28 011267   000003 701000 28                 TSX1    COMPARE_LOOP
        28 011270   000000 011000                    NOP     0

     2299    36935    4                                         LABEL$,
     2300    36936    4                                         %OP_GREATER_THAN_OR_EQUAL);
     2301    36937    4                    END;

  36937 28 011271   011367 710000 28                 TRA     s:37028

     2302    36938
     2303    36939    3              CASE(%OP_LESS_THAN_OR_EQUAL);

     2304    36940    3                CALL GEN_COMPARISONS(NODE$, EXPRESSION$)

  36940 28 011272   200005 633500                    EPPR3   EXPRESSION$,,AUTO
        28 011273   200034 453500                    STP3    @GO_CODE+1,,AUTO
        28 011274   200004 236100                    LDQ     @NODE$,,AUTO
        28 011275   200033 756100                    STQ     TRANS_TABLE_ETT$+2,,AUTO
        28 011276   001111 701000 28                 TSX1    GEN_COMPARISONS
        28 011277   011305 702000 28                 TSX2    s:36947

PL6.E3A0      #001=Z8EK$OPTIMAL_BRANCHES File=Z8EK.:Z8A6TSI                      SAT 08/09/97 11:56 Page:348
     2305    36941    3                  WHENRETURN
     2306    36942    4                    DO;

     2307    36943    4                      CALL GEN_GO (%GO_GREATER_THAN);

  36943 28 011300   000022 236000 29                 LDQ     18
        28 011301   200033 756100                    STQ     TRANS_TABLE_ETT$+2,,AUTO
        28 011302   005751 701000 28                 TSX1    GEN_GO
        28 011303   000000 011000                    NOP     0

     2308    36944    4                    END;

  36944 28 011304   011314 710000 28                 TRA     s:36950

     2309    36945    3                  WHENALTRETURN
     2310    36946    4                    DO;

     2311    36947    4                      CALL COMPARE_LOOP (EXPRESSION$,

  36947 28 011305   000035 236000 29                 LDQ     29
        28 011306   200003 235100                    LDA     @LABEL$,,AUTO
        28 011307   200034 757100                    STAQ    @GO_CODE+1,,AUTO
        28 011310   200005 630500                    EPPR0   EXPRESSION$,,AUTO
        28 011311   200033 450500                    STP0    TRANS_TABLE_ETT$+2,,AUTO
        28 011312   000003 701000 28                 TSX1    COMPARE_LOOP
        28 011313   000000 011000                    NOP     0

     2312    36948    4                                         LABEL$,
     2313    36949    4                                         %OP_GREATER_THAN);
     2314    36950    4                    END;

  36950 28 011314   011367 710000 28                 TRA     s:37028

     2315    36951
     2316    36952    3              CASE (%OP_USER_CLASS);

     2317    36953    3                CALL COMPARE_USER_CLASS (NODE$ -> BINARY_OP.ROP$,
PL6.E3A0      #001=Z8EK$OPTIMAL_BRANCHES File=Z8EK.:Z8A6TSI                      SAT 08/09/97 11:56 Page:349

  36953 28 011315   000220 236000 29                 LDQ     144
        28 011316   200034 756100                    STQ     @GO_CODE+1,,AUTO
        28 011317   100002 633500                    EPPR3   2,,PR1
        28 011320   200033 453500                    STP3    TRANS_TABLE_ETT$+2,,AUTO
        28 011321   005521 701000 28                 TSX1    COMPARE_USER_CLASS
        28 011322   000000 011000                    NOP     0
        28 011323   011367 710000 28                 TRA     s:37028

     2318    36954    3                                         %GO_NOT_CLASS);
     2319    36955
     2320    36956    3              CASE(ELSE);

     2321    36957                     %CONDITIONAL_ERROR (@LX_ITEM$ = NODE$,
     2322    36958                                         @ERROR# = %E$INVALID_COMP_OPERANDS,
     2323    36959                                         @LINE = NODE$ -> LX_ITEM.LINE,
     2324    36960                                         @COLUMN = NODE$ -> LX_ITEM.COLUMN);

  36970 28 011324   100000 236100                    LDQ     0,,PR1
        28 011325   400000 316007                    CANQ    -131072,DL
        28 011326   011367 601000 28                 TNZ     s:37028

  36972 28 011327   100006 633500                    EPPR3   6,,PR1
        28 011330   200324 453500                    STP3    COLLATING$+3,,AUTO
        28 011331   100005 634500                    EPPR4   5,,PR1
        28 011332   200323 454500                    STP4    COLLATING$+2,,AUTO
        28 011333   000066 236000 29                 LDQ     54
        28 011334   200322 756100                    STQ     COLLATING$+1,,AUTO
        28 011335   200322 630500                    EPPR0   COLLATING$+1,,AUTO
        28 011336   000036 631400 29                 EPPR1   30
        28 011337   000000 701000 xent               TSX1    Z8AE$ERROR
        28 011340   000000 011000                    NOP     0

  36981 28 011341   200004 470500                    LDP0    @NODE$,,AUTO
        28 011342   000000 471500                    LDP1    0,,PR0
        28 011343   400000 236007                    LDQ     -131072,DL
        28 011344   100000 256100                    ORSQ    0,,PR1
PL6.E3A0      #001=Z8EK$OPTIMAL_BRANCHES File=Z8EK.:Z8A6TSI                      SAT 08/09/97 11:56 Page:350

     2325    36990    3            END /*V* Case */;

  36990 28 011345   011367 710000 28                 TRA     s:37028

     2326    36991
     2327    36992    2          CASE(ELSE);

     2328    36993                 %CONDITIONAL_ERROR (@LX_ITEM$ = NODE$,
     2329    36994                                     @ERROR#   = %E$INVALID_COMP_OPERANDS,
     2330    36995                                     @LINE     = NODE$ -> LX_ITEM.LINE,
     2331    36996                                     @COLUMN   = NODE$ -> LX_ITEM.COLUMN);

  37006 28 011346   100000 236100                    LDQ     0,,PR1
        28 011347   400000 316007                    CANQ    -131072,DL
        28 011350   011367 601000 28                 TNZ     s:37028

  37008 28 011351   100006 633500                    EPPR3   6,,PR1
        28 011352   200324 453500                    STP3    COLLATING$+3,,AUTO
        28 011353   100005 634500                    EPPR4   5,,PR1
        28 011354   200323 454500                    STP4    COLLATING$+2,,AUTO
        28 011355   000066 236000 29                 LDQ     54
        28 011356   200322 756100                    STQ     COLLATING$+1,,AUTO
        28 011357   200322 630500                    EPPR0   COLLATING$+1,,AUTO
        28 011360   000036 631400 29                 EPPR1   30
        28 011361   000000 701000 xent               TSX1    Z8AE$ERROR
        28 011362   000000 011000                    NOP     0

  37017 28 011363   200004 470500                    LDP0    @NODE$,,AUTO
        28 011364   000000 471500                    LDP1    0,,PR0
        28 011365   400000 236007                    LDQ     -131072,DL
        28 011366   100000 256100                    ORSQ    0,,PR1

     2332    37026    2        END /*V* Case */;

     2333    37027
     2334    37028    1        RETURN;
PL6.E3A0      #001=Z8EK$OPTIMAL_BRANCHES File=Z8EK.:Z8A6TSI                      SAT 08/09/97 11:56 Page:351

  37028 28 011367   000000 702200 xent               TSX2  ! X66_ARET
     2335    37029
     2336    37030    1   END Z8EK$OPTIMAL_BRANCHES;
     2337    37031        %EOD;

PL6.E3A0      #001=Z8EK$OPTIMAL_BRANCHES File=Z8EK.:Z8A6TSI                      SAT 08/09/97 11:56 Page:352
--  Include file information  --

   Z8A_DNT.:Z8A6TOU  cannot be made into a system file and is referenced.
   Z8E_DML.:Z8A6TOU  is referenced.
   Z8A_LIBRARY.:Z8A6TOU  cannot be made into a system file and is referenced.
   Z8A_LTS.:Z8A6TOU  cannot be made into a system file and is referenced.
   Z8E_ILS_LIST.:Z8A6TOU  is referenced.
   Z8A_ERR_NUMS.:Z8A6TOU  is referenced.
   Z8A_ST.:Z8A6TOU  cannot be made into a system file and is referenced.
   Z8A_TYPES.:Z8A6TOU  is referenced.
   Z8E_O1COM.:Z8A6TOU  cannot be made into a system file and is referenced.
   Z8A_ILS.:Z8A6TOU  cannot be made into a system file and is referenced.
   Z8A_ETT.:Z8A6TOU  cannot be made into a system file and is referenced.
   Z8A_QLT.:Z8A6TOU  cannot be made into a system file and is referenced.
   Z8A_ILL.:Z8A6TOU  cannot be made into a system file and is referenced.
   Z8E_TRANSLAT.:Z8A6TOU  cannot be made into a system file and is referenced.
   Z8E_HEAP.:Z8A6TOU  cannot be made into a system file and is referenced.
   Z8E_ABSSYN.:Z8A6TOU  cannot be made into a system file and is referenced.
   Z8E_WINDOW.:Z8A6TOU  is referenced.
   Z8E_NEW_ILL.:Z8A6TOU  is referenced.
   Z8E_MACROS.:Z8A6TOU  cannot be made into a system file and is referenced.
   Z8A_LEX_SYMB.:Z8A6TOU  cannot be made into a system file and is referenced.
   Z8E_STACKS.:Z8A6TOU  cannot be made into a system file and is referenced.
   Z8A_COMCOM.:Z8A6TOU  cannot be made into a system file and is referenced.
   X8A_COM_MACS.:X8A6TOU  is referenced.
   Z8A_NAMES.:Z8A6TOU  is referenced.
   Z8A_SUPP_MAC.:Z8A6TOU  is referenced.
   Z8A_DEFC.:Z8A6TOU  cannot be made into a system file and is referenced.
      No diagnostics issued in procedure Z8EK$OPTIMAL_BRANCHES.
PL6.E3A0      #001=Z8EK$OPTIMAL_BRANCHES File=Z8EK.:Z8A6TSI                      SAT 08/09/97 11:56 Page:353

 **** Variables and constants ****

  ****  Section 000 LblCom ITERATION

  ****  Scalars and arrays  ****
OctLoc.c.b A Datatyp(siz) R M Lvl/name                 OctLoc.c.b A Datatyp(siz) R M Lvl/name

     0-0-0/w SBIN              1 ITERATION

  ****  Section 001 LblCom LEX_SYMBOL

  ****  Scalars and arrays  ****
OctLoc.c.b A Datatyp(siz) R M Lvl/name                 OctLoc.c.b A Datatyp(siz) R M Lvl/name

     0-0-0/w STRC(3240)  r     1 LEX_SYMBOL                 0-0-0/w STRC(3240)        1 LEX_SYMBOL_WORDS

  ****  Section 002 LblCom CURRENT_LEX_SYMBOL$

  ****  Scalars and arrays  ****
OctLoc.c.b A Datatyp(siz) R M Lvl/name                 OctLoc.c.b A Datatyp(siz) R M Lvl/name

     0-0-0/w PTR         r     1 CURRENT_LEX_SYMBOL$

  ****  Section 003 LblCom TEMP_LEX_SYMBOL

  ****  Scalars and arrays  ****
OctLoc.c.b A Datatyp(siz) R M Lvl/name                 OctLoc.c.b A Datatyp(siz) R M Lvl/name

     0-0-0/w STRC(3240)        1 TEMP_LEX_SYMBOL

  ****  Section 004 LblCom TEMP_LEX_SYMBOL2

  ****  Scalars and arrays  ****
OctLoc.c.b A Datatyp(siz) R M Lvl/name                 OctLoc.c.b A Datatyp(siz) R M Lvl/name

     0-0-0/w STRC(3240)        1 TEMP_LEX_SYMBOL2

PL6.E3A0      #001=Z8EK$OPTIMAL_BRANCHES File=Z8EK.:Z8A6TSI                      SAT 08/09/97 11:56 Page:354
  ****  Section 005 LblCom TEMP_LX_NODE

  ****  Scalars and arrays  ****
OctLoc.c.b A Datatyp(siz) R M Lvl/name                 OctLoc.c.b A Datatyp(siz) R M Lvl/name

     0-0-0/d STRC(288)         1 TEMP_LX_NODE

  ****  Section 006 LblCom HEAP$

  ****  Scalars and arrays  ****
OctLoc.c.b A Datatyp(siz) R M Lvl/name                 OctLoc.c.b A Datatyp(siz) R M Lvl/name

     0-0-0/w PTR               1 HEAP$

  ****  Section 007 LblCom ILL$

  ****  Scalars and arrays  ****
OctLoc.c.b A Datatyp(siz) R M Lvl/name                 OctLoc.c.b A Datatyp(siz) R M Lvl/name

     0-0-0/w PTR         r     1 ILL$

  ****  Section 008 LblCom ILL_

  ****  Scalars and arrays  ****
OctLoc.c.b A Datatyp(siz) R M Lvl/name                 OctLoc.c.b A Datatyp(siz) R M Lvl/name

     0-0-0/w STRC(180)         1 ILL_

  ****  Section 009 LblCom QLT$

  ****  Scalars and arrays  ****
OctLoc.c.b A Datatyp(siz) R M Lvl/name                 OctLoc.c.b A Datatyp(siz) R M Lvl/name

     0-0-0/w PTR         r     1 QLT$

  ****  Section 010 LblCom PREV_01_QLT$

PL6.E3A0      #001=Z8EK$OPTIMAL_BRANCHES File=Z8EK.:Z8A6TSI                      SAT 08/09/97 11:56 Page:355
  ****  Scalars and arrays  ****
OctLoc.c.b A Datatyp(siz) R M Lvl/name                 OctLoc.c.b A Datatyp(siz) R M Lvl/name

     0-0-0/w PTR               1 PREV_01_QLT$

  ****  Section 011 LblCom QLT_

  ****  Scalars and arrays  ****
OctLoc.c.b A Datatyp(siz) R M Lvl/name                 OctLoc.c.b A Datatyp(siz) R M Lvl/name

     0-0-0/w STRC(180)         1 QLT_

  ****  Section 012 LblCom ETT$

  ****  Scalars and arrays  ****
OctLoc.c.b A Datatyp(siz) R M Lvl/name                 OctLoc.c.b A Datatyp(siz) R M Lvl/name

     0-0-0/w PTR         r     1 ETT$

  ****  Section 013 LblCom HEAD_ETT$

  ****  Scalars and arrays  ****
OctLoc.c.b A Datatyp(siz) R M Lvl/name                 OctLoc.c.b A Datatyp(siz) R M Lvl/name

     0-0-0/w PTR               1 HEAD_ETT$

  ****  Section 014 LblCom ETT_BUCKETS

  ****  Scalars and arrays  ****
OctLoc.c.b A Datatyp(siz) R M Lvl/name                 OctLoc.c.b A Datatyp(siz) R M Lvl/name

     0-0-0/w PTR               1 ETT_BUCKETS(0:511)

  ****  Section 015 LblCom ETT_

  ****  Scalars and arrays  ****
OctLoc.c.b A Datatyp(siz) R M Lvl/name                 OctLoc.c.b A Datatyp(siz) R M Lvl/name
PL6.E3A0      #001=Z8EK$OPTIMAL_BRANCHES File=Z8EK.:Z8A6TSI                      SAT 08/09/97 11:56 Page:356

     0-0-0/w STRC(180)         1 ETT_

  ****  Section 016 LblCom ILS$

  ****  Scalars and arrays  ****
OctLoc.c.b A Datatyp(siz) R M Lvl/name                 OctLoc.c.b A Datatyp(siz) R M Lvl/name

     0-0-0/w PTR         r     1 ILS$

  ****  Section 017 LblCom ILS_

  ****  Scalars and arrays  ****
OctLoc.c.b A Datatyp(siz) R M Lvl/name                 OctLoc.c.b A Datatyp(siz) R M Lvl/name

     0-0-0/w STRC(180)         1 ILS_

  ****  Section 018 LblCom ST$

  ****  Scalars and arrays  ****
OctLoc.c.b A Datatyp(siz) R M Lvl/name                 OctLoc.c.b A Datatyp(siz) R M Lvl/name

     0-0-0/w PTR         r     1 ST$

  ****  Section 019 LblCom ST_

  ****  Scalars and arrays  ****
OctLoc.c.b A Datatyp(siz) R M Lvl/name                 OctLoc.c.b A Datatyp(siz) R M Lvl/name

     0-0-0/w STRC(180)         1 ST_

  ****  Section 020 LblCom LTS$

  ****  Scalars and arrays  ****
OctLoc.c.b A Datatyp(siz) R M Lvl/name                 OctLoc.c.b A Datatyp(siz) R M Lvl/name

     0-0-0/w PTR               1 LONG_ITEM$                 0-0-0/w PTR         r     1 LTS$
PL6.E3A0      #001=Z8EK$OPTIMAL_BRANCHES File=Z8EK.:Z8A6TSI                      SAT 08/09/97 11:56 Page:357

  ****  Section 021 LblCom LTS_

  ****  Scalars and arrays  ****
OctLoc.c.b A Datatyp(siz) R M Lvl/name                 OctLoc.c.b A Datatyp(siz) R M Lvl/name

     0-0-0/w STRC(180)         1 LTS_

  ****  Section 022 LblCom DNT$

  ****  Scalars and arrays  ****
OctLoc.c.b A Datatyp(siz) R M Lvl/name                 OctLoc.c.b A Datatyp(siz) R M Lvl/name

     0-0-0/w PTR         r     1 DNT$

  ****  Section 023 LblCom DNT_

  ****  Scalars and arrays  ****
OctLoc.c.b A Datatyp(siz) R M Lvl/name                 OctLoc.c.b A Datatyp(siz) R M Lvl/name

     0-0-0/w STRC(180)         1 DNT_

  ****  Section 024 LblCom DNT_BUCKET_NUMBER

  ****  Scalars and arrays  ****
OctLoc.c.b A Datatyp(siz) R M Lvl/name                 OctLoc.c.b A Datatyp(siz) R M Lvl/name

     0-0-0/w UBIN              1 DNT_BUCKET_NUMBER

  ****  Section 025 LblCom DNT_OF_1$

  ****  Scalars and arrays  ****
OctLoc.c.b A Datatyp(siz) R M Lvl/name                 OctLoc.c.b A Datatyp(siz) R M Lvl/name

     0-0-0/w PTR               1 DNT_OF_1$

  ****  Section 026  Data  Z8EK$OPTIMAL_BRANCHES
PL6.E3A0      #001=Z8EK$OPTIMAL_BRANCHES File=Z8EK.:Z8A6TSI                      SAT 08/09/97 11:56 Page:358

  ****  Scalars and arrays  ****
OctLoc.c.b A Datatyp(siz) R M Lvl/name                 OctLoc.c.b A Datatyp(siz) R M Lvl/name

    20-0-0/d STRC(288)   r     1 LENGTH                    30-0-0/d STRC(288)   r     1 LENGTH_MINUS_1
    70-0-0/d STRC(288)   r     1 MINUS                     60-0-0/d STRC(288)   r     1 NUM_COMPARISONS
    50-0-0/w STRC(288)   r     1 ONE                      100-0-0/d STRC(288)   r     1 PLUS
     0-0-0/d STRC(288)   r     1 TEMP_EXPRESSION           10-0-0/d STRC(288)   r     1 TWO
    40-0-0/w STRC(288)   r     1 ZERO

  ****  Section 027 RoData Z8EK$OPTIMAL_BRANCHES

  ****  Scalars and arrays  ****
OctLoc.c.b A Datatyp(siz) R M Lvl/name                 OctLoc.c.b A Datatyp(siz) R M Lvl/name

     4-0-0/w STRC(3438)  r     1 COMPARISON_MATRIX          0-0-0/c CHAR(16)    r     1 DIGIT_TABLE
     0-0-0/b STRC(144)   r     1 DIGIT_VALUES

  ****  Auto variables  ****

  ****  Scalars and arrays  ****
OctLoc.c.b A Datatyp(siz) R M Lvl/name                 OctLoc.c.b A Datatyp(siz) R M Lvl/name

    33-0-0/w PTR         r     1 @ALPHABETIC_TYPE          35-0-0/w PTR         r     1 @COND_OP
    34-0-0/w PTR         r     1 @GO_CODE                  34-0-0/w PTR         r     1 @GO_CODE
    33-0-0/w PTR         r     1 @GO_CODE                   3-0-0/w PTR         r     1 @LABEL$
    34-0-0/w PTR         r     1 @LABEL$                   44-0-0/w PTR         r     1 @LABEL$
    35-0-0/w PTR         r     1 @LABEL$                   35-0-0/w PTR         r     1 @LABEL$
    33-0-0/w PTR         r     1 @LIST$                   317-0-0/w PTR         r     1 @LOP$
   101-0-0/w PTR         r     1 @LOP$                    102-0-0/w PTR         r     1 @NEW$
     4-0-0/w PTR         r     1 @NODE$                    33-0-0/w PTR         r     1 @NODE$
   101-0-0/w PTR         r     1 @NODE$                    43-0-0/w PTR         r     1 @OP
    41-0-0/w PTR         r     1 @OP                       33-0-0/w PTR         r     1 @OP
   101-0-0/w PTR         r     1 @ORIG$                    34-0-0/w PTR         r     1 @RETURN$
   102-0-0/w PTR         r     1 @RETURN$                 320-0-0/w PTR         r     1 @ROP$
   102-0-0/w PTR         r     1 @ROP$                    103-0-0/w PTR         r     1 @TYPE_CFILL
    33-0-0/w PTR         r     1 @USER_CLASS$             311-0-0/w PTR         r     1 ADDR_LIT$
PL6.E3A0      #001=Z8EK$OPTIMAL_BRANCHES File=Z8EK.:Z8A6TSI                      SAT 08/09/97 11:56 Page:359
    *0-0-0/w SBIN        r     1 ALPHABETIC_TYPE          304-0-0/w PTR         r     1 BUF_LEN_ETT$
    56-0-0/c STRC        r     1 CFILL_ROP                 35-0-0/w PTR         r     1 CLASS_ST$
    36-0-0/w PTR         r     1 CLASS_TABLE_ETT$         321-0-0/w PTR         r     1 COLLATING$
   314-0-0/w PTR         r     1 COLLATING$               132-0-0/d STRC(288)   r     1 COMPARE
    21-0-0/w PTR         r     1 COMPARE$                  *0-0-0/w SBIN        r     1 COND_OP
   104-0-0/c CHAR(512)   r     1 CONST_BUF                 55-0-0/w SBIN        r     1 CONTEXT
    35-0-0/b BIT         r     1 DB_FLAG_LOP               36-0-0/b BIT         r     1 DB_FLAG_ROP
    37-0-0/b BIT         r     1 DB_REG_LOP                40-0-0/b BIT         r     1 DB_REG_ROP
    52-0-0/c CHAR        r     1 DEC_PT                   312-0-0/w UBIN        r     1 DIFF_LEN
    36-0-0/w PTR         r     1 END_LABEL$                47-0-0/w PTR         r     1 END_LABEL$
    17-0-0/w PTR         r     1 ETT$$                     42-0-0/w PTR         r     1 ETT$$
     5-0-0/w PTR         r     1 EXPRESSION$               22-0-0/w PTR         r     1 FLAG$
    35-0-0/w SBIN        r     1 GO_CODE                   35-0-0/w SBIN        r     1 GO_CODE
    *0-0-0/w SBIN        r     1 GO_CODE                   *0-0-0/w SBIN        r     1 GO_CODE
    *0-0-0/w SBIN        r     1 GO_CODE                  313-0-0/w SBIN        r     1 I
    41-0-0/w SBIN        r     1 ID                        *0-0-0/w PTR         r     1 LABEL$
    *0-0-0/w PTR         r     1 LABEL$                    *0-0-0/w PTR         r     1 LABEL$
    *0-0-0/w PTR         r     1 LABEL$                    *0-0-0/w PTR         r     1 LABEL$
   310-0-0/w SBIN        r     1 LEN_LIT                  307-0-0/w SBIN        r     1 LEN_STR
    *0-0-0/w PTR         r     1 LIST$                     46-0-0/w PTR         r     1 LIT$
    62-0-0/d STRC(288)   r     1 LIT_LEN                   72-0-0/d STRC(288)   r     1 LOOP_COUNTER
    43-0-0/w PTR         r     1 LOP$                      *0-0-0/w PTR         r     1 LOP$
    *0-0-0/w PTR         r     1 LOP$                      45-0-0/b BIT         r     1 LOP_IS_POINTER
    47-0-0/b BIT         r     1 LOP_IS_TYI                 6-0-0/w STRC(324)         1 NAME
    *0-0-0/w PTR         r     1 NEW$                      *0-0-0/w PTR         r     1 NODE$
    *0-0-0/w PTR         r     1 NODE$                     *0-0-0/w PTR         r     1 NODE$
   305-0-0/w SBIN        r     1 NUM_COMPARISONS           *0-0-0/w SBIN        r     1 OP
    *0-0-0/w SBIN        r     1 OP                        *0-0-0/w SBIN        r     1 OP
    *0-0-0/w PTR         r     1 ORIG$                    306-0-0/w SBIN        r     1 REMAINING_CHARS
   102-0-0/d STRC(288)   r     1 REM_CHARS                 *0-0-0/w PTR         r     1 RETURN$
    *0-0-0/w PTR         r     1 RETURN$                   44-0-0/w PTR         r     1 ROP$
    *0-0-0/w PTR         r     1 ROP$                      *0-0-0/w PTR         r     1 ROP$
    46-0-0/b BIT         r     1 ROP_IS_POINTER            50-0-0/b BIT         r     1 ROP_IS_TYI
   142-0-0/d STRC(288)   r     1 SAVED_ILS_LIST            53-0-0/w PTR         r     1 ST$$
   103-0-0/w PTR         r     1 ST$$                      45-0-0/w PTR         r     1 STR$
    52-0-0/d STRC(288)   r     1 STR_LEN                  112-0-0/d STRC(288)   r     1 SUBSTRING
   122-0-0/d STRC(288)   r     1 SUBSTRING2                54-0-0/w PTR         r     1 TEMP$
PL6.E3A0      #001=Z8EK$OPTIMAL_BRANCHES File=Z8EK.:Z8A6TSI                      SAT 08/09/97 11:56 Page:360
    30-0-0/w PTR         r     1 TEMP_LAB$                 50-0-0/w PTR         r     1 TEMP_LABEL$
    60-0-0/d STRC(288)   r     1 TEMP_LOP_ITEM             70-0-0/d STRC(288)   r     1 TEMP_ROP_ITEM
    51-0-0/w SBIN        r     1 TEMP_SBIN                 20-0-0/w PTR         r     1 TEMP_ST$
    31-0-0/w PTR         r     1 TRANS_TABLE_ETT$          *0-0-0/w SBIN        r     1 TYPE_CFILL
    23-0-0/w STRC(144)   r     1 TYPE_DESC                 *0-0-0/w PTR         r     1 USER_CLASS$
    27-0-0/w PTR         r     1 VAR_ST$

  ****  SYMREF variables  ****

  ****  Scalars and arrays  ****
OctLoc.c.b A Datatyp(siz) R M Lvl/name                 OctLoc.c.b A Datatyp(siz) R M Lvl/name

     0-0-0/d STRC(13248) r     1 COMCOM                     0-0-0/c STRC(9)           1 EBCDIC(0:511)
     0-0-0/c STRC(9)           1 GBCD(0:511)                0-0-0/c STRC(9)           1 HBCD(0:511)
     0-0-0/w STRC(180)         1 HIER_STK(0:50)
     0-0-0/w SBIN              1 HIER_STK_PTR               0-0-0/w UBIN              1 ILL_STEP(0:144)
     0-0-0/w UBIN              1 ILS_STEP_TABLE(0:2)
     0-0-0/w UBIN              1 LTS_STEP(0:37)
     0-0-0/d STRC(11580) r     1 O1COM                      0-0-0/w STRC(144)         1 PAGE_FORMAT
     0-0-0/w STRC(153)         1 REP_STK(0:50)              0-0-0/w SBIN              1 REP_STK_PTR

  ****  BASED and DCB variables  ****

  ****  Scalars and arrays  ****
OctLoc.c.b A Datatyp(siz) R M Lvl/name                 OctLoc.c.b A Datatyp(siz) R M Lvl/name

     0-0-0/w STRC(108)         1 ACCEPT_DISPLAY             0-0-0/w STRC(288)         1 ADD_STMT
     0-0-0/w STRC(396)   r     1 ALPHABET                   0-0-0/w STRC(144)         1 ALTER_LTS
     0-0-0/w STRC(3672)        1 ALT_KEY                    0-0-0/w STRC(36864)       1 ARGLIST
     0-0-0/w STRC(396)         1 ARRAY                      0-0-0/w STRC(180)         1 ARRAY_PRESET_LTS
     0-0-0/w ASTR(324)   r     1 BASED_LEX_SYMBOL
     0-0-0/w STRC(360)         1 BASED_LEX_SYMBOL_WORDS
     0-0-0/c ACHR        r     1 BASED_LIT                  0-0-0/w STRC(288)         1 BASE_LTS
     0-0-0/w STRC(108)         1 BINARY_ILL                 0-0-0/w STRC(288)   r     1 BINARY_OP
     0-0-0/w STRC(396)         1 BLOCK                      0-0-0/w STRC(144)         1 BRANCH_ILL
     0-0-0/w STRC(144)         1 BT                         0-0-0/w STRC(288)         1 CALL_STMT
     0-0-0/w STRC(216)         1 CCOSU                      0-0-0/w STRC(396)         1 CD
PL6.E3A0      #001=Z8EK$OPTIMAL_BRANCHES File=Z8EK.:Z8A6TSI                      SAT 08/09/97 11:56 Page:361
     0-0-0/w STRC(288)         1 CD_LTS                     0-0-0/w CHAR(4096)        1 CHARS
     0-0-0/w STRC(396)   r     1 CLASS                      0-0-0/w STRC(108)         1 CODED_MOVE
     0-0-0/w STRC(288)         1 COMPUTE_STMT               0-0-0/w STRC(396)         1 CONDITION
     0-0-0/w STRC(396)   r     1 CONST                      0-0-0/w STRC(72)          1 CONT
     0-0-0/w STRC(540)         1 CONTROL_NAME_LTS           0-0-0/w STRC(1872)        1 COPY_FILE
     0-0-0/w STRC(396)         1 DB                         0-0-0/w STRC(396)         1 DCB_
     0-0-0/w STRC(288)         1 DEFERED_IDENTIFIER         0-0-0/w STRC(252)         1 DEFERED_ID_TREE
     0-0-0/w STRC(288)         1 DEFERED_QUAL_ID            0-0-0/w STRC(288)         1 DEFERED_SUM_CLAUSE
     0-0-0/w STRC(288)         1 DEFERED_SUM_CLAUSE_LIST
     0-0-0/w STRC(144)   r     1 DEFLB                      0-0-0/w STRC(288)         1 DELETE_STMT
     0-0-0/w STRC(108)         1 DEPENDING_SIZE             0-0-0/w STRC(5472)        1 DIMS
     0-0-0/w STRC(288)         1 DIVIDE_STMT                0-0-0/w STRC(396)   r     1 DML_ITEM
     0-0-0/w STRC(216)         1 DML_REC                    0-0-0/w ASTR(180)   r     1 DNT
     0-0-0/w STRC(144)         1 DOEND                      0-0-0/w STRC(396)         1 DO_N
     0-0-0/w STRC(180)         1 DV4I                       0-0-0/w STRC(180)         1 ENTRY_ILL
     0-0-0/w STRC(180)   r     1 ETT                        0-0-0/w STRC(108)         1 EVALU
     0-0-0/w STRC(73836)       1 EVALUATE                   0-0-0/w STRC(396)         1 FD
     0-0-0/w STRC(1692)        1 FILE_LTS                   0-0-0/w STRC(144)   r     1 GO
     0-0-0/w STRC(180)         1 ILL                        0-0-0/w STRC              1 ILL_NO_OPS
     0-0-0/w STRC(180)   r     1 ILS                        0-0-0/w STRC(288)   r     1 ILS_LIST
     0-0-0/w STRC(108)         1 INDEXES                    0-0-0/w STRC(360)         1 INIT_LTS
     0-0-0/w STRC(288)         1 INSPECT_1_STMT             0-0-0/w STRC(288)         1 INSPECT_2_STMT
     0-0-0/w STRC(288)         1 INSPECT_4_STMT             0-0-0/w STRC(396)         1 INTDEF
     0-0-0/w STRC(180)         1 IO_RESTORE_CHAIN           0-0-0/w STRC(144)         1 KEY
     0-0-0/w STRC(396)         1 LABEL                      0-0-0/w STRC(288)         1 LA_ITEM
     0-0-0/w STRC(36864) r     1 LCNST                      0-0-0/w STRC(108)         1 LINOI
     0-0-0/w STRC(72)          1 LONG                       0-0-0/w STRC              1 LTS
     0-0-0/w STRC(360)         1 LTSS                       0-0-0/w STRC(36936)       1 LTS_PTR_ARRAY
     0-0-0/w STRC(504)         1 LX_CD_INPUT                0-0-0/w STRC(324)         1 LX_CD_I_O
     0-0-0/w STRC(396)         1 LX_CD_OUTPUT               0-0-0/w STRC(288)   r     1 LX_ETT_ITEM
     0-0-0/w STRC(288)   r     1 LX_ITEM                    0-0-0/w STRC(288)         1 LX_LARGE
     0-0-0/w STRC(288)   r     1 LX_LIST                    0-0-0/w STRC(1224)        1 LX_REC_DECL
     0-0-0/w STRC(864)         1 LX_REPORT_REC              0-0-0/w STRC(288)   r     1 LX_TERMINAL
     0-0-0/w STRC(72)          1 MFILL                      0-0-0/w STRC(396)         1 MNEMONIC
     0-0-0/w STRC(288)         1 MULTIPLY_STMT              0-0-0/w STRC(180)         1 MULTI_GO
     0-0-0/w STRC(180)         1 MVEAL                      0-0-0/w STRC(108)         1 MVFIL
     0-0-0/w STRC(72)          1 MVIIS                      0-0-0/w STRC(144)         1 NEL
PL6.E3A0      #001=Z8EK$OPTIMAL_BRANCHES File=Z8EK.:Z8A6TSI                      SAT 08/09/97 11:56 Page:362
     0-0-0/w STRC(216)         1 OPEN_LTS                   0-0-0/w STRC(144)         1 OPN
     0-0-0/w STRC(180)         1 OS_CALL                    0-0-0/w STRC(36864)       1 PAGE
     0-0-0/w STRC(396)         1 PARA                       0-0-0/w STRC(216)         1 PFORM
     0-0-0/w STRC(144)         1 PINC                       0-0-0/w STRC(144)         1 PREOFF
     0-0-0/w STRC(108)         1 PRESET                     0-0-0/w STRC(144)         1 PRIME
     0-0-0/w STRC(396)   r     1 PROC_                      0-0-0/w STRC(396)         1 PROC_DEF
     0-0-0/w STRC(900)   r     1 PROC_SUPP                  0-0-0/w STRC(144)         1 P_A_PRESET
     0-0-0/w STRC(144)         1 P_P_PRESET                 0-0-0/w STRC(216)   r     1 QLT
     0-0-0/w STRC(396)         1 RD                         0-0-0/w STRC(288)         1 READ_STMT
     0-0-0/w STRC(216)         1 REF                        0-0-0/w STRC(144)         1 REMEM
     0-0-0/w STRC(108)         1 RENAMES                    0-0-0/w STRC(720)         1 REPORT_01_LTS
     0-0-0/w STRC(432)         1 REPORT_ELEM_LTS            0-0-0/w STRC(252)         1 REPORT_GRP_LTS
     0-0-0/w STRC(1332)        1 REPORT_LTS                 0-0-0/w STRC(288)         1 REWRITE_STMT
     0-0-0/w STRC(144)         1 RVA_LTS                    0-0-0/w STRC(396)   r     1 SCALAR
     0-0-0/w STRC(144)         1 SCOPE                      0-0-0/w STRC(396)         1 SD
     0-0-0/w STRC(216)         1 SEARCH_                    0-0-0/w STRC(396)         1 SECTION
     0-0-0/w STRC(396)         1 SEGMENT                    0-0-0/w STRC(360)         1 SEGMENT_LTS
     0-0-0/w STRC(396)   r     1 ST                         0-0-0/w STRC(288)         1 START_STMT
     0-0-0/w STRC(72)          1 STP2                       0-0-0/w STRC(252)         1 STRING_STMT
     0-0-0/w STRC(288)         1 SUBTRACT_STMT              0-0-0/w STRC(252)         1 SUM_LTS
     0-0-0/w STRC(396)         1 SWITCH                     0-0-0/w STRC(396)         1 SYMBOLIC_CHAR
     0-0-0/w STRC(396)         1 SYMDEF_                    0-0-0/w STRC(396)         1 SYMREF_
     0-0-0/w STRC(396)         1 TEMP                       0-0-0/w STRC(4608)  r     1 TRANS
     0-0-0/w STRC(144)   r     1 TRINARY_ILL                0-0-0/w STRC(72)          1 UNARY_ILL
     0-0-0/w STRC(288)   r     1 UNARY_OP                   0-0-0/w STRC(288)         1 UNSTRING_STMT
     0-0-0/d STRC(612)         1 USE                        0-0-0/w STRC(216)         1 USER_CALL
     0-0-0/w STRC(252)         1 USE_SUPP                   0-0-0/w STRC(108)         1 VAL
     0-0-0/w STRC(108)         1 VAL_END                    0-0-0/w STRC(396)   r     1 VARIABLE
     0-0-0/w STRC(72)          1 WHEN                       0-0-0/w STRC(288)         1 WRITE_STMT


   Procedure Z8EK$OPTIMAL_BRANCHES requires 4856 words for executable code.
   Procedure Z8EK$OPTIMAL_BRANCHES requires 218 words of local(AUTO) storage.

