PL6.E3A0      #001=Z8EL$LEX File=Z8EL.:Z8A6TSI                                   SAT 08/09/97 12:03 Page:1
        1        1        /*M*  Z8EL$LEX - Lexical analyzer */
        2        2        /*T***********************************************************/
        3        3        /*T*                                                         */
        4        4        /*T* Copyright (c) Bull HN Information Systems Inc., 1997    */
        5        5        /*T*                                                         */
        6        6        /*T***********************************************************/
        7        7
        8        8        Z8EL$LEX :PROC NOAUTO;
        9        9
       10       10
       11       11        /*P*
       12       12               NAME:  Z8EL$LEX
       13       13            PURPOSE:  Main driver for the lexical analyzer.  It builds the next token
       14       14                      to be processed by the parser from the symbol returned by the
       15       15                      scanner.
       16       16        */
       17       17
       18       18        /*D*
       19       19               NAME:  Z8EL$LEX
       20       20               CALL:  CALL Z8EL$LEX ;
       21       21          INTERFACE:  Z8ES$SCANNER   -- Returns the next symbol.
       22       22                      Z8AH$SEARCH    -- Returns DNT$ pointing to the LEXEME item.
       23       23                      Z8AE$ERROR     -- Error message routine.
       24       24
       25       25              INPUT:  LA_PUT - Pointer to the current position in O1COM.LA_STK.
       26       26             OUTPUT:  LA_STK - Lexical analysis stack containing current symbols.
       27       27            SCRATCH:  O1COM.RECORD_DCL - Inside of a record declaration?
       28       28
       29       29        DESCRIPTION:  This procedure is called by the parser to get the next token.
       30       30                      The scanner is called and LA_STK is set up.  If a DNT entry is
       31       31                      needed the search routine to return the pointer.  All of the
       32       32                      values that need to be set up in the LA_STK are then
       33       33                      assigned to be used by the parser.
       34       34        */
       35       35        %EJECT ;
PL6.E3A0      #001=Z8EL$LEX File=Z8EL.:Z8A6TSI                                   SAT 08/09/97 12:03 Page:2
       36       36
       37       37
       38       38        %EQU PHASE = 1;
       39       39        %EQU LOCALLY_LEAST_COST_RECOVERY = '0'B;
       40       40
       41       41        %INCLUDE Z8A_DEFC;
       42      109        %INCLUDE Z8A_SUPP_MAC;
       43     2509        %INCLUDE Z8A_COMCOM;
       44     3159        %INCLUDE Z8E_STACKS;
       45     5425        %INCLUDE Z8E_WINDOW;
       46     7495        %INCLUDE Z8E_TABLES;
       47     8048        %INCLUDE Z8E_BUFFERS;
       48     8238        %INCLUDE Z8E_O1COM;
       49     8999        %INCLUDE Z8A_TYPES;
       50     9173        %INCLUDE Z8A_ST;
       51    12832        %INCLUDE Z8A_DNT;
       52    13053        %INCLUDE Z8A_ERR_NUMS;
       53    13817        %INCLUDE Z8A_P_STATE;
       54    13827        %INCLUDE Z8E_HEAP;
       55    13883        %INCLUDE Z8E_REPLACE;
       56    14186
       57    14187    1   DCL GET_NEXT_SCANNER_LINE EPTR EXT INIT(ENTADDR(Z8EL$GET_NEXT_SCANNER_LINE));
       58    14188    1   DCL Z9AA$IS_ES_REQUIRED ENTRY;
       59    14189    1   DCL Z8EL$PROCESS_COPY ENTRY;
       60    14190    1   DCL Z8EL$PROCESS_REPLACE ENTRY;
       61    14191    1   DCL Z8EL$HANDLE_LEVEL_CHANGE ENTRY(1);
       62    14192    1   DCL Z8EL$POSSIBLE_REPLACE ENTRY(1) ALTRET;
       63    14193    1   DCL Z8AU$CREATE_NUM_DESC ENTRY(3);
       64    14194    1   DCL Z8ED$DISPOSE_ABSSYN_TREE ENTRY(1);
       65    14195
       66    14196
       67    14197    1   DCL SEARCH_REQUIRED BOOLEAN EXT;
       68    14198
       69    14199    1   DCL LEX_STATE SBIN WORD EXT INIT(%LS_NORMAL);
       70    14200
       71    14201        %EQU ANSI_NUM_LIT_MAX_SIZE = 18;
       72    14202        %EQU NUM_LIT_MAX_SIZE = 63;
PL6.E3A0      #001=Z8EL$LEX File=Z8EL.:Z8A6TSI                                   SAT 08/09/97 12:03 Page:3
       73    14203        %EQU MAX_EXPONENT_DIGITS = 3;
       74    14204        %EQU USER_WORD_MAX_SIZE = 30;
       75    14205
       76    14206        %DCL_NUM_DESC;
       77    14215
       78    14216    1   DCL I SBIN WORD;
       79    14217        %EJECT;
PL6.E3A0      #001=Z8EL$LEX File=Z8EL.:Z8A6TSI                                   SAT 08/09/97 12:03 Page:4
       80    14218    1   DCL Z8AH$SEARCH_ ENTRY;
       81    14219    1   DCL Z8AE$ERROR ENTRY(12);
       82    14220
       83    14221    1   DCL 1 SAVED_SYMBOL STATIC ALIGNED, /* Storage for start of imperative stmt */
       84    14222    1         2 ALL_FIELDS_BUT_LINK,
       85    14223                %LA_STK_INFO(LVL=3);
       86    14242    1         2 LINK   UBIN WORD;
       87    14243    1   DCL SAVED_LEX_STATE SBIN STATIC;
       88    14244    1   DCL SAVED_CONT_FLAG BOOLEAN STATIC INIT(FALSE);
       89    14245
       90    14246    1   DCL CHAR_COLUMN SBIN WORD;
       91    14247    1   DCL CHAR_CLASS  SBIN WORD;
       92    14248
       93    14249    1   DCL TDNT$ PTR;
       94    14250    1   DCL HEAP$$  PTR;
       95    14251    1   DCL PROC$$  PTR;
       96    14252    1   DCL 1 PICTURE_SYMBOL STATIC,
       97    14253              %LEX_SYMBOL_INFO;
       98    14271    1         2 SYMBOL  CHAR(%MAX_SYMBOL_SIZE_PLUS_1);
       99    14272    1   DCL PARSING_PICTURE BOOLEAN STATIC INIT(FALSE);
      100    14273
      101    14274        %DEF_BUCKETS;
      102    14277        %EJECT ;
PL6.E3A0      #001=Z8EL$LEX File=Z8EL.:Z8A6TSI                                   SAT 08/09/97 12:03 Page:5
      103    14278        %MACRO SAVE_IMPERATIVE_STMT_RSV_WRD ;
      104    14279               DO ;
      105    14280                  SAVED_SYMBOL = O1COM.LA_STK(O1COM.LA_PUT);
      106    14281                  SAVED_LEX_STATE = %LS_NORMAL;
      107    14282                  O1COM.LA_STK.SYMBOL(O1COM.LA_PUT) = %INVISIBLE_STMT_START ;
      108    14283                  O1COM.LA_STK.DNT$(O1COM.LA_PUT) = ADDR(NIL) ;
      109    14284                  O1COM.LA_STK.FLAGS(O1COM.LA_PUT) = FALSE;
      110    14285                  O1COM.LA_STK.ST$(O1COM.LA_PUT) = ADDR(NIL);
      111    14286                  O1COM.LA_STK.TYPE(O1COM.LA_PUT) = 0;
      112    14287                  /* Leave line and column the same */
      113    14288                  LEX_STATE = %LS_PICK_UP_SAVED_SYMBOL;
      114    14289               END ;
      115    14290        %MEND ;
      116    14291
      117    14292        %EJECT;
PL6.E3A0      #001=Z8EL$LEX File=Z8EL.:Z8A6TSI                                   SAT 08/09/97 12:03 Page:6
      118    14293        %MACRO INITIALIZE_LA_STK_ITEM;
      119    14294          DO;
      120    14295            %INIT_LX_TERMINAL ( @POINTER = "ADDR(O1COM.LA_STK(O1COM.LA_PUT))",
      121    14296                                @LA_ITEM = TRUE,
      122    14297                                @SYMBOL = LEX_SYMBOL.TYPE,
      123    14298                                @LINE = LEX_SYMBOL.LINE,
      124    14299                                @COLUMN = LEX_SYMBOL.COLUMN);
      125    14300          END;
      126    14301        %MEND;
      127    14302        %EJECT;
PL6.E3A0      #001=Z8EL$LEX File=Z8EL.:Z8A6TSI                                   SAT 08/09/97 12:03 Page:7
      128    14303        %MACRO CHECK_DELIM_AND_SIZE;
      129    14304          DO;
      130    14305
      131    14306          /* Check symbol for length */
      132    14307          IF LEX_SYMBOL.SIZE > %MAX_SYMBOL_SIZE THEN
      133    14308            DO;
      134    14309              CALL Z8AE$ERROR(%E$SYMBOL_TOO_LARGE,
      135    14310                              LEX_SYMBOL.LINE,
      136    14311                              LEX_SYMBOL.COLUMN);
      137    14312              LEX_SYMBOL.SIZE = %MAX_SYMBOL_SIZE;
      138    14313            END;
      139    14314
      140    14315          /* Check symbol for delimiter error */
      141    14316          IF LEX_SYMBOL.B.DELIM_ERROR THEN
      142    14317            DO;
      143    14318              CALL Z8AE$ERROR (%E$MISSING_DELIMITER,
      144    14319                               LEX_SYMBOL.LINE,
      145    14320                               LEX_SYMBOL.COLUMN);
      146    14321            END;
      147    14322
      148    14323
      149    14324          END;
      150    14325        %MEND;
      151    14326        %EJECT;
PL6.E3A0      #001=Z8EL$LEX File=Z8EL.:Z8A6TSI                                   SAT 08/09/97 12:03 Page:8
      152    14327    1   CREATE_DUMMY_NUM_LIT : PROC;
      153    14328
      154    14329    2     O1COM.LA_STK.B.ERROR(O1COM.LA_PUT) = TRUE;
      155    14330    2     O1COM.LA_STK.DNT$(O1COM.LA_PUT) = DNT_OF_1$;
      156    14331
      157    14332    2   END CREATE_DUMMY_NUM_LIT;
      158    14333        %EJECT ;
PL6.E3A0      #001=Z8EL$LEX File=Z8EL.:Z8A6TSI                                   SAT 08/09/97 12:03 Page:9
      159    14334        %MACRO VALIDATE_NUM_DESC;
      160    14335          DO;
      161    14336            IF COMCOM.OB.FIPS.LEVEL > 0
      162    14337                  AND NUM_DESC.DIGITS_LEFT
      163    14338                        + NUM_DESC.DIGITS_RIGHT
      164    14339                          > %ANSI_NUM_LIT_MAX_SIZE THEN
      165    14340              DO;
      166    14341                CALL Z8AE$ERROR (%E$ANSI_LARGE_NUMERIC_ITEM,
      167    14342                                 LEX_SYMBOL.LINE,
      168    14343                                 LEX_SYMBOL.COLUMN);
      169    14344              END;
      170    14345
      171    14346            IF COMCOM.OB.FIPS.LEVEL > 0
      172    14347                   AND NUM_DESC.DIGITS_EXPONENT > 0 THEN
      173    14348              DO;
      174    14349                CALL Z8AE$ERROR (%E$ANSI_FLOATING_POINT,
      175    14350                                 LEX_SYMBOL.LINE,
      176    14351                                 LEX_SYMBOL.COLUMN);
      177    14352              END;
      178    14353
      179    14354            IF NUM_DESC.DIGITS_LEFT
      180    14355                   + NUM_DESC.DIGITS_RIGHT
      181    14356                     > %NUM_LIT_MAX_SIZE THEN
      182    14357              DO;
      183    14358                CALL Z8AE$ERROR (%E$NUMERIC_ITEM_TOO_LONG,
      184    14359                                 LEX_SYMBOL.LINE,
      185    14360                                 LEX_SYMBOL.COLUMN);
      186    14361                CALL CREATE_DUMMY_NUM_LIT;
      187    14362              END;
      188    14363            ELSE
      189    14364              IF NUM_DESC.DIGITS_EXPONENT > %MAX_EXPONENT_DIGITS THEN
      190    14365                DO;
      191    14366                  CALL Z8AE$ERROR (%E$TOO_LARGE_NUM_EXP,
      192    14367                                   LEX_SYMBOL.LINE,
      193    14368                                   LEX_SYMBOL.COLUMN);
      194    14369                  CALL CREATE_DUMMY_NUM_LIT;
      195    14370                END;
PL6.E3A0      #001=Z8EL$LEX File=Z8EL.:Z8A6TSI                                   SAT 08/09/97 12:03 Page:10
      196    14371
      197    14372            IF NUM_DESC.COMMA_PRESENT
      198    14373            AND (O1COM.CURRENT_PROC$ = ADDR(NIL)
      199    14374                 OR NOT O1COM.CURRENT_PROC$ -> PROC_.B.COMMA_IS_DECIMAL) THEN
      200    14375              CALL Z8AE$ERROR(%E$COMMA_IN_NUMBER,
      201    14376                              LEX_SYMBOL.LINE,
      202    14377                              LEX_SYMBOL.COLUMN);
      203    14378          END;
      204    14379        %MEND;
      205    14380        %EJECT;
PL6.E3A0      #001=Z8EL$LEX File=Z8EL.:Z8A6TSI                                   SAT 08/09/97 12:03 Page:11
      206    14381    1   REPLACED_TOKEN : PROC;
      207    14382
      208    14383           %LIST;
      209    14384
      210    14385
      211    14386    2   NEW_TOKEN:
      212    14387
      213    14388          %GET_A_TOKEN;
             14389    3   DO;
             14390    3     IF LEX_SYMBOL_QUEUE$ ~= ADDR(NIL) THEN
             14391          %GET_LEX_SYMBOL_FROM_QUEUE;
             14392    4     DO;
             14393            %COPY_BASED_LEX_SYMBOL(FROM$=LEX_SYMBOL_QUEUE$,
             14394                                   TO$ = "ADDR(LEX_SYMBOL)");
             14395    5     DO;
             14396    5       TO$ -> BASED_LEX_SYMBOL.SIZE = FROM$ -> BASED_LEX_SYMBOL.SIZE;
             14397    5       TO$ -> BASED_LEX_SYMBOL = FROM$ -> BASED_LEX_SYMBOL;
             14398    5     END;
             14400    4       CALL Z8ED$DISPOSE_HEAP (LEX_SYMBOL_QUEUE$,
             14401                                       %LEX_SYMBOL_ACTUAL_WORD_LEN(S$=LEX_SYMBOL_QUEUE$);
             14402    4     ((LENGTHC(S$ -> BASED_LEX_SYMBOL) + 3) / 4)
             14404    4                                 );
             14405    4       LEX_SYMBOL_QUEUE$ = LEX_SYMBOL.NEXT$;
             14406    4       LEX_SYMBOL.NEXT$ = ADDR(NIL);
             14407    4     END;
             14409    3     ELSE
             14410    4       DO;
             14411              %GET_BRAND_NEW_TOKEN;
             14412    5       DO;
             14413    5         CALL Z8ES$SCANNER;
             14414    6         DO WHILE LEX_SYMBOL.TYPE = %END_OF_LINE;
             14415    6           CALL Z8EL$GET_NEXT_SCANNER_LINE;
             14416    6           CALL Z8ES$SCANNER;
             14417    6         END;
             14418    5       END;
             14420    4         IF LEX_SYMBOL.LEVEL ~= CURRENT_SYMBOL_LEVEL
             14421    4              AND NOT LEX_SYMBOL.B.REPLACED_TOKEN THEN
PL6.E3A0      #001=Z8EL$LEX File=Z8EL.:Z8A6TSI                                   SAT 08/09/97 12:03 Page:12
             14422    4           CALL Z8EL$HANDLE_LEVEL_CHANGE(LEX_SYMBOL.LEVEL);
             14423    4     END;
             14424    3   END;
      214    14426    2   GOT_TOKEN:
      215    14427
      216    14428    2     IF SAVED_CONT_FLAG THEN
      217    14429    2       LEX_SYMBOL.B.CONTINUED_TOKEN = TRUE;
      218    14430
      219    14431    2     IF NOT REPLACE_ACTIVE THEN
      220    14432    3       DO;
      221    14433    3         SEARCH_REQUIRED = TRUE;
      222    14434    3       END;
      223    14435    2     ELSE
      224    14436    3       DO;
      225    14437    3         CALL Z8AH$SEARCH_;
      226    14438    3         IF DNT$ -> DNT.B.REPLACE_TOKEN THEN
      227    14439    4           DO;
      228    14440
      229    14441                  /* Put lex symbol at front of queue */
      230    14442                  %SAVE_TOKEN_ON_THE_QUEUE;
             14443    5      DO;
             14444             %COPY_TO_NEW_LEX_SYMBOL (FROM$ = "ADDR(LEX_SYMBOL)",
             14445                                      TO$   = HEAP$);
             14446    6     DO;
             14447    6       CALL Z8ED$NEW_HEAP (TO$,
             14448                                   %LEX_SYMBOL_ACTUAL_WORD_LEN(S$=FROM$);
             14449    6     ((LENGTHC(S$ -> BASED_LEX_SYMBOL) + 3) / 4)
             14451    6                             );
             14452            %COPY_BASED_LEX_SYMBOL(FROM$=FROM$, TO$=TO$);
             14453    7     DO;
             14454    7       TO$ -> BASED_LEX_SYMBOL.SIZE = FROM$ -> BASED_LEX_SYMBOL.SIZE;
             14455    7       TO$ -> BASED_LEX_SYMBOL = FROM$ -> BASED_LEX_SYMBOL;
             14456    7     END;
             14458    6     END;
             14460    5        HEAP$ -> BASED_LEX_SYMBOL.NEXT$ = LEX_SYMBOL_QUEUE$;
             14461    5        LEX_SYMBOL_QUEUE$ = HEAP$;
             14462    5      END;
PL6.E3A0      #001=Z8EL$LEX File=Z8EL.:Z8A6TSI                                   SAT 08/09/97 12:03 Page:13
      231    14464
      232    14465                  /* Check for end of PIC before calling POSSIBLE_REPLACE.  */
      233    14466                  /* See procedure CONSOLIDATE_PICTURE_STRING (STAR T02424) */
      234    14467
      235    14468    4             IF PARSING_PICTURE AND
      236    14469    4               (PICTURE_SYMBOL.END_COLUMN ~= LEX_SYMBOL.COLUMN
      237    14470    4                OR PICTURE_SYMBOL.END_LINE   ~= LEX_SYMBOL.LINE
      238    14471    4                OR LEX_SYMBOL.TYPE = %PERIOD) THEN
      239    14472    5                  DO;
      240    14473    5                    LEX_STATE = %LS_NORMAL;
      241    14474    5                    PARSING_PICTURE = FALSE;
      242    14475    5                  END;
      243    14476
      244    14477    4             CALL Z8EL$POSSIBLE_REPLACE (0)
      245    14478    4               WHENRETURN
      246    14479    5                 DO;
      247    14480    5                   GOTO NEW_TOKEN;
      248    14481    5                 END;
      249    14482    4               WHENALTRETURN
      250    14483    5                 DO;
      251    14484                        %GET_LEX_SYMBOL_FROM_QUEUE;
             14485    6     DO;
             14486            %COPY_BASED_LEX_SYMBOL(FROM$=LEX_SYMBOL_QUEUE$,
             14487                                   TO$ = "ADDR(LEX_SYMBOL)");
             14488    7     DO;
             14489    7       TO$ -> BASED_LEX_SYMBOL.SIZE = FROM$ -> BASED_LEX_SYMBOL.SIZE;
             14490    7       TO$ -> BASED_LEX_SYMBOL = FROM$ -> BASED_LEX_SYMBOL;
             14491    7     END;
             14493    6       CALL Z8ED$DISPOSE_HEAP (LEX_SYMBOL_QUEUE$,
             14494                                       %LEX_SYMBOL_ACTUAL_WORD_LEN(S$=LEX_SYMBOL_QUEUE$);
             14495    6     ((LENGTHC(S$ -> BASED_LEX_SYMBOL) + 3) / 4)
             14497    6                                 );
             14498    6       LEX_SYMBOL_QUEUE$ = LEX_SYMBOL.NEXT$;
             14499    6       LEX_SYMBOL.NEXT$ = ADDR(NIL);
             14500    6     END;
      252    14502    5                   SEARCH_REQUIRED = TRUE;
      253    14503    5                 END;
PL6.E3A0      #001=Z8EL$LEX File=Z8EL.:Z8A6TSI                                   SAT 08/09/97 12:03 Page:14
      254    14504    4           END;
      255    14505    3         ELSE IF BUFFER.CLASS = %SPACE OR
      256    14506    3             BUFFER.CLASS = %END_OF_LINE OR
      257    14507    3             BUFFER.CLASS = %END_OF_FILE OR
      258    14508    3             (LEX_SYMBOL.TYPE ~= %USER_WORD AND
      259    14509    3              LEX_SYMBOL.TYPE ~= %NUMBER_OR_PARAGRAPH AND
      260    14510    3              LEX_SYMBOL.TYPE ~= %NUMBER AND
      261    14511    3              LEX_SYMBOL.TYPE ~= %NAME AND
      262    14512    3              LEX_SYMBOL.TYPE ~= %LETTER_E) OR
      263    14513    3             PARSING_PICTURE THEN
      264    14514    3           SEARCH_REQUIRED = FALSE;
      265    14515    3         ELSE
      266    14516    4           DO;
      267    14517                  %SAVE_CURRENT_TOKEN;
             14518    5      DO;
             14519    5        TEMP_LEX_SYMBOL = LEX_SYMBOL;
             14520    5      END;
      268    14522                  %GET_A_TOKEN;
             14523    5   DO;
             14524    5     IF LEX_SYMBOL_QUEUE$ ~= ADDR(NIL) THEN
             14525          %GET_LEX_SYMBOL_FROM_QUEUE;
             14526    6     DO;
             14527            %COPY_BASED_LEX_SYMBOL(FROM$=LEX_SYMBOL_QUEUE$,
             14528                                   TO$ = "ADDR(LEX_SYMBOL)");
             14529    7     DO;
             14530    7       TO$ -> BASED_LEX_SYMBOL.SIZE = FROM$ -> BASED_LEX_SYMBOL.SIZE;
             14531    7       TO$ -> BASED_LEX_SYMBOL = FROM$ -> BASED_LEX_SYMBOL;
             14532    7     END;
             14534    6       CALL Z8ED$DISPOSE_HEAP (LEX_SYMBOL_QUEUE$,
             14535                                       %LEX_SYMBOL_ACTUAL_WORD_LEN(S$=LEX_SYMBOL_QUEUE$);
             14536    6     ((LENGTHC(S$ -> BASED_LEX_SYMBOL) + 3) / 4)
             14538    6                                 );
             14539    6       LEX_SYMBOL_QUEUE$ = LEX_SYMBOL.NEXT$;
             14540    6       LEX_SYMBOL.NEXT$ = ADDR(NIL);
             14541    6     END;
             14543    5     ELSE
             14544    6       DO;
PL6.E3A0      #001=Z8EL$LEX File=Z8EL.:Z8A6TSI                                   SAT 08/09/97 12:03 Page:15
             14545              %GET_BRAND_NEW_TOKEN;
             14546    7       DO;
             14547    7         CALL Z8ES$SCANNER;
             14548    8         DO WHILE LEX_SYMBOL.TYPE = %END_OF_LINE;
             14549    8           CALL Z8EL$GET_NEXT_SCANNER_LINE;
             14550    8           CALL Z8ES$SCANNER;
             14551    8         END;
             14552    7       END;
             14554    6         IF LEX_SYMBOL.LEVEL ~= CURRENT_SYMBOL_LEVEL
             14555    6              AND NOT LEX_SYMBOL.B.REPLACED_TOKEN THEN
             14556    6           CALL Z8EL$HANDLE_LEVEL_CHANGE(LEX_SYMBOL.LEVEL);
             14557    6     END;
             14558    5   END;
      269    14560    4             CALL Z8AH$SEARCH_;
      270    14561                  %SAVE_TOKEN_ON_THE_QUEUE;
             14562    5      DO;
             14563             %COPY_TO_NEW_LEX_SYMBOL (FROM$ = "ADDR(LEX_SYMBOL)",
             14564                                      TO$   = HEAP$);
             14565    6     DO;
             14566    6       CALL Z8ED$NEW_HEAP (TO$,
             14567                                   %LEX_SYMBOL_ACTUAL_WORD_LEN(S$=FROM$);
             14568    6     ((LENGTHC(S$ -> BASED_LEX_SYMBOL) + 3) / 4)
             14570    6                             );
             14571            %COPY_BASED_LEX_SYMBOL(FROM$=FROM$, TO$=TO$);
             14572    7     DO;
             14573    7       TO$ -> BASED_LEX_SYMBOL.SIZE = FROM$ -> BASED_LEX_SYMBOL.SIZE;
             14574    7       TO$ -> BASED_LEX_SYMBOL = FROM$ -> BASED_LEX_SYMBOL;
             14575    7     END;
             14577    6     END;
             14579    5        HEAP$ -> BASED_LEX_SYMBOL.NEXT$ = LEX_SYMBOL_QUEUE$;
             14580    5        LEX_SYMBOL_QUEUE$ = HEAP$;
             14581    5      END;
      271    14583    4             IF DNT$ -> DNT.B.REPLACE_TOKEN THEN
      272    14584    5               DO;
      273    14585
      274    14586    5                 CALL Z8EL$POSSIBLE_REPLACE (0)
      275    14587    6                   WHENRETURN DO;
PL6.E3A0      #001=Z8EL$LEX File=Z8EL.:Z8A6TSI                                   SAT 08/09/97 12:03 Page:16
      276    14588                          %LOAD_SAVED_TOKEN;
             14589    7      DO;
             14590    7        LEX_SYMBOL = TEMP_LEX_SYMBOL;
             14591    7      END;
      277    14593    6                     IF LEX_SYMBOL_QUEUE$ ~= ADDR (NIL) AND
      278    14594    6                         SUBSTR (BUFFER_LINE,
      279    14595    6                                 LEX_SYMBOL_QUEUE$ -> BASED_LEX_SYMBOL.COLUMN - 1,
      280    14596    6                                 1) ~= ' ' THEN
      281    14597    7                       DO;
      282    14598    7                       I = LEX_SYMBOL_QUEUE$ -> BASED_LEX_SYMBOL.SIZE;
      283    14599    7                       IF I > %MAX_SYMBOL_SIZE_PLUS_1 - LEX_SYMBOL.SIZE
      284    14600    7                         THEN I = %MAX_SYMBOL_SIZE_PLUS_1 - LEX_SYMBOL.SIZE;
      285    14601    7                       SUBSTR (LEX_SYMBOL.SYMBOL, LEX_SYMBOL.SIZE, I)
      286    14602    7                         = LEX_SYMBOL_QUEUE$ -> BASED_LEX_SYMBOL.SYMBOL;
      287    14603    7                       LEX_SYMBOL.SIZE = LEX_SYMBOL.SIZE + I;
      288    14604    7                       LEX_SYMBOL.END_COLUMN = BUFFER.COLUMN;
      289    14605    7                       HEAP$$ = LEX_SYMBOL_QUEUE$ -> BASED_LEX_SYMBOL.NEXT$;
      290    14606    7                       CALL Z8ED$DISPOSE_HEAP (LEX_SYMBOL_QUEUE$,
      291    14607                                                    %LEX_SYMBOL_ACTUAL_WORD_LEN (S$=
             14607                                                        LEX_SYMBOL_QUEUE$);
             14608    7     ((LENGTHC(S$ -> BASED_LEX_SYMBOL) + 3) / 4)
      292    14610    7                                               );
      293    14611    7                       LEX_SYMBOL_QUEUE$ = HEAP$$;
      294    14612    7                       END;
      295    14613    6                     GOTO GOT_TOKEN;
      296    14614    6                   END;
      297    14615    5               END; /* DNT$ -> DNT.B.REPLACE_TOKEN */
      298    14616                  %LOAD_SAVED_TOKEN;
             14617    5      DO;
             14618    5        LEX_SYMBOL = TEMP_LEX_SYMBOL;
             14619    5      END;
      299    14621    4             SEARCH_REQUIRED = TRUE;
      300    14622    4           END;
      301    14623    3       END;
      302    14624
      303    14625          /* Ignore COPY & REPLACE in comment entries if column > 11 */
      304    14626
PL6.E3A0      #001=Z8EL$LEX File=Z8EL.:Z8A6TSI                                   SAT 08/09/97 12:03 Page:17
      305    14627    2     IF NOT IGNORE_COPY_REPLACE
      306    14628    2     OR LEX_SYMBOL.COLUMN < O1COM.AREA_B_COLUMN_START THEN
      307    14629    3       DO;
      308    14630              /* Check for copy/replace */
      309    14631    3         IF LEX_SYMBOL.SIZE = 4
      310    14632    3             AND SUBSTR(LEX_SYMBOL.SYMBOL,0,4) = 'COPY' THEN
      311    14633    4           DO;
      312    14634    4             CURRENT_BUFFER$ -> FILL_BUFFER.LINE_TYPE.COPY_REPL_LINE = TRUE;
      313    14635    4             CALL Z8EL$PROCESS_COPY;
      314    14636    4             GOTO NEW_TOKEN;
      315    14637    4           END;
      316    14638    3         ELSE
      317    14639    3           IF LEX_SYMBOL.SIZE = 7
      318    14640    3             AND SUBSTR(LEX_SYMBOL.SYMBOL,0,7) = 'REPLACE' THEN
      319    14641    4             DO;
      320    14642    4               IF COMCOM.OB.FIPS.LEVEL >= %INT_LEV THEN
      321    14643    4                 CALL Z8AE$ERROR (%E$LEVEL_CHECK,
      322    14644    4                                  LEX_SYMBOL.LINE,
      323    14645    4                                  LEX_SYMBOL.COLUMN);
      324    14646    4               CURRENT_BUFFER$ -> FILL_BUFFER.LINE_TYPE.COPY_REPL_LINE = TRUE;
      325    14647    4               CALL Z8EL$PROCESS_REPLACE;
      326    14648    4               GOTO NEW_TOKEN;
      327    14649    4             END;
      328    14650    3       END;
      329    14651
      330    14652        /* Next two macro calls are designed to resolve the problems
      331    14653           of LALR1 parsing limitation, so WITH DATA or NO DATA won't
      332    14654           mess up with WITH NO ADVANCING clause, and, ON SIZE ERROR
      333    14655           won't mess up with NOT ON EXCEPTION clause                */
      334    14656
      335    14657          %REPLACE_WITH_DATA_NO_DATA;
             14658    3     DO;
             14659    3       IF LEX_SYMBOL.SIZE = 4 AND
             14660    3         SUBSTR(LEX_SYMBOL.SYMBOL,0,4) = 'WITH' THEN
             14661    4          DO;
             14662                 %SAVE_CURRENT_TOKEN;
             14663    5      DO;
PL6.E3A0      #001=Z8EL$LEX File=Z8EL.:Z8A6TSI                                   SAT 08/09/97 12:03 Page:18
             14664    5        TEMP_LEX_SYMBOL = LEX_SYMBOL;
             14665    5      END;
             14667                 %GET_A_TOKEN;
             14668    5   DO;
             14669    5     IF LEX_SYMBOL_QUEUE$ ~= ADDR(NIL) THEN
             14670          %GET_LEX_SYMBOL_FROM_QUEUE;
             14671    6     DO;
             14672            %COPY_BASED_LEX_SYMBOL(FROM$=LEX_SYMBOL_QUEUE$,
             14673                                   TO$ = "ADDR(LEX_SYMBOL)");
             14674    7     DO;
             14675    7       TO$ -> BASED_LEX_SYMBOL.SIZE = FROM$ -> BASED_LEX_SYMBOL.SIZE;
             14676    7       TO$ -> BASED_LEX_SYMBOL = FROM$ -> BASED_LEX_SYMBOL;
             14677    7     END;
             14679    6       CALL Z8ED$DISPOSE_HEAP (LEX_SYMBOL_QUEUE$,
             14680                                       %LEX_SYMBOL_ACTUAL_WORD_LEN(S$=LEX_SYMBOL_QUEUE$);
             14681    6     ((LENGTHC(S$ -> BASED_LEX_SYMBOL) + 3) / 4)
             14683    6                                 );
             14684    6       LEX_SYMBOL_QUEUE$ = LEX_SYMBOL.NEXT$;
             14685    6       LEX_SYMBOL.NEXT$ = ADDR(NIL);
             14686    6     END;
             14688    5     ELSE
             14689    6       DO;
             14690              %GET_BRAND_NEW_TOKEN;
             14691    7       DO;
             14692    7         CALL Z8ES$SCANNER;
             14693    8         DO WHILE LEX_SYMBOL.TYPE = %END_OF_LINE;
             14694    8           CALL Z8EL$GET_NEXT_SCANNER_LINE;
             14695    8           CALL Z8ES$SCANNER;
             14696    8         END;
             14697    7       END;
             14699    6         IF LEX_SYMBOL.LEVEL ~= CURRENT_SYMBOL_LEVEL
             14700    6              AND NOT LEX_SYMBOL.B.REPLACED_TOKEN THEN
             14701    6           CALL Z8EL$HANDLE_LEVEL_CHANGE(LEX_SYMBOL.LEVEL);
             14702    6     END;
             14703    5   END;
             14705    4            IF LEX_SYMBOL.SIZE = 4 AND
             14706    4              SUBSTR(LEX_SYMBOL.SYMBOL,0,4) = 'DATA' THEN
PL6.E3A0      #001=Z8EL$LEX File=Z8EL.:Z8A6TSI                                   SAT 08/09/97 12:03 Page:19
             14707                     %REPLACE_WITH_DATA_TOKEN;
             14708    5      DO;
             14709    5        LEX_SYMBOL.LINE = TEMP_LEX_SYMBOL.LINE;
             14710    5        LEX_SYMBOL.COLUMN = TEMP_LEX_SYMBOL.COLUMN;
             14711    5        LEX_SYMBOL.SIZE = %WITH_DATA_SIZE;
             14712    5        SUBSTR(LEX_SYMBOL.SYMBOL,0,%WITH_DATA_SIZE) = %WITH_DATA_TEXT;
             14713    5      END;
             14715    4            ELSE
             14716    5              DO;
             14717                     %SAVE_TOKEN_ON_THE_QUEUE;
             14718    6      DO;
             14719             %COPY_TO_NEW_LEX_SYMBOL (FROM$ = "ADDR(LEX_SYMBOL)",
             14720                                      TO$   = HEAP$);
             14721    7     DO;
             14722    7       CALL Z8ED$NEW_HEAP (TO$,
             14723                                   %LEX_SYMBOL_ACTUAL_WORD_LEN(S$=FROM$);
             14724    7     ((LENGTHC(S$ -> BASED_LEX_SYMBOL) + 3) / 4)
             14726    7                             );
             14727            %COPY_BASED_LEX_SYMBOL(FROM$=FROM$, TO$=TO$);
             14728    8     DO;
             14729    8       TO$ -> BASED_LEX_SYMBOL.SIZE = FROM$ -> BASED_LEX_SYMBOL.SIZE;
             14730    8       TO$ -> BASED_LEX_SYMBOL = FROM$ -> BASED_LEX_SYMBOL;
             14731    8     END;
             14733    7     END;
             14735    6        HEAP$ -> BASED_LEX_SYMBOL.NEXT$ = LEX_SYMBOL_QUEUE$;
             14736    6        LEX_SYMBOL_QUEUE$ = HEAP$;
             14737    6      END;
             14739                     %LOAD_SAVED_TOKEN;
             14740    6      DO;
             14741    6        LEX_SYMBOL = TEMP_LEX_SYMBOL;
             14742    6      END;
             14744    5              END;
             14745    4          END;
             14746    3       IF LEX_SYMBOL.SIZE = 2 AND
             14747    3         SUBSTR(LEX_SYMBOL.SYMBOL,0,2) = 'NO' THEN
             14748    4          DO;
             14749                 %SAVE_CURRENT_TOKEN;
PL6.E3A0      #001=Z8EL$LEX File=Z8EL.:Z8A6TSI                                   SAT 08/09/97 12:03 Page:20
             14750    5      DO;
             14751    5        TEMP_LEX_SYMBOL = LEX_SYMBOL;
             14752    5      END;
             14754                 %GET_A_TOKEN;
             14755    5   DO;
             14756    5     IF LEX_SYMBOL_QUEUE$ ~= ADDR(NIL) THEN
             14757          %GET_LEX_SYMBOL_FROM_QUEUE;
             14758    6     DO;
             14759            %COPY_BASED_LEX_SYMBOL(FROM$=LEX_SYMBOL_QUEUE$,
             14760                                   TO$ = "ADDR(LEX_SYMBOL)");
             14761    7     DO;
             14762    7       TO$ -> BASED_LEX_SYMBOL.SIZE = FROM$ -> BASED_LEX_SYMBOL.SIZE;
             14763    7       TO$ -> BASED_LEX_SYMBOL = FROM$ -> BASED_LEX_SYMBOL;
             14764    7     END;
             14766    6       CALL Z8ED$DISPOSE_HEAP (LEX_SYMBOL_QUEUE$,
             14767                                       %LEX_SYMBOL_ACTUAL_WORD_LEN(S$=LEX_SYMBOL_QUEUE$);
             14768    6     ((LENGTHC(S$ -> BASED_LEX_SYMBOL) + 3) / 4)
             14770    6                                 );
             14771    6       LEX_SYMBOL_QUEUE$ = LEX_SYMBOL.NEXT$;
             14772    6       LEX_SYMBOL.NEXT$ = ADDR(NIL);
             14773    6     END;
             14775    5     ELSE
             14776    6       DO;
             14777              %GET_BRAND_NEW_TOKEN;
             14778    7       DO;
             14779    7         CALL Z8ES$SCANNER;
             14780    8         DO WHILE LEX_SYMBOL.TYPE = %END_OF_LINE;
             14781    8           CALL Z8EL$GET_NEXT_SCANNER_LINE;
             14782    8           CALL Z8ES$SCANNER;
             14783    8         END;
             14784    7       END;
             14786    6         IF LEX_SYMBOL.LEVEL ~= CURRENT_SYMBOL_LEVEL
             14787    6              AND NOT LEX_SYMBOL.B.REPLACED_TOKEN THEN
             14788    6           CALL Z8EL$HANDLE_LEVEL_CHANGE(LEX_SYMBOL.LEVEL);
             14789    6     END;
             14790    5   END;
             14792    4            IF LEX_SYMBOL.SIZE = 4 AND
PL6.E3A0      #001=Z8EL$LEX File=Z8EL.:Z8A6TSI                                   SAT 08/09/97 12:03 Page:21
             14793    4              SUBSTR(LEX_SYMBOL.SYMBOL,0,4) = 'DATA' THEN
             14794                     %REPLACE_NO_DATA_TOKEN;
             14795    5      DO;
             14796    5        LEX_SYMBOL.LINE = TEMP_LEX_SYMBOL.LINE;
             14797    5        LEX_SYMBOL.COLUMN = TEMP_LEX_SYMBOL.COLUMN;
             14798    5        LEX_SYMBOL.SIZE = %NO_DATA_SIZE;
             14799    5        SUBSTR(LEX_SYMBOL.SYMBOL,0,%NO_DATA_SIZE) = %NO_DATA_TEXT;
             14800    5      END;
             14802    4            ELSE
             14803    5              DO;
             14804                     %SAVE_TOKEN_ON_THE_QUEUE;
             14805    6      DO;
             14806             %COPY_TO_NEW_LEX_SYMBOL (FROM$ = "ADDR(LEX_SYMBOL)",
             14807                                      TO$   = HEAP$);
             14808    7     DO;
             14809    7       CALL Z8ED$NEW_HEAP (TO$,
             14810                                   %LEX_SYMBOL_ACTUAL_WORD_LEN(S$=FROM$);
             14811    7     ((LENGTHC(S$ -> BASED_LEX_SYMBOL) + 3) / 4)
             14813    7                             );
             14814            %COPY_BASED_LEX_SYMBOL(FROM$=FROM$, TO$=TO$);
             14815    8     DO;
             14816    8       TO$ -> BASED_LEX_SYMBOL.SIZE = FROM$ -> BASED_LEX_SYMBOL.SIZE;
             14817    8       TO$ -> BASED_LEX_SYMBOL = FROM$ -> BASED_LEX_SYMBOL;
             14818    8     END;
             14820    7     END;
             14822    6        HEAP$ -> BASED_LEX_SYMBOL.NEXT$ = LEX_SYMBOL_QUEUE$;
             14823    6        LEX_SYMBOL_QUEUE$ = HEAP$;
             14824    6      END;
             14826                     %LOAD_SAVED_TOKEN;
             14827    6      DO;
             14828    6        LEX_SYMBOL = TEMP_LEX_SYMBOL;
             14829    6      END;
             14831    5              END;
             14832    4          END;
             14833    3     END;
      336    14835
      337    14836          %REPLACE_NOT_ON_EXCEPTION_TOKEN;
PL6.E3A0      #001=Z8EL$LEX File=Z8EL.:Z8A6TSI                                   SAT 08/09/97 12:03 Page:22
             14837    3     DO;
             14838    3       IF LEX_SYMBOL.SIZE = 3 AND
             14839    3          SUBSTR(LEX_SYMBOL.SYMBOL,0,3) = 'NOT' THEN
             14840    4         DO;
             14841    4           TEMP_LEX_SYMBOL2 = LEX_SYMBOL;
             14842                %GET_A_TOKEN;
             14843    5   DO;
             14844    5     IF LEX_SYMBOL_QUEUE$ ~= ADDR(NIL) THEN
             14845          %GET_LEX_SYMBOL_FROM_QUEUE;
             14846    6     DO;
             14847            %COPY_BASED_LEX_SYMBOL(FROM$=LEX_SYMBOL_QUEUE$,
             14848                                   TO$ = "ADDR(LEX_SYMBOL)");
             14849    7     DO;
             14850    7       TO$ -> BASED_LEX_SYMBOL.SIZE = FROM$ -> BASED_LEX_SYMBOL.SIZE;
             14851    7       TO$ -> BASED_LEX_SYMBOL = FROM$ -> BASED_LEX_SYMBOL;
             14852    7     END;
             14854    6       CALL Z8ED$DISPOSE_HEAP (LEX_SYMBOL_QUEUE$,
             14855                                       %LEX_SYMBOL_ACTUAL_WORD_LEN(S$=LEX_SYMBOL_QUEUE$);
             14856    6     ((LENGTHC(S$ -> BASED_LEX_SYMBOL) + 3) / 4)
             14858    6                                 );
             14859    6       LEX_SYMBOL_QUEUE$ = LEX_SYMBOL.NEXT$;
             14860    6       LEX_SYMBOL.NEXT$ = ADDR(NIL);
             14861    6     END;
             14863    5     ELSE
             14864    6       DO;
             14865              %GET_BRAND_NEW_TOKEN;
             14866    7       DO;
             14867    7         CALL Z8ES$SCANNER;
             14868    8         DO WHILE LEX_SYMBOL.TYPE = %END_OF_LINE;
             14869    8           CALL Z8EL$GET_NEXT_SCANNER_LINE;
             14870    8           CALL Z8ES$SCANNER;
             14871    8         END;
             14872    7       END;
             14874    6         IF LEX_SYMBOL.LEVEL ~= CURRENT_SYMBOL_LEVEL
             14875    6              AND NOT LEX_SYMBOL.B.REPLACED_TOKEN THEN
             14876    6           CALL Z8EL$HANDLE_LEVEL_CHANGE(LEX_SYMBOL.LEVEL);
             14877    6     END;
PL6.E3A0      #001=Z8EL$LEX File=Z8EL.:Z8A6TSI                                   SAT 08/09/97 12:03 Page:23
             14878    5   END;
             14880                %REPLACE_ON_EXCEPTION_TOKEN;
             14881    5     DO;
             14882    5       IF LEX_SYMBOL.SIZE = 2 AND
             14883    5         SUBSTR(LEX_SYMBOL.SYMBOL,0,2) = 'ON' THEN
             14884    6         DO;
             14885                %SAVE_CURRENT_TOKEN;
             14886    7      DO;
             14887    7        TEMP_LEX_SYMBOL = LEX_SYMBOL;
             14888    7      END;
             14890                %GET_A_TOKEN;
             14891    7   DO;
             14892    7     IF LEX_SYMBOL_QUEUE$ ~= ADDR(NIL) THEN
             14893          %GET_LEX_SYMBOL_FROM_QUEUE;
             14894    8     DO;
             14895            %COPY_BASED_LEX_SYMBOL(FROM$=LEX_SYMBOL_QUEUE$,
             14896                                   TO$ = "ADDR(LEX_SYMBOL)");
             14897    9     DO;
             14898    9       TO$ -> BASED_LEX_SYMBOL.SIZE = FROM$ -> BASED_LEX_SYMBOL.SIZE;
             14899    9       TO$ -> BASED_LEX_SYMBOL = FROM$ -> BASED_LEX_SYMBOL;
             14900    9     END;
             14902    8       CALL Z8ED$DISPOSE_HEAP (LEX_SYMBOL_QUEUE$,
             14903                                       %LEX_SYMBOL_ACTUAL_WORD_LEN(S$=LEX_SYMBOL_QUEUE$);
             14904    8     ((LENGTHC(S$ -> BASED_LEX_SYMBOL) + 3) / 4)
             14906    8                                 );
             14907    8       LEX_SYMBOL_QUEUE$ = LEX_SYMBOL.NEXT$;
             14908    8       LEX_SYMBOL.NEXT$ = ADDR(NIL);
             14909    8     END;
             14911    7     ELSE
             14912    8       DO;
             14913              %GET_BRAND_NEW_TOKEN;
             14914    9       DO;
             14915    9         CALL Z8ES$SCANNER;
             14916   10         DO WHILE LEX_SYMBOL.TYPE = %END_OF_LINE;
             14917   10           CALL Z8EL$GET_NEXT_SCANNER_LINE;
             14918   10           CALL Z8ES$SCANNER;
             14919   10         END;
PL6.E3A0      #001=Z8EL$LEX File=Z8EL.:Z8A6TSI                                   SAT 08/09/97 12:03 Page:24
             14920    9       END;
             14922    8         IF LEX_SYMBOL.LEVEL ~= CURRENT_SYMBOL_LEVEL
             14923    8              AND NOT LEX_SYMBOL.B.REPLACED_TOKEN THEN
             14924    8           CALL Z8EL$HANDLE_LEVEL_CHANGE(LEX_SYMBOL.LEVEL);
             14925    8     END;
             14926    7   END;
             14928    6           IF LEX_SYMBOL.SIZE ~= 9 OR
             14929    6             SUBSTR(LEX_SYMBOL.SYMBOL,0,9) ~= 'EXCEPTION' THEN
             14930    7             DO;
             14931                    %SAVE_TOKEN_ON_THE_QUEUE;
             14932    8      DO;
             14933             %COPY_TO_NEW_LEX_SYMBOL (FROM$ = "ADDR(LEX_SYMBOL)",
             14934                                      TO$   = HEAP$);
             14935    9     DO;
             14936    9       CALL Z8ED$NEW_HEAP (TO$,
             14937                                   %LEX_SYMBOL_ACTUAL_WORD_LEN(S$=FROM$);
             14938    9     ((LENGTHC(S$ -> BASED_LEX_SYMBOL) + 3) / 4)
             14940    9                             );
             14941            %COPY_BASED_LEX_SYMBOL(FROM$=FROM$, TO$=TO$);
             14942   10     DO;
             14943   10       TO$ -> BASED_LEX_SYMBOL.SIZE = FROM$ -> BASED_LEX_SYMBOL.SIZE;
             14944   10       TO$ -> BASED_LEX_SYMBOL = FROM$ -> BASED_LEX_SYMBOL;
             14945   10     END;
             14947    9     END;
             14949    8        HEAP$ -> BASED_LEX_SYMBOL.NEXT$ = LEX_SYMBOL_QUEUE$;
             14950    8        LEX_SYMBOL_QUEUE$ = HEAP$;
             14951    8      END;
             14953                    %LOAD_SAVED_TOKEN;
             14954    8      DO;
             14955    8        LEX_SYMBOL = TEMP_LEX_SYMBOL;
             14956    8      END;
             14958    7             END;
             14959    6         END;
             14960    5     END;
             14962    4           IF LEX_SYMBOL.SIZE ~= 9 OR
             14963    4              SUBSTR(LEX_SYMBOL.SYMBOL,0,9) ~= 'EXCEPTION' THEN
             14964    5             DO;
PL6.E3A0      #001=Z8EL$LEX File=Z8EL.:Z8A6TSI                                   SAT 08/09/97 12:03 Page:25
             14965                    %SAVE_TOKEN_ON_THE_QUEUE;
             14966    6      DO;
             14967             %COPY_TO_NEW_LEX_SYMBOL (FROM$ = "ADDR(LEX_SYMBOL)",
             14968                                      TO$   = HEAP$);
             14969    7     DO;
             14970    7       CALL Z8ED$NEW_HEAP (TO$,
             14971                                   %LEX_SYMBOL_ACTUAL_WORD_LEN(S$=FROM$);
             14972    7     ((LENGTHC(S$ -> BASED_LEX_SYMBOL) + 3) / 4)
             14974    7                             );
             14975            %COPY_BASED_LEX_SYMBOL(FROM$=FROM$, TO$=TO$);
             14976    8     DO;
             14977    8       TO$ -> BASED_LEX_SYMBOL.SIZE = FROM$ -> BASED_LEX_SYMBOL.SIZE;
             14978    8       TO$ -> BASED_LEX_SYMBOL = FROM$ -> BASED_LEX_SYMBOL;
             14979    8     END;
             14981    7     END;
             14983    6        HEAP$ -> BASED_LEX_SYMBOL.NEXT$ = LEX_SYMBOL_QUEUE$;
             14984    6        LEX_SYMBOL_QUEUE$ = HEAP$;
             14985    6      END;
             14987    5               LEX_SYMBOL = TEMP_LEX_SYMBOL2;
             14988    5             END;
             14989    4           ELSE
             14990    5             DO;
             14991    5               LEX_SYMBOL.LINE = TEMP_LEX_SYMBOL2.LINE;
             14992    5               LEX_SYMBOL.COLUMN = TEMP_LEX_SYMBOL2.COLUMN;
             14993    5               LEX_SYMBOL.SIZE = 16;
             14994    5               SUBSTR(LEX_SYMBOL.SYMBOL,0,16) = 'NOT ON EXCEPTION';
             14995    5             END;
             14996    4         END;
             14997    3      END;
      338    14999
      339    15000
      340    15001    2   IF (NOT O1COM.DEBUGGING_MODE)
      341    15002    2         AND LEX_SYMBOL.B.DEBUG_TOKEN THEN
      342    15003    2     GOTO NEW_TOKEN;
      343    15004
      344    15005    2   END REPLACED_TOKEN;
      345    15006        %EJECT ;
PL6.E3A0      #001=Z8EL$LEX File=Z8EL.:Z8A6TSI                                   SAT 08/09/97 12:03 Page:26
      346    15007    1   SCAN_COMMENT_ENTRY: PROC ;
      347    15008
      348    15009    2     DCL CONTINUATION_ISN SBIN WORD;
      349    15010
      350    15011    2     CONTINUATION_ISN = CURRENT_BUFFER$ -> FILL_BUFFER.ISN;
      351    15012
      352    15013    2     IGNORE_COPY_REPLACE = TRUE;
      353    15014
      354    15015             /*N* Free_Format -- The following DO is valid for fixed_format
      355    15016                                 and the free_format subset only.
      356    15017             */
      357    15018
      358    15019    3          DO UNTIL LEX_SYMBOL.COLUMN < O1COM.AREA_B_COLUMN_START
      359    15020    3                    OR
      360    15021    3                   LEX_SYMBOL.TYPE = %END_OF_FILE;
      361    15022
      362    15023    3            CALL REPLACED_TOKEN;
      363    15024
      364    15025    3            IF O1COM.AUTHOR_COMMENT     THEN
      365    15026    4             DO;
      366    15027    4                IF LEX_SYMBOL.COLUMN < O1COM.AREA_B_COLUMN_START OR
      367    15028    4                    LEX_SYMBOL.TYPE = %END_OF_FILE        THEN   ;
      368    15029    4                  ELSE
      369    15030    5                    DO;
      370    15031    5                      CALL Z8AH$SEARCH_;
      371    15032    5                      COMCOM.AUTHOR$ = DNT$;
      372    15033    5                    END;
      373    15034    4                O1COM.AUTHOR_COMMENT = %FALSE;
      374    15035    4             END;
      375    15036
      376    15037    3            IF O1COM.ID_DIV_COUNT = 0  AND O1COM.INSTAL_ON THEN
      377    15038    4              DO;
      378    15039    4                IF LEX_SYMBOL.COLUMN >= O1COM.AREA_B_COLUMN_START AND
      379    15040    4                  (LEX_SYMBOL.TYPE = %ALPHA_LITERAL OR
      380    15041    4                   LEX_SYMBOL.TYPE = %SINGLE_QUOTE) THEN
      381    15042    5                  DO;
      382    15043    5                    CALL Z8AH$SEARCH_;
PL6.E3A0      #001=Z8EL$LEX File=Z8EL.:Z8A6TSI                                   SAT 08/09/97 12:03 Page:27
      383    15044
      384    15045                         %NEW_HEAP (@POINTER = HEAP$$);
             15046    6     DO;
             15047    6       CALL Z8ED$NEW_HEAP (@POINTER, @SIZE);
             15048    6     END;
      385    15050
      386    15051                         %INIT_LX_TERMINAL (@POINTER = HEAP$$,
      387    15052                                            @DNT$    = DNT$,
      388    15053                                            @SYMBOL  = LEX_SYMBOL.TYPE,
      389    15054                                            @LINE    = LEX_SYMBOL.LINE,
      390    15055                                            @COLUMN  = LEX_SYMBOL.COLUMN);
             15056    6     DO;
             15057    6       @POINTER -> LX_TERMINAL.ID     = %LX_TERMINAL;
             15058    6       @POINTER -> LX_TERMINAL.B      = '0'B;
             15059            %IF (TEXTCHAR(@BERROR) ~= '');
             15061            %ENDIF;
             15062    6       @POINTER -> LX_TERMINAL.TYPE   = @TYPE %;
             15063            %IF (TEXTCHAR(@LA_ITEM) = '');
             15064    6         @POINTER -> LX_TERMINAL.LINK   = @LINK;
             15065            %ENDIF;
             15066    6       @POINTER -> LX_TERMINAL.ST$    = @ST$ ;
             15067    6       @POINTER -> LX_TERMINAL.SYMBOL = @SYMBOL;
             15068    6       @POINTER -> LX_TERMINAL.DNT$   = @DNT$;
             15069    6       @POINTER -> LX_TERMINAL.LINE   = @LINE;
             15070    6       @POINTER -> LX_TERMINAL.COLUMN = @COLUMN;
             15071    6     END;
      391    15073
      392    15074    5                    IF COMCOM.INSTALLATION$ ~= ADDR(NIL) THEN
      393    15075    5                      CALL Z8ED$DISPOSE_ABSSYN_TREE (COMCOM.INSTALLATION$);
      394    15076
      395    15077    5                    COMCOM.INSTALLATION$ = HEAP$$;
      396    15078
      397    15079    5                  END;
      398    15080    4                O1COM.INSTAL_ON = FALSE;
      399    15081    4              END;
      400    15082
      401    15083    3            IF CURRENT_BUFFER$ -> FILL_BUFFER.LINE_TYPE.CONTINUATION THEN
PL6.E3A0      #001=Z8EL$LEX File=Z8EL.:Z8A6TSI                                   SAT 08/09/97 12:03 Page:28
      402    15084    3              IF CONTINUATION_ISN ~=
      403    15085    3                   CURRENT_BUFFER$ -> FILL_BUFFER.ISN THEN
      404    15086    4                DO;
      405    15087    4                  CALL Z8AE$ERROR (%E$ERR_COMMENT_ENTRY_CONTINUE,
      406    15088    4                           CURRENT_BUFFER$ -> FILL_BUFFER.ISN,
      407    15089    4                           O1COM.AREA_A_COLUMN_START - 1);
      408    15090    4                  CONTINUATION_ISN = CURRENT_BUFFER$ -> FILL_BUFFER.ISN;
      409    15091    4                END;
      410    15092
      411    15093    3          END ;
      412    15094
      413    15095    2     IGNORE_COPY_REPLACE = FALSE;
      414    15096
      415    15097    2   END SCAN_COMMENT_ENTRY ;
      416    15098        %EJECT;
PL6.E3A0      #001=Z8EL$LEX File=Z8EL.:Z8A6TSI                                   SAT 08/09/97 12:03 Page:29
      417    15099        %MACRO CHECK_REDECL_OF_RESERVED_WORD;
      418    15100          DO;
      419    15101
      420    15102               IF O1COM.RECORD_DCL THEN
      421    15103                 DO;
      422    15104
      423    15105        /*V*
      424    15106            RESERVED_WRD_DCL_CHECK -- If the item is a reserved word and we are in
      425    15107                                      the process of a declaration the reserved word
      426    15108                                      bit is turned off in the DNT.  The item is changed
      427    15109                                      to a user word so that a person can declare a
      428    15110                                      reserved word and use that data name in the
      429    15111                                      program.  He may not use it as a reserved
      430    15112                                      word though.
      431    15113
      432    15114                                      This was done due to the fact that there are
      433    15115                                      new reserved words in COBOL85 in addition to
      434    15116                                      to the many before.
      435    15117        */
      436    15118
      437    15119                   IF DNT$->DNT.B.RW AND O1COM.PARSE_ERROR_COUNT = 0 THEN
      438    15120                     DO CASE (DNT$ -> DNT.RW_NO);
      439    15121
      440    15122                       CASE(ELSE);
      441    15123
      442    15124                         CALL Z8AE$ERROR (%E$RW_USED_AS_DATA_NAME,
      443    15125                                          LEX_SYMBOL.LINE,
      444    15126                                          LEX_SYMBOL.COLUMN,
      445    15127                                          DNT$);
      446    15128                         /* Create new DNT for non-reserved word since reserved
      447    15129                               word is in constant storage */
      448    15130                         TDNT$ = DNT$;
      449    15131                         %NEW_DNT(@SIZE = LEX_SYMBOL.SIZE,
      450    15132                                     @NAME = LEX_SYMBOL.SYMBOL,
      451    15133                                     @ST$ = TDNT$ -> DNT.ST$,
      452    15134                                     @NEXT = "DNT_BUCKETS(DNT_BUCKET_NUMBER)");
      453    15135                         DNT$ -> DNT.ATTR = TDNT$ -> DNT.ATTR;
PL6.E3A0      #001=Z8EL$LEX File=Z8EL.:Z8A6TSI                                   SAT 08/09/97 12:03 Page:30
      454    15136                         DNT$ -> DNT.B.USER_WORD = TRUE;
      455    15137                         DNT$ -> DNT.B.RW = FALSE;
      456    15138                         DNT_BUCKETS(DNT_BUCKET_NUMBER) = DNT$;
      457    15139
      458    15140                       CASE (%RSV_WRD_FILLER,  %RSV_WRD_PICTURE, %RSV_WRD_USAGE,
      459    15141                             %RSV_WRD_SIGN,    %RSV_WRD_LEADING, %RSV_WRD_TRAILING,
      460    15142                             %RSV_WRD_DISPLAY, %RSV_WRD_JUSTIFIED, %RSV_WRD_BLANK,
      461    15143                             %RSV_WRD_SOURCE,     %RSV_WRD_LINE,    %RSV_WRD_COLUMN,
      462    15144                             %RSV_WRD_VALUE,   %RSV_WRD_VALUES,  %RSV_WRD_SUM,
      463    15145                             %RSV_WRD_GROUP,   %RSV_WRD_NEXT,    %RSV_WRD_TYPE,
      464    15146                             %RSV_WRD_REDEFINES, %RSV_WRD_IS,    %RSV_WRD_EXTERNAL,
      465    15147                             %RSV_WRD_GLOBAL,  %RSV_WRD_COMP,    %RSV_WRD_INDEX,
      466    15148                             %RSV_WRD_OCCURS,  %RSV_WRD_ASCENDING,  %RSV_WRD_DESCENDING,
      467    15149                             %RSV_WRD_INDEXED,  %RSV_WRD_SYNCHRONIZED, %RSV_WRD_RENAMES,
      468    15150                             %RSV_WRD_COMP_1,  %RSV_WRD_COMP_2,  %RSV_WRD_COMP_3,
      469    15151                             %RSV_WRD_COMP_4,  %RSV_WRD_COMP_5,  %RSV_WRD_COMP_6,
      470    15152                             %RSV_WRD_COMP_7,  %RSV_WRD_COMP_8,  %RSV_WRD_COMP_11,
      471    15153                             %RSV_WRD_COMP_12, %RSV_WRD_COMP_13, %RSV_WRD_COMP_14,
      472    15154                             %RSV_WRD_DB_KEY, %RSV_WRD_POINTER);
      473    15155                        ;  /* do nothing */
      474    15156                     END;
      475    15157
      476    15158                   O1COM.RECORD_DCL = '0'B;
      477    15159                 END;
      478    15160
      479    15161          END;
      480    15162        %MEND;
      481    15163        %EJECT;
PL6.E3A0      #001=Z8EL$LEX File=Z8EL.:Z8A6TSI                                   SAT 08/09/97 12:03 Page:31
      482    15164        %MACRO PROCESS_RESERVED_WORD;
      483    15165                 DO ;
      484    15166
      485    15167        /*V*
      486    15168            RESERVED_WORD -- If we have encountered a reserved word then the symbol
      487    15169                             field in the stack is assigned the reserved word number.
      488    15170                             If we see the start of a picture string (PIC or PICTURE)
      489    15171                             then we set the state symbolizing the start of a picture
      490    15172                             string.
      491    15173
      492    15174        */
      493    15175
      494    15176                   IF O1COM.LA_STK.COLUMN(O1COM.LA_PUT) < O1COM.AREA_B_COLUMN_START
      495    15177                      /*N* Free_Format --  AND NOT COMCOM.OB.FORMAT */
      496    15178                       AND O1COM.PD_FLAG
      497    15179                       AND NOT DNT$ -> DNT.B.MUST_AREA_A
      498    15180                       AND NOT DNT$ -> DNT.B.ACCEPT_AREA_A THEN
      499    15181                     CALL Z8AE$ERROR(%E$AREA_A_ERROR,
      500    15182                                     O1COM.LA_STK.LINE(O1COM.LA_PUT),
      501    15183                                     O1COM.LA_STK.COLUMN(O1COM.LA_PUT),
      502    15184                                     DNT$);
      503    15185
      504    15186                   IF DNT$ -> DNT.B.MUST_AREA_A
      505    15187                   /*N* Free_Format -- AND NOT COMCOM.OB.FORMAT */
      506    15188                   AND O1COM.LA_STK.COLUMN(O1COM.LA_PUT) >= O1COM.AREA_B_COLUMN_START THEN
      507    15189                     CALL Z8AE$ERROR (%E$MUST_BE_IN_AREA_A,
      508    15190                                      O1COM.LA_STK.LINE (O1COM.LA_PUT),
      509    15191                                      O1COM.LA_STK.COLUMN (O1COM.LA_PUT),
      510    15192                                      DNT$);
      511    15193
      512    15194                   O1COM.LA_STK.SYMBOL(O1COM.LA_PUT) = DNT$->DNT.RW_NO;
      513    15195
      514    15196                   DO CASE(O1COM.LA_STK.SYMBOL(O1COM.LA_PUT)) ;
      515    15197
      516    15198                     CASE( %RSV_WRD_DATE_COMPILED,
      517    15199                         %RSV_WRD_DATE_WRITTEN,
      518    15200                         %RSV_WRD_SECURITY);
PL6.E3A0      #001=Z8EL$LEX File=Z8EL.:Z8A6TSI                                   SAT 08/09/97 12:03 Page:32
      519    15201
      520    15202                       LEX_STATE = %LS_PERIOD_BEFORE_COMMENT_ENTRY;
      521    15203
      522    15204                     CASE(%RSV_WRD_AUTHOR);
      523    15205
      524    15206                            LEX_STATE = %LS_PERIOD_BEFORE_COMMENT_ENTRY;
      525    15207                            O1COM.AUTHOR_COMMENT = %TRUE;
      526    15208
      527    15209                     CASE(%RSV_WRD_INSTALLATION);
      528    15210
      529    15211                            LEX_STATE = %LS_PERIOD_BEFORE_COMMENT_ENTRY;
      530    15212                            O1COM.INSTAL_ON = %TRUE;
      531    15213
      532    15214                     CASE(%RSV_WRD_PICTURE) ;
      533    15215
      534    15216                       LEX_STATE = %LS_PICTURE_OR_IS;
      535    15217
      536    15218                     CASE(%RSV_WRD_ACCEPT,    %RSV_WRD_ADD,      %RSV_WRD_ALTER,
      537    15219                          %RSV_WRD_CALL,      %RSV_WRD_CANCEL,   %RSV_WRD_CLOSE,
      538    15220                          %RSV_WRD_COMPUTE,   %RSV_WRD_CONTINUE, %RSV_WRD_DELETE,
      539    15221                          %RSV_WRD_DISABLE,   %RSV_WRD_DIVIDE,   %RSV_WRD_ENABLE,
      540    15222                          %RSV_WRD_EVALUATE,  %RSV_WRD_EXAMINE,  %RSV_WRD_EXIT,
      541    15223                          %RSV_WRD_GO,        %RSV_WRD_GENERATE, %RSV_WRD_IF,
      542    15224                          %RSV_WRD_INITIATE,  %RSV_WRD_INITIALIZE,%RSV_WRD_INSPECT,
      543    15225                          %RSV_WRD_MERGE,     %RSV_WRD_MOVE,     %RSV_WRD_MULTIPLY,
      544    15226                          %RSV_WRD_OPEN,      %RSV_WRD_PERFORM,  %RSV_WRD_PURGE,
      545    15227                          %RSV_WRD_READ,      %RSV_WRD_RECEIVE,  %RSV_WRD_RELEASE,
      546    15228                          %RSV_WRD_RETURN,    %RSV_WRD_REWRITE,  %RSV_WRD_SEND,
      547    15229                          %RSV_WRD_SEARCH,    %RSV_WRD_START,    %RSV_WRD_SET,
      548    15230                          %RSV_WRD_STRING,    %RSV_WRD_STOP,     %RSV_WRD_SUBTRACT,
      549    15231                          %RSV_WRD_SUPPRESS,  %RSV_WRD_TERMINATE,%RSV_WRD_UNSTRING,
      550    15232                          %RSV_WRD_WRITE,
      551    15233                          %RSV_WRD_CONNECT,   %RSV_WRD_DISCONNECT,%RSV_WRD_ERASE,
      552    15234                          %RSV_WRD_FIND,      %RSV_WRD_FINISH,   %RSV_WRD_GET,
      553    15235                          %RSV_WRD_MODIFY,    %RSV_WRD_PRECALCULATE,
      554    15236                          %RSV_WRD_READY,    %RSV_WRD_STORE);
      555    15237
PL6.E3A0      #001=Z8EL$LEX File=Z8EL.:Z8A6TSI                                   SAT 08/09/97 12:03 Page:33
      556    15238                       %SAVE_IMPERATIVE_STMT_RSV_WRD ;
      557    15239
      558    15240                     CASE(%RSV_WRD_QUOTES,    %RSV_WRD_LOW_VALUES,
      559    15241                          %RSV_WRD_SPACES,    %RSV_WRD_ZEROES,     %RSV_WRD_HIGH_VALUES);
      560    15242
      561    15243                       O1COM.LA_STK.TYPE(O1COM.LA_PUT) = %TYT;
      562    15244
      563    15245
      564    15246
      565    15247                   END ;
      566    15248
      567    15249                   IF NOT LEX_SYMBOL.B.CONTINUED_TOKEN THEN
      568    15250                     SAVED_CONT_FLAG = FALSE;
      569    15251
      570    15252                 END ;
      571    15253        %MEND;
      572    15254        %EJECT;
PL6.E3A0      #001=Z8EL$LEX File=Z8EL.:Z8A6TSI                                   SAT 08/09/97 12:03 Page:34
      573    15255        %MACRO PROCESS_USER_WORD;
      574    15256                 DO;
      575    15257                   /* for user word */
      576    15258
      577    15259                   DNT$ -> DNT.B.USER_WORD = TRUE;
      578    15260
      579    15261                   /* Check to make sure userword does not end in dash */
      580    15262                   IF SUBSTR(LEX_SYMBOL.SYMBOL,
      581    15263                             LEX_SYMBOL.SIZE - 1,
      582    15264                             1) = '-' THEN
      583    15265                     DO;
      584    15266                       CALL Z8AE$ERROR (%E$USERWORD_END_DASH_ERROR,
      585    15267                                        LEX_SYMBOL.LINE,
      586    15268                                        LEX_SYMBOL.COLUMN);
      587    15269                     END;
      588    15270
      589    15271                   /* Check to make sure userword <= 30 characters */
      590    15272                   IF LEX_SYMBOL.SIZE > %USER_WORD_MAX_SIZE
      591    15273                           AND NOT O1COM.PD_FLAG THEN
      592    15274                     DO;
      593    15275                       CALL Z8AE$ERROR (%E$USERWORD_TOO_LONG,
      594    15276                                        LEX_SYMBOL.LINE,
      595    15277                                        LEX_SYMBOL.COLUMN);
      596    15278                       LEX_SYMBOL.SIZE = 30;
      597    15279                       DNT$ -> DNT.TEXT.LENGTH = 30;
      598    15280                     END;
      599    15281
      600    15282                   /* Check for at least one letter in userword */
      601    15283
      602    15284              /* Check was disabled because paragraph names do not have to
      603    15285                    contain letters in the name.  Therefore, the check must
      604    15286                    either be:
      605    15287
      606    15288                       1) done after the parse to differentiate between
      607    15289                            paragraph names and data names.
      608    15290
      609    15291                       2) Change user word that contain no letters to be
PL6.E3A0      #001=Z8EL$LEX File=Z8EL.:Z8A6TSI                                   SAT 08/09/97 12:03 Page:35
      610    15292                            paragraph names
      611    15293
      612    15294                       3) Disabled completely.
      613    15295                   CALL SEARCH (CHAR_COLUMN,
      614    15296                                CHAR_CLASS,
      615    15297                                LETTER_SEARCH_TABLE,
      616    15298                                SUBSTR(LEX_SYMBOL.SYMBOL, 0, LEX_SYMBOL.SIZE));
      617    15299                   IF CHAR_CLASS = %END_OF_LINE THEN
      618    15300                     DO;
      619    15301                       CALL Z8AE$ERROR (%E$NO_LETTER_USERWORD,
      620    15302                                        LEX_SYMBOL.LINE,
      621    15303                                        LEX_SYMBOL.COLUMN);
      622    15304                     END;
      623    15305
      624    15306              */
      625    15307                   /* Check for no $ or _ if ANSI option */
      626    15308                   IF COMCOM.OB.FIPS.LEVEL > 0 THEN
      627    15309                     DO;
      628    15310                       CALL SEARCH (CHAR_COLUMN,
      629    15311                                    CHAR_CLASS,
      630    15312                                    ANSI_USERWORD_SCAN_TABLE,
      631    15313                                    SUBSTR(LEX_SYMBOL.SYMBOL,
      632    15314                                           0,
      633    15315                                           LEX_SYMBOL.SIZE));
      634    15316                       IF CHAR_CLASS ~= %END_OF_LINE THEN
      635    15317                         CALL Z8AE$ERROR (%E$USERWORD_ANSI_ERROR,
      636    15318                                          LEX_SYMBOL.LINE,
      637    15319                                          LEX_SYMBOL.COLUMN);
      638    15320                     END;
      639    15321                   IF O1COM.LA_STK.COLUMN(O1COM.LA_PUT) < O1COM.AREA_B_COLUMN_START THEN
      640    15322                     DO;
      641    15323                       /*N* Free_Format -- IF NOT COMCOM.OB.FORMAT THEN */
      642    15324                         IF O1COM.PD_FLAG THEN
      643    15325                           O1COM.LA_STK.SYMBOL(O1COM.LA_PUT) = %PARA_DEF;
      644    15326                         ELSE
      645    15327                           O1COM.LA_STK.SYMBOL(O1COM.LA_PUT) = %NAME;
      646    15328                     END;
PL6.E3A0      #001=Z8EL$LEX File=Z8EL.:Z8A6TSI                                   SAT 08/09/97 12:03 Page:36
      647    15329                   ELSE
      648    15330                     IF (O1COM.LA_STK.ST$(O1COM.LA_PUT) ~= ADDR(NIL))
      649    15331                     AND ((O1COM.LA_STK.ST$(O1COM.LA_PUT) -> ST.ID = %PARA
      650    15332                              OR
      651    15333                          O1COM.LA_STK.ST$(O1COM.LA_PUT) -> ST.ID = %SECTION)
      652    15334            AND O1COM.LA_STK.ST$(O1COM.LA_PUT) -> VARIABLE.PROC$ = O1COM.CURRENT_PROC$) THEN
      653    15335                       O1COM.LA_STK.SYMBOL(O1COM.LA_PUT) = %PARA_REF;
      654    15336                     ELSE
      655    15337                       /*N* Free_Format -- IF NOT COMCOM.OB.FORMAT THEN */
      656    15338                         O1COM.LA_STK.SYMBOL(O1COM.LA_PUT) = %NAME;
      657    15339
      658    15340                     /*N* Free_Format --
      659    15341                       ELSE
      660    15342                         O1COM.LA_STK.SYMBOL(O1COM.LA_PUT) = %NAME_OR_PARA;
      661    15343                     */
      662    15344
      663    15345
      664    15346                   IF O1COM.LA_STK.ST$ (O1COM.LA_PUT) ~= ADDR(NIL) THEN
      665    15347                     IF O1COM.LA_STK.ST$ (O1COM.LA_PUT) -> ST.ID = %SYM_CHAR THEN
      666    15348        CHECK_SYM_CHAR: DO;
      667    15349                          PROC$$ = O1COM.CURRENT_PROC$;
      668    15350                          DO WHILE (O1COM.LA_STK.ST$ (O1COM.LA_PUT) -> VARIABLE.PROC$ ~=
      669    15351                              PROC$$);
      670    15352                            PROC$$ = PROC$$ -> PROC_.FATHER;
      671    15353                            IF PROC$$ = ADDR(NIL) THEN
      672    15354                              EXIT CHECK_SYM_CHAR;
      673    15355                          END; /* WHILE */
      674    15356                          O1COM.LA_STK.B.ALL  (O1COM.LA_PUT) = TRUE;
      675    15357                          O1COM.LA_STK.SYMBOL (O1COM.LA_PUT) = %ALPHA_LITERAL;
      676    15358                        END; /* CHECK_SYM_CHAR */
      677    15359
      678    15360                   SAVED_CONT_FLAG = FALSE;
      679    15361
      680    15362                  END;
      681    15363        %MEND;
      682    15364        %EJECT;
PL6.E3A0      #001=Z8EL$LEX File=Z8EL.:Z8A6TSI                                   SAT 08/09/97 12:03 Page:37
      683    15365    1   PROCESS_SYMBOL : PROC;
      684    15366
      685    15367    2   IF LEX_SYMBOL.B.CONTINUED_TOKEN THEN
      686    15368    2     SAVED_CONT_FLAG = TRUE;
      687    15369    2   O1COM.LA_STK.B.HIGH_LEV(O1COM.LA_PUT) = SAVED_CONT_FLAG;
      688    15370
      689    15371    3   DO CASE(LEX_SYMBOL.TYPE);
      690    15372
      691    15373    3     CASE(%LEFT_PAREN,  %RIGHT_PAREN,   %STAR,
      692    15374    3          %STAR_STAR,   %PLUS,          %MINUS,
      693    15375    3                        %SLASH,         %COLON,
      694    15376    3          %LESS_THAN,   %GREATER_THAN,  %EQUAL,
      695    15377    3          %LESS_THAN_OR_EQUAL, %GREATER_THAN_OR_EQUAL,
      696    15378    3          %UP_ARROW,    %END_OF_FILE);
      697    15379
      698    15380            /* These symbols require no special handling */
      699    15381    3       ;
      700    15382
      701    15383    3     CASE(%ILLEGAL_SYMBOL, %PSEUDO);
      702    15384
      703    15385    3       O1COM.LA_STK.SYMBOL(O1COM.LA_PUT) = %ILLEGAL_SYMBOL;
      704    15386    3       IF SEARCH_REQUIRED THEN
      705    15387    3         CALL Z8AH$SEARCH_;
      706    15388    3       O1COM.LA_STK.DNT$(O1COM.LA_PUT) = DNT$;
      707    15389
      708    15390    3     CASE(%PERIOD);
      709    15391
      710    15392    3       IF LEX_STATE = %LS_PERIOD_BEFORE_COMMENT_ENTRY THEN
      711    15393    4         DO;
      712    15394    4           LEX_STATE = %LS_COMMENT_ENTRY;
      713    15395    4         END;
      714    15396    3       ELSE
      715    15397    3         SAVED_CONT_FLAG = FALSE;
      716    15398
      717    15399    3     CASE(%ALPHA_LITERAL, %SINGLE_QUOTE);
      718    15400
      719    15401    3       IF SEARCH_REQUIRED THEN
PL6.E3A0      #001=Z8EL$LEX File=Z8EL.:Z8A6TSI                                   SAT 08/09/97 12:03 Page:38
      720    15402    3         CALL Z8AH$SEARCH_;
      721    15403            /* Check for null string */
      722    15404    3       IF LEX_SYMBOL.SIZE <= 2 THEN
      723    15405    4         DO;
      724    15406    4           CALL Z8AE$ERROR(%E$NULL_QUOTE_STRING,
      725    15407    4                           LEX_SYMBOL.LINE,
      726    15408    4                           LEX_SYMBOL.COLUMN);
      727    15409                /* "NULL QUOTE STRING ILLEGAL; A SPACE HAS BEEN INSERTED." */
      728    15410    4           LEX_SYMBOL.SIZE = 3;
      729    15411    4           LEX_SYMBOL.SYMBOL = '" "';
      730    15412    4           CALL Z8AH$SEARCH_;
      731    15413    4         END;
      732    15414    3       O1COM.LA_STK.DNT$(O1COM.LA_PUT) = DNT$;
      733    15415    3       O1COM.LA_STK.TYPE(O1COM.LA_PUT) = %TYT;
      734    15416    3       DNT$ -> DNT.B.ALPHA_LITERAL = TRUE;
      735    15417
      736    15418    3     CASE(%NUMBER);
      737    15419
      738    15420    3       IF SEARCH_REQUIRED THEN
      739    15421    3         CALL Z8AH$SEARCH_;
      740    15422
      741    15423          /*N* Free_Format --
      742    15424            IF COMCOM.OB.FORMAT THEN
      743    15425              O1COM.LA_STK.SYMBOL(O1COM.LA_PUT) = %NUMBER_OR_PARAGRAPH;
      744    15426            ELSE
      745    15427          */
      746    15428
      747    15429    3         IF LEX_SYMBOL.COLUMN < O1COM.AREA_B_COLUMN_START THEN
      748    15430    3           O1COM.LA_STK.SYMBOL(O1COM.LA_PUT) = %NUMBER_OR_PARAGRAPH;
      749    15431    3       O1COM.LA_STK.DNT$(O1COM.LA_PUT) = DNT$;
      750    15432    3       O1COM.LA_STK.TYPE(O1COM.LA_PUT) = %TYT;
      751    15433    3       SAVED_CONT_FLAG = FALSE;
      752    15434    3       DNT$ -> DNT.B.NUMERIC_LITERAL = TRUE;
      753    15435
      754    15436    3       IF LEX_SYMBOL.SIZE > %NUM_LIT_MAX_SIZE THEN
      755    15437    4         DO;
      756    15438    4           CALL Z8AE$ERROR(%E$NUMERIC_ITEM_TOO_LONG,
PL6.E3A0      #001=Z8EL$LEX File=Z8EL.:Z8A6TSI                                   SAT 08/09/97 12:03 Page:39
      757    15439    4                           LEX_SYMBOL.LINE,
      758    15440    4                           LEX_SYMBOL.COLUMN);
      759    15441    4           CALL CREATE_DUMMY_NUM_LIT;
      760    15442    4         END;
      761    15443    3       ELSE
      762    15444    3         IF COMCOM.OB.FIPS.LEVEL > 0
      763    15445    3               AND LEX_SYMBOL.SIZE > %ANSI_NUM_LIT_MAX_SIZE THEN
      764    15446    4           DO;
      765    15447    4             CALL Z8AE$ERROR (%E$ANSI_LARGE_NUMERIC_ITEM,
      766    15448    4                              LEX_SYMBOL.LINE,
      767    15449    4                              LEX_SYMBOL.COLUMN);
      768    15450    4           END;
      769    15451
      770    15452    3     CASE(%NUMERIC_LITERAL);
      771    15453
      772    15454    3       IF SEARCH_REQUIRED THEN
      773    15455    3         CALL Z8AH$SEARCH_;
      774    15456    3       O1COM.LA_STK.DNT$(O1COM.LA_PUT) = DNT$;
      775    15457    3       O1COM.LA_STK.TYPE(O1COM.LA_PUT) = %TYT;
      776    15458    3       SAVED_CONT_FLAG = FALSE;
      777    15459    3       DNT$ -> DNT.B.NUMERIC_LITERAL = TRUE;
      778    15460
      779    15461    3       CALL Z8AU$CREATE_NUM_DESC (LEX_SYMBOL.SYMBOL,
      780    15462    3                                  LEX_SYMBOL.SIZE,
      781    15463    3                                  NUM_DESC);
      782    15464            %VALIDATE_NUM_DESC;
             15465    4     DO;
             15466    4       IF COMCOM.OB.FIPS.LEVEL > 0
             15467    4             AND NUM_DESC.DIGITS_LEFT
             15468    4                   + NUM_DESC.DIGITS_RIGHT
             15469    4                     > %ANSI_NUM_LIT_MAX_SIZE THEN
             15470    5         DO;
             15471    5           CALL Z8AE$ERROR (%E$ANSI_LARGE_NUMERIC_ITEM,
             15472    5                            LEX_SYMBOL.LINE,
             15473    5                            LEX_SYMBOL.COLUMN);
             15474    5         END;
             15475    4       IF COMCOM.OB.FIPS.LEVEL > 0
PL6.E3A0      #001=Z8EL$LEX File=Z8EL.:Z8A6TSI                                   SAT 08/09/97 12:03 Page:40
             15476    4              AND NUM_DESC.DIGITS_EXPONENT > 0 THEN
             15477    5         DO;
             15478    5           CALL Z8AE$ERROR (%E$ANSI_FLOATING_POINT,
             15479    5                            LEX_SYMBOL.LINE,
             15480    5                            LEX_SYMBOL.COLUMN);
             15481    5         END;
             15482    4       IF NUM_DESC.DIGITS_LEFT
             15483    4              + NUM_DESC.DIGITS_RIGHT
             15484    4                > %NUM_LIT_MAX_SIZE THEN
             15485    5         DO;
             15486    5           CALL Z8AE$ERROR (%E$NUMERIC_ITEM_TOO_LONG,
             15487    5                            LEX_SYMBOL.LINE,
             15488    5                            LEX_SYMBOL.COLUMN);
             15489    5           CALL CREATE_DUMMY_NUM_LIT;
             15490    5         END;
             15491    4       ELSE
             15492    4         IF NUM_DESC.DIGITS_EXPONENT > %MAX_EXPONENT_DIGITS THEN
             15493    5           DO;
             15494    5             CALL Z8AE$ERROR (%E$TOO_LARGE_NUM_EXP,
             15495    5                              LEX_SYMBOL.LINE,
             15496    5                              LEX_SYMBOL.COLUMN);
             15497    5             CALL CREATE_DUMMY_NUM_LIT;
             15498    5           END;
             15499    4       IF NUM_DESC.COMMA_PRESENT
             15500    4       AND (O1COM.CURRENT_PROC$ = ADDR(NIL)
             15501    4            OR NOT O1COM.CURRENT_PROC$ -> PROC_.B.COMMA_IS_DECIMAL) THEN
             15502    4         CALL Z8AE$ERROR(%E$COMMA_IN_NUMBER,
             15503    4                         LEX_SYMBOL.LINE,
             15504    4                         LEX_SYMBOL.COLUMN);
             15505    4     END;
      783    15507
      784    15508    3     CASE(%USER_WORD);
      785    15509
      786    15510    3       IF SEARCH_REQUIRED THEN
      787    15511    3         CALL Z8AH$SEARCH_;
      788    15512
      789    15513            %CHECK_REDECL_OF_RESERVED_WORD;
PL6.E3A0      #001=Z8EL$LEX File=Z8EL.:Z8A6TSI                                   SAT 08/09/97 12:03 Page:41
             15514    4     DO;
             15515    4          IF O1COM.RECORD_DCL THEN
             15516    5            DO;
             15517        /*V*
             15518            RESERVED_WRD_DCL_CHECK -- If the item is a reserved word and we are in
             15519                                      the process of a declaration the reserved word
             15520                                      bit is turned off in the DNT.  The item is changed
             15521                                      to a user word so that a person can declare a
             15522                                      reserved word and use that data name in the
             15523                                      program.  He may not use it as a reserved
             15524                                      word though.
             15525                                      This was done due to the fact that there are
             15526                                      new reserved words in COBOL85 in addition to
             15527                                      to the many before.
             15528        */
             15529    5              IF DNT$->DNT.B.RW AND O1COM.PARSE_ERROR_COUNT = 0 THEN
             15530    6                DO CASE (DNT$ -> DNT.RW_NO);
             15531    6                  CASE(ELSE);
             15532    6                    CALL Z8AE$ERROR (%E$RW_USED_AS_DATA_NAME,
             15533    6                                     LEX_SYMBOL.LINE,
             15534    6                                     LEX_SYMBOL.COLUMN,
             15535    6                                     DNT$);
             15536                         /* Create new DNT for non-reserved word since reserved
             15537                               word is in constant storage */
             15538    6                    TDNT$ = DNT$;
             15539                         %NEW_DNT(@SIZE = LEX_SYMBOL.SIZE,
             15540                                     @NAME = LEX_SYMBOL.SYMBOL,
             15541                                     @ST$ = TDNT$ -> DNT.ST$,
             15542                                     @NEXT = "DNT_BUCKETS(DNT_BUCKET_NUMBER)");
             15543          %RESERVE_DNT(POINTER = @POINTER,  SIZE = @SIZE);
             15544    7          DO ;
             15545    7            ITERATION = (SIZE+21)/4 ;
             15546    7            IF DNT_.BOTTOM + ITERATION >= DNT_.FLOOR THEN
             15547    7              CALL Z8AR$RESERVER(ADDR(DNT_));
             15548    7            POINTER                  = PINCRW (DNT_.FIRST, DNT_.BOTTOM);
             15549    7            DNT_.BOTTOM              = DNT_.BOTTOM + ITERATION ;
             15550    7            POINTER->DNT.ID          = ITEM % ;
PL6.E3A0      #001=Z8EL$LEX File=Z8EL.:Z8A6TSI                                   SAT 08/09/97 12:03 Page:42
             15551    7            POINTER->DNT.N           = ITERATION ;
             15552    7            POINTER->DNT.TEXT.LENGTH = SIZE;
             15553    7          END ;
             15555    6     @POINTER -> DNT.ST$        = @ST$;
             15556    6     @POINTER -> DNT.NEXT       = @NEXT;
             15557    6     @POINTER -> DNT.ATTR       = '0'B;
             15558    6     @POINTER -> DNT.RW_NO      = @RW_NO;
             15559    6     @POINTER -> DNT.TEXT.NAME  = @NAME;
             15560          %IF @RW;
             15562          %ENDIF;
             15563          %IF @USER_WORD;
             15565          %ENDIF;
             15566          %IF @SYSTEM_NAME;
             15568          %ENDIF;
             15569          %IF @DUPLICATE;
             15571          %ENDIF;
             15572          %IF @NUMERIC_LITERAL;
             15574          %ENDIF;
             15575          %IF @REPLACE_TOKEN;
             15577          %ENDIF;
             15578          %IF @ALPHA_LITERAL;
             15580          %ENDIF;
             15581          %IF @FIGURATIVE_CONSTANT;
             15583          %ENDIF;
             15584          %IF @ALL;
             15586          %ENDIF;
             15587          %IF @VERB;
             15589          %ENDIF;
             15590          %IF @ACCEPT_AREA_A;
             15592          %ENDIF;
             15593          %IF @ERROR_VARIABLE;
             15595          %ENDIF;
             15596          %IF @MUST_AREA_A;
             15598          %ENDIF;
             15600    6                    DNT$ -> DNT.ATTR = TDNT$ -> DNT.ATTR;
             15601    6                    DNT$ -> DNT.B.USER_WORD = TRUE;
             15602    6                    DNT$ -> DNT.B.RW = FALSE;
PL6.E3A0      #001=Z8EL$LEX File=Z8EL.:Z8A6TSI                                   SAT 08/09/97 12:03 Page:43
             15603    6                    DNT_BUCKETS(DNT_BUCKET_NUMBER) = DNT$;
             15604    6                  CASE (%RSV_WRD_FILLER,  %RSV_WRD_PICTURE, %RSV_WRD_USAGE,
             15605    6                        %RSV_WRD_SIGN,    %RSV_WRD_LEADING, %RSV_WRD_TRAILING,
             15606    6                        %RSV_WRD_DISPLAY, %RSV_WRD_JUSTIFIED, %RSV_WRD_BLANK,
             15607    6                        %RSV_WRD_SOURCE,     %RSV_WRD_LINE,    %RSV_WRD_COLUMN,
             15608    6                        %RSV_WRD_VALUE,   %RSV_WRD_VALUES,  %RSV_WRD_SUM,
             15609    6                        %RSV_WRD_GROUP,   %RSV_WRD_NEXT,    %RSV_WRD_TYPE,
             15610    6                        %RSV_WRD_REDEFINES, %RSV_WRD_IS,    %RSV_WRD_EXTERNAL,
             15611    6                        %RSV_WRD_GLOBAL,  %RSV_WRD_COMP,    %RSV_WRD_INDEX,
             15612    6                        %RSV_WRD_OCCURS,  %RSV_WRD_ASCENDING,  %RSV_WRD_DESCENDING,
             15613    6                        %RSV_WRD_INDEXED,  %RSV_WRD_SYNCHRONIZED, %RSV_WRD_RENAMES,
             15614    6                        %RSV_WRD_COMP_1,  %RSV_WRD_COMP_2,  %RSV_WRD_COMP_3,
             15615    6                        %RSV_WRD_COMP_4,  %RSV_WRD_COMP_5,  %RSV_WRD_COMP_6,
             15616    6                        %RSV_WRD_COMP_7,  %RSV_WRD_COMP_8,  %RSV_WRD_COMP_11,
             15617    6                        %RSV_WRD_COMP_12, %RSV_WRD_COMP_13, %RSV_WRD_COMP_14,
             15618    6                        %RSV_WRD_DB_KEY, %RSV_WRD_POINTER);
             15619    6                   ;  /* do nothing */
             15620    6                END;
             15621    5              O1COM.RECORD_DCL = '0'B;
             15622    5            END;
             15623    4     END;
      790    15625
      791    15626    3       O1COM.LA_STK.DNT$(O1COM.LA_PUT) = DNT$;
      792    15627    3       O1COM.LA_STK.ST$(O1COM.LA_PUT) = DNT$ -> DNT.ST$;
      793    15628
      794    15629    3       IF DNT$ -> DNT.B.RW THEN
      795    15630              %PROCESS_RESERVED_WORD;
             15631    4            DO ;
             15632        /*V*
             15633            RESERVED_WORD -- If we have encountered a reserved word then the symbol
             15634                             field in the stack is assigned the reserved word number.
             15635                             If we see the start of a picture string (PIC or PICTURE)
             15636                             then we set the state symbolizing the start of a picture
             15637                             string.
             15638        */
             15639    4              IF O1COM.LA_STK.COLUMN(O1COM.LA_PUT) < O1COM.AREA_B_COLUMN_START
             15640                      /*N* Free_Format --  AND NOT COMCOM.OB.FORMAT */
PL6.E3A0      #001=Z8EL$LEX File=Z8EL.:Z8A6TSI                                   SAT 08/09/97 12:03 Page:44
             15641    4                  AND O1COM.PD_FLAG
             15642    4                  AND NOT DNT$ -> DNT.B.MUST_AREA_A
             15643    4                  AND NOT DNT$ -> DNT.B.ACCEPT_AREA_A THEN
             15644    4                CALL Z8AE$ERROR(%E$AREA_A_ERROR,
             15645    4                                O1COM.LA_STK.LINE(O1COM.LA_PUT),
             15646    4                                O1COM.LA_STK.COLUMN(O1COM.LA_PUT),
             15647    4                                DNT$);
             15648    4              IF DNT$ -> DNT.B.MUST_AREA_A
             15649                   /*N* Free_Format -- AND NOT COMCOM.OB.FORMAT */
             15650    4              AND O1COM.LA_STK.COLUMN(O1COM.LA_PUT) >= O1COM.AREA_B_COLUMN_START THEN
             15651    4                CALL Z8AE$ERROR (%E$MUST_BE_IN_AREA_A,
             15652    4                                 O1COM.LA_STK.LINE (O1COM.LA_PUT),
             15653    4                                 O1COM.LA_STK.COLUMN (O1COM.LA_PUT),
             15654    4                                 DNT$);
             15655    4              O1COM.LA_STK.SYMBOL(O1COM.LA_PUT) = DNT$->DNT.RW_NO;
             15656    5              DO CASE(O1COM.LA_STK.SYMBOL(O1COM.LA_PUT)) ;
             15657    5                CASE( %RSV_WRD_DATE_COMPILED,
             15658    5                    %RSV_WRD_DATE_WRITTEN,
             15659    5                    %RSV_WRD_SECURITY);
             15660    5                  LEX_STATE = %LS_PERIOD_BEFORE_COMMENT_ENTRY;
             15661    5                CASE(%RSV_WRD_AUTHOR);
             15662    5                       LEX_STATE = %LS_PERIOD_BEFORE_COMMENT_ENTRY;
             15663    5                       O1COM.AUTHOR_COMMENT = %TRUE;
             15664    5                CASE(%RSV_WRD_INSTALLATION);
             15665    5                       LEX_STATE = %LS_PERIOD_BEFORE_COMMENT_ENTRY;
             15666    5                       O1COM.INSTAL_ON = %TRUE;
             15667    5                CASE(%RSV_WRD_PICTURE) ;
             15668    5                  LEX_STATE = %LS_PICTURE_OR_IS;
             15669    5                CASE(%RSV_WRD_ACCEPT,    %RSV_WRD_ADD,      %RSV_WRD_ALTER,
             15670    5                     %RSV_WRD_CALL,      %RSV_WRD_CANCEL,   %RSV_WRD_CLOSE,
             15671    5                     %RSV_WRD_COMPUTE,   %RSV_WRD_CONTINUE, %RSV_WRD_DELETE,
             15672    5                     %RSV_WRD_DISABLE,   %RSV_WRD_DIVIDE,   %RSV_WRD_ENABLE,
             15673    5                     %RSV_WRD_EVALUATE,  %RSV_WRD_EXAMINE,  %RSV_WRD_EXIT,
             15674    5                     %RSV_WRD_GO,        %RSV_WRD_GENERATE, %RSV_WRD_IF,
             15675    5                     %RSV_WRD_INITIATE,  %RSV_WRD_INITIALIZE,%RSV_WRD_INSPECT,
             15676    5                     %RSV_WRD_MERGE,     %RSV_WRD_MOVE,     %RSV_WRD_MULTIPLY,
             15677    5                     %RSV_WRD_OPEN,      %RSV_WRD_PERFORM,  %RSV_WRD_PURGE,
PL6.E3A0      #001=Z8EL$LEX File=Z8EL.:Z8A6TSI                                   SAT 08/09/97 12:03 Page:45
             15678    5                     %RSV_WRD_READ,      %RSV_WRD_RECEIVE,  %RSV_WRD_RELEASE,
             15679    5                     %RSV_WRD_RETURN,    %RSV_WRD_REWRITE,  %RSV_WRD_SEND,
             15680    5                     %RSV_WRD_SEARCH,    %RSV_WRD_START,    %RSV_WRD_SET,
             15681    5                     %RSV_WRD_STRING,    %RSV_WRD_STOP,     %RSV_WRD_SUBTRACT,
             15682    5                     %RSV_WRD_SUPPRESS,  %RSV_WRD_TERMINATE,%RSV_WRD_UNSTRING,
             15683    5                     %RSV_WRD_WRITE,
             15684    5                     %RSV_WRD_CONNECT,   %RSV_WRD_DISCONNECT,%RSV_WRD_ERASE,
             15685    5                     %RSV_WRD_FIND,      %RSV_WRD_FINISH,   %RSV_WRD_GET,
             15686    5                     %RSV_WRD_MODIFY,    %RSV_WRD_PRECALCULATE,
             15687    5                     %RSV_WRD_READY,    %RSV_WRD_STORE);
             15688                       %SAVE_IMPERATIVE_STMT_RSV_WRD ;
             15689    6          DO ;
             15690    6             SAVED_SYMBOL = O1COM.LA_STK(O1COM.LA_PUT);
             15691    6             SAVED_LEX_STATE = %LS_NORMAL;
             15692    6             O1COM.LA_STK.SYMBOL(O1COM.LA_PUT) = %INVISIBLE_STMT_START ;
             15693    6             O1COM.LA_STK.DNT$(O1COM.LA_PUT) = ADDR(NIL) ;
             15694    6             O1COM.LA_STK.FLAGS(O1COM.LA_PUT) = FALSE;
             15695    6             O1COM.LA_STK.ST$(O1COM.LA_PUT) = ADDR(NIL);
             15696    6             O1COM.LA_STK.TYPE(O1COM.LA_PUT) = 0;
             15697                  /* Leave line and column the same */
             15698    6             LEX_STATE = %LS_PICK_UP_SAVED_SYMBOL;
             15699    6          END ;
             15701    5                CASE(%RSV_WRD_QUOTES,    %RSV_WRD_LOW_VALUES,
             15702    5                     %RSV_WRD_SPACES,    %RSV_WRD_ZEROES,     %RSV_WRD_HIGH_VALUES);
             15703    5                  O1COM.LA_STK.TYPE(O1COM.LA_PUT) = %TYT;
             15704    5              END ;
             15705    4              IF NOT LEX_SYMBOL.B.CONTINUED_TOKEN THEN
             15706    4                SAVED_CONT_FLAG = FALSE;
             15707    4            END ;
      796    15709    3       ELSE
      797    15710              %PROCESS_USER_WORD;
             15711    4            DO;
             15712                   /* for user word */
             15713    4              DNT$ -> DNT.B.USER_WORD = TRUE;
             15714                   /* Check to make sure userword does not end in dash */
             15715    4              IF SUBSTR(LEX_SYMBOL.SYMBOL,
             15716    4                        LEX_SYMBOL.SIZE - 1,
PL6.E3A0      #001=Z8EL$LEX File=Z8EL.:Z8A6TSI                                   SAT 08/09/97 12:03 Page:46
             15717    4                        1) = '-' THEN
             15718    5                DO;
             15719    5                  CALL Z8AE$ERROR (%E$USERWORD_END_DASH_ERROR,
             15720    5                                   LEX_SYMBOL.LINE,
             15721    5                                   LEX_SYMBOL.COLUMN);
             15722    5                END;
             15723                   /* Check to make sure userword <= 30 characters */
             15724    4              IF LEX_SYMBOL.SIZE > %USER_WORD_MAX_SIZE
             15725    4                      AND NOT O1COM.PD_FLAG THEN
             15726    5                DO;
             15727    5                  CALL Z8AE$ERROR (%E$USERWORD_TOO_LONG,
             15728    5                                   LEX_SYMBOL.LINE,
             15729    5                                   LEX_SYMBOL.COLUMN);
             15730    5                  LEX_SYMBOL.SIZE = 30;
             15731    5                  DNT$ -> DNT.TEXT.LENGTH = 30;
             15732    5                END;
             15733                   /* Check for at least one letter in userword */
             15734              /* Check was disabled because paragraph names do not have to
             15735                    contain letters in the name.  Therefore, the check must
             15736                    either be:
             15737                       1) done after the parse to differentiate between
             15738                            paragraph names and data names.
             15739                       2) Change user word that contain no letters to be
             15740                            paragraph names
             15741                       3) Disabled completely.
             15742                   CALL SEARCH (CHAR_COLUMN,
             15743                                CHAR_CLASS,
             15744                                LETTER_SEARCH_TABLE,
             15745                                SUBSTR(LEX_SYMBOL.SYMBOL, 0, LEX_SYMBOL.SIZE));
             15746                   IF CHAR_CLASS = %END_OF_LINE THEN
             15747                     DO;
             15748                       CALL Z8AE$ERROR (%E$NO_LETTER_USERWORD,
             15749                                        LEX_SYMBOL.LINE,
             15750                                        LEX_SYMBOL.COLUMN);
             15751                     END;
             15752              */
             15753                   /* Check for no $ or _ if ANSI option */
PL6.E3A0      #001=Z8EL$LEX File=Z8EL.:Z8A6TSI                                   SAT 08/09/97 12:03 Page:47
             15754    4              IF COMCOM.OB.FIPS.LEVEL > 0 THEN
             15755    5                DO;
             15756    5                  CALL SEARCH (CHAR_COLUMN,
             15757    5                               CHAR_CLASS,
             15758    5                               ANSI_USERWORD_SCAN_TABLE,
             15759    5                               SUBSTR(LEX_SYMBOL.SYMBOL,
             15760    5                                      0,
             15761    5                                      LEX_SYMBOL.SIZE));
             15762    5                  IF CHAR_CLASS ~= %END_OF_LINE THEN
             15763    5                    CALL Z8AE$ERROR (%E$USERWORD_ANSI_ERROR,
             15764    5                                     LEX_SYMBOL.LINE,
             15765    5                                     LEX_SYMBOL.COLUMN);
             15766    5                END;
             15767    4              IF O1COM.LA_STK.COLUMN(O1COM.LA_PUT) < O1COM.AREA_B_COLUMN_START THEN
             15768    5                DO;
             15769                       /*N* Free_Format -- IF NOT COMCOM.OB.FORMAT THEN */
             15770    5                    IF O1COM.PD_FLAG THEN
             15771    5                      O1COM.LA_STK.SYMBOL(O1COM.LA_PUT) = %PARA_DEF;
             15772    5                    ELSE
             15773    5                      O1COM.LA_STK.SYMBOL(O1COM.LA_PUT) = %NAME;
             15774    5                END;
             15775    4              ELSE
             15776    4                IF (O1COM.LA_STK.ST$(O1COM.LA_PUT) ~= ADDR(NIL))
             15777    4                AND ((O1COM.LA_STK.ST$(O1COM.LA_PUT) -> ST.ID = %PARA
             15778    4                         OR
             15779    4                     O1COM.LA_STK.ST$(O1COM.LA_PUT) -> ST.ID = %SECTION)
             15780    4                     AND O1COM.LA_STK.ST$(O1COM.LA_PUT) -> VARIABLE.PROC$ = O1COM.
             15780                              CURRENT_PROC$) THEN
             15781    4                  O1COM.LA_STK.SYMBOL(O1COM.LA_PUT) = %PARA_REF;
             15782    4                ELSE
             15783                       /*N* Free_Format -- IF NOT COMCOM.OB.FORMAT THEN */
             15784    4                    O1COM.LA_STK.SYMBOL(O1COM.LA_PUT) = %NAME;
             15785                     /*N* Free_Format --
             15786                       ELSE
             15787                         O1COM.LA_STK.SYMBOL(O1COM.LA_PUT) = %NAME_OR_PARA;
             15788                     */
             15789    4              IF O1COM.LA_STK.ST$ (O1COM.LA_PUT) ~= ADDR(NIL) THEN
PL6.E3A0      #001=Z8EL$LEX File=Z8EL.:Z8A6TSI                                   SAT 08/09/97 12:03 Page:48
             15790    4                IF O1COM.LA_STK.ST$ (O1COM.LA_PUT) -> ST.ID = %SYM_CHAR THEN
             15791    5   CHECK_SYM_CHAR: DO;
             15792    5                     PROC$$ = O1COM.CURRENT_PROC$;
             15793    6                     DO WHILE (O1COM.LA_STK.ST$ (O1COM.LA_PUT) -> VARIABLE.PROC$ ~=
             15794    6                         PROC$$);
             15795    6                       PROC$$ = PROC$$ -> PROC_.FATHER;
             15796    6                       IF PROC$$ = ADDR(NIL) THEN
             15797    6                         EXIT CHECK_SYM_CHAR;
             15798    6                     END; /* WHILE */
             15799    5                     O1COM.LA_STK.B.ALL  (O1COM.LA_PUT) = TRUE;
             15800    5                     O1COM.LA_STK.SYMBOL (O1COM.LA_PUT) = %ALPHA_LITERAL;
             15801    5                   END; /* CHECK_SYM_CHAR */
             15802    4              SAVED_CONT_FLAG = FALSE;
             15803    4             END;
      798    15805
      799    15806
      800    15807
      801    15808    3     CASE(ELSE);
      802    15809
      803    15810    3       CALL Z8AE$ERROR(%E$SCANNER_FAILURE,
      804    15811    3                       LEX_SYMBOL.LINE,
      805    15812    3                       LEX_SYMBOL.COLUMN);
      806    15813    3       O1COM.LA_STK.SYMBOL(O1COM.LA_PUT) = %ILLEGAL_SYMBOL;
      807    15814
      808    15815    3   END;  /* DO CASE ON LEX_SYMBOL.TYPE */
      809    15816
      810    15817
      811    15818    2   END PROCESS_SYMBOL;
      812    15819        %EJECT ;
PL6.E3A0      #001=Z8EL$LEX File=Z8EL.:Z8A6TSI                                   SAT 08/09/97 12:03 Page:49
      813    15820    1   CONSOLIDATE_PICTURE_STRING : PROC;
      814    15821
      815    15822    2     DCL INSERT_SIZE SBIN WORD;
      816    15823
      817    15824    2     PICTURE_SYMBOL             = LEX_SYMBOL;
      818    15825    2     PICTURE_SYMBOL.TYPE        = %PICTURE_STRING;
      819    15826    2     PICTURE_SYMBOL.END_COLUMN  = LEX_SYMBOL.COLUMN;
      820    15827    2     PICTURE_SYMBOL.END_LINE    = LEX_SYMBOL.LINE;
      821    15828    2     PICTURE_SYMBOL.SIZE        = 0;
      822    15829    2     PARSING_PICTURE = TRUE;
      823    15830
      824    15831    3     DO WHILE (PICTURE_SYMBOL.END_COLUMN = LEX_SYMBOL.COLUMN)
      825    15832    3               AND (PICTURE_SYMBOL.END_LINE = LEX_SYMBOL.LINE)
      826    15833    3               AND (LEX_SYMBOL.TYPE ~= %PERIOD);
      827    15834
      828    15835    3       INSERT_SIZE = MINIMUM(%MAX_SYMBOL_SIZE - PICTURE_SYMBOL.SIZE,
      829    15836    3                             LEX_SYMBOL.SIZE);
      830    15837
      831    15838    3       PICTURE_SYMBOL.SIZE = PICTURE_SYMBOL.SIZE + INSERT_SIZE;
      832    15839
      833    15840    3       CALL INSERT (PICTURE_SYMBOL.SYMBOL,
      834    15841    3                    PICTURE_SYMBOL.SIZE - INSERT_SIZE,
      835    15842    3                    INSERT_SIZE,
      836    15843    3                    LEX_SYMBOL.SYMBOL);
      837    15844
      838    15845    3       PICTURE_SYMBOL.END_COLUMN = LEX_SYMBOL.END_COLUMN;
      839    15846    3       PICTURE_SYMBOL.END_LINE   = LEX_SYMBOL.END_LINE;
      840    15847    3       CALL REPLACED_TOKEN;
      841    15848
      842    15849    3       IF LEX_SYMBOL.B.CONTINUED_TOKEN THEN
      843    15850    3           PICTURE_SYMBOL.B.CONTINUED_TOKEN = TRUE;
      844    15851
      845    15852    3     END;  /* DO WHILE */
      846    15853
      847    15854    2     IF SAVED_CONT_FLAG THEN
      848    15855    2       PICTURE_SYMBOL.B.CONTINUED_TOKEN = TRUE;
      849    15856
PL6.E3A0      #001=Z8EL$LEX File=Z8EL.:Z8A6TSI                                   SAT 08/09/97 12:03 Page:50
      850    15857    2     IF PICTURE_SYMBOL.SIZE = 0 THEN
      851    15858    3       DO;
      852    15859    3         PICTURE_SYMBOL      = LEX_SYMBOL;
      853    15860    3         PICTURE_SYMBOL.TYPE = %ILLEGAL_SYMBOL;
      854    15861    3       END;
      855    15862
      856    15863    2     LEX_STATE = %LS_NORMAL;
      857    15864    2     PARSING_PICTURE = FALSE;
      858    15865          %INITIALIZE_LA_STK_ITEM;
             15866    3     DO;
             15867            %INIT_LX_TERMINAL ( @POINTER = "ADDR(O1COM.LA_STK(O1COM.LA_PUT))",
             15868                                @LA_ITEM = TRUE,
             15869                                @SYMBOL = LEX_SYMBOL.TYPE,
             15870                                @LINE = LEX_SYMBOL.LINE,
             15871                                @COLUMN = LEX_SYMBOL.COLUMN);
             15872    4     DO;
             15873    4       @POINTER -> LX_TERMINAL.ID     = %LX_TERMINAL;
             15874    4       @POINTER -> LX_TERMINAL.B      = '0'B;
             15875            %IF (TEXTCHAR(@BERROR) ~= '');
             15877            %ENDIF;
             15878    4       @POINTER -> LX_TERMINAL.TYPE   = @TYPE %;
             15879            %IF (TEXTCHAR(@LA_ITEM) = '');
             15881            %ENDIF;
             15882    4       @POINTER -> LX_TERMINAL.ST$    = @ST$ ;
             15883    4       @POINTER -> LX_TERMINAL.SYMBOL = @SYMBOL;
             15884    4       @POINTER -> LX_TERMINAL.DNT$   = @DNT$;
             15885    4       @POINTER -> LX_TERMINAL.LINE   = @LINE;
             15886    4       @POINTER -> LX_TERMINAL.COLUMN = @COLUMN;
             15887    4     END;
             15889    3     END;
      859    15891    2     CALL PROCESS_SYMBOL;
      860    15892    2     SAVED_SYMBOL          = O1COM.LA_STK(O1COM.LA_PUT);
      861    15893                                                                 /*#29924*/
      862    15894    2     IF LEX_STATE ~= %LS_PICK_UP_SAVED_SYMBOL  THEN
      863    15895    2       SAVED_LEX_STATE = LEX_STATE;
      864    15896    2     LEX_STATE             = %LS_PICK_UP_SAVED_SYMBOL;
      865    15897    2     LEX_SYMBOL            = PICTURE_SYMBOL;
PL6.E3A0      #001=Z8EL$LEX File=Z8EL.:Z8A6TSI                                   SAT 08/09/97 12:03 Page:51
      866    15898          %INITIALIZE_LA_STK_ITEM;
             15899    3     DO;
             15900            %INIT_LX_TERMINAL ( @POINTER = "ADDR(O1COM.LA_STK(O1COM.LA_PUT))",
             15901                                @LA_ITEM = TRUE,
             15902                                @SYMBOL = LEX_SYMBOL.TYPE,
             15903                                @LINE = LEX_SYMBOL.LINE,
             15904                                @COLUMN = LEX_SYMBOL.COLUMN);
             15905    4     DO;
             15906    4       @POINTER -> LX_TERMINAL.ID     = %LX_TERMINAL;
             15907    4       @POINTER -> LX_TERMINAL.B      = '0'B;
             15908            %IF (TEXTCHAR(@BERROR) ~= '');
             15910            %ENDIF;
             15911    4       @POINTER -> LX_TERMINAL.TYPE   = @TYPE %;
             15912            %IF (TEXTCHAR(@LA_ITEM) = '');
             15914            %ENDIF;
             15915    4       @POINTER -> LX_TERMINAL.ST$    = @ST$ ;
             15916    4       @POINTER -> LX_TERMINAL.SYMBOL = @SYMBOL;
             15917    4       @POINTER -> LX_TERMINAL.DNT$   = @DNT$;
             15918    4       @POINTER -> LX_TERMINAL.LINE   = @LINE;
             15919    4       @POINTER -> LX_TERMINAL.COLUMN = @COLUMN;
             15920    4     END;
             15922    3     END;
      867    15924    2     O1COM.LA_STK.B.HIGH_LEV(O1COM.LA_PUT) = LEX_SYMBOL.B.CONTINUED_TOKEN;
      868    15925    2     CALL Z8AH$SEARCH_;
      869    15926    2     O1COM.LA_STK.DNT$(O1COM.LA_PUT)   = DNT$;
      870    15927
      871    15928
      872    15929    2   END CONSOLIDATE_PICTURE_STRING;
      873    15930        %EJECT;
PL6.E3A0      #001=Z8EL$LEX File=Z8EL.:Z8A6TSI                                   SAT 08/09/97 12:03 Page:52
      874    15931        /* Main body of Z8EL$LEX */
      875    15932
      876    15933
      877    15934    2     DO CASE(LEX_STATE);
      878    15935
      879    15936    2       CASE(%LS_NORMAL, %LS_PERIOD_BEFORE_COMMENT_ENTRY);
      880    15937
      881    15938    2         CALL REPLACED_TOKEN;
      882    15939              %CHECK_DELIM_AND_SIZE;
             15940    3     DO;
             15941          /* Check symbol for length */
             15942    3     IF LEX_SYMBOL.SIZE > %MAX_SYMBOL_SIZE THEN
             15943    4       DO;
             15944    4         CALL Z8AE$ERROR(%E$SYMBOL_TOO_LARGE,
             15945    4                         LEX_SYMBOL.LINE,
             15946    4                         LEX_SYMBOL.COLUMN);
             15947    4         LEX_SYMBOL.SIZE = %MAX_SYMBOL_SIZE;
             15948    4       END;
             15949          /* Check symbol for delimiter error */
             15950    3     IF LEX_SYMBOL.B.DELIM_ERROR THEN
             15951    4       DO;
             15952    4         CALL Z8AE$ERROR (%E$MISSING_DELIMITER,
             15953    4                          LEX_SYMBOL.LINE,
             15954    4                          LEX_SYMBOL.COLUMN);
             15955    4       END;
             15956    3     END;
      883    15958              %INITIALIZE_LA_STK_ITEM;
             15959    3     DO;
             15960            %INIT_LX_TERMINAL ( @POINTER = "ADDR(O1COM.LA_STK(O1COM.LA_PUT))",
             15961                                @LA_ITEM = TRUE,
             15962                                @SYMBOL = LEX_SYMBOL.TYPE,
             15963                                @LINE = LEX_SYMBOL.LINE,
             15964                                @COLUMN = LEX_SYMBOL.COLUMN);
             15965    4     DO;
             15966    4       @POINTER -> LX_TERMINAL.ID     = %LX_TERMINAL;
             15967    4       @POINTER -> LX_TERMINAL.B      = '0'B;
             15968            %IF (TEXTCHAR(@BERROR) ~= '');
PL6.E3A0      #001=Z8EL$LEX File=Z8EL.:Z8A6TSI                                   SAT 08/09/97 12:03 Page:53
             15970            %ENDIF;
             15971    4       @POINTER -> LX_TERMINAL.TYPE   = @TYPE %;
             15972            %IF (TEXTCHAR(@LA_ITEM) = '');
             15974            %ENDIF;
             15975    4       @POINTER -> LX_TERMINAL.ST$    = @ST$ ;
             15976    4       @POINTER -> LX_TERMINAL.SYMBOL = @SYMBOL;
             15977    4       @POINTER -> LX_TERMINAL.DNT$   = @DNT$;
             15978    4       @POINTER -> LX_TERMINAL.LINE   = @LINE;
             15979    4       @POINTER -> LX_TERMINAL.COLUMN = @COLUMN;
             15980    4     END;
             15982    3     END;
      884    15984    2         CALL PROCESS_SYMBOL;
      885    15985
      886    15986    2       CASE(%LS_COMMENT_ENTRY);
      887    15987
      888    15988    2         CALL SCAN_COMMENT_ENTRY;
      889    15989    2         LEX_STATE = %LS_NORMAL;
      890    15990              %CHECK_DELIM_AND_SIZE;
             15991    3     DO;
             15992          /* Check symbol for length */
             15993    3     IF LEX_SYMBOL.SIZE > %MAX_SYMBOL_SIZE THEN
             15994    4       DO;
             15995    4         CALL Z8AE$ERROR(%E$SYMBOL_TOO_LARGE,
             15996    4                         LEX_SYMBOL.LINE,
             15997    4                         LEX_SYMBOL.COLUMN);
             15998    4         LEX_SYMBOL.SIZE = %MAX_SYMBOL_SIZE;
             15999    4       END;
             16000          /* Check symbol for delimiter error */
             16001    3     IF LEX_SYMBOL.B.DELIM_ERROR THEN
             16002    4       DO;
             16003    4         CALL Z8AE$ERROR (%E$MISSING_DELIMITER,
             16004    4                          LEX_SYMBOL.LINE,
             16005    4                          LEX_SYMBOL.COLUMN);
             16006    4       END;
             16007    3     END;
      891    16009              %INITIALIZE_LA_STK_ITEM;
             16010    3     DO;
PL6.E3A0      #001=Z8EL$LEX File=Z8EL.:Z8A6TSI                                   SAT 08/09/97 12:03 Page:54
             16011            %INIT_LX_TERMINAL ( @POINTER = "ADDR(O1COM.LA_STK(O1COM.LA_PUT))",
             16012                                @LA_ITEM = TRUE,
             16013                                @SYMBOL = LEX_SYMBOL.TYPE,
             16014                                @LINE = LEX_SYMBOL.LINE,
             16015                                @COLUMN = LEX_SYMBOL.COLUMN);
             16016    4     DO;
             16017    4       @POINTER -> LX_TERMINAL.ID     = %LX_TERMINAL;
             16018    4       @POINTER -> LX_TERMINAL.B      = '0'B;
             16019            %IF (TEXTCHAR(@BERROR) ~= '');
             16021            %ENDIF;
             16022    4       @POINTER -> LX_TERMINAL.TYPE   = @TYPE %;
             16023            %IF (TEXTCHAR(@LA_ITEM) = '');
             16025            %ENDIF;
             16026    4       @POINTER -> LX_TERMINAL.ST$    = @ST$ ;
             16027    4       @POINTER -> LX_TERMINAL.SYMBOL = @SYMBOL;
             16028    4       @POINTER -> LX_TERMINAL.DNT$   = @DNT$;
             16029    4       @POINTER -> LX_TERMINAL.LINE   = @LINE;
             16030    4       @POINTER -> LX_TERMINAL.COLUMN = @COLUMN;
             16031    4     END;
             16033    3     END;
      892    16035    2         CALL PROCESS_SYMBOL;
      893    16036
      894    16037    2       CASE(%LS_PICK_UP_SAVED_SYMBOL);
      895    16038
      896    16039    2         O1COM.LA_STK_FIELDS.ALL_BUT_LINK(O1COM.LA_PUT) = SAVED_SYMBOL.
             16039                  ALL_FIELDS_BUT_LINK;
      897    16040    2         LEX_STATE = SAVED_LEX_STATE;
      898    16041
      899    16042    2       CASE(%LS_PICTURE_OR_IS);
      900    16043
      901    16044    2         CALL REPLACED_TOKEN;
      902    16045    2         IF LEX_SYMBOL.SIZE = 2
      903    16046    2             AND SUBSTR(LEX_SYMBOL.SYMBOL, 0, 2) = 'IS' THEN
      904    16047    3           DO;
      905    16048                  %CHECK_DELIM_AND_SIZE;
             16049    4     DO;
             16050          /* Check symbol for length */
PL6.E3A0      #001=Z8EL$LEX File=Z8EL.:Z8A6TSI                                   SAT 08/09/97 12:03 Page:55
             16051    4     IF LEX_SYMBOL.SIZE > %MAX_SYMBOL_SIZE THEN
             16052    5       DO;
             16053    5         CALL Z8AE$ERROR(%E$SYMBOL_TOO_LARGE,
             16054    5                         LEX_SYMBOL.LINE,
             16055    5                         LEX_SYMBOL.COLUMN);
             16056    5         LEX_SYMBOL.SIZE = %MAX_SYMBOL_SIZE;
             16057    5       END;
             16058          /* Check symbol for delimiter error */
             16059    4     IF LEX_SYMBOL.B.DELIM_ERROR THEN
             16060    5       DO;
             16061    5         CALL Z8AE$ERROR (%E$MISSING_DELIMITER,
             16062    5                          LEX_SYMBOL.LINE,
             16063    5                          LEX_SYMBOL.COLUMN);
             16064    5       END;
             16065    4     END;
      906    16067                  %INITIALIZE_LA_STK_ITEM;
             16068    4     DO;
             16069            %INIT_LX_TERMINAL ( @POINTER = "ADDR(O1COM.LA_STK(O1COM.LA_PUT))",
             16070                                @LA_ITEM = TRUE,
             16071                                @SYMBOL = LEX_SYMBOL.TYPE,
             16072                                @LINE = LEX_SYMBOL.LINE,
             16073                                @COLUMN = LEX_SYMBOL.COLUMN);
             16074    5     DO;
             16075    5       @POINTER -> LX_TERMINAL.ID     = %LX_TERMINAL;
             16076    5       @POINTER -> LX_TERMINAL.B      = '0'B;
             16077            %IF (TEXTCHAR(@BERROR) ~= '');
             16079            %ENDIF;
             16080    5       @POINTER -> LX_TERMINAL.TYPE   = @TYPE %;
             16081            %IF (TEXTCHAR(@LA_ITEM) = '');
             16083            %ENDIF;
             16084    5       @POINTER -> LX_TERMINAL.ST$    = @ST$ ;
             16085    5       @POINTER -> LX_TERMINAL.SYMBOL = @SYMBOL;
             16086    5       @POINTER -> LX_TERMINAL.DNT$   = @DNT$;
             16087    5       @POINTER -> LX_TERMINAL.LINE   = @LINE;
             16088    5       @POINTER -> LX_TERMINAL.COLUMN = @COLUMN;
             16089    5     END;
             16091    4     END;
PL6.E3A0      #001=Z8EL$LEX File=Z8EL.:Z8A6TSI                                   SAT 08/09/97 12:03 Page:56
      907    16093    3             CALL PROCESS_SYMBOL;
      908    16094    3           END;
      909    16095    2         ELSE
      910    16096    2           CALL CONSOLIDATE_PICTURE_STRING;
      911    16097
      912    16098    2     END;  /* CASE ON LEX_STATE */
      913    16099
      914    16100
      915    16101    1     RETURN;
      916    16102
      917    16103
      918    16104        /* Initialization call to LEX */
      919    16105
      920    16106    1   Z8EL$LEX_INIT : ENTRY;
      921    16107
      922    16108    1     CALL Z9AA$IS_ES_REQUIRED;
      923    16109
      924    16110
      925    16111    1     CALL Z8EL$GET_NEXT_SCANNER_LINE;
      926    16112
      927    16113    1     RETURN;
      928    16114
      929    16115
      930    16116    1   END Z8EL$LEX;
      931    16117        %EOD;

PL6.E3A0      #001=Z8EL$LEX File=Z8EL.:Z8A6TSI                                   SAT 08/09/97 12:03 Page:57
--  Include file information  --

   Z8E_REPLACE.:Z8A6TOU  cannot be made into a system file and is referenced.
   Z8E_HEAP.:Z8A6TOU  cannot be made into a system file and is referenced.
   Z8A_P_STATE.:Z8A6TOU  cannot be made into a system file and is referenced.
   Z8A_ERR_NUMS.:Z8A6TOU  is referenced.
   Z8A_DNT.:Z8A6TOU  cannot be made into a system file and is referenced.
   Z8A_ST.:Z8A6TOU  cannot be made into a system file and is referenced.
   Z8A_TYPES.:Z8A6TOU  is referenced.
   Z8E_O1COM.:Z8A6TOU  cannot be made into a system file and is referenced.
   Z8E_BUFFERS.:Z8A6TOU  cannot be made into a system file and is referenced.
   Z8E_TABLES.:Z8A6TOU  cannot be made into a system file and is referenced.
   Z8E_WINDOW.:Z8A6TOU  is referenced.
   Z8A_LEX_SYMB.:Z8A6TOU  cannot be made into a system file and is referenced.
   Z8E_STACKS.:Z8A6TOU  cannot be made into a system file and is referenced.
   Z8A_COMCOM.:Z8A6TOU  cannot be made into a system file and is referenced.
   X8A_COM_MACS.:X8A6TOU  is referenced.
   Z8A_NAMES.:Z8A6TOU  is referenced.
   Z8A_SUPP_MAC.:Z8A6TOU  is referenced.
   Z8A_DEFC.:Z8A6TOU  cannot be made into a system file and is referenced.
      No diagnostics issued in procedure Z8EL$LEX.

   Procedure Z8EL$LEX requires 2714 words for executable code.
   Procedure Z8EL$LEX is declared NOAUTO and requires 126 words of local(STATIC) storage.

PL6.E3A0      #001=Z8EL$LEX File=Z8EL.:Z8A6TSI                                   SAT 08/09/97 12:03 Page:58

 Object Unit name= Z8EL$LEX                                   File name= Z8EL.:Z8A6TOU
 UTS= AUG 09 '97 12:03:12.32 SAT                              Compiler= PL-6/E31         Sev=      00
 SharedLib= :SHARED_SYSTEM                                    Alt SharedLib=


    ****  Control sections  ****

 Sect   Type Bound  Init  Size OctSiz  Section name(segment info)
    0   Data  even  none   126    176  Z8EL$LEX
    1  LblCom even  none     1      1  ITERATION
    2  LblCom even  none    90    132  LEX_SYMBOL
    3  LblCom even  none     1      1  CURRENT_LEX_SYMBOL$
    4  LblCom even  none    90    132  TEMP_LEX_SYMBOL
    5  LblCom even  none    90    132  TEMP_LEX_SYMBOL2
    6  LblCom even  none     1      1  SCANNER_STATE
    7  LblCom even  none     1      1  CURRENT_BUFFER$
    8  LblCom even  none     1      1  LOOKAHEAD_BUFFER$
    9  LblCom even  none     1      1  CURRENT_LINE_LEVEL
   10  LblCom even  none     1      1  LINE_LIST$
   11  LblCom even  none     7      7  BUFFER
   12  LblCom even  none     1      1  ORIGINAL_ISN
   13  LblCom even  none     1      1  EXPANDED_ISN
   14  LblCom even  none     1      1  ISN_FOR_EXP_SRC
   15  LblCom even  none     1      1  ST$
   16  LblCom even  none     5      5  ST_
   17  LblCom even  none     1      1  DNT$
   18  LblCom even  none     5      5  DNT_
   19  LblCom even  none     1      1  DNT_BUCKET_NUMBER
   20  LblCom even  none     1      1  DNT_OF_1$
   21  LblCom even  none     1      1  HEAP$
   22  LblCom even  none     1      1  CURRENT_SYMBOL_LEVEL
   23  LblCom even  none     1      1  REPLACE_ACTIVE
   24  LblCom even  none     1      1  IGNORE_COPY_REPLACE
   25  LblCom even  none     1      1  COPY_DEBUG_LEVEL
   26  LblCom even  none     4      4  REPLACE_LIST
   27  LblCom even  none     1      1  LEX_SYMBOL_QUEUE$
   28  LblCom even  none     1      1  GET_NEXT_SCANNER_LINE
PL6.E3A0      #001=Z8EL$LEX File=Z8EL.:Z8A6TSI                                   SAT 08/09/97 12:03 Page:59
   29  LblCom even  none     1      1  SEARCH_REQUIRED
   30  LblCom even  none     1      1  LEX_STATE
   31  RoData even  UTS     22     26  Z8EL$LEX
   32   Proc  even  none  2714   5232  Z8EL$LEX
   33  RoData even  none    87    127  Z8EL$LEX

    ****  Entry defs  ****

                              Check   Calling
                             calling  sequence
  Sect OctLoc Primary Altret sequence   type   Parms  Name
    32      0   yes            yes      Std        0  Z8EL$LEX
    32   5221                  yes      Std        0  Z8EL$LEX_INIT

  ****  Entry refs  ****

         Check        Calling
        calling       sequence
Altret sequence SRef   type   Args  Name
         yes           Std       0 Z8EL$GET_NEXT_SCANNER_LINE
         yes           Std      12 Z8AE$ERROR
         yes           Std       0 Z9AA$IS_ES_REQUIRED
         yes           Std       2 Z8ED$DISPOSE_HEAP
         yes           Std       0 Z8ES$SCANNER
         yes           Std       1 Z8EL$HANDLE_LEVEL_CHANGE
         yes           Std       0 Z8AH$SEARCH_
         yes           Std       2 Z8ED$NEW_HEAP
 yes     yes           Std       1 Z8EL$POSSIBLE_REPLACE
         yes           Std       0 Z8EL$PROCESS_COPY
         yes           Std       0 Z8EL$PROCESS_REPLACE
         yes           Std       1 Z8ED$DISPOSE_ABSSYN_TREE
         yes           Std       3 Z8AU$CREATE_NUM_DESC
         yes           Std       1 Z8AR$RESERVER
PL6.E3A0      #001=Z8EL$LEX File=Z8EL.:Z8A6TSI                                   SAT 08/09/97 12:03 Page:60

  ****  Data refs  ****

  Flags:  r = read only, s = secondary
Flgs Name                             Flgs Name                             Flgs Name
     COMCOM                           r    USERWORD_SCAN_TABLE              r    ANSI_USERWORD_SCAN_TABLE
r    ASCII_SEARCH_TABLE               r    BLANK_SCAN_TABLE                 r    DIGIT_SCAN_TABLE
r    LETTER_SEARCH_TABLE              r    DOUBLE_QUOTE_SEARCH_TABLE        r    SINGLE_QUOTE_SEARCH_TABLE
r    DBL_QUOTE_PSEUDO_SEARCH_TABLE    r    SNGL_QUOTE_PSEUDO_SEARCH_TABLE   r    SEPARATORS_TABLE
r    LOWER_TO_UPPER_CASE              r    CURRENCY_SIGN_CHARS                   O1COM
     HIER_STK_PTR                          HIER_STK                              PAGE_FORMAT
     REP_STK_PTR                           REP_STK                               DNT_BUCKETS

  ****  Segment refs  ****

  Flags:  r = read only, s = secondary
Flgs Name                             Flgs Name                             Flgs Name
     ISSID                                 NULLSID
PL6.E3A0      #001=Z8EL$LEX File=Z8EL.:Z8A6TSI                                   SAT 08/09/97 12:03 Page:61


        1        1        /*M*  Z8EL$LEX - Lexical analyzer */
        2        2        /*T***********************************************************/
        3        3        /*T*                                                         */
        4        4        /*T* Copyright (c) Bull HN Information Systems Inc., 1997    */
        5        5        /*T*                                                         */
        6        6        /*T***********************************************************/
        7        7
        8        8        Z8EL$LEX :PROC NOAUTO;

      8 32 000000   000000 741200 0     Z8EL$LEX     STX1  ! 0
        32 000001   004732 710000 32                 TRA     s:15934

        9        9
       10       10
       11       11        /*P*
       12       12               NAME:  Z8EL$LEX
       13       13            PURPOSE:  Main driver for the lexical analyzer.  It builds the next token
       14       14                      to be processed by the parser from the symbol returned by the
       15       15                      scanner.
       16       16        */
       17       17
       18       18        /*D*
       19       19               NAME:  Z8EL$LEX
       20       20               CALL:  CALL Z8EL$LEX ;
       21       21          INTERFACE:  Z8ES$SCANNER   -- Returns the next symbol.
       22       22                      Z8AH$SEARCH    -- Returns DNT$ pointing to the LEXEME item.
       23       23                      Z8AE$ERROR     -- Error message routine.
       24       24
       25       25              INPUT:  LA_PUT - Pointer to the current position in O1COM.LA_STK.
       26       26             OUTPUT:  LA_STK - Lexical analysis stack containing current symbols.
       27       27            SCRATCH:  O1COM.RECORD_DCL - Inside of a record declaration?
       28       28
       29       29        DESCRIPTION:  This procedure is called by the parser to get the next token.
       30       30                      The scanner is called and LA_STK is set up.  If a DNT entry is
       31       31                      needed the search routine to return the pointer.  All of the
       32       32                      values that need to be set up in the LA_STK are then
PL6.E3A0      #001=Z8EL$LEX File=Z8EL.:Z8A6TSI                                   SAT 08/09/97 12:03 Page:62
       33       33                      assigned to be used by the parser.
       34       34        */
       35       35        %EJECT ;
PL6.E3A0      #001=Z8EL$LEX File=Z8EL.:Z8A6TSI                                   SAT 08/09/97 12:03 Page:63
       36       36
       37       37
       38       38        %EQU PHASE = 1;
       39       39        %EQU LOCALLY_LEAST_COST_RECOVERY = '0'B;
       40       40
       41       41        %INCLUDE Z8A_DEFC;
       42      109        %INCLUDE Z8A_SUPP_MAC;
       43     2509        %INCLUDE Z8A_COMCOM;
       44     3159        %INCLUDE Z8E_STACKS;
       45     5425        %INCLUDE Z8E_WINDOW;
       46     7495        %INCLUDE Z8E_TABLES;
       47     8048        %INCLUDE Z8E_BUFFERS;
       48     8238        %INCLUDE Z8E_O1COM;
       49     8999        %INCLUDE Z8A_TYPES;
       50     9173        %INCLUDE Z8A_ST;
       51    12832        %INCLUDE Z8A_DNT;
       52    13053        %INCLUDE Z8A_ERR_NUMS;
       53    13817        %INCLUDE Z8A_P_STATE;
       54    13827        %INCLUDE Z8E_HEAP;
       55    13883        %INCLUDE Z8E_REPLACE;
       56    14186
       57    14187    1   DCL GET_NEXT_SCANNER_LINE EPTR EXT INIT(ENTADDR(Z8EL$GET_NEXT_SCANNER_LINE));
       58    14188    1   DCL Z9AA$IS_ES_REQUIRED ENTRY;
       59    14189    1   DCL Z8EL$PROCESS_COPY ENTRY;
       60    14190    1   DCL Z8EL$PROCESS_REPLACE ENTRY;
       61    14191    1   DCL Z8EL$HANDLE_LEVEL_CHANGE ENTRY(1);
       62    14192    1   DCL Z8EL$POSSIBLE_REPLACE ENTRY(1) ALTRET;
       63    14193    1   DCL Z8AU$CREATE_NUM_DESC ENTRY(3);
       64    14194    1   DCL Z8ED$DISPOSE_ABSSYN_TREE ENTRY(1);
       65    14195
       66    14196
       67    14197    1   DCL SEARCH_REQUIRED BOOLEAN EXT;
       68    14198
       69    14199    1   DCL LEX_STATE SBIN WORD EXT INIT(%LS_NORMAL);
       70    14200
       71    14201        %EQU ANSI_NUM_LIT_MAX_SIZE = 18;
       72    14202        %EQU NUM_LIT_MAX_SIZE = 63;
PL6.E3A0      #001=Z8EL$LEX File=Z8EL.:Z8A6TSI                                   SAT 08/09/97 12:03 Page:64
       73    14203        %EQU MAX_EXPONENT_DIGITS = 3;
       74    14204        %EQU USER_WORD_MAX_SIZE = 30;
       75    14205
       76    14206        %DCL_NUM_DESC;
       77    14215
       78    14216    1   DCL I SBIN WORD;
       79    14217        %EJECT;
PL6.E3A0      #001=Z8EL$LEX File=Z8EL.:Z8A6TSI                                   SAT 08/09/97 12:03 Page:65
       80    14218    1   DCL Z8AH$SEARCH_ ENTRY;
       81    14219    1   DCL Z8AE$ERROR ENTRY(12);
       82    14220
       83    14221    1   DCL 1 SAVED_SYMBOL STATIC ALIGNED, /* Storage for start of imperative stmt */
       84    14222    1         2 ALL_FIELDS_BUT_LINK,
       85    14223                %LA_STK_INFO(LVL=3);
       86    14242    1         2 LINK   UBIN WORD;
       87    14243    1   DCL SAVED_LEX_STATE SBIN STATIC;
       88    14244    1   DCL SAVED_CONT_FLAG BOOLEAN STATIC INIT(FALSE);
       89    14245
       90    14246    1   DCL CHAR_COLUMN SBIN WORD;
       91    14247    1   DCL CHAR_CLASS  SBIN WORD;
       92    14248
       93    14249    1   DCL TDNT$ PTR;
       94    14250    1   DCL HEAP$$  PTR;
       95    14251    1   DCL PROC$$  PTR;
       96    14252    1   DCL 1 PICTURE_SYMBOL STATIC,
       97    14253              %LEX_SYMBOL_INFO;
       98    14271    1         2 SYMBOL  CHAR(%MAX_SYMBOL_SIZE_PLUS_1);
       99    14272    1   DCL PARSING_PICTURE BOOLEAN STATIC INIT(FALSE);
      100    14273
      101    14274        %DEF_BUCKETS;
      102    14277        %EJECT ;
PL6.E3A0      #001=Z8EL$LEX File=Z8EL.:Z8A6TSI                                   SAT 08/09/97 12:03 Page:66
      103    14278        %MACRO SAVE_IMPERATIVE_STMT_RSV_WRD ;
      104    14279               DO ;
      105    14280                  SAVED_SYMBOL = O1COM.LA_STK(O1COM.LA_PUT);
      106    14281                  SAVED_LEX_STATE = %LS_NORMAL;
      107    14282                  O1COM.LA_STK.SYMBOL(O1COM.LA_PUT) = %INVISIBLE_STMT_START ;
      108    14283                  O1COM.LA_STK.DNT$(O1COM.LA_PUT) = ADDR(NIL) ;
      109    14284                  O1COM.LA_STK.FLAGS(O1COM.LA_PUT) = FALSE;
      110    14285                  O1COM.LA_STK.ST$(O1COM.LA_PUT) = ADDR(NIL);
      111    14286                  O1COM.LA_STK.TYPE(O1COM.LA_PUT) = 0;
      112    14287                  /* Leave line and column the same */
      113    14288                  LEX_STATE = %LS_PICK_UP_SAVED_SYMBOL;
      114    14289               END ;
      115    14290        %MEND ;
      116    14291
      117    14292        %EJECT;
PL6.E3A0      #001=Z8EL$LEX File=Z8EL.:Z8A6TSI                                   SAT 08/09/97 12:03 Page:67
      118    14293        %MACRO INITIALIZE_LA_STK_ITEM;
      119    14294          DO;
      120    14295            %INIT_LX_TERMINAL ( @POINTER = "ADDR(O1COM.LA_STK(O1COM.LA_PUT))",
      121    14296                                @LA_ITEM = TRUE,
      122    14297                                @SYMBOL = LEX_SYMBOL.TYPE,
      123    14298                                @LINE = LEX_SYMBOL.LINE,
      124    14299                                @COLUMN = LEX_SYMBOL.COLUMN);
      125    14300          END;
      126    14301        %MEND;
      127    14302        %EJECT;
PL6.E3A0      #001=Z8EL$LEX File=Z8EL.:Z8A6TSI                                   SAT 08/09/97 12:03 Page:68
      128    14303        %MACRO CHECK_DELIM_AND_SIZE;
      129    14304          DO;
      130    14305
      131    14306          /* Check symbol for length */
      132    14307          IF LEX_SYMBOL.SIZE > %MAX_SYMBOL_SIZE THEN
      133    14308            DO;
      134    14309              CALL Z8AE$ERROR(%E$SYMBOL_TOO_LARGE,
      135    14310                              LEX_SYMBOL.LINE,
      136    14311                              LEX_SYMBOL.COLUMN);
      137    14312              LEX_SYMBOL.SIZE = %MAX_SYMBOL_SIZE;
      138    14313            END;
      139    14314
      140    14315          /* Check symbol for delimiter error */
      141    14316          IF LEX_SYMBOL.B.DELIM_ERROR THEN
      142    14317            DO;
      143    14318              CALL Z8AE$ERROR (%E$MISSING_DELIMITER,
      144    14319                               LEX_SYMBOL.LINE,
      145    14320                               LEX_SYMBOL.COLUMN);
      146    14321            END;
      147    14322
      148    14323
      149    14324          END;
      150    14325        %MEND;
      151    14326        %EJECT;
PL6.E3A0      #001=Z8EL$LEX File=Z8EL.:Z8A6TSI                                   SAT 08/09/97 12:03 Page:69
      152    14327    1   CREATE_DUMMY_NUM_LIT : PROC;

  14327 32 000002   000163 741200 0     CREATE_DUMM* STX1  ! PARSING_PICTURE+1

      153    14328
      154    14329    2     O1COM.LA_STK.B.ERROR(O1COM.LA_PUT) = TRUE;

  14329 32 000003   000132 235000 xsym               LDA     O1COM+90
        32 000004   000003 735000                    ALS     3
        32 000005   400000 236007                    LDQ     -131072,DL
        32 000006   000237 256005 xsym               ORSQ    O1COM+159,AL

      155    14330    2     O1COM.LA_STK.DNT$(O1COM.LA_PUT) = DNT_OF_1$;

  14330 32 000007   000132 235000 xsym               LDA     O1COM+90
        32 000010   000003 735000                    ALS     3
        32 000011   000000 236000 20                 LDQ     DNT_OF_1$
        32 000012   000241 756005 xsym               STQ     O1COM+161,AL

      156    14331
      157    14332    2   END CREATE_DUMMY_NUM_LIT;

  14332 32 000013   000001 702211                    TSX2  ! 1,X1

      158    14333        %EJECT ;
PL6.E3A0      #001=Z8EL$LEX File=Z8EL.:Z8A6TSI                                   SAT 08/09/97 12:03 Page:70
      159    14334        %MACRO VALIDATE_NUM_DESC;
      160    14335          DO;
      161    14336            IF COMCOM.OB.FIPS.LEVEL > 0
      162    14337                  AND NUM_DESC.DIGITS_LEFT
      163    14338                        + NUM_DESC.DIGITS_RIGHT
      164    14339                          > %ANSI_NUM_LIT_MAX_SIZE THEN
      165    14340              DO;
      166    14341                CALL Z8AE$ERROR (%E$ANSI_LARGE_NUMERIC_ITEM,
      167    14342                                 LEX_SYMBOL.LINE,
      168    14343                                 LEX_SYMBOL.COLUMN);
      169    14344              END;
      170    14345
      171    14346            IF COMCOM.OB.FIPS.LEVEL > 0
      172    14347                   AND NUM_DESC.DIGITS_EXPONENT > 0 THEN
      173    14348              DO;
      174    14349                CALL Z8AE$ERROR (%E$ANSI_FLOATING_POINT,
      175    14350                                 LEX_SYMBOL.LINE,
      176    14351                                 LEX_SYMBOL.COLUMN);
      177    14352              END;
      178    14353
      179    14354            IF NUM_DESC.DIGITS_LEFT
      180    14355                   + NUM_DESC.DIGITS_RIGHT
      181    14356                     > %NUM_LIT_MAX_SIZE THEN
      182    14357              DO;
      183    14358                CALL Z8AE$ERROR (%E$NUMERIC_ITEM_TOO_LONG,
      184    14359                                 LEX_SYMBOL.LINE,
      185    14360                                 LEX_SYMBOL.COLUMN);
      186    14361                CALL CREATE_DUMMY_NUM_LIT;
      187    14362              END;
      188    14363            ELSE
      189    14364              IF NUM_DESC.DIGITS_EXPONENT > %MAX_EXPONENT_DIGITS THEN
      190    14365                DO;
      191    14366                  CALL Z8AE$ERROR (%E$TOO_LARGE_NUM_EXP,
      192    14367                                   LEX_SYMBOL.LINE,
      193    14368                                   LEX_SYMBOL.COLUMN);
      194    14369                  CALL CREATE_DUMMY_NUM_LIT;
      195    14370                END;
PL6.E3A0      #001=Z8EL$LEX File=Z8EL.:Z8A6TSI                                   SAT 08/09/97 12:03 Page:71
      196    14371
      197    14372            IF NUM_DESC.COMMA_PRESENT
      198    14373            AND (O1COM.CURRENT_PROC$ = ADDR(NIL)
      199    14374                 OR NOT O1COM.CURRENT_PROC$ -> PROC_.B.COMMA_IS_DECIMAL) THEN
      200    14375              CALL Z8AE$ERROR(%E$COMMA_IN_NUMBER,
      201    14376                              LEX_SYMBOL.LINE,
      202    14377                              LEX_SYMBOL.COLUMN);
      203    14378          END;
      204    14379        %MEND;
      205    14380        %EJECT;
PL6.E3A0      #001=Z8EL$LEX File=Z8EL.:Z8A6TSI                                   SAT 08/09/97 12:03 Page:72
      206    14381    1   REPLACED_TOKEN : PROC;

  14381 32 000014   000164 741200 0     REPLACED_TO* STX1  ! PARSING_PICTURE+2

      207    14382
      208    14383           %LIST;
      209    14384
      210    14385
      211    14386    2   NEW_TOKEN:
      212    14387
      213    14388          %GET_A_TOKEN;
             14389    3   DO;

  14389 32 000015                       NEW_TOKEN    null
             14390    3     IF LEX_SYMBOL_QUEUE$ ~= ADDR(NIL) THEN

  14390 32 000015   000000 236000 27                 LDQ     LEX_SYMBOL_QUEUE$
        32 000016   000000 116000 33                 CMPQ    0
        32 000017   000055 600000 32                 TZE     s:14413

             14391          %GET_LEX_SYMBOL_FROM_QUEUE;
             14392    4     DO;

             14393            %COPY_BASED_LEX_SYMBOL(FROM$=LEX_SYMBOL_QUEUE$,
             14394                                   TO$ = "ADDR(LEX_SYMBOL)");
             14395    5     DO;

             14396    5       TO$ -> BASED_LEX_SYMBOL.SIZE = FROM$ -> BASED_LEX_SYMBOL.SIZE;

  14396 32 000020   000000 470400 27                 LDP0    LEX_SYMBOL_QUEUE$
        32 000021   000010 235100                    LDA     8,,PR0
        32 000022   000010 755000 2                  STA     LEX_SYMBOL+8

             14397    5       TO$ -> BASED_LEX_SYMBOL = FROM$ -> BASED_LEX_SYMBOL;

  14397 32 000023   000010 720100                    LXL0    8,,PR0
        32 000024   000044 621010                    EAX1    36,X0
PL6.E3A0      #001=Z8EL$LEX File=Z8EL.:Z8A6TSI                                   SAT 08/09/97 12:03 Page:73
        32 000025   000044 622005                    EAX2    36,AL
        32 000026   000040 100540                    MLR     fill='000'O
        32 000027   000000 000011                    ADSC9   0,,PR0                   cn=0,n=*X1
        32 000030   000000 000012 2                  ADSC9   LEX_SYMBOL               cn=0,n=*X2

             14398    5     END;

             14400    4       CALL Z8ED$DISPOSE_HEAP (LEX_SYMBOL_QUEUE$,

  14400 32 000031   000010 720100                    LXL0    8,,PR0
        32 000032   000044 621010                    EAX1    36,X0
        32 000033   000000 636011                    EAQ     0,X1
        32 000034   000022 732000                    QRS     18
        32 000035   000003 036007                    ADLQ    3,DL
        32 000036   000004 506007                    DIV     4,DL
        32 000037   000172 756000 0                  STQ     INSERT_SIZE+1
        32 000040   000172 631400 0                  EPPR1   INSERT_SIZE+1
        32 000041   000175 451400 0                  STP1    INSERT_SIZE+4
        32 000042   000002 236000 33                 LDQ     2
        32 000043   000174 756000 0                  STQ     INSERT_SIZE+3
        32 000044   000174 630400 0                  EPPR0   INSERT_SIZE+3
        32 000045   000001 631400 33                 EPPR1   1
        32 000046   000000 701000 xent               TSX1    Z8ED$DISPOSE_HEAP
        32 000047   000000 011000                    NOP     0

             14401                                       %LEX_SYMBOL_ACTUAL_WORD_LEN(S$=LEX_SYMBOL_QUEUE$);
             14402    4     ((LENGTHC(S$ -> BASED_LEX_SYMBOL) + 3) / 4)
             14404    4                                 );
             14405    4       LEX_SYMBOL_QUEUE$ = LEX_SYMBOL.NEXT$;

  14405 32 000050   000000 236000 2                  LDQ     LEX_SYMBOL
        32 000051   000000 756000 27                 STQ     LEX_SYMBOL_QUEUE$

             14406    4       LEX_SYMBOL.NEXT$ = ADDR(NIL);

  14406 32 000052   000000 236000 33                 LDQ     0
        32 000053   000000 756000 2                  STQ     LEX_SYMBOL
PL6.E3A0      #001=Z8EL$LEX File=Z8EL.:Z8A6TSI                                   SAT 08/09/97 12:03 Page:74

             14407    4     END;

  14407 32 000054   000104 710000 32                 TRA     GOT_TOKEN

             14409    3     ELSE
             14410    4       DO;

             14411              %GET_BRAND_NEW_TOKEN;
             14412    5       DO;

             14413    5         CALL Z8ES$SCANNER;

  14413 32 000055   000003 631400 33                 EPPR1   3
        32 000056   000000 701000 xent               TSX1    Z8ES$SCANNER
        32 000057   000000 011000                    NOP     0

             14414    6         DO WHILE LEX_SYMBOL.TYPE = %END_OF_LINE;

  14414 32 000060   000001 235000 2                  LDA     LEX_SYMBOL+1
        32 000061   000072 601000 32                 TNZ     s:14420

             14415    6           CALL Z8EL$GET_NEXT_SCANNER_LINE;

  14415 32 000062   000003 631400 33                 EPPR1   3
        32 000063   000000 701000 xent               TSX1    Z8EL$GET_NEXT_SCANNER_LINE
        32 000064   000000 011000                    NOP     0

             14416    6           CALL Z8ES$SCANNER;

  14416 32 000065   000003 631400 33                 EPPR1   3
        32 000066   000000 701000 xent               TSX1    Z8ES$SCANNER
        32 000067   000000 011000                    NOP     0

             14417    6         END;

  14417 32 000070   000001 235000 2                  LDA     LEX_SYMBOL+1
PL6.E3A0      #001=Z8EL$LEX File=Z8EL.:Z8A6TSI                                   SAT 08/09/97 12:03 Page:75
        32 000071   000062 600000 32                 TZE     s:14415

             14418    5       END;

             14420    4         IF LEX_SYMBOL.LEVEL ~= CURRENT_SYMBOL_LEVEL

  14420 32 000072   000003 236000 2                  LDQ     LEX_SYMBOL+3
        32 000073   000000 116000 22                 CMPQ    CURRENT_SYMBOL_LEVEL
        32 000074   000104 600000 32                 TZE     GOT_TOKEN
        32 000075   000002 236000 2                  LDQ     LEX_SYMBOL+2
        32 000076   200000 316003                    CANQ    65536,DU
        32 000077   000104 601000 32                 TNZ     GOT_TOKEN

             14421    4              AND NOT LEX_SYMBOL.B.REPLACED_TOKEN THEN
             14422    4           CALL Z8EL$HANDLE_LEVEL_CHANGE(LEX_SYMBOL.LEVEL);

  14422 32 000100   000005 630400 33                 EPPR0   5
        32 000101   000004 631400 33                 EPPR1   4
        32 000102   000000 701000 xent               TSX1    Z8EL$HANDLE_LEVEL_CHANGE
        32 000103   000000 011000                    NOP     0

             14423    4     END;

             14424    3   END;

      214    14426    2   GOT_TOKEN:
      215    14427
      216    14428    2     IF SAVED_CONT_FLAG THEN

  14428 32 000104   000022 234000 0     GOT_TOKEN    SZN     SAVED_CONT_FLAG
        32 000105   000110 605000 32                 TPL     s:14431

      217    14429    2       LEX_SYMBOL.B.CONTINUED_TOKEN = TRUE;

  14429 32 000106   040000 236003                    LDQ     16384,DU
        32 000107   000002 256000 2                  ORSQ    LEX_SYMBOL+2

PL6.E3A0      #001=Z8EL$LEX File=Z8EL.:Z8A6TSI                                   SAT 08/09/97 12:03 Page:76
      218    14430
      219    14431    2     IF NOT REPLACE_ACTIVE THEN

  14431 32 000110   000000 234000 23                 SZN     REPLACE_ACTIVE
        32 000111   000115 604000 32                 TMI     s:14437

      220    14432    3       DO;

      221    14433    3         SEARCH_REQUIRED = TRUE;

  14433 32 000112   400000 236003                    LDQ     -131072,DU
        32 000113   000000 756000 29                 STQ     SEARCH_REQUIRED

      222    14434    3       END;

  14434 32 000114   000516 710000 32                 TRA     s:14627

      223    14435    2     ELSE
      224    14436    3       DO;

      225    14437    3         CALL Z8AH$SEARCH_;

  14437 32 000115   000003 631400 33                 EPPR1   3
        32 000116   000000 701000 xent               TSX1    Z8AH$SEARCH_
        32 000117   000000 011000                    NOP     0

      226    14438    3         IF DNT$ -> DNT.B.REPLACE_TOKEN THEN

  14438 32 000120   000000 470400 17                 LDP0    DNT$
        32 000121   000003 236100                    LDQ     3,,PR0
        32 000122   010000 316003                    CANQ    4096,DU
        32 000123   000240 600000 32                 TZE     s:14505

      227    14439    4           DO;

      228    14440
      229    14441                  /* Put lex symbol at front of queue */
PL6.E3A0      #001=Z8EL$LEX File=Z8EL.:Z8A6TSI                                   SAT 08/09/97 12:03 Page:77
      230    14442                  %SAVE_TOKEN_ON_THE_QUEUE;
             14443    5      DO;

             14444             %COPY_TO_NEW_LEX_SYMBOL (FROM$ = "ADDR(LEX_SYMBOL)",
             14445                                      TO$   = HEAP$);
             14446    6     DO;

             14447    6       CALL Z8ED$NEW_HEAP (TO$,

  14447 32 000124   000010 236000 2                  LDQ     LEX_SYMBOL+8
        32 000125   000047 036007                    ADLQ    39,DL
        32 000126   000004 506007                    DIV     4,DL
        32 000127   000172 756000 0                  STQ     INSERT_SIZE+1
        32 000130   000172 631400 0                  EPPR1   INSERT_SIZE+1
        32 000131   000175 451400 0                  STP1    INSERT_SIZE+4
        32 000132   000006 236000 33                 LDQ     6
        32 000133   000174 756000 0                  STQ     INSERT_SIZE+3
        32 000134   000174 630400 0                  EPPR0   INSERT_SIZE+3
        32 000135   000001 631400 33                 EPPR1   1
        32 000136   000000 701000 xent               TSX1    Z8ED$NEW_HEAP
        32 000137   000000 011000                    NOP     0

             14448                                   %LEX_SYMBOL_ACTUAL_WORD_LEN(S$=FROM$);
             14449    6     ((LENGTHC(S$ -> BASED_LEX_SYMBOL) + 3) / 4)
             14451    6                             );
             14452            %COPY_BASED_LEX_SYMBOL(FROM$=FROM$, TO$=TO$);
             14453    7     DO;

             14454    7       TO$ -> BASED_LEX_SYMBOL.SIZE = FROM$ -> BASED_LEX_SYMBOL.SIZE;

  14454 32 000140   000000 470400 21                 LDP0    HEAP$
        32 000141   000010 235000 2                  LDA     LEX_SYMBOL+8
        32 000142   000010 755100                    STA     8,,PR0

             14455    7       TO$ -> BASED_LEX_SYMBOL = FROM$ -> BASED_LEX_SYMBOL;

  14455 32 000143   000010 720100                    LXL0    8,,PR0
PL6.E3A0      #001=Z8EL$LEX File=Z8EL.:Z8A6TSI                                   SAT 08/09/97 12:03 Page:78
        32 000144   000044 621010                    EAX1    36,X0
        32 000145   000010 722000 2                  LXL2    LEX_SYMBOL+8
        32 000146   000044 623012                    EAX3    36,X2
        32 000147   000140 100440                    MLR     fill='000'O
        32 000150   000000 000013 2                  ADSC9   LEX_SYMBOL               cn=0,n=*X3
        32 000151   000000 000011                    ADSC9   0,,PR0                   cn=0,n=*X1

             14456    7     END;

             14458    6     END;

             14460    5        HEAP$ -> BASED_LEX_SYMBOL.NEXT$ = LEX_SYMBOL_QUEUE$;

  14460 32 000152   000000 236000 27                 LDQ     LEX_SYMBOL_QUEUE$
        32 000153   000000 470400 21                 LDP0    HEAP$
        32 000154   000000 756100                    STQ     0,,PR0

             14461    5        LEX_SYMBOL_QUEUE$ = HEAP$;

  14461 32 000155   000000 236000 21                 LDQ     HEAP$
        32 000156   000000 756000 27                 STQ     LEX_SYMBOL_QUEUE$

             14462    5      END;

      231    14464
      232    14465                  /* Check for end of PIC before calling POSSIBLE_REPLACE.  */
      233    14466                  /* See procedure CONSOLIDATE_PICTURE_STRING (STAR T02424) */
      234    14467
      235    14468    4             IF PARSING_PICTURE AND

  14468 32 000157   000162 234000 0                  SZN     PARSING_PICTURE
        32 000160   000174 605000 32                 TPL     s:14477
        32 000161   000037 236000 0                  LDQ     PICTURE_SYMBOL+7
        32 000162   000005 116000 2                  CMPQ    LEX_SYMBOL+5
        32 000163   000172 601000 32                 TNZ     s:14473
        32 000164   000036 236000 0                  LDQ     PICTURE_SYMBOL+6
        32 000165   000004 116000 2                  CMPQ    LEX_SYMBOL+4
PL6.E3A0      #001=Z8EL$LEX File=Z8EL.:Z8A6TSI                                   SAT 08/09/97 12:03 Page:79
        32 000166   000172 601000 32                 TNZ     s:14473
        32 000167   000001 235000 2                  LDA     LEX_SYMBOL+1
        32 000170   000014 115007                    CMPA    12,DL
        32 000171   000174 601000 32                 TNZ     s:14477

      236    14469    4               (PICTURE_SYMBOL.END_COLUMN ~= LEX_SYMBOL.COLUMN
      237    14470    4                OR PICTURE_SYMBOL.END_LINE   ~= LEX_SYMBOL.LINE
      238    14471    4                OR LEX_SYMBOL.TYPE = %PERIOD) THEN
      239    14472    5                  DO;

      240    14473    5                    LEX_STATE = %LS_NORMAL;

  14473 32 000172   000000 450000 30                 STZ     LEX_STATE

      241    14474    5                    PARSING_PICTURE = FALSE;

  14474 32 000173   000162 450000 0                  STZ     PARSING_PICTURE

      242    14475    5                  END;

      243    14476
      244    14477    4             CALL Z8EL$POSSIBLE_REPLACE (0)

  14477 32 000174   000007 630400 33                 EPPR0   7
        32 000175   000004 631400 33                 EPPR1   4
        32 000176   000000 701000 xent               TSX1    Z8EL$POSSIBLE_REPLACE
        32 000177   000201 702000 32                 TSX2    s:14489

      245    14478    4               WHENRETURN
      246    14479    5                 DO;

      247    14480    5                   GOTO NEW_TOKEN;

  14480 32 000200   000015 710000 32                 TRA     NEW_TOKEN

      248    14481    5                 END;
      249    14482    4               WHENALTRETURN
PL6.E3A0      #001=Z8EL$LEX File=Z8EL.:Z8A6TSI                                   SAT 08/09/97 12:03 Page:80
      250    14483    5                 DO;

      251    14484                        %GET_LEX_SYMBOL_FROM_QUEUE;
             14485    6     DO;

             14486            %COPY_BASED_LEX_SYMBOL(FROM$=LEX_SYMBOL_QUEUE$,
             14487                                   TO$ = "ADDR(LEX_SYMBOL)");
             14488    7     DO;

             14489    7       TO$ -> BASED_LEX_SYMBOL.SIZE = FROM$ -> BASED_LEX_SYMBOL.SIZE;

  14489 32 000201   000000 470400 27                 LDP0    LEX_SYMBOL_QUEUE$
        32 000202   000010 235100                    LDA     8,,PR0
        32 000203   000010 755000 2                  STA     LEX_SYMBOL+8

             14490    7       TO$ -> BASED_LEX_SYMBOL = FROM$ -> BASED_LEX_SYMBOL;

  14490 32 000204   000010 720100                    LXL0    8,,PR0
        32 000205   000044 621010                    EAX1    36,X0
        32 000206   000044 622005                    EAX2    36,AL
        32 000207   000040 100540                    MLR     fill='000'O
        32 000210   000000 000011                    ADSC9   0,,PR0                   cn=0,n=*X1
        32 000211   000000 000012 2                  ADSC9   LEX_SYMBOL               cn=0,n=*X2

             14491    7     END;

             14493    6       CALL Z8ED$DISPOSE_HEAP (LEX_SYMBOL_QUEUE$,

  14493 32 000212   000010 720100                    LXL0    8,,PR0
        32 000213   000044 621010                    EAX1    36,X0
        32 000214   000000 636011                    EAQ     0,X1
        32 000215   000022 732000                    QRS     18
        32 000216   000003 036007                    ADLQ    3,DL
        32 000217   000004 506007                    DIV     4,DL
        32 000220   000172 756000 0                  STQ     INSERT_SIZE+1
        32 000221   000172 631400 0                  EPPR1   INSERT_SIZE+1
        32 000222   000175 451400 0                  STP1    INSERT_SIZE+4
PL6.E3A0      #001=Z8EL$LEX File=Z8EL.:Z8A6TSI                                   SAT 08/09/97 12:03 Page:81
        32 000223   000002 236000 33                 LDQ     2
        32 000224   000174 756000 0                  STQ     INSERT_SIZE+3
        32 000225   000174 630400 0                  EPPR0   INSERT_SIZE+3
        32 000226   000001 631400 33                 EPPR1   1
        32 000227   000000 701000 xent               TSX1    Z8ED$DISPOSE_HEAP
        32 000230   000000 011000                    NOP     0

             14494                                       %LEX_SYMBOL_ACTUAL_WORD_LEN(S$=LEX_SYMBOL_QUEUE$);
             14495    6     ((LENGTHC(S$ -> BASED_LEX_SYMBOL) + 3) / 4)
             14497    6                                 );
             14498    6       LEX_SYMBOL_QUEUE$ = LEX_SYMBOL.NEXT$;

  14498 32 000231   000000 236000 2                  LDQ     LEX_SYMBOL
        32 000232   000000 756000 27                 STQ     LEX_SYMBOL_QUEUE$

             14499    6       LEX_SYMBOL.NEXT$ = ADDR(NIL);

  14499 32 000233   000000 236000 33                 LDQ     0
        32 000234   000000 756000 2                  STQ     LEX_SYMBOL

             14500    6     END;

      252    14502    5                   SEARCH_REQUIRED = TRUE;

  14502 32 000235   400000 236003                    LDQ     -131072,DU
        32 000236   000000 756000 29                 STQ     SEARCH_REQUIRED

      253    14503    5                 END;

      254    14504    4           END;

  14504 32 000237   000516 710000 32                 TRA     s:14627

      255    14505    3         ELSE IF BUFFER.CLASS = %SPACE OR

  14505 32 000240   000001 235000 11                 LDA     BUFFER+1
        32 000241   000042 115007                    CMPA    34,DL
PL6.E3A0      #001=Z8EL$LEX File=Z8EL.:Z8A6TSI                                   SAT 08/09/97 12:03 Page:82
        32 000242   000264 600000 32                 TZE     s:14514
        32 000243   000000 115003                    CMPA    0,DU
        32 000244   000264 600000 32                 TZE     s:14514
        32 000245   000001 115007                    CMPA    1,DL
        32 000246   000264 600000 32                 TZE     s:14514
        32 000247   000001 235000 2                  LDA     LEX_SYMBOL+1
        32 000250   000005 115007                    CMPA    5,DL
        32 000251   000262 600000 32                 TZE     s:14505+18
        32 000252   000002 115007                    CMPA    2,DL
        32 000253   000262 600000 32                 TZE     s:14505+18
        32 000254   000025 115007                    CMPA    21,DL
        32 000255   000262 600000 32                 TZE     s:14505+18
        32 000256   000027 115007                    CMPA    23,DL
        32 000257   000262 600000 32                 TZE     s:14505+18
        32 000260   000041 115007                    CMPA    33,DL
        32 000261   000264 601000 32                 TNZ     s:14514
        32 000262   000162 234000 0                  SZN     PARSING_PICTURE
        32 000263   000266 605000 32                 TPL     s:14519

      256    14506    3             BUFFER.CLASS = %END_OF_LINE OR
      257    14507    3             BUFFER.CLASS = %END_OF_FILE OR
      258    14508    3             (LEX_SYMBOL.TYPE ~= %USER_WORD AND
      259    14509    3              LEX_SYMBOL.TYPE ~= %NUMBER_OR_PARAGRAPH AND
      260    14510    3              LEX_SYMBOL.TYPE ~= %NUMBER AND
      261    14511    3              LEX_SYMBOL.TYPE ~= %NAME AND
      262    14512    3              LEX_SYMBOL.TYPE ~= %LETTER_E) OR
      263    14513    3             PARSING_PICTURE THEN
      264    14514    3           SEARCH_REQUIRED = FALSE;

  14514 32 000264   000000 450000 29                 STZ     SEARCH_REQUIRED
        32 000265   000516 710000 32                 TRA     s:14627

      265    14515    3         ELSE
      266    14516    4           DO;

      267    14517                  %SAVE_CURRENT_TOKEN;
             14518    5      DO;
PL6.E3A0      #001=Z8EL$LEX File=Z8EL.:Z8A6TSI                                   SAT 08/09/97 12:03 Page:83

             14519    5        TEMP_LEX_SYMBOL = LEX_SYMBOL;

  14519 32 000266   000000 100400                    MLR     fill='000'O
        32 000267   000000 000550 2                  ADSC9   LEX_SYMBOL               cn=0,n=360
        32 000270   000000 000550 4                  ADSC9   TEMP_LEX_SYMBOL          cn=0,n=360

             14520    5      END;

      268    14522                  %GET_A_TOKEN;
             14523    5   DO;

             14524    5     IF LEX_SYMBOL_QUEUE$ ~= ADDR(NIL) THEN

  14524 32 000271   000000 236000 27                 LDQ     LEX_SYMBOL_QUEUE$
        32 000272   000000 116000 33                 CMPQ    0
        32 000273   000331 600000 32                 TZE     s:14547

             14525          %GET_LEX_SYMBOL_FROM_QUEUE;
             14526    6     DO;

             14527            %COPY_BASED_LEX_SYMBOL(FROM$=LEX_SYMBOL_QUEUE$,
             14528                                   TO$ = "ADDR(LEX_SYMBOL)");
             14529    7     DO;

             14530    7       TO$ -> BASED_LEX_SYMBOL.SIZE = FROM$ -> BASED_LEX_SYMBOL.SIZE;

  14530 32 000274   000000 471400 27                 LDP1    LEX_SYMBOL_QUEUE$
        32 000275   100010 235100                    LDA     8,,PR1
        32 000276   000010 755000 2                  STA     LEX_SYMBOL+8

             14531    7       TO$ -> BASED_LEX_SYMBOL = FROM$ -> BASED_LEX_SYMBOL;

  14531 32 000277   100010 720100                    LXL0    8,,PR1
        32 000300   000044 621010                    EAX1    36,X0
        32 000301   000044 622005                    EAX2    36,AL
        32 000302   000040 100540                    MLR     fill='000'O
PL6.E3A0      #001=Z8EL$LEX File=Z8EL.:Z8A6TSI                                   SAT 08/09/97 12:03 Page:84
        32 000303   100000 000011                    ADSC9   0,,PR1                   cn=0,n=*X1
        32 000304   000000 000012 2                  ADSC9   LEX_SYMBOL               cn=0,n=*X2

             14532    7     END;

             14534    6       CALL Z8ED$DISPOSE_HEAP (LEX_SYMBOL_QUEUE$,

  14534 32 000305   100010 720100                    LXL0    8,,PR1
        32 000306   000044 621010                    EAX1    36,X0
        32 000307   000000 636011                    EAQ     0,X1
        32 000310   000022 732000                    QRS     18
        32 000311   000003 036007                    ADLQ    3,DL
        32 000312   000004 506007                    DIV     4,DL
        32 000313   000172 756000 0                  STQ     INSERT_SIZE+1
        32 000314   000172 633400 0                  EPPR3   INSERT_SIZE+1
        32 000315   000175 453400 0                  STP3    INSERT_SIZE+4
        32 000316   000002 236000 33                 LDQ     2
        32 000317   000174 756000 0                  STQ     INSERT_SIZE+3
        32 000320   000174 630400 0                  EPPR0   INSERT_SIZE+3
        32 000321   000001 631400 33                 EPPR1   1
        32 000322   000000 701000 xent               TSX1    Z8ED$DISPOSE_HEAP
        32 000323   000000 011000                    NOP     0

             14535                                       %LEX_SYMBOL_ACTUAL_WORD_LEN(S$=LEX_SYMBOL_QUEUE$);
             14536    6     ((LENGTHC(S$ -> BASED_LEX_SYMBOL) + 3) / 4)
             14538    6                                 );
             14539    6       LEX_SYMBOL_QUEUE$ = LEX_SYMBOL.NEXT$;

  14539 32 000324   000000 236000 2                  LDQ     LEX_SYMBOL
        32 000325   000000 756000 27                 STQ     LEX_SYMBOL_QUEUE$

             14540    6       LEX_SYMBOL.NEXT$ = ADDR(NIL);

  14540 32 000326   000000 236000 33                 LDQ     0
        32 000327   000000 756000 2                  STQ     LEX_SYMBOL

             14541    6     END;
PL6.E3A0      #001=Z8EL$LEX File=Z8EL.:Z8A6TSI                                   SAT 08/09/97 12:03 Page:85

  14541 32 000330   000360 710000 32                 TRA     s:14560

             14543    5     ELSE
             14544    6       DO;

             14545              %GET_BRAND_NEW_TOKEN;
             14546    7       DO;

             14547    7         CALL Z8ES$SCANNER;

  14547 32 000331   000003 631400 33                 EPPR1   3
        32 000332   000000 701000 xent               TSX1    Z8ES$SCANNER
        32 000333   000000 011000                    NOP     0

             14548    8         DO WHILE LEX_SYMBOL.TYPE = %END_OF_LINE;

  14548 32 000334   000001 235000 2                  LDA     LEX_SYMBOL+1
        32 000335   000346 601000 32                 TNZ     s:14554

             14549    8           CALL Z8EL$GET_NEXT_SCANNER_LINE;

  14549 32 000336   000003 631400 33                 EPPR1   3
        32 000337   000000 701000 xent               TSX1    Z8EL$GET_NEXT_SCANNER_LINE
        32 000340   000000 011000                    NOP     0

             14550    8           CALL Z8ES$SCANNER;

  14550 32 000341   000003 631400 33                 EPPR1   3
        32 000342   000000 701000 xent               TSX1    Z8ES$SCANNER
        32 000343   000000 011000                    NOP     0

             14551    8         END;

  14551 32 000344   000001 235000 2                  LDA     LEX_SYMBOL+1
        32 000345   000336 600000 32                 TZE     s:14549

PL6.E3A0      #001=Z8EL$LEX File=Z8EL.:Z8A6TSI                                   SAT 08/09/97 12:03 Page:86
             14552    7       END;

             14554    6         IF LEX_SYMBOL.LEVEL ~= CURRENT_SYMBOL_LEVEL

  14554 32 000346   000003 236000 2                  LDQ     LEX_SYMBOL+3
        32 000347   000000 116000 22                 CMPQ    CURRENT_SYMBOL_LEVEL
        32 000350   000360 600000 32                 TZE     s:14560
        32 000351   000002 236000 2                  LDQ     LEX_SYMBOL+2
        32 000352   200000 316003                    CANQ    65536,DU
        32 000353   000360 601000 32                 TNZ     s:14560

             14555    6              AND NOT LEX_SYMBOL.B.REPLACED_TOKEN THEN
             14556    6           CALL Z8EL$HANDLE_LEVEL_CHANGE(LEX_SYMBOL.LEVEL);

  14556 32 000354   000005 630400 33                 EPPR0   5
        32 000355   000004 631400 33                 EPPR1   4
        32 000356   000000 701000 xent               TSX1    Z8EL$HANDLE_LEVEL_CHANGE
        32 000357   000000 011000                    NOP     0

             14557    6     END;

             14558    5   END;

      269    14560    4             CALL Z8AH$SEARCH_;

  14560 32 000360   000003 631400 33                 EPPR1   3
        32 000361   000000 701000 xent               TSX1    Z8AH$SEARCH_
        32 000362   000000 011000                    NOP     0

      270    14561                  %SAVE_TOKEN_ON_THE_QUEUE;
             14562    5      DO;

             14563             %COPY_TO_NEW_LEX_SYMBOL (FROM$ = "ADDR(LEX_SYMBOL)",
             14564                                      TO$   = HEAP$);
             14565    6     DO;

             14566    6       CALL Z8ED$NEW_HEAP (TO$,
PL6.E3A0      #001=Z8EL$LEX File=Z8EL.:Z8A6TSI                                   SAT 08/09/97 12:03 Page:87

  14566 32 000363   000010 236000 2                  LDQ     LEX_SYMBOL+8
        32 000364   000047 036007                    ADLQ    39,DL
        32 000365   000004 506007                    DIV     4,DL
        32 000366   000172 756000 0                  STQ     INSERT_SIZE+1
        32 000367   000172 630400 0                  EPPR0   INSERT_SIZE+1
        32 000370   000175 450400 0                  STP0    INSERT_SIZE+4
        32 000371   000006 236000 33                 LDQ     6
        32 000372   000174 756000 0                  STQ     INSERT_SIZE+3
        32 000373   000174 630400 0                  EPPR0   INSERT_SIZE+3
        32 000374   000001 631400 33                 EPPR1   1
        32 000375   000000 701000 xent               TSX1    Z8ED$NEW_HEAP
        32 000376   000000 011000                    NOP     0

             14567                                   %LEX_SYMBOL_ACTUAL_WORD_LEN(S$=FROM$);
             14568    6     ((LENGTHC(S$ -> BASED_LEX_SYMBOL) + 3) / 4)
             14570    6                             );
             14571            %COPY_BASED_LEX_SYMBOL(FROM$=FROM$, TO$=TO$);
             14572    7     DO;

             14573    7       TO$ -> BASED_LEX_SYMBOL.SIZE = FROM$ -> BASED_LEX_SYMBOL.SIZE;

  14573 32 000377   000000 470400 21                 LDP0    HEAP$
        32 000400   000010 235000 2                  LDA     LEX_SYMBOL+8
        32 000401   000010 755100                    STA     8,,PR0

             14574    7       TO$ -> BASED_LEX_SYMBOL = FROM$ -> BASED_LEX_SYMBOL;

  14574 32 000402   000010 720100                    LXL0    8,,PR0
        32 000403   000044 621010                    EAX1    36,X0
        32 000404   000010 722000 2                  LXL2    LEX_SYMBOL+8
        32 000405   000044 623012                    EAX3    36,X2
        32 000406   000140 100440                    MLR     fill='000'O
        32 000407   000000 000013 2                  ADSC9   LEX_SYMBOL               cn=0,n=*X3
        32 000410   000000 000011                    ADSC9   0,,PR0                   cn=0,n=*X1

             14575    7     END;
PL6.E3A0      #001=Z8EL$LEX File=Z8EL.:Z8A6TSI                                   SAT 08/09/97 12:03 Page:88

             14577    6     END;

             14579    5        HEAP$ -> BASED_LEX_SYMBOL.NEXT$ = LEX_SYMBOL_QUEUE$;

  14579 32 000411   000000 236000 27                 LDQ     LEX_SYMBOL_QUEUE$
        32 000412   000000 470400 21                 LDP0    HEAP$
        32 000413   000000 756100                    STQ     0,,PR0

             14580    5        LEX_SYMBOL_QUEUE$ = HEAP$;

  14580 32 000414   000000 236000 21                 LDQ     HEAP$
        32 000415   000000 756000 27                 STQ     LEX_SYMBOL_QUEUE$

             14581    5      END;

      271    14583    4             IF DNT$ -> DNT.B.REPLACE_TOKEN THEN

  14583 32 000416   000000 470400 17                 LDP0    DNT$
        32 000417   000003 236100                    LDQ     3,,PR0
        32 000420   010000 316003                    CANQ    4096,DU
        32 000421   000511 600000 32                 TZE     s:14618

      272    14584    5               DO;

      273    14585
      274    14586    5                 CALL Z8EL$POSSIBLE_REPLACE (0)

  14586 32 000422   000007 630400 33                 EPPR0   7
        32 000423   000004 631400 33                 EPPR1   4
        32 000424   000000 701000 xent               TSX1    Z8EL$POSSIBLE_REPLACE
        32 000425   000511 702000 32                 TSX2    s:14618

      275    14587    6                   WHENRETURN DO;

      276    14588                          %LOAD_SAVED_TOKEN;
             14589    7      DO;
PL6.E3A0      #001=Z8EL$LEX File=Z8EL.:Z8A6TSI                                   SAT 08/09/97 12:03 Page:89

             14590    7        LEX_SYMBOL = TEMP_LEX_SYMBOL;

  14590 32 000426   000000 100400                    MLR     fill='000'O
        32 000427   000000 000550 4                  ADSC9   TEMP_LEX_SYMBOL          cn=0,n=360
        32 000430   000000 000550 2                  ADSC9   LEX_SYMBOL               cn=0,n=360

             14591    7      END;

      277    14593    6                     IF LEX_SYMBOL_QUEUE$ ~= ADDR (NIL) AND

  14593 32 000431   000000 236000 27                 LDQ     LEX_SYMBOL_QUEUE$
        32 000432   000000 116000 33                 CMPQ    0
        32 000433   000510 600000 32                 TZE     s:14613
        32 000434   000000 470400 27                 LDP0    LEX_SYMBOL_QUEUE$
        32 000435   000005 235100                    LDA     5,,PR0
        32 000436   000006 471400 11                 LDP1    BUFFER+6
        32 000437   040000 106505                    CMPC    fill='040'O
        32 000440   177777 600001                    ADSC9   -1,A,PR1                 cn=3,n=1
        32 000441   000010 000001 33                 ADSC9   8                        cn=0,n=1
        32 000442   000510 600000 32                 TZE     s:14613

      278    14594    6                         SUBSTR (BUFFER_LINE,
      279    14595    6                                 LEX_SYMBOL_QUEUE$ -> BASED_LEX_SYMBOL.COLUMN - 1,
      280    14596    6                                 1) ~= ' ' THEN
      281    14597    7                       DO;

      282    14598    7                       I = LEX_SYMBOL_QUEUE$ -> BASED_LEX_SYMBOL.SIZE;

  14598 32 000443   000010 235100                    LDA     8,,PR0
        32 000444   000010 755000 0                  STA     I

      283    14599    7                       IF I > %MAX_SYMBOL_SIZE_PLUS_1 - LEX_SYMBOL.SIZE

  14599 32 000445   000504 236007                    LDQ     324,DL
        32 000446   000010 136000 2                  SBLQ    LEX_SYMBOL+8
        32 000447   000010 116000 0                  CMPQ    I
PL6.E3A0      #001=Z8EL$LEX File=Z8EL.:Z8A6TSI                                   SAT 08/09/97 12:03 Page:90
        32 000450   000452 605000 32                 TPL     s:14601

      284    14600    7                         THEN I = %MAX_SYMBOL_SIZE_PLUS_1 - LEX_SYMBOL.SIZE;

  14600 32 000451   000010 756000 0                  STQ     I

      285    14601    7                       SUBSTR (LEX_SYMBOL.SYMBOL, LEX_SYMBOL.SIZE, I)

  14601 32 000452   000010 720100                    LXL0    8,,PR0
        32 000453   000010 721000 0                  LXL1    I
        32 000454   000010 235000 2                  LDA     LEX_SYMBOL+8
        32 000455   040045 100540                    MLR     fill='040'O
        32 000456   000011 000010                    ADSC9   9,,PR0                   cn=0,n=*X0
        32 000457   000011 000011 2                  ADSC9   LEX_SYMBOL+9,A           cn=0,n=*X1

      286    14602    7                         = LEX_SYMBOL_QUEUE$ -> BASED_LEX_SYMBOL.SYMBOL;
      287    14603    7                       LEX_SYMBOL.SIZE = LEX_SYMBOL.SIZE + I;

  14603 32 000460   000010 236000 2                  LDQ     LEX_SYMBOL+8
        32 000461   000010 036000 0                  ADLQ    I
        32 000462   000010 756000 2                  STQ     LEX_SYMBOL+8

      288    14604    7                       LEX_SYMBOL.END_COLUMN = BUFFER.COLUMN;

  14604 32 000463   000000 235000 11                 LDA     BUFFER
        32 000464   000007 755000 2                  STA     LEX_SYMBOL+7

      289    14605    7                       HEAP$$ = LEX_SYMBOL_QUEUE$ -> BASED_LEX_SYMBOL.NEXT$;

  14605 32 000465   000000 236100                    LDQ     0,,PR0
        32 000466   000026 756000 0                  STQ     HEAP$$

      290    14606    7                       CALL Z8ED$DISPOSE_HEAP (LEX_SYMBOL_QUEUE$,

  14606 32 000467   000010 720100                    LXL0    8,,PR0
        32 000470   000044 622010                    EAX2    36,X0
        32 000471   000000 636012                    EAQ     0,X2
PL6.E3A0      #001=Z8EL$LEX File=Z8EL.:Z8A6TSI                                   SAT 08/09/97 12:03 Page:91
        32 000472   000022 732000                    QRS     18
        32 000473   000003 036007                    ADLQ    3,DL
        32 000474   000004 506007                    DIV     4,DL
        32 000475   000172 756000 0                  STQ     INSERT_SIZE+1
        32 000476   000172 633400 0                  EPPR3   INSERT_SIZE+1
        32 000477   000175 453400 0                  STP3    INSERT_SIZE+4
        32 000500   000002 236000 33                 LDQ     2
        32 000501   000174 756000 0                  STQ     INSERT_SIZE+3
        32 000502   000174 630400 0                  EPPR0   INSERT_SIZE+3
        32 000503   000001 631400 33                 EPPR1   1
        32 000504   000000 701000 xent               TSX1    Z8ED$DISPOSE_HEAP
        32 000505   000000 011000                    NOP     0

      291    14607                                                    %LEX_SYMBOL_ACTUAL_WORD_LEN (S$=
             14607                                                        LEX_SYMBOL_QUEUE$);
             14608    7     ((LENGTHC(S$ -> BASED_LEX_SYMBOL) + 3) / 4)
      292    14610    7                                               );
      293    14611    7                       LEX_SYMBOL_QUEUE$ = HEAP$$;

  14611 32 000506   000026 236000 0                  LDQ     HEAP$$
        32 000507   000000 756000 27                 STQ     LEX_SYMBOL_QUEUE$

      294    14612    7                       END;

      295    14613    6                     GOTO GOT_TOKEN;

  14613 32 000510   000104 710000 32                 TRA     GOT_TOKEN

      296    14614    6                   END;
      297    14615    5               END; /* DNT$ -> DNT.B.REPLACE_TOKEN */

      298    14616                  %LOAD_SAVED_TOKEN;
             14617    5      DO;

             14618    5        LEX_SYMBOL = TEMP_LEX_SYMBOL;

  14618 32 000511   000000 100400                    MLR     fill='000'O
PL6.E3A0      #001=Z8EL$LEX File=Z8EL.:Z8A6TSI                                   SAT 08/09/97 12:03 Page:92
        32 000512   000000 000550 4                  ADSC9   TEMP_LEX_SYMBOL          cn=0,n=360
        32 000513   000000 000550 2                  ADSC9   LEX_SYMBOL               cn=0,n=360

             14619    5      END;

      299    14621    4             SEARCH_REQUIRED = TRUE;

  14621 32 000514   400000 236003                    LDQ     -131072,DU
        32 000515   000000 756000 29                 STQ     SEARCH_REQUIRED

      300    14622    4           END;

      301    14623    3       END;

      302    14624
      303    14625          /* Ignore COPY & REPLACE in comment entries if column > 11 */
      304    14626
      305    14627    2     IF NOT IGNORE_COPY_REPLACE

  14627 32 000516   000000 234000 24                 SZN     IGNORE_COPY_REPLACE
        32 000517   000523 605000 32                 TPL     s:14631
        32 000520   000005 236000 2                  LDQ     LEX_SYMBOL+5
        32 000521   000121 116000 xsym               CMPQ    O1COM+81
        32 000522   000564 605000 32                 TPL     s:14659

      306    14628    2     OR LEX_SYMBOL.COLUMN < O1COM.AREA_B_COLUMN_START THEN
      307    14629    3       DO;

      308    14630              /* Check for copy/replace */
      309    14631    3         IF LEX_SYMBOL.SIZE = 4

  14631 32 000523   000010 235000 2                  LDA     LEX_SYMBOL+8
        32 000524   000004 115007                    CMPA    4,DL
        32 000525   000540 601000 32                 TNZ     s:14639
        32 000526   000011 236000 2                  LDQ     LEX_SYMBOL+9
        32 000527   000000 116000 31                 CMPQ    0
        32 000530   000540 601000 32                 TNZ     s:14639
PL6.E3A0      #001=Z8EL$LEX File=Z8EL.:Z8A6TSI                                   SAT 08/09/97 12:03 Page:93

      310    14632    3             AND SUBSTR(LEX_SYMBOL.SYMBOL,0,4) = 'COPY' THEN
      311    14633    4           DO;

      312    14634    4             CURRENT_BUFFER$ -> FILL_BUFFER.LINE_TYPE.COPY_REPL_LINE = TRUE;

  14634 32 000531   000000 470400 7                  LDP0    CURRENT_BUFFER$
        32 000532   000010 236003                    LDQ     8,DU
        32 000533   000011 256100                    ORSQ    9,,PR0

      313    14635    4             CALL Z8EL$PROCESS_COPY;

  14635 32 000534   000003 631400 33                 EPPR1   3
        32 000535   000000 701000 xent               TSX1    Z8EL$PROCESS_COPY
        32 000536   000000 011000                    NOP     0

      314    14636    4             GOTO NEW_TOKEN;

  14636 32 000537   000015 710000 32                 TRA     NEW_TOKEN

      315    14637    4           END;
      316    14638    3         ELSE
      317    14639    3           IF LEX_SYMBOL.SIZE = 7

  14639 32 000540   000007 115007                    CMPA    7,DL
        32 000541   000564 601000 32                 TNZ     s:14659
        32 000542   040000 106400                    CMPC    fill='040'O
        32 000543   000011 000007 2                  ADSC9   LEX_SYMBOL+9             cn=0,n=7
        32 000544   000001 000007 31                 ADSC9   1                        cn=0,n=7
        32 000545   000564 601000 32                 TNZ     s:14659

      318    14640    3             AND SUBSTR(LEX_SYMBOL.SYMBOL,0,7) = 'REPLACE' THEN
      319    14641    4             DO;

      320    14642    4               IF COMCOM.OB.FIPS.LEVEL >= %INT_LEV THEN

  14642 32 000546   000036 720000 xsym               LXL0    COMCOM+30
PL6.E3A0      #001=Z8EL$LEX File=Z8EL.:Z8A6TSI                                   SAT 08/09/97 12:03 Page:94
        32 000547   000002 100003                    CMPX0   2,DU
        32 000550   000555 604000 32                 TMI     s:14646

      321    14643    4                 CALL Z8AE$ERROR (%E$LEVEL_CHECK,

  14643 32 000551   000013 630400 33                 EPPR0   11
        32 000552   000011 631400 33                 EPPR1   9
        32 000553   000000 701000 xent               TSX1    Z8AE$ERROR
        32 000554   000000 011000                    NOP     0

      322    14644    4                                  LEX_SYMBOL.LINE,
      323    14645    4                                  LEX_SYMBOL.COLUMN);
      324    14646    4               CURRENT_BUFFER$ -> FILL_BUFFER.LINE_TYPE.COPY_REPL_LINE = TRUE;

  14646 32 000555   000000 470400 7                  LDP0    CURRENT_BUFFER$
        32 000556   000010 236003                    LDQ     8,DU
        32 000557   000011 256100                    ORSQ    9,,PR0

      325    14647    4               CALL Z8EL$PROCESS_REPLACE;

  14647 32 000560   000003 631400 33                 EPPR1   3
        32 000561   000000 701000 xent               TSX1    Z8EL$PROCESS_REPLACE
        32 000562   000000 011000                    NOP     0

      326    14648    4               GOTO NEW_TOKEN;

  14648 32 000563   000015 710000 32                 TRA     NEW_TOKEN

      327    14649    4             END;
      328    14650    3       END;
      329    14651
      330    14652        /* Next two macro calls are designed to resolve the problems
      331    14653           of LALR1 parsing limitation, so WITH DATA or NO DATA won't
      332    14654           mess up with WITH NO ADVANCING clause, and, ON SIZE ERROR
      333    14655           won't mess up with NOT ON EXCEPTION clause                */
      334    14656
      335    14657          %REPLACE_WITH_DATA_NO_DATA;
PL6.E3A0      #001=Z8EL$LEX File=Z8EL.:Z8A6TSI                                   SAT 08/09/97 12:03 Page:95
             14658    3     DO;

             14659    3       IF LEX_SYMBOL.SIZE = 4 AND

  14659 32 000564   000010 235000 2                  LDA     LEX_SYMBOL+8
        32 000565   000004 115007                    CMPA    4,DL
        32 000566   000742 601000 32                 TNZ     s:14746
        32 000567   000011 236000 2                  LDQ     LEX_SYMBOL+9
        32 000570   000003 116000 31                 CMPQ    3
        32 000571   000742 601000 32                 TNZ     s:14746

             14660    3         SUBSTR(LEX_SYMBOL.SYMBOL,0,4) = 'WITH' THEN
             14661    4          DO;

             14662                 %SAVE_CURRENT_TOKEN;
             14663    5      DO;

             14664    5        TEMP_LEX_SYMBOL = LEX_SYMBOL;

  14664 32 000572   000000 100400                    MLR     fill='000'O
        32 000573   000000 000550 2                  ADSC9   LEX_SYMBOL               cn=0,n=360
        32 000574   000000 000550 4                  ADSC9   TEMP_LEX_SYMBOL          cn=0,n=360

             14665    5      END;

             14667                 %GET_A_TOKEN;
             14668    5   DO;

             14669    5     IF LEX_SYMBOL_QUEUE$ ~= ADDR(NIL) THEN

  14669 32 000575   000000 236000 27                 LDQ     LEX_SYMBOL_QUEUE$
        32 000576   000000 116000 33                 CMPQ    0
        32 000577   000635 600000 32                 TZE     s:14692

             14670          %GET_LEX_SYMBOL_FROM_QUEUE;
             14671    6     DO;

PL6.E3A0      #001=Z8EL$LEX File=Z8EL.:Z8A6TSI                                   SAT 08/09/97 12:03 Page:96
             14672            %COPY_BASED_LEX_SYMBOL(FROM$=LEX_SYMBOL_QUEUE$,
             14673                                   TO$ = "ADDR(LEX_SYMBOL)");
             14674    7     DO;

             14675    7       TO$ -> BASED_LEX_SYMBOL.SIZE = FROM$ -> BASED_LEX_SYMBOL.SIZE;

  14675 32 000600   000000 470400 27                 LDP0    LEX_SYMBOL_QUEUE$
        32 000601   000010 235100                    LDA     8,,PR0
        32 000602   000010 755000 2                  STA     LEX_SYMBOL+8

             14676    7       TO$ -> BASED_LEX_SYMBOL = FROM$ -> BASED_LEX_SYMBOL;

  14676 32 000603   000010 720100                    LXL0    8,,PR0
        32 000604   000044 621010                    EAX1    36,X0
        32 000605   000044 622005                    EAX2    36,AL
        32 000606   000040 100540                    MLR     fill='000'O
        32 000607   000000 000011                    ADSC9   0,,PR0                   cn=0,n=*X1
        32 000610   000000 000012 2                  ADSC9   LEX_SYMBOL               cn=0,n=*X2

             14677    7     END;

             14679    6       CALL Z8ED$DISPOSE_HEAP (LEX_SYMBOL_QUEUE$,

  14679 32 000611   000010 720100                    LXL0    8,,PR0
        32 000612   000044 621010                    EAX1    36,X0
        32 000613   000000 636011                    EAQ     0,X1
        32 000614   000022 732000                    QRS     18
        32 000615   000003 036007                    ADLQ    3,DL
        32 000616   000004 506007                    DIV     4,DL
        32 000617   000172 756000 0                  STQ     INSERT_SIZE+1
        32 000620   000172 631400 0                  EPPR1   INSERT_SIZE+1
        32 000621   000175 451400 0                  STP1    INSERT_SIZE+4
        32 000622   000002 236000 33                 LDQ     2
        32 000623   000174 756000 0                  STQ     INSERT_SIZE+3
        32 000624   000174 630400 0                  EPPR0   INSERT_SIZE+3
        32 000625   000001 631400 33                 EPPR1   1
        32 000626   000000 701000 xent               TSX1    Z8ED$DISPOSE_HEAP
PL6.E3A0      #001=Z8EL$LEX File=Z8EL.:Z8A6TSI                                   SAT 08/09/97 12:03 Page:97
        32 000627   000000 011000                    NOP     0

             14680                                       %LEX_SYMBOL_ACTUAL_WORD_LEN(S$=LEX_SYMBOL_QUEUE$);
             14681    6     ((LENGTHC(S$ -> BASED_LEX_SYMBOL) + 3) / 4)
             14683    6                                 );
             14684    6       LEX_SYMBOL_QUEUE$ = LEX_SYMBOL.NEXT$;

  14684 32 000630   000000 236000 2                  LDQ     LEX_SYMBOL
        32 000631   000000 756000 27                 STQ     LEX_SYMBOL_QUEUE$

             14685    6       LEX_SYMBOL.NEXT$ = ADDR(NIL);

  14685 32 000632   000000 236000 33                 LDQ     0
        32 000633   000000 756000 2                  STQ     LEX_SYMBOL

             14686    6     END;

  14686 32 000634   000664 710000 32                 TRA     s:14705

             14688    5     ELSE
             14689    6       DO;

             14690              %GET_BRAND_NEW_TOKEN;
             14691    7       DO;

             14692    7         CALL Z8ES$SCANNER;

  14692 32 000635   000003 631400 33                 EPPR1   3
        32 000636   000000 701000 xent               TSX1    Z8ES$SCANNER
        32 000637   000000 011000                    NOP     0

             14693    8         DO WHILE LEX_SYMBOL.TYPE = %END_OF_LINE;

  14693 32 000640   000001 235000 2                  LDA     LEX_SYMBOL+1
        32 000641   000652 601000 32                 TNZ     s:14699

             14694    8           CALL Z8EL$GET_NEXT_SCANNER_LINE;
PL6.E3A0      #001=Z8EL$LEX File=Z8EL.:Z8A6TSI                                   SAT 08/09/97 12:03 Page:98

  14694 32 000642   000003 631400 33                 EPPR1   3
        32 000643   000000 701000 xent               TSX1    Z8EL$GET_NEXT_SCANNER_LINE
        32 000644   000000 011000                    NOP     0

             14695    8           CALL Z8ES$SCANNER;

  14695 32 000645   000003 631400 33                 EPPR1   3
        32 000646   000000 701000 xent               TSX1    Z8ES$SCANNER
        32 000647   000000 011000                    NOP     0

             14696    8         END;

  14696 32 000650   000001 235000 2                  LDA     LEX_SYMBOL+1
        32 000651   000642 600000 32                 TZE     s:14694

             14697    7       END;

             14699    6         IF LEX_SYMBOL.LEVEL ~= CURRENT_SYMBOL_LEVEL

  14699 32 000652   000003 236000 2                  LDQ     LEX_SYMBOL+3
        32 000653   000000 116000 22                 CMPQ    CURRENT_SYMBOL_LEVEL
        32 000654   000664 600000 32                 TZE     s:14705
        32 000655   000002 236000 2                  LDQ     LEX_SYMBOL+2
        32 000656   200000 316003                    CANQ    65536,DU
        32 000657   000664 601000 32                 TNZ     s:14705

             14700    6              AND NOT LEX_SYMBOL.B.REPLACED_TOKEN THEN
             14701    6           CALL Z8EL$HANDLE_LEVEL_CHANGE(LEX_SYMBOL.LEVEL);

  14701 32 000660   000005 630400 33                 EPPR0   5
        32 000661   000004 631400 33                 EPPR1   4
        32 000662   000000 701000 xent               TSX1    Z8EL$HANDLE_LEVEL_CHANGE
        32 000663   000000 011000                    NOP     0

             14702    6     END;

PL6.E3A0      #001=Z8EL$LEX File=Z8EL.:Z8A6TSI                                   SAT 08/09/97 12:03 Page:99
             14703    5   END;

             14705    4            IF LEX_SYMBOL.SIZE = 4 AND

  14705 32 000664   000010 235000 2                  LDA     LEX_SYMBOL+8
        32 000665   000004 115007                    CMPA    4,DL
        32 000666   000704 601000 32                 TNZ     s:14722
        32 000667   000011 236000 2                  LDQ     LEX_SYMBOL+9
        32 000670   000004 116000 31                 CMPQ    4
        32 000671   000704 601000 32                 TNZ     s:14722

             14706    4              SUBSTR(LEX_SYMBOL.SYMBOL,0,4) = 'DATA' THEN
             14707                     %REPLACE_WITH_DATA_TOKEN;
             14708    5      DO;

             14709    5        LEX_SYMBOL.LINE = TEMP_LEX_SYMBOL.LINE;

  14709 32 000672   000004 235000 4                  LDA     TEMP_LEX_SYMBOL+4
        32 000673   000004 755000 2                  STA     LEX_SYMBOL+4

             14710    5        LEX_SYMBOL.COLUMN = TEMP_LEX_SYMBOL.COLUMN;

  14710 32 000674   000005 235000 4                  LDA     TEMP_LEX_SYMBOL+5
        32 000675   000005 755000 2                  STA     LEX_SYMBOL+5

             14711    5        LEX_SYMBOL.SIZE = %WITH_DATA_SIZE;

  14711 32 000676   000011 235007                    LDA     9,DL
        32 000677   000010 755000 2                  STA     LEX_SYMBOL+8

             14712    5        SUBSTR(LEX_SYMBOL.SYMBOL,0,%WITH_DATA_SIZE) = %WITH_DATA_TEXT;

  14712 32 000700   040000 100400                    MLR     fill='040'O
        32 000701   000005 000011 31                 ADSC9   5                        cn=0,n=9
        32 000702   000011 000011 2                  ADSC9   LEX_SYMBOL+9             cn=0,n=9

             14713    5      END;
PL6.E3A0      #001=Z8EL$LEX File=Z8EL.:Z8A6TSI                                   SAT 08/09/97 12:03 Page:100

  14713 32 000703   000742 710000 32                 TRA     s:14746

             14715    4            ELSE
             14716    5              DO;

             14717                     %SAVE_TOKEN_ON_THE_QUEUE;
             14718    6      DO;

             14719             %COPY_TO_NEW_LEX_SYMBOL (FROM$ = "ADDR(LEX_SYMBOL)",
             14720                                      TO$   = HEAP$);
             14721    7     DO;

             14722    7       CALL Z8ED$NEW_HEAP (TO$,

  14722 32 000704   000010 236000 2                  LDQ     LEX_SYMBOL+8
        32 000705   000047 036007                    ADLQ    39,DL
        32 000706   000004 506007                    DIV     4,DL
        32 000707   000172 756000 0                  STQ     INSERT_SIZE+1
        32 000710   000172 630400 0                  EPPR0   INSERT_SIZE+1
        32 000711   000175 450400 0                  STP0    INSERT_SIZE+4
        32 000712   000006 236000 33                 LDQ     6
        32 000713   000174 756000 0                  STQ     INSERT_SIZE+3
        32 000714   000174 630400 0                  EPPR0   INSERT_SIZE+3
        32 000715   000001 631400 33                 EPPR1   1
        32 000716   000000 701000 xent               TSX1    Z8ED$NEW_HEAP
        32 000717   000000 011000                    NOP     0

             14723                                   %LEX_SYMBOL_ACTUAL_WORD_LEN(S$=FROM$);
             14724    7     ((LENGTHC(S$ -> BASED_LEX_SYMBOL) + 3) / 4)
             14726    7                             );
             14727            %COPY_BASED_LEX_SYMBOL(FROM$=FROM$, TO$=TO$);
             14728    8     DO;

             14729    8       TO$ -> BASED_LEX_SYMBOL.SIZE = FROM$ -> BASED_LEX_SYMBOL.SIZE;

  14729 32 000720   000000 470400 21                 LDP0    HEAP$
PL6.E3A0      #001=Z8EL$LEX File=Z8EL.:Z8A6TSI                                   SAT 08/09/97 12:03 Page:101
        32 000721   000010 235000 2                  LDA     LEX_SYMBOL+8
        32 000722   000010 755100                    STA     8,,PR0

             14730    8       TO$ -> BASED_LEX_SYMBOL = FROM$ -> BASED_LEX_SYMBOL;

  14730 32 000723   000010 720100                    LXL0    8,,PR0
        32 000724   000044 621010                    EAX1    36,X0
        32 000725   000010 722000 2                  LXL2    LEX_SYMBOL+8
        32 000726   000044 623012                    EAX3    36,X2
        32 000727   000140 100440                    MLR     fill='000'O
        32 000730   000000 000013 2                  ADSC9   LEX_SYMBOL               cn=0,n=*X3
        32 000731   000000 000011                    ADSC9   0,,PR0                   cn=0,n=*X1

             14731    8     END;

             14733    7     END;

             14735    6        HEAP$ -> BASED_LEX_SYMBOL.NEXT$ = LEX_SYMBOL_QUEUE$;

  14735 32 000732   000000 236000 27                 LDQ     LEX_SYMBOL_QUEUE$
        32 000733   000000 470400 21                 LDP0    HEAP$
        32 000734   000000 756100                    STQ     0,,PR0

             14736    6        LEX_SYMBOL_QUEUE$ = HEAP$;

  14736 32 000735   000000 236000 21                 LDQ     HEAP$
        32 000736   000000 756000 27                 STQ     LEX_SYMBOL_QUEUE$

             14737    6      END;

             14739                     %LOAD_SAVED_TOKEN;
             14740    6      DO;

             14741    6        LEX_SYMBOL = TEMP_LEX_SYMBOL;

  14741 32 000737   000000 100400                    MLR     fill='000'O
        32 000740   000000 000550 4                  ADSC9   TEMP_LEX_SYMBOL          cn=0,n=360
PL6.E3A0      #001=Z8EL$LEX File=Z8EL.:Z8A6TSI                                   SAT 08/09/97 12:03 Page:102
        32 000741   000000 000550 2                  ADSC9   LEX_SYMBOL               cn=0,n=360

             14742    6      END;

             14744    5              END;

             14745    4          END;

             14746    3       IF LEX_SYMBOL.SIZE = 2 AND

  14746 32 000742   000010 235000 2                  LDA     LEX_SYMBOL+8
        32 000743   000002 115007                    CMPA    2,DL
        32 000744   001120 601000 32                 TNZ     s:14838
        32 000745   000011 220000 2                  LDX0    LEX_SYMBOL+9
        32 000746   000010 100000 31                 CMPX0   8
        32 000747   001120 601000 32                 TNZ     s:14838

             14747    3         SUBSTR(LEX_SYMBOL.SYMBOL,0,2) = 'NO' THEN
             14748    4          DO;

             14749                 %SAVE_CURRENT_TOKEN;
             14750    5      DO;

             14751    5        TEMP_LEX_SYMBOL = LEX_SYMBOL;

  14751 32 000750   000000 100400                    MLR     fill='000'O
        32 000751   000000 000550 2                  ADSC9   LEX_SYMBOL               cn=0,n=360
        32 000752   000000 000550 4                  ADSC9   TEMP_LEX_SYMBOL          cn=0,n=360

             14752    5      END;

             14754                 %GET_A_TOKEN;
             14755    5   DO;

             14756    5     IF LEX_SYMBOL_QUEUE$ ~= ADDR(NIL) THEN

  14756 32 000753   000000 236000 27                 LDQ     LEX_SYMBOL_QUEUE$
PL6.E3A0      #001=Z8EL$LEX File=Z8EL.:Z8A6TSI                                   SAT 08/09/97 12:03 Page:103
        32 000754   000000 116000 33                 CMPQ    0
        32 000755   001013 600000 32                 TZE     s:14779

             14757          %GET_LEX_SYMBOL_FROM_QUEUE;
             14758    6     DO;

             14759            %COPY_BASED_LEX_SYMBOL(FROM$=LEX_SYMBOL_QUEUE$,
             14760                                   TO$ = "ADDR(LEX_SYMBOL)");
             14761    7     DO;

             14762    7       TO$ -> BASED_LEX_SYMBOL.SIZE = FROM$ -> BASED_LEX_SYMBOL.SIZE;

  14762 32 000756   000000 470400 27                 LDP0    LEX_SYMBOL_QUEUE$
        32 000757   000010 235100                    LDA     8,,PR0
        32 000760   000010 755000 2                  STA     LEX_SYMBOL+8

             14763    7       TO$ -> BASED_LEX_SYMBOL = FROM$ -> BASED_LEX_SYMBOL;

  14763 32 000761   000010 721100                    LXL1    8,,PR0
        32 000762   000044 622011                    EAX2    36,X1
        32 000763   000044 623005                    EAX3    36,AL
        32 000764   000040 100540                    MLR     fill='000'O
        32 000765   000000 000012                    ADSC9   0,,PR0                   cn=0,n=*X2
        32 000766   000000 000013 2                  ADSC9   LEX_SYMBOL               cn=0,n=*X3

             14764    7     END;

             14766    6       CALL Z8ED$DISPOSE_HEAP (LEX_SYMBOL_QUEUE$,

  14766 32 000767   000010 720100                    LXL0    8,,PR0
        32 000770   000044 621010                    EAX1    36,X0
        32 000771   000000 636011                    EAQ     0,X1
        32 000772   000022 732000                    QRS     18
        32 000773   000003 036007                    ADLQ    3,DL
        32 000774   000004 506007                    DIV     4,DL
        32 000775   000172 756000 0                  STQ     INSERT_SIZE+1
        32 000776   000172 631400 0                  EPPR1   INSERT_SIZE+1
PL6.E3A0      #001=Z8EL$LEX File=Z8EL.:Z8A6TSI                                   SAT 08/09/97 12:03 Page:104
        32 000777   000175 451400 0                  STP1    INSERT_SIZE+4
        32 001000   000002 236000 33                 LDQ     2
        32 001001   000174 756000 0                  STQ     INSERT_SIZE+3
        32 001002   000174 630400 0                  EPPR0   INSERT_SIZE+3
        32 001003   000001 631400 33                 EPPR1   1
        32 001004   000000 701000 xent               TSX1    Z8ED$DISPOSE_HEAP
        32 001005   000000 011000                    NOP     0

             14767                                       %LEX_SYMBOL_ACTUAL_WORD_LEN(S$=LEX_SYMBOL_QUEUE$);
             14768    6     ((LENGTHC(S$ -> BASED_LEX_SYMBOL) + 3) / 4)
             14770    6                                 );
             14771    6       LEX_SYMBOL_QUEUE$ = LEX_SYMBOL.NEXT$;

  14771 32 001006   000000 236000 2                  LDQ     LEX_SYMBOL
        32 001007   000000 756000 27                 STQ     LEX_SYMBOL_QUEUE$

             14772    6       LEX_SYMBOL.NEXT$ = ADDR(NIL);

  14772 32 001010   000000 236000 33                 LDQ     0
        32 001011   000000 756000 2                  STQ     LEX_SYMBOL

             14773    6     END;

  14773 32 001012   001042 710000 32                 TRA     s:14792

             14775    5     ELSE
             14776    6       DO;

             14777              %GET_BRAND_NEW_TOKEN;
             14778    7       DO;

             14779    7         CALL Z8ES$SCANNER;

  14779 32 001013   000003 631400 33                 EPPR1   3
        32 001014   000000 701000 xent               TSX1    Z8ES$SCANNER
        32 001015   000000 011000                    NOP     0

PL6.E3A0      #001=Z8EL$LEX File=Z8EL.:Z8A6TSI                                   SAT 08/09/97 12:03 Page:105
             14780    8         DO WHILE LEX_SYMBOL.TYPE = %END_OF_LINE;

  14780 32 001016   000001 235000 2                  LDA     LEX_SYMBOL+1
        32 001017   001030 601000 32                 TNZ     s:14786

             14781    8           CALL Z8EL$GET_NEXT_SCANNER_LINE;

  14781 32 001020   000003 631400 33                 EPPR1   3
        32 001021   000000 701000 xent               TSX1    Z8EL$GET_NEXT_SCANNER_LINE
        32 001022   000000 011000                    NOP     0

             14782    8           CALL Z8ES$SCANNER;

  14782 32 001023   000003 631400 33                 EPPR1   3
        32 001024   000000 701000 xent               TSX1    Z8ES$SCANNER
        32 001025   000000 011000                    NOP     0

             14783    8         END;

  14783 32 001026   000001 235000 2                  LDA     LEX_SYMBOL+1
        32 001027   001020 600000 32                 TZE     s:14781

             14784    7       END;

             14786    6         IF LEX_SYMBOL.LEVEL ~= CURRENT_SYMBOL_LEVEL

  14786 32 001030   000003 236000 2                  LDQ     LEX_SYMBOL+3
        32 001031   000000 116000 22                 CMPQ    CURRENT_SYMBOL_LEVEL
        32 001032   001042 600000 32                 TZE     s:14792
        32 001033   000002 236000 2                  LDQ     LEX_SYMBOL+2
        32 001034   200000 316003                    CANQ    65536,DU
        32 001035   001042 601000 32                 TNZ     s:14792

             14787    6              AND NOT LEX_SYMBOL.B.REPLACED_TOKEN THEN
             14788    6           CALL Z8EL$HANDLE_LEVEL_CHANGE(LEX_SYMBOL.LEVEL);

  14788 32 001036   000005 630400 33                 EPPR0   5
PL6.E3A0      #001=Z8EL$LEX File=Z8EL.:Z8A6TSI                                   SAT 08/09/97 12:03 Page:106
        32 001037   000004 631400 33                 EPPR1   4
        32 001040   000000 701000 xent               TSX1    Z8EL$HANDLE_LEVEL_CHANGE
        32 001041   000000 011000                    NOP     0

             14789    6     END;

             14790    5   END;

             14792    4            IF LEX_SYMBOL.SIZE = 4 AND

  14792 32 001042   000010 235000 2                  LDA     LEX_SYMBOL+8
        32 001043   000004 115007                    CMPA    4,DL
        32 001044   001062 601000 32                 TNZ     s:14809
        32 001045   000011 236000 2                  LDQ     LEX_SYMBOL+9
        32 001046   000004 116000 31                 CMPQ    4
        32 001047   001062 601000 32                 TNZ     s:14809

             14793    4              SUBSTR(LEX_SYMBOL.SYMBOL,0,4) = 'DATA' THEN
             14794                     %REPLACE_NO_DATA_TOKEN;
             14795    5      DO;

             14796    5        LEX_SYMBOL.LINE = TEMP_LEX_SYMBOL.LINE;

  14796 32 001050   000004 235000 4                  LDA     TEMP_LEX_SYMBOL+4
        32 001051   000004 755000 2                  STA     LEX_SYMBOL+4

             14797    5        LEX_SYMBOL.COLUMN = TEMP_LEX_SYMBOL.COLUMN;

  14797 32 001052   000005 235000 4                  LDA     TEMP_LEX_SYMBOL+5
        32 001053   000005 755000 2                  STA     LEX_SYMBOL+5

             14798    5        LEX_SYMBOL.SIZE = %NO_DATA_SIZE;

  14798 32 001054   000007 235007                    LDA     7,DL
        32 001055   000010 755000 2                  STA     LEX_SYMBOL+8

             14799    5        SUBSTR(LEX_SYMBOL.SYMBOL,0,%NO_DATA_SIZE) = %NO_DATA_TEXT;
PL6.E3A0      #001=Z8EL$LEX File=Z8EL.:Z8A6TSI                                   SAT 08/09/97 12:03 Page:107

  14799 32 001056   040000 100400                    MLR     fill='040'O
        32 001057   000011 000007 31                 ADSC9   9                        cn=0,n=7
        32 001060   000011 000007 2                  ADSC9   LEX_SYMBOL+9             cn=0,n=7

             14800    5      END;

  14800 32 001061   001120 710000 32                 TRA     s:14838

             14802    4            ELSE
             14803    5              DO;

             14804                     %SAVE_TOKEN_ON_THE_QUEUE;
             14805    6      DO;

             14806             %COPY_TO_NEW_LEX_SYMBOL (FROM$ = "ADDR(LEX_SYMBOL)",
             14807                                      TO$   = HEAP$);
             14808    7     DO;

             14809    7       CALL Z8ED$NEW_HEAP (TO$,

  14809 32 001062   000010 236000 2                  LDQ     LEX_SYMBOL+8
        32 001063   000047 036007                    ADLQ    39,DL
        32 001064   000004 506007                    DIV     4,DL
        32 001065   000172 756000 0                  STQ     INSERT_SIZE+1
        32 001066   000172 630400 0                  EPPR0   INSERT_SIZE+1
        32 001067   000175 450400 0                  STP0    INSERT_SIZE+4
        32 001070   000006 236000 33                 LDQ     6
        32 001071   000174 756000 0                  STQ     INSERT_SIZE+3
        32 001072   000174 630400 0                  EPPR0   INSERT_SIZE+3
        32 001073   000001 631400 33                 EPPR1   1
        32 001074   000000 701000 xent               TSX1    Z8ED$NEW_HEAP
        32 001075   000000 011000                    NOP     0

             14810                                   %LEX_SYMBOL_ACTUAL_WORD_LEN(S$=FROM$);
             14811    7     ((LENGTHC(S$ -> BASED_LEX_SYMBOL) + 3) / 4)
             14813    7                             );
PL6.E3A0      #001=Z8EL$LEX File=Z8EL.:Z8A6TSI                                   SAT 08/09/97 12:03 Page:108
             14814            %COPY_BASED_LEX_SYMBOL(FROM$=FROM$, TO$=TO$);
             14815    8     DO;

             14816    8       TO$ -> BASED_LEX_SYMBOL.SIZE = FROM$ -> BASED_LEX_SYMBOL.SIZE;

  14816 32 001076   000000 470400 21                 LDP0    HEAP$
        32 001077   000010 235000 2                  LDA     LEX_SYMBOL+8
        32 001100   000010 755100                    STA     8,,PR0

             14817    8       TO$ -> BASED_LEX_SYMBOL = FROM$ -> BASED_LEX_SYMBOL;

  14817 32 001101   000010 720100                    LXL0    8,,PR0
        32 001102   000044 621010                    EAX1    36,X0
        32 001103   000010 722000 2                  LXL2    LEX_SYMBOL+8
        32 001104   000044 623012                    EAX3    36,X2
        32 001105   000140 100440                    MLR     fill='000'O
        32 001106   000000 000013 2                  ADSC9   LEX_SYMBOL               cn=0,n=*X3
        32 001107   000000 000011                    ADSC9   0,,PR0                   cn=0,n=*X1

             14818    8     END;

             14820    7     END;

             14822    6        HEAP$ -> BASED_LEX_SYMBOL.NEXT$ = LEX_SYMBOL_QUEUE$;

  14822 32 001110   000000 236000 27                 LDQ     LEX_SYMBOL_QUEUE$
        32 001111   000000 470400 21                 LDP0    HEAP$
        32 001112   000000 756100                    STQ     0,,PR0

             14823    6        LEX_SYMBOL_QUEUE$ = HEAP$;

  14823 32 001113   000000 236000 21                 LDQ     HEAP$
        32 001114   000000 756000 27                 STQ     LEX_SYMBOL_QUEUE$

             14824    6      END;

             14826                     %LOAD_SAVED_TOKEN;
PL6.E3A0      #001=Z8EL$LEX File=Z8EL.:Z8A6TSI                                   SAT 08/09/97 12:03 Page:109
             14827    6      DO;

             14828    6        LEX_SYMBOL = TEMP_LEX_SYMBOL;

  14828 32 001115   000000 100400                    MLR     fill='000'O
        32 001116   000000 000550 4                  ADSC9   TEMP_LEX_SYMBOL          cn=0,n=360
        32 001117   000000 000550 2                  ADSC9   LEX_SYMBOL               cn=0,n=360

             14829    6      END;

             14831    5              END;

             14832    4          END;

             14833    3     END;

      336    14835
      337    14836          %REPLACE_NOT_ON_EXCEPTION_TOKEN;
             14837    3     DO;

             14838    3       IF LEX_SYMBOL.SIZE = 3 AND

  14838 32 001120   000010 235000 2                  LDA     LEX_SYMBOL+8
        32 001121   000003 115007                    CMPA    3,DL
        32 001122   001445 601000 32                 TNZ     s:15001
        32 001123   000011 236000 2                  LDQ     LEX_SYMBOL+9
        32 001124   000013 676000 31                 ERQ     11
        32 001125   000016 376000 33                 ANQ     14
        32 001126   001445 601000 32                 TNZ     s:15001

             14839    3          SUBSTR(LEX_SYMBOL.SYMBOL,0,3) = 'NOT' THEN
             14840    4         DO;

             14841    4           TEMP_LEX_SYMBOL2 = LEX_SYMBOL;

  14841 32 001127   000000 100400                    MLR     fill='000'O
        32 001130   000000 000550 2                  ADSC9   LEX_SYMBOL               cn=0,n=360
PL6.E3A0      #001=Z8EL$LEX File=Z8EL.:Z8A6TSI                                   SAT 08/09/97 12:03 Page:110
        32 001131   000000 000550 5                  ADSC9   TEMP_LEX_SYMBOL2         cn=0,n=360

             14842                %GET_A_TOKEN;
             14843    5   DO;

             14844    5     IF LEX_SYMBOL_QUEUE$ ~= ADDR(NIL) THEN

  14844 32 001132   000000 236000 27                 LDQ     LEX_SYMBOL_QUEUE$
        32 001133   000000 116000 33                 CMPQ    0
        32 001134   001172 600000 32                 TZE     s:14867

             14845          %GET_LEX_SYMBOL_FROM_QUEUE;
             14846    6     DO;

             14847            %COPY_BASED_LEX_SYMBOL(FROM$=LEX_SYMBOL_QUEUE$,
             14848                                   TO$ = "ADDR(LEX_SYMBOL)");
             14849    7     DO;

             14850    7       TO$ -> BASED_LEX_SYMBOL.SIZE = FROM$ -> BASED_LEX_SYMBOL.SIZE;

  14850 32 001135   000000 470400 27                 LDP0    LEX_SYMBOL_QUEUE$
        32 001136   000010 235100                    LDA     8,,PR0
        32 001137   000010 755000 2                  STA     LEX_SYMBOL+8

             14851    7       TO$ -> BASED_LEX_SYMBOL = FROM$ -> BASED_LEX_SYMBOL;

  14851 32 001140   000010 720100                    LXL0    8,,PR0
        32 001141   000044 621010                    EAX1    36,X0
        32 001142   000044 622005                    EAX2    36,AL
        32 001143   000040 100540                    MLR     fill='000'O
        32 001144   000000 000011                    ADSC9   0,,PR0                   cn=0,n=*X1
        32 001145   000000 000012 2                  ADSC9   LEX_SYMBOL               cn=0,n=*X2

             14852    7     END;

             14854    6       CALL Z8ED$DISPOSE_HEAP (LEX_SYMBOL_QUEUE$,

PL6.E3A0      #001=Z8EL$LEX File=Z8EL.:Z8A6TSI                                   SAT 08/09/97 12:03 Page:111
  14854 32 001146   000010 720100                    LXL0    8,,PR0
        32 001147   000044 621010                    EAX1    36,X0
        32 001150   000000 636011                    EAQ     0,X1
        32 001151   000022 732000                    QRS     18
        32 001152   000003 036007                    ADLQ    3,DL
        32 001153   000004 506007                    DIV     4,DL
        32 001154   000172 756000 0                  STQ     INSERT_SIZE+1
        32 001155   000172 631400 0                  EPPR1   INSERT_SIZE+1
        32 001156   000175 451400 0                  STP1    INSERT_SIZE+4
        32 001157   000002 236000 33                 LDQ     2
        32 001160   000174 756000 0                  STQ     INSERT_SIZE+3
        32 001161   000174 630400 0                  EPPR0   INSERT_SIZE+3
        32 001162   000001 631400 33                 EPPR1   1
        32 001163   000000 701000 xent               TSX1    Z8ED$DISPOSE_HEAP
        32 001164   000000 011000                    NOP     0

             14855                                       %LEX_SYMBOL_ACTUAL_WORD_LEN(S$=LEX_SYMBOL_QUEUE$);
             14856    6     ((LENGTHC(S$ -> BASED_LEX_SYMBOL) + 3) / 4)
             14858    6                                 );
             14859    6       LEX_SYMBOL_QUEUE$ = LEX_SYMBOL.NEXT$;

  14859 32 001165   000000 236000 2                  LDQ     LEX_SYMBOL
        32 001166   000000 756000 27                 STQ     LEX_SYMBOL_QUEUE$

             14860    6       LEX_SYMBOL.NEXT$ = ADDR(NIL);

  14860 32 001167   000000 236000 33                 LDQ     0
        32 001170   000000 756000 2                  STQ     LEX_SYMBOL

             14861    6     END;

  14861 32 001171   001221 710000 32                 TRA     s:14882

             14863    5     ELSE
             14864    6       DO;

             14865              %GET_BRAND_NEW_TOKEN;
PL6.E3A0      #001=Z8EL$LEX File=Z8EL.:Z8A6TSI                                   SAT 08/09/97 12:03 Page:112
             14866    7       DO;

             14867    7         CALL Z8ES$SCANNER;

  14867 32 001172   000003 631400 33                 EPPR1   3
        32 001173   000000 701000 xent               TSX1    Z8ES$SCANNER
        32 001174   000000 011000                    NOP     0

             14868    8         DO WHILE LEX_SYMBOL.TYPE = %END_OF_LINE;

  14868 32 001175   000001 235000 2                  LDA     LEX_SYMBOL+1
        32 001176   001207 601000 32                 TNZ     s:14874

             14869    8           CALL Z8EL$GET_NEXT_SCANNER_LINE;

  14869 32 001177   000003 631400 33                 EPPR1   3
        32 001200   000000 701000 xent               TSX1    Z8EL$GET_NEXT_SCANNER_LINE
        32 001201   000000 011000                    NOP     0

             14870    8           CALL Z8ES$SCANNER;

  14870 32 001202   000003 631400 33                 EPPR1   3
        32 001203   000000 701000 xent               TSX1    Z8ES$SCANNER
        32 001204   000000 011000                    NOP     0

             14871    8         END;

  14871 32 001205   000001 235000 2                  LDA     LEX_SYMBOL+1
        32 001206   001177 600000 32                 TZE     s:14869

             14872    7       END;

             14874    6         IF LEX_SYMBOL.LEVEL ~= CURRENT_SYMBOL_LEVEL

  14874 32 001207   000003 236000 2                  LDQ     LEX_SYMBOL+3
        32 001210   000000 116000 22                 CMPQ    CURRENT_SYMBOL_LEVEL
        32 001211   001221 600000 32                 TZE     s:14882
PL6.E3A0      #001=Z8EL$LEX File=Z8EL.:Z8A6TSI                                   SAT 08/09/97 12:03 Page:113
        32 001212   000002 236000 2                  LDQ     LEX_SYMBOL+2
        32 001213   200000 316003                    CANQ    65536,DU
        32 001214   001221 601000 32                 TNZ     s:14882

             14875    6              AND NOT LEX_SYMBOL.B.REPLACED_TOKEN THEN
             14876    6           CALL Z8EL$HANDLE_LEVEL_CHANGE(LEX_SYMBOL.LEVEL);

  14876 32 001215   000005 630400 33                 EPPR0   5
        32 001216   000004 631400 33                 EPPR1   4
        32 001217   000000 701000 xent               TSX1    Z8EL$HANDLE_LEVEL_CHANGE
        32 001220   000000 011000                    NOP     0

             14877    6     END;

             14878    5   END;

             14880                %REPLACE_ON_EXCEPTION_TOKEN;
             14881    5     DO;

             14882    5       IF LEX_SYMBOL.SIZE = 2 AND

  14882 32 001221   000010 235000 2                  LDA     LEX_SYMBOL+8
        32 001222   000002 115007                    CMPA    2,DL
        32 001223   001366 601000 32                 TNZ     s:14962
        32 001224   000011 220000 2                  LDX0    LEX_SYMBOL+9
        32 001225   000014 100000 31                 CMPX0   12
        32 001226   001366 601000 32                 TNZ     s:14962

             14883    5         SUBSTR(LEX_SYMBOL.SYMBOL,0,2) = 'ON' THEN
             14884    6         DO;

             14885                %SAVE_CURRENT_TOKEN;
             14886    7      DO;

             14887    7        TEMP_LEX_SYMBOL = LEX_SYMBOL;

  14887 32 001227   000000 100400                    MLR     fill='000'O
PL6.E3A0      #001=Z8EL$LEX File=Z8EL.:Z8A6TSI                                   SAT 08/09/97 12:03 Page:114
        32 001230   000000 000550 2                  ADSC9   LEX_SYMBOL               cn=0,n=360
        32 001231   000000 000550 4                  ADSC9   TEMP_LEX_SYMBOL          cn=0,n=360

             14888    7      END;

             14890                %GET_A_TOKEN;
             14891    7   DO;

             14892    7     IF LEX_SYMBOL_QUEUE$ ~= ADDR(NIL) THEN

  14892 32 001232   000000 236000 27                 LDQ     LEX_SYMBOL_QUEUE$
        32 001233   000000 116000 33                 CMPQ    0
        32 001234   001272 600000 32                 TZE     s:14915

             14893          %GET_LEX_SYMBOL_FROM_QUEUE;
             14894    8     DO;

             14895            %COPY_BASED_LEX_SYMBOL(FROM$=LEX_SYMBOL_QUEUE$,
             14896                                   TO$ = "ADDR(LEX_SYMBOL)");
             14897    9     DO;

             14898    9       TO$ -> BASED_LEX_SYMBOL.SIZE = FROM$ -> BASED_LEX_SYMBOL.SIZE;

  14898 32 001235   000000 470400 27                 LDP0    LEX_SYMBOL_QUEUE$
        32 001236   000010 235100                    LDA     8,,PR0
        32 001237   000010 755000 2                  STA     LEX_SYMBOL+8

             14899    9       TO$ -> BASED_LEX_SYMBOL = FROM$ -> BASED_LEX_SYMBOL;

  14899 32 001240   000010 721100                    LXL1    8,,PR0
        32 001241   000044 622011                    EAX2    36,X1
        32 001242   000044 623005                    EAX3    36,AL
        32 001243   000040 100540                    MLR     fill='000'O
        32 001244   000000 000012                    ADSC9   0,,PR0                   cn=0,n=*X2
        32 001245   000000 000013 2                  ADSC9   LEX_SYMBOL               cn=0,n=*X3

             14900    9     END;
PL6.E3A0      #001=Z8EL$LEX File=Z8EL.:Z8A6TSI                                   SAT 08/09/97 12:03 Page:115

             14902    8       CALL Z8ED$DISPOSE_HEAP (LEX_SYMBOL_QUEUE$,

  14902 32 001246   000010 720100                    LXL0    8,,PR0
        32 001247   000044 621010                    EAX1    36,X0
        32 001250   000000 636011                    EAQ     0,X1
        32 001251   000022 732000                    QRS     18
        32 001252   000003 036007                    ADLQ    3,DL
        32 001253   000004 506007                    DIV     4,DL
        32 001254   000172 756000 0                  STQ     INSERT_SIZE+1
        32 001255   000172 631400 0                  EPPR1   INSERT_SIZE+1
        32 001256   000175 451400 0                  STP1    INSERT_SIZE+4
        32 001257   000002 236000 33                 LDQ     2
        32 001260   000174 756000 0                  STQ     INSERT_SIZE+3
        32 001261   000174 630400 0                  EPPR0   INSERT_SIZE+3
        32 001262   000001 631400 33                 EPPR1   1
        32 001263   000000 701000 xent               TSX1    Z8ED$DISPOSE_HEAP
        32 001264   000000 011000                    NOP     0

             14903                                       %LEX_SYMBOL_ACTUAL_WORD_LEN(S$=LEX_SYMBOL_QUEUE$);
             14904    8     ((LENGTHC(S$ -> BASED_LEX_SYMBOL) + 3) / 4)
             14906    8                                 );
             14907    8       LEX_SYMBOL_QUEUE$ = LEX_SYMBOL.NEXT$;

  14907 32 001265   000000 236000 2                  LDQ     LEX_SYMBOL
        32 001266   000000 756000 27                 STQ     LEX_SYMBOL_QUEUE$

             14908    8       LEX_SYMBOL.NEXT$ = ADDR(NIL);

  14908 32 001267   000000 236000 33                 LDQ     0
        32 001270   000000 756000 2                  STQ     LEX_SYMBOL

             14909    8     END;

  14909 32 001271   001321 710000 32                 TRA     s:14928

             14911    7     ELSE
PL6.E3A0      #001=Z8EL$LEX File=Z8EL.:Z8A6TSI                                   SAT 08/09/97 12:03 Page:116
             14912    8       DO;

             14913              %GET_BRAND_NEW_TOKEN;
             14914    9       DO;

             14915    9         CALL Z8ES$SCANNER;

  14915 32 001272   000003 631400 33                 EPPR1   3
        32 001273   000000 701000 xent               TSX1    Z8ES$SCANNER
        32 001274   000000 011000                    NOP     0

             14916   10         DO WHILE LEX_SYMBOL.TYPE = %END_OF_LINE;

  14916 32 001275   000001 235000 2                  LDA     LEX_SYMBOL+1
        32 001276   001307 601000 32                 TNZ     s:14922

             14917   10           CALL Z8EL$GET_NEXT_SCANNER_LINE;

  14917 32 001277   000003 631400 33                 EPPR1   3
        32 001300   000000 701000 xent               TSX1    Z8EL$GET_NEXT_SCANNER_LINE
        32 001301   000000 011000                    NOP     0

             14918   10           CALL Z8ES$SCANNER;

  14918 32 001302   000003 631400 33                 EPPR1   3
        32 001303   000000 701000 xent               TSX1    Z8ES$SCANNER
        32 001304   000000 011000                    NOP     0

             14919   10         END;

  14919 32 001305   000001 235000 2                  LDA     LEX_SYMBOL+1
        32 001306   001277 600000 32                 TZE     s:14917

             14920    9       END;

             14922    8         IF LEX_SYMBOL.LEVEL ~= CURRENT_SYMBOL_LEVEL

PL6.E3A0      #001=Z8EL$LEX File=Z8EL.:Z8A6TSI                                   SAT 08/09/97 12:03 Page:117
  14922 32 001307   000003 236000 2                  LDQ     LEX_SYMBOL+3
        32 001310   000000 116000 22                 CMPQ    CURRENT_SYMBOL_LEVEL
        32 001311   001321 600000 32                 TZE     s:14928
        32 001312   000002 236000 2                  LDQ     LEX_SYMBOL+2
        32 001313   200000 316003                    CANQ    65536,DU
        32 001314   001321 601000 32                 TNZ     s:14928

             14923    8              AND NOT LEX_SYMBOL.B.REPLACED_TOKEN THEN
             14924    8           CALL Z8EL$HANDLE_LEVEL_CHANGE(LEX_SYMBOL.LEVEL);

  14924 32 001315   000005 630400 33                 EPPR0   5
        32 001316   000004 631400 33                 EPPR1   4
        32 001317   000000 701000 xent               TSX1    Z8EL$HANDLE_LEVEL_CHANGE
        32 001320   000000 011000                    NOP     0

             14925    8     END;

             14926    7   END;

             14928    6           IF LEX_SYMBOL.SIZE ~= 9 OR

  14928 32 001321   000010 235000 2                  LDA     LEX_SYMBOL+8
        32 001322   000011 115007                    CMPA    9,DL
        32 001323   001330 601000 32                 TNZ     s:14936
        32 001324   040000 106400                    CMPC    fill='040'O
        32 001325   000011 000011 2                  ADSC9   LEX_SYMBOL+9             cn=0,n=9
        32 001326   000015 000011 31                 ADSC9   13                       cn=0,n=9
        32 001327   001366 600000 32                 TZE     s:14962

             14929    6             SUBSTR(LEX_SYMBOL.SYMBOL,0,9) ~= 'EXCEPTION' THEN
             14930    7             DO;

             14931                    %SAVE_TOKEN_ON_THE_QUEUE;
             14932    8      DO;

             14933             %COPY_TO_NEW_LEX_SYMBOL (FROM$ = "ADDR(LEX_SYMBOL)",
             14934                                      TO$   = HEAP$);
PL6.E3A0      #001=Z8EL$LEX File=Z8EL.:Z8A6TSI                                   SAT 08/09/97 12:03 Page:118
             14935    9     DO;

             14936    9       CALL Z8ED$NEW_HEAP (TO$,

  14936 32 001330   000010 236000 2                  LDQ     LEX_SYMBOL+8
        32 001331   000047 036007                    ADLQ    39,DL
        32 001332   000004 506007                    DIV     4,DL
        32 001333   000172 756000 0                  STQ     INSERT_SIZE+1
        32 001334   000172 630400 0                  EPPR0   INSERT_SIZE+1
        32 001335   000175 450400 0                  STP0    INSERT_SIZE+4
        32 001336   000006 236000 33                 LDQ     6
        32 001337   000174 756000 0                  STQ     INSERT_SIZE+3
        32 001340   000174 630400 0                  EPPR0   INSERT_SIZE+3
        32 001341   000001 631400 33                 EPPR1   1
        32 001342   000000 701000 xent               TSX1    Z8ED$NEW_HEAP
        32 001343   000000 011000                    NOP     0

             14937                                   %LEX_SYMBOL_ACTUAL_WORD_LEN(S$=FROM$);
             14938    9     ((LENGTHC(S$ -> BASED_LEX_SYMBOL) + 3) / 4)
             14940    9                             );
             14941            %COPY_BASED_LEX_SYMBOL(FROM$=FROM$, TO$=TO$);
             14942   10     DO;

             14943   10       TO$ -> BASED_LEX_SYMBOL.SIZE = FROM$ -> BASED_LEX_SYMBOL.SIZE;

  14943 32 001344   000000 470400 21                 LDP0    HEAP$
        32 001345   000010 235000 2                  LDA     LEX_SYMBOL+8
        32 001346   000010 755100                    STA     8,,PR0

             14944   10       TO$ -> BASED_LEX_SYMBOL = FROM$ -> BASED_LEX_SYMBOL;

  14944 32 001347   000010 720100                    LXL0    8,,PR0
        32 001350   000044 621010                    EAX1    36,X0
        32 001351   000010 722000 2                  LXL2    LEX_SYMBOL+8
        32 001352   000044 623012                    EAX3    36,X2
        32 001353   000140 100440                    MLR     fill='000'O
        32 001354   000000 000013 2                  ADSC9   LEX_SYMBOL               cn=0,n=*X3
PL6.E3A0      #001=Z8EL$LEX File=Z8EL.:Z8A6TSI                                   SAT 08/09/97 12:03 Page:119
        32 001355   000000 000011                    ADSC9   0,,PR0                   cn=0,n=*X1

             14945   10     END;

             14947    9     END;

             14949    8        HEAP$ -> BASED_LEX_SYMBOL.NEXT$ = LEX_SYMBOL_QUEUE$;

  14949 32 001356   000000 236000 27                 LDQ     LEX_SYMBOL_QUEUE$
        32 001357   000000 470400 21                 LDP0    HEAP$
        32 001360   000000 756100                    STQ     0,,PR0

             14950    8        LEX_SYMBOL_QUEUE$ = HEAP$;

  14950 32 001361   000000 236000 21                 LDQ     HEAP$
        32 001362   000000 756000 27                 STQ     LEX_SYMBOL_QUEUE$

             14951    8      END;

             14953                    %LOAD_SAVED_TOKEN;
             14954    8      DO;

             14955    8        LEX_SYMBOL = TEMP_LEX_SYMBOL;

  14955 32 001363   000000 100400                    MLR     fill='000'O
        32 001364   000000 000550 4                  ADSC9   TEMP_LEX_SYMBOL          cn=0,n=360
        32 001365   000000 000550 2                  ADSC9   LEX_SYMBOL               cn=0,n=360

             14956    8      END;

             14958    7             END;

             14959    6         END;

             14960    5     END;

             14962    4           IF LEX_SYMBOL.SIZE ~= 9 OR
PL6.E3A0      #001=Z8EL$LEX File=Z8EL.:Z8A6TSI                                   SAT 08/09/97 12:03 Page:120

  14962 32 001366   000010 235000 2                  LDA     LEX_SYMBOL+8
        32 001367   000011 115007                    CMPA    9,DL
        32 001370   001375 601000 32                 TNZ     s:14970
        32 001371   040000 106400                    CMPC    fill='040'O
        32 001372   000011 000011 2                  ADSC9   LEX_SYMBOL+9             cn=0,n=9
        32 001373   000015 000011 31                 ADSC9   13                       cn=0,n=9
        32 001374   001434 600000 32                 TZE     s:14991

             14963    4              SUBSTR(LEX_SYMBOL.SYMBOL,0,9) ~= 'EXCEPTION' THEN
             14964    5             DO;

             14965                    %SAVE_TOKEN_ON_THE_QUEUE;
             14966    6      DO;

             14967             %COPY_TO_NEW_LEX_SYMBOL (FROM$ = "ADDR(LEX_SYMBOL)",
             14968                                      TO$   = HEAP$);
             14969    7     DO;

             14970    7       CALL Z8ED$NEW_HEAP (TO$,

  14970 32 001375   000010 236000 2                  LDQ     LEX_SYMBOL+8
        32 001376   000047 036007                    ADLQ    39,DL
        32 001377   000004 506007                    DIV     4,DL
        32 001400   000172 756000 0                  STQ     INSERT_SIZE+1
        32 001401   000172 630400 0                  EPPR0   INSERT_SIZE+1
        32 001402   000175 450400 0                  STP0    INSERT_SIZE+4
        32 001403   000006 236000 33                 LDQ     6
        32 001404   000174 756000 0                  STQ     INSERT_SIZE+3
        32 001405   000174 630400 0                  EPPR0   INSERT_SIZE+3
        32 001406   000001 631400 33                 EPPR1   1
        32 001407   000000 701000 xent               TSX1    Z8ED$NEW_HEAP
        32 001410   000000 011000                    NOP     0

             14971                                   %LEX_SYMBOL_ACTUAL_WORD_LEN(S$=FROM$);
             14972    7     ((LENGTHC(S$ -> BASED_LEX_SYMBOL) + 3) / 4)
             14974    7                             );
PL6.E3A0      #001=Z8EL$LEX File=Z8EL.:Z8A6TSI                                   SAT 08/09/97 12:03 Page:121
             14975            %COPY_BASED_LEX_SYMBOL(FROM$=FROM$, TO$=TO$);
             14976    8     DO;

             14977    8       TO$ -> BASED_LEX_SYMBOL.SIZE = FROM$ -> BASED_LEX_SYMBOL.SIZE;

  14977 32 001411   000000 470400 21                 LDP0    HEAP$
        32 001412   000010 235000 2                  LDA     LEX_SYMBOL+8
        32 001413   000010 755100                    STA     8,,PR0

             14978    8       TO$ -> BASED_LEX_SYMBOL = FROM$ -> BASED_LEX_SYMBOL;

  14978 32 001414   000010 720100                    LXL0    8,,PR0
        32 001415   000044 621010                    EAX1    36,X0
        32 001416   000010 722000 2                  LXL2    LEX_SYMBOL+8
        32 001417   000044 623012                    EAX3    36,X2
        32 001420   000140 100440                    MLR     fill='000'O
        32 001421   000000 000013 2                  ADSC9   LEX_SYMBOL               cn=0,n=*X3
        32 001422   000000 000011                    ADSC9   0,,PR0                   cn=0,n=*X1

             14979    8     END;

             14981    7     END;

             14983    6        HEAP$ -> BASED_LEX_SYMBOL.NEXT$ = LEX_SYMBOL_QUEUE$;

  14983 32 001423   000000 236000 27                 LDQ     LEX_SYMBOL_QUEUE$
        32 001424   000000 470400 21                 LDP0    HEAP$
        32 001425   000000 756100                    STQ     0,,PR0

             14984    6        LEX_SYMBOL_QUEUE$ = HEAP$;

  14984 32 001426   000000 236000 21                 LDQ     HEAP$
        32 001427   000000 756000 27                 STQ     LEX_SYMBOL_QUEUE$

             14985    6      END;

             14987    5               LEX_SYMBOL = TEMP_LEX_SYMBOL2;
PL6.E3A0      #001=Z8EL$LEX File=Z8EL.:Z8A6TSI                                   SAT 08/09/97 12:03 Page:122

  14987 32 001430   000000 100400                    MLR     fill='000'O
        32 001431   000000 000550 5                  ADSC9   TEMP_LEX_SYMBOL2         cn=0,n=360
        32 001432   000000 000550 2                  ADSC9   LEX_SYMBOL               cn=0,n=360

             14988    5             END;

  14988 32 001433   001445 710000 32                 TRA     s:15001

             14989    4           ELSE
             14990    5             DO;

             14991    5               LEX_SYMBOL.LINE = TEMP_LEX_SYMBOL2.LINE;

  14991 32 001434   000004 236000 5                  LDQ     TEMP_LEX_SYMBOL2+4
        32 001435   000004 756000 2                  STQ     LEX_SYMBOL+4

             14992    5               LEX_SYMBOL.COLUMN = TEMP_LEX_SYMBOL2.COLUMN;

  14992 32 001436   000005 235000 5                  LDA     TEMP_LEX_SYMBOL2+5
        32 001437   000005 755000 2                  STA     LEX_SYMBOL+5

             14993    5               LEX_SYMBOL.SIZE = 16;

  14993 32 001440   000020 235007                    LDA     16,DL
        32 001441   000010 755000 2                  STA     LEX_SYMBOL+8

             14994    5               SUBSTR(LEX_SYMBOL.SYMBOL,0,16) = 'NOT ON EXCEPTION';

  14994 32 001442   040000 100400                    MLR     fill='040'O
        32 001443   000020 000020 31                 ADSC9   16                       cn=0,n=16
        32 001444   000011 000020 2                  ADSC9   LEX_SYMBOL+9             cn=0,n=16

             14995    5             END;

             14996    4         END;

PL6.E3A0      #001=Z8EL$LEX File=Z8EL.:Z8A6TSI                                   SAT 08/09/97 12:03 Page:123
             14997    3      END;

      338    14999
      339    15000
      340    15001    2   IF (NOT O1COM.DEBUGGING_MODE)

  15001 32 001445   000026 234000 xsym               SZN     O1COM+22
        32 001446   001452 604000 32                 TMI     s:15005
        32 001447   000002 236000 2                  LDQ     LEX_SYMBOL+2
        32 001450   100000 316003                    CANQ    32768,DU
        32 001451   000015 601000 32                 TNZ     NEW_TOKEN

      341    15002    2         AND LEX_SYMBOL.B.DEBUG_TOKEN THEN
      342    15003    2     GOTO NEW_TOKEN;
      343    15004
      344    15005    2   END REPLACED_TOKEN;

  15005 32 001452   000164 221200 0                  LDX1  ! PARSING_PICTURE+2
        32 001453   000001 702211                    TSX2  ! 1,X1

      345    15006        %EJECT ;
PL6.E3A0      #001=Z8EL$LEX File=Z8EL.:Z8A6TSI                                   SAT 08/09/97 12:03 Page:124
      346    15007    1   SCAN_COMMENT_ENTRY: PROC ;

  15007 32 001454   000165 741200 0     SCAN_COMMEN* STX1  ! PARSING_PICTURE+3

      347    15008
      348    15009    2     DCL CONTINUATION_ISN SBIN WORD;
      349    15010
      350    15011    2     CONTINUATION_ISN = CURRENT_BUFFER$ -> FILL_BUFFER.ISN;

  15011 32 001455   000000 470400 7                  LDP0    CURRENT_BUFFER$
        32 001456   000004 235100                    LDA     4,,PR0
        32 001457   000166 755000 0                  STA     CONTINUATION_ISN

      351    15012
      352    15013    2     IGNORE_COPY_REPLACE = TRUE;

  15013 32 001460   400000 236003                    LDQ     -131072,DU
        32 001461   000000 756000 24                 STQ     IGNORE_COPY_REPLACE

      353    15014
      354    15015             /*N* Free_Format -- The following DO is valid for fixed_format
      355    15016                                 and the free_format subset only.
      356    15017             */
      357    15018
      358    15019    3          DO UNTIL LEX_SYMBOL.COLUMN < O1COM.AREA_B_COLUMN_START

      359    15020    3                    OR
      360    15021    3                   LEX_SYMBOL.TYPE = %END_OF_FILE;
      361    15022
      362    15023    3            CALL REPLACED_TOKEN;

  15023 32 001462   000014 701000 32                 TSX1    REPLACED_TOKEN
        32 001463   000000 011000                    NOP     0

      363    15024
      364    15025    3            IF O1COM.AUTHOR_COMMENT     THEN

PL6.E3A0      #001=Z8EL$LEX File=Z8EL.:Z8A6TSI                                   SAT 08/09/97 12:03 Page:125
  15025 32 001464   000114 234000 xsym               SZN     O1COM+76
        32 001465   001502 605000 32                 TPL     s:15037

      365    15026    4             DO;

      366    15027    4                IF LEX_SYMBOL.COLUMN < O1COM.AREA_B_COLUMN_START OR

  15027 32 001466   000005 236000 2                  LDQ     LEX_SYMBOL+5
        32 001467   000121 116000 xsym               CMPQ    O1COM+81
        32 001470   001501 604000 32                 TMI     s:15034
        32 001471   000001 235000 2                  LDA     LEX_SYMBOL+1
        32 001472   000001 115007                    CMPA    1,DL
        32 001473   001501 600000 32                 TZE     s:15034

      367    15028    4                    LEX_SYMBOL.TYPE = %END_OF_FILE        THEN   ;
      368    15029    4                  ELSE
      369    15030    5                    DO;

      370    15031    5                      CALL Z8AH$SEARCH_;

  15031 32 001474   000003 631400 33                 EPPR1   3
        32 001475   000000 701000 xent               TSX1    Z8AH$SEARCH_
        32 001476   000000 011000                    NOP     0

      371    15032    5                      COMCOM.AUTHOR$ = DNT$;

  15032 32 001477   000000 236000 17                 LDQ     DNT$
        32 001500   000505 756000 xsym               STQ     COMCOM+325

      372    15033    5                    END;

      373    15034    4                O1COM.AUTHOR_COMMENT = %FALSE;

  15034 32 001501   000114 450000 xsym               STZ     O1COM+76

      374    15035    4             END;

PL6.E3A0      #001=Z8EL$LEX File=Z8EL.:Z8A6TSI                                   SAT 08/09/97 12:03 Page:126
      375    15036
      376    15037    3            IF O1COM.ID_DIV_COUNT = 0  AND O1COM.INSTAL_ON THEN

  15037 32 001502   000116 235000 xsym               LDA     O1COM+78
        32 001503   001572 601000 32                 TNZ     s:15083
        32 001504   000117 234000 xsym               SZN     O1COM+79
        32 001505   001572 605000 32                 TPL     s:15083

      377    15038    4              DO;

      378    15039    4                IF LEX_SYMBOL.COLUMN >= O1COM.AREA_B_COLUMN_START AND

  15039 32 001506   000005 236000 2                  LDQ     LEX_SYMBOL+5
        32 001507   000121 116000 xsym               CMPQ    O1COM+81
        32 001510   001570 604000 32                 TMI     s:15080
        32 001511   000001 235000 2                  LDA     LEX_SYMBOL+1
        32 001512   000003 115007                    CMPA    3,DL
        32 001513   001516 600000 32                 TZE     s:15043
        32 001514   000004 115007                    CMPA    4,DL
        32 001515   001570 601000 32                 TNZ     s:15080

      379    15040    4                  (LEX_SYMBOL.TYPE = %ALPHA_LITERAL OR
      380    15041    4                   LEX_SYMBOL.TYPE = %SINGLE_QUOTE) THEN
      381    15042    5                  DO;

      382    15043    5                    CALL Z8AH$SEARCH_;

  15043 32 001516   000003 631400 33                 EPPR1   3
        32 001517   000000 701000 xent               TSX1    Z8AH$SEARCH_
        32 001520   000000 011000                    NOP     0

      383    15044
      384    15045                         %NEW_HEAP (@POINTER = HEAP$$);
             15046    6     DO;

             15047    6       CALL Z8ED$NEW_HEAP (@POINTER, @SIZE);

PL6.E3A0      #001=Z8EL$LEX File=Z8EL.:Z8A6TSI                                   SAT 08/09/97 12:03 Page:127
  15047 32 001521   000020 630400 33                 EPPR0   16
        32 001522   000001 631400 33                 EPPR1   1
        32 001523   000000 701000 xent               TSX1    Z8ED$NEW_HEAP
        32 001524   000000 011000                    NOP     0

             15048    6     END;

      385    15050
      386    15051                         %INIT_LX_TERMINAL (@POINTER = HEAP$$,
      387    15052                                            @DNT$    = DNT$,
      388    15053                                            @SYMBOL  = LEX_SYMBOL.TYPE,
      389    15054                                            @LINE    = LEX_SYMBOL.LINE,
      390    15055                                            @COLUMN  = LEX_SYMBOL.COLUMN);
             15056    6     DO;

             15057    6       @POINTER -> LX_TERMINAL.ID     = %LX_TERMINAL;

  15057 32 001525   000000 220003                    LDX0    0,DU
        32 001526   000026 470400 0                  LDP0    HEAP$$
        32 001527   000000 740100                    STX0    0,,PR0

             15058    6       @POINTER -> LX_TERMINAL.B      = '0'B;

  15058 32 001530   000000 221003                    LDX1    0,DU
        32 001531   000026 470400 0                  LDP0    HEAP$$
        32 001532   000000 441100                    SXL1    0,,PR0

             15059            %IF (TEXTCHAR(@BERROR) ~= '');
             15061            %ENDIF;
             15062    6       @POINTER -> LX_TERMINAL.TYPE   = @TYPE %;

  15062 32 001533   000015 235007                    LDA     13,DL
        32 001534   000026 470400 0                  LDP0    HEAP$$
        32 001535   000004 755100                    STA     4,,PR0

             15063            %IF (TEXTCHAR(@LA_ITEM) = '');
             15064    6         @POINTER -> LX_TERMINAL.LINK   = @LINK;
PL6.E3A0      #001=Z8EL$LEX File=Z8EL.:Z8A6TSI                                   SAT 08/09/97 12:03 Page:128

  15064 32 001536   000000 236000 33                 LDQ     0
        32 001537   000026 470400 0                  LDP0    HEAP$$
        32 001540   000007 756100                    STQ     7,,PR0

             15065            %ENDIF;
             15066    6       @POINTER -> LX_TERMINAL.ST$    = @ST$ ;

  15066 32 001541   000026 470400 0                  LDP0    HEAP$$
        32 001542   000001 756100                    STQ     1,,PR0

             15067    6       @POINTER -> LX_TERMINAL.SYMBOL = @SYMBOL;

  15067 32 001543   000001 235000 2                  LDA     LEX_SYMBOL+1
        32 001544   000026 470400 0                  LDP0    HEAP$$
        32 001545   000003 755100                    STA     3,,PR0

             15068    6       @POINTER -> LX_TERMINAL.DNT$   = @DNT$;

  15068 32 001546   000000 236000 17                 LDQ     DNT$
        32 001547   000026 470400 0                  LDP0    HEAP$$
        32 001550   000002 756100                    STQ     2,,PR0

             15069    6       @POINTER -> LX_TERMINAL.LINE   = @LINE;

  15069 32 001551   000004 235000 2                  LDA     LEX_SYMBOL+4
        32 001552   000026 470400 0                  LDP0    HEAP$$
        32 001553   000005 755100                    STA     5,,PR0

             15070    6       @POINTER -> LX_TERMINAL.COLUMN = @COLUMN;

  15070 32 001554   000005 235000 2                  LDA     LEX_SYMBOL+5
        32 001555   000026 470400 0                  LDP0    HEAP$$
        32 001556   000006 755100                    STA     6,,PR0

             15071    6     END;

PL6.E3A0      #001=Z8EL$LEX File=Z8EL.:Z8A6TSI                                   SAT 08/09/97 12:03 Page:129
      391    15073
      392    15074    5                    IF COMCOM.INSTALLATION$ ~= ADDR(NIL) THEN

  15074 32 001557   000500 236000 xsym               LDQ     COMCOM+320
        32 001560   000000 116000 33                 CMPQ    0
        32 001561   001566 600000 32                 TZE     s:15077

      393    15075    5                      CALL Z8ED$DISPOSE_ABSSYN_TREE (COMCOM.INSTALLATION$);

  15075 32 001562   000022 630400 33                 EPPR0   18
        32 001563   000004 631400 33                 EPPR1   4
        32 001564   000000 701000 xent               TSX1    Z8ED$DISPOSE_ABSSYN_TREE
        32 001565   000000 011000                    NOP     0

      394    15076
      395    15077    5                    COMCOM.INSTALLATION$ = HEAP$$;

  15077 32 001566   000026 236000 0                  LDQ     HEAP$$
        32 001567   000500 756000 xsym               STQ     COMCOM+320

      396    15078
      397    15079    5                  END;

      398    15080    4                O1COM.INSTAL_ON = FALSE;

  15080 32 001570   000023 236000 33                 LDQ     19
        32 001571   000117 356000 xsym               ANSQ    O1COM+79

      399    15081    4              END;

      400    15082
      401    15083    3            IF CURRENT_BUFFER$ -> FILL_BUFFER.LINE_TYPE.CONTINUATION THEN

  15083 32 001572   000000 470400 7                  LDP0    CURRENT_BUFFER$
        32 001573   000011 234100                    SZN     9,,PR0
        32 001574   001621 605000 32                 TPL     s:15093

PL6.E3A0      #001=Z8EL$LEX File=Z8EL.:Z8A6TSI                                   SAT 08/09/97 12:03 Page:130
      402    15084    3              IF CONTINUATION_ISN ~=

  15084 32 001575   000166 236000 0                  LDQ     CONTINUATION_ISN
        32 001576   000004 116100                    CMPQ    4,,PR0
        32 001577   001621 600000 32                 TZE     s:15093

      403    15085    3                   CURRENT_BUFFER$ -> FILL_BUFFER.ISN THEN
      404    15086    4                DO;

      405    15087    4                  CALL Z8AE$ERROR (%E$ERR_COMMENT_ENTRY_CONTINUE,

  15087 32 001600   000122 235000 xsym               LDA     O1COM+82
        32 001601   000001 135007                    SBLA    1,DL
        32 001602   000172 755000 0                  STA     INSERT_SIZE+1
        32 001603   000172 631400 0                  EPPR1   INSERT_SIZE+1
        32 001604   000175 451400 0                  STP1    INSERT_SIZE+4
        32 001605   000000 236000 7                  LDQ     CURRENT_BUFFER$
        32 001606   000004 036003                    ADLQ    4,DU
        32 001607   000174 756000 0                  STQ     INSERT_SIZE+3
        32 001610   000025 236000 33                 LDQ     21
        32 001611   000173 756000 0                  STQ     INSERT_SIZE+2
        32 001612   000173 630400 0                  EPPR0   INSERT_SIZE+2
        32 001613   000011 631400 33                 EPPR1   9
        32 001614   000000 701000 xent               TSX1    Z8AE$ERROR
        32 001615   000000 011000                    NOP     0

      406    15088    4                           CURRENT_BUFFER$ -> FILL_BUFFER.ISN,
      407    15089    4                           O1COM.AREA_A_COLUMN_START - 1);
      408    15090    4                  CONTINUATION_ISN = CURRENT_BUFFER$ -> FILL_BUFFER.ISN;

  15090 32 001616   000000 470400 7                  LDP0    CURRENT_BUFFER$
        32 001617   000004 235100                    LDA     4,,PR0
        32 001620   000166 755000 0                  STA     CONTINUATION_ISN

      409    15091    4                END;

      410    15092
PL6.E3A0      #001=Z8EL$LEX File=Z8EL.:Z8A6TSI                                   SAT 08/09/97 12:03 Page:131
      411    15093    3          END ;

  15093 32 001621   000005 236000 2                  LDQ     LEX_SYMBOL+5
        32 001622   000121 116000 xsym               CMPQ    O1COM+81
        32 001623   001627 604000 32                 TMI     s:15095
        32 001624   000001 235000 2                  LDA     LEX_SYMBOL+1
        32 001625   000001 115007                    CMPA    1,DL
        32 001626   001462 601000 32                 TNZ     s:15023

      412    15094
      413    15095    2     IGNORE_COPY_REPLACE = FALSE;

  15095 32 001627   000000 450000 24                 STZ     IGNORE_COPY_REPLACE

      414    15096
      415    15097    2   END SCAN_COMMENT_ENTRY ;

  15097 32 001630   000165 221200 0                  LDX1  ! PARSING_PICTURE+3
        32 001631   000001 702211                    TSX2  ! 1,X1

      416    15098        %EJECT;
PL6.E3A0      #001=Z8EL$LEX File=Z8EL.:Z8A6TSI                                   SAT 08/09/97 12:03 Page:132
      417    15099        %MACRO CHECK_REDECL_OF_RESERVED_WORD;
      418    15100          DO;
      419    15101
      420    15102               IF O1COM.RECORD_DCL THEN
      421    15103                 DO;
      422    15104
      423    15105        /*V*
      424    15106            RESERVED_WRD_DCL_CHECK -- If the item is a reserved word and we are in
      425    15107                                      the process of a declaration the reserved word
      426    15108                                      bit is turned off in the DNT.  The item is changed
      427    15109                                      to a user word so that a person can declare a
      428    15110                                      reserved word and use that data name in the
      429    15111                                      program.  He may not use it as a reserved
      430    15112                                      word though.
      431    15113
      432    15114                                      This was done due to the fact that there are
      433    15115                                      new reserved words in COBOL85 in addition to
      434    15116                                      to the many before.
      435    15117        */
      436    15118
      437    15119                   IF DNT$->DNT.B.RW AND O1COM.PARSE_ERROR_COUNT = 0 THEN
      438    15120                     DO CASE (DNT$ -> DNT.RW_NO);
      439    15121
      440    15122                       CASE(ELSE);
      441    15123
      442    15124                         CALL Z8AE$ERROR (%E$RW_USED_AS_DATA_NAME,
      443    15125                                          LEX_SYMBOL.LINE,
      444    15126                                          LEX_SYMBOL.COLUMN,
      445    15127                                          DNT$);
      446    15128                         /* Create new DNT for non-reserved word since reserved
      447    15129                               word is in constant storage */
      448    15130                         TDNT$ = DNT$;
      449    15131                         %NEW_DNT(@SIZE = LEX_SYMBOL.SIZE,
      450    15132                                     @NAME = LEX_SYMBOL.SYMBOL,
      451    15133                                     @ST$ = TDNT$ -> DNT.ST$,
      452    15134                                     @NEXT = "DNT_BUCKETS(DNT_BUCKET_NUMBER)");
      453    15135                         DNT$ -> DNT.ATTR = TDNT$ -> DNT.ATTR;
PL6.E3A0      #001=Z8EL$LEX File=Z8EL.:Z8A6TSI                                   SAT 08/09/97 12:03 Page:133
      454    15136                         DNT$ -> DNT.B.USER_WORD = TRUE;
      455    15137                         DNT$ -> DNT.B.RW = FALSE;
      456    15138                         DNT_BUCKETS(DNT_BUCKET_NUMBER) = DNT$;
      457    15139
      458    15140                       CASE (%RSV_WRD_FILLER,  %RSV_WRD_PICTURE, %RSV_WRD_USAGE,
      459    15141                             %RSV_WRD_SIGN,    %RSV_WRD_LEADING, %RSV_WRD_TRAILING,
      460    15142                             %RSV_WRD_DISPLAY, %RSV_WRD_JUSTIFIED, %RSV_WRD_BLANK,
      461    15143                             %RSV_WRD_SOURCE,     %RSV_WRD_LINE,    %RSV_WRD_COLUMN,
      462    15144                             %RSV_WRD_VALUE,   %RSV_WRD_VALUES,  %RSV_WRD_SUM,
      463    15145                             %RSV_WRD_GROUP,   %RSV_WRD_NEXT,    %RSV_WRD_TYPE,
      464    15146                             %RSV_WRD_REDEFINES, %RSV_WRD_IS,    %RSV_WRD_EXTERNAL,
      465    15147                             %RSV_WRD_GLOBAL,  %RSV_WRD_COMP,    %RSV_WRD_INDEX,
      466    15148                             %RSV_WRD_OCCURS,  %RSV_WRD_ASCENDING,  %RSV_WRD_DESCENDING,
      467    15149                             %RSV_WRD_INDEXED,  %RSV_WRD_SYNCHRONIZED, %RSV_WRD_RENAMES,
      468    15150                             %RSV_WRD_COMP_1,  %RSV_WRD_COMP_2,  %RSV_WRD_COMP_3,
      469    15151                             %RSV_WRD_COMP_4,  %RSV_WRD_COMP_5,  %RSV_WRD_COMP_6,
      470    15152                             %RSV_WRD_COMP_7,  %RSV_WRD_COMP_8,  %RSV_WRD_COMP_11,
      471    15153                             %RSV_WRD_COMP_12, %RSV_WRD_COMP_13, %RSV_WRD_COMP_14,
      472    15154                             %RSV_WRD_DB_KEY, %RSV_WRD_POINTER);
      473    15155                        ;  /* do nothing */
      474    15156                     END;
      475    15157
      476    15158                   O1COM.RECORD_DCL = '0'B;
      477    15159                 END;
      478    15160
      479    15161          END;
      480    15162        %MEND;
      481    15163        %EJECT;
PL6.E3A0      #001=Z8EL$LEX File=Z8EL.:Z8A6TSI                                   SAT 08/09/97 12:03 Page:134
      482    15164        %MACRO PROCESS_RESERVED_WORD;
      483    15165                 DO ;
      484    15166
      485    15167        /*V*
      486    15168            RESERVED_WORD -- If we have encountered a reserved word then the symbol
      487    15169                             field in the stack is assigned the reserved word number.
      488    15170                             If we see the start of a picture string (PIC or PICTURE)
      489    15171                             then we set the state symbolizing the start of a picture
      490    15172                             string.
      491    15173
      492    15174        */
      493    15175
      494    15176                   IF O1COM.LA_STK.COLUMN(O1COM.LA_PUT) < O1COM.AREA_B_COLUMN_START
      495    15177                      /*N* Free_Format --  AND NOT COMCOM.OB.FORMAT */
      496    15178                       AND O1COM.PD_FLAG
      497    15179                       AND NOT DNT$ -> DNT.B.MUST_AREA_A
      498    15180                       AND NOT DNT$ -> DNT.B.ACCEPT_AREA_A THEN
      499    15181                     CALL Z8AE$ERROR(%E$AREA_A_ERROR,
      500    15182                                     O1COM.LA_STK.LINE(O1COM.LA_PUT),
      501    15183                                     O1COM.LA_STK.COLUMN(O1COM.LA_PUT),
      502    15184                                     DNT$);
      503    15185
      504    15186                   IF DNT$ -> DNT.B.MUST_AREA_A
      505    15187                   /*N* Free_Format -- AND NOT COMCOM.OB.FORMAT */
      506    15188                   AND O1COM.LA_STK.COLUMN(O1COM.LA_PUT) >= O1COM.AREA_B_COLUMN_START THEN
      507    15189                     CALL Z8AE$ERROR (%E$MUST_BE_IN_AREA_A,
      508    15190                                      O1COM.LA_STK.LINE (O1COM.LA_PUT),
      509    15191                                      O1COM.LA_STK.COLUMN (O1COM.LA_PUT),
      510    15192                                      DNT$);
      511    15193
      512    15194                   O1COM.LA_STK.SYMBOL(O1COM.LA_PUT) = DNT$->DNT.RW_NO;
      513    15195
      514    15196                   DO CASE(O1COM.LA_STK.SYMBOL(O1COM.LA_PUT)) ;
      515    15197
      516    15198                     CASE( %RSV_WRD_DATE_COMPILED,
      517    15199                         %RSV_WRD_DATE_WRITTEN,
      518    15200                         %RSV_WRD_SECURITY);
PL6.E3A0      #001=Z8EL$LEX File=Z8EL.:Z8A6TSI                                   SAT 08/09/97 12:03 Page:135
      519    15201
      520    15202                       LEX_STATE = %LS_PERIOD_BEFORE_COMMENT_ENTRY;
      521    15203
      522    15204                     CASE(%RSV_WRD_AUTHOR);
      523    15205
      524    15206                            LEX_STATE = %LS_PERIOD_BEFORE_COMMENT_ENTRY;
      525    15207                            O1COM.AUTHOR_COMMENT = %TRUE;
      526    15208
      527    15209                     CASE(%RSV_WRD_INSTALLATION);
      528    15210
      529    15211                            LEX_STATE = %LS_PERIOD_BEFORE_COMMENT_ENTRY;
      530    15212                            O1COM.INSTAL_ON = %TRUE;
      531    15213
      532    15214                     CASE(%RSV_WRD_PICTURE) ;
      533    15215
      534    15216                       LEX_STATE = %LS_PICTURE_OR_IS;
      535    15217
      536    15218                     CASE(%RSV_WRD_ACCEPT,    %RSV_WRD_ADD,      %RSV_WRD_ALTER,
      537    15219                          %RSV_WRD_CALL,      %RSV_WRD_CANCEL,   %RSV_WRD_CLOSE,
      538    15220                          %RSV_WRD_COMPUTE,   %RSV_WRD_CONTINUE, %RSV_WRD_DELETE,
      539    15221                          %RSV_WRD_DISABLE,   %RSV_WRD_DIVIDE,   %RSV_WRD_ENABLE,
      540    15222                          %RSV_WRD_EVALUATE,  %RSV_WRD_EXAMINE,  %RSV_WRD_EXIT,
      541    15223                          %RSV_WRD_GO,        %RSV_WRD_GENERATE, %RSV_WRD_IF,
      542    15224                          %RSV_WRD_INITIATE,  %RSV_WRD_INITIALIZE,%RSV_WRD_INSPECT,
      543    15225                          %RSV_WRD_MERGE,     %RSV_WRD_MOVE,     %RSV_WRD_MULTIPLY,
      544    15226                          %RSV_WRD_OPEN,      %RSV_WRD_PERFORM,  %RSV_WRD_PURGE,
      545    15227                          %RSV_WRD_READ,      %RSV_WRD_RECEIVE,  %RSV_WRD_RELEASE,
      546    15228                          %RSV_WRD_RETURN,    %RSV_WRD_REWRITE,  %RSV_WRD_SEND,
      547    15229                          %RSV_WRD_SEARCH,    %RSV_WRD_START,    %RSV_WRD_SET,
      548    15230                          %RSV_WRD_STRING,    %RSV_WRD_STOP,     %RSV_WRD_SUBTRACT,
      549    15231                          %RSV_WRD_SUPPRESS,  %RSV_WRD_TERMINATE,%RSV_WRD_UNSTRING,
      550    15232                          %RSV_WRD_WRITE,
      551    15233                          %RSV_WRD_CONNECT,   %RSV_WRD_DISCONNECT,%RSV_WRD_ERASE,
      552    15234                          %RSV_WRD_FIND,      %RSV_WRD_FINISH,   %RSV_WRD_GET,
      553    15235                          %RSV_WRD_MODIFY,    %RSV_WRD_PRECALCULATE,
      554    15236                          %RSV_WRD_READY,    %RSV_WRD_STORE);
      555    15237
PL6.E3A0      #001=Z8EL$LEX File=Z8EL.:Z8A6TSI                                   SAT 08/09/97 12:03 Page:136
      556    15238                       %SAVE_IMPERATIVE_STMT_RSV_WRD ;
      557    15239
      558    15240                     CASE(%RSV_WRD_QUOTES,    %RSV_WRD_LOW_VALUES,
      559    15241                          %RSV_WRD_SPACES,    %RSV_WRD_ZEROES,     %RSV_WRD_HIGH_VALUES);
      560    15242
      561    15243                       O1COM.LA_STK.TYPE(O1COM.LA_PUT) = %TYT;
      562    15244
      563    15245
      564    15246
      565    15247                   END ;
      566    15248
      567    15249                   IF NOT LEX_SYMBOL.B.CONTINUED_TOKEN THEN
      568    15250                     SAVED_CONT_FLAG = FALSE;
      569    15251
      570    15252                 END ;
      571    15253        %MEND;
      572    15254        %EJECT;
PL6.E3A0      #001=Z8EL$LEX File=Z8EL.:Z8A6TSI                                   SAT 08/09/97 12:03 Page:137
      573    15255        %MACRO PROCESS_USER_WORD;
      574    15256                 DO;
      575    15257                   /* for user word */
      576    15258
      577    15259                   DNT$ -> DNT.B.USER_WORD = TRUE;
      578    15260
      579    15261                   /* Check to make sure userword does not end in dash */
      580    15262                   IF SUBSTR(LEX_SYMBOL.SYMBOL,
      581    15263                             LEX_SYMBOL.SIZE - 1,
      582    15264                             1) = '-' THEN
      583    15265                     DO;
      584    15266                       CALL Z8AE$ERROR (%E$USERWORD_END_DASH_ERROR,
      585    15267                                        LEX_SYMBOL.LINE,
      586    15268                                        LEX_SYMBOL.COLUMN);
      587    15269                     END;
      588    15270
      589    15271                   /* Check to make sure userword <= 30 characters */
      590    15272                   IF LEX_SYMBOL.SIZE > %USER_WORD_MAX_SIZE
      591    15273                           AND NOT O1COM.PD_FLAG THEN
      592    15274                     DO;
      593    15275                       CALL Z8AE$ERROR (%E$USERWORD_TOO_LONG,
      594    15276                                        LEX_SYMBOL.LINE,
      595    15277                                        LEX_SYMBOL.COLUMN);
      596    15278                       LEX_SYMBOL.SIZE = 30;
      597    15279                       DNT$ -> DNT.TEXT.LENGTH = 30;
      598    15280                     END;
      599    15281
      600    15282                   /* Check for at least one letter in userword */
      601    15283
      602    15284              /* Check was disabled because paragraph names do not have to
      603    15285                    contain letters in the name.  Therefore, the check must
      604    15286                    either be:
      605    15287
      606    15288                       1) done after the parse to differentiate between
      607    15289                            paragraph names and data names.
      608    15290
      609    15291                       2) Change user word that contain no letters to be
PL6.E3A0      #001=Z8EL$LEX File=Z8EL.:Z8A6TSI                                   SAT 08/09/97 12:03 Page:138
      610    15292                            paragraph names
      611    15293
      612    15294                       3) Disabled completely.
      613    15295                   CALL SEARCH (CHAR_COLUMN,
      614    15296                                CHAR_CLASS,
      615    15297                                LETTER_SEARCH_TABLE,
      616    15298                                SUBSTR(LEX_SYMBOL.SYMBOL, 0, LEX_SYMBOL.SIZE));
      617    15299                   IF CHAR_CLASS = %END_OF_LINE THEN
      618    15300                     DO;
      619    15301                       CALL Z8AE$ERROR (%E$NO_LETTER_USERWORD,
      620    15302                                        LEX_SYMBOL.LINE,
      621    15303                                        LEX_SYMBOL.COLUMN);
      622    15304                     END;
      623    15305
      624    15306              */
      625    15307                   /* Check for no $ or _ if ANSI option */
      626    15308                   IF COMCOM.OB.FIPS.LEVEL > 0 THEN
      627    15309                     DO;
      628    15310                       CALL SEARCH (CHAR_COLUMN,
      629    15311                                    CHAR_CLASS,
      630    15312                                    ANSI_USERWORD_SCAN_TABLE,
      631    15313                                    SUBSTR(LEX_SYMBOL.SYMBOL,
      632    15314                                           0,
      633    15315                                           LEX_SYMBOL.SIZE));
      634    15316                       IF CHAR_CLASS ~= %END_OF_LINE THEN
      635    15317                         CALL Z8AE$ERROR (%E$USERWORD_ANSI_ERROR,
      636    15318                                          LEX_SYMBOL.LINE,
      637    15319                                          LEX_SYMBOL.COLUMN);
      638    15320                     END;
      639    15321                   IF O1COM.LA_STK.COLUMN(O1COM.LA_PUT) < O1COM.AREA_B_COLUMN_START THEN
      640    15322                     DO;
      641    15323                       /*N* Free_Format -- IF NOT COMCOM.OB.FORMAT THEN */
      642    15324                         IF O1COM.PD_FLAG THEN
      643    15325                           O1COM.LA_STK.SYMBOL(O1COM.LA_PUT) = %PARA_DEF;
      644    15326                         ELSE
      645    15327                           O1COM.LA_STK.SYMBOL(O1COM.LA_PUT) = %NAME;
      646    15328                     END;
PL6.E3A0      #001=Z8EL$LEX File=Z8EL.:Z8A6TSI                                   SAT 08/09/97 12:03 Page:139
      647    15329                   ELSE
      648    15330                     IF (O1COM.LA_STK.ST$(O1COM.LA_PUT) ~= ADDR(NIL))
      649    15331                     AND ((O1COM.LA_STK.ST$(O1COM.LA_PUT) -> ST.ID = %PARA
      650    15332                              OR
      651    15333                          O1COM.LA_STK.ST$(O1COM.LA_PUT) -> ST.ID = %SECTION)
      652    15334           AND O1COM.LA_STK.ST$(O1COM.LA_PUT) -> VARIABLE.PROC$ = O1COM.CURRENT_PROC$) THEN
      653    15335                       O1COM.LA_STK.SYMBOL(O1COM.LA_PUT) = %PARA_REF;
      654    15336                     ELSE
      655    15337                       /*N* Free_Format -- IF NOT COMCOM.OB.FORMAT THEN */
      656    15338                         O1COM.LA_STK.SYMBOL(O1COM.LA_PUT) = %NAME;
      657    15339
      658    15340                     /*N* Free_Format --
      659    15341                       ELSE
      660    15342                         O1COM.LA_STK.SYMBOL(O1COM.LA_PUT) = %NAME_OR_PARA;
      661    15343                     */
      662    15344
      663    15345
      664    15346                   IF O1COM.LA_STK.ST$ (O1COM.LA_PUT) ~= ADDR(NIL) THEN
      665    15347                     IF O1COM.LA_STK.ST$ (O1COM.LA_PUT) -> ST.ID = %SYM_CHAR THEN
      666    15348        CHECK_SYM_CHAR: DO;
      667    15349                          PROC$$ = O1COM.CURRENT_PROC$;
      668    15350                          DO WHILE (O1COM.LA_STK.ST$ (O1COM.LA_PUT) -> VARIABLE.PROC$ ~=
      669    15351                              PROC$$);
      670    15352                            PROC$$ = PROC$$ -> PROC_.FATHER;
      671    15353                            IF PROC$$ = ADDR(NIL) THEN
      672    15354                              EXIT CHECK_SYM_CHAR;
      673    15355                          END; /* WHILE */
      674    15356                          O1COM.LA_STK.B.ALL  (O1COM.LA_PUT) = TRUE;
      675    15357                          O1COM.LA_STK.SYMBOL (O1COM.LA_PUT) = %ALPHA_LITERAL;
      676    15358                        END; /* CHECK_SYM_CHAR */
      677    15359
      678    15360                   SAVED_CONT_FLAG = FALSE;
      679    15361
      680    15362                  END;
      681    15363        %MEND;
      682    15364        %EJECT;
PL6.E3A0      #001=Z8EL$LEX File=Z8EL.:Z8A6TSI                                   SAT 08/09/97 12:03 Page:140
      683    15365    1   PROCESS_SYMBOL : PROC;

  15365 32 001632   000167 741200 0     PROCESS_SYM* STX1  ! CONTINUATION_ISN+1

      684    15366
      685    15367    2   IF LEX_SYMBOL.B.CONTINUED_TOKEN THEN

  15367 32 001633   000002 236000 2                  LDQ     LEX_SYMBOL+2
        32 001634   040000 316003                    CANQ    16384,DU
        32 001635   001640 600000 32                 TZE     s:15369

      686    15368    2     SAVED_CONT_FLAG = TRUE;

  15368 32 001636   400000 236003                    LDQ     -131072,DU
        32 001637   000022 756000 0                  STQ     SAVED_CONT_FLAG

      687    15369    2   O1COM.LA_STK.B.HIGH_LEV(O1COM.LA_PUT) = SAVED_CONT_FLAG;

  15369 32 001640   000132 235000 xsym               LDA     O1COM+90
        32 001641   000003 735000                    ALS     3
        32 001642   000022 236000 0                  LDQ     SAVED_CONT_FLAG
        32 001643   000030 772000                    QRL     24
        32 001644   000237 676005 xsym               ERQ     O1COM+159,AL
        32 001645   004000 376007                    ANQ     2048,DL
        32 001646   000237 656005 xsym               ERSQ    O1COM+159,AL

      688    15370
      689    15371    3   DO CASE(LEX_SYMBOL.TYPE);

  15371 32 001647   000001 235000 2                  LDA     LEX_SYMBOL+1
        32 001650   000041 115007                    CMPA    33,DL
        32 001651   001653 602005 32                 TNC     s:15371+4,AL
        32 001652   004463 710000 32                 TRA     s:15810
        32 001653   004463 710000 32                 TRA     s:15810
        32 001654   004473 710000 32                 TRA     s:15818
        32 001655   004463 710000 32                 TRA     s:15810
        32 001656   001742 710000 32                 TRA     s:15401
PL6.E3A0      #001=Z8EL$LEX File=Z8EL.:Z8A6TSI                                   SAT 08/09/97 12:03 Page:141
        32 001657   001742 710000 32                 TRA     s:15401
        32 001660   002166 710000 32                 TRA     s:15510
        32 001661   004473 710000 32                 TRA     s:15818
        32 001662   004473 710000 32                 TRA     s:15818
        32 001663   004473 710000 32                 TRA     s:15818
        32 001664   004473 710000 32                 TRA     s:15818
        32 001665   004473 710000 32                 TRA     s:15818
        32 001666   004473 710000 32                 TRA     s:15818
        32 001667   001732 710000 32                 TRA     s:15392
        32 001670   004473 710000 32                 TRA     s:15818
        32 001671   004473 710000 32                 TRA     s:15818
        32 001672   004473 710000 32                 TRA     s:15818
        32 001673   004473 710000 32                 TRA     s:15818
        32 001674   004473 710000 32                 TRA     s:15818
        32 001675   004473 710000 32                 TRA     s:15818
        32 001676   004473 710000 32                 TRA     s:15818
        32 001677   004473 710000 32                 TRA     s:15818
        32 001700   002002 710000 32                 TRA     s:15420
        32 001701   002055 710000 32                 TRA     s:15454
        32 001702   004463 710000 32                 TRA     s:15810
        32 001703   004463 710000 32                 TRA     s:15810
        32 001704   004463 710000 32                 TRA     s:15810
        32 001705   004463 710000 32                 TRA     s:15810
        32 001706   001714 710000 32                 TRA     s:15385
        32 001707   004463 710000 32                 TRA     s:15810
        32 001710   004463 710000 32                 TRA     s:15810
        32 001711   004463 710000 32                 TRA     s:15810
        32 001712   004463 710000 32                 TRA     s:15810
        32 001713   001714 710000 32                 TRA     s:15385

      690    15372
      691    15373    3     CASE(%LEFT_PAREN,  %RIGHT_PAREN,   %STAR,

      692    15374    3          %STAR_STAR,   %PLUS,          %MINUS,
      693    15375    3                        %SLASH,         %COLON,
      694    15376    3          %LESS_THAN,   %GREATER_THAN,  %EQUAL,
      695    15377    3          %LESS_THAN_OR_EQUAL, %GREATER_THAN_OR_EQUAL,
PL6.E3A0      #001=Z8EL$LEX File=Z8EL.:Z8A6TSI                                   SAT 08/09/97 12:03 Page:142
      696    15378    3          %UP_ARROW,    %END_OF_FILE);
      697    15379
      698    15380            /* These symbols require no special handling */
      699    15381    3       ;
      700    15382
      701    15383    3     CASE(%ILLEGAL_SYMBOL, %PSEUDO);

      702    15384
      703    15385    3       O1COM.LA_STK.SYMBOL(O1COM.LA_PUT) = %ILLEGAL_SYMBOL;

  15385 32 001714   000132 236000 xsym               LDQ     O1COM+90
        32 001715   000003 736000                    QLS     3
        32 001716   000033 235007                    LDA     27,DL
        32 001717   000242 755006 xsym               STA     O1COM+162,QL

      704    15386    3       IF SEARCH_REQUIRED THEN

  15386 32 001720   000000 234000 29                 SZN     SEARCH_REQUIRED
        32 001721   001725 605000 32                 TPL     s:15388

      705    15387    3         CALL Z8AH$SEARCH_;

  15387 32 001722   000003 631400 33                 EPPR1   3
        32 001723   000000 701000 xent               TSX1    Z8AH$SEARCH_
        32 001724   000000 011000                    NOP     0

      706    15388    3       O1COM.LA_STK.DNT$(O1COM.LA_PUT) = DNT$;

  15388 32 001725   000132 235000 xsym               LDA     O1COM+90
        32 001726   000003 735000                    ALS     3
        32 001727   000000 236000 17                 LDQ     DNT$
        32 001730   000241 756005 xsym               STQ     O1COM+161,AL
        32 001731   004473 710000 32                 TRA     s:15818

      707    15389
      708    15390    3     CASE(%PERIOD);

PL6.E3A0      #001=Z8EL$LEX File=Z8EL.:Z8A6TSI                                   SAT 08/09/97 12:03 Page:143
      709    15391
      710    15392    3       IF LEX_STATE = %LS_PERIOD_BEFORE_COMMENT_ENTRY THEN

  15392 32 001732   000000 236000 30                 LDQ     LEX_STATE
        32 001733   000001 116007                    CMPQ    1,DL
        32 001734   001740 601000 32                 TNZ     s:15397

      711    15393    4         DO;

      712    15394    4           LEX_STATE = %LS_COMMENT_ENTRY;

  15394 32 001735   000002 235007                    LDA     2,DL
        32 001736   000000 755000 30                 STA     LEX_STATE

      713    15395    4         END;

  15395 32 001737   004473 710000 32                 TRA     s:15818

      714    15396    3       ELSE
      715    15397    3         SAVED_CONT_FLAG = FALSE;

  15397 32 001740   000022 450000 0                  STZ     SAVED_CONT_FLAG
        32 001741   004473 710000 32                 TRA     s:15818

      716    15398
      717    15399    3     CASE(%ALPHA_LITERAL, %SINGLE_QUOTE);

      718    15400
      719    15401    3       IF SEARCH_REQUIRED THEN

  15401 32 001742   000000 234000 29                 SZN     SEARCH_REQUIRED
        32 001743   001747 605000 32                 TPL     s:15404

      720    15402    3         CALL Z8AH$SEARCH_;

  15402 32 001744   000003 631400 33                 EPPR1   3
        32 001745   000000 701000 xent               TSX1    Z8AH$SEARCH_
PL6.E3A0      #001=Z8EL$LEX File=Z8EL.:Z8A6TSI                                   SAT 08/09/97 12:03 Page:144
        32 001746   000000 011000                    NOP     0

      721    15403            /* Check for null string */
      722    15404    3       IF LEX_SYMBOL.SIZE <= 2 THEN

  15404 32 001747   000010 235000 2                  LDA     LEX_SYMBOL+8
        32 001750   000002 115007                    CMPA    2,DL
        32 001751   001766 605400 32                 TPNZ    s:15414

      723    15405    4         DO;

      724    15406    4           CALL Z8AE$ERROR(%E$NULL_QUOTE_STRING,

  15406 32 001752   000027 630400 33                 EPPR0   23
        32 001753   000011 631400 33                 EPPR1   9
        32 001754   000000 701000 xent               TSX1    Z8AE$ERROR
        32 001755   000000 011000                    NOP     0

      725    15407    4                           LEX_SYMBOL.LINE,
      726    15408    4                           LEX_SYMBOL.COLUMN);
      727    15409                /* "NULL QUOTE STRING ILLEGAL; A SPACE HAS BEEN INSERTED." */
      728    15410    4           LEX_SYMBOL.SIZE = 3;

  15410 32 001756   000003 235007                    LDA     3,DL
        32 001757   000010 755000 2                  STA     LEX_SYMBOL+8

      729    15411    4           LEX_SYMBOL.SYMBOL = '" "';

  15411 32 001760   040000 100400                    MLR     fill='040'O
        32 001761   000024 000003 31                 ADSC9   20                       cn=0,n=3
        32 001762   000011 000504 2                  ADSC9   LEX_SYMBOL+9             cn=0,n=324

      730    15412    4           CALL Z8AH$SEARCH_;

  15412 32 001763   000003 631400 33                 EPPR1   3
        32 001764   000000 701000 xent               TSX1    Z8AH$SEARCH_
        32 001765   000000 011000                    NOP     0
PL6.E3A0      #001=Z8EL$LEX File=Z8EL.:Z8A6TSI                                   SAT 08/09/97 12:03 Page:145

      731    15413    4         END;

      732    15414    3       O1COM.LA_STK.DNT$(O1COM.LA_PUT) = DNT$;

  15414 32 001766   000132 235000 xsym               LDA     O1COM+90
        32 001767   000003 735000                    ALS     3
        32 001770   000000 236000 17                 LDQ     DNT$
        32 001771   000241 756005 xsym               STQ     O1COM+161,AL

      733    15415    3       O1COM.LA_STK.TYPE(O1COM.LA_PUT) = %TYT;

  15415 32 001772   000132 235000 xsym               LDA     O1COM+90
        32 001773   000003 735000                    ALS     3
        32 001774   000015 236007                    LDQ     13,DL
        32 001775   000243 756005 xsym               STQ     O1COM+163,AL

      734    15416    3       DNT$ -> DNT.B.ALPHA_LITERAL = TRUE;

  15416 32 001776   000000 470400 17                 LDP0    DNT$
        32 001777   004000 236003                    LDQ     2048,DU
        32 002000   000003 256100                    ORSQ    3,,PR0
        32 002001   004473 710000 32                 TRA     s:15818

      735    15417
      736    15418    3     CASE(%NUMBER);

      737    15419
      738    15420    3       IF SEARCH_REQUIRED THEN

  15420 32 002002   000000 234000 29                 SZN     SEARCH_REQUIRED
        32 002003   002007 605000 32                 TPL     s:15429

      739    15421    3         CALL Z8AH$SEARCH_;

  15421 32 002004   000003 631400 33                 EPPR1   3
        32 002005   000000 701000 xent               TSX1    Z8AH$SEARCH_
PL6.E3A0      #001=Z8EL$LEX File=Z8EL.:Z8A6TSI                                   SAT 08/09/97 12:03 Page:146
        32 002006   000000 011000                    NOP     0

      740    15422
      741    15423          /*N* Free_Format --
      742    15424            IF COMCOM.OB.FORMAT THEN
      743    15425              O1COM.LA_STK.SYMBOL(O1COM.LA_PUT) = %NUMBER_OR_PARAGRAPH;
      744    15426            ELSE
      745    15427          */
      746    15428
      747    15429    3         IF LEX_SYMBOL.COLUMN < O1COM.AREA_B_COLUMN_START THEN

  15429 32 002007   000005 236000 2                  LDQ     LEX_SYMBOL+5
        32 002010   000121 116000 xsym               CMPQ    O1COM+81
        32 002011   002016 605000 32                 TPL     s:15431

      748    15430    3           O1COM.LA_STK.SYMBOL(O1COM.LA_PUT) = %NUMBER_OR_PARAGRAPH;

  15430 32 002012   000132 235000 xsym               LDA     O1COM+90
        32 002013   000003 735000                    ALS     3
        32 002014   000002 236007                    LDQ     2,DL
        32 002015   000242 756005 xsym               STQ     O1COM+162,AL

      749    15431    3       O1COM.LA_STK.DNT$(O1COM.LA_PUT) = DNT$;

  15431 32 002016   000132 235000 xsym               LDA     O1COM+90
        32 002017   000003 735000                    ALS     3
        32 002020   000000 236000 17                 LDQ     DNT$
        32 002021   000241 756005 xsym               STQ     O1COM+161,AL

      750    15432    3       O1COM.LA_STK.TYPE(O1COM.LA_PUT) = %TYT;

  15432 32 002022   000132 235000 xsym               LDA     O1COM+90
        32 002023   000003 735000                    ALS     3
        32 002024   000015 236007                    LDQ     13,DL
        32 002025   000243 756005 xsym               STQ     O1COM+163,AL

      751    15433    3       SAVED_CONT_FLAG = FALSE;
PL6.E3A0      #001=Z8EL$LEX File=Z8EL.:Z8A6TSI                                   SAT 08/09/97 12:03 Page:147

  15433 32 002026   000022 450000 0                  STZ     SAVED_CONT_FLAG

      752    15434    3       DNT$ -> DNT.B.NUMERIC_LITERAL = TRUE;

  15434 32 002027   000000 470400 17                 LDP0    DNT$
        32 002030   020000 236003                    LDQ     8192,DU
        32 002031   000003 256100                    ORSQ    3,,PR0

      753    15435
      754    15436    3       IF LEX_SYMBOL.SIZE > %NUM_LIT_MAX_SIZE THEN

  15436 32 002032   000010 235000 2                  LDA     LEX_SYMBOL+8
        32 002033   000077 115007                    CMPA    63,DL
        32 002034   002044 604400 32                 TMOZ    s:15444

      755    15437    4         DO;

      756    15438    4           CALL Z8AE$ERROR(%E$NUMERIC_ITEM_TOO_LONG,

  15438 32 002035   000033 630400 33                 EPPR0   27
        32 002036   000011 631400 33                 EPPR1   9
        32 002037   000000 701000 xent               TSX1    Z8AE$ERROR
        32 002040   000000 011000                    NOP     0

      757    15439    4                           LEX_SYMBOL.LINE,
      758    15440    4                           LEX_SYMBOL.COLUMN);
      759    15441    4           CALL CREATE_DUMMY_NUM_LIT;

  15441 32 002041   000002 701000 32                 TSX1    CREATE_DUMMY_NUM_LIT
        32 002042   000000 011000                    NOP     0

      760    15442    4         END;

  15442 32 002043   004473 710000 32                 TRA     s:15818

      761    15443    3       ELSE
PL6.E3A0      #001=Z8EL$LEX File=Z8EL.:Z8A6TSI                                   SAT 08/09/97 12:03 Page:148
      762    15444    3         IF COMCOM.OB.FIPS.LEVEL > 0

  15444 32 002044   000036 720000 xsym               LXL0    COMCOM+30
        32 002045   004473 604400 32                 TMOZ    s:15818
        32 002046   000022 115007                    CMPA    18,DL
        32 002047   004473 604400 32                 TMOZ    s:15818

      763    15445    3               AND LEX_SYMBOL.SIZE > %ANSI_NUM_LIT_MAX_SIZE THEN
      764    15446    4           DO;

      765    15447    4             CALL Z8AE$ERROR (%E$ANSI_LARGE_NUMERIC_ITEM,

  15447 32 002050   000037 630400 33                 EPPR0   31
        32 002051   000011 631400 33                 EPPR1   9
        32 002052   000000 701000 xent               TSX1    Z8AE$ERROR
        32 002053   000000 011000                    NOP     0

      766    15448    4                              LEX_SYMBOL.LINE,
      767    15449    4                              LEX_SYMBOL.COLUMN);
      768    15450    4           END;

  15450 32 002054   004473 710000 32                 TRA     s:15818

      769    15451
      770    15452    3     CASE(%NUMERIC_LITERAL);

      771    15453
      772    15454    3       IF SEARCH_REQUIRED THEN

  15454 32 002055   000000 234000 29                 SZN     SEARCH_REQUIRED
        32 002056   002062 605000 32                 TPL     s:15456

      773    15455    3         CALL Z8AH$SEARCH_;

  15455 32 002057   000003 631400 33                 EPPR1   3
        32 002060   000000 701000 xent               TSX1    Z8AH$SEARCH_
        32 002061   000000 011000                    NOP     0
PL6.E3A0      #001=Z8EL$LEX File=Z8EL.:Z8A6TSI                                   SAT 08/09/97 12:03 Page:149

      774    15456    3       O1COM.LA_STK.DNT$(O1COM.LA_PUT) = DNT$;

  15456 32 002062   000132 235000 xsym               LDA     O1COM+90
        32 002063   000003 735000                    ALS     3
        32 002064   000000 236000 17                 LDQ     DNT$
        32 002065   000241 756005 xsym               STQ     O1COM+161,AL

      775    15457    3       O1COM.LA_STK.TYPE(O1COM.LA_PUT) = %TYT;

  15457 32 002066   000132 235000 xsym               LDA     O1COM+90
        32 002067   000003 735000                    ALS     3
        32 002070   000015 236007                    LDQ     13,DL
        32 002071   000243 756005 xsym               STQ     O1COM+163,AL

      776    15458    3       SAVED_CONT_FLAG = FALSE;

  15458 32 002072   000022 450000 0                  STZ     SAVED_CONT_FLAG

      777    15459    3       DNT$ -> DNT.B.NUMERIC_LITERAL = TRUE;

  15459 32 002073   000000 470400 17                 LDP0    DNT$
        32 002074   020000 236003                    LDQ     8192,DU
        32 002075   000003 256100                    ORSQ    3,,PR0

      778    15460
      779    15461    3       CALL Z8AU$CREATE_NUM_DESC (LEX_SYMBOL.SYMBOL,

  15461 32 002076   000042 630400 33                 EPPR0   34
        32 002077   000011 631400 33                 EPPR1   9
        32 002100   000000 701000 xent               TSX1    Z8AU$CREATE_NUM_DESC
        32 002101   000000 011000                    NOP     0

      780    15462    3                                  LEX_SYMBOL.SIZE,
      781    15463    3                                  NUM_DESC);
      782    15464            %VALIDATE_NUM_DESC;
             15465    4     DO;
PL6.E3A0      #001=Z8EL$LEX File=Z8EL.:Z8A6TSI                                   SAT 08/09/97 12:03 Page:150

             15466    4       IF COMCOM.OB.FIPS.LEVEL > 0

  15466 32 002102   000036 720000 xsym               LXL0    COMCOM+30
        32 002103   002114 604400 32                 TMOZ    s:15475
        32 002104   000002 236000 0                  LDQ     NUM_DESC
        32 002105   000003 036000 0                  ADLQ    NUM_DESC+1
        32 002106   000022 116007                    CMPQ    18,DL
        32 002107   002114 604400 32                 TMOZ    s:15475

             15467    4             AND NUM_DESC.DIGITS_LEFT
             15468    4                   + NUM_DESC.DIGITS_RIGHT
             15469    4                     > %ANSI_NUM_LIT_MAX_SIZE THEN
             15470    5         DO;

             15471    5           CALL Z8AE$ERROR (%E$ANSI_LARGE_NUMERIC_ITEM,

  15471 32 002110   000037 630400 33                 EPPR0   31
        32 002111   000011 631400 33                 EPPR1   9
        32 002112   000000 701000 xent               TSX1    Z8AE$ERROR
        32 002113   000000 011000                    NOP     0

             15472    5                            LEX_SYMBOL.LINE,
             15473    5                            LEX_SYMBOL.COLUMN);
             15474    5         END;

             15475    4       IF COMCOM.OB.FIPS.LEVEL > 0

  15475 32 002114   000036 720000 xsym               LXL0    COMCOM+30
        32 002115   002124 604400 32                 TMOZ    s:15482
        32 002116   000004 235000 0                  LDA     NUM_DESC+2
        32 002117   002124 604400 32                 TMOZ    s:15482

             15476    4              AND NUM_DESC.DIGITS_EXPONENT > 0 THEN
             15477    5         DO;

             15478    5           CALL Z8AE$ERROR (%E$ANSI_FLOATING_POINT,
PL6.E3A0      #001=Z8EL$LEX File=Z8EL.:Z8A6TSI                                   SAT 08/09/97 12:03 Page:151

  15478 32 002120   000046 630400 33                 EPPR0   38
        32 002121   000011 631400 33                 EPPR1   9
        32 002122   000000 701000 xent               TSX1    Z8AE$ERROR
        32 002123   000000 011000                    NOP     0

             15479    5                            LEX_SYMBOL.LINE,
             15480    5                            LEX_SYMBOL.COLUMN);
             15481    5         END;

             15482    4       IF NUM_DESC.DIGITS_LEFT

  15482 32 002124   000002 236000 0                  LDQ     NUM_DESC
        32 002125   000003 036000 0                  ADLQ    NUM_DESC+1
        32 002126   000077 116007                    CMPQ    63,DL
        32 002127   002137 604400 32                 TMOZ    s:15492

             15483    4              + NUM_DESC.DIGITS_RIGHT
             15484    4                > %NUM_LIT_MAX_SIZE THEN
             15485    5         DO;

             15486    5           CALL Z8AE$ERROR (%E$NUMERIC_ITEM_TOO_LONG,

  15486 32 002130   000033 630400 33                 EPPR0   27
        32 002131   000011 631400 33                 EPPR1   9
        32 002132   000000 701000 xent               TSX1    Z8AE$ERROR
        32 002133   000000 011000                    NOP     0

             15487    5                            LEX_SYMBOL.LINE,
             15488    5                            LEX_SYMBOL.COLUMN);
             15489    5           CALL CREATE_DUMMY_NUM_LIT;

  15489 32 002134   000002 701000 32                 TSX1    CREATE_DUMMY_NUM_LIT
        32 002135   000000 011000                    NOP     0

             15490    5         END;

PL6.E3A0      #001=Z8EL$LEX File=Z8EL.:Z8A6TSI                                   SAT 08/09/97 12:03 Page:152
  15490 32 002136   002150 710000 32                 TRA     s:15499

             15491    4       ELSE
             15492    4         IF NUM_DESC.DIGITS_EXPONENT > %MAX_EXPONENT_DIGITS THEN

  15492 32 002137   000004 235000 0                  LDA     NUM_DESC+2
        32 002140   000003 115007                    CMPA    3,DL
        32 002141   002150 604400 32                 TMOZ    s:15499

             15493    5           DO;

             15494    5             CALL Z8AE$ERROR (%E$TOO_LARGE_NUM_EXP,

  15494 32 002142   000052 630400 33                 EPPR0   42
        32 002143   000011 631400 33                 EPPR1   9
        32 002144   000000 701000 xent               TSX1    Z8AE$ERROR
        32 002145   000000 011000                    NOP     0

             15495    5                              LEX_SYMBOL.LINE,
             15496    5                              LEX_SYMBOL.COLUMN);
             15497    5             CALL CREATE_DUMMY_NUM_LIT;

  15497 32 002146   000002 701000 32                 TSX1    CREATE_DUMMY_NUM_LIT
        32 002147   000000 011000                    NOP     0

             15498    5           END;

             15499    4       IF NUM_DESC.COMMA_PRESENT

  15499 32 002150   000007 234000 0                  SZN     NUM_DESC+5
        32 002151   004473 605000 32                 TPL     s:15818
        32 002152   000057 236000 xsym               LDQ     O1COM+47
        32 002153   000000 116000 33                 CMPQ    0
        32 002154   002161 600000 32                 TZE     s:15502
        32 002155   000057 470400 xsym               LDP0    O1COM+47
        32 002156   000003 236100                    LDQ     3,,PR0
        32 002157   010000 316003                    CANQ    4096,DU
PL6.E3A0      #001=Z8EL$LEX File=Z8EL.:Z8A6TSI                                   SAT 08/09/97 12:03 Page:153
        32 002160   004473 601000 32                 TNZ     s:15818

             15500    4       AND (O1COM.CURRENT_PROC$ = ADDR(NIL)
             15501    4            OR NOT O1COM.CURRENT_PROC$ -> PROC_.B.COMMA_IS_DECIMAL) THEN
             15502    4         CALL Z8AE$ERROR(%E$COMMA_IN_NUMBER,

  15502 32 002161   000056 630400 33                 EPPR0   46
        32 002162   000011 631400 33                 EPPR1   9
        32 002163   000000 701000 xent               TSX1    Z8AE$ERROR
        32 002164   000000 011000                    NOP     0

             15503    4                         LEX_SYMBOL.LINE,
             15504    4                         LEX_SYMBOL.COLUMN);
             15505    4     END;

  15505 32 002165   004473 710000 32                 TRA     s:15818

      783    15507
      784    15508    3     CASE(%USER_WORD);

      785    15509
      786    15510    3       IF SEARCH_REQUIRED THEN

  15510 32 002166   000000 234000 29                 SZN     SEARCH_REQUIRED
        32 002167   002173 605000 32                 TPL     s:15515

      787    15511    3         CALL Z8AH$SEARCH_;

  15511 32 002170   000003 631400 33                 EPPR1   3
        32 002171   000000 701000 xent               TSX1    Z8AH$SEARCH_
        32 002172   000000 011000                    NOP     0

      788    15512
      789    15513            %CHECK_REDECL_OF_RESERVED_WORD;
             15514    4     DO;

             15515    4          IF O1COM.RECORD_DCL THEN
PL6.E3A0      #001=Z8EL$LEX File=Z8EL.:Z8A6TSI                                   SAT 08/09/97 12:03 Page:154

  15515 32 002173   000012 234000 xsym               SZN     O1COM+10
        32 002174   003165 605000 32                 TPL     s:15626

             15516    5            DO;

             15517        /*V*
             15518            RESERVED_WRD_DCL_CHECK -- If the item is a reserved word and we are in
             15519                                      the process of a declaration the reserved word
             15520                                      bit is turned off in the DNT.  The item is changed
             15521                                      to a user word so that a person can declare a
             15522                                      reserved word and use that data name in the
             15523                                      program.  He may not use it as a reserved
             15524                                      word though.
             15525                                      This was done due to the fact that there are
             15526                                      new reserved words in COBOL85 in addition to
             15527                                      to the many before.
             15528        */
             15529    5              IF DNT$->DNT.B.RW AND O1COM.PARSE_ERROR_COUNT = 0 THEN

  15529 32 002175   000000 470400 17                 LDP0    DNT$
        32 002176   000003 234100                    SZN     3,,PR0
        32 002177   003164 605000 32                 TPL     s:15621
        32 002200   000144 235000 xsym               LDA     O1COM+100
        32 002201   003164 601000 32                 TNZ     s:15621

             15530    6                DO CASE (DNT$ -> DNT.RW_NO);

  15530 32 002202   000003 236100                    LDQ     3,,PR0
        32 002203   777777 376007                    ANQ     -1,DL
        32 002204   000067 136007                    SBLQ    55,DL
        32 002205   000660 116007                    CMPQ    432,DL
        32 002206   002210 602006 32                 TNC     s:15530+6,QL
        32 002207   003070 710000 32                 TRA     s:15532
        32 002210   003164 710000 32                 TRA     s:15621
        32 002211   003070 710000 32                 TRA     s:15532
        32 002212   003070 710000 32                 TRA     s:15532
PL6.E3A0      #001=Z8EL$LEX File=Z8EL.:Z8A6TSI                                   SAT 08/09/97 12:03 Page:155
        32 002213   003070 710000 32                 TRA     s:15532
        32 002214   003070 710000 32                 TRA     s:15532
        32 002215   003070 710000 32                 TRA     s:15532
        32 002216   003070 710000 32                 TRA     s:15532
        32 002217   003070 710000 32                 TRA     s:15532
        32 002220   003070 710000 32                 TRA     s:15532
        32 002221   003164 710000 32                 TRA     s:15621
        32 002222   003070 710000 32                 TRA     s:15532
        32 002223   003070 710000 32                 TRA     s:15532
        32 002224   003070 710000 32                 TRA     s:15532
        32 002225   003070 710000 32                 TRA     s:15532
        32 002226   003070 710000 32                 TRA     s:15532
        32 002227   003070 710000 32                 TRA     s:15532
        32 002230   003070 710000 32                 TRA     s:15532
        32 002231   003070 710000 32                 TRA     s:15532
        32 002232   003070 710000 32                 TRA     s:15532
        32 002233   003070 710000 32                 TRA     s:15532
        32 002234   003070 710000 32                 TRA     s:15532
        32 002235   003070 710000 32                 TRA     s:15532
        32 002236   003070 710000 32                 TRA     s:15532
        32 002237   003070 710000 32                 TRA     s:15532
        32 002240   003070 710000 32                 TRA     s:15532
        32 002241   003070 710000 32                 TRA     s:15532
        32 002242   003070 710000 32                 TRA     s:15532
        32 002243   003070 710000 32                 TRA     s:15532
        32 002244   003070 710000 32                 TRA     s:15532
        32 002245   003070 710000 32                 TRA     s:15532
        32 002246   003070 710000 32                 TRA     s:15532
        32 002247   003070 710000 32                 TRA     s:15532
        32 002250   003070 710000 32                 TRA     s:15532
        32 002251   003070 710000 32                 TRA     s:15532
        32 002252   003164 710000 32                 TRA     s:15621
        32 002253   003070 710000 32                 TRA     s:15532
        32 002254   003070 710000 32                 TRA     s:15532
        32 002255   003070 710000 32                 TRA     s:15532
        32 002256   003164 710000 32                 TRA     s:15621
        32 002257   003164 710000 32                 TRA     s:15621
PL6.E3A0      #001=Z8EL$LEX File=Z8EL.:Z8A6TSI                                   SAT 08/09/97 12:03 Page:156
        32 002260   003164 710000 32                 TRA     s:15621
        32 002261   003164 710000 32                 TRA     s:15621
        32 002262   003164 710000 32                 TRA     s:15621
        32 002263   003164 710000 32                 TRA     s:15621
        32 002264   003164 710000 32                 TRA     s:15621
        32 002265   003164 710000 32                 TRA     s:15621
        32 002266   003164 710000 32                 TRA     s:15621
        32 002267   003164 710000 32                 TRA     s:15621
        32 002270   003164 710000 32                 TRA     s:15621
        32 002271   003164 710000 32                 TRA     s:15621
        32 002272   003164 710000 32                 TRA     s:15621
        32 002273   003070 710000 32                 TRA     s:15532
        32 002274   003070 710000 32                 TRA     s:15532
        32 002275   003070 710000 32                 TRA     s:15532
        32 002276   003070 710000 32                 TRA     s:15532
        32 002277   003070 710000 32                 TRA     s:15532
        32 002300   003070 710000 32                 TRA     s:15532
        32 002301   003070 710000 32                 TRA     s:15532
        32 002302   003070 710000 32                 TRA     s:15532
        32 002303   003070 710000 32                 TRA     s:15532
        32 002304   003070 710000 32                 TRA     s:15532
        32 002305   003070 710000 32                 TRA     s:15532
        32 002306   003070 710000 32                 TRA     s:15532
        32 002307   003070 710000 32                 TRA     s:15532
        32 002310   003070 710000 32                 TRA     s:15532
        32 002311   003070 710000 32                 TRA     s:15532
        32 002312   003070 710000 32                 TRA     s:15532
        32 002313   003070 710000 32                 TRA     s:15532
        32 002314   003070 710000 32                 TRA     s:15532
        32 002315   003070 710000 32                 TRA     s:15532
        32 002316   003070 710000 32                 TRA     s:15532
        32 002317   003070 710000 32                 TRA     s:15532
        32 002320   003070 710000 32                 TRA     s:15532
        32 002321   003070 710000 32                 TRA     s:15532
        32 002322   003070 710000 32                 TRA     s:15532
        32 002323   003164 710000 32                 TRA     s:15621
        32 002324   003070 710000 32                 TRA     s:15532
PL6.E3A0      #001=Z8EL$LEX File=Z8EL.:Z8A6TSI                                   SAT 08/09/97 12:03 Page:157
        32 002325   003070 710000 32                 TRA     s:15532
        32 002326   003070 710000 32                 TRA     s:15532
        32 002327   003070 710000 32                 TRA     s:15532
        32 002330   003070 710000 32                 TRA     s:15532
        32 002331   003070 710000 32                 TRA     s:15532
        32 002332   003070 710000 32                 TRA     s:15532
        32 002333   003070 710000 32                 TRA     s:15532
        32 002334   003070 710000 32                 TRA     s:15532
        32 002335   003070 710000 32                 TRA     s:15532
        32 002336   003164 710000 32                 TRA     s:15621
        32 002337   003070 710000 32                 TRA     s:15532
        32 002340   003070 710000 32                 TRA     s:15532
        32 002341   003070 710000 32                 TRA     s:15532
        32 002342   003070 710000 32                 TRA     s:15532
        32 002343   003070 710000 32                 TRA     s:15532
        32 002344   003070 710000 32                 TRA     s:15532
        32 002345   003070 710000 32                 TRA     s:15532
        32 002346   003164 710000 32                 TRA     s:15621
        32 002347   003070 710000 32                 TRA     s:15532
        32 002350   003070 710000 32                 TRA     s:15532
        32 002351   003070 710000 32                 TRA     s:15532
        32 002352   003070 710000 32                 TRA     s:15532
        32 002353   003070 710000 32                 TRA     s:15532
        32 002354   003070 710000 32                 TRA     s:15532
        32 002355   003070 710000 32                 TRA     s:15532
        32 002356   003070 710000 32                 TRA     s:15532
        32 002357   003070 710000 32                 TRA     s:15532
        32 002360   003070 710000 32                 TRA     s:15532
        32 002361   003070 710000 32                 TRA     s:15532
        32 002362   003070 710000 32                 TRA     s:15532
        32 002363   003070 710000 32                 TRA     s:15532
        32 002364   003070 710000 32                 TRA     s:15532
        32 002365   003070 710000 32                 TRA     s:15532
        32 002366   003070 710000 32                 TRA     s:15532
        32 002367   003070 710000 32                 TRA     s:15532
        32 002370   003070 710000 32                 TRA     s:15532
        32 002371   003070 710000 32                 TRA     s:15532
PL6.E3A0      #001=Z8EL$LEX File=Z8EL.:Z8A6TSI                                   SAT 08/09/97 12:03 Page:158
        32 002372   003070 710000 32                 TRA     s:15532
        32 002373   003070 710000 32                 TRA     s:15532
        32 002374   003070 710000 32                 TRA     s:15532
        32 002375   003070 710000 32                 TRA     s:15532
        32 002376   003070 710000 32                 TRA     s:15532
        32 002377   003070 710000 32                 TRA     s:15532
        32 002400   003070 710000 32                 TRA     s:15532
        32 002401   003070 710000 32                 TRA     s:15532
        32 002402   003070 710000 32                 TRA     s:15532
        32 002403   003070 710000 32                 TRA     s:15532
        32 002404   003070 710000 32                 TRA     s:15532
        32 002405   003070 710000 32                 TRA     s:15532
        32 002406   003070 710000 32                 TRA     s:15532
        32 002407   003070 710000 32                 TRA     s:15532
        32 002410   003070 710000 32                 TRA     s:15532
        32 002411   003070 710000 32                 TRA     s:15532
        32 002412   003070 710000 32                 TRA     s:15532
        32 002413   003070 710000 32                 TRA     s:15532
        32 002414   003070 710000 32                 TRA     s:15532
        32 002415   003070 710000 32                 TRA     s:15532
        32 002416   003070 710000 32                 TRA     s:15532
        32 002417   003070 710000 32                 TRA     s:15532
        32 002420   003070 710000 32                 TRA     s:15532
        32 002421   003070 710000 32                 TRA     s:15532
        32 002422   003070 710000 32                 TRA     s:15532
        32 002423   003070 710000 32                 TRA     s:15532
        32 002424   003070 710000 32                 TRA     s:15532
        32 002425   003070 710000 32                 TRA     s:15532
        32 002426   003070 710000 32                 TRA     s:15532
        32 002427   003070 710000 32                 TRA     s:15532
        32 002430   003070 710000 32                 TRA     s:15532
        32 002431   003070 710000 32                 TRA     s:15532
        32 002432   003164 710000 32                 TRA     s:15621
        32 002433   003070 710000 32                 TRA     s:15532
        32 002434   003070 710000 32                 TRA     s:15532
        32 002435   003070 710000 32                 TRA     s:15532
        32 002436   003070 710000 32                 TRA     s:15532
PL6.E3A0      #001=Z8EL$LEX File=Z8EL.:Z8A6TSI                                   SAT 08/09/97 12:03 Page:159
        32 002437   003070 710000 32                 TRA     s:15532
        32 002440   003070 710000 32                 TRA     s:15532
        32 002441   003164 710000 32                 TRA     s:15621
        32 002442   003070 710000 32                 TRA     s:15532
        32 002443   003070 710000 32                 TRA     s:15532
        32 002444   003070 710000 32                 TRA     s:15532
        32 002445   003070 710000 32                 TRA     s:15532
        32 002446   003070 710000 32                 TRA     s:15532
        32 002447   003070 710000 32                 TRA     s:15532
        32 002450   003070 710000 32                 TRA     s:15532
        32 002451   003070 710000 32                 TRA     s:15532
        32 002452   003070 710000 32                 TRA     s:15532
        32 002453   003070 710000 32                 TRA     s:15532
        32 002454   003070 710000 32                 TRA     s:15532
        32 002455   003070 710000 32                 TRA     s:15532
        32 002456   003070 710000 32                 TRA     s:15532
        32 002457   003070 710000 32                 TRA     s:15532
        32 002460   003070 710000 32                 TRA     s:15532
        32 002461   003070 710000 32                 TRA     s:15532
        32 002462   003164 710000 32                 TRA     s:15621
        32 002463   003070 710000 32                 TRA     s:15532
        32 002464   003070 710000 32                 TRA     s:15532
        32 002465   003070 710000 32                 TRA     s:15532
        32 002466   003164 710000 32                 TRA     s:15621
        32 002467   003070 710000 32                 TRA     s:15532
        32 002470   003070 710000 32                 TRA     s:15532
        32 002471   003070 710000 32                 TRA     s:15532
        32 002472   003070 710000 32                 TRA     s:15532
        32 002473   003070 710000 32                 TRA     s:15532
        32 002474   003070 710000 32                 TRA     s:15532
        32 002475   003070 710000 32                 TRA     s:15532
        32 002476   003070 710000 32                 TRA     s:15532
        32 002477   003070 710000 32                 TRA     s:15532
        32 002500   003070 710000 32                 TRA     s:15532
        32 002501   003070 710000 32                 TRA     s:15532
        32 002502   003070 710000 32                 TRA     s:15532
        32 002503   003070 710000 32                 TRA     s:15532
PL6.E3A0      #001=Z8EL$LEX File=Z8EL.:Z8A6TSI                                   SAT 08/09/97 12:03 Page:160
        32 002504   003070 710000 32                 TRA     s:15532
        32 002505   003070 710000 32                 TRA     s:15532
        32 002506   003164 710000 32                 TRA     s:15621
        32 002507   003164 710000 32                 TRA     s:15621
        32 002510   003070 710000 32                 TRA     s:15532
        32 002511   003070 710000 32                 TRA     s:15532
        32 002512   003070 710000 32                 TRA     s:15532
        32 002513   003070 710000 32                 TRA     s:15532
        32 002514   003070 710000 32                 TRA     s:15532
        32 002515   003070 710000 32                 TRA     s:15532
        32 002516   003070 710000 32                 TRA     s:15532
        32 002517   003070 710000 32                 TRA     s:15532
        32 002520   003070 710000 32                 TRA     s:15532
        32 002521   003070 710000 32                 TRA     s:15532
        32 002522   003070 710000 32                 TRA     s:15532
        32 002523   003164 710000 32                 TRA     s:15621
        32 002524   003070 710000 32                 TRA     s:15532
        32 002525   003070 710000 32                 TRA     s:15532
        32 002526   003164 710000 32                 TRA     s:15621
        32 002527   003070 710000 32                 TRA     s:15532
        32 002530   003070 710000 32                 TRA     s:15532
        32 002531   003070 710000 32                 TRA     s:15532
        32 002532   003070 710000 32                 TRA     s:15532
        32 002533   003070 710000 32                 TRA     s:15532
        32 002534   003070 710000 32                 TRA     s:15532
        32 002535   003070 710000 32                 TRA     s:15532
        32 002536   003164 710000 32                 TRA     s:15621
        32 002537   003070 710000 32                 TRA     s:15532
        32 002540   003070 710000 32                 TRA     s:15532
        32 002541   003070 710000 32                 TRA     s:15532
        32 002542   003070 710000 32                 TRA     s:15532
        32 002543   003070 710000 32                 TRA     s:15532
        32 002544   003070 710000 32                 TRA     s:15532
        32 002545   003070 710000 32                 TRA     s:15532
        32 002546   003164 710000 32                 TRA     s:15621
        32 002547   003070 710000 32                 TRA     s:15532
        32 002550   003070 710000 32                 TRA     s:15532
PL6.E3A0      #001=Z8EL$LEX File=Z8EL.:Z8A6TSI                                   SAT 08/09/97 12:03 Page:161
        32 002551   003070 710000 32                 TRA     s:15532
        32 002552   003070 710000 32                 TRA     s:15532
        32 002553   003070 710000 32                 TRA     s:15532
        32 002554   003070 710000 32                 TRA     s:15532
        32 002555   003070 710000 32                 TRA     s:15532
        32 002556   003070 710000 32                 TRA     s:15532
        32 002557   003070 710000 32                 TRA     s:15532
        32 002560   003070 710000 32                 TRA     s:15532
        32 002561   003070 710000 32                 TRA     s:15532
        32 002562   003070 710000 32                 TRA     s:15532
        32 002563   003070 710000 32                 TRA     s:15532
        32 002564   003070 710000 32                 TRA     s:15532
        32 002565   003070 710000 32                 TRA     s:15532
        32 002566   003070 710000 32                 TRA     s:15532
        32 002567   003070 710000 32                 TRA     s:15532
        32 002570   003070 710000 32                 TRA     s:15532
        32 002571   003070 710000 32                 TRA     s:15532
        32 002572   003070 710000 32                 TRA     s:15532
        32 002573   003070 710000 32                 TRA     s:15532
        32 002574   003070 710000 32                 TRA     s:15532
        32 002575   003070 710000 32                 TRA     s:15532
        32 002576   003164 710000 32                 TRA     s:15621
        32 002577   003070 710000 32                 TRA     s:15532
        32 002600   003070 710000 32                 TRA     s:15532
        32 002601   003070 710000 32                 TRA     s:15532
        32 002602   003070 710000 32                 TRA     s:15532
        32 002603   003070 710000 32                 TRA     s:15532
        32 002604   003070 710000 32                 TRA     s:15532
        32 002605   003070 710000 32                 TRA     s:15532
        32 002606   003070 710000 32                 TRA     s:15532
        32 002607   003070 710000 32                 TRA     s:15532
        32 002610   003070 710000 32                 TRA     s:15532
        32 002611   003070 710000 32                 TRA     s:15532
        32 002612   003164 710000 32                 TRA     s:15621
        32 002613   003070 710000 32                 TRA     s:15532
        32 002614   003070 710000 32                 TRA     s:15532
        32 002615   003070 710000 32                 TRA     s:15532
PL6.E3A0      #001=Z8EL$LEX File=Z8EL.:Z8A6TSI                                   SAT 08/09/97 12:03 Page:162
        32 002616   003070 710000 32                 TRA     s:15532
        32 002617   003070 710000 32                 TRA     s:15532
        32 002620   003070 710000 32                 TRA     s:15532
        32 002621   003070 710000 32                 TRA     s:15532
        32 002622   003070 710000 32                 TRA     s:15532
        32 002623   003070 710000 32                 TRA     s:15532
        32 002624   003070 710000 32                 TRA     s:15532
        32 002625   003070 710000 32                 TRA     s:15532
        32 002626   003070 710000 32                 TRA     s:15532
        32 002627   003070 710000 32                 TRA     s:15532
        32 002630   003070 710000 32                 TRA     s:15532
        32 002631   003070 710000 32                 TRA     s:15532
        32 002632   003070 710000 32                 TRA     s:15532
        32 002633   003070 710000 32                 TRA     s:15532
        32 002634   003070 710000 32                 TRA     s:15532
        32 002635   003070 710000 32                 TRA     s:15532
        32 002636   003070 710000 32                 TRA     s:15532
        32 002637   003070 710000 32                 TRA     s:15532
        32 002640   003070 710000 32                 TRA     s:15532
        32 002641   003164 710000 32                 TRA     s:15621
        32 002642   003070 710000 32                 TRA     s:15532
        32 002643   003164 710000 32                 TRA     s:15621
        32 002644   003070 710000 32                 TRA     s:15532
        32 002645   003070 710000 32                 TRA     s:15532
        32 002646   003070 710000 32                 TRA     s:15532
        32 002647   003070 710000 32                 TRA     s:15532
        32 002650   003070 710000 32                 TRA     s:15532
        32 002651   003070 710000 32                 TRA     s:15532
        32 002652   003070 710000 32                 TRA     s:15532
        32 002653   003070 710000 32                 TRA     s:15532
        32 002654   003070 710000 32                 TRA     s:15532
        32 002655   003070 710000 32                 TRA     s:15532
        32 002656   003070 710000 32                 TRA     s:15532
        32 002657   003070 710000 32                 TRA     s:15532
        32 002660   003070 710000 32                 TRA     s:15532
        32 002661   003070 710000 32                 TRA     s:15532
        32 002662   003070 710000 32                 TRA     s:15532
PL6.E3A0      #001=Z8EL$LEX File=Z8EL.:Z8A6TSI                                   SAT 08/09/97 12:03 Page:163
        32 002663   003070 710000 32                 TRA     s:15532
        32 002664   003070 710000 32                 TRA     s:15532
        32 002665   003070 710000 32                 TRA     s:15532
        32 002666   003070 710000 32                 TRA     s:15532
        32 002667   003070 710000 32                 TRA     s:15532
        32 002670   003070 710000 32                 TRA     s:15532
        32 002671   003070 710000 32                 TRA     s:15532
        32 002672   003070 710000 32                 TRA     s:15532
        32 002673   003070 710000 32                 TRA     s:15532
        32 002674   003070 710000 32                 TRA     s:15532
        32 002675   003070 710000 32                 TRA     s:15532
        32 002676   003070 710000 32                 TRA     s:15532
        32 002677   003070 710000 32                 TRA     s:15532
        32 002700   003164 710000 32                 TRA     s:15621
        32 002701   003070 710000 32                 TRA     s:15532
        32 002702   003070 710000 32                 TRA     s:15532
        32 002703   003070 710000 32                 TRA     s:15532
        32 002704   003070 710000 32                 TRA     s:15532
        32 002705   003070 710000 32                 TRA     s:15532
        32 002706   003070 710000 32                 TRA     s:15532
        32 002707   003070 710000 32                 TRA     s:15532
        32 002710   003070 710000 32                 TRA     s:15532
        32 002711   003070 710000 32                 TRA     s:15532
        32 002712   003164 710000 32                 TRA     s:15621
        32 002713   003070 710000 32                 TRA     s:15532
        32 002714   003070 710000 32                 TRA     s:15532
        32 002715   003070 710000 32                 TRA     s:15532
        32 002716   003070 710000 32                 TRA     s:15532
        32 002717   003070 710000 32                 TRA     s:15532
        32 002720   003070 710000 32                 TRA     s:15532
        32 002721   003070 710000 32                 TRA     s:15532
        32 002722   003070 710000 32                 TRA     s:15532
        32 002723   003070 710000 32                 TRA     s:15532
        32 002724   003070 710000 32                 TRA     s:15532
        32 002725   003070 710000 32                 TRA     s:15532
        32 002726   003070 710000 32                 TRA     s:15532
        32 002727   003070 710000 32                 TRA     s:15532
PL6.E3A0      #001=Z8EL$LEX File=Z8EL.:Z8A6TSI                                   SAT 08/09/97 12:03 Page:164
        32 002730   003070 710000 32                 TRA     s:15532
        32 002731   003070 710000 32                 TRA     s:15532
        32 002732   003070 710000 32                 TRA     s:15532
        32 002733   003070 710000 32                 TRA     s:15532
        32 002734   003070 710000 32                 TRA     s:15532
        32 002735   003070 710000 32                 TRA     s:15532
        32 002736   003070 710000 32                 TRA     s:15532
        32 002737   003070 710000 32                 TRA     s:15532
        32 002740   003070 710000 32                 TRA     s:15532
        32 002741   003070 710000 32                 TRA     s:15532
        32 002742   003070 710000 32                 TRA     s:15532
        32 002743   003070 710000 32                 TRA     s:15532
        32 002744   003070 710000 32                 TRA     s:15532
        32 002745   003070 710000 32                 TRA     s:15532
        32 002746   003070 710000 32                 TRA     s:15532
        32 002747   003070 710000 32                 TRA     s:15532
        32 002750   003070 710000 32                 TRA     s:15532
        32 002751   003070 710000 32                 TRA     s:15532
        32 002752   003070 710000 32                 TRA     s:15532
        32 002753   003070 710000 32                 TRA     s:15532
        32 002754   003070 710000 32                 TRA     s:15532
        32 002755   003070 710000 32                 TRA     s:15532
        32 002756   003070 710000 32                 TRA     s:15532
        32 002757   003070 710000 32                 TRA     s:15532
        32 002760   003070 710000 32                 TRA     s:15532
        32 002761   003070 710000 32                 TRA     s:15532
        32 002762   003070 710000 32                 TRA     s:15532
        32 002763   003164 710000 32                 TRA     s:15621
        32 002764   003070 710000 32                 TRA     s:15532
        32 002765   003070 710000 32                 TRA     s:15532
        32 002766   003070 710000 32                 TRA     s:15532
        32 002767   003164 710000 32                 TRA     s:15621
        32 002770   003070 710000 32                 TRA     s:15532
        32 002771   003070 710000 32                 TRA     s:15532
        32 002772   003070 710000 32                 TRA     s:15532
        32 002773   003070 710000 32                 TRA     s:15532
        32 002774   003070 710000 32                 TRA     s:15532
PL6.E3A0      #001=Z8EL$LEX File=Z8EL.:Z8A6TSI                                   SAT 08/09/97 12:03 Page:165
        32 002775   003070 710000 32                 TRA     s:15532
        32 002776   003070 710000 32                 TRA     s:15532
        32 002777   003070 710000 32                 TRA     s:15532
        32 003000   003070 710000 32                 TRA     s:15532
        32 003001   003070 710000 32                 TRA     s:15532
        32 003002   003070 710000 32                 TRA     s:15532
        32 003003   003070 710000 32                 TRA     s:15532
        32 003004   003070 710000 32                 TRA     s:15532
        32 003005   003070 710000 32                 TRA     s:15532
        32 003006   003070 710000 32                 TRA     s:15532
        32 003007   003070 710000 32                 TRA     s:15532
        32 003010   003070 710000 32                 TRA     s:15532
        32 003011   003070 710000 32                 TRA     s:15532
        32 003012   003070 710000 32                 TRA     s:15532
        32 003013   003070 710000 32                 TRA     s:15532
        32 003014   003164 710000 32                 TRA     s:15621
        32 003015   003070 710000 32                 TRA     s:15532
        32 003016   003070 710000 32                 TRA     s:15532
        32 003017   003070 710000 32                 TRA     s:15532
        32 003020   003164 710000 32                 TRA     s:15621
        32 003021   003070 710000 32                 TRA     s:15532
        32 003022   003070 710000 32                 TRA     s:15532
        32 003023   003070 710000 32                 TRA     s:15532
        32 003024   003070 710000 32                 TRA     s:15532
        32 003025   003070 710000 32                 TRA     s:15532
        32 003026   003070 710000 32                 TRA     s:15532
        32 003027   003070 710000 32                 TRA     s:15532
        32 003030   003070 710000 32                 TRA     s:15532
        32 003031   003070 710000 32                 TRA     s:15532
        32 003032   003070 710000 32                 TRA     s:15532
        32 003033   003070 710000 32                 TRA     s:15532
        32 003034   003070 710000 32                 TRA     s:15532
        32 003035   003070 710000 32                 TRA     s:15532
        32 003036   003070 710000 32                 TRA     s:15532
        32 003037   003070 710000 32                 TRA     s:15532
        32 003040   003070 710000 32                 TRA     s:15532
        32 003041   003070 710000 32                 TRA     s:15532
PL6.E3A0      #001=Z8EL$LEX File=Z8EL.:Z8A6TSI                                   SAT 08/09/97 12:03 Page:166
        32 003042   003070 710000 32                 TRA     s:15532
        32 003043   003070 710000 32                 TRA     s:15532
        32 003044   003164 710000 32                 TRA     s:15621
        32 003045   003070 710000 32                 TRA     s:15532
        32 003046   003070 710000 32                 TRA     s:15532
        32 003047   003164 710000 32                 TRA     s:15621
        32 003050   003070 710000 32                 TRA     s:15532
        32 003051   003070 710000 32                 TRA     s:15532
        32 003052   003070 710000 32                 TRA     s:15532
        32 003053   003070 710000 32                 TRA     s:15532
        32 003054   003070 710000 32                 TRA     s:15532
        32 003055   003070 710000 32                 TRA     s:15532
        32 003056   003070 710000 32                 TRA     s:15532
        32 003057   003070 710000 32                 TRA     s:15532
        32 003060   003070 710000 32                 TRA     s:15532
        32 003061   003164 710000 32                 TRA     s:15621
        32 003062   003070 710000 32                 TRA     s:15532
        32 003063   003070 710000 32                 TRA     s:15532
        32 003064   003070 710000 32                 TRA     s:15532
        32 003065   003070 710000 32                 TRA     s:15532
        32 003066   003164 710000 32                 TRA     s:15621
        32 003067   003164 710000 32                 TRA     s:15621

             15531    6                  CASE(ELSE);

             15532    6                    CALL Z8AE$ERROR (%E$RW_USED_AS_DATA_NAME,

  15532 32 003070   000063 630400 33                 EPPR0   51
        32 003071   000061 631400 33                 EPPR1   49
        32 003072   000000 701000 xent               TSX1    Z8AE$ERROR
        32 003073   000000 011000                    NOP     0

             15533    6                                     LEX_SYMBOL.LINE,
             15534    6                                     LEX_SYMBOL.COLUMN,
             15535    6                                     DNT$);
             15536                         /* Create new DNT for non-reserved word since reserved
             15537                               word is in constant storage */
PL6.E3A0      #001=Z8EL$LEX File=Z8EL.:Z8A6TSI                                   SAT 08/09/97 12:03 Page:167
             15538    6                    TDNT$ = DNT$;

  15538 32 003074   000000 236000 17                 LDQ     DNT$
        32 003075   000025 756000 0                  STQ     TDNT$

             15539                         %NEW_DNT(@SIZE = LEX_SYMBOL.SIZE,
             15540                                     @NAME = LEX_SYMBOL.SYMBOL,
             15541                                     @ST$ = TDNT$ -> DNT.ST$,
             15542                                     @NEXT = "DNT_BUCKETS(DNT_BUCKET_NUMBER)");
             15543          %RESERVE_DNT(POINTER = @POINTER,  SIZE = @SIZE);
             15544    7          DO ;

             15545    7            ITERATION = (SIZE+21)/4 ;

  15545 32 003076   000010 236000 2                  LDQ     LEX_SYMBOL+8
        32 003077   000025 036007                    ADLQ    21,DL
        32 003100   000004 506007                    DIV     4,DL
        32 003101   000000 756000 1                  STQ     ITERATION

             15546    7            IF DNT_.BOTTOM + ITERATION >= DNT_.FLOOR THEN

  15546 32 003102   000002 036000 18                 ADLQ    DNT_+2
        32 003103   003116 604000 32                 TMI     s:15548
        32 003104   000003 116000 18                 CMPQ    DNT_+3
        32 003105   003116 602000 32                 TNC     s:15548

             15547    7              CALL Z8AR$RESERVER(ADDR(DNT_));

  15547 32 003106   000067 236000 33                 LDQ     55
        32 003107   000172 756000 0                  STQ     INSERT_SIZE+1
        32 003110   000172 630400 0                  EPPR0   INSERT_SIZE+1
        32 003111   000173 450400 0                  STP0    INSERT_SIZE+2
        32 003112   000173 630400 0                  EPPR0   INSERT_SIZE+2
        32 003113   000004 631400 33                 EPPR1   4
        32 003114   000000 701000 xent               TSX1    Z8AR$RESERVER
        32 003115   000000 011000                    NOP     0

PL6.E3A0      #001=Z8EL$LEX File=Z8EL.:Z8A6TSI                                   SAT 08/09/97 12:03 Page:168
             15548    7            POINTER                  = PINCRW (DNT_.FIRST, DNT_.BOTTOM);

  15548 32 003116   000002 236000 18                 LDQ     DNT_+2
        32 003117   000022 736000                    QLS     18
        32 003120   000001 036000 18                 ADLQ    DNT_+1
        32 003121   000000 756000 17                 STQ     DNT$

             15549    7            DNT_.BOTTOM              = DNT_.BOTTOM + ITERATION ;

  15549 32 003122   000002 236000 18                 LDQ     DNT_+2
        32 003123   000000 036000 1                  ADLQ    ITERATION
        32 003124   000002 756000 18                 STQ     DNT_+2

             15550    7            POINTER->DNT.ID          = ITEM % ;

  15550 32 003125   001046 220003                    LDX0    550,DU
        32 003126   000000 470400 17                 LDP0    DNT$
        32 003127   000000 740100                    STX0    0,,PR0

             15551    7            POINTER->DNT.N           = ITERATION ;

  15551 32 003130   000000 721000 1                  LXL1    ITERATION
        32 003131   000000 470400 17                 LDP0    DNT$
        32 003132   000000 441100                    SXL1    0,,PR0

             15552    7            POINTER->DNT.TEXT.LENGTH = SIZE;

  15552 32 003133   000010 721000 2                  LXL1    LEX_SYMBOL+8
        32 003134   000000 470400 17                 LDP0    DNT$
        32 003135   000004 741100                    STX1    4,,PR0

             15553    7          END ;

             15555    6     @POINTER -> DNT.ST$        = @ST$;

  15555 32 003136   000025 471400 0                  LDP1    TDNT$
        32 003137   100001 236100                    LDQ     1,,PR1
PL6.E3A0      #001=Z8EL$LEX File=Z8EL.:Z8A6TSI                                   SAT 08/09/97 12:03 Page:169
        32 003140   000001 756100                    STQ     1,,PR0

             15556    6     @POINTER -> DNT.NEXT       = @NEXT;

  15556 32 003141   000000 722000 19                 LXL2    DNT_BUCKET_NUMBER
        32 003142   000000 236012 xsym               LDQ     DNT_BUCKETS,X2
        32 003143   000002 756100                    STQ     2,,PR0

             15557    6     @POINTER -> DNT.ATTR       = '0'B;

  15557 32 003144   000000 223003                    LDX3    0,DU
        32 003145   000003 743100                    STX3    3,,PR0

             15558    6     @POINTER -> DNT.RW_NO      = @RW_NO;

  15558 32 003146   000000 224003                    LDX4    0,DU
        32 003147   000003 444100                    SXL4    3,,PR0

             15559    6     @POINTER -> DNT.TEXT.NAME  = @NAME;

  15559 32 003150   040140 100400                    MLR     fill='040'O
        32 003151   000011 000504 2                  ADSC9   LEX_SYMBOL+9             cn=0,n=324
        32 003152   000004 400011                    ADSC9   4,,PR0                   cn=2,n=*X1

             15560          %IF @RW;
             15562          %ENDIF;
             15563          %IF @USER_WORD;
             15565          %ENDIF;
             15566          %IF @SYSTEM_NAME;
             15568          %ENDIF;
             15569          %IF @DUPLICATE;
             15571          %ENDIF;
             15572          %IF @NUMERIC_LITERAL;
             15574          %ENDIF;
             15575          %IF @REPLACE_TOKEN;
             15577          %ENDIF;
             15578          %IF @ALPHA_LITERAL;
PL6.E3A0      #001=Z8EL$LEX File=Z8EL.:Z8A6TSI                                   SAT 08/09/97 12:03 Page:170
             15580          %ENDIF;
             15581          %IF @FIGURATIVE_CONSTANT;
             15583          %ENDIF;
             15584          %IF @ALL;
             15586          %ENDIF;
             15587          %IF @VERB;
             15589          %ENDIF;
             15590          %IF @ACCEPT_AREA_A;
             15592          %ENDIF;
             15593          %IF @ERROR_VARIABLE;
             15595          %ENDIF;
             15596          %IF @MUST_AREA_A;
             15598          %ENDIF;
             15600    6                    DNT$ -> DNT.ATTR = TDNT$ -> DNT.ATTR;

  15600 32 003153   100003 225100                    LDX5    3,,PR1
        32 003154   000003 745100                    STX5    3,,PR0

             15601    6                    DNT$ -> DNT.B.USER_WORD = TRUE;

  15601 32 003155   200000 236003                    LDQ     65536,DU
        32 003156   000003 256100                    ORSQ    3,,PR0

             15602    6                    DNT$ -> DNT.B.RW = FALSE;

  15602 32 003157   000023 236000 33                 LDQ     19
        32 003160   000003 356100                    ANSQ    3,,PR0

             15603    6                    DNT_BUCKETS(DNT_BUCKET_NUMBER) = DNT$;

  15603 32 003161   000000 236000 17                 LDQ     DNT$
        32 003162   000000 756012 xsym               STQ     DNT_BUCKETS,X2
        32 003163   003164 710000 32                 TRA     s:15621

             15604    6                  CASE (%RSV_WRD_FILLER,  %RSV_WRD_PICTURE, %RSV_WRD_USAGE,

             15605    6                        %RSV_WRD_SIGN,    %RSV_WRD_LEADING, %RSV_WRD_TRAILING,
PL6.E3A0      #001=Z8EL$LEX File=Z8EL.:Z8A6TSI                                   SAT 08/09/97 12:03 Page:171
             15606    6                        %RSV_WRD_DISPLAY, %RSV_WRD_JUSTIFIED, %RSV_WRD_BLANK,
             15607    6                        %RSV_WRD_SOURCE,     %RSV_WRD_LINE,    %RSV_WRD_COLUMN,
             15608    6                        %RSV_WRD_VALUE,   %RSV_WRD_VALUES,  %RSV_WRD_SUM,
             15609    6                        %RSV_WRD_GROUP,   %RSV_WRD_NEXT,    %RSV_WRD_TYPE,
             15610    6                        %RSV_WRD_REDEFINES, %RSV_WRD_IS,    %RSV_WRD_EXTERNAL,
             15611    6                        %RSV_WRD_GLOBAL,  %RSV_WRD_COMP,    %RSV_WRD_INDEX,
             15612    6                        %RSV_WRD_OCCURS,  %RSV_WRD_ASCENDING,  %RSV_WRD_DESCENDING,

             15613    6                        %RSV_WRD_INDEXED,  %RSV_WRD_SYNCHRONIZED, %RSV_WRD_RENAMES,
             15614    6                        %RSV_WRD_COMP_1,  %RSV_WRD_COMP_2,  %RSV_WRD_COMP_3,
             15615    6                        %RSV_WRD_COMP_4,  %RSV_WRD_COMP_5,  %RSV_WRD_COMP_6,
             15616    6                        %RSV_WRD_COMP_7,  %RSV_WRD_COMP_8,  %RSV_WRD_COMP_11,
             15617    6                        %RSV_WRD_COMP_12, %RSV_WRD_COMP_13, %RSV_WRD_COMP_14,
             15618    6                        %RSV_WRD_DB_KEY, %RSV_WRD_POINTER);
             15619    6                   ;  /* do nothing */
             15620    6                END;

             15621    5              O1COM.RECORD_DCL = '0'B;

  15621 32 003164   000012 450000 xsym               STZ     O1COM+10

             15622    5            END;

             15623    4     END;

      790    15625
      791    15626    3       O1COM.LA_STK.DNT$(O1COM.LA_PUT) = DNT$;

  15626 32 003165   000132 235000 xsym               LDA     O1COM+90
        32 003166   000003 735000                    ALS     3
        32 003167   000000 236000 17                 LDQ     DNT$
        32 003170   000241 756005 xsym               STQ     O1COM+161,AL

      792    15627    3       O1COM.LA_STK.ST$(O1COM.LA_PUT) = DNT$ -> DNT.ST$;

  15627 32 003171   000132 235000 xsym               LDA     O1COM+90
        32 003172   000003 735000                    ALS     3
PL6.E3A0      #001=Z8EL$LEX File=Z8EL.:Z8A6TSI                                   SAT 08/09/97 12:03 Page:172
        32 003173   000000 470400 17                 LDP0    DNT$
        32 003174   000001 236100                    LDQ     1,,PR0
        32 003175   000240 756005 xsym               STQ     O1COM+160,AL

      793    15628
      794    15629    3       IF DNT$ -> DNT.B.RW THEN

  15629 32 003176   000003 234100                    SZN     3,,PR0
        32 003177   004314 605000 32                 TPL     s:15713

      795    15630              %PROCESS_RESERVED_WORD;
             15631    4            DO ;

             15632        /*V*
             15633            RESERVED_WORD -- If we have encountered a reserved word then the symbol
             15634                             field in the stack is assigned the reserved word number.
             15635                             If we see the start of a picture string (PIC or PICTURE)
             15636                             then we set the state symbolizing the start of a picture
             15637                             string.
             15638        */
             15639    4              IF O1COM.LA_STK.COLUMN(O1COM.LA_PUT) < O1COM.AREA_B_COLUMN_START

  15639 32 003200   000132 235000 xsym               LDA     O1COM+90
        32 003201   000003 735000                    ALS     3
        32 003202   000245 236005 xsym               LDQ     O1COM+165,AL
        32 003203   003234 604000 32                 TMI     s:15648
        32 003204   000121 116000 xsym               CMPQ    O1COM+81
        32 003205   003234 605000 32                 TPL     s:15648
        32 003206   000013 234000 xsym               SZN     O1COM+11
        32 003207   003234 605000 32                 TPL     s:15648
        32 003210   000003 236100                    LDQ     3,,PR0
        32 003211   000040 316003                    CANQ    32,DU
        32 003212   003234 601000 32                 TNZ     s:15648
        32 003213   000200 316003                    CANQ    128,DU
        32 003214   003234 601000 32                 TNZ     s:15648

             15640                      /*N* Free_Format --  AND NOT COMCOM.OB.FORMAT */
PL6.E3A0      #001=Z8EL$LEX File=Z8EL.:Z8A6TSI                                   SAT 08/09/97 12:03 Page:173
             15641    4                  AND O1COM.PD_FLAG
             15642    4                  AND NOT DNT$ -> DNT.B.MUST_AREA_A
             15643    4                  AND NOT DNT$ -> DNT.B.ACCEPT_AREA_A THEN
             15644    4                CALL Z8AE$ERROR(%E$AREA_A_ERROR,

  15644 32 003215   000066 236000 33                 LDQ     54
        32 003216   000175 756000 0                  STQ     INSERT_SIZE+4
        32 003217   000132 236000 xsym               LDQ     O1COM+90
        32 003220   000025 736000                    QLS     21
        32 003221   000071 036000 33                 ADLQ    57
        32 003222   000174 756000 0                  STQ     INSERT_SIZE+3
        32 003223   000132 236000 xsym               LDQ     O1COM+90
        32 003224   000025 736000                    QLS     21
        32 003225   000072 036000 33                 ADLQ    58
        32 003226   000073 235000 33                 LDA     59
        32 003227   000172 757000 0                  STAQ    INSERT_SIZE+1
        32 003230   000172 630400 0                  EPPR0   INSERT_SIZE+1
        32 003231   000061 631400 33                 EPPR1   49
        32 003232   000000 701000 xent               TSX1    Z8AE$ERROR
        32 003233   000000 011000                    NOP     0

             15645    4                                O1COM.LA_STK.LINE(O1COM.LA_PUT),
             15646    4                                O1COM.LA_STK.COLUMN(O1COM.LA_PUT),
             15647    4                                DNT$);
             15648    4              IF DNT$ -> DNT.B.MUST_AREA_A

  15648 32 003234   000000 470400 17                 LDP0    DNT$
        32 003235   000003 236100                    LDQ     3,,PR0
        32 003236   000040 316003                    CANQ    32,DU
        32 003237   003265 600000 32                 TZE     s:15655
        32 003240   000132 235000 xsym               LDA     O1COM+90
        32 003241   000003 735000                    ALS     3
        32 003242   000245 236005 xsym               LDQ     O1COM+165,AL
        32 003243   003246 604000 32                 TMI     s:15651
        32 003244   000121 116000 xsym               CMPQ    O1COM+81
        32 003245   003265 604000 32                 TMI     s:15655

PL6.E3A0      #001=Z8EL$LEX File=Z8EL.:Z8A6TSI                                   SAT 08/09/97 12:03 Page:174
             15649                   /*N* Free_Format -- AND NOT COMCOM.OB.FORMAT */
             15650    4              AND O1COM.LA_STK.COLUMN(O1COM.LA_PUT) >= O1COM.AREA_B_COLUMN_START THEN
             15651    4                CALL Z8AE$ERROR (%E$MUST_BE_IN_AREA_A,

  15651 32 003246   000066 236000 33                 LDQ     54
        32 003247   000175 756000 0                  STQ     INSERT_SIZE+4
        32 003250   000132 236000 xsym               LDQ     O1COM+90
        32 003251   000025 736000                    QLS     21
        32 003252   000071 036000 33                 ADLQ    57
        32 003253   000174 756000 0                  STQ     INSERT_SIZE+3
        32 003254   000132 236000 xsym               LDQ     O1COM+90
        32 003255   000025 736000                    QLS     21
        32 003256   000072 036000 33                 ADLQ    58
        32 003257   000075 235000 33                 LDA     61
        32 003260   000172 757000 0                  STAQ    INSERT_SIZE+1
        32 003261   000172 630400 0                  EPPR0   INSERT_SIZE+1
        32 003262   000061 631400 33                 EPPR1   49
        32 003263   000000 701000 xent               TSX1    Z8AE$ERROR
        32 003264   000000 011000                    NOP     0

             15652    4                                 O1COM.LA_STK.LINE (O1COM.LA_PUT),
             15653    4                                 O1COM.LA_STK.COLUMN (O1COM.LA_PUT),
             15654    4                                 DNT$);
             15655    4              O1COM.LA_STK.SYMBOL(O1COM.LA_PUT) = DNT$->DNT.RW_NO;

  15655 32 003265   000132 235000 xsym               LDA     O1COM+90
        32 003266   000003 735000                    ALS     3
        32 003267   000000 470400 17                 LDP0    DNT$
        32 003270   000003 236100                    LDQ     3,,PR0
        32 003271   777777 376007                    ANQ     -1,DL
        32 003272   000242 756005 xsym               STQ     O1COM+162,AL

             15656    5              DO CASE(O1COM.LA_STK.SYMBOL(O1COM.LA_PUT)) ;

  15656 32 003273   000132 235000 xsym               LDA     O1COM+90
        32 003274   000003 735000                    ALS     3
        32 003275   000242 235005 xsym               LDA     O1COM+162,AL
PL6.E3A0      #001=Z8EL$LEX File=Z8EL.:Z8A6TSI                                   SAT 08/09/97 12:03 Page:175
        32 003276   000035 135007                    SBLA    29,DL
        32 003277   000725 115007                    CMPA    469,DL
        32 003300   003302 602005 32                 TNC     s:15656+7,AL
        32 003301   004307 710000 32                 TRA     s:15705
        32 003302   004247 710000 32                 TRA     s:15690
        32 003303   004307 710000 32                 TRA     s:15705
        32 003304   004307 710000 32                 TRA     s:15705
        32 003305   004247 710000 32                 TRA     s:15690
        32 003306   004307 710000 32                 TRA     s:15705
        32 003307   004307 710000 32                 TRA     s:15705
        32 003310   004307 710000 32                 TRA     s:15705
        32 003311   004307 710000 32                 TRA     s:15705
        32 003312   004307 710000 32                 TRA     s:15705
        32 003313   004307 710000 32                 TRA     s:15705
        32 003314   004307 710000 32                 TRA     s:15705
        32 003315   004307 710000 32                 TRA     s:15705
        32 003316   004307 710000 32                 TRA     s:15705
        32 003317   004307 710000 32                 TRA     s:15705
        32 003320   004307 710000 32                 TRA     s:15705
        32 003321   004307 710000 32                 TRA     s:15705
        32 003322   004307 710000 32                 TRA     s:15705
        32 003323   004247 710000 32                 TRA     s:15690
        32 003324   004307 710000 32                 TRA     s:15705
        32 003325   004307 710000 32                 TRA     s:15705
        32 003326   004307 710000 32                 TRA     s:15705
        32 003327   004307 710000 32                 TRA     s:15705
        32 003330   004307 710000 32                 TRA     s:15705
        32 003331   004307 710000 32                 TRA     s:15705
        32 003332   004307 710000 32                 TRA     s:15705
        32 003333   004307 710000 32                 TRA     s:15705
        32 003334   004307 710000 32                 TRA     s:15705
        32 003335   004307 710000 32                 TRA     s:15705
        32 003336   004307 710000 32                 TRA     s:15705
        32 003337   004307 710000 32                 TRA     s:15705
        32 003340   004307 710000 32                 TRA     s:15705
        32 003341   004232 710000 32                 TRA     s:15662
        32 003342   004307 710000 32                 TRA     s:15705
PL6.E3A0      #001=Z8EL$LEX File=Z8EL.:Z8A6TSI                                   SAT 08/09/97 12:03 Page:176
        32 003343   004307 710000 32                 TRA     s:15705
        32 003344   004307 710000 32                 TRA     s:15705
        32 003345   004307 710000 32                 TRA     s:15705
        32 003346   004307 710000 32                 TRA     s:15705
        32 003347   004307 710000 32                 TRA     s:15705
        32 003350   004307 710000 32                 TRA     s:15705
        32 003351   004307 710000 32                 TRA     s:15705
        32 003352   004307 710000 32                 TRA     s:15705
        32 003353   004307 710000 32                 TRA     s:15705
        32 003354   004247 710000 32                 TRA     s:15690
        32 003355   004247 710000 32                 TRA     s:15690
        32 003356   004307 710000 32                 TRA     s:15705
        32 003357   004307 710000 32                 TRA     s:15705
        32 003360   004307 710000 32                 TRA     s:15705
        32 003361   004307 710000 32                 TRA     s:15705
        32 003362   004307 710000 32                 TRA     s:15705
        32 003363   004307 710000 32                 TRA     s:15705
        32 003364   004307 710000 32                 TRA     s:15705
        32 003365   004307 710000 32                 TRA     s:15705
        32 003366   004307 710000 32                 TRA     s:15705
        32 003367   004307 710000 32                 TRA     s:15705
        32 003370   004307 710000 32                 TRA     s:15705
        32 003371   004247 710000 32                 TRA     s:15690
        32 003372   004307 710000 32                 TRA     s:15705
        32 003373   004307 710000 32                 TRA     s:15705
        32 003374   004307 710000 32                 TRA     s:15705
        32 003375   004307 710000 32                 TRA     s:15705
        32 003376   004307 710000 32                 TRA     s:15705
        32 003377   004307 710000 32                 TRA     s:15705
        32 003400   004307 710000 32                 TRA     s:15705
        32 003401   004307 710000 32                 TRA     s:15705
        32 003402   004307 710000 32                 TRA     s:15705
        32 003403   004307 710000 32                 TRA     s:15705
        32 003404   004307 710000 32                 TRA     s:15705
        32 003405   004307 710000 32                 TRA     s:15705
        32 003406   004307 710000 32                 TRA     s:15705
        32 003407   004307 710000 32                 TRA     s:15705
PL6.E3A0      #001=Z8EL$LEX File=Z8EL.:Z8A6TSI                                   SAT 08/09/97 12:03 Page:177
        32 003410   004307 710000 32                 TRA     s:15705
        32 003411   004307 710000 32                 TRA     s:15705
        32 003412   004307 710000 32                 TRA     s:15705
        32 003413   004307 710000 32                 TRA     s:15705
        32 003414   004307 710000 32                 TRA     s:15705
        32 003415   004307 710000 32                 TRA     s:15705
        32 003416   004307 710000 32                 TRA     s:15705
        32 003417   004247 710000 32                 TRA     s:15690
        32 003420   004307 710000 32                 TRA     s:15705
        32 003421   004247 710000 32                 TRA     s:15690
        32 003422   004307 710000 32                 TRA     s:15705
        32 003423   004307 710000 32                 TRA     s:15705
        32 003424   004307 710000 32                 TRA     s:15705
        32 003425   004247 710000 32                 TRA     s:15690
        32 003426   004307 710000 32                 TRA     s:15705
        32 003427   004307 710000 32                 TRA     s:15705
        32 003430   004307 710000 32                 TRA     s:15705
        32 003431   004307 710000 32                 TRA     s:15705
        32 003432   004307 710000 32                 TRA     s:15705
        32 003433   004307 710000 32                 TRA     s:15705
        32 003434   004307 710000 32                 TRA     s:15705
        32 003435   004307 710000 32                 TRA     s:15705
        32 003436   004307 710000 32                 TRA     s:15705
        32 003437   004307 710000 32                 TRA     s:15705
        32 003440   004307 710000 32                 TRA     s:15705
        32 003441   004227 710000 32                 TRA     s:15660
        32 003442   004227 710000 32                 TRA     s:15660
        32 003443   004307 710000 32                 TRA     s:15705
        32 003444   004307 710000 32                 TRA     s:15705
        32 003445   004307 710000 32                 TRA     s:15705
        32 003446   004307 710000 32                 TRA     s:15705
        32 003447   004307 710000 32                 TRA     s:15705
        32 003450   004307 710000 32                 TRA     s:15705
        32 003451   004307 710000 32                 TRA     s:15705
        32 003452   004307 710000 32                 TRA     s:15705
        32 003453   004307 710000 32                 TRA     s:15705
        32 003454   004307 710000 32                 TRA     s:15705
PL6.E3A0      #001=Z8EL$LEX File=Z8EL.:Z8A6TSI                                   SAT 08/09/97 12:03 Page:178
        32 003455   004247 710000 32                 TRA     s:15690
        32 003456   004307 710000 32                 TRA     s:15705
        32 003457   004307 710000 32                 TRA     s:15705
        32 003460   004307 710000 32                 TRA     s:15705
        32 003461   004307 710000 32                 TRA     s:15705
        32 003462   004307 710000 32                 TRA     s:15705
        32 003463   004307 710000 32                 TRA     s:15705
        32 003464   004307 710000 32                 TRA     s:15705
        32 003465   004307 710000 32                 TRA     s:15705
        32 003466   004307 710000 32                 TRA     s:15705
        32 003467   004307 710000 32                 TRA     s:15705
        32 003470   004247 710000 32                 TRA     s:15690
        32 003471   004247 710000 32                 TRA     s:15690
        32 003472   004307 710000 32                 TRA     s:15705
        32 003473   004307 710000 32                 TRA     s:15705
        32 003474   004307 710000 32                 TRA     s:15705
        32 003475   004247 710000 32                 TRA     s:15690
        32 003476   004307 710000 32                 TRA     s:15705
        32 003477   004307 710000 32                 TRA     s:15705
        32 003500   004307 710000 32                 TRA     s:15705
        32 003501   004307 710000 32                 TRA     s:15705
        32 003502   004307 710000 32                 TRA     s:15705
        32 003503   004307 710000 32                 TRA     s:15705
        32 003504   004307 710000 32                 TRA     s:15705
        32 003505   004307 710000 32                 TRA     s:15705
        32 003506   004307 710000 32                 TRA     s:15705
        32 003507   004307 710000 32                 TRA     s:15705
        32 003510   004247 710000 32                 TRA     s:15690
        32 003511   004307 710000 32                 TRA     s:15705
        32 003512   004307 710000 32                 TRA     s:15705
        32 003513   004307 710000 32                 TRA     s:15705
        32 003514   004307 710000 32                 TRA     s:15705
        32 003515   004307 710000 32                 TRA     s:15705
        32 003516   004307 710000 32                 TRA     s:15705
        32 003517   004307 710000 32                 TRA     s:15705
        32 003520   004307 710000 32                 TRA     s:15705
        32 003521   004307 710000 32                 TRA     s:15705
PL6.E3A0      #001=Z8EL$LEX File=Z8EL.:Z8A6TSI                                   SAT 08/09/97 12:03 Page:179
        32 003522   004307 710000 32                 TRA     s:15705
        32 003523   004307 710000 32                 TRA     s:15705
        32 003524   004307 710000 32                 TRA     s:15705
        32 003525   004307 710000 32                 TRA     s:15705
        32 003526   004307 710000 32                 TRA     s:15705
        32 003527   004307 710000 32                 TRA     s:15705
        32 003530   004307 710000 32                 TRA     s:15705
        32 003531   004307 710000 32                 TRA     s:15705
        32 003532   004307 710000 32                 TRA     s:15705
        32 003533   004307 710000 32                 TRA     s:15705
        32 003534   004307 710000 32                 TRA     s:15705
        32 003535   004307 710000 32                 TRA     s:15705
        32 003536   004307 710000 32                 TRA     s:15705
        32 003537   004307 710000 32                 TRA     s:15705
        32 003540   004307 710000 32                 TRA     s:15705
        32 003541   004307 710000 32                 TRA     s:15705
        32 003542   004307 710000 32                 TRA     s:15705
        32 003543   004307 710000 32                 TRA     s:15705
        32 003544   004247 710000 32                 TRA     s:15690
        32 003545   004307 710000 32                 TRA     s:15705
        32 003546   004307 710000 32                 TRA     s:15705
        32 003547   004247 710000 32                 TRA     s:15690
        32 003550   004307 710000 32                 TRA     s:15705
        32 003551   004247 710000 32                 TRA     s:15690
        32 003552   004307 710000 32                 TRA     s:15705
        32 003553   004307 710000 32                 TRA     s:15705
        32 003554   004247 710000 32                 TRA     s:15690
        32 003555   004307 710000 32                 TRA     s:15705
        32 003556   004307 710000 32                 TRA     s:15705
        32 003557   004307 710000 32                 TRA     s:15705
        32 003560   004307 710000 32                 TRA     s:15705
        32 003561   004307 710000 32                 TRA     s:15705
        32 003562   004307 710000 32                 TRA     s:15705
        32 003563   004307 710000 32                 TRA     s:15705
        32 003564   004307 710000 32                 TRA     s:15705
        32 003565   004307 710000 32                 TRA     s:15705
        32 003566   004307 710000 32                 TRA     s:15705
PL6.E3A0      #001=Z8EL$LEX File=Z8EL.:Z8A6TSI                                   SAT 08/09/97 12:03 Page:180
        32 003567   004247 710000 32                 TRA     s:15690
        32 003570   004247 710000 32                 TRA     s:15690
        32 003571   004307 710000 32                 TRA     s:15705
        32 003572   004307 710000 32                 TRA     s:15705
        32 003573   004307 710000 32                 TRA     s:15705
        32 003574   004307 710000 32                 TRA     s:15705
        32 003575   004307 710000 32                 TRA     s:15705
        32 003576   004307 710000 32                 TRA     s:15705
        32 003577   004307 710000 32                 TRA     s:15705
        32 003600   004307 710000 32                 TRA     s:15705
        32 003601   004247 710000 32                 TRA     s:15690
        32 003602   004307 710000 32                 TRA     s:15705
        32 003603   004247 710000 32                 TRA     s:15690
        32 003604   004307 710000 32                 TRA     s:15705
        32 003605   004307 710000 32                 TRA     s:15705
        32 003606   004307 710000 32                 TRA     s:15705
        32 003607   004247 710000 32                 TRA     s:15690
        32 003610   004307 710000 32                 TRA     s:15705
        32 003611   004307 710000 32                 TRA     s:15705
        32 003612   004307 710000 32                 TRA     s:15705
        32 003613   004307 710000 32                 TRA     s:15705
        32 003614   004307 710000 32                 TRA     s:15705
        32 003615   004307 710000 32                 TRA     s:15705
        32 003616   004303 710000 32                 TRA     s:15703
        32 003617   004307 710000 32                 TRA     s:15705
        32 003620   004307 710000 32                 TRA     s:15705
        32 003621   004307 710000 32                 TRA     s:15705
        32 003622   004307 710000 32                 TRA     s:15705
        32 003623   004307 710000 32                 TRA     s:15705
        32 003624   004307 710000 32                 TRA     s:15705
        32 003625   004307 710000 32                 TRA     s:15705
        32 003626   004307 710000 32                 TRA     s:15705
        32 003627   004247 710000 32                 TRA     s:15690
        32 003630   004307 710000 32                 TRA     s:15705
        32 003631   004307 710000 32                 TRA     s:15705
        32 003632   004307 710000 32                 TRA     s:15705
        32 003633   004307 710000 32                 TRA     s:15705
PL6.E3A0      #001=Z8EL$LEX File=Z8EL.:Z8A6TSI                                   SAT 08/09/97 12:03 Page:181
        32 003634   004307 710000 32                 TRA     s:15705
        32 003635   004307 710000 32                 TRA     s:15705
        32 003636   004247 710000 32                 TRA     s:15690
        32 003637   004247 710000 32                 TRA     s:15690
        32 003640   004307 710000 32                 TRA     s:15705
        32 003641   004307 710000 32                 TRA     s:15705
        32 003642   004247 710000 32                 TRA     s:15690
        32 003643   004237 710000 32                 TRA     s:15665
        32 003644   004307 710000 32                 TRA     s:15705
        32 003645   004307 710000 32                 TRA     s:15705
        32 003646   004307 710000 32                 TRA     s:15705
        32 003647   004307 710000 32                 TRA     s:15705
        32 003650   004307 710000 32                 TRA     s:15705
        32 003651   004307 710000 32                 TRA     s:15705
        32 003652   004307 710000 32                 TRA     s:15705
        32 003653   004307 710000 32                 TRA     s:15705
        32 003654   004307 710000 32                 TRA     s:15705
        32 003655   004307 710000 32                 TRA     s:15705
        32 003656   004307 710000 32                 TRA     s:15705
        32 003657   004307 710000 32                 TRA     s:15705
        32 003660   004307 710000 32                 TRA     s:15705
        32 003661   004307 710000 32                 TRA     s:15705
        32 003662   004307 710000 32                 TRA     s:15705
        32 003663   004307 710000 32                 TRA     s:15705
        32 003664   004307 710000 32                 TRA     s:15705
        32 003665   004307 710000 32                 TRA     s:15705
        32 003666   004307 710000 32                 TRA     s:15705
        32 003667   004307 710000 32                 TRA     s:15705
        32 003670   004307 710000 32                 TRA     s:15705
        32 003671   004307 710000 32                 TRA     s:15705
        32 003672   004307 710000 32                 TRA     s:15705
        32 003673   004307 710000 32                 TRA     s:15705
        32 003674   004307 710000 32                 TRA     s:15705
        32 003675   004307 710000 32                 TRA     s:15705
        32 003676   004307 710000 32                 TRA     s:15705
        32 003677   004307 710000 32                 TRA     s:15705
        32 003700   004303 710000 32                 TRA     s:15703
PL6.E3A0      #001=Z8EL$LEX File=Z8EL.:Z8A6TSI                                   SAT 08/09/97 12:03 Page:182
        32 003701   004307 710000 32                 TRA     s:15705
        32 003702   004307 710000 32                 TRA     s:15705
        32 003703   004307 710000 32                 TRA     s:15705
        32 003704   004307 710000 32                 TRA     s:15705
        32 003705   004307 710000 32                 TRA     s:15705
        32 003706   004247 710000 32                 TRA     s:15690
        32 003707   004307 710000 32                 TRA     s:15705
        32 003710   004307 710000 32                 TRA     s:15705
        32 003711   004307 710000 32                 TRA     s:15705
        32 003712   004247 710000 32                 TRA     s:15690
        32 003713   004307 710000 32                 TRA     s:15705
        32 003714   004247 710000 32                 TRA     s:15690
        32 003715   004307 710000 32                 TRA     s:15705
        32 003716   004307 710000 32                 TRA     s:15705
        32 003717   004247 710000 32                 TRA     s:15690
        32 003720   004307 710000 32                 TRA     s:15705
        32 003721   004307 710000 32                 TRA     s:15705
        32 003722   004307 710000 32                 TRA     s:15705
        32 003723   004307 710000 32                 TRA     s:15705
        32 003724   004307 710000 32                 TRA     s:15705
        32 003725   004307 710000 32                 TRA     s:15705
        32 003726   004307 710000 32                 TRA     s:15705
        32 003727   004307 710000 32                 TRA     s:15705
        32 003730   004307 710000 32                 TRA     s:15705
        32 003731   004307 710000 32                 TRA     s:15705
        32 003732   004307 710000 32                 TRA     s:15705
        32 003733   004307 710000 32                 TRA     s:15705
        32 003734   004307 710000 32                 TRA     s:15705
        32 003735   004307 710000 32                 TRA     s:15705
        32 003736   004307 710000 32                 TRA     s:15705
        32 003737   004307 710000 32                 TRA     s:15705
        32 003740   004307 710000 32                 TRA     s:15705
        32 003741   004307 710000 32                 TRA     s:15705
        32 003742   004307 710000 32                 TRA     s:15705
        32 003743   004307 710000 32                 TRA     s:15705
        32 003744   004247 710000 32                 TRA     s:15690
        32 003745   004307 710000 32                 TRA     s:15705
PL6.E3A0      #001=Z8EL$LEX File=Z8EL.:Z8A6TSI                                   SAT 08/09/97 12:03 Page:183
        32 003746   004307 710000 32                 TRA     s:15705
        32 003747   004307 710000 32                 TRA     s:15705
        32 003750   004307 710000 32                 TRA     s:15705
        32 003751   004307 710000 32                 TRA     s:15705
        32 003752   004307 710000 32                 TRA     s:15705
        32 003753   004307 710000 32                 TRA     s:15705
        32 003754   004307 710000 32                 TRA     s:15705
        32 003755   004307 710000 32                 TRA     s:15705
        32 003756   004307 710000 32                 TRA     s:15705
        32 003757   004307 710000 32                 TRA     s:15705
        32 003760   004307 710000 32                 TRA     s:15705
        32 003761   004247 710000 32                 TRA     s:15690
        32 003762   004307 710000 32                 TRA     s:15705
        32 003763   004307 710000 32                 TRA     s:15705
        32 003764   004307 710000 32                 TRA     s:15705
        32 003765   004244 710000 32                 TRA     s:15668
        32 003766   004307 710000 32                 TRA     s:15705
        32 003767   004307 710000 32                 TRA     s:15705
        32 003770   004307 710000 32                 TRA     s:15705
        32 003771   004307 710000 32                 TRA     s:15705
        32 003772   004307 710000 32                 TRA     s:15705
        32 003773   004247 710000 32                 TRA     s:15690
        32 003774   004307 710000 32                 TRA     s:15705
        32 003775   004307 710000 32                 TRA     s:15705
        32 003776   004307 710000 32                 TRA     s:15705
        32 003777   004307 710000 32                 TRA     s:15705
        32 004000   004307 710000 32                 TRA     s:15705
        32 004001   004307 710000 32                 TRA     s:15705
        32 004002   004307 710000 32                 TRA     s:15705
        32 004003   004307 710000 32                 TRA     s:15705
        32 004004   004307 710000 32                 TRA     s:15705
        32 004005   004307 710000 32                 TRA     s:15705
        32 004006   004247 710000 32                 TRA     s:15690
        32 004007   004307 710000 32                 TRA     s:15705
        32 004010   004303 710000 32                 TRA     s:15703
        32 004011   004307 710000 32                 TRA     s:15705
        32 004012   004307 710000 32                 TRA     s:15705
PL6.E3A0      #001=Z8EL$LEX File=Z8EL.:Z8A6TSI                                   SAT 08/09/97 12:03 Page:184
        32 004013   004247 710000 32                 TRA     s:15690
        32 004014   004247 710000 32                 TRA     s:15690
        32 004015   004307 710000 32                 TRA     s:15705
        32 004016   004307 710000 32                 TRA     s:15705
        32 004017   004307 710000 32                 TRA     s:15705
        32 004020   004247 710000 32                 TRA     s:15690
        32 004021   004307 710000 32                 TRA     s:15705
        32 004022   004307 710000 32                 TRA     s:15705
        32 004023   004307 710000 32                 TRA     s:15705
        32 004024   004307 710000 32                 TRA     s:15705
        32 004025   004307 710000 32                 TRA     s:15705
        32 004026   004307 710000 32                 TRA     s:15705
        32 004027   004307 710000 32                 TRA     s:15705
        32 004030   004307 710000 32                 TRA     s:15705
        32 004031   004307 710000 32                 TRA     s:15705
        32 004032   004307 710000 32                 TRA     s:15705
        32 004033   004247 710000 32                 TRA     s:15690
        32 004034   004307 710000 32                 TRA     s:15705
        32 004035   004307 710000 32                 TRA     s:15705
        32 004036   004307 710000 32                 TRA     s:15705
        32 004037   004307 710000 32                 TRA     s:15705
        32 004040   004307 710000 32                 TRA     s:15705
        32 004041   004307 710000 32                 TRA     s:15705
        32 004042   004307 710000 32                 TRA     s:15705
        32 004043   004307 710000 32                 TRA     s:15705
        32 004044   004307 710000 32                 TRA     s:15705
        32 004045   004307 710000 32                 TRA     s:15705
        32 004046   004307 710000 32                 TRA     s:15705
        32 004047   004307 710000 32                 TRA     s:15705
        32 004050   004307 710000 32                 TRA     s:15705
        32 004051   004307 710000 32                 TRA     s:15705
        32 004052   004307 710000 32                 TRA     s:15705
        32 004053   004307 710000 32                 TRA     s:15705
        32 004054   004247 710000 32                 TRA     s:15690
        32 004055   004307 710000 32                 TRA     s:15705
        32 004056   004307 710000 32                 TRA     s:15705
        32 004057   004247 710000 32                 TRA     s:15690
PL6.E3A0      #001=Z8EL$LEX File=Z8EL.:Z8A6TSI                                   SAT 08/09/97 12:03 Page:185
        32 004060   004307 710000 32                 TRA     s:15705
        32 004061   004307 710000 32                 TRA     s:15705
        32 004062   004307 710000 32                 TRA     s:15705
        32 004063   004307 710000 32                 TRA     s:15705
        32 004064   004307 710000 32                 TRA     s:15705
        32 004065   004307 710000 32                 TRA     s:15705
        32 004066   004307 710000 32                 TRA     s:15705
        32 004067   004307 710000 32                 TRA     s:15705
        32 004070   004307 710000 32                 TRA     s:15705
        32 004071   004247 710000 32                 TRA     s:15690
        32 004072   004307 710000 32                 TRA     s:15705
        32 004073   004227 710000 32                 TRA     s:15660
        32 004074   004307 710000 32                 TRA     s:15705
        32 004075   004307 710000 32                 TRA     s:15705
        32 004076   004307 710000 32                 TRA     s:15705
        32 004077   004247 710000 32                 TRA     s:15690
        32 004100   004307 710000 32                 TRA     s:15705
        32 004101   004307 710000 32                 TRA     s:15705
        32 004102   004307 710000 32                 TRA     s:15705
        32 004103   004307 710000 32                 TRA     s:15705
        32 004104   004307 710000 32                 TRA     s:15705
        32 004105   004247 710000 32                 TRA     s:15690
        32 004106   004307 710000 32                 TRA     s:15705
        32 004107   004307 710000 32                 TRA     s:15705
        32 004110   004307 710000 32                 TRA     s:15705
        32 004111   004307 710000 32                 TRA     s:15705
        32 004112   004307 710000 32                 TRA     s:15705
        32 004113   004307 710000 32                 TRA     s:15705
        32 004114   004307 710000 32                 TRA     s:15705
        32 004115   004303 710000 32                 TRA     s:15703
        32 004116   004307 710000 32                 TRA     s:15705
        32 004117   004307 710000 32                 TRA     s:15705
        32 004120   004307 710000 32                 TRA     s:15705
        32 004121   004307 710000 32                 TRA     s:15705
        32 004122   004307 710000 32                 TRA     s:15705
        32 004123   004307 710000 32                 TRA     s:15705
        32 004124   004247 710000 32                 TRA     s:15690
PL6.E3A0      #001=Z8EL$LEX File=Z8EL.:Z8A6TSI                                   SAT 08/09/97 12:03 Page:186
        32 004125   004307 710000 32                 TRA     s:15705
        32 004126   004247 710000 32                 TRA     s:15690
        32 004127   004247 710000 32                 TRA     s:15690
        32 004130   004307 710000 32                 TRA     s:15705
        32 004131   004247 710000 32                 TRA     s:15690
        32 004132   004307 710000 32                 TRA     s:15705
        32 004133   004307 710000 32                 TRA     s:15705
        32 004134   004307 710000 32                 TRA     s:15705
        32 004135   004307 710000 32                 TRA     s:15705
        32 004136   004307 710000 32                 TRA     s:15705
        32 004137   004247 710000 32                 TRA     s:15690
        32 004140   004307 710000 32                 TRA     s:15705
        32 004141   004247 710000 32                 TRA     s:15690
        32 004142   004307 710000 32                 TRA     s:15705
        32 004143   004307 710000 32                 TRA     s:15705
        32 004144   004307 710000 32                 TRA     s:15705
        32 004145   004307 710000 32                 TRA     s:15705
        32 004146   004307 710000 32                 TRA     s:15705
        32 004147   004307 710000 32                 TRA     s:15705
        32 004150   004307 710000 32                 TRA     s:15705
        32 004151   004307 710000 32                 TRA     s:15705
        32 004152   004307 710000 32                 TRA     s:15705
        32 004153   004307 710000 32                 TRA     s:15705
        32 004154   004307 710000 32                 TRA     s:15705
        32 004155   004307 710000 32                 TRA     s:15705
        32 004156   004247 710000 32                 TRA     s:15690
        32 004157   004307 710000 32                 TRA     s:15705
        32 004160   004307 710000 32                 TRA     s:15705
        32 004161   004307 710000 32                 TRA     s:15705
        32 004162   004307 710000 32                 TRA     s:15705
        32 004163   004307 710000 32                 TRA     s:15705
        32 004164   004307 710000 32                 TRA     s:15705
        32 004165   004307 710000 32                 TRA     s:15705
        32 004166   004307 710000 32                 TRA     s:15705
        32 004167   004307 710000 32                 TRA     s:15705
        32 004170   004307 710000 32                 TRA     s:15705
        32 004171   004307 710000 32                 TRA     s:15705
PL6.E3A0      #001=Z8EL$LEX File=Z8EL.:Z8A6TSI                                   SAT 08/09/97 12:03 Page:187
        32 004172   004307 710000 32                 TRA     s:15705
        32 004173   004307 710000 32                 TRA     s:15705
        32 004174   004307 710000 32                 TRA     s:15705
        32 004175   004307 710000 32                 TRA     s:15705
        32 004176   004307 710000 32                 TRA     s:15705
        32 004177   004307 710000 32                 TRA     s:15705
        32 004200   004247 710000 32                 TRA     s:15690
        32 004201   004307 710000 32                 TRA     s:15705
        32 004202   004307 710000 32                 TRA     s:15705
        32 004203   004307 710000 32                 TRA     s:15705
        32 004204   004307 710000 32                 TRA     s:15705
        32 004205   004307 710000 32                 TRA     s:15705
        32 004206   004307 710000 32                 TRA     s:15705
        32 004207   004307 710000 32                 TRA     s:15705
        32 004210   004307 710000 32                 TRA     s:15705
        32 004211   004307 710000 32                 TRA     s:15705
        32 004212   004307 710000 32                 TRA     s:15705
        32 004213   004307 710000 32                 TRA     s:15705
        32 004214   004307 710000 32                 TRA     s:15705
        32 004215   004307 710000 32                 TRA     s:15705
        32 004216   004307 710000 32                 TRA     s:15705
        32 004217   004307 710000 32                 TRA     s:15705
        32 004220   004307 710000 32                 TRA     s:15705
        32 004221   004307 710000 32                 TRA     s:15705
        32 004222   004307 710000 32                 TRA     s:15705
        32 004223   004307 710000 32                 TRA     s:15705
        32 004224   004307 710000 32                 TRA     s:15705
        32 004225   004247 710000 32                 TRA     s:15690
        32 004226   004303 710000 32                 TRA     s:15703

             15657    5                CASE( %RSV_WRD_DATE_COMPILED,

             15658    5                    %RSV_WRD_DATE_WRITTEN,
             15659    5                    %RSV_WRD_SECURITY);
             15660    5                  LEX_STATE = %LS_PERIOD_BEFORE_COMMENT_ENTRY;

  15660 32 004227   000001 235007                    LDA     1,DL
PL6.E3A0      #001=Z8EL$LEX File=Z8EL.:Z8A6TSI                                   SAT 08/09/97 12:03 Page:188
        32 004230   000000 755000 30                 STA     LEX_STATE
        32 004231   004307 710000 32                 TRA     s:15705

             15661    5                CASE(%RSV_WRD_AUTHOR);

             15662    5                       LEX_STATE = %LS_PERIOD_BEFORE_COMMENT_ENTRY;

  15662 32 004232   000001 235007                    LDA     1,DL
        32 004233   000000 755000 30                 STA     LEX_STATE

             15663    5                       O1COM.AUTHOR_COMMENT = %TRUE;

  15663 32 004234   400000 236003                    LDQ     -131072,DU
        32 004235   000114 756000 xsym               STQ     O1COM+76
        32 004236   004307 710000 32                 TRA     s:15705

             15664    5                CASE(%RSV_WRD_INSTALLATION);

             15665    5                       LEX_STATE = %LS_PERIOD_BEFORE_COMMENT_ENTRY;

  15665 32 004237   000001 235007                    LDA     1,DL
        32 004240   000000 755000 30                 STA     LEX_STATE

             15666    5                       O1COM.INSTAL_ON = %TRUE;

  15666 32 004241   400000 236003                    LDQ     -131072,DU
        32 004242   000117 256000 xsym               ORSQ    O1COM+79
        32 004243   004307 710000 32                 TRA     s:15705

             15667    5                CASE(%RSV_WRD_PICTURE) ;

             15668    5                  LEX_STATE = %LS_PICTURE_OR_IS;

  15668 32 004244   000004 235007                    LDA     4,DL
        32 004245   000000 755000 30                 STA     LEX_STATE
        32 004246   004307 710000 32                 TRA     s:15705

PL6.E3A0      #001=Z8EL$LEX File=Z8EL.:Z8A6TSI                                   SAT 08/09/97 12:03 Page:189
             15669    5                CASE(%RSV_WRD_ACCEPT,    %RSV_WRD_ADD,      %RSV_WRD_ALTER,

             15670    5                     %RSV_WRD_CALL,      %RSV_WRD_CANCEL,   %RSV_WRD_CLOSE,
             15671    5                     %RSV_WRD_COMPUTE,   %RSV_WRD_CONTINUE, %RSV_WRD_DELETE,
             15672    5                     %RSV_WRD_DISABLE,   %RSV_WRD_DIVIDE,   %RSV_WRD_ENABLE,
             15673    5                     %RSV_WRD_EVALUATE,  %RSV_WRD_EXAMINE,  %RSV_WRD_EXIT,
             15674    5                     %RSV_WRD_GO,        %RSV_WRD_GENERATE, %RSV_WRD_IF,
             15675    5                     %RSV_WRD_INITIATE,  %RSV_WRD_INITIALIZE,%RSV_WRD_INSPECT,
             15676    5                     %RSV_WRD_MERGE,     %RSV_WRD_MOVE,     %RSV_WRD_MULTIPLY,
             15677    5                     %RSV_WRD_OPEN,      %RSV_WRD_PERFORM,  %RSV_WRD_PURGE,
             15678    5                     %RSV_WRD_READ,      %RSV_WRD_RECEIVE,  %RSV_WRD_RELEASE,
             15679    5                     %RSV_WRD_RETURN,    %RSV_WRD_REWRITE,  %RSV_WRD_SEND,
             15680    5                     %RSV_WRD_SEARCH,    %RSV_WRD_START,    %RSV_WRD_SET,
             15681    5                     %RSV_WRD_STRING,    %RSV_WRD_STOP,     %RSV_WRD_SUBTRACT,
             15682    5                     %RSV_WRD_SUPPRESS,  %RSV_WRD_TERMINATE,%RSV_WRD_UNSTRING,
             15683    5                     %RSV_WRD_WRITE,
             15684    5                     %RSV_WRD_CONNECT,   %RSV_WRD_DISCONNECT,%RSV_WRD_ERASE,
             15685    5                     %RSV_WRD_FIND,      %RSV_WRD_FINISH,   %RSV_WRD_GET,
             15686    5                     %RSV_WRD_MODIFY,    %RSV_WRD_PRECALCULATE,
             15687    5                     %RSV_WRD_READY,    %RSV_WRD_STORE);
             15688                       %SAVE_IMPERATIVE_STMT_RSV_WRD ;
             15689    6          DO ;

             15690    6             SAVED_SYMBOL = O1COM.LA_STK(O1COM.LA_PUT);

  15690 32 004247   000132 235000 xsym               LDA     O1COM+90
        32 004250   000005 735000                    ALS     5
        32 004251   000000 100405                    MLR     fill='000'O
        32 004252   000237 000040 xsym               ADSC9   O1COM+159,A              cn=0,n=32
        32 004253   000011 000040 0                  ADSC9   SAVED_SYMBOL             cn=0,n=32

             15691    6             SAVED_LEX_STATE = %LS_NORMAL;

  15691 32 004254   000021 450000 0                  STZ     SAVED_LEX_STATE

             15692    6             O1COM.LA_STK.SYMBOL(O1COM.LA_PUT) = %INVISIBLE_STMT_START ;

PL6.E3A0      #001=Z8EL$LEX File=Z8EL.:Z8A6TSI                                   SAT 08/09/97 12:03 Page:190
  15692 32 004255   000132 236000 xsym               LDQ     O1COM+90
        32 004256   000003 736000                    QLS     3
        32 004257   000034 235007                    LDA     28,DL
        32 004260   000242 755006 xsym               STA     O1COM+162,QL

             15693    6             O1COM.LA_STK.DNT$(O1COM.LA_PUT) = ADDR(NIL) ;

  15693 32 004261   000132 236000 xsym               LDQ     O1COM+90
        32 004262   000003 736000                    QLS     3
        32 004263   000000 620006                    EAX0    0,QL
        32 004264   000000 236000 33                 LDQ     0
        32 004265   000241 756010 xsym               STQ     O1COM+161,X0

             15694    6             O1COM.LA_STK.FLAGS(O1COM.LA_PUT) = FALSE;

  15694 32 004266   000132 235000 xsym               LDA     O1COM+90
        32 004267   000003 735000                    ALS     3
        32 004270   000000 220003                    LDX0    0,DU
        32 004271   000237 440005 xsym               SXL0    O1COM+159,AL

             15695    6             O1COM.LA_STK.ST$(O1COM.LA_PUT) = ADDR(NIL);

  15695 32 004272   000132 235000 xsym               LDA     O1COM+90
        32 004273   000003 735000                    ALS     3
        32 004274   000240 756005 xsym               STQ     O1COM+160,AL

             15696    6             O1COM.LA_STK.TYPE(O1COM.LA_PUT) = 0;

  15696 32 004275   000132 235000 xsym               LDA     O1COM+90
        32 004276   000003 735000                    ALS     3
        32 004277   000243 450005 xsym               STZ     O1COM+163,AL

             15697                  /* Leave line and column the same */
             15698    6             LEX_STATE = %LS_PICK_UP_SAVED_SYMBOL;

  15698 32 004300   000003 235007                    LDA     3,DL
        32 004301   000000 755000 30                 STA     LEX_STATE
PL6.E3A0      #001=Z8EL$LEX File=Z8EL.:Z8A6TSI                                   SAT 08/09/97 12:03 Page:191

             15699    6          END ;

  15699 32 004302   004307 710000 32                 TRA     s:15705

             15701    5                CASE(%RSV_WRD_QUOTES,    %RSV_WRD_LOW_VALUES,

             15702    5                     %RSV_WRD_SPACES,    %RSV_WRD_ZEROES,     %RSV_WRD_HIGH_VALUES);
             15703    5                  O1COM.LA_STK.TYPE(O1COM.LA_PUT) = %TYT;

  15703 32 004303   000132 235000 xsym               LDA     O1COM+90
        32 004304   000003 735000                    ALS     3
        32 004305   000015 236007                    LDQ     13,DL
        32 004306   000243 756005 xsym               STQ     O1COM+163,AL

             15704    5              END ;

             15705    4              IF NOT LEX_SYMBOL.B.CONTINUED_TOKEN THEN

  15705 32 004307   000002 236000 2                  LDQ     LEX_SYMBOL+2
        32 004310   040000 316003                    CANQ    16384,DU
        32 004311   004473 601000 32                 TNZ     s:15818

             15706    4                SAVED_CONT_FLAG = FALSE;

  15706 32 004312   000022 450000 0                  STZ     SAVED_CONT_FLAG

             15707    4            END ;

  15707 32 004313   004473 710000 32                 TRA     s:15818

      796    15709    3       ELSE
      797    15710              %PROCESS_USER_WORD;
             15711    4            DO;

             15712                   /* for user word */
             15713    4              DNT$ -> DNT.B.USER_WORD = TRUE;
PL6.E3A0      #001=Z8EL$LEX File=Z8EL.:Z8A6TSI                                   SAT 08/09/97 12:03 Page:192

  15713 32 004314   200000 236003                    LDQ     65536,DU
        32 004315   000003 256100                    ORSQ    3,,PR0

             15714                   /* Check to make sure userword does not end in dash */
             15715    4              IF SUBSTR(LEX_SYMBOL.SYMBOL,

  15715 32 004316   000010 235000 2                  LDA     LEX_SYMBOL+8
        32 004317   040000 106405                    CMPC    fill='040'O
        32 004320   000010 600001 2                  ADSC9   LEX_SYMBOL+8,A           cn=3,n=1
        32 004321   000076 000001 33                 ADSC9   62                       cn=0,n=1
        32 004322   004327 601000 32                 TNZ     s:15724

             15716    4                        LEX_SYMBOL.SIZE - 1,
             15717    4                        1) = '-' THEN
             15718    5                DO;

             15719    5                  CALL Z8AE$ERROR (%E$USERWORD_END_DASH_ERROR,

  15719 32 004323   000100 630400 33                 EPPR0   64
        32 004324   000011 631400 33                 EPPR1   9
        32 004325   000000 701000 xent               TSX1    Z8AE$ERROR
        32 004326   000000 011000                    NOP     0

             15720    5                                   LEX_SYMBOL.LINE,
             15721    5                                   LEX_SYMBOL.COLUMN);
             15722    5                END;

             15723                   /* Check to make sure userword <= 30 characters */
             15724    4              IF LEX_SYMBOL.SIZE > %USER_WORD_MAX_SIZE

  15724 32 004327   000010 235000 2                  LDA     LEX_SYMBOL+8
        32 004330   000036 115007                    CMPA    30,DL
        32 004331   004345 604400 32                 TMOZ    s:15754
        32 004332   000013 234000 xsym               SZN     O1COM+11
        32 004333   004345 604000 32                 TMI     s:15754

PL6.E3A0      #001=Z8EL$LEX File=Z8EL.:Z8A6TSI                                   SAT 08/09/97 12:03 Page:193
             15725    4                      AND NOT O1COM.PD_FLAG THEN
             15726    5                DO;

             15727    5                  CALL Z8AE$ERROR (%E$USERWORD_TOO_LONG,

  15727 32 004334   000104 630400 33                 EPPR0   68
        32 004335   000011 631400 33                 EPPR1   9
        32 004336   000000 701000 xent               TSX1    Z8AE$ERROR
        32 004337   000000 011000                    NOP     0

             15728    5                                   LEX_SYMBOL.LINE,
             15729    5                                   LEX_SYMBOL.COLUMN);
             15730    5                  LEX_SYMBOL.SIZE = 30;

  15730 32 004340   000036 235007                    LDA     30,DL
        32 004341   000010 755000 2                  STA     LEX_SYMBOL+8

             15731    5                  DNT$ -> DNT.TEXT.LENGTH = 30;

  15731 32 004342   000036 220003                    LDX0    30,DU
        32 004343   000000 470400 17                 LDP0    DNT$
        32 004344   000004 740100                    STX0    4,,PR0

             15732    5                END;

             15733                   /* Check for at least one letter in userword */
             15734              /* Check was disabled because paragraph names do not have to
             15735                    contain letters in the name.  Therefore, the check must
             15736                    either be:
             15737                       1) done after the parse to differentiate between
             15738                            paragraph names and data names.
             15739                       2) Change user word that contain no letters to be
             15740                            paragraph names
             15741                       3) Disabled completely.
             15742                   CALL SEARCH (CHAR_COLUMN,
             15743                                CHAR_CLASS,
             15744                                LETTER_SEARCH_TABLE,
PL6.E3A0      #001=Z8EL$LEX File=Z8EL.:Z8A6TSI                                   SAT 08/09/97 12:03 Page:194
             15745                                SUBSTR(LEX_SYMBOL.SYMBOL, 0, LEX_SYMBOL.SIZE));
             15746                   IF CHAR_CLASS = %END_OF_LINE THEN
             15747                     DO;
             15748                       CALL Z8AE$ERROR (%E$NO_LETTER_USERWORD,
             15749                                        LEX_SYMBOL.LINE,
             15750                                        LEX_SYMBOL.COLUMN);
             15751                     END;
             15752              */
             15753                   /* Check for no $ or _ if ANSI option */
             15754    4              IF COMCOM.OB.FIPS.LEVEL > 0 THEN

  15754 32 004345   000036 720000 xsym               LXL0    COMCOM+30
        32 004346   004365 604400 32                 TMOZ    s:15767

             15755    5                DO;

             15756    5                  CALL SEARCH (CHAR_COLUMN,

  15756 32 004347   000010 721000 2                  LXL1    LEX_SYMBOL+8
        32 004350   000000 164440                    TCT
        32 004351   000011 000011 2                  ADSC9   LEX_SYMBOL+9             cn=0,n=*X1
        32 004352   000000 000000 xsym               ARG     ANSI_USERWORD_SCAN_TABLE
        32 004353   000023 000000 0                  ARG     CHAR_COLUMN
        32 004354   000023 235000 0                  LDA     CHAR_COLUMN
        32 004355   000033 771000                    ARL     27
        32 004356   000024 755000 0                  STA     CHAR_CLASS
        32 004357   000023 551040 0                  STBA    CHAR_COLUMN,'40'O

             15757    5                               CHAR_CLASS,
             15758    5                               ANSI_USERWORD_SCAN_TABLE,
             15759    5                               SUBSTR(LEX_SYMBOL.SYMBOL,
             15760    5                                      0,
             15761    5                                      LEX_SYMBOL.SIZE));
             15762    5                  IF CHAR_CLASS ~= %END_OF_LINE THEN

  15762 32 004360   004365 600000 32                 TZE     s:15767

PL6.E3A0      #001=Z8EL$LEX File=Z8EL.:Z8A6TSI                                   SAT 08/09/97 12:03 Page:195
             15763    5                    CALL Z8AE$ERROR (%E$USERWORD_ANSI_ERROR,

  15763 32 004361   000110 630400 33                 EPPR0   72
        32 004362   000011 631400 33                 EPPR1   9
        32 004363   000000 701000 xent               TSX1    Z8AE$ERROR
        32 004364   000000 011000                    NOP     0

             15764    5                                     LEX_SYMBOL.LINE,
             15765    5                                     LEX_SYMBOL.COLUMN);
             15766    5                END;

             15767    4              IF O1COM.LA_STK.COLUMN(O1COM.LA_PUT) < O1COM.AREA_B_COLUMN_START THEN

  15767 32 004365   000132 235000 xsym               LDA     O1COM+90
        32 004366   000003 735000                    ALS     3
        32 004367   000245 236005 xsym               LDQ     O1COM+165,AL
        32 004370   004403 604000 32                 TMI     s:15776
        32 004371   000121 116000 xsym               CMPQ    O1COM+81
        32 004372   004403 605000 32                 TPL     s:15776

             15768    5                DO;

             15769                       /*N* Free_Format -- IF NOT COMCOM.OB.FORMAT THEN */
             15770    5                    IF O1COM.PD_FLAG THEN

  15770 32 004373   000013 234000 xsym               SZN     O1COM+11
        32 004374   004400 605000 32                 TPL     s:15773

             15771    5                      O1COM.LA_STK.SYMBOL(O1COM.LA_PUT) = %PARA_DEF;

  15771 32 004375   000030 236007                    LDQ     24,DL
        32 004376   000242 756005 xsym               STQ     O1COM+162,AL
        32 004377   004424 710000 32                 TRA     s:15789

             15772    5                    ELSE
             15773    5                      O1COM.LA_STK.SYMBOL(O1COM.LA_PUT) = %NAME;

PL6.E3A0      #001=Z8EL$LEX File=Z8EL.:Z8A6TSI                                   SAT 08/09/97 12:03 Page:196
  15773 32 004400   000027 236007                    LDQ     23,DL
        32 004401   000242 756005 xsym               STQ     O1COM+162,AL

             15774    5                END;

  15774 32 004402   004424 710000 32                 TRA     s:15789

             15775    4              ELSE
             15776    4                IF (O1COM.LA_STK.ST$(O1COM.LA_PUT) ~= ADDR(NIL))

  15776 32 004403   000240 236005 xsym               LDQ     O1COM+160,AL
        32 004404   000000 116000 33                 CMPQ    0
        32 004405   004422 600000 32                 TZE     s:15784
        32 004406   000240 470405 xsym               LDP0    O1COM+160,AL
        32 004407   000000 220100                    LDX0    0,,PR0
        32 004410   000771 100003                    CMPX0   505,DU
        32 004411   004414 600000 32                 TZE     s:15776+9
        32 004412   000770 100003                    CMPX0   504,DU
        32 004413   004422 601000 32                 TNZ     s:15784
        32 004414   000011 236100                    LDQ     9,,PR0
        32 004415   000057 116000 xsym               CMPQ    O1COM+47
        32 004416   004422 601000 32                 TNZ     s:15784

             15777    4                AND ((O1COM.LA_STK.ST$(O1COM.LA_PUT) -> ST.ID = %PARA
             15778    4                         OR
             15779    4                     O1COM.LA_STK.ST$(O1COM.LA_PUT) -> ST.ID = %SECTION)
             15780    4                     AND O1COM.LA_STK.ST$(O1COM.LA_PUT) -> VARIABLE.PROC$ = O1COM.
             15780                              CURRENT_PROC$) THEN
             15781    4                  O1COM.LA_STK.SYMBOL(O1COM.LA_PUT) = %PARA_REF;

  15781 32 004417   000031 236007                    LDQ     25,DL
        32 004420   000242 756005 xsym               STQ     O1COM+162,AL
        32 004421   004424 710000 32                 TRA     s:15789

             15782    4                ELSE
             15783                       /*N* Free_Format -- IF NOT COMCOM.OB.FORMAT THEN */
             15784    4                    O1COM.LA_STK.SYMBOL(O1COM.LA_PUT) = %NAME;
PL6.E3A0      #001=Z8EL$LEX File=Z8EL.:Z8A6TSI                                   SAT 08/09/97 12:03 Page:197

  15784 32 004422   000027 236007                    LDQ     23,DL
        32 004423   000242 756005 xsym               STQ     O1COM+162,AL

             15785                     /*N* Free_Format --
             15786                       ELSE
             15787                         O1COM.LA_STK.SYMBOL(O1COM.LA_PUT) = %NAME_OR_PARA;
             15788                     */
             15789    4              IF O1COM.LA_STK.ST$ (O1COM.LA_PUT) ~= ADDR(NIL) THEN

  15789 32 004424   000132 235000 xsym               LDA     O1COM+90
        32 004425   000003 735000                    ALS     3
        32 004426   000240 236005 xsym               LDQ     O1COM+160,AL
        32 004427   000000 116000 33                 CMPQ    0
        32 004430   004461 600000 32                 TZE     s:15802

             15790    4                IF O1COM.LA_STK.ST$ (O1COM.LA_PUT) -> ST.ID = %SYM_CHAR THEN

  15790 32 004431   000240 470405 xsym               LDP0    O1COM+160,AL
        32 004432   000000 220100                    LDX0    0,,PR0
        32 004433   001001 100003                    CMPX0   513,DU
        32 004434   004461 601000 32                 TNZ     s:15802

             15791    5   CHECK_SYM_CHAR: DO;

  15791 32 004435                       CHECK_SYM_C* null
             15792    5                     PROC$$ = O1COM.CURRENT_PROC$;

  15792 32 004435   000057 236000 xsym               LDQ     O1COM+47
        32 004436   000027 756000 0                  STQ     PROC$$

             15793    6                     DO WHILE (O1COM.LA_STK.ST$ (O1COM.LA_PUT) -> VARIABLE.PROC$ ~=

  15793 32 004437   000011 116100                    CMPQ    9,,PR0
        32 004440   004453 600000 32                 TZE     s:15799

             15794    6                         PROC$$);
PL6.E3A0      #001=Z8EL$LEX File=Z8EL.:Z8A6TSI                                   SAT 08/09/97 12:03 Page:198
             15795    6                       PROC$$ = PROC$$ -> PROC_.FATHER;

  15795 32 004441   000027 470400 0                  LDP0    PROC$$
        32 004442   000011 236100                    LDQ     9,,PR0
        32 004443   000027 756000 0                  STQ     PROC$$

             15796    6                       IF PROC$$ = ADDR(NIL) THEN

  15796 32 004444   000000 116000 33                 CMPQ    0
        32 004445   004461 600000 32                 TZE     s:15802

             15797    6                         EXIT CHECK_SYM_CHAR;
             15798    6                     END; /* WHILE */

  15798 32 004446   000132 235000 xsym               LDA     O1COM+90
        32 004447   000003 735000                    ALS     3
        32 004450   000240 470405 xsym               LDP0    O1COM+160,AL
        32 004451   000011 116100                    CMPQ    9,,PR0
        32 004452   004441 601000 32                 TNZ     s:15795

             15799    5                     O1COM.LA_STK.B.ALL  (O1COM.LA_PUT) = TRUE;

  15799 32 004453   040000 236007                    LDQ     16384,DL
        32 004454   000237 256005 xsym               ORSQ    O1COM+159,AL

             15800    5                     O1COM.LA_STK.SYMBOL (O1COM.LA_PUT) = %ALPHA_LITERAL;

  15800 32 004455   000132 235000 xsym               LDA     O1COM+90
        32 004456   000003 735000                    ALS     3
        32 004457   000003 236007                    LDQ     3,DL
        32 004460   000242 756005 xsym               STQ     O1COM+162,AL

             15801    5                   END; /* CHECK_SYM_CHAR */

             15802    4              SAVED_CONT_FLAG = FALSE;

  15802 32 004461   000022 450000 0                  STZ     SAVED_CONT_FLAG
PL6.E3A0      #001=Z8EL$LEX File=Z8EL.:Z8A6TSI                                   SAT 08/09/97 12:03 Page:199

             15803    4             END;

  15803 32 004462   004473 710000 32                 TRA     s:15818

      798    15805
      799    15806
      800    15807
      801    15808    3     CASE(ELSE);

      802    15809
      803    15810    3       CALL Z8AE$ERROR(%E$SCANNER_FAILURE,

  15810 32 004463   000114 630400 33                 EPPR0   76
        32 004464   000011 631400 33                 EPPR1   9
        32 004465   000000 701000 xent               TSX1    Z8AE$ERROR
        32 004466   000000 011000                    NOP     0

      804    15811    3                       LEX_SYMBOL.LINE,
      805    15812    3                       LEX_SYMBOL.COLUMN);
      806    15813    3       O1COM.LA_STK.SYMBOL(O1COM.LA_PUT) = %ILLEGAL_SYMBOL;

  15813 32 004467   000132 235000 xsym               LDA     O1COM+90
        32 004470   000003 735000                    ALS     3
        32 004471   000033 236007                    LDQ     27,DL
        32 004472   000242 756005 xsym               STQ     O1COM+162,AL

      807    15814
      808    15815    3   END;  /* DO CASE ON LEX_SYMBOL.TYPE */

      809    15816
      810    15817
      811    15818    2   END PROCESS_SYMBOL;

  15818 32 004473   000167 221200 0                  LDX1  ! CONTINUATION_ISN+1
        32 004474   000001 702211                    TSX2  ! 1,X1

PL6.E3A0      #001=Z8EL$LEX File=Z8EL.:Z8A6TSI                                   SAT 08/09/97 12:03 Page:200
      812    15819        %EJECT ;
PL6.E3A0      #001=Z8EL$LEX File=Z8EL.:Z8A6TSI                                   SAT 08/09/97 12:03 Page:201
      813    15820    1   CONSOLIDATE_PICTURE_STRING : PROC;

  15820 32 004475   000170 741200 0     CONSOLIDATE* STX1  ! CONTINUATION_ISN+2

      814    15821
      815    15822    2     DCL INSERT_SIZE SBIN WORD;
      816    15823
      817    15824    2     PICTURE_SYMBOL             = LEX_SYMBOL;

  15824 32 004476   000000 100400                    MLR     fill='000'O
        32 004477   000000 000550 2                  ADSC9   LEX_SYMBOL               cn=0,n=360
        32 004500   000030 000550 0                  ADSC9   PICTURE_SYMBOL           cn=0,n=360

      818    15825    2     PICTURE_SYMBOL.TYPE        = %PICTURE_STRING;

  15825 32 004501   000032 235007                    LDA     26,DL
        32 004502   000031 755000 0                  STA     PICTURE_SYMBOL+1

      819    15826    2     PICTURE_SYMBOL.END_COLUMN  = LEX_SYMBOL.COLUMN;

  15826 32 004503   000005 236000 2                  LDQ     LEX_SYMBOL+5
        32 004504   000037 756000 0                  STQ     PICTURE_SYMBOL+7

      820    15827    2     PICTURE_SYMBOL.END_LINE    = LEX_SYMBOL.LINE;

  15827 32 004505   000004 235000 2                  LDA     LEX_SYMBOL+4
        32 004506   000036 755000 0                  STA     PICTURE_SYMBOL+6

      821    15828    2     PICTURE_SYMBOL.SIZE        = 0;

  15828 32 004507   000040 450000 0                  STZ     PICTURE_SYMBOL+8

      822    15829    2     PARSING_PICTURE = TRUE;

  15829 32 004510   400000 236003                    LDQ     -131072,DU
        32 004511   000162 756000 0                  STQ     PARSING_PICTURE

PL6.E3A0      #001=Z8EL$LEX File=Z8EL.:Z8A6TSI                                   SAT 08/09/97 12:03 Page:202
      823    15830
      824    15831    3     DO WHILE (PICTURE_SYMBOL.END_COLUMN = LEX_SYMBOL.COLUMN)

  15831 32 004512   004543 710000 32                 TRA     s:15852

      825    15832    3               AND (PICTURE_SYMBOL.END_LINE = LEX_SYMBOL.LINE)
      826    15833    3               AND (LEX_SYMBOL.TYPE ~= %PERIOD);
      827    15834
      828    15835    3       INSERT_SIZE = MINIMUM(%MAX_SYMBOL_SIZE - PICTURE_SYMBOL.SIZE,

  15835 32 004513   000502 236007                    LDQ     322,DL
        32 004514   000040 136000 0                  SBLQ    PICTURE_SYMBOL+8
        32 004515   000010 116000 2                  CMPQ    LEX_SYMBOL+8
        32 004516   004520 604400 32                 TMOZ    s:15835+5
        32 004517   000010 236000 2                  LDQ     LEX_SYMBOL+8
        32 004520   000171 756000 0                  STQ     INSERT_SIZE

      829    15836    3                             LEX_SYMBOL.SIZE);
      830    15837
      831    15838    3       PICTURE_SYMBOL.SIZE = PICTURE_SYMBOL.SIZE + INSERT_SIZE;

  15838 32 004521   000040 036000 0                  ADLQ    PICTURE_SYMBOL+8
        32 004522   000040 756000 0                  STQ     PICTURE_SYMBOL+8

      832    15839
      833    15840    3       CALL INSERT (PICTURE_SYMBOL.SYMBOL,

  15840 32 004523   000171 136000 0                  SBLQ    INSERT_SIZE
        32 004524   000171 720000 0                  LXL0    INSERT_SIZE
        32 004525   040046 100400                    MLR     fill='040'O
        32 004526   000011 000504 2                  ADSC9   LEX_SYMBOL+9             cn=0,n=324
        32 004527   000041 000010 0                  ADSC9   PICTURE_SYMBOL+9,Q       cn=0,n=*X0

      834    15841    3                    PICTURE_SYMBOL.SIZE - INSERT_SIZE,
      835    15842    3                    INSERT_SIZE,
      836    15843    3                    LEX_SYMBOL.SYMBOL);
      837    15844
PL6.E3A0      #001=Z8EL$LEX File=Z8EL.:Z8A6TSI                                   SAT 08/09/97 12:03 Page:203
      838    15845    3       PICTURE_SYMBOL.END_COLUMN = LEX_SYMBOL.END_COLUMN;

  15845 32 004530   000007 235000 2                  LDA     LEX_SYMBOL+7
        32 004531   000037 755000 0                  STA     PICTURE_SYMBOL+7

      839    15846    3       PICTURE_SYMBOL.END_LINE   = LEX_SYMBOL.END_LINE;

  15846 32 004532   000006 236000 2                  LDQ     LEX_SYMBOL+6
        32 004533   000036 756000 0                  STQ     PICTURE_SYMBOL+6

      840    15847    3       CALL REPLACED_TOKEN;

  15847 32 004534   000014 701000 32                 TSX1    REPLACED_TOKEN
        32 004535   000000 011000                    NOP     0

      841    15848
      842    15849    3       IF LEX_SYMBOL.B.CONTINUED_TOKEN THEN

  15849 32 004536   000002 236000 2                  LDQ     LEX_SYMBOL+2
        32 004537   040000 316003                    CANQ    16384,DU
        32 004540   004543 600000 32                 TZE     s:15852

      843    15850    3           PICTURE_SYMBOL.B.CONTINUED_TOKEN = TRUE;

  15850 32 004541   040000 236003                    LDQ     16384,DU
        32 004542   000032 256000 0                  ORSQ    PICTURE_SYMBOL+2

      844    15851
      845    15852    3     END;  /* DO WHILE */

  15852 32 004543   000037 236000 0                  LDQ     PICTURE_SYMBOL+7
        32 004544   000005 116000 2                  CMPQ    LEX_SYMBOL+5
        32 004545   004554 601000 32                 TNZ     s:15854
        32 004546   000036 236000 0                  LDQ     PICTURE_SYMBOL+6
        32 004547   000004 116000 2                  CMPQ    LEX_SYMBOL+4
        32 004550   004554 601000 32                 TNZ     s:15854
        32 004551   000001 235000 2                  LDA     LEX_SYMBOL+1
PL6.E3A0      #001=Z8EL$LEX File=Z8EL.:Z8A6TSI                                   SAT 08/09/97 12:03 Page:204
        32 004552   000014 115007                    CMPA    12,DL
        32 004553   004513 601000 32                 TNZ     s:15835

      846    15853
      847    15854    2     IF SAVED_CONT_FLAG THEN

  15854 32 004554   000022 234000 0                  SZN     SAVED_CONT_FLAG
        32 004555   004560 605000 32                 TPL     s:15857

      848    15855    2       PICTURE_SYMBOL.B.CONTINUED_TOKEN = TRUE;

  15855 32 004556   040000 236003                    LDQ     16384,DU
        32 004557   000032 256000 0                  ORSQ    PICTURE_SYMBOL+2

      849    15856
      850    15857    2     IF PICTURE_SYMBOL.SIZE = 0 THEN

  15857 32 004560   000040 235000 0                  LDA     PICTURE_SYMBOL+8
        32 004561   004567 601000 32                 TNZ     s:15863

      851    15858    3       DO;

      852    15859    3         PICTURE_SYMBOL      = LEX_SYMBOL;

  15859 32 004562   000000 100400                    MLR     fill='000'O
        32 004563   000000 000550 2                  ADSC9   LEX_SYMBOL               cn=0,n=360
        32 004564   000030 000550 0                  ADSC9   PICTURE_SYMBOL           cn=0,n=360

      853    15860    3         PICTURE_SYMBOL.TYPE = %ILLEGAL_SYMBOL;

  15860 32 004565   000033 235007                    LDA     27,DL
        32 004566   000031 755000 0                  STA     PICTURE_SYMBOL+1

      854    15861    3       END;

      855    15862
      856    15863    2     LEX_STATE = %LS_NORMAL;
PL6.E3A0      #001=Z8EL$LEX File=Z8EL.:Z8A6TSI                                   SAT 08/09/97 12:03 Page:205

  15863 32 004567   000000 450000 30                 STZ     LEX_STATE

      857    15864    2     PARSING_PICTURE = FALSE;

  15864 32 004570   000162 450000 0                  STZ     PARSING_PICTURE

      858    15865          %INITIALIZE_LA_STK_ITEM;
             15866    3     DO;

             15867            %INIT_LX_TERMINAL ( @POINTER = "ADDR(O1COM.LA_STK(O1COM.LA_PUT))",
             15868                                @LA_ITEM = TRUE,
             15869                                @SYMBOL = LEX_SYMBOL.TYPE,
             15870                                @LINE = LEX_SYMBOL.LINE,
             15871                                @COLUMN = LEX_SYMBOL.COLUMN);
             15872    4     DO;

             15873    4       @POINTER -> LX_TERMINAL.ID     = %LX_TERMINAL;

  15873 32 004571   000132 235000 xsym               LDA     O1COM+90
        32 004572   000003 735000                    ALS     3
        32 004573   000000 220003                    LDX0    0,DU
        32 004574   000237 740005 xsym               STX0    O1COM+159,AL

             15874    4       @POINTER -> LX_TERMINAL.B      = '0'B;

  15874 32 004575   000132 235000 xsym               LDA     O1COM+90
        32 004576   000003 735000                    ALS     3
        32 004577   000000 221003                    LDX1    0,DU
        32 004600   000237 441005 xsym               SXL1    O1COM+159,AL

             15875            %IF (TEXTCHAR(@BERROR) ~= '');
             15877            %ENDIF;
             15878    4       @POINTER -> LX_TERMINAL.TYPE   = @TYPE %;

  15878 32 004601   000132 235000 xsym               LDA     O1COM+90
        32 004602   000003 735000                    ALS     3
PL6.E3A0      #001=Z8EL$LEX File=Z8EL.:Z8A6TSI                                   SAT 08/09/97 12:03 Page:206
        32 004603   000015 236007                    LDQ     13,DL
        32 004604   000243 756005 xsym               STQ     O1COM+163,AL

             15879            %IF (TEXTCHAR(@LA_ITEM) = '');
             15881            %ENDIF;
             15882    4       @POINTER -> LX_TERMINAL.ST$    = @ST$ ;

  15882 32 004605   000132 235000 xsym               LDA     O1COM+90
        32 004606   000003 735000                    ALS     3
        32 004607   000000 236000 33                 LDQ     0
        32 004610   000240 756005 xsym               STQ     O1COM+160,AL

             15883    4       @POINTER -> LX_TERMINAL.SYMBOL = @SYMBOL;

  15883 32 004611   000132 235000 xsym               LDA     O1COM+90
        32 004612   000003 735000                    ALS     3
        32 004613   000001 236000 2                  LDQ     LEX_SYMBOL+1
        32 004614   000242 756005 xsym               STQ     O1COM+162,AL

             15884    4       @POINTER -> LX_TERMINAL.DNT$   = @DNT$;

  15884 32 004615   000132 235000 xsym               LDA     O1COM+90
        32 004616   000003 735000                    ALS     3
        32 004617   000000 236000 33                 LDQ     0
        32 004620   000241 756005 xsym               STQ     O1COM+161,AL

             15885    4       @POINTER -> LX_TERMINAL.LINE   = @LINE;

  15885 32 004621   000132 235000 xsym               LDA     O1COM+90
        32 004622   000003 735000                    ALS     3
        32 004623   000004 236000 2                  LDQ     LEX_SYMBOL+4
        32 004624   000244 756005 xsym               STQ     O1COM+164,AL

             15886    4       @POINTER -> LX_TERMINAL.COLUMN = @COLUMN;

  15886 32 004625   000132 235000 xsym               LDA     O1COM+90
        32 004626   000003 735000                    ALS     3
PL6.E3A0      #001=Z8EL$LEX File=Z8EL.:Z8A6TSI                                   SAT 08/09/97 12:03 Page:207
        32 004627   000005 236000 2                  LDQ     LEX_SYMBOL+5
        32 004630   000245 756005 xsym               STQ     O1COM+165,AL

             15887    4     END;

             15889    3     END;

      859    15891    2     CALL PROCESS_SYMBOL;

  15891 32 004631   001632 701000 32                 TSX1    PROCESS_SYMBOL
        32 004632   000000 011000                    NOP     0

      860    15892    2     SAVED_SYMBOL          = O1COM.LA_STK(O1COM.LA_PUT);

  15892 32 004633   000132 235000 xsym               LDA     O1COM+90
        32 004634   000005 735000                    ALS     5
        32 004635   000000 100405                    MLR     fill='000'O
        32 004636   000237 000040 xsym               ADSC9   O1COM+159,A              cn=0,n=32
        32 004637   000011 000040 0                  ADSC9   SAVED_SYMBOL             cn=0,n=32

      861    15893                                                                 /*#29924*/
      862    15894    2     IF LEX_STATE ~= %LS_PICK_UP_SAVED_SYMBOL  THEN

  15894 32 004640   000000 236000 30                 LDQ     LEX_STATE
        32 004641   000003 116007                    CMPQ    3,DL
        32 004642   004644 600000 32                 TZE     s:15896

      863    15895    2       SAVED_LEX_STATE = LEX_STATE;

  15895 32 004643   000021 756000 0                  STQ     SAVED_LEX_STATE

      864    15896    2     LEX_STATE             = %LS_PICK_UP_SAVED_SYMBOL;

  15896 32 004644   000003 235007                    LDA     3,DL
        32 004645   000000 755000 30                 STA     LEX_STATE

      865    15897    2     LEX_SYMBOL            = PICTURE_SYMBOL;
PL6.E3A0      #001=Z8EL$LEX File=Z8EL.:Z8A6TSI                                   SAT 08/09/97 12:03 Page:208

  15897 32 004646   000000 100400                    MLR     fill='000'O
        32 004647   000030 000550 0                  ADSC9   PICTURE_SYMBOL           cn=0,n=360
        32 004650   000000 000550 2                  ADSC9   LEX_SYMBOL               cn=0,n=360

      866    15898          %INITIALIZE_LA_STK_ITEM;
             15899    3     DO;

             15900            %INIT_LX_TERMINAL ( @POINTER = "ADDR(O1COM.LA_STK(O1COM.LA_PUT))",
             15901                                @LA_ITEM = TRUE,
             15902                                @SYMBOL = LEX_SYMBOL.TYPE,
             15903                                @LINE = LEX_SYMBOL.LINE,
             15904                                @COLUMN = LEX_SYMBOL.COLUMN);
             15905    4     DO;

             15906    4       @POINTER -> LX_TERMINAL.ID     = %LX_TERMINAL;

  15906 32 004651   000132 236000 xsym               LDQ     O1COM+90
        32 004652   000003 736000                    QLS     3
        32 004653   000000 220003                    LDX0    0,DU
        32 004654   000237 740006 xsym               STX0    O1COM+159,QL

             15907    4       @POINTER -> LX_TERMINAL.B      = '0'B;

  15907 32 004655   000132 236000 xsym               LDQ     O1COM+90
        32 004656   000003 736000                    QLS     3
        32 004657   000000 221003                    LDX1    0,DU
        32 004660   000237 441006 xsym               SXL1    O1COM+159,QL

             15908            %IF (TEXTCHAR(@BERROR) ~= '');
             15910            %ENDIF;
             15911    4       @POINTER -> LX_TERMINAL.TYPE   = @TYPE %;

  15911 32 004661   000132 236000 xsym               LDQ     O1COM+90
        32 004662   000003 736000                    QLS     3
        32 004663   000015 235007                    LDA     13,DL
        32 004664   000243 755006 xsym               STA     O1COM+163,QL
PL6.E3A0      #001=Z8EL$LEX File=Z8EL.:Z8A6TSI                                   SAT 08/09/97 12:03 Page:209

             15912            %IF (TEXTCHAR(@LA_ITEM) = '');
             15914            %ENDIF;
             15915    4       @POINTER -> LX_TERMINAL.ST$    = @ST$ ;

  15915 32 004665   000132 236000 xsym               LDQ     O1COM+90
        32 004666   000003 736000                    QLS     3
        32 004667   000000 622006                    EAX2    0,QL
        32 004670   000000 236000 33                 LDQ     0
        32 004671   000240 756012 xsym               STQ     O1COM+160,X2

             15916    4       @POINTER -> LX_TERMINAL.SYMBOL = @SYMBOL;

  15916 32 004672   000132 235000 xsym               LDA     O1COM+90
        32 004673   000003 735000                    ALS     3
        32 004674   000001 236000 2                  LDQ     LEX_SYMBOL+1
        32 004675   000242 756005 xsym               STQ     O1COM+162,AL

             15917    4       @POINTER -> LX_TERMINAL.DNT$   = @DNT$;

  15917 32 004676   000132 235000 xsym               LDA     O1COM+90
        32 004677   000003 735000                    ALS     3
        32 004700   000000 236000 33                 LDQ     0
        32 004701   000241 756005 xsym               STQ     O1COM+161,AL

             15918    4       @POINTER -> LX_TERMINAL.LINE   = @LINE;

  15918 32 004702   000132 235000 xsym               LDA     O1COM+90
        32 004703   000003 735000                    ALS     3
        32 004704   000004 236000 2                  LDQ     LEX_SYMBOL+4
        32 004705   000244 756005 xsym               STQ     O1COM+164,AL

             15919    4       @POINTER -> LX_TERMINAL.COLUMN = @COLUMN;

  15919 32 004706   000132 235000 xsym               LDA     O1COM+90
        32 004707   000003 735000                    ALS     3
        32 004710   000005 236000 2                  LDQ     LEX_SYMBOL+5
PL6.E3A0      #001=Z8EL$LEX File=Z8EL.:Z8A6TSI                                   SAT 08/09/97 12:03 Page:210
        32 004711   000245 756005 xsym               STQ     O1COM+165,AL

             15920    4     END;

             15922    3     END;

      867    15924    2     O1COM.LA_STK.B.HIGH_LEV(O1COM.LA_PUT) = LEX_SYMBOL.B.CONTINUED_TOKEN;

  15924 32 004712   000132 235000 xsym               LDA     O1COM+90
        32 004713   000003 735000                    ALS     3
        32 004714   000002 236000 2                  LDQ     LEX_SYMBOL+2
        32 004715   000025 772000                    QRL     21
        32 004716   000237 676005 xsym               ERQ     O1COM+159,AL
        32 004717   004000 376007                    ANQ     2048,DL
        32 004720   000237 656005 xsym               ERSQ    O1COM+159,AL

      868    15925    2     CALL Z8AH$SEARCH_;

  15925 32 004721   000003 631400 33                 EPPR1   3
        32 004722   000000 701000 xent               TSX1    Z8AH$SEARCH_
        32 004723   000000 011000                    NOP     0

      869    15926    2     O1COM.LA_STK.DNT$(O1COM.LA_PUT)   = DNT$;

  15926 32 004724   000132 235000 xsym               LDA     O1COM+90
        32 004725   000003 735000                    ALS     3
        32 004726   000000 236000 17                 LDQ     DNT$
        32 004727   000241 756005 xsym               STQ     O1COM+161,AL

      870    15927
      871    15928
      872    15929    2   END CONSOLIDATE_PICTURE_STRING;

  15929 32 004730   000170 221200 0                  LDX1  ! CONTINUATION_ISN+2
        32 004731   000001 702211                    TSX2  ! 1,X1

      873    15930        %EJECT;
PL6.E3A0      #001=Z8EL$LEX File=Z8EL.:Z8A6TSI                                   SAT 08/09/97 12:03 Page:211
      874    15931        /* Main body of Z8EL$LEX */
      875    15932
      876    15933
      877    15934    2     DO CASE(LEX_STATE);

  15934 32 004732   000000 235000 30                 LDA     LEX_STATE
        32 004733   000005 115007                    CMPA    5,DL
        32 004734   004736 602005 32                 TNC     s:15934+4,AL
        32 004735   005217 710000 32                 TRA     s:16101
        32 004736   004743 710000 32                 TRA     s:15938
        32 004737   004743 710000 32                 TRA     s:15938
        32 004740   005027 710000 32                 TRA     s:15988
        32 004741   005114 710000 32                 TRA     s:16039
        32 004742   005124 710000 32                 TRA     s:16044

      878    15935
      879    15936    2       CASE(%LS_NORMAL, %LS_PERIOD_BEFORE_COMMENT_ENTRY);

      880    15937
      881    15938    2         CALL REPLACED_TOKEN;

  15938 32 004743   000014 701000 32                 TSX1    REPLACED_TOKEN
        32 004744   000000 011000                    NOP     0

      882    15939              %CHECK_DELIM_AND_SIZE;
             15940    3     DO;

             15941          /* Check symbol for length */
             15942    3     IF LEX_SYMBOL.SIZE > %MAX_SYMBOL_SIZE THEN

  15942 32 004745   000010 235000 2                  LDA     LEX_SYMBOL+8
        32 004746   000502 115007                    CMPA    322,DL
        32 004747   004756 604400 32                 TMOZ    s:15950

             15943    4       DO;

             15944    4         CALL Z8AE$ERROR(%E$SYMBOL_TOO_LARGE,
PL6.E3A0      #001=Z8EL$LEX File=Z8EL.:Z8A6TSI                                   SAT 08/09/97 12:03 Page:212

  15944 32 004750   000120 630400 33                 EPPR0   80
        32 004751   000011 631400 33                 EPPR1   9
        32 004752   000000 701000 xent               TSX1    Z8AE$ERROR
        32 004753   000000 011000                    NOP     0

             15945    4                         LEX_SYMBOL.LINE,
             15946    4                         LEX_SYMBOL.COLUMN);
             15947    4         LEX_SYMBOL.SIZE = %MAX_SYMBOL_SIZE;

  15947 32 004754   000502 235007                    LDA     322,DL
        32 004755   000010 755000 2                  STA     LEX_SYMBOL+8

             15948    4       END;

             15949          /* Check symbol for delimiter error */
             15950    3     IF LEX_SYMBOL.B.DELIM_ERROR THEN

  15950 32 004756   000002 234000 2                  SZN     LEX_SYMBOL+2
        32 004757   004764 605000 32                 TPL     s:15966

             15951    4       DO;

             15952    4         CALL Z8AE$ERROR (%E$MISSING_DELIMITER,

  15952 32 004760   000124 630400 33                 EPPR0   84
        32 004761   000011 631400 33                 EPPR1   9
        32 004762   000000 701000 xent               TSX1    Z8AE$ERROR
        32 004763   000000 011000                    NOP     0

             15953    4                          LEX_SYMBOL.LINE,
             15954    4                          LEX_SYMBOL.COLUMN);
             15955    4       END;

             15956    3     END;

      883    15958              %INITIALIZE_LA_STK_ITEM;
PL6.E3A0      #001=Z8EL$LEX File=Z8EL.:Z8A6TSI                                   SAT 08/09/97 12:03 Page:213
             15959    3     DO;

             15960            %INIT_LX_TERMINAL ( @POINTER = "ADDR(O1COM.LA_STK(O1COM.LA_PUT))",
             15961                                @LA_ITEM = TRUE,
             15962                                @SYMBOL = LEX_SYMBOL.TYPE,
             15963                                @LINE = LEX_SYMBOL.LINE,
             15964                                @COLUMN = LEX_SYMBOL.COLUMN);
             15965    4     DO;

             15966    4       @POINTER -> LX_TERMINAL.ID     = %LX_TERMINAL;

  15966 32 004764   000132 235000 xsym               LDA     O1COM+90
        32 004765   000003 735000                    ALS     3
        32 004766   000000 220003                    LDX0    0,DU
        32 004767   000237 740005 xsym               STX0    O1COM+159,AL

             15967    4       @POINTER -> LX_TERMINAL.B      = '0'B;

  15967 32 004770   000132 235000 xsym               LDA     O1COM+90
        32 004771   000003 735000                    ALS     3
        32 004772   000000 221003                    LDX1    0,DU
        32 004773   000237 441005 xsym               SXL1    O1COM+159,AL

             15968            %IF (TEXTCHAR(@BERROR) ~= '');
             15970            %ENDIF;
             15971    4       @POINTER -> LX_TERMINAL.TYPE   = @TYPE %;

  15971 32 004774   000132 235000 xsym               LDA     O1COM+90
        32 004775   000003 735000                    ALS     3
        32 004776   000015 236007                    LDQ     13,DL
        32 004777   000243 756005 xsym               STQ     O1COM+163,AL

             15972            %IF (TEXTCHAR(@LA_ITEM) = '');
             15974            %ENDIF;
             15975    4       @POINTER -> LX_TERMINAL.ST$    = @ST$ ;

  15975 32 005000   000132 235000 xsym               LDA     O1COM+90
PL6.E3A0      #001=Z8EL$LEX File=Z8EL.:Z8A6TSI                                   SAT 08/09/97 12:03 Page:214
        32 005001   000003 735000                    ALS     3
        32 005002   000000 236000 33                 LDQ     0
        32 005003   000240 756005 xsym               STQ     O1COM+160,AL

             15976    4       @POINTER -> LX_TERMINAL.SYMBOL = @SYMBOL;

  15976 32 005004   000132 235000 xsym               LDA     O1COM+90
        32 005005   000003 735000                    ALS     3
        32 005006   000001 236000 2                  LDQ     LEX_SYMBOL+1
        32 005007   000242 756005 xsym               STQ     O1COM+162,AL

             15977    4       @POINTER -> LX_TERMINAL.DNT$   = @DNT$;

  15977 32 005010   000132 235000 xsym               LDA     O1COM+90
        32 005011   000003 735000                    ALS     3
        32 005012   000000 236000 33                 LDQ     0
        32 005013   000241 756005 xsym               STQ     O1COM+161,AL

             15978    4       @POINTER -> LX_TERMINAL.LINE   = @LINE;

  15978 32 005014   000132 235000 xsym               LDA     O1COM+90
        32 005015   000003 735000                    ALS     3
        32 005016   000004 236000 2                  LDQ     LEX_SYMBOL+4
        32 005017   000244 756005 xsym               STQ     O1COM+164,AL

             15979    4       @POINTER -> LX_TERMINAL.COLUMN = @COLUMN;

  15979 32 005020   000132 235000 xsym               LDA     O1COM+90
        32 005021   000003 735000                    ALS     3
        32 005022   000005 236000 2                  LDQ     LEX_SYMBOL+5
        32 005023   000245 756005 xsym               STQ     O1COM+165,AL

             15980    4     END;

             15982    3     END;

      884    15984    2         CALL PROCESS_SYMBOL;
PL6.E3A0      #001=Z8EL$LEX File=Z8EL.:Z8A6TSI                                   SAT 08/09/97 12:03 Page:215

  15984 32 005024   001632 701000 32                 TSX1    PROCESS_SYMBOL
        32 005025   000000 011000                    NOP     0
        32 005026   005217 710000 32                 TRA     s:16101

      885    15985
      886    15986    2       CASE(%LS_COMMENT_ENTRY);

      887    15987
      888    15988    2         CALL SCAN_COMMENT_ENTRY;

  15988 32 005027   001454 701000 32                 TSX1    SCAN_COMMENT_ENTRY
        32 005030   000000 011000                    NOP     0

      889    15989    2         LEX_STATE = %LS_NORMAL;

  15989 32 005031   000000 450000 30                 STZ     LEX_STATE

      890    15990              %CHECK_DELIM_AND_SIZE;
             15991    3     DO;

             15992          /* Check symbol for length */
             15993    3     IF LEX_SYMBOL.SIZE > %MAX_SYMBOL_SIZE THEN

  15993 32 005032   000010 235000 2                  LDA     LEX_SYMBOL+8
        32 005033   000502 115007                    CMPA    322,DL
        32 005034   005043 604400 32                 TMOZ    s:16001

             15994    4       DO;

             15995    4         CALL Z8AE$ERROR(%E$SYMBOL_TOO_LARGE,

  15995 32 005035   000120 630400 33                 EPPR0   80
        32 005036   000011 631400 33                 EPPR1   9
        32 005037   000000 701000 xent               TSX1    Z8AE$ERROR
        32 005040   000000 011000                    NOP     0

PL6.E3A0      #001=Z8EL$LEX File=Z8EL.:Z8A6TSI                                   SAT 08/09/97 12:03 Page:216
             15996    4                         LEX_SYMBOL.LINE,
             15997    4                         LEX_SYMBOL.COLUMN);
             15998    4         LEX_SYMBOL.SIZE = %MAX_SYMBOL_SIZE;

  15998 32 005041   000502 235007                    LDA     322,DL
        32 005042   000010 755000 2                  STA     LEX_SYMBOL+8

             15999    4       END;

             16000          /* Check symbol for delimiter error */
             16001    3     IF LEX_SYMBOL.B.DELIM_ERROR THEN

  16001 32 005043   000002 234000 2                  SZN     LEX_SYMBOL+2
        32 005044   005051 605000 32                 TPL     s:16017

             16002    4       DO;

             16003    4         CALL Z8AE$ERROR (%E$MISSING_DELIMITER,

  16003 32 005045   000124 630400 33                 EPPR0   84
        32 005046   000011 631400 33                 EPPR1   9
        32 005047   000000 701000 xent               TSX1    Z8AE$ERROR
        32 005050   000000 011000                    NOP     0

             16004    4                          LEX_SYMBOL.LINE,
             16005    4                          LEX_SYMBOL.COLUMN);
             16006    4       END;

             16007    3     END;

      891    16009              %INITIALIZE_LA_STK_ITEM;
             16010    3     DO;

             16011            %INIT_LX_TERMINAL ( @POINTER = "ADDR(O1COM.LA_STK(O1COM.LA_PUT))",
             16012                                @LA_ITEM = TRUE,
             16013                                @SYMBOL = LEX_SYMBOL.TYPE,
             16014                                @LINE = LEX_SYMBOL.LINE,
PL6.E3A0      #001=Z8EL$LEX File=Z8EL.:Z8A6TSI                                   SAT 08/09/97 12:03 Page:217
             16015                                @COLUMN = LEX_SYMBOL.COLUMN);
             16016    4     DO;

             16017    4       @POINTER -> LX_TERMINAL.ID     = %LX_TERMINAL;

  16017 32 005051   000132 235000 xsym               LDA     O1COM+90
        32 005052   000003 735000                    ALS     3
        32 005053   000000 220003                    LDX0    0,DU
        32 005054   000237 740005 xsym               STX0    O1COM+159,AL

             16018    4       @POINTER -> LX_TERMINAL.B      = '0'B;

  16018 32 005055   000132 235000 xsym               LDA     O1COM+90
        32 005056   000003 735000                    ALS     3
        32 005057   000000 221003                    LDX1    0,DU
        32 005060   000237 441005 xsym               SXL1    O1COM+159,AL

             16019            %IF (TEXTCHAR(@BERROR) ~= '');
             16021            %ENDIF;
             16022    4       @POINTER -> LX_TERMINAL.TYPE   = @TYPE %;

  16022 32 005061   000132 235000 xsym               LDA     O1COM+90
        32 005062   000003 735000                    ALS     3
        32 005063   000015 236007                    LDQ     13,DL
        32 005064   000243 756005 xsym               STQ     O1COM+163,AL

             16023            %IF (TEXTCHAR(@LA_ITEM) = '');
             16025            %ENDIF;
             16026    4       @POINTER -> LX_TERMINAL.ST$    = @ST$ ;

  16026 32 005065   000132 235000 xsym               LDA     O1COM+90
        32 005066   000003 735000                    ALS     3
        32 005067   000000 236000 33                 LDQ     0
        32 005070   000240 756005 xsym               STQ     O1COM+160,AL

             16027    4       @POINTER -> LX_TERMINAL.SYMBOL = @SYMBOL;

PL6.E3A0      #001=Z8EL$LEX File=Z8EL.:Z8A6TSI                                   SAT 08/09/97 12:03 Page:218
  16027 32 005071   000132 235000 xsym               LDA     O1COM+90
        32 005072   000003 735000                    ALS     3
        32 005073   000001 236000 2                  LDQ     LEX_SYMBOL+1
        32 005074   000242 756005 xsym               STQ     O1COM+162,AL

             16028    4       @POINTER -> LX_TERMINAL.DNT$   = @DNT$;

  16028 32 005075   000132 235000 xsym               LDA     O1COM+90
        32 005076   000003 735000                    ALS     3
        32 005077   000000 236000 33                 LDQ     0
        32 005100   000241 756005 xsym               STQ     O1COM+161,AL

             16029    4       @POINTER -> LX_TERMINAL.LINE   = @LINE;

  16029 32 005101   000132 235000 xsym               LDA     O1COM+90
        32 005102   000003 735000                    ALS     3
        32 005103   000004 236000 2                  LDQ     LEX_SYMBOL+4
        32 005104   000244 756005 xsym               STQ     O1COM+164,AL

             16030    4       @POINTER -> LX_TERMINAL.COLUMN = @COLUMN;

  16030 32 005105   000132 235000 xsym               LDA     O1COM+90
        32 005106   000003 735000                    ALS     3
        32 005107   000005 236000 2                  LDQ     LEX_SYMBOL+5
        32 005110   000245 756005 xsym               STQ     O1COM+165,AL

             16031    4     END;

             16033    3     END;

      892    16035    2         CALL PROCESS_SYMBOL;

  16035 32 005111   001632 701000 32                 TSX1    PROCESS_SYMBOL
        32 005112   000000 011000                    NOP     0
        32 005113   005217 710000 32                 TRA     s:16101

      893    16036
PL6.E3A0      #001=Z8EL$LEX File=Z8EL.:Z8A6TSI                                   SAT 08/09/97 12:03 Page:219
      894    16037    2       CASE(%LS_PICK_UP_SAVED_SYMBOL);

      895    16038
      896    16039    2         O1COM.LA_STK_FIELDS.ALL_BUT_LINK(O1COM.LA_PUT) = SAVED_SYMBOL.
             16039                  ALL_FIELDS_BUT_LINK;

  16039 32 005114   000132 236000 xsym               LDQ     O1COM+90
        32 005115   000005 736000                    QLS     5
        32 005116   000006 100400                    MLR     fill='000'O
        32 005117   000011 000034 0                  ADSC9   SAVED_SYMBOL             cn=0,n=28
        32 005120   000237 000034 xsym               ADSC9   O1COM+159,Q              cn=0,n=28

      897    16040    2         LEX_STATE = SAVED_LEX_STATE;

  16040 32 005121   000021 236000 0                  LDQ     SAVED_LEX_STATE
        32 005122   000000 756000 30                 STQ     LEX_STATE
        32 005123   005217 710000 32                 TRA     s:16101

      898    16041
      899    16042    2       CASE(%LS_PICTURE_OR_IS);

      900    16043
      901    16044    2         CALL REPLACED_TOKEN;

  16044 32 005124   000014 701000 32                 TSX1    REPLACED_TOKEN
        32 005125   000000 011000                    NOP     0

      902    16045    2         IF LEX_SYMBOL.SIZE = 2

  16045 32 005126   000010 235000 2                  LDA     LEX_SYMBOL+8
        32 005127   000002 115007                    CMPA    2,DL
        32 005130   005215 601000 32                 TNZ     s:16096
        32 005131   000011 220000 2                  LDX0    LEX_SYMBOL+9
        32 005132   000025 100000 31                 CMPX0   21
        32 005133   005215 601000 32                 TNZ     s:16096

      903    16046    2             AND SUBSTR(LEX_SYMBOL.SYMBOL, 0, 2) = 'IS' THEN
PL6.E3A0      #001=Z8EL$LEX File=Z8EL.:Z8A6TSI                                   SAT 08/09/97 12:03 Page:220
      904    16047    3           DO;

      905    16048                  %CHECK_DELIM_AND_SIZE;
             16049    4     DO;

             16050          /* Check symbol for length */
             16051    4     IF LEX_SYMBOL.SIZE > %MAX_SYMBOL_SIZE THEN

  16051 32 005134   000502 115007                    CMPA    322,DL
        32 005135   005144 604400 32                 TMOZ    s:16059

             16052    5       DO;

             16053    5         CALL Z8AE$ERROR(%E$SYMBOL_TOO_LARGE,

  16053 32 005136   000120 630400 33                 EPPR0   80
        32 005137   000011 631400 33                 EPPR1   9
        32 005140   000000 701000 xent               TSX1    Z8AE$ERROR
        32 005141   000000 011000                    NOP     0

             16054    5                         LEX_SYMBOL.LINE,
             16055    5                         LEX_SYMBOL.COLUMN);
             16056    5         LEX_SYMBOL.SIZE = %MAX_SYMBOL_SIZE;

  16056 32 005142   000502 235007                    LDA     322,DL
        32 005143   000010 755000 2                  STA     LEX_SYMBOL+8

             16057    5       END;

             16058          /* Check symbol for delimiter error */
             16059    4     IF LEX_SYMBOL.B.DELIM_ERROR THEN

  16059 32 005144   000002 234000 2                  SZN     LEX_SYMBOL+2
        32 005145   005152 605000 32                 TPL     s:16075

             16060    5       DO;

PL6.E3A0      #001=Z8EL$LEX File=Z8EL.:Z8A6TSI                                   SAT 08/09/97 12:03 Page:221
             16061    5         CALL Z8AE$ERROR (%E$MISSING_DELIMITER,

  16061 32 005146   000124 630400 33                 EPPR0   84
        32 005147   000011 631400 33                 EPPR1   9
        32 005150   000000 701000 xent               TSX1    Z8AE$ERROR
        32 005151   000000 011000                    NOP     0

             16062    5                          LEX_SYMBOL.LINE,
             16063    5                          LEX_SYMBOL.COLUMN);
             16064    5       END;

             16065    4     END;

      906    16067                  %INITIALIZE_LA_STK_ITEM;
             16068    4     DO;

             16069            %INIT_LX_TERMINAL ( @POINTER = "ADDR(O1COM.LA_STK(O1COM.LA_PUT))",
             16070                                @LA_ITEM = TRUE,
             16071                                @SYMBOL = LEX_SYMBOL.TYPE,
             16072                                @LINE = LEX_SYMBOL.LINE,
             16073                                @COLUMN = LEX_SYMBOL.COLUMN);
             16074    5     DO;

             16075    5       @POINTER -> LX_TERMINAL.ID     = %LX_TERMINAL;

  16075 32 005152   000132 235000 xsym               LDA     O1COM+90
        32 005153   000003 735000                    ALS     3
        32 005154   000000 220003                    LDX0    0,DU
        32 005155   000237 740005 xsym               STX0    O1COM+159,AL

             16076    5       @POINTER -> LX_TERMINAL.B      = '0'B;

  16076 32 005156   000132 235000 xsym               LDA     O1COM+90
        32 005157   000003 735000                    ALS     3
        32 005160   000000 221003                    LDX1    0,DU
        32 005161   000237 441005 xsym               SXL1    O1COM+159,AL

PL6.E3A0      #001=Z8EL$LEX File=Z8EL.:Z8A6TSI                                   SAT 08/09/97 12:03 Page:222
             16077            %IF (TEXTCHAR(@BERROR) ~= '');
             16079            %ENDIF;
             16080    5       @POINTER -> LX_TERMINAL.TYPE   = @TYPE %;

  16080 32 005162   000132 235000 xsym               LDA     O1COM+90
        32 005163   000003 735000                    ALS     3
        32 005164   000015 236007                    LDQ     13,DL
        32 005165   000243 756005 xsym               STQ     O1COM+163,AL

             16081            %IF (TEXTCHAR(@LA_ITEM) = '');
             16083            %ENDIF;
             16084    5       @POINTER -> LX_TERMINAL.ST$    = @ST$ ;

  16084 32 005166   000132 235000 xsym               LDA     O1COM+90
        32 005167   000003 735000                    ALS     3
        32 005170   000000 236000 33                 LDQ     0
        32 005171   000240 756005 xsym               STQ     O1COM+160,AL

             16085    5       @POINTER -> LX_TERMINAL.SYMBOL = @SYMBOL;

  16085 32 005172   000132 235000 xsym               LDA     O1COM+90
        32 005173   000003 735000                    ALS     3
        32 005174   000001 236000 2                  LDQ     LEX_SYMBOL+1
        32 005175   000242 756005 xsym               STQ     O1COM+162,AL

             16086    5       @POINTER -> LX_TERMINAL.DNT$   = @DNT$;

  16086 32 005176   000132 235000 xsym               LDA     O1COM+90
        32 005177   000003 735000                    ALS     3
        32 005200   000000 236000 33                 LDQ     0
        32 005201   000241 756005 xsym               STQ     O1COM+161,AL

             16087    5       @POINTER -> LX_TERMINAL.LINE   = @LINE;

  16087 32 005202   000132 235000 xsym               LDA     O1COM+90
        32 005203   000003 735000                    ALS     3
        32 005204   000004 236000 2                  LDQ     LEX_SYMBOL+4
PL6.E3A0      #001=Z8EL$LEX File=Z8EL.:Z8A6TSI                                   SAT 08/09/97 12:03 Page:223
        32 005205   000244 756005 xsym               STQ     O1COM+164,AL

             16088    5       @POINTER -> LX_TERMINAL.COLUMN = @COLUMN;

  16088 32 005206   000132 235000 xsym               LDA     O1COM+90
        32 005207   000003 735000                    ALS     3
        32 005210   000005 236000 2                  LDQ     LEX_SYMBOL+5
        32 005211   000245 756005 xsym               STQ     O1COM+165,AL

             16089    5     END;

             16091    4     END;

      907    16093    3             CALL PROCESS_SYMBOL;

  16093 32 005212   001632 701000 32                 TSX1    PROCESS_SYMBOL
        32 005213   000000 011000                    NOP     0

      908    16094    3           END;

  16094 32 005214   005217 710000 32                 TRA     s:16101

      909    16095    2         ELSE
      910    16096    2           CALL CONSOLIDATE_PICTURE_STRING;

  16096 32 005215   004475 701000 32                 TSX1    CONSOLIDATE_PICTURE_STRING
        32 005216   000000 011000                    NOP     0

      911    16097
      912    16098    2     END;  /* CASE ON LEX_STATE */

      913    16099
      914    16100
      915    16101    1     RETURN;

  16101 32 005217   000000 221200 0                  LDX1  ! 0
        32 005220   000001 702211                    TSX2  ! 1,X1
PL6.E3A0      #001=Z8EL$LEX File=Z8EL.:Z8A6TSI                                   SAT 08/09/97 12:03 Page:224

      916    16102
      917    16103
      918    16104        /* Initialization call to LEX */
      919    16105
      920    16106    1   Z8EL$LEX_INIT : ENTRY;

  16106 32 005221   000000 741200 0     Z8EL$LEX_IN* STX1  ! 0

      921    16107
      922    16108    1     CALL Z9AA$IS_ES_REQUIRED;

  16108 32 005222   000003 631400 33                 EPPR1   3
        32 005223   000000 701000 xent               TSX1    Z9AA$IS_ES_REQUIRED
        32 005224   000000 011000                    NOP     0

      923    16109
      924    16110
      925    16111    1     CALL Z8EL$GET_NEXT_SCANNER_LINE;

  16111 32 005225   000003 631400 33                 EPPR1   3
        32 005226   000000 701000 xent               TSX1    Z8EL$GET_NEXT_SCANNER_LINE
        32 005227   000000 011000                    NOP     0

      926    16112
      927    16113    1     RETURN;

  16113 32 005230   000000 221200 0                  LDX1  ! 0
        32 005231   000001 702211                    TSX2  ! 1,X1
      928    16114
      929    16115
      930    16116    1   END Z8EL$LEX;
      931    16117        %EOD;

PL6.E3A0      #001=Z8EL$LEX File=Z8EL.:Z8A6TSI                                   SAT 08/09/97 12:03 Page:225
--  Include file information  --

   Z8E_REPLACE.:Z8A6TOU  cannot be made into a system file and is referenced.
   Z8E_HEAP.:Z8A6TOU  cannot be made into a system file and is referenced.
   Z8A_P_STATE.:Z8A6TOU  cannot be made into a system file and is referenced.
   Z8A_ERR_NUMS.:Z8A6TOU  is referenced.
   Z8A_DNT.:Z8A6TOU  cannot be made into a system file and is referenced.
   Z8A_ST.:Z8A6TOU  cannot be made into a system file and is referenced.
   Z8A_TYPES.:Z8A6TOU  is referenced.
   Z8E_O1COM.:Z8A6TOU  cannot be made into a system file and is referenced.
   Z8E_BUFFERS.:Z8A6TOU  cannot be made into a system file and is referenced.
   Z8E_TABLES.:Z8A6TOU  cannot be made into a system file and is referenced.
   Z8E_WINDOW.:Z8A6TOU  is referenced.
   Z8A_LEX_SYMB.:Z8A6TOU  cannot be made into a system file and is referenced.
   Z8E_STACKS.:Z8A6TOU  cannot be made into a system file and is referenced.
   Z8A_COMCOM.:Z8A6TOU  cannot be made into a system file and is referenced.
   X8A_COM_MACS.:X8A6TOU  is referenced.
   Z8A_NAMES.:Z8A6TOU  is referenced.
   Z8A_SUPP_MAC.:Z8A6TOU  is referenced.
   Z8A_DEFC.:Z8A6TOU  cannot be made into a system file and is referenced.
      No diagnostics issued in procedure Z8EL$LEX.
PL6.E3A0      #001=Z8EL$LEX File=Z8EL.:Z8A6TSI                                   SAT 08/09/97 12:03 Page:226

 **** Variables and constants ****

  ****  Section 000  Data  Z8EL$LEX

  ****  Scalars and arrays  ****
OctLoc.c.b A Datatyp(siz) R M Lvl/name                 OctLoc.c.b A Datatyp(siz) R M Lvl/name

    24-0-0/w SBIN        r     1 CHAR_CLASS                23-0-0/w SBIN        r     1 CHAR_COLUMN
   166-0-0/w SBIN        r     1 CONTINUATION_ISN          26-0-0/w PTR         r     1 HEAP$$
    10-0-0/w SBIN        r     1 I                        171-0-0/w SBIN        r     1 INSERT_SIZE
     2-0-0/w STRC(216)   r     1 NUM_DESC
     1-0-0/w SBIN        r     1 PARSE_STACK_IDX_IN_CHARS
   162-0-0/b BIT         r     1 PARSING_PICTURE           30-0-0/w STRC(3240)  r     1 PICTURE_SYMBOL
    27-0-0/w PTR         r     1 PROC$$                    22-0-0/b BIT         r     1 SAVED_CONT_FLAG
    21-0-0/w SBIN        r     1 SAVED_LEX_STATE           11-0-0/w STRC(288)   r     1 SAVED_SYMBOL
    25-0-0/w PTR         r     1 TDNT$

  ****  Section 001 LblCom ITERATION

  ****  Scalars and arrays  ****
OctLoc.c.b A Datatyp(siz) R M Lvl/name                 OctLoc.c.b A Datatyp(siz) R M Lvl/name

     0-0-0/w SBIN        r     1 ITERATION

  ****  Section 002 LblCom LEX_SYMBOL

  ****  Scalars and arrays  ****
OctLoc.c.b A Datatyp(siz) R M Lvl/name                 OctLoc.c.b A Datatyp(siz) R M Lvl/name

     0-0-0/w STRC(3240)  r     1 LEX_SYMBOL                 0-0-0/w STRC(3240)        1 LEX_SYMBOL_WORDS

  ****  Section 003 LblCom CURRENT_LEX_SYMBOL$

  ****  Scalars and arrays  ****
OctLoc.c.b A Datatyp(siz) R M Lvl/name                 OctLoc.c.b A Datatyp(siz) R M Lvl/name

     0-0-0/w PTR         r     1 CURRENT_LEX_SYMBOL$
PL6.E3A0      #001=Z8EL$LEX File=Z8EL.:Z8A6TSI                                   SAT 08/09/97 12:03 Page:227

  ****  Section 004 LblCom TEMP_LEX_SYMBOL

  ****  Scalars and arrays  ****
OctLoc.c.b A Datatyp(siz) R M Lvl/name                 OctLoc.c.b A Datatyp(siz) R M Lvl/name

     0-0-0/w STRC(3240)  r     1 TEMP_LEX_SYMBOL

  ****  Section 005 LblCom TEMP_LEX_SYMBOL2

  ****  Scalars and arrays  ****
OctLoc.c.b A Datatyp(siz) R M Lvl/name                 OctLoc.c.b A Datatyp(siz) R M Lvl/name

     0-0-0/w STRC(3240)  r     1 TEMP_LEX_SYMBOL2

  ****  Section 006 LblCom SCANNER_STATE

  ****  Scalars and arrays  ****
OctLoc.c.b A Datatyp(siz) R M Lvl/name                 OctLoc.c.b A Datatyp(siz) R M Lvl/name

     0-0-0/w SBIN              1 SCANNER_STATE

  ****  Section 007 LblCom CURRENT_BUFFER$

  ****  Scalars and arrays  ****
OctLoc.c.b A Datatyp(siz) R M Lvl/name                 OctLoc.c.b A Datatyp(siz) R M Lvl/name

     0-0-0/w PTR         r     1 CURRENT_BUFFER$

  ****  Section 008 LblCom LOOKAHEAD_BUFFER$

  ****  Scalars and arrays  ****
OctLoc.c.b A Datatyp(siz) R M Lvl/name                 OctLoc.c.b A Datatyp(siz) R M Lvl/name

     0-0-0/w PTR         r     1 LOOKAHEAD_BUFFER$

  ****  Section 009 LblCom CURRENT_LINE_LEVEL
PL6.E3A0      #001=Z8EL$LEX File=Z8EL.:Z8A6TSI                                   SAT 08/09/97 12:03 Page:228

  ****  Scalars and arrays  ****
OctLoc.c.b A Datatyp(siz) R M Lvl/name                 OctLoc.c.b A Datatyp(siz) R M Lvl/name

     0-0-0/w SBIN              1 CURRENT_LINE_LEVEL

  ****  Section 010 LblCom LINE_LIST$

  ****  Scalars and arrays  ****
OctLoc.c.b A Datatyp(siz) R M Lvl/name                 OctLoc.c.b A Datatyp(siz) R M Lvl/name

     0-0-0/w PTR               1 LINE_LIST$

  ****  Section 011 LblCom BUFFER

  ****  Scalars and arrays  ****
OctLoc.c.b A Datatyp(siz) R M Lvl/name                 OctLoc.c.b A Datatyp(siz) R M Lvl/name

     0-0-0/w STRC(252)   r     1 BUFFER

  ****  Section 012 LblCom ORIGINAL_ISN

  ****  Scalars and arrays  ****
OctLoc.c.b A Datatyp(siz) R M Lvl/name                 OctLoc.c.b A Datatyp(siz) R M Lvl/name

     0-0-0/w SBIN              1 ORIGINAL_ISN

  ****  Section 013 LblCom EXPANDED_ISN

  ****  Scalars and arrays  ****
OctLoc.c.b A Datatyp(siz) R M Lvl/name                 OctLoc.c.b A Datatyp(siz) R M Lvl/name

     0-0-0/w SBIN              1 EXPANDED_ISN

  ****  Section 014 LblCom ISN_FOR_EXP_SRC

  ****  Scalars and arrays  ****
PL6.E3A0      #001=Z8EL$LEX File=Z8EL.:Z8A6TSI                                   SAT 08/09/97 12:03 Page:229
OctLoc.c.b A Datatyp(siz) R M Lvl/name                 OctLoc.c.b A Datatyp(siz) R M Lvl/name

     0-0-0/w SBIN              1 ISN_FOR_EXP_SRC

  ****  Section 015 LblCom ST$

  ****  Scalars and arrays  ****
OctLoc.c.b A Datatyp(siz) R M Lvl/name                 OctLoc.c.b A Datatyp(siz) R M Lvl/name

     0-0-0/w PTR         r     1 ST$

  ****  Section 016 LblCom ST_

  ****  Scalars and arrays  ****
OctLoc.c.b A Datatyp(siz) R M Lvl/name                 OctLoc.c.b A Datatyp(siz) R M Lvl/name

     0-0-0/w STRC(180)         1 ST_

  ****  Section 017 LblCom DNT$

  ****  Scalars and arrays  ****
OctLoc.c.b A Datatyp(siz) R M Lvl/name                 OctLoc.c.b A Datatyp(siz) R M Lvl/name

     0-0-0/w PTR         r     1 DNT$

  ****  Section 018 LblCom DNT_

  ****  Scalars and arrays  ****
OctLoc.c.b A Datatyp(siz) R M Lvl/name                 OctLoc.c.b A Datatyp(siz) R M Lvl/name

     0-0-0/w STRC(180)   r     1 DNT_

  ****  Section 019 LblCom DNT_BUCKET_NUMBER

  ****  Scalars and arrays  ****
OctLoc.c.b A Datatyp(siz) R M Lvl/name                 OctLoc.c.b A Datatyp(siz) R M Lvl/name

PL6.E3A0      #001=Z8EL$LEX File=Z8EL.:Z8A6TSI                                   SAT 08/09/97 12:03 Page:230
     0-0-0/w UBIN        r     1 DNT_BUCKET_NUMBER

  ****  Section 020 LblCom DNT_OF_1$

  ****  Scalars and arrays  ****
OctLoc.c.b A Datatyp(siz) R M Lvl/name                 OctLoc.c.b A Datatyp(siz) R M Lvl/name

     0-0-0/w PTR         r     1 DNT_OF_1$

  ****  Section 021 LblCom HEAP$

  ****  Scalars and arrays  ****
OctLoc.c.b A Datatyp(siz) R M Lvl/name                 OctLoc.c.b A Datatyp(siz) R M Lvl/name

     0-0-0/w PTR         r     1 HEAP$

  ****  Section 022 LblCom CURRENT_SYMBOL_LEVEL

  ****  Scalars and arrays  ****
OctLoc.c.b A Datatyp(siz) R M Lvl/name                 OctLoc.c.b A Datatyp(siz) R M Lvl/name

     0-0-0/w SBIN        r     1 CURRENT_SYMBOL_LEVEL

  ****  Section 023 LblCom REPLACE_ACTIVE

  ****  Scalars and arrays  ****
OctLoc.c.b A Datatyp(siz) R M Lvl/name                 OctLoc.c.b A Datatyp(siz) R M Lvl/name

     0-0-0/b BIT         r     1 REPLACE_ACTIVE

  ****  Section 024 LblCom IGNORE_COPY_REPLACE

  ****  Scalars and arrays  ****
OctLoc.c.b A Datatyp(siz) R M Lvl/name                 OctLoc.c.b A Datatyp(siz) R M Lvl/name

     0-0-0/b BIT         r     1 IGNORE_COPY_REPLACE

PL6.E3A0      #001=Z8EL$LEX File=Z8EL.:Z8A6TSI                                   SAT 08/09/97 12:03 Page:231
  ****  Section 025 LblCom COPY_DEBUG_LEVEL

  ****  Scalars and arrays  ****
OctLoc.c.b A Datatyp(siz) R M Lvl/name                 OctLoc.c.b A Datatyp(siz) R M Lvl/name

     0-0-0/w SBIN              1 COPY_DEBUG_LEVEL

  ****  Section 026 LblCom REPLACE_LIST

  ****  Scalars and arrays  ****
OctLoc.c.b A Datatyp(siz) R M Lvl/name                 OctLoc.c.b A Datatyp(siz) R M Lvl/name

     0-0-0/w STRC(144)         1 REPLACE_LIST

  ****  Section 027 LblCom LEX_SYMBOL_QUEUE$

  ****  Scalars and arrays  ****
OctLoc.c.b A Datatyp(siz) R M Lvl/name                 OctLoc.c.b A Datatyp(siz) R M Lvl/name

     0-0-0/w PTR         r     1 LEX_SYMBOL_QUEUE$

  ****  Section 028 LblCom GET_NEXT_SCANNER_LINE

  ****  Scalars and arrays  ****
OctLoc.c.b A Datatyp(siz) R M Lvl/name                 OctLoc.c.b A Datatyp(siz) R M Lvl/name

     0-0-0/w EPTR        r     1 GET_NEXT_SCANNER_LINE

  ****  Section 029 LblCom SEARCH_REQUIRED

  ****  Scalars and arrays  ****
OctLoc.c.b A Datatyp(siz) R M Lvl/name                 OctLoc.c.b A Datatyp(siz) R M Lvl/name

     0-0-0/b BIT         r     1 SEARCH_REQUIRED

  ****  Section 030 LblCom LEX_STATE

PL6.E3A0      #001=Z8EL$LEX File=Z8EL.:Z8A6TSI                                   SAT 08/09/97 12:03 Page:232
  ****  Scalars and arrays  ****
OctLoc.c.b A Datatyp(siz) R M Lvl/name                 OctLoc.c.b A Datatyp(siz) R M Lvl/name

     0-0-0/w SBIN        r     1 LEX_STATE

  ****  SYMREF variables  ****

  ****  Scalars and arrays  ****
OctLoc.c.b A Datatyp(siz) R M Lvl/name                 OctLoc.c.b A Datatyp(siz) R M Lvl/name

     0-0-0/w STRC(4608)  r     1 ANSI_USERWORD_SCAN_TABLE
     0-0-0/w STRC(4608)        1 ASCII_SEARCH_TABLE         0-0-0/w STRC(4608)        1 BLANK_SCAN_TABLE
     0-0-0/d STRC(13248) r     1 COMCOM
     0-0-0/c CHAR              1 CURRENCY_SIGN_CHARS(0:511)
     0-0-0/w STRC(4608)        1 DBL_QUOTE_PSEUDO_SEARCH_TABLE
     0-0-0/w STRC(4608)        1 DIGIT_SCAN_TABLE
     0-0-0/w PTR         r     1 DNT_BUCKETS(0:1128)
     0-0-0/w STRC(4608)        1 DOUBLE_QUOTE_SEARCH_TABLE
     0-0-0/w STRC(180)         1 HIER_STK(0:50)
     0-0-0/w SBIN              1 HIER_STK_PTR               0-0-0/w STRC(4608)        1 LETTER_SEARCH_TABLE
     0-0-0/c CHAR              1 LOWER_TO_UPPER_CASE(0:511)
     0-0-0/d STRC(11580) r     1 O1COM                      0-0-0/w STRC(144)         1 PAGE_FORMAT
     0-0-0/w STRC(153)         1 REP_STK(0:50)              0-0-0/w SBIN              1 REP_STK_PTR
     0-0-0/w STRC(4608)        1 SEPARATORS_TABLE
     0-0-0/w STRC(4608)        1 SINGLE_QUOTE_SEARCH_TABLE
     0-0-0/w STRC(4608)        1 SNGL_QUOTE_PSEUDO_SEARCH_TABLE
     0-0-0/w STRC(4608)        1 USERWORD_SCAN_TABLE

  ****  BASED and DCB variables  ****

  ****  Scalars and arrays  ****
OctLoc.c.b A Datatyp(siz) R M Lvl/name                 OctLoc.c.b A Datatyp(siz) R M Lvl/name

     0-0-0/w STRC(288)         1 ADD_STMT                   0-0-0/w STRC(396)         1 ALPHABET
     0-0-0/w STRC(396)         1 ARRAY                      0-0-0/w ASTR(324)   r     1 BASED_LEX_SYMBOL
     0-0-0/w STRC(360)         1 BASED_LEX_SYMBOL_WORDS
     0-0-0/w STRC(288)         1 BINARY_OP                  0-0-0/w STRC(396)         1 BLOCK
PL6.E3A0      #001=Z8EL$LEX File=Z8EL.:Z8A6TSI                                   SAT 08/09/97 12:03 Page:233
     0-0-0/c ACHR        r     1 BUFFER_LINE                0-0-0/w STRC(288)         1 CALL_STMT
     0-0-0/w STRC(396)         1 CD                         0-0-0/w CHAR(4096)        1 CHARS
     0-0-0/w STRC(396)         1 CLASS                      0-0-0/w STRC(288)         1 COMPUTE_STMT
     0-0-0/w STRC(396)         1 CONDITION                  0-0-0/w STRC(396)         1 CONST
     0-0-0/w STRC(72)          1 CONT                       0-0-0/w STRC(396)         1 DB
     0-0-0/w STRC(396)         1 DCB_                       0-0-0/w STRC(288)         1 DEFERED_IDENTIFIER
     0-0-0/w STRC(252)         1 DEFERED_ID_TREE            0-0-0/w STRC(288)         1 DEFERED_QUAL_ID
     0-0-0/w STRC(288)         1 DEFERED_SUM_CLAUSE
     0-0-0/w STRC(288)         1 DEFERED_SUM_CLAUSE_LIST
     0-0-0/w STRC(288)         1 DELETE_STMT                0-0-0/w STRC(288)         1 DIVIDE_STMT
     0-0-0/w STRC(396)         1 DML_ITEM                   0-0-0/w ASTR(180)   r     1 DNT
     0-0-0/w ASTR(396)   r     1 EXP_SRC_BUFF               0-0-0/w STRC(396)         1 FD
     0-0-0/w ASTR(396)   r     1 FILL_BUFFER                0-0-0/w STRC(288)         1 ILS_LIST
     0-0-0/w STRC(288)         1 INSPECT_1_STMT             0-0-0/w STRC(288)         1 INSPECT_2_STMT
     0-0-0/w STRC(288)         1 INSPECT_4_STMT             0-0-0/w STRC(396)         1 INTDEF
     0-0-0/w STRC(396)         1 LABEL                      0-0-0/w STRC(288)         1 LA_ITEM
     0-0-0/w STRC(504)         1 LX_CD_INPUT                0-0-0/w STRC(324)         1 LX_CD_I_O
     0-0-0/w STRC(396)         1 LX_CD_OUTPUT               0-0-0/w STRC(288)         1 LX_ETT_ITEM
     0-0-0/w STRC(288)   r     1 LX_ITEM                    0-0-0/w STRC(288)         1 LX_LARGE
     0-0-0/w STRC(288)         1 LX_LIST                    0-0-0/w STRC(1224)        1 LX_REC_DECL
     0-0-0/w STRC(864)         1 LX_REPORT_REC              0-0-0/w STRC(288)   r     1 LX_TERMINAL
     0-0-0/w STRC(396)         1 MNEMONIC                   0-0-0/w STRC(288)         1 MULTIPLY_STMT
     0-0-0/w STRC(36864)       1 PAGE                       0-0-0/w STRC(396)         1 PARA
     0-0-0/c ACHR              1 PARSE_STACK_USED           0-0-0/w STRC(396)   r     1 PROC_
     0-0-0/w STRC(396)         1 PROC_DEF                   0-0-0/w STRC(396)         1 RD
     0-0-0/w STRC(288)         1 READ_STMT                  0-0-0/w STRC(252)         1 REPLACE_ITEM
     0-0-0/w STRC(288)         1 REWRITE_STMT               0-0-0/w STRC(396)         1 SCALAR
     0-0-0/w STRC(396)         1 SD                         0-0-0/w STRC(396)         1 SECTION
     0-0-0/w STRC(396)         1 SEGMENT                    0-0-0/w STRC(396)   r     1 ST
     0-0-0/w STRC(288)         1 START_STMT                 0-0-0/w STRC(252)         1 STRING_STMT
     0-0-0/w STRC(288)         1 SUBTRACT_STMT              0-0-0/w STRC(396)         1 SWITCH
     0-0-0/w STRC(396)         1 SYMBOLIC_CHAR              0-0-0/w STRC(396)         1 SYMDEF_
     0-0-0/w STRC(396)         1 SYMREF_                    0-0-0/w STRC(396)         1 TEMP
     0-0-0/w STRC(288)         1 UNARY_OP                   0-0-0/w STRC(288)         1 UNSTRING_STMT
     0-0-0/w STRC(396)   r     1 VARIABLE                   0-0-0/w STRC(288)         1 WRITE_STMT

PL6.E3A0      #001=Z8EL$LEX File=Z8EL.:Z8A6TSI                                   SAT 08/09/97 12:03 Page:234

   Procedure Z8EL$LEX requires 2714 words for executable code.
   Procedure Z8EL$LEX is declared NOAUTO and requires 126 words of local(STATIC) storage.

