PL6.E3A0      #016=Z8EL$PARSE_REPLACE File=Z8EL.:Z8A6TSI                         SAT 08/09/97 12:18 Page:569
     2309        1        /*T***********************************************************/
     2310        2        /*T*                                                         */
     2311        3        /*T* Copyright (c) Bull HN Information Systems Inc., 1997    */
     2312        4        /*T*                                                         */
     2313        5        /*T***********************************************************/
     2314        6        Z8EL$PARSE_REPLACE : PROC ( REPLACE$,
     2315        7                                    START_LINE,
     2316        8                                    START_COLUMN,
     2317        9                                    END_LINE,
     2318       10                                    END_COLUMN,
     2319       11                                    END_LEVEL,
     2320       12                                    ERROR_IN_REPLACE);
     2321       13
     2322       14    1   DCL REPLACE$ PTR;
     2323       15    1   DCL START_LINE SBIN;
     2324       16    1   DCL START_COLUMN SBIN;
     2325       17    1   DCL END_LINE SBIN;
     2326       18    1   DCL END_COLUMN SBIN;
     2327       19    1   DCL END_LEVEL SBIN;
     2328       20    1   DCL ERROR_IN_REPLACE BIT(1) ALIGNED;
     2329       21
     2330       22        %EQU PHASE=1;
     2331       23        %INCLUDE Z8A_DEFC;
     2332       91        %INCLUDE Z8A_SUPP_MAC;
     2333     2491        %INCLUDE Z8A_COMCOM;
     2334     3141        %INCLUDE Z8E_STACKS;
     2335     5407        %INCLUDE Z8E_HEAP;
     2336     5463        %INCLUDE Z8E_O1COM;
     2337     6224        %INCLUDE Z8E_REPLACE;
     2338     6527        %INCLUDE Z8E_WINDOW;
     2339     8597        %INCLUDE Z8A_ERR_NUMS;
     2340     9361
     2341     9362    1   DCL Z8AE$ERROR ENTRY(12);
     2342     9363    1   DCL Z8EL$HANDLE_LEVEL_CHANGE ENTRY(1);
     2343     9364    1   DCL Z8EL$GET_REPLACE_TOKENS ENTRY(6) ALTRET;
     2344     9365    1   DCL Z8EL$EXTRACT_PSEUDO_TEXT ENTRY(5);
     2345     9366    1   DCL Z8EL$PROCESS_COPY        ENTRY;
PL6.E3A0      #016=Z8EL$PARSE_REPLACE File=Z8EL.:Z8A6TSI                         SAT 08/09/97 12:18 Page:570
     2346     9367
     2347     9368    1   DCL RP$ PTR;
     2348     9369    1   DCL PSEUDO_START_LINE SBIN;
     2349     9370    1   DCL PSEUDO_START_COLUMN SBIN;
     2350     9371    1   DCL PSEUDO_END_LINE SBIN;
     2351     9372    1   DCL PSEUDO_END_COLUMN SBIN;
     2352     9373
     2353     9374        /* Process a replace statement */
     2354     9375
     2355     9376    1   ERROR_IN_REPLACE = FALSE;
     2356     9377    1   START_LINE = LEX_SYMBOL.LINE;
     2357     9378    1   START_COLUMN = LEX_SYMBOL.COLUMN;
     2358     9379
     2359     9380        %NEW_REPLACE_ITEM;
     2360     9393    1   RP$ = REPLACE$;
     2361     9394
     2362     9395        %GET_A_TOKEN_OR_COPY;
     2363     9484
     2364     9485
     2365     9486    2       DO UNTIL LEX_SYMBOL.TYPE = %PERIOD
     2366     9487    2                    OR ERROR_IN_REPLACE;
     2367     9488
     2368     9489
     2369     9490    2         CALL Z8EL$GET_REPLACE_TOKENS (RP$ -> REPLACE_ITEM.FROM_LIST$,
     2370     9491    2                                       RP$ -> REPLACE_ITEM.FROM_IS_PSEUDO_TEXT,
     2371     9492    2                                       PSEUDO_START_LINE,
     2372     9493    2                                       PSEUDO_START_COLUMN,
     2373     9494    2                                       PSEUDO_END_LINE,
     2374     9495    2                                       PSEUDO_END_COLUMN) ALTRET(REP_ERR);
     2375     9496
     2376     9497    2         IF RP$ -> REPLACE_ITEM.FROM_LIST$ = ADDR(NIL) THEN
     2377     9498    3           DO;
     2378     9499    3             CALL Z8AE$ERROR(%E$REPLACE_NULL_SPEC,
     2379     9500    3                             LEX_SYMBOL.LINE,
     2380     9501    3                             LEX_SYMBOL.COLUMN);
     2381     9502                  %COPY_TO_NEW_LEX_SYMBOL (FROM$ = "ADDR(LEX_SYMBOL)",
     2382     9503                                         TO$   = RP$ -> REPLACE_ITEM.FROM_LIST$);
PL6.E3A0      #016=Z8EL$PARSE_REPLACE File=Z8EL.:Z8A6TSI                         SAT 08/09/97 12:18 Page:571
     2383     9518    3             ERROR_IN_REPLACE = TRUE;
     2384     9519    3           END;
     2385     9520    2         ELSE
     2386     9521    2           IF NOT RP$ -> REPLACE_ITEM.FROM_IS_PSEUDO_TEXT
     2387     9522    2             AND SUBSTR(RP$ -> REPLACE_ITEM.FROM_LIST$ -> BASED_LEX_SYMBOL.SYMBOL,
     2388     9523    2                     0,
     2389     9524    2                     RP$ -> REPLACE_ITEM.FROM_LIST$ -> BASED_LEX_SYMBOL.SIZE) = 'OFF'
              9524                              THEN
     2390     9525    3             DO;
     2391     9526    3               IF LEX_SYMBOL.TYPE ~= %PERIOD THEN
     2392     9527    4                 DO;
     2393     9528    4                   CALL Z8AE$ERROR (%E$REPLACE_PERIOD_EXPECTED,
     2394     9529    4                                    LEX_SYMBOL.LINE,
     2395     9530    4                                    LEX_SYMBOL.COLUMN);
     2396     9531    4                   ERROR_IN_REPLACE = TRUE;
     2397     9532    4                 END;
     2398     9533    3             END;
     2399     9534    2           ELSE
     2400     9535    3             DO;  /* get the TO_LIST */
     2401     9536
     2402     9537
     2403     9538    3                IF (SUBSTR(LEX_SYMBOL.SYMBOL, 0, LEX_SYMBOL.SIZE) ~= 'BY') THEN
     2404     9539    4                 DO;
     2405     9540    4                   CALL Z8AE$ERROR (%E$REPLACE_BY_EXPECTED,
     2406     9541    4                                    LEX_SYMBOL.LINE,
     2407     9542    4                                    LEX_SYMBOL.COLUMN);
     2408     9543    4                   ERROR_IN_REPLACE = TRUE;
     2409     9544    4                 END;
     2410     9545    3               ELSE
     2411     9546    4                 DO;
     2412     9547    4                   O1COM.REPLACE_BY_FLAG = TRUE;
     2413     9548                        /* Get to replace clause */
     2414     9549                        %GET_A_TOKEN_OR_COPY;
     2415     9638    4                   CALL Z8EL$GET_REPLACE_TOKENS (RP$ -> REPLACE_ITEM.TO_LIST$,
     2416     9639    4                                                 RP$ -> REPLACE_ITEM.TO_IS_PSEUDO_TEXT,
     2417     9640    4                                                 PSEUDO_START_LINE,
     2418     9641    4                                                 PSEUDO_START_COLUMN,
PL6.E3A0      #016=Z8EL$PARSE_REPLACE File=Z8EL.:Z8A6TSI                         SAT 08/09/97 12:18 Page:572
     2419     9642    4                                                 PSEUDO_END_LINE,
     2420     9643    4                                                 PSEUDO_END_COLUMN) ALTRET(REP_ERR);
     2421     9644    4                   IF RP$ -> REPLACE_ITEM.TO_IS_PSEUDO_TEXT THEN
     2422     9645    4                     CALL Z8EL$EXTRACT_PSEUDO_TEXT (RP$ -> REPLACE_ITEM.
              9645                              TO_PSEUDO_TEXT_LINES$,
     2423     9646    4                                                    PSEUDO_START_LINE,
     2424     9647    4                                                    PSEUDO_START_COLUMN,
     2425     9648    4                                                    PSEUDO_END_LINE,
     2426     9649    4                                                    PSEUDO_END_COLUMN);
     2427     9650    4                   O1COM.REPLACE_BY_FLAG = FALSE;
     2428     9651    4                   IF LEX_SYMBOL.TYPE ~= %PERIOD THEN
     2429     9652    5                     DO;
     2430     9653                            %NEW_REPLACE_ITEM(@REPLACE$="RP$ -> REPLACE_ITEM.LINK$");
     2431     9666    5                       RP$ = RP$ -> REPLACE_ITEM.LINK$;
     2432     9667    5                     END;
     2433     9668    4                 END;
     2434     9669    3             END;
     2435     9670
     2436     9671    2       END;   /* DO UNTIL */
     2437     9672
     2438     9673    1   END_LINE = LEX_SYMBOL.END_LINE;
     2439     9674    1   END_COLUMN = LEX_SYMBOL.END_COLUMN;
     2440     9675    1   END_LEVEL = LEX_SYMBOL.LEVEL;
     2441     9676
     2442     9677    1   RETURN;
     2443     9678
     2444     9679        /* Error exit */
     2445     9680
     2446     9681    1   REP_ERR:
     2447     9682    1     ERROR_IN_REPLACE = TRUE;
     2448     9683    1     O1COM.REPLACE_BY_FLAG = FALSE;
     2449     9684    1     O1COM.PSEUDO_TEXT_FLAG = FALSE;
     2450     9685
     2451     9686    1     CALL Z8AE$ERROR (%E$REPLACE_SYNTAX_ERROR,
     2452     9687    1                      LEX_SYMBOL.LINE,
     2453     9688    1                      LEX_SYMBOL.COLUMN);
     2454     9689
PL6.E3A0      #016=Z8EL$PARSE_REPLACE File=Z8EL.:Z8A6TSI                         SAT 08/09/97 12:18 Page:573
     2455     9690    1     RETURN;
     2456     9691
     2457     9692    1   END Z8EL$PARSE_REPLACE;
     2458     9693        %EOD;

PL6.E3A0      #016=Z8EL$PARSE_REPLACE File=Z8EL.:Z8A6TSI                         SAT 08/09/97 12:18 Page:574
--  Include file information  --

   Z8A_ERR_NUMS.:Z8A6TOU  is referenced.
   Z8E_WINDOW.:Z8A6TOU  is referenced.
   Z8E_REPLACE.:Z8A6TOU  cannot be made into a system file and is referenced.
   Z8E_O1COM.:Z8A6TOU  cannot be made into a system file and is referenced.
   Z8E_HEAP.:Z8A6TOU  cannot be made into a system file and is referenced.
   Z8A_LEX_SYMB.:Z8A6TOU  cannot be made into a system file and is referenced.
   Z8E_STACKS.:Z8A6TOU  cannot be made into a system file and is referenced.
   Z8A_COMCOM.:Z8A6TOU  cannot be made into a system file and is referenced.
   X8A_COM_MACS.:X8A6TOU  is referenced.
   Z8A_NAMES.:Z8A6TOU  is referenced.
   Z8A_SUPP_MAC.:Z8A6TOU  is referenced.
   Z8A_DEFC.:Z8A6TOU  cannot be made into a system file and is referenced.
      No diagnostics issued in procedure Z8EL$PARSE_REPLACE.

   Procedure Z8EL$PARSE_REPLACE requires 457 words for executable code.
   Procedure Z8EL$PARSE_REPLACE requires 22 words of local(AUTO) storage.

PL6.E3A0      #016=Z8EL$PARSE_REPLACE File=Z8EL.:Z8A6TSI                         SAT 08/09/97 12:18 Page:575

 Object Unit name= Z8EL$PARSE_REPLACE                         File name= Z8EL.:Z8A6TOU
 UTS= AUG 09 '97 12:18:58.80 SAT                              Compiler= PL-6/E31         Sev=      00
 SharedLib= :SHARED_SYSTEM                                    Alt SharedLib=


    ****  Control sections  ****

 Sect   Type Bound  Init  Size OctSiz  Section name(segment info)
    0  LblCom even  none     1      1  ITERATION
    1  LblCom even  none    90    132  LEX_SYMBOL
    2  LblCom even  none     1      1  CURRENT_LEX_SYMBOL$
    3  LblCom even  none    90    132  TEMP_LEX_SYMBOL
    4  LblCom even  none    90    132  TEMP_LEX_SYMBOL2
    5  LblCom even  none     1      1  HEAP$
    6  LblCom even  none     1      1  CURRENT_SYMBOL_LEVEL
    7  LblCom even  none     1      1  REPLACE_ACTIVE
    8  LblCom even  none     1      1  IGNORE_COPY_REPLACE
    9  LblCom even  none     1      1  COPY_DEBUG_LEVEL
   10  LblCom even  none     4      4  REPLACE_LIST
   11  LblCom even  none     1      1  LEX_SYMBOL_QUEUE$
   12  RoData even  UTS      3      3  Z8EL$PARSE_REPLACE
   13   Proc  even  none   457    711  Z8EL$PARSE_REPLACE
   14  RoData even  none    28     34  Z8EL$PARSE_REPLACE

    ****  Entry defs  ****

                              Check   Calling
                             calling  sequence
  Sect OctLoc Primary Altret sequence   type   Parms  Name
    13      0   yes            yes      Std        7  Z8EL$PARSE_REPLACE
PL6.E3A0      #016=Z8EL$PARSE_REPLACE File=Z8EL.:Z8A6TSI                         SAT 08/09/97 12:18 Page:576

  ****  Entry refs  ****

         Check        Calling
        calling       sequence
Altret sequence SRef   type   Args  Name
         yes           Std       2 Z8ED$NEW_HEAP
         yes           Std       0 Z8ES$SCANNER
         yes           Std       1 Z8EL$HANDLE_LEVEL_CHANGE
         yes           Std       2 Z8ED$DISPOSE_HEAP
 yes     yes           Std       6 Z8EL$GET_REPLACE_TOKENS
         yes           Std      12 Z8AE$ERROR
         yes           Std       5 Z8EL$EXTRACT_PSEUDO_TEXT
         yes           Std       0 Z8EL$GET_NEXT_SCANNER_LINE
         yes           Std       0 Z8EL$PROCESS_COPY
                       nStd      0 X66_AUTO_N
                       nStd      0 X66_ARET

  ****  Data refs  ****

  Flags:  r = read only, s = secondary
Flgs Name                             Flgs Name                             Flgs Name
     COMCOM                                O1COM                                 HIER_STK_PTR
     HIER_STK                              PAGE_FORMAT                           REP_STK_PTR
     REP_STK

  ****  Segment refs  ****

  Flags:  r = read only, s = secondary
Flgs Name                             Flgs Name                             Flgs Name
     ISSID                                 NULLSID
PL6.E3A0      #016=Z8EL$PARSE_REPLACE File=Z8EL.:Z8A6TSI                         SAT 08/09/97 12:18 Page:577


     2309        1        /*T***********************************************************/
     2310        2        /*T*                                                         */
     2311        3        /*T* Copyright (c) Bull HN Information Systems Inc., 1997    */
     2312        4        /*T*                                                         */
     2313        5        /*T***********************************************************/
     2314        6        Z8EL$PARSE_REPLACE : PROC ( REPLACE$,

      6 13 000000   000000 700200 xent  Z8EL$PARSE_* TSX0  ! X66_AUTO_N
        13 000001   000026 000007                    ZERO    22,7

     2315        7                                    START_LINE,
     2316        8                                    START_COLUMN,
     2317        9                                    END_LINE,
     2318       10                                    END_COLUMN,
     2319       11                                    END_LEVEL,
     2320       12                                    ERROR_IN_REPLACE);
     2321       13
     2322       14    1   DCL REPLACE$ PTR;
     2323       15    1   DCL START_LINE SBIN;
     2324       16    1   DCL START_COLUMN SBIN;
     2325       17    1   DCL END_LINE SBIN;
     2326       18    1   DCL END_COLUMN SBIN;
     2327       19    1   DCL END_LEVEL SBIN;
     2328       20    1   DCL ERROR_IN_REPLACE BIT(1) ALIGNED;
     2329       21
     2330       22        %EQU PHASE=1;
     2331       23        %INCLUDE Z8A_DEFC;
     2332       91        %INCLUDE Z8A_SUPP_MAC;
     2333     2491        %INCLUDE Z8A_COMCOM;
     2334     3141        %INCLUDE Z8E_STACKS;
     2335     5407        %INCLUDE Z8E_HEAP;
     2336     5463        %INCLUDE Z8E_O1COM;
     2337     6224        %INCLUDE Z8E_REPLACE;
     2338     6527        %INCLUDE Z8E_WINDOW;
     2339     8597        %INCLUDE Z8A_ERR_NUMS;
     2340     9361
PL6.E3A0      #016=Z8EL$PARSE_REPLACE File=Z8EL.:Z8A6TSI                         SAT 08/09/97 12:18 Page:578
     2341     9362    1   DCL Z8AE$ERROR ENTRY(12);
     2342     9363    1   DCL Z8EL$HANDLE_LEVEL_CHANGE ENTRY(1);
     2343     9364    1   DCL Z8EL$GET_REPLACE_TOKENS ENTRY(6) ALTRET;
     2344     9365    1   DCL Z8EL$EXTRACT_PSEUDO_TEXT ENTRY(5);
     2345     9366    1   DCL Z8EL$PROCESS_COPY        ENTRY;
     2346     9367
     2347     9368    1   DCL RP$ PTR;
     2348     9369    1   DCL PSEUDO_START_LINE SBIN;
     2349     9370    1   DCL PSEUDO_START_COLUMN SBIN;
     2350     9371    1   DCL PSEUDO_END_LINE SBIN;
     2351     9372    1   DCL PSEUDO_END_COLUMN SBIN;
     2352     9373
     2353     9374        /* Process a replace statement */
     2354     9375
     2355     9376    1   ERROR_IN_REPLACE = FALSE;

   9376 13 000002   200011 470500                    LDP0    @ERROR_IN_REPLACE,,AUTO
        13 000003   000000 450100                    STZ     0,,PR0

     2356     9377    1   START_LINE = LEX_SYMBOL.LINE;

   9377 13 000004   200004 471500                    LDP1    @START_LINE,,AUTO
        13 000005   000004 235000 1                  LDA     LEX_SYMBOL+4
        13 000006   100000 755100                    STA     0,,PR1

     2357     9378    1   START_COLUMN = LEX_SYMBOL.COLUMN;

   9378 13 000007   200005 473500                    LDP3    @START_COLUMN,,AUTO
        13 000010   000005 236000 1                  LDQ     LEX_SYMBOL+5
        13 000011   300000 756100                    STQ     0,,PR3

     2358     9379
     2359     9380        %NEW_REPLACE_ITEM;

   9382 13 000012   000003 236000 14                 LDQ     3
        13 000013   200003 235100                    LDA     @REPLACE$,,AUTO
        13 000014   200020 757100                    STAQ    PSEUDO_END_COLUMN+2,,AUTO
PL6.E3A0      #016=Z8EL$PARSE_REPLACE File=Z8EL.:Z8A6TSI                         SAT 08/09/97 12:18 Page:579
        13 000015   200020 630500                    EPPR0   PSEUDO_END_COLUMN+2,,AUTO
        13 000016   000001 631400 14                 EPPR1   1
        13 000017   000000 701000 xent               TSX1    Z8ED$NEW_HEAP
        13 000020   000000 011000                    NOP     0

   9384 13 000021   200003 470500                    LDP0    @REPLACE$,,AUTO
        13 000022   000000 471500                    LDP1    0,,PR0
        13 000023   000000 236000 14                 LDQ     0
        13 000024   100001 756100                    STQ     1,,PR1

   9385 13 000025   000000 471500                    LDP1    0,,PR0
        13 000026   100002 756100                    STQ     2,,PR1

   9386 13 000027   000000 471500                    LDP1    0,,PR0
        13 000030   100003 450100                    STZ     3,,PR1

   9387 13 000031   000000 471500                    LDP1    0,,PR0
        13 000032   100000 756100                    STQ     0,,PR1

   9388 13 000033   000000 471500                    LDP1    0,,PR0
        13 000034   100005 450100                    STZ     5,,PR1

   9389 13 000035   000000 471500                    LDP1    0,,PR0
        13 000036   100004 450100                    STZ     4,,PR1

   9390 13 000037   000000 471500                    LDP1    0,,PR0
        13 000040   000000 236000 14                 LDQ     0
        13 000041   100006 756100                    STQ     6,,PR1

     2360     9393    1   RP$ = REPLACE$;

   9393 13 000042   000000 236100                    LDQ     0,,PR0
        13 000043   200012 756100                    STQ     RP$,,AUTO

     2361     9394
     2362     9395        %GET_A_TOKEN_OR_COPY;

PL6.E3A0      #016=Z8EL$PARSE_REPLACE File=Z8EL.:Z8A6TSI                         SAT 08/09/97 12:18 Page:580
   9404 13 000044   000000 236000 11                 LDQ     LEX_SYMBOL_QUEUE$
        13 000045   000000 116000 14                 CMPQ    0
        13 000046   000104 600000 13                 TZE     s:9427

   9410 13 000047   000000 471400 11                 LDP1    LEX_SYMBOL_QUEUE$
        13 000050   100010 235100                    LDA     8,,PR1
        13 000051   000010 755000 1                  STA     LEX_SYMBOL+8

   9411 13 000052   100010 720100                    LXL0    8,,PR1
        13 000053   000044 621010                    EAX1    36,X0
        13 000054   000044 622005                    EAX2    36,AL
        13 000055   000040 100540                    MLR     fill='000'O
        13 000056   100000 000011                    ADSC9   0,,PR1                   cn=0,n=*X1
        13 000057   000000 000012 1                  ADSC9   LEX_SYMBOL               cn=0,n=*X2

   9414 13 000060   100010 720100                    LXL0    8,,PR1
        13 000061   000044 621010                    EAX1    36,X0
        13 000062   000000 636011                    EAQ     0,X1
        13 000063   000022 732000                    QRS     18
        13 000064   000003 036007                    ADLQ    3,DL
        13 000065   000004 506007                    DIV     4,DL
        13 000066   200020 756100                    STQ     PSEUDO_END_COLUMN+2,,AUTO
        13 000067   200020 633500                    EPPR3   PSEUDO_END_COLUMN+2,,AUTO
        13 000070   200023 453500                    STP3    PSEUDO_END_COLUMN+5,,AUTO
        13 000071   000004 236000 14                 LDQ     4
        13 000072   200022 756100                    STQ     PSEUDO_END_COLUMN+4,,AUTO
        13 000073   200022 630500                    EPPR0   PSEUDO_END_COLUMN+4,,AUTO
        13 000074   000001 631400 14                 EPPR1   1
        13 000075   000000 701000 xent               TSX1    Z8ED$DISPOSE_HEAP
        13 000076   000000 011000                    NOP     0

   9419 13 000077   000000 236000 1                  LDQ     LEX_SYMBOL
        13 000100   000000 756000 11                 STQ     LEX_SYMBOL_QUEUE$

   9420 13 000101   000000 236000 14                 LDQ     0
        13 000102   000000 756000 1                  STQ     LEX_SYMBOL

PL6.E3A0      #016=Z8EL$PARSE_REPLACE File=Z8EL.:Z8A6TSI                         SAT 08/09/97 12:18 Page:581
   9421 13 000103   000133 710000 13                 TRA     s:9440

   9427 13 000104   000005 631400 14                 EPPR1   5
        13 000105   000000 701000 xent               TSX1    Z8ES$SCANNER
        13 000106   000000 011000                    NOP     0

   9428 13 000107   000001 235000 1                  LDA     LEX_SYMBOL+1
        13 000110   000121 601000 13                 TNZ     s:9434

   9429 13 000111   000005 631400 14                 EPPR1   5
        13 000112   000000 701000 xent               TSX1    Z8EL$GET_NEXT_SCANNER_LINE
        13 000113   000000 011000                    NOP     0

   9430 13 000114   000005 631400 14                 EPPR1   5
        13 000115   000000 701000 xent               TSX1    Z8ES$SCANNER
        13 000116   000000 011000                    NOP     0

   9431 13 000117   000001 235000 1                  LDA     LEX_SYMBOL+1
        13 000120   000111 600000 13                 TZE     s:9429

   9434 13 000121   000003 236000 1                  LDQ     LEX_SYMBOL+3
        13 000122   000000 116000 6                  CMPQ    CURRENT_SYMBOL_LEVEL
        13 000123   000133 600000 13                 TZE     s:9440
        13 000124   000002 236000 1                  LDQ     LEX_SYMBOL+2
        13 000125   200000 316003                    CANQ    65536,DU
        13 000126   000133 601000 13                 TNZ     s:9440

   9436 13 000127   000007 630400 14                 EPPR0   7
        13 000130   000006 631400 14                 EPPR1   6
        13 000131   000000 701000 xent               TSX1    Z8EL$HANDLE_LEVEL_CHANGE
        13 000132   000000 011000                    NOP     0

   9440 13 000133   000010 235000 1                  LDA     LEX_SYMBOL+8
        13 000134   000004 115007                    CMPA    4,DL
        13 000135   000233 601000 13                 TNZ     s:9490
        13 000136   000011 236000 1                  LDQ     LEX_SYMBOL+9
        13 000137   000000 116000 12                 CMPQ    0
PL6.E3A0      #016=Z8EL$PARSE_REPLACE File=Z8EL.:Z8A6TSI                         SAT 08/09/97 12:18 Page:582
        13 000140   000233 601000 13                 TNZ     s:9490

   9442 13 000141   000005 631400 14                 EPPR1   5
        13 000142   000000 701000 xent               TSX1    Z8EL$PROCESS_COPY
        13 000143   000000 011000                    NOP     0

   9445 13 000144   000000 236000 11                 LDQ     LEX_SYMBOL_QUEUE$
        13 000145   000000 116000 14                 CMPQ    0
        13 000146   000204 600000 13                 TZE     s:9468

   9451 13 000147   000000 470400 11                 LDP0    LEX_SYMBOL_QUEUE$
        13 000150   000010 235100                    LDA     8,,PR0
        13 000151   000010 755000 1                  STA     LEX_SYMBOL+8

   9452 13 000152   000010 720100                    LXL0    8,,PR0
        13 000153   000044 621010                    EAX1    36,X0
        13 000154   000044 622005                    EAX2    36,AL
        13 000155   000040 100540                    MLR     fill='000'O
        13 000156   000000 000011                    ADSC9   0,,PR0                   cn=0,n=*X1
        13 000157   000000 000012 1                  ADSC9   LEX_SYMBOL               cn=0,n=*X2

   9455 13 000160   000010 720100                    LXL0    8,,PR0
        13 000161   000044 621010                    EAX1    36,X0
        13 000162   000000 636011                    EAQ     0,X1
        13 000163   000022 732000                    QRS     18
        13 000164   000003 036007                    ADLQ    3,DL
        13 000165   000004 506007                    DIV     4,DL
        13 000166   200020 756100                    STQ     PSEUDO_END_COLUMN+2,,AUTO
        13 000167   200020 631500                    EPPR1   PSEUDO_END_COLUMN+2,,AUTO
        13 000170   200023 451500                    STP1    PSEUDO_END_COLUMN+5,,AUTO
        13 000171   000004 236000 14                 LDQ     4
        13 000172   200022 756100                    STQ     PSEUDO_END_COLUMN+4,,AUTO
        13 000173   200022 630500                    EPPR0   PSEUDO_END_COLUMN+4,,AUTO
        13 000174   000001 631400 14                 EPPR1   1
        13 000175   000000 701000 xent               TSX1    Z8ED$DISPOSE_HEAP
        13 000176   000000 011000                    NOP     0

PL6.E3A0      #016=Z8EL$PARSE_REPLACE File=Z8EL.:Z8A6TSI                         SAT 08/09/97 12:18 Page:583
   9460 13 000177   000000 236000 1                  LDQ     LEX_SYMBOL
        13 000200   000000 756000 11                 STQ     LEX_SYMBOL_QUEUE$

   9461 13 000201   000000 236000 14                 LDQ     0
        13 000202   000000 756000 1                  STQ     LEX_SYMBOL

   9462 13 000203   000233 710000 13                 TRA     s:9490

   9468 13 000204   000005 631400 14                 EPPR1   5
        13 000205   000000 701000 xent               TSX1    Z8ES$SCANNER
        13 000206   000000 011000                    NOP     0

   9469 13 000207   000001 235000 1                  LDA     LEX_SYMBOL+1
        13 000210   000221 601000 13                 TNZ     s:9475

   9470 13 000211   000005 631400 14                 EPPR1   5
        13 000212   000000 701000 xent               TSX1    Z8EL$GET_NEXT_SCANNER_LINE
        13 000213   000000 011000                    NOP     0

   9471 13 000214   000005 631400 14                 EPPR1   5
        13 000215   000000 701000 xent               TSX1    Z8ES$SCANNER
        13 000216   000000 011000                    NOP     0

   9472 13 000217   000001 235000 1                  LDA     LEX_SYMBOL+1
        13 000220   000211 600000 13                 TZE     s:9470

   9475 13 000221   000003 236000 1                  LDQ     LEX_SYMBOL+3
        13 000222   000000 116000 6                  CMPQ    CURRENT_SYMBOL_LEVEL
        13 000223   000233 600000 13                 TZE     s:9490
        13 000224   000002 236000 1                  LDQ     LEX_SYMBOL+2
        13 000225   200000 316003                    CANQ    65536,DU
        13 000226   000233 601000 13                 TNZ     s:9490

   9477 13 000227   000007 630400 14                 EPPR0   7
        13 000230   000006 631400 14                 EPPR1   6
        13 000231   000000 701000 xent               TSX1    Z8EL$HANDLE_LEVEL_CHANGE
        13 000232   000000 011000                    NOP     0
PL6.E3A0      #016=Z8EL$PARSE_REPLACE File=Z8EL.:Z8A6TSI                         SAT 08/09/97 12:18 Page:584

     2363     9484
     2364     9485
     2365     9486    2       DO UNTIL LEX_SYMBOL.TYPE = %PERIOD

     2366     9487    2                    OR ERROR_IN_REPLACE;
     2367     9488
     2368     9489
     2369     9490    2         CALL Z8EL$GET_REPLACE_TOKENS (RP$ -> REPLACE_ITEM.FROM_LIST$,

   9490 13 000233   200016 630500                    EPPR0   PSEUDO_END_COLUMN,,AUTO
        13 000234   200025 450500                    STP0    PSEUDO_END_COLUMN+7,,AUTO
        13 000235   200015 631500                    EPPR1   PSEUDO_END_LINE,,AUTO
        13 000236   200024 451500                    STP1    PSEUDO_END_COLUMN+6,,AUTO
        13 000237   200014 633500                    EPPR3   PSEUDO_START_COLUMN,,AUTO
        13 000240   200023 453500                    STP3    PSEUDO_END_COLUMN+5,,AUTO
        13 000241   200013 634500                    EPPR4   PSEUDO_START_LINE,,AUTO
        13 000242   200022 454500                    STP4    PSEUDO_END_COLUMN+4,,AUTO
        13 000243   200012 236100                    LDQ     RP$,,AUTO
        13 000244   000004 036003                    ADLQ    4,DU
        13 000245   200021 756100                    STQ     PSEUDO_END_COLUMN+3,,AUTO
        13 000246   200012 236100                    LDQ     RP$,,AUTO
        13 000247   000001 036003                    ADLQ    1,DU
        13 000250   200020 756100                    STQ     PSEUDO_END_COLUMN+2,,AUTO
        13 000251   200020 630500                    EPPR0   PSEUDO_END_COLUMN+2,,AUTO
        13 000252   000010 631400 14                 EPPR1   8
        13 000253   000000 701000 xent               TSX1    Z8EL$GET_REPLACE_TOKENS
        13 000254   000676 702000 13                 TSX2    REP_ERR

     2370     9491    2                                       RP$ -> REPLACE_ITEM.FROM_IS_PSEUDO_TEXT,
     2371     9492    2                                       PSEUDO_START_LINE,
     2372     9493    2                                       PSEUDO_START_COLUMN,
     2373     9494    2                                       PSEUDO_END_LINE,
     2374     9495    2                                       PSEUDO_END_COLUMN) ALTRET(REP_ERR);
     2375     9496
     2376     9497    2         IF RP$ -> REPLACE_ITEM.FROM_LIST$ = ADDR(NIL) THEN

PL6.E3A0      #016=Z8EL$PARSE_REPLACE File=Z8EL.:Z8A6TSI                         SAT 08/09/97 12:18 Page:585
   9497 13 000255   200012 470500                    LDP0    RP$,,AUTO
        13 000256   000001 236100                    LDQ     1,,PR0
        13 000257   000000 116000 14                 CMPQ    0
        13 000260   000322 601000 13                 TNZ     s:9521

     2377     9498    3           DO;

     2378     9499    3             CALL Z8AE$ERROR(%E$REPLACE_NULL_SPEC,

   9499 13 000261   000013 630400 14                 EPPR0   11
        13 000262   000011 631400 14                 EPPR1   9
        13 000263   000000 701000 xent               TSX1    Z8AE$ERROR
        13 000264   000000 011000                    NOP     0

     2379     9500    3                             LEX_SYMBOL.LINE,
     2380     9501    3                             LEX_SYMBOL.COLUMN);
     2381     9502                  %COPY_TO_NEW_LEX_SYMBOL (FROM$ = "ADDR(LEX_SYMBOL)",
     2382     9503                                         TO$   = RP$ -> REPLACE_ITEM.FROM_LIST$);

   9505 13 000265   000010 236000 1                  LDQ     LEX_SYMBOL+8
        13 000266   000047 036007                    ADLQ    39,DL
        13 000267   000004 506007                    DIV     4,DL
        13 000270   200020 756100                    STQ     PSEUDO_END_COLUMN+2,,AUTO
        13 000271   200020 630500                    EPPR0   PSEUDO_END_COLUMN+2,,AUTO
        13 000272   200023 450500                    STP0    PSEUDO_END_COLUMN+5,,AUTO
        13 000273   200012 236100                    LDQ     RP$,,AUTO
        13 000274   000001 036003                    ADLQ    1,DU
        13 000275   200022 756100                    STQ     PSEUDO_END_COLUMN+4,,AUTO
        13 000276   200022 630500                    EPPR0   PSEUDO_END_COLUMN+4,,AUTO
        13 000277   000001 631400 14                 EPPR1   1
        13 000300   000000 701000 xent               TSX1    Z8ED$NEW_HEAP
        13 000301   000000 011000                    NOP     0

   9512 13 000302   200012 470500                    LDP0    RP$,,AUTO
        13 000303   000001 471500                    LDP1    1,,PR0
        13 000304   000010 235000 1                  LDA     LEX_SYMBOL+8
        13 000305   100010 755100                    STA     8,,PR1
PL6.E3A0      #016=Z8EL$PARSE_REPLACE File=Z8EL.:Z8A6TSI                         SAT 08/09/97 12:18 Page:586

   9513 13 000306   000001 471500                    LDP1    1,,PR0
        13 000307   100010 720100                    LXL0    8,,PR1
        13 000310   000044 621010                    EAX1    36,X0
        13 000311   000010 722000 1                  LXL2    LEX_SYMBOL+8
        13 000312   000044 623012                    EAX3    36,X2
        13 000313   000140 100440                    MLR     fill='000'O
        13 000314   000000 000013 1                  ADSC9   LEX_SYMBOL               cn=0,n=*X3
        13 000315   100000 000011                    ADSC9   0,,PR1                   cn=0,n=*X1

     2383     9518    3             ERROR_IN_REPLACE = TRUE;

   9518 13 000316   400000 236003                    LDQ     -131072,DU
        13 000317   200011 471500                    LDP1    @ERROR_IN_REPLACE,,AUTO
        13 000320   100000 756100                    STQ     0,,PR1

     2384     9519    3           END;

   9519 13 000321   000656 710000 13                 TRA     s:9671

     2385     9520    2         ELSE
     2386     9521    2           IF NOT RP$ -> REPLACE_ITEM.FROM_IS_PSEUDO_TEXT

   9521 13 000322   000004 234100                    SZN     4,,PR0
        13 000323   000345 604000 13                 TMI     s:9538
        13 000324   000001 471500                    LDP1    1,,PR0
        13 000325   100010 720100                    LXL0    8,,PR1
        13 000326   040000 106540                    CMPC    fill='040'O
        13 000327   100011 000010                    ADSC9   9,,PR1                   cn=0,n=*X0
        13 000330   000001 000003 12                 ADSC9   1                        cn=0,n=3
        13 000331   000345 601000 13                 TNZ     s:9538

     2387     9522    2             AND SUBSTR(RP$ -> REPLACE_ITEM.FROM_LIST$ -> BASED_LEX_SYMBOL.SYMBOL,
     2388     9523    2                     0,
     2389     9524    2                     RP$ -> REPLACE_ITEM.FROM_LIST$ -> BASED_LEX_SYMBOL.SIZE) = 'OFF'
              9524                              THEN
     2390     9525    3             DO;
PL6.E3A0      #016=Z8EL$PARSE_REPLACE File=Z8EL.:Z8A6TSI                         SAT 08/09/97 12:18 Page:587

     2391     9526    3               IF LEX_SYMBOL.TYPE ~= %PERIOD THEN

   9526 13 000332   000001 235000 1                  LDA     LEX_SYMBOL+1
        13 000333   000014 115007                    CMPA    12,DL
        13 000334   000656 600000 13                 TZE     s:9671

     2392     9527    4                 DO;

     2393     9528    4                   CALL Z8AE$ERROR (%E$REPLACE_PERIOD_EXPECTED,

   9528 13 000335   000017 630400 14                 EPPR0   15
        13 000336   000011 631400 14                 EPPR1   9
        13 000337   000000 701000 xent               TSX1    Z8AE$ERROR
        13 000340   000000 011000                    NOP     0

     2394     9529    4                                    LEX_SYMBOL.LINE,
     2395     9530    4                                    LEX_SYMBOL.COLUMN);
     2396     9531    4                   ERROR_IN_REPLACE = TRUE;

   9531 13 000341   400000 236003                    LDQ     -131072,DU
        13 000342   200011 470500                    LDP0    @ERROR_IN_REPLACE,,AUTO
        13 000343   000000 756100                    STQ     0,,PR0

     2397     9532    4                 END;

     2398     9533    3             END;

   9533 13 000344   000656 710000 13                 TRA     s:9671

     2399     9534    2           ELSE
     2400     9535    3             DO;  /* get the TO_LIST */

     2401     9536
     2402     9537
     2403     9538    3                IF (SUBSTR(LEX_SYMBOL.SYMBOL, 0, LEX_SYMBOL.SIZE) ~= 'BY') THEN

PL6.E3A0      #016=Z8EL$PARSE_REPLACE File=Z8EL.:Z8A6TSI                         SAT 08/09/97 12:18 Page:588
   9538 13 000345   000010 720000 1                  LXL0    LEX_SYMBOL+8
        13 000346   040000 106440                    CMPC    fill='040'O
        13 000347   000011 000010 1                  ADSC9   LEX_SYMBOL+9             cn=0,n=*X0
        13 000350   000002 000002 12                 ADSC9   2                        cn=0,n=2
        13 000351   000362 600000 13                 TZE     s:9547

     2404     9539    4                 DO;

     2405     9540    4                   CALL Z8AE$ERROR (%E$REPLACE_BY_EXPECTED,

   9540 13 000352   000023 630400 14                 EPPR0   19
        13 000353   000011 631400 14                 EPPR1   9
        13 000354   000000 701000 xent               TSX1    Z8AE$ERROR
        13 000355   000000 011000                    NOP     0

     2406     9541    4                                    LEX_SYMBOL.LINE,
     2407     9542    4                                    LEX_SYMBOL.COLUMN);
     2408     9543    4                   ERROR_IN_REPLACE = TRUE;

   9543 13 000356   400000 236003                    LDQ     -131072,DU
        13 000357   200011 470500                    LDP0    @ERROR_IN_REPLACE,,AUTO
        13 000360   000000 756100                    STQ     0,,PR0

     2409     9544    4                 END;

   9544 13 000361   000656 710000 13                 TRA     s:9671

     2410     9545    3               ELSE
     2411     9546    4                 DO;

     2412     9547    4                   O1COM.REPLACE_BY_FLAG = TRUE;

   9547 13 000362   200000 236003                    LDQ     65536,DU
        13 000363   001337 256000 xsym               ORSQ    O1COM+735

     2413     9548                        /* Get to replace clause */
     2414     9549                        %GET_A_TOKEN_OR_COPY;
PL6.E3A0      #016=Z8EL$PARSE_REPLACE File=Z8EL.:Z8A6TSI                         SAT 08/09/97 12:18 Page:589

   9558 13 000364   000000 236000 11                 LDQ     LEX_SYMBOL_QUEUE$
        13 000365   000000 116000 14                 CMPQ    0
        13 000366   000424 600000 13                 TZE     s:9581

   9564 13 000367   000000 471400 11                 LDP1    LEX_SYMBOL_QUEUE$
        13 000370   100010 235100                    LDA     8,,PR1
        13 000371   000010 755000 1                  STA     LEX_SYMBOL+8

   9565 13 000372   100010 720100                    LXL0    8,,PR1
        13 000373   000044 621010                    EAX1    36,X0
        13 000374   000044 622005                    EAX2    36,AL
        13 000375   000040 100540                    MLR     fill='000'O
        13 000376   100000 000011                    ADSC9   0,,PR1                   cn=0,n=*X1
        13 000377   000000 000012 1                  ADSC9   LEX_SYMBOL               cn=0,n=*X2

   9568 13 000400   100010 720100                    LXL0    8,,PR1
        13 000401   000044 621010                    EAX1    36,X0
        13 000402   000000 636011                    EAQ     0,X1
        13 000403   000022 732000                    QRS     18
        13 000404   000003 036007                    ADLQ    3,DL
        13 000405   000004 506007                    DIV     4,DL
        13 000406   200020 756100                    STQ     PSEUDO_END_COLUMN+2,,AUTO
        13 000407   200020 633500                    EPPR3   PSEUDO_END_COLUMN+2,,AUTO
        13 000410   200023 453500                    STP3    PSEUDO_END_COLUMN+5,,AUTO
        13 000411   000004 236000 14                 LDQ     4
        13 000412   200022 756100                    STQ     PSEUDO_END_COLUMN+4,,AUTO
        13 000413   200022 630500                    EPPR0   PSEUDO_END_COLUMN+4,,AUTO
        13 000414   000001 631400 14                 EPPR1   1
        13 000415   000000 701000 xent               TSX1    Z8ED$DISPOSE_HEAP
        13 000416   000000 011000                    NOP     0

   9573 13 000417   000000 236000 1                  LDQ     LEX_SYMBOL
        13 000420   000000 756000 11                 STQ     LEX_SYMBOL_QUEUE$

   9574 13 000421   000000 236000 14                 LDQ     0
        13 000422   000000 756000 1                  STQ     LEX_SYMBOL
PL6.E3A0      #016=Z8EL$PARSE_REPLACE File=Z8EL.:Z8A6TSI                         SAT 08/09/97 12:18 Page:590

   9575 13 000423   000453 710000 13                 TRA     s:9594

   9581 13 000424   000005 631400 14                 EPPR1   5
        13 000425   000000 701000 xent               TSX1    Z8ES$SCANNER
        13 000426   000000 011000                    NOP     0

   9582 13 000427   000001 235000 1                  LDA     LEX_SYMBOL+1
        13 000430   000441 601000 13                 TNZ     s:9588

   9583 13 000431   000005 631400 14                 EPPR1   5
        13 000432   000000 701000 xent               TSX1    Z8EL$GET_NEXT_SCANNER_LINE
        13 000433   000000 011000                    NOP     0

   9584 13 000434   000005 631400 14                 EPPR1   5
        13 000435   000000 701000 xent               TSX1    Z8ES$SCANNER
        13 000436   000000 011000                    NOP     0

   9585 13 000437   000001 235000 1                  LDA     LEX_SYMBOL+1
        13 000440   000431 600000 13                 TZE     s:9583

   9588 13 000441   000003 236000 1                  LDQ     LEX_SYMBOL+3
        13 000442   000000 116000 6                  CMPQ    CURRENT_SYMBOL_LEVEL
        13 000443   000453 600000 13                 TZE     s:9594
        13 000444   000002 236000 1                  LDQ     LEX_SYMBOL+2
        13 000445   200000 316003                    CANQ    65536,DU
        13 000446   000453 601000 13                 TNZ     s:9594

   9590 13 000447   000007 630400 14                 EPPR0   7
        13 000450   000006 631400 14                 EPPR1   6
        13 000451   000000 701000 xent               TSX1    Z8EL$HANDLE_LEVEL_CHANGE
        13 000452   000000 011000                    NOP     0

   9594 13 000453   000010 235000 1                  LDA     LEX_SYMBOL+8
        13 000454   000004 115007                    CMPA    4,DL
        13 000455   000553 601000 13                 TNZ     s:9638
        13 000456   000011 236000 1                  LDQ     LEX_SYMBOL+9
PL6.E3A0      #016=Z8EL$PARSE_REPLACE File=Z8EL.:Z8A6TSI                         SAT 08/09/97 12:18 Page:591
        13 000457   000000 116000 12                 CMPQ    0
        13 000460   000553 601000 13                 TNZ     s:9638

   9596 13 000461   000005 631400 14                 EPPR1   5
        13 000462   000000 701000 xent               TSX1    Z8EL$PROCESS_COPY
        13 000463   000000 011000                    NOP     0

   9599 13 000464   000000 236000 11                 LDQ     LEX_SYMBOL_QUEUE$
        13 000465   000000 116000 14                 CMPQ    0
        13 000466   000524 600000 13                 TZE     s:9622

   9605 13 000467   000000 470400 11                 LDP0    LEX_SYMBOL_QUEUE$
        13 000470   000010 235100                    LDA     8,,PR0
        13 000471   000010 755000 1                  STA     LEX_SYMBOL+8

   9606 13 000472   000010 720100                    LXL0    8,,PR0
        13 000473   000044 621010                    EAX1    36,X0
        13 000474   000044 622005                    EAX2    36,AL
        13 000475   000040 100540                    MLR     fill='000'O
        13 000476   000000 000011                    ADSC9   0,,PR0                   cn=0,n=*X1
        13 000477   000000 000012 1                  ADSC9   LEX_SYMBOL               cn=0,n=*X2

   9609 13 000500   000010 720100                    LXL0    8,,PR0
        13 000501   000044 621010                    EAX1    36,X0
        13 000502   000000 636011                    EAQ     0,X1
        13 000503   000022 732000                    QRS     18
        13 000504   000003 036007                    ADLQ    3,DL
        13 000505   000004 506007                    DIV     4,DL
        13 000506   200020 756100                    STQ     PSEUDO_END_COLUMN+2,,AUTO
        13 000507   200020 631500                    EPPR1   PSEUDO_END_COLUMN+2,,AUTO
        13 000510   200023 451500                    STP1    PSEUDO_END_COLUMN+5,,AUTO
        13 000511   000004 236000 14                 LDQ     4
        13 000512   200022 756100                    STQ     PSEUDO_END_COLUMN+4,,AUTO
        13 000513   200022 630500                    EPPR0   PSEUDO_END_COLUMN+4,,AUTO
        13 000514   000001 631400 14                 EPPR1   1
        13 000515   000000 701000 xent               TSX1    Z8ED$DISPOSE_HEAP
        13 000516   000000 011000                    NOP     0
PL6.E3A0      #016=Z8EL$PARSE_REPLACE File=Z8EL.:Z8A6TSI                         SAT 08/09/97 12:18 Page:592

   9614 13 000517   000000 236000 1                  LDQ     LEX_SYMBOL
        13 000520   000000 756000 11                 STQ     LEX_SYMBOL_QUEUE$

   9615 13 000521   000000 236000 14                 LDQ     0
        13 000522   000000 756000 1                  STQ     LEX_SYMBOL

   9616 13 000523   000553 710000 13                 TRA     s:9638

   9622 13 000524   000005 631400 14                 EPPR1   5
        13 000525   000000 701000 xent               TSX1    Z8ES$SCANNER
        13 000526   000000 011000                    NOP     0

   9623 13 000527   000001 235000 1                  LDA     LEX_SYMBOL+1
        13 000530   000541 601000 13                 TNZ     s:9629

   9624 13 000531   000005 631400 14                 EPPR1   5
        13 000532   000000 701000 xent               TSX1    Z8EL$GET_NEXT_SCANNER_LINE
        13 000533   000000 011000                    NOP     0

   9625 13 000534   000005 631400 14                 EPPR1   5
        13 000535   000000 701000 xent               TSX1    Z8ES$SCANNER
        13 000536   000000 011000                    NOP     0

   9626 13 000537   000001 235000 1                  LDA     LEX_SYMBOL+1
        13 000540   000531 600000 13                 TZE     s:9624

   9629 13 000541   000003 236000 1                  LDQ     LEX_SYMBOL+3
        13 000542   000000 116000 6                  CMPQ    CURRENT_SYMBOL_LEVEL
        13 000543   000553 600000 13                 TZE     s:9638
        13 000544   000002 236000 1                  LDQ     LEX_SYMBOL+2
        13 000545   200000 316003                    CANQ    65536,DU
        13 000546   000553 601000 13                 TNZ     s:9638

   9631 13 000547   000007 630400 14                 EPPR0   7
        13 000550   000006 631400 14                 EPPR1   6
        13 000551   000000 701000 xent               TSX1    Z8EL$HANDLE_LEVEL_CHANGE
PL6.E3A0      #016=Z8EL$PARSE_REPLACE File=Z8EL.:Z8A6TSI                         SAT 08/09/97 12:18 Page:593
        13 000552   000000 011000                    NOP     0

     2415     9638    4                   CALL Z8EL$GET_REPLACE_TOKENS (RP$ -> REPLACE_ITEM.TO_LIST$,

   9638 13 000553   200016 630500                    EPPR0   PSEUDO_END_COLUMN,,AUTO
        13 000554   200025 450500                    STP0    PSEUDO_END_COLUMN+7,,AUTO
        13 000555   200015 631500                    EPPR1   PSEUDO_END_LINE,,AUTO
        13 000556   200024 451500                    STP1    PSEUDO_END_COLUMN+6,,AUTO
        13 000557   200014 633500                    EPPR3   PSEUDO_START_COLUMN,,AUTO
        13 000560   200023 453500                    STP3    PSEUDO_END_COLUMN+5,,AUTO
        13 000561   200013 634500                    EPPR4   PSEUDO_START_LINE,,AUTO
        13 000562   200022 454500                    STP4    PSEUDO_END_COLUMN+4,,AUTO
        13 000563   200012 236100                    LDQ     RP$,,AUTO
        13 000564   000005 036003                    ADLQ    5,DU
        13 000565   200021 756100                    STQ     PSEUDO_END_COLUMN+3,,AUTO
        13 000566   200012 236100                    LDQ     RP$,,AUTO
        13 000567   000002 036003                    ADLQ    2,DU
        13 000570   200020 756100                    STQ     PSEUDO_END_COLUMN+2,,AUTO
        13 000571   200020 630500                    EPPR0   PSEUDO_END_COLUMN+2,,AUTO
        13 000572   000010 631400 14                 EPPR1   8
        13 000573   000000 701000 xent               TSX1    Z8EL$GET_REPLACE_TOKENS
        13 000574   000676 702000 13                 TSX2    REP_ERR

     2416     9639    4                                                RP$ -> REPLACE_ITEM.TO_IS_PSEUDO_TEXT,
     2417     9640    4                                                 PSEUDO_START_LINE,
     2418     9641    4                                                 PSEUDO_START_COLUMN,
     2419     9642    4                                                 PSEUDO_END_LINE,
     2420     9643    4                                                 PSEUDO_END_COLUMN) ALTRET(REP_ERR);
     2421     9644    4                   IF RP$ -> REPLACE_ITEM.TO_IS_PSEUDO_TEXT THEN

   9644 13 000575   200012 470500                    LDP0    RP$,,AUTO
        13 000576   000005 234100                    SZN     5,,PR0
        13 000577   000617 605000 13                 TPL     s:9650

     2422     9645    4                     CALL Z8EL$EXTRACT_PSEUDO_TEXT (RP$ -> REPLACE_ITEM.
              9645                              TO_PSEUDO_TEXT_LINES$,

PL6.E3A0      #016=Z8EL$PARSE_REPLACE File=Z8EL.:Z8A6TSI                         SAT 08/09/97 12:18 Page:594
   9645 13 000600   200016 631500                    EPPR1   PSEUDO_END_COLUMN,,AUTO
        13 000601   200024 451500                    STP1    PSEUDO_END_COLUMN+6,,AUTO
        13 000602   200015 633500                    EPPR3   PSEUDO_END_LINE,,AUTO
        13 000603   200023 453500                    STP3    PSEUDO_END_COLUMN+5,,AUTO
        13 000604   200014 634500                    EPPR4   PSEUDO_START_COLUMN,,AUTO
        13 000605   200022 454500                    STP4    PSEUDO_END_COLUMN+4,,AUTO
        13 000606   200013 635500                    EPPR5   PSEUDO_START_LINE,,AUTO
        13 000607   200021 455500                    STP5    PSEUDO_END_COLUMN+3,,AUTO
        13 000610   200012 236100                    LDQ     RP$,,AUTO
        13 000611   000006 036003                    ADLQ    6,DU
        13 000612   200020 756100                    STQ     PSEUDO_END_COLUMN+2,,AUTO
        13 000613   200020 630500                    EPPR0   PSEUDO_END_COLUMN+2,,AUTO
        13 000614   000026 631400 14                 EPPR1   22
        13 000615   000000 701000 xent               TSX1    Z8EL$EXTRACT_PSEUDO_TEXT
        13 000616   000000 011000                    NOP     0

     2423     9646    4                                                    PSEUDO_START_LINE,
     2424     9647    4                                                    PSEUDO_START_COLUMN,
     2425     9648    4                                                    PSEUDO_END_LINE,
     2426     9649    4                                                    PSEUDO_END_COLUMN);
     2427     9650    4                   O1COM.REPLACE_BY_FLAG = FALSE;

   9650 13 000617   000027 236000 14                 LDQ     23
        13 000620   001337 356000 xsym               ANSQ    O1COM+735

     2428     9651    4                   IF LEX_SYMBOL.TYPE ~= %PERIOD THEN

   9651 13 000621   000001 235000 1                  LDA     LEX_SYMBOL+1
        13 000622   000014 115007                    CMPA    12,DL
        13 000623   000656 600000 13                 TZE     s:9671

     2429     9652    5                     DO;

     2430     9653                            %NEW_REPLACE_ITEM(@REPLACE$="RP$ -> REPLACE_ITEM.LINK$");

   9655 13 000624   000003 236000 14                 LDQ     3
        13 000625   200012 235100                    LDA     RP$,,AUTO
PL6.E3A0      #016=Z8EL$PARSE_REPLACE File=Z8EL.:Z8A6TSI                         SAT 08/09/97 12:18 Page:595
        13 000626   200020 757100                    STAQ    PSEUDO_END_COLUMN+2,,AUTO
        13 000627   200020 630500                    EPPR0   PSEUDO_END_COLUMN+2,,AUTO
        13 000630   000001 631400 14                 EPPR1   1
        13 000631   000000 701000 xent               TSX1    Z8ED$NEW_HEAP
        13 000632   000000 011000                    NOP     0

   9657 13 000633   200012 470500                    LDP0    RP$,,AUTO
        13 000634   000000 471500                    LDP1    0,,PR0
        13 000635   000000 236000 14                 LDQ     0
        13 000636   100001 756100                    STQ     1,,PR1

   9658 13 000637   000000 471500                    LDP1    0,,PR0
        13 000640   100002 756100                    STQ     2,,PR1

   9659 13 000641   000000 471500                    LDP1    0,,PR0
        13 000642   100003 450100                    STZ     3,,PR1

   9660 13 000643   000000 471500                    LDP1    0,,PR0
        13 000644   100000 756100                    STQ     0,,PR1

   9661 13 000645   000000 471500                    LDP1    0,,PR0
        13 000646   100005 450100                    STZ     5,,PR1

   9662 13 000647   000000 471500                    LDP1    0,,PR0
        13 000650   100004 450100                    STZ     4,,PR1

   9663 13 000651   000000 471500                    LDP1    0,,PR0
        13 000652   000000 236000 14                 LDQ     0
        13 000653   100006 756100                    STQ     6,,PR1

     2431     9666    5                       RP$ = RP$ -> REPLACE_ITEM.LINK$;

   9666 13 000654   000000 236100                    LDQ     0,,PR0
        13 000655   200012 756100                    STQ     RP$,,AUTO

     2432     9667    5                     END;

PL6.E3A0      #016=Z8EL$PARSE_REPLACE File=Z8EL.:Z8A6TSI                         SAT 08/09/97 12:18 Page:596
     2433     9668    4                 END;

     2434     9669    3             END;

     2435     9670
     2436     9671    2       END;   /* DO UNTIL */

   9671 13 000656   000001 235000 1                  LDA     LEX_SYMBOL+1
        13 000657   000014 115007                    CMPA    12,DL
        13 000660   000664 600000 13                 TZE     s:9673
        13 000661   200011 470500                    LDP0    @ERROR_IN_REPLACE,,AUTO
        13 000662   000000 234100                    SZN     0,,PR0
        13 000663   000233 605000 13                 TPL     s:9490

     2437     9672
     2438     9673    1   END_LINE = LEX_SYMBOL.END_LINE;

   9673 13 000664   200006 470500                    LDP0    @END_LINE,,AUTO
        13 000665   000006 236000 1                  LDQ     LEX_SYMBOL+6
        13 000666   000000 756100                    STQ     0,,PR0

     2439     9674    1   END_COLUMN = LEX_SYMBOL.END_COLUMN;

   9674 13 000667   200007 471500                    LDP1    @END_COLUMN,,AUTO
        13 000670   000007 235000 1                  LDA     LEX_SYMBOL+7
        13 000671   100000 755100                    STA     0,,PR1

     2440     9675    1   END_LEVEL = LEX_SYMBOL.LEVEL;

   9675 13 000672   200010 473500                    LDP3    @END_LEVEL,,AUTO
        13 000673   000003 236000 1                  LDQ     LEX_SYMBOL+3
        13 000674   300000 756100                    STQ     0,,PR3

     2441     9676
     2442     9677    1   RETURN;

   9677 13 000675   000000 702200 xent               TSX2  ! X66_ARET
PL6.E3A0      #016=Z8EL$PARSE_REPLACE File=Z8EL.:Z8A6TSI                         SAT 08/09/97 12:18 Page:597

     2443     9678
     2444     9679        /* Error exit */
     2445     9680
     2446     9681    1   REP_ERR:
     2447     9682    1     ERROR_IN_REPLACE = TRUE;

   9682 13 000676   400000 236003       REP_ERR      LDQ     -131072,DU
        13 000677   200011 470500                    LDP0    @ERROR_IN_REPLACE,,AUTO
        13 000700   000000 756100                    STQ     0,,PR0

     2448     9683    1     O1COM.REPLACE_BY_FLAG = FALSE;

   9683 13 000701   000027 236000 14                 LDQ     23
        13 000702   001337 356000 xsym               ANSQ    O1COM+735

     2449     9684    1     O1COM.PSEUDO_TEXT_FLAG = FALSE;

   9684 13 000703   001330 450000 xsym               STZ     O1COM+728

     2450     9685
     2451     9686    1     CALL Z8AE$ERROR (%E$REPLACE_SYNTAX_ERROR,

   9686 13 000704   000031 630400 14                 EPPR0   25
        13 000705   000011 631400 14                 EPPR1   9
        13 000706   000000 701000 xent               TSX1    Z8AE$ERROR
        13 000707   000000 011000                    NOP     0

     2452     9687    1                      LEX_SYMBOL.LINE,
     2453     9688    1                      LEX_SYMBOL.COLUMN);
     2454     9689
     2455     9690    1     RETURN;

   9690 13 000710   000000 702200 xent               TSX2  ! X66_ARET
     2456     9691
     2457     9692    1   END Z8EL$PARSE_REPLACE;
     2458     9693        %EOD;
PL6.E3A0      #016=Z8EL$PARSE_REPLACE File=Z8EL.:Z8A6TSI                         SAT 08/09/97 12:18 Page:598

PL6.E3A0      #016=Z8EL$PARSE_REPLACE File=Z8EL.:Z8A6TSI                         SAT 08/09/97 12:18 Page:599
--  Include file information  --

   Z8A_ERR_NUMS.:Z8A6TOU  is referenced.
   Z8E_WINDOW.:Z8A6TOU  is referenced.
   Z8E_REPLACE.:Z8A6TOU  cannot be made into a system file and is referenced.
   Z8E_O1COM.:Z8A6TOU  cannot be made into a system file and is referenced.
   Z8E_HEAP.:Z8A6TOU  cannot be made into a system file and is referenced.
   Z8A_LEX_SYMB.:Z8A6TOU  cannot be made into a system file and is referenced.
   Z8E_STACKS.:Z8A6TOU  cannot be made into a system file and is referenced.
   Z8A_COMCOM.:Z8A6TOU  cannot be made into a system file and is referenced.
   X8A_COM_MACS.:X8A6TOU  is referenced.
   Z8A_NAMES.:Z8A6TOU  is referenced.
   Z8A_SUPP_MAC.:Z8A6TOU  is referenced.
   Z8A_DEFC.:Z8A6TOU  cannot be made into a system file and is referenced.
      No diagnostics issued in procedure Z8EL$PARSE_REPLACE.
PL6.E3A0      #016=Z8EL$PARSE_REPLACE File=Z8EL.:Z8A6TSI                         SAT 08/09/97 12:18 Page:600

 **** Variables and constants ****

  ****  Section 000 LblCom ITERATION

  ****  Scalars and arrays  ****
OctLoc.c.b A Datatyp(siz) R M Lvl/name                 OctLoc.c.b A Datatyp(siz) R M Lvl/name

     0-0-0/w SBIN              1 ITERATION

  ****  Section 001 LblCom LEX_SYMBOL

  ****  Scalars and arrays  ****
OctLoc.c.b A Datatyp(siz) R M Lvl/name                 OctLoc.c.b A Datatyp(siz) R M Lvl/name

     0-0-0/w STRC(3240)  r     1 LEX_SYMBOL                 0-0-0/w STRC(3240)        1 LEX_SYMBOL_WORDS

  ****  Section 002 LblCom CURRENT_LEX_SYMBOL$

  ****  Scalars and arrays  ****
OctLoc.c.b A Datatyp(siz) R M Lvl/name                 OctLoc.c.b A Datatyp(siz) R M Lvl/name

     0-0-0/w PTR         r     1 CURRENT_LEX_SYMBOL$

  ****  Section 003 LblCom TEMP_LEX_SYMBOL

  ****  Scalars and arrays  ****
OctLoc.c.b A Datatyp(siz) R M Lvl/name                 OctLoc.c.b A Datatyp(siz) R M Lvl/name

     0-0-0/w STRC(3240)        1 TEMP_LEX_SYMBOL

  ****  Section 004 LblCom TEMP_LEX_SYMBOL2

  ****  Scalars and arrays  ****
OctLoc.c.b A Datatyp(siz) R M Lvl/name                 OctLoc.c.b A Datatyp(siz) R M Lvl/name

     0-0-0/w STRC(3240)        1 TEMP_LEX_SYMBOL2

PL6.E3A0      #016=Z8EL$PARSE_REPLACE File=Z8EL.:Z8A6TSI                         SAT 08/09/97 12:18 Page:601
  ****  Section 005 LblCom HEAP$

  ****  Scalars and arrays  ****
OctLoc.c.b A Datatyp(siz) R M Lvl/name                 OctLoc.c.b A Datatyp(siz) R M Lvl/name

     0-0-0/w PTR               1 HEAP$

  ****  Section 006 LblCom CURRENT_SYMBOL_LEVEL

  ****  Scalars and arrays  ****
OctLoc.c.b A Datatyp(siz) R M Lvl/name                 OctLoc.c.b A Datatyp(siz) R M Lvl/name

     0-0-0/w SBIN        r     1 CURRENT_SYMBOL_LEVEL

  ****  Section 007 LblCom REPLACE_ACTIVE

  ****  Scalars and arrays  ****
OctLoc.c.b A Datatyp(siz) R M Lvl/name                 OctLoc.c.b A Datatyp(siz) R M Lvl/name

     0-0-0/b BIT               1 REPLACE_ACTIVE

  ****  Section 008 LblCom IGNORE_COPY_REPLACE

  ****  Scalars and arrays  ****
OctLoc.c.b A Datatyp(siz) R M Lvl/name                 OctLoc.c.b A Datatyp(siz) R M Lvl/name

     0-0-0/b BIT               1 IGNORE_COPY_REPLACE

  ****  Section 009 LblCom COPY_DEBUG_LEVEL

  ****  Scalars and arrays  ****
OctLoc.c.b A Datatyp(siz) R M Lvl/name                 OctLoc.c.b A Datatyp(siz) R M Lvl/name

     0-0-0/w SBIN              1 COPY_DEBUG_LEVEL

  ****  Section 010 LblCom REPLACE_LIST

PL6.E3A0      #016=Z8EL$PARSE_REPLACE File=Z8EL.:Z8A6TSI                         SAT 08/09/97 12:18 Page:602
  ****  Scalars and arrays  ****
OctLoc.c.b A Datatyp(siz) R M Lvl/name                 OctLoc.c.b A Datatyp(siz) R M Lvl/name

     0-0-0/w STRC(144)         1 REPLACE_LIST

  ****  Section 011 LblCom LEX_SYMBOL_QUEUE$

  ****  Scalars and arrays  ****
OctLoc.c.b A Datatyp(siz) R M Lvl/name                 OctLoc.c.b A Datatyp(siz) R M Lvl/name

     0-0-0/w PTR         r     1 LEX_SYMBOL_QUEUE$

  ****  Auto variables  ****

  ****  Scalars and arrays  ****
OctLoc.c.b A Datatyp(siz) R M Lvl/name                 OctLoc.c.b A Datatyp(siz) R M Lvl/name

     7-0-0/w PTR         r     1 @END_COLUMN               10-0-0/w PTR         r     1 @END_LEVEL
     6-0-0/w PTR         r     1 @END_LINE                 11-0-0/w PTR         r     1 @ERROR_IN_REPLACE
     3-0-0/w PTR         r     1 @REPLACE$                  5-0-0/w PTR         r     1 @START_COLUMN
     4-0-0/w PTR         r     1 @START_LINE               *0-0-0/w SBIN        r     1 END_COLUMN
    *0-0-0/w SBIN        r     1 END_LEVEL                 *0-0-0/w SBIN        r     1 END_LINE
    *0-0-0/w BIT         r     1 ERROR_IN_REPLACE          16-0-0/w SBIN        r     1 PSEUDO_END_COLUMN
    15-0-0/w SBIN        r     1 PSEUDO_END_LINE           14-0-0/w SBIN        r     1 PSEUDO_START_COLUMN
    13-0-0/w SBIN        r     1 PSEUDO_START_LINE         *0-0-0/w PTR         r     1 REPLACE$
    12-0-0/w PTR         r     1 RP$                       *0-0-0/w SBIN        r     1 START_COLUMN
    *0-0-0/w SBIN        r     1 START_LINE

  ****  SYMREF variables  ****

  ****  Scalars and arrays  ****
OctLoc.c.b A Datatyp(siz) R M Lvl/name                 OctLoc.c.b A Datatyp(siz) R M Lvl/name

     0-0-0/d STRC(13248)       1 COMCOM
     0-0-0/w STRC(180)         1 HIER_STK(0:50)
     0-0-0/w SBIN              1 HIER_STK_PTR               0-0-0/d STRC(11580) r     1 O1COM
     0-0-0/w STRC(144)         1 PAGE_FORMAT                0-0-0/w STRC(153)         1 REP_STK(0:50)
PL6.E3A0      #016=Z8EL$PARSE_REPLACE File=Z8EL.:Z8A6TSI                         SAT 08/09/97 12:18 Page:603
     0-0-0/w SBIN              1 REP_STK_PTR

  ****  BASED and DCB variables  ****

  ****  Scalars and arrays  ****
OctLoc.c.b A Datatyp(siz) R M Lvl/name                 OctLoc.c.b A Datatyp(siz) R M Lvl/name

     0-0-0/w STRC(288)         1 ADD_STMT                   0-0-0/w ASTR(324)   r     1 BASED_LEX_SYMBOL
     0-0-0/w STRC(360)         1 BASED_LEX_SYMBOL_WORDS
     0-0-0/w STRC(288)         1 BINARY_OP                  0-0-0/w STRC(288)         1 CALL_STMT
     0-0-0/w CHAR(4096)        1 CHARS                      0-0-0/w STRC(288)         1 COMPUTE_STMT
     0-0-0/w STRC(72)          1 CONT                       0-0-0/w STRC(288)         1 DEFERED_IDENTIFIER
     0-0-0/w STRC(252)         1 DEFERED_ID_TREE            0-0-0/w STRC(288)         1 DEFERED_QUAL_ID
     0-0-0/w STRC(288)         1 DEFERED_SUM_CLAUSE
     0-0-0/w STRC(288)         1 DEFERED_SUM_CLAUSE_LIST
     0-0-0/w STRC(288)         1 DELETE_STMT                0-0-0/w STRC(288)         1 DIVIDE_STMT
     0-0-0/w STRC(288)         1 ILS_LIST                   0-0-0/w STRC(288)         1 INSPECT_1_STMT
     0-0-0/w STRC(288)         1 INSPECT_2_STMT             0-0-0/w STRC(288)         1 INSPECT_4_STMT
     0-0-0/w STRC(288)         1 LA_ITEM                    0-0-0/w STRC(504)         1 LX_CD_INPUT
     0-0-0/w STRC(324)         1 LX_CD_I_O                  0-0-0/w STRC(396)         1 LX_CD_OUTPUT
     0-0-0/w STRC(288)         1 LX_ETT_ITEM                0-0-0/w STRC(288)         1 LX_ITEM
     0-0-0/w STRC(288)         1 LX_LARGE                   0-0-0/w STRC(288)         1 LX_LIST
     0-0-0/w STRC(1224)        1 LX_REC_DECL                0-0-0/w STRC(864)         1 LX_REPORT_REC
     0-0-0/w STRC(288)         1 LX_TERMINAL                0-0-0/w STRC(288)         1 MULTIPLY_STMT
     0-0-0/w STRC(36864)       1 PAGE                       0-0-0/w STRC(288)         1 READ_STMT
     0-0-0/w STRC(252)   r     1 REPLACE_ITEM               0-0-0/w STRC(288)         1 REWRITE_STMT
     0-0-0/w STRC(288)         1 START_STMT                 0-0-0/w STRC(252)         1 STRING_STMT
     0-0-0/w STRC(288)         1 SUBTRACT_STMT              0-0-0/w STRC(288)         1 UNARY_OP
     0-0-0/w STRC(288)         1 UNSTRING_STMT              0-0-0/w STRC(288)         1 WRITE_STMT


   Procedure Z8EL$PARSE_REPLACE requires 457 words for executable code.
   Procedure Z8EL$PARSE_REPLACE requires 22 words of local(AUTO) storage.

PL6.E3A0      #017=Z8EL$HANDLE_LEVEL_CHANGE File=Z8EL.:Z8A6TSI                   SAT 08/09/97 12:20 Page:604
     2459        1        /*T***********************************************************/
     2460        2        /*T*                                                         */
     2461        3        /*T* Copyright (c) Bull HN Information Systems Inc., 1997    */
     2462        4        /*T*                                                         */
     2463        5        /*T***********************************************************/
     2464        6        Z8EL$HANDLE_LEVEL_CHANGE : PROC (NEW_LEVEL);
     2465        7
     2466        8    1   DCL NEW_LEVEL SBIN;
     2467        9
     2468       10        %EQU PHASE = 1;
     2469       11        %INCLUDE Z8A_DEFC;
     2470       79        %INCLUDE Z8A_SUPP_MAC;
     2471     2479        %INCLUDE Z8E_REPLACE;
     2472     2782
     2473     2783    1   DCL Z8EL$DELETE_REPLACE_LEVEL ENTRY(1);
     2474     2784
     2475     2785    1     IF NEW_LEVEL > CURRENT_SYMBOL_LEVEL THEN
     2476     2786    1       CURRENT_SYMBOL_LEVEL = NEW_LEVEL;
     2477     2787    1     ELSE
     2478     2788    2       DO WHILE NEW_LEVEL < CURRENT_SYMBOL_LEVEL;
     2479     2789              /* DELETE REPLACE DATA DOWN TO CURRENT LEVEL */
     2480     2790    2         CALL Z8EL$DELETE_REPLACE_LEVEL (CURRENT_SYMBOL_LEVEL);
     2481     2791    2         CURRENT_SYMBOL_LEVEL = CURRENT_SYMBOL_LEVEL - 1;
     2482     2792    2       END;
     2483     2793
     2484     2794    1     RETURN;
     2485     2795
     2486     2796
     2487     2797    1   END Z8EL$HANDLE_LEVEL_CHANGE;
     2488     2798        %EOD;

PL6.E3A0      #017=Z8EL$HANDLE_LEVEL_CHANGE File=Z8EL.:Z8A6TSI                   SAT 08/09/97 12:20 Page:605
--  Include file information  --

   Z8E_REPLACE.:Z8A6TOU  cannot be made into a system file and is referenced.
   X8A_COM_MACS.:X8A6TOU  is referenced.
   Z8A_NAMES.:Z8A6TOU  is referenced.
   Z8A_SUPP_MAC.:Z8A6TOU  is referenced.
   Z8A_DEFC.:Z8A6TOU  cannot be made into a system file and is referenced.
      No diagnostics issued in procedure Z8EL$HANDLE_LEVEL_CHANGE.

   Procedure Z8EL$HANDLE_LEVEL_CHANGE requires 20 words for executable code.
   Procedure Z8EL$HANDLE_LEVEL_CHANGE requires 4 words of local(AUTO) storage.

PL6.E3A0      #017=Z8EL$HANDLE_LEVEL_CHANGE File=Z8EL.:Z8A6TSI                   SAT 08/09/97 12:20 Page:606

 Object Unit name= Z8EL$HANDLE_LEVEL_CHANGE                   File name= Z8EL.:Z8A6TOU
 UTS= AUG 09 '97 12:20:27.24 SAT                              Compiler= PL-6/E31         Sev=      00
 SharedLib= :SHARED_SYSTEM                                    Alt SharedLib=


    ****  Control sections  ****

 Sect   Type Bound  Init  Size OctSiz  Section name(segment info)
    0  LblCom even  none     1      1  ITERATION
    1  LblCom even  none     1      1  CURRENT_SYMBOL_LEVEL
    2  LblCom even  none     1      1  REPLACE_ACTIVE
    3  LblCom even  none     1      1  IGNORE_COPY_REPLACE
    4  LblCom even  none     1      1  COPY_DEBUG_LEVEL
    5  LblCom even  none     4      4  REPLACE_LIST
    6  LblCom even  none     1      1  LEX_SYMBOL_QUEUE$
    7   Proc  even  none    20     24  Z8EL$HANDLE_LEVEL_CHANGE
    8  RoData even  none     2      2  Z8EL$HANDLE_LEVEL_CHANGE

    ****  Entry defs  ****

                              Check   Calling
                             calling  sequence
  Sect OctLoc Primary Altret sequence   type   Parms  Name
     7      0   yes            yes      Std        1  Z8EL$HANDLE_LEVEL_CHANGE

  ****  Entry refs  ****

         Check        Calling
        calling       sequence
Altret sequence SRef   type   Args  Name
         yes           Std       1 Z8EL$DELETE_REPLACE_LEVEL
                       nStd      0 X66_AUTO_1
                       nStd      0 X66_ARET
PL6.E3A0      #017=Z8EL$HANDLE_LEVEL_CHANGE File=Z8EL.:Z8A6TSI                   SAT 08/09/97 12:20 Page:607

  ****  Segment refs  ****

  Flags:  r = read only, s = secondary
Flgs Name                             Flgs Name                             Flgs Name
     NULLSID                               ISSID
PL6.E3A0      #017=Z8EL$HANDLE_LEVEL_CHANGE File=Z8EL.:Z8A6TSI                   SAT 08/09/97 12:20 Page:608


     2459        1        /*T***********************************************************/
     2460        2        /*T*                                                         */
     2461        3        /*T* Copyright (c) Bull HN Information Systems Inc., 1997    */
     2462        4        /*T*                                                         */
     2463        5        /*T***********************************************************/
     2464        6        Z8EL$HANDLE_LEVEL_CHANGE : PROC (NEW_LEVEL);

      6  7 000000   000000 700200 xent  Z8EL$HANDLE* TSX0  ! X66_AUTO_1
         7 000001   000004 000001                    ZERO    4,1

     2465        7
     2466        8    1   DCL NEW_LEVEL SBIN;
     2467        9
     2468       10        %EQU PHASE = 1;
     2469       11        %INCLUDE Z8A_DEFC;
     2470       79        %INCLUDE Z8A_SUPP_MAC;
     2471     2479        %INCLUDE Z8E_REPLACE;
     2472     2782
     2473     2783    1   DCL Z8EL$DELETE_REPLACE_LEVEL ENTRY(1);
     2474     2784
     2475     2785    1     IF NEW_LEVEL > CURRENT_SYMBOL_LEVEL THEN

   2785  7 000002   200003 470500                    LDP0    @NEW_LEVEL,,AUTO
         7 000003   000000 236100                    LDQ     0,,PR0
         7 000004   000000 116000 1                  CMPQ    CURRENT_SYMBOL_LEVEL
         7 000005   000010 604400 7                  TMOZ    s:2788

     2476     2786    1       CURRENT_SYMBOL_LEVEL = NEW_LEVEL;

   2786  7 000006   000000 756000 1                  STQ     CURRENT_SYMBOL_LEVEL
         7 000007   000023 710000 7                  TRA     s:2794

     2477     2787    1     ELSE
     2478     2788    2       DO WHILE NEW_LEVEL < CURRENT_SYMBOL_LEVEL;

   2788  7 000010   000023 605000 7                  TPL     s:2794
PL6.E3A0      #017=Z8EL$HANDLE_LEVEL_CHANGE File=Z8EL.:Z8A6TSI                   SAT 08/09/97 12:20 Page:609

     2479     2789              /* DELETE REPLACE DATA DOWN TO CURRENT LEVEL */
     2480     2790    2         CALL Z8EL$DELETE_REPLACE_LEVEL (CURRENT_SYMBOL_LEVEL);

   2790  7 000011   000001 630400 8                  EPPR0   1
         7 000012   000000 631400 8                  EPPR1   0
         7 000013   000000 701000 xent               TSX1    Z8EL$DELETE_REPLACE_LEVEL
         7 000014   000000 011000                    NOP     0

     2481     2791    2         CURRENT_SYMBOL_LEVEL = CURRENT_SYMBOL_LEVEL - 1;

   2791  7 000015   000001 336007                    LCQ     1,DL
         7 000016   000000 056000 1                  ASQ     CURRENT_SYMBOL_LEVEL

     2482     2792    2       END;

   2792  7 000017   200003 470500                    LDP0    @NEW_LEVEL,,AUTO
         7 000020   000000 236100                    LDQ     0,,PR0
         7 000021   000000 116000 1                  CMPQ    CURRENT_SYMBOL_LEVEL
         7 000022   000011 604000 7                  TMI     s:2790

     2483     2793
     2484     2794    1     RETURN;

   2794  7 000023   000000 702200 xent               TSX2  ! X66_ARET
     2485     2795
     2486     2796
     2487     2797    1   END Z8EL$HANDLE_LEVEL_CHANGE;
     2488     2798        %EOD;

PL6.E3A0      #017=Z8EL$HANDLE_LEVEL_CHANGE File=Z8EL.:Z8A6TSI                   SAT 08/09/97 12:20 Page:610
--  Include file information  --

   Z8E_REPLACE.:Z8A6TOU  cannot be made into a system file and is referenced.
   X8A_COM_MACS.:X8A6TOU  is referenced.
   Z8A_NAMES.:Z8A6TOU  is referenced.
   Z8A_SUPP_MAC.:Z8A6TOU  is referenced.
   Z8A_DEFC.:Z8A6TOU  cannot be made into a system file and is referenced.
      No diagnostics issued in procedure Z8EL$HANDLE_LEVEL_CHANGE.
PL6.E3A0      #017=Z8EL$HANDLE_LEVEL_CHANGE File=Z8EL.:Z8A6TSI                   SAT 08/09/97 12:20 Page:611

 **** Variables and constants ****

  ****  Section 000 LblCom ITERATION

  ****  Scalars and arrays  ****
OctLoc.c.b A Datatyp(siz) R M Lvl/name                 OctLoc.c.b A Datatyp(siz) R M Lvl/name

     0-0-0/w SBIN              1 ITERATION

  ****  Section 001 LblCom CURRENT_SYMBOL_LEVEL

  ****  Scalars and arrays  ****
OctLoc.c.b A Datatyp(siz) R M Lvl/name                 OctLoc.c.b A Datatyp(siz) R M Lvl/name

     0-0-0/w SBIN        r     1 CURRENT_SYMBOL_LEVEL

  ****  Section 002 LblCom REPLACE_ACTIVE

  ****  Scalars and arrays  ****
OctLoc.c.b A Datatyp(siz) R M Lvl/name                 OctLoc.c.b A Datatyp(siz) R M Lvl/name

     0-0-0/b BIT               1 REPLACE_ACTIVE

  ****  Section 003 LblCom IGNORE_COPY_REPLACE

  ****  Scalars and arrays  ****
OctLoc.c.b A Datatyp(siz) R M Lvl/name                 OctLoc.c.b A Datatyp(siz) R M Lvl/name

     0-0-0/b BIT               1 IGNORE_COPY_REPLACE

  ****  Section 004 LblCom COPY_DEBUG_LEVEL

  ****  Scalars and arrays  ****
OctLoc.c.b A Datatyp(siz) R M Lvl/name                 OctLoc.c.b A Datatyp(siz) R M Lvl/name

     0-0-0/w SBIN              1 COPY_DEBUG_LEVEL

PL6.E3A0      #017=Z8EL$HANDLE_LEVEL_CHANGE File=Z8EL.:Z8A6TSI                   SAT 08/09/97 12:20 Page:612
  ****  Section 005 LblCom REPLACE_LIST

  ****  Scalars and arrays  ****
OctLoc.c.b A Datatyp(siz) R M Lvl/name                 OctLoc.c.b A Datatyp(siz) R M Lvl/name

     0-0-0/w STRC(144)         1 REPLACE_LIST

  ****  Section 006 LblCom LEX_SYMBOL_QUEUE$

  ****  Scalars and arrays  ****
OctLoc.c.b A Datatyp(siz) R M Lvl/name                 OctLoc.c.b A Datatyp(siz) R M Lvl/name

     0-0-0/w PTR               1 LEX_SYMBOL_QUEUE$

  ****  Auto variables  ****

  ****  Scalars and arrays  ****
OctLoc.c.b A Datatyp(siz) R M Lvl/name                 OctLoc.c.b A Datatyp(siz) R M Lvl/name

     3-0-0/w PTR         r     1 @NEW_LEVEL                *0-0-0/w SBIN        r     1 NEW_LEVEL

  ****  BASED and DCB variables  ****

  ****  Scalars and arrays  ****
OctLoc.c.b A Datatyp(siz) R M Lvl/name                 OctLoc.c.b A Datatyp(siz) R M Lvl/name

     0-0-0/w CHAR(4096)        1 CHARS                      0-0-0/w STRC(72)          1 CONT
     0-0-0/w STRC(36864)       1 PAGE                       0-0-0/w STRC(252)         1 REPLACE_ITEM


   Procedure Z8EL$HANDLE_LEVEL_CHANGE requires 20 words for executable code.
   Procedure Z8EL$HANDLE_LEVEL_CHANGE requires 4 words of local(AUTO) storage.

