PL6.E3A0      #002=Z8EL$GET_CHECK_SRC_LINE File=Z8EL.:Z8A6TSI                    SAT 08/09/97 12:07 Page:235
      932        1        /*T***********************************************************/
      933        2        /*T*                                                         */
      934        3        /*T* Copyright (c) Bull HN Information Systems Inc., 1997    */
      935        4        /*T*                                                         */
      936        5        /*T***********************************************************/
      937        6        Z8EL$GET_CHECK_SRC_LINE : PROC NOAUTO;
      938        7
      939        8        %EQU PHASE = 1;
      940        9
      941       10        %INCLUDE Z8A_DEFC;
      942       78        %INCLUDE Z8A_SUPP_MAC;
      943     2478        %INCLUDE Z8A_COMCOM;
      944     3128        %INCLUDE Z8E_BUFFERS;
      945     3318        %INCLUDE Z8E_TABLES;
      946     3871        %INCLUDE Z8E_HEAP;
      947     3927        %INCLUDE Z8E_REPLACE;
      948     4230        %INCLUDE Z8A_ERR_NUMS ;
      949     4994
      950     4995    1   DCL Z8AA$GET_NEXT_SRC_LINE ENTRY ALTRET;
      951     4996    1   DCL Z8AE$ERROR             ENTRY (12) ;
      952     4997
      953     4998    1   DCL LINE_GT_80_ISSUED      BOOLEAN STATIC INIT (FALSE) ;
      954     4999
      955     5000          %NEW_HEAP(@POINTER=LOOKAHEAD_BUFFER$, @SIZE=%MAX_INPUT_BUFFER_LEN);
      956     5005
      957     5006    1     CALL Z8AA$GET_NEXT_SRC_LINE ALTRET(GNSLEOF);
      958     5007
      959     5008        %EJECT;
PL6.E3A0      #002=Z8EL$GET_CHECK_SRC_LINE File=Z8EL.:Z8A6TSI                    SAT 08/09/97 12:07 Page:236
      960     5009        /*===========================*/
      961     5010        /* Process Unformatted Line  */
      962     5011        /*===========================*/
      963     5012        /*N* This is a subset of the full Free_Format Option --
      964     5013             Column 1 = *, /, D, -, or blank
      965     5014             Column 2-5 = Area A (paragraph labels, divisions, etc.)
      966     5015             Column 6-256 = Area B (no identification field).
      967     5016        */
      968     5017
      969     5018    1     IF COMCOM.OB.FORMAT THEN /* Free Format */
      970     5019    2       DO;
      971     5020    2         FILL_BUFFER.STRIPPED_LINE_LENGTH = MINIMUM(FILL_BUFFER.LINE_LENGTH, 256);
      972     5021    2         CALL SEARCHR(FILL_BUFFER.COLUMN,
      973     5022    2                      FILL_BUFFER.CLASS,
      974     5023    2                      BLANK_SCAN_TABLE,
      975     5024    2                      FILL_BUFFER.SOURCE_LINE,
      976     5025    2                      FILL_BUFFER.STRIPPED_LINE_LENGTH);
      977     5026    2         FILL_BUFFER.STRIPPED_LINE_LENGTH = MINIMUM(FILL_BUFFER.STRIPPED_LINE_LENGTH,
      978     5027    2                                           FILL_BUFFER.COLUMN + 1);
      979     5028    2         IF FILL_BUFFER.STRIPPED_LINE_LENGTH > 0 THEN
      980     5029    3           DO;
      981     5030    3             IF SUBSTR(FILL_BUFFER.SOURCE_LINE,0,1) = '*'
      982     5031    3                  OR SUBSTR(FILL_BUFFER.SOURCE_LINE,0,1) = '/' THEN
      983     5032    3               FILL_BUFFER.LINE_TYPE.NULL_COMMENT_LINE = TRUE;
      984     5033    3             ELSE
      985     5034    4               DO;
      986     5035    4                 IF SUBSTR(FILL_BUFFER.SOURCE_LINE,0,1) = '-' THEN
      987     5036    4                   FILL_BUFFER.LINE_TYPE.CONTINUATION = TRUE;
      988     5037    4                 ELSE
      989     5038    4                   IF COPY_DEBUG_LEVEL > 0
      990     5039    4                       AND COPY_DEBUG_LEVEL <= FILL_BUFFER.LEVEL THEN
      991     5040    5                     DO;
      992     5041    5                       FILL_BUFFER.LINE_TYPE.DEBUG_LINE = TRUE;
      993     5042    5                       SUBSTR(FILL_BUFFER.SOURCE_LINE,
      994     5043    5                              0,
      995     5044    5                              1) = 'D';
      996     5045    5                     END;
PL6.E3A0      #002=Z8EL$GET_CHECK_SRC_LINE File=Z8EL.:Z8A6TSI                    SAT 08/09/97 12:07 Page:237
      997     5046    4                 IF SUBSTR(FILL_BUFFER.SOURCE_LINE,0,1) = 'D'
      998     5047    4                      OR SUBSTR(FILL_BUFFER.SOURCE_LINE,0,1) = 'd' THEN
      999     5048    4                   FILL_BUFFER.LINE_TYPE.DEBUG_LINE = TRUE;
     1000     5049    4                 CALL SEARCH (FILL_BUFFER.COLUMN,
     1001     5050    4                              FILL_BUFFER.CLASS,
     1002     5051    4                              BLANK_SCAN_TABLE,
     1003     5052    4                              SUBSTR(FILL_BUFFER.SOURCE_LINE,
     1004     5053    4                                       0,
     1005     5054    4                                       FILL_BUFFER.STRIPPED_LINE_LENGTH),
     1006     5055    4                              1);
     1007     5056    4                 IF FILL_BUFFER.COLUMN >= FILL_BUFFER.STRIPPED_LINE_LENGTH THEN
     1008     5057    4                   FILL_BUFFER.LINE_TYPE.NULL_COMMENT_LINE = TRUE;  /* BLANK LINE */
     1009     5058    4                 ELSE
     1010     5059    4                   IF FILL_BUFFER.LINE_TYPE.CONTINUATION
     1011     5060    4                         AND FILL_BUFFER.COLUMN < 5 THEN
     1012     5061    4                     FILL_BUFFER.LINE_TYPE.CONTINUATION_COL_8_11_ERROR
     1013     5062    4                              = TRUE;
     1014     5063    4               END;
     1015     5064    3           END;
     1016     5065    2         ELSE
     1017     5066    2           FILL_BUFFER.LINE_TYPE.NULL_COMMENT_LINE = TRUE;  /* BLANK LINE */
     1018     5067
     1019     5068    2         IF  FILL_BUFFER.LEVEL < COPY_DEBUG_LEVEL THEN
     1020     5069    2            COPY_DEBUG_LEVEL = 0;
     1021     5070    2       END;
     1022     5071
     1023     5072        %EJECT;
PL6.E3A0      #002=Z8EL$GET_CHECK_SRC_LINE File=Z8EL.:Z8A6TSI                    SAT 08/09/97 12:07 Page:238
     1024     5073        /*===========================*/
     1025     5074        /* Process Fixed Format Line */
     1026     5075        /*===========================*/
     1027     5076
     1028     5077    1     ELSE
     1029     5078    2       DO;
     1030     5079    2         IF  FILL_BUFFER.LINE_LENGTH > 80
     1031     5080    3         AND LINE_GT_80_ISSUED = FALSE THEN DO ;
     1032     5081    3           CALL Z8AE$ERROR (%E$LINE_LENGTH_GT_80, FILL_BUFFER.ISN, 80) ;
     1033     5082    3           LINE_GT_80_ISSUED = TRUE ;
     1034     5083    3         END ; /* Line > 80 bytes -- first time only */
     1035     5084    2         FILL_BUFFER.STRIPPED_LINE_LENGTH = MINIMUM(FILL_BUFFER.LINE_LENGTH, 72);
     1036     5085    2         CALL SEARCHR(FILL_BUFFER.COLUMN,
     1037     5086    2                      FILL_BUFFER.CLASS,
     1038     5087    2                      BLANK_SCAN_TABLE,
     1039     5088    2                      FILL_BUFFER.SOURCE_LINE,
     1040     5089    2                      FILL_BUFFER.STRIPPED_LINE_LENGTH);
     1041     5090    2         FILL_BUFFER.STRIPPED_LINE_LENGTH = MINIMUM(FILL_BUFFER.STRIPPED_LINE_LENGTH,
     1042     5091    2                                           FILL_BUFFER.COLUMN + 1);
     1043     5092    2         IF FILL_BUFFER.STRIPPED_LINE_LENGTH > 6 THEN
     1044     5093    3           DO;
     1045     5094    3             IF SUBSTR(FILL_BUFFER.SOURCE_LINE,6,1) = '*'
     1046     5095    3                  OR SUBSTR(FILL_BUFFER.SOURCE_LINE,6,1) = '/' THEN
     1047     5096    3               FILL_BUFFER.LINE_TYPE.NULL_COMMENT_LINE = TRUE;
     1048     5097    3             ELSE
     1049     5098    4               DO;
     1050     5099    4                 IF SUBSTR(FILL_BUFFER.SOURCE_LINE,6,1) = '-' THEN
     1051     5100    4                   FILL_BUFFER.LINE_TYPE.CONTINUATION = TRUE;
     1052     5101    4                 ELSE
     1053     5102    4                   IF COPY_DEBUG_LEVEL > 0
     1054     5103    4                       AND COPY_DEBUG_LEVEL <= FILL_BUFFER.LEVEL THEN
     1055     5104    5                     DO;
     1056     5105    5                       FILL_BUFFER.LINE_TYPE.DEBUG_LINE = TRUE;
     1057     5106    5                       SUBSTR(FILL_BUFFER.SOURCE_LINE,
     1058     5107    5                              6,
     1059     5108    5                              1) = 'D';
     1060     5109    5                     END;
PL6.E3A0      #002=Z8EL$GET_CHECK_SRC_LINE File=Z8EL.:Z8A6TSI                    SAT 08/09/97 12:07 Page:239
     1061     5110    4                 IF SUBSTR(FILL_BUFFER.SOURCE_LINE,6,1) = 'D'
     1062     5111    4                      OR SUBSTR(FILL_BUFFER.SOURCE_LINE,6,1) = 'd' THEN
     1063     5112    4                   FILL_BUFFER.LINE_TYPE.DEBUG_LINE = TRUE;
     1064     5113    4                 CALL SEARCH (FILL_BUFFER.COLUMN,
     1065     5114    4                              FILL_BUFFER.CLASS,
     1066     5115    4                              BLANK_SCAN_TABLE,
     1067     5116    4                              SUBSTR(FILL_BUFFER.SOURCE_LINE,
     1068     5117    4                                       0,
     1069     5118    4                                       FILL_BUFFER.STRIPPED_LINE_LENGTH),
     1070     5119    4                              7);
     1071     5120    4                 IF FILL_BUFFER.COLUMN >= FILL_BUFFER.STRIPPED_LINE_LENGTH THEN
     1072     5121    4                   FILL_BUFFER.LINE_TYPE.NULL_COMMENT_LINE = TRUE;  /* BLANK LINE */
     1073     5122    4                 ELSE
     1074     5123    4                   IF FILL_BUFFER.LINE_TYPE.CONTINUATION
     1075     5124    4                         AND FILL_BUFFER.COLUMN < 11 THEN
     1076     5125    4                     FILL_BUFFER.LINE_TYPE.CONTINUATION_COL_8_11_ERROR
     1077     5126    4                              = TRUE;
     1078     5127    4               END;
     1079     5128    3           END;
     1080     5129    2         ELSE
     1081     5130    2           FILL_BUFFER.LINE_TYPE.NULL_COMMENT_LINE = TRUE;  /* BLANK LINE */
     1082     5131
     1083     5132    2         IF  FILL_BUFFER.LEVEL < COPY_DEBUG_LEVEL THEN
     1084     5133    2            COPY_DEBUG_LEVEL = 0;
     1085     5134    2       END;
     1086     5135
     1087     5136
     1088     5137
     1089     5138    1   GNSLEOF:
     1090     5139    1     RETURN;
     1091     5140
     1092     5141    1   END Z8EL$GET_CHECK_SRC_LINE;
     1093     5142        %EOD;

PL6.E3A0      #002=Z8EL$GET_CHECK_SRC_LINE File=Z8EL.:Z8A6TSI                    SAT 08/09/97 12:07 Page:240
--  Include file information  --

   Z8A_ERR_NUMS.:Z8A6TOU  is referenced.
   Z8E_REPLACE.:Z8A6TOU  cannot be made into a system file and is referenced.
   Z8E_HEAP.:Z8A6TOU  cannot be made into a system file and is referenced.
   Z8E_TABLES.:Z8A6TOU  cannot be made into a system file and is referenced.
   Z8E_BUFFERS.:Z8A6TOU  cannot be made into a system file and is referenced.
   Z8A_COMCOM.:Z8A6TOU  cannot be made into a system file and is referenced.
   X8A_COM_MACS.:X8A6TOU  is referenced.
   Z8A_NAMES.:Z8A6TOU  is referenced.
   Z8A_SUPP_MAC.:Z8A6TOU  is referenced.
   Z8A_DEFC.:Z8A6TOU  cannot be made into a system file and is referenced.
      No diagnostics issued in procedure Z8EL$GET_CHECK_SRC_LINE.

   Procedure Z8EL$GET_CHECK_SRC_LINE requires 232 words for executable code.
   Procedure Z8EL$GET_CHECK_SRC_LINE is declared NOAUTO and requires 6 words of local(STATIC) storage.

PL6.E3A0      #002=Z8EL$GET_CHECK_SRC_LINE File=Z8EL.:Z8A6TSI                    SAT 08/09/97 12:07 Page:241

 Object Unit name= Z8EL$GET_CHECK_SRC_LINE                    File name= Z8EL.:Z8A6TOU
 UTS= AUG 09 '97 12:07:24.56 SAT                              Compiler= PL-6/E31         Sev=      00
 SharedLib= :SHARED_SYSTEM                                    Alt SharedLib=


    ****  Control sections  ****

 Sect   Type Bound  Init  Size OctSiz  Section name(segment info)
    0   Data  even  none     6      6  Z8EL$GET_CHECK_SRC_LINE
    1  LblCom even  none     1      1  ITERATION
    2  LblCom even  none     1      1  SCANNER_STATE
    3  LblCom even  none     1      1  CURRENT_BUFFER$
    4  LblCom even  none     1      1  LOOKAHEAD_BUFFER$
    5  LblCom even  none     1      1  CURRENT_LINE_LEVEL
    6  LblCom even  none     1      1  LINE_LIST$
    7  LblCom even  none     7      7  BUFFER
    8  LblCom even  none     1      1  ORIGINAL_ISN
    9  LblCom even  none     1      1  EXPANDED_ISN
   10  LblCom even  none     1      1  ISN_FOR_EXP_SRC
   11  LblCom even  none     1      1  HEAP$
   12  LblCom even  none     1      1  CURRENT_SYMBOL_LEVEL
   13  LblCom even  none     1      1  REPLACE_ACTIVE
   14  LblCom even  none     1      1  IGNORE_COPY_REPLACE
   15  LblCom even  none     1      1  COPY_DEBUG_LEVEL
   16  LblCom even  none     4      4  REPLACE_LIST
   17  LblCom even  none     1      1  LEX_SYMBOL_QUEUE$
   18   Proc  even  none   232    350  Z8EL$GET_CHECK_SRC_LINE
   19  RoData even  none    10     12  Z8EL$GET_CHECK_SRC_LINE

    ****  Entry defs  ****

                              Check   Calling
                             calling  sequence
  Sect OctLoc Primary Altret sequence   type   Parms  Name
    18      0   yes            yes      Std        0  Z8EL$GET_CHECK_SRC_LINE
PL6.E3A0      #002=Z8EL$GET_CHECK_SRC_LINE File=Z8EL.:Z8A6TSI                    SAT 08/09/97 12:07 Page:242

  ****  Entry refs  ****

         Check        Calling
        calling       sequence
Altret sequence SRef   type   Args  Name
         yes           Std       2 Z8ED$NEW_HEAP
 yes     yes           Std       0 Z8AA$GET_NEXT_SRC_LINE
         yes           Std      12 Z8AE$ERROR

  ****  Data refs  ****

  Flags:  r = read only, s = secondary
Flgs Name                             Flgs Name                             Flgs Name
     COMCOM                           r    USERWORD_SCAN_TABLE              r    ANSI_USERWORD_SCAN_TABLE
r    ASCII_SEARCH_TABLE               r    BLANK_SCAN_TABLE                 r    DIGIT_SCAN_TABLE
r    LETTER_SEARCH_TABLE              r    DOUBLE_QUOTE_SEARCH_TABLE        r    SINGLE_QUOTE_SEARCH_TABLE
r    DBL_QUOTE_PSEUDO_SEARCH_TABLE    r    SNGL_QUOTE_PSEUDO_SEARCH_TABLE   r    SEPARATORS_TABLE
r    LOWER_TO_UPPER_CASE              r    CURRENCY_SIGN_CHARS

  ****  Segment refs  ****

  Flags:  r = read only, s = secondary
Flgs Name                             Flgs Name                             Flgs Name
     NULLSID                               ISSID
PL6.E3A0      #002=Z8EL$GET_CHECK_SRC_LINE File=Z8EL.:Z8A6TSI                    SAT 08/09/97 12:07 Page:243


      932        1        /*T***********************************************************/
      933        2        /*T*                                                         */
      934        3        /*T* Copyright (c) Bull HN Information Systems Inc., 1997    */
      935        4        /*T*                                                         */
      936        5        /*T***********************************************************/
      937        6        Z8EL$GET_CHECK_SRC_LINE : PROC NOAUTO;

      6 18 000000   000000 741200 0     Z8EL$GET_CH* STX1  ! 0

      938        7
      939        8        %EQU PHASE = 1;
      940        9
      941       10        %INCLUDE Z8A_DEFC;
      942       78        %INCLUDE Z8A_SUPP_MAC;
      943     2478        %INCLUDE Z8A_COMCOM;
      944     3128        %INCLUDE Z8E_BUFFERS;
      945     3318        %INCLUDE Z8E_TABLES;
      946     3871        %INCLUDE Z8E_HEAP;
      947     3927        %INCLUDE Z8E_REPLACE;
      948     4230        %INCLUDE Z8A_ERR_NUMS ;
      949     4994
      950     4995    1   DCL Z8AA$GET_NEXT_SRC_LINE ENTRY ALTRET;
      951     4996    1   DCL Z8AE$ERROR             ENTRY (12) ;
      952     4997
      953     4998    1   DCL LINE_GT_80_ISSUED      BOOLEAN STATIC INIT (FALSE) ;
      954     4999
      955     5000          %NEW_HEAP(@POINTER=LOOKAHEAD_BUFFER$, @SIZE=%MAX_INPUT_BUFFER_LEN);

   5002 18 000001   000002 630400 19                 EPPR0   2
        18 000002   000000 631400 19                 EPPR1   0
        18 000003   000000 701000 xent               TSX1    Z8ED$NEW_HEAP
        18 000004   000000 011000                    NOP     0

      956     5005
      957     5006    1     CALL Z8AA$GET_NEXT_SRC_LINE ALTRET(GNSLEOF);

PL6.E3A0      #002=Z8EL$GET_CHECK_SRC_LINE File=Z8EL.:Z8A6TSI                    SAT 08/09/97 12:07 Page:244
   5006 18 000005   000004 631400 19                 EPPR1   4
        18 000006   000000 701000 xent               TSX1    Z8AA$GET_NEXT_SRC_LINE
        18 000007   000346 702000 18                 TSX2    GNSLEOF

      958     5007
      959     5008        %EJECT;
PL6.E3A0      #002=Z8EL$GET_CHECK_SRC_LINE File=Z8EL.:Z8A6TSI                    SAT 08/09/97 12:07 Page:245
      960     5009        /*===========================*/
      961     5010        /* Process Unformatted Line  */
      962     5011        /*===========================*/
      963     5012        /*N* This is a subset of the full Free_Format Option --
      964     5013             Column 1 = *, /, D, -, or blank
      965     5014             Column 2-5 = Area A (paragraph labels, divisions, etc.)
      966     5015             Column 6-256 = Area B (no identification field).
      967     5016        */
      968     5017
      969     5018    1     IF COMCOM.OB.FORMAT THEN /* Free Format */

   5018 18 000010   000030 234000 xsym               SZN     COMCOM+24
        18 000011   000157 605000 18                 TPL     s:5079

      970     5019    2       DO;

      971     5020    2         FILL_BUFFER.STRIPPED_LINE_LENGTH = MINIMUM(FILL_BUFFER.LINE_LENGTH, 256);

   5020 18 000012   000400 236007                    LDQ     256,DL
        18 000013   000000 470400 4                  LDP0    LOOKAHEAD_BUFFER$
        18 000014   000017 604000 18                 TMI     s:5020+5
        18 000015   000012 116100                    CMPQ    10,,PR0
        18 000016   000020 604400 18                 TMOZ    s:5020+6
        18 000017   000012 236100                    LDQ     10,,PR0
        18 000020   000003 756100                    STQ     3,,PR0

      972     5021    2         CALL SEARCHR(FILL_BUFFER.COLUMN,

   5021 18 000021   000012 720100                    LXL0    10,,PR0
        18 000022   000003 721100                    LXL1    3,,PR0
        18 000023   000000 165540                    TCTR
        18 000024   000013 000011                    ADSC9   11,,PR0                  cn=0,n=*X1
        18 000025   000000 000000 xsym               ARG     BLANK_SCAN_TABLE
        18 000026   000000 000100                    ARG     0,,PR0
        18 000027   000000 235100                    LDA     0,,PR0
        18 000030   000033 771000                    ARL     27
        18 000031   000000 471400 4                  LDP1    LOOKAHEAD_BUFFER$
PL6.E3A0      #002=Z8EL$GET_CHECK_SRC_LINE File=Z8EL.:Z8A6TSI                    SAT 08/09/97 12:07 Page:246
        18 000032   100010 755100                    STA     8,,PR1
        18 000033   000000 551140                    STBA    0,'40'O,PR0
        18 000034   000037 606400 18                 TTN     s:5026
        18 000035   000000 054100                    AOS     0,,PR0
        18 000036   000000 156100                    SSQ     0,,PR0

      973     5022    2                      FILL_BUFFER.CLASS,
      974     5023    2                      BLANK_SCAN_TABLE,
      975     5024    2                      FILL_BUFFER.SOURCE_LINE,
      976     5025    2                      FILL_BUFFER.STRIPPED_LINE_LENGTH);
      977     5026    2         FILL_BUFFER.STRIPPED_LINE_LENGTH = MINIMUM(FILL_BUFFER.STRIPPED_LINE_LENGTH,

   5026 18 000037   000000 470400 4                  LDP0    LOOKAHEAD_BUFFER$
        18 000040   000000 236100                    LDQ     0,,PR0
        18 000041   000001 036007                    ADLQ    1,DL
        18 000042   000003 116100                    CMPQ    3,,PR0
        18 000043   000045 604400 18                 TMOZ    s:5026+6
        18 000044   000003 236100                    LDQ     3,,PR0
        18 000045   000003 756100                    STQ     3,,PR0

      978     5027    2                                           FILL_BUFFER.COLUMN + 1);
      979     5028    2         IF FILL_BUFFER.STRIPPED_LINE_LENGTH > 0 THEN

   5028 18 000046   000000 116003                    CMPQ    0,DU
        18 000047   000150 604400 18                 TMOZ    s:5066

      980     5029    3           DO;

      981     5030    3             IF SUBSTR(FILL_BUFFER.SOURCE_LINE,0,1) = '*'

   5030 18 000050   000012 720100                    LXL0    10,,PR0
        18 000051   000013 236100                    LDQ     11,,PR0
        18 000052   777000 376003                    ANQ     -512,DU
        18 000053   052000 116003                    CMPQ    21504,DU
        18 000054   000061 600000 18                 TZE     s:5032
        18 000055   000013 236100                    LDQ     11,,PR0
        18 000056   777000 376003                    ANQ     -512,DU
PL6.E3A0      #002=Z8EL$GET_CHECK_SRC_LINE File=Z8EL.:Z8A6TSI                    SAT 08/09/97 12:07 Page:247
        18 000057   057000 116003                    CMPQ    24064,DU
        18 000060   000064 601000 18                 TNZ     s:5035

      982     5031    3                  OR SUBSTR(FILL_BUFFER.SOURCE_LINE,0,1) = '/' THEN
      983     5032    3               FILL_BUFFER.LINE_TYPE.NULL_COMMENT_LINE = TRUE;

   5032 18 000061   004000 236003                    LDQ     2048,DU
        18 000062   000011 256100                    ORSQ    9,,PR0
        18 000063   000152 710000 18                 TRA     s:5068

      984     5033    3             ELSE
      985     5034    4               DO;

      986     5035    4                 IF SUBSTR(FILL_BUFFER.SOURCE_LINE,0,1) = '-' THEN

   5035 18 000064   000013 236100                    LDQ     11,,PR0
        18 000065   777000 376003                    ANQ     -512,DU
        18 000066   055000 116003                    CMPQ    23040,DU
        18 000067   000073 601000 18                 TNZ     s:5038

      987     5036    4                   FILL_BUFFER.LINE_TYPE.CONTINUATION = TRUE;

   5036 18 000070   400000 236003                    LDQ     -131072,DU
        18 000071   000011 256100                    ORSQ    9,,PR0
        18 000072   000104 710000 18                 TRA     s:5046

      988     5037    4                 ELSE
      989     5038    4                   IF COPY_DEBUG_LEVEL > 0

   5038 18 000073   000000 235000 15                 LDA     COPY_DEBUG_LEVEL
        18 000074   000104 604400 18                 TMOZ    s:5046
        18 000075   000000 236000 15                 LDQ     COPY_DEBUG_LEVEL
        18 000076   000001 116100                    CMPQ    1,,PR0
        18 000077   000104 605400 18                 TPNZ    s:5046

      990     5039    4                       AND COPY_DEBUG_LEVEL <= FILL_BUFFER.LEVEL THEN
      991     5040    5                     DO;
PL6.E3A0      #002=Z8EL$GET_CHECK_SRC_LINE File=Z8EL.:Z8A6TSI                    SAT 08/09/97 12:07 Page:248

      992     5041    5                       FILL_BUFFER.LINE_TYPE.DEBUG_LINE = TRUE;

   5041 18 000100   010000 236003                    LDQ     4096,DU
        18 000101   000011 256100                    ORSQ    9,,PR0

      993     5042    5                       SUBSTR(FILL_BUFFER.SOURCE_LINE,

   5042 18 000102   104000 236003                    LDQ     34816,DU
        18 000103   000013 552140                    STBQ    11,'40'O,PR0

      994     5043    5                              0,
      995     5044    5                              1) = 'D';
      996     5045    5                     END;

      997     5046    4                 IF SUBSTR(FILL_BUFFER.SOURCE_LINE,0,1) = 'D'

   5046 18 000104   000013 236100                    LDQ     11,,PR0
        18 000105   777000 376003                    ANQ     -512,DU
        18 000106   104000 116003                    CMPQ    34816,DU
        18 000107   000114 600000 18                 TZE     s:5048
        18 000110   000013 236100                    LDQ     11,,PR0
        18 000111   777000 376003                    ANQ     -512,DU
        18 000112   144000 116003                    CMPQ    51200,DU
        18 000113   000116 601000 18                 TNZ     s:5049

      998     5047    4                      OR SUBSTR(FILL_BUFFER.SOURCE_LINE,0,1) = 'd' THEN
      999     5048    4                   FILL_BUFFER.LINE_TYPE.DEBUG_LINE = TRUE;

   5048 18 000114   010000 236003                    LDQ     4096,DU
        18 000115   000011 256100                    ORSQ    9,,PR0

     1000     5049    4                 CALL SEARCH (FILL_BUFFER.COLUMN,

   5049 18 000116   000003 721100                    LXL1    3,,PR0
        18 000117   777777 622011                    EAX2    -1,X1
        18 000120   000000 164540                    TCT
PL6.E3A0      #002=Z8EL$GET_CHECK_SRC_LINE File=Z8EL.:Z8A6TSI                    SAT 08/09/97 12:07 Page:249
        18 000121   000013 200012                    ADSC9   11,,PR0                  cn=1,n=*X2
        18 000122   000000 000000 xsym               ARG     BLANK_SCAN_TABLE
        18 000123   000000 000100                    ARG     0,,PR0
        18 000124   000000 235100                    LDA     0,,PR0
        18 000125   000033 771000                    ARL     27
        18 000126   000000 471400 4                  LDP1    LOOKAHEAD_BUFFER$
        18 000127   100010 755100                    STA     8,,PR1
        18 000130   000000 551140                    STBA    0,'40'O,PR0
        18 000131   000000 054100                    AOS     0,,PR0

     1001     5050    4                              FILL_BUFFER.CLASS,
     1002     5051    4                              BLANK_SCAN_TABLE,
     1003     5052    4                              SUBSTR(FILL_BUFFER.SOURCE_LINE,
     1004     5053    4                                       0,
     1005     5054    4                                       FILL_BUFFER.STRIPPED_LINE_LENGTH),
     1006     5055    4                              1);
     1007     5056    4                 IF FILL_BUFFER.COLUMN >= FILL_BUFFER.STRIPPED_LINE_LENGTH THEN

   5056 18 000132   000000 470400 4                  LDP0    LOOKAHEAD_BUFFER$
        18 000133   000000 236100                    LDQ     0,,PR0
        18 000134   000003 116100                    CMPQ    3,,PR0
        18 000135   000141 604000 18                 TMI     s:5059

     1008     5057    4                   FILL_BUFFER.LINE_TYPE.NULL_COMMENT_LINE = TRUE;  /* BLANK LINE */

   5057 18 000136   004000 236003                    LDQ     2048,DU
        18 000137   000011 256100                    ORSQ    9,,PR0
        18 000140   000152 710000 18                 TRA     s:5068

     1009     5058    4                 ELSE
     1010     5059    4                   IF FILL_BUFFER.LINE_TYPE.CONTINUATION

   5059 18 000141   000011 234100                    SZN     9,,PR0
        18 000142   000152 605000 18                 TPL     s:5068
        18 000143   000005 116007                    CMPQ    5,DL
        18 000144   000152 605000 18                 TPL     s:5068

PL6.E3A0      #002=Z8EL$GET_CHECK_SRC_LINE File=Z8EL.:Z8A6TSI                    SAT 08/09/97 12:07 Page:250
     1011     5060    4                         AND FILL_BUFFER.COLUMN < 5 THEN
     1012     5061    4                     FILL_BUFFER.LINE_TYPE.CONTINUATION_COL_8_11_ERROR

   5061 18 000145   002000 236003                    LDQ     1024,DU
        18 000146   000011 256100                    ORSQ    9,,PR0

     1013     5062    4                              = TRUE;
     1014     5063    4               END;

     1015     5064    3           END;

   5064 18 000147   000152 710000 18                 TRA     s:5068

     1016     5065    2         ELSE
     1017     5066    2           FILL_BUFFER.LINE_TYPE.NULL_COMMENT_LINE = TRUE;  /* BLANK LINE */

   5066 18 000150   004000 236003                    LDQ     2048,DU
        18 000151   000011 256100                    ORSQ    9,,PR0

     1018     5067
     1019     5068    2         IF  FILL_BUFFER.LEVEL < COPY_DEBUG_LEVEL THEN

   5068 18 000152   000001 236100                    LDQ     1,,PR0
        18 000153   000000 116000 15                 CMPQ    COPY_DEBUG_LEVEL
        18 000154   000346 605000 18                 TPL     GNSLEOF

     1020     5069    2            COPY_DEBUG_LEVEL = 0;

   5069 18 000155   000000 450000 15                 STZ     COPY_DEBUG_LEVEL

     1021     5070    2       END;

   5070 18 000156   000346 710000 18                 TRA     GNSLEOF

     1022     5071
     1023     5072        %EJECT;
PL6.E3A0      #002=Z8EL$GET_CHECK_SRC_LINE File=Z8EL.:Z8A6TSI                    SAT 08/09/97 12:07 Page:251
     1024     5073        /*===========================*/
     1025     5074        /* Process Fixed Format Line */
     1026     5075        /*===========================*/
     1027     5076
     1028     5077    1     ELSE
     1029     5078    2       DO;

     1030     5079    2         IF  FILL_BUFFER.LINE_LENGTH > 80

   5079 18 000157   000000 470400 4                  LDP0    LOOKAHEAD_BUFFER$
        18 000160   000012 235100                    LDA     10,,PR0
        18 000161   000120 115007                    CMPA    80,DL
        18 000162   000201 604400 18                 TMOZ    s:5084
        18 000163   000001 234000 0                  SZN     LINE_GT_80_ISSUED
        18 000164   000201 604000 18                 TMI     s:5084

     1031     5080    3         AND LINE_GT_80_ISSUED = FALSE THEN DO ;

     1032     5081    3           CALL Z8AE$ERROR (%E$LINE_LENGTH_GT_80, FILL_BUFFER.ISN, 80) ;

   5081 18 000165   000010 236000 19                 LDQ     8
        18 000166   000004 756000 0                  STQ     LINE_GT_80_ISSUED+3
        18 000167   000000 236000 4                  LDQ     LOOKAHEAD_BUFFER$
        18 000170   000004 036003                    ADLQ    4,DU
        18 000171   000011 235000 19                 LDA     9
        18 000172   000002 757000 0                  STAQ    LINE_GT_80_ISSUED+1
        18 000173   000002 630400 0                  EPPR0   LINE_GT_80_ISSUED+1
        18 000174   000005 631400 19                 EPPR1   5
        18 000175   000000 701000 xent               TSX1    Z8AE$ERROR
        18 000176   000000 011000                    NOP     0

     1033     5082    3           LINE_GT_80_ISSUED = TRUE ;

   5082 18 000177   400000 236003                    LDQ     -131072,DU
        18 000200   000001 756000 0                  STQ     LINE_GT_80_ISSUED

     1034     5083    3         END ; /* Line > 80 bytes -- first time only */
PL6.E3A0      #002=Z8EL$GET_CHECK_SRC_LINE File=Z8EL.:Z8A6TSI                    SAT 08/09/97 12:07 Page:252

     1035     5084    2         FILL_BUFFER.STRIPPED_LINE_LENGTH = MINIMUM(FILL_BUFFER.LINE_LENGTH, 72);

   5084 18 000201   000110 236007                    LDQ     72,DL
        18 000202   000000 470400 4                  LDP0    LOOKAHEAD_BUFFER$
        18 000203   000206 604000 18                 TMI     s:5084+5
        18 000204   000012 116100                    CMPQ    10,,PR0
        18 000205   000207 604400 18                 TMOZ    s:5084+6
        18 000206   000012 236100                    LDQ     10,,PR0
        18 000207   000003 756100                    STQ     3,,PR0

     1036     5085    2         CALL SEARCHR(FILL_BUFFER.COLUMN,

   5085 18 000210   000012 720100                    LXL0    10,,PR0
        18 000211   000003 721100                    LXL1    3,,PR0
        18 000212   000000 165540                    TCTR
        18 000213   000013 000011                    ADSC9   11,,PR0                  cn=0,n=*X1
        18 000214   000000 000000 xsym               ARG     BLANK_SCAN_TABLE
        18 000215   000000 000100                    ARG     0,,PR0
        18 000216   000000 235100                    LDA     0,,PR0
        18 000217   000033 771000                    ARL     27
        18 000220   000000 471400 4                  LDP1    LOOKAHEAD_BUFFER$
        18 000221   100010 755100                    STA     8,,PR1
        18 000222   000000 551140                    STBA    0,'40'O,PR0
        18 000223   000226 606400 18                 TTN     s:5090
        18 000224   000000 054100                    AOS     0,,PR0
        18 000225   000000 156100                    SSQ     0,,PR0

     1037     5086    2                      FILL_BUFFER.CLASS,
     1038     5087    2                      BLANK_SCAN_TABLE,
     1039     5088    2                      FILL_BUFFER.SOURCE_LINE,
     1040     5089    2                      FILL_BUFFER.STRIPPED_LINE_LENGTH);
     1041     5090    2         FILL_BUFFER.STRIPPED_LINE_LENGTH = MINIMUM(FILL_BUFFER.STRIPPED_LINE_LENGTH,

   5090 18 000226   000000 470400 4                  LDP0    LOOKAHEAD_BUFFER$
        18 000227   000000 236100                    LDQ     0,,PR0
        18 000230   000001 036007                    ADLQ    1,DL
PL6.E3A0      #002=Z8EL$GET_CHECK_SRC_LINE File=Z8EL.:Z8A6TSI                    SAT 08/09/97 12:07 Page:253
        18 000231   000003 116100                    CMPQ    3,,PR0
        18 000232   000234 604400 18                 TMOZ    s:5090+6
        18 000233   000003 236100                    LDQ     3,,PR0
        18 000234   000003 756100                    STQ     3,,PR0

     1042     5091    2                                           FILL_BUFFER.COLUMN + 1);
     1043     5092    2         IF FILL_BUFFER.STRIPPED_LINE_LENGTH > 6 THEN

   5092 18 000235   000006 116007                    CMPQ    6,DL
        18 000236   000340 604400 18                 TMOZ    s:5130

     1044     5093    3           DO;

     1045     5094    3             IF SUBSTR(FILL_BUFFER.SOURCE_LINE,6,1) = '*'

   5094 18 000237   000012 720100                    LXL0    10,,PR0
        18 000240   000014 236100                    LDQ     12,,PR0
        18 000241   777000 376007                    ANQ     -512,DL
        18 000242   052000 116007                    CMPQ    21504,DL
        18 000243   000250 600000 18                 TZE     s:5096
        18 000244   000014 236100                    LDQ     12,,PR0
        18 000245   777000 376007                    ANQ     -512,DL
        18 000246   057000 116007                    CMPQ    24064,DL
        18 000247   000253 601000 18                 TNZ     s:5099

     1046     5095    3                  OR SUBSTR(FILL_BUFFER.SOURCE_LINE,6,1) = '/' THEN
     1047     5096    3               FILL_BUFFER.LINE_TYPE.NULL_COMMENT_LINE = TRUE;

   5096 18 000250   004000 236003                    LDQ     2048,DU
        18 000251   000011 256100                    ORSQ    9,,PR0
        18 000252   000342 710000 18                 TRA     s:5132

     1048     5097    3             ELSE
     1049     5098    4               DO;

     1050     5099    4                 IF SUBSTR(FILL_BUFFER.SOURCE_LINE,6,1) = '-' THEN

PL6.E3A0      #002=Z8EL$GET_CHECK_SRC_LINE File=Z8EL.:Z8A6TSI                    SAT 08/09/97 12:07 Page:254
   5099 18 000253   000014 236100                    LDQ     12,,PR0
        18 000254   777000 376007                    ANQ     -512,DL
        18 000255   055000 116007                    CMPQ    23040,DL
        18 000256   000262 601000 18                 TNZ     s:5102

     1051     5100    4                   FILL_BUFFER.LINE_TYPE.CONTINUATION = TRUE;

   5100 18 000257   400000 236003                    LDQ     -131072,DU
        18 000260   000011 256100                    ORSQ    9,,PR0
        18 000261   000273 710000 18                 TRA     s:5110

     1052     5101    4                 ELSE
     1053     5102    4                   IF COPY_DEBUG_LEVEL > 0

   5102 18 000262   000000 235000 15                 LDA     COPY_DEBUG_LEVEL
        18 000263   000273 604400 18                 TMOZ    s:5110
        18 000264   000000 236000 15                 LDQ     COPY_DEBUG_LEVEL
        18 000265   000001 116100                    CMPQ    1,,PR0
        18 000266   000273 605400 18                 TPNZ    s:5110

     1054     5103    4                       AND COPY_DEBUG_LEVEL <= FILL_BUFFER.LEVEL THEN
     1055     5104    5                     DO;

     1056     5105    5                       FILL_BUFFER.LINE_TYPE.DEBUG_LINE = TRUE;

   5105 18 000267   010000 236003                    LDQ     4096,DU
        18 000270   000011 256100                    ORSQ    9,,PR0

     1057     5106    5                       SUBSTR(FILL_BUFFER.SOURCE_LINE,

   5106 18 000271   104000 236007                    LDQ     34816,DL
        18 000272   000014 552110                    STBQ    12,'10'O,PR0

     1058     5107    5                              6,
     1059     5108    5                              1) = 'D';
     1060     5109    5                     END;

PL6.E3A0      #002=Z8EL$GET_CHECK_SRC_LINE File=Z8EL.:Z8A6TSI                    SAT 08/09/97 12:07 Page:255
     1061     5110    4                 IF SUBSTR(FILL_BUFFER.SOURCE_LINE,6,1) = 'D'

   5110 18 000273   000014 236100                    LDQ     12,,PR0
        18 000274   777000 376007                    ANQ     -512,DL
        18 000275   104000 116007                    CMPQ    34816,DL
        18 000276   000303 600000 18                 TZE     s:5112
        18 000277   000014 236100                    LDQ     12,,PR0
        18 000300   777000 376007                    ANQ     -512,DL
        18 000301   144000 116007                    CMPQ    51200,DL
        18 000302   000305 601000 18                 TNZ     s:5113

     1062     5111    4                      OR SUBSTR(FILL_BUFFER.SOURCE_LINE,6,1) = 'd' THEN
     1063     5112    4                   FILL_BUFFER.LINE_TYPE.DEBUG_LINE = TRUE;

   5112 18 000303   010000 236003                    LDQ     4096,DU
        18 000304   000011 256100                    ORSQ    9,,PR0

     1064     5113    4                 CALL SEARCH (FILL_BUFFER.COLUMN,

   5113 18 000305   000003 721100                    LXL1    3,,PR0
        18 000306   777771 622011                    EAX2    -7,X1
        18 000307   000000 164540                    TCT
        18 000310   000014 600012                    ADSC9   12,,PR0                  cn=3,n=*X2
        18 000311   000000 000000 xsym               ARG     BLANK_SCAN_TABLE
        18 000312   000000 000100                    ARG     0,,PR0
        18 000313   000000 235100                    LDA     0,,PR0
        18 000314   000033 771000                    ARL     27
        18 000315   000000 471400 4                  LDP1    LOOKAHEAD_BUFFER$
        18 000316   100010 755100                    STA     8,,PR1
        18 000317   000000 551140                    STBA    0,'40'O,PR0
        18 000320   000007 236007                    LDQ     7,DL
        18 000321   000000 056100                    ASQ     0,,PR0

     1065     5114    4                              FILL_BUFFER.CLASS,
     1066     5115    4                              BLANK_SCAN_TABLE,
     1067     5116    4                              SUBSTR(FILL_BUFFER.SOURCE_LINE,
     1068     5117    4                                       0,
PL6.E3A0      #002=Z8EL$GET_CHECK_SRC_LINE File=Z8EL.:Z8A6TSI                    SAT 08/09/97 12:07 Page:256
     1069     5118    4                                       FILL_BUFFER.STRIPPED_LINE_LENGTH),
     1070     5119    4                              7);
     1071     5120    4                 IF FILL_BUFFER.COLUMN >= FILL_BUFFER.STRIPPED_LINE_LENGTH THEN

   5120 18 000322   000000 470400 4                  LDP0    LOOKAHEAD_BUFFER$
        18 000323   000000 236100                    LDQ     0,,PR0
        18 000324   000003 116100                    CMPQ    3,,PR0
        18 000325   000331 604000 18                 TMI     s:5123

     1072     5121    4                   FILL_BUFFER.LINE_TYPE.NULL_COMMENT_LINE = TRUE;  /* BLANK LINE */

   5121 18 000326   004000 236003                    LDQ     2048,DU
        18 000327   000011 256100                    ORSQ    9,,PR0
        18 000330   000342 710000 18                 TRA     s:5132

     1073     5122    4                 ELSE
     1074     5123    4                   IF FILL_BUFFER.LINE_TYPE.CONTINUATION

   5123 18 000331   000011 234100                    SZN     9,,PR0
        18 000332   000342 605000 18                 TPL     s:5132
        18 000333   000013 116007                    CMPQ    11,DL
        18 000334   000342 605000 18                 TPL     s:5132

     1075     5124    4                         AND FILL_BUFFER.COLUMN < 11 THEN
     1076     5125    4                     FILL_BUFFER.LINE_TYPE.CONTINUATION_COL_8_11_ERROR

   5125 18 000335   002000 236003                    LDQ     1024,DU
        18 000336   000011 256100                    ORSQ    9,,PR0

     1077     5126    4                              = TRUE;
     1078     5127    4               END;

     1079     5128    3           END;

   5128 18 000337   000342 710000 18                 TRA     s:5132

     1080     5129    2         ELSE
PL6.E3A0      #002=Z8EL$GET_CHECK_SRC_LINE File=Z8EL.:Z8A6TSI                    SAT 08/09/97 12:07 Page:257
     1081     5130    2           FILL_BUFFER.LINE_TYPE.NULL_COMMENT_LINE = TRUE;  /* BLANK LINE */

   5130 18 000340   004000 236003                    LDQ     2048,DU
        18 000341   000011 256100                    ORSQ    9,,PR0

     1082     5131
     1083     5132    2         IF  FILL_BUFFER.LEVEL < COPY_DEBUG_LEVEL THEN

   5132 18 000342   000001 236100                    LDQ     1,,PR0
        18 000343   000000 116000 15                 CMPQ    COPY_DEBUG_LEVEL
        18 000344   000346 605000 18                 TPL     GNSLEOF

     1084     5133    2            COPY_DEBUG_LEVEL = 0;

   5133 18 000345   000000 450000 15                 STZ     COPY_DEBUG_LEVEL

     1085     5134    2       END;

     1086     5135
     1087     5136
     1088     5137
     1089     5138    1   GNSLEOF:
     1090     5139    1     RETURN;

   5139 18 000346   000000 221200 0     GNSLEOF      LDX1  ! 0
        18 000347   000001 702211                    TSX2  ! 1,X1
     1091     5140
     1092     5141    1   END Z8EL$GET_CHECK_SRC_LINE;
     1093     5142        %EOD;

PL6.E3A0      #002=Z8EL$GET_CHECK_SRC_LINE File=Z8EL.:Z8A6TSI                    SAT 08/09/97 12:07 Page:258
--  Include file information  --

   Z8A_ERR_NUMS.:Z8A6TOU  is referenced.
   Z8E_REPLACE.:Z8A6TOU  cannot be made into a system file and is referenced.
   Z8E_HEAP.:Z8A6TOU  cannot be made into a system file and is referenced.
   Z8E_TABLES.:Z8A6TOU  cannot be made into a system file and is referenced.
   Z8E_BUFFERS.:Z8A6TOU  cannot be made into a system file and is referenced.
   Z8A_COMCOM.:Z8A6TOU  cannot be made into a system file and is referenced.
   X8A_COM_MACS.:X8A6TOU  is referenced.
   Z8A_NAMES.:Z8A6TOU  is referenced.
   Z8A_SUPP_MAC.:Z8A6TOU  is referenced.
   Z8A_DEFC.:Z8A6TOU  cannot be made into a system file and is referenced.
      No diagnostics issued in procedure Z8EL$GET_CHECK_SRC_LINE.
PL6.E3A0      #002=Z8EL$GET_CHECK_SRC_LINE File=Z8EL.:Z8A6TSI                    SAT 08/09/97 12:07 Page:259

 **** Variables and constants ****

  ****  Section 000  Data  Z8EL$GET_CHECK_SRC_LINE

  ****  Scalars and arrays  ****
OctLoc.c.b A Datatyp(siz) R M Lvl/name                 OctLoc.c.b A Datatyp(siz) R M Lvl/name

     1-0-0/b BIT         r     1 LINE_GT_80_ISSUED

  ****  Section 001 LblCom ITERATION

  ****  Scalars and arrays  ****
OctLoc.c.b A Datatyp(siz) R M Lvl/name                 OctLoc.c.b A Datatyp(siz) R M Lvl/name

     0-0-0/w SBIN              1 ITERATION

  ****  Section 002 LblCom SCANNER_STATE

  ****  Scalars and arrays  ****
OctLoc.c.b A Datatyp(siz) R M Lvl/name                 OctLoc.c.b A Datatyp(siz) R M Lvl/name

     0-0-0/w SBIN              1 SCANNER_STATE

  ****  Section 003 LblCom CURRENT_BUFFER$

  ****  Scalars and arrays  ****
OctLoc.c.b A Datatyp(siz) R M Lvl/name                 OctLoc.c.b A Datatyp(siz) R M Lvl/name

     0-0-0/w PTR               1 CURRENT_BUFFER$

  ****  Section 004 LblCom LOOKAHEAD_BUFFER$

  ****  Scalars and arrays  ****
OctLoc.c.b A Datatyp(siz) R M Lvl/name                 OctLoc.c.b A Datatyp(siz) R M Lvl/name

     0-0-0/w PTR         r     1 LOOKAHEAD_BUFFER$

PL6.E3A0      #002=Z8EL$GET_CHECK_SRC_LINE File=Z8EL.:Z8A6TSI                    SAT 08/09/97 12:07 Page:260
  ****  Section 005 LblCom CURRENT_LINE_LEVEL

  ****  Scalars and arrays  ****
OctLoc.c.b A Datatyp(siz) R M Lvl/name                 OctLoc.c.b A Datatyp(siz) R M Lvl/name

     0-0-0/w SBIN              1 CURRENT_LINE_LEVEL

  ****  Section 006 LblCom LINE_LIST$

  ****  Scalars and arrays  ****
OctLoc.c.b A Datatyp(siz) R M Lvl/name                 OctLoc.c.b A Datatyp(siz) R M Lvl/name

     0-0-0/w PTR               1 LINE_LIST$

  ****  Section 007 LblCom BUFFER

  ****  Scalars and arrays  ****
OctLoc.c.b A Datatyp(siz) R M Lvl/name                 OctLoc.c.b A Datatyp(siz) R M Lvl/name

     0-0-0/w STRC(252)   r     1 BUFFER

  ****  Section 008 LblCom ORIGINAL_ISN

  ****  Scalars and arrays  ****
OctLoc.c.b A Datatyp(siz) R M Lvl/name                 OctLoc.c.b A Datatyp(siz) R M Lvl/name

     0-0-0/w SBIN              1 ORIGINAL_ISN

  ****  Section 009 LblCom EXPANDED_ISN

  ****  Scalars and arrays  ****
OctLoc.c.b A Datatyp(siz) R M Lvl/name                 OctLoc.c.b A Datatyp(siz) R M Lvl/name

     0-0-0/w SBIN              1 EXPANDED_ISN

  ****  Section 010 LblCom ISN_FOR_EXP_SRC

PL6.E3A0      #002=Z8EL$GET_CHECK_SRC_LINE File=Z8EL.:Z8A6TSI                    SAT 08/09/97 12:07 Page:261
  ****  Scalars and arrays  ****
OctLoc.c.b A Datatyp(siz) R M Lvl/name                 OctLoc.c.b A Datatyp(siz) R M Lvl/name

     0-0-0/w SBIN              1 ISN_FOR_EXP_SRC

  ****  Section 011 LblCom HEAP$

  ****  Scalars and arrays  ****
OctLoc.c.b A Datatyp(siz) R M Lvl/name                 OctLoc.c.b A Datatyp(siz) R M Lvl/name

     0-0-0/w PTR               1 HEAP$

  ****  Section 012 LblCom CURRENT_SYMBOL_LEVEL

  ****  Scalars and arrays  ****
OctLoc.c.b A Datatyp(siz) R M Lvl/name                 OctLoc.c.b A Datatyp(siz) R M Lvl/name

     0-0-0/w SBIN              1 CURRENT_SYMBOL_LEVEL

  ****  Section 013 LblCom REPLACE_ACTIVE

  ****  Scalars and arrays  ****
OctLoc.c.b A Datatyp(siz) R M Lvl/name                 OctLoc.c.b A Datatyp(siz) R M Lvl/name

     0-0-0/b BIT               1 REPLACE_ACTIVE

  ****  Section 014 LblCom IGNORE_COPY_REPLACE

  ****  Scalars and arrays  ****
OctLoc.c.b A Datatyp(siz) R M Lvl/name                 OctLoc.c.b A Datatyp(siz) R M Lvl/name

     0-0-0/b BIT               1 IGNORE_COPY_REPLACE

  ****  Section 015 LblCom COPY_DEBUG_LEVEL

  ****  Scalars and arrays  ****
OctLoc.c.b A Datatyp(siz) R M Lvl/name                 OctLoc.c.b A Datatyp(siz) R M Lvl/name
PL6.E3A0      #002=Z8EL$GET_CHECK_SRC_LINE File=Z8EL.:Z8A6TSI                    SAT 08/09/97 12:07 Page:262

     0-0-0/w SBIN        r     1 COPY_DEBUG_LEVEL

  ****  Section 016 LblCom REPLACE_LIST

  ****  Scalars and arrays  ****
OctLoc.c.b A Datatyp(siz) R M Lvl/name                 OctLoc.c.b A Datatyp(siz) R M Lvl/name

     0-0-0/w STRC(144)         1 REPLACE_LIST

  ****  Section 017 LblCom LEX_SYMBOL_QUEUE$

  ****  Scalars and arrays  ****
OctLoc.c.b A Datatyp(siz) R M Lvl/name                 OctLoc.c.b A Datatyp(siz) R M Lvl/name

     0-0-0/w PTR               1 LEX_SYMBOL_QUEUE$

  ****  SYMREF variables  ****

  ****  Scalars and arrays  ****
OctLoc.c.b A Datatyp(siz) R M Lvl/name                 OctLoc.c.b A Datatyp(siz) R M Lvl/name

     0-0-0/w STRC(4608)        1 ANSI_USERWORD_SCAN_TABLE
     0-0-0/w STRC(4608)        1 ASCII_SEARCH_TABLE         0-0-0/w STRC(4608)  r     1 BLANK_SCAN_TABLE
     0-0-0/d STRC(13248) r     1 COMCOM
     0-0-0/c CHAR              1 CURRENCY_SIGN_CHARS(0:511)
     0-0-0/w STRC(4608)        1 DBL_QUOTE_PSEUDO_SEARCH_TABLE
     0-0-0/w STRC(4608)        1 DIGIT_SCAN_TABLE
     0-0-0/w STRC(4608)        1 DOUBLE_QUOTE_SEARCH_TABLE
     0-0-0/w STRC(4608)        1 LETTER_SEARCH_TABLE
     0-0-0/c CHAR              1 LOWER_TO_UPPER_CASE(0:511)
     0-0-0/w STRC(4608)        1 SEPARATORS_TABLE
     0-0-0/w STRC(4608)        1 SINGLE_QUOTE_SEARCH_TABLE
     0-0-0/w STRC(4608)        1 SNGL_QUOTE_PSEUDO_SEARCH_TABLE
     0-0-0/w STRC(4608)        1 USERWORD_SCAN_TABLE

  ****  BASED and DCB variables  ****
PL6.E3A0      #002=Z8EL$GET_CHECK_SRC_LINE File=Z8EL.:Z8A6TSI                    SAT 08/09/97 12:07 Page:263

  ****  Scalars and arrays  ****
OctLoc.c.b A Datatyp(siz) R M Lvl/name                 OctLoc.c.b A Datatyp(siz) R M Lvl/name

     0-0-0/c ACHR              1 BUFFER_LINE                0-0-0/w CHAR(4096)        1 CHARS
     0-0-0/w STRC(72)          1 CONT                       0-0-0/w ASTR(396)   r     1 EXP_SRC_BUFF
     0-0-0/w ASTR(396)   r     1 FILL_BUFFER                0-0-0/w STRC(36864)       1 PAGE
     0-0-0/w STRC(252)         1 REPLACE_ITEM


   Procedure Z8EL$GET_CHECK_SRC_LINE requires 232 words for executable code.
   Procedure Z8EL$GET_CHECK_SRC_LINE is declared NOAUTO and requires 6 words of local(STATIC) storage.

PL6.E3A0      #003=Z8EL$GET_NEXT_SCANNER_LINE File=Z8EL.:Z8A6TSI                 SAT 08/09/97 12:08 Page:264
     1094        1        /*T***********************************************************/
     1095        2        /*T*                                                         */
     1096        3        /*T* Copyright (c) Bull HN Information Systems Inc., 1997    */
     1097        4        /*T*                                                         */
     1098        5        /*T***********************************************************/
     1099        6        Z8EL$GET_NEXT_SCANNER_LINE : PROC NOAUTO;
     1100        7
     1101        8        %EQU PHASE = 1;
     1102        9        %INCLUDE Z8A_DEFC;
     1103       77        %INCLUDE Z8A_SUPP_MAC;
     1104     2477        %INCLUDE Z9A_FLAGS;
     1105     2491        %INCLUDE Z8A_COMCOM;
     1106     3141        %INCLUDE Z8E_BUFFERS;
     1107     3331        %INCLUDE Z8E_TABLES;
     1108     3884        %INCLUDE Z8E_WINDOW;
     1109     5954        %INCLUDE Z8A_ERR_NUMS;
     1110     6718        %INCLUDE Z8E_STACKS ; /* Required for Z8E_O1COM -- LENGTH_LX_ITEM */
     1111     8984        %INCLUDE Z8E_O1COM ;
     1112     9745
     1113     9746    1   DCL Z8EL$GET_CHECK_SRC_LINE ENTRY;
     1114     9747    1   DCL Z8AE$ERROR ENTRY(12);
     1115     9748    1   DCL Z8EL$DUMP_USED_LINES ENTRY;
     1116     9749
     1117     9750    1   DCL NEXT_CURRENT_BUFFER$ PTR;
     1118     9751
     1119     9752
     1120     9753    1     ADD_NON_CURRENT_LEVEL_LINE : PROC(BUFFER$);
     1121     9754
     1122     9755    2       DCL BUFFER$ PTR;
     1123     9756
     1124     9757    2       DCL CP$ PTR;
     1125     9758
     1126     9759    2       CP$ = BUFFER$;
     1127     9760    3       DO WHILE CP$ -> FILL_BUFFER.NEXT$ ~= ADDR(NIL)
     1128     9761    3             AND CP$ -> FILL_BUFFER.LEVEL
     1129     9762    3                   >= LOOKAHEAD_BUFFER$ -> FILL_BUFFER.LEVEL;
     1130     9763
PL6.E3A0      #003=Z8EL$GET_NEXT_SCANNER_LINE File=Z8EL.:Z8A6TSI                 SAT 08/09/97 12:08 Page:265
     1131     9764    3         CP$ = CP$ -> FILL_BUFFER.NEXT$;
     1132     9765
     1133     9766    3       END;
     1134     9767
     1135     9768    2       LOOKAHEAD_BUFFER$ -> FILL_BUFFER.NEXT$
     1136     9769    2               = CP$ -> FILL_BUFFER.NEXT$;
     1137     9770    2       CP$ -> FILL_BUFFER.NEXT$ = LOOKAHEAD_BUFFER$;
     1138     9771
     1139     9772    2     END ADD_NON_CURRENT_LEVEL_LINE;
     1140     9773
     1141     9774
     1142     9775        /* Get current record */
     1143     9776    2   DO UNTIL (NOT CURRENT_BUFFER$ -> FILL_BUFFER.LINE_TYPE.NULL_COMMENT_LINE
     1144     9777    2               AND (O1COM.DEBUGGING_MODE
     1145     9778    2                    OR NOT CURRENT_BUFFER$ -> FILL_BUFFER.LINE_TYPE.DEBUG_LINE)
     1146     9779    2             OR O1COM.PSEUDO_TEXT_FLAG
     1147     9780    2                AND O1COM.REPLACE_BY_FLAG)
     1148     9781    2        AND NOT CURRENT_BUFFER$ -> FILL_BUFFER.LINE_TYPE.NEW_REP_LINE
     1149     9782    2        AND NOT CURRENT_BUFFER$ -> FILL_BUFFER.LINE_TYPE.IDS_LINE;
     1150     9783
     1151     9784    2     IF CURRENT_BUFFER$ = ADDR(NIL) THEN
     1152     9785    3       DO;
     1153     9786    3         CALL Z8EL$GET_CHECK_SRC_LINE;
     1154     9787    3         CURRENT_BUFFER$ = LOOKAHEAD_BUFFER$;
     1155     9788    3         LINE_LIST$ = LOOKAHEAD_BUFFER$;
     1156     9789    3       END;
     1157     9790    2     ELSE
     1158     9791    3       DO;
     1159     9792    3         IF CURRENT_BUFFER$ -> FILL_BUFFER.NEXT$ = ADDR(NIL)
     1160     9793    3               OR
     1161     9794    3            CURRENT_LINE_LEVEL > CURRENT_BUFFER$ -> FILL_BUFFER.NEXT$
     1162     9795    3                                     -> FILL_BUFFER.LEVEL THEN
     1163     9796    4           DO;
     1164     9797    4             CALL Z8EL$GET_CHECK_SRC_LINE;
     1165     9798    4             IF LOOKAHEAD_BUFFER$ -> FILL_BUFFER.LEVEL
     1166     9799    4                    = CURRENT_LINE_LEVEL THEN
     1167     9800    5               DO;
PL6.E3A0      #003=Z8EL$GET_NEXT_SCANNER_LINE File=Z8EL.:Z8A6TSI                 SAT 08/09/97 12:08 Page:266
     1168     9801    5                 LOOKAHEAD_BUFFER$ -> FILL_BUFFER.NEXT$
     1169     9802    5                        = CURRENT_BUFFER$ -> FILL_BUFFER.NEXT$;
     1170     9803    5                 CURRENT_BUFFER$ -> FILL_BUFFER.NEXT$ = LOOKAHEAD_BUFFER$;
     1171     9804    5               END;
     1172     9805    4             ELSE
     1173     9806    5               DO;
     1174     9807    5                 CURRENT_LINE_LEVEL = LOOKAHEAD_BUFFER$ -> FILL_BUFFER.LEVEL;
     1175     9808    5                 CALL ADD_NON_CURRENT_LEVEL_LINE (CURRENT_BUFFER$);
     1176     9809    5               END;
     1177     9810    4           END;
     1178     9811    3         CURRENT_BUFFER$ = CURRENT_BUFFER$ -> FILL_BUFFER.NEXT$;
     1179     9812    3       END;
     1180     9813
     1181     9814    2     EXPANDED_ISN = EXPANDED_ISN + 1;
     1182     9815    2     CURRENT_BUFFER$ -> FILL_BUFFER.ISN = EXPANDED_ISN;
     1183     9816
     1184     9817    2   END;  /* Do until */
     1185     9818
     1186     9819    1   IF CURRENT_BUFFER$ -> FILL_BUFFER.LINE_TYPE.NULL_COMMENT_LINE THEN
     1187     9820    2     DO; /* Possible only in pseudotext */
     1188     9821    2       IF CURRENT_BUFFER$ -> FILL_BUFFER.STRIPPED_LINE_LENGTH <
     1189     9822    2           O1COM.AREA_A_COLUMN_START THEN
     1190     9823    3         DO;
     1191     9824    3           CURRENT_BUFFER$ -> FILL_BUFFER.COLUMN = CURRENT_BUFFER$ -> FILL_BUFFER.
              9824                    STRIPPED_LINE_LENGTH;
     1192     9825    3           CURRENT_BUFFER$ -> FILL_BUFFER.CLASS = %END_OF_LINE;
     1193     9826    3         END;
     1194     9827    2       ELSE
     1195     9828    2         CALL SEARCH (CURRENT_BUFFER$ -> FILL_BUFFER.COLUMN,
     1196     9829    2                      CURRENT_BUFFER$ -> FILL_BUFFER.CLASS,
     1197     9830    2                      BLANK_SCAN_TABLE,
     1198     9831    2                      SUBSTR (CURRENT_BUFFER$ -> FILL_BUFFER.SOURCE_LINE,
     1199     9832    2                              0,
     1200     9833    2                              CURRENT_BUFFER$ -> FILL_BUFFER.STRIPPED_LINE_LENGTH),
     1201     9834    2                      O1COM.AREA_A_COLUMN_START);
     1202     9835    2     END;
     1203     9836
PL6.E3A0      #003=Z8EL$GET_NEXT_SCANNER_LINE File=Z8EL.:Z8A6TSI                 SAT 08/09/97 12:08 Page:267
     1204     9837        /* Get possible continuation record */
     1205     9838
     1206     9839    1   NEXT_CURRENT_BUFFER$ = CURRENT_BUFFER$;
     1207     9840
     1208     9841    2   DO UNTIL NOT NEXT_CURRENT_BUFFER$ -> FILL_BUFFER.LINE_TYPE.NULL_COMMENT_LINE
     1209     9842    2         AND NOT NEXT_CURRENT_BUFFER$ -> FILL_BUFFER.LINE_TYPE.NEW_REP_LINE
     1210     9843    2         AND NOT NEXT_CURRENT_BUFFER$ -> FILL_BUFFER.LINE_TYPE.IDS_LINE;
     1211     9844
     1212     9845    2     IF NEXT_CURRENT_BUFFER$ -> FILL_BUFFER.NEXT$ = ADDR(NIL)
     1213     9846    2           OR
     1214     9847    2          CURRENT_LINE_LEVEL > NEXT_CURRENT_BUFFER$ -> FILL_BUFFER.NEXT$
     1215     9848    2                                    -> FILL_BUFFER.LEVEL THEN
     1216     9849    3       DO;
     1217     9850    3         CALL Z8EL$GET_CHECK_SRC_LINE;
     1218     9851    3         IF LOOKAHEAD_BUFFER$ -> FILL_BUFFER.LEVEL = CURRENT_LINE_LEVEL THEN
     1219     9852    4           DO;
     1220     9853    4             LOOKAHEAD_BUFFER$ -> FILL_BUFFER.NEXT$
     1221     9854    4                   = NEXT_CURRENT_BUFFER$ -> FILL_BUFFER.NEXT$;
     1222     9855    4             NEXT_CURRENT_BUFFER$ -> FILL_BUFFER.NEXT$ = LOOKAHEAD_BUFFER$;
     1223     9856    4           END;
     1224     9857    3         ELSE
     1225     9858    4           DO;
     1226     9859    4             CURRENT_LINE_LEVEL = LOOKAHEAD_BUFFER$ -> FILL_BUFFER.LEVEL;
     1227     9860    4             CALL ADD_NON_CURRENT_LEVEL_LINE (NEXT_CURRENT_BUFFER$);
     1228     9861    4           END;
     1229     9862    3       END;
     1230     9863    2     NEXT_CURRENT_BUFFER$ = NEXT_CURRENT_BUFFER$ -> FILL_BUFFER.NEXT$;
     1231     9864    2   END;  /* DO UNTIL */
     1232     9865
     1233     9866    1   LOOKAHEAD_BUFFER$ = NEXT_CURRENT_BUFFER$;
     1234     9867
     1235     9868
     1236     9869
     1237     9870    1     CALL Z8EL$DUMP_USED_LINES;
     1238     9871
     1239     9872    1     BUFFER.COLUMN = CURRENT_BUFFER$ -> FILL_BUFFER.COLUMN;
     1240     9873    1     BUFFER.CLASS = CURRENT_BUFFER$ -> FILL_BUFFER.CLASS;
PL6.E3A0      #003=Z8EL$GET_NEXT_SCANNER_LINE File=Z8EL.:Z8A6TSI                 SAT 08/09/97 12:08 Page:268
     1241     9874    1     BUFFER.ISN = CURRENT_BUFFER$ -> FILL_BUFFER.ISN;
     1242     9875    1     BUFFER.LEVEL = CURRENT_BUFFER$ -> FILL_BUFFER.LEVEL;
     1243     9876    1     BUFFER.LINE_TYPE.LINE_CONTINUED = LOOKAHEAD_BUFFER$ -> FILL_BUFFER.LINE_TYPE.
              9876              CONTINUATION;
     1244     9877    1     BUFFER.LINE_TYPE.DEBUG_LINE = CURRENT_BUFFER$ -> FILL_BUFFER.LINE_TYPE.DEBUG_LINE;
     1245     9878    1     BUFFER.LINE_LENGTH = CURRENT_BUFFER$ -> FILL_BUFFER.STRIPPED_LINE_LENGTH;
     1246     9879    1     BUFFER.LINE$ = ADDR(CURRENT_BUFFER$ -> FILL_BUFFER.SOURCE_LINE);
     1247     9880
     1248     9881    1     IF CURRENT_BUFFER$ -> FILL_BUFFER.LINE_TYPE.CONTINUATION_COL_8_11_ERROR AND
     1249     9882              %IF GCOS;
     1252     9885              %ENDIF;
     1253     9886    1         COMCOM.OB.FIPS.LEVEL >= %HIGH_LEV THEN
     1254     9887    2       DO;
     1255     9888    2         CALL Z8AE$ERROR(%E$CONT_COL_8_11_ERROR,
     1256     9889    2                         CURRENT_BUFFER$ -> FILL_BUFFER.ISN,
     1257     9890    2                         O1COM.AREA_B_COLUMN_START);
     1258     9891    2       END;
     1259     9892
     1260     9893    1     RETURN;
     1261     9894
     1262     9895    1   END Z8EL$GET_NEXT_SCANNER_LINE;
     1263     9896        %EOD;

PL6.E3A0      #003=Z8EL$GET_NEXT_SCANNER_LINE File=Z8EL.:Z8A6TSI                 SAT 08/09/97 12:08 Page:269
--  Include file information  --

   Z8E_O1COM.:Z8A6TOU  cannot be made into a system file and is referenced.
   Z8A_LEX_SYMB.:Z8A6TOU  cannot be made into a system file and is referenced.
   Z8E_STACKS.:Z8A6TOU  cannot be made into a system file and is referenced.
   Z8A_ERR_NUMS.:Z8A6TOU  is referenced.
   Z8E_WINDOW.:Z8A6TOU  is referenced.
   Z8E_TABLES.:Z8A6TOU  cannot be made into a system file and is referenced.
   Z8E_BUFFERS.:Z8A6TOU  cannot be made into a system file and is referenced.
   Z8A_COMCOM.:Z8A6TOU  cannot be made into a system file and is referenced.
   Z9A_FLAGS.:Z8A6TOU  is referenced.
   X8A_COM_MACS.:X8A6TOU  is referenced.
   Z8A_NAMES.:Z8A6TOU  is referenced.
   Z8A_SUPP_MAC.:Z8A6TOU  is referenced.
   Z8A_DEFC.:Z8A6TOU  cannot be made into a system file and is referenced.
      No diagnostics issued in procedure Z8EL$GET_NEXT_SCANNER_LINE.

   Procedure Z8EL$GET_NEXT_SCANNER_LINE requires 198 words for executable code.
   Procedure Z8EL$GET_NEXT_SCANNER_LINE is declared NOAUTO and requires 10 words of local(STATIC) storage.

PL6.E3A0      #003=Z8EL$GET_NEXT_SCANNER_LINE File=Z8EL.:Z8A6TSI                 SAT 08/09/97 12:08 Page:270

 Object Unit name= Z8EL$GET_NEXT_SCANNER_LINE                 File name= Z8EL.:Z8A6TOU
 UTS= AUG 09 '97 12:08:06.60 SAT                              Compiler= PL-6/E31         Sev=      00
 SharedLib= :SHARED_SYSTEM                                    Alt SharedLib=


    ****  Control sections  ****

 Sect   Type Bound  Init  Size OctSiz  Section name(segment info)
    0   Data  even  none    10     12  Z8EL$GET_NEXT_SCANNER_LINE
    1  LblCom even  none     1      1  ITERATION
    2  LblCom even  none     1      1  SCANNER_STATE
    3  LblCom even  none     1      1  CURRENT_BUFFER$
    4  LblCom even  none     1      1  LOOKAHEAD_BUFFER$
    5  LblCom even  none     1      1  CURRENT_LINE_LEVEL
    6  LblCom even  none     1      1  LINE_LIST$
    7  LblCom even  none     7      7  BUFFER
    8  LblCom even  none     1      1  ORIGINAL_ISN
    9  LblCom even  none     1      1  EXPANDED_ISN
   10  LblCom even  none     1      1  ISN_FOR_EXP_SRC
   11  LblCom even  none    90    132  LEX_SYMBOL
   12  LblCom even  none     1      1  CURRENT_LEX_SYMBOL$
   13  LblCom even  none    90    132  TEMP_LEX_SYMBOL
   14  LblCom even  none    90    132  TEMP_LEX_SYMBOL2
   15   Proc  even  none   198    306  Z8EL$GET_NEXT_SCANNER_LINE
   16  RoData even  none     8     10  Z8EL$GET_NEXT_SCANNER_LINE

    ****  Entry defs  ****

                              Check   Calling
                             calling  sequence
  Sect OctLoc Primary Altret sequence   type   Parms  Name
    15      0   yes            yes      Std        0  Z8EL$GET_NEXT_SCANNER_LINE
PL6.E3A0      #003=Z8EL$GET_NEXT_SCANNER_LINE File=Z8EL.:Z8A6TSI                 SAT 08/09/97 12:08 Page:271

  ****  Entry refs  ****

         Check        Calling
        calling       sequence
Altret sequence SRef   type   Args  Name
         yes           Std       0 Z8EL$GET_CHECK_SRC_LINE
         yes           Std       0 Z8EL$DUMP_USED_LINES
         yes           Std      12 Z8AE$ERROR

  ****  Data refs  ****

  Flags:  r = read only, s = secondary
Flgs Name                             Flgs Name                             Flgs Name
     COMCOM                           r    USERWORD_SCAN_TABLE              r    ANSI_USERWORD_SCAN_TABLE
r    ASCII_SEARCH_TABLE               r    BLANK_SCAN_TABLE                 r    DIGIT_SCAN_TABLE
r    LETTER_SEARCH_TABLE              r    DOUBLE_QUOTE_SEARCH_TABLE        r    SINGLE_QUOTE_SEARCH_TABLE
r    DBL_QUOTE_PSEUDO_SEARCH_TABLE    r    SNGL_QUOTE_PSEUDO_SEARCH_TABLE   r    SEPARATORS_TABLE
r    LOWER_TO_UPPER_CASE              r    CURRENCY_SIGN_CHARS                   O1COM
     HIER_STK_PTR                          HIER_STK                              PAGE_FORMAT
     REP_STK_PTR                           REP_STK

  ****  Segment refs  ****

  Flags:  r = read only, s = secondary
Flgs Name                             Flgs Name                             Flgs Name
     NULLSID                               ISSID
PL6.E3A0      #003=Z8EL$GET_NEXT_SCANNER_LINE File=Z8EL.:Z8A6TSI                 SAT 08/09/97 12:08 Page:272


     1094        1        /*T***********************************************************/
     1095        2        /*T*                                                         */
     1096        3        /*T* Copyright (c) Bull HN Information Systems Inc., 1997    */
     1097        4        /*T*                                                         */
     1098        5        /*T***********************************************************/
     1099        6        Z8EL$GET_NEXT_SCANNER_LINE : PROC NOAUTO;

      6 15 000000   000000 741200 0     Z8EL$GET_NE* STX1  ! 0
        15 000001   000031 710000 15                 TRA     s:9784

     1100        7
     1101        8        %EQU PHASE = 1;
     1102        9        %INCLUDE Z8A_DEFC;
     1103       77        %INCLUDE Z8A_SUPP_MAC;
     1104     2477        %INCLUDE Z9A_FLAGS;
     1105     2491        %INCLUDE Z8A_COMCOM;
     1106     3141        %INCLUDE Z8E_BUFFERS;
     1107     3331        %INCLUDE Z8E_TABLES;
     1108     3884        %INCLUDE Z8E_WINDOW;
     1109     5954        %INCLUDE Z8A_ERR_NUMS;
     1110     6718        %INCLUDE Z8E_STACKS ; /* Required for Z8E_O1COM -- LENGTH_LX_ITEM */
     1111     8984        %INCLUDE Z8E_O1COM ;
     1112     9745
     1113     9746    1   DCL Z8EL$GET_CHECK_SRC_LINE ENTRY;
     1114     9747    1   DCL Z8AE$ERROR ENTRY(12);
     1115     9748    1   DCL Z8EL$DUMP_USED_LINES ENTRY;
     1116     9749
     1117     9750    1   DCL NEXT_CURRENT_BUFFER$ PTR;
     1118     9751
     1119     9752
     1120     9753    1     ADD_NON_CURRENT_LEVEL_LINE : PROC(BUFFER$);

   9753 15 000002   000002 741200 0     ADD_NON_CUR* STX1  ! NEXT_CURRENT_BUFFER$+1

     1121     9754
     1122     9755    2       DCL BUFFER$ PTR;
PL6.E3A0      #003=Z8EL$GET_NEXT_SCANNER_LINE File=Z8EL.:Z8A6TSI                 SAT 08/09/97 12:08 Page:273
     1123     9756
     1124     9757    2       DCL CP$ PTR;
     1125     9758
     1126     9759    2       CP$ = BUFFER$;

   9759 15 000003   000003 470400 0                  LDP0    @BUFFER$
        15 000004   000000 236100                    LDQ     0,,PR0
        15 000005   000004 756000 0                  STQ     CP$

     1127     9760    3       DO WHILE CP$ -> FILL_BUFFER.NEXT$ ~= ADDR(NIL)

   9760 15 000006   000012 710000 15                 TRA     s:9766

     1128     9761    3             AND CP$ -> FILL_BUFFER.LEVEL
     1129     9762    3                   >= LOOKAHEAD_BUFFER$ -> FILL_BUFFER.LEVEL;
     1130     9763
     1131     9764    3         CP$ = CP$ -> FILL_BUFFER.NEXT$;

   9764 15 000007   000004 470400 0                  LDP0    CP$
        15 000010   000002 236100                    LDQ     2,,PR0
        15 000011   000004 756000 0                  STQ     CP$

     1132     9765
     1133     9766    3       END;

   9766 15 000012   000004 470400 0                  LDP0    CP$
        15 000013   000002 236100                    LDQ     2,,PR0
        15 000014   000000 116000 16                 CMPQ    0
        15 000015   000022 600000 15                 TZE     s:9768
        15 000016   000000 471400 4                  LDP1    LOOKAHEAD_BUFFER$
        15 000017   000001 236100                    LDQ     1,,PR0
        15 000020   100001 116100                    CMPQ    1,,PR1
        15 000021   000007 605000 15                 TPL     s:9764

     1134     9767
     1135     9768    2       LOOKAHEAD_BUFFER$ -> FILL_BUFFER.NEXT$

PL6.E3A0      #003=Z8EL$GET_NEXT_SCANNER_LINE File=Z8EL.:Z8A6TSI                 SAT 08/09/97 12:08 Page:274
   9768 15 000022   000002 236100                    LDQ     2,,PR0
        15 000023   000000 471400 4                  LDP1    LOOKAHEAD_BUFFER$
        15 000024   100002 756100                    STQ     2,,PR1

     1136     9769    2               = CP$ -> FILL_BUFFER.NEXT$;
     1137     9770    2       CP$ -> FILL_BUFFER.NEXT$ = LOOKAHEAD_BUFFER$;

   9770 15 000025   000000 236000 4                  LDQ     LOOKAHEAD_BUFFER$
        15 000026   000002 756100                    STQ     2,,PR0

     1138     9771
     1139     9772    2     END ADD_NON_CURRENT_LEVEL_LINE;

   9772 15 000027   000002 221200 0                  LDX1  ! NEXT_CURRENT_BUFFER$+1
        15 000030   000001 702211                    TSX2  ! 1,X1

     1140     9773
     1141     9774
     1142     9775        /* Get current record */
     1143     9776    2   DO UNTIL (NOT CURRENT_BUFFER$ -> FILL_BUFFER.LINE_TYPE.NULL_COMMENT_LINE

     1144     9777    2               AND (O1COM.DEBUGGING_MODE
     1145     9778    2                    OR NOT CURRENT_BUFFER$ -> FILL_BUFFER.LINE_TYPE.DEBUG_LINE)
     1146     9779    2             OR O1COM.PSEUDO_TEXT_FLAG
     1147     9780    2                AND O1COM.REPLACE_BY_FLAG)
     1148     9781    2        AND NOT CURRENT_BUFFER$ -> FILL_BUFFER.LINE_TYPE.NEW_REP_LINE
     1149     9782    2        AND NOT CURRENT_BUFFER$ -> FILL_BUFFER.LINE_TYPE.IDS_LINE;
     1150     9783
     1151     9784    2     IF CURRENT_BUFFER$ = ADDR(NIL) THEN

   9784 15 000031   000000 236000 3                  LDQ     CURRENT_BUFFER$
        15 000032   000000 116000 16                 CMPQ    0
        15 000033   000043 601000 15                 TNZ     s:9792

     1152     9785    3       DO;

     1153     9786    3         CALL Z8EL$GET_CHECK_SRC_LINE;
PL6.E3A0      #003=Z8EL$GET_NEXT_SCANNER_LINE File=Z8EL.:Z8A6TSI                 SAT 08/09/97 12:08 Page:275

   9786 15 000034   000001 631400 16                 EPPR1   1
        15 000035   000000 701000 xent               TSX1    Z8EL$GET_CHECK_SRC_LINE
        15 000036   000000 011000                    NOP     0

     1154     9787    3         CURRENT_BUFFER$ = LOOKAHEAD_BUFFER$;

   9787 15 000037   000000 236000 4                  LDQ     LOOKAHEAD_BUFFER$
        15 000040   000000 756000 3                  STQ     CURRENT_BUFFER$

     1155     9788    3         LINE_LIST$ = LOOKAHEAD_BUFFER$;

   9788 15 000041   000000 756000 6                  STQ     LINE_LIST$

     1156     9789    3       END;

   9789 15 000042   000100 710000 15                 TRA     s:9814

     1157     9790    2     ELSE
     1158     9791    3       DO;

     1159     9792    3         IF CURRENT_BUFFER$ -> FILL_BUFFER.NEXT$ = ADDR(NIL)

   9792 15 000043   000000 470400 3                  LDP0    CURRENT_BUFFER$
        15 000044   000002 236100                    LDQ     2,,PR0
        15 000045   000000 116000 16                 CMPQ    0
        15 000046   000053 600000 15                 TZE     s:9797
        15 000047   000002 471500                    LDP1    2,,PR0
        15 000050   000000 236000 5                  LDQ     CURRENT_LINE_LEVEL
        15 000051   100001 116100                    CMPQ    1,,PR1
        15 000052   000075 604400 15                 TMOZ    s:9811

     1160     9793    3               OR
     1161     9794    3            CURRENT_LINE_LEVEL > CURRENT_BUFFER$ -> FILL_BUFFER.NEXT$
     1162     9795    3                                     -> FILL_BUFFER.LEVEL THEN
     1163     9796    4           DO;

PL6.E3A0      #003=Z8EL$GET_NEXT_SCANNER_LINE File=Z8EL.:Z8A6TSI                 SAT 08/09/97 12:08 Page:276
     1164     9797    4             CALL Z8EL$GET_CHECK_SRC_LINE;

   9797 15 000053   000001 631400 16                 EPPR1   1
        15 000054   000000 701000 xent               TSX1    Z8EL$GET_CHECK_SRC_LINE
        15 000055   000000 011000                    NOP     0

     1165     9798    4             IF LOOKAHEAD_BUFFER$ -> FILL_BUFFER.LEVEL

   9798 15 000056   000000 470400 4                  LDP0    LOOKAHEAD_BUFFER$
        15 000057   000001 236100                    LDQ     1,,PR0
        15 000060   000000 116000 5                  CMPQ    CURRENT_LINE_LEVEL
        15 000061   000070 601000 15                 TNZ     s:9807

     1166     9799    4                    = CURRENT_LINE_LEVEL THEN
     1167     9800    5               DO;

     1168     9801    5                 LOOKAHEAD_BUFFER$ -> FILL_BUFFER.NEXT$

   9801 15 000062   000000 471400 3                  LDP1    CURRENT_BUFFER$
        15 000063   100002 236100                    LDQ     2,,PR1
        15 000064   000002 756100                    STQ     2,,PR0

     1169     9802    5                        = CURRENT_BUFFER$ -> FILL_BUFFER.NEXT$;
     1170     9803    5                 CURRENT_BUFFER$ -> FILL_BUFFER.NEXT$ = LOOKAHEAD_BUFFER$;

   9803 15 000065   000000 236000 4                  LDQ     LOOKAHEAD_BUFFER$
        15 000066   100002 756100                    STQ     2,,PR1

     1171     9804    5               END;

   9804 15 000067   000075 710000 15                 TRA     s:9811

     1172     9805    4             ELSE
     1173     9806    5               DO;

     1174     9807    5                 CURRENT_LINE_LEVEL = LOOKAHEAD_BUFFER$ -> FILL_BUFFER.LEVEL;

PL6.E3A0      #003=Z8EL$GET_NEXT_SCANNER_LINE File=Z8EL.:Z8A6TSI                 SAT 08/09/97 12:08 Page:277
   9807 15 000070   000000 756000 5                  STQ     CURRENT_LINE_LEVEL

     1175     9808    5                 CALL ADD_NON_CURRENT_LEVEL_LINE (CURRENT_BUFFER$);

   9808 15 000071   000002 236000 16                 LDQ     2
        15 000072   000003 756000 0                  STQ     NEXT_CURRENT_BUFFER$+2
        15 000073   000002 701000 15                 TSX1    ADD_NON_CURRENT_LEVEL_LINE
        15 000074   000000 011000                    NOP     0

     1176     9809    5               END;

     1177     9810    4           END;

     1178     9811    3         CURRENT_BUFFER$ = CURRENT_BUFFER$ -> FILL_BUFFER.NEXT$;

   9811 15 000075   000000 470400 3                  LDP0    CURRENT_BUFFER$
        15 000076   000002 236100                    LDQ     2,,PR0
        15 000077   000000 756000 3                  STQ     CURRENT_BUFFER$

     1179     9812    3       END;

     1180     9813
     1181     9814    2     EXPANDED_ISN = EXPANDED_ISN + 1;

   9814 15 000100   000000 054000 9                  AOS     EXPANDED_ISN

     1182     9815    2     CURRENT_BUFFER$ -> FILL_BUFFER.ISN = EXPANDED_ISN;

   9815 15 000101   000000 470400 3                  LDP0    CURRENT_BUFFER$
        15 000102   000000 235000 9                  LDA     EXPANDED_ISN
        15 000103   000004 755100                    STA     4,,PR0

     1183     9816
     1184     9817    2   END;  /* Do until */

   9817 15 000104   000011 236100                    LDQ     9,,PR0
        15 000105   004000 316003                    CANQ    2048,DU
PL6.E3A0      #003=Z8EL$GET_NEXT_SCANNER_LINE File=Z8EL.:Z8A6TSI                 SAT 08/09/97 12:08 Page:278
        15 000106   000113 601000 15                 TNZ     s:9817+7
        15 000107   000026 234000 xsym               SZN     O1COM+22
        15 000110   000120 604000 15                 TMI     s:9817+12
        15 000111   010000 316003                    CANQ    4096,DU
        15 000112   000120 600000 15                 TZE     s:9817+12
        15 000113   001330 234000 xsym               SZN     O1COM+728
        15 000114   000031 605000 15                 TPL     s:9784
        15 000115   001337 236000 xsym               LDQ     O1COM+735
        15 000116   200000 316003                    CANQ    65536,DU
        15 000117   000031 600000 15                 TZE     s:9784
        15 000120   000011 430100                    FSZN    9,,PR0
        15 000121   000031 604000 15                 TMI     s:9784
        15 000122   000011 236100                    LDQ     9,,PR0
        15 000123   040000 316003                    CANQ    16384,DU
        15 000124   000031 601000 15                 TNZ     s:9784

     1185     9818
     1186     9819    1   IF CURRENT_BUFFER$ -> FILL_BUFFER.LINE_TYPE.NULL_COMMENT_LINE THEN

   9819 15 000125   004000 316003                    CANQ    2048,DU
        15 000126   000160 600000 15                 TZE     s:9839

     1187     9820    2     DO; /* Possible only in pseudotext */

     1188     9821    2       IF CURRENT_BUFFER$ -> FILL_BUFFER.STRIPPED_LINE_LENGTH <

   9821 15 000127   000003 236100                    LDQ     3,,PR0
        15 000130   000122 116000 xsym               CMPQ    O1COM+82
        15 000131   000136 605000 15                 TPL     s:9828

     1189     9822    2           O1COM.AREA_A_COLUMN_START THEN
     1190     9823    3         DO;

     1191     9824    3           CURRENT_BUFFER$ -> FILL_BUFFER.COLUMN = CURRENT_BUFFER$ -> FILL_BUFFER.
              9824                    STRIPPED_LINE_LENGTH;

   9824 15 000132   000000 756100                    STQ     0,,PR0
PL6.E3A0      #003=Z8EL$GET_NEXT_SCANNER_LINE File=Z8EL.:Z8A6TSI                 SAT 08/09/97 12:08 Page:279

     1192     9825    3           CURRENT_BUFFER$ -> FILL_BUFFER.CLASS = %END_OF_LINE;

   9825 15 000133   000000 470400 3                  LDP0    CURRENT_BUFFER$
        15 000134   000010 450100                    STZ     8,,PR0

     1193     9826    3         END;

   9826 15 000135   000160 710000 15                 TRA     s:9839

     1194     9827    2       ELSE
     1195     9828    2         CALL SEARCH (CURRENT_BUFFER$ -> FILL_BUFFER.COLUMN,

   9828 15 000136   000012 720100                    LXL0    10,,PR0
        15 000137   000003 721100                    LXL1    3,,PR0
        15 000140   000000 636011                    EAQ     0,X1
        15 000141   000022 772000                    QRL     18
        15 000142   000122 136000 xsym               SBLQ    O1COM+82
        15 000143   000006 756000 0                  STQ     CP$+2
        15 000144   000122 236000 xsym               LDQ     O1COM+82
        15 000145   000006 721000 0                  LXL1    CP$+2
        15 000146   000000 164546                    TCT
        15 000147   000013 000011                    ADSC9   11,Q,PR0                 cn=0,n=*X1
        15 000150   000000 000000 xsym               ARG     BLANK_SCAN_TABLE
        15 000151   000000 000100                    ARG     0,,PR0
        15 000152   000000 235100                    LDA     0,,PR0
        15 000153   000033 771000                    ARL     27
        15 000154   000000 471400 3                  LDP1    CURRENT_BUFFER$
        15 000155   100010 755100                    STA     8,,PR1
        15 000156   000000 551140                    STBA    0,'40'O,PR0
        15 000157   000000 056100                    ASQ     0,,PR0

     1196     9829    2                      CURRENT_BUFFER$ -> FILL_BUFFER.CLASS,
     1197     9830    2                      BLANK_SCAN_TABLE,
     1198     9831    2                      SUBSTR (CURRENT_BUFFER$ -> FILL_BUFFER.SOURCE_LINE,
     1199     9832    2                              0,
     1200     9833    2                              CURRENT_BUFFER$ -> FILL_BUFFER.STRIPPED_LINE_LENGTH),
PL6.E3A0      #003=Z8EL$GET_NEXT_SCANNER_LINE File=Z8EL.:Z8A6TSI                 SAT 08/09/97 12:08 Page:280
     1201     9834    2                      O1COM.AREA_A_COLUMN_START);
     1202     9835    2     END;

     1203     9836
     1204     9837        /* Get possible continuation record */
     1205     9838
     1206     9839    1   NEXT_CURRENT_BUFFER$ = CURRENT_BUFFER$;

   9839 15 000160   000000 236000 3                  LDQ     CURRENT_BUFFER$
        15 000161   000001 756000 0                  STQ     NEXT_CURRENT_BUFFER$

     1207     9840
     1208     9841    2   DO UNTIL NOT NEXT_CURRENT_BUFFER$ -> FILL_BUFFER.LINE_TYPE.NULL_COMMENT_LINE

     1209     9842    2         AND NOT NEXT_CURRENT_BUFFER$ -> FILL_BUFFER.LINE_TYPE.NEW_REP_LINE
     1210     9843    2         AND NOT NEXT_CURRENT_BUFFER$ -> FILL_BUFFER.LINE_TYPE.IDS_LINE;
     1211     9844
     1212     9845    2     IF NEXT_CURRENT_BUFFER$ -> FILL_BUFFER.NEXT$ = ADDR(NIL)

   9845 15 000162   000001 470400 0                  LDP0    NEXT_CURRENT_BUFFER$
        15 000163   000002 236100                    LDQ     2,,PR0
        15 000164   000000 116000 16                 CMPQ    0
        15 000165   000172 600000 15                 TZE     s:9850
        15 000166   000002 471500                    LDP1    2,,PR0
        15 000167   000000 236000 5                  LDQ     CURRENT_LINE_LEVEL
        15 000170   100001 116100                    CMPQ    1,,PR1
        15 000171   000214 604400 15                 TMOZ    s:9863

     1213     9846    2           OR
     1214     9847    2          CURRENT_LINE_LEVEL > NEXT_CURRENT_BUFFER$ -> FILL_BUFFER.NEXT$
     1215     9848    2                                    -> FILL_BUFFER.LEVEL THEN
     1216     9849    3       DO;

     1217     9850    3         CALL Z8EL$GET_CHECK_SRC_LINE;

   9850 15 000172   000001 631400 16                 EPPR1   1
        15 000173   000000 701000 xent               TSX1    Z8EL$GET_CHECK_SRC_LINE
PL6.E3A0      #003=Z8EL$GET_NEXT_SCANNER_LINE File=Z8EL.:Z8A6TSI                 SAT 08/09/97 12:08 Page:281
        15 000174   000000 011000                    NOP     0

     1218     9851    3         IF LOOKAHEAD_BUFFER$ -> FILL_BUFFER.LEVEL = CURRENT_LINE_LEVEL THEN

   9851 15 000175   000000 470400 4                  LDP0    LOOKAHEAD_BUFFER$
        15 000176   000001 236100                    LDQ     1,,PR0
        15 000177   000000 116000 5                  CMPQ    CURRENT_LINE_LEVEL
        15 000200   000207 601000 15                 TNZ     s:9859

     1219     9852    4           DO;

     1220     9853    4             LOOKAHEAD_BUFFER$ -> FILL_BUFFER.NEXT$

   9853 15 000201   000001 471400 0                  LDP1    NEXT_CURRENT_BUFFER$
        15 000202   100002 236100                    LDQ     2,,PR1
        15 000203   000002 756100                    STQ     2,,PR0

     1221     9854    4                   = NEXT_CURRENT_BUFFER$ -> FILL_BUFFER.NEXT$;
     1222     9855    4             NEXT_CURRENT_BUFFER$ -> FILL_BUFFER.NEXT$ = LOOKAHEAD_BUFFER$;

   9855 15 000204   000000 236000 4                  LDQ     LOOKAHEAD_BUFFER$
        15 000205   100002 756100                    STQ     2,,PR1

     1223     9856    4           END;

   9856 15 000206   000214 710000 15                 TRA     s:9863

     1224     9857    3         ELSE
     1225     9858    4           DO;

     1226     9859    4             CURRENT_LINE_LEVEL = LOOKAHEAD_BUFFER$ -> FILL_BUFFER.LEVEL;

   9859 15 000207   000000 756000 5                  STQ     CURRENT_LINE_LEVEL

     1227     9860    4             CALL ADD_NON_CURRENT_LEVEL_LINE (NEXT_CURRENT_BUFFER$);

   9860 15 000210   000003 236000 16                 LDQ     3
PL6.E3A0      #003=Z8EL$GET_NEXT_SCANNER_LINE File=Z8EL.:Z8A6TSI                 SAT 08/09/97 12:08 Page:282
        15 000211   000003 756000 0                  STQ     NEXT_CURRENT_BUFFER$+2
        15 000212   000002 701000 15                 TSX1    ADD_NON_CURRENT_LEVEL_LINE
        15 000213   000000 011000                    NOP     0

     1228     9861    4           END;

     1229     9862    3       END;

     1230     9863    2     NEXT_CURRENT_BUFFER$ = NEXT_CURRENT_BUFFER$ -> FILL_BUFFER.NEXT$;

   9863 15 000214   000001 470400 0                  LDP0    NEXT_CURRENT_BUFFER$
        15 000215   000002 236100                    LDQ     2,,PR0
        15 000216   000001 756000 0                  STQ     NEXT_CURRENT_BUFFER$

     1231     9864    2   END;  /* DO UNTIL */

   9864 15 000217   000001 470400 0                  LDP0    NEXT_CURRENT_BUFFER$
        15 000220   000011 236100                    LDQ     9,,PR0
        15 000221   004000 316003                    CANQ    2048,DU
        15 000222   000162 601000 15                 TNZ     s:9845
        15 000223   000011 430100                    FSZN    9,,PR0
        15 000224   000162 604000 15                 TMI     s:9845
        15 000225   040000 316003                    CANQ    16384,DU
        15 000226   000162 601000 15                 TNZ     s:9845

     1232     9865
     1233     9866    1   LOOKAHEAD_BUFFER$ = NEXT_CURRENT_BUFFER$;

   9866 15 000227   000001 236000 0                  LDQ     NEXT_CURRENT_BUFFER$
        15 000230   000000 756000 4                  STQ     LOOKAHEAD_BUFFER$

     1234     9867
     1235     9868
     1236     9869
     1237     9870    1     CALL Z8EL$DUMP_USED_LINES;

   9870 15 000231   000001 631400 16                 EPPR1   1
PL6.E3A0      #003=Z8EL$GET_NEXT_SCANNER_LINE File=Z8EL.:Z8A6TSI                 SAT 08/09/97 12:08 Page:283
        15 000232   000000 701000 xent               TSX1    Z8EL$DUMP_USED_LINES
        15 000233   000000 011000                    NOP     0

     1238     9871
     1239     9872    1     BUFFER.COLUMN = CURRENT_BUFFER$ -> FILL_BUFFER.COLUMN;

   9872 15 000234   000000 470400 3                  LDP0    CURRENT_BUFFER$
        15 000235   000000 235100                    LDA     0,,PR0
        15 000236   000000 755000 7                  STA     BUFFER

     1240     9873    1     BUFFER.CLASS = CURRENT_BUFFER$ -> FILL_BUFFER.CLASS;

   9873 15 000237   000010 235100                    LDA     8,,PR0
        15 000240   000001 755000 7                  STA     BUFFER+1

     1241     9874    1     BUFFER.ISN = CURRENT_BUFFER$ -> FILL_BUFFER.ISN;

   9874 15 000241   000004 235100                    LDA     4,,PR0
        15 000242   000002 755000 7                  STA     BUFFER+2

     1242     9875    1     BUFFER.LEVEL = CURRENT_BUFFER$ -> FILL_BUFFER.LEVEL;

   9875 15 000243   000001 235100                    LDA     1,,PR0
        15 000244   000003 755000 7                  STA     BUFFER+3

     1243     9876    1     BUFFER.LINE_TYPE.LINE_CONTINUED = LOOKAHEAD_BUFFER$ -> FILL_BUFFER.LINE_TYPE.
              9876              CONTINUATION;

   9876 15 000245   000000 471400 4                  LDP1    LOOKAHEAD_BUFFER$
        15 000246   100011 236100                    LDQ     9,,PR1
        15 000247   000002 772000                    QRL     2
        15 000250   000004 676000 7                  ERQ     BUFFER+4
        15 000251   100000 376003                    ANQ     32768,DU
        15 000252   000004 656000 7                  ERSQ    BUFFER+4

     1244     9877    1    BUFFER.LINE_TYPE.DEBUG_LINE = CURRENT_BUFFER$ -> FILL_BUFFER.LINE_TYPE.DEBUG_LINE;

PL6.E3A0      #003=Z8EL$GET_NEXT_SCANNER_LINE File=Z8EL.:Z8A6TSI                 SAT 08/09/97 12:08 Page:284
   9877 15 000253   000011 236100                    LDQ     9,,PR0
        15 000254   000004 736000                    QLS     4
        15 000255   000004 676000 7                  ERQ     BUFFER+4
        15 000256   200000 376003                    ANQ     65536,DU
        15 000257   000004 656000 7                  ERSQ    BUFFER+4

     1245     9878    1     BUFFER.LINE_LENGTH = CURRENT_BUFFER$ -> FILL_BUFFER.STRIPPED_LINE_LENGTH;

   9878 15 000260   000003 235100                    LDA     3,,PR0
        15 000261   000005 755000 7                  STA     BUFFER+5

     1246     9879    1     BUFFER.LINE$ = ADDR(CURRENT_BUFFER$ -> FILL_BUFFER.SOURCE_LINE);

   9879 15 000262   000000 236000 3                  LDQ     CURRENT_BUFFER$
        15 000263   000013 036003                    ADLQ    11,DU
        15 000264   000006 756000 7                  STQ     BUFFER+6

     1247     9880
     1248     9881    1     IF CURRENT_BUFFER$ -> FILL_BUFFER.LINE_TYPE.CONTINUATION_COL_8_11_ERROR AND

   9881 15 000265   000011 236100                    LDQ     9,,PR0
        15 000266   002000 316003                    CANQ    1024,DU
        15 000267   000304 600000 15                 TZE     s:9893
        15 000270   000036 720000 xsym               LXL0    COMCOM+30
        15 000271   000304 604400 15                 TMOZ    s:9893

     1249     9882              %IF GCOS;
     1252     9885              %ENDIF;
     1253     9886    1         COMCOM.OB.FIPS.LEVEL >= %HIGH_LEV THEN
     1254     9887    2       DO;

     1255     9888    2         CALL Z8AE$ERROR(%E$CONT_COL_8_11_ERROR,

   9888 15 000272   000006 236000 16                 LDQ     6
        15 000273   000010 756000 0                  STQ     CP$+4
        15 000274   000000 236000 3                  LDQ     CURRENT_BUFFER$
        15 000275   000004 036003                    ADLQ    4,DU
PL6.E3A0      #003=Z8EL$GET_NEXT_SCANNER_LINE File=Z8EL.:Z8A6TSI                 SAT 08/09/97 12:08 Page:285
        15 000276   000007 235000 16                 LDA     7
        15 000277   000006 757000 0                  STAQ    CP$+2
        15 000300   000006 630400 0                  EPPR0   CP$+2
        15 000301   000004 631400 16                 EPPR1   4
        15 000302   000000 701000 xent               TSX1    Z8AE$ERROR
        15 000303   000000 011000                    NOP     0

     1256     9889    2                         CURRENT_BUFFER$ -> FILL_BUFFER.ISN,
     1257     9890    2                         O1COM.AREA_B_COLUMN_START);
     1258     9891    2       END;

     1259     9892
     1260     9893    1     RETURN;

   9893 15 000304   000000 221200 0                  LDX1  ! 0
        15 000305   000001 702211                    TSX2  ! 1,X1
     1261     9894
     1262     9895    1   END Z8EL$GET_NEXT_SCANNER_LINE;
     1263     9896        %EOD;

PL6.E3A0      #003=Z8EL$GET_NEXT_SCANNER_LINE File=Z8EL.:Z8A6TSI                 SAT 08/09/97 12:08 Page:286
--  Include file information  --

   Z8E_O1COM.:Z8A6TOU  cannot be made into a system file and is referenced.
   Z8A_LEX_SYMB.:Z8A6TOU  cannot be made into a system file and is referenced.
   Z8E_STACKS.:Z8A6TOU  cannot be made into a system file and is referenced.
   Z8A_ERR_NUMS.:Z8A6TOU  is referenced.
   Z8E_WINDOW.:Z8A6TOU  is referenced.
   Z8E_TABLES.:Z8A6TOU  cannot be made into a system file and is referenced.
   Z8E_BUFFERS.:Z8A6TOU  cannot be made into a system file and is referenced.
   Z8A_COMCOM.:Z8A6TOU  cannot be made into a system file and is referenced.
   Z9A_FLAGS.:Z8A6TOU  is referenced.
   X8A_COM_MACS.:X8A6TOU  is referenced.
   Z8A_NAMES.:Z8A6TOU  is referenced.
   Z8A_SUPP_MAC.:Z8A6TOU  is referenced.
   Z8A_DEFC.:Z8A6TOU  cannot be made into a system file and is referenced.
      No diagnostics issued in procedure Z8EL$GET_NEXT_SCANNER_LINE.
PL6.E3A0      #003=Z8EL$GET_NEXT_SCANNER_LINE File=Z8EL.:Z8A6TSI                 SAT 08/09/97 12:08 Page:287

 **** Variables and constants ****

  ****  Section 000  Data  Z8EL$GET_NEXT_SCANNER_LINE

  ****  Scalars and arrays  ****
OctLoc.c.b A Datatyp(siz) R M Lvl/name                 OctLoc.c.b A Datatyp(siz) R M Lvl/name

     3-0-0/w PTR         r     1 @BUFFER$                  *0-0-0/w PTR         r     1 BUFFER$
     4-0-0/w PTR         r     1 CP$                        1-0-0/w PTR         r     1 NEXT_CURRENT_BUFFER$

  ****  Section 001 LblCom ITERATION

  ****  Scalars and arrays  ****
OctLoc.c.b A Datatyp(siz) R M Lvl/name                 OctLoc.c.b A Datatyp(siz) R M Lvl/name

     0-0-0/w SBIN              1 ITERATION

  ****  Section 002 LblCom SCANNER_STATE

  ****  Scalars and arrays  ****
OctLoc.c.b A Datatyp(siz) R M Lvl/name                 OctLoc.c.b A Datatyp(siz) R M Lvl/name

     0-0-0/w SBIN              1 SCANNER_STATE

  ****  Section 003 LblCom CURRENT_BUFFER$

  ****  Scalars and arrays  ****
OctLoc.c.b A Datatyp(siz) R M Lvl/name                 OctLoc.c.b A Datatyp(siz) R M Lvl/name

     0-0-0/w PTR         r     1 CURRENT_BUFFER$

  ****  Section 004 LblCom LOOKAHEAD_BUFFER$

  ****  Scalars and arrays  ****
OctLoc.c.b A Datatyp(siz) R M Lvl/name                 OctLoc.c.b A Datatyp(siz) R M Lvl/name

     0-0-0/w PTR         r     1 LOOKAHEAD_BUFFER$
PL6.E3A0      #003=Z8EL$GET_NEXT_SCANNER_LINE File=Z8EL.:Z8A6TSI                 SAT 08/09/97 12:08 Page:288

  ****  Section 005 LblCom CURRENT_LINE_LEVEL

  ****  Scalars and arrays  ****
OctLoc.c.b A Datatyp(siz) R M Lvl/name                 OctLoc.c.b A Datatyp(siz) R M Lvl/name

     0-0-0/w SBIN        r     1 CURRENT_LINE_LEVEL

  ****  Section 006 LblCom LINE_LIST$

  ****  Scalars and arrays  ****
OctLoc.c.b A Datatyp(siz) R M Lvl/name                 OctLoc.c.b A Datatyp(siz) R M Lvl/name

     0-0-0/w PTR         r     1 LINE_LIST$

  ****  Section 007 LblCom BUFFER

  ****  Scalars and arrays  ****
OctLoc.c.b A Datatyp(siz) R M Lvl/name                 OctLoc.c.b A Datatyp(siz) R M Lvl/name

     0-0-0/w STRC(252)   r     1 BUFFER

  ****  Section 008 LblCom ORIGINAL_ISN

  ****  Scalars and arrays  ****
OctLoc.c.b A Datatyp(siz) R M Lvl/name                 OctLoc.c.b A Datatyp(siz) R M Lvl/name

     0-0-0/w SBIN              1 ORIGINAL_ISN

  ****  Section 009 LblCom EXPANDED_ISN

  ****  Scalars and arrays  ****
OctLoc.c.b A Datatyp(siz) R M Lvl/name                 OctLoc.c.b A Datatyp(siz) R M Lvl/name

     0-0-0/w SBIN        r     1 EXPANDED_ISN

  ****  Section 010 LblCom ISN_FOR_EXP_SRC
PL6.E3A0      #003=Z8EL$GET_NEXT_SCANNER_LINE File=Z8EL.:Z8A6TSI                 SAT 08/09/97 12:08 Page:289

  ****  Scalars and arrays  ****
OctLoc.c.b A Datatyp(siz) R M Lvl/name                 OctLoc.c.b A Datatyp(siz) R M Lvl/name

     0-0-0/w SBIN              1 ISN_FOR_EXP_SRC

  ****  Section 011 LblCom LEX_SYMBOL

  ****  Scalars and arrays  ****
OctLoc.c.b A Datatyp(siz) R M Lvl/name                 OctLoc.c.b A Datatyp(siz) R M Lvl/name

     0-0-0/w STRC(3240)  r     1 LEX_SYMBOL                 0-0-0/w STRC(3240)        1 LEX_SYMBOL_WORDS

  ****  Section 012 LblCom CURRENT_LEX_SYMBOL$

  ****  Scalars and arrays  ****
OctLoc.c.b A Datatyp(siz) R M Lvl/name                 OctLoc.c.b A Datatyp(siz) R M Lvl/name

     0-0-0/w PTR         r     1 CURRENT_LEX_SYMBOL$

  ****  Section 013 LblCom TEMP_LEX_SYMBOL

  ****  Scalars and arrays  ****
OctLoc.c.b A Datatyp(siz) R M Lvl/name                 OctLoc.c.b A Datatyp(siz) R M Lvl/name

     0-0-0/w STRC(3240)        1 TEMP_LEX_SYMBOL

  ****  Section 014 LblCom TEMP_LEX_SYMBOL2

  ****  Scalars and arrays  ****
OctLoc.c.b A Datatyp(siz) R M Lvl/name                 OctLoc.c.b A Datatyp(siz) R M Lvl/name

     0-0-0/w STRC(3240)        1 TEMP_LEX_SYMBOL2

  ****  SYMREF variables  ****

  ****  Scalars and arrays  ****
PL6.E3A0      #003=Z8EL$GET_NEXT_SCANNER_LINE File=Z8EL.:Z8A6TSI                 SAT 08/09/97 12:08 Page:290
OctLoc.c.b A Datatyp(siz) R M Lvl/name                 OctLoc.c.b A Datatyp(siz) R M Lvl/name

     0-0-0/w STRC(4608)        1 ANSI_USERWORD_SCAN_TABLE
     0-0-0/w STRC(4608)        1 ASCII_SEARCH_TABLE         0-0-0/w STRC(4608)  r     1 BLANK_SCAN_TABLE
     0-0-0/d STRC(13248) r     1 COMCOM
     0-0-0/c CHAR              1 CURRENCY_SIGN_CHARS(0:511)
     0-0-0/w STRC(4608)        1 DBL_QUOTE_PSEUDO_SEARCH_TABLE
     0-0-0/w STRC(4608)        1 DIGIT_SCAN_TABLE
     0-0-0/w STRC(4608)        1 DOUBLE_QUOTE_SEARCH_TABLE
     0-0-0/w STRC(180)         1 HIER_STK(0:50)
     0-0-0/w SBIN              1 HIER_STK_PTR               0-0-0/w STRC(4608)        1 LETTER_SEARCH_TABLE
     0-0-0/c CHAR              1 LOWER_TO_UPPER_CASE(0:511)
     0-0-0/d STRC(11580) r     1 O1COM                      0-0-0/w STRC(144)         1 PAGE_FORMAT
     0-0-0/w STRC(153)         1 REP_STK(0:50)              0-0-0/w SBIN              1 REP_STK_PTR
     0-0-0/w STRC(4608)        1 SEPARATORS_TABLE
     0-0-0/w STRC(4608)        1 SINGLE_QUOTE_SEARCH_TABLE
     0-0-0/w STRC(4608)        1 SNGL_QUOTE_PSEUDO_SEARCH_TABLE
     0-0-0/w STRC(4608)        1 USERWORD_SCAN_TABLE

  ****  BASED and DCB variables  ****

  ****  Scalars and arrays  ****
OctLoc.c.b A Datatyp(siz) R M Lvl/name                 OctLoc.c.b A Datatyp(siz) R M Lvl/name

     0-0-0/w STRC(288)         1 ADD_STMT                   0-0-0/w ASTR(324)   r     1 BASED_LEX_SYMBOL
     0-0-0/w STRC(360)         1 BASED_LEX_SYMBOL_WORDS
     0-0-0/w STRC(288)         1 BINARY_OP                  0-0-0/c ACHR              1 BUFFER_LINE
     0-0-0/w STRC(288)         1 CALL_STMT                  0-0-0/w CHAR(4096)        1 CHARS
     0-0-0/w STRC(288)         1 COMPUTE_STMT               0-0-0/w STRC(72)          1 CONT
     0-0-0/w STRC(288)         1 DEFERED_IDENTIFIER         0-0-0/w STRC(252)         1 DEFERED_ID_TREE
     0-0-0/w STRC(288)         1 DEFERED_QUAL_ID            0-0-0/w STRC(288)         1 DEFERED_SUM_CLAUSE
     0-0-0/w STRC(288)         1 DEFERED_SUM_CLAUSE_LIST
     0-0-0/w STRC(288)         1 DELETE_STMT                0-0-0/w STRC(288)         1 DIVIDE_STMT
     0-0-0/w ASTR(396)   r     1 EXP_SRC_BUFF               0-0-0/w ASTR(396)   r     1 FILL_BUFFER
     0-0-0/w STRC(288)         1 ILS_LIST                   0-0-0/w STRC(288)         1 INSPECT_1_STMT
     0-0-0/w STRC(288)         1 INSPECT_2_STMT             0-0-0/w STRC(288)         1 INSPECT_4_STMT
     0-0-0/w STRC(288)         1 LA_ITEM                    0-0-0/w STRC(504)         1 LX_CD_INPUT
PL6.E3A0      #003=Z8EL$GET_NEXT_SCANNER_LINE File=Z8EL.:Z8A6TSI                 SAT 08/09/97 12:08 Page:291
     0-0-0/w STRC(324)         1 LX_CD_I_O                  0-0-0/w STRC(396)         1 LX_CD_OUTPUT
     0-0-0/w STRC(288)         1 LX_ETT_ITEM                0-0-0/w STRC(288)         1 LX_ITEM
     0-0-0/w STRC(288)         1 LX_LARGE                   0-0-0/w STRC(288)         1 LX_LIST
     0-0-0/w STRC(1224)        1 LX_REC_DECL                0-0-0/w STRC(864)         1 LX_REPORT_REC
     0-0-0/w STRC(288)         1 LX_TERMINAL                0-0-0/w STRC(288)         1 MULTIPLY_STMT
     0-0-0/w STRC(36864)       1 PAGE                       0-0-0/w STRC(288)         1 READ_STMT
     0-0-0/w STRC(288)         1 REWRITE_STMT               0-0-0/w STRC(288)         1 START_STMT
     0-0-0/w STRC(252)         1 STRING_STMT                0-0-0/w STRC(288)         1 SUBTRACT_STMT
     0-0-0/w STRC(288)         1 UNARY_OP                   0-0-0/w STRC(288)         1 UNSTRING_STMT
     0-0-0/w STRC(288)         1 WRITE_STMT


   Procedure Z8EL$GET_NEXT_SCANNER_LINE requires 198 words for executable code.
   Procedure Z8EL$GET_NEXT_SCANNER_LINE is declared NOAUTO and requires 10 words of local(STATIC) storage.

PL6.E3A0      #004=Z8EL$DUMP_USED_LINES File=Z8EL.:Z8A6TSI                       SAT 08/09/97 12:09 Page:292
     1264        1        /*T***********************************************************/
     1265        2        /*T*                                                         */
     1266        3        /*T* Copyright (c) Bull HN Information Systems Inc., 1997    */
     1267        4        /*T*                                                         */
     1268        5        /*T***********************************************************/
     1269        6        Z8EL$DUMP_USED_LINES : PROC NOAUTO;
     1270        7
     1271        8        %EQU PHASE = 1;
     1272        9        %INCLUDE Z8A_DEFC;
     1273       77        %INCLUDE Z8A_SUPP_MAC;
     1274     2477        %INCLUDE Z8E_BUFFERS;
     1275     2667        %INCLUDE Z8E_HEAP;
     1276     2723        %INCLUDE Z8A_COMCOM;
     1277     3373
     1278     3374    1   DCL INHIBIT_DUMP_LINES BOOLEAN EXT INIT(FALSE);
     1279     3375    1   DCL Z9AA$WRITE_LINE_ES ENTRY;
     1280     3376
     1281     3377
     1282     3378    2     DO WHILE (LINE_LIST$ ~= ADDR(NIL))
     1283     3379    2               AND (LINE_LIST$ ~= CURRENT_BUFFER$)
     1284     3380    2               AND NOT INHIBIT_DUMP_LINES
     1285     3381    2               AND (LINE_LIST$ -> FILL_BUFFER.ISN < COMCOM.CURRENT.LINE);
     1286     3382
     1287     3383    2       CALL Z9AA$WRITE_LINE_ES;
     1288     3384
     1289     3385    2       HEAP$ = LINE_LIST$;
     1290     3386    2       LINE_LIST$ = LINE_LIST$ -> FILL_BUFFER.NEXT$;
     1291     3387            %DISPOSE_HEAP(@POINTER=HEAP$, @SIZE=%MAX_INPUT_BUFFER_LEN);
     1292     3392
     1293     3393    2     END;
     1294     3394
     1295     3395    1   END Z8EL$DUMP_USED_LINES;
     1296     3396        %EOD;

PL6.E3A0      #004=Z8EL$DUMP_USED_LINES File=Z8EL.:Z8A6TSI                       SAT 08/09/97 12:09 Page:293
--  Include file information  --

   Z8A_COMCOM.:Z8A6TOU  cannot be made into a system file and is referenced.
   Z8E_HEAP.:Z8A6TOU  cannot be made into a system file and is referenced.
   Z8E_BUFFERS.:Z8A6TOU  cannot be made into a system file and is referenced.
   X8A_COM_MACS.:X8A6TOU  is referenced.
   Z8A_NAMES.:Z8A6TOU  is referenced.
   Z8A_SUPP_MAC.:Z8A6TOU  is referenced.
   Z8A_DEFC.:Z8A6TOU  cannot be made into a system file and is referenced.
      No diagnostics issued in procedure Z8EL$DUMP_USED_LINES.

   Procedure Z8EL$DUMP_USED_LINES requires 27 words for executable code.
   Procedure Z8EL$DUMP_USED_LINES is declared NOAUTO and requires 2 words of local(STATIC) storage.

PL6.E3A0      #004=Z8EL$DUMP_USED_LINES File=Z8EL.:Z8A6TSI                       SAT 08/09/97 12:09 Page:294

 Object Unit name= Z8EL$DUMP_USED_LINES                       File name= Z8EL.:Z8A6TOU
 UTS= AUG 09 '97 12:09:17.56 SAT                              Compiler= PL-6/E31         Sev=      00
 SharedLib= :SHARED_SYSTEM                                    Alt SharedLib=


    ****  Control sections  ****

 Sect   Type Bound  Init  Size OctSiz  Section name(segment info)
    0   Data  even  none     2      2  Z8EL$DUMP_USED_LINES
    1  LblCom even  none     1      1  ITERATION
    2  LblCom even  none     1      1  SCANNER_STATE
    3  LblCom even  none     1      1  CURRENT_BUFFER$
    4  LblCom even  none     1      1  LOOKAHEAD_BUFFER$
    5  LblCom even  none     1      1  CURRENT_LINE_LEVEL
    6  LblCom even  none     1      1  LINE_LIST$
    7  LblCom even  none     7      7  BUFFER
    8  LblCom even  none     1      1  ORIGINAL_ISN
    9  LblCom even  none     1      1  EXPANDED_ISN
   10  LblCom even  none     1      1  ISN_FOR_EXP_SRC
   11  LblCom even  none     1      1  HEAP$
   12  LblCom even  none     1      1  INHIBIT_DUMP_LINES
   13   Proc  even  none    27     33  Z8EL$DUMP_USED_LINES
   14  RoData even  none     6      6  Z8EL$DUMP_USED_LINES

    ****  Entry defs  ****

                              Check   Calling
                             calling  sequence
  Sect OctLoc Primary Altret sequence   type   Parms  Name
    13      0   yes            yes      Std        0  Z8EL$DUMP_USED_LINES
PL6.E3A0      #004=Z8EL$DUMP_USED_LINES File=Z8EL.:Z8A6TSI                       SAT 08/09/97 12:09 Page:295

  ****  Entry refs  ****

         Check        Calling
        calling       sequence
Altret sequence SRef   type   Args  Name
         yes           Std       0 Z9AA$WRITE_LINE_ES
         yes           Std       2 Z8ED$DISPOSE_HEAP

  ****  Data refs  ****

  Flags:  r = read only, s = secondary
Flgs Name                             Flgs Name                             Flgs Name
     COMCOM

  ****  Segment refs  ****

  Flags:  r = read only, s = secondary
Flgs Name                             Flgs Name                             Flgs Name
     NULLSID                               ISSID
PL6.E3A0      #004=Z8EL$DUMP_USED_LINES File=Z8EL.:Z8A6TSI                       SAT 08/09/97 12:09 Page:296


     1264        1        /*T***********************************************************/
     1265        2        /*T*                                                         */
     1266        3        /*T* Copyright (c) Bull HN Information Systems Inc., 1997    */
     1267        4        /*T*                                                         */
     1268        5        /*T***********************************************************/
     1269        6        Z8EL$DUMP_USED_LINES : PROC NOAUTO;

      6 13 000000   000000 741200 0     Z8EL$DUMP_U* STX1  ! 0

     1270        7
     1271        8        %EQU PHASE = 1;
     1272        9        %INCLUDE Z8A_DEFC;
     1273       77        %INCLUDE Z8A_SUPP_MAC;
     1274     2477        %INCLUDE Z8E_BUFFERS;
     1275     2667        %INCLUDE Z8E_HEAP;
     1276     2723        %INCLUDE Z8A_COMCOM;
     1277     3373
     1278     3374    1   DCL INHIBIT_DUMP_LINES BOOLEAN EXT INIT(FALSE);
     1279     3375    1   DCL Z9AA$WRITE_LINE_ES ENTRY;
     1280     3376
     1281     3377
     1282     3378    2     DO WHILE (LINE_LIST$ ~= ADDR(NIL))

   3378 13 000001   000016 710000 13                 TRA     s:3393

     1283     3379    2               AND (LINE_LIST$ ~= CURRENT_BUFFER$)
     1284     3380    2               AND NOT INHIBIT_DUMP_LINES
     1285     3381    2               AND (LINE_LIST$ -> FILL_BUFFER.ISN < COMCOM.CURRENT.LINE);
     1286     3382
     1287     3383    2       CALL Z9AA$WRITE_LINE_ES;

   3383 13 000002   000000 631400 14                 EPPR1   0
        13 000003   000000 701000 xent               TSX1    Z9AA$WRITE_LINE_ES
        13 000004   000000 011000                    NOP     0

     1288     3384
PL6.E3A0      #004=Z8EL$DUMP_USED_LINES File=Z8EL.:Z8A6TSI                       SAT 08/09/97 12:09 Page:297
     1289     3385    2       HEAP$ = LINE_LIST$;

   3385 13 000005   000000 236000 6                  LDQ     LINE_LIST$
        13 000006   000000 756000 11                 STQ     HEAP$

     1290     3386    2       LINE_LIST$ = LINE_LIST$ -> FILL_BUFFER.NEXT$;

   3386 13 000007   000000 470400 6                  LDP0    LINE_LIST$
        13 000010   000002 236100                    LDQ     2,,PR0
        13 000011   000000 756000 6                  STQ     LINE_LIST$

     1291     3387            %DISPOSE_HEAP(@POINTER=HEAP$, @SIZE=%MAX_INPUT_BUFFER_LEN);

   3389 13 000012   000003 630400 14                 EPPR0   3
        13 000013   000001 631400 14                 EPPR1   1
        13 000014   000000 701000 xent               TSX1    Z8ED$DISPOSE_HEAP
        13 000015   000000 011000                    NOP     0

     1292     3392
     1293     3393    2     END;

   3393 13 000016   000000 236000 6                  LDQ     LINE_LIST$
        13 000017   000005 116000 14                 CMPQ    5
        13 000020   000031 600000 13                 TZE     s:3395
        13 000021   000000 116000 3                  CMPQ    CURRENT_BUFFER$
        13 000022   000031 600000 13                 TZE     s:3395
        13 000023   000000 234000 12                 SZN     INHIBIT_DUMP_LINES
        13 000024   000031 604000 13                 TMI     s:3395
        13 000025   000000 470400 6                  LDP0    LINE_LIST$
        13 000026   000004 236100                    LDQ     4,,PR0
        13 000027   000133 116000 xsym               CMPQ    COMCOM+91
        13 000030   000002 604000 13                 TMI     s:3383

     1294     3394
     1295     3395    1   END Z8EL$DUMP_USED_LINES;

   3395 13 000031   000000 221200 0                  LDX1  ! 0
PL6.E3A0      #004=Z8EL$DUMP_USED_LINES File=Z8EL.:Z8A6TSI                       SAT 08/09/97 12:09 Page:298
        13 000032   000001 702211                    TSX2  ! 1,X1
     1296     3396        %EOD;

PL6.E3A0      #004=Z8EL$DUMP_USED_LINES File=Z8EL.:Z8A6TSI                       SAT 08/09/97 12:09 Page:299
--  Include file information  --

   Z8A_COMCOM.:Z8A6TOU  cannot be made into a system file and is referenced.
   Z8E_HEAP.:Z8A6TOU  cannot be made into a system file and is referenced.
   Z8E_BUFFERS.:Z8A6TOU  cannot be made into a system file and is referenced.
   X8A_COM_MACS.:X8A6TOU  is referenced.
   Z8A_NAMES.:Z8A6TOU  is referenced.
   Z8A_SUPP_MAC.:Z8A6TOU  is referenced.
   Z8A_DEFC.:Z8A6TOU  cannot be made into a system file and is referenced.
      No diagnostics issued in procedure Z8EL$DUMP_USED_LINES.
PL6.E3A0      #004=Z8EL$DUMP_USED_LINES File=Z8EL.:Z8A6TSI                       SAT 08/09/97 12:09 Page:300

 **** Variables and constants ****

  ****  Section 001 LblCom ITERATION

  ****  Scalars and arrays  ****
OctLoc.c.b A Datatyp(siz) R M Lvl/name                 OctLoc.c.b A Datatyp(siz) R M Lvl/name

     0-0-0/w SBIN              1 ITERATION

  ****  Section 002 LblCom SCANNER_STATE

  ****  Scalars and arrays  ****
OctLoc.c.b A Datatyp(siz) R M Lvl/name                 OctLoc.c.b A Datatyp(siz) R M Lvl/name

     0-0-0/w SBIN              1 SCANNER_STATE

  ****  Section 003 LblCom CURRENT_BUFFER$

  ****  Scalars and arrays  ****
OctLoc.c.b A Datatyp(siz) R M Lvl/name                 OctLoc.c.b A Datatyp(siz) R M Lvl/name

     0-0-0/w PTR         r     1 CURRENT_BUFFER$

  ****  Section 004 LblCom LOOKAHEAD_BUFFER$

  ****  Scalars and arrays  ****
OctLoc.c.b A Datatyp(siz) R M Lvl/name                 OctLoc.c.b A Datatyp(siz) R M Lvl/name

     0-0-0/w PTR         r     1 LOOKAHEAD_BUFFER$

  ****  Section 005 LblCom CURRENT_LINE_LEVEL

  ****  Scalars and arrays  ****
OctLoc.c.b A Datatyp(siz) R M Lvl/name                 OctLoc.c.b A Datatyp(siz) R M Lvl/name

     0-0-0/w SBIN              1 CURRENT_LINE_LEVEL

PL6.E3A0      #004=Z8EL$DUMP_USED_LINES File=Z8EL.:Z8A6TSI                       SAT 08/09/97 12:09 Page:301
  ****  Section 006 LblCom LINE_LIST$

  ****  Scalars and arrays  ****
OctLoc.c.b A Datatyp(siz) R M Lvl/name                 OctLoc.c.b A Datatyp(siz) R M Lvl/name

     0-0-0/w PTR         r     1 LINE_LIST$

  ****  Section 007 LblCom BUFFER

  ****  Scalars and arrays  ****
OctLoc.c.b A Datatyp(siz) R M Lvl/name                 OctLoc.c.b A Datatyp(siz) R M Lvl/name

     0-0-0/w STRC(252)   r     1 BUFFER

  ****  Section 008 LblCom ORIGINAL_ISN

  ****  Scalars and arrays  ****
OctLoc.c.b A Datatyp(siz) R M Lvl/name                 OctLoc.c.b A Datatyp(siz) R M Lvl/name

     0-0-0/w SBIN              1 ORIGINAL_ISN

  ****  Section 009 LblCom EXPANDED_ISN

  ****  Scalars and arrays  ****
OctLoc.c.b A Datatyp(siz) R M Lvl/name                 OctLoc.c.b A Datatyp(siz) R M Lvl/name

     0-0-0/w SBIN              1 EXPANDED_ISN

  ****  Section 010 LblCom ISN_FOR_EXP_SRC

  ****  Scalars and arrays  ****
OctLoc.c.b A Datatyp(siz) R M Lvl/name                 OctLoc.c.b A Datatyp(siz) R M Lvl/name

     0-0-0/w SBIN              1 ISN_FOR_EXP_SRC

  ****  Section 011 LblCom HEAP$

PL6.E3A0      #004=Z8EL$DUMP_USED_LINES File=Z8EL.:Z8A6TSI                       SAT 08/09/97 12:09 Page:302
  ****  Scalars and arrays  ****
OctLoc.c.b A Datatyp(siz) R M Lvl/name                 OctLoc.c.b A Datatyp(siz) R M Lvl/name

     0-0-0/w PTR         r     1 HEAP$

  ****  Section 012 LblCom INHIBIT_DUMP_LINES

  ****  Scalars and arrays  ****
OctLoc.c.b A Datatyp(siz) R M Lvl/name                 OctLoc.c.b A Datatyp(siz) R M Lvl/name

     0-0-0/b BIT         r     1 INHIBIT_DUMP_LINES

  ****  SYMREF variables  ****

  ****  Scalars and arrays  ****
OctLoc.c.b A Datatyp(siz) R M Lvl/name                 OctLoc.c.b A Datatyp(siz) R M Lvl/name

     0-0-0/d STRC(13248) r     1 COMCOM

  ****  BASED and DCB variables  ****

  ****  Scalars and arrays  ****
OctLoc.c.b A Datatyp(siz) R M Lvl/name                 OctLoc.c.b A Datatyp(siz) R M Lvl/name

     0-0-0/c ACHR              1 BUFFER_LINE                0-0-0/w CHAR(4096)        1 CHARS
     0-0-0/w STRC(72)          1 CONT                       0-0-0/w ASTR(396)   r     1 EXP_SRC_BUFF
     0-0-0/w ASTR(396)   r     1 FILL_BUFFER                0-0-0/w STRC(36864)       1 PAGE


   Procedure Z8EL$DUMP_USED_LINES requires 27 words for executable code.
   Procedure Z8EL$DUMP_USED_LINES is declared NOAUTO and requires 2 words of local(STATIC) storage.

PL6.E3A0      #005=Z8EL$START_WRITING_ES_FILE File=Z8EL.:Z8A6TSI                 SAT 08/09/97 12:09 Page:303
     1297        1        /*T***********************************************************/
     1298        2        /*T*                                                         */
     1299        3        /*T* Copyright (c) Bull HN Information Systems Inc., 1997    */
     1300        4        /*T*                                                         */
     1301        5        /*T***********************************************************/
     1302        6        Z8EL$START_WRITING_ES_FILE : PROC (ISN) NOAUTO;
     1303        7
     1304        8
     1305        9    1   DCL Z8EL$GET_NEXT_SCANNER_LINE ENTRY;
     1306       10
     1307       11    1   DCL ISN SBIN;   /* At which to start */
     1308       12
     1309       13        %EQU PHASE = 1;
     1310       14        %INCLUDE Z8A_DEFC;
     1311       82        %INCLUDE Z8A_SUPP_MAC;
     1312     2482        %INCLUDE Z8E_BUFFERS;
     1313     2672
     1314     2673    1   DCL Z8AA$PREPARE_ES_OUTPUT ENTRY ALTRET;
     1315     2674
     1316     2675    1   IF ISN_FOR_EXP_SRC < 0 THEN
     1317     2676    2     DO;
     1318     2677    2       ISN_FOR_EXP_SRC = ISN;
     1319     2678    2       CALL Z8AA$PREPARE_ES_OUTPUT;
     1320     2679    2     END;
     1321     2680
     1322     2681    1   END Z8EL$START_WRITING_ES_FILE;
     1323     2682        %EOD;

PL6.E3A0      #005=Z8EL$START_WRITING_ES_FILE File=Z8EL.:Z8A6TSI                 SAT 08/09/97 12:09 Page:304
--  Include file information  --

   Z8E_BUFFERS.:Z8A6TOU  cannot be made into a system file and is referenced.
   X8A_COM_MACS.:X8A6TOU  is referenced.
   Z8A_NAMES.:Z8A6TOU  is referenced.
   Z8A_SUPP_MAC.:Z8A6TOU  is referenced.
   Z8A_DEFC.:Z8A6TOU  cannot be made into a system file and is referenced.
      No diagnostics issued in procedure Z8EL$START_WRITING_ES_FILE.

   Procedure Z8EL$START_WRITING_ES_FILE requires 12 words for executable code.
   Procedure Z8EL$START_WRITING_ES_FILE is declared NOAUTO and requires 2 words of local(STATIC) storage.

PL6.E3A0      #005=Z8EL$START_WRITING_ES_FILE File=Z8EL.:Z8A6TSI                 SAT 08/09/97 12:09 Page:305

 Object Unit name= Z8EL$START_WRITING_ES_FILE                 File name= Z8EL.:Z8A6TOU
 UTS= AUG 09 '97 12:09:39.20 SAT                              Compiler= PL-6/E31         Sev=      00
 SharedLib= :SHARED_SYSTEM                                    Alt SharedLib=


    ****  Control sections  ****

 Sect   Type Bound  Init  Size OctSiz  Section name(segment info)
    0   Data  even  none     2      2  Z8EL$START_WRITING_ES_FILE
    1  LblCom even  none     1      1  ITERATION
    2  LblCom even  none     1      1  SCANNER_STATE
    3  LblCom even  none     1      1  CURRENT_BUFFER$
    4  LblCom even  none     1      1  LOOKAHEAD_BUFFER$
    5  LblCom even  none     1      1  CURRENT_LINE_LEVEL
    6  LblCom even  none     1      1  LINE_LIST$
    7  LblCom even  none     7      7  BUFFER
    8  LblCom even  none     1      1  ORIGINAL_ISN
    9  LblCom even  none     1      1  EXPANDED_ISN
   10  LblCom even  none     1      1  ISN_FOR_EXP_SRC
   11   Proc  even  none    12     14  Z8EL$START_WRITING_ES_FILE
   12  RoData even  none     1      1  Z8EL$START_WRITING_ES_FILE

    ****  Entry defs  ****

                              Check   Calling
                             calling  sequence
  Sect OctLoc Primary Altret sequence   type   Parms  Name
    11      0   yes            yes      Std        1  Z8EL$START_WRITING_ES_FILE

  ****  Entry refs  ****

         Check        Calling
        calling       sequence
Altret sequence SRef   type   Args  Name
 yes     yes           Std       0 Z8AA$PREPARE_ES_OUTPUT
                       nStd      0 X66_STATIC_1
PL6.E3A0      #005=Z8EL$START_WRITING_ES_FILE File=Z8EL.:Z8A6TSI                 SAT 08/09/97 12:09 Page:306

  ****  Segment refs  ****

  Flags:  r = read only, s = secondary
Flgs Name                             Flgs Name                             Flgs Name
     NULLSID
PL6.E3A0      #005=Z8EL$START_WRITING_ES_FILE File=Z8EL.:Z8A6TSI                 SAT 08/09/97 12:09 Page:307


     1297        1        /*T***********************************************************/
     1298        2        /*T*                                                         */
     1299        3        /*T* Copyright (c) Bull HN Information Systems Inc., 1997    */
     1300        4        /*T*                                                         */
     1301        5        /*T***********************************************************/
     1302        6        Z8EL$START_WRITING_ES_FILE : PROC (ISN) NOAUTO;

      6 11 000000   000000 700200 xent  Z8EL$START_* TSX0  ! X66_STATIC_1
        11 000001   000000 000001 0                  ZERO    0,1

     1303        7
     1304        8
     1305        9    1   DCL Z8EL$GET_NEXT_SCANNER_LINE ENTRY;
     1306       10
     1307       11    1   DCL ISN SBIN;   /* At which to start */
     1308       12
     1309       13        %EQU PHASE = 1;
     1310       14        %INCLUDE Z8A_DEFC;
     1311       82        %INCLUDE Z8A_SUPP_MAC;
     1312     2482        %INCLUDE Z8E_BUFFERS;
     1313     2672
     1314     2673    1   DCL Z8AA$PREPARE_ES_OUTPUT ENTRY ALTRET;
     1315     2674
     1316     2675    1   IF ISN_FOR_EXP_SRC < 0 THEN

   2675 11 000002   000000 235000 10                 LDA     ISN_FOR_EXP_SRC
        11 000003   000012 605000 11                 TPL     s:2681

     1317     2676    2     DO;

     1318     2677    2       ISN_FOR_EXP_SRC = ISN;

   2677 11 000004   000001 470400 0                  LDP0    @ISN
        11 000005   000000 235100                    LDA     0,,PR0
        11 000006   000000 755000 10                 STA     ISN_FOR_EXP_SRC

PL6.E3A0      #005=Z8EL$START_WRITING_ES_FILE File=Z8EL.:Z8A6TSI                 SAT 08/09/97 12:09 Page:308
     1319     2678    2       CALL Z8AA$PREPARE_ES_OUTPUT;

   2678 11 000007   000000 631400 12                 EPPR1   0
        11 000010   000000 701000 xent               TSX1    Z8AA$PREPARE_ES_OUTPUT
        11 000011   000000 011000                    NOP     0

     1320     2679    2     END;

     1321     2680
     1322     2681    1   END Z8EL$START_WRITING_ES_FILE;

   2681 11 000012   000000 221200 0                  LDX1  ! 0
        11 000013   000001 702211                    TSX2  ! 1,X1
     1323     2682        %EOD;

PL6.E3A0      #005=Z8EL$START_WRITING_ES_FILE File=Z8EL.:Z8A6TSI                 SAT 08/09/97 12:09 Page:309
--  Include file information  --

   Z8E_BUFFERS.:Z8A6TOU  cannot be made into a system file and is referenced.
   X8A_COM_MACS.:X8A6TOU  is referenced.
   Z8A_NAMES.:Z8A6TOU  is referenced.
   Z8A_SUPP_MAC.:Z8A6TOU  is referenced.
   Z8A_DEFC.:Z8A6TOU  cannot be made into a system file and is referenced.
      No diagnostics issued in procedure Z8EL$START_WRITING_ES_FILE.
PL6.E3A0      #005=Z8EL$START_WRITING_ES_FILE File=Z8EL.:Z8A6TSI                 SAT 08/09/97 12:09 Page:310

 **** Variables and constants ****

  ****  Section 000  Data  Z8EL$START_WRITING_ES_FILE

  ****  Scalars and arrays  ****
OctLoc.c.b A Datatyp(siz) R M Lvl/name                 OctLoc.c.b A Datatyp(siz) R M Lvl/name

     1-0-0/w PTR         r     1 @ISN                      *0-0-0/w SBIN        r     1 ISN

  ****  Section 001 LblCom ITERATION

  ****  Scalars and arrays  ****
OctLoc.c.b A Datatyp(siz) R M Lvl/name                 OctLoc.c.b A Datatyp(siz) R M Lvl/name

     0-0-0/w SBIN              1 ITERATION

  ****  Section 002 LblCom SCANNER_STATE

  ****  Scalars and arrays  ****
OctLoc.c.b A Datatyp(siz) R M Lvl/name                 OctLoc.c.b A Datatyp(siz) R M Lvl/name

     0-0-0/w SBIN              1 SCANNER_STATE

  ****  Section 003 LblCom CURRENT_BUFFER$

  ****  Scalars and arrays  ****
OctLoc.c.b A Datatyp(siz) R M Lvl/name                 OctLoc.c.b A Datatyp(siz) R M Lvl/name

     0-0-0/w PTR               1 CURRENT_BUFFER$

  ****  Section 004 LblCom LOOKAHEAD_BUFFER$

  ****  Scalars and arrays  ****
OctLoc.c.b A Datatyp(siz) R M Lvl/name                 OctLoc.c.b A Datatyp(siz) R M Lvl/name

     0-0-0/w PTR         r     1 LOOKAHEAD_BUFFER$

PL6.E3A0      #005=Z8EL$START_WRITING_ES_FILE File=Z8EL.:Z8A6TSI                 SAT 08/09/97 12:09 Page:311
  ****  Section 005 LblCom CURRENT_LINE_LEVEL

  ****  Scalars and arrays  ****
OctLoc.c.b A Datatyp(siz) R M Lvl/name                 OctLoc.c.b A Datatyp(siz) R M Lvl/name

     0-0-0/w SBIN              1 CURRENT_LINE_LEVEL

  ****  Section 006 LblCom LINE_LIST$

  ****  Scalars and arrays  ****
OctLoc.c.b A Datatyp(siz) R M Lvl/name                 OctLoc.c.b A Datatyp(siz) R M Lvl/name

     0-0-0/w PTR               1 LINE_LIST$

  ****  Section 007 LblCom BUFFER

  ****  Scalars and arrays  ****
OctLoc.c.b A Datatyp(siz) R M Lvl/name                 OctLoc.c.b A Datatyp(siz) R M Lvl/name

     0-0-0/w STRC(252)   r     1 BUFFER

  ****  Section 008 LblCom ORIGINAL_ISN

  ****  Scalars and arrays  ****
OctLoc.c.b A Datatyp(siz) R M Lvl/name                 OctLoc.c.b A Datatyp(siz) R M Lvl/name

     0-0-0/w SBIN              1 ORIGINAL_ISN

  ****  Section 009 LblCom EXPANDED_ISN

  ****  Scalars and arrays  ****
OctLoc.c.b A Datatyp(siz) R M Lvl/name                 OctLoc.c.b A Datatyp(siz) R M Lvl/name

     0-0-0/w SBIN              1 EXPANDED_ISN

  ****  Section 010 LblCom ISN_FOR_EXP_SRC

PL6.E3A0      #005=Z8EL$START_WRITING_ES_FILE File=Z8EL.:Z8A6TSI                 SAT 08/09/97 12:09 Page:312
  ****  Scalars and arrays  ****
OctLoc.c.b A Datatyp(siz) R M Lvl/name                 OctLoc.c.b A Datatyp(siz) R M Lvl/name

     0-0-0/w SBIN        r     1 ISN_FOR_EXP_SRC

  ****  BASED and DCB variables  ****

  ****  Scalars and arrays  ****
OctLoc.c.b A Datatyp(siz) R M Lvl/name                 OctLoc.c.b A Datatyp(siz) R M Lvl/name

     0-0-0/c ACHR              1 BUFFER_LINE                0-0-0/w CHAR(4096)        1 CHARS
     0-0-0/w STRC(72)          1 CONT                       0-0-0/w ASTR(396)   r     1 EXP_SRC_BUFF
     0-0-0/w ASTR(396)   r     1 FILL_BUFFER                0-0-0/w STRC(36864)       1 PAGE


   Procedure Z8EL$START_WRITING_ES_FILE requires 12 words for executable code.
   Procedure Z8EL$START_WRITING_ES_FILE is declared NOAUTO and requires 2 words of local(STATIC) storage.

PL6.E3A0      #006=Z8EL$PROCESS_COPY File=Z8EL.:Z8A6TSI                          SAT 08/09/97 12:09 Page:313
     1324        1        /*T***********************************************************/
     1325        2        /*T*                                                         */
     1326        3        /*T* Copyright (c) Bull HN Information Systems Inc., 1997    */
     1327        4        /*T*                                                         */
     1328        5        /*T***********************************************************/
     1329        6        Z8EL$PROCESS_COPY : PROC;
     1330        7
     1331        8
     1332        9        %EQU PHASE = 1;
     1333       10        %INCLUDE Z8A_DEFC;
     1334       78        %INCLUDE Z8A_SUPP_MAC;
     1335     2478        %INCLUDE Z8A_ERR_NUMS;
     1336     3242        %INCLUDE Z8A_DNT;
     1337     3463        %INCLUDE Z8A_COMCOM;
     1338     4113        %INCLUDE Z8E_HEAP;
     1339     4169        %INCLUDE Z8E_STACKS;
     1340     6435        %INCLUDE Z8E_BUFFERS;
     1341     6625        %INCLUDE Z8E_WINDOW;
     1342     8695        %INCLUDE Z8E_REPLACE;
     1343     8998        %INCLUDE Z8A_TYPES;
     1344     9172        %INCLUDE Z8E_O1COM ;
     1345     9933
     1346     9934    1   DCL Z8AH$SEARCH_ ENTRY;
     1347     9935    1   DCL Z8AE$ERROR ENTRY(12);
     1348     9936    1   DCL Z9AA$OPEN_COPY_FILE ENTRY(5);
     1349     9937    1   DCL Z8EL$HANDLE_LEVEL_CHANGE ENTRY(1);
     1350     9938    1   DCL Z8EL$PARSE_REPLACE ENTRY(7);
     1351     9939    1   DCL Z8EL$DELETE_REPLACE_LEVEL ENTRY(1);
     1352     9940    1   DCL Z8EL$ADD_REPL_LEVEL ENTRY(2);
     1353     9941    1   DCL Z8EL$BLANK_SOURCE_LINES ENTRY(4);
     1354     9942    1   DCL Z8EL$START_WRITING_ES_FILE ENTRY(1);
     1355     9943    1   DCL Z8AH$NEW_DNT ENTRY(3);
     1356     9944    1   DCL Z8EC$INTERNAL_STRING_REP ENTRY(2);
     1357     9945    1   DCL Z8EL$POSITION_LINE_LIST ENTRY(3);
     1358     9946
     1359     9947        %DEF_BUCKETS;
     1360     9950
PL6.E3A0      #006=Z8EL$PROCESS_COPY File=Z8EL.:Z8A6TSI                          SAT 08/09/97 12:09 Page:314
     1361     9951    1   DCL START_LINE SBIN WORD;
     1362     9952    1   DCL START_COLUMN SBIN WORD;
     1363     9953    1   DCL COPY_START_LINE SBIN;
     1364     9954    1   DCL COPY_START_COLUMN SBIN;
     1365     9955    1   DCL COPY_START_DEBUG BOOLEAN;
     1366     9956    1   DCL END_LINE SBIN;
     1367     9957    1   DCL END_COLUMN SBIN;
     1368     9958    1   DCL END_LEVEL SBIN;
     1369     9959    1   DCL L$ PTR;
     1370     9960    1   DCL TL$ PTR;
     1371     9961
     1372     9962    1   DCL COPY_FILE_NAME$ PTR;
     1373     9963    1   DCL COPY_LIBRARY_NAME$ PTR;
     1374     9964    1   DCL COPY_LIBRARY_DNT$ PTR;
     1375     9965
     1376     9966        %DCL_AUTO_LX_ITEM(@NAME = STR_TERM);
     1377     9970
     1378     9971
     1379     9972
     1380     9973    1   DCL REPLACE$ PTR;
     1381     9974    1   DCL ERROR_IN_REPLACE BOOLEAN;
     1382     9975    1   DCL ERROR_IN_COPY    BOOLEAN;               /*#34384*/
     1383     9976
     1384     9977            /* Main body of PROCESS_COPY */
     1385     9978
     1386     9979
     1387     9980    1   IF LEX_SYMBOL.LEVEL ~= 0 THEN                      /*#32204*/
     1388     9981    2     DO;
     1389     9982    2       CALL COPY_ERROR;
     1390     9983    2       RETURN;
     1391     9984    2     END;
     1392     9985    1   IF COMCOM.OB.FIPS.LEVEL = %LOW_LEV THEN
     1393     9986    1     CALL Z8AE$ERROR (%E$LEVEL_CHECK,
     1394     9987    1                      LEX_SYMBOL.LINE,
     1395     9988    1                      LEX_SYMBOL.COLUMN);
     1396     9989
     1397     9990    1   COPY_START_LINE = LEX_SYMBOL.LINE;
PL6.E3A0      #006=Z8EL$PROCESS_COPY File=Z8EL.:Z8A6TSI                          SAT 08/09/97 12:09 Page:315
     1398     9991    1   COPY_START_COLUMN = LEX_SYMBOL.COLUMN;
     1399     9992    1   COPY_START_DEBUG = LEX_SYMBOL.B.DEBUG_TOKEN;
     1400     9993    1   ERROR_IN_REPLACE = FALSE;
     1401     9994    1   ERROR_IN_COPY    = FALSE;                   /*#34384*/
     1402     9995    1   CALL Z8EL$START_WRITING_ES_FILE (COPY_START_LINE);
     1403     9996
     1404     9997    1   IF COPY_START_COLUMN > O1COM.AREA_A_COLUMN_START THEN
     1405     9998    2     DO;
     1406     9999    2       L$ = ADDR(NIL);
     1407    10000    2       CALL Z8EL$POSITION_LINE_LIST(COPY_START_LINE, L$, 999999999);
     1408    10001    2       IF SUBSTR (L$ -> FILL_BUFFER.SOURCE_LINE,
     1409    10002    2                  O1COM.AREA_A_COLUMN_START,
     1410    10003    2                  COPY_START_COLUMN - O1COM.AREA_A_COLUMN_START) ~= ' ' THEN
     1411    10004    3         DO;
     1412    10005    3           L$ -> FILL_BUFFER.LINE_TYPE.SPLIT_C_R_LINE = TRUE;
     1413    10006    3           L$ -> FILL_BUFFER.LINE_TYPE.COPY_REPL_LINE = FALSE;
     1414    10007    3           L$ -> FILL_BUFFER.LINE_TYPE.SPLIT_COLUMN = COPY_START_COLUMN;
     1415    10008    3         END;
     1416    10009    2     END;
     1417    10010        %PARSE_A_TOKEN;   /* The file name */
     1418    10058
     1419    10059        %COPY_TO_NEW_LEX_SYMBOL (FROM$="ADDR(LEX_SYMBOL)",
     1420    10060                                 TO$ = COPY_FILE_NAME$);
     1421    10075                                                             /*#34384*/
     1422    10076    1   IF LEX_SYMBOL.SIZE > 30   THEN
     1423    10077    2     DO;
     1424    10078    2       CALL Z8AE$ERROR( %E$USERWORD_TOO_LONG,
     1425    10079    2                        LEX_SYMBOL.LINE,
     1426    10080    2                        LEX_SYMBOL.COLUMN );
     1427    10081    2       LEX_SYMBOL.SIZE = 30;
     1428    10082    2       ERROR_IN_COPY   = TRUE;                 /*#34384*/
     1429    10083    2     END;
     1430    10084
     1431    10085        %GET_A_TOKEN;  /* period, REPLACING, SUPPRESS, or OF/IN */
     1432    10123
     1433    10124    1   IF (SUBSTR(LEX_SYMBOL.SYMBOL, 0, LEX_SYMBOL.SIZE) = 'OF')
     1434    10125    1         OR (SUBSTR(LEX_SYMBOL.SYMBOL, 0, LEX_SYMBOL.SIZE) = 'IN') THEN
PL6.E3A0      #006=Z8EL$PROCESS_COPY File=Z8EL.:Z8A6TSI                          SAT 08/09/97 12:09 Page:316
     1435    10126    2     DO;
     1436    10127    2       IF COMCOM.OB.FIPS.LEVEL = %INT_LEV THEN
     1437    10128    2         CALL Z8AE$ERROR (%E$LEVEL_CHECK,
     1438    10129    2                          COPY_START_LINE,
     1439    10130    2                          COPY_START_COLUMN);
     1440    10131            %GET_A_TOKEN;
     1441    10169
     1442    10170            %COPY_TO_NEW_LEX_SYMBOL(FROM$="ADDR(LEX_SYMBOL)",
     1443    10171                                    TO$ = COPY_LIBRARY_NAME$);
     1444    10186
     1445    10187    2       CALL Z8AH$NEW_DNT (COPY_LIBRARY_NAME$ -> BASED_LEX_SYMBOL.SYMBOL,
     1446    10188    2                          COPY_LIBRARY_NAME$ -> BASED_LEX_SYMBOL.SIZE,
     1447    10189    2                          COPY_LIBRARY_DNT$);
     1448    10190
     1449    10191    2       IF COPY_LIBRARY_NAME$ -> BASED_LEX_SYMBOL.TYPE = %SINGLE_QUOTE
     1450    10192    2            OR COPY_LIBRARY_NAME$ -> BASED_LEX_SYMBOL.TYPE = %DOUBLE_QUOTE THEN
     1451    10193    3         DO;
     1452    10194                %INIT_LX_TERMINAL (@POINTER = "ADDR(STR_TERM)",
     1453    10195                                   @SYMBOL = "COPY_LIBRARY_NAME$ -> BASED_LEX_SYMBOL.TYPE",
     1454    10196                                   @DNT$ = COPY_LIBRARY_DNT$,
     1455    10197                                   @LINE = "COPY_LIBRARY_NAME$ -> BASED_LEX_SYMBOL.LINE",
     1456    10198                                   @COLUMN = "COPY_LIBRARY_NAME$ -> BASED_LEX_SYMBOL.COLUMN"
             10198                                       );
     1457    10216    3           CALL Z8EC$INTERNAL_STRING_REP (ADDR(STR_TERM),
     1458    10217    3                                          COPY_LIBRARY_DNT$);
     1459    10218
     1460    10219    3           CALL Z8AH$NEW_DNT (SUBSTR(COPY_LIBRARY_DNT$ -> DNT.TEXT.NAME,
     1461    10220    3                                     1,
     1462    10221    3                                     COPY_LIBRARY_DNT$ -> DNT.TEXT.LENGTH - 2),
     1463    10222    3                              COPY_LIBRARY_DNT$ -> DNT.TEXT.LENGTH - 2,
     1464    10223    3                              COPY_LIBRARY_DNT$);
     1465    10224    3         END;
     1466    10225            %GET_A_TOKEN;
     1467    10263    2     END;
     1468    10264    1   ELSE
     1469    10265    2     DO;
     1470    10266    2       COPY_LIBRARY_NAME$ = ADDR(NIL);
PL6.E3A0      #006=Z8EL$PROCESS_COPY File=Z8EL.:Z8A6TSI                          SAT 08/09/97 12:09 Page:317
     1471    10267    2     END;
     1472    10268
     1473    10269    1   IF SUBSTR(LEX_SYMBOL.SYMBOL, 0, LEX_SYMBOL.SIZE) = 'SUPPRESS' THEN
     1474    10270          %GET_A_TOKEN;           /*  Skip SUPPRESS  */
     1475    10308    1   IF SUBSTR(LEX_SYMBOL.SYMBOL, 0, LEX_SYMBOL.SIZE) = 'REPLACING' THEN
     1476    10309    2     DO;
     1477    10310    2       IF COMCOM.OB.FIPS.LEVEL = %INT_LEV THEN
     1478    10311    2         CALL Z8AE$ERROR (%E$LEVEL_CHECK,
     1479    10312    2                          COPY_START_LINE,
     1480    10313    2                          COPY_START_COLUMN);
     1481    10314    2       CALL Z8EL$PARSE_REPLACE (REPLACE$,
     1482    10315    2                                START_LINE,
     1483    10316    2                                START_COLUMN,
     1484    10317    2                                END_LINE,
     1485    10318    2                                END_COLUMN,
     1486    10319    2                                END_LEVEL,
     1487    10320    2                                ERROR_IN_REPLACE);
     1488    10321    2       CALL Z8EL$ADD_REPL_LEVEL (CURRENT_SYMBOL_LEVEL+1, REPLACE$);
     1489    10322    2       CURRENT_SYMBOL_LEVEL = CURRENT_SYMBOL_LEVEL + 1;
     1490    10323    2       IF ERROR_IN_REPLACE THEN
     1491    10324    2         CALL Z8EL$DELETE_REPLACE_LEVEL(CURRENT_SYMBOL_LEVEL+1);
     1492    10325    2     END;
     1493    10326    1   ELSE
     1494    10327    1     IF LEX_SYMBOL.TYPE = %PERIOD THEN
     1495    10328    2       DO;
     1496    10329    2         END_LINE = LEX_SYMBOL.END_LINE;
     1497    10330    2         END_COLUMN = LEX_SYMBOL.END_COLUMN;
     1498    10331    2         END_LEVEL  = LEX_SYMBOL.LEVEL;
     1499    10332    2       END;
     1500    10333    1     ELSE
     1501    10334    2       DO;  /* ERROR */
     1502    10335    2         CALL Z8AE$ERROR (%E$COPY_PERIOD_EXPECTED,
     1503    10336    2                          LEX_SYMBOL.LINE,
     1504    10337    2                          LEX_SYMBOL.COLUMN);
     1505    10338    2         ERROR_IN_REPLACE = TRUE;
     1506    10339    2       END;
     1507    10340
PL6.E3A0      #006=Z8EL$PROCESS_COPY File=Z8EL.:Z8A6TSI                          SAT 08/09/97 12:09 Page:318
     1508    10341    1   IF NOT ERROR_IN_REPLACE  AND  NOT ERROR_IN_COPY  THEN    /*#34384*/
     1509    10342    2     DO;
     1510    10343    2       CURRENT_LINE_LEVEL = END_LEVEL + 1;
     1511    10344
     1512    10345    2       IF COPY_START_DEBUG THEN
     1513    10346    2         IF COPY_DEBUG_LEVEL = 0 THEN
     1514    10347    2           COPY_DEBUG_LEVEL = CURRENT_LINE_LEVEL;
     1515    10348    2         ELSE
     1516    10349    2           COPY_DEBUG_LEVEL = MINIMUM (COPY_DEBUG_LEVEL,
     1517    10350    2                                       CURRENT_LINE_LEVEL);
     1518    10351
     1519    10352            /* Check for trailing tokens on same line as COPY */
     1520    10353
     1521    10354    2       L$ = ADDR(NIL);
     1522    10355    2       CALL Z8EL$POSITION_LINE_LIST(END_LINE, L$, COPY_START_LINE + 1);
     1523    10356
     1524    10357    2       IF SUBSTR(L$ -> FILL_BUFFER.SOURCE_LINE,
     1525    10358    2                 END_COLUMN,
     1526    10359    2                 MINIMUM (L$ -> FILL_BUFFER.LINE_LENGTH,
     1527    10360    2                          O1COM.MARGIN_R) - END_COLUMN) ~= ' ' THEN
     1528    10361    3         DO;
     1529    10362                %NEW_HEAP (@POINTER = TL$,
     1530    10363                           @SIZE = %MAX_INPUT_BUFFER_LEN);
     1531    10368    3           TL$ -> FILL_BUFFER.LINE_LENGTH = L$ -> FILL_BUFFER.LINE_LENGTH;
     1532    10369    3           TL$ -> FILL_BUFFER = L$ -> FILL_BUFFER;
     1533    10370    3           TL$ -> FILL_BUFFER.ESN = ' ';
     1534    10371    3           TL$ -> FILL_BUFFER.COLUMN = O1COM.AREA_A_COLUMN_START ;
     1535    10372    3           TL$ -> FILL_BUFFER.CLASS  = %SPACE;
     1536    10373    3           TL$ -> FILL_BUFFER.LINE_TYPE.COPY_REPL_LINE = FALSE;
     1537    10374    3           TL$ -> FILL_BUFFER.LINE_TYPE.SPLIT_C_R_LINE = FALSE;
     1538    10375    3           SUBSTR(TL$ -> FILL_BUFFER.SOURCE_LINE,
     1539    10376    3                  O1COM.AREA_A_COLUMN_START,
     1540    10377    3                  END_COLUMN - O1COM.AREA_A_COLUMN_START) = ' ';
     1541    10378
     1542    10379    3           IF SUBSTR(TL$ -> FILL_BUFFER.SOURCE_LINE,
     1543    10380    3                     O1COM.AREA_A_COLUMN_START - 1,
     1544    10381    3                     1) = '-' THEN
PL6.E3A0      #006=Z8EL$PROCESS_COPY File=Z8EL.:Z8A6TSI                          SAT 08/09/97 12:09 Page:319
     1545    10382    3             SUBSTR(TL$ -> FILL_BUFFER.SOURCE_LINE,
     1546    10383    3                    O1COM.AREA_A_COLUMN_START - 1,
     1547    10384    3                    1) = ' ';
     1548    10385
     1549    10386    3           L$ -> FILL_BUFFER.NEXT$ = TL$;
     1550    10387    3           SUBSTR(L$ -> FILL_BUFFER.SOURCE_LINE,
     1551    10388    3                  END_COLUMN,
     1552    10389    3                  MINIMUM (L$ -> FILL_BUFFER.LINE_LENGTH,
     1553    10390    3                           O1COM.MARGIN_R) - END_COLUMN) = ' ';
     1554    10391
     1555    10392                /* Clear previously processed tokens */
     1556    10393    3           SCANNER_STATE = 0;
     1557    10394    3           CURRENT_BUFFER$ = L$;
     1558    10395    3           EXPANDED_ISN = END_LINE;
     1559    10396    3           BUFFER.COLUMN = BUFFER.LINE_LENGTH;
     1560    10397
     1561    10398    4           DO WHILE LEX_SYMBOL_QUEUE$ ~= ADDR(NIL)
     1562    10399    4                AND LEX_SYMBOL_QUEUE$ -> BASED_LEX_SYMBOL.LINE >= END_LINE;
     1563    10400
     1564    10401    4             TL$ = LEX_SYMBOL_QUEUE$;
     1565    10402    4             LEX_SYMBOL_QUEUE$ = LEX_SYMBOL_QUEUE$ -> BASED_LEX_SYMBOL.NEXT$;
     1566    10403
     1567    10404    4             CALL Z8ED$DISPOSE_HEAP (TL$,
     1568    10405                                          %LEX_SYMBOL_ACTUAL_WORD_LEN (S$ = TL$);
     1569    10408    4                                    );
     1570    10409    4           END;
     1571    10410    3         END;
     1572    10411
     1573    10412    2       IF COPY_LIBRARY_NAME$ ~= ADDR(NIL) THEN
     1574    10413    3         DO;
     1575    10414    3           CALL Z9AA$OPEN_COPY_FILE (COPY_FILE_NAME$ -> BASED_LEX_SYMBOL.SYMBOL,
     1576    10415    3                                     COPY_FILE_NAME$ -> BASED_LEX_SYMBOL.SIZE,
     1577    10416    3                                     CURRENT_LINE_LEVEL,
     1578    10417    3                                     COPY_LIBRARY_DNT$ -> DNT.TEXT.NAME,
     1579    10418    3                                     BINBIT(COPY_LIBRARY_DNT$ -> DNT.TEXT.LENGTH,36));
     1580    10419    3         END;
     1581    10420    2       ELSE
PL6.E3A0      #006=Z8EL$PROCESS_COPY File=Z8EL.:Z8A6TSI                          SAT 08/09/97 12:09 Page:320
     1582    10421    3         DO;
     1583    10422    3           CALL Z9AA$OPEN_COPY_FILE (COPY_FILE_NAME$ -> BASED_LEX_SYMBOL.SYMBOL,
     1584    10423    3                                     COPY_FILE_NAME$ -> BASED_LEX_SYMBOL.SIZE,
     1585    10424    3                                     CURRENT_LINE_LEVEL);
     1586    10425    3         END;
     1587    10426    2     END;
     1588    10427
     1589    10428    1   CALL Z8ED$DISPOSE_HEAP(COPY_FILE_NAME$,
     1590    10429                    %LEX_SYMBOL_ACTUAL_WORD_LEN (S$=COPY_FILE_NAME$);
     1591    10432    1               );
     1592    10433
     1593    10434    1   IF COPY_LIBRARY_NAME$ ~= ADDR(NIL) THEN
     1594    10435    1     CALL Z8ED$DISPOSE_HEAP(COPY_LIBRARY_NAME$,
     1595    10436                    %LEX_SYMBOL_ACTUAL_WORD_LEN(S$=COPY_LIBRARY_NAME$);
     1596    10439    1               );
     1597    10440
     1598    10441
     1599    10442    1   RETURN;
     1600    10443        %EJECT;
PL6.E3A0      #006=Z8EL$PROCESS_COPY File=Z8EL.:Z8A6TSI                          SAT 08/09/97 12:09 Page:321
     1601    10444        /*----------*/
     1602    10445    1     COPY_ERROR : PROC;
     1603    10446        /*----------*/
     1604    10447
     1605    10448
     1606    10449    2   CALL Z8AE$ERROR( %E$INTERNAL_COPY,
     1607    10450    2                    LEX_SYMBOL.LINE,
     1608    10451    2                    LEX_SYMBOL.COLUMN );
     1609    10452
     1610    10453        %PARSE_A_TOKEN;                      /* FILE NAME */
     1611    10501
     1612    10502    3   DO WHILE LEX_SYMBOL.TYPE ~= %PERIOD;
     1613    10503          %GET_A_TOKEN;
     1614    10541    3   END;
     1615    10542
     1616    10543    2   END COPY_ERROR;
     1617    10544    1   END Z8EL$PROCESS_COPY;
     1618    10545
     1619    10546        %EOD;

PL6.E3A0      #006=Z8EL$PROCESS_COPY File=Z8EL.:Z8A6TSI                          SAT 08/09/97 12:09 Page:322
--  Include file information  --

   Z8E_O1COM.:Z8A6TOU  cannot be made into a system file and is referenced.
   Z8A_TYPES.:Z8A6TOU  is referenced.
   Z8E_REPLACE.:Z8A6TOU  cannot be made into a system file and is referenced.
   Z8E_WINDOW.:Z8A6TOU  is referenced.
   Z8E_BUFFERS.:Z8A6TOU  cannot be made into a system file and is referenced.
   Z8A_LEX_SYMB.:Z8A6TOU  cannot be made into a system file and is referenced.
   Z8E_STACKS.:Z8A6TOU  cannot be made into a system file and is referenced.
   Z8E_HEAP.:Z8A6TOU  cannot be made into a system file and is referenced.
   Z8A_COMCOM.:Z8A6TOU  cannot be made into a system file and is referenced.
   Z8A_DNT.:Z8A6TOU  cannot be made into a system file and is referenced.
   Z8A_ERR_NUMS.:Z8A6TOU  is referenced.
   X8A_COM_MACS.:X8A6TOU  is referenced.
   Z8A_NAMES.:Z8A6TOU  is referenced.
   Z8A_SUPP_MAC.:Z8A6TOU  is referenced.
   Z8A_DEFC.:Z8A6TOU  cannot be made into a system file and is referenced.
      No diagnostics issued in procedure Z8EL$PROCESS_COPY.

   Procedure Z8EL$PROCESS_COPY requires 920 words for executable code.
   Procedure Z8EL$PROCESS_COPY requires 38 words of local(AUTO) storage.

PL6.E3A0      #006=Z8EL$PROCESS_COPY File=Z8EL.:Z8A6TSI                          SAT 08/09/97 12:09 Page:323

 Object Unit name= Z8EL$PROCESS_COPY                          File name= Z8EL.:Z8A6TOU
 UTS= AUG 09 '97 12:09:55.08 SAT                              Compiler= PL-6/E31         Sev=      00
 SharedLib= :SHARED_SYSTEM                                    Alt SharedLib=


    ****  Control sections  ****

 Sect   Type Bound  Init  Size OctSiz  Section name(segment info)
    0  LblCom even  none     1      1  ITERATION
    1  LblCom even  none     1      1  DNT$
    2  LblCom even  none     5      5  DNT_
    3  LblCom even  none     1      1  DNT_BUCKET_NUMBER
    4  LblCom even  none     1      1  DNT_OF_1$
    5  LblCom even  none     1      1  HEAP$
    6  LblCom even  none    90    132  LEX_SYMBOL
    7  LblCom even  none     1      1  CURRENT_LEX_SYMBOL$
    8  LblCom even  none    90    132  TEMP_LEX_SYMBOL
    9  LblCom even  none    90    132  TEMP_LEX_SYMBOL2
   10  LblCom even  none     1      1  SCANNER_STATE
   11  LblCom even  none     1      1  CURRENT_BUFFER$
   12  LblCom even  none     1      1  LOOKAHEAD_BUFFER$
   13  LblCom even  none     1      1  CURRENT_LINE_LEVEL
   14  LblCom even  none     1      1  LINE_LIST$
   15  LblCom even  none     7      7  BUFFER
   16  LblCom even  none     1      1  ORIGINAL_ISN
   17  LblCom even  none     1      1  EXPANDED_ISN
   18  LblCom even  none     1      1  ISN_FOR_EXP_SRC
   19  LblCom even  none     1      1  CURRENT_SYMBOL_LEVEL
   20  LblCom even  none     1      1  REPLACE_ACTIVE
   21  LblCom even  none     1      1  IGNORE_COPY_REPLACE
   22  LblCom even  none     1      1  COPY_DEBUG_LEVEL
   23  LblCom even  none     4      4  REPLACE_LIST
   24  LblCom even  none     1      1  LEX_SYMBOL_QUEUE$
   25  RoData even  UTS      7      7  Z8EL$PROCESS_COPY
   26   Proc  even  none   920   1630  Z8EL$PROCESS_COPY
   27  RoData even  none    36     44  Z8EL$PROCESS_COPY
PL6.E3A0      #006=Z8EL$PROCESS_COPY File=Z8EL.:Z8A6TSI                          SAT 08/09/97 12:09 Page:324

    ****  Entry defs  ****

                              Check   Calling
                             calling  sequence
  Sect OctLoc Primary Altret sequence   type   Parms  Name
    26      0   yes            yes      Std        0  Z8EL$PROCESS_COPY

  ****  Entry refs  ****

         Check        Calling
        calling       sequence
Altret sequence SRef   type   Args  Name
         yes           Std      12 Z8AE$ERROR
         yes           Std       0 Z8ES$SCANNER
         yes           Std       1 Z8EL$HANDLE_LEVEL_CHANGE
         yes           Std       2 Z8ED$NEW_HEAP
         yes           Std       1 Z8EL$START_WRITING_ES_FILE
         yes           Std       2 Z8ED$DISPOSE_HEAP
         yes           Std       3 Z8AH$NEW_DNT
         yes           Std       7 Z8EL$PARSE_REPLACE
         yes           Std       2 Z8EL$ADD_REPL_LEVEL
         yes           Std       5 Z9AA$OPEN_COPY_FILE
         yes           Std       1 Z8EL$DELETE_REPLACE_LEVEL
         yes           Std       0 Z8EL$GET_NEXT_SCANNER_LINE
         yes           Std       2 Z8EC$INTERNAL_STRING_REP
         yes           Std       3 Z8EL$POSITION_LINE_LIST
                       nStd      0 X66_AUTO_0
                       nStd      0 X66_ARET

  ****  Data refs  ****

  Flags:  r = read only, s = secondary
Flgs Name                             Flgs Name                             Flgs Name
     COMCOM                                O1COM                                 HIER_STK_PTR
     HIER_STK                              PAGE_FORMAT                           REP_STK_PTR
     REP_STK                               DNT_BUCKETS
PL6.E3A0      #006=Z8EL$PROCESS_COPY File=Z8EL.:Z8A6TSI                          SAT 08/09/97 12:09 Page:325

  ****  Segment refs  ****

  Flags:  r = read only, s = secondary
Flgs Name                             Flgs Name                             Flgs Name
     NULLSID                               ISSID
PL6.E3A0      #006=Z8EL$PROCESS_COPY File=Z8EL.:Z8A6TSI                          SAT 08/09/97 12:09 Page:326


     1324        1        /*T***********************************************************/
     1325        2        /*T*                                                         */
     1326        3        /*T* Copyright (c) Bull HN Information Systems Inc., 1997    */
     1327        4        /*T*                                                         */
     1328        5        /*T***********************************************************/
     1329        6        Z8EL$PROCESS_COPY : PROC;

      6 26 000000   000000 700200 xent  Z8EL$PROCES* TSX0  ! X66_AUTO_0
        26 000001   000046 000000                    ZERO    38,0

     1330        7
     1331        8
     1332        9        %EQU PHASE = 1;
     1333       10        %INCLUDE Z8A_DEFC;
     1334       78        %INCLUDE Z8A_SUPP_MAC;
     1335     2478        %INCLUDE Z8A_ERR_NUMS;
     1336     3242        %INCLUDE Z8A_DNT;
     1337     3463        %INCLUDE Z8A_COMCOM;
     1338     4113        %INCLUDE Z8E_HEAP;
     1339     4169        %INCLUDE Z8E_STACKS;
     1340     6435        %INCLUDE Z8E_BUFFERS;
     1341     6625        %INCLUDE Z8E_WINDOW;
     1342     8695        %INCLUDE Z8E_REPLACE;
     1343     8998        %INCLUDE Z8A_TYPES;
     1344     9172        %INCLUDE Z8E_O1COM ;
     1345     9933
     1346     9934    1   DCL Z8AH$SEARCH_ ENTRY;
     1347     9935    1   DCL Z8AE$ERROR ENTRY(12);
     1348     9936    1   DCL Z9AA$OPEN_COPY_FILE ENTRY(5);
     1349     9937    1   DCL Z8EL$HANDLE_LEVEL_CHANGE ENTRY(1);
     1350     9938    1   DCL Z8EL$PARSE_REPLACE ENTRY(7);
     1351     9939    1   DCL Z8EL$DELETE_REPLACE_LEVEL ENTRY(1);
     1352     9940    1   DCL Z8EL$ADD_REPL_LEVEL ENTRY(2);
     1353     9941    1   DCL Z8EL$BLANK_SOURCE_LINES ENTRY(4);
     1354     9942    1   DCL Z8EL$START_WRITING_ES_FILE ENTRY(1);
     1355     9943    1   DCL Z8AH$NEW_DNT ENTRY(3);
PL6.E3A0      #006=Z8EL$PROCESS_COPY File=Z8EL.:Z8A6TSI                          SAT 08/09/97 12:09 Page:327
     1356     9944    1   DCL Z8EC$INTERNAL_STRING_REP ENTRY(2);
     1357     9945    1   DCL Z8EL$POSITION_LINE_LIST ENTRY(3);
     1358     9946
     1359     9947        %DEF_BUCKETS;
     1360     9950
     1361     9951    1   DCL START_LINE SBIN WORD;
     1362     9952    1   DCL START_COLUMN SBIN WORD;
     1363     9953    1   DCL COPY_START_LINE SBIN;
     1364     9954    1   DCL COPY_START_COLUMN SBIN;
     1365     9955    1   DCL COPY_START_DEBUG BOOLEAN;
     1366     9956    1   DCL END_LINE SBIN;
     1367     9957    1   DCL END_COLUMN SBIN;
     1368     9958    1   DCL END_LEVEL SBIN;
     1369     9959    1   DCL L$ PTR;
     1370     9960    1   DCL TL$ PTR;
     1371     9961
     1372     9962    1   DCL COPY_FILE_NAME$ PTR;
     1373     9963    1   DCL COPY_LIBRARY_NAME$ PTR;
     1374     9964    1   DCL COPY_LIBRARY_DNT$ PTR;
     1375     9965
     1376     9966        %DCL_AUTO_LX_ITEM(@NAME = STR_TERM);
     1377     9970
     1378     9971
     1379     9972
     1380     9973    1   DCL REPLACE$ PTR;
     1381     9974    1   DCL ERROR_IN_REPLACE BOOLEAN;
     1382     9975    1   DCL ERROR_IN_COPY    BOOLEAN;               /*#34384*/
     1383     9976
     1384     9977            /* Main body of PROCESS_COPY */
     1385     9978
     1386     9979
     1387     9980    1   IF LEX_SYMBOL.LEVEL ~= 0 THEN                      /*#32204*/

   9980 26 000002   000003 235000 6                  LDA     LEX_SYMBOL+3
        26 000003   000007 600000 26                 TZE     s:9985

     1388     9981    2     DO;
PL6.E3A0      #006=Z8EL$PROCESS_COPY File=Z8EL.:Z8A6TSI                          SAT 08/09/97 12:09 Page:328

     1389     9982    2       CALL COPY_ERROR;

   9982 26 000004   001431 701000 26                 TSX1    COPY_ERROR
        26 000005   000000 011000                    NOP     0

     1390     9983    2       RETURN;

   9983 26 000006   000000 702200 xent               TSX2  ! X66_ARET

     1391     9984    2     END;
     1392     9985    1   IF COMCOM.OB.FIPS.LEVEL = %LOW_LEV THEN

   9985 26 000007   000036 720000 xsym               LXL0    COMCOM+30
        26 000010   000003 100003                    CMPX0   3,DU
        26 000011   000016 601000 26                 TNZ     s:9990

     1393     9986    1     CALL Z8AE$ERROR (%E$LEVEL_CHECK,

   9986 26 000012   000002 630400 27                 EPPR0   2
        26 000013   000000 631400 27                 EPPR1   0
        26 000014   000000 701000 xent               TSX1    Z8AE$ERROR
        26 000015   000000 011000                    NOP     0

     1394     9987    1                      LEX_SYMBOL.LINE,
     1395     9988    1                      LEX_SYMBOL.COLUMN);
     1396     9989
     1397     9990    1   COPY_START_LINE = LEX_SYMBOL.LINE;

   9990 26 000016   000004 235000 6                  LDA     LEX_SYMBOL+4
        26 000017   200005 755100                    STA     COPY_START_LINE,,AUTO

     1398     9991    1   COPY_START_COLUMN = LEX_SYMBOL.COLUMN;

   9991 26 000020   000005 236000 6                  LDQ     LEX_SYMBOL+5
        26 000021   200006 756100                    STQ     COPY_START_COLUMN,,AUTO

PL6.E3A0      #006=Z8EL$PROCESS_COPY File=Z8EL.:Z8A6TSI                          SAT 08/09/97 12:09 Page:329
     1399     9992    1   COPY_START_DEBUG = LEX_SYMBOL.B.DEBUG_TOKEN;

   9992 26 000022   000002 236000 6                  LDQ     LEX_SYMBOL+2
        26 000023   000002 736000                    QLS     2
        26 000024   400000 376003                    ANQ     -131072,DU
        26 000025   200007 756100                    STQ     COPY_START_DEBUG,,AUTO

     1400     9993    1   ERROR_IN_REPLACE = FALSE;

   9993 26 000026   200031 450100                    STZ     ERROR_IN_REPLACE,,AUTO

     1401     9994    1   ERROR_IN_COPY    = FALSE;                   /*#34384*/

   9994 26 000027   200032 450100                    STZ     ERROR_IN_COPY,,AUTO

     1402     9995    1   CALL Z8EL$START_WRITING_ES_FILE (COPY_START_LINE);

   9995 26 000030   200005 630500                    EPPR0   COPY_START_LINE,,AUTO
        26 000031   200036 450500                    STP0    ERROR_IN_COPY+4,,AUTO
        26 000032   200036 630500                    EPPR0   ERROR_IN_COPY+4,,AUTO
        26 000033   000005 631400 27                 EPPR1   5
        26 000034   000000 701000 xent               TSX1    Z8EL$START_WRITING_ES_FILE
        26 000035   000000 011000                    NOP     0

     1403     9996
     1404     9997    1   IF COPY_START_COLUMN > O1COM.AREA_A_COLUMN_START THEN

   9997 26 000036   200006 236100                    LDQ     COPY_START_COLUMN,,AUTO
        26 000037   000122 116000 xsym               CMPQ    O1COM+82
        26 000040   000077 604400 26                 TMOZ    s:10014

     1405     9998    2     DO;

     1406     9999    2       L$ = ADDR(NIL);

   9999 26 000041   000006 236000 27                 LDQ     6
        26 000042   200013 756100                    STQ     L$,,AUTO
PL6.E3A0      #006=Z8EL$PROCESS_COPY File=Z8EL.:Z8A6TSI                          SAT 08/09/97 12:09 Page:330

     1407    10000    2       CALL Z8EL$POSITION_LINE_LIST(COPY_START_LINE, L$, 999999999);

  10000 26 000043   000010 236000 27                 LDQ     8
        26 000044   200040 756100                    STQ     ERROR_IN_COPY+6,,AUTO
        26 000045   200013 630500                    EPPR0   L$,,AUTO
        26 000046   200037 450500                    STP0    ERROR_IN_COPY+5,,AUTO
        26 000047   200005 631500                    EPPR1   COPY_START_LINE,,AUTO
        26 000050   200036 451500                    STP1    ERROR_IN_COPY+4,,AUTO
        26 000051   200036 630500                    EPPR0   ERROR_IN_COPY+4,,AUTO
        26 000052   000000 631400 27                 EPPR1   0
        26 000053   000000 701000 xent               TSX1    Z8EL$POSITION_LINE_LIST
        26 000054   000000 011000                    NOP     0

     1408    10001    2       IF SUBSTR (L$ -> FILL_BUFFER.SOURCE_LINE,

  10001 26 000055   200013 470500                    LDP0    L$,,AUTO
        26 000056   000012 720100                    LXL0    10,,PR0
        26 000057   200006 236100                    LDQ     COPY_START_COLUMN,,AUTO
        26 000060   000122 136000 xsym               SBLQ    O1COM+82
        26 000061   000000 621006                    EAX1    0,QL
        26 000062   000122 235000 xsym               LDA     O1COM+82
        26 000063   040000 106545                    CMPC    fill='040'O
        26 000064   000013 000011                    ADSC9   11,A,PR0                 cn=0,n=*X1
        26 000065   000011 000001 27                 ADSC9   9                        cn=0,n=1
        26 000066   000077 600000 26                 TZE     s:10014

     1409    10002    2                  O1COM.AREA_A_COLUMN_START,
     1410    10003    2                  COPY_START_COLUMN - O1COM.AREA_A_COLUMN_START) ~= ' ' THEN
     1411    10004    3         DO;

     1412    10005    3           L$ -> FILL_BUFFER.LINE_TYPE.SPLIT_C_R_LINE = TRUE;

  10005 26 000067   000004 236003                    LDQ     4,DU
        26 000070   000011 256100                    ORSQ    9,,PR0

     1413    10006    3           L$ -> FILL_BUFFER.LINE_TYPE.COPY_REPL_LINE = FALSE;
PL6.E3A0      #006=Z8EL$PROCESS_COPY File=Z8EL.:Z8A6TSI                          SAT 08/09/97 12:09 Page:331

  10006 26 000071   200013 470500                    LDP0    L$,,AUTO
        26 000072   000012 236000 27                 LDQ     10
        26 000073   000011 356100                    ANSQ    9,,PR0

     1414    10007    3           L$ -> FILL_BUFFER.LINE_TYPE.SPLIT_COLUMN = COPY_START_COLUMN;

  10007 26 000074   200013 470500                    LDP0    L$,,AUTO
        26 000075   200006 236100                    LDQ     COPY_START_COLUMN,,AUTO
        26 000076   000011 552104                    STBQ    9,'04'O,PR0

     1415    10008    3         END;

     1416    10009    2     END;

     1417    10010        %PARSE_A_TOKEN;   /* The file name */

  10014 26 000077   000000 236000 24                 LDQ     LEX_SYMBOL_QUEUE$
        26 000100   000006 116000 27                 CMPQ    6
        26 000101   000137 600000 26                 TZE     s:10037

  10020 26 000102   000000 470400 24                 LDP0    LEX_SYMBOL_QUEUE$
        26 000103   000010 235100                    LDA     8,,PR0
        26 000104   000010 755000 6                  STA     LEX_SYMBOL+8

  10021 26 000105   000010 720100                    LXL0    8,,PR0
        26 000106   000044 621010                    EAX1    36,X0
        26 000107   000044 622005                    EAX2    36,AL
        26 000110   000040 100540                    MLR     fill='000'O
        26 000111   000000 000011                    ADSC9   0,,PR0                   cn=0,n=*X1
        26 000112   000000 000012 6                  ADSC9   LEX_SYMBOL               cn=0,n=*X2

  10024 26 000113   000010 720100                    LXL0    8,,PR0
        26 000114   000044 621010                    EAX1    36,X0
        26 000115   000000 636011                    EAQ     0,X1
        26 000116   000022 732000                    QRS     18
        26 000117   000003 036007                    ADLQ    3,DL
PL6.E3A0      #006=Z8EL$PROCESS_COPY File=Z8EL.:Z8A6TSI                          SAT 08/09/97 12:09 Page:332
        26 000120   000004 506007                    DIV     4,DL
        26 000121   200036 756100                    STQ     ERROR_IN_COPY+4,,AUTO
        26 000122   200036 631500                    EPPR1   ERROR_IN_COPY+4,,AUTO
        26 000123   200041 451500                    STP1    ERROR_IN_COPY+7,,AUTO
        26 000124   000014 236000 27                 LDQ     12
        26 000125   200040 756100                    STQ     ERROR_IN_COPY+6,,AUTO
        26 000126   200040 630500                    EPPR0   ERROR_IN_COPY+6,,AUTO
        26 000127   000013 631400 27                 EPPR1   11
        26 000130   000000 701000 xent               TSX1    Z8ED$DISPOSE_HEAP
        26 000131   000000 011000                    NOP     0

  10029 26 000132   000000 236000 6                  LDQ     LEX_SYMBOL
        26 000133   000000 756000 24                 STQ     LEX_SYMBOL_QUEUE$

  10030 26 000134   000006 236000 27                 LDQ     6
        26 000135   000000 756000 6                  STQ     LEX_SYMBOL

  10031 26 000136   000166 710000 26                 TRA     s:10052

  10037 26 000137   000015 631400 27                 EPPR1   13
        26 000140   000000 701000 xent               TSX1    Z8ES$SCANNER
        26 000141   000000 011000                    NOP     0

  10038 26 000142   000001 235000 6                  LDA     LEX_SYMBOL+1
        26 000143   000154 601000 26                 TNZ     s:10044

  10039 26 000144   000015 631400 27                 EPPR1   13
        26 000145   000000 701000 xent               TSX1    Z8EL$GET_NEXT_SCANNER_LINE
        26 000146   000000 011000                    NOP     0

  10040 26 000147   000015 631400 27                 EPPR1   13
        26 000150   000000 701000 xent               TSX1    Z8ES$SCANNER
        26 000151   000000 011000                    NOP     0

  10041 26 000152   000001 235000 6                  LDA     LEX_SYMBOL+1
        26 000153   000144 600000 26                 TZE     s:10039

PL6.E3A0      #006=Z8EL$PROCESS_COPY File=Z8EL.:Z8A6TSI                          SAT 08/09/97 12:09 Page:333
  10044 26 000154   000003 236000 6                  LDQ     LEX_SYMBOL+3
        26 000155   000000 116000 19                 CMPQ    CURRENT_SYMBOL_LEVEL
        26 000156   000166 600000 26                 TZE     s:10052
        26 000157   000002 236000 6                  LDQ     LEX_SYMBOL+2
        26 000160   200000 316003                    CANQ    65536,DU
        26 000161   000166 601000 26                 TNZ     s:10052

  10046 26 000162   000016 630400 27                 EPPR0   14
        26 000163   000005 631400 27                 EPPR1   5
        26 000164   000000 701000 xent               TSX1    Z8EL$HANDLE_LEVEL_CHANGE
        26 000165   000000 011000                    NOP     0

  10052 26 000166   000004 235000 6                  LDA     LEX_SYMBOL+4
        26 000167   000133 755000 xsym               STA     COMCOM+91

  10053 26 000170   000005 236000 6                  LDQ     LEX_SYMBOL+5
        26 000171   000134 756000 xsym               STQ     COMCOM+92

     1418    10058
     1419    10059        %COPY_TO_NEW_LEX_SYMBOL (FROM$="ADDR(LEX_SYMBOL)",
     1420    10060                                 TO$ = COPY_FILE_NAME$);

  10062 26 000172   000010 236000 6                  LDQ     LEX_SYMBOL+8
        26 000173   000047 036007                    ADLQ    39,DL
        26 000174   000004 506007                    DIV     4,DL
        26 000175   200036 756100                    STQ     ERROR_IN_COPY+4,,AUTO
        26 000176   200036 630500                    EPPR0   ERROR_IN_COPY+4,,AUTO
        26 000177   200041 450500                    STP0    ERROR_IN_COPY+7,,AUTO
        26 000200   200015 631500                    EPPR1   COPY_FILE_NAME$,,AUTO
        26 000201   200040 451500                    STP1    ERROR_IN_COPY+6,,AUTO
        26 000202   200040 630500                    EPPR0   ERROR_IN_COPY+6,,AUTO
        26 000203   000013 631400 27                 EPPR1   11
        26 000204   000000 701000 xent               TSX1    Z8ED$NEW_HEAP
        26 000205   000000 011000                    NOP     0

  10069 26 000206   200015 470500                    LDP0    COPY_FILE_NAME$,,AUTO
        26 000207   000010 235000 6                  LDA     LEX_SYMBOL+8
PL6.E3A0      #006=Z8EL$PROCESS_COPY File=Z8EL.:Z8A6TSI                          SAT 08/09/97 12:09 Page:334
        26 000210   000010 755100                    STA     8,,PR0

  10070 26 000211   200015 470500                    LDP0    COPY_FILE_NAME$,,AUTO
        26 000212   000010 720100                    LXL0    8,,PR0
        26 000213   000044 621010                    EAX1    36,X0
        26 000214   000010 722000 6                  LXL2    LEX_SYMBOL+8
        26 000215   000044 623012                    EAX3    36,X2
        26 000216   000140 100440                    MLR     fill='000'O
        26 000217   000000 000013 6                  ADSC9   LEX_SYMBOL               cn=0,n=*X3
        26 000220   000000 000011                    ADSC9   0,,PR0                   cn=0,n=*X1

     1421    10075                                                             /*#34384*/
     1422    10076    1   IF LEX_SYMBOL.SIZE > 30   THEN

  10076 26 000221   000010 235000 6                  LDA     LEX_SYMBOL+8
        26 000222   000036 115007                    CMPA    30,DL
        26 000223   000234 604400 26                 TMOZ    s:10087

     1423    10077    2     DO;

     1424    10078    2       CALL Z8AE$ERROR( %E$USERWORD_TOO_LONG,

  10078 26 000224   000020 630400 27                 EPPR0   16
        26 000225   000000 631400 27                 EPPR1   0
        26 000226   000000 701000 xent               TSX1    Z8AE$ERROR
        26 000227   000000 011000                    NOP     0

     1425    10079    2                        LEX_SYMBOL.LINE,
     1426    10080    2                        LEX_SYMBOL.COLUMN );
     1427    10081    2       LEX_SYMBOL.SIZE = 30;

  10081 26 000230   000036 235007                    LDA     30,DL
        26 000231   000010 755000 6                  STA     LEX_SYMBOL+8

     1428    10082    2       ERROR_IN_COPY   = TRUE;                 /*#34384*/

  10082 26 000232   400000 236003                    LDQ     -131072,DU
PL6.E3A0      #006=Z8EL$PROCESS_COPY File=Z8EL.:Z8A6TSI                          SAT 08/09/97 12:09 Page:335
        26 000233   200032 756100                    STQ     ERROR_IN_COPY,,AUTO

     1429    10083    2     END;

     1430    10084
     1431    10085        %GET_A_TOKEN;  /* period, REPLACING, SUPPRESS, or OF/IN */

  10087 26 000234   000000 236000 24                 LDQ     LEX_SYMBOL_QUEUE$
        26 000235   000006 116000 27                 CMPQ    6
        26 000236   000274 600000 26                 TZE     s:10110

  10093 26 000237   000000 470400 24                 LDP0    LEX_SYMBOL_QUEUE$
        26 000240   000010 235100                    LDA     8,,PR0
        26 000241   000010 755000 6                  STA     LEX_SYMBOL+8

  10094 26 000242   000010 720100                    LXL0    8,,PR0
        26 000243   000044 621010                    EAX1    36,X0
        26 000244   000044 622005                    EAX2    36,AL
        26 000245   000040 100540                    MLR     fill='000'O
        26 000246   000000 000011                    ADSC9   0,,PR0                   cn=0,n=*X1
        26 000247   000000 000012 6                  ADSC9   LEX_SYMBOL               cn=0,n=*X2

  10097 26 000250   000010 720100                    LXL0    8,,PR0
        26 000251   000044 621010                    EAX1    36,X0
        26 000252   000000 636011                    EAQ     0,X1
        26 000253   000022 732000                    QRS     18
        26 000254   000003 036007                    ADLQ    3,DL
        26 000255   000004 506007                    DIV     4,DL
        26 000256   200036 756100                    STQ     ERROR_IN_COPY+4,,AUTO
        26 000257   200036 631500                    EPPR1   ERROR_IN_COPY+4,,AUTO
        26 000260   200041 451500                    STP1    ERROR_IN_COPY+7,,AUTO
        26 000261   000014 236000 27                 LDQ     12
        26 000262   200040 756100                    STQ     ERROR_IN_COPY+6,,AUTO
        26 000263   200040 630500                    EPPR0   ERROR_IN_COPY+6,,AUTO
        26 000264   000013 631400 27                 EPPR1   11
        26 000265   000000 701000 xent               TSX1    Z8ED$DISPOSE_HEAP
        26 000266   000000 011000                    NOP     0
PL6.E3A0      #006=Z8EL$PROCESS_COPY File=Z8EL.:Z8A6TSI                          SAT 08/09/97 12:09 Page:336

  10102 26 000267   000000 236000 6                  LDQ     LEX_SYMBOL
        26 000270   000000 756000 24                 STQ     LEX_SYMBOL_QUEUE$

  10103 26 000271   000006 236000 27                 LDQ     6
        26 000272   000000 756000 6                  STQ     LEX_SYMBOL

  10104 26 000273   000323 710000 26                 TRA     s:10124

  10110 26 000274   000015 631400 27                 EPPR1   13
        26 000275   000000 701000 xent               TSX1    Z8ES$SCANNER
        26 000276   000000 011000                    NOP     0

  10111 26 000277   000001 235000 6                  LDA     LEX_SYMBOL+1
        26 000300   000311 601000 26                 TNZ     s:10117

  10112 26 000301   000015 631400 27                 EPPR1   13
        26 000302   000000 701000 xent               TSX1    Z8EL$GET_NEXT_SCANNER_LINE
        26 000303   000000 011000                    NOP     0

  10113 26 000304   000015 631400 27                 EPPR1   13
        26 000305   000000 701000 xent               TSX1    Z8ES$SCANNER
        26 000306   000000 011000                    NOP     0

  10114 26 000307   000001 235000 6                  LDA     LEX_SYMBOL+1
        26 000310   000301 600000 26                 TZE     s:10112

  10117 26 000311   000003 236000 6                  LDQ     LEX_SYMBOL+3
        26 000312   000000 116000 19                 CMPQ    CURRENT_SYMBOL_LEVEL
        26 000313   000323 600000 26                 TZE     s:10124
        26 000314   000002 236000 6                  LDQ     LEX_SYMBOL+2
        26 000315   200000 316003                    CANQ    65536,DU
        26 000316   000323 601000 26                 TNZ     s:10124

  10119 26 000317   000016 630400 27                 EPPR0   14
        26 000320   000005 631400 27                 EPPR1   5
        26 000321   000000 701000 xent               TSX1    Z8EL$HANDLE_LEVEL_CHANGE
PL6.E3A0      #006=Z8EL$PROCESS_COPY File=Z8EL.:Z8A6TSI                          SAT 08/09/97 12:09 Page:337
        26 000322   000000 011000                    NOP     0

     1432    10123
     1433    10124    1   IF (SUBSTR(LEX_SYMBOL.SYMBOL, 0, LEX_SYMBOL.SIZE) = 'OF')

  10124 26 000323   000010 720000 6                  LXL0    LEX_SYMBOL+8
        26 000324   040000 106440                    CMPC    fill='040'O
        26 000325   000011 000010 6                  ADSC9   LEX_SYMBOL+9             cn=0,n=*X0
        26 000326   000000 000002 25                 ADSC9   0                        cn=0,n=2
        26 000327   000334 600000 26                 TZE     s:10127
        26 000330   040000 106440                    CMPC    fill='040'O
        26 000331   000011 000010 6                  ADSC9   LEX_SYMBOL+9             cn=0,n=*X0
        26 000332   000001 000002 25                 ADSC9   1                        cn=0,n=2
        26 000333   000656 601000 26                 TNZ     s:10266

     1434    10125    1         OR (SUBSTR(LEX_SYMBOL.SYMBOL, 0, LEX_SYMBOL.SIZE) = 'IN') THEN
     1435    10126    2     DO;

     1436    10127    2       IF COMCOM.OB.FIPS.LEVEL = %INT_LEV THEN

  10127 26 000334   000036 721000 xsym               LXL1    COMCOM+30
        26 000335   000002 101003                    CMPX1   2,DU
        26 000336   000351 601000 26                 TNZ     s:10133

     1437    10128    2         CALL Z8AE$ERROR (%E$LEVEL_CHECK,

  10128 26 000337   200006 630500                    EPPR0   COPY_START_COLUMN,,AUTO
        26 000340   200040 450500                    STP0    ERROR_IN_COPY+6,,AUTO
        26 000341   200005 631500                    EPPR1   COPY_START_LINE,,AUTO
        26 000342   200037 451500                    STP1    ERROR_IN_COPY+5,,AUTO
        26 000343   000002 236000 27                 LDQ     2
        26 000344   200036 756100                    STQ     ERROR_IN_COPY+4,,AUTO
        26 000345   200036 630500                    EPPR0   ERROR_IN_COPY+4,,AUTO
        26 000346   000000 631400 27                 EPPR1   0
        26 000347   000000 701000 xent               TSX1    Z8AE$ERROR
        26 000350   000000 011000                    NOP     0

PL6.E3A0      #006=Z8EL$PROCESS_COPY File=Z8EL.:Z8A6TSI                          SAT 08/09/97 12:09 Page:338
     1438    10129    2                          COPY_START_LINE,
     1439    10130    2                          COPY_START_COLUMN);
     1440    10131            %GET_A_TOKEN;

  10133 26 000351   000000 236000 24                 LDQ     LEX_SYMBOL_QUEUE$
        26 000352   000006 116000 27                 CMPQ    6
        26 000353   000411 600000 26                 TZE     s:10156

  10139 26 000354   000000 470400 24                 LDP0    LEX_SYMBOL_QUEUE$
        26 000355   000010 235100                    LDA     8,,PR0
        26 000356   000010 755000 6                  STA     LEX_SYMBOL+8

  10140 26 000357   000010 720100                    LXL0    8,,PR0
        26 000360   000044 621010                    EAX1    36,X0
        26 000361   000044 622005                    EAX2    36,AL
        26 000362   000040 100540                    MLR     fill='000'O
        26 000363   000000 000011                    ADSC9   0,,PR0                   cn=0,n=*X1
        26 000364   000000 000012 6                  ADSC9   LEX_SYMBOL               cn=0,n=*X2

  10143 26 000365   000010 720100                    LXL0    8,,PR0
        26 000366   000044 621010                    EAX1    36,X0
        26 000367   000000 636011                    EAQ     0,X1
        26 000370   000022 732000                    QRS     18
        26 000371   000003 036007                    ADLQ    3,DL
        26 000372   000004 506007                    DIV     4,DL
        26 000373   200036 756100                    STQ     ERROR_IN_COPY+4,,AUTO
        26 000374   200036 631500                    EPPR1   ERROR_IN_COPY+4,,AUTO
        26 000375   200041 451500                    STP1    ERROR_IN_COPY+7,,AUTO
        26 000376   000014 236000 27                 LDQ     12
        26 000377   200040 756100                    STQ     ERROR_IN_COPY+6,,AUTO
        26 000400   200040 630500                    EPPR0   ERROR_IN_COPY+6,,AUTO
        26 000401   000013 631400 27                 EPPR1   11
        26 000402   000000 701000 xent               TSX1    Z8ED$DISPOSE_HEAP
        26 000403   000000 011000                    NOP     0

  10148 26 000404   000000 236000 6                  LDQ     LEX_SYMBOL
        26 000405   000000 756000 24                 STQ     LEX_SYMBOL_QUEUE$
PL6.E3A0      #006=Z8EL$PROCESS_COPY File=Z8EL.:Z8A6TSI                          SAT 08/09/97 12:09 Page:339

  10149 26 000406   000006 236000 27                 LDQ     6
        26 000407   000000 756000 6                  STQ     LEX_SYMBOL

  10150 26 000410   000440 710000 26                 TRA     s:10173

  10156 26 000411   000015 631400 27                 EPPR1   13
        26 000412   000000 701000 xent               TSX1    Z8ES$SCANNER
        26 000413   000000 011000                    NOP     0

  10157 26 000414   000001 235000 6                  LDA     LEX_SYMBOL+1
        26 000415   000426 601000 26                 TNZ     s:10163

  10158 26 000416   000015 631400 27                 EPPR1   13
        26 000417   000000 701000 xent               TSX1    Z8EL$GET_NEXT_SCANNER_LINE
        26 000420   000000 011000                    NOP     0

  10159 26 000421   000015 631400 27                 EPPR1   13
        26 000422   000000 701000 xent               TSX1    Z8ES$SCANNER
        26 000423   000000 011000                    NOP     0

  10160 26 000424   000001 235000 6                  LDA     LEX_SYMBOL+1
        26 000425   000416 600000 26                 TZE     s:10158

  10163 26 000426   000003 236000 6                  LDQ     LEX_SYMBOL+3
        26 000427   000000 116000 19                 CMPQ    CURRENT_SYMBOL_LEVEL
        26 000430   000440 600000 26                 TZE     s:10173
        26 000431   000002 236000 6                  LDQ     LEX_SYMBOL+2
        26 000432   200000 316003                    CANQ    65536,DU
        26 000433   000440 601000 26                 TNZ     s:10173

  10165 26 000434   000016 630400 27                 EPPR0   14
        26 000435   000005 631400 27                 EPPR1   5
        26 000436   000000 701000 xent               TSX1    Z8EL$HANDLE_LEVEL_CHANGE
        26 000437   000000 011000                    NOP     0

     1441    10169
PL6.E3A0      #006=Z8EL$PROCESS_COPY File=Z8EL.:Z8A6TSI                          SAT 08/09/97 12:09 Page:340
     1442    10170            %COPY_TO_NEW_LEX_SYMBOL(FROM$="ADDR(LEX_SYMBOL)",
     1443    10171                                    TO$ = COPY_LIBRARY_NAME$);

  10173 26 000440   000010 236000 6                  LDQ     LEX_SYMBOL+8
        26 000441   000047 036007                    ADLQ    39,DL
        26 000442   000004 506007                    DIV     4,DL
        26 000443   200036 756100                    STQ     ERROR_IN_COPY+4,,AUTO
        26 000444   200036 630500                    EPPR0   ERROR_IN_COPY+4,,AUTO
        26 000445   200041 450500                    STP0    ERROR_IN_COPY+7,,AUTO
        26 000446   200016 631500                    EPPR1   COPY_LIBRARY_NAME$,,AUTO
        26 000447   200040 451500                    STP1    ERROR_IN_COPY+6,,AUTO
        26 000450   200040 630500                    EPPR0   ERROR_IN_COPY+6,,AUTO
        26 000451   000013 631400 27                 EPPR1   11
        26 000452   000000 701000 xent               TSX1    Z8ED$NEW_HEAP
        26 000453   000000 011000                    NOP     0

  10180 26 000454   200016 470500                    LDP0    COPY_LIBRARY_NAME$,,AUTO
        26 000455   000010 235000 6                  LDA     LEX_SYMBOL+8
        26 000456   000010 755100                    STA     8,,PR0

  10181 26 000457   200016 470500                    LDP0    COPY_LIBRARY_NAME$,,AUTO
        26 000460   000010 720100                    LXL0    8,,PR0
        26 000461   000044 621010                    EAX1    36,X0
        26 000462   000010 722000 6                  LXL2    LEX_SYMBOL+8
        26 000463   000044 623012                    EAX3    36,X2
        26 000464   000140 100440                    MLR     fill='000'O
        26 000465   000000 000013 6                  ADSC9   LEX_SYMBOL               cn=0,n=*X3
        26 000466   000000 000011                    ADSC9   0,,PR0                   cn=0,n=*X1

     1444    10186
     1445    10187    2       CALL Z8AH$NEW_DNT (COPY_LIBRARY_NAME$ -> BASED_LEX_SYMBOL.SYMBOL,

  10187 26 000467   200017 630500                    EPPR0   COPY_LIBRARY_DNT$,,AUTO
        26 000470   200040 450500                    STP0    ERROR_IN_COPY+6,,AUTO
        26 000471   200016 236100                    LDQ     COPY_LIBRARY_NAME$,,AUTO
        26 000472   000010 036003                    ADLQ    8,DU
        26 000473   200037 756100                    STQ     ERROR_IN_COPY+5,,AUTO
PL6.E3A0      #006=Z8EL$PROCESS_COPY File=Z8EL.:Z8A6TSI                          SAT 08/09/97 12:09 Page:341
        26 000474   200016 236100                    LDQ     COPY_LIBRARY_NAME$,,AUTO
        26 000475   000011 036003                    ADLQ    9,DU
        26 000476   200036 756100                    STQ     ERROR_IN_COPY+4,,AUTO
        26 000477   200036 630500                    EPPR0   ERROR_IN_COPY+4,,AUTO
        26 000500   000000 631400 27                 EPPR1   0
        26 000501   000000 701000 xent               TSX1    Z8AH$NEW_DNT
        26 000502   000000 011000                    NOP     0

     1446    10188    2                          COPY_LIBRARY_NAME$ -> BASED_LEX_SYMBOL.SIZE,
     1447    10189    2                          COPY_LIBRARY_DNT$);
     1448    10190
     1449    10191    2       IF COPY_LIBRARY_NAME$ -> BASED_LEX_SYMBOL.TYPE = %SINGLE_QUOTE

  10191 26 000503   200016 470500                    LDP0    COPY_LIBRARY_NAME$,,AUTO
        26 000504   000001 235100                    LDA     1,,PR0
        26 000505   000004 115007                    CMPA    4,DL
        26 000506   000511 600000 26                 TZE     s:10200
        26 000507   000003 115007                    CMPA    3,DL
        26 000510   000566 601000 26                 TNZ     s:10227

     1450    10192    2            OR COPY_LIBRARY_NAME$ -> BASED_LEX_SYMBOL.TYPE = %DOUBLE_QUOTE THEN
     1451    10193    3         DO;

     1452    10194                %INIT_LX_TERMINAL (@POINTER = "ADDR(STR_TERM)",
     1453    10195                                   @SYMBOL = "COPY_LIBRARY_NAME$ -> BASED_LEX_SYMBOL.TYPE",
     1454    10196                                   @DNT$ = COPY_LIBRARY_DNT$,
     1455    10197                                   @LINE = "COPY_LIBRARY_NAME$ -> BASED_LEX_SYMBOL.LINE",
     1456    10198                                  @COLUMN = "COPY_LIBRARY_NAME$ -> BASED_LEX_SYMBOL.COLUMN"
             10198                                       );

  10200 26 000511   000000 220003                    LDX0    0,DU
        26 000512   200020 740100                    STX0    STR_TERM,,AUTO

  10201 26 000513   000000 221003                    LDX1    0,DU
        26 000514   200020 441100                    SXL1    STR_TERM,,AUTO

  10205 26 000515   000015 235007                    LDA     13,DL
PL6.E3A0      #006=Z8EL$PROCESS_COPY File=Z8EL.:Z8A6TSI                          SAT 08/09/97 12:09 Page:342
        26 000516   200024 755100                    STA     STR_TERM+4,,AUTO

  10207 26 000517   000006 236000 27                 LDQ     6
        26 000520   200027 756100                    STQ     STR_TERM+7,,AUTO

  10209 26 000521   200021 756100                    STQ     STR_TERM+1,,AUTO

  10210 26 000522   000001 235100                    LDA     1,,PR0
        26 000523   200023 755100                    STA     STR_TERM+3,,AUTO

  10211 26 000524   200017 236100                    LDQ     COPY_LIBRARY_DNT$,,AUTO
        26 000525   200022 756100                    STQ     STR_TERM+2,,AUTO

  10212 26 000526   000004 235100                    LDA     4,,PR0
        26 000527   200025 755100                    STA     STR_TERM+5,,AUTO

  10213 26 000530   000005 235100                    LDA     5,,PR0
        26 000531   200026 755100                    STA     STR_TERM+6,,AUTO

     1457    10216    3           CALL Z8EC$INTERNAL_STRING_REP (ADDR(STR_TERM),

  10216 26 000532   200020 631500                    EPPR1   STR_TERM,,AUTO
        26 000533   200036 451500                    STP1    ERROR_IN_COPY+4,,AUTO
        26 000534   200017 633500                    EPPR3   COPY_LIBRARY_DNT$,,AUTO
        26 000535   200041 453500                    STP3    ERROR_IN_COPY+7,,AUTO
        26 000536   200036 634500                    EPPR4   ERROR_IN_COPY+4,,AUTO
        26 000537   200040 454500                    STP4    ERROR_IN_COPY+6,,AUTO
        26 000540   200040 630500                    EPPR0   ERROR_IN_COPY+6,,AUTO
        26 000541   000013 631400 27                 EPPR1   11
        26 000542   000000 701000 xent               TSX1    Z8EC$INTERNAL_STRING_REP
        26 000543   000000 011000                    NOP     0

     1458    10217    3                                          COPY_LIBRARY_DNT$);
     1459    10218
     1460    10219    3           CALL Z8AH$NEW_DNT (SUBSTR(COPY_LIBRARY_DNT$ -> DNT.TEXT.NAME,

  10219 26 000544   200017 470500                    LDP0    COPY_LIBRARY_DNT$,,AUTO
PL6.E3A0      #006=Z8EL$PROCESS_COPY File=Z8EL.:Z8A6TSI                          SAT 08/09/97 12:09 Page:343
        26 000545   000004 220100                    LDX0    4,,PR0
        26 000546   777776 621010                    EAX1    -2,X0
        26 000547   000004 236100                    LDQ     4,,PR0
        26 000550   000022 772000                    QRL     18
        26 000551   000002 136007                    SBLQ    2,DL
        26 000552   200036 756100                    STQ     ERROR_IN_COPY+4,,AUTO
        26 000553   200017 631500                    EPPR1   COPY_LIBRARY_DNT$,,AUTO
        26 000554   200041 451500                    STP1    ERROR_IN_COPY+7,,AUTO
        26 000555   200036 633500                    EPPR3   ERROR_IN_COPY+4,,AUTO
        26 000556   200040 453500                    STP3    ERROR_IN_COPY+6,,AUTO
        26 000557   200017 236100                    LDQ     COPY_LIBRARY_DNT$,,AUTO
        26 000560   000023 036000 27                 ADLQ    19
        26 000561   200037 756100                    STQ     ERROR_IN_COPY+5,,AUTO
        26 000562   200037 630500                    EPPR0   ERROR_IN_COPY+5,,AUTO
        26 000563   000000 631400 27                 EPPR1   0
        26 000564   000000 701000 xent               TSX1    Z8AH$NEW_DNT
        26 000565   000000 011000                    NOP     0

     1461    10220    3                                     1,
     1462    10221    3                                     COPY_LIBRARY_DNT$ -> DNT.TEXT.LENGTH - 2),
     1463    10222    3                              COPY_LIBRARY_DNT$ -> DNT.TEXT.LENGTH - 2,
     1464    10223    3                              COPY_LIBRARY_DNT$);
     1465    10224    3         END;

     1466    10225            %GET_A_TOKEN;

  10227 26 000566   000000 236000 24                 LDQ     LEX_SYMBOL_QUEUE$
        26 000567   000006 116000 27                 CMPQ    6
        26 000570   000626 600000 26                 TZE     s:10250

  10233 26 000571   000000 470400 24                 LDP0    LEX_SYMBOL_QUEUE$
        26 000572   000010 235100                    LDA     8,,PR0
        26 000573   000010 755000 6                  STA     LEX_SYMBOL+8

  10234 26 000574   000010 720100                    LXL0    8,,PR0
        26 000575   000044 621010                    EAX1    36,X0
        26 000576   000044 622005                    EAX2    36,AL
PL6.E3A0      #006=Z8EL$PROCESS_COPY File=Z8EL.:Z8A6TSI                          SAT 08/09/97 12:09 Page:344
        26 000577   000040 100540                    MLR     fill='000'O
        26 000600   000000 000011                    ADSC9   0,,PR0                   cn=0,n=*X1
        26 000601   000000 000012 6                  ADSC9   LEX_SYMBOL               cn=0,n=*X2

  10237 26 000602   000010 720100                    LXL0    8,,PR0
        26 000603   000044 621010                    EAX1    36,X0
        26 000604   000000 636011                    EAQ     0,X1
        26 000605   000022 732000                    QRS     18
        26 000606   000003 036007                    ADLQ    3,DL
        26 000607   000004 506007                    DIV     4,DL
        26 000610   200036 756100                    STQ     ERROR_IN_COPY+4,,AUTO
        26 000611   200036 631500                    EPPR1   ERROR_IN_COPY+4,,AUTO
        26 000612   200041 451500                    STP1    ERROR_IN_COPY+7,,AUTO
        26 000613   000014 236000 27                 LDQ     12
        26 000614   200040 756100                    STQ     ERROR_IN_COPY+6,,AUTO
        26 000615   200040 630500                    EPPR0   ERROR_IN_COPY+6,,AUTO
        26 000616   000013 631400 27                 EPPR1   11
        26 000617   000000 701000 xent               TSX1    Z8ED$DISPOSE_HEAP
        26 000620   000000 011000                    NOP     0

  10242 26 000621   000000 236000 6                  LDQ     LEX_SYMBOL
        26 000622   000000 756000 24                 STQ     LEX_SYMBOL_QUEUE$

  10243 26 000623   000006 236000 27                 LDQ     6
        26 000624   000000 756000 6                  STQ     LEX_SYMBOL

  10244 26 000625   000660 710000 26                 TRA     s:10269

  10250 26 000626   000015 631400 27                 EPPR1   13
        26 000627   000000 701000 xent               TSX1    Z8ES$SCANNER
        26 000630   000000 011000                    NOP     0

  10251 26 000631   000001 235000 6                  LDA     LEX_SYMBOL+1
        26 000632   000643 601000 26                 TNZ     s:10257

  10252 26 000633   000015 631400 27                 EPPR1   13
        26 000634   000000 701000 xent               TSX1    Z8EL$GET_NEXT_SCANNER_LINE
PL6.E3A0      #006=Z8EL$PROCESS_COPY File=Z8EL.:Z8A6TSI                          SAT 08/09/97 12:09 Page:345
        26 000635   000000 011000                    NOP     0

  10253 26 000636   000015 631400 27                 EPPR1   13
        26 000637   000000 701000 xent               TSX1    Z8ES$SCANNER
        26 000640   000000 011000                    NOP     0

  10254 26 000641   000001 235000 6                  LDA     LEX_SYMBOL+1
        26 000642   000633 600000 26                 TZE     s:10252

  10257 26 000643   000003 236000 6                  LDQ     LEX_SYMBOL+3
        26 000644   000000 116000 19                 CMPQ    CURRENT_SYMBOL_LEVEL
        26 000645   000660 600000 26                 TZE     s:10269
        26 000646   000002 236000 6                  LDQ     LEX_SYMBOL+2
        26 000647   200000 316003                    CANQ    65536,DU
        26 000650   000660 601000 26                 TNZ     s:10269

  10259 26 000651   000016 630400 27                 EPPR0   14
        26 000652   000005 631400 27                 EPPR1   5
        26 000653   000000 701000 xent               TSX1    Z8EL$HANDLE_LEVEL_CHANGE
        26 000654   000000 011000                    NOP     0

     1467    10263    2     END;

  10263 26 000655   000660 710000 26                 TRA     s:10269

     1468    10264    1   ELSE
     1469    10265    2     DO;

     1470    10266    2       COPY_LIBRARY_NAME$ = ADDR(NIL);

  10266 26 000656   000006 236000 27                 LDQ     6
        26 000657   200016 756100                    STQ     COPY_LIBRARY_NAME$,,AUTO

     1471    10267    2     END;

     1472    10268
     1473    10269    1   IF SUBSTR(LEX_SYMBOL.SYMBOL, 0, LEX_SYMBOL.SIZE) = 'SUPPRESS' THEN
PL6.E3A0      #006=Z8EL$PROCESS_COPY File=Z8EL.:Z8A6TSI                          SAT 08/09/97 12:09 Page:346

  10269 26 000660   000010 720000 6                  LXL0    LEX_SYMBOL+8
        26 000661   040000 106440                    CMPC    fill='040'O
        26 000662   000011 000010 6                  ADSC9   LEX_SYMBOL+9             cn=0,n=*X0
        26 000663   000002 000010 25                 ADSC9   2                        cn=0,n=8
        26 000664   000754 601000 26                 TNZ     s:10308

     1474    10270          %GET_A_TOKEN;           /*  Skip SUPPRESS  */

  10272 26 000665   000000 236000 24                 LDQ     LEX_SYMBOL_QUEUE$
        26 000666   000006 116000 27                 CMPQ    6
        26 000667   000725 600000 26                 TZE     s:10295

  10278 26 000670   000000 470400 24                 LDP0    LEX_SYMBOL_QUEUE$
        26 000671   000010 235100                    LDA     8,,PR0
        26 000672   000010 755000 6                  STA     LEX_SYMBOL+8

  10279 26 000673   000010 720100                    LXL0    8,,PR0
        26 000674   000044 621010                    EAX1    36,X0
        26 000675   000044 622005                    EAX2    36,AL
        26 000676   000040 100540                    MLR     fill='000'O
        26 000677   000000 000011                    ADSC9   0,,PR0                   cn=0,n=*X1
        26 000700   000000 000012 6                  ADSC9   LEX_SYMBOL               cn=0,n=*X2

  10282 26 000701   000010 720100                    LXL0    8,,PR0
        26 000702   000044 621010                    EAX1    36,X0
        26 000703   000000 636011                    EAQ     0,X1
        26 000704   000022 732000                    QRS     18
        26 000705   000003 036007                    ADLQ    3,DL
        26 000706   000004 506007                    DIV     4,DL
        26 000707   200036 756100                    STQ     ERROR_IN_COPY+4,,AUTO
        26 000710   200036 631500                    EPPR1   ERROR_IN_COPY+4,,AUTO
        26 000711   200041 451500                    STP1    ERROR_IN_COPY+7,,AUTO
        26 000712   000014 236000 27                 LDQ     12
        26 000713   200040 756100                    STQ     ERROR_IN_COPY+6,,AUTO
        26 000714   200040 630500                    EPPR0   ERROR_IN_COPY+6,,AUTO
        26 000715   000013 631400 27                 EPPR1   11
PL6.E3A0      #006=Z8EL$PROCESS_COPY File=Z8EL.:Z8A6TSI                          SAT 08/09/97 12:09 Page:347
        26 000716   000000 701000 xent               TSX1    Z8ED$DISPOSE_HEAP
        26 000717   000000 011000                    NOP     0

  10287 26 000720   000000 236000 6                  LDQ     LEX_SYMBOL
        26 000721   000000 756000 24                 STQ     LEX_SYMBOL_QUEUE$

  10288 26 000722   000006 236000 27                 LDQ     6
        26 000723   000000 756000 6                  STQ     LEX_SYMBOL

  10289 26 000724   000754 710000 26                 TRA     s:10308

  10295 26 000725   000015 631400 27                 EPPR1   13
        26 000726   000000 701000 xent               TSX1    Z8ES$SCANNER
        26 000727   000000 011000                    NOP     0

  10296 26 000730   000001 235000 6                  LDA     LEX_SYMBOL+1
        26 000731   000742 601000 26                 TNZ     s:10302

  10297 26 000732   000015 631400 27                 EPPR1   13
        26 000733   000000 701000 xent               TSX1    Z8EL$GET_NEXT_SCANNER_LINE
        26 000734   000000 011000                    NOP     0

  10298 26 000735   000015 631400 27                 EPPR1   13
        26 000736   000000 701000 xent               TSX1    Z8ES$SCANNER
        26 000737   000000 011000                    NOP     0

  10299 26 000740   000001 235000 6                  LDA     LEX_SYMBOL+1
        26 000741   000732 600000 26                 TZE     s:10297

  10302 26 000742   000003 236000 6                  LDQ     LEX_SYMBOL+3
        26 000743   000000 116000 19                 CMPQ    CURRENT_SYMBOL_LEVEL
        26 000744   000754 600000 26                 TZE     s:10308
        26 000745   000002 236000 6                  LDQ     LEX_SYMBOL+2
        26 000746   200000 316003                    CANQ    65536,DU
        26 000747   000754 601000 26                 TNZ     s:10308

  10304 26 000750   000016 630400 27                 EPPR0   14
PL6.E3A0      #006=Z8EL$PROCESS_COPY File=Z8EL.:Z8A6TSI                          SAT 08/09/97 12:09 Page:348
        26 000751   000005 631400 27                 EPPR1   5
        26 000752   000000 701000 xent               TSX1    Z8EL$HANDLE_LEVEL_CHANGE
        26 000753   000000 011000                    NOP     0

     1475    10308    1   IF SUBSTR(LEX_SYMBOL.SYMBOL, 0, LEX_SYMBOL.SIZE) = 'REPLACING' THEN

  10308 26 000754   000010 720000 6                  LXL0    LEX_SYMBOL+8
        26 000755   040000 106440                    CMPC    fill='040'O
        26 000756   000011 000010 6                  ADSC9   LEX_SYMBOL+9             cn=0,n=*X0
        26 000757   000004 000011 25                 ADSC9   4                        cn=0,n=9
        26 000760   001050 601000 26                 TNZ     s:10327

     1476    10309    2     DO;

     1477    10310    2       IF COMCOM.OB.FIPS.LEVEL = %INT_LEV THEN

  10310 26 000761   000036 721000 xsym               LXL1    COMCOM+30
        26 000762   000002 101003                    CMPX1   2,DU
        26 000763   000776 601000 26                 TNZ     s:10314

     1478    10311    2         CALL Z8AE$ERROR (%E$LEVEL_CHECK,

  10311 26 000764   200006 630500                    EPPR0   COPY_START_COLUMN,,AUTO
        26 000765   200040 450500                    STP0    ERROR_IN_COPY+6,,AUTO
        26 000766   200005 631500                    EPPR1   COPY_START_LINE,,AUTO
        26 000767   200037 451500                    STP1    ERROR_IN_COPY+5,,AUTO
        26 000770   000002 236000 27                 LDQ     2
        26 000771   200036 756100                    STQ     ERROR_IN_COPY+4,,AUTO
        26 000772   200036 630500                    EPPR0   ERROR_IN_COPY+4,,AUTO
        26 000773   000000 631400 27                 EPPR1   0
        26 000774   000000 701000 xent               TSX1    Z8AE$ERROR
        26 000775   000000 011000                    NOP     0

     1479    10312    2                          COPY_START_LINE,
     1480    10313    2                          COPY_START_COLUMN);
     1481    10314    2       CALL Z8EL$PARSE_REPLACE (REPLACE$,

PL6.E3A0      #006=Z8EL$PROCESS_COPY File=Z8EL.:Z8A6TSI                          SAT 08/09/97 12:09 Page:349
  10314 26 000776   200031 630500                    EPPR0   ERROR_IN_REPLACE,,AUTO
        26 000777   200044 450500                    STP0    ERROR_IN_COPY+10,,AUTO
        26 001000   200012 631500                    EPPR1   END_LEVEL,,AUTO
        26 001001   200043 451500                    STP1    ERROR_IN_COPY+9,,AUTO
        26 001002   200011 633500                    EPPR3   END_COLUMN,,AUTO
        26 001003   200042 453500                    STP3    ERROR_IN_COPY+8,,AUTO
        26 001004   200010 634500                    EPPR4   END_LINE,,AUTO
        26 001005   200041 454500                    STP4    ERROR_IN_COPY+7,,AUTO
        26 001006   200004 635500                    EPPR5   START_COLUMN,,AUTO
        26 001007   200040 455500                    STP5    ERROR_IN_COPY+6,,AUTO
        26 001010   200003 636500                    EPPR6   START_LINE,,AUTO
        26 001011   200037 456500                    STP6    ERROR_IN_COPY+5,,AUTO
        26 001012   200030 637500                    EPPR7   REPLACE$,,AUTO
        26 001013   200036 457500                    STP7    ERROR_IN_COPY+4,,AUTO
        26 001014   200036 630500                    EPPR0   ERROR_IN_COPY+4,,AUTO
        26 001015   000024 631400 27                 EPPR1   20
        26 001016   000000 701000 xent               TSX1    Z8EL$PARSE_REPLACE
        26 001017   000000 011000                    NOP     0

     1482    10315    2                                START_LINE,
     1483    10316    2                                START_COLUMN,
     1484    10317    2                                END_LINE,
     1485    10318    2                                END_COLUMN,
     1486    10319    2                                END_LEVEL,
     1487    10320    2                                ERROR_IN_REPLACE);
     1488    10321    2       CALL Z8EL$ADD_REPL_LEVEL (CURRENT_SYMBOL_LEVEL+1, REPLACE$);

  10321 26 001020   000000 235000 19                 LDA     CURRENT_SYMBOL_LEVEL
        26 001021   000001 035007                    ADLA    1,DL
        26 001022   200036 755100                    STA     ERROR_IN_COPY+4,,AUTO
        26 001023   200030 630500                    EPPR0   REPLACE$,,AUTO
        26 001024   200041 450500                    STP0    ERROR_IN_COPY+7,,AUTO
        26 001025   200036 631500                    EPPR1   ERROR_IN_COPY+4,,AUTO
        26 001026   200040 451500                    STP1    ERROR_IN_COPY+6,,AUTO
        26 001027   200040 630500                    EPPR0   ERROR_IN_COPY+6,,AUTO
        26 001030   000013 631400 27                 EPPR1   11
        26 001031   000000 701000 xent               TSX1    Z8EL$ADD_REPL_LEVEL
PL6.E3A0      #006=Z8EL$PROCESS_COPY File=Z8EL.:Z8A6TSI                          SAT 08/09/97 12:09 Page:350
        26 001032   000000 011000                    NOP     0

     1489    10322    2       CURRENT_SYMBOL_LEVEL = CURRENT_SYMBOL_LEVEL + 1;

  10322 26 001033   000000 054000 19                 AOS     CURRENT_SYMBOL_LEVEL

     1490    10323    2       IF ERROR_IN_REPLACE THEN

  10323 26 001034   200031 234100                    SZN     ERROR_IN_REPLACE,,AUTO
        26 001035   001070 605000 26                 TPL     s:10341

     1491    10324    2         CALL Z8EL$DELETE_REPLACE_LEVEL(CURRENT_SYMBOL_LEVEL+1);

  10324 26 001036   000000 235000 19                 LDA     CURRENT_SYMBOL_LEVEL
        26 001037   000001 035007                    ADLA    1,DL
        26 001040   200036 755100                    STA     ERROR_IN_COPY+4,,AUTO
        26 001041   200036 630500                    EPPR0   ERROR_IN_COPY+4,,AUTO
        26 001042   200037 450500                    STP0    ERROR_IN_COPY+5,,AUTO
        26 001043   200037 630500                    EPPR0   ERROR_IN_COPY+5,,AUTO
        26 001044   000005 631400 27                 EPPR1   5
        26 001045   000000 701000 xent               TSX1    Z8EL$DELETE_REPLACE_LEVEL
        26 001046   000000 011000                    NOP     0

     1492    10325    2     END;

  10325 26 001047   001070 710000 26                 TRA     s:10341

     1493    10326    1   ELSE
     1494    10327    1     IF LEX_SYMBOL.TYPE = %PERIOD THEN

  10327 26 001050   000001 235000 6                  LDA     LEX_SYMBOL+1
        26 001051   000014 115007                    CMPA    12,DL
        26 001052   001062 601000 26                 TNZ     s:10335

     1495    10328    2       DO;

     1496    10329    2         END_LINE = LEX_SYMBOL.END_LINE;
PL6.E3A0      #006=Z8EL$PROCESS_COPY File=Z8EL.:Z8A6TSI                          SAT 08/09/97 12:09 Page:351

  10329 26 001053   000006 236000 6                  LDQ     LEX_SYMBOL+6
        26 001054   200010 756100                    STQ     END_LINE,,AUTO

     1497    10330    2         END_COLUMN = LEX_SYMBOL.END_COLUMN;

  10330 26 001055   000007 235000 6                  LDA     LEX_SYMBOL+7
        26 001056   200011 755100                    STA     END_COLUMN,,AUTO

     1498    10331    2         END_LEVEL  = LEX_SYMBOL.LEVEL;

  10331 26 001057   000003 235000 6                  LDA     LEX_SYMBOL+3
        26 001060   200012 755100                    STA     END_LEVEL,,AUTO

     1499    10332    2       END;

  10332 26 001061   001070 710000 26                 TRA     s:10341

     1500    10333    1     ELSE
     1501    10334    2       DO;  /* ERROR */

     1502    10335    2         CALL Z8AE$ERROR (%E$COPY_PERIOD_EXPECTED,

  10335 26 001062   000026 630400 27                 EPPR0   22
        26 001063   000000 631400 27                 EPPR1   0
        26 001064   000000 701000 xent               TSX1    Z8AE$ERROR
        26 001065   000000 011000                    NOP     0

     1503    10336    2                          LEX_SYMBOL.LINE,
     1504    10337    2                          LEX_SYMBOL.COLUMN);
     1505    10338    2         ERROR_IN_REPLACE = TRUE;

  10338 26 001066   400000 236003                    LDQ     -131072,DU
        26 001067   200031 756100                    STQ     ERROR_IN_REPLACE,,AUTO

     1506    10339    2       END;

PL6.E3A0      #006=Z8EL$PROCESS_COPY File=Z8EL.:Z8A6TSI                          SAT 08/09/97 12:09 Page:352
     1507    10340
     1508    10341    1   IF NOT ERROR_IN_REPLACE  AND  NOT ERROR_IN_COPY  THEN    /*#34384*/

  10341 26 001070   200031 234100                    SZN     ERROR_IN_REPLACE,,AUTO
        26 001071   001365 604000 26                 TMI     s:10428
        26 001072   200032 234100                    SZN     ERROR_IN_COPY,,AUTO
        26 001073   001365 604000 26                 TMI     s:10428

     1509    10342    2     DO;

     1510    10343    2       CURRENT_LINE_LEVEL = END_LEVEL + 1;

  10343 26 001074   200012 235100                    LDA     END_LEVEL,,AUTO
        26 001075   000001 035007                    ADLA    1,DL
        26 001076   000000 755000 13                 STA     CURRENT_LINE_LEVEL

     1511    10344
     1512    10345    2       IF COPY_START_DEBUG THEN

  10345 26 001077   200007 234100                    SZN     COPY_START_DEBUG,,AUTO
        26 001100   001112 605000 26                 TPL     s:10354

     1513    10346    2         IF COPY_DEBUG_LEVEL = 0 THEN

  10346 26 001101   000000 236000 22                 LDQ     COPY_DEBUG_LEVEL
        26 001102   001105 601000 26                 TNZ     s:10349

     1514    10347    2           COPY_DEBUG_LEVEL = CURRENT_LINE_LEVEL;

  10347 26 001103   000000 755000 22                 STA     COPY_DEBUG_LEVEL
        26 001104   001112 710000 26                 TRA     s:10354

     1515    10348    2         ELSE
     1516    10349    2           COPY_DEBUG_LEVEL = MINIMUM (COPY_DEBUG_LEVEL,

  10349 26 001105   000000 236000 13                 LDQ     CURRENT_LINE_LEVEL
        26 001106   000000 116000 22                 CMPQ    COPY_DEBUG_LEVEL
PL6.E3A0      #006=Z8EL$PROCESS_COPY File=Z8EL.:Z8A6TSI                          SAT 08/09/97 12:09 Page:353
        26 001107   001111 604400 26                 TMOZ    s:10349+4
        26 001110   000000 236000 22                 LDQ     COPY_DEBUG_LEVEL
        26 001111   000000 756000 22                 STQ     COPY_DEBUG_LEVEL

     1517    10350    2                                       CURRENT_LINE_LEVEL);
     1518    10351
     1519    10352            /* Check for trailing tokens on same line as COPY */
     1520    10353
     1521    10354    2       L$ = ADDR(NIL);

  10354 26 001112   000006 236000 27                 LDQ     6
        26 001113   200013 756100                    STQ     L$,,AUTO

     1522    10355    2       CALL Z8EL$POSITION_LINE_LIST(END_LINE, L$, COPY_START_LINE + 1);

  10355 26 001114   200005 235100                    LDA     COPY_START_LINE,,AUTO
        26 001115   000001 035007                    ADLA    1,DL
        26 001116   200036 755100                    STA     ERROR_IN_COPY+4,,AUTO
        26 001117   200036 630500                    EPPR0   ERROR_IN_COPY+4,,AUTO
        26 001120   200041 450500                    STP0    ERROR_IN_COPY+7,,AUTO
        26 001121   200013 631500                    EPPR1   L$,,AUTO
        26 001122   200040 451500                    STP1    ERROR_IN_COPY+6,,AUTO
        26 001123   200010 633500                    EPPR3   END_LINE,,AUTO
        26 001124   200037 453500                    STP3    ERROR_IN_COPY+5,,AUTO
        26 001125   200037 630500                    EPPR0   ERROR_IN_COPY+5,,AUTO
        26 001126   000000 631400 27                 EPPR1   0
        26 001127   000000 701000 xent               TSX1    Z8EL$POSITION_LINE_LIST
        26 001130   000000 011000                    NOP     0

     1523    10356
     1524    10357    2       IF SUBSTR(L$ -> FILL_BUFFER.SOURCE_LINE,

  10357 26 001131   200013 470500                    LDP0    L$,,AUTO
        26 001132   000012 720100                    LXL0    10,,PR0
        26 001133   000123 236000 xsym               LDQ     O1COM+83
        26 001134   000012 116100                    CMPQ    10,,PR0
        26 001135   001137 604400 26                 TMOZ    s:10357+6
PL6.E3A0      #006=Z8EL$PROCESS_COPY File=Z8EL.:Z8A6TSI                          SAT 08/09/97 12:09 Page:354
        26 001136   000012 236100                    LDQ     10,,PR0
        26 001137   200011 136100                    SBLQ    END_COLUMN,,AUTO
        26 001140   000000 621006                    EAX1    0,QL
        26 001141   200011 235100                    LDA     END_COLUMN,,AUTO
        26 001142   040000 106545                    CMPC    fill='040'O
        26 001143   000013 000011                    ADSC9   11,A,PR0                 cn=0,n=*X1
        26 001144   000011 000001 27                 ADSC9   9                        cn=0,n=1
        26 001145   001321 600000 26                 TZE     s:10412

     1525    10358    2                 END_COLUMN,
     1526    10359    2                 MINIMUM (L$ -> FILL_BUFFER.LINE_LENGTH,
     1527    10360    2                          O1COM.MARGIN_R) - END_COLUMN) ~= ' ' THEN
     1528    10361    3         DO;

     1529    10362                %NEW_HEAP (@POINTER = TL$,
     1530    10363                           @SIZE = %MAX_INPUT_BUFFER_LEN);

  10365 26 001146   000032 236000 27                 LDQ     26
        26 001147   200037 756100                    STQ     ERROR_IN_COPY+5,,AUTO
        26 001150   200014 631500                    EPPR1   TL$,,AUTO
        26 001151   200036 451500                    STP1    ERROR_IN_COPY+4,,AUTO
        26 001152   200036 630500                    EPPR0   ERROR_IN_COPY+4,,AUTO
        26 001153   000013 631400 27                 EPPR1   11
        26 001154   000000 701000 xent               TSX1    Z8ED$NEW_HEAP
        26 001155   000000 011000                    NOP     0

     1531    10368    3           TL$ -> FILL_BUFFER.LINE_LENGTH = L$ -> FILL_BUFFER.LINE_LENGTH;

  10368 26 001156   200013 470500                    LDP0    L$,,AUTO
        26 001157   200014 471500                    LDP1    TL$,,AUTO
        26 001160   000012 235100                    LDA     10,,PR0
        26 001161   100012 755100                    STA     10,,PR1

     1532    10369    3           TL$ -> FILL_BUFFER = L$ -> FILL_BUFFER;

  10369 26 001162   200014 470500                    LDP0    TL$,,AUTO
        26 001163   000012 720100                    LXL0    10,,PR0
PL6.E3A0      #006=Z8EL$PROCESS_COPY File=Z8EL.:Z8A6TSI                          SAT 08/09/97 12:09 Page:355
        26 001164   000054 621010                    EAX1    44,X0
        26 001165   200013 471500                    LDP1    L$,,AUTO
        26 001166   100012 722100                    LXL2    10,,PR1
        26 001167   000054 623012                    EAX3    44,X2
        26 001170   000140 100540                    MLR     fill='000'O
        26 001171   100000 000013                    ADSC9   0,,PR1                   cn=0,n=*X3
        26 001172   000000 000011                    ADSC9   0,,PR0                   cn=0,n=*X1

     1533    10370    3           TL$ -> FILL_BUFFER.ESN = ' ';

  10370 26 001173   200014 470500                    LDP0    TL$,,AUTO
        26 001174   040100 100400                    MLR     fill='040'O
        26 001175   000011 000001 27                 ADSC9   9                        cn=0,n=1
        26 001176   000005 000012                    ADSC9   5,,PR0                   cn=0,n=10

     1534    10371    3           TL$ -> FILL_BUFFER.COLUMN = O1COM.AREA_A_COLUMN_START ;

  10371 26 001177   200014 470500                    LDP0    TL$,,AUTO
        26 001200   000122 235000 xsym               LDA     O1COM+82
        26 001201   000000 755100                    STA     0,,PR0

     1535    10372    3           TL$ -> FILL_BUFFER.CLASS  = %SPACE;

  10372 26 001202   000042 235007                    LDA     34,DL
        26 001203   200014 470500                    LDP0    TL$,,AUTO
        26 001204   000010 755100                    STA     8,,PR0

     1536    10373    3           TL$ -> FILL_BUFFER.LINE_TYPE.COPY_REPL_LINE = FALSE;

  10373 26 001205   200014 470500                    LDP0    TL$,,AUTO
        26 001206   000012 236000 27                 LDQ     10
        26 001207   000011 356100                    ANSQ    9,,PR0

     1537    10374    3           TL$ -> FILL_BUFFER.LINE_TYPE.SPLIT_C_R_LINE = FALSE;

  10374 26 001210   200014 470500                    LDP0    TL$,,AUTO
        26 001211   000033 236000 27                 LDQ     27
PL6.E3A0      #006=Z8EL$PROCESS_COPY File=Z8EL.:Z8A6TSI                          SAT 08/09/97 12:09 Page:356
        26 001212   000011 356100                    ANSQ    9,,PR0

     1538    10375    3           SUBSTR(TL$ -> FILL_BUFFER.SOURCE_LINE,

  10375 26 001213   200014 470500                    LDP0    TL$,,AUTO
        26 001214   000012 720100                    LXL0    10,,PR0
        26 001215   200011 236100                    LDQ     END_COLUMN,,AUTO
        26 001216   000122 136000 xsym               SBLQ    O1COM+82
        26 001217   000000 621006                    EAX1    0,QL
        26 001220   000122 236000 xsym               LDQ     O1COM+82
        26 001221   040146 100400                    MLR     fill='040'O
        26 001222   000011 000001 27                 ADSC9   9                        cn=0,n=1
        26 001223   000013 000011                    ADSC9   11,Q,PR0                 cn=0,n=*X1

     1539    10376    3                  O1COM.AREA_A_COLUMN_START,
     1540    10377    3                  END_COLUMN - O1COM.AREA_A_COLUMN_START) = ' ';
     1541    10378
     1542    10379    3           IF SUBSTR(TL$ -> FILL_BUFFER.SOURCE_LINE,

  10379 26 001224   200014 470500                    LDP0    TL$,,AUTO
        26 001225   000012 720100                    LXL0    10,,PR0
        26 001226   000122 236000 xsym               LDQ     O1COM+82
        26 001227   040000 106506                    CMPC    fill='040'O
        26 001230   000012 600001                    ADSC9   10,Q,PR0                 cn=3,n=1
        26 001231   000034 000001 27                 ADSC9   28                       cn=0,n=1
        26 001232   001236 601000 26                 TNZ     s:10386

     1543    10380    3                     O1COM.AREA_A_COLUMN_START - 1,
     1544    10381    3                     1) = '-' THEN
     1545    10382    3             SUBSTR(TL$ -> FILL_BUFFER.SOURCE_LINE,

  10382 26 001233   040106 100400                    MLR     fill='040'O
        26 001234   000011 000001 27                 ADSC9   9                        cn=0,n=1
        26 001235   000012 600001                    ADSC9   10,Q,PR0                 cn=3,n=1

     1546    10383    3                    O1COM.AREA_A_COLUMN_START - 1,
     1547    10384    3                    1) = ' ';
PL6.E3A0      #006=Z8EL$PROCESS_COPY File=Z8EL.:Z8A6TSI                          SAT 08/09/97 12:09 Page:357
     1548    10385
     1549    10386    3           L$ -> FILL_BUFFER.NEXT$ = TL$;

  10386 26 001236   200014 236100                    LDQ     TL$,,AUTO
        26 001237   200013 470500                    LDP0    L$,,AUTO
        26 001240   000002 756100                    STQ     2,,PR0

     1550    10387    3           SUBSTR(L$ -> FILL_BUFFER.SOURCE_LINE,

  10387 26 001241   200013 470500                    LDP0    L$,,AUTO
        26 001242   000012 720100                    LXL0    10,,PR0
        26 001243   000123 236000 xsym               LDQ     O1COM+83
        26 001244   000012 116100                    CMPQ    10,,PR0
        26 001245   001247 604400 26                 TMOZ    s:10387+6
        26 001246   000012 236100                    LDQ     10,,PR0
        26 001247   200011 136100                    SBLQ    END_COLUMN,,AUTO
        26 001250   000000 621006                    EAX1    0,QL
        26 001251   200011 236100                    LDQ     END_COLUMN,,AUTO
        26 001252   040146 100400                    MLR     fill='040'O
        26 001253   000011 000001 27                 ADSC9   9                        cn=0,n=1
        26 001254   000013 000011                    ADSC9   11,Q,PR0                 cn=0,n=*X1

     1551    10388    3                  END_COLUMN,
     1552    10389    3                  MINIMUM (L$ -> FILL_BUFFER.LINE_LENGTH,
     1553    10390    3                           O1COM.MARGIN_R) - END_COLUMN) = ' ';
     1554    10391
     1555    10392                /* Clear previously processed tokens */
     1556    10393    3           SCANNER_STATE = 0;

  10393 26 001255   000000 450000 10                 STZ     SCANNER_STATE

     1557    10394    3           CURRENT_BUFFER$ = L$;

  10394 26 001256   200013 236100                    LDQ     L$,,AUTO
        26 001257   000000 756000 11                 STQ     CURRENT_BUFFER$

     1558    10395    3           EXPANDED_ISN = END_LINE;
PL6.E3A0      #006=Z8EL$PROCESS_COPY File=Z8EL.:Z8A6TSI                          SAT 08/09/97 12:09 Page:358

  10395 26 001260   200010 235100                    LDA     END_LINE,,AUTO
        26 001261   000000 755000 17                 STA     EXPANDED_ISN

     1559    10396    3           BUFFER.COLUMN = BUFFER.LINE_LENGTH;

  10396 26 001262   000005 235000 15                 LDA     BUFFER+5
        26 001263   000000 755000 15                 STA     BUFFER

     1560    10397
     1561    10398    4           DO WHILE LEX_SYMBOL_QUEUE$ ~= ADDR(NIL)

  10398 26 001264   001312 710000 26                 TRA     s:10409

     1562    10399    4                AND LEX_SYMBOL_QUEUE$ -> BASED_LEX_SYMBOL.LINE >= END_LINE;
     1563    10400
     1564    10401    4             TL$ = LEX_SYMBOL_QUEUE$;

  10401 26 001265   000000 236000 24                 LDQ     LEX_SYMBOL_QUEUE$
        26 001266   200014 756100                    STQ     TL$,,AUTO

     1565    10402    4             LEX_SYMBOL_QUEUE$ = LEX_SYMBOL_QUEUE$ -> BASED_LEX_SYMBOL.NEXT$;

  10402 26 001267   000000 470400 24                 LDP0    LEX_SYMBOL_QUEUE$
        26 001270   000000 236100                    LDQ     0,,PR0
        26 001271   000000 756000 24                 STQ     LEX_SYMBOL_QUEUE$

     1566    10403
     1567    10404    4             CALL Z8ED$DISPOSE_HEAP (TL$,

  10404 26 001272   200014 470500                    LDP0    TL$,,AUTO
        26 001273   000010 720100                    LXL0    8,,PR0
        26 001274   000044 621010                    EAX1    36,X0
        26 001275   000000 636011                    EAQ     0,X1
        26 001276   000022 732000                    QRS     18
        26 001277   000003 036007                    ADLQ    3,DL
        26 001300   000004 506007                    DIV     4,DL
PL6.E3A0      #006=Z8EL$PROCESS_COPY File=Z8EL.:Z8A6TSI                          SAT 08/09/97 12:09 Page:359
        26 001301   200036 756100                    STQ     ERROR_IN_COPY+4,,AUTO
        26 001302   200036 631500                    EPPR1   ERROR_IN_COPY+4,,AUTO
        26 001303   200041 451500                    STP1    ERROR_IN_COPY+7,,AUTO
        26 001304   200014 633500                    EPPR3   TL$,,AUTO
        26 001305   200040 453500                    STP3    ERROR_IN_COPY+6,,AUTO
        26 001306   200040 630500                    EPPR0   ERROR_IN_COPY+6,,AUTO
        26 001307   000013 631400 27                 EPPR1   11
        26 001310   000000 701000 xent               TSX1    Z8ED$DISPOSE_HEAP
        26 001311   000000 011000                    NOP     0

     1568    10405                                          %LEX_SYMBOL_ACTUAL_WORD_LEN (S$ = TL$);
     1569    10408    4                                    );
     1570    10409    4           END;

  10409 26 001312   000000 236000 24                 LDQ     LEX_SYMBOL_QUEUE$
        26 001313   000006 116000 27                 CMPQ    6
        26 001314   001321 600000 26                 TZE     s:10412
        26 001315   000000 470400 24                 LDP0    LEX_SYMBOL_QUEUE$
        26 001316   000004 236100                    LDQ     4,,PR0
        26 001317   200010 116100                    CMPQ    END_LINE,,AUTO
        26 001320   001265 605000 26                 TPL     s:10401

     1571    10410    3         END;

     1572    10411
     1573    10412    2       IF COPY_LIBRARY_NAME$ ~= ADDR(NIL) THEN

  10412 26 001321   200016 236100                    LDQ     COPY_LIBRARY_NAME$,,AUTO
        26 001322   000006 116000 27                 CMPQ    6
        26 001323   001351 600000 26                 TZE     s:10422

     1574    10413    3         DO;

     1575    10414    3           CALL Z9AA$OPEN_COPY_FILE (COPY_FILE_NAME$ -> BASED_LEX_SYMBOL.SYMBOL,

  10414 26 001324   200017 470500                    LDP0    COPY_LIBRARY_DNT$,,AUTO
        26 001325   000004 236100                    LDQ     4,,PR0
PL6.E3A0      #006=Z8EL$PROCESS_COPY File=Z8EL.:Z8A6TSI                          SAT 08/09/97 12:09 Page:360
        26 001326   000022 772000                    QRL     18
        26 001327   200036 756100                    STQ     ERROR_IN_COPY+4,,AUTO
        26 001330   200036 631500                    EPPR1   ERROR_IN_COPY+4,,AUTO
        26 001331   200044 451500                    STP1    ERROR_IN_COPY+10,,AUTO
        26 001332   200017 236100                    LDQ     COPY_LIBRARY_DNT$,,AUTO
        26 001333   000036 036000 27                 ADLQ    30
        26 001334   000037 235000 27                 LDA     31
        26 001335   200042 757100                    STAQ    ERROR_IN_COPY+8,,AUTO
        26 001336   200015 236100                    LDQ     COPY_FILE_NAME$,,AUTO
        26 001337   000010 036003                    ADLQ    8,DU
        26 001340   200041 756100                    STQ     ERROR_IN_COPY+7,,AUTO
        26 001341   200015 236100                    LDQ     COPY_FILE_NAME$,,AUTO
        26 001342   000011 036003                    ADLQ    9,DU
        26 001343   200040 756100                    STQ     ERROR_IN_COPY+6,,AUTO
        26 001344   200040 630500                    EPPR0   ERROR_IN_COPY+6,,AUTO
        26 001345   000035 631400 27                 EPPR1   29
        26 001346   000000 701000 xent               TSX1    Z9AA$OPEN_COPY_FILE
        26 001347   000000 011000                    NOP     0

     1576    10415    3                                     COPY_FILE_NAME$ -> BASED_LEX_SYMBOL.SIZE,
     1577    10416    3                                     CURRENT_LINE_LEVEL,
     1578    10417    3                                     COPY_LIBRARY_DNT$ -> DNT.TEXT.NAME,
     1579    10418    3                                     BINBIT(COPY_LIBRARY_DNT$ -> DNT.TEXT.LENGTH,36));
     1580    10419    3         END;

  10419 26 001350   001365 710000 26                 TRA     s:10428

     1581    10420    2       ELSE
     1582    10421    3         DO;

     1583    10422    3           CALL Z9AA$OPEN_COPY_FILE (COPY_FILE_NAME$ -> BASED_LEX_SYMBOL.SYMBOL,

  10422 26 001351   000037 236000 27                 LDQ     31
        26 001352   200040 756100                    STQ     ERROR_IN_COPY+6,,AUTO
        26 001353   200015 236100                    LDQ     COPY_FILE_NAME$,,AUTO
        26 001354   000010 036003                    ADLQ    8,DU
        26 001355   200037 756100                    STQ     ERROR_IN_COPY+5,,AUTO
PL6.E3A0      #006=Z8EL$PROCESS_COPY File=Z8EL.:Z8A6TSI                          SAT 08/09/97 12:09 Page:361
        26 001356   200015 236100                    LDQ     COPY_FILE_NAME$,,AUTO
        26 001357   000011 036003                    ADLQ    9,DU
        26 001360   200036 756100                    STQ     ERROR_IN_COPY+4,,AUTO
        26 001361   200036 630500                    EPPR0   ERROR_IN_COPY+4,,AUTO
        26 001362   000000 631400 27                 EPPR1   0
        26 001363   000000 701000 xent               TSX1    Z9AA$OPEN_COPY_FILE
        26 001364   000000 011000                    NOP     0

     1584    10423    3                                     COPY_FILE_NAME$ -> BASED_LEX_SYMBOL.SIZE,
     1585    10424    3                                     CURRENT_LINE_LEVEL);
     1586    10425    3         END;

     1587    10426    2     END;

     1588    10427
     1589    10428    1   CALL Z8ED$DISPOSE_HEAP(COPY_FILE_NAME$,

  10428 26 001365   200015 470500                    LDP0    COPY_FILE_NAME$,,AUTO
        26 001366   000010 720100                    LXL0    8,,PR0
        26 001367   000044 621010                    EAX1    36,X0
        26 001370   000000 636011                    EAQ     0,X1
        26 001371   000022 732000                    QRS     18
        26 001372   000003 036007                    ADLQ    3,DL
        26 001373   000004 506007                    DIV     4,DL
        26 001374   200036 756100                    STQ     ERROR_IN_COPY+4,,AUTO
        26 001375   200036 631500                    EPPR1   ERROR_IN_COPY+4,,AUTO
        26 001376   200041 451500                    STP1    ERROR_IN_COPY+7,,AUTO
        26 001377   200015 633500                    EPPR3   COPY_FILE_NAME$,,AUTO
        26 001400   200040 453500                    STP3    ERROR_IN_COPY+6,,AUTO
        26 001401   200040 630500                    EPPR0   ERROR_IN_COPY+6,,AUTO
        26 001402   000013 631400 27                 EPPR1   11
        26 001403   000000 701000 xent               TSX1    Z8ED$DISPOSE_HEAP
        26 001404   000000 011000                    NOP     0

     1590    10429                    %LEX_SYMBOL_ACTUAL_WORD_LEN (S$=COPY_FILE_NAME$);
     1591    10432    1               );
     1592    10433
PL6.E3A0      #006=Z8EL$PROCESS_COPY File=Z8EL.:Z8A6TSI                          SAT 08/09/97 12:09 Page:362
     1593    10434    1   IF COPY_LIBRARY_NAME$ ~= ADDR(NIL) THEN

  10434 26 001405   200016 236100                    LDQ     COPY_LIBRARY_NAME$,,AUTO
        26 001406   000006 116000 27                 CMPQ    6
        26 001407   001430 600000 26                 TZE     s:10442

     1594    10435    1     CALL Z8ED$DISPOSE_HEAP(COPY_LIBRARY_NAME$,

  10435 26 001410   200016 470500                    LDP0    COPY_LIBRARY_NAME$,,AUTO
        26 001411   000010 720100                    LXL0    8,,PR0
        26 001412   000044 621010                    EAX1    36,X0
        26 001413   000000 636011                    EAQ     0,X1
        26 001414   000022 732000                    QRS     18
        26 001415   000003 036007                    ADLQ    3,DL
        26 001416   000004 506007                    DIV     4,DL
        26 001417   200036 756100                    STQ     ERROR_IN_COPY+4,,AUTO
        26 001420   200036 631500                    EPPR1   ERROR_IN_COPY+4,,AUTO
        26 001421   200041 451500                    STP1    ERROR_IN_COPY+7,,AUTO
        26 001422   200016 633500                    EPPR3   COPY_LIBRARY_NAME$,,AUTO
        26 001423   200040 453500                    STP3    ERROR_IN_COPY+6,,AUTO
        26 001424   200040 630500                    EPPR0   ERROR_IN_COPY+6,,AUTO
        26 001425   000013 631400 27                 EPPR1   11
        26 001426   000000 701000 xent               TSX1    Z8ED$DISPOSE_HEAP
        26 001427   000000 011000                    NOP     0

     1595    10436                    %LEX_SYMBOL_ACTUAL_WORD_LEN(S$=COPY_LIBRARY_NAME$);
     1596    10439    1               );
     1597    10440
     1598    10441
     1599    10442    1   RETURN;

  10442 26 001430   000000 702200 xent               TSX2  ! X66_ARET

     1600    10443        %EJECT;
PL6.E3A0      #006=Z8EL$PROCESS_COPY File=Z8EL.:Z8A6TSI                          SAT 08/09/97 12:09 Page:363
     1601    10444        /*----------*/
     1602    10445    1     COPY_ERROR : PROC;

  10445 26 001431   200034 741300       COPY_ERROR   STX1  ! ERROR_IN_COPY+2,,AUTO

     1603    10446        /*----------*/
     1604    10447
     1605    10448
     1606    10449    2   CALL Z8AE$ERROR( %E$INTERNAL_COPY,

  10449 26 001432   000041 630400 27                 EPPR0   33
        26 001433   000000 631400 27                 EPPR1   0
        26 001434   000000 701000 xent               TSX1    Z8AE$ERROR
        26 001435   000000 011000                    NOP     0

     1607    10450    2                    LEX_SYMBOL.LINE,
     1608    10451    2                    LEX_SYMBOL.COLUMN );
     1609    10452
     1610    10453        %PARSE_A_TOKEN;                      /* FILE NAME */

  10457 26 001436   000000 236000 24                 LDQ     LEX_SYMBOL_QUEUE$
        26 001437   000006 116000 27                 CMPQ    6
        26 001440   001476 600000 26                 TZE     s:10480

  10463 26 001441   000000 470400 24                 LDP0    LEX_SYMBOL_QUEUE$
        26 001442   000010 235100                    LDA     8,,PR0
        26 001443   000010 755000 6                  STA     LEX_SYMBOL+8

  10464 26 001444   000010 720100                    LXL0    8,,PR0
        26 001445   000044 621010                    EAX1    36,X0
        26 001446   000044 622005                    EAX2    36,AL
        26 001447   000040 100540                    MLR     fill='000'O
        26 001450   000000 000011                    ADSC9   0,,PR0                   cn=0,n=*X1
        26 001451   000000 000012 6                  ADSC9   LEX_SYMBOL               cn=0,n=*X2

  10467 26 001452   000010 720100                    LXL0    8,,PR0
        26 001453   000044 621010                    EAX1    36,X0
PL6.E3A0      #006=Z8EL$PROCESS_COPY File=Z8EL.:Z8A6TSI                          SAT 08/09/97 12:09 Page:364
        26 001454   000000 636011                    EAQ     0,X1
        26 001455   000022 732000                    QRS     18
        26 001456   000003 036007                    ADLQ    3,DL
        26 001457   000004 506007                    DIV     4,DL
        26 001460   200036 756100                    STQ     ERROR_IN_COPY+4,,AUTO
        26 001461   200036 631500                    EPPR1   ERROR_IN_COPY+4,,AUTO
        26 001462   200041 451500                    STP1    ERROR_IN_COPY+7,,AUTO
        26 001463   000014 236000 27                 LDQ     12
        26 001464   200040 756100                    STQ     ERROR_IN_COPY+6,,AUTO
        26 001465   200040 630500                    EPPR0   ERROR_IN_COPY+6,,AUTO
        26 001466   000013 631400 27                 EPPR1   11
        26 001467   000000 701000 xent               TSX1    Z8ED$DISPOSE_HEAP
        26 001470   000000 011000                    NOP     0

  10472 26 001471   000000 236000 6                  LDQ     LEX_SYMBOL
        26 001472   000000 756000 24                 STQ     LEX_SYMBOL_QUEUE$

  10473 26 001473   000006 236000 27                 LDQ     6
        26 001474   000000 756000 6                  STQ     LEX_SYMBOL

  10474 26 001475   001525 710000 26                 TRA     s:10495

  10480 26 001476   000015 631400 27                 EPPR1   13
        26 001477   000000 701000 xent               TSX1    Z8ES$SCANNER
        26 001500   000000 011000                    NOP     0

  10481 26 001501   000001 235000 6                  LDA     LEX_SYMBOL+1
        26 001502   001513 601000 26                 TNZ     s:10487

  10482 26 001503   000015 631400 27                 EPPR1   13
        26 001504   000000 701000 xent               TSX1    Z8EL$GET_NEXT_SCANNER_LINE
        26 001505   000000 011000                    NOP     0

  10483 26 001506   000015 631400 27                 EPPR1   13
        26 001507   000000 701000 xent               TSX1    Z8ES$SCANNER
        26 001510   000000 011000                    NOP     0

PL6.E3A0      #006=Z8EL$PROCESS_COPY File=Z8EL.:Z8A6TSI                          SAT 08/09/97 12:09 Page:365
  10484 26 001511   000001 235000 6                  LDA     LEX_SYMBOL+1
        26 001512   001503 600000 26                 TZE     s:10482

  10487 26 001513   000003 236000 6                  LDQ     LEX_SYMBOL+3
        26 001514   000000 116000 19                 CMPQ    CURRENT_SYMBOL_LEVEL
        26 001515   001525 600000 26                 TZE     s:10495
        26 001516   000002 236000 6                  LDQ     LEX_SYMBOL+2
        26 001517   200000 316003                    CANQ    65536,DU
        26 001520   001525 601000 26                 TNZ     s:10495

  10489 26 001521   000016 630400 27                 EPPR0   14
        26 001522   000005 631400 27                 EPPR1   5
        26 001523   000000 701000 xent               TSX1    Z8EL$HANDLE_LEVEL_CHANGE
        26 001524   000000 011000                    NOP     0

  10495 26 001525   000004 235000 6                  LDA     LEX_SYMBOL+4
        26 001526   000133 755000 xsym               STA     COMCOM+91

  10496 26 001527   000005 236000 6                  LDQ     LEX_SYMBOL+5
        26 001530   000134 756000 xsym               STQ     COMCOM+92

     1611    10501
     1612    10502    3   DO WHILE LEX_SYMBOL.TYPE ~= %PERIOD;

  10502 26 001531   000001 235000 6                  LDA     LEX_SYMBOL+1
        26 001532   000014 115007                    CMPA    12,DL
        26 001533   001626 600000 26                 TZE     s:10543

     1613    10503          %GET_A_TOKEN;

  10505 26 001534   000000 236000 24                 LDQ     LEX_SYMBOL_QUEUE$
        26 001535   000006 116000 27                 CMPQ    6
        26 001536   001574 600000 26                 TZE     s:10528

  10511 26 001537   000000 470400 24                 LDP0    LEX_SYMBOL_QUEUE$
        26 001540   000010 235100                    LDA     8,,PR0
        26 001541   000010 755000 6                  STA     LEX_SYMBOL+8
PL6.E3A0      #006=Z8EL$PROCESS_COPY File=Z8EL.:Z8A6TSI                          SAT 08/09/97 12:09 Page:366

  10512 26 001542   000010 720100                    LXL0    8,,PR0
        26 001543   000044 621010                    EAX1    36,X0
        26 001544   000044 622005                    EAX2    36,AL
        26 001545   000040 100540                    MLR     fill='000'O
        26 001546   000000 000011                    ADSC9   0,,PR0                   cn=0,n=*X1
        26 001547   000000 000012 6                  ADSC9   LEX_SYMBOL               cn=0,n=*X2

  10515 26 001550   000010 720100                    LXL0    8,,PR0
        26 001551   000044 621010                    EAX1    36,X0
        26 001552   000000 636011                    EAQ     0,X1
        26 001553   000022 732000                    QRS     18
        26 001554   000003 036007                    ADLQ    3,DL
        26 001555   000004 506007                    DIV     4,DL
        26 001556   200036 756100                    STQ     ERROR_IN_COPY+4,,AUTO
        26 001557   200036 631500                    EPPR1   ERROR_IN_COPY+4,,AUTO
        26 001560   200041 451500                    STP1    ERROR_IN_COPY+7,,AUTO
        26 001561   000014 236000 27                 LDQ     12
        26 001562   200040 756100                    STQ     ERROR_IN_COPY+6,,AUTO
        26 001563   200040 630500                    EPPR0   ERROR_IN_COPY+6,,AUTO
        26 001564   000013 631400 27                 EPPR1   11
        26 001565   000000 701000 xent               TSX1    Z8ED$DISPOSE_HEAP
        26 001566   000000 011000                    NOP     0

  10520 26 001567   000000 236000 6                  LDQ     LEX_SYMBOL
        26 001570   000000 756000 24                 STQ     LEX_SYMBOL_QUEUE$

  10521 26 001571   000006 236000 27                 LDQ     6
        26 001572   000000 756000 6                  STQ     LEX_SYMBOL

  10522 26 001573   001623 710000 26                 TRA     s:10541

  10528 26 001574   000015 631400 27                 EPPR1   13
        26 001575   000000 701000 xent               TSX1    Z8ES$SCANNER
        26 001576   000000 011000                    NOP     0

  10529 26 001577   000001 235000 6                  LDA     LEX_SYMBOL+1
PL6.E3A0      #006=Z8EL$PROCESS_COPY File=Z8EL.:Z8A6TSI                          SAT 08/09/97 12:09 Page:367
        26 001600   001611 601000 26                 TNZ     s:10535

  10530 26 001601   000015 631400 27                 EPPR1   13
        26 001602   000000 701000 xent               TSX1    Z8EL$GET_NEXT_SCANNER_LINE
        26 001603   000000 011000                    NOP     0

  10531 26 001604   000015 631400 27                 EPPR1   13
        26 001605   000000 701000 xent               TSX1    Z8ES$SCANNER
        26 001606   000000 011000                    NOP     0

  10532 26 001607   000001 235000 6                  LDA     LEX_SYMBOL+1
        26 001610   001601 600000 26                 TZE     s:10530

  10535 26 001611   000003 236000 6                  LDQ     LEX_SYMBOL+3
        26 001612   000000 116000 19                 CMPQ    CURRENT_SYMBOL_LEVEL
        26 001613   001623 600000 26                 TZE     s:10541
        26 001614   000002 236000 6                  LDQ     LEX_SYMBOL+2
        26 001615   200000 316003                    CANQ    65536,DU
        26 001616   001623 601000 26                 TNZ     s:10541

  10537 26 001617   000016 630400 27                 EPPR0   14
        26 001620   000005 631400 27                 EPPR1   5
        26 001621   000000 701000 xent               TSX1    Z8EL$HANDLE_LEVEL_CHANGE
        26 001622   000000 011000                    NOP     0

     1614    10541    3   END;

  10541 26 001623   000001 235000 6                  LDA     LEX_SYMBOL+1
        26 001624   000014 115007                    CMPA    12,DL
        26 001625   001534 601000 26                 TNZ     s:10505

     1615    10542
     1616    10543    2   END COPY_ERROR;

  10543 26 001626   200034 221300                    LDX1  ! ERROR_IN_COPY+2,,AUTO
        26 001627   000001 702211                    TSX2  ! 1,X1
     1617    10544    1   END Z8EL$PROCESS_COPY;
PL6.E3A0      #006=Z8EL$PROCESS_COPY File=Z8EL.:Z8A6TSI                          SAT 08/09/97 12:09 Page:368
     1618    10545
     1619    10546        %EOD;

PL6.E3A0      #006=Z8EL$PROCESS_COPY File=Z8EL.:Z8A6TSI                          SAT 08/09/97 12:09 Page:369
--  Include file information  --

   Z8E_O1COM.:Z8A6TOU  cannot be made into a system file and is referenced.
   Z8A_TYPES.:Z8A6TOU  is referenced.
   Z8E_REPLACE.:Z8A6TOU  cannot be made into a system file and is referenced.
   Z8E_WINDOW.:Z8A6TOU  is referenced.
   Z8E_BUFFERS.:Z8A6TOU  cannot be made into a system file and is referenced.
   Z8A_LEX_SYMB.:Z8A6TOU  cannot be made into a system file and is referenced.
   Z8E_STACKS.:Z8A6TOU  cannot be made into a system file and is referenced.
   Z8E_HEAP.:Z8A6TOU  cannot be made into a system file and is referenced.
   Z8A_COMCOM.:Z8A6TOU  cannot be made into a system file and is referenced.
   Z8A_DNT.:Z8A6TOU  cannot be made into a system file and is referenced.
   Z8A_ERR_NUMS.:Z8A6TOU  is referenced.
   X8A_COM_MACS.:X8A6TOU  is referenced.
   Z8A_NAMES.:Z8A6TOU  is referenced.
   Z8A_SUPP_MAC.:Z8A6TOU  is referenced.
   Z8A_DEFC.:Z8A6TOU  cannot be made into a system file and is referenced.
      No diagnostics issued in procedure Z8EL$PROCESS_COPY.
PL6.E3A0      #006=Z8EL$PROCESS_COPY File=Z8EL.:Z8A6TSI                          SAT 08/09/97 12:09 Page:370

 **** Variables and constants ****

  ****  Section 000 LblCom ITERATION

  ****  Scalars and arrays  ****
OctLoc.c.b A Datatyp(siz) R M Lvl/name                 OctLoc.c.b A Datatyp(siz) R M Lvl/name

     0-0-0/w SBIN              1 ITERATION

  ****  Section 001 LblCom DNT$

  ****  Scalars and arrays  ****
OctLoc.c.b A Datatyp(siz) R M Lvl/name                 OctLoc.c.b A Datatyp(siz) R M Lvl/name

     0-0-0/w PTR         r     1 DNT$

  ****  Section 002 LblCom DNT_

  ****  Scalars and arrays  ****
OctLoc.c.b A Datatyp(siz) R M Lvl/name                 OctLoc.c.b A Datatyp(siz) R M Lvl/name

     0-0-0/w STRC(180)         1 DNT_

  ****  Section 003 LblCom DNT_BUCKET_NUMBER

  ****  Scalars and arrays  ****
OctLoc.c.b A Datatyp(siz) R M Lvl/name                 OctLoc.c.b A Datatyp(siz) R M Lvl/name

     0-0-0/w UBIN              1 DNT_BUCKET_NUMBER

  ****  Section 004 LblCom DNT_OF_1$

  ****  Scalars and arrays  ****
OctLoc.c.b A Datatyp(siz) R M Lvl/name                 OctLoc.c.b A Datatyp(siz) R M Lvl/name

     0-0-0/w PTR               1 DNT_OF_1$

PL6.E3A0      #006=Z8EL$PROCESS_COPY File=Z8EL.:Z8A6TSI                          SAT 08/09/97 12:09 Page:371
  ****  Section 005 LblCom HEAP$

  ****  Scalars and arrays  ****
OctLoc.c.b A Datatyp(siz) R M Lvl/name                 OctLoc.c.b A Datatyp(siz) R M Lvl/name

     0-0-0/w PTR               1 HEAP$

  ****  Section 006 LblCom LEX_SYMBOL

  ****  Scalars and arrays  ****
OctLoc.c.b A Datatyp(siz) R M Lvl/name                 OctLoc.c.b A Datatyp(siz) R M Lvl/name

     0-0-0/w STRC(3240)  r     1 LEX_SYMBOL                 0-0-0/w STRC(3240)        1 LEX_SYMBOL_WORDS

  ****  Section 007 LblCom CURRENT_LEX_SYMBOL$

  ****  Scalars and arrays  ****
OctLoc.c.b A Datatyp(siz) R M Lvl/name                 OctLoc.c.b A Datatyp(siz) R M Lvl/name

     0-0-0/w PTR         r     1 CURRENT_LEX_SYMBOL$

  ****  Section 008 LblCom TEMP_LEX_SYMBOL

  ****  Scalars and arrays  ****
OctLoc.c.b A Datatyp(siz) R M Lvl/name                 OctLoc.c.b A Datatyp(siz) R M Lvl/name

     0-0-0/w STRC(3240)        1 TEMP_LEX_SYMBOL

  ****  Section 009 LblCom TEMP_LEX_SYMBOL2

  ****  Scalars and arrays  ****
OctLoc.c.b A Datatyp(siz) R M Lvl/name                 OctLoc.c.b A Datatyp(siz) R M Lvl/name

     0-0-0/w STRC(3240)        1 TEMP_LEX_SYMBOL2

  ****  Section 010 LblCom SCANNER_STATE

PL6.E3A0      #006=Z8EL$PROCESS_COPY File=Z8EL.:Z8A6TSI                          SAT 08/09/97 12:09 Page:372
  ****  Scalars and arrays  ****
OctLoc.c.b A Datatyp(siz) R M Lvl/name                 OctLoc.c.b A Datatyp(siz) R M Lvl/name

     0-0-0/w SBIN        r     1 SCANNER_STATE

  ****  Section 011 LblCom CURRENT_BUFFER$

  ****  Scalars and arrays  ****
OctLoc.c.b A Datatyp(siz) R M Lvl/name                 OctLoc.c.b A Datatyp(siz) R M Lvl/name

     0-0-0/w PTR         r     1 CURRENT_BUFFER$

  ****  Section 012 LblCom LOOKAHEAD_BUFFER$

  ****  Scalars and arrays  ****
OctLoc.c.b A Datatyp(siz) R M Lvl/name                 OctLoc.c.b A Datatyp(siz) R M Lvl/name

     0-0-0/w PTR         r     1 LOOKAHEAD_BUFFER$

  ****  Section 013 LblCom CURRENT_LINE_LEVEL

  ****  Scalars and arrays  ****
OctLoc.c.b A Datatyp(siz) R M Lvl/name                 OctLoc.c.b A Datatyp(siz) R M Lvl/name

     0-0-0/w SBIN        r     1 CURRENT_LINE_LEVEL

  ****  Section 014 LblCom LINE_LIST$

  ****  Scalars and arrays  ****
OctLoc.c.b A Datatyp(siz) R M Lvl/name                 OctLoc.c.b A Datatyp(siz) R M Lvl/name

     0-0-0/w PTR               1 LINE_LIST$

  ****  Section 015 LblCom BUFFER

  ****  Scalars and arrays  ****
OctLoc.c.b A Datatyp(siz) R M Lvl/name                 OctLoc.c.b A Datatyp(siz) R M Lvl/name
PL6.E3A0      #006=Z8EL$PROCESS_COPY File=Z8EL.:Z8A6TSI                          SAT 08/09/97 12:09 Page:373

     0-0-0/w STRC(252)   r     1 BUFFER

  ****  Section 016 LblCom ORIGINAL_ISN

  ****  Scalars and arrays  ****
OctLoc.c.b A Datatyp(siz) R M Lvl/name                 OctLoc.c.b A Datatyp(siz) R M Lvl/name

     0-0-0/w SBIN              1 ORIGINAL_ISN

  ****  Section 017 LblCom EXPANDED_ISN

  ****  Scalars and arrays  ****
OctLoc.c.b A Datatyp(siz) R M Lvl/name                 OctLoc.c.b A Datatyp(siz) R M Lvl/name

     0-0-0/w SBIN        r     1 EXPANDED_ISN

  ****  Section 018 LblCom ISN_FOR_EXP_SRC

  ****  Scalars and arrays  ****
OctLoc.c.b A Datatyp(siz) R M Lvl/name                 OctLoc.c.b A Datatyp(siz) R M Lvl/name

     0-0-0/w SBIN              1 ISN_FOR_EXP_SRC

  ****  Section 019 LblCom CURRENT_SYMBOL_LEVEL

  ****  Scalars and arrays  ****
OctLoc.c.b A Datatyp(siz) R M Lvl/name                 OctLoc.c.b A Datatyp(siz) R M Lvl/name

     0-0-0/w SBIN        r     1 CURRENT_SYMBOL_LEVEL

  ****  Section 020 LblCom REPLACE_ACTIVE

  ****  Scalars and arrays  ****
OctLoc.c.b A Datatyp(siz) R M Lvl/name                 OctLoc.c.b A Datatyp(siz) R M Lvl/name

     0-0-0/b BIT               1 REPLACE_ACTIVE
PL6.E3A0      #006=Z8EL$PROCESS_COPY File=Z8EL.:Z8A6TSI                          SAT 08/09/97 12:09 Page:374

  ****  Section 021 LblCom IGNORE_COPY_REPLACE

  ****  Scalars and arrays  ****
OctLoc.c.b A Datatyp(siz) R M Lvl/name                 OctLoc.c.b A Datatyp(siz) R M Lvl/name

     0-0-0/b BIT               1 IGNORE_COPY_REPLACE

  ****  Section 022 LblCom COPY_DEBUG_LEVEL

  ****  Scalars and arrays  ****
OctLoc.c.b A Datatyp(siz) R M Lvl/name                 OctLoc.c.b A Datatyp(siz) R M Lvl/name

     0-0-0/w SBIN        r     1 COPY_DEBUG_LEVEL

  ****  Section 023 LblCom REPLACE_LIST

  ****  Scalars and arrays  ****
OctLoc.c.b A Datatyp(siz) R M Lvl/name                 OctLoc.c.b A Datatyp(siz) R M Lvl/name

     0-0-0/w STRC(144)         1 REPLACE_LIST

  ****  Section 024 LblCom LEX_SYMBOL_QUEUE$

  ****  Scalars and arrays  ****
OctLoc.c.b A Datatyp(siz) R M Lvl/name                 OctLoc.c.b A Datatyp(siz) R M Lvl/name

     0-0-0/w PTR         r     1 LEX_SYMBOL_QUEUE$

  ****  Auto variables  ****

  ****  Scalars and arrays  ****
OctLoc.c.b A Datatyp(siz) R M Lvl/name                 OctLoc.c.b A Datatyp(siz) R M Lvl/name

    15-0-0/w PTR         r     1 COPY_FILE_NAME$           17-0-0/w PTR         r     1 COPY_LIBRARY_DNT$
    16-0-0/w PTR         r     1 COPY_LIBRARY_NAME$         6-0-0/w SBIN        r     1 COPY_START_COLUMN
     7-0-0/b BIT         r     1 COPY_START_DEBUG           5-0-0/w SBIN        r     1 COPY_START_LINE
PL6.E3A0      #006=Z8EL$PROCESS_COPY File=Z8EL.:Z8A6TSI                          SAT 08/09/97 12:09 Page:375
    11-0-0/w SBIN        r     1 END_COLUMN                12-0-0/w SBIN        r     1 END_LEVEL
    10-0-0/w SBIN        r     1 END_LINE                  32-0-0/b BIT         r     1 ERROR_IN_COPY
    31-0-0/b BIT         r     1 ERROR_IN_REPLACE          13-0-0/w PTR         r     1 L$
    30-0-0/w PTR         r     1 REPLACE$                   4-0-0/w SBIN        r     1 START_COLUMN
     3-0-0/w SBIN        r     1 START_LINE                20-0-0/d STRC(288)   r     1 STR_TERM
    14-0-0/w PTR         r     1 TL$

  ****  SYMREF variables  ****

  ****  Scalars and arrays  ****
OctLoc.c.b A Datatyp(siz) R M Lvl/name                 OctLoc.c.b A Datatyp(siz) R M Lvl/name

     0-0-0/d STRC(13248) r     1 COMCOM
     0-0-0/w PTR               1 DNT_BUCKETS(0:1128)
     0-0-0/w STRC(180)         1 HIER_STK(0:50)
     0-0-0/w SBIN              1 HIER_STK_PTR               0-0-0/d STRC(11580) r     1 O1COM
     0-0-0/w STRC(144)         1 PAGE_FORMAT                0-0-0/w STRC(153)         1 REP_STK(0:50)
     0-0-0/w SBIN              1 REP_STK_PTR

  ****  BASED and DCB variables  ****

  ****  Scalars and arrays  ****
OctLoc.c.b A Datatyp(siz) R M Lvl/name                 OctLoc.c.b A Datatyp(siz) R M Lvl/name

     0-0-0/w STRC(288)         1 ADD_STMT                   0-0-0/w ASTR(324)   r     1 BASED_LEX_SYMBOL
     0-0-0/w STRC(360)         1 BASED_LEX_SYMBOL_WORDS
     0-0-0/w STRC(288)         1 BINARY_OP                  0-0-0/c ACHR              1 BUFFER_LINE
     0-0-0/w STRC(288)         1 CALL_STMT                  0-0-0/w CHAR(4096)        1 CHARS
     0-0-0/w STRC(288)         1 COMPUTE_STMT               0-0-0/w STRC(72)          1 CONT
     0-0-0/w STRC(288)         1 DEFERED_IDENTIFIER         0-0-0/w STRC(252)         1 DEFERED_ID_TREE
     0-0-0/w STRC(288)         1 DEFERED_QUAL_ID            0-0-0/w STRC(288)         1 DEFERED_SUM_CLAUSE
     0-0-0/w STRC(288)         1 DEFERED_SUM_CLAUSE_LIST
     0-0-0/w STRC(288)         1 DELETE_STMT                0-0-0/w STRC(288)         1 DIVIDE_STMT
     0-0-0/w ASTR(180)   r     1 DNT                        0-0-0/w ASTR(396)   r     1 EXP_SRC_BUFF
     0-0-0/w ASTR(396)   r     1 FILL_BUFFER                0-0-0/w STRC(288)         1 ILS_LIST
     0-0-0/w STRC(288)         1 INSPECT_1_STMT             0-0-0/w STRC(288)         1 INSPECT_2_STMT
     0-0-0/w STRC(288)         1 INSPECT_4_STMT             0-0-0/w STRC(288)         1 LA_ITEM
PL6.E3A0      #006=Z8EL$PROCESS_COPY File=Z8EL.:Z8A6TSI                          SAT 08/09/97 12:09 Page:376
     0-0-0/w STRC(504)         1 LX_CD_INPUT                0-0-0/w STRC(324)         1 LX_CD_I_O
     0-0-0/w STRC(396)         1 LX_CD_OUTPUT               0-0-0/w STRC(288)         1 LX_ETT_ITEM
     0-0-0/w STRC(288)         1 LX_ITEM                    0-0-0/w STRC(288)         1 LX_LARGE
     0-0-0/w STRC(288)         1 LX_LIST                    0-0-0/w STRC(1224)        1 LX_REC_DECL
     0-0-0/w STRC(864)         1 LX_REPORT_REC              0-0-0/w STRC(288)   r     1 LX_TERMINAL
     0-0-0/w STRC(288)         1 MULTIPLY_STMT              0-0-0/w STRC(36864)       1 PAGE
     0-0-0/w STRC(288)         1 READ_STMT                  0-0-0/w STRC(252)         1 REPLACE_ITEM
     0-0-0/w STRC(288)         1 REWRITE_STMT               0-0-0/w STRC(288)         1 START_STMT
     0-0-0/w STRC(252)         1 STRING_STMT                0-0-0/w STRC(288)         1 SUBTRACT_STMT
     0-0-0/w STRC(288)         1 UNARY_OP                   0-0-0/w STRC(288)         1 UNSTRING_STMT
     0-0-0/w STRC(288)         1 WRITE_STMT


   Procedure Z8EL$PROCESS_COPY requires 920 words for executable code.
   Procedure Z8EL$PROCESS_COPY requires 38 words of local(AUTO) storage.

PL6.E3A0      #007=Z8EL$PROCESS_REPLACE File=Z8EL.:Z8A6TSI                       SAT 08/09/97 12:11 Page:377
     1620        1        /*T***********************************************************/
     1621        2        /*T*                                                         */
     1622        3        /*T* Copyright (c) Bull HN Information Systems Inc., 1997    */
     1623        4        /*T*                                                         */
     1624        5        /*T***********************************************************/
     1625        6        Z8EL$PROCESS_REPLACE : PROC;
     1626        7
     1627        8        %EQU PHASE = 1;
     1628        9        %INCLUDE Z8A_DEFC;
     1629       77        %INCLUDE Z8A_SUPP_MAC;
     1630     2477        %INCLUDE Z8E_HEAP;
     1631     2533        %INCLUDE Z8E_STACKS;
     1632     4799        %INCLUDE Z8E_REPLACE;
     1633     5102        %INCLUDE Z8E_BUFFERS;
     1634     5292        %INCLUDE Z8E_O1COM;
     1635     6053        %INCLUDE Z8A_COMCOM;
     1636     6703
     1637     6704    1   DCL Z8EL$PARSE_REPLACE ENTRY(7);
     1638     6705    1   DCL Z8EL$ADD_REPL_LEVEL ENTRY(2);
     1639     6706    1   DCL Z8EL$BLANK_SOURCE_LINES ENTRY(4);
     1640     6707    1   DCL Z8EL$START_WRITING_ES_FILE ENTRY(1);
     1641     6708    1   DCL Z8EL$DELETE_REPLACE_LEVEL ENTRY(1);
     1642     6709    1   DCL Z8EL$POSITION_LINE_LIST ENTRY(3);
     1643     6710
     1644     6711
     1645     6712    1   DCL START_LINE SBIN WORD;
     1646     6713    1   DCL START_COLUMN SBIN WORD;
     1647     6714    1   DCL END_LINE SBIN ;
     1648     6715    1   DCL END_COLUMN SBIN;
     1649     6716    1   DCL END_LEVEL SBIN;
     1650     6717
     1651     6718    1   DCL REPLACE_LEVEL SBIN WORD;
     1652     6719    1   DCL COPY_LEVEL SBIN WORD;
     1653     6720    1   DCL L$ PTR;
     1654     6721
     1655     6722
     1656     6723    1   DCL REPLACE$ PTR;
PL6.E3A0      #007=Z8EL$PROCESS_REPLACE File=Z8EL.:Z8A6TSI                       SAT 08/09/97 12:11 Page:378
     1657     6724    1   DCL ERROR_IN_REPLACE BOOLEAN;
     1658     6725
     1659     6726
     1660     6727          %UPDATE_PARSE_POSITION;
     1661     6733
     1662     6734    1     CALL Z8EL$START_WRITING_ES_FILE (LEX_SYMBOL.LINE);
     1663     6735
     1664     6736    1     IF LEX_SYMBOL.COLUMN > O1COM.AREA_A_COLUMN_START THEN
     1665     6737    2       DO;
     1666     6738    2         L$ = ADDR(NIL);
     1667     6739    2         CALL Z8EL$POSITION_LINE_LIST(LEX_SYMBOL.LINE, L$, 999999999);
     1668     6740    2         IF SUBSTR (L$ -> FILL_BUFFER.SOURCE_LINE,
     1669     6741    2                    O1COM.AREA_A_COLUMN_START,
     1670     6742    2                    LEX_SYMBOL.COLUMN - O1COM.AREA_A_COLUMN_START) ~= ' ' THEN
     1671     6743    3           DO;
     1672     6744    3             L$ -> FILL_BUFFER.LINE_TYPE.SPLIT_C_R_LINE = TRUE;
     1673     6745    3             L$ -> FILL_BUFFER.LINE_TYPE.COPY_REPL_LINE = FALSE;
     1674     6746    3             L$ -> FILL_BUFFER.LINE_TYPE.SPLIT_COLUMN = LEX_SYMBOL.COLUMN;
     1675     6747    3           END;
     1676     6748    2       END;
     1677     6749    1     CALL Z8EL$PARSE_REPLACE (REPLACE$,
     1678     6750    1                              START_LINE,
     1679     6751    1                              START_COLUMN,
     1680     6752    1                              END_LINE,
     1681     6753    1                              END_COLUMN,
     1682     6754    1                              END_LEVEL,
     1683     6755    1                              ERROR_IN_REPLACE);
     1684     6756    1     IF NOT ERROR_IN_REPLACE THEN
     1685     6757    2       DO;
     1686     6758    2         L$ = ADDR(NIL);
     1687     6759    2         CALL Z8EL$POSITION_LINE_LIST(END_LINE, L$, START_LINE);
     1688     6760    2         IF SUBSTR (L$ -> FILL_BUFFER.SOURCE_LINE, END_COLUMN,
     1689     6761    2             O1COM.MARGIN_R - END_COLUMN) ~= ' ' THEN
     1690     6762    3           DO;
     1691     6763    3             L$ -> FILL_BUFFER.LINE_TYPE.SPLIT_COLUMN = END_COLUMN;
     1692     6764    3             L$ -> FILL_BUFFER.LINE_TYPE.COPY_REPL_LINE = FALSE;
     1693     6765    3           END;
PL6.E3A0      #007=Z8EL$PROCESS_REPLACE File=Z8EL.:Z8A6TSI                       SAT 08/09/97 12:11 Page:379
     1694     6766    2       END;
     1695     6767
     1696     6768    1     CALL Z8EL$ADD_REPL_LEVEL(0, REPLACE$);
     1697     6769
     1698     6770    1     IF ERROR_IN_REPLACE
     1699     6771    1        OR SUBSTR(REPLACE$ -> REPLACE_ITEM.FROM_LIST$ -> BASED_LEX_SYMBOL.SYMBOL,
     1700     6772    1               0,
     1701     6773    1               REPLACE$ -> REPLACE_ITEM.FROM_LIST$ -> BASED_LEX_SYMBOL.SIZE)
     1702     6774    1             = 'OFF' THEN
     1703     6775    2       DO;
     1704     6776    2         CALL Z8EL$DELETE_REPLACE_LEVEL (0);
     1705     6777    2       END;
     1706     6778
     1707     6779
     1708     6780    1   END Z8EL$PROCESS_REPLACE;
     1709     6781
     1710     6782        %EOD;

PL6.E3A0      #007=Z8EL$PROCESS_REPLACE File=Z8EL.:Z8A6TSI                       SAT 08/09/97 12:11 Page:380
--  Include file information  --

   Z8A_COMCOM.:Z8A6TOU  cannot be made into a system file and is referenced.
   Z8E_O1COM.:Z8A6TOU  cannot be made into a system file and is referenced.
   Z8E_BUFFERS.:Z8A6TOU  cannot be made into a system file and is referenced.
   Z8E_REPLACE.:Z8A6TOU  cannot be made into a system file and is referenced.
   Z8A_LEX_SYMB.:Z8A6TOU  cannot be made into a system file and is referenced.
   Z8E_STACKS.:Z8A6TOU  cannot be made into a system file and is referenced.
   Z8E_HEAP.:Z8A6TOU  cannot be made into a system file and is referenced.
   X8A_COM_MACS.:X8A6TOU  is referenced.
   Z8A_NAMES.:Z8A6TOU  is referenced.
   Z8A_SUPP_MAC.:Z8A6TOU  is referenced.
   Z8A_DEFC.:Z8A6TOU  cannot be made into a system file and is referenced.
      No diagnostics issued in procedure Z8EL$PROCESS_REPLACE.

   Procedure Z8EL$PROCESS_REPLACE requires 112 words for executable code.
   Procedure Z8EL$PROCESS_REPLACE requires 22 words of local(AUTO) storage.

PL6.E3A0      #007=Z8EL$PROCESS_REPLACE File=Z8EL.:Z8A6TSI                       SAT 08/09/97 12:11 Page:381

 Object Unit name= Z8EL$PROCESS_REPLACE                       File name= Z8EL.:Z8A6TOU
 UTS= AUG 09 '97 12:11:37.68 SAT                              Compiler= PL-6/E31         Sev=      00
 SharedLib= :SHARED_SYSTEM                                    Alt SharedLib=


    ****  Control sections  ****

 Sect   Type Bound  Init  Size OctSiz  Section name(segment info)
    0  LblCom even  none     1      1  ITERATION
    1  LblCom even  none     1      1  HEAP$
    2  LblCom even  none    90    132  LEX_SYMBOL
    3  LblCom even  none     1      1  CURRENT_LEX_SYMBOL$
    4  LblCom even  none    90    132  TEMP_LEX_SYMBOL
    5  LblCom even  none    90    132  TEMP_LEX_SYMBOL2
    6  LblCom even  none     1      1  CURRENT_SYMBOL_LEVEL
    7  LblCom even  none     1      1  REPLACE_ACTIVE
    8  LblCom even  none     1      1  IGNORE_COPY_REPLACE
    9  LblCom even  none     1      1  COPY_DEBUG_LEVEL
   10  LblCom even  none     4      4  REPLACE_LIST
   11  LblCom even  none     1      1  LEX_SYMBOL_QUEUE$
   12  LblCom even  none     1      1  SCANNER_STATE
   13  LblCom even  none     1      1  CURRENT_BUFFER$
   14  LblCom even  none     1      1  LOOKAHEAD_BUFFER$
   15  LblCom even  none     1      1  CURRENT_LINE_LEVEL
   16  LblCom even  none     1      1  LINE_LIST$
   17  LblCom even  none     7      7  BUFFER
   18  LblCom even  none     1      1  ORIGINAL_ISN
   19  LblCom even  none     1      1  EXPANDED_ISN
   20  LblCom even  none     1      1  ISN_FOR_EXP_SRC
   21  RoData even  UTS      1      1  Z8EL$PROCESS_REPLACE
   22   Proc  even  none   112    160  Z8EL$PROCESS_REPLACE
   23  RoData even  none    12     14  Z8EL$PROCESS_REPLACE
PL6.E3A0      #007=Z8EL$PROCESS_REPLACE File=Z8EL.:Z8A6TSI                       SAT 08/09/97 12:11 Page:382

    ****  Entry defs  ****

                              Check   Calling
                             calling  sequence
  Sect OctLoc Primary Altret sequence   type   Parms  Name
    22      0   yes            yes      Std        0  Z8EL$PROCESS_REPLACE

  ****  Entry refs  ****

         Check        Calling
        calling       sequence
Altret sequence SRef   type   Args  Name
         yes           Std       1 Z8EL$START_WRITING_ES_FILE
         yes           Std       7 Z8EL$PARSE_REPLACE
         yes           Std       2 Z8EL$ADD_REPL_LEVEL
         yes           Std       1 Z8EL$DELETE_REPLACE_LEVEL
         yes           Std       3 Z8EL$POSITION_LINE_LIST
                       nStd      0 X66_AUTO_0
                       nStd      0 X66_ARET

  ****  Data refs  ****

  Flags:  r = read only, s = secondary
Flgs Name                             Flgs Name                             Flgs Name
     O1COM                                 HIER_STK_PTR                          HIER_STK
     PAGE_FORMAT                           REP_STK_PTR                           REP_STK
     COMCOM

  ****  Segment refs  ****

  Flags:  r = read only, s = secondary
Flgs Name                             Flgs Name                             Flgs Name
     ISSID                                 NULLSID
PL6.E3A0      #007=Z8EL$PROCESS_REPLACE File=Z8EL.:Z8A6TSI                       SAT 08/09/97 12:11 Page:383


     1620        1        /*T***********************************************************/
     1621        2        /*T*                                                         */
     1622        3        /*T* Copyright (c) Bull HN Information Systems Inc., 1997    */
     1623        4        /*T*                                                         */
     1624        5        /*T***********************************************************/
     1625        6        Z8EL$PROCESS_REPLACE : PROC;

      6 22 000000   000000 700200 xent  Z8EL$PROCES* TSX0  ! X66_AUTO_0
        22 000001   000026 000000                    ZERO    22,0

     1626        7
     1627        8        %EQU PHASE = 1;
     1628        9        %INCLUDE Z8A_DEFC;
     1629       77        %INCLUDE Z8A_SUPP_MAC;
     1630     2477        %INCLUDE Z8E_HEAP;
     1631     2533        %INCLUDE Z8E_STACKS;
     1632     4799        %INCLUDE Z8E_REPLACE;
     1633     5102        %INCLUDE Z8E_BUFFERS;
     1634     5292        %INCLUDE Z8E_O1COM;
     1635     6053        %INCLUDE Z8A_COMCOM;
     1636     6703
     1637     6704    1   DCL Z8EL$PARSE_REPLACE ENTRY(7);
     1638     6705    1   DCL Z8EL$ADD_REPL_LEVEL ENTRY(2);
     1639     6706    1   DCL Z8EL$BLANK_SOURCE_LINES ENTRY(4);
     1640     6707    1   DCL Z8EL$START_WRITING_ES_FILE ENTRY(1);
     1641     6708    1   DCL Z8EL$DELETE_REPLACE_LEVEL ENTRY(1);
     1642     6709    1   DCL Z8EL$POSITION_LINE_LIST ENTRY(3);
     1643     6710
     1644     6711
     1645     6712    1   DCL START_LINE SBIN WORD;
     1646     6713    1   DCL START_COLUMN SBIN WORD;
     1647     6714    1   DCL END_LINE SBIN ;
     1648     6715    1   DCL END_COLUMN SBIN;
     1649     6716    1   DCL END_LEVEL SBIN;
     1650     6717
     1651     6718    1   DCL REPLACE_LEVEL SBIN WORD;
PL6.E3A0      #007=Z8EL$PROCESS_REPLACE File=Z8EL.:Z8A6TSI                       SAT 08/09/97 12:11 Page:384
     1652     6719    1   DCL COPY_LEVEL SBIN WORD;
     1653     6720    1   DCL L$ PTR;
     1654     6721
     1655     6722
     1656     6723    1   DCL REPLACE$ PTR;
     1657     6724    1   DCL ERROR_IN_REPLACE BOOLEAN;
     1658     6725
     1659     6726
     1660     6727          %UPDATE_PARSE_POSITION;

   6729 22 000002   000004 235000 2                  LDA     LEX_SYMBOL+4
        22 000003   000133 755000 xsym               STA     COMCOM+91

   6730 22 000004   000005 236000 2                  LDQ     LEX_SYMBOL+5
        22 000005   000134 756000 xsym               STQ     COMCOM+92

     1661     6733
     1662     6734    1     CALL Z8EL$START_WRITING_ES_FILE (LEX_SYMBOL.LINE);

   6734 22 000006   000001 630400 23                 EPPR0   1
        22 000007   000000 631400 23                 EPPR1   0
        22 000010   000000 701000 xent               TSX1    Z8EL$START_WRITING_ES_FILE
        22 000011   000000 011000                    NOP     0

     1663     6735
     1664     6736    1     IF LEX_SYMBOL.COLUMN > O1COM.AREA_A_COLUMN_START THEN

   6736 22 000012   000005 236000 2                  LDQ     LEX_SYMBOL+5
        22 000013   000122 116000 xsym               CMPQ    O1COM+82
        22 000014   000053 604400 22                 TMOZ    s:6749

     1665     6737    2       DO;

     1666     6738    2         L$ = ADDR(NIL);

   6738 22 000015   000002 236000 23                 LDQ     2
        22 000016   200012 756100                    STQ     L$,,AUTO
PL6.E3A0      #007=Z8EL$PROCESS_REPLACE File=Z8EL.:Z8A6TSI                       SAT 08/09/97 12:11 Page:385

     1667     6739    2         CALL Z8EL$POSITION_LINE_LIST(LEX_SYMBOL.LINE, L$, 999999999);

   6739 22 000017   000005 236000 23                 LDQ     5
        22 000020   200020 756100                    STQ     ERROR_IN_REPLACE+4,,AUTO
        22 000021   200012 630500                    EPPR0   L$,,AUTO
        22 000022   200017 450500                    STP0    ERROR_IN_REPLACE+3,,AUTO
        22 000023   000001 236000 23                 LDQ     1
        22 000024   200016 756100                    STQ     ERROR_IN_REPLACE+2,,AUTO
        22 000025   200016 630500                    EPPR0   ERROR_IN_REPLACE+2,,AUTO
        22 000026   000003 631400 23                 EPPR1   3
        22 000027   000000 701000 xent               TSX1    Z8EL$POSITION_LINE_LIST
        22 000030   000000 011000                    NOP     0

     1668     6740    2         IF SUBSTR (L$ -> FILL_BUFFER.SOURCE_LINE,

   6740 22 000031   200012 470500                    LDP0    L$,,AUTO
        22 000032   000012 720100                    LXL0    10,,PR0
        22 000033   000005 236000 2                  LDQ     LEX_SYMBOL+5
        22 000034   000122 136000 xsym               SBLQ    O1COM+82
        22 000035   000000 621006                    EAX1    0,QL
        22 000036   000122 235000 xsym               LDA     O1COM+82
        22 000037   040000 106545                    CMPC    fill='040'O
        22 000040   000013 000011                    ADSC9   11,A,PR0                 cn=0,n=*X1
        22 000041   000006 000001 23                 ADSC9   6                        cn=0,n=1
        22 000042   000053 600000 22                 TZE     s:6749

     1669     6741    2                    O1COM.AREA_A_COLUMN_START,
     1670     6742    2                    LEX_SYMBOL.COLUMN - O1COM.AREA_A_COLUMN_START) ~= ' ' THEN
     1671     6743    3           DO;

     1672     6744    3             L$ -> FILL_BUFFER.LINE_TYPE.SPLIT_C_R_LINE = TRUE;

   6744 22 000043   000004 236003                    LDQ     4,DU
        22 000044   000011 256100                    ORSQ    9,,PR0

     1673     6745    3             L$ -> FILL_BUFFER.LINE_TYPE.COPY_REPL_LINE = FALSE;
PL6.E3A0      #007=Z8EL$PROCESS_REPLACE File=Z8EL.:Z8A6TSI                       SAT 08/09/97 12:11 Page:386

   6745 22 000045   200012 470500                    LDP0    L$,,AUTO
        22 000046   000007 236000 23                 LDQ     7
        22 000047   000011 356100                    ANSQ    9,,PR0

     1674     6746    3             L$ -> FILL_BUFFER.LINE_TYPE.SPLIT_COLUMN = LEX_SYMBOL.COLUMN;

   6746 22 000050   200012 470500                    LDP0    L$,,AUTO
        22 000051   000005 236000 2                  LDQ     LEX_SYMBOL+5
        22 000052   000011 552104                    STBQ    9,'04'O,PR0

     1675     6747    3           END;

     1676     6748    2       END;

     1677     6749    1     CALL Z8EL$PARSE_REPLACE (REPLACE$,

   6749 22 000053   200014 630500                    EPPR0   ERROR_IN_REPLACE,,AUTO
        22 000054   200024 450500                    STP0    ERROR_IN_REPLACE+8,,AUTO
        22 000055   200007 631500                    EPPR1   END_LEVEL,,AUTO
        22 000056   200023 451500                    STP1    ERROR_IN_REPLACE+7,,AUTO
        22 000057   200006 633500                    EPPR3   END_COLUMN,,AUTO
        22 000060   200022 453500                    STP3    ERROR_IN_REPLACE+6,,AUTO
        22 000061   200005 634500                    EPPR4   END_LINE,,AUTO
        22 000062   200021 454500                    STP4    ERROR_IN_REPLACE+5,,AUTO
        22 000063   200004 635500                    EPPR5   START_COLUMN,,AUTO
        22 000064   200020 455500                    STP5    ERROR_IN_REPLACE+4,,AUTO
        22 000065   200003 636500                    EPPR6   START_LINE,,AUTO
        22 000066   200017 456500                    STP6    ERROR_IN_REPLACE+3,,AUTO
        22 000067   200013 637500                    EPPR7   REPLACE$,,AUTO
        22 000070   200016 457500                    STP7    ERROR_IN_REPLACE+2,,AUTO
        22 000071   200016 630500                    EPPR0   ERROR_IN_REPLACE+2,,AUTO
        22 000072   000010 631400 23                 EPPR1   8
        22 000073   000000 701000 xent               TSX1    Z8EL$PARSE_REPLACE
        22 000074   000000 011000                    NOP     0

     1678     6750    1                              START_LINE,
PL6.E3A0      #007=Z8EL$PROCESS_REPLACE File=Z8EL.:Z8A6TSI                       SAT 08/09/97 12:11 Page:387
     1679     6751    1                              START_COLUMN,
     1680     6752    1                              END_LINE,
     1681     6753    1                              END_COLUMN,
     1682     6754    1                              END_LEVEL,
     1683     6755    1                              ERROR_IN_REPLACE);
     1684     6756    1     IF NOT ERROR_IN_REPLACE THEN

   6756 22 000075   200014 234100                    SZN     ERROR_IN_REPLACE,,AUTO
        22 000076   000132 604000 22                 TMI     s:6768

     1685     6757    2       DO;

     1686     6758    2         L$ = ADDR(NIL);

   6758 22 000077   000002 236000 23                 LDQ     2
        22 000100   200012 756100                    STQ     L$,,AUTO

     1687     6759    2         CALL Z8EL$POSITION_LINE_LIST(END_LINE, L$, START_LINE);

   6759 22 000101   200003 630500                    EPPR0   START_LINE,,AUTO
        22 000102   200020 450500                    STP0    ERROR_IN_REPLACE+4,,AUTO
        22 000103   200012 631500                    EPPR1   L$,,AUTO
        22 000104   200017 451500                    STP1    ERROR_IN_REPLACE+3,,AUTO
        22 000105   200005 633500                    EPPR3   END_LINE,,AUTO
        22 000106   200016 453500                    STP3    ERROR_IN_REPLACE+2,,AUTO
        22 000107   200016 630500                    EPPR0   ERROR_IN_REPLACE+2,,AUTO
        22 000110   000003 631400 23                 EPPR1   3
        22 000111   000000 701000 xent               TSX1    Z8EL$POSITION_LINE_LIST
        22 000112   000000 011000                    NOP     0

     1688     6760    2         IF SUBSTR (L$ -> FILL_BUFFER.SOURCE_LINE, END_COLUMN,

   6760 22 000113   200012 470500                    LDP0    L$,,AUTO
        22 000114   000012 720100                    LXL0    10,,PR0
        22 000115   000123 236000 xsym               LDQ     O1COM+83
        22 000116   200006 136100                    SBLQ    END_COLUMN,,AUTO
        22 000117   000000 621006                    EAX1    0,QL
PL6.E3A0      #007=Z8EL$PROCESS_REPLACE File=Z8EL.:Z8A6TSI                       SAT 08/09/97 12:11 Page:388
        22 000120   200006 235100                    LDA     END_COLUMN,,AUTO
        22 000121   040000 106545                    CMPC    fill='040'O
        22 000122   000013 000011                    ADSC9   11,A,PR0                 cn=0,n=*X1
        22 000123   000006 000001 23                 ADSC9   6                        cn=0,n=1
        22 000124   000132 600000 22                 TZE     s:6768

     1689     6761    2             O1COM.MARGIN_R - END_COLUMN) ~= ' ' THEN
     1690     6762    3           DO;

     1691     6763    3             L$ -> FILL_BUFFER.LINE_TYPE.SPLIT_COLUMN = END_COLUMN;

   6763 22 000125   200006 236100                    LDQ     END_COLUMN,,AUTO
        22 000126   000011 552104                    STBQ    9,'04'O,PR0

     1692     6764    3             L$ -> FILL_BUFFER.LINE_TYPE.COPY_REPL_LINE = FALSE;

   6764 22 000127   200012 470500                    LDP0    L$,,AUTO
        22 000130   000007 236000 23                 LDQ     7
        22 000131   000011 356100                    ANSQ    9,,PR0

     1693     6765    3           END;

     1694     6766    2       END;

     1695     6767
     1696     6768    1     CALL Z8EL$ADD_REPL_LEVEL(0, REPLACE$);

   6768 22 000132   200013 630500                    EPPR0   REPLACE$,,AUTO
        22 000133   200017 450500                    STP0    ERROR_IN_REPLACE+3,,AUTO
        22 000134   000013 236000 23                 LDQ     11
        22 000135   200016 756100                    STQ     ERROR_IN_REPLACE+2,,AUTO
        22 000136   200016 630500                    EPPR0   ERROR_IN_REPLACE+2,,AUTO
        22 000137   000011 631400 23                 EPPR1   9
        22 000140   000000 701000 xent               TSX1    Z8EL$ADD_REPL_LEVEL
        22 000141   000000 011000                    NOP     0

     1697     6769
PL6.E3A0      #007=Z8EL$PROCESS_REPLACE File=Z8EL.:Z8A6TSI                       SAT 08/09/97 12:11 Page:389
     1698     6770    1     IF ERROR_IN_REPLACE

   6770 22 000142   200014 234100                    SZN     ERROR_IN_REPLACE,,AUTO
        22 000143   000153 604000 22                 TMI     s:6776
        22 000144   200013 470500                    LDP0    REPLACE$,,AUTO
        22 000145   000001 471500                    LDP1    1,,PR0
        22 000146   100010 720100                    LXL0    8,,PR1
        22 000147   040000 106540                    CMPC    fill='040'O
        22 000150   100011 000010                    ADSC9   9,,PR1                   cn=0,n=*X0
        22 000151   000000 000003 21                 ADSC9   0                        cn=0,n=3
        22 000152   000157 601000 22                 TNZ     s:6780

     1699     6771    1        OR SUBSTR(REPLACE$ -> REPLACE_ITEM.FROM_LIST$ -> BASED_LEX_SYMBOL.SYMBOL,
     1700     6772    1               0,
     1701     6773    1               REPLACE$ -> REPLACE_ITEM.FROM_LIST$ -> BASED_LEX_SYMBOL.SIZE)
     1702     6774    1             = 'OFF' THEN
     1703     6775    2       DO;

     1704     6776    2         CALL Z8EL$DELETE_REPLACE_LEVEL (0);

   6776 22 000153   000013 630400 23                 EPPR0   11
        22 000154   000000 631400 23                 EPPR1   0
        22 000155   000000 701000 xent               TSX1    Z8EL$DELETE_REPLACE_LEVEL
        22 000156   000000 011000                    NOP     0

     1705     6777    2       END;

     1706     6778
     1707     6779
     1708     6780    1   END Z8EL$PROCESS_REPLACE;

   6780 22 000157   000000 702200 xent               TSX2  ! X66_ARET
     1709     6781
     1710     6782        %EOD;

PL6.E3A0      #007=Z8EL$PROCESS_REPLACE File=Z8EL.:Z8A6TSI                       SAT 08/09/97 12:11 Page:390
--  Include file information  --

   Z8A_COMCOM.:Z8A6TOU  cannot be made into a system file and is referenced.
   Z8E_O1COM.:Z8A6TOU  cannot be made into a system file and is referenced.
   Z8E_BUFFERS.:Z8A6TOU  cannot be made into a system file and is referenced.
   Z8E_REPLACE.:Z8A6TOU  cannot be made into a system file and is referenced.
   Z8A_LEX_SYMB.:Z8A6TOU  cannot be made into a system file and is referenced.
   Z8E_STACKS.:Z8A6TOU  cannot be made into a system file and is referenced.
   Z8E_HEAP.:Z8A6TOU  cannot be made into a system file and is referenced.
   X8A_COM_MACS.:X8A6TOU  is referenced.
   Z8A_NAMES.:Z8A6TOU  is referenced.
   Z8A_SUPP_MAC.:Z8A6TOU  is referenced.
   Z8A_DEFC.:Z8A6TOU  cannot be made into a system file and is referenced.
      No diagnostics issued in procedure Z8EL$PROCESS_REPLACE.
PL6.E3A0      #007=Z8EL$PROCESS_REPLACE File=Z8EL.:Z8A6TSI                       SAT 08/09/97 12:11 Page:391

 **** Variables and constants ****

  ****  Section 000 LblCom ITERATION

  ****  Scalars and arrays  ****
OctLoc.c.b A Datatyp(siz) R M Lvl/name                 OctLoc.c.b A Datatyp(siz) R M Lvl/name

     0-0-0/w SBIN              1 ITERATION

  ****  Section 001 LblCom HEAP$

  ****  Scalars and arrays  ****
OctLoc.c.b A Datatyp(siz) R M Lvl/name                 OctLoc.c.b A Datatyp(siz) R M Lvl/name

     0-0-0/w PTR               1 HEAP$

  ****  Section 002 LblCom LEX_SYMBOL

  ****  Scalars and arrays  ****
OctLoc.c.b A Datatyp(siz) R M Lvl/name                 OctLoc.c.b A Datatyp(siz) R M Lvl/name

     0-0-0/w STRC(3240)  r     1 LEX_SYMBOL                 0-0-0/w STRC(3240)        1 LEX_SYMBOL_WORDS

  ****  Section 003 LblCom CURRENT_LEX_SYMBOL$

  ****  Scalars and arrays  ****
OctLoc.c.b A Datatyp(siz) R M Lvl/name                 OctLoc.c.b A Datatyp(siz) R M Lvl/name

     0-0-0/w PTR         r     1 CURRENT_LEX_SYMBOL$

  ****  Section 004 LblCom TEMP_LEX_SYMBOL

  ****  Scalars and arrays  ****
OctLoc.c.b A Datatyp(siz) R M Lvl/name                 OctLoc.c.b A Datatyp(siz) R M Lvl/name

     0-0-0/w STRC(3240)        1 TEMP_LEX_SYMBOL

PL6.E3A0      #007=Z8EL$PROCESS_REPLACE File=Z8EL.:Z8A6TSI                       SAT 08/09/97 12:11 Page:392
  ****  Section 005 LblCom TEMP_LEX_SYMBOL2

  ****  Scalars and arrays  ****
OctLoc.c.b A Datatyp(siz) R M Lvl/name                 OctLoc.c.b A Datatyp(siz) R M Lvl/name

     0-0-0/w STRC(3240)        1 TEMP_LEX_SYMBOL2

  ****  Section 006 LblCom CURRENT_SYMBOL_LEVEL

  ****  Scalars and arrays  ****
OctLoc.c.b A Datatyp(siz) R M Lvl/name                 OctLoc.c.b A Datatyp(siz) R M Lvl/name

     0-0-0/w SBIN              1 CURRENT_SYMBOL_LEVEL

  ****  Section 007 LblCom REPLACE_ACTIVE

  ****  Scalars and arrays  ****
OctLoc.c.b A Datatyp(siz) R M Lvl/name                 OctLoc.c.b A Datatyp(siz) R M Lvl/name

     0-0-0/b BIT               1 REPLACE_ACTIVE

  ****  Section 008 LblCom IGNORE_COPY_REPLACE

  ****  Scalars and arrays  ****
OctLoc.c.b A Datatyp(siz) R M Lvl/name                 OctLoc.c.b A Datatyp(siz) R M Lvl/name

     0-0-0/b BIT               1 IGNORE_COPY_REPLACE

  ****  Section 009 LblCom COPY_DEBUG_LEVEL

  ****  Scalars and arrays  ****
OctLoc.c.b A Datatyp(siz) R M Lvl/name                 OctLoc.c.b A Datatyp(siz) R M Lvl/name

     0-0-0/w SBIN              1 COPY_DEBUG_LEVEL

  ****  Section 010 LblCom REPLACE_LIST

PL6.E3A0      #007=Z8EL$PROCESS_REPLACE File=Z8EL.:Z8A6TSI                       SAT 08/09/97 12:11 Page:393
  ****  Scalars and arrays  ****
OctLoc.c.b A Datatyp(siz) R M Lvl/name                 OctLoc.c.b A Datatyp(siz) R M Lvl/name

     0-0-0/w STRC(144)         1 REPLACE_LIST

  ****  Section 011 LblCom LEX_SYMBOL_QUEUE$

  ****  Scalars and arrays  ****
OctLoc.c.b A Datatyp(siz) R M Lvl/name                 OctLoc.c.b A Datatyp(siz) R M Lvl/name

     0-0-0/w PTR               1 LEX_SYMBOL_QUEUE$

  ****  Section 012 LblCom SCANNER_STATE

  ****  Scalars and arrays  ****
OctLoc.c.b A Datatyp(siz) R M Lvl/name                 OctLoc.c.b A Datatyp(siz) R M Lvl/name

     0-0-0/w SBIN              1 SCANNER_STATE

  ****  Section 013 LblCom CURRENT_BUFFER$

  ****  Scalars and arrays  ****
OctLoc.c.b A Datatyp(siz) R M Lvl/name                 OctLoc.c.b A Datatyp(siz) R M Lvl/name

     0-0-0/w PTR               1 CURRENT_BUFFER$

  ****  Section 014 LblCom LOOKAHEAD_BUFFER$

  ****  Scalars and arrays  ****
OctLoc.c.b A Datatyp(siz) R M Lvl/name                 OctLoc.c.b A Datatyp(siz) R M Lvl/name

     0-0-0/w PTR         r     1 LOOKAHEAD_BUFFER$

  ****  Section 015 LblCom CURRENT_LINE_LEVEL

  ****  Scalars and arrays  ****
OctLoc.c.b A Datatyp(siz) R M Lvl/name                 OctLoc.c.b A Datatyp(siz) R M Lvl/name
PL6.E3A0      #007=Z8EL$PROCESS_REPLACE File=Z8EL.:Z8A6TSI                       SAT 08/09/97 12:11 Page:394

     0-0-0/w SBIN              1 CURRENT_LINE_LEVEL

  ****  Section 016 LblCom LINE_LIST$

  ****  Scalars and arrays  ****
OctLoc.c.b A Datatyp(siz) R M Lvl/name                 OctLoc.c.b A Datatyp(siz) R M Lvl/name

     0-0-0/w PTR               1 LINE_LIST$

  ****  Section 017 LblCom BUFFER

  ****  Scalars and arrays  ****
OctLoc.c.b A Datatyp(siz) R M Lvl/name                 OctLoc.c.b A Datatyp(siz) R M Lvl/name

     0-0-0/w STRC(252)   r     1 BUFFER

  ****  Section 018 LblCom ORIGINAL_ISN

  ****  Scalars and arrays  ****
OctLoc.c.b A Datatyp(siz) R M Lvl/name                 OctLoc.c.b A Datatyp(siz) R M Lvl/name

     0-0-0/w SBIN              1 ORIGINAL_ISN

  ****  Section 019 LblCom EXPANDED_ISN

  ****  Scalars and arrays  ****
OctLoc.c.b A Datatyp(siz) R M Lvl/name                 OctLoc.c.b A Datatyp(siz) R M Lvl/name

     0-0-0/w SBIN              1 EXPANDED_ISN

  ****  Section 020 LblCom ISN_FOR_EXP_SRC

  ****  Scalars and arrays  ****
OctLoc.c.b A Datatyp(siz) R M Lvl/name                 OctLoc.c.b A Datatyp(siz) R M Lvl/name

     0-0-0/w SBIN              1 ISN_FOR_EXP_SRC
PL6.E3A0      #007=Z8EL$PROCESS_REPLACE File=Z8EL.:Z8A6TSI                       SAT 08/09/97 12:11 Page:395

  ****  Auto variables  ****

  ****  Scalars and arrays  ****
OctLoc.c.b A Datatyp(siz) R M Lvl/name                 OctLoc.c.b A Datatyp(siz) R M Lvl/name

    11-0-0/w SBIN              1 COPY_LEVEL                 6-0-0/w SBIN        r     1 END_COLUMN
     7-0-0/w SBIN        r     1 END_LEVEL                  5-0-0/w SBIN        r     1 END_LINE
    14-0-0/b BIT         r     1 ERROR_IN_REPLACE          12-0-0/w PTR         r     1 L$
    13-0-0/w PTR         r     1 REPLACE$                  10-0-0/w SBIN              1 REPLACE_LEVEL
     4-0-0/w SBIN        r     1 START_COLUMN               3-0-0/w SBIN        r     1 START_LINE

  ****  SYMREF variables  ****

  ****  Scalars and arrays  ****
OctLoc.c.b A Datatyp(siz) R M Lvl/name                 OctLoc.c.b A Datatyp(siz) R M Lvl/name

     0-0-0/d STRC(13248) r     1 COMCOM
     0-0-0/w STRC(180)         1 HIER_STK(0:50)
     0-0-0/w SBIN              1 HIER_STK_PTR               0-0-0/d STRC(11580) r     1 O1COM
     0-0-0/w STRC(144)         1 PAGE_FORMAT                0-0-0/w STRC(153)         1 REP_STK(0:50)
     0-0-0/w SBIN              1 REP_STK_PTR

  ****  BASED and DCB variables  ****

  ****  Scalars and arrays  ****
OctLoc.c.b A Datatyp(siz) R M Lvl/name                 OctLoc.c.b A Datatyp(siz) R M Lvl/name

     0-0-0/w STRC(288)         1 ADD_STMT                   0-0-0/w ASTR(324)   r     1 BASED_LEX_SYMBOL
     0-0-0/w STRC(360)         1 BASED_LEX_SYMBOL_WORDS
     0-0-0/w STRC(288)         1 BINARY_OP                  0-0-0/c ACHR              1 BUFFER_LINE
     0-0-0/w STRC(288)         1 CALL_STMT                  0-0-0/w CHAR(4096)        1 CHARS
     0-0-0/w STRC(288)         1 COMPUTE_STMT               0-0-0/w STRC(72)          1 CONT
     0-0-0/w STRC(288)         1 DEFERED_IDENTIFIER         0-0-0/w STRC(252)         1 DEFERED_ID_TREE
     0-0-0/w STRC(288)         1 DEFERED_QUAL_ID            0-0-0/w STRC(288)         1 DEFERED_SUM_CLAUSE
     0-0-0/w STRC(288)         1 DEFERED_SUM_CLAUSE_LIST
     0-0-0/w STRC(288)         1 DELETE_STMT                0-0-0/w STRC(288)         1 DIVIDE_STMT
PL6.E3A0      #007=Z8EL$PROCESS_REPLACE File=Z8EL.:Z8A6TSI                       SAT 08/09/97 12:11 Page:396
     0-0-0/w ASTR(396)   r     1 EXP_SRC_BUFF               0-0-0/w ASTR(396)   r     1 FILL_BUFFER
     0-0-0/w STRC(288)         1 ILS_LIST                   0-0-0/w STRC(288)         1 INSPECT_1_STMT
     0-0-0/w STRC(288)         1 INSPECT_2_STMT             0-0-0/w STRC(288)         1 INSPECT_4_STMT
     0-0-0/w STRC(288)         1 LA_ITEM                    0-0-0/w STRC(504)         1 LX_CD_INPUT
     0-0-0/w STRC(324)         1 LX_CD_I_O                  0-0-0/w STRC(396)         1 LX_CD_OUTPUT
     0-0-0/w STRC(288)         1 LX_ETT_ITEM                0-0-0/w STRC(288)         1 LX_ITEM
     0-0-0/w STRC(288)         1 LX_LARGE                   0-0-0/w STRC(288)         1 LX_LIST
     0-0-0/w STRC(1224)        1 LX_REC_DECL                0-0-0/w STRC(864)         1 LX_REPORT_REC
     0-0-0/w STRC(288)         1 LX_TERMINAL                0-0-0/w STRC(288)         1 MULTIPLY_STMT
     0-0-0/w STRC(36864)       1 PAGE                       0-0-0/w STRC(288)         1 READ_STMT
     0-0-0/w STRC(252)   r     1 REPLACE_ITEM               0-0-0/w STRC(288)         1 REWRITE_STMT
     0-0-0/w STRC(288)         1 START_STMT                 0-0-0/w STRC(252)         1 STRING_STMT
     0-0-0/w STRC(288)         1 SUBTRACT_STMT              0-0-0/w STRC(288)         1 UNARY_OP
     0-0-0/w STRC(288)         1 UNSTRING_STMT              0-0-0/w STRC(288)         1 WRITE_STMT


   Procedure Z8EL$PROCESS_REPLACE requires 112 words for executable code.
   Procedure Z8EL$PROCESS_REPLACE requires 22 words of local(AUTO) storage.

