PL6.E3A0      #008=Z8EL$UNMARK_REPLACE_TOKEN File=Z8EL.:Z8A6TSI                  SAT 08/09/97 12:12 Page:397
     1711        1        /*T***********************************************************/
     1712        2        /*T*                                                         */
     1713        3        /*T* Copyright (c) Bull HN Information Systems Inc., 1997    */
     1714        4        /*T*                                                         */
     1715        5        /*T***********************************************************/
     1716        6
     1717        7        Z8EL$UNMARK_REPLACE_TOKEN : PROC(REPLACED_TOKEN$);
     1718        8
     1719        9    1   DCL REPLACED_TOKEN$ PTR;
     1720       10
     1721       11        /* REPLACED_TOKEN$ points to the first LEX_SYMBOL on the
     1722       12           REPLACE_ITEM.FROM_LIST$ */
     1723       13        /* The REPLACE_ITEM referring to the REPLACED_TOKEN should
     1724       14           have been removed from the REPLACE_LIST linked list */
     1725       15
     1726       16    1   DCL TEMPSYM$ PTR;
     1727       17
     1728       18        %EQU PHASE = 1;
     1729       19        %INCLUDE Z8A_DEFC;
     1730       87        %INCLUDE Z8A_SUPP_MAC;
     1731     2487        %INCLUDE Z8A_DNT;
     1732     2708        %INCLUDE Z8E_HEAP;
     1733     2764        %INCLUDE Z8E_REPLACE;
     1734     3067        %INCLUDE Z8E_STACKS;
     1735     5333
     1736     5334    1   DCL Z8AH$SEARCH_ ENTRY;
     1737     5335
     1738     5336
     1739     5337    1   IF REPLACED_TOKEN$ ~= ADDR(NIL) THEN
     1740     5338    2     DO;
     1741     5339
     1742     5340             /* If the token is on some other list, leave it marked*/
     1743     5341    2       TEMPSYM$ = REPLACE_LIST.LINK$;
     1744     5342
     1745     5343    3       DO WHILE TEMPSYM$ ~= ADDR(NIL)
     1746     5344    3           AND  TEMPSYM$ -> REPLACE_ITEM.FROM_LIST$ ->BASED_LEX_SYMBOL.SYMBOL
     1747     5345    3                      ~= REPLACED_TOKEN$ -> BASED_LEX_SYMBOL.SYMBOL;
PL6.E3A0      #008=Z8EL$UNMARK_REPLACE_TOKEN File=Z8EL.:Z8A6TSI                  SAT 08/09/97 12:12 Page:398
     1748     5346    3         TEMPSYM$ = TEMPSYM$ -> REPLACE_ITEM.LINK$;
     1749     5347    3       END;
     1750     5348
     1751     5349
     1752     5350    2       IF TEMPSYM$ = ADDR(NIL) THEN
     1753     5351    3         DO;  /* Token needs to be unmarked */
     1754     5352                /* save LEX_SYMBOL temporarily */
     1755     5353                %COPY_TO_NEW_LEX_SYMBOL(FROM$="ADDR(LEX_SYMBOL)", TO$=TEMPSYM$);
     1756     5368
     1757     5369                %COPY_BASED_LEX_SYMBOL (FROM$=REPLACED_TOKEN$, TO$="ADDR(LEX_SYMBOL)");
     1758     5375    3           CALL Z8AH$SEARCH_;
     1759     5376    3           DNT$ -> DNT.B.REPLACE_TOKEN = FALSE;
     1760     5377
     1761     5378                /* restore LEX_SYMBOL */
     1762     5379                %COPY_BASED_LEX_SYMBOL(FROM$=TEMPSYM$, TO$="ADDR(LEX_SYMBOL)");
     1763     5385    3           CALL Z8ED$DISPOSE_HEAP(TEMPSYM$,
     1764     5386                                          %LEX_SYMBOL_ACTUAL_WORD_LEN(S$=TEMPSYM$);
     1765     5389    3                                    );
     1766     5390    3         END;
     1767     5391    2     END;
     1768     5392
     1769     5393    1   END Z8EL$UNMARK_REPLACE_TOKEN;
     1770     5394
     1771     5395
     1772     5396        %EOD;

PL6.E3A0      #008=Z8EL$UNMARK_REPLACE_TOKEN File=Z8EL.:Z8A6TSI                  SAT 08/09/97 12:12 Page:399
--  Include file information  --

   Z8A_LEX_SYMB.:Z8A6TOU  cannot be made into a system file and is referenced.
   Z8E_STACKS.:Z8A6TOU  cannot be made into a system file and is referenced.
   Z8E_REPLACE.:Z8A6TOU  cannot be made into a system file and is referenced.
   Z8E_HEAP.:Z8A6TOU  cannot be made into a system file and is referenced.
   Z8A_DNT.:Z8A6TOU  cannot be made into a system file and is referenced.
   X8A_COM_MACS.:X8A6TOU  is referenced.
   Z8A_NAMES.:Z8A6TOU  is referenced.
   Z8A_SUPP_MAC.:Z8A6TOU  is referenced.
   Z8A_DEFC.:Z8A6TOU  cannot be made into a system file and is referenced.
      No diagnostics issued in procedure Z8EL$UNMARK_REPLACE_TOKEN.

   Procedure Z8EL$UNMARK_REPLACE_TOKEN requires 90 words for executable code.
   Procedure Z8EL$UNMARK_REPLACE_TOKEN requires 10 words of local(AUTO) storage.

PL6.E3A0      #008=Z8EL$UNMARK_REPLACE_TOKEN File=Z8EL.:Z8A6TSI                  SAT 08/09/97 12:12 Page:400

 Object Unit name= Z8EL$UNMARK_REPLACE_TOKEN                  File name= Z8EL.:Z8A6TOU
 UTS= AUG 09 '97 12:12:31.24 SAT                              Compiler= PL-6/E31         Sev=      00
 SharedLib= :SHARED_SYSTEM                                    Alt SharedLib=


    ****  Control sections  ****

 Sect   Type Bound  Init  Size OctSiz  Section name(segment info)
    0  LblCom even  none     1      1  ITERATION
    1  LblCom even  none     1      1  DNT$
    2  LblCom even  none     5      5  DNT_
    3  LblCom even  none     1      1  DNT_BUCKET_NUMBER
    4  LblCom even  none     1      1  DNT_OF_1$
    5  LblCom even  none     1      1  HEAP$
    6  LblCom even  none     1      1  CURRENT_SYMBOL_LEVEL
    7  LblCom even  none     1      1  REPLACE_ACTIVE
    8  LblCom even  none     1      1  IGNORE_COPY_REPLACE
    9  LblCom even  none     1      1  COPY_DEBUG_LEVEL
   10  LblCom even  none     4      4  REPLACE_LIST
   11  LblCom even  none     1      1  LEX_SYMBOL_QUEUE$
   12  LblCom even  none    90    132  LEX_SYMBOL
   13  LblCom even  none     1      1  CURRENT_LEX_SYMBOL$
   14  LblCom even  none    90    132  TEMP_LEX_SYMBOL
   15  LblCom even  none    90    132  TEMP_LEX_SYMBOL2
   16   Proc  even  none    90    132  Z8EL$UNMARK_REPLACE_TOKEN
   17  RoData even  none     4      4  Z8EL$UNMARK_REPLACE_TOKEN

    ****  Entry defs  ****

                              Check   Calling
                             calling  sequence
  Sect OctLoc Primary Altret sequence   type   Parms  Name
    16      0   yes            yes      Std        1  Z8EL$UNMARK_REPLACE_TOKEN
PL6.E3A0      #008=Z8EL$UNMARK_REPLACE_TOKEN File=Z8EL.:Z8A6TSI                  SAT 08/09/97 12:12 Page:401

  ****  Entry refs  ****

         Check        Calling
        calling       sequence
Altret sequence SRef   type   Args  Name
         yes           Std       2 Z8ED$NEW_HEAP
         yes           Std       0 Z8AH$SEARCH_
         yes           Std       2 Z8ED$DISPOSE_HEAP
                       nStd      0 X66_AUTO_1
                       nStd      0 X66_ARET

  ****  Segment refs  ****

  Flags:  r = read only, s = secondary
Flgs Name                             Flgs Name                             Flgs Name
     NULLSID                               ISSID
PL6.E3A0      #008=Z8EL$UNMARK_REPLACE_TOKEN File=Z8EL.:Z8A6TSI                  SAT 08/09/97 12:12 Page:402


     1711        1        /*T***********************************************************/
     1712        2        /*T*                                                         */
     1713        3        /*T* Copyright (c) Bull HN Information Systems Inc., 1997    */
     1714        4        /*T*                                                         */
     1715        5        /*T***********************************************************/
     1716        6
     1717        7        Z8EL$UNMARK_REPLACE_TOKEN : PROC(REPLACED_TOKEN$);

      7 16 000000   000000 700200 xent  Z8EL$UNMARK* TSX0  ! X66_AUTO_1
        16 000001   000012 000001                    ZERO    10,1

     1718        8
     1719        9    1   DCL REPLACED_TOKEN$ PTR;
     1720       10
     1721       11        /* REPLACED_TOKEN$ points to the first LEX_SYMBOL on the
     1722       12           REPLACE_ITEM.FROM_LIST$ */
     1723       13        /* The REPLACE_ITEM referring to the REPLACED_TOKEN should
     1724       14           have been removed from the REPLACE_LIST linked list */
     1725       15
     1726       16    1   DCL TEMPSYM$ PTR;
     1727       17
     1728       18        %EQU PHASE = 1;
     1729       19        %INCLUDE Z8A_DEFC;
     1730       87        %INCLUDE Z8A_SUPP_MAC;
     1731     2487        %INCLUDE Z8A_DNT;
     1732     2708        %INCLUDE Z8E_HEAP;
     1733     2764        %INCLUDE Z8E_REPLACE;
     1734     3067        %INCLUDE Z8E_STACKS;
     1735     5333
     1736     5334    1   DCL Z8AH$SEARCH_ ENTRY;
     1737     5335
     1738     5336
     1739     5337    1   IF REPLACED_TOKEN$ ~= ADDR(NIL) THEN

   5337 16 000002   200003 470500                    LDP0    @REPLACED_TOKEN$,,AUTO
        16 000003   000000 236100                    LDQ     0,,PR0
PL6.E3A0      #008=Z8EL$UNMARK_REPLACE_TOKEN File=Z8EL.:Z8A6TSI                  SAT 08/09/97 12:12 Page:403
        16 000004   000000 116000 17                 CMPQ    0
        16 000005   000131 600000 16                 TZE     s:5393

     1740     5338    2     DO;

     1741     5339
     1742     5340             /* If the token is on some other list, leave it marked*/
     1743     5341    2       TEMPSYM$ = REPLACE_LIST.LINK$;

   5341 16 000006   000000 236000 10                 LDQ     REPLACE_LIST
        16 000007   200004 756100                    STQ     TEMPSYM$,,AUTO

     1744     5342
     1745     5343    3       DO WHILE TEMPSYM$ ~= ADDR(NIL)

   5343 16 000010   000014 710000 16                 TRA     s:5347

     1746     5344    3           AND  TEMPSYM$ -> REPLACE_ITEM.FROM_LIST$ ->BASED_LEX_SYMBOL.SYMBOL
     1747     5345    3                      ~= REPLACED_TOKEN$ -> BASED_LEX_SYMBOL.SYMBOL;
     1748     5346    3         TEMPSYM$ = TEMPSYM$ -> REPLACE_ITEM.LINK$;

   5346 16 000011   200004 470500                    LDP0    TEMPSYM$,,AUTO
        16 000012   000000 236100                    LDQ     0,,PR0
        16 000013   200004 756100                    STQ     TEMPSYM$,,AUTO

     1749     5347    3       END;

   5347 16 000014   000000 116000 17                 CMPQ    0
        16 000015   000030 600000 16                 TZE     s:5350
        16 000016   200004 470500                    LDP0    TEMPSYM$,,AUTO
        16 000017   000001 471500                    LDP1    1,,PR0
        16 000020   100010 720100                    LXL0    8,,PR1
        16 000021   200003 473500                    LDP3    @REPLACED_TOKEN$,,AUTO
        16 000022   300000 474500                    LDP4    0,,PR3
        16 000023   400010 721100                    LXL1    8,,PR4
        16 000024   040140 106540                    CMPC    fill='040'O
        16 000025   100011 000010                    ADSC9   9,,PR1                   cn=0,n=*X0
PL6.E3A0      #008=Z8EL$UNMARK_REPLACE_TOKEN File=Z8EL.:Z8A6TSI                  SAT 08/09/97 12:12 Page:404
        16 000026   400011 000011                    ADSC9   9,,PR4                   cn=0,n=*X1
        16 000027   000011 601000 16                 TNZ     s:5346

     1750     5348
     1751     5349
     1752     5350    2       IF TEMPSYM$ = ADDR(NIL) THEN

   5350 16 000030   000000 116000 17                 CMPQ    0
        16 000031   000131 601000 16                 TNZ     s:5393

     1753     5351    3         DO;  /* Token needs to be unmarked */

     1754     5352                /* save LEX_SYMBOL temporarily */
     1755     5353                %COPY_TO_NEW_LEX_SYMBOL(FROM$="ADDR(LEX_SYMBOL)", TO$=TEMPSYM$);

   5355 16 000032   000010 236000 12                 LDQ     LEX_SYMBOL+8
        16 000033   000047 036007                    ADLQ    39,DL
        16 000034   000004 506007                    DIV     4,DL
        16 000035   200006 756100                    STQ     TEMPSYM$+2,,AUTO
        16 000036   200006 630500                    EPPR0   TEMPSYM$+2,,AUTO
        16 000037   200011 450500                    STP0    TEMPSYM$+5,,AUTO
        16 000040   200004 631500                    EPPR1   TEMPSYM$,,AUTO
        16 000041   200010 451500                    STP1    TEMPSYM$+4,,AUTO
        16 000042   200010 630500                    EPPR0   TEMPSYM$+4,,AUTO
        16 000043   000001 631400 17                 EPPR1   1
        16 000044   000000 701000 xent               TSX1    Z8ED$NEW_HEAP
        16 000045   000000 011000                    NOP     0

   5362 16 000046   200004 470500                    LDP0    TEMPSYM$,,AUTO
        16 000047   000010 235000 12                 LDA     LEX_SYMBOL+8
        16 000050   000010 755100                    STA     8,,PR0

   5363 16 000051   000010 720100                    LXL0    8,,PR0
        16 000052   000044 621010                    EAX1    36,X0
        16 000053   000010 722000 12                 LXL2    LEX_SYMBOL+8
        16 000054   000044 623012                    EAX3    36,X2
        16 000055   000140 100440                    MLR     fill='000'O
PL6.E3A0      #008=Z8EL$UNMARK_REPLACE_TOKEN File=Z8EL.:Z8A6TSI                  SAT 08/09/97 12:12 Page:405
        16 000056   000000 000013 12                 ADSC9   LEX_SYMBOL               cn=0,n=*X3
        16 000057   000000 000011                    ADSC9   0,,PR0                   cn=0,n=*X1

     1756     5368
     1757     5369                %COPY_BASED_LEX_SYMBOL (FROM$=REPLACED_TOKEN$, TO$="ADDR(LEX_SYMBOL)");

   5371 16 000060   200003 470500                    LDP0    @REPLACED_TOKEN$,,AUTO
        16 000061   000000 471500                    LDP1    0,,PR0
        16 000062   100010 235100                    LDA     8,,PR1
        16 000063   000010 755000 12                 STA     LEX_SYMBOL+8

   5372 16 000064   000000 471500                    LDP1    0,,PR0
        16 000065   100010 720100                    LXL0    8,,PR1
        16 000066   000044 621010                    EAX1    36,X0
        16 000067   000044 622005                    EAX2    36,AL
        16 000070   000040 100540                    MLR     fill='000'O
        16 000071   100000 000011                    ADSC9   0,,PR1                   cn=0,n=*X1
        16 000072   000000 000012 12                 ADSC9   LEX_SYMBOL               cn=0,n=*X2

     1758     5375    3           CALL Z8AH$SEARCH_;

   5375 16 000073   000002 631400 17                 EPPR1   2
        16 000074   000000 701000 xent               TSX1    Z8AH$SEARCH_
        16 000075   000000 011000                    NOP     0

     1759     5376    3           DNT$ -> DNT.B.REPLACE_TOKEN = FALSE;

   5376 16 000076   000000 470400 1                  LDP0    DNT$
        16 000077   000003 236000 17                 LDQ     3
        16 000100   000003 356100                    ANSQ    3,,PR0

     1760     5377
     1761     5378                /* restore LEX_SYMBOL */
     1762     5379                %COPY_BASED_LEX_SYMBOL(FROM$=TEMPSYM$, TO$="ADDR(LEX_SYMBOL)");

   5381 16 000101   200004 471500                    LDP1    TEMPSYM$,,AUTO
        16 000102   100010 235100                    LDA     8,,PR1
PL6.E3A0      #008=Z8EL$UNMARK_REPLACE_TOKEN File=Z8EL.:Z8A6TSI                  SAT 08/09/97 12:12 Page:406
        16 000103   000010 755000 12                 STA     LEX_SYMBOL+8

   5382 16 000104   100010 720100                    LXL0    8,,PR1
        16 000105   000044 621010                    EAX1    36,X0
        16 000106   000044 622005                    EAX2    36,AL
        16 000107   000040 100540                    MLR     fill='000'O
        16 000110   100000 000011                    ADSC9   0,,PR1                   cn=0,n=*X1
        16 000111   000000 000012 12                 ADSC9   LEX_SYMBOL               cn=0,n=*X2

     1763     5385    3           CALL Z8ED$DISPOSE_HEAP(TEMPSYM$,

   5385 16 000112   100010 720100                    LXL0    8,,PR1
        16 000113   000044 621010                    EAX1    36,X0
        16 000114   000000 636011                    EAQ     0,X1
        16 000115   000022 732000                    QRS     18
        16 000116   000003 036007                    ADLQ    3,DL
        16 000117   000004 506007                    DIV     4,DL
        16 000120   200006 756100                    STQ     TEMPSYM$+2,,AUTO
        16 000121   200006 633500                    EPPR3   TEMPSYM$+2,,AUTO
        16 000122   200011 453500                    STP3    TEMPSYM$+5,,AUTO
        16 000123   200004 634500                    EPPR4   TEMPSYM$,,AUTO
        16 000124   200010 454500                    STP4    TEMPSYM$+4,,AUTO
        16 000125   200010 630500                    EPPR0   TEMPSYM$+4,,AUTO
        16 000126   000001 631400 17                 EPPR1   1
        16 000127   000000 701000 xent               TSX1    Z8ED$DISPOSE_HEAP
        16 000130   000000 011000                    NOP     0

     1764     5386                                          %LEX_SYMBOL_ACTUAL_WORD_LEN(S$=TEMPSYM$);
     1765     5389    3                                    );
     1766     5390    3         END;

     1767     5391    2     END;

     1768     5392
     1769     5393    1   END Z8EL$UNMARK_REPLACE_TOKEN;

   5393 16 000131   000000 702200 xent               TSX2  ! X66_ARET
PL6.E3A0      #008=Z8EL$UNMARK_REPLACE_TOKEN File=Z8EL.:Z8A6TSI                  SAT 08/09/97 12:12 Page:407
     1770     5394
     1771     5395
     1772     5396        %EOD;

PL6.E3A0      #008=Z8EL$UNMARK_REPLACE_TOKEN File=Z8EL.:Z8A6TSI                  SAT 08/09/97 12:12 Page:408
--  Include file information  --

   Z8A_LEX_SYMB.:Z8A6TOU  cannot be made into a system file and is referenced.
   Z8E_STACKS.:Z8A6TOU  cannot be made into a system file and is referenced.
   Z8E_REPLACE.:Z8A6TOU  cannot be made into a system file and is referenced.
   Z8E_HEAP.:Z8A6TOU  cannot be made into a system file and is referenced.
   Z8A_DNT.:Z8A6TOU  cannot be made into a system file and is referenced.
   X8A_COM_MACS.:X8A6TOU  is referenced.
   Z8A_NAMES.:Z8A6TOU  is referenced.
   Z8A_SUPP_MAC.:Z8A6TOU  is referenced.
   Z8A_DEFC.:Z8A6TOU  cannot be made into a system file and is referenced.
      No diagnostics issued in procedure Z8EL$UNMARK_REPLACE_TOKEN.
PL6.E3A0      #008=Z8EL$UNMARK_REPLACE_TOKEN File=Z8EL.:Z8A6TSI                  SAT 08/09/97 12:12 Page:409

 **** Variables and constants ****

  ****  Section 000 LblCom ITERATION

  ****  Scalars and arrays  ****
OctLoc.c.b A Datatyp(siz) R M Lvl/name                 OctLoc.c.b A Datatyp(siz) R M Lvl/name

     0-0-0/w SBIN              1 ITERATION

  ****  Section 001 LblCom DNT$

  ****  Scalars and arrays  ****
OctLoc.c.b A Datatyp(siz) R M Lvl/name                 OctLoc.c.b A Datatyp(siz) R M Lvl/name

     0-0-0/w PTR         r     1 DNT$

  ****  Section 002 LblCom DNT_

  ****  Scalars and arrays  ****
OctLoc.c.b A Datatyp(siz) R M Lvl/name                 OctLoc.c.b A Datatyp(siz) R M Lvl/name

     0-0-0/w STRC(180)         1 DNT_

  ****  Section 003 LblCom DNT_BUCKET_NUMBER

  ****  Scalars and arrays  ****
OctLoc.c.b A Datatyp(siz) R M Lvl/name                 OctLoc.c.b A Datatyp(siz) R M Lvl/name

     0-0-0/w UBIN              1 DNT_BUCKET_NUMBER

  ****  Section 004 LblCom DNT_OF_1$

  ****  Scalars and arrays  ****
OctLoc.c.b A Datatyp(siz) R M Lvl/name                 OctLoc.c.b A Datatyp(siz) R M Lvl/name

     0-0-0/w PTR               1 DNT_OF_1$

PL6.E3A0      #008=Z8EL$UNMARK_REPLACE_TOKEN File=Z8EL.:Z8A6TSI                  SAT 08/09/97 12:12 Page:410
  ****  Section 005 LblCom HEAP$

  ****  Scalars and arrays  ****
OctLoc.c.b A Datatyp(siz) R M Lvl/name                 OctLoc.c.b A Datatyp(siz) R M Lvl/name

     0-0-0/w PTR               1 HEAP$

  ****  Section 006 LblCom CURRENT_SYMBOL_LEVEL

  ****  Scalars and arrays  ****
OctLoc.c.b A Datatyp(siz) R M Lvl/name                 OctLoc.c.b A Datatyp(siz) R M Lvl/name

     0-0-0/w SBIN              1 CURRENT_SYMBOL_LEVEL

  ****  Section 007 LblCom REPLACE_ACTIVE

  ****  Scalars and arrays  ****
OctLoc.c.b A Datatyp(siz) R M Lvl/name                 OctLoc.c.b A Datatyp(siz) R M Lvl/name

     0-0-0/b BIT               1 REPLACE_ACTIVE

  ****  Section 008 LblCom IGNORE_COPY_REPLACE

  ****  Scalars and arrays  ****
OctLoc.c.b A Datatyp(siz) R M Lvl/name                 OctLoc.c.b A Datatyp(siz) R M Lvl/name

     0-0-0/b BIT               1 IGNORE_COPY_REPLACE

  ****  Section 009 LblCom COPY_DEBUG_LEVEL

  ****  Scalars and arrays  ****
OctLoc.c.b A Datatyp(siz) R M Lvl/name                 OctLoc.c.b A Datatyp(siz) R M Lvl/name

     0-0-0/w SBIN              1 COPY_DEBUG_LEVEL

  ****  Section 010 LblCom REPLACE_LIST

PL6.E3A0      #008=Z8EL$UNMARK_REPLACE_TOKEN File=Z8EL.:Z8A6TSI                  SAT 08/09/97 12:12 Page:411
  ****  Scalars and arrays  ****
OctLoc.c.b A Datatyp(siz) R M Lvl/name                 OctLoc.c.b A Datatyp(siz) R M Lvl/name

     0-0-0/w STRC(144)   r     1 REPLACE_LIST

  ****  Section 011 LblCom LEX_SYMBOL_QUEUE$

  ****  Scalars and arrays  ****
OctLoc.c.b A Datatyp(siz) R M Lvl/name                 OctLoc.c.b A Datatyp(siz) R M Lvl/name

     0-0-0/w PTR               1 LEX_SYMBOL_QUEUE$

  ****  Section 012 LblCom LEX_SYMBOL

  ****  Scalars and arrays  ****
OctLoc.c.b A Datatyp(siz) R M Lvl/name                 OctLoc.c.b A Datatyp(siz) R M Lvl/name

     0-0-0/w STRC(3240)  r     1 LEX_SYMBOL                 0-0-0/w STRC(3240)        1 LEX_SYMBOL_WORDS

  ****  Section 013 LblCom CURRENT_LEX_SYMBOL$

  ****  Scalars and arrays  ****
OctLoc.c.b A Datatyp(siz) R M Lvl/name                 OctLoc.c.b A Datatyp(siz) R M Lvl/name

     0-0-0/w PTR         r     1 CURRENT_LEX_SYMBOL$

  ****  Section 014 LblCom TEMP_LEX_SYMBOL

  ****  Scalars and arrays  ****
OctLoc.c.b A Datatyp(siz) R M Lvl/name                 OctLoc.c.b A Datatyp(siz) R M Lvl/name

     0-0-0/w STRC(3240)        1 TEMP_LEX_SYMBOL

  ****  Section 015 LblCom TEMP_LEX_SYMBOL2

  ****  Scalars and arrays  ****
OctLoc.c.b A Datatyp(siz) R M Lvl/name                 OctLoc.c.b A Datatyp(siz) R M Lvl/name
PL6.E3A0      #008=Z8EL$UNMARK_REPLACE_TOKEN File=Z8EL.:Z8A6TSI                  SAT 08/09/97 12:12 Page:412

     0-0-0/w STRC(3240)        1 TEMP_LEX_SYMBOL2

  ****  Auto variables  ****

  ****  Scalars and arrays  ****
OctLoc.c.b A Datatyp(siz) R M Lvl/name                 OctLoc.c.b A Datatyp(siz) R M Lvl/name

     3-0-0/w PTR         r     1 @REPLACED_TOKEN$          *0-0-0/w PTR         r     1 REPLACED_TOKEN$
     4-0-0/w PTR         r     1 TEMPSYM$

  ****  BASED and DCB variables  ****

  ****  Scalars and arrays  ****
OctLoc.c.b A Datatyp(siz) R M Lvl/name                 OctLoc.c.b A Datatyp(siz) R M Lvl/name

     0-0-0/w STRC(288)         1 ADD_STMT                   0-0-0/w ASTR(324)   r     1 BASED_LEX_SYMBOL
     0-0-0/w STRC(360)         1 BASED_LEX_SYMBOL_WORDS
     0-0-0/w STRC(288)         1 BINARY_OP                  0-0-0/w STRC(288)         1 CALL_STMT
     0-0-0/w CHAR(4096)        1 CHARS                      0-0-0/w STRC(288)         1 COMPUTE_STMT
     0-0-0/w STRC(72)          1 CONT                       0-0-0/w STRC(288)         1 DEFERED_IDENTIFIER
     0-0-0/w STRC(252)         1 DEFERED_ID_TREE            0-0-0/w STRC(288)         1 DEFERED_QUAL_ID
     0-0-0/w STRC(288)         1 DEFERED_SUM_CLAUSE
     0-0-0/w STRC(288)         1 DEFERED_SUM_CLAUSE_LIST
     0-0-0/w STRC(288)         1 DELETE_STMT                0-0-0/w STRC(288)         1 DIVIDE_STMT
     0-0-0/w ASTR(180)   r     1 DNT                        0-0-0/w STRC(288)         1 ILS_LIST
     0-0-0/w STRC(288)         1 INSPECT_1_STMT             0-0-0/w STRC(288)         1 INSPECT_2_STMT
     0-0-0/w STRC(288)         1 INSPECT_4_STMT             0-0-0/w STRC(288)         1 LA_ITEM
     0-0-0/w STRC(504)         1 LX_CD_INPUT                0-0-0/w STRC(324)         1 LX_CD_I_O
     0-0-0/w STRC(396)         1 LX_CD_OUTPUT               0-0-0/w STRC(288)         1 LX_ETT_ITEM
     0-0-0/w STRC(288)         1 LX_ITEM                    0-0-0/w STRC(288)         1 LX_LARGE
     0-0-0/w STRC(288)         1 LX_LIST                    0-0-0/w STRC(1224)        1 LX_REC_DECL
     0-0-0/w STRC(864)         1 LX_REPORT_REC              0-0-0/w STRC(288)         1 LX_TERMINAL
     0-0-0/w STRC(288)         1 MULTIPLY_STMT              0-0-0/w STRC(36864)       1 PAGE
     0-0-0/w STRC(288)         1 READ_STMT                  0-0-0/w STRC(252)   r     1 REPLACE_ITEM
     0-0-0/w STRC(288)         1 REWRITE_STMT               0-0-0/w STRC(288)         1 START_STMT
     0-0-0/w STRC(252)         1 STRING_STMT                0-0-0/w STRC(288)         1 SUBTRACT_STMT
PL6.E3A0      #008=Z8EL$UNMARK_REPLACE_TOKEN File=Z8EL.:Z8A6TSI                  SAT 08/09/97 12:12 Page:413
     0-0-0/w STRC(288)         1 UNARY_OP                   0-0-0/w STRC(288)         1 UNSTRING_STMT
     0-0-0/w STRC(288)         1 WRITE_STMT


   Procedure Z8EL$UNMARK_REPLACE_TOKEN requires 90 words for executable code.
   Procedure Z8EL$UNMARK_REPLACE_TOKEN requires 10 words of local(AUTO) storage.

PL6.E3A0      #009=Z8EL$MARK_REPL_TOKEN File=Z8EL.:Z8A6TSI                       SAT 08/09/97 12:13 Page:414
     1773        1        /*T***********************************************************/
     1774        2        /*T*                                                         */
     1775        3        /*T* Copyright (c) Bull HN Information Systems Inc., 1997    */
     1776        4        /*T*                                                         */
     1777        5        /*T***********************************************************/
     1778        6        Z8EL$MARK_REPL_TOKEN : PROC(REPLACED_TOKEN$);
     1779        7
     1780        8    1   DCL REPLACED_TOKEN$ PTR;
     1781        9
     1782       10        /* REPLACED_TOKEN$ points to the first LEX_SYMBOL on the
     1783       11           REPLACE_ITEM.FROM_LIST$ */
     1784       12
     1785       13
     1786       14    1   DCL TDNT$ PTR;
     1787       15
     1788       16        %EQU PHASE = 1;
     1789       17        %INCLUDE Z8A_DEFC;
     1790       85        %INCLUDE Z8A_SUPP_MAC;
     1791     2485        %INCLUDE Z8A_DNT;
     1792     2706        %INCLUDE Z8E_HEAP;
     1793     2762        %INCLUDE Z8E_REPLACE;
     1794     3065        %INCLUDE Z8E_STACKS;
     1795     5331
     1796     5332        %DEF_BUCKETS;
     1797     5335
     1798     5336    1   DCL Z8AH$SEARCH_ ENTRY;
     1799     5337
     1800     5338
     1801     5339    1   IF REPLACED_TOKEN$ ~= ADDR(NIL) THEN
     1802     5340    2     DO;
     1803     5341            %COPY_BASED_LEX_SYMBOL(FROM$=REPLACED_TOKEN$, TO$="ADDR(LEX_SYMBOL)");
     1804     5347    2       CALL Z8AH$SEARCH_;
     1805     5348
     1806     5349    2       IF NOT DNT$ -> DNT.B.REPLACE_TOKEN THEN
     1807     5350    3         DO;
     1808     5351    3           IF DNT$ -> DNT.B.RW THEN
     1809     5352    4             DO;
PL6.E3A0      #009=Z8EL$MARK_REPL_TOKEN File=Z8EL.:Z8A6TSI                       SAT 08/09/97 12:13 Page:415
     1810     5353    4               TDNT$ = DNT$;
     1811     5354                    %RESERVE_DNT(SIZE="TDNT$ -> DNT.TEXT.LENGTH");
     1812     5366    4               DNT$ -> DNT = TDNT$ -> DNT;
     1813     5367    4               DNT$ -> DNT.NEXT = DNT_BUCKETS(DNT_BUCKET_NUMBER);
     1814     5368    4               DNT_BUCKETS(DNT_BUCKET_NUMBER) = DNT$;
     1815     5369    4             END;
     1816     5370
     1817     5371    3           DNT$ -> DNT.B.REPLACE_TOKEN = TRUE;
     1818     5372    3         END;
     1819     5373    2     END;
     1820     5374
     1821     5375    1   END Z8EL$MARK_REPL_TOKEN;
     1822     5376
     1823     5377
     1824     5378        %EOD;

PL6.E3A0      #009=Z8EL$MARK_REPL_TOKEN File=Z8EL.:Z8A6TSI                       SAT 08/09/97 12:13 Page:416
--  Include file information  --

   Z8A_LEX_SYMB.:Z8A6TOU  cannot be made into a system file and is referenced.
   Z8E_STACKS.:Z8A6TOU  cannot be made into a system file and is referenced.
   Z8E_REPLACE.:Z8A6TOU  cannot be made into a system file and is referenced.
   Z8E_HEAP.:Z8A6TOU  cannot be made into a system file and is referenced.
   Z8A_DNT.:Z8A6TOU  cannot be made into a system file and is referenced.
   X8A_COM_MACS.:X8A6TOU  is referenced.
   Z8A_NAMES.:Z8A6TOU  is referenced.
   Z8A_SUPP_MAC.:Z8A6TOU  is referenced.
   Z8A_DEFC.:Z8A6TOU  cannot be made into a system file and is referenced.
      No diagnostics issued in procedure Z8EL$MARK_REPL_TOKEN.

   Procedure Z8EL$MARK_REPL_TOKEN requires 78 words for executable code.
   Procedure Z8EL$MARK_REPL_TOKEN requires 8 words of local(AUTO) storage.

PL6.E3A0      #009=Z8EL$MARK_REPL_TOKEN File=Z8EL.:Z8A6TSI                       SAT 08/09/97 12:13 Page:417

 Object Unit name= Z8EL$MARK_REPL_TOKEN                       File name= Z8EL.:Z8A6TOU
 UTS= AUG 09 '97 12:13:15.92 SAT                              Compiler= PL-6/E31         Sev=      00
 SharedLib= :SHARED_SYSTEM                                    Alt SharedLib=


    ****  Control sections  ****

 Sect   Type Bound  Init  Size OctSiz  Section name(segment info)
    0  LblCom even  none     1      1  ITERATION
    1  LblCom even  none     1      1  DNT$
    2  LblCom even  none     5      5  DNT_
    3  LblCom even  none     1      1  DNT_BUCKET_NUMBER
    4  LblCom even  none     1      1  DNT_OF_1$
    5  LblCom even  none     1      1  HEAP$
    6  LblCom even  none     1      1  CURRENT_SYMBOL_LEVEL
    7  LblCom even  none     1      1  REPLACE_ACTIVE
    8  LblCom even  none     1      1  IGNORE_COPY_REPLACE
    9  LblCom even  none     1      1  COPY_DEBUG_LEVEL
   10  LblCom even  none     4      4  REPLACE_LIST
   11  LblCom even  none     1      1  LEX_SYMBOL_QUEUE$
   12  LblCom even  none    90    132  LEX_SYMBOL
   13  LblCom even  none     1      1  CURRENT_LEX_SYMBOL$
   14  LblCom even  none    90    132  TEMP_LEX_SYMBOL
   15  LblCom even  none    90    132  TEMP_LEX_SYMBOL2
   16   Proc  even  none    78    116  Z8EL$MARK_REPL_TOKEN
   17  RoData even  none     4      4  Z8EL$MARK_REPL_TOKEN

    ****  Entry defs  ****

                              Check   Calling
                             calling  sequence
  Sect OctLoc Primary Altret sequence   type   Parms  Name
    16      0   yes            yes      Std        1  Z8EL$MARK_REPL_TOKEN
PL6.E3A0      #009=Z8EL$MARK_REPL_TOKEN File=Z8EL.:Z8A6TSI                       SAT 08/09/97 12:13 Page:418

  ****  Entry refs  ****

         Check        Calling
        calling       sequence
Altret sequence SRef   type   Args  Name
         yes           Std       0 Z8AH$SEARCH_
         yes           Std       1 Z8AR$RESERVER
                       nStd      0 X66_AUTO_1
                       nStd      0 X66_ARET

  ****  Data refs  ****

  Flags:  r = read only, s = secondary
Flgs Name                             Flgs Name                             Flgs Name
     DNT_BUCKETS

  ****  Segment refs  ****

  Flags:  r = read only, s = secondary
Flgs Name                             Flgs Name                             Flgs Name
     NULLSID                               ISSID
PL6.E3A0      #009=Z8EL$MARK_REPL_TOKEN File=Z8EL.:Z8A6TSI                       SAT 08/09/97 12:13 Page:419


     1773        1        /*T***********************************************************/
     1774        2        /*T*                                                         */
     1775        3        /*T* Copyright (c) Bull HN Information Systems Inc., 1997    */
     1776        4        /*T*                                                         */
     1777        5        /*T***********************************************************/
     1778        6        Z8EL$MARK_REPL_TOKEN : PROC(REPLACED_TOKEN$);

      6 16 000000   000000 700200 xent  Z8EL$MARK_R* TSX0  ! X66_AUTO_1
        16 000001   000010 000001                    ZERO    8,1

     1779        7
     1780        8    1   DCL REPLACED_TOKEN$ PTR;
     1781        9
     1782       10        /* REPLACED_TOKEN$ points to the first LEX_SYMBOL on the
     1783       11           REPLACE_ITEM.FROM_LIST$ */
     1784       12
     1785       13
     1786       14    1   DCL TDNT$ PTR;
     1787       15
     1788       16        %EQU PHASE = 1;
     1789       17        %INCLUDE Z8A_DEFC;
     1790       85        %INCLUDE Z8A_SUPP_MAC;
     1791     2485        %INCLUDE Z8A_DNT;
     1792     2706        %INCLUDE Z8E_HEAP;
     1793     2762        %INCLUDE Z8E_REPLACE;
     1794     3065        %INCLUDE Z8E_STACKS;
     1795     5331
     1796     5332        %DEF_BUCKETS;
     1797     5335
     1798     5336    1   DCL Z8AH$SEARCH_ ENTRY;
     1799     5337
     1800     5338
     1801     5339    1   IF REPLACED_TOKEN$ ~= ADDR(NIL) THEN

   5339 16 000002   200003 470500                    LDP0    @REPLACED_TOKEN$,,AUTO
        16 000003   000000 236100                    LDQ     0,,PR0
PL6.E3A0      #009=Z8EL$MARK_REPL_TOKEN File=Z8EL.:Z8A6TSI                       SAT 08/09/97 12:13 Page:420
        16 000004   000000 116000 17                 CMPQ    0
        16 000005   000115 600000 16                 TZE     s:5375

     1802     5340    2     DO;

     1803     5341            %COPY_BASED_LEX_SYMBOL(FROM$=REPLACED_TOKEN$, TO$="ADDR(LEX_SYMBOL)");

   5343 16 000006   000000 471500                    LDP1    0,,PR0
        16 000007   100010 235100                    LDA     8,,PR1
        16 000010   000010 755000 12                 STA     LEX_SYMBOL+8

   5344 16 000011   000000 471500                    LDP1    0,,PR0
        16 000012   100010 720100                    LXL0    8,,PR1
        16 000013   000044 621010                    EAX1    36,X0
        16 000014   000044 622005                    EAX2    36,AL
        16 000015   000040 100540                    MLR     fill='000'O
        16 000016   100000 000011                    ADSC9   0,,PR1                   cn=0,n=*X1
        16 000017   000000 000012 12                 ADSC9   LEX_SYMBOL               cn=0,n=*X2

     1804     5347    2       CALL Z8AH$SEARCH_;

   5347 16 000020   000001 631400 17                 EPPR1   1
        16 000021   000000 701000 xent               TSX1    Z8AH$SEARCH_
        16 000022   000000 011000                    NOP     0

     1805     5348
     1806     5349    2       IF NOT DNT$ -> DNT.B.REPLACE_TOKEN THEN

   5349 16 000023   000000 470400 1                  LDP0    DNT$
        16 000024   000003 236100                    LDQ     3,,PR0
        16 000025   010000 316003                    CANQ    4096,DU
        16 000026   000115 601000 16                 TNZ     s:5375

     1807     5350    3         DO;

     1808     5351    3           IF DNT$ -> DNT.B.RW THEN

PL6.E3A0      #009=Z8EL$MARK_REPL_TOKEN File=Z8EL.:Z8A6TSI                       SAT 08/09/97 12:13 Page:421
   5351 16 000027   000003 234100                    SZN     3,,PR0
        16 000030   000112 605000 16                 TPL     s:5371

     1809     5352    4             DO;

     1810     5353    4               TDNT$ = DNT$;

   5353 16 000031   000000 236000 1                  LDQ     DNT$
        16 000032   200004 756100                    STQ     TDNT$,,AUTO

     1811     5354                    %RESERVE_DNT(SIZE="TDNT$ -> DNT.TEXT.LENGTH");

   5356 16 000033   200004 471500                    LDP1    TDNT$,,AUTO
        16 000034   100004 236100                    LDQ     4,,PR1
        16 000035   000022 772000                    QRL     18
        16 000036   000025 036007                    ADLQ    21,DL
        16 000037   000002 772000                    QRL     2
        16 000040   000000 756000 0                  STQ     ITERATION

   5357 16 000041   000002 036000 2                  ADLQ    DNT_+2
        16 000042   000055 604000 16                 TMI     s:5359
        16 000043   000003 116000 2                  CMPQ    DNT_+3
        16 000044   000055 602000 16                 TNC     s:5359

   5358 16 000045   000003 236000 17                 LDQ     3
        16 000046   200006 756100                    STQ     TDNT$+2,,AUTO
        16 000047   200006 633500                    EPPR3   TDNT$+2,,AUTO
        16 000050   200007 453500                    STP3    TDNT$+3,,AUTO
        16 000051   200007 630500                    EPPR0   TDNT$+3,,AUTO
        16 000052   000002 631400 17                 EPPR1   2
        16 000053   000000 701000 xent               TSX1    Z8AR$RESERVER
        16 000054   000000 011000                    NOP     0

   5359 16 000055   000002 236000 2                  LDQ     DNT_+2
        16 000056   000022 736000                    QLS     18
        16 000057   000001 036000 2                  ADLQ    DNT_+1
        16 000060   000000 756000 1                  STQ     DNT$
PL6.E3A0      #009=Z8EL$MARK_REPL_TOKEN File=Z8EL.:Z8A6TSI                       SAT 08/09/97 12:13 Page:422

   5360 16 000061   000002 236000 2                  LDQ     DNT_+2
        16 000062   000000 036000 0                  ADLQ    ITERATION
        16 000063   000002 756000 2                  STQ     DNT_+2

   5361 16 000064   001046 220003                    LDX0    550,DU
        16 000065   000000 470400 1                  LDP0    DNT$
        16 000066   000000 740100                    STX0    0,,PR0

   5362 16 000067   000000 721000 0                  LXL1    ITERATION
        16 000070   000000 470400 1                  LDP0    DNT$
        16 000071   000000 441100                    SXL1    0,,PR0

   5363 16 000072   200004 470500                    LDP0    TDNT$,,AUTO
        16 000073   000004 221100                    LDX1    4,,PR0
        16 000074   000000 471400 1                  LDP1    DNT$
        16 000075   100004 741100                    STX1    4,,PR1

     1812     5366    4               DNT$ -> DNT = TDNT$ -> DNT;

   5366 16 000076   000022 622011                    EAX2    18,X1
        16 000077   000004 223100                    LDX3    4,,PR0
        16 000100   000022 624013                    EAX4    18,X3
        16 000101   000140 100540                    MLR     fill='000'O
        16 000102   000000 000014                    ADSC9   0,,PR0                   cn=0,n=*X4
        16 000103   100000 000012                    ADSC9   0,,PR1                   cn=0,n=*X2

     1813     5367    4               DNT$ -> DNT.NEXT = DNT_BUCKETS(DNT_BUCKET_NUMBER);

   5367 16 000104   000000 721000 3                  LXL1    DNT_BUCKET_NUMBER
        16 000105   000000 236011 xsym               LDQ     DNT_BUCKETS,X1
        16 000106   000000 471400 1                  LDP1    DNT$
        16 000107   100002 756100                    STQ     2,,PR1

     1814     5368    4               DNT_BUCKETS(DNT_BUCKET_NUMBER) = DNT$;

   5368 16 000110   000000 236000 1                  LDQ     DNT$
PL6.E3A0      #009=Z8EL$MARK_REPL_TOKEN File=Z8EL.:Z8A6TSI                       SAT 08/09/97 12:13 Page:423
        16 000111   000000 756011 xsym               STQ     DNT_BUCKETS,X1

     1815     5369    4             END;

     1816     5370
     1817     5371    3           DNT$ -> DNT.B.REPLACE_TOKEN = TRUE;

   5371 16 000112   000000 470400 1                  LDP0    DNT$
        16 000113   010000 236003                    LDQ     4096,DU
        16 000114   000003 256100                    ORSQ    3,,PR0

     1818     5372    3         END;

     1819     5373    2     END;

     1820     5374
     1821     5375    1   END Z8EL$MARK_REPL_TOKEN;

   5375 16 000115   000000 702200 xent               TSX2  ! X66_ARET
     1822     5376
     1823     5377
     1824     5378        %EOD;

PL6.E3A0      #009=Z8EL$MARK_REPL_TOKEN File=Z8EL.:Z8A6TSI                       SAT 08/09/97 12:13 Page:424
--  Include file information  --

   Z8A_LEX_SYMB.:Z8A6TOU  cannot be made into a system file and is referenced.
   Z8E_STACKS.:Z8A6TOU  cannot be made into a system file and is referenced.
   Z8E_REPLACE.:Z8A6TOU  cannot be made into a system file and is referenced.
   Z8E_HEAP.:Z8A6TOU  cannot be made into a system file and is referenced.
   Z8A_DNT.:Z8A6TOU  cannot be made into a system file and is referenced.
   X8A_COM_MACS.:X8A6TOU  is referenced.
   Z8A_NAMES.:Z8A6TOU  is referenced.
   Z8A_SUPP_MAC.:Z8A6TOU  is referenced.
   Z8A_DEFC.:Z8A6TOU  cannot be made into a system file and is referenced.
      No diagnostics issued in procedure Z8EL$MARK_REPL_TOKEN.
PL6.E3A0      #009=Z8EL$MARK_REPL_TOKEN File=Z8EL.:Z8A6TSI                       SAT 08/09/97 12:13 Page:425

 **** Variables and constants ****

  ****  Section 000 LblCom ITERATION

  ****  Scalars and arrays  ****
OctLoc.c.b A Datatyp(siz) R M Lvl/name                 OctLoc.c.b A Datatyp(siz) R M Lvl/name

     0-0-0/w SBIN        r     1 ITERATION

  ****  Section 001 LblCom DNT$

  ****  Scalars and arrays  ****
OctLoc.c.b A Datatyp(siz) R M Lvl/name                 OctLoc.c.b A Datatyp(siz) R M Lvl/name

     0-0-0/w PTR         r     1 DNT$

  ****  Section 002 LblCom DNT_

  ****  Scalars and arrays  ****
OctLoc.c.b A Datatyp(siz) R M Lvl/name                 OctLoc.c.b A Datatyp(siz) R M Lvl/name

     0-0-0/w STRC(180)   r     1 DNT_

  ****  Section 003 LblCom DNT_BUCKET_NUMBER

  ****  Scalars and arrays  ****
OctLoc.c.b A Datatyp(siz) R M Lvl/name                 OctLoc.c.b A Datatyp(siz) R M Lvl/name

     0-0-0/w UBIN        r     1 DNT_BUCKET_NUMBER

  ****  Section 004 LblCom DNT_OF_1$

  ****  Scalars and arrays  ****
OctLoc.c.b A Datatyp(siz) R M Lvl/name                 OctLoc.c.b A Datatyp(siz) R M Lvl/name

     0-0-0/w PTR               1 DNT_OF_1$

PL6.E3A0      #009=Z8EL$MARK_REPL_TOKEN File=Z8EL.:Z8A6TSI                       SAT 08/09/97 12:13 Page:426
  ****  Section 005 LblCom HEAP$

  ****  Scalars and arrays  ****
OctLoc.c.b A Datatyp(siz) R M Lvl/name                 OctLoc.c.b A Datatyp(siz) R M Lvl/name

     0-0-0/w PTR               1 HEAP$

  ****  Section 006 LblCom CURRENT_SYMBOL_LEVEL

  ****  Scalars and arrays  ****
OctLoc.c.b A Datatyp(siz) R M Lvl/name                 OctLoc.c.b A Datatyp(siz) R M Lvl/name

     0-0-0/w SBIN              1 CURRENT_SYMBOL_LEVEL

  ****  Section 007 LblCom REPLACE_ACTIVE

  ****  Scalars and arrays  ****
OctLoc.c.b A Datatyp(siz) R M Lvl/name                 OctLoc.c.b A Datatyp(siz) R M Lvl/name

     0-0-0/b BIT               1 REPLACE_ACTIVE

  ****  Section 008 LblCom IGNORE_COPY_REPLACE

  ****  Scalars and arrays  ****
OctLoc.c.b A Datatyp(siz) R M Lvl/name                 OctLoc.c.b A Datatyp(siz) R M Lvl/name

     0-0-0/b BIT               1 IGNORE_COPY_REPLACE

  ****  Section 009 LblCom COPY_DEBUG_LEVEL

  ****  Scalars and arrays  ****
OctLoc.c.b A Datatyp(siz) R M Lvl/name                 OctLoc.c.b A Datatyp(siz) R M Lvl/name

     0-0-0/w SBIN              1 COPY_DEBUG_LEVEL

  ****  Section 010 LblCom REPLACE_LIST

PL6.E3A0      #009=Z8EL$MARK_REPL_TOKEN File=Z8EL.:Z8A6TSI                       SAT 08/09/97 12:13 Page:427
  ****  Scalars and arrays  ****
OctLoc.c.b A Datatyp(siz) R M Lvl/name                 OctLoc.c.b A Datatyp(siz) R M Lvl/name

     0-0-0/w STRC(144)         1 REPLACE_LIST

  ****  Section 011 LblCom LEX_SYMBOL_QUEUE$

  ****  Scalars and arrays  ****
OctLoc.c.b A Datatyp(siz) R M Lvl/name                 OctLoc.c.b A Datatyp(siz) R M Lvl/name

     0-0-0/w PTR               1 LEX_SYMBOL_QUEUE$

  ****  Section 012 LblCom LEX_SYMBOL

  ****  Scalars and arrays  ****
OctLoc.c.b A Datatyp(siz) R M Lvl/name                 OctLoc.c.b A Datatyp(siz) R M Lvl/name

     0-0-0/w STRC(3240)  r     1 LEX_SYMBOL                 0-0-0/w STRC(3240)        1 LEX_SYMBOL_WORDS

  ****  Section 013 LblCom CURRENT_LEX_SYMBOL$

  ****  Scalars and arrays  ****
OctLoc.c.b A Datatyp(siz) R M Lvl/name                 OctLoc.c.b A Datatyp(siz) R M Lvl/name

     0-0-0/w PTR         r     1 CURRENT_LEX_SYMBOL$

  ****  Section 014 LblCom TEMP_LEX_SYMBOL

  ****  Scalars and arrays  ****
OctLoc.c.b A Datatyp(siz) R M Lvl/name                 OctLoc.c.b A Datatyp(siz) R M Lvl/name

     0-0-0/w STRC(3240)        1 TEMP_LEX_SYMBOL

  ****  Section 015 LblCom TEMP_LEX_SYMBOL2

  ****  Scalars and arrays  ****
OctLoc.c.b A Datatyp(siz) R M Lvl/name                 OctLoc.c.b A Datatyp(siz) R M Lvl/name
PL6.E3A0      #009=Z8EL$MARK_REPL_TOKEN File=Z8EL.:Z8A6TSI                       SAT 08/09/97 12:13 Page:428

     0-0-0/w STRC(3240)        1 TEMP_LEX_SYMBOL2

  ****  Auto variables  ****

  ****  Scalars and arrays  ****
OctLoc.c.b A Datatyp(siz) R M Lvl/name                 OctLoc.c.b A Datatyp(siz) R M Lvl/name

     3-0-0/w PTR         r     1 @REPLACED_TOKEN$          *0-0-0/w PTR         r     1 REPLACED_TOKEN$
     4-0-0/w PTR         r     1 TDNT$

  ****  SYMREF variables  ****

  ****  Scalars and arrays  ****
OctLoc.c.b A Datatyp(siz) R M Lvl/name                 OctLoc.c.b A Datatyp(siz) R M Lvl/name

     0-0-0/w PTR         r     1 DNT_BUCKETS(0:1128)

  ****  BASED and DCB variables  ****

  ****  Scalars and arrays  ****
OctLoc.c.b A Datatyp(siz) R M Lvl/name                 OctLoc.c.b A Datatyp(siz) R M Lvl/name

     0-0-0/w STRC(288)         1 ADD_STMT                   0-0-0/w ASTR(324)   r     1 BASED_LEX_SYMBOL
     0-0-0/w STRC(360)         1 BASED_LEX_SYMBOL_WORDS
     0-0-0/w STRC(288)         1 BINARY_OP                  0-0-0/w STRC(288)         1 CALL_STMT
     0-0-0/w CHAR(4096)        1 CHARS                      0-0-0/w STRC(288)         1 COMPUTE_STMT
     0-0-0/w STRC(72)          1 CONT                       0-0-0/w STRC(288)         1 DEFERED_IDENTIFIER
     0-0-0/w STRC(252)         1 DEFERED_ID_TREE            0-0-0/w STRC(288)         1 DEFERED_QUAL_ID
     0-0-0/w STRC(288)         1 DEFERED_SUM_CLAUSE
     0-0-0/w STRC(288)         1 DEFERED_SUM_CLAUSE_LIST
     0-0-0/w STRC(288)         1 DELETE_STMT                0-0-0/w STRC(288)         1 DIVIDE_STMT
     0-0-0/w ASTR(180)   r     1 DNT                        0-0-0/w STRC(288)         1 ILS_LIST
     0-0-0/w STRC(288)         1 INSPECT_1_STMT             0-0-0/w STRC(288)         1 INSPECT_2_STMT
     0-0-0/w STRC(288)         1 INSPECT_4_STMT             0-0-0/w STRC(288)         1 LA_ITEM
     0-0-0/w STRC(504)         1 LX_CD_INPUT                0-0-0/w STRC(324)         1 LX_CD_I_O
     0-0-0/w STRC(396)         1 LX_CD_OUTPUT               0-0-0/w STRC(288)         1 LX_ETT_ITEM
PL6.E3A0      #009=Z8EL$MARK_REPL_TOKEN File=Z8EL.:Z8A6TSI                       SAT 08/09/97 12:13 Page:429
     0-0-0/w STRC(288)         1 LX_ITEM                    0-0-0/w STRC(288)         1 LX_LARGE
     0-0-0/w STRC(288)         1 LX_LIST                    0-0-0/w STRC(1224)        1 LX_REC_DECL
     0-0-0/w STRC(864)         1 LX_REPORT_REC              0-0-0/w STRC(288)         1 LX_TERMINAL
     0-0-0/w STRC(288)         1 MULTIPLY_STMT              0-0-0/w STRC(36864)       1 PAGE
     0-0-0/w STRC(288)         1 READ_STMT                  0-0-0/w STRC(252)         1 REPLACE_ITEM
     0-0-0/w STRC(288)         1 REWRITE_STMT               0-0-0/w STRC(288)         1 START_STMT
     0-0-0/w STRC(252)         1 STRING_STMT                0-0-0/w STRC(288)         1 SUBTRACT_STMT
     0-0-0/w STRC(288)         1 UNARY_OP                   0-0-0/w STRC(288)         1 UNSTRING_STMT
     0-0-0/w STRC(288)         1 WRITE_STMT


   Procedure Z8EL$MARK_REPL_TOKEN requires 78 words for executable code.
   Procedure Z8EL$MARK_REPL_TOKEN requires 8 words of local(AUTO) storage.

PL6.E3A0      #010=Z8EL$POSITION_TO_LEVEL File=Z8EL.:Z8A6TSI                     SAT 08/09/97 12:14 Page:430
     1825        1        /*T***********************************************************/
     1826        2        /*T*                                                         */
     1827        3        /*T* Copyright (c) Bull HN Information Systems Inc., 1997    */
     1828        4        /*T*                                                         */
     1829        5        /*T***********************************************************/
     1830        6        Z8EL$POSITION_TO_LEVEL : PROC (REQ_LEVEL, REPLACE$);
     1831        7
     1832        8    1   DCL REQ_LEVEL SBIN WORD;
     1833        9    1   DCL REPLACE$ PTR;
     1834       10
     1835       11        /* Returns pointer to item (or head of list) which points to
     1836       12           the desired level item.  Does not point directly to item
     1837       13           so that list manipulations can be done.
     1838       14        */
     1839       15
     1840       16        %EQU PHASE=1;
     1841       17        %INCLUDE Z8A_DEFC;
     1842       85        %INCLUDE Z8A_SUPP_MAC;
     1843     2485        %INCLUDE Z8E_REPLACE;
     1844     2788
     1845     2789
     1846     2790    1   REPLACE$ = ADDR(REPLACE_LIST);
     1847     2791
     1848     2792    2   DO WHILE REPLACE$ -> REPLACE_ITEM.LINK$ ~= ADDR(NIL)
     1849     2793    2                AND REPLACE$ -> REPLACE_ITEM.LINK$ ->
     1850     2794    2                         REPLACE_ITEM.LEVEL > REQ_LEVEL;
     1851     2795    2     REPLACE$ = REPLACE$ -> REPLACE_ITEM.LINK$;
     1852     2796    2   END;
     1853     2797
     1854     2798    1   END Z8EL$POSITION_TO_LEVEL;
     1855     2799
     1856     2800
     1857     2801        %EOD;

PL6.E3A0      #010=Z8EL$POSITION_TO_LEVEL File=Z8EL.:Z8A6TSI                     SAT 08/09/97 12:14 Page:431
--  Include file information  --

   Z8E_REPLACE.:Z8A6TOU  cannot be made into a system file and is referenced.
   X8A_COM_MACS.:X8A6TOU  is referenced.
   Z8A_NAMES.:Z8A6TOU  is referenced.
   Z8A_SUPP_MAC.:Z8A6TOU  is referenced.
   Z8A_DEFC.:Z8A6TOU  cannot be made into a system file and is referenced.
      No diagnostics issued in procedure Z8EL$POSITION_TO_LEVEL.

   Procedure Z8EL$POSITION_TO_LEVEL requires 20 words for executable code.
   Procedure Z8EL$POSITION_TO_LEVEL requires 6 words of local(AUTO) storage.

PL6.E3A0      #010=Z8EL$POSITION_TO_LEVEL File=Z8EL.:Z8A6TSI                     SAT 08/09/97 12:14 Page:432

 Object Unit name= Z8EL$POSITION_TO_LEVEL                     File name= Z8EL.:Z8A6TOU
 UTS= AUG 09 '97 12:14:03.48 SAT                              Compiler= PL-6/E31         Sev=      00
 SharedLib= :SHARED_SYSTEM                                    Alt SharedLib=


    ****  Control sections  ****

 Sect   Type Bound  Init  Size OctSiz  Section name(segment info)
    0  LblCom even  none     1      1  ITERATION
    1  LblCom even  none     1      1  CURRENT_SYMBOL_LEVEL
    2  LblCom even  none     1      1  REPLACE_ACTIVE
    3  LblCom even  none     1      1  IGNORE_COPY_REPLACE
    4  LblCom even  none     1      1  COPY_DEBUG_LEVEL
    5  LblCom even  none     4      4  REPLACE_LIST
    6  LblCom even  none     1      1  LEX_SYMBOL_QUEUE$
    7   Proc  even  none    20     24  Z8EL$POSITION_TO_LEVEL
    8  RoData even  none     2      2  Z8EL$POSITION_TO_LEVEL

    ****  Entry defs  ****

                              Check   Calling
                             calling  sequence
  Sect OctLoc Primary Altret sequence   type   Parms  Name
     7      0   yes            yes      Std        2  Z8EL$POSITION_TO_LEVEL

  ****  Entry refs  ****

         Check        Calling
        calling       sequence
Altret sequence SRef   type   Args  Name
                       nStd      0 X66_AUTO_2
                       nStd      0 X66_ARET
PL6.E3A0      #010=Z8EL$POSITION_TO_LEVEL File=Z8EL.:Z8A6TSI                     SAT 08/09/97 12:14 Page:433

  ****  Segment refs  ****

  Flags:  r = read only, s = secondary
Flgs Name                             Flgs Name                             Flgs Name
     NULLSID                               ISSID
PL6.E3A0      #010=Z8EL$POSITION_TO_LEVEL File=Z8EL.:Z8A6TSI                     SAT 08/09/97 12:14 Page:434


     1825        1        /*T***********************************************************/
     1826        2        /*T*                                                         */
     1827        3        /*T* Copyright (c) Bull HN Information Systems Inc., 1997    */
     1828        4        /*T*                                                         */
     1829        5        /*T***********************************************************/
     1830        6        Z8EL$POSITION_TO_LEVEL : PROC (REQ_LEVEL, REPLACE$);

      6  7 000000   000000 700200 xent  Z8EL$POSITI* TSX0  ! X66_AUTO_2
         7 000001   000006 000002                    ZERO    6,2

     1831        7
     1832        8    1   DCL REQ_LEVEL SBIN WORD;
     1833        9    1   DCL REPLACE$ PTR;
     1834       10
     1835       11        /* Returns pointer to item (or head of list) which points to
     1836       12           the desired level item.  Does not point directly to item
     1837       13           so that list manipulations can be done.
     1838       14        */
     1839       15
     1840       16        %EQU PHASE=1;
     1841       17        %INCLUDE Z8A_DEFC;
     1842       85        %INCLUDE Z8A_SUPP_MAC;
     1843     2485        %INCLUDE Z8E_REPLACE;
     1844     2788
     1845     2789
     1846     2790    1   REPLACE$ = ADDR(REPLACE_LIST);

   2790  7 000002   000000 236000 8                  LDQ     0
         7 000003   200004 470500                    LDP0    @REPLACE$,,AUTO
         7 000004   000000 756100                    STQ     0,,PR0

     1847     2791
     1848     2792    2   DO WHILE REPLACE$ -> REPLACE_ITEM.LINK$ ~= ADDR(NIL)

   2792  7 000005   000012 710000 7                  TRA     s:2796

PL6.E3A0      #010=Z8EL$POSITION_TO_LEVEL File=Z8EL.:Z8A6TSI                     SAT 08/09/97 12:14 Page:435
     1849     2793    2                AND REPLACE$ -> REPLACE_ITEM.LINK$ ->
     1850     2794    2                         REPLACE_ITEM.LEVEL > REQ_LEVEL;
     1851     2795    2     REPLACE$ = REPLACE$ -> REPLACE_ITEM.LINK$;

   2795  7 000006   200004 470500                    LDP0    @REPLACE$,,AUTO
         7 000007   000000 471500                    LDP1    0,,PR0
         7 000010   100000 236100                    LDQ     0,,PR1
         7 000011   000000 756100                    STQ     0,,PR0

     1852     2796    2   END;

   2796  7 000012   000000 471500                    LDP1    0,,PR0
         7 000013   100000 236100                    LDQ     0,,PR1
         7 000014   000001 116000 8                  CMPQ    1
         7 000015   000023 600000 7                  TZE     s:2798
         7 000016   100000 473500                    LDP3    0,,PR1
         7 000017   200003 474500                    LDP4    @REQ_LEVEL,,AUTO
         7 000020   300003 236100                    LDQ     3,,PR3
         7 000021   400000 116100                    CMPQ    0,,PR4
         7 000022   000006 605400 7                  TPNZ    s:2795

     1853     2797
     1854     2798    1   END Z8EL$POSITION_TO_LEVEL;

   2798  7 000023   000000 702200 xent               TSX2  ! X66_ARET
     1855     2799
     1856     2800
     1857     2801        %EOD;

PL6.E3A0      #010=Z8EL$POSITION_TO_LEVEL File=Z8EL.:Z8A6TSI                     SAT 08/09/97 12:14 Page:436
--  Include file information  --

   Z8E_REPLACE.:Z8A6TOU  cannot be made into a system file and is referenced.
   X8A_COM_MACS.:X8A6TOU  is referenced.
   Z8A_NAMES.:Z8A6TOU  is referenced.
   Z8A_SUPP_MAC.:Z8A6TOU  is referenced.
   Z8A_DEFC.:Z8A6TOU  cannot be made into a system file and is referenced.
      No diagnostics issued in procedure Z8EL$POSITION_TO_LEVEL.
PL6.E3A0      #010=Z8EL$POSITION_TO_LEVEL File=Z8EL.:Z8A6TSI                     SAT 08/09/97 12:14 Page:437

 **** Variables and constants ****

  ****  Section 000 LblCom ITERATION

  ****  Scalars and arrays  ****
OctLoc.c.b A Datatyp(siz) R M Lvl/name                 OctLoc.c.b A Datatyp(siz) R M Lvl/name

     0-0-0/w SBIN              1 ITERATION

  ****  Section 001 LblCom CURRENT_SYMBOL_LEVEL

  ****  Scalars and arrays  ****
OctLoc.c.b A Datatyp(siz) R M Lvl/name                 OctLoc.c.b A Datatyp(siz) R M Lvl/name

     0-0-0/w SBIN              1 CURRENT_SYMBOL_LEVEL

  ****  Section 002 LblCom REPLACE_ACTIVE

  ****  Scalars and arrays  ****
OctLoc.c.b A Datatyp(siz) R M Lvl/name                 OctLoc.c.b A Datatyp(siz) R M Lvl/name

     0-0-0/b BIT               1 REPLACE_ACTIVE

  ****  Section 003 LblCom IGNORE_COPY_REPLACE

  ****  Scalars and arrays  ****
OctLoc.c.b A Datatyp(siz) R M Lvl/name                 OctLoc.c.b A Datatyp(siz) R M Lvl/name

     0-0-0/b BIT               1 IGNORE_COPY_REPLACE

  ****  Section 004 LblCom COPY_DEBUG_LEVEL

  ****  Scalars and arrays  ****
OctLoc.c.b A Datatyp(siz) R M Lvl/name                 OctLoc.c.b A Datatyp(siz) R M Lvl/name

     0-0-0/w SBIN              1 COPY_DEBUG_LEVEL

PL6.E3A0      #010=Z8EL$POSITION_TO_LEVEL File=Z8EL.:Z8A6TSI                     SAT 08/09/97 12:14 Page:438
  ****  Section 005 LblCom REPLACE_LIST

  ****  Scalars and arrays  ****
OctLoc.c.b A Datatyp(siz) R M Lvl/name                 OctLoc.c.b A Datatyp(siz) R M Lvl/name

     0-0-0/w STRC(144)   r     1 REPLACE_LIST

  ****  Section 006 LblCom LEX_SYMBOL_QUEUE$

  ****  Scalars and arrays  ****
OctLoc.c.b A Datatyp(siz) R M Lvl/name                 OctLoc.c.b A Datatyp(siz) R M Lvl/name

     0-0-0/w PTR               1 LEX_SYMBOL_QUEUE$

  ****  Auto variables  ****

  ****  Scalars and arrays  ****
OctLoc.c.b A Datatyp(siz) R M Lvl/name                 OctLoc.c.b A Datatyp(siz) R M Lvl/name

     4-0-0/w PTR         r     1 @REPLACE$                  3-0-0/w PTR         r     1 @REQ_LEVEL
    *0-0-0/w PTR         r     1 REPLACE$                  *0-0-0/w SBIN        r     1 REQ_LEVEL

  ****  BASED and DCB variables  ****

  ****  Scalars and arrays  ****
OctLoc.c.b A Datatyp(siz) R M Lvl/name                 OctLoc.c.b A Datatyp(siz) R M Lvl/name

     0-0-0/w CHAR(4096)        1 CHARS                      0-0-0/w STRC(72)          1 CONT
     0-0-0/w STRC(36864)       1 PAGE                       0-0-0/w STRC(252)   r     1 REPLACE_ITEM


   Procedure Z8EL$POSITION_TO_LEVEL requires 20 words for executable code.
   Procedure Z8EL$POSITION_TO_LEVEL requires 6 words of local(AUTO) storage.

PL6.E3A0      #011=Z8EL$DELETE_REPLACE_LEVEL File=Z8EL.:Z8A6TSI                  SAT 08/09/97 12:14 Page:439
     1858        1        /*T***********************************************************/
     1859        2        /*T*                                                         */
     1860        3        /*T* Copyright (c) Bull HN Information Systems Inc., 1997    */
     1861        4        /*T*                                                         */
     1862        5        /*T***********************************************************/
     1863        6        Z8EL$DELETE_REPLACE_LEVEL : PROC (DEL_LEVEL);
     1864        7
     1865        8    1   DCL DEL_LEVEL SBIN WORD;
     1866        9
     1867       10        %EQU PHASE=1;
     1868       11        %INCLUDE Z8A_DEFC;
     1869       79        %INCLUDE Z8A_SUPP_MAC;
     1870     2479        %INCLUDE Z8E_HEAP;
     1871     2535        %INCLUDE Z8E_REPLACE;
     1872     2838        %INCLUDE Z8E_STACKS;
     1873     5104        %INCLUDE Z8E_BUFFERS;
     1874     5294    1   DCL Z8EL$UNMARK_REPLACE_TOKEN ENTRY(1);
     1875     5295    1   DCL Z8EL$POSITION_TO_LEVEL ENTRY(2);
     1876     5296    1   DCL RP$ PTR;
     1877     5297    1   DCL REPLACE$ PTR;
     1878     5298
     1879     5299
     1880     5300    1     PURGE_LIST : PROC(LIST$);
     1881     5301
     1882     5302    2       DCL LIST$ PTR;
     1883     5303    2       DCL L$ PTR;
     1884     5304
     1885     5305    3       DO WHILE LIST$ ~= ADDR(NIL);
     1886     5306    3         L$ = LIST$;
     1887     5307    3         LIST$ = L$ -> BASED_LEX_SYMBOL.NEXT$;
     1888     5308    3         CALL Z8ED$DISPOSE_HEAP(L$,
     1889     5309                                        %LEX_SYMBOL_ACTUAL_WORD_LEN(S$=L$);
     1890     5312    3                                  );
     1891     5313    3       END;
     1892     5314
     1893     5315    2     END PURGE_LIST;
     1894     5316
PL6.E3A0      #011=Z8EL$DELETE_REPLACE_LEVEL File=Z8EL.:Z8A6TSI                  SAT 08/09/97 12:14 Page:440
     1895     5317
     1896     5318
     1897     5319    1     PURGE_PSEUDO_LINES : PROC(LIST$);
     1898     5320
     1899     5321    2       DCL LIST$ PTR;
     1900     5322    2       DCL L$ PTR;
     1901     5323
     1902     5324    3       DO WHILE LIST$ ~= ADDR(NIL);
     1903     5325    3         L$ = LIST$;
     1904     5326    3         LIST$ = L$ -> FILL_BUFFER.NEXT$;
     1905     5327    3         CALL Z8ED$DISPOSE_HEAP(L$,
     1906     5328    3                                %MAX_INPUT_BUFFER_LEN);
     1907     5329    3       END;
     1908     5330
     1909     5331    2     END PURGE_PSEUDO_LINES;
     1910     5332
     1911     5333    1   CALL Z8EL$POSITION_TO_LEVEL (DEL_LEVEL, REPLACE$);
     1912     5334
     1913     5335    2   DO WHILE (REPLACE$ -> REPLACE_ITEM.LINK$ ~= ADDR(NIL))
     1914     5336    2                AND (REPLACE$ -> REPLACE_ITEM.LINK$ ->
     1915     5337    2                          REPLACE_ITEM.LEVEL = DEL_LEVEL);
     1916     5338
     1917     5339    2     RP$ = REPLACE$ -> REPLACE_ITEM.LINK$;
     1918     5340    2     REPLACE$ -> REPLACE_ITEM.LINK$ = RP$ -> REPLACE_ITEM.LINK$;
     1919     5341
     1920     5342    2     CALL Z8EL$UNMARK_REPLACE_TOKEN(RP$ -> REPLACE_ITEM.FROM_LIST$);
     1921     5343    2     CALL PURGE_LIST(RP$ -> REPLACE_ITEM.FROM_LIST$);
     1922     5344    2     CALL PURGE_LIST(RP$ -> REPLACE_ITEM.TO_LIST$);
     1923     5345    2     CALL PURGE_PSEUDO_LINES (RP$ -> REPLACE_ITEM.TO_PSEUDO_TEXT_LINES$);
     1924     5346    2     CALL Z8ED$DISPOSE_HEAP(RP$, LENGTHW(REPLACE_ITEM));
     1925     5347
     1926     5348    2   END;  /* DO WHILE */
     1927     5349
     1928     5350    1   IF REPLACE_LIST.LINK$ = ADDR(NIL) THEN
     1929     5351    1     REPLACE_ACTIVE = FALSE;
     1930     5352
     1931     5353    1   END Z8EL$DELETE_REPLACE_LEVEL;
PL6.E3A0      #011=Z8EL$DELETE_REPLACE_LEVEL File=Z8EL.:Z8A6TSI                  SAT 08/09/97 12:14 Page:441
     1932     5354        %EOD;

PL6.E3A0      #011=Z8EL$DELETE_REPLACE_LEVEL File=Z8EL.:Z8A6TSI                  SAT 08/09/97 12:14 Page:442
--  Include file information  --

   Z8E_BUFFERS.:Z8A6TOU  cannot be made into a system file and is referenced.
   Z8A_LEX_SYMB.:Z8A6TOU  cannot be made into a system file and is referenced.
   Z8E_STACKS.:Z8A6TOU  cannot be made into a system file and is referenced.
   Z8E_REPLACE.:Z8A6TOU  cannot be made into a system file and is referenced.
   Z8E_HEAP.:Z8A6TOU  cannot be made into a system file and is referenced.
   X8A_COM_MACS.:X8A6TOU  is referenced.
   Z8A_NAMES.:Z8A6TOU  is referenced.
   Z8A_SUPP_MAC.:Z8A6TOU  is referenced.
   Z8A_DEFC.:Z8A6TOU  cannot be made into a system file and is referenced.
      No diagnostics issued in procedure Z8EL$DELETE_REPLACE_LEVEL.

   Procedure Z8EL$DELETE_REPLACE_LEVEL requires 114 words for executable code.
   Procedure Z8EL$DELETE_REPLACE_LEVEL requires 14 words of local(AUTO) storage.

PL6.E3A0      #011=Z8EL$DELETE_REPLACE_LEVEL File=Z8EL.:Z8A6TSI                  SAT 08/09/97 12:14 Page:443

 Object Unit name= Z8EL$DELETE_REPLACE_LEVEL                  File name= Z8EL.:Z8A6TOU
 UTS= AUG 09 '97 12:14:29.92 SAT                              Compiler= PL-6/E31         Sev=      00
 SharedLib= :SHARED_SYSTEM                                    Alt SharedLib=


    ****  Control sections  ****

 Sect   Type Bound  Init  Size OctSiz  Section name(segment info)
    0  LblCom even  none     1      1  ITERATION
    1  LblCom even  none     1      1  HEAP$
    2  LblCom even  none     1      1  CURRENT_SYMBOL_LEVEL
    3  LblCom even  none     1      1  REPLACE_ACTIVE
    4  LblCom even  none     1      1  IGNORE_COPY_REPLACE
    5  LblCom even  none     1      1  COPY_DEBUG_LEVEL
    6  LblCom even  none     4      4  REPLACE_LIST
    7  LblCom even  none     1      1  LEX_SYMBOL_QUEUE$
    8  LblCom even  none    90    132  LEX_SYMBOL
    9  LblCom even  none     1      1  CURRENT_LEX_SYMBOL$
   10  LblCom even  none    90    132  TEMP_LEX_SYMBOL
   11  LblCom even  none    90    132  TEMP_LEX_SYMBOL2
   12  LblCom even  none     1      1  SCANNER_STATE
   13  LblCom even  none     1      1  CURRENT_BUFFER$
   14  LblCom even  none     1      1  LOOKAHEAD_BUFFER$
   15  LblCom even  none     1      1  CURRENT_LINE_LEVEL
   16  LblCom even  none     1      1  LINE_LIST$
   17  LblCom even  none     7      7  BUFFER
   18  LblCom even  none     1      1  ORIGINAL_ISN
   19  LblCom even  none     1      1  EXPANDED_ISN
   20  LblCom even  none     1      1  ISN_FOR_EXP_SRC
   21   Proc  even  none   114    162  Z8EL$DELETE_REPLACE_LEVEL
   22  RoData even  none     7      7  Z8EL$DELETE_REPLACE_LEVEL
PL6.E3A0      #011=Z8EL$DELETE_REPLACE_LEVEL File=Z8EL.:Z8A6TSI                  SAT 08/09/97 12:14 Page:444

    ****  Entry defs  ****

                              Check   Calling
                             calling  sequence
  Sect OctLoc Primary Altret sequence   type   Parms  Name
    21      0   yes            yes      Std        1  Z8EL$DELETE_REPLACE_LEVEL

  ****  Entry refs  ****

         Check        Calling
        calling       sequence
Altret sequence SRef   type   Args  Name
         yes           Std       2 Z8EL$POSITION_TO_LEVEL
         yes           Std       1 Z8EL$UNMARK_REPLACE_TOKEN
         yes           Std       2 Z8ED$DISPOSE_HEAP
                       nStd      0 X66_AUTO_1
                       nStd      0 X66_ARET

  ****  Segment refs  ****

  Flags:  r = read only, s = secondary
Flgs Name                             Flgs Name                             Flgs Name
     NULLSID                               ISSID
PL6.E3A0      #011=Z8EL$DELETE_REPLACE_LEVEL File=Z8EL.:Z8A6TSI                  SAT 08/09/97 12:14 Page:445


     1858        1        /*T***********************************************************/
     1859        2        /*T*                                                         */
     1860        3        /*T* Copyright (c) Bull HN Information Systems Inc., 1997    */
     1861        4        /*T*                                                         */
     1862        5        /*T***********************************************************/
     1863        6        Z8EL$DELETE_REPLACE_LEVEL : PROC (DEL_LEVEL);

      6 21 000000   000000 700200 xent  Z8EL$DELETE* TSX0  ! X66_AUTO_1
        21 000001   000016 000001                    ZERO    14,1
        21 000002   000067 710000 21                 TRA     s:5333

     1864        7
     1865        8    1   DCL DEL_LEVEL SBIN WORD;
     1866        9
     1867       10        %EQU PHASE=1;
     1868       11        %INCLUDE Z8A_DEFC;
     1869       79        %INCLUDE Z8A_SUPP_MAC;
     1870     2479        %INCLUDE Z8E_HEAP;
     1871     2535        %INCLUDE Z8E_REPLACE;
     1872     2838        %INCLUDE Z8E_STACKS;
     1873     5104        %INCLUDE Z8E_BUFFERS;
     1874     5294    1   DCL Z8EL$UNMARK_REPLACE_TOKEN ENTRY(1);
     1875     5295    1   DCL Z8EL$POSITION_TO_LEVEL ENTRY(2);
     1876     5296    1   DCL RP$ PTR;
     1877     5297    1   DCL REPLACE$ PTR;
     1878     5298
     1879     5299
     1880     5300    1     PURGE_LIST : PROC(LIST$);

   5300 21 000003   200006 741300       PURGE_LIST   STX1  ! REPLACE$+1,,AUTO

     1881     5301
     1882     5302    2       DCL LIST$ PTR;
     1883     5303    2       DCL L$ PTR;
     1884     5304
     1885     5305    3       DO WHILE LIST$ ~= ADDR(NIL);
PL6.E3A0      #011=Z8EL$DELETE_REPLACE_LEVEL File=Z8EL.:Z8A6TSI                  SAT 08/09/97 12:14 Page:446

   5305 21 000004   000033 710000 21                 TRA     s:5313

     1886     5306    3         L$ = LIST$;

   5306 21 000005   200007 470500                    LDP0    @LIST$,,AUTO
        21 000006   000000 236100                    LDQ     0,,PR0
        21 000007   200010 756100                    STQ     L$,,AUTO

     1887     5307    3         LIST$ = L$ -> BASED_LEX_SYMBOL.NEXT$;

   5307 21 000010   200010 471500                    LDP1    L$,,AUTO
        21 000011   100000 236100                    LDQ     0,,PR1
        21 000012   000000 756100                    STQ     0,,PR0

     1888     5308    3         CALL Z8ED$DISPOSE_HEAP(L$,

   5308 21 000013   200010 471500                    LDP1    L$,,AUTO
        21 000014   100010 720100                    LXL0    8,,PR1
        21 000015   000044 621010                    EAX1    36,X0
        21 000016   000000 636011                    EAQ     0,X1
        21 000017   000022 732000                    QRS     18
        21 000020   000003 036007                    ADLQ    3,DL
        21 000021   000004 506007                    DIV     4,DL
        21 000022   200012 756100                    STQ     L$+2,,AUTO
        21 000023   200012 633500                    EPPR3   L$+2,,AUTO
        21 000024   200015 453500                    STP3    L$+5,,AUTO
        21 000025   200010 634500                    EPPR4   L$,,AUTO
        21 000026   200014 454500                    STP4    L$+4,,AUTO
        21 000027   200014 630500                    EPPR0   L$+4,,AUTO
        21 000030   000000 631400 22                 EPPR1   0
        21 000031   000000 701000 xent               TSX1    Z8ED$DISPOSE_HEAP
        21 000032   000000 011000                    NOP     0

     1889     5309                                        %LEX_SYMBOL_ACTUAL_WORD_LEN(S$=L$);
     1890     5312    3                                  );
     1891     5313    3       END;
PL6.E3A0      #011=Z8EL$DELETE_REPLACE_LEVEL File=Z8EL.:Z8A6TSI                  SAT 08/09/97 12:14 Page:447

   5313 21 000033   200007 470500                    LDP0    @LIST$,,AUTO
        21 000034   000000 236100                    LDQ     0,,PR0
        21 000035   000001 116000 22                 CMPQ    1
        21 000036   000005 601000 21                 TNZ     s:5306

     1892     5314
     1893     5315    2     END PURGE_LIST;

   5315 21 000037   200006 221300                    LDX1  ! REPLACE$+1,,AUTO
        21 000040   000001 702211                    TSX2  ! 1,X1

     1894     5316
     1895     5317
     1896     5318
     1897     5319    1     PURGE_PSEUDO_LINES : PROC(LIST$);

   5319 21 000041   200006 741300       PURGE_PSEUD* STX1  ! REPLACE$+1,,AUTO

     1898     5320
     1899     5321    2       DCL LIST$ PTR;
     1900     5322    2       DCL L$ PTR;
     1901     5323
     1902     5324    3       DO WHILE LIST$ ~= ADDR(NIL);

   5324 21 000042   000061 710000 21                 TRA     s:5329

     1903     5325    3         L$ = LIST$;

   5325 21 000043   200007 470500                    LDP0    @LIST$,,AUTO
        21 000044   000000 236100                    LDQ     0,,PR0
        21 000045   200010 756100                    STQ     L$,,AUTO

     1904     5326    3         LIST$ = L$ -> FILL_BUFFER.NEXT$;

   5326 21 000046   200010 471500                    LDP1    L$,,AUTO
        21 000047   100002 236100                    LDQ     2,,PR1
PL6.E3A0      #011=Z8EL$DELETE_REPLACE_LEVEL File=Z8EL.:Z8A6TSI                  SAT 08/09/97 12:14 Page:448
        21 000050   000000 756100                    STQ     0,,PR0

     1905     5327    3         CALL Z8ED$DISPOSE_HEAP(L$,

   5327 21 000051   000003 236000 22                 LDQ     3
        21 000052   200013 756100                    STQ     L$+3,,AUTO
        21 000053   200010 631500                    EPPR1   L$,,AUTO
        21 000054   200012 451500                    STP1    L$+2,,AUTO
        21 000055   200012 630500                    EPPR0   L$+2,,AUTO
        21 000056   000000 631400 22                 EPPR1   0
        21 000057   000000 701000 xent               TSX1    Z8ED$DISPOSE_HEAP
        21 000060   000000 011000                    NOP     0

     1906     5328    3                                %MAX_INPUT_BUFFER_LEN);
     1907     5329    3       END;

   5329 21 000061   200007 470500                    LDP0    @LIST$,,AUTO
        21 000062   000000 236100                    LDQ     0,,PR0
        21 000063   000001 116000 22                 CMPQ    1
        21 000064   000043 601000 21                 TNZ     s:5325

     1908     5330
     1909     5331    2     END PURGE_PSEUDO_LINES;

   5331 21 000065   200006 221300                    LDX1  ! REPLACE$+1,,AUTO
        21 000066   000001 702211                    TSX2  ! 1,X1

     1910     5332
     1911     5333    1   CALL Z8EL$POSITION_TO_LEVEL (DEL_LEVEL, REPLACE$);

   5333 21 000067   200005 630500                    EPPR0   REPLACE$,,AUTO
        21 000070   200013 450500                    STP0    L$+3,,AUTO
        21 000071   200003 236100                    LDQ     @DEL_LEVEL,,AUTO
        21 000072   200012 756100                    STQ     L$+2,,AUTO
        21 000073   200012 630500                    EPPR0   L$+2,,AUTO
        21 000074   000000 631400 22                 EPPR1   0
        21 000075   000000 701000 xent               TSX1    Z8EL$POSITION_TO_LEVEL
PL6.E3A0      #011=Z8EL$DELETE_REPLACE_LEVEL File=Z8EL.:Z8A6TSI                  SAT 08/09/97 12:14 Page:449
        21 000076   000000 011000                    NOP     0

     1912     5334
     1913     5335    2   DO WHILE (REPLACE$ -> REPLACE_ITEM.LINK$ ~= ADDR(NIL))

   5335 21 000077   000144 710000 21                 TRA     s:5348

     1914     5336    2                AND (REPLACE$ -> REPLACE_ITEM.LINK$ ->
     1915     5337    2                          REPLACE_ITEM.LEVEL = DEL_LEVEL);
     1916     5338
     1917     5339    2     RP$ = REPLACE$ -> REPLACE_ITEM.LINK$;

   5339 21 000100   200005 470500                    LDP0    REPLACE$,,AUTO
        21 000101   000000 236100                    LDQ     0,,PR0
        21 000102   200004 756100                    STQ     RP$,,AUTO

     1918     5340    2     REPLACE$ -> REPLACE_ITEM.LINK$ = RP$ -> REPLACE_ITEM.LINK$;

   5340 21 000103   200004 471500                    LDP1    RP$,,AUTO
        21 000104   100000 236100                    LDQ     0,,PR1
        21 000105   000000 756100                    STQ     0,,PR0

     1919     5341
     1920     5342    2     CALL Z8EL$UNMARK_REPLACE_TOKEN(RP$ -> REPLACE_ITEM.FROM_LIST$);

   5342 21 000106   200004 236100                    LDQ     RP$,,AUTO
        21 000107   000001 036003                    ADLQ    1,DU
        21 000110   200012 756100                    STQ     L$+2,,AUTO
        21 000111   200012 630500                    EPPR0   L$+2,,AUTO
        21 000112   000004 631400 22                 EPPR1   4
        21 000113   000000 701000 xent               TSX1    Z8EL$UNMARK_REPLACE_TOKEN
        21 000114   000000 011000                    NOP     0

     1921     5343    2     CALL PURGE_LIST(RP$ -> REPLACE_ITEM.FROM_LIST$);

   5343 21 000115   200004 236100                    LDQ     RP$,,AUTO
        21 000116   000001 036003                    ADLQ    1,DU
PL6.E3A0      #011=Z8EL$DELETE_REPLACE_LEVEL File=Z8EL.:Z8A6TSI                  SAT 08/09/97 12:14 Page:450
        21 000117   200007 756100                    STQ     REPLACE$+2,,AUTO
        21 000120   000003 701000 21                 TSX1    PURGE_LIST
        21 000121   000000 011000                    NOP     0

     1922     5344    2     CALL PURGE_LIST(RP$ -> REPLACE_ITEM.TO_LIST$);

   5344 21 000122   200004 236100                    LDQ     RP$,,AUTO
        21 000123   000002 036003                    ADLQ    2,DU
        21 000124   200007 756100                    STQ     REPLACE$+2,,AUTO
        21 000125   000003 701000 21                 TSX1    PURGE_LIST
        21 000126   000000 011000                    NOP     0

     1923     5345    2     CALL PURGE_PSEUDO_LINES (RP$ -> REPLACE_ITEM.TO_PSEUDO_TEXT_LINES$);

   5345 21 000127   200004 236100                    LDQ     RP$,,AUTO
        21 000130   000006 036003                    ADLQ    6,DU
        21 000131   200007 756100                    STQ     REPLACE$+2,,AUTO
        21 000132   000041 701000 21                 TSX1    PURGE_PSEUDO_LINES
        21 000133   000000 011000                    NOP     0

     1924     5346    2     CALL Z8ED$DISPOSE_HEAP(RP$, LENGTHW(REPLACE_ITEM));

   5346 21 000134   000006 236000 22                 LDQ     6
        21 000135   200013 756100                    STQ     L$+3,,AUTO
        21 000136   200004 630500                    EPPR0   RP$,,AUTO
        21 000137   200012 450500                    STP0    L$+2,,AUTO
        21 000140   200012 630500                    EPPR0   L$+2,,AUTO
        21 000141   000000 631400 22                 EPPR1   0
        21 000142   000000 701000 xent               TSX1    Z8ED$DISPOSE_HEAP
        21 000143   000000 011000                    NOP     0

     1925     5347
     1926     5348    2   END;  /* DO WHILE */

   5348 21 000144   200005 470500                    LDP0    REPLACE$,,AUTO
        21 000145   000000 236100                    LDQ     0,,PR0
        21 000146   000001 116000 22                 CMPQ    1
PL6.E3A0      #011=Z8EL$DELETE_REPLACE_LEVEL File=Z8EL.:Z8A6TSI                  SAT 08/09/97 12:14 Page:451
        21 000147   000155 600000 21                 TZE     s:5350
        21 000150   000000 471500                    LDP1    0,,PR0
        21 000151   200003 473500                    LDP3    @DEL_LEVEL,,AUTO
        21 000152   100003 236100                    LDQ     3,,PR1
        21 000153   300000 116100                    CMPQ    0,,PR3
        21 000154   000100 600000 21                 TZE     s:5339

     1927     5349
     1928     5350    1   IF REPLACE_LIST.LINK$ = ADDR(NIL) THEN

   5350 21 000155   000000 236000 6                  LDQ     REPLACE_LIST
        21 000156   000001 116000 22                 CMPQ    1
        21 000157   000161 601000 21                 TNZ     s:5353

     1929     5351    1     REPLACE_ACTIVE = FALSE;

   5351 21 000160   000000 450000 3                  STZ     REPLACE_ACTIVE

     1930     5352
     1931     5353    1   END Z8EL$DELETE_REPLACE_LEVEL;

   5353 21 000161   000000 702200 xent               TSX2  ! X66_ARET
     1932     5354        %EOD;

PL6.E3A0      #011=Z8EL$DELETE_REPLACE_LEVEL File=Z8EL.:Z8A6TSI                  SAT 08/09/97 12:14 Page:452
--  Include file information  --

   Z8E_BUFFERS.:Z8A6TOU  cannot be made into a system file and is referenced.
   Z8A_LEX_SYMB.:Z8A6TOU  cannot be made into a system file and is referenced.
   Z8E_STACKS.:Z8A6TOU  cannot be made into a system file and is referenced.
   Z8E_REPLACE.:Z8A6TOU  cannot be made into a system file and is referenced.
   Z8E_HEAP.:Z8A6TOU  cannot be made into a system file and is referenced.
   X8A_COM_MACS.:X8A6TOU  is referenced.
   Z8A_NAMES.:Z8A6TOU  is referenced.
   Z8A_SUPP_MAC.:Z8A6TOU  is referenced.
   Z8A_DEFC.:Z8A6TOU  cannot be made into a system file and is referenced.
      No diagnostics issued in procedure Z8EL$DELETE_REPLACE_LEVEL.
PL6.E3A0      #011=Z8EL$DELETE_REPLACE_LEVEL File=Z8EL.:Z8A6TSI                  SAT 08/09/97 12:14 Page:453

 **** Variables and constants ****

  ****  Section 000 LblCom ITERATION

  ****  Scalars and arrays  ****
OctLoc.c.b A Datatyp(siz) R M Lvl/name                 OctLoc.c.b A Datatyp(siz) R M Lvl/name

     0-0-0/w SBIN              1 ITERATION

  ****  Section 001 LblCom HEAP$

  ****  Scalars and arrays  ****
OctLoc.c.b A Datatyp(siz) R M Lvl/name                 OctLoc.c.b A Datatyp(siz) R M Lvl/name

     0-0-0/w PTR               1 HEAP$

  ****  Section 002 LblCom CURRENT_SYMBOL_LEVEL

  ****  Scalars and arrays  ****
OctLoc.c.b A Datatyp(siz) R M Lvl/name                 OctLoc.c.b A Datatyp(siz) R M Lvl/name

     0-0-0/w SBIN              1 CURRENT_SYMBOL_LEVEL

  ****  Section 003 LblCom REPLACE_ACTIVE

  ****  Scalars and arrays  ****
OctLoc.c.b A Datatyp(siz) R M Lvl/name                 OctLoc.c.b A Datatyp(siz) R M Lvl/name

     0-0-0/b BIT         r     1 REPLACE_ACTIVE

  ****  Section 004 LblCom IGNORE_COPY_REPLACE

  ****  Scalars and arrays  ****
OctLoc.c.b A Datatyp(siz) R M Lvl/name                 OctLoc.c.b A Datatyp(siz) R M Lvl/name

     0-0-0/b BIT               1 IGNORE_COPY_REPLACE

PL6.E3A0      #011=Z8EL$DELETE_REPLACE_LEVEL File=Z8EL.:Z8A6TSI                  SAT 08/09/97 12:14 Page:454
  ****  Section 005 LblCom COPY_DEBUG_LEVEL

  ****  Scalars and arrays  ****
OctLoc.c.b A Datatyp(siz) R M Lvl/name                 OctLoc.c.b A Datatyp(siz) R M Lvl/name

     0-0-0/w SBIN              1 COPY_DEBUG_LEVEL

  ****  Section 006 LblCom REPLACE_LIST

  ****  Scalars and arrays  ****
OctLoc.c.b A Datatyp(siz) R M Lvl/name                 OctLoc.c.b A Datatyp(siz) R M Lvl/name

     0-0-0/w STRC(144)   r     1 REPLACE_LIST

  ****  Section 007 LblCom LEX_SYMBOL_QUEUE$

  ****  Scalars and arrays  ****
OctLoc.c.b A Datatyp(siz) R M Lvl/name                 OctLoc.c.b A Datatyp(siz) R M Lvl/name

     0-0-0/w PTR               1 LEX_SYMBOL_QUEUE$

  ****  Section 008 LblCom LEX_SYMBOL

  ****  Scalars and arrays  ****
OctLoc.c.b A Datatyp(siz) R M Lvl/name                 OctLoc.c.b A Datatyp(siz) R M Lvl/name

     0-0-0/w STRC(3240)  r     1 LEX_SYMBOL                 0-0-0/w STRC(3240)        1 LEX_SYMBOL_WORDS

  ****  Section 009 LblCom CURRENT_LEX_SYMBOL$

  ****  Scalars and arrays  ****
OctLoc.c.b A Datatyp(siz) R M Lvl/name                 OctLoc.c.b A Datatyp(siz) R M Lvl/name

     0-0-0/w PTR         r     1 CURRENT_LEX_SYMBOL$

  ****  Section 010 LblCom TEMP_LEX_SYMBOL

PL6.E3A0      #011=Z8EL$DELETE_REPLACE_LEVEL File=Z8EL.:Z8A6TSI                  SAT 08/09/97 12:14 Page:455
  ****  Scalars and arrays  ****
OctLoc.c.b A Datatyp(siz) R M Lvl/name                 OctLoc.c.b A Datatyp(siz) R M Lvl/name

     0-0-0/w STRC(3240)        1 TEMP_LEX_SYMBOL

  ****  Section 011 LblCom TEMP_LEX_SYMBOL2

  ****  Scalars and arrays  ****
OctLoc.c.b A Datatyp(siz) R M Lvl/name                 OctLoc.c.b A Datatyp(siz) R M Lvl/name

     0-0-0/w STRC(3240)        1 TEMP_LEX_SYMBOL2

  ****  Section 012 LblCom SCANNER_STATE

  ****  Scalars and arrays  ****
OctLoc.c.b A Datatyp(siz) R M Lvl/name                 OctLoc.c.b A Datatyp(siz) R M Lvl/name

     0-0-0/w SBIN              1 SCANNER_STATE

  ****  Section 013 LblCom CURRENT_BUFFER$

  ****  Scalars and arrays  ****
OctLoc.c.b A Datatyp(siz) R M Lvl/name                 OctLoc.c.b A Datatyp(siz) R M Lvl/name

     0-0-0/w PTR               1 CURRENT_BUFFER$

  ****  Section 014 LblCom LOOKAHEAD_BUFFER$

  ****  Scalars and arrays  ****
OctLoc.c.b A Datatyp(siz) R M Lvl/name                 OctLoc.c.b A Datatyp(siz) R M Lvl/name

     0-0-0/w PTR         r     1 LOOKAHEAD_BUFFER$

  ****  Section 015 LblCom CURRENT_LINE_LEVEL

  ****  Scalars and arrays  ****
OctLoc.c.b A Datatyp(siz) R M Lvl/name                 OctLoc.c.b A Datatyp(siz) R M Lvl/name
PL6.E3A0      #011=Z8EL$DELETE_REPLACE_LEVEL File=Z8EL.:Z8A6TSI                  SAT 08/09/97 12:14 Page:456

     0-0-0/w SBIN              1 CURRENT_LINE_LEVEL

  ****  Section 016 LblCom LINE_LIST$

  ****  Scalars and arrays  ****
OctLoc.c.b A Datatyp(siz) R M Lvl/name                 OctLoc.c.b A Datatyp(siz) R M Lvl/name

     0-0-0/w PTR               1 LINE_LIST$

  ****  Section 017 LblCom BUFFER

  ****  Scalars and arrays  ****
OctLoc.c.b A Datatyp(siz) R M Lvl/name                 OctLoc.c.b A Datatyp(siz) R M Lvl/name

     0-0-0/w STRC(252)   r     1 BUFFER

  ****  Section 018 LblCom ORIGINAL_ISN

  ****  Scalars and arrays  ****
OctLoc.c.b A Datatyp(siz) R M Lvl/name                 OctLoc.c.b A Datatyp(siz) R M Lvl/name

     0-0-0/w SBIN              1 ORIGINAL_ISN

  ****  Section 019 LblCom EXPANDED_ISN

  ****  Scalars and arrays  ****
OctLoc.c.b A Datatyp(siz) R M Lvl/name                 OctLoc.c.b A Datatyp(siz) R M Lvl/name

     0-0-0/w SBIN              1 EXPANDED_ISN

  ****  Section 020 LblCom ISN_FOR_EXP_SRC

  ****  Scalars and arrays  ****
OctLoc.c.b A Datatyp(siz) R M Lvl/name                 OctLoc.c.b A Datatyp(siz) R M Lvl/name

     0-0-0/w SBIN              1 ISN_FOR_EXP_SRC
PL6.E3A0      #011=Z8EL$DELETE_REPLACE_LEVEL File=Z8EL.:Z8A6TSI                  SAT 08/09/97 12:14 Page:457

  ****  Auto variables  ****

  ****  Scalars and arrays  ****
OctLoc.c.b A Datatyp(siz) R M Lvl/name                 OctLoc.c.b A Datatyp(siz) R M Lvl/name

     3-0-0/w PTR         r     1 @DEL_LEVEL                 7-0-0/w PTR         r     1 @LIST$
     7-0-0/w PTR         r     1 @LIST$                    *0-0-0/w SBIN        r     1 DEL_LEVEL
    10-0-0/w PTR         r     1 L$                        10-0-0/w PTR         r     1 L$
    *0-0-0/w PTR         r     1 LIST$                     *0-0-0/w PTR         r     1 LIST$
     5-0-0/w PTR         r     1 REPLACE$                   4-0-0/w PTR         r     1 RP$

  ****  BASED and DCB variables  ****

  ****  Scalars and arrays  ****
OctLoc.c.b A Datatyp(siz) R M Lvl/name                 OctLoc.c.b A Datatyp(siz) R M Lvl/name

     0-0-0/w STRC(288)         1 ADD_STMT                   0-0-0/w ASTR(324)   r     1 BASED_LEX_SYMBOL
     0-0-0/w STRC(360)         1 BASED_LEX_SYMBOL_WORDS
     0-0-0/w STRC(288)         1 BINARY_OP                  0-0-0/c ACHR              1 BUFFER_LINE
     0-0-0/w STRC(288)         1 CALL_STMT                  0-0-0/w CHAR(4096)        1 CHARS
     0-0-0/w STRC(288)         1 COMPUTE_STMT               0-0-0/w STRC(72)          1 CONT
     0-0-0/w STRC(288)         1 DEFERED_IDENTIFIER         0-0-0/w STRC(252)         1 DEFERED_ID_TREE
     0-0-0/w STRC(288)         1 DEFERED_QUAL_ID            0-0-0/w STRC(288)         1 DEFERED_SUM_CLAUSE
     0-0-0/w STRC(288)         1 DEFERED_SUM_CLAUSE_LIST
     0-0-0/w STRC(288)         1 DELETE_STMT                0-0-0/w STRC(288)         1 DIVIDE_STMT
     0-0-0/w ASTR(396)   r     1 EXP_SRC_BUFF               0-0-0/w ASTR(396)   r     1 FILL_BUFFER
     0-0-0/w STRC(288)         1 ILS_LIST                   0-0-0/w STRC(288)         1 INSPECT_1_STMT
     0-0-0/w STRC(288)         1 INSPECT_2_STMT             0-0-0/w STRC(288)         1 INSPECT_4_STMT
     0-0-0/w STRC(288)         1 LA_ITEM                    0-0-0/w STRC(504)         1 LX_CD_INPUT
     0-0-0/w STRC(324)         1 LX_CD_I_O                  0-0-0/w STRC(396)         1 LX_CD_OUTPUT
     0-0-0/w STRC(288)         1 LX_ETT_ITEM                0-0-0/w STRC(288)         1 LX_ITEM
     0-0-0/w STRC(288)         1 LX_LARGE                   0-0-0/w STRC(288)         1 LX_LIST
     0-0-0/w STRC(1224)        1 LX_REC_DECL                0-0-0/w STRC(864)         1 LX_REPORT_REC
     0-0-0/w STRC(288)         1 LX_TERMINAL                0-0-0/w STRC(288)         1 MULTIPLY_STMT
     0-0-0/w STRC(36864)       1 PAGE                       0-0-0/w STRC(288)         1 READ_STMT
     0-0-0/w STRC(252)   r     1 REPLACE_ITEM               0-0-0/w STRC(288)         1 REWRITE_STMT
PL6.E3A0      #011=Z8EL$DELETE_REPLACE_LEVEL File=Z8EL.:Z8A6TSI                  SAT 08/09/97 12:14 Page:458
     0-0-0/w STRC(288)         1 START_STMT                 0-0-0/w STRC(252)         1 STRING_STMT
     0-0-0/w STRC(288)         1 SUBTRACT_STMT              0-0-0/w STRC(288)         1 UNARY_OP
     0-0-0/w STRC(288)         1 UNSTRING_STMT              0-0-0/w STRC(288)         1 WRITE_STMT


   Procedure Z8EL$DELETE_REPLACE_LEVEL requires 114 words for executable code.
   Procedure Z8EL$DELETE_REPLACE_LEVEL requires 14 words of local(AUTO) storage.

PL6.E3A0      #012=Z8EL$ADD_REPL_LEVEL File=Z8EL.:Z8A6TSI                        SAT 08/09/97 12:15 Page:459
     1933        1        /*T***********************************************************/
     1934        2        /*T*                                                         */
     1935        3        /*T* Copyright (c) Bull HN Information Systems Inc., 1997    */
     1936        4        /*T*                                                         */
     1937        5        /*T***********************************************************/
     1938        6        Z8EL$ADD_REPL_LEVEL : PROC (LEVEL, REPLACE$);
     1939        7
     1940        8    1   DCL REPLACE$ PTR;
     1941        9    1   DCL LEVEL SBIN;
     1942       10
     1943       11        %EQU PHASE = 1;
     1944       12        %INCLUDE Z8A_DEFC;
     1945       80        %INCLUDE Z8A_SUPP_MAC;
     1946     2480        %INCLUDE Z8E_REPLACE;
     1947     2783
     1948     2784    1   DCL Z8EL$DELETE_REPLACE_LEVEL ENTRY(1);
     1949     2785    1   DCL Z8EL$POSITION_TO_LEVEL ENTRY(2);
     1950     2786    1   DCL Z8EL$MARK_REPL_TOKEN ENTRY(1);
     1951     2787
     1952     2788    1   DCL END_LIST$ PTR;
     1953     2789    1   DCL LEVEL$ PTR;
     1954     2790
     1955     2791
     1956     2792    1     CALL Z8EL$DELETE_REPLACE_LEVEL(LEVEL);
     1957     2793    1     CALL Z8EL$POSITION_TO_LEVEL(LEVEL, LEVEL$);
     1958     2794    1     END_LIST$ = LEVEL$ -> REPLACE_ITEM.LINK$;
     1959     2795    1     LEVEL$ -> REPLACE_ITEM.LINK$ = REPLACE$;
     1960     2796
     1961     2797    2     DO WHILE REPLACE$ -> REPLACE_ITEM.LINK$ ~= ADDR(NIL);
     1962     2798
     1963     2799    2       REPLACE$ -> REPLACE_ITEM.LEVEL = LEVEL;
     1964     2800    2       CALL Z8EL$MARK_REPL_TOKEN (REPLACE$->REPLACE_ITEM.FROM_LIST$);
     1965     2801    2       REPLACE$ = REPLACE$ -> REPLACE_ITEM.LINK$;
     1966     2802
     1967     2803    2     END;  /* do while */
     1968     2804
     1969     2805    1     REPLACE$ -> REPLACE_ITEM.LEVEL = LEVEL;
PL6.E3A0      #012=Z8EL$ADD_REPL_LEVEL File=Z8EL.:Z8A6TSI                        SAT 08/09/97 12:15 Page:460
     1970     2806    1     CALL Z8EL$MARK_REPL_TOKEN (REPLACE$->REPLACE_ITEM.FROM_LIST$);
     1971     2807    1     REPLACE$ -> REPLACE_ITEM.LINK$ = END_LIST$;
     1972     2808
     1973     2809    1     IF REPLACE_LIST.LINK$ ~= ADDR(NIL) THEN
     1974     2810    1       REPLACE_ACTIVE = TRUE;
     1975     2811
     1976     2812    1   END Z8EL$ADD_REPL_LEVEL;
     1977     2813
     1978     2814
     1979     2815        %EOD;

PL6.E3A0      #012=Z8EL$ADD_REPL_LEVEL File=Z8EL.:Z8A6TSI                        SAT 08/09/97 12:15 Page:461
--  Include file information  --

   Z8E_REPLACE.:Z8A6TOU  cannot be made into a system file and is referenced.
   X8A_COM_MACS.:X8A6TOU  is referenced.
   Z8A_NAMES.:Z8A6TOU  is referenced.
   Z8A_SUPP_MAC.:Z8A6TOU  is referenced.
   Z8A_DEFC.:Z8A6TOU  cannot be made into a system file and is referenced.
      No diagnostics issued in procedure Z8EL$ADD_REPL_LEVEL.

   Procedure Z8EL$ADD_REPL_LEVEL requires 62 words for executable code.
   Procedure Z8EL$ADD_REPL_LEVEL requires 10 words of local(AUTO) storage.

PL6.E3A0      #012=Z8EL$ADD_REPL_LEVEL File=Z8EL.:Z8A6TSI                        SAT 08/09/97 12:15 Page:462

 Object Unit name= Z8EL$ADD_REPL_LEVEL                        File name= Z8EL.:Z8A6TOU
 UTS= AUG 09 '97 12:15:20.68 SAT                              Compiler= PL-6/E31         Sev=      00
 SharedLib= :SHARED_SYSTEM                                    Alt SharedLib=


    ****  Control sections  ****

 Sect   Type Bound  Init  Size OctSiz  Section name(segment info)
    0  LblCom even  none     1      1  ITERATION
    1  LblCom even  none     1      1  CURRENT_SYMBOL_LEVEL
    2  LblCom even  none     1      1  REPLACE_ACTIVE
    3  LblCom even  none     1      1  IGNORE_COPY_REPLACE
    4  LblCom even  none     1      1  COPY_DEBUG_LEVEL
    5  LblCom even  none     4      4  REPLACE_LIST
    6  LblCom even  none     1      1  LEX_SYMBOL_QUEUE$
    7   Proc  even  none    62     76  Z8EL$ADD_REPL_LEVEL
    8  RoData even  none     3      3  Z8EL$ADD_REPL_LEVEL

    ****  Entry defs  ****

                              Check   Calling
                             calling  sequence
  Sect OctLoc Primary Altret sequence   type   Parms  Name
     7      0   yes            yes      Std        2  Z8EL$ADD_REPL_LEVEL

  ****  Entry refs  ****

         Check        Calling
        calling       sequence
Altret sequence SRef   type   Args  Name
         yes           Std       1 Z8EL$DELETE_REPLACE_LEVEL
         yes           Std       2 Z8EL$POSITION_TO_LEVEL
         yes           Std       1 Z8EL$MARK_REPL_TOKEN
                       nStd      0 X66_AUTO_2
                       nStd      0 X66_ARET
PL6.E3A0      #012=Z8EL$ADD_REPL_LEVEL File=Z8EL.:Z8A6TSI                        SAT 08/09/97 12:15 Page:463

  ****  Segment refs  ****

  Flags:  r = read only, s = secondary
Flgs Name                             Flgs Name                             Flgs Name
     NULLSID
PL6.E3A0      #012=Z8EL$ADD_REPL_LEVEL File=Z8EL.:Z8A6TSI                        SAT 08/09/97 12:15 Page:464


     1933        1        /*T***********************************************************/
     1934        2        /*T*                                                         */
     1935        3        /*T* Copyright (c) Bull HN Information Systems Inc., 1997    */
     1936        4        /*T*                                                         */
     1937        5        /*T***********************************************************/
     1938        6        Z8EL$ADD_REPL_LEVEL : PROC (LEVEL, REPLACE$);

      6  7 000000   000000 700200 xent  Z8EL$ADD_RE* TSX0  ! X66_AUTO_2
         7 000001   000012 000002                    ZERO    10,2

     1939        7
     1940        8    1   DCL REPLACE$ PTR;
     1941        9    1   DCL LEVEL SBIN;
     1942       10
     1943       11        %EQU PHASE = 1;
     1944       12        %INCLUDE Z8A_DEFC;
     1945       80        %INCLUDE Z8A_SUPP_MAC;
     1946     2480        %INCLUDE Z8E_REPLACE;
     1947     2783
     1948     2784    1   DCL Z8EL$DELETE_REPLACE_LEVEL ENTRY(1);
     1949     2785    1   DCL Z8EL$POSITION_TO_LEVEL ENTRY(2);
     1950     2786    1   DCL Z8EL$MARK_REPL_TOKEN ENTRY(1);
     1951     2787
     1952     2788    1   DCL END_LIST$ PTR;
     1953     2789    1   DCL LEVEL$ PTR;
     1954     2790
     1955     2791
     1956     2792    1     CALL Z8EL$DELETE_REPLACE_LEVEL(LEVEL);

   2792  7 000002   200003 630500                    EPPR0   @LEVEL,,AUTO
         7 000003   000000 631400 8                  EPPR1   0
         7 000004   000000 701000 xent               TSX1    Z8EL$DELETE_REPLACE_LEVEL
         7 000005   000000 011000                    NOP     0

     1957     2793    1     CALL Z8EL$POSITION_TO_LEVEL(LEVEL, LEVEL$);

PL6.E3A0      #012=Z8EL$ADD_REPL_LEVEL File=Z8EL.:Z8A6TSI                        SAT 08/09/97 12:15 Page:465
   2793  7 000006   200006 630500                    EPPR0   LEVEL$,,AUTO
         7 000007   200011 450500                    STP0    LEVEL$+3,,AUTO
         7 000010   200003 236100                    LDQ     @LEVEL,,AUTO
         7 000011   200010 756100                    STQ     LEVEL$+2,,AUTO
         7 000012   200010 630500                    EPPR0   LEVEL$+2,,AUTO
         7 000013   000001 631400 8                  EPPR1   1
         7 000014   000000 701000 xent               TSX1    Z8EL$POSITION_TO_LEVEL
         7 000015   000000 011000                    NOP     0

     1958     2794    1     END_LIST$ = LEVEL$ -> REPLACE_ITEM.LINK$;

   2794  7 000016   200006 470500                    LDP0    LEVEL$,,AUTO
         7 000017   000000 236100                    LDQ     0,,PR0
         7 000020   200005 756100                    STQ     END_LIST$,,AUTO

     1959     2795    1     LEVEL$ -> REPLACE_ITEM.LINK$ = REPLACE$;

   2795  7 000021   200004 471500                    LDP1    @REPLACE$,,AUTO
         7 000022   100000 236100                    LDQ     0,,PR1
         7 000023   000000 756100                    STQ     0,,PR0

     1960     2796
     1961     2797    2     DO WHILE REPLACE$ -> REPLACE_ITEM.LINK$ ~= ADDR(NIL);

   2797  7 000024   000045 710000 7                  TRA     s:2803

     1962     2798
     1963     2799    2       REPLACE$ -> REPLACE_ITEM.LEVEL = LEVEL;

   2799  7 000025   200004 470500                    LDP0    @REPLACE$,,AUTO
         7 000026   000000 471500                    LDP1    0,,PR0
         7 000027   200003 473500                    LDP3    @LEVEL,,AUTO
         7 000030   300000 235100                    LDA     0,,PR3
         7 000031   100003 755100                    STA     3,,PR1

     1964     2800    2       CALL Z8EL$MARK_REPL_TOKEN (REPLACE$->REPLACE_ITEM.FROM_LIST$);

PL6.E3A0      #012=Z8EL$ADD_REPL_LEVEL File=Z8EL.:Z8A6TSI                        SAT 08/09/97 12:15 Page:466
   2800  7 000032   000000 471500                    LDP1    0,,PR0
         7 000033   100001 634500                    EPPR4   1,,PR1
         7 000034   200010 454500                    STP4    LEVEL$+2,,AUTO
         7 000035   200010 630500                    EPPR0   LEVEL$+2,,AUTO
         7 000036   000000 631400 8                  EPPR1   0
         7 000037   000000 701000 xent               TSX1    Z8EL$MARK_REPL_TOKEN
         7 000040   000000 011000                    NOP     0

     1965     2801    2       REPLACE$ = REPLACE$ -> REPLACE_ITEM.LINK$;

   2801  7 000041   200004 470500                    LDP0    @REPLACE$,,AUTO
         7 000042   000000 471500                    LDP1    0,,PR0
         7 000043   100000 236100                    LDQ     0,,PR1
         7 000044   000000 756100                    STQ     0,,PR0

     1966     2802
     1967     2803    2     END;  /* do while */

   2803  7 000045   200004 470500                    LDP0    @REPLACE$,,AUTO
         7 000046   000000 471500                    LDP1    0,,PR0
         7 000047   100000 236100                    LDQ     0,,PR1
         7 000050   000002 116000 8                  CMPQ    2
         7 000051   000025 601000 7                  TNZ     s:2799

     1968     2804
     1969     2805    1     REPLACE$ -> REPLACE_ITEM.LEVEL = LEVEL;

   2805  7 000052   200003 473500                    LDP3    @LEVEL,,AUTO
         7 000053   300000 235100                    LDA     0,,PR3
         7 000054   100003 755100                    STA     3,,PR1

     1970     2806    1     CALL Z8EL$MARK_REPL_TOKEN (REPLACE$->REPLACE_ITEM.FROM_LIST$);

   2806  7 000055   000000 471500                    LDP1    0,,PR0
         7 000056   100001 634500                    EPPR4   1,,PR1
         7 000057   200010 454500                    STP4    LEVEL$+2,,AUTO
         7 000060   200010 630500                    EPPR0   LEVEL$+2,,AUTO
PL6.E3A0      #012=Z8EL$ADD_REPL_LEVEL File=Z8EL.:Z8A6TSI                        SAT 08/09/97 12:15 Page:467
         7 000061   000000 631400 8                  EPPR1   0
         7 000062   000000 701000 xent               TSX1    Z8EL$MARK_REPL_TOKEN
         7 000063   000000 011000                    NOP     0

     1971     2807    1     REPLACE$ -> REPLACE_ITEM.LINK$ = END_LIST$;

   2807  7 000064   200004 470500                    LDP0    @REPLACE$,,AUTO
         7 000065   000000 471500                    LDP1    0,,PR0
         7 000066   200005 236100                    LDQ     END_LIST$,,AUTO
         7 000067   100000 756100                    STQ     0,,PR1

     1972     2808
     1973     2809    1     IF REPLACE_LIST.LINK$ ~= ADDR(NIL) THEN

   2809  7 000070   000000 236000 5                  LDQ     REPLACE_LIST
         7 000071   000002 116000 8                  CMPQ    2
         7 000072   000075 600000 7                  TZE     s:2812

     1974     2810    1       REPLACE_ACTIVE = TRUE;

   2810  7 000073   400000 236003                    LDQ     -131072,DU
         7 000074   000000 756000 2                  STQ     REPLACE_ACTIVE

     1975     2811
     1976     2812    1   END Z8EL$ADD_REPL_LEVEL;

   2812  7 000075   000000 702200 xent               TSX2  ! X66_ARET
     1977     2813
     1978     2814
     1979     2815        %EOD;

PL6.E3A0      #012=Z8EL$ADD_REPL_LEVEL File=Z8EL.:Z8A6TSI                        SAT 08/09/97 12:15 Page:468
--  Include file information  --

   Z8E_REPLACE.:Z8A6TOU  cannot be made into a system file and is referenced.
   X8A_COM_MACS.:X8A6TOU  is referenced.
   Z8A_NAMES.:Z8A6TOU  is referenced.
   Z8A_SUPP_MAC.:Z8A6TOU  is referenced.
   Z8A_DEFC.:Z8A6TOU  cannot be made into a system file and is referenced.
      No diagnostics issued in procedure Z8EL$ADD_REPL_LEVEL.
PL6.E3A0      #012=Z8EL$ADD_REPL_LEVEL File=Z8EL.:Z8A6TSI                        SAT 08/09/97 12:15 Page:469

 **** Variables and constants ****

  ****  Section 000 LblCom ITERATION

  ****  Scalars and arrays  ****
OctLoc.c.b A Datatyp(siz) R M Lvl/name                 OctLoc.c.b A Datatyp(siz) R M Lvl/name

     0-0-0/w SBIN              1 ITERATION

  ****  Section 001 LblCom CURRENT_SYMBOL_LEVEL

  ****  Scalars and arrays  ****
OctLoc.c.b A Datatyp(siz) R M Lvl/name                 OctLoc.c.b A Datatyp(siz) R M Lvl/name

     0-0-0/w SBIN              1 CURRENT_SYMBOL_LEVEL

  ****  Section 002 LblCom REPLACE_ACTIVE

  ****  Scalars and arrays  ****
OctLoc.c.b A Datatyp(siz) R M Lvl/name                 OctLoc.c.b A Datatyp(siz) R M Lvl/name

     0-0-0/b BIT         r     1 REPLACE_ACTIVE

  ****  Section 003 LblCom IGNORE_COPY_REPLACE

  ****  Scalars and arrays  ****
OctLoc.c.b A Datatyp(siz) R M Lvl/name                 OctLoc.c.b A Datatyp(siz) R M Lvl/name

     0-0-0/b BIT               1 IGNORE_COPY_REPLACE

  ****  Section 004 LblCom COPY_DEBUG_LEVEL

  ****  Scalars and arrays  ****
OctLoc.c.b A Datatyp(siz) R M Lvl/name                 OctLoc.c.b A Datatyp(siz) R M Lvl/name

     0-0-0/w SBIN              1 COPY_DEBUG_LEVEL

PL6.E3A0      #012=Z8EL$ADD_REPL_LEVEL File=Z8EL.:Z8A6TSI                        SAT 08/09/97 12:15 Page:470
  ****  Section 005 LblCom REPLACE_LIST

  ****  Scalars and arrays  ****
OctLoc.c.b A Datatyp(siz) R M Lvl/name                 OctLoc.c.b A Datatyp(siz) R M Lvl/name

     0-0-0/w STRC(144)   r     1 REPLACE_LIST

  ****  Section 006 LblCom LEX_SYMBOL_QUEUE$

  ****  Scalars and arrays  ****
OctLoc.c.b A Datatyp(siz) R M Lvl/name                 OctLoc.c.b A Datatyp(siz) R M Lvl/name

     0-0-0/w PTR               1 LEX_SYMBOL_QUEUE$

  ****  Auto variables  ****

  ****  Scalars and arrays  ****
OctLoc.c.b A Datatyp(siz) R M Lvl/name                 OctLoc.c.b A Datatyp(siz) R M Lvl/name

     3-0-0/w PTR         r     1 @LEVEL                     4-0-0/w PTR         r     1 @REPLACE$
     5-0-0/w PTR         r     1 END_LIST$                 *0-0-0/w SBIN        r     1 LEVEL
     6-0-0/w PTR         r     1 LEVEL$                    *0-0-0/w PTR         r     1 REPLACE$

  ****  BASED and DCB variables  ****

  ****  Scalars and arrays  ****
OctLoc.c.b A Datatyp(siz) R M Lvl/name                 OctLoc.c.b A Datatyp(siz) R M Lvl/name

     0-0-0/w CHAR(4096)        1 CHARS                      0-0-0/w STRC(72)          1 CONT
     0-0-0/w STRC(36864)       1 PAGE                       0-0-0/w STRC(252)   r     1 REPLACE_ITEM


   Procedure Z8EL$ADD_REPL_LEVEL requires 62 words for executable code.
   Procedure Z8EL$ADD_REPL_LEVEL requires 10 words of local(AUTO) storage.

PL6.E3A0      #013=Z8EL$GET_REPLACE_TOKENS File=Z8EL.:Z8A6TSI                    SAT 08/09/97 12:15 Page:471
     1980        1        /*T***********************************************************/
     1981        2        /*T*                                                         */
     1982        3        /*T* Copyright (c) Bull HN Information Systems Inc., 1997    */
     1983        4        /*T*                                                         */
     1984        5        /*T***********************************************************/
     1985        6        Z8EL$GET_REPLACE_TOKENS : PROC(LIST$,
     1986        7                                       PSEUDO_TEXT_FLAG,
     1987        8                                       PSEUDO_TEXT_START_LINE,
     1988        9                                       PSEUDO_TEXT_START_COLUMN,
     1989       10                                       PSEUDO_TEXT_END_LINE,
     1990       11                                       PSEUDO_TEXT_END_COLUMN) ALTRET;
     1991       12
     1992       13
     1993       14    1   DCL LIST$ PTR;
     1994       15        /* LIST$ is set to point to a list of lex_symbols which represent
     1995       16           either the FROM_LIST or the TO_LIST of the replace */
     1996       17    1   DCL PSEUDO_TEXT_FLAG BIT(1) ALIGNED;
     1997       18    1   DCL PSEUDO_TEXT_START_LINE     SBIN;
     1998       19    1   DCL PSEUDO_TEXT_END_LINE       SBIN;
     1999       20    1   DCL PSEUDO_TEXT_START_COLUMN   SBIN;
     2000       21    1   DCL PSEUDO_TEXT_END_COLUMN     SBIN;
     2001       22
     2002       23        %EQU PHASE=1;
     2003       24        %INCLUDE Z8A_DEFC;
     2004       92        %INCLUDE Z8A_SUPP_MAC;
     2005     2492        %INCLUDE Z8A_COMCOM;
     2006     3142        %INCLUDE Z8E_BUFFERS;
     2007     3332        %INCLUDE Z8E_STACKS;
     2008     5598        %INCLUDE Z8E_HEAP;
     2009     5654        %INCLUDE Z8E_REPLACE;
     2010     5957        %INCLUDE Z8E_WINDOW;
     2011     8027
     2012     8028
     2013     8029    1   DCL Z8EL$HANDLE_LEVEL_CHANGE ENTRY(1);
     2014     8030    1   DCL Z8EL$PROCESS_COPY        ENTRY;
     2015     8031    1   DCL ADDRLIST$ PTR;
     2016     8032    1   DCL L$ PTR BASED(ADDRLIST$);
PL6.E3A0      #013=Z8EL$GET_REPLACE_TOKENS File=Z8EL.:Z8A6TSI                    SAT 08/09/97 12:15 Page:472
     2017     8033    1   DCL END_LIST$ PTR;
     2018     8034
     2019     8035
     2020     8036    1   PARSE_QUALIFIERS : PROC (END_LIST$) ALTRET;
     2021     8037
     2022     8038    2     DCL END_LIST$ PTR;
     2023     8039
     2024     8040    3     DO WHILE SUBSTR(LEX_SYMBOL.SYMBOL, 0, LEX_SYMBOL.SIZE) = 'OF'
     2025     8041    3           OR SUBSTR(LEX_SYMBOL.SYMBOL, 0, LEX_SYMBOL.SIZE) = 'IN';
     2026     8042
     2027     8043            %COPY_TO_NEW_LEX_SYMBOL (FROM$ = "ADDR(LEX_SYMBOL)",
     2028     8044                                     TO$   = END_LIST$ -> BASED_LEX_SYMBOL.NEXT$);
     2029     8059
     2030     8060    3       END_LIST$ = END_LIST$ -> BASED_LEX_SYMBOL.NEXT$;
     2031     8061
     2032     8062            %GET_A_TOKEN_OR_COPY;
     2033     8151
     2034     8152    3       IF LEX_SYMBOL.TYPE ~= %USER_WORD THEN
     2035     8153    3         ALTRETURN;
     2036     8154
     2037     8155            %COPY_TO_NEW_LEX_SYMBOL (FROM$ = "ADDR(LEX_SYMBOL)",
     2038     8156                                     TO$   = END_LIST$ -> BASED_LEX_SYMBOL.NEXT$);
     2039     8171
     2040     8172    3       END_LIST$ = END_LIST$ -> BASED_LEX_SYMBOL.NEXT$;
     2041     8173
     2042     8174            %GET_A_TOKEN_OR_COPY;
     2043     8263    3     END;
     2044     8264
     2045     8265    2   END PARSE_QUALIFIERS;
     2046     8266
     2047     8267
     2048     8268    1   PARSE_SUB_REFMOD : PROC (END_LIST$) ALTRET;
     2049     8269
     2050     8270    2     DCL END_LIST$ PTR;
     2051     8271    2     DCL LEXICAL_LEVEL SBIN;
     2052     8272
     2053     8273
PL6.E3A0      #013=Z8EL$GET_REPLACE_TOKENS File=Z8EL.:Z8A6TSI                    SAT 08/09/97 12:15 Page:473
     2054     8274    2     IF LEX_SYMBOL.TYPE = %LEFT_PAREN THEN
     2055     8275    3       DO;
     2056     8276    3         LEXICAL_LEVEL = 0;
     2057     8277
     2058     8278    4         DO UNTIL LEXICAL_LEVEL = 0;
     2059     8279
     2060     8280    4           IF LEX_SYMBOL.TYPE = %LEFT_PAREN THEN
     2061     8281    4             LEXICAL_LEVEL = LEXICAL_LEVEL + 1;
     2062     8282    4           ELSE
     2063     8283    4             IF LEX_SYMBOL.TYPE = %RIGHT_PAREN THEN
     2064     8284    4               LEXICAL_LEVEL = LEXICAL_LEVEL - 1;
     2065     8285    4             ELSE
     2066     8286    4               IF LEX_SYMBOL.TYPE = %PERIOD
     2067     8287    4                   OR LEX_SYMBOL.TYPE = %END_OF_FILE
     2068     8288    4                   OR LEX_SYMBOL.TYPE = %PSEUDO THEN
     2069     8289    4                 ALTRETURN;
     2070     8290
     2071     8291                %COPY_TO_NEW_LEX_SYMBOL (FROM$ = "ADDR(LEX_SYMBOL)",
     2072     8292                                         TO$ = END_LIST$ -> BASED_LEX_SYMBOL.NEXT$);
     2073     8307
     2074     8308    4           END_LIST$ = END_LIST$ -> BASED_LEX_SYMBOL.NEXT$;
     2075     8309
     2076     8310                %GET_A_TOKEN_OR_COPY;
     2077     8399
     2078     8400    4         END;
     2079     8401    3       END;
     2080     8402
     2081     8403    2   END PARSE_SUB_REFMOD;
     2082     8404
     2083     8405
     2084     8406    1   FAKE_PSEUDO_TEXT : PROC (LIST$, END_LIST$);
     2085     8407
     2086     8408    2     DCL LIST$ PTR;
     2087     8409    2     DCL END_LIST$ PTR;
     2088     8410
     2089     8411    2     PSEUDO_TEXT_FLAG = TRUE;
     2090     8412    2     PSEUDO_TEXT_START_LINE = LIST$ -> BASED_LEX_SYMBOL.LINE;
PL6.E3A0      #013=Z8EL$GET_REPLACE_TOKENS File=Z8EL.:Z8A6TSI                    SAT 08/09/97 12:15 Page:474
     2091     8413    2     PSEUDO_TEXT_START_COLUMN = LIST$ -> BASED_LEX_SYMBOL.COLUMN - 1;
     2092     8414
     2093     8415    2     PSEUDO_TEXT_END_LINE = END_LIST$ -> BASED_LEX_SYMBOL.END_LINE;
     2094     8416    2     PSEUDO_TEXT_END_COLUMN = END_LIST$ -> BASED_LEX_SYMBOL.END_COLUMN + 1;
     2095     8417    2   END FAKE_PSEUDO_TEXT;
     2096     8418
     2097     8419
     2098     8420
     2099     8421        /* One token is already present */
     2100     8422    1   IF LEX_SYMBOL.TYPE = %PSEUDO THEN
     2101     8423    2     DO;
     2102     8424    2       PSEUDO_TEXT_FLAG = TRUE;
     2103     8425    2       PSEUDO_TEXT_START_LINE = LEX_SYMBOL.END_LINE;
     2104     8426    2       PSEUDO_TEXT_START_COLUMN = LEX_SYMBOL.END_COLUMN;
     2105     8427    2       ADDRLIST$ = ADDR(LIST$);
     2106     8428
     2107     8429            %GET_A_TOKEN_OR_COPY;
     2108     8518
     2109     8519    3       DO WHILE LEX_SYMBOL.TYPE ~= %PSEUDO
     2110     8520    3            AND LEX_SYMBOL.TYPE ~= %END_OF_FILE;
     2111     8521
     2112     8522    3         IF LEX_SYMBOL.B.DELIM_ERROR THEN
     2113     8523    3           ALTRETURN;
     2114     8524
     2115     8525              %COPY_TO_NEW_LEX_SYMBOL(FROM$="ADDR(LEX_SYMBOL)", TO$=HEAP$);
     2116     8540    3         IF CURRENT_BUFFER$ -> FILL_BUFFER.LINE_TYPE.NULL_COMMENT_LINE
     2117     8541    3           THEN HEAP$ -> BASED_LEX_SYMBOL.B.COMMENT_TOKEN = TRUE;
     2118     8542    3         ADDRLIST$ -> L$ = HEAP$;
     2119     8543    3         ADDRLIST$ = ADDR(HEAP$ -> BASED_LEX_SYMBOL.NEXT$);
     2120     8544              %GET_A_TOKEN_OR_COPY;
     2121     8633
     2122     8634    3       END; /* DO WHILE */
     2123     8635    2       PSEUDO_TEXT_END_LINE = LEX_SYMBOL.LINE;
     2124     8636    2       PSEUDO_TEXT_END_COLUMN = LEX_SYMBOL.COLUMN;
     2125     8637
     2126     8638    2       IF LEX_SYMBOL.TYPE = %END_OF_FILE THEN
     2127     8639    2         ALTRETURN;
PL6.E3A0      #013=Z8EL$GET_REPLACE_TOKENS File=Z8EL.:Z8A6TSI                    SAT 08/09/97 12:15 Page:475
     2128     8640
     2129     8641            %GET_A_TOKEN_OR_COPY;
     2130     8730
     2131     8731    2     END;
     2132     8732    1   ELSE
     2133     8733    2     DO;
     2134     8734    2       PSEUDO_TEXT_FLAG = FALSE;
     2135     8735
     2136     8736            %COPY_TO_NEW_LEX_SYMBOL (FROM$ = "ADDR(LEX_SYMBOL)",
     2137     8737                                     TO$   = LIST$);
     2138     8752
     2139     8753            %GET_A_TOKEN_OR_COPY;
     2140     8842
     2141     8843    2       IF LIST$ -> BASED_LEX_SYMBOL.TYPE = %USER_WORD THEN
     2142     8844    3         DO;
     2143     8845    3           END_LIST$ = LIST$;
     2144     8846
     2145     8847    3           CALL PARSE_QUALIFIERS (END_LIST$)
     2146     8848    3             WHENALTRETURN
     2147     8849    4               DO;
     2148     8850    4                 ALTRETURN;
     2149     8851    4               END;
     2150     8852
     2151     8853    3           CALL PARSE_SUB_REFMOD (END_LIST$)
     2152     8854    3             WHENALTRETURN
     2153     8855    4               DO;
     2154     8856    4                 ALTRETURN;
     2155     8857    4               END;
     2156     8858
     2157     8859    3           CALL PARSE_SUB_REFMOD (END_LIST$)
     2158     8860    3             WHENALTRETURN
     2159     8861    4               DO;
     2160     8862    4                 ALTRETURN;
     2161     8863    4               END;
     2162     8864
     2163     8865    3           IF LIST$ -> BASED_LEX_SYMBOL.NEXT$ ~= ADDR(NIL) THEN
     2164     8866    3             CALL FAKE_PSEUDO_TEXT (LIST$, END_LIST$);
PL6.E3A0      #013=Z8EL$GET_REPLACE_TOKENS File=Z8EL.:Z8A6TSI                    SAT 08/09/97 12:15 Page:476
     2165     8867    3         END;
     2166     8868    2     END;
     2167     8869
     2168     8870    1   END Z8EL$GET_REPLACE_TOKENS;
     2169     8871        %EOD;

PL6.E3A0      #013=Z8EL$GET_REPLACE_TOKENS File=Z8EL.:Z8A6TSI                    SAT 08/09/97 12:15 Page:477
--  Include file information  --

   Z8E_WINDOW.:Z8A6TOU  is referenced.
   Z8E_REPLACE.:Z8A6TOU  cannot be made into a system file and is referenced.
   Z8E_HEAP.:Z8A6TOU  cannot be made into a system file and is referenced.
   Z8A_LEX_SYMB.:Z8A6TOU  cannot be made into a system file and is referenced.
   Z8E_STACKS.:Z8A6TOU  cannot be made into a system file and is referenced.
   Z8E_BUFFERS.:Z8A6TOU  cannot be made into a system file and is referenced.
   Z8A_COMCOM.:Z8A6TOU  cannot be made into a system file and is referenced.
   X8A_COM_MACS.:X8A6TOU  is referenced.
   Z8A_NAMES.:Z8A6TOU  is referenced.
   Z8A_SUPP_MAC.:Z8A6TOU  is referenced.
   Z8A_DEFC.:Z8A6TOU  cannot be made into a system file and is referenced.
      No diagnostics issued in procedure Z8EL$GET_REPLACE_TOKENS.

   Procedure Z8EL$GET_REPLACE_TOKENS requires 1128 words for executable code.
   Procedure Z8EL$GET_REPLACE_TOKENS requires 20 words of local(AUTO) storage.

PL6.E3A0      #013=Z8EL$GET_REPLACE_TOKENS File=Z8EL.:Z8A6TSI                    SAT 08/09/97 12:15 Page:478

 Object Unit name= Z8EL$GET_REPLACE_TOKENS                    File name= Z8EL.:Z8A6TOU
 UTS= AUG 09 '97 12:15:40.80 SAT                              Compiler= PL-6/E31         Sev=      00
 SharedLib= :SHARED_SYSTEM                                    Alt SharedLib=


    ****  Control sections  ****

 Sect   Type Bound  Init  Size OctSiz  Section name(segment info)
    0  LblCom even  none     1      1  ITERATION
    1  LblCom even  none     1      1  SCANNER_STATE
    2  LblCom even  none     1      1  CURRENT_BUFFER$
    3  LblCom even  none     1      1  LOOKAHEAD_BUFFER$
    4  LblCom even  none     1      1  CURRENT_LINE_LEVEL
    5  LblCom even  none     1      1  LINE_LIST$
    6  LblCom even  none     7      7  BUFFER
    7  LblCom even  none     1      1  ORIGINAL_ISN
    8  LblCom even  none     1      1  EXPANDED_ISN
    9  LblCom even  none     1      1  ISN_FOR_EXP_SRC
   10  LblCom even  none    90    132  LEX_SYMBOL
   11  LblCom even  none     1      1  CURRENT_LEX_SYMBOL$
   12  LblCom even  none    90    132  TEMP_LEX_SYMBOL
   13  LblCom even  none    90    132  TEMP_LEX_SYMBOL2
   14  LblCom even  none     1      1  HEAP$
   15  LblCom even  none     1      1  CURRENT_SYMBOL_LEVEL
   16  LblCom even  none     1      1  REPLACE_ACTIVE
   17  LblCom even  none     1      1  IGNORE_COPY_REPLACE
   18  LblCom even  none     1      1  COPY_DEBUG_LEVEL
   19  LblCom even  none     4      4  REPLACE_LIST
   20  LblCom even  none     1      1  LEX_SYMBOL_QUEUE$
   21  RoData even  UTS      3      3  Z8EL$GET_REPLACE_TOKENS
   22   Proc  even  none  1128   2150  Z8EL$GET_REPLACE_TOKENS
   23  RoData even  none     7      7  Z8EL$GET_REPLACE_TOKENS
PL6.E3A0      #013=Z8EL$GET_REPLACE_TOKENS File=Z8EL.:Z8A6TSI                    SAT 08/09/97 12:15 Page:479

    ****  Entry defs  ****

                              Check   Calling
                             calling  sequence
  Sect OctLoc Primary Altret sequence   type   Parms  Name
    22      0   yes    yes     yes      Std        6  Z8EL$GET_REPLACE_TOKENS

  ****  Entry refs  ****

         Check        Calling
        calling       sequence
Altret sequence SRef   type   Args  Name
         yes           Std       2 Z8ED$DISPOSE_HEAP
         yes           Std       0 Z8ES$SCANNER
         yes           Std       1 Z8EL$HANDLE_LEVEL_CHANGE
         yes           Std       2 Z8ED$NEW_HEAP
         yes           Std       0 Z8EL$GET_NEXT_SCANNER_LINE
         yes           Std       0 Z8EL$PROCESS_COPY
                       nStd      0 X66_AUTO_N
                       nStd      0 X66_AALT
                       nStd      0 X66_ARET

  ****  Data refs  ****

  Flags:  r = read only, s = secondary
Flgs Name                             Flgs Name                             Flgs Name
     COMCOM

  ****  Segment refs  ****

  Flags:  r = read only, s = secondary
Flgs Name                             Flgs Name                             Flgs Name
     NULLSID                               ISSID
PL6.E3A0      #013=Z8EL$GET_REPLACE_TOKENS File=Z8EL.:Z8A6TSI                    SAT 08/09/97 12:15 Page:480


     1980        1        /*T***********************************************************/
     1981        2        /*T*                                                         */
     1982        3        /*T* Copyright (c) Bull HN Information Systems Inc., 1997    */
     1983        4        /*T*                                                         */
     1984        5        /*T***********************************************************/
     1985        6        Z8EL$GET_REPLACE_TOKENS : PROC(LIST$,

      6 22 000000   000000 700200 xent  Z8EL$GET_RE* TSX0  ! X66_AUTO_N
        22 000001   000024 000006                    ZERO    20,6
        22 000002   001011 710000 22                 TRA     s:8422

     1986        7                                       PSEUDO_TEXT_FLAG,
     1987        8                                       PSEUDO_TEXT_START_LINE,
     1988        9                                       PSEUDO_TEXT_START_COLUMN,
     1989       10                                       PSEUDO_TEXT_END_LINE,
     1990       11                                       PSEUDO_TEXT_END_COLUMN) ALTRET;
     1991       12
     1992       13
     1993       14    1   DCL LIST$ PTR;
     1994       15        /* LIST$ is set to point to a list of lex_symbols which represent
     1995       16           either the FROM_LIST or the TO_LIST of the replace */
     1996       17    1   DCL PSEUDO_TEXT_FLAG BIT(1) ALIGNED;
     1997       18    1   DCL PSEUDO_TEXT_START_LINE     SBIN;
     1998       19    1   DCL PSEUDO_TEXT_END_LINE       SBIN;
     1999       20    1   DCL PSEUDO_TEXT_START_COLUMN   SBIN;
     2000       21    1   DCL PSEUDO_TEXT_END_COLUMN     SBIN;
     2001       22
     2002       23        %EQU PHASE=1;
     2003       24        %INCLUDE Z8A_DEFC;
     2004       92        %INCLUDE Z8A_SUPP_MAC;
     2005     2492        %INCLUDE Z8A_COMCOM;
     2006     3142        %INCLUDE Z8E_BUFFERS;
     2007     3332        %INCLUDE Z8E_STACKS;
     2008     5598        %INCLUDE Z8E_HEAP;
     2009     5654        %INCLUDE Z8E_REPLACE;
     2010     5957        %INCLUDE Z8E_WINDOW;
PL6.E3A0      #013=Z8EL$GET_REPLACE_TOKENS File=Z8EL.:Z8A6TSI                    SAT 08/09/97 12:15 Page:481
     2011     8027
     2012     8028
     2013     8029    1   DCL Z8EL$HANDLE_LEVEL_CHANGE ENTRY(1);
     2014     8030    1   DCL Z8EL$PROCESS_COPY        ENTRY;
     2015     8031    1   DCL ADDRLIST$ PTR;
     2016     8032    1   DCL L$ PTR BASED(ADDRLIST$);
     2017     8033    1   DCL END_LIST$ PTR;
     2018     8034
     2019     8035
     2020     8036    1   PARSE_QUALIFIERS : PROC (END_LIST$) ALTRET;

   8036 22 000003   200014 741300       PARSE_QUALI* STX1  ! END_LIST$+2,,AUTO

     2021     8037
     2022     8038    2     DCL END_LIST$ PTR;
     2023     8039
     2024     8040    3     DO WHILE SUBSTR(LEX_SYMBOL.SYMBOL, 0, LEX_SYMBOL.SIZE) = 'OF'

   8040 22 000004   000464 710000 22                 TRA     s:8263

     2025     8041    3           OR SUBSTR(LEX_SYMBOL.SYMBOL, 0, LEX_SYMBOL.SIZE) = 'IN';
     2026     8042
     2027     8043            %COPY_TO_NEW_LEX_SYMBOL (FROM$ = "ADDR(LEX_SYMBOL)",
     2028     8044                                     TO$   = END_LIST$ -> BASED_LEX_SYMBOL.NEXT$);

   8046 22 000005   200015 470500                    LDP0    @END_LIST$,,AUTO
        22 000006   000000 471500                    LDP1    0,,PR0
        22 000007   000010 236000 10                 LDQ     LEX_SYMBOL+8
        22 000010   000047 036007                    ADLQ    39,DL
        22 000011   000004 506007                    DIV     4,DL
        22 000012   200020 756100                    STQ     @END_LIST$+2,,AUTO
        22 000013   200020 633500                    EPPR3   @END_LIST$+2,,AUTO
        22 000014   200023 453500                    STP3    @END_LIST$+5,,AUTO
        22 000015   200022 451500                    STP1    @END_LIST$+4,,AUTO
        22 000016   200022 630500                    EPPR0   @END_LIST$+4,,AUTO
        22 000017   000000 631400 23                 EPPR1   0
        22 000020   000000 701000 xent               TSX1    Z8ED$NEW_HEAP
PL6.E3A0      #013=Z8EL$GET_REPLACE_TOKENS File=Z8EL.:Z8A6TSI                    SAT 08/09/97 12:15 Page:482
        22 000021   000000 011000                    NOP     0

   8053 22 000022   200015 470500                    LDP0    @END_LIST$,,AUTO
        22 000023   000000 471500                    LDP1    0,,PR0
        22 000024   100000 473500                    LDP3    0,,PR1
        22 000025   000010 235000 10                 LDA     LEX_SYMBOL+8
        22 000026   300010 755100                    STA     8,,PR3

   8054 22 000027   000000 471500                    LDP1    0,,PR0
        22 000030   100000 473500                    LDP3    0,,PR1
        22 000031   300010 720100                    LXL0    8,,PR3
        22 000032   000044 621010                    EAX1    36,X0
        22 000033   000010 722000 10                 LXL2    LEX_SYMBOL+8
        22 000034   000044 623012                    EAX3    36,X2
        22 000035   000140 100440                    MLR     fill='000'O
        22 000036   000000 000013 10                 ADSC9   LEX_SYMBOL               cn=0,n=*X3
        22 000037   300000 000011                    ADSC9   0,,PR3                   cn=0,n=*X1

     2029     8059
     2030     8060    3       END_LIST$ = END_LIST$ -> BASED_LEX_SYMBOL.NEXT$;

   8060 22 000040   000000 471500                    LDP1    0,,PR0
        22 000041   100000 236100                    LDQ     0,,PR1
        22 000042   000000 756100                    STQ     0,,PR0

     2031     8061
     2032     8062            %GET_A_TOKEN_OR_COPY;

   8071 22 000043   000000 236000 20                 LDQ     LEX_SYMBOL_QUEUE$
        22 000044   000001 116000 23                 CMPQ    1
        22 000045   000103 600000 22                 TZE     s:8094

   8077 22 000046   000000 471400 20                 LDP1    LEX_SYMBOL_QUEUE$
        22 000047   100010 235100                    LDA     8,,PR1
        22 000050   000010 755000 10                 STA     LEX_SYMBOL+8

   8078 22 000051   100010 720100                    LXL0    8,,PR1
PL6.E3A0      #013=Z8EL$GET_REPLACE_TOKENS File=Z8EL.:Z8A6TSI                    SAT 08/09/97 12:15 Page:483
        22 000052   000044 621010                    EAX1    36,X0
        22 000053   000044 622005                    EAX2    36,AL
        22 000054   000040 100540                    MLR     fill='000'O
        22 000055   100000 000011                    ADSC9   0,,PR1                   cn=0,n=*X1
        22 000056   000000 000012 10                 ADSC9   LEX_SYMBOL               cn=0,n=*X2

   8081 22 000057   100010 720100                    LXL0    8,,PR1
        22 000060   000044 621010                    EAX1    36,X0
        22 000061   000000 636011                    EAQ     0,X1
        22 000062   000022 732000                    QRS     18
        22 000063   000003 036007                    ADLQ    3,DL
        22 000064   000004 506007                    DIV     4,DL
        22 000065   200020 756100                    STQ     @END_LIST$+2,,AUTO
        22 000066   200020 633500                    EPPR3   @END_LIST$+2,,AUTO
        22 000067   200023 453500                    STP3    @END_LIST$+5,,AUTO
        22 000070   000002 236000 23                 LDQ     2
        22 000071   200022 756100                    STQ     @END_LIST$+4,,AUTO
        22 000072   200022 630500                    EPPR0   @END_LIST$+4,,AUTO
        22 000073   000000 631400 23                 EPPR1   0
        22 000074   000000 701000 xent               TSX1    Z8ED$DISPOSE_HEAP
        22 000075   000000 011000                    NOP     0

   8086 22 000076   000000 236000 10                 LDQ     LEX_SYMBOL
        22 000077   000000 756000 20                 STQ     LEX_SYMBOL_QUEUE$

   8087 22 000100   000001 236000 23                 LDQ     1
        22 000101   000000 756000 10                 STQ     LEX_SYMBOL

   8088 22 000102   000132 710000 22                 TRA     s:8107

   8094 22 000103   000003 631400 23                 EPPR1   3
        22 000104   000000 701000 xent               TSX1    Z8ES$SCANNER
        22 000105   000000 011000                    NOP     0

   8095 22 000106   000001 235000 10                 LDA     LEX_SYMBOL+1
        22 000107   000120 601000 22                 TNZ     s:8101

PL6.E3A0      #013=Z8EL$GET_REPLACE_TOKENS File=Z8EL.:Z8A6TSI                    SAT 08/09/97 12:15 Page:484
   8096 22 000110   000003 631400 23                 EPPR1   3
        22 000111   000000 701000 xent               TSX1    Z8EL$GET_NEXT_SCANNER_LINE
        22 000112   000000 011000                    NOP     0

   8097 22 000113   000003 631400 23                 EPPR1   3
        22 000114   000000 701000 xent               TSX1    Z8ES$SCANNER
        22 000115   000000 011000                    NOP     0

   8098 22 000116   000001 235000 10                 LDA     LEX_SYMBOL+1
        22 000117   000110 600000 22                 TZE     s:8096

   8101 22 000120   000003 236000 10                 LDQ     LEX_SYMBOL+3
        22 000121   000000 116000 15                 CMPQ    CURRENT_SYMBOL_LEVEL
        22 000122   000132 600000 22                 TZE     s:8107
        22 000123   000002 236000 10                 LDQ     LEX_SYMBOL+2
        22 000124   200000 316003                    CANQ    65536,DU
        22 000125   000132 601000 22                 TNZ     s:8107

   8103 22 000126   000005 630400 23                 EPPR0   5
        22 000127   000004 631400 23                 EPPR1   4
        22 000130   000000 701000 xent               TSX1    Z8EL$HANDLE_LEVEL_CHANGE
        22 000131   000000 011000                    NOP     0

   8107 22 000132   000010 235000 10                 LDA     LEX_SYMBOL+8
        22 000133   000004 115007                    CMPA    4,DL
        22 000134   000232 601000 22                 TNZ     s:8152
        22 000135   000011 236000 10                 LDQ     LEX_SYMBOL+9
        22 000136   000000 116000 21                 CMPQ    0
        22 000137   000232 601000 22                 TNZ     s:8152

   8109 22 000140   000003 631400 23                 EPPR1   3
        22 000141   000000 701000 xent               TSX1    Z8EL$PROCESS_COPY
        22 000142   000000 011000                    NOP     0

   8112 22 000143   000000 236000 20                 LDQ     LEX_SYMBOL_QUEUE$
        22 000144   000001 116000 23                 CMPQ    1
        22 000145   000203 600000 22                 TZE     s:8135
PL6.E3A0      #013=Z8EL$GET_REPLACE_TOKENS File=Z8EL.:Z8A6TSI                    SAT 08/09/97 12:15 Page:485

   8118 22 000146   000000 470400 20                 LDP0    LEX_SYMBOL_QUEUE$
        22 000147   000010 235100                    LDA     8,,PR0
        22 000150   000010 755000 10                 STA     LEX_SYMBOL+8

   8119 22 000151   000010 720100                    LXL0    8,,PR0
        22 000152   000044 621010                    EAX1    36,X0
        22 000153   000044 622005                    EAX2    36,AL
        22 000154   000040 100540                    MLR     fill='000'O
        22 000155   000000 000011                    ADSC9   0,,PR0                   cn=0,n=*X1
        22 000156   000000 000012 10                 ADSC9   LEX_SYMBOL               cn=0,n=*X2

   8122 22 000157   000010 720100                    LXL0    8,,PR0
        22 000160   000044 621010                    EAX1    36,X0
        22 000161   000000 636011                    EAQ     0,X1
        22 000162   000022 732000                    QRS     18
        22 000163   000003 036007                    ADLQ    3,DL
        22 000164   000004 506007                    DIV     4,DL
        22 000165   200020 756100                    STQ     @END_LIST$+2,,AUTO
        22 000166   200020 631500                    EPPR1   @END_LIST$+2,,AUTO
        22 000167   200023 451500                    STP1    @END_LIST$+5,,AUTO
        22 000170   000002 236000 23                 LDQ     2
        22 000171   200022 756100                    STQ     @END_LIST$+4,,AUTO
        22 000172   200022 630500                    EPPR0   @END_LIST$+4,,AUTO
        22 000173   000000 631400 23                 EPPR1   0
        22 000174   000000 701000 xent               TSX1    Z8ED$DISPOSE_HEAP
        22 000175   000000 011000                    NOP     0

   8127 22 000176   000000 236000 10                 LDQ     LEX_SYMBOL
        22 000177   000000 756000 20                 STQ     LEX_SYMBOL_QUEUE$

   8128 22 000200   000001 236000 23                 LDQ     1
        22 000201   000000 756000 10                 STQ     LEX_SYMBOL

   8129 22 000202   000232 710000 22                 TRA     s:8152

   8135 22 000203   000003 631400 23                 EPPR1   3
PL6.E3A0      #013=Z8EL$GET_REPLACE_TOKENS File=Z8EL.:Z8A6TSI                    SAT 08/09/97 12:15 Page:486
        22 000204   000000 701000 xent               TSX1    Z8ES$SCANNER
        22 000205   000000 011000                    NOP     0

   8136 22 000206   000001 235000 10                 LDA     LEX_SYMBOL+1
        22 000207   000220 601000 22                 TNZ     s:8142

   8137 22 000210   000003 631400 23                 EPPR1   3
        22 000211   000000 701000 xent               TSX1    Z8EL$GET_NEXT_SCANNER_LINE
        22 000212   000000 011000                    NOP     0

   8138 22 000213   000003 631400 23                 EPPR1   3
        22 000214   000000 701000 xent               TSX1    Z8ES$SCANNER
        22 000215   000000 011000                    NOP     0

   8139 22 000216   000001 235000 10                 LDA     LEX_SYMBOL+1
        22 000217   000210 600000 22                 TZE     s:8137

   8142 22 000220   000003 236000 10                 LDQ     LEX_SYMBOL+3
        22 000221   000000 116000 15                 CMPQ    CURRENT_SYMBOL_LEVEL
        22 000222   000232 600000 22                 TZE     s:8152
        22 000223   000002 236000 10                 LDQ     LEX_SYMBOL+2
        22 000224   200000 316003                    CANQ    65536,DU
        22 000225   000232 601000 22                 TNZ     s:8152

   8144 22 000226   000005 630400 23                 EPPR0   5
        22 000227   000004 631400 23                 EPPR1   4
        22 000230   000000 701000 xent               TSX1    Z8EL$HANDLE_LEVEL_CHANGE
        22 000231   000000 011000                    NOP     0

     2033     8151
     2034     8152    3       IF LEX_SYMBOL.TYPE ~= %USER_WORD THEN

   8152 22 000232   000001 235000 10                 LDA     LEX_SYMBOL+1
        22 000233   000005 115007                    CMPA    5,DL
        22 000234   000237 600000 22                 TZE     s:8158

     2035     8153    3         ALTRETURN;
PL6.E3A0      #013=Z8EL$GET_REPLACE_TOKENS File=Z8EL.:Z8A6TSI                    SAT 08/09/97 12:15 Page:487

   8153 22 000235   200014 221300                    LDX1  ! END_LIST$+2,,AUTO
        22 000236   000000 702211                    TSX2  ! 0,X1

     2036     8154
     2037     8155            %COPY_TO_NEW_LEX_SYMBOL (FROM$ = "ADDR(LEX_SYMBOL)",
     2038     8156                                     TO$   = END_LIST$ -> BASED_LEX_SYMBOL.NEXT$);

   8158 22 000237   200015 470500                    LDP0    @END_LIST$,,AUTO
        22 000240   000000 471500                    LDP1    0,,PR0
        22 000241   000010 236000 10                 LDQ     LEX_SYMBOL+8
        22 000242   000047 036007                    ADLQ    39,DL
        22 000243   000004 506007                    DIV     4,DL
        22 000244   200020 756100                    STQ     @END_LIST$+2,,AUTO
        22 000245   200020 633500                    EPPR3   @END_LIST$+2,,AUTO
        22 000246   200023 453500                    STP3    @END_LIST$+5,,AUTO
        22 000247   200022 451500                    STP1    @END_LIST$+4,,AUTO
        22 000250   200022 630500                    EPPR0   @END_LIST$+4,,AUTO
        22 000251   000000 631400 23                 EPPR1   0
        22 000252   000000 701000 xent               TSX1    Z8ED$NEW_HEAP
        22 000253   000000 011000                    NOP     0

   8165 22 000254   200015 470500                    LDP0    @END_LIST$,,AUTO
        22 000255   000000 471500                    LDP1    0,,PR0
        22 000256   100000 473500                    LDP3    0,,PR1
        22 000257   000010 235000 10                 LDA     LEX_SYMBOL+8
        22 000260   300010 755100                    STA     8,,PR3

   8166 22 000261   000000 471500                    LDP1    0,,PR0
        22 000262   100000 473500                    LDP3    0,,PR1
        22 000263   300010 720100                    LXL0    8,,PR3
        22 000264   000044 621010                    EAX1    36,X0
        22 000265   000010 722000 10                 LXL2    LEX_SYMBOL+8
        22 000266   000044 623012                    EAX3    36,X2
        22 000267   000140 100440                    MLR     fill='000'O
        22 000270   000000 000013 10                 ADSC9   LEX_SYMBOL               cn=0,n=*X3
        22 000271   300000 000011                    ADSC9   0,,PR3                   cn=0,n=*X1
PL6.E3A0      #013=Z8EL$GET_REPLACE_TOKENS File=Z8EL.:Z8A6TSI                    SAT 08/09/97 12:15 Page:488

     2039     8171
     2040     8172    3       END_LIST$ = END_LIST$ -> BASED_LEX_SYMBOL.NEXT$;

   8172 22 000272   000000 471500                    LDP1    0,,PR0
        22 000273   100000 236100                    LDQ     0,,PR1
        22 000274   000000 756100                    STQ     0,,PR0

     2041     8173
     2042     8174            %GET_A_TOKEN_OR_COPY;

   8183 22 000275   000000 236000 20                 LDQ     LEX_SYMBOL_QUEUE$
        22 000276   000001 116000 23                 CMPQ    1
        22 000277   000335 600000 22                 TZE     s:8206

   8189 22 000300   000000 471400 20                 LDP1    LEX_SYMBOL_QUEUE$
        22 000301   100010 235100                    LDA     8,,PR1
        22 000302   000010 755000 10                 STA     LEX_SYMBOL+8

   8190 22 000303   100010 720100                    LXL0    8,,PR1
        22 000304   000044 621010                    EAX1    36,X0
        22 000305   000044 622005                    EAX2    36,AL
        22 000306   000040 100540                    MLR     fill='000'O
        22 000307   100000 000011                    ADSC9   0,,PR1                   cn=0,n=*X1
        22 000310   000000 000012 10                 ADSC9   LEX_SYMBOL               cn=0,n=*X2

   8193 22 000311   100010 720100                    LXL0    8,,PR1
        22 000312   000044 621010                    EAX1    36,X0
        22 000313   000000 636011                    EAQ     0,X1
        22 000314   000022 732000                    QRS     18
        22 000315   000003 036007                    ADLQ    3,DL
        22 000316   000004 506007                    DIV     4,DL
        22 000317   200020 756100                    STQ     @END_LIST$+2,,AUTO
        22 000320   200020 633500                    EPPR3   @END_LIST$+2,,AUTO
        22 000321   200023 453500                    STP3    @END_LIST$+5,,AUTO
        22 000322   000002 236000 23                 LDQ     2
        22 000323   200022 756100                    STQ     @END_LIST$+4,,AUTO
PL6.E3A0      #013=Z8EL$GET_REPLACE_TOKENS File=Z8EL.:Z8A6TSI                    SAT 08/09/97 12:15 Page:489
        22 000324   200022 630500                    EPPR0   @END_LIST$+4,,AUTO
        22 000325   000000 631400 23                 EPPR1   0
        22 000326   000000 701000 xent               TSX1    Z8ED$DISPOSE_HEAP
        22 000327   000000 011000                    NOP     0

   8198 22 000330   000000 236000 10                 LDQ     LEX_SYMBOL
        22 000331   000000 756000 20                 STQ     LEX_SYMBOL_QUEUE$

   8199 22 000332   000001 236000 23                 LDQ     1
        22 000333   000000 756000 10                 STQ     LEX_SYMBOL

   8200 22 000334   000364 710000 22                 TRA     s:8219

   8206 22 000335   000003 631400 23                 EPPR1   3
        22 000336   000000 701000 xent               TSX1    Z8ES$SCANNER
        22 000337   000000 011000                    NOP     0

   8207 22 000340   000001 235000 10                 LDA     LEX_SYMBOL+1
        22 000341   000352 601000 22                 TNZ     s:8213

   8208 22 000342   000003 631400 23                 EPPR1   3
        22 000343   000000 701000 xent               TSX1    Z8EL$GET_NEXT_SCANNER_LINE
        22 000344   000000 011000                    NOP     0

   8209 22 000345   000003 631400 23                 EPPR1   3
        22 000346   000000 701000 xent               TSX1    Z8ES$SCANNER
        22 000347   000000 011000                    NOP     0

   8210 22 000350   000001 235000 10                 LDA     LEX_SYMBOL+1
        22 000351   000342 600000 22                 TZE     s:8208

   8213 22 000352   000003 236000 10                 LDQ     LEX_SYMBOL+3
        22 000353   000000 116000 15                 CMPQ    CURRENT_SYMBOL_LEVEL
        22 000354   000364 600000 22                 TZE     s:8219
        22 000355   000002 236000 10                 LDQ     LEX_SYMBOL+2
        22 000356   200000 316003                    CANQ    65536,DU
        22 000357   000364 601000 22                 TNZ     s:8219
PL6.E3A0      #013=Z8EL$GET_REPLACE_TOKENS File=Z8EL.:Z8A6TSI                    SAT 08/09/97 12:15 Page:490

   8215 22 000360   000005 630400 23                 EPPR0   5
        22 000361   000004 631400 23                 EPPR1   4
        22 000362   000000 701000 xent               TSX1    Z8EL$HANDLE_LEVEL_CHANGE
        22 000363   000000 011000                    NOP     0

   8219 22 000364   000010 235000 10                 LDA     LEX_SYMBOL+8
        22 000365   000004 115007                    CMPA    4,DL
        22 000366   000464 601000 22                 TNZ     s:8263
        22 000367   000011 236000 10                 LDQ     LEX_SYMBOL+9
        22 000370   000000 116000 21                 CMPQ    0
        22 000371   000464 601000 22                 TNZ     s:8263

   8221 22 000372   000003 631400 23                 EPPR1   3
        22 000373   000000 701000 xent               TSX1    Z8EL$PROCESS_COPY
        22 000374   000000 011000                    NOP     0

   8224 22 000375   000000 236000 20                 LDQ     LEX_SYMBOL_QUEUE$
        22 000376   000001 116000 23                 CMPQ    1
        22 000377   000435 600000 22                 TZE     s:8247

   8230 22 000400   000000 470400 20                 LDP0    LEX_SYMBOL_QUEUE$
        22 000401   000010 235100                    LDA     8,,PR0
        22 000402   000010 755000 10                 STA     LEX_SYMBOL+8

   8231 22 000403   000010 720100                    LXL0    8,,PR0
        22 000404   000044 621010                    EAX1    36,X0
        22 000405   000044 622005                    EAX2    36,AL
        22 000406   000040 100540                    MLR     fill='000'O
        22 000407   000000 000011                    ADSC9   0,,PR0                   cn=0,n=*X1
        22 000410   000000 000012 10                 ADSC9   LEX_SYMBOL               cn=0,n=*X2

   8234 22 000411   000010 720100                    LXL0    8,,PR0
        22 000412   000044 621010                    EAX1    36,X0
        22 000413   000000 636011                    EAQ     0,X1
        22 000414   000022 732000                    QRS     18
        22 000415   000003 036007                    ADLQ    3,DL
PL6.E3A0      #013=Z8EL$GET_REPLACE_TOKENS File=Z8EL.:Z8A6TSI                    SAT 08/09/97 12:15 Page:491
        22 000416   000004 506007                    DIV     4,DL
        22 000417   200020 756100                    STQ     @END_LIST$+2,,AUTO
        22 000420   200020 631500                    EPPR1   @END_LIST$+2,,AUTO
        22 000421   200023 451500                    STP1    @END_LIST$+5,,AUTO
        22 000422   000002 236000 23                 LDQ     2
        22 000423   200022 756100                    STQ     @END_LIST$+4,,AUTO
        22 000424   200022 630500                    EPPR0   @END_LIST$+4,,AUTO
        22 000425   000000 631400 23                 EPPR1   0
        22 000426   000000 701000 xent               TSX1    Z8ED$DISPOSE_HEAP
        22 000427   000000 011000                    NOP     0

   8239 22 000430   000000 236000 10                 LDQ     LEX_SYMBOL
        22 000431   000000 756000 20                 STQ     LEX_SYMBOL_QUEUE$

   8240 22 000432   000001 236000 23                 LDQ     1
        22 000433   000000 756000 10                 STQ     LEX_SYMBOL

   8241 22 000434   000464 710000 22                 TRA     s:8263

   8247 22 000435   000003 631400 23                 EPPR1   3
        22 000436   000000 701000 xent               TSX1    Z8ES$SCANNER
        22 000437   000000 011000                    NOP     0

   8248 22 000440   000001 235000 10                 LDA     LEX_SYMBOL+1
        22 000441   000452 601000 22                 TNZ     s:8254

   8249 22 000442   000003 631400 23                 EPPR1   3
        22 000443   000000 701000 xent               TSX1    Z8EL$GET_NEXT_SCANNER_LINE
        22 000444   000000 011000                    NOP     0

   8250 22 000445   000003 631400 23                 EPPR1   3
        22 000446   000000 701000 xent               TSX1    Z8ES$SCANNER
        22 000447   000000 011000                    NOP     0

   8251 22 000450   000001 235000 10                 LDA     LEX_SYMBOL+1
        22 000451   000442 600000 22                 TZE     s:8249

PL6.E3A0      #013=Z8EL$GET_REPLACE_TOKENS File=Z8EL.:Z8A6TSI                    SAT 08/09/97 12:15 Page:492
   8254 22 000452   000003 236000 10                 LDQ     LEX_SYMBOL+3
        22 000453   000000 116000 15                 CMPQ    CURRENT_SYMBOL_LEVEL
        22 000454   000464 600000 22                 TZE     s:8263
        22 000455   000002 236000 10                 LDQ     LEX_SYMBOL+2
        22 000456   200000 316003                    CANQ    65536,DU
        22 000457   000464 601000 22                 TNZ     s:8263

   8256 22 000460   000005 630400 23                 EPPR0   5
        22 000461   000004 631400 23                 EPPR1   4
        22 000462   000000 701000 xent               TSX1    Z8EL$HANDLE_LEVEL_CHANGE
        22 000463   000000 011000                    NOP     0

     2043     8263    3     END;

   8263 22 000464   000010 720000 10                 LXL0    LEX_SYMBOL+8
        22 000465   040000 106440                    CMPC    fill='040'O
        22 000466   000011 000010 10                 ADSC9   LEX_SYMBOL+9             cn=0,n=*X0
        22 000467   000001 000002 21                 ADSC9   1                        cn=0,n=2
        22 000470   000005 600000 22                 TZE     s:8046
        22 000471   040000 106440                    CMPC    fill='040'O
        22 000472   000011 000010 10                 ADSC9   LEX_SYMBOL+9             cn=0,n=*X0
        22 000473   000002 000002 21                 ADSC9   2                        cn=0,n=2
        22 000474   000005 600000 22                 TZE     s:8046

     2044     8264
     2045     8265    2   END PARSE_QUALIFIERS;

   8265 22 000475   200014 221300                    LDX1  ! END_LIST$+2,,AUTO
        22 000476   000001 702211                    TSX2  ! 1,X1

     2046     8266
     2047     8267
     2048     8268    1   PARSE_SUB_REFMOD : PROC (END_LIST$) ALTRET;

   8268 22 000477   200014 741300       PARSE_SUB_R* STX1  ! END_LIST$+2,,AUTO

     2049     8269
PL6.E3A0      #013=Z8EL$GET_REPLACE_TOKENS File=Z8EL.:Z8A6TSI                    SAT 08/09/97 12:15 Page:493
     2050     8270    2     DCL END_LIST$ PTR;
     2051     8271    2     DCL LEXICAL_LEVEL SBIN;
     2052     8272
     2053     8273
     2054     8274    2     IF LEX_SYMBOL.TYPE = %LEFT_PAREN THEN

   8274 22 000500   000001 235000 10                 LDA     LEX_SYMBOL+1
        22 000501   000006 115007                    CMPA    6,DL
        22 000502   000755 601000 22                 TNZ     s:8403

     2055     8275    3       DO;

     2056     8276    3         LEXICAL_LEVEL = 0;

   8276 22 000503   200016 450100                    STZ     LEXICAL_LEVEL,,AUTO

     2057     8277
     2058     8278    4         DO UNTIL LEXICAL_LEVEL = 0;

     2059     8279
     2060     8280    4           IF LEX_SYMBOL.TYPE = %LEFT_PAREN THEN

   8280 22 000504   000001 235000 10                 LDA     LEX_SYMBOL+1
        22 000505   000006 115007                    CMPA    6,DL
        22 000506   000511 601000 22                 TNZ     s:8283

     2061     8281    4             LEXICAL_LEVEL = LEXICAL_LEVEL + 1;

   8281 22 000507   200016 054100                    AOS     LEXICAL_LEVEL,,AUTO
        22 000510   000526 710000 22                 TRA     s:8294

     2062     8282    4           ELSE
     2063     8283    4             IF LEX_SYMBOL.TYPE = %RIGHT_PAREN THEN

   8283 22 000511   000007 115007                    CMPA    7,DL
        22 000512   000516 601000 22                 TNZ     s:8286

PL6.E3A0      #013=Z8EL$GET_REPLACE_TOKENS File=Z8EL.:Z8A6TSI                    SAT 08/09/97 12:15 Page:494
     2064     8284    4               LEXICAL_LEVEL = LEXICAL_LEVEL - 1;

   8284 22 000513   000001 336007                    LCQ     1,DL
        22 000514   200016 056100                    ASQ     LEXICAL_LEVEL,,AUTO
        22 000515   000526 710000 22                 TRA     s:8294

     2065     8285    4             ELSE
     2066     8286    4               IF LEX_SYMBOL.TYPE = %PERIOD

   8286 22 000516   000014 115007                    CMPA    12,DL
        22 000517   000524 600000 22                 TZE     s:8289
        22 000520   000001 115007                    CMPA    1,DL
        22 000521   000524 600000 22                 TZE     s:8289
        22 000522   000040 115007                    CMPA    32,DL
        22 000523   000526 601000 22                 TNZ     s:8294

     2067     8287    4                   OR LEX_SYMBOL.TYPE = %END_OF_FILE
     2068     8288    4                   OR LEX_SYMBOL.TYPE = %PSEUDO THEN
     2069     8289    4                 ALTRETURN;

   8289 22 000524   200014 221300                    LDX1  ! END_LIST$+2,,AUTO
        22 000525   000000 702211                    TSX2  ! 0,X1

     2070     8290
     2071     8291                %COPY_TO_NEW_LEX_SYMBOL (FROM$ = "ADDR(LEX_SYMBOL)",
     2072     8292                                         TO$ = END_LIST$ -> BASED_LEX_SYMBOL.NEXT$);

   8294 22 000526   200015 470500                    LDP0    @END_LIST$,,AUTO
        22 000527   000000 471500                    LDP1    0,,PR0
        22 000530   000010 236000 10                 LDQ     LEX_SYMBOL+8
        22 000531   000047 036007                    ADLQ    39,DL
        22 000532   000004 506007                    DIV     4,DL
        22 000533   200020 756100                    STQ     @END_LIST$+2,,AUTO
        22 000534   200020 633500                    EPPR3   @END_LIST$+2,,AUTO
        22 000535   200023 453500                    STP3    @END_LIST$+5,,AUTO
        22 000536   200022 451500                    STP1    @END_LIST$+4,,AUTO
        22 000537   200022 630500                    EPPR0   @END_LIST$+4,,AUTO
PL6.E3A0      #013=Z8EL$GET_REPLACE_TOKENS File=Z8EL.:Z8A6TSI                    SAT 08/09/97 12:15 Page:495
        22 000540   000000 631400 23                 EPPR1   0
        22 000541   000000 701000 xent               TSX1    Z8ED$NEW_HEAP
        22 000542   000000 011000                    NOP     0

   8301 22 000543   200015 470500                    LDP0    @END_LIST$,,AUTO
        22 000544   000000 471500                    LDP1    0,,PR0
        22 000545   100000 473500                    LDP3    0,,PR1
        22 000546   000010 235000 10                 LDA     LEX_SYMBOL+8
        22 000547   300010 755100                    STA     8,,PR3

   8302 22 000550   000000 471500                    LDP1    0,,PR0
        22 000551   100000 473500                    LDP3    0,,PR1
        22 000552   300010 720100                    LXL0    8,,PR3
        22 000553   000044 621010                    EAX1    36,X0
        22 000554   000010 722000 10                 LXL2    LEX_SYMBOL+8
        22 000555   000044 623012                    EAX3    36,X2
        22 000556   000140 100440                    MLR     fill='000'O
        22 000557   000000 000013 10                 ADSC9   LEX_SYMBOL               cn=0,n=*X3
        22 000560   300000 000011                    ADSC9   0,,PR3                   cn=0,n=*X1

     2073     8307
     2074     8308    4           END_LIST$ = END_LIST$ -> BASED_LEX_SYMBOL.NEXT$;

   8308 22 000561   000000 471500                    LDP1    0,,PR0
        22 000562   100000 236100                    LDQ     0,,PR1
        22 000563   000000 756100                    STQ     0,,PR0

     2075     8309
     2076     8310                %GET_A_TOKEN_OR_COPY;

   8319 22 000564   000000 236000 20                 LDQ     LEX_SYMBOL_QUEUE$
        22 000565   000001 116000 23                 CMPQ    1
        22 000566   000624 600000 22                 TZE     s:8342

   8325 22 000567   000000 471400 20                 LDP1    LEX_SYMBOL_QUEUE$
        22 000570   100010 235100                    LDA     8,,PR1
        22 000571   000010 755000 10                 STA     LEX_SYMBOL+8
PL6.E3A0      #013=Z8EL$GET_REPLACE_TOKENS File=Z8EL.:Z8A6TSI                    SAT 08/09/97 12:15 Page:496

   8326 22 000572   100010 720100                    LXL0    8,,PR1
        22 000573   000044 621010                    EAX1    36,X0
        22 000574   000044 622005                    EAX2    36,AL
        22 000575   000040 100540                    MLR     fill='000'O
        22 000576   100000 000011                    ADSC9   0,,PR1                   cn=0,n=*X1
        22 000577   000000 000012 10                 ADSC9   LEX_SYMBOL               cn=0,n=*X2

   8329 22 000600   100010 720100                    LXL0    8,,PR1
        22 000601   000044 621010                    EAX1    36,X0
        22 000602   000000 636011                    EAQ     0,X1
        22 000603   000022 732000                    QRS     18
        22 000604   000003 036007                    ADLQ    3,DL
        22 000605   000004 506007                    DIV     4,DL
        22 000606   200020 756100                    STQ     @END_LIST$+2,,AUTO
        22 000607   200020 633500                    EPPR3   @END_LIST$+2,,AUTO
        22 000610   200023 453500                    STP3    @END_LIST$+5,,AUTO
        22 000611   000002 236000 23                 LDQ     2
        22 000612   200022 756100                    STQ     @END_LIST$+4,,AUTO
        22 000613   200022 630500                    EPPR0   @END_LIST$+4,,AUTO
        22 000614   000000 631400 23                 EPPR1   0
        22 000615   000000 701000 xent               TSX1    Z8ED$DISPOSE_HEAP
        22 000616   000000 011000                    NOP     0

   8334 22 000617   000000 236000 10                 LDQ     LEX_SYMBOL
        22 000620   000000 756000 20                 STQ     LEX_SYMBOL_QUEUE$

   8335 22 000621   000001 236000 23                 LDQ     1
        22 000622   000000 756000 10                 STQ     LEX_SYMBOL

   8336 22 000623   000653 710000 22                 TRA     s:8355

   8342 22 000624   000003 631400 23                 EPPR1   3
        22 000625   000000 701000 xent               TSX1    Z8ES$SCANNER
        22 000626   000000 011000                    NOP     0

   8343 22 000627   000001 235000 10                 LDA     LEX_SYMBOL+1
PL6.E3A0      #013=Z8EL$GET_REPLACE_TOKENS File=Z8EL.:Z8A6TSI                    SAT 08/09/97 12:15 Page:497
        22 000630   000641 601000 22                 TNZ     s:8349

   8344 22 000631   000003 631400 23                 EPPR1   3
        22 000632   000000 701000 xent               TSX1    Z8EL$GET_NEXT_SCANNER_LINE
        22 000633   000000 011000                    NOP     0

   8345 22 000634   000003 631400 23                 EPPR1   3
        22 000635   000000 701000 xent               TSX1    Z8ES$SCANNER
        22 000636   000000 011000                    NOP     0

   8346 22 000637   000001 235000 10                 LDA     LEX_SYMBOL+1
        22 000640   000631 600000 22                 TZE     s:8344

   8349 22 000641   000003 236000 10                 LDQ     LEX_SYMBOL+3
        22 000642   000000 116000 15                 CMPQ    CURRENT_SYMBOL_LEVEL
        22 000643   000653 600000 22                 TZE     s:8355
        22 000644   000002 236000 10                 LDQ     LEX_SYMBOL+2
        22 000645   200000 316003                    CANQ    65536,DU
        22 000646   000653 601000 22                 TNZ     s:8355

   8351 22 000647   000005 630400 23                 EPPR0   5
        22 000650   000004 631400 23                 EPPR1   4
        22 000651   000000 701000 xent               TSX1    Z8EL$HANDLE_LEVEL_CHANGE
        22 000652   000000 011000                    NOP     0

   8355 22 000653   000010 235000 10                 LDA     LEX_SYMBOL+8
        22 000654   000004 115007                    CMPA    4,DL
        22 000655   000753 601000 22                 TNZ     s:8400
        22 000656   000011 236000 10                 LDQ     LEX_SYMBOL+9
        22 000657   000000 116000 21                 CMPQ    0
        22 000660   000753 601000 22                 TNZ     s:8400

   8357 22 000661   000003 631400 23                 EPPR1   3
        22 000662   000000 701000 xent               TSX1    Z8EL$PROCESS_COPY
        22 000663   000000 011000                    NOP     0

   8360 22 000664   000000 236000 20                 LDQ     LEX_SYMBOL_QUEUE$
PL6.E3A0      #013=Z8EL$GET_REPLACE_TOKENS File=Z8EL.:Z8A6TSI                    SAT 08/09/97 12:15 Page:498
        22 000665   000001 116000 23                 CMPQ    1
        22 000666   000724 600000 22                 TZE     s:8383

   8366 22 000667   000000 470400 20                 LDP0    LEX_SYMBOL_QUEUE$
        22 000670   000010 235100                    LDA     8,,PR0
        22 000671   000010 755000 10                 STA     LEX_SYMBOL+8

   8367 22 000672   000010 720100                    LXL0    8,,PR0
        22 000673   000044 621010                    EAX1    36,X0
        22 000674   000044 622005                    EAX2    36,AL
        22 000675   000040 100540                    MLR     fill='000'O
        22 000676   000000 000011                    ADSC9   0,,PR0                   cn=0,n=*X1
        22 000677   000000 000012 10                 ADSC9   LEX_SYMBOL               cn=0,n=*X2

   8370 22 000700   000010 720100                    LXL0    8,,PR0
        22 000701   000044 621010                    EAX1    36,X0
        22 000702   000000 636011                    EAQ     0,X1
        22 000703   000022 732000                    QRS     18
        22 000704   000003 036007                    ADLQ    3,DL
        22 000705   000004 506007                    DIV     4,DL
        22 000706   200020 756100                    STQ     @END_LIST$+2,,AUTO
        22 000707   200020 631500                    EPPR1   @END_LIST$+2,,AUTO
        22 000710   200023 451500                    STP1    @END_LIST$+5,,AUTO
        22 000711   000002 236000 23                 LDQ     2
        22 000712   200022 756100                    STQ     @END_LIST$+4,,AUTO
        22 000713   200022 630500                    EPPR0   @END_LIST$+4,,AUTO
        22 000714   000000 631400 23                 EPPR1   0
        22 000715   000000 701000 xent               TSX1    Z8ED$DISPOSE_HEAP
        22 000716   000000 011000                    NOP     0

   8375 22 000717   000000 236000 10                 LDQ     LEX_SYMBOL
        22 000720   000000 756000 20                 STQ     LEX_SYMBOL_QUEUE$

   8376 22 000721   000001 236000 23                 LDQ     1
        22 000722   000000 756000 10                 STQ     LEX_SYMBOL

   8377 22 000723   000753 710000 22                 TRA     s:8400
PL6.E3A0      #013=Z8EL$GET_REPLACE_TOKENS File=Z8EL.:Z8A6TSI                    SAT 08/09/97 12:15 Page:499

   8383 22 000724   000003 631400 23                 EPPR1   3
        22 000725   000000 701000 xent               TSX1    Z8ES$SCANNER
        22 000726   000000 011000                    NOP     0

   8384 22 000727   000001 235000 10                 LDA     LEX_SYMBOL+1
        22 000730   000741 601000 22                 TNZ     s:8390

   8385 22 000731   000003 631400 23                 EPPR1   3
        22 000732   000000 701000 xent               TSX1    Z8EL$GET_NEXT_SCANNER_LINE
        22 000733   000000 011000                    NOP     0

   8386 22 000734   000003 631400 23                 EPPR1   3
        22 000735   000000 701000 xent               TSX1    Z8ES$SCANNER
        22 000736   000000 011000                    NOP     0

   8387 22 000737   000001 235000 10                 LDA     LEX_SYMBOL+1
        22 000740   000731 600000 22                 TZE     s:8385

   8390 22 000741   000003 236000 10                 LDQ     LEX_SYMBOL+3
        22 000742   000000 116000 15                 CMPQ    CURRENT_SYMBOL_LEVEL
        22 000743   000753 600000 22                 TZE     s:8400
        22 000744   000002 236000 10                 LDQ     LEX_SYMBOL+2
        22 000745   200000 316003                    CANQ    65536,DU
        22 000746   000753 601000 22                 TNZ     s:8400

   8392 22 000747   000005 630400 23                 EPPR0   5
        22 000750   000004 631400 23                 EPPR1   4
        22 000751   000000 701000 xent               TSX1    Z8EL$HANDLE_LEVEL_CHANGE
        22 000752   000000 011000                    NOP     0

     2077     8399
     2078     8400    4         END;

   8400 22 000753   200016 235100                    LDA     LEXICAL_LEVEL,,AUTO
        22 000754   000504 601000 22                 TNZ     s:8280

PL6.E3A0      #013=Z8EL$GET_REPLACE_TOKENS File=Z8EL.:Z8A6TSI                    SAT 08/09/97 12:15 Page:500
     2079     8401    3       END;

     2080     8402
     2081     8403    2   END PARSE_SUB_REFMOD;

   8403 22 000755   200014 221300                    LDX1  ! END_LIST$+2,,AUTO
        22 000756   000001 702211                    TSX2  ! 1,X1

     2082     8404
     2083     8405
     2084     8406    1   FAKE_PSEUDO_TEXT : PROC (LIST$, END_LIST$);

   8406 22 000757   200014 741300       FAKE_PSEUDO* STX1  ! END_LIST$+2,,AUTO

     2085     8407
     2086     8408    2     DCL LIST$ PTR;
     2087     8409    2     DCL END_LIST$ PTR;
     2088     8410
     2089     8411    2     PSEUDO_TEXT_FLAG = TRUE;

   8411 22 000760   400000 236003                    LDQ     -131072,DU
        22 000761   200004 470500                    LDP0    @PSEUDO_TEXT_FLAG,,AUTO
        22 000762   000000 756100                    STQ     0,,PR0

     2090     8412    2     PSEUDO_TEXT_START_LINE = LIST$ -> BASED_LEX_SYMBOL.LINE;

   8412 22 000763   200015 471500                    LDP1    @LIST$,,AUTO
        22 000764   100000 473500                    LDP3    0,,PR1
        22 000765   200005 474500                    LDP4    @PSEUDO_TEXT_START_LINE,,AUTO
        22 000766   300004 235100                    LDA     4,,PR3
        22 000767   400000 755100                    STA     0,,PR4

     2091     8413    2     PSEUDO_TEXT_START_COLUMN = LIST$ -> BASED_LEX_SYMBOL.COLUMN - 1;

   8413 22 000770   100000 473500                    LDP3    0,,PR1
        22 000771   200006 475500                    LDP5    @PSEUDO_TEXT_START_COLUMN,,AUTO
        22 000772   300005 235100                    LDA     5,,PR3
PL6.E3A0      #013=Z8EL$GET_REPLACE_TOKENS File=Z8EL.:Z8A6TSI                    SAT 08/09/97 12:15 Page:501
        22 000773   000001 135007                    SBLA    1,DL
        22 000774   500000 755100                    STA     0,,PR5

     2092     8414
     2093     8415    2     PSEUDO_TEXT_END_LINE = END_LIST$ -> BASED_LEX_SYMBOL.END_LINE;

   8415 22 000775   200016 473500                    LDP3    @END_LIST$,,AUTO
        22 000776   300000 476500                    LDP6    0,,PR3
        22 000777   200007 477500                    LDP7    @PSEUDO_TEXT_END_LINE,,AUTO
        22 001000   600006 235100                    LDA     6,,PR6
        22 001001   700000 755100                    STA     0,,PR7

     2094     8416    2     PSEUDO_TEXT_END_COLUMN = END_LIST$ -> BASED_LEX_SYMBOL.END_COLUMN + 1;

   8416 22 001002   300000 476500                    LDP6    0,,PR3
        22 001003   200010 470500                    LDP0    @PSEUDO_TEXT_END_COLUMN,,AUTO
        22 001004   600007 235100                    LDA     7,,PR6
        22 001005   000001 035007                    ADLA    1,DL
        22 001006   000000 755100                    STA     0,,PR0

     2095     8417    2   END FAKE_PSEUDO_TEXT;

   8417 22 001007   200014 221300                    LDX1  ! END_LIST$+2,,AUTO
        22 001010   000001 702211                    TSX2  ! 1,X1

     2096     8418
     2097     8419
     2098     8420
     2099     8421        /* One token is already present */
     2100     8422    1   IF LEX_SYMBOL.TYPE = %PSEUDO THEN

   8422 22 001011   000001 235000 10                 LDA     LEX_SYMBOL+1
        22 001012   000040 115007                    CMPA    32,DL
        22 001013   001662 601000 22                 TNZ     s:8734

     2101     8423    2     DO;

PL6.E3A0      #013=Z8EL$GET_REPLACE_TOKENS File=Z8EL.:Z8A6TSI                    SAT 08/09/97 12:15 Page:502
     2102     8424    2       PSEUDO_TEXT_FLAG = TRUE;

   8424 22 001014   400000 236003                    LDQ     -131072,DU
        22 001015   200004 470500                    LDP0    @PSEUDO_TEXT_FLAG,,AUTO
        22 001016   000000 756100                    STQ     0,,PR0

     2103     8425    2       PSEUDO_TEXT_START_LINE = LEX_SYMBOL.END_LINE;

   8425 22 001017   200005 471500                    LDP1    @PSEUDO_TEXT_START_LINE,,AUTO
        22 001020   000006 235000 10                 LDA     LEX_SYMBOL+6
        22 001021   100000 755100                    STA     0,,PR1

     2104     8426    2       PSEUDO_TEXT_START_COLUMN = LEX_SYMBOL.END_COLUMN;

   8426 22 001022   200006 473500                    LDP3    @PSEUDO_TEXT_START_COLUMN,,AUTO
        22 001023   000007 235000 10                 LDA     LEX_SYMBOL+7
        22 001024   300000 755100                    STA     0,,PR3

     2105     8427    2       ADDRLIST$ = ADDR(LIST$);

   8427 22 001025   200003 236100                    LDQ     @LIST$,,AUTO
        22 001026   200011 756100                    STQ     ADDRLIST$,,AUTO

     2106     8428
     2107     8429            %GET_A_TOKEN_OR_COPY;

   8438 22 001027   000000 236000 20                 LDQ     LEX_SYMBOL_QUEUE$
        22 001030   000001 116000 23                 CMPQ    1
        22 001031   001067 600000 22                 TZE     s:8461

   8444 22 001032   000000 474400 20                 LDP4    LEX_SYMBOL_QUEUE$
        22 001033   400010 235100                    LDA     8,,PR4
        22 001034   000010 755000 10                 STA     LEX_SYMBOL+8

   8445 22 001035   400010 720100                    LXL0    8,,PR4
        22 001036   000044 621010                    EAX1    36,X0
        22 001037   000044 622005                    EAX2    36,AL
PL6.E3A0      #013=Z8EL$GET_REPLACE_TOKENS File=Z8EL.:Z8A6TSI                    SAT 08/09/97 12:15 Page:503
        22 001040   000040 100540                    MLR     fill='000'O
        22 001041   400000 000011                    ADSC9   0,,PR4                   cn=0,n=*X1
        22 001042   000000 000012 10                 ADSC9   LEX_SYMBOL               cn=0,n=*X2

   8448 22 001043   400010 720100                    LXL0    8,,PR4
        22 001044   000044 621010                    EAX1    36,X0
        22 001045   000000 636011                    EAQ     0,X1
        22 001046   000022 732000                    QRS     18
        22 001047   000003 036007                    ADLQ    3,DL
        22 001050   000004 506007                    DIV     4,DL
        22 001051   200020 756100                    STQ     @END_LIST$+2,,AUTO
        22 001052   200020 635500                    EPPR5   @END_LIST$+2,,AUTO
        22 001053   200023 455500                    STP5    @END_LIST$+5,,AUTO
        22 001054   000002 236000 23                 LDQ     2
        22 001055   200022 756100                    STQ     @END_LIST$+4,,AUTO
        22 001056   200022 630500                    EPPR0   @END_LIST$+4,,AUTO
        22 001057   000000 631400 23                 EPPR1   0
        22 001060   000000 701000 xent               TSX1    Z8ED$DISPOSE_HEAP
        22 001061   000000 011000                    NOP     0

   8453 22 001062   000000 236000 10                 LDQ     LEX_SYMBOL
        22 001063   000000 756000 20                 STQ     LEX_SYMBOL_QUEUE$

   8454 22 001064   000001 236000 23                 LDQ     1
        22 001065   000000 756000 10                 STQ     LEX_SYMBOL

   8455 22 001066   001116 710000 22                 TRA     s:8474

   8461 22 001067   000003 631400 23                 EPPR1   3
        22 001070   000000 701000 xent               TSX1    Z8ES$SCANNER
        22 001071   000000 011000                    NOP     0

   8462 22 001072   000001 235000 10                 LDA     LEX_SYMBOL+1
        22 001073   001104 601000 22                 TNZ     s:8468

   8463 22 001074   000003 631400 23                 EPPR1   3
        22 001075   000000 701000 xent               TSX1    Z8EL$GET_NEXT_SCANNER_LINE
PL6.E3A0      #013=Z8EL$GET_REPLACE_TOKENS File=Z8EL.:Z8A6TSI                    SAT 08/09/97 12:15 Page:504
        22 001076   000000 011000                    NOP     0

   8464 22 001077   000003 631400 23                 EPPR1   3
        22 001100   000000 701000 xent               TSX1    Z8ES$SCANNER
        22 001101   000000 011000                    NOP     0

   8465 22 001102   000001 235000 10                 LDA     LEX_SYMBOL+1
        22 001103   001074 600000 22                 TZE     s:8463

   8468 22 001104   000003 236000 10                 LDQ     LEX_SYMBOL+3
        22 001105   000000 116000 15                 CMPQ    CURRENT_SYMBOL_LEVEL
        22 001106   001116 600000 22                 TZE     s:8474
        22 001107   000002 236000 10                 LDQ     LEX_SYMBOL+2
        22 001110   200000 316003                    CANQ    65536,DU
        22 001111   001116 601000 22                 TNZ     s:8474

   8470 22 001112   000005 630400 23                 EPPR0   5
        22 001113   000004 631400 23                 EPPR1   4
        22 001114   000000 701000 xent               TSX1    Z8EL$HANDLE_LEVEL_CHANGE
        22 001115   000000 011000                    NOP     0

   8474 22 001116   000010 235000 10                 LDA     LEX_SYMBOL+8
        22 001117   000004 115007                    CMPA    4,DL
        22 001120   001216 601000 22                 TNZ     s:8519
        22 001121   000011 236000 10                 LDQ     LEX_SYMBOL+9
        22 001122   000000 116000 21                 CMPQ    0
        22 001123   001216 601000 22                 TNZ     s:8519

   8476 22 001124   000003 631400 23                 EPPR1   3
        22 001125   000000 701000 xent               TSX1    Z8EL$PROCESS_COPY
        22 001126   000000 011000                    NOP     0

   8479 22 001127   000000 236000 20                 LDQ     LEX_SYMBOL_QUEUE$
        22 001130   000001 116000 23                 CMPQ    1
        22 001131   001167 600000 22                 TZE     s:8502

   8485 22 001132   000000 470400 20                 LDP0    LEX_SYMBOL_QUEUE$
PL6.E3A0      #013=Z8EL$GET_REPLACE_TOKENS File=Z8EL.:Z8A6TSI                    SAT 08/09/97 12:15 Page:505
        22 001133   000010 235100                    LDA     8,,PR0
        22 001134   000010 755000 10                 STA     LEX_SYMBOL+8

   8486 22 001135   000010 720100                    LXL0    8,,PR0
        22 001136   000044 621010                    EAX1    36,X0
        22 001137   000044 622005                    EAX2    36,AL
        22 001140   000040 100540                    MLR     fill='000'O
        22 001141   000000 000011                    ADSC9   0,,PR0                   cn=0,n=*X1
        22 001142   000000 000012 10                 ADSC9   LEX_SYMBOL               cn=0,n=*X2

   8489 22 001143   000010 720100                    LXL0    8,,PR0
        22 001144   000044 621010                    EAX1    36,X0
        22 001145   000000 636011                    EAQ     0,X1
        22 001146   000022 732000                    QRS     18
        22 001147   000003 036007                    ADLQ    3,DL
        22 001150   000004 506007                    DIV     4,DL
        22 001151   200020 756100                    STQ     @END_LIST$+2,,AUTO
        22 001152   200020 631500                    EPPR1   @END_LIST$+2,,AUTO
        22 001153   200023 451500                    STP1    @END_LIST$+5,,AUTO
        22 001154   000002 236000 23                 LDQ     2
        22 001155   200022 756100                    STQ     @END_LIST$+4,,AUTO
        22 001156   200022 630500                    EPPR0   @END_LIST$+4,,AUTO
        22 001157   000000 631400 23                 EPPR1   0
        22 001160   000000 701000 xent               TSX1    Z8ED$DISPOSE_HEAP
        22 001161   000000 011000                    NOP     0

   8494 22 001162   000000 236000 10                 LDQ     LEX_SYMBOL
        22 001163   000000 756000 20                 STQ     LEX_SYMBOL_QUEUE$

   8495 22 001164   000001 236000 23                 LDQ     1
        22 001165   000000 756000 10                 STQ     LEX_SYMBOL

   8496 22 001166   001216 710000 22                 TRA     s:8519

   8502 22 001167   000003 631400 23                 EPPR1   3
        22 001170   000000 701000 xent               TSX1    Z8ES$SCANNER
        22 001171   000000 011000                    NOP     0
PL6.E3A0      #013=Z8EL$GET_REPLACE_TOKENS File=Z8EL.:Z8A6TSI                    SAT 08/09/97 12:15 Page:506

   8503 22 001172   000001 235000 10                 LDA     LEX_SYMBOL+1
        22 001173   001204 601000 22                 TNZ     s:8509

   8504 22 001174   000003 631400 23                 EPPR1   3
        22 001175   000000 701000 xent               TSX1    Z8EL$GET_NEXT_SCANNER_LINE
        22 001176   000000 011000                    NOP     0

   8505 22 001177   000003 631400 23                 EPPR1   3
        22 001200   000000 701000 xent               TSX1    Z8ES$SCANNER
        22 001201   000000 011000                    NOP     0

   8506 22 001202   000001 235000 10                 LDA     LEX_SYMBOL+1
        22 001203   001174 600000 22                 TZE     s:8504

   8509 22 001204   000003 236000 10                 LDQ     LEX_SYMBOL+3
        22 001205   000000 116000 15                 CMPQ    CURRENT_SYMBOL_LEVEL
        22 001206   001216 600000 22                 TZE     s:8519
        22 001207   000002 236000 10                 LDQ     LEX_SYMBOL+2
        22 001210   200000 316003                    CANQ    65536,DU
        22 001211   001216 601000 22                 TNZ     s:8519

   8511 22 001212   000005 630400 23                 EPPR0   5
        22 001213   000004 631400 23                 EPPR1   4
        22 001214   000000 701000 xent               TSX1    Z8EL$HANDLE_LEVEL_CHANGE
        22 001215   000000 011000                    NOP     0

     2108     8518
     2109     8519    3       DO WHILE LEX_SYMBOL.TYPE ~= %PSEUDO

   8519 22 001216   001453 710000 22                 TRA     s:8634

     2110     8520    3            AND LEX_SYMBOL.TYPE ~= %END_OF_FILE;
     2111     8521
     2112     8522    3         IF LEX_SYMBOL.B.DELIM_ERROR THEN

   8522 22 001217   000002 234000 10                 SZN     LEX_SYMBOL+2
PL6.E3A0      #013=Z8EL$GET_REPLACE_TOKENS File=Z8EL.:Z8A6TSI                    SAT 08/09/97 12:15 Page:507
        22 001220   001222 605000 22                 TPL     s:8527

     2113     8523    3           ALTRETURN;

   8523 22 001221   000000 702200 xent               TSX2  ! X66_AALT

     2114     8524
     2115     8525              %COPY_TO_NEW_LEX_SYMBOL(FROM$="ADDR(LEX_SYMBOL)", TO$=HEAP$);

   8527 22 001222   000010 236000 10                 LDQ     LEX_SYMBOL+8
        22 001223   000047 036007                    ADLQ    39,DL
        22 001224   000004 506007                    DIV     4,DL
        22 001225   200020 756100                    STQ     @END_LIST$+2,,AUTO
        22 001226   200020 630500                    EPPR0   @END_LIST$+2,,AUTO
        22 001227   200023 450500                    STP0    @END_LIST$+5,,AUTO
        22 001230   000006 236000 23                 LDQ     6
        22 001231   200022 756100                    STQ     @END_LIST$+4,,AUTO
        22 001232   200022 630500                    EPPR0   @END_LIST$+4,,AUTO
        22 001233   000000 631400 23                 EPPR1   0
        22 001234   000000 701000 xent               TSX1    Z8ED$NEW_HEAP
        22 001235   000000 011000                    NOP     0

   8534 22 001236   000000 470400 14                 LDP0    HEAP$
        22 001237   000010 235000 10                 LDA     LEX_SYMBOL+8
        22 001240   000010 755100                    STA     8,,PR0

   8535 22 001241   000010 720100                    LXL0    8,,PR0
        22 001242   000044 621010                    EAX1    36,X0
        22 001243   000010 722000 10                 LXL2    LEX_SYMBOL+8
        22 001244   000044 623012                    EAX3    36,X2
        22 001245   000140 100440                    MLR     fill='000'O
        22 001246   000000 000013 10                 ADSC9   LEX_SYMBOL               cn=0,n=*X3
        22 001247   000000 000011                    ADSC9   0,,PR0                   cn=0,n=*X1

     2116     8540    3         IF CURRENT_BUFFER$ -> FILL_BUFFER.LINE_TYPE.NULL_COMMENT_LINE

   8540 22 001250   000000 470400 2                  LDP0    CURRENT_BUFFER$
PL6.E3A0      #013=Z8EL$GET_REPLACE_TOKENS File=Z8EL.:Z8A6TSI                    SAT 08/09/97 12:15 Page:508
        22 001251   000011 236100                    LDQ     9,,PR0
        22 001252   004000 316003                    CANQ    2048,DU
        22 001253   001257 600000 22                 TZE     s:8542

     2117     8541    3           THEN HEAP$ -> BASED_LEX_SYMBOL.B.COMMENT_TOKEN = TRUE;

   8541 22 001254   000000 471400 14                 LDP1    HEAP$
        22 001255   020000 236003                    LDQ     8192,DU
        22 001256   100002 256100                    ORSQ    2,,PR1

     2118     8542    3         ADDRLIST$ -> L$ = HEAP$;

   8542 22 001257   000000 236000 14                 LDQ     HEAP$
        22 001260   200011 471500                    LDP1    ADDRLIST$,,AUTO
        22 001261   100000 756100                    STQ     0,,PR1

     2119     8543    3         ADDRLIST$ = ADDR(HEAP$ -> BASED_LEX_SYMBOL.NEXT$);

   8543 22 001262   000000 236000 14                 LDQ     HEAP$
        22 001263   200011 756100                    STQ     ADDRLIST$,,AUTO

     2120     8544              %GET_A_TOKEN_OR_COPY;

   8553 22 001264   000000 236000 20                 LDQ     LEX_SYMBOL_QUEUE$
        22 001265   000001 116000 23                 CMPQ    1
        22 001266   001324 600000 22                 TZE     s:8576

   8559 22 001267   000000 470400 20                 LDP0    LEX_SYMBOL_QUEUE$
        22 001270   000010 235100                    LDA     8,,PR0
        22 001271   000010 755000 10                 STA     LEX_SYMBOL+8

   8560 22 001272   000010 720100                    LXL0    8,,PR0
        22 001273   000044 621010                    EAX1    36,X0
        22 001274   000044 622005                    EAX2    36,AL
        22 001275   000040 100540                    MLR     fill='000'O
        22 001276   000000 000011                    ADSC9   0,,PR0                   cn=0,n=*X1
        22 001277   000000 000012 10                 ADSC9   LEX_SYMBOL               cn=0,n=*X2
PL6.E3A0      #013=Z8EL$GET_REPLACE_TOKENS File=Z8EL.:Z8A6TSI                    SAT 08/09/97 12:15 Page:509

   8563 22 001300   000010 720100                    LXL0    8,,PR0
        22 001301   000044 621010                    EAX1    36,X0
        22 001302   000000 636011                    EAQ     0,X1
        22 001303   000022 732000                    QRS     18
        22 001304   000003 036007                    ADLQ    3,DL
        22 001305   000004 506007                    DIV     4,DL
        22 001306   200020 756100                    STQ     @END_LIST$+2,,AUTO
        22 001307   200020 631500                    EPPR1   @END_LIST$+2,,AUTO
        22 001310   200023 451500                    STP1    @END_LIST$+5,,AUTO
        22 001311   000002 236000 23                 LDQ     2
        22 001312   200022 756100                    STQ     @END_LIST$+4,,AUTO
        22 001313   200022 630500                    EPPR0   @END_LIST$+4,,AUTO
        22 001314   000000 631400 23                 EPPR1   0
        22 001315   000000 701000 xent               TSX1    Z8ED$DISPOSE_HEAP
        22 001316   000000 011000                    NOP     0

   8568 22 001317   000000 236000 10                 LDQ     LEX_SYMBOL
        22 001320   000000 756000 20                 STQ     LEX_SYMBOL_QUEUE$

   8569 22 001321   000001 236000 23                 LDQ     1
        22 001322   000000 756000 10                 STQ     LEX_SYMBOL

   8570 22 001323   001353 710000 22                 TRA     s:8589

   8576 22 001324   000003 631400 23                 EPPR1   3
        22 001325   000000 701000 xent               TSX1    Z8ES$SCANNER
        22 001326   000000 011000                    NOP     0

   8577 22 001327   000001 235000 10                 LDA     LEX_SYMBOL+1
        22 001330   001341 601000 22                 TNZ     s:8583

   8578 22 001331   000003 631400 23                 EPPR1   3
        22 001332   000000 701000 xent               TSX1    Z8EL$GET_NEXT_SCANNER_LINE
        22 001333   000000 011000                    NOP     0

   8579 22 001334   000003 631400 23                 EPPR1   3
PL6.E3A0      #013=Z8EL$GET_REPLACE_TOKENS File=Z8EL.:Z8A6TSI                    SAT 08/09/97 12:15 Page:510
        22 001335   000000 701000 xent               TSX1    Z8ES$SCANNER
        22 001336   000000 011000                    NOP     0

   8580 22 001337   000001 235000 10                 LDA     LEX_SYMBOL+1
        22 001340   001331 600000 22                 TZE     s:8578

   8583 22 001341   000003 236000 10                 LDQ     LEX_SYMBOL+3
        22 001342   000000 116000 15                 CMPQ    CURRENT_SYMBOL_LEVEL
        22 001343   001353 600000 22                 TZE     s:8589
        22 001344   000002 236000 10                 LDQ     LEX_SYMBOL+2
        22 001345   200000 316003                    CANQ    65536,DU
        22 001346   001353 601000 22                 TNZ     s:8589

   8585 22 001347   000005 630400 23                 EPPR0   5
        22 001350   000004 631400 23                 EPPR1   4
        22 001351   000000 701000 xent               TSX1    Z8EL$HANDLE_LEVEL_CHANGE
        22 001352   000000 011000                    NOP     0

   8589 22 001353   000010 235000 10                 LDA     LEX_SYMBOL+8
        22 001354   000004 115007                    CMPA    4,DL
        22 001355   001453 601000 22                 TNZ     s:8634
        22 001356   000011 236000 10                 LDQ     LEX_SYMBOL+9
        22 001357   000000 116000 21                 CMPQ    0
        22 001360   001453 601000 22                 TNZ     s:8634

   8591 22 001361   000003 631400 23                 EPPR1   3
        22 001362   000000 701000 xent               TSX1    Z8EL$PROCESS_COPY
        22 001363   000000 011000                    NOP     0

   8594 22 001364   000000 236000 20                 LDQ     LEX_SYMBOL_QUEUE$
        22 001365   000001 116000 23                 CMPQ    1
        22 001366   001424 600000 22                 TZE     s:8617

   8600 22 001367   000000 470400 20                 LDP0    LEX_SYMBOL_QUEUE$
        22 001370   000010 235100                    LDA     8,,PR0
        22 001371   000010 755000 10                 STA     LEX_SYMBOL+8

PL6.E3A0      #013=Z8EL$GET_REPLACE_TOKENS File=Z8EL.:Z8A6TSI                    SAT 08/09/97 12:15 Page:511
   8601 22 001372   000010 720100                    LXL0    8,,PR0
        22 001373   000044 621010                    EAX1    36,X0
        22 001374   000044 622005                    EAX2    36,AL
        22 001375   000040 100540                    MLR     fill='000'O
        22 001376   000000 000011                    ADSC9   0,,PR0                   cn=0,n=*X1
        22 001377   000000 000012 10                 ADSC9   LEX_SYMBOL               cn=0,n=*X2

   8604 22 001400   000010 720100                    LXL0    8,,PR0
        22 001401   000044 621010                    EAX1    36,X0
        22 001402   000000 636011                    EAQ     0,X1
        22 001403   000022 732000                    QRS     18
        22 001404   000003 036007                    ADLQ    3,DL
        22 001405   000004 506007                    DIV     4,DL
        22 001406   200020 756100                    STQ     @END_LIST$+2,,AUTO
        22 001407   200020 631500                    EPPR1   @END_LIST$+2,,AUTO
        22 001410   200023 451500                    STP1    @END_LIST$+5,,AUTO
        22 001411   000002 236000 23                 LDQ     2
        22 001412   200022 756100                    STQ     @END_LIST$+4,,AUTO
        22 001413   200022 630500                    EPPR0   @END_LIST$+4,,AUTO
        22 001414   000000 631400 23                 EPPR1   0
        22 001415   000000 701000 xent               TSX1    Z8ED$DISPOSE_HEAP
        22 001416   000000 011000                    NOP     0

   8609 22 001417   000000 236000 10                 LDQ     LEX_SYMBOL
        22 001420   000000 756000 20                 STQ     LEX_SYMBOL_QUEUE$

   8610 22 001421   000001 236000 23                 LDQ     1
        22 001422   000000 756000 10                 STQ     LEX_SYMBOL

   8611 22 001423   001453 710000 22                 TRA     s:8634

   8617 22 001424   000003 631400 23                 EPPR1   3
        22 001425   000000 701000 xent               TSX1    Z8ES$SCANNER
        22 001426   000000 011000                    NOP     0

   8618 22 001427   000001 235000 10                 LDA     LEX_SYMBOL+1
        22 001430   001441 601000 22                 TNZ     s:8624
PL6.E3A0      #013=Z8EL$GET_REPLACE_TOKENS File=Z8EL.:Z8A6TSI                    SAT 08/09/97 12:15 Page:512

   8619 22 001431   000003 631400 23                 EPPR1   3
        22 001432   000000 701000 xent               TSX1    Z8EL$GET_NEXT_SCANNER_LINE
        22 001433   000000 011000                    NOP     0

   8620 22 001434   000003 631400 23                 EPPR1   3
        22 001435   000000 701000 xent               TSX1    Z8ES$SCANNER
        22 001436   000000 011000                    NOP     0

   8621 22 001437   000001 235000 10                 LDA     LEX_SYMBOL+1
        22 001440   001431 600000 22                 TZE     s:8619

   8624 22 001441   000003 236000 10                 LDQ     LEX_SYMBOL+3
        22 001442   000000 116000 15                 CMPQ    CURRENT_SYMBOL_LEVEL
        22 001443   001453 600000 22                 TZE     s:8634
        22 001444   000002 236000 10                 LDQ     LEX_SYMBOL+2
        22 001445   200000 316003                    CANQ    65536,DU
        22 001446   001453 601000 22                 TNZ     s:8634

   8626 22 001447   000005 630400 23                 EPPR0   5
        22 001450   000004 631400 23                 EPPR1   4
        22 001451   000000 701000 xent               TSX1    Z8EL$HANDLE_LEVEL_CHANGE
        22 001452   000000 011000                    NOP     0

     2121     8633
     2122     8634    3       END; /* DO WHILE */

   8634 22 001453   000001 235000 10                 LDA     LEX_SYMBOL+1
        22 001454   000040 115007                    CMPA    32,DL
        22 001455   001460 600000 22                 TZE     s:8635
        22 001456   000001 115007                    CMPA    1,DL
        22 001457   001217 601000 22                 TNZ     s:8522

     2123     8635    2       PSEUDO_TEXT_END_LINE = LEX_SYMBOL.LINE;

   8635 22 001460   200007 470500                    LDP0    @PSEUDO_TEXT_END_LINE,,AUTO
        22 001461   000004 236000 10                 LDQ     LEX_SYMBOL+4
PL6.E3A0      #013=Z8EL$GET_REPLACE_TOKENS File=Z8EL.:Z8A6TSI                    SAT 08/09/97 12:15 Page:513
        22 001462   000000 756100                    STQ     0,,PR0

     2124     8636    2       PSEUDO_TEXT_END_COLUMN = LEX_SYMBOL.COLUMN;

   8636 22 001463   200010 471500                    LDP1    @PSEUDO_TEXT_END_COLUMN,,AUTO
        22 001464   000005 235000 10                 LDA     LEX_SYMBOL+5
        22 001465   100000 755100                    STA     0,,PR1

     2125     8637
     2126     8638    2       IF LEX_SYMBOL.TYPE = %END_OF_FILE THEN

   8638 22 001466   000001 236000 10                 LDQ     LEX_SYMBOL+1
        22 001467   000001 116007                    CMPQ    1,DL
        22 001470   001472 601000 22                 TNZ     s:8650

     2127     8639    2         ALTRETURN;

   8639 22 001471   000000 702200 xent               TSX2  ! X66_AALT

     2128     8640
     2129     8641            %GET_A_TOKEN_OR_COPY;

   8650 22 001472   000000 236000 20                 LDQ     LEX_SYMBOL_QUEUE$
        22 001473   000001 116000 23                 CMPQ    1
        22 001474   001532 600000 22                 TZE     s:8673

   8656 22 001475   000000 473400 20                 LDP3    LEX_SYMBOL_QUEUE$
        22 001476   300010 235100                    LDA     8,,PR3
        22 001477   000010 755000 10                 STA     LEX_SYMBOL+8

   8657 22 001500   300010 720100                    LXL0    8,,PR3
        22 001501   000044 621010                    EAX1    36,X0
        22 001502   000044 622005                    EAX2    36,AL
        22 001503   000040 100540                    MLR     fill='000'O
        22 001504   300000 000011                    ADSC9   0,,PR3                   cn=0,n=*X1
        22 001505   000000 000012 10                 ADSC9   LEX_SYMBOL               cn=0,n=*X2

PL6.E3A0      #013=Z8EL$GET_REPLACE_TOKENS File=Z8EL.:Z8A6TSI                    SAT 08/09/97 12:15 Page:514
   8660 22 001506   300010 720100                    LXL0    8,,PR3
        22 001507   000044 621010                    EAX1    36,X0
        22 001510   000000 636011                    EAQ     0,X1
        22 001511   000022 732000                    QRS     18
        22 001512   000003 036007                    ADLQ    3,DL
        22 001513   000004 506007                    DIV     4,DL
        22 001514   200020 756100                    STQ     @END_LIST$+2,,AUTO
        22 001515   200020 634500                    EPPR4   @END_LIST$+2,,AUTO
        22 001516   200023 454500                    STP4    @END_LIST$+5,,AUTO
        22 001517   000002 236000 23                 LDQ     2
        22 001520   200022 756100                    STQ     @END_LIST$+4,,AUTO
        22 001521   200022 630500                    EPPR0   @END_LIST$+4,,AUTO
        22 001522   000000 631400 23                 EPPR1   0
        22 001523   000000 701000 xent               TSX1    Z8ED$DISPOSE_HEAP
        22 001524   000000 011000                    NOP     0

   8665 22 001525   000000 236000 10                 LDQ     LEX_SYMBOL
        22 001526   000000 756000 20                 STQ     LEX_SYMBOL_QUEUE$

   8666 22 001527   000001 236000 23                 LDQ     1
        22 001530   000000 756000 10                 STQ     LEX_SYMBOL

   8667 22 001531   001561 710000 22                 TRA     s:8686

   8673 22 001532   000003 631400 23                 EPPR1   3
        22 001533   000000 701000 xent               TSX1    Z8ES$SCANNER
        22 001534   000000 011000                    NOP     0

   8674 22 001535   000001 235000 10                 LDA     LEX_SYMBOL+1
        22 001536   001547 601000 22                 TNZ     s:8680

   8675 22 001537   000003 631400 23                 EPPR1   3
        22 001540   000000 701000 xent               TSX1    Z8EL$GET_NEXT_SCANNER_LINE
        22 001541   000000 011000                    NOP     0

   8676 22 001542   000003 631400 23                 EPPR1   3
        22 001543   000000 701000 xent               TSX1    Z8ES$SCANNER
PL6.E3A0      #013=Z8EL$GET_REPLACE_TOKENS File=Z8EL.:Z8A6TSI                    SAT 08/09/97 12:15 Page:515
        22 001544   000000 011000                    NOP     0

   8677 22 001545   000001 235000 10                 LDA     LEX_SYMBOL+1
        22 001546   001537 600000 22                 TZE     s:8675

   8680 22 001547   000003 236000 10                 LDQ     LEX_SYMBOL+3
        22 001550   000000 116000 15                 CMPQ    CURRENT_SYMBOL_LEVEL
        22 001551   001561 600000 22                 TZE     s:8686
        22 001552   000002 236000 10                 LDQ     LEX_SYMBOL+2
        22 001553   200000 316003                    CANQ    65536,DU
        22 001554   001561 601000 22                 TNZ     s:8686

   8682 22 001555   000005 630400 23                 EPPR0   5
        22 001556   000004 631400 23                 EPPR1   4
        22 001557   000000 701000 xent               TSX1    Z8EL$HANDLE_LEVEL_CHANGE
        22 001560   000000 011000                    NOP     0

   8686 22 001561   000010 235000 10                 LDA     LEX_SYMBOL+8
        22 001562   000004 115007                    CMPA    4,DL
        22 001563   002147 601000 22                 TNZ     s:8870
        22 001564   000011 236000 10                 LDQ     LEX_SYMBOL+9
        22 001565   000000 116000 21                 CMPQ    0
        22 001566   002147 601000 22                 TNZ     s:8870

   8688 22 001567   000003 631400 23                 EPPR1   3
        22 001570   000000 701000 xent               TSX1    Z8EL$PROCESS_COPY
        22 001571   000000 011000                    NOP     0

   8691 22 001572   000000 236000 20                 LDQ     LEX_SYMBOL_QUEUE$
        22 001573   000001 116000 23                 CMPQ    1
        22 001574   001632 600000 22                 TZE     s:8714

   8697 22 001575   000000 470400 20                 LDP0    LEX_SYMBOL_QUEUE$
        22 001576   000010 235100                    LDA     8,,PR0
        22 001577   000010 755000 10                 STA     LEX_SYMBOL+8

   8698 22 001600   000010 720100                    LXL0    8,,PR0
PL6.E3A0      #013=Z8EL$GET_REPLACE_TOKENS File=Z8EL.:Z8A6TSI                    SAT 08/09/97 12:15 Page:516
        22 001601   000044 621010                    EAX1    36,X0
        22 001602   000044 622005                    EAX2    36,AL
        22 001603   000040 100540                    MLR     fill='000'O
        22 001604   000000 000011                    ADSC9   0,,PR0                   cn=0,n=*X1
        22 001605   000000 000012 10                 ADSC9   LEX_SYMBOL               cn=0,n=*X2

   8701 22 001606   000010 720100                    LXL0    8,,PR0
        22 001607   000044 621010                    EAX1    36,X0
        22 001610   000000 636011                    EAQ     0,X1
        22 001611   000022 732000                    QRS     18
        22 001612   000003 036007                    ADLQ    3,DL
        22 001613   000004 506007                    DIV     4,DL
        22 001614   200020 756100                    STQ     @END_LIST$+2,,AUTO
        22 001615   200020 631500                    EPPR1   @END_LIST$+2,,AUTO
        22 001616   200023 451500                    STP1    @END_LIST$+5,,AUTO
        22 001617   000002 236000 23                 LDQ     2
        22 001620   200022 756100                    STQ     @END_LIST$+4,,AUTO
        22 001621   200022 630500                    EPPR0   @END_LIST$+4,,AUTO
        22 001622   000000 631400 23                 EPPR1   0
        22 001623   000000 701000 xent               TSX1    Z8ED$DISPOSE_HEAP
        22 001624   000000 011000                    NOP     0

   8706 22 001625   000000 236000 10                 LDQ     LEX_SYMBOL
        22 001626   000000 756000 20                 STQ     LEX_SYMBOL_QUEUE$

   8707 22 001627   000001 236000 23                 LDQ     1
        22 001630   000000 756000 10                 STQ     LEX_SYMBOL

   8708 22 001631   002147 710000 22                 TRA     s:8870

   8714 22 001632   000003 631400 23                 EPPR1   3
        22 001633   000000 701000 xent               TSX1    Z8ES$SCANNER
        22 001634   000000 011000                    NOP     0

   8715 22 001635   000001 235000 10                 LDA     LEX_SYMBOL+1
        22 001636   001647 601000 22                 TNZ     s:8721

PL6.E3A0      #013=Z8EL$GET_REPLACE_TOKENS File=Z8EL.:Z8A6TSI                    SAT 08/09/97 12:15 Page:517
   8716 22 001637   000003 631400 23                 EPPR1   3
        22 001640   000000 701000 xent               TSX1    Z8EL$GET_NEXT_SCANNER_LINE
        22 001641   000000 011000                    NOP     0

   8717 22 001642   000003 631400 23                 EPPR1   3
        22 001643   000000 701000 xent               TSX1    Z8ES$SCANNER
        22 001644   000000 011000                    NOP     0

   8718 22 001645   000001 235000 10                 LDA     LEX_SYMBOL+1
        22 001646   001637 600000 22                 TZE     s:8716

   8721 22 001647   000003 236000 10                 LDQ     LEX_SYMBOL+3
        22 001650   000000 116000 15                 CMPQ    CURRENT_SYMBOL_LEVEL
        22 001651   002147 600000 22                 TZE     s:8870
        22 001652   000002 236000 10                 LDQ     LEX_SYMBOL+2
        22 001653   200000 316003                    CANQ    65536,DU
        22 001654   002147 601000 22                 TNZ     s:8870

   8723 22 001655   000005 630400 23                 EPPR0   5
        22 001656   000004 631400 23                 EPPR1   4
        22 001657   000000 701000 xent               TSX1    Z8EL$HANDLE_LEVEL_CHANGE
        22 001660   000000 011000                    NOP     0

     2130     8730
     2131     8731    2     END;

   8731 22 001661   002147 710000 22                 TRA     s:8870

     2132     8732    1   ELSE
     2133     8733    2     DO;

     2134     8734    2       PSEUDO_TEXT_FLAG = FALSE;

   8734 22 001662   200004 470500                    LDP0    @PSEUDO_TEXT_FLAG,,AUTO
        22 001663   000000 450100                    STZ     0,,PR0

     2135     8735
PL6.E3A0      #013=Z8EL$GET_REPLACE_TOKENS File=Z8EL.:Z8A6TSI                    SAT 08/09/97 12:15 Page:518
     2136     8736            %COPY_TO_NEW_LEX_SYMBOL (FROM$ = "ADDR(LEX_SYMBOL)",
     2137     8737                                     TO$   = LIST$);

   8739 22 001664   000010 236000 10                 LDQ     LEX_SYMBOL+8
        22 001665   000047 036007                    ADLQ    39,DL
        22 001666   000004 506007                    DIV     4,DL
        22 001667   200020 756100                    STQ     @END_LIST$+2,,AUTO
        22 001670   200020 631500                    EPPR1   @END_LIST$+2,,AUTO
        22 001671   200023 451500                    STP1    @END_LIST$+5,,AUTO
        22 001672   200003 236100                    LDQ     @LIST$,,AUTO
        22 001673   200022 756100                    STQ     @END_LIST$+4,,AUTO
        22 001674   200022 630500                    EPPR0   @END_LIST$+4,,AUTO
        22 001675   000000 631400 23                 EPPR1   0
        22 001676   000000 701000 xent               TSX1    Z8ED$NEW_HEAP
        22 001677   000000 011000                    NOP     0

   8746 22 001700   200003 470500                    LDP0    @LIST$,,AUTO
        22 001701   000000 471500                    LDP1    0,,PR0
        22 001702   000010 235000 10                 LDA     LEX_SYMBOL+8
        22 001703   100010 755100                    STA     8,,PR1

   8747 22 001704   000000 471500                    LDP1    0,,PR0
        22 001705   100010 720100                    LXL0    8,,PR1
        22 001706   000044 621010                    EAX1    36,X0
        22 001707   000010 722000 10                 LXL2    LEX_SYMBOL+8
        22 001710   000044 623012                    EAX3    36,X2
        22 001711   000140 100440                    MLR     fill='000'O
        22 001712   000000 000013 10                 ADSC9   LEX_SYMBOL               cn=0,n=*X3
        22 001713   100000 000011                    ADSC9   0,,PR1                   cn=0,n=*X1

     2138     8752
     2139     8753            %GET_A_TOKEN_OR_COPY;

   8762 22 001714   000000 236000 20                 LDQ     LEX_SYMBOL_QUEUE$
        22 001715   000001 116000 23                 CMPQ    1
        22 001716   001754 600000 22                 TZE     s:8785

PL6.E3A0      #013=Z8EL$GET_REPLACE_TOKENS File=Z8EL.:Z8A6TSI                    SAT 08/09/97 12:15 Page:519
   8768 22 001717   000000 471400 20                 LDP1    LEX_SYMBOL_QUEUE$
        22 001720   100010 235100                    LDA     8,,PR1
        22 001721   000010 755000 10                 STA     LEX_SYMBOL+8

   8769 22 001722   100010 720100                    LXL0    8,,PR1
        22 001723   000044 621010                    EAX1    36,X0
        22 001724   000044 622005                    EAX2    36,AL
        22 001725   000040 100540                    MLR     fill='000'O
        22 001726   100000 000011                    ADSC9   0,,PR1                   cn=0,n=*X1
        22 001727   000000 000012 10                 ADSC9   LEX_SYMBOL               cn=0,n=*X2

   8772 22 001730   100010 720100                    LXL0    8,,PR1
        22 001731   000044 621010                    EAX1    36,X0
        22 001732   000000 636011                    EAQ     0,X1
        22 001733   000022 732000                    QRS     18
        22 001734   000003 036007                    ADLQ    3,DL
        22 001735   000004 506007                    DIV     4,DL
        22 001736   200020 756100                    STQ     @END_LIST$+2,,AUTO
        22 001737   200020 633500                    EPPR3   @END_LIST$+2,,AUTO
        22 001740   200023 453500                    STP3    @END_LIST$+5,,AUTO
        22 001741   000002 236000 23                 LDQ     2
        22 001742   200022 756100                    STQ     @END_LIST$+4,,AUTO
        22 001743   200022 630500                    EPPR0   @END_LIST$+4,,AUTO
        22 001744   000000 631400 23                 EPPR1   0
        22 001745   000000 701000 xent               TSX1    Z8ED$DISPOSE_HEAP
        22 001746   000000 011000                    NOP     0

   8777 22 001747   000000 236000 10                 LDQ     LEX_SYMBOL
        22 001750   000000 756000 20                 STQ     LEX_SYMBOL_QUEUE$

   8778 22 001751   000001 236000 23                 LDQ     1
        22 001752   000000 756000 10                 STQ     LEX_SYMBOL

   8779 22 001753   002003 710000 22                 TRA     s:8798

   8785 22 001754   000003 631400 23                 EPPR1   3
        22 001755   000000 701000 xent               TSX1    Z8ES$SCANNER
PL6.E3A0      #013=Z8EL$GET_REPLACE_TOKENS File=Z8EL.:Z8A6TSI                    SAT 08/09/97 12:15 Page:520
        22 001756   000000 011000                    NOP     0

   8786 22 001757   000001 235000 10                 LDA     LEX_SYMBOL+1
        22 001760   001771 601000 22                 TNZ     s:8792

   8787 22 001761   000003 631400 23                 EPPR1   3
        22 001762   000000 701000 xent               TSX1    Z8EL$GET_NEXT_SCANNER_LINE
        22 001763   000000 011000                    NOP     0

   8788 22 001764   000003 631400 23                 EPPR1   3
        22 001765   000000 701000 xent               TSX1    Z8ES$SCANNER
        22 001766   000000 011000                    NOP     0

   8789 22 001767   000001 235000 10                 LDA     LEX_SYMBOL+1
        22 001770   001761 600000 22                 TZE     s:8787

   8792 22 001771   000003 236000 10                 LDQ     LEX_SYMBOL+3
        22 001772   000000 116000 15                 CMPQ    CURRENT_SYMBOL_LEVEL
        22 001773   002003 600000 22                 TZE     s:8798
        22 001774   000002 236000 10                 LDQ     LEX_SYMBOL+2
        22 001775   200000 316003                    CANQ    65536,DU
        22 001776   002003 601000 22                 TNZ     s:8798

   8794 22 001777   000005 630400 23                 EPPR0   5
        22 002000   000004 631400 23                 EPPR1   4
        22 002001   000000 701000 xent               TSX1    Z8EL$HANDLE_LEVEL_CHANGE
        22 002002   000000 011000                    NOP     0

   8798 22 002003   000010 235000 10                 LDA     LEX_SYMBOL+8
        22 002004   000004 115007                    CMPA    4,DL
        22 002005   002103 601000 22                 TNZ     s:8843
        22 002006   000011 236000 10                 LDQ     LEX_SYMBOL+9
        22 002007   000000 116000 21                 CMPQ    0
        22 002010   002103 601000 22                 TNZ     s:8843

   8800 22 002011   000003 631400 23                 EPPR1   3
        22 002012   000000 701000 xent               TSX1    Z8EL$PROCESS_COPY
PL6.E3A0      #013=Z8EL$GET_REPLACE_TOKENS File=Z8EL.:Z8A6TSI                    SAT 08/09/97 12:15 Page:521
        22 002013   000000 011000                    NOP     0

   8803 22 002014   000000 236000 20                 LDQ     LEX_SYMBOL_QUEUE$
        22 002015   000001 116000 23                 CMPQ    1
        22 002016   002054 600000 22                 TZE     s:8826

   8809 22 002017   000000 470400 20                 LDP0    LEX_SYMBOL_QUEUE$
        22 002020   000010 235100                    LDA     8,,PR0
        22 002021   000010 755000 10                 STA     LEX_SYMBOL+8

   8810 22 002022   000010 720100                    LXL0    8,,PR0
        22 002023   000044 621010                    EAX1    36,X0
        22 002024   000044 622005                    EAX2    36,AL
        22 002025   000040 100540                    MLR     fill='000'O
        22 002026   000000 000011                    ADSC9   0,,PR0                   cn=0,n=*X1
        22 002027   000000 000012 10                 ADSC9   LEX_SYMBOL               cn=0,n=*X2

   8813 22 002030   000010 720100                    LXL0    8,,PR0
        22 002031   000044 621010                    EAX1    36,X0
        22 002032   000000 636011                    EAQ     0,X1
        22 002033   000022 732000                    QRS     18
        22 002034   000003 036007                    ADLQ    3,DL
        22 002035   000004 506007                    DIV     4,DL
        22 002036   200020 756100                    STQ     @END_LIST$+2,,AUTO
        22 002037   200020 631500                    EPPR1   @END_LIST$+2,,AUTO
        22 002040   200023 451500                    STP1    @END_LIST$+5,,AUTO
        22 002041   000002 236000 23                 LDQ     2
        22 002042   200022 756100                    STQ     @END_LIST$+4,,AUTO
        22 002043   200022 630500                    EPPR0   @END_LIST$+4,,AUTO
        22 002044   000000 631400 23                 EPPR1   0
        22 002045   000000 701000 xent               TSX1    Z8ED$DISPOSE_HEAP
        22 002046   000000 011000                    NOP     0

   8818 22 002047   000000 236000 10                 LDQ     LEX_SYMBOL
        22 002050   000000 756000 20                 STQ     LEX_SYMBOL_QUEUE$

   8819 22 002051   000001 236000 23                 LDQ     1
PL6.E3A0      #013=Z8EL$GET_REPLACE_TOKENS File=Z8EL.:Z8A6TSI                    SAT 08/09/97 12:15 Page:522
        22 002052   000000 756000 10                 STQ     LEX_SYMBOL

   8820 22 002053   002103 710000 22                 TRA     s:8843

   8826 22 002054   000003 631400 23                 EPPR1   3
        22 002055   000000 701000 xent               TSX1    Z8ES$SCANNER
        22 002056   000000 011000                    NOP     0

   8827 22 002057   000001 235000 10                 LDA     LEX_SYMBOL+1
        22 002060   002071 601000 22                 TNZ     s:8833

   8828 22 002061   000003 631400 23                 EPPR1   3
        22 002062   000000 701000 xent               TSX1    Z8EL$GET_NEXT_SCANNER_LINE
        22 002063   000000 011000                    NOP     0

   8829 22 002064   000003 631400 23                 EPPR1   3
        22 002065   000000 701000 xent               TSX1    Z8ES$SCANNER
        22 002066   000000 011000                    NOP     0

   8830 22 002067   000001 235000 10                 LDA     LEX_SYMBOL+1
        22 002070   002061 600000 22                 TZE     s:8828

   8833 22 002071   000003 236000 10                 LDQ     LEX_SYMBOL+3
        22 002072   000000 116000 15                 CMPQ    CURRENT_SYMBOL_LEVEL
        22 002073   002103 600000 22                 TZE     s:8843
        22 002074   000002 236000 10                 LDQ     LEX_SYMBOL+2
        22 002075   200000 316003                    CANQ    65536,DU
        22 002076   002103 601000 22                 TNZ     s:8843

   8835 22 002077   000005 630400 23                 EPPR0   5
        22 002100   000004 631400 23                 EPPR1   4
        22 002101   000000 701000 xent               TSX1    Z8EL$HANDLE_LEVEL_CHANGE
        22 002102   000000 011000                    NOP     0

     2140     8842
     2141     8843    2       IF LIST$ -> BASED_LEX_SYMBOL.TYPE = %USER_WORD THEN

PL6.E3A0      #013=Z8EL$GET_REPLACE_TOKENS File=Z8EL.:Z8A6TSI                    SAT 08/09/97 12:15 Page:523
   8843 22 002103   200003 470500                    LDP0    @LIST$,,AUTO
        22 002104   000000 471500                    LDP1    0,,PR0
        22 002105   100001 235100                    LDA     1,,PR1
        22 002106   000005 115007                    CMPA    5,DL
        22 002107   002147 601000 22                 TNZ     s:8870

     2142     8844    3         DO;

     2143     8845    3           END_LIST$ = LIST$;

   8845 22 002110   000000 236100                    LDQ     0,,PR0
        22 002111   200012 756100                    STQ     END_LIST$,,AUTO

     2144     8846
     2145     8847    3           CALL PARSE_QUALIFIERS (END_LIST$)

   8847 22 002112   200012 631500                    EPPR1   END_LIST$,,AUTO
        22 002113   200015 451500                    STP1    END_LIST$+3,,AUTO
        22 002114   000003 701000 22                 TSX1    PARSE_QUALIFIERS
        22 002115   002117 702000 22                 TSX2    s:8850
        22 002116   002120 710000 22                 TRA     s:8853

     2146     8848    3             WHENALTRETURN
     2147     8849    4               DO;

     2148     8850    4                 ALTRETURN;

   8850 22 002117   000000 702200 xent               TSX2  ! X66_AALT

     2149     8851    4               END;
     2150     8852
     2151     8853    3           CALL PARSE_SUB_REFMOD (END_LIST$)

   8853 22 002120   200012 630500                    EPPR0   END_LIST$,,AUTO
        22 002121   200015 450500                    STP0    END_LIST$+3,,AUTO
        22 002122   000477 701000 22                 TSX1    PARSE_SUB_REFMOD
        22 002123   002125 702000 22                 TSX2    s:8856
PL6.E3A0      #013=Z8EL$GET_REPLACE_TOKENS File=Z8EL.:Z8A6TSI                    SAT 08/09/97 12:15 Page:524
        22 002124   002126 710000 22                 TRA     s:8859

     2152     8854    3             WHENALTRETURN
     2153     8855    4               DO;

     2154     8856    4                 ALTRETURN;

   8856 22 002125   000000 702200 xent               TSX2  ! X66_AALT

     2155     8857    4               END;
     2156     8858
     2157     8859    3           CALL PARSE_SUB_REFMOD (END_LIST$)

   8859 22 002126   200012 630500                    EPPR0   END_LIST$,,AUTO
        22 002127   200015 450500                    STP0    END_LIST$+3,,AUTO
        22 002130   000477 701000 22                 TSX1    PARSE_SUB_REFMOD
        22 002131   002133 702000 22                 TSX2    s:8862
        22 002132   002134 710000 22                 TRA     s:8865

     2158     8860    3             WHENALTRETURN
     2159     8861    4               DO;

     2160     8862    4                 ALTRETURN;

   8862 22 002133   000000 702200 xent               TSX2  ! X66_AALT

     2161     8863    4               END;
     2162     8864
     2163     8865    3           IF LIST$ -> BASED_LEX_SYMBOL.NEXT$ ~= ADDR(NIL) THEN

   8865 22 002134   200003 470500                    LDP0    @LIST$,,AUTO
        22 002135   000000 471500                    LDP1    0,,PR0
        22 002136   100000 236100                    LDQ     0,,PR1
        22 002137   000001 116000 23                 CMPQ    1
        22 002140   002147 600000 22                 TZE     s:8870

     2164     8866    3             CALL FAKE_PSEUDO_TEXT (LIST$, END_LIST$);
PL6.E3A0      #013=Z8EL$GET_REPLACE_TOKENS File=Z8EL.:Z8A6TSI                    SAT 08/09/97 12:15 Page:525

   8866 22 002141   200012 633500                    EPPR3   END_LIST$,,AUTO
        22 002142   200016 453500                    STP3    @LIST$+1,,AUTO
        22 002143   200003 236100                    LDQ     @LIST$,,AUTO
        22 002144   200015 756100                    STQ     END_LIST$+3,,AUTO
        22 002145   000757 701000 22                 TSX1    FAKE_PSEUDO_TEXT
        22 002146   000000 011000                    NOP     0

     2165     8867    3         END;

     2166     8868    2     END;

     2167     8869
     2168     8870    1   END Z8EL$GET_REPLACE_TOKENS;

   8870 22 002147   000000 702200 xent               TSX2  ! X66_ARET
     2169     8871        %EOD;

PL6.E3A0      #013=Z8EL$GET_REPLACE_TOKENS File=Z8EL.:Z8A6TSI                    SAT 08/09/97 12:15 Page:526
--  Include file information  --

   Z8E_WINDOW.:Z8A6TOU  is referenced.
   Z8E_REPLACE.:Z8A6TOU  cannot be made into a system file and is referenced.
   Z8E_HEAP.:Z8A6TOU  cannot be made into a system file and is referenced.
   Z8A_LEX_SYMB.:Z8A6TOU  cannot be made into a system file and is referenced.
   Z8E_STACKS.:Z8A6TOU  cannot be made into a system file and is referenced.
   Z8E_BUFFERS.:Z8A6TOU  cannot be made into a system file and is referenced.
   Z8A_COMCOM.:Z8A6TOU  cannot be made into a system file and is referenced.
   X8A_COM_MACS.:X8A6TOU  is referenced.
   Z8A_NAMES.:Z8A6TOU  is referenced.
   Z8A_SUPP_MAC.:Z8A6TOU  is referenced.
   Z8A_DEFC.:Z8A6TOU  cannot be made into a system file and is referenced.
      No diagnostics issued in procedure Z8EL$GET_REPLACE_TOKENS.
PL6.E3A0      #013=Z8EL$GET_REPLACE_TOKENS File=Z8EL.:Z8A6TSI                    SAT 08/09/97 12:15 Page:527

 **** Variables and constants ****

  ****  Section 000 LblCom ITERATION

  ****  Scalars and arrays  ****
OctLoc.c.b A Datatyp(siz) R M Lvl/name                 OctLoc.c.b A Datatyp(siz) R M Lvl/name

     0-0-0/w SBIN              1 ITERATION

  ****  Section 001 LblCom SCANNER_STATE

  ****  Scalars and arrays  ****
OctLoc.c.b A Datatyp(siz) R M Lvl/name                 OctLoc.c.b A Datatyp(siz) R M Lvl/name

     0-0-0/w SBIN              1 SCANNER_STATE

  ****  Section 002 LblCom CURRENT_BUFFER$

  ****  Scalars and arrays  ****
OctLoc.c.b A Datatyp(siz) R M Lvl/name                 OctLoc.c.b A Datatyp(siz) R M Lvl/name

     0-0-0/w PTR         r     1 CURRENT_BUFFER$

  ****  Section 003 LblCom LOOKAHEAD_BUFFER$

  ****  Scalars and arrays  ****
OctLoc.c.b A Datatyp(siz) R M Lvl/name                 OctLoc.c.b A Datatyp(siz) R M Lvl/name

     0-0-0/w PTR         r     1 LOOKAHEAD_BUFFER$

  ****  Section 004 LblCom CURRENT_LINE_LEVEL

  ****  Scalars and arrays  ****
OctLoc.c.b A Datatyp(siz) R M Lvl/name                 OctLoc.c.b A Datatyp(siz) R M Lvl/name

     0-0-0/w SBIN              1 CURRENT_LINE_LEVEL

PL6.E3A0      #013=Z8EL$GET_REPLACE_TOKENS File=Z8EL.:Z8A6TSI                    SAT 08/09/97 12:15 Page:528
  ****  Section 005 LblCom LINE_LIST$

  ****  Scalars and arrays  ****
OctLoc.c.b A Datatyp(siz) R M Lvl/name                 OctLoc.c.b A Datatyp(siz) R M Lvl/name

     0-0-0/w PTR               1 LINE_LIST$

  ****  Section 006 LblCom BUFFER

  ****  Scalars and arrays  ****
OctLoc.c.b A Datatyp(siz) R M Lvl/name                 OctLoc.c.b A Datatyp(siz) R M Lvl/name

     0-0-0/w STRC(252)   r     1 BUFFER

  ****  Section 007 LblCom ORIGINAL_ISN

  ****  Scalars and arrays  ****
OctLoc.c.b A Datatyp(siz) R M Lvl/name                 OctLoc.c.b A Datatyp(siz) R M Lvl/name

     0-0-0/w SBIN              1 ORIGINAL_ISN

  ****  Section 008 LblCom EXPANDED_ISN

  ****  Scalars and arrays  ****
OctLoc.c.b A Datatyp(siz) R M Lvl/name                 OctLoc.c.b A Datatyp(siz) R M Lvl/name

     0-0-0/w SBIN              1 EXPANDED_ISN

  ****  Section 009 LblCom ISN_FOR_EXP_SRC

  ****  Scalars and arrays  ****
OctLoc.c.b A Datatyp(siz) R M Lvl/name                 OctLoc.c.b A Datatyp(siz) R M Lvl/name

     0-0-0/w SBIN              1 ISN_FOR_EXP_SRC

  ****  Section 010 LblCom LEX_SYMBOL

PL6.E3A0      #013=Z8EL$GET_REPLACE_TOKENS File=Z8EL.:Z8A6TSI                    SAT 08/09/97 12:15 Page:529
  ****  Scalars and arrays  ****
OctLoc.c.b A Datatyp(siz) R M Lvl/name                 OctLoc.c.b A Datatyp(siz) R M Lvl/name

     0-0-0/w STRC(3240)  r     1 LEX_SYMBOL                 0-0-0/w STRC(3240)        1 LEX_SYMBOL_WORDS

  ****  Section 011 LblCom CURRENT_LEX_SYMBOL$

  ****  Scalars and arrays  ****
OctLoc.c.b A Datatyp(siz) R M Lvl/name                 OctLoc.c.b A Datatyp(siz) R M Lvl/name

     0-0-0/w PTR         r     1 CURRENT_LEX_SYMBOL$

  ****  Section 012 LblCom TEMP_LEX_SYMBOL

  ****  Scalars and arrays  ****
OctLoc.c.b A Datatyp(siz) R M Lvl/name                 OctLoc.c.b A Datatyp(siz) R M Lvl/name

     0-0-0/w STRC(3240)        1 TEMP_LEX_SYMBOL

  ****  Section 013 LblCom TEMP_LEX_SYMBOL2

  ****  Scalars and arrays  ****
OctLoc.c.b A Datatyp(siz) R M Lvl/name                 OctLoc.c.b A Datatyp(siz) R M Lvl/name

     0-0-0/w STRC(3240)        1 TEMP_LEX_SYMBOL2

  ****  Section 014 LblCom HEAP$

  ****  Scalars and arrays  ****
OctLoc.c.b A Datatyp(siz) R M Lvl/name                 OctLoc.c.b A Datatyp(siz) R M Lvl/name

     0-0-0/w PTR         r     1 HEAP$

  ****  Section 015 LblCom CURRENT_SYMBOL_LEVEL

  ****  Scalars and arrays  ****
OctLoc.c.b A Datatyp(siz) R M Lvl/name                 OctLoc.c.b A Datatyp(siz) R M Lvl/name
PL6.E3A0      #013=Z8EL$GET_REPLACE_TOKENS File=Z8EL.:Z8A6TSI                    SAT 08/09/97 12:15 Page:530

     0-0-0/w SBIN        r     1 CURRENT_SYMBOL_LEVEL

  ****  Section 016 LblCom REPLACE_ACTIVE

  ****  Scalars and arrays  ****
OctLoc.c.b A Datatyp(siz) R M Lvl/name                 OctLoc.c.b A Datatyp(siz) R M Lvl/name

     0-0-0/b BIT               1 REPLACE_ACTIVE

  ****  Section 017 LblCom IGNORE_COPY_REPLACE

  ****  Scalars and arrays  ****
OctLoc.c.b A Datatyp(siz) R M Lvl/name                 OctLoc.c.b A Datatyp(siz) R M Lvl/name

     0-0-0/b BIT               1 IGNORE_COPY_REPLACE

  ****  Section 018 LblCom COPY_DEBUG_LEVEL

  ****  Scalars and arrays  ****
OctLoc.c.b A Datatyp(siz) R M Lvl/name                 OctLoc.c.b A Datatyp(siz) R M Lvl/name

     0-0-0/w SBIN              1 COPY_DEBUG_LEVEL

  ****  Section 019 LblCom REPLACE_LIST

  ****  Scalars and arrays  ****
OctLoc.c.b A Datatyp(siz) R M Lvl/name                 OctLoc.c.b A Datatyp(siz) R M Lvl/name

     0-0-0/w STRC(144)         1 REPLACE_LIST

  ****  Section 020 LblCom LEX_SYMBOL_QUEUE$

  ****  Scalars and arrays  ****
OctLoc.c.b A Datatyp(siz) R M Lvl/name                 OctLoc.c.b A Datatyp(siz) R M Lvl/name

     0-0-0/w PTR         r     1 LEX_SYMBOL_QUEUE$
PL6.E3A0      #013=Z8EL$GET_REPLACE_TOKENS File=Z8EL.:Z8A6TSI                    SAT 08/09/97 12:15 Page:531

  ****  Auto variables  ****

  ****  Scalars and arrays  ****
OctLoc.c.b A Datatyp(siz) R M Lvl/name                 OctLoc.c.b A Datatyp(siz) R M Lvl/name

    15-0-0/w PTR         r     1 @END_LIST$                15-0-0/w PTR         r     1 @END_LIST$
    16-0-0/w PTR         r     1 @END_LIST$                 3-0-0/w PTR         r     1 @LIST$
    15-0-0/w PTR         r     1 @LIST$
    10-0-0/w PTR         r     1 @PSEUDO_TEXT_END_COLUMN
     7-0-0/w PTR         r     1 @PSEUDO_TEXT_END_LINE
     4-0-0/w PTR         r     1 @PSEUDO_TEXT_FLAG
     6-0-0/w PTR         r     1 @PSEUDO_TEXT_START_COLUMN
     5-0-0/w PTR         r     1 @PSEUDO_TEXT_START_LINE
    11-0-0/w PTR         r     1 ADDRLIST$                 12-0-0/w PTR         r     1 END_LIST$
    *0-0-0/w PTR         r     1 END_LIST$                 *0-0-0/w PTR         r     1 END_LIST$
    *0-0-0/w PTR         r     1 END_LIST$                 16-0-0/w SBIN        r     1 LEXICAL_LEVEL
    *0-0-0/w PTR         r     1 LIST$                     *0-0-0/w PTR         r     1 LIST$
    *0-0-0/w SBIN        r     1 PSEUDO_TEXT_END_COLUMN
    *0-0-0/w SBIN        r     1 PSEUDO_TEXT_END_LINE      *0-0-0/w BIT         r     1 PSEUDO_TEXT_FLAG
    *0-0-0/w SBIN        r     1 PSEUDO_TEXT_START_COLUMN
    *0-0-0/w SBIN        r     1 PSEUDO_TEXT_START_LINE

  ****  SYMREF variables  ****

  ****  Scalars and arrays  ****
OctLoc.c.b A Datatyp(siz) R M Lvl/name                 OctLoc.c.b A Datatyp(siz) R M Lvl/name

     0-0-0/d STRC(13248)       1 COMCOM

  ****  BASED and DCB variables  ****

  ****  Scalars and arrays  ****
OctLoc.c.b A Datatyp(siz) R M Lvl/name                 OctLoc.c.b A Datatyp(siz) R M Lvl/name

     0-0-0/w STRC(288)         1 ADD_STMT                   0-0-0/w ASTR(324)   r     1 BASED_LEX_SYMBOL
     0-0-0/w STRC(360)         1 BASED_LEX_SYMBOL_WORDS
PL6.E3A0      #013=Z8EL$GET_REPLACE_TOKENS File=Z8EL.:Z8A6TSI                    SAT 08/09/97 12:15 Page:532
     0-0-0/w STRC(288)         1 BINARY_OP                  0-0-0/c ACHR              1 BUFFER_LINE
     0-0-0/w STRC(288)         1 CALL_STMT                  0-0-0/w CHAR(4096)        1 CHARS
     0-0-0/w STRC(288)         1 COMPUTE_STMT               0-0-0/w STRC(72)          1 CONT
     0-0-0/w STRC(288)         1 DEFERED_IDENTIFIER         0-0-0/w STRC(252)         1 DEFERED_ID_TREE
     0-0-0/w STRC(288)         1 DEFERED_QUAL_ID            0-0-0/w STRC(288)         1 DEFERED_SUM_CLAUSE
     0-0-0/w STRC(288)         1 DEFERED_SUM_CLAUSE_LIST
     0-0-0/w STRC(288)         1 DELETE_STMT                0-0-0/w STRC(288)         1 DIVIDE_STMT
     0-0-0/w ASTR(396)   r     1 EXP_SRC_BUFF               0-0-0/w ASTR(396)   r     1 FILL_BUFFER
     0-0-0/w STRC(288)         1 ILS_LIST                   0-0-0/w STRC(288)         1 INSPECT_1_STMT
     0-0-0/w STRC(288)         1 INSPECT_2_STMT             0-0-0/w STRC(288)         1 INSPECT_4_STMT
     0-0-0/w PTR         r     1 L$                         0-0-0/w STRC(288)         1 LA_ITEM
     0-0-0/w STRC(504)         1 LX_CD_INPUT                0-0-0/w STRC(324)         1 LX_CD_I_O
     0-0-0/w STRC(396)         1 LX_CD_OUTPUT               0-0-0/w STRC(288)         1 LX_ETT_ITEM
     0-0-0/w STRC(288)         1 LX_ITEM                    0-0-0/w STRC(288)         1 LX_LARGE
     0-0-0/w STRC(288)         1 LX_LIST                    0-0-0/w STRC(1224)        1 LX_REC_DECL
     0-0-0/w STRC(864)         1 LX_REPORT_REC              0-0-0/w STRC(288)         1 LX_TERMINAL
     0-0-0/w STRC(288)         1 MULTIPLY_STMT              0-0-0/w STRC(36864)       1 PAGE
     0-0-0/w STRC(288)         1 READ_STMT                  0-0-0/w STRC(252)         1 REPLACE_ITEM
     0-0-0/w STRC(288)         1 REWRITE_STMT               0-0-0/w STRC(288)         1 START_STMT
     0-0-0/w STRC(252)         1 STRING_STMT                0-0-0/w STRC(288)         1 SUBTRACT_STMT
     0-0-0/w STRC(288)         1 UNARY_OP                   0-0-0/w STRC(288)         1 UNSTRING_STMT
     0-0-0/w STRC(288)         1 WRITE_STMT


   Procedure Z8EL$GET_REPLACE_TOKENS requires 1128 words for executable code.
   Procedure Z8EL$GET_REPLACE_TOKENS requires 20 words of local(AUTO) storage.

PL6.E3A0      #014=Z8EL$POSITION_LINE_LIST File=Z8EL.:Z8A6TSI                    SAT 08/09/97 12:17 Page:533
     2170        1        /*T***********************************************************/
     2171        2        /*T*                                                         */
     2172        3        /*T* Copyright (c) Bull HN Information Systems Inc., 1997    */
     2173        4        /*T*                                                         */
     2174        5        /*T***********************************************************/
     2175        6        Z8EL$POSITION_LINE_LIST : PROC (LINE,
     2176        7                                        LINE$,
     2177        8                                        START_LINE);
     2178        9
     2179       10    1     DCL LINE SBIN;
     2180       11    1     DCL LINE$ PTR;
     2181       12    1     DCL START_LINE SBIN;
     2182       13
     2183       14        %EQU PHASE = 1;
     2184       15        %INCLUDE Z8A_DEFC;
     2185       83        %INCLUDE Z8A_SUPP_MAC;
     2186     2483        %INCLUDE Z8E_STACKS;
     2187     4749        %INCLUDE Z8E_REPLACE;
     2188     5052        %INCLUDE Z8E_BUFFERS;
     2189     5242
     2190     5243
     2191     5244
     2192     5245    1     IF LINE$ = ADDR(NIL) THEN
     2193     5246    1       LINE$ = LINE_LIST$;
     2194     5247
     2195     5248    2     DO WHILE LINE$ ~= ADDR(NIL)
     2196     5249    2               AND (LINE$ -> FILL_BUFFER.ISN ~= LINE
     2197     5250    2                      OR LINE$ -> FILL_BUFFER.LINE_TYPE.OLD_REP_LINE);
     2198     5251
     2199     5252    2       IF LINE$ -> FILL_BUFFER.ISN >= START_LINE THEN
     2200     5253    2         LINE$ -> FILL_BUFFER.LINE_TYPE.COPY_REPL_LINE = TRUE;
     2201     5254    2       LINE$ = LINE$ -> FILL_BUFFER.NEXT$;
     2202     5255    2     END;
     2203     5256
     2204     5257    1     IF LINE$ ~= ADDR(NIL) AND
     2205     5258    1         LINE$ -> FILL_BUFFER.ISN >= START_LINE THEN
     2206     5259    1       LINE$ -> FILL_BUFFER.LINE_TYPE.COPY_REPL_LINE = TRUE;
PL6.E3A0      #014=Z8EL$POSITION_LINE_LIST File=Z8EL.:Z8A6TSI                    SAT 08/09/97 12:17 Page:534
     2207     5260
     2208     5261    1   END Z8EL$POSITION_LINE_LIST;
     2209     5262        %EOD;

PL6.E3A0      #014=Z8EL$POSITION_LINE_LIST File=Z8EL.:Z8A6TSI                    SAT 08/09/97 12:17 Page:535
--  Include file information  --

   Z8E_BUFFERS.:Z8A6TOU  cannot be made into a system file and is referenced.
   Z8E_REPLACE.:Z8A6TOU  cannot be made into a system file and is referenced.
   Z8A_LEX_SYMB.:Z8A6TOU  cannot be made into a system file and is referenced.
   Z8E_STACKS.:Z8A6TOU  cannot be made into a system file and is referenced.
   X8A_COM_MACS.:X8A6TOU  is referenced.
   Z8A_NAMES.:Z8A6TOU  is referenced.
   Z8A_SUPP_MAC.:Z8A6TOU  is referenced.
   Z8A_DEFC.:Z8A6TOU  cannot be made into a system file and is referenced.
      No diagnostics issued in procedure Z8EL$POSITION_LINE_LIST.

   Procedure Z8EL$POSITION_LINE_LIST requires 41 words for executable code.
   Procedure Z8EL$POSITION_LINE_LIST requires 6 words of local(AUTO) storage.

PL6.E3A0      #014=Z8EL$POSITION_LINE_LIST File=Z8EL.:Z8A6TSI                    SAT 08/09/97 12:17 Page:536

 Object Unit name= Z8EL$POSITION_LINE_LIST                    File name= Z8EL.:Z8A6TOU
 UTS= AUG 09 '97 12:17:16.56 SAT                              Compiler= PL-6/E31         Sev=      00
 SharedLib= :SHARED_SYSTEM                                    Alt SharedLib=


    ****  Control sections  ****

 Sect   Type Bound  Init  Size OctSiz  Section name(segment info)
    0  LblCom even  none     1      1  ITERATION
    1  LblCom even  none    90    132  LEX_SYMBOL
    2  LblCom even  none     1      1  CURRENT_LEX_SYMBOL$
    3  LblCom even  none    90    132  TEMP_LEX_SYMBOL
    4  LblCom even  none    90    132  TEMP_LEX_SYMBOL2
    5  LblCom even  none     1      1  CURRENT_SYMBOL_LEVEL
    6  LblCom even  none     1      1  REPLACE_ACTIVE
    7  LblCom even  none     1      1  IGNORE_COPY_REPLACE
    8  LblCom even  none     1      1  COPY_DEBUG_LEVEL
    9  LblCom even  none     4      4  REPLACE_LIST
   10  LblCom even  none     1      1  LEX_SYMBOL_QUEUE$
   11  LblCom even  none     1      1  SCANNER_STATE
   12  LblCom even  none     1      1  CURRENT_BUFFER$
   13  LblCom even  none     1      1  LOOKAHEAD_BUFFER$
   14  LblCom even  none     1      1  CURRENT_LINE_LEVEL
   15  LblCom even  none     1      1  LINE_LIST$
   16  LblCom even  none     7      7  BUFFER
   17  LblCom even  none     1      1  ORIGINAL_ISN
   18  LblCom even  none     1      1  EXPANDED_ISN
   19  LblCom even  none     1      1  ISN_FOR_EXP_SRC
   20   Proc  even  none    41     51  Z8EL$POSITION_LINE_LIST
   21  RoData even  none     1      1  Z8EL$POSITION_LINE_LIST

    ****  Entry defs  ****

                              Check   Calling
                             calling  sequence
  Sect OctLoc Primary Altret sequence   type   Parms  Name
    20      0   yes            yes      Std        3  Z8EL$POSITION_LINE_LIST
PL6.E3A0      #014=Z8EL$POSITION_LINE_LIST File=Z8EL.:Z8A6TSI                    SAT 08/09/97 12:17 Page:537

  ****  Entry refs  ****

         Check        Calling
        calling       sequence
Altret sequence SRef   type   Args  Name
                       nStd      0 X66_AUTO_3
                       nStd      0 X66_ARET

  ****  Segment refs  ****

  Flags:  r = read only, s = secondary
Flgs Name                             Flgs Name                             Flgs Name
     ISSID                                 NULLSID
PL6.E3A0      #014=Z8EL$POSITION_LINE_LIST File=Z8EL.:Z8A6TSI                    SAT 08/09/97 12:17 Page:538


     2170        1        /*T***********************************************************/
     2171        2        /*T*                                                         */
     2172        3        /*T* Copyright (c) Bull HN Information Systems Inc., 1997    */
     2173        4        /*T*                                                         */
     2174        5        /*T***********************************************************/
     2175        6        Z8EL$POSITION_LINE_LIST : PROC (LINE,

      6 20 000000   000000 700200 xent  Z8EL$POSITI* TSX0  ! X66_AUTO_3
        20 000001   000006 000003                    ZERO    6,3

     2176        7                                        LINE$,
     2177        8                                        START_LINE);
     2178        9
     2179       10    1     DCL LINE SBIN;
     2180       11    1     DCL LINE$ PTR;
     2181       12    1     DCL START_LINE SBIN;
     2182       13
     2183       14        %EQU PHASE = 1;
     2184       15        %INCLUDE Z8A_DEFC;
     2185       83        %INCLUDE Z8A_SUPP_MAC;
     2186     2483        %INCLUDE Z8E_STACKS;
     2187     4749        %INCLUDE Z8E_REPLACE;
     2188     5052        %INCLUDE Z8E_BUFFERS;
     2189     5242
     2190     5243
     2191     5244
     2192     5245    1     IF LINE$ = ADDR(NIL) THEN

   5245 20 000002   200004 470500                    LDP0    @LINE$,,AUTO
        20 000003   000000 236100                    LDQ     0,,PR0
        20 000004   000000 116000 21                 CMPQ    0
        20 000005   000010 601000 20                 TNZ     s:5248

     2193     5246    1       LINE$ = LINE_LIST$;

   5246 20 000006   000000 236000 15                 LDQ     LINE_LIST$
PL6.E3A0      #014=Z8EL$POSITION_LINE_LIST File=Z8EL.:Z8A6TSI                    SAT 08/09/97 12:17 Page:539
        20 000007   000000 756100                    STQ     0,,PR0

     2194     5247
     2195     5248    2     DO WHILE LINE$ ~= ADDR(NIL)

   5248 20 000010   000024 710000 20                 TRA     s:5255

     2196     5249    2               AND (LINE$ -> FILL_BUFFER.ISN ~= LINE
     2197     5250    2                      OR LINE$ -> FILL_BUFFER.LINE_TYPE.OLD_REP_LINE);
     2198     5251
     2199     5252    2       IF LINE$ -> FILL_BUFFER.ISN >= START_LINE THEN

   5252 20 000011   200004 470500                    LDP0    @LINE$,,AUTO
        20 000012   000000 471500                    LDP1    0,,PR0
        20 000013   200005 473500                    LDP3    @START_LINE,,AUTO
        20 000014   100004 236100                    LDQ     4,,PR1
        20 000015   300000 116100                    CMPQ    0,,PR3
        20 000016   000021 604000 20                 TMI     s:5254

     2200     5253    2         LINE$ -> FILL_BUFFER.LINE_TYPE.COPY_REPL_LINE = TRUE;

   5253 20 000017   000010 236003                    LDQ     8,DU
        20 000020   100011 256100                    ORSQ    9,,PR1

     2201     5254    2       LINE$ = LINE$ -> FILL_BUFFER.NEXT$;

   5254 20 000021   000000 471500                    LDP1    0,,PR0
        20 000022   100002 236100                    LDQ     2,,PR1
        20 000023   000000 756100                    STQ     0,,PR0

     2202     5255    2     END;

   5255 20 000024   000000 116000 21                 CMPQ    0
        20 000025   000036 600000 20                 TZE     s:5257
        20 000026   000000 471500                    LDP1    0,,PR0
        20 000027   200003 473500                    LDP3    @LINE,,AUTO
        20 000030   100004 236100                    LDQ     4,,PR1
PL6.E3A0      #014=Z8EL$POSITION_LINE_LIST File=Z8EL.:Z8A6TSI                    SAT 08/09/97 12:17 Page:540
        20 000031   300000 116100                    CMPQ    0,,PR3
        20 000032   000011 601000 20                 TNZ     s:5252
        20 000033   100011 236100                    LDQ     9,,PR1
        20 000034   020000 316003                    CANQ    8192,DU
        20 000035   000011 601000 20                 TNZ     s:5252

     2203     5256
     2204     5257    1     IF LINE$ ~= ADDR(NIL) AND

   5257 20 000036   000000 236100                    LDQ     0,,PR0
        20 000037   000000 116000 21                 CMPQ    0
        20 000040   000050 600000 20                 TZE     s:5261
        20 000041   000000 471500                    LDP1    0,,PR0
        20 000042   200005 473500                    LDP3    @START_LINE,,AUTO
        20 000043   100004 236100                    LDQ     4,,PR1
        20 000044   300000 116100                    CMPQ    0,,PR3
        20 000045   000050 604000 20                 TMI     s:5261

     2205     5258    1         LINE$ -> FILL_BUFFER.ISN >= START_LINE THEN
     2206     5259    1       LINE$ -> FILL_BUFFER.LINE_TYPE.COPY_REPL_LINE = TRUE;

   5259 20 000046   000010 236003                    LDQ     8,DU
        20 000047   100011 256100                    ORSQ    9,,PR1

     2207     5260
     2208     5261    1   END Z8EL$POSITION_LINE_LIST;

   5261 20 000050   000000 702200 xent               TSX2  ! X66_ARET
     2209     5262        %EOD;

PL6.E3A0      #014=Z8EL$POSITION_LINE_LIST File=Z8EL.:Z8A6TSI                    SAT 08/09/97 12:17 Page:541
--  Include file information  --

   Z8E_BUFFERS.:Z8A6TOU  cannot be made into a system file and is referenced.
   Z8E_REPLACE.:Z8A6TOU  cannot be made into a system file and is referenced.
   Z8A_LEX_SYMB.:Z8A6TOU  cannot be made into a system file and is referenced.
   Z8E_STACKS.:Z8A6TOU  cannot be made into a system file and is referenced.
   X8A_COM_MACS.:X8A6TOU  is referenced.
   Z8A_NAMES.:Z8A6TOU  is referenced.
   Z8A_SUPP_MAC.:Z8A6TOU  is referenced.
   Z8A_DEFC.:Z8A6TOU  cannot be made into a system file and is referenced.
      No diagnostics issued in procedure Z8EL$POSITION_LINE_LIST.
PL6.E3A0      #014=Z8EL$POSITION_LINE_LIST File=Z8EL.:Z8A6TSI                    SAT 08/09/97 12:17 Page:542

 **** Variables and constants ****

  ****  Section 000 LblCom ITERATION

  ****  Scalars and arrays  ****
OctLoc.c.b A Datatyp(siz) R M Lvl/name                 OctLoc.c.b A Datatyp(siz) R M Lvl/name

     0-0-0/w SBIN              1 ITERATION

  ****  Section 001 LblCom LEX_SYMBOL

  ****  Scalars and arrays  ****
OctLoc.c.b A Datatyp(siz) R M Lvl/name                 OctLoc.c.b A Datatyp(siz) R M Lvl/name

     0-0-0/w STRC(3240)  r     1 LEX_SYMBOL                 0-0-0/w STRC(3240)        1 LEX_SYMBOL_WORDS

  ****  Section 002 LblCom CURRENT_LEX_SYMBOL$

  ****  Scalars and arrays  ****
OctLoc.c.b A Datatyp(siz) R M Lvl/name                 OctLoc.c.b A Datatyp(siz) R M Lvl/name

     0-0-0/w PTR         r     1 CURRENT_LEX_SYMBOL$

  ****  Section 003 LblCom TEMP_LEX_SYMBOL

  ****  Scalars and arrays  ****
OctLoc.c.b A Datatyp(siz) R M Lvl/name                 OctLoc.c.b A Datatyp(siz) R M Lvl/name

     0-0-0/w STRC(3240)        1 TEMP_LEX_SYMBOL

  ****  Section 004 LblCom TEMP_LEX_SYMBOL2

  ****  Scalars and arrays  ****
OctLoc.c.b A Datatyp(siz) R M Lvl/name                 OctLoc.c.b A Datatyp(siz) R M Lvl/name

     0-0-0/w STRC(3240)        1 TEMP_LEX_SYMBOL2

PL6.E3A0      #014=Z8EL$POSITION_LINE_LIST File=Z8EL.:Z8A6TSI                    SAT 08/09/97 12:17 Page:543
  ****  Section 005 LblCom CURRENT_SYMBOL_LEVEL

  ****  Scalars and arrays  ****
OctLoc.c.b A Datatyp(siz) R M Lvl/name                 OctLoc.c.b A Datatyp(siz) R M Lvl/name

     0-0-0/w SBIN              1 CURRENT_SYMBOL_LEVEL

  ****  Section 006 LblCom REPLACE_ACTIVE

  ****  Scalars and arrays  ****
OctLoc.c.b A Datatyp(siz) R M Lvl/name                 OctLoc.c.b A Datatyp(siz) R M Lvl/name

     0-0-0/b BIT               1 REPLACE_ACTIVE

  ****  Section 007 LblCom IGNORE_COPY_REPLACE

  ****  Scalars and arrays  ****
OctLoc.c.b A Datatyp(siz) R M Lvl/name                 OctLoc.c.b A Datatyp(siz) R M Lvl/name

     0-0-0/b BIT               1 IGNORE_COPY_REPLACE

  ****  Section 008 LblCom COPY_DEBUG_LEVEL

  ****  Scalars and arrays  ****
OctLoc.c.b A Datatyp(siz) R M Lvl/name                 OctLoc.c.b A Datatyp(siz) R M Lvl/name

     0-0-0/w SBIN              1 COPY_DEBUG_LEVEL

  ****  Section 009 LblCom REPLACE_LIST

  ****  Scalars and arrays  ****
OctLoc.c.b A Datatyp(siz) R M Lvl/name                 OctLoc.c.b A Datatyp(siz) R M Lvl/name

     0-0-0/w STRC(144)         1 REPLACE_LIST

  ****  Section 010 LblCom LEX_SYMBOL_QUEUE$

PL6.E3A0      #014=Z8EL$POSITION_LINE_LIST File=Z8EL.:Z8A6TSI                    SAT 08/09/97 12:17 Page:544
  ****  Scalars and arrays  ****
OctLoc.c.b A Datatyp(siz) R M Lvl/name                 OctLoc.c.b A Datatyp(siz) R M Lvl/name

     0-0-0/w PTR               1 LEX_SYMBOL_QUEUE$

  ****  Section 011 LblCom SCANNER_STATE

  ****  Scalars and arrays  ****
OctLoc.c.b A Datatyp(siz) R M Lvl/name                 OctLoc.c.b A Datatyp(siz) R M Lvl/name

     0-0-0/w SBIN              1 SCANNER_STATE

  ****  Section 012 LblCom CURRENT_BUFFER$

  ****  Scalars and arrays  ****
OctLoc.c.b A Datatyp(siz) R M Lvl/name                 OctLoc.c.b A Datatyp(siz) R M Lvl/name

     0-0-0/w PTR               1 CURRENT_BUFFER$

  ****  Section 013 LblCom LOOKAHEAD_BUFFER$

  ****  Scalars and arrays  ****
OctLoc.c.b A Datatyp(siz) R M Lvl/name                 OctLoc.c.b A Datatyp(siz) R M Lvl/name

     0-0-0/w PTR         r     1 LOOKAHEAD_BUFFER$

  ****  Section 014 LblCom CURRENT_LINE_LEVEL

  ****  Scalars and arrays  ****
OctLoc.c.b A Datatyp(siz) R M Lvl/name                 OctLoc.c.b A Datatyp(siz) R M Lvl/name

     0-0-0/w SBIN              1 CURRENT_LINE_LEVEL

  ****  Section 015 LblCom LINE_LIST$

  ****  Scalars and arrays  ****
OctLoc.c.b A Datatyp(siz) R M Lvl/name                 OctLoc.c.b A Datatyp(siz) R M Lvl/name
PL6.E3A0      #014=Z8EL$POSITION_LINE_LIST File=Z8EL.:Z8A6TSI                    SAT 08/09/97 12:17 Page:545

     0-0-0/w PTR         r     1 LINE_LIST$

  ****  Section 016 LblCom BUFFER

  ****  Scalars and arrays  ****
OctLoc.c.b A Datatyp(siz) R M Lvl/name                 OctLoc.c.b A Datatyp(siz) R M Lvl/name

     0-0-0/w STRC(252)   r     1 BUFFER

  ****  Section 017 LblCom ORIGINAL_ISN

  ****  Scalars and arrays  ****
OctLoc.c.b A Datatyp(siz) R M Lvl/name                 OctLoc.c.b A Datatyp(siz) R M Lvl/name

     0-0-0/w SBIN              1 ORIGINAL_ISN

  ****  Section 018 LblCom EXPANDED_ISN

  ****  Scalars and arrays  ****
OctLoc.c.b A Datatyp(siz) R M Lvl/name                 OctLoc.c.b A Datatyp(siz) R M Lvl/name

     0-0-0/w SBIN              1 EXPANDED_ISN

  ****  Section 019 LblCom ISN_FOR_EXP_SRC

  ****  Scalars and arrays  ****
OctLoc.c.b A Datatyp(siz) R M Lvl/name                 OctLoc.c.b A Datatyp(siz) R M Lvl/name

     0-0-0/w SBIN              1 ISN_FOR_EXP_SRC

  ****  Auto variables  ****

  ****  Scalars and arrays  ****
OctLoc.c.b A Datatyp(siz) R M Lvl/name                 OctLoc.c.b A Datatyp(siz) R M Lvl/name

     3-0-0/w PTR         r     1 @LINE                      4-0-0/w PTR         r     1 @LINE$
PL6.E3A0      #014=Z8EL$POSITION_LINE_LIST File=Z8EL.:Z8A6TSI                    SAT 08/09/97 12:17 Page:546
     5-0-0/w PTR         r     1 @START_LINE               *0-0-0/w SBIN        r     1 LINE
    *0-0-0/w PTR         r     1 LINE$                     *0-0-0/w SBIN        r     1 START_LINE

  ****  BASED and DCB variables  ****

  ****  Scalars and arrays  ****
OctLoc.c.b A Datatyp(siz) R M Lvl/name                 OctLoc.c.b A Datatyp(siz) R M Lvl/name

     0-0-0/w STRC(288)         1 ADD_STMT                   0-0-0/w ASTR(324)   r     1 BASED_LEX_SYMBOL
     0-0-0/w STRC(360)         1 BASED_LEX_SYMBOL_WORDS
     0-0-0/w STRC(288)         1 BINARY_OP                  0-0-0/c ACHR              1 BUFFER_LINE
     0-0-0/w STRC(288)         1 CALL_STMT                  0-0-0/w CHAR(4096)        1 CHARS
     0-0-0/w STRC(288)         1 COMPUTE_STMT               0-0-0/w STRC(72)          1 CONT
     0-0-0/w STRC(288)         1 DEFERED_IDENTIFIER         0-0-0/w STRC(252)         1 DEFERED_ID_TREE
     0-0-0/w STRC(288)         1 DEFERED_QUAL_ID            0-0-0/w STRC(288)         1 DEFERED_SUM_CLAUSE
     0-0-0/w STRC(288)         1 DEFERED_SUM_CLAUSE_LIST
     0-0-0/w STRC(288)         1 DELETE_STMT                0-0-0/w STRC(288)         1 DIVIDE_STMT
     0-0-0/w ASTR(396)   r     1 EXP_SRC_BUFF               0-0-0/w ASTR(396)   r     1 FILL_BUFFER
     0-0-0/w STRC(288)         1 ILS_LIST                   0-0-0/w STRC(288)         1 INSPECT_1_STMT
     0-0-0/w STRC(288)         1 INSPECT_2_STMT             0-0-0/w STRC(288)         1 INSPECT_4_STMT
     0-0-0/w STRC(288)         1 LA_ITEM                    0-0-0/w STRC(504)         1 LX_CD_INPUT
     0-0-0/w STRC(324)         1 LX_CD_I_O                  0-0-0/w STRC(396)         1 LX_CD_OUTPUT
     0-0-0/w STRC(288)         1 LX_ETT_ITEM                0-0-0/w STRC(288)         1 LX_ITEM
     0-0-0/w STRC(288)         1 LX_LARGE                   0-0-0/w STRC(288)         1 LX_LIST
     0-0-0/w STRC(1224)        1 LX_REC_DECL                0-0-0/w STRC(864)         1 LX_REPORT_REC
     0-0-0/w STRC(288)         1 LX_TERMINAL                0-0-0/w STRC(288)         1 MULTIPLY_STMT
     0-0-0/w STRC(36864)       1 PAGE                       0-0-0/w STRC(288)         1 READ_STMT
     0-0-0/w STRC(252)         1 REPLACE_ITEM               0-0-0/w STRC(288)         1 REWRITE_STMT
     0-0-0/w STRC(288)         1 START_STMT                 0-0-0/w STRC(252)         1 STRING_STMT
     0-0-0/w STRC(288)         1 SUBTRACT_STMT              0-0-0/w STRC(288)         1 UNARY_OP
     0-0-0/w STRC(288)         1 UNSTRING_STMT              0-0-0/w STRC(288)         1 WRITE_STMT


   Procedure Z8EL$POSITION_LINE_LIST requires 41 words for executable code.
   Procedure Z8EL$POSITION_LINE_LIST requires 6 words of local(AUTO) storage.

PL6.E3A0      #015=Z8EL$EXTRACT_PSEUDO_TEXT File=Z8EL.:Z8A6TSI                   SAT 08/09/97 12:17 Page:547
     2210        1        /*T***********************************************************/
     2211        2        /*T*                                                         */
     2212        3        /*T* Copyright (c) Bull HN Information Systems Inc., 1997    */
     2213        4        /*T*                                                         */
     2214        5        /*T***********************************************************/
     2215        6        Z8EL$EXTRACT_PSEUDO_TEXT : PROC (LINES$,
     2216        7                                         LINE,
     2217        8                                         COLUMN,
     2218        9                                         END_LINE,
     2219       10                                         END_COLUMN);
     2220       11
     2221       12    1     DCL LINES$ PTR;
     2222       13    1     DCL LINE SBIN;
     2223       14    1     DCL COLUMN SBIN;
     2224       15    1     DCL END_LINE SBIN;
     2225       16    1     DCL END_COLUMN SBIN;
     2226       17
     2227       18        %EQU PHASE = 1;
     2228       19        %INCLUDE Z8A_DEFC;
     2229       87        %INCLUDE Z8A_SUPP_MAC;
     2230     2487        %INCLUDE Z8E_STACKS;
     2231     4753        %INCLUDE Z8E_BUFFERS;
     2232     4943        %INCLUDE Z8E_HEAP;
     2233     4999        %INCLUDE Z8E_REPLACE;
     2234     5302        %INCLUDE Z8A_COMCOM ;
     2235     5952        %INCLUDE Z8E_O1COM ;
     2236     6713
     2237     6714
     2238     6715    1   DCL Z8EL$POSITION_LINE_LIST ENTRY(3);
     2239     6716
     2240     6717    1   DCL LINE$ PTR;
     2241     6718    1   DCL L$ PTR;
     2242     6719
     2243     6720    1   DCL NEW_LINE$ PTR;
     2244     6721    1   DCL LAST_NEW_LINE$ PTR;
     2245     6722
     2246     6723
PL6.E3A0      #015=Z8EL$EXTRACT_PSEUDO_TEXT File=Z8EL.:Z8A6TSI                   SAT 08/09/97 12:17 Page:548
     2247     6724          /* Main body of EXTRACT_PSEUDO_TEXT */
     2248     6725
     2249     6726    1   LINES$ = ADDR(NIL);
     2250     6727    1   LAST_NEW_LINE$ = ADDR(NIL);
     2251     6728
     2252     6729    1   L$ = ADDR(NIL);
     2253     6730    1   CALL Z8EL$POSITION_LINE_LIST (LINE,
     2254     6731    1                                 L$,
     2255     6732    1                                 999999999);
     2256     6733
     2257     6734    1   IF L$ ~= ADDR(NIL) THEN
     2258     6735    2     DO UNTIL L$ = ADDR(NIL);
     2259     6736
     2260     6737            %NEW_HEAP (@POINTER = NEW_LINE$,
     2261     6738                       @SIZE = %MAX_INPUT_BUFFER_LEN);
     2262     6743
     2263     6744    2       IF LAST_NEW_LINE$ = ADDR(NIL) THEN
     2264     6745    2         LINES$ = NEW_LINE$;
     2265     6746    2       ELSE
     2266     6747    2         LAST_NEW_LINE$ -> FILL_BUFFER.NEXT$ = NEW_LINE$;
     2267     6748
     2268     6749    2       LAST_NEW_LINE$ = NEW_LINE$;
     2269     6750    2       NEW_LINE$ -> FILL_BUFFER.LINE_LENGTH = L$ -> FILL_BUFFER.LINE_LENGTH;
     2270     6751    2       NEW_LINE$ -> FILL_BUFFER = L$ -> FILL_BUFFER;
     2271     6752    2       NEW_LINE$ -> FILL_BUFFER.NEXT$ = ADDR(NIL);
     2272     6753
     2273     6754    2       IF COMCOM.OB.FORMAT = FALSE THEN
     2274     6755    2         SUBSTR(NEW_LINE$ -> FILL_BUFFER.SOURCE_LINE,
     2275     6756    2                0,
     2276     6757    2                6) = ' ';
     2277     6758
     2278     6759    2       IF NEW_LINE$ -> FILL_BUFFER.ISN = LINE THEN
     2279     6760    2         SUBSTR(NEW_LINE$ -> FILL_BUFFER.SOURCE_LINE,
     2280     6761    2                O1COM.AREA_A_COLUMN_START,
     2281     6762    2                COLUMN - O1COM.AREA_A_COLUMN_START) = ' ';
     2282     6763
     2283     6764    2       IF  NEW_LINE$ -> FILL_BUFFER.ISN = END_LINE
PL6.E3A0      #015=Z8EL$EXTRACT_PSEUDO_TEXT File=Z8EL.:Z8A6TSI                   SAT 08/09/97 12:17 Page:549
     2284     6765    2       AND NEW_LINE$ -> FILL_BUFFER.LINE_LENGTH > END_COLUMN THEN
     2285     6766    3         DO;
     2286     6767    3           SUBSTR(NEW_LINE$ -> FILL_BUFFER.SOURCE_LINE,
     2287     6768    3                  END_COLUMN,
     2288     6769    3                  NEW_LINE$ -> FILL_BUFFER.LINE_LENGTH - END_COLUMN) = ' ';
     2289     6770    3           NEW_LINE$ -> FILL_BUFFER.LINE_LENGTH = END_COLUMN;
     2290     6771    3           L$ = ADDR(NIL);
     2291     6772    3         END;
     2292     6773    2       ELSE
     2293     6774    2         L$ = L$ -> FILL_BUFFER.NEXT$;
     2294     6775    2     END;
     2295     6776
     2296     6777    1   IF LINES$ ~= ADDR(NIL)
     2297     6778    1       AND SUBSTR(LINES$ -> FILL_BUFFER.SOURCE_LINE,
     2298     6779    1                  O1COM.AREA_A_COLUMN_START,
     2299     6780    1                  LINES$ -> FILL_BUFFER.LINE_LENGTH - O1COM.AREA_A_COLUMN_START) = ' '
              6780                           THEN
     2300     6781    2     DO;
     2301     6782    2       L$ = LINES$;
     2302     6783    2       LINES$ = LINES$ -> FILL_BUFFER.NEXT$;
     2303     6784    2       CALL Z8ED$DISPOSE_HEAP (L$,
     2304     6785    2                               %MAX_INPUT_BUFFER_LEN);
     2305     6786    2     END;
     2306     6787
     2307     6788    1   END Z8EL$EXTRACT_PSEUDO_TEXT;
     2308     6789        %EOD;

PL6.E3A0      #015=Z8EL$EXTRACT_PSEUDO_TEXT File=Z8EL.:Z8A6TSI                   SAT 08/09/97 12:17 Page:550
--  Include file information  --

   Z8E_O1COM.:Z8A6TOU  cannot be made into a system file and is referenced.
   Z8A_COMCOM.:Z8A6TOU  cannot be made into a system file and is referenced.
   Z8E_REPLACE.:Z8A6TOU  cannot be made into a system file and is referenced.
   Z8E_HEAP.:Z8A6TOU  cannot be made into a system file and is referenced.
   Z8E_BUFFERS.:Z8A6TOU  cannot be made into a system file and is referenced.
   Z8A_LEX_SYMB.:Z8A6TOU  cannot be made into a system file and is referenced.
   Z8E_STACKS.:Z8A6TOU  cannot be made into a system file and is referenced.
   X8A_COM_MACS.:X8A6TOU  is referenced.
   Z8A_NAMES.:Z8A6TOU  is referenced.
   Z8A_SUPP_MAC.:Z8A6TOU  is referenced.
   Z8A_DEFC.:Z8A6TOU  cannot be made into a system file and is referenced.
      No diagnostics issued in procedure Z8EL$EXTRACT_PSEUDO_TEXT.

   Procedure Z8EL$EXTRACT_PSEUDO_TEXT requires 132 words for executable code.
   Procedure Z8EL$EXTRACT_PSEUDO_TEXT requires 16 words of local(AUTO) storage.

PL6.E3A0      #015=Z8EL$EXTRACT_PSEUDO_TEXT File=Z8EL.:Z8A6TSI                   SAT 08/09/97 12:17 Page:551

 Object Unit name= Z8EL$EXTRACT_PSEUDO_TEXT                   File name= Z8EL.:Z8A6TOU
 UTS= AUG 09 '97 12:17:57.00 SAT                              Compiler= PL-6/E31         Sev=      00
 SharedLib= :SHARED_SYSTEM                                    Alt SharedLib=


    ****  Control sections  ****

 Sect   Type Bound  Init  Size OctSiz  Section name(segment info)
    0  LblCom even  none     1      1  ITERATION
    1  LblCom even  none    90    132  LEX_SYMBOL
    2  LblCom even  none     1      1  CURRENT_LEX_SYMBOL$
    3  LblCom even  none    90    132  TEMP_LEX_SYMBOL
    4  LblCom even  none    90    132  TEMP_LEX_SYMBOL2
    5  LblCom even  none     1      1  SCANNER_STATE
    6  LblCom even  none     1      1  CURRENT_BUFFER$
    7  LblCom even  none     1      1  LOOKAHEAD_BUFFER$
    8  LblCom even  none     1      1  CURRENT_LINE_LEVEL
    9  LblCom even  none     1      1  LINE_LIST$
   10  LblCom even  none     7      7  BUFFER
   11  LblCom even  none     1      1  ORIGINAL_ISN
   12  LblCom even  none     1      1  EXPANDED_ISN
   13  LblCom even  none     1      1  ISN_FOR_EXP_SRC
   14  LblCom even  none     1      1  HEAP$
   15  LblCom even  none     1      1  CURRENT_SYMBOL_LEVEL
   16  LblCom even  none     1      1  REPLACE_ACTIVE
   17  LblCom even  none     1      1  IGNORE_COPY_REPLACE
   18  LblCom even  none     1      1  COPY_DEBUG_LEVEL
   19  LblCom even  none     4      4  REPLACE_LIST
   20  LblCom even  none     1      1  LEX_SYMBOL_QUEUE$
   21   Proc  even  none   132    204  Z8EL$EXTRACT_PSEUDO_TEXT
   22  RoData even  none     8     10  Z8EL$EXTRACT_PSEUDO_TEXT
PL6.E3A0      #015=Z8EL$EXTRACT_PSEUDO_TEXT File=Z8EL.:Z8A6TSI                   SAT 08/09/97 12:17 Page:552

    ****  Entry defs  ****

                              Check   Calling
                             calling  sequence
  Sect OctLoc Primary Altret sequence   type   Parms  Name
    21      0   yes            yes      Std        5  Z8EL$EXTRACT_PSEUDO_TEXT

  ****  Entry refs  ****

         Check        Calling
        calling       sequence
Altret sequence SRef   type   Args  Name
         yes           Std       3 Z8EL$POSITION_LINE_LIST
         yes           Std       2 Z8ED$NEW_HEAP
         yes           Std       2 Z8ED$DISPOSE_HEAP
                       nStd      0 X66_AUTO_5
                       nStd      0 X66_ARET

  ****  Data refs  ****

  Flags:  r = read only, s = secondary
Flgs Name                             Flgs Name                             Flgs Name
     COMCOM                                O1COM                                 HIER_STK_PTR
     HIER_STK                              PAGE_FORMAT                           REP_STK_PTR
     REP_STK

  ****  Segment refs  ****

  Flags:  r = read only, s = secondary
Flgs Name                             Flgs Name                             Flgs Name
     ISSID                                 NULLSID
PL6.E3A0      #015=Z8EL$EXTRACT_PSEUDO_TEXT File=Z8EL.:Z8A6TSI                   SAT 08/09/97 12:17 Page:553


     2210        1        /*T***********************************************************/
     2211        2        /*T*                                                         */
     2212        3        /*T* Copyright (c) Bull HN Information Systems Inc., 1997    */
     2213        4        /*T*                                                         */
     2214        5        /*T***********************************************************/
     2215        6        Z8EL$EXTRACT_PSEUDO_TEXT : PROC (LINES$,

      6 21 000000   000000 700200 xent  Z8EL$EXTRAC* TSX0  ! X66_AUTO_5
        21 000001   000020 000005                    ZERO    16,5

     2216        7                                         LINE,
     2217        8                                         COLUMN,
     2218        9                                         END_LINE,
     2219       10                                         END_COLUMN);
     2220       11
     2221       12    1     DCL LINES$ PTR;
     2222       13    1     DCL LINE SBIN;
     2223       14    1     DCL COLUMN SBIN;
     2224       15    1     DCL END_LINE SBIN;
     2225       16    1     DCL END_COLUMN SBIN;
     2226       17
     2227       18        %EQU PHASE = 1;
     2228       19        %INCLUDE Z8A_DEFC;
     2229       87        %INCLUDE Z8A_SUPP_MAC;
     2230     2487        %INCLUDE Z8E_STACKS;
     2231     4753        %INCLUDE Z8E_BUFFERS;
     2232     4943        %INCLUDE Z8E_HEAP;
     2233     4999        %INCLUDE Z8E_REPLACE;
     2234     5302        %INCLUDE Z8A_COMCOM ;
     2235     5952        %INCLUDE Z8E_O1COM ;
     2236     6713
     2237     6714
     2238     6715    1   DCL Z8EL$POSITION_LINE_LIST ENTRY(3);
     2239     6716
     2240     6717    1   DCL LINE$ PTR;
     2241     6718    1   DCL L$ PTR;
PL6.E3A0      #015=Z8EL$EXTRACT_PSEUDO_TEXT File=Z8EL.:Z8A6TSI                   SAT 08/09/97 12:17 Page:554
     2242     6719
     2243     6720    1   DCL NEW_LINE$ PTR;
     2244     6721    1   DCL LAST_NEW_LINE$ PTR;
     2245     6722
     2246     6723
     2247     6724          /* Main body of EXTRACT_PSEUDO_TEXT */
     2248     6725
     2249     6726    1   LINES$ = ADDR(NIL);

   6726 21 000002   000000 236000 22                 LDQ     0
        21 000003   200003 470500                    LDP0    @LINES$,,AUTO
        21 000004   000000 756100                    STQ     0,,PR0

     2250     6727    1   LAST_NEW_LINE$ = ADDR(NIL);

   6727 21 000005   000000 236000 22                 LDQ     0
        21 000006   200013 756100                    STQ     LAST_NEW_LINE$,,AUTO

     2251     6728
     2252     6729    1   L$ = ADDR(NIL);

   6729 21 000007   200011 756100                    STQ     L$,,AUTO

     2253     6730    1   CALL Z8EL$POSITION_LINE_LIST (LINE,

   6730 21 000010   000003 236000 22                 LDQ     3
        21 000011   200016 756100                    STQ     LAST_NEW_LINE$+3,,AUTO
        21 000012   200011 631500                    EPPR1   L$,,AUTO
        21 000013   200015 451500                    STP1    LAST_NEW_LINE$+2,,AUTO
        21 000014   200004 236100                    LDQ     @LINE,,AUTO
        21 000015   200014 756100                    STQ     LAST_NEW_LINE$+1,,AUTO
        21 000016   200014 630500                    EPPR0   LAST_NEW_LINE$+1,,AUTO
        21 000017   000001 631400 22                 EPPR1   1
        21 000020   000000 701000 xent               TSX1    Z8EL$POSITION_LINE_LIST
        21 000021   000000 011000                    NOP     0

     2254     6731    1                                 L$,
PL6.E3A0      #015=Z8EL$EXTRACT_PSEUDO_TEXT File=Z8EL.:Z8A6TSI                   SAT 08/09/97 12:17 Page:555
     2255     6732    1                                 999999999);
     2256     6733
     2257     6734    1   IF L$ ~= ADDR(NIL) THEN

   6734 21 000022   200011 236100                    LDQ     L$,,AUTO
        21 000023   000000 116000 22                 CMPQ    0
        21 000024   000150 600000 21                 TZE     s:6777

     2258     6735    2     DO UNTIL L$ = ADDR(NIL);

     2259     6736
     2260     6737            %NEW_HEAP (@POINTER = NEW_LINE$,
     2261     6738                       @SIZE = %MAX_INPUT_BUFFER_LEN);

   6740 21 000025   000006 236000 22                 LDQ     6
        21 000026   200015 756100                    STQ     LAST_NEW_LINE$+2,,AUTO
        21 000027   200012 630500                    EPPR0   NEW_LINE$,,AUTO
        21 000030   200014 450500                    STP0    LAST_NEW_LINE$+1,,AUTO
        21 000031   200014 630500                    EPPR0   LAST_NEW_LINE$+1,,AUTO
        21 000032   000004 631400 22                 EPPR1   4
        21 000033   000000 701000 xent               TSX1    Z8ED$NEW_HEAP
        21 000034   000000 011000                    NOP     0

     2262     6743
     2263     6744    2       IF LAST_NEW_LINE$ = ADDR(NIL) THEN

   6744 21 000035   200013 236100                    LDQ     LAST_NEW_LINE$,,AUTO
        21 000036   000000 116000 22                 CMPQ    0
        21 000037   000044 601000 21                 TNZ     s:6747

     2264     6745    2         LINES$ = NEW_LINE$;

   6745 21 000040   200012 236100                    LDQ     NEW_LINE$,,AUTO
        21 000041   200003 470500                    LDP0    @LINES$,,AUTO
        21 000042   000000 756100                    STQ     0,,PR0
        21 000043   000047 710000 21                 TRA     s:6749

PL6.E3A0      #015=Z8EL$EXTRACT_PSEUDO_TEXT File=Z8EL.:Z8A6TSI                   SAT 08/09/97 12:17 Page:556
     2265     6746    2       ELSE
     2266     6747    2         LAST_NEW_LINE$ -> FILL_BUFFER.NEXT$ = NEW_LINE$;

   6747 21 000044   200012 236100                    LDQ     NEW_LINE$,,AUTO
        21 000045   200013 470500                    LDP0    LAST_NEW_LINE$,,AUTO
        21 000046   000002 756100                    STQ     2,,PR0

     2267     6748
     2268     6749    2       LAST_NEW_LINE$ = NEW_LINE$;

   6749 21 000047   200012 236100                    LDQ     NEW_LINE$,,AUTO
        21 000050   200013 756100                    STQ     LAST_NEW_LINE$,,AUTO

     2269     6750    2       NEW_LINE$ -> FILL_BUFFER.LINE_LENGTH = L$ -> FILL_BUFFER.LINE_LENGTH;

   6750 21 000051   200011 470500                    LDP0    L$,,AUTO
        21 000052   200012 471500                    LDP1    NEW_LINE$,,AUTO
        21 000053   000012 235100                    LDA     10,,PR0
        21 000054   100012 755100                    STA     10,,PR1

     2270     6751    2       NEW_LINE$ -> FILL_BUFFER = L$ -> FILL_BUFFER;

   6751 21 000055   200012 471500                    LDP1    NEW_LINE$,,AUTO
        21 000056   100012 720100                    LXL0    10,,PR1
        21 000057   000054 621010                    EAX1    44,X0
        21 000060   000012 722100                    LXL2    10,,PR0
        21 000061   000054 623012                    EAX3    44,X2
        21 000062   000140 100540                    MLR     fill='000'O
        21 000063   000000 000013                    ADSC9   0,,PR0                   cn=0,n=*X3
        21 000064   100000 000011                    ADSC9   0,,PR1                   cn=0,n=*X1

     2271     6752    2       NEW_LINE$ -> FILL_BUFFER.NEXT$ = ADDR(NIL);

   6752 21 000065   000000 236000 22                 LDQ     0
        21 000066   200012 470500                    LDP0    NEW_LINE$,,AUTO
        21 000067   000002 756100                    STQ     2,,PR0

PL6.E3A0      #015=Z8EL$EXTRACT_PSEUDO_TEXT File=Z8EL.:Z8A6TSI                   SAT 08/09/97 12:17 Page:557
     2272     6753
     2273     6754    2       IF COMCOM.OB.FORMAT = FALSE THEN

   6754 21 000070   000030 234000 xsym               SZN     COMCOM+24
        21 000071   000077 604000 21                 TMI     s:6759

     2274     6755    2         SUBSTR(NEW_LINE$ -> FILL_BUFFER.SOURCE_LINE,

   6755 21 000072   200012 470500                    LDP0    NEW_LINE$,,AUTO
        21 000073   000012 720100                    LXL0    10,,PR0
        21 000074   040100 100400                    MLR     fill='040'O
        21 000075   000007 000001 22                 ADSC9   7                        cn=0,n=1
        21 000076   000013 000006                    ADSC9   11,,PR0                  cn=0,n=6

     2275     6756    2                0,
     2276     6757    2                6) = ' ';
     2277     6758
     2278     6759    2       IF NEW_LINE$ -> FILL_BUFFER.ISN = LINE THEN

   6759 21 000077   200012 470500                    LDP0    NEW_LINE$,,AUTO
        21 000100   200004 471500                    LDP1    @LINE,,AUTO
        21 000101   000004 236100                    LDQ     4,,PR0
        21 000102   100000 116100                    CMPQ    0,,PR1
        21 000103   000115 601000 21                 TNZ     s:6764

     2279     6760    2         SUBSTR(NEW_LINE$ -> FILL_BUFFER.SOURCE_LINE,

   6760 21 000104   000012 720100                    LXL0    10,,PR0
        21 000105   200005 473500                    LDP3    @COLUMN,,AUTO
        21 000106   300000 236100                    LDQ     0,,PR3
        21 000107   000122 136000 xsym               SBLQ    O1COM+82
        21 000110   000000 621006                    EAX1    0,QL
        21 000111   000122 235000 xsym               LDA     O1COM+82
        21 000112   040145 100400                    MLR     fill='040'O
        21 000113   000007 000001 22                 ADSC9   7                        cn=0,n=1
        21 000114   000013 000011                    ADSC9   11,A,PR0                 cn=0,n=*X1

PL6.E3A0      #015=Z8EL$EXTRACT_PSEUDO_TEXT File=Z8EL.:Z8A6TSI                   SAT 08/09/97 12:17 Page:558
     2280     6761    2                O1COM.AREA_A_COLUMN_START,
     2281     6762    2                COLUMN - O1COM.AREA_A_COLUMN_START) = ' ';
     2282     6763
     2283     6764    2       IF  NEW_LINE$ -> FILL_BUFFER.ISN = END_LINE

   6764 21 000115   200012 470500                    LDP0    NEW_LINE$,,AUTO
        21 000116   200006 473500                    LDP3    @END_LINE,,AUTO
        21 000117   000004 236100                    LDQ     4,,PR0
        21 000120   300000 116100                    CMPQ    0,,PR3
        21 000121   000143 601000 21                 TNZ     s:6774
        21 000122   200007 474500                    LDP4    @END_COLUMN,,AUTO
        21 000123   000012 236100                    LDQ     10,,PR0
        21 000124   400000 116100                    CMPQ    0,,PR4
        21 000125   000143 604400 21                 TMOZ    s:6774

     2284     6765    2       AND NEW_LINE$ -> FILL_BUFFER.LINE_LENGTH > END_COLUMN THEN
     2285     6766    3         DO;

     2286     6767    3           SUBSTR(NEW_LINE$ -> FILL_BUFFER.SOURCE_LINE,

   6767 21 000126   000012 720100                    LXL0    10,,PR0
        21 000127   400000 136100                    SBLQ    0,,PR4
        21 000130   400000 235100                    LDA     0,,PR4
        21 000131   000000 621006                    EAX1    0,QL
        21 000132   040145 100400                    MLR     fill='040'O
        21 000133   000007 000001 22                 ADSC9   7                        cn=0,n=1
        21 000134   000013 000011                    ADSC9   11,A,PR0                 cn=0,n=*X1

     2287     6768    3                  END_COLUMN,
     2288     6769    3                  NEW_LINE$ -> FILL_BUFFER.LINE_LENGTH - END_COLUMN) = ' ';
     2289     6770    3           NEW_LINE$ -> FILL_BUFFER.LINE_LENGTH = END_COLUMN;

   6770 21 000135   200012 470500                    LDP0    NEW_LINE$,,AUTO
        21 000136   400000 235100                    LDA     0,,PR4
        21 000137   000012 755100                    STA     10,,PR0

     2290     6771    3           L$ = ADDR(NIL);
PL6.E3A0      #015=Z8EL$EXTRACT_PSEUDO_TEXT File=Z8EL.:Z8A6TSI                   SAT 08/09/97 12:17 Page:559

   6771 21 000140   000000 236000 22                 LDQ     0
        21 000141   200011 756100                    STQ     L$,,AUTO

     2291     6772    3         END;

   6772 21 000142   000146 710000 21                 TRA     s:6775

     2292     6773    2       ELSE
     2293     6774    2         L$ = L$ -> FILL_BUFFER.NEXT$;

   6774 21 000143   200011 474500                    LDP4    L$,,AUTO
        21 000144   400002 236100                    LDQ     2,,PR4
        21 000145   200011 756100                    STQ     L$,,AUTO

     2294     6775    2     END;

   6775 21 000146   000000 116000 22                 CMPQ    0
        21 000147   000025 601000 21                 TNZ     s:6740

     2295     6776
     2296     6777    1   IF LINES$ ~= ADDR(NIL)

   6777 21 000150   200003 470500                    LDP0    @LINES$,,AUTO
        21 000151   000000 236100                    LDQ     0,,PR0
        21 000152   000000 116000 22                 CMPQ    0
        21 000153   000203 600000 21                 TZE     s:6788
        21 000154   000000 471500                    LDP1    0,,PR0
        21 000155   100012 720100                    LXL0    10,,PR1
        21 000156   100012 236100                    LDQ     10,,PR1
        21 000157   000122 136000 xsym               SBLQ    O1COM+82
        21 000160   000000 621006                    EAX1    0,QL
        21 000161   000122 235000 xsym               LDA     O1COM+82
        21 000162   040000 106545                    CMPC    fill='040'O
        21 000163   100013 000011                    ADSC9   11,A,PR1                 cn=0,n=*X1
        21 000164   000007 000001 22                 ADSC9   7                        cn=0,n=1
        21 000165   000203 601000 21                 TNZ     s:6788
PL6.E3A0      #015=Z8EL$EXTRACT_PSEUDO_TEXT File=Z8EL.:Z8A6TSI                   SAT 08/09/97 12:17 Page:560

     2297     6778    1       AND SUBSTR(LINES$ -> FILL_BUFFER.SOURCE_LINE,
     2298     6779    1                  O1COM.AREA_A_COLUMN_START,
     2299     6780    1                  LINES$ -> FILL_BUFFER.LINE_LENGTH - O1COM.AREA_A_COLUMN_START) = ' '
              6780                           THEN
     2300     6781    2     DO;

     2301     6782    2       L$ = LINES$;

   6782 21 000166   000000 236100                    LDQ     0,,PR0
        21 000167   200011 756100                    STQ     L$,,AUTO

     2302     6783    2       LINES$ = LINES$ -> FILL_BUFFER.NEXT$;

   6783 21 000170   000000 471500                    LDP1    0,,PR0
        21 000171   100002 236100                    LDQ     2,,PR1
        21 000172   000000 756100                    STQ     0,,PR0

     2303     6784    2       CALL Z8ED$DISPOSE_HEAP (L$,

   6784 21 000173   000006 236000 22                 LDQ     6
        21 000174   200015 756100                    STQ     LAST_NEW_LINE$+2,,AUTO
        21 000175   200011 631500                    EPPR1   L$,,AUTO
        21 000176   200014 451500                    STP1    LAST_NEW_LINE$+1,,AUTO
        21 000177   200014 630500                    EPPR0   LAST_NEW_LINE$+1,,AUTO
        21 000200   000004 631400 22                 EPPR1   4
        21 000201   000000 701000 xent               TSX1    Z8ED$DISPOSE_HEAP
        21 000202   000000 011000                    NOP     0

     2304     6785    2                               %MAX_INPUT_BUFFER_LEN);
     2305     6786    2     END;

     2306     6787
     2307     6788    1   END Z8EL$EXTRACT_PSEUDO_TEXT;

   6788 21 000203   000000 702200 xent               TSX2  ! X66_ARET
     2308     6789        %EOD;
PL6.E3A0      #015=Z8EL$EXTRACT_PSEUDO_TEXT File=Z8EL.:Z8A6TSI                   SAT 08/09/97 12:17 Page:561

PL6.E3A0      #015=Z8EL$EXTRACT_PSEUDO_TEXT File=Z8EL.:Z8A6TSI                   SAT 08/09/97 12:17 Page:562
--  Include file information  --

   Z8E_O1COM.:Z8A6TOU  cannot be made into a system file and is referenced.
   Z8A_COMCOM.:Z8A6TOU  cannot be made into a system file and is referenced.
   Z8E_REPLACE.:Z8A6TOU  cannot be made into a system file and is referenced.
   Z8E_HEAP.:Z8A6TOU  cannot be made into a system file and is referenced.
   Z8E_BUFFERS.:Z8A6TOU  cannot be made into a system file and is referenced.
   Z8A_LEX_SYMB.:Z8A6TOU  cannot be made into a system file and is referenced.
   Z8E_STACKS.:Z8A6TOU  cannot be made into a system file and is referenced.
   X8A_COM_MACS.:X8A6TOU  is referenced.
   Z8A_NAMES.:Z8A6TOU  is referenced.
   Z8A_SUPP_MAC.:Z8A6TOU  is referenced.
   Z8A_DEFC.:Z8A6TOU  cannot be made into a system file and is referenced.
      No diagnostics issued in procedure Z8EL$EXTRACT_PSEUDO_TEXT.
PL6.E3A0      #015=Z8EL$EXTRACT_PSEUDO_TEXT File=Z8EL.:Z8A6TSI                   SAT 08/09/97 12:17 Page:563

 **** Variables and constants ****

  ****  Section 000 LblCom ITERATION

  ****  Scalars and arrays  ****
OctLoc.c.b A Datatyp(siz) R M Lvl/name                 OctLoc.c.b A Datatyp(siz) R M Lvl/name

     0-0-0/w SBIN              1 ITERATION

  ****  Section 001 LblCom LEX_SYMBOL

  ****  Scalars and arrays  ****
OctLoc.c.b A Datatyp(siz) R M Lvl/name                 OctLoc.c.b A Datatyp(siz) R M Lvl/name

     0-0-0/w STRC(3240)  r     1 LEX_SYMBOL                 0-0-0/w STRC(3240)        1 LEX_SYMBOL_WORDS

  ****  Section 002 LblCom CURRENT_LEX_SYMBOL$

  ****  Scalars and arrays  ****
OctLoc.c.b A Datatyp(siz) R M Lvl/name                 OctLoc.c.b A Datatyp(siz) R M Lvl/name

     0-0-0/w PTR         r     1 CURRENT_LEX_SYMBOL$

  ****  Section 003 LblCom TEMP_LEX_SYMBOL

  ****  Scalars and arrays  ****
OctLoc.c.b A Datatyp(siz) R M Lvl/name                 OctLoc.c.b A Datatyp(siz) R M Lvl/name

     0-0-0/w STRC(3240)        1 TEMP_LEX_SYMBOL

  ****  Section 004 LblCom TEMP_LEX_SYMBOL2

  ****  Scalars and arrays  ****
OctLoc.c.b A Datatyp(siz) R M Lvl/name                 OctLoc.c.b A Datatyp(siz) R M Lvl/name

     0-0-0/w STRC(3240)        1 TEMP_LEX_SYMBOL2

PL6.E3A0      #015=Z8EL$EXTRACT_PSEUDO_TEXT File=Z8EL.:Z8A6TSI                   SAT 08/09/97 12:17 Page:564
  ****  Section 005 LblCom SCANNER_STATE

  ****  Scalars and arrays  ****
OctLoc.c.b A Datatyp(siz) R M Lvl/name                 OctLoc.c.b A Datatyp(siz) R M Lvl/name

     0-0-0/w SBIN              1 SCANNER_STATE

  ****  Section 006 LblCom CURRENT_BUFFER$

  ****  Scalars and arrays  ****
OctLoc.c.b A Datatyp(siz) R M Lvl/name                 OctLoc.c.b A Datatyp(siz) R M Lvl/name

     0-0-0/w PTR               1 CURRENT_BUFFER$

  ****  Section 007 LblCom LOOKAHEAD_BUFFER$

  ****  Scalars and arrays  ****
OctLoc.c.b A Datatyp(siz) R M Lvl/name                 OctLoc.c.b A Datatyp(siz) R M Lvl/name

     0-0-0/w PTR         r     1 LOOKAHEAD_BUFFER$

  ****  Section 008 LblCom CURRENT_LINE_LEVEL

  ****  Scalars and arrays  ****
OctLoc.c.b A Datatyp(siz) R M Lvl/name                 OctLoc.c.b A Datatyp(siz) R M Lvl/name

     0-0-0/w SBIN              1 CURRENT_LINE_LEVEL

  ****  Section 009 LblCom LINE_LIST$

  ****  Scalars and arrays  ****
OctLoc.c.b A Datatyp(siz) R M Lvl/name                 OctLoc.c.b A Datatyp(siz) R M Lvl/name

     0-0-0/w PTR               1 LINE_LIST$

  ****  Section 010 LblCom BUFFER

PL6.E3A0      #015=Z8EL$EXTRACT_PSEUDO_TEXT File=Z8EL.:Z8A6TSI                   SAT 08/09/97 12:17 Page:565
  ****  Scalars and arrays  ****
OctLoc.c.b A Datatyp(siz) R M Lvl/name                 OctLoc.c.b A Datatyp(siz) R M Lvl/name

     0-0-0/w STRC(252)   r     1 BUFFER

  ****  Section 011 LblCom ORIGINAL_ISN

  ****  Scalars and arrays  ****
OctLoc.c.b A Datatyp(siz) R M Lvl/name                 OctLoc.c.b A Datatyp(siz) R M Lvl/name

     0-0-0/w SBIN              1 ORIGINAL_ISN

  ****  Section 012 LblCom EXPANDED_ISN

  ****  Scalars and arrays  ****
OctLoc.c.b A Datatyp(siz) R M Lvl/name                 OctLoc.c.b A Datatyp(siz) R M Lvl/name

     0-0-0/w SBIN              1 EXPANDED_ISN

  ****  Section 013 LblCom ISN_FOR_EXP_SRC

  ****  Scalars and arrays  ****
OctLoc.c.b A Datatyp(siz) R M Lvl/name                 OctLoc.c.b A Datatyp(siz) R M Lvl/name

     0-0-0/w SBIN              1 ISN_FOR_EXP_SRC

  ****  Section 014 LblCom HEAP$

  ****  Scalars and arrays  ****
OctLoc.c.b A Datatyp(siz) R M Lvl/name                 OctLoc.c.b A Datatyp(siz) R M Lvl/name

     0-0-0/w PTR               1 HEAP$

  ****  Section 015 LblCom CURRENT_SYMBOL_LEVEL

  ****  Scalars and arrays  ****
OctLoc.c.b A Datatyp(siz) R M Lvl/name                 OctLoc.c.b A Datatyp(siz) R M Lvl/name
PL6.E3A0      #015=Z8EL$EXTRACT_PSEUDO_TEXT File=Z8EL.:Z8A6TSI                   SAT 08/09/97 12:17 Page:566

     0-0-0/w SBIN              1 CURRENT_SYMBOL_LEVEL

  ****  Section 016 LblCom REPLACE_ACTIVE

  ****  Scalars and arrays  ****
OctLoc.c.b A Datatyp(siz) R M Lvl/name                 OctLoc.c.b A Datatyp(siz) R M Lvl/name

     0-0-0/b BIT               1 REPLACE_ACTIVE

  ****  Section 017 LblCom IGNORE_COPY_REPLACE

  ****  Scalars and arrays  ****
OctLoc.c.b A Datatyp(siz) R M Lvl/name                 OctLoc.c.b A Datatyp(siz) R M Lvl/name

     0-0-0/b BIT               1 IGNORE_COPY_REPLACE

  ****  Section 018 LblCom COPY_DEBUG_LEVEL

  ****  Scalars and arrays  ****
OctLoc.c.b A Datatyp(siz) R M Lvl/name                 OctLoc.c.b A Datatyp(siz) R M Lvl/name

     0-0-0/w SBIN              1 COPY_DEBUG_LEVEL

  ****  Section 019 LblCom REPLACE_LIST

  ****  Scalars and arrays  ****
OctLoc.c.b A Datatyp(siz) R M Lvl/name                 OctLoc.c.b A Datatyp(siz) R M Lvl/name

     0-0-0/w STRC(144)         1 REPLACE_LIST

  ****  Section 020 LblCom LEX_SYMBOL_QUEUE$

  ****  Scalars and arrays  ****
OctLoc.c.b A Datatyp(siz) R M Lvl/name                 OctLoc.c.b A Datatyp(siz) R M Lvl/name

     0-0-0/w PTR               1 LEX_SYMBOL_QUEUE$
PL6.E3A0      #015=Z8EL$EXTRACT_PSEUDO_TEXT File=Z8EL.:Z8A6TSI                   SAT 08/09/97 12:17 Page:567

  ****  Auto variables  ****

  ****  Scalars and arrays  ****
OctLoc.c.b A Datatyp(siz) R M Lvl/name                 OctLoc.c.b A Datatyp(siz) R M Lvl/name

     5-0-0/w PTR         r     1 @COLUMN                    7-0-0/w PTR         r     1 @END_COLUMN
     6-0-0/w PTR         r     1 @END_LINE                  4-0-0/w PTR         r     1 @LINE
     3-0-0/w PTR         r     1 @LINES$                   *0-0-0/w SBIN        r     1 COLUMN
    *0-0-0/w SBIN        r     1 END_COLUMN                *0-0-0/w SBIN        r     1 END_LINE
    11-0-0/w PTR         r     1 L$                        13-0-0/w PTR         r     1 LAST_NEW_LINE$
    *0-0-0/w SBIN        r     1 LINE                      10-0-0/w PTR               1 LINE$
    *0-0-0/w PTR         r     1 LINES$                    12-0-0/w PTR         r     1 NEW_LINE$

  ****  SYMREF variables  ****

  ****  Scalars and arrays  ****
OctLoc.c.b A Datatyp(siz) R M Lvl/name                 OctLoc.c.b A Datatyp(siz) R M Lvl/name

     0-0-0/d STRC(13248) r     1 COMCOM
     0-0-0/w STRC(180)         1 HIER_STK(0:50)
     0-0-0/w SBIN              1 HIER_STK_PTR               0-0-0/d STRC(11580) r     1 O1COM
     0-0-0/w STRC(144)         1 PAGE_FORMAT                0-0-0/w STRC(153)         1 REP_STK(0:50)
     0-0-0/w SBIN              1 REP_STK_PTR

  ****  BASED and DCB variables  ****

  ****  Scalars and arrays  ****
OctLoc.c.b A Datatyp(siz) R M Lvl/name                 OctLoc.c.b A Datatyp(siz) R M Lvl/name

     0-0-0/w STRC(288)         1 ADD_STMT                   0-0-0/w ASTR(324)   r     1 BASED_LEX_SYMBOL
     0-0-0/w STRC(360)         1 BASED_LEX_SYMBOL_WORDS
     0-0-0/w STRC(288)         1 BINARY_OP                  0-0-0/c ACHR              1 BUFFER_LINE
     0-0-0/w STRC(288)         1 CALL_STMT                  0-0-0/w CHAR(4096)        1 CHARS
     0-0-0/w STRC(288)         1 COMPUTE_STMT               0-0-0/w STRC(72)          1 CONT
     0-0-0/w STRC(288)         1 DEFERED_IDENTIFIER         0-0-0/w STRC(252)         1 DEFERED_ID_TREE
     0-0-0/w STRC(288)         1 DEFERED_QUAL_ID            0-0-0/w STRC(288)         1 DEFERED_SUM_CLAUSE
PL6.E3A0      #015=Z8EL$EXTRACT_PSEUDO_TEXT File=Z8EL.:Z8A6TSI                   SAT 08/09/97 12:17 Page:568
     0-0-0/w STRC(288)         1 DEFERED_SUM_CLAUSE_LIST
     0-0-0/w STRC(288)         1 DELETE_STMT                0-0-0/w STRC(288)         1 DIVIDE_STMT
     0-0-0/w ASTR(396)   r     1 EXP_SRC_BUFF               0-0-0/w ASTR(396)   r     1 FILL_BUFFER
     0-0-0/w STRC(288)         1 ILS_LIST                   0-0-0/w STRC(288)         1 INSPECT_1_STMT
     0-0-0/w STRC(288)         1 INSPECT_2_STMT             0-0-0/w STRC(288)         1 INSPECT_4_STMT
     0-0-0/w STRC(288)         1 LA_ITEM                    0-0-0/w STRC(504)         1 LX_CD_INPUT
     0-0-0/w STRC(324)         1 LX_CD_I_O                  0-0-0/w STRC(396)         1 LX_CD_OUTPUT
     0-0-0/w STRC(288)         1 LX_ETT_ITEM                0-0-0/w STRC(288)         1 LX_ITEM
     0-0-0/w STRC(288)         1 LX_LARGE                   0-0-0/w STRC(288)         1 LX_LIST
     0-0-0/w STRC(1224)        1 LX_REC_DECL                0-0-0/w STRC(864)         1 LX_REPORT_REC
     0-0-0/w STRC(288)         1 LX_TERMINAL                0-0-0/w STRC(288)         1 MULTIPLY_STMT
     0-0-0/w STRC(36864)       1 PAGE                       0-0-0/w STRC(288)         1 READ_STMT
     0-0-0/w STRC(252)         1 REPLACE_ITEM               0-0-0/w STRC(288)         1 REWRITE_STMT
     0-0-0/w STRC(288)         1 START_STMT                 0-0-0/w STRC(252)         1 STRING_STMT
     0-0-0/w STRC(288)         1 SUBTRACT_STMT              0-0-0/w STRC(288)         1 UNARY_OP
     0-0-0/w STRC(288)         1 UNSTRING_STMT              0-0-0/w STRC(288)         1 WRITE_STMT


   Procedure Z8EL$EXTRACT_PSEUDO_TEXT requires 132 words for executable code.
   Procedure Z8EL$EXTRACT_PSEUDO_TEXT requires 16 words of local(AUTO) storage.

