PL6.E3A0      #018=Z8EL$POSSIBLE_REPLACE File=Z8EL.:Z8A6TSI                      SAT 08/09/97 12:20 Page:613
     2489        1        /*T***********************************************************/
     2490        2        /*T*                                                         */
     2491        3        /*T* Copyright (c) Bull HN Information Systems Inc., 1997    */
     2492        4        /*T*                                                         */
     2493        5        /*T***********************************************************/
     2494        6        Z8EL$POSSIBLE_REPLACE : PROC (LOWEST_LEVEL) ALTRET;
     2495        7
     2496        8    1   DCL LOWEST_LEVEL SBIN;
     2497        9
     2498       10        %EQU PHASE = 1;
     2499       11        %INCLUDE Z8A_DEFC;
     2500       79        %INCLUDE Z8A_SUPP_MAC;
     2501     2479        %INCLUDE Z8E_HEAP;
     2502     2535        %INCLUDE Z8E_STACKS;
     2503     4801        %INCLUDE Z8E_REPLACE;
     2504     5104        %INCLUDE Z8E_WINDOW;
     2505     7174        %INCLUDE Z8E_BUFFERS;
     2506     7364        %INCLUDE Z8E_TABLES;
     2507     7917        %INCLUDE Z8A_COMCOM ;
     2508     8567        %INCLUDE Z8E_O1COM ;
     2509     9328
     2510     9329    1   DCL Z8EL$POSITION_LINE_LIST ENTRY (3);
     2511     9330    1   DCL Z8EL$PROCESS_COPY ENTRY;
     2512     9331
     2513     9332
     2514     9333
     2515     9334    1   DCL REPLACE$ PTR;
     2516     9335    1   DCL REPLACEMENT_FOUND BOOLEAN;
     2517     9336    1   DCL SAVE_INHIBIT_DUMP_LINES BOOLEAN;
     2518     9337    1   DCL INHIBIT_DUMP_LINES BOOLEAN EXT;
     2519     9338    1   DCL LEX_STATE          SBIN WORD EXT; /* Normal or Picture or ... */
     2520     9339    1   DCL PICTURE_TOKEN      BOOLEAN;       /* PICTURE found in match list */
     2521     9340
     2522     9341
     2523     9342
     2524     9343        %EJECT;
PL6.E3A0      #018=Z8EL$POSSIBLE_REPLACE File=Z8EL.:Z8A6TSI                      SAT 08/09/97 12:20 Page:614
     2525     9344    1     MATCH_LISTS : PROC ALTRET;
     2526     9345
     2527     9346    2       DCL MATCH$ PTR;
     2528     9347    2       DCL LEX$ PTR;
     2529     9348
     2530     9349
     2531     9350    2       EMBEDDED_COPY : PROC;
     2532     9351
     2533     9352    3         DCL SAVED_LEX_SYMBOL_QUEUE$ PTR;
     2534     9353
     2535     9354    3         SAVED_LEX_SYMBOL_QUEUE$ = LEX_SYMBOL_QUEUE$;
     2536     9355    3         LEX_SYMBOL_QUEUE$ = ADDR(NIL);
     2537     9356
     2538     9357    3         CALL Z8EL$PROCESS_COPY;
     2539     9358
     2540     9359    3         LEX$ -> BASED_LEX_SYMBOL.NEXT$ = LEX_SYMBOL_QUEUE$;
     2541     9360    3         LEX_SYMBOL_QUEUE$ = SAVED_LEX_SYMBOL_QUEUE$;
     2542     9361
     2543     9362    3       END EMBEDDED_COPY;
     2544     9363
     2545     9364
     2546     9365    2     CHECK_LOWER_LEVEL : PROC;
     2547     9366
     2548     9367    3       DCL SAVED_LEX_SYMBOL_QUEUE$ PTR;
     2549     9368
     2550     9369    3       IF LEX$ -> BASED_LEX_SYMBOL.NEXT$ -> BASED_LEX_SYMBOL.LEVEL >
     2551     9370    3             REPLACE$ -> REPLACE_ITEM.LEVEL THEN
     2552     9371    4         DO;
     2553     9372    4           SAVED_LEX_SYMBOL_QUEUE$ = LEX_SYMBOL_QUEUE$;
     2554     9373    4           LEX_SYMBOL_QUEUE$ = LEX$ -> BASED_LEX_SYMBOL.NEXT$;
     2555     9374
     2556     9375    4           CALL Z8EL$POSSIBLE_REPLACE (REPLACE$ -> REPLACE_ITEM.LEVEL)
     2557     9376    4             WHENALTRETURN
     2558     9377    5               DO;
     2559     9378    5                 LEX_SYMBOL_QUEUE$ -> BASED_LEX_SYMBOL.LEVEL
     2560     9379    5                     = REPLACE$ -> REPLACE_ITEM.LEVEL;
     2561     9380    5               END;
PL6.E3A0      #018=Z8EL$POSSIBLE_REPLACE File=Z8EL.:Z8A6TSI                      SAT 08/09/97 12:20 Page:615
     2562     9381
     2563     9382    4           LEX$ -> BASED_LEX_SYMBOL.NEXT$ = LEX_SYMBOL_QUEUE$;
     2564     9383    4           LEX_SYMBOL_QUEUE$ = SAVED_LEX_SYMBOL_QUEUE$;
     2565     9384    4         END;
     2566     9385
     2567     9386    3     END CHECK_LOWER_LEVEL;
     2568     9387
     2569     9388            /* Main body of MATCH_LISTS */
     2570     9389
     2571     9390    2       LEX$ = LEX_SYMBOL_QUEUE$;
     2572     9391    2       MATCH$ = REPLACE$ -> REPLACE_ITEM.FROM_LIST$;
     2573     9392    2       PICTURE_TOKEN = FALSE;
     2574     9393
     2575     9394    3       DO WHILE MATCH$ ~= ADDR(NIL)
     2576     9395    3                    AND MATCH$ -> BASED_LEX_SYMBOL.SYMBOL
     2577     9396    3                            = LEX$ -> BASED_LEX_SYMBOL.SYMBOL
     2578     9397    3                     AND LEX$ -> BASED_LEX_SYMBOL.LEVEL >=
     2579     9398    3                             REPLACE$ -> REPLACE_ITEM.LEVEL;
     2580     9399
     2581     9400              /*Don't replace parts of picture strings (STAR T02424) */
     2582     9401
     2583     9402    3         IF SUBSTR (MATCH$ -> BASED_LEX_SYMBOL.SYMBOL, 0, MATCH$ -> BASED_LEX_SYMBOL.
              9402                  SIZE) = 'PICTURE'
     2584     9403    3         OR SUBSTR (MATCH$ -> BASED_LEX_SYMBOL.SYMBOL, 0, MATCH$ -> BASED_LEX_SYMBOL.
              9403                  SIZE) = 'PIC' THEN
     2585     9404    3           PICTURE_TOKEN = TRUE;
     2586     9405
     2587     9406    3         IF PICTURE_TOKEN = FALSE
     2588     9407    3         AND LEX_STATE = %LS_PICTURE_OR_IS THEN
     2589     9408    3           RETURN; /* REPLACEMENT_FOUND = FALSE */
     2590     9409
     2591     9410    3         MATCH$ = MATCH$ -> BASED_LEX_SYMBOL.NEXT$;
     2592     9411
     2593     9412    3         IF MATCH$ ~= ADDR(NIL) THEN
     2594     9413    4           DO;
     2595     9414    4             IF LEX$ -> BASED_LEX_SYMBOL.NEXT$ = ADDR(NIL) THEN
     2596     9415    5               DO;
PL6.E3A0      #018=Z8EL$POSSIBLE_REPLACE File=Z8EL.:Z8A6TSI                      SAT 08/09/97 12:20 Page:616
     2597     9416                      %GET_BRAND_NEW_TOKEN;
     2598     9425
     2599     9426                      /* Check for embedded copy */
     2600     9427    5                 IF LEX_SYMBOL.SIZE = 4
     2601     9428    5                      AND SUBSTR(LEX_SYMBOL.SYMBOL,0,4) = 'COPY' THEN
     2602     9429    6                   DO;
     2603     9430    6                     CALL EMBEDDED_COPY;
     2604     9431    6                     ALTRETURN;
     2605     9432    6                   END;
     2606     9433
     2607     9434                      %COPY_TO_NEW_LEX_SYMBOL(FROM$="ADDR(LEX_SYMBOL)",
     2608     9435                                              TO$ = HEAP$);
     2609     9450    5                 LEX$ -> BASED_LEX_SYMBOL.NEXT$ = HEAP$;
     2610     9451    5               END;
     2611     9452
     2612     9453    4             CALL CHECK_LOWER_LEVEL;
     2613     9454
     2614     9455    4             LEX$ = LEX$ -> BASED_LEX_SYMBOL.NEXT$;
     2615     9456    4           END;
     2616     9457
     2617     9458    3       END;  /* DO WHILE */
     2618     9459
     2619     9460    2       IF MATCH$ = ADDR(NIL) THEN
     2620     9461    2         REPLACEMENT_FOUND = TRUE;
     2621     9462
     2622     9463    2     END MATCH_LISTS;
     2623     9464
     2624     9465        %EJECT;
PL6.E3A0      #018=Z8EL$POSSIBLE_REPLACE File=Z8EL.:Z8A6TSI                      SAT 08/09/97 12:20 Page:617
     2625     9466    1     DO_REPLACE : PROC;
     2626     9467    2       DCL MATCH$ PTR;
     2627     9468    2       DCL LEX$ PTR;
     2628     9469
     2629     9470    2       DCL REP_BEG_LINE SBIN;
     2630     9471    2       DCL REP_BEG_COLUMN SBIN;
     2631     9472    2       DCL REP_DEBUG_LINE BOOLEAN;
     2632     9473    2       DCL CUMM_LINE_OFFSET SBIN;
     2633     9474    2       DCL CUMM_LINE_PTR$ PTR;
     2634     9475    2       DCL REP_END_LINE SBIN;
     2635     9476    2       DCL REP_END_COLUMN SBIN;
     2636     9477
     2637     9478    2       DCL L$               PTR;
     2638     9479    2       DCL TL$              PTR;
     2639     9480    2       DCL TISN             SBIN;
     2640     9481    2       DCL ISN_INC          SBIN;
     2641     9482    2       DCL ISN_BASE         SBIN;
     2642     9483    2       DCL NON_BLANK_COL    SBIN;
     2643     9484    2       DCL CHAR_CLASS       SBIN;
     2644     9485    2       DCL TEMP_SBIN        SBIN BYTE CALIGNED;
     2645     9486    2       DCL TEMP_CHAR1       REDEF TEMP_SBIN CHAR (1);
     2646     9487    2       DCL MAX_TOKEN_LENGTH SBIN;
     2647     9488    2       DCL SAVE_SIZE        SBIN;
     2648     9489    2       DCL NEXT$            PTR;
     2649     9490    2       DCL NEW$             PTR;
     2650     9491    2       DCL REP_SIZE         SBIN;
     2651     9492    2       DCL BLANK_SPACE      SBIN;
     2652     9493    2       DCL TO_LIST$         PTR;
     2653     9494    2       DCL OLD_LINE$        PTR;
     2654     9495    2       DCL TEMP_CHAR60      CHAR (60);
     2655     9496    2       DCL SHIFT_RIGHT      SBIN;
     2656     9497
     2657     9498        %EJECT;
PL6.E3A0      #018=Z8EL$POSSIBLE_REPLACE File=Z8EL.:Z8A6TSI                      SAT 08/09/97 12:20 Page:618
     2658     9499
     2659     9500    2       ADJUST_ISN : PROC (ISN_INC,
     2660     9501    2                          LINE$);
     2661     9502
     2662     9503    3         DCL ISN_INC SBIN;
     2663     9504    3         DCL LINE$ PTR;
     2664     9505
     2665     9506    3         DCL L$ PTR;
     2666     9507    3         DCL T$ PTR;
     2667     9508
     2668     9509    3         L$ = LINE$;
     2669     9510
     2670     9511    4         DO WHILE L$ ~= ADDR(NIL)
     2671     9512    4              AND L$ ~= CURRENT_BUFFER$;
     2672     9513
     2673     9514    4           L$ -> FILL_BUFFER.ISN = L$ -> FILL_BUFFER.ISN + ISN_INC;
     2674     9515    4           L$ = L$ -> FILL_BUFFER.NEXT$;
     2675     9516    4         END;
     2676     9517
     2677     9518    3         IF L$ = CURRENT_BUFFER$ THEN
     2678     9519    4           DO;
     2679     9520    4             EXPANDED_ISN = EXPANDED_ISN + ISN_INC;
     2680     9521    4             L$ -> FILL_BUFFER.ISN = L$ -> FILL_BUFFER.ISN + ISN_INC;
     2681     9522    4             BUFFER.ISN = L$ -> FILL_BUFFER.ISN;
     2682     9523    4           END;
     2683     9524
     2684     9525                /* Adjust tokens previously scanned */
     2685     9526
     2686     9527    3           T$ = LEX_SYMBOL_QUEUE$;
     2687     9528    4           DO WHILE T$ ~= ADDR(NIL);
     2688     9529    4             T$ -> BASED_LEX_SYMBOL.LINE = T$ -> BASED_LEX_SYMBOL.LINE + ISN_INC;
     2689     9530    4             T$ -> BASED_LEX_SYMBOL.END_LINE = T$ -> BASED_LEX_SYMBOL.END_LINE +
              9530                      ISN_INC;
     2690     9531    4             T$ = T$ -> BASED_LEX_SYMBOL.NEXT$;
     2691     9532    4           END;
     2692     9533    3       END ADJUST_ISN;
     2693     9534
PL6.E3A0      #018=Z8EL$POSSIBLE_REPLACE File=Z8EL.:Z8A6TSI                      SAT 08/09/97 12:20 Page:619
     2694     9535        %EJECT;
PL6.E3A0      #018=Z8EL$POSSIBLE_REPLACE File=Z8EL.:Z8A6TSI                      SAT 08/09/97 12:20 Page:620
     2695     9536    2       SPLIT_LINE : PROC (LINE,
     2696     9537    2                          COLUMN,
     2697     9538    2                          LINE$);
     2698     9539
     2699     9540    3         DCL LINE SBIN;
     2700     9541    3         DCL COLUMN SBIN;
     2701     9542    3         DCL LINE$ PTR;
     2702     9543
     2703     9544    3         DCL L$ PTR;
     2704     9545
     2705     9546    3         LINE$ = ADDR(NIL);
     2706     9547    3         CALL Z8EL$POSITION_LINE_LIST (LINE, LINE$, 999999999);
     2707     9548
     2708     9549    3         IF LINE$ ~= ADDR(NIL) THEN
     2709     9550    4           DO;
     2710     9551    4             IF SUBSTR (LINE$ -> FILL_BUFFER.SOURCE_LINE,
     2711     9552    4                        COLUMN,
     2712     9553    4                        MINIMUM (O1COM.MARGIN_R, LINE$ -> FILL_BUFFER.LINE_LENGTH) -
              9553                                 COLUMN)
     2713     9554    4                    ~= ' ' THEN
     2714     9555    5               DO;
     2715     9556    5                 CALL DUP_FOR_REP (LINE$,
     2716     9557    5                                   CUMM_LINE_OFFSET);
     2717     9558
     2718     9559                      %NEW_HEAP (@POINTER = L$,
     2719     9560                                 @SIZE = %MAX_INPUT_BUFFER_LEN);
     2720     9565
     2721     9566    5                 LINE$ -> FILL_BUFFER.ESN = ' ';
     2722     9567    5                 L$ -> FILL_BUFFER.LINE_LENGTH = LINE$ -> FILL_BUFFER.LINE_LENGTH;
     2723     9568    5                 L$ -> FILL_BUFFER = LINE$ -> FILL_BUFFER;
     2724     9569    5                 LINE$ -> FILL_BUFFER.NEXT$ = L$;
     2725     9570    5                 IF CURRENT_BUFFER$ = LINE$ THEN
     2726     9571    5                   CURRENT_BUFFER$ = L$;
     2727     9572
     2728     9573    5                 CALL ADJUST_ISN (1, L$);
     2729     9574
     2730     9575    5                 SUBSTR (LINE$ -> FILL_BUFFER.SOURCE_LINE,
PL6.E3A0      #018=Z8EL$POSSIBLE_REPLACE File=Z8EL.:Z8A6TSI                      SAT 08/09/97 12:20 Page:621
     2731     9576    5                         COLUMN,
     2732     9577    5                         MINIMUM (O1COM.MARGIN_R, LINE$ -> FILL_BUFFER.LINE_LENGTH) -
              9577                                  COLUMN)
     2733     9578    5                     = ' ';
     2734     9579
     2735     9580    5                 SUBSTR (L$ -> FILL_BUFFER.SOURCE_LINE,
     2736     9581    5                         0,
     2737     9582    5                         COLUMN) = ' ';
     2738     9583    5                 IF LINE$ -> FILL_BUFFER.LINE_TYPE.DEBUG_LINE THEN
     2739     9584    5                   SUBSTR (L$ -> FILL_BUFFER.SOURCE_LINE,
     2740     9585    5                           O1COM.AREA_A_COLUMN_START - 1, 1) = 'D';
     2741     9586    5               END;
     2742     9587    4           END;
     2743     9588    3       END SPLIT_LINE;
     2744     9589
     2745     9590        %EJECT;
PL6.E3A0      #018=Z8EL$POSSIBLE_REPLACE File=Z8EL.:Z8A6TSI                      SAT 08/09/97 12:20 Page:622
     2746     9591    2       DUP_FOR_REP : PROC (LINE$,
     2747     9592    2                           ISN_INC);
     2748     9593
     2749     9594    3         DCL LINE$ PTR;
     2750     9595    3         DCL ISN_INC SBIN;
     2751     9596
     2752     9597    3         DCL L$ PTR;
     2753     9598
     2754     9599
     2755     9600    3         ISN_INC = 0;
     2756     9601    3         IF NOT LINE$ -> FILL_BUFFER.LINE_TYPE.NEW_REP_LINE THEN
     2757     9602    4           DO;
     2758     9603                  %NEW_HEAP (@POINTER = L$,
     2759     9604                             @SIZE = %MAX_INPUT_BUFFER_LEN);
     2760     9609
     2761     9610    4             L$ -> FILL_BUFFER.LINE_LENGTH = LINE$ -> FILL_BUFFER.LINE_LENGTH;
     2762     9611    4             L$ -> FILL_BUFFER = LINE$ -> FILL_BUFFER;
     2763     9612    4             L$ -> FILL_BUFFER.LINE_TYPE.NEW_REP_LINE = TRUE;
     2764     9613    4             L$ -> FILL_BUFFER.ESN = ' ';
     2765     9614    4             LINE$ -> FILL_BUFFER.LINE_TYPE.OLD_REP_LINE = TRUE;
     2766     9615    4             LINE$ -> FILL_BUFFER.NEXT$ = L$;
     2767     9616
     2768     9617    4             IF CURRENT_BUFFER$ = LINE$ THEN
     2769     9618    4               CURRENT_BUFFER$ = L$;
     2770     9619    4             LINE$ = L$;
     2771     9620
     2772     9621    4             CALL ADJUST_ISN (1, L$);
     2773     9622
     2774     9623    4             ISN_INC = 1;
     2775     9624    4           END;
     2776     9625    3       END DUP_FOR_REP;
     2777     9626
     2778     9627        %EJECT;
PL6.E3A0      #018=Z8EL$POSSIBLE_REPLACE File=Z8EL.:Z8A6TSI                      SAT 08/09/97 12:20 Page:623
     2779     9628    2       INSERT_TOKEN : PROC (SYMBOL$,
     2780     9629    2                            LINE,
     2781     9630    2                            COLUMN);
     2782     9631
     2783     9632    3         DCL SYMBOL$ PTR;
     2784     9633    3         DCL LINE SBIN;
     2785     9634    3         DCL COLUMN SBIN;
     2786     9635
     2787     9636    3         DCL LEX$ PTR;
     2788     9637
     2789     9638              %COPY_TO_NEW_LEX_SYMBOL (FROM$ = SYMBOL$,
     2790     9639                                       TO$ = LEX$);
     2791     9654    3         LEX$ -> BASED_LEX_SYMBOL.NEXT$ = LEX_SYMBOL_QUEUE$;
     2792     9655    3         LEX$ -> BASED_LEX_SYMBOL.LEVEL = REPLACE$ -> REPLACE_ITEM.LEVEL - 1;
     2793     9656    3         LEX_SYMBOL_QUEUE$ = LEX$;
     2794     9657    3         LEX$ -> BASED_LEX_SYMBOL.LINE = LINE;
     2795     9658    3         LEX$ -> BASED_LEX_SYMBOL.COLUMN = COLUMN;
     2796     9659    3         LEX$ -> BASED_LEX_SYMBOL.END_LINE = LINE;
     2797     9660    3         LEX$ -> BASED_LEX_SYMBOL.END_COLUMN = COLUMN + SYMBOL$ -> BASED_LEX_SYMBOL.
              9660                  SIZE;
     2798     9661    3         LEX$ -> BASED_LEX_SYMBOL.B.DEBUG_TOKEN = REP_DEBUG_LINE;
     2799     9662
     2800     9663    3         IF LEX$ -> BASED_LEX_SYMBOL.END_COLUMN > O1COM.MARGIN_R THEN
     2801     9664    3           LEX$ -> BASED_LEX_SYMBOL.END_COLUMN = O1COM.MARGIN_R;
     2802     9665    3       END INSERT_TOKEN;
     2803     9666
     2804     9667        %EJECT;
PL6.E3A0      #018=Z8EL$POSSIBLE_REPLACE File=Z8EL.:Z8A6TSI                      SAT 08/09/97 12:20 Page:624
     2805     9668    2       CALC_MAX_TOKEN_LENGTH : PROC;
     2806     9669
     2807     9670    3         CUMM_LINE_PTR$ = ADDR(NIL);
     2808     9671    3         CALL Z8EL$POSITION_LINE_LIST (REP_BEG_LINE,
     2809     9672    3                                       CUMM_LINE_PTR$,
     2810     9673    3                                       999999999);
     2811     9674
     2812     9675              /* Calculate blank space on line */
     2813     9676
     2814     9677    3         CALL SEARCH ( NON_BLANK_COL,
     2815     9678    3                       CHAR_CLASS,
     2816     9679    3                       BLANK_SCAN_TABLE,
     2817     9680    3                       SUBSTR(CUMM_LINE_PTR$ -> FILL_BUFFER.SOURCE_LINE,
     2818     9681    3                              0,
     2819     9682    3                              MINIMUM(O1COM.MARGIN_R, CUMM_LINE_PTR$ -> FILL_BUFFER.
              9682                                       LINE_LENGTH)),
     2820     9683    3                        REP_BEG_COLUMN);
     2821     9684
     2822     9685    3         IF CHAR_CLASS = %END_OF_LINE THEN
     2823     9686    3           MAX_TOKEN_LENGTH = O1COM.MARGIN_R - REP_BEG_COLUMN;
     2824     9687    3         ELSE
     2825     9688    3           MAX_TOKEN_LENGTH = NON_BLANK_COL - REP_BEG_COLUMN - 1;
     2826     9689
     2827     9690    3       END CALC_MAX_TOKEN_LENGTH ;
     2828     9691
     2829     9692        %EJECT;
PL6.E3A0      #018=Z8EL$POSSIBLE_REPLACE File=Z8EL.:Z8A6TSI                      SAT 08/09/97 12:20 Page:625
     2830     9693    2       DO_STRAIGHT_IN_LINE_REPLACE: PROC (ADD_BLANKS);
     2831     9694
     2832     9695    3         DCL  ADD_BLANKS    SBIN WORD;
     2833     9696
     2834     9697    3         SUBSTR(CUMM_LINE_PTR$ -> FILL_BUFFER.SOURCE_LINE,
     2835     9698    3                REP_BEG_COLUMN + ADD_BLANKS,
     2836     9699    3                REPLACE$ -> REPLACE_ITEM.TO_LIST$ -> BASED_LEX_SYMBOL.SIZE)
     2837     9700    3            = REPLACE$ -> REPLACE_ITEM.TO_LIST$ -> BASED_LEX_SYMBOL.SYMBOL;
     2838     9701
     2839     9702    3         CUMM_LINE_PTR$ -> FILL_BUFFER.LINE_LENGTH =
     2840     9703    3               MAXIMUM (CUMM_LINE_PTR$ -> FILL_BUFFER.LINE_LENGTH,
     2841     9704    3                        REP_BEG_COLUMN + REPLACE$ -> REPLACE_ITEM.TO_LIST$
     2842     9705    3                                            -> BASED_LEX_SYMBOL.SIZE);
     2843     9706
     2844     9707    3         CALL INSERT_TOKEN (REPLACE$ -> REPLACE_ITEM.TO_LIST$,
     2845     9708    3                            CUMM_LINE_PTR$ -> FILL_BUFFER.ISN,
     2846     9709    3                            REP_BEG_COLUMN);
     2847     9710
     2848     9711    3       END DO_STRAIGHT_IN_LINE_REPLACE;
     2849     9712
     2850     9713        %EJECT;
PL6.E3A0      #018=Z8EL$POSSIBLE_REPLACE File=Z8EL.:Z8A6TSI                      SAT 08/09/97 12:20 Page:626
     2851     9714            /* DO_REPLACE main body */
     2852     9715
     2853     9716            /* Save info from first token being deleted */
     2854     9717
     2855     9718    2       REP_BEG_LINE = LEX_SYMBOL_QUEUE$ -> BASED_LEX_SYMBOL.LINE;
     2856     9719    2       REP_BEG_COLUMN = LEX_SYMBOL_QUEUE$ -> BASED_LEX_SYMBOL.COLUMN;
     2857     9720    2       REP_DEBUG_LINE = LEX_SYMBOL_QUEUE$ -> BASED_LEX_SYMBOL.B.DEBUG_TOKEN;
     2858     9721
     2859     9722            /* Clear Scanner from RESTART_STATE */
     2860     9723    2       IF SCANNER_STATE ~= 0 THEN
     2861     9724    3         DO;
     2862     9725    3           LEX$ = LEX_SYMBOL_QUEUE$;
     2863     9726
     2864     9727    4           DO WHILE LEX$ -> BASED_LEX_SYMBOL.NEXT$ ~= ADDR(NIL);
     2865     9728
     2866     9729    4             LEX$ = LEX$ -> BASED_LEX_SYMBOL.NEXT$;
     2867     9730    4           END;
     2868     9731
     2869     9732    4           DO UNTIL SCANNER_STATE = 0;
     2870     9733
     2871     9734                  %GET_BRAND_NEW_TOKEN;
     2872     9743
     2873     9744                  %COPY_TO_NEW_LEX_SYMBOL (FROM$ = "ADDR(LEX_SYMBOL)",
     2874     9745                                           TO$   = HEAP$);
     2875     9760
     2876     9761    4             LEX$ -> BASED_LEX_SYMBOL.NEXT$ = HEAP$;
     2877     9762    4             LEX$ = HEAP$;
     2878     9763    4           END;
     2879     9764    3         END;
     2880     9765
     2881     9766
     2882     9767            /* Delete matched tokens */
     2883     9768    2       MATCH$ = REPLACE$ -> REPLACE_ITEM.FROM_LIST$;
     2884     9769
     2885     9770    3       DO UNTIL MATCH$ = ADDR(NIL);
     2886     9771
     2887     9772    3         LEX$ = LEX_SYMBOL_QUEUE$;
PL6.E3A0      #018=Z8EL$POSSIBLE_REPLACE File=Z8EL.:Z8A6TSI                      SAT 08/09/97 12:20 Page:627
     2888     9773    3         REP_END_LINE = LEX$ -> BASED_LEX_SYMBOL.END_LINE;
     2889     9774    3         REP_END_COLUMN = LEX$ -> BASED_LEX_SYMBOL.END_COLUMN;
     2890     9775    3         LEX_SYMBOL_QUEUE$ = LEX_SYMBOL_QUEUE$ -> BASED_LEX_SYMBOL.NEXT$;
     2891     9776
     2892     9777    3         CALL Z8ED$DISPOSE_HEAP(LEX$,
     2893     9778                                        %LEX_SYMBOL_ACTUAL_WORD_LEN(S$=LEX$);
     2894     9781    3                                  );
     2895     9782    3         MATCH$ = MATCH$ -> BASED_LEX_SYMBOL.NEXT$;
     2896     9783
     2897     9784    3       END;
     2898     9785
     2899     9786
     2900     9787            /* Delete  matched lines for listing */
     2901     9788
     2902     9789    2       CUMM_LINE_PTR$ = ADDR(NIL);
     2903     9790    2       CALL Z8EL$POSITION_LINE_LIST ( REP_BEG_LINE,
     2904     9791    2                                      CUMM_LINE_PTR$,
     2905     9792    2                                      999999999);
     2906     9793    2       OLD_LINE$ = CUMM_LINE_PTR$;
     2907     9794
     2908     9795            /* Check for pseudo text in-line replacement --           */
     2909     9796            /* (1) TO is one token within pseudo text                 */
     2910     9797            /* (2) TO starting column is in area B (cc 12 - 72)       */
     2911     9798            /* (3) the new line will not go beyond cc 72              */
     2912     9799
     2913     9800    2       TO_LIST$ = REPLACE$ -> REPLACE_ITEM.TO_LIST$;
     2914     9801
     2915     9802    2       IF  (TO_LIST$ = ADDR (NIL)
     2916     9803    2            OR   TO_LIST$ -> BASED_LEX_SYMBOL.NEXT$ = ADDR (NIL)
     2917     9804    2            AND  TO_LIST$ -> BASED_LEX_SYMBOL.COLUMN >= 12)
     2918     9805    2       AND REPLACE$ -> REPLACE_ITEM.TO_IS_PSEUDO_TEXT
     2919     9806    2       AND REPLACE$ -> REPLACE_ITEM.FROM_IS_PSEUDO_TEXT
     2920     9807    2       AND CUMM_LINE_PTR$ ~= ADDR(NIL)
     2921     9808    2       AND REP_BEG_LINE = REP_END_LINE THEN
     2922     9809    3         DO;
     2923     9810                /* Check item (3) above: new line <= 72 bytes */
     2924     9811
PL6.E3A0      #018=Z8EL$POSSIBLE_REPLACE File=Z8EL.:Z8A6TSI                      SAT 08/09/97 12:20 Page:628
     2925     9812    3           CALL DUP_FOR_REP (CUMM_LINE_PTR$, CUMM_LINE_OFFSET);
     2926     9813    3           REP_BEG_LINE = REP_BEG_LINE + CUMM_LINE_OFFSET;
     2927     9814    3           REP_END_LINE = REP_END_LINE + CUMM_LINE_OFFSET;
     2928     9815    3           REP_SIZE = REP_END_COLUMN - REP_BEG_COLUMN;
     2929     9816    3           SUBSTR(CUMM_LINE_PTR$ -> FILL_BUFFER.SOURCE_LINE,
     2930     9817    3                  REP_BEG_COLUMN,
     2931     9818    3                  REP_SIZE) = ' ';
     2932     9819
     2933     9820    3           CALL CALC_MAX_TOKEN_LENGTH;
     2934     9821
     2935     9822    3           IF TO_LIST$ ~= ADDR (NIL)
     2936     9823    3           AND REP_SIZE ~= TO_LIST$ -> BASED_LEX_SYMBOL.SIZE THEN
     2937     9824    3             SHIFT_RIGHT = TO_LIST$ -> BASED_LEX_SYMBOL.SIZE - REP_SIZE;
     2938     9825    3           ELSE
     2939     9826    3             SHIFT_RIGHT = 0;
     2940     9827
     2941     9828    3           IF  CUMM_LINE_PTR$ -> FILL_BUFFER.LINE_LENGTH + SHIFT_RIGHT <= 72
     2942     9829    3           AND ((TO_LIST$ = ADDR (NIL)
     2943     9830    3                 AND BUFFER.CLASS ~= %SPACE)
     2944     9831    3              OR TO_LIST$ ~= ADDR (NIL)
     2945     9832    3                 AND (TO_LIST$ -> BASED_LEX_SYMBOL.TYPE = %USER_WORD
     2946     9833    3                      OR TO_LIST$ -> BASED_LEX_SYMBOL.TYPE = %NUMBER
     2947     9834    3                      OR TO_LIST$ -> BASED_LEX_SYMBOL.TYPE = %NUMERIC_LITERAL
     2948     9835    3                      OR SUBSTR (TO_LIST$ -> BASED_LEX_SYMBOL.SYMBOL, 0, 1) = '-' ))
              9835                               THEN
     2949     9836    4             DO;
     2950     9837
     2951     9838                    /* Check for combining tokens      */
     2952     9839                    /* e.g., (*)-FIELD1 ==> XYZ-FIELD1 */
     2953     9840                    /*       ---            ---        */
     2954     9841
     2955     9842    4               NEXT$ = LEX_SYMBOL_QUEUE$;
     2956     9843
     2957     9844    4               IF NEXT$ = ADDR(NIL) THEN
     2958     9845    5                 DO;
     2959     9846                        %GET_BRAND_NEW_TOKEN;
     2960     9855    5                   IF  LEX_SYMBOL.SIZE = 4
PL6.E3A0      #018=Z8EL$POSSIBLE_REPLACE File=Z8EL.:Z8A6TSI                      SAT 08/09/97 12:20 Page:629
     2961     9856    5                   AND SUBSTR (LEX_SYMBOL.SYMBOL, 0, 4) = 'COPY' THEN
     2962     9857    6                     DO;
     2963     9858    6                       IF TO_LIST$ ~= ADDR (NIL)
     2964     9859    6                         THEN CALL DO_STRAIGHT_IN_LINE_REPLACE (0);
     2965     9860    6                         ELSE CALL Z8EL$PROCESS_COPY;
     2966     9861    6                       RETURN;
     2967     9862    6                     END;
     2968     9863                        %COPY_TO_NEW_LEX_SYMBOL(FROM$="ADDR(LEX_SYMBOL)",
     2969     9864                                                TO$ = NEXT$);
     2970     9879    5                 END; /* If NEXT$ = null */
     2971     9880
     2972     9881    4               IF SHIFT_RIGHT > 0 THEN
     2973     9882    5                 DO;
     2974     9883    5                   SUBSTR (TEMP_CHAR60, 0, SHIFT_RIGHT) = ' ';
     2975     9884    5                   SUBSTR (TEMP_CHAR60, SHIFT_RIGHT, 60 - SHIFT_RIGHT)
     2976     9885    5                     = SUBSTR (CUMM_LINE_PTR$ -> FILL_BUFFER.SOURCE_LINE,
              9885                              REP_END_COLUMN, 60) ;
     2977     9886    5                   SUBSTR (CUMM_LINE_PTR$ -> FILL_BUFFER.SOURCE_LINE,
     2978     9887    5                           REP_END_COLUMN,
     2979     9888    5                           72 - REP_END_COLUMN)
     2980     9889    5                     = TEMP_CHAR60;
     2981     9890    5                   CUMM_LINE_PTR$ -> FILL_BUFFER.LINE_LENGTH =
     2982     9891    5                     CUMM_LINE_PTR$ -> FILL_BUFFER.LINE_LENGTH + SHIFT_RIGHT;
     2983     9892
     2984     9893                        /* Update the Scanner's Buffer, Length & Column */
     2985     9894
     2986     9895    5                   SUBSTR (TEMP_CHAR60, SHIFT_RIGHT, 60 - SHIFT_RIGHT)
     2987     9896    5                     = SUBSTR (BUFFER_LINE, BUFFER.COLUMN, 60);
     2988     9897    5                   SUBSTR (BUFFER_LINE, BUFFER.COLUMN, 72 - BUFFER.COLUMN)
     2989     9898    5                     = TEMP_CHAR60;
     2990     9899    5                   BUFFER.LINE_LENGTH = BUFFER.LINE_LENGTH
     2991     9900    5                     + SHIFT_RIGHT;
     2992     9901    5                   BUFFER.COLUMN = BUFFER.COLUMN + SHIFT_RIGHT ;
     2993     9902    5                 END; /* Shift_Right non-zero */
     2994     9903    4               ELSE IF SHIFT_RIGHT < 0 THEN
     2995     9904    5                 DO;
     2996     9905    5                   TEMP_CHAR1 = SUBSTR (CURRENT_BUFFER$ -> FILL_BUFFER.SOURCE_LINE,
PL6.E3A0      #018=Z8EL$POSSIBLE_REPLACE File=Z8EL.:Z8A6TSI                      SAT 08/09/97 12:20 Page:630
     2997     9906    5                       NEXT$ -> BASED_LEX_SYMBOL.COLUMN - REP_SIZE - 1, 1);
     2998     9907    5                   IF USERWORD_SCAN_TABLE.T (TEMP_SBIN) = %SCAN THEN
     2999     9908    6                     DO;
     3000     9909    6                       SUBSTR (CURRENT_BUFFER$ -> FILL_BUFFER.SOURCE_LINE,
     3001     9910    6                           NEXT$ -> BASED_LEX_SYMBOL.COLUMN - REP_SIZE) =
     3002     9911    6                           SUBSTR (CURRENT_BUFFER$ -> FILL_BUFFER.SOURCE_LINE,
     3003     9912    6                           NEXT$ -> BASED_LEX_SYMBOL.COLUMN - TO_LIST$ ->
              9912                                    BASED_LEX_SYMBOL.SIZE);
     3004     9913    6                       SUBSTR (BUFFER_LINE, NEXT$ -> BASED_LEX_SYMBOL.COLUMN - REP_SIZE
              9913                                ) =
     3005     9914    6                           SUBSTR (BUFFER_LINE, NEXT$ -> BASED_LEX_SYMBOL.COLUMN -
              9914                                    TO_LIST$ -> BASED_LEX_SYMBOL.SIZE);
     3006     9915    6                     END;
     3007     9916    5                   ELSE
     3008     9917    5                     SHIFT_RIGHT = 0;
     3009     9918    5                 END;
     3010     9919
     3011     9920    4               IF  REP_END_COLUMN
     3012     9921    4                   = NEXT$ -> BASED_LEX_SYMBOL.COLUMN
     3013     9922    4               AND REP_BEG_LINE = NEXT$ -> BASED_LEX_SYMBOL.LINE
     3014     9923    4               AND ( NEXT$ -> BASED_LEX_SYMBOL.TYPE = %USER_WORD
     3015     9924    4                  OR NEXT$ -> BASED_LEX_SYMBOL.TYPE = %NUMBER
     3016     9925    4                  OR NEXT$ -> BASED_LEX_SYMBOL.TYPE = %NUMERIC_LITERAL
     3017     9926    4                  OR SUBSTR (NEXT$ -> BASED_LEX_SYMBOL.SYMBOL, 0, 1) = '-' ) THEN
     3018     9927    5                 DO;
     3019     9928
     3020     9929    5                   IF TO_LIST$ = ADDR (NIL) THEN
     3021     9930    6                     DO;
     3022     9931    6                       TEMP_CHAR1 = SUBSTR (CURRENT_BUFFER$ -> FILL_BUFFER.SOURCE_LINE,
     3023     9932    6                                     NEXT$ -> BASED_LEX_SYMBOL.COLUMN - REP_SIZE - 1, 1
              9932                                              );
     3024     9933    6                       IF USERWORD_SCAN_TABLE.T (TEMP_SBIN) = %SCAN THEN
     3025     9934    7                         DO;
     3026     9935    7                           SUBSTR (CURRENT_BUFFER$ -> FILL_BUFFER.SOURCE_LINE,
     3027     9936    7                                   NEXT$ -> BASED_LEX_SYMBOL.COLUMN - REP_SIZE) =
     3028     9937    7                               SUBSTR (CURRENT_BUFFER$ -> FILL_BUFFER.SOURCE_LINE,
     3029     9938    7                                       NEXT$ -> BASED_LEX_SYMBOL.COLUMN);
PL6.E3A0      #018=Z8EL$POSSIBLE_REPLACE File=Z8EL.:Z8A6TSI                      SAT 08/09/97 12:20 Page:631
     3030     9939    7                           SUBSTR (BUFFER_LINE, NEXT$ -> BASED_LEX_SYMBOL.COLUMN -
              9939                                    REP_SIZE) =
     3031     9940    7                               SUBSTR (BUFFER_LINE, NEXT$ -> BASED_LEX_SYMBOL.COLUMN);
     3032     9941    7                         END;
     3033     9942    6                       LEX_SYMBOL_QUEUE$ = NEXT$;
     3034     9943
     3035     9944    6                       RETURN;
     3036     9945
     3037     9946    6                     END;
     3038     9947    5                   BLANK_SPACE = REP_SIZE - TO_LIST$ -> BASED_LEX_SYMBOL.SIZE;
     3039     9948    5                   CALL DO_STRAIGHT_IN_LINE_REPLACE (BLANK_SPACE + SHIFT_RIGHT);
     3040     9949    5                   LEX$ = LEX_SYMBOL_QUEUE$;
     3041     9950    5                   SAVE_SIZE = LEX$ -> BASED_LEX_SYMBOL.SIZE;
     3042     9951    5                   LEX$ -> BASED_LEX_SYMBOL.SIZE
     3043     9952    5                     = LEX$ -> BASED_LEX_SYMBOL.SIZE
     3044     9953    5                     + NEXT$ -> BASED_LEX_SYMBOL.SIZE ;
     3045     9954
     3046     9955                        %COPY_TO_NEW_LEX_SYMBOL (FROM$ = LEX$,
     3047     9956                                                 TO$   = NEW$);
     3048     9971
     3049     9972    5                   SUBSTR (NEW$ -> BASED_LEX_SYMBOL.SYMBOL,
     3050     9973    5                           SAVE_SIZE,
     3051     9974    5                           NEXT$ -> BASED_LEX_SYMBOL.SIZE)
     3052     9975    5                     = NEXT$ -> BASED_LEX_SYMBOL.SYMBOL;
     3053     9976
     3054     9977    5                   LEX$ -> BASED_LEX_SYMBOL.SIZE = SAVE_SIZE;
     3055     9978    5                   LEX_SYMBOL_QUEUE$ = NEW$;
     3056     9979    5                   NEW$ -> BASED_LEX_SYMBOL.NEXT$
     3057     9980    5                     = NEXT$ -> BASED_LEX_SYMBOL.NEXT$;
     3058     9981
     3059     9982                        /* DISPOSE of LEX$ and NEXT$ tokens. */
     3060     9983
     3061     9984    5                   CALL Z8ED$DISPOSE_HEAP(LEX$,
     3062     9985                                %LEX_SYMBOL_ACTUAL_WORD_LEN(S$=LEX$);
     3063     9988    5                          );
     3064     9989    5                   CALL Z8ED$DISPOSE_HEAP(NEXT$,
     3065     9990                                %LEX_SYMBOL_ACTUAL_WORD_LEN(S$=NEXT$);
PL6.E3A0      #018=Z8EL$POSSIBLE_REPLACE File=Z8EL.:Z8A6TSI                      SAT 08/09/97 12:20 Page:632
     3066     9993    5                          );
     3067     9994
     3068     9995    5                   RETURN;
     3069     9996
     3070     9997    5                 END; /* If LEX$_end_column + 1 = NEXT$_column */
     3071     9998    4               ELSE
     3072     9999    5                 DO;
     3073    10000    5                   LEX_SYMBOL_QUEUE$ = NEXT$;
     3074    10001    5                   IF TO_LIST$ ~= ADDR (NIL) THEN
     3075    10002    5                     CALL DO_STRAIGHT_IN_LINE_REPLACE (0);
     3076    10003    5                   RETURN;
     3077    10004    5                 END;
     3078    10005    4             END; /* If Max_Token_Length >= Replacement symbol size */
     3079    10006    3         END; /* If NEXT$ = null & "TO" is area B & ==from== BY ==to== */
     3080    10007
     3081    10008    2       IF CUMM_LINE_PTR$ ~= ADDR(NIL) THEN
     3082    10009    3         DO;
     3083    10010    3           IF REP_BEG_LINE = REP_END_LINE THEN
     3084    10011    4             DO;
     3085    10012    4               CALL DUP_FOR_REP (CUMM_LINE_PTR$, CUMM_LINE_OFFSET);
     3086    10013    4               REP_BEG_LINE = REP_BEG_LINE + CUMM_LINE_OFFSET;
     3087    10014    4               REP_END_LINE = REP_END_LINE + CUMM_LINE_OFFSET;
     3088    10015    4               SUBSTR(CUMM_LINE_PTR$ -> FILL_BUFFER.SOURCE_LINE,
     3089    10016    4                      REP_BEG_COLUMN,
     3090    10017    4                      REP_END_COLUMN - REP_BEG_COLUMN) = ' ';
     3091    10018    4             END;
     3092    10019    3           ELSE
     3093    10020    4             DO;
     3094    10021    4               CALL DUP_FOR_REP (CUMM_LINE_PTR$, CUMM_LINE_OFFSET);
     3095    10022    4               REP_BEG_LINE = REP_BEG_LINE + CUMM_LINE_OFFSET;
     3096    10023    4               REP_END_LINE = REP_END_LINE + CUMM_LINE_OFFSET;
     3097    10024
     3098    10025
     3099    10026    4               SUBSTR(CUMM_LINE_PTR$ -> FILL_BUFFER.SOURCE_LINE,
     3100    10027    4                      REP_BEG_COLUMN,
     3101    10028    4                      MINIMUM (O1COM.MARGIN_R, CUMM_LINE_PTR$ -> FILL_BUFFER.
             10028                               LINE_LENGTH)
PL6.E3A0      #018=Z8EL$POSSIBLE_REPLACE File=Z8EL.:Z8A6TSI                      SAT 08/09/97 12:20 Page:633
     3102    10029    4                          - REP_BEG_COLUMN) = ' ';
     3103    10030
     3104    10031    4                L$ = CUMM_LINE_PTR$;
     3105    10032
     3106    10033    5                DO WHILE L$ ~= ADDR(NIL)
     3107    10034    5                     AND L$ -> FILL_BUFFER.NEXT$ ~= ADDR(NIL)
     3108    10035    5                     AND L$ -> FILL_BUFFER.NEXT$ -> FILL_BUFFER.ISN < REP_END_LINE;
     3109    10036
     3110    10037    5                  IF L$ -> FILL_BUFFER.NEXT$ -> FILL_BUFFER.LINE_TYPE.NEW_REP_LINE THEN
     3111    10038    6                    DO;
     3112    10039    6                      TL$ = L$ -> FILL_BUFFER.NEXT$;
     3113    10040    6                      L$ -> FILL_BUFFER.NEXT$ = TL$ -> FILL_BUFFER.NEXT$;
     3114    10041    6                      CALL Z8ED$DISPOSE_HEAP (TL$,
     3115    10042    6                                              %MAX_INPUT_BUFFER_LEN);
     3116    10043    6                    END;
     3117    10044    5                  ELSE
     3118    10045    6                    DO;
     3119    10046    6                      IF NOT L$ -> FILL_BUFFER.NEXT$ -> FILL_BUFFER.LINE_TYPE.
             10046                               OLD_REP_LINE THEN
     3120    10047    6                        L$ -> FILL_BUFFER.NEXT$ -> FILL_BUFFER.LINE_TYPE.OLD_REP_LINE =
             10047                                 TRUE;
     3121    10048
     3122    10049    6                      L$ = L$ -> FILL_BUFFER.NEXT$;
     3123    10050    6                    END;
     3124    10051
     3125    10052    5                END;  /* DO WHILE */
     3126    10053
     3127    10054    4                CALL Z8EL$POSITION_LINE_LIST (REP_END_LINE,
     3128    10055    4                                              L$,
     3129    10056    4                                              999999999);
     3130    10057
     3131    10058    4                IF L$ ~= ADDR(NIL) THEN
     3132    10059    5                  DO;
     3133    10060    5                    CALL DUP_FOR_REP (L$, CUMM_LINE_OFFSET);
     3134    10061    5                    REP_END_LINE = REP_END_LINE + CUMM_LINE_OFFSET;
     3135    10062    5                    SUBSTR(L$ -> FILL_BUFFER.SOURCE_LINE,
     3136    10063    5                           O1COM.AREA_A_COLUMN_START - 1,
PL6.E3A0      #018=Z8EL$POSSIBLE_REPLACE File=Z8EL.:Z8A6TSI                      SAT 08/09/97 12:20 Page:634
     3137    10064    5                           REP_END_COLUMN - (O1COM.AREA_A_COLUMN_START - 1)) = ' ';
     3138    10065    5                  END;
     3139    10066    4              END;
     3140    10067    3         END;
     3141    10068
     3142    10069
     3143    10070    2       IF REPLACE$ -> REPLACE_ITEM.TO_IS_PSEUDO_TEXT THEN
     3144    10071    3         DO;
     3145    10072    3           IF REPLACE$ -> REPLACE_ITEM.TO_PSEUDO_TEXT_LINES$ ~= ADDR(NIL) THEN
     3146    10073    4             DO;
     3147    10074    4               CALL SPLIT_LINE (REP_BEG_LINE,
     3148    10075    4                                REP_BEG_COLUMN,
     3149    10076    4                                CUMM_LINE_PTR$);
     3150    10077    4               TISN = CUMM_LINE_PTR$ -> FILL_BUFFER.ISN;
     3151    10078    4               ISN_INC = 0;
     3152    10079    4               L$ = REPLACE$ -> REPLACE_ITEM.TO_PSEUDO_TEXT_LINES$;
     3153    10080    4               ISN_BASE = L$ -> FILL_BUFFER.ISN;
     3154    10081
     3155    10082    5               DO WHILE (L$ ~= ADDR(NIL)
     3156    10083    5                         AND (L$ -> FILL_BUFFER.NEXT$ ~= ADDR(NIL)
     3157    10084    5                              OR SUBSTR (CUMM_LINE_PTR$ -> FILL_BUFFER.NEXT$ ->
     3158    10085    5                                             FILL_BUFFER.SOURCE_LINE,
     3159    10086    5                                         O1COM.AREA_A_COLUMN_START,
     3160    10087    5                                         L$ -> FILL_BUFFER.LINE_LENGTH -
     3161    10088    5                                             O1COM.AREA_A_COLUMN_START) ~= ' '
     3162    10089    5                              OR NOT CUMM_LINE_PTR$ -> FILL_BUFFER.NEXT$ -> FILL_BUFFER
             10089                                       .LINE_TYPE.NEW_REP_LINE));
     3163    10090    5                 ISN_INC = ISN_INC + 1;
     3164    10091
     3165    10092                      %NEW_HEAP (@POINTER = TL$,
     3166    10093                                 @SIZE = %MAX_INPUT_BUFFER_LEN);
     3167    10098
     3168    10099    5                 TL$ -> FILL_BUFFER.LINE_LENGTH = L$ -> FILL_BUFFER.LINE_LENGTH;
     3169    10100    5                 TL$ -> FILL_BUFFER = L$ -> FILL_BUFFER;
     3170    10101    5                 IF OLD_LINE$ -> FILL_BUFFER.LINE_TYPE.DEBUG_LINE THEN
     3171    10102    6                   DO;
     3172    10103    6                     TL$ -> FILL_BUFFER.LINE_TYPE.DEBUG_LINE = TRUE;
PL6.E3A0      #018=Z8EL$POSSIBLE_REPLACE File=Z8EL.:Z8A6TSI                      SAT 08/09/97 12:20 Page:635
     3173    10104    6                     CALL INSERT (TL$ -> FILL_BUFFER.SOURCE_LINE,
     3174    10105    6                                  O1COM.AREA_A_COLUMN_START - 1,
     3175    10106    6                                  1,
     3176    10107    6                                  'D');
     3177    10108    6                   END;
     3178    10109    5                 TL$ -> FILL_BUFFER.LINE_TYPE.NEW_REP_LINE = TRUE;
     3179    10110    5                 TL$ -> FILL_BUFFER.LINE_TYPE.COPY_REPL_LINE = FALSE;
     3180    10111    5                 TL$ -> FILL_BUFFER.ISN = TISN + ISN_INC;
     3181    10112    5                 TL$ -> FILL_BUFFER.NEXT$ = CUMM_LINE_PTR$ -> FILL_BUFFER.NEXT$;
     3182    10113    5                 TL$ -> FILL_BUFFER.ESN = ' ';
     3183    10114    5                 TL$ -> FILL_BUFFER.LEVEL = CUMM_LINE_PTR$ -> FILL_BUFFER.LEVEL;
     3184    10115    5                 CUMM_LINE_PTR$ -> FILL_BUFFER.NEXT$ = TL$;
     3185    10116
     3186    10117    5                 IF CUMM_LINE_PTR$ = CURRENT_BUFFER$ THEN
     3187    10118    6                   DO;
     3188    10119    6                     CURRENT_BUFFER$ = TL$;
     3189    10120    6                     EXPANDED_ISN = EXPANDED_ISN + 1;
     3190    10121    6                     BUFFER.ISN = EXPANDED_ISN;
     3191    10122    6                   END;
     3192    10123
     3193    10124    5                 CUMM_LINE_PTR$ = TL$;
     3194    10125    5                 L$ = L$ -> FILL_BUFFER.NEXT$;
     3195    10126    5               END;
     3196    10127
     3197    10128    4               IF L$ ~= ADDR(NIL) THEN
     3198    10129    5                 DO;
     3199    10130    5                   CALL INSERT (CUMM_LINE_PTR$ -> FILL_BUFFER.NEXT$ ->
     3200    10131    5                                    FILL_BUFFER.SOURCE_LINE,
     3201    10132    5                                0,
     3202    10133    5                                L$ -> FILL_BUFFER.LINE_LENGTH,
     3203    10134    5                                L$ -> FILL_BUFFER.SOURCE_LINE);
     3204    10135    5                   IF CUMM_LINE_PTR$ -> FILL_BUFFER.NEXT$ -> FILL_BUFFER.LINE_TYPE.
             10135                            DEBUG_LINE THEN
     3205    10136    5                     CALL INSERT (CUMM_LINE_PTR$ -> FILL_BUFFER.NEXT$ ->
     3206    10137    5                                      FILL_BUFFER.SOURCE_LINE,
     3207    10138    5                                  O1COM.AREA_A_COLUMN_START - 1, 1, 'D');
     3208    10139    5                   CUMM_LINE_PTR$ -> FILL_BUFFER.NEXT$ -> FILL_BUFFER.FLAGS =
PL6.E3A0      #018=Z8EL$POSSIBLE_REPLACE File=Z8EL.:Z8A6TSI                      SAT 08/09/97 12:20 Page:636
     3209    10140    5                       CUMM_LINE_PTR$ -> FILL_BUFFER.NEXT$ -> FILL_BUFFER.FLAGS
     3210    10141    5                       | L$ -> FILL_BUFFER.FLAGS;
     3211    10142    5                   CUMM_LINE_PTR$ -> FILL_BUFFER.NEXT$ -> FILL_BUFFER.LINE_TYPE.
             10142                            COPY_REPL_LINE = FALSE;
     3212    10143    5                   IF L$ -> FILL_BUFFER.LINE_TYPE.NULL_COMMENT_LINE OR
     3213    10144    5                       (L$ -> FILL_BUFFER.LINE_TYPE.DEBUG_LINE AND
     3214    10145    5                        NOT O1COM.DEBUGGING_MODE) THEN
     3215    10146    5                     BUFFER.CLASS = %END_OF_LINE;
     3216    10147    5                 END;
     3217    10148
     3218    10149    4               CALL ADJUST_ISN (ISN_INC,
     3219    10150    4                                CUMM_LINE_PTR$ -> FILL_BUFFER.NEXT$);
     3220    10151
     3221    10152                    /* Insert new tokens */
     3222    10153
     3223    10154    4               MATCH$ = REPLACE$ -> REPLACE_ITEM.TO_LIST$;
     3224    10155
     3225    10156    4               IF MATCH$ ~= ADDR(NIL) THEN
     3226    10157    5                 DO;
     3227    10158    5                   LEX$ = ADDR(LEX_SYMBOL);
     3228    10159
     3229    10160    6                   DO UNTIL MATCH$ = ADDR(NIL);
     3230    10161
     3231    10162    6                     IF NOT MATCH$ -> BASED_LEX_SYMBOL.B.COMMENT_TOKEN AND
     3232    10163    6                         (O1COM.DEBUGGING_MODE OR
     3233    10164    6                          NOT MATCH$ -> BASED_LEX_SYMBOL.B.DEBUG_TOKEN) THEN
     3234    10165    7                       DO;
     3235    10166                              %COPY_TO_NEW_LEX_SYMBOL(FROM$=MATCH$, TO$=TL$);
     3236    10181    7                         LEX$ -> BASED_LEX_SYMBOL.NEXT$ = TL$;
     3237    10182    7                         IF CUMM_LINE_PTR$ -> FILL_BUFFER.LINE_TYPE.DEBUG_LINE THEN
     3238    10183    7                           TL$ -> BASED_LEX_SYMBOL.B.DEBUG_TOKEN = TRUE;
     3239    10184    7                         TL$ -> BASED_LEX_SYMBOL.LEVEL
     3240    10185    7                              = REPLACE$ -> REPLACE_ITEM.LEVEL - 1;
     3241    10186    7                         TL$ -> BASED_LEX_SYMBOL.LINE =
     3242    10187    7                            (TL$ -> BASED_LEX_SYMBOL.LINE - ISN_BASE) + TISN + 1;
     3243    10188    7                         TL$ -> BASED_LEX_SYMBOL.END_LINE =
     3244    10189    7                            (TL$ -> BASED_LEX_SYMBOL.END_LINE - ISN_BASE) + TISN + 1;
PL6.E3A0      #018=Z8EL$POSSIBLE_REPLACE File=Z8EL.:Z8A6TSI                      SAT 08/09/97 12:20 Page:637
     3245    10190    7                         TL$ -> BASED_LEX_SYMBOL.B.REPLACED_TOKEN = TRUE;
     3246    10191    7                         LEX$ = TL$;
     3247    10192    7                       END;
     3248    10193    6                     MATCH$ = MATCH$ -> BASED_LEX_SYMBOL.NEXT$;
     3249    10194
     3250    10195    6                   END;  /* DO UNTIL */
     3251    10196
     3252    10197    5                   LEX$ -> BASED_LEX_SYMBOL.NEXT$ = LEX_SYMBOL_QUEUE$;
     3253    10198    5                   LEX_SYMBOL_QUEUE$ = LEX_SYMBOL.NEXT$;
     3254    10199    5                 END;
     3255    10200    4             END;
     3256    10201    3         END;
     3257    10202    2       ELSE
     3258    10203    3         DO;
     3259    10204                /* Do a single token replace (non pseudo text) */
     3260    10205
     3261    10206    3           CALL CALC_MAX_TOKEN_LENGTH;
     3262    10207
     3263    10208    3           IF MAX_TOKEN_LENGTH < REPLACE$ -> REPLACE_ITEM.TO_LIST$ -> BASED_LEX_SYMBOL.
             10208                    SIZE THEN
     3264    10209    4             DO; /* Too Big -- at least two lines. */
     3265    10210    4               CALL SPLIT_LINE (REP_BEG_LINE,
     3266    10211    4                                REP_BEG_COLUMN,
     3267    10212    4                                CUMM_LINE_PTR$);
     3268    10213
     3269    10214                    %NEW_HEAP (@POINTER = TL$,
     3270    10215                               @SIZE = %MAX_INPUT_BUFFER_LEN);
     3271    10220
     3272    10221                    %INIT_BUFFER (@POINTER = TL$,
     3273    10222                                  @ISN = "CUMM_LINE_PTR$ -> FILL_BUFFER.ISN + 1",
     3274    10223                                  @NEXT$ = "CUMM_LINE_PTR$ -> FILL_BUFFER.NEXT$",
     3275    10224                                  @LEVEL = "CUMM_LINE_PTR$ -> FILL_BUFFER.LEVEL",
     3276    10225                                  @NEW_REP_LINE = TRUE,
     3277    10226                                  @LINE_LENGTH = O1COM.MARGIN_R,
     3278    10227                                  @SOURCE_LINE = ' ');
     3279    10255
     3280    10256    4               IF REP_DEBUG_LINE THEN
PL6.E3A0      #018=Z8EL$POSSIBLE_REPLACE File=Z8EL.:Z8A6TSI                      SAT 08/09/97 12:20 Page:638
     3281    10257    5                 DO;
     3282    10258    5                   TL$ -> FILL_BUFFER.LINE_TYPE.DEBUG_LINE = TRUE;
     3283    10259    5                   SUBSTR(TL$ -> FILL_BUFFER.SOURCE_LINE,
     3284    10260    5                          O1COM.AREA_A_COLUMN_START - 1,
     3285    10261    5                          1) = 'D';
     3286    10262    5                 END;
     3287    10263
     3288    10264    4               CUMM_LINE_PTR$ -> FILL_BUFFER.NEXT$ = TL$;
     3289    10265
     3290    10266    4               SUBSTR(TL$ -> FILL_BUFFER.SOURCE_LINE,
     3291    10267    4                      REP_BEG_COLUMN,
     3292    10268    4                      O1COM.MARGIN_R - REP_BEG_COLUMN)
     3293    10269    4                 = REPLACE$ -> REPLACE_ITEM.TO_LIST$ -> BASED_LEX_SYMBOL.SYMBOL;
     3294    10270
     3295    10271    4               IF  REPLACE$ -> REPLACE_ITEM.TO_LIST$ -> BASED_LEX_SYMBOL.SIZE
     3296    10272    4                     > O1COM.MARGIN_R - REP_BEG_COLUMN
     3297    10273    4               AND COMCOM.OB.FORMAT = FALSE THEN
     3298    10274    5                 DO;
     3299    10275                        /*N*
     3300    10276                           May want to expand this later to issue actual continuation
     3301    10277                           lines.
     3302    10278                        */
     3303    10279    5                   TL$ -> FILL_BUFFER.LINE_LENGTH = 75;
     3304    10280    5                   SUBSTR(TL$ -> FILL_BUFFER.SOURCE_LINE,
     3305    10281    5                          O1COM.MARGIN_R,
     3306    10282    5                          3) = '...';
     3307    10283    5                 END;
     3308    10284
     3309    10285    4               CALL ADJUST_ISN (1,
     3310    10286    4                                TL$ -> FILL_BUFFER.NEXT$);
     3311    10287
     3312    10288    4               CALL INSERT_TOKEN (REPLACE$ -> REPLACE_ITEM.TO_LIST$,
     3313    10289    4                                  TL$ -> FILL_BUFFER.ISN,
     3314    10290    4                                  REP_BEG_COLUMN);
     3315    10291    4             END;
     3316    10292    3           ELSE /* One line -- do straight in-line replacement */
     3317    10293    3             CALL DO_STRAIGHT_IN_LINE_REPLACE (0);
PL6.E3A0      #018=Z8EL$POSSIBLE_REPLACE File=Z8EL.:Z8A6TSI                      SAT 08/09/97 12:20 Page:639
     3318    10294
     3319    10295    3         END;
     3320    10296
     3321    10297    2     END DO_REPLACE;
     3322    10298
     3323    10299        %EJECT;
PL6.E3A0      #018=Z8EL$POSSIBLE_REPLACE File=Z8EL.:Z8A6TSI                      SAT 08/09/97 12:20 Page:640
     3324    10300    1   START_REPLACE_LEVEL : PROC ;
     3325    10301
     3326    10302
     3327    10303          /* Find a potential candidate for replacement */
     3328    10304
     3329    10305    2     REPLACE$ = REPLACE_LIST.LINK$;
     3330    10306
     3331    10307    3     DO WHILE REPLACE$ ~= ADDR(NIL)
     3332    10308    3                AND (REPLACE$ -> REPLACE_ITEM.LEVEL > LEX_SYMBOL_QUEUE$ ->
             10308                         BASED_LEX_SYMBOL.LEVEL
     3333    10309    3                        OR
     3334    10310    3                     REPLACE$ -> REPLACE_ITEM.FROM_LIST$ -> BASED_LEX_SYMBOL.SYMBOL
     3335    10311    3                        ~= LEX_SYMBOL_QUEUE$ -> BASED_LEX_SYMBOL.SYMBOL);
     3336    10312
     3337    10313    3       REPLACE$ = REPLACE$ -> REPLACE_ITEM.LINK$;
     3338    10314
     3339    10315    3     END;  /* DO WHILE */
     3340    10316
     3341    10317    2   END START_REPLACE_LEVEL;
     3342    10318
     3343    10319        %EJECT;
PL6.E3A0      #018=Z8EL$POSSIBLE_REPLACE File=Z8EL.:Z8A6TSI                      SAT 08/09/97 12:20 Page:641
     3344    10320        /* Main body of POSSIBLE_REPLACE */
     3345    10321
     3346    10322    1   SAVE_INHIBIT_DUMP_LINES = INHIBIT_DUMP_LINES;
     3347    10323    1   INHIBIT_DUMP_LINES = TRUE;
     3348    10324
     3349    10325    1   CALL START_REPLACE_LEVEL ;
     3350    10326
     3351    10327    1   IF REPLACE$ ~= ADDR(NIL) THEN
     3352    10328    2     DO;
     3353    10329    2       REPLACEMENT_FOUND = FALSE;
     3354    10330
     3355    10331    3       DO WHILE NOT REPLACEMENT_FOUND
     3356    10332    3                     AND REPLACE$ ~= ADDR(NIL);
     3357    10333
     3358    10334    3         IF REPLACE$ -> REPLACE_ITEM.LEVEL >= LOWEST_LEVEL THEN
     3359    10335    3           CALL MATCH_LISTS
     3360    10336    3             WHENRETURN
     3361    10337    4               DO;
     3362    10338    4                 IF REPLACEMENT_FOUND THEN
     3363    10339    4                   CALL DO_REPLACE;
     3364    10340    4                 ELSE
     3365    10341    4                   REPLACE$ = REPLACE$ -> REPLACE_ITEM.LINK$;
     3366    10342    4               END;
     3367    10343    3             WHENALTRETURN
     3368    10344    4               DO;
     3369    10345    4                 CALL START_REPLACE_LEVEL ;
     3370    10346    4               END;
     3371    10347    3         ELSE
     3372    10348    3           REPLACE$ = ADDR(NIL);
     3373    10349
     3374    10350    3       END;
     3375    10351
     3376    10352    2       IF REPLACEMENT_FOUND THEN
     3377    10353    3         DO;
     3378    10354    3           INHIBIT_DUMP_LINES = SAVE_INHIBIT_DUMP_LINES;
     3379    10355    3           RETURN;
     3380    10356    3         END;
PL6.E3A0      #018=Z8EL$POSSIBLE_REPLACE File=Z8EL.:Z8A6TSI                      SAT 08/09/97 12:20 Page:642
     3381    10357    2     END;
     3382    10358
     3383    10359    1   INHIBIT_DUMP_LINES = SAVE_INHIBIT_DUMP_LINES;
     3384    10360    1   ALTRETURN;  /* No replace was done */
     3385    10361
     3386    10362    1   END Z8EL$POSSIBLE_REPLACE;
     3387    10363
     3388    10364

PL6.E3A0      #018=Z8EL$POSSIBLE_REPLACE File=Z8EL.:Z8A6TSI                      SAT 08/09/97 12:20 Page:643
--  Include file information  --

   Z8E_O1COM.:Z8A6TOU  cannot be made into a system file and is referenced.
   Z8A_COMCOM.:Z8A6TOU  cannot be made into a system file and is referenced.
   Z8E_TABLES.:Z8A6TOU  cannot be made into a system file and is referenced.
   Z8E_BUFFERS.:Z8A6TOU  cannot be made into a system file and is referenced.
   Z8E_WINDOW.:Z8A6TOU  is referenced.
   Z8E_REPLACE.:Z8A6TOU  cannot be made into a system file and is referenced.
   Z8A_LEX_SYMB.:Z8A6TOU  cannot be made into a system file and is referenced.
   Z8E_STACKS.:Z8A6TOU  cannot be made into a system file and is referenced.
   Z8E_HEAP.:Z8A6TOU  cannot be made into a system file and is referenced.
   X8A_COM_MACS.:X8A6TOU  is referenced.
   Z8A_NAMES.:Z8A6TOU  is referenced.
   Z8A_SUPP_MAC.:Z8A6TOU  is referenced.
   Z8A_DEFC.:Z8A6TOU  cannot be made into a system file and is referenced.
      No diagnostics issued in procedure Z8EL$POSSIBLE_REPLACE.

   Procedure Z8EL$POSSIBLE_REPLACE requires 1644 words for executable code.
   Procedure Z8EL$POSSIBLE_REPLACE requires 72 words of local(AUTO) storage.

    No errors detected in file Z8EL.:Z8A6TSI    .

PL6.E3A0      #018=Z8EL$POSSIBLE_REPLACE File=Z8EL.:Z8A6TSI                      SAT 08/09/97 12:20 Page:644

 Object Unit name= Z8EL$POSSIBLE_REPLACE                      File name= Z8EL.:Z8A6TOU
 UTS= AUG 09 '97 12:20:45.00 SAT                              Compiler= PL-6/E31         Sev=      00
 SharedLib= :SHARED_SYSTEM                                    Alt SharedLib=


    ****  Control sections  ****

 Sect   Type Bound  Init  Size OctSiz  Section name(segment info)
    0  LblCom even  none     1      1  ITERATION
    1  LblCom even  none     1      1  HEAP$
    2  LblCom even  none    90    132  LEX_SYMBOL
    3  LblCom even  none     1      1  CURRENT_LEX_SYMBOL$
    4  LblCom even  none    90    132  TEMP_LEX_SYMBOL
    5  LblCom even  none    90    132  TEMP_LEX_SYMBOL2
    6  LblCom even  none     1      1  CURRENT_SYMBOL_LEVEL
    7  LblCom even  none     1      1  REPLACE_ACTIVE
    8  LblCom even  none     1      1  IGNORE_COPY_REPLACE
    9  LblCom even  none     1      1  COPY_DEBUG_LEVEL
   10  LblCom even  none     4      4  REPLACE_LIST
   11  LblCom even  none     1      1  LEX_SYMBOL_QUEUE$
   12  LblCom even  none     1      1  SCANNER_STATE
   13  LblCom even  none     1      1  CURRENT_BUFFER$
   14  LblCom even  none     1      1  LOOKAHEAD_BUFFER$
   15  LblCom even  none     1      1  CURRENT_LINE_LEVEL
   16  LblCom even  none     1      1  LINE_LIST$
   17  LblCom even  none     7      7  BUFFER
   18  LblCom even  none     1      1  ORIGINAL_ISN
   19  LblCom even  none     1      1  EXPANDED_ISN
   20  LblCom even  none     1      1  ISN_FOR_EXP_SRC
   21  LblCom even  none     1      1  INHIBIT_DUMP_LINES
   22  LblCom even  none     1      1  LEX_STATE
   23  RoData even  UTS      4      4  Z8EL$POSSIBLE_REPLACE
   24   Proc  even  none  1644   3154  Z8EL$POSSIBLE_REPLACE
   25  RoData even  none    17     21  Z8EL$POSSIBLE_REPLACE
PL6.E3A0      #018=Z8EL$POSSIBLE_REPLACE File=Z8EL.:Z8A6TSI                      SAT 08/09/97 12:20 Page:645

    ****  Entry defs  ****

                              Check   Calling
                             calling  sequence
  Sect OctLoc Primary Altret sequence   type   Parms  Name
    24      0   yes    yes     yes      Std        1  Z8EL$POSSIBLE_REPLACE

  ****  Entry refs  ****

         Check        Calling
        calling       sequence
Altret sequence SRef   type   Args  Name
         yes           Std       0 Z8ES$SCANNER
         yes           Std       0 Z8EL$GET_NEXT_SCANNER_LINE
         yes           Std       2 Z8ED$NEW_HEAP
         yes           Std       0 Z8EL$PROCESS_COPY
         yes           Std       2 Z8ED$DISPOSE_HEAP
         yes           Std       3 Z8EL$POSITION_LINE_LIST
                       nStd      0 X66_AUTO_1
                       nStd      0 X66_ARET
                       nStd      0 X66_AALT

  ****  Data refs  ****

  Flags:  r = read only, s = secondary
Flgs Name                             Flgs Name                             Flgs Name
r    USERWORD_SCAN_TABLE              r    ANSI_USERWORD_SCAN_TABLE         r    ASCII_SEARCH_TABLE
r    BLANK_SCAN_TABLE                 r    DIGIT_SCAN_TABLE                 r    LETTER_SEARCH_TABLE
r    DOUBLE_QUOTE_SEARCH_TABLE        r    SINGLE_QUOTE_SEARCH_TABLE        r   DBL_QUOTE_PSEUDO_SEARCH_TABLE
r    SNGL_QUOTE_PSEUDO_SEARCH_TABLE   r    SEPARATORS_TABLE                 r    LOWER_TO_UPPER_CASE
r    CURRENCY_SIGN_CHARS                   COMCOM                                O1COM
     HIER_STK_PTR                          HIER_STK                              PAGE_FORMAT
     REP_STK_PTR                           REP_STK
PL6.E3A0      #018=Z8EL$POSSIBLE_REPLACE File=Z8EL.:Z8A6TSI                      SAT 08/09/97 12:20 Page:646

  ****  Segment refs  ****

  Flags:  r = read only, s = secondary
Flgs Name                             Flgs Name                             Flgs Name
     ISSID                                 NULLSID
PL6.E3A0      #018=Z8EL$POSSIBLE_REPLACE File=Z8EL.:Z8A6TSI                      SAT 08/09/97 12:20 Page:647


     2489        1        /*T***********************************************************/
     2490        2        /*T*                                                         */
     2491        3        /*T* Copyright (c) Bull HN Information Systems Inc., 1997    */
     2492        4        /*T*                                                         */
     2493        5        /*T***********************************************************/
     2494        6        Z8EL$POSSIBLE_REPLACE : PROC (LOWEST_LEVEL) ALTRET;

      6 24 000000   000000 700200 xent  Z8EL$POSSIB* TSX0  ! X66_AUTO_1
        24 000001   000110 000001                    ZERO    72,1
        24 000002   003074 710000 24                 TRA     s:10322

     2495        7
     2496        8    1   DCL LOWEST_LEVEL SBIN;
     2497        9
     2498       10        %EQU PHASE = 1;
     2499       11        %INCLUDE Z8A_DEFC;
     2500       79        %INCLUDE Z8A_SUPP_MAC;
     2501     2479        %INCLUDE Z8E_HEAP;
     2502     2535        %INCLUDE Z8E_STACKS;
     2503     4801        %INCLUDE Z8E_REPLACE;
     2504     5104        %INCLUDE Z8E_WINDOW;
     2505     7174        %INCLUDE Z8E_BUFFERS;
     2506     7364        %INCLUDE Z8E_TABLES;
     2507     7917        %INCLUDE Z8A_COMCOM ;
     2508     8567        %INCLUDE Z8E_O1COM ;
     2509     9328
     2510     9329    1   DCL Z8EL$POSITION_LINE_LIST ENTRY (3);
     2511     9330    1   DCL Z8EL$PROCESS_COPY ENTRY;
     2512     9331
     2513     9332
     2514     9333
     2515     9334    1   DCL REPLACE$ PTR;
     2516     9335    1   DCL REPLACEMENT_FOUND BOOLEAN;
     2517     9336    1   DCL SAVE_INHIBIT_DUMP_LINES BOOLEAN;
     2518     9337    1   DCL INHIBIT_DUMP_LINES BOOLEAN EXT;
     2519     9338    1   DCL LEX_STATE          SBIN WORD EXT; /* Normal or Picture or ... */
PL6.E3A0      #018=Z8EL$POSSIBLE_REPLACE File=Z8EL.:Z8A6TSI                      SAT 08/09/97 12:20 Page:648
     2520     9339    1   DCL PICTURE_TOKEN      BOOLEAN;       /* PICTURE found in match list */
     2521     9340
     2522     9341
     2523     9342
     2524     9343        %EJECT;
PL6.E3A0      #018=Z8EL$POSSIBLE_REPLACE File=Z8EL.:Z8A6TSI                      SAT 08/09/97 12:20 Page:649
     2525     9344    1     MATCH_LISTS : PROC ALTRET;

   9344 24 000003   200010 741300       MATCH_LISTS  STX1  ! PICTURE_TOKEN+1,,AUTO
        24 000004   000062 710000 24                 TRA     s:9390

     2526     9345
     2527     9346    2       DCL MATCH$ PTR;
     2528     9347    2       DCL LEX$ PTR;
     2529     9348
     2530     9349
     2531     9350    2       EMBEDDED_COPY : PROC;

   9350 24 000005   200014 741300       EMBEDDED_CO* STX1  ! REP_BEG_LINE+1,,AUTO

     2532     9351
     2533     9352    3         DCL SAVED_LEX_SYMBOL_QUEUE$ PTR;
     2534     9353
     2535     9354    3         SAVED_LEX_SYMBOL_QUEUE$ = LEX_SYMBOL_QUEUE$;

   9354 24 000006   000000 236000 11                 LDQ     LEX_SYMBOL_QUEUE$
        24 000007   200015 756100                    STQ     SAVED_LEX_SYMBOL_QUEUE$,,AUTO

     2536     9355    3         LEX_SYMBOL_QUEUE$ = ADDR(NIL);

   9355 24 000010   000000 236000 25                 LDQ     0
        24 000011   000000 756000 11                 STQ     LEX_SYMBOL_QUEUE$

     2537     9356
     2538     9357    3         CALL Z8EL$PROCESS_COPY;

   9357 24 000012   000001 631400 25                 EPPR1   1
        24 000013   000000 701000 xent               TSX1    Z8EL$PROCESS_COPY
        24 000014   000000 011000                    NOP     0

     2539     9358
     2540     9359    3         LEX$ -> BASED_LEX_SYMBOL.NEXT$ = LEX_SYMBOL_QUEUE$;

PL6.E3A0      #018=Z8EL$POSSIBLE_REPLACE File=Z8EL.:Z8A6TSI                      SAT 08/09/97 12:20 Page:650
   9359 24 000015   000000 236000 11                 LDQ     LEX_SYMBOL_QUEUE$
        24 000016   200012 470500                    LDP0    LEX$,,AUTO
        24 000017   000000 756100                    STQ     0,,PR0

     2541     9360    3         LEX_SYMBOL_QUEUE$ = SAVED_LEX_SYMBOL_QUEUE$;

   9360 24 000020   200015 236100                    LDQ     SAVED_LEX_SYMBOL_QUEUE$,,AUTO
        24 000021   000000 756000 11                 STQ     LEX_SYMBOL_QUEUE$

     2542     9361
     2543     9362    3       END EMBEDDED_COPY;

   9362 24 000022   200014 221300                    LDX1  ! REP_BEG_LINE+1,,AUTO
        24 000023   000001 702211                    TSX2  ! 1,X1

     2544     9363
     2545     9364
     2546     9365    2     CHECK_LOWER_LEVEL : PROC;

   9365 24 000024   200014 741300       CHECK_LOWER* STX1  ! REP_BEG_LINE+1,,AUTO

     2547     9366
     2548     9367    3       DCL SAVED_LEX_SYMBOL_QUEUE$ PTR;
     2549     9368
     2550     9369    3       IF LEX$ -> BASED_LEX_SYMBOL.NEXT$ -> BASED_LEX_SYMBOL.LEVEL >

   9369 24 000025   200012 470500                    LDP0    LEX$,,AUTO
        24 000026   000000 471500                    LDP1    0,,PR0
        24 000027   200004 473500                    LDP3    REPLACE$,,AUTO
        24 000030   100003 236100                    LDQ     3,,PR1
        24 000031   300003 116100                    CMPQ    3,,PR3
        24 000032   000060 604400 24                 TMOZ    s:9386

     2551     9370    3             REPLACE$ -> REPLACE_ITEM.LEVEL THEN
     2552     9371    4         DO;

     2553     9372    4           SAVED_LEX_SYMBOL_QUEUE$ = LEX_SYMBOL_QUEUE$;
PL6.E3A0      #018=Z8EL$POSSIBLE_REPLACE File=Z8EL.:Z8A6TSI                      SAT 08/09/97 12:20 Page:651

   9372 24 000033   000000 236000 11                 LDQ     LEX_SYMBOL_QUEUE$
        24 000034   200015 756100                    STQ     SAVED_LEX_SYMBOL_QUEUE$,,AUTO

     2554     9373    4           LEX_SYMBOL_QUEUE$ = LEX$ -> BASED_LEX_SYMBOL.NEXT$;

   9373 24 000035   000000 236100                    LDQ     0,,PR0
        24 000036   000000 756000 11                 STQ     LEX_SYMBOL_QUEUE$

     2555     9374
     2556     9375    4           CALL Z8EL$POSSIBLE_REPLACE (REPLACE$ -> REPLACE_ITEM.LEVEL)

   9375 24 000037   200004 236100                    LDQ     REPLACE$,,AUTO
        24 000040   000003 036003                    ADLQ    3,DU
        24 000041   200102 756100                    STQ     T$+2,,AUTO
        24 000042   200102 630500                    EPPR0   T$+2,,AUTO
        24 000043   000002 631400 25                 EPPR1   2
        24 000044   000000 701000 24                 TSX1    s:6
        24 000045   000047 702000 24                 TSX2    s:9378
        24 000046   000053 710000 24                 TRA     s:9382

     2557     9376    4             WHENALTRETURN
     2558     9377    5               DO;

     2559     9378    5                 LEX_SYMBOL_QUEUE$ -> BASED_LEX_SYMBOL.LEVEL

   9378 24 000047   200004 470500                    LDP0    REPLACE$,,AUTO
        24 000050   000000 471400 11                 LDP1    LEX_SYMBOL_QUEUE$
        24 000051   000003 235100                    LDA     3,,PR0
        24 000052   100003 755100                    STA     3,,PR1

     2560     9379    5                     = REPLACE$ -> REPLACE_ITEM.LEVEL;
     2561     9380    5               END;

     2562     9381
     2563     9382    4           LEX$ -> BASED_LEX_SYMBOL.NEXT$ = LEX_SYMBOL_QUEUE$;

PL6.E3A0      #018=Z8EL$POSSIBLE_REPLACE File=Z8EL.:Z8A6TSI                      SAT 08/09/97 12:20 Page:652
   9382 24 000053   000000 236000 11                 LDQ     LEX_SYMBOL_QUEUE$
        24 000054   200012 470500                    LDP0    LEX$,,AUTO
        24 000055   000000 756100                    STQ     0,,PR0

     2564     9383    4           LEX_SYMBOL_QUEUE$ = SAVED_LEX_SYMBOL_QUEUE$;

   9383 24 000056   200015 236100                    LDQ     SAVED_LEX_SYMBOL_QUEUE$,,AUTO
        24 000057   000000 756000 11                 STQ     LEX_SYMBOL_QUEUE$

     2565     9384    4         END;

     2566     9385
     2567     9386    3     END CHECK_LOWER_LEVEL;

   9386 24 000060   200014 221300                    LDX1  ! REP_BEG_LINE+1,,AUTO
        24 000061   000001 702211                    TSX2  ! 1,X1

     2568     9387
     2569     9388            /* Main body of MATCH_LISTS */
     2570     9389
     2571     9390    2       LEX$ = LEX_SYMBOL_QUEUE$;

   9390 24 000062   000000 236000 11                 LDQ     LEX_SYMBOL_QUEUE$
        24 000063   200012 756100                    STQ     LEX$,,AUTO

     2572     9391    2       MATCH$ = REPLACE$ -> REPLACE_ITEM.FROM_LIST$;

   9391 24 000064   200004 470500                    LDP0    REPLACE$,,AUTO
        24 000065   000001 236100                    LDQ     1,,PR0
        24 000066   200011 756100                    STQ     MATCH$,,AUTO

     2573     9392    2       PICTURE_TOKEN = FALSE;

   9392 24 000067   200007 450100                    STZ     PICTURE_TOKEN,,AUTO

     2574     9393
     2575     9394    3       DO WHILE MATCH$ ~= ADDR(NIL)
PL6.E3A0      #018=Z8EL$POSSIBLE_REPLACE File=Z8EL.:Z8A6TSI                      SAT 08/09/97 12:20 Page:653

   9394 24 000070   000212 710000 24                 TRA     s:9458

     2576     9395    3                    AND MATCH$ -> BASED_LEX_SYMBOL.SYMBOL
     2577     9396    3                            = LEX$ -> BASED_LEX_SYMBOL.SYMBOL
     2578     9397    3                     AND LEX$ -> BASED_LEX_SYMBOL.LEVEL >=
     2579     9398    3                             REPLACE$ -> REPLACE_ITEM.LEVEL;
     2580     9399
     2581     9400              /*Don't replace parts of picture strings (STAR T02424) */
     2582     9401
     2583     9402    3         IF SUBSTR (MATCH$ -> BASED_LEX_SYMBOL.SYMBOL, 0, MATCH$ -> BASED_LEX_SYMBOL.
              9402                  SIZE) = 'PICTURE'

   9402 24 000071   200011 470500                    LDP0    MATCH$,,AUTO
        24 000072   000010 720100                    LXL0    8,,PR0
        24 000073   040000 106540                    CMPC    fill='040'O
        24 000074   000011 000010                    ADSC9   9,,PR0                   cn=0,n=*X0
        24 000075   000000 000007 23                 ADSC9   0                        cn=0,n=7
        24 000076   000104 600000 24                 TZE     s:9404
        24 000077   000010 720100                    LXL0    8,,PR0
        24 000100   040000 106540                    CMPC    fill='040'O
        24 000101   000011 000010                    ADSC9   9,,PR0                   cn=0,n=*X0
        24 000102   000000 000003 23                 ADSC9   0                        cn=0,n=3
        24 000103   000106 601000 24                 TNZ     s:9406

     2584     9403    3         OR SUBSTR (MATCH$ -> BASED_LEX_SYMBOL.SYMBOL, 0, MATCH$ -> BASED_LEX_SYMBOL.
              9403                  SIZE) = 'PIC' THEN
     2585     9404    3           PICTURE_TOKEN = TRUE;

   9404 24 000104   400000 236003                    LDQ     -131072,DU
        24 000105   200007 756100                    STQ     PICTURE_TOKEN,,AUTO

     2586     9405
     2587     9406    3         IF PICTURE_TOKEN = FALSE

   9406 24 000106   200007 234100                    SZN     PICTURE_TOKEN,,AUTO
        24 000107   000115 604000 24                 TMI     s:9410
PL6.E3A0      #018=Z8EL$POSSIBLE_REPLACE File=Z8EL.:Z8A6TSI                      SAT 08/09/97 12:20 Page:654
        24 000110   000000 235000 22                 LDA     LEX_STATE
        24 000111   000004 115007                    CMPA    4,DL
        24 000112   000115 601000 24                 TNZ     s:9410

     2588     9407    3         AND LEX_STATE = %LS_PICTURE_OR_IS THEN
     2589     9408    3           RETURN; /* REPLACEMENT_FOUND = FALSE */

   9408 24 000113   200010 221300                    LDX1  ! PICTURE_TOKEN+1,,AUTO
        24 000114   000001 702211                    TSX2  ! 1,X1

     2590     9409
     2591     9410    3         MATCH$ = MATCH$ -> BASED_LEX_SYMBOL.NEXT$;

   9410 24 000115   000000 236100                    LDQ     0,,PR0
        24 000116   200011 756100                    STQ     MATCH$,,AUTO

     2592     9411
     2593     9412    3         IF MATCH$ ~= ADDR(NIL) THEN

   9412 24 000117   000000 116000 25                 CMPQ    0
        24 000120   000212 600000 24                 TZE     s:9458

     2594     9413    4           DO;

     2595     9414    4             IF LEX$ -> BASED_LEX_SYMBOL.NEXT$ = ADDR(NIL) THEN

   9414 24 000121   200012 470500                    LDP0    LEX$,,AUTO
        24 000122   000000 236100                    LDQ     0,,PR0
        24 000123   000000 116000 25                 CMPQ    0
        24 000124   000205 601000 24                 TNZ     s:9453

     2596     9415    5               DO;

     2597     9416                      %GET_BRAND_NEW_TOKEN;

   9418 24 000125   000001 631400 25                 EPPR1   1
        24 000126   000000 701000 xent               TSX1    Z8ES$SCANNER
PL6.E3A0      #018=Z8EL$POSSIBLE_REPLACE File=Z8EL.:Z8A6TSI                      SAT 08/09/97 12:20 Page:655
        24 000127   000000 011000                    NOP     0

   9419 24 000130   000001 235000 2                  LDA     LEX_SYMBOL+1
        24 000131   000142 601000 24                 TNZ     s:9427

   9420 24 000132   000001 631400 25                 EPPR1   1
        24 000133   000000 701000 xent               TSX1    Z8EL$GET_NEXT_SCANNER_LINE
        24 000134   000000 011000                    NOP     0

   9421 24 000135   000001 631400 25                 EPPR1   1
        24 000136   000000 701000 xent               TSX1    Z8ES$SCANNER
        24 000137   000000 011000                    NOP     0

   9422 24 000140   000001 235000 2                  LDA     LEX_SYMBOL+1
        24 000141   000132 600000 24                 TZE     s:9420

     2598     9425
     2599     9426                      /* Check for embedded copy */
     2600     9427    5                 IF LEX_SYMBOL.SIZE = 4

   9427 24 000142   000010 236000 2                  LDQ     LEX_SYMBOL+8
        24 000143   000004 116007                    CMPQ    4,DL
        24 000144   000154 601000 24                 TNZ     s:9437
        24 000145   000011 236000 2                  LDQ     LEX_SYMBOL+9
        24 000146   000002 116000 23                 CMPQ    2
        24 000147   000154 601000 24                 TNZ     s:9437

     2601     9428    5                      AND SUBSTR(LEX_SYMBOL.SYMBOL,0,4) = 'COPY' THEN
     2602     9429    6                   DO;

     2603     9430    6                     CALL EMBEDDED_COPY;

   9430 24 000150   000005 701000 24                 TSX1    EMBEDDED_COPY
        24 000151   000000 011000                    NOP     0

     2604     9431    6                     ALTRETURN;

PL6.E3A0      #018=Z8EL$POSSIBLE_REPLACE File=Z8EL.:Z8A6TSI                      SAT 08/09/97 12:20 Page:656
   9431 24 000152   200010 221300                    LDX1  ! PICTURE_TOKEN+1,,AUTO
        24 000153   000000 702211                    TSX2  ! 0,X1

     2605     9432    6                   END;
     2606     9433
     2607     9434                      %COPY_TO_NEW_LEX_SYMBOL(FROM$="ADDR(LEX_SYMBOL)",
     2608     9435                                              TO$ = HEAP$);

   9437 24 000154   000010 236000 2                  LDQ     LEX_SYMBOL+8
        24 000155   000047 036007                    ADLQ    39,DL
        24 000156   000004 506007                    DIV     4,DL
        24 000157   200102 756100                    STQ     T$+2,,AUTO
        24 000160   200102 630500                    EPPR0   T$+2,,AUTO
        24 000161   200105 450500                    STP0    T$+5,,AUTO
        24 000162   000004 236000 25                 LDQ     4
        24 000163   200104 756100                    STQ     T$+4,,AUTO
        24 000164   200104 630500                    EPPR0   T$+4,,AUTO
        24 000165   000003 631400 25                 EPPR1   3
        24 000166   000000 701000 xent               TSX1    Z8ED$NEW_HEAP
        24 000167   000000 011000                    NOP     0

   9444 24 000170   000000 470400 1                  LDP0    HEAP$
        24 000171   000010 235000 2                  LDA     LEX_SYMBOL+8
        24 000172   000010 755100                    STA     8,,PR0

   9445 24 000173   000010 720100                    LXL0    8,,PR0
        24 000174   000044 621010                    EAX1    36,X0
        24 000175   000010 722000 2                  LXL2    LEX_SYMBOL+8
        24 000176   000044 623012                    EAX3    36,X2
        24 000177   000140 100440                    MLR     fill='000'O
        24 000200   000000 000013 2                  ADSC9   LEX_SYMBOL               cn=0,n=*X3
        24 000201   000000 000011                    ADSC9   0,,PR0                   cn=0,n=*X1

     2609     9450    5                 LEX$ -> BASED_LEX_SYMBOL.NEXT$ = HEAP$;

   9450 24 000202   000000 236000 1                  LDQ     HEAP$
        24 000203   200012 470500                    LDP0    LEX$,,AUTO
PL6.E3A0      #018=Z8EL$POSSIBLE_REPLACE File=Z8EL.:Z8A6TSI                      SAT 08/09/97 12:20 Page:657
        24 000204   000000 756100                    STQ     0,,PR0

     2610     9451    5               END;

     2611     9452
     2612     9453    4             CALL CHECK_LOWER_LEVEL;

   9453 24 000205   000024 701000 24                 TSX1    CHECK_LOWER_LEVEL
        24 000206   000000 011000                    NOP     0

     2613     9454
     2614     9455    4             LEX$ = LEX$ -> BASED_LEX_SYMBOL.NEXT$;

   9455 24 000207   200012 470500                    LDP0    LEX$,,AUTO
        24 000210   000000 236100                    LDQ     0,,PR0
        24 000211   200012 756100                    STQ     LEX$,,AUTO

     2615     9456    4           END;

     2616     9457
     2617     9458    3       END;  /* DO WHILE */

   9458 24 000212   200011 236100                    LDQ     MATCH$,,AUTO
        24 000213   000000 116000 25                 CMPQ    0
        24 000214   000231 600000 24                 TZE     s:9460
        24 000215   200011 470500                    LDP0    MATCH$,,AUTO
        24 000216   000010 720100                    LXL0    8,,PR0
        24 000217   200012 471500                    LDP1    LEX$,,AUTO
        24 000220   100010 721100                    LXL1    8,,PR1
        24 000221   040140 106540                    CMPC    fill='040'O
        24 000222   000011 000010                    ADSC9   9,,PR0                   cn=0,n=*X0
        24 000223   100011 000011                    ADSC9   9,,PR1                   cn=0,n=*X1
        24 000224   000231 601000 24                 TNZ     s:9460
        24 000225   200004 473500                    LDP3    REPLACE$,,AUTO
        24 000226   100003 236100                    LDQ     3,,PR1
        24 000227   300003 116100                    CMPQ    3,,PR3
        24 000230   000071 605000 24                 TPL     s:9402
PL6.E3A0      #018=Z8EL$POSSIBLE_REPLACE File=Z8EL.:Z8A6TSI                      SAT 08/09/97 12:20 Page:658

     2618     9459
     2619     9460    2       IF MATCH$ = ADDR(NIL) THEN

   9460 24 000231   200011 236100                    LDQ     MATCH$,,AUTO
        24 000232   000000 116000 25                 CMPQ    0
        24 000233   000236 601000 24                 TNZ     s:9463

     2620     9461    2         REPLACEMENT_FOUND = TRUE;

   9461 24 000234   400000 236003                    LDQ     -131072,DU
        24 000235   200005 756100                    STQ     REPLACEMENT_FOUND,,AUTO

     2621     9462
     2622     9463    2     END MATCH_LISTS;

   9463 24 000236   200010 221300                    LDX1  ! PICTURE_TOKEN+1,,AUTO
        24 000237   000001 702211                    TSX2  ! 1,X1

     2623     9464
     2624     9465        %EJECT;
PL6.E3A0      #018=Z8EL$POSSIBLE_REPLACE File=Z8EL.:Z8A6TSI                      SAT 08/09/97 12:20 Page:659
     2625     9466    1     DO_REPLACE : PROC;

   9466 24 000240   200010 741300       DO_REPLACE   STX1  ! PICTURE_TOKEN+1,,AUTO
        24 000241   001015 710000 24                 TRA     s:9718

     2626     9467    2       DCL MATCH$ PTR;
     2627     9468    2       DCL LEX$ PTR;
     2628     9469
     2629     9470    2       DCL REP_BEG_LINE SBIN;
     2630     9471    2       DCL REP_BEG_COLUMN SBIN;
     2631     9472    2       DCL REP_DEBUG_LINE BOOLEAN;
     2632     9473    2       DCL CUMM_LINE_OFFSET SBIN;
     2633     9474    2       DCL CUMM_LINE_PTR$ PTR;
     2634     9475    2       DCL REP_END_LINE SBIN;
     2635     9476    2       DCL REP_END_COLUMN SBIN;
     2636     9477
     2637     9478    2       DCL L$               PTR;
     2638     9479    2       DCL TL$              PTR;
     2639     9480    2       DCL TISN             SBIN;
     2640     9481    2       DCL ISN_INC          SBIN;
     2641     9482    2       DCL ISN_BASE         SBIN;
     2642     9483    2       DCL NON_BLANK_COL    SBIN;
     2643     9484    2       DCL CHAR_CLASS       SBIN;
     2644     9485    2       DCL TEMP_SBIN        SBIN BYTE CALIGNED;
     2645     9486    2       DCL TEMP_CHAR1       REDEF TEMP_SBIN CHAR (1);
     2646     9487    2       DCL MAX_TOKEN_LENGTH SBIN;
     2647     9488    2       DCL SAVE_SIZE        SBIN;
     2648     9489    2       DCL NEXT$            PTR;
     2649     9490    2       DCL NEW$             PTR;
     2650     9491    2       DCL REP_SIZE         SBIN;
     2651     9492    2       DCL BLANK_SPACE      SBIN;
     2652     9493    2       DCL TO_LIST$         PTR;
     2653     9494    2       DCL OLD_LINE$        PTR;
     2654     9495    2       DCL TEMP_CHAR60      CHAR (60);
     2655     9496    2       DCL SHIFT_RIGHT      SBIN;
     2656     9497
     2657     9498        %EJECT;
PL6.E3A0      #018=Z8EL$POSSIBLE_REPLACE File=Z8EL.:Z8A6TSI                      SAT 08/09/97 12:20 Page:660
     2658     9499
     2659     9500    2       ADJUST_ISN : PROC (ISN_INC,

   9500 24 000242   200074 741300       ADJUST_ISN   STX1  ! L$+1,,AUTO

     2660     9501    2                          LINE$);
     2661     9502
     2662     9503    3         DCL ISN_INC SBIN;
     2663     9504    3         DCL LINE$ PTR;
     2664     9505
     2665     9506    3         DCL L$ PTR;
     2666     9507    3         DCL T$ PTR;
     2667     9508
     2668     9509    3         L$ = LINE$;

   9509 24 000243   200076 470500                    LDP0    @LINE$,,AUTO
        24 000244   000000 236100                    LDQ     0,,PR0
        24 000245   200077 756100                    STQ     L$,,AUTO

     2669     9510
     2670     9511    4         DO WHILE L$ ~= ADDR(NIL)

   9511 24 000246   000256 710000 24                 TRA     s:9516

     2671     9512    4              AND L$ ~= CURRENT_BUFFER$;
     2672     9513
     2673     9514    4           L$ -> FILL_BUFFER.ISN = L$ -> FILL_BUFFER.ISN + ISN_INC;

   9514 24 000247   200077 470500                    LDP0    L$,,AUTO
        24 000250   200075 471500                    LDP1    @ISN_INC,,AUTO
        24 000251   000004 236100                    LDQ     4,,PR0
        24 000252   100000 036100                    ADLQ    0,,PR1
        24 000253   000004 756100                    STQ     4,,PR0

     2674     9515    4           L$ = L$ -> FILL_BUFFER.NEXT$;

   9515 24 000254   000002 236100                    LDQ     2,,PR0
PL6.E3A0      #018=Z8EL$POSSIBLE_REPLACE File=Z8EL.:Z8A6TSI                      SAT 08/09/97 12:20 Page:661
        24 000255   200077 756100                    STQ     L$,,AUTO

     2675     9516    4         END;

   9516 24 000256   000000 116000 25                 CMPQ    0
        24 000257   000262 600000 24                 TZE     s:9518
        24 000260   000000 116000 13                 CMPQ    CURRENT_BUFFER$
        24 000261   000247 601000 24                 TNZ     s:9514

     2676     9517
     2677     9518    3         IF L$ = CURRENT_BUFFER$ THEN

   9518 24 000262   000000 116000 13                 CMPQ    CURRENT_BUFFER$
        24 000263   000275 601000 24                 TNZ     s:9527

     2678     9519    4           DO;

     2679     9520    4             EXPANDED_ISN = EXPANDED_ISN + ISN_INC;

   9520 24 000264   200075 470500                    LDP0    @ISN_INC,,AUTO
        24 000265   000000 236000 19                 LDQ     EXPANDED_ISN
        24 000266   000000 036100                    ADLQ    0,,PR0
        24 000267   000000 756000 19                 STQ     EXPANDED_ISN

     2680     9521    4             L$ -> FILL_BUFFER.ISN = L$ -> FILL_BUFFER.ISN + ISN_INC;

   9521 24 000270   200077 471500                    LDP1    L$,,AUTO
        24 000271   100004 236100                    LDQ     4,,PR1
        24 000272   000000 036100                    ADLQ    0,,PR0
        24 000273   100004 756100                    STQ     4,,PR1

     2681     9522    4             BUFFER.ISN = L$ -> FILL_BUFFER.ISN;

   9522 24 000274   000002 756000 17                 STQ     BUFFER+2

     2682     9523    4           END;

PL6.E3A0      #018=Z8EL$POSSIBLE_REPLACE File=Z8EL.:Z8A6TSI                      SAT 08/09/97 12:20 Page:662
     2683     9524
     2684     9525                /* Adjust tokens previously scanned */
     2685     9526
     2686     9527    3           T$ = LEX_SYMBOL_QUEUE$;

   9527 24 000275   000000 236000 11                 LDQ     LEX_SYMBOL_QUEUE$
        24 000276   200100 756100                    STQ     T$,,AUTO

     2687     9528    4           DO WHILE T$ ~= ADDR(NIL);

   9528 24 000277   000312 710000 24                 TRA     s:9532

     2688     9529    4             T$ -> BASED_LEX_SYMBOL.LINE = T$ -> BASED_LEX_SYMBOL.LINE + ISN_INC;

   9529 24 000300   200100 470500                    LDP0    T$,,AUTO
        24 000301   200075 471500                    LDP1    @ISN_INC,,AUTO
        24 000302   000004 236100                    LDQ     4,,PR0
        24 000303   100000 036100                    ADLQ    0,,PR1
        24 000304   000004 756100                    STQ     4,,PR0

     2689     9530    4             T$ -> BASED_LEX_SYMBOL.END_LINE = T$ -> BASED_LEX_SYMBOL.END_LINE +
              9530                      ISN_INC;

   9530 24 000305   000006 236100                    LDQ     6,,PR0
        24 000306   100000 036100                    ADLQ    0,,PR1
        24 000307   000006 756100                    STQ     6,,PR0

     2690     9531    4             T$ = T$ -> BASED_LEX_SYMBOL.NEXT$;

   9531 24 000310   000000 236100                    LDQ     0,,PR0
        24 000311   200100 756100                    STQ     T$,,AUTO

     2691     9532    4           END;

   9532 24 000312   000000 116000 25                 CMPQ    0
        24 000313   000300 601000 24                 TNZ     s:9529

PL6.E3A0      #018=Z8EL$POSSIBLE_REPLACE File=Z8EL.:Z8A6TSI                      SAT 08/09/97 12:20 Page:663
     2692     9533    3       END ADJUST_ISN;

   9533 24 000314   200074 221300                    LDX1  ! L$+1,,AUTO
        24 000315   000001 702211                    TSX2  ! 1,X1

     2693     9534
     2694     9535        %EJECT;
PL6.E3A0      #018=Z8EL$POSSIBLE_REPLACE File=Z8EL.:Z8A6TSI                      SAT 08/09/97 12:20 Page:664
     2695     9536    2       SPLIT_LINE : PROC (LINE,

   9536 24 000316   200062 741300       SPLIT_LINE   STX1  ! SHIFT_RIGHT+1,,AUTO

     2696     9537    2                          COLUMN,
     2697     9538    2                          LINE$);
     2698     9539
     2699     9540    3         DCL LINE SBIN;
     2700     9541    3         DCL COLUMN SBIN;
     2701     9542    3         DCL LINE$ PTR;
     2702     9543
     2703     9544    3         DCL L$ PTR;
     2704     9545
     2705     9546    3         LINE$ = ADDR(NIL);

   9546 24 000317   000000 236000 25                 LDQ     0
        24 000320   200065 470500                    LDP0    @LINE$,,AUTO
        24 000321   000000 756100                    STQ     0,,PR0

     2706     9547    3         CALL Z8EL$POSITION_LINE_LIST (LINE, LINE$, 999999999);

   9547 24 000322   000007 236000 25                 LDQ     7
        24 000323   200104 756100                    STQ     T$+4,,AUTO
        24 000324   200065 236100                    LDQ     @LINE$,,AUTO
        24 000325   200063 235100                    LDA     @LINE,,AUTO
        24 000326   200102 757100                    STAQ    T$+2,,AUTO
        24 000327   200102 630500                    EPPR0   T$+2,,AUTO
        24 000330   000005 631400 25                 EPPR1   5
        24 000331   000000 701000 xent               TSX1    Z8EL$POSITION_LINE_LIST
        24 000332   000000 011000                    NOP     0

     2707     9548
     2708     9549    3         IF LINE$ ~= ADDR(NIL) THEN

   9549 24 000333   200065 470500                    LDP0    @LINE$,,AUTO
        24 000334   000000 236100                    LDQ     0,,PR0
        24 000335   000000 116000 25                 CMPQ    0
PL6.E3A0      #018=Z8EL$POSSIBLE_REPLACE File=Z8EL.:Z8A6TSI                      SAT 08/09/97 12:20 Page:665
        24 000336   000471 600000 24                 TZE     s:9588

     2709     9550    4           DO;

     2710     9551    4             IF SUBSTR (LINE$ -> FILL_BUFFER.SOURCE_LINE,

   9551 24 000337   000000 471500                    LDP1    0,,PR0
        24 000340   100012 720100                    LXL0    10,,PR1
        24 000341   100012 236100                    LDQ     10,,PR1
        24 000342   000123 116000 xsym               CMPQ    O1COM+83
        24 000343   000345 604400 24                 TMOZ    s:9551+6
        24 000344   000123 236000 xsym               LDQ     O1COM+83
        24 000345   200064 473500                    LDP3    @COLUMN,,AUTO
        24 000346   300000 136100                    SBLQ    0,,PR3
        24 000347   300000 235100                    LDA     0,,PR3
        24 000350   000000 621006                    EAX1    0,QL
        24 000351   040000 106545                    CMPC    fill='040'O
        24 000352   100013 000011                    ADSC9   11,A,PR1                 cn=0,n=*X1
        24 000353   000010 000001 25                 ADSC9   8                        cn=0,n=1
        24 000354   000471 600000 24                 TZE     s:9588

     2711     9552    4                        COLUMN,
     2712     9553    4                        MINIMUM (O1COM.MARGIN_R, LINE$ -> FILL_BUFFER.LINE_LENGTH) -
              9553                                 COLUMN)
     2713     9554    4                    ~= ' ' THEN
     2714     9555    5               DO;

     2715     9556    5                 CALL DUP_FOR_REP (LINE$,

   9556 24 000355   200016 634500                    EPPR4   CUMM_LINE_OFFSET,,AUTO
        24 000356   200072 454500                    STP4    @LINE$+1,,AUTO
        24 000357   200065 236100                    LDQ     @LINE$,,AUTO
        24 000360   200071 756100                    STQ     LEX$+1,,AUTO
        24 000361   000473 701000 24                 TSX1    DUP_FOR_REP
        24 000362   000000 011000                    NOP     0

     2716     9557    5                                   CUMM_LINE_OFFSET);
PL6.E3A0      #018=Z8EL$POSSIBLE_REPLACE File=Z8EL.:Z8A6TSI                      SAT 08/09/97 12:20 Page:666
     2717     9558
     2718     9559                      %NEW_HEAP (@POINTER = L$,
     2719     9560                                 @SIZE = %MAX_INPUT_BUFFER_LEN);

   9562 24 000363   000012 236000 25                 LDQ     10
        24 000364   200103 756100                    STQ     T$+3,,AUTO
        24 000365   200066 630500                    EPPR0   L$,,AUTO
        24 000366   200102 450500                    STP0    T$+2,,AUTO
        24 000367   200102 630500                    EPPR0   T$+2,,AUTO
        24 000370   000003 631400 25                 EPPR1   3
        24 000371   000000 701000 xent               TSX1    Z8ED$NEW_HEAP
        24 000372   000000 011000                    NOP     0

     2720     9565
     2721     9566    5                 LINE$ -> FILL_BUFFER.ESN = ' ';

   9566 24 000373   200065 470500                    LDP0    @LINE$,,AUTO
        24 000374   000000 471500                    LDP1    0,,PR0
        24 000375   040100 100400                    MLR     fill='040'O
        24 000376   000010 000001 25                 ADSC9   8                        cn=0,n=1
        24 000377   100005 000012                    ADSC9   5,,PR1                   cn=0,n=10

     2722     9567    5                 L$ -> FILL_BUFFER.LINE_LENGTH = LINE$ -> FILL_BUFFER.LINE_LENGTH;

   9567 24 000400   000000 471500                    LDP1    0,,PR0
        24 000401   200066 473500                    LDP3    L$,,AUTO
        24 000402   100012 235100                    LDA     10,,PR1
        24 000403   300012 755100                    STA     10,,PR3

     2723     9568    5                 L$ -> FILL_BUFFER = LINE$ -> FILL_BUFFER;

   9568 24 000404   200066 471500                    LDP1    L$,,AUTO
        24 000405   100012 720100                    LXL0    10,,PR1
        24 000406   000054 621010                    EAX1    44,X0
        24 000407   000000 473500                    LDP3    0,,PR0
        24 000410   300012 722100                    LXL2    10,,PR3
        24 000411   000054 623012                    EAX3    44,X2
PL6.E3A0      #018=Z8EL$POSSIBLE_REPLACE File=Z8EL.:Z8A6TSI                      SAT 08/09/97 12:20 Page:667
        24 000412   000140 100540                    MLR     fill='000'O
        24 000413   300000 000013                    ADSC9   0,,PR3                   cn=0,n=*X3
        24 000414   100000 000011                    ADSC9   0,,PR1                   cn=0,n=*X1

     2724     9569    5                 LINE$ -> FILL_BUFFER.NEXT$ = L$;

   9569 24 000415   000000 471500                    LDP1    0,,PR0
        24 000416   200066 236100                    LDQ     L$,,AUTO
        24 000417   100002 756100                    STQ     2,,PR1

     2725     9570    5                 IF CURRENT_BUFFER$ = LINE$ THEN

   9570 24 000420   000000 236000 13                 LDQ     CURRENT_BUFFER$
        24 000421   000000 116100                    CMPQ    0,,PR0
        24 000422   000425 601000 24                 TNZ     s:9573

     2726     9571    5                   CURRENT_BUFFER$ = L$;

   9571 24 000423   200066 236100                    LDQ     L$,,AUTO
        24 000424   000000 756000 13                 STQ     CURRENT_BUFFER$

     2727     9572
     2728     9573    5                 CALL ADJUST_ISN (1, L$);

   9573 24 000425   200066 631500                    EPPR1   L$,,AUTO
        24 000426   200076 451500                    STP1    @LINE$,,AUTO
        24 000427   000014 236000 25                 LDQ     12
        24 000430   200075 756100                    STQ     @ISN_INC,,AUTO
        24 000431   000242 701000 24                 TSX1    ADJUST_ISN
        24 000432   000000 011000                    NOP     0

     2729     9574
     2730     9575    5                 SUBSTR (LINE$ -> FILL_BUFFER.SOURCE_LINE,

   9575 24 000433   200065 470500                    LDP0    @LINE$,,AUTO
        24 000434   000000 471500                    LDP1    0,,PR0
        24 000435   100012 720100                    LXL0    10,,PR1
PL6.E3A0      #018=Z8EL$POSSIBLE_REPLACE File=Z8EL.:Z8A6TSI                      SAT 08/09/97 12:20 Page:668
        24 000436   100012 236100                    LDQ     10,,PR1
        24 000437   000123 116000 xsym               CMPQ    O1COM+83
        24 000440   000442 604400 24                 TMOZ    s:9575+7
        24 000441   000123 236000 xsym               LDQ     O1COM+83
        24 000442   200064 473500                    LDP3    @COLUMN,,AUTO
        24 000443   300000 136100                    SBLQ    0,,PR3
        24 000444   300000 235100                    LDA     0,,PR3
        24 000445   000000 621006                    EAX1    0,QL
        24 000446   040145 100400                    MLR     fill='040'O
        24 000447   000010 000001 25                 ADSC9   8                        cn=0,n=1
        24 000450   100013 000011                    ADSC9   11,A,PR1                 cn=0,n=*X1

     2731     9576    5                         COLUMN,
     2732     9577    5                         MINIMUM (O1COM.MARGIN_R, LINE$ -> FILL_BUFFER.LINE_LENGTH) -
              9577                                  COLUMN)
     2733     9578    5                     = ' ';
     2734     9579
     2735     9580    5                 SUBSTR (L$ -> FILL_BUFFER.SOURCE_LINE,

   9580 24 000451   200066 471500                    LDP1    L$,,AUTO
        24 000452   100012 720100                    LXL0    10,,PR1
        24 000453   300000 721100                    LXL1    0,,PR3
        24 000454   040140 100400                    MLR     fill='040'O
        24 000455   000010 000001 25                 ADSC9   8                        cn=0,n=1
        24 000456   100013 000011                    ADSC9   11,,PR1                  cn=0,n=*X1

     2736     9581    5                         0,
     2737     9582    5                         COLUMN) = ' ';
     2738     9583    5                 IF LINE$ -> FILL_BUFFER.LINE_TYPE.DEBUG_LINE THEN

   9583 24 000457   000000 471500                    LDP1    0,,PR0
        24 000460   100011 236100                    LDQ     9,,PR1
        24 000461   010000 316003                    CANQ    4096,DU
        24 000462   000471 600000 24                 TZE     s:9588

     2739     9584    5                   SUBSTR (L$ -> FILL_BUFFER.SOURCE_LINE,

PL6.E3A0      #018=Z8EL$POSSIBLE_REPLACE File=Z8EL.:Z8A6TSI                      SAT 08/09/97 12:20 Page:669
   9584 24 000463   200066 474500                    LDP4    L$,,AUTO
        24 000464   400012 720100                    LXL0    10,,PR4
        24 000465   000122 235000 xsym               LDA     O1COM+82
        24 000466   040105 100400                    MLR     fill='040'O
        24 000467   000015 000001 25                 ADSC9   13                       cn=0,n=1
        24 000470   400012 600001                    ADSC9   10,A,PR4                 cn=3,n=1

     2740     9585    5                           O1COM.AREA_A_COLUMN_START - 1, 1) = 'D';
     2741     9586    5               END;

     2742     9587    4           END;

     2743     9588    3       END SPLIT_LINE;

   9588 24 000471   200062 221300                    LDX1  ! SHIFT_RIGHT+1,,AUTO
        24 000472   000001 702211                    TSX2  ! 1,X1

     2744     9589
     2745     9590        %EJECT;
PL6.E3A0      #018=Z8EL$POSSIBLE_REPLACE File=Z8EL.:Z8A6TSI                      SAT 08/09/97 12:20 Page:670
     2746     9591    2       DUP_FOR_REP : PROC (LINE$,

   9591 24 000473   200070 741300       DUP_FOR_REP  STX1  ! @COLUMN+1,,AUTO

     2747     9592    2                           ISN_INC);
     2748     9593
     2749     9594    3         DCL LINE$ PTR;
     2750     9595    3         DCL ISN_INC SBIN;
     2751     9596
     2752     9597    3         DCL L$ PTR;
     2753     9598
     2754     9599
     2755     9600    3         ISN_INC = 0;

   9600 24 000474   200072 470500                    LDP0    @ISN_INC,,AUTO
        24 000475   000000 450100                    STZ     0,,PR0

     2756     9601    3         IF NOT LINE$ -> FILL_BUFFER.LINE_TYPE.NEW_REP_LINE THEN

   9601 24 000476   200071 471500                    LDP1    @LINE$,,AUTO
        24 000477   100000 473500                    LDP3    0,,PR1
        24 000500   300011 430100                    FSZN    9,,PR3
        24 000501   000565 604000 24                 TMI     s:9625

     2757     9602    4           DO;

     2758     9603                  %NEW_HEAP (@POINTER = L$,
     2759     9604                             @SIZE = %MAX_INPUT_BUFFER_LEN);

   9606 24 000502   000012 236000 25                 LDQ     10
        24 000503   200103 756100                    STQ     T$+3,,AUTO
        24 000504   200073 633500                    EPPR3   L$,,AUTO
        24 000505   200102 453500                    STP3    T$+2,,AUTO
        24 000506   200102 630500                    EPPR0   T$+2,,AUTO
        24 000507   000003 631400 25                 EPPR1   3
        24 000510   000000 701000 xent               TSX1    Z8ED$NEW_HEAP
        24 000511   000000 011000                    NOP     0
PL6.E3A0      #018=Z8EL$POSSIBLE_REPLACE File=Z8EL.:Z8A6TSI                      SAT 08/09/97 12:20 Page:671

     2760     9609
     2761     9610    4             L$ -> FILL_BUFFER.LINE_LENGTH = LINE$ -> FILL_BUFFER.LINE_LENGTH;

   9610 24 000512   200071 470500                    LDP0    @LINE$,,AUTO
        24 000513   000000 471500                    LDP1    0,,PR0
        24 000514   200073 473500                    LDP3    L$,,AUTO
        24 000515   100012 235100                    LDA     10,,PR1
        24 000516   300012 755100                    STA     10,,PR3

     2762     9611    4             L$ -> FILL_BUFFER = LINE$ -> FILL_BUFFER;

   9611 24 000517   200073 471500                    LDP1    L$,,AUTO
        24 000520   100012 720100                    LXL0    10,,PR1
        24 000521   000054 621010                    EAX1    44,X0
        24 000522   000000 473500                    LDP3    0,,PR0
        24 000523   300012 722100                    LXL2    10,,PR3
        24 000524   000054 623012                    EAX3    44,X2
        24 000525   000140 100540                    MLR     fill='000'O
        24 000526   300000 000013                    ADSC9   0,,PR3                   cn=0,n=*X3
        24 000527   100000 000011                    ADSC9   0,,PR1                   cn=0,n=*X1

     2763     9612    4             L$ -> FILL_BUFFER.LINE_TYPE.NEW_REP_LINE = TRUE;

   9612 24 000530   200073 471500                    LDP1    L$,,AUTO
        24 000531   001000 236003                    LDQ     512,DU
        24 000532   100011 256100                    ORSQ    9,,PR1

     2764     9613    4             L$ -> FILL_BUFFER.ESN = ' ';

   9613 24 000533   200073 471500                    LDP1    L$,,AUTO
        24 000534   040100 100400                    MLR     fill='040'O
        24 000535   000010 000001 25                 ADSC9   8                        cn=0,n=1
        24 000536   100005 000012                    ADSC9   5,,PR1                   cn=0,n=10

     2765     9614    4             LINE$ -> FILL_BUFFER.LINE_TYPE.OLD_REP_LINE = TRUE;

PL6.E3A0      #018=Z8EL$POSSIBLE_REPLACE File=Z8EL.:Z8A6TSI                      SAT 08/09/97 12:20 Page:672
   9614 24 000537   000000 471500                    LDP1    0,,PR0
        24 000540   020000 236003                    LDQ     8192,DU
        24 000541   100011 256100                    ORSQ    9,,PR1

     2766     9615    4             LINE$ -> FILL_BUFFER.NEXT$ = L$;

   9615 24 000542   000000 471500                    LDP1    0,,PR0
        24 000543   200073 236100                    LDQ     L$,,AUTO
        24 000544   100002 756100                    STQ     2,,PR1

     2767     9616
     2768     9617    4             IF CURRENT_BUFFER$ = LINE$ THEN

   9617 24 000545   000000 236000 13                 LDQ     CURRENT_BUFFER$
        24 000546   000000 116100                    CMPQ    0,,PR0
        24 000547   000552 601000 24                 TNZ     s:9619

     2769     9618    4               CURRENT_BUFFER$ = L$;

   9618 24 000550   200073 236100                    LDQ     L$,,AUTO
        24 000551   000000 756000 13                 STQ     CURRENT_BUFFER$

     2770     9619    4             LINE$ = L$;

   9619 24 000552   200073 236100                    LDQ     L$,,AUTO
        24 000553   000000 756100                    STQ     0,,PR0

     2771     9620
     2772     9621    4             CALL ADJUST_ISN (1, L$);

   9621 24 000554   200073 631500                    EPPR1   L$,,AUTO
        24 000555   200076 451500                    STP1    @LINE$,,AUTO
        24 000556   000014 236000 25                 LDQ     12
        24 000557   200075 756100                    STQ     @ISN_INC,,AUTO
        24 000560   000242 701000 24                 TSX1    ADJUST_ISN
        24 000561   000000 011000                    NOP     0

PL6.E3A0      #018=Z8EL$POSSIBLE_REPLACE File=Z8EL.:Z8A6TSI                      SAT 08/09/97 12:20 Page:673
     2773     9622
     2774     9623    4             ISN_INC = 1;

   9623 24 000562   000001 235007                    LDA     1,DL
        24 000563   200072 470500                    LDP0    @ISN_INC,,AUTO
        24 000564   000000 755100                    STA     0,,PR0

     2775     9624    4           END;

     2776     9625    3       END DUP_FOR_REP;

   9625 24 000565   200070 221300                    LDX1  ! @COLUMN+1,,AUTO
        24 000566   000001 702211                    TSX2  ! 1,X1

     2777     9626
     2778     9627        %EJECT;
PL6.E3A0      #018=Z8EL$POSSIBLE_REPLACE File=Z8EL.:Z8A6TSI                      SAT 08/09/97 12:20 Page:674
     2779     9628    2       INSERT_TOKEN : PROC (SYMBOL$,

   9628 24 000567   200064 741300       INSERT_TOKEN STX1  ! @COLUMN,,AUTO

     2780     9629    2                            LINE,
     2781     9630    2                            COLUMN);
     2782     9631
     2783     9632    3         DCL SYMBOL$ PTR;
     2784     9633    3         DCL LINE SBIN;
     2785     9634    3         DCL COLUMN SBIN;
     2786     9635
     2787     9636    3         DCL LEX$ PTR;
     2788     9637
     2789     9638              %COPY_TO_NEW_LEX_SYMBOL (FROM$ = SYMBOL$,
     2790     9639                                       TO$ = LEX$);

   9641 24 000570   200065 470500                    LDP0    @SYMBOL$,,AUTO
        24 000571   000000 471500                    LDP1    0,,PR0
        24 000572   100010 720100                    LXL0    8,,PR1
        24 000573   000044 622010                    EAX2    36,X0
        24 000574   000000 636012                    EAQ     0,X2
        24 000575   000022 732000                    QRS     18
        24 000576   000003 036007                    ADLQ    3,DL
        24 000577   000004 506007                    DIV     4,DL
        24 000600   200102 756100                    STQ     T$+2,,AUTO
        24 000601   200102 631500                    EPPR1   T$+2,,AUTO
        24 000602   200105 451500                    STP1    T$+5,,AUTO
        24 000603   200070 633500                    EPPR3   LEX$,,AUTO
        24 000604   200104 453500                    STP3    T$+4,,AUTO
        24 000605   200104 630500                    EPPR0   T$+4,,AUTO
        24 000606   000003 631400 25                 EPPR1   3
        24 000607   000000 701000 xent               TSX1    Z8ED$NEW_HEAP
        24 000610   000000 011000                    NOP     0

   9648 24 000611   200065 470500                    LDP0    @SYMBOL$,,AUTO
        24 000612   000000 471500                    LDP1    0,,PR0
        24 000613   200070 473500                    LDP3    LEX$,,AUTO
PL6.E3A0      #018=Z8EL$POSSIBLE_REPLACE File=Z8EL.:Z8A6TSI                      SAT 08/09/97 12:20 Page:675
        24 000614   100010 235100                    LDA     8,,PR1
        24 000615   300010 755100                    STA     8,,PR3

   9649 24 000616   200070 471500                    LDP1    LEX$,,AUTO
        24 000617   100010 720100                    LXL0    8,,PR1
        24 000620   000044 621010                    EAX1    36,X0
        24 000621   000000 473500                    LDP3    0,,PR0
        24 000622   300010 722100                    LXL2    8,,PR3
        24 000623   000044 623012                    EAX3    36,X2
        24 000624   000140 100540                    MLR     fill='000'O
        24 000625   300000 000013                    ADSC9   0,,PR3                   cn=0,n=*X3
        24 000626   100000 000011                    ADSC9   0,,PR1                   cn=0,n=*X1

     2791     9654    3         LEX$ -> BASED_LEX_SYMBOL.NEXT$ = LEX_SYMBOL_QUEUE$;

   9654 24 000627   000000 236000 11                 LDQ     LEX_SYMBOL_QUEUE$
        24 000630   200070 471500                    LDP1    LEX$,,AUTO
        24 000631   100000 756100                    STQ     0,,PR1

     2792     9655    3         LEX$ -> BASED_LEX_SYMBOL.LEVEL = REPLACE$ -> REPLACE_ITEM.LEVEL - 1;

   9655 24 000632   200004 471500                    LDP1    REPLACE$,,AUTO
        24 000633   200070 473500                    LDP3    LEX$,,AUTO
        24 000634   100003 235100                    LDA     3,,PR1
        24 000635   000001 135007                    SBLA    1,DL
        24 000636   300003 755100                    STA     3,,PR3

     2793     9656    3         LEX_SYMBOL_QUEUE$ = LEX$;

   9656 24 000637   200070 236100                    LDQ     LEX$,,AUTO
        24 000640   000000 756000 11                 STQ     LEX_SYMBOL_QUEUE$

     2794     9657    3         LEX$ -> BASED_LEX_SYMBOL.LINE = LINE;

   9657 24 000641   200066 473500                    LDP3    @LINE,,AUTO
        24 000642   200070 474500                    LDP4    LEX$,,AUTO
        24 000643   300000 235100                    LDA     0,,PR3
PL6.E3A0      #018=Z8EL$POSSIBLE_REPLACE File=Z8EL.:Z8A6TSI                      SAT 08/09/97 12:20 Page:676
        24 000644   400004 755100                    STA     4,,PR4

     2795     9658    3         LEX$ -> BASED_LEX_SYMBOL.COLUMN = COLUMN;

   9658 24 000645   200067 474500                    LDP4    @COLUMN,,AUTO
        24 000646   200070 475500                    LDP5    LEX$,,AUTO
        24 000647   400000 235100                    LDA     0,,PR4
        24 000650   500005 755100                    STA     5,,PR5

     2796     9659    3         LEX$ -> BASED_LEX_SYMBOL.END_LINE = LINE;

   9659 24 000651   200070 475500                    LDP5    LEX$,,AUTO
        24 000652   300000 235100                    LDA     0,,PR3
        24 000653   500006 755100                    STA     6,,PR5

     2797     9660    3         LEX$ -> BASED_LEX_SYMBOL.END_COLUMN = COLUMN + SYMBOL$ -> BASED_LEX_SYMBOL.
              9660                  SIZE;

   9660 24 000654   000000 475500                    LDP5    0,,PR0
        24 000655   400000 236100                    LDQ     0,,PR4
        24 000656   500010 036100                    ADLQ    8,,PR5
        24 000657   200070 476500                    LDP6    LEX$,,AUTO
        24 000660   600007 756100                    STQ     7,,PR6

     2798     9661    3         LEX$ -> BASED_LEX_SYMBOL.B.DEBUG_TOKEN = REP_DEBUG_LINE;

   9661 24 000661   200070 475500                    LDP5    LEX$,,AUTO
        24 000662   200015 236100                    LDQ     REP_DEBUG_LINE,,AUTO
        24 000663   000002 772000                    QRL     2
        24 000664   500002 676100                    ERQ     2,,PR5
        24 000665   100000 376003                    ANQ     32768,DU
        24 000666   500002 656100                    ERSQ    2,,PR5

     2799     9662
     2800     9663    3         IF LEX$ -> BASED_LEX_SYMBOL.END_COLUMN > O1COM.MARGIN_R THEN

   9663 24 000667   200070 475500                    LDP5    LEX$,,AUTO
PL6.E3A0      #018=Z8EL$POSSIBLE_REPLACE File=Z8EL.:Z8A6TSI                      SAT 08/09/97 12:20 Page:677
        24 000670   500007 236100                    LDQ     7,,PR5
        24 000671   000123 116000 xsym               CMPQ    O1COM+83
        24 000672   000675 604400 24                 TMOZ    s:9665

     2801     9664    3           LEX$ -> BASED_LEX_SYMBOL.END_COLUMN = O1COM.MARGIN_R;

   9664 24 000673   000123 235000 xsym               LDA     O1COM+83
        24 000674   500007 755100                    STA     7,,PR5

     2802     9665    3       END INSERT_TOKEN;

   9665 24 000675   200064 221300                    LDX1  ! @COLUMN,,AUTO
        24 000676   000001 702211                    TSX2  ! 1,X1

     2803     9666
     2804     9667        %EJECT;
PL6.E3A0      #018=Z8EL$POSSIBLE_REPLACE File=Z8EL.:Z8A6TSI                      SAT 08/09/97 12:20 Page:678
     2805     9668    2       CALC_MAX_TOKEN_LENGTH : PROC;

   9668 24 000677   200062 741300       CALC_MAX_TO* STX1  ! SHIFT_RIGHT+1,,AUTO

     2806     9669
     2807     9670    3         CUMM_LINE_PTR$ = ADDR(NIL);

   9670 24 000700   000000 236000 25                 LDQ     0
        24 000701   200017 756100                    STQ     CUMM_LINE_PTR$,,AUTO

     2808     9671    3         CALL Z8EL$POSITION_LINE_LIST (REP_BEG_LINE,

   9671 24 000702   000007 236000 25                 LDQ     7
        24 000703   200104 756100                    STQ     T$+4,,AUTO
        24 000704   200017 630500                    EPPR0   CUMM_LINE_PTR$,,AUTO
        24 000705   200103 450500                    STP0    T$+3,,AUTO
        24 000706   200013 631500                    EPPR1   REP_BEG_LINE,,AUTO
        24 000707   200102 451500                    STP1    T$+2,,AUTO
        24 000710   200102 630500                    EPPR0   T$+2,,AUTO
        24 000711   000005 631400 25                 EPPR1   5
        24 000712   000000 701000 xent               TSX1    Z8EL$POSITION_LINE_LIST
        24 000713   000000 011000                    NOP     0

     2809     9672    3                                       CUMM_LINE_PTR$,
     2810     9673    3                                       999999999);
     2811     9674
     2812     9675              /* Calculate blank space on line */
     2813     9676
     2814     9677    3         CALL SEARCH ( NON_BLANK_COL,

   9677 24 000714   200017 470500                    LDP0    CUMM_LINE_PTR$,,AUTO
        24 000715   000012 720100                    LXL0    10,,PR0
        24 000716   000012 236100                    LDQ     10,,PR0
        24 000717   000123 116000 xsym               CMPQ    O1COM+83
        24 000720   000722 604400 24                 TMOZ    s:9677+6
        24 000721   000123 236000 xsym               LDQ     O1COM+83
        24 000722   200102 756100                    STQ     T$+2,,AUTO
PL6.E3A0      #018=Z8EL$POSSIBLE_REPLACE File=Z8EL.:Z8A6TSI                      SAT 08/09/97 12:20 Page:679
        24 000723   200014 136100                    SBLQ    REP_BEG_COLUMN,,AUTO
        24 000724   200103 756100                    STQ     T$+3,,AUTO
        24 000725   200014 236100                    LDQ     REP_BEG_COLUMN,,AUTO
        24 000726   200103 720100                    LXL0    T$+3,,AUTO
        24 000727   000000 164546                    TCT
        24 000730   000013 000010                    ADSC9   11,Q,PR0                 cn=0,n=*X0
        24 000731   000000 000000 xsym               ARG     BLANK_SCAN_TABLE
        24 000732   200027 000100                    ARG     NON_BLANK_COL,,AUTO
        24 000733   200027 235100                    LDA     NON_BLANK_COL,,AUTO
        24 000734   000033 771000                    ARL     27
        24 000735   200030 755100                    STA     CHAR_CLASS,,AUTO
        24 000736   200027 551140                    STBA    NON_BLANK_COL,'40'O,AUTO
        24 000737   200027 056100                    ASQ     NON_BLANK_COL,,AUTO

     2815     9678    3                       CHAR_CLASS,
     2816     9679    3                       BLANK_SCAN_TABLE,
     2817     9680    3                       SUBSTR(CUMM_LINE_PTR$ -> FILL_BUFFER.SOURCE_LINE,
     2818     9681    3                              0,
     2819     9682    3                              MINIMUM(O1COM.MARGIN_R, CUMM_LINE_PTR$ -> FILL_BUFFER.
              9682                                       LINE_LENGTH)),
     2820     9683    3                        REP_BEG_COLUMN);
     2821     9684
     2822     9685    3         IF CHAR_CLASS = %END_OF_LINE THEN

   9685 24 000740   000000 115003                    CMPA    0,DU
        24 000741   000746 601000 24                 TNZ     s:9688

     2823     9686    3           MAX_TOKEN_LENGTH = O1COM.MARGIN_R - REP_BEG_COLUMN;

   9686 24 000742   000123 236000 xsym               LDQ     O1COM+83
        24 000743   200014 136100                    SBLQ    REP_BEG_COLUMN,,AUTO
        24 000744   200032 756100                    STQ     MAX_TOKEN_LENGTH,,AUTO
        24 000745   000752 710000 24                 TRA     s:9690

     2824     9687    3         ELSE
     2825     9688    3           MAX_TOKEN_LENGTH = NON_BLANK_COL - REP_BEG_COLUMN - 1;

PL6.E3A0      #018=Z8EL$POSSIBLE_REPLACE File=Z8EL.:Z8A6TSI                      SAT 08/09/97 12:20 Page:680
   9688 24 000746   200027 236100                    LDQ     NON_BLANK_COL,,AUTO
        24 000747   200014 136100                    SBLQ    REP_BEG_COLUMN,,AUTO
        24 000750   000001 136007                    SBLQ    1,DL
        24 000751   200032 756100                    STQ     MAX_TOKEN_LENGTH,,AUTO

     2826     9689
     2827     9690    3       END CALC_MAX_TOKEN_LENGTH ;

   9690 24 000752   200062 221300                    LDX1  ! SHIFT_RIGHT+1,,AUTO
        24 000753   000001 702211                    TSX2  ! 1,X1

     2828     9691
     2829     9692        %EJECT;
PL6.E3A0      #018=Z8EL$POSSIBLE_REPLACE File=Z8EL.:Z8A6TSI                      SAT 08/09/97 12:20 Page:681
     2830     9693    2       DO_STRAIGHT_IN_LINE_REPLACE: PROC (ADD_BLANKS);

   9693 24 000754   200062 741300       DO_STRAIGHT* STX1  ! SHIFT_RIGHT+1,,AUTO

     2831     9694
     2832     9695    3         DCL  ADD_BLANKS    SBIN WORD;
     2833     9696
     2834     9697    3         SUBSTR(CUMM_LINE_PTR$ -> FILL_BUFFER.SOURCE_LINE,

   9697 24 000755   200017 470500                    LDP0    CUMM_LINE_PTR$,,AUTO
        24 000756   000012 720100                    LXL0    10,,PR0
        24 000757   200063 471500                    LDP1    @ADD_BLANKS,,AUTO
        24 000760   200014 236100                    LDQ     REP_BEG_COLUMN,,AUTO
        24 000761   100000 036100                    ADLQ    0,,PR1
        24 000762   200004 473500                    LDP3    REPLACE$,,AUTO
        24 000763   300002 474500                    LDP4    2,,PR3
        24 000764   400010 722100                    LXL2    8,,PR4
        24 000765   400010 723100                    LXL3    8,,PR4
        24 000766   040146 100540                    MLR     fill='040'O
        24 000767   400011 000013                    ADSC9   9,,PR4                   cn=0,n=*X3
        24 000770   000013 000012                    ADSC9   11,Q,PR0                 cn=0,n=*X2

     2835     9698    3                REP_BEG_COLUMN + ADD_BLANKS,
     2836     9699    3                REPLACE$ -> REPLACE_ITEM.TO_LIST$ -> BASED_LEX_SYMBOL.SIZE)
     2837     9700    3            = REPLACE$ -> REPLACE_ITEM.TO_LIST$ -> BASED_LEX_SYMBOL.SYMBOL;
     2838     9701
     2839     9702    3         CUMM_LINE_PTR$ -> FILL_BUFFER.LINE_LENGTH =

   9702 24 000771   300002 470500                    LDP0    2,,PR3
        24 000772   200014 236100                    LDQ     REP_BEG_COLUMN,,AUTO
        24 000773   000010 036100                    ADLQ    8,,PR0
        24 000774   200017 474500                    LDP4    CUMM_LINE_PTR$,,AUTO
        24 000775   400012 116100                    CMPQ    10,,PR4
        24 000776   001000 605000 24                 TPL     s:9702+7
        24 000777   400012 236100                    LDQ     10,,PR4
        24 001000   400012 756100                    STQ     10,,PR4

PL6.E3A0      #018=Z8EL$POSSIBLE_REPLACE File=Z8EL.:Z8A6TSI                      SAT 08/09/97 12:20 Page:682
     2840     9703    3               MAXIMUM (CUMM_LINE_PTR$ -> FILL_BUFFER.LINE_LENGTH,
     2841     9704    3                        REP_BEG_COLUMN + REPLACE$ -> REPLACE_ITEM.TO_LIST$
     2842     9705    3                                            -> BASED_LEX_SYMBOL.SIZE);
     2843     9706
     2844     9707    3         CALL INSERT_TOKEN (REPLACE$ -> REPLACE_ITEM.TO_LIST$,

   9707 24 001001   200014 630500                    EPPR0   REP_BEG_COLUMN,,AUTO
        24 001002   200067 450500                    STP0    @COLUMN,,AUTO
        24 001003   200017 236100                    LDQ     CUMM_LINE_PTR$,,AUTO
        24 001004   000004 036003                    ADLQ    4,DU
        24 001005   200066 756100                    STQ     @LINE,,AUTO
        24 001006   200004 236100                    LDQ     REPLACE$,,AUTO
        24 001007   000002 036003                    ADLQ    2,DU
        24 001010   200065 756100                    STQ     @SYMBOL$,,AUTO
        24 001011   000567 701000 24                 TSX1    INSERT_TOKEN
        24 001012   000000 011000                    NOP     0

     2845     9708    3                            CUMM_LINE_PTR$ -> FILL_BUFFER.ISN,
     2846     9709    3                            REP_BEG_COLUMN);
     2847     9710
     2848     9711    3       END DO_STRAIGHT_IN_LINE_REPLACE;

   9711 24 001013   200062 221300                    LDX1  ! SHIFT_RIGHT+1,,AUTO
        24 001014   000001 702211                    TSX2  ! 1,X1

     2849     9712
     2850     9713        %EJECT;
PL6.E3A0      #018=Z8EL$POSSIBLE_REPLACE File=Z8EL.:Z8A6TSI                      SAT 08/09/97 12:20 Page:683
     2851     9714            /* DO_REPLACE main body */
     2852     9715
     2853     9716            /* Save info from first token being deleted */
     2854     9717
     2855     9718    2       REP_BEG_LINE = LEX_SYMBOL_QUEUE$ -> BASED_LEX_SYMBOL.LINE;

   9718 24 001015   000000 470400 11                 LDP0    LEX_SYMBOL_QUEUE$
        24 001016   000004 235100                    LDA     4,,PR0
        24 001017   200013 755100                    STA     REP_BEG_LINE,,AUTO

     2856     9719    2       REP_BEG_COLUMN = LEX_SYMBOL_QUEUE$ -> BASED_LEX_SYMBOL.COLUMN;

   9719 24 001020   000005 235100                    LDA     5,,PR0
        24 001021   200014 755100                    STA     REP_BEG_COLUMN,,AUTO

     2857     9720    2       REP_DEBUG_LINE = LEX_SYMBOL_QUEUE$ -> BASED_LEX_SYMBOL.B.DEBUG_TOKEN;

   9720 24 001022   000002 236100                    LDQ     2,,PR0
        24 001023   000002 736000                    QLS     2
        24 001024   400000 376003                    ANQ     -131072,DU
        24 001025   200015 756100                    STQ     REP_DEBUG_LINE,,AUTO

     2858     9721
     2859     9722            /* Clear Scanner from RESTART_STATE */
     2860     9723    2       IF SCANNER_STATE ~= 0 THEN

   9723 24 001026   000000 235000 12                 LDA     SCANNER_STATE
        24 001027   001114 600000 24                 TZE     s:9768

     2861     9724    3         DO;

     2862     9725    3           LEX$ = LEX_SYMBOL_QUEUE$;

   9725 24 001030   000000 236000 11                 LDQ     LEX_SYMBOL_QUEUE$
        24 001031   200012 756100                    STQ     LEX$,,AUTO

     2863     9726
PL6.E3A0      #018=Z8EL$POSSIBLE_REPLACE File=Z8EL.:Z8A6TSI                      SAT 08/09/97 12:20 Page:684
     2864     9727    4           DO WHILE LEX$ -> BASED_LEX_SYMBOL.NEXT$ ~= ADDR(NIL);

   9727 24 001032   001036 710000 24                 TRA     s:9730

     2865     9728
     2866     9729    4             LEX$ = LEX$ -> BASED_LEX_SYMBOL.NEXT$;

   9729 24 001033   200012 470500                    LDP0    LEX$,,AUTO
        24 001034   000000 236100                    LDQ     0,,PR0
        24 001035   200012 756100                    STQ     LEX$,,AUTO

     2867     9730    4           END;

   9730 24 001036   200012 470500                    LDP0    LEX$,,AUTO
        24 001037   000000 236100                    LDQ     0,,PR0
        24 001040   000000 116000 25                 CMPQ    0
        24 001041   001033 601000 24                 TNZ     s:9729

     2868     9731
     2869     9732    4           DO UNTIL SCANNER_STATE = 0;

     2870     9733
     2871     9734                  %GET_BRAND_NEW_TOKEN;

   9736 24 001042   000001 631400 25                 EPPR1   1
        24 001043   000000 701000 xent               TSX1    Z8ES$SCANNER
        24 001044   000000 011000                    NOP     0

   9737 24 001045   000001 235000 2                  LDA     LEX_SYMBOL+1
        24 001046   001057 601000 24                 TNZ     s:9747

   9738 24 001047   000001 631400 25                 EPPR1   1
        24 001050   000000 701000 xent               TSX1    Z8EL$GET_NEXT_SCANNER_LINE
        24 001051   000000 011000                    NOP     0

   9739 24 001052   000001 631400 25                 EPPR1   1
        24 001053   000000 701000 xent               TSX1    Z8ES$SCANNER
PL6.E3A0      #018=Z8EL$POSSIBLE_REPLACE File=Z8EL.:Z8A6TSI                      SAT 08/09/97 12:20 Page:685
        24 001054   000000 011000                    NOP     0

   9740 24 001055   000001 235000 2                  LDA     LEX_SYMBOL+1
        24 001056   001047 600000 24                 TZE     s:9738

     2872     9743
     2873     9744                  %COPY_TO_NEW_LEX_SYMBOL (FROM$ = "ADDR(LEX_SYMBOL)",
     2874     9745                                           TO$   = HEAP$);

   9747 24 001057   000010 236000 2                  LDQ     LEX_SYMBOL+8
        24 001060   000047 036007                    ADLQ    39,DL
        24 001061   000004 506007                    DIV     4,DL
        24 001062   200102 756100                    STQ     T$+2,,AUTO
        24 001063   200102 630500                    EPPR0   T$+2,,AUTO
        24 001064   200105 450500                    STP0    T$+5,,AUTO
        24 001065   000004 236000 25                 LDQ     4
        24 001066   200104 756100                    STQ     T$+4,,AUTO
        24 001067   200104 630500                    EPPR0   T$+4,,AUTO
        24 001070   000003 631400 25                 EPPR1   3
        24 001071   000000 701000 xent               TSX1    Z8ED$NEW_HEAP
        24 001072   000000 011000                    NOP     0

   9754 24 001073   000000 470400 1                  LDP0    HEAP$
        24 001074   000010 235000 2                  LDA     LEX_SYMBOL+8
        24 001075   000010 755100                    STA     8,,PR0

   9755 24 001076   000010 720100                    LXL0    8,,PR0
        24 001077   000044 621010                    EAX1    36,X0
        24 001100   000010 722000 2                  LXL2    LEX_SYMBOL+8
        24 001101   000044 623012                    EAX3    36,X2
        24 001102   000140 100440                    MLR     fill='000'O
        24 001103   000000 000013 2                  ADSC9   LEX_SYMBOL               cn=0,n=*X3
        24 001104   000000 000011                    ADSC9   0,,PR0                   cn=0,n=*X1

     2875     9760
     2876     9761    4             LEX$ -> BASED_LEX_SYMBOL.NEXT$ = HEAP$;

PL6.E3A0      #018=Z8EL$POSSIBLE_REPLACE File=Z8EL.:Z8A6TSI                      SAT 08/09/97 12:20 Page:686
   9761 24 001105   000000 236000 1                  LDQ     HEAP$
        24 001106   200012 470500                    LDP0    LEX$,,AUTO
        24 001107   000000 756100                    STQ     0,,PR0

     2877     9762    4             LEX$ = HEAP$;

   9762 24 001110   000000 236000 1                  LDQ     HEAP$
        24 001111   200012 756100                    STQ     LEX$,,AUTO

     2878     9763    4           END;

   9763 24 001112   000000 235000 12                 LDA     SCANNER_STATE
        24 001113   001042 601000 24                 TNZ     s:9736

     2879     9764    3         END;

     2880     9765
     2881     9766
     2882     9767            /* Delete matched tokens */
     2883     9768    2       MATCH$ = REPLACE$ -> REPLACE_ITEM.FROM_LIST$;

   9768 24 001114   200004 470500                    LDP0    REPLACE$,,AUTO
        24 001115   000001 236100                    LDQ     1,,PR0
        24 001116   200011 756100                    STQ     MATCH$,,AUTO

     2884     9769
     2885     9770    3       DO UNTIL MATCH$ = ADDR(NIL);

     2886     9771
     2887     9772    3         LEX$ = LEX_SYMBOL_QUEUE$;

   9772 24 001117   000000 236000 11                 LDQ     LEX_SYMBOL_QUEUE$
        24 001120   200012 756100                    STQ     LEX$,,AUTO

     2888     9773    3         REP_END_LINE = LEX$ -> BASED_LEX_SYMBOL.END_LINE;

   9773 24 001121   200012 470500                    LDP0    LEX$,,AUTO
PL6.E3A0      #018=Z8EL$POSSIBLE_REPLACE File=Z8EL.:Z8A6TSI                      SAT 08/09/97 12:20 Page:687
        24 001122   000006 235100                    LDA     6,,PR0
        24 001123   200020 755100                    STA     REP_END_LINE,,AUTO

     2889     9774    3         REP_END_COLUMN = LEX$ -> BASED_LEX_SYMBOL.END_COLUMN;

   9774 24 001124   000007 235100                    LDA     7,,PR0
        24 001125   200021 755100                    STA     REP_END_COLUMN,,AUTO

     2890     9775    3         LEX_SYMBOL_QUEUE$ = LEX_SYMBOL_QUEUE$ -> BASED_LEX_SYMBOL.NEXT$;

   9775 24 001126   000000 471400 11                 LDP1    LEX_SYMBOL_QUEUE$
        24 001127   100000 236100                    LDQ     0,,PR1
        24 001130   000000 756000 11                 STQ     LEX_SYMBOL_QUEUE$

     2891     9776
     2892     9777    3         CALL Z8ED$DISPOSE_HEAP(LEX$,

   9777 24 001131   000010 720100                    LXL0    8,,PR0
        24 001132   000044 621010                    EAX1    36,X0
        24 001133   000000 636011                    EAQ     0,X1
        24 001134   000022 732000                    QRS     18
        24 001135   000003 036007                    ADLQ    3,DL
        24 001136   000004 506007                    DIV     4,DL
        24 001137   200102 756100                    STQ     T$+2,,AUTO
        24 001140   200102 631500                    EPPR1   T$+2,,AUTO
        24 001141   200105 451500                    STP1    T$+5,,AUTO
        24 001142   200012 633500                    EPPR3   LEX$,,AUTO
        24 001143   200104 453500                    STP3    T$+4,,AUTO
        24 001144   200104 630500                    EPPR0   T$+4,,AUTO
        24 001145   000003 631400 25                 EPPR1   3
        24 001146   000000 701000 xent               TSX1    Z8ED$DISPOSE_HEAP
        24 001147   000000 011000                    NOP     0

     2893     9778                                        %LEX_SYMBOL_ACTUAL_WORD_LEN(S$=LEX$);
     2894     9781    3                                  );
     2895     9782    3         MATCH$ = MATCH$ -> BASED_LEX_SYMBOL.NEXT$;

PL6.E3A0      #018=Z8EL$POSSIBLE_REPLACE File=Z8EL.:Z8A6TSI                      SAT 08/09/97 12:20 Page:688
   9782 24 001150   200011 470500                    LDP0    MATCH$,,AUTO
        24 001151   000000 236100                    LDQ     0,,PR0
        24 001152   200011 756100                    STQ     MATCH$,,AUTO

     2896     9783
     2897     9784    3       END;

   9784 24 001153   000000 116000 25                 CMPQ    0
        24 001154   001117 601000 24                 TNZ     s:9772

     2898     9785
     2899     9786
     2900     9787            /* Delete  matched lines for listing */
     2901     9788
     2902     9789    2       CUMM_LINE_PTR$ = ADDR(NIL);

   9789 24 001155   000000 236000 25                 LDQ     0
        24 001156   200017 756100                    STQ     CUMM_LINE_PTR$,,AUTO

     2903     9790    2       CALL Z8EL$POSITION_LINE_LIST ( REP_BEG_LINE,

   9790 24 001157   000007 236000 25                 LDQ     7
        24 001160   200104 756100                    STQ     T$+4,,AUTO
        24 001161   200017 630500                    EPPR0   CUMM_LINE_PTR$,,AUTO
        24 001162   200103 450500                    STP0    T$+3,,AUTO
        24 001163   200013 631500                    EPPR1   REP_BEG_LINE,,AUTO
        24 001164   200102 451500                    STP1    T$+2,,AUTO
        24 001165   200102 630500                    EPPR0   T$+2,,AUTO
        24 001166   000005 631400 25                 EPPR1   5
        24 001167   000000 701000 xent               TSX1    Z8EL$POSITION_LINE_LIST
        24 001170   000000 011000                    NOP     0

     2904     9791    2                                      CUMM_LINE_PTR$,
     2905     9792    2                                      999999999);
     2906     9793    2       OLD_LINE$ = CUMM_LINE_PTR$;

   9793 24 001171   200017 236100                    LDQ     CUMM_LINE_PTR$,,AUTO
PL6.E3A0      #018=Z8EL$POSSIBLE_REPLACE File=Z8EL.:Z8A6TSI                      SAT 08/09/97 12:20 Page:689
        24 001172   200041 756100                    STQ     OLD_LINE$,,AUTO

     2907     9794
     2908     9795            /* Check for pseudo text in-line replacement --           */
     2909     9796            /* (1) TO is one token within pseudo text                 */
     2910     9797            /* (2) TO starting column is in area B (cc 12 - 72)       */
     2911     9798            /* (3) the new line will not go beyond cc 72              */
     2912     9799
     2913     9800    2       TO_LIST$ = REPLACE$ -> REPLACE_ITEM.TO_LIST$;

   9800 24 001173   200004 470500                    LDP0    REPLACE$,,AUTO
        24 001174   000002 236100                    LDQ     2,,PR0
        24 001175   200040 756100                    STQ     TO_LIST$,,AUTO

     2914     9801
     2915     9802    2       IF  (TO_LIST$ = ADDR (NIL)

   9802 24 001176   000000 116000 25                 CMPQ    0
        24 001177   001207 600000 24                 TZE     s:9802+9
        24 001200   200040 471500                    LDP1    TO_LIST$,,AUTO
        24 001201   100000 236100                    LDQ     0,,PR1
        24 001202   000000 116000 25                 CMPQ    0
        24 001203   002063 601000 24                 TNZ     s:10008
        24 001204   100005 235100                    LDA     5,,PR1
        24 001205   000014 115007                    CMPA    12,DL
        24 001206   002063 604000 24                 TMI     s:10008
        24 001207   000005 234100                    SZN     5,,PR0
        24 001210   002063 605000 24                 TPL     s:10008
        24 001211   000004 234100                    SZN     4,,PR0
        24 001212   002063 605000 24                 TPL     s:10008
        24 001213   200017 236100                    LDQ     CUMM_LINE_PTR$,,AUTO
        24 001214   000000 116000 25                 CMPQ    0
        24 001215   002063 600000 24                 TZE     s:10008
        24 001216   200013 236100                    LDQ     REP_BEG_LINE,,AUTO
        24 001217   200020 116100                    CMPQ    REP_END_LINE,,AUTO
        24 001220   002063 601000 24                 TNZ     s:10008

PL6.E3A0      #018=Z8EL$POSSIBLE_REPLACE File=Z8EL.:Z8A6TSI                      SAT 08/09/97 12:20 Page:690
     2916     9803    2            OR   TO_LIST$ -> BASED_LEX_SYMBOL.NEXT$ = ADDR (NIL)
     2917     9804    2            AND  TO_LIST$ -> BASED_LEX_SYMBOL.COLUMN >= 12)
     2918     9805    2       AND REPLACE$ -> REPLACE_ITEM.TO_IS_PSEUDO_TEXT
     2919     9806    2       AND REPLACE$ -> REPLACE_ITEM.FROM_IS_PSEUDO_TEXT
     2920     9807    2       AND CUMM_LINE_PTR$ ~= ADDR(NIL)
     2921     9808    2       AND REP_BEG_LINE = REP_END_LINE THEN
     2922     9809    3         DO;

     2923     9810                /* Check item (3) above: new line <= 72 bytes */
     2924     9811
     2925     9812    3           CALL DUP_FOR_REP (CUMM_LINE_PTR$, CUMM_LINE_OFFSET);

   9812 24 001221   200016 631500                    EPPR1   CUMM_LINE_OFFSET,,AUTO
        24 001222   200072 451500                    STP1    @LINE$+1,,AUTO
        24 001223   200017 633500                    EPPR3   CUMM_LINE_PTR$,,AUTO
        24 001224   200071 453500                    STP3    LEX$+1,,AUTO
        24 001225   000473 701000 24                 TSX1    DUP_FOR_REP
        24 001226   000000 011000                    NOP     0

     2926     9813    3           REP_BEG_LINE = REP_BEG_LINE + CUMM_LINE_OFFSET;

   9813 24 001227   200013 236100                    LDQ     REP_BEG_LINE,,AUTO
        24 001230   200016 036100                    ADLQ    CUMM_LINE_OFFSET,,AUTO
        24 001231   200013 756100                    STQ     REP_BEG_LINE,,AUTO

     2927     9814    3           REP_END_LINE = REP_END_LINE + CUMM_LINE_OFFSET;

   9814 24 001232   200020 236100                    LDQ     REP_END_LINE,,AUTO
        24 001233   200016 036100                    ADLQ    CUMM_LINE_OFFSET,,AUTO
        24 001234   200020 756100                    STQ     REP_END_LINE,,AUTO

     2928     9815    3           REP_SIZE = REP_END_COLUMN - REP_BEG_COLUMN;

   9815 24 001235   200021 236100                    LDQ     REP_END_COLUMN,,AUTO
        24 001236   200014 136100                    SBLQ    REP_BEG_COLUMN,,AUTO
        24 001237   200036 756100                    STQ     REP_SIZE,,AUTO

PL6.E3A0      #018=Z8EL$POSSIBLE_REPLACE File=Z8EL.:Z8A6TSI                      SAT 08/09/97 12:20 Page:691
     2929     9816    3           SUBSTR(CUMM_LINE_PTR$ -> FILL_BUFFER.SOURCE_LINE,

   9816 24 001240   200017 470500                    LDP0    CUMM_LINE_PTR$,,AUTO
        24 001241   000012 720100                    LXL0    10,,PR0
        24 001242   000000 621006                    EAX1    0,QL
        24 001243   200014 235100                    LDA     REP_BEG_COLUMN,,AUTO
        24 001244   040145 100400                    MLR     fill='040'O
        24 001245   000010 000001 25                 ADSC9   8                        cn=0,n=1
        24 001246   000013 000011                    ADSC9   11,A,PR0                 cn=0,n=*X1

     2930     9817    3                  REP_BEG_COLUMN,
     2931     9818    3                  REP_SIZE) = ' ';
     2932     9819
     2933     9820    3           CALL CALC_MAX_TOKEN_LENGTH;

   9820 24 001247   000677 701000 24                 TSX1    CALC_MAX_TOKEN_LENGTH
        24 001250   000000 011000                    NOP     0

     2934     9821
     2935     9822    3           IF TO_LIST$ ~= ADDR (NIL)

   9822 24 001251   200040 236100                    LDQ     TO_LIST$,,AUTO
        24 001252   000000 116000 25                 CMPQ    0
        24 001253   001264 600000 24                 TZE     s:9826
        24 001254   200040 470500                    LDP0    TO_LIST$,,AUTO
        24 001255   200036 236100                    LDQ     REP_SIZE,,AUTO
        24 001256   000010 116100                    CMPQ    8,,PR0
        24 001257   001264 600000 24                 TZE     s:9826

     2936     9823    3           AND REP_SIZE ~= TO_LIST$ -> BASED_LEX_SYMBOL.SIZE THEN
     2937     9824    3             SHIFT_RIGHT = TO_LIST$ -> BASED_LEX_SYMBOL.SIZE - REP_SIZE;

   9824 24 001260   000010 236100                    LDQ     8,,PR0
        24 001261   200036 136100                    SBLQ    REP_SIZE,,AUTO
        24 001262   200061 756100                    STQ     SHIFT_RIGHT,,AUTO
        24 001263   001265 710000 24                 TRA     s:9828

PL6.E3A0      #018=Z8EL$POSSIBLE_REPLACE File=Z8EL.:Z8A6TSI                      SAT 08/09/97 12:20 Page:692
     2938     9825    3           ELSE
     2939     9826    3             SHIFT_RIGHT = 0;

   9826 24 001264   200061 450100                    STZ     SHIFT_RIGHT,,AUTO

     2940     9827
     2941     9828    3           IF  CUMM_LINE_PTR$ -> FILL_BUFFER.LINE_LENGTH + SHIFT_RIGHT <= 72

   9828 24 001265   200017 470500                    LDP0    CUMM_LINE_PTR$,,AUTO
        24 001266   000012 236100                    LDQ     10,,PR0
        24 001267   200061 036100                    ADLQ    SHIFT_RIGHT,,AUTO
        24 001270   000110 116007                    CMPQ    72,DL
        24 001271   002063 605400 24                 TPNZ    s:10008
        24 001272   200040 236100                    LDQ     TO_LIST$,,AUTO
        24 001273   000000 116000 25                 CMPQ    0
        24 001274   001300 601000 24                 TNZ     s:9828+11
        24 001275   000001 235000 17                 LDA     BUFFER+1
        24 001276   000042 115007                    CMPA    34,DL
        24 001277   001317 601000 24                 TNZ     s:9842
        24 001300   000000 116000 25                 CMPQ    0
        24 001301   002063 600000 24                 TZE     s:10008
        24 001302   200040 471500                    LDP1    TO_LIST$,,AUTO
        24 001303   100001 235100                    LDA     1,,PR1
        24 001304   000005 115007                    CMPA    5,DL
        24 001305   001317 600000 24                 TZE     s:9842
        24 001306   000025 115007                    CMPA    21,DL
        24 001307   001317 600000 24                 TZE     s:9842
        24 001310   000026 115007                    CMPA    22,DL
        24 001311   001317 600000 24                 TZE     s:9842
        24 001312   100010 720100                    LXL0    8,,PR1
        24 001313   100011 236100                    LDQ     9,,PR1
        24 001314   777000 376003                    ANQ     -512,DU
        24 001315   055000 116003                    CMPQ    23040,DU
        24 001316   002063 601000 24                 TNZ     s:10008

     2942     9829    3           AND ((TO_LIST$ = ADDR (NIL)
     2943     9830    3                 AND BUFFER.CLASS ~= %SPACE)
PL6.E3A0      #018=Z8EL$POSSIBLE_REPLACE File=Z8EL.:Z8A6TSI                      SAT 08/09/97 12:20 Page:693
     2944     9831    3              OR TO_LIST$ ~= ADDR (NIL)
     2945     9832    3                 AND (TO_LIST$ -> BASED_LEX_SYMBOL.TYPE = %USER_WORD
     2946     9833    3                      OR TO_LIST$ -> BASED_LEX_SYMBOL.TYPE = %NUMBER
     2947     9834    3                      OR TO_LIST$ -> BASED_LEX_SYMBOL.TYPE = %NUMERIC_LITERAL
     2948     9835    3                      OR SUBSTR (TO_LIST$ -> BASED_LEX_SYMBOL.SYMBOL, 0, 1) = '-' ))
              9835                               THEN
     2949     9836    4             DO;

     2950     9837
     2951     9838                    /* Check for combining tokens      */
     2952     9839                    /* e.g., (*)-FIELD1 ==> XYZ-FIELD1 */
     2953     9840                    /*       ---            ---        */
     2954     9841
     2955     9842    4               NEXT$ = LEX_SYMBOL_QUEUE$;

   9842 24 001317   000000 236000 11                 LDQ     LEX_SYMBOL_QUEUE$
        24 001320   200034 756100                    STQ     NEXT$,,AUTO

     2956     9843
     2957     9844    4               IF NEXT$ = ADDR(NIL) THEN

   9844 24 001321   000000 116000 25                 CMPQ    0
        24 001322   001412 601000 24                 TNZ     s:9881

     2958     9845    5                 DO;

     2959     9846                        %GET_BRAND_NEW_TOKEN;

   9848 24 001323   000001 631400 25                 EPPR1   1
        24 001324   000000 701000 xent               TSX1    Z8ES$SCANNER
        24 001325   000000 011000                    NOP     0

   9849 24 001326   000001 235000 2                  LDA     LEX_SYMBOL+1
        24 001327   001340 601000 24                 TNZ     s:9855

   9850 24 001330   000001 631400 25                 EPPR1   1
        24 001331   000000 701000 xent               TSX1    Z8EL$GET_NEXT_SCANNER_LINE
PL6.E3A0      #018=Z8EL$POSSIBLE_REPLACE File=Z8EL.:Z8A6TSI                      SAT 08/09/97 12:20 Page:694
        24 001332   000000 011000                    NOP     0

   9851 24 001333   000001 631400 25                 EPPR1   1
        24 001334   000000 701000 xent               TSX1    Z8ES$SCANNER
        24 001335   000000 011000                    NOP     0

   9852 24 001336   000001 235000 2                  LDA     LEX_SYMBOL+1
        24 001337   001330 600000 24                 TZE     s:9850

     2960     9855    5                   IF  LEX_SYMBOL.SIZE = 4

   9855 24 001340   000010 236000 2                  LDQ     LEX_SYMBOL+8
        24 001341   000004 116007                    CMPQ    4,DL
        24 001342   001363 601000 24                 TNZ     s:9866
        24 001343   000011 236000 2                  LDQ     LEX_SYMBOL+9
        24 001344   000002 116000 23                 CMPQ    2
        24 001345   001363 601000 24                 TNZ     s:9866

     2961     9856    5                   AND SUBSTR (LEX_SYMBOL.SYMBOL, 0, 4) = 'COPY' THEN
     2962     9857    6                     DO;

     2963     9858    6                       IF TO_LIST$ ~= ADDR (NIL)

   9858 24 001346   200040 236100                    LDQ     TO_LIST$,,AUTO
        24 001347   000000 116000 25                 CMPQ    0
        24 001350   001356 600000 24                 TZE     s:9860

     2964     9859    6                         THEN CALL DO_STRAIGHT_IN_LINE_REPLACE (0);

   9859 24 001351   000016 236000 25                 LDQ     14
        24 001352   200063 756100                    STQ     SHIFT_RIGHT+2,,AUTO
        24 001353   000754 701000 24                 TSX1    DO_STRAIGHT_IN_LINE_REPLACE
        24 001354   000000 011000                    NOP     0
        24 001355   001361 710000 24                 TRA     s:9861

     2965     9860    6                         ELSE CALL Z8EL$PROCESS_COPY;

PL6.E3A0      #018=Z8EL$POSSIBLE_REPLACE File=Z8EL.:Z8A6TSI                      SAT 08/09/97 12:20 Page:695
   9860 24 001356   000001 631400 25                 EPPR1   1
        24 001357   000000 701000 xent               TSX1    Z8EL$PROCESS_COPY
        24 001360   000000 011000                    NOP     0

     2966     9861    6                       RETURN;

   9861 24 001361   200010 221300                    LDX1  ! PICTURE_TOKEN+1,,AUTO
        24 001362   000001 702211                    TSX2  ! 1,X1

     2967     9862    6                     END;
     2968     9863                        %COPY_TO_NEW_LEX_SYMBOL(FROM$="ADDR(LEX_SYMBOL)",
     2969     9864                                                TO$ = NEXT$);

   9866 24 001363   000010 236000 2                  LDQ     LEX_SYMBOL+8
        24 001364   000047 036007                    ADLQ    39,DL
        24 001365   000004 506007                    DIV     4,DL
        24 001366   200102 756100                    STQ     T$+2,,AUTO
        24 001367   200102 630500                    EPPR0   T$+2,,AUTO
        24 001370   200105 450500                    STP0    T$+5,,AUTO
        24 001371   200034 631500                    EPPR1   NEXT$,,AUTO
        24 001372   200104 451500                    STP1    T$+4,,AUTO
        24 001373   200104 630500                    EPPR0   T$+4,,AUTO
        24 001374   000003 631400 25                 EPPR1   3
        24 001375   000000 701000 xent               TSX1    Z8ED$NEW_HEAP
        24 001376   000000 011000                    NOP     0

   9873 24 001377   200034 470500                    LDP0    NEXT$,,AUTO
        24 001400   000010 235000 2                  LDA     LEX_SYMBOL+8
        24 001401   000010 755100                    STA     8,,PR0

   9874 24 001402   200034 470500                    LDP0    NEXT$,,AUTO
        24 001403   000010 720100                    LXL0    8,,PR0
        24 001404   000044 621010                    EAX1    36,X0
        24 001405   000010 722000 2                  LXL2    LEX_SYMBOL+8
        24 001406   000044 623012                    EAX3    36,X2
        24 001407   000140 100440                    MLR     fill='000'O
        24 001410   000000 000013 2                  ADSC9   LEX_SYMBOL               cn=0,n=*X3
PL6.E3A0      #018=Z8EL$POSSIBLE_REPLACE File=Z8EL.:Z8A6TSI                      SAT 08/09/97 12:20 Page:696
        24 001411   000000 000011                    ADSC9   0,,PR0                   cn=0,n=*X1

     2970     9879    5                 END; /* If NEXT$ = null */

     2971     9880
     2972     9881    4               IF SHIFT_RIGHT > 0 THEN

   9881 24 001412   200061 235100                    LDA     SHIFT_RIGHT,,AUTO
        24 001413   001464 604400 24                 TMOZ    s:9903

     2973     9882    5                 DO;

     2974     9883    5                   SUBSTR (TEMP_CHAR60, 0, SHIFT_RIGHT) = ' ';

   9883 24 001414   000000 620005                    EAX0    0,AL
        24 001415   040140 100400                    MLR     fill='040'O
        24 001416   000010 000001 25                 ADSC9   8                        cn=0,n=1
        24 001417   200042 000010                    ADSC9   TEMP_CHAR60,,AUTO        cn=0,n=*X0

     2975     9884    5                   SUBSTR (TEMP_CHAR60, SHIFT_RIGHT, 60 - SHIFT_RIGHT)

   9884 24 001420   200017 470500                    LDP0    CUMM_LINE_PTR$,,AUTO
        24 001421   000012 720100                    LXL0    10,,PR0
        24 001422   200061 721100                    LXL1    SHIFT_RIGHT,,AUTO
        24 001423   777703 621011                    EAX1    -61,X1
        24 001424   777777 661003                    ERX1    -1,DU
        24 001425   200021 235100                    LDA     REP_END_COLUMN,,AUTO
        24 001426   200061 236100                    LDQ     SHIFT_RIGHT,,AUTO
        24 001427   040146 100505                    MLR     fill='040'O
        24 001430   000013 000074                    ADSC9   11,A,PR0                 cn=0,n=60
        24 001431   200042 000011                    ADSC9   TEMP_CHAR60,Q,AUTO       cn=0,n=*X1

     2976     9885    5                     = SUBSTR (CUMM_LINE_PTR$ -> FILL_BUFFER.SOURCE_LINE,
              9885                              REP_END_COLUMN, 60) ;
     2977     9886    5                   SUBSTR (CUMM_LINE_PTR$ -> FILL_BUFFER.SOURCE_LINE,

   9886 24 001432   777667 622005                    EAX2    -73,AL
PL6.E3A0      #018=Z8EL$POSSIBLE_REPLACE File=Z8EL.:Z8A6TSI                      SAT 08/09/97 12:20 Page:697
        24 001433   777777 662003                    ERX2    -1,DU
        24 001434   040145 100500                    MLR     fill='040'O
        24 001435   200042 000074                    ADSC9   TEMP_CHAR60,,AUTO        cn=0,n=60
        24 001436   000013 000012                    ADSC9   11,A,PR0                 cn=0,n=*X2

     2978     9887    5                           REP_END_COLUMN,
     2979     9888    5                           72 - REP_END_COLUMN)
     2980     9889    5                     = TEMP_CHAR60;
     2981     9890    5                   CUMM_LINE_PTR$ -> FILL_BUFFER.LINE_LENGTH =

   9890 24 001437   200017 470500                    LDP0    CUMM_LINE_PTR$,,AUTO
        24 001440   000012 036100                    ADLQ    10,,PR0
        24 001441   000012 756100                    STQ     10,,PR0

     2982     9891    5                     CUMM_LINE_PTR$ -> FILL_BUFFER.LINE_LENGTH + SHIFT_RIGHT;
     2983     9892
     2984     9893                        /* Update the Scanner's Buffer, Length & Column */
     2985     9894
     2986     9895    5                   SUBSTR (TEMP_CHAR60, SHIFT_RIGHT, 60 - SHIFT_RIGHT)

   9895 24 001442   000006 470400 17                 LDP0    BUFFER+6
        24 001443   000000 236000 17                 LDQ     BUFFER
        24 001444   200061 235100                    LDA     SHIFT_RIGHT,,AUTO
        24 001445   040145 100506                    MLR     fill='040'O
        24 001446   000000 000074                    ADSC9   0,Q,PR0                  cn=0,n=60
        24 001447   200042 000011                    ADSC9   TEMP_CHAR60,A,AUTO       cn=0,n=*X1

     2987     9896    5                     = SUBSTR (BUFFER_LINE, BUFFER.COLUMN, 60);
     2988     9897    5                   SUBSTR (BUFFER_LINE, BUFFER.COLUMN, 72 - BUFFER.COLUMN)

   9897 24 001450   777667 620006                    EAX0    -73,QL
        24 001451   777777 660003                    ERX0    -1,DU
        24 001452   040146 100500                    MLR     fill='040'O
        24 001453   200042 000074                    ADSC9   TEMP_CHAR60,,AUTO        cn=0,n=60
        24 001454   000000 000010                    ADSC9   0,Q,PR0                  cn=0,n=*X0

     2989     9898    5                     = TEMP_CHAR60;
PL6.E3A0      #018=Z8EL$POSSIBLE_REPLACE File=Z8EL.:Z8A6TSI                      SAT 08/09/97 12:20 Page:698
     2990     9899    5                   BUFFER.LINE_LENGTH = BUFFER.LINE_LENGTH

   9899 24 001455   000005 236000 17                 LDQ     BUFFER+5
        24 001456   200061 036100                    ADLQ    SHIFT_RIGHT,,AUTO
        24 001457   000005 756000 17                 STQ     BUFFER+5

     2991     9900    5                     + SHIFT_RIGHT;
     2992     9901    5                   BUFFER.COLUMN = BUFFER.COLUMN + SHIFT_RIGHT ;

   9901 24 001460   000000 236000 17                 LDQ     BUFFER
        24 001461   200061 036100                    ADLQ    SHIFT_RIGHT,,AUTO
        24 001462   000000 756000 17                 STQ     BUFFER

     2993     9902    5                 END; /* Shift_Right non-zero */

   9902 24 001463   001566 710000 24                 TRA     s:9920

     2994     9903    4               ELSE IF SHIFT_RIGHT < 0 THEN

   9903 24 001464   001566 605000 24                 TPL     s:9920

     2995     9904    5                 DO;

     2996     9905    5                   TEMP_CHAR1 = SUBSTR (CURRENT_BUFFER$ -> FILL_BUFFER.SOURCE_LINE,

   9905 24 001465   000000 470400 13                 LDP0    CURRENT_BUFFER$
        24 001466   000012 720100                    LXL0    10,,PR0
        24 001467   200034 471500                    LDP1    NEXT$,,AUTO
        24 001470   100005 236100                    LDQ     5,,PR1
        24 001471   200036 136100                    SBLQ    REP_SIZE,,AUTO
        24 001472   040100 100506                    MLR     fill='040'O
        24 001473   000012 600001                    ADSC9   10,Q,PR0                 cn=3,n=1
        24 001474   200031 000001                    ADSC9   TEMP_SBIN,,AUTO          cn=0,n=1

     2997     9906    5                       NEXT$ -> BASED_LEX_SYMBOL.COLUMN - REP_SIZE - 1, 1);
     2998     9907    5                   IF USERWORD_SCAN_TABLE.T (TEMP_SBIN) = %SCAN THEN

PL6.E3A0      #018=Z8EL$POSSIBLE_REPLACE File=Z8EL.:Z8A6TSI                      SAT 08/09/97 12:20 Page:699
   9907 24 001475   200031 236100                    LDQ     TEMP_SBIN,,AUTO
        24 001476   000033 732000                    QRS     27
        24 001477   000100 101406                    MRL     fill='000'O
        24 001500   000000 000001 xsym               ADSC9   USERWORD_SCAN_TABLE,Q    cn=0,n=1
        24 001501   200102 000004                    ADSC9   T$+2,,AUTO               cn=0,n=4
        24 001502   200102 236100                    LDQ     T$+2,,AUTO
        24 001503   000000 116003                    CMPQ    0,DU
        24 001504   001565 601000 24                 TNZ     s:9917

     2999     9908    6                     DO;

     3000     9909    6                       SUBSTR (CURRENT_BUFFER$ -> FILL_BUFFER.SOURCE_LINE,

   9909 24 001505   000012 720100                    LXL0    10,,PR0
        24 001506   100005 236100                    LDQ     5,,PR1
        24 001507   200036 136100                    SBLQ    REP_SIZE,,AUTO
        24 001510   200102 756100                    STQ     T$+2,,AUTO
        24 001511   200103 756100                    STQ     T$+3,,AUTO
        24 001512   000000 636010                    EAQ     0,X0
        24 001513   000022 732000                    QRS     18
        24 001514   200102 136100                    SBLQ    T$+2,,AUTO
        24 001515   000012 720100                    LXL0    10,,PR0
        24 001516   200040 473500                    LDP3    TO_LIST$,,AUTO
        24 001517   200104 756100                    STQ     T$+4,,AUTO
        24 001520   100005 236100                    LDQ     5,,PR1
        24 001521   300010 136100                    SBLQ    8,,PR3
        24 001522   200105 756100                    STQ     T$+5,,AUTO
        24 001523   200106 756100                    STQ     T$+6,,AUTO
        24 001524   000000 636010                    EAQ     0,X0
        24 001525   000022 732000                    QRS     18
        24 001526   200105 136100                    SBLQ    T$+5,,AUTO
        24 001527   000000 620006                    EAX0    0,QL
        24 001530   200106 236100                    LDQ     T$+6,,AUTO
        24 001531   200104 721100                    LXL1    T$+4,,AUTO
        24 001532   200103 235100                    LDA     T$+3,,AUTO
        24 001533   040145 100546                    MLR     fill='040'O
        24 001534   000013 000010                    ADSC9   11,Q,PR0                 cn=0,n=*X0
PL6.E3A0      #018=Z8EL$POSSIBLE_REPLACE File=Z8EL.:Z8A6TSI                      SAT 08/09/97 12:20 Page:700
        24 001535   000013 000011                    ADSC9   11,A,PR0                 cn=0,n=*X1

     3001     9910    6                           NEXT$ -> BASED_LEX_SYMBOL.COLUMN - REP_SIZE) =
     3002     9911    6                           SUBSTR (CURRENT_BUFFER$ -> FILL_BUFFER.SOURCE_LINE,
     3003     9912    6                           NEXT$ -> BASED_LEX_SYMBOL.COLUMN - TO_LIST$ ->
              9912                                    BASED_LEX_SYMBOL.SIZE);
     3004     9913    6                      SUBSTR (BUFFER_LINE, NEXT$ -> BASED_LEX_SYMBOL.COLUMN - REP_SIZE
              9913                                ) =

   9913 24 001536   200034 470500                    LDP0    NEXT$,,AUTO
        24 001537   000005 236100                    LDQ     5,,PR0
        24 001540   200036 136100                    SBLQ    REP_SIZE,,AUTO
        24 001541   200102 756100                    STQ     T$+2,,AUTO
        24 001542   200103 756100                    STQ     T$+3,,AUTO
        24 001543   000005 236000 17                 LDQ     BUFFER+5
        24 001544   200102 136100                    SBLQ    T$+2,,AUTO
        24 001545   200104 756100                    STQ     T$+4,,AUTO
        24 001546   000005 236100                    LDQ     5,,PR0
        24 001547   300010 136100                    SBLQ    8,,PR3
        24 001550   200105 756100                    STQ     T$+5,,AUTO
        24 001551   200106 756100                    STQ     T$+6,,AUTO
        24 001552   000005 236000 17                 LDQ     BUFFER+5
        24 001553   200105 136100                    SBLQ    T$+5,,AUTO
        24 001554   000006 471400 17                 LDP1    BUFFER+6
        24 001555   000000 620006                    EAX0    0,QL
        24 001556   200106 235100                    LDA     T$+6,,AUTO
        24 001557   200104 721100                    LXL1    T$+4,,AUTO
        24 001560   200103 236100                    LDQ     T$+3,,AUTO
        24 001561   040146 100545                    MLR     fill='040'O
        24 001562   100000 000010                    ADSC9   0,A,PR1                  cn=0,n=*X0
        24 001563   100000 000011                    ADSC9   0,Q,PR1                  cn=0,n=*X1

     3005     9914    6                           SUBSTR (BUFFER_LINE, NEXT$ -> BASED_LEX_SYMBOL.COLUMN -
              9914                                    TO_LIST$ -> BASED_LEX_SYMBOL.SIZE);
     3006     9915    6                     END;

   9915 24 001564   001566 710000 24                 TRA     s:9920
PL6.E3A0      #018=Z8EL$POSSIBLE_REPLACE File=Z8EL.:Z8A6TSI                      SAT 08/09/97 12:20 Page:701

     3007     9916    5                   ELSE
     3008     9917    5                     SHIFT_RIGHT = 0;

   9917 24 001565   200061 450100                    STZ     SHIFT_RIGHT,,AUTO

     3009     9918    5                 END;

     3010     9919
     3011     9920    4               IF  REP_END_COLUMN

   9920 24 001566   200034 470500                    LDP0    NEXT$,,AUTO
        24 001567   200021 236100                    LDQ     REP_END_COLUMN,,AUTO
        24 001570   000005 116100                    CMPQ    5,,PR0
        24 001571   002050 601000 24                 TNZ     s:10000
        24 001572   200013 236100                    LDQ     REP_BEG_LINE,,AUTO
        24 001573   000004 116100                    CMPQ    4,,PR0
        24 001574   002050 601000 24                 TNZ     s:10000
        24 001575   000001 235100                    LDA     1,,PR0
        24 001576   000005 115007                    CMPA    5,DL
        24 001577   001611 600000 24                 TZE     s:9929
        24 001600   000025 115007                    CMPA    21,DL
        24 001601   001611 600000 24                 TZE     s:9929
        24 001602   000026 115007                    CMPA    22,DL
        24 001603   001611 600000 24                 TZE     s:9929
        24 001604   000010 720100                    LXL0    8,,PR0
        24 001605   000011 236100                    LDQ     9,,PR0
        24 001606   777000 376003                    ANQ     -512,DU
        24 001607   055000 116003                    CMPQ    23040,DU
        24 001610   002050 601000 24                 TNZ     s:10000

     3012     9921    4                   = NEXT$ -> BASED_LEX_SYMBOL.COLUMN
     3013     9922    4               AND REP_BEG_LINE = NEXT$ -> BASED_LEX_SYMBOL.LINE
     3014     9923    4               AND ( NEXT$ -> BASED_LEX_SYMBOL.TYPE = %USER_WORD
     3015     9924    4                  OR NEXT$ -> BASED_LEX_SYMBOL.TYPE = %NUMBER
     3016     9925    4                  OR NEXT$ -> BASED_LEX_SYMBOL.TYPE = %NUMERIC_LITERAL
     3017     9926    4                  OR SUBSTR (NEXT$ -> BASED_LEX_SYMBOL.SYMBOL, 0, 1) = '-' ) THEN
PL6.E3A0      #018=Z8EL$POSSIBLE_REPLACE File=Z8EL.:Z8A6TSI                      SAT 08/09/97 12:20 Page:702
     3018     9927    5                 DO;

     3019     9928
     3020     9929    5                   IF TO_LIST$ = ADDR (NIL) THEN

   9929 24 001611   200040 236100                    LDQ     TO_LIST$,,AUTO
        24 001612   000000 116000 25                 CMPQ    0
        24 001613   001705 601000 24                 TNZ     s:9947

     3021     9930    6                     DO;

     3022     9931    6                      TEMP_CHAR1 = SUBSTR (CURRENT_BUFFER$ -> FILL_BUFFER.SOURCE_LINE,

   9931 24 001614   000000 471400 13                 LDP1    CURRENT_BUFFER$
        24 001615   100012 720100                    LXL0    10,,PR1
        24 001616   000005 236100                    LDQ     5,,PR0
        24 001617   200036 136100                    SBLQ    REP_SIZE,,AUTO
        24 001620   040100 100506                    MLR     fill='040'O
        24 001621   100012 600001                    ADSC9   10,Q,PR1                 cn=3,n=1
        24 001622   200031 000001                    ADSC9   TEMP_SBIN,,AUTO          cn=0,n=1

     3023     9932    6                                    NEXT$ -> BASED_LEX_SYMBOL.COLUMN - REP_SIZE - 1, 1
              9932                                              );
     3024     9933    6                       IF USERWORD_SCAN_TABLE.T (TEMP_SBIN) = %SCAN THEN

   9933 24 001623   200031 236100                    LDQ     TEMP_SBIN,,AUTO
        24 001624   000033 732000                    QRS     27
        24 001625   000100 101406                    MRL     fill='000'O
        24 001626   000000 000001 xsym               ADSC9   USERWORD_SCAN_TABLE,Q    cn=0,n=1
        24 001627   200102 000004                    ADSC9   T$+2,,AUTO               cn=0,n=4
        24 001630   200102 236100                    LDQ     T$+2,,AUTO
        24 001631   000000 116003                    CMPQ    0,DU
        24 001632   001701 601000 24                 TNZ     s:9942

     3025     9934    7                         DO;

     3026     9935    7                           SUBSTR (CURRENT_BUFFER$ -> FILL_BUFFER.SOURCE_LINE,
PL6.E3A0      #018=Z8EL$POSSIBLE_REPLACE File=Z8EL.:Z8A6TSI                      SAT 08/09/97 12:20 Page:703

   9935 24 001633   100012 720100                    LXL0    10,,PR1
        24 001634   000005 236100                    LDQ     5,,PR0
        24 001635   200036 136100                    SBLQ    REP_SIZE,,AUTO
        24 001636   200102 756100                    STQ     T$+2,,AUTO
        24 001637   200103 756100                    STQ     T$+3,,AUTO
        24 001640   000000 636010                    EAQ     0,X0
        24 001641   000022 732000                    QRS     18
        24 001642   200102 136100                    SBLQ    T$+2,,AUTO
        24 001643   100012 720100                    LXL0    10,,PR1
        24 001644   200104 756100                    STQ     T$+4,,AUTO
        24 001645   000000 636010                    EAQ     0,X0
        24 001646   000022 732000                    QRS     18
        24 001647   000005 136100                    SBLQ    5,,PR0
        24 001650   000005 235100                    LDA     5,,PR0
        24 001651   000000 620006                    EAX0    0,QL
        24 001652   200104 721100                    LXL1    T$+4,,AUTO
        24 001653   200103 236100                    LDQ     T$+3,,AUTO
        24 001654   040146 100545                    MLR     fill='040'O
        24 001655   100013 000010                    ADSC9   11,A,PR1                 cn=0,n=*X0
        24 001656   100013 000011                    ADSC9   11,Q,PR1                 cn=0,n=*X1

     3027     9936    7                                   NEXT$ -> BASED_LEX_SYMBOL.COLUMN - REP_SIZE) =
     3028     9937    7                               SUBSTR (CURRENT_BUFFER$ -> FILL_BUFFER.SOURCE_LINE,
     3029     9938    7                                       NEXT$ -> BASED_LEX_SYMBOL.COLUMN);
     3030     9939    7                           SUBSTR (BUFFER_LINE, NEXT$ -> BASED_LEX_SYMBOL.COLUMN -
              9939                                    REP_SIZE) =

   9939 24 001657   200034 470500                    LDP0    NEXT$,,AUTO
        24 001660   000005 236100                    LDQ     5,,PR0
        24 001661   200036 136100                    SBLQ    REP_SIZE,,AUTO
        24 001662   200102 756100                    STQ     T$+2,,AUTO
        24 001663   200103 756100                    STQ     T$+3,,AUTO
        24 001664   000005 236000 17                 LDQ     BUFFER+5
        24 001665   200102 136100                    SBLQ    T$+2,,AUTO
        24 001666   200104 756100                    STQ     T$+4,,AUTO
        24 001667   000005 236000 17                 LDQ     BUFFER+5
PL6.E3A0      #018=Z8EL$POSSIBLE_REPLACE File=Z8EL.:Z8A6TSI                      SAT 08/09/97 12:20 Page:704
        24 001670   000005 136100                    SBLQ    5,,PR0
        24 001671   000005 235100                    LDA     5,,PR0
        24 001672   000006 471400 17                 LDP1    BUFFER+6
        24 001673   000000 620006                    EAX0    0,QL
        24 001674   200104 721100                    LXL1    T$+4,,AUTO
        24 001675   200103 236100                    LDQ     T$+3,,AUTO
        24 001676   040146 100545                    MLR     fill='040'O
        24 001677   100000 000010                    ADSC9   0,A,PR1                  cn=0,n=*X0
        24 001700   100000 000011                    ADSC9   0,Q,PR1                  cn=0,n=*X1

     3031     9940    7                               SUBSTR (BUFFER_LINE, NEXT$ -> BASED_LEX_SYMBOL.COLUMN);
     3032     9941    7                         END;

     3033     9942    6                       LEX_SYMBOL_QUEUE$ = NEXT$;

   9942 24 001701   200034 236100                    LDQ     NEXT$,,AUTO
        24 001702   000000 756000 11                 STQ     LEX_SYMBOL_QUEUE$

     3034     9943
     3035     9944    6                       RETURN;

   9944 24 001703   200010 221300                    LDX1  ! PICTURE_TOKEN+1,,AUTO
        24 001704   000001 702211                    TSX2  ! 1,X1

     3036     9945
     3037     9946    6                     END;
     3038     9947    5                   BLANK_SPACE = REP_SIZE - TO_LIST$ -> BASED_LEX_SYMBOL.SIZE;

   9947 24 001705   200040 471500                    LDP1    TO_LIST$,,AUTO
        24 001706   200036 236100                    LDQ     REP_SIZE,,AUTO
        24 001707   100010 136100                    SBLQ    8,,PR1
        24 001710   200037 756100                    STQ     BLANK_SPACE,,AUTO

     3039     9948    5                   CALL DO_STRAIGHT_IN_LINE_REPLACE (BLANK_SPACE + SHIFT_RIGHT);

   9948 24 001711   200061 036100                    ADLQ    SHIFT_RIGHT,,AUTO
        24 001712   200107 756100                    STQ     T$+7,,AUTO
PL6.E3A0      #018=Z8EL$POSSIBLE_REPLACE File=Z8EL.:Z8A6TSI                      SAT 08/09/97 12:20 Page:705
        24 001713   200107 633500                    EPPR3   T$+7,,AUTO
        24 001714   200063 453500                    STP3    SHIFT_RIGHT+2,,AUTO
        24 001715   000754 701000 24                 TSX1    DO_STRAIGHT_IN_LINE_REPLACE
        24 001716   000000 011000                    NOP     0

     3040     9949    5                   LEX$ = LEX_SYMBOL_QUEUE$;

   9949 24 001717   000000 236000 11                 LDQ     LEX_SYMBOL_QUEUE$
        24 001720   200012 756100                    STQ     LEX$,,AUTO

     3041     9950    5                   SAVE_SIZE = LEX$ -> BASED_LEX_SYMBOL.SIZE;

   9950 24 001721   200012 470500                    LDP0    LEX$,,AUTO
        24 001722   000010 235100                    LDA     8,,PR0
        24 001723   200033 755100                    STA     SAVE_SIZE,,AUTO

     3042     9951    5                   LEX$ -> BASED_LEX_SYMBOL.SIZE

   9951 24 001724   200034 471500                    LDP1    NEXT$,,AUTO
        24 001725   000010 236100                    LDQ     8,,PR0
        24 001726   100010 036100                    ADLQ    8,,PR1
        24 001727   000010 756100                    STQ     8,,PR0

     3043     9952    5                     = LEX$ -> BASED_LEX_SYMBOL.SIZE
     3044     9953    5                     + NEXT$ -> BASED_LEX_SYMBOL.SIZE ;
     3045     9954
     3046     9955                        %COPY_TO_NEW_LEX_SYMBOL (FROM$ = LEX$,
     3047     9956                                                 TO$   = NEW$);

   9958 24 001730   200012 470500                    LDP0    LEX$,,AUTO
        24 001731   000010 720100                    LXL0    8,,PR0
        24 001732   000044 621010                    EAX1    36,X0
        24 001733   000000 636011                    EAQ     0,X1
        24 001734   000022 732000                    QRS     18
        24 001735   000003 036007                    ADLQ    3,DL
        24 001736   000004 506007                    DIV     4,DL
        24 001737   200102 756100                    STQ     T$+2,,AUTO
PL6.E3A0      #018=Z8EL$POSSIBLE_REPLACE File=Z8EL.:Z8A6TSI                      SAT 08/09/97 12:20 Page:706
        24 001740   200102 631500                    EPPR1   T$+2,,AUTO
        24 001741   200105 451500                    STP1    T$+5,,AUTO
        24 001742   200035 633500                    EPPR3   NEW$,,AUTO
        24 001743   200104 453500                    STP3    T$+4,,AUTO
        24 001744   200104 630500                    EPPR0   T$+4,,AUTO
        24 001745   000003 631400 25                 EPPR1   3
        24 001746   000000 701000 xent               TSX1    Z8ED$NEW_HEAP
        24 001747   000000 011000                    NOP     0

   9965 24 001750   200012 470500                    LDP0    LEX$,,AUTO
        24 001751   200035 471500                    LDP1    NEW$,,AUTO
        24 001752   000010 235100                    LDA     8,,PR0
        24 001753   100010 755100                    STA     8,,PR1

   9966 24 001754   200035 470500                    LDP0    NEW$,,AUTO
        24 001755   000010 720100                    LXL0    8,,PR0
        24 001756   000044 621010                    EAX1    36,X0
        24 001757   200012 471500                    LDP1    LEX$,,AUTO
        24 001760   100010 722100                    LXL2    8,,PR1
        24 001761   000044 623012                    EAX3    36,X2
        24 001762   000140 100540                    MLR     fill='000'O
        24 001763   100000 000013                    ADSC9   0,,PR1                   cn=0,n=*X3
        24 001764   000000 000011                    ADSC9   0,,PR0                   cn=0,n=*X1

     3048     9971
     3049     9972    5                   SUBSTR (NEW$ -> BASED_LEX_SYMBOL.SYMBOL,

   9972 24 001765   200035 470500                    LDP0    NEW$,,AUTO
        24 001766   000010 720100                    LXL0    8,,PR0
        24 001767   200034 471500                    LDP1    NEXT$,,AUTO
        24 001770   100010 721100                    LXL1    8,,PR1
        24 001771   100010 722100                    LXL2    8,,PR1
        24 001772   200033 235100                    LDA     SAVE_SIZE,,AUTO
        24 001773   040145 100540                    MLR     fill='040'O
        24 001774   100011 000012                    ADSC9   9,,PR1                   cn=0,n=*X2
        24 001775   000011 000011                    ADSC9   9,A,PR0                  cn=0,n=*X1

PL6.E3A0      #018=Z8EL$POSSIBLE_REPLACE File=Z8EL.:Z8A6TSI                      SAT 08/09/97 12:20 Page:707
     3050     9973    5                           SAVE_SIZE,
     3051     9974    5                           NEXT$ -> BASED_LEX_SYMBOL.SIZE)
     3052     9975    5                     = NEXT$ -> BASED_LEX_SYMBOL.SYMBOL;
     3053     9976
     3054     9977    5                   LEX$ -> BASED_LEX_SYMBOL.SIZE = SAVE_SIZE;

   9977 24 001776   200012 470500                    LDP0    LEX$,,AUTO
        24 001777   000010 755100                    STA     8,,PR0

     3055     9978    5                   LEX_SYMBOL_QUEUE$ = NEW$;

   9978 24 002000   200035 236100                    LDQ     NEW$,,AUTO
        24 002001   000000 756000 11                 STQ     LEX_SYMBOL_QUEUE$

     3056     9979    5                   NEW$ -> BASED_LEX_SYMBOL.NEXT$

   9979 24 002002   200034 470500                    LDP0    NEXT$,,AUTO
        24 002003   000000 236100                    LDQ     0,,PR0
        24 002004   200035 471500                    LDP1    NEW$,,AUTO
        24 002005   100000 756100                    STQ     0,,PR1

     3057     9980    5                     = NEXT$ -> BASED_LEX_SYMBOL.NEXT$;
     3058     9981
     3059     9982                        /* DISPOSE of LEX$ and NEXT$ tokens. */
     3060     9983
     3061     9984    5                   CALL Z8ED$DISPOSE_HEAP(LEX$,

   9984 24 002006   200012 470500                    LDP0    LEX$,,AUTO
        24 002007   000010 720100                    LXL0    8,,PR0
        24 002010   000044 621010                    EAX1    36,X0
        24 002011   000000 636011                    EAQ     0,X1
        24 002012   000022 732000                    QRS     18
        24 002013   000003 036007                    ADLQ    3,DL
        24 002014   000004 506007                    DIV     4,DL
        24 002015   200102 756100                    STQ     T$+2,,AUTO
        24 002016   200102 631500                    EPPR1   T$+2,,AUTO
        24 002017   200105 451500                    STP1    T$+5,,AUTO
PL6.E3A0      #018=Z8EL$POSSIBLE_REPLACE File=Z8EL.:Z8A6TSI                      SAT 08/09/97 12:20 Page:708
        24 002020   200012 633500                    EPPR3   LEX$,,AUTO
        24 002021   200104 453500                    STP3    T$+4,,AUTO
        24 002022   200104 630500                    EPPR0   T$+4,,AUTO
        24 002023   000003 631400 25                 EPPR1   3
        24 002024   000000 701000 xent               TSX1    Z8ED$DISPOSE_HEAP
        24 002025   000000 011000                    NOP     0

     3062     9985                                %LEX_SYMBOL_ACTUAL_WORD_LEN(S$=LEX$);
     3063     9988    5                          );
     3064     9989    5                   CALL Z8ED$DISPOSE_HEAP(NEXT$,

   9989 24 002026   200034 470500                    LDP0    NEXT$,,AUTO
        24 002027   000010 720100                    LXL0    8,,PR0
        24 002030   000044 621010                    EAX1    36,X0
        24 002031   000000 636011                    EAQ     0,X1
        24 002032   000022 732000                    QRS     18
        24 002033   000003 036007                    ADLQ    3,DL
        24 002034   000004 506007                    DIV     4,DL
        24 002035   200102 756100                    STQ     T$+2,,AUTO
        24 002036   200102 631500                    EPPR1   T$+2,,AUTO
        24 002037   200105 451500                    STP1    T$+5,,AUTO
        24 002040   200034 633500                    EPPR3   NEXT$,,AUTO
        24 002041   200104 453500                    STP3    T$+4,,AUTO
        24 002042   200104 630500                    EPPR0   T$+4,,AUTO
        24 002043   000003 631400 25                 EPPR1   3
        24 002044   000000 701000 xent               TSX1    Z8ED$DISPOSE_HEAP
        24 002045   000000 011000                    NOP     0

     3065     9990                                %LEX_SYMBOL_ACTUAL_WORD_LEN(S$=NEXT$);
     3066     9993    5                          );
     3067     9994
     3068     9995    5                   RETURN;

   9995 24 002046   200010 221300                    LDX1  ! PICTURE_TOKEN+1,,AUTO
        24 002047   000001 702211                    TSX2  ! 1,X1

     3069     9996
PL6.E3A0      #018=Z8EL$POSSIBLE_REPLACE File=Z8EL.:Z8A6TSI                      SAT 08/09/97 12:20 Page:709
     3070     9997    5                 END; /* If LEX$_end_column + 1 = NEXT$_column */
     3071     9998    4               ELSE
     3072     9999    5                 DO;

     3073    10000    5                   LEX_SYMBOL_QUEUE$ = NEXT$;

  10000 24 002050   200034 236100                    LDQ     NEXT$,,AUTO
        24 002051   000000 756000 11                 STQ     LEX_SYMBOL_QUEUE$

     3074    10001    5                   IF TO_LIST$ ~= ADDR (NIL) THEN

  10001 24 002052   200040 236100                    LDQ     TO_LIST$,,AUTO
        24 002053   000000 116000 25                 CMPQ    0
        24 002054   002061 600000 24                 TZE     s:10003

     3075    10002    5                     CALL DO_STRAIGHT_IN_LINE_REPLACE (0);

  10002 24 002055   000016 236000 25                 LDQ     14
        24 002056   200063 756100                    STQ     SHIFT_RIGHT+2,,AUTO
        24 002057   000754 701000 24                 TSX1    DO_STRAIGHT_IN_LINE_REPLACE
        24 002060   000000 011000                    NOP     0

     3076    10003    5                   RETURN;

  10003 24 002061   200010 221300                    LDX1  ! PICTURE_TOKEN+1,,AUTO
        24 002062   000001 702211                    TSX2  ! 1,X1

     3077    10004    5                 END;
     3078    10005    4             END; /* If Max_Token_Length >= Replacement symbol size */
     3079    10006    3         END; /* If NEXT$ = null & "TO" is area B & ==from== BY ==to== */
     3080    10007
     3081    10008    2       IF CUMM_LINE_PTR$ ~= ADDR(NIL) THEN

  10008 24 002063   200017 236100                    LDQ     CUMM_LINE_PTR$,,AUTO
        24 002064   000000 116000 25                 CMPQ    0
        24 002065   002256 600000 24                 TZE     s:10070

PL6.E3A0      #018=Z8EL$POSSIBLE_REPLACE File=Z8EL.:Z8A6TSI                      SAT 08/09/97 12:20 Page:710
     3082    10009    3         DO;

     3083    10010    3           IF REP_BEG_LINE = REP_END_LINE THEN

  10010 24 002066   200013 236100                    LDQ     REP_BEG_LINE,,AUTO
        24 002067   200020 116100                    CMPQ    REP_END_LINE,,AUTO
        24 002070   002117 601000 24                 TNZ     s:10021

     3084    10011    4             DO;

     3085    10012    4               CALL DUP_FOR_REP (CUMM_LINE_PTR$, CUMM_LINE_OFFSET);

  10012 24 002071   200016 630500                    EPPR0   CUMM_LINE_OFFSET,,AUTO
        24 002072   200072 450500                    STP0    @LINE$+1,,AUTO
        24 002073   200017 631500                    EPPR1   CUMM_LINE_PTR$,,AUTO
        24 002074   200071 451500                    STP1    LEX$+1,,AUTO
        24 002075   000473 701000 24                 TSX1    DUP_FOR_REP
        24 002076   000000 011000                    NOP     0

     3086    10013    4               REP_BEG_LINE = REP_BEG_LINE + CUMM_LINE_OFFSET;

  10013 24 002077   200013 236100                    LDQ     REP_BEG_LINE,,AUTO
        24 002100   200016 036100                    ADLQ    CUMM_LINE_OFFSET,,AUTO
        24 002101   200013 756100                    STQ     REP_BEG_LINE,,AUTO

     3087    10014    4               REP_END_LINE = REP_END_LINE + CUMM_LINE_OFFSET;

  10014 24 002102   200020 236100                    LDQ     REP_END_LINE,,AUTO
        24 002103   200016 036100                    ADLQ    CUMM_LINE_OFFSET,,AUTO
        24 002104   200020 756100                    STQ     REP_END_LINE,,AUTO

     3088    10015    4               SUBSTR(CUMM_LINE_PTR$ -> FILL_BUFFER.SOURCE_LINE,

  10015 24 002105   200017 470500                    LDP0    CUMM_LINE_PTR$,,AUTO
        24 002106   000012 720100                    LXL0    10,,PR0
        24 002107   200021 236100                    LDQ     REP_END_COLUMN,,AUTO
        24 002110   200014 136100                    SBLQ    REP_BEG_COLUMN,,AUTO
PL6.E3A0      #018=Z8EL$POSSIBLE_REPLACE File=Z8EL.:Z8A6TSI                      SAT 08/09/97 12:20 Page:711
        24 002111   000000 621006                    EAX1    0,QL
        24 002112   200014 235100                    LDA     REP_BEG_COLUMN,,AUTO
        24 002113   040145 100400                    MLR     fill='040'O
        24 002114   000010 000001 25                 ADSC9   8                        cn=0,n=1
        24 002115   000013 000011                    ADSC9   11,A,PR0                 cn=0,n=*X1

     3089    10016    4                      REP_BEG_COLUMN,
     3090    10017    4                      REP_END_COLUMN - REP_BEG_COLUMN) = ' ';
     3091    10018    4             END;

  10018 24 002116   002256 710000 24                 TRA     s:10070

     3092    10019    3           ELSE
     3093    10020    4             DO;

     3094    10021    4               CALL DUP_FOR_REP (CUMM_LINE_PTR$, CUMM_LINE_OFFSET);

  10021 24 002117   200016 630500                    EPPR0   CUMM_LINE_OFFSET,,AUTO
        24 002120   200072 450500                    STP0    @LINE$+1,,AUTO
        24 002121   200017 631500                    EPPR1   CUMM_LINE_PTR$,,AUTO
        24 002122   200071 451500                    STP1    LEX$+1,,AUTO
        24 002123   000473 701000 24                 TSX1    DUP_FOR_REP
        24 002124   000000 011000                    NOP     0

     3095    10022    4               REP_BEG_LINE = REP_BEG_LINE + CUMM_LINE_OFFSET;

  10022 24 002125   200013 236100                    LDQ     REP_BEG_LINE,,AUTO
        24 002126   200016 036100                    ADLQ    CUMM_LINE_OFFSET,,AUTO
        24 002127   200013 756100                    STQ     REP_BEG_LINE,,AUTO

     3096    10023    4               REP_END_LINE = REP_END_LINE + CUMM_LINE_OFFSET;

  10023 24 002130   200020 236100                    LDQ     REP_END_LINE,,AUTO
        24 002131   200016 036100                    ADLQ    CUMM_LINE_OFFSET,,AUTO
        24 002132   200020 756100                    STQ     REP_END_LINE,,AUTO

     3097    10024
PL6.E3A0      #018=Z8EL$POSSIBLE_REPLACE File=Z8EL.:Z8A6TSI                      SAT 08/09/97 12:20 Page:712
     3098    10025
     3099    10026    4               SUBSTR(CUMM_LINE_PTR$ -> FILL_BUFFER.SOURCE_LINE,

  10026 24 002133   200017 470500                    LDP0    CUMM_LINE_PTR$,,AUTO
        24 002134   000012 720100                    LXL0    10,,PR0
        24 002135   000012 236100                    LDQ     10,,PR0
        24 002136   000123 116000 xsym               CMPQ    O1COM+83
        24 002137   002141 604400 24                 TMOZ    s:10026+6
        24 002140   000123 236000 xsym               LDQ     O1COM+83
        24 002141   200014 136100                    SBLQ    REP_BEG_COLUMN,,AUTO
        24 002142   000000 621006                    EAX1    0,QL
        24 002143   200014 235100                    LDA     REP_BEG_COLUMN,,AUTO
        24 002144   040145 100400                    MLR     fill='040'O
        24 002145   000010 000001 25                 ADSC9   8                        cn=0,n=1
        24 002146   000013 000011                    ADSC9   11,A,PR0                 cn=0,n=*X1

     3100    10027    4                      REP_BEG_COLUMN,
     3101    10028    4                      MINIMUM (O1COM.MARGIN_R, CUMM_LINE_PTR$ -> FILL_BUFFER.
             10028                               LINE_LENGTH)
     3102    10029    4                          - REP_BEG_COLUMN) = ' ';
     3103    10030
     3104    10031    4                L$ = CUMM_LINE_PTR$;

  10031 24 002147   200017 236100                    LDQ     CUMM_LINE_PTR$,,AUTO
        24 002150   200022 756100                    STQ     L$,,AUTO

     3105    10032
     3106    10033    5                DO WHILE L$ ~= ADDR(NIL)

  10033 24 002151   002204 710000 24                 TRA     s:10052

     3107    10034    5                     AND L$ -> FILL_BUFFER.NEXT$ ~= ADDR(NIL)
     3108    10035    5                     AND L$ -> FILL_BUFFER.NEXT$ -> FILL_BUFFER.ISN < REP_END_LINE;
     3109    10036
     3110    10037    5                 IF L$ -> FILL_BUFFER.NEXT$ -> FILL_BUFFER.LINE_TYPE.NEW_REP_LINE THEN

  10037 24 002152   200022 470500                    LDP0    L$,,AUTO
PL6.E3A0      #018=Z8EL$POSSIBLE_REPLACE File=Z8EL.:Z8A6TSI                      SAT 08/09/97 12:20 Page:713
        24 002153   000002 471500                    LDP1    2,,PR0
        24 002154   100011 430100                    FSZN    9,,PR1
        24 002155   002174 605000 24                 TPL     s:10046

     3111    10038    6                    DO;

     3112    10039    6                      TL$ = L$ -> FILL_BUFFER.NEXT$;

  10039 24 002156   000002 236100                    LDQ     2,,PR0
        24 002157   200023 756100                    STQ     TL$,,AUTO

     3113    10040    6                      L$ -> FILL_BUFFER.NEXT$ = TL$ -> FILL_BUFFER.NEXT$;

  10040 24 002160   200023 471500                    LDP1    TL$,,AUTO
        24 002161   100002 236100                    LDQ     2,,PR1
        24 002162   000002 756100                    STQ     2,,PR0

     3114    10041    6                      CALL Z8ED$DISPOSE_HEAP (TL$,

  10041 24 002163   000012 236000 25                 LDQ     10
        24 002164   200103 756100                    STQ     T$+3,,AUTO
        24 002165   200023 630500                    EPPR0   TL$,,AUTO
        24 002166   200102 450500                    STP0    T$+2,,AUTO
        24 002167   200102 630500                    EPPR0   T$+2,,AUTO
        24 002170   000003 631400 25                 EPPR1   3
        24 002171   000000 701000 xent               TSX1    Z8ED$DISPOSE_HEAP
        24 002172   000000 011000                    NOP     0

     3115    10042    6                                              %MAX_INPUT_BUFFER_LEN);
     3116    10043    6                    END;

  10043 24 002173   002204 710000 24                 TRA     s:10052

     3117    10044    5                  ELSE
     3118    10045    6                    DO;

     3119    10046    6                      IF NOT L$ -> FILL_BUFFER.NEXT$ -> FILL_BUFFER.LINE_TYPE.
PL6.E3A0      #018=Z8EL$POSSIBLE_REPLACE File=Z8EL.:Z8A6TSI                      SAT 08/09/97 12:20 Page:714
             10046                               OLD_REP_LINE THEN

  10046 24 002174   100011 236100                    LDQ     9,,PR1
        24 002175   020000 316003                    CANQ    8192,DU
        24 002176   002201 601000 24                 TNZ     s:10049

     3120    10047    6                       L$ -> FILL_BUFFER.NEXT$ -> FILL_BUFFER.LINE_TYPE.OLD_REP_LINE =
             10047                                 TRUE;

  10047 24 002177   020000 236003                    LDQ     8192,DU
        24 002200   100011 256100                    ORSQ    9,,PR1

     3121    10048
     3122    10049    6                      L$ = L$ -> FILL_BUFFER.NEXT$;

  10049 24 002201   200022 470500                    LDP0    L$,,AUTO
        24 002202   000002 236100                    LDQ     2,,PR0
        24 002203   200022 756100                    STQ     L$,,AUTO

     3123    10050    6                    END;

     3124    10051
     3125    10052    5                END;  /* DO WHILE */

  10052 24 002204   200022 236100                    LDQ     L$,,AUTO
        24 002205   000000 116000 25                 CMPQ    0
        24 002206   002217 600000 24                 TZE     s:10054
        24 002207   200022 470500                    LDP0    L$,,AUTO
        24 002210   000002 236100                    LDQ     2,,PR0
        24 002211   000000 116000 25                 CMPQ    0
        24 002212   002217 600000 24                 TZE     s:10054
        24 002213   000002 471500                    LDP1    2,,PR0
        24 002214   100004 236100                    LDQ     4,,PR1
        24 002215   200020 116100                    CMPQ    REP_END_LINE,,AUTO
        24 002216   002152 604000 24                 TMI     s:10037

     3126    10053
PL6.E3A0      #018=Z8EL$POSSIBLE_REPLACE File=Z8EL.:Z8A6TSI                      SAT 08/09/97 12:20 Page:715
     3127    10054    4                CALL Z8EL$POSITION_LINE_LIST (REP_END_LINE,

  10054 24 002217   000007 236000 25                 LDQ     7
        24 002220   200104 756100                    STQ     T$+4,,AUTO
        24 002221   200022 630500                    EPPR0   L$,,AUTO
        24 002222   200103 450500                    STP0    T$+3,,AUTO
        24 002223   200020 631500                    EPPR1   REP_END_LINE,,AUTO
        24 002224   200102 451500                    STP1    T$+2,,AUTO
        24 002225   200102 630500                    EPPR0   T$+2,,AUTO
        24 002226   000005 631400 25                 EPPR1   5
        24 002227   000000 701000 xent               TSX1    Z8EL$POSITION_LINE_LIST
        24 002230   000000 011000                    NOP     0

     3128    10055    4                                              L$,
     3129    10056    4                                              999999999);
     3130    10057
     3131    10058    4                IF L$ ~= ADDR(NIL) THEN

  10058 24 002231   200022 236100                    LDQ     L$,,AUTO
        24 002232   000000 116000 25                 CMPQ    0
        24 002233   002256 600000 24                 TZE     s:10070

     3132    10059    5                  DO;

     3133    10060    5                    CALL DUP_FOR_REP (L$, CUMM_LINE_OFFSET);

  10060 24 002234   200016 630500                    EPPR0   CUMM_LINE_OFFSET,,AUTO
        24 002235   200072 450500                    STP0    @LINE$+1,,AUTO
        24 002236   200022 631500                    EPPR1   L$,,AUTO
        24 002237   200071 451500                    STP1    LEX$+1,,AUTO
        24 002240   000473 701000 24                 TSX1    DUP_FOR_REP
        24 002241   000000 011000                    NOP     0

     3134    10061    5                    REP_END_LINE = REP_END_LINE + CUMM_LINE_OFFSET;

  10061 24 002242   200020 236100                    LDQ     REP_END_LINE,,AUTO
        24 002243   200016 036100                    ADLQ    CUMM_LINE_OFFSET,,AUTO
PL6.E3A0      #018=Z8EL$POSSIBLE_REPLACE File=Z8EL.:Z8A6TSI                      SAT 08/09/97 12:20 Page:716
        24 002244   200020 756100                    STQ     REP_END_LINE,,AUTO

     3135    10062    5                    SUBSTR(L$ -> FILL_BUFFER.SOURCE_LINE,

  10062 24 002245   200022 470500                    LDP0    L$,,AUTO
        24 002246   000012 720100                    LXL0    10,,PR0
        24 002247   200021 236100                    LDQ     REP_END_COLUMN,,AUTO
        24 002250   000122 136000 xsym               SBLQ    O1COM+82
        24 002251   000001 621006                    EAX1    1,QL
        24 002252   000122 235000 xsym               LDA     O1COM+82
        24 002253   040145 100400                    MLR     fill='040'O
        24 002254   000010 000001 25                 ADSC9   8                        cn=0,n=1
        24 002255   000012 600011                    ADSC9   10,A,PR0                 cn=3,n=*X1

     3136    10063    5                           O1COM.AREA_A_COLUMN_START - 1,
     3137    10064    5                           REP_END_COLUMN - (O1COM.AREA_A_COLUMN_START - 1)) = ' ';
     3138    10065    5                  END;

     3139    10066    4              END;

     3140    10067    3         END;

     3141    10068
     3142    10069
     3143    10070    2       IF REPLACE$ -> REPLACE_ITEM.TO_IS_PSEUDO_TEXT THEN

  10070 24 002256   200004 470500                    LDP0    REPLACE$,,AUTO
        24 002257   000005 234100                    SZN     5,,PR0
        24 002260   002650 605000 24                 TPL     s:10206

     3144    10071    3         DO;

     3145    10072    3           IF REPLACE$ -> REPLACE_ITEM.TO_PSEUDO_TEXT_LINES$ ~= ADDR(NIL) THEN

  10072 24 002261   000006 236100                    LDQ     6,,PR0
        24 002262   000000 116000 25                 CMPQ    0
        24 002263   003043 600000 24                 TZE     s:10297
PL6.E3A0      #018=Z8EL$POSSIBLE_REPLACE File=Z8EL.:Z8A6TSI                      SAT 08/09/97 12:20 Page:717

     3146    10073    4             DO;

     3147    10074    4               CALL SPLIT_LINE (REP_BEG_LINE,

  10074 24 002264   200017 631500                    EPPR1   CUMM_LINE_PTR$,,AUTO
        24 002265   200065 451500                    STP1    @COLUMN+1,,AUTO
        24 002266   200014 633500                    EPPR3   REP_BEG_COLUMN,,AUTO
        24 002267   200064 453500                    STP3    @ADD_BLANKS+1,,AUTO
        24 002270   200013 634500                    EPPR4   REP_BEG_LINE,,AUTO
        24 002271   200063 454500                    STP4    SHIFT_RIGHT+2,,AUTO
        24 002272   000316 701000 24                 TSX1    SPLIT_LINE
        24 002273   000000 011000                    NOP     0

     3148    10075    4                                REP_BEG_COLUMN,
     3149    10076    4                                CUMM_LINE_PTR$);
     3150    10077    4               TISN = CUMM_LINE_PTR$ -> FILL_BUFFER.ISN;

  10077 24 002274   200017 470500                    LDP0    CUMM_LINE_PTR$,,AUTO
        24 002275   000004 235100                    LDA     4,,PR0
        24 002276   200024 755100                    STA     TISN,,AUTO

     3151    10078    4               ISN_INC = 0;

  10078 24 002277   200025 450100                    STZ     ISN_INC,,AUTO

     3152    10079    4               L$ = REPLACE$ -> REPLACE_ITEM.TO_PSEUDO_TEXT_LINES$;

  10079 24 002300   200004 471500                    LDP1    REPLACE$,,AUTO
        24 002301   100006 236100                    LDQ     6,,PR1
        24 002302   200022 756100                    STQ     L$,,AUTO

     3153    10080    4               ISN_BASE = L$ -> FILL_BUFFER.ISN;

  10080 24 002303   200022 473500                    LDP3    L$,,AUTO
        24 002304   300004 235100                    LDA     4,,PR3
        24 002305   200026 755100                    STA     ISN_BASE,,AUTO
PL6.E3A0      #018=Z8EL$POSSIBLE_REPLACE File=Z8EL.:Z8A6TSI                      SAT 08/09/97 12:20 Page:718

     3154    10081
     3155    10082    5               DO WHILE (L$ ~= ADDR(NIL)

  10082 24 002306   002420 710000 24                 TRA     s:10126

     3156    10083    5                         AND (L$ -> FILL_BUFFER.NEXT$ ~= ADDR(NIL)
     3157    10084    5                              OR SUBSTR (CUMM_LINE_PTR$ -> FILL_BUFFER.NEXT$ ->
     3158    10085    5                                             FILL_BUFFER.SOURCE_LINE,
     3159    10086    5                                         O1COM.AREA_A_COLUMN_START,
     3160    10087    5                                         L$ -> FILL_BUFFER.LINE_LENGTH -
     3161    10088    5                                             O1COM.AREA_A_COLUMN_START) ~= ' '
     3162    10089    5                             OR NOT CUMM_LINE_PTR$ -> FILL_BUFFER.NEXT$ -> FILL_BUFFER
             10089                                       .LINE_TYPE.NEW_REP_LINE));
     3163    10090    5                 ISN_INC = ISN_INC + 1;

  10090 24 002307   200025 054100                    AOS     ISN_INC,,AUTO

     3164    10091
     3165    10092                      %NEW_HEAP (@POINTER = TL$,
     3166    10093                                 @SIZE = %MAX_INPUT_BUFFER_LEN);

  10095 24 002310   000012 236000 25                 LDQ     10
        24 002311   200103 756100                    STQ     T$+3,,AUTO
        24 002312   200023 630500                    EPPR0   TL$,,AUTO
        24 002313   200102 450500                    STP0    T$+2,,AUTO
        24 002314   200102 630500                    EPPR0   T$+2,,AUTO
        24 002315   000003 631400 25                 EPPR1   3
        24 002316   000000 701000 xent               TSX1    Z8ED$NEW_HEAP
        24 002317   000000 011000                    NOP     0

     3167    10098
     3168    10099    5                 TL$ -> FILL_BUFFER.LINE_LENGTH = L$ -> FILL_BUFFER.LINE_LENGTH;

  10099 24 002320   200022 470500                    LDP0    L$,,AUTO
        24 002321   200023 471500                    LDP1    TL$,,AUTO
        24 002322   000012 235100                    LDA     10,,PR0
PL6.E3A0      #018=Z8EL$POSSIBLE_REPLACE File=Z8EL.:Z8A6TSI                      SAT 08/09/97 12:20 Page:719
        24 002323   100012 755100                    STA     10,,PR1

     3169    10100    5                 TL$ -> FILL_BUFFER = L$ -> FILL_BUFFER;

  10100 24 002324   200023 470500                    LDP0    TL$,,AUTO
        24 002325   000012 720100                    LXL0    10,,PR0
        24 002326   000054 621010                    EAX1    44,X0
        24 002327   200022 471500                    LDP1    L$,,AUTO
        24 002330   100012 722100                    LXL2    10,,PR1
        24 002331   000054 623012                    EAX3    44,X2
        24 002332   000140 100540                    MLR     fill='000'O
        24 002333   100000 000013                    ADSC9   0,,PR1                   cn=0,n=*X3
        24 002334   000000 000011                    ADSC9   0,,PR0                   cn=0,n=*X1

     3170    10101    5                 IF OLD_LINE$ -> FILL_BUFFER.LINE_TYPE.DEBUG_LINE THEN

  10101 24 002335   200041 470500                    LDP0    OLD_LINE$,,AUTO
        24 002336   000011 236100                    LDQ     9,,PR0
        24 002337   010000 316003                    CANQ    4096,DU
        24 002340   002352 600000 24                 TZE     s:10109

     3171    10102    6                   DO;

     3172    10103    6                     TL$ -> FILL_BUFFER.LINE_TYPE.DEBUG_LINE = TRUE;

  10103 24 002341   200023 471500                    LDP1    TL$,,AUTO
        24 002342   010000 236003                    LDQ     4096,DU
        24 002343   100011 256100                    ORSQ    9,,PR1

     3173    10104    6                     CALL INSERT (TL$ -> FILL_BUFFER.SOURCE_LINE,

  10104 24 002344   200023 471500                    LDP1    TL$,,AUTO
        24 002345   100012 720100                    LXL0    10,,PR1
        24 002346   000122 235000 xsym               LDA     O1COM+82
        24 002347   040105 100400                    MLR     fill='040'O
        24 002350   000015 000001 25                 ADSC9   13                       cn=0,n=1
        24 002351   100012 600001                    ADSC9   10,A,PR1                 cn=3,n=1
PL6.E3A0      #018=Z8EL$POSSIBLE_REPLACE File=Z8EL.:Z8A6TSI                      SAT 08/09/97 12:20 Page:720

     3174    10105    6                                  O1COM.AREA_A_COLUMN_START - 1,
     3175    10106    6                                  1,
     3176    10107    6                                  'D');
     3177    10108    6                   END;

     3178    10109    5                 TL$ -> FILL_BUFFER.LINE_TYPE.NEW_REP_LINE = TRUE;

  10109 24 002352   200023 471500                    LDP1    TL$,,AUTO
        24 002353   001000 236003                    LDQ     512,DU
        24 002354   100011 256100                    ORSQ    9,,PR1

     3179    10110    5                 TL$ -> FILL_BUFFER.LINE_TYPE.COPY_REPL_LINE = FALSE;

  10110 24 002355   200023 471500                    LDP1    TL$,,AUTO
        24 002356   000017 236000 25                 LDQ     15
        24 002357   100011 356100                    ANSQ    9,,PR1

     3180    10111    5                 TL$ -> FILL_BUFFER.ISN = TISN + ISN_INC;

  10111 24 002360   200024 236100                    LDQ     TISN,,AUTO
        24 002361   200025 036100                    ADLQ    ISN_INC,,AUTO
        24 002362   200023 471500                    LDP1    TL$,,AUTO
        24 002363   100004 756100                    STQ     4,,PR1

     3181    10112    5                 TL$ -> FILL_BUFFER.NEXT$ = CUMM_LINE_PTR$ -> FILL_BUFFER.NEXT$;

  10112 24 002364   200017 471500                    LDP1    CUMM_LINE_PTR$,,AUTO
        24 002365   100002 236100                    LDQ     2,,PR1
        24 002366   200023 473500                    LDP3    TL$,,AUTO
        24 002367   300002 756100                    STQ     2,,PR3

     3182    10113    5                 TL$ -> FILL_BUFFER.ESN = ' ';

  10113 24 002370   200023 471500                    LDP1    TL$,,AUTO
        24 002371   040100 100400                    MLR     fill='040'O
        24 002372   000010 000001 25                 ADSC9   8                        cn=0,n=1
PL6.E3A0      #018=Z8EL$POSSIBLE_REPLACE File=Z8EL.:Z8A6TSI                      SAT 08/09/97 12:20 Page:721
        24 002373   100005 000012                    ADSC9   5,,PR1                   cn=0,n=10

     3183    10114    5                 TL$ -> FILL_BUFFER.LEVEL = CUMM_LINE_PTR$ -> FILL_BUFFER.LEVEL;

  10114 24 002374   200017 471500                    LDP1    CUMM_LINE_PTR$,,AUTO
        24 002375   200023 473500                    LDP3    TL$,,AUTO
        24 002376   100001 235100                    LDA     1,,PR1
        24 002377   300001 755100                    STA     1,,PR3

     3184    10115    5                 CUMM_LINE_PTR$ -> FILL_BUFFER.NEXT$ = TL$;

  10115 24 002400   200023 236100                    LDQ     TL$,,AUTO
        24 002401   200017 471500                    LDP1    CUMM_LINE_PTR$,,AUTO
        24 002402   100002 756100                    STQ     2,,PR1

     3185    10116
     3186    10117    5                 IF CUMM_LINE_PTR$ = CURRENT_BUFFER$ THEN

  10117 24 002403   200017 236100                    LDQ     CUMM_LINE_PTR$,,AUTO
        24 002404   000000 116000 13                 CMPQ    CURRENT_BUFFER$
        24 002405   002413 601000 24                 TNZ     s:10124

     3187    10118    6                   DO;

     3188    10119    6                     CURRENT_BUFFER$ = TL$;

  10119 24 002406   200023 236100                    LDQ     TL$,,AUTO
        24 002407   000000 756000 13                 STQ     CURRENT_BUFFER$

     3189    10120    6                     EXPANDED_ISN = EXPANDED_ISN + 1;

  10120 24 002410   000000 054000 19                 AOS     EXPANDED_ISN

     3190    10121    6                     BUFFER.ISN = EXPANDED_ISN;

  10121 24 002411   000000 235000 19                 LDA     EXPANDED_ISN
        24 002412   000002 755000 17                 STA     BUFFER+2
PL6.E3A0      #018=Z8EL$POSSIBLE_REPLACE File=Z8EL.:Z8A6TSI                      SAT 08/09/97 12:20 Page:722

     3191    10122    6                   END;

     3192    10123
     3193    10124    5                 CUMM_LINE_PTR$ = TL$;

  10124 24 002413   200023 236100                    LDQ     TL$,,AUTO
        24 002414   200017 756100                    STQ     CUMM_LINE_PTR$,,AUTO

     3194    10125    5                 L$ = L$ -> FILL_BUFFER.NEXT$;

  10125 24 002415   200022 471500                    LDP1    L$,,AUTO
        24 002416   100002 236100                    LDQ     2,,PR1
        24 002417   200022 756100                    STQ     L$,,AUTO

     3195    10126    5               END;

  10126 24 002420   000000 116000 25                 CMPQ    0
        24 002421   002443 600000 24                 TZE     s:10128
        24 002422   200022 470500                    LDP0    L$,,AUTO
        24 002423   000002 236100                    LDQ     2,,PR0
        24 002424   000000 116000 25                 CMPQ    0
        24 002425   002307 601000 24                 TNZ     s:10090
        24 002426   200017 471500                    LDP1    CUMM_LINE_PTR$,,AUTO
        24 002427   100002 473500                    LDP3    2,,PR1
        24 002430   300012 720100                    LXL0    10,,PR3
        24 002431   000012 236100                    LDQ     10,,PR0
        24 002432   000122 136000 xsym               SBLQ    O1COM+82
        24 002433   000000 621006                    EAX1    0,QL
        24 002434   000122 235000 xsym               LDA     O1COM+82
        24 002435   040000 106545                    CMPC    fill='040'O
        24 002436   300013 000011                    ADSC9   11,A,PR3                 cn=0,n=*X1
        24 002437   000010 000001 25                 ADSC9   8                        cn=0,n=1
        24 002440   002307 601000 24                 TNZ     s:10090
        24 002441   300011 430100                    FSZN    9,,PR3
        24 002442   002307 605000 24                 TPL     s:10090

PL6.E3A0      #018=Z8EL$POSSIBLE_REPLACE File=Z8EL.:Z8A6TSI                      SAT 08/09/97 12:20 Page:723
     3196    10127
     3197    10128    4               IF L$ ~= ADDR(NIL) THEN

  10128 24 002443   200022 236100                    LDQ     L$,,AUTO
        24 002444   000000 116000 25                 CMPQ    0
        24 002445   002515 600000 24                 TZE     s:10149

     3198    10129    5                 DO;

     3199    10130    5                   CALL INSERT (CUMM_LINE_PTR$ -> FILL_BUFFER.NEXT$ ->

  10130 24 002446   200017 470500                    LDP0    CUMM_LINE_PTR$,,AUTO
        24 002447   000002 471500                    LDP1    2,,PR0
        24 002450   100012 720100                    LXL0    10,,PR1
        24 002451   200022 473500                    LDP3    L$,,AUTO
        24 002452   300012 721100                    LXL1    10,,PR3
        24 002453   200102 741100                    STX1    T$+2,,AUTO
        24 002454   200102 220100                    LDX0    T$+2,,AUTO
        24 002455   040140 100540                    MLR     fill='040'O
        24 002456   300013 000010                    ADSC9   11,,PR3                  cn=0,n=*X0
        24 002457   100013 000011                    ADSC9   11,,PR1                  cn=0,n=*X1

     3200    10131    5                                    FILL_BUFFER.SOURCE_LINE,
     3201    10132    5                                0,
     3202    10133    5                                L$ -> FILL_BUFFER.LINE_LENGTH,
     3203    10134    5                                L$ -> FILL_BUFFER.SOURCE_LINE);
     3204    10135    5                   IF CUMM_LINE_PTR$ -> FILL_BUFFER.NEXT$ -> FILL_BUFFER.LINE_TYPE.
             10135                            DEBUG_LINE THEN

  10135 24 002460   200017 470500                    LDP0    CUMM_LINE_PTR$,,AUTO
        24 002461   000002 471500                    LDP1    2,,PR0
        24 002462   100011 236100                    LDQ     9,,PR1
        24 002463   010000 316003                    CANQ    4096,DU
        24 002464   002472 600000 24                 TZE     s:10139

     3205    10136    5                     CALL INSERT (CUMM_LINE_PTR$ -> FILL_BUFFER.NEXT$ ->

PL6.E3A0      #018=Z8EL$POSSIBLE_REPLACE File=Z8EL.:Z8A6TSI                      SAT 08/09/97 12:20 Page:724
  10136 24 002465   100012 720100                    LXL0    10,,PR1
        24 002466   000122 235000 xsym               LDA     O1COM+82
        24 002467   040105 100400                    MLR     fill='040'O
        24 002470   000015 000001 25                 ADSC9   13                       cn=0,n=1
        24 002471   100012 600001                    ADSC9   10,A,PR1                 cn=3,n=1

     3206    10137    5                                      FILL_BUFFER.SOURCE_LINE,
     3207    10138    5                                  O1COM.AREA_A_COLUMN_START - 1, 1, 'D');
     3208    10139    5                   CUMM_LINE_PTR$ -> FILL_BUFFER.NEXT$ -> FILL_BUFFER.FLAGS =

  10139 24 002472   200017 470500                    LDP0    CUMM_LINE_PTR$,,AUTO
        24 002473   000002 471500                    LDP1    2,,PR0
        24 002474   200022 473500                    LDP3    L$,,AUTO
        24 002475   100011 236100                    LDQ     9,,PR1
        24 002476   300011 276100                    ORQ     9,,PR3
        24 002477   100011 756100                    STQ     9,,PR1

     3209    10140    5                       CUMM_LINE_PTR$ -> FILL_BUFFER.NEXT$ -> FILL_BUFFER.FLAGS
     3210    10141    5                       | L$ -> FILL_BUFFER.FLAGS;
     3211    10142    5                   CUMM_LINE_PTR$ -> FILL_BUFFER.NEXT$ -> FILL_BUFFER.LINE_TYPE.
             10142                            COPY_REPL_LINE = FALSE;

  10142 24 002500   200017 470500                    LDP0    CUMM_LINE_PTR$,,AUTO
        24 002501   000002 471500                    LDP1    2,,PR0
        24 002502   000017 236000 25                 LDQ     15
        24 002503   100011 356100                    ANSQ    9,,PR1

     3212    10143    5                   IF L$ -> FILL_BUFFER.LINE_TYPE.NULL_COMMENT_LINE OR

  10143 24 002504   200022 470500                    LDP0    L$,,AUTO
        24 002505   000011 236100                    LDQ     9,,PR0
        24 002506   004000 316003                    CANQ    2048,DU
        24 002507   002514 601000 24                 TNZ     s:10146
        24 002510   010000 316003                    CANQ    4096,DU
        24 002511   002515 600000 24                 TZE     s:10149
        24 002512   000026 234000 xsym               SZN     O1COM+22
        24 002513   002515 604000 24                 TMI     s:10149
PL6.E3A0      #018=Z8EL$POSSIBLE_REPLACE File=Z8EL.:Z8A6TSI                      SAT 08/09/97 12:20 Page:725

     3213    10144    5                       (L$ -> FILL_BUFFER.LINE_TYPE.DEBUG_LINE AND
     3214    10145    5                        NOT O1COM.DEBUGGING_MODE) THEN
     3215    10146    5                     BUFFER.CLASS = %END_OF_LINE;

  10146 24 002514   000001 450000 17                 STZ     BUFFER+1

     3216    10147    5                 END;

     3217    10148
     3218    10149    4               CALL ADJUST_ISN (ISN_INC,

  10149 24 002515   200017 236100                    LDQ     CUMM_LINE_PTR$,,AUTO
        24 002516   000002 036003                    ADLQ    2,DU
        24 002517   200076 756100                    STQ     @ISN_INC+1,,AUTO
        24 002520   200025 630500                    EPPR0   ISN_INC,,AUTO
        24 002521   200075 450500                    STP0    L$+2,,AUTO
        24 002522   000242 701000 24                 TSX1    ADJUST_ISN
        24 002523   000000 011000                    NOP     0

     3219    10150    4                                CUMM_LINE_PTR$ -> FILL_BUFFER.NEXT$);
     3220    10151
     3221    10152                    /* Insert new tokens */
     3222    10153
     3223    10154    4               MATCH$ = REPLACE$ -> REPLACE_ITEM.TO_LIST$;

  10154 24 002524   200004 470500                    LDP0    REPLACE$,,AUTO
        24 002525   000002 236100                    LDQ     2,,PR0
        24 002526   200011 756100                    STQ     MATCH$,,AUTO

     3224    10155
     3225    10156    4               IF MATCH$ ~= ADDR(NIL) THEN

  10156 24 002527   000000 116000 25                 CMPQ    0
        24 002530   003043 600000 24                 TZE     s:10297

     3226    10157    5                 DO;
PL6.E3A0      #018=Z8EL$POSSIBLE_REPLACE File=Z8EL.:Z8A6TSI                      SAT 08/09/97 12:20 Page:726

     3227    10158    5                   LEX$ = ADDR(LEX_SYMBOL);

  10158 24 002531   000020 236000 25                 LDQ     16
        24 002532   200012 756100                    STQ     LEX$,,AUTO

     3228    10159
     3229    10160    6                   DO UNTIL MATCH$ = ADDR(NIL);

     3230    10161
     3231    10162    6                     IF NOT MATCH$ -> BASED_LEX_SYMBOL.B.COMMENT_TOKEN AND

  10162 24 002533   200011 470500                    LDP0    MATCH$,,AUTO
        24 002534   000002 236100                    LDQ     2,,PR0
        24 002535   020000 316003                    CANQ    8192,DU
        24 002536   002636 601000 24                 TNZ     s:10193
        24 002537   000026 234000 xsym               SZN     O1COM+22
        24 002540   002543 604000 24                 TMI     s:10168
        24 002541   100000 316003                    CANQ    32768,DU
        24 002542   002636 601000 24                 TNZ     s:10193

     3232    10163    6                         (O1COM.DEBUGGING_MODE OR
     3233    10164    6                          NOT MATCH$ -> BASED_LEX_SYMBOL.B.DEBUG_TOKEN) THEN
     3234    10165    7                       DO;

     3235    10166                              %COPY_TO_NEW_LEX_SYMBOL(FROM$=MATCH$, TO$=TL$);

  10168 24 002543   000010 720100                    LXL0    8,,PR0
        24 002544   000044 621010                    EAX1    36,X0
        24 002545   000000 636011                    EAQ     0,X1
        24 002546   000022 732000                    QRS     18
        24 002547   000003 036007                    ADLQ    3,DL
        24 002550   000004 506007                    DIV     4,DL
        24 002551   200102 756100                    STQ     T$+2,,AUTO
        24 002552   200102 631500                    EPPR1   T$+2,,AUTO
        24 002553   200105 451500                    STP1    T$+5,,AUTO
        24 002554   200023 633500                    EPPR3   TL$,,AUTO
PL6.E3A0      #018=Z8EL$POSSIBLE_REPLACE File=Z8EL.:Z8A6TSI                      SAT 08/09/97 12:20 Page:727
        24 002555   200104 453500                    STP3    T$+4,,AUTO
        24 002556   200104 630500                    EPPR0   T$+4,,AUTO
        24 002557   000003 631400 25                 EPPR1   3
        24 002560   000000 701000 xent               TSX1    Z8ED$NEW_HEAP
        24 002561   000000 011000                    NOP     0

  10175 24 002562   200011 470500                    LDP0    MATCH$,,AUTO
        24 002563   200023 471500                    LDP1    TL$,,AUTO
        24 002564   000010 235100                    LDA     8,,PR0
        24 002565   100010 755100                    STA     8,,PR1

  10176 24 002566   200023 471500                    LDP1    TL$,,AUTO
        24 002567   100010 720100                    LXL0    8,,PR1
        24 002570   000044 621010                    EAX1    36,X0
        24 002571   000010 722100                    LXL2    8,,PR0
        24 002572   000044 623012                    EAX3    36,X2
        24 002573   000140 100540                    MLR     fill='000'O
        24 002574   000000 000013                    ADSC9   0,,PR0                   cn=0,n=*X3
        24 002575   100000 000011                    ADSC9   0,,PR1                   cn=0,n=*X1

     3236    10181    7                         LEX$ -> BASED_LEX_SYMBOL.NEXT$ = TL$;

  10181 24 002576   200023 236100                    LDQ     TL$,,AUTO
        24 002577   200012 471500                    LDP1    LEX$,,AUTO
        24 002600   100000 756100                    STQ     0,,PR1

     3237    10182    7                         IF CUMM_LINE_PTR$ -> FILL_BUFFER.LINE_TYPE.DEBUG_LINE THEN

  10182 24 002601   200017 471500                    LDP1    CUMM_LINE_PTR$,,AUTO
        24 002602   100011 236100                    LDQ     9,,PR1
        24 002603   010000 316003                    CANQ    4096,DU
        24 002604   002610 600000 24                 TZE     s:10184

     3238    10183    7                           TL$ -> BASED_LEX_SYMBOL.B.DEBUG_TOKEN = TRUE;

  10183 24 002605   200023 473500                    LDP3    TL$,,AUTO
        24 002606   100000 236003                    LDQ     32768,DU
PL6.E3A0      #018=Z8EL$POSSIBLE_REPLACE File=Z8EL.:Z8A6TSI                      SAT 08/09/97 12:20 Page:728
        24 002607   300002 256100                    ORSQ    2,,PR3

     3239    10184    7                         TL$ -> BASED_LEX_SYMBOL.LEVEL

  10184 24 002610   200004 471500                    LDP1    REPLACE$,,AUTO
        24 002611   200023 473500                    LDP3    TL$,,AUTO
        24 002612   100003 235100                    LDA     3,,PR1
        24 002613   000001 135007                    SBLA    1,DL
        24 002614   300003 755100                    STA     3,,PR3

     3240    10185    7                              = REPLACE$ -> REPLACE_ITEM.LEVEL - 1;
     3241    10186    7                         TL$ -> BASED_LEX_SYMBOL.LINE =

  10186 24 002615   200023 473500                    LDP3    TL$,,AUTO
        24 002616   300004 236100                    LDQ     4,,PR3
        24 002617   200026 136100                    SBLQ    ISN_BASE,,AUTO
        24 002620   200024 036100                    ADLQ    TISN,,AUTO
        24 002621   000001 036007                    ADLQ    1,DL
        24 002622   300004 756100                    STQ     4,,PR3

     3242    10187    7                            (TL$ -> BASED_LEX_SYMBOL.LINE - ISN_BASE) + TISN + 1;
     3243    10188    7                         TL$ -> BASED_LEX_SYMBOL.END_LINE =

  10188 24 002623   200023 473500                    LDP3    TL$,,AUTO
        24 002624   300006 236100                    LDQ     6,,PR3
        24 002625   200026 136100                    SBLQ    ISN_BASE,,AUTO
        24 002626   200024 036100                    ADLQ    TISN,,AUTO
        24 002627   000001 036007                    ADLQ    1,DL
        24 002630   300006 756100                    STQ     6,,PR3

     3244    10189    7                            (TL$ -> BASED_LEX_SYMBOL.END_LINE - ISN_BASE) + TISN + 1;
     3245    10190    7                         TL$ -> BASED_LEX_SYMBOL.B.REPLACED_TOKEN = TRUE;

  10190 24 002631   200023 473500                    LDP3    TL$,,AUTO
        24 002632   200000 236003                    LDQ     65536,DU
        24 002633   300002 256100                    ORSQ    2,,PR3

PL6.E3A0      #018=Z8EL$POSSIBLE_REPLACE File=Z8EL.:Z8A6TSI                      SAT 08/09/97 12:20 Page:729
     3246    10191    7                         LEX$ = TL$;

  10191 24 002634   200023 236100                    LDQ     TL$,,AUTO
        24 002635   200012 756100                    STQ     LEX$,,AUTO

     3247    10192    7                       END;

     3248    10193    6                     MATCH$ = MATCH$ -> BASED_LEX_SYMBOL.NEXT$;

  10193 24 002636   000000 236100                    LDQ     0,,PR0
        24 002637   200011 756100                    STQ     MATCH$,,AUTO

     3249    10194
     3250    10195    6                   END;  /* DO UNTIL */

  10195 24 002640   000000 116000 25                 CMPQ    0
        24 002641   002533 601000 24                 TNZ     s:10162

     3251    10196
     3252    10197    5                   LEX$ -> BASED_LEX_SYMBOL.NEXT$ = LEX_SYMBOL_QUEUE$;

  10197 24 002642   000000 236000 11                 LDQ     LEX_SYMBOL_QUEUE$
        24 002643   200012 470500                    LDP0    LEX$,,AUTO
        24 002644   000000 756100                    STQ     0,,PR0

     3253    10198    5                   LEX_SYMBOL_QUEUE$ = LEX_SYMBOL.NEXT$;

  10198 24 002645   000000 236000 2                  LDQ     LEX_SYMBOL
        24 002646   000000 756000 11                 STQ     LEX_SYMBOL_QUEUE$

     3254    10199    5                 END;

     3255    10200    4             END;

     3256    10201    3         END;

  10201 24 002647   003043 710000 24                 TRA     s:10297
PL6.E3A0      #018=Z8EL$POSSIBLE_REPLACE File=Z8EL.:Z8A6TSI                      SAT 08/09/97 12:20 Page:730

     3257    10202    2       ELSE
     3258    10203    3         DO;

     3259    10204                /* Do a single token replace (non pseudo text) */
     3260    10205
     3261    10206    3           CALL CALC_MAX_TOKEN_LENGTH;

  10206 24 002650   000677 701000 24                 TSX1    CALC_MAX_TOKEN_LENGTH
        24 002651   000000 011000                    NOP     0

     3262    10207
     3263    10208    3          IF MAX_TOKEN_LENGTH < REPLACE$ -> REPLACE_ITEM.TO_LIST$ -> BASED_LEX_SYMBOL.
             10208                    SIZE THEN

  10208 24 002652   200004 470500                    LDP0    REPLACE$,,AUTO
        24 002653   000002 471500                    LDP1    2,,PR0
        24 002654   200032 236100                    LDQ     MAX_TOKEN_LENGTH,,AUTO
        24 002655   100010 116100                    CMPQ    8,,PR1
        24 002656   003037 605000 24                 TPL     s:10293

     3264    10209    4             DO; /* Too Big -- at least two lines. */

     3265    10210    4               CALL SPLIT_LINE (REP_BEG_LINE,

  10210 24 002657   200017 633500                    EPPR3   CUMM_LINE_PTR$,,AUTO
        24 002660   200065 453500                    STP3    @COLUMN+1,,AUTO
        24 002661   200014 631500                    EPPR1   REP_BEG_COLUMN,,AUTO
        24 002662   200064 451500                    STP1    @ADD_BLANKS+1,,AUTO
        24 002663   200013 634500                    EPPR4   REP_BEG_LINE,,AUTO
        24 002664   200063 454500                    STP4    SHIFT_RIGHT+2,,AUTO
        24 002665   000316 701000 24                 TSX1    SPLIT_LINE
        24 002666   000000 011000                    NOP     0

     3266    10211    4                                REP_BEG_COLUMN,
     3267    10212    4                                CUMM_LINE_PTR$);
     3268    10213
PL6.E3A0      #018=Z8EL$POSSIBLE_REPLACE File=Z8EL.:Z8A6TSI                      SAT 08/09/97 12:20 Page:731
     3269    10214                    %NEW_HEAP (@POINTER = TL$,
     3270    10215                               @SIZE = %MAX_INPUT_BUFFER_LEN);

  10217 24 002667   000012 236000 25                 LDQ     10
        24 002670   200103 756100                    STQ     T$+3,,AUTO
        24 002671   200023 630500                    EPPR0   TL$,,AUTO
        24 002672   200102 450500                    STP0    T$+2,,AUTO
        24 002673   200102 630500                    EPPR0   T$+2,,AUTO
        24 002674   000003 631400 25                 EPPR1   3
        24 002675   000000 701000 xent               TSX1    Z8ED$NEW_HEAP
        24 002676   000000 011000                    NOP     0

     3271    10220
     3272    10221                    %INIT_BUFFER (@POINTER = TL$,
     3273    10222                                  @ISN = "CUMM_LINE_PTR$ -> FILL_BUFFER.ISN + 1",
     3274    10223                                  @NEXT$ = "CUMM_LINE_PTR$ -> FILL_BUFFER.NEXT$",
     3275    10224                                  @LEVEL = "CUMM_LINE_PTR$ -> FILL_BUFFER.LEVEL",
     3276    10225                                  @NEW_REP_LINE = TRUE,
     3277    10226                                  @LINE_LENGTH = O1COM.MARGIN_R,
     3278    10227                                  @SOURCE_LINE = ' ');

  10229 24 002677   200023 470500                    LDP0    TL$,,AUTO
        24 002700   040100 100400                    MLR     fill='040'O
        24 002701   000010 000001 25                 ADSC9   8                        cn=0,n=1
        24 002702   000005 000012                    ADSC9   5,,PR0                   cn=0,n=10

  10230 24 002703   200023 470500                    LDP0    TL$,,AUTO
        24 002704   000000 450100                    STZ     0,,PR0

  10231 24 002705   200023 470500                    LDP0    TL$,,AUTO
        24 002706   000010 450100                    STZ     8,,PR0

  10232 24 002707   200017 470500                    LDP0    CUMM_LINE_PTR$,,AUTO
        24 002710   200023 471500                    LDP1    TL$,,AUTO
        24 002711   000004 235100                    LDA     4,,PR0
        24 002712   000001 035007                    ADLA    1,DL
        24 002713   100004 755100                    STA     4,,PR1
PL6.E3A0      #018=Z8EL$POSSIBLE_REPLACE File=Z8EL.:Z8A6TSI                      SAT 08/09/97 12:20 Page:732

  10233 24 002714   200017 470500                    LDP0    CUMM_LINE_PTR$,,AUTO
        24 002715   200023 471500                    LDP1    TL$,,AUTO
        24 002716   000001 235100                    LDA     1,,PR0
        24 002717   100001 755100                    STA     1,,PR1

  10234 24 002720   200017 470500                    LDP0    CUMM_LINE_PTR$,,AUTO
        24 002721   000002 236100                    LDQ     2,,PR0
        24 002722   200023 471500                    LDP1    TL$,,AUTO
        24 002723   100002 756100                    STQ     2,,PR1

  10235 24 002724   200023 470500                    LDP0    TL$,,AUTO
        24 002725   000011 450100                    STZ     9,,PR0

  10236 24 002726   200023 470500                    LDP0    TL$,,AUTO
        24 002727   000003 450100                    STZ     3,,PR0

  10237 24 002730   200023 470500                    LDP0    TL$,,AUTO
        24 002731   000123 235000 xsym               LDA     O1COM+83
        24 002732   000012 755100                    STA     10,,PR0

  10242 24 002733   200023 470500                    LDP0    TL$,,AUTO
        24 002734   001000 236003                    LDQ     512,DU
        24 002735   000011 256100                    ORSQ    9,,PR0

  10251 24 002736   200023 470500                    LDP0    TL$,,AUTO
        24 002737   000012 720100                    LXL0    10,,PR0
        24 002740   040140 100400                    MLR     fill='040'O
        24 002741   000010 000001 25                 ADSC9   8                        cn=0,n=1
        24 002742   000013 000010                    ADSC9   11,,PR0                  cn=0,n=*X0

     3279    10255
     3280    10256    4               IF REP_DEBUG_LINE THEN

  10256 24 002743   200015 234100                    SZN     REP_DEBUG_LINE,,AUTO
        24 002744   002756 605000 24                 TPL     s:10264

PL6.E3A0      #018=Z8EL$POSSIBLE_REPLACE File=Z8EL.:Z8A6TSI                      SAT 08/09/97 12:20 Page:733
     3281    10257    5                 DO;

     3282    10258    5                   TL$ -> FILL_BUFFER.LINE_TYPE.DEBUG_LINE = TRUE;

  10258 24 002745   200023 470500                    LDP0    TL$,,AUTO
        24 002746   010000 236003                    LDQ     4096,DU
        24 002747   000011 256100                    ORSQ    9,,PR0

     3283    10259    5                   SUBSTR(TL$ -> FILL_BUFFER.SOURCE_LINE,

  10259 24 002750   200023 470500                    LDP0    TL$,,AUTO
        24 002751   000012 720100                    LXL0    10,,PR0
        24 002752   000122 235000 xsym               LDA     O1COM+82
        24 002753   040105 100400                    MLR     fill='040'O
        24 002754   000015 000001 25                 ADSC9   13                       cn=0,n=1
        24 002755   000012 600001                    ADSC9   10,A,PR0                 cn=3,n=1

     3284    10260    5                          O1COM.AREA_A_COLUMN_START - 1,
     3285    10261    5                          1) = 'D';
     3286    10262    5                 END;

     3287    10263
     3288    10264    4               CUMM_LINE_PTR$ -> FILL_BUFFER.NEXT$ = TL$;

  10264 24 002756   200023 236100                    LDQ     TL$,,AUTO
        24 002757   200017 470500                    LDP0    CUMM_LINE_PTR$,,AUTO
        24 002760   000002 756100                    STQ     2,,PR0

     3289    10265
     3290    10266    4               SUBSTR(TL$ -> FILL_BUFFER.SOURCE_LINE,

  10266 24 002761   200023 470500                    LDP0    TL$,,AUTO
        24 002762   000012 720100                    LXL0    10,,PR0
        24 002763   000123 236000 xsym               LDQ     O1COM+83
        24 002764   200014 136100                    SBLQ    REP_BEG_COLUMN,,AUTO
        24 002765   200004 471500                    LDP1    REPLACE$,,AUTO
        24 002766   100002 473500                    LDP3    2,,PR1
PL6.E3A0      #018=Z8EL$POSSIBLE_REPLACE File=Z8EL.:Z8A6TSI                      SAT 08/09/97 12:20 Page:734
        24 002767   300010 721100                    LXL1    8,,PR3
        24 002770   000000 622006                    EAX2    0,QL
        24 002771   200014 235100                    LDA     REP_BEG_COLUMN,,AUTO
        24 002772   040145 100540                    MLR     fill='040'O
        24 002773   300011 000011                    ADSC9   9,,PR3                   cn=0,n=*X1
        24 002774   000013 000012                    ADSC9   11,A,PR0                 cn=0,n=*X2

     3291    10267    4                      REP_BEG_COLUMN,
     3292    10268    4                      O1COM.MARGIN_R - REP_BEG_COLUMN)
     3293    10269    4                 = REPLACE$ -> REPLACE_ITEM.TO_LIST$ -> BASED_LEX_SYMBOL.SYMBOL;
     3294    10270
     3295    10271    4               IF  REPLACE$ -> REPLACE_ITEM.TO_LIST$ -> BASED_LEX_SYMBOL.SIZE

  10271 24 002775   100002 470500                    LDP0    2,,PR1
        24 002776   000123 236000 xsym               LDQ     O1COM+83
        24 002777   200014 136100                    SBLQ    REP_BEG_COLUMN,,AUTO
        24 003000   000010 116100                    CMPQ    8,,PR0
        24 003001   003015 605000 24                 TPL     s:10285
        24 003002   000030 234000 xsym               SZN     COMCOM+24
        24 003003   003015 604000 24                 TMI     s:10285

     3296    10272    4                     > O1COM.MARGIN_R - REP_BEG_COLUMN
     3297    10273    4               AND COMCOM.OB.FORMAT = FALSE THEN
     3298    10274    5                 DO;

     3299    10275                        /*N*
     3300    10276                           May want to expand this later to issue actual continuation
     3301    10277                           lines.
     3302    10278                        */
     3303    10279    5                   TL$ -> FILL_BUFFER.LINE_LENGTH = 75;

  10279 24 003004   000113 235007                    LDA     75,DL
        24 003005   200023 473500                    LDP3    TL$,,AUTO
        24 003006   300012 755100                    STA     10,,PR3

     3304    10280    5                   SUBSTR(TL$ -> FILL_BUFFER.SOURCE_LINE,

PL6.E3A0      #018=Z8EL$POSSIBLE_REPLACE File=Z8EL.:Z8A6TSI                      SAT 08/09/97 12:20 Page:735
  10280 24 003007   200023 470500                    LDP0    TL$,,AUTO
        24 003010   000012 720100                    LXL0    10,,PR0
        24 003011   000123 236000 xsym               LDQ     O1COM+83
        24 003012   040106 100400                    MLR     fill='040'O
        24 003013   000003 000003 23                 ADSC9   3                        cn=0,n=3
        24 003014   000013 000003                    ADSC9   11,Q,PR0                 cn=0,n=3

     3305    10281    5                          O1COM.MARGIN_R,
     3306    10282    5                          3) = '...';
     3307    10283    5                 END;

     3308    10284
     3309    10285    4               CALL ADJUST_ISN (1,

  10285 24 003015   200023 236100                    LDQ     TL$,,AUTO
        24 003016   000002 036003                    ADLQ    2,DU
        24 003017   200076 756100                    STQ     @ISN_INC+1,,AUTO
        24 003020   000014 236000 25                 LDQ     12
        24 003021   200075 756100                    STQ     L$+2,,AUTO
        24 003022   000242 701000 24                 TSX1    ADJUST_ISN
        24 003023   000000 011000                    NOP     0

     3310    10286    4                                TL$ -> FILL_BUFFER.NEXT$);
     3311    10287
     3312    10288    4               CALL INSERT_TOKEN (REPLACE$ -> REPLACE_ITEM.TO_LIST$,

  10288 24 003024   200014 630500                    EPPR0   REP_BEG_COLUMN,,AUTO
        24 003025   200067 450500                    STP0    @LINE+1,,AUTO
        24 003026   200023 236100                    LDQ     TL$,,AUTO
        24 003027   000004 036003                    ADLQ    4,DU
        24 003030   200066 756100                    STQ     @SYMBOL$+1,,AUTO
        24 003031   200004 236100                    LDQ     REPLACE$,,AUTO
        24 003032   000002 036003                    ADLQ    2,DU
        24 003033   200065 756100                    STQ     @COLUMN+1,,AUTO
        24 003034   000567 701000 24                 TSX1    INSERT_TOKEN
        24 003035   000000 011000                    NOP     0

PL6.E3A0      #018=Z8EL$POSSIBLE_REPLACE File=Z8EL.:Z8A6TSI                      SAT 08/09/97 12:20 Page:736
     3313    10289    4                                  TL$ -> FILL_BUFFER.ISN,
     3314    10290    4                                  REP_BEG_COLUMN);
     3315    10291    4             END;

  10291 24 003036   003043 710000 24                 TRA     s:10297

     3316    10292    3           ELSE /* One line -- do straight in-line replacement */
     3317    10293    3             CALL DO_STRAIGHT_IN_LINE_REPLACE (0);

  10293 24 003037   000016 236000 25                 LDQ     14
        24 003040   200063 756100                    STQ     SHIFT_RIGHT+2,,AUTO
        24 003041   000754 701000 24                 TSX1    DO_STRAIGHT_IN_LINE_REPLACE
        24 003042   000000 011000                    NOP     0

     3318    10294
     3319    10295    3         END;

     3320    10296
     3321    10297    2     END DO_REPLACE;

  10297 24 003043   200010 221300                    LDX1  ! PICTURE_TOKEN+1,,AUTO
        24 003044   000001 702211                    TSX2  ! 1,X1

     3322    10298
     3323    10299        %EJECT;
PL6.E3A0      #018=Z8EL$POSSIBLE_REPLACE File=Z8EL.:Z8A6TSI                      SAT 08/09/97 12:20 Page:737
     3324    10300    1   START_REPLACE_LEVEL : PROC ;

  10300 24 003045   200010 741300       START_REPLA* STX1  ! PICTURE_TOKEN+1,,AUTO

     3325    10301
     3326    10302
     3327    10303          /* Find a potential candidate for replacement */
     3328    10304
     3329    10305    2     REPLACE$ = REPLACE_LIST.LINK$;

  10305 24 003046   000000 236000 10                 LDQ     REPLACE_LIST
        24 003047   200004 756100                    STQ     REPLACE$,,AUTO

     3330    10306
     3331    10307    3     DO WHILE REPLACE$ ~= ADDR(NIL)

  10307 24 003050   003054 710000 24                 TRA     s:10315

     3332    10308    3                AND (REPLACE$ -> REPLACE_ITEM.LEVEL > LEX_SYMBOL_QUEUE$ ->
             10308                         BASED_LEX_SYMBOL.LEVEL
     3333    10309    3                        OR
     3334    10310    3                     REPLACE$ -> REPLACE_ITEM.FROM_LIST$ -> BASED_LEX_SYMBOL.SYMBOL
     3335    10311    3                        ~= LEX_SYMBOL_QUEUE$ -> BASED_LEX_SYMBOL.SYMBOL);
     3336    10312
     3337    10313    3       REPLACE$ = REPLACE$ -> REPLACE_ITEM.LINK$;

  10313 24 003051   200004 470500                    LDP0    REPLACE$,,AUTO
        24 003052   000000 236100                    LDQ     0,,PR0
        24 003053   200004 756100                    STQ     REPLACE$,,AUTO

     3338    10314
     3339    10315    3     END;  /* DO WHILE */

  10315 24 003054   000000 116000 25                 CMPQ    0
        24 003055   003072 600000 24                 TZE     s:10317
        24 003056   200004 470500                    LDP0    REPLACE$,,AUTO
        24 003057   000000 471400 11                 LDP1    LEX_SYMBOL_QUEUE$
PL6.E3A0      #018=Z8EL$POSSIBLE_REPLACE File=Z8EL.:Z8A6TSI                      SAT 08/09/97 12:20 Page:738
        24 003060   000003 236100                    LDQ     3,,PR0
        24 003061   100003 116100                    CMPQ    3,,PR1
        24 003062   003051 605400 24                 TPNZ    s:10313
        24 003063   000001 473500                    LDP3    1,,PR0
        24 003064   300010 720100                    LXL0    8,,PR3
        24 003065   100010 721100                    LXL1    8,,PR1
        24 003066   040140 106540                    CMPC    fill='040'O
        24 003067   300011 000010                    ADSC9   9,,PR3                   cn=0,n=*X0
        24 003070   100011 000011                    ADSC9   9,,PR1                   cn=0,n=*X1
        24 003071   003051 601000 24                 TNZ     s:10313

     3340    10316
     3341    10317    2   END START_REPLACE_LEVEL;

  10317 24 003072   200010 221300                    LDX1  ! PICTURE_TOKEN+1,,AUTO
        24 003073   000001 702211                    TSX2  ! 1,X1

     3342    10318
     3343    10319        %EJECT;
PL6.E3A0      #018=Z8EL$POSSIBLE_REPLACE File=Z8EL.:Z8A6TSI                      SAT 08/09/97 12:20 Page:739
     3344    10320        /* Main body of POSSIBLE_REPLACE */
     3345    10321
     3346    10322    1   SAVE_INHIBIT_DUMP_LINES = INHIBIT_DUMP_LINES;

  10322 24 003074   000000 236000 21                 LDQ     INHIBIT_DUMP_LINES
        24 003075   400000 376003                    ANQ     -131072,DU
        24 003076   200006 756100                    STQ     SAVE_INHIBIT_DUMP_LINES,,AUTO

     3347    10323    1   INHIBIT_DUMP_LINES = TRUE;

  10323 24 003077   400000 236003                    LDQ     -131072,DU
        24 003100   000000 756000 21                 STQ     INHIBIT_DUMP_LINES

     3348    10324
     3349    10325    1   CALL START_REPLACE_LEVEL ;

  10325 24 003101   003045 701000 24                 TSX1    START_REPLACE_LEVEL
        24 003102   000000 011000                    NOP     0

     3350    10326
     3351    10327    1   IF REPLACE$ ~= ADDR(NIL) THEN

  10327 24 003103   200004 236100                    LDQ     REPLACE$,,AUTO
        24 003104   000000 116000 25                 CMPQ    0
        24 003105   003150 600000 24                 TZE     s:10359

     3352    10328    2     DO;

     3353    10329    2       REPLACEMENT_FOUND = FALSE;

  10329 24 003106   200005 450100                    STZ     REPLACEMENT_FOUND,,AUTO

     3354    10330
     3355    10331    3       DO WHILE NOT REPLACEMENT_FOUND

  10331 24 003107   003135 710000 24                 TRA     s:10350

PL6.E3A0      #018=Z8EL$POSSIBLE_REPLACE File=Z8EL.:Z8A6TSI                      SAT 08/09/97 12:20 Page:740
     3356    10332    3                     AND REPLACE$ ~= ADDR(NIL);
     3357    10333
     3358    10334    3         IF REPLACE$ -> REPLACE_ITEM.LEVEL >= LOWEST_LEVEL THEN

  10334 24 003110   200004 470500                    LDP0    REPLACE$,,AUTO
        24 003111   200003 471500                    LDP1    @LOWEST_LEVEL,,AUTO
        24 003112   000003 236100                    LDQ     3,,PR0
        24 003113   100000 116100                    CMPQ    0,,PR1
        24 003114   003133 604000 24                 TMI     s:10348

     3359    10335    3           CALL MATCH_LISTS

  10335 24 003115   000003 701000 24                 TSX1    MATCH_LISTS
        24 003116   003130 702000 24                 TSX2    s:10345

     3360    10336    3             WHENRETURN
     3361    10337    4               DO;

     3362    10338    4                 IF REPLACEMENT_FOUND THEN

  10338 24 003117   200005 234100                    SZN     REPLACEMENT_FOUND,,AUTO
        24 003120   003124 605000 24                 TPL     s:10341

     3363    10339    4                   CALL DO_REPLACE;

  10339 24 003121   000240 701000 24                 TSX1    DO_REPLACE
        24 003122   000000 011000                    NOP     0
        24 003123   003127 710000 24                 TRA     s:10342

     3364    10340    4                 ELSE
     3365    10341    4                   REPLACE$ = REPLACE$ -> REPLACE_ITEM.LINK$;

  10341 24 003124   200004 470500                    LDP0    REPLACE$,,AUTO
        24 003125   000000 236100                    LDQ     0,,PR0
        24 003126   200004 756100                    STQ     REPLACE$,,AUTO

     3366    10342    4               END;
PL6.E3A0      #018=Z8EL$POSSIBLE_REPLACE File=Z8EL.:Z8A6TSI                      SAT 08/09/97 12:20 Page:741

  10342 24 003127   003132 710000 24                 TRA     s:10346

     3367    10343    3             WHENALTRETURN
     3368    10344    4               DO;

     3369    10345    4                 CALL START_REPLACE_LEVEL ;

  10345 24 003130   003045 701000 24                 TSX1    START_REPLACE_LEVEL
        24 003131   000000 011000                    NOP     0

     3370    10346    4               END;

  10346 24 003132   003135 710000 24                 TRA     s:10350

     3371    10347    3         ELSE
     3372    10348    3           REPLACE$ = ADDR(NIL);

  10348 24 003133   000000 236000 25                 LDQ     0
        24 003134   200004 756100                    STQ     REPLACE$,,AUTO

     3373    10349
     3374    10350    3       END;

  10350 24 003135   200005 234100                    SZN     REPLACEMENT_FOUND,,AUTO
        24 003136   003142 604000 24                 TMI     s:10352
        24 003137   200004 236100                    LDQ     REPLACE$,,AUTO
        24 003140   000000 116000 25                 CMPQ    0
        24 003141   003110 601000 24                 TNZ     s:10334

     3375    10351
     3376    10352    2       IF REPLACEMENT_FOUND THEN

  10352 24 003142   200005 234100                    SZN     REPLACEMENT_FOUND,,AUTO
        24 003143   003150 605000 24                 TPL     s:10359

     3377    10353    3         DO;
PL6.E3A0      #018=Z8EL$POSSIBLE_REPLACE File=Z8EL.:Z8A6TSI                      SAT 08/09/97 12:20 Page:742

     3378    10354    3           INHIBIT_DUMP_LINES = SAVE_INHIBIT_DUMP_LINES;

  10354 24 003144   200006 236100                    LDQ     SAVE_INHIBIT_DUMP_LINES,,AUTO
        24 003145   400000 376003                    ANQ     -131072,DU
        24 003146   000000 756000 21                 STQ     INHIBIT_DUMP_LINES

     3379    10355    3           RETURN;

  10355 24 003147   000000 702200 xent               TSX2  ! X66_ARET

     3380    10356    3         END;
     3381    10357    2     END;
     3382    10358
     3383    10359    1   INHIBIT_DUMP_LINES = SAVE_INHIBIT_DUMP_LINES;

  10359 24 003150   200006 236100                    LDQ     SAVE_INHIBIT_DUMP_LINES,,AUTO
        24 003151   400000 376003                    ANQ     -131072,DU
        24 003152   000000 756000 21                 STQ     INHIBIT_DUMP_LINES

     3384    10360    1   ALTRETURN;  /* No replace was done */

  10360 24 003153   000000 702200 xent               TSX2  ! X66_AALT
     3385    10361
     3386    10362    1   END Z8EL$POSSIBLE_REPLACE;
     3387    10363
     3388    10364

PL6.E3A0      #018=Z8EL$POSSIBLE_REPLACE File=Z8EL.:Z8A6TSI                      SAT 08/09/97 12:20 Page:743
--  Include file information  --

   Z8E_O1COM.:Z8A6TOU  cannot be made into a system file and is referenced.
   Z8A_COMCOM.:Z8A6TOU  cannot be made into a system file and is referenced.
   Z8E_TABLES.:Z8A6TOU  cannot be made into a system file and is referenced.
   Z8E_BUFFERS.:Z8A6TOU  cannot be made into a system file and is referenced.
   Z8E_WINDOW.:Z8A6TOU  is referenced.
   Z8E_REPLACE.:Z8A6TOU  cannot be made into a system file and is referenced.
   Z8A_LEX_SYMB.:Z8A6TOU  cannot be made into a system file and is referenced.
   Z8E_STACKS.:Z8A6TOU  cannot be made into a system file and is referenced.
   Z8E_HEAP.:Z8A6TOU  cannot be made into a system file and is referenced.
   X8A_COM_MACS.:X8A6TOU  is referenced.
   Z8A_NAMES.:Z8A6TOU  is referenced.
   Z8A_SUPP_MAC.:Z8A6TOU  is referenced.
   Z8A_DEFC.:Z8A6TOU  cannot be made into a system file and is referenced.
      No diagnostics issued in procedure Z8EL$POSSIBLE_REPLACE.
PL6.E3A0      #018=Z8EL$POSSIBLE_REPLACE File=Z8EL.:Z8A6TSI                      SAT 08/09/97 12:20 Page:744

 **** Variables and constants ****

  ****  Section 000 LblCom ITERATION

  ****  Scalars and arrays  ****
OctLoc.c.b A Datatyp(siz) R M Lvl/name                 OctLoc.c.b A Datatyp(siz) R M Lvl/name

     0-0-0/w SBIN              1 ITERATION

  ****  Section 001 LblCom HEAP$

  ****  Scalars and arrays  ****
OctLoc.c.b A Datatyp(siz) R M Lvl/name                 OctLoc.c.b A Datatyp(siz) R M Lvl/name

     0-0-0/w PTR         r     1 HEAP$

  ****  Section 002 LblCom LEX_SYMBOL

  ****  Scalars and arrays  ****
OctLoc.c.b A Datatyp(siz) R M Lvl/name                 OctLoc.c.b A Datatyp(siz) R M Lvl/name

     0-0-0/w STRC(3240)  r     1 LEX_SYMBOL                 0-0-0/w STRC(3240)        1 LEX_SYMBOL_WORDS

  ****  Section 003 LblCom CURRENT_LEX_SYMBOL$

  ****  Scalars and arrays  ****
OctLoc.c.b A Datatyp(siz) R M Lvl/name                 OctLoc.c.b A Datatyp(siz) R M Lvl/name

     0-0-0/w PTR         r     1 CURRENT_LEX_SYMBOL$

  ****  Section 004 LblCom TEMP_LEX_SYMBOL

  ****  Scalars and arrays  ****
OctLoc.c.b A Datatyp(siz) R M Lvl/name                 OctLoc.c.b A Datatyp(siz) R M Lvl/name

     0-0-0/w STRC(3240)        1 TEMP_LEX_SYMBOL

PL6.E3A0      #018=Z8EL$POSSIBLE_REPLACE File=Z8EL.:Z8A6TSI                      SAT 08/09/97 12:20 Page:745
  ****  Section 005 LblCom TEMP_LEX_SYMBOL2

  ****  Scalars and arrays  ****
OctLoc.c.b A Datatyp(siz) R M Lvl/name                 OctLoc.c.b A Datatyp(siz) R M Lvl/name

     0-0-0/w STRC(3240)        1 TEMP_LEX_SYMBOL2

  ****  Section 006 LblCom CURRENT_SYMBOL_LEVEL

  ****  Scalars and arrays  ****
OctLoc.c.b A Datatyp(siz) R M Lvl/name                 OctLoc.c.b A Datatyp(siz) R M Lvl/name

     0-0-0/w SBIN              1 CURRENT_SYMBOL_LEVEL

  ****  Section 007 LblCom REPLACE_ACTIVE

  ****  Scalars and arrays  ****
OctLoc.c.b A Datatyp(siz) R M Lvl/name                 OctLoc.c.b A Datatyp(siz) R M Lvl/name

     0-0-0/b BIT               1 REPLACE_ACTIVE

  ****  Section 008 LblCom IGNORE_COPY_REPLACE

  ****  Scalars and arrays  ****
OctLoc.c.b A Datatyp(siz) R M Lvl/name                 OctLoc.c.b A Datatyp(siz) R M Lvl/name

     0-0-0/b BIT               1 IGNORE_COPY_REPLACE

  ****  Section 009 LblCom COPY_DEBUG_LEVEL

  ****  Scalars and arrays  ****
OctLoc.c.b A Datatyp(siz) R M Lvl/name                 OctLoc.c.b A Datatyp(siz) R M Lvl/name

     0-0-0/w SBIN              1 COPY_DEBUG_LEVEL

  ****  Section 010 LblCom REPLACE_LIST

PL6.E3A0      #018=Z8EL$POSSIBLE_REPLACE File=Z8EL.:Z8A6TSI                      SAT 08/09/97 12:20 Page:746
  ****  Scalars and arrays  ****
OctLoc.c.b A Datatyp(siz) R M Lvl/name                 OctLoc.c.b A Datatyp(siz) R M Lvl/name

     0-0-0/w STRC(144)   r     1 REPLACE_LIST

  ****  Section 011 LblCom LEX_SYMBOL_QUEUE$

  ****  Scalars and arrays  ****
OctLoc.c.b A Datatyp(siz) R M Lvl/name                 OctLoc.c.b A Datatyp(siz) R M Lvl/name

     0-0-0/w PTR         r     1 LEX_SYMBOL_QUEUE$

  ****  Section 012 LblCom SCANNER_STATE

  ****  Scalars and arrays  ****
OctLoc.c.b A Datatyp(siz) R M Lvl/name                 OctLoc.c.b A Datatyp(siz) R M Lvl/name

     0-0-0/w SBIN        r     1 SCANNER_STATE

  ****  Section 013 LblCom CURRENT_BUFFER$

  ****  Scalars and arrays  ****
OctLoc.c.b A Datatyp(siz) R M Lvl/name                 OctLoc.c.b A Datatyp(siz) R M Lvl/name

     0-0-0/w PTR         r     1 CURRENT_BUFFER$

  ****  Section 014 LblCom LOOKAHEAD_BUFFER$

  ****  Scalars and arrays  ****
OctLoc.c.b A Datatyp(siz) R M Lvl/name                 OctLoc.c.b A Datatyp(siz) R M Lvl/name

     0-0-0/w PTR         r     1 LOOKAHEAD_BUFFER$

  ****  Section 015 LblCom CURRENT_LINE_LEVEL

  ****  Scalars and arrays  ****
OctLoc.c.b A Datatyp(siz) R M Lvl/name                 OctLoc.c.b A Datatyp(siz) R M Lvl/name
PL6.E3A0      #018=Z8EL$POSSIBLE_REPLACE File=Z8EL.:Z8A6TSI                      SAT 08/09/97 12:20 Page:747

     0-0-0/w SBIN              1 CURRENT_LINE_LEVEL

  ****  Section 016 LblCom LINE_LIST$

  ****  Scalars and arrays  ****
OctLoc.c.b A Datatyp(siz) R M Lvl/name                 OctLoc.c.b A Datatyp(siz) R M Lvl/name

     0-0-0/w PTR               1 LINE_LIST$

  ****  Section 017 LblCom BUFFER

  ****  Scalars and arrays  ****
OctLoc.c.b A Datatyp(siz) R M Lvl/name                 OctLoc.c.b A Datatyp(siz) R M Lvl/name

     0-0-0/w STRC(252)   r     1 BUFFER

  ****  Section 018 LblCom ORIGINAL_ISN

  ****  Scalars and arrays  ****
OctLoc.c.b A Datatyp(siz) R M Lvl/name                 OctLoc.c.b A Datatyp(siz) R M Lvl/name

     0-0-0/w SBIN              1 ORIGINAL_ISN

  ****  Section 019 LblCom EXPANDED_ISN

  ****  Scalars and arrays  ****
OctLoc.c.b A Datatyp(siz) R M Lvl/name                 OctLoc.c.b A Datatyp(siz) R M Lvl/name

     0-0-0/w SBIN        r     1 EXPANDED_ISN

  ****  Section 020 LblCom ISN_FOR_EXP_SRC

  ****  Scalars and arrays  ****
OctLoc.c.b A Datatyp(siz) R M Lvl/name                 OctLoc.c.b A Datatyp(siz) R M Lvl/name

     0-0-0/w SBIN              1 ISN_FOR_EXP_SRC
PL6.E3A0      #018=Z8EL$POSSIBLE_REPLACE File=Z8EL.:Z8A6TSI                      SAT 08/09/97 12:20 Page:748

  ****  Section 021 LblCom INHIBIT_DUMP_LINES

  ****  Scalars and arrays  ****
OctLoc.c.b A Datatyp(siz) R M Lvl/name                 OctLoc.c.b A Datatyp(siz) R M Lvl/name

     0-0-0/b BIT         r     1 INHIBIT_DUMP_LINES

  ****  Section 022 LblCom LEX_STATE

  ****  Scalars and arrays  ****
OctLoc.c.b A Datatyp(siz) R M Lvl/name                 OctLoc.c.b A Datatyp(siz) R M Lvl/name

     0-0-0/w SBIN        r     1 LEX_STATE

  ****  Auto variables  ****

  ****  Scalars and arrays  ****
OctLoc.c.b A Datatyp(siz) R M Lvl/name                 OctLoc.c.b A Datatyp(siz) R M Lvl/name

    63-0-0/w PTR         r     1 @ADD_BLANKS               64-0-0/w PTR         r     1 @COLUMN
    67-0-0/w PTR         r     1 @COLUMN                   75-0-0/w PTR         r     1 @ISN_INC
    72-0-0/w PTR         r     1 @ISN_INC                  63-0-0/w PTR         r     1 @LINE
    66-0-0/w PTR         r     1 @LINE                     76-0-0/w PTR         r     1 @LINE$
    65-0-0/w PTR         r     1 @LINE$                    71-0-0/w PTR         r     1 @LINE$
     3-0-0/w PTR         r     1 @LOWEST_LEVEL             65-0-0/w PTR         r     1 @SYMBOL$
    *0-0-0/w SBIN        r     1 ADD_BLANKS                37-0-0/w SBIN        r     1 BLANK_SPACE
    30-0-0/w SBIN        r     1 CHAR_CLASS                *0-0-0/w SBIN        r     1 COLUMN
    *0-0-0/w SBIN        r     1 COLUMN                    16-0-0/w SBIN        r     1 CUMM_LINE_OFFSET
    17-0-0/w PTR         r     1 CUMM_LINE_PTR$            26-0-0/w SBIN        r     1 ISN_BASE
    25-0-0/w SBIN        r     1 ISN_INC                   *0-0-0/w SBIN        r     1 ISN_INC
    *0-0-0/w SBIN        r     1 ISN_INC                   22-0-0/w PTR         r     1 L$
    77-0-0/w PTR         r     1 L$                        66-0-0/w PTR         r     1 L$
    73-0-0/w PTR         r     1 L$                        12-0-0/w PTR         r     1 LEX$
    12-0-0/w PTR         r     1 LEX$                      70-0-0/w PTR         r     1 LEX$
    *0-0-0/w SBIN        r     1 LINE                      *0-0-0/w SBIN        r     1 LINE
    *0-0-0/w PTR         r     1 LINE$                     *0-0-0/w PTR         r     1 LINE$
PL6.E3A0      #018=Z8EL$POSSIBLE_REPLACE File=Z8EL.:Z8A6TSI                      SAT 08/09/97 12:20 Page:749
    *0-0-0/w PTR         r     1 LINE$                     *0-0-0/w SBIN        r     1 LOWEST_LEVEL
    11-0-0/w PTR         r     1 MATCH$                    11-0-0/w PTR         r     1 MATCH$
    32-0-0/w SBIN        r     1 MAX_TOKEN_LENGTH          35-0-0/w PTR         r     1 NEW$
    34-0-0/w PTR         r     1 NEXT$                     27-0-0/w SBIN        r     1 NON_BLANK_COL
    41-0-0/w PTR         r     1 OLD_LINE$                  7-0-0/b BIT         r     1 PICTURE_TOKEN
     4-0-0/w PTR         r     1 REPLACE$                   5-0-0/b BIT         r     1 REPLACEMENT_FOUND
    14-0-0/w SBIN        r     1 REP_BEG_COLUMN            13-0-0/w SBIN        r     1 REP_BEG_LINE
    15-0-0/b BIT         r     1 REP_DEBUG_LINE            21-0-0/w SBIN        r     1 REP_END_COLUMN
    20-0-0/w SBIN        r     1 REP_END_LINE              36-0-0/w SBIN        r     1 REP_SIZE
    15-0-0/w PTR         r     1 SAVED_LEX_SYMBOL_QUEUE$
    15-0-0/w PTR         r     1 SAVED_LEX_SYMBOL_QUEUE$
     6-0-0/b BIT         r     1 SAVE_INHIBIT_DUMP_LINES
    33-0-0/w SBIN        r     1 SAVE_SIZE                 61-0-0/w SBIN        r     1 SHIFT_RIGHT
    *0-0-0/w PTR         r     1 SYMBOL$                  100-0-0/w PTR         r     1 T$
    31-0-0/c CHAR        r     1 TEMP_CHAR1                42-0-0/c CHAR(60)    r     1 TEMP_CHAR60
    31-0-0/c SBIN(9)     r     1 TEMP_SBIN                 24-0-0/w SBIN        r     1 TISN
    23-0-0/w PTR         r     1 TL$                       40-0-0/w PTR         r     1 TO_LIST$

  ****  SYMREF variables  ****

  ****  Scalars and arrays  ****
OctLoc.c.b A Datatyp(siz) R M Lvl/name                 OctLoc.c.b A Datatyp(siz) R M Lvl/name

     0-0-0/w STRC(4608)        1 ANSI_USERWORD_SCAN_TABLE
     0-0-0/w STRC(4608)        1 ASCII_SEARCH_TABLE         0-0-0/w STRC(4608)  r     1 BLANK_SCAN_TABLE
     0-0-0/d STRC(13248) r     1 COMCOM
     0-0-0/c CHAR              1 CURRENCY_SIGN_CHARS(0:511)
     0-0-0/w STRC(4608)        1 DBL_QUOTE_PSEUDO_SEARCH_TABLE
     0-0-0/w STRC(4608)        1 DIGIT_SCAN_TABLE
     0-0-0/w STRC(4608)        1 DOUBLE_QUOTE_SEARCH_TABLE
     0-0-0/w STRC(180)         1 HIER_STK(0:50)
     0-0-0/w SBIN              1 HIER_STK_PTR               0-0-0/w STRC(4608)        1 LETTER_SEARCH_TABLE
     0-0-0/c CHAR              1 LOWER_TO_UPPER_CASE(0:511)
     0-0-0/d STRC(11580) r     1 O1COM                      0-0-0/w STRC(144)         1 PAGE_FORMAT
     0-0-0/w STRC(153)         1 REP_STK(0:50)              0-0-0/w SBIN              1 REP_STK_PTR
     0-0-0/w STRC(4608)        1 SEPARATORS_TABLE
     0-0-0/w STRC(4608)        1 SINGLE_QUOTE_SEARCH_TABLE
PL6.E3A0      #018=Z8EL$POSSIBLE_REPLACE File=Z8EL.:Z8A6TSI                      SAT 08/09/97 12:20 Page:750
     0-0-0/w STRC(4608)        1 SNGL_QUOTE_PSEUDO_SEARCH_TABLE
     0-0-0/w STRC(4608)  r     1 USERWORD_SCAN_TABLE

  ****  BASED and DCB variables  ****

  ****  Scalars and arrays  ****
OctLoc.c.b A Datatyp(siz) R M Lvl/name                 OctLoc.c.b A Datatyp(siz) R M Lvl/name

     0-0-0/w STRC(288)         1 ADD_STMT                   0-0-0/w ASTR(324)   r     1 BASED_LEX_SYMBOL
     0-0-0/w STRC(360)         1 BASED_LEX_SYMBOL_WORDS
     0-0-0/w STRC(288)         1 BINARY_OP                  0-0-0/c ACHR        r     1 BUFFER_LINE
     0-0-0/w STRC(288)         1 CALL_STMT                  0-0-0/w CHAR(4096)        1 CHARS
     0-0-0/w STRC(288)         1 COMPUTE_STMT               0-0-0/w STRC(72)          1 CONT
     0-0-0/w STRC(288)         1 DEFERED_IDENTIFIER         0-0-0/w STRC(252)         1 DEFERED_ID_TREE
     0-0-0/w STRC(288)         1 DEFERED_QUAL_ID            0-0-0/w STRC(288)         1 DEFERED_SUM_CLAUSE
     0-0-0/w STRC(288)         1 DEFERED_SUM_CLAUSE_LIST
     0-0-0/w STRC(288)         1 DELETE_STMT                0-0-0/w STRC(288)         1 DIVIDE_STMT
     0-0-0/w ASTR(396)   r     1 EXP_SRC_BUFF               0-0-0/w ASTR(396)   r     1 FILL_BUFFER
     0-0-0/w STRC(288)         1 ILS_LIST                   0-0-0/w STRC(288)         1 INSPECT_1_STMT
     0-0-0/w STRC(288)         1 INSPECT_2_STMT             0-0-0/w STRC(288)         1 INSPECT_4_STMT
     0-0-0/w STRC(288)         1 LA_ITEM                    0-0-0/w STRC(504)         1 LX_CD_INPUT
     0-0-0/w STRC(324)         1 LX_CD_I_O                  0-0-0/w STRC(396)         1 LX_CD_OUTPUT
     0-0-0/w STRC(288)         1 LX_ETT_ITEM                0-0-0/w STRC(288)         1 LX_ITEM
     0-0-0/w STRC(288)         1 LX_LARGE                   0-0-0/w STRC(288)         1 LX_LIST
     0-0-0/w STRC(1224)        1 LX_REC_DECL                0-0-0/w STRC(864)         1 LX_REPORT_REC
     0-0-0/w STRC(288)         1 LX_TERMINAL                0-0-0/w STRC(288)         1 MULTIPLY_STMT
     0-0-0/w STRC(36864)       1 PAGE                       0-0-0/w STRC(288)         1 READ_STMT
     0-0-0/w STRC(252)   r     1 REPLACE_ITEM               0-0-0/w STRC(288)         1 REWRITE_STMT
     0-0-0/w STRC(288)         1 START_STMT                 0-0-0/w STRC(252)         1 STRING_STMT
     0-0-0/w STRC(288)         1 SUBTRACT_STMT              0-0-0/w STRC(288)         1 UNARY_OP
     0-0-0/w STRC(288)         1 UNSTRING_STMT              0-0-0/w STRC(288)         1 WRITE_STMT


   Procedure Z8EL$POSSIBLE_REPLACE requires 1644 words for executable code.
   Procedure Z8EL$POSSIBLE_REPLACE requires 72 words of local(AUTO) storage.
PL6.E3A0      #018=Z8EL$POSSIBLE_REPLACE File=Z8EL.:Z8A6TSI                      SAT 08/09/97 12:20 Page:751

    No errors detected in file Z8EL.:Z8A6TSI    .
