PL6.E3A0      #001=Z8EM$SEMANTICS_DATA_DIV File=Z8EM.:Z8A6TSI                    SAT 08/09/97 12:08 Page:1
        1        1        /*T***********************************************************/
        2        2        /*T*                                                         */
        3        3        /*T* Copyright (c) Bull HN Information Systems Inc., 1997    */
        4        4        /*T*                                                         */
        5        5        /*T***********************************************************/
        6        6        /*========================*/
        7        7          Z8EM$SEMANTICS_DATA_DIV : PROC  NOAUTO;
        8        8        /*========================*/
        9        9
       10       10    1   DCL SEMANTIC_ACTION SBIN WORD EXT;
                10            /* Set by parser to semantic action to be executed */
       11       11
       12       12        %EQU PHASE = 1;
       13       13        %EQU FILLER_CLAUSE_LENGTH = 16;
       14       14        %EQU LEVEL_00 = 0;
       15       15        %EQU LEVEL_01 = 1;
       16       16        %EQU LEVEL_02 = 2;
       17       17        %EQU LEVEL_03 = 3;
       18       18        %EQU LENGTH_0 = 0;
       19       19        %EQU LENGTH_1 = 1;
       20       20        %EQU LENGTH_2 = 2;
       21       21        %EQU LENGTH_4 = 4;
       22       22        %EQU LENGTH_6 = 6;
       23       23        %EQU LENGTH_8 = 8;
       24       24        %EQU LENGTH_12= 12;
       25       25        %EQU ELEMENTARY = '1'B;
       26       26        %EQU GROUP = '0'B;
       27       27        %EQU SINGLE_DIMENSION = 1;
       28       28
       29       29        %INCLUDE Z8A_DEFC;
       30       97        %INCLUDE Z8A_SUPP_MAC;
       31     2497        %INCLUDE Z8A_COMCOM;
       32     3147        %INCLUDE Z8A_ILS;
       33     3256        %INCLUDE Z8A_ILL;
       34     3949        %INCLUDE Z8A_LTS ;
       35     6026        %INCLUDE Z8A_IO_EQUS;
       36     6149        %INCLUDE Z8A_QLT;
PL6.E3A0      #001=Z8EM$SEMANTICS_DATA_DIV File=Z8EM.:Z8A6TSI                    SAT 08/09/97 12:08 Page:2
       37     6255        %INCLUDE Z8A_TYPES;
       38     6429        %INCLUDE Z8A_LIBRARY;
       39     6643        %INCLUDE Z8A_ST;
       40    10302        %INCLUDE Z8A_DNT;
       41    10523        %INCLUDE Z8A_ETT;
       42    10824        %INCLUDE Z8A_SRCH;
       43    10873        %INCLUDE Z8A_ERR_NUMS;
       44    11637        %INCLUDE Z8A_XREF;
       45    11709        %INCLUDE Z8E_DML;
       46    11829        %INCLUDE Z8E_STACKS;
       47    14095        %INCLUDE Z8E_O1COM;
       48    14856        %INCLUDE Z8E_WINDOW;
       49    16926        %INCLUDE Z8E_MACROS;
       50    17601        %INCLUDE Z8D_PIC_PARM;
       51    17707        %INCLUDE Z8E_HEAP;
       52    17763        %INCLUDE Z8E_ABSSYN;
       53    17969        %INCLUDE Z8E_TRANSLAT;
       54    18387        %INCLUDE Z8E_TABLES;
       55    18940        /* Because of GCOS virtual mode considerations, all SYMREFs must be declared
       56    18941           before Z8E_DD_SUBS is included. */
       57    18942    1   DCL DNT$_FROM_RSWNO    (0:0) PTR SYMREF READONLY;
       58    18943    1   DCL END_PROGRAM_FOUND  BIT(1) ALIGNED SYMREF;
       59    18944        %DEF_BUCKETS;
       60    18947        %INCLUDE Z8A_MKCN;
       61    18964
       62    18965        %INCLUDE Z8E_DD_SUBS;
       63    18994        %INCLUDE Z8E_DDPDA_S;
       64    19609        %INCLUDE Z8A_P_STATE;
       65    19619        %INCLUDE Z8E_P_OLAY;
       66    19632
       67    19633        %PARSE_SYMREFS;
       68    19651        %EJECT;
PL6.E3A0      #001=Z8EM$SEMANTICS_DATA_DIV File=Z8EM.:Z8A6TSI                    SAT 08/09/97 12:08 Page:3
       69    19652    1   DCL Z8DT$REPORT_REC    ENTRY (2);
       70    19653    1   DCL Z8DT$CONTROL_ITEMS ENTRY;
       71    19654    1   DCL Z8DT$REPORT_WRAPUP ENTRY;
       72    19655    1   DCL Z8AE$ERROR         ENTRY (12);
       73    19656    1   DCL Z8AF$NEW_BASE      ENTRY (3);
       74    19657    1   DCL Z8CO$END_PROGRAM   ENTRY (1);
       75    19658    1   DCL Z8DO$LINK_WITH_LTS ENTRY (2);
       76    19659    1   DCL Z8DO$QUALIFY_TERMINAL ENTRY (2) ALTRET;
       77    19660    1   DCL Z8DO$QUALIFY_TERMINAL_NO_ERROR ENTRY (2) ALTRET;
       78    19661    1   DCL Z8CO$QUALIFY_VARIABLE ENTRY (2) ALTRET;
       79    19662    1   DCL Z8AF$FORME         ENTRY (4);
       80    19663    1   DCL Z8AT$CREATE_TEMPORARY ENTRY (2);
       81    19664    1   DCL Z8EI$INIT_PROGRAM     ENTRY;
       82    19665
       83    19666    1   DCL Z8DR$RECORD_DECL    ENTRY(2);
       84    19667    1   DCL Z8DP$COMMA_DECIMAL_POINT  ENTRY ;
       85    19668    1   DCL Z8DP$COMMA_DECIMAL_TABLE_SWITCH  ENTRY ;
       86    19669    1   DCL Z8DP$CURRENCY_SIGN        ENTRY (1);
       87    19670    1   DCL Z8AH$SEARCH_              ENTRY;
       88    19671    1   DCL Z8AC$MAKE_CONST            ENTRY (1);
       89    19672    1   DCL Z8DR$NEW_INDEX             ENTRY (5);
       90    19673    1   DCL Z8AH$NEW_DNT              ENTRY (3);
       91    19674    1   DCL Z8EU$ALLOCATE_LIST_ENTRY ENTRY(1);
       92    19675    1   DCL Z8EC$INTERNAL_STRING_REP  ENTRY(2);
       93    19676    1   DCL Z8ED$DISPOSE_ABSSYN_TREE ENTRY(1);
       94    19677
       95    19678    1   DCL Z8DA$STORAGE_ALLOCATION ENTRY (1);
       96    19679    1   DCL Z8DP$VALIDATE_PIC  ENTRY (3) ALTRET;
       97    19680    1   DCL Z8CO$CREATE_LIBRARY_BASE  ENTRY (2);
       98    19681    1   DCL Z9EM$FILE_ORG             ENTRY (2);
       99    19682    1   DCL Z9EM$VERIFY_DEVICE        ENTRY (1);
      100    19683    1   DCL Z9EM$ASSIGN_RECOVERY      ENTRY (2);
      101    19684    1   DCL Z9EM$MASS_STORAGE_CHECK   ENTRY (2) ALTRET;
      102    19685    1   DCL Z9EM$TAPE_CHECK           ENTRY (2) ALTRET;
      103    19686
      104    19687    1   DCL  Z9EM$PROCESS_AREA        ENTRY (1);
      105    19688    1   DCL  Z9EM$NO_PROCESS_AREA     ENTRY (1);
PL6.E3A0      #001=Z8EM$SEMANTICS_DATA_DIV File=Z8EM.:Z8A6TSI                    SAT 08/09/97 12:08 Page:4
      106    19689    1   DCL  Z9EM$WITH_BSN            ENTRY (1);
      107    19690    1   DCL  Z9EM$WITH_SSF            ENTRY (1);
      108    19691    1   DCL  Z9EM$WITH_UNBANNERED     ENTRY (1);
      109    19692    1   DCL  Z9EM$REPORT_CODE         ENTRY (1);
      110    19693
      111    19694    1   DCL Z9EM$LABEL_RECORDS        ENTRY (2);
      112    19695    1   DCL Z9EM$CODE_SET             ENTRY (1);
      113    19696    1   DCL Z8DM$DML_UWA              ENTRY (4);
      114    19697
      115    19698        /* Internal data declarations */
      116    19699
      117    19700    1   DCL SYMDEF_ST$         PTR;
      118    19701    1   DCL SYMDEF$            PTR;
      119    19702    1   DCL TEMP$              PTR;
      120    19703    1   DCL LEN                UBIN; /* for assign string case */
      121    19704    1   DCL I           SBIN WORD;
      122    19705    1   DCL J           SBIN WORD;
      123    19706    1   DCL P$          PTR;
      124    19707    1   DCL SEGMENT_LIMIT      SBIN WORD;
      125    19708    1   DCL OCCURS_LINE        SBIN STATIC;
      126    19709    1   DCL OCCURS_COLUMN      SBIN STATIC;
      127    19710    1   DCL AUTHOR_PGPH_FLAG BOOLEAN STATIC INIT(FALSE);
      128    19711    1   DCL INSTALL_PGPH_FLAG BOOLEAN STATIC INIT(FALSE);
      129    19712    1   DCL DATWRIT_PGPH_FLAG BOOLEAN STATIC INIT(FALSE);
      130    19713    1   DCL DATCMPIL_PGPH_FLAG BOOLEAN STATIC INIT(FALSE);
      131    19714    1   DCL SECURITY_PGPH_FLAG BOOLEAN STATIC INIT(FALSE);
      132    19715
      133    19716        %EJECT;
PL6.E3A0      #001=Z8EM$SEMANTICS_DATA_DIV File=Z8EM.:Z8A6TSI                    SAT 08/09/97 12:08 Page:5
      134    19717        %INCLUDE Z8E_DD_MACRO;
      135    19737
      136    19738        %EQU PARSING_STATS_FILENAME = 'DD_STATS';
      137    19739
      138    19740        %INCLUDE Z8E_P_STATS;
      139    20017
      140    20018        %DUMP_PARSER_STATS_PROC;
      141    20075
      142    20076        %EJECT;
PL6.E3A0      #001=Z8EM$SEMANTICS_DATA_DIV File=Z8EM.:Z8A6TSI                    SAT 08/09/97 12:08 Page:6
      143    20077        %MACRO CHECK_FOR_GTR_1_CHAR (@TERMINAL$ = , @NEW_DNT$ = );
      144    20078
      145    20079           DO;
      146    20080             IF @TERMINAL$ -> LX_TERMINAL.SYMBOL = %ALPHA_LITERAL
      147    20081             OR @TERMINAL$ -> LX_TERMINAL.SYMBOL = %SINGLE_QUOTE THEN
      148    20082               DO;
      149    20083                 CALL Z8EC$INTERNAL_STRING_REP (@TERMINAL$, @NEW_DNT$);
      150    20084
      151    20085                 IF @NEW_DNT$ -> DNT.TEXT.LENGTH > 3 THEN
      152    20086                   CALL Z8AE$ERROR (%E$LITERAL_GTR_1_CHAR,
      153    20087                                    @TERMINAL$ -> LX_TERMINAL.LINE,
      154    20088                                    @TERMINAL$ -> LX_TERMINAL.COLUMN);
      155    20089               END;
      156    20090           END;
      157    20091
      158    20092        %MEND;
      159    20093        %EJECT;
PL6.E3A0      #001=Z8EM$SEMANTICS_DATA_DIV File=Z8EM.:Z8A6TSI                    SAT 08/09/97 12:08 Page:7
      160    20094        %MACRO GET_VALUE (@TERMINAL$ = ,
      161    20095                          @DNT$      = ,
      162    20096                          @VALUE     = );
      163    20097
      164    20098           DO SELECT (@TERMINAL$ -> LX_TERMINAL.SYMBOL);
      165    20099             SELECT (%ALPHA_LITERAL, %SINGLE_QUOTE);
      166    20100               CALL Z8EC$INTERNAL_STRING_REP (@TERMINAL$, @DNT$);
      167    20101
      168    20102               @VALUE = ASCBIN ( SUBSTR (@DNT$ -> DNT.TEXT.NAME,1,1) );
      169    20103
      170    20104             SELECT (%NUMBER);
      171    20105               CALL CHARBIN (@VALUE, @TERMINAL$ -> LX_TERMINAL.DNT$ -> DNT.TEXT.NAME);
      172    20106
      173    20107               @VALUE = @VALUE - 1;
      174    20108
      175    20109             SELECT (%RSV_WRD_HIGH_VALUES);
      176    20110               @VALUE = BITBIN('177'O);
      177    20111
      178    20112             SELECT (%RSV_WRD_LOW_VALUES);
      179    20113               @VALUE = 0;
      180    20114
      181    20115             SELECT (%RSV_WRD_QUOTES);
      182    20116               @VALUE = ASCBIN ('"');
      183    20117
      184    20118             SELECT (%RSV_WRD_SPACES);
      185    20119               @VALUE = ASCBIN (' ');
      186    20120
      187    20121             SELECT (%RSV_WRD_ZEROES);
      188    20122               @VALUE = 0;
      189    20123
      190    20124             SELECT (ELSE);
      191    20125               CALL Z8AE$ERROR (%E$ERROR_IN_ALPHABET_LITERAL,
      192    20126                                @TERMINAL$ -> LX_TERMINAL.LINE,
      193    20127                                @TERMINAL$ -> LX_TERMINAL.COLUMN);
      194    20128               @VALUE = 512;
      195    20129
      196    20130           END; /* Case */
PL6.E3A0      #001=Z8EM$SEMANTICS_DATA_DIV File=Z8EM.:Z8A6TSI                    SAT 08/09/97 12:08 Page:8
      197    20131
      198    20132        %MEND;
      199    20133        %EJECT;
PL6.E3A0      #001=Z8EM$SEMANTICS_DATA_DIV File=Z8EM.:Z8A6TSI                    SAT 08/09/97 12:08 Page:9
      200    20134
      201    20135         %MACRO SAVE_REPORT_TYPE (@REPORT_TYPE = %NO_REPORT_TYPE);
      202    20136           DO;
      203    20137             CALL CHECK_AND_SAVE_ITEM (ADDR(O1COM.LX_STK(O1COM.LX_TOP)),
      204    20138                                       O1COM.REPORT_DD$ -> LX_REPORT_REC.P.TYPE$,
      205    20139                                       %RSV_WRD_TYPE)
      206    20140               WHENRETURN
      207    20141                 DO;
      208    20142                   O1COM.REPORT_DD$ -> LX_REPORT_REC.D.REPORT_TYPE = @REPORT_TYPE;
      209    20143                   O1COM.REPORT_DD$ -> LX_REPORT_REC.CLAUSE_COUNT =
      210    20144                     O1COM.REPORT_DD$ -> LX_REPORT_REC.CLAUSE_COUNT + 1;
      211    20145                 END;
      212    20146
      213    20147           END;
      214    20148         %MEND;
      215    20149
      216    20150         %MACRO NEW_COPY_ID_TREE (@QUAL_ID$ = ,
      217    20151                                  @SUB$     = ,
      218    20152                                  @ACTION# =,
      219    20153                                  @REF$     = );
      220    20154           DO;
      221    20155             %INIT_DEFERED_ID_TREE (@POINTER = "ADDR(TEMP_LX_NODE)",
      222    20156                                    @ACTION_NO# = @ACTION#);
      223    20157             %NEW_COPY_LX_STK (@POINTER = "ADDR(TEMP_LX_NODE) -> DEFERED_ID_TREE.QUAL_ID$",
      224    20158                               @FROM    = @QUAL_ID$);
      225    20159             %IF (TEXTCHAR(@SUB$) ~= '');
      226    20160                %NEW_COPY_LX_STK (@POINTER = "ADDR(TEMP_LX_NODE) -> DEFERED_ID_TREE.SUB$",
      227    20161                                  @FROM    = @SUB$);
      228    20162             %ENDIF;
      229    20163             %IF (TEXTCHAR(@REF$) ~= '');
      230    20164                %NEW_COPY_LX_STK (@POINTER = "ADDR(TEMP_LX_NODE) -> DEFERED_ID_TREE.REF$",
      231    20165                                  @FROM    = @REF$);
      232    20166             %ENDIF;
      233    20167
      234    20168             %NEW_COPY_LX_ITEM (@FROM$ = "ADDR(TEMP_LX_NODE)",
      235    20169                                @TO$   = HEAP$);
      236    20170             %INIT_LX_LARGE (@POINTER = "ADDR(TEMP_LX_NODE)");
PL6.E3A0      #001=Z8EM$SEMANTICS_DATA_DIV File=Z8EM.:Z8A6TSI                    SAT 08/09/97 12:08 Page:10
      237    20171             ADDR(TEMP_LX_NODE) -> LX_LARGE.LARGE_ITEM$ = HEAP$;
      238    20172
      239    20173             %PROPAGATE_TEMP_LX_NODE;
      240    20174           END;
      241    20175         %MEND;
      242    20176         %EJECT;
PL6.E3A0      #001=Z8EM$SEMANTICS_DATA_DIV File=Z8EM.:Z8A6TSI                    SAT 08/09/97 12:08 Page:11
      243    20177
      244    20178
      245    20179
      246    20180
      247    20181        %MACRO ARITH_EXPR_UNARY_OPERATION (@OP = %OP_MINUS);
      248    20182          DO;
      249    20183            %INIT_UNARY_OP (@POINTER = "ADDR(TEMP_LX_NODE)",
      250    20184                            @LINE = "O1COM.LX_STK.LINE(O1COM.LX_TOP - 1)",
      251    20185                            @COLUMN = "O1COM.LX_STK.COLUMN(O1COM.LX_TOP - 1)",
      252    20186                            @OP = @OP);
      253    20187            %PROP_ERR_TEMP_LX_NODE;
      254    20188            %NEW_COPY_LX_STK(@FROM= O1COM.LX_TOP,
      255    20189                             @POINTER = "ADDR(TEMP_LX_NODE) -> UNARY_OP.LOP$");
      256    20190            %PROPAGATE_TEMP_LX_NODE;
      257    20191          END;
      258    20192        %MEND;
      259    20193
      260    20194
      261    20195        %MACRO ARITH_EXPR_BINARY_OPERATION (@OP = %OP_PLUS);
      262    20196          DO;
      263    20197            %INIT_BINARY_OP (@POINTER = "ADDR(TEMP_LX_NODE)",
      264    20198                             @LINE = "O1COM.LX_STK.LINE(O1COM.LX_TOP - 1)",
      265    20199                             @COLUMN = "O1COM.LX_STK.COLUMN(O1COM.LX_TOP - 1)",
      266    20200                             @OP = @OP);
      267    20201            %PROP_ERR_TEMP_LX_NODE;
      268    20202            %NEW_COPY_LX_STK (@FROM = O1COM.LX_TOP,
      269    20203                              @POINTER = "ADDR(TEMP_LX_NODE) -> BINARY_OP.ROP$");
      270    20204            %NEW_COPY_LX_STK (@FROM = "O1COM.LX_TOP - 2",
      271    20205                              @POINTER = "ADDR(TEMP_LX_NODE) -> BINARY_OP.LOP$");
      272    20206            %PROPAGATE_TEMP_LX_NODE;
      273    20207          END;
      274    20208        %MEND;
      275    20209
      276    20210         %MACRO UPDATE_QLT$;
      277    20211           DO;
      278    20212              PREV_QLT$ -> QLT.BROTHER = QLT$$;
      279    20213              QLT$$ -> QLT.FATHER = PREV_QLT$ -> QLT.FATHER;
PL6.E3A0      #001=Z8EM$SEMANTICS_DATA_DIV File=Z8EM.:Z8A6TSI                    SAT 08/09/97 12:08 Page:12
      280    20214              PREV_QLT$ = QLT$$;
      281    20215           END;
      282    20216         %MEND;
      283    20217         %EJECT;
PL6.E3A0      #001=Z8EM$SEMANTICS_DATA_DIV File=Z8EM.:Z8A6TSI                    SAT 08/09/97 12:08 Page:13
      284    20218
      285    20219        /*===========*/
      286    20220    1     ACCESS_MODE: PROC (ACCESS$, ACCESS_MODE);
      287    20221        /*===========*/
      288    20222
      289    20223             /* Functions performed:
      290    20224                  1. Check for duplicate access clauses.
      291    20225                  2. Update FILE_LTS item.
      292    20226             */
      293    20227
      294    20228    2        DCL ACCESS$               PTR;
      295    20229    2        DCL ACCESS_MODE           SBIN;
      296    20230
      297    20231
      298    20232    3        IF O1COM.CURRENT_FILE_LTS$ -> FILE_LTS.ACCESS_MODE = %NOT_SPECIFIED THEN DO;
      299    20233    3          O1COM.CURRENT_FILE_LTS$ -> FILE_LTS.ACCESS_MODE = ACCESS_MODE;
      300    20234    3          IF COMCOM.OB.FIPS.LEVEL >= %INT_LEV AND ACCESS_MODE = %DYNAMIC_ACCESS OR
      301    20235    3              COMCOM.OB.FIPS.LEVEL > %INT_LEV AND ACCESS_MODE = %RANDOM_ACCESS THEN
      302    20236    3            CALL Z8AE$ERROR (%E$LEVEL_CHECK,
      303    20237    3                             O1COM.LX_STK.LINE(O1COM.LX_TOP - 1),
      304    20238    3                             O1COM.LX_STK.COLUMN(O1COM.LX_TOP - 1));
      305    20239    3        END;
      306    20240    2        ELSE
      307    20241               %CONDITIONAL_ERROR (@LX_ITEM$ = ACCESS$,
      308    20242                                   @ERROR#   = %E$DUP_DD_CLAUSE,
      309    20243                                   @LINE     = ACCESS$ -> LX_TERMINAL.LINE,
      310    20244                                   @COLUMN   = ACCESS$ -> LX_TERMINAL.COLUMN,
      311    20245                                   @PLUG1    = "DNT$_FROM_RSWNO(%RSV_WRD_ACCESS)");
      312    20275
      313    20276    2        IF O1COM.CURRENT_FILE_LTS$ -> FILE_LTS.ORGANIZATION ~= %NOT_SPECIFIED THEN
      314    20277    2          CALL CHECK_DIFF_ORG_AND_ACCESS (ACCESS$,
      315    20278    2                                          ACCESS_MODE,
      316    20279    2                                          O1COM.CURRENT_FILE_LTS$ ->
      317    20280    2                                          FILE_LTS.ORGANIZATION);
      318    20281
      319    20282    2   END ACCESS_MODE;
      320    20283        %EJECT;
PL6.E3A0      #001=Z8EM$SEMANTICS_DATA_DIV File=Z8EM.:Z8A6TSI                    SAT 08/09/97 12:08 Page:14
      321    20284
      322    20285         /*==================*/
      323    20286    1      ALLOCATE_CD_BUFFER: PROC (BUFFER_LENGTH, BUFFER_ST$);
      324    20287         /*==================*/
      325    20288
      326    20289
      327    20290        %EQU CD_BUFFER_TEXT = 'CD_BUFFER';
      328    20291        %EQU CD_BUFFER_TEXT_LENGTH = 9;
      329    20292
      330    20293    2   DCL BUFFER_LENGTH          SBIN WORD;
      331    20294    2   DCL BUFFER_ST$             PTR;
      332    20295
      333    20296
      334    20297    2      LEX_SYMBOL.SIZE = %CD_BUFFER_TEXT_LENGTH;
      335    20298    2      SUBSTR (LEX_SYMBOL.SYMBOL,
      336    20299    2              0,
      337    20300    2              LEX_SYMBOL.SIZE) = %CD_BUFFER_TEXT;
      338    20301
      339    20302    2      CALL Z8AH$SEARCH_;
      340    20303
      341    20304    2      CALL CREATE_CD_AREA (DNT$, BUFFER_LENGTH, BUFFER_ST$, %LEVEL_01);
      342    20305
      343    20306    2    END ALLOCATE_CD_BUFFER;
      344    20307         %EJECT;
PL6.E3A0      #001=Z8EM$SEMANTICS_DATA_DIV File=Z8EM.:Z8A6TSI                    SAT 08/09/97 12:08 Page:15
      345    20308
      346    20309         /*=====================*/
      347    20310    1      ALLOCATE_CD_WORK_AREA: PROC (WORK_ST$);
      348    20311         /*=====================*/
      349    20312
      350    20313
      351    20314        %EQU CD_ENTRY_TEXT = 'CD_ENTRY';
      352    20315        %EQU CD_ENTRY_TEXT_LENGTH = 8;
      353    20316        %EQU CD_ENTRY_SIZE = 0;
      354    20317
      355    20318        %EQU CD_WORK_TEXT      = 'CD_WORK';
      356    20319        %EQU CD_WORK_TEXT_LENGTH = 7;
      357    20320        %EQU CD_WORK_SIZE      = 28;
      358    20321
      359    20322    2   DCL ENTRY_ST$      PTR;
      360    20323    2   DCL WORK_ST$       PTR;
      361    20324
      362    20325
      363    20326    2      LEX_SYMBOL.SIZE = %CD_ENTRY_TEXT_LENGTH;
      364    20327
      365    20328    2      SUBSTR (LEX_SYMBOL.SYMBOL,
      366    20329    2              0,
      367    20330    2              LEX_SYMBOL.SIZE) = %CD_ENTRY_TEXT;
      368    20331
      369    20332    2      CALL Z8AH$SEARCH_;
      370    20333
      371    20334    2      CALL CREATE_CD_AREA (DNT$,
      372    20335    2                           %CD_ENTRY_SIZE,
      373    20336    2                           ENTRY_ST$, %LEVEL_00);
      374    20337
      375    20338    2      LEX_SYMBOL.SIZE = %CD_WORK_TEXT_LENGTH;
      376    20339
      377    20340    2      SUBSTR (LEX_SYMBOL.SYMBOL,
      378    20341    2              0,
      379    20342    2              LEX_SYMBOL.SIZE) = %CD_WORK_TEXT;
      380    20343
      381    20344    2      CALL Z8AH$SEARCH_;
PL6.E3A0      #001=Z8EM$SEMANTICS_DATA_DIV File=Z8EM.:Z8A6TSI                    SAT 08/09/97 12:08 Page:16
      382    20345
      383    20346    2      CALL CREATE_CD_AREA (DNT$,
      384    20347    2                           %CD_WORK_SIZE,
      385    20348    2                           WORK_ST$, %LEVEL_01);
      386    20349
      387    20350    2      ENTRY_ST$ -> CD.ID = %CD;
      388    20351    2      ENTRY_ST$ -> CD.B.ELEMENTARY = FALSE;
      389    20352    2      ENTRY_ST$ -> CD.QLT$ -> QLT.BROTHER = ADDR(NIL);
      390    20353    2      ENTRY_ST$ -> CD.QLT$ -> QLT.SON = WORK_ST$ -> SCALAR.QLT$;
      391    20354    2      WORK_ST$ -> SCALAR.QLT$ -> QLT.FATHER = ENTRY_ST$ -> CD.QLT$;
      392    20355
      393    20356    2    END ALLOCATE_CD_WORK_AREA;
      394    20357         %EJECT;
PL6.E3A0      #001=Z8EM$SEMANTICS_DATA_DIV File=Z8EM.:Z8A6TSI                    SAT 08/09/97 12:08 Page:17
      395    20358        /*=====================*/
      396    20359    1     ALPHABET_ALSO_LITERAL: PROC (ALSO_LIST$, ALPHA_ST$, NEXT_SEQ#);
      397    20360        /*=====================*/
      398    20361
      399    20362    2   DCL ALSO_LIST$         PTR;
      400    20363    2   DCL ALPHA_ST$          PTR;
      401    20364    2   DCL NEXT_SEQ#          UBIN WORD;
      402    20365
      403    20366    2   DCL LIST$              PTR;
      404    20367    2   DCL DNT$$              PTR;
      405    20368
      406    20369
      407    20370    2      LIST$ = ALSO_LIST$;
      408    20371
      409    20372    3      DO WHILE (LIST$ ~= ADDR(NIL));
      410    20373             %CHECK_FOR_GTR_1_CHAR (@TERMINAL$ = LIST$, @NEW_DNT$ = DNT$$);
      411    20386
      412    20387    3        CALL WALK_LITERAL (LIST$, ALPHA_ST$, NEXT_SEQ#);
      413    20388
      414    20389    3        NEXT_SEQ# = NEXT_SEQ# - 1;
      415    20390    3        LIST$ = LIST$ -> LX_TERMINAL.LINK;
      416    20391    3      END; /* While */
      417    20392
      418    20393    2      NEXT_SEQ# = NEXT_SEQ# + 1;
      419    20394
      420    20395    2   END ALPHABET_ALSO_LITERAL;
      421    20396        %EJECT;
PL6.E3A0      #001=Z8EM$SEMANTICS_DATA_DIV File=Z8EM.:Z8A6TSI                    SAT 08/09/97 12:08 Page:18
      422    20397        /*=============*/
      423    20398    1     ALPHABET_NAME: PROC (ALPHA_KEYWORD$, ALPHA_NAME$, ALPHA_TYPE$);
      424    20399        /*=============*/
      425    20400
      426    20401    2   DCL ALPHA_KEYWORD$     PTR;
      427    20402    2   DCL ALPHA_NAME$        PTR;
      428    20403    2   DCL ALPHA_TYPE$        PTR;
      429    20404
      430    20405    2   DCL TYPE_LIST$         PTR;
      431    20406    2   DCL ALPHA_ST$          PTR;
      432    20407    2   DCL TRANS_TABLE$       PTR;
      433    20408    2   DCL NEXT_SEQ#          UBIN WORD;
      434    20409    2   DCL TABLE_ETT$         PTR;
      435    20410    2   DCL COLL_DNT$          PTR;
      436    20411    2   DCL ALPHA_DNT$         PTR;
      437    20412    2   DCL PROC$              PTR;
      438    20413    2   DCL TDNT$              PTR;
      439    20414
      440    20415    2      PROC$ = O1COM.CURRENT_PROC$ -> PROC_.PROC_SUPP$;
      441    20416
      442    20417    2      IF COMCOM.OB.FIPS.LEVEL > 0 THEN
      443    20418    2        IF ALPHA_KEYWORD$ -> LX_TERMINAL.SYMBOL ~= %RSV_WRD_ALPHABET THEN
      444    20419    2          CALL Z8AE$ERROR (%E$ALPHABET_OMITTED_ANSI,
      445    20420    2                           ALPHA_NAME$ -> LX_TERMINAL.LINE,
      446    20421    2                           ALPHA_NAME$ -> LX_TERMINAL.COLUMN);
      447    20422
      448    20423    3      IF ALPHA_NAME$ -> LX_TERMINAL.DNT$ -> DNT.B.RW THEN DO ;
      449    20424
      450    20425    3        CALL Z8AE$ERROR (%E$RW_USED_AS_DATA_NAME,
      451    20426    3                         ALPHA_NAME$ -> LX_TERMINAL.LINE,
      452    20427    3                         ALPHA_NAME$ -> LX_TERMINAL.COLUMN,
      453    20428    3                         ALPHA_NAME$ -> LX_TERMINAL.DNT$);
      454    20429             /* Create new DNT for non-reserved word since reserved
      455    20430                   word is in constant storage */
      456    20431    3        TDNT$ = ALPHA_NAME$ -> LX_TERMINAL.DNT$;
      457    20432             %NEW_DNT(@SIZE = TDNT$ -> DNT.TEXT.LENGTH,
      458    20433                         @POINTER = ALPHA_NAME$ -> LX_TERMINAL.DNT$,
PL6.E3A0      #001=Z8EM$SEMANTICS_DATA_DIV File=Z8EM.:Z8A6TSI                    SAT 08/09/97 12:08 Page:19
      459    20434                         @NAME = TDNT$ -> DNT.TEXT.NAME,
      460    20435                         @ST$ = TDNT$ -> DNT.ST$,
      461    20436                         @NEXT = "DNT_BUCKETS(DNT_BUCKET_NUMBER)");
      462    20494    3        ALPHA_NAME$ -> LX_TERMINAL.DNT$ -> DNT.ATTR = TDNT$ -> DNT.ATTR;
      463    20495    3        ALPHA_NAME$ -> LX_TERMINAL.DNT$ -> DNT.B.USER_WORD = TRUE;
      464    20496    3        ALPHA_NAME$ -> LX_TERMINAL.DNT$ -> DNT.B.RW = FALSE;
      465    20497    3        DNT_BUCKETS(DNT_BUCKET_NUMBER) = ALPHA_NAME$ -> LX_TERMINAL.DNT$;
      466    20498
      467    20499    3      END;
      468    20500
      469    20501    3      DO CASE (ALPHA_TYPE$ -> LX_ITEM.ID);
      470    20502
      471    20503    3        CASE (%LX_TERMINAL);
      472    20504    3          CALL COMMON_ALPHABET_NAME (ALPHA_NAME$,
      473    20505    3                                     ALPHA_TYPE$,
      474    20506    3                                     ALPHA_ST$,
      475    20507    3                                     TABLE_ETT$);
      476    20508
      477    20509    3          ALPHA_NAME$ -> LX_TERMINAL.DNT$ -> DNT.ST$ = ALPHA_ST$;
      478    20510
      479    20511    3          IF O1COM.COLLATING_SEQ$ ~= ADDR(NIL)
      480    20512    3          AND O1COM.COLLATING_SEQ$ -> LX_TERMINAL.DNT$
      481    20513    3          =   ALPHA_NAME$ -> LX_TERMINAL.DNT$ THEN
      482    20514    4            DO;
      483    20515    4              PROC$ -> PROC_SUPP.COLLATING_SEQ$ = ALPHA_ST$;
      484    20516
      485    20517    4              CALL Z8ED$DISPOSE_ABSSYN_TREE (O1COM.COLLATING_SEQ$);
      486    20518    4            END;
      487    20519
      488    20520    3          CALL Z8DO$QUALIFY_TERMINAL (ALPHA_NAME$, ALPHA_ST$);
      489    20521    3          RETURN;
      490    20522
      491    20523    3        CASE (%LX_LIST);
      492    20524    3          CALL NEW_ALPHABET (ALPHA_NAME$, ALPHA_ST$);
      493    20525
      494    20526    3          TABLE_ETT$ = ALPHA_ST$ -> ALPHABET.TABLE_ETT$;
      495    20527
PL6.E3A0      #001=Z8EM$SEMANTICS_DATA_DIV File=Z8EM.:Z8A6TSI                    SAT 08/09/97 12:08 Page:20
      496    20528
      497    20529    3          IF O1COM.COLLATING_SEQ$ ~= ADDR(NIL)
      498    20530    3          AND O1COM.COLLATING_SEQ$ -> LX_TERMINAL.DNT$
      499    20531    3          =   ALPHA_NAME$ -> LX_TERMINAL.DNT$ THEN
      500    20532    4            DO;
      501    20533    4              PROC$ -> PROC_SUPP.COLLATING_SEQ$ = ALPHA_ST$;
      502    20534
      503    20535    4              CALL Z8ED$DISPOSE_ABSSYN_TREE (O1COM.COLLATING_SEQ$);
      504    20536    4            END;
      505    20537
      506    20538    3          TRANS_TABLE$ = TABLE_ETT$ -> ETT.LOP -> CONST.CONST$.PTR$;
      507    20539
      508    20540    3          CALL INITIALIZE_TRANS_TABLE (TRANS_TABLE$);
      509    20541
      510    20542    3          NEXT_SEQ#  = 000;
      511    20543
      512    20544    3          TYPE_LIST$ = ALPHA_TYPE$ -> LX_LIST.HEAD$;
      513    20545
      514    20546    4          IF COMCOM.OB.FIPS.LEVEL >= %INT_LEV THEN DO;
      515    20547    4            IF ALPHA_KEYWORD$ -> LX_TERMINAL.SYMBOL = %RSV_WRD_ALPHABET THEN
      516    20548    4            CALL Z8AE$ERROR (%E$LEVEL_CHECK,
      517    20549    4                             ALPHA_KEYWORD$ -> LX_TERMINAL.LINE,
      518    20550    4                             ALPHA_KEYWORD$ -> LX_TERMINAL.COLUMN);
      519    20551    4          END;
      520    20552
      521    20553    4          DO WHILE (TYPE_LIST$ ~= ADDR(NIL));
      522    20554
      523    20555    5            DO CASE (TYPE_LIST$ -> LX_ITEM.ID);
      524    20556
      525    20557    5              CASE (%LX_LIST);
      526    20558    6                DO CASE (TYPE_LIST$ -> LX_LIST.HEAD$ -> LX_ITEM.ID);
      527    20559
      528    20560    6                  CASE (%LX_TERMINAL);
      529    20561    6                    IF TYPE_LIST$ -> LX_LIST.COUNT = 1 THEN
      530    20562    6                      CALL WALK_LITERAL (TYPE_LIST$ -> LX_LIST.HEAD$,
      531    20563    6                                             ALPHA_ST$,
      532    20564    6                                             NEXT_SEQ#);
PL6.E3A0      #001=Z8EM$SEMANTICS_DATA_DIV File=Z8EM.:Z8A6TSI                    SAT 08/09/97 12:08 Page:21
      533    20565    6                    ELSE
      534    20566    7                      DO;
      535    20567    7                        ALPHA_ST$ -> ALPHABET.B.ALSO = TRUE;
      536    20568
      537    20569    7                        CALL ALPHABET_ALSO_LITERAL (TYPE_LIST$ -> LX_LIST.HEAD$,
      538    20570    7                                                    ALPHA_ST$,
      539    20571    7                                                    NEXT_SEQ#);
      540    20572    7                      END;
      541    20573
      542    20574    6                  CASE (%LX_LIST);
      543    20575    6                    CALL LIT_THRU_LIT (TYPE_LIST$ -> LX_LIST.HEAD$,
      544    20576    6                                                ALPHA_ST$,
      545    20577    6                                                NEXT_SEQ#);
      546    20578
      547    20579    6                  CASE (ELSE);
      548    20580    6                    CALL Z8AE$ERROR (%E$UNEXPECTED_CASE);
      549    20581    6                END; /* Case */
      550    20582
      551    20583    5              CASE (ELSE);
      552    20584    5                CALL Z8AE$ERROR (%E$UNEXPECTED_CASE);
      553    20585    5            END; /* Case */
      554    20586
      555    20587    4            TYPE_LIST$ = TYPE_LIST$ -> LX_ITEM.LINK;
      556    20588    4          END; /* While */
      557    20589
      558    20590    3          CALL PROCESS_REMAINING_TABLE (ALPHA_ST$, NEXT_SEQ#);
      559    20591
      560    20592    3          CALL Z8DO$QUALIFY_TERMINAL (ALPHA_NAME$, ALPHA_ST$);
      561    20593
      562    20594    3          CALL Z8ED$DISPOSE_ABSSYN_TREE ( ALPHA_TYPE$ -> LX_LIST.HEAD$ );
      563    20595
      564    20596    3        CASE (ELSE);
      565    20597    3          CALL Z8AE$ERROR (%E$UNEXPECTED_CASE,
      566    20598    3                           ALPHA_NAME$ -> LX_TERMINAL.LINE,
      567    20599    3                           ALPHA_NAME$ -> LX_TERMINAL.COLUMN);
      568    20600
      569    20601    3      END; /* Case */
PL6.E3A0      #001=Z8EM$SEMANTICS_DATA_DIV File=Z8EM.:Z8A6TSI                    SAT 08/09/97 12:08 Page:22
      570    20602
      571    20603    2   END ALPHABET_NAME;
      572    20604        %EJECT;
PL6.E3A0      #001=Z8EM$SEMANTICS_DATA_DIV File=Z8EM.:Z8A6TSI                    SAT 08/09/97 12:08 Page:23
      573    20605        /*=======*/
      574    20606    1     ALT_KEY: PROC (KEY$);
      575    20607        /*=======*/
      576    20608
      577    20609    2        DCL KEY$          PTR;
      578    20610    2        DCL ITEM$         PTR;
      579    20611    2        DCL LIST$         PTR;
      580    20612    2        DCL KEY_LIST$     PTR;
      581    20613
      582    20614
      583    20615    2        LIST$ = O1COM.CURRENT_FILE_LTS$ -> FILE_LTS.ALT_RECORD_KEY$;
      584    20616
      585    20617    2        CALL CHECK_SEQ_ORG (KEY$ -> LX_LIST.HEAD$)
      586    20618    2          WHENALTRETURN
      587    20619    3            DO;
      588    20620    3              CALL Z8ED$DISPOSE_ABSSYN_TREE (KEY$ -> LX_LIST.HEAD$);
      589    20621    3              RETURN;
      590    20622    3            END;
      591    20623
      592    20624    2        CALL CHECK_REL_ORG (KEY$ -> LX_LIST.HEAD$)
      593    20625    2          WHENALTRETURN
      594    20626    3            DO;
      595    20627    3              CALL Z8ED$DISPOSE_ABSSYN_TREE (KEY$ -> LX_LIST.HEAD$);
      596    20628    3              RETURN;
      597    20629    3            END;
      598    20630
      599    20631    2        CALL CHECK_KEY_ORG (KEY$ -> LX_LIST.HEAD$)
      600    20632    2          WHENALTRETURN
      601    20633    3            DO;
      602    20634    3              CALL Z8ED$DISPOSE_ABSSYN_TREE (KEY$ -> LX_LIST.HEAD$);
      603    20635    3              RETURN;
      604    20636    3            END;
      605    20637
      606    20638
      607    20639    2        IF LIST$ = ADDR(NIL) THEN
      608    20640    3          DO;
      609    20641                 %NEW_HEAP (@POINTER = LIST$);
PL6.E3A0      #001=Z8EM$SEMANTICS_DATA_DIV File=Z8EM.:Z8A6TSI                    SAT 08/09/97 12:08 Page:24
      610    20646
      611    20647                 %INIT_LX_LIST (@POINTER = LIST$);
      612    20657    3          END;
      613    20658
      614    20659             %NEW_COPY_LX_ITEM (@FROM$ = KEY$,
      615    20660                                @TO$   = ITEM$);
      616    20672
      617    20673             %NEW_HEAP (@POINTER = KEY_LIST$);
      618    20678
      619    20679             %INIT_LX_LIST (@POINTER = KEY_LIST$);
      620    20689
      621    20690             %ADD_LX_ITEM_TO_LIST_TAIL (@LIST$ = KEY_LIST$,
      622    20691                                        @FROM$ = ITEM$);
      623    20707
      624    20708             %ADD_LX_ITEM_TO_LIST_TAIL (@LIST$ = LIST$,
      625    20709                                        @FROM$ = KEY_LIST$);
      626    20725
      627    20726    2        O1COM.CURRENT_ALT_KEY = TRUE;
      628    20727    2        O1COM.CURRENT_FILE_LTS$ -> FILE_LTS.ALT_RECORD_KEY$ = LIST$;
      629    20728
      630    20729
      631    20730    2   END ALT_KEY;
      632    20731        %EJECT;
PL6.E3A0      #001=Z8EM$SEMANTICS_DATA_DIV File=Z8EM.:Z8A6TSI                    SAT 08/09/97 12:08 Page:25
      633    20732        /*====================*/
      634    20733    1     ANSI_ATTRIBUTE_CHECK: PROC (ATTR$);
      635    20734        /*====================*/
      636    20735
      637    20736    2     DCL ATTR$ PTR;
      638    20737
      639    20738    2     IF COMCOM.OB.FIPS.LEVEL > 0 THEN
      640    20739    2       CALL Z8AE$ERROR (%E$NON_ANSI_FILE_ATTR,
      641    20740    2                        ATTR$ -> LX_TERMINAL.LINE,
      642    20741    2                        ATTR$ -> LX_TERMINAL.COLUMN);
      643    20742    2   END ANSI_ATTRIBUTE_CHECK;
      644    20743        %EJECT;
PL6.E3A0      #001=Z8EM$SEMANTICS_DATA_DIV File=Z8EM.:Z8A6TSI                    SAT 08/09/97 12:08 Page:26
      645    20744        /*==================*/
      646    20745    1     APPEND_DD_CLAUSES : PROC (REC_DD_CLAUSE$, SEND_DD_CLAUSE$);
      647    20746        /*==================*/
      648    20747
      649    20748    2     DCL REC_DD_CLAUSE$ PTR;
      650    20749    2     DCL SEND_DD_CLAUSE$ PTR;
      651    20750
      652    20751    2     DCL RSW_NO(0:%REC_DECL_MAX_FIELD) SBIN WORD CONSTANT INIT(
      653    20752    2           %RSV_WRD_NUMBER,
      654    20753    2           %RSV_WRD_FILLER,
      655    20754    2           %RSV_WRD_USAGE,
      656    20755    2           %RSV_WRD_PICTURE,
      657    20756    2           %RSV_WRD_REDEFINES,
      658    20757    2           %RSV_WRD_RENAMES,
      659    20758    2           %RSV_WRD_OCCURS,
      660    20759    2           %RSV_WRD_VALUE,
      661    20760    2           %RSV_WRD_SIGN,
      662    20761    2           %RSV_WRD_BLANK,
      663    20762    2           %RSV_WRD_GLOBAL,
      664    20763    2           %RSV_WRD_SYNCHRONIZED,
      665    20764    2           %RSV_WRD_EXTERNAL,
      666    20765    2           %RSV_WRD_JUSTIFIED,
      667    20766    2           %RSV_WRD_INDEXED,
      668    20767    2           %RSV_WRD_KEY);
      669    20768    2     DCL I SBIN WORD;
      670    20769
      671    20770    3     DO I = 0 TO %REC_DECL_MAX_FIELD;
      672    20771
      673    20772    3       IF SEND_DD_CLAUSE$ -> LX_REC_DECL.P_PTRS(I) ~= ADDR(NIL) THEN
      674    20773    4         DO;
      675    20774    5           DO CASE (I);
      676    20775
      677    20776    5             CASE (%REC_DECL_USAGE,
      678    20777    5                   %REC_DECL_PIC_CLAUSE,
      679    20778    5                   %REC_DECL_RENAMES,
      680    20779    5                   %REC_DECL_OCCURS,
      681    20780    5                   %REC_DECL_VALUE,
PL6.E3A0      #001=Z8EM$SEMANTICS_DATA_DIV File=Z8EM.:Z8A6TSI                    SAT 08/09/97 12:08 Page:27
      682    20781    5                   %REC_DECL_SIGN,
      683    20782    5                   %REC_DECL_BLANK,
      684    20783    5                   %REC_DECL_GLOBAL,
      685    20784    5                   %REC_DECL_SYNC,
      686    20785    5                   %REC_DECL_EXTERNAL,
      687    20786    5                   %REC_DECL_JUSTIFIED,
      688    20787    5                   %REC_DECL_REDEFINES,
      689    20788    5                   %REC_DECL_INDEXED);
      690    20789
      691    20790    5               IF I = %REC_DECL_REDEFINES
      692    20791    5                    AND NOT SEND_DD_CLAUSE$ -> LX_REC_DECL.P.REDEFINES$
      693    20792    5                               -> LX_ITEM.B.ERROR THEN
      694    20793    5                 CALL Z8AE$ERROR (%E$REDEFINES_ORDER_ERR);
      695    20794
      696    20795    5               IF REC_DD_CLAUSE$ -> LX_REC_DECL.P_PTRS(I) = ADDR(NIL) THEN
      697    20796    6                 DO;
      698    20797    6                   REC_DD_CLAUSE$ -> LX_REC_DECL.P_PTRS(I)
      699    20798    6                      = SEND_DD_CLAUSE$ -> LX_REC_DECL.P_PTRS(I);
      700    20799    6                   IF I = %REC_DECL_INDEXED
      701    20800    6                       AND REC_DD_CLAUSE$ -> LX_REC_DECL.CLAUSE_COUNT(%REC_DECL_OCCURS)
      702    20801    6                               ~= REC_DD_CLAUSE$ -> LX_REC_DECL.CURRENT_CLAUSE_COUNT
      703    20802    6                       AND REC_DD_CLAUSE$ -> LX_REC_DECL.CLAUSE_COUNT(%REC_DECL_KEY)
      704    20803    6                               ~=  REC_DD_CLAUSE$ -> LX_REC_DECL.CURRENT_CLAUSE_COUNT
      705    20804    6                       AND NOT REC_DD_CLAUSE$ -> LX_REC_DECL.P.INDEXED$
      706    20805    6                               -> LX_ITEM.B.ERROR THEN
      707    20806    7                     DO;
      708    20807    7                       CALL Z8AE$ERROR (%E$OCCURS_ORDERING_ERROR);
      709    20808    7                     END;
      710    20809
      711    20810    6                  REC_DD_CLAUSE$ -> LX_REC_DECL.CURRENT_CLAUSE_COUNT
      712    20811    6                    = REC_DD_CLAUSE$ -> LX_REC_DECL.CURRENT_CLAUSE_COUNT + 1;
      713    20812    6                  REC_DD_CLAUSE$ -> LX_REC_DECL.CLAUSE_COUNT(I)
      714    20813    6                     = REC_DD_CLAUSE$ -> LX_REC_DECL.CURRENT_CLAUSE_COUNT;
      715    20814    6                  SEND_DD_CLAUSE$ -> LX_REC_DECL.P_PTRS(I) = ADDR(NIL);
      716    20815    6                END;
      717    20816    5              ELSE
      718    20817    6                DO;  /* ERROR - DUPLICATE CLAUSE */
PL6.E3A0      #001=Z8EM$SEMANTICS_DATA_DIV File=Z8EM.:Z8A6TSI                    SAT 08/09/97 12:08 Page:28
      719    20818    6                  IF NOT SEND_DD_CLAUSE$ -> LX_REC_DECL.P_PTRS(I)
      720    20819    6                      -> LX_ITEM.B.ERROR THEN
      721    20820    7                    DO;
      722    20821    7                      CALL Z8AE$ERROR (%E$DUP_DD_CLAUSE,,,
      723    20822    7                                       DNT$_FROM_RSWNO(RSW_NO(I)));
      724    20823    7                    END;
      725    20824    6                END;
      726    20825
      727    20826    5         CASE (%REC_DECL_KEY);
      728    20827
      729    20828    5           IF REC_DD_CLAUSE$ -> LX_REC_DECL.CLAUSE_COUNT(%REC_DECL_OCCURS)
      730    20829    5                 ~= REC_DD_CLAUSE$ -> LX_REC_DECL.CURRENT_CLAUSE_COUNT
      731    20830    5              AND REC_DD_CLAUSE$ -> LX_REC_DECL.CLAUSE_COUNT(%REC_DECL_INDEXED)
      732    20831    5                 ~= REC_DD_CLAUSE$ -> LX_REC_DECL.CURRENT_CLAUSE_COUNT
      733    20832    5              AND REC_DD_CLAUSE$ -> LX_REC_DECL.CLAUSE_COUNT(%REC_DECL_KEY)
      734    20833    5                 ~= REC_DD_CLAUSE$ -> LX_REC_DECL.CURRENT_CLAUSE_COUNT
      735    20834    5              AND NOT SEND_DD_CLAUSE$ -> LX_REC_DECL.P.KEY$ -> LX_LIST.B.ERROR THEN
      736    20835    5             CALL Z8AE$ERROR (%E$OCCURS_ORDERING_ERROR);
      737    20836
      738    20837    5           IF REC_DD_CLAUSE$ -> LX_REC_DECL.P.KEY$ = ADDR(NIL) THEN
      739    20838    6             DO;
      740    20839    6               REC_DD_CLAUSE$ -> LX_REC_DECL.P.KEY$
      741    20840    6                  = SEND_DD_CLAUSE$ -> LX_REC_DECL.P.KEY$;
      742    20841    6               SEND_DD_CLAUSE$ -> LX_REC_DECL.P.KEY$ = ADDR(NIL);
      743    20842    6             END;
      744    20843    5           ELSE
      745    20844    6             DO;
      746    20845                    %APPEND_LISTS(@FROM$ = "SEND_DD_CLAUSE$ -> LX_REC_DECL.P.KEY$",
      747    20846                                  @TO$ = "REC_DD_CLAUSE$ -> LX_REC_DECL.P.KEY$");
      748    20862    6             END;
      749    20863    5                  REC_DD_CLAUSE$ -> LX_REC_DECL.CURRENT_CLAUSE_COUNT
      750    20864    5                    = REC_DD_CLAUSE$ -> LX_REC_DECL.CURRENT_CLAUSE_COUNT + 1;
      751    20865    5                  REC_DD_CLAUSE$ -> LX_REC_DECL.CLAUSE_COUNT(I)
      752    20866    5                     = REC_DD_CLAUSE$ -> LX_REC_DECL.CURRENT_CLAUSE_COUNT;
      753    20867    5         END;  /* DO CASE */
      754    20868    4       END;
      755    20869    3     END;
PL6.E3A0      #001=Z8EM$SEMANTICS_DATA_DIV File=Z8EM.:Z8A6TSI                    SAT 08/09/97 12:08 Page:29
      756    20870
      757    20871
      758    20872    2   END APPEND_DD_CLAUSES;
      759    20873        %EJECT;
PL6.E3A0      #001=Z8EM$SEMANTICS_DATA_DIV File=Z8EM.:Z8A6TSI                    SAT 08/09/97 12:08 Page:30
      760    20874        /*=============*/
      761    20875    1     ASSIGN_DEVICE: PROC (ASSIGN$);
      762    20876        /*=============*/
      763    20877
      764    20878    2        DCL ASSIGN$              PTR;
      765    20879
      766    20880             /* Functions performed:
      767    20881                 1. Check for multiple ASSIGN clauses.
      768    20882                    This is done here because the rest of
      769    20883                    the checks are system dependent.
      770    20884                      Z9EM$VERIFY_DEVICE
      771    20885             */
      772    20886
      773    20887
      774    20888    2        IF O1COM.CURRENT_FILE_LTS$ -> FILE_LTS.ASSIGN$ ~= ADDR(NIL) THEN
      775    20889               %CONDITIONAL_ERROR (@LX_ITEM$ = ASSIGN$,
      776    20890                   @ERROR#   = %E$DUP_DD_CLAUSE,
      777    20891                   @LINE     = ASSIGN$ -> LX_LIST.HEAD$ -> LX_TERMINAL.LINE,
      778    20892                   @COLUMN   = ASSIGN$ -> LX_LIST.HEAD$ -> LX_TERMINAL.COLUMN,
      779    20893                   @PLUG1    = "DNT$_FROM_RSWNO (%RSV_WRD_ASSIGN)");
      780    20923
      781    20924
      782    20925    2   END ASSIGN_DEVICE;
      783    20926        %EJECT;
PL6.E3A0      #001=Z8EM$SEMANTICS_DATA_DIV File=Z8EM.:Z8A6TSI                    SAT 08/09/97 12:08 Page:31
      784    20927        /*==============*/
      785    20928    1     BLOCK_CONTAINS: PROC (INT_LIST$, REC_CHAR$);
      786    20929        /*==============*/
      787    20930
      788    20931             /* Functions performed:
      789    20932                 1. Check for duplicate clauses.
      790    20933                 2. Check for int-1 > int-2.
      791    20934                 3. Call Z9EM$BLOCK_CONTAINS.  Removed 10/27/84  CBN
      792    20935                 4. Fill FILE_LTS
      793    20936             */
      794    20937
      795    20938    2        DCL INT_LIST$            PTR;
      796    20939    2        DCL REC_CHAR$            PTR;
      797    20940    2        DCL INT1                 SBIN WORD;
      798    20941    2        DCL INT2                 SBIN WORD;
      799    20942    2        DCL LINE                 SBIN WORD;
      800    20943    2        DCL COLUMN               SBIN WORD;
      801    20944
      802    20945
      803    20946    2        LINE   = INT_LIST$ -> LX_LIST.HEAD$ -> LX_ITEM.LINE;
      804    20947    2        COLUMN = INT_LIST$ -> LX_LIST.HEAD$ -> LX_ITEM.COLUMN;
      805    20948
      806    20949    2        IF O1COM.CURRENT_FILE_LTS$ -> FILE_LTS.B.BLOCK_CONTAINS THEN
      807    20950    3          DO;
      808    20951                 %CONDITIONAL_ERROR (@LX_ITEM$ = INT_LIST$,
      809    20952                                     @ERROR#   = %E$DUP_DD_CLAUSE,
      810    20953                                     @LINE     = LINE,
      811    20954                                     @COLUMN   = COLUMN,
      812    20955                                     @PLUG1    = "DNT$_FROM_RSWNO(%RSV_WRD_BLOCK)");
      813    20985    3            CALL Z8ED$DISPOSE_ABSSYN_TREE (INT_LIST$ -> LX_LIST.HEAD$);
      814    20986    3            RETURN;
      815    20987    3          END;
      816    20988
      817    20989    2        CALL CHARBIN (INT1,
      818    20990    2                      INT_LIST$ -> LX_LIST.HEAD$ ->
      819    20991    2                      LX_TERMINAL.DNT$ -> DNT.TEXT.NAME);
      820    20992
PL6.E3A0      #001=Z8EM$SEMANTICS_DATA_DIV File=Z8EM.:Z8A6TSI                    SAT 08/09/97 12:08 Page:32
      821    20993    2        IF INT_LIST$ -> LX_LIST.COUNT ~= 1 THEN
      822    20994    3          DO;
      823    20995    3            CALL CHARBIN (INT2,
      824    20996    3                          INT_LIST$ -> LX_LIST.TAIL$ ->
      825    20997    3                          LX_TERMINAL.DNT$ -> DNT.TEXT.NAME);
      826    20998
      827    20999    3            IF INT1 > INT2 THEN
      828    21000    4              DO;
      829    21001                     %CONDITIONAL_ERROR (@LX_ITEM$ = INT_LIST$,
      830    21002                                         @ERROR#   = %E$INT2_LSS_INT1,
      831    21003                                         @LINE     = LINE,
      832    21004                                         @COLUMN   = COLUMN);
      833    21034    4                CALL Z8ED$DISPOSE_ABSSYN_TREE (INT_LIST$ -> LX_LIST.HEAD$);
      834    21035    4                RETURN;
      835    21036    4              END;
      836    21037    3            IF COMCOM.OB.FIPS.LEVEL >= %INT_LEV THEN
      837    21038    3              CALL Z8AE$ERROR (%E$LEVEL_CHECK,
      838    21039    3                               O1COM.LX_STK.LINE(O1COM.LX_TOP - 3),
      839    21040    3                               O1COM.LX_STK.COLUMN(O1COM.LX_TOP - 3));
      840    21041    3          END;
      841    21042    2        ELSE
      842    21043    3          DO;
      843    21044    3            INT2 = INT1;
      844    21045    3          END;
      845    21046
      846    21047         /*  CALL Z9EM$BLOCK_CONTAINS (INT_LIST$, REC_CHAR$);  */
      847    21048
      848    21049    2        IF REC_CHAR$ -> LX_TERMINAL.SYMBOL =  %RSV_WRD_RECORDS    THEN
      849    21050    2          O1COM.CURRENT_FILE_LTS$ -> FILE_LTS.B.RECORDS_NOT_CHARS = TRUE;
      850    21051
      851    21052    2        O1COM.CURRENT_FILE_LTS$ -> FILE_LTS.B.BLOCK_CONTAINS = TRUE;
      852    21053    2        O1COM.CURRENT_FILE_LTS$ -> FILE_LTS.BLOCK_CONTAINS.INT_1 = INT1;
      853    21054    2        IF COMCOM.OB.COBOL_74 AND INT2 = 0 THEN
      854    21055    3          DO;
      855    21056    3            O1COM.CURRENT_FILE_LTS$ -> FILE_LTS.B.RECORDS_NOT_CHARS = TRUE;
      856    21057    3            O1COM.CURRENT_FILE_LTS$ -> FILE_LTS.BLOCK_CONTAINS.INT_2 = 1;
      857    21058    3          END;
PL6.E3A0      #001=Z8EM$SEMANTICS_DATA_DIV File=Z8EM.:Z8A6TSI                    SAT 08/09/97 12:08 Page:33
      858    21059    2        ELSE O1COM.CURRENT_FILE_LTS$ -> FILE_LTS.BLOCK_CONTAINS.INT_2 = INT2;
      859    21060
      860    21061    2        CALL Z8ED$DISPOSE_ABSSYN_TREE (INT_LIST$ -> LX_LIST.HEAD$);
      861    21062
      862    21063    2   END BLOCK_CONTAINS;
      863    21064        %EJECT;
PL6.E3A0      #001=Z8EM$SEMANTICS_DATA_DIV File=Z8EM.:Z8A6TSI                    SAT 08/09/97 12:08 Page:34
      864    21065
      865    21066         /*========*/
      866    21067    1      BUILD_ST: PROC (ST$$,LEVEL#,TYPE,CLASS,ELEMENTARY,QLT$$,LENGTH,ITEM$);
      867    21068         /*========*/
      868    21069
      869    21070
      870    21071    2   DCL ST$$               PTR;
      871    21072    2   DCL LEVEL#             SBIN WORD;
      872    21073    2   DCL TYPE               SBIN WORD;
      873    21074    2   DCL CLASS              SBIN WORD;
      874    21075    2   DCL ELEMENTARY         BIT (1) ALIGNED;
      875    21076    2   DCL ITEM$              PTR;
      876    21077    2   DCL DNT$$              PTR;
      877    21078    2   DCL QLT$$              PTR;
      878    21079    2   DCL LENGTH             SBIN WORD;
      879    21080    2   DCL LINE#              SBIN WORD;
      880    21081
      881    21082
      882    21083
      883    21084    2      IF ITEM$ = ADDR(NIL) THEN
      884    21085    3        DO;
      885    21086    3          DNT$$ = DNT$_FROM_RSWNO ( %RSV_WRD_FILLER);
      886    21087    3          LINE# = COMCOM.CURRENT.LINE;
      887    21088    3        END;
      888    21089    2      ELSE
      889    21090    3        DO;
      890    21091    3          DNT$$ = ITEM$ -> LX_TERMINAL.DNT$;
      891    21092    3          LINE# = ITEM$ -> LX_TERMINAL.LINE;
      892    21093    3        END;
      893    21094
      894    21095           %NEW_SCALAR (@ST$   = ST$$,
      895    21096                        @TYPE  = TYPE,
      896    21097                        @LINE_NO = LINE#,
      897    21098                        @NEXT    = DNT$$ -> DNT.ST$,
      898    21099                        @DNT$    = DNT$$,
      899    21100                        @PROC$   = O1COM.CURRENT_PROC$,
      900    21101                        @ELEMENTARY = ELEMENTARY,
PL6.E3A0      #001=Z8EM$SEMANTICS_DATA_DIV File=Z8EM.:Z8A6TSI                    SAT 08/09/97 12:08 Page:35
      901    21102                        @CLASS   = CLASS);
      902    21302
      903    21303    2      ST$$ -> SCALAR.ADSC.N = LENGTH;
      904    21304
      905    21305           %NEW_QLT (@POINTER = QLT$$,
      906    21306                     @ST$     = ST$$,
      907    21307                     @DNT$    = DNT$$,
      908    21308                     @LEVEL#  = LEVEL#);
      909    21333
      910    21334    2      ST$$ -> SCALAR.QLT$ = QLT$$;
      911    21335
      912    21336    2      IF DNT$$ -> DNT.TEXT.NAME ~= 'FILLER' THEN
      913    21337    3        DO;
      914    21338               %ADD_XREF (SYM = ST$$,
      915    21339                          ISN = LINE#,
      916    21340                          TYPE = %XREF_DCL);
      917    21358
      918    21359    3          DNT$$ -> DNT.ST$ = ST$$;
      919    21360    3        END;
      920    21361
      921    21362    2      CALL Z8ED$DISPOSE_ABSSYN_TREE (ITEM$);
      922    21363
      923    21364    2    END BUILD_ST;
      924    21365         %EJECT;
PL6.E3A0      #001=Z8EM$SEMANTICS_DATA_DIV File=Z8EM.:Z8A6TSI                    SAT 08/09/97 12:08 Page:36
      925    21366
      926    21367         /*===============*/
      927    21368    1      CD_ENTRY_WRAPUP: PROC;
      928    21369         /*===============*/
      929    21370
      930    21371
      931    21372        %EQU DCW_OFFSET = 2;
      932    21373        %EQU SIZE_OFFSET = 5;
      933    21374
      934    21375    2   DCL CONST$$    PTR;
      935    21376    2   DCL BRO$       PTR;
      936    21377    2   DCL FATHER$    PTR;
      937    21378
      938    21379
      939    21380
      940    21381               /*
      941    21382                 Description:
      942    21383                   1.  Reset the COMCOM.PREV_QLT$
      943    21384                   2.  Link the current CD_LTS to the current PROC_SUPP.
      944    21385                   3.  Allocate the cd text buffer.
      945    21386                   4.  Preset CD work area.
      946    21387               */
      947    21388
      948    21389
      949    21390    2      O1COM.CURRENT_CD_ENTRY$ -> CD_LTS.LINK = O1COM.CURRENT_PROC$ ->
      950    21391    2                  PROC_.PROC_SUPP$ -> PROC_SUPP.CD_LIST$;
      951    21392    2      O1COM.CURRENT_PROC$ -> PROC_.PROC_SUPP$ -> PROC_SUPP.CD_LIST$ =
      952    21393    2                  O1COM.CURRENT_CD_ENTRY$;
      953    21394
      954    21395           /* set the QLTs father field and reset COMCOM.PREV_QLT */
      955    21396
      956    21397    2      BRO$ = O1COM.CURRENT_CD_ENTRY$ -> CD_LTS.WORK_ST$ -> SCALAR.QLT$;
      957    21398    2      FATHER$ = BRO$ -> QLT.FATHER;
      958    21399    2      COMCOM.PREV_QLT$ = FATHER$;
      959    21400
      960    21401    3      DO WHILE (BRO$ -> QLT.BROTHER ~= ADDR(NIL));
      961    21402
PL6.E3A0      #001=Z8EM$SEMANTICS_DATA_DIV File=Z8EM.:Z8A6TSI                    SAT 08/09/97 12:08 Page:37
      962    21403    3        BRO$ = BRO$ -> QLT.BROTHER;
      963    21404    3        BRO$ -> QLT.FATHER = FATHER$;
      964    21405
      965    21406    3      END;
      966    21407
      967    21408    2      CALL ALLOCATE_CD_BUFFER (O1COM.CURRENT_CD_ENTRY$ -> CD_LTS.BUFFER_LENGTH,
      968    21409    2                               O1COM.CURRENT_CD_ENTRY$ -> CD_LTS.BUFFER_ST$);
      969    21410
      970    21411
      971    21412           /* Preset input DCW ( header address )  */
      972    21413
      973    21414           %NEW_ILL (@ID = %PTR_SET,
      974    21415                     @OFFSET = %DCW_OFFSET,
      975    21416                     @LOP= O1COM.CURRENT_CD_ENTRY$ -> CD_LTS.WORK_ST$,
      976    21417                     @ROP= O1COM.CURRENT_CD_ENTRY$ -> CD_LTS.CD_ST$);
      977    21796
      978    21797           /* Preset buffer size and occurs */
      979    21798
      980    21799    2      MKCN.CON = O1COM.CURRENT_CD_ENTRY$ -> CD_LTS.BUFFER;
      981    21800
      982    21801    2      CALL Z8AC$MAKE_CONST (CONST$$);
      983    21802
      984    21803           %NEW_ILL (@ID       = %PREOFF,
      985    21804                     @OFFSET   = %SIZE_OFFSET,
      986    21805                     @LOP      = O1COM.CURRENT_CD_ENTRY$ -> CD_LTS.WORK_ST$,
      987    21806                     @ROP      = CONST$$ -> ETT.LOP,
      988    21807                     @N        = 1);
      989    22186
      990    22187    2    END CD_ENTRY_WRAPUP;
      991    22188         %EJECT;
PL6.E3A0      #001=Z8EM$SEMANTICS_DATA_DIV File=Z8EM.:Z8A6TSI                    SAT 08/09/97 12:08 Page:38
      992    22189        /*==============*/
      993    22190    1     CHANNEL_NUMBER: PROC (C$, NAME$);
      994    22191        /*==============*/
      995    22192
      996    22193    2        DCL C$            PTR; /* To LX_TERM for CHANNEL NUMBER */
      997    22194    2        DCL NAME$         PTR; /* To LX_TERM for name assoc     */
      998    22195
      999    22196    2        DCL MNEM$         PTR;
     1000    22197    2        DCL NUM           UBIN;
     1001    22198
     1002    22199
     1003    22200    2        IF C$ -> LX_TERMINAL.SYMBOL = %RSV_WRD_CSP THEN
     1004    22201    2          NUM = %CPS;
     1005    22202    2        ELSE
     1006    22203    3          DO;
     1007    22204                 %EXTRACT_SWITCH_CHANNEL (@DNT$ = C$ -> LX_TERMINAL.DNT$,
     1008    22205                                          @NUMBER = NUM);
     1009    22220
     1010    22221    4            DO CASE (NUM);
     1011    22222    4              CASE (%C01, %C02, %C03, %C04, %C05, %C06, %C07,
     1012    22223    4                    %C08, %C09, %C10, %C11, %C12, %C13, %C14, %C15);
     1013    22224                     /* Channel OK */
     1014    22225
     1015    22226    4              CASE (ELSE);
     1016    22227                     %CONDITIONAL_ERROR (@LX_ITEM$ = C$,
     1017    22228                                         @ERROR#   = %E$ILLEGAL_CHANNEL#,
     1018    22229                                         @LINE     = C$ -> LX_ITEM.LINE,
     1019    22230                                         @COLUMN   = C$ -> LX_ITEM.COLUMN);
     1020    22260
     1021    22261    4                NUM = %C01;
     1022    22262    4            END; /* Case */
     1023    22263    3          END;
     1024    22264
     1025    22265             %NEW_MNEMONIC (@ST$      = MNEM$,
     1026    22266                            @CHANNEL# = NUM,
     1027    22267                            @CHANNEL  = TRUE,
     1028    22268                            @LINE_NO  = NAME$ -> LX_ITEM.LINE,
PL6.E3A0      #001=Z8EM$SEMANTICS_DATA_DIV File=Z8EM.:Z8A6TSI                    SAT 08/09/97 12:08 Page:39
     1029    22269                            @DNT$     = NAME$ -> LX_ITEM.DNT$,
     1030    22270                            @NEXT     = NAME$ -> LX_ITEM.DNT$ -> DNT.ST$);
     1031    22347
     1032    22348    2        NAME$ -> LX_ITEM.DNT$ -> DNT.ST$ = MNEM$;
     1033    22349
     1034    22350             %NEW_QLT (@POINTER = MNEM$ -> MNEMONIC.QLT$,
     1035    22351                       @ST$     = MNEM$,
     1036    22352                       @DNT$    = MNEM$ -> MNEMONIC.DNT$,
     1037    22353                       @LEVEL#  = 01);
     1038    22378
     1039    22379             %UPDATE_PREV_QLT$ (@NEW_QLT$ = MNEM$ -> MNEMONIC.QLT$);
     1040    22386
     1041    22387             %ADD_XREF (SYM   = MNEM$,
     1042    22388                        ISN   = C$ -> LX_ITEM.LINE,
     1043    22389                        TYPE  = %XREF_DCL);
     1044    22407
     1045    22408    2   END CHANNEL_NUMBER;
     1046    22409        %EJECT;
PL6.E3A0      #001=Z8EM$SEMANTICS_DATA_DIV File=Z8EM.:Z8A6TSI                    SAT 08/09/97 12:08 Page:40
     1047    22410        /*===================*/
     1048    22411    1     CHECK_AND_SAVE_ITEM: PROC (ITEM$, FIELD$, RSV_WRD#) ALTRET;
     1049    22412        /*===================*/
     1050    22413
     1051    22414             /* Functions performed:
     1052    22415                 1. Copy item from the stack to heap.
     1053    22416                 2. Save the LX_ITEM until FAB time (E O data div).
     1054    22417                 3. Check for duplicate clauses
     1055    22418             */
     1056    22419
     1057    22420    2        DCL ITEM$                PTR;
     1058    22421    2        DCL FIELD$               PTR;
     1059    22422    2        DCL RSV_WRD#             SBIN WORD;
     1060    22423    2        DCL TITEM$               PTR;
     1061    22424
     1062    22425
     1063    22426             %NEW_COPY_LX_ITEM (@FROM$ = ITEM$,
     1064    22427                                @TO$   = TITEM$);
     1065    22439
     1066    22440    2        IF FIELD$ = ADDR(NIL) THEN
     1067    22441    2          FIELD$ = TITEM$;
     1068    22442    2        ELSE
     1069    22443    3          DO;
     1070    22444    3            IF ITEM$ -> LX_ITEM.ID = %LX_LIST THEN
     1071    22445                   %CONDITIONAL_ERROR (@LX_ITEM$ = ITEM$,
     1072    22446                       @ERROR# = %E$DUP_DD_CLAUSE,
     1073    22447                       @LINE   = ITEM$ -> LX_LIST.HEAD$ -> LX_ITEM.LINE,
     1074    22448                       @COLUMN = ITEM$ -> LX_LIST.HEAD$ -> LX_ITEM.COLUMN,
     1075    22449                       @PLUG1  = "DNT$_FROM_RSWNO (RSV_WRD#)");
     1076    22479    3            ELSE
     1077    22480                   %CONDITIONAL_ERROR (@LX_ITEM$ = ITEM$,
     1078    22481                       @ERROR# = %E$DUP_DD_CLAUSE,
     1079    22482                       @LINE   = ITEM$ -> LX_ITEM.LINE,
     1080    22483                       @COLUMN = ITEM$ -> LX_ITEM.COLUMN,
     1081    22484                       @PLUG1  = "DNT$_FROM_RSWNO (RSV_WRD#)");
     1082    22514
     1083    22515    3            CALL Z8ED$DISPOSE_ABSSYN_TREE (TITEM$);
PL6.E3A0      #001=Z8EM$SEMANTICS_DATA_DIV File=Z8EM.:Z8A6TSI                    SAT 08/09/97 12:08 Page:41
     1084    22516
     1085    22517    3            ALTRETURN;
     1086    22518    3          END;
     1087    22519
     1088    22520    2   END CHECK_AND_SAVE_ITEM;
     1089    22521        %EJECT;
PL6.E3A0      #001=Z8EM$SEMANTICS_DATA_DIV File=Z8EM.:Z8A6TSI                    SAT 08/09/97 12:08 Page:42
     1090    22522        /*=========================*/
     1091    22523    1     CHECK_DIFF_ORG_AND_ACCESS: PROC (ITEM$, ACCESS, ORG);
     1092    22524        /*=========================*/
     1093    22525
     1094    22526    2        DCL ITEM$         PTR;
     1095    22527    2        DCL ACCESS        SBIN WORD;
     1096    22528    2        DCL ORG           SBIN WORD;
     1097    22529
     1098    22530
     1099    22531    2          IF ACCESS = %RANDOM_ACCESS
     1100    22532    2          OR ACCESS = %DYNAMIC_ACCESS THEN
     1101    22533    3            DO CASE (ORG);
     1102    22534    3              CASE (%SEQUENTIAL,        %UFF_SEQUENTIAL,
     1103    22535    3                    %ANSI_SEQUENTIAL,   %GFRC_SEQUENTIAL,
     1104    22536    3                    %OS_SEQUENTIAL,     %H2000_SEQUENTIAL,
     1105    22537    3                    %GFRC_C_6000_SEQUENTIAL, %OS_EBCDIC_SEQUENTIAL,
     1106    22538    3                    %MULTICS_STREAM,    %DOS_SEQUENTIAL,
     1107    22539    3                    %MULTICS_SEQUENTIAL);
     1108    22540                     %CONDITIONAL_ERROR (@LX_ITEM$ = ITEM$,
     1109    22541                                         @ERROR#   = %E$ACCESS_AND_ORG_DIFF,
     1110    22542                                         @LINE     = ITEM$ -> LX_ITEM.LINE,
     1111    22543                                         @COLUMN   = ITEM$ -> LX_ITEM.COLUMN);
     1112    22573
     1113    22574    3              CASE (ELSE);
     1114    22575                     /* Org and access can be diff */
     1115    22576    3            END; /* Case -- org */
     1116    22577
     1117    22578    2   END CHECK_DIFF_ORG_AND_ACCESS;
     1118    22579        %EJECT;
PL6.E3A0      #001=Z8EM$SEMANTICS_DATA_DIV File=Z8EM.:Z8A6TSI                    SAT 08/09/97 12:08 Page:43
     1119    22580        /*==================*/
     1120    22581    1     CHECK_FOR_DUP_PROC : PROC (INT$, TERMINAL$);
     1121    22582        /*==================*/
     1122    22583
     1123    22584    2        DCL INT$          PTR; /* To INTDEF ST item */
     1124    22585    2        DCL P$            PTR;
     1125    22586    2        DCL CURR_FATHER$  PTR;
     1126    22587    2        DCL NEXT_FATHER$  PTR;
     1127    22588    2        DCL TERMINAL$     PTR; /* To lx_terminal for line & column */
     1128    22589
     1129    22590
     1130    22591    2        P$ = INT$ -> INTDEF.DNT$ -> DNT.ST$;
     1131    22592
     1132    22593    3        DO WHILE (P$ ~= ADDR(NIL));
     1133    22594    3          IF (P$ -> ST.ID = %INTDEF
     1134    22595    3              OR P$ -> ST.ID = %SYMDEF_)
     1135    22596    3          AND P$ ~= INT$ THEN
     1136    22597    3            EXIT;
     1137    22598
     1138    22599    3          P$ = P$ -> ST.NEXT;
     1139    22600    3        END;
     1140    22601
     1141    22602    2        IF P$ = ADDR(NIL) THEN
     1142    22603               /* No duplicate exists */
     1143    22604    2          RETURN;
     1144    22605
     1145    22606    2        CURR_FATHER$ = INT$ -> INTDEF.PROC$;
     1146    22607
     1147    22608    3        DO WHILE (CURR_FATHER$ -> PROC_.FATHER ~= ADDR(NIL));
     1148    22609    3          CURR_FATHER$ = CURR_FATHER$ -> PROC_.FATHER;
     1149    22610    3        END; /* While */
     1150    22611
     1151    22612    2        NEXT_FATHER$ = P$ -> INTDEF.PROC$;
     1152    22613
     1153    22614    3        DO WHILE (NEXT_FATHER$ -> PROC_.FATHER ~= ADDR(NIL));
     1154    22615    3          NEXT_FATHER$ = NEXT_FATHER$ -> PROC_.FATHER;
     1155    22616    3        END; /* While */
PL6.E3A0      #001=Z8EM$SEMANTICS_DATA_DIV File=Z8EM.:Z8A6TSI                    SAT 08/09/97 12:08 Page:44
     1156    22617
     1157    22618    2        IF NEXT_FATHER$ = CURR_FATHER$ THEN
     1158    22619    3          DO;
     1159    22620                 /*E* ERROR: Two internal procedures in the same compiled
     1160    22621                             unit, with the same name.
     1161    22622                 */
     1162    22623
     1163    22624                 %CONDITIONAL_ERROR (@LX_ITEM$ = TERMINAL$,
     1164    22625                                     @ERROR#   = %E$TWO_PROCS_SAME_NAME,
     1165    22626                                     @LINE     = TERMINAL$ -> LX_ITEM.LINE,
     1166    22627                                     @COLUMN   = TERMINAL$ -> LX_ITEM.COLUMN);
     1167    22657    3          END;
     1168    22658
     1169    22659    2   END CHECK_FOR_DUP_PROC;
     1170    22660        %EJECT;
PL6.E3A0      #001=Z8EM$SEMANTICS_DATA_DIV File=Z8EM.:Z8A6TSI                    SAT 08/09/97 12:08 Page:45
     1171    22661        /*==========================*/
     1172    22662    1     CHECK_FOR_PAD_DELIM_LINAGE: PROC (ORG$);
     1173    22663        /*==========================*/
     1174    22664
     1175    22665    2        DCL ORG$          PTR;
     1176    22666    2        DCL FILE$         PTR;
     1177    22667
     1178    22668
     1179    22669    2        FILE$ = O1COM.CURRENT_FILE_LTS$;
     1180    22670
     1181    22671    2        IF FILE$ -> FILE_LTS.PAD_CHAR$ ~= ADDR(NIL) THEN
     1182    22672    3          DO;
     1183    22673                 %CONDITIONAL_ERROR (@LX_ITEM$ = ORG$,
     1184    22674                                     @ERROR#   = %E$ORG_NOT_SEQ_WITH_CLAUSE,
     1185    22675                                     @LINE     = ORG$ -> LX_ITEM.LINE,
     1186    22676                                     @COLUMN   = ORG$ -> LX_ITEM.COLUMN,
     1187    22677                                     @PLUG1    = "DNT$_FROM_RSWNO(%RSV_WRD_PADDING)");
     1188    22707    3            CALL Z8ED$DISPOSE_ABSSYN_TREE (FILE$ -> FILE_LTS.PAD_CHAR$);
     1189    22708    3          END;
     1190    22709
     1191    22710    2        IF FILE$ -> FILE_LTS.RECORD_DELIM ~= %NOT_SPECIFIED THEN
     1192    22711    3          DO;
     1193    22712                 %CONDITIONAL_ERROR (@LX_ITEM$ = ORG$,
     1194    22713                                     @ERROR#   = %E$ORG_NOT_SEQ_WITH_CLAUSE,
     1195    22714                                     @LINE     = ORG$ -> LX_ITEM.LINE,
     1196    22715                                     @COLUMN   = ORG$ -> LX_ITEM.COLUMN,
     1197    22716                                     @PLUG1    = "DNT$_FROM_RSWNO(%RSV_WRD_DELIMITER)");
     1198    22746    3            FILE$ -> FILE_LTS.RECORD_DELIM = %NOT_SPECIFIED;
     1199    22747    3          END;
     1200    22748
     1201    22749    2        IF FILE$ -> FILE_LTS.LINAGE.NO_OF_LINES$ ~= ADDR(NIL) THEN
     1202    22750    3          DO;
     1203    22751                 %CONDITIONAL_ERROR (@LX_ITEM$ = ORG$,
     1204    22752                                     @ERROR#   = %E$ORG_NOT_SEQ_WITH_CLAUSE,
     1205    22753                                     @LINE     = ORG$ -> LX_ITEM.LINE,
     1206    22754                                     @COLUMN   = ORG$ -> LX_ITEM.COLUMN,
     1207    22755                                     @PLUG1    = "DNT$_FROM_RSWNO(%RSV_WRD_LINAGE)");
PL6.E3A0      #001=Z8EM$SEMANTICS_DATA_DIV File=Z8EM.:Z8A6TSI                    SAT 08/09/97 12:08 Page:46
     1208    22785    3            CALL Z8ED$DISPOSE_ABSSYN_TREE (FILE$ -> FILE_LTS.PAD_CHAR$);
     1209    22786
     1210    22787    3            IF FILE$ -> FILE_LTS.LINAGE.FOOTING$ ~= ADDR(NIL) THEN
     1211    22788    3              CALL Z8ED$DISPOSE_ABSSYN_TREE (FILE$ -> FILE_LTS.LINAGE.FOOTING$);
     1212    22789
     1213    22790    3            IF FILE$ -> FILE_LTS.LINAGE.BOTTOM$ ~= ADDR(NIL) THEN
     1214    22791    3              CALL Z8ED$DISPOSE_ABSSYN_TREE (FILE$ -> FILE_LTS.LINAGE.BOTTOM$);
     1215    22792
     1216    22793    3            IF FILE$ -> FILE_LTS.LINAGE.TOP$ ~= ADDR(NIL) THEN
     1217    22794    3              CALL Z8ED$DISPOSE_ABSSYN_TREE (FILE$ -> FILE_LTS.LINAGE.TOP$);
     1218    22795    3          END;
     1219    22796
     1220    22797    2   END CHECK_FOR_PAD_DELIM_LINAGE;
     1221    22798        %EJECT;
PL6.E3A0      #001=Z8EM$SEMANTICS_DATA_DIV File=Z8EM.:Z8A6TSI                    SAT 08/09/97 12:08 Page:47
     1222    22799        /*=============*/
     1223    22800    1     CHECK_IND_ORG: PROC (TERMINAL$) ALTRET;
     1224    22801        /*=============*/
     1225    22802
     1226    22803    2        DCL TERMINAL$     PTR;
     1227    22804
     1228    22805
     1229    22806
     1230    22807    3        DO CASE (O1COM.CURRENT_FILE_LTS$ -> FILE_LTS.ORGANIZATION);
     1231    22808
     1232    22809    3          CASE (
     1233    22810                     %SET_OF_INDEXED_ORGANIZATION;
     1234    22814    3               );
     1235    22815                 %CONDITIONAL_ERROR (@LX_ITEM$ = TERMINAL$,
     1236    22816                              @ERROR#   = %E$CLAUSE_NOT_VALID_WITH_ORG,
     1237    22817                              @LINE     = TERMINAL$ -> LX_ITEM.LINE,
     1238    22818                              @COLUMN   = TERMINAL$ -> LX_ITEM.COLUMN,
     1239    22819                              @PLUG1    = "DNT$_FROM_RSWNO(%RSV_WRD_INDEXED)");
     1240    22849    3            ALTRETURN;
     1241    22850
     1242    22851    3          CASE (ELSE);
     1243    22852    3            RETURN;
     1244    22853
     1245    22854    3        END; /* Case */
     1246    22855
     1247    22856    2   END CHECK_IND_ORG;
     1248    22857        %EJECT;
PL6.E3A0      #001=Z8EM$SEMANTICS_DATA_DIV File=Z8EM.:Z8A6TSI                    SAT 08/09/97 12:08 Page:48
     1249    22858        /*=============*/
     1250    22859    1     CHECK_KEY_ORG: PROC (TERMINAL$) ALTRET;
     1251    22860        /*=============*/
     1252    22861
     1253    22862    2        DCL TERMINAL$     PTR;
     1254    22863
     1255    22864
     1256    22865
     1257    22866    3        DO CASE (O1COM.CURRENT_FILE_LTS$ -> FILE_LTS.ORGANIZATION);
     1258    22867
     1259    22868    3          CASE (
     1260    22869                     %SET_OF_KEYED_ORGANIZATION;
     1261    22872    3               );
     1262    22873                 %CONDITIONAL_ERROR (@LX_ITEM$ = TERMINAL$,
     1263    22874                              @ERROR#   = %E$CLAUSE_NOT_VALID_WITH_ORG,
     1264    22875                              @LINE     = TERMINAL$ -> LX_ITEM.LINE,
     1265    22876                              @COLUMN   = TERMINAL$ -> LX_ITEM.COLUMN,
     1266    22877                              @PLUG1    = "DNT$_FROM_RSWNO(%RSV_WRD_KEYED)");
     1267    22907    3            ALTRETURN;
     1268    22908
     1269    22909    3          CASE (ELSE);
     1270    22910    3            RETURN;
     1271    22911
     1272    22912    3        END; /* Case */
     1273    22913
     1274    22914    2   END CHECK_KEY_ORG;
     1275    22915        %EJECT;
PL6.E3A0      #001=Z8EM$SEMANTICS_DATA_DIV File=Z8EM.:Z8A6TSI                    SAT 08/09/97 12:08 Page:49
     1276    22916    1   CHECK_OBJECT_COMPUTER : PROC (DNT$);
     1277    22917
     1278    22918    2      DCL DNT$ PTR;
     1279    22919
     1280    22920
     1281    22921    2    IF NOT COMCOM.PLATFORM THEN
     1282    22922    3     DO SELECT (DNT$ -> DNT.TEXT.NAME);
     1283    22923
     1284    22924    3       SELECT('DPS88','DPS-88');
     1285    22925    3         COMCOM.OB.ELS = TRUE;
     1286    22926    3         COMCOM.OB.DPS88 = TRUE;
     1287    22927
     1288    22928    3       SELECT('DPS90','DPS-90','DPS8000','DPS-8000','DPS9000','DPS-9000');
     1289    22929    3         COMCOM.OB.ELS = TRUE;
     1290    22930    3         COMCOM.OB.DPS88 = FALSE;
     1291    22931
     1292    22932    3       SELECT(ELSE);
     1293    22933    3         COMCOM.OB.ELS = FALSE;
     1294    22934    3         COMCOM.OB.DPS88 = FALSE;
     1295    22935    3     END;
     1296    22936
     1297    22937    2   END CHECK_OBJECT_COMPUTER;
     1298    22938        %EJECT;
PL6.E3A0      #001=Z8EM$SEMANTICS_DATA_DIV File=Z8EM.:Z8A6TSI                    SAT 08/09/97 12:08 Page:50
     1299    22939        /*=============*/
     1300    22940    1     CHECK_REL_ORG: PROC (TERMINAL$) ALTRET;
     1301    22941        /*=============*/
     1302    22942
     1303    22943    2        DCL TERMINAL$     PTR;
     1304    22944
     1305    22945
     1306    22946
     1307    22947    3        DO CASE (O1COM.CURRENT_FILE_LTS$ -> FILE_LTS.ORGANIZATION);
     1308    22948
     1309    22949    3          CASE (
     1310    22950                     %SET_OF_RELATIVE_ORGANIZATION;
     1311    22954    3               );
     1312    22955                 %CONDITIONAL_ERROR (@LX_ITEM$ = TERMINAL$,
     1313    22956                              @ERROR#   = %E$CLAUSE_NOT_VALID_WITH_ORG,
     1314    22957                              @LINE     = TERMINAL$ -> LX_ITEM.LINE,
     1315    22958                              @COLUMN   = TERMINAL$ -> LX_ITEM.COLUMN,
     1316    22959                              @PLUG1    = "DNT$_FROM_RSWNO(%RSV_WRD_RELATIVE)");
     1317    22989    3            ALTRETURN;
     1318    22990
     1319    22991    3          CASE (ELSE);
     1320    22992    3            RETURN;
     1321    22993
     1322    22994    3        END; /* Case */
     1323    22995
     1324    22996    2   END CHECK_REL_ORG;
     1325    22997        %EJECT;
PL6.E3A0      #001=Z8EM$SEMANTICS_DATA_DIV File=Z8EM.:Z8A6TSI                    SAT 08/09/97 12:08 Page:51
     1326    22998        /*=============*/
     1327    22999    1     CHECK_SEQ_ORG: PROC (TERMINAL$) ALTRET;
     1328    23000        /*=============*/
     1329    23001
     1330    23002    2        DCL TERMINAL$     PTR;
     1331    23003
     1332    23004
     1333    23005
     1334    23006    3        DO CASE (O1COM.CURRENT_FILE_LTS$ -> FILE_LTS.ORGANIZATION);
     1335    23007
     1336    23008    3          CASE (
     1337    23009                     %SET_OF_SEQUENTIAL_ORGANIZATION;
     1338    23017    3               );
     1339    23018                 %CONDITIONAL_ERROR (@LX_ITEM$ = TERMINAL$,
     1340    23019                              @ERROR#   = %E$CLAUSE_NOT_VALID_WITH_ORG,
     1341    23020                              @LINE     = TERMINAL$ -> LX_ITEM.LINE,
     1342    23021                              @COLUMN   = TERMINAL$ -> LX_ITEM.COLUMN,
     1343    23022                              @PLUG1    = "DNT$_FROM_RSWNO(%RSV_WRD_SEQUENTIAL)");
     1344    23052    3            ALTRETURN;
     1345    23053
     1346    23054    3          CASE (ELSE);
     1347    23055    3            RETURN;
     1348    23056
     1349    23057    3        END; /* Case */
     1350    23058
     1351    23059    2   END CHECK_SEQ_ORG;
     1352    23060        %EJECT;
PL6.E3A0      #001=Z8EM$SEMANTICS_DATA_DIV File=Z8EM.:Z8A6TSI                    SAT 08/09/97 12:08 Page:52
     1353    23061        /*==========*/
     1354    23062    1     CLASS_NAME: PROC (NAME$, LIT_LIST$);
     1355    23063        /*==========*/
     1356    23064
     1357    23065    2        DCL NAME$         PTR;
     1358    23066    2        DCL LIT_LIST$     PTR;
     1359    23067
     1360    23068    2        DCL CLASS$        PTR;
     1361    23069    2        DCL TABLE$        PTR;
     1362    23070
     1363    23071
     1364    23072             %NEW_CLASS (@ST$     = CLASS$,
     1365    23073                         @LINE_NO = NAME$ -> LX_ITEM.LINE,
     1366    23074                         @DNT$    = NAME$ -> LX_ITEM.DNT$,
     1367    23075                         @NEXT    = NAME$ -> LX_ITEM.DNT$ -> DNT.ST$);
     1368    23136
     1369    23137    2        NAME$ -> LX_ITEM.DNT$ -> DNT.ST$ = CLASS$;
     1370    23138
     1371    23139             %NEW_QLT (@POINTER = CLASS$ -> CLASS.QLT$,
     1372    23140                       @LEVEL#  = 01,
     1373    23141                       @ST$     = CLASS$,
     1374    23142                       @DNT$    = CLASS$ -> CLASS.DNT$);
     1375    23167
     1376    23168             %UPDATE_PREV_QLT$ (@NEW_QLT$ = CLASS$ -> CLASS.QLT$);
     1377    23175
     1378    23176             %ADD_XREF (SYM = CLASS$,
     1379    23177                        ISN  = NAME$ -> LX_ITEM.LINE,
     1380    23178                        TYPE = %XREF_DCL);
     1381    23196
     1382    23197    2        CALL PROCESS_CLASS_LIST (CLASS$, LIT_LIST$);
     1383    23198
     1384    23199    2        CALL Z8ED$DISPOSE_ABSSYN_TREE (LIT_LIST$ -> LX_LIST.HEAD$);
     1385    23200
     1386    23201    2   END CLASS_NAME;
     1387    23202        %EJECT;
PL6.E3A0      #001=Z8EM$SEMANTICS_DATA_DIV File=Z8EM.:Z8A6TSI                    SAT 08/09/97 12:08 Page:53
     1388    23203        /*========*/
     1389    23204    1     CODE_SET: PROC (CODE_SET$);
     1390    23205        /*========*/
     1391    23206
     1392    23207             /* Functions performed:
     1393    23208                 1. Check for multiple clauses.
     1394    23209                 2. Check to see if the ALPHABET referenced was defined.
     1395    23210                 3. Make sure no LITERAL phrase was specified in the ALPHABET.
     1396    23211             */
     1397    23212
     1398    23213    2        DCL CODE_SET$            PTR;
     1399    23214    2        DCL ST$$                 PTR;
     1400    23215
     1401    23216
     1402    23217    2        CALL CHECK_REL_ORG (CODE_SET$)
     1403    23218    2          WHENALTRETURN
     1404    23219    3            DO;
     1405    23220    3              RETURN;
     1406    23221    3            END;
     1407    23222
     1408    23223    2        CALL CHECK_IND_ORG (CODE_SET$)
     1409    23224    2          WHENALTRETURN
     1410    23225    3            DO;
     1411    23226    3              RETURN;
     1412    23227    3            END;
     1413    23228
     1414    23229    2        CALL CHECK_KEY_ORG (CODE_SET$)
     1415    23230    2          WHENALTRETURN
     1416    23231    3            DO;
     1417    23232    3              RETURN;
     1418    23233    3            END;
     1419    23234
     1420    23235    2        IF O1COM.CURRENT_FILE_LTS$ -> FILE_LTS.CODE_SET$ ~= ADDR(NIL) THEN
     1421    23236    3          DO;
     1422    23237                 %CONDITIONAL_ERROR (@LX_ITEM$ = CODE_SET$,
     1423    23238                                     @ERROR#   = %E$DUP_DD_CLAUSE,
     1424    23239                                     @LINE     = CODE_SET$ -> LX_ITEM.LINE,
PL6.E3A0      #001=Z8EM$SEMANTICS_DATA_DIV File=Z8EM.:Z8A6TSI                    SAT 08/09/97 12:08 Page:54
     1425    23240                                     @COLUMN   = CODE_SET$ -> LX_ITEM.COLUMN,
     1426    23241                                     @PLUG1    = "DNT$_FROM_RSWNO(%RSV_WRD_CODE_SET)");
     1427    23271
     1428    23272    3            RETURN;
     1429    23273    3          END;
     1430    23274
     1431    23275    2        IF CODE_SET$ -> LX_TERMINAL.SYMBOL ~= %NAME THEN
     1432    23276    3          DO;
     1433    23277                 /* ASCII or
     1434    23278                    EBCDIC or
     1435    23279                    JIS or
     1436    23280                    GBCD or
     1437    23281                    HBCD or
     1438    23282                    STANDARD-1 or
     1439    23283                    STANDARD */
     1440    23284    3            CALL COMMON_ALPHABET_NAME (CODE_SET$,
     1441    23285    3                                       CODE_SET$,
     1442    23286    3                                       O1COM.CURRENT_FILE_LTS$ -> FILE_LTS.CODE_SET$,
     1443    23287    3                                       ST$$);
     1444    23288
     1445    23289    3            RETURN;
     1446    23290    3          END;
     1447    23291
     1448    23292    2        CALL Z8DO$QUALIFY_TERMINAL (CODE_SET$, ST$$)
     1449    23293    2          WHENALTRETURN
     1450    23294    3            DO;
     1451    23295    3              RETURN;
     1452    23296    3            END;
     1453    23297
     1454    23298    2        IF ST$$ -> ST.ID ~= %ALPHABET THEN
     1455    23299    3          DO;
     1456    23300                 %CONDITIONAL_ERROR (@LX_ITEM$ = CODE_SET$,
     1457    23301                                     @ERROR#   = %E$ALPHABET_EXPECTED,
     1458    23302                                     @LINE     = CODE_SET$ -> LX_ITEM.LINE,
     1459    23303                                     @COLUMN   = CODE_SET$ -> LX_ITEM.COLUMN);
     1460    23333
     1461    23334    3            RETURN;
PL6.E3A0      #001=Z8EM$SEMANTICS_DATA_DIV File=Z8EM.:Z8A6TSI                    SAT 08/09/97 12:08 Page:55
     1462    23335    3          END;
     1463    23336
     1464    23337    2        IF ST$$ -> ALPHABET.B.CODE = %USER_DEFINED THEN
     1465    23338    3          DO;
     1466    23339                 %CONDITIONAL_ERROR (@LX_ITEM$ = CODE_SET$,
     1467    23340                                     @ERROR#   = %E$ALPHABET_CONTAINS_LITERAL,
     1468    23341                                     @LINE     = CODE_SET$ -> LX_ITEM.LINE,
     1469    23342                                     @COLUMN   = CODE_SET$ -> LX_ITEM.COLUMN);
     1470    23372
     1471    23373    3            RETURN;
     1472    23374    3          END;
     1473    23375
     1474    23376    2        O1COM.CURRENT_FILE_LTS$ -> FILE_LTS.CODE_SET$ = ST$$;
     1475    23377
     1476    23378    2   END CODE_SET;
     1477    23379        %EJECT;
PL6.E3A0      #001=Z8EM$SEMANTICS_DATA_DIV File=Z8EM.:Z8A6TSI                    SAT 08/09/97 12:08 Page:56
     1478    23380        /*==================*/
     1479    23381    1     COLLATING_SEQUENCE: PROC (SEQ_NAME$);
     1480    23382        /*==================*/
     1481    23383
     1482    23384    2   DCL SEQ_NAME$          PTR;
     1483    23385
     1484    23386    2   DCL TEMP_ALPHA_NAME$   PTR;
     1485    23387    2   DCL ALPHABET$          PTR;
     1486    23388    2   DCL TABLE_ETT$         PTR;
     1487    23389    2   DCL PROC$              PTR;
     1488    23390
     1489    23391        %DCL_AUTO_LX_ITEM (@NAME = TEMP_COLLATING);
     1490    23395
     1491    23396
     1492    23397    2      ALPHABET$ = ADDR(NIL);
     1493    23398    2      PROC$     = O1COM.CURRENT_PROC$ -> PROC_.PROC_SUPP$;
     1494    23399
     1495    23400    2      IF PROC$ -> PROC_SUPP.COLL_SEQ_PRESENT THEN
     1496    23401    3        DO;
     1497    23402               %CONDITIONAL_ERROR (@LX_ITEM$ = SEQ_NAME$,
     1498    23403                                   @ERROR#   = %E$DUP_DD_CLAUSE,
     1499    23404                                   @LINE     = SEQ_NAME$ -> LX_TERMINAL.LINE,
     1500    23405                                   @COLUMN   = SEQ_NAME$ -> LX_TERMINAL.COLUMN,
     1501    23406                                   @PLUG1    = "DNT$_FROM_RSWNO (%RSV_WRD_SEQUENCE)");
     1502    23436    3          RETURN;
     1503    23437    3        END;
     1504    23438    2      PROC$ -> PROC_SUPP.COLL_SEQ_PRESENT = TRUE;
     1505    23439
     1506    23440    3      DO SELECT (SEQ_NAME$ -> LX_TERMINAL.SYMBOL);
     1507    23441
     1508    23442    3        SELECT (%RSV_WRD_ASCII, %RSV_WRD_NATIVE,
     1509    23443    3              %RSV_WRD_STANDARD_1, %RSV_WRD_STANDARD_2);
     1510    23444               /* All ok */
     1511    23445    3          RETURN;
     1512    23446
     1513    23447    3        SELECT (%NAME);
     1514    23448               %NEW_HEAP (@POINTER = O1COM.COLLATING_SEQ$);
PL6.E3A0      #001=Z8EM$SEMANTICS_DATA_DIV File=Z8EM.:Z8A6TSI                    SAT 08/09/97 12:08 Page:57
     1515    23453
     1516    23454    3          O1COM.COLLATING_SEQ$ -> LX_TERMINAL = SEQ_NAME$ -> LX_TERMINAL;
     1517    23455
     1518    23456
     1519    23457    3        SELECT (ELSE);
     1520    23458
     1521    23459    3          IF SEQ_NAME$ -> LX_TERMINAL.SYMBOL = %RSV_WRD_JIS
     1522    23460    3          OR SEQ_NAME$ -> LX_TERMINAL.SYMBOL = %RSV_WRD_GRAPHIC
     1523    23461    3          THEN COMCOM.OB.KANJI = '1'B ; /* For Accept/Display */
     1524    23462
     1525    23463               %NEW_DNT (@POINTER = TEMP_ALPHA_NAME$,
     1526    23464                         @NAME    = "'COLL_SEQ#TEMP'",
     1527    23465                         @SIZE    = 13);
     1528    23523
     1529    23524               %INIT_LX_TERMINAL (@POINTER = "ADDR(TEMP_COLLATING)",
     1530    23525                                  @DNT$    = TEMP_ALPHA_NAME$);
     1531    23543
     1532    23544    3          CALL COMMON_ALPHABET_NAME (ADDR(TEMP_COLLATING),
     1533    23545    3                                     SEQ_NAME$,
     1534    23546    3                                     ALPHABET$,
     1535    23547    3                                     TABLE_ETT$);
     1536    23548
     1537    23549    3          PROC$ -> PROC_SUPP.LOW_VALUE  = BINASC (ALPHABET$ -> ALPHABET.LOW_VALUE);
     1538    23550    3          PROC$ -> PROC_SUPP.HIGH_VALUE = BINASC (ALPHABET$ -> ALPHABET.HIGH_VALUE);
     1539    23551
     1540    23552    3      END; /* Case */
     1541    23553
     1542    23554    2      PROC$ -> PROC_SUPP.COLLATING_SEQ$ = ALPHABET$;
     1543    23555
     1544    23556    2   END COLLATING_SEQUENCE;
     1545    23557        %EJECT;
PL6.E3A0      #001=Z8EM$SEMANTICS_DATA_DIV File=Z8EM.:Z8A6TSI                    SAT 08/09/97 12:08 Page:58
     1546    23558        /*====================*/
     1547    23559    1     COMMON_ALPHABET_NAME: PROC (NAME$, ALPHA_TYPE$, ALPHA_ST$, TABLE_ETT$);
     1548    23560        /*====================*/
     1549    23561
     1550    23562    2   DCL NAME$              PTR;
     1551    23563    2   DCL ALPHA_TYPE$        PTR;
     1552    23564    2   DCL ALPHA_ST$          PTR;
     1553    23565    2   DCL TABLE_ETT$         PTR;
     1554    23566    2   DCL ALPHA_DNT$         PTR;
     1555    23567    2   DCL COLL_DNT$          PTR;
     1556    23568
     1557    23569
     1558    23570
     1559    23571    3      DO SELECT (ALPHA_TYPE$ -> LX_TERMINAL.SYMBOL);
     1560    23572    3        SELECT (%RSV_WRD_ASCII, %RSV_WRD_NATIVE,
     1561    23573    3              %RSV_WRD_STANDARD_1, %RSV_WRD_STANDARD_2);
     1562    23574               %NEW_ALPHABET (@ST$    = ALPHA_ST$,
     1563    23575                              @LINE_NO = NAME$ -> LX_TERMINAL.LINE,
     1564    23576                              @DNT$    = NAME$ -> LX_TERMINAL.DNT$,
     1565    23577                              @NEXT     = NAME$ -> LX_TERMINAL.DNT$ -> DNT.ST$,
     1566    23578                              @LOW_VALUE  = 0,
     1567    23579                              @HIGH_VALUE = "BITBIN('177'O)",
     1568    23580                              @CODE    = %ASCII);
     1569    23654
     1570    23655    3          CALL Z8CO$CREATE_LIBRARY_BASE (%OP_ASCII_TO_ASCII,
     1571    23656    3                                         TABLE_ETT$);
     1572    23657
     1573    23658    3        SELECT (%RSV_WRD_JIS, %RSV_WRD_GRAPHIC) ;
     1574    23659               %NEW_ALPHABET (@ST$     = ALPHA_ST$,
     1575    23660                              @LINE_NO = NAME$ -> LX_TERMINAL.LINE,
     1576    23661                              @DNT$    = NAME$ -> LX_TERMINAL.DNT$,
     1577    23662                              @NEXT    = NAME$ -> LX_TERMINAL.DNT$ -> DNT.ST$,
     1578    23663                              @LOW_VALUE  = 0,
     1579    23664                              @HIGH_VALUE = "BITBIN('377'O)",
     1580    23665                              @CODE    = %JIS);
     1581    23739
     1582    23740    3          CALL Z8CO$CREATE_LIBRARY_BASE (%OP_ASCII_TO_ASCII,
PL6.E3A0      #001=Z8EM$SEMANTICS_DATA_DIV File=Z8EM.:Z8A6TSI                    SAT 08/09/97 12:08 Page:59
     1583    23741    3                                         TABLE_ETT$);
     1584    23742
     1585    23743    3        SELECT (%RSV_WRD_EBCDIC);
     1586    23744               %NEW_ALPHABET (@ST$     = ALPHA_ST$,
     1587    23745                              @LINE_NO = NAME$ -> LX_TERMINAL.LINE,
     1588    23746                              @DNT$    = NAME$ -> LX_TERMINAL.DNT$,
     1589    23747                              @NEXT    = NAME$ -> LX_TERMINAL.DNT$ -> DNT.ST$,
     1590    23748                              @LOW_VALUE  = 0,
     1591    23749                              @HIGH_VALUE = "BITBIN('377'O)",
     1592    23750                              @CODE    = %EBCDIC);
     1593    23824
     1594    23825    3        ALPHA_ST$ -> ALPHABET.TABLE$ = ADDR(EBCDIC);
     1595    23826
     1596    23827    3        CALL Z8CO$CREATE_LIBRARY_BASE (%OP_ASCII_TO_EBCDIC,
     1597    23828    3                                       TABLE_ETT$);
     1598    23829
     1599    23830    3        SELECT (%RSV_WRD_HBCD);
     1600    23831               %NEW_ALPHABET (@ST$     = ALPHA_ST$,
     1601    23832                              @LINE_NO = NAME$ -> LX_TERMINAL.LINE,
     1602    23833                              @DNT$    = NAME$ -> LX_TERMINAL.DNT$,
     1603    23834                              @NEXT    = NAME$ -> LX_TERMINAL.DNT$ -> DNT.ST$,
     1604    23835                              @LOW_VALUE  = 0,
     1605    23836                              @HIGH_VALUE = "BITBIN('133'O)",
     1606    23837                              @CODE    = %HBCD);
     1607    23911
     1608    23912    3        ALPHA_ST$ -> ALPHABET.TABLE$ = ADDR(HBCD);
     1609    23913
     1610    23914    3        CALL Z8CO$CREATE_LIBRARY_BASE (%OP_ASCII_TO_HBCD,
     1611    23915    3                                       TABLE_ETT$);
     1612    23916
     1613    23917    3        SELECT (%RSV_WRD_GBCD);
     1614    23918               %NEW_ALPHABET (@ST$     = ALPHA_ST$,
     1615    23919                              @LINE_NO = NAME$ -> LX_TERMINAL.LINE,
     1616    23920                              @DNT$    = NAME$ -> LX_TERMINAL.DNT$,
     1617    23921                              @NEXT    = NAME$ -> LX_TERMINAL.DNT$ -> DNT.ST$,
     1618    23922                              @LOW_VALUE  = 0,
     1619    23923                              @HIGH_VALUE = "BITBIN('41'O)",
PL6.E3A0      #001=Z8EM$SEMANTICS_DATA_DIV File=Z8EM.:Z8A6TSI                    SAT 08/09/97 12:08 Page:60
     1620    23924                              @CODE    = %GBCD);
     1621    23998
     1622    23999    3        ALPHA_ST$ -> ALPHABET.TABLE$ = ADDR(GBCD);
     1623    24000
     1624    24001    3        CALL Z8CO$CREATE_LIBRARY_BASE (%OP_ASCII_TO_GBCD,
     1625    24002    3                                         TABLE_ETT$);
     1626    24003
     1627    24004    3        SELECT (ELSE);
     1628    24005    3          CALL Z8AE$ERROR (%E$UNEXPECTED_CASE,
     1629    24006    3                           NAME$ -> LX_TERMINAL.LINE,
     1630    24007    3                           NAME$ -> LX_TERMINAL.COLUMN);
     1631    24008    3          RETURN;
     1632    24009
     1633    24010    3      END; /* Case */
     1634    24011
     1635    24012    2      ALPHA_ST$ -> ALPHABET.TABLE_ETT$ = TABLE_ETT$;
     1636    24013
     1637    24014           %ADD_XREF (SYM  = ALPHA_ST$,
     1638    24015                      ISN  = NAME$ -> LX_TERMINAL.LINE,
     1639    24016                      TYPE = %XREF_DCL);
     1640    24034
     1641    24035    2   END COMMON_ALPHABET_NAME;
     1642    24036        %EJECT;
PL6.E3A0      #001=Z8EM$SEMANTICS_DATA_DIV File=Z8EM.:Z8A6TSI                    SAT 08/09/97 12:08 Page:61
     1643    24037
     1644    24038         /*==============*/
     1645    24039    1      CREATE_CD_AREA: PROC (DNT$$, AREA_LENGTH, AREA_ST$, LEVEL#);
     1646    24040         /*==============*/
     1647    24041
     1648    24042
     1649    24043    2   DCL DNT$$          PTR;
     1650    24044    2   DCL AREA_LENGTH    SBIN WORD;
     1651    24045    2   DCL AREA_ST$       PTR;
     1652    24046    2   DCL LEVEL#         SBIN WORD;
     1653    24047
     1654    24048
     1655    24049           %NEW_SCALAR (@ST$       = AREA_ST$,
     1656    24050                        @LINE_NO   = COMCOM.CURRENT.LINE,
     1657    24051                        @DNT$      = DNT$$,
     1658    24052                        @NEXT      = DNT$$ -> DNT.ST$,
     1659    24053                        @TYPE      = %TYA,
     1660    24054                        @ELEMENTARY = TRUE,
     1661    24055                        @CLASS     = %CLASS_ALPHANUMERIC);
     1662    24255
     1663    24256    2      DNT$$ -> DNT.ST$ = AREA_ST$;
     1664    24257    2      AREA_ST$ -> SCALAR.ADSC.N = AREA_LENGTH;
     1665    24258
     1666    24259           %NEW_QLT (@POINTER  = AREA_ST$ -> SCALAR.QLT$,
     1667    24260                     @LEVEL#   = LEVEL#,
     1668    24261                     @ST$      = AREA_ST$,
     1669    24262                     @DNT$     = DNT$$);
     1670    24287
     1671    24288           %UPDATE_PREV_QLT$ (@NEW_QLT$ = AREA_ST$ -> SCALAR.QLT$);
     1672    24295
     1673    24296    2    END CREATE_CD_AREA;
     1674    24297         %EJECT;
PL6.E3A0      #001=Z8EM$SEMANTICS_DATA_DIV File=Z8EM.:Z8A6TSI                    SAT 08/09/97 12:08 Page:62
     1675    24298        /*====================*/
     1676    24299    1     CREATE_SYMBOLIC_CHAR: PROC (INT, DN$, ALPHA$);
     1677    24300        /*====================*/
     1678    24301
     1679    24302    2   DCL INT                SBIN WORD;
     1680    24303    2   DCL DN$                PTR;
     1681    24304    2   DCL ALPHA$             PTR;
     1682    24305
     1683    24306    2   DCL I                  SBIN WORD;
     1684    24307    2   DCL ST$$               PTR;
     1685    24308    2   DCL SYM_CHAR$          PTR;
     1686    24309    2   DCL QLT$$              PTR;
     1687    24310
     1688    24311
     1689    24312    2      IF ALPHA$ = ADDR(NIL)
     1690    24313    2      OR ALPHA$ -> ALPHABET.TABLE$ = ADDR(NIL) THEN
     1691    24314    2        I = INT;
     1692    24315    2      ELSE
     1693    24316    3        DO I = 0 TO 511;
     1694    24317    3          IF INT = ALPHA$ -> ALPHABET.TABLE$ -> TRANS.TABLE_B (I) THEN
     1695    24318    3            EXIT;
     1696    24319    3        END;
     1697    24320
     1698    24321           %NEW_CONST (@ST$  = ST$$,
     1699    24322                       @TYPE = %TYA,
     1700    24323                       @ALL  = TRUE);
     1701    24364
     1702    24365    2      SUBSTR (ST$$ -> CONST.CONSTA,0,1) = BINASC (I);
     1703    24366
     1704    24367    2      ST$$ -> CONST.ADSC.N = 1;
     1705    24368
     1706    24369           %NEW_SYM_CHAR (@ST$      = SYM_CHAR$,
     1707    24370                          @CONST$   = ST$$,
     1708    24371                          @DNT$     = DN$ -> LX_TERMINAL.DNT$,
     1709    24372                          @LINE_NO  = DN$ -> LX_TERMINAL.LINE);
     1710    24433
     1711    24434    2      DN$ -> LX_TERMINAL.DNT$ -> DNT.ST$ = SYM_CHAR$;
PL6.E3A0      #001=Z8EM$SEMANTICS_DATA_DIV File=Z8EM.:Z8A6TSI                    SAT 08/09/97 12:08 Page:63
     1712    24435    2      DN$ -> LX_TERMINAL.DNT$ -> DNT.B.FIGURATIVE_CONSTANT = TRUE;
     1713    24436
     1714    24437           %NEW_QLT (@POINTER = QLT$$,
     1715    24438                     @DNT$    = DN$ -> LX_TERMINAL.DNT$,
     1716    24439                     @ST$     = SYM_CHAR$,
     1717    24440                     @LEVEL#  = 01);
     1718    24465
     1719    24466           %UPDATE_PREV_QLT$ (@NEW_QLT$ = QLT$$);
     1720    24473
     1721    24474           %ADD_XREF (SYM  = SYM_CHAR$,
     1722    24475                      ISN  = DN$ -> LX_TERMINAL.LINE,
     1723    24476                      TYPE = %XREF_DCL);
     1724    24494
     1725    24495    2      SYM_CHAR$ -> SYMBOLIC_CHAR.QLT$ = QLT$$;
     1726    24496
     1727    24497    2   END CREATE_SYMBOLIC_CHAR;
     1728    24498        %EJECT;
PL6.E3A0      #001=Z8EM$SEMANTICS_DATA_DIV File=Z8EM.:Z8A6TSI                    SAT 08/09/97 12:08 Page:64
     1729    24499        /*=============*/
     1730    24500    1     CURRENCY_SIGN: PROC (CURRENCY_SIGN$);
     1731    24501        /*=============*/
     1732    24502
     1733    24503    2   DCL CURRENCY_SIGN$     PTR; /* to lx_stk of the currency sign literal */
     1734    24504    2   DCL DNT$$              PTR;
     1735    24505    2   DCL INDX               UBIN WORD;
     1736    24506    2   DCL TABLE_VAL          SBIN WORD;
     1737    24507
     1738    24508    2   DCL CURRENCY_SIGN      CHAR (1);
     1739    24509
     1740    24510    2      IF CURRENCY_SIGN$ -> LX_TERMINAL.SYMBOL ~= %ALPHA_LITERAL
     1741    24511    2      AND CURRENCY_SIGN$ -> LX_TERMINAL.SYMBOL ~= %SINGLE_QUOTE THEN
     1742    24512    3        DO;
     1743    24513               %CONDITIONAL_ERROR (@ERROR# = %E$INVALID_CURRENCY_SIGN,
     1744    24514                                   @LX_ITEM$ = CURRENCY_SIGN$,
     1745    24515                                   @LINE   = CURRENCY_SIGN$ -> LX_TERMINAL.LINE,
     1746    24516                                   @COLUMN = CURRENCY_SIGN$ -> LX_TERMINAL.COLUMN);
     1747    24546    3          RETURN;
     1748    24547    3        END;
     1749    24548
     1750    24549    2      IF O1COM.CURRENT_PROC$ -> PROC_.B.CURRENCY_SIGN THEN
     1751    24550    3        DO;
     1752    24551               %CONDITIONAL_ERROR (@ERROR# = %E$MULTIPLE_CURRENCY_SIGNS,
     1753    24552                                   @LX_ITEM$ = CURRENCY_SIGN$,
     1754    24553                                   @LINE   = CURRENCY_SIGN$ -> LX_TERMINAL.LINE,
     1755    24554                                   @COLUMN = CURRENCY_SIGN$ -> LX_TERMINAL.COLUMN);
     1756    24584    3          RETURN;
     1757    24585    3        END;
     1758    24586
     1759    24587    2      CALL Z8EC$INTERNAL_STRING_REP (CURRENCY_SIGN$, DNT$$);
     1760    24588
     1761    24589    2      IF CURRENCY_SIGN$ -> LX_TERMINAL.DNT$ -> DNT.TEXT.LENGTH > 3 THEN
     1762    24590    3        DO;
     1763    24591               %CONDITIONAL_ERROR (@ERROR# = %E$INVALID_CURRENCY_SIGN,
     1764    24592                                   @LX_ITEM$ = CURRENCY_SIGN$,
     1765    24593                                   @LINE   = CURRENCY_SIGN$ -> LX_TERMINAL.LINE,
PL6.E3A0      #001=Z8EM$SEMANTICS_DATA_DIV File=Z8EM.:Z8A6TSI                    SAT 08/09/97 12:08 Page:65
     1766    24594                                   @COLUMN = CURRENCY_SIGN$ -> LX_TERMINAL.COLUMN);
     1767    24624    3          RETURN;
     1768    24625    3        END;
     1769    24626
     1770    24627    2        CALL SEARCH (INDX,TABLE_VAL,
     1771    24628    2                     CURRENCY_SIGN_CHARS,
     1772    24629    2                     SUBSTR(CURRENCY_SIGN$ -> LX_TERMINAL.DNT$ -> DNT.TEXT.NAME,1,1));
     1773    24630
     1774    24631    2        IF INDX ~= 1 THEN
     1775    24632    3          DO;
     1776    24633                 %CONDITIONAL_ERROR (@ERROR# = %E$INVALID_CURRENCY_SIGN,
     1777    24634                                     @LX_ITEM$ = CURRENCY_SIGN$,
     1778    24635                                     @LINE   = CURRENCY_SIGN$ -> LX_TERMINAL.LINE,
     1779    24636                                     @COLUMN = CURRENCY_SIGN$ -> LX_TERMINAL.COLUMN);
     1780    24666    3            RETURN;
     1781    24667    3          END;
     1782    24668
     1783    24669
     1784    24670    2      CURRENCY_SIGN = SUBSTR (CURRENCY_SIGN$ -> LX_TERMINAL.DNT$
     1785    24671    2                              -> DNT.TEXT.NAME,1,1);
     1786    24672
     1787    24673    2      CALL Z8DP$CURRENCY_SIGN (CURRENCY_SIGN);
     1788    24674
     1789    24675    2   END CURRENCY_SIGN;
     1790    24676        %EJECT;
PL6.E3A0      #001=Z8EM$SEMANTICS_DATA_DIV File=Z8EM.:Z8A6TSI                    SAT 08/09/97 12:08 Page:66
     1791    24677        /*===============*/
     1792    24678    1     DCL_CONST_TABLE: PROC (TABLE$);
     1793    24679        /*===============*/
     1794    24680
     1795    24681    2        DCL TABLE$        PTR;
     1796    24682    2        DCL LCNST$        PTR;
     1797    24683
     1798    24684
     1799    24685             %NEW_CONST (@ST$    = TABLE$,
     1800    24686                         @TYPE   = %TYA,
     1801    24687                         @LONG_CONSTANT = TRUE);
     1802    24728
     1803    24729    2        TABLE$ -> CONST.ADSC.N = 512;
     1804    24730
     1805    24731             %NEW_LCNST (@POINTER = LCNST$,
     1806    24732                         @SIZE    = "128 + 1"); /* 128 words + 1 for id */
     1807    24825
     1808    24826    2        TABLE$ -> CONST.CONST$.PTR$ = LCNST$;
     1809    24827
     1810    24828    2   END DCL_CONST_TABLE;
     1811    24829        %EJECT;
PL6.E3A0      #001=Z8EM$SEMANTICS_DATA_DIV File=Z8EM.:Z8A6TSI                    SAT 08/09/97 12:08 Page:67
     1812    24830        /*================*/
     1813    24831    1     DML_TABLE_WRAPUP :  PROC;
     1814    24832        /*================*/
     1815    24833
     1816    24834    2       DCL CONST_WORD  SBIN WORD;
     1817    24835    2       DCL 1 TABLE_WORD   REDEF CONST_WORD,
     1818    24836    2             2 NUMBER  UBIN(18) UNAL,
     1819    24837    2             2 MBZ     UBIN(18) UNAL;
     1820    24838    2       DCL RTN$        PTR;
     1821    24839
     1822    24840        %NEW_CONST( @ST$ = RTN$);
     1823    24881    2   TABLE_WORD.NUMBER = O1COM.RVA_NUMBER;
     1824    24882    2   TABLE_WORD.MBZ= 0;
     1825    24883    2   RTN$ -> CONST.CONSTI.WORD1 = CONST_WORD;
     1826    24884
     1827    24885        %NEW_ILL (@ID = %PREOFF,
     1828    24886                  @LOP = O1COM.RVA$,
     1829    24887                  @ROP = RTN$,
     1830    24888                  @N   = 1,
     1831    24889                  @OFFSET = 0);
     1832    25268    2   O1COM.RVA$ -> SCALAR.ADSC.N = (O1COM.RVA_NUMBER + 1) * 4;
     1833    25269                                                                  /* Word to Byte */
     1834    25270        %NEW_ILL(@ID = %PTR_SET,
     1835    25271                 @OFFSET = 8,
     1836    25272                 @LOP = O1COM.DML_IA$,
     1837    25273                 @ROP = O1COM.RVA$);
     1838    25652
     1839    25653        %NEW_CONST( @ST$ = RTN$ );
     1840    25694    2   TABLE_WORD.NUMBER = O1COM.USEP_NUMBER;
     1841    25695    2   TABLE_WORD.MBZ = 0;
     1842    25696    2   RTN$ -> CONST.CONSTI.WORD1 = CONST_WORD;
     1843    25697
     1844    25698        %NEW_ILL ( @ID = %PREOFF,
     1845    25699                   @LOP = O1COM.USEP$,
     1846    25700                   @ROP = RTN$,
     1847    25701                   @N   = 1,
     1848    25702                   @OFFSET = 0);
PL6.E3A0      #001=Z8EM$SEMANTICS_DATA_DIV File=Z8EM.:Z8A6TSI                    SAT 08/09/97 12:08 Page:68
     1849    26081    2   O1COM.USEP$ -> SCALAR.ADSC.N = (O1COM.USEP_NUMBER * 2 + 1) *4; /* Word to Byte */
     1850    26082
     1851    26083        %NEW_ILL( @ID = %PTR_SET,
     1852    26084                  @OFFSET = 9,
     1853    26085                  @LOP = O1COM.DML_IA$,
     1854    26086                  @ROP = O1COM.USEP$);
     1855    26465
     1856    26466    2   END DML_TABLE_WRAPUP;
     1857    26467        %EJECT;
PL6.E3A0      #001=Z8EM$SEMANTICS_DATA_DIV File=Z8EM.:Z8A6TSI                    SAT 08/09/97 12:08 Page:69
     1858    26468        /*============*/
     1859    26469    1     DISPLAY_SIGN: PROC (SIGN$);
     1860    26470        /*============*/
     1861    26471
     1862    26472    2        DCL SIGN$         PTR;
     1863    26473
     1864    26474
     1865    26475
     1866    26476    2        IF SIGN$ -> LX_LIST.HEAD$ -> LX_TERMINAL.SYMBOL = %RSV_WRD_LEADING THEN
     1867    26477    2          O1COM.DISPLAY_SIGN_POS = %SIGN_POS_LEADING;
     1868    26478
     1869    26479    2        IF SIGN$ -> LX_LIST.TAIL$ -> LX_TERMINAL.SYMBOL ~= %EMPTY THEN
     1870    26480    2          O1COM.DISPLAY_SIGN_TYPE = %SIGN_TYPE_SEPARATE;
     1871    26481
     1872    26482    2        CALL Z8ED$DISPOSE_ABSSYN_TREE (SIGN$ -> LX_LIST.HEAD$);
     1873    26483
     1874    26484    2   END DISPLAY_SIGN;
     1875    26485        %EJECT;
PL6.E3A0      #001=Z8EM$SEMANTICS_DATA_DIV File=Z8EM.:Z8A6TSI                    SAT 08/09/97 12:08 Page:70
     1876    26486        /*============*/
     1877    26487    1     END_OF_ED_DD: PROC;
     1878    26488        /*============*/
     1879    26489
     1880    26490    2        DCL QLT$$         PTR;
     1881    26491
     1882    26492             /*V* This procedure wraps up the divisions prior to the
     1883    26493                  procedure div. ***/
     1884    26494
     1885    26495    2        IF O1COM.CONTROL_LIST$ ~= ADDR(NIL) OR
     1886    26496    2           O1COM.CONTROL_NAME$ ~= ADDR(NIL) THEN
     1887    26497    2          CALL Z8DT$CONTROL_ITEMS;
     1888    26498
     1889    26499    2        IF O1COM.CURRENT_REPORT_LTS$ ~= ADDR(NIL) THEN
     1890    26500    2          CALL Z8DT$REPORT_WRAPUP;
     1891    26501
     1892    26502
     1893    26503    2        IF O1COM.FIRST_PROG_QLT$ = ADDR(NIL) THEN
     1894    26504               %TOP_QLT (POINTER = QLT$$);
     1895    26509    2        ELSE
     1896    26510    2          QLT$$ = O1COM.FIRST_PROG_QLT$ -> QLT.BROTHER;
     1897    26511
     1898    26512    2        CALL Z8DA$STORAGE_ALLOCATION (QLT$$);
     1899    26513
     1900    26514             %NEW_ILL (@ID = %PEND);
     1901    26893
     1902    26894    2   END END_OF_ED_DD;
     1903    26895        %EJECT;
PL6.E3A0      #001=Z8EM$SEMANTICS_DATA_DIV File=Z8EM.:Z8A6TSI                    SAT 08/09/97 12:08 Page:71
     1904    26896        /*===========*/
     1905    26897    1     ENTER_VALUE: PROC (LIT$, ST$$, VALUE, NEXT_SEQ#) ALTRET;
     1906    26898        /*===========*/
     1907    26899
     1908    26900    2        DCL ST$$          PTR;
     1909    26901    2        DCL VALUE         SBIN;
     1910    26902    2        DCL LIT$          PTR;
     1911    26903    2        DCL NEXT_SEQ#     SBIN;
     1912    26904
     1913    26905
     1914    26906    3        DO CASE (ST$$ -> ST.ID);
     1915    26907    3          CASE (%CLASS);
     1916    26908    3            CALL ENTER_VALUE_IN_CLASS (ST$$, VALUE)
     1917    26909    3              WHENALTRETURN
     1918    26910    4                DO;
     1919    26911    4                  CALL Z8AE$ERROR (%E$ERROR_IN_ALPHABET_LITERAL,
     1920    26912    4                                   LIT$ -> LX_ITEM.LINE,
     1921    26913    4                                   LIT$ -> LX_ITEM.COLUMN);
     1922    26914    4                END;
     1923    26915
     1924    26916    3          CASE (%ALPHABET);
     1925    26917    3            CALL ENTER_VALUE_IN_TABLE (ST$$, VALUE, NEXT_SEQ#)
     1926    26918    3              WHENALTRETURN
     1927    26919    4                DO;
     1928    26920    4                  CALL Z8AE$ERROR (%E$ERROR_IN_ALPHABET_LITERAL,
     1929    26921    4                                   LIT$ -> LX_ITEM.LINE,
     1930    26922    4                                   LIT$ -> LX_ITEM.COLUMN);
     1931    26923    4                  ALTRETURN;
     1932    26924    4                END;
     1933    26925
     1934    26926    3          CASE (ELSE);
     1935    26927    3            CALL Z8AE$ERROR (%E$UNEXPECTED_CASE,
     1936    26928    3                             LIT$ -> LX_ITEM.LINE,
     1937    26929    3                             LIT$ -> LX_ITEM.COLUMN);
     1938    26930
     1939    26931    3        END; /* Case */
     1940    26932
PL6.E3A0      #001=Z8EM$SEMANTICS_DATA_DIV File=Z8EM.:Z8A6TSI                    SAT 08/09/97 12:08 Page:72
     1941    26933    2   END ENTER_VALUE;
     1942    26934        %EJECT;
PL6.E3A0      #001=Z8EM$SEMANTICS_DATA_DIV File=Z8EM.:Z8A6TSI                    SAT 08/09/97 12:08 Page:73
     1943    26935        /*====================*/
     1944    26936    1     ENTER_VALUE_IN_CLASS: PROC (CLASS$, VALUE) ALTRET;
     1945    26937        /*====================*/
     1946    26938
     1947    26939    2        DCL CLASS$        PTR;
     1948    26940    2        DCL VALUE         SBIN;
     1949    26941
     1950    26942    2        DCL TAB_START$    PTR;
     1951    26943    2        DCL 1 TABLE       ALIGNED BASED,
     1952    26944    2              2 ELEMENT   (0:511) UBIN (9) UNAL;
     1953    26945
     1954    26946
     1955    26947    2        TAB_START$ = ADDR(CLASS$ -> CLASS.TABLE$ -> CONST.CONST$.PTR$ ->
     1956    26948    2                          LCNST.CONST);
     1957    26949
     1958    26950    2        IF TAB_START$ -> TABLE.ELEMENT(VALUE) = BITBIN ('777'O) THEN
     1959    26951    2          TAB_START$ -> TABLE.ELEMENT(VALUE) = BITBIN ('000'O);
     1960    26952    2        ELSE
     1961    26953    2          ALTRETURN;
     1962    26954
     1963    26955    2        IF COMCOM.OB.FIPS.LEVEL > 0 THEN
     1964    26956    2          IF VALUE > 127 THEN
     1965    26957    3            DO;
     1966    26958    3              CALL Z8AE$ERROR (%E$ALPHABET_VALUE_GTR_128,
     1967    26959    3                               CLASS$ -> CLASS.LINE_NO, 0);
     1968    26960    3              RETURN;
     1969    26961    3            END;
     1970    26962    2        ELSE
     1971    26963    2          IF VALUE > 511 THEN
     1972    26964    3            DO;
     1973    26965    3              CALL Z8AE$ERROR (%E$ALPHABET_VALUE_GTR_512,
     1974    26966    3                               CLASS$ -> CLASS.LINE_NO, 0);
     1975    26967    3              RETURN;
     1976    26968    3            END;
     1977    26969
     1978    26970    2   END ENTER_VALUE_IN_CLASS;
     1979    26971        %EJECT;
PL6.E3A0      #001=Z8EM$SEMANTICS_DATA_DIV File=Z8EM.:Z8A6TSI                    SAT 08/09/97 12:08 Page:74
     1980    26972        /*====================*/
     1981    26973    1     ENTER_VALUE_IN_TABLE: PROC (ALPHA_ST$, VALUE, NEXT_SEQ#) ALTRET;
     1982    26974        /*====================*/
     1983    26975
     1984    26976    2   DCL TABLE$             PTR;
     1985    26977    2   DCL ALPHA_ST$          PTR;
     1986    26978    2   DCL VALUE              UBIN WORD;
     1987    26979    2   DCL NEXT_SEQ#          UBIN WORD;
     1988    26980
     1989    26981    2   DCL 1 TABLE            ALIGNED BASED,
     1990    26982    2       2 ELEMENT          (0:511) UBIN (9) UNAL;
     1991    26983    2   DCL TABLE_START$       PTR;
     1992    26984
     1993    26985
     1994    26986    2      TABLE_START$ = ALPHA_ST$ -> ALPHABET.TABLE$;
     1995    26987
     1996    26988    2      IF TABLE_START$ ~= ADDR(NIL) AND
     1997    26989    2        TABLE_START$ -> TABLE.ELEMENT(VALUE) = BITBIN('777'O) THEN
     1998    26990    2          TABLE_START$ -> TABLE.ELEMENT(VALUE) = NEXT_SEQ#;
     1999    26991    2      ELSE
     2000    26992    2        ALTRETURN;
     2001    26993
     2002    26994    2      IF COMCOM.OB.FIPS.LEVEL > 0 THEN
     2003    26995    2        IF VALUE > 127 THEN
     2004    26996    3          DO;
     2005    26997    3            CALL Z8AE$ERROR (%E$ALPHABET_VALUE_GTR_128,
     2006    26998    3                             ALPHA_ST$ -> ALPHABET.LINE_NO, 0);
     2007    26999    3            RETURN;
     2008    27000    3          END;
     2009    27001    2      ELSE
     2010    27002    2        IF VALUE > 511 THEN
     2011    27003    3          DO;
     2012    27004    3            CALL Z8AE$ERROR (%E$ALPHABET_VALUE_GTR_512,
     2013    27005    3                             ALPHA_ST$ -> ALPHABET.LINE_NO, 0);
     2014    27006    3            RETURN;
     2015    27007    3          END;
     2016    27008
PL6.E3A0      #001=Z8EM$SEMANTICS_DATA_DIV File=Z8EM.:Z8A6TSI                    SAT 08/09/97 12:08 Page:75
     2017    27009    2      IF ALPHA_ST$ -> ALPHABET.NUM_VALUES + 1 > 512 THEN
     2018    27010    3        DO;
     2019    27011    3          CALL Z8AE$ERROR (%E$TOO_MANY_ALPHABET_VALUES,
     2020    27012    3                           ALPHA_ST$ -> ALPHABET.LINE_NO, 0);
     2021    27013    3          RETURN;
     2022    27014    3        END;
     2023    27015
     2024    27016    2      IF ALPHA_ST$ -> ALPHABET.B.SET_LOW_VALUE THEN
     2025    27017    3        DO;
     2026    27018    3          ALPHA_ST$ -> ALPHABET.B.SET_LOW_VALUE = FALSE;
     2027    27019    3          ALPHA_ST$ -> ALPHABET.LOW_VALUE       = VALUE;
     2028    27020    3        END;
     2029    27021
     2030    27022    2      ALPHA_ST$ -> ALPHABET.HIGH_VALUE = VALUE;
     2031    27023
     2032    27024    2      IF VALUE > 255 THEN
     2033    27025    2        ALPHA_ST$ -> ALPHABET.B.GTR_255 = TRUE;
     2034    27026    2      ELSE
     2035    27027    2        ALPHA_ST$ -> ALPHABET.NUM_VALUES = ALPHA_ST$ -> ALPHABET.NUM_VALUES+1;
     2036    27028
     2037    27029    2      NEXT_SEQ# = NEXT_SEQ# + 1;
     2038    27030
     2039    27031    2   END ENTER_VALUE_IN_TABLE;
     2040    27032        %EJECT;
PL6.E3A0      #001=Z8EM$SEMANTICS_DATA_DIV File=Z8EM.:Z8A6TSI                    SAT 08/09/97 12:08 Page:76
     2041    27033        /*====================*/
     2042    27034    1     EXTERNAL_BLOCK_CHECK : PROC (LTS$$);
     2043    27035        /*====================*/
     2044    27036
     2045    27037    2        DCL LTS$$       PTR;   /* To FILE_LTS */
     2046    27038    2        DCL BLOCK$$     PTR;   /* To Created BLOCK */
     2047    27039    2        DCL P$          PTR;
     2048    27040
     2049    27041
     2050    27042             /*
     2051    27043               Look for another FD with the same name, that is also external.
     2052    27044               If one is found, this refers to the same one, set the counts
     2053    27045               and get the hell out!
     2054    27046             */
     2055    27047
     2056    27048    2        P$ = LTS$$ -> FILE_LTS.ST$ -> FD.DNT$ -> DNT.ST$;
     2057    27049
     2058    27050    3        DO WHILE (P$ ~= ADDR(NIL));
     2059    27051    3          IF P$ -> ST.ID = %FD
     2060    27052    3          AND P$ ~= LTS$$ -> FILE_LTS.ST$ THEN
     2061    27053    3            IF P$ -> FD.B.EXTERNAL THEN
     2062    27054    3              EXIT;
     2063    27055
     2064    27056    3          P$ = P$ -> ST.NEXT;
     2065    27057    3        END;
     2066    27058
     2067    27059    2        IF P$ ~= ADDR(NIL) THEN
     2068    27060    3          DO;
     2069    27061                 /* A file like it was found */
     2070    27062    3            LTS$$ -> FILE_LTS.ST$ -> FD.COUNT = P$ -> FD.COUNT;
     2071    27063    3            LTS$$ -> FILE_LTS.ST$ -> FD.B.ALLOCATED = TRUE;
     2072    27064    3            RETURN;
     2073    27065    3          END;
     2074    27066
     2075    27067             %NEW_BLOCK (@ST$   = BLOCK$$,
     2076    27068                         @DNT$  = LTS$$ -> FILE_LTS.ST$ -> FD.DNT$);
     2077    27145
PL6.E3A0      #001=Z8EM$SEMANTICS_DATA_DIV File=Z8EM.:Z8A6TSI                    SAT 08/09/97 12:08 Page:77
     2078    27146    2        LTS$$ -> FILE_LTS.ST$ -> FD.COUNT = BLOCK$$ -> BLOCK.COUNT;
     2079    27147
     2080    27148    2   END EXTERNAL_BLOCK_CHECK;
     2081    27149        %EJECT;
PL6.E3A0      #001=Z8EM$SEMANTICS_DATA_DIV File=Z8EM.:Z8A6TSI                    SAT 08/09/97 12:08 Page:78
     2082    27150        /*==================*/
     2083    27151    1     EXTRACT_#_FROM_DNT: PROC (DNT$$, RETURN#);
     2084    27152        /*==================*/
     2085    27153
     2086    27154    2   DCL DNT$$              PTR;
     2087    27155    2   DCL RETURN#            SBIN WORD;
     2088    27156
     2089    27157    3      DO CASE (DNT$$ -> DNT.RW_NO);
     2090    27158
     2091    27159    3        CASE(%RSV_WRD_SWITCH);
     2092    27160    3          CALL CHARBIN ( RETURN#, SUBSTR (DNT$$ -> DNT.TEXT.NAME,7) );
     2093    27161
     2094    27162    3        CASE(ELSE); /* Channel numbers ? */
     2095    27163    3          CALL Z8AE$ERROR (%E$UNEXPECTED_CASE);
     2096    27164
     2097    27165    3      END; /* Case */
     2098    27166
     2099    27167    2   END EXTRACT_#_FROM_DNT;
     2100    27168        %EJECT;
PL6.E3A0      #001=Z8EM$SEMANTICS_DATA_DIV File=Z8EM.:Z8A6TSI                    SAT 08/09/97 12:08 Page:79
     2101    27169        /*===========*/
     2102    27170    1     FD_SD_START: PROC (KEYWORD$, FILE$);
     2103    27171        /*===========*/
     2104    27172
     2105    27173    2        DCL KEYWORD$             PTR;
     2106    27174    2        DCL FILE$                PTR;
     2107    27175
     2108    27176
     2109    27177    2        IF KEYWORD$ -> LX_TERMINAL.SYMBOL = %RSV_WRD_FD THEN
     2110    27178    3          DO;
     2111    27179    3            CALL FD_START (FILE$);
     2112    27180
     2113    27181
     2114    27182    3            IF O1COM.CURRENT_FILE_LTS$ -> FILE_LTS.ORGANIZATION = %NOT_SPECIFIED THEN
     2115    27183    3              O1COM.CURRENT_FILE_LTS$ -> FILE_LTS.ORGANIZATION = %SEQUENTIAL;
     2116    27184
     2117    27185    3            IF O1COM.CURRENT_FILE_LTS$ -> FILE_LTS.ACCESS_MODE = %NOT_SPECIFIED THEN
     2118    27186    3              O1COM.CURRENT_FILE_LTS$ -> FILE_LTS.ACCESS_MODE = %SEQUENTIAL_ACCESS;
     2119    27187    3          END;
     2120    27188    3        ELSE DO;
     2121    27189    3          CALL SD_START (FILE$);
     2122    27190    3          IF COMCOM.OB.FIPS.LEVEL = %LOW_LEV THEN
     2123    27191    3            CALL Z8AE$ERROR (%E$LEVEL_CHECK,
     2124    27192    3                             KEYWORD$ -> LX_ITEM.LINE,
     2125    27193    3                             KEYWORD$ -> LX_ITEM.COLUMN);
     2126    27194    3        END;
     2127    27195
     2128    27196    2   END FD_SD_START;
     2129    27197        %EJECT;
PL6.E3A0      #001=Z8EM$SEMANTICS_DATA_DIV File=Z8EM.:Z8A6TSI                    SAT 08/09/97 12:08 Page:80
     2130    27198        /*========*/
     2131    27199    1     FD_START: PROC (FILE$);
     2132    27200        /*========*/
     2133    27201
     2134    27202    2        DCL FILE$         PTR;
     2135    27203    2        DCL ST$$          PTR;
     2136    27204
     2137    27205
     2138    27206    2        O1COM.DATA_DECL_CONTEXT = %FILE_DESCRIPTION;
     2139    27207
     2140    27208    2        CALL Z8DO$QUALIFY_TERMINAL (FILE$, ST$$)
     2141    27209    2          WHENALTRETURN
     2142    27210    3            DO;
     2143    27211    3              CALL FIND_FILE (FILE$, ST$$)
     2144    27212    3                WHENALTRETURN
     2145    27213    4                  DO;
     2146    27214    4                    CALL NEW_FILE (FILE$, ST$$);
     2147    27215
     2148    27216    4                    CALL Z9EM$ASSIGN_RECOVERY (ST$$ -> FD.LTS$ -> FILE_LTS.ASSIGN$,
             27216                             ST$$ -> FD.DNT$);
     2149    27217    4                  END;
     2150    27218    3            END;
     2151    27219
     2152    27220    3        DO CASE (ST$$ -> ST.ID);
     2153    27221    3          CASE (
     2154    27222                     %SET_OF_FILE_DESCRIPTIONS;
     2155    27227    3               );
     2156    27228                 /* ALL OK */
     2157    27229
     2158    27230    3          CASE(ELSE);
     2159    27231                 %CONDITIONAL_ERROR (@LX_ITEM$ = FILE$,
     2160    27232                                     @ERROR#   = %E$FILE_NOT_SELECTED,
     2161    27233                                     @LINE     = FILE$ -> LX_TERMINAL.LINE,
     2162    27234                                     @COLUMN   = FILE$ -> LX_TERMINAL.COLUMN,
     2163    27235                                     @PLUG1    = FILE$ -> LX_TERMINAL.DNT$);
     2164    27265
     2165    27266    3            CALL NEW_FILE (FILE$, ST$$);
PL6.E3A0      #001=Z8EM$SEMANTICS_DATA_DIV File=Z8EM.:Z8A6TSI                    SAT 08/09/97 12:08 Page:81
     2166    27267    3            CALL Z9EM$ASSIGN_RECOVERY (ST$$ -> FD.LTS$ -> FILE_LTS.ASSIGN$, ST$$ -> FD.
             27267                     DNT$);
     2167    27268    3        END; /* Case */
     2168    27269
     2169    27270    2        IF ST$$ -> FD.QLT$ -> QLT.SON -> QLT.BROTHER ~= ADDR(NIL)
     2170    27271    2            OR ST$$ -> FD.LTS$ -> FILE_LTS.REPORT$ ~= ADDR(NIL) THEN
     2171    27272    3          DO;
     2172    27273                 %CONDITIONAL_ERROR (@LX_ITEM$ = FILE$,
     2173    27274                                     @ERROR#   = %E$FD_ALREADY_EXISTS,
     2174    27275                                     @LINE     = FILE$ -> LX_ITEM.LINE,
     2175    27276                                     @COLUMN   = FILE$ -> LX_ITEM.COLUMN);
     2176    27306    3            ST$$ -> FD.LTS$ -> FILE_LTS.ORGANIZATION = %NOT_SPECIFIED;
     2177    27307    3            ST$$ -> FD.LTS$ -> FILE_LTS.ACCESS_MODE = %NOT_SPECIFIED;
     2178    27308    3          END;
     2179    27309
     2180    27310    2        O1COM.CURRENT_FILE_LTS$ = ST$$ -> FD.LTS$;
     2181    27311    2        O1COM.LEVEL_NO = 0;
     2182    27312
     2183    27313    2   END FD_START;
     2184    27314        %EJECT;
PL6.E3A0      #001=Z8EM$SEMANTICS_DATA_DIV File=Z8EM.:Z8A6TSI                    SAT 08/09/97 12:08 Page:82
     2185    27315        /*========*/
     2186    27316    1     FILE_ORG: PROC (ORG$, ORGANIZATION);
     2187    27317        /*========*/
     2188    27318
     2189    27319    2        DCL ORG$          PTR;
     2190    27320    2        DCL ORGANIZATION  SBIN WORD;
     2191    27321    2        DCL TOKEN$        PTR; /* Token at which level check warning desired */
     2192    27322
     2193    27323             /* Functions performed:
     2194    27324                 1. Check for multiple ORGANIZATION clauses
     2195    27325                 2. Check for organization - level conflicts.
     2196    27326             */
     2197    27327
     2198    27328
     2199    27329    2        IF O1COM.CURRENT_FILE_LTS$ -> FILE_LTS.ORGANIZATION ~= %NOT_SPECIFIED THEN
     2200    27330    3          DO;
     2201    27331                 %CONDITIONAL_ERROR (@LX_ITEM$ = ORG$,
     2202    27332                            @ERROR#   = %E$DUP_DD_CLAUSE,
     2203    27333                            @LINE     = ORG$ -> LX_TERMINAL.LINE,
     2204    27334                            @COLUMN   = ORG$ -> LX_TERMINAL.COLUMN,
     2205    27335                            @PLUG1    = "DNT$_FROM_RSWNO(%RSV_WRD_ORGANIZATION)");
     2206    27365
     2207    27366    3            RETURN;
     2208    27367    3          END;
     2209    27368
     2210    27369    2        IF COMCOM.OB.FIPS.LEVEL > 0 THEN
     2211    27370    3          DO CASE (ORGANIZATION);
     2212    27371    3            CASE (%SEQUENTIAL);
     2213    27372                   /* OK */
     2214    27373    3            CASE (%RELATIVE);
     2215    27374    4              IF COMCOM.OB.FIPS.LEVEL = %LOW_LEV THEN DO;
     2216    27375    4                IF O1COM.LX_STK.SYMBOL(O1COM.LX_TOP - 2) = %RSV_WRD_ORGANIZATION
     2217    27376    4                  THEN TOKEN$ = ADDR(O1COM.LX_STK(O1COM.LX_TOP - 2));
     2218    27377    4                  ELSE TOKEN$ = ORG$;
     2219    27378    4                CALL Z8AE$ERROR (%E$LEVEL_CHECK,
     2220    27379    4                                 TOKEN$ -> LX_TERMINAL.LINE,
     2221    27380    4                                 TOKEN$ -> LX_TERMINAL.COLUMN);
PL6.E3A0      #001=Z8EM$SEMANTICS_DATA_DIV File=Z8EM.:Z8A6TSI                    SAT 08/09/97 12:08 Page:83
     2222    27381    4              END;
     2223    27382    3            CASE (%INDEXED); /* INDEXED or IO8 INDEXED -- which? */
     2224    27383    3              IF O1COM.LX_STK.SYMBOL(O1COM.LX_TOP - 1)
     2225    27384    3                  = %RSV_WRD_IO8 THEN /* IO8 INDEXED */
     2226    27385    3                CALL Z8AE$ERROR (%E$NON_ANSI_FILE_ORG,
     2227    27386    3                                 O1COM.LX_STK.LINE(O1COM.LX_TOP - 3),
     2228    27387    3                                 O1COM.LX_STK.COLUMN(O1COM.LX_TOP - 3));
     2229    27388    4              ELSE IF COMCOM.OB.FIPS.LEVEL = %LOW_LEV THEN DO;
     2230    27389    4                IF O1COM.LX_STK.SYMBOL(O1COM.LX_TOP - 2) = %RSV_WRD_ORGANIZATION
     2231    27390    4                  THEN TOKEN$ = ADDR(O1COM.LX_STK(O1COM.LX_TOP - 2));
     2232    27391    4                  ELSE TOKEN$ = ORG$;
     2233    27392    4                CALL Z8AE$ERROR (%E$LEVEL_CHECK,
     2234    27393    4                                 TOKEN$ -> LX_TERMINAL.LINE,
     2235    27394    4                                 TOKEN$ -> LX_TERMINAL.COLUMN);
     2236    27395    4              END;
     2237    27396    3            CASE (ELSE);
     2238    27397    3                IF O1COM.LX_STK.SYMBOL(O1COM.LX_TOP - 2) = %RSV_WRD_ORGANIZATION
     2239    27398    3                  THEN TOKEN$ = ADDR(O1COM.LX_STK(O1COM.LX_TOP - 2));
     2240    27399    3                  ELSE IF O1COM.LX_STK.SYMBOL(O1COM.LX_TOP - 3) = %RSV_WRD_ORGANIZATION
     2241    27400    3                    THEN TOKEN$ = ADDR(O1COM.LX_STK(O1COM.LX_TOP - 3));
     2242    27401    3                    ELSE TOKEN$ = ADDR(O1COM.LX_STK(O1COM.LX_TOP - 4));
     2243    27402    3              CALL Z8AE$ERROR (%E$NON_ANSI_FILE_ORG,
     2244    27403    3                               TOKEN$ -> LX_TERMINAL.LINE,
     2245    27404    3                               TOKEN$ -> LX_TERMINAL.COLUMN);
     2246    27405    3          END;
     2247    27406
     2248    27407    2        CALL Z9EM$FILE_ORG (ORG$, ORGANIZATION);
     2249    27408
     2250    27409    2        IF O1COM.CURRENT_FILE_LTS$ -> FILE_LTS.ASSIGN$ ~= ADDR(NIL) THEN
     2251    27410    2          CALL Z9EM$MASS_STORAGE_CHECK (ORG$, O1COM.CURRENT_FILE_LTS$);
     2252    27411
     2253    27412    2        IF O1COM.CURRENT_FILE_LTS$ -> FILE_LTS.ACCESS_MODE ~= %NOT_SPECIFIED THEN
     2254    27413    2          CALL CHECK_DIFF_ORG_AND_ACCESS (ORG$,
     2255    27414    2                                          O1COM.CURRENT_FILE_LTS$ ->
     2256    27415    2                                          FILE_LTS.ACCESS_MODE,
     2257    27416    2                                          ORGANIZATION);
     2258    27417
PL6.E3A0      #001=Z8EM$SEMANTICS_DATA_DIV File=Z8EM.:Z8A6TSI                    SAT 08/09/97 12:08 Page:84
     2259    27418    2        CALL ORG_CHECKS (ORG$, ORGANIZATION);
     2260    27419
     2261    27420    2   END FILE_ORG;
     2262    27421        %EJECT;
PL6.E3A0      #001=Z8EM$SEMANTICS_DATA_DIV File=Z8EM.:Z8A6TSI                    SAT 08/09/97 12:08 Page:85
     2263    27422        /*=========*/
     2264    27423    1     FIND_FILE : PROC (FILE$, ST$$) ALTRET;
     2265    27424        /*=========*/
     2266    27425
     2267    27426    2        DCL FILE$         PTR; /* To lx_term for the file */
     2268    27427    2        DCL ST$$          PTR; /* Return to file found */
     2269    27428    2        DCL DNT$$         PTR;
     2270    27429    2        DCL RET_ST$       PTR;
     2271    27430
     2272    27431
     2273    27432    2        DNT$$ = FILE$ -> LX_TERMINAL.DNT$;
     2274    27433    2        ST$$  = DNT$$ -> DNT.ST$;
     2275    27434    2        RET_ST$ = ADDR(NIL);
     2276    27435
     2277    27436    3        DO WHILE (ST$$ ~= ADDR(NIL));
     2278    27437    3          IF ST$$ -> SCALAR.PROC$ ~= O1COM.CURRENT_PROC$ THEN
     2279    27438                 /* It is not in this proc so altreturn */
     2280    27439    3            IF RET_ST$ = ADDR(NIL) THEN
     2281    27440    3              ALTRETURN;
     2282    27441    3            ELSE
     2283    27442    4              DO;
     2284    27443    4                ST$$ = RET_ST$;
     2285    27444    4                RETURN;
     2286    27445    4              END;
     2287    27446    3          ELSE
     2288    27447    4            DO CASE (ST$$ -> ST.ID);
     2289    27448    4              CASE (
     2290    27449                          %SET_OF_FILE_DESCRIPTIONS;
     2291    27454    4                    );
     2292    27455    4                IF ST$$ -> FD.QLT$ -> QLT.SON -> QLT.BROTHER = ADDR(NIL) THEN
     2293    27456    4                  RETURN;
     2294    27457    4                ELSE
     2295    27458    4                  RET_ST$ = ST$$;
     2296    27459
     2297    27460    4                ST$$ = ST$$ -> ST.NEXT;
     2298    27461
     2299    27462    4              CASE (ELSE);
PL6.E3A0      #001=Z8EM$SEMANTICS_DATA_DIV File=Z8EM.:Z8A6TSI                    SAT 08/09/97 12:08 Page:86
     2300    27463    4                ST$$ = ST$$ -> ST.NEXT;
     2301    27464    4            END; /* Case */
     2302    27465    3        END; /* While */
     2303    27466
     2304    27467    2        IF RET_ST$ ~= ADDR(NIL) THEN
     2305    27468    2          ST$$ = RET_ST$;
     2306    27469
     2307    27470    2        ALTRETURN;
     2308    27471
     2309    27472    2   END FIND_FILE;
     2310    27473        %EJECT;
PL6.E3A0      #001=Z8EM$SEMANTICS_DATA_DIV File=Z8EM.:Z8A6TSI                    SAT 08/09/97 12:08 Page:87
     2311    27474
     2312    27475          /*===========*/
     2313    27476    1       FIND_REPORT:  PROC  (REPORT$, ST$$);
     2314    27477          /*===========*/
     2315    27478
     2316    27479
     2317    27480    2      DCL REPORT$          PTR;
     2318    27481    2      DCL ST$$             PTR;
     2319    27482    2      DCL RET_ST$          PTR;
     2320    27483
     2321    27484
     2322    27485
     2323    27486    2       ST$$ = REPORT$ -> LX_TERMINAL.DNT$ -> DNT.ST$;
     2324    27487    2       RET_ST$ = ST$$;
     2325    27488
     2326    27489
     2327    27490    3       DO WHILE (RET_ST$ ~= ADDR(NIL));
     2328    27491    3         IF RET_ST$ -> SCALAR.PROC$ ~= O1COM.CURRENT_PROC$  THEN
     2329    27492    3             RETURN;
     2330    27493
     2331    27494    3           ELSE
     2332    27495    4             DO;
     2333    27496    4               IF RET_ST$ -> ST.ID = %RD  THEN
     2334    27497    5                 DO;
     2335    27498    5                   ST$$ = RET_ST$;
     2336    27499    5                   RETURN;
     2337    27500    5                 END;
     2338    27501
     2339    27502    4                 ELSE
     2340    27503    4                   RET_ST$ = RET_ST$ -> SCALAR.NEXT;
     2341    27504    4             END;
     2342    27505    3        END;  /* while */
     2343    27506
     2344    27507    2      END FIND_REPORT;
     2345    27508           %EJECT;
PL6.E3A0      #001=Z8EM$SEMANTICS_DATA_DIV File=Z8EM.:Z8A6TSI                    SAT 08/09/97 12:08 Page:88
     2346    27509
     2347    27510         /*====================*/
     2348    27511    1      GET_CD_BUFFER_LENGTH: PROC (ITEM$, BUFFER_LENGTH);
     2349    27512         /*====================*/
     2350    27513
     2351    27514
     2352    27515        %EQU DEFAULT_BUFFER_LENGTH = 84; /* 21 words */
     2353    27516
     2354    27517    2   DCL ITEM$          PTR;
     2355    27518    2   DCL BUFFER_LENGTH  SBIN WORD;
     2356    27519
     2357    27520
     2358    27521
     2359    27522    2      IF ITEM$ ~= ADDR(NIL) THEN
     2360    27523    3        DO;
     2361    27524    3          CALL CHARBIN (BUFFER_LENGTH,
     2362    27525    3                        ITEM$ -> LX_TERMINAL.DNT$ -> DNT.TEXT.NAME);
     2363    27526
     2364    27527    3          IF BUFFER_LENGTH < 1 OR
     2365    27528    3             BUFFER_LENGTH > 1920 THEN
     2366    27529    4              DO;
     2367    27530    4                BUFFER_LENGTH = %DEFAULT_BUFFER_LENGTH;
     2368    27531
     2369    27532    4                CALL Z8AE$ERROR (%E$BUFFER_LENGTH_ERROR,
     2370    27533    4                                 ITEM$ -> LX_TERMINAL.LINE,
     2371    27534    4                                 ITEM$ -> LX_TERMINAL.COLUMN);
     2372    27535    4              END;
     2373    27536    3            ELSE
     2374    27537    3              BUFFER_LENGTH = BUFFER_LENGTH + 4;
     2375    27538
     2376    27539    3          CALL Z8ED$DISPOSE_ABSSYN_TREE (ITEM$);
     2377    27540    3        END;
     2378    27541    2      ELSE
     2379    27542    2        BUFFER_LENGTH = %DEFAULT_BUFFER_LENGTH;
     2380    27543
     2381    27544    2    END GET_CD_BUFFER_LENGTH;
     2382    27545         %EJECT;
PL6.E3A0      #001=Z8EM$SEMANTICS_DATA_DIV File=Z8EM.:Z8A6TSI                    SAT 08/09/97 12:08 Page:89
     2383    27546
     2384    27547
     2385    27548        /*======================*/
     2386    27549    1     INITIALIZE_TRANS_TABLE: PROC (TABLE$);
     2387    27550        /*======================*/
     2388    27551
     2389    27552    2   DCL TABLE$             PTR;
     2390    27553
     2391    27554    2   DCL I                  SBIN WORD;
     2392    27555
     2393    27556    3      DO I = 0 TO 511;
     2394    27557    3        SUBSTR (TABLE$ -> LCNST.CONST, I, 1) = BITASC('777'O);
     2395    27558    3      END; /* Do */
     2396    27559
     2397    27560    2   END INITIALIZE_TRANS_TABLE;
     2398    27561        %EJECT;
PL6.E3A0      #001=Z8EM$SEMANTICS_DATA_DIV File=Z8EM.:Z8A6TSI                    SAT 08/09/97 12:08 Page:90
     2399    27562        /*==================*/
     2400    27563    1     INVALID_SD_CLAUSES: PROC (LTS$$);
     2401    27564        /*==================*/
     2402    27565
     2403    27566    2        DCL LTS$$         PTR;
     2404    27567    2        DCL CLAUSE_ERROR  BIT (1) ALIGNED;
     2405    27568
     2406    27569
     2407    27570             %MACRO CLAUSE_ERROR;
     2408    27571               DO;
     2409    27572                 CALL Z8AE$ERROR (%E$CLAUSE_INVALID_IN_SORT,
     2410    27573                                  BINBIT (LTS$$ -> FILE_LTS.ST$ -> FD.LINE_NO,36),
     2411    27574                                  0);
     2412    27575                 RETURN;
     2413    27576               END;
     2414    27577             %MEND;
     2415    27578
     2416    27579        %EJECT;
PL6.E3A0      #001=Z8EM$SEMANTICS_DATA_DIV File=Z8EM.:Z8A6TSI                    SAT 08/09/97 12:08 Page:91
     2417    27580
     2418    27581    2        IF LTS$$ -> FILE_LTS.ORGANIZATION ~= %NOT_SPECIFIED THEN
     2419    27582               %CLAUSE_ERROR;
     2420    27590
     2421    27591    2        IF LTS$$ -> FILE_LTS.ACCESS_MODE ~= %NOT_SPECIFIED THEN
     2422    27592               %CLAUSE_ERROR;
     2423    27600
     2424    27601    2        IF LTS$$ -> FILE_LTS.B.OPTIONAL_FILE THEN
     2425    27602               %CLAUSE_ERROR;
     2426    27610
     2427    27611    2        IF LTS$$ -> FILE_LTS.RELATIVE_KEY$ ~= ADDR(NIL) THEN
     2428    27612               %CLAUSE_ERROR;
     2429    27620
     2430    27621    2        IF LTS$$ -> FILE_LTS.RECORD_KEY$ ~= ADDR(NIL) THEN
     2431    27622               %CLAUSE_ERROR;
     2432    27630
     2433    27631    2        IF LTS$$ -> FILE_LTS.ALT_RECORD_KEY$ ~= ADDR(NIL) THEN
     2434    27632               %CLAUSE_ERROR;
     2435    27640
     2436    27641    2        IF LTS$$ -> FILE_LTS.FILE_STATUS$ ~= ADDR(NIL) THEN
     2437    27642               %CLAUSE_ERROR;
     2438    27650
     2439    27651    2        IF LTS$$ -> FILE_LTS.PAD_CHAR$ ~= ADDR(NIL) THEN
     2440    27652               %CLAUSE_ERROR;
     2441    27660
     2442    27661    2        IF LTS$$ -> FILE_LTS.RECORD_DELIM ~= %NOT_SPECIFIED THEN
     2443    27662               %CLAUSE_ERROR;
     2444    27670
     2445    27671    2        IF LTS$$ -> FILE_LTS.NO_OF_AREAS ~= -1 THEN
     2446    27672               %CLAUSE_ERROR;
     2447    27680
     2448    27681    2   END INVALID_SD_CLAUSES;
     2449    27682        %EJECT;
PL6.E3A0      #001=Z8EM$SEMANTICS_DATA_DIV File=Z8EM.:Z8A6TSI                    SAT 08/09/97 12:08 Page:92
     2450    27683        /*===========*/
     2451    27684    1     LEVEL_CHECK: PROC (LEVEL_NO$, LARGE$);
     2452    27685        /*===========*/
     2453    27686
     2454    27687               %EQU LEVEL_66 = 66;
     2455    27688               %EQU LEVEL_66_TEXT = '66';
     2456    27689               %EQU LEVEL_66_LENGTH = 2 ;
     2457    27690
     2458    27691    2          DCL LEVEL_NO$        PTR;
     2459    27692    2          DCL LARGE$           PTR;
     2460    27693    2          DCL LEVEL#           SBIN WORD;
     2461    27694    2          DCL DNT$$            PTR;
     2462    27695
     2463    27696
     2464    27697    2          IF LARGE$ -> LX_LARGE.LARGE_ITEM$ ->
     2465    27698    2                       LX_REC_DECL.P.RENAMES$ ~= ADDR(NIL)  THEN
     2466    27699    3            DO;
     2467    27700    3              CALL CHARBIN(LEVEL#,LEVEL_NO$ -> LX_TERMINAL.DNT$ -> DNT.TEXT.NAME);
     2468    27701    3              IF LEVEL# ~= %LEVEL_66 THEN
     2469    27702    4                DO;
     2470    27703    4                  CALL Z8AE$ERROR (%E$ONLY_66_IN_RENAMES,
     2471    27704    4                                   LEVEL_NO$ -> LX_TERMINAL.LINE,
     2472    27705    4                                   LEVEL_NO$ -> LX_TERMINAL.COLUMN);
     2473    27706    4                  CALL Z8AH$NEW_DNT(%LEVEL_66_TEXT,
     2474    27707    4                                    %LEVEL_66_LENGTH,
     2475    27708    4                                    DNT$$);
     2476    27709    4                  LEVEL_NO$ -> LX_ITEM.DNT$ = DNT$$;
     2477    27710    4                END;
     2478    27711    3            END; /* THERE IS A RENAMES - IF */
     2479    27712    2        RETURN;
     2480    27713    2      END LEVEL_CHECK;
     2481    27714
     2482    27715        %EJECT;
PL6.E3A0      #001=Z8EM$SEMANTICS_DATA_DIV File=Z8EM.:Z8A6TSI                    SAT 08/09/97 12:08 Page:93
     2483    27716        /*============*/
     2484    27717    1     LIT_THRU_LIT: PROC (LIT_THRU_LIST$, ITEM_ST$$, NEXT_SEQ#);
     2485    27718        /*============*/
     2486    27719
     2487    27720    2   DCL LIT_THRU_LIST$     PTR;
     2488    27721    2   DCL ITEM_ST$$             PTR;
     2489    27722    2   DCL NEXT_SEQ#          UBIN WORD;
     2490    27723    2   DCL DNT$$              PTR;
     2491    27724
     2492    27725    2   DCL ITEM$              PTR;
     2493    27726    2   DCL I                  SBIN WORD;
     2494    27727    2   DCL START_VALUE        SBIN WORD;
     2495    27728    2   DCL END_VALUE          SBIN WORD;
     2496    27729
     2497    27730
     2498    27731    2      ITEM$ = LIT_THRU_LIST$ -> LX_LIST.HEAD$;
     2499    27732
     2500    27733           %CHECK_FOR_GTR_1_CHAR (@TERMINAL$ = ITEM$, @NEW_DNT$ = DNT$$);
     2501    27746
     2502    27747           %GET_VALUE (@TERMINAL$ = ITEM$,
     2503    27748                       @DNT$     = DNT$$,
     2504    27749                       @VALUE     = START_VALUE);
     2505    27774
     2506    27775           %CHECK_FOR_GTR_1_CHAR (@TERMINAL$ = ITEM$ -> LX_TERMINAL.LINK,
     2507    27776                                   @NEW_DNT$  = DNT$$);
     2508    27789
     2509    27790           %GET_VALUE (@TERMINAL$ = ITEM$ -> LX_TERMINAL.LINK,
     2510    27791                       @DNT$     = DNT$$,
     2511    27792                       @VALUE    = END_VALUE);
     2512    27817
     2513    27818    2      IF START_VALUE = 512 OR END_VALUE = 512 THEN
     2514    27819    2        GOTO EXIT_LOOP;
     2515    27820
     2516    27821    2      IF START_VALUE < END_VALUE THEN
     2517    27822    3        DO I = START_VALUE TO END_VALUE;
     2518    27823    3          CALL ENTER_VALUE (ITEM$, ITEM_ST$$, I, NEXT_SEQ#) ALTRET (EXIT_LOOP);
     2519    27824    3        END;
PL6.E3A0      #001=Z8EM$SEMANTICS_DATA_DIV File=Z8EM.:Z8A6TSI                    SAT 08/09/97 12:08 Page:94
     2520    27825    2      ELSE
     2521    27826    3        DO I = START_VALUE DOWNTO END_VALUE;
     2522    27827    3          CALL ENTER_VALUE (ITEM$, ITEM_ST$$, I, NEXT_SEQ#) ALTRET (EXIT_LOOP);
     2523    27828    3        END;
     2524    27829
     2525    27830    2     EXIT_LOOP:
     2526    27831    2       RETURN;
     2527    27832    2   END LIT_THRU_LIT;
     2528    27833        %EJECT;
PL6.E3A0      #001=Z8EM$SEMANTICS_DATA_DIV File=Z8EM.:Z8A6TSI                    SAT 08/09/97 12:08 Page:95
     2529    27834        /*===============*/
     2530    27835    1     MNEMONIC_ASSIGN: PROC (MNEMONIC_SYMBOL, MNEMONIC_NAME$);
     2531    27836        /*===============*/
     2532    27837
     2533    27838    2   DCL MNEMONIC_SYMBOL    SBIN WORD;
     2534    27839    2   DCL MNEMONIC_NAME$     PTR;
     2535    27840
     2536    27841    2   DCL MNEMONIC$$         PTR;
     2537    27842
     2538    27843    3      DO SELECT (MNEMONIC_NAME$ -> LX_TERMINAL.SYMBOL);
     2539    27844    3        SELECT (%RSV_WRD_SYSOUT, %RSV_WRD_SYSIN,
     2540    27845    3              %RSV_WRD_CONSOLE, %RSV_WRD_PAGE);
     2541    27846    3          /* No changes necessary */;
     2542    27847
     2543    27848    3        SELECT (%NAME, %NAME_OR_PARA);
     2544    27849               %NEW_MNEMONIC (@ST$      = MNEMONIC$$,
     2545    27850                              @MNEMONIC_NAME = TRUE,
     2546    27851                              @NAME     = MNEMONIC_SYMBOL,
     2547    27852                              @LINE_NO  = MNEMONIC_NAME$ -> LX_ITEM.LINE,
     2548    27853                              @DNT$     = MNEMONIC_NAME$ -> LX_ITEM.DNT$,
     2549    27854                              @NEXT     = MNEMONIC_NAME$ -> LX_ITEM.DNT$ -> DNT.ST$);
     2550    27931
     2551    27932    3          MNEMONIC_NAME$ -> LX_ITEM.DNT$ -> DNT.ST$ = MNEMONIC$$;
     2552    27933
     2553    27934               %NEW_QLT (@POINTER = MNEMONIC$$ -> MNEMONIC.QLT$,
     2554    27935                         @ST$     = MNEMONIC$$,
     2555    27936                         @DNT$    = MNEMONIC$$ -> MNEMONIC.DNT$,
     2556    27937                         @LEVEL#  = 01);
     2557    27962
     2558    27963               %UPDATE_PREV_QLT$ (@NEW_QLT$ = MNEMONIC$$ -> MNEMONIC.QLT$);
     2559    27970
     2560    27971               %ADD_XREF (SYM   = MNEMONIC$$,
     2561    27972                          ISN   = MNEMONIC_NAME$ -> LX_ITEM.LINE,
     2562    27973                          TYPE  = %XREF_DCL);
     2563    27991
     2564    27992    3        SELECT (ELSE);
     2565    27993    3          CALL Z8AE$ERROR (%E$UNEXPECTED_CASE,
PL6.E3A0      #001=Z8EM$SEMANTICS_DATA_DIV File=Z8EM.:Z8A6TSI                    SAT 08/09/97 12:08 Page:96
     2566    27994    3                           MNEMONIC_NAME$ -> LX_ITEM.LINE,
     2567    27995    3                           MNEMONIC_NAME$ -> LX_ITEM.COLUMN);
     2568    27996    3      END; /* Case */
     2569    27997
     2570    27998    2   END MNEMONIC_ASSIGN;
     2571    27999        %EJECT;
PL6.E3A0      #001=Z8EM$SEMANTICS_DATA_DIV File=Z8EM.:Z8A6TSI                    SAT 08/09/97 12:08 Page:97
     2572    28000        /*==================*/
     2573    28001    1     MULTIPLE_FILE_TAPE: PROC (FILE_LIST$);
     2574    28002        /*==================*/
     2575    28003
     2576    28004    2        DCL FILE_LIST$           PTR;
     2577    28005
     2578    28006    2        DCL LIST$                PTR;
     2579    28007    2        DCL FD$$                 PTR;
     2580    28008    2        DCL LAST$                PTR;
     2581    28009    2        DCL HEAD$                PTR;
     2582    28010    2        DCL LTS$$                PTR;
     2583    28011
     2584    28012
     2585    28013
     2586    28014    2        LAST$ = ADDR(NIL);
     2587    28015    2        HEAD$ = ADDR(NIL);
     2588    28016    2        LIST$ = FILE_LIST$ -> LX_LIST.HEAD$;
     2589    28017
     2590    28018    3        DO WHILE (LIST$ ~= ADDR(NIL));
     2591    28019    3          CALL Z8DO$QUALIFY_TERMINAL (LIST$ -> LX_LIST.HEAD$, FD$$)
     2592    28020    3            WHENALTRETURN
     2593    28021    4              DO;
     2594    28022    4                GOTO NEXT_FILE;
     2595    28023    4              END;
     2596    28024
     2597    28025    4          IF FD$$ -> FD.ID ~= %FD THEN DO;
     2598    28026                 /* This can't be a multiple file tape. It isn't a file. */
     2599    28027                 %CONDITIONAL_ERROR (@LX_ITEM$ = LIST$ -> LX_LIST.HEAD$,
     2600    28028                                     @ERROR# = %E$FILE_TYPE_EXPECTED,
     2601    28029                                     @PLUG1 = "DNT$_FROM_RSWNO(%RSV_WRD_FD)");
     2602    28059    4            GOTO NEXT_FILE;
     2603    28060    4          END;
     2604    28061
     2605    28062               %GET_LTS (@ID       = %FILE_LTS,
     2606    28063                         @ST$      = FD$$,
     2607    28064                         @RETURN$  = LTS$$);
     2608    28107    3          IF LTS$$ -> FILE_LTS.B.MULTIPLE_FILE_TAPE THEN
PL6.E3A0      #001=Z8EM$SEMANTICS_DATA_DIV File=Z8EM.:Z8A6TSI                    SAT 08/09/97 12:08 Page:98
     2609    28108    4            DO;
     2610    28109                   %CONDITIONAL_ERROR (@LX_ITEM$ = LIST$ -> LX_LIST.HEAD$,
     2611    28110                     @ERROR# = %E$DUP_DD_CLAUSE,
     2612    28111                     @LINE   = LIST$ -> LX_LIST.HEAD$ -> LX_ITEM.LINE,
     2613    28112                     @COLUMN = LIST$ -> LX_LIST.HEAD$ -> LX_ITEM.COLUMN,
     2614    28113                     @PLUG1  = "DNT$_FROM_RSWNO(%RSV_WRD_TAPE)");
     2615    28143
     2616    28144    4              GOTO NEXT_FILE;
     2617    28145    4            END;
     2618    28146
     2619    28147    3          CALL Z9EM$TAPE_CHECK (LIST$ -> LX_LIST.HEAD$,
     2620    28148    3                                LTS$$)
     2621    28149    3            WHENALTRETURN
     2622    28150    4              DO;
     2623    28151    4                GOTO NEXT_FILE;
     2624    28152    4              END;
     2625    28153
     2626    28154    3          IF HEAD$ = ADDR(NIL) THEN
     2627    28155    4            DO;
     2628    28156    4              LAST$ = LTS$$;
     2629    28157    4              HEAD$ = LTS$$;
     2630    28158    4            END;
     2631    28159    3          ELSE
     2632    28160    4            DO;
     2633    28161    4              LTS$$ -> FILE_LTS.MULT_TAPE.HEAD$ = HEAD$;
     2634    28162    4              LAST$ -> FILE_LTS.MULT_TAPE.LINK = LTS$$;
     2635    28163    4              LAST$ = LTS$$;
     2636    28164    4            END;
     2637    28165
     2638    28166    3          IF LIST$ -> LX_LIST.COUNT = 2 THEN
     2639    28167    3            CALL CHARBIN (LTS$$ -> FILE_LTS.POSITION,
     2640    28168    3                          LIST$ -> LX_LIST.TAIL$ -> LX_ITEM.DNT$ -> DNT.TEXT.NAME);
     2641    28169
     2642    28170    3          LTS$$ -> FILE_LTS.B.MULTIPLE_FILE_TAPE = TRUE;
     2643    28171
     2644    28172    3   NEXT_FILE:
     2645    28173    3          LIST$ = LIST$ -> LX_LIST.LINK;
PL6.E3A0      #001=Z8EM$SEMANTICS_DATA_DIV File=Z8EM.:Z8A6TSI                    SAT 08/09/97 12:08 Page:99
     2646    28174    3        END; /* While */
     2647    28175
     2648    28176    2        CALL Z8ED$DISPOSE_ABSSYN_TREE (FILE_LIST$ -> LX_LIST.HEAD$);
     2649    28177
     2650    28178    2   END MULTIPLE_FILE_TAPE;
     2651    28179        %EJECT;
PL6.E3A0      #001=Z8EM$SEMANTICS_DATA_DIV File=Z8EM.:Z8A6TSI                    SAT 08/09/97 12:08 Page:100
     2652    28180
     2653    28181         /*================*/
     2654    28182    1      NEW_AFTER_AREA:  PROC (ST$$, REPORT$);
     2655    28183         /*================*/
     2656    28184
     2657    28185           %EQU AFTER_AREA_TEXT = 'AFTER_AREA';
     2658    28186           %EQU AFTER_AREA_LENGTH = 10;
     2659    28187
     2660    28188
     2661    28189    2     DCL ST$$         PTR;  /* Pointer to <report name> st item */
     2662    28190    2     DCL REPORT$      PTR;
     2663    28191    2     DCL AREA$        PTR;
     2664    28192
     2665    28193
     2666    28194
     2667    28195    2       LEX_SYMBOL.SIZE = %AFTER_AREA_LENGTH;
     2668    28196    2       SUBSTR (LEX_SYMBOL.SYMBOL,
     2669    28197    2               0,
     2670    28198    2               %AFTER_AREA_LENGTH) = %AFTER_AREA_TEXT;
     2671    28199
     2672    28200    2       CALL Z8AH$SEARCH_;
     2673    28201
     2674    28202
     2675    28203            %NEW_SCALAR ( @ST$        = AREA$,
     2676    28204                          @LINE_NO    = REPORT$ -> LX_ITEM.LINE,
     2677    28205                          @DNT$       = DNT$,
     2678    28206                          @NEXT       = DNT$ -> DNT.ST$,
     2679    28207                          @TYPE       = %TYI,
     2680    28208                          @ELEMENTARY = TRUE,
     2681    28209                          @REPORT_ITEM = TRUE,
     2682    28210                          @COMPILER_CREATED = TRUE,
     2683    28211                          @CLASS      = %CLASS_NUMERIC);
     2684    28411
     2685    28412    2       AREA$ -> ST.NDSC.N = %TYI_LENGTH;
     2686    28413    2       DNT$ -> DNT.ST$ = AREA$;
     2687    28414    2       ST$$ -> RD.LTS$ -> REPORT_LTS.AFTER_ADVANCE$ = AREA$;
     2688    28415
PL6.E3A0      #001=Z8EM$SEMANTICS_DATA_DIV File=Z8EM.:Z8A6TSI                    SAT 08/09/97 12:08 Page:101
     2689    28416            %NEW_QLT (@POINTER    = AREA$ -> SCALAR.QLT$,
     2690    28417                      @LEVEL#     = 1,
     2691    28418                      @FATHER     = ST$$ -> RD.QLT$,
     2692    28419                      @ST$        = AREA$,
     2693    28420                      @DNT$       = DNT$);
     2694    28445
     2695    28446    2       ST$$ -> RD.QLT$ -> QLT.SON -> QLT.BROTHER -> QLT.BROTHER =
     2696    28447    2                                     AREA$ -> SCALAR.QLT$;
     2697    28448
     2698    28449    2     END NEW_AFTER_AREA;
     2699    28450          %EJECT;
PL6.E3A0      #001=Z8EM$SEMANTICS_DATA_DIV File=Z8EM.:Z8A6TSI                    SAT 08/09/97 12:08 Page:102
     2700    28451        /*============*/
     2701    28452    1     NEW_ALPHABET: PROC (ALPHA_NAME$, RETURN_ST$);
     2702    28453        /*============*/
     2703    28454
     2704    28455    2   DCL ALPHA_NAME$        PTR;
     2705    28456    2   DCL RETURN_ST$         PTR;
     2706    28457
     2707    28458    2   DCL CONST$             PTR;
     2708    28459    2   DCL TABLE$             PTR;
     2709    28460
     2710    28461
     2711    28462        /*N* What about when alphabet is ASCII or EBCDIC or JIS */
     2712    28463
     2713    28464           %NEW_ALPHABET (@ST$   = RETURN_ST$,
     2714    28465                          @LINE_NO = ALPHA_NAME$ -> LX_TERMINAL.LINE,
     2715    28466                          @CODE    = %USER_DEFINED,
     2716    28467                          @SET_LOW_VALUE = TRUE,
     2717    28468                          @DNT$    = ALPHA_NAME$ -> LX_TERMINAL.DNT$,
     2718    28469                          @NEXT    = ALPHA_NAME$ -> LX_TERMINAL.DNT$ -> DNT.ST$);
     2719    28543
     2720    28544    2      ALPHA_NAME$ -> LX_TERMINAL.DNT$ -> DNT.ST$ = RETURN_ST$;
     2721    28545
     2722    28546           %ADD_XREF (SYM   = RETURN_ST$,
     2723    28547                      ISN   = ALPHA_NAME$ -> LX_ITEM.LINE,
     2724    28548                      TYPE  = %XREF_DCL);
     2725    28566
     2726    28567    2      CALL DCL_CONST_TABLE (CONST$);
     2727    28568
     2728    28569    2      RETURN_ST$ -> ALPHABET.TABLE$ = PINCRW (CONST$ -> CONST.CONST$.PTR$, 1);
     2729    28570
     2730    28571    2      CALL Z8AF$FORME (%TRIAD, CONST$, ADDR(NIL), CONST$);
     2731    28572
     2732    28573    2      RETURN_ST$ -> ALPHABET.TABLE_ETT$ = CONST$;
     2733    28574
     2734    28575    2   END NEW_ALPHABET;
     2735    28576        %EJECT;
PL6.E3A0      #001=Z8EM$SEMANTICS_DATA_DIV File=Z8EM.:Z8A6TSI                    SAT 08/09/97 12:08 Page:103
     2736    28577        /*========*/
     2737    28578    1     NEW_FILE: PROC (FILE$, FD$$);
     2738    28579        /*========*/
     2739    28580
     2740    28581
     2741    28582             %EQU INFO_RECORD_TEXT   = 'INFO_RECORD#';
     2742    28583             %EQU INFO_RECORD_LENGTH = 12;
     2743    28584
     2744    28585
     2745    28586
     2746    28587    2        DCL FILE$         PTR;
     2747    28588    2        DCL VFC$          PTR;
     2748    28589    2        DCL FD$$          PTR;
     2749    28590    2        DCL FILE_DNT$     PTR;
     2750    28591    2        DCL INFO$         PTR;
     2751    28592
     2752    28593
     2753    28594    2        FILE_DNT$ = FILE$ -> LX_TERMINAL.DNT$;
     2754    28595
     2755    28596             /*N* This is a KLUDGE as far as I am concerned,
     2756    28597                  but I do what I'm told so here it is.
     2757    28598             */
     2758    28599    2        CALL Z8AT$CREATE_TEMPORARY (%SCALAR, VFC$);
     2759    28600    2        VFC$ -> SCALAR.TYPE = %TYA;
     2760    28601    2        VFC$ -> SCALAR.ADSC.N = 8;
     2761    28602    2        VFC$ -> SCALAR.B.CLASS = %CLASS_ALPHANUMERIC;
     2762    28603             /*N* End of KLUDGE for 2 words before FILE BUFFER */
     2763    28604
     2764    28605             /* When the current DNT.ST$ is created by Z8CO$QUALIFY_VARIABLE */
     2765    28606             /* this ST item should be delinked from the ST list.            */
     2766    28607    2        IF FILE_DNT$ -> DNT.ST$ ~= ADDR (NIL) AND
     2767    28608    2           FILE_DNT$ -> DNT.ST$ -> FD.B.COMPILER_CREATED  THEN
     2768    28609    2             FILE_DNT$ -> DNT.ST$ = FILE_DNT$ -> DNT.ST$ -> FD.NEXT;
     2769    28610
     2770    28611             %NEW_FD  (@ST$        = FD$$,
     2771    28612                       @DNT$       = FILE_DNT$,
     2772    28613                       @TYPE       = %TYA,
PL6.E3A0      #001=Z8EM$SEMANTICS_DATA_DIV File=Z8EM.:Z8A6TSI                    SAT 08/09/97 12:08 Page:104
     2773    28614                       @LINE_NO    = FILE$ -> LX_TERMINAL.LINE,
     2774    28615                       @NEXT       = FILE_DNT$ -> DNT.ST$,
     2775    28616                       @CLASS      = %CLASS_ALPHANUMERIC);
     2776    28809
     2777    28810    2        FILE_DNT$ -> DNT.ST$ = FD$$;
     2778    28811
     2779    28812             %NEW_QLT (@POINTER    = FD$$ -> FD.QLT$,
     2780    28813                       @ST$        = FD$$,
     2781    28814                       @DNT$       = FILE_DNT$,
     2782    28815                       @LEVEL#     = 0);
     2783    28840
     2784    28841             %UPDATE_PREV_QLT$ (@NEW_QLT$ = FD$$ -> FD.QLT$);
     2785    28848
     2786    28849             %ADD_XREF (SYM  = FD$$,
     2787    28850                        ISN  = FILE$ -> LX_TERMINAL.LINE,
     2788    28851                        TYPE = %XREF_DCL);
     2789    28869
     2790    28870             %NEW_FILE_LTS (@POINTER  = FD$$ -> FD.LTS$,
     2791    28871                            @ST$      = FD$$);
     2792    29095
     2793    29096    2        FD$$ -> FD.LTS$ -> FILE_LTS.FILE_LTS_CHAIN$ = COMCOM.FILE_LTS_CHAIN$;
     2794    29097    2        COMCOM.FILE_LTS_CHAIN$ = FD$$ -> FD.LTS$;
     2795    29098
     2796    29099             /* Next a son to the FD is created to hold the length of
     2797    29100                the record descriptions.  This is done to allow a
     2798    29101                linage-counter variable to be qualified by the file.
     2799    29102                The structure is as follows:
     2800    29103
     2801    29104                   01 FD_VAR.
     2802    29105                     02 LENGTH_NO_LINAGE_GUY PIC X.
     2803    29106                     02 FIRST_01_RECORD_DESC PIC X(WHAT_EVER).
     2804    29107                     02 SECOND_01_RECORD_DESC PIC X(WHAT_EVER).
     2805    29108                         . . .
     2806    29109                     02 LAST_01_RECORD_DESC PIC X(WHAT_EVER).
     2807    29110                     02 LINAGE-COUNTER PIC X(4). { Optional }
     2808    29111
     2809    29112             */
PL6.E3A0      #001=Z8EM$SEMANTICS_DATA_DIV File=Z8EM.:Z8A6TSI                    SAT 08/09/97 12:08 Page:105
     2810    29113
     2811    29114    2        LEX_SYMBOL.SIZE = %INFO_RECORD_LENGTH;
     2812    29115    2        SUBSTR (LEX_SYMBOL.SYMBOL,
     2813    29116    2                0,
     2814    29117    2                %INFO_RECORD_LENGTH) = %INFO_RECORD_TEXT;
     2815    29118
     2816    29119    2        CALL Z8AH$SEARCH_;
     2817    29120
     2818    29121             %NEW_SCALAR (@ST$   = INFO$,
     2819    29122                          @TYPE  = %TYA,
     2820    29123                          @DNT$  = DNT$,
     2821    29124                          @NEXT  = DNT$ -> DNT.ST$,
     2822    29125                          @CLASS = %CLASS_ALPHANUMERIC,
     2823    29126                          @REDEF_OBJ  = TRUE,
     2824    29127                          @ELEMENTARY = TRUE);
     2825    29327
     2826    29328    2        INFO$ -> ST.ADSC.N = 1;
     2827    29329
     2828    29330    2        DNT$ -> DNT.ST$ = INFO$;
     2829    29331
     2830    29332             %NEW_QLT (@POINTER = INFO$ -> SCALAR.QLT$,
     2831    29333                       @LEVEL#  = 2,
     2832    29334                       @FATHER  = FD$$ -> FD.QLT$,
     2833    29335                       @DNT$    = DNT$,
     2834    29336                       @ST$     = INFO$);
     2835    29361
     2836    29362    2        FD$$ -> FD.QLT$ -> QLT.SON = INFO$ -> SCALAR.QLT$;
     2837    29363
     2838    29364    2   END NEW_FILE;
     2839    29365        %EJECT;
PL6.E3A0      #001=Z8EM$SEMANTICS_DATA_DIV File=Z8EM.:Z8A6TSI                    SAT 08/09/97 12:08 Page:106
     2840    29366
     2841    29367         /*================*/
     2842    29368    1      NEW_LINE_COUNTER:  PROC (ST$$, REPORT$);
     2843    29369         /*================*/
     2844    29370
     2845    29371           %EQU LINE_COUNTER_TEXT = 'LINE-COUNTER';
     2846    29372           %EQU LINE_COUNTER_LENGTH = 12;
     2847    29373
     2848    29374
     2849    29375    2     DCL ST$$         PTR;  /* Pointer to <report name> st item */
     2850    29376    2     DCL REPORT$      PTR;
     2851    29377    2     DCL LINE$        PTR;
     2852    29378
     2853    29379
     2854    29380
     2855    29381    2       LEX_SYMBOL.SIZE = %LINE_COUNTER_LENGTH;
     2856    29382    2       SUBSTR (LEX_SYMBOL.SYMBOL,
     2857    29383    2               0,
     2858    29384    2               %LINE_COUNTER_LENGTH) = %LINE_COUNTER_TEXT;
     2859    29385
     2860    29386    2       CALL Z8AH$SEARCH_;
     2861    29387
     2862    29388    2       DNT$ -> DNT.B.REP_COUNTER = TRUE;
     2863    29389
     2864    29390            %NEW_SCALAR ( @ST$        = LINE$,
     2865    29391                          @LINE_NO    = REPORT$ -> LX_ITEM.LINE,
     2866    29392                          @DNT$       = DNT$,
     2867    29393                          @NEXT       = DNT$ -> DNT.ST$,
     2868    29394                          @TYPE       = %TYI,
     2869    29395                          @ELEMENTARY = TRUE,
     2870    29396                          @REPORT_ITEM = TRUE,
     2871    29397                          @COMPILER_CREATED = TRUE,
     2872    29398                          @CLASS      = %CLASS_NUMERIC);
     2873    29598
     2874    29599    2       LINE$ -> ST.NDSC.N = %TYI_LENGTH;
     2875    29600    2       DNT$ -> DNT.ST$ = LINE$;
     2876    29601    2       ST$$ -> RD.LTS$ -> REPORT_LTS.LINE_COUNTER$ = LINE$;
PL6.E3A0      #001=Z8EM$SEMANTICS_DATA_DIV File=Z8EM.:Z8A6TSI                    SAT 08/09/97 12:08 Page:107
     2877    29602
     2878    29603            %NEW_QLT (@POINTER    = LINE$ -> SCALAR.QLT$,
     2879    29604                      @LEVEL#     = 1,
     2880    29605                      @FATHER     = ST$$ -> RD.QLT$,
     2881    29606                      @ST$        = LINE$,
     2882    29607                      @DNT$       = DNT$);
     2883    29632
     2884    29633    2       ST$$ -> RD.QLT$ -> QLT.SON -> QLT.BROTHER = LINE$ -> SCALAR.QLT$;
     2885    29634
     2886    29635    2     END NEW_LINE_COUNTER;
     2887    29636          %EJECT;
PL6.E3A0      #001=Z8EM$SEMANTICS_DATA_DIV File=Z8EM.:Z8A6TSI                    SAT 08/09/97 12:08 Page:108
     2888    29637        /*==================*/
     2889    29638    1     NEW_LINAGE_COUNTER: PROC (LTS$$);
     2890    29639        /*==================*/
     2891    29640
     2892    29641
     2893    29642             %EQU LINAGE_COUNTER_TEXT   = 'LINAGE-COUNTER';
     2894    29643             %EQU LINAGE_COUNTER_LENGTH = 14;
     2895    29644
     2896    29645
     2897    29646    2        DCL LTS$$         PTR;
     2898    29647    2        DCL LINAGE$       PTR;
     2899    29648    2        DCL BRO$          PTR;
     2900    29649
     2901    29650
     2902    29651    2        IF LTS$$ -> FILE_LTS.LINAGE.NO_OF_LINES$ = ADDR(NIL) THEN
     2903    29652    2          RETURN;
     2904    29653
     2905    29654    2        BRO$ = LTS$$ -> FILE_LTS.ST$ -> FD.QLT$ -> QLT.SON;
     2906    29655
     2907    29656    3        DO WHILE (BRO$ -> QLT.BROTHER ~= ADDR(NIL));
     2908    29657    3          BRO$ = BRO$ -> QLT.BROTHER;
     2909    29658    3        END; /* While */
     2910    29659
     2911    29660    2        LEX_SYMBOL.SIZE = %LINAGE_COUNTER_LENGTH;
     2912    29661    2        SUBSTR (LEX_SYMBOL.SYMBOL,
     2913    29662    2                0,
     2914    29663    2                %LINAGE_COUNTER_LENGTH) = %LINAGE_COUNTER_TEXT;
     2915    29664
     2916    29665    2        CALL Z8AH$SEARCH_;
     2917    29666
     2918    29667             %NEW_SCALAR (@ST$        = LINAGE$,
     2919    29668                          @LINE_NO    = LTS$$ -> FILE_LTS.ST$ -> ST.LINE_NO,
     2920    29669                          @DNT$       = DNT$,
     2921    29670                          @NEXT       = DNT$ -> DNT.ST$,
     2922    29671                          @TYPE       = %TYI,
     2923    29672                          @ELEMENTARY = TRUE,
     2924    29673                          @COMPILER_CREATED = TRUE,
PL6.E3A0      #001=Z8EM$SEMANTICS_DATA_DIV File=Z8EM.:Z8A6TSI                    SAT 08/09/97 12:08 Page:109
     2925    29674                          @CLASS      = %CLASS_NUMERIC);
     2926    29874
     2927    29875    2        LINAGE$ -> ST.NDSC.N = %TYI_LENGTH;
     2928    29876
     2929    29877    2        DNT$ -> DNT.ST$ = LINAGE$;
     2930    29878    2        LTS$$ -> FILE_LTS.LINAGE_COUNTER$ = LINAGE$;
     2931    29879
     2932    29880             %NEW_QLT (@POINTER = LINAGE$ -> SCALAR.QLT$,
     2933    29881                       @LEVEL#  = 1,
     2934    29882                       @FATHER  = BRO$ -> QLT.FATHER,
     2935    29883                       @ST$     = LINAGE$,
     2936    29884                       @DNT$    = DNT$);
     2937    29909
     2938    29910    2        BRO$ -> QLT.BROTHER = LINAGE$ -> SCALAR.QLT$;
     2939    29911
     2940    29912    2   END NEW_LINAGE_COUNTER;
     2941    29913        %EJECT;
PL6.E3A0      #001=Z8EM$SEMANTICS_DATA_DIV File=Z8EM.:Z8A6TSI                    SAT 08/09/97 12:08 Page:110
     2942    29914
     2943    29915         /*================*/
     2944    29916    1      NEW_PAGE_COUNTER:  PROC (ST$$, REPORT$);
     2945    29917         /*================*/
     2946    29918
     2947    29919           %EQU PAGE_COUNTER_TEXT = 'PAGE-COUNTER';
     2948    29920           %EQU PAGE_COUNTER_LENGTH = 12;
     2949    29921
     2950    29922
     2951    29923    2     DCL ST$$         PTR;  /* Pointer to <report name> st item */
     2952    29924    2     DCL REPORT$      PTR;
     2953    29925    2     DCL PAGE$        PTR;
     2954    29926
     2955    29927
     2956    29928
     2957    29929    2       LEX_SYMBOL.SIZE = %PAGE_COUNTER_LENGTH;
     2958    29930    2       SUBSTR (LEX_SYMBOL.SYMBOL,
     2959    29931    2               0,
     2960    29932    2               %PAGE_COUNTER_LENGTH) = %PAGE_COUNTER_TEXT;
     2961    29933
     2962    29934    2       CALL Z8AH$SEARCH_;
     2963    29935
     2964    29936    2       DNT$ -> DNT.B.REP_COUNTER = TRUE;
     2965    29937
     2966    29938            %NEW_SCALAR ( @ST$        = PAGE$,
     2967    29939                          @LINE_NO    = REPORT$ -> LX_ITEM.LINE,
     2968    29940                          @DNT$       = DNT$,
     2969    29941                          @NEXT       = DNT$ -> DNT.ST$,
     2970    29942                          @TYPE       = %TYI,
     2971    29943                          @ELEMENTARY = TRUE,
     2972    29944                          @REPORT_ITEM = TRUE,
     2973    29945                          @COMPILER_CREATED = TRUE,
     2974    29946                          @CLASS      = %CLASS_NUMERIC);
     2975    30146
     2976    30147    2       PAGE$ -> ST.NDSC.N = %TYI_LENGTH;
     2977    30148    2       DNT$ -> DNT.ST$ = PAGE$;
     2978    30149    2       ST$$ -> RD.LTS$ -> REPORT_LTS.PAGE_COUNTER$ = PAGE$;
PL6.E3A0      #001=Z8EM$SEMANTICS_DATA_DIV File=Z8EM.:Z8A6TSI                    SAT 08/09/97 12:08 Page:111
     2979    30150
     2980    30151            %NEW_QLT (@POINTER    = PAGE$ -> SCALAR.QLT$,
     2981    30152                      @LEVEL#     = 1,
     2982    30153                      @FATHER     = ST$$ -> RD.QLT$,
     2983    30154                      @ST$        = PAGE$,
     2984    30155                      @DNT$       = DNT$);
     2985    30180
     2986    30181    2       ST$$ -> RD.QLT$ -> QLT.SON = PAGE$ -> SCALAR.QLT$;
     2987    30182
     2988    30183    2     END NEW_PAGE_COUNTER;
     2989    30184          %EJECT;
PL6.E3A0      #001=Z8EM$SEMANTICS_DATA_DIV File=Z8EM.:Z8A6TSI                    SAT 08/09/97 12:08 Page:112
     2990    30185        /*========*/
     2991    30186    1     NEW_PROC: PROC (NAME$, COM_INIT$);
     2992    30187        /*========*/
     2993    30188
     2994    30189
     2995    30190    2        DCL NAME$         PTR;
     2996    30191    2        DCL COM_INIT$     PTR;
     2997    30192    2        DCL SON$          PTR;
     2998    30193    2        DCL BRO$          PTR;
     2999    30194    2        DCL PROC$         PTR;
     3000    30195    2        DCL ARRAY$        PTR;
     3001    30196
     3002    30197
     3003    30198
     3004    30199    2        IF O1COM.CURRENT_PROC$ = ADDR(NIL) THEN
     3005    30200    3          DO;
     3006    30201                 /* MAIN PROCEDURE */
     3007    30202                                                      /*#30017*/
     3008    30203    3            O1COM.PROG_ID_DNT$ = NAME$ -> LX_TERMINAL.DNT$;
     3009    30204    3            IF COMCOM.FIRST_PROC$ = ADDR(NIL)   THEN
     3010    30205    4              DO;
     3011    30206    4                CALL Z8EI$INIT_PROGRAM;
     3012    30207    4                IF NAME$ -> LX_ITEM.B.ERROR   THEN
     3013    30208    5                  DO;
     3014    30209    5                    O1COM.PROG_ID_DNT$ -> DNT.TEXT.LENGTH = 13;
     3015    30210    5                    O1COM.PROG_ID_DNT$ -> DNT.TEXT.NAME = 'NO-PROGRAM-ID';
     3016    30211    5                  END;
     3017    30212
     3018    30213    4              END;
     3019    30214                                                      /*#30017*/
     3020    30215
     3021    30216                 %NEW_SYMDEF_ (@DNT$ = O1COM.PROG_ID_DNT$,
     3022    30217                               @ST$  = P$);
     3023    30289
     3024    30290
     3025    30291                 %NEW_PROC_ (@ST$      = PROC$,
     3026    30292                             @LEVEL     = 1,
PL6.E3A0      #001=Z8EM$SEMANTICS_DATA_DIV File=Z8EM.:Z8A6TSI                    SAT 08/09/97 12:08 Page:113
     3027    30293                             @LINE_START = NAME$ -> LX_TERMINAL.LINE,
     3028    30294                             @PROC_DEF$ = P$);
     3029    30351
     3030    30352    3            P$ -> SYMDEF_.PROC$ = PROC$;
     3031    30353
     3032    30354                 %NEW_PROC_SUPP (@POINTER = PROC$ -> PROC_.PROC_SUPP$);
     3033    30485
     3034    30486    3            O1COM.SEG_LIMIT = %MAX_FIXED_SEG# + 1;
     3035    30487
     3036    30488                 /* If a consecutive program file exists, then link
     3037    30489                    this program as the last prog brother */
     3038    30490
     3039    30491    3            IF COMCOM.FIRST_PROC$ ~= ADDR(NIL) THEN
     3040    30492    4              DO;
     3041    30493    4                BRO$ = COMCOM.FIRST_PROC$;
     3042    30494
     3043    30495    5                DO WHILE (BRO$ -> PROC_.BROTHER ~= ADDR(NIL));
     3044    30496    5                  BRO$ = BRO$ -> PROC_.BROTHER;
     3045    30497    5                END; /* While */
     3046    30498
     3047    30499    4                BRO$ -> PROC_.BROTHER = PROC$;
     3048    30500    4              END;
     3049    30501    3            ELSE
     3050    30502    4              DO;
     3051    30503    4                COMCOM.FIRST_PROC$ = PROC$;
     3052    30504    4                COMCOM.OU_EXTERNAL_NAME$ = O1COM.PROG_ID_DNT$;
     3053    30505    4              END;
     3054    30506
     3055    30507    3            O1COM.CURRENT_PROC$ = PROC$;
     3056    30508    3          END;
     3057    30509    2        ELSE
     3058    30510    3          DO;
     3059    30511                 /* INTERNAL PROCEDURE */
     3060    30512
     3061    30513    3            IF COMCOM.OB.FIPS.LEVEL >= %INT_LEV THEN
     3062    30514    3              CALL Z8AE$ERROR (%E$LEVEL_CHECK,
     3063    30515    3                               O1COM.LX_STK.LINE(O1COM.LX_TOP - 8),
PL6.E3A0      #001=Z8EM$SEMANTICS_DATA_DIV File=Z8EM.:Z8A6TSI                    SAT 08/09/97 12:08 Page:114
     3064    30516    3                               O1COM.LX_STK.COLUMN(O1COM.LX_TOP - 8));
     3065    30517
     3066    30518                 %NEW_INTDEF (@DNT$ = NAME$ -> LX_TERMINAL.DNT$,
     3067    30519                              @NEXT = NAME$ -> LX_TERMINAL.DNT$ -> DNT.ST$,
     3068    30520                              @ST$  = P$);
     3069    30583
     3070    30584    3            NAME$ -> LX_TERMINAL.DNT$ -> DNT.ST$ = P$;
     3071    30585
     3072    30586                 %NEW_PROC_ (@ST$        = PROC$,
     3073    30587                             @LEVEL      = O1COM.CURRENT_PROC$ -> PROC_.LEVEL + 1,
     3074    30588                             @LINE_START = NAME$ -> LX_TERMINAL.LINE,
     3075    30589                             @PROC_DEF$  = P$,
     3076    30590                             @FATHER     = O1COM.CURRENT_PROC$);
     3077    30647
     3078    30648    3            P$ -> INTDEF.PROC$ = PROC$;
     3079    30649
     3080    30650                 %NEW_PROC_SUPP (@POINTER = PROC$ -> PROC_.PROC_SUPP$);
     3081    30781
     3082    30782    3            PROC$ -> PROC_.B.SUB_SCHEMA = O1COM.CURRENT_PROC$ ->
     3083    30783    3                                                PROC_.B.SUB_SCHEMA;
     3084    30784    3            PROC$ -> PROC_.B.INITIAL_RELATIVE = O1COM.CURRENT_PROC$ ->
     3085    30785    3                                                PROC_.B.INITIAL_RELATIVE;
     3086    30786
     3087    30787    3            CALL CHECK_FOR_DUP_PROC (P$, NAME$);
     3088    30788
     3089    30789    3            SON$ = O1COM.CURRENT_PROC$ -> PROC_.SON;
     3090    30790
     3091    30791    3            IF SON$ = ADDR(NIL) THEN
     3092    30792    4              DO;
     3093    30793    4                O1COM.CURRENT_PROC$ -> PROC_.SON = PROC$;
     3094    30794    4                O1COM.CURRENT_PROC$ = PROC$;
     3095    30795    4              END;
     3096    30796    3            ELSE
     3097    30797    4              DO;
     3098    30798    5                DO WHILE (SON$ -> PROC_.BROTHER ~= ADDR(NIL));
     3099    30799    5                  SON$ = SON$ -> PROC_.BROTHER;
     3100    30800    5                END; /* WHILE */
PL6.E3A0      #001=Z8EM$SEMANTICS_DATA_DIV File=Z8EM.:Z8A6TSI                    SAT 08/09/97 12:08 Page:115
     3101    30801
     3102    30802    4                SON$ -> PROC_.BROTHER = PROC$;
     3103    30803    4                O1COM.CURRENT_PROC$   = PROC$;
     3104    30804    4              END;
     3105    30805    3          END; /* if o1com.current_proc$ = addr(nil) */
     3106    30806
     3107    30807    2          IF O1COM.CURRENT_SEG_ARRAY$ = ADDR(NIL) THEN
     3108    30808    3            DO;
     3109    30809                   %NEW_LTS_PTR_ARRAY (@POINTER = ARRAY$,
     3110    30810                                       @SIZE = "%MAX_SEG# + 3");
     3111    30903
     3112    30904    4              DO I = 0 TO %MAX_SEG#;
     3113    30905    4                ARRAY$ -> LTS_PTR_ARRAY.P$(I) = ADDR(NIL);
     3114    30906    4              END;
     3115    30907
     3116    30908    3              O1COM.CURRENT_PROC$ -> PROC_.PROC_SUPP$ -> PROC_SUPP.SEG_ARRAY$ = ARRAY$;
     3117    30909    3              O1COM.CURRENT_SEG_ARRAY$ = ARRAY$;
     3118    30910    3            END;
     3119    30911    2          ELSE
     3120    30912    2            O1COM.CURRENT_PROC$ -> PROC_.PROC_SUPP$ ->
     3121    30913    2              PROC_SUPP.SEG_ARRAY$ = O1COM.CURRENT_SEG_ARRAY$;
     3122    30914
     3123    30915
     3124    30916    3        DO CASE (COM_INIT$ -> LX_ITEM.ID);
     3125    30917
     3126    30918    3          CASE (%LX_LIST);
     3127    30919    3            IF COMCOM.OB.FIPS.LEVEL >= %INT_LEV THEN
     3128    30920    3              CALL Z8AE$ERROR (%E$LEVEL_CHECK,
     3129    30921    3                               COM_INIT$ -> LX_LIST.HEAD$ -> LX_ITEM.LINE,
     3130    30922    3                               COM_INIT$ -> LX_LIST.HEAD$ -> LX_ITEM.COLUMN);
     3131    30923    3            IF COM_INIT$ -> LX_LIST.COUNT = 2 THEN
     3132    30924    4              DO;
     3133    30925    4                IF COMCOM.OB.FIPS.LEVEL >= %INT_LEV THEN
     3134    30926    4                  CALL Z8AE$ERROR (%E$LEVEL_CHECK,
     3135    30927    4                                   COM_INIT$ -> LX_LIST.TAIL$ -> LX_ITEM.LINE,
     3136    30928    4                                   COM_INIT$ -> LX_LIST.TAIL$ -> LX_ITEM.COLUMN);
     3137    30929    4                PROC$ -> PROC_.B.COMMON  = TRUE;
PL6.E3A0      #001=Z8EM$SEMANTICS_DATA_DIV File=Z8EM.:Z8A6TSI                    SAT 08/09/97 12:08 Page:116
     3138    30930    4                PROC$ -> PROC_.B.INITIAL = TRUE;
     3139    30931    4                PROC$ -> PROC_.B.INITIAL_RELATIVE = TRUE;
     3140    30932    4              END;
     3141    30933    3            ELSE
     3142    30934    3              IF COM_INIT$ -> LX_LIST.HEAD$ ->
     3143    30935    3              LX_TERMINAL.SYMBOL = %RSV_WRD_COMMON THEN
     3144    30936    3                PROC$ -> PROC_.B.COMMON = TRUE;
     3145    30937    3              ELSE
     3146    30938    4                DO;
     3147    30939    4                  PROC$ -> PROC_.B.INITIAL_RELATIVE = TRUE;
     3148    30940    4                  PROC$ -> PROC_.B.INITIAL = TRUE;
     3149    30941    4                END;
     3150    30942
     3151    30943    3            IF PROC$ -> PROC_.B.COMMON AND
     3152    30944    3               PROC$ -> PROC_.LEVEL = 1 THEN
     3153    30945    3              CALL Z8AE$ERROR (%E$CLAUSE_MUST_IN_INTL_PROC,
     3154    30946    3                  COM_INIT$ -> LX_LIST.HEAD$ -> LX_TERMINAL.LINE,
     3155    30947    3                  0,
     3156    30948    3                  DNT$_FROM_RSWNO (%RSV_WRD_COMMON));
     3157    30949
     3158    30950    3            CALL Z8ED$DISPOSE_ABSSYN_TREE (COM_INIT$ -> LX_LIST.HEAD$);
     3159    30951
     3160    30952    3          CASE (%EMPTY);
     3161    30953                 /* A OK */
     3162    30954
     3163    30955    3          CASE (ELSE);
     3164    30956    3            CALL Z8AE$ERROR (%E$UNEXPECTED_CASE,
     3165    30957    3                             NAME$ -> LX_TERMINAL.LINE,
     3166    30958    3                             NAME$ -> LX_TERMINAL.COLUMN);
     3167    30959
     3168    30960    3        END; /* CASE */
     3169    30961
     3170    30962             %NEW_ILL (@ID    = %SCOPE,
     3171    30963                       @CODE  = %PROGRAM_SCOPE,
     3172    30964                       @PROC$ = O1COM.CURRENT_PROC$);
     3173    31343
     3174    31344    2        CALL UPDATE_PROC_SUPP (PROC$);
PL6.E3A0      #001=Z8EM$SEMANTICS_DATA_DIV File=Z8EM.:Z8A6TSI                    SAT 08/09/97 12:08 Page:117
     3175    31345
     3176    31346
     3177    31347    2   END NEW_PROC;
     3178    31348        %EJECT;
PL6.E3A0      #001=Z8EM$SEMANTICS_DATA_DIV File=Z8EM.:Z8A6TSI                    SAT 08/09/97 12:08 Page:118
     3179    31349
     3180    31350          /*==========*/
     3181    31351    1       NEW_REPORT:   PROC (REPORT$, RD$$) ;
     3182    31352          /*==========*/
     3183    31353
     3184    31354
     3185    31355    2     DCL REPORT$               PTR;
     3186    31356    2     DCL RD$$                  PTR;
     3187    31357    2     DCL REPORT_DNT$           PTR;
     3188    31358    2     DCL LTS$$                 PTR;
     3189    31359
     3190    31360
     3191    31361    2     REPORT_DNT$ = REPORT$ -> LX_TERMINAL.DNT$;
     3192    31362
     3193    31363          %NEW_RD (@ST$       = RD$$,
     3194    31364                   @DNT$      = REPORT_DNT$,
     3195    31365                   @TYPE      = %TYA,
     3196    31366                   @LINE_NO   = REPORT$ -> LX_TERMINAL.LINE,
     3197    31367                   @NEXT      = REPORT_DNT$ -> DNT.ST$,
     3198    31368                   @CLASS     = %CLASS_ALPHANUMERIC);
     3199    31561
     3200    31562    2     REPORT_DNT$ -> DNT.ST$ = RD$$;
     3201    31563
     3202    31564
     3203    31565          %NEW_QLT (@POINTER   = RD$$ -> RD.QLT$,
     3204    31566                    @ST$       = RD$$,
     3205    31567                    @DNT$      = REPORT_DNT$,
     3206    31568                    @LEVEL#    = 0);
     3207    31593
     3208    31594          %ADD_XREF (SYM = RD$$,
     3209    31595                     ISN = REPORT$ -> LX_TERMINAL.LINE,
     3210    31596                     TYPE = %XREF_DCL);
     3211    31614
     3212    31615          %NEW_CONTROL_NAME_LTS (@POINTER = LTS$$);
     3213    31722
     3214    31723          %NEW_REPORT_LTS (@POINTER = RD$$ -> RD.LTS$,
     3215    31724                           @ST$     = RD$$,
PL6.E3A0      #001=Z8EM$SEMANTICS_DATA_DIV File=Z8EM.:Z8A6TSI                    SAT 08/09/97 12:08 Page:119
     3216    31725                           @COL_NO# = REPORT$ -> LX_TERMINAL.COLUMN,
     3217    31726                           @CONTROL_FINAL$ = LTS$$,
     3218    31727                           @FILE$   = O1COM.CURRENT_FILE_LTS$ -> FILE_LTS.ST$);
     3219    31854
     3220    31855
     3221    31856    2     END NEW_REPORT;
     3222    31857          %EJECT;
PL6.E3A0      #001=Z8EM$SEMANTICS_DATA_DIV File=Z8EM.:Z8A6TSI                    SAT 08/09/97 12:08 Page:120
     3223    31858        /*==========*/
     3224    31859    1     ORG_CHECKS: PROC (ORG$, ORGANIZATION);
     3225    31860        /*==========*/
     3226    31861
     3227    31862    2        DCL ORG$          PTR;
     3228    31863    2        DCL ORGANIZATION  SBIN;
     3229    31864    2        DCL FILE$         PTR;
     3230    31865
     3231    31866             /* Checks checked in this check routine */
     3232    31867             /*
     3233    31868                1. Organization not SEQUENTIAL and:
     3234    31869                   a. PADDING CHARACTER is used.
     3235    31870                   b. RECORD DELIMITER is used.
     3236    31871                   c. LINAGE is used.
     3237    31872                2. Organization not RELATIVE and:
     3238    31873                   a. RELATIVE KEY clause is specified.
     3239    31874                3. Organization not INDEXED and:
     3240    31875                   a. ALTERNATE KEY clause used.
     3241    31876                4. Organization not INDEXED or KEYED and
     3242    31877                   a. RECORD KEY is used.
     3243    31878                                                         */
     3244    31879
     3245    31880    2        FILE$ = O1COM.CURRENT_FILE_LTS$;
     3246    31881
     3247    31882    3        DO CASE (ORGANIZATION);
     3248    31883
     3249    31884    3          CASE (
     3250    31885                     %SET_OF_RELATIVE_ORGANIZATION;
     3251    31889    3               );
     3252    31890                 /* Check for PADDING, DELIMITER, LINAGE, RECORD KEY
     3253    31891                    and ALTERNATE RECORD KEY's                       */
     3254    31892    3            CALL CHECK_FOR_PAD_DELIM_LINAGE (ORG$);
     3255    31893
     3256    31894    3            IF FILE$ -> FILE_LTS.ALT_RECORD_KEY$ ~= ADDR(NIL) THEN
     3257    31895    4              DO;
     3258    31896    4                CALL Z8AE$ERROR (%E$WRONG_ORG_WITH_KEY,
     3259    31897    4                                 ORG$ -> LX_ITEM.LINE,
PL6.E3A0      #001=Z8EM$SEMANTICS_DATA_DIV File=Z8EM.:Z8A6TSI                    SAT 08/09/97 12:08 Page:121
     3260    31898    4                                 ORG$ -> LX_ITEM.COLUMN,
     3261    31899    4                                 DNT$_FROM_RSWNO (%RSV_WRD_ALTERNATE));
     3262    31900    4                CALL Z8ED$DISPOSE_ABSSYN_TREE (FILE$ -> FILE_LTS.ALT_RECORD_KEY$);
     3263    31901    4              END;
     3264    31902
     3265    31903    3            IF FILE$ -> FILE_LTS.RECORD_KEY$ ~= ADDR(NIL) THEN
     3266    31904    4              DO;
     3267    31905    4                CALL Z8AE$ERROR (%E$WRONG_ORG_WITH_KEY,
     3268    31906    4                                 ORG$ -> LX_ITEM.LINE,
     3269    31907    4                                 ORG$ -> LX_ITEM.COLUMN,
     3270    31908    4                                 DNT$_FROM_RSWNO (%RSV_WRD_RECORD));
     3271    31909    4                CALL Z8ED$DISPOSE_ABSSYN_TREE (FILE$ -> FILE_LTS.RECORD_KEY$);
     3272    31910    4              END;
     3273    31911
     3274    31912    3          CASE (
     3275    31913                     %SET_OF_KEYED_ORGANIZATION;
     3276    31916    3               );
     3277    31917                 /* Checks for PADDING, DELIMITER, LINAGE, ALT KEYS */
     3278    31918
     3279    31919    3            CALL CHECK_FOR_PAD_DELIM_LINAGE (ORG$);
     3280    31920
     3281    31921    3            IF FILE$ -> FILE_LTS.ALT_RECORD_KEY$ ~= ADDR(NIL) THEN
     3282    31922    4              DO;
     3283    31923    4                CALL Z8AE$ERROR (%E$WRONG_ORG_WITH_KEY,
     3284    31924    4                                 ORG$ -> LX_ITEM.LINE,
     3285    31925    4                                 ORG$ -> LX_ITEM.COLUMN,
     3286    31926    4                                 DNT$_FROM_RSWNO (%RSV_WRD_ALTERNATE));
     3287    31927    4                CALL Z8ED$DISPOSE_ABSSYN_TREE (FILE$ -> FILE_LTS.ALT_RECORD_KEY$);
     3288    31928    4              END;
     3289    31929
     3290    31930    3            IF FILE$ -> FILE_LTS.RELATIVE_KEY$ ~= ADDR(NIL) THEN
     3291    31931    4              DO;
     3292    31932    4                CALL Z8AE$ERROR (%E$WRONG_ORG_WITH_KEY,
     3293    31933    4                                 ORG$ -> LX_ITEM.LINE,
     3294    31934    4                                 ORG$ -> LX_ITEM.COLUMN,
     3295    31935    4                                 DNT$_FROM_RSWNO (%RSV_WRD_RELATIVE));
     3296    31936    4                CALL Z8ED$DISPOSE_ABSSYN_TREE (FILE$ -> FILE_LTS.RELATIVE_KEY$);
PL6.E3A0      #001=Z8EM$SEMANTICS_DATA_DIV File=Z8EM.:Z8A6TSI                    SAT 08/09/97 12:08 Page:122
     3297    31937    4              END;
     3298    31938
     3299    31939    3            IF FILE$ -> FILE_LTS.NOMINAL_KEY$ ~= ADDR(NIL) THEN
     3300    31940    4              DO;
     3301    31941    4                CALL Z8AE$ERROR (%E$WRONG_ORG_WITH_KEY,
     3302    31942    4                                 ORG$ -> LX_ITEM.LINE,
     3303    31943    4                                 ORG$ -> LX_ITEM.COLUMN,
     3304    31944    4                                 DNT$_FROM_RSWNO (%RSV_WRD_NOMINAL));
     3305    31945    4                CALL Z8ED$DISPOSE_ABSSYN_TREE (FILE$ -> FILE_LTS.NOMINAL_KEY$);
     3306    31946    4              END;
     3307    31947
     3308    31948    3          CASE (
     3309    31949                     %SET_OF_INDEXED_ORGANIZATION;
     3310    31953    3               );
     3311    31954                 /* Checks for PADDING, DELIMITER, LINAGE, RELATIVE KEYS */
     3312    31955
     3313    31956    3            CALL CHECK_FOR_PAD_DELIM_LINAGE (ORG$);
     3314    31957
     3315    31958    3            IF FILE$ -> FILE_LTS.RELATIVE_KEY$ ~= ADDR(NIL) THEN
     3316    31959    4              DO;
     3317    31960    4                CALL Z8AE$ERROR (%E$WRONG_ORG_WITH_KEY,
     3318    31961    4                                 ORG$ -> LX_ITEM.LINE,
     3319    31962    4                                 ORG$ -> LX_ITEM.COLUMN,
     3320    31963    4                                 DNT$_FROM_RSWNO (%RSV_WRD_RELATIVE));
     3321    31964    4                CALL Z8ED$DISPOSE_ABSSYN_TREE (FILE$ -> FILE_LTS.RELATIVE_KEY$);
     3322    31965    4              END;
     3323    31966
     3324    31967    3          CASE (
     3325    31968                     %SET_OF_SEQUENTIAL_ORGANIZATION;
     3326    31976    3                );
     3327    31977                 /* Checks for RELATIVE, ALTERNATE, and RECORD keys */
     3328    31978
     3329    31979    3            IF FILE$ -> FILE_LTS.RELATIVE_KEY$ ~= ADDR(NIL) THEN
     3330    31980    4              DO;
     3331    31981    4                CALL Z8AE$ERROR (%E$WRONG_ORG_WITH_KEY,
     3332    31982    4                                 ORG$ -> LX_ITEM.LINE,
     3333    31983    4                                 ORG$ -> LX_ITEM.COLUMN,
PL6.E3A0      #001=Z8EM$SEMANTICS_DATA_DIV File=Z8EM.:Z8A6TSI                    SAT 08/09/97 12:08 Page:123
     3334    31984    4                                 DNT$_FROM_RSWNO (%RSV_WRD_RELATIVE));
     3335    31985    4                CALL Z8ED$DISPOSE_ABSSYN_TREE (FILE$ -> FILE_LTS.RELATIVE_KEY$);
     3336    31986    4              END;
     3337    31987
     3338    31988    3            IF FILE$ -> FILE_LTS.RECORD_KEY$ ~= ADDR(NIL) THEN
     3339    31989    4              DO;
     3340    31990    4                CALL Z8AE$ERROR (%E$WRONG_ORG_WITH_KEY,
     3341    31991    4                                 ORG$ -> LX_ITEM.LINE,
     3342    31992    4                                 ORG$ -> LX_ITEM.COLUMN,
     3343    31993    4                                 DNT$_FROM_RSWNO (%RSV_WRD_RECORD));
     3344    31994    4                CALL Z8ED$DISPOSE_ABSSYN_TREE (FILE$ -> FILE_LTS.RECORD_KEY$);
     3345    31995    4              END;
     3346    31996
     3347    31997    3            IF FILE$ -> FILE_LTS.ALT_RECORD_KEY$ ~= ADDR(NIL) THEN
     3348    31998    4              DO;
     3349    31999    4                CALL Z8AE$ERROR (%E$WRONG_ORG_WITH_KEY,
     3350    32000    4                                 ORG$ -> LX_ITEM.LINE,
     3351    32001    4                                 ORG$ -> LX_ITEM.COLUMN,
     3352    32002    4                                 DNT$_FROM_RSWNO (%RSV_WRD_ALTERNATE));
     3353    32003    4                CALL Z8ED$DISPOSE_ABSSYN_TREE (FILE$ -> FILE_LTS.ALT_RECORD_KEY$);
     3354    32004    4              END;
     3355    32005
     3356    32006    3            IF FILE$ -> FILE_LTS.NOMINAL_KEY$ ~= ADDR(NIL) THEN
     3357    32007    4              DO;
     3358    32008    4                CALL Z8AE$ERROR (%E$WRONG_ORG_WITH_KEY,
     3359    32009    4                                 ORG$ -> LX_ITEM.LINE,
     3360    32010    4                                 ORG$ -> LX_ITEM.COLUMN,
     3361    32011    4                                 DNT$_FROM_RSWNO (%RSV_WRD_NOMINAL));
     3362    32012    4                CALL Z8ED$DISPOSE_ABSSYN_TREE (FILE$ -> FILE_LTS.NOMINAL_KEY$);
     3363    32013    4              END;
     3364    32014
     3365    32015    3        END; /* Case */
     3366    32016
     3367    32017    2   END ORG_CHECKS;
     3368    32018        %EJECT;
PL6.E3A0      #001=Z8EM$SEMANTICS_DATA_DIV File=Z8EM.:Z8A6TSI                    SAT 08/09/97 12:08 Page:124
     3369    32019        /*===============*/
     3370    32020    1     PAD_CHAR_LINAGE: PROC (ITEM$, FIELD$, RSWNO);
     3371    32021        /*===============*/
     3372    32022
     3373    32023    2        DCL ITEM$         PTR;
     3374    32024    2        DCL RSWNO         SBIN;
     3375    32025    2        DCL FIELD$        PTR;
     3376    32026    2        DCL TERM$         PTR;
     3377    32027
     3378    32028
     3379    32029    2        IF ITEM$ -> LX_ITEM.ID = %LX_TERMINAL THEN
     3380    32030    3          DO;
     3381    32031    3            CALL CHECK_REL_ORG (ITEM$)
     3382    32032    3              WHENALTRETURN
     3383    32033    4                DO;
     3384    32034    4                  RETURN;
     3385    32035    4                END;
     3386    32036
     3387    32037    3            CALL CHECK_IND_ORG (ITEM$)
     3388    32038    3              WHENALTRETURN
     3389    32039    4                DO;
     3390    32040    4                  RETURN;
     3391    32041    4                END;
     3392    32042
     3393    32043    3            CALL CHECK_KEY_ORG (ITEM$)
     3394    32044    3              WHENALTRETURN
     3395    32045    4                DO;
     3396    32046    4                  RETURN;
     3397    32047    4                END;
     3398    32048
     3399    32049    3            CALL CHECK_AND_SAVE_ITEM (ITEM$,
     3400    32050    3                                      FIELD$,
     3401    32051    3                                      RSWNO);
     3402    32052    3          END;
     3403    32053    2        ELSE
     3404    32054    3          DO;
     3405    32055    3            TERM$ = ITEM$ -> LX_LIST.HEAD$;
PL6.E3A0      #001=Z8EM$SEMANTICS_DATA_DIV File=Z8EM.:Z8A6TSI                    SAT 08/09/97 12:08 Page:125
     3406    32056
     3407    32057    3            CALL CHECK_REL_ORG (TERM$)
     3408    32058    3              WHENALTRETURN
     3409    32059    4                DO;
     3410    32060    4                  CALL Z8ED$DISPOSE_ABSSYN_TREE (ITEM$ -> LX_LIST.HEAD$);
     3411    32061    4                  RETURN;
     3412    32062    4                END;
     3413    32063
     3414    32064    3            CALL CHECK_IND_ORG (TERM$)
     3415    32065    3              WHENALTRETURN
     3416    32066    4                DO;
     3417    32067    4                  CALL Z8ED$DISPOSE_ABSSYN_TREE (ITEM$ -> LX_LIST.HEAD$);
     3418    32068    4                  RETURN;
     3419    32069    4                END;
     3420    32070
     3421    32071    3            CALL CHECK_KEY_ORG (TERM$)
     3422    32072    3              WHENALTRETURN
     3423    32073    4                DO;
     3424    32074    4                  CALL Z8ED$DISPOSE_ABSSYN_TREE (ITEM$ -> LX_LIST.HEAD$);
     3425    32075    4                  RETURN;
     3426    32076    4                END;
     3427    32077
     3428    32078    3            CALL CHECK_AND_SAVE_ITEM (ITEM$,
     3429    32079    3                                      FIELD$,
     3430    32080    3                                      RSWNO);
     3431    32081    3          END;
     3432    32082
     3433    32083    2   END PAD_CHAR_LINAGE;
     3434    32084        %EJECT;
PL6.E3A0      #001=Z8EM$SEMANTICS_DATA_DIV File=Z8EM.:Z8A6TSI                    SAT 08/09/97 12:08 Page:126
     3435    32085
     3436    32086         /*================*/
     3437    32087    1      PROCESS_CD_NO_DD:  PROC;
     3438    32088         /*================*/
     3439    32089
     3440    32090
     3441    32091    2   DCL I          SBIN WORD;
     3442    32092
     3443    32093
     3444    32094
     3445    32095    3     DO CASE (O1COM.CURRENT_CD_ENTRY$ -> LX_ITEM.ID);
     3446    32096    3       CASE (%LX_CD_INPUT);
     3447    32097
     3448    32098    4          DO I= 0 TO %CD_INPUT_OPTION - 1;
     3449    32099
     3450    32100    4            IF O1COM.CURRENT_CD_ENTRY$ -> LX_CD_INPUT.INPUT_FIELDS$(I) ~= ADDR(NIL)
             32100                     THEN
     3451    32101    4              GOTO NEXT_1;
     3452    32102
     3453    32103    4          END;
     3454    32104
     3455    32105    3          CALL Z8AE$ERROR (%E$THIS_CD_NEED_01_ENTRY,
     3456    32106    3                  O1COM.CURRENT_CD_ENTRY$ -> LX_CD_INPUT.CD_NAME$ -> LX_ITEM.LINE,
     3457    32107    3                  O1COM.CURRENT_CD_ENTRY$ -> LX_CD_INPUT.CD_NAME$ -> LX_ITEM.COLUMN);
     3458    32108
     3459    32109    3        NEXT_1:
     3460    32110    3          CALL PROCESS_INPUT_CD;
     3461    32111
     3462    32112    3       CASE (%LX_CD_OUTPUT);
     3463    32113
     3464    32114    3          CALL PROCESS_OUTPUT_CD;
     3465    32115
     3466    32116    3       CASE (%LX_CD_I_O);
     3467    32117
     3468    32118    4          DO I= 0 TO %CD_I_O_OPTION - 1;
     3469    32119
     3470    32120    4            IF O1COM.CURRENT_CD_ENTRY$ -> LX_CD_I_O.I_O_FIELDS$(I) ~= ADDR(NIL) THEN
PL6.E3A0      #001=Z8EM$SEMANTICS_DATA_DIV File=Z8EM.:Z8A6TSI                    SAT 08/09/97 12:08 Page:127
     3471    32121    4              GOTO NEXT_2;
     3472    32122
     3473    32123    4          END;
     3474    32124
     3475    32125    3          CALL Z8AE$ERROR (%E$THIS_CD_NEED_01_ENTRY,
     3476    32126    3                  O1COM.CURRENT_CD_ENTRY$ -> LX_CD_I_O.CD_NAME$ -> LX_ITEM.LINE,
     3477    32127    3                  O1COM.CURRENT_CD_ENTRY$ -> LX_CD_I_O.CD_NAME$ -> LX_ITEM.COLUMN);
     3478    32128
     3479    32129    3        NEXT_2:
     3480    32130    3          CALL PROCESS_I_O_CD;
     3481    32131
     3482    32132    3     END; /* Do case end */
     3483    32133
     3484    32134    2      CALL CD_ENTRY_WRAPUP;
     3485    32135
     3486    32136    2    END PROCESS_CD_NO_DD;
     3487    32137         %EJECT;
PL6.E3A0      #001=Z8EM$SEMANTICS_DATA_DIV File=Z8EM.:Z8A6TSI                    SAT 08/09/97 12:08 Page:128
     3488    32138
     3489    32139         /*=================*/
     3490    32140    1      PROCESS_CD_OCCURS: PROC (OCCURS_INT, OCCURS$, INDEX_LIST$, ST$$);
     3491    32141         /*=================*/
     3492    32142
     3493    32143
     3494    32144    2   DCL OCCURS_INT         SBIN WORD;
     3495    32145    2   DCL OCCURS$            PTR;
     3496    32146    2   DCL DIMS$              PTR;
     3497    32147    2   DCL INDEX_LIST$        PTR;
     3498    32148    2   DCL ST$$               PTR;
     3499    32149    2   DCL INDEX$             PTR;
     3500    32150    2   DCL INDEX_ST$          PTR;
     3501    32151    2   DCL INDEX_DNT$         PTR;
     3502    32152    2   DCL INDEX_QLT$         PTR;
     3503    32153    2   DCL BRO$               PTR;
     3504    32154    2   DCL INDEXES$           PTR;
     3505    32155    2   DCL PREV_INDEXES$      PTR;
     3506    32156    2   DCL QLT_CHAIN$         PTR;
     3507    32157    2   DCL QLT_CHAIN_START$   PTR;
     3508    32158    2   DCL FIRST_INDEX$       PTR;
     3509    32159
     3510    32160
     3511    32161
     3512    32162    2      CALL CHARBIN (OCCURS_INT,
     3513    32163    2                    OCCURS$ -> LX_TERMINAL.DNT$ -> DNT.TEXT.NAME);
     3514    32164
     3515    32165           %NEW_DIMS (@POINTER = DIMS$,
     3516    32166                      @SIZE    = "%MIN_DIM_SIZE + %NO_WORDS_PER_DIM");
     3517    32259
     3518    32260           %FILL_DIMS (@DIMS$ = DIMS$,
     3519    32261                       @SS#   = "%SINGLE_DIMENSION",
     3520    32262                       @DIM   = OCCURS_INT);
     3521    32269
     3522    32270    2      ST$$ -> ARRAY.ID = %ARRAY;
     3523    32271    2      ST$$ -> ARRAY.QLT$ -> QLT.B.OCCURS = TRUE;
     3524    32272    2      ST$$ -> ARRAY.LTS$ = DIMS$;
PL6.E3A0      #001=Z8EM$SEMANTICS_DATA_DIV File=Z8EM.:Z8A6TSI                    SAT 08/09/97 12:08 Page:129
     3525    32273
     3526    32274    2      CALL Z8ED$DISPOSE_ABSSYN_TREE (OCCURS$);
     3527    32275
     3528    32276    2      IF INDEX_LIST$ = ADDR(NIL) THEN
     3529    32277    2        RETURN;
     3530    32278
     3531    32279    2      INDEX$ = INDEX_LIST$ -> LX_LIST.HEAD$;
     3532    32280    2      INDEXES$ = ADDR(NIL);
     3533    32281    2      PREV_INDEXES$ = ADDR(NIL);
     3534    32282    2      QLT_CHAIN_START$ = ADDR(NIL);
     3535    32283
     3536    32284    3      DO WHILE ( INDEX$ ~= ADDR(NIL));
     3537    32285
     3538    32286    3        CALL Z8DR$NEW_INDEX ( INDEX$,
     3539    32287    3                              %TYX,
     3540    32288    3                              01,
     3541    32289    3                              INDEX_QLT$,
     3542    32290    3                              INDEX_ST$);
     3543    32291
     3544    32292    3        IF QLT_CHAIN_START$ = ADDR(NIL) THEN
     3545    32293    3          QLT_CHAIN_START$ = INDEX_QLT$;
     3546    32294    3        ELSE
     3547    32295    3          QLT_CHAIN$ -> QLT.BROTHER = INDEX_QLT$;
     3548    32296
     3549    32297    3        QLT_CHAIN$ = INDEX_QLT$ -> QLT.BROTHER;
     3550    32298
     3551    32299             %NEW_INDEXES (@POINTER = INDEXES$,
     3552    32300                           @INDEX_ST$ = INDEX_ST$);
     3553    32393
     3554    32394    3        INDEX_ST$ -> SCALAR.LTS$ = ST$$;
     3555    32395
     3556    32396    3        IF PREV_INDEXES$ ~= ADDR(NIL) THEN
     3557    32397    3          PREV_INDEXES$ -> INDEXES.LINK = INDEXES$;
     3558    32398    3        ELSE
     3559    32399    3          FIRST_INDEX$ = INDEXES$;
     3560    32400
     3561    32401    3        PREV_INDEXES$ = INDEXES$;
PL6.E3A0      #001=Z8EM$SEMANTICS_DATA_DIV File=Z8EM.:Z8A6TSI                    SAT 08/09/97 12:08 Page:130
     3562    32402    3        INDEX$ = INDEX$ -> LX_TERMINAL.LINK;
     3563    32403    3      END;  /* Do while */
     3564    32404
     3565    32405    2      DIMS$ -> DIMS.D.INDEX$ (%SINGLE_DIMENSION) = FIRST_INDEX$;
     3566    32406    2      BRO$ = QLT_CHAIN_START$;
     3567    32407
     3568    32408    2      IF BRO$ ~= ADDR(NIL) THEN
     3569    32409    3        DO WHILE (BRO$ -> QLT.BROTHER ~= ADDR(NIL));
     3570    32410    3          BRO$ = BRO$ -> QLT.BROTHER;
     3571    32411    3        END;  /* While */
     3572    32412
     3573    32413    2      IF O1COM.INDEX_HEAD$ = ADDR(NIL) THEN
     3574    32414    2        O1COM.INDEX_HEAD$ = QLT_CHAIN_START$;
     3575    32415    2      ELSE
     3576    32416    2        O1COM.INDEX_TAIL$ -> QLT.BROTHER = QLT_CHAIN_START$;
     3577    32417
     3578    32418    2      O1COM.INDEX_TAIL$ = BRO$;
     3579    32419
     3580    32420    2      CALL Z8ED$DISPOSE_ABSSYN_TREE (INDEX_LIST$);
     3581    32421
     3582    32422    2    END PROCESS_CD_OCCURS;
     3583    32423         %EJECT;
PL6.E3A0      #001=Z8EM$SEMANTICS_DATA_DIV File=Z8EM.:Z8A6TSI                    SAT 08/09/97 12:08 Page:131
     3584    32424
     3585    32425         /*===============*/
     3586    32426    1      PROCESS_CD_W_DD:  PROC;
     3587    32427         /*===============*/
     3588    32428
     3589    32429
     3590    32430
     3591    32431    3     DO CASE (O1COM.CURRENT_CD_ENTRY$ -> LX_ITEM.ID);
     3592    32432    3       CASE (%LX_CD_INPUT);
     3593    32433
     3594    32434    3          CALL PROCESS_INPUT_CD;
     3595    32435
     3596    32436    3       CASE (%LX_CD_OUTPUT);
     3597    32437
     3598    32438    3          CALL PROCESS_OUTPUT_CD;
     3599    32439
     3600    32440    3       CASE (%LX_CD_I_O);
     3601    32441
     3602    32442    3          CALL PROCESS_I_O_CD;
     3603    32443
     3604    32444    3     END; /* Do case end */
     3605    32445
     3606    32446    2      HIER_STK_PTR = 0;
     3607    32447
     3608    32448    2    END PROCESS_CD_W_DD;
     3609    32449         %EJECT;
PL6.E3A0      #001=Z8EM$SEMANTICS_DATA_DIV File=Z8EM.:Z8A6TSI                    SAT 08/09/97 12:08 Page:132
     3610    32450        /*==================*/
     3611    32451    1     PROCESS_CLASS_LIST: PROC (CLASS$, LIST$);
     3612    32452        /*==================*/
     3613    32453
     3614    32454    2        DCL CLASS$        PTR;
     3615    32455    2        DCL LIST$         PTR;
     3616    32456    2        DCL LIT$          PTR;
     3617    32457
     3618    32458
     3619    32459    2        CALL DCL_CONST_TABLE (CLASS$ -> CLASS.TABLE$);
     3620    32460
     3621    32461    2        CALL INITIALIZE_TRANS_TABLE (CLASS$ -> CLASS.TABLE$ ->
     3622    32462    2                                     CONST.CONST$.PTR$);
     3623    32463
     3624    32464    2        LIT$ = LIST$ -> LX_LIST.HEAD$;
     3625    32465
     3626    32466    3        DO WHILE (LIT$ ~= ADDR(NIL));
     3627    32467    3          IF LIT$ -> LX_LIST.HEAD$ -> LX_ITEM.LINK = ADDR(NIL) THEN
     3628    32468                 /* CLASS <name> is <literal> */
     3629    32469    3            CALL WALK_LITERAL (LIT$ -> LX_LIST.HEAD$,
     3630    32470    3                               CLASS$, 0);
     3631    32471    3          ELSE
     3632    32472                 /* CLASS <name> IS <literal> THRU <literal> */
     3633    32473    3            CALL LIT_THRU_LIT (LIT$, CLASS$, 0);
     3634    32474
     3635    32475    3          LIT$ = LIT$ -> LX_LIST.LINK;
     3636    32476    3        END; /* While */
     3637    32477
     3638    32478    2   END PROCESS_CLASS_LIST;
     3639    32479        %EJECT;
PL6.E3A0      #001=Z8EM$SEMANTICS_DATA_DIV File=Z8EM.:Z8A6TSI                    SAT 08/09/97 12:08 Page:133
     3640    32480
     3641    32481         /*================*/
     3642    32482    1      PROCESS_INPUT_CD: PROC;
     3643    32483         /*================*/
     3644    32484
     3645    32485
     3646    32486    2   DCL WORK_ST$$          PTR;
     3647    32487    2   DCL CD_ST$$            PTR;
     3648    32488    2   DCL BUFFER_LENGTH      SBIN WORD;
     3649    32489    2   DCL CD_LTS$$           PTR;
     3650    32490    2   DCL PREV_QLT$          PTR;
     3651    32491    2   DCL QLT$$              PTR;
     3652    32492    2   DCL ST$$               PTR;
     3653    32493
     3654    32494
     3655    32495
     3656    32496    2          CALL ALLOCATE_CD_WORK_AREA (WORK_ST$$);
     3657    32497
     3658    32498          /* CD name st item */
     3659    32499
     3660    32500    2          CALL BUILD_ST (CD_ST$$, %LEVEL_00, %TYA, %CLASS_ALPHANUMERIC,
     3661    32501    2                         %GROUP, QLT$$, %LENGTH_0,
     3662    32502    2                  O1COM.CURRENT_CD_ENTRY$ -> LX_CD_INPUT.CD_NAME$);
     3663    32503    2          PREV_QLT$ = QLT$$;
     3664    32504               %UPDATE_PREV_QLT$ (@NEW_QLT$ = QLT$$);
     3665    32511
     3666    32512    2          CALL BUILD_ST (ST$$, %LEVEL_01, %TYA, %CLASS_ALPHANUMERIC,
     3667    32513    2                         %GROUP, QLT$$, %LENGTH_0,
     3668    32514    2                         ADDR(NIL));
     3669    32515    2          PREV_QLT$ -> QLT.SON = QLT$$;
     3670    32516    2          QLT$$ -> QLT.FATHER = PREV_QLT$;
     3671    32517    2          PREV_QLT$ = QLT$$;
     3672    32518    2          COMCOM.PREV_QLT$ = QLT$$;
     3673    32519          /* QUEUE name st */
     3674    32520
     3675    32521    2          CALL BUILD_ST (ST$$, %LEVEL_02, %TYA, %CLASS_ALPHANUMERIC,
     3676    32522    2                         %ELEMENTARY, QLT$$, %LENGTH_12,
PL6.E3A0      #001=Z8EM$SEMANTICS_DATA_DIV File=Z8EM.:Z8A6TSI                    SAT 08/09/97 12:08 Page:134
     3677    32523    2                  O1COM.CURRENT_CD_ENTRY$ -> LX_CD_INPUT.P.QUEUE$);
     3678    32524    2          PREV_QLT$ -> QLT.SON = QLT$$;
     3679    32525    2          QLT$$ -> QLT.FATHER = PREV_QLT$;
     3680    32526    2          PREV_QLT$ = QLT$$;
     3681    32527
     3682    32528          /* create SUB-QUEUE-1 name st */
     3683    32529
     3684    32530    2          CALL BUILD_ST (ST$$, %LEVEL_02, %TYA, %CLASS_ALPHANUMERIC,
     3685    32531    2                         %ELEMENTARY, QLT$$, %LENGTH_12,
     3686    32532    2                  O1COM.CURRENT_CD_ENTRY$ -> LX_CD_INPUT.P.SUB_QUEUE_1$);
     3687    32533
     3688    32534               %UPDATE_QLT$;
     3689    32541
     3690    32542          /* create SUB-QUEUE-2 name st */
     3691    32543
     3692    32544    2          CALL BUILD_ST (ST$$, %LEVEL_02, %TYA, %CLASS_ALPHANUMERIC,
     3693    32545    2                         %ELEMENTARY, QLT$$, %LENGTH_12,
     3694    32546    2                  O1COM.CURRENT_CD_ENTRY$ -> LX_CD_INPUT.P.SUB_QUEUE_2$);
     3695    32547
     3696    32548               %UPDATE_QLT$;
     3697    32555
     3698    32556          /* create SUB-QUEUE-3 name st */
     3699    32557
     3700    32558    2          CALL BUILD_ST (ST$$, %LEVEL_02, %TYA, %CLASS_ALPHANUMERIC,
     3701    32559    2                         %ELEMENTARY, QLT$$, %LENGTH_12,
     3702    32560    2                  O1COM.CURRENT_CD_ENTRY$ -> LX_CD_INPUT.P.SUB_QUEUE_3$);
     3703    32561
     3704    32562               %UPDATE_QLT$;
     3705    32569
     3706    32570          /* create MESSAGE DATE st */
     3707    32571
     3708    32572    2          CALL BUILD_ST (ST$$, %LEVEL_02, %TYD, %CLASS_NUMERIC,
     3709    32573    2                         %ELEMENTARY, QLT$$, %LENGTH_6,
     3710    32574    2                  O1COM.CURRENT_CD_ENTRY$ -> LX_CD_INPUT.P.MESSAGE_DATE$);
     3711    32575
     3712    32576               %UPDATE_QLT$;
     3713    32583    2          ST$$ -> SCALAR.NDSC.S = '11'B;
PL6.E3A0      #001=Z8EM$SEMANTICS_DATA_DIV File=Z8EM.:Z8A6TSI                    SAT 08/09/97 12:08 Page:135
     3714    32584
     3715    32585          /* create MESSAGE TIME st */
     3716    32586
     3717    32587    2          CALL BUILD_ST (ST$$, %LEVEL_02, %TYD, %CLASS_NUMERIC,
     3718    32588    2                         %ELEMENTARY, QLT$$, %LENGTH_8,
     3719    32589    2                  O1COM.CURRENT_CD_ENTRY$ -> LX_CD_INPUT.P.MESSAGE_TIME$);
     3720    32590
     3721    32591               %UPDATE_QLT$;
     3722    32598    2          ST$$ -> SCALAR.NDSC.S = '11'B;
     3723    32599
     3724    32600          /* create SYMBOLIC SOURCE st */
     3725    32601
     3726    32602    2          CALL BUILD_ST (ST$$, %LEVEL_02, %TYA, %CLASS_ALPHANUMERIC,
     3727    32603    2                         %ELEMENTARY, QLT$$, %LENGTH_12,
     3728    32604    2                  O1COM.CURRENT_CD_ENTRY$ -> LX_CD_INPUT.P.SYMBOLIC_SOURCE$);
     3729    32605
     3730    32606               %UPDATE_QLT$;
     3731    32613
     3732    32614          /* create TEXT_LENGTH st */
     3733    32615
     3734    32616    2          CALL BUILD_ST (ST$$, %LEVEL_02, %TYD, %CLASS_NUMERIC,
     3735    32617    2                         %ELEMENTARY, QLT$$, %LENGTH_4,
     3736    32618    2                  O1COM.CURRENT_CD_ENTRY$ -> LX_CD_INPUT.P.TEXT_LENGTH$);
     3737    32619
     3738    32620    2          ST$$ -> SCALAR.NDSC.S = '11'B;
     3739    32621
     3740    32622               %UPDATE_QLT$;
     3741    32629
     3742    32630          /* create END KEY st */
     3743    32631
     3744    32632    2          CALL BUILD_ST (ST$$, %LEVEL_02, %TYA, %CLASS_ALPHANUMERIC,
     3745    32633    2                         %ELEMENTARY, QLT$$, %LENGTH_1,
     3746    32634    2                  O1COM.CURRENT_CD_ENTRY$ -> LX_CD_INPUT.P.END_KEY$);
     3747    32635
     3748    32636               %UPDATE_QLT$;
     3749    32643
     3750    32644          /* create STATUS KEY st */
PL6.E3A0      #001=Z8EM$SEMANTICS_DATA_DIV File=Z8EM.:Z8A6TSI                    SAT 08/09/97 12:08 Page:136
     3751    32645
     3752    32646    2          CALL BUILD_ST (ST$$, %LEVEL_02, %TYA, %CLASS_ALPHANUMERIC,
     3753    32647    2                         %ELEMENTARY, QLT$$, %LENGTH_2,
     3754    32648    2                  O1COM.CURRENT_CD_ENTRY$ -> LX_CD_INPUT.P.STATUS_KEY$);
     3755    32649
     3756    32650               %UPDATE_QLT$;
     3757    32657
     3758    32658          /* create MESSAGE COUNT st */
     3759    32659
     3760    32660    2          CALL BUILD_ST (ST$$, %LEVEL_02, %TYD, %CLASS_NUMERIC,
     3761    32661    2                         %ELEMENTARY, QLT$$, %LENGTH_6,
     3762    32662    2                  O1COM.CURRENT_CD_ENTRY$ -> LX_CD_INPUT.P.MESSAGE_COUNT$);
     3763    32663
     3764    32664               %UPDATE_QLT$;
     3765    32671    2          ST$$ -> SCALAR.NDSC.S = '11'B;
     3766    32672
     3767    32673    2          CALL GET_CD_BUFFER_LENGTH (O1COM.CURRENT_CD_ENTRY$ -> LX_CD_INPUT.BLOCK$,
     3768    32674    2                                     BUFFER_LENGTH);
     3769    32675
     3770    32676               %NEW_CD_LTS (@POINTER = CD_LTS$$,
     3771    32677                            @LX_CD_TYPE = %LX_CD_INPUT,
     3772    32678                            @CD_ST$     = CD_ST$$,
     3773    32679                            @WORK_ST$   = WORK_ST$$,
     3774    32680                            @BUFFER_LENGTH = BUFFER_LENGTH,
     3775    32681                            @INITIAL    = O1COM.CURRENT_CD_ENTRY$ -> LX_CD_INPUT.B.INITIAL);
     3776    32783
     3777    32784    2          CALL Z8DO$LINK_WITH_LTS (CD_ST$$ -> SCALAR.LTS$, CD_LTS$$);
     3778    32785
     3779    32786               %DISPOSE_HEAP (@POINTER = O1COM.CURRENT_CD_ENTRY$,
     3780    32787                              @SIZE    = "LENGTHW (LX_CD_INPUT)");
     3781    32792
     3782    32793    2          O1COM.CURRENT_CD_ENTRY$ = CD_LTS$$;
     3783    32794
     3784    32795    2    END PROCESS_INPUT_CD;
     3785    32796         %EJECT;
PL6.E3A0      #001=Z8EM$SEMANTICS_DATA_DIV File=Z8EM.:Z8A6TSI                    SAT 08/09/97 12:08 Page:137
     3786    32797
     3787    32798
     3788    32799
     3789    32800         /*==============*/
     3790    32801    1      PROCESS_I_O_CD: PROC;
     3791    32802         /*==============*/
     3792    32803
     3793    32804
     3794    32805    2   DCL WORK_ST$$          PTR;
     3795    32806    2   DCL CD_ST$$            PTR;
     3796    32807    2   DCL BUFFER_LENGTH      SBIN WORD;
     3797    32808    2   DCL CD_LTS$$           PTR;
     3798    32809    2   DCL PREV_QLT$          PTR;
     3799    32810    2   DCL QLT$$              PTR;
     3800    32811    2   DCL ST$$               PTR;
     3801    32812
     3802    32813
     3803    32814
     3804    32815    2          CALL ALLOCATE_CD_WORK_AREA (WORK_ST$$);
     3805    32816
     3806    32817          /* CD name st item */
     3807    32818
     3808    32819    2          CALL BUILD_ST (CD_ST$$, %LEVEL_00, %TYA, %CLASS_ALPHANUMERIC,
     3809    32820    2                         %GROUP, QLT$$, %LENGTH_0,
     3810    32821    2                  O1COM.CURRENT_CD_ENTRY$ -> LX_CD_I_O.CD_NAME$);
     3811    32822    2          PREV_QLT$ = QLT$$;
     3812    32823               %UPDATE_PREV_QLT$ (@NEW_QLT$ = QLT$$);
     3813    32830
     3814    32831    2          CALL BUILD_ST (ST$$, %LEVEL_01, %TYA, %CLASS_ALPHANUMERIC,
     3815    32832    2                         %GROUP, QLT$$, %LENGTH_0,
     3816    32833    2                         ADDR(NIL));
     3817    32834    2          PREV_QLT$ -> QLT.SON = QLT$$;
     3818    32835    2          QLT$$ -> QLT.FATHER = PREV_QLT$;
     3819    32836    2          PREV_QLT$ = QLT$$;
     3820    32837    2          COMCOM.PREV_QLT$ = QLT$$;
     3821    32838          /* create MESSAGE DATE st */
     3822    32839
PL6.E3A0      #001=Z8EM$SEMANTICS_DATA_DIV File=Z8EM.:Z8A6TSI                    SAT 08/09/97 12:08 Page:138
     3823    32840    2          CALL BUILD_ST (ST$$, %LEVEL_02, %TYD, %CLASS_NUMERIC,
     3824    32841    2                         %ELEMENTARY, QLT$$, %LENGTH_6,
     3825    32842    2                  O1COM.CURRENT_CD_ENTRY$ -> LX_CD_I_O.P.MESSAGE_DATE$);
     3826    32843
     3827    32844    2          PREV_QLT$ -> QLT.SON = QLT$$;
     3828    32845    2          QLT$$ -> QLT.FATHER = PREV_QLT$;
     3829    32846    2          PREV_QLT$ = QLT$$;
     3830    32847    2          ST$$ -> SCALAR.NDSC.S = '11'B;
     3831    32848
     3832    32849          /* create MESSAGE TIME st */
     3833    32850
     3834    32851    2          CALL BUILD_ST (ST$$, %LEVEL_02, %TYD, %CLASS_NUMERIC,
     3835    32852    2                         %ELEMENTARY, QLT$$, %LENGTH_8,
     3836    32853    2                  O1COM.CURRENT_CD_ENTRY$ -> LX_CD_I_O.P.MESSAGE_TIME$);
     3837    32854
     3838    32855               %UPDATE_QLT$;
     3839    32862    2          ST$$ -> SCALAR.NDSC.S = '11'B;
     3840    32863
     3841    32864          /* create SYMBOLIC TERMINAL st */
     3842    32865
     3843    32866    2          CALL BUILD_ST (ST$$, %LEVEL_02, %TYA, %CLASS_ALPHANUMERIC,
     3844    32867    2                         %ELEMENTARY, QLT$$, %LENGTH_12,
     3845    32868    2                  O1COM.CURRENT_CD_ENTRY$ -> LX_CD_I_O.P.TERMINAL$);
     3846    32869
     3847    32870               %UPDATE_QLT$;
     3848    32877
     3849    32878          /* create TEXT_LENGTH st */
     3850    32879
     3851    32880    2          CALL BUILD_ST (ST$$, %LEVEL_02, %TYD, %CLASS_NUMERIC,
     3852    32881    2                         %ELEMENTARY, QLT$$, %LENGTH_4,
     3853    32882    2                  O1COM.CURRENT_CD_ENTRY$ -> LX_CD_I_O.P.TEXT_LENGTH$);
     3854    32883
     3855    32884    2          ST$$ -> SCALAR.NDSC.S = '11'B;
     3856    32885
     3857    32886               %UPDATE_QLT$;
     3858    32893
     3859    32894          /* create END KEY st */
PL6.E3A0      #001=Z8EM$SEMANTICS_DATA_DIV File=Z8EM.:Z8A6TSI                    SAT 08/09/97 12:08 Page:139
     3860    32895
     3861    32896    2          CALL BUILD_ST (ST$$, %LEVEL_02, %TYA, %CLASS_ALPHANUMERIC,
     3862    32897    2                         %ELEMENTARY, QLT$$, %LENGTH_1,
     3863    32898    2                  O1COM.CURRENT_CD_ENTRY$ -> LX_CD_I_O.P.END_KEY$);
     3864    32899
     3865    32900               %UPDATE_QLT$;
     3866    32907
     3867    32908          /* create STATUS KEY st */
     3868    32909
     3869    32910    2          CALL BUILD_ST (ST$$, %LEVEL_02, %TYA, %CLASS_ALPHANUMERIC,
     3870    32911    2                         %ELEMENTARY, QLT$$, %LENGTH_2,
     3871    32912    2                  O1COM.CURRENT_CD_ENTRY$ -> LX_CD_I_O.P.STATUS_KEY$);
     3872    32913
     3873    32914               %UPDATE_QLT$;
     3874    32921
     3875    32922    2          CALL GET_CD_BUFFER_LENGTH (O1COM.CURRENT_CD_ENTRY$ -> LX_CD_I_O.BLOCK$,
     3876    32923    2                                     BUFFER_LENGTH);
     3877    32924
     3878    32925               %NEW_CD_LTS (@POINTER = CD_LTS$$,
     3879    32926                            @LX_CD_TYPE = %LX_CD_I_O,
     3880    32927                            @CD_ST$     = CD_ST$$,
     3881    32928                            @WORK_ST$   = WORK_ST$$,
     3882    32929                            @BUFFER_LENGTH = BUFFER_LENGTH,
     3883    32930                            @INITIAL    = O1COM.CURRENT_CD_ENTRY$ -> LX_CD_I_O.B.INITIAL);
     3884    33032
     3885    33033    2          CALL Z8DO$LINK_WITH_LTS (CD_ST$$ -> SCALAR.LTS$, CD_LTS$$);
     3886    33034
     3887    33035               %DISPOSE_HEAP (@POINTER = O1COM.CURRENT_CD_ENTRY$,
     3888    33036                              @SIZE    = "LENGTHW (LX_CD_I_O)");
     3889    33041
     3890    33042    2          O1COM.CURRENT_CD_ENTRY$ = CD_LTS$$;
     3891    33043
     3892    33044    2    END PROCESS_I_O_CD;
     3893    33045         %EJECT;
PL6.E3A0      #001=Z8EM$SEMANTICS_DATA_DIV File=Z8EM.:Z8A6TSI                    SAT 08/09/97 12:08 Page:140
     3894    33046
     3895    33047
     3896    33048
     3897    33049         /*=================*/
     3898    33050    1      PROCESS_OUTPUT_CD: PROC;
     3899    33051         /*=================*/
     3900    33052
     3901    33053
     3902    33054    2   DCL WORK_ST$$          PTR;
     3903    33055    2   DCL CD_ST$$            PTR;
     3904    33056    2   DCL BUFFER_LENGTH      SBIN WORD;
     3905    33057    2   DCL CD_LTS$$           PTR;
     3906    33058    2   DCL PREV_QLT$          PTR;
     3907    33059    2   DCL QLT$$              PTR;
     3908    33060    2   DCL ST$$               PTR;
     3909    33061    2   DCL OCCURS_INT         SBIN WORD;
     3910    33062
     3911    33063
     3912    33064    2          CALL ALLOCATE_CD_WORK_AREA (WORK_ST$$);
     3913    33065
     3914    33066          /* CD name st item */
     3915    33067
     3916    33068    2          CALL BUILD_ST (CD_ST$$, %LEVEL_00, %TYA, %CLASS_ALPHANUMERIC,
     3917    33069    2                         %GROUP, QLT$$, %LENGTH_0,
     3918    33070    2                  O1COM.CURRENT_CD_ENTRY$ -> LX_CD_OUTPUT.CD_NAME$);
     3919    33071    2          PREV_QLT$ = QLT$$;
     3920    33072               %UPDATE_PREV_QLT$ (@NEW_QLT$ = QLT$$);
     3921    33079
     3922    33080    2          CALL BUILD_ST (ST$$, %LEVEL_01, %TYA, %CLASS_ALPHANUMERIC,
     3923    33081    2                         %GROUP, QLT$$, %LENGTH_0,
     3924    33082    2                         ADDR(NIL));
     3925    33083    2          PREV_QLT$ -> QLT.SON = QLT$$;
     3926    33084    2          QLT$$ -> QLT.FATHER = PREV_QLT$;
     3927    33085    2          PREV_QLT$ = QLT$$;
     3928    33086    2          COMCOM.PREV_QLT$ = QLT$$;
     3929    33087
     3930    33088          /* create DESTINATION COUNT st */
PL6.E3A0      #001=Z8EM$SEMANTICS_DATA_DIV File=Z8EM.:Z8A6TSI                    SAT 08/09/97 12:08 Page:141
     3931    33089
     3932    33090    2          CALL BUILD_ST (ST$$, %LEVEL_02, %TYD, %CLASS_NUMERIC,
     3933    33091    2                         %ELEMENTARY, QLT$$, %LENGTH_4,
     3934    33092    2                  O1COM.CURRENT_CD_ENTRY$ -> LX_CD_OUTPUT.P.DESTINATION_COUNT$);
     3935    33093
     3936    33094    2          PREV_QLT$ -> QLT.SON = QLT$$;
     3937    33095    2          QLT$$ -> QLT.FATHER = PREV_QLT$;
     3938    33096    2          PREV_QLT$ = QLT$$;
     3939    33097    2          ST$$ -> SCALAR.NDSC.S = '11'B;
     3940    33098
     3941    33099          /* create TEXT_LENGTH st */
     3942    33100
     3943    33101    2          CALL BUILD_ST (ST$$, %LEVEL_02, %TYD, %CLASS_NUMERIC,
     3944    33102    2                         %ELEMENTARY, QLT$$, %LENGTH_4,
     3945    33103    2                  O1COM.CURRENT_CD_ENTRY$ -> LX_CD_OUTPUT.P.TEXT_LENGTH$);
     3946    33104
     3947    33105    2          ST$$ -> SCALAR.NDSC.S = '11'B;
     3948    33106
     3949    33107               %UPDATE_QLT$;
     3950    33114
     3951    33115          /* create STATUS KEY st */
     3952    33116
     3953    33117    2          CALL BUILD_ST (ST$$, %LEVEL_02, %TYA, %CLASS_ALPHANUMERIC,
     3954    33118    2                         %ELEMENTARY, QLT$$, %LENGTH_2,
     3955    33119    2                  O1COM.CURRENT_CD_ENTRY$ -> LX_CD_OUTPUT.P.STATUS_KEY$);
     3956    33120
     3957    33121               %UPDATE_QLT$;
     3958    33128
     3959    33129          /* create DESTINATION TABLE st */
     3960    33130
     3961    33131    2          CALL BUILD_ST (ST$$, %LEVEL_02, %TYA, %CLASS_ALPHANUMERIC,
     3962    33132    2                         %GROUP, QLT$$, %LENGTH_0,
     3963    33133    2                  O1COM.CURRENT_CD_ENTRY$ -> LX_CD_OUTPUT.P.DESTINATION_TABLE$);
     3964    33134               %UPDATE_QLT$;
     3965    33141
     3966    33142    2          IF O1COM.CURRENT_CD_ENTRY$ -> LX_CD_OUTPUT.P.OCCURS$ ~= ADDR(NIL) THEN
     3967    33143    3            DO;
PL6.E3A0      #001=Z8EM$SEMANTICS_DATA_DIV File=Z8EM.:Z8A6TSI                    SAT 08/09/97 12:08 Page:142
     3968    33144    3              CALL PROCESS_CD_OCCURS (OCCURS_INT,
     3969    33145    3                          O1COM.CURRENT_CD_ENTRY$ -> LX_CD_OUTPUT.P.OCCURS$,
     3970    33146    3                          O1COM.CURRENT_CD_ENTRY$ -> LX_CD_OUTPUT.P.INDEX_LIST$,
     3971    33147    3                          ST$$);
     3972    33148    3            END;
     3973    33149    2          ELSE
     3974    33150    2            OCCURS_INT = 1;
     3975    33151
     3976    33152          /* create ERROR KEY st */
     3977    33153
     3978    33154    2          CALL BUILD_ST (ST$$, %LEVEL_03, %TYA, %CLASS_ALPHANUMERIC,
     3979    33155    2                         %ELEMENTARY, QLT$$, %LENGTH_1,
     3980    33156    2                  O1COM.CURRENT_CD_ENTRY$ -> LX_CD_OUTPUT.P.ERROR_KEY$);
     3981    33157
     3982    33158    2          PREV_QLT$ -> QLT.SON = QLT$$;
     3983    33159    2          QLT$$ -> QLT.FATHER = PREV_QLT$;
     3984    33160    2          PREV_QLT$ = QLT$$;
     3985    33161
     3986    33162          /* create SYMBOLIC DESTINATION st */
     3987    33163
     3988    33164    2          CALL BUILD_ST (ST$$, %LEVEL_03, %TYA, %CLASS_ALPHANUMERIC,
     3989    33165    2                         %ELEMENTARY, QLT$$, %LENGTH_12,
     3990    33166    2                  O1COM.CURRENT_CD_ENTRY$ -> LX_CD_OUTPUT.P.SYMBOLIC_DESTINATION$);
     3991    33167
     3992    33168               %UPDATE_QLT$;
     3993    33175
     3994    33176
     3995    33177    2          CALL GET_CD_BUFFER_LENGTH (O1COM.CURRENT_CD_ENTRY$ -> LX_CD_OUTPUT.BLOCK$,
     3996    33178    2                                     BUFFER_LENGTH);
     3997    33179
     3998    33180               %NEW_CD_LTS (@POINTER = CD_LTS$$,
     3999    33181                            @LX_CD_TYPE = %LX_CD_OUTPUT,
     4000    33182                            @CD_ST$     = CD_ST$$,
     4001    33183                            @WORK_ST$   = WORK_ST$$,
     4002    33184                            @BUFFER_LENGTH = BUFFER_LENGTH,
     4003    33185                            @OCCURS     = OCCURS_INT);
     4004    33287
PL6.E3A0      #001=Z8EM$SEMANTICS_DATA_DIV File=Z8EM.:Z8A6TSI                    SAT 08/09/97 12:08 Page:143
     4005    33288    2          CALL Z8DO$LINK_WITH_LTS (CD_ST$$ -> SCALAR.LTS$, CD_LTS$$);
     4006    33289
     4007    33290               %DISPOSE_HEAP (@POINTER = O1COM.CURRENT_CD_ENTRY$,
     4008    33291                              @SIZE    = "LENGTHW (LX_CD_OUTPUT)");
     4009    33296
     4010    33297    2          O1COM.CURRENT_CD_ENTRY$ = CD_LTS$$;
     4011    33298
     4012    33299    2    END PROCESS_OUTPUT_CD;
     4013    33300         %EJECT;
PL6.E3A0      #001=Z8EM$SEMANTICS_DATA_DIV File=Z8EM.:Z8A6TSI                    SAT 08/09/97 12:08 Page:144
     4014    33301        /*=======================*/
     4015    33302    1     PROCESS_REMAINING_TABLE: PROC (ALPHA_ST$, NEXT_SEQ#);
     4016    33303        /*=======================*/
     4017    33304
     4018    33305    2   DCL ALPHA_ST$          PTR;
     4019    33306    2   DCL TABLE$             PTR;
     4020    33307    2   DCL NEXT_SEQ#          UBIN WORD;
     4021    33308
     4022    33309    2   DCL I                  SBIN WORD;
     4023    33310    2   DCL HIGH               SBIN WORD;
     4024    33311    2   DCL 1 TABLE            ALIGNED BASED,
     4025    33312    2       2 ELEMENT          (0:511) UBIN (9) UNAL;
     4026    33313    2   DCL LAST               SBIN WORD;
     4027    33314    2   DCL TABLE_START$       PTR;
     4028    33315
     4029    33316    2      TABLE_START$ = ALPHA_ST$ -> ALPHABET.TABLE$;
     4030    33317
     4031    33318    2      IF ALPHA_ST$ -> ALPHABET.NUM_VALUES > 256
     4032    33319    2      OR ALPHA_ST$ -> ALPHABET.B.GTR_255 THEN
     4033    33320    2        HIGH = 511;
     4034    33321    2      ELSE
     4035    33322    2        HIGH = 255;
     4036    33323
     4037    33324    3      DO I = 0 TO HIGH;
     4038    33325    3        IF TABLE_START$ -> TABLE.ELEMENT (I) = BITBIN('777'O) THEN
     4039    33326    4          DO;
     4040    33327    4            TABLE_START$ -> TABLE.ELEMENT (I) = NEXT_SEQ#;
     4041    33328    4            NEXT_SEQ# = NEXT_SEQ# + 1;
     4042    33329    4          END;
     4043    33330    3      END; /* Iterated do */
     4044    33331
     4045    33332    3      DO I = (HIGH + 1) TO 511;
     4046    33333    3        TABLE_START$ -> TABLE.ELEMENT (I) = BITBIN('134'O);/* Backslash -- \ -- */
     4047    33334    3      END; /* Iterated do */
     4048    33335
     4049    33336    2      LAST = 0;
     4050    33337
PL6.E3A0      #001=Z8EM$SEMANTICS_DATA_DIV File=Z8EM.:Z8A6TSI                    SAT 08/09/97 12:08 Page:145
     4051    33338    3      DO I = 0 TO HIGH;
     4052    33339    3        IF TABLE_START$ -> TABLE.ELEMENT(I)
     4053    33340    3        >  TABLE_START$ -> TABLE.ELEMENT(LAST) THEN
     4054    33341    3          LAST = I;
     4055    33342    3      END;
     4056    33343
     4057    33344    2      ALPHA_ST$ -> ALPHABET.HIGH_VALUE = LAST;
     4058    33345
     4059    33346    2   END PROCESS_REMAINING_TABLE;
     4060    33347        %EJECT;
PL6.E3A0      #001=Z8EM$SEMANTICS_DATA_DIV File=Z8EM.:Z8A6TSI                    SAT 08/09/97 12:08 Page:146
     4061    33348
     4062    33349          /*====================*/
     4063    33350    1       PROCESS_REPORT_ITEMS:   PROC ;   /* CALLED WHEN {ACT_FD_NDD_END} */
     4064    33351          /*====================*/
     4065    33352
     4066    33353
     4067    33354
     4068    33355    2     DCL REPORT_NAME$         PTR; /* Ptr to LX_ITEM for <report-name> */
     4069    33356    2     DCL LTS_LIST$$           PTR;
     4070    33357    2     DCL RD$$                 PTR; /* Ptr to RD st item */
     4071    33358    2     DCL ST$$                 PTR;
     4072    33359    2     DCL QLT_FATHER$$         PTR; /* Ptr to file name QLT */
     4073    33360    2     DCL QLT$$                PTR;
     4074    33361    2     DCL LIST$$               PTR;
     4075    33362
     4076    33363          /*
     4077    33364                 Functions performed:
     4078    33365                    1. Init RD ST item
     4079    33366                    2. Enter in QLT
     4080    33367                    3. Init REPORT_LTS item
     4081    33368                    4. Duplicate report name check
     4082    33369                    5. Link QLTs of the reports in one file
     4083    33370                    6. Let the file QLT be the father of the report QLT
     4084    33371
     4085    33372          */
     4086    33373
     4087    33374          %EJECT;
PL6.E3A0      #001=Z8EM$SEMANTICS_DATA_DIV File=Z8EM.:Z8A6TSI                    SAT 08/09/97 12:08 Page:147
     4088    33375
     4089    33376    2     LIST$$ = O1COM.CURRENT_FILE_LTS$ -> FILE_LTS.REPORT$ ;
     4090    33377
     4091    33378    2     LTS_LIST$$ = ADDR(NIL);
     4092    33379
     4093    33380    2     QLT_FATHER$$ = O1COM.CURRENT_FILE_LTS$ -> FILE_LTS.ST$ -> FD.QLT$;
     4094    33381    2     REPORT_NAME$ = LIST$$ -> LX_LIST.HEAD$ ;
     4095    33382
     4096    33383
     4097    33384    3     DO WHILE (REPORT_NAME$ ~= ADDR(NIL));
     4098    33385
     4099    33386    3       CALL NEW_REPORT (REPORT_NAME$, RD$$) ;
     4100    33387
     4101    33388    3       CALL Z8DO$QUALIFY_TERMINAL (REPORT_NAME$, ST$$) ;
     4102    33389
     4103    33390            /* Link the LTSs to the FILT_LTS.REPORT$ */
     4104    33391    3       IF LTS_LIST$$ = ADDR(NIL) THEN
     4105    33392    4         DO;
     4106    33393    4           O1COM.CURRENT_FILE_LTS$ -> FILE_LTS.REPORT$ = RD$$ -> RD.LTS$;
     4107    33394    4           O1COM.CURRENT_REPORT_LTS$ = RD$$ -> RD.LTS$;
     4108    33395    4         END;
     4109    33396    3       ELSE
     4110    33397    3         LTS_LIST$$ -> REPORT_LTS.LINK = RD$$ -> RD.LTS$;
     4111    33398
     4112    33399
     4113    33400    3       LTS_LIST$$ = RD$$ -> RD.LTS$ ;
     4114    33401
     4115    33402    3       REPORT_NAME$ = REPORT_NAME$ -> LX_ITEM.LINK ;
     4116    33403
     4117    33404    3     END;  /* End while */
     4118    33405
     4119    33406    2     CALL Z8ED$DISPOSE_ABSSYN_TREE (LIST$$) ;
     4120    33407
     4121    33408    2     END PROCESS_REPORT_ITEMS ;
     4122    33409          %EJECT;
PL6.E3A0      #001=Z8EM$SEMANTICS_DATA_DIV File=Z8EM.:Z8A6TSI                    SAT 08/09/97 12:08 Page:148
     4123    33410        /*=====================*/
     4124    33411    1     PROCESS_SYMBOLIC_CHAR: PROC (LIST$, ALPHA$);
     4125    33412        /*=====================*/
     4126    33413
     4127    33414    2   DCL ALPHA$             PTR;
     4128    33415    2   DCL LIST$              PTR;
     4129    33416
     4130    33417    2   DCL CHAR_LIST$         PTR;
     4131    33418    2   DCL INT_LIST$          PTR;
     4132    33419    2   DCL DN_LIST$           PTR;
     4133    33420    2   DCL INT                SBIN WORD;
     4134    33421
     4135    33422
     4136    33423    2        DN_LIST$  = LIST$ -> LX_LIST.HEAD$;
     4137    33424    2        INT_LIST$ = DN_LIST$ -> LX_LIST.LINK;
     4138    33425
     4139    33426    2        IF INT_LIST$ -> LX_LIST.COUNT ~= DN_LIST$ -> LX_LIST.COUNT THEN
     4140    33427    3          DO;
     4141    33428    3            DN_LIST$ = DN_LIST$ -> LX_LIST.HEAD$;
     4142    33429    3            CALL Z8AE$ERROR (%E$DIFF_#_INTS_AND_DNS,
     4143    33430    3                             DN_LIST$ -> LX_TERMINAL.LINE,
     4144    33431    3                             DN_LIST$ -> LX_TERMINAL.COLUMN);
     4145    33432    3            RETURN;
     4146    33433    3          END;
     4147    33434
     4148    33435    2        DN_LIST$ = DN_LIST$ -> LX_LIST.HEAD$;
     4149    33436    2        INT_LIST$ = INT_LIST$ -> LX_LIST.HEAD$;
     4150    33437
     4151    33438    3        DO WHILE (DN_LIST$ ~= ADDR(NIL));
     4152    33439    3          CALL CHARBIN (INT,
     4153    33440    3                        INT_LIST$ -> LX_TERMINAL.DNT$ -> DNT.TEXT.NAME);
     4154    33441
     4155    33442    3          INT = INT - 1;
     4156    33443
     4157    33444    3          CALL VERIFY_SYMBOLIC_CHARACTER (INT, INT_LIST$, DN_LIST$)
     4158    33445    3            WHENALTRETURN
     4159    33446    4              DO;
PL6.E3A0      #001=Z8EM$SEMANTICS_DATA_DIV File=Z8EM.:Z8A6TSI                    SAT 08/09/97 12:08 Page:149
     4160    33447    4                RETURN;
     4161    33448    4              END;
     4162    33449
     4163    33450    3          CALL CREATE_SYMBOLIC_CHAR (INT, DN_LIST$, ALPHA$);
     4164    33451
     4165    33452    3          DN_LIST$  = DN_LIST$ -> LX_TERMINAL.LINK;
     4166    33453    3          INT_LIST$ = INT_LIST$ -> LX_TERMINAL.LINK;
     4167    33454    3        END;
     4168    33455
     4169    33456    2   END PROCESS_SYMBOLIC_CHAR;
     4170    33457        %EJECT;
PL6.E3A0      #001=Z8EM$SEMANTICS_DATA_DIV File=Z8EM.:Z8A6TSI                    SAT 08/09/97 12:08 Page:150
     4171    33458
     4172    33459         /*===================*/
     4173    33460    1      PROCESS_USER_LABELS: PROC;
     4174    33461         /*===================*/
     4175    33462
     4176    33463    2   DCL BRO$           PTR;
     4177    33464    2   DCL PTR_ARRAY$     PTR;
     4178    33465    2   DCL LABEL_COUNT    SBIN WORD;
     4179    33466    2   DCL I              SBIN WORD;
     4180    33467    2   DCL TERM$          PTR;
     4181    33468    2   DCL ST$$           PTR;
     4182    33469
     4183    33470
     4184    33471
     4185    33472         %MACRO REPORT_DUP_ERROR;
     4186    33473
     4187    33474             %CONDITIONAL_ERROR (@LX_ITEM$    = TERM$,
     4188    33475                                 @ERROR#      = %E$DUPLICATE_NAME,
     4189    33476                                 @LINE        = TERM$ -> LX_ITEM.LINE,
     4190    33477                                 @COLUMN      = TERM$ -> LX_ITEM.COLUMN);
     4191    33478
     4192    33479         %MEND;
     4193    33480
     4194    33481         %MACRO CREATE_USER_LABEL_AREA (@AREA = );
     4195    33482           DO;
     4196    33483             IF BRO$ = ADDR(NIL) THEN
     4197    33484               DO;
     4198    33485                 BRO$ = O1COM.CURRENT_FILE_LTS$ -> FILE_LTS.ST$ -> FD.QLT$ -> QLT.SON;
     4199    33486                 DO WHILE (BRO$ -> QLT.BROTHER ~= ADDR(NIL));
     4200    33487                   BRO$ = BRO$ -> QLT.BROTHER;
     4201    33488                 END; /* WHILE */
     4202    33489               END;
     4203    33490
     4204    33491             %NEW_SCALAR (@ST$         = ST$$,
     4205    33492                          @LINE_NO     = TERM$ -> LX_ITEM.LINE,
     4206    33493                          @DNT$        = TERM$ -> LX_ITEM.DNT$,
     4207    33494                          @NEXT        = TERM$ -> LX_TERMINAL.DNT$ -> DNT.ST$,
PL6.E3A0      #001=Z8EM$SEMANTICS_DATA_DIV File=Z8EM.:Z8A6TSI                    SAT 08/09/97 12:08 Page:151
     4208    33495                          @TYPE        = %TYA,
     4209    33496                          @ELEMENTARY  = TRUE,
     4210    33497                          @CLASS       = %CLASS_ALPHANUMERIC);
     4211    33498
     4212    33499             ST$$ -> ST.ADSC.N = 80;
     4213    33500             TERM$ -> LX_TERMINAL.DNT$ -> DNT.ST$ = ST$$;
     4214    33501             PTR_ARRAY$ -> LTS_PTR_ARRAY.P$(@AREA) = ST$$;
     4215    33502
     4216    33503             %NEW_QLT (@POINTER = ST$$ -> SCALAR.QLT$,
     4217    33504                       @LEVEL#  = 1,
     4218    33505                       @FATHER  = BRO$ -> QLT.FATHER,
     4219    33506                       @ST$     = ST$$,
     4220    33507                       @DNT$    = TERM$ -> LX_TERMINAL.DNT$);
     4221    33508
     4222    33509             BRO$ -> QLT.BROTHER = ST$$ -> SCALAR.QLT$;
     4223    33510             BRO$ = BRO$ -> QLT.BROTHER;
     4224    33511           END;
     4225    33512         %MEND;
     4226    33513
     4227    33514        %EJECT;
PL6.E3A0      #001=Z8EM$SEMANTICS_DATA_DIV File=Z8EM.:Z8A6TSI                    SAT 08/09/97 12:08 Page:152
     4228    33515
     4229    33516    2      BRO$ = ADDR(NIL);
     4230    33517    2      LABEL_COUNT = 0;
     4231    33518
     4232    33519           %NEW_LTS_PTR_ARRAY (@POINTER = PTR_ARRAY$,
     4233    33520                               @SIZE    = %USER_LABEL_TABLE_SIZE);
     4234    33613
     4235    33614    3      DO I = 0 TO %USER_LABEL_TABLE_SIZE -1;
     4236    33615    3        PTR_ARRAY$ -> LTS_PTR_ARRAY.P$ (I) = ADDR(NIL);
     4237    33616    3      END;
     4238    33617
     4239    33618    2      TERM$ = O1COM.CURRENT_FILE_LTS$ -> FILE_LTS.LABEL_RECORDS$ -> LX_LIST.HEAD$;
     4240    33619
     4241    33620    3      DO WHILE (TERM$ ~= ADDR(NIL));
     4242    33621
     4243    33622    4        DO SELECT (TERM$ -> LX_TERMINAL.DNT$ -> DNT.TEXT.NAME);
     4244    33623    4          SELECT ('BEGINNING-FILE-LABEL');
     4245    33624    4            IF O1COM.CURRENT_FILE_LTS$ -> FILE_LTS.B.BEGIN_FILE_LABEL THEN
     4246    33625                   %REPORT_DUP_ERROR;
     4247    33660    4            ELSE
     4248    33661    5              DO;
     4249    33662    5                O1COM.CURRENT_FILE_LTS$ -> FILE_LTS.B.BEGIN_FILE_LABEL = TRUE;
     4250    33663    5                LABEL_COUNT = LABEL_COUNT + 1;
     4251    33664
     4252    33665                     %CREATE_USER_LABEL_AREA (@AREA = %BEGINNING_FILE_LABEL);
     4253    33916    5              END;
     4254    33917
     4255    33918    4          SELECT ('BEGINNING-TAPE-LABEL');
     4256    33919    4            IF O1COM.CURRENT_FILE_LTS$ -> FILE_LTS.B.BEGIN_TAPE_LABEL THEN
     4257    33920                   %REPORT_DUP_ERROR;
     4258    33955    4            ELSE
     4259    33956    5              DO;
     4260    33957    5                O1COM.CURRENT_FILE_LTS$ -> FILE_LTS.B.BEGIN_TAPE_LABEL = TRUE;
     4261    33958    5                LABEL_COUNT = LABEL_COUNT + 1;
     4262    33959
     4263    33960                     %CREATE_USER_LABEL_AREA (@AREA = %BEGINNING_TAPE_LABEL);
     4264    34211    5              END;
PL6.E3A0      #001=Z8EM$SEMANTICS_DATA_DIV File=Z8EM.:Z8A6TSI                    SAT 08/09/97 12:08 Page:153
     4265    34212
     4266    34213    4          SELECT ('ENDING-FILE-LABEL');
     4267    34214    4            IF O1COM.CURRENT_FILE_LTS$ -> FILE_LTS.B.END_FILE_LABEL THEN
     4268    34215                   %REPORT_DUP_ERROR;
     4269    34250    4            ELSE
     4270    34251    5              DO;
     4271    34252    5                O1COM.CURRENT_FILE_LTS$ -> FILE_LTS.B.END_FILE_LABEL = TRUE;
     4272    34253    5                LABEL_COUNT = LABEL_COUNT + 1;
     4273    34254
     4274    34255                     %CREATE_USER_LABEL_AREA (@AREA = %ENDING_FILE_LABEL);
     4275    34506    5              END;
     4276    34507
     4277    34508    4          SELECT ('ENDING-TAPE-LABEL');
     4278    34509    4            IF O1COM.CURRENT_FILE_LTS$ -> FILE_LTS.B.END_TAPE_LABEL THEN
     4279    34510                   %REPORT_DUP_ERROR;
     4280    34545    4            ELSE
     4281    34546    5              DO;
     4282    34547    5                O1COM.CURRENT_FILE_LTS$ -> FILE_LTS.B.END_TAPE_LABEL = TRUE;
     4283    34548    5                LABEL_COUNT = LABEL_COUNT + 1;
     4284    34549
     4285    34550                     %CREATE_USER_LABEL_AREA (@AREA = %ENDING_TAPE_LABEL);
     4286    34801    5              END;
     4287    34802
     4288    34803    4          SELECT (ELSE);
     4289    34804
     4290    34805                 %CONDITIONAL_ERROR (@LX_ITEM$ = TERM$,
     4291    34806                                     @ERROR#   = %E$USER_LABEL_NAME_ERROR,
     4292    34807                                     @LINE     = TERM$ -> LX_ITEM.LINE,
     4293    34808                                     @COLUMN   = TERM$ -> LX_ITEM.COLUMN);
     4294    34838
     4295    34839    4        END; /* DO SELECT */
     4296    34840
     4297    34841    3        TERM$ = TERM$ -> LX_ITEM.LINK;
     4298    34842
     4299    34843    3      END; /* DO WHILE */
     4300    34844
     4301    34845    2      CALL Z8ED$DISPOSE_ABSSYN_TREE (O1COM.CURRENT_FILE_LTS$ ->
PL6.E3A0      #001=Z8EM$SEMANTICS_DATA_DIV File=Z8EM.:Z8A6TSI                    SAT 08/09/97 12:08 Page:154
     4302    34846    2                                              FILE_LTS.LABEL_RECORDS$);
     4303    34847
     4304    34848    2      IF LABEL_COUNT ~= 0 THEN
     4305    34849    3        DO;
     4306    34850    3          CALL Z8AT$CREATE_TEMPORARY (%SCALAR, ST$$);
     4307    34851
     4308    34852    3          ST$$ -> SCALAR.TYPE = %TYA;
     4309    34853    3          ST$$ -> SCALAR.ADSC.N = 16;
     4310    34854    3          ST$$ -> SCALAR.B.CLASS = %CLASS_ALPHANUMERIC;
     4311    34855
     4312    34856    4          DO I = 0 TO %USER_LABEL_TABLE_SIZE - 1;
     4313    34857    4            IF PTR_ARRAY$ -> LTS_PTR_ARRAY.P$(I) ~= ADDR(NIL) THEN
     4314    34858    5              DO;
     4315    34859                     %NEW_ILL (@ID     = %PTR_SET,
     4316    34860                               @LOP    = ST$$,
     4317    34861                               @ROP    = "PTR_ARRAY$ -> LTS_PTR_ARRAY.P$(I)",
     4318    34862                               @OFFSET = I);
     4319    35241    5              END;
     4320    35242    4          END;  /* DO I = ... */
     4321    35243
     4322    35244    3          O1COM.CURRENT_FILE_LTS$ -> FILE_LTS.LABEL_RECORDS$ = ST$$;
     4323    35245
     4324    35246    3        END;
     4325    35247
     4326    35248    2    END PROCESS_USER_LABELS;
     4327    35249         %EJECT;
PL6.E3A0      #001=Z8EM$SEMANTICS_DATA_DIV File=Z8EM.:Z8A6TSI                    SAT 08/09/97 12:08 Page:155
     4328    35250
     4329    35251         /*================*/
     4330    35252    1      RD_NAME_RECOVERY:  PROC (REPORT$, ST$$);
     4331    35253         /*================*/
     4332    35254
     4333    35255
     4334    35256           %EQU RD_RECOVERY_FILE = 'RD_RECOVERY_FILE';
     4335    35257           %EQU RD_RECOVERY_FILE_LENGTH = 16;
     4336    35258
     4337    35259    2      DCL REPORT$            PTR;
     4338    35260    2      DCL ST$$               PTR;
     4339    35261    2      DCL RD$$               PTR;
     4340    35262    2      DCL 1 TEMP_TERMINAL    ALIGNED,
     4341    35263                 %LA_STK_INFO;
     4342    35282    2            2 LINK           PTR;
     4343    35283
     4344    35284
     4345    35285
     4346    35286    2      IF COMCOM.RD_RECOVERY_FILE$ = ADDR(NIL)  THEN
     4347    35287    3        DO;
     4348    35288    3          LEX_SYMBOL.SIZE = %RD_RECOVERY_FILE_LENGTH;
     4349    35289    3          SUBSTR (LEX_SYMBOL.SYMBOL,
     4350    35290    3                  0,
     4351    35291    3                  %RD_RECOVERY_FILE_LENGTH) = %RD_RECOVERY_FILE;
     4352    35292
     4353    35293    3          CALL Z8AH$SEARCH_;
     4354    35294
     4355    35295               %INIT_LX_TERMINAL (@POINTER     = "ADDR(TEMP_TERMINAL)",
     4356    35296                                  @DNT$        = DNT$);
     4357    35314
     4358    35315    3          CALL NEW_FILE (ADDR(TEMP_TERMINAL), RD$$);
     4359    35316
     4360    35317    3          CALL Z9EM$ASSIGN_RECOVERY (RD$$ -> RD.LTS$ -> FILE_LTS.ASSIGN$);
     4361    35318    3          RD$$ -> RD.LTS$ -> FILE_LTS.ORGANIZATION = %SEQUENTIAL;
     4362    35319    3          RD$$ -> RD.LTS$ -> FILE_LTS.ACCESS_MODE = %SEQUENTIAL_ACCESS;
     4363    35320
     4364    35321    3          COMCOM.RD_RECOVERY_FILE$ = RD$$ -> FD.LTS$;
PL6.E3A0      #001=Z8EM$SEMANTICS_DATA_DIV File=Z8EM.:Z8A6TSI                    SAT 08/09/97 12:08 Page:156
     4365    35322
     4366    35323    3        END;
     4367    35324
     4368    35325    2        O1COM.CURRENT_FILE_LTS$ = COMCOM.RD_RECOVERY_FILE$;
     4369    35326    2        CALL NEW_REPORT (REPORT$, ST$$);
     4370    35327
     4371    35328    2        ST$$ ->RD.LTS$ -> REPORT_LTS.LINK = COMCOM.RD_RECOVERY_FILE$ -> FILE_LTS.
             35328                 REPORT$;
     4372    35329
     4373    35330    2        COMCOM.RD_RECOVERY_FILE$ -> FILE_LTS.REPORT$ = ST$$ -> RD.LTS$;
     4374    35331
     4375    35332    2      END RD_NAME_RECOVERY;
     4376    35333           %EJECT;
PL6.E3A0      #001=Z8EM$SEMANTICS_DATA_DIV File=Z8EM.:Z8A6TSI                    SAT 08/09/97 12:08 Page:157
     4377    35334
     4378    35335
     4379    35336
     4380    35337          /*========*/
     4381    35338    1       RD_START:   PROC (REPORT$);
     4382    35339          /*========*/
     4383    35340
     4384    35341
     4385    35342
     4386    35343    2       DCL REPORT$                PTR;
     4387    35344    2       DCL ST$$                   PTR;
     4388    35345
     4389    35346
     4390    35347    2          IF COMCOM.OB.FIPS.RPW THEN
     4391    35348    2            CALL Z8AE$ERROR (%E$LEVEL_CHECK,
     4392    35349    2                             O1COM.LX_STK.LINE(O1COM.LX_TOP - 1),
     4393    35350    2                             O1COM.LX_STK.COLUMN(O1COM.LX_TOP - 1));
     4394    35351
     4395    35352    2       CALL Z8DO$QUALIFY_TERMINAL (REPORT$, ST$$)
     4396    35353    2         WHENALTRETURN
     4397    35354    3           DO;
     4398    35355    3             IF ST$$ -> RD.B.COMPILER_CREATED THEN
     4399    35356    4               DO;
     4400    35357    4                  ST$$ -> RD.DNT$ -> DNT.ST$ = ST$$ -> RD.NEXT;
     4401    35358    4                  CALL RD_NAME_RECOVERY (REPORT$, ST$$);
     4402    35359    4               END;
     4403    35360    3               ELSE
     4404    35361    3                  CALL FIND_REPORT ( REPORT$, ST$$);
     4405    35362    3           END;
     4406    35363
     4407    35364
     4408    35365    2       IF ST$$ -> ST.ID ~= %RD THEN
     4409    35366    3         DO;
     4410    35367                %CONDITIONAL_ERROR (@LX_ITEM$     = REPORT$,
     4411    35368                                    @ERROR#       = %E$REPORT_NAME_NOT_DECL,
     4412    35369                                    @LINE         = REPORT$ -> LX_TERMINAL.LINE,
     4413    35370                                    @COLUMN       = REPORT$ -> LX_TERMINAL.COLUMN,
PL6.E3A0      #001=Z8EM$SEMANTICS_DATA_DIV File=Z8EM.:Z8A6TSI                    SAT 08/09/97 12:08 Page:158
     4414    35371                                    @PLUG1        = REPORT$ -> LX_TERMINAL.DNT$);
     4415    35401
     4416    35402    3           CALL RD_NAME_RECOVERY (REPORT$, ST$$);
     4417    35403    3         END;
     4418    35404
     4419    35405    2       IF ST$$ -> RD.QLT$ -> QLT.SON ~= ADDR(NIL) THEN
     4420    35406    3         DO;
     4421    35407                %CONDITIONAL_ERROR (@LX_ITEM$     = REPORT$,
     4422    35408                                    @ERROR#       = %E$RD_ALREADY_EXISTS,
     4423    35409                                    @LINE         = REPORT$ -> LX_TERMINAL.LINE,
     4424    35410                                    @COLUMN       = REPORT$ -> LX_TERMINAL.COLUMN);
     4425    35440
     4426    35441    3           CALL RD_NAME_RECOVERY (REPORT$, ST$$);
     4427    35442    3         END;
     4428    35443
     4429    35444              %UPDATE_PREV_QLT$ (@NEW_QLT$ = ST$$ -> RD.QLT$);
     4430    35451
     4431    35452    2         O1COM.CURRENT_REPORT_LTS$ = ST$$ -> RD.LTS$;
     4432    35453
     4433    35454    2         CALL NEW_PAGE_COUNTER (ST$$, REPORT$);
     4434    35455
     4435    35456    2         CALL NEW_LINE_COUNTER (ST$$, REPORT$);
     4436    35457
     4437    35458    2         CALL NEW_AFTER_AREA (ST$$, REPORT$);
     4438    35459
     4439    35460    2         O1COM.LEVEL_NO = 0;
     4440    35461    2         REP_STK_PTR = 0;
     4441    35462
     4442    35463    2      END RD_START;
     4443    35464           %EJECT;
PL6.E3A0      #001=Z8EM$SEMANTICS_DATA_DIV File=Z8EM.:Z8A6TSI                    SAT 08/09/97 12:08 Page:159
     4444    35465
     4445    35466        /*===============*/
     4446    35467    1     RECORD_CONTAINS: PROC (KEYWORD$, INT$, DEPEND$);
     4447    35468        /*===============*/
     4448    35469
     4449    35470    2        DCL KEYWORD$             PTR;
     4450    35471    2        DCL INT$                 PTR;
     4451    35472    2        DCL DEPEND$              PTR;
     4452    35473
     4453    35474    2        DCL INT1                 SBIN;
     4454    35475    2        DCL INT2                 SBIN;
     4455    35476    2        DCL TEMP                 SBIN;
     4456    35477    2        DCL P$                   PTR;
     4457    35478
     4458    35479
     4459    35480    2        IF O1COM.CURRENT_FILE_LTS$ -> FILE_LTS.B.RECORD_CONTAINS THEN
     4460    35481    3          DO;
     4461    35482                 %CONDITIONAL_ERROR (@LX_ITEM$ = KEYWORD$,
     4462    35483                                     @ERROR#   = %E$DUP_DD_CLAUSE,
     4463    35484                                     @LINE     = KEYWORD$ -> LX_ITEM.LINE,
     4464    35485                                     @COLUMN   = KEYWORD$ -> LX_ITEM.COLUMN,
     4465    35486                                     @PLUG1    = KEYWORD$ -> LX_ITEM.DNT$);
     4466    35516
     4467    35517    3            CALL Z8ED$DISPOSE_ABSSYN_TREE (INT$ -> LX_LIST.HEAD$);
     4468    35518
     4469    35519    3            IF DEPEND$ -> LX_LIST.ID = %LX_LIST THEN
     4470    35520    3              CALL Z8ED$DISPOSE_ABSSYN_TREE (DEPEND$ -> LX_LIST.HEAD$);
     4471    35521
     4472    35522    3            RETURN;
     4473    35523    3          END;
     4474    35524
     4475    35525    2        INT1 = 0;
     4476    35526    2        INT2 = 0;
     4477    35527
     4478    35528    2        O1COM.CURRENT_FILE_LTS$ -> FILE_LTS.B.RECORD_CONTAINS = TRUE;
     4479    35529
     4480    35530    2        P$ = INT$ -> LX_LIST.HEAD$;
PL6.E3A0      #001=Z8EM$SEMANTICS_DATA_DIV File=Z8EM.:Z8A6TSI                    SAT 08/09/97 12:08 Page:160
     4481    35531
     4482    35532    2        CALL CHARBIN (INT1,
     4483    35533    2                      P$ -> LX_TERMINAL.DNT$ -> DNT.TEXT.NAME);
     4484    35534
     4485    35535    2        IF INT$ -> LX_LIST.COUNT ~= 1 THEN
     4486    35536    3          DO;
     4487    35537    3            CALL CHARBIN (INT2,
     4488    35538    3                          P$ -> LX_ITEM.LINK -> LX_ITEM.DNT$ -> DNT.TEXT.NAME);
     4489    35539
     4490    35540    3            IF INT1 > INT2 THEN
     4491    35541    4              DO;
     4492    35542                     %CONDITIONAL_ERROR (@LX_ITEM$ = P$,
     4493    35543                                         @ERROR#   = %E$INT2_LSS_INT1,
     4494    35544                                         @LINE     = P$ -> LX_ITEM.LINE,
     4495    35545                                         @COLUMN   = P$ -> LX_ITEM.COLUMN);
     4496    35575
     4497    35576    4                TEMP = INT1;
     4498    35577    4                INT1 = INT2;
     4499    35578    4                INT2 = TEMP;
     4500    35579    4              END;
     4501    35580    3          END;
     4502    35581    2        ELSE
     4503    35582    3          DO;
     4504    35583    3            INT2 = INT1;
     4505    35584    3            INT1 = 0;
     4506    35585    3          END;
     4507    35586
     4508    35587    2        O1COM.CURRENT_FILE_LTS$ -> FILE_LTS.RECORD_CONTAINS.INT_1 = INT1;
     4509    35588    2        O1COM.CURRENT_FILE_LTS$ -> FILE_LTS.RECORD_CONTAINS.INT_2 = INT2;
     4510    35589
     4511    35590    2        IF DEPEND$ -> LX_ITEM.ID = %LX_LIST THEN
     4512    35591    3          DO;
     4513    35592    3            O1COM.CURRENT_FILE_LTS$ -> FILE_LTS.B.RECORD_FORMAT_2 = TRUE;
     4514    35593
     4515    35594                 %NEW_COPY_LX_ITEM (@FROM$ = DEPEND$,
     4516    35595                  @TO$ = O1COM.CURRENT_FILE_LTS$ -> FILE_LTS.RECORD_CONTAINS.DEPENDING$);
     4517    35607    3          END;
PL6.E3A0      #001=Z8EM$SEMANTICS_DATA_DIV File=Z8EM.:Z8A6TSI                    SAT 08/09/97 12:08 Page:161
     4518    35608
     4519    35609    2        CALL Z8ED$DISPOSE_ABSSYN_TREE (INT$ -> LX_LIST.HEAD$);
     4520    35610
     4521    35611    2   END RECORD_CONTAINS;
     4522    35612        %EJECT;
PL6.E3A0      #001=Z8EM$SEMANTICS_DATA_DIV File=Z8EM.:Z8A6TSI                    SAT 08/09/97 12:08 Page:162
     4523    35613        /*============*/
     4524    35614    1     RECORD_DELIM: PROC (DELIM$);
     4525    35615        /*============*/
     4526    35616
     4527    35617    2        DCL DELIM$        PTR;
     4528    35618
     4529    35619
     4530    35620    2            CALL CHECK_REL_ORG (DELIM$)
     4531    35621    2              WHENALTRETURN
     4532    35622    3                DO;
     4533    35623    3                  RETURN;
     4534    35624    3                END;
     4535    35625
     4536    35626    2            CALL CHECK_IND_ORG (DELIM$)
     4537    35627    2              WHENALTRETURN
     4538    35628    3                DO;
     4539    35629    3                  RETURN;
     4540    35630    3                END;
     4541    35631
     4542    35632    2            CALL CHECK_KEY_ORG (DELIM$)
     4543    35633    2              WHENALTRETURN
     4544    35634    3                DO;
     4545    35635    3                  RETURN;
     4546    35636    3                END;
     4547    35637
     4548    35638    2        IF O1COM.CURRENT_FILE_LTS$ -> FILE_LTS.RECORD_DELIM = %NOT_SPECIFIED THEN
     4549    35639    2          O1COM.CURRENT_FILE_LTS$ -> FILE_LTS.RECORD_DELIM = %STANDARD_DELIMITER;
     4550    35640    2        ELSE
     4551    35641               %CONDITIONAL_ERROR (@LX_ITEM$ = DELIM$,
     4552    35642                                   @ERROR#   = %E$DUP_DD_CLAUSE,
     4553    35643                                   @LINE     = DELIM$ -> LX_TERMINAL.LINE,
     4554    35644                                   @COLUMN   = DELIM$ -> LX_TERMINAL.COLUMN,
     4555    35645                                   @PLUG1    = "DNT$_FROM_RSWNO(%RSV_WRD_DELIMITER)");
     4556    35675
     4557    35676    2        IF O1COM.CURRENT_FILE_LTS$ -> FILE_LTS.ASSIGN$ ~= ADDR(NIL) THEN
     4558    35677    2          CALL Z9EM$TAPE_CHECK (DELIM$, O1COM.CURRENT_FILE_LTS$);
     4559    35678
PL6.E3A0      #001=Z8EM$SEMANTICS_DATA_DIV File=Z8EM.:Z8A6TSI                    SAT 08/09/97 12:08 Page:163
     4560    35679    2   END RECORD_DELIM;
     4561    35680        %EJECT;
PL6.E3A0      #001=Z8EM$SEMANTICS_DATA_DIV File=Z8EM.:Z8A6TSI                    SAT 08/09/97 12:08 Page:164
     4562    35681        /*==============*/
     4563    35682    1     RECORD_VARYING: PROC (KEYWORD$, INT$, DEPEND$);
     4564    35683        /*==============*/
     4565    35684
     4566    35685    2        DCL KEYWORD$             PTR;
     4567    35686    2        DCL INT$                 PTR;
     4568    35687    2        DCL DEPEND$              PTR;
     4569    35688
     4570    35689    2        DCL INT1                 SBIN;
     4571    35690    2        DCL P$                   PTR;
     4572    35691    2        DCL INT2                 SBIN;
     4573    35692    2        DCL TEMP                 SBIN;
     4574    35693
     4575    35694
     4576    35695    2        IF O1COM.CURRENT_FILE_LTS$ -> FILE_LTS.B.RECORD_CONTAINS THEN
     4577    35696    3          DO;
     4578    35697                 %CONDITIONAL_ERROR (@LX_ITEM$ = KEYWORD$,
     4579    35698                                     @ERROR#   = %E$DUP_DD_CLAUSE,
     4580    35699                                     @LINE     = KEYWORD$ -> LX_TERMINAL.LINE,
     4581    35700                                     @COLUMN   = KEYWORD$ -> LX_TERMINAL.COLUMN,
     4582    35701                                     @PLUG1    = KEYWORD$ -> LX_TERMINAL.DNT$);
     4583    35731
     4584    35732    3            IF INT$ -> LX_LIST.TAIL$ = ADDR(NIL) THEN
     4585    35733    3              INT$ -> LX_LIST.HEAD$ = ADDR(NIL);
     4586    35734
     4587    35735    3            CALL Z8ED$DISPOSE_ABSSYN_TREE (INT$ -> LX_LIST.HEAD$);
     4588    35736
     4589    35737    3            IF DEPEND$ -> LX_LIST.ID = %LX_LIST THEN
     4590    35738    3              CALL Z8ED$DISPOSE_ABSSYN_TREE (DEPEND$ -> LX_LIST.HEAD$);
     4591    35739
     4592    35740    3            RETURN;
     4593    35741    3          END;
     4594    35742
     4595    35743    3        IF COMCOM.OB.FIPS.LEVEL >= %INT_LEV THEN DO;
     4596    35744    3          CALL Z8AE$ERROR (%E$LEVEL_CHECK,
     4597    35745    3                           KEYWORD$ -> LX_TERMINAL.LINE,
     4598    35746    3                           KEYWORD$ -> LX_TERMINAL.COLUMN);
PL6.E3A0      #001=Z8EM$SEMANTICS_DATA_DIV File=Z8EM.:Z8A6TSI                    SAT 08/09/97 12:08 Page:165
     4599    35747    3        END;
     4600    35748
     4601    35749    2        INT1 = 0;
     4602    35750    2        INT2 = 0;
     4603    35751
     4604    35752    2        O1COM.CURRENT_FILE_LTS$ -> FILE_LTS.B.RECORD_CONTAINS = TRUE;
     4605    35753
     4606    35754    3        DO CASE (INT$ -> LX_ITEM.ID);
     4607    35755
     4608    35756    3          CASE (%LX_LIST);
     4609    35757    3            P$ = INT$ -> LX_LIST.HEAD$;
     4610    35758
     4611    35759    3            CALL CHARBIN (INT1,
     4612    35760    3                          P$ -> LX_ITEM.DNT$ -> DNT.TEXT.NAME);
     4613    35761
     4614    35762    3            IF INT$ -> LX_LIST.COUNT ~= 1 THEN
     4615    35763    4              DO;
     4616    35764    4                CALL CHARBIN (INT2,
     4617    35765    4                              P$ -> LX_ITEM.LINK -> LX_ITEM.DNT$ -> DNT.TEXT.NAME);
     4618    35766
     4619    35767    4                IF INT1 > INT2 THEN
     4620    35768    5                  DO;
     4621    35769                         %CONDITIONAL_ERROR (@LX_ITEM$ = P$,
     4622    35770                                             @LINE   = P$ -> LX_ITEM.LINE,
     4623    35771                                             @COLUMN = P$ -> LX_ITEM.COLUMN,
     4624    35772                                             @ERROR# = %E$INT2_LSS_INT1);
     4625    35802
     4626    35803    5                    TEMP = INT1;
     4627    35804    5                    INT1 = INT2;
     4628    35805    5                    INT2 = TEMP;
     4629    35806    5                  END;
     4630    35807    4              END;
     4631    35808
     4632    35809    3            CALL Z8ED$DISPOSE_ABSSYN_TREE (INT$ -> LX_LIST.HEAD$);
     4633    35810
     4634    35811    3          CASE (%LX_TERMINAL);
     4635    35812    3            IF INT$ -> LX_ITEM.SYMBOL ~= %EMPTY THEN
PL6.E3A0      #001=Z8EM$SEMANTICS_DATA_DIV File=Z8EM.:Z8A6TSI                    SAT 08/09/97 12:08 Page:166
     4636    35813    3              CALL CHARBIN (INT2,
     4637    35814    3                            INT$ -> LX_TERMINAL.DNT$ -> DNT.TEXT.NAME);
     4638    35815
     4639    35816    3          CASE (ELSE);
     4640    35817    3            CALL Z8AE$ERROR (%E$UNEXPECTED_CASE,
     4641    35818    3                             KEYWORD$ -> LX_TERMINAL.LINE,
     4642    35819    3                             KEYWORD$ -> LX_TERMINAL.COLUMN);
     4643    35820
     4644    35821    3        END; /* Case */
     4645    35822
     4646    35823    2        O1COM.CURRENT_FILE_LTS$ -> FILE_LTS.RECORD_CONTAINS.INT_1 = INT1;
     4647    35824    2        O1COM.CURRENT_FILE_LTS$ -> FILE_LTS.RECORD_CONTAINS.INT_2 = INT2;
     4648    35825    2        O1COM.CURRENT_FILE_LTS$ -> FILE_LTS.B.RECORD_FORMAT_2 = TRUE;
     4649    35826
     4650    35827    2        IF DEPEND$ -> LX_ITEM.ID = %LX_LIST THEN
     4651    35828               %NEW_COPY_LX_ITEM (@FROM$ = DEPEND$,
     4652    35829                @TO$ = O1COM.CURRENT_FILE_LTS$ -> FILE_LTS.RECORD_CONTAINS.DEPENDING$);
     4653    35841
     4654    35842
     4655    35843    2   END RECORD_VARYING;
     4656    35844        %EJECT;
PL6.E3A0      #001=Z8EM$SEMANTICS_DATA_DIV File=Z8EM.:Z8A6TSI                    SAT 08/09/97 12:08 Page:167
     4657    35845
     4658    35846         /*===========*/
     4659    35847    1      REPORT_CODE: PROC (KEYWORD$, STRING$);
     4660    35848         /*===========*/
     4661    35849
     4662    35850
     4663    35851    2      DCL KEYWORD$          PTR;    /* To CODE lex item */
     4664    35852    2      DCL STRING$           PTR;    /* To <string> lex item */
     4665    35853    2      DCL LTS$$             PTR;    /* To REPORT_LTS */
     4666    35854    2      DCL DNT$$             PTR;    /* To new DNT item */
     4667    35855    2      DCL STRING_LENGTH     SBIN WORD;
     4668    35856
     4669    35857
     4670    35858
     4671    35859            /*
     4672    35860               1 Check the duplicated clause
     4673    35861               2 Check the length of the string
     4674    35862               3 Update the REPORT_LTS
     4675    35863            */
     4676    35864
     4677    35865
     4678    35866    2      LTS$$ = O1COM.CURRENT_REPORT_LTS$;
     4679    35867
     4680    35868    2      IF LTS$$ -> REPORT_LTS.B.CODE_ON THEN
     4681    35869    3        DO;
     4682    35870    3          CALL Z8AE$ERROR (%E$DUP_DD_CLAUSE,
     4683    35871    3                            KEYWORD$ -> LX_TERMINAL.LINE,
     4684    35872    3                            KEYWORD$ -> LX_TERMINAL.COLUMN,
     4685    35873    3                            DNT$_FROM_RSWNO(%RSV_WRD_CODE));
     4686    35874
     4687    35875    3          RETURN;
     4688    35876    3        END;
     4689    35877
     4690    35878    2          IF COMCOM.OB.FIPS.RPW THEN
     4691    35879    2            CALL Z8AE$ERROR (%E$LEVEL_CHECK,
     4692    35880    2                             KEYWORD$ -> LX_TERMINAL.LINE,
     4693    35881    2                             KEYWORD$ -> LX_TERMINAL.COLUMN);
PL6.E3A0      #001=Z8EM$SEMANTICS_DATA_DIV File=Z8EM.:Z8A6TSI                    SAT 08/09/97 12:08 Page:168
     4694    35882
     4695    35883    2      CALL Z8EC$INTERNAL_STRING_REP (STRING$, DNT$$);
     4696    35884
     4697    35885    2      STRING_LENGTH = DNT$$ -> DNT.TEXT.LENGTH - 2;
     4698    35886
     4699    35887    2      IF STRING_LENGTH ~= 2 THEN
     4700    35888    3        DO;
     4701    35889    3          LTS$$ -> REPORT_LTS.CODE = 'XX';
     4702    35890
     4703    35891    3          IF NOT STRING$ -> LX_TERMINAL.DNT$ -> DNT.B.ERROR_VARIABLE
     4704    35892    3            THEN
     4705    35893    4              DO;
     4706    35894    4                CALL Z8AE$ERROR (%E$MUST_BE_2_CHAR_LONG,
     4707    35895    4                                 STRING$ -> LX_TERMINAL.LINE,
     4708    35896    4                                 STRING$ -> LX_TERMINAL.COLUMN);
     4709    35897    4              END;
     4710    35898    3        END;
     4711    35899    2      ELSE
     4712    35900    2        LTS$$ -> REPORT_LTS.CODE = SUBSTR (DNT$$ -> DNT.TEXT.NAME,
     4713    35901    2                                           1,
     4714    35902    2                                           2);
     4715    35903    2        LTS$$ -> REPORT_LTS.B.CODE_ON = TRUE;
     4716    35904
     4717    35905    2     END REPORT_CODE;
     4718    35906          %EJECT;
PL6.E3A0      #001=Z8EM$SEMANTICS_DATA_DIV File=Z8EM.:Z8A6TSI                    SAT 08/09/97 12:08 Page:169
     4719    35907
     4720    35908         /*==================*/
     4721    35909    1      REPORT_PAGE_FORMAT: PROC  (PAGE$, LINE$);
     4722    35910         /*==================*/
     4723    35911
     4724    35912
     4725    35913           %EQU DEFAULT_HEADING = 1;
     4726    35914           %EQU MAX_PAGE_LINES = 999;
     4727    35915
     4728    35916
     4729    35917    2      DCL PAGE$                 PTR;
     4730    35918    2      DCL LINE$                 PTR;
     4731    35919    2      DCL I                     SBIN WORD;
     4732    35920    2      DCL HEADING               SBIN WORD;
     4733    35921    2      DCL FIRST_DETAIL          SBIN WORD;
     4734    35922    2      DCL LAST_DETAIL           SBIN WORD;
     4735    35923    2      DCL FOOTING               SBIN WORD;
     4736    35924    2      DCL PAGE_LIMIT            SBIN WORD;
     4737    35925    2       DCL CASE_NO             SBIN WORD;
     4738    35926
     4739    35927
     4740    35928    2      IF O1COM.CURRENT_REPORT_LTS$ -> REPORT_LTS.B.PAGE_LIMIT_ON THEN
     4741    35929    3        DO;
     4742    35930               %CONDITIONAL_ERROR (@LX_ITEM$ = PAGE$,
     4743    35931                                   @ERROR#   = %E$DUP_DD_CLAUSE,
     4744    35932                                   @LINE     = PAGE$ -> LX_TERMINAL.LINE,
     4745    35933                                   @COLUMN   = PAGE$ -> LX_TERMINAL.COLUMN,
     4746    35934                                   @PLUG1    = "DNT$_FROM_RSWNO(%RSV_WRD_PAGE)");
     4747    35964    3          GOTO DISPOSE_TREE;
     4748    35965    3        END;
     4749    35966    2      IF COMCOM.OB.FIPS.RPW THEN
     4750    35967             %CONDITIONAL_ERROR (@LX_ITEM$ = PAGE$,
     4751    35968                                 @ERROR#   = %E$LEVEL_CHECK,
     4752    35969                                 @LINE     = PAGE$ -> LX_TERMINAL.LINE,
     4753    35970                                 @COLUMN   = PAGE$ -> LX_TERMINAL.COLUMN);
     4754    36000    2      O1COM.CURRENT_REPORT_LTS$ -> REPORT_LTS.B.PAGE_LIMIT_ON = TRUE;
     4755    36001    2      CALL CHARBIN (PAGE_LIMIT,
PL6.E3A0      #001=Z8EM$SEMANTICS_DATA_DIV File=Z8EM.:Z8A6TSI                    SAT 08/09/97 12:08 Page:170
     4756    36002    2                    LINE$ -> LX_TERMINAL.DNT$ -> DNT.TEXT.NAME);
     4757    36003
     4758    36004    2      IF PAGE_FORMAT.P.HEADING$ = ADDR(NIL) THEN
     4759    36005    2          HEADING = %DEFAULT_HEADING;
     4760    36006    2        ELSE
     4761    36007    3          DO;
     4762    36008    3           CALL CHARBIN (HEADING,
     4763    36009    3                         PAGE_FORMAT.P.HEADING$ -> LX_TERMINAL.DNT$ -> DNT.TEXT.NAME);
     4764    36010
     4765    36011    3           IF HEADING < 1 THEN
     4766    36012    4             DO;
     4767    36013                    /* Number in this HEADING clause must greater or equal to 1 */
     4768    36014    4               CALL Z8AE$ERROR (%E$INT_MUST_GTR_EQU_1,
     4769    36015    4                                PAGE_FORMAT.P.HEADING$ -> LX_TERMINAL.LINE,
     4770    36016    4                                PAGE_FORMAT.P.HEADING$ -> LX_TERMINAL.COLUMN);
     4771    36017    4               HEADING = 1;
     4772    36018    4             END;
     4773    36019    3         END;
     4774    36020
     4775    36021    2      IF PAGE_FORMAT.P.FIRST_DETAIL$ = ADDR(NIL) THEN
     4776    36022    2          FIRST_DETAIL = HEADING;
     4777    36023    2        ELSE
     4778    36024    3          DO;
     4779    36025    3           CALL CHARBIN (FIRST_DETAIL,
     4780    36026    3                         PAGE_FORMAT.P.FIRST_DETAIL$ -> LX_TERMINAL.DNT$ -> DNT.TEXT.
             36026                                  NAME);
     4781    36027
     4782    36028    3           IF FIRST_DETAIL < HEADING THEN
     4783    36029    4             DO;
     4784    36030                    /* The number in this clause is too small */
     4785    36031    4               CALL Z8AE$ERROR (%E$NUM_IS_TOO_SMALL,
     4786    36032    4                                PAGE_FORMAT.P.FIRST_DETAIL$ -> LX_TERMINAL.LINE,
     4787    36033    4                                PAGE_FORMAT.P.FIRST_DETAIL$ -> LX_TERMINAL.COLUMN);
     4788    36034    4               FIRST_DETAIL = HEADING;
     4789    36035    4             END;
     4790    36036    3         END;
     4791    36037
PL6.E3A0      #001=Z8EM$SEMANTICS_DATA_DIV File=Z8EM.:Z8A6TSI                    SAT 08/09/97 12:08 Page:171
     4792    36038    2      IF PAGE_FORMAT.P.LAST_DETAIL$ = ADDR(NIL) THEN
     4793    36039    2        IF PAGE_FORMAT.P.FOOTING$ = ADDR(NIL) THEN
     4794    36040    2          CASE_NO = 1;
     4795    36041    2        ELSE
     4796    36042    2          CASE_NO = 2;
     4797    36043    2      ELSE
     4798    36044    2        IF PAGE_FORMAT.P.FOOTING$ = ADDR(NIL) THEN
     4799    36045    2          CASE_NO = 3;
     4800    36046    2        ELSE
     4801    36047    2          CASE_NO = 4;
     4802    36048
     4803    36049    3      DO CASE (CASE_NO);
     4804    36050    3        CASE ( 1 );
     4805    36051    3          IF PAGE_LIMIT < FIRST_DETAIL THEN
     4806    36052    4            DO;
     4807    36053    4              LAST_DETAIL = FIRST_DETAIL;
     4808    36054    4              FOOTING = FIRST_DETAIL;
     4809    36055    4            END;
     4810    36056    3          ELSE
     4811    36057    4            DO;
     4812    36058    4              LAST_DETAIL = PAGE_LIMIT;
     4813    36059    4              FOOTING = PAGE_LIMIT;
     4814    36060    4            END;
     4815    36061
     4816    36062    3        CASE ( 2 );
     4817    36063    3          CALL CHARBIN (FOOTING,
     4818    36064    3                        PAGE_FORMAT.P.FOOTING$ -> LX_TERMINAL.DNT$ -> DNT.TEXT.NAME);
     4819    36065    3          IF FOOTING < FIRST_DETAIL THEN
     4820    36066    4            DO;
     4821    36067                   /* The number in this clause is too small */
     4822    36068    4              CALL Z8AE$ERROR (%E$NUM_IS_TOO_SMALL,
     4823    36069    4                               PAGE_FORMAT.P.FOOTING$ -> LX_TERMINAL.LINE,
     4824    36070    4                               PAGE_FORMAT.P.FOOTING$ -> LX_TERMINAL.COLUMN);
     4825    36071    4              FOOTING = FIRST_DETAIL;
     4826    36072    4            END;
     4827    36073    3          LAST_DETAIL = FOOTING;
     4828    36074
PL6.E3A0      #001=Z8EM$SEMANTICS_DATA_DIV File=Z8EM.:Z8A6TSI                    SAT 08/09/97 12:08 Page:172
     4829    36075
     4830    36076    3        CASE ( 3 );
     4831    36077    3          CALL CHARBIN (LAST_DETAIL,
     4832    36078    3                        PAGE_FORMAT.P.LAST_DETAIL$ -> LX_TERMINAL.DNT$ -> DNT.TEXT.NAME
             36078                                 );
     4833    36079    3          IF LAST_DETAIL < FIRST_DETAIL THEN
     4834    36080    4            DO;
     4835    36081                   /* The number in this clause is too small */
     4836    36082    4              CALL Z8AE$ERROR (%E$NUM_IS_TOO_SMALL,
     4837    36083    4                               PAGE_FORMAT.P.LAST_DETAIL$ -> LX_TERMINAL.LINE,
     4838    36084    4                               PAGE_FORMAT.P.LAST_DETAIL$ -> LX_TERMINAL.COLUMN);
     4839    36085    4              LAST_DETAIL = FIRST_DETAIL;
     4840    36086    4            END;
     4841    36087    3          FOOTING = LAST_DETAIL;
     4842    36088
     4843    36089
     4844    36090    3        CASE ( 4 );
     4845    36091    3          CALL CHARBIN (LAST_DETAIL,
     4846    36092    3                        PAGE_FORMAT.P.LAST_DETAIL$ -> LX_TERMINAL.DNT$ -> DNT.TEXT.NAME
             36092                                 );
     4847    36093    3          IF LAST_DETAIL < FIRST_DETAIL THEN
     4848    36094    4            DO;
     4849    36095                   /* The number in this clause is too small */
     4850    36096    4              CALL Z8AE$ERROR (%E$NUM_IS_TOO_SMALL,
     4851    36097    4                               PAGE_FORMAT.P.LAST_DETAIL$ -> LX_TERMINAL.LINE,
     4852    36098    4                               PAGE_FORMAT.P.LAST_DETAIL$ -> LX_TERMINAL.COLUMN);
     4853    36099    4              LAST_DETAIL = FIRST_DETAIL;
     4854    36100    4            END;
     4855    36101
     4856    36102    3          CALL CHARBIN (FOOTING,
     4857    36103    3                        PAGE_FORMAT.P.FOOTING$ -> LX_TERMINAL.DNT$ -> DNT.TEXT.NAME);
     4858    36104    3          IF FOOTING < LAST_DETAIL THEN
     4859    36105    4            DO;
     4860    36106                   /* The number in this clause is too small */
     4861    36107    4              CALL Z8AE$ERROR (%E$NUM_IS_TOO_SMALL,
     4862    36108    4                               PAGE_FORMAT.P.FOOTING$ -> LX_TERMINAL.LINE,
     4863    36109    4                               PAGE_FORMAT.P.FOOTING$ -> LX_TERMINAL.COLUMN);
PL6.E3A0      #001=Z8EM$SEMANTICS_DATA_DIV File=Z8EM.:Z8A6TSI                    SAT 08/09/97 12:08 Page:173
     4864    36110    4              FOOTING = LAST_DETAIL;
     4865    36111    4            END;
     4866    36112
     4867    36113    3        CASE (ELSE);
     4868    36114
     4869    36115    3      END;  /* Case */
     4870    36116
     4871    36117    2      IF PAGE_LIMIT < FOOTING THEN
     4872    36118    3        DO;
     4873    36119               /* This page limit number is too small */
     4874    36120    3          CALL Z8AE$ERROR (%E$NUM_IS_TOO_SMALL,
     4875    36121    3                           LINE$ -> LX_TERMINAL.LINE,
     4876    36122    3                           LINE$ -> LX_TERMINAL.COLUMN);
     4877    36123    3          PAGE_LIMIT = FOOTING;
     4878    36124    3        END;
     4879    36125    2      ELSE
     4880    36126    2        IF PAGE_LIMIT > %MAX_PAGE_LINES  THEN
     4881    36127    3          DO;
     4882    36128              /* The page limit number must not exceed three significant digits in length */
     4883    36129    3            CALL Z8AE$ERROR (%E$NUM_EXCEED_999,
     4884    36130    3                             LINE$ -> LX_TERMINAL.LINE,
     4885    36131    3                             LINE$ -> LX_TERMINAL.COLUMN);
     4886    36132    3          END;
     4887    36133
     4888    36134    2      O1COM.CURRENT_REPORT_LTS$ -> REPORT_LTS.PAGE_LIMIT = PAGE_LIMIT;
     4889    36135    2      O1COM.CURRENT_REPORT_LTS$ -> REPORT_LTS.HEADING = HEADING;
     4890    36136    2      O1COM.CURRENT_REPORT_LTS$ -> REPORT_LTS.FIRST_DETAIL = FIRST_DETAIL;
     4891    36137    2      O1COM.CURRENT_REPORT_LTS$ -> REPORT_LTS.LAST_DETAIL = LAST_DETAIL;
     4892    36138    2      O1COM.CURRENT_REPORT_LTS$ -> REPORT_LTS.FOOTING = FOOTING;
     4893    36139
     4894    36140    2    DISPOSE_TREE:
     4895    36141    3      DO I = 0 TO 3;
     4896    36142    3        CALL Z8ED$DISPOSE_ABSSYN_TREE (PAGE_FORMAT.P_PTR(I));
     4897    36143    3      END;
     4898    36144
     4899    36145
     4900    36146    2    END REPORT_PAGE_FORMAT;
PL6.E3A0      #001=Z8EM$SEMANTICS_DATA_DIV File=Z8EM.:Z8A6TSI                    SAT 08/09/97 12:08 Page:174
     4901    36147         %EJECT;
PL6.E3A0      #001=Z8EM$SEMANTICS_DATA_DIV File=Z8EM.:Z8A6TSI                    SAT 08/09/97 12:08 Page:175
     4902    36148        /*=====*/
     4903    36149    1     RERUN: PROC (INT$, FILE$);
     4904    36150        /*=====*/
     4905    36151
     4906    36152    2        DCL INT$          PTR;
     4907    36153    2        DCL FILE$         PTR;
     4908    36154
     4909    36155    2        DCL ST$$          PTR;
     4910    36156    2        DCL INT           SBIN;
     4911    36157    2        DCL LTS$$         PTR;
     4912    36158    2        DCL DNT$$         PTR;
     4913    36159
     4914    36160
     4915    36161    2        CALL Z8DO$QUALIFY_TERMINAL (FILE$, ST$$)
     4916    36162    2          WHENALTRETURN
     4917    36163    3            DO;
     4918    36164    3              RETURN;
     4919    36165    3            END;
     4920    36166
     4921    36167    3        IF ST$$ -> FD.ID ~= %FD THEN DO;
     4922    36168               /* You can't RERUN on this. It isn't a file. */
     4923    36169    3          DNT$$ = DNT$_FROM_RSWNO (%RSV_WRD_FD);
     4924    36170               %CONDITIONAL_ERROR (@LX_ITEM$ = FILE$,
     4925    36171                                   @ERROR# = %E$FILE_TYPE_EXPECTED,
     4926    36172                                   @PLUG1 = DNT$$);
     4927    36202    3          RETURN;
     4928    36203    3        END;
     4929    36204
     4930    36205    2        CALL CHARBIN (INT,
     4931    36206    2                      INT$ -> LX_TERMINAL.DNT$ -> DNT.TEXT.NAME);
     4932    36207
     4933    36208             %GET_LTS (@ID      = %FILE_LTS,
     4934    36209                       @ST$     = ST$$,
     4935    36210                       @RETURN$ = LTS$$);
     4936    36253
     4937    36254    2        IF LTS$$ ~= ADDR(NIL) THEN
     4938    36255    3          DO;
PL6.E3A0      #001=Z8EM$SEMANTICS_DATA_DIV File=Z8EM.:Z8A6TSI                    SAT 08/09/97 12:08 Page:176
     4939    36256    3            IF LTS$$ -> FILE_LTS.RERUN_NUM ~= 0
     4940    36257    3              THEN CALL Z8AE$ERROR (%E$DUPLICATE_RERUN);
     4941    36258    4              ELSE DO;
     4942    36259    4                LTS$$ -> FILE_LTS.RERUN_NUM = INT;
     4943    36260    4                IF COMCOM.OB.FIPS.LEVEL >= %INT_LEV THEN
     4944    36261    4                  CALL Z8AE$ERROR (%E$LEVEL_CHECK,
     4945    36262    4                                   O1COM.LX_STK.LINE(O1COM.LX_TOP - 6),
     4946    36263    4                                   O1COM.LX_STK.COLUMN(O1COM.LX_TOP - 6));
     4947    36264    4                IF COMCOM.OB.FIPS.OBS THEN
     4948    36265    4                  CALL Z8AE$ERROR (%E$OBSOLETE,
     4949    36266    4                                   O1COM.LX_STK.LINE(O1COM.LX_TOP - 6),
     4950    36267    4                                   O1COM.LX_STK.COLUMN(O1COM.LX_TOP - 6));
     4951    36268    4              END;
     4952    36269    3          END;
     4953    36270
     4954    36271    2   END RERUN;
     4955    36272        %EJECT;
PL6.E3A0      #001=Z8EM$SEMANTICS_DATA_DIV File=Z8EM.:Z8A6TSI                    SAT 08/09/97 12:08 Page:177
     4956    36273        /*===============*/
     4957    36274    1     RESERVE_#_AREAS: PROC (NO_AREAS$);
     4958    36275        /*===============*/
     4959    36276
     4960    36277             /* Functions performed:
     4961    36278                  1. Check for duplicate access clauses.
     4962    36279                  2. Update FILE_LTS item.
     4963    36280             */
     4964    36281
     4965    36282    2        DCL NO_AREAS$             PTR;
     4966    36283
     4967    36284
     4968    36285    3        IF O1COM.CURRENT_FILE_LTS$ -> FILE_LTS.NO_OF_AREAS = -1 THEN DO;
     4969    36286    3          IF COMCOM.OB.FIPS.LEVEL >= %INT_LEV THEN
     4970    36287    3            CALL Z8AE$ERROR (%E$LEVEL_CHECK,
     4971    36288    3                             O1COM.LX_STK.LINE(O1COM.LX_TOP - 2),
     4972    36289    3                             O1COM.LX_STK.COLUMN(O1COM.LX_TOP - 2));
     4973    36290    3          CALL CHARBIN (O1COM.CURRENT_FILE_LTS$ -> FILE_LTS.NO_OF_AREAS,
     4974    36291    3                        NO_AREAS$ -> LX_TERMINAL.DNT$ -> DNT.TEXT.NAME);
     4975    36292    3        END;
     4976    36293    2        ELSE
     4977    36294               %CONDITIONAL_ERROR (@LX_ITEM$ = NO_AREAS$,
     4978    36295                                   @ERROR#   = %E$DUP_DD_CLAUSE,
     4979    36296                                   @LINE     = NO_AREAS$ -> LX_TERMINAL.LINE,
     4980    36297                                   @COLUMN   = NO_AREAS$ -> LX_TERMINAL.COLUMN,
     4981    36298                                   @PLUG1    = "DNT$_FROM_RSWNO(%RSV_WRD_RESERVE)");
     4982    36328
     4983    36329    2   END RESERVE_#_AREAS;
     4984    36330        %EJECT;
PL6.E3A0      #001=Z8EM$SEMANTICS_DATA_DIV File=Z8EM.:Z8A6TSI                    SAT 08/09/97 12:08 Page:178
     4985    36331        /*=========*/
     4986    36332    1     SAME_AREA: PROC (FILE_LIST$, UNIT$);
     4987    36333        /*=========*/
     4988    36334
     4989    36335    2        DCL FILE_LIST$           PTR;
     4990    36336    2        DCL UNIT$                PTR;
     4991    36337
     4992    36338    2        DCL HEAD$                PTR;
     4993    36339    2        DCL LAST$                PTR;
     4994    36340    2        DCL LIST$                PTR;
     4995    36341    2        DCL FD$$                 PTR;
     4996    36342    2        DCL LTS$$                PTR;
     4997    36343
     4998    36344
     4999    36345
     5000    36346    2        LIST$ = FILE_LIST$ -> LX_LIST.HEAD$;
     5001    36347
     5002    36348    2        IF FILE_LIST$ -> LX_LIST.COUNT = 1 THEN
     5003    36349    3          DO;
     5004    36350                 %CONDITIONAL_ERROR (@LX_ITEM$ = LIST$,
     5005    36351                                     @ERROR#   = %E$2_FILES_REQUIRED,
     5006    36352                                     @LINE     = LIST$ -> LX_ITEM.LINE,
     5007    36353                                     @COLUMN   = LIST$ -> LX_ITEM.COLUMN);
     5008    36383
     5009    36384    3            CALL Z8ED$DISPOSE_ABSSYN_TREE (FILE_LIST$ -> LX_LIST.HEAD$);
     5010    36385    3            RETURN;
     5011    36386    3          END;
     5012    36387
     5013    36388    2        LAST$ = ADDR(NIL);
     5014    36389    2        HEAD$ = ADDR(NIL);
     5015    36390
     5016    36391    3        DO WHILE (LIST$ ~= ADDR(NIL));
     5017    36392    3          CALL Z8DO$QUALIFY_TERMINAL (LIST$, FD$$)
     5018    36393    3            WHENALTRETURN
     5019    36394    4              DO;
     5020    36395    4                GOTO NEXT_FILE;
     5021    36396    4              END;
PL6.E3A0      #001=Z8EM$SEMANTICS_DATA_DIV File=Z8EM.:Z8A6TSI                    SAT 08/09/97 12:08 Page:179
     5022    36397
     5023    36398    4          DO CASE (FD$$ -> FD.ID);
     5024    36399    4            CASE(
     5025    36400                      %SET_OF_FILE_DESCRIPTIONS;
     5026    36405    4                );
     5027    36406    4              /* ALL OK */;
     5028    36407
     5029    36408    4            CASE (ELSE);
     5030    36409                   %CONDITIONAL_ERROR (@LX_ITEM$ = LIST$,
     5031    36410                                       @ERROR#   = %E$FILE_NOT_DEFINED,
     5032    36411                                       @LINE     = LIST$ -> LX_ITEM.LINE,
     5033    36412                                       @COLUMN   = LIST$ -> LX_ITEM.COLUMN,
     5034    36413                                       @PLUG1    = LIST$ -> LX_ITEM.DNT$);
     5035    36443
     5036    36444    4              GOTO NEXT_FILE;
     5037    36445    4          END; /* Case */
     5038    36446
     5039    36447               %GET_LTS (@ID       = %FILE_LTS,
     5040    36448                         @ST$      = FD$$,
     5041    36449                         @RETURN$  = LTS$$);
     5042    36492
     5043    36493    4          DO SELECT (UNIT$ -> LX_TERMINAL.SYMBOL);
     5044    36494    4            SELECT (%RSV_WRD_RECORD);
     5045    36495    4              IF LTS$$ -> FILE_LTS.B.SAME_RECORD THEN
     5046    36496    5                DO;
     5047    36497                       %CONDITIONAL_ERROR (@LX_ITEM$ = LIST$,
     5048    36498                                           @ERROR#   = %E$FILE_IN_SAME_CLAUSE_TWICE,
     5049    36499                                           @LINE     = LIST$ -> LX_ITEM.LINE,
     5050    36500                                           @COLUMN   = LIST$ -> LX_ITEM.COLUMN,
     5051    36501                                           @PLUG1    = LIST$ -> LX_ITEM.DNT$);
     5052    36531    5                  GOTO NEXT_FILE;
     5053    36532    5                END;
     5054    36533
     5055    36534    4              IF HEAD$ = ADDR(NIL) THEN
     5056    36535    5                DO;
     5057    36536    5                  LAST$ = LTS$$;
     5058    36537    5                  HEAD$ = LTS$$;
PL6.E3A0      #001=Z8EM$SEMANTICS_DATA_DIV File=Z8EM.:Z8A6TSI                    SAT 08/09/97 12:08 Page:180
     5059    36538    5                  IF COMCOM.OB.FIPS.LEVEL >= %INT_LEV THEN
     5060    36539    5                    CALL Z8AE$ERROR (%E$LEVEL_CHECK,
     5061    36540    5                                     O1COM.LX_STK.LINE(O1COM.LX_TOP - 5),
     5062    36541    5                                     O1COM.LX_STK.COLUMN(O1COM.LX_TOP - 5));
     5063    36542    5                END;
     5064    36543    4              ELSE
     5065    36544    5                DO;
     5066    36545    5                  LTS$$ -> FILE_LTS.SAME_RECORD.HEAD$ = HEAD$;
     5067    36546    5                  LAST$ -> FILE_LTS.SAME_RECORD.LINK = LTS$$;
     5068    36547    5                  LAST$ = LTS$$;
     5069    36548    5                END;
     5070    36549
     5071    36550    4              LTS$$ -> FILE_LTS.B.SAME_RECORD = TRUE;
     5072    36551
     5073    36552    4            SELECT (%EMPTY, %RSV_WRD_SORT, %RSV_WRD_SORT_MERGE);
     5074    36553    4              IF UNIT$ -> LX_TERMINAL.SYMBOL ~= %EMPTY THEN
     5075    36554    4                CALL SORT_DESC_CHECK (UNIT$);
     5076    36555
     5077    36556    4              IF (LTS$$ -> FILE_LTS.B.SAME_AREA
     5078    36557    4                  AND UNIT$ -> LX_TERMINAL.SYMBOL = %EMPTY)
     5079    36558    4              OR (LTS$$ -> FILE_LTS.B.SAME_SORT_AREA
     5080    36559    4                  AND UNIT$ -> LX_TERMINAL.SYMBOL ~= %EMPTY) THEN
     5081    36560    5                DO;
     5082    36561                       %CONDITIONAL_ERROR (@LX_ITEM$ = LIST$,
     5083    36562                                           @ERROR#   = %E$FILE_IN_SAME_CLAUSE_TWICE,
     5084    36563                                           @LINE     = LIST$ -> LX_ITEM.LINE,
     5085    36564                                           @COLUMN   = LIST$ -> LX_ITEM.COLUMN,
     5086    36565                                           @PLUG1    = LIST$ -> LX_ITEM.DNT$);
     5087    36595    5                  GOTO NEXT_FILE;
     5088    36596    5                END;
     5089    36597
     5090    36598    4              IF HEAD$ = ADDR(NIL) THEN
     5091    36599    5                DO;
     5092    36600    5                  LAST$ = LTS$$;
     5093    36601    5                  HEAD$ = LTS$$;
     5094    36602    5                END;
     5095    36603    4              ELSE
PL6.E3A0      #001=Z8EM$SEMANTICS_DATA_DIV File=Z8EM.:Z8A6TSI                    SAT 08/09/97 12:08 Page:181
     5096    36604    5                DO;
     5097    36605    5                  LTS$$ -> FILE_LTS.SAME_AREA.HEAD$ = HEAD$;
     5098    36606    5                  LAST$ -> FILE_LTS.SAME_AREA.LINK = LTS$$;
     5099    36607    5                  LAST$ = LTS$$;
     5100    36608    5                END;
     5101    36609    4              IF UNIT$ -> LX_TERMINAL.SYMBOL = %EMPTY THEN
     5102    36610    4                LTS$$ -> FILE_LTS.B.SAME_AREA = TRUE;
     5103    36611    4              ELSE
     5104    36612    4                LTS$$ -> FILE_LTS.B.SAME_SORT_AREA = TRUE;
     5105    36613
     5106    36614
     5107    36615    4            SELECT (ELSE);
     5108    36616                   /*N* SORT AND SORT MERGE STUFF */
     5109    36617
     5110    36618    4          END; /* Case id */
     5111    36619
     5112    36620    3   NEXT_FILE:
     5113    36621    3          LIST$ = LIST$ -> LX_ITEM.LINK;
     5114    36622    3        END; /* While */
     5115    36623
     5116    36624    2        CALL Z8ED$DISPOSE_ABSSYN_TREE (FILE_LIST$ -> LX_LIST.HEAD$);
     5117    36625
     5118    36626    2   END SAME_AREA;
     5119    36627        %EJECT;
PL6.E3A0      #001=Z8EM$SEMANTICS_DATA_DIV File=Z8EM.:Z8A6TSI                    SAT 08/09/97 12:08 Page:182
     5120    36628
     5121    36629         /*=================*/
     5122    36630    1      SAVE_CONTROL_LIST: PROC (QUAL_LIST$);
     5123    36631         /*=================*/
     5124    36632
     5125    36633
     5126    36634    2      DCL QUAL_LIST$          PTR;
     5127    36635    2      DCL DEFERED_ID$         PTR;
     5128    36636
     5129    36637
     5130    36638
     5131    36639           %NEW_HEAP (@POINTER      = DEFERED_ID$);
     5132    36644
     5133    36645           %INIT_DEFERED_IDENTIFIER (@POINTER = DEFERED_ID$,
     5134    36646                      @DEFERED_ID$  = QUAL_LIST$,
     5135    36647                      @ASSOC_VAR_LTS$ = O1COM.CURRENT_REPORT_LTS$,
     5136    36648                      @LINK         = O1COM.CONTROL_LIST$);
     5137    36661
     5138    36662    2      O1COM.CONTROL_LIST$ = DEFERED_ID$;
     5139    36663
     5140    36664    2    END SAVE_CONTROL_LIST;
     5141    36665          %EJECT;
PL6.E3A0      #001=Z8EM$SEMANTICS_DATA_DIV File=Z8EM.:Z8A6TSI                    SAT 08/09/97 12:08 Page:183
     5142    36666
     5143    36667        /*========*/
     5144    36668    1     SD_START: PROC (FILE$);
     5145    36669        /*========*/
     5146    36670
     5147    36671    2        DCL FILE$         PTR;
     5148    36672    2        DCL ST$$          PTR;
     5149    36673
     5150    36674
     5151    36675    2        CALL FD_START (FILE$);
     5152    36676
     5153    36677    2        O1COM.CURRENT_FILE_LTS$ -> FILE_LTS.ST$ -> ST.ID = %SD;
     5154    36678    2        O1COM.DATA_DECL_CONTEXT = %SORT_DESCRIPTION;
     5155    36679
     5156    36680    2        CALL INVALID_SD_CLAUSES (O1COM.CURRENT_FILE_LTS$);
     5157    36681
     5158    36682    2        O1COM.CURRENT_FILE_LTS$ -> FILE_LTS.ORGANIZATION = %SEQUENTIAL;
     5159    36683    2        O1COM.CURRENT_FILE_LTS$ -> FILE_LTS.ACCESS_MODE  = %SEQUENTIAL_ACCESS;
     5160    36684
     5161    36685    2   END SD_START;
     5162    36686        %EJECT;
PL6.E3A0      #001=Z8EM$SEMANTICS_DATA_DIV File=Z8EM.:Z8A6TSI                    SAT 08/09/97 12:08 Page:184
     5163    36687        /*=================*/
     5164    36688    1     SELECT_CLAUSE_END: PROC ;
     5165    36689        /*=================*/
     5166    36690
     5167    36691             /* Functions performed:
     5168    36692                 1. Wrap up semantic checks except those dealing
     5169    36693                    with data-names.
     5170    36694                 2. Set Default values for file:
     5171    36695                        ORGANIZATION = SEQUENTIAL
     5172    36696                        ACCESS       = SEQUENTIAL
     5173    36697
     5174    36698                 3. Set O1COM.CURRENT_FILE_LTS$ to nil.
     5175    36699             */
     5176    36700
     5177    36701    2        DCL ST$$                 PTR;
     5178    36702    2        DCL DISK$                PTR;
     5179    36703    2        DCL ASSIGN$              PTR;
     5180    36704    2        DCL ORG                  SBIN;
     5181    36705    2        DCL ACCESS               SBIN;
     5182    36706    2        DCL FILE$                PTR;
     5183    36707    2        DCL NOM$                 PTR;
     5184    36708
     5185    36709
     5186    36710    2        ST$$ = O1COM.CURRENT_FILE_LTS$ -> FILE_LTS.ST$;
     5187    36711    2        FILE$ = O1COM.CURRENT_FILE_LTS$;
     5188    36712
     5189    36713    2        IF FILE$ -> FILE_LTS.ASSIGN$ = ADDR(NIL) THEN
     5190    36714    3          DO;
     5191    36715    3            IF NOT ST$$ -> ST.DNT$ -> DNT.B.ERROR_VARIABLE  THEN
     5192    36716    3            CALL Z8AE$ERROR (%E$NO_ASSIGN_CLAUSE,
     5193    36717    3                             BINBIT(ST$$ -> FD.LINE_NO, 36), 0,
     5194    36718    3                             ST$$ -> FD.DNT$);
     5195    36719
     5196    36720    3            CALL Z9EM$ASSIGN_RECOVERY (FILE$ -> FILE_LTS.ASSIGN$, ST$$ -> FD.DNT$);
     5197    36721    3          END;
     5198    36722
     5199    36723    2        IF FILE$ -> FILE_LTS.ORGANIZATION = %NOT_SPECIFIED THEN
PL6.E3A0      #001=Z8EM$SEMANTICS_DATA_DIV File=Z8EM.:Z8A6TSI                    SAT 08/09/97 12:08 Page:185
     5200    36724    2          ORG = %SEQUENTIAL;
     5201    36725    2        ELSE
     5202    36726    2          ORG = FILE$ -> FILE_LTS.ORGANIZATION;
     5203    36727
     5204    36728    2        IF FILE$ -> FILE_LTS.ACCESS_MODE = %NOT_SPECIFIED THEN
     5205    36729    2          ACCESS = %SEQUENTIAL_ACCESS;
     5206    36730    2        ELSE
     5207    36731    2          ACCESS = FILE$ -> FILE_LTS.ACCESS_MODE;
     5208    36732
     5209    36733    2        IF ORG = %RELATIVE THEN
     5210    36734    3          DO;
     5211    36735    3            IF FILE$ -> FILE_LTS.RELATIVE_KEY$ = ADDR(NIL) THEN
     5212    36736    4              DO;
     5213    36737    4                IF FILE$ -> FILE_LTS.NOMINAL_KEY$ ~= ADDR(NIL) THEN
     5214    36738    5                  DO;
     5215    36739    5                    FILE$ -> FILE_LTS.RELATIVE_KEY$ = FILE$ ->
     5216    36740    5                                                      FILE_LTS.NOMINAL_KEY$;
     5217    36741    5                    FILE$ -> FILE_LTS.NOMINAL_KEY$ = ADDR(NIL);
     5218    36742    5                  END;
     5219    36743    4                ELSE
     5220    36744    4                  IF ACCESS ~= %SEQUENTIAL_ACCESS THEN
     5221    36745    4                    CALL Z8AE$ERROR (%E$NO_KEY_SPECIFIED,
     5222    36746    4                                     BINBIT(ST$$ -> FD.LINE_NO, 36), 0,
     5223    36747    4                                     DNT$_FROM_RSWNO(%RSV_WRD_RELATIVE));
     5224    36748    4              END;
     5225    36749    3            ELSE
     5226    36750    3              IF FILE$ -> FILE_LTS.NOMINAL_KEY$ ~= ADDR(NIL) THEN
     5227    36751    4                DO;
     5228    36752    4                  NOM$ = O1COM.CURRENT_FILE_LTS$ -> FILE_LTS.NOMINAL_KEY$;
     5229    36753
     5230    36754                       %CONDITIONAL_ERROR (@LX_ITEM$ = NOM$,
     5231    36755                           @ERROR# = %E$NOM_KEY_WITH_REL_KEY,
     5232    36756                           @LINE   = NOM$ -> LX_LIST.HEAD$ -> LX_ITEM.LINE,
     5233    36757                           @COLUMN = NOM$ -> LX_LIST.HEAD$ -> LX_ITEM.COLUMN);
     5234    36787
     5235    36788    4                  CALL Z8ED$DISPOSE_ABSSYN_TREE (FILE$ ->
     5236    36789    4                                                 FILE_LTS.NOMINAL_KEY$);
PL6.E3A0      #001=Z8EM$SEMANTICS_DATA_DIV File=Z8EM.:Z8A6TSI                    SAT 08/09/97 12:08 Page:186
     5237    36790    4                END;
     5238    36791    3          END;
     5239    36792
     5240    36793    2        IF ORG = %SEQUENTIAL THEN
     5241    36794    2          IF FILE$ -> FILE_LTS.NOMINAL_KEY$ ~= ADDR(NIL) THEN
     5242    36795    3            DO;
     5243    36796    3              NOM$ = O1COM.CURRENT_FILE_LTS$ -> FILE_LTS.NOMINAL_KEY$;
     5244    36797
     5245    36798                   %CONDITIONAL_ERROR (@LX_ITEM$ = NOM$,
     5246    36799                       @ERROR# = %E$WRONG_ORG_WITH_KEY,
     5247    36800                       @LINE   = NOM$ -> LX_LIST.HEAD$ -> LX_ITEM.LINE,
     5248    36801                       @COLUMN = NOM$ -> LX_LIST.HEAD$ -> LX_ITEM.COLUMN,
     5249    36802                       @PLUG1  = "DNT$_FROM_RSWNO (%RSV_WRD_NOMINAL)");
     5250    36832
     5251    36833    3              CALL Z8ED$DISPOSE_ABSSYN_TREE (FILE$ ->
     5252    36834    3                                             FILE_LTS.NOMINAL_KEY$);
     5253    36835    3            END;
     5254    36836
     5255    36837
     5256    36838    2        IF (ORG = %KEYED OR
     5257    36839    2            ORG = %INDEXED)
     5258    36840    2        AND FILE$ -> FILE_LTS.RECORD_KEY$ = ADDR(NIL) THEN
     5259    36841    2          CALL Z8AE$ERROR (%E$NO_KEY_SPECIFIED,
     5260    36842    2                           BINBIT(ST$$ -> FD.LINE_NO, 36), 0,
     5261    36843    2                           DNT$_FROM_RSWNO(%RSV_WRD_RECORD));
     5262    36844
     5263    36845    2        O1COM.CURRENT_FILE_LTS$ = ADDR(NIL);
     5264    36846
     5265    36847    2   END SELECT_CLAUSE_END;
     5266    36848        %EJECT;
PL6.E3A0      #001=Z8EM$SEMANTICS_DATA_DIV File=Z8EM.:Z8A6TSI                    SAT 08/09/97 12:08 Page:187
     5267    36849        /*==================*/
     5268    36850    1     SELECT_CLAUSE_INIT: PROC (FILE_NAME$, OPTIONAL$);
     5269    36851        /*==================*/
     5270    36852
     5271    36853    2        DCL FILE_NAME$           PTR; /* Ptr to LX_TERM for <file-name> */
     5272    36854    2        DCL OPTIONAL$            PTR; /* Ptr to LX_TERM for OPTIONAL */
     5273    36855    2        DCL FILE_DNT$            PTR;
     5274    36856    2        DCL FD$$                 PTR; /* FD st item */
     5275    36857    2        DCL ST$$                 PTR; /* Scratch pointer */
     5276    36858
     5277    36859        /*
     5278    36860             Functions performed:
     5279    36861                 1. Duplicate file name check
     5280    36862                 2. Init FD ST item
     5281    36863                 3. Enter in QLT
     5282    36864                 4. Init FILE_LTS item
     5283    36865                 5. Update O1COM.CURRENT_FILE_LTS$ and COMCOM.FILE_LTS_CHAIN$
     5284    36866
     5285    36867        */
     5286    36868        %EJECT;
PL6.E3A0      #001=Z8EM$SEMANTICS_DATA_DIV File=Z8EM.:Z8A6TSI                    SAT 08/09/97 12:08 Page:188
     5287    36869    2        CALL NEW_FILE (FILE_NAME$, FD$$);
     5288    36870
     5289    36871    2        CALL Z8DO$QUALIFY_TERMINAL (FILE_NAME$, ST$$);
     5290    36872
     5291    36873
     5292    36874    3        IF OPTIONAL$ -> LX_TERMINAL.SYMBOL ~= %EMPTY THEN DO;
     5293    36875    3          FD$$ -> FD.LTS$ -> FILE_LTS.B.OPTIONAL_FILE = TRUE;
     5294    36876    3          IF COMCOM.OB.FIPS.LEVEL >= %INT_LEV THEN
     5295    36877    3            CALL Z8AE$ERROR (%E$LEVEL_CHECK,
     5296    36878    3                             O1COM.LX_STK.LINE(O1COM.LX_TOP - 2),
     5297    36879    3                             O1COM.LX_STK.COLUMN(O1COM.LX_TOP - 2));
     5298    36880    3        END;
     5299    36881
     5300    36882    2        O1COM.CURRENT_FILE_LTS$  = FD$$ -> FD.LTS$;
     5301    36883
     5302    36884    2   END SELECT_CLAUSE_INIT;
     5303    36885        %EJECT;
PL6.E3A0      #001=Z8EM$SEMANTICS_DATA_DIV File=Z8EM.:Z8A6TSI                    SAT 08/09/97 12:08 Page:189
     5304    36886        /*===============*/
     5305    36887    1     SORT_DESC_CHECK: PROC (TERM$) ALTRET;
     5306    36888        /*===============*/
     5307    36889
     5308    36890    2        DCL TERM$         PTR;
     5309    36891
     5310    36892
     5311    36893    2        IF COMCOM.OB.FIPS.LEVEL = %LOW_LEV THEN
     5312    36894    3          DO;
     5313    36895                 %CONDITIONAL_ERROR (@LX_ITEM$ = TERM$,
     5314    36896                                     @ERROR#   = %E$LEVEL_CHECK,
     5315    36897                                     @LINE     = "O1COM.LX_STK.LINE(O1COM.LX_TOP - 5)",
     5316    36898                                     @COLUMN   = "O1COM.LX_STK.COLUMN(O1COM.LX_TOP - 5)");
     5317    36928    3            ALTRETURN;
     5318    36929    3          END;
     5319    36930
     5320    36931    2        RETURN;
     5321    36932
     5322    36933    2   END SORT_DESC_CHECK;
     5323    36934        %EJECT;
PL6.E3A0      #001=Z8EM$SEMANTICS_DATA_DIV File=Z8EM.:Z8A6TSI                    SAT 08/09/97 12:08 Page:190
     5324    36935        /*===========*/
     5325    36936    1     SWITCH_NAME: PROC (SWITCH#$, MNEMONIC$, STATUS$);
     5326    36937        /*===========*/
     5327    36938
     5328    36939    2   DCL SWITCH#$           PTR;
     5329    36940    2   DCL MNEMONIC$          PTR;
     5330    36941    2   DCL STATUS$            PTR;
     5331    36942    2   DCL MNEMONIC_ST$       PTR;
     5332    36943    2   DCL MNEMONIC_QLT$      PTR;
     5333    36944    2   DCL SWITCH#            SBIN WORD;
     5334    36945
     5335    36946           %EXTRACT_SWITCH_CHANNEL (@DNT$ = SWITCH#$ -> LX_ITEM.DNT$,
     5336    36947                                    @NUMBER = SWITCH#);
     5337    36962
     5338    36963    2      IF MNEMONIC$ ~= ADDR(NIL) THEN
     5339    36964    3        DO;
     5340    36965               %NEW_SWITCH (@ST$      = MNEMONIC_ST$,
     5341    36966                             @DNT$     = MNEMONIC$ -> LX_ITEM.DNT$,
     5342    36967                             @SWITCH#  = SWITCH#,
     5343    36968                             @NEXT     = MNEMONIC$ -> LX_ITEM.DNT$ -> DNT.ST$);
     5344    37031
     5345    37032               %NEW_QLT     (@POINTER = MNEMONIC_QLT$,
     5346    37033                             @LEVEL#  = 88,
     5347    37034                             @ST$     = MNEMONIC_ST$,
     5348    37035                             @DNT$    = MNEMONIC$ -> LX_ITEM.DNT$);
     5349    37060
     5350    37061    3          MNEMONIC_ST$ -> SWITCH.QLT$ = MNEMONIC_QLT$;
     5351    37062    3          MNEMONIC_ST$ -> SWITCH.DNT$ -> DNT.ST$ = MNEMONIC_ST$;
     5352    37063
     5353    37064               %UPDATE_PREV_QLT$ (@NEW_QLT$ = MNEMONIC_QLT$);
     5354    37071
     5355    37072               %ADD_XREF (SYM  = MNEMONIC_ST$,
     5356    37073                          ISN  = SWITCH#$ -> LX_TERMINAL.LINE,
     5357    37074                          TYPE = %XREF_DCL);
     5358    37092
     5359    37093    3        END;
     5360    37094    2      ELSE
PL6.E3A0      #001=Z8EM$SEMANTICS_DATA_DIV File=Z8EM.:Z8A6TSI                    SAT 08/09/97 12:08 Page:191
     5361    37095    3        DO;
     5362    37096    3          CALL Z8AT$CREATE_TEMPORARY (%SWITCH, MNEMONIC_ST$);
     5363    37097    3          MNEMONIC_ST$ -> SWITCH.SWITCH# = SWITCH#;
     5364    37098    3        END;
     5365    37099
     5366    37100    2      IF STATUS$ ~= ADDR(NIL) THEN
     5367    37101    3        DO;
     5368    37102    3          CALL SWITCH_STATUS (STATUS$, MNEMONIC_ST$);
     5369    37103    3          CALL Z8ED$DISPOSE_ABSSYN_TREE ( STATUS$ -> LX_LIST.HEAD$ );
     5370    37104    3        END;
     5371    37105
     5372    37106    2   END SWITCH_NAME;
     5373    37107        %EJECT;
PL6.E3A0      #001=Z8EM$SEMANTICS_DATA_DIV File=Z8EM.:Z8A6TSI                    SAT 08/09/97 12:08 Page:192
     5374    37108        /*=============*/
     5375    37109    1     SWITCH_STATUS: PROC (STATUS$, MNEMONIC_ST$);
     5376    37110        /*=============*/
     5377    37111
     5378    37112    2   DCL STATUS$            PTR;
     5379    37113    2   DCL MNEMONIC_ST$       PTR;
     5380    37114    2   DCL MNEMONIC_QLT$      PTR;
     5381    37115
     5382    37116    2   DCL CURRENT_ELEMENT$   PTR;
     5383    37117    2   DCL ELEMENT$           PTR;
     5384    37118    2   DCL ELEMENT_ST$        PTR;
     5385    37119    2   DCL ELEMENT_QLT$       PTR;
     5386    37120
     5387    37121    2      MNEMONIC_QLT$ = MNEMONIC_ST$ -> SWITCH.QLT$;
     5388    37122
     5389    37123    2      CURRENT_ELEMENT$ = STATUS$ -> LX_LIST.HEAD$;
     5390    37124    3      DO WHILE (CURRENT_ELEMENT$ ~= ADDR(NIL));
     5391    37125    3        ELEMENT$ = CURRENT_ELEMENT$ -> LX_LIST.TAIL$;
     5392    37126
     5393    37127             %NEW_CONDITION (@ST$         = ELEMENT_ST$,
     5394    37128                             @GLOBAL      = TRUE,
     5395    37129                             @DNT$        = ELEMENT$ -> LX_ITEM.DNT$,
     5396    37130                             @NEXT        = ELEMENT$ -> LX_ITEM.DNT$ -> DNT.ST$,
     5397    37131                             @ASSOC_VAR$  = MNEMONIC_ST$);
     5398    37208
     5399    37209             %NEW_QLT  (@POINTER   = ELEMENT_QLT$,
     5400    37210                        @ST$       = ELEMENT_ST$,
     5401    37211                        @DNT$      = ELEMENT_ST$ -> CONDITION.DNT$,
     5402    37212                        @FATHER    = MNEMONIC_QLT$,
     5403    37213                        @LEVEL#    = 88);
     5404    37238
     5405    37239    3        ELEMENT_ST$ -> CONDITION.QLT$ = ELEMENT_QLT$;
     5406    37240    3        ELEMENT_ST$ -> ST.DNT$ -> DNT.ST$ = ELEMENT_ST$;
     5407    37241
     5408    37242    3        IF MNEMONIC_QLT$ -> QLT.SON ~= ADDR(NIL) THEN
     5409    37243    3          MNEMONIC_QLT$ -> QLT.SON -> QLT.BROTHER = ELEMENT_QLT$;
     5410    37244    3        ELSE
PL6.E3A0      #001=Z8EM$SEMANTICS_DATA_DIV File=Z8EM.:Z8A6TSI                    SAT 08/09/97 12:08 Page:193
     5411    37245    3          MNEMONIC_QLT$ -> QLT.SON = ELEMENT_QLT$;
     5412    37246
     5413    37247    4        DO CASE (CURRENT_ELEMENT$ -> LX_LIST.HEAD$ -> LX_ITEM.SYMBOL);
     5414    37248    4          CASE (%RSV_WRD_ON);
     5415    37249    4            MNEMONIC_ST$ -> SWITCH.ON$ = ELEMENT_ST$;
     5416    37250
     5417    37251    4          CASE (%RSV_WRD_OFF);
     5418    37252    4            MNEMONIC_ST$ -> SWITCH.OFF$ = ELEMENT_ST$;
     5419    37253    4        END;
     5420    37254
     5421    37255    3        CURRENT_ELEMENT$ = CURRENT_ELEMENT$ -> LX_ITEM.LINK;
     5422    37256    3      END; /* While */
     5423    37257
     5424    37258    2   END SWITCH_STATUS;
     5425    37259        %EJECT;
PL6.E3A0      #001=Z8EM$SEMANTICS_DATA_DIV File=Z8EM.:Z8A6TSI                    SAT 08/09/97 12:08 Page:194
     5426    37260        /*===================*/
     5427    37261    1     SYMBOLIC_CHARACTERS: PROC (KEY_WORD$, PHRASE$, ALPHA$);
     5428    37262        /*===================*/
     5429    37263
     5430    37264    2   DCL KEY_WORD$          PTR;
     5431    37265    2   DCL PHRASE$            PTR;
     5432    37266    2   DCL ALPHA$             PTR;
     5433    37267
     5434    37268    2   DCL LIST$              PTR;
     5435    37269    2   DCL ALPHA_ST$          PTR;
     5436    37270
     5437    37271
     5438    37272    2      IF COMCOM.OB.FIPS.LEVEL >= %INT_LEV THEN
     5439    37273    2        CALL Z8AE$ERROR (%E$LEVEL_CHECK,
     5440    37274    2                         KEY_WORD$ -> LX_ITEM.LINE,
     5441    37275    2                         KEY_WORD$ -> LX_ITEM.COLUMN);
     5442    37276    2      IF ALPHA$ = ADDR(NIL) THEN
     5443    37277    2        ALPHA_ST$ = ADDR(NIL);
     5444    37278    2      ELSE IF ALPHA$ -> LX_TERMINAL.SYMBOL ~= %NAME THEN
     5445    37279             /* ASCII, EBCDIC, GBCD, etc. */
     5446    37280    2        CALL COMMON_ALPHABET_NAME (ALPHA$, ALPHA$, ALPHA_ST$, P$);
     5447    37281    2      ELSE
     5448    37282    2        CALL Z8DO$QUALIFY_TERMINAL (ALPHA$, ALPHA_ST$)
     5449    37283    2          WHENRETURN
     5450    37284    3            DO; /* Make sure it is indeed an ALPHABET */
     5451    37285    4              IF ALPHA_ST$ -> ST.ID ~= %ALPHABET THEN DO;
     5452    37286    4                CALL Z8AE$ERROR (%E$ALPHABET_EXPECTED,
     5453    37287    4                                 ALPHA$ -> LX_TERMINAL.LINE,
     5454    37288    4                                 ALPHA$ -> LX_TERMINAL.COLUMN);
     5455    37289    4                CALL Z8ED$DISPOSE_ABSSYN_TREE (PHRASE$ -> LX_LIST.HEAD$);
     5456    37290    4                RETURN;
     5457    37291    4              END;
     5458    37292    3            END;
     5459    37293    2          WHENALTRETURN
     5460    37294    3            DO;
     5461    37295    3              CALL Z8ED$DISPOSE_ABSSYN_TREE (PHRASE$ -> LX_LIST.HEAD$);
     5462    37296    3              RETURN;
PL6.E3A0      #001=Z8EM$SEMANTICS_DATA_DIV File=Z8EM.:Z8A6TSI                    SAT 08/09/97 12:08 Page:195
     5463    37297    3            END;
     5464    37298
     5465    37299    2      LIST$ = PHRASE$ -> LX_LIST.HEAD$;
     5466    37300
     5467    37301    3      DO WHILE (LIST$ ~= ADDR(NIL));
     5468    37302    3        CALL PROCESS_SYMBOLIC_CHAR (LIST$, ALPHA_ST$);
     5469    37303
     5470    37304    3        LIST$ = LIST$ -> LX_LIST.LINK;
     5471    37305    3      END;
     5472    37306
     5473    37307    2      CALL Z8ED$DISPOSE_ABSSYN_TREE (PHRASE$ -> LX_LIST.HEAD$);
     5474    37308
     5475    37309    2   END SYMBOLIC_CHARACTERS;
     5476    37310        %EJECT;
PL6.E3A0      #001=Z8EM$SEMANTICS_DATA_DIV File=Z8EM.:Z8A6TSI                    SAT 08/09/97 12:08 Page:196
     5477    37311        /*================*/
     5478    37312    1     UPDATE_PROC_SUPP: PROC (PROC$);
     5479    37313        /*================*/
     5480    37314
     5481    37315    2        DCL PROC$         PTR;
     5482    37316    2        DCL F$            PTR; /* To fathers proc_supp */
     5483    37317    2        DCL P$            PTR; /* To current proc_supp */
     5484    37318
     5485    37319
     5486    37320
     5487    37321    2        O1COM.SECTION_FOUND = FALSE;
     5488    37322
     5489    37323    2        IF PROC$ -> PROC_.FATHER = ADDR(NIL) THEN
     5490    37324    2          RETURN;
     5491    37325
     5492    37326    2        P$ = PROC$ -> PROC_.PROC_SUPP$;
     5493    37327    2        F$ = PROC$ -> PROC_.FATHER -> PROC_.PROC_SUPP$;
     5494    37328
     5495    37329    2        PROC$ -> PROC_.B.COMMA_IS_DECIMAL = PROC$ -> PROC_.FATHER ->
     5496    37330    2                                            PROC_.B.COMMA_IS_DECIMAL;
     5497    37331
     5498    37332    2        P$ -> PROC_SUPP.CURRENCY_SIGN = F$ -> PROC_SUPP.CURRENCY_SIGN;
     5499    37333    2        P$ -> PROC_SUPP.LOW_VALUE = F$ -> PROC_SUPP.LOW_VALUE;
     5500    37334    2        P$ -> PROC_SUPP.HIGH_VALUE = F$ -> PROC_SUPP.HIGH_VALUE;
     5501    37335    2        P$ -> PROC_SUPP.COLLATING_SEQ$ = F$ -> PROC_SUPP.COLLATING_SEQ$;
     5502    37336
     5503    37337    2        P$ -> PROC_SUPP.DISPLAY_SIGN_TYPE = O1COM.DISPLAY_SIGN_TYPE;
     5504    37338    2        P$ -> PROC_SUPP.DISPLAY_SIGN_POS = O1COM.DISPLAY_SIGN_POS;
     5505    37339    2        P$ -> PROC_SUPP.COMP_4_SIGN_POS = O1COM.COMP_4_SIGN_POS;
     5506    37340    2        P$ -> PROC_SUPP.COMP_DEFAULT = O1COM.COMP_DEFAULT;
     5507    37341
     5508    37342    2        PROC$ -> PROC_.PROC_SUPP$ -> PROC_SUPP.INIT_PROC$ = ADDR(NIL);
     5509    37343    2        PROC$ -> PROC_.PROC_SUPP$ -> PROC_SUPP.ESC_LIST$  = ADDR(NIL);
     5510    37344
     5511    37345    2   END UPDATE_PROC_SUPP;
     5512    37346        %EJECT;
PL6.E3A0      #001=Z8EM$SEMANTICS_DATA_DIV File=Z8EM.:Z8A6TSI                    SAT 08/09/97 12:08 Page:197
     5513    37347        /*=======================*/
     5514    37348    1     VERIFY_FIRST_DD_CLAUSE : PROC (DD_CLAUSE$);
     5515    37349        /*=======================*/
     5516    37350
     5517    37351    2     DCL DD_CLAUSE$ PTR;
     5518    37352
     5519    37353    2      IF (DD_CLAUSE$ -> LX_REC_DECL.P.INDEXED$ ~= ADDR(NIL)
     5520    37354    2            AND NOT DD_CLAUSE$ -> LX_REC_DECL.P.INDEXED$ -> LX_LIST.B.ERROR)
     5521    37355    2          OR
     5522    37356    2         (DD_CLAUSE$ -> LX_REC_DECL.P.KEY$ ~= ADDR(NIL)
     5523    37357    2            AND NOT DD_CLAUSE$ -> LX_REC_DECL.P.KEY$ -> LX_LIST.B.ERROR) THEN
     5524    37358    2       CALL Z8AE$ERROR(%E$OCCURS_ORDERING_ERROR);
     5525    37359
     5526    37360    2   END VERIFY_FIRST_DD_CLAUSE;
     5527    37361        %EJECT;
PL6.E3A0      #001=Z8EM$SEMANTICS_DATA_DIV File=Z8EM.:Z8A6TSI                    SAT 08/09/97 12:08 Page:198
     5528    37362        /*=========================*/
     5529    37363    1     VERIFY_SYMBOLIC_CHARACTER: PROC (INT, INT$, DN$) ALTRET;
     5530    37364        /*=========================*/
     5531    37365
     5532    37366    2   DCL INT                SBIN WORD;
     5533    37367    2   DCL INT$               PTR;
     5534    37368    2   DCL DN$                PTR;
     5535    37369
     5536    37370
     5537    37371    2      IF INT > 511 THEN /* Gtr than 9 bits can hold */
     5538    37372    3        DO;
     5539    37373    3          CALL Z8AE$ERROR (%E$NUMBER_GTR_512,
     5540    37374    3                           INT$ -> LX_TERMINAL.LINE,
     5541    37375    3                           INT$ -> LX_TERMINAL.COLUMN);
     5542    37376
     5543    37377    3          ALTRETURN;
     5544    37378    3        END;
     5545    37379
     5546    37380    2      IF INT < 0 THEN /* Below legal minimum */
     5547    37381    3        DO;
     5548    37382    3          CALL Z8AE$ERROR (%E$MUST_BE_GTR_ZERO,
     5549    37383    3                           INT$ -> LX_TERMINAL.LINE,
     5550    37384    3                           INT$ -> LX_TERMINAL.COLUMN);
     5551    37385
     5552    37386    3          ALTRETURN;
     5553    37387    3        END;
     5554    37388
     5555    37389    2      IF COMCOM.OB.FIPS.LEVEL > 0 THEN
     5556    37390    2        IF INT > 127 THEN
     5557    37391    3          DO;
     5558    37392    3            CALL Z8AE$ERROR (%E$ALPHABET_VALUE_GTR_128,
     5559    37393    3                             INT$ -> LX_TERMINAL.LINE,
     5560    37394    3                             INT$ -> LX_TERMINAL.COLUMN);
     5561    37395
     5562    37396    3            ALTRETURN;
     5563    37397    3          END;
     5564    37398
PL6.E3A0      #001=Z8EM$SEMANTICS_DATA_DIV File=Z8EM.:Z8A6TSI                    SAT 08/09/97 12:08 Page:199
     5565    37399    2      IF DN$ -> LX_TERMINAL.DNT$ -> DNT.ST$ ~= ADDR(NIL)
     5566    37400    2      AND DN$ -> LX_TERMINAL.DNT$ -> DNT.ST$ ->
     5567    37401    2          SYMBOLIC_CHAR.PROC$ = O1COM.CURRENT_PROC$ THEN
     5568    37402    3        DO;
     5569    37403    3          IF NOT DN$ -> LX_TERMINAL.DNT$ -> DNT.B.ERROR_VARIABLE THEN
     5570    37404    3            CALL Z8AE$ERROR (%E$SYMBOLIC_CHAR_NOT_UNIQUE,
     5571    37405    3                             DN$ -> LX_TERMINAL.LINE,
     5572    37406    3                             DN$ -> LX_TERMINAL.COLUMN);
     5573    37407
     5574    37408    3          ALTRETURN;
     5575    37409    3        END;
     5576    37410
     5577    37411    2   END VERIFY_SYMBOLIC_CHARACTER;
     5578    37412        %EJECT;
PL6.E3A0      #001=Z8EM$SEMANTICS_DATA_DIV File=Z8EM.:Z8A6TSI                    SAT 08/09/97 12:08 Page:200
     5579    37413        /*========*/
     5580    37414    1     VFC_CHAR: PROC (CHAR$, DN_LIST$);
     5581    37415        /*========*/
     5582    37416
     5583    37417    2        DCL CHAR$         PTR; /* To VFC_CHAR, LX_TERM */
     5584    37418    2        DCL DN_LIST$      PTR; /* To list of DN's */
     5585    37419
     5586    37420    2        DCL LIST$         PTR;
     5587    37421    2        DCL MNEM$         PTR;
     5588    37422    2        DCL DNT$$         PTR;
     5589    37423    2        DCL VFC           CHAR(1);
     5590    37424
     5591    37425
     5592    37426    2        LIST$ = DN_LIST$ -> LX_LIST.HEAD$;
     5593    37427
     5594    37428    2        CALL Z8EC$INTERNAL_STRING_REP (CHAR$, DNT$$);
     5595    37429
     5596    37430    2        IF (DNT$$ -> DNT.TEXT.LENGTH - 2) > 1 THEN
     5597    37431    3          DO;
     5598    37432                 %CONDITIONAL_ERROR (@LX_ITEM$ = CHAR$,
     5599    37433                                     @ERROR#   = %E$MUST_BE_1_CHAR_LONG,
     5600    37434                                     @LINE     = CHAR$ -> LX_ITEM.LINE,
     5601    37435                                     @COLUMN   = CHAR$ -> LX_ITEM.COLUMN);
     5602    37465    3            VFC = ' ';
     5603    37466    3          END;
     5604    37467    2        ELSE
     5605    37468    2          VFC = SUBSTR (DNT$$ -> DNT.TEXT.NAME,1,1);
     5606    37469
     5607    37470
     5608    37471    3        DO WHILE (LIST$ ~= ADDR(NIL));
     5609    37472               %NEW_MNEMONIC (@ST$       = MNEM$,
     5610    37473                              @VFC_CHAR  = TRUE,
     5611    37474                              @VFC_CHAR_ = VFC,
     5612    37475                              @LINE_NO   = LIST$ -> LX_TERMINAL.LINE,
     5613    37476                              @DNT$      = LIST$ -> LX_TERMINAL.DNT$,
     5614    37477                              @NEXT      = LIST$ -> LX_TERMINAL.DNT$ -> DNT.ST$);
     5615    37554
PL6.E3A0      #001=Z8EM$SEMANTICS_DATA_DIV File=Z8EM.:Z8A6TSI                    SAT 08/09/97 12:08 Page:201
     5616    37555    3          LIST$ -> LX_TERMINAL.DNT$ -> DNT.ST$ = MNEM$;
     5617    37556
     5618    37557               %NEW_QLT (@POINTER = MNEM$ -> MNEMONIC.QLT$,
     5619    37558                         @ST$     = MNEM$,
     5620    37559                         @DNT$    = MNEM$ -> MNEMONIC.DNT$,
     5621    37560                         @LEVEL#  = 01);
     5622    37585
     5623    37586               %UPDATE_PREV_QLT$ (@NEW_QLT$ = MNEM$ -> MNEMONIC.QLT$);
     5624    37593
     5625    37594               %ADD_XREF (SYM   = MNEM$,
     5626    37595                          ISN   = LIST$ -> LX_ITEM.LINE,
     5627    37596                          TYPE  = %XREF_DCL);
     5628    37614
     5629    37615    3          LIST$ = LIST$ -> LX_ITEM.LINK;
     5630    37616    3        END; /* While */
     5631    37617
     5632    37618    2        CALL Z8ED$DISPOSE_ABSSYN_TREE (DN_LIST$ -> LX_LIST.HEAD$);
     5633    37619
     5634    37620    2   END VFC_CHAR;
     5635    37621        %EJECT;
PL6.E3A0      #001=Z8EM$SEMANTICS_DATA_DIV File=Z8EM.:Z8A6TSI                    SAT 08/09/97 12:08 Page:202
     5636    37622        /*============*/
     5637    37623    1     WALK_LITERAL: PROC (LITERAL$, ITEM_ST$$, NEXT_SEQ#);
     5638    37624        /*============*/
     5639    37625
     5640    37626    2   DCL LITERAL$           PTR;
     5641    37627    2   DCL ITEM_ST$$          PTR;
     5642    37628    2   DCL TABLE$             PTR;
     5643    37629    2   DCL NEXT_SEQ#          UBIN WORD;
     5644    37630
     5645    37631    2   DCL I                  SBIN WORD;
     5646    37632    2   DCL DNT$$              PTR;
     5647    37633    2   DCL VALUE              UBIN WORD;
     5648    37634
     5649    37635
     5650    37636    3      DO CASE (LITERAL$ -> LX_TERMINAL.SYMBOL);
     5651    37637    3        CASE (%ALPHA_LITERAL, %SINGLE_QUOTE);
     5652    37638    3          CALL Z8EC$INTERNAL_STRING_REP (LITERAL$, DNT$$);
     5653    37639
     5654    37640    4          DO I = 1 TO DNT$$ -> DNT.TEXT.LENGTH - 2;
     5655    37641    4            CALL ENTER_VALUE (LITERAL$,
     5656    37642    4                              ITEM_ST$$,
     5657    37643    4                              ASCBIN (SUBSTR (DNT$$ -> DNT.TEXT.NAME, I, 1)),
     5658    37644    4                              NEXT_SEQ#);
     5659    37645    4          END;
     5660    37646
     5661    37647    3        CASE (ELSE);
     5662    37648               %GET_VALUE (@TERMINAL$ = LITERAL$,
     5663    37649                           @DNT$      = DNT$$,
     5664    37650                           @VALUE     = VALUE);
     5665    37675
     5666    37676    3          IF VALUE < 512  THEN
     5667    37677    3            CALL ENTER_VALUE (LITERAL$, ITEM_ST$$, VALUE, NEXT_SEQ#);
     5668    37678
     5669    37679    3      END; /* Case */
     5670    37680
     5671    37681    2   END WALK_LITERAL;
     5672    37682        %EJECT;
PL6.E3A0      #001=Z8EM$SEMANTICS_DATA_DIV File=Z8EM.:Z8A6TSI                    SAT 08/09/97 12:08 Page:203
     5673    37683        /*===============*/
     5674    37684    1     WITH_DUPLICATES: PROC (DUP$);
     5675    37685        /*===============*/
     5676    37686
     5677    37687             /* Functions performed:
     5678    37688                 1. Insure an ALTERNATE KEY clause was specified
     5679    37689                 2. Check for multiple clauses.
     5680    37690             */
     5681    37691
     5682    37692    2        DCL DUP$          PTR;
     5683    37693    2        DCL ITEM$         PTR;
     5684    37694    2        DCL LIST$         PTR;
     5685    37695
     5686    37696
     5687    37697    2        IF NOT O1COM.PREVIOUS_ALT_KEY THEN
     5688    37698    3          DO;
     5689    37699                 %CONDITIONAL_ERROR (@LX_ITEM$ = DUP$,
     5690    37700                                     @ERROR#   = %E$DUPLICATES_NO_KEY,
     5691    37701                                     @LINE     = DUP$ -> LX_TERMINAL.LINE,
     5692    37702                                     @COLUMN   = DUP$ -> LX_TERMINAL.COLUMN);
     5693    37732
     5694    37733    3            RETURN;
     5695    37734    3          END;
     5696    37735
     5697    37736    2        LIST$ = O1COM.CURRENT_FILE_LTS$ -> FILE_LTS.ALT_RECORD_KEY$;
     5698    37737
     5699    37738             %NEW_COPY_LX_ITEM (@FROM$ = DUP$,
     5700    37739                                @TO$   = ITEM$);
     5701    37751
     5702    37752             %ADD_LX_ITEM_TO_LIST_TAIL (@LIST$ = LIST$ -> LX_LIST.TAIL$,
     5703    37753                                        @FROM$ = ITEM$);
     5704    37769
     5705    37770
     5706    37771    2   END WITH_DUPLICATES;
     5707    37772        %EJECT;
PL6.E3A0      #001=Z8EM$SEMANTICS_DATA_DIV File=Z8EM.:Z8A6TSI                    SAT 08/09/97 12:08 Page:204
     5708    37773        /*=====================*/
     5709    37774    1     WRAP_UP_SPECIAL_NAMES: PROC;
     5710    37775        /*=====================*/
     5711    37776
     5712    37777    2   DCL PROC$              PTR;
     5713    37778
     5714    37779    2        PROC$ = O1COM.CURRENT_PROC$ -> PROC_.PROC_SUPP$;
     5715    37780
     5716    37781    2        IF PROC$ -> PROC_SUPP.COLLATING_SEQ$ = ADDR(NIL) THEN
     5717    37782    2          IF O1COM.COLLATING_SEQ$ ~= ADDR(NIL) THEN
     5718    37783    3            DO;
     5719    37784    3   CHECK_COLLATING_SEQ:
     5720    37785    4              DO;
     5721    37786    4                CALL Z8DO$QUALIFY_TERMINAL_NO_ERROR (O1COM.COLLATING_SEQ$, P$)
     5722    37787    5                  WHENRETURN DO; /* Defined in containing program */
     5723    37788    5                    IF P$ -> ST.ID = %ALPHABET THEN
     5724    37789    6                      DO; /* Genuine alphabet -- OK */
     5725    37790    6                        PROC$ -> PROC_SUPP.COLLATING_SEQ$ = P$;
     5726    37791    6                        EXIT CHECK_COLLATING_SEQ;
     5727    37792    6                      END;
     5728    37793    5                  END; /* WHENRETURN */
     5729    37794
     5730    37795                     %CONDITIONAL_ERROR (@LX_ITEM$ = O1COM.COLLATING_SEQ$,
     5731    37796                                         @ERROR# = %E$ALPHABET_NOT_DEFINED,
     5732    37797                                         @LINE = O1COM.COLLATING_SEQ$ -> LX_TERMINAL.LINE,
     5733    37798                                         @COLUMN =
             37798                                             O1COM.COLLATING_SEQ$ -> LX_TERMINAL.COLUMN,
     5734    37799                                         @PLUG1 = O1COM.COLLATING_SEQ$ -> LX_TERMINAL.DNT$);
     5735    37829    4              END; /* CHECK_COLLATING_SEQ */
     5736    37830
     5737    37831    3              CALL Z8ED$DISPOSE_ABSSYN_TREE (O1COM.COLLATING_SEQ$);
     5738    37832    3              RETURN;
     5739    37833    3            END;
     5740    37834    2          ELSE
     5741    37835    2            RETURN;
     5742    37836
     5743    37837    2        IF PROC$ -> PROC_SUPP.COLLATING_SEQ$ -> ALPHABET.B.CODE = %ASCII
PL6.E3A0      #001=Z8EM$SEMANTICS_DATA_DIV File=Z8EM.:Z8A6TSI                    SAT 08/09/97 12:08 Page:205
     5744    37838    2        OR PROC$ -> PROC_SUPP.COLLATING_SEQ$ -> ALPHABET.B.CODE = %JIS THEN
     5745    37839    3          DO;
     5746    37840    3            PROC$ -> PROC_SUPP.COLLATING_SEQ$ = ADDR(NIL);
     5747    37841    3            RETURN;
     5748    37842    3          END;
     5749    37843
     5750    37844    2        PROC$ -> PROC_SUPP.LOW_VALUE = BINASC (PROC$ -> PROC_SUPP.COLLATING_SEQ$ ->
     5751    37845    2                                   ALPHABET.LOW_VALUE);
     5752    37846
     5753    37847    2        PROC$ -> PROC_SUPP.HIGH_VALUE = BINASC (PROC$ -> PROC_SUPP.COLLATING_SEQ$ ->
     5754    37848    2                                    ALPHABET.HIGH_VALUE);
     5755    37849
     5756    37850
     5757    37851    2   END WRAP_UP_SPECIAL_NAMES;
     5758    37852        %EJECT;
PL6.E3A0      #001=Z8EM$SEMANTICS_DATA_DIV File=Z8EM.:Z8A6TSI                    SAT 08/09/97 12:08 Page:206
     5759    37853    1   SEMANTIC_ACTION_CASE:
     5760    37854    2   DO CASE(SEMANTIC_ACTION);
     5761    37855
     5762    37856    2     CASE(%GET_NEXT_OVERLAY);
     5763    37857
     5764    37858    2          CALL END_OF_ED_DD;
     5765    37859
     5766    37860               %DUMP_PARSER_STATS;
     5767    37865    2          PARSER_OVERLAY_RETURN_CODE = %NEXT_DIVISION_RETURN;
     5768    37866    2          O1COM.PD_FLAG ='1'B;
     5769    37867    2          UNWIND TO OVERLAY_COORDINATION_VECTOR;
     5770    37868
     5771    37869    2     CASE(%ACT_WORKING_STORAGE_SECTION);
     5772    37870
     5773    37871    2          O1COM.DATA_DECL_CONTEXT = %WORKING_STORAGE;
     5774    37872
     5775    37873    2          IF O1COM.SECTION_FOUND.WORKING_STORAGE THEN
     5776    37874    3            DO;
     5777    37875    3              P$ = ADDR(O1COM.LX_STK(O1COM.LX_TOP));
     5778    37876
     5779    37877                   %CONDITIONAL_ERROR (@LX_ITEM$ = P$,
     5780    37878                                       @ERROR#   = %E$MULTIPLE_SECTIONS,
     5781    37879                                       @LINE     = P$ -> LX_ITEM.LINE,
     5782    37880                                       @COLUMN   = P$ -> LX_ITEM.COLUMN);
     5783    37910    3            END;
     5784    37911
     5785    37912    2          O1COM.SECTION_FOUND.WORKING_STORAGE = TRUE;
     5786    37913    2          O1COM.LEVEL_NO = 0;
     5787    37914    2          HIER_STK_PTR = 0;
     5788    37915
     5789    37916    2     CASE(%ACT_LINKAGE_SECTION);
     5790    37917    2          O1COM.DATA_DECL_CONTEXT = %LINKAGE_SECTION;
     5791    37918
     5792    37919    2          IF O1COM.SECTION_FOUND.LINKAGE_SECTION THEN
     5793    37920    3            DO;
     5794    37921    3              P$ = ADDR(O1COM.LX_STK(O1COM.LX_TOP));
     5795    37922
PL6.E3A0      #001=Z8EM$SEMANTICS_DATA_DIV File=Z8EM.:Z8A6TSI                    SAT 08/09/97 12:08 Page:207
     5796    37923                   %CONDITIONAL_ERROR (@LX_ITEM$ = P$,
     5797    37924                                       @ERROR#   = %E$MULTIPLE_SECTIONS,
     5798    37925                                       @LINE     = P$ -> LX_ITEM.LINE,
     5799    37926                                       @COLUMN   = P$ -> LX_ITEM.COLUMN);
     5800    37956    3            END;
     5801    37957
     5802    37958    2          O1COM.SECTION_FOUND.LINKAGE_SECTION = TRUE;
     5803    37959    2          O1COM.LEVEL_NO = 0;
     5804    37960    2          HIER_STK_PTR = 0;
     5805    37961
     5806    37962    2     CASE(%ACT_CURRENCY_SIGN);
     5807    37963    2         CALL CURRENCY_SIGN (ADDR(O1COM.LX_STK(O1COM.LX_TOP)));
     5808    37964
     5809    37965    2     CASE(%ACT_CURRENCY_SIGN_OBJECT);
     5810    37966
     5811    37967    2         CALL CURRENCY_SIGN (ADDR(O1COM.LX_STK(O1COM.LX_TOP - 5)));
     5812    37968               /*N* HANDLE_OBJECT_SIGN -- Need to process LX_STK(LX_TOP) too */
     5813    37969
     5814    37970    2     CASE(%ACT_COMMA_DECIMAL_POINT) ;
     5815    37971    2         IF O1COM.LX_STK.SYMBOL(O1COM.LX_TOP) = %RSV_WRD_COMMA THEN
     5816    37972    2           CALL Z8DP$COMMA_DECIMAL_POINT ;
     5817    37973    2         ELSE
     5818    37974    2           O1COM.CURRENT_PROC$ -> PROC_.B.COMMA_IS_DECIMAL = FALSE;
     5819    37975
     5820    37976    2     CASE(%ACT_OBJECT_COMMA_DEC_PNT);
     5821    37977    2         IF O1COM.LX_STK.SYMBOL( O1COM.LX_TOP - 3 ) = %RSV_WRD_COMMA      THEN
     5822    37978    2           IF O1COM.LX_STK.SYMBOL( O1COM.LX_TOP ) = %RSV_WRD_COMMA      THEN
     5823    37979    2             CALL Z8DP$COMMA_DECIMAL_POINT;
     5824    37980    2           ELSE
     5825    37981    2             CALL Z8DP$COMMA_DECIMAL_TABLE_SWITCH;
     5826    37982
     5827    37983    2         ELSE
     5828    37984    2           IF O1COM.LX_STK.SYMBOL( O1COM.LX_TOP ) = %RSV_WRD_COMMA     THEN
     5829    37985    3             DO;
     5830    37986    3               O1COM.CURRENT_PROC$ -> PROC_.B.OBJECT_IS_COMMA  = %TRUE;
     5831    37987    3               COMCOM.COMMA_DECIMAL_PRESENT = TRUE;
     5832    37988    3             END;
PL6.E3A0      #001=Z8EM$SEMANTICS_DATA_DIV File=Z8EM.:Z8A6TSI                    SAT 08/09/97 12:08 Page:208
     5833    37989    2           ELSE
     5834    37990    2             O1COM.CURRENT_PROC$ -> PROC_.B.COMMA_IS_DECIMAL = %FALSE;
     5835    37991
     5836    37992
     5837    37993    2     CASE(%ACT_DEBUGGING_MODE);
     5838    37994
     5839    37995    2          O1COM.DEBUGGING_MODE = TRUE;
     5840    37996
     5841    37997
     5842    37998    2     CASE(%ACT_CONSECUTIVE_PROG);
     5843    37999    2          O1COM.FIRST_PROG_QLT$ = COMCOM.PREV_QLT$;
     5844    38000
     5845    38001    2          IF END_PROGRAM_FOUND THEN
     5846    38002                 %NEW_ILL (@ID = %END_PROG);
     5847    38381
     5848    38382    2          IF O1COM.CURRENT_PROC$ ~= ADDR(NIL) THEN
     5849    38383    3            DO;
     5850    38384    3              P$ = O1COM.CURRENT_PROC$ -> PROC_.PROC_SUPP$;
     5851    38385
     5852    38386    3              O1COM.DISPLAY_SIGN_TYPE = P$ -> PROC_SUPP.DISPLAY_SIGN_TYPE;
     5853    38387    3              O1COM.DISPLAY_SIGN_POS  = P$ -> PROC_SUPP.DISPLAY_SIGN_POS;
     5854    38388    3              O1COM.COMP_4_SIGN_POS   = P$ -> PROC_SUPP.COMP_4_SIGN_POS;
     5855    38389    3              O1COM.COMP_DEFAULT      = P$ -> PROC_SUPP.COMP_DEFAULT;
     5856    38390    3            END;
     5857    38391
     5858    38392
     5859    38393    2     CASE(%ACT_END_PROGRAM);
     5860    38394    2          CALL Z8CO$END_PROGRAM (ADDR(O1COM.LX_STK(O1COM.LX_TOP - 1)));
     5861    38395
     5862    38396    2     CASE(%ACT_EOF);
     5863    38397
     5864    38398    2          IF O1COM.REPORT_SUM$ ~= ADDR(NIL) THEN
     5865    38399    2            CALL Z8ED$DISPOSE_ABSSYN_TREE(O1COM.REPORT_SUM$);
     5866    38400
     5867    38401    2          IF O1COM.REPORT_SOURCE$ ~= ADDR(NIL) THEN
     5868    38402    2            CALL Z8ED$DISPOSE_ABSSYN_TREE(O1COM.REPORT_SOURCE$);
     5869    38403
PL6.E3A0      #001=Z8EM$SEMANTICS_DATA_DIV File=Z8EM.:Z8A6TSI                    SAT 08/09/97 12:08 Page:209
     5870    38404    2          IF COMCOM.IDS_SUB_SCHEMA      THEN
     5871    38405    2             CALL DML_TABLE_WRAPUP;
     5872    38406
     5873    38407    2          CALL Z8CO$END_PROGRAM (ADDR(NIL));
     5874    38408
     5875    38409    2     CASE(%ACT_ID_DIVISION);
     5876    38410
     5877    38411    2          O1COM.LAST_SECTION$ = ADDR(NIL);
     5878    38412    2          O1COM.CURRENT_SEGMENTC = %PROC;
     5879    38413
     5880    38414    2          CALL NEW_PROC (ADDR(O1COM.LX_STK(O1COM.LX_TOP - 3)),
     5881    38415    2                         ADDR(O1COM.LX_STK(O1COM.LX_TOP - 2)));
     5882    38416
     5883    38417    2          END_PROGRAM_FOUND = FALSE;
     5884    38418
     5885    38419    2          IF O1COM.ID_DIV_COUNT = 0 AND COMCOM.INSTALLATION$ ~= ADDR(NIL) THEN
     5886    38420    3            DO;
     5887    38421    3              CALL Z8EC$INTERNAL_STRING_REP (COMCOM.INSTALLATION$,
     5888    38422    3                                             P$);
     5889    38423    3              CALL Z8ED$DISPOSE_ABSSYN_TREE(COMCOM.INSTALLATION$);
     5890    38424
     5891    38425    3              COMCOM.INSTALLATION$ = P$;
     5892    38426    3            END;
     5893    38427
     5894    38428    2          O1COM.ID_DIV_COUNT = O1COM.ID_DIV_COUNT + 1;
     5895    38429
     5896    38430
     5897    38431    2     CASE(%ACT_NO_PROC_DIV);
     5898    38432
     5899    38433    2          CALL END_OF_ED_DD;
     5900    38434
     5901    38435    2          IF O1COM.CURRENT_PROC$ -> PROC_.FATHER = ADDR(NIL)
     5902    38436    2          AND NOT COMCOM.OB.SUB THEN
     5903    38437    3            DO;
     5904    38438                   %NEW_ILL (@ID   = %ENTRY,
     5905    38439                             @CODE = %MAIN_PROGRAM,
     5906    38440                             @LOP  = O1COM.CURRENT_PROC$ -> PROC_.PROC_DEF$);
PL6.E3A0      #001=Z8EM$SEMANTICS_DATA_DIV File=Z8EM.:Z8A6TSI                    SAT 08/09/97 12:08 Page:210
     5907    38819
     5908    38820    3              O1COM.CURRENT_PROC$ -> PROC_.PROC_DEF$ ->
     5909    38821    3              SYMDEF_.B.MAIN_PROGRAM = TRUE;
     5910    38822    3            END;
     5911    38823    2          ELSE
     5912    38824    3            DO;
     5913    38825                   %NEW_ILL (@ID   = %ENTRY,
     5914    38826                             @CODE = %SUBROUTINE,
     5915    38827                             @LOP  = O1COM.CURRENT_PROC$ -> PROC_.PROC_DEF$);
     5916    39206
     5917    39207                   /* Create the pseudo stack, this is for the return
     5918    39208                      addr to be put. */
     5919    39209
     5920    39210    3              CALL Z8AT$CREATE_TEMPORARY (%SCALAR, P$);
     5921    39211
     5922    39212    3              P$ -> SCALAR.B.CLASS = %CLASS_ALPHANUMERIC;
     5923    39213    3              P$ -> SCALAR.TYPE    = %TYA;
     5924    39214    3              P$ -> SCALAR.ADSC.N  = 4;
     5925    39215
     5926    39216    3              CALL Z8AF$NEW_BASE (P$, ADDR(NIL), O1COM.CURRENT_PROC$ ->
     5927    39217    3                                                 PROC_.PSEUDO_STACK$);
     5928    39218
     5929    39219    3              IF COMCOM.X66_STATIC_0$ = ADDR(NIL)    THEN
     5930    39220    4                DO;
     5931    39221
     5932    39222                       %NEW_DNT( @NAME = "'X66_STATIC_0'", @SIZE = 12 );
     5933    39280                       %NEW_SYMREF_( @ST$  = ST$,
     5934    39281                                     @R    = %EXT_PROGRAM,
     5935    39282                                     @DNT$ = DNT$ );
     5936    39347    4                  COMCOM.SYMREFC = COMCOM.SYMREFC + 1;
     5937    39348    4                  ST$ -> SYMREF_.COUNT = COMCOM.SYMREFC;
     5938    39349    4                  O1COM.LAST_SYMREF$ -> SYMREF_.NEXT = ST$;
     5939    39350    4                  O1COM.LAST_SYMREF$ = ST$;
     5940    39351
     5941    39352    4                  CALL Z8AF$FORME( %ESC, ST$, 0, P$ );
     5942    39353    4                  CALL Z8AF$NEW_BASE( ST$, P$, COMCOM.X66_STATIC_0$ );
     5943    39354    4                END;
PL6.E3A0      #001=Z8EM$SEMANTICS_DATA_DIV File=Z8EM.:Z8A6TSI                    SAT 08/09/97 12:08 Page:211
     5944    39355    3            END;
     5945    39356         %EJECT;
PL6.E3A0      #001=Z8EM$SEMANTICS_DATA_DIV File=Z8EM.:Z8A6TSI                    SAT 08/09/97 12:08 Page:212
     5946    39357        /*
     5947    39358                          Identification Paragraph checks
     5948    39359        */
     5949    39360    2     CASE(%ACT_AUTHOR_PGPH_PRSNT);
     5950    39361    2          IF AUTHOR_PGPH_FLAG THEN
     5951    39362    2               CALL Z8AE$ERROR(%E$DUPL_DEFIN_ERR,
     5952    39363    2                  O1COM.LX_STK.LINE(O1COM.LX_TOP),
     5953    39364    2                  O1COM.LX_STK.COLUMN(O1COM.LX_TOP));
     5954    39365    2          IF COMCOM.OB.FIPS.LEVEL > 0 THEN
     5955    39366    3               DO;
     5956    39367    3               IF INSTALL_PGPH_FLAG OR DATWRIT_PGPH_FLAG OR
     5957    39368    3                    DATCMPIL_PGPH_FLAG OR SECURITY_PGPH_FLAG THEN
     5958    39369    3                       CALL Z8AE$ERROR(%E$IDEN_PGPH_SEQ_ERR,
     5959    39370    3                          O1COM.LX_STK.LINE(O1COM.LX_TOP),
     5960    39371    3                          O1COM.LX_STK.COLUMN(O1COM.LX_TOP));
     5961    39372    3               END;
     5962    39373    2          IF COMCOM.OB.FIPS.OBS THEN
     5963    39374    2            CALL Z8AE$ERROR (%E$OBSOLETE,
     5964    39375    2                             O1COM.LX_STK.LINE(O1COM.LX_TOP),
     5965    39376    2                             O1COM.LX_STK.COLUMN(O1COM.LX_TOP));
     5966    39377    2          AUTHOR_PGPH_FLAG = TRUE;
     5967    39378
     5968    39379    2     CASE(%ACT_INSTALL_PGPH_PRSNT);
     5969    39380    2          IF INSTALL_PGPH_FLAG THEN
     5970    39381    2               CALL Z8AE$ERROR(%E$DUPL_DEFIN_ERR,
     5971    39382    2                  O1COM.LX_STK.LINE(O1COM.LX_TOP),
     5972    39383    2                  O1COM.LX_STK.COLUMN(O1COM.LX_TOP));
     5973    39384    2          IF COMCOM.OB.FIPS.LEVEL > 0 THEN
     5974    39385    3               DO;
     5975    39386    3               IF DATWRIT_PGPH_FLAG OR
     5976    39387    3                    DATCMPIL_PGPH_FLAG OR SECURITY_PGPH_FLAG THEN
     5977    39388    3                       CALL Z8AE$ERROR(%E$IDEN_PGPH_SEQ_ERR,
     5978    39389    3                          O1COM.LX_STK.LINE(O1COM.LX_TOP),
     5979    39390    3                          O1COM.LX_STK.COLUMN(O1COM.LX_TOP));
     5980    39391    3               END;
     5981    39392    2          IF COMCOM.OB.FIPS.OBS THEN
     5982    39393    2            CALL Z8AE$ERROR (%E$OBSOLETE,
PL6.E3A0      #001=Z8EM$SEMANTICS_DATA_DIV File=Z8EM.:Z8A6TSI                    SAT 08/09/97 12:08 Page:213
     5983    39394    2                             O1COM.LX_STK.LINE(O1COM.LX_TOP),
     5984    39395    2                             O1COM.LX_STK.COLUMN(O1COM.LX_TOP));
     5985    39396    2          INSTALL_PGPH_FLAG = TRUE;
     5986    39397
     5987    39398    2     CASE(%ACT_DATWRIT_PGPH_PRSNT);
     5988    39399    2          IF DATWRIT_PGPH_FLAG THEN
     5989    39400    2               CALL Z8AE$ERROR(%E$DUPL_DEFIN_ERR,
     5990    39401    2                  O1COM.LX_STK.LINE(O1COM.LX_TOP),
     5991    39402    2                  O1COM.LX_STK.COLUMN(O1COM.LX_TOP));
     5992    39403    2          IF COMCOM.OB.FIPS.LEVEL > 0 THEN
     5993    39404    3               DO;
     5994    39405    3               IF DATCMPIL_PGPH_FLAG OR SECURITY_PGPH_FLAG THEN
     5995    39406    3                       CALL Z8AE$ERROR(%E$IDEN_PGPH_SEQ_ERR,
     5996    39407    3                          O1COM.LX_STK.LINE(O1COM.LX_TOP),
     5997    39408    3                          O1COM.LX_STK.COLUMN(O1COM.LX_TOP));
     5998    39409    3               END;
     5999    39410    2          IF COMCOM.OB.FIPS.OBS THEN
     6000    39411    2            CALL Z8AE$ERROR (%E$OBSOLETE,
     6001    39412    2                             O1COM.LX_STK.LINE(O1COM.LX_TOP),
     6002    39413    2                             O1COM.LX_STK.COLUMN(O1COM.LX_TOP));
     6003    39414    2          DATWRIT_PGPH_FLAG = TRUE;
     6004    39415
     6005    39416    2     CASE(%ACT_DATCMPIL_PGPH_PRSNT);
     6006    39417    2          IF DATCMPIL_PGPH_FLAG THEN
     6007    39418    2               CALL Z8AE$ERROR(%E$DUPL_DEFIN_ERR,
     6008    39419    2                  O1COM.LX_STK.LINE(O1COM.LX_TOP),
     6009    39420    2                  O1COM.LX_STK.COLUMN(O1COM.LX_TOP));
     6010    39421    2          IF COMCOM.OB.FIPS.LEVEL > 0 THEN
     6011    39422    3               DO;
     6012    39423    3               IF COMCOM.OB.FIPS.LEVEL >= %INT_LEV THEN
     6013    39424    3                 CALL Z8AE$ERROR(%E$LEVEL_CHECK,
     6014    39425    3                                 O1COM.LX_STK.LINE(O1COM.LX_TOP),
     6015    39426    3                                 O1COM.LX_STK.COLUMN(O1COM.LX_TOP));
     6016    39427    3               IF SECURITY_PGPH_FLAG THEN
     6017    39428    3                       CALL Z8AE$ERROR(%E$IDEN_PGPH_SEQ_ERR,
     6018    39429    3                          O1COM.LX_STK.LINE(O1COM.LX_TOP),
     6019    39430    3                          O1COM.LX_STK.COLUMN(O1COM.LX_TOP));
PL6.E3A0      #001=Z8EM$SEMANTICS_DATA_DIV File=Z8EM.:Z8A6TSI                    SAT 08/09/97 12:08 Page:214
     6020    39431    3               END;
     6021    39432    2          IF COMCOM.OB.FIPS.OBS THEN
     6022    39433    2            CALL Z8AE$ERROR (%E$OBSOLETE,
     6023    39434    2                             O1COM.LX_STK.LINE(O1COM.LX_TOP),
     6024    39435    2                             O1COM.LX_STK.COLUMN(O1COM.LX_TOP));
     6025    39436    2          DATCMPIL_PGPH_FLAG = TRUE;
     6026    39437
     6027    39438    2     CASE(%ACT_SECURITY_PGPH_PRSNT);
     6028    39439    2          IF SECURITY_PGPH_FLAG THEN
     6029    39440    2               CALL Z8AE$ERROR(%E$DUPL_DEFIN_ERR,
     6030    39441    2                  O1COM.LX_STK.LINE(O1COM.LX_TOP),
     6031    39442    2                  O1COM.LX_STK.COLUMN(O1COM.LX_TOP));
     6032    39443    2          IF COMCOM.OB.FIPS.OBS THEN
     6033    39444    2            CALL Z8AE$ERROR (%E$OBSOLETE,
     6034    39445    2                             O1COM.LX_STK.LINE(O1COM.LX_TOP),
     6035    39446    2                             O1COM.LX_STK.COLUMN(O1COM.LX_TOP));
     6036    39447    2          SECURITY_PGPH_FLAG = TRUE;
     6037    39448
     6038    39449         %EJECT;
PL6.E3A0      #001=Z8EM$SEMANTICS_DATA_DIV File=Z8EM.:Z8A6TSI                    SAT 08/09/97 12:08 Page:215
     6039    39450        /*
     6040    39451                           Default Clauses
     6041    39452        */
     6042    39453    2     CASE(%ACT_DISPLAY_SIGN);
     6043    39454    2          CALL DISPLAY_SIGN (ADDR(O1COM.LX_STK(O1COM.LX_TOP)));
     6044    39455
     6045    39456    2     CASE(%ACT_COMP_4_SIGN);
     6046    39457    2          IF ADDR(O1COM.LX_STK(O1COM.LX_TOP)) -> LX_ITEM.SYMBOL = %RSV_WRD_LEADING THEN
     6047    39458    2            O1COM.COMP_4_SIGN_POS = %SIGN_POS_LEADING;
     6048    39459
     6049    39460    2     CASE(%ACT_DEFAULT_COMP);
     6050    39461    2          O1COM.COMP_DEFAULT = ADDR(O1COM.LX_STK(O1COM.LX_TOP)) -> LX_TERMINAL.SYMBOL;
     6051    39462
     6052    39463    2     CASE(%ACT_NUMERIC_LIMIT);
     6053    39464
     6054    39465    2          CALL CHARBIN (COMCOM.MAX_TEMP_LENGTH,
     6055    39466    2                        O1COM.LX_STK.DNT$(O1COM.LX_TOP) -> DNT.TEXT.NAME);
     6056    39467    2          IF COMCOM.MAX_TEMP_LENGTH < 18
     6057    39468    2                  OR COMCOM.MAX_TEMP_LENGTH > 60 THEN
     6058    39469    2            CALL Z8AE$ERROR (%E$INVALID_NUMERIC_LIMIT,
     6059    39470    2                             O1COM.LX_STK.LINE(O1COM.LX_TOP),
     6060    39471    2                             O1COM.LX_STK.COLUMN(O1COM.LX_TOP));
     6061    39472        %EJECT;
PL6.E3A0      #001=Z8EM$SEMANTICS_DATA_DIV File=Z8EM.:Z8A6TSI                    SAT 08/09/97 12:08 Page:216
     6062    39473        /*
     6063    39474                               Input-Output Section
     6064    39475        */
     6065    39476
     6066    39477    2     CASE(%ACT_SAME_AREA);
     6067    39478               %ADD_LX_STK_TO_LIST_HEAD(@FROM = O1COM.LX_TOP - 1,
     6068    39479                                        @LIST$= "ADDR(O1COM.LX_STK(O1COM.LX_TOP))");
     6069    39504    2          CALL SAME_AREA (ADDR(O1COM.LX_STK(O1COM.LX_TOP)), ADDR(O1COM.LX_STK(O1COM.
             39504                   LX_TOP-4)));
     6070    39505
     6071    39506    2     CASE(%ACT_MULTIPLE_FILE_TAPE);
     6072    39507    3          IF COMCOM.OB.FIPS.LEVEL >= %INT_LEV THEN DO;
     6073    39508    3            CALL Z8AE$ERROR (%E$LEVEL_CHECK,
     6074    39509    3                             O1COM.LX_STK.LINE(O1COM.LX_TOP - 4),
     6075    39510    3                             O1COM.LX_STK.COLUMN(O1COM.LX_TOP - 4));
     6076    39511    3          END;
     6077    39512    3          ELSE IF COMCOM.OB.FIPS.OBS THEN DO;
     6078    39513    3            CALL Z8AE$ERROR (%E$OBSOLETE,
     6079    39514    3                             O1COM.LX_STK.LINE(O1COM.LX_TOP - 4),
     6080    39515    3                             O1COM.LX_STK.COLUMN(O1COM.LX_TOP - 4));
     6081    39516    3          END;
     6082    39517    2          CALL MULTIPLE_FILE_TAPE (ADDR(O1COM.LX_STK(O1COM.LX_TOP)));
     6083    39518
     6084    39519    2     CASE(%ACT_RERUN_CLAUSE);
     6085    39520
     6086    39521    2     CASE(%ACT_RERUN_EVERY_RECORDS);
     6087    39522    2          CALL RERUN (ADDR(O1COM.LX_STK(O1COM.LX_TOP-3)), ADDR(O1COM.LX_STK(O1COM.
             39522                   LX_TOP)));
     6088    39523
     6089    39524    2     CASE(%ACT_CHANNEL_NUMBER);
     6090    39525    2          CALL CHANNEL_NUMBER (ADDR(O1COM.LX_STK(O1COM.LX_TOP - 2)), ADDR(O1COM.LX_STK(
             39525                   O1COM.LX_TOP)));
     6091    39526
     6092    39527    2     CASE(%ACT_CSP);
     6093    39528    2          CALL CHANNEL_NUMBER (ADDR(O1COM.LX_STK(O1COM.LX_TOP - 2)), ADDR(O1COM.LX_STK(
             39528                   O1COM.LX_TOP)));
     6094    39529
PL6.E3A0      #001=Z8EM$SEMANTICS_DATA_DIV File=Z8EM.:Z8A6TSI                    SAT 08/09/97 12:08 Page:217
     6095    39530    2     CASE(%ACT_VFC_CLAUSE);
     6096    39531    2          CALL VFC_CHAR (ADDR(O1COM.LX_STK(O1COM.LX_TOP - 2)), ADDR(O1COM.LX_STK(O1COM.
             39531                   LX_TOP)));
     6097    39532
     6098    39533    2     CASE(%ACT_FILE_POSITION);
     6099    39534               %INIT_LX_LIST (@POINTER = "ADDR(TEMP_LX_NODE)");
     6100    39544               %ADD_LX_STK_TO_LIST_HEAD (@LIST$ = "ADDR(TEMP_LX_NODE)",
     6101    39545                                         @FROM  = O1COM.LX_TOP);
     6102    39570               %ADD_LX_STK_TO_LIST_HEAD (@LIST$ = "ADDR(TEMP_LX_NODE)",
     6103    39571                                         @FROM  = "O1COM.LX_TOP - 3");
     6104    39596               %PROP_ERR_TEMP_LX_NODE;
     6105    39604               %PROPAGATE_TEMP_LX_NODE;
     6106    39609
     6107    39610    2     CASE(%ACT_UPDATE_CURRENT_CLAUSE);
     6108    39611    2          O1COM.PREVIOUS_ALT_KEY = O1COM.CURRENT_ALT_KEY;
     6109    39612    2          O1COM.CURRENT_ALT_KEY = FALSE;
     6110    39613
     6111    39614    2     CASE(%ACT_SELECT_CLAUSE_INIT);
     6112    39615    2        CALL SELECT_CLAUSE_INIT (ADDR(O1COM.LX_STK(O1COM.LX_TOP)), ADDR(O1COM.LX_STK(
             39615                 O1COM.LX_TOP - 1)));
     6113    39616
     6114    39617
     6115    39618    2     CASE(%ACT_SELECT_CLAUSE_END);
     6116    39619    2          CALL SELECT_CLAUSE_END ;
     6117    39620
     6118    39621
     6119    39622    2     CASE(%ACT_NOMINAL_KEY);
     6120    39623    2          CALL CHECK_SEQ_ORG (ADDR(O1COM.LX_STK(O1COM.LX_TOP)) -> LX_LIST.HEAD$)
     6121    39624    2            WHENALTRETURN
     6122    39625    3              DO;
     6123    39626    3                CALL Z8ED$DISPOSE_ABSSYN_TREE (ADDR(O1COM.LX_STK(O1COM.LX_TOP)) ->
     6124    39627    3                                               LX_LIST.HEAD$);
     6125    39628    3                EXIT SEMANTIC_ACTION_CASE;
     6126    39629    3              END;
     6127    39630
     6128    39631    2          CALL CHECK_REL_ORG (ADDR(O1COM.LX_STK(O1COM.LX_TOP)) -> LX_LIST.HEAD$)
     6129    39632    2            WHENALTRETURN
PL6.E3A0      #001=Z8EM$SEMANTICS_DATA_DIV File=Z8EM.:Z8A6TSI                    SAT 08/09/97 12:08 Page:218
     6130    39633    3              DO;
     6131    39634    3                CALL Z8ED$DISPOSE_ABSSYN_TREE (ADDR(O1COM.LX_STK(O1COM.LX_TOP)) ->
     6132    39635    3                                               LX_LIST.HEAD$);
     6133    39636    3                EXIT SEMANTIC_ACTION_CASE;
     6134    39637    3              END;
     6135    39638
     6136    39639    2          CALL CHECK_KEY_ORG (ADDR(O1COM.LX_STK(O1COM.LX_TOP)) -> LX_LIST.HEAD$)
     6137    39640    2            WHENALTRETURN
     6138    39641    3              DO;
     6139    39642    3                CALL Z8ED$DISPOSE_ABSSYN_TREE (ADDR(O1COM.LX_STK(O1COM.LX_TOP)) ->
     6140    39643    3                                               LX_LIST.HEAD$);
     6141    39644    3                EXIT SEMANTIC_ACTION_CASE;
     6142    39645    3              END;
     6143    39646
     6144    39647    2          CALL ANSI_ATTRIBUTE_CHECK(ADDR(O1COM.LX_STK(O1COM.LX_TOP - 3)));
     6145    39648
     6146    39649    2          CALL CHECK_AND_SAVE_ITEM (ADDR(O1COM.LX_STK(O1COM.LX_TOP)),
     6147    39650    2                                    O1COM.CURRENT_FILE_LTS$ -> FILE_LTS.NOMINAL_KEY$,
     6148    39651    2                                    %RSV_WRD_KEY);
     6149    39652
     6150    39653    2     CASE(%ACT_ASSIGN);
     6151    39654
     6152    39655    2          TEMP$ = ADDR(O1COM.LX_STK(O1COM.LX_TOP)) -> LX_LIST.HEAD$;
     6153    39656    3          DO UNTIL TEMP$ = ADDR(NIL);
     6154    39657    3            IF SUBSTR(TEMP$ -> LX_TERMINAL.DNT$ -> DNT.TEXT.NAME, 0, 1) = '"'
     6155    39658    3              OR SUBSTR(TEMP$ -> LX_TERMINAL.DNT$ -> DNT.TEXT.NAME, 0, 1) = ''''
     6156    39659    4              THEN DO;
     6157    39660    4                CALL Z8EC$INTERNAL_STRING_REP (TEMP$, P$);
     6158    39661                     /* take off quote */
     6159    39662    4                LEN = P$ -> DNT.TEXT.LENGTH;
     6160    39663    4                SUBSTR(LEX_SYMBOL.SYMBOL, 0, LEN - 2)
     6161    39664    4                  = SUBSTR(P$ -> DNT.TEXT.NAME, 1, LEN - 2);
     6162    39665    4                LEX_SYMBOL.TYPE = %ALPHA_LITERAL;
     6163    39666    4                LEX_SYMBOL.SIZE = LEN - 2;
     6164    39667    4                LEX_SYMBOL.LINE = TEMP$ -> LX_TERMINAL.LINE;
     6165    39668    4                LEX_SYMBOL.COLUMN = TEMP$ -> LX_TERMINAL.COLUMN;
     6166    39669    4                CALL Z8AH$SEARCH_;
PL6.E3A0      #001=Z8EM$SEMANTICS_DATA_DIV File=Z8EM.:Z8A6TSI                    SAT 08/09/97 12:08 Page:219
     6167    39670    4                TEMP$ -> LX_TERMINAL.DNT$ = DNT$;
     6168    39671    4              END;
     6169    39672    3              TEMP$ = TEMP$ -> LX_ITEM.LINK;
     6170    39673    3            END;
     6171    39674    2          CALL ASSIGN_DEVICE (ADDR(O1COM.LX_STK(O1COM.LX_TOP)));
     6172    39675    2          CALL Z9EM$VERIFY_DEVICE (ADDR(O1COM.LX_STK(O1COM.LX_TOP)));
     6173    39676
     6174    39677    2          IF O1COM.CURRENT_FILE_LTS$ -> FILE_LTS.ORGANIZATION ~= %NOT_SPECIFIED THEN
     6175    39678    2            CALL Z9EM$MASS_STORAGE_CHECK (ADDR(O1COM.LX_STK(O1COM.LX_TOP)) ->
     6176    39679    2                                               LX_LIST.HEAD$,
     6177    39680    2                                          O1COM.CURRENT_FILE_LTS$);
     6178    39681    2          CALL Z8ED$DISPOSE_ABSSYN_TREE (ADDR(O1COM.LX_STK(O1COM.LX_TOP)) -> LX_LIST.
             39681                   HEAD$);
     6179    39682
     6180    39683    2     CASE(%ACT_RESERVE_CLAUSE);
     6181    39684    2          CALL RESERVE_#_AREAS (ADDR(O1COM.LX_STK(O1COM.LX_TOP - 1)));
     6182    39685
     6183    39686    2     CASE(%ACT_ORG_SEQUENTIAL);
     6184    39687    2          CALL FILE_ORG (ADDR(O1COM.LX_STK(O1COM.LX_TOP)), %SEQUENTIAL);
     6185    39688
     6186    39689    2     CASE(%ACT_ORG_RELATIVE);
     6187    39690    2          CALL FILE_ORG (ADDR(O1COM.LX_STK(O1COM.LX_TOP)), %RELATIVE);
     6188    39691
     6189    39692    2     CASE(%ACT_ORG_INDEXED);
     6190    39693    2          CALL FILE_ORG (ADDR(O1COM.LX_STK(O1COM.LX_TOP)), %INDEXED);
     6191    39694
     6192    39695    2     CASE(%ACT_ORG_KEYED);
     6193    39696    2          CALL FILE_ORG (ADDR(O1COM.LX_STK(O1COM.LX_TOP)), %KEYED);
     6194    39697
     6195    39698    2     CASE(%ACT_ORG_ANSI_SEQUENTIAL);
     6196    39699    2          CALL FILE_ORG (ADDR(O1COM.LX_STK(O1COM.LX_TOP)), %ANSI_SEQUENTIAL);
     6197    39700
     6198    39701    2     CASE(%ACT_ORG_UFF_SEQUENTIAL);
     6199    39702    2          CALL FILE_ORG (ADDR(O1COM.LX_STK(O1COM.LX_TOP)), %UFF_SEQUENTIAL);
     6200    39703
     6201    39704    2     CASE(%ACT_ORG_GFRC_SEQUENTIAL);
     6202    39705    2          CALL FILE_ORG (ADDR(O1COM.LX_STK(O1COM.LX_TOP)), %GFRC_SEQUENTIAL);
PL6.E3A0      #001=Z8EM$SEMANTICS_DATA_DIV File=Z8EM.:Z8A6TSI                    SAT 08/09/97 12:08 Page:220
     6203    39706
     6204    39707    2     CASE(%ACT_ORG_IBM_OS_SEQUENTIAL);
     6205    39708    2          CALL FILE_ORG (ADDR(O1COM.LX_STK(O1COM.LX_TOP)), %OS_SEQUENTIAL);
     6206    39709
     6207    39710    2     CASE(%ACT_ORG_H_2000_SEQUENTIAL);
     6208    39711    2          CALL FILE_ORG (ADDR(O1COM.LX_STK(O1COM.LX_TOP)), %H2000_SEQUENTIAL);
     6209    39712
     6210    39713    2     CASE(%ACT_ORG_UFF_RELATIVE);
     6211    39714    2          CALL FILE_ORG (ADDR(O1COM.LX_STK(O1COM.LX_TOP)), %UFF_RELATIVE);
     6212    39715
     6213    39716    2     CASE(%ACT_ORG_UFF_INDEXED);
     6214    39717    2          CALL FILE_ORG (ADDR(O1COM.LX_STK(O1COM.LX_TOP)), %UFF_INDEXED);
     6215    39718
     6216    39719    2     CASE(%ACT_ORG_GFRC_C_6000_SEQ);
     6217    39720    2          CALL FILE_ORG (ADDR(O1COM.LX_STK(O1COM.LX_TOP)), %GFRC_C_6000_SEQUENTIAL);
     6218    39721
     6219    39722    2     CASE(%ACT_ORG_IBM_OS_EBCDIC_SEQ);
     6220    39723    2          CALL FILE_ORG (ADDR(O1COM.LX_STK(O1COM.LX_TOP)), %OS_EBCDIC_SEQUENTIAL);
     6221    39724
     6222    39725    2     CASE(%ACT_ORG_ISP_C_6000_IND);
     6223    39726    2          CALL FILE_ORG (ADDR(O1COM.LX_STK(O1COM.LX_TOP)), %ISP_C_6000_INDEXED);
     6224    39727
     6225    39728    2     CASE(%ACT_ORG_MULTICS_SEQ);
     6226    39729    2          CALL FILE_ORG (ADDR(O1COM.LX_STK(O1COM.LX_TOP)), %MULTICS_SEQUENTIAL);
     6227    39730
     6228    39731    2     CASE(%ACT_ORG_IBM_DOS_SEQ);
     6229    39732    2          CALL FILE_ORG (ADDR(O1COM.LX_STK(O1COM.LX_TOP)), %DOS_SEQUENTIAL);
     6230    39733
     6231    39734    2     CASE(%ACT_ORG_MULTICS_REL);
     6232    39735    2          CALL FILE_ORG (ADDR(O1COM.LX_STK(O1COM.LX_TOP)), %MULTICS_RELATIVE);
     6233    39736
     6234    39737    2     CASE(%ACT_ORG_MULTICS_STREAM);
     6235    39738    2          CALL FILE_ORG (ADDR(O1COM.LX_STK(O1COM.LX_TOP)), %MULTICS_STREAM);
     6236    39739
     6237    39740    2     CASE(%ACT_ORG_MULTICS_IND);
     6238    39741    2          CALL FILE_ORG (ADDR(O1COM.LX_STK(O1COM.LX_TOP)), %MULTICS_INDEXED);
     6239    39742
PL6.E3A0      #001=Z8EM$SEMANTICS_DATA_DIV File=Z8EM.:Z8A6TSI                    SAT 08/09/97 12:08 Page:221
     6240    39743        /*N*
     6241    39744             Are these following bits system dependent?
     6242    39745        */
     6243    39746
     6244    39747    2     CASE(%ACT_WITH_PROCESS_AREA);
     6245    39748    2          CALL ANSI_ATTRIBUTE_CHECK(ADDR(O1COM.LX_STK(O1COM.LX_TOP)));
     6246    39749    2          CALL Z9EM$PROCESS_AREA(ADDR(O1COM.LX_STK(O1COM.LX_TOP)));
     6247    39750
     6248    39751    2     CASE(%ACT_WITH_NO_PROCESS_AREA);
     6249    39752    2          CALL ANSI_ATTRIBUTE_CHECK(ADDR(O1COM.LX_STK(O1COM.LX_TOP)));
     6250    39753    2          CALL Z9EM$NO_PROCESS_AREA(ADDR(O1COM.LX_STK(O1COM.LX_TOP)));
     6251    39754
     6252    39755    2     CASE(%ACT_WITH_BSN);
     6253    39756    2          CALL ANSI_ATTRIBUTE_CHECK(ADDR(O1COM.LX_STK(O1COM.LX_TOP)));
     6254    39757    2          CALL Z9EM$WITH_BSN    (ADDR(O1COM.LX_STK(O1COM.LX_TOP)));
     6255    39758
     6256    39759    2     CASE(%ACT_WITH_FLR);
     6257    39760    2          CALL ANSI_ATTRIBUTE_CHECK(ADDR(O1COM.LX_STK(O1COM.LX_TOP)));
     6258    39761    2          IF O1COM.CURRENT_FILE_LTS$ -> FILE_LTS.B.FLR THEN
     6259    39762    3            DO;
     6260    39763    3              P$ = ADDR(O1COM.LX_STK(O1COM.LX_TOP));
     6261    39764                   %CONDITIONAL_ERROR (@LX_ITEM$ = P$,
     6262    39765                                       @ERROR#   = %E$DUP_DD_CLAUSE,
     6263    39766                                       @LINE     = P$ -> LX_ITEM.LINE,
     6264    39767                                       @COLUMN   = P$ -> LX_ITEM.COLUMN,
     6265    39768                                       @PLUG1    = P$ -> LX_ITEM.DNT$);
     6266    39798    3            END;
     6267    39799    2          ELSE IF O1COM.CURRENT_FILE_LTS$ -> FILE_LTS.B.VLR
     6268    39800    2               OR O1COM.CURRENT_FILE_LTS$ -> FILE_LTS.B.SPANNED THEN
     6269    39801    3            DO;
     6270    39802    3              IF O1COM.CURRENT_FILE_LTS$ -> FILE_LTS.B.VLR
     6271    39803    3                THEN I = %RSV_WRD_VLR;
     6272    39804    3                ELSE I = %RSV_WRD_SPANNED;
     6273    39805    3              CALL Z8AE$ERROR (%E$INCOMPATIBLE_ATTRIB,
     6274    39806    3                               O1COM.LX_STK.LINE(O1COM.LX_TOP),
     6275    39807    3                               O1COM.LX_STK.COLUMN(O1COM.LX_TOP),
     6276    39808    3                               DNT$_FROM_RSWNO(%RSV_WRD_FLR),
PL6.E3A0      #001=Z8EM$SEMANTICS_DATA_DIV File=Z8EM.:Z8A6TSI                    SAT 08/09/97 12:08 Page:222
     6277    39809    3                               DNT$_FROM_RSWNO(I));
     6278    39810    3            END;
     6279    39811    2          ELSE
     6280    39812    2            O1COM.CURRENT_FILE_LTS$ -> FILE_LTS.B.FLR = TRUE;
     6281    39813
     6282    39814    2     CASE(%ACT_WITH_VLR);
     6283    39815    2          CALL ANSI_ATTRIBUTE_CHECK(ADDR(O1COM.LX_STK(O1COM.LX_TOP)));
     6284    39816    2          IF O1COM.CURRENT_FILE_LTS$ -> FILE_LTS.B.VLR THEN
     6285    39817    3            DO;
     6286    39818    3              P$ = ADDR(O1COM.LX_STK(O1COM.LX_TOP));
     6287    39819                   %CONDITIONAL_ERROR (@LX_ITEM$ = P$,
     6288    39820                                       @ERROR#   = %E$DUP_DD_CLAUSE,
     6289    39821                                       @LINE     = P$ -> LX_ITEM.LINE,
     6290    39822                                       @COLUMN   = P$ -> LX_ITEM.COLUMN,
     6291    39823                                       @PLUG1    = P$ -> LX_ITEM.DNT$);
     6292    39853    3            END;
     6293    39854    2          ELSE IF O1COM.CURRENT_FILE_LTS$ -> FILE_LTS.B.FLR
     6294    39855    2               OR O1COM.CURRENT_FILE_LTS$ -> FILE_LTS.B.SPANNED THEN
     6295    39856    3            DO;
     6296    39857    3              IF O1COM.CURRENT_FILE_LTS$ -> FILE_LTS.B.FLR
     6297    39858    3                THEN I = %RSV_WRD_FLR;
     6298    39859    3                ELSE I = %RSV_WRD_SPANNED;
     6299    39860    3              CALL Z8AE$ERROR (%E$INCOMPATIBLE_ATTRIB,
     6300    39861    3                               O1COM.LX_STK.LINE(O1COM.LX_TOP),
     6301    39862    3                               O1COM.LX_STK.COLUMN(O1COM.LX_TOP),
     6302    39863    3                               DNT$_FROM_RSWNO(%RSV_WRD_VLR),
     6303    39864    3                               DNT$_FROM_RSWNO(I));
     6304    39865    3            END;
     6305    39866    2          ELSE
     6306    39867    2            O1COM.CURRENT_FILE_LTS$ -> FILE_LTS.B.VLR = TRUE;
     6307    39868
     6308    39869    2     CASE(%ACT_WITH_SSF);
     6309    39870    2          CALL ANSI_ATTRIBUTE_CHECK(ADDR(O1COM.LX_STK(O1COM.LX_TOP)));
     6310    39871    2          CALL Z9EM$WITH_SSF    (ADDR(O1COM.LX_STK(O1COM.LX_TOP)));
     6311    39872
     6312    39873    2     CASE(%ACT_WITH_UNBANNERED);
     6313    39874    2          CALL ANSI_ATTRIBUTE_CHECK(ADDR(O1COM.LX_STK(O1COM.LX_TOP)));
PL6.E3A0      #001=Z8EM$SEMANTICS_DATA_DIV File=Z8EM.:Z8A6TSI                    SAT 08/09/97 12:08 Page:223
     6314    39875    2          CALL Z9EM$WITH_UNBANNERED (ADDR(O1COM.LX_STK(O1COM.LX_TOP)));
     6315    39876
     6316    39877    2     CASE(%ACT_WITH_SPANNED);
     6317    39878    2          CALL ANSI_ATTRIBUTE_CHECK(ADDR(O1COM.LX_STK(O1COM.LX_TOP)));
     6318    39879    2          IF O1COM.CURRENT_FILE_LTS$ -> FILE_LTS.B.SPANNED THEN
     6319    39880    3            DO;
     6320    39881    3              P$ = ADDR(O1COM.LX_STK(O1COM.LX_TOP));
     6321    39882                   %CONDITIONAL_ERROR (@LX_ITEM$ = P$,
     6322    39883                                       @ERROR#   = %E$DUP_DD_CLAUSE,
     6323    39884                                       @LINE     = P$ -> LX_ITEM.LINE,
     6324    39885                                       @COLUMN   = P$ -> LX_ITEM.COLUMN,
     6325    39886                                       @PLUG1    = P$ -> LX_ITEM.DNT$);
     6326    39916    3            END;
     6327    39917    2          ELSE IF O1COM.CURRENT_FILE_LTS$ -> FILE_LTS.B.FLR
     6328    39918    2               OR O1COM.CURRENT_FILE_LTS$ -> FILE_LTS.B.VLR THEN
     6329    39919    3            DO;
     6330    39920    3              IF O1COM.CURRENT_FILE_LTS$ -> FILE_LTS.B.FLR
     6331    39921    3                THEN I = %RSV_WRD_FLR;
     6332    39922    3                ELSE I = %RSV_WRD_VLR;
     6333    39923    3              CALL Z8AE$ERROR (%E$INCOMPATIBLE_ATTRIB,
     6334    39924    3                               O1COM.LX_STK.LINE(O1COM.LX_TOP),
     6335    39925    3                               O1COM.LX_STK.COLUMN(O1COM.LX_TOP),
     6336    39926    3                               DNT$_FROM_RSWNO(%RSV_WRD_SPANNED),
     6337    39927    3                               DNT$_FROM_RSWNO(I));
     6338    39928    3            END;
     6339    39929    2          ELSE
     6340    39930    2            O1COM.CURRENT_FILE_LTS$ -> FILE_LTS.B.SPANNED = TRUE;
     6341    39931
     6342    39932    2     CASE(%ACT_WITH_DUPLICATES);
     6343    39933    2          CALL WITH_DUPLICATES (ADDR(O1COM.LX_STK(O1COM.LX_TOP)));
     6344    39934
     6345    39935    2     CASE(%ACT_REPORT_CODE_CLAUSE);
     6346    39936    2          CALL ANSI_ATTRIBUTE_CHECK(ADDR(O1COM.LX_STK(O1COM.LX_TOP-3)));
     6347    39937    2          CALL Z9EM$REPORT_CODE (ADDR(O1COM.LX_STK(O1COM.LX_TOP)));
     6348    39938
     6349    39939    2     CASE(%ACT_RECORD_DELIM_STD);
     6350    39940    3          IF COMCOM.OB.FIPS.LEVEL >= %INT_LEV THEN DO;
PL6.E3A0      #001=Z8EM$SEMANTICS_DATA_DIV File=Z8EM.:Z8A6TSI                    SAT 08/09/97 12:08 Page:224
     6351    39941    3            CALL Z8AE$ERROR (%E$LEVEL_CHECK,
     6352    39942    3                             O1COM.LX_STK.LINE(O1COM.LX_TOP - 3),
     6353    39943    3                             O1COM.LX_STK.COLUMN(O1COM.LX_TOP - 3));
     6354    39944    3          END;
     6355    39945    2          CALL RECORD_DELIM (ADDR(O1COM.LX_STK(O1COM.LX_TOP)));
     6356    39946
     6357    39947    2     CASE(%ACT_PADDING_CHAR);
     6358    39948    3          IF COMCOM.OB.FIPS.LEVEL >= %INT_LEV THEN DO;
     6359    39949    3            CALL Z8AE$ERROR (%E$LEVEL_CHECK,
     6360    39950    3                             O1COM.LX_STK.LINE(O1COM.LX_TOP - 3),
     6361    39951    3                             O1COM.LX_STK.COLUMN(O1COM.LX_TOP - 3));
     6362    39952    3          END;
     6363    39953    2          CALL PAD_CHAR_LINAGE (ADDR(O1COM.LX_STK(O1COM.LX_TOP)),
     6364    39954    2                                O1COM.CURRENT_FILE_LTS$ -> FILE_LTS.PAD_CHAR$,
     6365    39955    2                                %RSV_WRD_PADDING);
     6366    39956
     6367    39957    2     CASE(%ACT_RELATIVE_KEY);
     6368    39958    2          CALL CHECK_SEQ_ORG (ADDR(O1COM.LX_STK(O1COM.LX_TOP)) -> LX_LIST.HEAD$)
     6369    39959    2            WHENALTRETURN
     6370    39960    3              DO;
     6371    39961    3                CALL Z8ED$DISPOSE_ABSSYN_TREE (ADDR(O1COM.LX_STK(O1COM.LX_TOP)) ->
     6372    39962    3                                               LX_LIST.HEAD$);
     6373    39963    3                EXIT SEMANTIC_ACTION_CASE;
     6374    39964    3              END;
     6375    39965
     6376    39966    2          CALL CHECK_IND_ORG (ADDR(O1COM.LX_STK(O1COM.LX_TOP)) -> LX_LIST.HEAD$)
     6377    39967    2            WHENALTRETURN
     6378    39968    3              DO;
     6379    39969    3                CALL Z8ED$DISPOSE_ABSSYN_TREE (ADDR(O1COM.LX_STK(O1COM.LX_TOP)) ->
     6380    39970    3                                               LX_LIST.HEAD$);
     6381    39971    3                EXIT SEMANTIC_ACTION_CASE;
     6382    39972    3              END;
     6383    39973
     6384    39974    2          CALL CHECK_KEY_ORG (ADDR(O1COM.LX_STK(O1COM.LX_TOP)) -> LX_LIST.HEAD$)
     6385    39975    2            WHENALTRETURN
     6386    39976    3              DO;
     6387    39977    3                CALL Z8ED$DISPOSE_ABSSYN_TREE (ADDR(O1COM.LX_STK(O1COM.LX_TOP)) ->
PL6.E3A0      #001=Z8EM$SEMANTICS_DATA_DIV File=Z8EM.:Z8A6TSI                    SAT 08/09/97 12:08 Page:225
     6388    39978    3                                               LX_LIST.HEAD$);
     6389    39979    3                EXIT SEMANTIC_ACTION_CASE;
     6390    39980    3              END;
     6391    39981
     6392    39982    2          CALL CHECK_AND_SAVE_ITEM (ADDR(O1COM.LX_STK(O1COM.LX_TOP)),
     6393    39983    2                                    O1COM.CURRENT_FILE_LTS$ -> FILE_LTS.RELATIVE_KEY$,
     6394    39984    2                                    %RSV_WRD_KEY);
     6395    39985
     6396    39986    2     CASE(%ACT_ACCESS_RANDOM);
     6397    39987    2          CALL ACCESS_MODE (ADDR(O1COM.LX_STK(O1COM.LX_TOP)), %RANDOM_ACCESS);
     6398    39988
     6399    39989    2     CASE(%ACT_ACCESS_DYNAMIC);
     6400    39990    2          CALL ACCESS_MODE (ADDR(O1COM.LX_STK(O1COM.LX_TOP)), %DYNAMIC_ACCESS);
     6401    39991
     6402    39992    2     CASE(%ACT_ACCESS_SEQUENTIAL);
     6403    39993    2          CALL ACCESS_MODE (ADDR(O1COM.LX_STK(O1COM.LX_TOP)), %SEQUENTIAL_ACCESS);
     6404    39994
     6405    39995    2     CASE(%ACT_FILE_STATUS);
     6406    39996    2          CALL CHECK_AND_SAVE_ITEM (ADDR(O1COM.LX_STK(O1COM.LX_TOP)),
     6407    39997    2                                    O1COM.CURRENT_FILE_LTS$ -> FILE_LTS.FILE_STATUS$,
     6408    39998    2                                    %RSV_WRD_STATUS);
     6409    39999
     6410    40000    2     CASE(%ACT_RECORD_KEY);
     6411    40001    3          IF COMCOM.OB.FIPS.LEVEL = %LOW_LEV THEN DO;
     6412    40002    3            IF O1COM.LX_STK.SYMBOL(O1COM.LX_TOP - 2) = %RSV_WRD_RECORD
     6413    40003    3              THEN I = O1COM.LX_TOP - 2; /* RECORD [IS] <id> */
     6414    40004    3              ELSE I = O1COM.LX_TOP - 3; /* RECORD KEY [IS] <id> */
     6415    40005    3            CALL Z8AE$ERROR (%E$LEVEL_CHECK,
     6416    40006    3                             O1COM.LX_STK.LINE(I),
     6417    40007    3                             O1COM.LX_STK.COLUMN(I));
     6418    40008    3          END;
     6419    40009    2          CALL CHECK_SEQ_ORG (ADDR(O1COM.LX_STK(O1COM.LX_TOP)) -> LX_LIST.HEAD$)
     6420    40010    2            WHENALTRETURN
     6421    40011    3              DO;
     6422    40012    3                CALL Z8ED$DISPOSE_ABSSYN_TREE (ADDR(O1COM.LX_STK(O1COM.LX_TOP)) ->
     6423    40013    3                                               LX_LIST.HEAD$);
     6424    40014    3                EXIT SEMANTIC_ACTION_CASE;
PL6.E3A0      #001=Z8EM$SEMANTICS_DATA_DIV File=Z8EM.:Z8A6TSI                    SAT 08/09/97 12:08 Page:226
     6425    40015    3              END;
     6426    40016
     6427    40017    2          CALL CHECK_REL_ORG (ADDR(O1COM.LX_STK(O1COM.LX_TOP)) -> LX_LIST.HEAD$)
     6428    40018    2            WHENALTRETURN
     6429    40019    3              DO;
     6430    40020    3                CALL Z8ED$DISPOSE_ABSSYN_TREE (ADDR(O1COM.LX_STK(O1COM.LX_TOP)) ->
     6431    40021    3                                               LX_LIST.HEAD$);
     6432    40022    3                EXIT SEMANTIC_ACTION_CASE;
     6433    40023    3              END;
     6434    40024
     6435    40025    2          CALL CHECK_AND_SAVE_ITEM (ADDR(O1COM.LX_STK(O1COM.LX_TOP)),
     6436    40026    2                                    O1COM.CURRENT_FILE_LTS$ -> FILE_LTS.RECORD_KEY$,
     6437    40027    2                                    %RSV_WRD_KEY);
     6438    40028
     6439    40029    2     CASE(%ACT_ALTERNATE_RECORD);
     6440    40030
     6441    40031    2          IF COMCOM.OB.FIPS.LEVEL >= %INT_LEV THEN
     6442    40032    2            CALL Z8AE$ERROR (%E$LEVEL_CHECK,
     6443    40033    2                             O1COM.LX_STK.LINE(O1COM.LX_TOP - 4),
     6444    40034    2                             O1COM.LX_STK.COLUMN(O1COM.LX_TOP - 4));
     6445    40035    2          CALL ALT_KEY (ADDR(O1COM.LX_STK(O1COM.LX_TOP)));
     6446    40036
     6447    40037        %EJECT;
PL6.E3A0      #001=Z8EM$SEMANTICS_DATA_DIV File=Z8EM.:Z8A6TSI                    SAT 08/09/97 12:08 Page:227
     6448    40038        /*
     6449    40039                           File Section
     6450    40040        */
     6451    40041
     6452    40042    2     CASE(%ACT_FD_SD_START);
     6453    40043    2          CALL FD_SD_START (ADDR(O1COM.LX_STK(O1COM.LX_TOP - 1)), ADDR(O1COM.LX_STK(
             40043                   O1COM.LX_TOP)));
     6454    40044
     6455    40045    2     CASE(%ACT_FD_SD_END);
     6456    40046
     6457    40047    2          IF O1COM.CURRENT_FILE_LTS$ -> FILE_LTS.REPORT$ ~= ADDR(NIL) THEN
     6458    40048    3            DO;
     6459    40049    3              IF O1COM.CURRENT_FILE_LTS$ -> FILE_LTS.REPORT$ -> LTS.ID = %LX_LIST  THEN
             40049                       /*#29580*/
     6460    40050    4                DO;
     6461    40051    4                  P$ = O1COM.CURRENT_FILE_LTS$ -> FILE_LTS.REPORT$ -> LX_LIST.HEAD$;
     6462    40052
     6463    40053                       %CONDITIONAL_ERROR (@LX_ITEM$ = P$,
     6464    40054                                           @ERROR#   = %E$REPORT_FILE_W_01_ENTRY,
     6465    40055                                           @LINE     = P$ -> LX_ITEM.LINE,
     6466    40056                                           @COLUMN   = P$ -> LX_ITEM.COLUMN);
     6467    40086    4                  CALL Z8ED$DISPOSE_ABSSYN_TREE(O1COM.CURRENT_FILE_LTS$ -> FILE_LTS.
             40086                           REPORT$);
     6468    40087    4                 END;
     6469    40088    3              O1COM.CURRENT_FILE_LTS$ -> FILE_LTS.REPORT$ = ADDR(NIL);
     6470    40089    3            END;
     6471    40090
     6472    40091    2          CALL Z8DR$RECORD_DECL (ADDR(O1COM.LX_STK(O1COM.LX_TOP)) -> LX_LARGE.
             40091                   LARGE_ITEM$,
     6473    40092    2                                 ADDR(NIL));
     6474    40093
     6475    40094    2          CALL Z8ED$DISPOSE_ABSSYN_TREE (ADDR(O1COM.LX_STK(O1COM.LX_TOP)) -> LX_LARGE.
             40094                   LARGE_ITEM$);
     6476    40095
     6477    40096    2          CALL NEW_LINAGE_COUNTER (O1COM.CURRENT_FILE_LTS$);
     6478    40097
     6479    40098    2          IF O1COM.CURRENT_FILE_LTS$ -> FILE_LTS.LABEL_RECORDS$ ~= ADDR(NIL) THEN
PL6.E3A0      #001=Z8EM$SEMANTICS_DATA_DIV File=Z8EM.:Z8A6TSI                    SAT 08/09/97 12:08 Page:228
     6480    40099    2            CALL PROCESS_USER_LABELS;
     6481    40100
     6482    40101    2          O1COM.CURRENT_FILE_LTS$ = ADDR(NIL);
     6483    40102    2          O1COM.DATA_DECL_CONTEXT = %NO_CONTEXT;
     6484    40103
     6485    40104
     6486    40105    2      CASE (%ACT_FD_NDD_END);
     6487    40106
     6488    40107    2          IF O1COM.CURRENT_FILE_LTS$ -> FILE_LTS.REPORT$ = ADDR(NIL) THEN
     6489    40108    3            DO;
     6490    40109                   %CONDITIONAL_ERROR (@LX_ITEM$ = "ADDR(O1COM.LX_STK(O1COM.LX_TOP))",
     6491    40110                                       @ERROR#   = %E$RECORD_MISS_FROM_FD,
     6492    40111                                       @LINE     = COMCOM.CURRENT.LINE,
     6493    40112                                       @COLUMN   = COMCOM.CURRENT.COLUMN);
     6494    40142                   %NEW_REPORT_LTS (@POINTER = O1COM.CURRENT_FILE_LTS$ -> FILE_LTS.REPORT$);
     6495    40269    3            END;
     6496    40270    2            ELSE
     6497    40271    2              CALL PROCESS_REPORT_ITEMS;
     6498    40272
     6499    40273
     6500    40274    2          IF O1COM.CURRENT_FILE_LTS$ -> FILE_LTS.LABEL_RECORDS$ ~= ADDR(NIL) THEN
     6501    40275    2            CALL PROCESS_USER_LABELS;
     6502    40276
     6503    40277    2          O1COM.CURRENT_FILE_LTS$ = ADDR(NIL);
     6504    40278    2          O1COM.DATA_DECL_CONTEXT = %NO_CONTEXT;
     6505    40279
     6506    40280    2     CASE(%ACT_RECORD_CONTAINS);
     6507    40281    2          CALL RECORD_CONTAINS (ADDR(O1COM.LX_STK( O1COM.LX_TOP - 4 )),
     6508    40282    2                                ADDR(O1COM.LX_STK( O1COM.LX_TOP - 2 )),
     6509    40283    2                                ADDR(O1COM.LX_STK(O1COM.LX_TOP)));
     6510    40284
     6511    40285    2     CASE(%ACT_RECORD_VARYING);
     6512    40286    2          CALL RECORD_VARYING (ADDR(O1COM.LX_STK( O1COM.LX_TOP - 6 )),
     6513    40287    2                               ADDR(O1COM.LX_STK( O1COM.LX_TOP - 1 )),
     6514    40288    2                               ADDR(O1COM.LX_STK(O1COM.LX_TOP)));
     6515    40289
     6516    40290    2     CASE(%ACT_RECORD_VARYING_FROM_INT);
PL6.E3A0      #001=Z8EM$SEMANTICS_DATA_DIV File=Z8EM.:Z8A6TSI                    SAT 08/09/97 12:08 Page:229
     6517    40291
     6518    40292               %PROPAGATE (@FROM = "O1COM.LX_TOP - 1");
     6519    40297
     6520    40298    2     CASE(%ACT_RECORD_VARYING_TO_INT);
     6521    40299
     6522    40300               %PROPAGATE (@FROM = "O1COM.LX_TOP - 1");
     6523    40305
     6524    40306    2     CASE(%ACT_LABEL_CLAUSE);
     6525    40307    2          IF COMCOM.OB.FIPS.OBS THEN
     6526    40308    2            CALL Z8AE$ERROR (%E$OBSOLETE,
     6527    40309    2                             O1COM.LX_STK.LINE(O1COM.LX_TOP - 2),
     6528    40310    2                             O1COM.LX_STK.COLUMN(O1COM.LX_TOP - 2));
     6529    40311    2          CALL Z9EM$LABEL_RECORDS (ADDR(O1COM.LX_STK(O1COM.LX_TOP-2)), ADDR(O1COM.
             40311                   LX_STK(O1COM.LX_TOP)));
     6530    40312
     6531    40313    2     CASE(%ACT_CODE_SET);
     6532    40314    2          CALL CODE_SET (ADDR(O1COM.LX_STK(O1COM.LX_TOP)));
     6533    40315
     6534    40316    2          CALL Z9EM$CODE_SET (ADDR(O1COM.LX_STK(O1COM.LX_TOP)));
     6535    40317
     6536    40318    2     CASE(%ACT_FD_EXTERNAL);
     6537    40319    2          O1COM.CURRENT_FILE_LTS$ -> FILE_LTS.ST$ -> FD.B.EXTERNAL = TRUE;
     6538    40320    2          O1COM.CURRENT_FILE_LTS$ -> FILE_LTS.B.EXTERNAL = TRUE;
     6539    40321
     6540    40322    2          CALL EXTERNAL_BLOCK_CHECK (O1COM.CURRENT_FILE_LTS$);
     6541    40323
     6542    40324    2     CASE(%ACT_FD_GLOBAL);
     6543    40325    2          O1COM.CURRENT_FILE_LTS$ -> FILE_LTS.ST$ -> FD.B.GLOBAL = TRUE;
     6544    40326    2          O1COM.CURRENT_FILE_LTS$ -> FILE_LTS.B.GLOBAL = TRUE;
     6545    40327
     6546    40328    2     CASE(%ACT_BLOCK_CLAUSE);
     6547    40329    2          CALL BLOCK_CONTAINS (ADDR(O1COM.LX_STK(O1COM.LX_TOP-1)), ADDR(O1COM.LX_STK(
             40329                   O1COM.LX_TOP)));
     6548    40330
     6549    40331    2     CASE(%ACT_VALUE_OF_FILE_ID);
     6550    40332    2          IF COMCOM.OB.FIPS.OBS THEN
     6551    40333    2            CALL Z8AE$ERROR (%E$OBSOLETE,
PL6.E3A0      #001=Z8EM$SEMANTICS_DATA_DIV File=Z8EM.:Z8A6TSI                    SAT 08/09/97 12:08 Page:230
     6552    40334    2                             O1COM.LX_STK.LINE(O1COM.LX_TOP - 4),
     6553    40335    2                             O1COM.LX_STK.COLUMN(O1COM.LX_TOP - 4));
     6554    40336    2          IF COMCOM.OB.FIPS.LEVEL >= %INT_LEV THEN
     6555    40337    2            CALL Z8AE$ERROR (%E$LEVEL_CHECK,
     6556    40338    2                             O1COM.LX_STK.LINE(O1COM.LX_TOP - 4),
     6557    40339    2                             O1COM.LX_STK.COLUMN(O1COM.LX_TOP - 4));
     6558    40340    2          CALL CHECK_AND_SAVE_ITEM (ADDR(O1COM.LX_STK(O1COM.LX_TOP)),
     6559    40341    2                                    O1COM.CURRENT_FILE_LTS$ -> FILE_LTS.FILE_ID$,
     6560    40342    2                                    %RSV_WRD_FILE_ID);
     6561    40343
     6562    40344    2     CASE(%ACT_VALUE_OF_RETENTION);
     6563    40345    2          IF COMCOM.OB.FIPS.OBS THEN
     6564    40346    2            CALL Z8AE$ERROR (%E$OBSOLETE,
     6565    40347    2                             O1COM.LX_STK.LINE(O1COM.LX_TOP - 4),
     6566    40348    2                             O1COM.LX_STK.COLUMN(O1COM.LX_TOP - 4));
     6567    40349    2          IF COMCOM.OB.FIPS.LEVEL >= %INT_LEV THEN
     6568    40350    2            CALL Z8AE$ERROR (%E$LEVEL_CHECK,
     6569    40351    2                             O1COM.LX_STK.LINE(O1COM.LX_TOP - 4),
     6570    40352    2                             O1COM.LX_STK.COLUMN(O1COM.LX_TOP - 4));
     6571    40353    2          CALL CHECK_AND_SAVE_ITEM (ADDR(O1COM.LX_STK(O1COM.LX_TOP)),
     6572    40354    2                                    O1COM.CURRENT_FILE_LTS$ -> FILE_LTS.RETENTION$,
     6573    40355    2                                    %RSV_WRD_RETENTION);
     6574    40356
     6575    40357    2     CASE(%ACT_VALUE_OF_CATALOG_NAME);
     6576    40358    2          IF COMCOM.OB.FIPS.OBS THEN
     6577    40359    2            CALL Z8AE$ERROR (%E$OBSOLETE,
     6578    40360    2                             O1COM.LX_STK.LINE(O1COM.LX_TOP - 4),
     6579    40361    2                             O1COM.LX_STK.COLUMN(O1COM.LX_TOP - 4));
     6580    40362    2          IF COMCOM.OB.FIPS.LEVEL >= %INT_LEV THEN
     6581    40363    2            CALL Z8AE$ERROR (%E$LEVEL_CHECK,
     6582    40364    2                             O1COM.LX_STK.LINE(O1COM.LX_TOP - 4),
     6583    40365    2                             O1COM.LX_STK.COLUMN(O1COM.LX_TOP - 4));
     6584    40366    2          CALL CHECK_AND_SAVE_ITEM (ADDR(O1COM.LX_STK(O1COM.LX_TOP)),
     6585    40367    2                                    O1COM.CURRENT_FILE_LTS$ -> FILE_LTS.CATALOG$,
     6586    40368    2                                    %RSV_WRD_CATALOG_NAME);
     6587    40369
     6588    40370    2     CASE(%ACT_DISPOSE_LIST);
PL6.E3A0      #001=Z8EM$SEMANTICS_DATA_DIV File=Z8EM.:Z8A6TSI                    SAT 08/09/97 12:08 Page:231
     6589    40371    2          IF COMCOM.OB.FIPS.OBS AND O1COM.LX_STK.SYMBOL (O1COM.LX_TOP - 2) = %
             40371                   RSV_WRD_DATA THEN
     6590    40372    2            CALL Z8AE$ERROR (%E$OBSOLETE,
     6591    40373    2                             O1COM.LX_STK.LINE(O1COM.LX_TOP - 2),
     6592    40374    2                             O1COM.LX_STK.COLUMN(O1COM.LX_TOP - 2));
     6593    40375    2          CALL Z8ED$DISPOSE_ABSSYN_TREE (ADDR(O1COM.LX_STK(O1COM.LX_TOP)) -> LX_LIST.
             40375                   HEAD$);
     6594    40376
     6595    40377    2     CASE(%ACT_LINAGE_LINES);
     6596    40378    3          IF COMCOM.OB.FIPS.LEVEL >= %INT_LEV THEN DO;
     6597    40379    3            CALL Z8AE$ERROR (%E$LEVEL_CHECK,
     6598    40380    3                             O1COM.LX_STK.LINE(O1COM.LX_TOP - 2),
     6599    40381    3                             O1COM.LX_STK.COLUMN(O1COM.LX_TOP - 2));
     6600    40382    3          END;
     6601    40383    2          CALL PAD_CHAR_LINAGE (ADDR(O1COM.LX_STK(O1COM.LX_TOP)),
     6602    40384    2                                    O1COM.CURRENT_FILE_LTS$ -> FILE_LTS.LINAGE.
             40384                                             NO_OF_LINES$,
     6603    40385    2                                    %RSV_WRD_LINAGE);
     6604    40386
     6605    40387    2     CASE(%ACT_LINAGE_FOOTING);
     6606    40388    2          CALL PAD_CHAR_LINAGE (ADDR(O1COM.LX_STK(O1COM.LX_TOP)),
     6607    40389    2                                    O1COM.CURRENT_FILE_LTS$ -> FILE_LTS.LINAGE.FOOTING$
             40389                                             ,
     6608    40390    2                                    %RSV_WRD_FOOTING);
     6609    40391
     6610    40392    2     CASE(%ACT_LINAGE_TOP);
     6611    40393    2          CALL PAD_CHAR_LINAGE (ADDR(O1COM.LX_STK(O1COM.LX_TOP)),
     6612    40394    2                                    O1COM.CURRENT_FILE_LTS$ -> FILE_LTS.LINAGE.TOP$,
     6613    40395    2                                    %RSV_WRD_TOP);
     6614    40396
     6615    40397    2     CASE(%ACT_LINAGE_BOTTOM);
     6616    40398    2          CALL PAD_CHAR_LINAGE (ADDR(O1COM.LX_STK(O1COM.LX_TOP)),
     6617    40399    2                                    O1COM.CURRENT_FILE_LTS$ -> FILE_LTS.LINAGE.BOTTOM$,
     6618    40400    2                                    %RSV_WRD_BOTTOM);
     6619    40401
     6620    40402    2     CASE(%ACT_REPORT_CLAUSE);
     6621    40403
PL6.E3A0      #001=Z8EM$SEMANTICS_DATA_DIV File=Z8EM.:Z8A6TSI                    SAT 08/09/97 12:08 Page:232
     6622    40404    2          CALL CHECK_IND_ORG(ADDR(O1COM.LX_STK(O1COM.LX_TOP)) -> LX_LIST.HEAD$);
     6623    40405    2          CALL CHECK_KEY_ORG(ADDR(O1COM.LX_STK(O1COM.LX_TOP)) -> LX_LIST.HEAD$);
     6624    40406    2          CALL CHECK_REL_ORG(ADDR(O1COM.LX_STK(O1COM.LX_TOP)) -> LX_LIST.HEAD$);
     6625    40407
     6626    40408    2          IF COMCOM.OB.FIPS.RPW THEN
     6627    40409    2            CALL Z8AE$ERROR (%E$LEVEL_CHECK,
     6628    40410    2                             O1COM.LX_STK.LINE(O1COM.LX_TOP - 2),
     6629    40411    2                             O1COM.LX_STK.COLUMN(O1COM.LX_TOP - 2));
     6630    40412    2          CALL CHECK_AND_SAVE_ITEM (ADDR(O1COM.LX_STK(O1COM.LX_TOP)),
     6631    40413    2                                    O1COM.CURRENT_FILE_LTS$ -> FILE_LTS.REPORT$,
     6632    40414    2                                    %RSV_WRD_REPORT);
     6633    40415
     6634    40416    2          IF O1COM.CURRENT_FILE_LTS$ -> FILE_LTS.ACCESS_MODE ~= %NOT_SPECIFIED AND
     6635    40417    2             O1COM.CURRENT_FILE_LTS$ -> FILE_LTS.ACCESS_MODE ~= %SEQUENTIAL_ACCESS THEN
     6636    40418    3            DO;
     6637    40419    3              CALL Z8AE$ERROR (%E$ERR_ACCESS_W_REPORT,
     6638    40420    3                          ADDR(O1COM.LX_STK(O1COM.LX_TOP)) -> LX_LIST.HEAD$ -> LX_ITEM.
             40420                                   LINE,
     6639    40421    3                          ADDR(O1COM.LX_STK(O1COM.LX_TOP)) -> LX_LIST.HEAD$ -> LX_ITEM.
             40421                                   COLUMN);
     6640    40422
     6641    40423    3              O1COM.CURRENT_FILE_LTS$ -> FILE_LTS.ACCESS_MODE = %SEQUENTIAL_ACCESS;
     6642    40424    3            END;
     6643    40425
     6644    40426    2          P$ = O1COM.CURRENT_FILE_LTS$ -> FILE_LTS.ASSIGN$ -> LTS_PTR_ARRAY.P$(0);
     6645    40427
     6646    40428    3          DO SELECT (P$ -> DNT.TEXT.NAME);
     6647    40429    3            SELECT (%PRINTER);
     6648    40430                   /* OK */
     6649    40431
     6650    40432    3            SELECT (%DISK, %DISC);
     6651    40433
     6652    40434                   %CONDITIONAL_ERROR (@LX_ITEM$ = "ADDR(O1COM.LX_STK(O1COM.LX_TOP -2))",
     6653    40435                         @ERROR# = %E$REPORT_DISK_ERROR,
     6654    40436                         @LINE   = "ADDR(O1COM.LX_STK(O1COM.LX_TOP-2))->LX_ITEM.LINE",
     6655    40437                         @COLUMN = "ADDR(O1COM.LX_STK(O1COM.LX_TOP-2))->LX_ITEM.COLUMN");
     6656    40467
PL6.E3A0      #001=Z8EM$SEMANTICS_DATA_DIV File=Z8EM.:Z8A6TSI                    SAT 08/09/97 12:08 Page:233
     6657    40468    3            SELECT (%CARD_READER,%CARD_PUNCH,%PRINTER_F,%SYSIN,%MAGNETIC_TAPE);
     6658    40469
     6659    40470                   %CONDITIONAL_ERROR (@LX_ITEM$ = "ADDR(O1COM.LX_STK(O1COM.LX_TOP-2))",
     6660    40471                         @ERROR# = %E$REPORT_DEVICE_ERROR,
     6661    40472                         @LINE   = "ADDR(O1COM.LX_STK(O1COM.LX_TOP-2))->LX_ITEM.LINE",
     6662    40473                         @COLUMN = "ADDR(O1COM.LX_STK(O1COM.LX_TOP-2))->LX_ITEM.COLUMN",
     6663    40474                         @PLUG1  = P$);
     6664    40504
     6665    40505    3              LEX_SYMBOL.SIZE = 7;
     6666    40506    3              SUBSTR(LEX_SYMBOL.SYMBOL, 0, 7) = %PRINTER;
     6667    40507    3              CALL Z8AH$SEARCH_ ;
     6668    40508    3              O1COM.CURRENT_FILE_LTS$ -> FILE_LTS.ASSIGN$ ->
     6669    40509    3                LTS_PTR_ARRAY.P$(0) = DNT$ ;
     6670    40510
     6671    40511    3          END;  /* END SELECT */
     6672    40512
     6673    40513
     6674    40514        %EJECT;
PL6.E3A0      #001=Z8EM$SEMANTICS_DATA_DIV File=Z8EM.:Z8A6TSI                    SAT 08/09/97 12:08 Page:234
     6675    40515        /*
     6676    40516                               Communication Section
     6677    40517        */
     6678    40518
     6679    40519    2     CASE(%ACT_COMMUNICATION_DESCRIPTION);
     6680    40520    2          O1COM.DATA_DECL_CONTEXT = %COMMUNICATION_DESC;
     6681    40521
     6682    40522    2          IF O1COM.SECTION_FOUND.COMMUNICATION THEN
     6683    40523    3            DO;
     6684    40524    3              P$ = ADDR(O1COM.LX_STK(O1COM.LX_TOP));
     6685    40525
     6686    40526                   %CONDITIONAL_ERROR (@LX_ITEM$ = P$,
     6687    40527                                       @ERROR#   = %E$MULTIPLE_SECTIONS,
     6688    40528                                       @LINE     = P$ -> LX_ITEM.LINE,
     6689    40529                                       @COLUMN   = P$ -> LX_ITEM.COLUMN);
     6690    40559    3            END;
     6691    40560
     6692    40561    2          IF /*N* Free Format -- NOT COMCOM.OB.FORMAT AND */
     6693    40562    2                 O1COM.LX_STK.COLUMN (O1COM.LX_TOP - 2) >= O1COM.AREA_B_COLUMN_START
             40562                          THEN
     6694    40563
     6695    40564    2            CALL  Z8AE$ERROR (%E$MUST_BE_IN_AREA_A,
     6696    40565    2                              O1COM.LX_STK.LINE (O1COM.LX_TOP - 2),
     6697    40566    2                              O1COM.LX_STK.COLUMN (O1COM.LX_TOP - 2),
     6698    40567    2                              O1COM.LX_STK.DNT$ (O1COM.LX_TOP - 2));
     6699    40568
     6700    40569    2          O1COM.SECTION_FOUND.COMMUNICATION = TRUE;
     6701    40570
     6702    40571
     6703    40572    2     CASE (%ACT_COMMUNICATION_PROGRAM);
     6704    40573
     6705    40574    2          O1COM.TPE_INTERFACE = TRUE;
     6706    40575
     6707    40576    2     CASE (%ACT_CD_ENTRY_NO_DD);
     6708    40577
     6709    40578               %NEW_COPY_LX_STK (@FROM = "O1COM.LX_TOP - 3",
     6710    40579                                 @POINTER = O1COM.CURRENT_CD_ENTRY$ -> LX_CD_INPUT.CD_NAME$)
PL6.E3A0      #001=Z8EM$SEMANTICS_DATA_DIV File=Z8EM.:Z8A6TSI                    SAT 08/09/97 12:08 Page:235
             40579                                     ;
     6711    40590
     6712    40591    2          CALL PROCESS_CD_NO_DD;
     6713    40592
     6714    40593    2     CASE (%ACT_CD_ENTRY);
     6715    40594
     6716    40595               %NEW_COPY_LX_STK (@FROM = "O1COM.LX_TOP - 3",
     6717    40596                                 @POINTER = O1COM.CURRENT_CD_ENTRY$ -> LX_CD_INPUT.CD_NAME$)
             40596                                     ;
     6718    40607
     6719    40608    2          CALL PROCESS_CD_W_DD;
     6720    40609
     6721    40610    2     CASE (%ACT_CD_RECORD_ENTRIES);
     6722    40611
     6723    40612    2          CALL Z8DR$RECORD_DECL (ADDR(O1COM.LX_STK(O1COM.LX_TOP)) -> LX_LARGE.
             40612                   LARGE_ITEM$,
     6724    40613    2                                 ADDR(NIL));
     6725    40614    2          CALL Z8ED$DISPOSE_ABSSYN_TREE (ADDR(O1COM.LX_STK(O1COM.LX_TOP)) -> LX_LARGE.
             40614                   LARGE_ITEM$);
     6726    40615
     6727    40616    2          TEMP$ = O1COM.CURRENT_CD_ENTRY$ -> CD_LTS.CD_ST$ -> SCALAR.QLT$;
     6728    40617    2          P$ = TEMP$ -> QLT.SON -> QLT.ST$;
     6729    40618    2          P$ -> SCALAR.B.REDEF_OBJ = TRUE;
     6730    40619    2          P$ = P$ -> SCALAR.QLT$ -> QLT.BROTHER;
     6731    40620
     6732    40621    3          DO WHILE ( P$ ~= ADDR(NIL) );
     6733    40622
     6734    40623    3            P$ -> QLT.FATHER = TEMP$;
     6735    40624    3            P$ -> QLT.ST$ -> SCALAR.B.REDEF_SUB = TRUE;
     6736    40625    3            P$ = P$ -> QLT.BROTHER;
     6737    40626
     6738    40627    3          END;
     6739    40628
     6740    40629    2          CALL CD_ENTRY_WRAPUP;
     6741    40630
     6742    40631    2     CASE (%ACT_CD_START);
     6743    40632
PL6.E3A0      #001=Z8EM$SEMANTICS_DATA_DIV File=Z8EM.:Z8A6TSI                    SAT 08/09/97 12:08 Page:236
     6744    40633    2          O1COM.LEVEL_NO = 0;
     6745    40634
     6746    40635    3          DO CASE (ADDR(O1COM.LX_STK(O1COM.LX_TOP)) -> LX_ITEM.SYMBOL);
     6747    40636    3            CASE (%RSV_WRD_INPUT);
     6748    40637
     6749    40638                   %NEW_LX_CD_INPUT (@POINTER = O1COM.CURRENT_CD_ENTRY$);
     6750    40660
     6751    40661    3              IF ADDR(O1COM.LX_STK(O1COM.LX_TOP - 1)) -> LX_ITEM.SYMBOL = %
             40661                       RSV_WRD_INITIAL THEN
     6752    40662    4                DO;
     6753    40663    4                  IF O1COM.CD_INITIAL THEN
     6754    40664    4                    CALL Z8AE$ERROR (%E$MORE_THEN_ONE_INITIAL,
     6755    40665    4                                     O1COM.LX_STK.LINE(O1COM.LX_TOP - 1),
     6756    40666    4                                     O1COM.LX_STK.COLUMN(O1COM.LX_TOP - 1));
     6757    40667    4                  ELSE
     6758    40668    5                    DO;
     6759    40669    5                      O1COM.CD_INITIAL = TRUE;
     6760    40670    5                      O1COM.CURRENT_CD_ENTRY$ -> LX_CD_INPUT.B.INITIAL = TRUE;
     6761    40671    5                    END;
     6762    40672    4                END;
     6763    40673
     6764    40674    3            CASE (%RSV_WRD_OUTPUT);
     6765    40675
     6766    40676                   %NEW_LX_CD_OUTPUT (@POINTER = O1COM.CURRENT_CD_ENTRY$);
     6767    40698
     6768    40699    3            CASE (%RSV_WRD_I_O);
     6769    40700
     6770    40701                   %NEW_LX_CD_I_O (@POINTER = O1COM.CURRENT_CD_ENTRY$);
     6771    40723
     6772    40724    3              IF ADDR(O1COM.LX_STK(O1COM.LX_TOP - 1)) -> LX_ITEM.SYMBOL = %
             40724                       RSV_WRD_INITIAL THEN
     6773    40725    4                DO;
     6774    40726    4                  IF O1COM.CD_INITIAL THEN
     6775    40727    4                    CALL Z8AE$ERROR (%E$MORE_THEN_ONE_INITIAL,
     6776    40728    4                                     O1COM.LX_STK.LINE(O1COM.LX_TOP - 1),
     6777    40729    4                                     O1COM.LX_STK.COLUMN(O1COM.LX_TOP - 1));
     6778    40730    4                  ELSE
PL6.E3A0      #001=Z8EM$SEMANTICS_DATA_DIV File=Z8EM.:Z8A6TSI                    SAT 08/09/97 12:08 Page:237
     6779    40731    5                    DO;
     6780    40732    5                      O1COM.CD_INITIAL = TRUE;
     6781    40733    5                      O1COM.CURRENT_CD_ENTRY$ -> LX_CD_INPUT.B.INITIAL = TRUE;
     6782    40734    5                    END;
     6783    40735    4                END;
     6784    40736    3          END; /* Do case end */
     6785    40737
     6786    40738    2     CASE (%ACT_CD_NAME_LIST);
     6787    40739
     6788    40740    2          IF ADDR(O1COM.LX_STK (O1COM.LX_TOP)) -> LX_LIST.COUNT > %CD_INPUT_OPTION THEN
     6789    40741    3            DO;
     6790    40742    3              CALL Z8AE$ERROR (%E$NAME_LIST_OVERFLOW,
     6791    40743    3                       ADDR(O1COM.LX_STK(O1COM.LX_TOP)) -> LX_LIST.HEAD$ -> LX_ITEM.
             40743                                LINE,
     6792    40744    3                       ADDR(O1COM.LX_STK(O1COM.LX_TOP)) -> LX_LIST.HEAD$ -> LX_ITEM.
             40744                                COLUMN);
     6793    40745
     6794    40746    3              ADDR(O1COM.LX_STK(O1COM.LX_TOP)) -> LX_LIST.COUNT = %CD_INPUT_OPTION;
     6795    40747    3            END;
     6796    40748
     6797    40749    3          DO I = 0 TO ADDR(O1COM.LX_STK(O1COM.LX_TOP)) -> LX_LIST.COUNT - 1;
     6798    40750
     6799    40751    3            O1COM.CURRENT_CD_ENTRY$ -> LX_CD_INPUT.INPUT_FIELDS$(I) =
     6800    40752    3                  ADDR(O1COM.LX_STK(O1COM.LX_TOP)) -> LX_LIST.HEAD$;
     6801    40753    3            ADDR(O1COM.LX_STK(O1COM.LX_TOP)) -> LX_LIST.HEAD$ =
     6802    40754    3                  ADDR(O1COM.LX_STK(O1COM.LX_TOP)) -> LX_LIST.HEAD$ -> LX_ITEM.LINK;
     6803    40755    3            O1COM.CURRENT_CD_ENTRY$ -> LX_CD_INPUT.INPUT_FIELDS$(I) ->
     6804    40756    3                  LX_ITEM.LINK = ADDR(NIL);
     6805    40757    3          END;
     6806    40758
     6807    40759    2          CALL Z8ED$DISPOSE_ABSSYN_TREE (ADDR(O1COM.LX_STK(O1COM.LX_TOP)) -> LX_LIST.
             40759                   HEAD$);
     6808    40760
     6809    40761    2     CASE (%ACT_CD_IO_NAME_LIST);
     6810    40762
     6811    40763    2          IF ADDR(O1COM.LX_STK (O1COM.LX_TOP)) -> LX_LIST.COUNT > %CD_I_O_OPTION THEN
     6812    40764    3            DO;
PL6.E3A0      #001=Z8EM$SEMANTICS_DATA_DIV File=Z8EM.:Z8A6TSI                    SAT 08/09/97 12:08 Page:238
     6813    40765    3              CALL Z8AE$ERROR (%E$NAME_LIST_OVERFLOW,
     6814    40766    3                       ADDR(O1COM.LX_STK(O1COM.LX_TOP)) -> LX_LIST.HEAD$ -> LX_ITEM.
             40766                                LINE,
     6815    40767    3                       ADDR(O1COM.LX_STK(O1COM.LX_TOP)) -> LX_LIST.HEAD$ -> LX_ITEM.
             40767                                COLUMN);
     6816    40768
     6817    40769    3              ADDR(O1COM.LX_STK(O1COM.LX_TOP)) -> LX_LIST.COUNT = %CD_I_O_OPTION;
     6818    40770    3            END;
     6819    40771
     6820    40772    3          DO I = 0 TO ADDR(O1COM.LX_STK(O1COM.LX_TOP)) -> LX_LIST.COUNT - 1;
     6821    40773
     6822    40774    3            O1COM.CURRENT_CD_ENTRY$ -> LX_CD_I_O.I_O_FIELDS$(I) =
     6823    40775    3                  ADDR(O1COM.LX_STK(O1COM.LX_TOP)) -> LX_LIST.HEAD$;
     6824    40776    3            ADDR(O1COM.LX_STK(O1COM.LX_TOP)) -> LX_LIST.HEAD$ =
     6825    40777    3                  ADDR(O1COM.LX_STK(O1COM.LX_TOP)) -> LX_LIST.HEAD$ -> LX_ITEM.LINK;
     6826    40778    3            O1COM.CURRENT_CD_ENTRY$ -> LX_CD_I_O.I_O_FIELDS$(I) ->
     6827    40779    3                  LX_ITEM.LINK = ADDR(NIL);
     6828    40780    3          END;
     6829    40781
     6830    40782    2          CALL Z8ED$DISPOSE_ABSSYN_TREE (ADDR(O1COM.LX_STK(O1COM.LX_TOP)) -> LX_LIST.
             40782                   HEAD$);
     6831    40783
     6832    40784    2     CASE (%ACT_CD_BLOCK_CONTAINS);
     6833    40785
     6834    40786               %NEW_COPY_LX_STK (@FROM = "O1COM.LX_TOP - 1",
     6835    40787                                 @POINTER = O1COM.CURRENT_CD_ENTRY$ -> LX_CD_INPUT.BLOCK$);
     6836    40798
     6837    40799    2     CASE (%ACT_CD_SYMBOLIC_QUEUE);
     6838    40800
     6839    40801    3          DO CASE (ADDR(O1COM.LX_STK(O1COM.LX_TOP - 1)) -> LX_ITEM.SYMBOL);
     6840    40802    3            CASE (%RSV_WRD_QUEUE);
     6841    40803
     6842    40804    3              CALL CHECK_AND_SAVE_ITEM(ADDR(O1COM.LX_STK(O1COM.LX_TOP)),
     6843    40805    3                  O1COM.CURRENT_CD_ENTRY$ -> LX_CD_INPUT.P.QUEUE$,
     6844    40806    3                  %RSV_WRD_QUEUE);
     6845    40807
     6846    40808    3            CASE (%RSV_WRD_SUB_QUEUE_1);
PL6.E3A0      #001=Z8EM$SEMANTICS_DATA_DIV File=Z8EM.:Z8A6TSI                    SAT 08/09/97 12:08 Page:239
     6847    40809
     6848    40810    3              CALL CHECK_AND_SAVE_ITEM(ADDR(O1COM.LX_STK(O1COM.LX_TOP)),
     6849    40811    3                  O1COM.CURRENT_CD_ENTRY$ -> LX_CD_INPUT.P.SUB_QUEUE_1$,
     6850    40812    3                  %RSV_WRD_SUB_QUEUE_1);
     6851    40813
     6852    40814    3            CASE (%RSV_WRD_SUB_QUEUE_2);
     6853    40815
     6854    40816    3              CALL CHECK_AND_SAVE_ITEM(ADDR(O1COM.LX_STK(O1COM.LX_TOP)),
     6855    40817    3                  O1COM.CURRENT_CD_ENTRY$ -> LX_CD_INPUT.P.SUB_QUEUE_2$,
     6856    40818    3                  %RSV_WRD_SUB_QUEUE_2);
     6857    40819
     6858    40820    3            CASE (%RSV_WRD_SUB_QUEUE_3);
     6859    40821
     6860    40822    3              CALL CHECK_AND_SAVE_ITEM(ADDR(O1COM.LX_STK(O1COM.LX_TOP)),
     6861    40823    3                  O1COM.CURRENT_CD_ENTRY$ -> LX_CD_INPUT.P.SUB_QUEUE_3$,
     6862    40824    3                  %RSV_WRD_SUB_QUEUE_3);
     6863    40825
     6864    40826    3          END; /* Do case end */
     6865    40827
     6866    40828    2     CASE (%ACT_CD_INPUT_DATE);
     6867    40829
     6868    40830    2          CALL CHECK_AND_SAVE_ITEM(ADDR(O1COM.LX_STK(O1COM.LX_TOP)),
     6869    40831    2                     O1COM.CURRENT_CD_ENTRY$ -> LX_CD_INPUT.P.MESSAGE_DATE$,
     6870    40832    2                     %RSV_WRD_DATE);
     6871    40833
     6872    40834    2     CASE (%ACT_CD_INPUT_TIME);
     6873    40835
     6874    40836    2          CALL CHECK_AND_SAVE_ITEM(ADDR(O1COM.LX_STK(O1COM.LX_TOP)),
     6875    40837    2                     O1COM.CURRENT_CD_ENTRY$ -> LX_CD_INPUT.P.MESSAGE_TIME$,
     6876    40838    2                     %RSV_WRD_TIME);
     6877    40839
     6878    40840    2     CASE (%ACT_CD_INPUT_SOURCE);
     6879    40841
     6880    40842    2          CALL CHECK_AND_SAVE_ITEM(ADDR(O1COM.LX_STK(O1COM.LX_TOP)),
     6881    40843    2                     O1COM.CURRENT_CD_ENTRY$ -> LX_CD_INPUT.P.SYMBOLIC_SOURCE$,
     6882    40844    2                     %RSV_WRD_SOURCE);
     6883    40845
PL6.E3A0      #001=Z8EM$SEMANTICS_DATA_DIV File=Z8EM.:Z8A6TSI                    SAT 08/09/97 12:08 Page:240
     6884    40846    2     CASE (%ACT_CD_INPUT_TEXT_LENGTH);
     6885    40847
     6886    40848    2          CALL CHECK_AND_SAVE_ITEM(ADDR(O1COM.LX_STK(O1COM.LX_TOP)),
     6887    40849    2                     O1COM.CURRENT_CD_ENTRY$ -> LX_CD_INPUT.P.TEXT_LENGTH$,
     6888    40850    2                     %RSV_WRD_LENGTH);
     6889    40851
     6890    40852    2     CASE (%ACT_CD_INPUT_END_KEY);
     6891    40853
     6892    40854    2          CALL CHECK_AND_SAVE_ITEM(ADDR(O1COM.LX_STK(O1COM.LX_TOP)),
     6893    40855    2                     O1COM.CURRENT_CD_ENTRY$ -> LX_CD_INPUT.P.END_KEY$,
     6894    40856    2                     %RSV_WRD_KEY);
     6895    40857
     6896    40858    2     CASE (%ACT_CD_INPUT_STATUS_KEY);
     6897    40859
     6898    40860    2          CALL CHECK_AND_SAVE_ITEM(ADDR(O1COM.LX_STK(O1COM.LX_TOP)),
     6899    40861    2                     O1COM.CURRENT_CD_ENTRY$ -> LX_CD_INPUT.P.STATUS_KEY$,
     6900    40862    2                     %RSV_WRD_KEY);
     6901    40863
     6902    40864    2     CASE (%ACT_CD_INPUT_MESSAGE_COUNT);
     6903    40865
     6904    40866    2          CALL CHECK_AND_SAVE_ITEM(ADDR(O1COM.LX_STK(O1COM.LX_TOP)),
     6905    40867    2                     O1COM.CURRENT_CD_ENTRY$ -> LX_CD_INPUT.P.MESSAGE_COUNT$,
     6906    40868    2                     %RSV_WRD_MESSAGE);
     6907    40869
     6908    40870    2     CASE (%ACT_CD_DESTINATION_COUNT);
     6909    40871
     6910    40872    2          CALL CHECK_AND_SAVE_ITEM(ADDR(O1COM.LX_STK(O1COM.LX_TOP)),
     6911    40873    2                     O1COM.CURRENT_CD_ENTRY$ -> LX_CD_OUTPUT.P.DESTINATION_COUNT$,
     6912    40874    2                     %RSV_WRD_DESTINATION);
     6913    40875
     6914    40876    2     CASE (%ACT_CD_OUTPUT_TEXT_LENGTH);
     6915    40877
     6916    40878    2          CALL CHECK_AND_SAVE_ITEM(ADDR(O1COM.LX_STK(O1COM.LX_TOP)),
     6917    40879    2                     O1COM.CURRENT_CD_ENTRY$ -> LX_CD_OUTPUT.P.TEXT_LENGTH$,
     6918    40880    2                     %RSV_WRD_LENGTH);
     6919    40881
     6920    40882    2     CASE (%ACT_CD_OUTPUT_STATUS_KEY);
PL6.E3A0      #001=Z8EM$SEMANTICS_DATA_DIV File=Z8EM.:Z8A6TSI                    SAT 08/09/97 12:08 Page:241
     6921    40883
     6922    40884    2          CALL CHECK_AND_SAVE_ITEM(ADDR(O1COM.LX_STK(O1COM.LX_TOP)),
     6923    40885    2                     O1COM.CURRENT_CD_ENTRY$ -> LX_CD_OUTPUT.P.STATUS_KEY$,
     6924    40886    2                     %RSV_WRD_KEY);
     6925    40887
     6926    40888    2     CASE (%ACT_DESTINATION_TABLE);
     6927    40889
     6928    40890    2          CALL CHECK_AND_SAVE_ITEM(ADDR(O1COM.LX_STK(O1COM.LX_TOP - 1)),
     6929    40891    2                     O1COM.CURRENT_CD_ENTRY$ -> LX_CD_OUTPUT.P.OCCURS$,
     6930    40892    2                     %RSV_WRD_OCCURS);
     6931    40893
     6932    40894    2     CASE (%ACT_CD_INDEXED);
     6933    40895
     6934    40896    2          CALL CHECK_AND_SAVE_ITEM(ADDR(O1COM.LX_STK(O1COM.LX_TOP)),
     6935    40897    2                     O1COM.CURRENT_CD_ENTRY$ -> LX_CD_OUTPUT.P.INDEX_LIST$,
     6936    40898    2                     %RSV_WRD_INDEXED);
     6937    40899
     6938    40900    2     CASE (%ACT_CD_ERROR_KEY);
     6939    40901
     6940    40902    2          CALL CHECK_AND_SAVE_ITEM(ADDR(O1COM.LX_STK(O1COM.LX_TOP)),
     6941    40903    2                     O1COM.CURRENT_CD_ENTRY$ -> LX_CD_OUTPUT.P.ERROR_KEY$,
     6942    40904    2                     %RSV_WRD_KEY);
     6943    40905
     6944    40906    2     CASE (%ACT_CD_SYMBOLIC_DESTINATION);
     6945    40907
     6946    40908    2          CALL CHECK_AND_SAVE_ITEM(ADDR(O1COM.LX_STK(O1COM.LX_TOP)),
     6947    40909    2                     O1COM.CURRENT_CD_ENTRY$ -> LX_CD_OUTPUT.P.SYMBOLIC_DESTINATION$,
     6948    40910    2                     %RSV_WRD_DESTINATION);
     6949    40911
     6950    40912    2     CASE (%ACT_CD_IO_MESSAGE_DATE);
     6951    40913
     6952    40914    2          CALL CHECK_AND_SAVE_ITEM(ADDR(O1COM.LX_STK(O1COM.LX_TOP)),
     6953    40915    2                     O1COM.CURRENT_CD_ENTRY$ -> LX_CD_I_O.P.MESSAGE_DATE$,
     6954    40916    2                     %RSV_WRD_DATE);
     6955    40917
     6956    40918    2     CASE (%ACT_CD_IO_MESSAGE_TIME);
     6957    40919
PL6.E3A0      #001=Z8EM$SEMANTICS_DATA_DIV File=Z8EM.:Z8A6TSI                    SAT 08/09/97 12:08 Page:242
     6958    40920    2          CALL CHECK_AND_SAVE_ITEM(ADDR(O1COM.LX_STK(O1COM.LX_TOP)),
     6959    40921    2                     O1COM.CURRENT_CD_ENTRY$ -> LX_CD_I_O.P.MESSAGE_TIME$,
     6960    40922    2                     %RSV_WRD_TIME);
     6961    40923
     6962    40924    2     CASE (%ACT_CD_IO_TERMINAL);
     6963    40925
     6964    40926    2          CALL CHECK_AND_SAVE_ITEM(ADDR(O1COM.LX_STK(O1COM.LX_TOP)),
     6965    40927    2                     O1COM.CURRENT_CD_ENTRY$ -> LX_CD_I_O.P.TERMINAL$,
     6966    40928    2                     %RSV_WRD_TERMINAL);
     6967    40929
     6968    40930    2     CASE (%ACT_CD_IO_TEXT_LENGTH);
     6969    40931
     6970    40932    2          CALL CHECK_AND_SAVE_ITEM(ADDR(O1COM.LX_STK(O1COM.LX_TOP)),
     6971    40933    2                     O1COM.CURRENT_CD_ENTRY$ -> LX_CD_I_O.P.TEXT_LENGTH$,
     6972    40934    2                     %RSV_WRD_LENGTH);
     6973    40935
     6974    40936    2     CASE (%ACT_CD_IO_END_KEY);
     6975    40937
     6976    40938    2          CALL CHECK_AND_SAVE_ITEM(ADDR(O1COM.LX_STK(O1COM.LX_TOP)),
     6977    40939    2                     O1COM.CURRENT_CD_ENTRY$ -> LX_CD_I_O.P.END_KEY$,
     6978    40940    2                     %RSV_WRD_KEY);
     6979    40941
     6980    40942    2     CASE (%ACT_CD_IO_STATUS_KEY);
     6981    40943
     6982    40944    2          CALL CHECK_AND_SAVE_ITEM(ADDR(O1COM.LX_STK(O1COM.LX_TOP)),
     6983    40945    2                     O1COM.CURRENT_CD_ENTRY$ -> LX_CD_I_O.P.STATUS_KEY$,
     6984    40946    2                     %RSV_WRD_KEY);
     6985    40947
     6986    40948        %EJECT;
PL6.E3A0      #001=Z8EM$SEMANTICS_DATA_DIV File=Z8EM.:Z8A6TSI                    SAT 08/09/97 12:08 Page:243
     6987    40949        /*
     6988    40950                               Report Section
     6989    40951        */
     6990    40952
     6991    40953    2     CASE(%ACT_REPORT_SECTION);
     6992    40954    2          O1COM.DATA_DECL_CONTEXT = %REPORT_SECTION;
     6993    40955
     6994    40956    2          IF O1COM.SECTION_FOUND.REPORT_SECTION THEN
     6995    40957    3            DO;
     6996    40958    3              P$ = ADDR(O1COM.LX_STK(O1COM.LX_TOP));
     6997    40959
     6998    40960                   %CONDITIONAL_ERROR (@LX_ITEM$ = P$,
     6999    40961                                       @ERROR#   = %E$MULTIPLE_SECTIONS,
     7000    40962                                       @LINE     = P$ -> LX_ITEM.LINE,
     7001    40963                                       @COLUMN   = P$ -> LX_ITEM.COLUMN);
     7002    40993    3            END;
     7003    40994
     7004    40995    2          ELSE IF COMCOM.OB.FIPS.RPW THEN
     7005    40996    2            CALL Z8AE$ERROR (%E$LEVEL_CHECK,
     7006    40997    2                             O1COM.LX_STK.LINE(O1COM.LX_TOP - 2),
     7007    40998    2                             O1COM.LX_STK.COLUMN(O1COM.LX_TOP - 2));
     7008    40999
     7009    41000    2          IF /*N* Free Format -- NOT COMCOM.OB.FORMAT AND */
     7010    41001    2                 O1COM.LX_STK.COLUMN (O1COM.LX_TOP - 2) >= O1COM.AREA_B_COLUMN_START
             41001                          THEN
     7011    41002
     7012    41003    2            CALL  Z8AE$ERROR (%E$MUST_BE_IN_AREA_A,
     7013    41004    2                              O1COM.LX_STK.LINE (O1COM.LX_TOP - 2),
     7014    41005    2                              O1COM.LX_STK.COLUMN (O1COM.LX_TOP - 2),
     7015    41006    2                              O1COM.LX_STK.DNT$ (O1COM.LX_TOP - 2));
     7016    41007
     7017    41008    2          O1COM.SECTION_FOUND.REPORT_SECTION = TRUE;
     7018    41009    2          COMCOM.RD_RECOVERY_FILE$ = ADDR(NIL);
     7019    41010
     7020    41011    2     CASE(%ACT_REPORT_CONTROL_NAME);
     7021    41012
     7022    41013               %NEW_COPY_LX_STK (@POINTER = HEAP$,
PL6.E3A0      #001=Z8EM$SEMANTICS_DATA_DIV File=Z8EM.:Z8A6TSI                    SAT 08/09/97 12:08 Page:244
     7023    41014                                 @FROM    = O1COM.LX_TOP);
     7024    41025
     7025    41026    2          CALL SAVE_CONTROL_LIST (HEAP$);
     7026    41027
     7027    41028    2     CASE(%ACT_REPORT_FINAL_NAME);
     7028    41029    2         O1COM.CURRENT_REPORT_LTS$ -> REPORT_LTS.B.CONTROL_FINAL = TRUE;
     7029    41030    2          O1COM.CURRENT_REPORT_LTS$ -> REPORT_LTS.NO_CTR_ITEM = 1;
     7030    41031
     7031    41032               %NEW_COPY_LX_STK (@POINTER = HEAP$,
     7032    41033                                 @FROM    = O1COM.LX_TOP);
     7033    41044
     7034    41045    2          CALL SAVE_CONTROL_LIST (HEAP$);
     7035    41046
     7036    41047    2      CASE(%ACT_RD_START);
     7037    41048    2          CALL RD_START (ADDR(O1COM.LX_STK(O1COM.LX_TOP)));
     7038    41049
     7039    41050    2      CASE(%ACT_RD_END);
     7040    41051    2            CALL Z8DT$REPORT_REC (ADDR(O1COM.LX_STK(O1COM.LX_TOP)) -> LX_LARGE.
             41051                     LARGE_ITEM$,
     7041    41052    2                                  ADDR(NIL));
     7042    41053    2            CALL Z8ED$DISPOSE_ABSSYN_TREE (ADDR(O1COM.LX_STK(O1COM.LX_TOP)) -> LX_LARGE
             41053                     .LARGE_ITEM$);
     7043    41054
     7044    41055
     7045    41056    2      CASE(%ACT_REPORT_GLOBAL);
     7046    41057    2          O1COM.CURRENT_REPORT_LTS$ -> REPORT_LTS.ST$ -> RD.B.GLOBAL = TRUE;
     7047    41058    2          O1COM.CURRENT_REPORT_LTS$ -> REPORT_LTS.B.GLOBAL = TRUE;
     7048    41059    2          O1COM.CURRENT_REPORT_LTS$ -> REPORT_LTS.LINE_COUNTER$ ->
     7049    41060    2              SCALAR.B.GLOBAL = TRUE;
     7050    41061    2          O1COM.CURRENT_REPORT_LTS$ -> REPORT_LTS.PAGE_COUNTER$ ->
     7051    41062    2              SCALAR.B.GLOBAL = TRUE;
     7052    41063
     7053    41064    2      CASE(%ACT_REPORT_CODE);
     7054    41065    2          CALL REPORT_CODE (ADDR(O1COM.LX_STK(O1COM.LX_TOP - 1)), ADDR(O1COM.LX_STK(
             41065                   O1COM.LX_TOP)));
     7055    41066
     7056    41067    2      CASE(%ACT_REPORT_CONTROL_FINAL);
PL6.E3A0      #001=Z8EM$SEMANTICS_DATA_DIV File=Z8EM.:Z8A6TSI                    SAT 08/09/97 12:08 Page:245
     7057    41068    2           O1COM.CURRENT_REPORT_LTS$ -> REPORT_LTS.B.CONTROL_FINAL = TRUE;
     7058    41069    2          O1COM.CURRENT_REPORT_LTS$ -> REPORT_LTS.NO_CTR_ITEM = 1;
     7059    41070
     7060    41071    2      CASE(%ACT_REPORT_PAGE_LINE);
     7061    41072    3          DO I = 0 TO 3;
     7062    41073    3            PAGE_FORMAT.P_PTR (I) = ADDR(NIL);
     7063    41074    3          END;
     7064    41075    2          CALL REPORT_PAGE_FORMAT (ADDR(O1COM.LX_STK(O1COM.LX_TOP - 3)), ADDR(O1COM.
             41075                   LX_STK(O1COM.LX_TOP - 1)));
     7065    41076    2      CASE(%ACT_PAGE_FORMAT_START);
     7066    41077    3          DO I=0 TO 3;
     7067    41078    3            PAGE_FORMAT.P_PTR (I) = ADDR(NIL);
     7068    41079    3          END;
     7069    41080
     7070    41081    2      CASE(%ACT_REPORT_PAGE_FORMAT);
     7071    41082    2          CALL REPORT_PAGE_FORMAT (ADDR(O1COM.LX_STK(O1COM.LX_TOP - 5)), ADDR(O1COM.
             41082                   LX_STK(O1COM.LX_TOP - 3)));
     7072    41083
     7073    41084    2      CASE(%ACT_REPORT_HEADING);
     7074    41085    2          ADDR(O1COM.LX_STK(O1COM.LX_TOP - 1)) -> LX_ITEM.DNT$ = ADDR(O1COM.LX_STK(
             41085                   O1COM.LX_TOP)) -> LX_ITEM.DNT$;
     7075    41086    2          CALL CHECK_AND_SAVE_ITEM (ADDR(O1COM.LX_STK(O1COM.LX_TOP - 1)),
     7076    41087    2                                    PAGE_FORMAT.P.HEADING$,
     7077    41088    2                                    %RSV_WRD_HEADING);
     7078    41089
     7079    41090    2      CASE(%ACT_REPORT_FIRST_DETAIL);
     7080    41091    2          ADDR(O1COM.LX_STK(O1COM.LX_TOP - 2)) -> LX_ITEM.DNT$ = ADDR(O1COM.LX_STK(
             41091                   O1COM.LX_TOP)) -> LX_ITEM.DNT$;
     7081    41092    2          CALL CHECK_AND_SAVE_ITEM (ADDR(O1COM.LX_STK(O1COM.LX_TOP - 2)),
     7082    41093    2                                    PAGE_FORMAT.P.FIRST_DETAIL$,
     7083    41094    2                                    %RSV_WRD_FIRST);
     7084    41095
     7085    41096    2      CASE(%ACT_REPORT_LAST_DETAIL);
     7086    41097    2          ADDR(O1COM.LX_STK(O1COM.LX_TOP - 2)) -> LX_ITEM.DNT$ = ADDR(O1COM.LX_STK(
             41097                   O1COM.LX_TOP)) -> LX_ITEM.DNT$;
     7087    41098    2          CALL CHECK_AND_SAVE_ITEM (ADDR(O1COM.LX_STK(O1COM.LX_TOP - 2)),
     7088    41099    2                                    PAGE_FORMAT.P.LAST_DETAIL$,
PL6.E3A0      #001=Z8EM$SEMANTICS_DATA_DIV File=Z8EM.:Z8A6TSI                    SAT 08/09/97 12:08 Page:246
     7089    41100    2                                    %RSV_WRD_LAST);
     7090    41101
     7091    41102    2      CASE(%ACT_REPORT_FOOTING);
     7092    41103    2          ADDR(O1COM.LX_STK(O1COM.LX_TOP - 1)) -> LX_ITEM.DNT$ = ADDR(O1COM.LX_STK(
             41103                   O1COM.LX_TOP)) -> LX_ITEM.DNT$;
     7093    41104    2          CALL CHECK_AND_SAVE_ITEM (ADDR(O1COM.LX_STK(O1COM.LX_TOP - 1)),
     7094    41105    2                                    PAGE_FORMAT.P.FOOTING$,
     7095    41106    2                                    %RSV_WRD_FOOTING);
     7096    41107
     7097    41108    2      CASE(%ACT_PROCESS_REPORT_REC_DESC);
     7098    41109    2            CALL Z8DT$REPORT_REC (ADDR(O1COM.LX_STK(O1COM.LX_TOP -1)) -> LX_LARGE.
             41109                     LARGE_ITEM$,
     7099    41110    2                                  ADDR(O1COM.LX_STK(O1COM.LX_TOP)) -> LX_LARGE.
             41110                                           LARGE_ITEM$);
     7100    41111    2            CALL Z8ED$DISPOSE_ABSSYN_TREE (ADDR(O1COM.LX_STK(O1COM.LX_TOP - 1)) ->
             41111                     LX_LARGE.LARGE_ITEM$);
     7101    41112                 %PROPAGATE(@FROM = O1COM.LX_TOP);
     7102    41117
     7103    41118    2      CASE(%ACT_START_REPORT_DD);
     7104    41119               %INIT_LX_LARGE (@POINTER = "ADDR(TEMP_LX_NODE)");
     7105    41126               %NEW_LX_REPORT_REC (@POINTER = HEAP$);
     7106    41152    2          ADDR(TEMP_LX_NODE) -> LX_LARGE.LARGE_ITEM$ = HEAP$;
     7107    41153               %NEW_COPY_LX_STK (@POINTER = HEAP$,
     7108    41154                                 @FROM    = O1COM.LX_TOP);
     7109    41165    2          CALL CHARBIN(ADDR(TEMP_LX_NODE) -> LX_LARGE.LARGE_ITEM$ ->
     7110    41166    2                       LX_REPORT_REC.LEVEL_NUMBER,
     7111    41167    2                       ADDR(O1COM.LX_STK(O1COM.LX_TOP)) -> LX_TERMINAL.DNT$ -> DNT.TEXT
             41167                                .NAME);
     7112    41168    2          ADDR(TEMP_LX_NODE) -> LX_LARGE.LARGE_ITEM$ ->
     7113    41169    2                       LX_REPORT_REC.P.LEVEL_NO$ = HEAP$;
     7114    41170    2          ADDR(O1COM.LX_STK(O1COM.LX_TOP)) -> LX_ITEM = ADDR(TEMP_LX_NODE) -> LX_ITEM;
     7115    41171    2          O1COM.REPORT_DD$ = ADDR(O1COM.LX_STK(O1COM.LX_TOP)) -> LX_LARGE.LARGE_ITEM$;
     7116    41172
     7117    41173    2      CASE(%ACT_INT_WITH_NAME);
     7118    41174
     7119    41175    2          IF O1COM.LX_STK.DNT$(O1COM.LX_TOP - 1) -> DNT.B.REP_COUNTER THEN
     7120    41176    3            DO;
PL6.E3A0      #001=Z8EM$SEMANTICS_DATA_DIV File=Z8EM.:Z8A6TSI                    SAT 08/09/97 12:08 Page:247
     7121    41177    3              CALL Z8AE$ERROR (%E$WRONG_DATA_NAME_IN_REP,
     7122    41178    3                               O1COM.LX_STK.LINE (O1COM.LX_TOP - 1),
     7123    41179    3                               O1COM.LX_STK.COLUMN (O1COM.LX_TOP -1));
     7124    41180
     7125    41181    3              O1COM.LX_STK.DNT$(O1COM.LX_TOP - 1) = DNT$_FROM_RSWNO(%RSV_WRD_FILLER);
     7126    41182    3              O1COM.LX_STK.SYMBOL(O1COM.LX_TOP - 1) = %RSV_WRD_FILLER;
     7127    41183    3            END;
     7128    41184
     7129    41185               %NEW_COPY_LX_STK( @POINTER = HEAP$,
     7130    41186                                 @FROM    = O1COM.LX_TOP - 1);
     7131    41197    2          O1COM.REPORT_DD$ -> LX_REPORT_REC.P.DATA_NAME$ = HEAP$;
     7132    41198
     7133    41199    2      CASE(%ACT_INT_NO_NAME);
     7134    41200    2          O1COM.LX_STK.DNT$(O1COM.LX_TOP) = DNT$_FROM_RSWNO(%RSV_WRD_FILLER);
     7135    41201    2          O1COM.LX_STK.SYMBOL(O1COM.LX_TOP) = %RSV_WRD_FILLER;
     7136    41202               %NEW_COPY_LX_STK (@POINTER = HEAP$,
     7137    41203                                 @FROM    = O1COM.LX_TOP);
     7138    41214    2          O1COM.REPORT_DD$ -> LX_REPORT_REC.P.DATA_NAME$ = HEAP$;
     7139    41215
     7140    41216    2      CASE(%ACT_REPORT_REC_DESC);
     7141    41217
     7142    41218    2          IF O1COM.LX_STK.DNT$(O1COM.LX_TOP - 2) -> DNT.B.REP_COUNTER THEN
     7143    41219    3            DO;
     7144    41220    3              CALL Z8AE$ERROR (%E$WRONG_DATA_NAME_IN_REP,
     7145    41221    3                               O1COM.LX_STK.LINE (O1COM.LX_TOP - 2),
     7146    41222    3                               O1COM.LX_STK.COLUMN (O1COM.LX_TOP -2));
     7147    41223
     7148    41224    3              O1COM.LX_STK.DNT$(O1COM.LX_TOP - 2) = DNT$_FROM_RSWNO(%RSV_WRD_FILLER);
     7149    41225    3              O1COM.LX_STK.SYMBOL(O1COM.LX_TOP - 2) = %RSV_WRD_FILLER;
     7150    41226    3            END;
     7151    41227
     7152    41228               %NEW_COPY_LX_STK( @POINTER = HEAP$,
     7153    41229                                 @FROM    = O1COM.LX_TOP - 2);
     7154    41240    2          O1COM.REPORT_DD$ -> LX_REPORT_REC.P.DATA_NAME$ = HEAP$;
     7155    41241
     7156    41242    2      CASE(%ACT_REPORT_REC_DESC_NO_NAME);
     7157    41243    2          O1COM.LX_STK.DNT$(O1COM.LX_TOP) = DNT$_FROM_RSWNO(%RSV_WRD_FILLER);
PL6.E3A0      #001=Z8EM$SEMANTICS_DATA_DIV File=Z8EM.:Z8A6TSI                    SAT 08/09/97 12:08 Page:248
     7158    41244    2          O1COM.LX_STK.SYMBOL(O1COM.LX_TOP) = %RSV_WRD_FILLER;
     7159    41245               %NEW_COPY_LX_STK (@POINTER = HEAP$,
     7160    41246                                 @FROM    = O1COM.LX_TOP);
     7161    41257    2          O1COM.REPORT_DD$ -> LX_REPORT_REC.P.DATA_NAME$ = HEAP$;
     7162    41258
     7163    41259    2      CASE(%ACT_FIRST_REPORT_DD_CLAUSE);
     7164    41260    2      CASE(%ACT_APPEND_REPORT_DD_CLAUSE);
     7165    41261               %PROPAGATE (@FROM  = O1COM.LX_TOP);
     7166    41266
     7167    41267    2      CASE(%ACT_LINE_NUMBER_CLAUSE);
     7168    41268    2      CASE(%ACT_NEXT_GROUP_INT);
     7169    41269    2          CALL CHECK_AND_SAVE_ITEM (ADDR(O1COM.LX_STK(O1COM.LX_TOP)),
     7170    41270    2                                    O1COM.REPORT_DD$ -> LX_REPORT_REC.P.NEXT_GROUP$,
     7171    41271    2                                    %RSV_WRD_GROUP)
     7172    41272    2            WHENRETURN
     7173    41273    3              DO;
     7174    41274    3                O1COM.REPORT_DD$ -> LX_REPORT_REC.D.NEXT_GROUP_TYPE = %NEXT_GROUP_INT;
     7175    41275    3                O1COM.REPORT_DD$ -> LX_REPORT_REC.CLAUSE_COUNT =
     7176    41276    3                  O1COM.REPORT_DD$ -> LX_REPORT_REC.CLAUSE_COUNT + 1;
     7177    41277    3                CALL CHARBIN (O1COM.REPORT_DD$ -> LX_REPORT_REC.NEXT_GROUP_NO#,
     7178    41278    3                              ADDR(O1COM.LX_STK(O1COM.LX_TOP)) -> LX_ITEM.DNT$ -> DNT.
             41278                                       TEXT.NAME);
     7179    41279    3                IF COMCOM.OB.FIPS.RPW THEN
     7180    41280    3                  CALL Z8AE$ERROR (%E$LEVEL_CHECK,
     7181    41281    3                                   O1COM.LX_STK.LINE(O1COM.LX_TOP - 3),
     7182    41282    3                                   O1COM.LX_STK.COLUMN(O1COM.LX_TOP - 3));
     7183    41283    3              END;
     7184    41284
     7185    41285    2      CASE(%ACT_NEXT_GROUP_PLUS);
     7186    41286    2          CALL CHECK_AND_SAVE_ITEM (ADDR(O1COM.LX_STK(O1COM.LX_TOP)),
     7187    41287    2                                    O1COM.REPORT_DD$ -> LX_REPORT_REC.P.NEXT_GROUP$,
     7188    41288    2                                    %RSV_WRD_GROUP)
     7189    41289    2            WHENRETURN
     7190    41290    3              DO;
     7191    41291    3                O1COM.REPORT_DD$ -> LX_REPORT_REC.D.NEXT_GROUP_TYPE = %NEXT_GROUP_PLUS;
     7192    41292    3                O1COM.REPORT_DD$ -> LX_REPORT_REC.CLAUSE_COUNT =
     7193    41293    3                  O1COM.REPORT_DD$ -> LX_REPORT_REC.CLAUSE_COUNT + 1;
PL6.E3A0      #001=Z8EM$SEMANTICS_DATA_DIV File=Z8EM.:Z8A6TSI                    SAT 08/09/97 12:08 Page:249
     7194    41294    3                CALL CHARBIN (O1COM.REPORT_DD$ -> LX_REPORT_REC.NEXT_GROUP_NO#,
     7195    41295    3                              ADDR(O1COM.LX_STK(O1COM.LX_TOP)) -> LX_ITEM.DNT$ -> DNT.
             41295                                       TEXT.NAME);
     7196    41296    3                IF COMCOM.OB.FIPS.RPW THEN
     7197    41297    3                  CALL Z8AE$ERROR (%E$LEVEL_CHECK,
     7198    41298    3                                   O1COM.LX_STK.LINE(O1COM.LX_TOP - 4),
     7199    41299    3                                   O1COM.LX_STK.COLUMN(O1COM.LX_TOP - 4));
     7200    41300    3              END;
     7201    41301
     7202    41302    2      CASE(%ACT_NEXT_GROUP_NEXT_PAGE);
     7203    41303    2          CALL CHECK_AND_SAVE_ITEM (ADDR(O1COM.LX_STK(O1COM.LX_TOP)),
     7204    41304    2                                    O1COM.REPORT_DD$ -> LX_REPORT_REC.P.NEXT_GROUP$,
     7205    41305    2                                    %RSV_WRD_GROUP)
     7206    41306    2            WHENRETURN
     7207    41307    3              DO;
     7208    41308    3                O1COM.REPORT_DD$ -> LX_REPORT_REC.D.NEXT_GROUP_TYPE = %
             41308                         NEXT_GROUP_NEXT_PAGE;
     7209    41309    3                O1COM.REPORT_DD$ -> LX_REPORT_REC.CLAUSE_COUNT =
     7210    41310    3                  O1COM.REPORT_DD$ -> LX_REPORT_REC.CLAUSE_COUNT + 1;
     7211    41311    3                IF COMCOM.OB.FIPS.RPW THEN
     7212    41312    3                  CALL Z8AE$ERROR (%E$LEVEL_CHECK,
     7213    41313    3                                   O1COM.LX_STK.LINE(O1COM.LX_TOP - 3),
     7214    41314    3                                   O1COM.LX_STK.COLUMN(O1COM.LX_TOP - 3));
     7215    41315    3              END;
     7216    41316
     7217    41317    2      CASE(%ACT_REPORT_TYPE);
     7218    41318    2          IF COMCOM.OB.FIPS.RPW THEN
     7219    41319    2            CALL Z8AE$ERROR (%E$LEVEL_CHECK,
     7220    41320    2                             O1COM.LX_STK.LINE(O1COM.LX_TOP - 2),
     7221    41321    2                             O1COM.LX_STK.COLUMN(O1COM.LX_TOP - 2));
     7222    41322
     7223    41323    2      CASE(%ACT_REPORT_DISPLAY);
     7224    41324    2          CALL CHECK_AND_SAVE_ITEM (ADDR(O1COM.LX_STK(O1COM.LX_TOP)),
     7225    41325    2                                    O1COM.REPORT_DD$ -> LX_REPORT_REC.P.USAGE$,
     7226    41326    2                                    %RSV_WRD_USAGE)
     7227    41327    2            WHENRETURN
     7228    41328    3              DO;
PL6.E3A0      #001=Z8EM$SEMANTICS_DATA_DIV File=Z8EM.:Z8A6TSI                    SAT 08/09/97 12:08 Page:250
     7229    41329    3                O1COM.REPORT_DD$ -> LX_REPORT_REC.CLAUSE_COUNT =
     7230    41330    3                  O1COM.REPORT_DD$ -> LX_REPORT_REC.CLAUSE_COUNT + 1;
     7231    41331    3              END;
     7232    41332
     7233    41333    2      CASE(%ACT_REPORT_PICTURE);
     7234    41334    2          CALL CHECK_AND_SAVE_ITEM (ADDR(O1COM.LX_STK(O1COM.LX_TOP)),
     7235    41335    2                                    O1COM.REPORT_DD$ -> LX_REPORT_REC.P.PICTURE$,
     7236    41336    2                                    %RSV_WRD_PICTURE)
     7237    41337    2            WHENRETURN
     7238    41338    3              DO;
     7239    41339    3                O1COM.REPORT_DD$ -> LX_REPORT_REC.CLAUSE_COUNT =
     7240    41340    3                  O1COM.REPORT_DD$ -> LX_REPORT_REC.CLAUSE_COUNT + 1;
     7241    41341    3              END;
     7242    41342
     7243    41343    2      CASE(%ACT_REPORT_JUSTIFIED);
     7244    41344    2          CALL CHECK_AND_SAVE_ITEM (ADDR(O1COM.LX_STK(O1COM.LX_TOP)),
     7245    41345    2                                    O1COM.REPORT_DD$ -> LX_REPORT_REC.P.JUSTIFIED$,
     7246    41346    2                                    %RSV_WRD_JUSTIFIED)
     7247    41347    2            WHENRETURN
     7248    41348    3              DO;
     7249    41349    3                O1COM.REPORT_DD$ -> LX_REPORT_REC.CLAUSE_COUNT =
     7250    41350    3                  O1COM.REPORT_DD$ -> LX_REPORT_REC.CLAUSE_COUNT + 1;
     7251    41351    3              END;
     7252    41352
     7253    41353    2      CASE(%ACT_REPORT_BLANK);
     7254    41354    2          CALL CHECK_AND_SAVE_ITEM (ADDR(O1COM.LX_STK(O1COM.LX_TOP)),
     7255    41355    2                                    O1COM.REPORT_DD$ -> LX_REPORT_REC.P.BLANK$,
     7256    41356    2                                    %RSV_WRD_BLANK)
     7257    41357    2            WHENRETURN
     7258    41358    3              DO;
     7259    41359    3                O1COM.REPORT_DD$ -> LX_REPORT_REC.CLAUSE_COUNT =
     7260    41360    3                  O1COM.REPORT_DD$ -> LX_REPORT_REC.CLAUSE_COUNT + 1;
     7261    41361    3              END;
     7262    41362
     7263    41363    2      CASE(%ACT_REPORT_SIGN);
     7264    41364    2          CALL CHECK_AND_SAVE_ITEM (ADDR(O1COM.LX_STK(O1COM.LX_TOP)),
     7265    41365    2                                    O1COM.REPORT_DD$ -> LX_REPORT_REC.P.SIGN$,
PL6.E3A0      #001=Z8EM$SEMANTICS_DATA_DIV File=Z8EM.:Z8A6TSI                    SAT 08/09/97 12:08 Page:251
     7266    41366    2                                    %RSV_WRD_SIGN)
     7267    41367    2            WHENRETURN
     7268    41368    3              DO;
     7269    41369    3                O1COM.REPORT_DD$ -> LX_REPORT_REC.CLAUSE_COUNT =
     7270    41370    3                  O1COM.REPORT_DD$ -> LX_REPORT_REC.CLAUSE_COUNT + 1;
     7271    41371    3              END;
     7272    41372
     7273    41373    2      CASE(%ACT_REPORT_COLUMN);
     7274    41374    2          CALL CHECK_AND_SAVE_ITEM (ADDR(O1COM.LX_STK(O1COM.LX_TOP)),
     7275    41375    2                                    O1COM.REPORT_DD$ -> LX_REPORT_REC.P.COLUMN_NUMBER$,
     7276    41376    2                                    %RSV_WRD_COLUMN)
     7277    41377    2            WHENRETURN
     7278    41378    3              DO;
     7279    41379    3                IF COMCOM.OB.FIPS.RPW THEN
     7280    41380    3                  CALL Z8AE$ERROR (%E$LEVEL_CHECK,
     7281    41381    3                                   O1COM.LX_STK.LINE(O1COM.LX_TOP - 3),
     7282    41382    3                                   O1COM.LX_STK.COLUMN(O1COM.LX_TOP - 3));
     7283    41383    3                O1COM.REPORT_DD$ -> LX_REPORT_REC.CLAUSE_COUNT =
     7284    41384    3                  O1COM.REPORT_DD$ -> LX_REPORT_REC.CLAUSE_COUNT + 1;
     7285    41385    3                CALL CHARBIN (O1COM.REPORT_DD$ -> LX_REPORT_REC.COLUMN_NO#,
     7286    41386    3                              ADDR(O1COM.LX_STK(O1COM.LX_TOP)) -> LX_ITEM.DNT$ -> DNT.
             41386                                       TEXT.NAME);
     7287    41387    3              END;
     7288    41388
     7289    41389    2      CASE(%ACT_REPORT_VALUE);
     7290    41390    2          CALL CHECK_AND_SAVE_ITEM (ADDR(O1COM.LX_STK(O1COM.LX_TOP)),
     7291    41391    2                                    O1COM.REPORT_DD$ -> LX_REPORT_REC.P.VALUE$,
     7292    41392    2                                    %RSV_WRD_VALUE)
     7293    41393    2            WHENRETURN
     7294    41394    3              DO;
     7295    41395    3                O1COM.REPORT_DD$ -> LX_REPORT_REC.CLAUSE_COUNT =
     7296    41396    3                  O1COM.REPORT_DD$ -> LX_REPORT_REC.CLAUSE_COUNT + 1;
     7297    41397    3              END;
     7298    41398
     7299    41399    2      CASE(%ACT_INIT_SOURCE_CLAUSE);
     7300    41400
     7301    41401    2      CASE(%ACT_SOURCE_CLAUSE);
PL6.E3A0      #001=Z8EM$SEMANTICS_DATA_DIV File=Z8EM.:Z8A6TSI                    SAT 08/09/97 12:08 Page:252
     7302    41402    2            IF O1COM.REPORT_DD$ -> LX_REPORT_REC.P.SOURCE$ ~= ADDR(NIL) THEN
     7303    41403    3              DO;
     7304    41404    3                CALL Z8AE$ERROR ( %E$DUP_DD_CLAUSE,
     7305    41405    3                                  ADDR(O1COM.LX_STK(O1COM.LX_TOP - 3)) -> LX_TERMINAL.
             41405                                           LINE,
     7306    41406    3                                  ADDR(O1COM.LX_STK(O1COM.LX_TOP - 3)) -> LX_TERMINAL.
             41406                                           COLUMN,
     7307    41407    3                                  ADDR(O1COM.LX_STK(O1COM.LX_TOP - 3)) -> LX_TERMINAL.
             41407                                           DNT$);
     7308    41408    3                CALL Z8ED$DISPOSE_ABSSYN_TREE(ADDR(O1COM.LX_STK(O1COM.LX_TOP)) ->
             41408                         LX_LARGE.LARGE_ITEM$);
     7309    41409    3              END;
     7310    41410    2            ELSE
     7311    41411    3            DO;
     7312    41412    3              IF COMCOM.OB.FIPS.RPW THEN
     7313    41413    3                CALL Z8AE$ERROR (%E$LEVEL_CHECK,
     7314    41414    3                                 O1COM.LX_STK.LINE(O1COM.LX_TOP - 3),
     7315    41415    3                                 O1COM.LX_STK.COLUMN(O1COM.LX_TOP - 3));
     7316    41416                   %NEW_COPY_LX_STK (@POINTER = HEAP$,
     7317    41417                                     @FROM    = "O1COM.LX_TOP");
     7318    41428    3              O1COM.REPORT_DD$ -> LX_REPORT_REC.P.SOURCE$ = HEAP$;
     7319    41429    3              O1COM.REPORT_DD$ -> LX_REPORT_REC.CLAUSE_COUNT =
     7320    41430    3                O1COM.REPORT_DD$ -> LX_REPORT_REC.CLAUSE_COUNT + 1;
     7321    41431    3            END;
     7322    41432
     7323    41433    2      CASE(%ACT_SUM_CLAUSE_START);
     7324    41434
     7325    41435    2           IF O1COM.REPORT_DD$ -> LX_REPORT_REC.P.SUM$ = ADDR(NIL) THEN
     7326    41436    3             DO;
     7327    41437                    %NEW_HEAP (@POINTER = O1COM.REPORT_DD$ -> LX_REPORT_REC.P.SUM$,
     7328    41438                               @SIZE = %LENGTH_LX_ITEM);
     7329    41443                    %INIT_LX_LIST (@POINTER = O1COM.REPORT_DD$ -> LX_REPORT_REC.P.SUM$);
     7330    41453    3             END;
     7331    41454
     7332    41455                %NEW_HEAP (@POINTER  = HEAP$,
     7333    41456                           @SIZE     = %LENGTH_LX_ITEM);
     7334    41461                %INIT_DEFERED_SUM_CLAUSE (@POINTER = HEAP$);
PL6.E3A0      #001=Z8EM$SEMANTICS_DATA_DIV File=Z8EM.:Z8A6TSI                    SAT 08/09/97 12:08 Page:253
     7335    41476                %ADD_LX_ITEM_TO_LIST_TAIL (@LIST$ = O1COM.REPORT_DD$ -> LX_REPORT_REC.P.SUM$
             41476                    ,
     7336    41477                                           @FROM$ = HEAP$);
     7337    41493
     7338    41494
     7339    41495    2      CASE(%ACT_SUM_CLAUSE);
     7340    41496                %NEW_COPY_LX_STK (@POINTER = HEAP$,
     7341    41497                                  @FROM    = "O1COM.LX_TOP");
     7342    41508    2           O1COM.REPORT_DD$ -> LX_REPORT_REC.P.SUM$ -> LX_LIST.TAIL$
     7343    41509    2             -> DEFERED_SUM_CLAUSE.DEFERED_ID$ = HEAP$;
     7344    41510
     7345    41511    2     CASE(%ACT_SUM_UPON);
     7346    41512               %NEW_COPY_LX_STK (@FROM = O1COM.LX_TOP, @POINTER = HEAP$);
     7347    41523    2          O1COM.REPORT_DD$ -> LX_REPORT_REC.P.SUM$ -> LX_LIST.TAIL$
     7348    41524    2            -> DEFERED_SUM_CLAUSE.SUM_UPON$ = HEAP$;
     7349    41525
     7350    41526
     7351    41527    2      CASE(%ACT_SUM_CLAUSE_END);
     7352    41528    2      CASE(%ACT_REPORT_GROUP_INDICATE);
     7353    41529    2          CALL CHECK_AND_SAVE_ITEM (ADDR(O1COM.LX_STK(O1COM.LX_TOP - 1)),
     7354    41530    2                                    O1COM.REPORT_DD$ -> LX_REPORT_REC.P.GROUP_INDICATE$
             41530                                             ,
     7355    41531    2                                    %RSV_WRD_GROUP)
     7356    41532    2            WHENRETURN
     7357    41533    3              DO;
     7358    41534    3                O1COM.REPORT_DD$ -> LX_REPORT_REC.CLAUSE_COUNT =
     7359    41535    3                  O1COM.REPORT_DD$ -> LX_REPORT_REC.CLAUSE_COUNT + 1;
     7360    41536    3              END;
     7361    41537
     7362    41538    2      CASE(%ACT_REPORT_LINE_INT);
     7363    41539    2          CALL CHECK_AND_SAVE_ITEM (ADDR(O1COM.LX_STK(O1COM.LX_TOP)),
     7364    41540    2                                    O1COM.REPORT_DD$ -> LX_REPORT_REC.P.LINE_NUMBER$,
     7365    41541    2                                    %RSV_WRD_LINE)
     7366    41542    2            WHENRETURN
     7367    41543    3              DO;
     7368    41544    3                IF COMCOM.OB.FIPS.RPW THEN
     7369    41545    3                  CALL Z8AE$ERROR (%E$LEVEL_CHECK,
PL6.E3A0      #001=Z8EM$SEMANTICS_DATA_DIV File=Z8EM.:Z8A6TSI                    SAT 08/09/97 12:08 Page:254
     7370    41546    3                                   O1COM.LX_STK.LINE(O1COM.LX_TOP - 3),
     7371    41547    3                                   O1COM.LX_STK.COLUMN(O1COM.LX_TOP - 3));
     7372    41548    3                O1COM.REPORT_DD$ -> LX_REPORT_REC.D.LINE_TYPE = %REPORT_LINE_INT;
     7373    41549    3                O1COM.REPORT_DD$ -> LX_REPORT_REC.CLAUSE_COUNT =
     7374    41550    3                  O1COM.REPORT_DD$ -> LX_REPORT_REC.CLAUSE_COUNT + 1;
     7375    41551    3                CALL CHARBIN (O1COM.REPORT_DD$ -> LX_REPORT_REC.LINE_NO#,
     7376    41552    3                              ADDR(O1COM.LX_STK(O1COM.LX_TOP)) -> LX_ITEM.DNT$ -> DNT.
             41552                                       TEXT.NAME);
     7377    41553    3              END;
     7378    41554    2            WHENALTRETURN
     7379    41555    3              DO;
     7380    41556    3                ADDR(O1COM.LX_STK(O1COM.LX_TOP - 3)) -> LX_ITEM.B.ERROR = TRUE;
     7381    41557    3              END;
     7382    41558
     7383    41559    2              ADDR(O1COM.LX_STK(O1COM.LX_TOP - 3)) -> LX_ITEM.ID = %PRE_NEXT_PAGE;
     7384    41560
     7385    41561    2      CASE(%ACT_REPORT_LINE_NEXT_PAGE);
     7386    41562    2          CALL CHECK_AND_SAVE_ITEM (ADDR(O1COM.LX_STK(O1COM.LX_TOP - 2)),
     7387    41563    2                                    O1COM.REPORT_DD$ -> LX_REPORT_REC.P.LINE_NUMBER$,
     7388    41564    2                                    %RSV_WRD_LINE)
     7389    41565    2            WHENRETURN
     7390    41566    3              DO;
     7391    41567    3                IF COMCOM.OB.FIPS.RPW THEN
     7392    41568    3                  CALL Z8AE$ERROR (%E$LEVEL_CHECK,
     7393    41569    3                                   O1COM.LX_STK.LINE(O1COM.LX_TOP - 5),
     7394    41570    3                                   O1COM.LX_STK.COLUMN(O1COM.LX_TOP - 5));
     7395    41571    3                O1COM.REPORT_DD$ -> LX_REPORT_REC.D.LINE_TYPE = %REPORT_LINE_NEXT_PAGE;
     7396    41572    3                O1COM.REPORT_DD$ -> LX_REPORT_REC.CLAUSE_COUNT =
     7397    41573    3                  O1COM.REPORT_DD$ -> LX_REPORT_REC.CLAUSE_COUNT + 1;
     7398    41574    3                CALL CHARBIN (O1COM.REPORT_DD$ -> LX_REPORT_REC.LINE_NO#,
     7399    41575    3                              ADDR(O1COM.LX_STK(O1COM.LX_TOP - 2)) -> LX_ITEM.DNT$ ->
             41575                                       DNT.TEXT.NAME);
     7400    41576    3              END;
     7401    41577
     7402    41578    2      CASE(%ACT_REPORT_LINE_PLUS);
     7403    41579    2          CALL CHECK_AND_SAVE_ITEM (ADDR(O1COM.LX_STK(O1COM.LX_TOP)),
     7404    41580    2                                    O1COM.REPORT_DD$ -> LX_REPORT_REC.P.LINE_NUMBER$,
PL6.E3A0      #001=Z8EM$SEMANTICS_DATA_DIV File=Z8EM.:Z8A6TSI                    SAT 08/09/97 12:08 Page:255
     7405    41581    2                                    %RSV_WRD_LINE)
     7406    41582    2            WHENRETURN
     7407    41583    3              DO;
     7408    41584    3                IF COMCOM.OB.FIPS.RPW THEN
     7409    41585    3                  CALL Z8AE$ERROR (%E$LEVEL_CHECK,
     7410    41586    3                                   O1COM.LX_STK.LINE(O1COM.LX_TOP - 4),
     7411    41587    3                                   O1COM.LX_STK.COLUMN(O1COM.LX_TOP - 4));
     7412    41588    3                O1COM.REPORT_DD$ -> LX_REPORT_REC.D.LINE_TYPE = %REPORT_LINE_PLUS;
     7413    41589    3                O1COM.REPORT_DD$ -> LX_REPORT_REC.CLAUSE_COUNT =
     7414    41590    3                  O1COM.REPORT_DD$ -> LX_REPORT_REC.CLAUSE_COUNT + 1;
     7415    41591    3                CALL CHARBIN (O1COM.REPORT_DD$ -> LX_REPORT_REC.LINE_NO#,
     7416    41592    3                              ADDR(O1COM.LX_STK(O1COM.LX_TOP)) -> LX_ITEM.DNT$ -> DNT.
             41592                                       TEXT.NAME);
     7417    41593    3              END;
     7418    41594
     7419    41595    2      CASE(%ACT_ERROR_NEXT_PAGE);
     7420    41596    2          IF ADDR(O1COM.LX_STK(O1COM.LX_TOP - 1)) -> LX_ITEM.ID = %PRE_NEXT_PAGE THEN
     7421    41597    3            DO;
     7422    41598    3              IF NOT ADDR(O1COM.LX_STK(O1COM.LX_TOP - 1)) -> LX_ITEM.B.ERROR THEN
     7423    41599    3                O1COM.REPORT_DD$ -> LX_REPORT_REC.D.LINE_TYPE = %REPORT_LINE_NEXT_PAGE;
     7424    41600    3            END;
     7425    41601    2          ELSE
     7426    41602    3            DO;  /* Wrong NEXT PAGE clause here */
     7427    41603                   %CONDITIONAL_ERROR (@LX_ITEM$   = "ADDR(O1COM.LX_STK(O1COM.LX_TOP))",
     7428    41604                                       @ERROR#     = %E$ERR_NEXT_PAGE,
     7429    41605                                       @LINE       =
             41605                                          "ADDR(O1COM.LX_STK(O1COM.LX_TOP)) -> LX_ITEM.LINE"
             41605                                           ,
     7430    41606                                       @COLUMN     =
             41606                                        "ADDR(O1COM.LX_STK(O1COM.LX_TOP)) -> LX_ITEM.COLUMN"
             41606                                           );
     7431    41636    3            END;
     7432    41637
     7433    41638    2      CASE(%ACT_TYPE_REPORT_HEADING);
     7434    41639               %SAVE_REPORT_TYPE (@REPORT_TYPE = %REPORT_HEADING);
     7435    41652
     7436    41653    2      CASE(%ACT_TYPE_PAGE_HEADING);
PL6.E3A0      #001=Z8EM$SEMANTICS_DATA_DIV File=Z8EM.:Z8A6TSI                    SAT 08/09/97 12:08 Page:256
     7437    41654               %SAVE_REPORT_TYPE (@REPORT_TYPE = %PAGE_HEADING);
     7438    41667
     7439    41668    2      CASE(%ACT_CONTROL_HEADING);
     7440    41669               %SAVE_REPORT_TYPE (@REPORT_TYPE = %CONTROL_HEADING);
     7441    41682
     7442    41683    2      CASE(%ACT_CONTROL_HEADING_FINAL);
     7443    41684               %SAVE_REPORT_TYPE (@REPORT_TYPE = %CONTROL_HEADING_FINAL);
     7444    41697
     7445    41698    2      CASE(%ACT_TYPE_DETAIL);
     7446    41699               %SAVE_REPORT_TYPE (@REPORT_TYPE = %TYPE_DETAIL);
     7447    41712
     7448    41713    2      CASE(%ACT_CONTROL_FOOTING);
     7449    41714               %SAVE_REPORT_TYPE (@REPORT_TYPE = %CONTROL_FOOTING);
     7450    41727
     7451    41728    2      CASE(%ACT_CONTROL_FOOTING_FINAL);
     7452    41729               %SAVE_REPORT_TYPE (@REPORT_TYPE = %CONTROL_FOOTING_FINAL);
     7453    41742
     7454    41743    2      CASE(%ACT_TYPE_PAGE_FOOTING);
     7455    41744               %SAVE_REPORT_TYPE (@REPORT_TYPE = %PAGE_FOOTING);
     7456    41757
     7457    41758    2      CASE(%ACT_TYPE_REPORT_FOOTING);
     7458    41759               %SAVE_REPORT_TYPE (@REPORT_TYPE = %REPORT_FOOTING);
     7459    41772
     7460    41773    2      CASE(%ACT_SUM_RESET);
     7461    41774               %NEW_COPY_LX_STK (@FROM = O1COM.LX_TOP, @POINTER = HEAP$);
     7462    41785    2          O1COM.REPORT_DD$ -> LX_REPORT_REC.P.SUM$ -> LX_LIST.TAIL$
     7463    41786    2            -> DEFERED_SUM_CLAUSE.SUM_RESET$ = HEAP$;
     7464    41787    2          O1COM.REPORT_DD$ -> LX_REPORT_REC.P.SUM$ -> LX_LIST.TAIL$
     7465    41788    2            -> DEFERED_SUM_CLAUSE.B.RESET_ID = TRUE;
     7466    41789
     7467    41790    2      CASE(%ACT_SUM_RESET_FINAL);
     7468    41791               %NEW_COPY_LX_STK (@FROM = O1COM.LX_TOP, @POINTER = HEAP$);
     7469    41802    2          O1COM.REPORT_DD$ -> LX_REPORT_REC.P.SUM$ -> LX_LIST.TAIL$
     7470    41803    2            -> DEFERED_SUM_CLAUSE.SUM_RESET$ = HEAP$;
     7471    41804    2          O1COM.REPORT_DD$ -> LX_REPORT_REC.P.SUM$ -> LX_LIST.TAIL$
     7472    41805    2            -> DEFERED_SUM_CLAUSE.B.RESET_FINAL = TRUE;
     7473    41806
PL6.E3A0      #001=Z8EM$SEMANTICS_DATA_DIV File=Z8EM.:Z8A6TSI                    SAT 08/09/97 12:08 Page:257
     7474    41807                       /* Arithmetic expression                     */
     7475    41808
     7476    41809    2      CASE(%ACT_PLUS_OP);
     7477    41810              /* <ARITH_EXPR> + <TERM> */
     7478    41811               %ARITH_EXPR_BINARY_OPERATION(@OP = %OP_PLUS) ;
     7479    41873
     7480    41874    2      CASE(%ACT_MINUS_OP);
     7481    41875              /* <ARITH_EXPR> - <TERM> */
     7482    41876               %ARITH_EXPR_BINARY_OPERATION(@OP = %OP_BINARY_MINUS) ;
     7483    41938
     7484    41939    2      CASE(%ACT_MULT_OP);
     7485    41940              /* <TERM> * <PWR> */
     7486    41941               %ARITH_EXPR_BINARY_OPERATION(@OP = %OP_STAR) ;
     7487    42003
     7488    42004    2      CASE(%ACT_DIV_OP);
     7489    42005              /* <TERM> / <PWR> */
     7490    42006               %ARITH_EXPR_BINARY_OPERATION(@OP = %OP_SLASH) ;
     7491    42068
     7492    42069
     7493    42070    2      CASE(%ACT_EXP_OP);
     7494    42071              /* <PWR> '**' <UNARY> */
     7495    42072               %ARITH_EXPR_BINARY_OPERATION(@OP = %OP_STAR_STAR) ;
     7496    42134
     7497    42135    2      CASE(%ACT_PAREN_EXPR);
     7498    42136              /* ( EXPR ) */
     7499    42137            %INIT_UNARY_OP (@POINTER = "ADDR(TEMP_LX_NODE)",
     7500    42138                            @LINE = "O1COM.LX_STK.LINE(O1COM.LX_TOP - 2)",
     7501    42139                            @COLUMN = "O1COM.LX_STK.COLUMN(O1COM.LX_TOP - 2)",
     7502    42140                            @OP = %OP_PAREN);
     7503    42157            %PROP_ERR_TEMP_LX_NODE;
     7504    42165            %NEW_COPY_LX_STK(@FROM= "O1COM.LX_TOP - 1",
     7505    42166                             @POINTER = "ADDR(TEMP_LX_NODE) -> UNARY_OP.LOP$");
     7506    42177            %PROPAGATE_TEMP_LX_NODE;
     7507    42182
     7508    42183        %EJECT ;
PL6.E3A0      #001=Z8EM$SEMANTICS_DATA_DIV File=Z8EM.:Z8A6TSI                    SAT 08/09/97 12:08 Page:258
     7509    42184                   /*        UNARY PLUS AND MINUS                      */
     7510    42185
     7511    42186    2      CASE(%ACT_PLUS_FACTOR);
     7512    42187              /* + <FACTOR> */
     7513    42188               %PROPAGATE (@FROM = O1COM.LX_TOP);
     7514    42193
     7515    42194
     7516    42195    2      CASE(%ACT_MINUS_FACTOR);
     7517    42196              /* - <FACTOR> */
     7518    42197               %ARITH_EXPR_UNARY_OPERATION (@OP = %OP_UNARY_MINUS);
     7519    42246
     7520    42247        %EJECT ;
PL6.E3A0      #001=Z8EM$SEMANTICS_DATA_DIV File=Z8EM.:Z8A6TSI                    SAT 08/09/97 12:08 Page:259
     7521    42248    2      CASE(%ACT_ID);
     7522    42249               %NEW_COPY_ID_TREE (@QUAL_ID$ = "O1COM.LX_TOP",
     7523    42250                                  @ACTION#  = %REP_ACT_ID);
     7524    42312
     7525    42313    2      CASE(%ACT_ID_REF);
     7526    42314                %NEW_COPY_ID_TREE (@QUAL_ID$ = "O1COM.LX_TOP - 1",
     7527    42315                                   @REF$     = "O1COM.LX_TOP",
     7528    42316                                   @ACTION#  = %REP_ACT_ID_REF);
     7529    42388    2      CASE(%ACT_ID_SUB);
     7530    42389                %NEW_COPY_ID_TREE (@QUAL_ID$ = "O1COM.LX_TOP - 1",
     7531    42390                                   @SUB$     = "O1COM.LX_TOP",
     7532    42391                                   @ACTION#  = %REP_ACT_ID_SUB);
     7533    42463    2      CASE(%ACT_ID_SUB_REF);
     7534    42464                %NEW_COPY_ID_TREE (@QUAL_ID$ = "O1COM.LX_TOP - 2",
     7535    42465                                   @SUB$     = "O1COM.LX_TOP - 1",
     7536    42466                                   @REF$     = "O1COM.LX_TOP",
     7537    42467                                   @ACTION#  = %REP_ACT_ID_SUB_REF);
     7538    42549    2      CASE(%ACT_FIRST_ID_LIST);
     7539    42550
     7540    42551            /* Create a linked list of 1 element at LX_TOP */
     7541    42552               %INIT_LX_LIST (@POINTER = "ADDR(TEMP_LX_NODE)");
     7542    42562               %ADD_LX_STK_TO_LIST_HEAD (@LIST$ = "ADDR(TEMP_LX_NODE)",
     7543    42563                                         @FROM  = O1COM.LX_TOP);
     7544    42588               %PROPAGATE_TEMP_LX_NODE;
     7545    42593
     7546    42594
     7547    42595    2      CASE(%ACT_APPEND_ID_LIST);
     7548    42596
     7549    42597            /* Add LX_STK(LX_TOP) to tail of list at LX_STK(LX_TOP - 1) */
     7550    42598               %ADD_LX_STK_TO_LIST_TAIL (@LIST$ = "ADDR(O1COM.LX_STK(O1COM.LX_TOP - 1))",
     7551    42599                                         @FROM  = O1COM.LX_TOP);
     7552    42631    2          IF O1COM.LX_STK.B.ERROR(O1COM.LX_TOP) THEN
     7553    42632    2            O1COM.LX_STK.B.ERROR(O1COM.LX_TOP - 1) = TRUE;
     7554    42633
     7555    42634    2      CASE(%ACT_SUBSCRIPT);
     7556    42635
     7557    42636               %PROPAGATE (@FROM = "O1COM.LX_TOP - 1");
PL6.E3A0      #001=Z8EM$SEMANTICS_DATA_DIV File=Z8EM.:Z8A6TSI                    SAT 08/09/97 12:08 Page:260
     7558    42641
     7559    42642    2      CASE(%ACT_SUB_LIST);
     7560    42643
     7561    42644            /* Create a linked list of 1 element at LX_TOP */
     7562    42645               %INIT_LX_LIST (@POINTER = "ADDR(TEMP_LX_NODE)");
     7563    42655               %ADD_LX_STK_TO_LIST_HEAD (@LIST$ = "ADDR(TEMP_LX_NODE)",
     7564    42656                                         @FROM  = O1COM.LX_TOP);
     7565    42681               %PROPAGATE_TEMP_LX_NODE;
     7566    42686
     7567    42687
     7568    42688    2      CASE(%ACT_APPEND_SUB_LIST);
     7569    42689
     7570    42690            /* Add LX_STK(LX_TOP) to tail of list at LX_STK(LX_TOP - 1) */
     7571    42691               %ADD_LX_STK_TO_LIST_TAIL (@LIST$ = "ADDR(O1COM.LX_STK(O1COM.LX_TOP - 1))",
     7572    42692                                         @FROM  = O1COM.LX_TOP);
     7573    42724    2          IF O1COM.LX_STK.B.ERROR(O1COM.LX_TOP) THEN
     7574    42725    2            O1COM.LX_STK.B.ERROR(O1COM.LX_TOP - 1) = TRUE;
     7575    42726
     7576    42727    2     CASE(%ACT_REF_MOD_W_LENGTH);
     7577    42728               %INIT_LX_LIST (@POINTER = "ADDR(TEMP_LX_NODE)");
     7578    42738                %PROP_ERR_TEMP_LX_NODE;
     7579    42746               %ADD_LX_STK_TO_LIST_HEAD (@LIST$ = "ADDR(TEMP_LX_NODE)",
     7580    42747                                         @FROM = O1COM.LX_TOP - 1);
     7581    42772               %ADD_LX_STK_TO_LIST_HEAD (@LIST$ = "ADDR(TEMP_LX_NODE)",
     7582    42773                                         @FROM = "O1COM.LX_TOP - 3");
     7583    42798               %PROPAGATE_TEMP_LX_NODE;
     7584    42803
     7585    42804    2     CASE(%ACT_REF_MOD_O_LENGTH);
     7586    42805               %INIT_LX_LIST (@POINTER = "ADDR(TEMP_LX_NODE)");
     7587    42815               %PROP_ERR_TEMP_LX_NODE;
     7588    42823               %ADD_LX_STK_TO_LIST_HEAD (@LIST$ = "ADDR(TEMP_LX_NODE)",
     7589    42824                                         @FROM = "O1COM.LX_TOP - 2");
     7590    42849               %PROPAGATE_TEMP_LX_NODE;
     7591    42854
     7592    42855        %EJECT;
PL6.E3A0      #001=Z8EM$SEMANTICS_DATA_DIV File=Z8EM.:Z8A6TSI                    SAT 08/09/97 12:08 Page:261
     7593    42856        /*
     7594    42857                               Sub-Schema Section
     7595    42858        */
     7596    42859    2     CASE(%ACT_CREATE_UWA);
     7597    42860
     7598    42861    2          CALL Z8DM$DML_UWA ( ADDR(O1COM.LX_STK(O1COM.LX_TOP - 1)),
     7599    42862    2                              ADDR(O1COM.LX_STK(O1COM.LX_TOP - 2)),
     7600    42863    2                              ADDR(O1COM.LX_STK(O1COM.LX_TOP - 4)),
     7601    42864    2                              ADDR(O1COM.LX_STK(O1COM.LX_TOP)));
     7602    42865
     7603    42866    2      CASE(%ACT_PRIVACY);
     7604    42867
     7605    42868               %PROPAGATE;
     7606    42873
     7607    42874        %EJECT;
PL6.E3A0      #001=Z8EM$SEMANTICS_DATA_DIV File=Z8EM.:Z8A6TSI                    SAT 08/09/97 12:08 Page:262
     7608    42875        /*
     7609    42876                               Record declarations
     7610    42877        */
     7611    42878    2     CASE(%ACT_FILLER_CLAUSE);
     7612    42879               /* Pass =empty= up as FILLER */
     7613    42880    2          IF O1COM.LX_STK.SYMBOL(O1COM.LX_TOP) = %EMPTY THEN
     7614    42881    3            DO;
     7615    42882    3              O1COM.LX_STK.DNT$(O1COM.LX_TOP) = DNT$_FROM_RSWNO(%RSV_WRD_FILLER);
     7616    42883    3              O1COM.LX_STK.SYMBOL(O1COM.LX_TOP) = %RSV_WRD_FILLER;
     7617    42884    3            END;
     7618    42885
     7619    42886    2     CASE(%ACT_DECL_RESERVED_WORD);
     7620    42887               /* Set flag so LEX will change reserved word to data name */
     7621    42888    2          O1COM.RECORD_DCL = TRUE;
     7622    42889
     7623    42890    2     CASE(%ACT_DD_CLAUSE_REDEFINES);
     7624    42891
     7625    42892               %CREATE_DD_CLAUSE (@POINTER = REDEFINES$,
     7626    42893                                  @FIELD_NO = %REC_DECL_REDEFINES);
     7627    42947
     7628    42948    2     CASE(%ACT_DD_CLAUSE_EXTERNAL);
     7629    42949
     7630    42950               %CREATE_DD_CLAUSE (@POINTER = EXTERNAL$,
     7631    42951                                  @FIELD_NO = %REC_DECL_EXTERNAL);
     7632    43005
     7633    43006    2     CASE(%ACT_DD_CLAUSE_GLOBAL);
     7634    43007
     7635    43008               %CREATE_DD_CLAUSE (@POINTER = GLOBAL$,
     7636    43009                                  @FIELD_NO = %REC_DECL_GLOBAL);
     7637    43063
     7638    43064    2     CASE(%ACT_DD_CLAUSE_PICTURE);
     7639    43065
     7640    43066               %CREATE_DD_CLAUSE (@POINTER = PIC_CLAUSE$,
     7641    43067                                  @FIELD_NO = %REC_DECL_PIC_CLAUSE);
     7642    43121
     7643    43122
     7644    43123    2     CASE(%ACT_DD_CLAUSE_USAGE);
PL6.E3A0      #001=Z8EM$SEMANTICS_DATA_DIV File=Z8EM.:Z8A6TSI                    SAT 08/09/97 12:08 Page:263
     7645    43124
     7646    43125               %CREATE_DD_CLAUSE (@POINTER = USAGE$,
     7647    43126                                  @FIELD_NO = %REC_DECL_USAGE);
     7648    43180
     7649    43181    2     CASE(%ACT_DD_CLAUSE_SYNC);
     7650    43182
     7651    43183               %CREATE_DD_CLAUSE (@POINTER = SYNC$,
     7652    43184                                  @FIELD_NO = %REC_DECL_SYNC);
     7653    43238
     7654    43239    2     CASE(%ACT_DD_CLAUSE_JUSTIFIED);
     7655    43240
     7656    43241               %CREATE_DD_CLAUSE (@POINTER = JUSTIFIED$,
     7657    43242                                  @FIELD_NO = %REC_DECL_JUSTIFIED);
     7658    43296
     7659    43297    2     CASE(%ACT_DD_CLAUSE_BLANK);
     7660    43298
     7661    43299               %CREATE_DD_CLAUSE (@POINTER = BLANK$,
     7662    43300                                  @FIELD_NO = %REC_DECL_BLANK);
     7663    43354
     7664    43355    2     CASE (%ACT_DD_CLAUSE_RENAMES);
     7665    43356
     7666    43357               %CREATE_DD_CLAUSE (@POINTER = RENAMES$,
     7667    43358                                  @FIELD_NO = %REC_DECL_RENAMES);
     7668    43412
     7669    43413    2     CASE(%ACT_DD_CLAUSE_SIGN);
     7670    43414
     7671    43415               %CREATE_DD_CLAUSE (@POINTER = SIGN$,
     7672    43416                                  @FIELD_NO = %REC_DECL_SIGN);
     7673    43470
     7674    43471    2     CASE(%ACT_DD_CLAUSE_VALUE);
     7675    43472
     7676    43473    2          IF COMCOM.OB.FIPS.LEVEL >= %INT_LEV AND
     7677    43474    2            (ADDR(O1COM.LX_STK(O1COM.LX_TOP)) -> LX_LIST.HEAD$ -> LX_LIST.HEAD$
     7678    43475    2                 -> LX_TERMINAL.B.HIGH_LEV OR
     7679    43476    2             ADDR(O1COM.LX_STK(O1COM.LX_TOP)) -> LX_LIST.HEAD$ -> LX_LIST.HEAD$
     7680    43477    2                 -> LX_TERMINAL.B.ALL) THEN
     7681    43478    2              CALL Z8AE$ERROR (%E$LEVEL_CHECK,
PL6.E3A0      #001=Z8EM$SEMANTICS_DATA_DIV File=Z8EM.:Z8A6TSI                    SAT 08/09/97 12:08 Page:264
     7682    43479    2                               O1COM.LX_STK.LINE(O1COM.LX_TOP - 1),
     7683    43480    2                               O1COM.LX_STK.COLUMN(O1COM.LX_TOP - 1));
     7684    43481
     7685    43482               %CREATE_DD_CLAUSE (@POINTER = VALUE$,
     7686    43483                                  @FIELD_NO = %REC_DECL_VALUE);
     7687    43537
     7688    43538    2     CASE(%ACT_DD_CLAUSE_INDEX);
     7689    43539
     7690    43540               %CREATE_DD_CLAUSE (@POINTER = INDEXED$,
     7691    43541                                  @FIELD_NO = %REC_DECL_INDEXED);
     7692    43595
     7693    43596    2     CASE(%ACT_DD_CLAUSE_KEY);
     7694    43597
     7695    43598    2          IF COMCOM.OB.FIPS.LEVEL >= %INT_LEV THEN
     7696    43599    2            IF ADDR(O1COM.LX_STK(O1COM.LX_TOP - 1)) -> LX_LARGE.LARGE_ITEM$ ->
     7697    43600    2                LX_REC_DECL.P.KEY$ = ADDR(NIL) /* First KEY */ AND
     7698    43601    2               ADDR(O1COM.LX_STK(O1COM.LX_TOP - 1)) -> LX_LARGE.LARGE_ITEM$ ->
     7699    43602    2                LX_REC_DECL.P.OCCURS$ -> LX_LIST.HEAD$ -> LX_LIST.LINK = ADDR(NIL) THEN
     7700    43603                  /* No DEPENDING phrase */
     7701    43604    2             CALL Z8AE$ERROR (%E$LEVEL_CHECK,
     7702    43605    2                              OCCURS_LINE,
     7703    43606    2                              OCCURS_COLUMN);
     7704    43607            /* Create a list of <OCCURS_KEY_clauses> */
     7705    43608               %INIT_LX_LIST(@POINTER = "ADDR(TEMP_LX_NODE)");
     7706    43618               %ADD_LX_STK_TO_LIST_HEAD (@LIST$ = "ADDR(TEMP_LX_NODE)",
     7707    43619                                         @FROM  = O1COM.LX_TOP);
     7708    43644               %PROPAGATE_TEMP_LX_NODE;
     7709    43649
     7710    43650               %CREATE_DD_CLAUSE (@POINTER = KEY$,
     7711    43651                                 @FIELD_NO = %REC_DECL_KEY);
     7712    43705
     7713    43706
     7714    43707    2     CASE(%ACT_OCCURS_KEY);
     7715    43708
     7716    43709            /* Create a list of 2 nodes:
     7717    43710                  node 1) LX_TERMINAL (ASC/DES)
     7718    43711                  node 2) <qualified_id_list>
PL6.E3A0      #001=Z8EM$SEMANTICS_DATA_DIV File=Z8EM.:Z8A6TSI                    SAT 08/09/97 12:08 Page:265
     7719    43712            */
     7720    43713               %INIT_LX_LIST (@POINTER = "ADDR(TEMP_LX_NODE)");
     7721    43723               %ADD_LX_STK_TO_LIST_HEAD (@LIST$ = "ADDR(TEMP_LX_NODE)",
     7722    43724                                         @FROM = O1COM.LX_TOP);
     7723    43749               %ADD_LX_STK_TO_LIST_HEAD (@LIST$ = "ADDR(TEMP_LX_NODE)",
     7724    43750                                         @FROM = "O1COM.LX_TOP - 3");
     7725    43775               %PROP_ERR_TEMP_LX_NODE;
     7726    43783               %PROPAGATE_TEMP_LX_NODE;
     7727    43788
     7728    43789    2     CASE(%ACT_RENAMES_THRU_CLAUSE);
     7729    43790
     7730    43791            /* Create a linked list of 2 elements, both <qualified_id> */
     7731    43792               %INIT_LX_LIST (@POINTER = "ADDR(TEMP_LX_NODE)");
     7732    43802               %ADD_LX_STK_TO_LIST_HEAD (@LIST$ = "ADDR(TEMP_LX_NODE)",
     7733    43803                                         @FROM  = O1COM.LX_TOP);
     7734    43828               %ADD_LX_STK_TO_LIST_HEAD (@LIST$ = "ADDR(TEMP_LX_NODE)",
     7735    43829                                         @FROM  = "O1COM.LX_TOP - 2");
     7736    43854               %PROP_ERR_TEMP_LX_NODE;
     7737    43862               %PROPAGATE_TEMP_LX_NODE;
     7738    43867
     7739    43868    2     CASE(%ACT_SIGN_CLAUSE);
     7740    43869
     7741    43870            /* Create a linked list of 2 elements
     7742    43871                   node 1) LX_TERMINAL ( LEADING/TRAILING)
     7743    43872                   node 2) LX_TERMINAL ( SEPARATE, EMPTY)
     7744    43873            */
     7745    43874               %INIT_LX_LIST (@POINTER = "ADDR(TEMP_LX_NODE)");
     7746    43884               %ADD_LX_STK_TO_LIST_HEAD (@LIST$ = "ADDR(TEMP_LX_NODE)",
     7747    43885                                         @FROM  = O1COM.LX_TOP);
     7748    43910               %ADD_LX_STK_TO_LIST_HEAD (@LIST$ = "ADDR(TEMP_LX_NODE)",
     7749    43911                                         @FROM  = "O1COM.LX_TOP - 1");
     7750    43936               %PROP_ERR_TEMP_LX_NODE;
     7751    43944               %PROPAGATE_TEMP_LX_NODE;
     7752    43949
     7753    43950    2     CASE(%ACT_TWO_LITERAL_LIST);
     7754    43951
     7755    43952            /* Create a linked list of 2 elements, literal thru literal */
PL6.E3A0      #001=Z8EM$SEMANTICS_DATA_DIV File=Z8EM.:Z8A6TSI                    SAT 08/09/97 12:08 Page:266
     7756    43953               %INIT_LX_LIST (@POINTER="ADDR(TEMP_LX_NODE)");
     7757    43963               %ADD_LX_STK_TO_LIST_HEAD (@LIST$ = "ADDR(TEMP_LX_NODE)",
     7758    43964                                         @FROM  = O1COM.LX_TOP);
     7759    43989               %ADD_LX_STK_TO_LIST_HEAD (@LIST$ = "ADDR(TEMP_LX_NODE)",
     7760    43990                                         @FROM  = "O1COM.LX_TOP - 2");
     7761    44015               %PROP_ERR_TEMP_LX_NODE;
     7762    44023               %PROPAGATE_TEMP_LX_NODE;
     7763    44028
     7764    44029
     7765    44030    2     CASE(%ACT_DD_CLAUSE_OCCURS);
     7766    44031
     7767    44032            /* Create a <DD_clause> with OCCURS$ field;  the OCCURS
     7768    44033               structure is:
     7769    44034                      LX_LIST (1 or 2 nodes)
     7770    44035                         NODE 1) LX_LIST of <integer> (1 or 2)
     7771    44036                         NODE 2, optional) <qualified_id> for depending
     7772    44037            */
     7773    44038    2          OCCURS_LINE = O1COM.LX_STK.LINE(O1COM.LX_TOP - 3);
     7774    44039    2          OCCURS_COLUMN = O1COM.LX_STK.COLUMN(O1COM.LX_TOP - 3);
     7775    44040               %INIT_LX_LIST (@POINTER = "ADDR(TEMP_LX_NODE)");
     7776    44050               %PROP_ERR_TEMP_LX_NODE;
     7777    44058    2          IF O1COM.LX_STK.ID(O1COM.LX_TOP) ~= %LX_TERMINAL  /* EMPTY */ THEN
     7778    44059    3            DO;
     7779    44060    3              IF COMCOM.OB.FIPS.LEVEL >= %INT_LEV THEN
     7780    44061    3                CALL Z8AE$ERROR (%E$LEVEL_CHECK,
     7781    44062    3                                 OCCURS_LINE,
     7782    44063    3                                 OCCURS_COLUMN);
     7783    44064                   %ADD_LX_STK_TO_LIST_HEAD (@LIST$ = "ADDR(TEMP_LX_NODE)",
     7784    44065                                             @FROM  = O1COM.LX_TOP);
     7785    44090    3            END;
     7786    44091               %ADD_LX_STK_TO_LIST_HEAD (@LIST$ = "ADDR(TEMP_LX_NODE)",
     7787    44092                                         @FROM  = "O1COM.LX_TOP - 2");
     7788    44117               %NEW_LX_REC_DECL (@POINTER = HEAP$);
     7789    44138               %NEW_COPY_LX_ITEM (@FROM$ = "ADDR(TEMP_LX_NODE)",
     7790    44139                 @TO$ = "HEAP$ -> LX_REC_DECL.P.OCCURS$");
     7791    44151    2          HEAP$ -> LX_REC_DECL.CURRENT_CLAUSE_COUNT = 1;
     7792    44152    2          HEAP$ -> LX_REC_DECL.CLAUSE_COUNT(%REC_DECL_OCCURS) = 1;
PL6.E3A0      #001=Z8EM$SEMANTICS_DATA_DIV File=Z8EM.:Z8A6TSI                    SAT 08/09/97 12:08 Page:267
     7793    44153               %INIT_LX_LARGE (@POINTER = "ADDR(TEMP_LX_NODE)");
     7794    44160    2          ADDR(TEMP_LX_NODE) -> LX_LARGE.LARGE_ITEM$ = HEAP$;
     7795    44161               %PROPAGATE_TEMP_LX_NODE;
     7796    44166
     7797    44167    2     CASE(%ACT_VERIFY_FIRST_DD_CLAUSE);
     7798    44168
     7799    44169    2          CALL VERIFY_FIRST_DD_CLAUSE
     7800    44170    2              (ADDR(O1COM.LX_STK(O1COM.LX_TOP)) -> LX_LARGE.LARGE_ITEM$);
     7801    44171
     7802    44172    2     CASE(%ACT_APPEND_DD_CLAUSE);
     7803    44173
     7804    44174    2          CALL APPEND_DD_CLAUSES
     7805    44175    2              (ADDR(O1COM.LX_STK(O1COM.LX_TOP - 1)) -> LX_LARGE.LARGE_ITEM$,
     7806    44176    2               ADDR(O1COM.LX_STK(O1COM.LX_TOP)) -> LX_LARGE.LARGE_ITEM$);
     7807    44177    2          CALL Z8ED$DISPOSE_ABSSYN_TREE (ADDR(O1COM.LX_STK(O1COM.LX_TOP)) -> LX_LARGE.
             44177                   LARGE_ITEM$);
     7808    44178
     7809    44179    2     CASE(%ACT_REC_DESC);
     7810    44180
     7811    44181            /* Add the level number & data name to the <DD_clause>
     7812    44182            */
     7813    44183               %NEW_COPY_LX_STK(@POINTER = HEAP$,
     7814    44184                                @FROM = "O1COM.LX_TOP - 2");
     7815    44195    2          ADDR(O1COM.LX_STK(O1COM.LX_TOP - 1)) -> LX_LARGE.LARGE_ITEM$ ->
     7816    44196    2                  LX_REC_DECL.P.DATA_NAME$ = HEAP$;
     7817    44197
     7818    44198    2          CALL LEVEL_CHECK (ADDR(O1COM.LX_STK(O1COM.LX_TOP - 3)),
     7819    44199    2                            ADDR(O1COM.LX_STK(O1COM.LX_TOP - 1)));
     7820    44200               %NEW_COPY_LX_STK(@POINTER = HEAP$,
     7821    44201                                @FROM = "O1COM.LX_TOP - 3");
     7822    44212    2          ADDR(O1COM.LX_STK(O1COM.LX_TOP - 1)) -> LX_LARGE.LARGE_ITEM$ ->
     7823    44213    2                  LX_REC_DECL.P.LEVEL_NO$ = HEAP$;
     7824    44214               %PROPAGATE (@FROM = "O1COM.LX_TOP - 1");
     7825    44219
     7826    44220    2     CASE(%ACT_REC_DESC_NO_DD);
     7827    44221
     7828    44222            /* Create a <DD_clause> with level number & data_name
PL6.E3A0      #001=Z8EM$SEMANTICS_DATA_DIV File=Z8EM.:Z8A6TSI                    SAT 08/09/97 12:08 Page:268
     7829    44223            */
     7830    44224               %INIT_LX_LARGE (@POINTER = "ADDR(TEMP_LX_NODE)");
     7831    44231               %NEW_LX_REC_DECL (@POINTER = HEAP$);
     7832    44252    2          ADDR(TEMP_LX_NODE) -> LX_LARGE.LARGE_ITEM$ = HEAP$;
     7833    44253               %NEW_COPY_LX_STK (@POINTER = HEAP$,
     7834    44254                                 @FROM = "O1COM.LX_TOP - 1");
     7835    44265    2          ADDR(TEMP_LX_NODE) -> LX_LARGE.LARGE_ITEM$
     7836    44266    2              -> LX_REC_DECL.P.DATA_NAME$ = HEAP$;
     7837    44267               %NEW_COPY_LX_STK (@POINTER = HEAP$,
     7838    44268                                 @FROM = "O1COM.LX_TOP - 2");
     7839    44279    2          ADDR(TEMP_LX_NODE) -> LX_LARGE.LARGE_ITEM$
     7840    44280    2              -> LX_REC_DECL.P.LEVEL_NO$ = HEAP$;
     7841    44281               %PROPAGATE_TEMP_LX_NODE;
     7842    44286
     7843    44287    2     CASE(%ACT_PROCESS_REC_DESC);
     7844    44288
     7845    44289    2          CALL Z8DR$RECORD_DECL (ADDR(O1COM.LX_STK(O1COM.LX_TOP -1)) -> LX_LARGE.
             44289                   LARGE_ITEM$,
     7846    44290    2                                ADDR(O1COM.LX_STK(O1COM.LX_TOP)) -> LX_LARGE.
             44290                                         LARGE_ITEM$);
     7847    44291    2          CALL Z8ED$DISPOSE_ABSSYN_TREE (ADDR(O1COM.LX_STK(O1COM.LX_TOP - 1)) ->
             44291                   LX_LARGE.LARGE_ITEM$);
     7848    44292               %PROPAGATE(@FROM = O1COM.LX_TOP);
     7849    44297
     7850    44298    2     CASE(%ACT_PROCESS_LAST_REC_DESC);
     7851    44299
     7852    44300    2          CALL Z8DR$RECORD_DECL (ADDR(O1COM.LX_STK(O1COM.LX_TOP)) -> LX_LARGE.
             44300                   LARGE_ITEM$,
     7853    44301    2                                ADDR(NIL));
     7854    44302    2          CALL Z8ED$DISPOSE_ABSSYN_TREE (ADDR(O1COM.LX_STK(O1COM.LX_TOP)) -> LX_LARGE.
             44302                   LARGE_ITEM$);
     7855    44303
     7856    44304
     7857    44305
     7858    44306        %EJECT;
PL6.E3A0      #001=Z8EM$SEMANTICS_DATA_DIV File=Z8EM.:Z8A6TSI                    SAT 08/09/97 12:08 Page:269
     7859    44307        /*
     7860    44308                               Symbolic character
     7861    44309                               Alphabet names
     7862    44310        */
     7863    44311
     7864    44312    2     CASE(%ACT_OBJECT_COMPUTER);
     7865    44313
     7866    44314    2          CALL CHECK_OBJECT_COMPUTER(ADDR(O1COM.LX_STK(O1COM.LX_TOP - 1)) ->
             44314                   LX_TERMINAL.DNT$);
     7867    44315
     7868    44316    2     CASE(%ACT_OBJECT_COMPUTER_2);
     7869    44317
     7870    44318    2          CALL CHECK_OBJECT_COMPUTER (ADDR(O1COM.LX_STK(O1COM.LX_TOP - 2)) ->
             44318                   LX_TERMINAL.DNT$);
     7871    44319    2     CASE (%ACT_COMPUTER_NAME_1);
     7872    44320
     7873    44321    3          DO SELECT (O1COM.LX_STK.DNT$(O1COM.LX_TOP) -> DNT.TEXT.NAME);
     7874    44322
     7875    44323    3            SELECT ('DPS88', 'DPS-88', 'DPS847', 'DPS8-47', 'DPS-8-47',
     7876    44324    3                    'DPS849', 'DPS8-49', 'DPS-8-49', 'GCOS', 'LEVEL-6',
     7877    44325    3                    'LEVEL-61', 'LEVEL-62', 'LEVEL-64', 'LEVEL-66-ASCII',
     7878    44326    3                    'LEVEL-68', 'DPS90', 'DPS-90', 'DPS8', 'DPS-8',
     7879    44327    3                    'DPS8000', 'DPS-8000', 'DPS9000', 'DPS-9000');
     7880    44328
     7881    44329                    /*  OK */
     7882    44330
     7883    44331    3            SELECT (ELSE);
     7884    44332
     7885    44333    3              IF NOT O1COM.LX_STK.B.ERROR(O1COM.LX_TOP) AND
     7886    44334    3                 O1COM.LX_STK.SYMBOL (O1COM.LX_TOP - 2) = %RSV_WRD_OBJECT_COMPUTER THEN
     7887    44335    3                CALL Z8AE$ERROR (%E$COMPUTER_NOT_KNOWN,
     7888    44336    3                                 O1COM.LX_STK.LINE (O1COM.LX_TOP),
     7889    44337    3                                 O1COM.LX_STK.COLUMN (O1COM.LX_TOP));
     7890    44338
     7891    44339    3          END;
     7892    44340
     7893    44341    2     CASE (%ACT_COMPUTER_NAME_2);
PL6.E3A0      #001=Z8EM$SEMANTICS_DATA_DIV File=Z8EM.:Z8A6TSI                    SAT 08/09/97 12:08 Page:270
     7894    44342
     7895    44343    3          DO SELECT (O1COM.LX_STK.DNT$(O1COM.LX_TOP) -> DNT.TEXT.NAME);
     7896    44344
     7897    44345    3            SELECT ('DPS88', 'DPS-88', 'DPS847', 'DPS8-47', 'DPS-8-47',
     7898    44346    3                    'DPS849', 'DPS8-49', 'DPS-8-49', 'GCOS', 'LEVEL-6',
     7899    44347    3                    'LEVEL-61', 'LEVEL-62', 'LEVEL-64', 'LEVEL-66-ASCII',
     7900    44348    3                    'LEVEL-68', 'DPS90', 'DPS-90', 'DPS8', 'DPS-8',
     7901    44349    3                    'DPS8000', 'DPS-8000', 'DPS9000', 'DPS-9000');
     7902    44350
     7903    44351                    /*  OK */
     7904    44352
     7905    44353    3            SELECT (ELSE);
     7906    44354
     7907    44355    3              IF NOT O1COM.LX_STK.B.ERROR (O1COM.LX_TOP) AND
     7908    44356    3                 O1COM.LX_STK.SYMBOL (O1COM.LX_TOP - 3) = %RSV_WRD_OBJECT_COMPUTER THEN
     7909    44357    3                CALL Z8AE$ERROR (%E$COMPUTER_NOT_KNOWN,
     7910    44358    3                                 O1COM.LX_STK.LINE (O1COM.LX_TOP),
     7911    44359    3                                 O1COM.LX_STK.COLUMN (O1COM.LX_TOP));
     7912    44360
     7913    44361    3          END;
     7914    44362
     7915    44363
     7916    44364    2      CASE (%ACT_WRAP_UP_SPECIAL_NAMES);
     7917    44365    2            CALL WRAP_UP_SPECIAL_NAMES;
     7918    44366
     7919    44367    2      CASE (%ACT_CLASS_NAME);
     7920    44368    2            CALL CLASS_NAME (ADDR(O1COM.LX_STK(O1COM.LX_TOP - 2)),
     7921    44369    2                             ADDR(O1COM.LX_STK(O1COM.LX_TOP)));
     7922    44370
     7923    44371    2      CASE (%ACT_SYMBOLIC_CHARACTER_LIST);
     7924    44372
     7925    44373                 %INIT_LX_LIST (@POINTER = "ADDR(TEMP_LX_NODE)");
     7926    44383
     7927    44384                 %ADD_LX_STK_TO_LIST_HEAD (@LIST$ = "ADDR(TEMP_LX_NODE)",
     7928    44385                                           @FROM  = O1COM.LX_TOP - 2);
     7929    44410
     7930    44411                 %PROPAGATE_TEMP_LX_NODE;
PL6.E3A0      #001=Z8EM$SEMANTICS_DATA_DIV File=Z8EM.:Z8A6TSI                    SAT 08/09/97 12:08 Page:271
     7931    44416
     7932    44417                 %INIT_LX_LIST (@POINTER = "ADDR(TEMP_LX_NODE)");
     7933    44427
     7934    44428                 %ADD_LX_STK_TO_LIST_HEAD (@LIST$ = "ADDR(TEMP_LX_NODE)",
     7935    44429                                           @FROM  = O1COM.LX_TOP);
     7936    44454
     7937    44455                 %ADD_LX_STK_TO_LIST_HEAD (@LIST$ = "ADDR(TEMP_LX_NODE)",
     7938    44456                                           @FROM  = O1COM.LX_TOP - 2);
     7939    44481
     7940    44482                 %PROPAGATE_TEMP_LX_NODE;
     7941    44487
     7942    44488    2      CASE (%ACT_SYMBOLIC_CHAR_LIST);
     7943    44489
     7944    44490                 %INIT_LX_LIST (@POINTER = "ADDR(TEMP_LX_NODE)");
     7945    44500
     7946    44501                 %ADD_LX_STK_TO_LIST_HEAD (@LIST$ = "ADDR(TEMP_LX_NODE)",
     7947    44502                                           @FROM  = O1COM.LX_TOP);
     7948    44527
     7949    44528                 %ADD_LX_STK_TO_LIST_HEAD (@LIST$ = "ADDR(O1COM.LX_STK (O1COM.LX_TOP - 2))",
     7950    44529                                           @FROM  = O1COM.LX_TOP - 3);
     7951    44554
     7952    44555                 %ADD_LX_STK_TO_LIST_HEAD (@LIST$ = "ADDR(TEMP_LX_NODE)",
     7953    44556                                           @FROM  = O1COM.LX_TOP - 2);
     7954    44581
     7955    44582                 %PROPAGATE_TEMP_LX_NODE;
     7956    44587
     7957    44588    2      CASE (%ACT_SYMBOLIC_CHAR_NO_ALPHA);
     7958    44589    2            CALL SYMBOLIC_CHARACTERS (ADDR( O1COM.LX_STK (O1COM.LX_TOP - 2) ),
     7959    44590    2                                      ADDR( O1COM.LX_STK (O1COM.LX_TOP) ),
     7960    44591    2                                      ADDR( NIL ));
     7961    44592
     7962    44593    2      CASE (%ACT_SYMBOLIC_CHAR);
     7963    44594    2            CALL SYMBOLIC_CHARACTERS (ADDR( O1COM.LX_STK (O1COM.LX_TOP - 3) ),
     7964    44595    2                                      ADDR( O1COM.LX_STK (O1COM.LX_TOP - 1) ),
     7965    44596    2                                      ADDR( O1COM.LX_STK (O1COM.LX_TOP)));
     7966    44597
     7967    44598    2      CASE (%ACT_SYMBOLIC_CHAR_IN_ALPHA);
PL6.E3A0      #001=Z8EM$SEMANTICS_DATA_DIV File=Z8EM.:Z8A6TSI                    SAT 08/09/97 12:08 Page:272
     7968    44599    2            CALL SYMBOLIC_CHARACTERS (ADDR( O1COM.LX_STK (O1COM.LX_TOP - 4) ),
     7969    44600    2                                      ADDR( O1COM.LX_STK (O1COM.LX_TOP - 2) ),
     7970    44601    2                                      ADDR( O1COM.LX_STK (O1COM.LX_TOP)));
     7971    44602
     7972    44603    2      CASE (%ACT_ADD_ALSO_LITERAL_TO_TAIL);
     7973    44604
     7974    44605                 %ADD_LX_STK_TO_LIST_TAIL (@LIST$ = "ADDR(O1COM.LX_STK (O1COM.LX_TOP - 2))",
     7975    44606                                           @FROM  = O1COM.LX_TOP);
     7976    44638
     7977    44639    2            IF O1COM.LX_STK.B.ERROR (O1COM.LX_TOP) THEN
     7978    44640    2              O1COM.LX_STK.B.ERROR (O1COM.LX_TOP - 2) = TRUE;
     7979    44641
     7980    44642    2      CASE (%ACT_SEGMENT_LIMIT);
     7981    44643
     7982    44644    2          IF O1COM.CURRENT_SEG_LIMIT$ = O1COM.CURRENT_PROC$ THEN
     7983    44645    3            DO;
     7984    44646    3              CALL Z8AE$ERROR (%E$DUP_DD_CLAUSE,
     7985    44647    3                               O1COM.LX_STK.LINE (O1COM.LX_TOP - 2),
     7986    44648    3                               O1COM.LX_STK.COLUMN (O1COM.LX_TOP - 2),
     7987    44649    3                               O1COM.LX_STK.DNT$ (O1COM.LX_TOP - 2));
     7988    44650    3            END;
     7989    44651    2          ELSE
     7990    44652    3            DO;
     7991    44653    3              IF COMCOM.OB.FIPS.SEG2 THEN
     7992    44654    3                CALL Z8AE$ERROR (%E$LEVEL_CHECK,
     7993    44655    3                                 O1COM.LX_STK.LINE(O1COM.LX_TOP - 2),
     7994    44656    3                                 O1COM.LX_STK.COLUMN(O1COM.LX_TOP - 2));
     7995    44657    3              IF COMCOM.OB.FIPS.OBS THEN
     7996    44658    3                CALL Z8AE$ERROR (%E$OBSOLETE,
     7997    44659    3                                 O1COM.LX_STK.LINE(O1COM.LX_TOP - 2),
     7998    44660    3                                 O1COM.LX_STK.COLUMN(O1COM.LX_TOP - 2));
     7999    44661    3              O1COM.CURRENT_SEG_LIMIT$ = O1COM.CURRENT_PROC$;
     8000    44662
     8001    44663    3              CALL CHARBIN (SEGMENT_LIMIT,
     8002    44664    3                            O1COM.LX_STK.DNT$ (O1COM.LX_TOP) -> DNT.TEXT.NAME);
     8003    44665
     8004    44666    3              IF SEGMENT_LIMIT < 1 OR
PL6.E3A0      #001=Z8EM$SEMANTICS_DATA_DIV File=Z8EM.:Z8A6TSI                    SAT 08/09/97 12:08 Page:273
     8005    44667    3                  SEGMENT_LIMIT > %MAX_FIXED_SEG# THEN
     8006    44668    4                DO;
     8007    44669    4                  CALL Z8AE$ERROR (%E$SEGMENT_LIMIT_ERROR,
     8008    44670    4                                   O1COM.LX_STK.LINE (O1COM.LX_TOP),
     8009    44671    4                                   O1COM.LX_STK.COLUMN (O1COM.LX_TOP));
     8010    44672
     8011    44673    4                  SEGMENT_LIMIT = %MAX_FIXED_SEG# + 1;
     8012    44674    4                END;
     8013    44675
     8014    44676    3              IF O1COM.CURRENT_PROC$ -> PROC_.FATHER = ADDR(NIL) THEN
     8015    44677    4                DO;
     8016    44678    4                  O1COM.SEG_LIMIT = SEGMENT_LIMIT;
     8017    44679    4                END;
     8018    44680    3              ELSE
     8019    44681    3                IF O1COM.SEG_LIMIT ~= SEGMENT_LIMIT THEN
     8020    44682    3                  CALL Z8AE$ERROR (%E$MUST_SAME_LIMIT_AS_MAIN,
     8021    44683    3                                   O1COM.LX_STK.LINE (O1COM.LX_TOP),
     8022    44684    3                                   O1COM.LX_STK.COLUMN (O1COM.LX_TOP));
     8023    44685
     8024    44686    3              IF O1COM.ID_DIV_COUNT <= 1  THEN
     8025    44687    3                COMCOM.SEG_LIMIT = O1COM.SEG_LIMIT;
     8026    44688    3            END;
     8027    44689
     8028    44690    2      CASE (%ACT_COLLATING_SEQUENCE);
     8029    44691
     8030    44692    2            CALL COLLATING_SEQUENCE ( ADDR ( O1COM.LX_STK (O1COM.LX_TOP) ));
     8031    44693
     8032    44694    2      CASE (%ACT_ALPHABET_THRU_CLAUSE);
     8033    44695
     8034    44696                 %INIT_LX_LIST (@POINTER = "ADDR(TEMP_LX_NODE)");
     8035    44706
     8036    44707                 %ADD_LX_STK_TO_LIST_HEAD (@LIST$ = "ADDR(TEMP_LX_NODE)",
     8037    44708                                           @FROM  = O1COM.LX_TOP);
     8038    44733
     8039    44734                 %ADD_LX_STK_TO_LIST_HEAD (@LIST$ = "ADDR(TEMP_LX_NODE)",
     8040    44735                                           @FROM  = O1COM.LX_TOP - 2);
     8041    44760
PL6.E3A0      #001=Z8EM$SEMANTICS_DATA_DIV File=Z8EM.:Z8A6TSI                    SAT 08/09/97 12:08 Page:274
     8042    44761                 %PROP_ERR_TEMP_LX_NODE;
     8043    44769                 %PROPAGATE_TEMP_LX_NODE;
     8044    44774
     8045    44775                 %INIT_LX_LIST (@POINTER = "ADDR(TEMP_LX_NODE)");
     8046    44785
     8047    44786                 %ADD_LX_STK_TO_LIST_HEAD (@LIST$ = "ADDR(TEMP_LX_NODE)",
     8048    44787                                           @FROM  = O1COM.LX_TOP - 2);
     8049    44812
     8050    44813                 %PROPAGATE_TEMP_LX_NODE;
     8051    44818
     8052    44819    2      CASE (%ACT_ALPHABET_NAME);
     8053    44820    2            CALL ALPHABET_NAME (ADDR(O1COM.LX_STK (O1COM.LX_TOP - 3)),
     8054    44821    2                                ADDR(O1COM.LX_STK (O1COM.LX_TOP - 2)),
     8055    44822    2                                ADDR(O1COM.LX_STK (O1COM.LX_TOP)));
     8056    44823
     8057    44824    2      CASE (%ACT_BLOCK_IS_NAME);
     8058    44825
     8059    44826    2            IF COMCOM.OB.FIPS.LEVEL > 0 THEN
     8060    44827    2              CALL Z8AE$ERROR (%E$BLOCK_NON_ANSI,
     8061    44828    2                               O1COM.LX_STK.LINE(O1COM.LX_TOP - 3),
     8062    44829    2                               O1COM.LX_STK.COLUMN(O1COM.LX_TOP - 3));
     8063    44830
     8064    44831    2            IF O1COM.BLOCK$ = ADDR(NIL) THEN
     8065    44832    3              DO;
     8066    44833                     %NEW_HEAP (@POINTER = O1COM.BLOCK$);
     8067    44838
     8068    44839                     %INIT_LX_LIST (@POINTER = O1COM.BLOCK$);
     8069    44849    3              END;
     8070    44850
     8071    44851                 %INIT_LX_LIST (@POINTER = "ADDR(TEMP_LX_NODE)");
     8072    44861
     8073    44862                 %ADD_LX_STK_TO_LIST_HEAD (@LIST$ = "ADDR(TEMP_LX_NODE)",
     8074    44863                                           @FROM  = O1COM.LX_TOP - 2);
     8075    44888
     8076    44889                 %NEW_HEAP (@POINTER = P$);
     8077    44894
     8078    44895                 %INIT_LX_LIST (@POINTER = P$);
PL6.E3A0      #001=Z8EM$SEMANTICS_DATA_DIV File=Z8EM.:Z8A6TSI                    SAT 08/09/97 12:08 Page:275
     8079    44905
     8080    44906                 %ADD_LX_STK_TO_LIST_HEAD (@LIST$ = P$,
     8081    44907                                           @FROM  = O1COM.LX_TOP);
     8082    44932
     8083    44933                 %ADD_LX_ITEM_TO_LIST_TAIL (@LIST$ = "ADDR(TEMP_LX_NODE)",
     8084    44934                                            @FROM$ = P$);
     8085    44950
     8086    44951                 %NEW_COPY_LX_ITEM (@FROM$ = "ADDR(TEMP_LX_NODE)",
     8087    44952                                    @TO$     = P$);
     8088    44964
     8089    44965    2            P$ -> LX_LIST.LINK = ADDR(TEMP_LX_NODE) -> LX_LIST.LINK;
     8090    44966
     8091    44967                 %ADD_LX_ITEM_TO_LIST_TAIL (@LIST$ = O1COM.BLOCK$,
     8092    44968                                            @FROM$ = P$);
     8093    44984
     8094    44985    2      CASE (%ACT_BLOCK_IS_NAME_THRU_NAME);
     8095    44986
     8096    44987    2            IF COMCOM.OB.FIPS.LEVEL > 0 THEN
     8097    44988    2              CALL Z8AE$ERROR (%E$BLOCK_NON_ANSI,
     8098    44989    2                               O1COM.LX_STK.LINE(O1COM.LX_TOP - 5),
     8099    44990    2                               O1COM.LX_STK.COLUMN(O1COM.LX_TOP - 5));
     8100    44991
     8101    44992    2            IF O1COM.BLOCK$ = ADDR(NIL) THEN
     8102    44993    3              DO;
     8103    44994                     %NEW_HEAP (@POINTER = O1COM.BLOCK$);
     8104    44999
     8105    45000                     %INIT_LX_LIST (@POINTER = O1COM.BLOCK$);
     8106    45010    3              END;
     8107    45011
     8108    45012                 %INIT_LX_LIST (@POINTER = "ADDR(TEMP_LX_NODE)");
     8109    45022
     8110    45023                 %ADD_LX_STK_TO_LIST_HEAD (@LIST$ = "ADDR(TEMP_LX_NODE)",
     8111    45024                                           @FROM  = O1COM.LX_TOP - 4);
     8112    45049
     8113    45050                 %NEW_HEAP (@POINTER = P$);
     8114    45055
     8115    45056                 %INIT_LX_LIST (@POINTER = P$);
PL6.E3A0      #001=Z8EM$SEMANTICS_DATA_DIV File=Z8EM.:Z8A6TSI                    SAT 08/09/97 12:08 Page:276
     8116    45066
     8117    45067                 %ADD_LX_STK_TO_LIST_HEAD (@LIST$ = P$,
     8118    45068                                           @FROM  = O1COM.LX_TOP - 2);
     8119    45093
     8120    45094                 %ADD_LX_STK_TO_LIST_TAIL (@LIST$ = P$,
     8121    45095                                           @FROM  = O1COM.LX_TOP);
     8122    45127
     8123    45128                 %ADD_LX_ITEM_TO_LIST_TAIL (@LIST$ = "ADDR(TEMP_LX_NODE)",
     8124    45129                                            @FROM$ = P$);
     8125    45145
     8126    45146                 %NEW_COPY_LX_ITEM (@FROM$ = "ADDR(TEMP_LX_NODE)",
     8127    45147                                    @TO$     = P$);
     8128    45159
     8129    45160    2            P$ -> LX_LIST.LINK = ADDR(TEMP_LX_NODE) -> LX_LIST.LINK;
     8130    45161
     8131    45162                 %ADD_LX_ITEM_TO_LIST_TAIL (@LIST$ = O1COM.BLOCK$,
     8132    45163                                            @FROM$ = P$);
     8133    45179
     8134    45180        %EJECT;
PL6.E3A0      #001=Z8EM$SEMANTICS_DATA_DIV File=Z8EM.:Z8A6TSI                    SAT 08/09/97 12:08 Page:277
     8135    45181        /*
     8136    45182                               Switch names
     8137    45183        */
     8138    45184
     8139    45185    2      CASE (%ACT_TWO_ITEM_LIST);
     8140    45186
     8141    45187             %INIT_LX_LIST (@POINTER = "ADDR(TEMP_LX_NODE)");
     8142    45197
     8143    45198             %ADD_LX_STK_TO_LIST_HEAD (@LIST$ = "ADDR(TEMP_LX_NODE)",
     8144    45199                                       @FROM  = O1COM.LX_TOP - 3);
     8145    45224
     8146    45225             %ADD_LX_STK_TO_LIST_TAIL (@LIST$ = "ADDR(TEMP_LX_NODE)",
     8147    45226                                       @FROM  = O1COM.LX_TOP);
     8148    45258
     8149    45259             %PROPAGATE_TEMP_LX_NODE;
     8150    45264
     8151    45265
     8152    45266    2      CASE (%ACT_NEW_LX_LIST_OF_TWO_LX_STK);
     8153    45267
     8154    45268             %INIT_LX_LIST (@POINTER = "ADDR(TEMP_LX_NODE)");
     8155    45278
     8156    45279             %ADD_LX_STK_TO_LIST_HEAD (@LIST$ = "ADDR(TEMP_LX_NODE)",
     8157    45280                                       @FROM  = O1COM.LX_TOP - 1);
     8158    45305
     8159    45306             %ADD_LX_STK_TO_LIST_TAIL (@LIST$ = "ADDR(TEMP_LX_NODE)",
     8160    45307                                       @FROM  = O1COM.LX_TOP);
     8161    45339
     8162    45340             %PROPAGATE_TEMP_LX_NODE;
     8163    45345
     8164    45346
     8165    45347    2      CASE (%ACT_SWITCH_ON_OFF);
     8166    45348
     8167    45349    2        CALL SWITCH_NAME ( ADDR(O1COM.LX_STK(O1COM.LX_TOP - 1)),
     8168    45350    2                           ADDR(NIL),
     8169    45351    2                           ADDR(O1COM.LX_STK(O1COM.LX_TOP)));
     8170    45352
     8171    45353
PL6.E3A0      #001=Z8EM$SEMANTICS_DATA_DIV File=Z8EM.:Z8A6TSI                    SAT 08/09/97 12:08 Page:278
     8172    45354    2      CASE (%ACT_SWITCH_NAME);
     8173    45355
     8174    45356    2        CALL SWITCH_NAME ( ADDR(O1COM.LX_STK(O1COM.LX_TOP - 2)),
     8175    45357    2                           ADDR(O1COM.LX_STK(O1COM.LX_TOP)),
     8176    45358    2                           ADDR(NIL));
     8177    45359
     8178    45360
     8179    45361    2      CASE (%ACT_SWITCH_AND_ON_OFF);
     8180    45362
     8181    45363    2        CALL SWITCH_NAME ( ADDR(O1COM.LX_STK(O1COM.LX_TOP - 3)),
     8182    45364    2                           ADDR(O1COM.LX_STK(O1COM.LX_TOP - 1)),
     8183    45365    2                           ADDR(O1COM.LX_STK(O1COM.LX_TOP)));
     8184    45366
     8185    45367
     8186    45368        /*
     8187    45369           Mnemonic names
     8188    45370        */
     8189    45371    2     CASE(%ACT_BASIC_MNEMONIC_ASSIGN);
     8190    45372
     8191    45373    2          CALL MNEMONIC_ASSIGN (O1COM.LX_STK.SYMBOL (O1COM.LX_TOP - 2),
     8192    45374    2                                ADDR(O1COM.LX_STK (O1COM.LX_TOP)));
     8193    45375
     8194    45376    2     CASE(%ACT_ALL_ALPHA_CONST);
     8195    45377
     8196    45378    2          O1COM.LX_STK.B.ALL(O1COM.LX_TOP) = TRUE;
     8197    45379               %PROPAGATE(@FROM=O1COM.LX_TOP);
     8198    45384
     8199    45385    2     CASE(%ACT_PROP_TOP_MINUS_1);
     8200    45386
     8201    45387               %PROPAGATE (@FROM = "O1COM.LX_TOP - 1");
     8202    45392
     8203    45393    2     CASE(%ACT_PROP_PICTURE);
     8204    45394
     8205    45395    2          IF COMCOM.OB.FIPS.LEVEL >= %INT_LEV AND
     8206    45396    2              O1COM.LX_STK.B.HIGH_LEV(O1COM.LX_TOP) THEN
     8207    45397    2            CALL Z8AE$ERROR (%E$LEVEL_CHECK,
     8208    45398    2                             O1COM.LX_STK.LINE(O1COM.LX_TOP - 2),
PL6.E3A0      #001=Z8EM$SEMANTICS_DATA_DIV File=Z8EM.:Z8A6TSI                    SAT 08/09/97 12:08 Page:279
     8209    45399    2                             O1COM.LX_STK.COLUMN(O1COM.LX_TOP - 2));
     8210    45400
     8211    45401               %PROPAGATE(@FROM=O1COM.LX_TOP);
     8212    45406
     8213    45407
     8214    45408    2     CASE(%ACT_PROP_LX_TOP);
     8215    45409
     8216    45410               %PROPAGATE(@FROM=O1COM.LX_TOP);
     8217    45415
     8218    45416    2     CASE(%ACT_PROP_LX_TOP_PROP_ERR);
     8219    45417
     8220    45418               %PROP_LX_TOP_PROP_ERR;
     8221    45431
     8222    45432
     8223    45433        /*****************************************************************
     8224    45434        *                                                                *
     8225    45435        *                      COMMON ACTIONS                            *
     8226    45436        *                                                                *
     8227    45437        *****************************************************************/
     8228    45438        /*
     8229    45439                               Names actions
     8230    45440        */
     8231    45441
     8232    45442    2     CASE(%ACT_ADD_LX_STK_TO_LIST_TAIL);
     8233    45443
     8234    45444            /* Add LX_STK(LX_TOP) to tail of list at LX_STK(LX_TOP - 1) */
     8235    45445               %ADD_LX_STK_TO_LIST_TAIL (@LIST$ = "ADDR(O1COM.LX_STK(O1COM.LX_TOP - 1))",
     8236    45446                                         @FROM  = O1COM.LX_TOP);
     8237    45478    2          IF O1COM.LX_STK.B.ERROR(O1COM.LX_TOP) THEN
     8238    45479    2            O1COM.LX_STK.B.ERROR(O1COM.LX_TOP - 1) = TRUE;
     8239    45480
     8240    45481    2     CASE(%ACT_ADD_LX_STK_TO_LIST_HEAD);
     8241    45482
     8242    45483         /* Add O1COM.LX_STK (O1COM.LX_TOP - 1) to head of list at O1COM.LX_STK (O1COM.LX_TO
             45483        P) */
     8243    45484               %ADD_LX_STK_TO_LIST_HEAD (@LIST$ = "ADDR(O1COM.LX_STK (O1COM.LX_TOP))",
     8244    45485                                         @FROM  = O1COM.LX_TOP - 1);
PL6.E3A0      #001=Z8EM$SEMANTICS_DATA_DIV File=Z8EM.:Z8A6TSI                    SAT 08/09/97 12:08 Page:280
     8245    45510
     8246    45511               %PROPAGATE (@FROM=O1COM.LX_TOP);
     8247    45516
     8248    45517    2     CASE(%ACT_CREATE_LIST_OF_ONE_LX_STK);
     8249    45518
     8250    45519            /* Create a linked list of 1 element at LX_TOP */
     8251    45520               %INIT_LX_LIST (@POINTER = "ADDR(TEMP_LX_NODE)");
     8252    45530               %ADD_LX_STK_TO_LIST_HEAD (@LIST$ = "ADDR(TEMP_LX_NODE)",
     8253    45531                                         @FROM  = O1COM.LX_TOP);
     8254    45556               %PROPAGATE_TEMP_LX_NODE;
     8255    45561
     8256    45562
     8257    45563
     8258    45564    2     CASE(%ACT_PASS_EMPTY);
     8259    45565
     8260    45566            /* Pass empty up tree by changing terminal symbol to EMPTY */
     8261    45567    2          O1COM.LX_STK.SYMBOL(O1COM.LX_TOP) = %EMPTY;
     8262    45568
     8263    45569    2     CASE(%ACT_OBSOLETE);
     8264    45570
     8265    45571    2          IF COMCOM.OB.FIPS.OBS THEN
     8266    45572    2            CALL Z8AE$ERROR (%E$OBSOLETE,
     8267    45573    2                             O1COM.LX_STK.LINE(O1COM.LX_TOP),
     8268    45574    2                             O1COM.LX_STK.COLUMN(O1COM.LX_TOP));
     8269    45575
     8270    45576    2     CASE(%ACT_HIGH_LEV);         /* GLOBAL, EXTERNAL, COMMON, and INITIAL clauses */
     8271    45577
     8272    45578    2          IF COMCOM.OB.FIPS.LEVEL >= %INT_LEV THEN /* Flag high-level feature */
     8273    45579    3            DO;
     8274    45580    3              IF O1COM.LX_STK.SYMBOL(O1COM.LX_TOP-1) = %RSV_WRD_IS
     8275    45581    3                THEN I = O1COM.LX_TOP - 1;
     8276    45582    3                ELSE I = O1COM.LX_TOP;
     8277    45583    3              CALL Z8AE$ERROR (%E$LEVEL_CHECK,
     8278    45584    3                               O1COM.LX_STK.LINE(I),
     8279    45585    3                               O1COM.LX_STK.COLUMN(I));
     8280    45586    3            END;
     8281    45587
PL6.E3A0      #001=Z8EM$SEMANTICS_DATA_DIV File=Z8EM.:Z8A6TSI                    SAT 08/09/97 12:08 Page:281
     8282    45588    2     CASE(%ACT_HIGH_LEV_1);            /* RENAMES clause */
     8283    45589
     8284    45590    2          IF COMCOM.OB.FIPS.LEVEL >= %INT_LEV THEN /* Flag high-level feature */
     8285    45591    2            CALL Z8AE$ERROR (%E$LEVEL_CHECK,
     8286    45592    2                             O1COM.LX_STK.LINE(O1COM.LX_TOP),
     8287    45593    2                             O1COM.LX_STK.COLUMN(O1COM.LX_TOP));
     8288    45594
     8289    45595    2     CASE(%ACT_HIGH_LEV_2);            /* REDEFINES clause */
     8290    45596
     8291    45597    2          IF COMCOM.OB.FIPS.LEVEL >= %INT_LEV THEN
     8292    45598    3            DO;
     8293    45599    3              CALL CHARBIN (J, ADDR(O1COM.LX_STK(O1COM.LX_TOP-3)) -> LX_LARGE.
             45599                       LARGE_ITEM$ ->
     8294    45600    3                  LX_REC_DECL.P.LEVEL_NO$ -> LX_TERMINAL.DNT$ -> DNT.TEXT.NAME);
     8295    45601    3              I = 1;
     8296    45602    3   REDEF_OCCURS_LEV:
     8297    45603    4              DO WHILE HIER_STK.LEVEL# (I) < J;
     8298    45604    4                IF HIER_STK.DIMS$ (I) ~= ADDR (NIL) OR
     8299    45605    4                    HIER_STK.QLT$ (I) -> QLT.ST$ -> VARIABLE.B.REDEF_SUB THEN
     8300    45606    5                  DO; /* Flag high-level feature */
     8301    45607    5                    CALL Z8AE$ERROR (%E$LEVEL_CHECK,
     8302    45608    5                                     O1COM.LX_STK.LINE(O1COM.LX_TOP),
     8303    45609    5                                     O1COM.LX_STK.COLUMN(O1COM.LX_TOP));
     8304    45610    5                    EXIT REDEF_OCCURS_LEV;
     8305    45611    5                  END;
     8306    45612    4                I = I + 1;
     8307    45613    4              END; /* REDEF_OCCURS_LEV */
     8308    45614    3            END;
     8309    45615
     8310    45616    2     CASE(%ACT_SET_COMPILED_DATE);
     8311    45617
     8312    45618    2          IF COMCOM.DATE_COMPILED_LINE = 0 THEN
     8313    45619    2            COMCOM.DATE_COMPILED_LINE = ADDR(O1COM.LX_STK(O1COM.LX_TOP - 1)) ->
             45619                     LX_TERMINAL.LINE;
     8314    45620
     8315    45621    2     CASE(%ACT_QUAL_ID);
     8316    45622
PL6.E3A0      #001=Z8EM$SEMANTICS_DATA_DIV File=Z8EM.:Z8A6TSI                    SAT 08/09/97 12:08 Page:282
     8317    45623            /* Add data_name to <qualified_id> list */
     8318    45624               %ADD_LX_STK_TO_LIST_TAIL (@LIST$ = "ADDR(O1COM.LX_STK(O1COM.LX_TOP - 2))",
     8319    45625                                         @FROM = O1COM.LX_TOP);
     8320    45657    2          IF O1COM.LX_STK.B.ERROR(O1COM.LX_TOP)
     8321    45658    2              OR O1COM.LX_STK.B.ERROR (O1COM.LX_TOP - 1) THEN
     8322    45659    2            O1COM.LX_STK.B.ERROR (O1COM.LX_TOP - 1) = TRUE;
     8323    45660
     8324    45661
     8325    45662    2     CASE(%ACT_NOT_IMPLEMENTED);
     8326    45663    2          CALL Z8AE$ERROR (%E$NOT_IMPLEMENTED);
     8327    45664
     8328    45665
     8329    45666    2     CASE(ELSE);
     8330    45667
     8331    45668    2          CALL Z8AE$ERROR (%E$ACTION_NOT_PRESENT);
     8332    45669
     8333    45670
     8334    45671    2   END;  /* DO CASE */
     8335    45672
     8336    45673
     8337    45674    1   END Z8EM$SEMANTICS_DATA_DIV;

PL6.E3A0      #001=Z8EM$SEMANTICS_DATA_DIV File=Z8EM.:Z8A6TSI                    SAT 08/09/97 12:08 Page:283
--  Include file information  --

   Z8E_P_STATS.:Z8A6TOU  is referenced.
   Z8E_DD_MACRO.:Z8A6TOU  is referenced.
   Z8E_P_OLAY.:Z8A6TOU  cannot be made into a system file and is referenced.
   Z8A_P_STATE.:Z8A6TOU  cannot be made into a system file and is referenced.
   Z8E_DDPDA_S.:Z8A6TOU  is referenced.
   Z8E_DD_SUBS.:Z8A6TOU  is referenced.
   Z8A_MKCN.:Z8A6TOU  cannot be made into a system file and is referenced.
   Z8E_TABLES.:Z8A6TOU  cannot be made into a system file and is referenced.
   Z8E_TRANSLAT.:Z8A6TOU  cannot be made into a system file and is referenced.
   Z8E_ABSSYN.:Z8A6TOU  cannot be made into a system file and is referenced.
   Z8E_HEAP.:Z8A6TOU  cannot be made into a system file and is referenced.
   Z8D_PIC_PARM.:Z8A6TOU  is referenced.
   Z8E_NEW_ILL.:Z8A6TOU  is referenced.
   Z8E_MACROS.:Z8A6TOU  cannot be made into a system file and is referenced.
   Z8E_WINDOW.:Z8A6TOU  is referenced.
   Z8E_O1COM.:Z8A6TOU  cannot be made into a system file and is referenced.
   Z8A_LEX_SYMB.:Z8A6TOU  cannot be made into a system file and is referenced.
   Z8E_STACKS.:Z8A6TOU  cannot be made into a system file and is referenced.
   Z8E_DML.:Z8A6TOU  is referenced.
   Z8A_XREF.:Z8A6TOU  cannot be made into a system file and is referenced.
   Z8A_ERR_NUMS.:Z8A6TOU  is referenced.
   Z8A_SRCH.:Z8A6TOU  cannot be made into a system file and is referenced.
   Z8A_ETT.:Z8A6TOU  cannot be made into a system file and is referenced.
   Z8A_DNT.:Z8A6TOU  cannot be made into a system file and is referenced.
   Z8A_ST.:Z8A6TOU  cannot be made into a system file and is referenced.
   Z8A_LIBRARY.:Z8A6TOU  cannot be made into a system file and is referenced.
   Z8A_TYPES.:Z8A6TOU  is referenced.
   Z8A_QLT.:Z8A6TOU  cannot be made into a system file and is referenced.
   Z8A_IO_EQUS.:Z8A6TOU  is referenced.
   Z8A_LTS.:Z8A6TOU  cannot be made into a system file and is referenced.
   Z8A_ILL.:Z8A6TOU  cannot be made into a system file and is referenced.
   Z8A_ILS.:Z8A6TOU  cannot be made into a system file and is referenced.
   Z8A_COMCOM.:Z8A6TOU  cannot be made into a system file and is referenced.
   X8A_COM_MACS.:X8A6TOU  is referenced.
   Z8A_NAMES.:Z8A6TOU  is referenced.
PL6.E3A0      #001=Z8EM$SEMANTICS_DATA_DIV File=Z8EM.:Z8A6TSI                    SAT 08/09/97 12:08 Page:284
   Z8A_SUPP_MAC.:Z8A6TOU  is referenced.
   Z8A_DEFC.:Z8A6TOU  cannot be made into a system file and is referenced.
      No diagnostics issued in procedure Z8EM$SEMANTICS_DATA_DIV.

   Procedure Z8EM$SEMANTICS_DATA_DIV requires 23971 words for executable code.
   Procedure Z8EM$SEMANTICS_DATA_DIV is declared NOAUTO and requires 700 words of local(STATIC) storage.

    No errors detected in file Z8EM.:Z8A6TSI    .

PL6.E3A0      #001=Z8EM$SEMANTICS_DATA_DIV File=Z8EM.:Z8A6TSI                    SAT 08/09/97 12:08 Page:285

 Object Unit name= Z8EM$SEMANTICS_DATA_DIV                    File name= Z8EM.:Z8A6TOU
 UTS= AUG 09 '97 12:08:57.80 SAT                              Compiler= PL-6/E31         Sev=      00
 SharedLib= :SHARED_SYSTEM                                    Alt SharedLib=


    ****  Control sections  ****

 Sect   Type Bound  Init  Size OctSiz  Section name(segment info)
    0   Data  even  none   700   1274  Z8EM$SEMANTICS_DATA_DIV
    1  LblCom even  none     1      1  SEMANTIC_ACTION
    2  LblCom even  none     1      1  ITERATION
    3  LblCom even  none     1      1  ILS$
    4  LblCom even  none     5      5  ILS_
    5  LblCom even  none     1      1  ILL$
    6  LblCom even  none     5      5  ILL_
    7  LblCom even  none     1      1  LTS$
    8  LblCom even  none     5      5  LTS_
    9  LblCom even  none     1      1  QLT$
   10  LblCom even  none     1      1  PREV_01_QLT$
   11  LblCom even  none     5      5  QLT_
   12  LblCom even  none     1      1  ST$
   13  LblCom even  none     5      5  ST_
   14  LblCom even  none     1      1  DNT$
   15  LblCom even  none     5      5  DNT_
   16  LblCom even  none     1      1  DNT_BUCKET_NUMBER
   17  LblCom even  none     1      1  DNT_OF_1$
   18  LblCom even  none     1      1  ETT$
   19  LblCom even  none     1      1  HEAD_ETT$
   20  LblCom even  none   512   1000  ETT_BUCKETS
   21  LblCom even  none     5      5  ETT_
   22  LblCom even  none     3      3  SRCH
   23  LblCom even  none     1      1  XREF$
   24  LblCom even  none     5      5  XREF_
   25  LblCom even  none    90    132  LEX_SYMBOL
   26  LblCom even  none     1      1  CURRENT_LEX_SYMBOL$
   27  LblCom even  none    90    132  TEMP_LEX_SYMBOL
   28  LblCom even  none    90    132  TEMP_LEX_SYMBOL2
PL6.E3A0      #001=Z8EM$SEMANTICS_DATA_DIV File=Z8EM.:Z8A6TSI                    SAT 08/09/97 12:08 Page:286
   29  LblCom even  none     1      1  HEAP$
   30  LblCom even  none     8     10  TEMP_LX_NODE
   31  LblCom even  none     2      2  MKCN
   32  LblCom even  none     2      2  OVERLAY_COORDINATION_VECTOR
   33  LblCom even  none     1      1  PARSER_OVERLAY_RETURN_CODE
   34  RoData even  UTS    138    212  Z8EM$SEMANTICS_DATA_DIV
   35   Proc  even  none 23971  56643  Z8EM$SEMANTICS_DATA_DIV
   36  RoData even  none   598   1126  Z8EM$SEMANTICS_DATA_DIV

    ****  Entry defs  ****

                              Check   Calling
                             calling  sequence
  Sect OctLoc Primary Altret sequence   type   Parms  Name
    35      0   yes            yes      Std        0  Z8EM$SEMANTICS_DATA_DIV

  ****  Entry refs  ****

         Check        Calling
        calling       sequence
Altret sequence SRef   type   Args  Name
         yes           Std      12 Z8AE$ERROR
         yes           Std       1 Z8CO$END_PROGRAM
         yes           Std       2 Z8ED$NEW_HEAP
         yes           Std       0 Z8AH$SEARCH_
         yes           Std       4 Z8DM$DML_UWA
         yes           Std       1 Z9EM$PROCESS_AREA
         yes           Std       1 Z9EM$WITH_UNBANNERED
         yes           Std       1 Z9EM$WITH_BSN
         yes           Std       1 Z9EM$NO_PROCESS_AREA
         yes           Std       0 Z8DP$COMMA_DECIMAL_TABLE_SWITCH
         yes           Std       4 Z8AN$NEW_ILL
         yes           Std       0 Z8DP$COMMA_DECIMAL_POINT
         yes           Std       3 Z8AF$NEW_BASE
         yes           Std       1 Z8AR$RESERVER
         yes           Std       1 Z9EM$WITH_SSF
         yes           Std       1 Z9EM$REPORT_CODE
PL6.E3A0      #001=Z8EM$SEMANTICS_DATA_DIV File=Z8EM.:Z8A6TSI                    SAT 08/09/97 12:08 Page:287
         yes           Std       2 Z8DT$REPORT_REC
         yes           Std       1 Z8ED$DISPOSE_ABSSYN_TREE
         yes           Std       2 Z8AT$CREATE_TEMPORARY
         yes           Std       1 Z9EM$VERIFY_DEVICE
         yes           Std       1 Z9EM$CODE_SET
 yes     yes           Std       2 Z9EM$MASS_STORAGE_CHECK
         yes           Std       2 Z8EC$INTERNAL_STRING_REP
         yes           Std       4 Z8AF$FORME
         yes           Std       2 Z8DR$RECORD_DECL
         yes           Std       2 Z9EM$LABEL_RECORDS
 yes     yes           Std       2 Z8DO$QUALIFY_TERMINAL
         yes           Std       1 Z8AC$MAKE_CONST
         yes           Std       2 Z8CO$CREATE_LIBRARY_BASE
         yes           Std       1 Z8DP$CURRENCY_SIGN
         yes           Std       0 Z8DT$CONTROL_ITEMS
         yes           Std       0 Z8DT$REPORT_WRAPUP
         yes           Std       1 Z8DA$STORAGE_ALLOCATION
         yes           Std       2 Z9EM$ASSIGN_RECOVERY
         yes           Std       2 Z9EM$FILE_ORG
         yes           Std       3 Z8AH$NEW_DNT
 yes     yes           Std       2 Z9EM$TAPE_CHECK
         yes           Std       0 Z8EI$INIT_PROGRAM
         yes           Std       5 Z8DR$NEW_INDEX
         yes           Std       2 Z8ED$DISPOSE_HEAP
         yes           Std       2 Z8DO$LINK_WITH_LTS
 yes     yes           Std       2 Z8DO$QUALIFY_TERMINAL_NO_ERROR
                       nStd      0 X66_SUNWIND
PL6.E3A0      #001=Z8EM$SEMANTICS_DATA_DIV File=Z8EM.:Z8A6TSI                    SAT 08/09/97 12:08 Page:288

  ****  Data refs  ****

  Flags:  r = read only, s = secondary
Flgs Name                             Flgs Name                             Flgs Name
     COMCOM                           r    ILS_STEP_TABLE                   r    ILL_STEP
r    LTS_STEP                              O1COM                                 HIER_STK_PTR
     HIER_STK                              PAGE_FORMAT                           REP_STK_PTR
     REP_STK                          r    HBCD                             r    GBCD
r    EBCDIC                           r    USERWORD_SCAN_TABLE              r    ANSI_USERWORD_SCAN_TABLE
r    ASCII_SEARCH_TABLE               r    BLANK_SCAN_TABLE                 r    DIGIT_SCAN_TABLE
r    LETTER_SEARCH_TABLE              r    DOUBLE_QUOTE_SEARCH_TABLE        r    SINGLE_QUOTE_SEARCH_TABLE
r    DBL_QUOTE_PSEUDO_SEARCH_TABLE    r    SNGL_QUOTE_PSEUDO_SEARCH_TABLE   r    SEPARATORS_TABLE
r    LOWER_TO_UPPER_CASE              r    CURRENCY_SIGN_CHARS              r    DNT$_FROM_RSWNO
     END_PROGRAM_FOUND                     DNT_BUCKETS                      r    DD_PRODR
r    DD_ACTION_COL                    r    DD_ACTION_ROW                    r    DD_GOTO_COL
r    DD_GOTO_ROW

  ****  Segment refs  ****

  Flags:  r = read only, s = secondary
Flgs Name                             Flgs Name                             Flgs Name
     NULLSID                               ISSID
PL6.E3A0      #001=Z8EM$SEMANTICS_DATA_DIV File=Z8EM.:Z8A6TSI                    SAT 08/09/97 12:08 Page:289


        1        1        /*T***********************************************************/
        2        2        /*T*                                                         */
        3        3        /*T* Copyright (c) Bull HN Information Systems Inc., 1997    */
        4        4        /*T*                                                         */
        5        5        /*T***********************************************************/
        6        6        /*========================*/
        7        7          Z8EM$SEMANTICS_DATA_DIV : PROC  NOAUTO;

      7 35 000000   000000 741200 0     Z8EM$SEMANT* STX1  ! 0
        35 000001   033451 710000 35                 TRA     SEMANTIC_ACTION_CASE

        8        8        /*========================*/
        9        9
       10       10    1   DCL SEMANTIC_ACTION SBIN WORD EXT;
                10            /* Set by parser to semantic action to be executed */
       11       11
       12       12        %EQU PHASE = 1;
       13       13        %EQU FILLER_CLAUSE_LENGTH = 16;
       14       14        %EQU LEVEL_00 = 0;
       15       15        %EQU LEVEL_01 = 1;
       16       16        %EQU LEVEL_02 = 2;
       17       17        %EQU LEVEL_03 = 3;
       18       18        %EQU LENGTH_0 = 0;
       19       19        %EQU LENGTH_1 = 1;
       20       20        %EQU LENGTH_2 = 2;
       21       21        %EQU LENGTH_4 = 4;
       22       22        %EQU LENGTH_6 = 6;
       23       23        %EQU LENGTH_8 = 8;
       24       24        %EQU LENGTH_12= 12;
       25       25        %EQU ELEMENTARY = '1'B;
       26       26        %EQU GROUP = '0'B;
       27       27        %EQU SINGLE_DIMENSION = 1;
       28       28
       29       29        %INCLUDE Z8A_DEFC;
       30       97        %INCLUDE Z8A_SUPP_MAC;
       31     2497        %INCLUDE Z8A_COMCOM;
PL6.E3A0      #001=Z8EM$SEMANTICS_DATA_DIV File=Z8EM.:Z8A6TSI                    SAT 08/09/97 12:08 Page:290
       32     3147        %INCLUDE Z8A_ILS;
       33     3256        %INCLUDE Z8A_ILL;
       34     3949        %INCLUDE Z8A_LTS ;
       35     6026        %INCLUDE Z8A_IO_EQUS;
       36     6149        %INCLUDE Z8A_QLT;
       37     6255        %INCLUDE Z8A_TYPES;
       38     6429        %INCLUDE Z8A_LIBRARY;
       39     6643        %INCLUDE Z8A_ST;
       40    10302        %INCLUDE Z8A_DNT;
       41    10523        %INCLUDE Z8A_ETT;
       42    10824        %INCLUDE Z8A_SRCH;
       43    10873        %INCLUDE Z8A_ERR_NUMS;
       44    11637        %INCLUDE Z8A_XREF;
       45    11709        %INCLUDE Z8E_DML;
       46    11829        %INCLUDE Z8E_STACKS;
       47    14095        %INCLUDE Z8E_O1COM;
       48    14856        %INCLUDE Z8E_WINDOW;
       49    16926        %INCLUDE Z8E_MACROS;
       50    17601        %INCLUDE Z8D_PIC_PARM;
       51    17707        %INCLUDE Z8E_HEAP;
       52    17763        %INCLUDE Z8E_ABSSYN;
       53    17969        %INCLUDE Z8E_TRANSLAT;
       54    18387        %INCLUDE Z8E_TABLES;
       55    18940        /* Because of GCOS virtual mode considerations, all SYMREFs must be declared
       56    18941           before Z8E_DD_SUBS is included. */
       57    18942    1   DCL DNT$_FROM_RSWNO    (0:0) PTR SYMREF READONLY;
       58    18943    1   DCL END_PROGRAM_FOUND  BIT(1) ALIGNED SYMREF;
       59    18944        %DEF_BUCKETS;
       60    18947        %INCLUDE Z8A_MKCN;
       61    18964
       62    18965        %INCLUDE Z8E_DD_SUBS;
       63    18994        %INCLUDE Z8E_DDPDA_S;
       64    19609        %INCLUDE Z8A_P_STATE;
       65    19619        %INCLUDE Z8E_P_OLAY;
       66    19632
       67    19633        %PARSE_SYMREFS;
       68    19651        %EJECT;
PL6.E3A0      #001=Z8EM$SEMANTICS_DATA_DIV File=Z8EM.:Z8A6TSI                    SAT 08/09/97 12:08 Page:291
       69    19652    1   DCL Z8DT$REPORT_REC    ENTRY (2);
       70    19653    1   DCL Z8DT$CONTROL_ITEMS ENTRY;
       71    19654    1   DCL Z8DT$REPORT_WRAPUP ENTRY;
       72    19655    1   DCL Z8AE$ERROR         ENTRY (12);
       73    19656    1   DCL Z8AF$NEW_BASE      ENTRY (3);
       74    19657    1   DCL Z8CO$END_PROGRAM   ENTRY (1);
       75    19658    1   DCL Z8DO$LINK_WITH_LTS ENTRY (2);
       76    19659    1   DCL Z8DO$QUALIFY_TERMINAL ENTRY (2) ALTRET;
       77    19660    1   DCL Z8DO$QUALIFY_TERMINAL_NO_ERROR ENTRY (2) ALTRET;
       78    19661    1   DCL Z8CO$QUALIFY_VARIABLE ENTRY (2) ALTRET;
       79    19662    1   DCL Z8AF$FORME         ENTRY (4);
       80    19663    1   DCL Z8AT$CREATE_TEMPORARY ENTRY (2);
       81    19664    1   DCL Z8EI$INIT_PROGRAM     ENTRY;
       82    19665
       83    19666    1   DCL Z8DR$RECORD_DECL    ENTRY(2);
       84    19667    1   DCL Z8DP$COMMA_DECIMAL_POINT  ENTRY ;
       85    19668    1   DCL Z8DP$COMMA_DECIMAL_TABLE_SWITCH  ENTRY ;
       86    19669    1   DCL Z8DP$CURRENCY_SIGN        ENTRY (1);
       87    19670    1   DCL Z8AH$SEARCH_              ENTRY;
       88    19671    1   DCL Z8AC$MAKE_CONST            ENTRY (1);
       89    19672    1   DCL Z8DR$NEW_INDEX             ENTRY (5);
       90    19673    1   DCL Z8AH$NEW_DNT              ENTRY (3);
       91    19674    1   DCL Z8EU$ALLOCATE_LIST_ENTRY ENTRY(1);
       92    19675    1   DCL Z8EC$INTERNAL_STRING_REP  ENTRY(2);
       93    19676    1   DCL Z8ED$DISPOSE_ABSSYN_TREE ENTRY(1);
       94    19677
       95    19678    1   DCL Z8DA$STORAGE_ALLOCATION ENTRY (1);
       96    19679    1   DCL Z8DP$VALIDATE_PIC  ENTRY (3) ALTRET;
       97    19680    1   DCL Z8CO$CREATE_LIBRARY_BASE  ENTRY (2);
       98    19681    1   DCL Z9EM$FILE_ORG             ENTRY (2);
       99    19682    1   DCL Z9EM$VERIFY_DEVICE        ENTRY (1);
      100    19683    1   DCL Z9EM$ASSIGN_RECOVERY      ENTRY (2);
      101    19684    1   DCL Z9EM$MASS_STORAGE_CHECK   ENTRY (2) ALTRET;
      102    19685    1   DCL Z9EM$TAPE_CHECK           ENTRY (2) ALTRET;
      103    19686
      104    19687    1   DCL  Z9EM$PROCESS_AREA        ENTRY (1);
      105    19688    1   DCL  Z9EM$NO_PROCESS_AREA     ENTRY (1);
PL6.E3A0      #001=Z8EM$SEMANTICS_DATA_DIV File=Z8EM.:Z8A6TSI                    SAT 08/09/97 12:08 Page:292
      106    19689    1   DCL  Z9EM$WITH_BSN            ENTRY (1);
      107    19690    1   DCL  Z9EM$WITH_SSF            ENTRY (1);
      108    19691    1   DCL  Z9EM$WITH_UNBANNERED     ENTRY (1);
      109    19692    1   DCL  Z9EM$REPORT_CODE         ENTRY (1);
      110    19693
      111    19694    1   DCL Z9EM$LABEL_RECORDS        ENTRY (2);
      112    19695    1   DCL Z9EM$CODE_SET             ENTRY (1);
      113    19696    1   DCL Z8DM$DML_UWA              ENTRY (4);
      114    19697
      115    19698        /* Internal data declarations */
      116    19699
      117    19700    1   DCL SYMDEF_ST$         PTR;
      118    19701    1   DCL SYMDEF$            PTR;
      119    19702    1   DCL TEMP$              PTR;
      120    19703    1   DCL LEN                UBIN; /* for assign string case */
      121    19704    1   DCL I           SBIN WORD;
      122    19705    1   DCL J           SBIN WORD;
      123    19706    1   DCL P$          PTR;
      124    19707    1   DCL SEGMENT_LIMIT      SBIN WORD;
      125    19708    1   DCL OCCURS_LINE        SBIN STATIC;
      126    19709    1   DCL OCCURS_COLUMN      SBIN STATIC;
      127    19710    1   DCL AUTHOR_PGPH_FLAG BOOLEAN STATIC INIT(FALSE);
      128    19711    1   DCL INSTALL_PGPH_FLAG BOOLEAN STATIC INIT(FALSE);
      129    19712    1   DCL DATWRIT_PGPH_FLAG BOOLEAN STATIC INIT(FALSE);
      130    19713    1   DCL DATCMPIL_PGPH_FLAG BOOLEAN STATIC INIT(FALSE);
      131    19714    1   DCL SECURITY_PGPH_FLAG BOOLEAN STATIC INIT(FALSE);
      132    19715
      133    19716        %EJECT;
PL6.E3A0      #001=Z8EM$SEMANTICS_DATA_DIV File=Z8EM.:Z8A6TSI                    SAT 08/09/97 12:08 Page:293
      134    19717        %INCLUDE Z8E_DD_MACRO;
      135    19737
      136    19738        %EQU PARSING_STATS_FILENAME = 'DD_STATS';
      137    19739
      138    19740        %INCLUDE Z8E_P_STATS;
      139    20017
      140    20018        %DUMP_PARSER_STATS_PROC;
      141    20075
      142    20076        %EJECT;
PL6.E3A0      #001=Z8EM$SEMANTICS_DATA_DIV File=Z8EM.:Z8A6TSI                    SAT 08/09/97 12:08 Page:294
      143    20077        %MACRO CHECK_FOR_GTR_1_CHAR (@TERMINAL$ = , @NEW_DNT$ = );
      144    20078
      145    20079           DO;
      146    20080             IF @TERMINAL$ -> LX_TERMINAL.SYMBOL = %ALPHA_LITERAL
      147    20081             OR @TERMINAL$ -> LX_TERMINAL.SYMBOL = %SINGLE_QUOTE THEN
      148    20082               DO;
      149    20083                 CALL Z8EC$INTERNAL_STRING_REP (@TERMINAL$, @NEW_DNT$);
      150    20084
      151    20085                 IF @NEW_DNT$ -> DNT.TEXT.LENGTH > 3 THEN
      152    20086                   CALL Z8AE$ERROR (%E$LITERAL_GTR_1_CHAR,
      153    20087                                    @TERMINAL$ -> LX_TERMINAL.LINE,
      154    20088                                    @TERMINAL$ -> LX_TERMINAL.COLUMN);
      155    20089               END;
      156    20090           END;
      157    20091
      158    20092        %MEND;
      159    20093        %EJECT;
PL6.E3A0      #001=Z8EM$SEMANTICS_DATA_DIV File=Z8EM.:Z8A6TSI                    SAT 08/09/97 12:08 Page:295
      160    20094        %MACRO GET_VALUE (@TERMINAL$ = ,
      161    20095                          @DNT$      = ,
      162    20096                          @VALUE     = );
      163    20097
      164    20098           DO SELECT (@TERMINAL$ -> LX_TERMINAL.SYMBOL);
      165    20099             SELECT (%ALPHA_LITERAL, %SINGLE_QUOTE);
      166    20100               CALL Z8EC$INTERNAL_STRING_REP (@TERMINAL$, @DNT$);
      167    20101
      168    20102               @VALUE = ASCBIN ( SUBSTR (@DNT$ -> DNT.TEXT.NAME,1,1) );
      169    20103
      170    20104             SELECT (%NUMBER);
      171    20105               CALL CHARBIN (@VALUE, @TERMINAL$ -> LX_TERMINAL.DNT$ -> DNT.TEXT.NAME);
      172    20106
      173    20107               @VALUE = @VALUE - 1;
      174    20108
      175    20109             SELECT (%RSV_WRD_HIGH_VALUES);
      176    20110               @VALUE = BITBIN('177'O);
      177    20111
      178    20112             SELECT (%RSV_WRD_LOW_VALUES);
      179    20113               @VALUE = 0;
      180    20114
      181    20115             SELECT (%RSV_WRD_QUOTES);
      182    20116               @VALUE = ASCBIN ('"');
      183    20117
      184    20118             SELECT (%RSV_WRD_SPACES);
      185    20119               @VALUE = ASCBIN (' ');
      186    20120
      187    20121             SELECT (%RSV_WRD_ZEROES);
      188    20122               @VALUE = 0;
      189    20123
      190    20124             SELECT (ELSE);
      191    20125               CALL Z8AE$ERROR (%E$ERROR_IN_ALPHABET_LITERAL,
      192    20126                                @TERMINAL$ -> LX_TERMINAL.LINE,
      193    20127                                @TERMINAL$ -> LX_TERMINAL.COLUMN);
      194    20128               @VALUE = 512;
      195    20129
      196    20130           END; /* Case */
PL6.E3A0      #001=Z8EM$SEMANTICS_DATA_DIV File=Z8EM.:Z8A6TSI                    SAT 08/09/97 12:08 Page:296
      197    20131
      198    20132        %MEND;
      199    20133        %EJECT;
PL6.E3A0      #001=Z8EM$SEMANTICS_DATA_DIV File=Z8EM.:Z8A6TSI                    SAT 08/09/97 12:08 Page:297
      200    20134
      201    20135         %MACRO SAVE_REPORT_TYPE (@REPORT_TYPE = %NO_REPORT_TYPE);
      202    20136           DO;
      203    20137             CALL CHECK_AND_SAVE_ITEM (ADDR(O1COM.LX_STK(O1COM.LX_TOP)),
      204    20138                                       O1COM.REPORT_DD$ -> LX_REPORT_REC.P.TYPE$,
      205    20139                                       %RSV_WRD_TYPE)
      206    20140               WHENRETURN
      207    20141                 DO;
      208    20142                   O1COM.REPORT_DD$ -> LX_REPORT_REC.D.REPORT_TYPE = @REPORT_TYPE;
      209    20143                   O1COM.REPORT_DD$ -> LX_REPORT_REC.CLAUSE_COUNT =
      210    20144                     O1COM.REPORT_DD$ -> LX_REPORT_REC.CLAUSE_COUNT + 1;
      211    20145                 END;
      212    20146
      213    20147           END;
      214    20148         %MEND;
      215    20149
      216    20150         %MACRO NEW_COPY_ID_TREE (@QUAL_ID$ = ,
      217    20151                                  @SUB$     = ,
      218    20152                                  @ACTION# =,
      219    20153                                  @REF$     = );
      220    20154           DO;
      221    20155             %INIT_DEFERED_ID_TREE (@POINTER = "ADDR(TEMP_LX_NODE)",
      222    20156                                    @ACTION_NO# = @ACTION#);
      223    20157             %NEW_COPY_LX_STK (@POINTER = "ADDR(TEMP_LX_NODE) -> DEFERED_ID_TREE.QUAL_ID$",
      224    20158                               @FROM    = @QUAL_ID$);
      225    20159             %IF (TEXTCHAR(@SUB$) ~= '');
      226    20160                %NEW_COPY_LX_STK (@POINTER = "ADDR(TEMP_LX_NODE) -> DEFERED_ID_TREE.SUB$",
      227    20161                                  @FROM    = @SUB$);
      228    20162             %ENDIF;
      229    20163             %IF (TEXTCHAR(@REF$) ~= '');
      230    20164                %NEW_COPY_LX_STK (@POINTER = "ADDR(TEMP_LX_NODE) -> DEFERED_ID_TREE.REF$",
      231    20165                                  @FROM    = @REF$);
      232    20166             %ENDIF;
      233    20167
      234    20168             %NEW_COPY_LX_ITEM (@FROM$ = "ADDR(TEMP_LX_NODE)",
      235    20169                                @TO$   = HEAP$);
      236    20170             %INIT_LX_LARGE (@POINTER = "ADDR(TEMP_LX_NODE)");
PL6.E3A0      #001=Z8EM$SEMANTICS_DATA_DIV File=Z8EM.:Z8A6TSI                    SAT 08/09/97 12:08 Page:298
      237    20171             ADDR(TEMP_LX_NODE) -> LX_LARGE.LARGE_ITEM$ = HEAP$;
      238    20172
      239    20173             %PROPAGATE_TEMP_LX_NODE;
      240    20174           END;
      241    20175         %MEND;
      242    20176         %EJECT;
PL6.E3A0      #001=Z8EM$SEMANTICS_DATA_DIV File=Z8EM.:Z8A6TSI                    SAT 08/09/97 12:08 Page:299
      243    20177
      244    20178
      245    20179
      246    20180
      247    20181        %MACRO ARITH_EXPR_UNARY_OPERATION (@OP = %OP_MINUS);
      248    20182          DO;
      249    20183            %INIT_UNARY_OP (@POINTER = "ADDR(TEMP_LX_NODE)",
      250    20184                            @LINE = "O1COM.LX_STK.LINE(O1COM.LX_TOP - 1)",
      251    20185                            @COLUMN = "O1COM.LX_STK.COLUMN(O1COM.LX_TOP - 1)",
      252    20186                            @OP = @OP);
      253    20187            %PROP_ERR_TEMP_LX_NODE;
      254    20188            %NEW_COPY_LX_STK(@FROM= O1COM.LX_TOP,
      255    20189                             @POINTER = "ADDR(TEMP_LX_NODE) -> UNARY_OP.LOP$");
      256    20190            %PROPAGATE_TEMP_LX_NODE;
      257    20191          END;
      258    20192        %MEND;
      259    20193
      260    20194
      261    20195        %MACRO ARITH_EXPR_BINARY_OPERATION (@OP = %OP_PLUS);
      262    20196          DO;
      263    20197            %INIT_BINARY_OP (@POINTER = "ADDR(TEMP_LX_NODE)",
      264    20198                             @LINE = "O1COM.LX_STK.LINE(O1COM.LX_TOP - 1)",
      265    20199                             @COLUMN = "O1COM.LX_STK.COLUMN(O1COM.LX_TOP - 1)",
      266    20200                             @OP = @OP);
      267    20201            %PROP_ERR_TEMP_LX_NODE;
      268    20202            %NEW_COPY_LX_STK (@FROM = O1COM.LX_TOP,
      269    20203                              @POINTER = "ADDR(TEMP_LX_NODE) -> BINARY_OP.ROP$");
      270    20204            %NEW_COPY_LX_STK (@FROM = "O1COM.LX_TOP - 2",
      271    20205                              @POINTER = "ADDR(TEMP_LX_NODE) -> BINARY_OP.LOP$");
      272    20206            %PROPAGATE_TEMP_LX_NODE;
      273    20207          END;
      274    20208        %MEND;
      275    20209
      276    20210         %MACRO UPDATE_QLT$;
      277    20211           DO;
      278    20212              PREV_QLT$ -> QLT.BROTHER = QLT$$;
      279    20213              QLT$$ -> QLT.FATHER = PREV_QLT$ -> QLT.FATHER;
PL6.E3A0      #001=Z8EM$SEMANTICS_DATA_DIV File=Z8EM.:Z8A6TSI                    SAT 08/09/97 12:08 Page:300
      280    20214              PREV_QLT$ = QLT$$;
      281    20215           END;
      282    20216         %MEND;
      283    20217         %EJECT;
PL6.E3A0      #001=Z8EM$SEMANTICS_DATA_DIV File=Z8EM.:Z8A6TSI                    SAT 08/09/97 12:08 Page:301
      284    20218
      285    20219        /*===========*/
      286    20220    1     ACCESS_MODE: PROC (ACCESS$, ACCESS_MODE);

  20220 35 000002   000032 741200 0     ACCESS_MODE  STX1  ! SECURITY_PGPH_FLAG+1

      287    20221        /*===========*/
      288    20222
      289    20223             /* Functions performed:
      290    20224                  1. Check for duplicate access clauses.
      291    20225                  2. Update FILE_LTS item.
      292    20226             */
      293    20227
      294    20228    2        DCL ACCESS$               PTR;
      295    20229    2        DCL ACCESS_MODE           SBIN;
      296    20230
      297    20231
      298    20232    3        IF O1COM.CURRENT_FILE_LTS$ -> FILE_LTS.ACCESS_MODE = %NOT_SPECIFIED THEN DO;

  20232 35 000003   000045 470400 xsym               LDP0    O1COM+37
        35 000004   000011 235100                    LDA     9,,PR0
        35 000005   000042 601000 35                 TNZ     s:20255

      299    20233    3          O1COM.CURRENT_FILE_LTS$ -> FILE_LTS.ACCESS_MODE = ACCESS_MODE;

  20233 35 000006   000034 471400 0                  LDP1    @ACCESS_MODE
        35 000007   100000 235100                    LDA     0,,PR1
        35 000010   000011 755100                    STA     9,,PR0

      300    20234    3          IF COMCOM.OB.FIPS.LEVEL >= %INT_LEV AND ACCESS_MODE = %DYNAMIC_ACCESS OR

  20234 35 000011   000036 720000 xsym               LXL0    COMCOM+30
        35 000012   000002 100003                    CMPX0   2,DU
        35 000013   000017 604000 35                 TMI     s:20234+6
        35 000014   100000 235100                    LDA     0,,PR1
        35 000015   000003 115007                    CMPA    3,DL
        35 000016   000024 600000 35                 TZE     s:20236
PL6.E3A0      #001=Z8EM$SEMANTICS_DATA_DIV File=Z8EM.:Z8A6TSI                    SAT 08/09/97 12:08 Page:302
        35 000017   000002 100003                    CMPX0   2,DU
        35 000020   000067 604400 35                 TMOZ    s:20276
        35 000021   100000 235100                    LDA     0,,PR1
        35 000022   000002 115007                    CMPA    2,DL
        35 000023   000067 601000 35                 TNZ     s:20276

      301    20235    3              COMCOM.OB.FIPS.LEVEL > %INT_LEV AND ACCESS_MODE = %RANDOM_ACCESS THEN
      302    20236    3            CALL Z8AE$ERROR (%E$LEVEL_CHECK,

  20236 35 000024   000151 236000 xsym               LDQ     O1COM+105
        35 000025   000025 736000                    QLS     21
        35 000026   000002 036000 36                 ADLQ    2
        35 000027   001014 756000 0                  STQ     PROC$+4
        35 000030   000151 236000 xsym               LDQ     O1COM+105
        35 000031   000025 736000                    QLS     21
        35 000032   000003 036000 36                 ADLQ    3
        35 000033   000004 235000 36                 LDA     4
        35 000034   001012 757000 0                  STAQ    PROC$+2
        35 000035   001012 630400 0                  EPPR0   PROC$+2
        35 000036   000000 631400 36                 EPPR1   0
        35 000037   000000 701000 xent               TSX1    Z8AE$ERROR
        35 000040   000000 011000                    NOP     0

      303    20237    3                             O1COM.LX_STK.LINE(O1COM.LX_TOP - 1),
      304    20238    3                             O1COM.LX_STK.COLUMN(O1COM.LX_TOP - 1));
      305    20239    3        END;

  20239 35 000041   000067 710000 35                 TRA     s:20276

      306    20240    2        ELSE
      307    20241               %CONDITIONAL_ERROR (@LX_ITEM$ = ACCESS$,
      308    20242                                   @ERROR#   = %E$DUP_DD_CLAUSE,
      309    20243                                   @LINE     = ACCESS$ -> LX_TERMINAL.LINE,
      310    20244                                   @COLUMN   = ACCESS$ -> LX_TERMINAL.COLUMN,
      311    20245                                   @PLUG1    = "DNT$_FROM_RSWNO(%RSV_WRD_ACCESS)");

  20255 35 000042   000033 471400 0                  LDP1    @ACCESS$
PL6.E3A0      #001=Z8EM$SEMANTICS_DATA_DIV File=Z8EM.:Z8A6TSI                    SAT 08/09/97 12:08 Page:303
        35 000043   100000 473500                    LDP3    0,,PR1
        35 000044   300000 236100                    LDQ     0,,PR3
        35 000045   400000 316007                    CANQ    -131072,DL
        35 000046   000067 601000 35                 TNZ     s:20276

  20257 35 000047   000007 236000 36                 LDQ     7
        35 000050   001015 756000 0                  STQ     PROC$+5
        35 000051   300006 634500                    EPPR4   6,,PR3
        35 000052   001014 454400 0                  STP4    PROC$+4
        35 000053   300005 635500                    EPPR5   5,,PR3
        35 000054   001013 455400 0                  STP5    PROC$+3
        35 000055   000010 236000 36                 LDQ     8
        35 000056   001012 756000 0                  STQ     PROC$+2
        35 000057   001012 630400 0                  EPPR0   PROC$+2
        35 000060   000005 631400 36                 EPPR1   5
        35 000061   000000 701000 xent               TSX1    Z8AE$ERROR
        35 000062   000000 011000                    NOP     0

  20266 35 000063   000033 470400 0                  LDP0    @ACCESS$
        35 000064   000000 471500                    LDP1    0,,PR0
        35 000065   400000 236007                    LDQ     -131072,DL
        35 000066   100000 256100                    ORSQ    0,,PR1

      312    20275
      313    20276    2        IF O1COM.CURRENT_FILE_LTS$ -> FILE_LTS.ORGANIZATION ~= %NOT_SPECIFIED THEN

  20276 35 000067   000045 470400 xsym               LDP0    O1COM+37
        35 000070   000006 235100                    LDA     6,,PR0
        35 000071   000102 600000 35                 TZE     s:20282

      314    20277    2          CALL CHECK_DIFF_ORG_AND_ACCESS (ACCESS$,

  20277 35 000072   000045 236000 xsym               LDQ     O1COM+37
        35 000073   000006 036003                    ADLQ    6,DU
        35 000074   000146 756000 0                  STQ     @ACCESS+1
        35 000075   000034 236000 0                  LDQ     @ACCESS_MODE
        35 000076   000033 235000 0                  LDA     @ACCESS$
PL6.E3A0      #001=Z8EM$SEMANTICS_DATA_DIV File=Z8EM.:Z8A6TSI                    SAT 08/09/97 12:08 Page:304
        35 000077   000144 757000 0                  STAQ    TITEM$+2
        35 000100   003213 701000 35                 TSX1    CHECK_DIFF_ORG_AND_ACCESS
        35 000101   000000 011000                    NOP     0

      315    20278    2                                          ACCESS_MODE,
      316    20279    2                                          O1COM.CURRENT_FILE_LTS$ ->
      317    20280    2                                          FILE_LTS.ORGANIZATION);
      318    20281
      319    20282    2   END ACCESS_MODE;

  20282 35 000102   000032 221200 0                  LDX1  ! SECURITY_PGPH_FLAG+1
        35 000103   000001 702211                    TSX2  ! 1,X1

      320    20283        %EJECT;
PL6.E3A0      #001=Z8EM$SEMANTICS_DATA_DIV File=Z8EM.:Z8A6TSI                    SAT 08/09/97 12:08 Page:305
      321    20284
      322    20285         /*==================*/
      323    20286    1      ALLOCATE_CD_BUFFER: PROC (BUFFER_LENGTH, BUFFER_ST$);

  20286 35 000104   000035 741200 0     ALLOCATE_CD* STX1  ! @ACCESS_MODE+1

      324    20287         /*==================*/
      325    20288
      326    20289
      327    20290        %EQU CD_BUFFER_TEXT = 'CD_BUFFER';
      328    20291        %EQU CD_BUFFER_TEXT_LENGTH = 9;
      329    20292
      330    20293    2   DCL BUFFER_LENGTH          SBIN WORD;
      331    20294    2   DCL BUFFER_ST$             PTR;
      332    20295
      333    20296
      334    20297    2      LEX_SYMBOL.SIZE = %CD_BUFFER_TEXT_LENGTH;

  20297 35 000105   000011 235007                    LDA     9,DL
        35 000106   000010 755000 25                 STA     LEX_SYMBOL+8

      335    20298    2      SUBSTR (LEX_SYMBOL.SYMBOL,

  20298 35 000107   000000 620005                    EAX0    0,AL
        35 000110   040040 100400                    MLR     fill='040'O
        35 000111   000020 000011 34                 ADSC9   RSW_NO+16                cn=0,n=9
        35 000112   000011 000010 25                 ADSC9   LEX_SYMBOL+9             cn=0,n=*X0

      336    20299    2              0,
      337    20300    2              LEX_SYMBOL.SIZE) = %CD_BUFFER_TEXT;
      338    20301
      339    20302    2      CALL Z8AH$SEARCH_;

  20302 35 000113   000011 631400 36                 EPPR1   9
        35 000114   000000 701000 xent               TSX1    Z8AH$SEARCH_
        35 000115   000000 011000                    NOP     0

PL6.E3A0      #001=Z8EM$SEMANTICS_DATA_DIV File=Z8EM.:Z8A6TSI                    SAT 08/09/97 12:08 Page:306
      340    20303
      341    20304    2      CALL CREATE_CD_AREA (DNT$, BUFFER_LENGTH, BUFFER_ST$, %LEVEL_01);

  20304 35 000116   000013 236000 36                 LDQ     11
        35 000117   000037 235000 0                  LDA     @BUFFER_ST$
        35 000120   000232 757000 0                  STAQ    @AREA_LENGTH+1
        35 000121   000036 236000 0                  LDQ     @BUFFER_LENGTH
        35 000122   000014 235000 36                 LDA     12
        35 000123   000230 757000 0                  STAQ    COLL_DNT$+2
        35 000124   006313 701000 35                 TSX1    CREATE_CD_AREA
        35 000125   000000 011000                    NOP     0

      342    20305
      343    20306    2    END ALLOCATE_CD_BUFFER;

  20306 35 000126   000035 221200 0                  LDX1  ! @ACCESS_MODE+1
        35 000127   000001 702211                    TSX2  ! 1,X1

      344    20307         %EJECT;
PL6.E3A0      #001=Z8EM$SEMANTICS_DATA_DIV File=Z8EM.:Z8A6TSI                    SAT 08/09/97 12:08 Page:307
      345    20308
      346    20309         /*=====================*/
      347    20310    1      ALLOCATE_CD_WORK_AREA: PROC (WORK_ST$);

  20310 35 000130   000040 741200 0     ALLOCATE_CD* STX1  ! @BUFFER_ST$+1

      348    20311         /*=====================*/
      349    20312
      350    20313
      351    20314        %EQU CD_ENTRY_TEXT = 'CD_ENTRY';
      352    20315        %EQU CD_ENTRY_TEXT_LENGTH = 8;
      353    20316        %EQU CD_ENTRY_SIZE = 0;
      354    20317
      355    20318        %EQU CD_WORK_TEXT      = 'CD_WORK';
      356    20319        %EQU CD_WORK_TEXT_LENGTH = 7;
      357    20320        %EQU CD_WORK_SIZE      = 28;
      358    20321
      359    20322    2   DCL ENTRY_ST$      PTR;
      360    20323    2   DCL WORK_ST$       PTR;
      361    20324
      362    20325
      363    20326    2      LEX_SYMBOL.SIZE = %CD_ENTRY_TEXT_LENGTH;

  20326 35 000131   000010 235007                    LDA     8,DL
        35 000132   000010 755000 25                 STA     LEX_SYMBOL+8

      364    20327
      365    20328    2      SUBSTR (LEX_SYMBOL.SYMBOL,

  20328 35 000133   000000 620005                    EAX0    0,AL
        35 000134   040040 100400                    MLR     fill='040'O
        35 000135   000023 000010 34                 ADSC9   RSW_NO+19                cn=0,n=8
        35 000136   000011 000010 25                 ADSC9   LEX_SYMBOL+9             cn=0,n=*X0

      366    20329    2              0,
      367    20330    2              LEX_SYMBOL.SIZE) = %CD_ENTRY_TEXT;
      368    20331
PL6.E3A0      #001=Z8EM$SEMANTICS_DATA_DIV File=Z8EM.:Z8A6TSI                    SAT 08/09/97 12:08 Page:308
      369    20332    2      CALL Z8AH$SEARCH_;

  20332 35 000137   000011 631400 36                 EPPR1   9
        35 000140   000000 701000 xent               TSX1    Z8AH$SEARCH_
        35 000141   000000 011000                    NOP     0

      370    20333
      371    20334    2      CALL CREATE_CD_AREA (DNT$,

  20334 35 000142   000016 237000 36                 LDAQ    14
        35 000143   000232 757000 0                  STAQ    @AREA_LENGTH+1
        35 000144   000014 237000 36                 LDAQ    12
        35 000145   000230 757000 0                  STAQ    COLL_DNT$+2
        35 000146   006313 701000 35                 TSX1    CREATE_CD_AREA
        35 000147   000000 011000                    NOP     0

      372    20335    2                           %CD_ENTRY_SIZE,
      373    20336    2                           ENTRY_ST$, %LEVEL_00);
      374    20337
      375    20338    2      LEX_SYMBOL.SIZE = %CD_WORK_TEXT_LENGTH;

  20338 35 000150   000007 235007                    LDA     7,DL
        35 000151   000010 755000 25                 STA     LEX_SYMBOL+8

      376    20339
      377    20340    2      SUBSTR (LEX_SYMBOL.SYMBOL,

  20340 35 000152   000000 620005                    EAX0    0,AL
        35 000153   040040 100400                    MLR     fill='040'O
        35 000154   000025 000007 34                 ADSC9   RSW_NO+21                cn=0,n=7
        35 000155   000011 000010 25                 ADSC9   LEX_SYMBOL+9             cn=0,n=*X0

      378    20341    2              0,
      379    20342    2              LEX_SYMBOL.SIZE) = %CD_WORK_TEXT;
      380    20343
      381    20344    2      CALL Z8AH$SEARCH_;

PL6.E3A0      #001=Z8EM$SEMANTICS_DATA_DIV File=Z8EM.:Z8A6TSI                    SAT 08/09/97 12:08 Page:309
  20344 35 000156   000011 631400 36                 EPPR1   9
        35 000157   000000 701000 xent               TSX1    Z8AH$SEARCH_
        35 000160   000000 011000                    NOP     0

      382    20345
      383    20346    2      CALL CREATE_CD_AREA (DNT$,

  20346 35 000161   000013 236000 36                 LDQ     11
        35 000162   000041 235000 0                  LDA     @WORK_ST$
        35 000163   000232 757000 0                  STAQ    @AREA_LENGTH+1
        35 000164   000022 237000 36                 LDAQ    18
        35 000165   000230 757000 0                  STAQ    COLL_DNT$+2
        35 000166   006313 701000 35                 TSX1    CREATE_CD_AREA
        35 000167   000000 011000                    NOP     0

      384    20347    2                           %CD_WORK_SIZE,
      385    20348    2                           WORK_ST$, %LEVEL_01);
      386    20349
      387    20350    2      ENTRY_ST$ -> CD.ID = %CD;

  20350 35 000170   001004 220003                    LDX0    516,DU
        35 000171   000042 470400 0                  LDP0    ENTRY_ST$
        35 000172   000000 740100                    STX0    0,,PR0

      388    20351    2      ENTRY_ST$ -> CD.B.ELEMENTARY = FALSE;

  20351 35 000173   000042 470400 0                  LDP0    ENTRY_ST$
        35 000174   000021 236000 36                 LDQ     17
        35 000175   000003 356100                    ANSQ    3,,PR0

      389    20352    2      ENTRY_ST$ -> CD.QLT$ -> QLT.BROTHER = ADDR(NIL);

  20352 35 000176   000042 470400 0                  LDP0    ENTRY_ST$
        35 000177   000007 471500                    LDP1    7,,PR0
        35 000200   000024 236000 36                 LDQ     20
        35 000201   100002 756100                    STQ     2,,PR1

PL6.E3A0      #001=Z8EM$SEMANTICS_DATA_DIV File=Z8EM.:Z8A6TSI                    SAT 08/09/97 12:08 Page:310
      390    20353    2      ENTRY_ST$ -> CD.QLT$ -> QLT.SON = WORK_ST$ -> SCALAR.QLT$;

  20353 35 000202   000042 470400 0                  LDP0    ENTRY_ST$
        35 000203   000007 471500                    LDP1    7,,PR0
        35 000204   000041 473400 0                  LDP3    @WORK_ST$
        35 000205   300000 474500                    LDP4    0,,PR3
        35 000206   400007 236100                    LDQ     7,,PR4
        35 000207   100003 756100                    STQ     3,,PR1

      391    20354    2      WORK_ST$ -> SCALAR.QLT$ -> QLT.FATHER = ENTRY_ST$ -> CD.QLT$;

  20354 35 000210   300000 470500                    LDP0    0,,PR3
        35 000211   000007 471500                    LDP1    7,,PR0
        35 000212   000042 474400 0                  LDP4    ENTRY_ST$
        35 000213   400007 236100                    LDQ     7,,PR4
        35 000214   100001 756100                    STQ     1,,PR1

      392    20355
      393    20356    2    END ALLOCATE_CD_WORK_AREA;

  20356 35 000215   000040 221200 0                  LDX1  ! @BUFFER_ST$+1
        35 000216   000001 702211                    TSX2  ! 1,X1

      394    20357         %EJECT;
PL6.E3A0      #001=Z8EM$SEMANTICS_DATA_DIV File=Z8EM.:Z8A6TSI                    SAT 08/09/97 12:08 Page:311
      395    20358        /*=====================*/
      396    20359    1     ALPHABET_ALSO_LITERAL: PROC (ALSO_LIST$, ALPHA_ST$, NEXT_SEQ#);

  20359 35 000217   000043 741200 0     ALPHABET_AL* STX1  ! ENTRY_ST$+1

      397    20360        /*=====================*/
      398    20361
      399    20362    2   DCL ALSO_LIST$         PTR;
      400    20363    2   DCL ALPHA_ST$          PTR;
      401    20364    2   DCL NEXT_SEQ#          UBIN WORD;
      402    20365
      403    20366    2   DCL LIST$              PTR;
      404    20367    2   DCL DNT$$              PTR;
      405    20368
      406    20369
      407    20370    2      LIST$ = ALSO_LIST$;

  20370 35 000220   000044 470400 0                  LDP0    @ALSO_LIST$
        35 000221   000000 236100                    LDQ     0,,PR0
        35 000222   000047 756000 0                  STQ     LIST$

      408    20371
      409    20372    3      DO WHILE (LIST$ ~= ADDR(NIL));

  20372 35 000223   000273 710000 35                 TRA     s:20391

      410    20373             %CHECK_FOR_GTR_1_CHAR (@TERMINAL$ = LIST$, @NEW_DNT$ = DNT$$);

  20375 35 000224   000047 470400 0                  LDP0    LIST$
        35 000225   000003 235100                    LDA     3,,PR0
        35 000226   000003 115007                    CMPA    3,DL
        35 000227   000232 600000 35                 TZE     s:20378
        35 000230   000004 115007                    CMPA    4,DL
        35 000231   000255 601000 35                 TNZ     s:20387

  20378 35 000232   000026 630400 36                 EPPR0   22
        35 000233   000025 631400 36                 EPPR1   21
PL6.E3A0      #001=Z8EM$SEMANTICS_DATA_DIV File=Z8EM.:Z8A6TSI                    SAT 08/09/97 12:08 Page:312
        35 000234   000000 701000 xent               TSX1    Z8EC$INTERNAL_STRING_REP
        35 000235   000000 011000                    NOP     0

  20379 35 000236   000050 470400 0                  LDP0    DNT$$
        35 000237   000004 220100                    LDX0    4,,PR0
        35 000240   000004 100003                    CMPX0   4,DU
        35 000241   000255 602000 35                 TNC     s:20387

  20380 35 000242   000047 236000 0                  LDQ     LIST$
        35 000243   000006 036003                    ADLQ    6,DU
        35 000244   001014 756000 0                  STQ     PROC$+4
        35 000245   000047 236000 0                  LDQ     LIST$
        35 000246   000005 036003                    ADLQ    5,DU
        35 000247   000031 235000 36                 LDA     25
        35 000250   001012 757000 0                  STAQ    PROC$+2
        35 000251   001012 630400 0                  EPPR0   PROC$+2
        35 000252   000000 631400 36                 EPPR1   0
        35 000253   000000 701000 xent               TSX1    Z8AE$ERROR
        35 000254   000000 011000                    NOP     0

      411    20386
      412    20387    3        CALL WALK_LITERAL (LIST$, ALPHA_ST$, NEXT_SEQ#);

  20387 35 000255   000046 236000 0                  LDQ     @NEXT_SEQ#
        35 000256   000776 756000 0                  STQ     @ITEM_ST$$+1
        35 000257   000045 236000 0                  LDQ     @ALPHA_ST$
        35 000260   000026 235000 36                 LDA     22
        35 000261   000774 757000 0                  STAQ    VFC+2
        35 000262   033030 701000 35                 TSX1    WALK_LITERAL
        35 000263   000000 011000                    NOP     0

      413    20388
      414    20389    3        NEXT_SEQ# = NEXT_SEQ# - 1;

  20389 35 000264   000046 470400 0                  LDP0    @NEXT_SEQ#
        35 000265   000000 235100                    LDA     0,,PR0
        35 000266   000001 135007                    SBLA    1,DL
PL6.E3A0      #001=Z8EM$SEMANTICS_DATA_DIV File=Z8EM.:Z8A6TSI                    SAT 08/09/97 12:08 Page:313
        35 000267   000000 755100                    STA     0,,PR0

      415    20390    3        LIST$ = LIST$ -> LX_TERMINAL.LINK;

  20390 35 000270   000047 471400 0                  LDP1    LIST$
        35 000271   100007 236100                    LDQ     7,,PR1
        35 000272   000047 756000 0                  STQ     LIST$

      416    20391    3      END; /* While */

  20391 35 000273   000024 116000 36                 CMPQ    20
        35 000274   000224 601000 35                 TNZ     s:20375

      417    20392
      418    20393    2      NEXT_SEQ# = NEXT_SEQ# + 1;

  20393 35 000275   000046 470400 0                  LDP0    @NEXT_SEQ#
        35 000276   000000 235100                    LDA     0,,PR0
        35 000277   000001 035007                    ADLA    1,DL
        35 000300   000000 755100                    STA     0,,PR0

      419    20394
      420    20395    2   END ALPHABET_ALSO_LITERAL;

  20395 35 000301   000043 221200 0                  LDX1  ! ENTRY_ST$+1
        35 000302   000001 702211                    TSX2  ! 1,X1

      421    20396        %EJECT;
PL6.E3A0      #001=Z8EM$SEMANTICS_DATA_DIV File=Z8EM.:Z8A6TSI                    SAT 08/09/97 12:08 Page:314
      422    20397        /*=============*/
      423    20398    1     ALPHABET_NAME: PROC (ALPHA_KEYWORD$, ALPHA_NAME$, ALPHA_TYPE$);

  20398 35 000303   000051 741200 0     ALPHABET_NA* STX1  ! DNT$$+1

      424    20399        /*=============*/
      425    20400
      426    20401    2   DCL ALPHA_KEYWORD$     PTR;
      427    20402    2   DCL ALPHA_NAME$        PTR;
      428    20403    2   DCL ALPHA_TYPE$        PTR;
      429    20404
      430    20405    2   DCL TYPE_LIST$         PTR;
      431    20406    2   DCL ALPHA_ST$          PTR;
      432    20407    2   DCL TRANS_TABLE$       PTR;
      433    20408    2   DCL NEXT_SEQ#          UBIN WORD;
      434    20409    2   DCL TABLE_ETT$         PTR;
      435    20410    2   DCL COLL_DNT$          PTR;
      436    20411    2   DCL ALPHA_DNT$         PTR;
      437    20412    2   DCL PROC$              PTR;
      438    20413    2   DCL TDNT$              PTR;
      439    20414
      440    20415    2      PROC$ = O1COM.CURRENT_PROC$ -> PROC_.PROC_SUPP$;

  20415 35 000304   000057 470400 xsym               LDP0    O1COM+47
        35 000305   000001 236100                    LDQ     1,,PR0
        35 000306   000064 756000 0                  STQ     PROC$

      441    20416
      442    20417    2      IF COMCOM.OB.FIPS.LEVEL > 0 THEN

  20417 35 000307   000036 720000 xsym               LXL0    COMCOM+30
        35 000310   000332 604400 35                 TMOZ    s:20423

      443    20418    2        IF ALPHA_KEYWORD$ -> LX_TERMINAL.SYMBOL ~= %RSV_WRD_ALPHABET THEN

  20418 35 000311   000052 471400 0                  LDP1    @ALPHA_KEYWORD$
        35 000312   100000 473500                    LDP3    0,,PR1
PL6.E3A0      #001=Z8EM$SEMANTICS_DATA_DIV File=Z8EM.:Z8A6TSI                    SAT 08/09/97 12:08 Page:315
        35 000313   300003 235100                    LDA     3,,PR3
        35 000314   000047 115007                    CMPA    39,DL
        35 000315   000332 600000 35                 TZE     s:20423

      444    20419    2          CALL Z8AE$ERROR (%E$ALPHABET_OMITTED_ANSI,

  20419 35 000316   000053 474400 0                  LDP4    @ALPHA_NAME$
        35 000317   400000 475500                    LDP5    0,,PR4
        35 000320   500006 636500                    EPPR6   6,,PR5
        35 000321   001014 456400 0                  STP6    PROC$+4
        35 000322   500005 633500                    EPPR3   5,,PR5
        35 000323   001013 453400 0                  STP3    PROC$+3
        35 000324   000033 236000 36                 LDQ     27
        35 000325   001012 756000 0                  STQ     PROC$+2
        35 000326   001012 630400 0                  EPPR0   PROC$+2
        35 000327   000000 631400 36                 EPPR1   0
        35 000330   000000 701000 xent               TSX1    Z8AE$ERROR
        35 000331   000000 011000                    NOP     0

      445    20420    2                           ALPHA_NAME$ -> LX_TERMINAL.LINE,
      446    20421    2                           ALPHA_NAME$ -> LX_TERMINAL.COLUMN);
      447    20422
      448    20423    3      IF ALPHA_NAME$ -> LX_TERMINAL.DNT$ -> DNT.B.RW THEN DO ;

  20423 35 000332   000053 470400 0                  LDP0    @ALPHA_NAME$
        35 000333   000000 471500                    LDP1    0,,PR0
        35 000334   100002 473500                    LDP3    2,,PR1
        35 000335   300003 234100                    SZN     3,,PR3
        35 000336   000476 605000 35                 TPL     s:20501

      449    20424
      450    20425    3        CALL Z8AE$ERROR (%E$RW_USED_AS_DATA_NAME,

  20425 35 000337   100002 634500                    EPPR4   2,,PR1
        35 000340   001015 454400 0                  STP4    PROC$+5
        35 000341   100006 633500                    EPPR3   6,,PR1
        35 000342   001014 453400 0                  STP3    PROC$+4
PL6.E3A0      #001=Z8EM$SEMANTICS_DATA_DIV File=Z8EM.:Z8A6TSI                    SAT 08/09/97 12:08 Page:316
        35 000343   100005 635500                    EPPR5   5,,PR1
        35 000344   001013 455400 0                  STP5    PROC$+3
        35 000345   000035 236000 36                 LDQ     29
        35 000346   001012 756000 0                  STQ     PROC$+2
        35 000347   001012 630400 0                  EPPR0   PROC$+2
        35 000350   000005 631400 36                 EPPR1   5
        35 000351   000000 701000 xent               TSX1    Z8AE$ERROR
        35 000352   000000 011000                    NOP     0

      451    20426    3                         ALPHA_NAME$ -> LX_TERMINAL.LINE,
      452    20427    3                         ALPHA_NAME$ -> LX_TERMINAL.COLUMN,
      453    20428    3                         ALPHA_NAME$ -> LX_TERMINAL.DNT$);
      454    20429             /* Create new DNT for non-reserved word since reserved
      455    20430                   word is in constant storage */
      456    20431    3        TDNT$ = ALPHA_NAME$ -> LX_TERMINAL.DNT$;

  20431 35 000353   000053 470400 0                  LDP0    @ALPHA_NAME$
        35 000354   000000 471500                    LDP1    0,,PR0
        35 000355   100002 236100                    LDQ     2,,PR1
        35 000356   000065 756000 0                  STQ     TDNT$

      457    20432             %NEW_DNT(@SIZE = TDNT$ -> DNT.TEXT.LENGTH,
      458    20433                         @POINTER = ALPHA_NAME$ -> LX_TERMINAL.DNT$,
      459    20434                         @NAME = TDNT$ -> DNT.TEXT.NAME,
      460    20435                         @ST$ = TDNT$ -> DNT.ST$,
      461    20436                         @NEXT = "DNT_BUCKETS(DNT_BUCKET_NUMBER)");

  20439 35 000357   000065 473400 0                  LDP3    TDNT$
        35 000360   300004 236100                    LDQ     4,,PR3
        35 000361   000022 772000                    QRL     18
        35 000362   000025 036007                    ADLQ    21,DL
        35 000363   000002 772000                    QRL     2
        35 000364   000000 756000 2                  STQ     ITERATION

  20440 35 000365   000002 036000 15                 ADLQ    DNT_+2
        35 000366   000401 604000 35                 TMI     s:20442
        35 000367   000003 116000 15                 CMPQ    DNT_+3
PL6.E3A0      #001=Z8EM$SEMANTICS_DATA_DIV File=Z8EM.:Z8A6TSI                    SAT 08/09/97 12:08 Page:317
        35 000370   000401 602000 35                 TNC     s:20442

  20441 35 000371   000037 236000 36                 LDQ     31
        35 000372   001012 756000 0                  STQ     PROC$+2
        35 000373   001012 631400 0                  EPPR1   PROC$+2
        35 000374   001013 451400 0                  STP1    PROC$+3
        35 000375   001013 630400 0                  EPPR0   PROC$+3
        35 000376   000036 631400 36                 EPPR1   30
        35 000377   000000 701000 xent               TSX1    Z8AR$RESERVER
        35 000400   000000 011000                    NOP     0

  20442 35 000401   000053 470400 0                  LDP0    @ALPHA_NAME$
        35 000402   000000 471500                    LDP1    0,,PR0
        35 000403   000002 236000 15                 LDQ     DNT_+2
        35 000404   000022 736000                    QLS     18
        35 000405   000001 036000 15                 ADLQ    DNT_+1
        35 000406   100002 756100                    STQ     2,,PR1

  20443 35 000407   000002 236000 15                 LDQ     DNT_+2
        35 000410   000000 036000 2                  ADLQ    ITERATION
        35 000411   000002 756000 15                 STQ     DNT_+2

  20444 35 000412   000000 471500                    LDP1    0,,PR0
        35 000413   100002 473500                    LDP3    2,,PR1
        35 000414   001046 220003                    LDX0    550,DU
        35 000415   300000 740100                    STX0    0,,PR3

  20445 35 000416   000000 471500                    LDP1    0,,PR0
        35 000417   100002 473500                    LDP3    2,,PR1
        35 000420   000000 721000 2                  LXL1    ITERATION
        35 000421   300000 441100                    SXL1    0,,PR3

  20446 35 000422   000000 471500                    LDP1    0,,PR0
        35 000423   100002 473500                    LDP3    2,,PR1
        35 000424   000065 474400 0                  LDP4    TDNT$
        35 000425   400004 221100                    LDX1    4,,PR4
        35 000426   300004 741100                    STX1    4,,PR3
PL6.E3A0      #001=Z8EM$SEMANTICS_DATA_DIV File=Z8EM.:Z8A6TSI                    SAT 08/09/97 12:08 Page:318

  20449 35 000427   000000 471500                    LDP1    0,,PR0
        35 000430   100002 473500                    LDP3    2,,PR1
        35 000431   400001 236100                    LDQ     1,,PR4
        35 000432   300001 756100                    STQ     1,,PR3

  20450 35 000433   000000 471500                    LDP1    0,,PR0
        35 000434   100002 473500                    LDP3    2,,PR1
        35 000435   000000 721000 16                 LXL1    DNT_BUCKET_NUMBER
        35 000436   000000 236011 xsym               LDQ     DNT_BUCKETS,X1
        35 000437   300002 756100                    STQ     2,,PR3

  20451 35 000440   000000 471500                    LDP1    0,,PR0
        35 000441   100002 473500                    LDP3    2,,PR1
        35 000442   000000 222003                    LDX2    0,DU
        35 000443   300003 742100                    STX2    3,,PR3

  20452 35 000444   000000 471500                    LDP1    0,,PR0
        35 000445   100002 473500                    LDP3    2,,PR1
        35 000446   000000 223003                    LDX3    0,DU
        35 000447   300003 443100                    SXL3    3,,PR3

  20453 35 000450   000000 471500                    LDP1    0,,PR0
        35 000451   100002 473500                    LDP3    2,,PR1
        35 000452   300004 224100                    LDX4    4,,PR3
        35 000453   400004 225100                    LDX5    4,,PR4
        35 000454   040140 100540                    MLR     fill='040'O
        35 000455   400004 400015                    ADSC9   4,,PR4                   cn=2,n=*X5
        35 000456   300004 400014                    ADSC9   4,,PR3                   cn=2,n=*X4

      462    20494    3        ALPHA_NAME$ -> LX_TERMINAL.DNT$ -> DNT.ATTR = TDNT$ -> DNT.ATTR;

  20494 35 000457   000000 471500                    LDP1    0,,PR0
        35 000460   100002 473500                    LDP3    2,,PR1
        35 000461   400003 224100                    LDX4    3,,PR4
        35 000462   300003 744100                    STX4    3,,PR3

PL6.E3A0      #001=Z8EM$SEMANTICS_DATA_DIV File=Z8EM.:Z8A6TSI                    SAT 08/09/97 12:08 Page:319
      463    20495    3        ALPHA_NAME$ -> LX_TERMINAL.DNT$ -> DNT.B.USER_WORD = TRUE;

  20495 35 000463   000000 471500                    LDP1    0,,PR0
        35 000464   100002 473500                    LDP3    2,,PR1
        35 000465   200000 236003                    LDQ     65536,DU
        35 000466   300003 256100                    ORSQ    3,,PR3

      464    20496    3        ALPHA_NAME$ -> LX_TERMINAL.DNT$ -> DNT.B.RW = FALSE;

  20496 35 000467   000000 471500                    LDP1    0,,PR0
        35 000470   100002 473500                    LDP3    2,,PR1
        35 000471   000040 236000 36                 LDQ     32
        35 000472   300003 356100                    ANSQ    3,,PR3

      465    20497    3        DNT_BUCKETS(DNT_BUCKET_NUMBER) = ALPHA_NAME$ -> LX_TERMINAL.DNT$;

  20497 35 000473   000000 471500                    LDP1    0,,PR0
        35 000474   100002 236100                    LDQ     2,,PR1
        35 000475   000000 756011 xsym               STQ     DNT_BUCKETS,X1

      466    20498
      467    20499    3      END;

      468    20500
      469    20501    3      DO CASE (ALPHA_TYPE$ -> LX_ITEM.ID);

  20501 35 000476   000054 471400 0                  LDP1    @ALPHA_TYPE$
        35 000477   100000 473500                    LDP3    0,,PR1
        35 000500   300000 220100                    LDX0    0,,PR3
        35 000501   000003 100003                    CMPX0   3,DU
        35 000502   000504 602010 35                 TNC     s:20501+6,X0
        35 000503   000774 710000 35                 TRA     s:20597
        35 000504   000507 710000 35                 TRA     s:20504
        35 000505   000774 710000 35                 TRA     s:20597
        35 000506   000555 710000 35                 TRA     s:20524

      470    20502
PL6.E3A0      #001=Z8EM$SEMANTICS_DATA_DIV File=Z8EM.:Z8A6TSI                    SAT 08/09/97 12:08 Page:320
      471    20503    3        CASE (%LX_TERMINAL);

      472    20504    3          CALL COMMON_ALPHABET_NAME (ALPHA_NAME$,

  20504 35 000507   000041 236000 36                 LDQ     33
        35 000510   000224 756000 0                  STQ     @ALPHA_ST$+1
        35 000511   000042 236000 36                 LDQ     34
        35 000512   000054 235000 0                  LDA     @ALPHA_TYPE$
        35 000513   000222 757000 0                  STAQ    @NAME$+1
        35 000514   000053 236000 0                  LDQ     @ALPHA_NAME$
        35 000515   000221 756000 0                  STQ     TEMP_COLLATING+9
        35 000516   005144 701000 35                 TSX1    COMMON_ALPHABET_NAME
        35 000517   000000 011000                    NOP     0

      473    20505    3                                     ALPHA_TYPE$,
      474    20506    3                                     ALPHA_ST$,
      475    20507    3                                     TABLE_ETT$);
      476    20508
      477    20509    3          ALPHA_NAME$ -> LX_TERMINAL.DNT$ -> DNT.ST$ = ALPHA_ST$;

  20509 35 000520   000053 470400 0                  LDP0    @ALPHA_NAME$
        35 000521   000000 471500                    LDP1    0,,PR0
        35 000522   100002 473500                    LDP3    2,,PR1
        35 000523   000056 236000 0                  LDQ     ALPHA_ST$
        35 000524   300001 756100                    STQ     1,,PR3

      478    20510
      479    20511    3          IF O1COM.COLLATING_SEQ$ ~= ADDR(NIL)

  20511 35 000525   000044 236000 xsym               LDQ     O1COM+36
        35 000526   000024 116000 36                 CMPQ    20
        35 000527   000544 600000 35                 TZE     s:20520
        35 000530   000000 471500                    LDP1    0,,PR0
        35 000531   000044 473400 xsym               LDP3    O1COM+36
        35 000532   300002 236100                    LDQ     2,,PR3
        35 000533   100002 116100                    CMPQ    2,,PR1
        35 000534   000544 601000 35                 TNZ     s:20520
PL6.E3A0      #001=Z8EM$SEMANTICS_DATA_DIV File=Z8EM.:Z8A6TSI                    SAT 08/09/97 12:08 Page:321

      480    20512    3          AND O1COM.COLLATING_SEQ$ -> LX_TERMINAL.DNT$
      481    20513    3          =   ALPHA_NAME$ -> LX_TERMINAL.DNT$ THEN
      482    20514    4            DO;

      483    20515    4              PROC$ -> PROC_SUPP.COLLATING_SEQ$ = ALPHA_ST$;

  20515 35 000535   000056 236000 0                  LDQ     ALPHA_ST$
        35 000536   000064 474400 0                  LDP4    PROC$
        35 000537   400002 756100                    STQ     2,,PR4

      484    20516
      485    20517    4              CALL Z8ED$DISPOSE_ABSSYN_TREE (O1COM.COLLATING_SEQ$);

  20517 35 000540   000043 630400 36                 EPPR0   35
        35 000541   000036 631400 36                 EPPR1   30
        35 000542   000000 701000 xent               TSX1    Z8ED$DISPOSE_ABSSYN_TREE
        35 000543   000000 011000                    NOP     0

      486    20518    4            END;

      487    20519
      488    20520    3          CALL Z8DO$QUALIFY_TERMINAL (ALPHA_NAME$, ALPHA_ST$);

  20520 35 000544   000042 236000 36                 LDQ     34
        35 000545   000053 235000 0                  LDA     @ALPHA_NAME$
        35 000546   001012 757000 0                  STAQ    PROC$+2
        35 000547   001012 630400 0                  EPPR0   PROC$+2
        35 000550   000025 631400 36                 EPPR1   21
        35 000551   000000 701000 xent               TSX1    Z8DO$QUALIFY_TERMINAL
        35 000552   000000 011000                    NOP     0

      489    20521    3          RETURN;

  20521 35 000553   000051 221200 0                  LDX1  ! DNT$$+1
        35 000554   000001 702211                    TSX2  ! 1,X1

PL6.E3A0      #001=Z8EM$SEMANTICS_DATA_DIV File=Z8EM.:Z8A6TSI                    SAT 08/09/97 12:08 Page:322
      490    20522
      491    20523    3        CASE (%LX_LIST);

      492    20524    3          CALL NEW_ALPHABET (ALPHA_NAME$, ALPHA_ST$);

  20524 35 000555   000042 236000 36                 LDQ     34
        35 000556   000053 235000 0                  LDA     @ALPHA_NAME$
        35 000557   000404 757000 0                  STAQ    AREA$+2
        35 000560   013530 701000 35                 TSX1    NEW_ALPHABET
        35 000561   000000 011000                    NOP     0

      493    20525
      494    20526    3          TABLE_ETT$ = ALPHA_ST$ -> ALPHABET.TABLE_ETT$;

  20526 35 000562   000056 470400 0                  LDP0    ALPHA_ST$
        35 000563   000001 236100                    LDQ     1,,PR0
        35 000564   000061 756000 0                  STQ     TABLE_ETT$

      495    20527
      496    20528
      497    20529    3          IF O1COM.COLLATING_SEQ$ ~= ADDR(NIL)

  20529 35 000565   000044 236000 xsym               LDQ     O1COM+36
        35 000566   000024 116000 36                 CMPQ    20
        35 000567   000605 600000 35                 TZE     s:20538
        35 000570   000053 471400 0                  LDP1    @ALPHA_NAME$
        35 000571   100000 473500                    LDP3    0,,PR1
        35 000572   000044 474400 xsym               LDP4    O1COM+36
        35 000573   400002 236100                    LDQ     2,,PR4
        35 000574   300002 116100                    CMPQ    2,,PR3
        35 000575   000605 601000 35                 TNZ     s:20538

      498    20530    3          AND O1COM.COLLATING_SEQ$ -> LX_TERMINAL.DNT$
      499    20531    3          =   ALPHA_NAME$ -> LX_TERMINAL.DNT$ THEN
      500    20532    4            DO;

      501    20533    4              PROC$ -> PROC_SUPP.COLLATING_SEQ$ = ALPHA_ST$;
PL6.E3A0      #001=Z8EM$SEMANTICS_DATA_DIV File=Z8EM.:Z8A6TSI                    SAT 08/09/97 12:08 Page:323

  20533 35 000576   000056 236000 0                  LDQ     ALPHA_ST$
        35 000577   000064 475400 0                  LDP5    PROC$
        35 000600   500002 756100                    STQ     2,,PR5

      502    20534
      503    20535    4              CALL Z8ED$DISPOSE_ABSSYN_TREE (O1COM.COLLATING_SEQ$);

  20535 35 000601   000043 630400 36                 EPPR0   35
        35 000602   000036 631400 36                 EPPR1   30
        35 000603   000000 701000 xent               TSX1    Z8ED$DISPOSE_ABSSYN_TREE
        35 000604   000000 011000                    NOP     0

      504    20536    4            END;

      505    20537
      506    20538    3          TRANS_TABLE$ = TABLE_ETT$ -> ETT.LOP -> CONST.CONST$.PTR$;

  20538 35 000605   000061 470400 0                  LDP0    TABLE_ETT$
        35 000606   000001 471500                    LDP1    1,,PR0
        35 000607   100010 236100                    LDQ     8,,PR1
        35 000610   000057 756000 0                  STQ     TRANS_TABLE$

      507    20539
      508    20540    3          CALL INITIALIZE_TRANS_TABLE (TRANS_TABLE$);

  20540 35 000611   000044 236000 36                 LDQ     36
        35 000612   000341 756000 0                  STQ     @BUFFER_LENGTH+2
        35 000613   011565 701000 35                 TSX1    INITIALIZE_TRANS_TABLE
        35 000614   000000 011000                    NOP     0

      509    20541
      510    20542    3          NEXT_SEQ#  = 000;

  20542 35 000615   000060 450000 0                  STZ     NEXT_SEQ#

      511    20543
PL6.E3A0      #001=Z8EM$SEMANTICS_DATA_DIV File=Z8EM.:Z8A6TSI                    SAT 08/09/97 12:08 Page:324
      512    20544    3          TYPE_LIST$ = ALPHA_TYPE$ -> LX_LIST.HEAD$;

  20544 35 000616   000054 470400 0                  LDP0    @ALPHA_TYPE$
        35 000617   000000 471500                    LDP1    0,,PR0
        35 000620   100004 236100                    LDQ     4,,PR1
        35 000621   000055 756000 0                  STQ     TYPE_LIST$

      513    20545
      514    20546    4          IF COMCOM.OB.FIPS.LEVEL >= %INT_LEV THEN DO;

  20546 35 000622   000036 720000 xsym               LXL0    COMCOM+30
        35 000623   000002 100003                    CMPX0   2,DU
        35 000624   000644 604000 35                 TMI     s:20553

      515    20547    4            IF ALPHA_KEYWORD$ -> LX_TERMINAL.SYMBOL = %RSV_WRD_ALPHABET THEN

  20547 35 000625   000052 473400 0                  LDP3    @ALPHA_KEYWORD$
        35 000626   300000 474500                    LDP4    0,,PR3
        35 000627   400003 235100                    LDA     3,,PR4
        35 000630   000047 115007                    CMPA    39,DL
        35 000631   000644 601000 35                 TNZ     s:20553

      516    20548    4            CALL Z8AE$ERROR (%E$LEVEL_CHECK,

  20548 35 000632   400006 635500                    EPPR5   6,,PR4
        35 000633   001014 455400 0                  STP5    PROC$+4
        35 000634   400005 631500                    EPPR1   5,,PR4
        35 000635   001013 451400 0                  STP1    PROC$+3
        35 000636   000004 236000 36                 LDQ     4
        35 000637   001012 756000 0                  STQ     PROC$+2
        35 000640   001012 630400 0                  EPPR0   PROC$+2
        35 000641   000000 631400 36                 EPPR1   0
        35 000642   000000 701000 xent               TSX1    Z8AE$ERROR
        35 000643   000000 011000                    NOP     0

      517    20549    4                             ALPHA_KEYWORD$ -> LX_TERMINAL.LINE,
      518    20550    4                             ALPHA_KEYWORD$ -> LX_TERMINAL.COLUMN);
PL6.E3A0      #001=Z8EM$SEMANTICS_DATA_DIV File=Z8EM.:Z8A6TSI                    SAT 08/09/97 12:08 Page:325
      519    20551    4          END;

      520    20552
      521    20553    4          DO WHILE (TYPE_LIST$ ~= ADDR(NIL));

  20553 35 000644   000745 710000 35                 TRA     s:20588

      522    20554
      523    20555    5            DO CASE (TYPE_LIST$ -> LX_ITEM.ID);

  20555 35 000645   000055 470400 0                  LDP0    TYPE_LIST$
        35 000646   000000 220100                    LDX0    0,,PR0
        35 000647   000003 100003                    CMPX0   3,DU
        35 000650   000652 602010 35                 TNC     s:20555+5,X0
        35 000651   000736 710000 35                 TRA     s:20584
        35 000652   000736 710000 35                 TRA     s:20584
        35 000653   000736 710000 35                 TRA     s:20584
        35 000654   000655 710000 35                 TRA     s:20558

      524    20556
      525    20557    5              CASE (%LX_LIST);

      526    20558    6                DO CASE (TYPE_LIST$ -> LX_LIST.HEAD$ -> LX_ITEM.ID);

  20558 35 000655   000004 471500                    LDP1    4,,PR0
        35 000656   100000 221100                    LDX1    0,,PR1
        35 000657   000003 101003                    CMPX1   3,DU
        35 000660   000662 602011 35                 TNC     s:20558+5,X1
        35 000661   000731 710000 35                 TRA     s:20580
        35 000662   000665 710000 35                 TRA     s:20561
        35 000663   000731 710000 35                 TRA     s:20580
        35 000664   000717 710000 35                 TRA     s:20575

      527    20559
      528    20560    6                  CASE (%LX_TERMINAL);

      529    20561    6                    IF TYPE_LIST$ -> LX_LIST.COUNT = 1 THEN
PL6.E3A0      #001=Z8EM$SEMANTICS_DATA_DIV File=Z8EM.:Z8A6TSI                    SAT 08/09/97 12:08 Page:326

  20561 35 000665   000002 235100                    LDA     2,,PR0
        35 000666   000001 115007                    CMPA    1,DL
        35 000667   000702 601000 35                 TNZ     s:20567

      530    20562    6                      CALL WALK_LITERAL (TYPE_LIST$ -> LX_LIST.HEAD$,

  20562 35 000670   000045 236000 36                 LDQ     37
        35 000671   000776 756000 0                  STQ     @ITEM_ST$$+1
        35 000672   000042 236000 36                 LDQ     34
        35 000673   000775 756000 0                  STQ     @LITERAL$+1
        35 000674   000055 236000 0                  LDQ     TYPE_LIST$
        35 000675   000004 036003                    ADLQ    4,DU
        35 000676   000774 756000 0                  STQ     VFC+2
        35 000677   033030 701000 35                 TSX1    WALK_LITERAL
        35 000700   000000 011000                    NOP     0
        35 000701   000742 710000 35                 TRA     s:20587

      531    20563    6                                             ALPHA_ST$,
      532    20564    6                                             NEXT_SEQ#);
      533    20565    6                    ELSE
      534    20566    7                      DO;

      535    20567    7                        ALPHA_ST$ -> ALPHABET.B.ALSO = TRUE;

  20567 35 000702   000056 473400 0                  LDP3    ALPHA_ST$
        35 000703   400000 236003                    LDQ     -131072,DU
        35 000704   300003 256100                    ORSQ    3,,PR3

      536    20568
      537    20569    7                        CALL ALPHABET_ALSO_LITERAL (TYPE_LIST$ -> LX_LIST.HEAD$,

  20569 35 000705   000045 236000 36                 LDQ     37
        35 000706   000046 756000 0                  STQ     @NEXT_SEQ#
        35 000707   000042 236000 36                 LDQ     34
        35 000710   000045 756000 0                  STQ     @ALPHA_ST$
        35 000711   000055 236000 0                  LDQ     TYPE_LIST$
PL6.E3A0      #001=Z8EM$SEMANTICS_DATA_DIV File=Z8EM.:Z8A6TSI                    SAT 08/09/97 12:08 Page:327
        35 000712   000004 036003                    ADLQ    4,DU
        35 000713   000044 756000 0                  STQ     @ALSO_LIST$
        35 000714   000217 701000 35                 TSX1    ALPHABET_ALSO_LITERAL
        35 000715   000000 011000                    NOP     0

      538    20570    7                                                    ALPHA_ST$,
      539    20571    7                                                    NEXT_SEQ#);
      540    20572    7                      END;

  20572 35 000716   000742 710000 35                 TRA     s:20587

      541    20573
      542    20574    6                  CASE (%LX_LIST);

      543    20575    6                    CALL LIT_THRU_LIT (TYPE_LIST$ -> LX_LIST.HEAD$,

  20575 35 000717   000045 236000 36                 LDQ     37
        35 000720   000356 756000 0                  STQ     @ITEM_ST$$+1
        35 000721   000042 236000 36                 LDQ     34
        35 000722   000355 756000 0                  STQ     @LIT_THRU_LIST$+1
        35 000723   000055 236000 0                  LDQ     TYPE_LIST$
        35 000724   000004 036003                    ADLQ    4,DU
        35 000725   000354 756000 0                  STQ     DNT$$+2
        35 000726   012147 701000 35                 TSX1    LIT_THRU_LIT
        35 000727   000000 011000                    NOP     0
        35 000730   000742 710000 35                 TRA     s:20587

      544    20576    6                                                ALPHA_ST$,
      545    20577    6                                                NEXT_SEQ#);
      546    20578
      547    20579    6                  CASE (ELSE);

      548    20580    6                    CALL Z8AE$ERROR (%E$UNEXPECTED_CASE);

  20580 35 000731   000047 630400 36                 EPPR0   39
        35 000732   000036 631400 36                 EPPR1   30
        35 000733   000000 701000 xent               TSX1    Z8AE$ERROR
PL6.E3A0      #001=Z8EM$SEMANTICS_DATA_DIV File=Z8EM.:Z8A6TSI                    SAT 08/09/97 12:08 Page:328
        35 000734   000000 011000                    NOP     0

      549    20581    6                END; /* Case */

  20581 35 000735   000742 710000 35                 TRA     s:20587

      550    20582
      551    20583    5              CASE (ELSE);

      552    20584    5                CALL Z8AE$ERROR (%E$UNEXPECTED_CASE);

  20584 35 000736   000047 630400 36                 EPPR0   39
        35 000737   000036 631400 36                 EPPR1   30
        35 000740   000000 701000 xent               TSX1    Z8AE$ERROR
        35 000741   000000 011000                    NOP     0

      553    20585    5            END; /* Case */

      554    20586
      555    20587    4            TYPE_LIST$ = TYPE_LIST$ -> LX_ITEM.LINK;

  20587 35 000742   000055 470400 0                  LDP0    TYPE_LIST$
        35 000743   000007 236100                    LDQ     7,,PR0
        35 000744   000055 756000 0                  STQ     TYPE_LIST$

      556    20588    4          END; /* While */

  20588 35 000745   000055 236000 0                  LDQ     TYPE_LIST$
        35 000746   000024 116000 36                 CMPQ    20
        35 000747   000645 601000 35                 TNZ     s:20555

      557    20589
      558    20590    3          CALL PROCESS_REMAINING_TABLE (ALPHA_ST$, NEXT_SEQ#);

  20590 35 000750   000050 237000 36                 LDAQ    40
        35 000751   000540 757000 0                  STAQ    OCCURS_INT+2
        35 000752   023462 701000 35                 TSX1    PROCESS_REMAINING_TABLE
PL6.E3A0      #001=Z8EM$SEMANTICS_DATA_DIV File=Z8EM.:Z8A6TSI                    SAT 08/09/97 12:08 Page:329
        35 000753   000000 011000                    NOP     0

      559    20591
      560    20592    3          CALL Z8DO$QUALIFY_TERMINAL (ALPHA_NAME$, ALPHA_ST$);

  20592 35 000754   000042 236000 36                 LDQ     34
        35 000755   000053 235000 0                  LDA     @ALPHA_NAME$
        35 000756   001012 757000 0                  STAQ    PROC$+2
        35 000757   001012 630400 0                  EPPR0   PROC$+2
        35 000760   000025 631400 36                 EPPR1   21
        35 000761   000000 701000 xent               TSX1    Z8DO$QUALIFY_TERMINAL
        35 000762   000000 011000                    NOP     0

      561    20593
      562    20594    3          CALL Z8ED$DISPOSE_ABSSYN_TREE ( ALPHA_TYPE$ -> LX_LIST.HEAD$ );

  20594 35 000763   000054 470400 0                  LDP0    @ALPHA_TYPE$
        35 000764   000000 471500                    LDP1    0,,PR0
        35 000765   100004 633500                    EPPR3   4,,PR1
        35 000766   001012 453400 0                  STP3    PROC$+2
        35 000767   001012 630400 0                  EPPR0   PROC$+2
        35 000770   000036 631400 36                 EPPR1   30
        35 000771   000000 701000 xent               TSX1    Z8ED$DISPOSE_ABSSYN_TREE
        35 000772   000000 011000                    NOP     0
        35 000773   001007 710000 35                 TRA     s:20603

      563    20595
      564    20596    3        CASE (ELSE);

      565    20597    3          CALL Z8AE$ERROR (%E$UNEXPECTED_CASE,

  20597 35 000774   000000 474500                    LDP4    0,,PR0
        35 000775   400006 635500                    EPPR5   6,,PR4
        35 000776   001014 455400 0                  STP5    PROC$+4
        35 000777   400005 633500                    EPPR3   5,,PR4
        35 001000   001013 453400 0                  STP3    PROC$+3
        35 001001   000047 236000 36                 LDQ     39
PL6.E3A0      #001=Z8EM$SEMANTICS_DATA_DIV File=Z8EM.:Z8A6TSI                    SAT 08/09/97 12:08 Page:330
        35 001002   001012 756000 0                  STQ     PROC$+2
        35 001003   001012 630400 0                  EPPR0   PROC$+2
        35 001004   000000 631400 36                 EPPR1   0
        35 001005   000000 701000 xent               TSX1    Z8AE$ERROR
        35 001006   000000 011000                    NOP     0

      566    20598    3                           ALPHA_NAME$ -> LX_TERMINAL.LINE,
      567    20599    3                           ALPHA_NAME$ -> LX_TERMINAL.COLUMN);
      568    20600
      569    20601    3      END; /* Case */

      570    20602
      571    20603    2   END ALPHABET_NAME;

  20603 35 001007   000051 221200 0                  LDX1  ! DNT$$+1
        35 001010   000001 702211                    TSX2  ! 1,X1

      572    20604        %EJECT;
PL6.E3A0      #001=Z8EM$SEMANTICS_DATA_DIV File=Z8EM.:Z8A6TSI                    SAT 08/09/97 12:08 Page:331
      573    20605        /*=======*/
      574    20606    1     ALT_KEY: PROC (KEY$);

  20606 35 001011   000066 741200 0     ALT_KEY      STX1  ! TDNT$+1

      575    20607        /*=======*/
      576    20608
      577    20609    2        DCL KEY$          PTR;
      578    20610    2        DCL ITEM$         PTR;
      579    20611    2        DCL LIST$         PTR;
      580    20612    2        DCL KEY_LIST$     PTR;
      581    20613
      582    20614
      583    20615    2        LIST$ = O1COM.CURRENT_FILE_LTS$ -> FILE_LTS.ALT_RECORD_KEY$;

  20615 35 001012   000045 470400 xsym               LDP0    O1COM+37
        35 001013   000016 236100                    LDQ     14,,PR0
        35 001014   000071 756000 0                  STQ     LIST$

      584    20616
      585    20617    2        CALL CHECK_SEQ_ORG (KEY$ -> LX_LIST.HEAD$)

  20617 35 001015   000067 471400 0                  LDP1    @KEY$
        35 001016   100000 473500                    LDP3    0,,PR1
        35 001017   300004 634500                    EPPR4   4,,PR3
        35 001020   000171 454400 0                  STP4    @TERMINAL$+2
        35 001021   004106 701000 35                 TSX1    CHECK_SEQ_ORG
        35 001022   001024 702000 35                 TSX2    s:20620
        35 001023   001036 710000 35                 TRA     s:20624

      586    20618    2          WHENALTRETURN
      587    20619    3            DO;

      588    20620    3              CALL Z8ED$DISPOSE_ABSSYN_TREE (KEY$ -> LX_LIST.HEAD$);

  20620 35 001024   000067 470400 0                  LDP0    @KEY$
        35 001025   000000 471500                    LDP1    0,,PR0
PL6.E3A0      #001=Z8EM$SEMANTICS_DATA_DIV File=Z8EM.:Z8A6TSI                    SAT 08/09/97 12:08 Page:332
        35 001026   100004 633500                    EPPR3   4,,PR1
        35 001027   001012 453400 0                  STP3    PROC$+2
        35 001030   001012 630400 0                  EPPR0   PROC$+2
        35 001031   000036 631400 36                 EPPR1   30
        35 001032   000000 701000 xent               TSX1    Z8ED$DISPOSE_ABSSYN_TREE
        35 001033   000000 011000                    NOP     0

      589    20621    3              RETURN;

  20621 35 001034   000066 221200 0                  LDX1  ! TDNT$+1
        35 001035   000001 702211                    TSX2  ! 1,X1

      590    20622    3            END;
      591    20623
      592    20624    2        CALL CHECK_REL_ORG (KEY$ -> LX_LIST.HEAD$)

  20624 35 001036   000067 470400 0                  LDP0    @KEY$
        35 001037   000000 471500                    LDP1    0,,PR0
        35 001040   100004 633500                    EPPR3   4,,PR1
        35 001041   000167 453400 0                  STP3    @DNT$+2
        35 001042   004026 701000 35                 TSX1    CHECK_REL_ORG
        35 001043   001045 702000 35                 TSX2    s:20627
        35 001044   001057 710000 35                 TRA     s:20631

      593    20625    2          WHENALTRETURN
      594    20626    3            DO;

      595    20627    3              CALL Z8ED$DISPOSE_ABSSYN_TREE (KEY$ -> LX_LIST.HEAD$);

  20627 35 001045   000067 470400 0                  LDP0    @KEY$
        35 001046   000000 471500                    LDP1    0,,PR0
        35 001047   100004 633500                    EPPR3   4,,PR1
        35 001050   001012 453400 0                  STP3    PROC$+2
        35 001051   001012 630400 0                  EPPR0   PROC$+2
        35 001052   000036 631400 36                 EPPR1   30
        35 001053   000000 701000 xent               TSX1    Z8ED$DISPOSE_ABSSYN_TREE
        35 001054   000000 011000                    NOP     0
PL6.E3A0      #001=Z8EM$SEMANTICS_DATA_DIV File=Z8EM.:Z8A6TSI                    SAT 08/09/97 12:08 Page:333

      596    20628    3              RETURN;

  20628 35 001055   000066 221200 0                  LDX1  ! TDNT$+1
        35 001056   000001 702211                    TSX2  ! 1,X1

      597    20629    3            END;
      598    20630
      599    20631    2        CALL CHECK_KEY_ORG (KEY$ -> LX_LIST.HEAD$)

  20631 35 001057   000067 470400 0                  LDP0    @KEY$
        35 001060   000000 471500                    LDP1    0,,PR0
        35 001061   100004 633500                    EPPR3   4,,PR1
        35 001062   000163 453400 0                  STP3    @TERMINAL$+2
        35 001063   003671 701000 35                 TSX1    CHECK_KEY_ORG
        35 001064   001066 702000 35                 TSX2    s:20634
        35 001065   001100 710000 35                 TRA     s:20639

      600    20632    2          WHENALTRETURN
      601    20633    3            DO;

      602    20634    3              CALL Z8ED$DISPOSE_ABSSYN_TREE (KEY$ -> LX_LIST.HEAD$);

  20634 35 001066   000067 470400 0                  LDP0    @KEY$
        35 001067   000000 471500                    LDP1    0,,PR0
        35 001070   100004 633500                    EPPR3   4,,PR1
        35 001071   001012 453400 0                  STP3    PROC$+2
        35 001072   001012 630400 0                  EPPR0   PROC$+2
        35 001073   000036 631400 36                 EPPR1   30
        35 001074   000000 701000 xent               TSX1    Z8ED$DISPOSE_ABSSYN_TREE
        35 001075   000000 011000                    NOP     0

      603    20635    3              RETURN;

  20635 35 001076   000066 221200 0                  LDX1  ! TDNT$+1
        35 001077   000001 702211                    TSX2  ! 1,X1

PL6.E3A0      #001=Z8EM$SEMANTICS_DATA_DIV File=Z8EM.:Z8A6TSI                    SAT 08/09/97 12:08 Page:334
      604    20636    3            END;
      605    20637
      606    20638
      607    20639    2        IF LIST$ = ADDR(NIL) THEN

  20639 35 001100   000071 236000 0                  LDQ     LIST$
        35 001101   000024 116000 36                 CMPQ    20
        35 001102   001130 601000 35                 TNZ     s:20665

      608    20640    3          DO;

      609    20641                 %NEW_HEAP (@POINTER = LIST$);

  20643 35 001103   000053 630400 36                 EPPR0   43
        35 001104   000025 631400 36                 EPPR1   21
        35 001105   000000 701000 xent               TSX1    Z8ED$NEW_HEAP
        35 001106   000000 011000                    NOP     0

      610    20646
      611    20647                 %INIT_LX_LIST (@POINTER = LIST$);

  20649 35 001107   000002 220003                    LDX0    2,DU
        35 001110   000071 470400 0                  LDP0    LIST$
        35 001111   000000 740100                    STX0    0,,PR0

  20650 35 001112   000000 221003                    LDX1    0,DU
        35 001113   000071 470400 0                  LDP0    LIST$
        35 001114   000000 441100                    SXL1    0,,PR0

  20651 35 001115   000024 236000 36                 LDQ     20
        35 001116   000071 470400 0                  LDP0    LIST$
        35 001117   000001 756100                    STQ     1,,PR0

  20652 35 001120   000024 236000 36                 LDQ     20
        35 001121   000071 470400 0                  LDP0    LIST$
        35 001122   000004 756100                    STQ     4,,PR0

PL6.E3A0      #001=Z8EM$SEMANTICS_DATA_DIV File=Z8EM.:Z8A6TSI                    SAT 08/09/97 12:08 Page:335
  20653 35 001123   000024 236000 36                 LDQ     20
        35 001124   000071 470400 0                  LDP0    LIST$
        35 001125   000007 756100                    STQ     7,,PR0

  20654 35 001126   000071 470400 0                  LDP0    LIST$
        35 001127   000002 450100                    STZ     2,,PR0

      612    20657    3          END;

      613    20658
      614    20659             %NEW_COPY_LX_ITEM (@FROM$ = KEY$,
      615    20660                                @TO$   = ITEM$);

  20665 35 001130   000055 630400 36                 EPPR0   45
        35 001131   000025 631400 36                 EPPR1   21
        35 001132   000000 701000 xent               TSX1    Z8ED$NEW_HEAP
        35 001133   000000 011000                    NOP     0

  20668 35 001134   000067 470400 0                  LDP0    @KEY$
        35 001135   000000 471500                    LDP1    0,,PR0
        35 001136   000070 473400 0                  LDP3    ITEM$
        35 001137   000100 100500                    MLR     fill='000'O
        35 001140   100000 000040                    ADSC9   0,,PR1                   cn=0,n=32
        35 001141   300000 000040                    ADSC9   0,,PR3                   cn=0,n=32

  20669 35 001142   000024 236000 36                 LDQ     20
        35 001143   000070 471400 0                  LDP1    ITEM$
        35 001144   100007 756100                    STQ     7,,PR1

      616    20672
      617    20673             %NEW_HEAP (@POINTER = KEY_LIST$);

  20675 35 001145   000057 630400 36                 EPPR0   47
        35 001146   000025 631400 36                 EPPR1   21
        35 001147   000000 701000 xent               TSX1    Z8ED$NEW_HEAP
        35 001150   000000 011000                    NOP     0

PL6.E3A0      #001=Z8EM$SEMANTICS_DATA_DIV File=Z8EM.:Z8A6TSI                    SAT 08/09/97 12:08 Page:336
      618    20678
      619    20679             %INIT_LX_LIST (@POINTER = KEY_LIST$);

  20681 35 001151   000002 220003                    LDX0    2,DU
        35 001152   000072 470400 0                  LDP0    KEY_LIST$
        35 001153   000000 740100                    STX0    0,,PR0

  20682 35 001154   000000 221003                    LDX1    0,DU
        35 001155   000072 470400 0                  LDP0    KEY_LIST$
        35 001156   000000 441100                    SXL1    0,,PR0

  20683 35 001157   000024 236000 36                 LDQ     20
        35 001160   000072 470400 0                  LDP0    KEY_LIST$
        35 001161   000001 756100                    STQ     1,,PR0

  20684 35 001162   000024 236000 36                 LDQ     20
        35 001163   000072 470400 0                  LDP0    KEY_LIST$
        35 001164   000004 756100                    STQ     4,,PR0

  20685 35 001165   000024 236000 36                 LDQ     20
        35 001166   000072 470400 0                  LDP0    KEY_LIST$
        35 001167   000007 756100                    STQ     7,,PR0

  20686 35 001170   000072 470400 0                  LDP0    KEY_LIST$
        35 001171   000002 450100                    STZ     2,,PR0

      620    20689
      621    20690             %ADD_LX_ITEM_TO_LIST_TAIL (@LIST$ = KEY_LIST$,
      622    20691                                        @FROM$ = ITEM$);

  20693 35 001172   000024 236000 36                 LDQ     20
        35 001173   000070 470400 0                  LDP0    ITEM$
        35 001174   000007 756100                    STQ     7,,PR0

  20694 35 001175   000072 470400 0                  LDP0    KEY_LIST$
        35 001176   000002 235100                    LDA     2,,PR0
        35 001177   001206 601000 35                 TNZ     s:20701
PL6.E3A0      #001=Z8EM$SEMANTICS_DATA_DIV File=Z8EM.:Z8A6TSI                    SAT 08/09/97 12:08 Page:337

  20696 35 001200   000070 236000 0                  LDQ     ITEM$
        35 001201   000004 756100                    STQ     4,,PR0

  20697 35 001202   000070 236000 0                  LDQ     ITEM$
        35 001203   000072 470400 0                  LDP0    KEY_LIST$
        35 001204   000001 756100                    STQ     1,,PR0

  20698 35 001205   001214 710000 35                 TRA     s:20704

  20701 35 001206   000001 471500                    LDP1    1,,PR0
        35 001207   000070 236000 0                  LDQ     ITEM$
        35 001210   100007 756100                    STQ     7,,PR1

  20702 35 001211   000070 236000 0                  LDQ     ITEM$
        35 001212   000072 470400 0                  LDP0    KEY_LIST$
        35 001213   000001 756100                    STQ     1,,PR0

  20704 35 001214   000072 470400 0                  LDP0    KEY_LIST$
        35 001215   000002 054100                    AOS     2,,PR0

      623    20707
      624    20708             %ADD_LX_ITEM_TO_LIST_TAIL (@LIST$ = LIST$,
      625    20709                                        @FROM$ = KEY_LIST$);

  20711 35 001216   000024 236000 36                 LDQ     20
        35 001217   000072 470400 0                  LDP0    KEY_LIST$
        35 001220   000007 756100                    STQ     7,,PR0

  20712 35 001221   000071 470400 0                  LDP0    LIST$
        35 001222   000002 235100                    LDA     2,,PR0
        35 001223   001232 601000 35                 TNZ     s:20719

  20714 35 001224   000072 236000 0                  LDQ     KEY_LIST$
        35 001225   000004 756100                    STQ     4,,PR0

  20715 35 001226   000072 236000 0                  LDQ     KEY_LIST$
PL6.E3A0      #001=Z8EM$SEMANTICS_DATA_DIV File=Z8EM.:Z8A6TSI                    SAT 08/09/97 12:08 Page:338
        35 001227   000071 470400 0                  LDP0    LIST$
        35 001230   000001 756100                    STQ     1,,PR0

  20716 35 001231   001240 710000 35                 TRA     s:20722

  20719 35 001232   000001 471500                    LDP1    1,,PR0
        35 001233   000072 236000 0                  LDQ     KEY_LIST$
        35 001234   100007 756100                    STQ     7,,PR1

  20720 35 001235   000072 236000 0                  LDQ     KEY_LIST$
        35 001236   000071 470400 0                  LDP0    LIST$
        35 001237   000001 756100                    STQ     1,,PR0

  20722 35 001240   000071 470400 0                  LDP0    LIST$
        35 001241   000002 054100                    AOS     2,,PR0

      626    20725
      627    20726    2        O1COM.CURRENT_ALT_KEY = TRUE;

  20726 35 001242   400000 236003                    LDQ     -131072,DU
        35 001243   000046 756000 xsym               STQ     O1COM+38

      628    20727    2        O1COM.CURRENT_FILE_LTS$ -> FILE_LTS.ALT_RECORD_KEY$ = LIST$;

  20727 35 001244   000071 236000 0                  LDQ     LIST$
        35 001245   000045 470400 xsym               LDP0    O1COM+37
        35 001246   000016 756100                    STQ     14,,PR0

      629    20728
      630    20729
      631    20730    2   END ALT_KEY;

  20730 35 001247   000066 221200 0                  LDX1  ! TDNT$+1
        35 001250   000001 702211                    TSX2  ! 1,X1

      632    20731        %EJECT;
PL6.E3A0      #001=Z8EM$SEMANTICS_DATA_DIV File=Z8EM.:Z8A6TSI                    SAT 08/09/97 12:08 Page:339
      633    20732        /*====================*/
      634    20733    1     ANSI_ATTRIBUTE_CHECK: PROC (ATTR$);

  20733 35 001251   000073 741200 0     ANSI_ATTRIB* STX1  ! KEY_LIST$+1

      635    20734        /*====================*/
      636    20735
      637    20736    2     DCL ATTR$ PTR;
      638    20737
      639    20738    2     IF COMCOM.OB.FIPS.LEVEL > 0 THEN

  20738 35 001252   000036 720000 xsym               LXL0    COMCOM+30
        35 001253   001270 604400 35                 TMOZ    s:20742

      640    20739    2       CALL Z8AE$ERROR (%E$NON_ANSI_FILE_ATTR,

  20739 35 001254   000074 470400 0                  LDP0    @ATTR$
        35 001255   000000 471500                    LDP1    0,,PR0
        35 001256   100006 633500                    EPPR3   6,,PR1
        35 001257   001014 453400 0                  STP3    PROC$+4
        35 001260   100005 634500                    EPPR4   5,,PR1
        35 001261   001013 454400 0                  STP4    PROC$+3
        35 001262   000062 236000 36                 LDQ     50
        35 001263   001012 756000 0                  STQ     PROC$+2
        35 001264   001012 630400 0                  EPPR0   PROC$+2
        35 001265   000000 631400 36                 EPPR1   0
        35 001266   000000 701000 xent               TSX1    Z8AE$ERROR
        35 001267   000000 011000                    NOP     0

      641    20740    2                        ATTR$ -> LX_TERMINAL.LINE,
      642    20741    2                        ATTR$ -> LX_TERMINAL.COLUMN);
      643    20742    2   END ANSI_ATTRIBUTE_CHECK;

  20742 35 001270   000073 221200 0                  LDX1  ! KEY_LIST$+1
        35 001271   000001 702211                    TSX2  ! 1,X1

      644    20743        %EJECT;
PL6.E3A0      #001=Z8EM$SEMANTICS_DATA_DIV File=Z8EM.:Z8A6TSI                    SAT 08/09/97 12:08 Page:340
      645    20744        /*==================*/
      646    20745    1     APPEND_DD_CLAUSES : PROC (REC_DD_CLAUSE$, SEND_DD_CLAUSE$);

  20745 35 001272   000075 741200 0     APPEND_DD_C* STX1  ! @ATTR$+1

      647    20746        /*==================*/
      648    20747
      649    20748    2     DCL REC_DD_CLAUSE$ PTR;
      650    20749    2     DCL SEND_DD_CLAUSE$ PTR;
      651    20750
      652    20751    2     DCL RSW_NO(0:%REC_DECL_MAX_FIELD) SBIN WORD CONSTANT INIT(
      653    20752    2           %RSV_WRD_NUMBER,
      654    20753    2           %RSV_WRD_FILLER,
      655    20754    2           %RSV_WRD_USAGE,
      656    20755    2           %RSV_WRD_PICTURE,
      657    20756    2           %RSV_WRD_REDEFINES,
      658    20757    2           %RSV_WRD_RENAMES,
      659    20758    2           %RSV_WRD_OCCURS,
      660    20759    2           %RSV_WRD_VALUE,
      661    20760    2           %RSV_WRD_SIGN,
      662    20761    2           %RSV_WRD_BLANK,
      663    20762    2           %RSV_WRD_GLOBAL,
      664    20763    2           %RSV_WRD_SYNCHRONIZED,
      665    20764    2           %RSV_WRD_EXTERNAL,
      666    20765    2           %RSV_WRD_JUSTIFIED,
      667    20766    2           %RSV_WRD_INDEXED,
      668    20767    2           %RSV_WRD_KEY);
      669    20768    2     DCL I SBIN WORD;
      670    20769
      671    20770    3     DO I = 0 TO %REC_DECL_MAX_FIELD;

  20770 35 001273   000100 450000 0                  STZ     I

      672    20771
      673    20772    3       IF SEND_DD_CLAUSE$ -> LX_REC_DECL.P_PTRS(I) ~= ADDR(NIL) THEN

  20772 35 001274   000077 470400 0                  LDP0    @SEND_DD_CLAUSE$
PL6.E3A0      #001=Z8EM$SEMANTICS_DATA_DIV File=Z8EM.:Z8A6TSI                    SAT 08/09/97 12:08 Page:341
        35 001275   000000 471500                    LDP1    0,,PR0
        35 001276   000100 720000 0                  LXL0    I
        35 001277   100001 236110                    LDQ     1,X0,PR1
        35 001300   000024 116000 36                 CMPQ    20
        35 001301   001541 600000 35                 TZE     s:20869

      674    20773    4         DO;

      675    20774    5           DO CASE (I);

  20774 35 001302   000100 235000 0                  LDA     I
        35 001303   000020 115007                    CMPA    16,DL
        35 001304   001306 602005 35                 TNC     s:20774+4,AL
        35 001305   001541 710000 35                 TRA     s:20869
        35 001306   001541 710000 35                 TRA     s:20869
        35 001307   001541 710000 35                 TRA     s:20869
        35 001310   001326 710000 35                 TRA     s:20790
        35 001311   001326 710000 35                 TRA     s:20790
        35 001312   001326 710000 35                 TRA     s:20790
        35 001313   001326 710000 35                 TRA     s:20790
        35 001314   001326 710000 35                 TRA     s:20790
        35 001315   001326 710000 35                 TRA     s:20790
        35 001316   001326 710000 35                 TRA     s:20790
        35 001317   001326 710000 35                 TRA     s:20790
        35 001320   001326 710000 35                 TRA     s:20790
        35 001321   001326 710000 35                 TRA     s:20790
        35 001322   001326 710000 35                 TRA     s:20790
        35 001323   001326 710000 35                 TRA     s:20790
        35 001324   001326 710000 35                 TRA     s:20790
        35 001325   001432 710000 35                 TRA     s:20828

      676    20775
      677    20776    5             CASE (%REC_DECL_USAGE,

      678    20777    5                   %REC_DECL_PIC_CLAUSE,
      679    20778    5                   %REC_DECL_RENAMES,
      680    20779    5                   %REC_DECL_OCCURS,
PL6.E3A0      #001=Z8EM$SEMANTICS_DATA_DIV File=Z8EM.:Z8A6TSI                    SAT 08/09/97 12:08 Page:342
      681    20780    5                   %REC_DECL_VALUE,
      682    20781    5                   %REC_DECL_SIGN,
      683    20782    5                   %REC_DECL_BLANK,
      684    20783    5                   %REC_DECL_GLOBAL,
      685    20784    5                   %REC_DECL_SYNC,
      686    20785    5                   %REC_DECL_EXTERNAL,
      687    20786    5                   %REC_DECL_JUSTIFIED,
      688    20787    5                   %REC_DECL_REDEFINES,
      689    20788    5                   %REC_DECL_INDEXED);
      690    20789
      691    20790    5               IF I = %REC_DECL_REDEFINES

  20790 35 001326   000004 115007                    CMPA    4,DL
        35 001327   001340 601000 35                 TNZ     s:20795
        35 001330   100005 473500                    LDP3    5,,PR1
        35 001331   300000 236100                    LDQ     0,,PR3
        35 001332   400000 316007                    CANQ    -131072,DL
        35 001333   001340 601000 35                 TNZ     s:20795

      692    20791    5                    AND NOT SEND_DD_CLAUSE$ -> LX_REC_DECL.P.REDEFINES$
      693    20792    5                               -> LX_ITEM.B.ERROR THEN
      694    20793    5                 CALL Z8AE$ERROR (%E$REDEFINES_ORDER_ERR);

  20793 35 001334   000064 630400 36                 EPPR0   52
        35 001335   000036 631400 36                 EPPR1   30
        35 001336   000000 701000 xent               TSX1    Z8AE$ERROR
        35 001337   000000 011000                    NOP     0

      695    20794
      696    20795    5               IF REC_DD_CLAUSE$ -> LX_REC_DECL.P_PTRS(I) = ADDR(NIL) THEN

  20795 35 001340   000076 470400 0                  LDP0    @REC_DD_CLAUSE$
        35 001341   000000 471500                    LDP1    0,,PR0
        35 001342   000100 720000 0                  LXL0    I
        35 001343   100001 236110                    LDQ     1,X0,PR1
        35 001344   000024 116000 36                 CMPQ    20
        35 001345   001410 601000 35                 TNZ     s:20818
PL6.E3A0      #001=Z8EM$SEMANTICS_DATA_DIV File=Z8EM.:Z8A6TSI                    SAT 08/09/97 12:08 Page:343

      697    20796    6                 DO;

      698    20797    6                   REC_DD_CLAUSE$ -> LX_REC_DECL.P_PTRS(I)

  20797 35 001346   000077 473400 0                  LDP3    @SEND_DD_CLAUSE$
        35 001347   300000 474500                    LDP4    0,,PR3
        35 001350   400001 236110                    LDQ     1,X0,PR4
        35 001351   100001 756110                    STQ     1,X0,PR1

      699    20798    6                      = SEND_DD_CLAUSE$ -> LX_REC_DECL.P_PTRS(I);
      700    20799    6                   IF I = %REC_DECL_INDEXED

  20799 35 001352   000100 235000 0                  LDA     I
        35 001353   000016 115007                    CMPA    14,DL
        35 001354   001374 601000 35                 TNZ     s:20810
        35 001355   000000 471500                    LDP1    0,,PR0
        35 001356   100027 236100                    LDQ     23,,PR1
        35 001357   100041 116100                    CMPQ    33,,PR1
        35 001360   001374 600000 35                 TZE     s:20810
        35 001361   100040 236100                    LDQ     32,,PR1
        35 001362   100041 116100                    CMPQ    33,,PR1
        35 001363   001374 600000 35                 TZE     s:20810
        35 001364   100017 474500                    LDP4    15,,PR1
        35 001365   400000 236100                    LDQ     0,,PR4
        35 001366   400000 316007                    CANQ    -131072,DL
        35 001367   001374 601000 35                 TNZ     s:20810

      701    20800    6                      AND REC_DD_CLAUSE$ -> LX_REC_DECL.CLAUSE_COUNT(%REC_DECL_OCCURS)
      702    20801    6                               ~= REC_DD_CLAUSE$ -> LX_REC_DECL.CURRENT_CLAUSE_COUNT
      703    20802    6                       AND REC_DD_CLAUSE$ -> LX_REC_DECL.CLAUSE_COUNT(%REC_DECL_KEY)
      704    20803    6                               ~=  REC_DD_CLAUSE$ -> LX_REC_DECL.CURRENT_CLAUSE_COUNT
      705    20804    6                       AND NOT REC_DD_CLAUSE$ -> LX_REC_DECL.P.INDEXED$
      706    20805    6                               -> LX_ITEM.B.ERROR THEN
      707    20806    7                     DO;

      708    20807    7                       CALL Z8AE$ERROR (%E$OCCURS_ORDERING_ERROR);
PL6.E3A0      #001=Z8EM$SEMANTICS_DATA_DIV File=Z8EM.:Z8A6TSI                    SAT 08/09/97 12:08 Page:344

  20807 35 001370   000066 630400 36                 EPPR0   54
        35 001371   000036 631400 36                 EPPR1   30
        35 001372   000000 701000 xent               TSX1    Z8AE$ERROR
        35 001373   000000 011000                    NOP     0

      709    20808    7                     END;

      710    20809
      711    20810    6                  REC_DD_CLAUSE$ -> LX_REC_DECL.CURRENT_CLAUSE_COUNT

  20810 35 001374   000076 470400 0                  LDP0    @REC_DD_CLAUSE$
        35 001375   000000 471500                    LDP1    0,,PR0
        35 001376   100041 054100                    AOS     33,,PR1

      712    20811    6                    = REC_DD_CLAUSE$ -> LX_REC_DECL.CURRENT_CLAUSE_COUNT + 1;
      713    20812    6                  REC_DD_CLAUSE$ -> LX_REC_DECL.CLAUSE_COUNT(I)

  20812 35 001377   000000 471500                    LDP1    0,,PR0
        35 001400   000100 720000 0                  LXL0    I
        35 001401   100041 235100                    LDA     33,,PR1
        35 001402   100021 755110                    STA     17,X0,PR1

      714    20813    6                     = REC_DD_CLAUSE$ -> LX_REC_DECL.CURRENT_CLAUSE_COUNT;
      715    20814    6                  SEND_DD_CLAUSE$ -> LX_REC_DECL.P_PTRS(I) = ADDR(NIL);

  20814 35 001403   000077 471400 0                  LDP1    @SEND_DD_CLAUSE$
        35 001404   100000 473500                    LDP3    0,,PR1
        35 001405   000024 236000 36                 LDQ     20
        35 001406   300001 756110                    STQ     1,X0,PR3

      716    20815    6                END;

  20815 35 001407   001541 710000 35                 TRA     s:20869

      717    20816    5              ELSE
      718    20817    6                DO;  /* ERROR - DUPLICATE CLAUSE */
PL6.E3A0      #001=Z8EM$SEMANTICS_DATA_DIV File=Z8EM.:Z8A6TSI                    SAT 08/09/97 12:08 Page:345

      719    20818    6                  IF NOT SEND_DD_CLAUSE$ -> LX_REC_DECL.P_PTRS(I)

  20818 35 001410   000077 473400 0                  LDP3    @SEND_DD_CLAUSE$
        35 001411   300000 474500                    LDP4    0,,PR3
        35 001412   400001 475510                    LDP5    1,X0,PR4
        35 001413   500000 236100                    LDQ     0,,PR5
        35 001414   400000 316007                    CANQ    -131072,DL
        35 001415   001541 601000 35                 TNZ     s:20869

      720    20819    6                      -> LX_ITEM.B.ERROR THEN
      721    20820    7                    DO;

      722    20821    7                      CALL Z8AE$ERROR (%E$DUP_DD_CLAUSE,,,

  20821 35 001416   000000 721010 34                 LXL1    RSW_NO,X0
        35 001417   000000 636411 xsym               EPPR6   DNT$_FROM_RSWNO,X1
        35 001420   001015 456400 0                  STP6    PROC$+5
        35 001421   000024 236000 36                 LDQ     20
        35 001422   001014 756000 0                  STQ     PROC$+4
        35 001423   000010 235000 36                 LDA     8
        35 001424   001012 757000 0                  STAQ    PROC$+2
        35 001425   001012 630400 0                  EPPR0   PROC$+2
        35 001426   000005 631400 36                 EPPR1   5
        35 001427   000000 701000 xent               TSX1    Z8AE$ERROR
        35 001430   000000 011000                    NOP     0

      723    20822    7                                       DNT$_FROM_RSWNO(RSW_NO(I)));
      724    20823    7                    END;

      725    20824    6                END;

  20824 35 001431   001541 710000 35                 TRA     s:20869

      726    20825
      727    20826    5         CASE (%REC_DECL_KEY);

PL6.E3A0      #001=Z8EM$SEMANTICS_DATA_DIV File=Z8EM.:Z8A6TSI                    SAT 08/09/97 12:08 Page:346
      728    20827
      729    20828    5           IF REC_DD_CLAUSE$ -> LX_REC_DECL.CLAUSE_COUNT(%REC_DECL_OCCURS)

  20828 35 001432   000076 473400 0                  LDP3    @REC_DD_CLAUSE$
        35 001433   300000 474500                    LDP4    0,,PR3
        35 001434   400027 236100                    LDQ     23,,PR4
        35 001435   400041 116100                    CMPQ    33,,PR4
        35 001436   001455 600000 35                 TZE     s:20837
        35 001437   400037 236100                    LDQ     31,,PR4
        35 001440   400041 116100                    CMPQ    33,,PR4
        35 001441   001455 600000 35                 TZE     s:20837
        35 001442   400040 236100                    LDQ     32,,PR4
        35 001443   400041 116100                    CMPQ    33,,PR4
        35 001444   001455 600000 35                 TZE     s:20837
        35 001445   100020 475500                    LDP5    16,,PR1
        35 001446   500000 236100                    LDQ     0,,PR5
        35 001447   400000 316007                    CANQ    -131072,DL
        35 001450   001455 601000 35                 TNZ     s:20837

      730    20829    5                 ~= REC_DD_CLAUSE$ -> LX_REC_DECL.CURRENT_CLAUSE_COUNT
      731    20830    5              AND REC_DD_CLAUSE$ -> LX_REC_DECL.CLAUSE_COUNT(%REC_DECL_INDEXED)
      732    20831    5                 ~= REC_DD_CLAUSE$ -> LX_REC_DECL.CURRENT_CLAUSE_COUNT
      733    20832    5              AND REC_DD_CLAUSE$ -> LX_REC_DECL.CLAUSE_COUNT(%REC_DECL_KEY)
      734    20833    5                 ~= REC_DD_CLAUSE$ -> LX_REC_DECL.CURRENT_CLAUSE_COUNT
      735    20834    5              AND NOT SEND_DD_CLAUSE$ -> LX_REC_DECL.P.KEY$ -> LX_LIST.B.ERROR THEN
      736    20835    5             CALL Z8AE$ERROR (%E$OCCURS_ORDERING_ERROR);

  20835 35 001451   000066 630400 36                 EPPR0   54
        35 001452   000036 631400 36                 EPPR1   30
        35 001453   000000 701000 xent               TSX1    Z8AE$ERROR
        35 001454   000000 011000                    NOP     0

      737    20836
      738    20837    5           IF REC_DD_CLAUSE$ -> LX_REC_DECL.P.KEY$ = ADDR(NIL) THEN

  20837 35 001455   000076 470400 0                  LDP0    @REC_DD_CLAUSE$
        35 001456   000000 471500                    LDP1    0,,PR0
PL6.E3A0      #001=Z8EM$SEMANTICS_DATA_DIV File=Z8EM.:Z8A6TSI                    SAT 08/09/97 12:08 Page:347
        35 001457   100020 236100                    LDQ     16,,PR1
        35 001460   000024 116000 36                 CMPQ    20
        35 001461   001472 601000 35                 TNZ     s:20848

      739    20838    6             DO;

      740    20839    6               REC_DD_CLAUSE$ -> LX_REC_DECL.P.KEY$

  20839 35 001462   000077 473400 0                  LDP3    @SEND_DD_CLAUSE$
        35 001463   300000 474500                    LDP4    0,,PR3
        35 001464   400020 236100                    LDQ     16,,PR4
        35 001465   100020 756100                    STQ     16,,PR1

      741    20840    6                  = SEND_DD_CLAUSE$ -> LX_REC_DECL.P.KEY$;
      742    20841    6               SEND_DD_CLAUSE$ -> LX_REC_DECL.P.KEY$ = ADDR(NIL);

  20841 35 001466   300000 471500                    LDP1    0,,PR3
        35 001467   000024 236000 36                 LDQ     20
        35 001470   100020 756100                    STQ     16,,PR1

      743    20842    6             END;

  20842 35 001471   001533 710000 35                 TRA     s:20863

      744    20843    5           ELSE
      745    20844    6             DO;

      746    20845                    %APPEND_LISTS(@FROM$ = "SEND_DD_CLAUSE$ -> LX_REC_DECL.P.KEY$",
      747    20846                                  @TO$ = "REC_DD_CLAUSE$ -> LX_REC_DECL.P.KEY$");

  20848 35 001472   000077 473400 0                  LDP3    @SEND_DD_CLAUSE$
        35 001473   300000 474500                    LDP4    0,,PR3
        35 001474   400020 475500                    LDP5    16,,PR4
        35 001475   500002 235100                    LDA     2,,PR5
        35 001476   001533 604400 35                 TMOZ    s:20863

  20850 35 001477   100020 476500                    LDP6    16,,PR1
PL6.E3A0      #001=Z8EM$SEMANTICS_DATA_DIV File=Z8EM.:Z8A6TSI                    SAT 08/09/97 12:08 Page:348
        35 001500   600001 477500                    LDP7    1,,PR6
        35 001501   500004 236100                    LDQ     4,,PR5
        35 001502   700007 756100                    STQ     7,,PR7

  20852 35 001503   000000 471500                    LDP1    0,,PR0
        35 001504   100020 474500                    LDP4    16,,PR1
        35 001505   300000 475500                    LDP5    0,,PR3
        35 001506   500020 476500                    LDP6    16,,PR5
        35 001507   600001 236100                    LDQ     1,,PR6
        35 001510   400001 756100                    STQ     1,,PR4

  20854 35 001511   000000 471500                    LDP1    0,,PR0
        35 001512   100020 474500                    LDP4    16,,PR1
        35 001513   300000 475500                    LDP5    0,,PR3
        35 001514   500020 476500                    LDP6    16,,PR5
        35 001515   600002 236100                    LDQ     2,,PR6
        35 001516   400002 036100                    ADLQ    2,,PR4
        35 001517   400002 756100                    STQ     2,,PR4

  20856 35 001520   300000 471500                    LDP1    0,,PR3
        35 001521   100020 474500                    LDP4    16,,PR1
        35 001522   400002 450100                    STZ     2,,PR4

  20857 35 001523   300000 471500                    LDP1    0,,PR3
        35 001524   100020 474500                    LDP4    16,,PR1
        35 001525   000024 236000 36                 LDQ     20
        35 001526   400004 756100                    STQ     4,,PR4

  20858 35 001527   300000 471500                    LDP1    0,,PR3
        35 001530   100020 474500                    LDP4    16,,PR1
        35 001531   000024 236000 36                 LDQ     20
        35 001532   400001 756100                    STQ     1,,PR4

      748    20862    6             END;

      749    20863    5                  REC_DD_CLAUSE$ -> LX_REC_DECL.CURRENT_CLAUSE_COUNT

PL6.E3A0      #001=Z8EM$SEMANTICS_DATA_DIV File=Z8EM.:Z8A6TSI                    SAT 08/09/97 12:08 Page:349
  20863 35 001533   000000 471500                    LDP1    0,,PR0
        35 001534   100041 054100                    AOS     33,,PR1

      750    20864    5                    = REC_DD_CLAUSE$ -> LX_REC_DECL.CURRENT_CLAUSE_COUNT + 1;
      751    20865    5                  REC_DD_CLAUSE$ -> LX_REC_DECL.CLAUSE_COUNT(I)

  20865 35 001535   000000 471500                    LDP1    0,,PR0
        35 001536   000100 720000 0                  LXL0    I
        35 001537   100041 235100                    LDA     33,,PR1
        35 001540   100021 755110                    STA     17,X0,PR1

      752    20866    5                     = REC_DD_CLAUSE$ -> LX_REC_DECL.CURRENT_CLAUSE_COUNT;
      753    20867    5         END;  /* DO CASE */

      754    20868    4       END;

      755    20869    3     END;

  20869 35 001541   000100 054000 0                  AOS     I
        35 001542   000100 235000 0                  LDA     I
        35 001543   000017 115007                    CMPA    15,DL
        35 001544   001274 604400 35                 TMOZ    s:20772

      756    20870
      757    20871
      758    20872    2   END APPEND_DD_CLAUSES;

  20872 35 001545   000075 221200 0                  LDX1  ! @ATTR$+1
        35 001546   000001 702211                    TSX2  ! 1,X1

      759    20873        %EJECT;
PL6.E3A0      #001=Z8EM$SEMANTICS_DATA_DIV File=Z8EM.:Z8A6TSI                    SAT 08/09/97 12:08 Page:350
      760    20874        /*=============*/
      761    20875    1     ASSIGN_DEVICE: PROC (ASSIGN$);

  20875 35 001547   000101 741200 0     ASSIGN_DEVI* STX1  ! I+1

      762    20876        /*=============*/
      763    20877
      764    20878    2        DCL ASSIGN$              PTR;
      765    20879
      766    20880             /* Functions performed:
      767    20881                 1. Check for multiple ASSIGN clauses.
      768    20882                    This is done here because the rest of
      769    20883                    the checks are system dependent.
      770    20884                      Z9EM$VERIFY_DEVICE
      771    20885             */
      772    20886
      773    20887
      774    20888    2        IF O1COM.CURRENT_FILE_LTS$ -> FILE_LTS.ASSIGN$ ~= ADDR(NIL) THEN

  20888 35 001550   000045 470400 xsym               LDP0    O1COM+37
        35 001551   000004 236100                    LDQ     4,,PR0
        35 001552   000024 116000 36                 CMPQ    20
        35 001553   001602 600000 35                 TZE     s:20925

      775    20889               %CONDITIONAL_ERROR (@LX_ITEM$ = ASSIGN$,
      776    20890                   @ERROR#   = %E$DUP_DD_CLAUSE,
      777    20891                   @LINE     = ASSIGN$ -> LX_LIST.HEAD$ -> LX_TERMINAL.LINE,
      778    20892                   @COLUMN   = ASSIGN$ -> LX_LIST.HEAD$ -> LX_TERMINAL.COLUMN,
      779    20893                   @PLUG1    = "DNT$_FROM_RSWNO (%RSV_WRD_ASSIGN)");

  20903 35 001554   000102 471400 0                  LDP1    @ASSIGN$
        35 001555   100000 473500                    LDP3    0,,PR1
        35 001556   300000 236100                    LDQ     0,,PR3
        35 001557   400000 316007                    CANQ    -131072,DL
        35 001560   001602 601000 35                 TNZ     s:20925

  20905 35 001561   300004 474500                    LDP4    4,,PR3
PL6.E3A0      #001=Z8EM$SEMANTICS_DATA_DIV File=Z8EM.:Z8A6TSI                    SAT 08/09/97 12:08 Page:351
        35 001562   000067 236000 36                 LDQ     55
        35 001563   001015 756000 0                  STQ     PROC$+5
        35 001564   400006 633500                    EPPR3   6,,PR4
        35 001565   001014 453400 0                  STP3    PROC$+4
        35 001566   400005 635500                    EPPR5   5,,PR4
        35 001567   001013 455400 0                  STP5    PROC$+3
        35 001570   000010 236000 36                 LDQ     8
        35 001571   001012 756000 0                  STQ     PROC$+2
        35 001572   001012 630400 0                  EPPR0   PROC$+2
        35 001573   000005 631400 36                 EPPR1   5
        35 001574   000000 701000 xent               TSX1    Z8AE$ERROR
        35 001575   000000 011000                    NOP     0

  20914 35 001576   000102 470400 0                  LDP0    @ASSIGN$
        35 001577   000000 471500                    LDP1    0,,PR0
        35 001600   400000 236007                    LDQ     -131072,DL
        35 001601   100000 256100                    ORSQ    0,,PR1

      780    20923
      781    20924
      782    20925    2   END ASSIGN_DEVICE;

  20925 35 001602   000101 221200 0                  LDX1  ! I+1
        35 001603   000001 702211                    TSX2  ! 1,X1

      783    20926        %EJECT;
PL6.E3A0      #001=Z8EM$SEMANTICS_DATA_DIV File=Z8EM.:Z8A6TSI                    SAT 08/09/97 12:08 Page:352
      784    20927        /*==============*/
      785    20928    1     BLOCK_CONTAINS: PROC (INT_LIST$, REC_CHAR$);

  20928 35 001604   000103 741200 0     BLOCK_CONTA* STX1  ! @ASSIGN$+1

      786    20929        /*==============*/
      787    20930
      788    20931             /* Functions performed:
      789    20932                 1. Check for duplicate clauses.
      790    20933                 2. Check for int-1 > int-2.
      791    20934                 3. Call Z9EM$BLOCK_CONTAINS.  Removed 10/27/84  CBN
      792    20935                 4. Fill FILE_LTS
      793    20936             */
      794    20937
      795    20938    2        DCL INT_LIST$            PTR;
      796    20939    2        DCL REC_CHAR$            PTR;
      797    20940    2        DCL INT1                 SBIN WORD;
      798    20941    2        DCL INT2                 SBIN WORD;
      799    20942    2        DCL LINE                 SBIN WORD;
      800    20943    2        DCL COLUMN               SBIN WORD;
      801    20944
      802    20945
      803    20946    2        LINE   = INT_LIST$ -> LX_LIST.HEAD$ -> LX_ITEM.LINE;

  20946 35 001605   000104 470400 0                  LDP0    @INT_LIST$
        35 001606   000000 471500                    LDP1    0,,PR0
        35 001607   100004 473500                    LDP3    4,,PR1
        35 001610   300005 235100                    LDA     5,,PR3
        35 001611   000110 755000 0                  STA     LINE

      804    20947    2        COLUMN = INT_LIST$ -> LX_LIST.HEAD$ -> LX_ITEM.COLUMN;

  20947 35 001612   000000 471500                    LDP1    0,,PR0
        35 001613   100004 473500                    LDP3    4,,PR1
        35 001614   300006 235100                    LDA     6,,PR3
        35 001615   000111 755000 0                  STA     COLUMN

PL6.E3A0      #001=Z8EM$SEMANTICS_DATA_DIV File=Z8EM.:Z8A6TSI                    SAT 08/09/97 12:08 Page:353
      805    20948
      806    20949    2        IF O1COM.CURRENT_FILE_LTS$ -> FILE_LTS.B.BLOCK_CONTAINS THEN

  20949 35 001616   000045 471400 xsym               LDP1    O1COM+37
        35 001617   100017 236100                    LDQ     15,,PR1
        35 001620   200000 316007                    CANQ    65536,DL
        35 001621   001647 600000 35                 TZE     s:20989

      807    20950    3          DO;

      808    20951                 %CONDITIONAL_ERROR (@LX_ITEM$ = INT_LIST$,
      809    20952                                     @ERROR#   = %E$DUP_DD_CLAUSE,
      810    20953                                     @LINE     = LINE,
      811    20954                                     @COLUMN   = COLUMN,
      812    20955                                     @PLUG1    = "DNT$_FROM_RSWNO(%RSV_WRD_BLOCK)");

  20965 35 001622   000000 473500                    LDP3    0,,PR0
        35 001623   300000 236100                    LDQ     0,,PR3
        35 001624   400000 316007                    CANQ    -131072,DL
        35 001625   001636 601000 35                 TNZ     s:20985

  20967 35 001626   000070 630400 36                 EPPR0   56
        35 001627   000005 631400 36                 EPPR1   5
        35 001630   000000 701000 xent               TSX1    Z8AE$ERROR
        35 001631   000000 011000                    NOP     0

  20976 35 001632   000104 470400 0                  LDP0    @INT_LIST$
        35 001633   000000 471500                    LDP1    0,,PR0
        35 001634   400000 236007                    LDQ     -131072,DL
        35 001635   100000 256100                    ORSQ    0,,PR1

      813    20985    3            CALL Z8ED$DISPOSE_ABSSYN_TREE (INT_LIST$ -> LX_LIST.HEAD$);

  20985 35 001636   000000 471500                    LDP1    0,,PR0
        35 001637   100004 633500                    EPPR3   4,,PR1
        35 001640   001012 453400 0                  STP3    PROC$+2
        35 001641   001012 630400 0                  EPPR0   PROC$+2
PL6.E3A0      #001=Z8EM$SEMANTICS_DATA_DIV File=Z8EM.:Z8A6TSI                    SAT 08/09/97 12:08 Page:354
        35 001642   000036 631400 36                 EPPR1   30
        35 001643   000000 701000 xent               TSX1    Z8ED$DISPOSE_ABSSYN_TREE
        35 001644   000000 011000                    NOP     0

      814    20986    3            RETURN;

  20986 35 001645   000103 221200 0                  LDX1  ! @ASSIGN$+1
        35 001646   000001 702211                    TSX2  ! 1,X1

      815    20987    3          END;
      816    20988
      817    20989    2        CALL CHARBIN (INT1,

  20989 35 001647   000000 473500                    LDP3    0,,PR0
        35 001650   300004 474500                    LDP4    4,,PR3
        35 001651   400002 475500                    LDP5    2,,PR4
        35 001652   500004 220100                    LDX0    4,,PR5
        35 001653   000000 305540                    DTB
        35 001654   500004 430010                    NDSC9   4,,PR5                   cn=2,s=nosgn,sf=0,n=*X0
        35 001655   000106 000004 0                  NDSC9   INT1                     cn=0,s=lsgnf,sf=0,n=4

      818    20990    2                      INT_LIST$ -> LX_LIST.HEAD$ ->
      819    20991    2                      LX_TERMINAL.DNT$ -> DNT.TEXT.NAME);
      820    20992
      821    20993    2        IF INT_LIST$ -> LX_LIST.COUNT ~= 1 THEN

  20993 35 001656   300002 235100                    LDA     2,,PR3
        35 001657   000001 115007                    CMPA    1,DL
        35 001660   001737 600000 35                 TZE     s:21044

      822    20994    3          DO;

      823    20995    3            CALL CHARBIN (INT2,

  20995 35 001661   300001 476500                    LDP6    1,,PR3
        35 001662   600002 477500                    LDP7    2,,PR6
        35 001663   700004 222100                    LDX2    4,,PR7
PL6.E3A0      #001=Z8EM$SEMANTICS_DATA_DIV File=Z8EM.:Z8A6TSI                    SAT 08/09/97 12:08 Page:355
        35 001664   000000 305540                    DTB
        35 001665   700004 430012                    NDSC9   4,,PR7                   cn=2,s=nosgn,sf=0,n=*X2
        35 001666   000107 000004 0                  NDSC9   INT2                     cn=0,s=lsgnf,sf=0,n=4

      824    20996    3                          INT_LIST$ -> LX_LIST.TAIL$ ->
      825    20997    3                          LX_TERMINAL.DNT$ -> DNT.TEXT.NAME);
      826    20998
      827    20999    3            IF INT1 > INT2 THEN

  20999 35 001667   000106 236000 0                  LDQ     INT1
        35 001670   000107 116000 0                  CMPQ    INT2
        35 001671   001716 604400 35                 TMOZ    s:21037

      828    21000    4              DO;

      829    21001                     %CONDITIONAL_ERROR (@LX_ITEM$ = INT_LIST$,
      830    21002                                         @ERROR#   = %E$INT2_LSS_INT1,
      831    21003                                         @LINE     = LINE,
      832    21004                                         @COLUMN   = COLUMN);

  21014 35 001672   300000 236100                    LDQ     0,,PR3
        35 001673   400000 316007                    CANQ    -131072,DL
        35 001674   001705 601000 35                 TNZ     s:21034

  21016 35 001675   000075 630400 36                 EPPR0   61
        35 001676   000000 631400 36                 EPPR1   0
        35 001677   000000 701000 xent               TSX1    Z8AE$ERROR
        35 001700   000000 011000                    NOP     0

  21025 35 001701   000104 470400 0                  LDP0    @INT_LIST$
        35 001702   000000 471500                    LDP1    0,,PR0
        35 001703   400000 236007                    LDQ     -131072,DL
        35 001704   100000 256100                    ORSQ    0,,PR1

      833    21034    4                CALL Z8ED$DISPOSE_ABSSYN_TREE (INT_LIST$ -> LX_LIST.HEAD$);

  21034 35 001705   000000 471500                    LDP1    0,,PR0
PL6.E3A0      #001=Z8EM$SEMANTICS_DATA_DIV File=Z8EM.:Z8A6TSI                    SAT 08/09/97 12:08 Page:356
        35 001706   100004 633500                    EPPR3   4,,PR1
        35 001707   001012 453400 0                  STP3    PROC$+2
        35 001710   001012 630400 0                  EPPR0   PROC$+2
        35 001711   000036 631400 36                 EPPR1   30
        35 001712   000000 701000 xent               TSX1    Z8ED$DISPOSE_ABSSYN_TREE
        35 001713   000000 011000                    NOP     0

      834    21035    4                RETURN;

  21035 35 001714   000103 221200 0                  LDX1  ! @ASSIGN$+1
        35 001715   000001 702211                    TSX2  ! 1,X1

      835    21036    4              END;
      836    21037    3            IF COMCOM.OB.FIPS.LEVEL >= %INT_LEV THEN

  21037 35 001716   000036 723000 xsym               LXL3    COMCOM+30
        35 001717   000002 103003                    CMPX3   2,DU
        35 001720   001741 604000 35                 TMI     s:21049

      837    21038    3              CALL Z8AE$ERROR (%E$LEVEL_CHECK,

  21038 35 001721   000151 236000 xsym               LDQ     O1COM+105
        35 001722   000025 736000                    QLS     21
        35 001723   000100 036000 36                 ADLQ    64
        35 001724   001014 756000 0                  STQ     PROC$+4
        35 001725   000151 236000 xsym               LDQ     O1COM+105
        35 001726   000025 736000                    QLS     21
        35 001727   000101 036000 36                 ADLQ    65
        35 001730   000004 235000 36                 LDA     4
        35 001731   001012 757000 0                  STAQ    PROC$+2
        35 001732   001012 630400 0                  EPPR0   PROC$+2
        35 001733   000000 631400 36                 EPPR1   0
        35 001734   000000 701000 xent               TSX1    Z8AE$ERROR
        35 001735   000000 011000                    NOP     0

      838    21039    3                               O1COM.LX_STK.LINE(O1COM.LX_TOP - 3),
      839    21040    3                               O1COM.LX_STK.COLUMN(O1COM.LX_TOP - 3));
PL6.E3A0      #001=Z8EM$SEMANTICS_DATA_DIV File=Z8EM.:Z8A6TSI                    SAT 08/09/97 12:08 Page:357
      840    21041    3          END;

  21041 35 001736   001741 710000 35                 TRA     s:21049

      841    21042    2        ELSE
      842    21043    3          DO;

      843    21044    3            INT2 = INT1;

  21044 35 001737   000106 235000 0                  LDA     INT1
        35 001740   000107 755000 0                  STA     INT2

      844    21045    3          END;

      845    21046
      846    21047         /*  CALL Z9EM$BLOCK_CONTAINS (INT_LIST$, REC_CHAR$);  */
      847    21048
      848    21049    2        IF REC_CHAR$ -> LX_TERMINAL.SYMBOL =  %RSV_WRD_RECORDS    THEN

  21049 35 001741   000105 470400 0                  LDP0    @REC_CHAR$
        35 001742   000000 471500                    LDP1    0,,PR0
        35 001743   100003 235100                    LDA     3,,PR1
        35 001744   000556 115007                    CMPA    366,DL
        35 001745   001751 601000 35                 TNZ     s:21052

      849    21050    2          O1COM.CURRENT_FILE_LTS$ -> FILE_LTS.B.RECORDS_NOT_CHARS = TRUE;

  21050 35 001746   000045 473400 xsym               LDP3    O1COM+37
        35 001747   020000 236007                    LDQ     8192,DL
        35 001750   300017 256100                    ORSQ    15,,PR3

      850    21051
      851    21052    2        O1COM.CURRENT_FILE_LTS$ -> FILE_LTS.B.BLOCK_CONTAINS = TRUE;

  21052 35 001751   000045 471400 xsym               LDP1    O1COM+37
        35 001752   200000 236007                    LDQ     65536,DL
        35 001753   100017 256100                    ORSQ    15,,PR1
PL6.E3A0      #001=Z8EM$SEMANTICS_DATA_DIV File=Z8EM.:Z8A6TSI                    SAT 08/09/97 12:08 Page:358

      852    21053    2        O1COM.CURRENT_FILE_LTS$ -> FILE_LTS.BLOCK_CONTAINS.INT_1 = INT1;

  21053 35 001754   000045 471400 xsym               LDP1    O1COM+37
        35 001755   000106 235000 0                  LDA     INT1
        35 001756   100021 755100                    STA     17,,PR1

      853    21054    2        IF COMCOM.OB.COBOL_74 AND INT2 = 0 THEN

  21054 35 001757   000015 234000 xsym               SZN     COMCOM+13
        35 001760   001772 605000 35                 TPL     s:21059
        35 001761   000107 235000 0                  LDA     INT2
        35 001762   001772 601000 35                 TNZ     s:21059

      854    21055    3          DO;

      855    21056    3            O1COM.CURRENT_FILE_LTS$ -> FILE_LTS.B.RECORDS_NOT_CHARS = TRUE;

  21056 35 001763   000045 471400 xsym               LDP1    O1COM+37
        35 001764   020000 236007                    LDQ     8192,DL
        35 001765   100017 256100                    ORSQ    15,,PR1

      856    21057    3            O1COM.CURRENT_FILE_LTS$ -> FILE_LTS.BLOCK_CONTAINS.INT_2 = 1;

  21057 35 001766   000001 235007                    LDA     1,DL
        35 001767   000045 471400 xsym               LDP1    O1COM+37
        35 001770   100022 755100                    STA     18,,PR1

      857    21058    3          END;

  21058 35 001771   001775 710000 35                 TRA     s:21061

      858    21059    2        ELSE O1COM.CURRENT_FILE_LTS$ -> FILE_LTS.BLOCK_CONTAINS.INT_2 = INT2;

  21059 35 001772   000045 471400 xsym               LDP1    O1COM+37
        35 001773   000107 235000 0                  LDA     INT2
        35 001774   100022 755100                    STA     18,,PR1
PL6.E3A0      #001=Z8EM$SEMANTICS_DATA_DIV File=Z8EM.:Z8A6TSI                    SAT 08/09/97 12:08 Page:359

      859    21060
      860    21061    2        CALL Z8ED$DISPOSE_ABSSYN_TREE (INT_LIST$ -> LX_LIST.HEAD$);

  21061 35 001775   000104 471400 0                  LDP1    @INT_LIST$
        35 001776   100000 473500                    LDP3    0,,PR1
        35 001777   300004 634500                    EPPR4   4,,PR3
        35 002000   001012 454400 0                  STP4    PROC$+2
        35 002001   001012 630400 0                  EPPR0   PROC$+2
        35 002002   000036 631400 36                 EPPR1   30
        35 002003   000000 701000 xent               TSX1    Z8ED$DISPOSE_ABSSYN_TREE
        35 002004   000000 011000                    NOP     0

      861    21062
      862    21063    2   END BLOCK_CONTAINS;

  21063 35 002005   000103 221200 0                  LDX1  ! @ASSIGN$+1
        35 002006   000001 702211                    TSX2  ! 1,X1

      863    21064        %EJECT;
PL6.E3A0      #001=Z8EM$SEMANTICS_DATA_DIV File=Z8EM.:Z8A6TSI                    SAT 08/09/97 12:08 Page:360
      864    21065
      865    21066         /*========*/
      866    21067    1      BUILD_ST: PROC (ST$$,LEVEL#,TYPE,CLASS,ELEMENTARY,QLT$$,LENGTH,ITEM$);

  21067 35 002007   000112 741200 0     BUILD_ST     STX1  ! COLUMN+1

      867    21068         /*========*/
      868    21069
      869    21070
      870    21071    2   DCL ST$$               PTR;
      871    21072    2   DCL LEVEL#             SBIN WORD;
      872    21073    2   DCL TYPE               SBIN WORD;
      873    21074    2   DCL CLASS              SBIN WORD;
      874    21075    2   DCL ELEMENTARY         BIT (1) ALIGNED;
      875    21076    2   DCL ITEM$              PTR;
      876    21077    2   DCL DNT$$              PTR;
      877    21078    2   DCL QLT$$              PTR;
      878    21079    2   DCL LENGTH             SBIN WORD;
      879    21080    2   DCL LINE#              SBIN WORD;
      880    21081
      881    21082
      882    21083
      883    21084    2      IF ITEM$ = ADDR(NIL) THEN

  21084 35 002010   000122 470400 0                  LDP0    @ITEM$
        35 002011   000000 236100                    LDQ     0,,PR0
        35 002012   000024 116000 36                 CMPQ    20
        35 002013   002021 601000 35                 TNZ     s:21091

      884    21085    3        DO;

      885    21086    3          DNT$$ = DNT$_FROM_RSWNO ( %RSV_WRD_FILLER);

  21086 35 002014   000320 236000 xsym               LDQ     DNT$_FROM_RSWNO+208
        35 002015   000123 756000 0                  STQ     DNT$$

      886    21087    3          LINE# = COMCOM.CURRENT.LINE;
PL6.E3A0      #001=Z8EM$SEMANTICS_DATA_DIV File=Z8EM.:Z8A6TSI                    SAT 08/09/97 12:08 Page:361

  21087 35 002016   000133 235000 xsym               LDA     COMCOM+91
        35 002017   000124 755000 0                  STA     LINE#

      887    21088    3        END;

  21088 35 002020   002026 710000 35                 TRA     s:21106

      888    21089    2      ELSE
      889    21090    3        DO;

      890    21091    3          DNT$$ = ITEM$ -> LX_TERMINAL.DNT$;

  21091 35 002021   000000 471500                    LDP1    0,,PR0
        35 002022   100002 236100                    LDQ     2,,PR1
        35 002023   000123 756000 0                  STQ     DNT$$

      891    21092    3          LINE# = ITEM$ -> LX_TERMINAL.LINE;

  21092 35 002024   100005 235100                    LDA     5,,PR1
        35 002025   000124 755000 0                  STA     LINE#

      892    21093    3        END;

      893    21094
      894    21095           %NEW_SCALAR (@ST$   = ST$$,
      895    21096                        @TYPE  = TYPE,
      896    21097                        @LINE_NO = LINE#,
      897    21098                        @NEXT    = DNT$$ -> DNT.ST$,
      898    21099                        @DNT$    = DNT$$,
      899    21100                        @PROC$   = O1COM.CURRENT_PROC$,
      900    21101                        @ELEMENTARY = ELEMENTARY,
      901    21102                        @CLASS   = CLASS);

  21106 35 002026   000002 236000 13                 LDQ     ST_+2
        35 002027   000013 036007                    ADLQ    11,DL
        35 002030   000003 116000 13                 CMPQ    ST_+3
PL6.E3A0      #001=Z8EM$SEMANTICS_DATA_DIV File=Z8EM.:Z8A6TSI                    SAT 08/09/97 12:08 Page:362
        35 002031   002042 604000 35                 TMI     s:21108

  21107 35 002032   000102 236000 36                 LDQ     66
        35 002033   001012 756000 0                  STQ     PROC$+2
        35 002034   001012 631400 0                  EPPR1   PROC$+2
        35 002035   001013 451400 0                  STP1    PROC$+3
        35 002036   001013 630400 0                  EPPR0   PROC$+3
        35 002037   000036 631400 36                 EPPR1   30
        35 002040   000000 701000 xent               TSX1    Z8AR$RESERVER
        35 002041   000000 011000                    NOP     0

  21108 35 002042   000002 236000 13                 LDQ     ST_+2
        35 002043   000022 736000                    QLS     18
        35 002044   000001 036000 13                 ADLQ    ST_+1
        35 002045   000113 470400 0                  LDP0    @ST$$
        35 002046   000000 756100                    STQ     0,,PR0

  21109 35 002047   000013 236007                    LDQ     11,DL
        35 002050   000002 056000 13                 ASQ     ST_+2

  21157 35 002051   000000 471500                    LDP1    0,,PR0
        35 002052   000766 220003                    LDX0    502,DU
        35 002053   100000 740100                    STX0    0,,PR1

  21158 35 002054   000000 471500                    LDP1    0,,PR0
        35 002055   003000 236007                    LDQ     1536,DL
        35 002056   100000 552110                    STBQ    0,'10'O,PR1

  21159 35 002057   000000 471500                    LDP1    0,,PR0
        35 002060   000001 236007                    LDQ     1,DL
        35 002061   100000 552104                    STBQ    0,'04'O,PR1

  21160 35 002062   000000 471500                    LDP1    0,,PR0
        35 002063   000000 221003                    LDX1    0,DU
        35 002064   100001 741100                    STX1    1,,PR1

  21161 35 002065   000000 471500                    LDP1    0,,PR0
PL6.E3A0      #001=Z8EM$SEMANTICS_DATA_DIV File=Z8EM.:Z8A6TSI                    SAT 08/09/97 12:08 Page:363
        35 002066   100001 441100                    SXL1    1,,PR1

  21162 35 002067   000000 471500                    LDP1    0,,PR0
        35 002070   000124 722000 0                  LXL2    LINE#
        35 002071   100002 442100                    SXL2    2,,PR1

  21163 35 002072   000000 471500                    LDP1    0,,PR0
        35 002073   100003 450100                    STZ     3,,PR1

  21164 35 002074   000000 471500                    LDP1    0,,PR0
        35 002075   000123 473400 0                  LDP3    DNT$$
        35 002076   300001 236100                    LDQ     1,,PR3
        35 002077   100004 756100                    STQ     4,,PR1

  21165 35 002100   000000 471500                    LDP1    0,,PR0
        35 002101   000024 236000 36                 LDQ     20
        35 002102   100005 756100                    STQ     5,,PR1

  21166 35 002103   000000 471500                    LDP1    0,,PR0
        35 002104   000024 236000 36                 LDQ     20
        35 002105   100007 756100                    STQ     7,,PR1

  21167 35 002106   000000 471500                    LDP1    0,,PR0
        35 002107   100010 741100                    STX1    8,,PR1

  21168 35 002110   000000 471500                    LDP1    0,,PR0
        35 002111   777777 223003                    LDX3    -1,DU
        35 002112   100010 443100                    SXL3    8,,PR1

  21172 35 002113   000000 471500                    LDP1    0,,PR0
        35 002114   000024 236000 36                 LDQ     20
        35 002115   100012 756100                    STQ     10,,PR1

  21191 35 002116   000000 471500                    LDP1    0,,PR0
        35 002117   000057 236000 xsym               LDQ     O1COM+47
        35 002120   100011 756100                    STQ     9,,PR1

PL6.E3A0      #001=Z8EM$SEMANTICS_DATA_DIV File=Z8EM.:Z8A6TSI                    SAT 08/09/97 12:08 Page:364
  21192 35 002121   000057 236000 xsym               LDQ     O1COM+47
        35 002122   000024 116000 36                 CMPQ    20
        35 002123   002147 600000 35                 TZE     s:21211

  21196 35 002124   000057 471400 xsym               LDP1    O1COM+47
        35 002125   100001 474500                    LDP4    1,,PR1
        35 002126   400012 236100                    LDQ     10,,PR4
        35 002127   000024 116000 36                 CMPQ    20
        35 002130   002140 601000 35                 TNZ     s:21203

  21198 35 002131   000000 236100                    LDQ     0,,PR0
        35 002132   400011 756100                    STQ     9,,PR4

  21199 35 002133   000057 471400 xsym               LDP1    O1COM+47
        35 002134   100001 474500                    LDP4    1,,PR1
        35 002135   000000 236100                    LDQ     0,,PR0
        35 002136   400012 756100                    STQ     10,,PR4

  21200 35 002137   002147 710000 35                 TRA     s:21211

  21203 35 002140   400012 475500                    LDP5    10,,PR4
        35 002141   000000 236100                    LDQ     0,,PR0
        35 002142   500012 756100                    STQ     10,,PR5

  21204 35 002143   000057 471400 xsym               LDP1    O1COM+47
        35 002144   100001 474500                    LDP4    1,,PR1
        35 002145   000000 236100                    LDQ     0,,PR0
        35 002146   400012 756100                    STQ     10,,PR4

  21211 35 002147   000000 471500                    LDP1    0,,PR0
        35 002150   000115 474400 0                  LDP4    @TYPE
        35 002151   400000 724100                    LXL4    0,,PR4
        35 002152   100002 744100                    STX4    2,,PR1

  21216 35 002153   000000 471500                    LDP1    0,,PR0
        35 002154   000123 236000 0                  LDQ     DNT$$
        35 002155   100006 756100                    STQ     6,,PR1
PL6.E3A0      #001=Z8EM$SEMANTICS_DATA_DIV File=Z8EM.:Z8A6TSI                    SAT 08/09/97 12:08 Page:365

  21233 35 002156   000000 471500                    LDP1    0,,PR0
        35 002157   000117 475400 0                  LDP5    @ELEMENTARY
        35 002160   500000 236100                    LDQ     0,,PR5
        35 002161   000005 772000                    QRL     5
        35 002162   100003 676100                    ERQ     3,,PR1
        35 002163   010000 376003                    ANQ     4096,DU
        35 002164   100003 656100                    ERSQ    3,,PR1

  21281 35 002165   000000 471500                    LDP1    0,,PR0
        35 002166   000116 476400 0                  LDP6    @CLASS
        35 002167   600000 236100                    LDQ     0,,PR6
        35 002170   100003 676100                    ERQ     3,,PR1
        35 002171   000007 376007                    ANQ     7,DL
        35 002172   100003 656100                    ERSQ    3,,PR1

      902    21302
      903    21303    2      ST$$ -> SCALAR.ADSC.N = LENGTH;

  21303 35 002173   000000 471500                    LDP1    0,,PR0
        35 002174   000121 477400 0                  LDP7    @LENGTH
        35 002175   700000 236100                    LDQ     0,,PR7
        35 002176   100001 752103                    STCQ    1,'03'O,PR1

      904    21304
      905    21305           %NEW_QLT (@POINTER = QLT$$,
      906    21306                     @ST$     = ST$$,
      907    21307                     @DNT$    = DNT$$,
      908    21308                     @LEVEL#  = LEVEL#);

  21313 35 002177   000002 236000 11                 LDQ     QLT_+2
        35 002200   000006 036007                    ADLQ    6,DL
        35 002201   000003 116000 11                 CMPQ    QLT_+3
        35 002202   002213 602000 35                 TNC     s:21315

  21314 35 002203   000103 236000 36                 LDQ     67
        35 002204   001012 756000 0                  STQ     PROC$+2
PL6.E3A0      #001=Z8EM$SEMANTICS_DATA_DIV File=Z8EM.:Z8A6TSI                    SAT 08/09/97 12:08 Page:366
        35 002205   001012 631400 0                  EPPR1   PROC$+2
        35 002206   001013 451400 0                  STP1    PROC$+3
        35 002207   001013 630400 0                  EPPR0   PROC$+3
        35 002210   000036 631400 36                 EPPR1   30
        35 002211   000000 701000 xent               TSX1    Z8AR$RESERVER
        35 002212   000000 011000                    NOP     0

  21315 35 002213   000002 236000 11                 LDQ     QLT_+2
        35 002214   000022 736000                    QLS     18
        35 002215   000001 036000 11                 ADLQ    QLT_+1
        35 002216   000120 470400 0                  LDP0    @QLT$$
        35 002217   000000 756100                    STQ     0,,PR0

  21316 35 002220   000002 235000 11                 LDA     QLT_+2
        35 002221   000006 035007                    ADLA    6,DL
        35 002222   000002 755000 11                 STA     QLT_+2

  21317 35 002223   000000 471500                    LDP1    0,,PR0
        35 002224   001053 220003                    LDX0    555,DU
        35 002225   100000 740100                    STX0    0,,PR1

  21320 35 002226   000000 471500                    LDP1    0,,PR0
        35 002227   000024 236000 36                 LDQ     20
        35 002230   100001 756100                    STQ     1,,PR1

  21321 35 002231   000000 471500                    LDP1    0,,PR0
        35 002232   000024 236000 36                 LDQ     20
        35 002233   100002 756100                    STQ     2,,PR1

  21322 35 002234   000000 471500                    LDP1    0,,PR0
        35 002235   000024 236000 36                 LDQ     20
        35 002236   100003 756100                    STQ     3,,PR1

  21323 35 002237   000000 471500                    LDP1    0,,PR0
        35 002240   000113 473400 0                  LDP3    @ST$$
        35 002241   300000 236100                    LDQ     0,,PR3
        35 002242   100004 756100                    STQ     4,,PR1
PL6.E3A0      #001=Z8EM$SEMANTICS_DATA_DIV File=Z8EM.:Z8A6TSI                    SAT 08/09/97 12:08 Page:367

  21324 35 002243   000000 471500                    LDP1    0,,PR0
        35 002244   000123 236000 0                  LDQ     DNT$$
        35 002245   100005 756100                    STQ     5,,PR1

  21325 35 002246   000000 471500                    LDP1    0,,PR0
        35 002247   000114 474400 0                  LDP4    @LEVEL#
        35 002250   400000 236100                    LDQ     0,,PR4
        35 002251   100000 552104                    STBQ    0,'04'O,PR1

  21326 35 002252   000000 471500                    LDP1    0,,PR0
        35 002253   000000 236003                    LDQ     0,DU
        35 002254   100000 552110                    STBQ    0,'10'O,PR1

  21327 35 002255   000000 471500                    LDP1    0,,PR0
        35 002256   000104 236000 36                 LDQ     68
        35 002257   100000 356100                    ANSQ    0,,PR1

  21328 35 002260   000000 471500                    LDP1    0,,PR0
        35 002261   000105 236000 36                 LDQ     69
        35 002262   100000 356100                    ANSQ    0,,PR1

  21329 35 002263   000000 471500                    LDP1    0,,PR0
        35 002264   000106 236000 36                 LDQ     70
        35 002265   100000 356100                    ANSQ    0,,PR1

  21330 35 002266   000000 471500                    LDP1    0,,PR0
        35 002267   000107 236000 36                 LDQ     71
        35 002270   100000 356100                    ANSQ    0,,PR1

      909    21333
      910    21334    2      ST$$ -> SCALAR.QLT$ = QLT$$;

  21334 35 002271   300000 471500                    LDP1    0,,PR3
        35 002272   000000 236100                    LDQ     0,,PR0
        35 002273   100007 756100                    STQ     7,,PR1

PL6.E3A0      #001=Z8EM$SEMANTICS_DATA_DIV File=Z8EM.:Z8A6TSI                    SAT 08/09/97 12:08 Page:368
      911    21335
      912    21336    2      IF DNT$$ -> DNT.TEXT.NAME ~= 'FILLER' THEN

  21336 35 002274   000123 471400 0                  LDP1    DNT$$
        35 002275   100004 221100                    LDX1    4,,PR1
        35 002276   040000 106540                    CMPC    fill='040'O
        35 002277   100004 400011                    ADSC9   4,,PR1                   cn=2,n=*X1
        35 002300   000027 000006 34                 ADSC9   RSW_NO+23                cn=0,n=6
        35 002301   002345 600000 35                 TZE     s:21362

      913    21337    3        DO;

      914    21338               %ADD_XREF (SYM = ST$$,
      915    21339                          ISN = LINE#,
      916    21340                          TYPE = %XREF_DCL);

  21342 35 002302   000055 234000 xsym               SZN     COMCOM+45
        35 002303   002341 605000 35                 TPL     s:21359

  21346 35 002304   000002 236000 24                 LDQ     XREF_+2
        35 002305   000002 036007                    ADLQ    2,DL
        35 002306   000003 116000 24                 CMPQ    XREF_+3
        35 002307   002320 602000 35                 TNC     s:21348

  21347 35 002310   000110 236000 36                 LDQ     72
        35 002311   001012 756000 0                  STQ     PROC$+2
        35 002312   001012 635400 0                  EPPR5   PROC$+2
        35 002313   001013 455400 0                  STP5    PROC$+3
        35 002314   001013 630400 0                  EPPR0   PROC$+3
        35 002315   000036 631400 36                 EPPR1   30
        35 002316   000000 701000 xent               TSX1    Z8AR$RESERVER
        35 002317   000000 011000                    NOP     0

  21348 35 002320   000002 236000 24                 LDQ     XREF_+2
        35 002321   000022 736000                    QLS     18
        35 002322   000001 036000 24                 ADLQ    XREF_+1
        35 002323   000000 756000 23                 STQ     XREF$
PL6.E3A0      #001=Z8EM$SEMANTICS_DATA_DIV File=Z8EM.:Z8A6TSI                    SAT 08/09/97 12:08 Page:369

  21349 35 002324   000002 235000 24                 LDA     XREF_+2
        35 002325   000002 035007                    ADLA    2,DL
        35 002326   000002 755000 24                 STA     XREF_+2

  21350 35 002327   000004 220003                    LDX0    4,DU
        35 002330   000000 470400 23                 LDP0    XREF$
        35 002331   000000 740100                    STX0    0,,PR0

  21353 35 002332   000124 721000 0                  LXL1    LINE#
        35 002333   000000 470400 23                 LDP0    XREF$
        35 002334   000000 441100                    SXL1    0,,PR0

  21354 35 002335   000113 470400 0                  LDP0    @ST$$
        35 002336   000000 236100                    LDQ     0,,PR0
        35 002337   000000 471400 23                 LDP1    XREF$
        35 002340   100001 756100                    STQ     1,,PR1

      917    21358
      918    21359    3          DNT$$ -> DNT.ST$ = ST$$;

  21359 35 002341   000113 470400 0                  LDP0    @ST$$
        35 002342   000000 236100                    LDQ     0,,PR0
        35 002343   000123 471400 0                  LDP1    DNT$$
        35 002344   100001 756100                    STQ     1,,PR1

      919    21360    3        END;

      920    21361
      921    21362    2      CALL Z8ED$DISPOSE_ABSSYN_TREE (ITEM$);

  21362 35 002345   000122 630400 0                  EPPR0   @ITEM$
        35 002346   000036 631400 36                 EPPR1   30
        35 002347   000000 701000 xent               TSX1    Z8ED$DISPOSE_ABSSYN_TREE
        35 002350   000000 011000                    NOP     0

      922    21363
PL6.E3A0      #001=Z8EM$SEMANTICS_DATA_DIV File=Z8EM.:Z8A6TSI                    SAT 08/09/97 12:08 Page:370
      923    21364    2    END BUILD_ST;

  21364 35 002351   000112 221200 0                  LDX1  ! COLUMN+1
        35 002352   000001 702211                    TSX2  ! 1,X1

      924    21365         %EJECT;
PL6.E3A0      #001=Z8EM$SEMANTICS_DATA_DIV File=Z8EM.:Z8A6TSI                    SAT 08/09/97 12:08 Page:371
      925    21366
      926    21367         /*===============*/
      927    21368    1      CD_ENTRY_WRAPUP: PROC;

  21368 35 002353   000125 741200 0     CD_ENTRY_WR* STX1  ! LINE#+1

      928    21369         /*===============*/
      929    21370
      930    21371
      931    21372        %EQU DCW_OFFSET = 2;
      932    21373        %EQU SIZE_OFFSET = 5;
      933    21374
      934    21375    2   DCL CONST$$    PTR;
      935    21376    2   DCL BRO$       PTR;
      936    21377    2   DCL FATHER$    PTR;
      937    21378
      938    21379
      939    21380
      940    21381               /*
      941    21382                 Description:
      942    21383                   1.  Reset the COMCOM.PREV_QLT$
      943    21384                   2.  Link the current CD_LTS to the current PROC_SUPP.
      944    21385                   3.  Allocate the cd text buffer.
      945    21386                   4.  Preset CD work area.
      946    21387               */
      947    21388
      948    21389
      949    21390    2      O1COM.CURRENT_CD_ENTRY$ -> CD_LTS.LINK = O1COM.CURRENT_PROC$ ->

  21390 35 002354   000057 470400 xsym               LDP0    O1COM+47
        35 002355   000001 471500                    LDP1    1,,PR0
        35 002356   100015 236100                    LDQ     13,,PR1
        35 002357   000120 473400 xsym               LDP3    O1COM+80
        35 002360   300007 756100                    STQ     7,,PR3

      950    21391    2                  PROC_.PROC_SUPP$ -> PROC_SUPP.CD_LIST$;
      951    21392    2      O1COM.CURRENT_PROC$ -> PROC_.PROC_SUPP$ -> PROC_SUPP.CD_LIST$ =
PL6.E3A0      #001=Z8EM$SEMANTICS_DATA_DIV File=Z8EM.:Z8A6TSI                    SAT 08/09/97 12:08 Page:372

  21392 35 002361   000057 470400 xsym               LDP0    O1COM+47
        35 002362   000001 471500                    LDP1    1,,PR0
        35 002363   000120 236000 xsym               LDQ     O1COM+80
        35 002364   100015 756100                    STQ     13,,PR1

      952    21393    2                  O1COM.CURRENT_CD_ENTRY$;
      953    21394
      954    21395           /* set the QLTs father field and reset COMCOM.PREV_QLT */
      955    21396
      956    21397    2      BRO$ = O1COM.CURRENT_CD_ENTRY$ -> CD_LTS.WORK_ST$ -> SCALAR.QLT$;

  21397 35 002365   000120 470400 xsym               LDP0    O1COM+80
        35 002366   000003 471500                    LDP1    3,,PR0
        35 002367   100007 236100                    LDQ     7,,PR1
        35 002370   000127 756000 0                  STQ     BRO$

      957    21398    2      FATHER$ = BRO$ -> QLT.FATHER;

  21398 35 002371   000127 473400 0                  LDP3    BRO$
        35 002372   300001 236100                    LDQ     1,,PR3
        35 002373   000130 756000 0                  STQ     FATHER$

      958    21399    2      COMCOM.PREV_QLT$ = FATHER$;

  21399 35 002374   000424 756000 xsym               STQ     COMCOM+276

      959    21400
      960    21401    3      DO WHILE (BRO$ -> QLT.BROTHER ~= ADDR(NIL));

  21401 35 002375   002404 710000 35                 TRA     s:21406

      961    21402
      962    21403    3        BRO$ = BRO$ -> QLT.BROTHER;

  21403 35 002376   000127 470400 0                  LDP0    BRO$
        35 002377   000002 236100                    LDQ     2,,PR0
PL6.E3A0      #001=Z8EM$SEMANTICS_DATA_DIV File=Z8EM.:Z8A6TSI                    SAT 08/09/97 12:08 Page:373
        35 002400   000127 756000 0                  STQ     BRO$

      963    21404    3        BRO$ -> QLT.FATHER = FATHER$;

  21404 35 002401   000130 236000 0                  LDQ     FATHER$
        35 002402   000127 470400 0                  LDP0    BRO$
        35 002403   000001 756100                    STQ     1,,PR0

      964    21405
      965    21406    3      END;

  21406 35 002404   000127 470400 0                  LDP0    BRO$
        35 002405   000002 236100                    LDQ     2,,PR0
        35 002406   000024 116000 36                 CMPQ    20
        35 002407   002376 601000 35                 TNZ     s:21403

      966    21407
      967    21408    2      CALL ALLOCATE_CD_BUFFER (O1COM.CURRENT_CD_ENTRY$ -> CD_LTS.BUFFER_LENGTH,

  21408 35 002410   000120 236000 xsym               LDQ     O1COM+80
        35 002411   000004 036003                    ADLQ    4,DU
        35 002412   000037 756000 0                  STQ     @BUFFER_ST$
        35 002413   000120 236000 xsym               LDQ     O1COM+80
        35 002414   000005 036003                    ADLQ    5,DU
        35 002415   000036 756000 0                  STQ     @BUFFER_LENGTH
        35 002416   000104 701000 35                 TSX1    ALLOCATE_CD_BUFFER
        35 002417   000000 011000                    NOP     0

      968    21409    2                               O1COM.CURRENT_CD_ENTRY$ -> CD_LTS.BUFFER_ST$);
      969    21410
      970    21411
      971    21412           /* Preset input DCW ( header address )  */
      972    21413
      973    21414           %NEW_ILL (@ID = %PTR_SET,
      974    21415                     @OFFSET = %DCW_OFFSET,
      975    21416                     @LOP= O1COM.CURRENT_CD_ENTRY$ -> CD_LTS.WORK_ST$,
      976    21417                     @ROP= O1COM.CURRENT_CD_ENTRY$ -> CD_LTS.CD_ST$);
PL6.E3A0      #001=Z8EM$SEMANTICS_DATA_DIV File=Z8EM.:Z8A6TSI                    SAT 08/09/97 12:08 Page:374

  21637 35 002420   000112 236000 36                 LDQ     74
        35 002421   001012 756000 0                  STQ     PROC$+2
        35 002422   001012 630400 0                  EPPR0   PROC$+2
        35 002423   001017 450400 0                  STP0    PROC$+7
        35 002424   000113 236000 36                 LDQ     75
        35 002425   001016 756000 0                  STQ     PROC$+6
        35 002426   000114 237000 36                 LDAQ    76
        35 002427   001014 757000 0                  STAQ    PROC$+4
        35 002430   001014 630400 0                  EPPR0   PROC$+4
        35 002431   000005 631400 36                 EPPR1   5
        35 002432   000000 701000 xent               TSX1    Z8AN$NEW_ILL
        35 002433   000000 011000                    NOP     0

  21641 35 002434   000002 220003                    LDX0    2,DU
        35 002435   000000 470400 5                  LDP0    ILL$
        35 002436   000000 440100                    SXL0    0,,PR0

  21643 35 002437   000120 470400 xsym               LDP0    O1COM+80
        35 002440   000003 236100                    LDQ     3,,PR0
        35 002441   000000 471400 5                  LDP1    ILL$
        35 002442   100001 756100                    STQ     1,,PR1

  21644 35 002443   000120 470400 xsym               LDP0    O1COM+80
        35 002444   000002 236100                    LDQ     2,,PR0
        35 002445   100002 756100                    STQ     2,,PR1

      977    21796
      978    21797           /* Preset buffer size and occurs */
      979    21798
      980    21799    2      MKCN.CON = O1COM.CURRENT_CD_ENTRY$ -> CD_LTS.BUFFER;

  21799 35 002446   000120 470400 xsym               LDP0    O1COM+80
        35 002447   000001 235100                    LDA     1,,PR0
        35 002450   000000 755000 31                 STA     MKCN

      981    21800
PL6.E3A0      #001=Z8EM$SEMANTICS_DATA_DIV File=Z8EM.:Z8A6TSI                    SAT 08/09/97 12:08 Page:375
      982    21801    2      CALL Z8AC$MAKE_CONST (CONST$$);

  21801 35 002451   000116 630400 36                 EPPR0   78
        35 002452   000036 631400 36                 EPPR1   30
        35 002453   000000 701000 xent               TSX1    Z8AC$MAKE_CONST
        35 002454   000000 011000                    NOP     0

      983    21802
      984    21803           %NEW_ILL (@ID       = %PREOFF,
      985    21804                     @OFFSET   = %SIZE_OFFSET,
      986    21805                     @LOP      = O1COM.CURRENT_CD_ENTRY$ -> CD_LTS.WORK_ST$,
      987    21806                     @ROP      = CONST$$ -> ETT.LOP,
      988    21807                     @N        = 1);

  22036 35 002455   000112 236000 36                 LDQ     74
        35 002456   001012 756000 0                  STQ     PROC$+2
        35 002457   001012 630400 0                  EPPR0   PROC$+2
        35 002460   001017 450400 0                  STP0    PROC$+7
        35 002461   000113 236000 36                 LDQ     75
        35 002462   001016 756000 0                  STQ     PROC$+6
        35 002463   000120 237000 36                 LDAQ    80
        35 002464   001014 757000 0                  STAQ    PROC$+4
        35 002465   001014 630400 0                  EPPR0   PROC$+4
        35 002466   000005 631400 36                 EPPR1   5
        35 002467   000000 701000 xent               TSX1    Z8AN$NEW_ILL
        35 002470   000000 011000                    NOP     0

  22040 35 002471   000005 220003                    LDX0    5,DU
        35 002472   000000 470400 5                  LDP0    ILL$
        35 002473   000000 440100                    SXL0    0,,PR0

  22045 35 002474   000001 235007                    LDA     1,DL
        35 002475   000000 470400 5                  LDP0    ILL$
        35 002476   000003 755100                    STA     3,,PR0

  22047 35 002477   000120 471400 xsym               LDP1    O1COM+80
        35 002500   100003 236100                    LDQ     3,,PR1
PL6.E3A0      #001=Z8EM$SEMANTICS_DATA_DIV File=Z8EM.:Z8A6TSI                    SAT 08/09/97 12:08 Page:376
        35 002501   000001 756100                    STQ     1,,PR0

  22048 35 002502   000126 471400 0                  LDP1    CONST$$
        35 002503   100001 236100                    LDQ     1,,PR1
        35 002504   000002 756100                    STQ     2,,PR0

      989    22186
      990    22187    2    END CD_ENTRY_WRAPUP;

  22187 35 002505   000125 221200 0                  LDX1  ! LINE#+1
        35 002506   000001 702211                    TSX2  ! 1,X1

      991    22188         %EJECT;
PL6.E3A0      #001=Z8EM$SEMANTICS_DATA_DIV File=Z8EM.:Z8A6TSI                    SAT 08/09/97 12:08 Page:377
      992    22189        /*==============*/
      993    22190    1     CHANNEL_NUMBER: PROC (C$, NAME$);

  22190 35 002507   000131 741200 0     CHANNEL_NUM* STX1  ! FATHER$+1

      994    22191        /*==============*/
      995    22192
      996    22193    2        DCL C$            PTR; /* To LX_TERM for CHANNEL NUMBER */
      997    22194    2        DCL NAME$         PTR; /* To LX_TERM for name assoc     */
      998    22195
      999    22196    2        DCL MNEM$         PTR;
     1000    22197    2        DCL NUM           UBIN;
     1001    22198
     1002    22199
     1003    22200    2        IF C$ -> LX_TERMINAL.SYMBOL = %RSV_WRD_CSP THEN

  22200 35 002510   000132 470400 0                  LDP0    @C$
        35 002511   000000 471500                    LDP1    0,,PR0
        35 002512   100003 235100                    LDA     3,,PR1
        35 002513   000167 115007                    CMPA    119,DL
        35 002514   002517 601000 35                 TNZ     s:22207

     1004    22201    2          NUM = %CPS;

  22201 35 002515   000135 450000 0                  STZ     NUM
        35 002516   002627 710000 35                 TRA     s:22274

     1005    22202    2        ELSE
     1006    22203    3          DO;

     1007    22204                 %EXTRACT_SWITCH_CHANNEL (@DNT$ = C$ -> LX_TERMINAL.DNT$,
     1008    22205                                          @NUMBER = NUM);

  22207 35 002517   100002 473500                    LDP3    2,,PR1
        35 002520   300004 220100                    LDX0    4,,PR3
        35 002521   300004 236100                    LDQ     4,,PR3
        35 002522   000022 772000                    QRL     18
PL6.E3A0      #001=Z8EM$SEMANTICS_DATA_DIV File=Z8EM.:Z8A6TSI                    SAT 08/09/97 12:08 Page:378
        35 002523   040000 106506                    CMPC    fill='040'O
        35 002524   300004 000001                    ADSC9   4,Q,PR3                  cn=0,n=1
        35 002525   000122 000001 36                 ADSC9   82                       cn=0,n=1
        35 002526   002546 602000 35                 TNC     s:22215
        35 002527   040106 106400                    CMPC    fill='040'O
        35 002530   000123 000001 36                 ADSC9   83                       cn=0,n=1
        35 002531   300004 000001                    ADSC9   4,Q,PR3                  cn=0,n=1
        35 002532   002546 602000 35                 TNC     s:22215

  22211 35 002533   001012 740000 0                  STX0    PROC$+2
        35 002534   300004 120100                    SBLX0   4,,PR3
        35 002535   300004 236100                    LDQ     4,,PR3
        35 002536   000022 772000                    QRL     18
        35 002537   000002 622010                    EAX2    2,X0
        35 002540   000000 305546                    DTB
        35 002541   300004 030012                    NDSC9   4,Q,PR3                  cn=0,s=nosgn,sf=0,n=*X2
        35 002542   001014 000010 0                  NDSC9   PROC$+4                  cn=0,s=lsgnf,sf=0,n=8
        35 002543   001015 235000 0                  LDA     PROC$+5
        35 002544   000135 755000 0                  STA     NUM
        35 002545   002560 710000 35                 TRA     s:22221

  22215 35 002546   001012 740000 0                  STX0    PROC$+2
        35 002547   300004 120100                    SBLX0   4,,PR3
        35 002550   300004 236100                    LDQ     4,,PR3
        35 002551   000022 772000                    QRL     18
        35 002552   000001 622010                    EAX2    1,X0
        35 002553   000000 305546                    DTB
        35 002554   300004 230012                    NDSC9   4,Q,PR3                  cn=1,s=nosgn,sf=0,n=*X2
        35 002555   001014 000010 0                  NDSC9   PROC$+4                  cn=0,s=lsgnf,sf=0,n=8
        35 002556   001015 235000 0                  LDA     PROC$+5
        35 002557   000135 755000 0                  STA     NUM

     1009    22220
     1010    22221    4            DO CASE (NUM);

  22221 35 002560   000020 115007                    CMPA    16,DL
        35 002561   002563 602005 35                 TNC     s:22221+3,AL
PL6.E3A0      #001=Z8EM$SEMANTICS_DATA_DIV File=Z8EM.:Z8A6TSI                    SAT 08/09/97 12:08 Page:379
        35 002562   002603 710000 35                 TRA     s:22240
        35 002563   002603 710000 35                 TRA     s:22240
        35 002564   002627 710000 35                 TRA     s:22274
        35 002565   002627 710000 35                 TRA     s:22274
        35 002566   002627 710000 35                 TRA     s:22274
        35 002567   002627 710000 35                 TRA     s:22274
        35 002570   002627 710000 35                 TRA     s:22274
        35 002571   002627 710000 35                 TRA     s:22274
        35 002572   002627 710000 35                 TRA     s:22274
        35 002573   002627 710000 35                 TRA     s:22274
        35 002574   002627 710000 35                 TRA     s:22274
        35 002575   002627 710000 35                 TRA     s:22274
        35 002576   002627 710000 35                 TRA     s:22274
        35 002577   002627 710000 35                 TRA     s:22274
        35 002600   002627 710000 35                 TRA     s:22274
        35 002601   002627 710000 35                 TRA     s:22274
        35 002602   002627 710000 35                 TRA     s:22274

     1011    22222    4              CASE (%C01, %C02, %C03, %C04, %C05, %C06, %C07,

     1012    22223    4                    %C08, %C09, %C10, %C11, %C12, %C13, %C14, %C15);
     1013    22224                     /* Channel OK */
     1014    22225
     1015    22226    4              CASE (ELSE);

     1016    22227                     %CONDITIONAL_ERROR (@LX_ITEM$ = C$,
     1017    22228                                         @ERROR#   = %E$ILLEGAL_CHANNEL#,
     1018    22229                                         @LINE     = C$ -> LX_ITEM.LINE,
     1019    22230                                         @COLUMN   = C$ -> LX_ITEM.COLUMN);

  22240 35 002603   000000 471500                    LDP1    0,,PR0
        35 002604   100000 236100                    LDQ     0,,PR1
        35 002605   400000 316007                    CANQ    -131072,DL
        35 002606   002625 601000 35                 TNZ     s:22261

  22242 35 002607   100006 633500                    EPPR3   6,,PR1
        35 002610   001014 453400 0                  STP3    PROC$+4
PL6.E3A0      #001=Z8EM$SEMANTICS_DATA_DIV File=Z8EM.:Z8A6TSI                    SAT 08/09/97 12:08 Page:380
        35 002611   100005 634500                    EPPR4   5,,PR1
        35 002612   001013 454400 0                  STP4    PROC$+3
        35 002613   000125 236000 36                 LDQ     85
        35 002614   001012 756000 0                  STQ     PROC$+2
        35 002615   001012 630400 0                  EPPR0   PROC$+2
        35 002616   000000 631400 36                 EPPR1   0
        35 002617   000000 701000 xent               TSX1    Z8AE$ERROR
        35 002620   000000 011000                    NOP     0

  22251 35 002621   000132 470400 0                  LDP0    @C$
        35 002622   000000 471500                    LDP1    0,,PR0
        35 002623   400000 236007                    LDQ     -131072,DL
        35 002624   100000 256100                    ORSQ    0,,PR1

     1020    22260
     1021    22261    4                NUM = %C01;

  22261 35 002625   000001 235007                    LDA     1,DL
        35 002626   000135 755000 0                  STA     NUM

     1022    22262    4            END; /* Case */

     1023    22263    3          END;

     1024    22264
     1025    22265             %NEW_MNEMONIC (@ST$      = MNEM$,
     1026    22266                            @CHANNEL# = NUM,
     1027    22267                            @CHANNEL  = TRUE,
     1028    22268                            @LINE_NO  = NAME$ -> LX_ITEM.LINE,
     1029    22269                            @DNT$     = NAME$ -> LX_ITEM.DNT$,
     1030    22270                            @NEXT     = NAME$ -> LX_ITEM.DNT$ -> DNT.ST$);

  22274 35 002627   000002 236000 13                 LDQ     ST_+2
        35 002630   000013 036007                    ADLQ    11,DL
        35 002631   000003 116000 13                 CMPQ    ST_+3
        35 002632   002643 604000 35                 TMI     s:22276

PL6.E3A0      #001=Z8EM$SEMANTICS_DATA_DIV File=Z8EM.:Z8A6TSI                    SAT 08/09/97 12:08 Page:381
  22275 35 002633   000102 236000 36                 LDQ     66
        35 002634   001012 756000 0                  STQ     PROC$+2
        35 002635   001012 631400 0                  EPPR1   PROC$+2
        35 002636   001013 451400 0                  STP1    PROC$+3
        35 002637   001013 630400 0                  EPPR0   PROC$+3
        35 002640   000036 631400 36                 EPPR1   30
        35 002641   000000 701000 xent               TSX1    Z8AR$RESERVER
        35 002642   000000 011000                    NOP     0

  22276 35 002643   000002 236000 13                 LDQ     ST_+2
        35 002644   000022 736000                    QLS     18
        35 002645   000001 036000 13                 ADLQ    ST_+1
        35 002646   000134 756000 0                  STQ     MNEM$

  22277 35 002647   000013 236007                    LDQ     11,DL
        35 002650   000002 056000 13                 ASQ     ST_+2

  22280 35 002651   000761 220003                    LDX0    497,DU
        35 002652   000134 470400 0                  LDP0    MNEM$
        35 002653   000000 740100                    STX0    0,,PR0

  22281 35 002654   000020 221003                    LDX1    16,DU
        35 002655   000002 741100                    STX1    2,,PR0

  22282 35 002656   000133 471400 0                  LDP1    @NAME$
        35 002657   100000 473500                    LDP3    0,,PR1
        35 002660   300005 722100                    LXL2    5,,PR3
        35 002661   000002 442100                    SXL2    2,,PR0

  22283 35 002662   000003 450100                    STZ     3,,PR0

  22284 35 002663   100000 473500                    LDP3    0,,PR1
        35 002664   300002 474500                    LDP4    2,,PR3
        35 002665   400001 236100                    LDQ     1,,PR4
        35 002666   000004 756100                    STQ     4,,PR0

  22285 35 002667   100000 473500                    LDP3    0,,PR1
PL6.E3A0      #001=Z8EM$SEMANTICS_DATA_DIV File=Z8EM.:Z8A6TSI                    SAT 08/09/97 12:08 Page:382
        35 002670   300002 236100                    LDQ     2,,PR3
        35 002671   000006 756100                    STQ     6,,PR0

  22286 35 002672   000024 236000 36                 LDQ     20
        35 002673   000007 756100                    STQ     7,,PR0

  22290 35 002674   000024 236000 36                 LDQ     20
        35 002675   000012 756100                    STQ     10,,PR0

  22293 35 002676   000057 236000 xsym               LDQ     O1COM+47
        35 002677   000011 756100                    STQ     9,,PR0

  22294 35 002700   000057 236000 xsym               LDQ     O1COM+47
        35 002701   000024 116000 36                 CMPQ    20
        35 002702   002724 600000 35                 TZE     s:22334

  22298 35 002703   000057 473400 xsym               LDP3    O1COM+47
        35 002704   300001 474500                    LDP4    1,,PR3
        35 002705   400012 236100                    LDQ     10,,PR4
        35 002706   000024 116000 36                 CMPQ    20
        35 002707   002716 601000 35                 TNZ     s:22305

  22300 35 002710   000134 236000 0                  LDQ     MNEM$
        35 002711   400011 756100                    STQ     9,,PR4

  22301 35 002712   000057 473400 xsym               LDP3    O1COM+47
        35 002713   300001 474500                    LDP4    1,,PR3
        35 002714   400012 756100                    STQ     10,,PR4

  22302 35 002715   002724 710000 35                 TRA     s:22334

  22305 35 002716   400012 475500                    LDP5    10,,PR4
        35 002717   000134 236000 0                  LDQ     MNEM$
        35 002720   500012 756100                    STQ     10,,PR5

  22306 35 002721   000057 473400 xsym               LDP3    O1COM+47
        35 002722   300001 474500                    LDP4    1,,PR3
PL6.E3A0      #001=Z8EM$SEMANTICS_DATA_DIV File=Z8EM.:Z8A6TSI                    SAT 08/09/97 12:08 Page:383
        35 002723   400012 756100                    STQ     10,,PR4

  22334 35 002724   000135 235000 0                  LDA     NUM
        35 002725   000001 755100                    STA     1,,PR0

  22343 35 002726   200000 236003                    LDQ     65536,DU
        35 002727   000003 256100                    ORSQ    3,,PR0

     1031    22347
     1032    22348    2        NAME$ -> LX_ITEM.DNT$ -> DNT.ST$ = MNEM$;

  22348 35 002730   100000 473500                    LDP3    0,,PR1
        35 002731   300002 474500                    LDP4    2,,PR3
        35 002732   000134 236000 0                  LDQ     MNEM$
        35 002733   400001 756100                    STQ     1,,PR4

     1033    22349
     1034    22350             %NEW_QLT (@POINTER = MNEM$ -> MNEMONIC.QLT$,
     1035    22351                       @ST$     = MNEM$,
     1036    22352                       @DNT$    = MNEM$ -> MNEMONIC.DNT$,
     1037    22353                       @LEVEL#  = 01);

  22358 35 002734   000002 236000 11                 LDQ     QLT_+2
        35 002735   000006 036007                    ADLQ    6,DL
        35 002736   000003 116000 11                 CMPQ    QLT_+3
        35 002737   002750 602000 35                 TNC     s:22360

  22359 35 002740   000103 236000 36                 LDQ     67
        35 002741   001012 756000 0                  STQ     PROC$+2
        35 002742   001012 633400 0                  EPPR3   PROC$+2
        35 002743   001013 453400 0                  STP3    PROC$+3
        35 002744   001013 630400 0                  EPPR0   PROC$+3
        35 002745   000036 631400 36                 EPPR1   30
        35 002746   000000 701000 xent               TSX1    Z8AR$RESERVER
        35 002747   000000 011000                    NOP     0

  22360 35 002750   000002 236000 11                 LDQ     QLT_+2
PL6.E3A0      #001=Z8EM$SEMANTICS_DATA_DIV File=Z8EM.:Z8A6TSI                    SAT 08/09/97 12:08 Page:384
        35 002751   000022 736000                    QLS     18
        35 002752   000001 036000 11                 ADLQ    QLT_+1
        35 002753   000134 470400 0                  LDP0    MNEM$
        35 002754   000007 756100                    STQ     7,,PR0

  22361 35 002755   000002 235000 11                 LDA     QLT_+2
        35 002756   000006 035007                    ADLA    6,DL
        35 002757   000002 755000 11                 STA     QLT_+2

  22362 35 002760   000007 471500                    LDP1    7,,PR0
        35 002761   001053 220003                    LDX0    555,DU
        35 002762   100000 740100                    STX0    0,,PR1

  22365 35 002763   000007 471500                    LDP1    7,,PR0
        35 002764   000024 236000 36                 LDQ     20
        35 002765   100001 756100                    STQ     1,,PR1

  22366 35 002766   000007 471500                    LDP1    7,,PR0
        35 002767   000024 236000 36                 LDQ     20
        35 002770   100002 756100                    STQ     2,,PR1

  22367 35 002771   000007 471500                    LDP1    7,,PR0
        35 002772   000024 236000 36                 LDQ     20
        35 002773   100003 756100                    STQ     3,,PR1

  22368 35 002774   000007 471500                    LDP1    7,,PR0
        35 002775   000134 236000 0                  LDQ     MNEM$
        35 002776   100004 756100                    STQ     4,,PR1

  22369 35 002777   000007 471500                    LDP1    7,,PR0
        35 003000   000006 236100                    LDQ     6,,PR0
        35 003001   100005 756100                    STQ     5,,PR1

  22370 35 003002   000007 471500                    LDP1    7,,PR0
        35 003003   000001 236007                    LDQ     1,DL
        35 003004   100000 552104                    STBQ    0,'04'O,PR1

PL6.E3A0      #001=Z8EM$SEMANTICS_DATA_DIV File=Z8EM.:Z8A6TSI                    SAT 08/09/97 12:08 Page:385
  22371 35 003005   000007 471500                    LDP1    7,,PR0
        35 003006   000000 236003                    LDQ     0,DU
        35 003007   100000 552110                    STBQ    0,'10'O,PR1

  22372 35 003010   000007 471500                    LDP1    7,,PR0
        35 003011   000104 236000 36                 LDQ     68
        35 003012   100000 356100                    ANSQ    0,,PR1

  22373 35 003013   000007 471500                    LDP1    7,,PR0
        35 003014   000105 236000 36                 LDQ     69
        35 003015   100000 356100                    ANSQ    0,,PR1

  22374 35 003016   000007 471500                    LDP1    7,,PR0
        35 003017   000106 236000 36                 LDQ     70
        35 003020   100000 356100                    ANSQ    0,,PR1

  22375 35 003021   000007 471500                    LDP1    7,,PR0
        35 003022   000107 236000 36                 LDQ     71
        35 003023   100000 356100                    ANSQ    0,,PR1

     1038    22378
     1039    22379             %UPDATE_PREV_QLT$ (@NEW_QLT$ = MNEM$ -> MNEMONIC.QLT$);

  22381 35 003024   000424 236000 xsym               LDQ     COMCOM+276
        35 003025   000024 116000 36                 CMPQ    20
        35 003026   003032 600000 35                 TZE     s:22383

  22382 35 003027   000007 236100                    LDQ     7,,PR0
        35 003030   000424 471400 xsym               LDP1    COMCOM+276
        35 003031   100002 756100                    STQ     2,,PR1

  22383 35 003032   000007 236100                    LDQ     7,,PR0
        35 003033   000424 756000 xsym               STQ     COMCOM+276

     1040    22386
     1041    22387             %ADD_XREF (SYM   = MNEM$,
     1042    22388                        ISN   = C$ -> LX_ITEM.LINE,
PL6.E3A0      #001=Z8EM$SEMANTICS_DATA_DIV File=Z8EM.:Z8A6TSI                    SAT 08/09/97 12:08 Page:386
     1043    22389                        TYPE  = %XREF_DCL);

  22391 35 003034   000055 234000 xsym               SZN     COMCOM+45
        35 003035   003074 605000 35                 TPL     s:22408

  22395 35 003036   000002 236000 24                 LDQ     XREF_+2
        35 003037   000002 036007                    ADLQ    2,DL
        35 003040   000003 116000 24                 CMPQ    XREF_+3
        35 003041   003052 602000 35                 TNC     s:22397

  22396 35 003042   000110 236000 36                 LDQ     72
        35 003043   001012 756000 0                  STQ     PROC$+2
        35 003044   001012 631400 0                  EPPR1   PROC$+2
        35 003045   001013 451400 0                  STP1    PROC$+3
        35 003046   001013 630400 0                  EPPR0   PROC$+3
        35 003047   000036 631400 36                 EPPR1   30
        35 003050   000000 701000 xent               TSX1    Z8AR$RESERVER
        35 003051   000000 011000                    NOP     0

  22397 35 003052   000002 236000 24                 LDQ     XREF_+2
        35 003053   000022 736000                    QLS     18
        35 003054   000001 036000 24                 ADLQ    XREF_+1
        35 003055   000000 756000 23                 STQ     XREF$

  22398 35 003056   000002 235000 24                 LDA     XREF_+2
        35 003057   000002 035007                    ADLA    2,DL
        35 003060   000002 755000 24                 STA     XREF_+2

  22399 35 003061   000004 220003                    LDX0    4,DU
        35 003062   000000 470400 23                 LDP0    XREF$
        35 003063   000000 740100                    STX0    0,,PR0

  22402 35 003064   000132 470400 0                  LDP0    @C$
        35 003065   000000 471500                    LDP1    0,,PR0
        35 003066   100005 721100                    LXL1    5,,PR1
        35 003067   000000 473400 23                 LDP3    XREF$
        35 003070   300000 441100                    SXL1    0,,PR3
PL6.E3A0      #001=Z8EM$SEMANTICS_DATA_DIV File=Z8EM.:Z8A6TSI                    SAT 08/09/97 12:08 Page:387

  22403 35 003071   000134 236000 0                  LDQ     MNEM$
        35 003072   000000 471400 23                 LDP1    XREF$
        35 003073   100001 756100                    STQ     1,,PR1

     1044    22407
     1045    22408    2   END CHANNEL_NUMBER;

  22408 35 003074   000131 221200 0                  LDX1  ! FATHER$+1
        35 003075   000001 702211                    TSX2  ! 1,X1

     1046    22409        %EJECT;
PL6.E3A0      #001=Z8EM$SEMANTICS_DATA_DIV File=Z8EM.:Z8A6TSI                    SAT 08/09/97 12:08 Page:388
     1047    22410        /*===================*/
     1048    22411    1     CHECK_AND_SAVE_ITEM: PROC (ITEM$, FIELD$, RSV_WRD#) ALTRET;

  22411 35 003076   000136 741200 0     CHECK_AND_S* STX1  ! NUM+1

     1049    22412        /*===================*/
     1050    22413
     1051    22414             /* Functions performed:
     1052    22415                 1. Copy item from the stack to heap.
     1053    22416                 2. Save the LX_ITEM until FAB time (E O data div).
     1054    22417                 3. Check for duplicate clauses
     1055    22418             */
     1056    22419
     1057    22420    2        DCL ITEM$                PTR;
     1058    22421    2        DCL FIELD$               PTR;
     1059    22422    2        DCL RSV_WRD#             SBIN WORD;
     1060    22423    2        DCL TITEM$               PTR;
     1061    22424
     1062    22425
     1063    22426             %NEW_COPY_LX_ITEM (@FROM$ = ITEM$,
     1064    22427                                @TO$   = TITEM$);

  22432 35 003077   000126 630400 36                 EPPR0   86
        35 003100   000025 631400 36                 EPPR1   21
        35 003101   000000 701000 xent               TSX1    Z8ED$NEW_HEAP
        35 003102   000000 011000                    NOP     0

  22435 35 003103   000137 470400 0                  LDP0    @ITEM$
        35 003104   000000 471500                    LDP1    0,,PR0
        35 003105   000142 473400 0                  LDP3    TITEM$
        35 003106   000100 100500                    MLR     fill='000'O
        35 003107   100000 000040                    ADSC9   0,,PR1                   cn=0,n=32
        35 003110   300000 000040                    ADSC9   0,,PR3                   cn=0,n=32

  22436 35 003111   000024 236000 36                 LDQ     20
        35 003112   000142 471400 0                  LDP1    TITEM$
        35 003113   100007 756100                    STQ     7,,PR1
PL6.E3A0      #001=Z8EM$SEMANTICS_DATA_DIV File=Z8EM.:Z8A6TSI                    SAT 08/09/97 12:08 Page:389

     1065    22439
     1066    22440    2        IF FIELD$ = ADDR(NIL) THEN

  22440 35 003114   000140 471400 0                  LDP1    @FIELD$
        35 003115   100000 236100                    LDQ     0,,PR1
        35 003116   000024 116000 36                 CMPQ    20
        35 003117   003123 601000 35                 TNZ     s:22444

     1067    22441    2          FIELD$ = TITEM$;

  22441 35 003120   000142 236000 0                  LDQ     TITEM$
        35 003121   100000 756100                    STQ     0,,PR1
        35 003122   003211 710000 35                 TRA     s:22520

     1068    22442    2        ELSE
     1069    22443    3          DO;

     1070    22444    3            IF ITEM$ -> LX_ITEM.ID = %LX_LIST THEN

  22444 35 003123   000000 473500                    LDP3    0,,PR0
        35 003124   300000 220100                    LDX0    0,,PR3
        35 003125   000002 100003                    CMPX0   2,DU
        35 003126   003156 601000 35                 TNZ     s:22494

     1071    22445                   %CONDITIONAL_ERROR (@LX_ITEM$ = ITEM$,
     1072    22446                       @ERROR# = %E$DUP_DD_CLAUSE,
     1073    22447                       @LINE   = ITEM$ -> LX_LIST.HEAD$ -> LX_ITEM.LINE,
     1074    22448                       @COLUMN = ITEM$ -> LX_LIST.HEAD$ -> LX_ITEM.COLUMN,
     1075    22449                       @PLUG1  = "DNT$_FROM_RSWNO (RSV_WRD#)");

  22459 35 003127   300000 236100                    LDQ     0,,PR3
        35 003130   400000 316007                    CANQ    -131072,DL
        35 003131   003203 601000 35                 TNZ     s:22515

  22461 35 003132   300004 474500                    LDP4    4,,PR3
        35 003133   000141 475400 0                  LDP5    @RSV_WRD#
PL6.E3A0      #001=Z8EM$SEMANTICS_DATA_DIV File=Z8EM.:Z8A6TSI                    SAT 08/09/97 12:08 Page:390
        35 003134   500000 721100                    LXL1    0,,PR5
        35 003135   000000 636411 xsym               EPPR6   DNT$_FROM_RSWNO,X1
        35 003136   001015 456400 0                  STP6    PROC$+5
        35 003137   400006 633500                    EPPR3   6,,PR4
        35 003140   001014 453400 0                  STP3    PROC$+4
        35 003141   400005 637500                    EPPR7   5,,PR4
        35 003142   001013 457400 0                  STP7    PROC$+3
        35 003143   000010 236000 36                 LDQ     8
        35 003144   001012 756000 0                  STQ     PROC$+2
        35 003145   001012 630400 0                  EPPR0   PROC$+2
        35 003146   000005 631400 36                 EPPR1   5
        35 003147   000000 701000 xent               TSX1    Z8AE$ERROR
        35 003150   000000 011000                    NOP     0

  22470 35 003151   000137 470400 0                  LDP0    @ITEM$
        35 003152   000000 471500                    LDP1    0,,PR0
        35 003153   400000 236007                    LDQ     -131072,DL
        35 003154   100000 256100                    ORSQ    0,,PR1

  22477 35 003155   003203 710000 35                 TRA     s:22515

     1076    22479    3            ELSE
     1077    22480                   %CONDITIONAL_ERROR (@LX_ITEM$ = ITEM$,
     1078    22481                       @ERROR# = %E$DUP_DD_CLAUSE,
     1079    22482                       @LINE   = ITEM$ -> LX_ITEM.LINE,
     1080    22483                       @COLUMN = ITEM$ -> LX_ITEM.COLUMN,
     1081    22484                       @PLUG1  = "DNT$_FROM_RSWNO (RSV_WRD#)");

  22494 35 003156   300000 236100                    LDQ     0,,PR3
        35 003157   400000 316007                    CANQ    -131072,DL
        35 003160   003203 601000 35                 TNZ     s:22515

  22496 35 003161   000141 474400 0                  LDP4    @RSV_WRD#
        35 003162   400000 721100                    LXL1    0,,PR4
        35 003163   000000 635411 xsym               EPPR5   DNT$_FROM_RSWNO,X1
        35 003164   001015 455400 0                  STP5    PROC$+5
        35 003165   300006 636500                    EPPR6   6,,PR3
PL6.E3A0      #001=Z8EM$SEMANTICS_DATA_DIV File=Z8EM.:Z8A6TSI                    SAT 08/09/97 12:08 Page:391
        35 003166   001014 456400 0                  STP6    PROC$+4
        35 003167   300005 637500                    EPPR7   5,,PR3
        35 003170   001013 457400 0                  STP7    PROC$+3
        35 003171   000010 236000 36                 LDQ     8
        35 003172   001012 756000 0                  STQ     PROC$+2
        35 003173   001012 630400 0                  EPPR0   PROC$+2
        35 003174   000005 631400 36                 EPPR1   5
        35 003175   000000 701000 xent               TSX1    Z8AE$ERROR
        35 003176   000000 011000                    NOP     0

  22505 35 003177   000137 470400 0                  LDP0    @ITEM$
        35 003200   000000 471500                    LDP1    0,,PR0
        35 003201   400000 236007                    LDQ     -131072,DL
        35 003202   100000 256100                    ORSQ    0,,PR1

     1082    22514
     1083    22515    3            CALL Z8ED$DISPOSE_ABSSYN_TREE (TITEM$);

  22515 35 003203   000126 630400 36                 EPPR0   86
        35 003204   000036 631400 36                 EPPR1   30
        35 003205   000000 701000 xent               TSX1    Z8ED$DISPOSE_ABSSYN_TREE
        35 003206   000000 011000                    NOP     0

     1084    22516
     1085    22517    3            ALTRETURN;

  22517 35 003207   000136 221200 0                  LDX1  ! NUM+1
        35 003210   000000 702211                    TSX2  ! 0,X1

     1086    22518    3          END;
     1087    22519
     1088    22520    2   END CHECK_AND_SAVE_ITEM;

  22520 35 003211   000136 221200 0                  LDX1  ! NUM+1
        35 003212   000001 702211                    TSX2  ! 1,X1

     1089    22521        %EJECT;
PL6.E3A0      #001=Z8EM$SEMANTICS_DATA_DIV File=Z8EM.:Z8A6TSI                    SAT 08/09/97 12:08 Page:392
     1090    22522        /*=========================*/
     1091    22523    1     CHECK_DIFF_ORG_AND_ACCESS: PROC (ITEM$, ACCESS, ORG);

  22523 35 003213   000143 741200 0     CHECK_DIFF_* STX1  ! TITEM$+1

     1092    22524        /*=========================*/
     1093    22525
     1094    22526    2        DCL ITEM$         PTR;
     1095    22527    2        DCL ACCESS        SBIN WORD;
     1096    22528    2        DCL ORG           SBIN WORD;
     1097    22529
     1098    22530
     1099    22531    2          IF ACCESS = %RANDOM_ACCESS

  22531 35 003214   000145 470400 0                  LDP0    @ACCESS
        35 003215   000000 235100                    LDA     0,,PR0
        35 003216   000002 115007                    CMPA    2,DL
        35 003217   003222 600000 35                 TZE     s:22533
        35 003220   000003 115007                    CMPA    3,DL
        35 003221   003276 601000 35                 TNZ     s:22578

     1100    22532    2          OR ACCESS = %DYNAMIC_ACCESS THEN
     1101    22533    3            DO CASE (ORG);

  22533 35 003222   000146 471400 0                  LDP1    @ORG
        35 003223   100000 235100                    LDA     0,,PR1
        35 003224   000023 115007                    CMPA    19,DL
        35 003225   003227 602005 35                 TNC     s:22533+5,AL
        35 003226   003276 710000 35                 TRA     s:22578
        35 003227   003276 710000 35                 TRA     s:22578
        35 003230   003252 710000 35                 TRA     s:22553
        35 003231   003276 710000 35                 TRA     s:22578
        35 003232   003276 710000 35                 TRA     s:22578
        35 003233   003276 710000 35                 TRA     s:22578
        35 003234   003252 710000 35                 TRA     s:22553
        35 003235   003252 710000 35                 TRA     s:22553
        35 003236   003252 710000 35                 TRA     s:22553
PL6.E3A0      #001=Z8EM$SEMANTICS_DATA_DIV File=Z8EM.:Z8A6TSI                    SAT 08/09/97 12:08 Page:393
        35 003237   003252 710000 35                 TRA     s:22553
        35 003240   003252 710000 35                 TRA     s:22553
        35 003241   003276 710000 35                 TRA     s:22578
        35 003242   003276 710000 35                 TRA     s:22578
        35 003243   003252 710000 35                 TRA     s:22553
        35 003244   003252 710000 35                 TRA     s:22553
        35 003245   003276 710000 35                 TRA     s:22578
        35 003246   003252 710000 35                 TRA     s:22553
        35 003247   003252 710000 35                 TRA     s:22553
        35 003250   003276 710000 35                 TRA     s:22578
        35 003251   003252 710000 35                 TRA     s:22553

     1102    22534    3              CASE (%SEQUENTIAL,        %UFF_SEQUENTIAL,

     1103    22535    3                    %ANSI_SEQUENTIAL,   %GFRC_SEQUENTIAL,
     1104    22536    3                    %OS_SEQUENTIAL,     %H2000_SEQUENTIAL,
     1105    22537    3                    %GFRC_C_6000_SEQUENTIAL, %OS_EBCDIC_SEQUENTIAL,
     1106    22538    3                    %MULTICS_STREAM,    %DOS_SEQUENTIAL,
     1107    22539    3                    %MULTICS_SEQUENTIAL);
     1108    22540                     %CONDITIONAL_ERROR (@LX_ITEM$ = ITEM$,
     1109    22541                                         @ERROR#   = %E$ACCESS_AND_ORG_DIFF,
     1110    22542                                         @LINE     = ITEM$ -> LX_ITEM.LINE,
     1111    22543                                         @COLUMN   = ITEM$ -> LX_ITEM.COLUMN);

  22553 35 003252   000144 473400 0                  LDP3    @ITEM$
        35 003253   300000 474500                    LDP4    0,,PR3
        35 003254   400000 236100                    LDQ     0,,PR4
        35 003255   400000 316007                    CANQ    -131072,DL
        35 003256   003276 601000 35                 TNZ     s:22578

  22555 35 003257   400006 635500                    EPPR5   6,,PR4
        35 003260   001014 455400 0                  STP5    PROC$+4
        35 003261   400005 636500                    EPPR6   5,,PR4
        35 003262   001013 456400 0                  STP6    PROC$+3
        35 003263   000131 236000 36                 LDQ     89
        35 003264   001012 756000 0                  STQ     PROC$+2
        35 003265   001012 630400 0                  EPPR0   PROC$+2
PL6.E3A0      #001=Z8EM$SEMANTICS_DATA_DIV File=Z8EM.:Z8A6TSI                    SAT 08/09/97 12:08 Page:394
        35 003266   000000 631400 36                 EPPR1   0
        35 003267   000000 701000 xent               TSX1    Z8AE$ERROR
        35 003270   000000 011000                    NOP     0

  22564 35 003271   000144 470400 0                  LDP0    @ITEM$
        35 003272   000000 471500                    LDP1    0,,PR0
        35 003273   400000 236007                    LDQ     -131072,DL
        35 003274   100000 256100                    ORSQ    0,,PR1

  22571 35 003275   003276 710000 35                 TRA     s:22578

     1112    22573
     1113    22574    3              CASE (ELSE);

     1114    22575                     /* Org and access can be diff */
     1115    22576    3            END; /* Case -- org */

     1116    22577
     1117    22578    2   END CHECK_DIFF_ORG_AND_ACCESS;

  22578 35 003276   000143 221200 0                  LDX1  ! TITEM$+1
        35 003277   000001 702211                    TSX2  ! 1,X1

     1118    22579        %EJECT;
PL6.E3A0      #001=Z8EM$SEMANTICS_DATA_DIV File=Z8EM.:Z8A6TSI                    SAT 08/09/97 12:08 Page:395
     1119    22580        /*==================*/
     1120    22581    1     CHECK_FOR_DUP_PROC : PROC (INT$, TERMINAL$);

  22581 35 003300   000147 741200 0     CHECK_FOR_D* STX1  ! @ORG+1

     1121    22582        /*==================*/
     1122    22583
     1123    22584    2        DCL INT$          PTR; /* To INTDEF ST item */
     1124    22585    2        DCL P$            PTR;
     1125    22586    2        DCL CURR_FATHER$  PTR;
     1126    22587    2        DCL NEXT_FATHER$  PTR;
     1127    22588    2        DCL TERMINAL$     PTR; /* To lx_terminal for line & column */
     1128    22589
     1129    22590
     1130    22591    2        P$ = INT$ -> INTDEF.DNT$ -> DNT.ST$;

  22591 35 003301   000150 470400 0                  LDP0    @INT$
        35 003302   000000 471500                    LDP1    0,,PR0
        35 003303   100006 473500                    LDP3    6,,PR1
        35 003304   300001 236100                    LDQ     1,,PR3
        35 003305   000152 756000 0                  STQ     P$

     1131    22592
     1132    22593    3        DO WHILE (P$ ~= ADDR(NIL));

  22593 35 003306   003323 710000 35                 TRA     s:22600

     1133    22594    3          IF (P$ -> ST.ID = %INTDEF

  22594 35 003307   000152 470400 0                  LDP0    P$
        35 003310   000000 220100                    LDX0    0,,PR0
        35 003311   000776 100003                    CMPX0   510,DU
        35 003312   003315 600000 35                 TZE     s:22594+6
        35 003313   000773 100003                    CMPX0   507,DU
        35 003314   003321 601000 35                 TNZ     s:22599
        35 003315   000150 471400 0                  LDP1    @INT$
        35 003316   000152 236000 0                  LDQ     P$
PL6.E3A0      #001=Z8EM$SEMANTICS_DATA_DIV File=Z8EM.:Z8A6TSI                    SAT 08/09/97 12:08 Page:396
        35 003317   100000 116100                    CMPQ    0,,PR1
        35 003320   003325 601000 35                 TNZ     s:22602

     1134    22595    3              OR P$ -> ST.ID = %SYMDEF_)
     1135    22596    3          AND P$ ~= INT$ THEN
     1136    22597    3            EXIT;
     1137    22598
     1138    22599    3          P$ = P$ -> ST.NEXT;

  22599 35 003321   000004 236100                    LDQ     4,,PR0
        35 003322   000152 756000 0                  STQ     P$

     1139    22600    3        END;

  22600 35 003323   000024 116000 36                 CMPQ    20
        35 003324   003307 601000 35                 TNZ     s:22594

     1140    22601
     1141    22602    2        IF P$ = ADDR(NIL) THEN

  22602 35 003325   000024 116000 36                 CMPQ    20
        35 003326   003331 601000 35                 TNZ     s:22606

     1142    22603               /* No duplicate exists */
     1143    22604    2          RETURN;

  22604 35 003327   000147 221200 0                  LDX1  ! @ORG+1
        35 003330   000001 702211                    TSX2  ! 1,X1

     1144    22605
     1145    22606    2        CURR_FATHER$ = INT$ -> INTDEF.PROC$;

  22606 35 003331   000150 470400 0                  LDP0    @INT$
        35 003332   000000 471500                    LDP1    0,,PR0
        35 003333   100011 236100                    LDQ     9,,PR1
        35 003334   000153 756000 0                  STQ     CURR_FATHER$

PL6.E3A0      #001=Z8EM$SEMANTICS_DATA_DIV File=Z8EM.:Z8A6TSI                    SAT 08/09/97 12:08 Page:397
     1146    22607
     1147    22608    3        DO WHILE (CURR_FATHER$ -> PROC_.FATHER ~= ADDR(NIL));

  22608 35 003335   003341 710000 35                 TRA     s:22610

     1148    22609    3          CURR_FATHER$ = CURR_FATHER$ -> PROC_.FATHER;

  22609 35 003336   000153 470400 0                  LDP0    CURR_FATHER$
        35 003337   000011 236100                    LDQ     9,,PR0
        35 003340   000153 756000 0                  STQ     CURR_FATHER$

     1149    22610    3        END; /* While */

  22610 35 003341   000153 470400 0                  LDP0    CURR_FATHER$
        35 003342   000011 236100                    LDQ     9,,PR0
        35 003343   000024 116000 36                 CMPQ    20
        35 003344   003336 601000 35                 TNZ     s:22609

     1150    22611
     1151    22612    2        NEXT_FATHER$ = P$ -> INTDEF.PROC$;

  22612 35 003345   000152 471400 0                  LDP1    P$
        35 003346   100011 236100                    LDQ     9,,PR1
        35 003347   000154 756000 0                  STQ     NEXT_FATHER$

     1152    22613
     1153    22614    3        DO WHILE (NEXT_FATHER$ -> PROC_.FATHER ~= ADDR(NIL));

  22614 35 003350   003354 710000 35                 TRA     s:22616

     1154    22615    3          NEXT_FATHER$ = NEXT_FATHER$ -> PROC_.FATHER;

  22615 35 003351   000154 470400 0                  LDP0    NEXT_FATHER$
        35 003352   000011 236100                    LDQ     9,,PR0
        35 003353   000154 756000 0                  STQ     NEXT_FATHER$

     1155    22616    3        END; /* While */
PL6.E3A0      #001=Z8EM$SEMANTICS_DATA_DIV File=Z8EM.:Z8A6TSI                    SAT 08/09/97 12:08 Page:398

  22616 35 003354   000154 470400 0                  LDP0    NEXT_FATHER$
        35 003355   000011 236100                    LDQ     9,,PR0
        35 003356   000024 116000 36                 CMPQ    20
        35 003357   003351 601000 35                 TNZ     s:22615

     1156    22617
     1157    22618    2        IF NEXT_FATHER$ = CURR_FATHER$ THEN

  22618 35 003360   000154 236000 0                  LDQ     NEXT_FATHER$
        35 003361   000153 116000 0                  CMPQ    CURR_FATHER$
        35 003362   003406 601000 35                 TNZ     s:22659

     1158    22619    3          DO;

     1159    22620                 /*E* ERROR: Two internal procedures in the same compiled
     1160    22621                             unit, with the same name.
     1161    22622                 */
     1162    22623
     1163    22624                 %CONDITIONAL_ERROR (@LX_ITEM$ = TERMINAL$,
     1164    22625                                     @ERROR#   = %E$TWO_PROCS_SAME_NAME,
     1165    22626                                     @LINE     = TERMINAL$ -> LX_ITEM.LINE,
     1166    22627                                     @COLUMN   = TERMINAL$ -> LX_ITEM.COLUMN);

  22637 35 003363   000151 471400 0                  LDP1    @TERMINAL$
        35 003364   100000 473500                    LDP3    0,,PR1
        35 003365   300000 236100                    LDQ     0,,PR3
        35 003366   400000 316007                    CANQ    -131072,DL
        35 003367   003406 601000 35                 TNZ     s:22659

  22639 35 003370   300006 634500                    EPPR4   6,,PR3
        35 003371   001014 454400 0                  STP4    PROC$+4
        35 003372   300005 635500                    EPPR5   5,,PR3
        35 003373   001013 455400 0                  STP5    PROC$+3
        35 003374   000133 236000 36                 LDQ     91
        35 003375   001012 756000 0                  STQ     PROC$+2
        35 003376   001012 630400 0                  EPPR0   PROC$+2
PL6.E3A0      #001=Z8EM$SEMANTICS_DATA_DIV File=Z8EM.:Z8A6TSI                    SAT 08/09/97 12:08 Page:399
        35 003377   000000 631400 36                 EPPR1   0
        35 003400   000000 701000 xent               TSX1    Z8AE$ERROR
        35 003401   000000 011000                    NOP     0

  22648 35 003402   000151 470400 0                  LDP0    @TERMINAL$
        35 003403   000000 471500                    LDP1    0,,PR0
        35 003404   400000 236007                    LDQ     -131072,DL
        35 003405   100000 256100                    ORSQ    0,,PR1

     1167    22657    3          END;

     1168    22658
     1169    22659    2   END CHECK_FOR_DUP_PROC;

  22659 35 003406   000147 221200 0                  LDX1  ! @ORG+1
        35 003407   000001 702211                    TSX2  ! 1,X1

     1170    22660        %EJECT;
PL6.E3A0      #001=Z8EM$SEMANTICS_DATA_DIV File=Z8EM.:Z8A6TSI                    SAT 08/09/97 12:08 Page:400
     1171    22661        /*==========================*/
     1172    22662    1     CHECK_FOR_PAD_DELIM_LINAGE: PROC (ORG$);

  22662 35 003410   000155 741200 0     CHECK_FOR_P* STX1  ! NEXT_FATHER$+1

     1173    22663        /*==========================*/
     1174    22664
     1175    22665    2        DCL ORG$          PTR;
     1176    22666    2        DCL FILE$         PTR;
     1177    22667
     1178    22668
     1179    22669    2        FILE$ = O1COM.CURRENT_FILE_LTS$;

  22669 35 003411   000045 236000 xsym               LDQ     O1COM+37
        35 003412   000157 756000 0                  STQ     FILE$

     1180    22670
     1181    22671    2        IF FILE$ -> FILE_LTS.PAD_CHAR$ ~= ADDR(NIL) THEN

  22671 35 003413   000157 470400 0                  LDP0    FILE$
        35 003414   000007 236100                    LDQ     7,,PR0
        35 003415   000024 116000 36                 CMPQ    20
        35 003416   003453 600000 35                 TZE     s:22710

     1182    22672    3          DO;

     1183    22673                 %CONDITIONAL_ERROR (@LX_ITEM$ = ORG$,
     1184    22674                                     @ERROR#   = %E$ORG_NOT_SEQ_WITH_CLAUSE,
     1185    22675                                     @LINE     = ORG$ -> LX_ITEM.LINE,
     1186    22676                                     @COLUMN   = ORG$ -> LX_ITEM.COLUMN,
     1187    22677                                     @PLUG1    = "DNT$_FROM_RSWNO(%RSV_WRD_PADDING)");

  22687 35 003417   000156 471400 0                  LDP1    @ORG$
        35 003420   100000 473500                    LDP3    0,,PR1
        35 003421   300000 236100                    LDQ     0,,PR3
        35 003422   400000 316007                    CANQ    -131072,DL
        35 003423   003444 601000 35                 TNZ     s:22707
PL6.E3A0      #001=Z8EM$SEMANTICS_DATA_DIV File=Z8EM.:Z8A6TSI                    SAT 08/09/97 12:08 Page:401

  22689 35 003424   000135 236000 36                 LDQ     93
        35 003425   001015 756000 0                  STQ     PROC$+5
        35 003426   300006 634500                    EPPR4   6,,PR3
        35 003427   001014 454400 0                  STP4    PROC$+4
        35 003430   300005 635500                    EPPR5   5,,PR3
        35 003431   001013 455400 0                  STP5    PROC$+3
        35 003432   000136 236000 36                 LDQ     94
        35 003433   001012 756000 0                  STQ     PROC$+2
        35 003434   001012 630400 0                  EPPR0   PROC$+2
        35 003435   000005 631400 36                 EPPR1   5
        35 003436   000000 701000 xent               TSX1    Z8AE$ERROR
        35 003437   000000 011000                    NOP     0

  22698 35 003440   000156 470400 0                  LDP0    @ORG$
        35 003441   000000 471500                    LDP1    0,,PR0
        35 003442   400000 236007                    LDQ     -131072,DL
        35 003443   100000 256100                    ORSQ    0,,PR1

     1188    22707    3            CALL Z8ED$DISPOSE_ABSSYN_TREE (FILE$ -> FILE_LTS.PAD_CHAR$);

  22707 35 003444   000157 236000 0                  LDQ     FILE$
        35 003445   000007 036003                    ADLQ    7,DU
        35 003446   001012 756000 0                  STQ     PROC$+2
        35 003447   001012 630400 0                  EPPR0   PROC$+2
        35 003450   000036 631400 36                 EPPR1   30
        35 003451   000000 701000 xent               TSX1    Z8ED$DISPOSE_ABSSYN_TREE
        35 003452   000000 011000                    NOP     0

     1189    22708    3          END;

     1190    22709
     1191    22710    2        IF FILE$ -> FILE_LTS.RECORD_DELIM ~= %NOT_SPECIFIED THEN

  22710 35 003453   000157 470400 0                  LDP0    FILE$
        35 003454   000010 235100                    LDA     8,,PR0
        35 003455   003505 600000 35                 TZE     s:22749
PL6.E3A0      #001=Z8EM$SEMANTICS_DATA_DIV File=Z8EM.:Z8A6TSI                    SAT 08/09/97 12:08 Page:402

     1192    22711    3          DO;

     1193    22712                 %CONDITIONAL_ERROR (@LX_ITEM$ = ORG$,
     1194    22713                                     @ERROR#   = %E$ORG_NOT_SEQ_WITH_CLAUSE,
     1195    22714                                     @LINE     = ORG$ -> LX_ITEM.LINE,
     1196    22715                                     @COLUMN   = ORG$ -> LX_ITEM.COLUMN,
     1197    22716                                     @PLUG1    = "DNT$_FROM_RSWNO(%RSV_WRD_DELIMITER)");

  22726 35 003456   000156 471400 0                  LDP1    @ORG$
        35 003457   100000 473500                    LDP3    0,,PR1
        35 003460   300000 236100                    LDQ     0,,PR3
        35 003461   400000 316007                    CANQ    -131072,DL
        35 003462   003503 601000 35                 TNZ     s:22746

  22728 35 003463   000137 236000 36                 LDQ     95
        35 003464   001015 756000 0                  STQ     PROC$+5
        35 003465   300006 634500                    EPPR4   6,,PR3
        35 003466   001014 454400 0                  STP4    PROC$+4
        35 003467   300005 635500                    EPPR5   5,,PR3
        35 003470   001013 455400 0                  STP5    PROC$+3
        35 003471   000136 236000 36                 LDQ     94
        35 003472   001012 756000 0                  STQ     PROC$+2
        35 003473   001012 630400 0                  EPPR0   PROC$+2
        35 003474   000005 631400 36                 EPPR1   5
        35 003475   000000 701000 xent               TSX1    Z8AE$ERROR
        35 003476   000000 011000                    NOP     0

  22737 35 003477   000156 470400 0                  LDP0    @ORG$
        35 003500   000000 471500                    LDP1    0,,PR0
        35 003501   400000 236007                    LDQ     -131072,DL
        35 003502   100000 256100                    ORSQ    0,,PR1

     1198    22746    3            FILE$ -> FILE_LTS.RECORD_DELIM = %NOT_SPECIFIED;

  22746 35 003503   000157 470400 0                  LDP0    FILE$
        35 003504   000010 450100                    STZ     8,,PR0
PL6.E3A0      #001=Z8EM$SEMANTICS_DATA_DIV File=Z8EM.:Z8A6TSI                    SAT 08/09/97 12:08 Page:403

     1199    22747    3          END;

     1200    22748
     1201    22749    2        IF FILE$ -> FILE_LTS.LINAGE.NO_OF_LINES$ ~= ADDR(NIL) THEN

  22749 35 003505   000033 236100                    LDQ     27,,PR0
        35 003506   000024 116000 36                 CMPQ    20
        35 003507   003605 600000 35                 TZE     s:22797

     1202    22750    3          DO;

     1203    22751                 %CONDITIONAL_ERROR (@LX_ITEM$ = ORG$,
     1204    22752                                     @ERROR#   = %E$ORG_NOT_SEQ_WITH_CLAUSE,
     1205    22753                                     @LINE     = ORG$ -> LX_ITEM.LINE,
     1206    22754                                     @COLUMN   = ORG$ -> LX_ITEM.COLUMN,
     1207    22755                                     @PLUG1    = "DNT$_FROM_RSWNO(%RSV_WRD_LINAGE)");

  22765 35 003510   000156 471400 0                  LDP1    @ORG$
        35 003511   100000 473500                    LDP3    0,,PR1
        35 003512   300000 236100                    LDQ     0,,PR3
        35 003513   400000 316007                    CANQ    -131072,DL
        35 003514   003535 601000 35                 TNZ     s:22785

  22767 35 003515   000140 236000 36                 LDQ     96
        35 003516   001015 756000 0                  STQ     PROC$+5
        35 003517   300006 634500                    EPPR4   6,,PR3
        35 003520   001014 454400 0                  STP4    PROC$+4
        35 003521   300005 635500                    EPPR5   5,,PR3
        35 003522   001013 455400 0                  STP5    PROC$+3
        35 003523   000136 236000 36                 LDQ     94
        35 003524   001012 756000 0                  STQ     PROC$+2
        35 003525   001012 630400 0                  EPPR0   PROC$+2
        35 003526   000005 631400 36                 EPPR1   5
        35 003527   000000 701000 xent               TSX1    Z8AE$ERROR
        35 003530   000000 011000                    NOP     0

PL6.E3A0      #001=Z8EM$SEMANTICS_DATA_DIV File=Z8EM.:Z8A6TSI                    SAT 08/09/97 12:08 Page:404
  22776 35 003531   000156 470400 0                  LDP0    @ORG$
        35 003532   000000 471500                    LDP1    0,,PR0
        35 003533   400000 236007                    LDQ     -131072,DL
        35 003534   100000 256100                    ORSQ    0,,PR1

     1208    22785    3            CALL Z8ED$DISPOSE_ABSSYN_TREE (FILE$ -> FILE_LTS.PAD_CHAR$);

  22785 35 003535   000157 236000 0                  LDQ     FILE$
        35 003536   000007 036003                    ADLQ    7,DU
        35 003537   001012 756000 0                  STQ     PROC$+2
        35 003540   001012 630400 0                  EPPR0   PROC$+2
        35 003541   000036 631400 36                 EPPR1   30
        35 003542   000000 701000 xent               TSX1    Z8ED$DISPOSE_ABSSYN_TREE
        35 003543   000000 011000                    NOP     0

     1209    22786
     1210    22787    3            IF FILE$ -> FILE_LTS.LINAGE.FOOTING$ ~= ADDR(NIL) THEN

  22787 35 003544   000157 470400 0                  LDP0    FILE$
        35 003545   000034 236100                    LDQ     28,,PR0
        35 003546   000024 116000 36                 CMPQ    20
        35 003547   003557 600000 35                 TZE     s:22790

     1211    22788    3              CALL Z8ED$DISPOSE_ABSSYN_TREE (FILE$ -> FILE_LTS.LINAGE.FOOTING$);

  22788 35 003550   000157 236000 0                  LDQ     FILE$
        35 003551   000034 036003                    ADLQ    28,DU
        35 003552   001012 756000 0                  STQ     PROC$+2
        35 003553   001012 630400 0                  EPPR0   PROC$+2
        35 003554   000036 631400 36                 EPPR1   30
        35 003555   000000 701000 xent               TSX1    Z8ED$DISPOSE_ABSSYN_TREE
        35 003556   000000 011000                    NOP     0

     1212    22789
     1213    22790    3            IF FILE$ -> FILE_LTS.LINAGE.BOTTOM$ ~= ADDR(NIL) THEN

  22790 35 003557   000157 470400 0                  LDP0    FILE$
PL6.E3A0      #001=Z8EM$SEMANTICS_DATA_DIV File=Z8EM.:Z8A6TSI                    SAT 08/09/97 12:08 Page:405
        35 003560   000036 236100                    LDQ     30,,PR0
        35 003561   000024 116000 36                 CMPQ    20
        35 003562   003572 600000 35                 TZE     s:22793

     1214    22791    3              CALL Z8ED$DISPOSE_ABSSYN_TREE (FILE$ -> FILE_LTS.LINAGE.BOTTOM$);

  22791 35 003563   000157 236000 0                  LDQ     FILE$
        35 003564   000036 036003                    ADLQ    30,DU
        35 003565   001012 756000 0                  STQ     PROC$+2
        35 003566   001012 630400 0                  EPPR0   PROC$+2
        35 003567   000036 631400 36                 EPPR1   30
        35 003570   000000 701000 xent               TSX1    Z8ED$DISPOSE_ABSSYN_TREE
        35 003571   000000 011000                    NOP     0

     1215    22792
     1216    22793    3            IF FILE$ -> FILE_LTS.LINAGE.TOP$ ~= ADDR(NIL) THEN

  22793 35 003572   000157 470400 0                  LDP0    FILE$
        35 003573   000035 236100                    LDQ     29,,PR0
        35 003574   000024 116000 36                 CMPQ    20
        35 003575   003605 600000 35                 TZE     s:22797

     1217    22794    3              CALL Z8ED$DISPOSE_ABSSYN_TREE (FILE$ -> FILE_LTS.LINAGE.TOP$);

  22794 35 003576   000157 236000 0                  LDQ     FILE$
        35 003577   000035 036003                    ADLQ    29,DU
        35 003600   001012 756000 0                  STQ     PROC$+2
        35 003601   001012 630400 0                  EPPR0   PROC$+2
        35 003602   000036 631400 36                 EPPR1   30
        35 003603   000000 701000 xent               TSX1    Z8ED$DISPOSE_ABSSYN_TREE
        35 003604   000000 011000                    NOP     0

     1218    22795    3          END;

     1219    22796
     1220    22797    2   END CHECK_FOR_PAD_DELIM_LINAGE;

PL6.E3A0      #001=Z8EM$SEMANTICS_DATA_DIV File=Z8EM.:Z8A6TSI                    SAT 08/09/97 12:08 Page:406
  22797 35 003605   000155 221200 0                  LDX1  ! NEXT_FATHER$+1
        35 003606   000001 702211                    TSX2  ! 1,X1

     1221    22798        %EJECT;
PL6.E3A0      #001=Z8EM$SEMANTICS_DATA_DIV File=Z8EM.:Z8A6TSI                    SAT 08/09/97 12:08 Page:407
     1222    22799        /*=============*/
     1223    22800    1     CHECK_IND_ORG: PROC (TERMINAL$) ALTRET;

  22800 35 003607   000160 741200 0     CHECK_IND_O* STX1  ! FILE$+1

     1224    22801        /*=============*/
     1225    22802
     1226    22803    2        DCL TERMINAL$     PTR;
     1227    22804
     1228    22805
     1229    22806
     1230    22807    3        DO CASE (O1COM.CURRENT_FILE_LTS$ -> FILE_LTS.ORGANIZATION);

  22807 35 003610   000045 470400 xsym               LDP0    O1COM+37
        35 003611   000006 235100                    LDA     6,,PR0
        35 003612   000024 115007                    CMPA    20,DL
        35 003613   003615 602005 35                 TNC     s:22807+5,AL
        35 003614   003670 710000 35                 TRA     s:22852
        35 003615   003670 710000 35                 TRA     s:22852
        35 003616   003670 710000 35                 TRA     s:22852
        35 003617   003670 710000 35                 TRA     s:22852
        35 003620   003641 710000 35                 TRA     s:22829
        35 003621   003670 710000 35                 TRA     s:22852
        35 003622   003670 710000 35                 TRA     s:22852
        35 003623   003670 710000 35                 TRA     s:22852
        35 003624   003670 710000 35                 TRA     s:22852
        35 003625   003670 710000 35                 TRA     s:22852
        35 003626   003670 710000 35                 TRA     s:22852
        35 003627   003670 710000 35                 TRA     s:22852
        35 003630   003641 710000 35                 TRA     s:22829
        35 003631   003670 710000 35                 TRA     s:22852
        35 003632   003670 710000 35                 TRA     s:22852
        35 003633   003641 710000 35                 TRA     s:22829
        35 003634   003670 710000 35                 TRA     s:22852
        35 003635   003670 710000 35                 TRA     s:22852
        35 003636   003670 710000 35                 TRA     s:22852
        35 003637   003670 710000 35                 TRA     s:22852
PL6.E3A0      #001=Z8EM$SEMANTICS_DATA_DIV File=Z8EM.:Z8A6TSI                    SAT 08/09/97 12:08 Page:408
        35 003640   003641 710000 35                 TRA     s:22829

     1231    22808
     1232    22809    3          CASE (

     1233    22810                     %SET_OF_INDEXED_ORGANIZATION;
     1234    22814    3               );
     1235    22815                 %CONDITIONAL_ERROR (@LX_ITEM$ = TERMINAL$,
     1236    22816                              @ERROR#   = %E$CLAUSE_NOT_VALID_WITH_ORG,
     1237    22817                              @LINE     = TERMINAL$ -> LX_ITEM.LINE,
     1238    22818                              @COLUMN   = TERMINAL$ -> LX_ITEM.COLUMN,
     1239    22819                              @PLUG1    = "DNT$_FROM_RSWNO(%RSV_WRD_INDEXED)");

  22829 35 003641   000161 471400 0                  LDP1    @TERMINAL$
        35 003642   100000 473500                    LDP3    0,,PR1
        35 003643   300000 236100                    LDQ     0,,PR3
        35 003644   400000 316007                    CANQ    -131072,DL
        35 003645   003666 601000 35                 TNZ     s:22849

  22831 35 003646   000142 236000 36                 LDQ     98
        35 003647   001015 756000 0                  STQ     PROC$+5
        35 003650   300006 634500                    EPPR4   6,,PR3
        35 003651   001014 454400 0                  STP4    PROC$+4
        35 003652   300005 635500                    EPPR5   5,,PR3
        35 003653   001013 455400 0                  STP5    PROC$+3
        35 003654   000143 236000 36                 LDQ     99
        35 003655   001012 756000 0                  STQ     PROC$+2
        35 003656   001012 630400 0                  EPPR0   PROC$+2
        35 003657   000005 631400 36                 EPPR1   5
        35 003660   000000 701000 xent               TSX1    Z8AE$ERROR
        35 003661   000000 011000                    NOP     0

  22840 35 003662   000161 470400 0                  LDP0    @TERMINAL$
        35 003663   000000 471500                    LDP1    0,,PR0
        35 003664   400000 236007                    LDQ     -131072,DL
        35 003665   100000 256100                    ORSQ    0,,PR1

PL6.E3A0      #001=Z8EM$SEMANTICS_DATA_DIV File=Z8EM.:Z8A6TSI                    SAT 08/09/97 12:08 Page:409
     1240    22849    3            ALTRETURN;

  22849 35 003666   000160 221200 0                  LDX1  ! FILE$+1
        35 003667   000000 702211                    TSX2  ! 0,X1

     1241    22850
     1242    22851    3          CASE (ELSE);

     1243    22852    3            RETURN;

  22852 35 003670   000001 702211                    TSX2  ! 1,X1

     1244    22853
     1245    22854    3        END; /* Case */

     1246    22855
     1247    22856    2   END CHECK_IND_ORG;
     1248    22857        %EJECT;
PL6.E3A0      #001=Z8EM$SEMANTICS_DATA_DIV File=Z8EM.:Z8A6TSI                    SAT 08/09/97 12:08 Page:410
     1249    22858        /*=============*/
     1250    22859    1     CHECK_KEY_ORG: PROC (TERMINAL$) ALTRET;

  22859 35 003671   000162 741200 0     CHECK_KEY_O* STX1  ! @TERMINAL$+1

     1251    22860        /*=============*/
     1252    22861
     1253    22862    2        DCL TERMINAL$     PTR;
     1254    22863
     1255    22864
     1256    22865
     1257    22866    3        DO CASE (O1COM.CURRENT_FILE_LTS$ -> FILE_LTS.ORGANIZATION);

  22866 35 003672   000045 470400 xsym               LDP0    O1COM+37
        35 003673   000006 235100                    LDA     6,,PR0
        35 003674   000004 135007                    SBLA    4,DL
        35 003675   000001 115007                    CMPA    1,DL
        35 003676   003700 602005 35                 TNC     s:22866+6,AL
        35 003677   003730 710000 35                 TRA     s:22910
        35 003700   003701 710000 35                 TRA     s:22887

     1258    22867
     1259    22868    3          CASE (

     1260    22869                     %SET_OF_KEYED_ORGANIZATION;
     1261    22872    3               );
     1262    22873                 %CONDITIONAL_ERROR (@LX_ITEM$ = TERMINAL$,
     1263    22874                              @ERROR#   = %E$CLAUSE_NOT_VALID_WITH_ORG,
     1264    22875                              @LINE     = TERMINAL$ -> LX_ITEM.LINE,
     1265    22876                              @COLUMN   = TERMINAL$ -> LX_ITEM.COLUMN,
     1266    22877                              @PLUG1    = "DNT$_FROM_RSWNO(%RSV_WRD_KEYED)");

  22887 35 003701   000163 471400 0                  LDP1    @TERMINAL$
        35 003702   100000 473500                    LDP3    0,,PR1
        35 003703   300000 236100                    LDQ     0,,PR3
        35 003704   400000 316007                    CANQ    -131072,DL
        35 003705   003726 601000 35                 TNZ     s:22907
PL6.E3A0      #001=Z8EM$SEMANTICS_DATA_DIV File=Z8EM.:Z8A6TSI                    SAT 08/09/97 12:08 Page:411

  22889 35 003706   000144 236000 36                 LDQ     100
        35 003707   001015 756000 0                  STQ     PROC$+5
        35 003710   300006 634500                    EPPR4   6,,PR3
        35 003711   001014 454400 0                  STP4    PROC$+4
        35 003712   300005 635500                    EPPR5   5,,PR3
        35 003713   001013 455400 0                  STP5    PROC$+3
        35 003714   000143 236000 36                 LDQ     99
        35 003715   001012 756000 0                  STQ     PROC$+2
        35 003716   001012 630400 0                  EPPR0   PROC$+2
        35 003717   000005 631400 36                 EPPR1   5
        35 003720   000000 701000 xent               TSX1    Z8AE$ERROR
        35 003721   000000 011000                    NOP     0

  22898 35 003722   000163 470400 0                  LDP0    @TERMINAL$
        35 003723   000000 471500                    LDP1    0,,PR0
        35 003724   400000 236007                    LDQ     -131072,DL
        35 003725   100000 256100                    ORSQ    0,,PR1

     1267    22907    3            ALTRETURN;

  22907 35 003726   000162 221200 0                  LDX1  ! @TERMINAL$+1
        35 003727   000000 702211                    TSX2  ! 0,X1

     1268    22908
     1269    22909    3          CASE (ELSE);

     1270    22910    3            RETURN;

  22910 35 003730   000001 702211                    TSX2  ! 1,X1

     1271    22911
     1272    22912    3        END; /* Case */

     1273    22913
     1274    22914    2   END CHECK_KEY_ORG;
     1275    22915        %EJECT;
PL6.E3A0      #001=Z8EM$SEMANTICS_DATA_DIV File=Z8EM.:Z8A6TSI                    SAT 08/09/97 12:08 Page:412
     1276    22916    1   CHECK_OBJECT_COMPUTER : PROC (DNT$);

  22916 35 003731   000164 741200 0     CHECK_OBJEC* STX1  ! @TERMINAL$+1

     1277    22917
     1278    22918    2      DCL DNT$ PTR;
     1279    22919
     1280    22920
     1281    22921    2    IF NOT COMCOM.PLATFORM THEN

  22921 35 003732   000452 234000 xsym               SZN     COMCOM+298
        35 003733   004025 604000 35                 TMI     s:22937

     1282    22922    3     DO SELECT (DNT$ -> DNT.TEXT.NAME);

  22922 35 003734   000165 470400 0                  LDP0    @DNT$
        35 003735   000000 471500                    LDP1    0,,PR0
        35 003736   100004 220100                    LDX0    4,,PR1
        35 003737   040000 106540                    CMPC    fill='040'O
        35 003740   100004 400010                    ADSC9   4,,PR1                   cn=2,n=*X0
        35 003741   000031 000006 34                 ADSC9   RSW_NO+25                cn=0,n=6
        35 003742   003776 602000 35                 TNC     s:22922+34
        35 003743   004015 600000 35                 TZE     s:22929
        35 003744   040000 106540                    CMPC    fill='040'O
        35 003745   100004 400010                    ADSC9   4,,PR1                   cn=2,n=*X0
        35 003746   000033 000005 34                 ADSC9   RSW_NO+27                cn=0,n=5
        35 003747   003763 602000 35                 TNC     s:22922+23
        35 003750   004011 600000 35                 TZE     s:22925
        35 003751   040000 106540                    CMPC    fill='040'O
        35 003752   100004 400010                    ADSC9   4,,PR1                   cn=2,n=*X0
        35 003753   000035 000005 34                 ADSC9   RSW_NO+29                cn=0,n=5
        35 003754   004022 602000 35                 TNC     s:22933
        35 003755   004015 600000 35                 TZE     s:22929
        35 003756   040000 106540                    CMPC    fill='040'O
        35 003757   100004 400010                    ADSC9   4,,PR1                   cn=2,n=*X0
        35 003760   000037 000007 34                 ADSC9   RSW_NO+31                cn=0,n=7
        35 003761   004022 601000 35                 TNZ     s:22933
PL6.E3A0      #001=Z8EM$SEMANTICS_DATA_DIV File=Z8EM.:Z8A6TSI                    SAT 08/09/97 12:08 Page:413
        35 003762   004015 710000 35                 TRA     s:22929
        35 003763   040000 106540                    CMPC    fill='040'O
        35 003764   100004 400010                    ADSC9   4,,PR1                   cn=2,n=*X0
        35 003765   000041 000007 34                 ADSC9   RSW_NO+33                cn=0,n=7
        35 003766   003771 602000 35                 TNC     s:22922+29
        35 003767   004015 600000 35                 TZE     s:22929
        35 003770   004022 710000 35                 TRA     s:22933
        35 003771   040000 106540                    CMPC    fill='040'O
        35 003772   100004 400010                    ADSC9   4,,PR1                   cn=2,n=*X0
        35 003773   000043 000010 34                 ADSC9   RSW_NO+35                cn=0,n=8
        35 003774   004022 601000 35                 TNZ     s:22933
        35 003775   004015 710000 35                 TRA     s:22929
        35 003776   040000 106540                    CMPC    fill='040'O
        35 003777   100004 400010                    ADSC9   4,,PR1                   cn=2,n=*X0
        35 004000   000045 000006 34                 ADSC9   RSW_NO+37                cn=0,n=6
        35 004001   004004 602000 35                 TNC     s:22922+40
        35 004002   004011 600000 35                 TZE     s:22925
        35 004003   004022 710000 35                 TRA     s:22933
        35 004004   040000 106540                    CMPC    fill='040'O
        35 004005   100004 400010                    ADSC9   4,,PR1                   cn=2,n=*X0
        35 004006   000047 000010 34                 ADSC9   RSW_NO+39                cn=0,n=8
        35 004007   004022 601000 35                 TNZ     s:22933
        35 004010   004015 710000 35                 TRA     s:22929

     1283    22923
     1284    22924    3       SELECT('DPS88','DPS-88');

     1285    22925    3         COMCOM.OB.ELS = TRUE;

  22925 35 004011   400000 236003                    LDQ     -131072,DU
        35 004012   000026 256000 xsym               ORSQ    COMCOM+22

     1286    22926    3         COMCOM.OB.DPS88 = TRUE;

  22926 35 004013   000111 256000 xsym               ORSQ    COMCOM+73
        35 004014   004025 710000 35                 TRA     s:22937

PL6.E3A0      #001=Z8EM$SEMANTICS_DATA_DIV File=Z8EM.:Z8A6TSI                    SAT 08/09/97 12:08 Page:414
     1287    22927
     1288    22928    3       SELECT('DPS90','DPS-90','DPS8000','DPS-8000','DPS9000','DPS-9000');

     1289    22929    3         COMCOM.OB.ELS = TRUE;

  22929 35 004015   400000 236003                    LDQ     -131072,DU
        35 004016   000026 256000 xsym               ORSQ    COMCOM+22

     1290    22930    3         COMCOM.OB.DPS88 = FALSE;

  22930 35 004017   000040 236000 36                 LDQ     32
        35 004020   000111 356000 xsym               ANSQ    COMCOM+73
        35 004021   004025 710000 35                 TRA     s:22937

     1291    22931
     1292    22932    3       SELECT(ELSE);

     1293    22933    3         COMCOM.OB.ELS = FALSE;

  22933 35 004022   000040 236000 36                 LDQ     32
        35 004023   000026 356000 xsym               ANSQ    COMCOM+22

     1294    22934    3         COMCOM.OB.DPS88 = FALSE;

  22934 35 004024   000111 356000 xsym               ANSQ    COMCOM+73

     1295    22935    3     END;

     1296    22936
     1297    22937    2   END CHECK_OBJECT_COMPUTER;

  22937 35 004025   000001 702211                    TSX2  ! 1,X1

     1298    22938        %EJECT;
PL6.E3A0      #001=Z8EM$SEMANTICS_DATA_DIV File=Z8EM.:Z8A6TSI                    SAT 08/09/97 12:08 Page:415
     1299    22939        /*=============*/
     1300    22940    1     CHECK_REL_ORG: PROC (TERMINAL$) ALTRET;

  22940 35 004026   000166 741200 0     CHECK_REL_O* STX1  ! @DNT$+1

     1301    22941        /*=============*/
     1302    22942
     1303    22943    2        DCL TERMINAL$     PTR;
     1304    22944
     1305    22945
     1306    22946
     1307    22947    3        DO CASE (O1COM.CURRENT_FILE_LTS$ -> FILE_LTS.ORGANIZATION);

  22947 35 004027   000045 470400 xsym               LDP0    O1COM+37
        35 004030   000006 235100                    LDA     6,,PR0
        35 004031   000022 115007                    CMPA    18,DL
        35 004032   004034 602005 35                 TNC     s:22947+5,AL
        35 004033   004105 710000 35                 TRA     s:22992
        35 004034   004105 710000 35                 TRA     s:22992
        35 004035   004105 710000 35                 TRA     s:22992
        35 004036   004056 710000 35                 TRA     s:22969
        35 004037   004105 710000 35                 TRA     s:22992
        35 004040   004105 710000 35                 TRA     s:22992
        35 004041   004105 710000 35                 TRA     s:22992
        35 004042   004105 710000 35                 TRA     s:22992
        35 004043   004105 710000 35                 TRA     s:22992
        35 004044   004105 710000 35                 TRA     s:22992
        35 004045   004105 710000 35                 TRA     s:22992
        35 004046   004056 710000 35                 TRA     s:22969
        35 004047   004105 710000 35                 TRA     s:22992
        35 004050   004105 710000 35                 TRA     s:22992
        35 004051   004105 710000 35                 TRA     s:22992
        35 004052   004105 710000 35                 TRA     s:22992
        35 004053   004105 710000 35                 TRA     s:22992
        35 004054   004105 710000 35                 TRA     s:22992
        35 004055   004056 710000 35                 TRA     s:22969

PL6.E3A0      #001=Z8EM$SEMANTICS_DATA_DIV File=Z8EM.:Z8A6TSI                    SAT 08/09/97 12:08 Page:416
     1308    22948
     1309    22949    3          CASE (

     1310    22950                     %SET_OF_RELATIVE_ORGANIZATION;
     1311    22954    3               );
     1312    22955                 %CONDITIONAL_ERROR (@LX_ITEM$ = TERMINAL$,
     1313    22956                              @ERROR#   = %E$CLAUSE_NOT_VALID_WITH_ORG,
     1314    22957                              @LINE     = TERMINAL$ -> LX_ITEM.LINE,
     1315    22958                              @COLUMN   = TERMINAL$ -> LX_ITEM.COLUMN,
     1316    22959                              @PLUG1    = "DNT$_FROM_RSWNO(%RSV_WRD_RELATIVE)");

  22969 35 004056   000167 471400 0                  LDP1    @TERMINAL$
        35 004057   100000 473500                    LDP3    0,,PR1
        35 004060   300000 236100                    LDQ     0,,PR3
        35 004061   400000 316007                    CANQ    -131072,DL
        35 004062   004103 601000 35                 TNZ     s:22989

  22971 35 004063   000145 236000 36                 LDQ     101
        35 004064   001015 756000 0                  STQ     PROC$+5
        35 004065   300006 634500                    EPPR4   6,,PR3
        35 004066   001014 454400 0                  STP4    PROC$+4
        35 004067   300005 635500                    EPPR5   5,,PR3
        35 004070   001013 455400 0                  STP5    PROC$+3
        35 004071   000143 236000 36                 LDQ     99
        35 004072   001012 756000 0                  STQ     PROC$+2
        35 004073   001012 630400 0                  EPPR0   PROC$+2
        35 004074   000005 631400 36                 EPPR1   5
        35 004075   000000 701000 xent               TSX1    Z8AE$ERROR
        35 004076   000000 011000                    NOP     0

  22980 35 004077   000167 470400 0                  LDP0    @TERMINAL$
        35 004100   000000 471500                    LDP1    0,,PR0
        35 004101   400000 236007                    LDQ     -131072,DL
        35 004102   100000 256100                    ORSQ    0,,PR1

     1317    22989    3            ALTRETURN;

PL6.E3A0      #001=Z8EM$SEMANTICS_DATA_DIV File=Z8EM.:Z8A6TSI                    SAT 08/09/97 12:08 Page:417
  22989 35 004103   000166 221200 0                  LDX1  ! @DNT$+1
        35 004104   000000 702211                    TSX2  ! 0,X1

     1318    22990
     1319    22991    3          CASE (ELSE);

     1320    22992    3            RETURN;

  22992 35 004105   000001 702211                    TSX2  ! 1,X1

     1321    22993
     1322    22994    3        END; /* Case */

     1323    22995
     1324    22996    2   END CHECK_REL_ORG;
     1325    22997        %EJECT;
PL6.E3A0      #001=Z8EM$SEMANTICS_DATA_DIV File=Z8EM.:Z8A6TSI                    SAT 08/09/97 12:08 Page:418
     1326    22998        /*=============*/
     1327    22999    1     CHECK_SEQ_ORG: PROC (TERMINAL$) ALTRET;

  22999 35 004106   000170 741200 0     CHECK_SEQ_O* STX1  ! @TERMINAL$+1

     1328    23000        /*=============*/
     1329    23001
     1330    23002    2        DCL TERMINAL$     PTR;
     1331    23003
     1332    23004
     1333    23005
     1334    23006    3        DO CASE (O1COM.CURRENT_FILE_LTS$ -> FILE_LTS.ORGANIZATION);

  23006 35 004107   000045 470400 xsym               LDP0    O1COM+37
        35 004110   000006 235100                    LDA     6,,PR0
        35 004111   000023 115007                    CMPA    19,DL
        35 004112   004114 602005 35                 TNC     s:23006+5,AL
        35 004113   004166 710000 35                 TRA     s:23055
        35 004114   004166 710000 35                 TRA     s:23055
        35 004115   004137 710000 35                 TRA     s:23032
        35 004116   004166 710000 35                 TRA     s:23055
        35 004117   004166 710000 35                 TRA     s:23055
        35 004120   004166 710000 35                 TRA     s:23055
        35 004121   004137 710000 35                 TRA     s:23032
        35 004122   004137 710000 35                 TRA     s:23032
        35 004123   004137 710000 35                 TRA     s:23032
        35 004124   004137 710000 35                 TRA     s:23032
        35 004125   004137 710000 35                 TRA     s:23032
        35 004126   004166 710000 35                 TRA     s:23055
        35 004127   004166 710000 35                 TRA     s:23055
        35 004130   004137 710000 35                 TRA     s:23032
        35 004131   004137 710000 35                 TRA     s:23032
        35 004132   004166 710000 35                 TRA     s:23055
        35 004133   004137 710000 35                 TRA     s:23032
        35 004134   004137 710000 35                 TRA     s:23032
        35 004135   004166 710000 35                 TRA     s:23055
        35 004136   004137 710000 35                 TRA     s:23032
PL6.E3A0      #001=Z8EM$SEMANTICS_DATA_DIV File=Z8EM.:Z8A6TSI                    SAT 08/09/97 12:08 Page:419

     1335    23007
     1336    23008    3          CASE (

     1337    23009                     %SET_OF_SEQUENTIAL_ORGANIZATION;
     1338    23017    3               );
     1339    23018                 %CONDITIONAL_ERROR (@LX_ITEM$ = TERMINAL$,
     1340    23019                              @ERROR#   = %E$CLAUSE_NOT_VALID_WITH_ORG,
     1341    23020                              @LINE     = TERMINAL$ -> LX_ITEM.LINE,
     1342    23021                              @COLUMN   = TERMINAL$ -> LX_ITEM.COLUMN,
     1343    23022                              @PLUG1    = "DNT$_FROM_RSWNO(%RSV_WRD_SEQUENTIAL)");

  23032 35 004137   000171 471400 0                  LDP1    @TERMINAL$
        35 004140   100000 473500                    LDP3    0,,PR1
        35 004141   300000 236100                    LDQ     0,,PR3
        35 004142   400000 316007                    CANQ    -131072,DL
        35 004143   004164 601000 35                 TNZ     s:23052

  23034 35 004144   000146 236000 36                 LDQ     102
        35 004145   001015 756000 0                  STQ     PROC$+5
        35 004146   300006 634500                    EPPR4   6,,PR3
        35 004147   001014 454400 0                  STP4    PROC$+4
        35 004150   300005 635500                    EPPR5   5,,PR3
        35 004151   001013 455400 0                  STP5    PROC$+3
        35 004152   000143 236000 36                 LDQ     99
        35 004153   001012 756000 0                  STQ     PROC$+2
        35 004154   001012 630400 0                  EPPR0   PROC$+2
        35 004155   000005 631400 36                 EPPR1   5
        35 004156   000000 701000 xent               TSX1    Z8AE$ERROR
        35 004157   000000 011000                    NOP     0

  23043 35 004160   000171 470400 0                  LDP0    @TERMINAL$
        35 004161   000000 471500                    LDP1    0,,PR0
        35 004162   400000 236007                    LDQ     -131072,DL
        35 004163   100000 256100                    ORSQ    0,,PR1

     1344    23052    3            ALTRETURN;
PL6.E3A0      #001=Z8EM$SEMANTICS_DATA_DIV File=Z8EM.:Z8A6TSI                    SAT 08/09/97 12:08 Page:420

  23052 35 004164   000170 221200 0                  LDX1  ! @TERMINAL$+1
        35 004165   000000 702211                    TSX2  ! 0,X1

     1345    23053
     1346    23054    3          CASE (ELSE);

     1347    23055    3            RETURN;

  23055 35 004166   000001 702211                    TSX2  ! 1,X1

     1348    23056
     1349    23057    3        END; /* Case */

     1350    23058
     1351    23059    2   END CHECK_SEQ_ORG;
     1352    23060        %EJECT;
PL6.E3A0      #001=Z8EM$SEMANTICS_DATA_DIV File=Z8EM.:Z8A6TSI                    SAT 08/09/97 12:08 Page:421
     1353    23061        /*==========*/
     1354    23062    1     CLASS_NAME: PROC (NAME$, LIT_LIST$);

  23062 35 004167   000172 741200 0     CLASS_NAME   STX1  ! @TERMINAL$+1

     1355    23063        /*==========*/
     1356    23064
     1357    23065    2        DCL NAME$         PTR;
     1358    23066    2        DCL LIT_LIST$     PTR;
     1359    23067
     1360    23068    2        DCL CLASS$        PTR;
     1361    23069    2        DCL TABLE$        PTR;
     1362    23070
     1363    23071
     1364    23072             %NEW_CLASS (@ST$     = CLASS$,
     1365    23073                         @LINE_NO = NAME$ -> LX_ITEM.LINE,
     1366    23074                         @DNT$    = NAME$ -> LX_ITEM.DNT$,
     1367    23075                         @NEXT    = NAME$ -> LX_ITEM.DNT$ -> DNT.ST$);

  23079 35 004170   000002 236000 13                 LDQ     ST_+2
        35 004171   000013 036007                    ADLQ    11,DL
        35 004172   000003 116000 13                 CMPQ    ST_+3
        35 004173   004204 604000 35                 TMI     s:23081

  23080 35 004174   000102 236000 36                 LDQ     66
        35 004175   001012 756000 0                  STQ     PROC$+2
        35 004176   001012 630400 0                  EPPR0   PROC$+2
        35 004177   001013 450400 0                  STP0    PROC$+3
        35 004200   001013 630400 0                  EPPR0   PROC$+3
        35 004201   000036 631400 36                 EPPR1   30
        35 004202   000000 701000 xent               TSX1    Z8AR$RESERVER
        35 004203   000000 011000                    NOP     0

  23081 35 004204   000002 236000 13                 LDQ     ST_+2
        35 004205   000022 736000                    QLS     18
        35 004206   000001 036000 13                 ADLQ    ST_+1
        35 004207   000175 756000 0                  STQ     CLASS$
PL6.E3A0      #001=Z8EM$SEMANTICS_DATA_DIV File=Z8EM.:Z8A6TSI                    SAT 08/09/97 12:08 Page:422

  23082 35 004210   000013 236007                    LDQ     11,DL
        35 004211   000002 056000 13                 ASQ     ST_+2

  23085 35 004212   000757 220003                    LDX0    495,DU
        35 004213   000175 470400 0                  LDP0    CLASS$
        35 004214   000000 740100                    STX0    0,,PR0

  23086 35 004215   000024 236000 36                 LDQ     20
        35 004216   000175 470400 0                  LDP0    CLASS$
        35 004217   000001 756100                    STQ     1,,PR0

  23087 35 004220   000020 221003                    LDX1    16,DU
        35 004221   000175 470400 0                  LDP0    CLASS$
        35 004222   000002 741100                    STX1    2,,PR0

  23088 35 004223   000173 470400 0                  LDP0    @NAME$
        35 004224   000000 471500                    LDP1    0,,PR0
        35 004225   100005 722100                    LXL2    5,,PR1
        35 004226   000175 473400 0                  LDP3    CLASS$
        35 004227   300002 442100                    SXL2    2,,PR3

  23089 35 004230   000175 471400 0                  LDP1    CLASS$
        35 004231   100003 450100                    STZ     3,,PR1

  23090 35 004232   000000 471500                    LDP1    0,,PR0
        35 004233   100002 473500                    LDP3    2,,PR1
        35 004234   300001 236100                    LDQ     1,,PR3
        35 004235   000175 474400 0                  LDP4    CLASS$
        35 004236   400004 756100                    STQ     4,,PR4

  23091 35 004237   000000 471500                    LDP1    0,,PR0
        35 004240   100002 236100                    LDQ     2,,PR1
        35 004241   000175 473400 0                  LDP3    CLASS$
        35 004242   300006 756100                    STQ     6,,PR3

  23092 35 004243   000024 236000 36                 LDQ     20
PL6.E3A0      #001=Z8EM$SEMANTICS_DATA_DIV File=Z8EM.:Z8A6TSI                    SAT 08/09/97 12:08 Page:423
        35 004244   000175 471400 0                  LDP1    CLASS$
        35 004245   100007 756100                    STQ     7,,PR1

  23096 35 004246   000024 236000 36                 LDQ     20
        35 004247   000175 471400 0                  LDP1    CLASS$
        35 004250   100012 756100                    STQ     10,,PR1

  23099 35 004251   000057 236000 xsym               LDQ     O1COM+47
        35 004252   000175 471400 0                  LDP1    CLASS$
        35 004253   100011 756100                    STQ     9,,PR1

  23100 35 004254   000057 236000 xsym               LDQ     O1COM+47
        35 004255   000024 116000 36                 CMPQ    20
        35 004256   004302 600000 35                 TZE     s:23137

  23104 35 004257   000057 471400 xsym               LDP1    O1COM+47
        35 004260   100001 473500                    LDP3    1,,PR1
        35 004261   300012 236100                    LDQ     10,,PR3
        35 004262   000024 116000 36                 CMPQ    20
        35 004263   004273 601000 35                 TNZ     s:23111

  23106 35 004264   000175 236000 0                  LDQ     CLASS$
        35 004265   300011 756100                    STQ     9,,PR3

  23107 35 004266   000057 471400 xsym               LDP1    O1COM+47
        35 004267   100001 473500                    LDP3    1,,PR1
        35 004270   000175 236000 0                  LDQ     CLASS$
        35 004271   300012 756100                    STQ     10,,PR3

  23108 35 004272   004302 710000 35                 TRA     s:23137

  23111 35 004273   300012 474500                    LDP4    10,,PR3
        35 004274   000175 236000 0                  LDQ     CLASS$
        35 004275   400012 756100                    STQ     10,,PR4

  23112 35 004276   000057 471400 xsym               LDP1    O1COM+47
        35 004277   100001 473500                    LDP3    1,,PR1
PL6.E3A0      #001=Z8EM$SEMANTICS_DATA_DIV File=Z8EM.:Z8A6TSI                    SAT 08/09/97 12:08 Page:424
        35 004300   000175 236000 0                  LDQ     CLASS$
        35 004301   300012 756100                    STQ     10,,PR3

     1368    23136
     1369    23137    2        NAME$ -> LX_ITEM.DNT$ -> DNT.ST$ = CLASS$;

  23137 35 004302   000000 471500                    LDP1    0,,PR0
        35 004303   100002 473500                    LDP3    2,,PR1
        35 004304   000175 236000 0                  LDQ     CLASS$
        35 004305   300001 756100                    STQ     1,,PR3

     1370    23138
     1371    23139             %NEW_QLT (@POINTER = CLASS$ -> CLASS.QLT$,
     1372    23140                       @LEVEL#  = 01,
     1373    23141                       @ST$     = CLASS$,
     1374    23142                       @DNT$    = CLASS$ -> CLASS.DNT$);

  23147 35 004306   000002 236000 11                 LDQ     QLT_+2
        35 004307   000006 036007                    ADLQ    6,DL
        35 004310   000003 116000 11                 CMPQ    QLT_+3
        35 004311   004322 602000 35                 TNC     s:23149

  23148 35 004312   000103 236000 36                 LDQ     67
        35 004313   001012 756000 0                  STQ     PROC$+2
        35 004314   001012 631400 0                  EPPR1   PROC$+2
        35 004315   001013 451400 0                  STP1    PROC$+3
        35 004316   001013 630400 0                  EPPR0   PROC$+3
        35 004317   000036 631400 36                 EPPR1   30
        35 004320   000000 701000 xent               TSX1    Z8AR$RESERVER
        35 004321   000000 011000                    NOP     0

  23149 35 004322   000002 236000 11                 LDQ     QLT_+2
        35 004323   000022 736000                    QLS     18
        35 004324   000001 036000 11                 ADLQ    QLT_+1
        35 004325   000175 470400 0                  LDP0    CLASS$
        35 004326   000007 756100                    STQ     7,,PR0

PL6.E3A0      #001=Z8EM$SEMANTICS_DATA_DIV File=Z8EM.:Z8A6TSI                    SAT 08/09/97 12:08 Page:425
  23150 35 004327   000002 235000 11                 LDA     QLT_+2
        35 004330   000006 035007                    ADLA    6,DL
        35 004331   000002 755000 11                 STA     QLT_+2

  23151 35 004332   000175 470400 0                  LDP0    CLASS$
        35 004333   000007 471500                    LDP1    7,,PR0
        35 004334   001053 220003                    LDX0    555,DU
        35 004335   100000 740100                    STX0    0,,PR1

  23154 35 004336   000175 470400 0                  LDP0    CLASS$
        35 004337   000007 471500                    LDP1    7,,PR0
        35 004340   000024 236000 36                 LDQ     20
        35 004341   100001 756100                    STQ     1,,PR1

  23155 35 004342   000175 470400 0                  LDP0    CLASS$
        35 004343   000007 471500                    LDP1    7,,PR0
        35 004344   000024 236000 36                 LDQ     20
        35 004345   100002 756100                    STQ     2,,PR1

  23156 35 004346   000175 470400 0                  LDP0    CLASS$
        35 004347   000007 471500                    LDP1    7,,PR0
        35 004350   000024 236000 36                 LDQ     20
        35 004351   100003 756100                    STQ     3,,PR1

  23157 35 004352   000175 470400 0                  LDP0    CLASS$
        35 004353   000007 471500                    LDP1    7,,PR0
        35 004354   000175 236000 0                  LDQ     CLASS$
        35 004355   100004 756100                    STQ     4,,PR1

  23158 35 004356   000175 470400 0                  LDP0    CLASS$
        35 004357   000007 471500                    LDP1    7,,PR0
        35 004360   000006 236100                    LDQ     6,,PR0
        35 004361   100005 756100                    STQ     5,,PR1

  23159 35 004362   000175 470400 0                  LDP0    CLASS$
        35 004363   000007 471500                    LDP1    7,,PR0
        35 004364   000001 236007                    LDQ     1,DL
PL6.E3A0      #001=Z8EM$SEMANTICS_DATA_DIV File=Z8EM.:Z8A6TSI                    SAT 08/09/97 12:08 Page:426
        35 004365   100000 552104                    STBQ    0,'04'O,PR1

  23160 35 004366   000175 470400 0                  LDP0    CLASS$
        35 004367   000007 471500                    LDP1    7,,PR0
        35 004370   000000 236003                    LDQ     0,DU
        35 004371   100000 552110                    STBQ    0,'10'O,PR1

  23161 35 004372   000175 470400 0                  LDP0    CLASS$
        35 004373   000007 471500                    LDP1    7,,PR0
        35 004374   000104 236000 36                 LDQ     68
        35 004375   100000 356100                    ANSQ    0,,PR1

  23162 35 004376   000175 470400 0                  LDP0    CLASS$
        35 004377   000007 471500                    LDP1    7,,PR0
        35 004400   000105 236000 36                 LDQ     69
        35 004401   100000 356100                    ANSQ    0,,PR1

  23163 35 004402   000175 470400 0                  LDP0    CLASS$
        35 004403   000007 471500                    LDP1    7,,PR0
        35 004404   000106 236000 36                 LDQ     70
        35 004405   100000 356100                    ANSQ    0,,PR1

  23164 35 004406   000175 470400 0                  LDP0    CLASS$
        35 004407   000007 471500                    LDP1    7,,PR0
        35 004410   000107 236000 36                 LDQ     71
        35 004411   100000 356100                    ANSQ    0,,PR1

     1375    23167
     1376    23168             %UPDATE_PREV_QLT$ (@NEW_QLT$ = CLASS$ -> CLASS.QLT$);

  23170 35 004412   000424 236000 xsym               LDQ     COMCOM+276
        35 004413   000024 116000 36                 CMPQ    20
        35 004414   004421 600000 35                 TZE     s:23172

  23171 35 004415   000175 470400 0                  LDP0    CLASS$
        35 004416   000007 236100                    LDQ     7,,PR0
        35 004417   000424 471400 xsym               LDP1    COMCOM+276
PL6.E3A0      #001=Z8EM$SEMANTICS_DATA_DIV File=Z8EM.:Z8A6TSI                    SAT 08/09/97 12:08 Page:427
        35 004420   100002 756100                    STQ     2,,PR1

  23172 35 004421   000175 470400 0                  LDP0    CLASS$
        35 004422   000007 236100                    LDQ     7,,PR0
        35 004423   000424 756000 xsym               STQ     COMCOM+276

     1377    23175
     1378    23176             %ADD_XREF (SYM = CLASS$,
     1379    23177                        ISN  = NAME$ -> LX_ITEM.LINE,
     1380    23178                        TYPE = %XREF_DCL);

  23180 35 004424   000055 234000 xsym               SZN     COMCOM+45
        35 004425   004464 605000 35                 TPL     s:23197

  23184 35 004426   000002 236000 24                 LDQ     XREF_+2
        35 004427   000002 036007                    ADLQ    2,DL
        35 004430   000003 116000 24                 CMPQ    XREF_+3
        35 004431   004442 602000 35                 TNC     s:23186

  23185 35 004432   000110 236000 36                 LDQ     72
        35 004433   001012 756000 0                  STQ     PROC$+2
        35 004434   001012 631400 0                  EPPR1   PROC$+2
        35 004435   001013 451400 0                  STP1    PROC$+3
        35 004436   001013 630400 0                  EPPR0   PROC$+3
        35 004437   000036 631400 36                 EPPR1   30
        35 004440   000000 701000 xent               TSX1    Z8AR$RESERVER
        35 004441   000000 011000                    NOP     0

  23186 35 004442   000002 236000 24                 LDQ     XREF_+2
        35 004443   000022 736000                    QLS     18
        35 004444   000001 036000 24                 ADLQ    XREF_+1
        35 004445   000000 756000 23                 STQ     XREF$

  23187 35 004446   000002 235000 24                 LDA     XREF_+2
        35 004447   000002 035007                    ADLA    2,DL
        35 004450   000002 755000 24                 STA     XREF_+2

PL6.E3A0      #001=Z8EM$SEMANTICS_DATA_DIV File=Z8EM.:Z8A6TSI                    SAT 08/09/97 12:08 Page:428
  23188 35 004451   000004 220003                    LDX0    4,DU
        35 004452   000000 470400 23                 LDP0    XREF$
        35 004453   000000 740100                    STX0    0,,PR0

  23191 35 004454   000173 470400 0                  LDP0    @NAME$
        35 004455   000000 471500                    LDP1    0,,PR0
        35 004456   100005 721100                    LXL1    5,,PR1
        35 004457   000000 473400 23                 LDP3    XREF$
        35 004460   300000 441100                    SXL1    0,,PR3

  23192 35 004461   000175 236000 0                  LDQ     CLASS$
        35 004462   000000 471400 23                 LDP1    XREF$
        35 004463   100001 756100                    STQ     1,,PR1

     1381    23196
     1382    23197    2        CALL PROCESS_CLASS_LIST (CLASS$, LIT_LIST$);

  23197 35 004464   000174 236000 0                  LDQ     @LIT_LIST$
        35 004465   000504 756000 0                  STQ     @CLASS$+1
        35 004466   000147 236000 36                 LDQ     103
        35 004467   000503 756000 0                  STQ     FIRST_INDEX$+3
        35 004470   021553 701000 35                 TSX1    PROCESS_CLASS_LIST
        35 004471   000000 011000                    NOP     0

     1383    23198
     1384    23199    2        CALL Z8ED$DISPOSE_ABSSYN_TREE (LIT_LIST$ -> LX_LIST.HEAD$);

  23199 35 004472   000174 470400 0                  LDP0    @LIT_LIST$
        35 004473   000000 471500                    LDP1    0,,PR0
        35 004474   100004 633500                    EPPR3   4,,PR1
        35 004475   001012 453400 0                  STP3    PROC$+2
        35 004476   001012 630400 0                  EPPR0   PROC$+2
        35 004477   000036 631400 36                 EPPR1   30
        35 004500   000000 701000 xent               TSX1    Z8ED$DISPOSE_ABSSYN_TREE
        35 004501   000000 011000                    NOP     0

     1385    23200
PL6.E3A0      #001=Z8EM$SEMANTICS_DATA_DIV File=Z8EM.:Z8A6TSI                    SAT 08/09/97 12:08 Page:429
     1386    23201    2   END CLASS_NAME;

  23201 35 004502   000172 221200 0                  LDX1  ! @TERMINAL$+1
        35 004503   000001 702211                    TSX2  ! 1,X1

     1387    23202        %EJECT;
PL6.E3A0      #001=Z8EM$SEMANTICS_DATA_DIV File=Z8EM.:Z8A6TSI                    SAT 08/09/97 12:08 Page:430
     1388    23203        /*========*/
     1389    23204    1     CODE_SET: PROC (CODE_SET$);

  23204 35 004504   000177 741200 0     CODE_SET     STX1  ! TABLE$+1

     1390    23205        /*========*/
     1391    23206
     1392    23207             /* Functions performed:
     1393    23208                 1. Check for multiple clauses.
     1394    23209                 2. Check to see if the ALPHABET referenced was defined.
     1395    23210                 3. Make sure no LITERAL phrase was specified in the ALPHABET.
     1396    23211             */
     1397    23212
     1398    23213    2        DCL CODE_SET$            PTR;
     1399    23214    2        DCL ST$$                 PTR;
     1400    23215
     1401    23216
     1402    23217    2        CALL CHECK_REL_ORG (CODE_SET$)

  23217 35 004505   000200 236000 0                  LDQ     @CODE_SET$
        35 004506   000167 756000 0                  STQ     @TERMINAL$
        35 004507   004026 701000 35                 TSX1    CHECK_REL_ORG
        35 004510   004512 702000 35                 TSX2    s:23220
        35 004511   004514 710000 35                 TRA     s:23223

     1403    23218    2          WHENALTRETURN
     1404    23219    3            DO;

     1405    23220    3              RETURN;

  23220 35 004512   000177 221200 0                  LDX1  ! TABLE$+1
        35 004513   000001 702211                    TSX2  ! 1,X1

     1406    23221    3            END;
     1407    23222
     1408    23223    2        CALL CHECK_IND_ORG (CODE_SET$)

PL6.E3A0      #001=Z8EM$SEMANTICS_DATA_DIV File=Z8EM.:Z8A6TSI                    SAT 08/09/97 12:08 Page:431
  23223 35 004514   000200 236000 0                  LDQ     @CODE_SET$
        35 004515   000161 756000 0                  STQ     @TERMINAL$
        35 004516   003607 701000 35                 TSX1    CHECK_IND_ORG
        35 004517   004521 702000 35                 TSX2    s:23226
        35 004520   004523 710000 35                 TRA     s:23229

     1409    23224    2          WHENALTRETURN
     1410    23225    3            DO;

     1411    23226    3              RETURN;

  23226 35 004521   000177 221200 0                  LDX1  ! TABLE$+1
        35 004522   000001 702211                    TSX2  ! 1,X1

     1412    23227    3            END;
     1413    23228
     1414    23229    2        CALL CHECK_KEY_ORG (CODE_SET$)

  23229 35 004523   000200 236000 0                  LDQ     @CODE_SET$
        35 004524   000163 756000 0                  STQ     @TERMINAL$
        35 004525   003671 701000 35                 TSX1    CHECK_KEY_ORG
        35 004526   004530 702000 35                 TSX2    s:23232
        35 004527   004532 710000 35                 TRA     s:23235

     1415    23230    2          WHENALTRETURN
     1416    23231    3            DO;

     1417    23232    3              RETURN;

  23232 35 004530   000177 221200 0                  LDX1  ! TABLE$+1
        35 004531   000001 702211                    TSX2  ! 1,X1

     1418    23233    3            END;
     1419    23234
     1420    23235    2        IF O1COM.CURRENT_FILE_LTS$ -> FILE_LTS.CODE_SET$ ~= ADDR(NIL) THEN

  23235 35 004532   000045 470400 xsym               LDP0    O1COM+37
PL6.E3A0      #001=Z8EM$SEMANTICS_DATA_DIV File=Z8EM.:Z8A6TSI                    SAT 08/09/97 12:08 Page:432
        35 004533   000037 236100                    LDQ     31,,PR0
        35 004534   000024 116000 36                 CMPQ    20
        35 004535   004565 600000 35                 TZE     s:23275

     1421    23236    3          DO;

     1422    23237                 %CONDITIONAL_ERROR (@LX_ITEM$ = CODE_SET$,
     1423    23238                                     @ERROR#   = %E$DUP_DD_CLAUSE,
     1424    23239                                     @LINE     = CODE_SET$ -> LX_ITEM.LINE,
     1425    23240                                     @COLUMN   = CODE_SET$ -> LX_ITEM.COLUMN,
     1426    23241                                     @PLUG1    = "DNT$_FROM_RSWNO(%RSV_WRD_CODE_SET)");

  23251 35 004536   000200 471400 0                  LDP1    @CODE_SET$
        35 004537   100000 473500                    LDP3    0,,PR1
        35 004540   300000 236100                    LDQ     0,,PR3
        35 004541   400000 316007                    CANQ    -131072,DL
        35 004542   004563 601000 35                 TNZ     s:23272

  23253 35 004543   000150 236000 36                 LDQ     104
        35 004544   001015 756000 0                  STQ     PROC$+5
        35 004545   300006 634500                    EPPR4   6,,PR3
        35 004546   001014 454400 0                  STP4    PROC$+4
        35 004547   300005 635500                    EPPR5   5,,PR3
        35 004550   001013 455400 0                  STP5    PROC$+3
        35 004551   000010 236000 36                 LDQ     8
        35 004552   001012 756000 0                  STQ     PROC$+2
        35 004553   001012 630400 0                  EPPR0   PROC$+2
        35 004554   000005 631400 36                 EPPR1   5
        35 004555   000000 701000 xent               TSX1    Z8AE$ERROR
        35 004556   000000 011000                    NOP     0

  23262 35 004557   000200 470400 0                  LDP0    @CODE_SET$
        35 004560   000000 471500                    LDP1    0,,PR0
        35 004561   400000 236007                    LDQ     -131072,DL
        35 004562   100000 256100                    ORSQ    0,,PR1

     1427    23271
PL6.E3A0      #001=Z8EM$SEMANTICS_DATA_DIV File=Z8EM.:Z8A6TSI                    SAT 08/09/97 12:08 Page:433
     1428    23272    3            RETURN;

  23272 35 004563   000177 221200 0                  LDX1  ! TABLE$+1
        35 004564   000001 702211                    TSX2  ! 1,X1

     1429    23273    3          END;
     1430    23274
     1431    23275    2        IF CODE_SET$ -> LX_TERMINAL.SYMBOL ~= %NAME THEN

  23275 35 004565   000200 471400 0                  LDP1    @CODE_SET$
        35 004566   100000 473500                    LDP3    0,,PR1
        35 004567   300003 235100                    LDA     3,,PR3
        35 004570   000027 115007                    CMPA    23,DL
        35 004571   004606 600000 35                 TZE     s:23292

     1432    23276    3          DO;

     1433    23277                 /* ASCII or
     1434    23278                    EBCDIC or
     1435    23279                    JIS or
     1436    23280                    GBCD or
     1437    23281                    HBCD or
     1438    23282                    STANDARD-1 or
     1439    23283                    STANDARD */
     1440    23284    3            CALL COMMON_ALPHABET_NAME (CODE_SET$,

  23284 35 004572   000151 236000 36                 LDQ     105
        35 004573   000224 756000 0                  STQ     @ALPHA_ST$+1
        35 004574   000045 236000 xsym               LDQ     O1COM+37
        35 004575   000037 036003                    ADLQ    31,DU
        35 004576   000200 235000 0                  LDA     @CODE_SET$
        35 004577   000222 757000 0                  STAQ    @NAME$+1
        35 004600   000200 236000 0                  LDQ     @CODE_SET$
        35 004601   000221 756000 0                  STQ     TEMP_COLLATING+9
        35 004602   005144 701000 35                 TSX1    COMMON_ALPHABET_NAME
        35 004603   000000 011000                    NOP     0

PL6.E3A0      #001=Z8EM$SEMANTICS_DATA_DIV File=Z8EM.:Z8A6TSI                    SAT 08/09/97 12:08 Page:434
     1441    23285    3                                       CODE_SET$,
     1442    23286    3                                       O1COM.CURRENT_FILE_LTS$ -> FILE_LTS.CODE_SET$,
     1443    23287    3                                       ST$$);
     1444    23288
     1445    23289    3            RETURN;

  23289 35 004604   000177 221200 0                  LDX1  ! TABLE$+1
        35 004605   000001 702211                    TSX2  ! 1,X1

     1446    23290    3          END;
     1447    23291
     1448    23292    2        CALL Z8DO$QUALIFY_TERMINAL (CODE_SET$, ST$$)

  23292 35 004606   000151 236000 36                 LDQ     105
        35 004607   000200 235000 0                  LDA     @CODE_SET$
        35 004610   001012 757000 0                  STAQ    PROC$+2
        35 004611   001012 630400 0                  EPPR0   PROC$+2
        35 004612   000025 631400 36                 EPPR1   21
        35 004613   000000 701000 xent               TSX1    Z8DO$QUALIFY_TERMINAL
        35 004614   004616 702000 35                 TSX2    s:23295
        35 004615   004620 710000 35                 TRA     s:23298

     1449    23293    2          WHENALTRETURN
     1450    23294    3            DO;

     1451    23295    3              RETURN;

  23295 35 004616   000177 221200 0                  LDX1  ! TABLE$+1
        35 004617   000001 702211                    TSX2  ! 1,X1

     1452    23296    3            END;
     1453    23297
     1454    23298    2        IF ST$$ -> ST.ID ~= %ALPHABET THEN

  23298 35 004620   000201 470400 0                  LDP0    ST$$
        35 004621   000000 220100                    LDX0    0,,PR0
        35 004622   000763 100003                    CMPX0   499,DU
PL6.E3A0      #001=Z8EM$SEMANTICS_DATA_DIV File=Z8EM.:Z8A6TSI                    SAT 08/09/97 12:08 Page:435
        35 004623   004651 600000 35                 TZE     s:23337

     1455    23299    3          DO;

     1456    23300                 %CONDITIONAL_ERROR (@LX_ITEM$ = CODE_SET$,
     1457    23301                                     @ERROR#   = %E$ALPHABET_EXPECTED,
     1458    23302                                     @LINE     = CODE_SET$ -> LX_ITEM.LINE,
     1459    23303                                     @COLUMN   = CODE_SET$ -> LX_ITEM.COLUMN);

  23313 35 004624   000200 471400 0                  LDP1    @CODE_SET$
        35 004625   100000 473500                    LDP3    0,,PR1
        35 004626   300000 236100                    LDQ     0,,PR3
        35 004627   400000 316007                    CANQ    -131072,DL
        35 004630   004647 601000 35                 TNZ     s:23334

  23315 35 004631   300006 634500                    EPPR4   6,,PR3
        35 004632   001014 454400 0                  STP4    PROC$+4
        35 004633   300005 635500                    EPPR5   5,,PR3
        35 004634   001013 455400 0                  STP5    PROC$+3
        35 004635   000153 236000 36                 LDQ     107
        35 004636   001012 756000 0                  STQ     PROC$+2
        35 004637   001012 630400 0                  EPPR0   PROC$+2
        35 004640   000000 631400 36                 EPPR1   0
        35 004641   000000 701000 xent               TSX1    Z8AE$ERROR
        35 004642   000000 011000                    NOP     0

  23324 35 004643   000200 470400 0                  LDP0    @CODE_SET$
        35 004644   000000 471500                    LDP1    0,,PR0
        35 004645   400000 236007                    LDQ     -131072,DL
        35 004646   100000 256100                    ORSQ    0,,PR1

     1460    23333
     1461    23334    3            RETURN;

  23334 35 004647   000177 221200 0                  LDX1  ! TABLE$+1
        35 004650   000001 702211                    TSX2  ! 1,X1

PL6.E3A0      #001=Z8EM$SEMANTICS_DATA_DIV File=Z8EM.:Z8A6TSI                    SAT 08/09/97 12:08 Page:436
     1462    23335    3          END;
     1463    23336
     1464    23337    2        IF ST$$ -> ALPHABET.B.CODE = %USER_DEFINED THEN

  23337 35 004651   000003 236100                    LDQ     3,,PR0
        35 004652   000777 376007                    ANQ     511,DL
        35 004653   000006 116007                    CMPQ    6,DL
        35 004654   004702 601000 35                 TNZ     s:23376

     1465    23338    3          DO;

     1466    23339                 %CONDITIONAL_ERROR (@LX_ITEM$ = CODE_SET$,
     1467    23340                                     @ERROR#   = %E$ALPHABET_CONTAINS_LITERAL,
     1468    23341                                     @LINE     = CODE_SET$ -> LX_ITEM.LINE,
     1469    23342                                     @COLUMN   = CODE_SET$ -> LX_ITEM.COLUMN);

  23352 35 004655   000200 471400 0                  LDP1    @CODE_SET$
        35 004656   100000 473500                    LDP3    0,,PR1
        35 004657   300000 236100                    LDQ     0,,PR3
        35 004660   400000 316007                    CANQ    -131072,DL
        35 004661   004700 601000 35                 TNZ     s:23373

  23354 35 004662   300006 634500                    EPPR4   6,,PR3
        35 004663   001014 454400 0                  STP4    PROC$+4
        35 004664   300005 635500                    EPPR5   5,,PR3
        35 004665   001013 455400 0                  STP5    PROC$+3
        35 004666   000155 236000 36                 LDQ     109
        35 004667   001012 756000 0                  STQ     PROC$+2
        35 004670   001012 630400 0                  EPPR0   PROC$+2
        35 004671   000000 631400 36                 EPPR1   0
        35 004672   000000 701000 xent               TSX1    Z8AE$ERROR
        35 004673   000000 011000                    NOP     0

  23363 35 004674   000200 470400 0                  LDP0    @CODE_SET$
        35 004675   000000 471500                    LDP1    0,,PR0
        35 004676   400000 236007                    LDQ     -131072,DL
        35 004677   100000 256100                    ORSQ    0,,PR1
PL6.E3A0      #001=Z8EM$SEMANTICS_DATA_DIV File=Z8EM.:Z8A6TSI                    SAT 08/09/97 12:08 Page:437

     1470    23372
     1471    23373    3            RETURN;

  23373 35 004700   000177 221200 0                  LDX1  ! TABLE$+1
        35 004701   000001 702211                    TSX2  ! 1,X1

     1472    23374    3          END;
     1473    23375
     1474    23376    2        O1COM.CURRENT_FILE_LTS$ -> FILE_LTS.CODE_SET$ = ST$$;

  23376 35 004702   000201 236000 0                  LDQ     ST$$
        35 004703   000045 471400 xsym               LDP1    O1COM+37
        35 004704   100037 756100                    STQ     31,,PR1

     1475    23377
     1476    23378    2   END CODE_SET;

  23378 35 004705   000177 221200 0                  LDX1  ! TABLE$+1
        35 004706   000001 702211                    TSX2  ! 1,X1

     1477    23379        %EJECT;
PL6.E3A0      #001=Z8EM$SEMANTICS_DATA_DIV File=Z8EM.:Z8A6TSI                    SAT 08/09/97 12:08 Page:438
     1478    23380        /*==================*/
     1479    23381    1     COLLATING_SEQUENCE: PROC (SEQ_NAME$);

  23381 35 004707   000202 741200 0     COLLATING_S* STX1  ! ST$$+1

     1480    23382        /*==================*/
     1481    23383
     1482    23384    2   DCL SEQ_NAME$          PTR;
     1483    23385
     1484    23386    2   DCL TEMP_ALPHA_NAME$   PTR;
     1485    23387    2   DCL ALPHABET$          PTR;
     1486    23388    2   DCL TABLE_ETT$         PTR;
     1487    23389    2   DCL PROC$              PTR;
     1488    23390
     1489    23391        %DCL_AUTO_LX_ITEM (@NAME = TEMP_COLLATING);
     1490    23395
     1491    23396
     1492    23397    2      ALPHABET$ = ADDR(NIL);

  23397 35 004710   000024 236000 36                 LDQ     20
        35 004711   000205 756000 0                  STQ     ALPHABET$

     1493    23398    2      PROC$     = O1COM.CURRENT_PROC$ -> PROC_.PROC_SUPP$;

  23398 35 004712   000057 470400 xsym               LDP0    O1COM+47
        35 004713   000001 236100                    LDQ     1,,PR0
        35 004714   000207 756000 0                  STQ     PROC$

     1494    23399
     1495    23400    2      IF PROC$ -> PROC_SUPP.COLL_SEQ_PRESENT THEN

  23400 35 004715   000207 471400 0                  LDP1    PROC$
        35 004716   100001 236100                    LDQ     1,,PR1
        35 004717   000400 316007                    CANQ    256,DL
        35 004720   004750 600000 35                 TZE     s:23438

     1496    23401    3        DO;
PL6.E3A0      #001=Z8EM$SEMANTICS_DATA_DIV File=Z8EM.:Z8A6TSI                    SAT 08/09/97 12:08 Page:439

     1497    23402               %CONDITIONAL_ERROR (@LX_ITEM$ = SEQ_NAME$,
     1498    23403                                   @ERROR#   = %E$DUP_DD_CLAUSE,
     1499    23404                                   @LINE     = SEQ_NAME$ -> LX_TERMINAL.LINE,
     1500    23405                                   @COLUMN   = SEQ_NAME$ -> LX_TERMINAL.COLUMN,
     1501    23406                                   @PLUG1    = "DNT$_FROM_RSWNO (%RSV_WRD_SEQUENCE)");

  23416 35 004721   000203 473400 0                  LDP3    @SEQ_NAME$
        35 004722   300000 474500                    LDP4    0,,PR3
        35 004723   400000 236100                    LDQ     0,,PR4
        35 004724   400000 316007                    CANQ    -131072,DL
        35 004725   004746 601000 35                 TNZ     s:23436

  23418 35 004726   000156 236000 36                 LDQ     110
        35 004727   001015 756000 0                  STQ     PROC$+5
        35 004730   400006 635500                    EPPR5   6,,PR4
        35 004731   001014 455400 0                  STP5    PROC$+4
        35 004732   400005 636500                    EPPR6   5,,PR4
        35 004733   001013 456400 0                  STP6    PROC$+3
        35 004734   000010 236000 36                 LDQ     8
        35 004735   001012 756000 0                  STQ     PROC$+2
        35 004736   001012 630400 0                  EPPR0   PROC$+2
        35 004737   000005 631400 36                 EPPR1   5
        35 004740   000000 701000 xent               TSX1    Z8AE$ERROR
        35 004741   000000 011000                    NOP     0

  23427 35 004742   000203 470400 0                  LDP0    @SEQ_NAME$
        35 004743   000000 471500                    LDP1    0,,PR0
        35 004744   400000 236007                    LDQ     -131072,DL
        35 004745   100000 256100                    ORSQ    0,,PR1

     1502    23436    3          RETURN;

  23436 35 004746   000202 221200 0                  LDX1  ! ST$$+1
        35 004747   000001 702211                    TSX2  ! 1,X1

     1503    23437    3        END;
PL6.E3A0      #001=Z8EM$SEMANTICS_DATA_DIV File=Z8EM.:Z8A6TSI                    SAT 08/09/97 12:08 Page:440
     1504    23438    2      PROC$ -> PROC_SUPP.COLL_SEQ_PRESENT = TRUE;

  23438 35 004750   000400 236007                    LDQ     256,DL
        35 004751   100001 256100                    ORSQ    1,,PR1

     1505    23439
     1506    23440    3      DO SELECT (SEQ_NAME$ -> LX_TERMINAL.SYMBOL);

  23440 35 004752   000203 470400 0                  LDP0    @SEQ_NAME$
        35 004753   000000 473500                    LDP3    0,,PR0
        35 004754   300003 236100                    LDQ     3,,PR3
        35 004755   000453 116007                    CMPQ    299,DL
        35 004756   004766 604000 35                 TMI     s:23440+12
        35 004757   004775 600000 35                 TZE     s:23445
        35 004760   000655 116007                    CMPQ    429,DL
        35 004761   005012 604000 35                 TMI     s:23459
        35 004762   004775 600000 35                 TZE     s:23445
        35 004763   000656 116007                    CMPQ    430,DL
        35 004764   005012 601000 35                 TNZ     s:23459
        35 004765   004775 710000 35                 TRA     s:23445
        35 004766   000070 116007                    CMPQ    56,DL
        35 004767   004772 604000 35                 TMI     s:23440+16
        35 004770   004775 600000 35                 TZE     s:23445
        35 004771   005012 710000 35                 TRA     s:23459
        35 004772   000027 116007                    CMPQ    23,DL
        35 004773   005012 601000 35                 TNZ     s:23459
        35 004774   004777 710000 35                 TRA     s:23450

     1507    23441
     1508    23442    3        SELECT (%RSV_WRD_ASCII, %RSV_WRD_NATIVE,

     1509    23443    3              %RSV_WRD_STANDARD_1, %RSV_WRD_STANDARD_2);
     1510    23444               /* All ok */
     1511    23445    3          RETURN;

  23445 35 004775   000202 221200 0                  LDX1  ! ST$$+1
        35 004776   000001 702211                    TSX2  ! 1,X1
PL6.E3A0      #001=Z8EM$SEMANTICS_DATA_DIV File=Z8EM.:Z8A6TSI                    SAT 08/09/97 12:08 Page:441

     1512    23446
     1513    23447    3        SELECT (%NAME);

     1514    23448               %NEW_HEAP (@POINTER = O1COM.COLLATING_SEQ$);

  23450 35 004777   000157 630400 36                 EPPR0   111
        35 005000   000025 631400 36                 EPPR1   21
        35 005001   000000 701000 xent               TSX1    Z8ED$NEW_HEAP
        35 005002   000000 011000                    NOP     0

     1515    23453
     1516    23454    3          O1COM.COLLATING_SEQ$ -> LX_TERMINAL = SEQ_NAME$ -> LX_TERMINAL;

  23454 35 005003   000203 470400 0                  LDP0    @SEQ_NAME$
        35 005004   000000 471500                    LDP1    0,,PR0
        35 005005   000044 473400 xsym               LDP3    O1COM+36
        35 005006   000100 100500                    MLR     fill='000'O
        35 005007   100000 000040                    ADSC9   0,,PR1                   cn=0,n=32
        35 005010   300000 000040                    ADSC9   0,,PR3                   cn=0,n=32
        35 005011   005137 710000 35                 TRA     s:23554

     1517    23455
     1518    23456
     1519    23457    3        SELECT (ELSE);

     1520    23458
     1521    23459    3          IF SEQ_NAME$ -> LX_TERMINAL.SYMBOL = %RSV_WRD_JIS

  23459 35 005012   000404 116007                    CMPQ    260,DL
        35 005013   005016 600000 35                 TZE     s:23461
        35 005014   000343 116007                    CMPQ    227,DL
        35 005015   005020 601000 35                 TNZ     s:23468

     1522    23460    3          OR SEQ_NAME$ -> LX_TERMINAL.SYMBOL = %RSV_WRD_GRAPHIC
     1523    23461    3          THEN COMCOM.OB.KANJI = '1'B ; /* For Accept/Display */

PL6.E3A0      #001=Z8EM$SEMANTICS_DATA_DIV File=Z8EM.:Z8A6TSI                    SAT 08/09/97 12:08 Page:442
  23461 35 005016   400000 236003                    LDQ     -131072,DU
        35 005017   000043 256000 xsym               ORSQ    COMCOM+35

     1524    23462
     1525    23463               %NEW_DNT (@POINTER = TEMP_ALPHA_NAME$,
     1526    23464                         @NAME    = "'COLL_SEQ#TEMP'",
     1527    23465                         @SIZE    = 13);

  23468 35 005020   000010 235007                    LDA     8,DL
        35 005021   000000 755000 2                  STA     ITERATION

  23469 35 005022   000002 236000 15                 LDQ     DNT_+2
        35 005023   000000 036000 2                  ADLQ    ITERATION
        35 005024   005037 604000 35                 TMI     s:23471
        35 005025   000003 116000 15                 CMPQ    DNT_+3
        35 005026   005037 602000 35                 TNC     s:23471

  23470 35 005027   000037 236000 36                 LDQ     31
        35 005030   001012 756000 0                  STQ     PROC$+2
        35 005031   001012 633400 0                  EPPR3   PROC$+2
        35 005032   001013 453400 0                  STP3    PROC$+3
        35 005033   001013 630400 0                  EPPR0   PROC$+3
        35 005034   000036 631400 36                 EPPR1   30
        35 005035   000000 701000 xent               TSX1    Z8AR$RESERVER
        35 005036   000000 011000                    NOP     0

  23471 35 005037   000002 236000 15                 LDQ     DNT_+2
        35 005040   000022 736000                    QLS     18
        35 005041   000001 036000 15                 ADLQ    DNT_+1
        35 005042   000204 756000 0                  STQ     TEMP_ALPHA_NAME$

  23472 35 005043   000002 236000 15                 LDQ     DNT_+2
        35 005044   000000 036000 2                  ADLQ    ITERATION
        35 005045   000002 756000 15                 STQ     DNT_+2

  23473 35 005046   001046 220003                    LDX0    550,DU
        35 005047   000204 470400 0                  LDP0    TEMP_ALPHA_NAME$
PL6.E3A0      #001=Z8EM$SEMANTICS_DATA_DIV File=Z8EM.:Z8A6TSI                    SAT 08/09/97 12:08 Page:443
        35 005050   000000 740100                    STX0    0,,PR0

  23474 35 005051   000000 721000 2                  LXL1    ITERATION
        35 005052   000000 441100                    SXL1    0,,PR0

  23475 35 005053   000015 222003                    LDX2    13,DU
        35 005054   000004 742100                    STX2    4,,PR0

  23478 35 005055   000024 236000 36                 LDQ     20
        35 005056   000001 756100                    STQ     1,,PR0

  23479 35 005057   000024 236000 36                 LDQ     20
        35 005060   000002 756100                    STQ     2,,PR0

  23480 35 005061   000000 223003                    LDX3    0,DU
        35 005062   000003 743100                    STX3    3,,PR0

  23481 35 005063   000000 224003                    LDX4    0,DU
        35 005064   000003 444100                    SXL4    3,,PR0

  23482 35 005065   040140 100400                    MLR     fill='040'O
        35 005066   000051 000015 34                 ADSC9   RSW_NO+41                cn=0,n=13
        35 005067   000004 400012                    ADSC9   4,,PR0                   cn=2,n=*X2

     1528    23523
     1529    23524               %INIT_LX_TERMINAL (@POINTER = "ADDR(TEMP_COLLATING)",
     1530    23525                                  @DNT$    = TEMP_ALPHA_NAME$);

  23527 35 005070   000210 744000 0                  STX4    TEMP_COLLATING

  23528 35 005071   000210 443000 0                  SXL3    TEMP_COLLATING

  23532 35 005072   000015 235007                    LDA     13,DL
        35 005073   000214 755000 0                  STA     TEMP_COLLATING+4

  23534 35 005074   000024 236000 36                 LDQ     20
        35 005075   000217 756000 0                  STQ     TEMP_COLLATING+7
PL6.E3A0      #001=Z8EM$SEMANTICS_DATA_DIV File=Z8EM.:Z8A6TSI                    SAT 08/09/97 12:08 Page:444

  23536 35 005076   000211 756000 0                  STQ     TEMP_COLLATING+1

  23537 35 005077   000761 235007                    LDA     497,DL
        35 005100   000213 755000 0                  STA     TEMP_COLLATING+3

  23538 35 005101   000204 236000 0                  LDQ     TEMP_ALPHA_NAME$
        35 005102   000212 756000 0                  STQ     TEMP_COLLATING+2

  23539 35 005103   000133 235000 xsym               LDA     COMCOM+91
        35 005104   000215 755000 0                  STA     TEMP_COLLATING+5

  23540 35 005105   000134 235000 xsym               LDA     COMCOM+92
        35 005106   000216 755000 0                  STA     TEMP_COLLATING+6

     1531    23543
     1532    23544    3          CALL COMMON_ALPHABET_NAME (ADDR(TEMP_COLLATING),

  23544 35 005107   000161 236000 36                 LDQ     113
        35 005110   001022 756000 0                  STQ     PROC$+10
        35 005111   000162 236000 36                 LDQ     114
        35 005112   000224 756000 0                  STQ     @ALPHA_ST$+1
        35 005113   000163 236000 36                 LDQ     115
        35 005114   000203 235000 0                  LDA     @SEQ_NAME$
        35 005115   000222 757000 0                  STAQ    @NAME$+1
        35 005116   001022 631400 0                  EPPR1   PROC$+10
        35 005117   000221 451400 0                  STP1    TEMP_COLLATING+9
        35 005120   005144 701000 35                 TSX1    COMMON_ALPHABET_NAME
        35 005121   000000 011000                    NOP     0

     1533    23545    3                                     SEQ_NAME$,
     1534    23546    3                                     ALPHABET$,
     1535    23547    3                                     TABLE_ETT$);
     1536    23548
     1537    23549    3          PROC$ -> PROC_SUPP.LOW_VALUE  = BINASC (ALPHABET$ -> ALPHABET.LOW_VALUE);

  23549 35 005122   000205 470400 0                  LDP0    ALPHABET$
PL6.E3A0      #001=Z8EM$SEMANTICS_DATA_DIV File=Z8EM.:Z8A6TSI                    SAT 08/09/97 12:08 Page:445
        35 005123   000007 236100                    LDQ     7,,PR0
        35 005124   000022 772000                    QRL     18
        35 005125   000777 376007                    ANQ     511,DL
        35 005126   000033 736000                    QLS     27
        35 005127   000164 276000 36                 ORQ     116
        35 005130   000207 471400 0                  LDP1    PROC$
        35 005131   000011 772000                    QRL     9
        35 005132   100001 552120                    STBQ    1,'20'O,PR1

     1538    23550    3          PROC$ -> PROC_SUPP.HIGH_VALUE = BINASC (ALPHABET$ -> ALPHABET.HIGH_VALUE);

  23550 35 005133   000205 470400 0                  LDP0    ALPHABET$
        35 005134   000007 236100                    LDQ     7,,PR0
        35 005135   000022 772000                    QRL     18
        35 005136   100001 552110                    STBQ    1,'10'O,PR1

     1539    23551
     1540    23552    3      END; /* Case */

     1541    23553
     1542    23554    2      PROC$ -> PROC_SUPP.COLLATING_SEQ$ = ALPHABET$;

  23554 35 005137   000205 236000 0                  LDQ     ALPHABET$
        35 005140   000207 470400 0                  LDP0    PROC$
        35 005141   000002 756100                    STQ     2,,PR0

     1543    23555
     1544    23556    2   END COLLATING_SEQUENCE;

  23556 35 005142   000202 221200 0                  LDX1  ! ST$$+1
        35 005143   000001 702211                    TSX2  ! 1,X1

     1545    23557        %EJECT;
PL6.E3A0      #001=Z8EM$SEMANTICS_DATA_DIV File=Z8EM.:Z8A6TSI                    SAT 08/09/97 12:08 Page:446
     1546    23558        /*====================*/
     1547    23559    1     COMMON_ALPHABET_NAME: PROC (NAME$, ALPHA_TYPE$, ALPHA_ST$, TABLE_ETT$);

  23559 35 005144   000220 741200 0     COMMON_ALPH* STX1  ! TEMP_COLLATING+8

     1548    23560        /*====================*/
     1549    23561
     1550    23562    2   DCL NAME$              PTR;
     1551    23563    2   DCL ALPHA_TYPE$        PTR;
     1552    23564    2   DCL ALPHA_ST$          PTR;
     1553    23565    2   DCL TABLE_ETT$         PTR;
     1554    23566    2   DCL ALPHA_DNT$         PTR;
     1555    23567    2   DCL COLL_DNT$          PTR;
     1556    23568
     1557    23569
     1558    23570
     1559    23571    3      DO SELECT (ALPHA_TYPE$ -> LX_TERMINAL.SYMBOL);

  23571 35 005145   000222 470400 0                  LDP0    @ALPHA_TYPE$
        35 005146   000000 471500                    LDP1    0,,PR0
        35 005147   100003 236100                    LDQ     3,,PR1
        35 005150   000453 116007                    CMPQ    299,DL
        35 005151   005161 604000 35                 TMI     s:23571+12
        35 005152   005204 600000 35                 TZE     s:23584
        35 005153   000655 116007                    CMPQ    429,DL
        35 005154   006225 604000 35                 TMI     s:24005
        35 005155   005204 600000 35                 TZE     s:23584
        35 005156   000656 116007                    CMPQ    430,DL
        35 005157   006225 601000 35                 TNZ     s:24005
        35 005160   005204 710000 35                 TRA     s:23584
        35 005161   000343 116007                    CMPQ    227,DL
        35 005162   005173 604000 35                 TMI     s:23571+22
        35 005163   005354 600000 35                 TZE     s:23669
        35 005164   000404 116007                    CMPQ    260,DL
        35 005165   005170 604000 35                 TMI     s:23571+19
        35 005166   005354 600000 35                 TZE     s:23669
        35 005167   006225 710000 35                 TRA     s:24005
PL6.E3A0      #001=Z8EM$SEMANTICS_DATA_DIV File=Z8EM.:Z8A6TSI                    SAT 08/09/97 12:08 Page:447
        35 005170   000347 116007                    CMPQ    231,DL
        35 005171   006225 601000 35                 TNZ     s:24005
        35 005172   005677 710000 35                 TRA     s:23841
        35 005173   000236 116007                    CMPQ    158,DL
        35 005174   005201 604000 35                 TMI     s:23571+28
        35 005175   005524 600000 35                 TZE     s:23754
        35 005176   000332 116007                    CMPQ    218,DL
        35 005177   006225 601000 35                 TNZ     s:24005
        35 005200   006052 710000 35                 TRA     s:23928
        35 005201   000070 116007                    CMPQ    56,DL
        35 005202   006225 601000 35                 TNZ     s:24005
        35 005203   005204 710000 35                 TRA     s:23584

     1560    23572    3        SELECT (%RSV_WRD_ASCII, %RSV_WRD_NATIVE,

     1561    23573    3              %RSV_WRD_STANDARD_1, %RSV_WRD_STANDARD_2);
     1562    23574               %NEW_ALPHABET (@ST$    = ALPHA_ST$,
     1563    23575                              @LINE_NO = NAME$ -> LX_TERMINAL.LINE,
     1564    23576                              @DNT$    = NAME$ -> LX_TERMINAL.DNT$,
     1565    23577                              @NEXT     = NAME$ -> LX_TERMINAL.DNT$ -> DNT.ST$,
     1566    23578                              @LOW_VALUE  = 0,
     1567    23579                              @HIGH_VALUE = "BITBIN('177'O)",
     1568    23580                              @CODE    = %ASCII);

  23584 35 005204   000002 236000 13                 LDQ     ST_+2
        35 005205   000013 036007                    ADLQ    11,DL
        35 005206   000003 116000 13                 CMPQ    ST_+3
        35 005207   005220 604000 35                 TMI     s:23586

  23585 35 005210   000102 236000 36                 LDQ     66
        35 005211   001012 756000 0                  STQ     PROC$+2
        35 005212   001012 631400 0                  EPPR1   PROC$+2
        35 005213   001013 451400 0                  STP1    PROC$+3
        35 005214   001013 630400 0                  EPPR0   PROC$+3
        35 005215   000036 631400 36                 EPPR1   30
        35 005216   000000 701000 xent               TSX1    Z8AR$RESERVER
        35 005217   000000 011000                    NOP     0
PL6.E3A0      #001=Z8EM$SEMANTICS_DATA_DIV File=Z8EM.:Z8A6TSI                    SAT 08/09/97 12:08 Page:448

  23586 35 005220   000002 236000 13                 LDQ     ST_+2
        35 005221   000022 736000                    QLS     18
        35 005222   000001 036000 13                 ADLQ    ST_+1
        35 005223   000223 470400 0                  LDP0    @ALPHA_ST$
        35 005224   000000 756100                    STQ     0,,PR0

  23587 35 005225   000013 236007                    LDQ     11,DL
        35 005226   000002 056000 13                 ASQ     ST_+2

  23590 35 005227   000000 471500                    LDP1    0,,PR0
        35 005230   000763 220003                    LDX0    499,DU
        35 005231   100000 740100                    STX0    0,,PR1

  23591 35 005232   000000 471500                    LDP1    0,,PR0
        35 005233   000221 473400 0                  LDP3    @NAME$
        35 005234   300000 474500                    LDP4    0,,PR3
        35 005235   400005 721100                    LXL1    5,,PR4
        35 005236   100002 441100                    SXL1    2,,PR1

  23592 35 005237   000000 471500                    LDP1    0,,PR0
        35 005240   000020 221003                    LDX1    16,DU
        35 005241   100002 741100                    STX1    2,,PR1

  23593 35 005242   000000 471500                    LDP1    0,,PR0
        35 005243   100003 450100                    STZ     3,,PR1

  23594 35 005244   000000 471500                    LDP1    0,,PR0
        35 005245   000000 236003                    LDQ     0,DU
        35 005246   100003 552104                    STBQ    3,'04'O,PR1

  23595 35 005247   000000 471500                    LDP1    0,,PR0
        35 005250   300000 474500                    LDP4    0,,PR3
        35 005251   400002 475500                    LDP5    2,,PR4
        35 005252   500001 236100                    LDQ     1,,PR5
        35 005253   100004 756100                    STQ     4,,PR1

PL6.E3A0      #001=Z8EM$SEMANTICS_DATA_DIV File=Z8EM.:Z8A6TSI                    SAT 08/09/97 12:08 Page:449
  23596 35 005254   000000 471500                    LDP1    0,,PR0
        35 005255   300000 474500                    LDP4    0,,PR3
        35 005256   400002 236100                    LDQ     2,,PR4
        35 005257   100006 756100                    STQ     6,,PR1

  23600 35 005260   000000 471500                    LDP1    0,,PR0
        35 005261   000024 236000 36                 LDQ     20
        35 005262   100012 756100                    STQ     10,,PR1

  23603 35 005263   000000 471500                    LDP1    0,,PR0
        35 005264   000057 236000 xsym               LDQ     O1COM+47
        35 005265   100011 756100                    STQ     9,,PR1

  23604 35 005266   000057 236000 xsym               LDQ     O1COM+47
        35 005267   000024 116000 36                 CMPQ    20
        35 005270   005314 600000 35                 TZE     s:23638

  23608 35 005271   000057 471400 xsym               LDP1    O1COM+47
        35 005272   100001 474500                    LDP4    1,,PR1
        35 005273   400012 236100                    LDQ     10,,PR4
        35 005274   000024 116000 36                 CMPQ    20
        35 005275   005305 601000 35                 TNZ     s:23615

  23610 35 005276   000000 236100                    LDQ     0,,PR0
        35 005277   400011 756100                    STQ     9,,PR4

  23611 35 005300   000057 471400 xsym               LDP1    O1COM+47
        35 005301   100001 474500                    LDP4    1,,PR1
        35 005302   000000 236100                    LDQ     0,,PR0
        35 005303   400012 756100                    STQ     10,,PR4

  23612 35 005304   005314 710000 35                 TRA     s:23638

  23615 35 005305   400012 475500                    LDP5    10,,PR4
        35 005306   000000 236100                    LDQ     0,,PR0
        35 005307   500012 756100                    STQ     10,,PR5

PL6.E3A0      #001=Z8EM$SEMANTICS_DATA_DIV File=Z8EM.:Z8A6TSI                    SAT 08/09/97 12:08 Page:450
  23616 35 005310   000057 471400 xsym               LDP1    O1COM+47
        35 005311   100001 474500                    LDP4    1,,PR1
        35 005312   000000 236100                    LDQ     0,,PR0
        35 005313   400012 756100                    STQ     10,,PR4

  23638 35 005314   000000 471500                    LDP1    0,,PR0
        35 005315   177000 236003                    LDQ     65024,DU
        35 005316   100007 552140                    STBQ    7,'40'O,PR1

  23639 35 005317   000000 471500                    LDP1    0,,PR0
        35 005320   000000 236003                    LDQ     0,DU
        35 005321   100007 552120                    STBQ    7,'20'O,PR1

  23640 35 005322   000000 471500                    LDP1    0,,PR0
        35 005323   000024 236000 36                 LDQ     20
        35 005324   100005 756100                    STQ     5,,PR1

  23641 35 005325   000000 471500                    LDP1    0,,PR0
        35 005326   000000 222003                    LDX2    0,DU
        35 005327   100007 442100                    SXL2    7,,PR1

  23642 35 005330   000000 471500                    LDP1    0,,PR0
        35 005331   000024 236000 36                 LDQ     20
        35 005332   100001 756100                    STQ     1,,PR1

  23644 35 005333   000000 471500                    LDP1    0,,PR0
        35 005334   000040 236000 36                 LDQ     32
        35 005335   100003 356100                    ANSQ    3,,PR1

  23647 35 005336   000000 471500                    LDP1    0,,PR0
        35 005337   000165 236000 36                 LDQ     117
        35 005340   100003 356100                    ANSQ    3,,PR1

  23650 35 005341   000000 471500                    LDP1    0,,PR0
        35 005342   000166 236000 36                 LDQ     118
        35 005343   100003 356100                    ANSQ    3,,PR1

PL6.E3A0      #001=Z8EM$SEMANTICS_DATA_DIV File=Z8EM.:Z8A6TSI                    SAT 08/09/97 12:08 Page:451
     1569    23654
     1570    23655    3          CALL Z8CO$CREATE_LIBRARY_BASE (%OP_ASCII_TO_ASCII,

  23655 35 005344   000224 236000 0                  LDQ     @TABLE_ETT$
        35 005345   000170 235000 36                 LDA     120
        35 005346   001012 757000 0                  STAQ    PROC$+2
        35 005347   001012 630400 0                  EPPR0   PROC$+2
        35 005350   000025 631400 36                 EPPR1   21
        35 005351   000000 701000 xent               TSX1    Z8CO$CREATE_LIBRARY_BASE
        35 005352   000000 011000                    NOP     0
        35 005353   006243 710000 35                 TRA     s:24012

     1571    23656    3                                         TABLE_ETT$);
     1572    23657
     1573    23658    3        SELECT (%RSV_WRD_JIS, %RSV_WRD_GRAPHIC) ;

     1574    23659               %NEW_ALPHABET (@ST$     = ALPHA_ST$,
     1575    23660                              @LINE_NO = NAME$ -> LX_TERMINAL.LINE,
     1576    23661                              @DNT$    = NAME$ -> LX_TERMINAL.DNT$,
     1577    23662                              @NEXT    = NAME$ -> LX_TERMINAL.DNT$ -> DNT.ST$,
     1578    23663                              @LOW_VALUE  = 0,
     1579    23664                              @HIGH_VALUE = "BITBIN('377'O)",
     1580    23665                              @CODE    = %JIS);

  23669 35 005354   000002 236000 13                 LDQ     ST_+2
        35 005355   000013 036007                    ADLQ    11,DL
        35 005356   000003 116000 13                 CMPQ    ST_+3
        35 005357   005370 604000 35                 TMI     s:23671

  23670 35 005360   000102 236000 36                 LDQ     66
        35 005361   001012 756000 0                  STQ     PROC$+2
        35 005362   001012 631400 0                  EPPR1   PROC$+2
        35 005363   001013 451400 0                  STP1    PROC$+3
        35 005364   001013 630400 0                  EPPR0   PROC$+3
        35 005365   000036 631400 36                 EPPR1   30
        35 005366   000000 701000 xent               TSX1    Z8AR$RESERVER
        35 005367   000000 011000                    NOP     0
PL6.E3A0      #001=Z8EM$SEMANTICS_DATA_DIV File=Z8EM.:Z8A6TSI                    SAT 08/09/97 12:08 Page:452

  23671 35 005370   000002 236000 13                 LDQ     ST_+2
        35 005371   000022 736000                    QLS     18
        35 005372   000001 036000 13                 ADLQ    ST_+1
        35 005373   000223 470400 0                  LDP0    @ALPHA_ST$
        35 005374   000000 756100                    STQ     0,,PR0

  23672 35 005375   000013 236007                    LDQ     11,DL
        35 005376   000002 056000 13                 ASQ     ST_+2

  23675 35 005377   000000 471500                    LDP1    0,,PR0
        35 005400   000763 220003                    LDX0    499,DU
        35 005401   100000 740100                    STX0    0,,PR1

  23676 35 005402   000000 471500                    LDP1    0,,PR0
        35 005403   000221 473400 0                  LDP3    @NAME$
        35 005404   300000 474500                    LDP4    0,,PR3
        35 005405   400005 721100                    LXL1    5,,PR4
        35 005406   100002 441100                    SXL1    2,,PR1

  23677 35 005407   000000 471500                    LDP1    0,,PR0
        35 005410   000020 221003                    LDX1    16,DU
        35 005411   100002 741100                    STX1    2,,PR1

  23678 35 005412   000000 471500                    LDP1    0,,PR0
        35 005413   100003 450100                    STZ     3,,PR1

  23679 35 005414   000000 471500                    LDP1    0,,PR0
        35 005415   000001 236007                    LDQ     1,DL
        35 005416   100003 552104                    STBQ    3,'04'O,PR1

  23680 35 005417   000000 471500                    LDP1    0,,PR0
        35 005420   300000 474500                    LDP4    0,,PR3
        35 005421   400002 475500                    LDP5    2,,PR4
        35 005422   500001 236100                    LDQ     1,,PR5
        35 005423   100004 756100                    STQ     4,,PR1

PL6.E3A0      #001=Z8EM$SEMANTICS_DATA_DIV File=Z8EM.:Z8A6TSI                    SAT 08/09/97 12:08 Page:453
  23681 35 005424   000000 471500                    LDP1    0,,PR0
        35 005425   300000 474500                    LDP4    0,,PR3
        35 005426   400002 236100                    LDQ     2,,PR4
        35 005427   100006 756100                    STQ     6,,PR1

  23685 35 005430   000000 471500                    LDP1    0,,PR0
        35 005431   000024 236000 36                 LDQ     20
        35 005432   100012 756100                    STQ     10,,PR1

  23688 35 005433   000000 471500                    LDP1    0,,PR0
        35 005434   000057 236000 xsym               LDQ     O1COM+47
        35 005435   100011 756100                    STQ     9,,PR1

  23689 35 005436   000057 236000 xsym               LDQ     O1COM+47
        35 005437   000024 116000 36                 CMPQ    20
        35 005440   005464 600000 35                 TZE     s:23723

  23693 35 005441   000057 471400 xsym               LDP1    O1COM+47
        35 005442   100001 474500                    LDP4    1,,PR1
        35 005443   400012 236100                    LDQ     10,,PR4
        35 005444   000024 116000 36                 CMPQ    20
        35 005445   005455 601000 35                 TNZ     s:23700

  23695 35 005446   000000 236100                    LDQ     0,,PR0
        35 005447   400011 756100                    STQ     9,,PR4

  23696 35 005450   000057 471400 xsym               LDP1    O1COM+47
        35 005451   100001 474500                    LDP4    1,,PR1
        35 005452   000000 236100                    LDQ     0,,PR0
        35 005453   400012 756100                    STQ     10,,PR4

  23697 35 005454   005464 710000 35                 TRA     s:23723

  23700 35 005455   400012 475500                    LDP5    10,,PR4
        35 005456   000000 236100                    LDQ     0,,PR0
        35 005457   500012 756100                    STQ     10,,PR5

PL6.E3A0      #001=Z8EM$SEMANTICS_DATA_DIV File=Z8EM.:Z8A6TSI                    SAT 08/09/97 12:08 Page:454
  23701 35 005460   000057 471400 xsym               LDP1    O1COM+47
        35 005461   100001 474500                    LDP4    1,,PR1
        35 005462   000000 236100                    LDQ     0,,PR0
        35 005463   400012 756100                    STQ     10,,PR4

  23723 35 005464   000000 471500                    LDP1    0,,PR0
        35 005465   377000 236003                    LDQ     130560,DU
        35 005466   100007 552140                    STBQ    7,'40'O,PR1

  23724 35 005467   000000 471500                    LDP1    0,,PR0
        35 005470   000000 236003                    LDQ     0,DU
        35 005471   100007 552120                    STBQ    7,'20'O,PR1

  23725 35 005472   000000 471500                    LDP1    0,,PR0
        35 005473   000024 236000 36                 LDQ     20
        35 005474   100005 756100                    STQ     5,,PR1

  23726 35 005475   000000 471500                    LDP1    0,,PR0
        35 005476   000000 222003                    LDX2    0,DU
        35 005477   100007 442100                    SXL2    7,,PR1

  23727 35 005500   000000 471500                    LDP1    0,,PR0
        35 005501   000024 236000 36                 LDQ     20
        35 005502   100001 756100                    STQ     1,,PR1

  23729 35 005503   000000 471500                    LDP1    0,,PR0
        35 005504   000040 236000 36                 LDQ     32
        35 005505   100003 356100                    ANSQ    3,,PR1

  23732 35 005506   000000 471500                    LDP1    0,,PR0
        35 005507   000165 236000 36                 LDQ     117
        35 005510   100003 356100                    ANSQ    3,,PR1

  23735 35 005511   000000 471500                    LDP1    0,,PR0
        35 005512   000166 236000 36                 LDQ     118
        35 005513   100003 356100                    ANSQ    3,,PR1

PL6.E3A0      #001=Z8EM$SEMANTICS_DATA_DIV File=Z8EM.:Z8A6TSI                    SAT 08/09/97 12:08 Page:455
     1581    23739
     1582    23740    3          CALL Z8CO$CREATE_LIBRARY_BASE (%OP_ASCII_TO_ASCII,

  23740 35 005514   000224 236000 0                  LDQ     @TABLE_ETT$
        35 005515   000170 235000 36                 LDA     120
        35 005516   001012 757000 0                  STAQ    PROC$+2
        35 005517   001012 630400 0                  EPPR0   PROC$+2
        35 005520   000025 631400 36                 EPPR1   21
        35 005521   000000 701000 xent               TSX1    Z8CO$CREATE_LIBRARY_BASE
        35 005522   000000 011000                    NOP     0
        35 005523   006243 710000 35                 TRA     s:24012

     1583    23741    3                                         TABLE_ETT$);
     1584    23742
     1585    23743    3        SELECT (%RSV_WRD_EBCDIC);

     1586    23744               %NEW_ALPHABET (@ST$     = ALPHA_ST$,
     1587    23745                              @LINE_NO = NAME$ -> LX_TERMINAL.LINE,
     1588    23746                              @DNT$    = NAME$ -> LX_TERMINAL.DNT$,
     1589    23747                              @NEXT    = NAME$ -> LX_TERMINAL.DNT$ -> DNT.ST$,
     1590    23748                              @LOW_VALUE  = 0,
     1591    23749                              @HIGH_VALUE = "BITBIN('377'O)",
     1592    23750                              @CODE    = %EBCDIC);

  23754 35 005524   000002 236000 13                 LDQ     ST_+2
        35 005525   000013 036007                    ADLQ    11,DL
        35 005526   000003 116000 13                 CMPQ    ST_+3
        35 005527   005540 604000 35                 TMI     s:23756

  23755 35 005530   000102 236000 36                 LDQ     66
        35 005531   001012 756000 0                  STQ     PROC$+2
        35 005532   001012 631400 0                  EPPR1   PROC$+2
        35 005533   001013 451400 0                  STP1    PROC$+3
        35 005534   001013 630400 0                  EPPR0   PROC$+3
        35 005535   000036 631400 36                 EPPR1   30
        35 005536   000000 701000 xent               TSX1    Z8AR$RESERVER
        35 005537   000000 011000                    NOP     0
PL6.E3A0      #001=Z8EM$SEMANTICS_DATA_DIV File=Z8EM.:Z8A6TSI                    SAT 08/09/97 12:08 Page:456

  23756 35 005540   000002 236000 13                 LDQ     ST_+2
        35 005541   000022 736000                    QLS     18
        35 005542   000001 036000 13                 ADLQ    ST_+1
        35 005543   000223 470400 0                  LDP0    @ALPHA_ST$
        35 005544   000000 756100                    STQ     0,,PR0

  23757 35 005545   000013 236007                    LDQ     11,DL
        35 005546   000002 056000 13                 ASQ     ST_+2

  23760 35 005547   000000 471500                    LDP1    0,,PR0
        35 005550   000763 220003                    LDX0    499,DU
        35 005551   100000 740100                    STX0    0,,PR1

  23761 35 005552   000000 471500                    LDP1    0,,PR0
        35 005553   000221 473400 0                  LDP3    @NAME$
        35 005554   300000 474500                    LDP4    0,,PR3
        35 005555   400005 721100                    LXL1    5,,PR4
        35 005556   100002 441100                    SXL1    2,,PR1

  23762 35 005557   000000 471500                    LDP1    0,,PR0
        35 005560   000020 221003                    LDX1    16,DU
        35 005561   100002 741100                    STX1    2,,PR1

  23763 35 005562   000000 471500                    LDP1    0,,PR0
        35 005563   100003 450100                    STZ     3,,PR1

  23764 35 005564   000000 471500                    LDP1    0,,PR0
        35 005565   000003 236007                    LDQ     3,DL
        35 005566   100003 552104                    STBQ    3,'04'O,PR1

  23765 35 005567   000000 471500                    LDP1    0,,PR0
        35 005570   300000 474500                    LDP4    0,,PR3
        35 005571   400002 475500                    LDP5    2,,PR4
        35 005572   500001 236100                    LDQ     1,,PR5
        35 005573   100004 756100                    STQ     4,,PR1

PL6.E3A0      #001=Z8EM$SEMANTICS_DATA_DIV File=Z8EM.:Z8A6TSI                    SAT 08/09/97 12:08 Page:457
  23766 35 005574   000000 471500                    LDP1    0,,PR0
        35 005575   300000 474500                    LDP4    0,,PR3
        35 005576   400002 236100                    LDQ     2,,PR4
        35 005577   100006 756100                    STQ     6,,PR1

  23770 35 005600   000000 471500                    LDP1    0,,PR0
        35 005601   000024 236000 36                 LDQ     20
        35 005602   100012 756100                    STQ     10,,PR1

  23773 35 005603   000000 471500                    LDP1    0,,PR0
        35 005604   000057 236000 xsym               LDQ     O1COM+47
        35 005605   100011 756100                    STQ     9,,PR1

  23774 35 005606   000057 236000 xsym               LDQ     O1COM+47
        35 005607   000024 116000 36                 CMPQ    20
        35 005610   005634 600000 35                 TZE     s:23808

  23778 35 005611   000057 471400 xsym               LDP1    O1COM+47
        35 005612   100001 474500                    LDP4    1,,PR1
        35 005613   400012 236100                    LDQ     10,,PR4
        35 005614   000024 116000 36                 CMPQ    20
        35 005615   005625 601000 35                 TNZ     s:23785

  23780 35 005616   000000 236100                    LDQ     0,,PR0
        35 005617   400011 756100                    STQ     9,,PR4

  23781 35 005620   000057 471400 xsym               LDP1    O1COM+47
        35 005621   100001 474500                    LDP4    1,,PR1
        35 005622   000000 236100                    LDQ     0,,PR0
        35 005623   400012 756100                    STQ     10,,PR4

  23782 35 005624   005634 710000 35                 TRA     s:23808

  23785 35 005625   400012 475500                    LDP5    10,,PR4
        35 005626   000000 236100                    LDQ     0,,PR0
        35 005627   500012 756100                    STQ     10,,PR5

PL6.E3A0      #001=Z8EM$SEMANTICS_DATA_DIV File=Z8EM.:Z8A6TSI                    SAT 08/09/97 12:08 Page:458
  23786 35 005630   000057 471400 xsym               LDP1    O1COM+47
        35 005631   100001 474500                    LDP4    1,,PR1
        35 005632   000000 236100                    LDQ     0,,PR0
        35 005633   400012 756100                    STQ     10,,PR4

  23808 35 005634   000000 471500                    LDP1    0,,PR0
        35 005635   377000 236003                    LDQ     130560,DU
        35 005636   100007 552140                    STBQ    7,'40'O,PR1

  23809 35 005637   000000 471500                    LDP1    0,,PR0
        35 005640   000000 236003                    LDQ     0,DU
        35 005641   100007 552120                    STBQ    7,'20'O,PR1

  23810 35 005642   000000 471500                    LDP1    0,,PR0
        35 005643   000024 236000 36                 LDQ     20
        35 005644   100005 756100                    STQ     5,,PR1

  23811 35 005645   000000 471500                    LDP1    0,,PR0
        35 005646   000000 222003                    LDX2    0,DU
        35 005647   100007 442100                    SXL2    7,,PR1

  23812 35 005650   000000 471500                    LDP1    0,,PR0
        35 005651   000024 236000 36                 LDQ     20
        35 005652   100001 756100                    STQ     1,,PR1

  23814 35 005653   000000 471500                    LDP1    0,,PR0
        35 005654   000040 236000 36                 LDQ     32
        35 005655   100003 356100                    ANSQ    3,,PR1

  23817 35 005656   000000 471500                    LDP1    0,,PR0
        35 005657   000165 236000 36                 LDQ     117
        35 005660   100003 356100                    ANSQ    3,,PR1

  23820 35 005661   000000 471500                    LDP1    0,,PR0
        35 005662   000166 236000 36                 LDQ     118
        35 005663   100003 356100                    ANSQ    3,,PR1

PL6.E3A0      #001=Z8EM$SEMANTICS_DATA_DIV File=Z8EM.:Z8A6TSI                    SAT 08/09/97 12:08 Page:459
     1593    23824
     1594    23825    3        ALPHA_ST$ -> ALPHABET.TABLE$ = ADDR(EBCDIC);

  23825 35 005664   000000 471500                    LDP1    0,,PR0
        35 005665   000171 236000 36                 LDQ     121
        35 005666   100005 756100                    STQ     5,,PR1

     1595    23826
     1596    23827    3        CALL Z8CO$CREATE_LIBRARY_BASE (%OP_ASCII_TO_EBCDIC,

  23827 35 005667   000224 236000 0                  LDQ     @TABLE_ETT$
        35 005670   000173 235000 36                 LDA     123
        35 005671   001012 757000 0                  STAQ    PROC$+2
        35 005672   001012 630400 0                  EPPR0   PROC$+2
        35 005673   000025 631400 36                 EPPR1   21
        35 005674   000000 701000 xent               TSX1    Z8CO$CREATE_LIBRARY_BASE
        35 005675   000000 011000                    NOP     0
        35 005676   006243 710000 35                 TRA     s:24012

     1597    23828    3                                       TABLE_ETT$);
     1598    23829
     1599    23830    3        SELECT (%RSV_WRD_HBCD);

     1600    23831               %NEW_ALPHABET (@ST$     = ALPHA_ST$,
     1601    23832                              @LINE_NO = NAME$ -> LX_TERMINAL.LINE,
     1602    23833                              @DNT$    = NAME$ -> LX_TERMINAL.DNT$,
     1603    23834                              @NEXT    = NAME$ -> LX_TERMINAL.DNT$ -> DNT.ST$,
     1604    23835                              @LOW_VALUE  = 0,
     1605    23836                              @HIGH_VALUE = "BITBIN('133'O)",
     1606    23837                              @CODE    = %HBCD);

  23841 35 005677   000002 236000 13                 LDQ     ST_+2
        35 005700   000013 036007                    ADLQ    11,DL
        35 005701   000003 116000 13                 CMPQ    ST_+3
        35 005702   005713 604000 35                 TMI     s:23843

  23842 35 005703   000102 236000 36                 LDQ     66
PL6.E3A0      #001=Z8EM$SEMANTICS_DATA_DIV File=Z8EM.:Z8A6TSI                    SAT 08/09/97 12:08 Page:460
        35 005704   001012 756000 0                  STQ     PROC$+2
        35 005705   001012 631400 0                  EPPR1   PROC$+2
        35 005706   001013 451400 0                  STP1    PROC$+3
        35 005707   001013 630400 0                  EPPR0   PROC$+3
        35 005710   000036 631400 36                 EPPR1   30
        35 005711   000000 701000 xent               TSX1    Z8AR$RESERVER
        35 005712   000000 011000                    NOP     0

  23843 35 005713   000002 236000 13                 LDQ     ST_+2
        35 005714   000022 736000                    QLS     18
        35 005715   000001 036000 13                 ADLQ    ST_+1
        35 005716   000223 470400 0                  LDP0    @ALPHA_ST$
        35 005717   000000 756100                    STQ     0,,PR0

  23844 35 005720   000013 236007                    LDQ     11,DL
        35 005721   000002 056000 13                 ASQ     ST_+2

  23847 35 005722   000000 471500                    LDP1    0,,PR0
        35 005723   000763 220003                    LDX0    499,DU
        35 005724   100000 740100                    STX0    0,,PR1

  23848 35 005725   000000 471500                    LDP1    0,,PR0
        35 005726   000221 473400 0                  LDP3    @NAME$
        35 005727   300000 474500                    LDP4    0,,PR3
        35 005730   400005 721100                    LXL1    5,,PR4
        35 005731   100002 441100                    SXL1    2,,PR1

  23849 35 005732   000000 471500                    LDP1    0,,PR0
        35 005733   000020 221003                    LDX1    16,DU
        35 005734   100002 741100                    STX1    2,,PR1

  23850 35 005735   000000 471500                    LDP1    0,,PR0
        35 005736   100003 450100                    STZ     3,,PR1

  23851 35 005737   000000 471500                    LDP1    0,,PR0
        35 005740   000005 236007                    LDQ     5,DL
        35 005741   100003 552104                    STBQ    3,'04'O,PR1
PL6.E3A0      #001=Z8EM$SEMANTICS_DATA_DIV File=Z8EM.:Z8A6TSI                    SAT 08/09/97 12:08 Page:461

  23852 35 005742   000000 471500                    LDP1    0,,PR0
        35 005743   300000 474500                    LDP4    0,,PR3
        35 005744   400002 475500                    LDP5    2,,PR4
        35 005745   500001 236100                    LDQ     1,,PR5
        35 005746   100004 756100                    STQ     4,,PR1

  23853 35 005747   000000 471500                    LDP1    0,,PR0
        35 005750   300000 474500                    LDP4    0,,PR3
        35 005751   400002 236100                    LDQ     2,,PR4
        35 005752   100006 756100                    STQ     6,,PR1

  23857 35 005753   000000 471500                    LDP1    0,,PR0
        35 005754   000024 236000 36                 LDQ     20
        35 005755   100012 756100                    STQ     10,,PR1

  23860 35 005756   000000 471500                    LDP1    0,,PR0
        35 005757   000057 236000 xsym               LDQ     O1COM+47
        35 005760   100011 756100                    STQ     9,,PR1

  23861 35 005761   000057 236000 xsym               LDQ     O1COM+47
        35 005762   000024 116000 36                 CMPQ    20
        35 005763   006007 600000 35                 TZE     s:23895

  23865 35 005764   000057 471400 xsym               LDP1    O1COM+47
        35 005765   100001 474500                    LDP4    1,,PR1
        35 005766   400012 236100                    LDQ     10,,PR4
        35 005767   000024 116000 36                 CMPQ    20
        35 005770   006000 601000 35                 TNZ     s:23872

  23867 35 005771   000000 236100                    LDQ     0,,PR0
        35 005772   400011 756100                    STQ     9,,PR4

  23868 35 005773   000057 471400 xsym               LDP1    O1COM+47
        35 005774   100001 474500                    LDP4    1,,PR1
        35 005775   000000 236100                    LDQ     0,,PR0
        35 005776   400012 756100                    STQ     10,,PR4
PL6.E3A0      #001=Z8EM$SEMANTICS_DATA_DIV File=Z8EM.:Z8A6TSI                    SAT 08/09/97 12:08 Page:462

  23869 35 005777   006007 710000 35                 TRA     s:23895

  23872 35 006000   400012 475500                    LDP5    10,,PR4
        35 006001   000000 236100                    LDQ     0,,PR0
        35 006002   500012 756100                    STQ     10,,PR5

  23873 35 006003   000057 471400 xsym               LDP1    O1COM+47
        35 006004   100001 474500                    LDP4    1,,PR1
        35 006005   000000 236100                    LDQ     0,,PR0
        35 006006   400012 756100                    STQ     10,,PR4

  23895 35 006007   000000 471500                    LDP1    0,,PR0
        35 006010   133000 236003                    LDQ     46592,DU
        35 006011   100007 552140                    STBQ    7,'40'O,PR1

  23896 35 006012   000000 471500                    LDP1    0,,PR0
        35 006013   000000 236003                    LDQ     0,DU
        35 006014   100007 552120                    STBQ    7,'20'O,PR1

  23897 35 006015   000000 471500                    LDP1    0,,PR0
        35 006016   000024 236000 36                 LDQ     20
        35 006017   100005 756100                    STQ     5,,PR1

  23898 35 006020   000000 471500                    LDP1    0,,PR0
        35 006021   000000 222003                    LDX2    0,DU
        35 006022   100007 442100                    SXL2    7,,PR1

  23899 35 006023   000000 471500                    LDP1    0,,PR0
        35 006024   000024 236000 36                 LDQ     20
        35 006025   100001 756100                    STQ     1,,PR1

  23901 35 006026   000000 471500                    LDP1    0,,PR0
        35 006027   000040 236000 36                 LDQ     32
        35 006030   100003 356100                    ANSQ    3,,PR1

  23904 35 006031   000000 471500                    LDP1    0,,PR0
PL6.E3A0      #001=Z8EM$SEMANTICS_DATA_DIV File=Z8EM.:Z8A6TSI                    SAT 08/09/97 12:08 Page:463
        35 006032   000165 236000 36                 LDQ     117
        35 006033   100003 356100                    ANSQ    3,,PR1

  23907 35 006034   000000 471500                    LDP1    0,,PR0
        35 006035   000166 236000 36                 LDQ     118
        35 006036   100003 356100                    ANSQ    3,,PR1

     1607    23911
     1608    23912    3        ALPHA_ST$ -> ALPHABET.TABLE$ = ADDR(HBCD);

  23912 35 006037   000000 471500                    LDP1    0,,PR0
        35 006040   000174 236000 36                 LDQ     124
        35 006041   100005 756100                    STQ     5,,PR1

     1609    23913
     1610    23914    3        CALL Z8CO$CREATE_LIBRARY_BASE (%OP_ASCII_TO_HBCD,

  23914 35 006042   000224 236000 0                  LDQ     @TABLE_ETT$
        35 006043   000176 235000 36                 LDA     126
        35 006044   001012 757000 0                  STAQ    PROC$+2
        35 006045   001012 630400 0                  EPPR0   PROC$+2
        35 006046   000025 631400 36                 EPPR1   21
        35 006047   000000 701000 xent               TSX1    Z8CO$CREATE_LIBRARY_BASE
        35 006050   000000 011000                    NOP     0
        35 006051   006243 710000 35                 TRA     s:24012

     1611    23915    3                                       TABLE_ETT$);
     1612    23916
     1613    23917    3        SELECT (%RSV_WRD_GBCD);

     1614    23918               %NEW_ALPHABET (@ST$     = ALPHA_ST$,
     1615    23919                              @LINE_NO = NAME$ -> LX_TERMINAL.LINE,
     1616    23920                              @DNT$    = NAME$ -> LX_TERMINAL.DNT$,
     1617    23921                              @NEXT    = NAME$ -> LX_TERMINAL.DNT$ -> DNT.ST$,
     1618    23922                              @LOW_VALUE  = 0,
     1619    23923                              @HIGH_VALUE = "BITBIN('41'O)",
     1620    23924                              @CODE    = %GBCD);
PL6.E3A0      #001=Z8EM$SEMANTICS_DATA_DIV File=Z8EM.:Z8A6TSI                    SAT 08/09/97 12:08 Page:464

  23928 35 006052   000002 236000 13                 LDQ     ST_+2
        35 006053   000013 036007                    ADLQ    11,DL
        35 006054   000003 116000 13                 CMPQ    ST_+3
        35 006055   006066 604000 35                 TMI     s:23930

  23929 35 006056   000102 236000 36                 LDQ     66
        35 006057   001012 756000 0                  STQ     PROC$+2
        35 006060   001012 631400 0                  EPPR1   PROC$+2
        35 006061   001013 451400 0                  STP1    PROC$+3
        35 006062   001013 630400 0                  EPPR0   PROC$+3
        35 006063   000036 631400 36                 EPPR1   30
        35 006064   000000 701000 xent               TSX1    Z8AR$RESERVER
        35 006065   000000 011000                    NOP     0

  23930 35 006066   000002 236000 13                 LDQ     ST_+2
        35 006067   000022 736000                    QLS     18
        35 006070   000001 036000 13                 ADLQ    ST_+1
        35 006071   000223 470400 0                  LDP0    @ALPHA_ST$
        35 006072   000000 756100                    STQ     0,,PR0

  23931 35 006073   000013 236007                    LDQ     11,DL
        35 006074   000002 056000 13                 ASQ     ST_+2

  23934 35 006075   000000 471500                    LDP1    0,,PR0
        35 006076   000763 220003                    LDX0    499,DU
        35 006077   100000 740100                    STX0    0,,PR1

  23935 35 006100   000000 471500                    LDP1    0,,PR0
        35 006101   000221 473400 0                  LDP3    @NAME$
        35 006102   300000 474500                    LDP4    0,,PR3
        35 006103   400005 721100                    LXL1    5,,PR4
        35 006104   100002 441100                    SXL1    2,,PR1

  23936 35 006105   000000 471500                    LDP1    0,,PR0
        35 006106   000020 221003                    LDX1    16,DU
        35 006107   100002 741100                    STX1    2,,PR1
PL6.E3A0      #001=Z8EM$SEMANTICS_DATA_DIV File=Z8EM.:Z8A6TSI                    SAT 08/09/97 12:08 Page:465

  23937 35 006110   000000 471500                    LDP1    0,,PR0
        35 006111   100003 450100                    STZ     3,,PR1

  23938 35 006112   000000 471500                    LDP1    0,,PR0
        35 006113   000004 236007                    LDQ     4,DL
        35 006114   100003 552104                    STBQ    3,'04'O,PR1

  23939 35 006115   000000 471500                    LDP1    0,,PR0
        35 006116   300000 474500                    LDP4    0,,PR3
        35 006117   400002 475500                    LDP5    2,,PR4
        35 006120   500001 236100                    LDQ     1,,PR5
        35 006121   100004 756100                    STQ     4,,PR1

  23940 35 006122   000000 471500                    LDP1    0,,PR0
        35 006123   300000 474500                    LDP4    0,,PR3
        35 006124   400002 236100                    LDQ     2,,PR4
        35 006125   100006 756100                    STQ     6,,PR1

  23944 35 006126   000000 471500                    LDP1    0,,PR0
        35 006127   000024 236000 36                 LDQ     20
        35 006130   100012 756100                    STQ     10,,PR1

  23947 35 006131   000000 471500                    LDP1    0,,PR0
        35 006132   000057 236000 xsym               LDQ     O1COM+47
        35 006133   100011 756100                    STQ     9,,PR1

  23948 35 006134   000057 236000 xsym               LDQ     O1COM+47
        35 006135   000024 116000 36                 CMPQ    20
        35 006136   006162 600000 35                 TZE     s:23982

  23952 35 006137   000057 471400 xsym               LDP1    O1COM+47
        35 006140   100001 474500                    LDP4    1,,PR1
        35 006141   400012 236100                    LDQ     10,,PR4
        35 006142   000024 116000 36                 CMPQ    20
        35 006143   006153 601000 35                 TNZ     s:23959

PL6.E3A0      #001=Z8EM$SEMANTICS_DATA_DIV File=Z8EM.:Z8A6TSI                    SAT 08/09/97 12:08 Page:466
  23954 35 006144   000000 236100                    LDQ     0,,PR0
        35 006145   400011 756100                    STQ     9,,PR4

  23955 35 006146   000057 471400 xsym               LDP1    O1COM+47
        35 006147   100001 474500                    LDP4    1,,PR1
        35 006150   000000 236100                    LDQ     0,,PR0
        35 006151   400012 756100                    STQ     10,,PR4

  23956 35 006152   006162 710000 35                 TRA     s:23982

  23959 35 006153   400012 475500                    LDP5    10,,PR4
        35 006154   000000 236100                    LDQ     0,,PR0
        35 006155   500012 756100                    STQ     10,,PR5

  23960 35 006156   000057 471400 xsym               LDP1    O1COM+47
        35 006157   100001 474500                    LDP4    1,,PR1
        35 006160   000000 236100                    LDQ     0,,PR0
        35 006161   400012 756100                    STQ     10,,PR4

  23982 35 006162   000000 471500                    LDP1    0,,PR0
        35 006163   041000 236003                    LDQ     16896,DU
        35 006164   100007 552140                    STBQ    7,'40'O,PR1

  23983 35 006165   000000 471500                    LDP1    0,,PR0
        35 006166   000000 236003                    LDQ     0,DU
        35 006167   100007 552120                    STBQ    7,'20'O,PR1

  23984 35 006170   000000 471500                    LDP1    0,,PR0
        35 006171   000024 236000 36                 LDQ     20
        35 006172   100005 756100                    STQ     5,,PR1

  23985 35 006173   000000 471500                    LDP1    0,,PR0
        35 006174   000000 222003                    LDX2    0,DU
        35 006175   100007 442100                    SXL2    7,,PR1

  23986 35 006176   000000 471500                    LDP1    0,,PR0
        35 006177   000024 236000 36                 LDQ     20
PL6.E3A0      #001=Z8EM$SEMANTICS_DATA_DIV File=Z8EM.:Z8A6TSI                    SAT 08/09/97 12:08 Page:467
        35 006200   100001 756100                    STQ     1,,PR1

  23988 35 006201   000000 471500                    LDP1    0,,PR0
        35 006202   000040 236000 36                 LDQ     32
        35 006203   100003 356100                    ANSQ    3,,PR1

  23991 35 006204   000000 471500                    LDP1    0,,PR0
        35 006205   000165 236000 36                 LDQ     117
        35 006206   100003 356100                    ANSQ    3,,PR1

  23994 35 006207   000000 471500                    LDP1    0,,PR0
        35 006210   000166 236000 36                 LDQ     118
        35 006211   100003 356100                    ANSQ    3,,PR1

     1621    23998
     1622    23999    3        ALPHA_ST$ -> ALPHABET.TABLE$ = ADDR(GBCD);

  23999 35 006212   000000 471500                    LDP1    0,,PR0
        35 006213   000177 236000 36                 LDQ     127
        35 006214   100005 756100                    STQ     5,,PR1

     1623    24000
     1624    24001    3        CALL Z8CO$CREATE_LIBRARY_BASE (%OP_ASCII_TO_GBCD,

  24001 35 006215   000224 236000 0                  LDQ     @TABLE_ETT$
        35 006216   000201 235000 36                 LDA     129
        35 006217   001012 757000 0                  STAQ    PROC$+2
        35 006220   001012 630400 0                  EPPR0   PROC$+2
        35 006221   000025 631400 36                 EPPR1   21
        35 006222   000000 701000 xent               TSX1    Z8CO$CREATE_LIBRARY_BASE
        35 006223   000000 011000                    NOP     0
        35 006224   006243 710000 35                 TRA     s:24012

     1625    24002    3                                         TABLE_ETT$);
     1626    24003
     1627    24004    3        SELECT (ELSE);

PL6.E3A0      #001=Z8EM$SEMANTICS_DATA_DIV File=Z8EM.:Z8A6TSI                    SAT 08/09/97 12:08 Page:468
     1628    24005    3          CALL Z8AE$ERROR (%E$UNEXPECTED_CASE,

  24005 35 006225   000221 473400 0                  LDP3    @NAME$
        35 006226   300000 474500                    LDP4    0,,PR3
        35 006227   400006 635500                    EPPR5   6,,PR4
        35 006230   001014 455400 0                  STP5    PROC$+4
        35 006231   400005 631500                    EPPR1   5,,PR4
        35 006232   001013 451400 0                  STP1    PROC$+3
        35 006233   000047 236000 36                 LDQ     39
        35 006234   001012 756000 0                  STQ     PROC$+2
        35 006235   001012 630400 0                  EPPR0   PROC$+2
        35 006236   000000 631400 36                 EPPR1   0
        35 006237   000000 701000 xent               TSX1    Z8AE$ERROR
        35 006240   000000 011000                    NOP     0

     1629    24006    3                           NAME$ -> LX_TERMINAL.LINE,
     1630    24007    3                           NAME$ -> LX_TERMINAL.COLUMN);
     1631    24008    3          RETURN;

  24008 35 006241   000220 221200 0                  LDX1  ! TEMP_COLLATING+8
        35 006242   000001 702211                    TSX2  ! 1,X1

     1632    24009
     1633    24010    3      END; /* Case */

     1634    24011
     1635    24012    2      ALPHA_ST$ -> ALPHABET.TABLE_ETT$ = TABLE_ETT$;

  24012 35 006243   000223 470400 0                  LDP0    @ALPHA_ST$
        35 006244   000000 471500                    LDP1    0,,PR0
        35 006245   000224 473400 0                  LDP3    @TABLE_ETT$
        35 006246   300000 236100                    LDQ     0,,PR3
        35 006247   100001 756100                    STQ     1,,PR1

     1636    24013
     1637    24014           %ADD_XREF (SYM  = ALPHA_ST$,
     1638    24015                      ISN  = NAME$ -> LX_TERMINAL.LINE,
PL6.E3A0      #001=Z8EM$SEMANTICS_DATA_DIV File=Z8EM.:Z8A6TSI                    SAT 08/09/97 12:08 Page:469
     1639    24016                      TYPE = %XREF_DCL);

  24018 35 006250   000055 234000 xsym               SZN     COMCOM+45
        35 006251   006311 605000 35                 TPL     s:24035

  24022 35 006252   000002 236000 24                 LDQ     XREF_+2
        35 006253   000002 036007                    ADLQ    2,DL
        35 006254   000003 116000 24                 CMPQ    XREF_+3
        35 006255   006266 602000 35                 TNC     s:24024

  24023 35 006256   000110 236000 36                 LDQ     72
        35 006257   001012 756000 0                  STQ     PROC$+2
        35 006260   001012 631400 0                  EPPR1   PROC$+2
        35 006261   001013 451400 0                  STP1    PROC$+3
        35 006262   001013 630400 0                  EPPR0   PROC$+3
        35 006263   000036 631400 36                 EPPR1   30
        35 006264   000000 701000 xent               TSX1    Z8AR$RESERVER
        35 006265   000000 011000                    NOP     0

  24024 35 006266   000002 236000 24                 LDQ     XREF_+2
        35 006267   000022 736000                    QLS     18
        35 006270   000001 036000 24                 ADLQ    XREF_+1
        35 006271   000000 756000 23                 STQ     XREF$

  24025 35 006272   000002 235000 24                 LDA     XREF_+2
        35 006273   000002 035007                    ADLA    2,DL
        35 006274   000002 755000 24                 STA     XREF_+2

  24026 35 006275   000004 220003                    LDX0    4,DU
        35 006276   000000 470400 23                 LDP0    XREF$
        35 006277   000000 740100                    STX0    0,,PR0

  24029 35 006300   000221 470400 0                  LDP0    @NAME$
        35 006301   000000 471500                    LDP1    0,,PR0
        35 006302   100005 721100                    LXL1    5,,PR1
        35 006303   000000 473400 23                 LDP3    XREF$
        35 006304   300000 441100                    SXL1    0,,PR3
PL6.E3A0      #001=Z8EM$SEMANTICS_DATA_DIV File=Z8EM.:Z8A6TSI                    SAT 08/09/97 12:08 Page:470

  24030 35 006305   000223 471400 0                  LDP1    @ALPHA_ST$
        35 006306   100000 236100                    LDQ     0,,PR1
        35 006307   000000 473400 23                 LDP3    XREF$
        35 006310   300001 756100                    STQ     1,,PR3

     1640    24034
     1641    24035    2   END COMMON_ALPHABET_NAME;

  24035 35 006311   000220 221200 0                  LDX1  ! TEMP_COLLATING+8
        35 006312   000001 702211                    TSX2  ! 1,X1

     1642    24036        %EJECT;
PL6.E3A0      #001=Z8EM$SEMANTICS_DATA_DIV File=Z8EM.:Z8A6TSI                    SAT 08/09/97 12:08 Page:471
     1643    24037
     1644    24038         /*==============*/
     1645    24039    1      CREATE_CD_AREA: PROC (DNT$$, AREA_LENGTH, AREA_ST$, LEVEL#);

  24039 35 006313   000227 741200 0     CREATE_CD_A* STX1  ! COLL_DNT$+1

     1646    24040         /*==============*/
     1647    24041
     1648    24042
     1649    24043    2   DCL DNT$$          PTR;
     1650    24044    2   DCL AREA_LENGTH    SBIN WORD;
     1651    24045    2   DCL AREA_ST$       PTR;
     1652    24046    2   DCL LEVEL#         SBIN WORD;
     1653    24047
     1654    24048
     1655    24049           %NEW_SCALAR (@ST$       = AREA_ST$,
     1656    24050                        @LINE_NO   = COMCOM.CURRENT.LINE,
     1657    24051                        @DNT$      = DNT$$,
     1658    24052                        @NEXT      = DNT$$ -> DNT.ST$,
     1659    24053                        @TYPE      = %TYA,
     1660    24054                        @ELEMENTARY = TRUE,
     1661    24055                        @CLASS     = %CLASS_ALPHANUMERIC);

  24059 35 006314   000002 236000 13                 LDQ     ST_+2
        35 006315   000013 036007                    ADLQ    11,DL
        35 006316   000003 116000 13                 CMPQ    ST_+3
        35 006317   006330 604000 35                 TMI     s:24061

  24060 35 006320   000102 236000 36                 LDQ     66
        35 006321   001012 756000 0                  STQ     PROC$+2
        35 006322   001012 630400 0                  EPPR0   PROC$+2
        35 006323   001013 450400 0                  STP0    PROC$+3
        35 006324   001013 630400 0                  EPPR0   PROC$+3
        35 006325   000036 631400 36                 EPPR1   30
        35 006326   000000 701000 xent               TSX1    Z8AR$RESERVER
        35 006327   000000 011000                    NOP     0

PL6.E3A0      #001=Z8EM$SEMANTICS_DATA_DIV File=Z8EM.:Z8A6TSI                    SAT 08/09/97 12:08 Page:472
  24061 35 006330   000002 236000 13                 LDQ     ST_+2
        35 006331   000022 736000                    QLS     18
        35 006332   000001 036000 13                 ADLQ    ST_+1
        35 006333   000232 470400 0                  LDP0    @AREA_ST$
        35 006334   000000 756100                    STQ     0,,PR0

  24062 35 006335   000013 236007                    LDQ     11,DL
        35 006336   000002 056000 13                 ASQ     ST_+2

  24110 35 006337   000000 471500                    LDP1    0,,PR0
        35 006340   000766 220003                    LDX0    502,DU
        35 006341   100000 740100                    STX0    0,,PR1

  24111 35 006342   000000 471500                    LDP1    0,,PR0
        35 006343   003000 236007                    LDQ     1536,DL
        35 006344   100000 552110                    STBQ    0,'10'O,PR1

  24112 35 006345   000000 471500                    LDP1    0,,PR0
        35 006346   000001 236007                    LDQ     1,DL
        35 006347   100000 552104                    STBQ    0,'04'O,PR1

  24113 35 006350   000000 471500                    LDP1    0,,PR0
        35 006351   000000 221003                    LDX1    0,DU
        35 006352   100001 741100                    STX1    1,,PR1

  24114 35 006353   000000 471500                    LDP1    0,,PR0
        35 006354   100001 441100                    SXL1    1,,PR1

  24115 35 006355   000000 471500                    LDP1    0,,PR0
        35 006356   000133 722000 xsym               LXL2    COMCOM+91
        35 006357   100002 442100                    SXL2    2,,PR1

  24116 35 006360   000000 471500                    LDP1    0,,PR0
        35 006361   100003 450100                    STZ     3,,PR1

  24117 35 006362   000000 471500                    LDP1    0,,PR0
        35 006363   000230 473400 0                  LDP3    @DNT$$
PL6.E3A0      #001=Z8EM$SEMANTICS_DATA_DIV File=Z8EM.:Z8A6TSI                    SAT 08/09/97 12:08 Page:473
        35 006364   300000 474500                    LDP4    0,,PR3
        35 006365   400001 236100                    LDQ     1,,PR4
        35 006366   100004 756100                    STQ     4,,PR1

  24118 35 006367   000000 471500                    LDP1    0,,PR0
        35 006370   000024 236000 36                 LDQ     20
        35 006371   100005 756100                    STQ     5,,PR1

  24119 35 006372   000000 471500                    LDP1    0,,PR0
        35 006373   000024 236000 36                 LDQ     20
        35 006374   100007 756100                    STQ     7,,PR1

  24120 35 006375   000000 471500                    LDP1    0,,PR0
        35 006376   100010 741100                    STX1    8,,PR1

  24121 35 006377   000000 471500                    LDP1    0,,PR0
        35 006400   777777 222003                    LDX2    -1,DU
        35 006401   100010 442100                    SXL2    8,,PR1

  24125 35 006402   000000 471500                    LDP1    0,,PR0
        35 006403   000024 236000 36                 LDQ     20
        35 006404   100012 756100                    STQ     10,,PR1

  24128 35 006405   000000 471500                    LDP1    0,,PR0
        35 006406   000057 236000 xsym               LDQ     O1COM+47
        35 006407   100011 756100                    STQ     9,,PR1

  24129 35 006410   000057 236000 xsym               LDQ     O1COM+47
        35 006411   000024 116000 36                 CMPQ    20
        35 006412   006436 600000 35                 TZE     s:24164

  24133 35 006413   000057 471400 xsym               LDP1    O1COM+47
        35 006414   100001 474500                    LDP4    1,,PR1
        35 006415   400012 236100                    LDQ     10,,PR4
        35 006416   000024 116000 36                 CMPQ    20
        35 006417   006427 601000 35                 TNZ     s:24140

PL6.E3A0      #001=Z8EM$SEMANTICS_DATA_DIV File=Z8EM.:Z8A6TSI                    SAT 08/09/97 12:08 Page:474
  24135 35 006420   000000 236100                    LDQ     0,,PR0
        35 006421   400011 756100                    STQ     9,,PR4

  24136 35 006422   000057 471400 xsym               LDP1    O1COM+47
        35 006423   100001 474500                    LDP4    1,,PR1
        35 006424   000000 236100                    LDQ     0,,PR0
        35 006425   400012 756100                    STQ     10,,PR4

  24137 35 006426   006436 710000 35                 TRA     s:24164

  24140 35 006427   400012 475500                    LDP5    10,,PR4
        35 006430   000000 236100                    LDQ     0,,PR0
        35 006431   500012 756100                    STQ     10,,PR5

  24141 35 006432   000057 471400 xsym               LDP1    O1COM+47
        35 006433   100001 474500                    LDP4    1,,PR1
        35 006434   000000 236100                    LDQ     0,,PR0
        35 006435   400012 756100                    STQ     10,,PR4

  24164 35 006436   000000 471500                    LDP1    0,,PR0
        35 006437   000010 223003                    LDX3    8,DU
        35 006440   100002 743100                    STX3    2,,PR1

  24169 35 006441   000000 471500                    LDP1    0,,PR0
        35 006442   300000 236100                    LDQ     0,,PR3
        35 006443   100006 756100                    STQ     6,,PR1

  24186 35 006444   000000 471500                    LDP1    0,,PR0
        35 006445   010000 236003                    LDQ     4096,DU
        35 006446   100003 256100                    ORSQ    3,,PR1

  24234 35 006447   000000 471500                    LDP1    0,,PR0
        35 006450   100003 236100                    LDQ     3,,PR1
        35 006451   000202 376000 36                 ANQ     130
        35 006452   000003 276007                    ORQ     3,DL
        35 006453   100003 756100                    STQ     3,,PR1

PL6.E3A0      #001=Z8EM$SEMANTICS_DATA_DIV File=Z8EM.:Z8A6TSI                    SAT 08/09/97 12:08 Page:475
     1662    24255
     1663    24256    2      DNT$$ -> DNT.ST$ = AREA_ST$;

  24256 35 006454   300000 471500                    LDP1    0,,PR3
        35 006455   000000 236100                    LDQ     0,,PR0
        35 006456   100001 756100                    STQ     1,,PR1

     1664    24257    2      AREA_ST$ -> SCALAR.ADSC.N = AREA_LENGTH;

  24257 35 006457   000000 471500                    LDP1    0,,PR0
        35 006460   000231 474400 0                  LDP4    @AREA_LENGTH
        35 006461   400000 236100                    LDQ     0,,PR4
        35 006462   100001 752103                    STCQ    1,'03'O,PR1

     1665    24258
     1666    24259           %NEW_QLT (@POINTER  = AREA_ST$ -> SCALAR.QLT$,
     1667    24260                     @LEVEL#   = LEVEL#,
     1668    24261                     @ST$      = AREA_ST$,
     1669    24262                     @DNT$     = DNT$$);

  24267 35 006463   000002 236000 11                 LDQ     QLT_+2
        35 006464   000006 036007                    ADLQ    6,DL
        35 006465   000003 116000 11                 CMPQ    QLT_+3
        35 006466   006477 602000 35                 TNC     s:24269

  24268 35 006467   000103 236000 36                 LDQ     67
        35 006470   001012 756000 0                  STQ     PROC$+2
        35 006471   001012 631400 0                  EPPR1   PROC$+2
        35 006472   001013 451400 0                  STP1    PROC$+3
        35 006473   001013 630400 0                  EPPR0   PROC$+3
        35 006474   000036 631400 36                 EPPR1   30
        35 006475   000000 701000 xent               TSX1    Z8AR$RESERVER
        35 006476   000000 011000                    NOP     0

  24269 35 006477   000232 470400 0                  LDP0    @AREA_ST$
        35 006500   000000 471500                    LDP1    0,,PR0
        35 006501   000002 236000 11                 LDQ     QLT_+2
PL6.E3A0      #001=Z8EM$SEMANTICS_DATA_DIV File=Z8EM.:Z8A6TSI                    SAT 08/09/97 12:08 Page:476
        35 006502   000022 736000                    QLS     18
        35 006503   000001 036000 11                 ADLQ    QLT_+1
        35 006504   100007 756100                    STQ     7,,PR1

  24270 35 006505   000002 235000 11                 LDA     QLT_+2
        35 006506   000006 035007                    ADLA    6,DL
        35 006507   000002 755000 11                 STA     QLT_+2

  24271 35 006510   000000 471500                    LDP1    0,,PR0
        35 006511   100007 473500                    LDP3    7,,PR1
        35 006512   001053 220003                    LDX0    555,DU
        35 006513   300000 740100                    STX0    0,,PR3

  24274 35 006514   000000 471500                    LDP1    0,,PR0
        35 006515   100007 473500                    LDP3    7,,PR1
        35 006516   000024 236000 36                 LDQ     20
        35 006517   300001 756100                    STQ     1,,PR3

  24275 35 006520   000000 471500                    LDP1    0,,PR0
        35 006521   100007 473500                    LDP3    7,,PR1
        35 006522   000024 236000 36                 LDQ     20
        35 006523   300002 756100                    STQ     2,,PR3

  24276 35 006524   000000 471500                    LDP1    0,,PR0
        35 006525   100007 473500                    LDP3    7,,PR1
        35 006526   000024 236000 36                 LDQ     20
        35 006527   300003 756100                    STQ     3,,PR3

  24277 35 006530   000000 471500                    LDP1    0,,PR0
        35 006531   100007 473500                    LDP3    7,,PR1
        35 006532   000000 236100                    LDQ     0,,PR0
        35 006533   300004 756100                    STQ     4,,PR3

  24278 35 006534   000000 471500                    LDP1    0,,PR0
        35 006535   100007 473500                    LDP3    7,,PR1
        35 006536   000230 474400 0                  LDP4    @DNT$$
        35 006537   400000 236100                    LDQ     0,,PR4
PL6.E3A0      #001=Z8EM$SEMANTICS_DATA_DIV File=Z8EM.:Z8A6TSI                    SAT 08/09/97 12:08 Page:477
        35 006540   300005 756100                    STQ     5,,PR3

  24279 35 006541   000000 471500                    LDP1    0,,PR0
        35 006542   100007 473500                    LDP3    7,,PR1
        35 006543   000233 475400 0                  LDP5    @LEVEL#
        35 006544   500000 236100                    LDQ     0,,PR5
        35 006545   300000 552104                    STBQ    0,'04'O,PR3

  24280 35 006546   000000 471500                    LDP1    0,,PR0
        35 006547   100007 473500                    LDP3    7,,PR1
        35 006550   000000 236003                    LDQ     0,DU
        35 006551   300000 552110                    STBQ    0,'10'O,PR3

  24281 35 006552   000000 471500                    LDP1    0,,PR0
        35 006553   100007 473500                    LDP3    7,,PR1
        35 006554   000104 236000 36                 LDQ     68
        35 006555   300000 356100                    ANSQ    0,,PR3

  24282 35 006556   000000 471500                    LDP1    0,,PR0
        35 006557   100007 473500                    LDP3    7,,PR1
        35 006560   000105 236000 36                 LDQ     69
        35 006561   300000 356100                    ANSQ    0,,PR3

  24283 35 006562   000000 471500                    LDP1    0,,PR0
        35 006563   100007 473500                    LDP3    7,,PR1
        35 006564   000106 236000 36                 LDQ     70
        35 006565   300000 356100                    ANSQ    0,,PR3

  24284 35 006566   000000 471500                    LDP1    0,,PR0
        35 006567   100007 473500                    LDP3    7,,PR1
        35 006570   000107 236000 36                 LDQ     71
        35 006571   300000 356100                    ANSQ    0,,PR3

     1670    24287
     1671    24288           %UPDATE_PREV_QLT$ (@NEW_QLT$ = AREA_ST$ -> SCALAR.QLT$);

  24290 35 006572   000424 236000 xsym               LDQ     COMCOM+276
PL6.E3A0      #001=Z8EM$SEMANTICS_DATA_DIV File=Z8EM.:Z8A6TSI                    SAT 08/09/97 12:08 Page:478
        35 006573   000024 116000 36                 CMPQ    20
        35 006574   006601 600000 35                 TZE     s:24292

  24291 35 006575   000000 471500                    LDP1    0,,PR0
        35 006576   100007 236100                    LDQ     7,,PR1
        35 006577   000424 473400 xsym               LDP3    COMCOM+276
        35 006600   300002 756100                    STQ     2,,PR3

  24292 35 006601   000000 471500                    LDP1    0,,PR0
        35 006602   100007 236100                    LDQ     7,,PR1
        35 006603   000424 756000 xsym               STQ     COMCOM+276

     1672    24295
     1673    24296    2    END CREATE_CD_AREA;

  24296 35 006604   000227 221200 0                  LDX1  ! COLL_DNT$+1
        35 006605   000001 702211                    TSX2  ! 1,X1

     1674    24297         %EJECT;
PL6.E3A0      #001=Z8EM$SEMANTICS_DATA_DIV File=Z8EM.:Z8A6TSI                    SAT 08/09/97 12:08 Page:479
     1675    24298        /*====================*/
     1676    24299    1     CREATE_SYMBOLIC_CHAR: PROC (INT, DN$, ALPHA$);

  24299 35 006606   000234 741200 0     CREATE_SYMB* STX1  ! @LEVEL#+1

     1677    24300        /*====================*/
     1678    24301
     1679    24302    2   DCL INT                SBIN WORD;
     1680    24303    2   DCL DN$                PTR;
     1681    24304    2   DCL ALPHA$             PTR;
     1682    24305
     1683    24306    2   DCL I                  SBIN WORD;
     1684    24307    2   DCL ST$$               PTR;
     1685    24308    2   DCL SYM_CHAR$          PTR;
     1686    24309    2   DCL QLT$$              PTR;
     1687    24310
     1688    24311
     1689    24312    2      IF ALPHA$ = ADDR(NIL)

  24312 35 006607   000237 470400 0                  LDP0    @ALPHA$
        35 006610   000000 236100                    LDQ     0,,PR0
        35 006611   000024 116000 36                 CMPQ    20
        35 006612   006617 600000 35                 TZE     s:24314
        35 006613   000000 471500                    LDP1    0,,PR0
        35 006614   100005 236100                    LDQ     5,,PR1
        35 006615   000024 116000 36                 CMPQ    20
        35 006616   006623 601000 35                 TNZ     s:24316

     1690    24313    2      OR ALPHA$ -> ALPHABET.TABLE$ = ADDR(NIL) THEN
     1691    24314    2        I = INT;

  24314 35 006617   000235 471400 0                  LDP1    @INT
        35 006620   100000 235100                    LDA     0,,PR1
        35 006621   000240 755000 0                  STA     I
        35 006622   006643 710000 35                 TRA     s:24327

     1692    24315    2      ELSE
PL6.E3A0      #001=Z8EM$SEMANTICS_DATA_DIV File=Z8EM.:Z8A6TSI                    SAT 08/09/97 12:08 Page:480
     1693    24316    3        DO I = 0 TO 511;

  24316 35 006623   000240 450000 0                  STZ     I

     1694    24317    3          IF INT = ALPHA$ -> ALPHABET.TABLE$ -> TRANS.TABLE_B (I) THEN

  24317 35 006624   000237 470400 0                  LDP0    @ALPHA$
        35 006625   000000 471500                    LDP1    0,,PR0
        35 006626   100005 473500                    LDP3    5,,PR1
        35 006627   000235 474400 0                  LDP4    @INT
        35 006630   000240 235000 0                  LDA     I
        35 006631   000000 101505                    MRL     fill='000'O
        35 006632   300000 000001                    ADSC9   0,A,PR3                  cn=0,n=1
        35 006633   001012 000004 0                  ADSC9   PROC$+2                  cn=0,n=4
        35 006634   001012 236000 0                  LDQ     PROC$+2
        35 006635   400000 116100                    CMPQ    0,,PR4
        35 006636   006643 600000 35                 TZE     s:24327

     1695    24318    3            EXIT;
     1696    24319    3        END;

  24319 35 006637   000240 054000 0                  AOS     I
        35 006640   000240 235000 0                  LDA     I
        35 006641   000777 115007                    CMPA    511,DL
        35 006642   006624 604400 35                 TMOZ    s:24317

     1697    24320
     1698    24321           %NEW_CONST (@ST$  = ST$$,
     1699    24322                       @TYPE = %TYA,
     1700    24323                       @ALL  = TRUE);

  24327 35 006643   000002 236000 13                 LDQ     ST_+2
        35 006644   000013 036007                    ADLQ    11,DL
        35 006645   000003 116000 13                 CMPQ    ST_+3
        35 006646   006657 604000 35                 TMI     s:24329

  24328 35 006647   000102 236000 36                 LDQ     66
PL6.E3A0      #001=Z8EM$SEMANTICS_DATA_DIV File=Z8EM.:Z8A6TSI                    SAT 08/09/97 12:08 Page:481
        35 006650   001012 756000 0                  STQ     PROC$+2
        35 006651   001012 631400 0                  EPPR1   PROC$+2
        35 006652   001013 451400 0                  STP1    PROC$+3
        35 006653   001013 630400 0                  EPPR0   PROC$+3
        35 006654   000036 631400 36                 EPPR1   30
        35 006655   000000 701000 xent               TSX1    Z8AR$RESERVER
        35 006656   000000 011000                    NOP     0

  24329 35 006657   000002 236000 13                 LDQ     ST_+2
        35 006660   000022 736000                    QLS     18
        35 006661   000001 036000 13                 ADLQ    ST_+1
        35 006662   000241 756000 0                  STQ     ST$$

  24330 35 006663   000013 236007                    LDQ     11,DL
        35 006664   000002 056000 13                 ASQ     ST_+2

  24333 35 006665   000767 220003                    LDX0    503,DU
        35 006666   000241 470400 0                  LDP0    ST$$
        35 006667   000000 740100                    STX0    0,,PR0

  24334 35 006670   001000 236007                    LDQ     512,DL
        35 006671   000000 552110                    STBQ    0,'10'O,PR0

  24335 35 006672   000126 236000 xsym               LDQ     O1COM+86
        35 006673   000000 552104                    STBQ    0,'04'O,PR0

  24336 35 006674   000010 221003                    LDX1    8,DU
        35 006675   000002 741100                    STX1    2,,PR0

  24337 35 006676   000003 450100                    STZ     3,,PR0

  24338 35 006677   000024 236000 36                 LDQ     20
        35 006700   000004 756100                    STQ     4,,PR0

  24339 35 006701   000024 236000 36                 LDQ     20
        35 006702   000005 756100                    STQ     5,,PR0

PL6.E3A0      #001=Z8EM$SEMANTICS_DATA_DIV File=Z8EM.:Z8A6TSI                    SAT 08/09/97 12:08 Page:482
  24340 35 006703   000024 236000 36                 LDQ     20
        35 006704   000006 756100                    STQ     6,,PR0

  24351 35 006705   040000 236003                    LDQ     16384,DU
        35 006706   000003 256100                    ORSQ    3,,PR0

     1701    24364
     1702    24365    2      SUBSTR (ST$$ -> CONST.CONSTA,0,1) = BINASC (I);

  24365 35 006707   000240 236000 0                  LDQ     I
        35 006710   000033 736000                    QLS     27
        35 006711   000164 276000 36                 ORQ     116
        35 006712   000010 552140                    STBQ    8,'40'O,PR0

     1703    24366
     1704    24367    2      ST$$ -> CONST.ADSC.N = 1;

  24367 35 006713   000001 236007                    LDQ     1,DL
        35 006714   000001 752103                    STCQ    1,'03'O,PR0

     1705    24368
     1706    24369           %NEW_SYM_CHAR (@ST$      = SYM_CHAR$,
     1707    24370                          @CONST$   = ST$$,
     1708    24371                          @DNT$     = DN$ -> LX_TERMINAL.DNT$,
     1709    24372                          @LINE_NO  = DN$ -> LX_TERMINAL.LINE);

  24376 35 006715   000002 236000 13                 LDQ     ST_+2
        35 006716   000013 036007                    ADLQ    11,DL
        35 006717   000003 116000 13                 CMPQ    ST_+3
        35 006720   006731 604000 35                 TMI     s:24378

  24377 35 006721   000102 236000 36                 LDQ     66
        35 006722   001012 756000 0                  STQ     PROC$+2
        35 006723   001012 631400 0                  EPPR1   PROC$+2
        35 006724   001013 451400 0                  STP1    PROC$+3
        35 006725   001013 630400 0                  EPPR0   PROC$+3
        35 006726   000036 631400 36                 EPPR1   30
PL6.E3A0      #001=Z8EM$SEMANTICS_DATA_DIV File=Z8EM.:Z8A6TSI                    SAT 08/09/97 12:08 Page:483
        35 006727   000000 701000 xent               TSX1    Z8AR$RESERVER
        35 006730   000000 011000                    NOP     0

  24378 35 006731   000002 236000 13                 LDQ     ST_+2
        35 006732   000022 736000                    QLS     18
        35 006733   000001 036000 13                 ADLQ    ST_+1
        35 006734   000242 756000 0                  STQ     SYM_CHAR$

  24379 35 006735   000013 236007                    LDQ     11,DL
        35 006736   000002 056000 13                 ASQ     ST_+2

  24382 35 006737   001001 220003                    LDX0    513,DU
        35 006740   000242 470400 0                  LDP0    SYM_CHAR$
        35 006741   000000 740100                    STX0    0,,PR0

  24383 35 006742   000236 471400 0                  LDP1    @DN$
        35 006743   100000 473500                    LDP3    0,,PR1
        35 006744   300005 721100                    LXL1    5,,PR3
        35 006745   000002 441100                    SXL1    2,,PR0

  24384 35 006746   000020 222003                    LDX2    16,DU
        35 006747   000002 742100                    STX2    2,,PR0

  24385 35 006750   000003 450100                    STZ     3,,PR0

  24386 35 006751   000024 236000 36                 LDQ     20
        35 006752   000004 756100                    STQ     4,,PR0

  24387 35 006753   100000 473500                    LDP3    0,,PR1
        35 006754   300002 236100                    LDQ     2,,PR3
        35 006755   000006 756100                    STQ     6,,PR0

  24388 35 006756   000024 236000 36                 LDQ     20
        35 006757   000007 756100                    STQ     7,,PR0

  24392 35 006760   000024 236000 36                 LDQ     20
        35 006761   000012 756100                    STQ     10,,PR0
PL6.E3A0      #001=Z8EM$SEMANTICS_DATA_DIV File=Z8EM.:Z8A6TSI                    SAT 08/09/97 12:08 Page:484

  24395 35 006762   000057 236000 xsym               LDQ     O1COM+47
        35 006763   000011 756100                    STQ     9,,PR0

  24396 35 006764   000057 236000 xsym               LDQ     O1COM+47
        35 006765   000024 116000 36                 CMPQ    20
        35 006766   007010 600000 35                 TZE     s:24430

  24400 35 006767   000057 473400 xsym               LDP3    O1COM+47
        35 006770   300001 474500                    LDP4    1,,PR3
        35 006771   400012 236100                    LDQ     10,,PR4
        35 006772   000024 116000 36                 CMPQ    20
        35 006773   007002 601000 35                 TNZ     s:24407

  24402 35 006774   000242 236000 0                  LDQ     SYM_CHAR$
        35 006775   400011 756100                    STQ     9,,PR4

  24403 35 006776   000057 473400 xsym               LDP3    O1COM+47
        35 006777   300001 474500                    LDP4    1,,PR3
        35 007000   400012 756100                    STQ     10,,PR4

  24404 35 007001   007010 710000 35                 TRA     s:24430

  24407 35 007002   400012 475500                    LDP5    10,,PR4
        35 007003   000242 236000 0                  LDQ     SYM_CHAR$
        35 007004   500012 756100                    STQ     10,,PR5

  24408 35 007005   000057 473400 xsym               LDP3    O1COM+47
        35 007006   300001 474500                    LDP4    1,,PR3
        35 007007   400012 756100                    STQ     10,,PR4

  24430 35 007010   000241 236000 0                  LDQ     ST$$
        35 007011   000005 756100                    STQ     5,,PR0

     1710    24433
     1711    24434    2      DN$ -> LX_TERMINAL.DNT$ -> DNT.ST$ = SYM_CHAR$;

PL6.E3A0      #001=Z8EM$SEMANTICS_DATA_DIV File=Z8EM.:Z8A6TSI                    SAT 08/09/97 12:08 Page:485
  24434 35 007012   100000 473500                    LDP3    0,,PR1
        35 007013   300002 474500                    LDP4    2,,PR3
        35 007014   000242 236000 0                  LDQ     SYM_CHAR$
        35 007015   400001 756100                    STQ     1,,PR4

     1712    24435    2      DN$ -> LX_TERMINAL.DNT$ -> DNT.B.FIGURATIVE_CONSTANT = TRUE;

  24435 35 007016   100000 473500                    LDP3    0,,PR1
        35 007017   300002 474500                    LDP4    2,,PR3
        35 007020   002000 236003                    LDQ     1024,DU
        35 007021   400003 256100                    ORSQ    3,,PR4

     1713    24436
     1714    24437           %NEW_QLT (@POINTER = QLT$$,
     1715    24438                     @DNT$    = DN$ -> LX_TERMINAL.DNT$,
     1716    24439                     @ST$     = SYM_CHAR$,
     1717    24440                     @LEVEL#  = 01);

  24445 35 007022   000002 236000 11                 LDQ     QLT_+2
        35 007023   000006 036007                    ADLQ    6,DL
        35 007024   000003 116000 11                 CMPQ    QLT_+3
        35 007025   007036 602000 35                 TNC     s:24447

  24446 35 007026   000103 236000 36                 LDQ     67
        35 007027   001012 756000 0                  STQ     PROC$+2
        35 007030   001012 633400 0                  EPPR3   PROC$+2
        35 007031   001013 453400 0                  STP3    PROC$+3
        35 007032   001013 630400 0                  EPPR0   PROC$+3
        35 007033   000036 631400 36                 EPPR1   30
        35 007034   000000 701000 xent               TSX1    Z8AR$RESERVER
        35 007035   000000 011000                    NOP     0

  24447 35 007036   000002 236000 11                 LDQ     QLT_+2
        35 007037   000022 736000                    QLS     18
        35 007040   000001 036000 11                 ADLQ    QLT_+1
        35 007041   000243 756000 0                  STQ     QLT$$

PL6.E3A0      #001=Z8EM$SEMANTICS_DATA_DIV File=Z8EM.:Z8A6TSI                    SAT 08/09/97 12:08 Page:486
  24448 35 007042   000002 235000 11                 LDA     QLT_+2
        35 007043   000006 035007                    ADLA    6,DL
        35 007044   000002 755000 11                 STA     QLT_+2

  24449 35 007045   001053 220003                    LDX0    555,DU
        35 007046   000243 470400 0                  LDP0    QLT$$
        35 007047   000000 740100                    STX0    0,,PR0

  24452 35 007050   000024 236000 36                 LDQ     20
        35 007051   000001 756100                    STQ     1,,PR0

  24453 35 007052   000024 236000 36                 LDQ     20
        35 007053   000002 756100                    STQ     2,,PR0

  24454 35 007054   000024 236000 36                 LDQ     20
        35 007055   000003 756100                    STQ     3,,PR0

  24455 35 007056   000242 236000 0                  LDQ     SYM_CHAR$
        35 007057   000004 756100                    STQ     4,,PR0

  24456 35 007060   000236 471400 0                  LDP1    @DN$
        35 007061   100000 473500                    LDP3    0,,PR1
        35 007062   300002 236100                    LDQ     2,,PR3
        35 007063   000005 756100                    STQ     5,,PR0

  24457 35 007064   000001 236007                    LDQ     1,DL
        35 007065   000000 552104                    STBQ    0,'04'O,PR0

  24458 35 007066   000000 236003                    LDQ     0,DU
        35 007067   000000 552110                    STBQ    0,'10'O,PR0

  24459 35 007070   000104 236000 36                 LDQ     68
        35 007071   000000 356100                    ANSQ    0,,PR0

  24460 35 007072   000105 236000 36                 LDQ     69
        35 007073   000000 356100                    ANSQ    0,,PR0

PL6.E3A0      #001=Z8EM$SEMANTICS_DATA_DIV File=Z8EM.:Z8A6TSI                    SAT 08/09/97 12:08 Page:487
  24461 35 007074   000106 236000 36                 LDQ     70
        35 007075   000000 356100                    ANSQ    0,,PR0

  24462 35 007076   000107 236000 36                 LDQ     71
        35 007077   000000 356100                    ANSQ    0,,PR0

     1718    24465
     1719    24466           %UPDATE_PREV_QLT$ (@NEW_QLT$ = QLT$$);

  24468 35 007100   000424 236000 xsym               LDQ     COMCOM+276
        35 007101   000024 116000 36                 CMPQ    20
        35 007102   007106 600000 35                 TZE     s:24470

  24469 35 007103   000243 236000 0                  LDQ     QLT$$
        35 007104   000424 473400 xsym               LDP3    COMCOM+276
        35 007105   300002 756100                    STQ     2,,PR3

  24470 35 007106   000243 236000 0                  LDQ     QLT$$
        35 007107   000424 756000 xsym               STQ     COMCOM+276

     1720    24473
     1721    24474           %ADD_XREF (SYM  = SYM_CHAR$,
     1722    24475                      ISN  = DN$ -> LX_TERMINAL.LINE,
     1723    24476                      TYPE = %XREF_DCL);

  24478 35 007110   000055 234000 xsym               SZN     COMCOM+45
        35 007111   007150 605000 35                 TPL     s:24495

  24482 35 007112   000002 236000 24                 LDQ     XREF_+2
        35 007113   000002 036007                    ADLQ    2,DL
        35 007114   000003 116000 24                 CMPQ    XREF_+3
        35 007115   007126 602000 35                 TNC     s:24484

  24483 35 007116   000110 236000 36                 LDQ     72
        35 007117   001012 756000 0                  STQ     PROC$+2
        35 007120   001012 633400 0                  EPPR3   PROC$+2
        35 007121   001013 453400 0                  STP3    PROC$+3
PL6.E3A0      #001=Z8EM$SEMANTICS_DATA_DIV File=Z8EM.:Z8A6TSI                    SAT 08/09/97 12:08 Page:488
        35 007122   001013 630400 0                  EPPR0   PROC$+3
        35 007123   000036 631400 36                 EPPR1   30
        35 007124   000000 701000 xent               TSX1    Z8AR$RESERVER
        35 007125   000000 011000                    NOP     0

  24484 35 007126   000002 236000 24                 LDQ     XREF_+2
        35 007127   000022 736000                    QLS     18
        35 007130   000001 036000 24                 ADLQ    XREF_+1
        35 007131   000000 756000 23                 STQ     XREF$

  24485 35 007132   000002 235000 24                 LDA     XREF_+2
        35 007133   000002 035007                    ADLA    2,DL
        35 007134   000002 755000 24                 STA     XREF_+2

  24486 35 007135   000004 220003                    LDX0    4,DU
        35 007136   000000 470400 23                 LDP0    XREF$
        35 007137   000000 740100                    STX0    0,,PR0

  24489 35 007140   000236 470400 0                  LDP0    @DN$
        35 007141   000000 471500                    LDP1    0,,PR0
        35 007142   100005 721100                    LXL1    5,,PR1
        35 007143   000000 473400 23                 LDP3    XREF$
        35 007144   300000 441100                    SXL1    0,,PR3

  24490 35 007145   000242 236000 0                  LDQ     SYM_CHAR$
        35 007146   000000 471400 23                 LDP1    XREF$
        35 007147   100001 756100                    STQ     1,,PR1

     1724    24494
     1725    24495    2      SYM_CHAR$ -> SYMBOLIC_CHAR.QLT$ = QLT$$;

  24495 35 007150   000243 236000 0                  LDQ     QLT$$
        35 007151   000242 470400 0                  LDP0    SYM_CHAR$
        35 007152   000007 756100                    STQ     7,,PR0

     1726    24496
     1727    24497    2   END CREATE_SYMBOLIC_CHAR;
PL6.E3A0      #001=Z8EM$SEMANTICS_DATA_DIV File=Z8EM.:Z8A6TSI                    SAT 08/09/97 12:08 Page:489

  24497 35 007153   000234 221200 0                  LDX1  ! @LEVEL#+1
        35 007154   000001 702211                    TSX2  ! 1,X1

     1728    24498        %EJECT;
PL6.E3A0      #001=Z8EM$SEMANTICS_DATA_DIV File=Z8EM.:Z8A6TSI                    SAT 08/09/97 12:08 Page:490
     1729    24499        /*=============*/
     1730    24500    1     CURRENCY_SIGN: PROC (CURRENCY_SIGN$);

  24500 35 007155   000244 741200 0     CURRENCY_SI* STX1  ! QLT$$+1

     1731    24501        /*=============*/
     1732    24502
     1733    24503    2   DCL CURRENCY_SIGN$     PTR; /* to lx_stk of the currency sign literal */
     1734    24504    2   DCL DNT$$              PTR;
     1735    24505    2   DCL INDX               UBIN WORD;
     1736    24506    2   DCL TABLE_VAL          SBIN WORD;
     1737    24507
     1738    24508    2   DCL CURRENCY_SIGN      CHAR (1);
     1739    24509
     1740    24510    2      IF CURRENCY_SIGN$ -> LX_TERMINAL.SYMBOL ~= %ALPHA_LITERAL

  24510 35 007156   000245 470400 0                  LDP0    @CURRENCY_SIGN$
        35 007157   000000 471500                    LDP1    0,,PR0
        35 007160   100003 235100                    LDA     3,,PR1
        35 007161   000003 115007                    CMPA    3,DL
        35 007162   007210 600000 35                 TZE     s:24549
        35 007163   000004 115007                    CMPA    4,DL
        35 007164   007210 600000 35                 TZE     s:24549

     1741    24511    2      AND CURRENCY_SIGN$ -> LX_TERMINAL.SYMBOL ~= %SINGLE_QUOTE THEN
     1742    24512    3        DO;

     1743    24513               %CONDITIONAL_ERROR (@ERROR# = %E$INVALID_CURRENCY_SIGN,
     1744    24514                                   @LX_ITEM$ = CURRENCY_SIGN$,
     1745    24515                                   @LINE   = CURRENCY_SIGN$ -> LX_TERMINAL.LINE,
     1746    24516                                   @COLUMN = CURRENCY_SIGN$ -> LX_TERMINAL.COLUMN);

  24526 35 007165   100000 236100                    LDQ     0,,PR1
        35 007166   400000 316007                    CANQ    -131072,DL
        35 007167   007206 601000 35                 TNZ     s:24546

  24528 35 007170   100006 633500                    EPPR3   6,,PR1
PL6.E3A0      #001=Z8EM$SEMANTICS_DATA_DIV File=Z8EM.:Z8A6TSI                    SAT 08/09/97 12:08 Page:491
        35 007171   001014 453400 0                  STP3    PROC$+4
        35 007172   100005 634500                    EPPR4   5,,PR1
        35 007173   001013 454400 0                  STP4    PROC$+3
        35 007174   000204 236000 36                 LDQ     132
        35 007175   001012 756000 0                  STQ     PROC$+2
        35 007176   001012 630400 0                  EPPR0   PROC$+2
        35 007177   000000 631400 36                 EPPR1   0
        35 007200   000000 701000 xent               TSX1    Z8AE$ERROR
        35 007201   000000 011000                    NOP     0

  24537 35 007202   000245 470400 0                  LDP0    @CURRENCY_SIGN$
        35 007203   000000 471500                    LDP1    0,,PR0
        35 007204   400000 236007                    LDQ     -131072,DL
        35 007205   100000 256100                    ORSQ    0,,PR1

     1747    24546    3          RETURN;

  24546 35 007206   000244 221200 0                  LDX1  ! QLT$$+1
        35 007207   000001 702211                    TSX2  ! 1,X1

     1748    24547    3        END;
     1749    24548
     1750    24549    2      IF O1COM.CURRENT_PROC$ -> PROC_.B.CURRENCY_SIGN THEN

  24549 35 007210   000057 473400 xsym               LDP3    O1COM+47
        35 007211   300003 236100                    LDQ     3,,PR3
        35 007212   004000 316003                    CANQ    2048,DU
        35 007213   007237 600000 35                 TZE     s:24587

     1751    24550    3        DO;

     1752    24551               %CONDITIONAL_ERROR (@ERROR# = %E$MULTIPLE_CURRENCY_SIGNS,
     1753    24552                                   @LX_ITEM$ = CURRENCY_SIGN$,
     1754    24553                                   @LINE   = CURRENCY_SIGN$ -> LX_TERMINAL.LINE,
     1755    24554                                   @COLUMN = CURRENCY_SIGN$ -> LX_TERMINAL.COLUMN);

  24564 35 007214   100000 236100                    LDQ     0,,PR1
PL6.E3A0      #001=Z8EM$SEMANTICS_DATA_DIV File=Z8EM.:Z8A6TSI                    SAT 08/09/97 12:08 Page:492
        35 007215   400000 316007                    CANQ    -131072,DL
        35 007216   007235 601000 35                 TNZ     s:24584

  24566 35 007217   100006 634500                    EPPR4   6,,PR1
        35 007220   001014 454400 0                  STP4    PROC$+4
        35 007221   100005 635500                    EPPR5   5,,PR1
        35 007222   001013 455400 0                  STP5    PROC$+3
        35 007223   000206 236000 36                 LDQ     134
        35 007224   001012 756000 0                  STQ     PROC$+2
        35 007225   001012 630400 0                  EPPR0   PROC$+2
        35 007226   000000 631400 36                 EPPR1   0
        35 007227   000000 701000 xent               TSX1    Z8AE$ERROR
        35 007230   000000 011000                    NOP     0

  24575 35 007231   000245 470400 0                  LDP0    @CURRENCY_SIGN$
        35 007232   000000 471500                    LDP1    0,,PR0
        35 007233   400000 236007                    LDQ     -131072,DL
        35 007234   100000 256100                    ORSQ    0,,PR1

     1756    24584    3          RETURN;

  24584 35 007235   000244 221200 0                  LDX1  ! QLT$$+1
        35 007236   000001 702211                    TSX2  ! 1,X1

     1757    24585    3        END;
     1758    24586
     1759    24587    2      CALL Z8EC$INTERNAL_STRING_REP (CURRENCY_SIGN$, DNT$$);

  24587 35 007237   000207 236000 36                 LDQ     135
        35 007240   000245 235000 0                  LDA     @CURRENCY_SIGN$
        35 007241   001012 757000 0                  STAQ    PROC$+2
        35 007242   001012 630400 0                  EPPR0   PROC$+2
        35 007243   000025 631400 36                 EPPR1   21
        35 007244   000000 701000 xent               TSX1    Z8EC$INTERNAL_STRING_REP
        35 007245   000000 011000                    NOP     0

     1760    24588
PL6.E3A0      #001=Z8EM$SEMANTICS_DATA_DIV File=Z8EM.:Z8A6TSI                    SAT 08/09/97 12:08 Page:493
     1761    24589    2      IF CURRENCY_SIGN$ -> LX_TERMINAL.DNT$ -> DNT.TEXT.LENGTH > 3 THEN

  24589 35 007246   000245 470400 0                  LDP0    @CURRENCY_SIGN$
        35 007247   000000 471500                    LDP1    0,,PR0
        35 007250   100002 473500                    LDP3    2,,PR1
        35 007251   300004 220100                    LDX0    4,,PR3
        35 007252   000004 100003                    CMPX0   4,DU
        35 007253   007277 602000 35                 TNC     s:24627

     1762    24590    3        DO;

     1763    24591               %CONDITIONAL_ERROR (@ERROR# = %E$INVALID_CURRENCY_SIGN,
     1764    24592                                   @LX_ITEM$ = CURRENCY_SIGN$,
     1765    24593                                   @LINE   = CURRENCY_SIGN$ -> LX_TERMINAL.LINE,
     1766    24594                                   @COLUMN = CURRENCY_SIGN$ -> LX_TERMINAL.COLUMN);

  24604 35 007254   100000 236100                    LDQ     0,,PR1
        35 007255   400000 316007                    CANQ    -131072,DL
        35 007256   007275 601000 35                 TNZ     s:24624

  24606 35 007257   100006 634500                    EPPR4   6,,PR1
        35 007260   001014 454400 0                  STP4    PROC$+4
        35 007261   100005 633500                    EPPR3   5,,PR1
        35 007262   001013 453400 0                  STP3    PROC$+3
        35 007263   000204 236000 36                 LDQ     132
        35 007264   001012 756000 0                  STQ     PROC$+2
        35 007265   001012 630400 0                  EPPR0   PROC$+2
        35 007266   000000 631400 36                 EPPR1   0
        35 007267   000000 701000 xent               TSX1    Z8AE$ERROR
        35 007270   000000 011000                    NOP     0

  24615 35 007271   000245 470400 0                  LDP0    @CURRENCY_SIGN$
        35 007272   000000 471500                    LDP1    0,,PR0
        35 007273   400000 236007                    LDQ     -131072,DL
        35 007274   100000 256100                    ORSQ    0,,PR1

     1767    24624    3          RETURN;
PL6.E3A0      #001=Z8EM$SEMANTICS_DATA_DIV File=Z8EM.:Z8A6TSI                    SAT 08/09/97 12:08 Page:494

  24624 35 007275   000244 221200 0                  LDX1  ! QLT$$+1
        35 007276   000001 702211                    TSX2  ! 1,X1

     1768    24625    3        END;
     1769    24626
     1770    24627    2        CALL SEARCH (INDX,TABLE_VAL,

  24627 35 007277   000000 164500                    TCT
        35 007300   300004 600001                    ADSC9   4,,PR3                   cn=3,n=1
        35 007301   000000 000000 xsym               ARG     CURRENCY_SIGN_CHARS
        35 007302   000247 000000 0                  ARG     INDX
        35 007303   000247 235000 0                  LDA     INDX
        35 007304   000033 771000                    ARL     27
        35 007305   000250 755000 0                  STA     TABLE_VAL
        35 007306   000247 551040 0                  STBA    INDX,'40'O

     1771    24628    2                     CURRENCY_SIGN_CHARS,
     1772    24629    2                     SUBSTR(CURRENCY_SIGN$ -> LX_TERMINAL.DNT$ -> DNT.TEXT.NAME,1,1));
     1773    24630
     1774    24631    2        IF INDX ~= 1 THEN

  24631 35 007307   000247 236000 0                  LDQ     INDX
        35 007310   000001 116007                    CMPQ    1,DL
        35 007311   007335 600000 35                 TZE     s:24670

     1775    24632    3          DO;

     1776    24633                 %CONDITIONAL_ERROR (@ERROR# = %E$INVALID_CURRENCY_SIGN,
     1777    24634                                     @LX_ITEM$ = CURRENCY_SIGN$,
     1778    24635                                     @LINE   = CURRENCY_SIGN$ -> LX_TERMINAL.LINE,
     1779    24636                                     @COLUMN = CURRENCY_SIGN$ -> LX_TERMINAL.COLUMN);

  24646 35 007312   100000 236100                    LDQ     0,,PR1
        35 007313   400000 316007                    CANQ    -131072,DL
        35 007314   007333 601000 35                 TNZ     s:24666

PL6.E3A0      #001=Z8EM$SEMANTICS_DATA_DIV File=Z8EM.:Z8A6TSI                    SAT 08/09/97 12:08 Page:495
  24648 35 007315   100006 634500                    EPPR4   6,,PR1
        35 007316   001014 454400 0                  STP4    PROC$+4
        35 007317   100005 633500                    EPPR3   5,,PR1
        35 007320   001013 453400 0                  STP3    PROC$+3
        35 007321   000204 236000 36                 LDQ     132
        35 007322   001012 756000 0                  STQ     PROC$+2
        35 007323   001012 630400 0                  EPPR0   PROC$+2
        35 007324   000000 631400 36                 EPPR1   0
        35 007325   000000 701000 xent               TSX1    Z8AE$ERROR
        35 007326   000000 011000                    NOP     0

  24657 35 007327   000245 470400 0                  LDP0    @CURRENCY_SIGN$
        35 007330   000000 471500                    LDP1    0,,PR0
        35 007331   400000 236007                    LDQ     -131072,DL
        35 007332   100000 256100                    ORSQ    0,,PR1

     1780    24666    3            RETURN;

  24666 35 007333   000244 221200 0                  LDX1  ! QLT$$+1
        35 007334   000001 702211                    TSX2  ! 1,X1

     1781    24667    3          END;
     1782    24668
     1783    24669
     1784    24670    2      CURRENCY_SIGN = SUBSTR (CURRENCY_SIGN$ -> LX_TERMINAL.DNT$

  24670 35 007335   300004 236100                    LDQ     4,,PR3
        35 007336   000033 736000                    QLS     27
        35 007337   000164 276000 36                 ORQ     116
        35 007340   000251 756000 0                  STQ     CURRENCY_SIGN

     1785    24671    2                              -> DNT.TEXT.NAME,1,1);
     1786    24672
     1787    24673    2      CALL Z8DP$CURRENCY_SIGN (CURRENCY_SIGN);

  24673 35 007341   000210 630400 36                 EPPR0   136
        35 007342   000036 631400 36                 EPPR1   30
PL6.E3A0      #001=Z8EM$SEMANTICS_DATA_DIV File=Z8EM.:Z8A6TSI                    SAT 08/09/97 12:08 Page:496
        35 007343   000000 701000 xent               TSX1    Z8DP$CURRENCY_SIGN
        35 007344   000000 011000                    NOP     0

     1788    24674
     1789    24675    2   END CURRENCY_SIGN;

  24675 35 007345   000244 221200 0                  LDX1  ! QLT$$+1
        35 007346   000001 702211                    TSX2  ! 1,X1

     1790    24676        %EJECT;
PL6.E3A0      #001=Z8EM$SEMANTICS_DATA_DIV File=Z8EM.:Z8A6TSI                    SAT 08/09/97 12:08 Page:497
     1791    24677        /*===============*/
     1792    24678    1     DCL_CONST_TABLE: PROC (TABLE$);

  24678 35 007347   000252 741200 0     DCL_CONST_T* STX1  ! CURRENCY_SIGN+1

     1793    24679        /*===============*/
     1794    24680
     1795    24681    2        DCL TABLE$        PTR;
     1796    24682    2        DCL LCNST$        PTR;
     1797    24683
     1798    24684
     1799    24685             %NEW_CONST (@ST$    = TABLE$,
     1800    24686                         @TYPE   = %TYA,
     1801    24687                         @LONG_CONSTANT = TRUE);

  24691 35 007350   000002 236000 13                 LDQ     ST_+2
        35 007351   000013 036007                    ADLQ    11,DL
        35 007352   000003 116000 13                 CMPQ    ST_+3
        35 007353   007364 604000 35                 TMI     s:24693

  24692 35 007354   000102 236000 36                 LDQ     66
        35 007355   001012 756000 0                  STQ     PROC$+2
        35 007356   001012 630400 0                  EPPR0   PROC$+2
        35 007357   001013 450400 0                  STP0    PROC$+3
        35 007360   001013 630400 0                  EPPR0   PROC$+3
        35 007361   000036 631400 36                 EPPR1   30
        35 007362   000000 701000 xent               TSX1    Z8AR$RESERVER
        35 007363   000000 011000                    NOP     0

  24693 35 007364   000002 236000 13                 LDQ     ST_+2
        35 007365   000022 736000                    QLS     18
        35 007366   000001 036000 13                 ADLQ    ST_+1
        35 007367   000253 470400 0                  LDP0    @TABLE$
        35 007370   000000 756100                    STQ     0,,PR0

  24694 35 007371   000013 236007                    LDQ     11,DL
        35 007372   000002 056000 13                 ASQ     ST_+2
PL6.E3A0      #001=Z8EM$SEMANTICS_DATA_DIV File=Z8EM.:Z8A6TSI                    SAT 08/09/97 12:08 Page:498

  24697 35 007373   000000 471500                    LDP1    0,,PR0
        35 007374   000767 220003                    LDX0    503,DU
        35 007375   100000 740100                    STX0    0,,PR1

  24698 35 007376   000000 471500                    LDP1    0,,PR0
        35 007377   001000 236007                    LDQ     512,DL
        35 007400   100000 552110                    STBQ    0,'10'O,PR1

  24699 35 007401   000000 471500                    LDP1    0,,PR0
        35 007402   000126 236000 xsym               LDQ     O1COM+86
        35 007403   100000 552104                    STBQ    0,'04'O,PR1

  24700 35 007404   000000 471500                    LDP1    0,,PR0
        35 007405   000010 221003                    LDX1    8,DU
        35 007406   100002 741100                    STX1    2,,PR1

  24701 35 007407   000000 471500                    LDP1    0,,PR0
        35 007410   100003 450100                    STZ     3,,PR1

  24702 35 007411   000000 471500                    LDP1    0,,PR0
        35 007412   000024 236000 36                 LDQ     20
        35 007413   100004 756100                    STQ     4,,PR1

  24703 35 007414   000000 471500                    LDP1    0,,PR0
        35 007415   000024 236000 36                 LDQ     20
        35 007416   100005 756100                    STQ     5,,PR1

  24704 35 007417   000000 471500                    LDP1    0,,PR0
        35 007420   000024 236000 36                 LDQ     20
        35 007421   100006 756100                    STQ     6,,PR1

  24706 35 007422   000000 471500                    LDP1    0,,PR0
        35 007423   400000 236003                    LDQ     -131072,DU
        35 007424   100003 256100                    ORSQ    3,,PR1

     1802    24728
PL6.E3A0      #001=Z8EM$SEMANTICS_DATA_DIV File=Z8EM.:Z8A6TSI                    SAT 08/09/97 12:08 Page:499
     1803    24729    2        TABLE$ -> CONST.ADSC.N = 512;

  24729 35 007425   000000 471500                    LDP1    0,,PR0
        35 007426   001000 236007                    LDQ     512,DL
        35 007427   100001 752103                    STCQ    1,'03'O,PR1

     1804    24730
     1805    24731             %NEW_LCNST (@POINTER = LCNST$,
     1806    24732                         @SIZE    = "128 + 1"); /* 128 words + 1 for id */

  24734 35 007430   000201 235007                    LDA     129,DL
        35 007431   000000 755000 2                  STA     ITERATION

  24812 35 007432   000002 236000 8                  LDQ     LTS_+2
        35 007433   000000 036000 2                  ADLQ    ITERATION
        35 007434   000003 116000 8                  CMPQ    LTS_+3
        35 007435   007446 604000 35                 TMI     s:24814

  24813 35 007436   000211 236000 36                 LDQ     137
        35 007437   001012 756000 0                  STQ     PROC$+2
        35 007440   001012 631400 0                  EPPR1   PROC$+2
        35 007441   001013 451400 0                  STP1    PROC$+3
        35 007442   001013 630400 0                  EPPR0   PROC$+3
        35 007443   000036 631400 36                 EPPR1   30
        35 007444   000000 701000 xent               TSX1    Z8AR$RESERVER
        35 007445   000000 011000                    NOP     0

  24814 35 007446   000002 236000 8                  LDQ     LTS_+2
        35 007447   000022 736000                    QLS     18
        35 007450   000001 036000 8                  ADLQ    LTS_+1
        35 007451   000254 756000 0                  STQ     LCNST$

  24815 35 007452   000002 236000 8                  LDQ     LTS_+2
        35 007453   000000 036000 2                  ADLQ    ITERATION
        35 007454   000002 756000 8                  STQ     LTS_+2

  24816 35 007455   001106 220003                    LDX0    582,DU
PL6.E3A0      #001=Z8EM$SEMANTICS_DATA_DIV File=Z8EM.:Z8A6TSI                    SAT 08/09/97 12:08 Page:500
        35 007456   000254 470400 0                  LDP0    LCNST$
        35 007457   000000 740100                    STX0    0,,PR0

  24818 35 007460   000000 721000 2                  LXL1    ITERATION
        35 007461   000000 441100                    SXL1    0,,PR0

  24822 35 007462   040100 100400                    MLR     fill='040'O
        35 007463   000212 000001 36                 ADSC9   138                      cn=0,n=1
        35 007464   000001 001000                    ADSC9   1,,PR0                   cn=0,n=512

     1807    24825
     1808    24826    2        TABLE$ -> CONST.CONST$.PTR$ = LCNST$;

  24826 35 007465   000253 471400 0                  LDP1    @TABLE$
        35 007466   100000 473500                    LDP3    0,,PR1
        35 007467   000254 236000 0                  LDQ     LCNST$
        35 007470   300010 756100                    STQ     8,,PR3

     1809    24827
     1810    24828    2   END DCL_CONST_TABLE;

  24828 35 007471   000252 221200 0                  LDX1  ! CURRENCY_SIGN+1
        35 007472   000001 702211                    TSX2  ! 1,X1

     1811    24829        %EJECT;
PL6.E3A0      #001=Z8EM$SEMANTICS_DATA_DIV File=Z8EM.:Z8A6TSI                    SAT 08/09/97 12:08 Page:501
     1812    24830        /*================*/
     1813    24831    1     DML_TABLE_WRAPUP :  PROC;

  24831 35 007473   000255 741200 0     DML_TABLE_W* STX1  ! LCNST$+1

     1814    24832        /*================*/
     1815    24833
     1816    24834    2       DCL CONST_WORD  SBIN WORD;
     1817    24835    2       DCL 1 TABLE_WORD   REDEF CONST_WORD,
     1818    24836    2             2 NUMBER  UBIN(18) UNAL,
     1819    24837    2             2 MBZ     UBIN(18) UNAL;
     1820    24838    2       DCL RTN$        PTR;
     1821    24839
     1822    24840        %NEW_CONST( @ST$ = RTN$);

  24844 35 007474   000002 236000 13                 LDQ     ST_+2
        35 007475   000013 036007                    ADLQ    11,DL
        35 007476   000003 116000 13                 CMPQ    ST_+3
        35 007477   007510 604000 35                 TMI     s:24846

  24845 35 007500   000102 236000 36                 LDQ     66
        35 007501   001012 756000 0                  STQ     PROC$+2
        35 007502   001012 630400 0                  EPPR0   PROC$+2
        35 007503   001013 450400 0                  STP0    PROC$+3
        35 007504   001013 630400 0                  EPPR0   PROC$+3
        35 007505   000036 631400 36                 EPPR1   30
        35 007506   000000 701000 xent               TSX1    Z8AR$RESERVER
        35 007507   000000 011000                    NOP     0

  24846 35 007510   000002 236000 13                 LDQ     ST_+2
        35 007511   000022 736000                    QLS     18
        35 007512   000001 036000 13                 ADLQ    ST_+1
        35 007513   000257 756000 0                  STQ     RTN$

  24847 35 007514   000013 236007                    LDQ     11,DL
        35 007515   000002 056000 13                 ASQ     ST_+2

PL6.E3A0      #001=Z8EM$SEMANTICS_DATA_DIV File=Z8EM.:Z8A6TSI                    SAT 08/09/97 12:08 Page:502
  24850 35 007516   000767 220003                    LDX0    503,DU
        35 007517   000257 470400 0                  LDP0    RTN$
        35 007520   000000 740100                    STX0    0,,PR0

  24851 35 007521   001000 236007                    LDQ     512,DL
        35 007522   000000 552110                    STBQ    0,'10'O,PR0

  24852 35 007523   000126 236000 xsym               LDQ     O1COM+86
        35 007524   000000 552104                    STBQ    0,'04'O,PR0

  24853 35 007525   000001 221003                    LDX1    1,DU
        35 007526   000002 741100                    STX1    2,,PR0

  24854 35 007527   000003 450100                    STZ     3,,PR0

  24855 35 007530   000024 236000 36                 LDQ     20
        35 007531   000004 756100                    STQ     4,,PR0

  24856 35 007532   000024 236000 36                 LDQ     20
        35 007533   000005 756100                    STQ     5,,PR0

  24857 35 007534   000024 236000 36                 LDQ     20
        35 007535   000006 756100                    STQ     6,,PR0

     1823    24881    2   TABLE_WORD.NUMBER = O1COM.RVA_NUMBER;

  24881 35 007536   000072 222000 xsym               LDX2    O1COM+58
        35 007537   000256 742000 0                  STX2    CONST_WORD

     1824    24882    2   TABLE_WORD.MBZ= 0;

  24882 35 007540   000000 223003                    LDX3    0,DU
        35 007541   000256 443000 0                  SXL3    CONST_WORD

     1825    24883    2   RTN$ -> CONST.CONSTI.WORD1 = CONST_WORD;

  24883 35 007542   000256 235000 0                  LDA     CONST_WORD
PL6.E3A0      #001=Z8EM$SEMANTICS_DATA_DIV File=Z8EM.:Z8A6TSI                    SAT 08/09/97 12:08 Page:503
        35 007543   000010 755100                    STA     8,,PR0

     1826    24884
     1827    24885        %NEW_ILL (@ID = %PREOFF,
     1828    24886                  @LOP = O1COM.RVA$,
     1829    24887                  @ROP = RTN$,
     1830    24888                  @N   = 1,
     1831    24889                  @OFFSET = 0);

  25118 35 007544   000112 236000 36                 LDQ     74
        35 007545   001012 756000 0                  STQ     PROC$+2
        35 007546   001012 631400 0                  EPPR1   PROC$+2
        35 007547   001017 451400 0                  STP1    PROC$+7
        35 007550   000113 236000 36                 LDQ     75
        35 007551   001016 756000 0                  STQ     PROC$+6
        35 007552   000120 237000 36                 LDAQ    80
        35 007553   001014 757000 0                  STAQ    PROC$+4
        35 007554   001014 630400 0                  EPPR0   PROC$+4
        35 007555   000005 631400 36                 EPPR1   5
        35 007556   000000 701000 xent               TSX1    Z8AN$NEW_ILL
        35 007557   000000 011000                    NOP     0

  25122 35 007560   000000 220003                    LDX0    0,DU
        35 007561   000000 470400 5                  LDP0    ILL$
        35 007562   000000 440100                    SXL0    0,,PR0

  25127 35 007563   000001 235007                    LDA     1,DL
        35 007564   000000 470400 5                  LDP0    ILL$
        35 007565   000003 755100                    STA     3,,PR0

  25129 35 007566   000075 236000 xsym               LDQ     O1COM+61
        35 007567   000001 756100                    STQ     1,,PR0

  25130 35 007570   000257 236000 0                  LDQ     RTN$
        35 007571   000002 756100                    STQ     2,,PR0

     1832    25268    2   O1COM.RVA$ -> SCALAR.ADSC.N = (O1COM.RVA_NUMBER + 1) * 4;
PL6.E3A0      #001=Z8EM$SEMANTICS_DATA_DIV File=Z8EM.:Z8A6TSI                    SAT 08/09/97 12:08 Page:504

  25268 35 007572   000075 471400 xsym               LDP1    O1COM+61
        35 007573   000072 236000 xsym               LDQ     O1COM+58
        35 007574   777777 376003                    ANQ     -1,DU
        35 007575   000020 772000                    QRL     16
        35 007576   000004 036007                    ADLQ    4,DL
        35 007577   100001 752103                    STCQ    1,'03'O,PR1

     1833    25269                                                                  /* Word to Byte */
     1834    25270        %NEW_ILL(@ID = %PTR_SET,
     1835    25271                 @OFFSET = 8,
     1836    25272                 @LOP = O1COM.DML_IA$,
     1837    25273                 @ROP = O1COM.RVA$);

  25493 35 007600   000112 236000 36                 LDQ     74
        35 007601   001012 756000 0                  STQ     PROC$+2
        35 007602   001012 631400 0                  EPPR1   PROC$+2
        35 007603   001017 451400 0                  STP1    PROC$+7
        35 007604   000113 236000 36                 LDQ     75
        35 007605   001016 756000 0                  STQ     PROC$+6
        35 007606   000114 237000 36                 LDAQ    76
        35 007607   001014 757000 0                  STAQ    PROC$+4
        35 007610   001014 630400 0                  EPPR0   PROC$+4
        35 007611   000005 631400 36                 EPPR1   5
        35 007612   000000 701000 xent               TSX1    Z8AN$NEW_ILL
        35 007613   000000 011000                    NOP     0

  25497 35 007614   000010 220003                    LDX0    8,DU
        35 007615   000000 470400 5                  LDP0    ILL$
        35 007616   000000 440100                    SXL0    0,,PR0

  25499 35 007617   000076 236000 xsym               LDQ     O1COM+62
        35 007620   000000 470400 5                  LDP0    ILL$
        35 007621   000001 756100                    STQ     1,,PR0

  25500 35 007622   000075 236000 xsym               LDQ     O1COM+61
        35 007623   000002 756100                    STQ     2,,PR0
PL6.E3A0      #001=Z8EM$SEMANTICS_DATA_DIV File=Z8EM.:Z8A6TSI                    SAT 08/09/97 12:08 Page:505

     1838    25652
     1839    25653        %NEW_CONST( @ST$ = RTN$ );

  25657 35 007624   000002 236000 13                 LDQ     ST_+2
        35 007625   000013 036007                    ADLQ    11,DL
        35 007626   000003 116000 13                 CMPQ    ST_+3
        35 007627   007640 604000 35                 TMI     s:25659

  25658 35 007630   000102 236000 36                 LDQ     66
        35 007631   001012 756000 0                  STQ     PROC$+2
        35 007632   001012 631400 0                  EPPR1   PROC$+2
        35 007633   001013 451400 0                  STP1    PROC$+3
        35 007634   001013 630400 0                  EPPR0   PROC$+3
        35 007635   000036 631400 36                 EPPR1   30
        35 007636   000000 701000 xent               TSX1    Z8AR$RESERVER
        35 007637   000000 011000                    NOP     0

  25659 35 007640   000002 236000 13                 LDQ     ST_+2
        35 007641   000022 736000                    QLS     18
        35 007642   000001 036000 13                 ADLQ    ST_+1
        35 007643   000257 756000 0                  STQ     RTN$

  25660 35 007644   000013 236007                    LDQ     11,DL
        35 007645   000002 056000 13                 ASQ     ST_+2

  25663 35 007646   000767 220003                    LDX0    503,DU
        35 007647   000257 470400 0                  LDP0    RTN$
        35 007650   000000 740100                    STX0    0,,PR0

  25664 35 007651   001000 236007                    LDQ     512,DL
        35 007652   000000 552110                    STBQ    0,'10'O,PR0

  25665 35 007653   000126 236000 xsym               LDQ     O1COM+86
        35 007654   000000 552104                    STBQ    0,'04'O,PR0

  25666 35 007655   000001 221003                    LDX1    1,DU
PL6.E3A0      #001=Z8EM$SEMANTICS_DATA_DIV File=Z8EM.:Z8A6TSI                    SAT 08/09/97 12:08 Page:506
        35 007656   000002 741100                    STX1    2,,PR0

  25667 35 007657   000003 450100                    STZ     3,,PR0

  25668 35 007660   000024 236000 36                 LDQ     20
        35 007661   000004 756100                    STQ     4,,PR0

  25669 35 007662   000024 236000 36                 LDQ     20
        35 007663   000005 756100                    STQ     5,,PR0

  25670 35 007664   000024 236000 36                 LDQ     20
        35 007665   000006 756100                    STQ     6,,PR0

     1840    25694    2   TABLE_WORD.NUMBER = O1COM.USEP_NUMBER;

  25694 35 007666   000071 222000 xsym               LDX2    O1COM+57
        35 007667   000256 742000 0                  STX2    CONST_WORD

     1841    25695    2   TABLE_WORD.MBZ = 0;

  25695 35 007670   000000 223003                    LDX3    0,DU
        35 007671   000256 443000 0                  SXL3    CONST_WORD

     1842    25696    2   RTN$ -> CONST.CONSTI.WORD1 = CONST_WORD;

  25696 35 007672   000256 235000 0                  LDA     CONST_WORD
        35 007673   000010 755100                    STA     8,,PR0

     1843    25697
     1844    25698        %NEW_ILL ( @ID = %PREOFF,
     1845    25699                   @LOP = O1COM.USEP$,
     1846    25700                   @ROP = RTN$,
     1847    25701                   @N   = 1,
     1848    25702                   @OFFSET = 0);

  25931 35 007674   000112 236000 36                 LDQ     74
        35 007675   001012 756000 0                  STQ     PROC$+2
PL6.E3A0      #001=Z8EM$SEMANTICS_DATA_DIV File=Z8EM.:Z8A6TSI                    SAT 08/09/97 12:08 Page:507
        35 007676   001012 631400 0                  EPPR1   PROC$+2
        35 007677   001017 451400 0                  STP1    PROC$+7
        35 007700   000113 236000 36                 LDQ     75
        35 007701   001016 756000 0                  STQ     PROC$+6
        35 007702   000120 237000 36                 LDAQ    80
        35 007703   001014 757000 0                  STAQ    PROC$+4
        35 007704   001014 630400 0                  EPPR0   PROC$+4
        35 007705   000005 631400 36                 EPPR1   5
        35 007706   000000 701000 xent               TSX1    Z8AN$NEW_ILL
        35 007707   000000 011000                    NOP     0

  25935 35 007710   000000 220003                    LDX0    0,DU
        35 007711   000000 470400 5                  LDP0    ILL$
        35 007712   000000 440100                    SXL0    0,,PR0

  25940 35 007713   000001 235007                    LDA     1,DL
        35 007714   000000 470400 5                  LDP0    ILL$
        35 007715   000003 755100                    STA     3,,PR0

  25942 35 007716   000073 236000 xsym               LDQ     O1COM+59
        35 007717   000001 756100                    STQ     1,,PR0

  25943 35 007720   000257 236000 0                  LDQ     RTN$
        35 007721   000002 756100                    STQ     2,,PR0

     1849    26081    2   O1COM.USEP$ -> SCALAR.ADSC.N = (O1COM.USEP_NUMBER * 2 + 1) *4; /* Word to Byte */

  26081 35 007722   000073 471400 xsym               LDP1    O1COM+59
        35 007723   000071 236000 xsym               LDQ     O1COM+57
        35 007724   777777 376003                    ANQ     -1,DU
        35 007725   000017 772000                    QRL     15
        35 007726   000004 036007                    ADLQ    4,DL
        35 007727   100001 752103                    STCQ    1,'03'O,PR1

     1850    26082
     1851    26083        %NEW_ILL( @ID = %PTR_SET,
     1852    26084                  @OFFSET = 9,
PL6.E3A0      #001=Z8EM$SEMANTICS_DATA_DIV File=Z8EM.:Z8A6TSI                    SAT 08/09/97 12:08 Page:508
     1853    26085                  @LOP = O1COM.DML_IA$,
     1854    26086                  @ROP = O1COM.USEP$);

  26306 35 007730   000112 236000 36                 LDQ     74
        35 007731   001012 756000 0                  STQ     PROC$+2
        35 007732   001012 631400 0                  EPPR1   PROC$+2
        35 007733   001017 451400 0                  STP1    PROC$+7
        35 007734   000113 236000 36                 LDQ     75
        35 007735   001016 756000 0                  STQ     PROC$+6
        35 007736   000114 237000 36                 LDAQ    76
        35 007737   001014 757000 0                  STAQ    PROC$+4
        35 007740   001014 630400 0                  EPPR0   PROC$+4
        35 007741   000005 631400 36                 EPPR1   5
        35 007742   000000 701000 xent               TSX1    Z8AN$NEW_ILL
        35 007743   000000 011000                    NOP     0

  26310 35 007744   000011 220003                    LDX0    9,DU
        35 007745   000000 470400 5                  LDP0    ILL$
        35 007746   000000 440100                    SXL0    0,,PR0

  26312 35 007747   000076 236000 xsym               LDQ     O1COM+62
        35 007750   000000 470400 5                  LDP0    ILL$
        35 007751   000001 756100                    STQ     1,,PR0

  26313 35 007752   000073 236000 xsym               LDQ     O1COM+59
        35 007753   000002 756100                    STQ     2,,PR0

     1855    26465
     1856    26466    2   END DML_TABLE_WRAPUP;

  26466 35 007754   000255 221200 0                  LDX1  ! LCNST$+1
        35 007755   000001 702211                    TSX2  ! 1,X1

     1857    26467        %EJECT;
PL6.E3A0      #001=Z8EM$SEMANTICS_DATA_DIV File=Z8EM.:Z8A6TSI                    SAT 08/09/97 12:08 Page:509
     1858    26468        /*============*/
     1859    26469    1     DISPLAY_SIGN: PROC (SIGN$);

  26469 35 007756   000260 741200 0     DISPLAY_SIGN STX1  ! RTN$+1

     1860    26470        /*============*/
     1861    26471
     1862    26472    2        DCL SIGN$         PTR;
     1863    26473
     1864    26474
     1865    26475
     1866    26476    2        IF SIGN$ -> LX_LIST.HEAD$ -> LX_TERMINAL.SYMBOL = %RSV_WRD_LEADING THEN

  26476 35 007757   000261 470400 0                  LDP0    @SIGN$
        35 007760   000000 471500                    LDP1    0,,PR0
        35 007761   100004 473500                    LDP3    4,,PR1
        35 007762   300003 235100                    LDA     3,,PR3
        35 007763   000415 115007                    CMPA    269,DL
        35 007764   007767 601000 35                 TNZ     s:26479

     1867    26477    2          O1COM.DISPLAY_SIGN_POS = %SIGN_POS_LEADING;

  26477 35 007765   000001 236007                    LDQ     1,DL
        35 007766   000053 756000 xsym               STQ     O1COM+43

     1868    26478
     1869    26479    2        IF SIGN$ -> LX_LIST.TAIL$ -> LX_TERMINAL.SYMBOL ~= %EMPTY THEN

  26479 35 007767   000000 471500                    LDP1    0,,PR0
        35 007770   100001 473500                    LDP3    1,,PR1
        35 007771   300003 235100                    LDA     3,,PR3
        35 007772   007775 600000 35                 TZE     s:26482

     1870    26480    2          O1COM.DISPLAY_SIGN_TYPE = %SIGN_TYPE_SEPARATE;

  26480 35 007773   000001 236007                    LDQ     1,DL
        35 007774   000054 756000 xsym               STQ     O1COM+44
PL6.E3A0      #001=Z8EM$SEMANTICS_DATA_DIV File=Z8EM.:Z8A6TSI                    SAT 08/09/97 12:08 Page:510

     1871    26481
     1872    26482    2        CALL Z8ED$DISPOSE_ABSSYN_TREE (SIGN$ -> LX_LIST.HEAD$);

  26482 35 007775   000000 471500                    LDP1    0,,PR0
        35 007776   100004 633500                    EPPR3   4,,PR1
        35 007777   001012 453400 0                  STP3    PROC$+2
        35 010000   001012 630400 0                  EPPR0   PROC$+2
        35 010001   000036 631400 36                 EPPR1   30
        35 010002   000000 701000 xent               TSX1    Z8ED$DISPOSE_ABSSYN_TREE
        35 010003   000000 011000                    NOP     0

     1873    26483
     1874    26484    2   END DISPLAY_SIGN;

  26484 35 010004   000260 221200 0                  LDX1  ! RTN$+1
        35 010005   000001 702211                    TSX2  ! 1,X1

     1875    26485        %EJECT;
PL6.E3A0      #001=Z8EM$SEMANTICS_DATA_DIV File=Z8EM.:Z8A6TSI                    SAT 08/09/97 12:08 Page:511
     1876    26486        /*============*/
     1877    26487    1     END_OF_ED_DD: PROC;

  26487 35 010006   000262 741200 0     END_OF_ED_DD STX1  ! @SIGN$+1

     1878    26488        /*============*/
     1879    26489
     1880    26490    2        DCL QLT$$         PTR;
     1881    26491
     1882    26492             /*V* This procedure wraps up the divisions prior to the
     1883    26493                  procedure div. ***/
     1884    26494
     1885    26495    2        IF O1COM.CONTROL_LIST$ ~= ADDR(NIL) OR

  26495 35 010007   000102 236000 xsym               LDQ     O1COM+66
        35 010010   000024 116000 36                 CMPQ    20
        35 010011   010015 601000 35                 TNZ     s:26497
        35 010012   000103 236000 xsym               LDQ     O1COM+67
        35 010013   000024 116000 36                 CMPQ    20
        35 010014   010020 600000 35                 TZE     s:26499

     1886    26496    2           O1COM.CONTROL_NAME$ ~= ADDR(NIL) THEN
     1887    26497    2          CALL Z8DT$CONTROL_ITEMS;

  26497 35 010015   000011 631400 36                 EPPR1   9
        35 010016   000000 701000 xent               TSX1    Z8DT$CONTROL_ITEMS
        35 010017   000000 011000                    NOP     0

     1888    26498
     1889    26499    2        IF O1COM.CURRENT_REPORT_LTS$ ~= ADDR(NIL) THEN

  26499 35 010020   000064 236000 xsym               LDQ     O1COM+52
        35 010021   000024 116000 36                 CMPQ    20
        35 010022   010026 600000 35                 TZE     s:26503

     1890    26500    2          CALL Z8DT$REPORT_WRAPUP;

PL6.E3A0      #001=Z8EM$SEMANTICS_DATA_DIV File=Z8EM.:Z8A6TSI                    SAT 08/09/97 12:08 Page:512
  26500 35 010023   000011 631400 36                 EPPR1   9
        35 010024   000000 701000 xent               TSX1    Z8DT$REPORT_WRAPUP
        35 010025   000000 011000                    NOP     0

     1891    26501
     1892    26502
     1893    26503    2        IF O1COM.FIRST_PROG_QLT$ = ADDR(NIL) THEN

  26503 35 010026   000062 236000 xsym               LDQ     O1COM+50
        35 010027   000024 116000 36                 CMPQ    20
        35 010030   010034 601000 35                 TNZ     s:26510

     1894    26504               %TOP_QLT (POINTER = QLT$$);

  26506 35 010031   000000 236000 11                 LDQ     QLT_
        35 010032   000263 756000 0                  STQ     QLT$$

  26507 35 010033   010037 710000 35                 TRA     s:26512

     1895    26509    2        ELSE
     1896    26510    2          QLT$$ = O1COM.FIRST_PROG_QLT$ -> QLT.BROTHER;

  26510 35 010034   000062 470400 xsym               LDP0    O1COM+50
        35 010035   000002 236100                    LDQ     2,,PR0
        35 010036   000263 756000 0                  STQ     QLT$$

     1897    26511
     1898    26512    2        CALL Z8DA$STORAGE_ALLOCATION (QLT$$);

  26512 35 010037   000213 630400 36                 EPPR0   139
        35 010040   000036 631400 36                 EPPR1   30
        35 010041   000000 701000 xent               TSX1    Z8DA$STORAGE_ALLOCATION
        35 010042   000000 011000                    NOP     0

     1899    26513
     1900    26514             %NEW_ILL (@ID = %PEND);

PL6.E3A0      #001=Z8EM$SEMANTICS_DATA_DIV File=Z8EM.:Z8A6TSI                    SAT 08/09/97 12:08 Page:513
  26858 35 010043   000112 236000 36                 LDQ     74
        35 010044   001012 756000 0                  STQ     PROC$+2
        35 010045   001012 630400 0                  EPPR0   PROC$+2
        35 010046   001017 450400 0                  STP0    PROC$+7
        35 010047   000113 236000 36                 LDQ     75
        35 010050   001016 756000 0                  STQ     PROC$+6
        35 010051   000216 237000 36                 LDAQ    142
        35 010052   001014 757000 0                  STAQ    PROC$+4
        35 010053   001014 630400 0                  EPPR0   PROC$+4
        35 010054   000005 631400 36                 EPPR1   5
        35 010055   000000 701000 xent               TSX1    Z8AN$NEW_ILL
        35 010056   000000 011000                    NOP     0

     1901    26893
     1902    26894    2   END END_OF_ED_DD;

  26894 35 010057   000262 221200 0                  LDX1  ! @SIGN$+1
        35 010060   000001 702211                    TSX2  ! 1,X1

     1903    26895        %EJECT;
PL6.E3A0      #001=Z8EM$SEMANTICS_DATA_DIV File=Z8EM.:Z8A6TSI                    SAT 08/09/97 12:08 Page:514
     1904    26896        /*===========*/
     1905    26897    1     ENTER_VALUE: PROC (LIT$, ST$$, VALUE, NEXT_SEQ#) ALTRET;

  26897 35 010061   000264 741200 0     ENTER_VALUE  STX1  ! QLT$$+1

     1906    26898        /*===========*/
     1907    26899
     1908    26900    2        DCL ST$$          PTR;
     1909    26901    2        DCL VALUE         SBIN;
     1910    26902    2        DCL LIT$          PTR;
     1911    26903    2        DCL NEXT_SEQ#     SBIN;
     1912    26904
     1913    26905
     1914    26906    3        DO CASE (ST$$ -> ST.ID);

  26906 35 010062   000266 470400 0                  LDP0    @ST$$
        35 010063   000000 471500                    LDP1    0,,PR0
        35 010064   100000 236100                    LDQ     0,,PR1
        35 010065   000022 772000                    QRL     18
        35 010066   000757 136007                    SBLQ    495,DL
        35 010067   000005 116007                    CMPQ    5,DL
        35 010070   010072 602006 35                 TNC     s:26906+8,QL
        35 010071   010147 710000 35                 TRA     s:26927
        35 010072   010077 710000 35                 TRA     s:26908
        35 010073   010147 710000 35                 TRA     s:26927
        35 010074   010147 710000 35                 TRA     s:26927
        35 010075   010147 710000 35                 TRA     s:26927
        35 010076   010121 710000 35                 TRA     s:26917

     1915    26907    3          CASE (%CLASS);

     1916    26908    3            CALL ENTER_VALUE_IN_CLASS (ST$$, VALUE)

  26908 35 010077   000266 237000 0                  LDAQ    @ST$$
        35 010100   000272 757000 0                  STAQ    @NEXT_SEQ#+2
        35 010101   010165 701000 35                 TSX1    ENTER_VALUE_IN_CLASS
        35 010102   010104 702000 35                 TSX2    s:26911
PL6.E3A0      #001=Z8EM$SEMANTICS_DATA_DIV File=Z8EM.:Z8A6TSI                    SAT 08/09/97 12:08 Page:515
        35 010103   010120 710000 35                 TRA     s:26914

     1917    26909    3              WHENALTRETURN
     1918    26910    4                DO;

     1919    26911    4                  CALL Z8AE$ERROR (%E$ERROR_IN_ALPHABET_LITERAL,

  26911 35 010104   000265 470400 0                  LDP0    @LIT$
        35 010105   000000 471500                    LDP1    0,,PR0
        35 010106   100006 633500                    EPPR3   6,,PR1
        35 010107   001014 453400 0                  STP3    PROC$+4
        35 010110   100005 634500                    EPPR4   5,,PR1
        35 010111   001013 454400 0                  STP4    PROC$+3
        35 010112   000220 236000 36                 LDQ     144
        35 010113   001012 756000 0                  STQ     PROC$+2
        35 010114   001012 630400 0                  EPPR0   PROC$+2
        35 010115   000000 631400 36                 EPPR1   0
        35 010116   000000 701000 xent               TSX1    Z8AE$ERROR
        35 010117   000000 011000                    NOP     0

     1920    26912    4                                   LIT$ -> LX_ITEM.LINE,
     1921    26913    4                                   LIT$ -> LX_ITEM.COLUMN);
     1922    26914    4                END;

  26914 35 010120   010163 710000 35                 TRA     s:26933

     1923    26915
     1924    26916    3          CASE (%ALPHABET);

     1925    26917    3            CALL ENTER_VALUE_IN_TABLE (ST$$, VALUE, NEXT_SEQ#)

  26917 35 010121   000270 236000 0                  LDQ     @NEXT_SEQ#
        35 010122   000300 756000 0                  STQ     @VALUE+1
        35 010123   000266 237000 0                  LDAQ    @ST$$
        35 010124   000276 757000 0                  STAQ    TAB_START$+2
        35 010125   010257 701000 35                 TSX1    ENTER_VALUE_IN_TABLE
        35 010126   010130 702000 35                 TSX2    s:26920
PL6.E3A0      #001=Z8EM$SEMANTICS_DATA_DIV File=Z8EM.:Z8A6TSI                    SAT 08/09/97 12:08 Page:516
        35 010127   010146 710000 35                 TRA     s:26923+2

     1926    26918    3              WHENALTRETURN
     1927    26919    4                DO;

     1928    26920    4                  CALL Z8AE$ERROR (%E$ERROR_IN_ALPHABET_LITERAL,

  26920 35 010130   000265 470400 0                  LDP0    @LIT$
        35 010131   000000 471500                    LDP1    0,,PR0
        35 010132   100006 633500                    EPPR3   6,,PR1
        35 010133   001014 453400 0                  STP3    PROC$+4
        35 010134   100005 634500                    EPPR4   5,,PR1
        35 010135   001013 454400 0                  STP4    PROC$+3
        35 010136   000220 236000 36                 LDQ     144
        35 010137   001012 756000 0                  STQ     PROC$+2
        35 010140   001012 630400 0                  EPPR0   PROC$+2
        35 010141   000000 631400 36                 EPPR1   0
        35 010142   000000 701000 xent               TSX1    Z8AE$ERROR
        35 010143   000000 011000                    NOP     0

     1929    26921    4                                   LIT$ -> LX_ITEM.LINE,
     1930    26922    4                                   LIT$ -> LX_ITEM.COLUMN);
     1931    26923    4                  ALTRETURN;

  26923 35 010144   000264 221200 0                  LDX1  ! QLT$$+1
        35 010145   000000 702211                    TSX2  ! 0,X1
        35 010146   010163 710000 35                 TRA     s:26933

     1932    26924    4                END;
     1933    26925
     1934    26926    3          CASE (ELSE);

     1935    26927    3            CALL Z8AE$ERROR (%E$UNEXPECTED_CASE,

  26927 35 010147   000265 473400 0                  LDP3    @LIT$
        35 010150   300000 474500                    LDP4    0,,PR3
        35 010151   400006 635500                    EPPR5   6,,PR4
PL6.E3A0      #001=Z8EM$SEMANTICS_DATA_DIV File=Z8EM.:Z8A6TSI                    SAT 08/09/97 12:08 Page:517
        35 010152   001014 455400 0                  STP5    PROC$+4
        35 010153   400005 631500                    EPPR1   5,,PR4
        35 010154   001013 451400 0                  STP1    PROC$+3
        35 010155   000047 236000 36                 LDQ     39
        35 010156   001012 756000 0                  STQ     PROC$+2
        35 010157   001012 630400 0                  EPPR0   PROC$+2
        35 010160   000000 631400 36                 EPPR1   0
        35 010161   000000 701000 xent               TSX1    Z8AE$ERROR
        35 010162   000000 011000                    NOP     0

     1936    26928    3                             LIT$ -> LX_ITEM.LINE,
     1937    26929    3                             LIT$ -> LX_ITEM.COLUMN);
     1938    26930
     1939    26931    3        END; /* Case */

     1940    26932
     1941    26933    2   END ENTER_VALUE;

  26933 35 010163   000264 221200 0                  LDX1  ! QLT$$+1
        35 010164   000001 702211                    TSX2  ! 1,X1

     1942    26934        %EJECT;
PL6.E3A0      #001=Z8EM$SEMANTICS_DATA_DIV File=Z8EM.:Z8A6TSI                    SAT 08/09/97 12:08 Page:518
     1943    26935        /*====================*/
     1944    26936    1     ENTER_VALUE_IN_CLASS: PROC (CLASS$, VALUE) ALTRET;

  26936 35 010165   000271 741200 0     ENTER_VALUE* STX1  ! @NEXT_SEQ#+1

     1945    26937        /*====================*/
     1946    26938
     1947    26939    2        DCL CLASS$        PTR;
     1948    26940    2        DCL VALUE         SBIN;
     1949    26941
     1950    26942    2        DCL TAB_START$    PTR;
     1951    26943    2        DCL 1 TABLE       ALIGNED BASED,
     1952    26944    2              2 ELEMENT   (0:511) UBIN (9) UNAL;
     1953    26945
     1954    26946
     1955    26947    2        TAB_START$ = ADDR(CLASS$ -> CLASS.TABLE$ -> CONST.CONST$.PTR$ ->

  26947 35 010166   000272 470400 0                  LDP0    @CLASS$
        35 010167   000000 471500                    LDP1    0,,PR0
        35 010170   100001 473500                    LDP3    1,,PR1
        35 010171   300010 474500                    LDP4    8,,PR3
        35 010172   400001 635500                    EPPR5   1,,PR4
        35 010173   000274 455400 0                  STP5    TAB_START$

     1956    26948    2                          LCNST.CONST);
     1957    26949
     1958    26950    2        IF TAB_START$ -> TABLE.ELEMENT(VALUE) = BITBIN ('777'O) THEN

  26950 35 010174   000273 476400 0                  LDP6    @VALUE
        35 010175   600000 235100                    LDA     0,,PR6
        35 010176   000000 101505                    MRL     fill='000'O
        35 010177   500000 000001                    ADSC9   0,A,PR5                  cn=0,n=1
        35 010200   001012 000004 0                  ADSC9   PROC$+2                  cn=0,n=4
        35 010201   001012 236000 0                  LDQ     PROC$+2
        35 010202   000777 116007                    CMPQ    511,DL
        35 010203   010211 601000 35                 TNZ     s:26953

PL6.E3A0      #001=Z8EM$SEMANTICS_DATA_DIV File=Z8EM.:Z8A6TSI                    SAT 08/09/97 12:08 Page:519
     1959    26951    2          TAB_START$ -> TABLE.ELEMENT(VALUE) = BITBIN ('000'O);

  26951 35 010204   600000 235100                    LDA     0,,PR6
        35 010205   000105 101400                    MRL     fill='000'O
        35 010206   000011 000004 36                 ADSC9   9                        cn=0,n=4
        35 010207   500000 000001                    ADSC9   0,A,PR5                  cn=0,n=1
        35 010210   010212 710000 35                 TRA     s:26955

     1960    26952    2        ELSE
     1961    26953    2          ALTRETURN;

  26953 35 010211   000000 702211                    TSX2  ! 0,X1

     1962    26954
     1963    26955    2        IF COMCOM.OB.FIPS.LEVEL > 0 THEN

  26955 35 010212   000036 720000 xsym               LXL0    COMCOM+30
        35 010213   010255 604400 35                 TMOZ    s:26970

     1964    26956    2          IF VALUE > 127 THEN

  26956 35 010214   600000 235100                    LDA     0,,PR6
        35 010215   000177 115007                    CMPA    127,DL
        35 010216   010235 604400 35                 TMOZ    s:26963

     1965    26957    3            DO;

     1966    26958    3              CALL Z8AE$ERROR (%E$ALPHABET_VALUE_GTR_128,

  26958 35 010217   000000 471500                    LDP1    0,,PR0
        35 010220   000015 236000 36                 LDQ     13
        35 010221   001014 756000 0                  STQ     PROC$+4
        35 010222   001015 451400 0                  STP1    PROC$+5
        35 010223   001015 236000 0                  LDQ     PROC$+5
        35 010224   000222 036000 36                 ADLQ    146
        35 010225   000223 235000 36                 LDA     147
        35 010226   001012 757000 0                  STAQ    PROC$+2
PL6.E3A0      #001=Z8EM$SEMANTICS_DATA_DIV File=Z8EM.:Z8A6TSI                    SAT 08/09/97 12:08 Page:520
        35 010227   001012 630400 0                  EPPR0   PROC$+2
        35 010230   000000 631400 36                 EPPR1   0
        35 010231   000000 701000 xent               TSX1    Z8AE$ERROR
        35 010232   000000 011000                    NOP     0

     1967    26959    3                               CLASS$ -> CLASS.LINE_NO, 0);
     1968    26960    3              RETURN;

  26960 35 010233   000271 221200 0                  LDX1  ! @NEXT_SEQ#+1
        35 010234   000001 702211                    TSX2  ! 1,X1

     1969    26961    3            END;
     1970    26962    2        ELSE
     1971    26963    2          IF VALUE > 511 THEN

  26963 35 010235   000777 115007                    CMPA    511,DL
        35 010236   010255 604400 35                 TMOZ    s:26970

     1972    26964    3            DO;

     1973    26965    3              CALL Z8AE$ERROR (%E$ALPHABET_VALUE_GTR_512,

  26965 35 010237   000000 471500                    LDP1    0,,PR0
        35 010240   000015 236000 36                 LDQ     13
        35 010241   001014 756000 0                  STQ     PROC$+4
        35 010242   001015 451400 0                  STP1    PROC$+5
        35 010243   001015 236000 0                  LDQ     PROC$+5
        35 010244   000222 036000 36                 ADLQ    146
        35 010245   000225 235000 36                 LDA     149
        35 010246   001012 757000 0                  STAQ    PROC$+2
        35 010247   001012 630400 0                  EPPR0   PROC$+2
        35 010250   000000 631400 36                 EPPR1   0
        35 010251   000000 701000 xent               TSX1    Z8AE$ERROR
        35 010252   000000 011000                    NOP     0

     1974    26966    3                               CLASS$ -> CLASS.LINE_NO, 0);
     1975    26967    3              RETURN;
PL6.E3A0      #001=Z8EM$SEMANTICS_DATA_DIV File=Z8EM.:Z8A6TSI                    SAT 08/09/97 12:08 Page:521

  26967 35 010253   000271 221200 0                  LDX1  ! @NEXT_SEQ#+1
        35 010254   000001 702211                    TSX2  ! 1,X1

     1976    26968    3            END;
     1977    26969
     1978    26970    2   END ENTER_VALUE_IN_CLASS;

  26970 35 010255   000271 221200 0                  LDX1  ! @NEXT_SEQ#+1
        35 010256   000001 702211                    TSX2  ! 1,X1

     1979    26971        %EJECT;
PL6.E3A0      #001=Z8EM$SEMANTICS_DATA_DIV File=Z8EM.:Z8A6TSI                    SAT 08/09/97 12:08 Page:522
     1980    26972        /*====================*/
     1981    26973    1     ENTER_VALUE_IN_TABLE: PROC (ALPHA_ST$, VALUE, NEXT_SEQ#) ALTRET;

  26973 35 010257   000275 741200 0     ENTER_VALUE* STX1  ! TAB_START$+1

     1982    26974        /*====================*/
     1983    26975
     1984    26976    2   DCL TABLE$             PTR;
     1985    26977    2   DCL ALPHA_ST$          PTR;
     1986    26978    2   DCL VALUE              UBIN WORD;
     1987    26979    2   DCL NEXT_SEQ#          UBIN WORD;
     1988    26980
     1989    26981    2   DCL 1 TABLE            ALIGNED BASED,
     1990    26982    2       2 ELEMENT          (0:511) UBIN (9) UNAL;
     1991    26983    2   DCL TABLE_START$       PTR;
     1992    26984
     1993    26985
     1994    26986    2      TABLE_START$ = ALPHA_ST$ -> ALPHABET.TABLE$;

  26986 35 010260   000276 470400 0                  LDP0    @ALPHA_ST$
        35 010261   000000 471500                    LDP1    0,,PR0
        35 010262   100005 236100                    LDQ     5,,PR1
        35 010263   000302 756000 0                  STQ     TABLE_START$

     1995    26987
     1996    26988    2      IF TABLE_START$ ~= ADDR(NIL) AND

  26988 35 010264   000024 116000 36                 CMPQ    20
        35 010265   010305 600000 35                 TZE     s:26992
        35 010266   000277 473400 0                  LDP3    @VALUE
        35 010267   300000 235100                    LDA     0,,PR3
        35 010270   000302 474400 0                  LDP4    TABLE_START$
        35 010271   000000 101505                    MRL     fill='000'O
        35 010272   400000 000001                    ADSC9   0,A,PR4                  cn=0,n=1
        35 010273   001012 000004 0                  ADSC9   PROC$+2                  cn=0,n=4
        35 010274   001012 236000 0                  LDQ     PROC$+2
        35 010275   000777 116007                    CMPQ    511,DL
PL6.E3A0      #001=Z8EM$SEMANTICS_DATA_DIV File=Z8EM.:Z8A6TSI                    SAT 08/09/97 12:08 Page:523
        35 010276   010305 601000 35                 TNZ     s:26992

     1997    26989    2        TABLE_START$ -> TABLE.ELEMENT(VALUE) = BITBIN('777'O) THEN
     1998    26990    2          TABLE_START$ -> TABLE.ELEMENT(VALUE) = NEXT_SEQ#;

  26990 35 010277   300000 235100                    LDA     0,,PR3
        35 010300   000300 471400 0                  LDP1    @NEXT_SEQ#
        35 010301   000105 101500                    MRL     fill='000'O
        35 010302   100000 000004                    ADSC9   0,,PR1                   cn=0,n=4
        35 010303   400000 000001                    ADSC9   0,A,PR4                  cn=0,n=1
        35 010304   010306 710000 35                 TRA     s:26994

     1999    26991    2      ELSE
     2000    26992    2        ALTRETURN;

  26992 35 010305   000000 702211                    TSX2  ! 0,X1

     2001    26993
     2002    26994    2      IF COMCOM.OB.FIPS.LEVEL > 0 THEN

  26994 35 010306   000036 720000 xsym               LXL0    COMCOM+30
        35 010307   010351 604400 35                 TMOZ    s:27009

     2003    26995    2        IF VALUE > 127 THEN

  26995 35 010310   300000 235100                    LDA     0,,PR3
        35 010311   000200 115007                    CMPA    128,DL
        35 010312   010331 602000 35                 TNC     s:27002

     2004    26996    3          DO;

     2005    26997    3            CALL Z8AE$ERROR (%E$ALPHABET_VALUE_GTR_128,

  26997 35 010313   000000 475500                    LDP5    0,,PR0
        35 010314   000015 236000 36                 LDQ     13
        35 010315   001014 756000 0                  STQ     PROC$+4
        35 010316   001015 455400 0                  STP5    PROC$+5
PL6.E3A0      #001=Z8EM$SEMANTICS_DATA_DIV File=Z8EM.:Z8A6TSI                    SAT 08/09/97 12:08 Page:524
        35 010317   001015 236000 0                  LDQ     PROC$+5
        35 010320   000222 036000 36                 ADLQ    146
        35 010321   000223 235000 36                 LDA     147
        35 010322   001012 757000 0                  STAQ    PROC$+2
        35 010323   001012 630400 0                  EPPR0   PROC$+2
        35 010324   000000 631400 36                 EPPR1   0
        35 010325   000000 701000 xent               TSX1    Z8AE$ERROR
        35 010326   000000 011000                    NOP     0

     2006    26998    3                             ALPHA_ST$ -> ALPHABET.LINE_NO, 0);
     2007    26999    3            RETURN;

  26999 35 010327   000275 221200 0                  LDX1  ! TAB_START$+1
        35 010330   000001 702211                    TSX2  ! 1,X1

     2008    27000    3          END;
     2009    27001    2      ELSE
     2010    27002    2        IF VALUE > 511 THEN

  27002 35 010331   001000 115007                    CMPA    512,DL
        35 010332   010351 602000 35                 TNC     s:27009

     2011    27003    3          DO;

     2012    27004    3            CALL Z8AE$ERROR (%E$ALPHABET_VALUE_GTR_512,

  27004 35 010333   000000 475500                    LDP5    0,,PR0
        35 010334   000015 236000 36                 LDQ     13
        35 010335   001014 756000 0                  STQ     PROC$+4
        35 010336   001015 455400 0                  STP5    PROC$+5
        35 010337   001015 236000 0                  LDQ     PROC$+5
        35 010340   000222 036000 36                 ADLQ    146
        35 010341   000225 235000 36                 LDA     149
        35 010342   001012 757000 0                  STAQ    PROC$+2
        35 010343   001012 630400 0                  EPPR0   PROC$+2
        35 010344   000000 631400 36                 EPPR1   0
        35 010345   000000 701000 xent               TSX1    Z8AE$ERROR
PL6.E3A0      #001=Z8EM$SEMANTICS_DATA_DIV File=Z8EM.:Z8A6TSI                    SAT 08/09/97 12:08 Page:525
        35 010346   000000 011000                    NOP     0

     2013    27005    3                             ALPHA_ST$ -> ALPHABET.LINE_NO, 0);
     2014    27006    3            RETURN;

  27006 35 010347   000275 221200 0                  LDX1  ! TAB_START$+1
        35 010350   000001 702211                    TSX2  ! 1,X1

     2015    27007    3          END;
     2016    27008
     2017    27009    2      IF ALPHA_ST$ -> ALPHABET.NUM_VALUES + 1 > 512 THEN

  27009 35 010351   000000 475500                    LDP5    0,,PR0
        35 010352   500007 721100                    LXL1    7,,PR5
        35 010353   001000 101003                    CMPX1   512,DU
        35 010354   010372 602000 35                 TNC     s:27016

     2018    27010    3        DO;

     2019    27011    3          CALL Z8AE$ERROR (%E$TOO_MANY_ALPHABET_VALUES,

  27011 35 010355   000015 236000 36                 LDQ     13
        35 010356   001014 756000 0                  STQ     PROC$+4
        35 010357   001015 455400 0                  STP5    PROC$+5
        35 010360   001015 236000 0                  LDQ     PROC$+5
        35 010361   000222 036000 36                 ADLQ    146
        35 010362   000227 235000 36                 LDA     151
        35 010363   001012 757000 0                  STAQ    PROC$+2
        35 010364   001012 630400 0                  EPPR0   PROC$+2
        35 010365   000000 631400 36                 EPPR1   0
        35 010366   000000 701000 xent               TSX1    Z8AE$ERROR
        35 010367   000000 011000                    NOP     0

     2020    27012    3                           ALPHA_ST$ -> ALPHABET.LINE_NO, 0);
     2021    27013    3          RETURN;

  27013 35 010370   000275 221200 0                  LDX1  ! TAB_START$+1
PL6.E3A0      #001=Z8EM$SEMANTICS_DATA_DIV File=Z8EM.:Z8A6TSI                    SAT 08/09/97 12:08 Page:526
        35 010371   000001 702211                    TSX2  ! 1,X1

     2022    27014    3        END;
     2023    27015
     2024    27016    2      IF ALPHA_ST$ -> ALPHABET.B.SET_LOW_VALUE THEN

  27016 35 010372   500003 236100                    LDQ     3,,PR5
        35 010373   200000 316003                    CANQ    65536,DU
        35 010374   010403 600000 35                 TZE     s:27022

     2025    27017    3        DO;

     2026    27018    3          ALPHA_ST$ -> ALPHABET.B.SET_LOW_VALUE = FALSE;

  27018 35 010375   000165 236000 36                 LDQ     117
        35 010376   500003 356100                    ANSQ    3,,PR5

     2027    27019    3          ALPHA_ST$ -> ALPHABET.LOW_VALUE       = VALUE;

  27019 35 010377   000000 475500                    LDP5    0,,PR0
        35 010400   300000 236100                    LDQ     0,,PR3
        35 010401   000022 736000                    QLS     18
        35 010402   500007 552120                    STBQ    7,'20'O,PR5

     2028    27020    3        END;

     2029    27021
     2030    27022    2      ALPHA_ST$ -> ALPHABET.HIGH_VALUE = VALUE;

  27022 35 010403   000000 475500                    LDP5    0,,PR0
        35 010404   300000 236100                    LDQ     0,,PR3
        35 010405   000033 736000                    QLS     27
        35 010406   500007 552140                    STBQ    7,'40'O,PR5

     2031    27023
     2032    27024    2      IF VALUE > 255 THEN

PL6.E3A0      #001=Z8EM$SEMANTICS_DATA_DIV File=Z8EM.:Z8A6TSI                    SAT 08/09/97 12:08 Page:527
  27024 35 010407   300000 235100                    LDA     0,,PR3
        35 010410   000400 115007                    CMPA    256,DL
        35 010411   010416 602000 35                 TNC     s:27027

     2033    27025    2        ALPHA_ST$ -> ALPHABET.B.GTR_255 = TRUE;

  27025 35 010412   000000 475500                    LDP5    0,,PR0
        35 010413   100000 236003                    LDQ     32768,DU
        35 010414   500003 256100                    ORSQ    3,,PR5
        35 010415   010422 710000 35                 TRA     s:27029

     2034    27026    2      ELSE
     2035    27027    2        ALPHA_ST$ -> ALPHABET.NUM_VALUES = ALPHA_ST$ -> ALPHABET.NUM_VALUES+1;

  27027 35 010416   000000 475500                    LDP5    0,,PR0
        35 010417   500007 720100                    LXL0    7,,PR5
        35 010420   000001 621010                    EAX1    1,X0
        35 010421   500007 441100                    SXL1    7,,PR5

     2036    27028
     2037    27029    2      NEXT_SEQ# = NEXT_SEQ# + 1;

  27029 35 010422   100000 235100                    LDA     0,,PR1
        35 010423   000001 035007                    ADLA    1,DL
        35 010424   100000 755100                    STA     0,,PR1

     2038    27030
     2039    27031    2   END ENTER_VALUE_IN_TABLE;

  27031 35 010425   000275 221200 0                  LDX1  ! TAB_START$+1
        35 010426   000001 702211                    TSX2  ! 1,X1

     2040    27032        %EJECT;
PL6.E3A0      #001=Z8EM$SEMANTICS_DATA_DIV File=Z8EM.:Z8A6TSI                    SAT 08/09/97 12:08 Page:528
     2041    27033        /*====================*/
     2042    27034    1     EXTERNAL_BLOCK_CHECK : PROC (LTS$$);

  27034 35 010427   000303 741200 0     EXTERNAL_BL* STX1  ! TABLE_START$+1

     2043    27035        /*====================*/
     2044    27036
     2045    27037    2        DCL LTS$$       PTR;   /* To FILE_LTS */
     2046    27038    2        DCL BLOCK$$     PTR;   /* To Created BLOCK */
     2047    27039    2        DCL P$          PTR;
     2048    27040
     2049    27041
     2050    27042             /*
     2051    27043               Look for another FD with the same name, that is also external.
     2052    27044               If one is found, this refers to the same one, set the counts
     2053    27045               and get the hell out!
     2054    27046             */
     2055    27047
     2056    27048    2        P$ = LTS$$ -> FILE_LTS.ST$ -> FD.DNT$ -> DNT.ST$;

  27048 35 010430   000304 470400 0                  LDP0    @LTS$$
        35 010431   000000 471500                    LDP1    0,,PR0
        35 010432   100001 473500                    LDP3    1,,PR1
        35 010433   300006 474500                    LDP4    6,,PR3
        35 010434   400001 236100                    LDQ     1,,PR4
        35 010435   000306 756000 0                  STQ     P$

     2057    27049
     2058    27050    3        DO WHILE (P$ ~= ADDR(NIL));

  27050 35 010436   010455 710000 35                 TRA     s:27057

     2059    27051    3          IF P$ -> ST.ID = %FD

  27051 35 010437   000306 470400 0                  LDP0    P$
        35 010440   000000 220100                    LDX0    0,,PR0
        35 010441   001002 100003                    CMPX0   514,DU
PL6.E3A0      #001=Z8EM$SEMANTICS_DATA_DIV File=Z8EM.:Z8A6TSI                    SAT 08/09/97 12:08 Page:529
        35 010442   010453 601000 35                 TNZ     s:27056
        35 010443   000304 471400 0                  LDP1    @LTS$$
        35 010444   100000 473500                    LDP3    0,,PR1
        35 010445   000306 236000 0                  LDQ     P$
        35 010446   300001 116100                    CMPQ    1,,PR3
        35 010447   010453 600000 35                 TZE     s:27056

     2060    27052    3          AND P$ ~= LTS$$ -> FILE_LTS.ST$ THEN
     2061    27053    3            IF P$ -> FD.B.EXTERNAL THEN

  27053 35 010450   000003 236100                    LDQ     3,,PR0
        35 010451   000004 316003                    CANQ    4,DU
        35 010452   010457 601000 35                 TNZ     s:27059

     2062    27054    3              EXIT;
     2063    27055
     2064    27056    3          P$ = P$ -> ST.NEXT;

  27056 35 010453   000004 236100                    LDQ     4,,PR0
        35 010454   000306 756000 0                  STQ     P$

     2065    27057    3        END;

  27057 35 010455   000024 116000 36                 CMPQ    20
        35 010456   010437 601000 35                 TNZ     s:27051

     2066    27058
     2067    27059    2        IF P$ ~= ADDR(NIL) THEN

  27059 35 010457   000306 236000 0                  LDQ     P$
        35 010460   000024 116000 36                 CMPQ    20
        35 010461   010476 600000 35                 TZE     s:27072

     2068    27060    3          DO;

     2069    27061                 /* A file like it was found */
     2070    27062    3            LTS$$ -> FILE_LTS.ST$ -> FD.COUNT = P$ -> FD.COUNT;
PL6.E3A0      #001=Z8EM$SEMANTICS_DATA_DIV File=Z8EM.:Z8A6TSI                    SAT 08/09/97 12:08 Page:530

  27062 35 010462   000304 470400 0                  LDP0    @LTS$$
        35 010463   000000 471500                    LDP1    0,,PR0
        35 010464   100001 473500                    LDP3    1,,PR1
        35 010465   000306 474400 0                  LDP4    P$
        35 010466   400000 236100                    LDQ     0,,PR4
        35 010467   300000 552104                    STBQ    0,'04'O,PR3

     2071    27063    3            LTS$$ -> FILE_LTS.ST$ -> FD.B.ALLOCATED = TRUE;

  27063 35 010470   000000 471500                    LDP1    0,,PR0
        35 010471   100001 473500                    LDP3    1,,PR1
        35 010472   000001 236003                    LDQ     1,DU
        35 010473   300003 256100                    ORSQ    3,,PR3

     2072    27064    3            RETURN;

  27064 35 010474   000303 221200 0                  LDX1  ! TABLE_START$+1
        35 010475   000001 702211                    TSX2  ! 1,X1

     2073    27065    3          END;
     2074    27066
     2075    27067             %NEW_BLOCK (@ST$   = BLOCK$$,
     2076    27068                         @DNT$  = LTS$$ -> FILE_LTS.ST$ -> FD.DNT$);

  27072 35 010476   000002 236000 13                 LDQ     ST_+2
        35 010477   000013 036007                    ADLQ    11,DL
        35 010500   000003 116000 13                 CMPQ    ST_+3
        35 010501   010512 604000 35                 TMI     s:27074

  27073 35 010502   000102 236000 36                 LDQ     66
        35 010503   001012 756000 0                  STQ     PROC$+2
        35 010504   001012 630400 0                  EPPR0   PROC$+2
        35 010505   001013 450400 0                  STP0    PROC$+3
        35 010506   001013 630400 0                  EPPR0   PROC$+3
        35 010507   000036 631400 36                 EPPR1   30
        35 010510   000000 701000 xent               TSX1    Z8AR$RESERVER
PL6.E3A0      #001=Z8EM$SEMANTICS_DATA_DIV File=Z8EM.:Z8A6TSI                    SAT 08/09/97 12:08 Page:531
        35 010511   000000 011000                    NOP     0

  27074 35 010512   000002 236000 13                 LDQ     ST_+2
        35 010513   000022 736000                    QLS     18
        35 010514   000001 036000 13                 ADLQ    ST_+1
        35 010515   000305 756000 0                  STQ     BLOCK$$

  27075 35 010516   000013 236007                    LDQ     11,DL
        35 010517   000002 056000 13                 ASQ     ST_+2

  27079 35 010520   000144 054000 xsym               AOS     COMCOM+100

  27080 35 010521   000305 470400 0                  LDP0    BLOCK$$
        35 010522   000144 236000 xsym               LDQ     COMCOM+100
        35 010523   000000 552104                    STBQ    0,'04'O,PR0

  27082 35 010524   000305 236000 0                  LDQ     BLOCK$$
        35 010525   000004 471400 xsym               LDP1    O1COM+4
        35 010526   100004 756100                    STQ     4,,PR1

  27083 35 010527   000004 756000 xsym               STQ     O1COM+4

  27088 35 010530   000774 220003                    LDX0    508,DU
        35 010531   000000 740100                    STX0    0,,PR0

  27089 35 010532   003000 236007                    LDQ     1536,DL
        35 010533   000000 552110                    STBQ    0,'10'O,PR0

  27090 35 010534   000000 221003                    LDX1    0,DU
        35 010535   000002 741100                    STX1    2,,PR0

  27091 35 010536   000133 722000 xsym               LXL2    COMCOM+91
        35 010537   000002 442100                    SXL2    2,,PR0

  27092 35 010540   000003 450100                    STZ     3,,PR0

  27093 35 010541   000024 236000 36                 LDQ     20
PL6.E3A0      #001=Z8EM$SEMANTICS_DATA_DIV File=Z8EM.:Z8A6TSI                    SAT 08/09/97 12:08 Page:532
        35 010542   000004 756100                    STQ     4,,PR0

  27094 35 010543   000304 471400 0                  LDP1    @LTS$$
        35 010544   100000 473500                    LDP3    0,,PR1
        35 010545   300001 474500                    LDP4    1,,PR3
        35 010546   400006 236100                    LDQ     6,,PR4
        35 010547   000006 756100                    STQ     6,,PR0

  27095 35 010550   000024 236000 36                 LDQ     20
        35 010551   000007 756100                    STQ     7,,PR0

  27105 35 010552   000024 236000 36                 LDQ     20
        35 010553   000012 756100                    STQ     10,,PR0

  27108 35 010554   000057 236000 xsym               LDQ     O1COM+47
        35 010555   000011 756100                    STQ     9,,PR0

  27109 35 010556   000057 236000 xsym               LDQ     O1COM+47
        35 010557   000024 116000 36                 CMPQ    20
        35 010560   010602 600000 35                 TZE     s:27146

  27113 35 010561   000057 473400 xsym               LDP3    O1COM+47
        35 010562   300001 474500                    LDP4    1,,PR3
        35 010563   400012 236100                    LDQ     10,,PR4
        35 010564   000024 116000 36                 CMPQ    20
        35 010565   010574 601000 35                 TNZ     s:27120

  27115 35 010566   000305 236000 0                  LDQ     BLOCK$$
        35 010567   400011 756100                    STQ     9,,PR4

  27116 35 010570   000057 473400 xsym               LDP3    O1COM+47
        35 010571   300001 474500                    LDP4    1,,PR3
        35 010572   400012 756100                    STQ     10,,PR4

  27117 35 010573   010602 710000 35                 TRA     s:27146

  27120 35 010574   400012 475500                    LDP5    10,,PR4
PL6.E3A0      #001=Z8EM$SEMANTICS_DATA_DIV File=Z8EM.:Z8A6TSI                    SAT 08/09/97 12:08 Page:533
        35 010575   000305 236000 0                  LDQ     BLOCK$$
        35 010576   500012 756100                    STQ     10,,PR5

  27121 35 010577   000057 473400 xsym               LDP3    O1COM+47
        35 010600   300001 474500                    LDP4    1,,PR3
        35 010601   400012 756100                    STQ     10,,PR4

     2077    27145
     2078    27146    2        LTS$$ -> FILE_LTS.ST$ -> FD.COUNT = BLOCK$$ -> BLOCK.COUNT;

  27146 35 010602   100000 473500                    LDP3    0,,PR1
        35 010603   300001 474500                    LDP4    1,,PR3
        35 010604   000000 236100                    LDQ     0,,PR0
        35 010605   400000 552104                    STBQ    0,'04'O,PR4

     2079    27147
     2080    27148    2   END EXTERNAL_BLOCK_CHECK;

  27148 35 010606   000303 221200 0                  LDX1  ! TABLE_START$+1
        35 010607   000001 702211                    TSX2  ! 1,X1

     2081    27149        %EJECT;
PL6.E3A0      #001=Z8EM$SEMANTICS_DATA_DIV File=Z8EM.:Z8A6TSI                    SAT 08/09/97 12:08 Page:534
     2082    27150        /*==================*/
     2083    27151    1     EXTRACT_#_FROM_DNT: PROC (DNT$$, RETURN#);

  27151 35 010610   000307 741200 0     EXTRACT_#_F* STX1  ! P$+1

     2084    27152        /*==================*/
     2085    27153
     2086    27154    2   DCL DNT$$              PTR;
     2087    27155    2   DCL RETURN#            SBIN WORD;
     2088    27156
     2089    27157    3      DO CASE (DNT$$ -> DNT.RW_NO);

  27157 35 010611   000310 470400 0                  LDP0    @DNT$$
        35 010612   000000 471500                    LDP1    0,,PR0
        35 010613   100003 236100                    LDQ     3,,PR1
        35 010614   777777 376007                    ANQ     -1,DL
        35 010615   000675 136007                    SBLQ    445,DL
        35 010616   000001 116007                    CMPQ    1,DL
        35 010617   010621 602006 35                 TNC     s:27157+8,QL
        35 010620   010631 710000 35                 TRA     s:27163
        35 010621   010622 710000 35                 TRA     s:27160

     2090    27158
     2091    27159    3        CASE(%RSV_WRD_SWITCH);

     2092    27160    3          CALL CHARBIN ( RETURN#, SUBSTR (DNT$$ -> DNT.TEXT.NAME,7) );

  27160 35 010622   100004 220100                    LDX0    4,,PR1
        35 010623   777771 622010                    EAX2    -7,X0
        35 010624   000311 473400 0                  LDP3    @RETURN#
        35 010625   000100 305540                    DTB
        35 010626   100006 230012                    NDSC9   6,,PR1                   cn=1,s=nosgn,sf=0,n=*X2
        35 010627   300000 000004                    NDSC9   0,,PR3                   cn=0,s=lsgnf,sf=0,n=4
        35 010630   010635 710000 35                 TRA     s:27167

     2093    27161
     2094    27162    3        CASE(ELSE); /* Channel numbers ? */
PL6.E3A0      #001=Z8EM$SEMANTICS_DATA_DIV File=Z8EM.:Z8A6TSI                    SAT 08/09/97 12:08 Page:535

     2095    27163    3          CALL Z8AE$ERROR (%E$UNEXPECTED_CASE);

  27163 35 010631   000047 630400 36                 EPPR0   39
        35 010632   000036 631400 36                 EPPR1   30
        35 010633   000000 701000 xent               TSX1    Z8AE$ERROR
        35 010634   000000 011000                    NOP     0

     2096    27164
     2097    27165    3      END; /* Case */

     2098    27166
     2099    27167    2   END EXTRACT_#_FROM_DNT;

  27167 35 010635   000307 221200 0                  LDX1  ! P$+1
        35 010636   000001 702211                    TSX2  ! 1,X1

     2100    27168        %EJECT;
PL6.E3A0      #001=Z8EM$SEMANTICS_DATA_DIV File=Z8EM.:Z8A6TSI                    SAT 08/09/97 12:08 Page:536
     2101    27169        /*===========*/
     2102    27170    1     FD_SD_START: PROC (KEYWORD$, FILE$);

  27170 35 010637   000312 741200 0     FD_SD_START  STX1  ! @RETURN#+1

     2103    27171        /*===========*/
     2104    27172
     2105    27173    2        DCL KEYWORD$             PTR;
     2106    27174    2        DCL FILE$                PTR;
     2107    27175
     2108    27176
     2109    27177    2        IF KEYWORD$ -> LX_TERMINAL.SYMBOL = %RSV_WRD_FD THEN

  27177 35 010640   000313 470400 0                  LDP0    @KEYWORD$
        35 010641   000000 471500                    LDP1    0,,PR0
        35 010642   100003 235100                    LDA     3,,PR1
        35 010643   000313 115007                    CMPA    203,DL
        35 010644   010664 601000 35                 TNZ     s:27189

     2110    27178    3          DO;

     2111    27179    3            CALL FD_START (FILE$);

  27179 35 010645   000314 236000 0                  LDQ     @FILE$
        35 010646   000316 756000 0                  STQ     @FILE$+2
        35 010647   010711 701000 35                 TSX1    FD_START
        35 010650   000000 011000                    NOP     0

     2112    27180
     2113    27181
     2114    27182    3            IF O1COM.CURRENT_FILE_LTS$ -> FILE_LTS.ORGANIZATION = %NOT_SPECIFIED THEN

  27182 35 010651   000045 470400 xsym               LDP0    O1COM+37
        35 010652   000006 235100                    LDA     6,,PR0
        35 010653   010656 601000 35                 TNZ     s:27185

     2115    27183    3              O1COM.CURRENT_FILE_LTS$ -> FILE_LTS.ORGANIZATION = %SEQUENTIAL;
PL6.E3A0      #001=Z8EM$SEMANTICS_DATA_DIV File=Z8EM.:Z8A6TSI                    SAT 08/09/97 12:08 Page:537

  27183 35 010654   000001 236007                    LDQ     1,DL
        35 010655   000006 756100                    STQ     6,,PR0

     2116    27184
     2117    27185    3            IF O1COM.CURRENT_FILE_LTS$ -> FILE_LTS.ACCESS_MODE = %NOT_SPECIFIED THEN

  27185 35 010656   000045 470400 xsym               LDP0    O1COM+37
        35 010657   000011 235100                    LDA     9,,PR0
        35 010660   010707 601000 35                 TNZ     s:27196

     2118    27186    3              O1COM.CURRENT_FILE_LTS$ -> FILE_LTS.ACCESS_MODE = %SEQUENTIAL_ACCESS;

  27186 35 010661   000001 236007                    LDQ     1,DL
        35 010662   000011 756100                    STQ     9,,PR0

     2119    27187    3          END;

  27187 35 010663   010707 710000 35                 TRA     s:27196

     2120    27188    3        ELSE DO;

     2121    27189    3          CALL SD_START (FILE$);

  27189 35 010664   000314 236000 0                  LDQ     @FILE$
        35 010665   000703 756000 0                  STQ     DEFERED_ID$+2
        35 010666   030631 701000 35                 TSX1    SD_START
        35 010667   000000 011000                    NOP     0

     2122    27190    3          IF COMCOM.OB.FIPS.LEVEL = %LOW_LEV THEN

  27190 35 010670   000036 720000 xsym               LXL0    COMCOM+30
        35 010671   000003 100003                    CMPX0   3,DU
        35 010672   010707 601000 35                 TNZ     s:27196

     2123    27191    3            CALL Z8AE$ERROR (%E$LEVEL_CHECK,

PL6.E3A0      #001=Z8EM$SEMANTICS_DATA_DIV File=Z8EM.:Z8A6TSI                    SAT 08/09/97 12:08 Page:538
  27191 35 010673   000313 470400 0                  LDP0    @KEYWORD$
        35 010674   000000 471500                    LDP1    0,,PR0
        35 010675   100006 633500                    EPPR3   6,,PR1
        35 010676   001014 453400 0                  STP3    PROC$+4
        35 010677   100005 634500                    EPPR4   5,,PR1
        35 010700   001013 454400 0                  STP4    PROC$+3
        35 010701   000004 236000 36                 LDQ     4
        35 010702   001012 756000 0                  STQ     PROC$+2
        35 010703   001012 630400 0                  EPPR0   PROC$+2
        35 010704   000000 631400 36                 EPPR1   0
        35 010705   000000 701000 xent               TSX1    Z8AE$ERROR
        35 010706   000000 011000                    NOP     0

     2124    27192    3                             KEYWORD$ -> LX_ITEM.LINE,
     2125    27193    3                             KEYWORD$ -> LX_ITEM.COLUMN);
     2126    27194    3        END;

     2127    27195
     2128    27196    2   END FD_SD_START;

  27196 35 010707   000312 221200 0                  LDX1  ! @RETURN#+1
        35 010710   000001 702211                    TSX2  ! 1,X1

     2129    27197        %EJECT;
PL6.E3A0      #001=Z8EM$SEMANTICS_DATA_DIV File=Z8EM.:Z8A6TSI                    SAT 08/09/97 12:08 Page:539
     2130    27198        /*========*/
     2131    27199    1     FD_START: PROC (FILE$);

  27199 35 010711   000315 741200 0     FD_START     STX1  ! @FILE$+1

     2132    27200        /*========*/
     2133    27201
     2134    27202    2        DCL FILE$         PTR;
     2135    27203    2        DCL ST$$          PTR;
     2136    27204
     2137    27205
     2138    27206    2        O1COM.DATA_DECL_CONTEXT = %FILE_DESCRIPTION;

  27206 35 010712   000001 235007                    LDA     1,DL
        35 010713   000015 755000 xsym               STA     O1COM+13

     2139    27207
     2140    27208    2        CALL Z8DO$QUALIFY_TERMINAL (FILE$, ST$$)

  27208 35 010714   000230 236000 36                 LDQ     152
        35 010715   000316 235000 0                  LDA     @FILE$
        35 010716   001012 757000 0                  STAQ    PROC$+2
        35 010717   001012 630400 0                  EPPR0   PROC$+2
        35 010720   000025 631400 36                 EPPR1   21
        35 010721   000000 701000 xent               TSX1    Z8DO$QUALIFY_TERMINAL
        35 010722   010724 702000 35                 TSX2    s:27211
        35 010723   010754 710000 35                 TRA     s:27220

     2141    27209    2          WHENALTRETURN
     2142    27210    3            DO;

     2143    27211    3              CALL FIND_FILE (FILE$, ST$$)

  27211 35 010724   000230 236000 36                 LDQ     152
        35 010725   000326 756000 0                  STQ     @FILE$+1
        35 010726   000316 236000 0                  LDQ     @FILE$
        35 010727   000325 756000 0                  STQ     TOKEN$+2
PL6.E3A0      #001=Z8EM$SEMANTICS_DATA_DIV File=Z8EM.:Z8A6TSI                    SAT 08/09/97 12:08 Page:540
        35 010730   011363 701000 35                 TSX1    FIND_FILE
        35 010731   010733 702000 35                 TSX2    s:27214
        35 010732   010754 710000 35                 TRA     s:27220

     2144    27212    3                WHENALTRETURN
     2145    27213    4                  DO;

     2146    27214    4                    CALL NEW_FILE (FILE$, ST$$);

  27214 35 010733   000230 236000 36                 LDQ     152
        35 010734   000412 756000 0                  STQ     @FILE$+1
        35 010735   000316 236000 0                  LDQ     @FILE$
        35 010736   000411 756000 0                  STQ     TABLE$+2
        35 010737   013772 701000 35                 TSX1    NEW_FILE
        35 010740   000000 011000                    NOP     0

     2147    27215
     2148    27216    4                    CALL Z9EM$ASSIGN_RECOVERY (ST$$ -> FD.LTS$ -> FILE_LTS.ASSIGN$,
             27216                             ST$$ -> FD.DNT$);

  27216 35 010741   000317 470400 0                  LDP0    ST$$
        35 010742   000005 471500                    LDP1    5,,PR0
        35 010743   000317 236000 0                  LDQ     ST$$
        35 010744   000006 036003                    ADLQ    6,DU
        35 010745   001013 756000 0                  STQ     PROC$+3
        35 010746   100004 633500                    EPPR3   4,,PR1
        35 010747   001012 453400 0                  STP3    PROC$+2
        35 010750   001012 630400 0                  EPPR0   PROC$+2
        35 010751   000025 631400 36                 EPPR1   21
        35 010752   000000 701000 xent               TSX1    Z9EM$ASSIGN_RECOVERY
        35 010753   000000 011000                    NOP     0

     2149    27217    4                  END;

     2150    27218    3            END;

     2151    27219
PL6.E3A0      #001=Z8EM$SEMANTICS_DATA_DIV File=Z8EM.:Z8A6TSI                    SAT 08/09/97 12:08 Page:541
     2152    27220    3        DO CASE (ST$$ -> ST.ID);

  27220 35 010754   000317 470400 0                  LDP0    ST$$
        35 010755   000000 236100                    LDQ     0,,PR0
        35 010756   000022 772000                    QRL     18
        35 010757   001002 136007                    SBLQ    514,DL
        35 010760   000004 116007                    CMPQ    4,DL
        35 010761   010763 602006 35                 TNC     s:27220+7,QL
        35 010762   010767 710000 35                 TRA     s:27245
        35 010763   011035 710000 35                 TRA     s:27270
        35 010764   011035 710000 35                 TRA     s:27270
        35 010765   010767 710000 35                 TRA     s:27245
        35 010766   011035 710000 35                 TRA     s:27270

     2153    27221    3          CASE (

     2154    27222                     %SET_OF_FILE_DESCRIPTIONS;
     2155    27227    3               );
     2156    27228                 /* ALL OK */
     2157    27229
     2158    27230    3          CASE(ELSE);

     2159    27231                 %CONDITIONAL_ERROR (@LX_ITEM$ = FILE$,
     2160    27232                                     @ERROR#   = %E$FILE_NOT_SELECTED,
     2161    27233                                     @LINE     = FILE$ -> LX_TERMINAL.LINE,
     2162    27234                                     @COLUMN   = FILE$ -> LX_TERMINAL.COLUMN,
     2163    27235                                     @PLUG1    = FILE$ -> LX_TERMINAL.DNT$);

  27245 35 010767   000316 471400 0                  LDP1    @FILE$
        35 010770   100000 473500                    LDP3    0,,PR1
        35 010771   300000 236100                    LDQ     0,,PR3
        35 010772   400000 316007                    CANQ    -131072,DL
        35 010773   011014 601000 35                 TNZ     s:27266

  27247 35 010774   300002 634500                    EPPR4   2,,PR3
        35 010775   001015 454400 0                  STP4    PROC$+5
        35 010776   300006 635500                    EPPR5   6,,PR3
PL6.E3A0      #001=Z8EM$SEMANTICS_DATA_DIV File=Z8EM.:Z8A6TSI                    SAT 08/09/97 12:08 Page:542
        35 010777   001014 455400 0                  STP5    PROC$+4
        35 011000   300005 636500                    EPPR6   5,,PR3
        35 011001   001013 456400 0                  STP6    PROC$+3
        35 011002   000232 236000 36                 LDQ     154
        35 011003   001012 756000 0                  STQ     PROC$+2
        35 011004   001012 630400 0                  EPPR0   PROC$+2
        35 011005   000005 631400 36                 EPPR1   5
        35 011006   000000 701000 xent               TSX1    Z8AE$ERROR
        35 011007   000000 011000                    NOP     0

  27256 35 011010   000316 470400 0                  LDP0    @FILE$
        35 011011   000000 471500                    LDP1    0,,PR0
        35 011012   400000 236007                    LDQ     -131072,DL
        35 011013   100000 256100                    ORSQ    0,,PR1

     2164    27265
     2165    27266    3            CALL NEW_FILE (FILE$, ST$$);

  27266 35 011014   000230 236000 36                 LDQ     152
        35 011015   000412 756000 0                  STQ     @FILE$+1
        35 011016   000316 236000 0                  LDQ     @FILE$
        35 011017   000411 756000 0                  STQ     TABLE$+2
        35 011020   013772 701000 35                 TSX1    NEW_FILE
        35 011021   000000 011000                    NOP     0

     2166    27267    3           CALL Z9EM$ASSIGN_RECOVERY (ST$$ -> FD.LTS$ -> FILE_LTS.ASSIGN$, ST$$ -> FD.
             27267                     DNT$);

  27267 35 011022   000317 470400 0                  LDP0    ST$$
        35 011023   000005 471500                    LDP1    5,,PR0
        35 011024   000317 236000 0                  LDQ     ST$$
        35 011025   000006 036003                    ADLQ    6,DU
        35 011026   001013 756000 0                  STQ     PROC$+3
        35 011027   100004 633500                    EPPR3   4,,PR1
        35 011030   001012 453400 0                  STP3    PROC$+2
        35 011031   001012 630400 0                  EPPR0   PROC$+2
        35 011032   000025 631400 36                 EPPR1   21
PL6.E3A0      #001=Z8EM$SEMANTICS_DATA_DIV File=Z8EM.:Z8A6TSI                    SAT 08/09/97 12:08 Page:543
        35 011033   000000 701000 xent               TSX1    Z9EM$ASSIGN_RECOVERY
        35 011034   000000 011000                    NOP     0

     2167    27268    3        END; /* Case */

     2168    27269
     2169    27270    2        IF ST$$ -> FD.QLT$ -> QLT.SON -> QLT.BROTHER ~= ADDR(NIL)

  27270 35 011035   000317 470400 0                  LDP0    ST$$
        35 011036   000007 471500                    LDP1    7,,PR0
        35 011037   100003 473500                    LDP3    3,,PR1
        35 011040   300002 236100                    LDQ     2,,PR3
        35 011041   000024 116000 36                 CMPQ    20
        35 011042   011047 601000 35                 TNZ     s:27286
        35 011043   000005 474500                    LDP4    5,,PR0
        35 011044   400040 236100                    LDQ     32,,PR4
        35 011045   000024 116000 36                 CMPQ    20
        35 011046   011100 600000 35                 TZE     s:27310

     2170    27271    2            OR ST$$ -> FD.LTS$ -> FILE_LTS.REPORT$ ~= ADDR(NIL) THEN
     2171    27272    3          DO;

     2172    27273                 %CONDITIONAL_ERROR (@LX_ITEM$ = FILE$,
     2173    27274                                     @ERROR#   = %E$FD_ALREADY_EXISTS,
     2174    27275                                     @LINE     = FILE$ -> LX_ITEM.LINE,
     2175    27276                                     @COLUMN   = FILE$ -> LX_ITEM.COLUMN);

  27286 35 011047   000316 474400 0                  LDP4    @FILE$
        35 011050   400000 475500                    LDP5    0,,PR4
        35 011051   500000 236100                    LDQ     0,,PR5
        35 011052   400000 316007                    CANQ    -131072,DL
        35 011053   011072 601000 35                 TNZ     s:27306

  27288 35 011054   500006 636500                    EPPR6   6,,PR5
        35 011055   001014 456400 0                  STP6    PROC$+4
        35 011056   500005 631500                    EPPR1   5,,PR5
        35 011057   001013 451400 0                  STP1    PROC$+3
PL6.E3A0      #001=Z8EM$SEMANTICS_DATA_DIV File=Z8EM.:Z8A6TSI                    SAT 08/09/97 12:08 Page:544
        35 011060   000234 236000 36                 LDQ     156
        35 011061   001012 756000 0                  STQ     PROC$+2
        35 011062   001012 630400 0                  EPPR0   PROC$+2
        35 011063   000000 631400 36                 EPPR1   0
        35 011064   000000 701000 xent               TSX1    Z8AE$ERROR
        35 011065   000000 011000                    NOP     0

  27297 35 011066   000316 470400 0                  LDP0    @FILE$
        35 011067   000000 471500                    LDP1    0,,PR0
        35 011070   400000 236007                    LDQ     -131072,DL
        35 011071   100000 256100                    ORSQ    0,,PR1

     2176    27306    3            ST$$ -> FD.LTS$ -> FILE_LTS.ORGANIZATION = %NOT_SPECIFIED;

  27306 35 011072   000317 470400 0                  LDP0    ST$$
        35 011073   000005 471500                    LDP1    5,,PR0
        35 011074   100006 450100                    STZ     6,,PR1

     2177    27307    3            ST$$ -> FD.LTS$ -> FILE_LTS.ACCESS_MODE = %NOT_SPECIFIED;

  27307 35 011075   000317 470400 0                  LDP0    ST$$
        35 011076   000005 471500                    LDP1    5,,PR0
        35 011077   100011 450100                    STZ     9,,PR1

     2178    27308    3          END;

     2179    27309
     2180    27310    2        O1COM.CURRENT_FILE_LTS$ = ST$$ -> FD.LTS$;

  27310 35 011100   000317 470400 0                  LDP0    ST$$
        35 011101   000005 236100                    LDQ     5,,PR0
        35 011102   000045 756000 xsym               STQ     O1COM+37

     2181    27311    2        O1COM.LEVEL_NO = 0;

  27311 35 011103   000005 450000 xsym               STZ     O1COM+5

PL6.E3A0      #001=Z8EM$SEMANTICS_DATA_DIV File=Z8EM.:Z8A6TSI                    SAT 08/09/97 12:08 Page:545
     2182    27312
     2183    27313    2   END FD_START;

  27313 35 011104   000315 221200 0                  LDX1  ! @FILE$+1
        35 011105   000001 702211                    TSX2  ! 1,X1

     2184    27314        %EJECT;
PL6.E3A0      #001=Z8EM$SEMANTICS_DATA_DIV File=Z8EM.:Z8A6TSI                    SAT 08/09/97 12:08 Page:546
     2185    27315        /*========*/
     2186    27316    1     FILE_ORG: PROC (ORG$, ORGANIZATION);

  27316 35 011106   000320 741200 0     FILE_ORG     STX1  ! ST$$+1

     2187    27317        /*========*/
     2188    27318
     2189    27319    2        DCL ORG$          PTR;
     2190    27320    2        DCL ORGANIZATION  SBIN WORD;
     2191    27321    2        DCL TOKEN$        PTR; /* Token at which level check warning desired */
     2192    27322
     2193    27323             /* Functions performed:
     2194    27324                 1. Check for multiple ORGANIZATION clauses
     2195    27325                 2. Check for organization - level conflicts.
     2196    27326             */
     2197    27327
     2198    27328
     2199    27329    2        IF O1COM.CURRENT_FILE_LTS$ -> FILE_LTS.ORGANIZATION ~= %NOT_SPECIFIED THEN

  27329 35 011107   000045 470400 xsym               LDP0    O1COM+37
        35 011110   000006 235100                    LDA     6,,PR0
        35 011111   011141 600000 35                 TZE     s:27369

     2200    27330    3          DO;

     2201    27331                 %CONDITIONAL_ERROR (@LX_ITEM$ = ORG$,
     2202    27332                            @ERROR#   = %E$DUP_DD_CLAUSE,
     2203    27333                            @LINE     = ORG$ -> LX_TERMINAL.LINE,
     2204    27334                            @COLUMN   = ORG$ -> LX_TERMINAL.COLUMN,
     2205    27335                            @PLUG1    = "DNT$_FROM_RSWNO(%RSV_WRD_ORGANIZATION)");

  27345 35 011112   000321 471400 0                  LDP1    @ORG$
        35 011113   100000 473500                    LDP3    0,,PR1
        35 011114   300000 236100                    LDQ     0,,PR3
        35 011115   400000 316007                    CANQ    -131072,DL
        35 011116   011137 601000 35                 TNZ     s:27366

PL6.E3A0      #001=Z8EM$SEMANTICS_DATA_DIV File=Z8EM.:Z8A6TSI                    SAT 08/09/97 12:08 Page:547
  27347 35 011117   000235 236000 36                 LDQ     157
        35 011120   001015 756000 0                  STQ     PROC$+5
        35 011121   300006 634500                    EPPR4   6,,PR3
        35 011122   001014 454400 0                  STP4    PROC$+4
        35 011123   300005 635500                    EPPR5   5,,PR3
        35 011124   001013 455400 0                  STP5    PROC$+3
        35 011125   000010 236000 36                 LDQ     8
        35 011126   001012 756000 0                  STQ     PROC$+2
        35 011127   001012 630400 0                  EPPR0   PROC$+2
        35 011130   000005 631400 36                 EPPR1   5
        35 011131   000000 701000 xent               TSX1    Z8AE$ERROR
        35 011132   000000 011000                    NOP     0

  27356 35 011133   000321 470400 0                  LDP0    @ORG$
        35 011134   000000 471500                    LDP1    0,,PR0
        35 011135   400000 236007                    LDQ     -131072,DL
        35 011136   100000 256100                    ORSQ    0,,PR1

     2206    27365
     2207    27366    3            RETURN;

  27366 35 011137   000320 221200 0                  LDX1  ! ST$$+1
        35 011140   000001 702211                    TSX2  ! 1,X1

     2208    27367    3          END;
     2209    27368
     2210    27369    2        IF COMCOM.OB.FIPS.LEVEL > 0 THEN

  27369 35 011141   000036 720000 xsym               LXL0    COMCOM+30
        35 011142   011321 604400 35                 TMOZ    s:27407

     2211    27370    3          DO CASE (ORGANIZATION);

  27370 35 011143   000322 471400 0                  LDP1    @ORGANIZATION
        35 011144   100000 235100                    LDA     0,,PR1
        35 011145   000004 115007                    CMPA    4,DL
        35 011146   011150 602005 35                 TNC     s:27370+5,AL
PL6.E3A0      #001=Z8EM$SEMANTICS_DATA_DIV File=Z8EM.:Z8A6TSI                    SAT 08/09/97 12:08 Page:548
        35 011147   011261 710000 35                 TRA     s:27397
        35 011150   011261 710000 35                 TRA     s:27397
        35 011151   011321 710000 35                 TRA     s:27407
        35 011152   011154 710000 35                 TRA     s:27374
        35 011153   011206 710000 35                 TRA     s:27383

     2212    27371    3            CASE (%SEQUENTIAL);

     2213    27372                   /* OK */
     2214    27373    3            CASE (%RELATIVE);

     2215    27374    4              IF COMCOM.OB.FIPS.LEVEL = %LOW_LEV THEN DO;

  27374 35 011154   000003 100003                    CMPX0   3,DU
        35 011155   011321 601000 35                 TNZ     s:27407

     2216    27375    4                IF O1COM.LX_STK.SYMBOL(O1COM.LX_TOP - 2) = %RSV_WRD_ORGANIZATION

  27375 35 011156   000151 236000 xsym               LDQ     O1COM+105
        35 011157   000003 736000                    QLS     3
        35 011160   014002 235006 xsym               LDA     O1COM+6146,QL
        35 011161   000504 115007                    CMPA    324,DL
        35 011162   011170 601000 35                 TNZ     s:27377

     2217    27376    4                  THEN TOKEN$ = ADDR(O1COM.LX_STK(O1COM.LX_TOP - 2));

  27376 35 011163   000151 236000 xsym               LDQ     O1COM+105
        35 011164   000025 736000                    QLS     21
        35 011165   000236 036000 36                 ADLQ    158
        35 011166   000323 756000 0                  STQ     TOKEN$
        35 011167   011173 710000 35                 TRA     s:27378

     2218    27377    4                  ELSE TOKEN$ = ORG$;

  27377 35 011170   000321 473400 0                  LDP3    @ORG$
        35 011171   300000 236100                    LDQ     0,,PR3
        35 011172   000323 756000 0                  STQ     TOKEN$
PL6.E3A0      #001=Z8EM$SEMANTICS_DATA_DIV File=Z8EM.:Z8A6TSI                    SAT 08/09/97 12:08 Page:549

     2219    27378    4                CALL Z8AE$ERROR (%E$LEVEL_CHECK,

  27378 35 011173   000006 036003                    ADLQ    6,DU
        35 011174   001014 756000 0                  STQ     PROC$+4
        35 011175   000323 236000 0                  LDQ     TOKEN$
        35 011176   000005 036003                    ADLQ    5,DU
        35 011177   000004 235000 36                 LDA     4
        35 011200   001012 757000 0                  STAQ    PROC$+2
        35 011201   001012 630400 0                  EPPR0   PROC$+2
        35 011202   000000 631400 36                 EPPR1   0
        35 011203   000000 701000 xent               TSX1    Z8AE$ERROR
        35 011204   000000 011000                    NOP     0

     2220    27379    4                                 TOKEN$ -> LX_TERMINAL.LINE,
     2221    27380    4                                 TOKEN$ -> LX_TERMINAL.COLUMN);
     2222    27381    4              END;

  27381 35 011205   011321 710000 35                 TRA     s:27407

     2223    27382    3            CASE (%INDEXED); /* INDEXED or IO8 INDEXED -- which? */

     2224    27383    3              IF O1COM.LX_STK.SYMBOL(O1COM.LX_TOP - 1)

  27383 35 011206   000151 236000 xsym               LDQ     O1COM+105
        35 011207   000003 736000                    QLS     3
        35 011210   014012 235006 xsym               LDA     O1COM+6154,QL
        35 011211   000353 115007                    CMPA    235,DL
        35 011212   011231 601000 35                 TNZ     s:27388

     2225    27384    3                  = %RSV_WRD_IO8 THEN /* IO8 INDEXED */
     2226    27385    3                CALL Z8AE$ERROR (%E$NON_ANSI_FILE_ORG,

  27385 35 011213   000151 236000 xsym               LDQ     O1COM+105
        35 011214   000025 736000                    QLS     21
        35 011215   000100 036000 36                 ADLQ    64
        35 011216   001014 756000 0                  STQ     PROC$+4
PL6.E3A0      #001=Z8EM$SEMANTICS_DATA_DIV File=Z8EM.:Z8A6TSI                    SAT 08/09/97 12:08 Page:550
        35 011217   000151 236000 xsym               LDQ     O1COM+105
        35 011220   000025 736000                    QLS     21
        35 011221   000101 036000 36                 ADLQ    65
        35 011222   000240 235000 36                 LDA     160
        35 011223   001012 757000 0                  STAQ    PROC$+2
        35 011224   001012 630400 0                  EPPR0   PROC$+2
        35 011225   000000 631400 36                 EPPR1   0
        35 011226   000000 701000 xent               TSX1    Z8AE$ERROR
        35 011227   000000 011000                    NOP     0
        35 011230   011321 710000 35                 TRA     s:27407

     2227    27386    3                                 O1COM.LX_STK.LINE(O1COM.LX_TOP - 3),
     2228    27387    3                                 O1COM.LX_STK.COLUMN(O1COM.LX_TOP - 3));
     2229    27388    4              ELSE IF COMCOM.OB.FIPS.LEVEL = %LOW_LEV THEN DO;

  27388 35 011231   000003 100003                    CMPX0   3,DU
        35 011232   011321 601000 35                 TNZ     s:27407

     2230    27389    4                IF O1COM.LX_STK.SYMBOL(O1COM.LX_TOP - 2) = %RSV_WRD_ORGANIZATION

  27389 35 011233   014002 235006 xsym               LDA     O1COM+6146,QL
        35 011234   000504 115007                    CMPA    324,DL
        35 011235   011243 601000 35                 TNZ     s:27391

     2231    27390    4                  THEN TOKEN$ = ADDR(O1COM.LX_STK(O1COM.LX_TOP - 2));

  27390 35 011236   000151 236000 xsym               LDQ     O1COM+105
        35 011237   000025 736000                    QLS     21
        35 011240   000236 036000 36                 ADLQ    158
        35 011241   000323 756000 0                  STQ     TOKEN$
        35 011242   011246 710000 35                 TRA     s:27392

     2232    27391    4                  ELSE TOKEN$ = ORG$;

  27391 35 011243   000321 473400 0                  LDP3    @ORG$
        35 011244   300000 236100                    LDQ     0,,PR3
        35 011245   000323 756000 0                  STQ     TOKEN$
PL6.E3A0      #001=Z8EM$SEMANTICS_DATA_DIV File=Z8EM.:Z8A6TSI                    SAT 08/09/97 12:08 Page:551

     2233    27392    4                CALL Z8AE$ERROR (%E$LEVEL_CHECK,

  27392 35 011246   000006 036003                    ADLQ    6,DU
        35 011247   001014 756000 0                  STQ     PROC$+4
        35 011250   000323 236000 0                  LDQ     TOKEN$
        35 011251   000005 036003                    ADLQ    5,DU
        35 011252   000004 235000 36                 LDA     4
        35 011253   001012 757000 0                  STAQ    PROC$+2
        35 011254   001012 630400 0                  EPPR0   PROC$+2
        35 011255   000000 631400 36                 EPPR1   0
        35 011256   000000 701000 xent               TSX1    Z8AE$ERROR
        35 011257   000000 011000                    NOP     0

     2234    27393    4                                 TOKEN$ -> LX_TERMINAL.LINE,
     2235    27394    4                                 TOKEN$ -> LX_TERMINAL.COLUMN);
     2236    27395    4              END;

  27395 35 011260   011321 710000 35                 TRA     s:27407

     2237    27396    3            CASE (ELSE);

     2238    27397    3                IF O1COM.LX_STK.SYMBOL(O1COM.LX_TOP - 2) = %RSV_WRD_ORGANIZATION

  27397 35 011261   000151 236000 xsym               LDQ     O1COM+105
        35 011262   000003 736000                    QLS     3
        35 011263   014002 235006 xsym               LDA     O1COM+6146,QL
        35 011264   000504 115007                    CMPA    324,DL
        35 011265   011273 601000 35                 TNZ     s:27399

     2239    27398    3                  THEN TOKEN$ = ADDR(O1COM.LX_STK(O1COM.LX_TOP - 2));

  27398 35 011266   000151 236000 xsym               LDQ     O1COM+105
        35 011267   000025 736000                    QLS     21
        35 011270   000236 036000 36                 ADLQ    158
        35 011271   000323 756000 0                  STQ     TOKEN$
        35 011272   011307 710000 35                 TRA     s:27402
PL6.E3A0      #001=Z8EM$SEMANTICS_DATA_DIV File=Z8EM.:Z8A6TSI                    SAT 08/09/97 12:08 Page:552

     2240    27399    3                 ELSE IF O1COM.LX_STK.SYMBOL(O1COM.LX_TOP - 3) = %RSV_WRD_ORGANIZATION

  27399 35 011273   013772 235006 xsym               LDA     O1COM+6138,QL
        35 011274   000504 115007                    CMPA    324,DL
        35 011275   011303 601000 35                 TNZ     s:27401

     2241    27400    3                    THEN TOKEN$ = ADDR(O1COM.LX_STK(O1COM.LX_TOP - 3));

  27400 35 011276   000151 236000 xsym               LDQ     O1COM+105
        35 011277   000025 736000                    QLS     21
        35 011300   000241 036000 36                 ADLQ    161
        35 011301   000323 756000 0                  STQ     TOKEN$
        35 011302   011307 710000 35                 TRA     s:27402

     2242    27401    3                    ELSE TOKEN$ = ADDR(O1COM.LX_STK(O1COM.LX_TOP - 4));

  27401 35 011303   000151 236000 xsym               LDQ     O1COM+105
        35 011304   000025 736000                    QLS     21
        35 011305   000242 036000 36                 ADLQ    162
        35 011306   000323 756000 0                  STQ     TOKEN$

     2243    27402    3              CALL Z8AE$ERROR (%E$NON_ANSI_FILE_ORG,

  27402 35 011307   000006 036003                    ADLQ    6,DU
        35 011310   001014 756000 0                  STQ     PROC$+4
        35 011311   000323 236000 0                  LDQ     TOKEN$
        35 011312   000005 036003                    ADLQ    5,DU
        35 011313   000240 235000 36                 LDA     160
        35 011314   001012 757000 0                  STAQ    PROC$+2
        35 011315   001012 630400 0                  EPPR0   PROC$+2
        35 011316   000000 631400 36                 EPPR1   0
        35 011317   000000 701000 xent               TSX1    Z8AE$ERROR
        35 011320   000000 011000                    NOP     0

     2244    27403    3                               TOKEN$ -> LX_TERMINAL.LINE,
     2245    27404    3                               TOKEN$ -> LX_TERMINAL.COLUMN);
PL6.E3A0      #001=Z8EM$SEMANTICS_DATA_DIV File=Z8EM.:Z8A6TSI                    SAT 08/09/97 12:08 Page:553
     2246    27405    3          END;

     2247    27406
     2248    27407    2        CALL Z9EM$FILE_ORG (ORG$, ORGANIZATION);

  27407 35 011321   000321 630400 0                  EPPR0   @ORG$
        35 011322   000025 631400 36                 EPPR1   21
        35 011323   000000 701000 xent               TSX1    Z9EM$FILE_ORG
        35 011324   000000 011000                    NOP     0

     2249    27408
     2250    27409    2        IF O1COM.CURRENT_FILE_LTS$ -> FILE_LTS.ASSIGN$ ~= ADDR(NIL) THEN

  27409 35 011325   000045 470400 xsym               LDP0    O1COM+37
        35 011326   000004 236100                    LDQ     4,,PR0
        35 011327   000024 116000 36                 CMPQ    20
        35 011330   011340 600000 35                 TZE     s:27412

     2251    27410    2          CALL Z9EM$MASS_STORAGE_CHECK (ORG$, O1COM.CURRENT_FILE_LTS$);

  27410 35 011331   000243 236000 36                 LDQ     163
        35 011332   000321 235000 0                  LDA     @ORG$
        35 011333   001012 757000 0                  STAQ    PROC$+2
        35 011334   001012 630400 0                  EPPR0   PROC$+2
        35 011335   000025 631400 36                 EPPR1   21
        35 011336   000000 701000 xent               TSX1    Z9EM$MASS_STORAGE_CHECK
        35 011337   000000 011000                    NOP     0

     2252    27411
     2253    27412    2        IF O1COM.CURRENT_FILE_LTS$ -> FILE_LTS.ACCESS_MODE ~= %NOT_SPECIFIED THEN

  27412 35 011340   000045 470400 xsym               LDP0    O1COM+37
        35 011341   000011 235100                    LDA     9,,PR0
        35 011342   011353 600000 35                 TZE     s:27418

     2254    27413    2          CALL CHECK_DIFF_ORG_AND_ACCESS (ORG$,

