PL6.E3A0      #001=Z8EM$SEMANTICS_DATA_DIV File=Z8EM.:Z8A6TSI                    SAT 08/09/97 12:08 Page:1090
     6141    39644    3                EXIT SEMANTIC_ACTION_CASE;

  39644 35 036124   056641 710000 35                 TRA     s:45674

     6142    39645    3              END;
     6143    39646
     6144    39647    2          CALL ANSI_ATTRIBUTE_CHECK(ADDR(O1COM.LX_STK(O1COM.LX_TOP - 3)));

  39647 35 036125   000151 236000 xsym               LDQ     O1COM+105
        35 036126   000025 736000                    QLS     21
        35 036127   000241 036000 36                 ADLQ    161
        35 036130   001052 756000 0                  STQ     PROC$+34
        35 036131   001052 630400 0                  EPPR0   PROC$+34
        35 036132   000074 450400 0                  STP0    KEY_LIST$+2
        35 036133   001251 701000 35                 TSX1    ANSI_ATTRIBUTE_CHECK
        35 036134   000000 011000                    NOP     0

     6145    39648
     6146    39649    2          CALL CHECK_AND_SAVE_ITEM (ADDR(O1COM.LX_STK(O1COM.LX_TOP)),

  39649 35 036135   000151 236000 xsym               LDQ     O1COM+105
        35 036136   000025 736000                    QLS     21
        35 036137   000631 036000 36                 ADLQ    409
        35 036140   001053 756000 0                  STQ     PROC$+35
        35 036141   000676 236000 36                 LDQ     446
        35 036142   000141 756000 0                  STQ     @FIELD$+1
        35 036143   000045 236000 xsym               LDQ     O1COM+37
        35 036144   000020 036003                    ADLQ    16,DU
        35 036145   000140 756000 0                  STQ     @ITEM$+1
        35 036146   001053 630400 0                  EPPR0   PROC$+35
        35 036147   000137 450400 0                  STP0    NUM+2
        35 036150   003076 701000 35                 TSX1    CHECK_AND_SAVE_ITEM
        35 036151   000000 011000                    NOP     0
        35 036152   056641 710000 35                 TRA     s:45674

     6147    39650    2                                    O1COM.CURRENT_FILE_LTS$ -> FILE_LTS.NOMINAL_KEY$,
     6148    39651    2                                    %RSV_WRD_KEY);
PL6.E3A0      #001=Z8EM$SEMANTICS_DATA_DIV File=Z8EM.:Z8A6TSI                    SAT 08/09/97 12:08 Page:1091
     6149    39652
     6150    39653    2     CASE(%ACT_ASSIGN);

     6151    39654
     6152    39655    2          TEMP$ = ADDR(O1COM.LX_STK(O1COM.LX_TOP)) -> LX_LIST.HEAD$;

  39655 35 036153   000151 236000 xsym               LDQ     O1COM+105
        35 036154   000003 736000                    QLS     3
        35 036155   014023 236006 xsym               LDQ     O1COM+6163,QL
        35 036156   000015 756000 0                  STQ     TEMP$

     6153    39656    3          DO UNTIL TEMP$ = ADDR(NIL);

     6154    39657    3            IF SUBSTR(TEMP$ -> LX_TERMINAL.DNT$ -> DNT.TEXT.NAME, 0, 1) = '"'

  39657 35 036157   000015 470400 0                  LDP0    TEMP$
        35 036160   000002 471500                    LDP1    2,,PR0
        35 036161   100004 220100                    LDX0    4,,PR1
        35 036162   100004 236100                    LDQ     4,,PR1
        35 036163   777000 376007                    ANQ     -512,DL
        35 036164   042000 116007                    CMPQ    17408,DL
        35 036165   036172 600000 35                 TZE     s:39660
        35 036166   100004 236100                    LDQ     4,,PR1
        35 036167   777000 376007                    ANQ     -512,DL
        35 036170   047000 116007                    CMPQ    19968,DL
        35 036171   036226 601000 35                 TNZ     s:39672

     6155    39658    3              OR SUBSTR(TEMP$ -> LX_TERMINAL.DNT$ -> DNT.TEXT.NAME, 0, 1) = ''''
     6156    39659    4              THEN DO;

     6157    39660    4                CALL Z8EC$INTERNAL_STRING_REP (TEMP$, P$);

  39660 35 036172   000677 630400 36                 EPPR0   447
        35 036173   000025 631400 36                 EPPR1   21
        35 036174   000000 701000 xent               TSX1    Z8EC$INTERNAL_STRING_REP
        35 036175   000000 011000                    NOP     0

PL6.E3A0      #001=Z8EM$SEMANTICS_DATA_DIV File=Z8EM.:Z8A6TSI                    SAT 08/09/97 12:08 Page:1092
     6158    39661                     /* take off quote */
     6159    39662    4                LEN = P$ -> DNT.TEXT.LENGTH;

  39662 35 036176   000021 470400 0                  LDP0    P$
        35 036177   000004 236100                    LDQ     4,,PR0
        35 036200   000022 772000                    QRL     18
        35 036201   000016 756000 0                  STQ     LEN

     6160    39663    4                SUBSTR(LEX_SYMBOL.SYMBOL, 0, LEN - 2)

  39663 35 036202   000004 220100                    LDX0    4,,PR0
        35 036203   777776 621006                    EAX1    -2,QL
        35 036204   040040 100540                    MLR     fill='040'O
        35 036205   000004 600011                    ADSC9   4,,PR0                   cn=3,n=*X1
        35 036206   000011 000011 25                 ADSC9   LEX_SYMBOL+9             cn=0,n=*X1

     6161    39664    4                  = SUBSTR(P$ -> DNT.TEXT.NAME, 1, LEN - 2);
     6162    39665    4                LEX_SYMBOL.TYPE = %ALPHA_LITERAL;

  39665 35 036207   000003 235007                    LDA     3,DL
        35 036210   000001 755000 25                 STA     LEX_SYMBOL+1

     6163    39666    4                LEX_SYMBOL.SIZE = LEN - 2;

  39666 35 036211   000002 136007                    SBLQ    2,DL
        35 036212   000010 756000 25                 STQ     LEX_SYMBOL+8

     6164    39667    4                LEX_SYMBOL.LINE = TEMP$ -> LX_TERMINAL.LINE;

  39667 35 036213   000015 471400 0                  LDP1    TEMP$
        35 036214   100005 235100                    LDA     5,,PR1
        35 036215   000004 755000 25                 STA     LEX_SYMBOL+4

     6165    39668    4                LEX_SYMBOL.COLUMN = TEMP$ -> LX_TERMINAL.COLUMN;

  39668 35 036216   100006 235100                    LDA     6,,PR1
        35 036217   000005 755000 25                 STA     LEX_SYMBOL+5
PL6.E3A0      #001=Z8EM$SEMANTICS_DATA_DIV File=Z8EM.:Z8A6TSI                    SAT 08/09/97 12:08 Page:1093

     6166    39669    4                CALL Z8AH$SEARCH_;

  39669 35 036220   000011 631400 36                 EPPR1   9
        35 036221   000000 701000 xent               TSX1    Z8AH$SEARCH_
        35 036222   000000 011000                    NOP     0

     6167    39670    4                TEMP$ -> LX_TERMINAL.DNT$ = DNT$;

  39670 35 036223   000000 236000 14                 LDQ     DNT$
        35 036224   000015 470400 0                  LDP0    TEMP$
        35 036225   000002 756100                    STQ     2,,PR0

     6168    39671    4              END;

     6169    39672    3              TEMP$ = TEMP$ -> LX_ITEM.LINK;

  39672 35 036226   000015 470400 0                  LDP0    TEMP$
        35 036227   000007 236100                    LDQ     7,,PR0
        35 036230   000015 756000 0                  STQ     TEMP$

     6170    39673    3            END;

  39673 35 036231   000024 116000 36                 CMPQ    20
        35 036232   036157 601000 35                 TNZ     s:39657

     6171    39674    2          CALL ASSIGN_DEVICE (ADDR(O1COM.LX_STK(O1COM.LX_TOP)));

  39674 35 036233   000151 236000 xsym               LDQ     O1COM+105
        35 036234   000025 736000                    QLS     21
        35 036235   000631 036000 36                 ADLQ    409
        35 036236   001054 756000 0                  STQ     PROC$+36
        35 036237   001054 630400 0                  EPPR0   PROC$+36
        35 036240   000102 450400 0                  STP0    I+2
        35 036241   001547 701000 35                 TSX1    ASSIGN_DEVICE
        35 036242   000000 011000                    NOP     0

PL6.E3A0      #001=Z8EM$SEMANTICS_DATA_DIV File=Z8EM.:Z8A6TSI                    SAT 08/09/97 12:08 Page:1094
     6172    39675    2          CALL Z9EM$VERIFY_DEVICE (ADDR(O1COM.LX_STK(O1COM.LX_TOP)));

  39675 35 036243   000151 236000 xsym               LDQ     O1COM+105
        35 036244   000025 736000                    QLS     21
        35 036245   000631 036000 36                 ADLQ    409
        35 036246   001012 756000 0                  STQ     PROC$+2
        35 036247   001012 630400 0                  EPPR0   PROC$+2
        35 036250   001013 450400 0                  STP0    PROC$+3
        35 036251   001013 630400 0                  EPPR0   PROC$+3
        35 036252   000036 631400 36                 EPPR1   30
        35 036253   000000 701000 xent               TSX1    Z9EM$VERIFY_DEVICE
        35 036254   000000 011000                    NOP     0

     6173    39676
     6174    39677    2          IF O1COM.CURRENT_FILE_LTS$ -> FILE_LTS.ORGANIZATION ~= %NOT_SPECIFIED THEN

  39677 35 036255   000045 470400 xsym               LDP0    O1COM+37
        35 036256   000006 235100                    LDA     6,,PR0
        35 036257   036272 600000 35                 TZE     s:39681

     6175    39678    2            CALL Z9EM$MASS_STORAGE_CHECK (ADDR(O1COM.LX_STK(O1COM.LX_TOP)) ->

  39678 35 036260   000243 236000 36                 LDQ     163
        35 036261   001013 756000 0                  STQ     PROC$+3
        35 036262   000151 236000 xsym               LDQ     O1COM+105
        35 036263   000025 736000                    QLS     21
        35 036264   000674 036000 36                 ADLQ    444
        35 036265   001012 756000 0                  STQ     PROC$+2
        35 036266   001012 630400 0                  EPPR0   PROC$+2
        35 036267   000025 631400 36                 EPPR1   21
        35 036270   000000 701000 xent               TSX1    Z9EM$MASS_STORAGE_CHECK
        35 036271   000000 011000                    NOP     0

     6176    39679    2                                               LX_LIST.HEAD$,
     6177    39680    2                                          O1COM.CURRENT_FILE_LTS$);
     6178    39681    2          CALL Z8ED$DISPOSE_ABSSYN_TREE (ADDR(O1COM.LX_STK(O1COM.LX_TOP)) -> LX_LIST.
             39681                   HEAD$);
PL6.E3A0      #001=Z8EM$SEMANTICS_DATA_DIV File=Z8EM.:Z8A6TSI                    SAT 08/09/97 12:08 Page:1095

  39681 35 036272   000151 236000 xsym               LDQ     O1COM+105
        35 036273   000025 736000                    QLS     21
        35 036274   000674 036000 36                 ADLQ    444
        35 036275   001012 756000 0                  STQ     PROC$+2
        35 036276   001012 630400 0                  EPPR0   PROC$+2
        35 036277   000036 631400 36                 EPPR1   30
        35 036300   000000 701000 xent               TSX1    Z8ED$DISPOSE_ABSSYN_TREE
        35 036301   000000 011000                    NOP     0
        35 036302   056641 710000 35                 TRA     s:45674

     6179    39682
     6180    39683    2     CASE(%ACT_RESERVE_CLAUSE);

     6181    39684    2          CALL RESERVE_#_AREAS (ADDR(O1COM.LX_STK(O1COM.LX_TOP - 1)));

  39684 35 036303   000151 236000 xsym               LDQ     O1COM+105
        35 036304   000025 736000                    QLS     21
        35 036305   000640 036000 36                 ADLQ    416
        35 036306   001055 756000 0                  STQ     PROC$+37
        35 036307   001055 630400 0                  EPPR0   PROC$+37
        35 036310   000666 450400 0                  STP0    DNT$$+2
        35 036311   030102 701000 35                 TSX1    RESERVE_#_AREAS
        35 036312   000000 011000                    NOP     0
        35 036313   056641 710000 35                 TRA     s:45674

     6182    39685
     6183    39686    2     CASE(%ACT_ORG_SEQUENTIAL);

     6184    39687    2          CALL FILE_ORG (ADDR(O1COM.LX_STK(O1COM.LX_TOP)), %SEQUENTIAL);

  39687 35 036314   000151 236000 xsym               LDQ     O1COM+105
        35 036315   000025 736000                    QLS     21
        35 036316   000631 036000 36                 ADLQ    409
        35 036317   001056 756000 0                  STQ     PROC$+38
        35 036320   000013 236000 36                 LDQ     11
        35 036321   000322 756000 0                  STQ     @ORG$+1
PL6.E3A0      #001=Z8EM$SEMANTICS_DATA_DIV File=Z8EM.:Z8A6TSI                    SAT 08/09/97 12:08 Page:1096
        35 036322   001056 630400 0                  EPPR0   PROC$+38
        35 036323   000321 450400 0                  STP0    ST$$+2
        35 036324   011106 701000 35                 TSX1    FILE_ORG
        35 036325   000000 011000                    NOP     0
        35 036326   056641 710000 35                 TRA     s:45674

     6185    39688
     6186    39689    2     CASE(%ACT_ORG_RELATIVE);

     6187    39690    2          CALL FILE_ORG (ADDR(O1COM.LX_STK(O1COM.LX_TOP)), %RELATIVE);

  39690 35 036327   000151 236000 xsym               LDQ     O1COM+105
        35 036330   000025 736000                    QLS     21
        35 036331   000631 036000 36                 ADLQ    409
        35 036332   001057 756000 0                  STQ     PROC$+39
        35 036333   000256 236000 36                 LDQ     174
        35 036334   000322 756000 0                  STQ     @ORG$+1
        35 036335   001057 630400 0                  EPPR0   PROC$+39
        35 036336   000321 450400 0                  STP0    ST$$+2
        35 036337   011106 701000 35                 TSX1    FILE_ORG
        35 036340   000000 011000                    NOP     0
        35 036341   056641 710000 35                 TRA     s:45674

     6188    39691
     6189    39692    2     CASE(%ACT_ORG_INDEXED);

     6190    39693    2          CALL FILE_ORG (ADDR(O1COM.LX_STK(O1COM.LX_TOP)), %INDEXED);

  39693 35 036342   000151 236000 xsym               LDQ     O1COM+105
        35 036343   000025 736000                    QLS     21
        35 036344   000631 036000 36                 ADLQ    409
        35 036345   001060 756000 0                  STQ     PROC$+40
        35 036346   000344 236000 36                 LDQ     228
        35 036347   000322 756000 0                  STQ     @ORG$+1
        35 036350   001060 630400 0                  EPPR0   PROC$+40
        35 036351   000321 450400 0                  STP0    ST$$+2
        35 036352   011106 701000 35                 TSX1    FILE_ORG
PL6.E3A0      #001=Z8EM$SEMANTICS_DATA_DIV File=Z8EM.:Z8A6TSI                    SAT 08/09/97 12:08 Page:1097
        35 036353   000000 011000                    NOP     0
        35 036354   056641 710000 35                 TRA     s:45674

     6191    39694
     6192    39695    2     CASE(%ACT_ORG_KEYED);

     6193    39696    2          CALL FILE_ORG (ADDR(O1COM.LX_STK(O1COM.LX_TOP)), %KEYED);

  39696 35 036355   000151 236000 xsym               LDQ     O1COM+105
        35 036356   000025 736000                    QLS     21
        35 036357   000631 036000 36                 ADLQ    409
        35 036360   001061 756000 0                  STQ     PROC$+41
        35 036361   000377 236000 36                 LDQ     255
        35 036362   000322 756000 0                  STQ     @ORG$+1
        35 036363   001061 630400 0                  EPPR0   PROC$+41
        35 036364   000321 450400 0                  STP0    ST$$+2
        35 036365   011106 701000 35                 TSX1    FILE_ORG
        35 036366   000000 011000                    NOP     0
        35 036367   056641 710000 35                 TRA     s:45674

     6194    39697
     6195    39698    2     CASE(%ACT_ORG_ANSI_SEQUENTIAL);

     6196    39699    2          CALL FILE_ORG (ADDR(O1COM.LX_STK(O1COM.LX_TOP)), %ANSI_SEQUENTIAL);

  39699 35 036370   000151 236000 xsym               LDQ     O1COM+105
        35 036371   000025 736000                    QLS     21
        35 036372   000631 036000 36                 ADLQ    409
        35 036373   001062 756000 0                  STQ     PROC$+42
        35 036374   000365 236000 36                 LDQ     245
        35 036375   000322 756000 0                  STQ     @ORG$+1
        35 036376   001062 630400 0                  EPPR0   PROC$+42
        35 036377   000321 450400 0                  STP0    ST$$+2
        35 036400   011106 701000 35                 TSX1    FILE_ORG
        35 036401   000000 011000                    NOP     0
        35 036402   056641 710000 35                 TRA     s:45674

PL6.E3A0      #001=Z8EM$SEMANTICS_DATA_DIV File=Z8EM.:Z8A6TSI                    SAT 08/09/97 12:08 Page:1098
     6197    39700
     6198    39701    2     CASE(%ACT_ORG_UFF_SEQUENTIAL);

     6199    39702    2          CALL FILE_ORG (ADDR(O1COM.LX_STK(O1COM.LX_TOP)), %UFF_SEQUENTIAL);

  39702 35 036403   000151 236000 xsym               LDQ     O1COM+105
        35 036404   000025 736000                    QLS     21
        35 036405   000631 036000 36                 ADLQ    409
        35 036406   001063 756000 0                  STQ     PROC$+43
        35 036407   000702 236000 36                 LDQ     450
        35 036410   000322 756000 0                  STQ     @ORG$+1
        35 036411   001063 630400 0                  EPPR0   PROC$+43
        35 036412   000321 450400 0                  STP0    ST$$+2
        35 036413   011106 701000 35                 TSX1    FILE_ORG
        35 036414   000000 011000                    NOP     0
        35 036415   056641 710000 35                 TRA     s:45674

     6200    39703
     6201    39704    2     CASE(%ACT_ORG_GFRC_SEQUENTIAL);

     6202    39705    2          CALL FILE_ORG (ADDR(O1COM.LX_STK(O1COM.LX_TOP)), %GFRC_SEQUENTIAL);

  39705 35 036416   000151 236000 xsym               LDQ     O1COM+105
        35 036417   000025 736000                    QLS     21
        35 036420   000631 036000 36                 ADLQ    409
        35 036421   001064 756000 0                  STQ     PROC$+44
        35 036422   000704 236000 36                 LDQ     452
        35 036423   000322 756000 0                  STQ     @ORG$+1
        35 036424   001064 630400 0                  EPPR0   PROC$+44
        35 036425   000321 450400 0                  STP0    ST$$+2
        35 036426   011106 701000 35                 TSX1    FILE_ORG
        35 036427   000000 011000                    NOP     0
        35 036430   056641 710000 35                 TRA     s:45674

     6203    39706
     6204    39707    2     CASE(%ACT_ORG_IBM_OS_SEQUENTIAL);

PL6.E3A0      #001=Z8EM$SEMANTICS_DATA_DIV File=Z8EM.:Z8A6TSI                    SAT 08/09/97 12:08 Page:1099
     6205    39708    2          CALL FILE_ORG (ADDR(O1COM.LX_STK(O1COM.LX_TOP)), %OS_SEQUENTIAL);

  39708 35 036431   000151 236000 xsym               LDQ     O1COM+105
        35 036432   000025 736000                    QLS     21
        35 036433   000631 036000 36                 ADLQ    409
        35 036434   001065 756000 0                  STQ     PROC$+45
        35 036435   000054 236000 36                 LDQ     44
        35 036436   000322 756000 0                  STQ     @ORG$+1
        35 036437   001065 630400 0                  EPPR0   PROC$+45
        35 036440   000321 450400 0                  STP0    ST$$+2
        35 036441   011106 701000 35                 TSX1    FILE_ORG
        35 036442   000000 011000                    NOP     0
        35 036443   056641 710000 35                 TRA     s:45674

     6206    39709
     6207    39710    2     CASE(%ACT_ORG_H_2000_SEQUENTIAL);

     6208    39711    2          CALL FILE_ORG (ADDR(O1COM.LX_STK(O1COM.LX_TOP)), %H2000_SEQUENTIAL);

  39711 35 036444   000151 236000 xsym               LDQ     O1COM+105
        35 036445   000025 736000                    QLS     21
        35 036446   000631 036000 36                 ADLQ    409
        35 036447   001066 756000 0                  STQ     PROC$+46
        35 036450   000332 236000 36                 LDQ     218
        35 036451   000322 756000 0                  STQ     @ORG$+1
        35 036452   001066 630400 0                  EPPR0   PROC$+46
        35 036453   000321 450400 0                  STP0    ST$$+2
        35 036454   011106 701000 35                 TSX1    FILE_ORG
        35 036455   000000 011000                    NOP     0
        35 036456   056641 710000 35                 TRA     s:45674

     6209    39712
     6210    39713    2     CASE(%ACT_ORG_UFF_RELATIVE);

     6211    39714    2          CALL FILE_ORG (ADDR(O1COM.LX_STK(O1COM.LX_TOP)), %UFF_RELATIVE);

  39714 35 036457   000151 236000 xsym               LDQ     O1COM+105
PL6.E3A0      #001=Z8EM$SEMANTICS_DATA_DIV File=Z8EM.:Z8A6TSI                    SAT 08/09/97 12:08 Page:1100
        35 036460   000025 736000                    QLS     21
        35 036461   000631 036000 36                 ADLQ    409
        35 036462   001067 756000 0                  STQ     PROC$+47
        35 036463   000706 236000 36                 LDQ     454
        35 036464   000322 756000 0                  STQ     @ORG$+1
        35 036465   001067 630400 0                  EPPR0   PROC$+47
        35 036466   000321 450400 0                  STP0    ST$$+2
        35 036467   011106 701000 35                 TSX1    FILE_ORG
        35 036470   000000 011000                    NOP     0
        35 036471   056641 710000 35                 TRA     s:45674

     6212    39715
     6213    39716    2     CASE(%ACT_ORG_UFF_INDEXED);

     6214    39717    2          CALL FILE_ORG (ADDR(O1COM.LX_STK(O1COM.LX_TOP)), %UFF_INDEXED);

  39717 35 036472   000151 236000 xsym               LDQ     O1COM+105
        35 036473   000025 736000                    QLS     21
        35 036474   000631 036000 36                 ADLQ    409
        35 036475   001070 756000 0                  STQ     PROC$+48
        35 036476   000464 236000 36                 LDQ     308
        35 036477   000322 756000 0                  STQ     @ORG$+1
        35 036500   001070 630400 0                  EPPR0   PROC$+48
        35 036501   000321 450400 0                  STP0    ST$$+2
        35 036502   011106 701000 35                 TSX1    FILE_ORG
        35 036503   000000 011000                    NOP     0
        35 036504   056641 710000 35                 TRA     s:45674

     6215    39718
     6216    39719    2     CASE(%ACT_ORG_GFRC_C_6000_SEQ);

     6217    39720    2          CALL FILE_ORG (ADDR(O1COM.LX_STK(O1COM.LX_TOP)), %GFRC_C_6000_SEQUENTIAL);

  39720 35 036505   000151 236000 xsym               LDQ     O1COM+105
        35 036506   000025 736000                    QLS     21
        35 036507   000631 036000 36                 ADLQ    409
        35 036510   001071 756000 0                  STQ     PROC$+49
PL6.E3A0      #001=Z8EM$SEMANTICS_DATA_DIV File=Z8EM.:Z8A6TSI                    SAT 08/09/97 12:08 Page:1101
        35 036511   000357 236000 36                 LDQ     239
        35 036512   000322 756000 0                  STQ     @ORG$+1
        35 036513   001071 630400 0                  EPPR0   PROC$+49
        35 036514   000321 450400 0                  STP0    ST$$+2
        35 036515   011106 701000 35                 TSX1    FILE_ORG
        35 036516   000000 011000                    NOP     0
        35 036517   056641 710000 35                 TRA     s:45674

     6218    39721
     6219    39722    2     CASE(%ACT_ORG_IBM_OS_EBCDIC_SEQ);

     6220    39723    2          CALL FILE_ORG (ADDR(O1COM.LX_STK(O1COM.LX_TOP)), %OS_EBCDIC_SEQUENTIAL);

  39723 35 036520   000151 236000 xsym               LDQ     O1COM+105
        35 036521   000025 736000                    QLS     21
        35 036522   000631 036000 36                 ADLQ    409
        35 036523   001072 756000 0                  STQ     PROC$+50
        35 036524   000276 236000 36                 LDQ     190
        35 036525   000322 756000 0                  STQ     @ORG$+1
        35 036526   001072 630400 0                  EPPR0   PROC$+50
        35 036527   000321 450400 0                  STP0    ST$$+2
        35 036530   011106 701000 35                 TSX1    FILE_ORG
        35 036531   000000 011000                    NOP     0
        35 036532   056641 710000 35                 TRA     s:45674

     6221    39724
     6222    39725    2     CASE(%ACT_ORG_ISP_C_6000_IND);

     6223    39726    2          CALL FILE_ORG (ADDR(O1COM.LX_STK(O1COM.LX_TOP)), %ISP_C_6000_INDEXED);

  39726 35 036533   000151 236000 xsym               LDQ     O1COM+105
        35 036534   000025 736000                    QLS     21
        35 036535   000631 036000 36                 ADLQ    409
        35 036536   001073 756000 0                  STQ     PROC$+51
        35 036537   000407 236000 36                 LDQ     263
        35 036540   000322 756000 0                  STQ     @ORG$+1
        35 036541   001073 630400 0                  EPPR0   PROC$+51
PL6.E3A0      #001=Z8EM$SEMANTICS_DATA_DIV File=Z8EM.:Z8A6TSI                    SAT 08/09/97 12:08 Page:1102
        35 036542   000321 450400 0                  STP0    ST$$+2
        35 036543   011106 701000 35                 TSX1    FILE_ORG
        35 036544   000000 011000                    NOP     0
        35 036545   056641 710000 35                 TRA     s:45674

     6224    39727
     6225    39728    2     CASE(%ACT_ORG_MULTICS_SEQ);

     6226    39729    2          CALL FILE_ORG (ADDR(O1COM.LX_STK(O1COM.LX_TOP)), %MULTICS_SEQUENTIAL);

  39729 35 036546   000151 236000 xsym               LDQ     O1COM+105
        35 036547   000025 736000                    QLS     21
        35 036550   000631 036000 36                 ADLQ    409
        35 036551   001074 756000 0                  STQ     PROC$+52
        35 036552   000653 236000 36                 LDQ     427
        35 036553   000322 756000 0                  STQ     @ORG$+1
        35 036554   001074 630400 0                  EPPR0   PROC$+52
        35 036555   000321 450400 0                  STP0    ST$$+2
        35 036556   011106 701000 35                 TSX1    FILE_ORG
        35 036557   000000 011000                    NOP     0
        35 036560   056641 710000 35                 TRA     s:45674

     6227    39730
     6228    39731    2     CASE(%ACT_ORG_IBM_DOS_SEQ);

     6229    39732    2          CALL FILE_ORG (ADDR(O1COM.LX_STK(O1COM.LX_TOP)), %DOS_SEQUENTIAL);

  39732 35 036561   000151 236000 xsym               LDQ     O1COM+105
        35 036562   000025 736000                    QLS     21
        35 036563   000631 036000 36                 ADLQ    409
        35 036564   001075 756000 0                  STQ     PROC$+53
        35 036565   000710 236000 36                 LDQ     456
        35 036566   000322 756000 0                  STQ     @ORG$+1
        35 036567   001075 630400 0                  EPPR0   PROC$+53
        35 036570   000321 450400 0                  STP0    ST$$+2
        35 036571   011106 701000 35                 TSX1    FILE_ORG
        35 036572   000000 011000                    NOP     0
PL6.E3A0      #001=Z8EM$SEMANTICS_DATA_DIV File=Z8EM.:Z8A6TSI                    SAT 08/09/97 12:08 Page:1103
        35 036573   056641 710000 35                 TRA     s:45674

     6230    39733
     6231    39734    2     CASE(%ACT_ORG_MULTICS_REL);

     6232    39735    2          CALL FILE_ORG (ADDR(O1COM.LX_STK(O1COM.LX_TOP)), %MULTICS_RELATIVE);

  39735 35 036574   000151 236000 xsym               LDQ     O1COM+105
        35 036575   000025 736000                    QLS     21
        35 036576   000631 036000 36                 ADLQ    409
        35 036577   001076 756000 0                  STQ     PROC$+54
        35 036600   000712 236000 36                 LDQ     458
        35 036601   000322 756000 0                  STQ     @ORG$+1
        35 036602   001076 630400 0                  EPPR0   PROC$+54
        35 036603   000321 450400 0                  STP0    ST$$+2
        35 036604   011106 701000 35                 TSX1    FILE_ORG
        35 036605   000000 011000                    NOP     0
        35 036606   056641 710000 35                 TRA     s:45674

     6233    39736
     6234    39737    2     CASE(%ACT_ORG_MULTICS_STREAM);

     6235    39738    2          CALL FILE_ORG (ADDR(O1COM.LX_STK(O1COM.LX_TOP)), %MULTICS_STREAM);

  39738 35 036607   000151 236000 xsym               LDQ     O1COM+105
        35 036610   000025 736000                    QLS     21
        35 036611   000631 036000 36                 ADLQ    409
        35 036612   001077 756000 0                  STQ     PROC$+55
        35 036613   000714 236000 36                 LDQ     460
        35 036614   000322 756000 0                  STQ     @ORG$+1
        35 036615   001077 630400 0                  EPPR0   PROC$+55
        35 036616   000321 450400 0                  STP0    ST$$+2
        35 036617   011106 701000 35                 TSX1    FILE_ORG
        35 036620   000000 011000                    NOP     0
        35 036621   056641 710000 35                 TRA     s:45674

     6236    39739
PL6.E3A0      #001=Z8EM$SEMANTICS_DATA_DIV File=Z8EM.:Z8A6TSI                    SAT 08/09/97 12:08 Page:1104
     6237    39740    2     CASE(%ACT_ORG_MULTICS_IND);

     6238    39741    2          CALL FILE_ORG (ADDR(O1COM.LX_STK(O1COM.LX_TOP)), %MULTICS_INDEXED);

  39741 35 036622   000151 236000 xsym               LDQ     O1COM+105
        35 036623   000025 736000                    QLS     21
        35 036624   000631 036000 36                 ADLQ    409
        35 036625   001100 756000 0                  STQ     PROC$+56
        35 036626   000716 236000 36                 LDQ     462
        35 036627   000322 756000 0                  STQ     @ORG$+1
        35 036630   001100 630400 0                  EPPR0   PROC$+56
        35 036631   000321 450400 0                  STP0    ST$$+2
        35 036632   011106 701000 35                 TSX1    FILE_ORG
        35 036633   000000 011000                    NOP     0
        35 036634   056641 710000 35                 TRA     s:45674

     6239    39742
     6240    39743        /*N*
     6241    39744             Are these following bits system dependent?
     6242    39745        */
     6243    39746
     6244    39747    2     CASE(%ACT_WITH_PROCESS_AREA);

     6245    39748    2          CALL ANSI_ATTRIBUTE_CHECK(ADDR(O1COM.LX_STK(O1COM.LX_TOP)));

  39748 35 036635   000151 236000 xsym               LDQ     O1COM+105
        35 036636   000025 736000                    QLS     21
        35 036637   000631 036000 36                 ADLQ    409
        35 036640   001101 756000 0                  STQ     PROC$+57
        35 036641   001101 630400 0                  EPPR0   PROC$+57
        35 036642   000074 450400 0                  STP0    KEY_LIST$+2
        35 036643   001251 701000 35                 TSX1    ANSI_ATTRIBUTE_CHECK
        35 036644   000000 011000                    NOP     0

     6246    39749    2          CALL Z9EM$PROCESS_AREA(ADDR(O1COM.LX_STK(O1COM.LX_TOP)));

  39749 35 036645   000151 236000 xsym               LDQ     O1COM+105
PL6.E3A0      #001=Z8EM$SEMANTICS_DATA_DIV File=Z8EM.:Z8A6TSI                    SAT 08/09/97 12:08 Page:1105
        35 036646   000025 736000                    QLS     21
        35 036647   000631 036000 36                 ADLQ    409
        35 036650   001012 756000 0                  STQ     PROC$+2
        35 036651   001012 630400 0                  EPPR0   PROC$+2
        35 036652   001013 450400 0                  STP0    PROC$+3
        35 036653   001013 630400 0                  EPPR0   PROC$+3
        35 036654   000036 631400 36                 EPPR1   30
        35 036655   000000 701000 xent               TSX1    Z9EM$PROCESS_AREA
        35 036656   000000 011000                    NOP     0
        35 036657   056641 710000 35                 TRA     s:45674

     6247    39750
     6248    39751    2     CASE(%ACT_WITH_NO_PROCESS_AREA);

     6249    39752    2          CALL ANSI_ATTRIBUTE_CHECK(ADDR(O1COM.LX_STK(O1COM.LX_TOP)));

  39752 35 036660   000151 236000 xsym               LDQ     O1COM+105
        35 036661   000025 736000                    QLS     21
        35 036662   000631 036000 36                 ADLQ    409
        35 036663   001102 756000 0                  STQ     PROC$+58
        35 036664   001102 630400 0                  EPPR0   PROC$+58
        35 036665   000074 450400 0                  STP0    KEY_LIST$+2
        35 036666   001251 701000 35                 TSX1    ANSI_ATTRIBUTE_CHECK
        35 036667   000000 011000                    NOP     0

     6250    39753    2          CALL Z9EM$NO_PROCESS_AREA(ADDR(O1COM.LX_STK(O1COM.LX_TOP)));

  39753 35 036670   000151 236000 xsym               LDQ     O1COM+105
        35 036671   000025 736000                    QLS     21
        35 036672   000631 036000 36                 ADLQ    409
        35 036673   001012 756000 0                  STQ     PROC$+2
        35 036674   001012 630400 0                  EPPR0   PROC$+2
        35 036675   001013 450400 0                  STP0    PROC$+3
        35 036676   001013 630400 0                  EPPR0   PROC$+3
        35 036677   000036 631400 36                 EPPR1   30
        35 036700   000000 701000 xent               TSX1    Z9EM$NO_PROCESS_AREA
        35 036701   000000 011000                    NOP     0
PL6.E3A0      #001=Z8EM$SEMANTICS_DATA_DIV File=Z8EM.:Z8A6TSI                    SAT 08/09/97 12:08 Page:1106
        35 036702   056641 710000 35                 TRA     s:45674

     6251    39754
     6252    39755    2     CASE(%ACT_WITH_BSN);

     6253    39756    2          CALL ANSI_ATTRIBUTE_CHECK(ADDR(O1COM.LX_STK(O1COM.LX_TOP)));

  39756 35 036703   000151 236000 xsym               LDQ     O1COM+105
        35 036704   000025 736000                    QLS     21
        35 036705   000631 036000 36                 ADLQ    409
        35 036706   001103 756000 0                  STQ     PROC$+59
        35 036707   001103 630400 0                  EPPR0   PROC$+59
        35 036710   000074 450400 0                  STP0    KEY_LIST$+2
        35 036711   001251 701000 35                 TSX1    ANSI_ATTRIBUTE_CHECK
        35 036712   000000 011000                    NOP     0

     6254    39757    2          CALL Z9EM$WITH_BSN    (ADDR(O1COM.LX_STK(O1COM.LX_TOP)));

  39757 35 036713   000151 236000 xsym               LDQ     O1COM+105
        35 036714   000025 736000                    QLS     21
        35 036715   000631 036000 36                 ADLQ    409
        35 036716   001012 756000 0                  STQ     PROC$+2
        35 036717   001012 630400 0                  EPPR0   PROC$+2
        35 036720   001013 450400 0                  STP0    PROC$+3
        35 036721   001013 630400 0                  EPPR0   PROC$+3
        35 036722   000036 631400 36                 EPPR1   30
        35 036723   000000 701000 xent               TSX1    Z9EM$WITH_BSN
        35 036724   000000 011000                    NOP     0
        35 036725   056641 710000 35                 TRA     s:45674

     6255    39758
     6256    39759    2     CASE(%ACT_WITH_FLR);

     6257    39760    2          CALL ANSI_ATTRIBUTE_CHECK(ADDR(O1COM.LX_STK(O1COM.LX_TOP)));

  39760 35 036726   000151 236000 xsym               LDQ     O1COM+105
        35 036727   000025 736000                    QLS     21
PL6.E3A0      #001=Z8EM$SEMANTICS_DATA_DIV File=Z8EM.:Z8A6TSI                    SAT 08/09/97 12:08 Page:1107
        35 036730   000631 036000 36                 ADLQ    409
        35 036731   001104 756000 0                  STQ     PROC$+60
        35 036732   001104 630400 0                  EPPR0   PROC$+60
        35 036733   000074 450400 0                  STP0    KEY_LIST$+2
        35 036734   001251 701000 35                 TSX1    ANSI_ATTRIBUTE_CHECK
        35 036735   000000 011000                    NOP     0

     6258    39761    2          IF O1COM.CURRENT_FILE_LTS$ -> FILE_LTS.B.FLR THEN

  39761 35 036736   000045 470400 xsym               LDP0    O1COM+37
        35 036737   000017 236100                    LDQ     15,,PR0
        35 036740   020000 316003                    CANQ    8192,DU
        35 036741   036774 600000 35                 TZE     s:39799

     6259    39762    3            DO;

     6260    39763    3              P$ = ADDR(O1COM.LX_STK(O1COM.LX_TOP));

  39763 35 036742   000151 236000 xsym               LDQ     O1COM+105
        35 036743   000025 736000                    QLS     21
        35 036744   000631 036000 36                 ADLQ    409
        35 036745   000021 756000 0                  STQ     P$

     6261    39764                   %CONDITIONAL_ERROR (@LX_ITEM$ = P$,
     6262    39765                                       @ERROR#   = %E$DUP_DD_CLAUSE,
     6263    39766                                       @LINE     = P$ -> LX_ITEM.LINE,
     6264    39767                                       @COLUMN   = P$ -> LX_ITEM.COLUMN,
     6265    39768                                       @PLUG1    = P$ -> LX_ITEM.DNT$);

  39778 35 036746   000021 471400 0                  LDP1    P$
        35 036747   100000 236100                    LDQ     0,,PR1
        35 036750   400000 316007                    CANQ    -131072,DL
        35 036751   056641 601000 35                 TNZ     s:45674

  39780 35 036752   000021 236000 0                  LDQ     P$
        35 036753   000002 036003                    ADLQ    2,DU
        35 036754   001015 756000 0                  STQ     PROC$+5
PL6.E3A0      #001=Z8EM$SEMANTICS_DATA_DIV File=Z8EM.:Z8A6TSI                    SAT 08/09/97 12:08 Page:1108
        35 036755   000021 236000 0                  LDQ     P$
        35 036756   000006 036003                    ADLQ    6,DU
        35 036757   001014 756000 0                  STQ     PROC$+4
        35 036760   000021 236000 0                  LDQ     P$
        35 036761   000005 036003                    ADLQ    5,DU
        35 036762   000010 235000 36                 LDA     8
        35 036763   001012 757000 0                  STAQ    PROC$+2
        35 036764   001012 630400 0                  EPPR0   PROC$+2
        35 036765   000005 631400 36                 EPPR1   5
        35 036766   000000 701000 xent               TSX1    Z8AE$ERROR
        35 036767   000000 011000                    NOP     0

  39789 35 036770   000021 470400 0                  LDP0    P$
        35 036771   400000 236007                    LDQ     -131072,DL
        35 036772   000000 256100                    ORSQ    0,,PR0

     6266    39798    3            END;

  39798 35 036773   056641 710000 35                 TRA     s:45674

     6267    39799    2          ELSE IF O1COM.CURRENT_FILE_LTS$ -> FILE_LTS.B.VLR

  39799 35 036774   010000 316003                    CANQ    4096,DU
        35 036775   037000 601000 35                 TNZ     s:39802
        35 036776   000017 430100                    FSZN    15,,PR0
        35 036777   037031 605000 35                 TPL     s:39812

     6268    39800    2               OR O1COM.CURRENT_FILE_LTS$ -> FILE_LTS.B.SPANNED THEN
     6269    39801    3            DO;

     6270    39802    3              IF O1COM.CURRENT_FILE_LTS$ -> FILE_LTS.B.VLR

  39802 35 037000   010000 316003                    CANQ    4096,DU
        35 037001   037005 600000 35                 TZE     s:39804

     6271    39803    3                THEN I = %RSV_WRD_VLR;

PL6.E3A0      #001=Z8EM$SEMANTICS_DATA_DIV File=Z8EM.:Z8A6TSI                    SAT 08/09/97 12:08 Page:1109
  39803 35 037002   000751 235007                    LDA     489,DL
        35 037003   000017 755000 0                  STA     I
        35 037004   037007 710000 35                 TRA     s:39805

     6272    39804    3                ELSE I = %RSV_WRD_SPANNED;

  39804 35 037005   000651 235007                    LDA     425,DL
        35 037006   000017 755000 0                  STA     I

     6273    39805    3              CALL Z8AE$ERROR (%E$INCOMPATIBLE_ATTRIB,

  39805 35 037007   000000 631405 xsym               EPPR1   DNT$_FROM_RSWNO,AL
        35 037010   001016 451400 0                  STP1    PROC$+6
        35 037011   000720 236000 36                 LDQ     464
        35 037012   001015 756000 0                  STQ     PROC$+5
        35 037013   000151 236000 xsym               LDQ     O1COM+105
        35 037014   000025 736000                    QLS     21
        35 037015   000662 036000 36                 ADLQ    434
        35 037016   001014 756000 0                  STQ     PROC$+4
        35 037017   000151 236000 xsym               LDQ     O1COM+105
        35 037020   000025 736000                    QLS     21
        35 037021   000663 036000 36                 ADLQ    435
        35 037022   000721 235000 36                 LDA     465
        35 037023   001012 757000 0                  STAQ    PROC$+2
        35 037024   001012 630400 0                  EPPR0   PROC$+2
        35 037025   000327 631400 36                 EPPR1   215
        35 037026   000000 701000 xent               TSX1    Z8AE$ERROR
        35 037027   000000 011000                    NOP     0

     6274    39806    3                               O1COM.LX_STK.LINE(O1COM.LX_TOP),
     6275    39807    3                               O1COM.LX_STK.COLUMN(O1COM.LX_TOP),
     6276    39808    3                               DNT$_FROM_RSWNO(%RSV_WRD_FLR),
     6277    39809    3                               DNT$_FROM_RSWNO(I));
     6278    39810    3            END;

  39810 35 037030   056641 710000 35                 TRA     s:45674

PL6.E3A0      #001=Z8EM$SEMANTICS_DATA_DIV File=Z8EM.:Z8A6TSI                    SAT 08/09/97 12:08 Page:1110
     6279    39811    2          ELSE
     6280    39812    2            O1COM.CURRENT_FILE_LTS$ -> FILE_LTS.B.FLR = TRUE;

  39812 35 037031   020000 236003                    LDQ     8192,DU
        35 037032   000017 256100                    ORSQ    15,,PR0
        35 037033   056641 710000 35                 TRA     s:45674

     6281    39813
     6282    39814    2     CASE(%ACT_WITH_VLR);

     6283    39815    2          CALL ANSI_ATTRIBUTE_CHECK(ADDR(O1COM.LX_STK(O1COM.LX_TOP)));

  39815 35 037034   000151 236000 xsym               LDQ     O1COM+105
        35 037035   000025 736000                    QLS     21
        35 037036   000631 036000 36                 ADLQ    409
        35 037037   001105 756000 0                  STQ     PROC$+61
        35 037040   001105 630400 0                  EPPR0   PROC$+61
        35 037041   000074 450400 0                  STP0    KEY_LIST$+2
        35 037042   001251 701000 35                 TSX1    ANSI_ATTRIBUTE_CHECK
        35 037043   000000 011000                    NOP     0

     6284    39816    2          IF O1COM.CURRENT_FILE_LTS$ -> FILE_LTS.B.VLR THEN

  39816 35 037044   000045 470400 xsym               LDP0    O1COM+37
        35 037045   000017 236100                    LDQ     15,,PR0
        35 037046   010000 316003                    CANQ    4096,DU
        35 037047   037102 600000 35                 TZE     s:39854

     6285    39817    3            DO;

     6286    39818    3              P$ = ADDR(O1COM.LX_STK(O1COM.LX_TOP));

  39818 35 037050   000151 236000 xsym               LDQ     O1COM+105
        35 037051   000025 736000                    QLS     21
        35 037052   000631 036000 36                 ADLQ    409
        35 037053   000021 756000 0                  STQ     P$

PL6.E3A0      #001=Z8EM$SEMANTICS_DATA_DIV File=Z8EM.:Z8A6TSI                    SAT 08/09/97 12:08 Page:1111
     6287    39819                   %CONDITIONAL_ERROR (@LX_ITEM$ = P$,
     6288    39820                                       @ERROR#   = %E$DUP_DD_CLAUSE,
     6289    39821                                       @LINE     = P$ -> LX_ITEM.LINE,
     6290    39822                                       @COLUMN   = P$ -> LX_ITEM.COLUMN,
     6291    39823                                       @PLUG1    = P$ -> LX_ITEM.DNT$);

  39833 35 037054   000021 471400 0                  LDP1    P$
        35 037055   100000 236100                    LDQ     0,,PR1
        35 037056   400000 316007                    CANQ    -131072,DL
        35 037057   056641 601000 35                 TNZ     s:45674

  39835 35 037060   000021 236000 0                  LDQ     P$
        35 037061   000002 036003                    ADLQ    2,DU
        35 037062   001015 756000 0                  STQ     PROC$+5
        35 037063   000021 236000 0                  LDQ     P$
        35 037064   000006 036003                    ADLQ    6,DU
        35 037065   001014 756000 0                  STQ     PROC$+4
        35 037066   000021 236000 0                  LDQ     P$
        35 037067   000005 036003                    ADLQ    5,DU
        35 037070   000010 235000 36                 LDA     8
        35 037071   001012 757000 0                  STAQ    PROC$+2
        35 037072   001012 630400 0                  EPPR0   PROC$+2
        35 037073   000005 631400 36                 EPPR1   5
        35 037074   000000 701000 xent               TSX1    Z8AE$ERROR
        35 037075   000000 011000                    NOP     0

  39844 35 037076   000021 470400 0                  LDP0    P$
        35 037077   400000 236007                    LDQ     -131072,DL
        35 037100   000000 256100                    ORSQ    0,,PR0

     6292    39853    3            END;

  39853 35 037101   056641 710000 35                 TRA     s:45674

     6293    39854    2          ELSE IF O1COM.CURRENT_FILE_LTS$ -> FILE_LTS.B.FLR

  39854 35 037102   020000 316003                    CANQ    8192,DU
PL6.E3A0      #001=Z8EM$SEMANTICS_DATA_DIV File=Z8EM.:Z8A6TSI                    SAT 08/09/97 12:08 Page:1112
        35 037103   037106 601000 35                 TNZ     s:39857
        35 037104   000017 430100                    FSZN    15,,PR0
        35 037105   037137 605000 35                 TPL     s:39867

     6294    39855    2               OR O1COM.CURRENT_FILE_LTS$ -> FILE_LTS.B.SPANNED THEN
     6295    39856    3            DO;

     6296    39857    3              IF O1COM.CURRENT_FILE_LTS$ -> FILE_LTS.B.FLR

  39857 35 037106   020000 316003                    CANQ    8192,DU
        35 037107   037113 600000 35                 TZE     s:39859

     6297    39858    3                THEN I = %RSV_WRD_FLR;

  39858 35 037110   000325 235007                    LDA     213,DL
        35 037111   000017 755000 0                  STA     I
        35 037112   037115 710000 35                 TRA     s:39860

     6298    39859    3                ELSE I = %RSV_WRD_SPANNED;

  39859 35 037113   000651 235007                    LDA     425,DL
        35 037114   000017 755000 0                  STA     I

     6299    39860    3              CALL Z8AE$ERROR (%E$INCOMPATIBLE_ATTRIB,

  39860 35 037115   000000 631405 xsym               EPPR1   DNT$_FROM_RSWNO,AL
        35 037116   001016 451400 0                  STP1    PROC$+6
        35 037117   000722 236000 36                 LDQ     466
        35 037120   001015 756000 0                  STQ     PROC$+5
        35 037121   000151 236000 xsym               LDQ     O1COM+105
        35 037122   000025 736000                    QLS     21
        35 037123   000662 036000 36                 ADLQ    434
        35 037124   001014 756000 0                  STQ     PROC$+4
        35 037125   000151 236000 xsym               LDQ     O1COM+105
        35 037126   000025 736000                    QLS     21
        35 037127   000663 036000 36                 ADLQ    435
        35 037130   000721 235000 36                 LDA     465
PL6.E3A0      #001=Z8EM$SEMANTICS_DATA_DIV File=Z8EM.:Z8A6TSI                    SAT 08/09/97 12:08 Page:1113
        35 037131   001012 757000 0                  STAQ    PROC$+2
        35 037132   001012 630400 0                  EPPR0   PROC$+2
        35 037133   000327 631400 36                 EPPR1   215
        35 037134   000000 701000 xent               TSX1    Z8AE$ERROR
        35 037135   000000 011000                    NOP     0

     6300    39861    3                               O1COM.LX_STK.LINE(O1COM.LX_TOP),
     6301    39862    3                               O1COM.LX_STK.COLUMN(O1COM.LX_TOP),
     6302    39863    3                               DNT$_FROM_RSWNO(%RSV_WRD_VLR),
     6303    39864    3                               DNT$_FROM_RSWNO(I));
     6304    39865    3            END;

  39865 35 037136   056641 710000 35                 TRA     s:45674

     6305    39866    2          ELSE
     6306    39867    2            O1COM.CURRENT_FILE_LTS$ -> FILE_LTS.B.VLR = TRUE;

  39867 35 037137   010000 236003                    LDQ     4096,DU
        35 037140   000017 256100                    ORSQ    15,,PR0
        35 037141   056641 710000 35                 TRA     s:45674

     6307    39868
     6308    39869    2     CASE(%ACT_WITH_SSF);

     6309    39870    2          CALL ANSI_ATTRIBUTE_CHECK(ADDR(O1COM.LX_STK(O1COM.LX_TOP)));

  39870 35 037142   000151 236000 xsym               LDQ     O1COM+105
        35 037143   000025 736000                    QLS     21
        35 037144   000631 036000 36                 ADLQ    409
        35 037145   001106 756000 0                  STQ     PROC$+62
        35 037146   001106 630400 0                  EPPR0   PROC$+62
        35 037147   000074 450400 0                  STP0    KEY_LIST$+2
        35 037150   001251 701000 35                 TSX1    ANSI_ATTRIBUTE_CHECK
        35 037151   000000 011000                    NOP     0

     6310    39871    2          CALL Z9EM$WITH_SSF    (ADDR(O1COM.LX_STK(O1COM.LX_TOP)));

PL6.E3A0      #001=Z8EM$SEMANTICS_DATA_DIV File=Z8EM.:Z8A6TSI                    SAT 08/09/97 12:08 Page:1114
  39871 35 037152   000151 236000 xsym               LDQ     O1COM+105
        35 037153   000025 736000                    QLS     21
        35 037154   000631 036000 36                 ADLQ    409
        35 037155   001012 756000 0                  STQ     PROC$+2
        35 037156   001012 630400 0                  EPPR0   PROC$+2
        35 037157   001013 450400 0                  STP0    PROC$+3
        35 037160   001013 630400 0                  EPPR0   PROC$+3
        35 037161   000036 631400 36                 EPPR1   30
        35 037162   000000 701000 xent               TSX1    Z9EM$WITH_SSF
        35 037163   000000 011000                    NOP     0
        35 037164   056641 710000 35                 TRA     s:45674

     6311    39872
     6312    39873    2     CASE(%ACT_WITH_UNBANNERED);

     6313    39874    2          CALL ANSI_ATTRIBUTE_CHECK(ADDR(O1COM.LX_STK(O1COM.LX_TOP)));

  39874 35 037165   000151 236000 xsym               LDQ     O1COM+105
        35 037166   000025 736000                    QLS     21
        35 037167   000631 036000 36                 ADLQ    409
        35 037170   001107 756000 0                  STQ     PROC$+63
        35 037171   001107 630400 0                  EPPR0   PROC$+63
        35 037172   000074 450400 0                  STP0    KEY_LIST$+2
        35 037173   001251 701000 35                 TSX1    ANSI_ATTRIBUTE_CHECK
        35 037174   000000 011000                    NOP     0

     6314    39875    2          CALL Z9EM$WITH_UNBANNERED (ADDR(O1COM.LX_STK(O1COM.LX_TOP)));

  39875 35 037175   000151 236000 xsym               LDQ     O1COM+105
        35 037176   000025 736000                    QLS     21
        35 037177   000631 036000 36                 ADLQ    409
        35 037200   001012 756000 0                  STQ     PROC$+2
        35 037201   001012 630400 0                  EPPR0   PROC$+2
        35 037202   001013 450400 0                  STP0    PROC$+3
        35 037203   001013 630400 0                  EPPR0   PROC$+3
        35 037204   000036 631400 36                 EPPR1   30
        35 037205   000000 701000 xent               TSX1    Z9EM$WITH_UNBANNERED
PL6.E3A0      #001=Z8EM$SEMANTICS_DATA_DIV File=Z8EM.:Z8A6TSI                    SAT 08/09/97 12:08 Page:1115
        35 037206   000000 011000                    NOP     0
        35 037207   056641 710000 35                 TRA     s:45674

     6315    39876
     6316    39877    2     CASE(%ACT_WITH_SPANNED);

     6317    39878    2          CALL ANSI_ATTRIBUTE_CHECK(ADDR(O1COM.LX_STK(O1COM.LX_TOP)));

  39878 35 037210   000151 236000 xsym               LDQ     O1COM+105
        35 037211   000025 736000                    QLS     21
        35 037212   000631 036000 36                 ADLQ    409
        35 037213   001110 756000 0                  STQ     PROC$+64
        35 037214   001110 630400 0                  EPPR0   PROC$+64
        35 037215   000074 450400 0                  STP0    KEY_LIST$+2
        35 037216   001251 701000 35                 TSX1    ANSI_ATTRIBUTE_CHECK
        35 037217   000000 011000                    NOP     0

     6318    39879    2          IF O1COM.CURRENT_FILE_LTS$ -> FILE_LTS.B.SPANNED THEN

  39879 35 037220   000045 470400 xsym               LDP0    O1COM+37
        35 037221   000017 430100                    FSZN    15,,PR0
        35 037222   037255 605000 35                 TPL     s:39917

     6319    39880    3            DO;

     6320    39881    3              P$ = ADDR(O1COM.LX_STK(O1COM.LX_TOP));

  39881 35 037223   000151 236000 xsym               LDQ     O1COM+105
        35 037224   000025 736000                    QLS     21
        35 037225   000631 036000 36                 ADLQ    409
        35 037226   000021 756000 0                  STQ     P$

     6321    39882                   %CONDITIONAL_ERROR (@LX_ITEM$ = P$,
     6322    39883                                       @ERROR#   = %E$DUP_DD_CLAUSE,
     6323    39884                                       @LINE     = P$ -> LX_ITEM.LINE,
     6324    39885                                       @COLUMN   = P$ -> LX_ITEM.COLUMN,
     6325    39886                                       @PLUG1    = P$ -> LX_ITEM.DNT$);
PL6.E3A0      #001=Z8EM$SEMANTICS_DATA_DIV File=Z8EM.:Z8A6TSI                    SAT 08/09/97 12:08 Page:1116

  39896 35 037227   000021 471400 0                  LDP1    P$
        35 037230   100000 236100                    LDQ     0,,PR1
        35 037231   400000 316007                    CANQ    -131072,DL
        35 037232   056641 601000 35                 TNZ     s:45674

  39898 35 037233   000021 236000 0                  LDQ     P$
        35 037234   000002 036003                    ADLQ    2,DU
        35 037235   001015 756000 0                  STQ     PROC$+5
        35 037236   000021 236000 0                  LDQ     P$
        35 037237   000006 036003                    ADLQ    6,DU
        35 037240   001014 756000 0                  STQ     PROC$+4
        35 037241   000021 236000 0                  LDQ     P$
        35 037242   000005 036003                    ADLQ    5,DU
        35 037243   000010 235000 36                 LDA     8
        35 037244   001012 757000 0                  STAQ    PROC$+2
        35 037245   001012 630400 0                  EPPR0   PROC$+2
        35 037246   000005 631400 36                 EPPR1   5
        35 037247   000000 701000 xent               TSX1    Z8AE$ERROR
        35 037250   000000 011000                    NOP     0

  39907 35 037251   000021 470400 0                  LDP0    P$
        35 037252   400000 236007                    LDQ     -131072,DL
        35 037253   000000 256100                    ORSQ    0,,PR0

     6326    39916    3            END;

  39916 35 037254   056641 710000 35                 TRA     s:45674

     6327    39917    2          ELSE IF O1COM.CURRENT_FILE_LTS$ -> FILE_LTS.B.FLR

  39917 35 037255   000017 236100                    LDQ     15,,PR0
        35 037256   020000 316003                    CANQ    8192,DU
        35 037257   037262 601000 35                 TNZ     s:39920
        35 037260   010000 316003                    CANQ    4096,DU
        35 037261   037313 600000 35                 TZE     s:39930

PL6.E3A0      #001=Z8EM$SEMANTICS_DATA_DIV File=Z8EM.:Z8A6TSI                    SAT 08/09/97 12:08 Page:1117
     6328    39918    2               OR O1COM.CURRENT_FILE_LTS$ -> FILE_LTS.B.VLR THEN
     6329    39919    3            DO;

     6330    39920    3              IF O1COM.CURRENT_FILE_LTS$ -> FILE_LTS.B.FLR

  39920 35 037262   020000 316003                    CANQ    8192,DU
        35 037263   037267 600000 35                 TZE     s:39922

     6331    39921    3                THEN I = %RSV_WRD_FLR;

  39921 35 037264   000325 235007                    LDA     213,DL
        35 037265   000017 755000 0                  STA     I
        35 037266   037271 710000 35                 TRA     s:39923

     6332    39922    3                ELSE I = %RSV_WRD_VLR;

  39922 35 037267   000751 235007                    LDA     489,DL
        35 037270   000017 755000 0                  STA     I

     6333    39923    3              CALL Z8AE$ERROR (%E$INCOMPATIBLE_ATTRIB,

  39923 35 037271   000000 631405 xsym               EPPR1   DNT$_FROM_RSWNO,AL
        35 037272   001016 451400 0                  STP1    PROC$+6
        35 037273   000723 236000 36                 LDQ     467
        35 037274   001015 756000 0                  STQ     PROC$+5
        35 037275   000151 236000 xsym               LDQ     O1COM+105
        35 037276   000025 736000                    QLS     21
        35 037277   000662 036000 36                 ADLQ    434
        35 037300   001014 756000 0                  STQ     PROC$+4
        35 037301   000151 236000 xsym               LDQ     O1COM+105
        35 037302   000025 736000                    QLS     21
        35 037303   000663 036000 36                 ADLQ    435
        35 037304   000721 235000 36                 LDA     465
        35 037305   001012 757000 0                  STAQ    PROC$+2
        35 037306   001012 630400 0                  EPPR0   PROC$+2
        35 037307   000327 631400 36                 EPPR1   215
        35 037310   000000 701000 xent               TSX1    Z8AE$ERROR
PL6.E3A0      #001=Z8EM$SEMANTICS_DATA_DIV File=Z8EM.:Z8A6TSI                    SAT 08/09/97 12:08 Page:1118
        35 037311   000000 011000                    NOP     0

     6334    39924    3                               O1COM.LX_STK.LINE(O1COM.LX_TOP),
     6335    39925    3                               O1COM.LX_STK.COLUMN(O1COM.LX_TOP),
     6336    39926    3                               DNT$_FROM_RSWNO(%RSV_WRD_SPANNED),
     6337    39927    3                               DNT$_FROM_RSWNO(I));
     6338    39928    3            END;

  39928 35 037312   056641 710000 35                 TRA     s:45674

     6339    39929    2          ELSE
     6340    39930    2            O1COM.CURRENT_FILE_LTS$ -> FILE_LTS.B.SPANNED = TRUE;

  39930 35 037313   001000 236003                    LDQ     512,DU
        35 037314   000017 256100                    ORSQ    15,,PR0
        35 037315   056641 710000 35                 TRA     s:45674

     6341    39931
     6342    39932    2     CASE(%ACT_WITH_DUPLICATES);

     6343    39933    2          CALL WITH_DUPLICATES (ADDR(O1COM.LX_STK(O1COM.LX_TOP)));

  39933 35 037316   000151 236000 xsym               LDQ     O1COM+105
        35 037317   000025 736000                    QLS     21
        35 037320   000631 036000 36                 ADLQ    409
        35 037321   001111 756000 0                  STQ     PROC$+65
        35 037322   001111 630400 0                  EPPR0   PROC$+65
        35 037323   001004 450400 0                  STP0    VALUE+2
        35 037324   033237 701000 35                 TSX1    WITH_DUPLICATES
        35 037325   000000 011000                    NOP     0
        35 037326   056641 710000 35                 TRA     s:45674

     6344    39934
     6345    39935    2     CASE(%ACT_REPORT_CODE_CLAUSE);

     6346    39936    2          CALL ANSI_ATTRIBUTE_CHECK(ADDR(O1COM.LX_STK(O1COM.LX_TOP-3)));

PL6.E3A0      #001=Z8EM$SEMANTICS_DATA_DIV File=Z8EM.:Z8A6TSI                    SAT 08/09/97 12:08 Page:1119
  39936 35 037327   000151 236000 xsym               LDQ     O1COM+105
        35 037330   000025 736000                    QLS     21
        35 037331   000241 036000 36                 ADLQ    161
        35 037332   001112 756000 0                  STQ     PROC$+66
        35 037333   001112 630400 0                  EPPR0   PROC$+66
        35 037334   000074 450400 0                  STP0    KEY_LIST$+2
        35 037335   001251 701000 35                 TSX1    ANSI_ATTRIBUTE_CHECK
        35 037336   000000 011000                    NOP     0

     6347    39937    2          CALL Z9EM$REPORT_CODE (ADDR(O1COM.LX_STK(O1COM.LX_TOP)));

  39937 35 037337   000151 236000 xsym               LDQ     O1COM+105
        35 037340   000025 736000                    QLS     21
        35 037341   000631 036000 36                 ADLQ    409
        35 037342   001012 756000 0                  STQ     PROC$+2
        35 037343   001012 630400 0                  EPPR0   PROC$+2
        35 037344   001013 450400 0                  STP0    PROC$+3
        35 037345   001013 630400 0                  EPPR0   PROC$+3
        35 037346   000036 631400 36                 EPPR1   30
        35 037347   000000 701000 xent               TSX1    Z9EM$REPORT_CODE
        35 037350   000000 011000                    NOP     0
        35 037351   056641 710000 35                 TRA     s:45674

     6348    39938
     6349    39939    2     CASE(%ACT_RECORD_DELIM_STD);

     6350    39940    3          IF COMCOM.OB.FIPS.LEVEL >= %INT_LEV THEN DO;

  39940 35 037352   000036 720000 xsym               LXL0    COMCOM+30
        35 037353   000002 100003                    CMPX0   2,DU
        35 037354   037372 604000 35                 TMI     s:39945

     6351    39941    3            CALL Z8AE$ERROR (%E$LEVEL_CHECK,

  39941 35 037355   000151 236000 xsym               LDQ     O1COM+105
        35 037356   000025 736000                    QLS     21
        35 037357   000100 036000 36                 ADLQ    64
PL6.E3A0      #001=Z8EM$SEMANTICS_DATA_DIV File=Z8EM.:Z8A6TSI                    SAT 08/09/97 12:08 Page:1120
        35 037360   001014 756000 0                  STQ     PROC$+4
        35 037361   000151 236000 xsym               LDQ     O1COM+105
        35 037362   000025 736000                    QLS     21
        35 037363   000101 036000 36                 ADLQ    65
        35 037364   000004 235000 36                 LDA     4
        35 037365   001012 757000 0                  STAQ    PROC$+2
        35 037366   001012 630400 0                  EPPR0   PROC$+2
        35 037367   000000 631400 36                 EPPR1   0
        35 037370   000000 701000 xent               TSX1    Z8AE$ERROR
        35 037371   000000 011000                    NOP     0

     6352    39942    3                             O1COM.LX_STK.LINE(O1COM.LX_TOP - 3),
     6353    39943    3                             O1COM.LX_STK.COLUMN(O1COM.LX_TOP - 3));
     6354    39944    3          END;

     6355    39945    2          CALL RECORD_DELIM (ADDR(O1COM.LX_STK(O1COM.LX_TOP)));

  39945 35 037372   000151 236000 xsym               LDQ     O1COM+105
        35 037373   000025 736000                    QLS     21
        35 037374   000631 036000 36                 ADLQ    409
        35 037375   001113 756000 0                  STQ     PROC$+67
        35 037376   001113 630400 0                  EPPR0   PROC$+67
        35 037377   000625 450400 0                  STP0    P$+2
        35 037400   026532 701000 35                 TSX1    RECORD_DELIM
        35 037401   000000 011000                    NOP     0
        35 037402   056641 710000 35                 TRA     s:45674

     6356    39946
     6357    39947    2     CASE(%ACT_PADDING_CHAR);

     6358    39948    3          IF COMCOM.OB.FIPS.LEVEL >= %INT_LEV THEN DO;

  39948 35 037403   000036 720000 xsym               LXL0    COMCOM+30
        35 037404   000002 100003                    CMPX0   2,DU
        35 037405   037423 604000 35                 TMI     s:39953

     6359    39949    3            CALL Z8AE$ERROR (%E$LEVEL_CHECK,
PL6.E3A0      #001=Z8EM$SEMANTICS_DATA_DIV File=Z8EM.:Z8A6TSI                    SAT 08/09/97 12:08 Page:1121

  39949 35 037406   000151 236000 xsym               LDQ     O1COM+105
        35 037407   000025 736000                    QLS     21
        35 037410   000100 036000 36                 ADLQ    64
        35 037411   001014 756000 0                  STQ     PROC$+4
        35 037412   000151 236000 xsym               LDQ     O1COM+105
        35 037413   000025 736000                    QLS     21
        35 037414   000101 036000 36                 ADLQ    65
        35 037415   000004 235000 36                 LDA     4
        35 037416   001012 757000 0                  STAQ    PROC$+2
        35 037417   001012 630400 0                  EPPR0   PROC$+2
        35 037420   000000 631400 36                 EPPR1   0
        35 037421   000000 701000 xent               TSX1    Z8AE$ERROR
        35 037422   000000 011000                    NOP     0

     6360    39950    3                             O1COM.LX_STK.LINE(O1COM.LX_TOP - 3),
     6361    39951    3                             O1COM.LX_STK.COLUMN(O1COM.LX_TOP - 3));
     6362    39952    3          END;

     6363    39953    2          CALL PAD_CHAR_LINAGE (ADDR(O1COM.LX_STK(O1COM.LX_TOP)),

  39953 35 037423   000151 236000 xsym               LDQ     O1COM+105
        35 037424   000025 736000                    QLS     21
        35 037425   000631 036000 36                 ADLQ    409
        35 037426   001114 756000 0                  STQ     PROC$+68
        35 037427   000725 236000 36                 LDQ     469
        35 037430   000455 756000 0                  STQ     @FIELD$+1
        35 037431   000045 236000 xsym               LDQ     O1COM+37
        35 037432   000007 036003                    ADLQ    7,DU
        35 037433   000454 756000 0                  STQ     @ITEM$+1
        35 037434   001114 630400 0                  EPPR0   PROC$+68
        35 037435   000453 450400 0                  STP0    FILE$+2
        35 037436   021025 701000 35                 TSX1    PAD_CHAR_LINAGE
        35 037437   000000 011000                    NOP     0
        35 037440   056641 710000 35                 TRA     s:45674

     6364    39954    2                                O1COM.CURRENT_FILE_LTS$ -> FILE_LTS.PAD_CHAR$,
PL6.E3A0      #001=Z8EM$SEMANTICS_DATA_DIV File=Z8EM.:Z8A6TSI                    SAT 08/09/97 12:08 Page:1122
     6365    39955    2                                %RSV_WRD_PADDING);
     6366    39956
     6367    39957    2     CASE(%ACT_RELATIVE_KEY);

     6368    39958    2          CALL CHECK_SEQ_ORG (ADDR(O1COM.LX_STK(O1COM.LX_TOP)) -> LX_LIST.HEAD$)

  39958 35 037441   000151 236000 xsym               LDQ     O1COM+105
        35 037442   000025 736000                    QLS     21
        35 037443   000674 036000 36                 ADLQ    444
        35 037444   000171 756000 0                  STQ     @TERMINAL$+2
        35 037445   004106 701000 35                 TSX1    CHECK_SEQ_ORG
        35 037446   037450 702000 35                 TSX2    s:39961
        35 037447   037461 710000 35                 TRA     s:39966

     6369    39959    2            WHENALTRETURN
     6370    39960    3              DO;

     6371    39961    3                CALL Z8ED$DISPOSE_ABSSYN_TREE (ADDR(O1COM.LX_STK(O1COM.LX_TOP)) ->

  39961 35 037450   000151 236000 xsym               LDQ     O1COM+105
        35 037451   000025 736000                    QLS     21
        35 037452   000674 036000 36                 ADLQ    444
        35 037453   001012 756000 0                  STQ     PROC$+2
        35 037454   001012 630400 0                  EPPR0   PROC$+2
        35 037455   000036 631400 36                 EPPR1   30
        35 037456   000000 701000 xent               TSX1    Z8ED$DISPOSE_ABSSYN_TREE
        35 037457   000000 011000                    NOP     0

     6372    39962    3                                               LX_LIST.HEAD$);
     6373    39963    3                EXIT SEMANTIC_ACTION_CASE;

  39963 35 037460   056641 710000 35                 TRA     s:45674

     6374    39964    3              END;
     6375    39965
     6376    39966    2          CALL CHECK_IND_ORG (ADDR(O1COM.LX_STK(O1COM.LX_TOP)) -> LX_LIST.HEAD$)

PL6.E3A0      #001=Z8EM$SEMANTICS_DATA_DIV File=Z8EM.:Z8A6TSI                    SAT 08/09/97 12:08 Page:1123
  39966 35 037461   000151 236000 xsym               LDQ     O1COM+105
        35 037462   000025 736000                    QLS     21
        35 037463   000674 036000 36                 ADLQ    444
        35 037464   000161 756000 0                  STQ     FILE$+2
        35 037465   003607 701000 35                 TSX1    CHECK_IND_ORG
        35 037466   037470 702000 35                 TSX2    s:39969
        35 037467   037501 710000 35                 TRA     s:39974

     6377    39967    2            WHENALTRETURN
     6378    39968    3              DO;

     6379    39969    3                CALL Z8ED$DISPOSE_ABSSYN_TREE (ADDR(O1COM.LX_STK(O1COM.LX_TOP)) ->

  39969 35 037470   000151 236000 xsym               LDQ     O1COM+105
        35 037471   000025 736000                    QLS     21
        35 037472   000674 036000 36                 ADLQ    444
        35 037473   001012 756000 0                  STQ     PROC$+2
        35 037474   001012 630400 0                  EPPR0   PROC$+2
        35 037475   000036 631400 36                 EPPR1   30
        35 037476   000000 701000 xent               TSX1    Z8ED$DISPOSE_ABSSYN_TREE
        35 037477   000000 011000                    NOP     0

     6380    39970    3                                               LX_LIST.HEAD$);
     6381    39971    3                EXIT SEMANTIC_ACTION_CASE;

  39971 35 037500   056641 710000 35                 TRA     s:45674

     6382    39972    3              END;
     6383    39973
     6384    39974    2          CALL CHECK_KEY_ORG (ADDR(O1COM.LX_STK(O1COM.LX_TOP)) -> LX_LIST.HEAD$)

  39974 35 037501   000151 236000 xsym               LDQ     O1COM+105
        35 037502   000025 736000                    QLS     21
        35 037503   000674 036000 36                 ADLQ    444
        35 037504   000163 756000 0                  STQ     @TERMINAL$+2
        35 037505   003671 701000 35                 TSX1    CHECK_KEY_ORG
        35 037506   037510 702000 35                 TSX2    s:39977
PL6.E3A0      #001=Z8EM$SEMANTICS_DATA_DIV File=Z8EM.:Z8A6TSI                    SAT 08/09/97 12:08 Page:1124
        35 037507   037521 710000 35                 TRA     s:39982

     6385    39975    2            WHENALTRETURN
     6386    39976    3              DO;

     6387    39977    3                CALL Z8ED$DISPOSE_ABSSYN_TREE (ADDR(O1COM.LX_STK(O1COM.LX_TOP)) ->

  39977 35 037510   000151 236000 xsym               LDQ     O1COM+105
        35 037511   000025 736000                    QLS     21
        35 037512   000674 036000 36                 ADLQ    444
        35 037513   001012 756000 0                  STQ     PROC$+2
        35 037514   001012 630400 0                  EPPR0   PROC$+2
        35 037515   000036 631400 36                 EPPR1   30
        35 037516   000000 701000 xent               TSX1    Z8ED$DISPOSE_ABSSYN_TREE
        35 037517   000000 011000                    NOP     0

     6388    39978    3                                               LX_LIST.HEAD$);
     6389    39979    3                EXIT SEMANTIC_ACTION_CASE;

  39979 35 037520   056641 710000 35                 TRA     s:45674

     6390    39980    3              END;
     6391    39981
     6392    39982    2          CALL CHECK_AND_SAVE_ITEM (ADDR(O1COM.LX_STK(O1COM.LX_TOP)),

  39982 35 037521   000151 236000 xsym               LDQ     O1COM+105
        35 037522   000025 736000                    QLS     21
        35 037523   000631 036000 36                 ADLQ    409
        35 037524   001115 756000 0                  STQ     PROC$+69
        35 037525   000676 236000 36                 LDQ     446
        35 037526   000141 756000 0                  STQ     @FIELD$+1
        35 037527   000045 236000 xsym               LDQ     O1COM+37
        35 037530   000014 036003                    ADLQ    12,DU
        35 037531   000140 756000 0                  STQ     @ITEM$+1
        35 037532   001115 630400 0                  EPPR0   PROC$+69
        35 037533   000137 450400 0                  STP0    NUM+2
        35 037534   003076 701000 35                 TSX1    CHECK_AND_SAVE_ITEM
PL6.E3A0      #001=Z8EM$SEMANTICS_DATA_DIV File=Z8EM.:Z8A6TSI                    SAT 08/09/97 12:08 Page:1125
        35 037535   000000 011000                    NOP     0
        35 037536   056641 710000 35                 TRA     s:45674

     6393    39983    2                                    O1COM.CURRENT_FILE_LTS$ -> FILE_LTS.RELATIVE_KEY$,
     6394    39984    2                                    %RSV_WRD_KEY);
     6395    39985
     6396    39986    2     CASE(%ACT_ACCESS_RANDOM);

     6397    39987    2          CALL ACCESS_MODE (ADDR(O1COM.LX_STK(O1COM.LX_TOP)), %RANDOM_ACCESS);

  39987 35 037537   000151 236000 xsym               LDQ     O1COM+105
        35 037540   000025 736000                    QLS     21
        35 037541   000631 036000 36                 ADLQ    409
        35 037542   001116 756000 0                  STQ     PROC$+70
        35 037543   000256 236000 36                 LDQ     174
        35 037544   000034 756000 0                  STQ     @ACCESS$+1
        35 037545   001116 630400 0                  EPPR0   PROC$+70
        35 037546   000033 450400 0                  STP0    SECURITY_PGPH_FLAG+2
        35 037547   000002 701000 35                 TSX1    ACCESS_MODE
        35 037550   000000 011000                    NOP     0
        35 037551   056641 710000 35                 TRA     s:45674

     6398    39988
     6399    39989    2     CASE(%ACT_ACCESS_DYNAMIC);

     6400    39990    2          CALL ACCESS_MODE (ADDR(O1COM.LX_STK(O1COM.LX_TOP)), %DYNAMIC_ACCESS);

  39990 35 037552   000151 236000 xsym               LDQ     O1COM+105
        35 037553   000025 736000                    QLS     21
        35 037554   000631 036000 36                 ADLQ    409
        35 037555   001117 756000 0                  STQ     PROC$+71
        35 037556   000344 236000 36                 LDQ     228
        35 037557   000034 756000 0                  STQ     @ACCESS$+1
        35 037560   001117 630400 0                  EPPR0   PROC$+71
        35 037561   000033 450400 0                  STP0    SECURITY_PGPH_FLAG+2
        35 037562   000002 701000 35                 TSX1    ACCESS_MODE
        35 037563   000000 011000                    NOP     0
PL6.E3A0      #001=Z8EM$SEMANTICS_DATA_DIV File=Z8EM.:Z8A6TSI                    SAT 08/09/97 12:08 Page:1126
        35 037564   056641 710000 35                 TRA     s:45674

     6401    39991
     6402    39992    2     CASE(%ACT_ACCESS_SEQUENTIAL);

     6403    39993    2          CALL ACCESS_MODE (ADDR(O1COM.LX_STK(O1COM.LX_TOP)), %SEQUENTIAL_ACCESS);

  39993 35 037565   000151 236000 xsym               LDQ     O1COM+105
        35 037566   000025 736000                    QLS     21
        35 037567   000631 036000 36                 ADLQ    409
        35 037570   001120 756000 0                  STQ     PROC$+72
        35 037571   000013 236000 36                 LDQ     11
        35 037572   000034 756000 0                  STQ     @ACCESS$+1
        35 037573   001120 630400 0                  EPPR0   PROC$+72
        35 037574   000033 450400 0                  STP0    SECURITY_PGPH_FLAG+2
        35 037575   000002 701000 35                 TSX1    ACCESS_MODE
        35 037576   000000 011000                    NOP     0
        35 037577   056641 710000 35                 TRA     s:45674

     6404    39994
     6405    39995    2     CASE(%ACT_FILE_STATUS);

     6406    39996    2          CALL CHECK_AND_SAVE_ITEM (ADDR(O1COM.LX_STK(O1COM.LX_TOP)),

  39996 35 037600   000151 236000 xsym               LDQ     O1COM+105
        35 037601   000025 736000                    QLS     21
        35 037602   000631 036000 36                 ADLQ    409
        35 037603   001121 756000 0                  STQ     PROC$+73
        35 037604   000727 236000 36                 LDQ     471
        35 037605   000141 756000 0                  STQ     @FIELD$+1
        35 037606   000045 236000 xsym               LDQ     O1COM+37
        35 037607   000012 036003                    ADLQ    10,DU
        35 037610   000140 756000 0                  STQ     @ITEM$+1
        35 037611   001121 630400 0                  EPPR0   PROC$+73
        35 037612   000137 450400 0                  STP0    NUM+2
        35 037613   003076 701000 35                 TSX1    CHECK_AND_SAVE_ITEM
        35 037614   000000 011000                    NOP     0
PL6.E3A0      #001=Z8EM$SEMANTICS_DATA_DIV File=Z8EM.:Z8A6TSI                    SAT 08/09/97 12:08 Page:1127
        35 037615   056641 710000 35                 TRA     s:45674

     6407    39997    2                                    O1COM.CURRENT_FILE_LTS$ -> FILE_LTS.FILE_STATUS$,
     6408    39998    2                                    %RSV_WRD_STATUS);
     6409    39999
     6410    40000    2     CASE(%ACT_RECORD_KEY);

     6411    40001    3          IF COMCOM.OB.FIPS.LEVEL = %LOW_LEV THEN DO;

  40001 35 037616   000036 720000 xsym               LXL0    COMCOM+30
        35 037617   000003 100003                    CMPX0   3,DU
        35 037620   037652 601000 35                 TNZ     s:40009

     6412    40002    3            IF O1COM.LX_STK.SYMBOL(O1COM.LX_TOP - 2) = %RSV_WRD_RECORD

  40002 35 037621   000151 236000 xsym               LDQ     O1COM+105
        35 037622   000003 736000                    QLS     3
        35 037623   014002 235006 xsym               LDA     O1COM+6146,QL
        35 037624   000554 115007                    CMPA    364,DL
        35 037625   037632 601000 35                 TNZ     s:40004

     6413    40003    3              THEN I = O1COM.LX_TOP - 2; /* RECORD [IS] <id> */

  40003 35 037626   000151 235000 xsym               LDA     O1COM+105
        35 037627   000002 135007                    SBLA    2,DL
        35 037630   000017 755000 0                  STA     I
        35 037631   037635 710000 35                 TRA     s:40005

     6414    40004    3              ELSE I = O1COM.LX_TOP - 3; /* RECORD KEY [IS] <id> */

  40004 35 037632   000151 235000 xsym               LDA     O1COM+105
        35 037633   000003 135007                    SBLA    3,DL
        35 037634   000017 755000 0                  STA     I

     6415    40005    3            CALL Z8AE$ERROR (%E$LEVEL_CHECK,

  40005 35 037635   000017 236000 0                  LDQ     I
PL6.E3A0      #001=Z8EM$SEMANTICS_DATA_DIV File=Z8EM.:Z8A6TSI                    SAT 08/09/97 12:08 Page:1128
        35 037636   000025 736000                    QLS     21
        35 037637   000662 036000 36                 ADLQ    434
        35 037640   001014 756000 0                  STQ     PROC$+4
        35 037641   000017 236000 0                  LDQ     I
        35 037642   000025 736000                    QLS     21
        35 037643   000663 036000 36                 ADLQ    435
        35 037644   000004 235000 36                 LDA     4
        35 037645   001012 757000 0                  STAQ    PROC$+2
        35 037646   001012 630400 0                  EPPR0   PROC$+2
        35 037647   000000 631400 36                 EPPR1   0
        35 037650   000000 701000 xent               TSX1    Z8AE$ERROR
        35 037651   000000 011000                    NOP     0

     6416    40006    3                             O1COM.LX_STK.LINE(I),
     6417    40007    3                             O1COM.LX_STK.COLUMN(I));
     6418    40008    3          END;

     6419    40009    2          CALL CHECK_SEQ_ORG (ADDR(O1COM.LX_STK(O1COM.LX_TOP)) -> LX_LIST.HEAD$)

  40009 35 037652   000151 236000 xsym               LDQ     O1COM+105
        35 037653   000025 736000                    QLS     21
        35 037654   000674 036000 36                 ADLQ    444
        35 037655   000171 756000 0                  STQ     @TERMINAL$+2
        35 037656   004106 701000 35                 TSX1    CHECK_SEQ_ORG
        35 037657   037661 702000 35                 TSX2    s:40012
        35 037660   037672 710000 35                 TRA     s:40017

     6420    40010    2            WHENALTRETURN
     6421    40011    3              DO;

     6422    40012    3                CALL Z8ED$DISPOSE_ABSSYN_TREE (ADDR(O1COM.LX_STK(O1COM.LX_TOP)) ->

  40012 35 037661   000151 236000 xsym               LDQ     O1COM+105
        35 037662   000025 736000                    QLS     21
        35 037663   000674 036000 36                 ADLQ    444
        35 037664   001012 756000 0                  STQ     PROC$+2
        35 037665   001012 630400 0                  EPPR0   PROC$+2
PL6.E3A0      #001=Z8EM$SEMANTICS_DATA_DIV File=Z8EM.:Z8A6TSI                    SAT 08/09/97 12:08 Page:1129
        35 037666   000036 631400 36                 EPPR1   30
        35 037667   000000 701000 xent               TSX1    Z8ED$DISPOSE_ABSSYN_TREE
        35 037670   000000 011000                    NOP     0

     6423    40013    3                                               LX_LIST.HEAD$);
     6424    40014    3                EXIT SEMANTIC_ACTION_CASE;

  40014 35 037671   056641 710000 35                 TRA     s:45674

     6425    40015    3              END;
     6426    40016
     6427    40017    2          CALL CHECK_REL_ORG (ADDR(O1COM.LX_STK(O1COM.LX_TOP)) -> LX_LIST.HEAD$)

  40017 35 037672   000151 236000 xsym               LDQ     O1COM+105
        35 037673   000025 736000                    QLS     21
        35 037674   000674 036000 36                 ADLQ    444
        35 037675   000167 756000 0                  STQ     @DNT$+2
        35 037676   004026 701000 35                 TSX1    CHECK_REL_ORG
        35 037677   037701 702000 35                 TSX2    s:40020
        35 037700   037712 710000 35                 TRA     s:40025

     6428    40018    2            WHENALTRETURN
     6429    40019    3              DO;

     6430    40020    3                CALL Z8ED$DISPOSE_ABSSYN_TREE (ADDR(O1COM.LX_STK(O1COM.LX_TOP)) ->

  40020 35 037701   000151 236000 xsym               LDQ     O1COM+105
        35 037702   000025 736000                    QLS     21
        35 037703   000674 036000 36                 ADLQ    444
        35 037704   001012 756000 0                  STQ     PROC$+2
        35 037705   001012 630400 0                  EPPR0   PROC$+2
        35 037706   000036 631400 36                 EPPR1   30
        35 037707   000000 701000 xent               TSX1    Z8ED$DISPOSE_ABSSYN_TREE
        35 037710   000000 011000                    NOP     0

     6431    40021    3                                               LX_LIST.HEAD$);
     6432    40022    3                EXIT SEMANTIC_ACTION_CASE;
PL6.E3A0      #001=Z8EM$SEMANTICS_DATA_DIV File=Z8EM.:Z8A6TSI                    SAT 08/09/97 12:08 Page:1130

  40022 35 037711   056641 710000 35                 TRA     s:45674

     6433    40023    3              END;
     6434    40024
     6435    40025    2          CALL CHECK_AND_SAVE_ITEM (ADDR(O1COM.LX_STK(O1COM.LX_TOP)),

  40025 35 037712   000151 236000 xsym               LDQ     O1COM+105
        35 037713   000025 736000                    QLS     21
        35 037714   000631 036000 36                 ADLQ    409
        35 037715   001122 756000 0                  STQ     PROC$+74
        35 037716   000676 236000 36                 LDQ     446
        35 037717   000141 756000 0                  STQ     @FIELD$+1
        35 037720   000045 236000 xsym               LDQ     O1COM+37
        35 037721   000015 036003                    ADLQ    13,DU
        35 037722   000140 756000 0                  STQ     @ITEM$+1
        35 037723   001122 630400 0                  EPPR0   PROC$+74
        35 037724   000137 450400 0                  STP0    NUM+2
        35 037725   003076 701000 35                 TSX1    CHECK_AND_SAVE_ITEM
        35 037726   000000 011000                    NOP     0
        35 037727   056641 710000 35                 TRA     s:45674

     6436    40026    2                                    O1COM.CURRENT_FILE_LTS$ -> FILE_LTS.RECORD_KEY$,
     6437    40027    2                                    %RSV_WRD_KEY);
     6438    40028
     6439    40029    2     CASE(%ACT_ALTERNATE_RECORD);

     6440    40030
     6441    40031    2          IF COMCOM.OB.FIPS.LEVEL >= %INT_LEV THEN

  40031 35 037730   000036 720000 xsym               LXL0    COMCOM+30
        35 037731   000002 100003                    CMPX0   2,DU
        35 037732   037750 604000 35                 TMI     s:40035

     6442    40032    2            CALL Z8AE$ERROR (%E$LEVEL_CHECK,

  40032 35 037733   000151 236000 xsym               LDQ     O1COM+105
PL6.E3A0      #001=Z8EM$SEMANTICS_DATA_DIV File=Z8EM.:Z8A6TSI                    SAT 08/09/97 12:08 Page:1131
        35 037734   000025 736000                    QLS     21
        35 037735   000672 036000 36                 ADLQ    442
        35 037736   001014 756000 0                  STQ     PROC$+4
        35 037737   000151 236000 xsym               LDQ     O1COM+105
        35 037740   000025 736000                    QLS     21
        35 037741   000673 036000 36                 ADLQ    443
        35 037742   000004 235000 36                 LDA     4
        35 037743   001012 757000 0                  STAQ    PROC$+2
        35 037744   001012 630400 0                  EPPR0   PROC$+2
        35 037745   000000 631400 36                 EPPR1   0
        35 037746   000000 701000 xent               TSX1    Z8AE$ERROR
        35 037747   000000 011000                    NOP     0

     6443    40033    2                             O1COM.LX_STK.LINE(O1COM.LX_TOP - 4),
     6444    40034    2                             O1COM.LX_STK.COLUMN(O1COM.LX_TOP - 4));
     6445    40035    2          CALL ALT_KEY (ADDR(O1COM.LX_STK(O1COM.LX_TOP)));

  40035 35 037750   000151 236000 xsym               LDQ     O1COM+105
        35 037751   000025 736000                    QLS     21
        35 037752   000631 036000 36                 ADLQ    409
        35 037753   001123 756000 0                  STQ     PROC$+75
        35 037754   001123 630400 0                  EPPR0   PROC$+75
        35 037755   000067 450400 0                  STP0    TDNT$+2
        35 037756   001011 701000 35                 TSX1    ALT_KEY
        35 037757   000000 011000                    NOP     0
        35 037760   056641 710000 35                 TRA     s:45674

     6446    40036
     6447    40037        %EJECT;
PL6.E3A0      #001=Z8EM$SEMANTICS_DATA_DIV File=Z8EM.:Z8A6TSI                    SAT 08/09/97 12:08 Page:1132
     6448    40038        /*
     6449    40039                           File Section
     6450    40040        */
     6451    40041
     6452    40042    2     CASE(%ACT_FD_SD_START);

     6453    40043    2          CALL FD_SD_START (ADDR(O1COM.LX_STK(O1COM.LX_TOP - 1)), ADDR(O1COM.LX_STK(
             40043                   O1COM.LX_TOP)));

  40043 35 037761   000151 236000 xsym               LDQ     O1COM+105
        35 037762   000025 736000                    QLS     21
        35 037763   000640 036000 36                 ADLQ    416
        35 037764   001124 756000 0                  STQ     PROC$+76
        35 037765   000151 236000 xsym               LDQ     O1COM+105
        35 037766   000025 736000                    QLS     21
        35 037767   000631 036000 36                 ADLQ    409
        35 037770   001125 756000 0                  STQ     PROC$+77
        35 037771   001125 630400 0                  EPPR0   PROC$+77
        35 037772   000314 450400 0                  STP0    @KEYWORD$+1
        35 037773   001124 631400 0                  EPPR1   PROC$+76
        35 037774   000313 451400 0                  STP1    @RETURN#+2
        35 037775   010637 701000 35                 TSX1    FD_SD_START
        35 037776   000000 011000                    NOP     0
        35 037777   056641 710000 35                 TRA     s:45674

     6454    40044
     6455    40045    2     CASE(%ACT_FD_SD_END);

     6456    40046
     6457    40047    2          IF O1COM.CURRENT_FILE_LTS$ -> FILE_LTS.REPORT$ ~= ADDR(NIL) THEN

  40047 35 040000   000045 470400 xsym               LDP0    O1COM+37
        35 040001   000040 236100                    LDQ     32,,PR0
        35 040002   000024 116000 36                 CMPQ    20
        35 040003   040046 600000 35                 TZE     s:40091

     6458    40048    3            DO;
PL6.E3A0      #001=Z8EM$SEMANTICS_DATA_DIV File=Z8EM.:Z8A6TSI                    SAT 08/09/97 12:08 Page:1133

     6459    40049    3              IF O1COM.CURRENT_FILE_LTS$ -> FILE_LTS.REPORT$ -> LTS.ID = %LX_LIST THEN
             40049                       /*#29580*/

  40049 35 040004   000040 471500                    LDP1    32,,PR0
        35 040005   100000 220100                    LDX0    0,,PR1
        35 040006   000002 100003                    CMPX0   2,DU
        35 040007   040043 601000 35                 TNZ     s:40088

     6460    40050    4                DO;

     6461    40051    4                  P$ = O1COM.CURRENT_FILE_LTS$ -> FILE_LTS.REPORT$ -> LX_LIST.HEAD$;

  40051 35 040010   100004 236100                    LDQ     4,,PR1
        35 040011   000021 756000 0                  STQ     P$

     6462    40052
     6463    40053                       %CONDITIONAL_ERROR (@LX_ITEM$ = P$,
     6464    40054                                           @ERROR#   = %E$REPORT_FILE_W_01_ENTRY,
     6465    40055                                           @LINE     = P$ -> LX_ITEM.LINE,
     6466    40056                                           @COLUMN   = P$ -> LX_ITEM.COLUMN);

  40066 35 040012   000021 473400 0                  LDP3    P$
        35 040013   300000 236100                    LDQ     0,,PR3
        35 040014   400000 316007                    CANQ    -131072,DL
        35 040015   040034 601000 35                 TNZ     s:40086

  40068 35 040016   000021 236000 0                  LDQ     P$
        35 040017   000006 036003                    ADLQ    6,DU
        35 040020   001014 756000 0                  STQ     PROC$+4
        35 040021   000021 236000 0                  LDQ     P$
        35 040022   000005 036003                    ADLQ    5,DU
        35 040023   000731 235000 36                 LDA     473
        35 040024   001012 757000 0                  STAQ    PROC$+2
        35 040025   001012 630400 0                  EPPR0   PROC$+2
        35 040026   000000 631400 36                 EPPR1   0
        35 040027   000000 701000 xent               TSX1    Z8AE$ERROR
PL6.E3A0      #001=Z8EM$SEMANTICS_DATA_DIV File=Z8EM.:Z8A6TSI                    SAT 08/09/97 12:08 Page:1134
        35 040030   000000 011000                    NOP     0

  40077 35 040031   000021 470400 0                  LDP0    P$
        35 040032   400000 236007                    LDQ     -131072,DL
        35 040033   000000 256100                    ORSQ    0,,PR0

     6467    40086    4                  CALL Z8ED$DISPOSE_ABSSYN_TREE(O1COM.CURRENT_FILE_LTS$ -> FILE_LTS.
             40086                           REPORT$);

  40086 35 040034   000045 236000 xsym               LDQ     O1COM+37
        35 040035   000040 036003                    ADLQ    32,DU
        35 040036   001012 756000 0                  STQ     PROC$+2
        35 040037   001012 630400 0                  EPPR0   PROC$+2
        35 040040   000036 631400 36                 EPPR1   30
        35 040041   000000 701000 xent               TSX1    Z8ED$DISPOSE_ABSSYN_TREE
        35 040042   000000 011000                    NOP     0

     6468    40087    4                 END;

     6469    40088    3              O1COM.CURRENT_FILE_LTS$ -> FILE_LTS.REPORT$ = ADDR(NIL);

  40088 35 040043   000024 236000 36                 LDQ     20
        35 040044   000045 470400 xsym               LDP0    O1COM+37
        35 040045   000040 756100                    STQ     32,,PR0

     6470    40089    3            END;

     6471    40090
     6472    40091    2          CALL Z8DR$RECORD_DECL (ADDR(O1COM.LX_STK(O1COM.LX_TOP)) -> LX_LARGE.
             40091                   LARGE_ITEM$,

  40091 35 040046   000024 236000 36                 LDQ     20
        35 040047   001012 756000 0                  STQ     PROC$+2
        35 040050   001012 630400 0                  EPPR0   PROC$+2
        35 040051   001015 450400 0                  STP0    PROC$+5
        35 040052   000151 236000 xsym               LDQ     O1COM+105
        35 040053   000025 736000                    QLS     21
PL6.E3A0      #001=Z8EM$SEMANTICS_DATA_DIV File=Z8EM.:Z8A6TSI                    SAT 08/09/97 12:08 Page:1135
        35 040054   000732 036000 36                 ADLQ    474
        35 040055   001014 756000 0                  STQ     PROC$+4
        35 040056   001014 630400 0                  EPPR0   PROC$+4
        35 040057   000025 631400 36                 EPPR1   21
        35 040060   000000 701000 xent               TSX1    Z8DR$RECORD_DECL
        35 040061   000000 011000                    NOP     0

     6473    40092    2                                 ADDR(NIL));
     6474    40093
     6475    40094    2          CALL Z8ED$DISPOSE_ABSSYN_TREE (ADDR(O1COM.LX_STK(O1COM.LX_TOP)) -> LX_LARGE.
             40094                   LARGE_ITEM$);

  40094 35 040062   000151 236000 xsym               LDQ     O1COM+105
        35 040063   000025 736000                    QLS     21
        35 040064   000732 036000 36                 ADLQ    474
        35 040065   001012 756000 0                  STQ     PROC$+2
        35 040066   001012 630400 0                  EPPR0   PROC$+2
        35 040067   000036 631400 36                 EPPR1   30
        35 040070   000000 701000 xent               TSX1    Z8ED$DISPOSE_ABSSYN_TREE
        35 040071   000000 011000                    NOP     0

     6476    40095
     6477    40096    2          CALL NEW_LINAGE_COUNTER (O1COM.CURRENT_FILE_LTS$);

  40096 35 040072   000243 236000 36                 LDQ     163
        35 040073   000423 756000 0                  STQ     LINE$+2
        35 040074   015347 701000 35                 TSX1    NEW_LINAGE_COUNTER
        35 040075   000000 011000                    NOP     0

     6478    40097
     6479    40098    2          IF O1COM.CURRENT_FILE_LTS$ -> FILE_LTS.LABEL_RECORDS$ ~= ADDR(NIL) THEN

  40098 35 040076   000045 470400 xsym               LDP0    O1COM+37
        35 040077   000026 236100                    LDQ     22,,PR0
        35 040100   000024 116000 36                 CMPQ    20
        35 040101   040104 600000 35                 TZE     s:40101

PL6.E3A0      #001=Z8EM$SEMANTICS_DATA_DIV File=Z8EM.:Z8A6TSI                    SAT 08/09/97 12:08 Page:1136
     6480    40099    2            CALL PROCESS_USER_LABELS;

  40099 35 040102   023763 701000 35                 TSX1    PROCESS_USER_LABELS
        35 040103   000000 011000                    NOP     0

     6481    40100
     6482    40101    2          O1COM.CURRENT_FILE_LTS$ = ADDR(NIL);

  40101 35 040104   000024 236000 36                 LDQ     20
        35 040105   000045 756000 xsym               STQ     O1COM+37

     6483    40102    2          O1COM.DATA_DECL_CONTEXT = %NO_CONTEXT;

  40102 35 040106   000010 235007                    LDA     8,DL
        35 040107   000015 755000 xsym               STA     O1COM+13
        35 040110   056641 710000 35                 TRA     s:45674

     6484    40103
     6485    40104
     6486    40105    2      CASE (%ACT_FD_NDD_END);

     6487    40106
     6488    40107    2          IF O1COM.CURRENT_FILE_LTS$ -> FILE_LTS.REPORT$ = ADDR(NIL) THEN

  40107 35 040111   000045 470400 xsym               LDP0    O1COM+37
        35 040112   000040 236100                    LDQ     32,,PR0
        35 040113   000024 116000 36                 CMPQ    20
        35 040114   040354 601000 35                 TNZ     s:40271

     6489    40108    3            DO;

     6490    40109                   %CONDITIONAL_ERROR (@LX_ITEM$ = "ADDR(O1COM.LX_STK(O1COM.LX_TOP))",
     6491    40110                                       @ERROR#   = %E$RECORD_MISS_FROM_FD,
     6492    40111                                       @LINE     = COMCOM.CURRENT.LINE,
     6493    40112                                       @COLUMN   = COMCOM.CURRENT.COLUMN);

  40122 35 040115   000151 235000 xsym               LDA     O1COM+105
PL6.E3A0      #001=Z8EM$SEMANTICS_DATA_DIV File=Z8EM.:Z8A6TSI                    SAT 08/09/97 12:08 Page:1137
        35 040116   000003 735000                    ALS     3
        35 040117   014017 236005 xsym               LDQ     O1COM+6159,AL
        35 040120   400000 316007                    CANQ    -131072,DL
        35 040121   040132 601000 35                 TNZ     s:40221

  40124 35 040122   000734 630400 36                 EPPR0   476
        35 040123   000000 631400 36                 EPPR1   0
        35 040124   000000 701000 xent               TSX1    Z8AE$ERROR
        35 040125   000000 011000                    NOP     0

  40133 35 040126   000151 235000 xsym               LDA     O1COM+105
        35 040127   000003 735000                    ALS     3
        35 040130   400000 236007                    LDQ     -131072,DL
        35 040131   014017 256005 xsym               ORSQ    O1COM+6159,AL

     6494    40142                  %NEW_REPORT_LTS (@POINTER = O1COM.CURRENT_FILE_LTS$ -> FILE_LTS.REPORT$);

  40221 35 040132   000002 236000 8                  LDQ     LTS_+2
        35 040133   000045 036007                    ADLQ    37,DL
        35 040134   000003 116000 8                  CMPQ    LTS_+3
        35 040135   040146 604000 35                 TMI     s:40223

  40222 35 040136   000211 236000 36                 LDQ     137
        35 040137   001012 756000 0                  STQ     PROC$+2
        35 040140   001012 630400 0                  EPPR0   PROC$+2
        35 040141   001013 450400 0                  STP0    PROC$+3
        35 040142   001013 630400 0                  EPPR0   PROC$+3
        35 040143   000036 631400 36                 EPPR1   30
        35 040144   000000 701000 xent               TSX1    Z8AR$RESERVER
        35 040145   000000 011000                    NOP     0

  40223 35 040146   000002 236000 8                  LDQ     LTS_+2
        35 040147   000022 736000                    QLS     18
        35 040150   000001 036000 8                  ADLQ    LTS_+1
        35 040151   000045 470400 xsym               LDP0    O1COM+37
        35 040152   000040 756100                    STQ     32,,PR0

PL6.E3A0      #001=Z8EM$SEMANTICS_DATA_DIV File=Z8EM.:Z8A6TSI                    SAT 08/09/97 12:08 Page:1138
  40224 35 040153   000045 236007                    LDQ     37,DL
        35 040154   000002 056000 8                  ASQ     LTS_+2

  40225 35 040155   000045 470400 xsym               LDP0    O1COM+37
        35 040156   000040 471500                    LDP1    32,,PR0
        35 040157   001126 220003                    LDX0    598,DU
        35 040160   100000 740100                    STX0    0,,PR1

  40231 35 040161   000045 470400 xsym               LDP0    O1COM+37
        35 040162   000040 471500                    LDP1    32,,PR0
        35 040163   100000 740100                    STX0    0,,PR1

  40232 35 040164   000045 470400 xsym               LDP0    O1COM+37
        35 040165   000040 471500                    LDP1    32,,PR0
        35 040166   000024 236000 36                 LDQ     20
        35 040167   100001 756100                    STQ     1,,PR1

  40233 35 040170   000045 470400 xsym               LDP0    O1COM+37
        35 040171   000040 471500                    LDP1    32,,PR0
        35 040172   000024 236000 36                 LDQ     20
        35 040173   100002 756100                    STQ     2,,PR1

  40234 35 040174   000045 470400 xsym               LDP0    O1COM+37
        35 040175   000040 471500                    LDP1    32,,PR0
        35 040176   100003 450100                    STZ     3,,PR1

  40235 35 040177   000045 470400 xsym               LDP0    O1COM+37
        35 040200   000040 471500                    LDP1    32,,PR0
        35 040201   000024 236000 36                 LDQ     20
        35 040202   100005 756100                    STQ     5,,PR1

  40236 35 040203   000045 470400 xsym               LDP0    O1COM+37
        35 040204   000040 471500                    LDP1    32,,PR0
        35 040205   000024 236000 36                 LDQ     20
        35 040206   100006 756100                    STQ     6,,PR1

  40237 35 040207   000045 470400 xsym               LDP0    O1COM+37
PL6.E3A0      #001=Z8EM$SEMANTICS_DATA_DIV File=Z8EM.:Z8A6TSI                    SAT 08/09/97 12:08 Page:1139
        35 040210   000040 471500                    LDP1    32,,PR0
        35 040211   000024 236000 36                 LDQ     20
        35 040212   100007 756100                    STQ     7,,PR1

  40238 35 040213   000045 470400 xsym               LDP0    O1COM+37
        35 040214   000040 471500                    LDP1    32,,PR0
        35 040215   000024 236000 36                 LDQ     20
        35 040216   100010 756100                    STQ     8,,PR1

  40239 35 040217   000045 470400 xsym               LDP0    O1COM+37
        35 040220   000040 471500                    LDP1    32,,PR0
        35 040221   000024 236000 36                 LDQ     20
        35 040222   100035 756100                    STQ     29,,PR1

  40240 35 040223   000045 470400 xsym               LDP0    O1COM+37
        35 040224   000040 471500                    LDP1    32,,PR0
        35 040225   100011 450100                    STZ     9,,PR1

  40241 35 040226   000045 470400 xsym               LDP0    O1COM+37
        35 040227   000040 471500                    LDP1    32,,PR0
        35 040230   100012 450100                    STZ     10,,PR1

  40242 35 040231   000045 470400 xsym               LDP0    O1COM+37
        35 040232   000040 471500                    LDP1    32,,PR0
        35 040233   100013 450100                    STZ     11,,PR1

  40243 35 040234   000045 470400 xsym               LDP0    O1COM+37
        35 040235   000040 471500                    LDP1    32,,PR0
        35 040236   100014 450100                    STZ     12,,PR1

  40244 35 040237   000045 470400 xsym               LDP0    O1COM+37
        35 040240   000040 471500                    LDP1    32,,PR0
        35 040241   100015 450100                    STZ     13,,PR1

  40245 35 040242   000045 470400 xsym               LDP0    O1COM+37
        35 040243   000040 471500                    LDP1    32,,PR0
        35 040244   100016 450100                    STZ     14,,PR1
PL6.E3A0      #001=Z8EM$SEMANTICS_DATA_DIV File=Z8EM.:Z8A6TSI                    SAT 08/09/97 12:08 Page:1140

  40246 35 040245   000045 470400 xsym               LDP0    O1COM+37
        35 040246   000040 471500                    LDP1    32,,PR0
        35 040247   100037 450100                    STZ     31,,PR1

  40247 35 040250   000045 470400 xsym               LDP0    O1COM+37
        35 040251   000040 471500                    LDP1    32,,PR0
        35 040252   100041 450100                    STZ     33,,PR1

  40248 35 040253   000045 470400 xsym               LDP0    O1COM+37
        35 040254   000040 471500                    LDP1    32,,PR0
        35 040255   100042 450100                    STZ     34,,PR1

  40249 35 040256   000045 470400 xsym               LDP0    O1COM+37
        35 040257   000040 471500                    LDP1    32,,PR0
        35 040260   000024 236000 36                 LDQ     20
        35 040261   100017 756100                    STQ     15,,PR1

  40250 35 040262   000045 470400 xsym               LDP0    O1COM+37
        35 040263   000040 471500                    LDP1    32,,PR0
        35 040264   000024 236000 36                 LDQ     20
        35 040265   100020 756100                    STQ     16,,PR1

  40251 35 040266   000045 470400 xsym               LDP0    O1COM+37
        35 040267   000040 471500                    LDP1    32,,PR0
        35 040270   000024 236000 36                 LDQ     20
        35 040271   100034 756100                    STQ     28,,PR1

  40252 35 040272   000045 470400 xsym               LDP0    O1COM+37
        35 040273   000040 471500                    LDP1    32,,PR0
        35 040274   100036 450100                    STZ     30,,PR1

  40253 35 040275   000045 470400 xsym               LDP0    O1COM+37
        35 040276   000040 471500                    LDP1    32,,PR0
        35 040277   100044 756100                    STQ     36,,PR1

  40254 35 040300   000045 470400 xsym               LDP0    O1COM+37
PL6.E3A0      #001=Z8EM$SEMANTICS_DATA_DIV File=Z8EM.:Z8A6TSI                    SAT 08/09/97 12:08 Page:1141
        35 040301   000040 471500                    LDP1    32,,PR0
        35 040302   100021 756100                    STQ     17,,PR1

  40255 35 040303   000045 470400 xsym               LDP0    O1COM+37
        35 040304   000040 471500                    LDP1    32,,PR0
        35 040305   000024 236000 36                 LDQ     20
        35 040306   100022 756100                    STQ     18,,PR1

  40256 35 040307   000045 470400 xsym               LDP0    O1COM+37
        35 040310   000040 471500                    LDP1    32,,PR0
        35 040311   000024 236000 36                 LDQ     20
        35 040312   100024 756100                    STQ     20,,PR1

  40257 35 040313   000045 470400 xsym               LDP0    O1COM+37
        35 040314   000040 471500                    LDP1    32,,PR0
        35 040315   000024 236000 36                 LDQ     20
        35 040316   100032 756100                    STQ     26,,PR1

  40258 35 040317   000045 470400 xsym               LDP0    O1COM+37
        35 040320   000040 471500                    LDP1    32,,PR0
        35 040321   100023 756100                    STQ     19,,PR1

  40259 35 040322   000045 470400 xsym               LDP0    O1COM+37
        35 040323   000040 471500                    LDP1    32,,PR0
        35 040324   000024 236000 36                 LDQ     20
        35 040325   100033 756100                    STQ     27,,PR1

  40260 35 040326   000045 470400 xsym               LDP0    O1COM+37
        35 040327   000040 471500                    LDP1    32,,PR0
        35 040330   100027 756100                    STQ     23,,PR1

  40261 35 040331   000045 470400 xsym               LDP0    O1COM+37
        35 040332   000040 471500                    LDP1    32,,PR0
        35 040333   100026 756100                    STQ     22,,PR1

  40262 35 040334   000045 470400 xsym               LDP0    O1COM+37
        35 040335   000040 471500                    LDP1    32,,PR0
PL6.E3A0      #001=Z8EM$SEMANTICS_DATA_DIV File=Z8EM.:Z8A6TSI                    SAT 08/09/97 12:08 Page:1142
        35 040336   100030 756100                    STQ     24,,PR1

  40263 35 040337   000045 470400 xsym               LDP0    O1COM+37
        35 040340   000040 471500                    LDP1    32,,PR0
        35 040341   100031 756100                    STQ     25,,PR1

  40264 35 040342   000045 470400 xsym               LDP0    O1COM+37
        35 040343   000040 471500                    LDP1    32,,PR0
        35 040344   100025 756100                    STQ     21,,PR1

  40265 35 040345   000045 470400 xsym               LDP0    O1COM+37
        35 040346   000040 471500                    LDP1    32,,PR0
        35 040347   100040 756100                    STQ     32,,PR1

  40266 35 040350   000045 470400 xsym               LDP0    O1COM+37
        35 040351   000040 471500                    LDP1    32,,PR0
        35 040352   100043 756100                    STQ     35,,PR1

     6495    40269    3            END;

  40269 35 040353   040356 710000 35                 TRA     s:40274

     6496    40270    2            ELSE
     6497    40271    2              CALL PROCESS_REPORT_ITEMS;

  40271 35 040354   023577 701000 35                 TSX1    PROCESS_REPORT_ITEMS
        35 040355   000000 011000                    NOP     0

     6498    40272
     6499    40273
     6500    40274    2          IF O1COM.CURRENT_FILE_LTS$ -> FILE_LTS.LABEL_RECORDS$ ~= ADDR(NIL) THEN

  40274 35 040356   000045 470400 xsym               LDP0    O1COM+37
        35 040357   000026 236100                    LDQ     22,,PR0
        35 040360   000024 116000 36                 CMPQ    20
        35 040361   040364 600000 35                 TZE     s:40277

PL6.E3A0      #001=Z8EM$SEMANTICS_DATA_DIV File=Z8EM.:Z8A6TSI                    SAT 08/09/97 12:08 Page:1143
     6501    40275    2            CALL PROCESS_USER_LABELS;

  40275 35 040362   023763 701000 35                 TSX1    PROCESS_USER_LABELS
        35 040363   000000 011000                    NOP     0

     6502    40276
     6503    40277    2          O1COM.CURRENT_FILE_LTS$ = ADDR(NIL);

  40277 35 040364   000024 236000 36                 LDQ     20
        35 040365   000045 756000 xsym               STQ     O1COM+37

     6504    40278    2          O1COM.DATA_DECL_CONTEXT = %NO_CONTEXT;

  40278 35 040366   000010 235007                    LDA     8,DL
        35 040367   000015 755000 xsym               STA     O1COM+13
        35 040370   056641 710000 35                 TRA     s:45674

     6505    40279
     6506    40280    2     CASE(%ACT_RECORD_CONTAINS);

     6507    40281    2          CALL RECORD_CONTAINS (ADDR(O1COM.LX_STK( O1COM.LX_TOP - 4 )),

  40281 35 040371   000151 236000 xsym               LDQ     O1COM+105
        35 040372   000025 736000                    QLS     21
        35 040373   000242 036000 36                 ADLQ    162
        35 040374   001126 756000 0                  STQ     PROC$+78
        35 040375   000151 236000 xsym               LDQ     O1COM+105
        35 040376   000025 736000                    QLS     21
        35 040377   000236 036000 36                 ADLQ    158
        35 040400   001127 756000 0                  STQ     PROC$+79
        35 040401   000151 236000 xsym               LDQ     O1COM+105
        35 040402   000025 736000                    QLS     21
        35 040403   000631 036000 36                 ADLQ    409
        35 040404   001130 756000 0                  STQ     PROC$+80
        35 040405   001130 630400 0                  EPPR0   PROC$+80
        35 040406   000617 450400 0                  STP0    @INT$+1
        35 040407   001127 631400 0                  EPPR1   PROC$+79
PL6.E3A0      #001=Z8EM$SEMANTICS_DATA_DIV File=Z8EM.:Z8A6TSI                    SAT 08/09/97 12:08 Page:1144
        35 040410   000616 451400 0                  STP1    @KEYWORD$+1
        35 040411   001126 633400 0                  EPPR3   PROC$+78
        35 040412   000615 453400 0                  STP3    ST$$+2
        35 040413   026313 701000 35                 TSX1    RECORD_CONTAINS
        35 040414   000000 011000                    NOP     0
        35 040415   056641 710000 35                 TRA     s:45674

     6508    40282    2                                ADDR(O1COM.LX_STK( O1COM.LX_TOP - 2 )),
     6509    40283    2                                ADDR(O1COM.LX_STK(O1COM.LX_TOP)));
     6510    40284
     6511    40285    2     CASE(%ACT_RECORD_VARYING);

     6512    40286    2          CALL RECORD_VARYING (ADDR(O1COM.LX_STK( O1COM.LX_TOP - 6 )),

  40286 35 040416   000151 236000 xsym               LDQ     O1COM+105
        35 040417   000025 736000                    QLS     21
        35 040420   000737 036000 36                 ADLQ    479
        35 040421   001131 756000 0                  STQ     PROC$+81
        35 040422   000151 236000 xsym               LDQ     O1COM+105
        35 040423   000025 736000                    QLS     21
        35 040424   000640 036000 36                 ADLQ    416
        35 040425   001132 756000 0                  STQ     PROC$+82
        35 040426   000151 236000 xsym               LDQ     O1COM+105
        35 040427   000025 736000                    QLS     21
        35 040430   000631 036000 36                 ADLQ    409
        35 040431   001133 756000 0                  STQ     PROC$+83
        35 040432   001133 630400 0                  EPPR0   PROC$+83
        35 040433   000631 450400 0                  STP0    @INT$+1
        35 040434   001132 631400 0                  EPPR1   PROC$+82
        35 040435   000630 451400 0                  STP1    @KEYWORD$+1
        35 040436   001131 633400 0                  EPPR3   PROC$+81
        35 040437   000627 453400 0                  STP3    @DELIM$+2
        35 040440   026630 701000 35                 TSX1    RECORD_VARYING
        35 040441   000000 011000                    NOP     0
        35 040442   056641 710000 35                 TRA     s:45674

     6513    40287    2                               ADDR(O1COM.LX_STK( O1COM.LX_TOP - 1 )),
PL6.E3A0      #001=Z8EM$SEMANTICS_DATA_DIV File=Z8EM.:Z8A6TSI                    SAT 08/09/97 12:08 Page:1145
     6514    40288    2                               ADDR(O1COM.LX_STK(O1COM.LX_TOP)));
     6515    40289
     6516    40290    2     CASE(%ACT_RECORD_VARYING_FROM_INT);

     6517    40291
     6518    40292               %PROPAGATE (@FROM = "O1COM.LX_TOP - 1");

  40294 35 040443   000134 236000 xsym               LDQ     O1COM+92
        35 040444   000001 736000                    QLS     1
        35 040445   000000 236006 xsym               LDQ     DD_PRODR,QL
        35 040446   777777 376007                    ANQ     -1,DL
        35 040447   001012 756000 0                  STQ     PROC$+2
        35 040450   000151 236000 xsym               LDQ     O1COM+105
        35 040451   001012 136000 0                  SBLQ    PROC$+2
        35 040452   000151 235000 xsym               LDA     O1COM+105
        35 040453   000005 735000                    ALS     5
        35 040454   000005 736000                    QLS     5
        35 040455   000006 100405                    MLR     fill='000'O
        35 040456   014007 000040 xsym               ADSC9   O1COM+6151,A             cn=0,n=32
        35 040457   014027 000040 xsym               ADSC9   O1COM+6167,Q             cn=0,n=32

  40295 35 040460   056641 710000 35                 TRA     s:45674

     6519    40297
     6520    40298    2     CASE(%ACT_RECORD_VARYING_TO_INT);

     6521    40299
     6522    40300               %PROPAGATE (@FROM = "O1COM.LX_TOP - 1");

  40302 35 040461   000134 236000 xsym               LDQ     O1COM+92
        35 040462   000001 736000                    QLS     1
        35 040463   000000 236006 xsym               LDQ     DD_PRODR,QL
        35 040464   777777 376007                    ANQ     -1,DL
        35 040465   001012 756000 0                  STQ     PROC$+2
        35 040466   000151 236000 xsym               LDQ     O1COM+105
        35 040467   001012 136000 0                  SBLQ    PROC$+2
        35 040470   000151 235000 xsym               LDA     O1COM+105
PL6.E3A0      #001=Z8EM$SEMANTICS_DATA_DIV File=Z8EM.:Z8A6TSI                    SAT 08/09/97 12:08 Page:1146
        35 040471   000005 735000                    ALS     5
        35 040472   000005 736000                    QLS     5
        35 040473   000006 100405                    MLR     fill='000'O
        35 040474   014007 000040 xsym               ADSC9   O1COM+6151,A             cn=0,n=32
        35 040475   014027 000040 xsym               ADSC9   O1COM+6167,Q             cn=0,n=32

  40303 35 040476   056641 710000 35                 TRA     s:45674

     6523    40305
     6524    40306    2     CASE(%ACT_LABEL_CLAUSE);

     6525    40307    2          IF COMCOM.OB.FIPS.OBS THEN

  40307 35 040477   000036 234000 xsym               SZN     COMCOM+30
        35 040500   040516 605000 35                 TPL     s:40311

     6526    40308    2            CALL Z8AE$ERROR (%E$OBSOLETE,

  40308 35 040501   000151 236000 xsym               LDQ     O1COM+105
        35 040502   000025 736000                    QLS     21
        35 040503   000544 036000 36                 ADLQ    356
        35 040504   001014 756000 0                  STQ     PROC$+4
        35 040505   000151 236000 xsym               LDQ     O1COM+105
        35 040506   000025 736000                    QLS     21
        35 040507   000545 036000 36                 ADLQ    357
        35 040510   000543 235000 36                 LDA     355
        35 040511   001012 757000 0                  STAQ    PROC$+2
        35 040512   001012 630400 0                  EPPR0   PROC$+2
        35 040513   000000 631400 36                 EPPR1   0
        35 040514   000000 701000 xent               TSX1    Z8AE$ERROR
        35 040515   000000 011000                    NOP     0

     6527    40309    2                             O1COM.LX_STK.LINE(O1COM.LX_TOP - 2),
     6528    40310    2                             O1COM.LX_STK.COLUMN(O1COM.LX_TOP - 2));
     6529    40311    2          CALL Z9EM$LABEL_RECORDS (ADDR(O1COM.LX_STK(O1COM.LX_TOP-2)), ADDR(O1COM.
             40311                   LX_STK(O1COM.LX_TOP)));

PL6.E3A0      #001=Z8EM$SEMANTICS_DATA_DIV File=Z8EM.:Z8A6TSI                    SAT 08/09/97 12:08 Page:1147
  40311 35 040516   000151 236000 xsym               LDQ     O1COM+105
        35 040517   000025 736000                    QLS     21
        35 040520   000236 036000 36                 ADLQ    158
        35 040521   001012 756000 0                  STQ     PROC$+2
        35 040522   000151 236000 xsym               LDQ     O1COM+105
        35 040523   000025 736000                    QLS     21
        35 040524   000631 036000 36                 ADLQ    409
        35 040525   001013 756000 0                  STQ     PROC$+3
        35 040526   001013 630400 0                  EPPR0   PROC$+3
        35 040527   001015 450400 0                  STP0    PROC$+5
        35 040530   001012 631400 0                  EPPR1   PROC$+2
        35 040531   001014 451400 0                  STP1    PROC$+4
        35 040532   001014 630400 0                  EPPR0   PROC$+4
        35 040533   000025 631400 36                 EPPR1   21
        35 040534   000000 701000 xent               TSX1    Z9EM$LABEL_RECORDS
        35 040535   000000 011000                    NOP     0
        35 040536   056641 710000 35                 TRA     s:45674

     6530    40312
     6531    40313    2     CASE(%ACT_CODE_SET);

     6532    40314    2          CALL CODE_SET (ADDR(O1COM.LX_STK(O1COM.LX_TOP)));

  40314 35 040537   000151 236000 xsym               LDQ     O1COM+105
        35 040540   000025 736000                    QLS     21
        35 040541   000631 036000 36                 ADLQ    409
        35 040542   001134 756000 0                  STQ     PROC$+84
        35 040543   001134 630400 0                  EPPR0   PROC$+84
        35 040544   000200 450400 0                  STP0    TABLE$+2
        35 040545   004504 701000 35                 TSX1    CODE_SET
        35 040546   000000 011000                    NOP     0

     6533    40315
     6534    40316    2          CALL Z9EM$CODE_SET (ADDR(O1COM.LX_STK(O1COM.LX_TOP)));

  40316 35 040547   000151 236000 xsym               LDQ     O1COM+105
        35 040550   000025 736000                    QLS     21
PL6.E3A0      #001=Z8EM$SEMANTICS_DATA_DIV File=Z8EM.:Z8A6TSI                    SAT 08/09/97 12:08 Page:1148
        35 040551   000631 036000 36                 ADLQ    409
        35 040552   001012 756000 0                  STQ     PROC$+2
        35 040553   001012 630400 0                  EPPR0   PROC$+2
        35 040554   001013 450400 0                  STP0    PROC$+3
        35 040555   001013 630400 0                  EPPR0   PROC$+3
        35 040556   000036 631400 36                 EPPR1   30
        35 040557   000000 701000 xent               TSX1    Z9EM$CODE_SET
        35 040560   000000 011000                    NOP     0
        35 040561   056641 710000 35                 TRA     s:45674

     6535    40317
     6536    40318    2     CASE(%ACT_FD_EXTERNAL);

     6537    40319    2          O1COM.CURRENT_FILE_LTS$ -> FILE_LTS.ST$ -> FD.B.EXTERNAL = TRUE;

  40319 35 040562   000045 470400 xsym               LDP0    O1COM+37
        35 040563   000001 471500                    LDP1    1,,PR0
        35 040564   000004 236003                    LDQ     4,DU
        35 040565   100003 256100                    ORSQ    3,,PR1

     6538    40320    2          O1COM.CURRENT_FILE_LTS$ -> FILE_LTS.B.EXTERNAL = TRUE;

  40320 35 040566   000045 470400 xsym               LDP0    O1COM+37
        35 040567   000400 236003                    LDQ     256,DU
        35 040570   000017 256100                    ORSQ    15,,PR0

     6539    40321
     6540    40322    2          CALL EXTERNAL_BLOCK_CHECK (O1COM.CURRENT_FILE_LTS$);

  40322 35 040571   000243 236000 36                 LDQ     163
        35 040572   000304 756000 0                  STQ     TABLE_START$+2
        35 040573   010427 701000 35                 TSX1    EXTERNAL_BLOCK_CHECK
        35 040574   000000 011000                    NOP     0
        35 040575   056641 710000 35                 TRA     s:45674

     6541    40323
     6542    40324    2     CASE(%ACT_FD_GLOBAL);
PL6.E3A0      #001=Z8EM$SEMANTICS_DATA_DIV File=Z8EM.:Z8A6TSI                    SAT 08/09/97 12:08 Page:1149

     6543    40325    2          O1COM.CURRENT_FILE_LTS$ -> FILE_LTS.ST$ -> FD.B.GLOBAL = TRUE;

  40325 35 040576   000045 470400 xsym               LDP0    O1COM+37
        35 040577   000001 471500                    LDP1    1,,PR0
        35 040600   000010 236003                    LDQ     8,DU
        35 040601   100003 256100                    ORSQ    3,,PR1

     6544    40326    2          O1COM.CURRENT_FILE_LTS$ -> FILE_LTS.B.GLOBAL = TRUE;

  40326 35 040602   000045 470400 xsym               LDP0    O1COM+37
        35 040603   000200 236003                    LDQ     128,DU
        35 040604   000017 256100                    ORSQ    15,,PR0
        35 040605   056641 710000 35                 TRA     s:45674

     6545    40327
     6546    40328    2     CASE(%ACT_BLOCK_CLAUSE);

     6547    40329    2          CALL BLOCK_CONTAINS (ADDR(O1COM.LX_STK(O1COM.LX_TOP-1)), ADDR(O1COM.LX_STK(
             40329                   O1COM.LX_TOP)));

  40329 35 040606   000151 236000 xsym               LDQ     O1COM+105
        35 040607   000025 736000                    QLS     21
        35 040610   000640 036000 36                 ADLQ    416
        35 040611   001135 756000 0                  STQ     PROC$+85
        35 040612   000151 236000 xsym               LDQ     O1COM+105
        35 040613   000025 736000                    QLS     21
        35 040614   000631 036000 36                 ADLQ    409
        35 040615   001136 756000 0                  STQ     PROC$+86
        35 040616   001136 630400 0                  EPPR0   PROC$+86
        35 040617   000105 450400 0                  STP0    @INT_LIST$+1
        35 040620   001135 631400 0                  EPPR1   PROC$+85
        35 040621   000104 451400 0                  STP1    @ASSIGN$+2
        35 040622   001604 701000 35                 TSX1    BLOCK_CONTAINS
        35 040623   000000 011000                    NOP     0
        35 040624   056641 710000 35                 TRA     s:45674

PL6.E3A0      #001=Z8EM$SEMANTICS_DATA_DIV File=Z8EM.:Z8A6TSI                    SAT 08/09/97 12:08 Page:1150
     6548    40330
     6549    40331    2     CASE(%ACT_VALUE_OF_FILE_ID);

     6550    40332    2          IF COMCOM.OB.FIPS.OBS THEN

  40332 35 040625   000036 234000 xsym               SZN     COMCOM+30
        35 040626   040644 605000 35                 TPL     s:40336

     6551    40333    2            CALL Z8AE$ERROR (%E$OBSOLETE,

  40333 35 040627   000151 236000 xsym               LDQ     O1COM+105
        35 040630   000025 736000                    QLS     21
        35 040631   000672 036000 36                 ADLQ    442
        35 040632   001014 756000 0                  STQ     PROC$+4
        35 040633   000151 236000 xsym               LDQ     O1COM+105
        35 040634   000025 736000                    QLS     21
        35 040635   000673 036000 36                 ADLQ    443
        35 040636   000543 235000 36                 LDA     355
        35 040637   001012 757000 0                  STAQ    PROC$+2
        35 040640   001012 630400 0                  EPPR0   PROC$+2
        35 040641   000000 631400 36                 EPPR1   0
        35 040642   000000 701000 xent               TSX1    Z8AE$ERROR
        35 040643   000000 011000                    NOP     0

     6552    40334    2                             O1COM.LX_STK.LINE(O1COM.LX_TOP - 4),
     6553    40335    2                             O1COM.LX_STK.COLUMN(O1COM.LX_TOP - 4));
     6554    40336    2          IF COMCOM.OB.FIPS.LEVEL >= %INT_LEV THEN

  40336 35 040644   000036 720000 xsym               LXL0    COMCOM+30
        35 040645   000002 100003                    CMPX0   2,DU
        35 040646   040664 604000 35                 TMI     s:40340

     6555    40337    2            CALL Z8AE$ERROR (%E$LEVEL_CHECK,

  40337 35 040647   000151 236000 xsym               LDQ     O1COM+105
        35 040650   000025 736000                    QLS     21
        35 040651   000672 036000 36                 ADLQ    442
PL6.E3A0      #001=Z8EM$SEMANTICS_DATA_DIV File=Z8EM.:Z8A6TSI                    SAT 08/09/97 12:08 Page:1151
        35 040652   001014 756000 0                  STQ     PROC$+4
        35 040653   000151 236000 xsym               LDQ     O1COM+105
        35 040654   000025 736000                    QLS     21
        35 040655   000673 036000 36                 ADLQ    443
        35 040656   000004 235000 36                 LDA     4
        35 040657   001012 757000 0                  STAQ    PROC$+2
        35 040660   001012 630400 0                  EPPR0   PROC$+2
        35 040661   000000 631400 36                 EPPR1   0
        35 040662   000000 701000 xent               TSX1    Z8AE$ERROR
        35 040663   000000 011000                    NOP     0

     6556    40338    2                             O1COM.LX_STK.LINE(O1COM.LX_TOP - 4),
     6557    40339    2                             O1COM.LX_STK.COLUMN(O1COM.LX_TOP - 4));
     6558    40340    2          CALL CHECK_AND_SAVE_ITEM (ADDR(O1COM.LX_STK(O1COM.LX_TOP)),

  40340 35 040664   000151 236000 xsym               LDQ     O1COM+105
        35 040665   000025 736000                    QLS     21
        35 040666   000631 036000 36                 ADLQ    409
        35 040667   001137 756000 0                  STQ     PROC$+87
        35 040670   000223 236000 36                 LDQ     147
        35 040671   000141 756000 0                  STQ     @FIELD$+1
        35 040672   000045 236000 xsym               LDQ     O1COM+37
        35 040673   000027 036003                    ADLQ    23,DU
        35 040674   000140 756000 0                  STQ     @ITEM$+1
        35 040675   001137 630400 0                  EPPR0   PROC$+87
        35 040676   000137 450400 0                  STP0    NUM+2
        35 040677   003076 701000 35                 TSX1    CHECK_AND_SAVE_ITEM
        35 040700   000000 011000                    NOP     0
        35 040701   056641 710000 35                 TRA     s:45674

     6559    40341    2                                    O1COM.CURRENT_FILE_LTS$ -> FILE_LTS.FILE_ID$,
     6560    40342    2                                    %RSV_WRD_FILE_ID);
     6561    40343
     6562    40344    2     CASE(%ACT_VALUE_OF_RETENTION);

     6563    40345    2          IF COMCOM.OB.FIPS.OBS THEN

PL6.E3A0      #001=Z8EM$SEMANTICS_DATA_DIV File=Z8EM.:Z8A6TSI                    SAT 08/09/97 12:08 Page:1152
  40345 35 040702   000036 234000 xsym               SZN     COMCOM+30
        35 040703   040721 605000 35                 TPL     s:40349

     6564    40346    2            CALL Z8AE$ERROR (%E$OBSOLETE,

  40346 35 040704   000151 236000 xsym               LDQ     O1COM+105
        35 040705   000025 736000                    QLS     21
        35 040706   000672 036000 36                 ADLQ    442
        35 040707   001014 756000 0                  STQ     PROC$+4
        35 040710   000151 236000 xsym               LDQ     O1COM+105
        35 040711   000025 736000                    QLS     21
        35 040712   000673 036000 36                 ADLQ    443
        35 040713   000543 235000 36                 LDA     355
        35 040714   001012 757000 0                  STAQ    PROC$+2
        35 040715   001012 630400 0                  EPPR0   PROC$+2
        35 040716   000000 631400 36                 EPPR1   0
        35 040717   000000 701000 xent               TSX1    Z8AE$ERROR
        35 040720   000000 011000                    NOP     0

     6565    40347    2                             O1COM.LX_STK.LINE(O1COM.LX_TOP - 4),
     6566    40348    2                             O1COM.LX_STK.COLUMN(O1COM.LX_TOP - 4));
     6567    40349    2          IF COMCOM.OB.FIPS.LEVEL >= %INT_LEV THEN

  40349 35 040721   000036 720000 xsym               LXL0    COMCOM+30
        35 040722   000002 100003                    CMPX0   2,DU
        35 040723   040741 604000 35                 TMI     s:40353

     6568    40350    2            CALL Z8AE$ERROR (%E$LEVEL_CHECK,

  40350 35 040724   000151 236000 xsym               LDQ     O1COM+105
        35 040725   000025 736000                    QLS     21
        35 040726   000672 036000 36                 ADLQ    442
        35 040727   001014 756000 0                  STQ     PROC$+4
        35 040730   000151 236000 xsym               LDQ     O1COM+105
        35 040731   000025 736000                    QLS     21
        35 040732   000673 036000 36                 ADLQ    443
        35 040733   000004 235000 36                 LDA     4
PL6.E3A0      #001=Z8EM$SEMANTICS_DATA_DIV File=Z8EM.:Z8A6TSI                    SAT 08/09/97 12:08 Page:1153
        35 040734   001012 757000 0                  STAQ    PROC$+2
        35 040735   001012 630400 0                  EPPR0   PROC$+2
        35 040736   000000 631400 36                 EPPR1   0
        35 040737   000000 701000 xent               TSX1    Z8AE$ERROR
        35 040740   000000 011000                    NOP     0

     6569    40351    2                             O1COM.LX_STK.LINE(O1COM.LX_TOP - 4),
     6570    40352    2                             O1COM.LX_STK.COLUMN(O1COM.LX_TOP - 4));
     6571    40353    2          CALL CHECK_AND_SAVE_ITEM (ADDR(O1COM.LX_STK(O1COM.LX_TOP)),

  40353 35 040741   000151 236000 xsym               LDQ     O1COM+105
        35 040742   000025 736000                    QLS     21
        35 040743   000631 036000 36                 ADLQ    409
        35 040744   001140 756000 0                  STQ     PROC$+88
        35 040745   000741 236000 36                 LDQ     481
        35 040746   000141 756000 0                  STQ     @FIELD$+1
        35 040747   000045 236000 xsym               LDQ     O1COM+37
        35 040750   000030 036003                    ADLQ    24,DU
        35 040751   000140 756000 0                  STQ     @ITEM$+1
        35 040752   001140 630400 0                  EPPR0   PROC$+88
        35 040753   000137 450400 0                  STP0    NUM+2
        35 040754   003076 701000 35                 TSX1    CHECK_AND_SAVE_ITEM
        35 040755   000000 011000                    NOP     0
        35 040756   056641 710000 35                 TRA     s:45674

     6572    40354    2                                    O1COM.CURRENT_FILE_LTS$ -> FILE_LTS.RETENTION$,
     6573    40355    2                                    %RSV_WRD_RETENTION);
     6574    40356
     6575    40357    2     CASE(%ACT_VALUE_OF_CATALOG_NAME);

     6576    40358    2          IF COMCOM.OB.FIPS.OBS THEN

  40358 35 040757   000036 234000 xsym               SZN     COMCOM+30
        35 040760   040776 605000 35                 TPL     s:40362

     6577    40359    2            CALL Z8AE$ERROR (%E$OBSOLETE,

PL6.E3A0      #001=Z8EM$SEMANTICS_DATA_DIV File=Z8EM.:Z8A6TSI                    SAT 08/09/97 12:08 Page:1154
  40359 35 040761   000151 236000 xsym               LDQ     O1COM+105
        35 040762   000025 736000                    QLS     21
        35 040763   000672 036000 36                 ADLQ    442
        35 040764   001014 756000 0                  STQ     PROC$+4
        35 040765   000151 236000 xsym               LDQ     O1COM+105
        35 040766   000025 736000                    QLS     21
        35 040767   000673 036000 36                 ADLQ    443
        35 040770   000543 235000 36                 LDA     355
        35 040771   001012 757000 0                  STAQ    PROC$+2
        35 040772   001012 630400 0                  EPPR0   PROC$+2
        35 040773   000000 631400 36                 EPPR1   0
        35 040774   000000 701000 xent               TSX1    Z8AE$ERROR
        35 040775   000000 011000                    NOP     0

     6578    40360    2                             O1COM.LX_STK.LINE(O1COM.LX_TOP - 4),
     6579    40361    2                             O1COM.LX_STK.COLUMN(O1COM.LX_TOP - 4));
     6580    40362    2          IF COMCOM.OB.FIPS.LEVEL >= %INT_LEV THEN

  40362 35 040776   000036 720000 xsym               LXL0    COMCOM+30
        35 040777   000002 100003                    CMPX0   2,DU
        35 041000   041016 604000 35                 TMI     s:40366

     6581    40363    2            CALL Z8AE$ERROR (%E$LEVEL_CHECK,

  40363 35 041001   000151 236000 xsym               LDQ     O1COM+105
        35 041002   000025 736000                    QLS     21
        35 041003   000672 036000 36                 ADLQ    442
        35 041004   001014 756000 0                  STQ     PROC$+4
        35 041005   000151 236000 xsym               LDQ     O1COM+105
        35 041006   000025 736000                    QLS     21
        35 041007   000673 036000 36                 ADLQ    443
        35 041010   000004 235000 36                 LDA     4
        35 041011   001012 757000 0                  STAQ    PROC$+2
        35 041012   001012 630400 0                  EPPR0   PROC$+2
        35 041013   000000 631400 36                 EPPR1   0
        35 041014   000000 701000 xent               TSX1    Z8AE$ERROR
        35 041015   000000 011000                    NOP     0
PL6.E3A0      #001=Z8EM$SEMANTICS_DATA_DIV File=Z8EM.:Z8A6TSI                    SAT 08/09/97 12:08 Page:1155

     6582    40364    2                             O1COM.LX_STK.LINE(O1COM.LX_TOP - 4),
     6583    40365    2                             O1COM.LX_STK.COLUMN(O1COM.LX_TOP - 4));
     6584    40366    2          CALL CHECK_AND_SAVE_ITEM (ADDR(O1COM.LX_STK(O1COM.LX_TOP)),

  40366 35 041016   000151 236000 xsym               LDQ     O1COM+105
        35 041017   000025 736000                    QLS     21
        35 041020   000631 036000 36                 ADLQ    409
        35 041021   001141 756000 0                  STQ     PROC$+89
        35 041022   000743 236000 36                 LDQ     483
        35 041023   000141 756000 0                  STQ     @FIELD$+1
        35 041024   000045 236000 xsym               LDQ     O1COM+37
        35 041025   000031 036003                    ADLQ    25,DU
        35 041026   000140 756000 0                  STQ     @ITEM$+1
        35 041027   001141 630400 0                  EPPR0   PROC$+89
        35 041030   000137 450400 0                  STP0    NUM+2
        35 041031   003076 701000 35                 TSX1    CHECK_AND_SAVE_ITEM
        35 041032   000000 011000                    NOP     0
        35 041033   056641 710000 35                 TRA     s:45674

     6585    40367    2                                    O1COM.CURRENT_FILE_LTS$ -> FILE_LTS.CATALOG$,
     6586    40368    2                                    %RSV_WRD_CATALOG_NAME);
     6587    40369
     6588    40370    2     CASE(%ACT_DISPOSE_LIST);

     6589    40371    2          IF COMCOM.OB.FIPS.OBS AND O1COM.LX_STK.SYMBOL (O1COM.LX_TOP - 2) = %
             40371                   RSV_WRD_DATA THEN

  40371 35 041034   000036 234000 xsym               SZN     COMCOM+30
        35 041035   041060 605000 35                 TPL     s:40375
        35 041036   000151 236000 xsym               LDQ     O1COM+105
        35 041037   000003 736000                    QLS     3
        35 041040   014002 235006 xsym               LDA     O1COM+6146,QL
        35 041041   000172 115007                    CMPA    122,DL
        35 041042   041060 601000 35                 TNZ     s:40375

     6590    40372    2            CALL Z8AE$ERROR (%E$OBSOLETE,
PL6.E3A0      #001=Z8EM$SEMANTICS_DATA_DIV File=Z8EM.:Z8A6TSI                    SAT 08/09/97 12:08 Page:1156

  40372 35 041043   000151 236000 xsym               LDQ     O1COM+105
        35 041044   000025 736000                    QLS     21
        35 041045   000544 036000 36                 ADLQ    356
        35 041046   001014 756000 0                  STQ     PROC$+4
        35 041047   000151 236000 xsym               LDQ     O1COM+105
        35 041050   000025 736000                    QLS     21
        35 041051   000545 036000 36                 ADLQ    357
        35 041052   000543 235000 36                 LDA     355
        35 041053   001012 757000 0                  STAQ    PROC$+2
        35 041054   001012 630400 0                  EPPR0   PROC$+2
        35 041055   000000 631400 36                 EPPR1   0
        35 041056   000000 701000 xent               TSX1    Z8AE$ERROR
        35 041057   000000 011000                    NOP     0

     6591    40373    2                             O1COM.LX_STK.LINE(O1COM.LX_TOP - 2),
     6592    40374    2                             O1COM.LX_STK.COLUMN(O1COM.LX_TOP - 2));
     6593    40375    2          CALL Z8ED$DISPOSE_ABSSYN_TREE (ADDR(O1COM.LX_STK(O1COM.LX_TOP)) -> LX_LIST.
             40375                   HEAD$);

  40375 35 041060   000151 236000 xsym               LDQ     O1COM+105
        35 041061   000025 736000                    QLS     21
        35 041062   000674 036000 36                 ADLQ    444
        35 041063   001012 756000 0                  STQ     PROC$+2
        35 041064   001012 630400 0                  EPPR0   PROC$+2
        35 041065   000036 631400 36                 EPPR1   30
        35 041066   000000 701000 xent               TSX1    Z8ED$DISPOSE_ABSSYN_TREE
        35 041067   000000 011000                    NOP     0
        35 041070   056641 710000 35                 TRA     s:45674

     6594    40376
     6595    40377    2     CASE(%ACT_LINAGE_LINES);

     6596    40378    3          IF COMCOM.OB.FIPS.LEVEL >= %INT_LEV THEN DO;

  40378 35 041071   000036 720000 xsym               LXL0    COMCOM+30
        35 041072   000002 100003                    CMPX0   2,DU
PL6.E3A0      #001=Z8EM$SEMANTICS_DATA_DIV File=Z8EM.:Z8A6TSI                    SAT 08/09/97 12:08 Page:1157
        35 041073   041111 604000 35                 TMI     s:40383

     6597    40379    3            CALL Z8AE$ERROR (%E$LEVEL_CHECK,

  40379 35 041074   000151 236000 xsym               LDQ     O1COM+105
        35 041075   000025 736000                    QLS     21
        35 041076   000544 036000 36                 ADLQ    356
        35 041077   001014 756000 0                  STQ     PROC$+4
        35 041100   000151 236000 xsym               LDQ     O1COM+105
        35 041101   000025 736000                    QLS     21
        35 041102   000545 036000 36                 ADLQ    357
        35 041103   000004 235000 36                 LDA     4
        35 041104   001012 757000 0                  STAQ    PROC$+2
        35 041105   001012 630400 0                  EPPR0   PROC$+2
        35 041106   000000 631400 36                 EPPR1   0
        35 041107   000000 701000 xent               TSX1    Z8AE$ERROR
        35 041110   000000 011000                    NOP     0

     6598    40380    3                             O1COM.LX_STK.LINE(O1COM.LX_TOP - 2),
     6599    40381    3                             O1COM.LX_STK.COLUMN(O1COM.LX_TOP - 2));
     6600    40382    3          END;

     6601    40383    2          CALL PAD_CHAR_LINAGE (ADDR(O1COM.LX_STK(O1COM.LX_TOP)),

  40383 35 041111   000151 236000 xsym               LDQ     O1COM+105
        35 041112   000025 736000                    QLS     21
        35 041113   000631 036000 36                 ADLQ    409
        35 041114   001142 756000 0                  STQ     PROC$+90
        35 041115   000745 236000 36                 LDQ     485
        35 041116   000455 756000 0                  STQ     @FIELD$+1
        35 041117   000045 236000 xsym               LDQ     O1COM+37
        35 041120   000033 036003                    ADLQ    27,DU
        35 041121   000454 756000 0                  STQ     @ITEM$+1
        35 041122   001142 630400 0                  EPPR0   PROC$+90
        35 041123   000453 450400 0                  STP0    FILE$+2
        35 041124   021025 701000 35                 TSX1    PAD_CHAR_LINAGE
        35 041125   000000 011000                    NOP     0
PL6.E3A0      #001=Z8EM$SEMANTICS_DATA_DIV File=Z8EM.:Z8A6TSI                    SAT 08/09/97 12:08 Page:1158
        35 041126   056641 710000 35                 TRA     s:45674

     6602    40384    2                                    O1COM.CURRENT_FILE_LTS$ -> FILE_LTS.LINAGE.
             40384                                             NO_OF_LINES$,
     6603    40385    2                                    %RSV_WRD_LINAGE);
     6604    40386
     6605    40387    2     CASE(%ACT_LINAGE_FOOTING);

     6606    40388    2          CALL PAD_CHAR_LINAGE (ADDR(O1COM.LX_STK(O1COM.LX_TOP)),

  40388 35 041127   000151 236000 xsym               LDQ     O1COM+105
        35 041130   000025 736000                    QLS     21
        35 041131   000631 036000 36                 ADLQ    409
        35 041132   001143 756000 0                  STQ     PROC$+91
        35 041133   000062 236000 36                 LDQ     50
        35 041134   000455 756000 0                  STQ     @FIELD$+1
        35 041135   000045 236000 xsym               LDQ     O1COM+37
        35 041136   000034 036003                    ADLQ    28,DU
        35 041137   000454 756000 0                  STQ     @ITEM$+1
        35 041140   001143 630400 0                  EPPR0   PROC$+91
        35 041141   000453 450400 0                  STP0    FILE$+2
        35 041142   021025 701000 35                 TSX1    PAD_CHAR_LINAGE
        35 041143   000000 011000                    NOP     0
        35 041144   056641 710000 35                 TRA     s:45674

     6607    40389    2                                   O1COM.CURRENT_FILE_LTS$ -> FILE_LTS.LINAGE.FOOTING$
             40389                                             ,
     6608    40390    2                                    %RSV_WRD_FOOTING);
     6609    40391
     6610    40392    2     CASE(%ACT_LINAGE_TOP);

     6611    40393    2          CALL PAD_CHAR_LINAGE (ADDR(O1COM.LX_STK(O1COM.LX_TOP)),

  40393 35 041145   000151 236000 xsym               LDQ     O1COM+105
        35 041146   000025 736000                    QLS     21
        35 041147   000631 036000 36                 ADLQ    409
        35 041150   001144 756000 0                  STQ     PROC$+92
PL6.E3A0      #001=Z8EM$SEMANTICS_DATA_DIV File=Z8EM.:Z8A6TSI                    SAT 08/09/97 12:08 Page:1159
        35 041151   000747 236000 36                 LDQ     487
        35 041152   000455 756000 0                  STQ     @FIELD$+1
        35 041153   000045 236000 xsym               LDQ     O1COM+37
        35 041154   000035 036003                    ADLQ    29,DU
        35 041155   000454 756000 0                  STQ     @ITEM$+1
        35 041156   001144 630400 0                  EPPR0   PROC$+92
        35 041157   000453 450400 0                  STP0    FILE$+2
        35 041160   021025 701000 35                 TSX1    PAD_CHAR_LINAGE
        35 041161   000000 011000                    NOP     0
        35 041162   056641 710000 35                 TRA     s:45674

     6612    40394    2                                    O1COM.CURRENT_FILE_LTS$ -> FILE_LTS.LINAGE.TOP$,
     6613    40395    2                                    %RSV_WRD_TOP);
     6614    40396
     6615    40397    2     CASE(%ACT_LINAGE_BOTTOM);

     6616    40398    2          CALL PAD_CHAR_LINAGE (ADDR(O1COM.LX_STK(O1COM.LX_TOP)),

  40398 35 041163   000151 236000 xsym               LDQ     O1COM+105
        35 041164   000025 736000                    QLS     21
        35 041165   000631 036000 36                 ADLQ    409
        35 041166   001145 756000 0                  STQ     PROC$+93
        35 041167   000751 236000 36                 LDQ     489
        35 041170   000455 756000 0                  STQ     @FIELD$+1
        35 041171   000045 236000 xsym               LDQ     O1COM+37
        35 041172   000036 036003                    ADLQ    30,DU
        35 041173   000454 756000 0                  STQ     @ITEM$+1
        35 041174   001145 630400 0                  EPPR0   PROC$+93
        35 041175   000453 450400 0                  STP0    FILE$+2
        35 041176   021025 701000 35                 TSX1    PAD_CHAR_LINAGE
        35 041177   000000 011000                    NOP     0
        35 041200   056641 710000 35                 TRA     s:45674

     6617    40399    2                                   O1COM.CURRENT_FILE_LTS$ -> FILE_LTS.LINAGE.BOTTOM$,
     6618    40400    2                                    %RSV_WRD_BOTTOM);
     6619    40401
     6620    40402    2     CASE(%ACT_REPORT_CLAUSE);
PL6.E3A0      #001=Z8EM$SEMANTICS_DATA_DIV File=Z8EM.:Z8A6TSI                    SAT 08/09/97 12:08 Page:1160

     6621    40403
     6622    40404    2          CALL CHECK_IND_ORG(ADDR(O1COM.LX_STK(O1COM.LX_TOP)) -> LX_LIST.HEAD$);

  40404 35 041201   000151 236000 xsym               LDQ     O1COM+105
        35 041202   000025 736000                    QLS     21
        35 041203   000674 036000 36                 ADLQ    444
        35 041204   000161 756000 0                  STQ     FILE$+2
        35 041205   003607 701000 35                 TSX1    CHECK_IND_ORG
        35 041206   000000 011000                    NOP     0

     6623    40405    2          CALL CHECK_KEY_ORG(ADDR(O1COM.LX_STK(O1COM.LX_TOP)) -> LX_LIST.HEAD$);

  40405 35 041207   000151 236000 xsym               LDQ     O1COM+105
        35 041210   000025 736000                    QLS     21
        35 041211   000674 036000 36                 ADLQ    444
        35 041212   000163 756000 0                  STQ     @TERMINAL$+2
        35 041213   003671 701000 35                 TSX1    CHECK_KEY_ORG
        35 041214   000000 011000                    NOP     0

     6624    40406    2          CALL CHECK_REL_ORG(ADDR(O1COM.LX_STK(O1COM.LX_TOP)) -> LX_LIST.HEAD$);

  40406 35 041215   000151 236000 xsym               LDQ     O1COM+105
        35 041216   000025 736000                    QLS     21
        35 041217   000674 036000 36                 ADLQ    444
        35 041220   000167 756000 0                  STQ     @DNT$+2
        35 041221   004026 701000 35                 TSX1    CHECK_REL_ORG
        35 041222   000000 011000                    NOP     0

     6625    40407
     6626    40408    2          IF COMCOM.OB.FIPS.RPW THEN

  40408 35 041223   000036 236000 xsym               LDQ     COMCOM+30
        35 041224   040000 316003                    CANQ    16384,DU
        35 041225   041243 600000 35                 TZE     s:40412

     6627    40409    2            CALL Z8AE$ERROR (%E$LEVEL_CHECK,
PL6.E3A0      #001=Z8EM$SEMANTICS_DATA_DIV File=Z8EM.:Z8A6TSI                    SAT 08/09/97 12:08 Page:1161

  40409 35 041226   000151 236000 xsym               LDQ     O1COM+105
        35 041227   000025 736000                    QLS     21
        35 041230   000544 036000 36                 ADLQ    356
        35 041231   001014 756000 0                  STQ     PROC$+4
        35 041232   000151 236000 xsym               LDQ     O1COM+105
        35 041233   000025 736000                    QLS     21
        35 041234   000545 036000 36                 ADLQ    357
        35 041235   000004 235000 36                 LDA     4
        35 041236   001012 757000 0                  STAQ    PROC$+2
        35 041237   001012 630400 0                  EPPR0   PROC$+2
        35 041240   000000 631400 36                 EPPR1   0
        35 041241   000000 701000 xent               TSX1    Z8AE$ERROR
        35 041242   000000 011000                    NOP     0

     6628    40410    2                             O1COM.LX_STK.LINE(O1COM.LX_TOP - 2),
     6629    40411    2                             O1COM.LX_STK.COLUMN(O1COM.LX_TOP - 2));
     6630    40412    2          CALL CHECK_AND_SAVE_ITEM (ADDR(O1COM.LX_STK(O1COM.LX_TOP)),

  40412 35 041243   000151 236000 xsym               LDQ     O1COM+105
        35 041244   000025 736000                    QLS     21
        35 041245   000631 036000 36                 ADLQ    409
        35 041246   001146 756000 0                  STQ     PROC$+94
        35 041247   000753 236000 36                 LDQ     491
        35 041250   000141 756000 0                  STQ     @FIELD$+1
        35 041251   000045 236000 xsym               LDQ     O1COM+37
        35 041252   000040 036003                    ADLQ    32,DU
        35 041253   000140 756000 0                  STQ     @ITEM$+1
        35 041254   001146 630400 0                  EPPR0   PROC$+94
        35 041255   000137 450400 0                  STP0    NUM+2
        35 041256   003076 701000 35                 TSX1    CHECK_AND_SAVE_ITEM
        35 041257   000000 011000                    NOP     0

     6631    40413    2                                    O1COM.CURRENT_FILE_LTS$ -> FILE_LTS.REPORT$,
     6632    40414    2                                    %RSV_WRD_REPORT);
     6633    40415
     6634    40416    2          IF O1COM.CURRENT_FILE_LTS$ -> FILE_LTS.ACCESS_MODE ~= %NOT_SPECIFIED AND
PL6.E3A0      #001=Z8EM$SEMANTICS_DATA_DIV File=Z8EM.:Z8A6TSI                    SAT 08/09/97 12:08 Page:1162

  40416 35 041260   000045 470400 xsym               LDP0    O1COM+37
        35 041261   000011 235100                    LDA     9,,PR0
        35 041262   041305 600000 35                 TZE     s:40426
        35 041263   000001 115007                    CMPA    1,DL
        35 041264   041305 600000 35                 TZE     s:40426

     6635    40417    2            O1COM.CURRENT_FILE_LTS$ -> FILE_LTS.ACCESS_MODE ~= %SEQUENTIAL_ACCESS THEN
     6636    40418    3            DO;

     6637    40419    3              CALL Z8AE$ERROR (%E$ERR_ACCESS_W_REPORT,

  40419 35 041265   000151 236000 xsym               LDQ     O1COM+105
        35 041266   000003 736000                    QLS     3
        35 041267   014023 471406 xsym               LDP1    O1COM+6163,QL
        35 041270   100006 633500                    EPPR3   6,,PR1
        35 041271   001014 453400 0                  STP3    PROC$+4
        35 041272   100005 634500                    EPPR4   5,,PR1
        35 041273   001013 454400 0                  STP4    PROC$+3
        35 041274   000755 236000 36                 LDQ     493
        35 041275   001012 756000 0                  STQ     PROC$+2
        35 041276   001012 630400 0                  EPPR0   PROC$+2
        35 041277   000000 631400 36                 EPPR1   0
        35 041300   000000 701000 xent               TSX1    Z8AE$ERROR
        35 041301   000000 011000                    NOP     0

     6638    40420    3                         ADDR(O1COM.LX_STK(O1COM.LX_TOP)) -> LX_LIST.HEAD$ -> LX_ITEM.
             40420                                   LINE,
     6639    40421    3                         ADDR(O1COM.LX_STK(O1COM.LX_TOP)) -> LX_LIST.HEAD$ -> LX_ITEM.
             40421                                   COLUMN);
     6640    40422
     6641    40423    3              O1COM.CURRENT_FILE_LTS$ -> FILE_LTS.ACCESS_MODE = %SEQUENTIAL_ACCESS;

  40423 35 041302   000001 235007                    LDA     1,DL
        35 041303   000045 470400 xsym               LDP0    O1COM+37
        35 041304   000011 755100                    STA     9,,PR0

PL6.E3A0      #001=Z8EM$SEMANTICS_DATA_DIV File=Z8EM.:Z8A6TSI                    SAT 08/09/97 12:08 Page:1163
     6642    40424    3            END;

     6643    40425
     6644    40426    2          P$ = O1COM.CURRENT_FILE_LTS$ -> FILE_LTS.ASSIGN$ -> LTS_PTR_ARRAY.P$(0);

  40426 35 041305   000045 470400 xsym               LDP0    O1COM+37
        35 041306   000004 471500                    LDP1    4,,PR0
        35 041307   100002 236100                    LDQ     2,,PR1
        35 041310   000021 756000 0                  STQ     P$

     6645    40427
     6646    40428    3          DO SELECT (P$ -> DNT.TEXT.NAME);

  40428 35 041311   000021 471400 0                  LDP1    P$
        35 041312   100004 220100                    LDX0    4,,PR1
        35 041313   040000 106540                    CMPC    fill='040'O
        35 041314   100004 400010                    ADSC9   4,,PR1                   cn=2,n=*X0
        35 041315   000136 000004 34                 ADSC9   RSW_NO+94                cn=0,n=4
        35 041316   041345 602000 35                 TNC     s:40428+28
        35 041317   041365 600000 35                 TZE     s:40447
        35 041320   040000 106540                    CMPC    fill='040'O
        35 041321   100004 400010                    ADSC9   4,,PR1                   cn=2,n=*X0
        35 041322   000137 000011 34                 ADSC9   RSW_NO+95                cn=0,n=9
        35 041323   041332 602000 35                 TNC     s:40428+17
        35 041324   041410 600000 35                 TZE     s:40484
        35 041325   040000 106540                    CMPC    fill='040'O
        35 041326   100004 400010                    ADSC9   4,,PR1                   cn=2,n=*X0
        35 041327   000142 000005 34                 ADSC9   RSW_NO+98                cn=0,n=5
        35 041330   056641 601000 35                 TNZ     s:45674
        35 041331   041410 710000 35                 TRA     s:40484
        35 041332   040000 106540                    CMPC    fill='040'O
        35 041333   100004 400010                    ADSC9   4,,PR1                   cn=2,n=*X0
        35 041334   000137 000007 34                 ADSC9   RSW_NO+95                cn=0,n=7
        35 041335   041340 602000 35                 TNC     s:40428+23
        35 041336   041364 600000 35                 TZE     s:40429
        35 041337   056641 710000 35                 TRA     s:45674
        35 041340   040000 106540                    CMPC    fill='040'O
PL6.E3A0      #001=Z8EM$SEMANTICS_DATA_DIV File=Z8EM.:Z8A6TSI                    SAT 08/09/97 12:08 Page:1164
        35 041341   100004 400010                    ADSC9   4,,PR1                   cn=2,n=*X0
        35 041342   000144 000015 34                 ADSC9   RSW_NO+100               cn=0,n=13
        35 041343   056641 601000 35                 TNZ     s:45674
        35 041344   041410 710000 35                 TRA     s:40484
        35 041345   040000 106540                    CMPC    fill='040'O
        35 041346   100004 400010                    ADSC9   4,,PR1                   cn=2,n=*X0
        35 041347   000150 000013 34                 ADSC9   RSW_NO+104               cn=0,n=11
        35 041350   041357 602000 35                 TNC     s:40428+38
        35 041351   041410 600000 35                 TZE     s:40484
        35 041352   040000 106540                    CMPC    fill='040'O
        35 041353   100004 400010                    ADSC9   4,,PR1                   cn=2,n=*X0
        35 041354   000153 000004 34                 ADSC9   RSW_NO+107               cn=0,n=4
        35 041355   056641 601000 35                 TNZ     s:45674
        35 041356   041365 710000 35                 TRA     s:40447
        35 041357   040000 106540                    CMPC    fill='040'O
        35 041360   100004 400010                    ADSC9   4,,PR1                   cn=2,n=*X0
        35 041361   000154 000012 34                 ADSC9   RSW_NO+108               cn=0,n=10
        35 041362   056641 601000 35                 TNZ     s:45674
        35 041363   041410 710000 35                 TRA     s:40484

     6647    40429    3            SELECT (%PRINTER);

  40429 35 041364   056641 710000 35                 TRA     s:45674

     6648    40430                   /* OK */
     6649    40431
     6650    40432    3            SELECT (%DISK, %DISC);

     6651    40433
     6652    40434                   %CONDITIONAL_ERROR (@LX_ITEM$ = "ADDR(O1COM.LX_STK(O1COM.LX_TOP -2))",
     6653    40435                         @ERROR# = %E$REPORT_DISK_ERROR,
     6654    40436                         @LINE   = "ADDR(O1COM.LX_STK(O1COM.LX_TOP-2))->LX_ITEM.LINE",
     6655    40437                         @COLUMN = "ADDR(O1COM.LX_STK(O1COM.LX_TOP-2))->LX_ITEM.COLUMN");

  40447 35 041365   000151 235000 xsym               LDA     O1COM+105
        35 041366   000003 735000                    ALS     3
        35 041367   013777 236005 xsym               LDQ     O1COM+6143,AL
PL6.E3A0      #001=Z8EM$SEMANTICS_DATA_DIV File=Z8EM.:Z8A6TSI                    SAT 08/09/97 12:08 Page:1165
        35 041370   400000 316007                    CANQ    -131072,DL
        35 041371   056641 601000 35                 TNZ     s:45674

  40449 35 041372   000151 236000 xsym               LDQ     O1COM+105
        35 041373   000025 736000                    QLS     21
        35 041374   000544 036000 36                 ADLQ    356
        35 041375   001014 756000 0                  STQ     PROC$+4
        35 041376   000151 236000 xsym               LDQ     O1COM+105
        35 041377   000025 736000                    QLS     21
        35 041400   000545 036000 36                 ADLQ    357
        35 041401   000757 235000 36                 LDA     495
        35 041402   001012 757000 0                  STAQ    PROC$+2
        35 041403   001012 630400 0                  EPPR0   PROC$+2
        35 041404   000000 631400 36                 EPPR1   0
        35 041405   000000 701000 xent               TSX1    Z8AE$ERROR
        35 041406   000000 011000                    NOP     0

  40465 35 041407   056641 710000 35                 TRA     s:45674

     6656    40467
     6657    40468    3            SELECT (%CARD_READER,%CARD_PUNCH,%PRINTER_F,%SYSIN,%MAGNETIC_TAPE);

     6658    40469
     6659    40470                   %CONDITIONAL_ERROR (@LX_ITEM$ = "ADDR(O1COM.LX_STK(O1COM.LX_TOP-2))",
     6660    40471                         @ERROR# = %E$REPORT_DEVICE_ERROR,
     6661    40472                         @LINE   = "ADDR(O1COM.LX_STK(O1COM.LX_TOP-2))->LX_ITEM.LINE",
     6662    40473                         @COLUMN = "ADDR(O1COM.LX_STK(O1COM.LX_TOP-2))->LX_ITEM.COLUMN",
     6663    40474                         @PLUG1  = P$);

  40484 35 041410   000151 235000 xsym               LDA     O1COM+105
        35 041411   000003 735000                    ALS     3
        35 041412   013777 236005 xsym               LDQ     O1COM+6143,AL
        35 041413   400000 316007                    CANQ    -131072,DL
        35 041414   041440 601000 35                 TNZ     s:40505

  40486 35 041415   000306 236000 36                 LDQ     198
        35 041416   001015 756000 0                  STQ     PROC$+5
PL6.E3A0      #001=Z8EM$SEMANTICS_DATA_DIV File=Z8EM.:Z8A6TSI                    SAT 08/09/97 12:08 Page:1166
        35 041417   000151 236000 xsym               LDQ     O1COM+105
        35 041420   000025 736000                    QLS     21
        35 041421   000544 036000 36                 ADLQ    356
        35 041422   001014 756000 0                  STQ     PROC$+4
        35 041423   000151 236000 xsym               LDQ     O1COM+105
        35 041424   000025 736000                    QLS     21
        35 041425   000545 036000 36                 ADLQ    357
        35 041426   000761 235000 36                 LDA     497
        35 041427   001012 757000 0                  STAQ    PROC$+2
        35 041430   001012 630400 0                  EPPR0   PROC$+2
        35 041431   000005 631400 36                 EPPR1   5
        35 041432   000000 701000 xent               TSX1    Z8AE$ERROR
        35 041433   000000 011000                    NOP     0

  40495 35 041434   000151 235000 xsym               LDA     O1COM+105
        35 041435   000003 735000                    ALS     3
        35 041436   400000 236007                    LDQ     -131072,DL
        35 041437   013777 256005 xsym               ORSQ    O1COM+6143,AL

     6664    40504
     6665    40505    3              LEX_SYMBOL.SIZE = 7;

  40505 35 041440   000007 235007                    LDA     7,DL
        35 041441   000010 755000 25                 STA     LEX_SYMBOL+8

     6666    40506    3              SUBSTR(LEX_SYMBOL.SYMBOL, 0, 7) = %PRINTER;

  40506 35 041442   040000 100400                    MLR     fill='040'O
        35 041443   000137 000007 34                 ADSC9   RSW_NO+95                cn=0,n=7
        35 041444   000011 000007 25                 ADSC9   LEX_SYMBOL+9             cn=0,n=7

     6667    40507    3              CALL Z8AH$SEARCH_ ;

  40507 35 041445   000011 631400 36                 EPPR1   9
        35 041446   000000 701000 xent               TSX1    Z8AH$SEARCH_
        35 041447   000000 011000                    NOP     0

PL6.E3A0      #001=Z8EM$SEMANTICS_DATA_DIV File=Z8EM.:Z8A6TSI                    SAT 08/09/97 12:08 Page:1167
     6668    40508    3              O1COM.CURRENT_FILE_LTS$ -> FILE_LTS.ASSIGN$ ->

  40508 35 041450   000045 470400 xsym               LDP0    O1COM+37
        35 041451   000004 471500                    LDP1    4,,PR0
        35 041452   000000 236000 14                 LDQ     DNT$
        35 041453   100002 756100                    STQ     2,,PR1

     6669    40509    3                LTS_PTR_ARRAY.P$(0) = DNT$ ;
     6670    40510
     6671    40511    3          END;  /* END SELECT */

  40511 35 041454   056641 710000 35                 TRA     s:45674

     6672    40512
     6673    40513
     6674    40514        %EJECT;
PL6.E3A0      #001=Z8EM$SEMANTICS_DATA_DIV File=Z8EM.:Z8A6TSI                    SAT 08/09/97 12:08 Page:1168
     6675    40515        /*
     6676    40516                               Communication Section
     6677    40517        */
     6678    40518
     6679    40519    2     CASE(%ACT_COMMUNICATION_DESCRIPTION);

     6680    40520    2          O1COM.DATA_DECL_CONTEXT = %COMMUNICATION_DESC;

  40520 35 041455   000003 236007                    LDQ     3,DL
        35 041456   000015 756000 xsym               STQ     O1COM+13

     6681    40521
     6682    40522    2          IF O1COM.SECTION_FOUND.COMMUNICATION THEN

  40522 35 041457   000063 236000 xsym               LDQ     O1COM+51
        35 041460   004000 316003                    CANQ    2048,DU
        35 041461   041510 600000 35                 TZE     s:40561

     6683    40523    3            DO;

     6684    40524    3              P$ = ADDR(O1COM.LX_STK(O1COM.LX_TOP));

  40524 35 041462   000151 236000 xsym               LDQ     O1COM+105
        35 041463   000025 736000                    QLS     21
        35 041464   000631 036000 36                 ADLQ    409
        35 041465   000021 756000 0                  STQ     P$

     6685    40525
     6686    40526                   %CONDITIONAL_ERROR (@LX_ITEM$ = P$,
     6687    40527                                       @ERROR#   = %E$MULTIPLE_SECTIONS,
     6688    40528                                       @LINE     = P$ -> LX_ITEM.LINE,
     6689    40529                                       @COLUMN   = P$ -> LX_ITEM.COLUMN);

  40539 35 041466   000021 470400 0                  LDP0    P$
        35 041467   000000 236100                    LDQ     0,,PR0
        35 041470   400000 316007                    CANQ    -131072,DL
        35 041471   041510 601000 35                 TNZ     s:40561
PL6.E3A0      #001=Z8EM$SEMANTICS_DATA_DIV File=Z8EM.:Z8A6TSI                    SAT 08/09/97 12:08 Page:1169

  40541 35 041472   000021 236000 0                  LDQ     P$
        35 041473   000006 036003                    ADLQ    6,DU
        35 041474   001014 756000 0                  STQ     PROC$+4
        35 041475   000021 236000 0                  LDQ     P$
        35 041476   000005 036003                    ADLQ    5,DU
        35 041477   000633 235000 36                 LDA     411
        35 041500   001012 757000 0                  STAQ    PROC$+2
        35 041501   001012 630400 0                  EPPR0   PROC$+2
        35 041502   000000 631400 36                 EPPR1   0
        35 041503   000000 701000 xent               TSX1    Z8AE$ERROR
        35 041504   000000 011000                    NOP     0

  40550 35 041505   000021 470400 0                  LDP0    P$
        35 041506   400000 236007                    LDQ     -131072,DL
        35 041507   000000 256100                    ORSQ    0,,PR0

     6690    40559    3            END;

     6691    40560
     6692    40561    2          IF /*N* Free Format -- NOT COMCOM.OB.FORMAT AND */

  40561 35 041510   000151 235000 xsym               LDA     O1COM+105
        35 041511   000003 735000                    ALS     3
        35 041512   014005 236005 xsym               LDQ     O1COM+6149,AL
        35 041513   041516 604000 35                 TMI     s:40564
        35 041514   000121 116000 xsym               CMPQ    O1COM+81
        35 041515   041537 604000 35                 TMI     s:40569

     6693    40562    2                 O1COM.LX_STK.COLUMN (O1COM.LX_TOP - 2) >= O1COM.AREA_B_COLUMN_START
             40562                          THEN
     6694    40563
     6695    40564    2            CALL  Z8AE$ERROR (%E$MUST_BE_IN_AREA_A,

  40564 35 041516   000151 236000 xsym               LDQ     O1COM+105
        35 041517   000025 736000                    QLS     21
        35 041520   000763 036000 36                 ADLQ    499
PL6.E3A0      #001=Z8EM$SEMANTICS_DATA_DIV File=Z8EM.:Z8A6TSI                    SAT 08/09/97 12:08 Page:1170
        35 041521   001015 756000 0                  STQ     PROC$+5
        35 041522   000151 236000 xsym               LDQ     O1COM+105
        35 041523   000025 736000                    QLS     21
        35 041524   000544 036000 36                 ADLQ    356
        35 041525   001014 756000 0                  STQ     PROC$+4
        35 041526   000151 236000 xsym               LDQ     O1COM+105
        35 041527   000025 736000                    QLS     21
        35 041530   000545 036000 36                 ADLQ    357
        35 041531   000764 235000 36                 LDA     500
        35 041532   001012 757000 0                  STAQ    PROC$+2
        35 041533   001012 630400 0                  EPPR0   PROC$+2
        35 041534   000005 631400 36                 EPPR1   5
        35 041535   000000 701000 xent               TSX1    Z8AE$ERROR
        35 041536   000000 011000                    NOP     0

     6696    40565    2                              O1COM.LX_STK.LINE (O1COM.LX_TOP - 2),
     6697    40566    2                              O1COM.LX_STK.COLUMN (O1COM.LX_TOP - 2),
     6698    40567    2                              O1COM.LX_STK.DNT$ (O1COM.LX_TOP - 2));
     6699    40568
     6700    40569    2          O1COM.SECTION_FOUND.COMMUNICATION = TRUE;

  40569 35 041537   004000 236003                    LDQ     2048,DU
        35 041540   000063 256000 xsym               ORSQ    O1COM+51
        35 041541   056641 710000 35                 TRA     s:45674

     6701    40570
     6702    40571
     6703    40572    2     CASE (%ACT_COMMUNICATION_PROGRAM);

     6704    40573
     6705    40574    2          O1COM.TPE_INTERFACE = TRUE;

  40574 35 041542   200000 236003                    LDQ     65536,DU
        35 041543   000117 256000 xsym               ORSQ    O1COM+79
        35 041544   056641 710000 35                 TRA     s:45674

     6706    40575
PL6.E3A0      #001=Z8EM$SEMANTICS_DATA_DIV File=Z8EM.:Z8A6TSI                    SAT 08/09/97 12:08 Page:1171
     6707    40576    2     CASE (%ACT_CD_ENTRY_NO_DD);

     6708    40577
     6709    40578               %NEW_COPY_LX_STK (@FROM = "O1COM.LX_TOP - 3",
     6710    40579                                @POINTER = O1COM.CURRENT_CD_ENTRY$ -> LX_CD_INPUT.CD_NAME$)
             40579                                     ;

  40584 35 041545   000054 236000 36                 LDQ     44
        35 041546   001013 756000 0                  STQ     PROC$+3
        35 041547   000120 236000 xsym               LDQ     O1COM+80
        35 041550   000001 036003                    ADLQ    1,DU
        35 041551   001012 756000 0                  STQ     PROC$+2
        35 041552   001012 630400 0                  EPPR0   PROC$+2
        35 041553   000025 631400 36                 EPPR1   21
        35 041554   000000 701000 xent               TSX1    Z8ED$NEW_HEAP
        35 041555   000000 011000                    NOP     0

  40587 35 041556   000120 470400 xsym               LDP0    O1COM+80
        35 041557   000001 471500                    LDP1    1,,PR0
        35 041560   000151 235000 xsym               LDA     O1COM+105
        35 041561   000005 735000                    ALS     5
        35 041562   000100 100405                    MLR     fill='000'O
        35 041563   013767 000040 xsym               ADSC9   O1COM+6135,A             cn=0,n=32
        35 041564   100000 000040                    ADSC9   0,,PR1                   cn=0,n=32

     6711    40590
     6712    40591    2          CALL PROCESS_CD_NO_DD;

  40591 35 041565   021155 701000 35                 TSX1    PROCESS_CD_NO_DD
        35 041566   000000 011000                    NOP     0
        35 041567   056641 710000 35                 TRA     s:45674

     6713    40592
     6714    40593    2     CASE (%ACT_CD_ENTRY);

     6715    40594
     6716    40595               %NEW_COPY_LX_STK (@FROM = "O1COM.LX_TOP - 3",
PL6.E3A0      #001=Z8EM$SEMANTICS_DATA_DIV File=Z8EM.:Z8A6TSI                    SAT 08/09/97 12:08 Page:1172
     6717    40596                                @POINTER = O1COM.CURRENT_CD_ENTRY$ -> LX_CD_INPUT.CD_NAME$)
             40596                                     ;

  40601 35 041570   000054 236000 36                 LDQ     44
        35 041571   001013 756000 0                  STQ     PROC$+3
        35 041572   000120 236000 xsym               LDQ     O1COM+80
        35 041573   000001 036003                    ADLQ    1,DU
        35 041574   001012 756000 0                  STQ     PROC$+2
        35 041575   001012 630400 0                  EPPR0   PROC$+2
        35 041576   000025 631400 36                 EPPR1   21
        35 041577   000000 701000 xent               TSX1    Z8ED$NEW_HEAP
        35 041600   000000 011000                    NOP     0

  40604 35 041601   000120 470400 xsym               LDP0    O1COM+80
        35 041602   000001 471500                    LDP1    1,,PR0
        35 041603   000151 235000 xsym               LDA     O1COM+105
        35 041604   000005 735000                    ALS     5
        35 041605   000100 100405                    MLR     fill='000'O
        35 041606   013767 000040 xsym               ADSC9   O1COM+6135,A             cn=0,n=32
        35 041607   100000 000040                    ADSC9   0,,PR1                   cn=0,n=32

     6718    40607
     6719    40608    2          CALL PROCESS_CD_W_DD;

  40608 35 041610   021525 701000 35                 TSX1    PROCESS_CD_W_DD
        35 041611   000000 011000                    NOP     0
        35 041612   056641 710000 35                 TRA     s:45674

     6720    40609
     6721    40610    2     CASE (%ACT_CD_RECORD_ENTRIES);

     6722    40611
     6723    40612    2          CALL Z8DR$RECORD_DECL (ADDR(O1COM.LX_STK(O1COM.LX_TOP)) -> LX_LARGE.
             40612                   LARGE_ITEM$,

  40612 35 041613   000024 236000 36                 LDQ     20
        35 041614   001012 756000 0                  STQ     PROC$+2
PL6.E3A0      #001=Z8EM$SEMANTICS_DATA_DIV File=Z8EM.:Z8A6TSI                    SAT 08/09/97 12:08 Page:1173
        35 041615   001012 630400 0                  EPPR0   PROC$+2
        35 041616   001015 450400 0                  STP0    PROC$+5
        35 041617   000151 236000 xsym               LDQ     O1COM+105
        35 041620   000025 736000                    QLS     21
        35 041621   000732 036000 36                 ADLQ    474
        35 041622   001014 756000 0                  STQ     PROC$+4
        35 041623   001014 630400 0                  EPPR0   PROC$+4
        35 041624   000025 631400 36                 EPPR1   21
        35 041625   000000 701000 xent               TSX1    Z8DR$RECORD_DECL
        35 041626   000000 011000                    NOP     0

     6724    40613    2                                 ADDR(NIL));
     6725    40614    2          CALL Z8ED$DISPOSE_ABSSYN_TREE (ADDR(O1COM.LX_STK(O1COM.LX_TOP)) -> LX_LARGE.
             40614                   LARGE_ITEM$);

  40614 35 041627   000151 236000 xsym               LDQ     O1COM+105
        35 041630   000025 736000                    QLS     21
        35 041631   000732 036000 36                 ADLQ    474
        35 041632   001012 756000 0                  STQ     PROC$+2
        35 041633   001012 630400 0                  EPPR0   PROC$+2
        35 041634   000036 631400 36                 EPPR1   30
        35 041635   000000 701000 xent               TSX1    Z8ED$DISPOSE_ABSSYN_TREE
        35 041636   000000 011000                    NOP     0

     6726    40615
     6727    40616    2          TEMP$ = O1COM.CURRENT_CD_ENTRY$ -> CD_LTS.CD_ST$ -> SCALAR.QLT$;

  40616 35 041637   000120 470400 xsym               LDP0    O1COM+80
        35 041640   000002 471500                    LDP1    2,,PR0
        35 041641   100007 236100                    LDQ     7,,PR1
        35 041642   000015 756000 0                  STQ     TEMP$

     6728    40617    2          P$ = TEMP$ -> QLT.SON -> QLT.ST$;

  40617 35 041643   000015 471400 0                  LDP1    TEMP$
        35 041644   100003 473500                    LDP3    3,,PR1
        35 041645   300004 236100                    LDQ     4,,PR3
PL6.E3A0      #001=Z8EM$SEMANTICS_DATA_DIV File=Z8EM.:Z8A6TSI                    SAT 08/09/97 12:08 Page:1174
        35 041646   000021 756000 0                  STQ     P$

     6729    40618    2          P$ -> SCALAR.B.REDEF_OBJ = TRUE;

  40618 35 041647   000021 473400 0                  LDP3    P$
        35 041650   000400 236003                    LDQ     256,DU
        35 041651   300003 256100                    ORSQ    3,,PR3

     6730    40619    2          P$ = P$ -> SCALAR.QLT$ -> QLT.BROTHER;

  40619 35 041652   000021 470400 0                  LDP0    P$
        35 041653   000007 471500                    LDP1    7,,PR0
        35 041654   100002 236100                    LDQ     2,,PR1
        35 041655   000021 756000 0                  STQ     P$

     6731    40620
     6732    40621    3          DO WHILE ( P$ ~= ADDR(NIL) );

  40621 35 041656   041671 710000 35                 TRA     s:40627

     6733    40622
     6734    40623    3            P$ -> QLT.FATHER = TEMP$;

  40623 35 041657   000015 236000 0                  LDQ     TEMP$
        35 041660   000021 470400 0                  LDP0    P$
        35 041661   000001 756100                    STQ     1,,PR0

     6735    40624    3            P$ -> QLT.ST$ -> SCALAR.B.REDEF_SUB = TRUE;

  40624 35 041662   000021 470400 0                  LDP0    P$
        35 041663   000004 471500                    LDP1    4,,PR0
        35 041664   001000 236003                    LDQ     512,DU
        35 041665   100003 256100                    ORSQ    3,,PR1

     6736    40625    3            P$ = P$ -> QLT.BROTHER;

  40625 35 041666   000021 470400 0                  LDP0    P$
PL6.E3A0      #001=Z8EM$SEMANTICS_DATA_DIV File=Z8EM.:Z8A6TSI                    SAT 08/09/97 12:08 Page:1175
        35 041667   000002 236100                    LDQ     2,,PR0
        35 041670   000021 756000 0                  STQ     P$

     6737    40626
     6738    40627    3          END;

  40627 35 041671   000024 116000 36                 CMPQ    20
        35 041672   041657 601000 35                 TNZ     s:40623

     6739    40628
     6740    40629    2          CALL CD_ENTRY_WRAPUP;

  40629 35 041673   002353 701000 35                 TSX1    CD_ENTRY_WRAPUP
        35 041674   000000 011000                    NOP     0
        35 041675   056641 710000 35                 TRA     s:45674

     6741    40630
     6742    40631    2     CASE (%ACT_CD_START);

     6743    40632
     6744    40633    2          O1COM.LEVEL_NO = 0;

  40633 35 041676   000005 450000 xsym               STZ     O1COM+5

     6745    40634
     6746    40635    3          DO CASE (ADDR(O1COM.LX_STK(O1COM.LX_TOP)) -> LX_ITEM.SYMBOL);

  40635 35 041677   000151 236000 xsym               LDQ     O1COM+105
        35 041700   000003 736000                    QLS     3
        35 041701   014022 235006 xsym               LDA     O1COM+6162,QL
        35 041702   000354 135007                    SBLA    236,DL
        35 041703   000133 115007                    CMPA    91,DL
        35 041704   041706 602005 35                 TNC     s:40635+7,AL
        35 041705   056641 710000 35                 TRA     s:45674
        35 041706   042162 710000 35                 TRA     s:40710
        35 041707   042247 710000 35                 TRA     s:40736
        35 041710   042247 710000 35                 TRA     s:40736
PL6.E3A0      #001=Z8EM$SEMANTICS_DATA_DIV File=Z8EM.:Z8A6TSI                    SAT 08/09/97 12:08 Page:1176
        35 041711   042247 710000 35                 TRA     s:40736
        35 041712   042247 710000 35                 TRA     s:40736
        35 041713   042247 710000 35                 TRA     s:40736
        35 041714   042247 710000 35                 TRA     s:40736
        35 041715   042247 710000 35                 TRA     s:40736
        35 041716   042247 710000 35                 TRA     s:40736
        35 041717   042247 710000 35                 TRA     s:40736
        35 041720   042247 710000 35                 TRA     s:40736
        35 041721   042247 710000 35                 TRA     s:40736
        35 041722   042247 710000 35                 TRA     s:40736
        35 041723   042247 710000 35                 TRA     s:40736
        35 041724   042247 710000 35                 TRA     s:40736
        35 041725   042041 710000 35                 TRA     s:40647
        35 041726   042247 710000 35                 TRA     s:40736
        35 041727   042247 710000 35                 TRA     s:40736
        35 041730   042247 710000 35                 TRA     s:40736
        35 041731   042247 710000 35                 TRA     s:40736
        35 041732   042247 710000 35                 TRA     s:40736
        35 041733   042247 710000 35                 TRA     s:40736
        35 041734   042247 710000 35                 TRA     s:40736
        35 041735   042247 710000 35                 TRA     s:40736
        35 041736   042247 710000 35                 TRA     s:40736
        35 041737   042247 710000 35                 TRA     s:40736
        35 041740   042247 710000 35                 TRA     s:40736
        35 041741   042247 710000 35                 TRA     s:40736
        35 041742   042247 710000 35                 TRA     s:40736
        35 041743   042247 710000 35                 TRA     s:40736
        35 041744   042247 710000 35                 TRA     s:40736
        35 041745   042247 710000 35                 TRA     s:40736
        35 041746   042247 710000 35                 TRA     s:40736
        35 041747   042247 710000 35                 TRA     s:40736
        35 041750   042247 710000 35                 TRA     s:40736
        35 041751   042247 710000 35                 TRA     s:40736
        35 041752   042247 710000 35                 TRA     s:40736
        35 041753   042247 710000 35                 TRA     s:40736
        35 041754   042247 710000 35                 TRA     s:40736
        35 041755   042247 710000 35                 TRA     s:40736
PL6.E3A0      #001=Z8EM$SEMANTICS_DATA_DIV File=Z8EM.:Z8A6TSI                    SAT 08/09/97 12:08 Page:1177
        35 041756   042247 710000 35                 TRA     s:40736
        35 041757   042247 710000 35                 TRA     s:40736
        35 041760   042247 710000 35                 TRA     s:40736
        35 041761   042247 710000 35                 TRA     s:40736
        35 041762   042247 710000 35                 TRA     s:40736
        35 041763   042247 710000 35                 TRA     s:40736
        35 041764   042247 710000 35                 TRA     s:40736
        35 041765   042247 710000 35                 TRA     s:40736
        35 041766   042247 710000 35                 TRA     s:40736
        35 041767   042247 710000 35                 TRA     s:40736
        35 041770   042247 710000 35                 TRA     s:40736
        35 041771   042247 710000 35                 TRA     s:40736
        35 041772   042247 710000 35                 TRA     s:40736
        35 041773   042247 710000 35                 TRA     s:40736
        35 041774   042247 710000 35                 TRA     s:40736
        35 041775   042247 710000 35                 TRA     s:40736
        35 041776   042247 710000 35                 TRA     s:40736
        35 041777   042247 710000 35                 TRA     s:40736
        35 042000   042247 710000 35                 TRA     s:40736
        35 042001   042247 710000 35                 TRA     s:40736
        35 042002   042247 710000 35                 TRA     s:40736
        35 042003   042247 710000 35                 TRA     s:40736
        35 042004   042247 710000 35                 TRA     s:40736
        35 042005   042247 710000 35                 TRA     s:40736
        35 042006   042247 710000 35                 TRA     s:40736
        35 042007   042247 710000 35                 TRA     s:40736
        35 042010   042247 710000 35                 TRA     s:40736
        35 042011   042247 710000 35                 TRA     s:40736
        35 042012   042247 710000 35                 TRA     s:40736
        35 042013   042247 710000 35                 TRA     s:40736
        35 042014   042247 710000 35                 TRA     s:40736
        35 042015   042247 710000 35                 TRA     s:40736
        35 042016   042247 710000 35                 TRA     s:40736
        35 042017   042247 710000 35                 TRA     s:40736
        35 042020   042247 710000 35                 TRA     s:40736
        35 042021   042247 710000 35                 TRA     s:40736
        35 042022   042247 710000 35                 TRA     s:40736
PL6.E3A0      #001=Z8EM$SEMANTICS_DATA_DIV File=Z8EM.:Z8A6TSI                    SAT 08/09/97 12:08 Page:1178
        35 042023   042247 710000 35                 TRA     s:40736
        35 042024   042247 710000 35                 TRA     s:40736
        35 042025   042247 710000 35                 TRA     s:40736
        35 042026   042247 710000 35                 TRA     s:40736
        35 042027   042247 710000 35                 TRA     s:40736
        35 042030   042247 710000 35                 TRA     s:40736
        35 042031   042247 710000 35                 TRA     s:40736
        35 042032   042247 710000 35                 TRA     s:40736
        35 042033   042247 710000 35                 TRA     s:40736
        35 042034   042247 710000 35                 TRA     s:40736
        35 042035   042247 710000 35                 TRA     s:40736
        35 042036   042247 710000 35                 TRA     s:40736
        35 042037   042247 710000 35                 TRA     s:40736
        35 042040   042127 710000 35                 TRA     s:40685

     6747    40636    3            CASE (%RSV_WRD_INPUT);

     6748    40637
     6749    40638                   %NEW_LX_CD_INPUT (@POINTER = O1COM.CURRENT_CD_ENTRY$);

  40647 35 042041   000406 630400 36                 EPPR0   262
        35 042042   000025 631400 36                 EPPR1   21
        35 042043   000000 701000 xent               TSX1    Z8ED$NEW_HEAP
        35 042044   000000 011000                    NOP     0

  40651 35 042045   000024 236000 36                 LDQ     20
        35 042046   000120 470400 xsym               LDP0    O1COM+80
        35 042047   000001 756100                    STQ     1,,PR0

  40652 35 042050   000024 236000 36                 LDQ     20
        35 042051   000120 470400 xsym               LDP0    O1COM+80
        35 042052   000002 756100                    STQ     2,,PR0

  40653 35 042053   000034 220003                    LDX0    28,DU
        35 042054   000120 470400 xsym               LDP0    O1COM+80
        35 042055   000000 740100                    STX0    0,,PR0

PL6.E3A0      #001=Z8EM$SEMANTICS_DATA_DIV File=Z8EM.:Z8A6TSI                    SAT 08/09/97 12:08 Page:1179
  40654 35 042056   000000 221003                    LDX1    0,DU
        35 042057   000120 470400 xsym               LDP0    O1COM+80
        35 042060   000000 441100                    SXL1    0,,PR0

  40655 35 042061   000017 450000 0                  STZ     I
        35 042062   042070 710000 35                 TRA     s:40657+1

  40656 35 042063   000024 236000 36                 LDQ     20
        35 042064   000120 470400 xsym               LDP0    O1COM+80
        35 042065   000017 720000 0                  LXL0    I
        35 042066   000003 756110                    STQ     3,X0,PR0

  40657 35 042067   000017 054000 0                  AOS     I
        35 042070   000017 235000 0                  LDA     I
        35 042071   000012 115007                    CMPA    10,DL
        35 042072   042063 604400 35                 TMOZ    s:40656

     6750    40660
     6751    40661    3              IF ADDR(O1COM.LX_STK(O1COM.LX_TOP - 1)) -> LX_ITEM.SYMBOL = %
             40661                       RSV_WRD_INITIAL THEN

  40661 35 042073   000151 236000 xsym               LDQ     O1COM+105
        35 042074   000003 736000                    QLS     3
        35 042075   014012 235006 xsym               LDA     O1COM+6154,QL
        35 042076   000370 115007                    CMPA    248,DL
        35 042077   056641 601000 35                 TNZ     s:45674

     6752    40662    4                DO;

     6753    40663    4                  IF O1COM.CD_INITIAL THEN

  40663 35 042100   000117 236000 xsym               LDQ     O1COM+79
        35 042101   100000 316003                    CANQ    32768,DU
        35 042102   042121 600000 35                 TZE     s:40669

     6754    40664    4                    CALL Z8AE$ERROR (%E$MORE_THEN_ONE_INITIAL,

PL6.E3A0      #001=Z8EM$SEMANTICS_DATA_DIV File=Z8EM.:Z8A6TSI                    SAT 08/09/97 12:08 Page:1180
  40664 35 042103   000151 236000 xsym               LDQ     O1COM+105
        35 042104   000025 736000                    QLS     21
        35 042105   000002 036000 36                 ADLQ    2
        35 042106   001014 756000 0                  STQ     PROC$+4
        35 042107   000151 236000 xsym               LDQ     O1COM+105
        35 042110   000025 736000                    QLS     21
        35 042111   000003 036000 36                 ADLQ    3
        35 042112   000766 235000 36                 LDA     502
        35 042113   001012 757000 0                  STAQ    PROC$+2
        35 042114   001012 630400 0                  EPPR0   PROC$+2
        35 042115   000000 631400 36                 EPPR1   0
        35 042116   000000 701000 xent               TSX1    Z8AE$ERROR
        35 042117   000000 011000                    NOP     0
        35 042120   056641 710000 35                 TRA     s:45674

     6755    40665    4                                     O1COM.LX_STK.LINE(O1COM.LX_TOP - 1),
     6756    40666    4                                     O1COM.LX_STK.COLUMN(O1COM.LX_TOP - 1));
     6757    40667    4                  ELSE
     6758    40668    5                    DO;

     6759    40669    5                      O1COM.CD_INITIAL = TRUE;

  40669 35 042121   100000 236003                    LDQ     32768,DU
        35 042122   000117 256000 xsym               ORSQ    O1COM+79

     6760    40670    5                      O1COM.CURRENT_CD_ENTRY$ -> LX_CD_INPUT.B.INITIAL = TRUE;

  40670 35 042123   000120 470400 xsym               LDP0    O1COM+80
        35 042124   400000 236007                    LDQ     -131072,DL
        35 042125   000000 256100                    ORSQ    0,,PR0

     6761    40671    5                    END;

     6762    40672    4                END;

  40672 35 042126   056641 710000 35                 TRA     s:45674

PL6.E3A0      #001=Z8EM$SEMANTICS_DATA_DIV File=Z8EM.:Z8A6TSI                    SAT 08/09/97 12:08 Page:1181
     6763    40673
     6764    40674    3            CASE (%RSV_WRD_OUTPUT);

     6765    40675
     6766    40676                   %NEW_LX_CD_OUTPUT (@POINTER = O1COM.CURRENT_CD_ENTRY$);

  40685 35 042127   000463 630400 36                 EPPR0   307
        35 042130   000025 631400 36                 EPPR1   21
        35 042131   000000 701000 xent               TSX1    Z8ED$NEW_HEAP
        35 042132   000000 011000                    NOP     0

  40689 35 042133   000024 236000 36                 LDQ     20
        35 042134   000120 470400 xsym               LDP0    O1COM+80
        35 042135   000001 756100                    STQ     1,,PR0

  40690 35 042136   000024 236000 36                 LDQ     20
        35 042137   000120 470400 xsym               LDP0    O1COM+80
        35 042140   000002 756100                    STQ     2,,PR0

  40691 35 042141   000035 220003                    LDX0    29,DU
        35 042142   000120 470400 xsym               LDP0    O1COM+80
        35 042143   000000 740100                    STX0    0,,PR0

  40692 35 042144   000000 221003                    LDX1    0,DU
        35 042145   000120 470400 xsym               LDP0    O1COM+80
        35 042146   000000 441100                    SXL1    0,,PR0

  40693 35 042147   000017 450000 0                  STZ     I
        35 042150   042156 710000 35                 TRA     s:40695+1

  40694 35 042151   000024 236000 36                 LDQ     20
        35 042152   000120 470400 xsym               LDP0    O1COM+80
        35 042153   000017 720000 0                  LXL0    I
        35 042154   000003 756110                    STQ     3,X0,PR0

  40695 35 042155   000017 054000 0                  AOS     I
        35 042156   000017 235000 0                  LDA     I
PL6.E3A0      #001=Z8EM$SEMANTICS_DATA_DIV File=Z8EM.:Z8A6TSI                    SAT 08/09/97 12:08 Page:1182
        35 042157   000007 115007                    CMPA    7,DL
        35 042160   042151 604400 35                 TMOZ    s:40694

  40696 35 042161   056641 710000 35                 TRA     s:45674

     6767    40698
     6768    40699    3            CASE (%RSV_WRD_I_O);

     6769    40700
     6770    40701                   %NEW_LX_CD_I_O (@POINTER = O1COM.CURRENT_CD_ENTRY$);

  40710 35 042162   000434 630400 36                 EPPR0   284
        35 042163   000025 631400 36                 EPPR1   21
        35 042164   000000 701000 xent               TSX1    Z8ED$NEW_HEAP
        35 042165   000000 011000                    NOP     0

  40714 35 042166   000024 236000 36                 LDQ     20
        35 042167   000120 470400 xsym               LDP0    O1COM+80
        35 042170   000001 756100                    STQ     1,,PR0

  40715 35 042171   000024 236000 36                 LDQ     20
        35 042172   000120 470400 xsym               LDP0    O1COM+80
        35 042173   000002 756100                    STQ     2,,PR0

  40716 35 042174   000036 220003                    LDX0    30,DU
        35 042175   000120 470400 xsym               LDP0    O1COM+80
        35 042176   000000 740100                    STX0    0,,PR0

  40717 35 042177   000000 221003                    LDX1    0,DU
        35 042200   000120 470400 xsym               LDP0    O1COM+80
        35 042201   000000 441100                    SXL1    0,,PR0

  40718 35 042202   000017 450000 0                  STZ     I
        35 042203   042211 710000 35                 TRA     s:40720+1

  40719 35 042204   000024 236000 36                 LDQ     20
        35 042205   000120 470400 xsym               LDP0    O1COM+80
PL6.E3A0      #001=Z8EM$SEMANTICS_DATA_DIV File=Z8EM.:Z8A6TSI                    SAT 08/09/97 12:08 Page:1183
        35 042206   000017 720000 0                  LXL0    I
        35 042207   000003 756110                    STQ     3,X0,PR0

  40720 35 042210   000017 054000 0                  AOS     I
        35 042211   000017 235000 0                  LDA     I
        35 042212   000005 115007                    CMPA    5,DL
        35 042213   042204 604400 35                 TMOZ    s:40719

     6771    40723
     6772    40724    3              IF ADDR(O1COM.LX_STK(O1COM.LX_TOP - 1)) -> LX_ITEM.SYMBOL = %
             40724                       RSV_WRD_INITIAL THEN

  40724 35 042214   000151 236000 xsym               LDQ     O1COM+105
        35 042215   000003 736000                    QLS     3
        35 042216   014012 235006 xsym               LDA     O1COM+6154,QL
        35 042217   000370 115007                    CMPA    248,DL
        35 042220   056641 601000 35                 TNZ     s:45674

     6773    40725    4                DO;

     6774    40726    4                  IF O1COM.CD_INITIAL THEN

  40726 35 042221   000117 236000 xsym               LDQ     O1COM+79
        35 042222   100000 316003                    CANQ    32768,DU
        35 042223   042242 600000 35                 TZE     s:40732

     6775    40727    4                    CALL Z8AE$ERROR (%E$MORE_THEN_ONE_INITIAL,

  40727 35 042224   000151 236000 xsym               LDQ     O1COM+105
        35 042225   000025 736000                    QLS     21
        35 042226   000002 036000 36                 ADLQ    2
        35 042227   001014 756000 0                  STQ     PROC$+4
        35 042230   000151 236000 xsym               LDQ     O1COM+105
        35 042231   000025 736000                    QLS     21
        35 042232   000003 036000 36                 ADLQ    3
        35 042233   000766 235000 36                 LDA     502
        35 042234   001012 757000 0                  STAQ    PROC$+2
PL6.E3A0      #001=Z8EM$SEMANTICS_DATA_DIV File=Z8EM.:Z8A6TSI                    SAT 08/09/97 12:08 Page:1184
        35 042235   001012 630400 0                  EPPR0   PROC$+2
        35 042236   000000 631400 36                 EPPR1   0
        35 042237   000000 701000 xent               TSX1    Z8AE$ERROR
        35 042240   000000 011000                    NOP     0
        35 042241   056641 710000 35                 TRA     s:45674

     6776    40728    4                                     O1COM.LX_STK.LINE(O1COM.LX_TOP - 1),
     6777    40729    4                                     O1COM.LX_STK.COLUMN(O1COM.LX_TOP - 1));
     6778    40730    4                  ELSE
     6779    40731    5                    DO;

     6780    40732    5                      O1COM.CD_INITIAL = TRUE;

  40732 35 042242   100000 236003                    LDQ     32768,DU
        35 042243   000117 256000 xsym               ORSQ    O1COM+79

     6781    40733    5                      O1COM.CURRENT_CD_ENTRY$ -> LX_CD_INPUT.B.INITIAL = TRUE;

  40733 35 042244   000120 470400 xsym               LDP0    O1COM+80
        35 042245   400000 236007                    LDQ     -131072,DL
        35 042246   000000 256100                    ORSQ    0,,PR0

     6782    40734    5                    END;

     6783    40735    4                END;

     6784    40736    3          END; /* Do case end */

  40736 35 042247   056641 710000 35                 TRA     s:45674

     6785    40737
     6786    40738    2     CASE (%ACT_CD_NAME_LIST);

     6787    40739
     6788    40740    2         IF ADDR(O1COM.LX_STK (O1COM.LX_TOP)) -> LX_LIST.COUNT > %CD_INPUT_OPTION THEN

  40740 35 042250   000151 236000 xsym               LDQ     O1COM+105
PL6.E3A0      #001=Z8EM$SEMANTICS_DATA_DIV File=Z8EM.:Z8A6TSI                    SAT 08/09/97 12:08 Page:1185
        35 042251   000003 736000                    QLS     3
        35 042252   014021 235006 xsym               LDA     O1COM+6161,QL
        35 042253   000013 115007                    CMPA    11,DL
        35 042254   042274 604400 35                 TMOZ    s:40749

     6789    40741    3            DO;

     6790    40742    3              CALL Z8AE$ERROR (%E$NAME_LIST_OVERFLOW,

  40742 35 042255   014023 470406 xsym               LDP0    O1COM+6163,QL
        35 042256   000006 631500                    EPPR1   6,,PR0
        35 042257   001014 451400 0                  STP1    PROC$+4
        35 042260   000005 633500                    EPPR3   5,,PR0
        35 042261   001013 453400 0                  STP3    PROC$+3
        35 042262   000770 236000 36                 LDQ     504
        35 042263   001012 756000 0                  STQ     PROC$+2
        35 042264   001012 630400 0                  EPPR0   PROC$+2
        35 042265   000000 631400 36                 EPPR1   0
        35 042266   000000 701000 xent               TSX1    Z8AE$ERROR
        35 042267   000000 011000                    NOP     0

     6791    40743    3                       ADDR(O1COM.LX_STK(O1COM.LX_TOP)) -> LX_LIST.HEAD$ -> LX_ITEM.
             40743                                LINE,
     6792    40744    3                       ADDR(O1COM.LX_STK(O1COM.LX_TOP)) -> LX_LIST.HEAD$ -> LX_ITEM.
             40744                                COLUMN);
     6793    40745
     6794    40746    3              ADDR(O1COM.LX_STK(O1COM.LX_TOP)) -> LX_LIST.COUNT = %CD_INPUT_OPTION;

  40746 35 042270   000151 235000 xsym               LDA     O1COM+105
        35 042271   000003 735000                    ALS     3
        35 042272   000013 236007                    LDQ     11,DL
        35 042273   014021 756005 xsym               STQ     O1COM+6161,AL

     6795    40747    3            END;

     6796    40748
     6797    40749    3          DO I = 0 TO ADDR(O1COM.LX_STK(O1COM.LX_TOP)) -> LX_LIST.COUNT - 1;
PL6.E3A0      #001=Z8EM$SEMANTICS_DATA_DIV File=Z8EM.:Z8A6TSI                    SAT 08/09/97 12:08 Page:1186

  40749 35 042274   000017 450000 0                  STZ     I
        35 042275   042316 710000 35                 TRA     s:40757+1

     6798    40750
     6799    40751    3            O1COM.CURRENT_CD_ENTRY$ -> LX_CD_INPUT.INPUT_FIELDS$(I) =

  40751 35 042276   000151 235000 xsym               LDA     O1COM+105
        35 042277   000003 735000                    ALS     3
        35 042300   014023 236005 xsym               LDQ     O1COM+6163,AL
        35 042301   000120 470400 xsym               LDP0    O1COM+80
        35 042302   000017 720000 0                  LXL0    I
        35 042303   000003 756110                    STQ     3,X0,PR0

     6800    40752    3                  ADDR(O1COM.LX_STK(O1COM.LX_TOP)) -> LX_LIST.HEAD$;
     6801    40753    3            ADDR(O1COM.LX_STK(O1COM.LX_TOP)) -> LX_LIST.HEAD$ =

  40753 35 042304   000151 235000 xsym               LDA     O1COM+105
        35 042305   000003 735000                    ALS     3
        35 042306   014023 470405 xsym               LDP0    O1COM+6163,AL
        35 042307   000007 236100                    LDQ     7,,PR0
        35 042310   014023 756005 xsym               STQ     O1COM+6163,AL

     6802    40754    3                  ADDR(O1COM.LX_STK(O1COM.LX_TOP)) -> LX_LIST.HEAD$ -> LX_ITEM.LINK;
     6803    40755    3            O1COM.CURRENT_CD_ENTRY$ -> LX_CD_INPUT.INPUT_FIELDS$(I) ->

  40755 35 042311   000120 470400 xsym               LDP0    O1COM+80
        35 042312   000003 471510                    LDP1    3,X0,PR0
        35 042313   000024 236000 36                 LDQ     20
        35 042314   100007 756100                    STQ     7,,PR1

     6804    40756    3                  LX_ITEM.LINK = ADDR(NIL);
     6805    40757    3          END;

  40757 35 042315   000017 054000 0                  AOS     I
        35 042316   000151 235000 xsym               LDA     O1COM+105
        35 042317   000003 735000                    ALS     3
PL6.E3A0      #001=Z8EM$SEMANTICS_DATA_DIV File=Z8EM.:Z8A6TSI                    SAT 08/09/97 12:08 Page:1187
        35 042320   000017 236000 0                  LDQ     I
        35 042321   014021 116005 xsym               CMPQ    O1COM+6161,AL
        35 042322   042276 604000 35                 TMI     s:40751

     6806    40758
     6807    40759    2          CALL Z8ED$DISPOSE_ABSSYN_TREE (ADDR(O1COM.LX_STK(O1COM.LX_TOP)) -> LX_LIST.
             40759                   HEAD$);

  40759 35 042323   000151 236000 xsym               LDQ     O1COM+105
        35 042324   000025 736000                    QLS     21
        35 042325   000674 036000 36                 ADLQ    444
        35 042326   001012 756000 0                  STQ     PROC$+2
        35 042327   001012 630400 0                  EPPR0   PROC$+2
        35 042330   000036 631400 36                 EPPR1   30
        35 042331   000000 701000 xent               TSX1    Z8ED$DISPOSE_ABSSYN_TREE
        35 042332   000000 011000                    NOP     0
        35 042333   056641 710000 35                 TRA     s:45674

     6808    40760
     6809    40761    2     CASE (%ACT_CD_IO_NAME_LIST);

     6810    40762
     6811    40763    2          IF ADDR(O1COM.LX_STK (O1COM.LX_TOP)) -> LX_LIST.COUNT > %CD_I_O_OPTION THEN

  40763 35 042334   000151 236000 xsym               LDQ     O1COM+105
        35 042335   000003 736000                    QLS     3
        35 042336   014021 235006 xsym               LDA     O1COM+6161,QL
        35 042337   000006 115007                    CMPA    6,DL
        35 042340   042360 604400 35                 TMOZ    s:40772

     6812    40764    3            DO;

     6813    40765    3              CALL Z8AE$ERROR (%E$NAME_LIST_OVERFLOW,

  40765 35 042341   014023 470406 xsym               LDP0    O1COM+6163,QL
        35 042342   000006 631500                    EPPR1   6,,PR0
        35 042343   001014 451400 0                  STP1    PROC$+4
PL6.E3A0      #001=Z8EM$SEMANTICS_DATA_DIV File=Z8EM.:Z8A6TSI                    SAT 08/09/97 12:08 Page:1188
        35 042344   000005 633500                    EPPR3   5,,PR0
        35 042345   001013 453400 0                  STP3    PROC$+3
        35 042346   000770 236000 36                 LDQ     504
        35 042347   001012 756000 0                  STQ     PROC$+2
        35 042350   001012 630400 0                  EPPR0   PROC$+2
        35 042351   000000 631400 36                 EPPR1   0
        35 042352   000000 701000 xent               TSX1    Z8AE$ERROR
        35 042353   000000 011000                    NOP     0

     6814    40766    3                       ADDR(O1COM.LX_STK(O1COM.LX_TOP)) -> LX_LIST.HEAD$ -> LX_ITEM.
             40766                                LINE,
     6815    40767    3                       ADDR(O1COM.LX_STK(O1COM.LX_TOP)) -> LX_LIST.HEAD$ -> LX_ITEM.
             40767                                COLUMN);
     6816    40768
     6817    40769    3              ADDR(O1COM.LX_STK(O1COM.LX_TOP)) -> LX_LIST.COUNT = %CD_I_O_OPTION;

  40769 35 042354   000151 235000 xsym               LDA     O1COM+105
        35 042355   000003 735000                    ALS     3
        35 042356   000006 236007                    LDQ     6,DL
        35 042357   014021 756005 xsym               STQ     O1COM+6161,AL

     6818    40770    3            END;

     6819    40771
     6820    40772    3          DO I = 0 TO ADDR(O1COM.LX_STK(O1COM.LX_TOP)) -> LX_LIST.COUNT - 1;

  40772 35 042360   000017 450000 0                  STZ     I
        35 042361   042402 710000 35                 TRA     s:40780+1

     6821    40773
     6822    40774    3            O1COM.CURRENT_CD_ENTRY$ -> LX_CD_I_O.I_O_FIELDS$(I) =

  40774 35 042362   000151 235000 xsym               LDA     O1COM+105
        35 042363   000003 735000                    ALS     3
        35 042364   014023 236005 xsym               LDQ     O1COM+6163,AL
        35 042365   000120 470400 xsym               LDP0    O1COM+80
        35 042366   000017 720000 0                  LXL0    I
PL6.E3A0      #001=Z8EM$SEMANTICS_DATA_DIV File=Z8EM.:Z8A6TSI                    SAT 08/09/97 12:08 Page:1189
        35 042367   000003 756110                    STQ     3,X0,PR0

     6823    40775    3                  ADDR(O1COM.LX_STK(O1COM.LX_TOP)) -> LX_LIST.HEAD$;
     6824    40776    3            ADDR(O1COM.LX_STK(O1COM.LX_TOP)) -> LX_LIST.HEAD$ =

  40776 35 042370   000151 235000 xsym               LDA     O1COM+105
        35 042371   000003 735000                    ALS     3
        35 042372   014023 470405 xsym               LDP0    O1COM+6163,AL
        35 042373   000007 236100                    LDQ     7,,PR0
        35 042374   014023 756005 xsym               STQ     O1COM+6163,AL

     6825    40777    3                  ADDR(O1COM.LX_STK(O1COM.LX_TOP)) -> LX_LIST.HEAD$ -> LX_ITEM.LINK;
     6826    40778    3            O1COM.CURRENT_CD_ENTRY$ -> LX_CD_I_O.I_O_FIELDS$(I) ->

  40778 35 042375   000120 470400 xsym               LDP0    O1COM+80
        35 042376   000003 471510                    LDP1    3,X0,PR0
        35 042377   000024 236000 36                 LDQ     20
        35 042400   100007 756100                    STQ     7,,PR1

     6827    40779    3                  LX_ITEM.LINK = ADDR(NIL);
     6828    40780    3          END;

  40780 35 042401   000017 054000 0                  AOS     I
        35 042402   000151 235000 xsym               LDA     O1COM+105
        35 042403   000003 735000                    ALS     3
        35 042404   000017 236000 0                  LDQ     I
        35 042405   014021 116005 xsym               CMPQ    O1COM+6161,AL
        35 042406   042362 604000 35                 TMI     s:40774

     6829    40781
     6830    40782    2          CALL Z8ED$DISPOSE_ABSSYN_TREE (ADDR(O1COM.LX_STK(O1COM.LX_TOP)) -> LX_LIST.
             40782                   HEAD$);

  40782 35 042407   000151 236000 xsym               LDQ     O1COM+105
        35 042410   000025 736000                    QLS     21
        35 042411   000674 036000 36                 ADLQ    444
        35 042412   001012 756000 0                  STQ     PROC$+2
PL6.E3A0      #001=Z8EM$SEMANTICS_DATA_DIV File=Z8EM.:Z8A6TSI                    SAT 08/09/97 12:08 Page:1190
        35 042413   001012 630400 0                  EPPR0   PROC$+2
        35 042414   000036 631400 36                 EPPR1   30
        35 042415   000000 701000 xent               TSX1    Z8ED$DISPOSE_ABSSYN_TREE
        35 042416   000000 011000                    NOP     0
        35 042417   056641 710000 35                 TRA     s:45674

     6831    40783
     6832    40784    2     CASE (%ACT_CD_BLOCK_CONTAINS);

     6833    40785
     6834    40786               %NEW_COPY_LX_STK (@FROM = "O1COM.LX_TOP - 1",
     6835    40787                                 @POINTER = O1COM.CURRENT_CD_ENTRY$ -> LX_CD_INPUT.BLOCK$);

  40792 35 042420   000054 236000 36                 LDQ     44
        35 042421   001013 756000 0                  STQ     PROC$+3
        35 042422   000120 236000 xsym               LDQ     O1COM+80
        35 042423   000002 036003                    ADLQ    2,DU
        35 042424   001012 756000 0                  STQ     PROC$+2
        35 042425   001012 630400 0                  EPPR0   PROC$+2
        35 042426   000025 631400 36                 EPPR1   21
        35 042427   000000 701000 xent               TSX1    Z8ED$NEW_HEAP
        35 042430   000000 011000                    NOP     0

  40795 35 042431   000120 470400 xsym               LDP0    O1COM+80
        35 042432   000002 471500                    LDP1    2,,PR0
        35 042433   000151 235000 xsym               LDA     O1COM+105
        35 042434   000005 735000                    ALS     5
        35 042435   000100 100405                    MLR     fill='000'O
        35 042436   014007 000040 xsym               ADSC9   O1COM+6151,A             cn=0,n=32
        35 042437   100000 000040                    ADSC9   0,,PR1                   cn=0,n=32

  40796 35 042440   056641 710000 35                 TRA     s:45674

     6836    40798
     6837    40799    2     CASE (%ACT_CD_SYMBOLIC_QUEUE);

     6838    40800
PL6.E3A0      #001=Z8EM$SEMANTICS_DATA_DIV File=Z8EM.:Z8A6TSI                    SAT 08/09/97 12:08 Page:1191
     6839    40801    3          DO CASE (ADDR(O1COM.LX_STK(O1COM.LX_TOP - 1)) -> LX_ITEM.SYMBOL);

  40801 35 042441   000151 236000 xsym               LDQ     O1COM+105
        35 042442   000003 736000                    QLS     3
        35 042443   014012 235006 xsym               LDA     O1COM+6154,QL
        35 042444   000542 135007                    SBLA    354,DL
        35 042445   000126 115007                    CMPA    86,DL
        35 042446   042450 602005 35                 TNC     s:40801+7,AL
        35 042447   056641 710000 35                 TRA     s:45674
        35 042450   042576 710000 35                 TRA     s:40804
        35 042451   042665 710000 35                 TRA     s:40826
        35 042452   042665 710000 35                 TRA     s:40826
        35 042453   042665 710000 35                 TRA     s:40826
        35 042454   042665 710000 35                 TRA     s:40826
        35 042455   042665 710000 35                 TRA     s:40826
        35 042456   042665 710000 35                 TRA     s:40826
        35 042457   042665 710000 35                 TRA     s:40826
        35 042460   042665 710000 35                 TRA     s:40826
        35 042461   042665 710000 35                 TRA     s:40826
        35 042462   042665 710000 35                 TRA     s:40826
        35 042463   042665 710000 35                 TRA     s:40826
        35 042464   042665 710000 35                 TRA     s:40826
        35 042465   042665 710000 35                 TRA     s:40826
        35 042466   042665 710000 35                 TRA     s:40826
        35 042467   042665 710000 35                 TRA     s:40826
        35 042470   042665 710000 35                 TRA     s:40826
        35 042471   042665 710000 35                 TRA     s:40826
        35 042472   042665 710000 35                 TRA     s:40826
        35 042473   042665 710000 35                 TRA     s:40826
        35 042474   042665 710000 35                 TRA     s:40826
        35 042475   042665 710000 35                 TRA     s:40826
        35 042476   042665 710000 35                 TRA     s:40826
        35 042477   042665 710000 35                 TRA     s:40826
        35 042500   042665 710000 35                 TRA     s:40826
        35 042501   042665 710000 35                 TRA     s:40826
        35 042502   042665 710000 35                 TRA     s:40826
        35 042503   042665 710000 35                 TRA     s:40826
PL6.E3A0      #001=Z8EM$SEMANTICS_DATA_DIV File=Z8EM.:Z8A6TSI                    SAT 08/09/97 12:08 Page:1192
        35 042504   042665 710000 35                 TRA     s:40826
        35 042505   042665 710000 35                 TRA     s:40826
        35 042506   042665 710000 35                 TRA     s:40826
        35 042507   042665 710000 35                 TRA     s:40826
        35 042510   042665 710000 35                 TRA     s:40826
        35 042511   042665 710000 35                 TRA     s:40826
        35 042512   042665 710000 35                 TRA     s:40826
        35 042513   042665 710000 35                 TRA     s:40826
        35 042514   042665 710000 35                 TRA     s:40826
        35 042515   042665 710000 35                 TRA     s:40826
        35 042516   042665 710000 35                 TRA     s:40826
        35 042517   042665 710000 35                 TRA     s:40826
        35 042520   042665 710000 35                 TRA     s:40826
        35 042521   042665 710000 35                 TRA     s:40826
        35 042522   042665 710000 35                 TRA     s:40826
        35 042523   042665 710000 35                 TRA     s:40826
        35 042524   042665 710000 35                 TRA     s:40826
        35 042525   042665 710000 35                 TRA     s:40826
        35 042526   042665 710000 35                 TRA     s:40826
        35 042527   042665 710000 35                 TRA     s:40826
        35 042530   042665 710000 35                 TRA     s:40826
        35 042531   042665 710000 35                 TRA     s:40826
        35 042532   042665 710000 35                 TRA     s:40826
        35 042533   042665 710000 35                 TRA     s:40826
        35 042534   042665 710000 35                 TRA     s:40826
        35 042535   042665 710000 35                 TRA     s:40826
        35 042536   042665 710000 35                 TRA     s:40826
        35 042537   042665 710000 35                 TRA     s:40826
        35 042540   042665 710000 35                 TRA     s:40826
        35 042541   042665 710000 35                 TRA     s:40826
        35 042542   042665 710000 35                 TRA     s:40826
        35 042543   042665 710000 35                 TRA     s:40826
        35 042544   042665 710000 35                 TRA     s:40826
        35 042545   042665 710000 35                 TRA     s:40826
        35 042546   042665 710000 35                 TRA     s:40826
        35 042547   042665 710000 35                 TRA     s:40826
        35 042550   042665 710000 35                 TRA     s:40826
PL6.E3A0      #001=Z8EM$SEMANTICS_DATA_DIV File=Z8EM.:Z8A6TSI                    SAT 08/09/97 12:08 Page:1193
        35 042551   042665 710000 35                 TRA     s:40826
        35 042552   042665 710000 35                 TRA     s:40826
        35 042553   042665 710000 35                 TRA     s:40826
        35 042554   042665 710000 35                 TRA     s:40826
        35 042555   042665 710000 35                 TRA     s:40826
        35 042556   042665 710000 35                 TRA     s:40826
        35 042557   042665 710000 35                 TRA     s:40826
        35 042560   042665 710000 35                 TRA     s:40826
        35 042561   042665 710000 35                 TRA     s:40826
        35 042562   042665 710000 35                 TRA     s:40826
        35 042563   042665 710000 35                 TRA     s:40826
        35 042564   042665 710000 35                 TRA     s:40826
        35 042565   042665 710000 35                 TRA     s:40826
        35 042566   042665 710000 35                 TRA     s:40826
        35 042567   042665 710000 35                 TRA     s:40826
        35 042570   042665 710000 35                 TRA     s:40826
        35 042571   042665 710000 35                 TRA     s:40826
        35 042572   042665 710000 35                 TRA     s:40826
        35 042573   042614 710000 35                 TRA     s:40810
        35 042574   042632 710000 35                 TRA     s:40816
        35 042575   042650 710000 35                 TRA     s:40822

     6840    40802    3            CASE (%RSV_WRD_QUEUE);

     6841    40803
     6842    40804    3              CALL CHECK_AND_SAVE_ITEM(ADDR(O1COM.LX_STK(O1COM.LX_TOP)),

  40804 35 042576   000151 236000 xsym               LDQ     O1COM+105
        35 042577   000025 736000                    QLS     21
        35 042600   000631 036000 36                 ADLQ    409
        35 042601   001147 756000 0                  STQ     PROC$+95
        35 042602   000772 236000 36                 LDQ     506
        35 042603   000141 756000 0                  STQ     @FIELD$+1
        35 042604   000120 236000 xsym               LDQ     O1COM+80
        35 042605   000003 036003                    ADLQ    3,DU
        35 042606   000140 756000 0                  STQ     @ITEM$+1
        35 042607   001147 630400 0                  EPPR0   PROC$+95
PL6.E3A0      #001=Z8EM$SEMANTICS_DATA_DIV File=Z8EM.:Z8A6TSI                    SAT 08/09/97 12:08 Page:1194
        35 042610   000137 450400 0                  STP0    NUM+2
        35 042611   003076 701000 35                 TSX1    CHECK_AND_SAVE_ITEM
        35 042612   000000 011000                    NOP     0
        35 042613   056641 710000 35                 TRA     s:45674

     6843    40805    3                  O1COM.CURRENT_CD_ENTRY$ -> LX_CD_INPUT.P.QUEUE$,
     6844    40806    3                  %RSV_WRD_QUEUE);
     6845    40807
     6846    40808    3            CASE (%RSV_WRD_SUB_QUEUE_1);

     6847    40809
     6848    40810    3              CALL CHECK_AND_SAVE_ITEM(ADDR(O1COM.LX_STK(O1COM.LX_TOP)),

  40810 35 042614   000151 236000 xsym               LDQ     O1COM+105
        35 042615   000025 736000                    QLS     21
        35 042616   000631 036000 36                 ADLQ    409
        35 042617   001150 756000 0                  STQ     PROC$+96
        35 042620   000774 236000 36                 LDQ     508
        35 042621   000141 756000 0                  STQ     @FIELD$+1
        35 042622   000120 236000 xsym               LDQ     O1COM+80
        35 042623   000004 036003                    ADLQ    4,DU
        35 042624   000140 756000 0                  STQ     @ITEM$+1
        35 042625   001150 630400 0                  EPPR0   PROC$+96
        35 042626   000137 450400 0                  STP0    NUM+2
        35 042627   003076 701000 35                 TSX1    CHECK_AND_SAVE_ITEM
        35 042630   000000 011000                    NOP     0
        35 042631   056641 710000 35                 TRA     s:45674

     6849    40811    3                  O1COM.CURRENT_CD_ENTRY$ -> LX_CD_INPUT.P.SUB_QUEUE_1$,
     6850    40812    3                  %RSV_WRD_SUB_QUEUE_1);
     6851    40813
     6852    40814    3            CASE (%RSV_WRD_SUB_QUEUE_2);

     6853    40815
     6854    40816    3              CALL CHECK_AND_SAVE_ITEM(ADDR(O1COM.LX_STK(O1COM.LX_TOP)),

  40816 35 042632   000151 236000 xsym               LDQ     O1COM+105
PL6.E3A0      #001=Z8EM$SEMANTICS_DATA_DIV File=Z8EM.:Z8A6TSI                    SAT 08/09/97 12:08 Page:1195
        35 042633   000025 736000                    QLS     21
        35 042634   000631 036000 36                 ADLQ    409
        35 042635   001151 756000 0                  STQ     PROC$+97
        35 042636   000776 236000 36                 LDQ     510
        35 042637   000141 756000 0                  STQ     @FIELD$+1
        35 042640   000120 236000 xsym               LDQ     O1COM+80
        35 042641   000005 036003                    ADLQ    5,DU
        35 042642   000140 756000 0                  STQ     @ITEM$+1
        35 042643   001151 630400 0                  EPPR0   PROC$+97
        35 042644   000137 450400 0                  STP0    NUM+2
        35 042645   003076 701000 35                 TSX1    CHECK_AND_SAVE_ITEM
        35 042646   000000 011000                    NOP     0
        35 042647   056641 710000 35                 TRA     s:45674

     6855    40817    3                  O1COM.CURRENT_CD_ENTRY$ -> LX_CD_INPUT.P.SUB_QUEUE_2$,
     6856    40818    3                  %RSV_WRD_SUB_QUEUE_2);
     6857    40819
     6858    40820    3            CASE (%RSV_WRD_SUB_QUEUE_3);

     6859    40821
     6860    40822    3              CALL CHECK_AND_SAVE_ITEM(ADDR(O1COM.LX_STK(O1COM.LX_TOP)),

  40822 35 042650   000151 236000 xsym               LDQ     O1COM+105
        35 042651   000025 736000                    QLS     21
        35 042652   000631 036000 36                 ADLQ    409
        35 042653   001152 756000 0                  STQ     PROC$+98
        35 042654   001000 236000 36                 LDQ     512
        35 042655   000141 756000 0                  STQ     @FIELD$+1
        35 042656   000120 236000 xsym               LDQ     O1COM+80
        35 042657   000006 036003                    ADLQ    6,DU
        35 042660   000140 756000 0                  STQ     @ITEM$+1
        35 042661   001152 630400 0                  EPPR0   PROC$+98
        35 042662   000137 450400 0                  STP0    NUM+2
        35 042663   003076 701000 35                 TSX1    CHECK_AND_SAVE_ITEM
        35 042664   000000 011000                    NOP     0

     6861    40823    3                  O1COM.CURRENT_CD_ENTRY$ -> LX_CD_INPUT.P.SUB_QUEUE_3$,
PL6.E3A0      #001=Z8EM$SEMANTICS_DATA_DIV File=Z8EM.:Z8A6TSI                    SAT 08/09/97 12:08 Page:1196
     6862    40824    3                  %RSV_WRD_SUB_QUEUE_3);
     6863    40825
     6864    40826    3          END; /* Do case end */

  40826 35 042665   056641 710000 35                 TRA     s:45674

     6865    40827
     6866    40828    2     CASE (%ACT_CD_INPUT_DATE);

     6867    40829
     6868    40830    2          CALL CHECK_AND_SAVE_ITEM(ADDR(O1COM.LX_STK(O1COM.LX_TOP)),

  40830 35 042666   000151 236000 xsym               LDQ     O1COM+105
        35 042667   000025 736000                    QLS     21
        35 042670   000631 036000 36                 ADLQ    409
        35 042671   001153 756000 0                  STQ     PROC$+99
        35 042672   001002 236000 36                 LDQ     514
        35 042673   000141 756000 0                  STQ     @FIELD$+1
        35 042674   000120 236000 xsym               LDQ     O1COM+80
        35 042675   000007 036003                    ADLQ    7,DU
        35 042676   000140 756000 0                  STQ     @ITEM$+1
        35 042677   001153 630400 0                  EPPR0   PROC$+99
        35 042700   000137 450400 0                  STP0    NUM+2
        35 042701   003076 701000 35                 TSX1    CHECK_AND_SAVE_ITEM
        35 042702   000000 011000                    NOP     0
        35 042703   056641 710000 35                 TRA     s:45674

     6869    40831    2                     O1COM.CURRENT_CD_ENTRY$ -> LX_CD_INPUT.P.MESSAGE_DATE$,
     6870    40832    2                     %RSV_WRD_DATE);
     6871    40833
     6872    40834    2     CASE (%ACT_CD_INPUT_TIME);

     6873    40835
     6874    40836    2          CALL CHECK_AND_SAVE_ITEM(ADDR(O1COM.LX_STK(O1COM.LX_TOP)),

  40836 35 042704   000151 236000 xsym               LDQ     O1COM+105
        35 042705   000025 736000                    QLS     21
PL6.E3A0      #001=Z8EM$SEMANTICS_DATA_DIV File=Z8EM.:Z8A6TSI                    SAT 08/09/97 12:08 Page:1197
        35 042706   000631 036000 36                 ADLQ    409
        35 042707   001154 756000 0                  STQ     PROC$+100
        35 042710   001004 236000 36                 LDQ     516
        35 042711   000141 756000 0                  STQ     @FIELD$+1
        35 042712   000120 236000 xsym               LDQ     O1COM+80
        35 042713   000010 036003                    ADLQ    8,DU
        35 042714   000140 756000 0                  STQ     @ITEM$+1
        35 042715   001154 630400 0                  EPPR0   PROC$+100
        35 042716   000137 450400 0                  STP0    NUM+2
        35 042717   003076 701000 35                 TSX1    CHECK_AND_SAVE_ITEM
        35 042720   000000 011000                    NOP     0
        35 042721   056641 710000 35                 TRA     s:45674

     6875    40837    2                     O1COM.CURRENT_CD_ENTRY$ -> LX_CD_INPUT.P.MESSAGE_TIME$,
     6876    40838    2                     %RSV_WRD_TIME);
     6877    40839
     6878    40840    2     CASE (%ACT_CD_INPUT_SOURCE);

     6879    40841
     6880    40842    2          CALL CHECK_AND_SAVE_ITEM(ADDR(O1COM.LX_STK(O1COM.LX_TOP)),

  40842 35 042722   000151 236000 xsym               LDQ     O1COM+105
        35 042723   000025 736000                    QLS     21
        35 042724   000631 036000 36                 ADLQ    409
        35 042725   001155 756000 0                  STQ     PROC$+101
        35 042726   001006 236000 36                 LDQ     518
        35 042727   000141 756000 0                  STQ     @FIELD$+1
        35 042730   000120 236000 xsym               LDQ     O1COM+80
        35 042731   000011 036003                    ADLQ    9,DU
        35 042732   000140 756000 0                  STQ     @ITEM$+1
        35 042733   001155 630400 0                  EPPR0   PROC$+101
        35 042734   000137 450400 0                  STP0    NUM+2
        35 042735   003076 701000 35                 TSX1    CHECK_AND_SAVE_ITEM
        35 042736   000000 011000                    NOP     0
        35 042737   056641 710000 35                 TRA     s:45674

     6881    40843    2                     O1COM.CURRENT_CD_ENTRY$ -> LX_CD_INPUT.P.SYMBOLIC_SOURCE$,
PL6.E3A0      #001=Z8EM$SEMANTICS_DATA_DIV File=Z8EM.:Z8A6TSI                    SAT 08/09/97 12:08 Page:1198
     6882    40844    2                     %RSV_WRD_SOURCE);
     6883    40845
     6884    40846    2     CASE (%ACT_CD_INPUT_TEXT_LENGTH);

     6885    40847
     6886    40848    2          CALL CHECK_AND_SAVE_ITEM(ADDR(O1COM.LX_STK(O1COM.LX_TOP)),

  40848 35 042740   000151 236000 xsym               LDQ     O1COM+105
        35 042741   000025 736000                    QLS     21
        35 042742   000631 036000 36                 ADLQ    409
        35 042743   001156 756000 0                  STQ     PROC$+102
        35 042744   001010 236000 36                 LDQ     520
        35 042745   000141 756000 0                  STQ     @FIELD$+1
        35 042746   000120 236000 xsym               LDQ     O1COM+80
        35 042747   000012 036003                    ADLQ    10,DU
        35 042750   000140 756000 0                  STQ     @ITEM$+1
        35 042751   001156 630400 0                  EPPR0   PROC$+102
        35 042752   000137 450400 0                  STP0    NUM+2
        35 042753   003076 701000 35                 TSX1    CHECK_AND_SAVE_ITEM
        35 042754   000000 011000                    NOP     0
        35 042755   056641 710000 35                 TRA     s:45674

     6887    40849    2                     O1COM.CURRENT_CD_ENTRY$ -> LX_CD_INPUT.P.TEXT_LENGTH$,
     6888    40850    2                     %RSV_WRD_LENGTH);
     6889    40851
     6890    40852    2     CASE (%ACT_CD_INPUT_END_KEY);

     6891    40853
     6892    40854    2          CALL CHECK_AND_SAVE_ITEM(ADDR(O1COM.LX_STK(O1COM.LX_TOP)),

  40854 35 042756   000151 236000 xsym               LDQ     O1COM+105
        35 042757   000025 736000                    QLS     21
        35 042760   000631 036000 36                 ADLQ    409
        35 042761   001157 756000 0                  STQ     PROC$+103
        35 042762   000676 236000 36                 LDQ     446
        35 042763   000141 756000 0                  STQ     @FIELD$+1
        35 042764   000120 236000 xsym               LDQ     O1COM+80
PL6.E3A0      #001=Z8EM$SEMANTICS_DATA_DIV File=Z8EM.:Z8A6TSI                    SAT 08/09/97 12:08 Page:1199
        35 042765   000013 036003                    ADLQ    11,DU
        35 042766   000140 756000 0                  STQ     @ITEM$+1
        35 042767   001157 630400 0                  EPPR0   PROC$+103
        35 042770   000137 450400 0                  STP0    NUM+2
        35 042771   003076 701000 35                 TSX1    CHECK_AND_SAVE_ITEM
        35 042772   000000 011000                    NOP     0
        35 042773   056641 710000 35                 TRA     s:45674

     6893    40855    2                     O1COM.CURRENT_CD_ENTRY$ -> LX_CD_INPUT.P.END_KEY$,
     6894    40856    2                     %RSV_WRD_KEY);
     6895    40857
     6896    40858    2     CASE (%ACT_CD_INPUT_STATUS_KEY);

     6897    40859
     6898    40860    2          CALL CHECK_AND_SAVE_ITEM(ADDR(O1COM.LX_STK(O1COM.LX_TOP)),

  40860 35 042774   000151 236000 xsym               LDQ     O1COM+105
        35 042775   000025 736000                    QLS     21
        35 042776   000631 036000 36                 ADLQ    409
        35 042777   001160 756000 0                  STQ     PROC$+104
        35 043000   000676 236000 36                 LDQ     446
        35 043001   000141 756000 0                  STQ     @FIELD$+1
        35 043002   000120 236000 xsym               LDQ     O1COM+80
        35 043003   000014 036003                    ADLQ    12,DU
        35 043004   000140 756000 0                  STQ     @ITEM$+1
        35 043005   001160 630400 0                  EPPR0   PROC$+104
        35 043006   000137 450400 0                  STP0    NUM+2
        35 043007   003076 701000 35                 TSX1    CHECK_AND_SAVE_ITEM
        35 043010   000000 011000                    NOP     0
        35 043011   056641 710000 35                 TRA     s:45674

     6899    40861    2                     O1COM.CURRENT_CD_ENTRY$ -> LX_CD_INPUT.P.STATUS_KEY$,
     6900    40862    2                     %RSV_WRD_KEY);
     6901    40863
     6902    40864    2     CASE (%ACT_CD_INPUT_MESSAGE_COUNT);

     6903    40865
PL6.E3A0      #001=Z8EM$SEMANTICS_DATA_DIV File=Z8EM.:Z8A6TSI                    SAT 08/09/97 12:08 Page:1200
     6904    40866    2          CALL CHECK_AND_SAVE_ITEM(ADDR(O1COM.LX_STK(O1COM.LX_TOP)),

  40866 35 043012   000151 236000 xsym               LDQ     O1COM+105
        35 043013   000025 736000                    QLS     21
        35 043014   000631 036000 36                 ADLQ    409
        35 043015   001161 756000 0                  STQ     PROC$+105
        35 043016   001012 236000 36                 LDQ     522
        35 043017   000141 756000 0                  STQ     @FIELD$+1
        35 043020   000120 236000 xsym               LDQ     O1COM+80
        35 043021   000015 036003                    ADLQ    13,DU
        35 043022   000140 756000 0                  STQ     @ITEM$+1
        35 043023   001161 630400 0                  EPPR0   PROC$+105
        35 043024   000137 450400 0                  STP0    NUM+2
        35 043025   003076 701000 35                 TSX1    CHECK_AND_SAVE_ITEM
        35 043026   000000 011000                    NOP     0
        35 043027   056641 710000 35                 TRA     s:45674

     6905    40867    2                     O1COM.CURRENT_CD_ENTRY$ -> LX_CD_INPUT.P.MESSAGE_COUNT$,
     6906    40868    2                     %RSV_WRD_MESSAGE);
     6907    40869
     6908    40870    2     CASE (%ACT_CD_DESTINATION_COUNT);

     6909    40871
     6910    40872    2          CALL CHECK_AND_SAVE_ITEM(ADDR(O1COM.LX_STK(O1COM.LX_TOP)),

  40872 35 043030   000151 236000 xsym               LDQ     O1COM+105
        35 043031   000025 736000                    QLS     21
        35 043032   000631 036000 36                 ADLQ    409
        35 043033   001162 756000 0                  STQ     PROC$+106
        35 043034   000250 236000 36                 LDQ     168
        35 043035   000141 756000 0                  STQ     @FIELD$+1
        35 043036   000120 236000 xsym               LDQ     O1COM+80
        35 043037   000003 036003                    ADLQ    3,DU
        35 043040   000140 756000 0                  STQ     @ITEM$+1
        35 043041   001162 630400 0                  EPPR0   PROC$+106
        35 043042   000137 450400 0                  STP0    NUM+2
        35 043043   003076 701000 35                 TSX1    CHECK_AND_SAVE_ITEM
PL6.E3A0      #001=Z8EM$SEMANTICS_DATA_DIV File=Z8EM.:Z8A6TSI                    SAT 08/09/97 12:08 Page:1201
        35 043044   000000 011000                    NOP     0
        35 043045   056641 710000 35                 TRA     s:45674

     6911    40873    2                     O1COM.CURRENT_CD_ENTRY$ -> LX_CD_OUTPUT.P.DESTINATION_COUNT$,
     6912    40874    2                     %RSV_WRD_DESTINATION);
     6913    40875
     6914    40876    2     CASE (%ACT_CD_OUTPUT_TEXT_LENGTH);

     6915    40877
     6916    40878    2          CALL CHECK_AND_SAVE_ITEM(ADDR(O1COM.LX_STK(O1COM.LX_TOP)),

  40878 35 043046   000151 236000 xsym               LDQ     O1COM+105
        35 043047   000025 736000                    QLS     21
        35 043050   000631 036000 36                 ADLQ    409
        35 043051   001163 756000 0                  STQ     PROC$+107
        35 043052   001010 236000 36                 LDQ     520
        35 043053   000141 756000 0                  STQ     @FIELD$+1
        35 043054   000120 236000 xsym               LDQ     O1COM+80
        35 043055   000004 036003                    ADLQ    4,DU
        35 043056   000140 756000 0                  STQ     @ITEM$+1
        35 043057   001163 630400 0                  EPPR0   PROC$+107
        35 043060   000137 450400 0                  STP0    NUM+2
        35 043061   003076 701000 35                 TSX1    CHECK_AND_SAVE_ITEM
        35 043062   000000 011000                    NOP     0
        35 043063   056641 710000 35                 TRA     s:45674

     6917    40879    2                     O1COM.CURRENT_CD_ENTRY$ -> LX_CD_OUTPUT.P.TEXT_LENGTH$,
     6918    40880    2                     %RSV_WRD_LENGTH);
     6919    40881
     6920    40882    2     CASE (%ACT_CD_OUTPUT_STATUS_KEY);

     6921    40883
     6922    40884    2          CALL CHECK_AND_SAVE_ITEM(ADDR(O1COM.LX_STK(O1COM.LX_TOP)),

  40884 35 043064   000151 236000 xsym               LDQ     O1COM+105
        35 043065   000025 736000                    QLS     21
        35 043066   000631 036000 36                 ADLQ    409
PL6.E3A0      #001=Z8EM$SEMANTICS_DATA_DIV File=Z8EM.:Z8A6TSI                    SAT 08/09/97 12:08 Page:1202
        35 043067   001164 756000 0                  STQ     PROC$+108
        35 043070   000676 236000 36                 LDQ     446
        35 043071   000141 756000 0                  STQ     @FIELD$+1
        35 043072   000120 236000 xsym               LDQ     O1COM+80
        35 043073   000005 036003                    ADLQ    5,DU
        35 043074   000140 756000 0                  STQ     @ITEM$+1
        35 043075   001164 630400 0                  EPPR0   PROC$+108
        35 043076   000137 450400 0                  STP0    NUM+2
        35 043077   003076 701000 35                 TSX1    CHECK_AND_SAVE_ITEM
        35 043100   000000 011000                    NOP     0
        35 043101   056641 710000 35                 TRA     s:45674

     6923    40885    2                     O1COM.CURRENT_CD_ENTRY$ -> LX_CD_OUTPUT.P.STATUS_KEY$,
     6924    40886    2                     %RSV_WRD_KEY);
     6925    40887
     6926    40888    2     CASE (%ACT_DESTINATION_TABLE);

     6927    40889
     6928    40890    2          CALL CHECK_AND_SAVE_ITEM(ADDR(O1COM.LX_STK(O1COM.LX_TOP - 1)),

  40890 35 043102   000151 236000 xsym               LDQ     O1COM+105
        35 043103   000025 736000                    QLS     21
        35 043104   000640 036000 36                 ADLQ    416
        35 043105   001165 756000 0                  STQ     PROC$+109
        35 043106   001014 236000 36                 LDQ     524
        35 043107   000141 756000 0                  STQ     @FIELD$+1
        35 043110   000120 236000 xsym               LDQ     O1COM+80
        35 043111   000011 036003                    ADLQ    9,DU
        35 043112   000140 756000 0                  STQ     @ITEM$+1
        35 043113   001165 630400 0                  EPPR0   PROC$+109
        35 043114   000137 450400 0                  STP0    NUM+2
        35 043115   003076 701000 35                 TSX1    CHECK_AND_SAVE_ITEM
        35 043116   000000 011000                    NOP     0
        35 043117   056641 710000 35                 TRA     s:45674

     6929    40891    2                     O1COM.CURRENT_CD_ENTRY$ -> LX_CD_OUTPUT.P.OCCURS$,
     6930    40892    2                     %RSV_WRD_OCCURS);
PL6.E3A0      #001=Z8EM$SEMANTICS_DATA_DIV File=Z8EM.:Z8A6TSI                    SAT 08/09/97 12:08 Page:1203
     6931    40893
     6932    40894    2     CASE (%ACT_CD_INDEXED);

     6933    40895
     6934    40896    2          CALL CHECK_AND_SAVE_ITEM(ADDR(O1COM.LX_STK(O1COM.LX_TOP)),

  40896 35 043120   000151 236000 xsym               LDQ     O1COM+105
        35 043121   000025 736000                    QLS     21
        35 043122   000631 036000 36                 ADLQ    409
        35 043123   001166 756000 0                  STQ     PROC$+110
        35 043124   001016 236000 36                 LDQ     526
        35 043125   000141 756000 0                  STQ     @FIELD$+1
        35 043126   000120 236000 xsym               LDQ     O1COM+80
        35 043127   000012 036003                    ADLQ    10,DU
        35 043130   000140 756000 0                  STQ     @ITEM$+1
        35 043131   001166 630400 0                  EPPR0   PROC$+110
        35 043132   000137 450400 0                  STP0    NUM+2
        35 043133   003076 701000 35                 TSX1    CHECK_AND_SAVE_ITEM
        35 043134   000000 011000                    NOP     0
        35 043135   056641 710000 35                 TRA     s:45674

     6935    40897    2                     O1COM.CURRENT_CD_ENTRY$ -> LX_CD_OUTPUT.P.INDEX_LIST$,
     6936    40898    2                     %RSV_WRD_INDEXED);
     6937    40899
     6938    40900    2     CASE (%ACT_CD_ERROR_KEY);

     6939    40901
     6940    40902    2          CALL CHECK_AND_SAVE_ITEM(ADDR(O1COM.LX_STK(O1COM.LX_TOP)),

  40902 35 043136   000151 236000 xsym               LDQ     O1COM+105
        35 043137   000025 736000                    QLS     21
        35 043140   000631 036000 36                 ADLQ    409
        35 043141   001167 756000 0                  STQ     PROC$+111
        35 043142   000676 236000 36                 LDQ     446
        35 043143   000141 756000 0                  STQ     @FIELD$+1
        35 043144   000120 236000 xsym               LDQ     O1COM+80
        35 043145   000007 036003                    ADLQ    7,DU
PL6.E3A0      #001=Z8EM$SEMANTICS_DATA_DIV File=Z8EM.:Z8A6TSI                    SAT 08/09/97 12:08 Page:1204
        35 043146   000140 756000 0                  STQ     @ITEM$+1
        35 043147   001167 630400 0                  EPPR0   PROC$+111
        35 043150   000137 450400 0                  STP0    NUM+2
        35 043151   003076 701000 35                 TSX1    CHECK_AND_SAVE_ITEM
        35 043152   000000 011000                    NOP     0
        35 043153   056641 710000 35                 TRA     s:45674

     6941    40903    2                     O1COM.CURRENT_CD_ENTRY$ -> LX_CD_OUTPUT.P.ERROR_KEY$,
     6942    40904    2                     %RSV_WRD_KEY);
     6943    40905
     6944    40906    2     CASE (%ACT_CD_SYMBOLIC_DESTINATION);

     6945    40907
     6946    40908    2          CALL CHECK_AND_SAVE_ITEM(ADDR(O1COM.LX_STK(O1COM.LX_TOP)),

  40908 35 043154   000151 236000 xsym               LDQ     O1COM+105
        35 043155   000025 736000                    QLS     21
        35 043156   000631 036000 36                 ADLQ    409
        35 043157   001170 756000 0                  STQ     PROC$+112
        35 043160   000250 236000 36                 LDQ     168
        35 043161   000141 756000 0                  STQ     @FIELD$+1
        35 043162   000120 236000 xsym               LDQ     O1COM+80
        35 043163   000010 036003                    ADLQ    8,DU
        35 043164   000140 756000 0                  STQ     @ITEM$+1
        35 043165   001170 630400 0                  EPPR0   PROC$+112
        35 043166   000137 450400 0                  STP0    NUM+2
        35 043167   003076 701000 35                 TSX1    CHECK_AND_SAVE_ITEM
        35 043170   000000 011000                    NOP     0
        35 043171   056641 710000 35                 TRA     s:45674

     6947    40909    2                     O1COM.CURRENT_CD_ENTRY$ -> LX_CD_OUTPUT.P.SYMBOLIC_DESTINATION$,
     6948    40910    2                     %RSV_WRD_DESTINATION);
     6949    40911
     6950    40912    2     CASE (%ACT_CD_IO_MESSAGE_DATE);

     6951    40913
     6952    40914    2          CALL CHECK_AND_SAVE_ITEM(ADDR(O1COM.LX_STK(O1COM.LX_TOP)),
PL6.E3A0      #001=Z8EM$SEMANTICS_DATA_DIV File=Z8EM.:Z8A6TSI                    SAT 08/09/97 12:08 Page:1205

  40914 35 043172   000151 236000 xsym               LDQ     O1COM+105
        35 043173   000025 736000                    QLS     21
        35 043174   000631 036000 36                 ADLQ    409
        35 043175   001171 756000 0                  STQ     PROC$+113
        35 043176   001002 236000 36                 LDQ     514
        35 043177   000141 756000 0                  STQ     @FIELD$+1
        35 043200   000120 236000 xsym               LDQ     O1COM+80
        35 043201   000003 036003                    ADLQ    3,DU
        35 043202   000140 756000 0                  STQ     @ITEM$+1
        35 043203   001171 630400 0                  EPPR0   PROC$+113
        35 043204   000137 450400 0                  STP0    NUM+2
        35 043205   003076 701000 35                 TSX1    CHECK_AND_SAVE_ITEM
        35 043206   000000 011000                    NOP     0
        35 043207   056641 710000 35                 TRA     s:45674

     6953    40915    2                     O1COM.CURRENT_CD_ENTRY$ -> LX_CD_I_O.P.MESSAGE_DATE$,
     6954    40916    2                     %RSV_WRD_DATE);
     6955    40917
     6956    40918    2     CASE (%ACT_CD_IO_MESSAGE_TIME);

     6957    40919
     6958    40920    2          CALL CHECK_AND_SAVE_ITEM(ADDR(O1COM.LX_STK(O1COM.LX_TOP)),

  40920 35 043210   000151 236000 xsym               LDQ     O1COM+105
        35 043211   000025 736000                    QLS     21
        35 043212   000631 036000 36                 ADLQ    409
        35 043213   001172 756000 0                  STQ     PROC$+114
        35 043214   001004 236000 36                 LDQ     516
        35 043215   000141 756000 0                  STQ     @FIELD$+1
        35 043216   000120 236000 xsym               LDQ     O1COM+80
        35 043217   000004 036003                    ADLQ    4,DU
        35 043220   000140 756000 0                  STQ     @ITEM$+1
        35 043221   001172 630400 0                  EPPR0   PROC$+114
        35 043222   000137 450400 0                  STP0    NUM+2
        35 043223   003076 701000 35                 TSX1    CHECK_AND_SAVE_ITEM
        35 043224   000000 011000                    NOP     0
PL6.E3A0      #001=Z8EM$SEMANTICS_DATA_DIV File=Z8EM.:Z8A6TSI                    SAT 08/09/97 12:08 Page:1206
        35 043225   056641 710000 35                 TRA     s:45674

     6959    40921    2                     O1COM.CURRENT_CD_ENTRY$ -> LX_CD_I_O.P.MESSAGE_TIME$,
     6960    40922    2                     %RSV_WRD_TIME);
     6961    40923
     6962    40924    2     CASE (%ACT_CD_IO_TERMINAL);

     6963    40925
     6964    40926    2          CALL CHECK_AND_SAVE_ITEM(ADDR(O1COM.LX_STK(O1COM.LX_TOP)),

  40926 35 043226   000151 236000 xsym               LDQ     O1COM+105
        35 043227   000025 736000                    QLS     21
        35 043230   000631 036000 36                 ADLQ    409
        35 043231   001173 756000 0                  STQ     PROC$+115
        35 043232   001020 236000 36                 LDQ     528
        35 043233   000141 756000 0                  STQ     @FIELD$+1
        35 043234   000120 236000 xsym               LDQ     O1COM+80
        35 043235   000005 036003                    ADLQ    5,DU
        35 043236   000140 756000 0                  STQ     @ITEM$+1
        35 043237   001173 630400 0                  EPPR0   PROC$+115
        35 043240   000137 450400 0                  STP0    NUM+2
        35 043241   003076 701000 35                 TSX1    CHECK_AND_SAVE_ITEM
        35 043242   000000 011000                    NOP     0
        35 043243   056641 710000 35                 TRA     s:45674

     6965    40927    2                     O1COM.CURRENT_CD_ENTRY$ -> LX_CD_I_O.P.TERMINAL$,
     6966    40928    2                     %RSV_WRD_TERMINAL);
     6967    40929
     6968    40930    2     CASE (%ACT_CD_IO_TEXT_LENGTH);

     6969    40931
     6970    40932    2          CALL CHECK_AND_SAVE_ITEM(ADDR(O1COM.LX_STK(O1COM.LX_TOP)),

  40932 35 043244   000151 236000 xsym               LDQ     O1COM+105
        35 043245   000025 736000                    QLS     21
        35 043246   000631 036000 36                 ADLQ    409
        35 043247   001174 756000 0                  STQ     PROC$+116
PL6.E3A0      #001=Z8EM$SEMANTICS_DATA_DIV File=Z8EM.:Z8A6TSI                    SAT 08/09/97 12:08 Page:1207
        35 043250   001010 236000 36                 LDQ     520
        35 043251   000141 756000 0                  STQ     @FIELD$+1
        35 043252   000120 236000 xsym               LDQ     O1COM+80
        35 043253   000006 036003                    ADLQ    6,DU
        35 043254   000140 756000 0                  STQ     @ITEM$+1
        35 043255   001174 630400 0                  EPPR0   PROC$+116
        35 043256   000137 450400 0                  STP0    NUM+2
        35 043257   003076 701000 35                 TSX1    CHECK_AND_SAVE_ITEM
        35 043260   000000 011000                    NOP     0
        35 043261   056641 710000 35                 TRA     s:45674

     6971    40933    2                     O1COM.CURRENT_CD_ENTRY$ -> LX_CD_I_O.P.TEXT_LENGTH$,
     6972    40934    2                     %RSV_WRD_LENGTH);
     6973    40935
     6974    40936    2     CASE (%ACT_CD_IO_END_KEY);

     6975    40937
     6976    40938    2          CALL CHECK_AND_SAVE_ITEM(ADDR(O1COM.LX_STK(O1COM.LX_TOP)),

  40938 35 043262   000151 236000 xsym               LDQ     O1COM+105
        35 043263   000025 736000                    QLS     21
        35 043264   000631 036000 36                 ADLQ    409
        35 043265   001175 756000 0                  STQ     PROC$+117
        35 043266   000676 236000 36                 LDQ     446
        35 043267   000141 756000 0                  STQ     @FIELD$+1
        35 043270   000120 236000 xsym               LDQ     O1COM+80
        35 043271   000007 036003                    ADLQ    7,DU
        35 043272   000140 756000 0                  STQ     @ITEM$+1
        35 043273   001175 630400 0                  EPPR0   PROC$+117
        35 043274   000137 450400 0                  STP0    NUM+2
        35 043275   003076 701000 35                 TSX1    CHECK_AND_SAVE_ITEM
        35 043276   000000 011000                    NOP     0
        35 043277   056641 710000 35                 TRA     s:45674

     6977    40939    2                     O1COM.CURRENT_CD_ENTRY$ -> LX_CD_I_O.P.END_KEY$,
     6978    40940    2                     %RSV_WRD_KEY);
     6979    40941
PL6.E3A0      #001=Z8EM$SEMANTICS_DATA_DIV File=Z8EM.:Z8A6TSI                    SAT 08/09/97 12:08 Page:1208
     6980    40942    2     CASE (%ACT_CD_IO_STATUS_KEY);

     6981    40943
     6982    40944    2          CALL CHECK_AND_SAVE_ITEM(ADDR(O1COM.LX_STK(O1COM.LX_TOP)),

  40944 35 043300   000151 236000 xsym               LDQ     O1COM+105
        35 043301   000025 736000                    QLS     21
        35 043302   000631 036000 36                 ADLQ    409
        35 043303   001176 756000 0                  STQ     PROC$+118
        35 043304   000676 236000 36                 LDQ     446
        35 043305   000141 756000 0                  STQ     @FIELD$+1
        35 043306   000120 236000 xsym               LDQ     O1COM+80
        35 043307   000010 036003                    ADLQ    8,DU
        35 043310   000140 756000 0                  STQ     @ITEM$+1
        35 043311   001176 630400 0                  EPPR0   PROC$+118
        35 043312   000137 450400 0                  STP0    NUM+2
        35 043313   003076 701000 35                 TSX1    CHECK_AND_SAVE_ITEM
        35 043314   000000 011000                    NOP     0
        35 043315   056641 710000 35                 TRA     s:45674

     6983    40945    2                     O1COM.CURRENT_CD_ENTRY$ -> LX_CD_I_O.P.STATUS_KEY$,
     6984    40946    2                     %RSV_WRD_KEY);
     6985    40947
     6986    40948        %EJECT;
PL6.E3A0      #001=Z8EM$SEMANTICS_DATA_DIV File=Z8EM.:Z8A6TSI                    SAT 08/09/97 12:08 Page:1209
     6987    40949        /*
     6988    40950                               Report Section
     6989    40951        */
     6990    40952
     6991    40953    2     CASE(%ACT_REPORT_SECTION);

     6992    40954    2          O1COM.DATA_DECL_CONTEXT = %REPORT_SECTION;

  40954 35 043316   000006 236007                    LDQ     6,DL
        35 043317   000015 756000 xsym               STQ     O1COM+13

     6993    40955
     6994    40956    2          IF O1COM.SECTION_FOUND.REPORT_SECTION THEN

  40956 35 043320   000063 236000 xsym               LDQ     O1COM+51
        35 043321   020000 316003                    CANQ    8192,DU
        35 043322   043352 600000 35                 TZE     s:40995

     6995    40957    3            DO;

     6996    40958    3              P$ = ADDR(O1COM.LX_STK(O1COM.LX_TOP));

  40958 35 043323   000151 236000 xsym               LDQ     O1COM+105
        35 043324   000025 736000                    QLS     21
        35 043325   000631 036000 36                 ADLQ    409
        35 043326   000021 756000 0                  STQ     P$

     6997    40959
     6998    40960                   %CONDITIONAL_ERROR (@LX_ITEM$ = P$,
     6999    40961                                       @ERROR#   = %E$MULTIPLE_SECTIONS,
     7000    40962                                       @LINE     = P$ -> LX_ITEM.LINE,
     7001    40963                                       @COLUMN   = P$ -> LX_ITEM.COLUMN);

  40973 35 043327   000021 470400 0                  LDP0    P$
        35 043330   000000 236100                    LDQ     0,,PR0
        35 043331   400000 316007                    CANQ    -131072,DL
        35 043332   043372 601000 35                 TNZ     s:41000
PL6.E3A0      #001=Z8EM$SEMANTICS_DATA_DIV File=Z8EM.:Z8A6TSI                    SAT 08/09/97 12:08 Page:1210

  40975 35 043333   000021 236000 0                  LDQ     P$
        35 043334   000006 036003                    ADLQ    6,DU
        35 043335   001014 756000 0                  STQ     PROC$+4
        35 043336   000021 236000 0                  LDQ     P$
        35 043337   000005 036003                    ADLQ    5,DU
        35 043340   000633 235000 36                 LDA     411
        35 043341   001012 757000 0                  STAQ    PROC$+2
        35 043342   001012 630400 0                  EPPR0   PROC$+2
        35 043343   000000 631400 36                 EPPR1   0
        35 043344   000000 701000 xent               TSX1    Z8AE$ERROR
        35 043345   000000 011000                    NOP     0

  40984 35 043346   000021 470400 0                  LDP0    P$
        35 043347   400000 236007                    LDQ     -131072,DL
        35 043350   000000 256100                    ORSQ    0,,PR0

     7002    40993    3            END;

  40993 35 043351   043372 710000 35                 TRA     s:41000

     7003    40994
     7004    40995    2          ELSE IF COMCOM.OB.FIPS.RPW THEN

  40995 35 043352   000036 236000 xsym               LDQ     COMCOM+30
        35 043353   040000 316003                    CANQ    16384,DU
        35 043354   043372 600000 35                 TZE     s:41000

     7005    40996    2            CALL Z8AE$ERROR (%E$LEVEL_CHECK,

  40996 35 043355   000151 236000 xsym               LDQ     O1COM+105
        35 043356   000025 736000                    QLS     21
        35 043357   000544 036000 36                 ADLQ    356
        35 043360   001014 756000 0                  STQ     PROC$+4
        35 043361   000151 236000 xsym               LDQ     O1COM+105
        35 043362   000025 736000                    QLS     21
        35 043363   000545 036000 36                 ADLQ    357
PL6.E3A0      #001=Z8EM$SEMANTICS_DATA_DIV File=Z8EM.:Z8A6TSI                    SAT 08/09/97 12:08 Page:1211
        35 043364   000004 235000 36                 LDA     4
        35 043365   001012 757000 0                  STAQ    PROC$+2
        35 043366   001012 630400 0                  EPPR0   PROC$+2
        35 043367   000000 631400 36                 EPPR1   0
        35 043370   000000 701000 xent               TSX1    Z8AE$ERROR
        35 043371   000000 011000                    NOP     0

     7006    40997    2                             O1COM.LX_STK.LINE(O1COM.LX_TOP - 2),
     7007    40998    2                             O1COM.LX_STK.COLUMN(O1COM.LX_TOP - 2));
     7008    40999
     7009    41000    2          IF /*N* Free Format -- NOT COMCOM.OB.FORMAT AND */

  41000 35 043372   000151 235000 xsym               LDA     O1COM+105
        35 043373   000003 735000                    ALS     3
        35 043374   014005 236005 xsym               LDQ     O1COM+6149,AL
        35 043375   043400 604000 35                 TMI     s:41003
        35 043376   000121 116000 xsym               CMPQ    O1COM+81
        35 043377   043421 604000 35                 TMI     s:41008

     7010    41001    2                 O1COM.LX_STK.COLUMN (O1COM.LX_TOP - 2) >= O1COM.AREA_B_COLUMN_START
             41001                          THEN
     7011    41002
     7012    41003    2            CALL  Z8AE$ERROR (%E$MUST_BE_IN_AREA_A,

  41003 35 043400   000151 236000 xsym               LDQ     O1COM+105
        35 043401   000025 736000                    QLS     21
        35 043402   000763 036000 36                 ADLQ    499
        35 043403   001015 756000 0                  STQ     PROC$+5
        35 043404   000151 236000 xsym               LDQ     O1COM+105
        35 043405   000025 736000                    QLS     21
        35 043406   000544 036000 36                 ADLQ    356
        35 043407   001014 756000 0                  STQ     PROC$+4
        35 043410   000151 236000 xsym               LDQ     O1COM+105
        35 043411   000025 736000                    QLS     21
        35 043412   000545 036000 36                 ADLQ    357
        35 043413   000764 235000 36                 LDA     500
        35 043414   001012 757000 0                  STAQ    PROC$+2
PL6.E3A0      #001=Z8EM$SEMANTICS_DATA_DIV File=Z8EM.:Z8A6TSI                    SAT 08/09/97 12:08 Page:1212
        35 043415   001012 630400 0                  EPPR0   PROC$+2
        35 043416   000005 631400 36                 EPPR1   5
        35 043417   000000 701000 xent               TSX1    Z8AE$ERROR
        35 043420   000000 011000                    NOP     0

     7013    41004    2                              O1COM.LX_STK.LINE (O1COM.LX_TOP - 2),
     7014    41005    2                              O1COM.LX_STK.COLUMN (O1COM.LX_TOP - 2),
     7015    41006    2                              O1COM.LX_STK.DNT$ (O1COM.LX_TOP - 2));
     7016    41007
     7017    41008    2          O1COM.SECTION_FOUND.REPORT_SECTION = TRUE;

  41008 35 043421   020000 236003                    LDQ     8192,DU
        35 043422   000063 256000 xsym               ORSQ    O1COM+51

     7018    41009    2          COMCOM.RD_RECOVERY_FILE$ = ADDR(NIL);

  41009 35 043423   000024 236000 36                 LDQ     20
        35 043424   000475 756000 xsym               STQ     COMCOM+317
        35 043425   056641 710000 35                 TRA     s:45674

     7019    41010
     7020    41011    2     CASE(%ACT_REPORT_CONTROL_NAME);

     7021    41012
     7022    41013               %NEW_COPY_LX_STK (@POINTER = HEAP$,
     7023    41014                                 @FROM    = O1COM.LX_TOP);

  41019 35 043426   000670 630400 36                 EPPR0   440
        35 043427   000025 631400 36                 EPPR1   21
        35 043430   000000 701000 xent               TSX1    Z8ED$NEW_HEAP
        35 043431   000000 011000                    NOP     0

  41022 35 043432   000151 235000 xsym               LDA     O1COM+105
        35 043433   000005 735000                    ALS     5
        35 043434   000000 470400 29                 LDP0    HEAP$
        35 043435   000100 100405                    MLR     fill='000'O
        35 043436   014017 000040 xsym               ADSC9   O1COM+6159,A             cn=0,n=32
PL6.E3A0      #001=Z8EM$SEMANTICS_DATA_DIV File=Z8EM.:Z8A6TSI                    SAT 08/09/97 12:08 Page:1213
        35 043437   000000 000040                    ADSC9   0,,PR0                   cn=0,n=32

     7024    41025
     7025    41026    2          CALL SAVE_CONTROL_LIST (HEAP$);

  41026 35 043440   000670 236000 36                 LDQ     440
        35 043441   000700 756000 0                  STQ     LTS$$+2
        35 043442   030564 701000 35                 TSX1    SAVE_CONTROL_LIST
        35 043443   000000 011000                    NOP     0
        35 043444   056641 710000 35                 TRA     s:45674

     7026    41027
     7027    41028    2     CASE(%ACT_REPORT_FINAL_NAME);

     7028    41029    2         O1COM.CURRENT_REPORT_LTS$ -> REPORT_LTS.B.CONTROL_FINAL = TRUE;

  41029 35 043445   000064 470400 xsym               LDP0    O1COM+52
        35 043446   200000 236003                    LDQ     65536,DU
        35 043447   000003 256100                    ORSQ    3,,PR0

     7029    41030    2          O1COM.CURRENT_REPORT_LTS$ -> REPORT_LTS.NO_CTR_ITEM = 1;

  41030 35 043450   000001 235007                    LDA     1,DL
        35 043451   000064 470400 xsym               LDP0    O1COM+52
        35 043452   000037 755100                    STA     31,,PR0

     7030    41031
     7031    41032               %NEW_COPY_LX_STK (@POINTER = HEAP$,
     7032    41033                                 @FROM    = O1COM.LX_TOP);

  41038 35 043453   000670 630400 36                 EPPR0   440
        35 043454   000025 631400 36                 EPPR1   21
        35 043455   000000 701000 xent               TSX1    Z8ED$NEW_HEAP
        35 043456   000000 011000                    NOP     0

  41041 35 043457   000151 235000 xsym               LDA     O1COM+105
        35 043460   000005 735000                    ALS     5
PL6.E3A0      #001=Z8EM$SEMANTICS_DATA_DIV File=Z8EM.:Z8A6TSI                    SAT 08/09/97 12:08 Page:1214
        35 043461   000000 470400 29                 LDP0    HEAP$
        35 043462   000100 100405                    MLR     fill='000'O
        35 043463   014017 000040 xsym               ADSC9   O1COM+6159,A             cn=0,n=32
        35 043464   000000 000040                    ADSC9   0,,PR0                   cn=0,n=32

     7033    41044
     7034    41045    2          CALL SAVE_CONTROL_LIST (HEAP$);

  41045 35 043465   000670 236000 36                 LDQ     440
        35 043466   000700 756000 0                  STQ     LTS$$+2
        35 043467   030564 701000 35                 TSX1    SAVE_CONTROL_LIST
        35 043470   000000 011000                    NOP     0
        35 043471   056641 710000 35                 TRA     s:45674

     7035    41046
     7036    41047    2      CASE(%ACT_RD_START);

     7037    41048    2          CALL RD_START (ADDR(O1COM.LX_STK(O1COM.LX_TOP)));

  41048 35 043472   000151 236000 xsym               LDQ     O1COM+105
        35 043473   000025 736000                    QLS     21
        35 043474   000631 036000 36                 ADLQ    409
        35 043475   001177 756000 0                  STQ     PROC$+119
        35 043476   001177 630400 0                  EPPR0   PROC$+119
        35 043477   000612 450400 0                  STP0    TEMP_TERMINAL+9
        35 043500   026104 701000 35                 TSX1    RD_START
        35 043501   000000 011000                    NOP     0
        35 043502   056641 710000 35                 TRA     s:45674

     7038    41049
     7039    41050    2      CASE(%ACT_RD_END);

     7040    41051    2            CALL Z8DT$REPORT_REC (ADDR(O1COM.LX_STK(O1COM.LX_TOP)) -> LX_LARGE.
             41051                     LARGE_ITEM$,

  41051 35 043503   000024 236000 36                 LDQ     20
        35 043504   001012 756000 0                  STQ     PROC$+2
PL6.E3A0      #001=Z8EM$SEMANTICS_DATA_DIV File=Z8EM.:Z8A6TSI                    SAT 08/09/97 12:08 Page:1215
        35 043505   001012 630400 0                  EPPR0   PROC$+2
        35 043506   001015 450400 0                  STP0    PROC$+5
        35 043507   000151 236000 xsym               LDQ     O1COM+105
        35 043510   000025 736000                    QLS     21
        35 043511   000732 036000 36                 ADLQ    474
        35 043512   001014 756000 0                  STQ     PROC$+4
        35 043513   001014 630400 0                  EPPR0   PROC$+4
        35 043514   000025 631400 36                 EPPR1   21
        35 043515   000000 701000 xent               TSX1    Z8DT$REPORT_REC
        35 043516   000000 011000                    NOP     0

     7041    41052    2                                  ADDR(NIL));
     7042    41053    2           CALL Z8ED$DISPOSE_ABSSYN_TREE (ADDR(O1COM.LX_STK(O1COM.LX_TOP)) -> LX_LARGE
             41053                     .LARGE_ITEM$);

  41053 35 043517   000151 236000 xsym               LDQ     O1COM+105
        35 043520   000025 736000                    QLS     21
        35 043521   000732 036000 36                 ADLQ    474
        35 043522   001012 756000 0                  STQ     PROC$+2
        35 043523   001012 630400 0                  EPPR0   PROC$+2
        35 043524   000036 631400 36                 EPPR1   30
        35 043525   000000 701000 xent               TSX1    Z8ED$DISPOSE_ABSSYN_TREE
        35 043526   000000 011000                    NOP     0
        35 043527   056641 710000 35                 TRA     s:45674

     7043    41054
     7044    41055
     7045    41056    2      CASE(%ACT_REPORT_GLOBAL);

     7046    41057    2          O1COM.CURRENT_REPORT_LTS$ -> REPORT_LTS.ST$ -> RD.B.GLOBAL = TRUE;

  41057 35 043530   000064 470400 xsym               LDP0    O1COM+52
        35 043531   000001 471500                    LDP1    1,,PR0
        35 043532   000010 236003                    LDQ     8,DU
        35 043533   100003 256100                    ORSQ    3,,PR1

     7047    41058    2          O1COM.CURRENT_REPORT_LTS$ -> REPORT_LTS.B.GLOBAL = TRUE;
PL6.E3A0      #001=Z8EM$SEMANTICS_DATA_DIV File=Z8EM.:Z8A6TSI                    SAT 08/09/97 12:08 Page:1216

  41058 35 043534   000064 470400 xsym               LDP0    O1COM+52
        35 043535   002000 236003                    LDQ     1024,DU
        35 043536   000003 256100                    ORSQ    3,,PR0

     7048    41059    2          O1COM.CURRENT_REPORT_LTS$ -> REPORT_LTS.LINE_COUNTER$ ->

  41059 35 043537   000064 470400 xsym               LDP0    O1COM+52
        35 043540   000020 471500                    LDP1    16,,PR0
        35 043541   000010 236003                    LDQ     8,DU
        35 043542   100003 256100                    ORSQ    3,,PR1

     7049    41060    2              SCALAR.B.GLOBAL = TRUE;
     7050    41061    2          O1COM.CURRENT_REPORT_LTS$ -> REPORT_LTS.PAGE_COUNTER$ ->

  41061 35 043543   000064 470400 xsym               LDP0    O1COM+52
        35 043544   000017 471500                    LDP1    15,,PR0
        35 043545   100003 256100                    ORSQ    3,,PR1
        35 043546   056641 710000 35                 TRA     s:45674

     7051    41062    2              SCALAR.B.GLOBAL = TRUE;
     7052    41063
     7053    41064    2      CASE(%ACT_REPORT_CODE);

     7054    41065    2          CALL REPORT_CODE (ADDR(O1COM.LX_STK(O1COM.LX_TOP - 1)), ADDR(O1COM.LX_STK(
             41065                   O1COM.LX_TOP)));

  41065 35 043547   000151 236000 xsym               LDQ     O1COM+105
        35 043550   000025 736000                    QLS     21
        35 043551   000640 036000 36                 ADLQ    416
        35 043552   001200 756000 0                  STQ     PROC$+120
        35 043553   000151 236000 xsym               LDQ     O1COM+105
        35 043554   000025 736000                    QLS     21
        35 043555   000631 036000 36                 ADLQ    409
        35 043556   001201 756000 0                  STQ     PROC$+121
        35 043557   001201 630400 0                  EPPR0   PROC$+121
        35 043560   000640 450400 0                  STP0    @KEYWORD$+1
PL6.E3A0      #001=Z8EM$SEMANTICS_DATA_DIV File=Z8EM.:Z8A6TSI                    SAT 08/09/97 12:08 Page:1217
        35 043561   001200 631400 0                  EPPR1   PROC$+120
        35 043562   000637 451400 0                  STP1    TEMP+2
        35 043563   027125 701000 35                 TSX1    REPORT_CODE
        35 043564   000000 011000                    NOP     0
        35 043565   056641 710000 35                 TRA     s:45674

     7055    41066
     7056    41067    2      CASE(%ACT_REPORT_CONTROL_FINAL);

     7057    41068    2           O1COM.CURRENT_REPORT_LTS$ -> REPORT_LTS.B.CONTROL_FINAL = TRUE;

  41068 35 043566   000064 470400 xsym               LDP0    O1COM+52
        35 043567   200000 236003                    LDQ     65536,DU
        35 043570   000003 256100                    ORSQ    3,,PR0

     7058    41069    2          O1COM.CURRENT_REPORT_LTS$ -> REPORT_LTS.NO_CTR_ITEM = 1;

  41069 35 043571   000001 235007                    LDA     1,DL
        35 043572   000064 470400 xsym               LDP0    O1COM+52
        35 043573   000037 755100                    STA     31,,PR0
        35 043574   056641 710000 35                 TRA     s:45674

     7059    41070
     7060    41071    2      CASE(%ACT_REPORT_PAGE_LINE);

     7061    41072    3          DO I = 0 TO 3;

  41072 35 043575   000017 450000 0                  STZ     I

     7062    41073    3            PAGE_FORMAT.P_PTR (I) = ADDR(NIL);

  41073 35 043576   000024 236000 36                 LDQ     20
        35 043577   000017 720000 0                  LXL0    I
        35 043600   000000 756010 xsym               STQ     PAGE_FORMAT,X0

     7063    41074    3          END;

PL6.E3A0      #001=Z8EM$SEMANTICS_DATA_DIV File=Z8EM.:Z8A6TSI                    SAT 08/09/97 12:08 Page:1218
  41074 35 043601   000017 054000 0                  AOS     I
        35 043602   000017 235000 0                  LDA     I
        35 043603   000003 115007                    CMPA    3,DL
        35 043604   043576 604400 35                 TMOZ    s:41073

     7064    41075    2          CALL REPORT_PAGE_FORMAT (ADDR(O1COM.LX_STK(O1COM.LX_TOP - 3)), ADDR(O1COM.
             41075                   LX_STK(O1COM.LX_TOP - 1)));

  41075 35 043605   000151 236000 xsym               LDQ     O1COM+105
        35 043606   000025 736000                    QLS     21
        35 043607   000241 036000 36                 ADLQ    161
        35 043610   001202 756000 0                  STQ     PROC$+122
        35 043611   000151 236000 xsym               LDQ     O1COM+105
        35 043612   000025 736000                    QLS     21
        35 043613   000640 036000 36                 ADLQ    416
        35 043614   001203 756000 0                  STQ     PROC$+123
        35 043615   001203 630400 0                  EPPR0   PROC$+123
        35 043616   000646 450400 0                  STP0    @PAGE$+1
        35 043617   001202 631400 0                  EPPR1   PROC$+122
        35 043620   000645 451400 0                  STP1    STRING_LENGTH+2
        35 043621   027250 701000 35                 TSX1    REPORT_PAGE_FORMAT
        35 043622   000000 011000                    NOP     0
        35 043623   056641 710000 35                 TRA     s:45674

     7065    41076    2      CASE(%ACT_PAGE_FORMAT_START);

     7066    41077    3          DO I=0 TO 3;

  41077 35 043624   000017 450000 0                  STZ     I

     7067    41078    3            PAGE_FORMAT.P_PTR (I) = ADDR(NIL);

  41078 35 043625   000024 236000 36                 LDQ     20
        35 043626   000017 720000 0                  LXL0    I
        35 043627   000000 756010 xsym               STQ     PAGE_FORMAT,X0

     7068    41079    3          END;
PL6.E3A0      #001=Z8EM$SEMANTICS_DATA_DIV File=Z8EM.:Z8A6TSI                    SAT 08/09/97 12:08 Page:1219

  41079 35 043630   000017 054000 0                  AOS     I
        35 043631   000017 235000 0                  LDA     I
        35 043632   000003 115007                    CMPA    3,DL
        35 043633   043625 604400 35                 TMOZ    s:41078
        35 043634   056641 710000 35                 TRA     s:45674

     7069    41080
     7070    41081    2      CASE(%ACT_REPORT_PAGE_FORMAT);

     7071    41082    2          CALL REPORT_PAGE_FORMAT (ADDR(O1COM.LX_STK(O1COM.LX_TOP - 5)), ADDR(O1COM.
             41082                   LX_STK(O1COM.LX_TOP - 3)));

  41082 35 043635   000151 236000 xsym               LDQ     O1COM+105
        35 043636   000025 736000                    QLS     21
        35 043637   000634 036000 36                 ADLQ    412
        35 043640   001204 756000 0                  STQ     PROC$+124
        35 043641   000151 236000 xsym               LDQ     O1COM+105
        35 043642   000025 736000                    QLS     21
        35 043643   000241 036000 36                 ADLQ    161
        35 043644   001205 756000 0                  STQ     PROC$+125
        35 043645   001205 630400 0                  EPPR0   PROC$+125
        35 043646   000646 450400 0                  STP0    @PAGE$+1
        35 043647   001204 631400 0                  EPPR1   PROC$+124
        35 043650   000645 451400 0                  STP1    STRING_LENGTH+2
        35 043651   027250 701000 35                 TSX1    REPORT_PAGE_FORMAT
        35 043652   000000 011000                    NOP     0
        35 043653   056641 710000 35                 TRA     s:45674

     7072    41083
     7073    41084    2      CASE(%ACT_REPORT_HEADING);

     7074    41085    2          ADDR(O1COM.LX_STK(O1COM.LX_TOP - 1)) -> LX_ITEM.DNT$ = ADDR(O1COM.LX_STK(
             41085                   O1COM.LX_TOP)) -> LX_ITEM.DNT$;

  41085 35 043654   000151 236000 xsym               LDQ     O1COM+105
        35 043655   000003 736000                    QLS     3
PL6.E3A0      #001=Z8EM$SEMANTICS_DATA_DIV File=Z8EM.:Z8A6TSI                    SAT 08/09/97 12:08 Page:1220
        35 043656   000000 620006                    EAX0    0,QL
        35 043657   014021 236006 xsym               LDQ     O1COM+6161,QL
        35 043660   014011 756010 xsym               STQ     O1COM+6153,X0

     7075    41086    2          CALL CHECK_AND_SAVE_ITEM (ADDR(O1COM.LX_STK(O1COM.LX_TOP - 1)),

  41086 35 043661   000151 236000 xsym               LDQ     O1COM+105
        35 043662   000025 736000                    QLS     21
        35 043663   000640 036000 36                 ADLQ    416
        35 043664   001206 756000 0                  STQ     PROC$+126
        35 043665   001022 237000 36                 LDAQ    530
        35 043666   000140 757000 0                  STAQ    @ITEM$+1
        35 043667   001206 630400 0                  EPPR0   PROC$+126
        35 043670   000137 450400 0                  STP0    NUM+2
        35 043671   003076 701000 35                 TSX1    CHECK_AND_SAVE_ITEM
        35 043672   000000 011000                    NOP     0
        35 043673   056641 710000 35                 TRA     s:45674

     7076    41087    2                                    PAGE_FORMAT.P.HEADING$,
     7077    41088    2                                    %RSV_WRD_HEADING);
     7078    41089
     7079    41090    2      CASE(%ACT_REPORT_FIRST_DETAIL);

     7080    41091    2          ADDR(O1COM.LX_STK(O1COM.LX_TOP - 2)) -> LX_ITEM.DNT$ = ADDR(O1COM.LX_STK(
             41091                   O1COM.LX_TOP)) -> LX_ITEM.DNT$;

  41091 35 043674   000151 236000 xsym               LDQ     O1COM+105
        35 043675   000003 736000                    QLS     3
        35 043676   000000 620006                    EAX0    0,QL
        35 043677   014021 236006 xsym               LDQ     O1COM+6161,QL
        35 043700   014001 756010 xsym               STQ     O1COM+6145,X0

     7081    41092    2          CALL CHECK_AND_SAVE_ITEM (ADDR(O1COM.LX_STK(O1COM.LX_TOP - 2)),

  41092 35 043701   000151 236000 xsym               LDQ     O1COM+105
        35 043702   000025 736000                    QLS     21
        35 043703   000236 036000 36                 ADLQ    158
PL6.E3A0      #001=Z8EM$SEMANTICS_DATA_DIV File=Z8EM.:Z8A6TSI                    SAT 08/09/97 12:08 Page:1221
        35 043704   001207 756000 0                  STQ     PROC$+127
        35 043705   001024 237000 36                 LDAQ    532
        35 043706   000140 757000 0                  STAQ    @ITEM$+1
        35 043707   001207 630400 0                  EPPR0   PROC$+127
        35 043710   000137 450400 0                  STP0    NUM+2
        35 043711   003076 701000 35                 TSX1    CHECK_AND_SAVE_ITEM
        35 043712   000000 011000                    NOP     0
        35 043713   056641 710000 35                 TRA     s:45674

     7082    41093    2                                    PAGE_FORMAT.P.FIRST_DETAIL$,
     7083    41094    2                                    %RSV_WRD_FIRST);
     7084    41095
     7085    41096    2      CASE(%ACT_REPORT_LAST_DETAIL);

     7086    41097    2          ADDR(O1COM.LX_STK(O1COM.LX_TOP - 2)) -> LX_ITEM.DNT$ = ADDR(O1COM.LX_STK(
             41097                   O1COM.LX_TOP)) -> LX_ITEM.DNT$;

  41097 35 043714   000151 236000 xsym               LDQ     O1COM+105
        35 043715   000003 736000                    QLS     3
        35 043716   000000 620006                    EAX0    0,QL
        35 043717   014021 236006 xsym               LDQ     O1COM+6161,QL
        35 043720   014001 756010 xsym               STQ     O1COM+6145,X0

     7087    41098    2          CALL CHECK_AND_SAVE_ITEM (ADDR(O1COM.LX_STK(O1COM.LX_TOP - 2)),

  41098 35 043721   000151 236000 xsym               LDQ     O1COM+105
        35 043722   000025 736000                    QLS     21
        35 043723   000236 036000 36                 ADLQ    158
        35 043724   001210 756000 0                  STQ     PROC$+128
        35 043725   001030 237000 36                 LDAQ    536
        35 043726   000140 757000 0                  STAQ    @ITEM$+1
        35 043727   001210 630400 0                  EPPR0   PROC$+128
        35 043730   000137 450400 0                  STP0    NUM+2
        35 043731   003076 701000 35                 TSX1    CHECK_AND_SAVE_ITEM
        35 043732   000000 011000                    NOP     0
        35 043733   056641 710000 35                 TRA     s:45674

PL6.E3A0      #001=Z8EM$SEMANTICS_DATA_DIV File=Z8EM.:Z8A6TSI                    SAT 08/09/97 12:08 Page:1222
     7088    41099    2                                    PAGE_FORMAT.P.LAST_DETAIL$,
     7089    41100    2                                    %RSV_WRD_LAST);
     7090    41101
     7091    41102    2      CASE(%ACT_REPORT_FOOTING);

     7092    41103    2          ADDR(O1COM.LX_STK(O1COM.LX_TOP - 1)) -> LX_ITEM.DNT$ = ADDR(O1COM.LX_STK(
             41103                   O1COM.LX_TOP)) -> LX_ITEM.DNT$;

  41103 35 043734   000151 236000 xsym               LDQ     O1COM+105
        35 043735   000003 736000                    QLS     3
        35 043736   000000 620006                    EAX0    0,QL
        35 043737   014021 236006 xsym               LDQ     O1COM+6161,QL
        35 043740   014011 756010 xsym               STQ     O1COM+6153,X0

     7093    41104    2          CALL CHECK_AND_SAVE_ITEM (ADDR(O1COM.LX_STK(O1COM.LX_TOP - 1)),

  41104 35 043741   000151 236000 xsym               LDQ     O1COM+105
        35 043742   000025 736000                    QLS     21
        35 043743   000640 036000 36                 ADLQ    416
        35 043744   001211 756000 0                  STQ     PROC$+129
        35 043745   001032 237000 36                 LDAQ    538
        35 043746   000140 757000 0                  STAQ    @ITEM$+1
        35 043747   001211 630400 0                  EPPR0   PROC$+129
        35 043750   000137 450400 0                  STP0    NUM+2
        35 043751   003076 701000 35                 TSX1    CHECK_AND_SAVE_ITEM
        35 043752   000000 011000                    NOP     0
        35 043753   056641 710000 35                 TRA     s:45674

     7094    41105    2                                    PAGE_FORMAT.P.FOOTING$,
     7095    41106    2                                    %RSV_WRD_FOOTING);
     7096    41107
     7097    41108    2      CASE(%ACT_PROCESS_REPORT_REC_DESC);

     7098    41109    2            CALL Z8DT$REPORT_REC (ADDR(O1COM.LX_STK(O1COM.LX_TOP -1)) -> LX_LARGE.
             41109                     LARGE_ITEM$,

  41109 35 043754   000151 236000 xsym               LDQ     O1COM+105
PL6.E3A0      #001=Z8EM$SEMANTICS_DATA_DIV File=Z8EM.:Z8A6TSI                    SAT 08/09/97 12:08 Page:1223
        35 043755   000025 736000                    QLS     21
        35 043756   000732 036000 36                 ADLQ    474
        35 043757   001013 756000 0                  STQ     PROC$+3
        35 043760   000151 236000 xsym               LDQ     O1COM+105
        35 043761   000025 736000                    QLS     21
        35 043762   001027 036000 36                 ADLQ    535
        35 043763   001012 756000 0                  STQ     PROC$+2
        35 043764   001012 630400 0                  EPPR0   PROC$+2
        35 043765   000025 631400 36                 EPPR1   21
        35 043766   000000 701000 xent               TSX1    Z8DT$REPORT_REC
        35 043767   000000 011000                    NOP     0

     7099    41110    2                                  ADDR(O1COM.LX_STK(O1COM.LX_TOP)) -> LX_LARGE.
             41110                                           LARGE_ITEM$);
     7100    41111    2            CALL Z8ED$DISPOSE_ABSSYN_TREE (ADDR(O1COM.LX_STK(O1COM.LX_TOP - 1)) ->
             41111                     LX_LARGE.LARGE_ITEM$);

  41111 35 043770   000151 236000 xsym               LDQ     O1COM+105
        35 043771   000025 736000                    QLS     21
        35 043772   001027 036000 36                 ADLQ    535
        35 043773   001012 756000 0                  STQ     PROC$+2
        35 043774   001012 630400 0                  EPPR0   PROC$+2
        35 043775   000036 631400 36                 EPPR1   30
        35 043776   000000 701000 xent               TSX1    Z8ED$DISPOSE_ABSSYN_TREE
        35 043777   000000 011000                    NOP     0

     7101    41112                 %PROPAGATE(@FROM = O1COM.LX_TOP);

  41114 35 044000   000134 235000 xsym               LDA     O1COM+92
        35 044001   000001 735000                    ALS     1
        35 044002   000000 236005 xsym               LDQ     DD_PRODR,AL
        35 044003   777777 376007                    ANQ     -1,DL
        35 044004   001012 756000 0                  STQ     PROC$+2
        35 044005   000151 236000 xsym               LDQ     O1COM+105
        35 044006   001012 136000 0                  SBLQ    PROC$+2
        35 044007   000151 235000 xsym               LDA     O1COM+105
        35 044010   000005 735000                    ALS     5
PL6.E3A0      #001=Z8EM$SEMANTICS_DATA_DIV File=Z8EM.:Z8A6TSI                    SAT 08/09/97 12:08 Page:1224
        35 044011   000005 736000                    QLS     5
        35 044012   000006 100405                    MLR     fill='000'O
        35 044013   014017 000040 xsym               ADSC9   O1COM+6159,A             cn=0,n=32
        35 044014   014027 000040 xsym               ADSC9   O1COM+6167,Q             cn=0,n=32

  41115 35 044015   056641 710000 35                 TRA     s:45674

     7102    41117
     7103    41118    2      CASE(%ACT_START_REPORT_DD);

     7104    41119               %INIT_LX_LARGE (@POINTER = "ADDR(TEMP_LX_NODE)");

  41121 35 044016   000001 220003                    LDX0    1,DU
        35 044017   000000 740000 30                 STX0    TEMP_LX_NODE

  41122 35 044020   000024 236000 36                 LDQ     20
        35 044021   000001 756000 30                 STQ     TEMP_LX_NODE+1

  41123 35 044022   000007 756000 30                 STQ     TEMP_LX_NODE+7

     7105    41126               %NEW_LX_REPORT_REC (@POINTER = HEAP$);

  41135 35 044023   001035 630400 36                 EPPR0   541
        35 044024   000025 631400 36                 EPPR1   21
        35 044025   000000 701000 xent               TSX1    Z8ED$NEW_HEAP
        35 044026   000000 011000                    NOP     0

  41139 35 044027   000026 220003                    LDX0    22,DU
        35 044030   000000 470400 29                 LDP0    HEAP$
        35 044031   000000 740100                    STX0    0,,PR0

  41140 35 044032   000000 470400 29                 LDP0    HEAP$
        35 044033   000023 450100                    STZ     19,,PR0

  41141 35 044034   000001 450100                    STZ     1,,PR0

  41142 35 044035   000002 450100                    STZ     2,,PR0
PL6.E3A0      #001=Z8EM$SEMANTICS_DATA_DIV File=Z8EM.:Z8A6TSI                    SAT 08/09/97 12:08 Page:1225

  41143 35 044036   000003 450100                    STZ     3,,PR0

  41144 35 044037   000024 450100                    STZ     20,,PR0

  41145 35 044040   000026 450100                    STZ     22,,PR0

  41146 35 044041   000025 450100                    STZ     21,,PR0

  41147 35 044042   000017 450000 0                  STZ     I

  41148 35 044043   000024 236000 36                 LDQ     20
        35 044044   000000 470400 29                 LDP0    HEAP$
        35 044045   000017 720000 0                  LXL0    I
        35 044046   000004 756110                    STQ     4,X0,PR0

  41149 35 044047   000017 054000 0                  AOS     I
        35 044050   000017 235000 0                  LDA     I
        35 044051   000016 115007                    CMPA    14,DL
        35 044052   044043 604400 35                 TMOZ    s:41148

     7106    41152    2          ADDR(TEMP_LX_NODE) -> LX_LARGE.LARGE_ITEM$ = HEAP$;

  41152 35 044053   000000 236000 29                 LDQ     HEAP$
        35 044054   000001 756000 30                 STQ     TEMP_LX_NODE+1

     7107    41153               %NEW_COPY_LX_STK (@POINTER = HEAP$,
     7108    41154                                 @FROM    = O1COM.LX_TOP);

  41159 35 044055   000670 630400 36                 EPPR0   440
        35 044056   000025 631400 36                 EPPR1   21
        35 044057   000000 701000 xent               TSX1    Z8ED$NEW_HEAP
        35 044060   000000 011000                    NOP     0

  41162 35 044061   000151 235000 xsym               LDA     O1COM+105
        35 044062   000005 735000                    ALS     5
        35 044063   000000 470400 29                 LDP0    HEAP$
PL6.E3A0      #001=Z8EM$SEMANTICS_DATA_DIV File=Z8EM.:Z8A6TSI                    SAT 08/09/97 12:08 Page:1226
        35 044064   000100 100405                    MLR     fill='000'O
        35 044065   014017 000040 xsym               ADSC9   O1COM+6159,A             cn=0,n=32
        35 044066   000000 000040                    ADSC9   0,,PR0                   cn=0,n=32

     7109    41165    2          CALL CHARBIN(ADDR(TEMP_LX_NODE) -> LX_LARGE.LARGE_ITEM$ ->

  41165 35 044067   000151 235000 xsym               LDA     O1COM+105
        35 044070   000003 735000                    ALS     3
        35 044071   014021 470405 xsym               LDP0    O1COM+6161,AL
        35 044072   000004 220100                    LDX0    4,,PR0
        35 044073   000000 305540                    DTB
        35 044074   000004 430010                    NDSC9   4,,PR0                   cn=2,s=nosgn,sf=0,n=*X0
        35 044075   001012 000010 0                  NDSC9   PROC$+2                  cn=0,s=lsgnf,sf=0,n=8
        35 044076   000001 471400 30                 LDP1    TEMP_LX_NODE+1
        35 044077   001013 236000 0                  LDQ     PROC$+3
        35 044100   100027 756100                    STQ     23,,PR1

     7110    41166    2                       LX_REPORT_REC.LEVEL_NUMBER,
     7111    41167    2                      ADDR(O1COM.LX_STK(O1COM.LX_TOP)) -> LX_TERMINAL.DNT$ -> DNT.TEXT
             41167                                .NAME);
     7112    41168    2          ADDR(TEMP_LX_NODE) -> LX_LARGE.LARGE_ITEM$ ->

  41168 35 044101   000000 236000 29                 LDQ     HEAP$
        35 044102   100004 756100                    STQ     4,,PR1

     7113    41169    2                       LX_REPORT_REC.P.LEVEL_NO$ = HEAP$;
     7114    41170    2          ADDR(O1COM.LX_STK(O1COM.LX_TOP)) -> LX_ITEM = ADDR(TEMP_LX_NODE) -> LX_ITEM;

  41170 35 044103   000151 235000 xsym               LDA     O1COM+105
        35 044104   000005 735000                    ALS     5
        35 044105   000005 100400                    MLR     fill='000'O
        35 044106   000000 000040 30                 ADSC9   TEMP_LX_NODE             cn=0,n=32
        35 044107   014017 000040 xsym               ADSC9   O1COM+6159,A             cn=0,n=32

     7115    41171    2          O1COM.REPORT_DD$ = ADDR(O1COM.LX_STK(O1COM.LX_TOP)) -> LX_LARGE.LARGE_ITEM$;

  41171 35 044110   000151 235000 xsym               LDA     O1COM+105
PL6.E3A0      #001=Z8EM$SEMANTICS_DATA_DIV File=Z8EM.:Z8A6TSI                    SAT 08/09/97 12:08 Page:1227
        35 044111   000003 735000                    ALS     3
        35 044112   014020 236005 xsym               LDQ     O1COM+6160,AL
        35 044113   000067 756000 xsym               STQ     O1COM+55
        35 044114   056641 710000 35                 TRA     s:45674

     7116    41172
     7117    41173    2      CASE(%ACT_INT_WITH_NAME);

     7118    41174
     7119    41175    2          IF O1COM.LX_STK.DNT$(O1COM.LX_TOP - 1) -> DNT.B.REP_COUNTER THEN

  41175 35 044115   000151 236000 xsym               LDQ     O1COM+105
        35 044116   000003 736000                    QLS     3
        35 044117   014011 470406 xsym               LDP0    O1COM+6153,QL
        35 044120   000003 236100                    LDQ     3,,PR0
        35 044121   000020 316003                    CANQ    16,DU
        35 044122   044150 600000 35                 TZE     s:41191

     7120    41176    3            DO;

     7121    41177    3              CALL Z8AE$ERROR (%E$WRONG_DATA_NAME_IN_REP,

  41177 35 044123   000151 236000 xsym               LDQ     O1COM+105
        35 044124   000025 736000                    QLS     21
        35 044125   000002 036000 36                 ADLQ    2
        35 044126   001014 756000 0                  STQ     PROC$+4
        35 044127   000151 236000 xsym               LDQ     O1COM+105
        35 044130   000025 736000                    QLS     21
        35 044131   000003 036000 36                 ADLQ    3
        35 044132   001040 235000 36                 LDA     544
        35 044133   001012 757000 0                  STAQ    PROC$+2
        35 044134   001012 630400 0                  EPPR0   PROC$+2
        35 044135   000000 631400 36                 EPPR1   0
        35 044136   000000 701000 xent               TSX1    Z8AE$ERROR
        35 044137   000000 011000                    NOP     0

     7122    41178    3                               O1COM.LX_STK.LINE (O1COM.LX_TOP - 1),
PL6.E3A0      #001=Z8EM$SEMANTICS_DATA_DIV File=Z8EM.:Z8A6TSI                    SAT 08/09/97 12:08 Page:1228
     7123    41179    3                               O1COM.LX_STK.COLUMN (O1COM.LX_TOP -1));
     7124    41180
     7125    41181    3              O1COM.LX_STK.DNT$(O1COM.LX_TOP - 1) = DNT$_FROM_RSWNO(%RSV_WRD_FILLER);

  41181 35 044140   000151 235000 xsym               LDA     O1COM+105
        35 044141   000003 735000                    ALS     3
        35 044142   000320 236000 xsym               LDQ     DNT$_FROM_RSWNO+208
        35 044143   014011 756005 xsym               STQ     O1COM+6153,AL

     7126    41182    3              O1COM.LX_STK.SYMBOL(O1COM.LX_TOP - 1) = %RSV_WRD_FILLER;

  41182 35 044144   000151 235000 xsym               LDA     O1COM+105
        35 044145   000003 735000                    ALS     3
        35 044146   000320 236007                    LDQ     208,DL
        35 044147   014012 756005 xsym               STQ     O1COM+6154,AL

     7127    41183    3            END;

     7128    41184
     7129    41185               %NEW_COPY_LX_STK( @POINTER = HEAP$,
     7130    41186                                 @FROM    = O1COM.LX_TOP - 1);

  41191 35 044150   000670 630400 36                 EPPR0   440
        35 044151   000025 631400 36                 EPPR1   21
        35 044152   000000 701000 xent               TSX1    Z8ED$NEW_HEAP
        35 044153   000000 011000                    NOP     0

  41194 35 044154   000151 235000 xsym               LDA     O1COM+105
        35 044155   000005 735000                    ALS     5
        35 044156   000000 470400 29                 LDP0    HEAP$
        35 044157   000100 100405                    MLR     fill='000'O
        35 044160   014007 000040 xsym               ADSC9   O1COM+6151,A             cn=0,n=32
        35 044161   000000 000040                    ADSC9   0,,PR0                   cn=0,n=32

     7131    41197    2          O1COM.REPORT_DD$ -> LX_REPORT_REC.P.DATA_NAME$ = HEAP$;

  41197 35 044162   000000 236000 29                 LDQ     HEAP$
PL6.E3A0      #001=Z8EM$SEMANTICS_DATA_DIV File=Z8EM.:Z8A6TSI                    SAT 08/09/97 12:08 Page:1229
        35 044163   000067 470400 xsym               LDP0    O1COM+55
        35 044164   000005 756100                    STQ     5,,PR0
        35 044165   056641 710000 35                 TRA     s:45674

     7132    41198
     7133    41199    2      CASE(%ACT_INT_NO_NAME);

     7134    41200    2          O1COM.LX_STK.DNT$(O1COM.LX_TOP) = DNT$_FROM_RSWNO(%RSV_WRD_FILLER);

  41200 35 044166   000151 236000 xsym               LDQ     O1COM+105
        35 044167   000003 736000                    QLS     3
        35 044170   000000 620006                    EAX0    0,QL
        35 044171   000320 236000 xsym               LDQ     DNT$_FROM_RSWNO+208
        35 044172   014021 756010 xsym               STQ     O1COM+6161,X0

     7135    41201    2          O1COM.LX_STK.SYMBOL(O1COM.LX_TOP) = %RSV_WRD_FILLER;

  41201 35 044173   000151 235000 xsym               LDA     O1COM+105
        35 044174   000003 735000                    ALS     3
        35 044175   000320 236007                    LDQ     208,DL
        35 044176   014022 756005 xsym               STQ     O1COM+6162,AL

     7136    41202               %NEW_COPY_LX_STK (@POINTER = HEAP$,
     7137    41203                                 @FROM    = O1COM.LX_TOP);

  41208 35 044177   000670 630400 36                 EPPR0   440
        35 044200   000025 631400 36                 EPPR1   21
        35 044201   000000 701000 xent               TSX1    Z8ED$NEW_HEAP
        35 044202   000000 011000                    NOP     0

  41211 35 044203   000151 235000 xsym               LDA     O1COM+105
        35 044204   000005 735000                    ALS     5
        35 044205   000000 470400 29                 LDP0    HEAP$
        35 044206   000100 100405                    MLR     fill='000'O
        35 044207   014017 000040 xsym               ADSC9   O1COM+6159,A             cn=0,n=32
        35 044210   000000 000040                    ADSC9   0,,PR0                   cn=0,n=32

PL6.E3A0      #001=Z8EM$SEMANTICS_DATA_DIV File=Z8EM.:Z8A6TSI                    SAT 08/09/97 12:08 Page:1230
     7138    41214    2          O1COM.REPORT_DD$ -> LX_REPORT_REC.P.DATA_NAME$ = HEAP$;

  41214 35 044211   000000 236000 29                 LDQ     HEAP$
        35 044212   000067 470400 xsym               LDP0    O1COM+55
        35 044213   000005 756100                    STQ     5,,PR0
        35 044214   056641 710000 35                 TRA     s:45674

     7139    41215
     7140    41216    2      CASE(%ACT_REPORT_REC_DESC);

     7141    41217
     7142    41218    2          IF O1COM.LX_STK.DNT$(O1COM.LX_TOP - 2) -> DNT.B.REP_COUNTER THEN

  41218 35 044215   000151 236000 xsym               LDQ     O1COM+105
        35 044216   000003 736000                    QLS     3
        35 044217   014001 470406 xsym               LDP0    O1COM+6145,QL
        35 044220   000003 236100                    LDQ     3,,PR0
        35 044221   000020 316003                    CANQ    16,DU
        35 044222   044250 600000 35                 TZE     s:41234

     7143    41219    3            DO;

     7144    41220    3              CALL Z8AE$ERROR (%E$WRONG_DATA_NAME_IN_REP,

  41220 35 044223   000151 236000 xsym               LDQ     O1COM+105
        35 044224   000025 736000                    QLS     21
        35 044225   000544 036000 36                 ADLQ    356
        35 044226   001014 756000 0                  STQ     PROC$+4
        35 044227   000151 236000 xsym               LDQ     O1COM+105
        35 044230   000025 736000                    QLS     21
        35 044231   000545 036000 36                 ADLQ    357
        35 044232   001040 235000 36                 LDA     544
        35 044233   001012 757000 0                  STAQ    PROC$+2
        35 044234   001012 630400 0                  EPPR0   PROC$+2
        35 044235   000000 631400 36                 EPPR1   0
        35 044236   000000 701000 xent               TSX1    Z8AE$ERROR
        35 044237   000000 011000                    NOP     0
PL6.E3A0      #001=Z8EM$SEMANTICS_DATA_DIV File=Z8EM.:Z8A6TSI                    SAT 08/09/97 12:08 Page:1231

     7145    41221    3                               O1COM.LX_STK.LINE (O1COM.LX_TOP - 2),
     7146    41222    3                               O1COM.LX_STK.COLUMN (O1COM.LX_TOP -2));
     7147    41223
     7148    41224    3              O1COM.LX_STK.DNT$(O1COM.LX_TOP - 2) = DNT$_FROM_RSWNO(%RSV_WRD_FILLER);

  41224 35 044240   000151 235000 xsym               LDA     O1COM+105
        35 044241   000003 735000                    ALS     3
        35 044242   000320 236000 xsym               LDQ     DNT$_FROM_RSWNO+208
        35 044243   014001 756005 xsym               STQ     O1COM+6145,AL

     7149    41225    3              O1COM.LX_STK.SYMBOL(O1COM.LX_TOP - 2) = %RSV_WRD_FILLER;

  41225 35 044244   000151 235000 xsym               LDA     O1COM+105
        35 044245   000003 735000                    ALS     3
        35 044246   000320 236007                    LDQ     208,DL
        35 044247   014002 756005 xsym               STQ     O1COM+6146,AL

     7150    41226    3            END;

     7151    41227
     7152    41228               %NEW_COPY_LX_STK( @POINTER = HEAP$,
     7153    41229                                 @FROM    = O1COM.LX_TOP - 2);

  41234 35 044250   000670 630400 36                 EPPR0   440
        35 044251   000025 631400 36                 EPPR1   21
        35 044252   000000 701000 xent               TSX1    Z8ED$NEW_HEAP
        35 044253   000000 011000                    NOP     0

  41237 35 044254   000151 235000 xsym               LDA     O1COM+105
        35 044255   000005 735000                    ALS     5
        35 044256   000000 470400 29                 LDP0    HEAP$
        35 044257   000100 100405                    MLR     fill='000'O
        35 044260   013777 000040 xsym               ADSC9   O1COM+6143,A             cn=0,n=32
        35 044261   000000 000040                    ADSC9   0,,PR0                   cn=0,n=32

     7154    41240    2          O1COM.REPORT_DD$ -> LX_REPORT_REC.P.DATA_NAME$ = HEAP$;
PL6.E3A0      #001=Z8EM$SEMANTICS_DATA_DIV File=Z8EM.:Z8A6TSI                    SAT 08/09/97 12:08 Page:1232

  41240 35 044262   000000 236000 29                 LDQ     HEAP$
        35 044263   000067 470400 xsym               LDP0    O1COM+55
        35 044264   000005 756100                    STQ     5,,PR0
        35 044265   056641 710000 35                 TRA     s:45674

     7155    41241
     7156    41242    2      CASE(%ACT_REPORT_REC_DESC_NO_NAME);

     7157    41243    2          O1COM.LX_STK.DNT$(O1COM.LX_TOP) = DNT$_FROM_RSWNO(%RSV_WRD_FILLER);

  41243 35 044266   000151 236000 xsym               LDQ     O1COM+105
        35 044267   000003 736000                    QLS     3
        35 044270   000000 620006                    EAX0    0,QL
        35 044271   000320 236000 xsym               LDQ     DNT$_FROM_RSWNO+208
        35 044272   014021 756010 xsym               STQ     O1COM+6161,X0

     7158    41244    2          O1COM.LX_STK.SYMBOL(O1COM.LX_TOP) = %RSV_WRD_FILLER;

  41244 35 044273   000151 235000 xsym               LDA     O1COM+105
        35 044274   000003 735000                    ALS     3
        35 044275   000320 236007                    LDQ     208,DL
        35 044276   014022 756005 xsym               STQ     O1COM+6162,AL

     7159    41245               %NEW_COPY_LX_STK (@POINTER = HEAP$,
     7160    41246                                 @FROM    = O1COM.LX_TOP);

  41251 35 044277   000670 630400 36                 EPPR0   440
        35 044300   000025 631400 36                 EPPR1   21
        35 044301   000000 701000 xent               TSX1    Z8ED$NEW_HEAP
        35 044302   000000 011000                    NOP     0

  41254 35 044303   000151 235000 xsym               LDA     O1COM+105
        35 044304   000005 735000                    ALS     5
        35 044305   000000 470400 29                 LDP0    HEAP$
        35 044306   000100 100405                    MLR     fill='000'O
        35 044307   014017 000040 xsym               ADSC9   O1COM+6159,A             cn=0,n=32
PL6.E3A0      #001=Z8EM$SEMANTICS_DATA_DIV File=Z8EM.:Z8A6TSI                    SAT 08/09/97 12:08 Page:1233
        35 044310   000000 000040                    ADSC9   0,,PR0                   cn=0,n=32

     7161    41257    2          O1COM.REPORT_DD$ -> LX_REPORT_REC.P.DATA_NAME$ = HEAP$;

  41257 35 044311   000000 236000 29                 LDQ     HEAP$
        35 044312   000067 470400 xsym               LDP0    O1COM+55
        35 044313   000005 756100                    STQ     5,,PR0
        35 044314   056641 710000 35                 TRA     s:45674

     7162    41258
     7163    41259    2      CASE(%ACT_FIRST_REPORT_DD_CLAUSE);

     7164    41260    2      CASE(%ACT_APPEND_REPORT_DD_CLAUSE);

     7165    41261               %PROPAGATE (@FROM  = O1COM.LX_TOP);

  41263 35 044315   000134 236000 xsym               LDQ     O1COM+92
        35 044316   000001 736000                    QLS     1
        35 044317   000000 236006 xsym               LDQ     DD_PRODR,QL
        35 044320   777777 376007                    ANQ     -1,DL
        35 044321   001012 756000 0                  STQ     PROC$+2
        35 044322   000151 236000 xsym               LDQ     O1COM+105
        35 044323   001012 136000 0                  SBLQ    PROC$+2
        35 044324   000151 235000 xsym               LDA     O1COM+105
        35 044325   000005 735000                    ALS     5
        35 044326   000005 736000                    QLS     5
        35 044327   000006 100405                    MLR     fill='000'O
        35 044330   014017 000040 xsym               ADSC9   O1COM+6159,A             cn=0,n=32
        35 044331   014027 000040 xsym               ADSC9   O1COM+6167,Q             cn=0,n=32

  41264 35 044332   056641 710000 35                 TRA     s:45674

     7166    41266
     7167    41267    2      CASE(%ACT_LINE_NUMBER_CLAUSE);

     7168    41268    2      CASE(%ACT_NEXT_GROUP_INT);

PL6.E3A0      #001=Z8EM$SEMANTICS_DATA_DIV File=Z8EM.:Z8A6TSI                    SAT 08/09/97 12:08 Page:1234
     7169    41269    2          CALL CHECK_AND_SAVE_ITEM (ADDR(O1COM.LX_STK(O1COM.LX_TOP)),

  41269 35 044333   000151 236000 xsym               LDQ     O1COM+105
        35 044334   000025 736000                    QLS     21
        35 044335   000631 036000 36                 ADLQ    409
        35 044336   001212 756000 0                  STQ     PROC$+130
        35 044337   001042 236000 36                 LDQ     546
        35 044340   000141 756000 0                  STQ     @FIELD$+1
        35 044341   000067 236000 xsym               LDQ     O1COM+55
        35 044342   000015 036003                    ADLQ    13,DU
        35 044343   000140 756000 0                  STQ     @ITEM$+1
        35 044344   001212 630400 0                  EPPR0   PROC$+130
        35 044345   000137 450400 0                  STP0    NUM+2
        35 044346   003076 701000 35                 TSX1    CHECK_AND_SAVE_ITEM
        35 044347   044407 702000 35                 TSX2    s:41283

     7170    41270    2                                    O1COM.REPORT_DD$ -> LX_REPORT_REC.P.NEXT_GROUP$,
     7171    41271    2                                    %RSV_WRD_GROUP)
     7172    41272    2            WHENRETURN
     7173    41273    3              DO;

     7174    41274    3                O1COM.REPORT_DD$ -> LX_REPORT_REC.D.NEXT_GROUP_TYPE = %NEXT_GROUP_INT;

  41274 35 044350   000001 235007                    LDA     1,DL
        35 044351   000067 470400 xsym               LDP0    O1COM+55
        35 044352   000003 755100                    STA     3,,PR0

     7175    41275    3                O1COM.REPORT_DD$ -> LX_REPORT_REC.CLAUSE_COUNT =

  41275 35 044353   000067 470400 xsym               LDP0    O1COM+55
        35 044354   000023 235100                    LDA     19,,PR0
        35 044355   000001 035007                    ADLA    1,DL
        35 044356   000023 755100                    STA     19,,PR0

     7176    41276    3                  O1COM.REPORT_DD$ -> LX_REPORT_REC.CLAUSE_COUNT + 1;
     7177    41277    3                CALL CHARBIN (O1COM.REPORT_DD$ -> LX_REPORT_REC.NEXT_GROUP_NO#,

PL6.E3A0      #001=Z8EM$SEMANTICS_DATA_DIV File=Z8EM.:Z8A6TSI                    SAT 08/09/97 12:08 Page:1235
  41277 35 044357   000151 235000 xsym               LDA     O1COM+105
        35 044360   000003 735000                    ALS     3
        35 044361   014021 470405 xsym               LDP0    O1COM+6161,AL
        35 044362   000004 220100                    LDX0    4,,PR0
        35 044363   000067 471400 xsym               LDP1    O1COM+55
        35 044364   000100 305540                    DTB
        35 044365   000004 430010                    NDSC9   4,,PR0                   cn=2,s=nosgn,sf=0,n=*X0
        35 044366   100024 000004                    NDSC9   20,,PR1                  cn=0,s=lsgnf,sf=0,n=4

     7178    41278    3                              ADDR(O1COM.LX_STK(O1COM.LX_TOP)) -> LX_ITEM.DNT$ -> DNT.
             41278                                       TEXT.NAME);
     7179    41279    3                IF COMCOM.OB.FIPS.RPW THEN

  41279 35 044367   000036 236000 xsym               LDQ     COMCOM+30
        35 044370   040000 316003                    CANQ    16384,DU
        35 044371   044407 600000 35                 TZE     s:41283

     7180    41280    3                  CALL Z8AE$ERROR (%E$LEVEL_CHECK,

  41280 35 044372   000151 236000 xsym               LDQ     O1COM+105
        35 044373   000025 736000                    QLS     21
        35 044374   000100 036000 36                 ADLQ    64
        35 044375   001014 756000 0                  STQ     PROC$+4
        35 044376   000151 236000 xsym               LDQ     O1COM+105
        35 044377   000025 736000                    QLS     21
        35 044400   000101 036000 36                 ADLQ    65
        35 044401   000004 235000 36                 LDA     4
        35 044402   001012 757000 0                  STAQ    PROC$+2
        35 044403   001012 630400 0                  EPPR0   PROC$+2
        35 044404   000000 631400 36                 EPPR1   0
        35 044405   000000 701000 xent               TSX1    Z8AE$ERROR
        35 044406   000000 011000                    NOP     0

     7181    41281    3                                   O1COM.LX_STK.LINE(O1COM.LX_TOP - 3),
     7182    41282    3                                   O1COM.LX_STK.COLUMN(O1COM.LX_TOP - 3));
     7183    41283    3              END;

PL6.E3A0      #001=Z8EM$SEMANTICS_DATA_DIV File=Z8EM.:Z8A6TSI                    SAT 08/09/97 12:08 Page:1236
  41283 35 044407   056641 710000 35                 TRA     s:45674

     7184    41284
     7185    41285    2      CASE(%ACT_NEXT_GROUP_PLUS);

     7186    41286    2          CALL CHECK_AND_SAVE_ITEM (ADDR(O1COM.LX_STK(O1COM.LX_TOP)),

  41286 35 044410   000151 236000 xsym               LDQ     O1COM+105
        35 044411   000025 736000                    QLS     21
        35 044412   000631 036000 36                 ADLQ    409
        35 044413   001213 756000 0                  STQ     PROC$+131
        35 044414   001042 236000 36                 LDQ     546
        35 044415   000141 756000 0                  STQ     @FIELD$+1
        35 044416   000067 236000 xsym               LDQ     O1COM+55
        35 044417   000015 036003                    ADLQ    13,DU
        35 044420   000140 756000 0                  STQ     @ITEM$+1
        35 044421   001213 630400 0                  EPPR0   PROC$+131
        35 044422   000137 450400 0                  STP0    NUM+2
        35 044423   003076 701000 35                 TSX1    CHECK_AND_SAVE_ITEM
        35 044424   044464 702000 35                 TSX2    s:41300

     7187    41287    2                                    O1COM.REPORT_DD$ -> LX_REPORT_REC.P.NEXT_GROUP$,
     7188    41288    2                                    %RSV_WRD_GROUP)
     7189    41289    2            WHENRETURN
     7190    41290    3              DO;

     7191    41291    3               O1COM.REPORT_DD$ -> LX_REPORT_REC.D.NEXT_GROUP_TYPE = %NEXT_GROUP_PLUS;

  41291 35 044425   000002 235007                    LDA     2,DL
        35 044426   000067 470400 xsym               LDP0    O1COM+55
        35 044427   000003 755100                    STA     3,,PR0

     7192    41292    3                O1COM.REPORT_DD$ -> LX_REPORT_REC.CLAUSE_COUNT =

  41292 35 044430   000067 470400 xsym               LDP0    O1COM+55
        35 044431   000023 235100                    LDA     19,,PR0
        35 044432   000001 035007                    ADLA    1,DL
PL6.E3A0      #001=Z8EM$SEMANTICS_DATA_DIV File=Z8EM.:Z8A6TSI                    SAT 08/09/97 12:08 Page:1237
        35 044433   000023 755100                    STA     19,,PR0

     7193    41293    3                  O1COM.REPORT_DD$ -> LX_REPORT_REC.CLAUSE_COUNT + 1;
     7194    41294    3                CALL CHARBIN (O1COM.REPORT_DD$ -> LX_REPORT_REC.NEXT_GROUP_NO#,

  41294 35 044434   000151 235000 xsym               LDA     O1COM+105
        35 044435   000003 735000                    ALS     3
        35 044436   014021 470405 xsym               LDP0    O1COM+6161,AL
        35 044437   000004 220100                    LDX0    4,,PR0
        35 044440   000067 471400 xsym               LDP1    O1COM+55
        35 044441   000100 305540                    DTB
        35 044442   000004 430010                    NDSC9   4,,PR0                   cn=2,s=nosgn,sf=0,n=*X0
        35 044443   100024 000004                    NDSC9   20,,PR1                  cn=0,s=lsgnf,sf=0,n=4

     7195    41295    3                              ADDR(O1COM.LX_STK(O1COM.LX_TOP)) -> LX_ITEM.DNT$ -> DNT.
             41295                                       TEXT.NAME);
     7196    41296    3                IF COMCOM.OB.FIPS.RPW THEN

  41296 35 044444   000036 236000 xsym               LDQ     COMCOM+30
        35 044445   040000 316003                    CANQ    16384,DU
        35 044446   044464 600000 35                 TZE     s:41300

     7197    41297    3                  CALL Z8AE$ERROR (%E$LEVEL_CHECK,

  41297 35 044447   000151 236000 xsym               LDQ     O1COM+105
        35 044450   000025 736000                    QLS     21
        35 044451   000672 036000 36                 ADLQ    442
        35 044452   001014 756000 0                  STQ     PROC$+4
        35 044453   000151 236000 xsym               LDQ     O1COM+105
        35 044454   000025 736000                    QLS     21
        35 044455   000673 036000 36                 ADLQ    443
        35 044456   000004 235000 36                 LDA     4
        35 044457   001012 757000 0                  STAQ    PROC$+2
        35 044460   001012 630400 0                  EPPR0   PROC$+2
        35 044461   000000 631400 36                 EPPR1   0
        35 044462   000000 701000 xent               TSX1    Z8AE$ERROR
        35 044463   000000 011000                    NOP     0
PL6.E3A0      #001=Z8EM$SEMANTICS_DATA_DIV File=Z8EM.:Z8A6TSI                    SAT 08/09/97 12:08 Page:1238

     7198    41298    3                                   O1COM.LX_STK.LINE(O1COM.LX_TOP - 4),
     7199    41299    3                                   O1COM.LX_STK.COLUMN(O1COM.LX_TOP - 4));
     7200    41300    3              END;

  41300 35 044464   056641 710000 35                 TRA     s:45674

     7201    41301
     7202    41302    2      CASE(%ACT_NEXT_GROUP_NEXT_PAGE);

     7203    41303    2          CALL CHECK_AND_SAVE_ITEM (ADDR(O1COM.LX_STK(O1COM.LX_TOP)),

  41303 35 044465   000151 236000 xsym               LDQ     O1COM+105
        35 044466   000025 736000                    QLS     21
        35 044467   000631 036000 36                 ADLQ    409
        35 044470   001214 756000 0                  STQ     PROC$+132
        35 044471   001042 236000 36                 LDQ     546
        35 044472   000141 756000 0                  STQ     @FIELD$+1
        35 044473   000067 236000 xsym               LDQ     O1COM+55
        35 044474   000015 036003                    ADLQ    13,DU
        35 044475   000140 756000 0                  STQ     @ITEM$+1
        35 044476   001214 630400 0                  EPPR0   PROC$+132
        35 044477   000137 450400 0                  STP0    NUM+2
        35 044500   003076 701000 35                 TSX1    CHECK_AND_SAVE_ITEM
        35 044501   044531 702000 35                 TSX2    s:41315

     7204    41304    2                                    O1COM.REPORT_DD$ -> LX_REPORT_REC.P.NEXT_GROUP$,
     7205    41305    2                                    %RSV_WRD_GROUP)
     7206    41306    2            WHENRETURN
     7207    41307    3              DO;

     7208    41308    3                O1COM.REPORT_DD$ -> LX_REPORT_REC.D.NEXT_GROUP_TYPE = %
             41308                         NEXT_GROUP_NEXT_PAGE;

  41308 35 044502   000003 235007                    LDA     3,DL
        35 044503   000067 470400 xsym               LDP0    O1COM+55
        35 044504   000003 755100                    STA     3,,PR0
PL6.E3A0      #001=Z8EM$SEMANTICS_DATA_DIV File=Z8EM.:Z8A6TSI                    SAT 08/09/97 12:08 Page:1239

     7209    41309    3                O1COM.REPORT_DD$ -> LX_REPORT_REC.CLAUSE_COUNT =

  41309 35 044505   000067 470400 xsym               LDP0    O1COM+55
        35 044506   000023 235100                    LDA     19,,PR0
        35 044507   000001 035007                    ADLA    1,DL
        35 044510   000023 755100                    STA     19,,PR0

     7210    41310    3                  O1COM.REPORT_DD$ -> LX_REPORT_REC.CLAUSE_COUNT + 1;
     7211    41311    3                IF COMCOM.OB.FIPS.RPW THEN

  41311 35 044511   000036 236000 xsym               LDQ     COMCOM+30
        35 044512   040000 316003                    CANQ    16384,DU
        35 044513   044531 600000 35                 TZE     s:41315

     7212    41312    3                  CALL Z8AE$ERROR (%E$LEVEL_CHECK,

  41312 35 044514   000151 236000 xsym               LDQ     O1COM+105
        35 044515   000025 736000                    QLS     21
        35 044516   000100 036000 36                 ADLQ    64
        35 044517   001014 756000 0                  STQ     PROC$+4
        35 044520   000151 236000 xsym               LDQ     O1COM+105
        35 044521   000025 736000                    QLS     21
        35 044522   000101 036000 36                 ADLQ    65
        35 044523   000004 235000 36                 LDA     4
        35 044524   001012 757000 0                  STAQ    PROC$+2
        35 044525   001012 630400 0                  EPPR0   PROC$+2
        35 044526   000000 631400 36                 EPPR1   0
        35 044527   000000 701000 xent               TSX1    Z8AE$ERROR
        35 044530   000000 011000                    NOP     0

     7213    41313    3                                   O1COM.LX_STK.LINE(O1COM.LX_TOP - 3),
     7214    41314    3                                   O1COM.LX_STK.COLUMN(O1COM.LX_TOP - 3));
     7215    41315    3              END;

  41315 35 044531   056641 710000 35                 TRA     s:45674

PL6.E3A0      #001=Z8EM$SEMANTICS_DATA_DIV File=Z8EM.:Z8A6TSI                    SAT 08/09/97 12:08 Page:1240
     7216    41316
     7217    41317    2      CASE(%ACT_REPORT_TYPE);

     7218    41318    2          IF COMCOM.OB.FIPS.RPW THEN

  41318 35 044532   000036 236000 xsym               LDQ     COMCOM+30
        35 044533   040000 316003                    CANQ    16384,DU
        35 044534   056641 600000 35                 TZE     s:45674

     7219    41319    2            CALL Z8AE$ERROR (%E$LEVEL_CHECK,

  41319 35 044535   000151 236000 xsym               LDQ     O1COM+105
        35 044536   000025 736000                    QLS     21
        35 044537   000544 036000 36                 ADLQ    356
        35 044540   001014 756000 0                  STQ     PROC$+4
        35 044541   000151 236000 xsym               LDQ     O1COM+105
        35 044542   000025 736000                    QLS     21
        35 044543   000545 036000 36                 ADLQ    357
        35 044544   000004 235000 36                 LDA     4
        35 044545   001012 757000 0                  STAQ    PROC$+2
        35 044546   001012 630400 0                  EPPR0   PROC$+2
        35 044547   000000 631400 36                 EPPR1   0
        35 044550   000000 701000 xent               TSX1    Z8AE$ERROR
        35 044551   000000 011000                    NOP     0
        35 044552   056641 710000 35                 TRA     s:45674

     7220    41320    2                             O1COM.LX_STK.LINE(O1COM.LX_TOP - 2),
     7221    41321    2                             O1COM.LX_STK.COLUMN(O1COM.LX_TOP - 2));
     7222    41322
     7223    41323    2      CASE(%ACT_REPORT_DISPLAY);

     7224    41324    2          CALL CHECK_AND_SAVE_ITEM (ADDR(O1COM.LX_STK(O1COM.LX_TOP)),

  41324 35 044553   000151 236000 xsym               LDQ     O1COM+105
        35 044554   000025 736000                    QLS     21
        35 044555   000631 036000 36                 ADLQ    409
        35 044556   001215 756000 0                  STQ     PROC$+133
PL6.E3A0      #001=Z8EM$SEMANTICS_DATA_DIV File=Z8EM.:Z8A6TSI                    SAT 08/09/97 12:08 Page:1241
        35 044557   001044 236000 36                 LDQ     548
        35 044560   000141 756000 0                  STQ     @FIELD$+1
        35 044561   000067 236000 xsym               LDQ     O1COM+55
        35 044562   000006 036003                    ADLQ    6,DU
        35 044563   000140 756000 0                  STQ     @ITEM$+1
        35 044564   001215 630400 0                  EPPR0   PROC$+133
        35 044565   000137 450400 0                  STP0    NUM+2
        35 044566   003076 701000 35                 TSX1    CHECK_AND_SAVE_ITEM
        35 044567   044574 702000 35                 TSX2    s:41331

     7225    41325    2                                    O1COM.REPORT_DD$ -> LX_REPORT_REC.P.USAGE$,
     7226    41326    2                                    %RSV_WRD_USAGE)
     7227    41327    2            WHENRETURN
     7228    41328    3              DO;

     7229    41329    3                O1COM.REPORT_DD$ -> LX_REPORT_REC.CLAUSE_COUNT =

  41329 35 044570   000067 470400 xsym               LDP0    O1COM+55
        35 044571   000023 235100                    LDA     19,,PR0
        35 044572   000001 035007                    ADLA    1,DL
        35 044573   000023 755100                    STA     19,,PR0

     7230    41330    3                  O1COM.REPORT_DD$ -> LX_REPORT_REC.CLAUSE_COUNT + 1;
     7231    41331    3              END;

  41331 35 044574   056641 710000 35                 TRA     s:45674

     7232    41332
     7233    41333    2      CASE(%ACT_REPORT_PICTURE);

     7234    41334    2          CALL CHECK_AND_SAVE_ITEM (ADDR(O1COM.LX_STK(O1COM.LX_TOP)),

  41334 35 044575   000151 236000 xsym               LDQ     O1COM+105
        35 044576   000025 736000                    QLS     21
        35 044577   000631 036000 36                 ADLQ    409
        35 044600   001216 756000 0                  STQ     PROC$+134
        35 044601   001046 236000 36                 LDQ     550
PL6.E3A0      #001=Z8EM$SEMANTICS_DATA_DIV File=Z8EM.:Z8A6TSI                    SAT 08/09/97 12:08 Page:1242
        35 044602   000141 756000 0                  STQ     @FIELD$+1
        35 044603   000067 236000 xsym               LDQ     O1COM+55
        35 044604   000007 036003                    ADLQ    7,DU
        35 044605   000140 756000 0                  STQ     @ITEM$+1
        35 044606   001216 630400 0                  EPPR0   PROC$+134
        35 044607   000137 450400 0                  STP0    NUM+2
        35 044610   003076 701000 35                 TSX1    CHECK_AND_SAVE_ITEM
        35 044611   044616 702000 35                 TSX2    s:41341

     7235    41335    2                                    O1COM.REPORT_DD$ -> LX_REPORT_REC.P.PICTURE$,
     7236    41336    2                                    %RSV_WRD_PICTURE)
     7237    41337    2            WHENRETURN
     7238    41338    3              DO;

     7239    41339    3                O1COM.REPORT_DD$ -> LX_REPORT_REC.CLAUSE_COUNT =

  41339 35 044612   000067 470400 xsym               LDP0    O1COM+55
        35 044613   000023 235100                    LDA     19,,PR0
        35 044614   000001 035007                    ADLA    1,DL
        35 044615   000023 755100                    STA     19,,PR0

     7240    41340    3                  O1COM.REPORT_DD$ -> LX_REPORT_REC.CLAUSE_COUNT + 1;
     7241    41341    3              END;

  41341 35 044616   056641 710000 35                 TRA     s:45674

     7242    41342
     7243    41343    2      CASE(%ACT_REPORT_JUSTIFIED);

     7244    41344    2          CALL CHECK_AND_SAVE_ITEM (ADDR(O1COM.LX_STK(O1COM.LX_TOP)),

  41344 35 044617   000151 236000 xsym               LDQ     O1COM+105
        35 044620   000025 736000                    QLS     21
        35 044621   000631 036000 36                 ADLQ    409
        35 044622   001217 756000 0                  STQ     PROC$+135
        35 044623   001050 236000 36                 LDQ     552
        35 044624   000141 756000 0                  STQ     @FIELD$+1
PL6.E3A0      #001=Z8EM$SEMANTICS_DATA_DIV File=Z8EM.:Z8A6TSI                    SAT 08/09/97 12:08 Page:1243
        35 044625   000067 236000 xsym               LDQ     O1COM+55
        35 044626   000014 036003                    ADLQ    12,DU
        35 044627   000140 756000 0                  STQ     @ITEM$+1
        35 044630   001217 630400 0                  EPPR0   PROC$+135
        35 044631   000137 450400 0                  STP0    NUM+2
        35 044632   003076 701000 35                 TSX1    CHECK_AND_SAVE_ITEM
        35 044633   044640 702000 35                 TSX2    s:41351

     7245    41345    2                                    O1COM.REPORT_DD$ -> LX_REPORT_REC.P.JUSTIFIED$,
     7246    41346    2                                    %RSV_WRD_JUSTIFIED)
     7247    41347    2            WHENRETURN
     7248    41348    3              DO;

     7249    41349    3                O1COM.REPORT_DD$ -> LX_REPORT_REC.CLAUSE_COUNT =

  41349 35 044634   000067 470400 xsym               LDP0    O1COM+55
        35 044635   000023 235100                    LDA     19,,PR0
        35 044636   000001 035007                    ADLA    1,DL
        35 044637   000023 755100                    STA     19,,PR0

     7250    41350    3                  O1COM.REPORT_DD$ -> LX_REPORT_REC.CLAUSE_COUNT + 1;
     7251    41351    3              END;

  41351 35 044640   056641 710000 35                 TRA     s:45674

     7252    41352
     7253    41353    2      CASE(%ACT_REPORT_BLANK);

     7254    41354    2          CALL CHECK_AND_SAVE_ITEM (ADDR(O1COM.LX_STK(O1COM.LX_TOP)),

  41354 35 044641   000151 236000 xsym               LDQ     O1COM+105
        35 044642   000025 736000                    QLS     21
        35 044643   000631 036000 36                 ADLQ    409
        35 044644   001220 756000 0                  STQ     PROC$+136
        35 044645   001052 236000 36                 LDQ     554
        35 044646   000141 756000 0                  STQ     @FIELD$+1
        35 044647   000067 236000 xsym               LDQ     O1COM+55
PL6.E3A0      #001=Z8EM$SEMANTICS_DATA_DIV File=Z8EM.:Z8A6TSI                    SAT 08/09/97 12:08 Page:1244
        35 044650   000012 036003                    ADLQ    10,DU
        35 044651   000140 756000 0                  STQ     @ITEM$+1
        35 044652   001220 630400 0                  EPPR0   PROC$+136
        35 044653   000137 450400 0                  STP0    NUM+2
        35 044654   003076 701000 35                 TSX1    CHECK_AND_SAVE_ITEM
        35 044655   044662 702000 35                 TSX2    s:41361

     7255    41355    2                                    O1COM.REPORT_DD$ -> LX_REPORT_REC.P.BLANK$,
     7256    41356    2                                    %RSV_WRD_BLANK)
     7257    41357    2            WHENRETURN
     7258    41358    3              DO;

     7259    41359    3                O1COM.REPORT_DD$ -> LX_REPORT_REC.CLAUSE_COUNT =

  41359 35 044656   000067 470400 xsym               LDP0    O1COM+55
        35 044657   000023 235100                    LDA     19,,PR0
        35 044660   000001 035007                    ADLA    1,DL
        35 044661   000023 755100                    STA     19,,PR0

     7260    41360    3                  O1COM.REPORT_DD$ -> LX_REPORT_REC.CLAUSE_COUNT + 1;
     7261    41361    3              END;

  41361 35 044662   056641 710000 35                 TRA     s:45674

     7262    41362
     7263    41363    2      CASE(%ACT_REPORT_SIGN);

     7264    41364    2          CALL CHECK_AND_SAVE_ITEM (ADDR(O1COM.LX_STK(O1COM.LX_TOP)),

  41364 35 044663   000151 236000 xsym               LDQ     O1COM+105
        35 044664   000025 736000                    QLS     21
        35 044665   000631 036000 36                 ADLQ    409
        35 044666   001221 756000 0                  STQ     PROC$+137
        35 044667   001054 236000 36                 LDQ     556
        35 044670   000141 756000 0                  STQ     @FIELD$+1
        35 044671   000067 236000 xsym               LDQ     O1COM+55
        35 044672   000011 036003                    ADLQ    9,DU
PL6.E3A0      #001=Z8EM$SEMANTICS_DATA_DIV File=Z8EM.:Z8A6TSI                    SAT 08/09/97 12:08 Page:1245
        35 044673   000140 756000 0                  STQ     @ITEM$+1
        35 044674   001221 630400 0                  EPPR0   PROC$+137
        35 044675   000137 450400 0                  STP0    NUM+2
        35 044676   003076 701000 35                 TSX1    CHECK_AND_SAVE_ITEM
        35 044677   044704 702000 35                 TSX2    s:41371

     7265    41365    2                                    O1COM.REPORT_DD$ -> LX_REPORT_REC.P.SIGN$,
     7266    41366    2                                    %RSV_WRD_SIGN)
     7267    41367    2            WHENRETURN
     7268    41368    3              DO;

     7269    41369    3                O1COM.REPORT_DD$ -> LX_REPORT_REC.CLAUSE_COUNT =

  41369 35 044700   000067 470400 xsym               LDP0    O1COM+55
        35 044701   000023 235100                    LDA     19,,PR0
        35 044702   000001 035007                    ADLA    1,DL
        35 044703   000023 755100                    STA     19,,PR0

     7270    41370    3                  O1COM.REPORT_DD$ -> LX_REPORT_REC.CLAUSE_COUNT + 1;
     7271    41371    3              END;

  41371 35 044704   056641 710000 35                 TRA     s:45674

     7272    41372
     7273    41373    2      CASE(%ACT_REPORT_COLUMN);

     7274    41374    2          CALL CHECK_AND_SAVE_ITEM (ADDR(O1COM.LX_STK(O1COM.LX_TOP)),

  41374 35 044705   000151 236000 xsym               LDQ     O1COM+105
        35 044706   000025 736000                    QLS     21
        35 044707   000631 036000 36                 ADLQ    409
        35 044710   001222 756000 0                  STQ     PROC$+138
        35 044711   001056 236000 36                 LDQ     558
        35 044712   000141 756000 0                  STQ     @FIELD$+1
        35 044713   000067 236000 xsym               LDQ     O1COM+55
        35 044714   000017 036003                    ADLQ    15,DU
        35 044715   000140 756000 0                  STQ     @ITEM$+1
PL6.E3A0      #001=Z8EM$SEMANTICS_DATA_DIV File=Z8EM.:Z8A6TSI                    SAT 08/09/97 12:08 Page:1246
        35 044716   001222 630400 0                  EPPR0   PROC$+138
        35 044717   000137 450400 0                  STP0    NUM+2
        35 044720   003076 701000 35                 TSX1    CHECK_AND_SAVE_ITEM
        35 044721   044756 702000 35                 TSX2    s:41387

     7275    41375    2                                   O1COM.REPORT_DD$ -> LX_REPORT_REC.P.COLUMN_NUMBER$,
     7276    41376    2                                    %RSV_WRD_COLUMN)
     7277    41377    2            WHENRETURN
     7278    41378    3              DO;

     7279    41379    3                IF COMCOM.OB.FIPS.RPW THEN

  41379 35 044722   000036 236000 xsym               LDQ     COMCOM+30
        35 044723   040000 316003                    CANQ    16384,DU
        35 044724   044742 600000 35                 TZE     s:41383

     7280    41380    3                  CALL Z8AE$ERROR (%E$LEVEL_CHECK,

  41380 35 044725   000151 236000 xsym               LDQ     O1COM+105
        35 044726   000025 736000                    QLS     21
        35 044727   000100 036000 36                 ADLQ    64
        35 044730   001014 756000 0                  STQ     PROC$+4
        35 044731   000151 236000 xsym               LDQ     O1COM+105
        35 044732   000025 736000                    QLS     21
        35 044733   000101 036000 36                 ADLQ    65
        35 044734   000004 235000 36                 LDA     4
        35 044735   001012 757000 0                  STAQ    PROC$+2
        35 044736   001012 630400 0                  EPPR0   PROC$+2
        35 044737   000000 631400 36                 EPPR1   0
        35 044740   000000 701000 xent               TSX1    Z8AE$ERROR
        35 044741   000000 011000                    NOP     0

     7281    41381    3                                   O1COM.LX_STK.LINE(O1COM.LX_TOP - 3),
     7282    41382    3                                   O1COM.LX_STK.COLUMN(O1COM.LX_TOP - 3));
     7283    41383    3                O1COM.REPORT_DD$ -> LX_REPORT_REC.CLAUSE_COUNT =

  41383 35 044742   000067 470400 xsym               LDP0    O1COM+55
PL6.E3A0      #001=Z8EM$SEMANTICS_DATA_DIV File=Z8EM.:Z8A6TSI                    SAT 08/09/97 12:08 Page:1247
        35 044743   000023 235100                    LDA     19,,PR0
        35 044744   000001 035007                    ADLA    1,DL
        35 044745   000023 755100                    STA     19,,PR0

     7284    41384    3                  O1COM.REPORT_DD$ -> LX_REPORT_REC.CLAUSE_COUNT + 1;
     7285    41385    3                CALL CHARBIN (O1COM.REPORT_DD$ -> LX_REPORT_REC.COLUMN_NO#,

  41385 35 044746   000151 235000 xsym               LDA     O1COM+105
        35 044747   000003 735000                    ALS     3
        35 044750   014021 470405 xsym               LDP0    O1COM+6161,AL
        35 044751   000004 220100                    LDX0    4,,PR0
        35 044752   000067 471400 xsym               LDP1    O1COM+55
        35 044753   000100 305540                    DTB
        35 044754   000004 430010                    NDSC9   4,,PR0                   cn=2,s=nosgn,sf=0,n=*X0
        35 044755   100025 000004                    NDSC9   21,,PR1                  cn=0,s=lsgnf,sf=0,n=4

     7286    41386    3                              ADDR(O1COM.LX_STK(O1COM.LX_TOP)) -> LX_ITEM.DNT$ -> DNT.
             41386                                       TEXT.NAME);
     7287    41387    3              END;

  41387 35 044756   056641 710000 35                 TRA     s:45674

     7288    41388
     7289    41389    2      CASE(%ACT_REPORT_VALUE);

     7290    41390    2          CALL CHECK_AND_SAVE_ITEM (ADDR(O1COM.LX_STK(O1COM.LX_TOP)),

  41390 35 044757   000151 236000 xsym               LDQ     O1COM+105
        35 044760   000025 736000                    QLS     21
        35 044761   000631 036000 36                 ADLQ    409
        35 044762   001223 756000 0                  STQ     PROC$+139
        35 044763   001060 236000 36                 LDQ     560
        35 044764   000141 756000 0                  STQ     @FIELD$+1
        35 044765   000067 236000 xsym               LDQ     O1COM+55
        35 044766   000010 036003                    ADLQ    8,DU
        35 044767   000140 756000 0                  STQ     @ITEM$+1
        35 044770   001223 630400 0                  EPPR0   PROC$+139
PL6.E3A0      #001=Z8EM$SEMANTICS_DATA_DIV File=Z8EM.:Z8A6TSI                    SAT 08/09/97 12:08 Page:1248
        35 044771   000137 450400 0                  STP0    NUM+2
        35 044772   003076 701000 35                 TSX1    CHECK_AND_SAVE_ITEM
        35 044773   045000 702000 35                 TSX2    s:41397

     7291    41391    2                                    O1COM.REPORT_DD$ -> LX_REPORT_REC.P.VALUE$,
     7292    41392    2                                    %RSV_WRD_VALUE)
     7293    41393    2            WHENRETURN
     7294    41394    3              DO;

     7295    41395    3                O1COM.REPORT_DD$ -> LX_REPORT_REC.CLAUSE_COUNT =

  41395 35 044774   000067 470400 xsym               LDP0    O1COM+55
        35 044775   000023 235100                    LDA     19,,PR0
        35 044776   000001 035007                    ADLA    1,DL
        35 044777   000023 755100                    STA     19,,PR0

     7296    41396    3                  O1COM.REPORT_DD$ -> LX_REPORT_REC.CLAUSE_COUNT + 1;
     7297    41397    3              END;

  41397 35 045000   056641 710000 35                 TRA     s:45674

     7298    41398
     7299    41399    2      CASE(%ACT_INIT_SOURCE_CLAUSE);

     7300    41400
     7301    41401    2      CASE(%ACT_SOURCE_CLAUSE);

     7302    41402    2            IF O1COM.REPORT_DD$ -> LX_REPORT_REC.P.SOURCE$ ~= ADDR(NIL) THEN

  41402 35 045001   000067 470400 xsym               LDP0    O1COM+55
        35 045002   000021 236100                    LDQ     17,,PR0
        35 045003   000024 116000 36                 CMPQ    20
        35 045004   045037 600000 35                 TZE     s:41412

     7303    41403    3              DO;

     7304    41404    3                CALL Z8AE$ERROR ( %E$DUP_DD_CLAUSE,
PL6.E3A0      #001=Z8EM$SEMANTICS_DATA_DIV File=Z8EM.:Z8A6TSI                    SAT 08/09/97 12:08 Page:1249
     7305    41405    3                                  ADDR(O1COM.LX_STK(O1COM.LX_TOP - 3)) -> LX_TERMINAL.
             41405                                           LINE,
     7306    41406    3                                  ADDR(O1COM.LX_STK(O1COM.LX_TOP - 3)) -> LX_TERMINAL.
             41406                                           COLUMN,
     7307    41407    3                                  ADDR(O1COM.LX_STK(O1COM.LX_TOP - 3)) -> LX_TERMINAL.
             41407                                           DNT$);

  41407 35 045005   000151 236000 xsym               LDQ     O1COM+105
        35 045006   000025 736000                    QLS     21
        35 045007   001061 036000 36                 ADLQ    561
        35 045010   001015 756000 0                  STQ     PROC$+5
        35 045011   000151 236000 xsym               LDQ     O1COM+105
        35 045012   000025 736000                    QLS     21
        35 045013   000100 036000 36                 ADLQ    64
        35 045014   001014 756000 0                  STQ     PROC$+4
        35 045015   000151 236000 xsym               LDQ     O1COM+105
        35 045016   000025 736000                    QLS     21
        35 045017   000101 036000 36                 ADLQ    65
        35 045020   000010 235000 36                 LDA     8
        35 045021   001012 757000 0                  STAQ    PROC$+2
        35 045022   001012 630400 0                  EPPR0   PROC$+2
        35 045023   000005 631400 36                 EPPR1   5
        35 045024   000000 701000 xent               TSX1    Z8AE$ERROR
        35 045025   000000 011000                    NOP     0

     7308    41408    3                CALL Z8ED$DISPOSE_ABSSYN_TREE(ADDR(O1COM.LX_STK(O1COM.LX_TOP)) ->
             41408                         LX_LARGE.LARGE_ITEM$);

  41408 35 045026   000151 236000 xsym               LDQ     O1COM+105
        35 045027   000025 736000                    QLS     21
        35 045030   000732 036000 36                 ADLQ    474
        35 045031   001012 756000 0                  STQ     PROC$+2
        35 045032   001012 630400 0                  EPPR0   PROC$+2
        35 045033   000036 631400 36                 EPPR1   30
        35 045034   000000 701000 xent               TSX1    Z8ED$DISPOSE_ABSSYN_TREE
        35 045035   000000 011000                    NOP     0

PL6.E3A0      #001=Z8EM$SEMANTICS_DATA_DIV File=Z8EM.:Z8A6TSI                    SAT 08/09/97 12:08 Page:1250
     7309    41409    3              END;

  41409 35 045036   056641 710000 35                 TRA     s:45674

     7310    41410    2            ELSE
     7311    41411    3            DO;

     7312    41412    3              IF COMCOM.OB.FIPS.RPW THEN

  41412 35 045037   000036 236000 xsym               LDQ     COMCOM+30
        35 045040   040000 316003                    CANQ    16384,DU
        35 045041   045057 600000 35                 TZE     s:41422

     7313    41413    3                CALL Z8AE$ERROR (%E$LEVEL_CHECK,

  41413 35 045042   000151 236000 xsym               LDQ     O1COM+105
        35 045043   000025 736000                    QLS     21
        35 045044   000100 036000 36                 ADLQ    64
        35 045045   001014 756000 0                  STQ     PROC$+4
        35 045046   000151 236000 xsym               LDQ     O1COM+105
        35 045047   000025 736000                    QLS     21
        35 045050   000101 036000 36                 ADLQ    65
        35 045051   000004 235000 36                 LDA     4
        35 045052   001012 757000 0                  STAQ    PROC$+2
        35 045053   001012 630400 0                  EPPR0   PROC$+2
        35 045054   000000 631400 36                 EPPR1   0
        35 045055   000000 701000 xent               TSX1    Z8AE$ERROR
        35 045056   000000 011000                    NOP     0

     7314    41414    3                                 O1COM.LX_STK.LINE(O1COM.LX_TOP - 3),
     7315    41415    3                                 O1COM.LX_STK.COLUMN(O1COM.LX_TOP - 3));
     7316    41416                   %NEW_COPY_LX_STK (@POINTER = HEAP$,
     7317    41417                                     @FROM    = "O1COM.LX_TOP");

  41422 35 045057   000670 630400 36                 EPPR0   440
        35 045060   000025 631400 36                 EPPR1   21
        35 045061   000000 701000 xent               TSX1    Z8ED$NEW_HEAP
PL6.E3A0      #001=Z8EM$SEMANTICS_DATA_DIV File=Z8EM.:Z8A6TSI                    SAT 08/09/97 12:08 Page:1251
        35 045062   000000 011000                    NOP     0

  41425 35 045063   000151 235000 xsym               LDA     O1COM+105
        35 045064   000005 735000                    ALS     5
        35 045065   000000 470400 29                 LDP0    HEAP$
        35 045066   000100 100405                    MLR     fill='000'O
        35 045067   014017 000040 xsym               ADSC9   O1COM+6159,A             cn=0,n=32
        35 045070   000000 000040                    ADSC9   0,,PR0                   cn=0,n=32

     7318    41428    3              O1COM.REPORT_DD$ -> LX_REPORT_REC.P.SOURCE$ = HEAP$;

  41428 35 045071   000000 236000 29                 LDQ     HEAP$
        35 045072   000067 470400 xsym               LDP0    O1COM+55
        35 045073   000021 756100                    STQ     17,,PR0

     7319    41429    3              O1COM.REPORT_DD$ -> LX_REPORT_REC.CLAUSE_COUNT =

  41429 35 045074   000067 470400 xsym               LDP0    O1COM+55
        35 045075   000023 235100                    LDA     19,,PR0
        35 045076   000001 035007                    ADLA    1,DL
        35 045077   000023 755100                    STA     19,,PR0

     7320    41430    3                O1COM.REPORT_DD$ -> LX_REPORT_REC.CLAUSE_COUNT + 1;
     7321    41431    3            END;

  41431 35 045100   056641 710000 35                 TRA     s:45674

     7322    41432
     7323    41433    2      CASE(%ACT_SUM_CLAUSE_START);

     7324    41434
     7325    41435    2           IF O1COM.REPORT_DD$ -> LX_REPORT_REC.P.SUM$ = ADDR(NIL) THEN

  41435 35 045101   000067 470400 xsym               LDP0    O1COM+55
        35 045102   000022 236100                    LDQ     18,,PR0
        35 045103   000024 116000 36                 CMPQ    20
        35 045104   045145 601000 35                 TNZ     s:41458
PL6.E3A0      #001=Z8EM$SEMANTICS_DATA_DIV File=Z8EM.:Z8A6TSI                    SAT 08/09/97 12:08 Page:1252

     7326    41436    3             DO;

     7327    41437                    %NEW_HEAP (@POINTER = O1COM.REPORT_DD$ -> LX_REPORT_REC.P.SUM$,
     7328    41438                               @SIZE = %LENGTH_LX_ITEM);

  41440 35 045105   000054 236000 36                 LDQ     44
        35 045106   001013 756000 0                  STQ     PROC$+3
        35 045107   000067 236000 xsym               LDQ     O1COM+55
        35 045110   000022 036003                    ADLQ    18,DU
        35 045111   001012 756000 0                  STQ     PROC$+2
        35 045112   001012 630400 0                  EPPR0   PROC$+2
        35 045113   000025 631400 36                 EPPR1   21
        35 045114   000000 701000 xent               TSX1    Z8ED$NEW_HEAP
        35 045115   000000 011000                    NOP     0

     7329    41443                    %INIT_LX_LIST (@POINTER = O1COM.REPORT_DD$ -> LX_REPORT_REC.P.SUM$);

  41445 35 045116   000067 470400 xsym               LDP0    O1COM+55
        35 045117   000022 471500                    LDP1    18,,PR0
        35 045120   000002 220003                    LDX0    2,DU
        35 045121   100000 740100                    STX0    0,,PR1

  41446 35 045122   000067 470400 xsym               LDP0    O1COM+55
        35 045123   000022 471500                    LDP1    18,,PR0
        35 045124   000000 221003                    LDX1    0,DU
        35 045125   100000 441100                    SXL1    0,,PR1

  41447 35 045126   000067 470400 xsym               LDP0    O1COM+55
        35 045127   000022 471500                    LDP1    18,,PR0
        35 045130   000024 236000 36                 LDQ     20
        35 045131   100001 756100                    STQ     1,,PR1

  41448 35 045132   000067 470400 xsym               LDP0    O1COM+55
        35 045133   000022 471500                    LDP1    18,,PR0
        35 045134   000024 236000 36                 LDQ     20
        35 045135   100004 756100                    STQ     4,,PR1
PL6.E3A0      #001=Z8EM$SEMANTICS_DATA_DIV File=Z8EM.:Z8A6TSI                    SAT 08/09/97 12:08 Page:1253

  41449 35 045136   000067 470400 xsym               LDP0    O1COM+55
        35 045137   000022 471500                    LDP1    18,,PR0
        35 045140   000024 236000 36                 LDQ     20
        35 045141   100007 756100                    STQ     7,,PR1

  41450 35 045142   000067 470400 xsym               LDP0    O1COM+55
        35 045143   000022 471500                    LDP1    18,,PR0
        35 045144   100002 450100                    STZ     2,,PR1

     7330    41453    3             END;

     7331    41454
     7332    41455                %NEW_HEAP (@POINTER  = HEAP$,
     7333    41456                           @SIZE     = %LENGTH_LX_ITEM);

  41458 35 045145   000670 630400 36                 EPPR0   440
        35 045146   000025 631400 36                 EPPR1   21
        35 045147   000000 701000 xent               TSX1    Z8ED$NEW_HEAP
        35 045150   000000 011000                    NOP     0

     7334    41461                %INIT_DEFERED_SUM_CLAUSE (@POINTER = HEAP$);

  41463 35 045151   000032 220003                    LDX0    26,DU
        35 045152   000000 470400 29                 LDP0    HEAP$
        35 045153   000000 740100                    STX0    0,,PR0

  41464 35 045154   000024 236000 36                 LDQ     20
        35 045155   000000 470400 29                 LDP0    HEAP$
        35 045156   000001 756100                    STQ     1,,PR0

  41465 35 045157   000024 236000 36                 LDQ     20
        35 045160   000003 756100                    STQ     3,,PR0

  41466 35 045161   000024 236000 36                 LDQ     20
        35 045162   000004 756100                    STQ     4,,PR0

PL6.E3A0      #001=Z8EM$SEMANTICS_DATA_DIV File=Z8EM.:Z8A6TSI                    SAT 08/09/97 12:08 Page:1254
  41467 35 045163   000000 221003                    LDX1    0,DU
        35 045164   000000 441100                    SXL1    0,,PR0

  41468 35 045165   000000 470400 29                 LDP0    HEAP$
        35 045166   000104 236000 36                 LDQ     68
        35 045167   000000 356100                    ANSQ    0,,PR0

  41469 35 045170   000000 470400 29                 LDP0    HEAP$
        35 045171   000105 236000 36                 LDQ     69
        35 045172   000000 356100                    ANSQ    0,,PR0

  41470 35 045173   000000 470400 29                 LDP0    HEAP$
        35 045174   000106 236000 36                 LDQ     70
        35 045175   000000 356100                    ANSQ    0,,PR0

  41471 35 045176   000133 235000 xsym               LDA     COMCOM+91
        35 045177   000000 470400 29                 LDP0    HEAP$
        35 045200   000005 755100                    STA     5,,PR0

  41472 35 045201   000134 235000 xsym               LDA     COMCOM+92
        35 045202   000006 755100                    STA     6,,PR0

  41473 35 045203   000024 236000 36                 LDQ     20
        35 045204   000007 756100                    STQ     7,,PR0

     7335    41476               %ADD_LX_ITEM_TO_LIST_TAIL (@LIST$ = O1COM.REPORT_DD$ -> LX_REPORT_REC.P.SUM$
             41476                    ,
     7336    41477                                           @FROM$ = HEAP$);

  41479 35 045205   000024 236000 36                 LDQ     20
        35 045206   000007 756100                    STQ     7,,PR0

  41480 35 045207   000067 471400 xsym               LDP1    O1COM+55
        35 045210   100022 473500                    LDP3    18,,PR1
        35 045211   300002 235100                    LDA     2,,PR3
        35 045212   045221 601000 35                 TNZ     s:41487

PL6.E3A0      #001=Z8EM$SEMANTICS_DATA_DIV File=Z8EM.:Z8A6TSI                    SAT 08/09/97 12:08 Page:1255
  41482 35 045213   000000 236000 29                 LDQ     HEAP$
        35 045214   300004 756100                    STQ     4,,PR3

  41483 35 045215   000067 471400 xsym               LDP1    O1COM+55
        35 045216   100022 473500                    LDP3    18,,PR1
        35 045217   300001 756100                    STQ     1,,PR3

  41484 35 045220   045227 710000 35                 TRA     s:41490

  41487 35 045221   300001 474500                    LDP4    1,,PR3
        35 045222   000000 236000 29                 LDQ     HEAP$
        35 045223   400007 756100                    STQ     7,,PR4

  41488 35 045224   000067 471400 xsym               LDP1    O1COM+55
        35 045225   100022 473500                    LDP3    18,,PR1
        35 045226   300001 756100                    STQ     1,,PR3

  41490 35 045227   000067 471400 xsym               LDP1    O1COM+55
        35 045230   100022 473500                    LDP3    18,,PR1
        35 045231   300002 054100                    AOS     2,,PR3

  41491 35 045232   056641 710000 35                 TRA     s:45674

     7337    41493
     7338    41494
     7339    41495    2      CASE(%ACT_SUM_CLAUSE);

     7340    41496                %NEW_COPY_LX_STK (@POINTER = HEAP$,
     7341    41497                                  @FROM    = "O1COM.LX_TOP");

  41502 35 045233   000670 630400 36                 EPPR0   440
        35 045234   000025 631400 36                 EPPR1   21
        35 045235   000000 701000 xent               TSX1    Z8ED$NEW_HEAP
        35 045236   000000 011000                    NOP     0

  41505 35 045237   000151 235000 xsym               LDA     O1COM+105
        35 045240   000005 735000                    ALS     5
PL6.E3A0      #001=Z8EM$SEMANTICS_DATA_DIV File=Z8EM.:Z8A6TSI                    SAT 08/09/97 12:08 Page:1256
        35 045241   000000 470400 29                 LDP0    HEAP$
        35 045242   000100 100405                    MLR     fill='000'O
        35 045243   014017 000040 xsym               ADSC9   O1COM+6159,A             cn=0,n=32
        35 045244   000000 000040                    ADSC9   0,,PR0                   cn=0,n=32

     7342    41508    2           O1COM.REPORT_DD$ -> LX_REPORT_REC.P.SUM$ -> LX_LIST.TAIL$

  41508 35 045245   000067 470400 xsym               LDP0    O1COM+55
        35 045246   000022 471500                    LDP1    18,,PR0
        35 045247   100001 473500                    LDP3    1,,PR1
        35 045250   000000 236000 29                 LDQ     HEAP$
        35 045251   300001 756100                    STQ     1,,PR3
        35 045252   056641 710000 35                 TRA     s:45674

     7343    41509    2             -> DEFERED_SUM_CLAUSE.DEFERED_ID$ = HEAP$;
     7344    41510
     7345    41511    2     CASE(%ACT_SUM_UPON);

     7346    41512               %NEW_COPY_LX_STK (@FROM = O1COM.LX_TOP, @POINTER = HEAP$);

  41517 35 045253   000670 630400 36                 EPPR0   440
        35 045254   000025 631400 36                 EPPR1   21
        35 045255   000000 701000 xent               TSX1    Z8ED$NEW_HEAP
        35 045256   000000 011000                    NOP     0

  41520 35 045257   000151 235000 xsym               LDA     O1COM+105
        35 045260   000005 735000                    ALS     5
        35 045261   000000 470400 29                 LDP0    HEAP$
        35 045262   000100 100405                    MLR     fill='000'O
        35 045263   014017 000040 xsym               ADSC9   O1COM+6159,A             cn=0,n=32
        35 045264   000000 000040                    ADSC9   0,,PR0                   cn=0,n=32

     7347    41523    2          O1COM.REPORT_DD$ -> LX_REPORT_REC.P.SUM$ -> LX_LIST.TAIL$

  41523 35 045265   000067 470400 xsym               LDP0    O1COM+55
        35 045266   000022 471500                    LDP1    18,,PR0
        35 045267   100001 473500                    LDP3    1,,PR1
PL6.E3A0      #001=Z8EM$SEMANTICS_DATA_DIV File=Z8EM.:Z8A6TSI                    SAT 08/09/97 12:08 Page:1257
        35 045270   000000 236000 29                 LDQ     HEAP$
        35 045271   300003 756100                    STQ     3,,PR3
        35 045272   056641 710000 35                 TRA     s:45674

     7348    41524    2            -> DEFERED_SUM_CLAUSE.SUM_UPON$ = HEAP$;
     7349    41525
     7350    41526
     7351    41527    2      CASE(%ACT_SUM_CLAUSE_END);

     7352    41528    2      CASE(%ACT_REPORT_GROUP_INDICATE);

     7353    41529    2          CALL CHECK_AND_SAVE_ITEM (ADDR(O1COM.LX_STK(O1COM.LX_TOP - 1)),

  41529 35 045273   000151 236000 xsym               LDQ     O1COM+105
        35 045274   000025 736000                    QLS     21
        35 045275   000640 036000 36                 ADLQ    416
        35 045276   001224 756000 0                  STQ     PROC$+140
        35 045277   001042 236000 36                 LDQ     546
        35 045300   000141 756000 0                  STQ     @FIELD$+1
        35 045301   000067 236000 xsym               LDQ     O1COM+55
        35 045302   000020 036003                    ADLQ    16,DU
        35 045303   000140 756000 0                  STQ     @ITEM$+1
        35 045304   001224 630400 0                  EPPR0   PROC$+140
        35 045305   000137 450400 0                  STP0    NUM+2
        35 045306   003076 701000 35                 TSX1    CHECK_AND_SAVE_ITEM
        35 045307   045314 702000 35                 TSX2    s:41536

     7354    41530    2                                   O1COM.REPORT_DD$ -> LX_REPORT_REC.P.GROUP_INDICATE$
             41530                                             ,
     7355    41531    2                                    %RSV_WRD_GROUP)
     7356    41532    2            WHENRETURN
     7357    41533    3              DO;

     7358    41534    3                O1COM.REPORT_DD$ -> LX_REPORT_REC.CLAUSE_COUNT =

  41534 35 045310   000067 470400 xsym               LDP0    O1COM+55
        35 045311   000023 235100                    LDA     19,,PR0
PL6.E3A0      #001=Z8EM$SEMANTICS_DATA_DIV File=Z8EM.:Z8A6TSI                    SAT 08/09/97 12:08 Page:1258
        35 045312   000001 035007                    ADLA    1,DL
        35 045313   000023 755100                    STA     19,,PR0

     7359    41535    3                  O1COM.REPORT_DD$ -> LX_REPORT_REC.CLAUSE_COUNT + 1;
     7360    41536    3              END;

  41536 35 045314   056641 710000 35                 TRA     s:45674

     7361    41537
     7362    41538    2      CASE(%ACT_REPORT_LINE_INT);

     7363    41539    2          CALL CHECK_AND_SAVE_ITEM (ADDR(O1COM.LX_STK(O1COM.LX_TOP)),

  41539 35 045315   000151 236000 xsym               LDQ     O1COM+105
        35 045316   000025 736000                    QLS     21
        35 045317   000631 036000 36                 ADLQ    409
        35 045320   001225 756000 0                  STQ     PROC$+141
        35 045321   001063 236000 36                 LDQ     563
        35 045322   000141 756000 0                  STQ     @FIELD$+1
        35 045323   000067 236000 xsym               LDQ     O1COM+55
        35 045324   000016 036003                    ADLQ    14,DU
        35 045325   000140 756000 0                  STQ     @ITEM$+1
        35 045326   001225 630400 0                  EPPR0   PROC$+141
        35 045327   000137 450400 0                  STP0    NUM+2
        35 045330   003076 701000 35                 TSX1    CHECK_AND_SAVE_ITEM
        35 045331   045372 702000 35                 TSX2    s:41556

     7364    41540    2                                    O1COM.REPORT_DD$ -> LX_REPORT_REC.P.LINE_NUMBER$,
     7365    41541    2                                    %RSV_WRD_LINE)
     7366    41542    2            WHENRETURN
     7367    41543    3              DO;

     7368    41544    3                IF COMCOM.OB.FIPS.RPW THEN

  41544 35 045332   000036 236000 xsym               LDQ     COMCOM+30
        35 045333   040000 316003                    CANQ    16384,DU
        35 045334   045352 600000 35                 TZE     s:41548
PL6.E3A0      #001=Z8EM$SEMANTICS_DATA_DIV File=Z8EM.:Z8A6TSI                    SAT 08/09/97 12:08 Page:1259

     7369    41545    3                  CALL Z8AE$ERROR (%E$LEVEL_CHECK,

  41545 35 045335   000151 236000 xsym               LDQ     O1COM+105
        35 045336   000025 736000                    QLS     21
        35 045337   000100 036000 36                 ADLQ    64
        35 045340   001014 756000 0                  STQ     PROC$+4
        35 045341   000151 236000 xsym               LDQ     O1COM+105
        35 045342   000025 736000                    QLS     21
        35 045343   000101 036000 36                 ADLQ    65
        35 045344   000004 235000 36                 LDA     4
        35 045345   001012 757000 0                  STAQ    PROC$+2
        35 045346   001012 630400 0                  EPPR0   PROC$+2
        35 045347   000000 631400 36                 EPPR1   0
        35 045350   000000 701000 xent               TSX1    Z8AE$ERROR
        35 045351   000000 011000                    NOP     0

     7370    41546    3                                   O1COM.LX_STK.LINE(O1COM.LX_TOP - 3),
     7371    41547    3                                   O1COM.LX_STK.COLUMN(O1COM.LX_TOP - 3));
     7372    41548    3                O1COM.REPORT_DD$ -> LX_REPORT_REC.D.LINE_TYPE = %REPORT_LINE_INT;

  41548 35 045352   000001 235007                    LDA     1,DL
        35 045353   000067 470400 xsym               LDP0    O1COM+55
        35 045354   000002 755100                    STA     2,,PR0

     7373    41549    3                O1COM.REPORT_DD$ -> LX_REPORT_REC.CLAUSE_COUNT =

  41549 35 045355   000067 470400 xsym               LDP0    O1COM+55
        35 045356   000023 235100                    LDA     19,,PR0
        35 045357   000001 035007                    ADLA    1,DL
        35 045360   000023 755100                    STA     19,,PR0

     7374    41550    3                  O1COM.REPORT_DD$ -> LX_REPORT_REC.CLAUSE_COUNT + 1;
     7375    41551    3                CALL CHARBIN (O1COM.REPORT_DD$ -> LX_REPORT_REC.LINE_NO#,

  41551 35 045361   000151 235000 xsym               LDA     O1COM+105
        35 045362   000003 735000                    ALS     3
PL6.E3A0      #001=Z8EM$SEMANTICS_DATA_DIV File=Z8EM.:Z8A6TSI                    SAT 08/09/97 12:08 Page:1260
        35 045363   014021 470405 xsym               LDP0    O1COM+6161,AL
        35 045364   000004 220100                    LDX0    4,,PR0
        35 045365   000067 471400 xsym               LDP1    O1COM+55
        35 045366   000100 305540                    DTB
        35 045367   000004 430010                    NDSC9   4,,PR0                   cn=2,s=nosgn,sf=0,n=*X0
        35 045370   100026 000004                    NDSC9   22,,PR1                  cn=0,s=lsgnf,sf=0,n=4

     7376    41552    3                              ADDR(O1COM.LX_STK(O1COM.LX_TOP)) -> LX_ITEM.DNT$ -> DNT.
             41552                                       TEXT.NAME);
     7377    41553    3              END;

  41553 35 045371   045376 710000 35                 TRA     s:41559

     7378    41554    2            WHENALTRETURN
     7379    41555    3              DO;

     7380    41556    3                ADDR(O1COM.LX_STK(O1COM.LX_TOP - 3)) -> LX_ITEM.B.ERROR = TRUE;

  41556 35 045372   000151 235000 xsym               LDA     O1COM+105
        35 045373   000003 735000                    ALS     3
        35 045374   400000 236007                    LDQ     -131072,DL
        35 045375   013767 256005 xsym               ORSQ    O1COM+6135,AL

     7381    41557    3              END;

     7382    41558
     7383    41559    2              ADDR(O1COM.LX_STK(O1COM.LX_TOP - 3)) -> LX_ITEM.ID = %PRE_NEXT_PAGE;

  41559 35 045376   000151 235000 xsym               LDA     O1COM+105
        35 045377   000003 735000                    ALS     3
        35 045400   000037 220003                    LDX0    31,DU
        35 045401   013767 740005 xsym               STX0    O1COM+6135,AL
        35 045402   056641 710000 35                 TRA     s:45674

     7384    41560
     7385    41561    2      CASE(%ACT_REPORT_LINE_NEXT_PAGE);

PL6.E3A0      #001=Z8EM$SEMANTICS_DATA_DIV File=Z8EM.:Z8A6TSI                    SAT 08/09/97 12:08 Page:1261
     7386    41562    2          CALL CHECK_AND_SAVE_ITEM (ADDR(O1COM.LX_STK(O1COM.LX_TOP - 2)),

  41562 35 045403   000151 236000 xsym               LDQ     O1COM+105
        35 045404   000025 736000                    QLS     21
        35 045405   000236 036000 36                 ADLQ    158
        35 045406   001226 756000 0                  STQ     PROC$+142
        35 045407   001063 236000 36                 LDQ     563
        35 045410   000141 756000 0                  STQ     @FIELD$+1
        35 045411   000067 236000 xsym               LDQ     O1COM+55
        35 045412   000016 036003                    ADLQ    14,DU
        35 045413   000140 756000 0                  STQ     @ITEM$+1
        35 045414   001226 630400 0                  EPPR0   PROC$+142
        35 045415   000137 450400 0                  STP0    NUM+2
        35 045416   003076 701000 35                 TSX1    CHECK_AND_SAVE_ITEM
        35 045417   045457 702000 35                 TSX2    s:41576

     7387    41563    2                                    O1COM.REPORT_DD$ -> LX_REPORT_REC.P.LINE_NUMBER$,
     7388    41564    2                                    %RSV_WRD_LINE)
     7389    41565    2            WHENRETURN
     7390    41566    3              DO;

     7391    41567    3                IF COMCOM.OB.FIPS.RPW THEN

  41567 35 045420   000036 236000 xsym               LDQ     COMCOM+30
        35 045421   040000 316003                    CANQ    16384,DU
        35 045422   045440 600000 35                 TZE     s:41571

     7392    41568    3                  CALL Z8AE$ERROR (%E$LEVEL_CHECK,

  41568 35 045423   000151 236000 xsym               LDQ     O1COM+105
        35 045424   000025 736000                    QLS     21
        35 045425   000557 036000 36                 ADLQ    367
        35 045426   001014 756000 0                  STQ     PROC$+4
        35 045427   000151 236000 xsym               LDQ     O1COM+105
        35 045430   000025 736000                    QLS     21
        35 045431   000560 036000 36                 ADLQ    368
        35 045432   000004 235000 36                 LDA     4
PL6.E3A0      #001=Z8EM$SEMANTICS_DATA_DIV File=Z8EM.:Z8A6TSI                    SAT 08/09/97 12:08 Page:1262
        35 045433   001012 757000 0                  STAQ    PROC$+2
        35 045434   001012 630400 0                  EPPR0   PROC$+2
        35 045435   000000 631400 36                 EPPR1   0
        35 045436   000000 701000 xent               TSX1    Z8AE$ERROR
        35 045437   000000 011000                    NOP     0

     7393    41569    3                                   O1COM.LX_STK.LINE(O1COM.LX_TOP - 5),
     7394    41570    3                                   O1COM.LX_STK.COLUMN(O1COM.LX_TOP - 5));
     7395    41571    3               O1COM.REPORT_DD$ -> LX_REPORT_REC.D.LINE_TYPE = %REPORT_LINE_NEXT_PAGE;

  41571 35 045440   000003 235007                    LDA     3,DL
        35 045441   000067 470400 xsym               LDP0    O1COM+55
        35 045442   000002 755100                    STA     2,,PR0

     7396    41572    3                O1COM.REPORT_DD$ -> LX_REPORT_REC.CLAUSE_COUNT =

  41572 35 045443   000067 470400 xsym               LDP0    O1COM+55
        35 045444   000023 235100                    LDA     19,,PR0
        35 045445   000001 035007                    ADLA    1,DL
        35 045446   000023 755100                    STA     19,,PR0

     7397    41573    3                  O1COM.REPORT_DD$ -> LX_REPORT_REC.CLAUSE_COUNT + 1;
     7398    41574    3                CALL CHARBIN (O1COM.REPORT_DD$ -> LX_REPORT_REC.LINE_NO#,

  41574 35 045447   000151 235000 xsym               LDA     O1COM+105
        35 045450   000003 735000                    ALS     3
        35 045451   014001 470405 xsym               LDP0    O1COM+6145,AL
        35 045452   000004 220100                    LDX0    4,,PR0
        35 045453   000067 471400 xsym               LDP1    O1COM+55
        35 045454   000100 305540                    DTB
        35 045455   000004 430010                    NDSC9   4,,PR0                   cn=2,s=nosgn,sf=0,n=*X0
        35 045456   100026 000004                    NDSC9   22,,PR1                  cn=0,s=lsgnf,sf=0,n=4

     7399    41575    3                              ADDR(O1COM.LX_STK(O1COM.LX_TOP - 2)) -> LX_ITEM.DNT$ ->
             41575                                       DNT.TEXT.NAME);
     7400    41576    3              END;

PL6.E3A0      #001=Z8EM$SEMANTICS_DATA_DIV File=Z8EM.:Z8A6TSI                    SAT 08/09/97 12:08 Page:1263
  41576 35 045457   056641 710000 35                 TRA     s:45674

     7401    41577
     7402    41578    2      CASE(%ACT_REPORT_LINE_PLUS);

     7403    41579    2          CALL CHECK_AND_SAVE_ITEM (ADDR(O1COM.LX_STK(O1COM.LX_TOP)),

  41579 35 045460   000151 236000 xsym               LDQ     O1COM+105
        35 045461   000025 736000                    QLS     21
        35 045462   000631 036000 36                 ADLQ    409
        35 045463   001227 756000 0                  STQ     PROC$+143
        35 045464   001063 236000 36                 LDQ     563
        35 045465   000141 756000 0                  STQ     @FIELD$+1
        35 045466   000067 236000 xsym               LDQ     O1COM+55
        35 045467   000016 036003                    ADLQ    14,DU
        35 045470   000140 756000 0                  STQ     @ITEM$+1
        35 045471   001227 630400 0                  EPPR0   PROC$+143
        35 045472   000137 450400 0                  STP0    NUM+2
        35 045473   003076 701000 35                 TSX1    CHECK_AND_SAVE_ITEM
        35 045474   045534 702000 35                 TSX2    s:41593

     7404    41580    2                                    O1COM.REPORT_DD$ -> LX_REPORT_REC.P.LINE_NUMBER$,
     7405    41581    2                                    %RSV_WRD_LINE)
     7406    41582    2            WHENRETURN
     7407    41583    3              DO;

     7408    41584    3                IF COMCOM.OB.FIPS.RPW THEN

  41584 35 045475   000036 236000 xsym               LDQ     COMCOM+30
        35 045476   040000 316003                    CANQ    16384,DU
        35 045477   045515 600000 35                 TZE     s:41588

     7409    41585    3                  CALL Z8AE$ERROR (%E$LEVEL_CHECK,

  41585 35 045500   000151 236000 xsym               LDQ     O1COM+105
        35 045501   000025 736000                    QLS     21
        35 045502   000672 036000 36                 ADLQ    442
PL6.E3A0      #001=Z8EM$SEMANTICS_DATA_DIV File=Z8EM.:Z8A6TSI                    SAT 08/09/97 12:08 Page:1264
        35 045503   001014 756000 0                  STQ     PROC$+4
        35 045504   000151 236000 xsym               LDQ     O1COM+105
        35 045505   000025 736000                    QLS     21
        35 045506   000673 036000 36                 ADLQ    443
        35 045507   000004 235000 36                 LDA     4
        35 045510   001012 757000 0                  STAQ    PROC$+2
        35 045511   001012 630400 0                  EPPR0   PROC$+2
        35 045512   000000 631400 36                 EPPR1   0
        35 045513   000000 701000 xent               TSX1    Z8AE$ERROR
        35 045514   000000 011000                    NOP     0

     7410    41586    3                                   O1COM.LX_STK.LINE(O1COM.LX_TOP - 4),
     7411    41587    3                                   O1COM.LX_STK.COLUMN(O1COM.LX_TOP - 4));
     7412    41588    3                O1COM.REPORT_DD$ -> LX_REPORT_REC.D.LINE_TYPE = %REPORT_LINE_PLUS;

  41588 35 045515   000002 235007                    LDA     2,DL
        35 045516   000067 470400 xsym               LDP0    O1COM+55
        35 045517   000002 755100                    STA     2,,PR0

     7413    41589    3                O1COM.REPORT_DD$ -> LX_REPORT_REC.CLAUSE_COUNT =

  41589 35 045520   000067 470400 xsym               LDP0    O1COM+55
        35 045521   000023 235100                    LDA     19,,PR0
        35 045522   000001 035007                    ADLA    1,DL
        35 045523   000023 755100                    STA     19,,PR0

     7414    41590    3                  O1COM.REPORT_DD$ -> LX_REPORT_REC.CLAUSE_COUNT + 1;
     7415    41591    3                CALL CHARBIN (O1COM.REPORT_DD$ -> LX_REPORT_REC.LINE_NO#,

  41591 35 045524   000151 235000 xsym               LDA     O1COM+105
        35 045525   000003 735000                    ALS     3
        35 045526   014021 470405 xsym               LDP0    O1COM+6161,AL
        35 045527   000004 220100                    LDX0    4,,PR0
        35 045530   000067 471400 xsym               LDP1    O1COM+55
        35 045531   000100 305540                    DTB
        35 045532   000004 430010                    NDSC9   4,,PR0                   cn=2,s=nosgn,sf=0,n=*X0
        35 045533   100026 000004                    NDSC9   22,,PR1                  cn=0,s=lsgnf,sf=0,n=4
PL6.E3A0      #001=Z8EM$SEMANTICS_DATA_DIV File=Z8EM.:Z8A6TSI                    SAT 08/09/97 12:08 Page:1265

     7416    41592    3                              ADDR(O1COM.LX_STK(O1COM.LX_TOP)) -> LX_ITEM.DNT$ -> DNT.
             41592                                       TEXT.NAME);
     7417    41593    3              END;

  41593 35 045534   056641 710000 35                 TRA     s:45674

     7418    41594
     7419    41595    2      CASE(%ACT_ERROR_NEXT_PAGE);

     7420    41596    2          IF ADDR(O1COM.LX_STK(O1COM.LX_TOP - 1)) -> LX_ITEM.ID = %PRE_NEXT_PAGE THEN

  41596 35 045535   000151 236000 xsym               LDQ     O1COM+105
        35 045536   000003 736000                    QLS     3
        35 045537   014007 220006 xsym               LDX0    O1COM+6151,QL
        35 045540   000037 100003                    CMPX0   31,DU
        35 045541   045551 601000 35                 TNZ     s:41616

     7421    41597    3            DO;

     7422    41598    3              IF NOT ADDR(O1COM.LX_STK(O1COM.LX_TOP - 1)) -> LX_ITEM.B.ERROR THEN

  41598 35 045542   014007 236006 xsym               LDQ     O1COM+6151,QL
        35 045543   400000 316007                    CANQ    -131072,DL
        35 045544   056641 601000 35                 TNZ     s:45674

     7423    41599    3               O1COM.REPORT_DD$ -> LX_REPORT_REC.D.LINE_TYPE = %REPORT_LINE_NEXT_PAGE;

  41599 35 045545   000003 236007                    LDQ     3,DL
        35 045546   000067 470400 xsym               LDP0    O1COM+55
        35 045547   000002 756100                    STQ     2,,PR0

     7424    41600    3            END;

  41600 35 045550   056641 710000 35                 TRA     s:45674

     7425    41601    2          ELSE
PL6.E3A0      #001=Z8EM$SEMANTICS_DATA_DIV File=Z8EM.:Z8A6TSI                    SAT 08/09/97 12:08 Page:1266
     7426    41602    3            DO;  /* Wrong NEXT PAGE clause here */

     7427    41603                   %CONDITIONAL_ERROR (@LX_ITEM$   = "ADDR(O1COM.LX_STK(O1COM.LX_TOP))",
     7428    41604                                       @ERROR#     = %E$ERR_NEXT_PAGE,
     7429    41605                                       @LINE       =
             41605                                         "ADDR(O1COM.LX_STK(O1COM.LX_TOP)) -> LX_ITEM.LINE"
             41605                                           ,
     7430    41606                                       @COLUMN     =
             41606                                       "ADDR(O1COM.LX_STK(O1COM.LX_TOP)) -> LX_ITEM.COLUMN"
             41606                                           );

  41616 35 045551   014017 236006 xsym               LDQ     O1COM+6159,QL
        35 045552   400000 316007                    CANQ    -131072,DL
        35 045553   056641 601000 35                 TNZ     s:45674

  41618 35 045554   000151 236000 xsym               LDQ     O1COM+105
        35 045555   000025 736000                    QLS     21
        35 045556   000662 036000 36                 ADLQ    434
        35 045557   001014 756000 0                  STQ     PROC$+4
        35 045560   000151 236000 xsym               LDQ     O1COM+105
        35 045561   000025 736000                    QLS     21
        35 045562   000663 036000 36                 ADLQ    435
        35 045563   001065 235000 36                 LDA     565
        35 045564   001012 757000 0                  STAQ    PROC$+2
        35 045565   001012 630400 0                  EPPR0   PROC$+2
        35 045566   000000 631400 36                 EPPR1   0
        35 045567   000000 701000 xent               TSX1    Z8AE$ERROR
        35 045570   000000 011000                    NOP     0

  41627 35 045571   000151 235000 xsym               LDA     O1COM+105
        35 045572   000003 735000                    ALS     3
        35 045573   400000 236007                    LDQ     -131072,DL
        35 045574   014017 256005 xsym               ORSQ    O1COM+6159,AL

     7431    41636    3            END;

  41636 35 045575   056641 710000 35                 TRA     s:45674
PL6.E3A0      #001=Z8EM$SEMANTICS_DATA_DIV File=Z8EM.:Z8A6TSI                    SAT 08/09/97 12:08 Page:1267

     7432    41637
     7433    41638    2      CASE(%ACT_TYPE_REPORT_HEADING);

     7434    41639               %SAVE_REPORT_TYPE (@REPORT_TYPE = %REPORT_HEADING);

  41641 35 045576   000151 236000 xsym               LDQ     O1COM+105
        35 045577   000025 736000                    QLS     21
        35 045600   000631 036000 36                 ADLQ    409
        35 045601   001230 756000 0                  STQ     PROC$+144
        35 045602   001067 236000 36                 LDQ     567
        35 045603   000141 756000 0                  STQ     @FIELD$+1
        35 045604   000067 236000 xsym               LDQ     O1COM+55
        35 045605   000013 036003                    ADLQ    11,DU
        35 045606   000140 756000 0                  STQ     @ITEM$+1
        35 045607   001230 630400 0                  EPPR0   PROC$+144
        35 045610   000137 450400 0                  STP0    NUM+2
        35 045611   003076 701000 35                 TSX1    CHECK_AND_SAVE_ITEM
        35 045612   045622 702000 35                 TSX2    s:41650

  41646 35 045613   000001 235007                    LDA     1,DL
        35 045614   000067 470400 xsym               LDP0    O1COM+55
        35 045615   000001 755100                    STA     1,,PR0

  41647 35 045616   000067 470400 xsym               LDP0    O1COM+55
        35 045617   000023 235100                    LDA     19,,PR0
        35 045620   000001 035007                    ADLA    1,DL
        35 045621   000023 755100                    STA     19,,PR0

  41650 35 045622   056641 710000 35                 TRA     s:45674

     7435    41652
     7436    41653    2      CASE(%ACT_TYPE_PAGE_HEADING);

     7437    41654               %SAVE_REPORT_TYPE (@REPORT_TYPE = %PAGE_HEADING);

  41656 35 045623   000151 236000 xsym               LDQ     O1COM+105
PL6.E3A0      #001=Z8EM$SEMANTICS_DATA_DIV File=Z8EM.:Z8A6TSI                    SAT 08/09/97 12:08 Page:1268
        35 045624   000025 736000                    QLS     21
        35 045625   000631 036000 36                 ADLQ    409
        35 045626   001231 756000 0                  STQ     PROC$+145
        35 045627   001067 236000 36                 LDQ     567
        35 045630   000141 756000 0                  STQ     @FIELD$+1
        35 045631   000067 236000 xsym               LDQ     O1COM+55
        35 045632   000013 036003                    ADLQ    11,DU
        35 045633   000140 756000 0                  STQ     @ITEM$+1
        35 045634   001231 630400 0                  EPPR0   PROC$+145
        35 045635   000137 450400 0                  STP0    NUM+2
        35 045636   003076 701000 35                 TSX1    CHECK_AND_SAVE_ITEM
        35 045637   045647 702000 35                 TSX2    s:41665

  41661 35 045640   000002 235007                    LDA     2,DL
        35 045641   000067 470400 xsym               LDP0    O1COM+55
        35 045642   000001 755100                    STA     1,,PR0

  41662 35 045643   000067 470400 xsym               LDP0    O1COM+55
        35 045644   000023 235100                    LDA     19,,PR0
        35 045645   000001 035007                    ADLA    1,DL
        35 045646   000023 755100                    STA     19,,PR0

  41665 35 045647   056641 710000 35                 TRA     s:45674

     7438    41667
     7439    41668    2      CASE(%ACT_CONTROL_HEADING);

     7440    41669               %SAVE_REPORT_TYPE (@REPORT_TYPE = %CONTROL_HEADING);

  41671 35 045650   000151 236000 xsym               LDQ     O1COM+105
        35 045651   000025 736000                    QLS     21
        35 045652   000631 036000 36                 ADLQ    409
        35 045653   001232 756000 0                  STQ     PROC$+146
        35 045654   001067 236000 36                 LDQ     567
        35 045655   000141 756000 0                  STQ     @FIELD$+1
        35 045656   000067 236000 xsym               LDQ     O1COM+55
        35 045657   000013 036003                    ADLQ    11,DU
PL6.E3A0      #001=Z8EM$SEMANTICS_DATA_DIV File=Z8EM.:Z8A6TSI                    SAT 08/09/97 12:08 Page:1269
        35 045660   000140 756000 0                  STQ     @ITEM$+1
        35 045661   001232 630400 0                  EPPR0   PROC$+146
        35 045662   000137 450400 0                  STP0    NUM+2
        35 045663   003076 701000 35                 TSX1    CHECK_AND_SAVE_ITEM
        35 045664   045674 702000 35                 TSX2    s:41680

  41676 35 045665   000003 235007                    LDA     3,DL
        35 045666   000067 470400 xsym               LDP0    O1COM+55
        35 045667   000001 755100                    STA     1,,PR0

  41677 35 045670   000067 470400 xsym               LDP0    O1COM+55
        35 045671   000023 235100                    LDA     19,,PR0
        35 045672   000001 035007                    ADLA    1,DL
        35 045673   000023 755100                    STA     19,,PR0

  41680 35 045674   056641 710000 35                 TRA     s:45674

     7441    41682
     7442    41683    2      CASE(%ACT_CONTROL_HEADING_FINAL);

     7443    41684               %SAVE_REPORT_TYPE (@REPORT_TYPE = %CONTROL_HEADING_FINAL);

  41686 35 045675   000151 236000 xsym               LDQ     O1COM+105
        35 045676   000025 736000                    QLS     21
        35 045677   000631 036000 36                 ADLQ    409
        35 045700   001233 756000 0                  STQ     PROC$+147
        35 045701   001067 236000 36                 LDQ     567
        35 045702   000141 756000 0                  STQ     @FIELD$+1
        35 045703   000067 236000 xsym               LDQ     O1COM+55
        35 045704   000013 036003                    ADLQ    11,DU
        35 045705   000140 756000 0                  STQ     @ITEM$+1
        35 045706   001233 630400 0                  EPPR0   PROC$+147
        35 045707   000137 450400 0                  STP0    NUM+2
        35 045710   003076 701000 35                 TSX1    CHECK_AND_SAVE_ITEM
        35 045711   045721 702000 35                 TSX2    s:41695

  41691 35 045712   000004 235007                    LDA     4,DL
PL6.E3A0      #001=Z8EM$SEMANTICS_DATA_DIV File=Z8EM.:Z8A6TSI                    SAT 08/09/97 12:08 Page:1270
        35 045713   000067 470400 xsym               LDP0    O1COM+55
        35 045714   000001 755100                    STA     1,,PR0

  41692 35 045715   000067 470400 xsym               LDP0    O1COM+55
        35 045716   000023 235100                    LDA     19,,PR0
        35 045717   000001 035007                    ADLA    1,DL
        35 045720   000023 755100                    STA     19,,PR0

  41695 35 045721   056641 710000 35                 TRA     s:45674

     7444    41697
     7445    41698    2      CASE(%ACT_TYPE_DETAIL);

     7446    41699               %SAVE_REPORT_TYPE (@REPORT_TYPE = %TYPE_DETAIL);

  41701 35 045722   000151 236000 xsym               LDQ     O1COM+105
        35 045723   000025 736000                    QLS     21
        35 045724   000631 036000 36                 ADLQ    409
        35 045725   001234 756000 0                  STQ     PROC$+148
        35 045726   001067 236000 36                 LDQ     567
        35 045727   000141 756000 0                  STQ     @FIELD$+1
        35 045730   000067 236000 xsym               LDQ     O1COM+55
        35 045731   000013 036003                    ADLQ    11,DU
        35 045732   000140 756000 0                  STQ     @ITEM$+1
        35 045733   001234 630400 0                  EPPR0   PROC$+148
        35 045734   000137 450400 0                  STP0    NUM+2
        35 045735   003076 701000 35                 TSX1    CHECK_AND_SAVE_ITEM
        35 045736   045746 702000 35                 TSX2    s:41710

  41706 35 045737   000005 235007                    LDA     5,DL
        35 045740   000067 470400 xsym               LDP0    O1COM+55
        35 045741   000001 755100                    STA     1,,PR0

  41707 35 045742   000067 470400 xsym               LDP0    O1COM+55
        35 045743   000023 235100                    LDA     19,,PR0
        35 045744   000001 035007                    ADLA    1,DL
        35 045745   000023 755100                    STA     19,,PR0
PL6.E3A0      #001=Z8EM$SEMANTICS_DATA_DIV File=Z8EM.:Z8A6TSI                    SAT 08/09/97 12:08 Page:1271

  41710 35 045746   056641 710000 35                 TRA     s:45674

     7447    41712
     7448    41713    2      CASE(%ACT_CONTROL_FOOTING);

     7449    41714               %SAVE_REPORT_TYPE (@REPORT_TYPE = %CONTROL_FOOTING);

  41716 35 045747   000151 236000 xsym               LDQ     O1COM+105
        35 045750   000025 736000                    QLS     21
        35 045751   000631 036000 36                 ADLQ    409
        35 045752   001235 756000 0                  STQ     PROC$+149
        35 045753   001067 236000 36                 LDQ     567
        35 045754   000141 756000 0                  STQ     @FIELD$+1
        35 045755   000067 236000 xsym               LDQ     O1COM+55
        35 045756   000013 036003                    ADLQ    11,DU
        35 045757   000140 756000 0                  STQ     @ITEM$+1
        35 045760   001235 630400 0                  EPPR0   PROC$+149
        35 045761   000137 450400 0                  STP0    NUM+2
        35 045762   003076 701000 35                 TSX1    CHECK_AND_SAVE_ITEM
        35 045763   045773 702000 35                 TSX2    s:41725

  41721 35 045764   000006 235007                    LDA     6,DL
        35 045765   000067 470400 xsym               LDP0    O1COM+55
        35 045766   000001 755100                    STA     1,,PR0

  41722 35 045767   000067 470400 xsym               LDP0    O1COM+55
        35 045770   000023 235100                    LDA     19,,PR0
        35 045771   000001 035007                    ADLA    1,DL
        35 045772   000023 755100                    STA     19,,PR0

  41725 35 045773   056641 710000 35                 TRA     s:45674

     7450    41727
     7451    41728    2      CASE(%ACT_CONTROL_FOOTING_FINAL);

     7452    41729               %SAVE_REPORT_TYPE (@REPORT_TYPE = %CONTROL_FOOTING_FINAL);
PL6.E3A0      #001=Z8EM$SEMANTICS_DATA_DIV File=Z8EM.:Z8A6TSI                    SAT 08/09/97 12:08 Page:1272

  41731 35 045774   000151 236000 xsym               LDQ     O1COM+105
        35 045775   000025 736000                    QLS     21
        35 045776   000631 036000 36                 ADLQ    409
        35 045777   001236 756000 0                  STQ     PROC$+150
        35 046000   001067 236000 36                 LDQ     567
        35 046001   000141 756000 0                  STQ     @FIELD$+1
        35 046002   000067 236000 xsym               LDQ     O1COM+55
        35 046003   000013 036003                    ADLQ    11,DU
        35 046004   000140 756000 0                  STQ     @ITEM$+1
        35 046005   001236 630400 0                  EPPR0   PROC$+150
        35 046006   000137 450400 0                  STP0    NUM+2
        35 046007   003076 701000 35                 TSX1    CHECK_AND_SAVE_ITEM
        35 046010   046020 702000 35                 TSX2    s:41740

  41736 35 046011   000007 235007                    LDA     7,DL
        35 046012   000067 470400 xsym               LDP0    O1COM+55
        35 046013   000001 755100                    STA     1,,PR0

  41737 35 046014   000067 470400 xsym               LDP0    O1COM+55
        35 046015   000023 235100                    LDA     19,,PR0
        35 046016   000001 035007                    ADLA    1,DL
        35 046017   000023 755100                    STA     19,,PR0

  41740 35 046020   056641 710000 35                 TRA     s:45674

     7453    41742
     7454    41743    2      CASE(%ACT_TYPE_PAGE_FOOTING);

     7455    41744               %SAVE_REPORT_TYPE (@REPORT_TYPE = %PAGE_FOOTING);

  41746 35 046021   000151 236000 xsym               LDQ     O1COM+105
        35 046022   000025 736000                    QLS     21
        35 046023   000631 036000 36                 ADLQ    409
        35 046024   001237 756000 0                  STQ     PROC$+151
        35 046025   001067 236000 36                 LDQ     567
        35 046026   000141 756000 0                  STQ     @FIELD$+1
PL6.E3A0      #001=Z8EM$SEMANTICS_DATA_DIV File=Z8EM.:Z8A6TSI                    SAT 08/09/97 12:08 Page:1273
        35 046027   000067 236000 xsym               LDQ     O1COM+55
        35 046030   000013 036003                    ADLQ    11,DU
        35 046031   000140 756000 0                  STQ     @ITEM$+1
        35 046032   001237 630400 0                  EPPR0   PROC$+151
        35 046033   000137 450400 0                  STP0    NUM+2
        35 046034   003076 701000 35                 TSX1    CHECK_AND_SAVE_ITEM
        35 046035   046045 702000 35                 TSX2    s:41755

  41751 35 046036   000010 235007                    LDA     8,DL
        35 046037   000067 470400 xsym               LDP0    O1COM+55
        35 046040   000001 755100                    STA     1,,PR0

  41752 35 046041   000067 470400 xsym               LDP0    O1COM+55
        35 046042   000023 235100                    LDA     19,,PR0
        35 046043   000001 035007                    ADLA    1,DL
        35 046044   000023 755100                    STA     19,,PR0

  41755 35 046045   056641 710000 35                 TRA     s:45674

     7456    41757
     7457    41758    2      CASE(%ACT_TYPE_REPORT_FOOTING);

     7458    41759               %SAVE_REPORT_TYPE (@REPORT_TYPE = %REPORT_FOOTING);

  41761 35 046046   000151 236000 xsym               LDQ     O1COM+105
        35 046047   000025 736000                    QLS     21
        35 046050   000631 036000 36                 ADLQ    409
        35 046051   001240 756000 0                  STQ     PROC$+152
        35 046052   001067 236000 36                 LDQ     567
        35 046053   000141 756000 0                  STQ     @FIELD$+1
        35 046054   000067 236000 xsym               LDQ     O1COM+55
        35 046055   000013 036003                    ADLQ    11,DU
        35 046056   000140 756000 0                  STQ     @ITEM$+1
        35 046057   001240 630400 0                  EPPR0   PROC$+152
        35 046060   000137 450400 0                  STP0    NUM+2
        35 046061   003076 701000 35                 TSX1    CHECK_AND_SAVE_ITEM
        35 046062   046072 702000 35                 TSX2    s:41770
PL6.E3A0      #001=Z8EM$SEMANTICS_DATA_DIV File=Z8EM.:Z8A6TSI                    SAT 08/09/97 12:08 Page:1274

  41766 35 046063   000011 235007                    LDA     9,DL
        35 046064   000067 470400 xsym               LDP0    O1COM+55
        35 046065   000001 755100                    STA     1,,PR0

  41767 35 046066   000067 470400 xsym               LDP0    O1COM+55
        35 046067   000023 235100                    LDA     19,,PR0
        35 046070   000001 035007                    ADLA    1,DL
        35 046071   000023 755100                    STA     19,,PR0

  41770 35 046072   056641 710000 35                 TRA     s:45674

     7459    41772
     7460    41773    2      CASE(%ACT_SUM_RESET);

     7461    41774               %NEW_COPY_LX_STK (@FROM = O1COM.LX_TOP, @POINTER = HEAP$);

  41779 35 046073   000670 630400 36                 EPPR0   440
        35 046074   000025 631400 36                 EPPR1   21
        35 046075   000000 701000 xent               TSX1    Z8ED$NEW_HEAP
        35 046076   000000 011000                    NOP     0

  41782 35 046077   000151 235000 xsym               LDA     O1COM+105
        35 046100   000005 735000                    ALS     5
        35 046101   000000 470400 29                 LDP0    HEAP$
        35 046102   000100 100405                    MLR     fill='000'O
        35 046103   014017 000040 xsym               ADSC9   O1COM+6159,A             cn=0,n=32
        35 046104   000000 000040                    ADSC9   0,,PR0                   cn=0,n=32

     7462    41785    2          O1COM.REPORT_DD$ -> LX_REPORT_REC.P.SUM$ -> LX_LIST.TAIL$

  41785 35 046105   000067 470400 xsym               LDP0    O1COM+55
        35 046106   000022 471500                    LDP1    18,,PR0
        35 046107   100001 473500                    LDP3    1,,PR1
        35 046110   000000 236000 29                 LDQ     HEAP$
        35 046111   300004 756100                    STQ     4,,PR3

PL6.E3A0      #001=Z8EM$SEMANTICS_DATA_DIV File=Z8EM.:Z8A6TSI                    SAT 08/09/97 12:08 Page:1275
     7463    41786    2            -> DEFERED_SUM_CLAUSE.SUM_RESET$ = HEAP$;
     7464    41787    2          O1COM.REPORT_DD$ -> LX_REPORT_REC.P.SUM$ -> LX_LIST.TAIL$

  41787 35 046112   000067 470400 xsym               LDP0    O1COM+55
        35 046113   000022 471500                    LDP1    18,,PR0
        35 046114   100001 473500                    LDP3    1,,PR1
        35 046115   200000 236007                    LDQ     65536,DL
        35 046116   300000 256100                    ORSQ    0,,PR3
        35 046117   056641 710000 35                 TRA     s:45674

     7465    41788    2            -> DEFERED_SUM_CLAUSE.B.RESET_ID = TRUE;
     7466    41789
     7467    41790    2      CASE(%ACT_SUM_RESET_FINAL);

     7468    41791               %NEW_COPY_LX_STK (@FROM = O1COM.LX_TOP, @POINTER = HEAP$);

  41796 35 046120   000670 630400 36                 EPPR0   440
        35 046121   000025 631400 36                 EPPR1   21
        35 046122   000000 701000 xent               TSX1    Z8ED$NEW_HEAP
        35 046123   000000 011000                    NOP     0

  41799 35 046124   000151 235000 xsym               LDA     O1COM+105
        35 046125   000005 735000                    ALS     5
        35 046126   000000 470400 29                 LDP0    HEAP$
        35 046127   000100 100405                    MLR     fill='000'O
        35 046130   014017 000040 xsym               ADSC9   O1COM+6159,A             cn=0,n=32
        35 046131   000000 000040                    ADSC9   0,,PR0                   cn=0,n=32

     7469    41802    2          O1COM.REPORT_DD$ -> LX_REPORT_REC.P.SUM$ -> LX_LIST.TAIL$

  41802 35 046132   000067 470400 xsym               LDP0    O1COM+55
        35 046133   000022 471500                    LDP1    18,,PR0
        35 046134   100001 473500                    LDP3    1,,PR1
        35 046135   000000 236000 29                 LDQ     HEAP$
        35 046136   300004 756100                    STQ     4,,PR3

     7470    41803    2            -> DEFERED_SUM_CLAUSE.SUM_RESET$ = HEAP$;
PL6.E3A0      #001=Z8EM$SEMANTICS_DATA_DIV File=Z8EM.:Z8A6TSI                    SAT 08/09/97 12:08 Page:1276
     7471    41804    2          O1COM.REPORT_DD$ -> LX_REPORT_REC.P.SUM$ -> LX_LIST.TAIL$

  41804 35 046137   000067 470400 xsym               LDP0    O1COM+55
        35 046140   000022 471500                    LDP1    18,,PR0
        35 046141   100001 473500                    LDP3    1,,PR1
        35 046142   100000 236007                    LDQ     32768,DL
        35 046143   300000 256100                    ORSQ    0,,PR3
        35 046144   056641 710000 35                 TRA     s:45674

     7472    41805    2            -> DEFERED_SUM_CLAUSE.B.RESET_FINAL = TRUE;
     7473    41806
     7474    41807                       /* Arithmetic expression                     */
     7475    41808
     7476    41809    2      CASE(%ACT_PLUS_OP);

     7477    41810              /* <ARITH_EXPR> + <TERM> */
     7478    41811               %ARITH_EXPR_BINARY_OPERATION(@OP = %OP_PLUS) ;

  41818 35 046145   000005 220003                    LDX0    5,DU
        35 046146   000000 740000 30                 STX0    TEMP_LX_NODE

  41819 35 046147   000000 221003                    LDX1    0,DU
        35 046150   000000 441000 30                 SXL1    TEMP_LX_NODE

  41826 35 046151   000151 236000 xsym               LDQ     O1COM+105
        35 046152   000003 736000                    QLS     3
        35 046153   014014 235006 xsym               LDA     O1COM+6156,QL
        35 046154   000005 755000 30                 STA     TEMP_LX_NODE+5

  41827 35 046155   014015 235006 xsym               LDA     O1COM+6157,QL
        35 046156   000006 755000 30                 STA     TEMP_LX_NODE+6

  41828 35 046157   000024 236000 36                 LDQ     20
        35 046160   000002 756000 30                 STQ     TEMP_LX_NODE+2

  41829 35 046161   000001 756000 30                 STQ     TEMP_LX_NODE+1

PL6.E3A0      #001=Z8EM$SEMANTICS_DATA_DIV File=Z8EM.:Z8A6TSI                    SAT 08/09/97 12:08 Page:1277
  41830 35 046162   000020 235007                    LDA     16,DL
        35 046163   000003 755000 30                 STA     TEMP_LX_NODE+3

  41831 35 046164   000007 756000 30                 STQ     TEMP_LX_NODE+7

  41836 35 046165   000134 235000 xsym               LDA     O1COM+92
        35 046166   000001 735000                    ALS     1
        35 046167   000000 236005 xsym               LDQ     DD_PRODR,AL
        35 046170   777777 376007                    ANQ     -1,DL
        35 046171   001012 756000 0                  STQ     PROC$+2
        35 046172   000151 236000 xsym               LDQ     O1COM+105
        35 046173   001012 136000 0                  SBLQ    PROC$+2
        35 046174   000001 036007                    ADLQ    1,DL
        35 046175   000017 756000 0                  STQ     I
        35 046176   046207 710000 35                 TRA     s:41839+1

  41837 35 046177   000017 235000 0                  LDA     I
        35 046200   000003 735000                    ALS     3
        35 046201   014017 236005 xsym               LDQ     O1COM+6159,AL
        35 046202   400000 316007                    CANQ    -131072,DL
        35 046203   046206 600000 35                 TZE     s:41839

  41838 35 046204   400000 236007                    LDQ     -131072,DL
        35 046205   000000 256000 30                 ORSQ    TEMP_LX_NODE

  41839 35 046206   000017 054000 0                  AOS     I
        35 046207   000017 236000 0                  LDQ     I
        35 046210   000151 116000 xsym               CMPQ    O1COM+105
        35 046211   046177 604400 35                 TMOZ    s:41837

  41848 35 046212   001070 630400 36                 EPPR0   568
        35 046213   000025 631400 36                 EPPR1   21
        35 046214   000000 701000 xent               TSX1    Z8ED$NEW_HEAP
        35 046215   000000 011000                    NOP     0

  41851 35 046216   000151 235000 xsym               LDA     O1COM+105
        35 046217   000005 735000                    ALS     5
PL6.E3A0      #001=Z8EM$SEMANTICS_DATA_DIV File=Z8EM.:Z8A6TSI                    SAT 08/09/97 12:08 Page:1278
        35 046220   000002 470400 30                 LDP0    TEMP_LX_NODE+2
        35 046221   000100 100405                    MLR     fill='000'O
        35 046222   014017 000040 xsym               ADSC9   O1COM+6159,A             cn=0,n=32
        35 046223   000000 000040                    ADSC9   0,,PR0                   cn=0,n=32

  41860 35 046224   001072 630400 36                 EPPR0   570
        35 046225   000025 631400 36                 EPPR1   21
        35 046226   000000 701000 xent               TSX1    Z8ED$NEW_HEAP
        35 046227   000000 011000                    NOP     0

  41863 35 046230   000151 235000 xsym               LDA     O1COM+105
        35 046231   000005 735000                    ALS     5
        35 046232   000001 470400 30                 LDP0    TEMP_LX_NODE+1
        35 046233   000100 100405                    MLR     fill='000'O
        35 046234   013777 000040 xsym               ADSC9   O1COM+6143,A             cn=0,n=32
        35 046235   000000 000040                    ADSC9   0,,PR0                   cn=0,n=32

  41868 35 046236   000134 235000 xsym               LDA     O1COM+92
        35 046237   000001 735000                    ALS     1
        35 046240   000000 236005 xsym               LDQ     DD_PRODR,AL
        35 046241   777777 376007                    ANQ     -1,DL
        35 046242   001012 756000 0                  STQ     PROC$+2
        35 046243   000151 236000 xsym               LDQ     O1COM+105
        35 046244   001012 136000 0                  SBLQ    PROC$+2
        35 046245   000005 736000                    QLS     5
        35 046246   000006 100400                    MLR     fill='000'O
        35 046247   000000 000040 30                 ADSC9   TEMP_LX_NODE             cn=0,n=32
        35 046250   014027 000040 xsym               ADSC9   O1COM+6167,Q             cn=0,n=32

  41871 35 046251   056641 710000 35                 TRA     s:45674

     7479    41873
     7480    41874    2      CASE(%ACT_MINUS_OP);

     7481    41875              /* <ARITH_EXPR> - <TERM> */
     7482    41876               %ARITH_EXPR_BINARY_OPERATION(@OP = %OP_BINARY_MINUS) ;

PL6.E3A0      #001=Z8EM$SEMANTICS_DATA_DIV File=Z8EM.:Z8A6TSI                    SAT 08/09/97 12:08 Page:1279
  41883 35 046252   000005 220003                    LDX0    5,DU
        35 046253   000000 740000 30                 STX0    TEMP_LX_NODE

  41884 35 046254   000000 221003                    LDX1    0,DU
        35 046255   000000 441000 30                 SXL1    TEMP_LX_NODE

  41891 35 046256   000151 236000 xsym               LDQ     O1COM+105
        35 046257   000003 736000                    QLS     3
        35 046260   014014 235006 xsym               LDA     O1COM+6156,QL
        35 046261   000005 755000 30                 STA     TEMP_LX_NODE+5

  41892 35 046262   014015 235006 xsym               LDA     O1COM+6157,QL
        35 046263   000006 755000 30                 STA     TEMP_LX_NODE+6

  41893 35 046264   000024 236000 36                 LDQ     20
        35 046265   000002 756000 30                 STQ     TEMP_LX_NODE+2

  41894 35 046266   000001 756000 30                 STQ     TEMP_LX_NODE+1

  41895 35 046267   000021 235007                    LDA     17,DL
        35 046270   000003 755000 30                 STA     TEMP_LX_NODE+3

  41896 35 046271   000007 756000 30                 STQ     TEMP_LX_NODE+7

  41901 35 046272   000134 235000 xsym               LDA     O1COM+92
        35 046273   000001 735000                    ALS     1
        35 046274   000000 236005 xsym               LDQ     DD_PRODR,AL
        35 046275   777777 376007                    ANQ     -1,DL
        35 046276   001012 756000 0                  STQ     PROC$+2
        35 046277   000151 236000 xsym               LDQ     O1COM+105
        35 046300   001012 136000 0                  SBLQ    PROC$+2
        35 046301   000001 036007                    ADLQ    1,DL
        35 046302   000017 756000 0                  STQ     I
        35 046303   046314 710000 35                 TRA     s:41904+1

  41902 35 046304   000017 235000 0                  LDA     I
        35 046305   000003 735000                    ALS     3
PL6.E3A0      #001=Z8EM$SEMANTICS_DATA_DIV File=Z8EM.:Z8A6TSI                    SAT 08/09/97 12:08 Page:1280
        35 046306   014017 236005 xsym               LDQ     O1COM+6159,AL
        35 046307   400000 316007                    CANQ    -131072,DL
        35 046310   046313 600000 35                 TZE     s:41904

  41903 35 046311   400000 236007                    LDQ     -131072,DL
        35 046312   000000 256000 30                 ORSQ    TEMP_LX_NODE

  41904 35 046313   000017 054000 0                  AOS     I
        35 046314   000017 236000 0                  LDQ     I
        35 046315   000151 116000 xsym               CMPQ    O1COM+105
        35 046316   046304 604400 35                 TMOZ    s:41902

  41913 35 046317   001070 630400 36                 EPPR0   568
        35 046320   000025 631400 36                 EPPR1   21
        35 046321   000000 701000 xent               TSX1    Z8ED$NEW_HEAP
        35 046322   000000 011000                    NOP     0

  41916 35 046323   000151 235000 xsym               LDA     O1COM+105
        35 046324   000005 735000                    ALS     5
        35 046325   000002 470400 30                 LDP0    TEMP_LX_NODE+2
        35 046326   000100 100405                    MLR     fill='000'O
        35 046327   014017 000040 xsym               ADSC9   O1COM+6159,A             cn=0,n=32
        35 046330   000000 000040                    ADSC9   0,,PR0                   cn=0,n=32

  41925 35 046331   001072 630400 36                 EPPR0   570
        35 046332   000025 631400 36                 EPPR1   21
        35 046333   000000 701000 xent               TSX1    Z8ED$NEW_HEAP
        35 046334   000000 011000                    NOP     0

  41928 35 046335   000151 235000 xsym               LDA     O1COM+105
        35 046336   000005 735000                    ALS     5
        35 046337   000001 470400 30                 LDP0    TEMP_LX_NODE+1
        35 046340   000100 100405                    MLR     fill='000'O
        35 046341   013777 000040 xsym               ADSC9   O1COM+6143,A             cn=0,n=32
        35 046342   000000 000040                    ADSC9   0,,PR0                   cn=0,n=32

  41933 35 046343   000134 235000 xsym               LDA     O1COM+92
PL6.E3A0      #001=Z8EM$SEMANTICS_DATA_DIV File=Z8EM.:Z8A6TSI                    SAT 08/09/97 12:08 Page:1281
        35 046344   000001 735000                    ALS     1
        35 046345   000000 236005 xsym               LDQ     DD_PRODR,AL
        35 046346   777777 376007                    ANQ     -1,DL
        35 046347   001012 756000 0                  STQ     PROC$+2
        35 046350   000151 236000 xsym               LDQ     O1COM+105
        35 046351   001012 136000 0                  SBLQ    PROC$+2
        35 046352   000005 736000                    QLS     5
        35 046353   000006 100400                    MLR     fill='000'O
        35 046354   000000 000040 30                 ADSC9   TEMP_LX_NODE             cn=0,n=32
        35 046355   014027 000040 xsym               ADSC9   O1COM+6167,Q             cn=0,n=32

  41936 35 046356   056641 710000 35                 TRA     s:45674

     7483    41938
     7484    41939    2      CASE(%ACT_MULT_OP);

     7485    41940              /* <TERM> * <PWR> */
     7486    41941               %ARITH_EXPR_BINARY_OPERATION(@OP = %OP_STAR) ;

  41948 35 046357   000005 220003                    LDX0    5,DU
        35 046360   000000 740000 30                 STX0    TEMP_LX_NODE

  41949 35 046361   000000 221003                    LDX1    0,DU
        35 046362   000000 441000 30                 SXL1    TEMP_LX_NODE

  41956 35 046363   000151 236000 xsym               LDQ     O1COM+105
        35 046364   000003 736000                    QLS     3
        35 046365   014014 235006 xsym               LDA     O1COM+6156,QL
        35 046366   000005 755000 30                 STA     TEMP_LX_NODE+5

  41957 35 046367   014015 235006 xsym               LDA     O1COM+6157,QL
        35 046370   000006 755000 30                 STA     TEMP_LX_NODE+6

  41958 35 046371   000024 236000 36                 LDQ     20
        35 046372   000002 756000 30                 STQ     TEMP_LX_NODE+2

  41959 35 046373   000001 756000 30                 STQ     TEMP_LX_NODE+1
PL6.E3A0      #001=Z8EM$SEMANTICS_DATA_DIV File=Z8EM.:Z8A6TSI                    SAT 08/09/97 12:08 Page:1282

  41960 35 046374   000022 235007                    LDA     18,DL
        35 046375   000003 755000 30                 STA     TEMP_LX_NODE+3

  41961 35 046376   000007 756000 30                 STQ     TEMP_LX_NODE+7

  41966 35 046377   000134 235000 xsym               LDA     O1COM+92
        35 046400   000001 735000                    ALS     1
        35 046401   000000 236005 xsym               LDQ     DD_PRODR,AL
        35 046402   777777 376007                    ANQ     -1,DL
        35 046403   001012 756000 0                  STQ     PROC$+2
        35 046404   000151 236000 xsym               LDQ     O1COM+105
        35 046405   001012 136000 0                  SBLQ    PROC$+2
        35 046406   000001 036007                    ADLQ    1,DL
        35 046407   000017 756000 0                  STQ     I
        35 046410   046421 710000 35                 TRA     s:41969+1

  41967 35 046411   000017 235000 0                  LDA     I
        35 046412   000003 735000                    ALS     3
        35 046413   014017 236005 xsym               LDQ     O1COM+6159,AL
        35 046414   400000 316007                    CANQ    -131072,DL
        35 046415   046420 600000 35                 TZE     s:41969

  41968 35 046416   400000 236007                    LDQ     -131072,DL
        35 046417   000000 256000 30                 ORSQ    TEMP_LX_NODE

  41969 35 046420   000017 054000 0                  AOS     I
        35 046421   000017 236000 0                  LDQ     I
        35 046422   000151 116000 xsym               CMPQ    O1COM+105
        35 046423   046411 604400 35                 TMOZ    s:41967

  41978 35 046424   001070 630400 36                 EPPR0   568
        35 046425   000025 631400 36                 EPPR1   21
        35 046426   000000 701000 xent               TSX1    Z8ED$NEW_HEAP
        35 046427   000000 011000                    NOP     0

  41981 35 046430   000151 235000 xsym               LDA     O1COM+105
PL6.E3A0      #001=Z8EM$SEMANTICS_DATA_DIV File=Z8EM.:Z8A6TSI                    SAT 08/09/97 12:08 Page:1283
        35 046431   000005 735000                    ALS     5
        35 046432   000002 470400 30                 LDP0    TEMP_LX_NODE+2
        35 046433   000100 100405                    MLR     fill='000'O
        35 046434   014017 000040 xsym               ADSC9   O1COM+6159,A             cn=0,n=32
        35 046435   000000 000040                    ADSC9   0,,PR0                   cn=0,n=32

  41990 35 046436   001072 630400 36                 EPPR0   570
        35 046437   000025 631400 36                 EPPR1   21
        35 046440   000000 701000 xent               TSX1    Z8ED$NEW_HEAP
        35 046441   000000 011000                    NOP     0

  41993 35 046442   000151 235000 xsym               LDA     O1COM+105
        35 046443   000005 735000                    ALS     5
        35 046444   000001 470400 30                 LDP0    TEMP_LX_NODE+1
        35 046445   000100 100405                    MLR     fill='000'O
        35 046446   013777 000040 xsym               ADSC9   O1COM+6143,A             cn=0,n=32
        35 046447   000000 000040                    ADSC9   0,,PR0                   cn=0,n=32

  41998 35 046450   000134 235000 xsym               LDA     O1COM+92
        35 046451   000001 735000                    ALS     1
        35 046452   000000 236005 xsym               LDQ     DD_PRODR,AL
        35 046453   777777 376007                    ANQ     -1,DL
        35 046454   001012 756000 0                  STQ     PROC$+2
        35 046455   000151 236000 xsym               LDQ     O1COM+105
        35 046456   001012 136000 0                  SBLQ    PROC$+2
        35 046457   000005 736000                    QLS     5
        35 046460   000006 100400                    MLR     fill='000'O
        35 046461   000000 000040 30                 ADSC9   TEMP_LX_NODE             cn=0,n=32
        35 046462   014027 000040 xsym               ADSC9   O1COM+6167,Q             cn=0,n=32

  42001 35 046463   056641 710000 35                 TRA     s:45674

     7487    42003
     7488    42004    2      CASE(%ACT_DIV_OP);

     7489    42005              /* <TERM> / <PWR> */
     7490    42006               %ARITH_EXPR_BINARY_OPERATION(@OP = %OP_SLASH) ;
PL6.E3A0      #001=Z8EM$SEMANTICS_DATA_DIV File=Z8EM.:Z8A6TSI                    SAT 08/09/97 12:08 Page:1284

  42013 35 046464   000005 220003                    LDX0    5,DU
        35 046465   000000 740000 30                 STX0    TEMP_LX_NODE

  42014 35 046466   000000 221003                    LDX1    0,DU
        35 046467   000000 441000 30                 SXL1    TEMP_LX_NODE

  42021 35 046470   000151 236000 xsym               LDQ     O1COM+105
        35 046471   000003 736000                    QLS     3
        35 046472   014014 235006 xsym               LDA     O1COM+6156,QL
        35 046473   000005 755000 30                 STA     TEMP_LX_NODE+5

  42022 35 046474   014015 235006 xsym               LDA     O1COM+6157,QL
        35 046475   000006 755000 30                 STA     TEMP_LX_NODE+6

  42023 35 046476   000024 236000 36                 LDQ     20
        35 046477   000002 756000 30                 STQ     TEMP_LX_NODE+2

  42024 35 046500   000001 756000 30                 STQ     TEMP_LX_NODE+1

  42025 35 046501   000023 235007                    LDA     19,DL
        35 046502   000003 755000 30                 STA     TEMP_LX_NODE+3

  42026 35 046503   000007 756000 30                 STQ     TEMP_LX_NODE+7

  42031 35 046504   000134 235000 xsym               LDA     O1COM+92
        35 046505   000001 735000                    ALS     1
        35 046506   000000 236005 xsym               LDQ     DD_PRODR,AL
        35 046507   777777 376007                    ANQ     -1,DL
        35 046510   001012 756000 0                  STQ     PROC$+2
        35 046511   000151 236000 xsym               LDQ     O1COM+105
        35 046512   001012 136000 0                  SBLQ    PROC$+2
        35 046513   000001 036007                    ADLQ    1,DL
        35 046514   000017 756000 0                  STQ     I
        35 046515   046526 710000 35                 TRA     s:42034+1

  42032 35 046516   000017 235000 0                  LDA     I
PL6.E3A0      #001=Z8EM$SEMANTICS_DATA_DIV File=Z8EM.:Z8A6TSI                    SAT 08/09/97 12:08 Page:1285
        35 046517   000003 735000                    ALS     3
        35 046520   014017 236005 xsym               LDQ     O1COM+6159,AL
        35 046521   400000 316007                    CANQ    -131072,DL
        35 046522   046525 600000 35                 TZE     s:42034

  42033 35 046523   400000 236007                    LDQ     -131072,DL
        35 046524   000000 256000 30                 ORSQ    TEMP_LX_NODE

  42034 35 046525   000017 054000 0                  AOS     I
        35 046526   000017 236000 0                  LDQ     I
        35 046527   000151 116000 xsym               CMPQ    O1COM+105
        35 046530   046516 604400 35                 TMOZ    s:42032

  42043 35 046531   001070 630400 36                 EPPR0   568
        35 046532   000025 631400 36                 EPPR1   21
        35 046533   000000 701000 xent               TSX1    Z8ED$NEW_HEAP
        35 046534   000000 011000                    NOP     0

  42046 35 046535   000151 235000 xsym               LDA     O1COM+105
        35 046536   000005 735000                    ALS     5
        35 046537   000002 470400 30                 LDP0    TEMP_LX_NODE+2
        35 046540   000100 100405                    MLR     fill='000'O
        35 046541   014017 000040 xsym               ADSC9   O1COM+6159,A             cn=0,n=32
        35 046542   000000 000040                    ADSC9   0,,PR0                   cn=0,n=32

  42055 35 046543   001072 630400 36                 EPPR0   570
        35 046544   000025 631400 36                 EPPR1   21
        35 046545   000000 701000 xent               TSX1    Z8ED$NEW_HEAP
        35 046546   000000 011000                    NOP     0

  42058 35 046547   000151 235000 xsym               LDA     O1COM+105
        35 046550   000005 735000                    ALS     5
        35 046551   000001 470400 30                 LDP0    TEMP_LX_NODE+1
        35 046552   000100 100405                    MLR     fill='000'O
        35 046553   013777 000040 xsym               ADSC9   O1COM+6143,A             cn=0,n=32
        35 046554   000000 000040                    ADSC9   0,,PR0                   cn=0,n=32

PL6.E3A0      #001=Z8EM$SEMANTICS_DATA_DIV File=Z8EM.:Z8A6TSI                    SAT 08/09/97 12:08 Page:1286
  42063 35 046555   000134 235000 xsym               LDA     O1COM+92
        35 046556   000001 735000                    ALS     1
        35 046557   000000 236005 xsym               LDQ     DD_PRODR,AL
        35 046560   777777 376007                    ANQ     -1,DL
        35 046561   001012 756000 0                  STQ     PROC$+2
        35 046562   000151 236000 xsym               LDQ     O1COM+105
        35 046563   001012 136000 0                  SBLQ    PROC$+2
        35 046564   000005 736000                    QLS     5
        35 046565   000006 100400                    MLR     fill='000'O
        35 046566   000000 000040 30                 ADSC9   TEMP_LX_NODE             cn=0,n=32
        35 046567   014027 000040 xsym               ADSC9   O1COM+6167,Q             cn=0,n=32

  42066 35 046570   056641 710000 35                 TRA     s:45674

     7491    42068
     7492    42069
     7493    42070    2      CASE(%ACT_EXP_OP);

     7494    42071              /* <PWR> '**' <UNARY> */
     7495    42072               %ARITH_EXPR_BINARY_OPERATION(@OP = %OP_STAR_STAR) ;

  42079 35 046571   000005 220003                    LDX0    5,DU
        35 046572   000000 740000 30                 STX0    TEMP_LX_NODE

  42080 35 046573   000000 221003                    LDX1    0,DU
        35 046574   000000 441000 30                 SXL1    TEMP_LX_NODE

  42087 35 046575   000151 236000 xsym               LDQ     O1COM+105
        35 046576   000003 736000                    QLS     3
        35 046577   014014 235006 xsym               LDA     O1COM+6156,QL
        35 046600   000005 755000 30                 STA     TEMP_LX_NODE+5

  42088 35 046601   014015 235006 xsym               LDA     O1COM+6157,QL
        35 046602   000006 755000 30                 STA     TEMP_LX_NODE+6

  42089 35 046603   000024 236000 36                 LDQ     20
        35 046604   000002 756000 30                 STQ     TEMP_LX_NODE+2
PL6.E3A0      #001=Z8EM$SEMANTICS_DATA_DIV File=Z8EM.:Z8A6TSI                    SAT 08/09/97 12:08 Page:1287

  42090 35 046605   000001 756000 30                 STQ     TEMP_LX_NODE+1

  42091 35 046606   000024 235007                    LDA     20,DL
        35 046607   000003 755000 30                 STA     TEMP_LX_NODE+3

  42092 35 046610   000007 756000 30                 STQ     TEMP_LX_NODE+7

  42097 35 046611   000134 235000 xsym               LDA     O1COM+92
        35 046612   000001 735000                    ALS     1
        35 046613   000000 236005 xsym               LDQ     DD_PRODR,AL
        35 046614   777777 376007                    ANQ     -1,DL
        35 046615   001012 756000 0                  STQ     PROC$+2
        35 046616   000151 236000 xsym               LDQ     O1COM+105
        35 046617   001012 136000 0                  SBLQ    PROC$+2
        35 046620   000001 036007                    ADLQ    1,DL
        35 046621   000017 756000 0                  STQ     I
        35 046622   046633 710000 35                 TRA     s:42100+1

  42098 35 046623   000017 235000 0                  LDA     I
        35 046624   000003 735000                    ALS     3
        35 046625   014017 236005 xsym               LDQ     O1COM+6159,AL
        35 046626   400000 316007                    CANQ    -131072,DL
        35 046627   046632 600000 35                 TZE     s:42100

  42099 35 046630   400000 236007                    LDQ     -131072,DL
        35 046631   000000 256000 30                 ORSQ    TEMP_LX_NODE

  42100 35 046632   000017 054000 0                  AOS     I
        35 046633   000017 236000 0                  LDQ     I
        35 046634   000151 116000 xsym               CMPQ    O1COM+105
        35 046635   046623 604400 35                 TMOZ    s:42098

  42109 35 046636   001070 630400 36                 EPPR0   568
        35 046637   000025 631400 36                 EPPR1   21
        35 046640   000000 701000 xent               TSX1    Z8ED$NEW_HEAP
        35 046641   000000 011000                    NOP     0
PL6.E3A0      #001=Z8EM$SEMANTICS_DATA_DIV File=Z8EM.:Z8A6TSI                    SAT 08/09/97 12:08 Page:1288

  42112 35 046642   000151 235000 xsym               LDA     O1COM+105
        35 046643   000005 735000                    ALS     5
        35 046644   000002 470400 30                 LDP0    TEMP_LX_NODE+2
        35 046645   000100 100405                    MLR     fill='000'O
        35 046646   014017 000040 xsym               ADSC9   O1COM+6159,A             cn=0,n=32
        35 046647   000000 000040                    ADSC9   0,,PR0                   cn=0,n=32

  42121 35 046650   001072 630400 36                 EPPR0   570
        35 046651   000025 631400 36                 EPPR1   21
        35 046652   000000 701000 xent               TSX1    Z8ED$NEW_HEAP
        35 046653   000000 011000                    NOP     0

  42124 35 046654   000151 235000 xsym               LDA     O1COM+105
        35 046655   000005 735000                    ALS     5
        35 046656   000001 470400 30                 LDP0    TEMP_LX_NODE+1
        35 046657   000100 100405                    MLR     fill='000'O
        35 046660   013777 000040 xsym               ADSC9   O1COM+6143,A             cn=0,n=32
        35 046661   000000 000040                    ADSC9   0,,PR0                   cn=0,n=32

  42129 35 046662   000134 235000 xsym               LDA     O1COM+92
        35 046663   000001 735000                    ALS     1
        35 046664   000000 236005 xsym               LDQ     DD_PRODR,AL
        35 046665   777777 376007                    ANQ     -1,DL
        35 046666   001012 756000 0                  STQ     PROC$+2
        35 046667   000151 236000 xsym               LDQ     O1COM+105
        35 046670   001012 136000 0                  SBLQ    PROC$+2
        35 046671   000005 736000                    QLS     5
        35 046672   000006 100400                    MLR     fill='000'O
        35 046673   000000 000040 30                 ADSC9   TEMP_LX_NODE             cn=0,n=32
        35 046674   014027 000040 xsym               ADSC9   O1COM+6167,Q             cn=0,n=32

  42132 35 046675   056641 710000 35                 TRA     s:45674

     7496    42134
     7497    42135    2      CASE(%ACT_PAREN_EXPR);

PL6.E3A0      #001=Z8EM$SEMANTICS_DATA_DIV File=Z8EM.:Z8A6TSI                    SAT 08/09/97 12:08 Page:1289
     7498    42136              /* ( EXPR ) */
     7499    42137            %INIT_UNARY_OP (@POINTER = "ADDR(TEMP_LX_NODE)",
     7500    42138                            @LINE = "O1COM.LX_STK.LINE(O1COM.LX_TOP - 2)",
     7501    42139                            @COLUMN = "O1COM.LX_STK.COLUMN(O1COM.LX_TOP - 2)",
     7502    42140                            @OP = %OP_PAREN);

  42142 35 046676   000006 220003                    LDX0    6,DU
        35 046677   000000 740000 30                 STX0    TEMP_LX_NODE

  42143 35 046700   000000 221003                    LDX1    0,DU
        35 046701   000000 441000 30                 SXL1    TEMP_LX_NODE

  42150 35 046702   000151 236000 xsym               LDQ     O1COM+105
        35 046703   000003 736000                    QLS     3
        35 046704   014004 235006 xsym               LDA     O1COM+6148,QL
        35 046705   000005 755000 30                 STA     TEMP_LX_NODE+5

  42151 35 046706   014005 235006 xsym               LDA     O1COM+6149,QL
        35 046707   000006 755000 30                 STA     TEMP_LX_NODE+6

  42152 35 046710   000024 236000 36                 LDQ     20
        35 046711   000001 756000 30                 STQ     TEMP_LX_NODE+1

  42153 35 046712   000002 235007                    LDA     2,DL
        35 046713   000003 755000 30                 STA     TEMP_LX_NODE+3

  42154 35 046714   000007 756000 30                 STQ     TEMP_LX_NODE+7

     7503    42157            %PROP_ERR_TEMP_LX_NODE;

  42159 35 046715   000134 235000 xsym               LDA     O1COM+92
        35 046716   000001 735000                    ALS     1
        35 046717   000000 236005 xsym               LDQ     DD_PRODR,AL
        35 046720   777777 376007                    ANQ     -1,DL
        35 046721   001012 756000 0                  STQ     PROC$+2
        35 046722   000151 236000 xsym               LDQ     O1COM+105
        35 046723   001012 136000 0                  SBLQ    PROC$+2
PL6.E3A0      #001=Z8EM$SEMANTICS_DATA_DIV File=Z8EM.:Z8A6TSI                    SAT 08/09/97 12:08 Page:1290
        35 046724   000001 036007                    ADLQ    1,DL
        35 046725   000017 756000 0                  STQ     I
        35 046726   046737 710000 35                 TRA     s:42162+1

  42160 35 046727   000017 235000 0                  LDA     I
        35 046730   000003 735000                    ALS     3
        35 046731   014017 236005 xsym               LDQ     O1COM+6159,AL
        35 046732   400000 316007                    CANQ    -131072,DL
        35 046733   046736 600000 35                 TZE     s:42162

  42161 35 046734   400000 236007                    LDQ     -131072,DL
        35 046735   000000 256000 30                 ORSQ    TEMP_LX_NODE

  42162 35 046736   000017 054000 0                  AOS     I
        35 046737   000017 236000 0                  LDQ     I
        35 046740   000151 116000 xsym               CMPQ    O1COM+105
        35 046741   046727 604400 35                 TMOZ    s:42160

     7504    42165            %NEW_COPY_LX_STK(@FROM= "O1COM.LX_TOP - 1",
     7505    42166                             @POINTER = "ADDR(TEMP_LX_NODE) -> UNARY_OP.LOP$");

  42171 35 046742   001072 630400 36                 EPPR0   570
        35 046743   000025 631400 36                 EPPR1   21
        35 046744   000000 701000 xent               TSX1    Z8ED$NEW_HEAP
        35 046745   000000 011000                    NOP     0

  42174 35 046746   000151 235000 xsym               LDA     O1COM+105
        35 046747   000005 735000                    ALS     5
        35 046750   000001 470400 30                 LDP0    TEMP_LX_NODE+1
        35 046751   000100 100405                    MLR     fill='000'O
        35 046752   014007 000040 xsym               ADSC9   O1COM+6151,A             cn=0,n=32
        35 046753   000000 000040                    ADSC9   0,,PR0                   cn=0,n=32

     7506    42177            %PROPAGATE_TEMP_LX_NODE;

  42179 35 046754   000134 235000 xsym               LDA     O1COM+92
        35 046755   000001 735000                    ALS     1
PL6.E3A0      #001=Z8EM$SEMANTICS_DATA_DIV File=Z8EM.:Z8A6TSI                    SAT 08/09/97 12:08 Page:1291
        35 046756   000000 236005 xsym               LDQ     DD_PRODR,AL
        35 046757   777777 376007                    ANQ     -1,DL
        35 046760   001012 756000 0                  STQ     PROC$+2
        35 046761   000151 236000 xsym               LDQ     O1COM+105
        35 046762   001012 136000 0                  SBLQ    PROC$+2
        35 046763   000005 736000                    QLS     5
        35 046764   000006 100400                    MLR     fill='000'O
        35 046765   000000 000040 30                 ADSC9   TEMP_LX_NODE             cn=0,n=32
        35 046766   014027 000040 xsym               ADSC9   O1COM+6167,Q             cn=0,n=32

  42180 35 046767   056641 710000 35                 TRA     s:45674

     7507    42182
     7508    42183        %EJECT ;
PL6.E3A0      #001=Z8EM$SEMANTICS_DATA_DIV File=Z8EM.:Z8A6TSI                    SAT 08/09/97 12:08 Page:1292
     7509    42184                   /*        UNARY PLUS AND MINUS                      */
     7510    42185
     7511    42186    2      CASE(%ACT_PLUS_FACTOR);

     7512    42187              /* + <FACTOR> */
     7513    42188               %PROPAGATE (@FROM = O1COM.LX_TOP);

  42190 35 046770   000134 236000 xsym               LDQ     O1COM+92
        35 046771   000001 736000                    QLS     1
        35 046772   000000 236006 xsym               LDQ     DD_PRODR,QL
        35 046773   777777 376007                    ANQ     -1,DL
        35 046774   001012 756000 0                  STQ     PROC$+2
        35 046775   000151 236000 xsym               LDQ     O1COM+105
        35 046776   001012 136000 0                  SBLQ    PROC$+2
        35 046777   000151 235000 xsym               LDA     O1COM+105
        35 047000   000005 735000                    ALS     5
        35 047001   000005 736000                    QLS     5
        35 047002   000006 100405                    MLR     fill='000'O
        35 047003   014017 000040 xsym               ADSC9   O1COM+6159,A             cn=0,n=32
        35 047004   014027 000040 xsym               ADSC9   O1COM+6167,Q             cn=0,n=32

  42191 35 047005   056641 710000 35                 TRA     s:45674

     7514    42193
     7515    42194
     7516    42195    2      CASE(%ACT_MINUS_FACTOR);

     7517    42196              /* - <FACTOR> */
     7518    42197               %ARITH_EXPR_UNARY_OPERATION (@OP = %OP_UNARY_MINUS);

  42204 35 047006   000006 220003                    LDX0    6,DU
        35 047007   000000 740000 30                 STX0    TEMP_LX_NODE

  42205 35 047010   000000 221003                    LDX1    0,DU
        35 047011   000000 441000 30                 SXL1    TEMP_LX_NODE

  42212 35 047012   000151 236000 xsym               LDQ     O1COM+105
PL6.E3A0      #001=Z8EM$SEMANTICS_DATA_DIV File=Z8EM.:Z8A6TSI                    SAT 08/09/97 12:08 Page:1293
        35 047013   000003 736000                    QLS     3
        35 047014   014014 235006 xsym               LDA     O1COM+6156,QL
        35 047015   000005 755000 30                 STA     TEMP_LX_NODE+5

  42213 35 047016   014015 235006 xsym               LDA     O1COM+6157,QL
        35 047017   000006 755000 30                 STA     TEMP_LX_NODE+6

  42214 35 047020   000024 236000 36                 LDQ     20
        35 047021   000001 756000 30                 STQ     TEMP_LX_NODE+1

  42215 35 047022   000001 235007                    LDA     1,DL
        35 047023   000003 755000 30                 STA     TEMP_LX_NODE+3

  42216 35 047024   000007 756000 30                 STQ     TEMP_LX_NODE+7

  42221 35 047025   000134 235000 xsym               LDA     O1COM+92
        35 047026   000001 735000                    ALS     1
        35 047027   000000 236005 xsym               LDQ     DD_PRODR,AL
        35 047030   777777 376007                    ANQ     -1,DL
        35 047031   001012 756000 0                  STQ     PROC$+2
        35 047032   000151 236000 xsym               LDQ     O1COM+105
        35 047033   001012 136000 0                  SBLQ    PROC$+2
        35 047034   000001 036007                    ADLQ    1,DL
        35 047035   000017 756000 0                  STQ     I
        35 047036   047047 710000 35                 TRA     s:42224+1

  42222 35 047037   000017 235000 0                  LDA     I
        35 047040   000003 735000                    ALS     3
        35 047041   014017 236005 xsym               LDQ     O1COM+6159,AL
        35 047042   400000 316007                    CANQ    -131072,DL
        35 047043   047046 600000 35                 TZE     s:42224

  42223 35 047044   400000 236007                    LDQ     -131072,DL
        35 047045   000000 256000 30                 ORSQ    TEMP_LX_NODE

  42224 35 047046   000017 054000 0                  AOS     I
        35 047047   000017 236000 0                  LDQ     I
PL6.E3A0      #001=Z8EM$SEMANTICS_DATA_DIV File=Z8EM.:Z8A6TSI                    SAT 08/09/97 12:08 Page:1294
        35 047050   000151 116000 xsym               CMPQ    O1COM+105
        35 047051   047037 604400 35                 TMOZ    s:42222

  42233 35 047052   001072 630400 36                 EPPR0   570
        35 047053   000025 631400 36                 EPPR1   21
        35 047054   000000 701000 xent               TSX1    Z8ED$NEW_HEAP
        35 047055   000000 011000                    NOP     0

  42236 35 047056   000151 235000 xsym               LDA     O1COM+105
        35 047057   000005 735000                    ALS     5
        35 047060   000001 470400 30                 LDP0    TEMP_LX_NODE+1
        35 047061   000100 100405                    MLR     fill='000'O
        35 047062   014017 000040 xsym               ADSC9   O1COM+6159,A             cn=0,n=32
        35 047063   000000 000040                    ADSC9   0,,PR0                   cn=0,n=32

  42241 35 047064   000134 235000 xsym               LDA     O1COM+92
        35 047065   000001 735000                    ALS     1
        35 047066   000000 236005 xsym               LDQ     DD_PRODR,AL
        35 047067   777777 376007                    ANQ     -1,DL
        35 047070   001012 756000 0                  STQ     PROC$+2
        35 047071   000151 236000 xsym               LDQ     O1COM+105
        35 047072   001012 136000 0                  SBLQ    PROC$+2
        35 047073   000005 736000                    QLS     5
        35 047074   000006 100400                    MLR     fill='000'O
        35 047075   000000 000040 30                 ADSC9   TEMP_LX_NODE             cn=0,n=32
        35 047076   014027 000040 xsym               ADSC9   O1COM+6167,Q             cn=0,n=32

  42244 35 047077   056641 710000 35                 TRA     s:45674

     7519    42246
     7520    42247        %EJECT ;
PL6.E3A0      #001=Z8EM$SEMANTICS_DATA_DIV File=Z8EM.:Z8A6TSI                    SAT 08/09/97 12:08 Page:1295
     7521    42248    2      CASE(%ACT_ID);

     7522    42249               %NEW_COPY_ID_TREE (@QUAL_ID$ = "O1COM.LX_TOP",
     7523    42250                                  @ACTION#  = %REP_ACT_ID);

  42255 35 047100   000033 220003                    LDX0    27,DU
        35 047101   000000 740000 30                 STX0    TEMP_LX_NODE

  42256 35 047102   000024 236000 36                 LDQ     20
        35 047103   000001 756000 30                 STQ     TEMP_LX_NODE+1

  42257 35 047104   000002 756000 30                 STQ     TEMP_LX_NODE+2

  42258 35 047105   000003 756000 30                 STQ     TEMP_LX_NODE+3

  42259 35 047106   000006 756000 30                 STQ     TEMP_LX_NODE+6

  42260 35 047107   000005 450000 30                 STZ     TEMP_LX_NODE+5

  42261 35 047110   000004 450000 30                 STZ     TEMP_LX_NODE+4

  42270 35 047111   001072 630400 36                 EPPR0   570
        35 047112   000025 631400 36                 EPPR1   21
        35 047113   000000 701000 xent               TSX1    Z8ED$NEW_HEAP
        35 047114   000000 011000                    NOP     0

  42273 35 047115   000151 235000 xsym               LDA     O1COM+105
        35 047116   000005 735000                    ALS     5
        35 047117   000001 470400 30                 LDP0    TEMP_LX_NODE+1
        35 047120   000100 100405                    MLR     fill='000'O
        35 047121   014017 000040 xsym               ADSC9   O1COM+6159,A             cn=0,n=32
        35 047122   000000 000040                    ADSC9   0,,PR0                   cn=0,n=32

  42290 35 047123   000670 630400 36                 EPPR0   440
        35 047124   000025 631400 36                 EPPR1   21
        35 047125   000000 701000 xent               TSX1    Z8ED$NEW_HEAP
        35 047126   000000 011000                    NOP     0
PL6.E3A0      #001=Z8EM$SEMANTICS_DATA_DIV File=Z8EM.:Z8A6TSI                    SAT 08/09/97 12:08 Page:1296

  42293 35 047127   000000 470400 29                 LDP0    HEAP$
        35 047130   000100 100400                    MLR     fill='000'O
        35 047131   000000 000040 30                 ADSC9   TEMP_LX_NODE             cn=0,n=32
        35 047132   000000 000040                    ADSC9   0,,PR0                   cn=0,n=32

  42294 35 047133   000024 236000 36                 LDQ     20
        35 047134   000000 470400 29                 LDP0    HEAP$
        35 047135   000007 756100                    STQ     7,,PR0

  42299 35 047136   000001 220003                    LDX0    1,DU
        35 047137   000000 740000 30                 STX0    TEMP_LX_NODE

  42300 35 047140   000024 236000 36                 LDQ     20
        35 047141   000001 756000 30                 STQ     TEMP_LX_NODE+1

  42301 35 047142   000007 756000 30                 STQ     TEMP_LX_NODE+7

  42304 35 047143   000000 236000 29                 LDQ     HEAP$
        35 047144   000001 756000 30                 STQ     TEMP_LX_NODE+1

  42307 35 047145   000134 235000 xsym               LDA     O1COM+92
        35 047146   000001 735000                    ALS     1
        35 047147   000000 236005 xsym               LDQ     DD_PRODR,AL
        35 047150   777777 376007                    ANQ     -1,DL
        35 047151   001012 756000 0                  STQ     PROC$+2
        35 047152   000151 236000 xsym               LDQ     O1COM+105
        35 047153   001012 136000 0                  SBLQ    PROC$+2
        35 047154   000005 736000                    QLS     5
        35 047155   000006 100400                    MLR     fill='000'O
        35 047156   000000 000040 30                 ADSC9   TEMP_LX_NODE             cn=0,n=32
        35 047157   014027 000040 xsym               ADSC9   O1COM+6167,Q             cn=0,n=32

  42310 35 047160   056641 710000 35                 TRA     s:45674

     7524    42312
     7525    42313    2      CASE(%ACT_ID_REF);
PL6.E3A0      #001=Z8EM$SEMANTICS_DATA_DIV File=Z8EM.:Z8A6TSI                    SAT 08/09/97 12:08 Page:1297

     7526    42314                %NEW_COPY_ID_TREE (@QUAL_ID$ = "O1COM.LX_TOP - 1",
     7527    42315                                   @REF$     = "O1COM.LX_TOP",
     7528    42316                                   @ACTION#  = %REP_ACT_ID_REF);

  42321 35 047161   000033 220003                    LDX0    27,DU
        35 047162   000000 740000 30                 STX0    TEMP_LX_NODE

  42322 35 047163   000024 236000 36                 LDQ     20
        35 047164   000001 756000 30                 STQ     TEMP_LX_NODE+1

  42323 35 047165   000002 756000 30                 STQ     TEMP_LX_NODE+2

  42324 35 047166   000003 756000 30                 STQ     TEMP_LX_NODE+3

  42325 35 047167   000006 756000 30                 STQ     TEMP_LX_NODE+6

  42326 35 047170   000005 450000 30                 STZ     TEMP_LX_NODE+5

  42327 35 047171   000001 235007                    LDA     1,DL
        35 047172   000004 755000 30                 STA     TEMP_LX_NODE+4

  42336 35 047173   001072 630400 36                 EPPR0   570
        35 047174   000025 631400 36                 EPPR1   21
        35 047175   000000 701000 xent               TSX1    Z8ED$NEW_HEAP
        35 047176   000000 011000                    NOP     0

  42339 35 047177   000151 235000 xsym               LDA     O1COM+105
        35 047200   000005 735000                    ALS     5
        35 047201   000001 470400 30                 LDP0    TEMP_LX_NODE+1
        35 047202   000100 100405                    MLR     fill='000'O
        35 047203   014007 000040 xsym               ADSC9   O1COM+6151,A             cn=0,n=32
        35 047204   000000 000040                    ADSC9   0,,PR0                   cn=0,n=32

  42353 35 047205   001074 630400 36                 EPPR0   572
        35 047206   000025 631400 36                 EPPR1   21
        35 047207   000000 701000 xent               TSX1    Z8ED$NEW_HEAP
PL6.E3A0      #001=Z8EM$SEMANTICS_DATA_DIV File=Z8EM.:Z8A6TSI                    SAT 08/09/97 12:08 Page:1298
        35 047210   000000 011000                    NOP     0

  42356 35 047211   000151 235000 xsym               LDA     O1COM+105
        35 047212   000005 735000                    ALS     5
        35 047213   000003 470400 30                 LDP0    TEMP_LX_NODE+3
        35 047214   000100 100405                    MLR     fill='000'O
        35 047215   014017 000040 xsym               ADSC9   O1COM+6159,A             cn=0,n=32
        35 047216   000000 000040                    ADSC9   0,,PR0                   cn=0,n=32

  42366 35 047217   000670 630400 36                 EPPR0   440
        35 047220   000025 631400 36                 EPPR1   21
        35 047221   000000 701000 xent               TSX1    Z8ED$NEW_HEAP
        35 047222   000000 011000                    NOP     0

  42369 35 047223   000000 470400 29                 LDP0    HEAP$
        35 047224   000100 100400                    MLR     fill='000'O
        35 047225   000000 000040 30                 ADSC9   TEMP_LX_NODE             cn=0,n=32
        35 047226   000000 000040                    ADSC9   0,,PR0                   cn=0,n=32

  42370 35 047227   000024 236000 36                 LDQ     20
        35 047230   000000 470400 29                 LDP0    HEAP$
        35 047231   000007 756100                    STQ     7,,PR0

  42375 35 047232   000001 220003                    LDX0    1,DU
        35 047233   000000 740000 30                 STX0    TEMP_LX_NODE

  42376 35 047234   000024 236000 36                 LDQ     20
        35 047235   000001 756000 30                 STQ     TEMP_LX_NODE+1

  42377 35 047236   000007 756000 30                 STQ     TEMP_LX_NODE+7

  42380 35 047237   000000 236000 29                 LDQ     HEAP$
        35 047240   000001 756000 30                 STQ     TEMP_LX_NODE+1

  42383 35 047241   000134 235000 xsym               LDA     O1COM+92
        35 047242   000001 735000                    ALS     1
        35 047243   000000 236005 xsym               LDQ     DD_PRODR,AL
PL6.E3A0      #001=Z8EM$SEMANTICS_DATA_DIV File=Z8EM.:Z8A6TSI                    SAT 08/09/97 12:08 Page:1299
        35 047244   777777 376007                    ANQ     -1,DL
        35 047245   001012 756000 0                  STQ     PROC$+2
        35 047246   000151 236000 xsym               LDQ     O1COM+105
        35 047247   001012 136000 0                  SBLQ    PROC$+2
        35 047250   000005 736000                    QLS     5
        35 047251   000006 100400                    MLR     fill='000'O
        35 047252   000000 000040 30                 ADSC9   TEMP_LX_NODE             cn=0,n=32
        35 047253   014027 000040 xsym               ADSC9   O1COM+6167,Q             cn=0,n=32

  42386 35 047254   056641 710000 35                 TRA     s:45674

     7529    42388    2      CASE(%ACT_ID_SUB);

     7530    42389                %NEW_COPY_ID_TREE (@QUAL_ID$ = "O1COM.LX_TOP - 1",
     7531    42390                                   @SUB$     = "O1COM.LX_TOP",
     7532    42391                                   @ACTION#  = %REP_ACT_ID_SUB);

  42396 35 047255   000033 220003                    LDX0    27,DU
        35 047256   000000 740000 30                 STX0    TEMP_LX_NODE

  42397 35 047257   000024 236000 36                 LDQ     20
        35 047260   000001 756000 30                 STQ     TEMP_LX_NODE+1

  42398 35 047261   000002 756000 30                 STQ     TEMP_LX_NODE+2

  42399 35 047262   000003 756000 30                 STQ     TEMP_LX_NODE+3

  42400 35 047263   000006 756000 30                 STQ     TEMP_LX_NODE+6

  42401 35 047264   000005 450000 30                 STZ     TEMP_LX_NODE+5

  42402 35 047265   000002 235007                    LDA     2,DL
        35 047266   000004 755000 30                 STA     TEMP_LX_NODE+4

  42411 35 047267   001072 630400 36                 EPPR0   570
        35 047270   000025 631400 36                 EPPR1   21
        35 047271   000000 701000 xent               TSX1    Z8ED$NEW_HEAP
PL6.E3A0      #001=Z8EM$SEMANTICS_DATA_DIV File=Z8EM.:Z8A6TSI                    SAT 08/09/97 12:08 Page:1300
        35 047272   000000 011000                    NOP     0

  42414 35 047273   000151 235000 xsym               LDA     O1COM+105
        35 047274   000005 735000                    ALS     5
        35 047275   000001 470400 30                 LDP0    TEMP_LX_NODE+1
        35 047276   000100 100405                    MLR     fill='000'O
        35 047277   014007 000040 xsym               ADSC9   O1COM+6151,A             cn=0,n=32
        35 047300   000000 000040                    ADSC9   0,,PR0                   cn=0,n=32

  42424 35 047301   001070 630400 36                 EPPR0   568
        35 047302   000025 631400 36                 EPPR1   21
        35 047303   000000 701000 xent               TSX1    Z8ED$NEW_HEAP
        35 047304   000000 011000                    NOP     0

  42427 35 047305   000151 235000 xsym               LDA     O1COM+105
        35 047306   000005 735000                    ALS     5
        35 047307   000002 470400 30                 LDP0    TEMP_LX_NODE+2
        35 047310   000100 100405                    MLR     fill='000'O
        35 047311   014017 000040 xsym               ADSC9   O1COM+6159,A             cn=0,n=32
        35 047312   000000 000040                    ADSC9   0,,PR0                   cn=0,n=32

  42441 35 047313   000670 630400 36                 EPPR0   440
        35 047314   000025 631400 36                 EPPR1   21
        35 047315   000000 701000 xent               TSX1    Z8ED$NEW_HEAP
        35 047316   000000 011000                    NOP     0

  42444 35 047317   000000 470400 29                 LDP0    HEAP$
        35 047320   000100 100400                    MLR     fill='000'O
        35 047321   000000 000040 30                 ADSC9   TEMP_LX_NODE             cn=0,n=32
        35 047322   000000 000040                    ADSC9   0,,PR0                   cn=0,n=32

  42445 35 047323   000024 236000 36                 LDQ     20
        35 047324   000000 470400 29                 LDP0    HEAP$
        35 047325   000007 756100                    STQ     7,,PR0

  42450 35 047326   000001 220003                    LDX0    1,DU
        35 047327   000000 740000 30                 STX0    TEMP_LX_NODE
PL6.E3A0      #001=Z8EM$SEMANTICS_DATA_DIV File=Z8EM.:Z8A6TSI                    SAT 08/09/97 12:08 Page:1301

  42451 35 047330   000024 236000 36                 LDQ     20
        35 047331   000001 756000 30                 STQ     TEMP_LX_NODE+1

  42452 35 047332   000007 756000 30                 STQ     TEMP_LX_NODE+7

  42455 35 047333   000000 236000 29                 LDQ     HEAP$
        35 047334   000001 756000 30                 STQ     TEMP_LX_NODE+1

  42458 35 047335   000134 235000 xsym               LDA     O1COM+92
        35 047336   000001 735000                    ALS     1
        35 047337   000000 236005 xsym               LDQ     DD_PRODR,AL
        35 047340   777777 376007                    ANQ     -1,DL
        35 047341   001012 756000 0                  STQ     PROC$+2
        35 047342   000151 236000 xsym               LDQ     O1COM+105
        35 047343   001012 136000 0                  SBLQ    PROC$+2
        35 047344   000005 736000                    QLS     5
        35 047345   000006 100400                    MLR     fill='000'O
        35 047346   000000 000040 30                 ADSC9   TEMP_LX_NODE             cn=0,n=32
        35 047347   014027 000040 xsym               ADSC9   O1COM+6167,Q             cn=0,n=32

  42461 35 047350   056641 710000 35                 TRA     s:45674

     7533    42463    2      CASE(%ACT_ID_SUB_REF);

     7534    42464                %NEW_COPY_ID_TREE (@QUAL_ID$ = "O1COM.LX_TOP - 2",
     7535    42465                                   @SUB$     = "O1COM.LX_TOP - 1",
     7536    42466                                   @REF$     = "O1COM.LX_TOP",
     7537    42467                                   @ACTION#  = %REP_ACT_ID_SUB_REF);

  42472 35 047351   000033 220003                    LDX0    27,DU
        35 047352   000000 740000 30                 STX0    TEMP_LX_NODE

  42473 35 047353   000024 236000 36                 LDQ     20
        35 047354   000001 756000 30                 STQ     TEMP_LX_NODE+1

  42474 35 047355   000002 756000 30                 STQ     TEMP_LX_NODE+2
PL6.E3A0      #001=Z8EM$SEMANTICS_DATA_DIV File=Z8EM.:Z8A6TSI                    SAT 08/09/97 12:08 Page:1302

  42475 35 047356   000003 756000 30                 STQ     TEMP_LX_NODE+3

  42476 35 047357   000006 756000 30                 STQ     TEMP_LX_NODE+6

  42477 35 047360   000005 450000 30                 STZ     TEMP_LX_NODE+5

  42478 35 047361   000003 235007                    LDA     3,DL
        35 047362   000004 755000 30                 STA     TEMP_LX_NODE+4

  42487 35 047363   001072 630400 36                 EPPR0   570
        35 047364   000025 631400 36                 EPPR1   21
        35 047365   000000 701000 xent               TSX1    Z8ED$NEW_HEAP
        35 047366   000000 011000                    NOP     0

  42490 35 047367   000151 235000 xsym               LDA     O1COM+105
        35 047370   000005 735000                    ALS     5
        35 047371   000001 470400 30                 LDP0    TEMP_LX_NODE+1
        35 047372   000100 100405                    MLR     fill='000'O
        35 047373   013777 000040 xsym               ADSC9   O1COM+6143,A             cn=0,n=32
        35 047374   000000 000040                    ADSC9   0,,PR0                   cn=0,n=32

  42500 35 047375   001070 630400 36                 EPPR0   568
        35 047376   000025 631400 36                 EPPR1   21
        35 047377   000000 701000 xent               TSX1    Z8ED$NEW_HEAP
        35 047400   000000 011000                    NOP     0

  42503 35 047401   000151 235000 xsym               LDA     O1COM+105
        35 047402   000005 735000                    ALS     5
        35 047403   000002 470400 30                 LDP0    TEMP_LX_NODE+2
        35 047404   000100 100405                    MLR     fill='000'O
        35 047405   014007 000040 xsym               ADSC9   O1COM+6151,A             cn=0,n=32
        35 047406   000000 000040                    ADSC9   0,,PR0                   cn=0,n=32

  42514 35 047407   001074 630400 36                 EPPR0   572
        35 047410   000025 631400 36                 EPPR1   21
        35 047411   000000 701000 xent               TSX1    Z8ED$NEW_HEAP
PL6.E3A0      #001=Z8EM$SEMANTICS_DATA_DIV File=Z8EM.:Z8A6TSI                    SAT 08/09/97 12:08 Page:1303
        35 047412   000000 011000                    NOP     0

  42517 35 047413   000151 235000 xsym               LDA     O1COM+105
        35 047414   000005 735000                    ALS     5
        35 047415   000003 470400 30                 LDP0    TEMP_LX_NODE+3
        35 047416   000100 100405                    MLR     fill='000'O
        35 047417   014017 000040 xsym               ADSC9   O1COM+6159,A             cn=0,n=32
        35 047420   000000 000040                    ADSC9   0,,PR0                   cn=0,n=32

  42527 35 047421   000670 630400 36                 EPPR0   440
        35 047422   000025 631400 36                 EPPR1   21
        35 047423   000000 701000 xent               TSX1    Z8ED$NEW_HEAP
        35 047424   000000 011000                    NOP     0

  42530 35 047425   000000 470400 29                 LDP0    HEAP$
        35 047426   000100 100400                    MLR     fill='000'O
        35 047427   000000 000040 30                 ADSC9   TEMP_LX_NODE             cn=0,n=32
        35 047430   000000 000040                    ADSC9   0,,PR0                   cn=0,n=32

  42531 35 047431   000024 236000 36                 LDQ     20
        35 047432   000000 470400 29                 LDP0    HEAP$
        35 047433   000007 756100                    STQ     7,,PR0

  42536 35 047434   000001 220003                    LDX0    1,DU
        35 047435   000000 740000 30                 STX0    TEMP_LX_NODE

  42537 35 047436   000024 236000 36                 LDQ     20
        35 047437   000001 756000 30                 STQ     TEMP_LX_NODE+1

  42538 35 047440   000007 756000 30                 STQ     TEMP_LX_NODE+7

  42541 35 047441   000000 236000 29                 LDQ     HEAP$
        35 047442   000001 756000 30                 STQ     TEMP_LX_NODE+1

  42544 35 047443   000134 235000 xsym               LDA     O1COM+92
        35 047444   000001 735000                    ALS     1
        35 047445   000000 236005 xsym               LDQ     DD_PRODR,AL
PL6.E3A0      #001=Z8EM$SEMANTICS_DATA_DIV File=Z8EM.:Z8A6TSI                    SAT 08/09/97 12:08 Page:1304
        35 047446   777777 376007                    ANQ     -1,DL
        35 047447   001012 756000 0                  STQ     PROC$+2
        35 047450   000151 236000 xsym               LDQ     O1COM+105
        35 047451   001012 136000 0                  SBLQ    PROC$+2
        35 047452   000005 736000                    QLS     5
        35 047453   000006 100400                    MLR     fill='000'O
        35 047454   000000 000040 30                 ADSC9   TEMP_LX_NODE             cn=0,n=32
        35 047455   014027 000040 xsym               ADSC9   O1COM+6167,Q             cn=0,n=32

  42547 35 047456   056641 710000 35                 TRA     s:45674

     7538    42549    2      CASE(%ACT_FIRST_ID_LIST);

     7539    42550
     7540    42551            /* Create a linked list of 1 element at LX_TOP */
     7541    42552               %INIT_LX_LIST (@POINTER = "ADDR(TEMP_LX_NODE)");

  42554 35 047457   000002 220003                    LDX0    2,DU
        35 047460   000000 740000 30                 STX0    TEMP_LX_NODE

  42555 35 047461   000000 221003                    LDX1    0,DU
        35 047462   000000 441000 30                 SXL1    TEMP_LX_NODE

  42556 35 047463   000024 236000 36                 LDQ     20
        35 047464   000001 756000 30                 STQ     TEMP_LX_NODE+1

  42557 35 047465   000004 756000 30                 STQ     TEMP_LX_NODE+4

  42558 35 047466   000007 756000 30                 STQ     TEMP_LX_NODE+7

  42559 35 047467   000002 450000 30                 STZ     TEMP_LX_NODE+2

     7542    42562               %ADD_LX_STK_TO_LIST_HEAD (@LIST$ = "ADDR(TEMP_LX_NODE)",
     7543    42563                                         @FROM  = O1COM.LX_TOP);

  42570 35 047470   000670 630400 36                 EPPR0   440
        35 047471   000025 631400 36                 EPPR1   21
PL6.E3A0      #001=Z8EM$SEMANTICS_DATA_DIV File=Z8EM.:Z8A6TSI                    SAT 08/09/97 12:08 Page:1305
        35 047472   000000 701000 xent               TSX1    Z8ED$NEW_HEAP
        35 047473   000000 011000                    NOP     0

  42573 35 047474   000151 235000 xsym               LDA     O1COM+105
        35 047475   000005 735000                    ALS     5
        35 047476   000000 470400 29                 LDP0    HEAP$
        35 047477   000100 100405                    MLR     fill='000'O
        35 047500   014017 000040 xsym               ADSC9   O1COM+6159,A             cn=0,n=32
        35 047501   000000 000040                    ADSC9   0,,PR0                   cn=0,n=32

  42579 35 047502   000004 236000 30                 LDQ     TEMP_LX_NODE+4
        35 047503   000000 470400 29                 LDP0    HEAP$
        35 047504   000007 756100                    STQ     7,,PR0

  42580 35 047505   000000 236000 29                 LDQ     HEAP$
        35 047506   000004 756000 30                 STQ     TEMP_LX_NODE+4

  42581 35 047507   000002 235000 30                 LDA     TEMP_LX_NODE+2
        35 047510   047512 601000 35                 TNZ     s:42583

  42582 35 047511   000001 756000 30                 STQ     TEMP_LX_NODE+1

  42583 35 047512   000002 054000 30                 AOS     TEMP_LX_NODE+2

     7544    42588               %PROPAGATE_TEMP_LX_NODE;

  42590 35 047513   000134 235000 xsym               LDA     O1COM+92
        35 047514   000001 735000                    ALS     1
        35 047515   000000 236005 xsym               LDQ     DD_PRODR,AL
        35 047516   777777 376007                    ANQ     -1,DL
        35 047517   001012 756000 0                  STQ     PROC$+2
        35 047520   000151 236000 xsym               LDQ     O1COM+105
        35 047521   001012 136000 0                  SBLQ    PROC$+2
        35 047522   000005 736000                    QLS     5
        35 047523   000006 100400                    MLR     fill='000'O
        35 047524   000000 000040 30                 ADSC9   TEMP_LX_NODE             cn=0,n=32
        35 047525   014027 000040 xsym               ADSC9   O1COM+6167,Q             cn=0,n=32
PL6.E3A0      #001=Z8EM$SEMANTICS_DATA_DIV File=Z8EM.:Z8A6TSI                    SAT 08/09/97 12:08 Page:1306

  42591 35 047526   056641 710000 35                 TRA     s:45674

     7545    42593
     7546    42594
     7547    42595    2      CASE(%ACT_APPEND_ID_LIST);

     7548    42596
     7549    42597            /* Add LX_STK(LX_TOP) to tail of list at LX_STK(LX_TOP - 1) */
     7550    42598               %ADD_LX_STK_TO_LIST_TAIL (@LIST$ = "ADDR(O1COM.LX_STK(O1COM.LX_TOP - 1))",
     7551    42599                                         @FROM  = O1COM.LX_TOP);

  42606 35 047527   000670 630400 36                 EPPR0   440
        35 047530   000025 631400 36                 EPPR1   21
        35 047531   000000 701000 xent               TSX1    Z8ED$NEW_HEAP
        35 047532   000000 011000                    NOP     0

  42609 35 047533   000151 235000 xsym               LDA     O1COM+105
        35 047534   000005 735000                    ALS     5
        35 047535   000000 470400 29                 LDP0    HEAP$
        35 047536   000100 100405                    MLR     fill='000'O
        35 047537   014017 000040 xsym               ADSC9   O1COM+6159,A             cn=0,n=32
        35 047540   000000 000040                    ADSC9   0,,PR0                   cn=0,n=32

  42615 35 047541   000024 236000 36                 LDQ     20
        35 047542   000000 470400 29                 LDP0    HEAP$
        35 047543   000007 756100                    STQ     7,,PR0

  42616 35 047544   000151 235000 xsym               LDA     O1COM+105
        35 047545   000003 735000                    ALS     3
        35 047546   014011 235005 xsym               LDA     O1COM+6153,AL
        35 047547   047560 601000 35                 TNZ     s:42623

  42618 35 047550   000151 235000 xsym               LDA     O1COM+105
        35 047551   000003 735000                    ALS     3
        35 047552   000000 236000 29                 LDQ     HEAP$
        35 047553   014013 756005 xsym               STQ     O1COM+6155,AL
PL6.E3A0      #001=Z8EM$SEMANTICS_DATA_DIV File=Z8EM.:Z8A6TSI                    SAT 08/09/97 12:08 Page:1307

  42619 35 047554   000151 235000 xsym               LDA     O1COM+105
        35 047555   000003 735000                    ALS     3
        35 047556   014010 756005 xsym               STQ     O1COM+6152,AL

  42620 35 047557   047570 710000 35                 TRA     s:42626

  42623 35 047560   000151 235000 xsym               LDA     O1COM+105
        35 047561   000003 735000                    ALS     3
        35 047562   014010 471405 xsym               LDP1    O1COM+6152,AL
        35 047563   000000 236000 29                 LDQ     HEAP$
        35 047564   100007 756100                    STQ     7,,PR1

  42624 35 047565   000151 235000 xsym               LDA     O1COM+105
        35 047566   000003 735000                    ALS     3
        35 047567   014010 756005 xsym               STQ     O1COM+6152,AL

  42626 35 047570   000151 235000 xsym               LDA     O1COM+105
        35 047571   000003 735000                    ALS     3
        35 047572   014011 054005 xsym               AOS     O1COM+6153,AL

     7552    42631    2          IF O1COM.LX_STK.B.ERROR(O1COM.LX_TOP) THEN

  42631 35 047573   000151 235000 xsym               LDA     O1COM+105
        35 047574   000003 735000                    ALS     3
        35 047575   014017 236005 xsym               LDQ     O1COM+6159,AL
        35 047576   400000 316007                    CANQ    -131072,DL
        35 047577   056641 600000 35                 TZE     s:45674

     7553    42632    2            O1COM.LX_STK.B.ERROR(O1COM.LX_TOP - 1) = TRUE;

  42632 35 047600   400000 236007                    LDQ     -131072,DL
        35 047601   014007 256005 xsym               ORSQ    O1COM+6151,AL
        35 047602   056641 710000 35                 TRA     s:45674

     7554    42633
     7555    42634    2      CASE(%ACT_SUBSCRIPT);
PL6.E3A0      #001=Z8EM$SEMANTICS_DATA_DIV File=Z8EM.:Z8A6TSI                    SAT 08/09/97 12:08 Page:1308

     7556    42635
     7557    42636               %PROPAGATE (@FROM = "O1COM.LX_TOP - 1");

  42638 35 047603   000134 236000 xsym               LDQ     O1COM+92
        35 047604   000001 736000                    QLS     1
        35 047605   000000 236006 xsym               LDQ     DD_PRODR,QL
        35 047606   777777 376007                    ANQ     -1,DL
        35 047607   001012 756000 0                  STQ     PROC$+2
        35 047610   000151 236000 xsym               LDQ     O1COM+105
        35 047611   001012 136000 0                  SBLQ    PROC$+2
        35 047612   000151 235000 xsym               LDA     O1COM+105
        35 047613   000005 735000                    ALS     5
        35 047614   000005 736000                    QLS     5
        35 047615   000006 100405                    MLR     fill='000'O
        35 047616   014007 000040 xsym               ADSC9   O1COM+6151,A             cn=0,n=32
        35 047617   014027 000040 xsym               ADSC9   O1COM+6167,Q             cn=0,n=32

  42639 35 047620   056641 710000 35                 TRA     s:45674

     7558    42641
     7559    42642    2      CASE(%ACT_SUB_LIST);

     7560    42643
     7561    42644            /* Create a linked list of 1 element at LX_TOP */
     7562    42645               %INIT_LX_LIST (@POINTER = "ADDR(TEMP_LX_NODE)");

  42647 35 047621   000002 220003                    LDX0    2,DU
        35 047622   000000 740000 30                 STX0    TEMP_LX_NODE

  42648 35 047623   000000 221003                    LDX1    0,DU
        35 047624   000000 441000 30                 SXL1    TEMP_LX_NODE

  42649 35 047625   000024 236000 36                 LDQ     20
        35 047626   000001 756000 30                 STQ     TEMP_LX_NODE+1

  42650 35 047627   000004 756000 30                 STQ     TEMP_LX_NODE+4
PL6.E3A0      #001=Z8EM$SEMANTICS_DATA_DIV File=Z8EM.:Z8A6TSI                    SAT 08/09/97 12:08 Page:1309

  42651 35 047630   000007 756000 30                 STQ     TEMP_LX_NODE+7

  42652 35 047631   000002 450000 30                 STZ     TEMP_LX_NODE+2

     7563    42655               %ADD_LX_STK_TO_LIST_HEAD (@LIST$ = "ADDR(TEMP_LX_NODE)",
     7564    42656                                         @FROM  = O1COM.LX_TOP);

  42663 35 047632   000670 630400 36                 EPPR0   440
        35 047633   000025 631400 36                 EPPR1   21
        35 047634   000000 701000 xent               TSX1    Z8ED$NEW_HEAP
        35 047635   000000 011000                    NOP     0

  42666 35 047636   000151 235000 xsym               LDA     O1COM+105
        35 047637   000005 735000                    ALS     5
        35 047640   000000 470400 29                 LDP0    HEAP$
        35 047641   000100 100405                    MLR     fill='000'O
        35 047642   014017 000040 xsym               ADSC9   O1COM+6159,A             cn=0,n=32
        35 047643   000000 000040                    ADSC9   0,,PR0                   cn=0,n=32

  42672 35 047644   000004 236000 30                 LDQ     TEMP_LX_NODE+4
        35 047645   000000 470400 29                 LDP0    HEAP$
        35 047646   000007 756100                    STQ     7,,PR0

  42673 35 047647   000000 236000 29                 LDQ     HEAP$
        35 047650   000004 756000 30                 STQ     TEMP_LX_NODE+4

  42674 35 047651   000002 235000 30                 LDA     TEMP_LX_NODE+2
        35 047652   047654 601000 35                 TNZ     s:42676

  42675 35 047653   000001 756000 30                 STQ     TEMP_LX_NODE+1

  42676 35 047654   000002 054000 30                 AOS     TEMP_LX_NODE+2

     7565    42681               %PROPAGATE_TEMP_LX_NODE;

  42683 35 047655   000134 235000 xsym               LDA     O1COM+92
PL6.E3A0      #001=Z8EM$SEMANTICS_DATA_DIV File=Z8EM.:Z8A6TSI                    SAT 08/09/97 12:08 Page:1310
        35 047656   000001 735000                    ALS     1
        35 047657   000000 236005 xsym               LDQ     DD_PRODR,AL
        35 047660   777777 376007                    ANQ     -1,DL
        35 047661   001012 756000 0                  STQ     PROC$+2
        35 047662   000151 236000 xsym               LDQ     O1COM+105
        35 047663   001012 136000 0                  SBLQ    PROC$+2
        35 047664   000005 736000                    QLS     5
        35 047665   000006 100400                    MLR     fill='000'O
        35 047666   000000 000040 30                 ADSC9   TEMP_LX_NODE             cn=0,n=32
        35 047667   014027 000040 xsym               ADSC9   O1COM+6167,Q             cn=0,n=32

  42684 35 047670   056641 710000 35                 TRA     s:45674

     7566    42686
     7567    42687
     7568    42688    2      CASE(%ACT_APPEND_SUB_LIST);

     7569    42689
     7570    42690            /* Add LX_STK(LX_TOP) to tail of list at LX_STK(LX_TOP - 1) */
     7571    42691               %ADD_LX_STK_TO_LIST_TAIL (@LIST$ = "ADDR(O1COM.LX_STK(O1COM.LX_TOP - 1))",
     7572    42692                                         @FROM  = O1COM.LX_TOP);

  42699 35 047671   000670 630400 36                 EPPR0   440
        35 047672   000025 631400 36                 EPPR1   21
        35 047673   000000 701000 xent               TSX1    Z8ED$NEW_HEAP
        35 047674   000000 011000                    NOP     0

  42702 35 047675   000151 235000 xsym               LDA     O1COM+105
        35 047676   000005 735000                    ALS     5
        35 047677   000000 470400 29                 LDP0    HEAP$
        35 047700   000100 100405                    MLR     fill='000'O
        35 047701   014017 000040 xsym               ADSC9   O1COM+6159,A             cn=0,n=32
        35 047702   000000 000040                    ADSC9   0,,PR0                   cn=0,n=32

  42708 35 047703   000024 236000 36                 LDQ     20
        35 047704   000000 470400 29                 LDP0    HEAP$
        35 047705   000007 756100                    STQ     7,,PR0
PL6.E3A0      #001=Z8EM$SEMANTICS_DATA_DIV File=Z8EM.:Z8A6TSI                    SAT 08/09/97 12:08 Page:1311

  42709 35 047706   000151 235000 xsym               LDA     O1COM+105
        35 047707   000003 735000                    ALS     3
        35 047710   014011 235005 xsym               LDA     O1COM+6153,AL
        35 047711   047722 601000 35                 TNZ     s:42716

  42711 35 047712   000151 235000 xsym               LDA     O1COM+105
        35 047713   000003 735000                    ALS     3
        35 047714   000000 236000 29                 LDQ     HEAP$
        35 047715   014013 756005 xsym               STQ     O1COM+6155,AL

  42712 35 047716   000151 235000 xsym               LDA     O1COM+105
        35 047717   000003 735000                    ALS     3
        35 047720   014010 756005 xsym               STQ     O1COM+6152,AL

  42713 35 047721   047732 710000 35                 TRA     s:42719

  42716 35 047722   000151 235000 xsym               LDA     O1COM+105
        35 047723   000003 735000                    ALS     3
        35 047724   014010 471405 xsym               LDP1    O1COM+6152,AL
        35 047725   000000 236000 29                 LDQ     HEAP$
        35 047726   100007 756100                    STQ     7,,PR1

  42717 35 047727   000151 235000 xsym               LDA     O1COM+105
        35 047730   000003 735000                    ALS     3
        35 047731   014010 756005 xsym               STQ     O1COM+6152,AL

  42719 35 047732   000151 235000 xsym               LDA     O1COM+105
        35 047733   000003 735000                    ALS     3
        35 047734   014011 054005 xsym               AOS     O1COM+6153,AL

     7573    42724    2          IF O1COM.LX_STK.B.ERROR(O1COM.LX_TOP) THEN

  42724 35 047735   000151 235000 xsym               LDA     O1COM+105
        35 047736   000003 735000                    ALS     3
        35 047737   014017 236005 xsym               LDQ     O1COM+6159,AL
        35 047740   400000 316007                    CANQ    -131072,DL
PL6.E3A0      #001=Z8EM$SEMANTICS_DATA_DIV File=Z8EM.:Z8A6TSI                    SAT 08/09/97 12:08 Page:1312
        35 047741   056641 600000 35                 TZE     s:45674

     7574    42725    2            O1COM.LX_STK.B.ERROR(O1COM.LX_TOP - 1) = TRUE;

  42725 35 047742   400000 236007                    LDQ     -131072,DL
        35 047743   014007 256005 xsym               ORSQ    O1COM+6151,AL
        35 047744   056641 710000 35                 TRA     s:45674

     7575    42726
     7576    42727    2     CASE(%ACT_REF_MOD_W_LENGTH);

     7577    42728               %INIT_LX_LIST (@POINTER = "ADDR(TEMP_LX_NODE)");

  42730 35 047745   000002 220003                    LDX0    2,DU
        35 047746   000000 740000 30                 STX0    TEMP_LX_NODE

  42731 35 047747   000000 221003                    LDX1    0,DU
        35 047750   000000 441000 30                 SXL1    TEMP_LX_NODE

  42732 35 047751   000024 236000 36                 LDQ     20
        35 047752   000001 756000 30                 STQ     TEMP_LX_NODE+1

  42733 35 047753   000004 756000 30                 STQ     TEMP_LX_NODE+4

  42734 35 047754   000007 756000 30                 STQ     TEMP_LX_NODE+7

  42735 35 047755   000002 450000 30                 STZ     TEMP_LX_NODE+2

     7578    42738                %PROP_ERR_TEMP_LX_NODE;

  42740 35 047756   000134 235000 xsym               LDA     O1COM+92
        35 047757   000001 735000                    ALS     1
        35 047760   000000 236005 xsym               LDQ     DD_PRODR,AL
        35 047761   777777 376007                    ANQ     -1,DL
        35 047762   001012 756000 0                  STQ     PROC$+2
        35 047763   000151 236000 xsym               LDQ     O1COM+105
        35 047764   001012 136000 0                  SBLQ    PROC$+2
PL6.E3A0      #001=Z8EM$SEMANTICS_DATA_DIV File=Z8EM.:Z8A6TSI                    SAT 08/09/97 12:08 Page:1313
        35 047765   000001 036007                    ADLQ    1,DL
        35 047766   000017 756000 0                  STQ     I
        35 047767   050000 710000 35                 TRA     s:42743+1

  42741 35 047770   000017 235000 0                  LDA     I
        35 047771   000003 735000                    ALS     3
        35 047772   014017 236005 xsym               LDQ     O1COM+6159,AL
        35 047773   400000 316007                    CANQ    -131072,DL
        35 047774   047777 600000 35                 TZE     s:42743

  42742 35 047775   400000 236007                    LDQ     -131072,DL
        35 047776   000000 256000 30                 ORSQ    TEMP_LX_NODE

  42743 35 047777   000017 054000 0                  AOS     I
        35 050000   000017 236000 0                  LDQ     I
        35 050001   000151 116000 xsym               CMPQ    O1COM+105
        35 050002   047770 604400 35                 TMOZ    s:42741

     7579    42746               %ADD_LX_STK_TO_LIST_HEAD (@LIST$ = "ADDR(TEMP_LX_NODE)",
     7580    42747                                         @FROM = O1COM.LX_TOP - 1);

  42754 35 050003   000670 630400 36                 EPPR0   440
        35 050004   000025 631400 36                 EPPR1   21
        35 050005   000000 701000 xent               TSX1    Z8ED$NEW_HEAP
        35 050006   000000 011000                    NOP     0

  42757 35 050007   000151 235000 xsym               LDA     O1COM+105
        35 050010   000005 735000                    ALS     5
        35 050011   000000 470400 29                 LDP0    HEAP$
        35 050012   000100 100405                    MLR     fill='000'O
        35 050013   014007 000040 xsym               ADSC9   O1COM+6151,A             cn=0,n=32
        35 050014   000000 000040                    ADSC9   0,,PR0                   cn=0,n=32

  42763 35 050015   000004 236000 30                 LDQ     TEMP_LX_NODE+4
        35 050016   000000 470400 29                 LDP0    HEAP$
        35 050017   000007 756100                    STQ     7,,PR0

PL6.E3A0      #001=Z8EM$SEMANTICS_DATA_DIV File=Z8EM.:Z8A6TSI                    SAT 08/09/97 12:08 Page:1314
  42764 35 050020   000000 236000 29                 LDQ     HEAP$
        35 050021   000004 756000 30                 STQ     TEMP_LX_NODE+4

  42765 35 050022   000002 235000 30                 LDA     TEMP_LX_NODE+2
        35 050023   050025 601000 35                 TNZ     s:42767

  42766 35 050024   000001 756000 30                 STQ     TEMP_LX_NODE+1

  42767 35 050025   000002 054000 30                 AOS     TEMP_LX_NODE+2

     7581    42772               %ADD_LX_STK_TO_LIST_HEAD (@LIST$ = "ADDR(TEMP_LX_NODE)",
     7582    42773                                         @FROM = "O1COM.LX_TOP - 3");

  42780 35 050026   000670 630400 36                 EPPR0   440
        35 050027   000025 631400 36                 EPPR1   21
        35 050030   000000 701000 xent               TSX1    Z8ED$NEW_HEAP
        35 050031   000000 011000                    NOP     0

  42783 35 050032   000151 235000 xsym               LDA     O1COM+105
        35 050033   000005 735000                    ALS     5
        35 050034   000000 470400 29                 LDP0    HEAP$
        35 050035   000100 100405                    MLR     fill='000'O
        35 050036   013767 000040 xsym               ADSC9   O1COM+6135,A             cn=0,n=32
        35 050037   000000 000040                    ADSC9   0,,PR0                   cn=0,n=32

  42789 35 050040   000004 236000 30                 LDQ     TEMP_LX_NODE+4
        35 050041   000000 470400 29                 LDP0    HEAP$
        35 050042   000007 756100                    STQ     7,,PR0

  42790 35 050043   000000 236000 29                 LDQ     HEAP$
        35 050044   000004 756000 30                 STQ     TEMP_LX_NODE+4

  42791 35 050045   000002 235000 30                 LDA     TEMP_LX_NODE+2
        35 050046   050050 601000 35                 TNZ     s:42793

  42792 35 050047   000001 756000 30                 STQ     TEMP_LX_NODE+1

PL6.E3A0      #001=Z8EM$SEMANTICS_DATA_DIV File=Z8EM.:Z8A6TSI                    SAT 08/09/97 12:08 Page:1315
  42793 35 050050   000002 054000 30                 AOS     TEMP_LX_NODE+2

     7583    42798               %PROPAGATE_TEMP_LX_NODE;

  42800 35 050051   000134 235000 xsym               LDA     O1COM+92
        35 050052   000001 735000                    ALS     1
        35 050053   000000 236005 xsym               LDQ     DD_PRODR,AL
        35 050054   777777 376007                    ANQ     -1,DL
        35 050055   001012 756000 0                  STQ     PROC$+2
        35 050056   000151 236000 xsym               LDQ     O1COM+105
        35 050057   001012 136000 0                  SBLQ    PROC$+2
        35 050060   000005 736000                    QLS     5
        35 050061   000006 100400                    MLR     fill='000'O
        35 050062   000000 000040 30                 ADSC9   TEMP_LX_NODE             cn=0,n=32
        35 050063   014027 000040 xsym               ADSC9   O1COM+6167,Q             cn=0,n=32

  42801 35 050064   056641 710000 35                 TRA     s:45674

     7584    42803
     7585    42804    2     CASE(%ACT_REF_MOD_O_LENGTH);

     7586    42805               %INIT_LX_LIST (@POINTER = "ADDR(TEMP_LX_NODE)");

  42807 35 050065   000002 220003                    LDX0    2,DU
        35 050066   000000 740000 30                 STX0    TEMP_LX_NODE

  42808 35 050067   000000 221003                    LDX1    0,DU
        35 050070   000000 441000 30                 SXL1    TEMP_LX_NODE

  42809 35 050071   000024 236000 36                 LDQ     20
        35 050072   000001 756000 30                 STQ     TEMP_LX_NODE+1

  42810 35 050073   000004 756000 30                 STQ     TEMP_LX_NODE+4

  42811 35 050074   000007 756000 30                 STQ     TEMP_LX_NODE+7

  42812 35 050075   000002 450000 30                 STZ     TEMP_LX_NODE+2
PL6.E3A0      #001=Z8EM$SEMANTICS_DATA_DIV File=Z8EM.:Z8A6TSI                    SAT 08/09/97 12:08 Page:1316

     7587    42815               %PROP_ERR_TEMP_LX_NODE;

  42817 35 050076   000134 235000 xsym               LDA     O1COM+92
        35 050077   000001 735000                    ALS     1
        35 050100   000000 236005 xsym               LDQ     DD_PRODR,AL
        35 050101   777777 376007                    ANQ     -1,DL
        35 050102   001012 756000 0                  STQ     PROC$+2
        35 050103   000151 236000 xsym               LDQ     O1COM+105
        35 050104   001012 136000 0                  SBLQ    PROC$+2
        35 050105   000001 036007                    ADLQ    1,DL
        35 050106   000017 756000 0                  STQ     I
        35 050107   050120 710000 35                 TRA     s:42820+1

  42818 35 050110   000017 235000 0                  LDA     I
        35 050111   000003 735000                    ALS     3
        35 050112   014017 236005 xsym               LDQ     O1COM+6159,AL
        35 050113   400000 316007                    CANQ    -131072,DL
        35 050114   050117 600000 35                 TZE     s:42820

  42819 35 050115   400000 236007                    LDQ     -131072,DL
        35 050116   000000 256000 30                 ORSQ    TEMP_LX_NODE

  42820 35 050117   000017 054000 0                  AOS     I
        35 050120   000017 236000 0                  LDQ     I
        35 050121   000151 116000 xsym               CMPQ    O1COM+105
        35 050122   050110 604400 35                 TMOZ    s:42818

     7588    42823               %ADD_LX_STK_TO_LIST_HEAD (@LIST$ = "ADDR(TEMP_LX_NODE)",
     7589    42824                                         @FROM = "O1COM.LX_TOP - 2");

  42831 35 050123   000670 630400 36                 EPPR0   440
        35 050124   000025 631400 36                 EPPR1   21
        35 050125   000000 701000 xent               TSX1    Z8ED$NEW_HEAP
        35 050126   000000 011000                    NOP     0

  42834 35 050127   000151 235000 xsym               LDA     O1COM+105
PL6.E3A0      #001=Z8EM$SEMANTICS_DATA_DIV File=Z8EM.:Z8A6TSI                    SAT 08/09/97 12:08 Page:1317
        35 050130   000005 735000                    ALS     5
        35 050131   000000 470400 29                 LDP0    HEAP$
        35 050132   000100 100405                    MLR     fill='000'O
        35 050133   013777 000040 xsym               ADSC9   O1COM+6143,A             cn=0,n=32
        35 050134   000000 000040                    ADSC9   0,,PR0                   cn=0,n=32

  42840 35 050135   000004 236000 30                 LDQ     TEMP_LX_NODE+4
        35 050136   000000 470400 29                 LDP0    HEAP$
        35 050137   000007 756100                    STQ     7,,PR0

  42841 35 050140   000000 236000 29                 LDQ     HEAP$
        35 050141   000004 756000 30                 STQ     TEMP_LX_NODE+4

  42842 35 050142   000002 235000 30                 LDA     TEMP_LX_NODE+2
        35 050143   050145 601000 35                 TNZ     s:42844

  42843 35 050144   000001 756000 30                 STQ     TEMP_LX_NODE+1

  42844 35 050145   000002 054000 30                 AOS     TEMP_LX_NODE+2

     7590    42849               %PROPAGATE_TEMP_LX_NODE;

  42851 35 050146   000134 235000 xsym               LDA     O1COM+92
        35 050147   000001 735000                    ALS     1
        35 050150   000000 236005 xsym               LDQ     DD_PRODR,AL
        35 050151   777777 376007                    ANQ     -1,DL
        35 050152   001012 756000 0                  STQ     PROC$+2
        35 050153   000151 236000 xsym               LDQ     O1COM+105
        35 050154   001012 136000 0                  SBLQ    PROC$+2
        35 050155   000005 736000                    QLS     5
        35 050156   000006 100400                    MLR     fill='000'O
        35 050157   000000 000040 30                 ADSC9   TEMP_LX_NODE             cn=0,n=32
        35 050160   014027 000040 xsym               ADSC9   O1COM+6167,Q             cn=0,n=32

  42852 35 050161   056641 710000 35                 TRA     s:45674

     7591    42854
PL6.E3A0      #001=Z8EM$SEMANTICS_DATA_DIV File=Z8EM.:Z8A6TSI                    SAT 08/09/97 12:08 Page:1318
     7592    42855        %EJECT;
PL6.E3A0      #001=Z8EM$SEMANTICS_DATA_DIV File=Z8EM.:Z8A6TSI                    SAT 08/09/97 12:08 Page:1319
     7593    42856        /*
     7594    42857                               Sub-Schema Section
     7595    42858        */
     7596    42859    2     CASE(%ACT_CREATE_UWA);

     7597    42860
     7598    42861    2          CALL Z8DM$DML_UWA ( ADDR(O1COM.LX_STK(O1COM.LX_TOP - 1)),
     7599    42862    2                              ADDR(O1COM.LX_STK(O1COM.LX_TOP - 2)),
     7600    42863    2                              ADDR(O1COM.LX_STK(O1COM.LX_TOP - 4)),
     7601    42864    2                              ADDR(O1COM.LX_STK(O1COM.LX_TOP)));

  42864 35 050162   000151 236000 xsym               LDQ     O1COM+105
        35 050163   000025 736000                    QLS     21
        35 050164   000640 036000 36                 ADLQ    416
        35 050165   001012 756000 0                  STQ     PROC$+2
        35 050166   000151 236000 xsym               LDQ     O1COM+105
        35 050167   000025 736000                    QLS     21
        35 050170   000236 036000 36                 ADLQ    158
        35 050171   001013 756000 0                  STQ     PROC$+3
        35 050172   000151 236000 xsym               LDQ     O1COM+105
        35 050173   000025 736000                    QLS     21
        35 050174   000242 036000 36                 ADLQ    162
        35 050175   001014 756000 0                  STQ     PROC$+4
        35 050176   000151 236000 xsym               LDQ     O1COM+105
        35 050177   000025 736000                    QLS     21
        35 050200   000631 036000 36                 ADLQ    409
        35 050201   001015 756000 0                  STQ     PROC$+5
        35 050202   001015 630400 0                  EPPR0   PROC$+5
        35 050203   001021 450400 0                  STP0    PROC$+9
        35 050204   001014 631400 0                  EPPR1   PROC$+4
        35 050205   001020 451400 0                  STP1    PROC$+8
        35 050206   001013 633400 0                  EPPR3   PROC$+3
        35 050207   001017 453400 0                  STP3    PROC$+7
        35 050210   001012 634400 0                  EPPR4   PROC$+2
        35 050211   001016 454400 0                  STP4    PROC$+6
        35 050212   001016 630400 0                  EPPR0   PROC$+6
        35 050213   000005 631400 36                 EPPR1   5
PL6.E3A0      #001=Z8EM$SEMANTICS_DATA_DIV File=Z8EM.:Z8A6TSI                    SAT 08/09/97 12:08 Page:1320
        35 050214   000000 701000 xent               TSX1    Z8DM$DML_UWA
        35 050215   000000 011000                    NOP     0
        35 050216   056641 710000 35                 TRA     s:45674

     7602    42865
     7603    42866    2      CASE(%ACT_PRIVACY);

     7604    42867
     7605    42868               %PROPAGATE;

  42870 35 050217   000134 236000 xsym               LDQ     O1COM+92
        35 050220   000001 736000                    QLS     1
        35 050221   000000 236006 xsym               LDQ     DD_PRODR,QL
        35 050222   777777 376007                    ANQ     -1,DL
        35 050223   001012 756000 0                  STQ     PROC$+2
        35 050224   000151 236000 xsym               LDQ     O1COM+105
        35 050225   001012 136000 0                  SBLQ    PROC$+2
        35 050226   000151 235000 xsym               LDA     O1COM+105
        35 050227   000005 735000                    ALS     5
        35 050230   000005 736000                    QLS     5
        35 050231   000006 100405                    MLR     fill='000'O
        35 050232   014017 000040 xsym               ADSC9   O1COM+6159,A             cn=0,n=32
        35 050233   014027 000040 xsym               ADSC9   O1COM+6167,Q             cn=0,n=32

  42871 35 050234   056641 710000 35                 TRA     s:45674

     7606    42873
     7607    42874        %EJECT;
PL6.E3A0      #001=Z8EM$SEMANTICS_DATA_DIV File=Z8EM.:Z8A6TSI                    SAT 08/09/97 12:08 Page:1321
     7608    42875        /*
     7609    42876                               Record declarations
     7610    42877        */
     7611    42878    2     CASE(%ACT_FILLER_CLAUSE);

     7612    42879               /* Pass =empty= up as FILLER */
     7613    42880    2          IF O1COM.LX_STK.SYMBOL(O1COM.LX_TOP) = %EMPTY THEN

  42880 35 050235   000151 236000 xsym               LDQ     O1COM+105
        35 050236   000003 736000                    QLS     3
        35 050237   014022 235006 xsym               LDA     O1COM+6162,QL
        35 050240   056641 601000 35                 TNZ     s:45674

     7614    42881    3            DO;

     7615    42882    3              O1COM.LX_STK.DNT$(O1COM.LX_TOP) = DNT$_FROM_RSWNO(%RSV_WRD_FILLER);

  42882 35 050241   000000 620006                    EAX0    0,QL
        35 050242   000320 236000 xsym               LDQ     DNT$_FROM_RSWNO+208
        35 050243   014021 756010 xsym               STQ     O1COM+6161,X0

     7616    42883    3              O1COM.LX_STK.SYMBOL(O1COM.LX_TOP) = %RSV_WRD_FILLER;

  42883 35 050244   000151 235000 xsym               LDA     O1COM+105
        35 050245   000003 735000                    ALS     3
        35 050246   000320 236007                    LDQ     208,DL
        35 050247   014022 756005 xsym               STQ     O1COM+6162,AL

     7617    42884    3            END;

  42884 35 050250   056641 710000 35                 TRA     s:45674

     7618    42885
     7619    42886    2     CASE(%ACT_DECL_RESERVED_WORD);

     7620    42887               /* Set flag so LEX will change reserved word to data name */
     7621    42888    2          O1COM.RECORD_DCL = TRUE;
PL6.E3A0      #001=Z8EM$SEMANTICS_DATA_DIV File=Z8EM.:Z8A6TSI                    SAT 08/09/97 12:08 Page:1322

  42888 35 050251   400000 236003                    LDQ     -131072,DU
        35 050252   000012 756000 xsym               STQ     O1COM+10
        35 050253   056641 710000 35                 TRA     s:45674

     7622    42889
     7623    42890    2     CASE(%ACT_DD_CLAUSE_REDEFINES);

     7624    42891
     7625    42892               %CREATE_DD_CLAUSE (@POINTER = REDEFINES$,
     7626    42893                                  @FIELD_NO = %REC_DECL_REDEFINES);

  42898 35 050254   000001 220003                    LDX0    1,DU
        35 050255   000000 740000 30                 STX0    TEMP_LX_NODE

  42899 35 050256   000024 236000 36                 LDQ     20
        35 050257   000001 756000 30                 STQ     TEMP_LX_NODE+1

  42900 35 050260   000007 756000 30                 STQ     TEMP_LX_NODE+7

  42912 35 050261   001077 630400 36                 EPPR0   575
        35 050262   000025 631400 36                 EPPR1   21
        35 050263   000000 701000 xent               TSX1    Z8ED$NEW_HEAP
        35 050264   000000 011000                    NOP     0

  42916 35 050265   000003 220003                    LDX0    3,DU
        35 050266   000000 470400 29                 LDP0    HEAP$
        35 050267   000000 740100                    STX0    0,,PR0

  42917 35 050270   000000 470400 29                 LDP0    HEAP$
        35 050271   000041 450100                    STZ     33,,PR0

  42918 35 050272   000017 450000 0                  STZ     I

  42919 35 050273   000024 236000 36                 LDQ     20
        35 050274   000000 470400 29                 LDP0    HEAP$
        35 050275   000017 720000 0                  LXL0    I
PL6.E3A0      #001=Z8EM$SEMANTICS_DATA_DIV File=Z8EM.:Z8A6TSI                    SAT 08/09/97 12:08 Page:1323
        35 050276   000001 756110                    STQ     1,X0,PR0

  42920 35 050277   000000 470400 29                 LDP0    HEAP$
        35 050300   000021 450110                    STZ     17,X0,PR0

  42921 35 050301   000017 054000 0                  AOS     I
        35 050302   000017 235000 0                  LDA     I
        35 050303   000017 115007                    CMPA    15,DL
        35 050304   050273 604400 35                 TMOZ    s:42919

  42924 35 050305   000000 236000 29                 LDQ     HEAP$
        35 050306   000001 756000 30                 STQ     TEMP_LX_NODE+1

  42931 35 050307   000670 630400 36                 EPPR0   440
        35 050310   000025 631400 36                 EPPR1   21
        35 050311   000000 701000 xent               TSX1    Z8ED$NEW_HEAP
        35 050312   000000 011000                    NOP     0

  42934 35 050313   000151 235000 xsym               LDA     O1COM+105
        35 050314   000005 735000                    ALS     5
        35 050315   000000 470400 29                 LDP0    HEAP$
        35 050316   000100 100405                    MLR     fill='000'O
        35 050317   014017 000040 xsym               ADSC9   O1COM+6159,A             cn=0,n=32
        35 050320   000000 000040                    ADSC9   0,,PR0                   cn=0,n=32

  42937 35 050321   000000 236000 29                 LDQ     HEAP$
        35 050322   000001 470400 30                 LDP0    TEMP_LX_NODE+1
        35 050323   000005 756100                    STQ     5,,PR0

  42938 35 050324   000001 235007                    LDA     1,DL
        35 050325   000041 755100                    STA     33,,PR0

  42939 35 050326   000025 755100                    STA     21,,PR0

  42942 35 050327   000134 235000 xsym               LDA     O1COM+92
        35 050330   000001 735000                    ALS     1
        35 050331   000000 236005 xsym               LDQ     DD_PRODR,AL
PL6.E3A0      #001=Z8EM$SEMANTICS_DATA_DIV File=Z8EM.:Z8A6TSI                    SAT 08/09/97 12:08 Page:1324
        35 050332   777777 376007                    ANQ     -1,DL
        35 050333   001012 756000 0                  STQ     PROC$+2
        35 050334   000151 236000 xsym               LDQ     O1COM+105
        35 050335   001012 136000 0                  SBLQ    PROC$+2
        35 050336   000005 736000                    QLS     5
        35 050337   000006 100400                    MLR     fill='000'O
        35 050340   000000 000040 30                 ADSC9   TEMP_LX_NODE             cn=0,n=32
        35 050341   014027 000040 xsym               ADSC9   O1COM+6167,Q             cn=0,n=32

  42945 35 050342   056641 710000 35                 TRA     s:45674

     7627    42947
     7628    42948    2     CASE(%ACT_DD_CLAUSE_EXTERNAL);

     7629    42949
     7630    42950               %CREATE_DD_CLAUSE (@POINTER = EXTERNAL$,
     7631    42951                                  @FIELD_NO = %REC_DECL_EXTERNAL);

  42956 35 050343   000001 220003                    LDX0    1,DU
        35 050344   000000 740000 30                 STX0    TEMP_LX_NODE

  42957 35 050345   000024 236000 36                 LDQ     20
        35 050346   000001 756000 30                 STQ     TEMP_LX_NODE+1

  42958 35 050347   000007 756000 30                 STQ     TEMP_LX_NODE+7

  42970 35 050350   001077 630400 36                 EPPR0   575
        35 050351   000025 631400 36                 EPPR1   21
        35 050352   000000 701000 xent               TSX1    Z8ED$NEW_HEAP
        35 050353   000000 011000                    NOP     0

  42974 35 050354   000003 220003                    LDX0    3,DU
        35 050355   000000 470400 29                 LDP0    HEAP$
        35 050356   000000 740100                    STX0    0,,PR0

  42975 35 050357   000000 470400 29                 LDP0    HEAP$
        35 050360   000041 450100                    STZ     33,,PR0
PL6.E3A0      #001=Z8EM$SEMANTICS_DATA_DIV File=Z8EM.:Z8A6TSI                    SAT 08/09/97 12:08 Page:1325

  42976 35 050361   000017 450000 0                  STZ     I

  42977 35 050362   000024 236000 36                 LDQ     20
        35 050363   000000 470400 29                 LDP0    HEAP$
        35 050364   000017 720000 0                  LXL0    I
        35 050365   000001 756110                    STQ     1,X0,PR0

  42978 35 050366   000000 470400 29                 LDP0    HEAP$
        35 050367   000021 450110                    STZ     17,X0,PR0

  42979 35 050370   000017 054000 0                  AOS     I
        35 050371   000017 235000 0                  LDA     I
        35 050372   000017 115007                    CMPA    15,DL
        35 050373   050362 604400 35                 TMOZ    s:42977

  42982 35 050374   000000 236000 29                 LDQ     HEAP$
        35 050375   000001 756000 30                 STQ     TEMP_LX_NODE+1

  42989 35 050376   000670 630400 36                 EPPR0   440
        35 050377   000025 631400 36                 EPPR1   21
        35 050400   000000 701000 xent               TSX1    Z8ED$NEW_HEAP
        35 050401   000000 011000                    NOP     0

  42992 35 050402   000151 235000 xsym               LDA     O1COM+105
        35 050403   000005 735000                    ALS     5
        35 050404   000000 470400 29                 LDP0    HEAP$
        35 050405   000100 100405                    MLR     fill='000'O
        35 050406   014017 000040 xsym               ADSC9   O1COM+6159,A             cn=0,n=32
        35 050407   000000 000040                    ADSC9   0,,PR0                   cn=0,n=32

  42995 35 050410   000000 236000 29                 LDQ     HEAP$
        35 050411   000001 470400 30                 LDP0    TEMP_LX_NODE+1
        35 050412   000015 756100                    STQ     13,,PR0

  42996 35 050413   000001 235007                    LDA     1,DL
        35 050414   000041 755100                    STA     33,,PR0
PL6.E3A0      #001=Z8EM$SEMANTICS_DATA_DIV File=Z8EM.:Z8A6TSI                    SAT 08/09/97 12:08 Page:1326

  42997 35 050415   000035 755100                    STA     29,,PR0

  43000 35 050416   000134 235000 xsym               LDA     O1COM+92
        35 050417   000001 735000                    ALS     1
        35 050420   000000 236005 xsym               LDQ     DD_PRODR,AL
        35 050421   777777 376007                    ANQ     -1,DL
        35 050422   001012 756000 0                  STQ     PROC$+2
        35 050423   000151 236000 xsym               LDQ     O1COM+105
        35 050424   001012 136000 0                  SBLQ    PROC$+2
        35 050425   000005 736000                    QLS     5
        35 050426   000006 100400                    MLR     fill='000'O
        35 050427   000000 000040 30                 ADSC9   TEMP_LX_NODE             cn=0,n=32
        35 050430   014027 000040 xsym               ADSC9   O1COM+6167,Q             cn=0,n=32

  43003 35 050431   056641 710000 35                 TRA     s:45674

     7632    43005
     7633    43006    2     CASE(%ACT_DD_CLAUSE_GLOBAL);

     7634    43007
     7635    43008               %CREATE_DD_CLAUSE (@POINTER = GLOBAL$,
     7636    43009                                  @FIELD_NO = %REC_DECL_GLOBAL);

  43014 35 050432   000001 220003                    LDX0    1,DU
        35 050433   000000 740000 30                 STX0    TEMP_LX_NODE

  43015 35 050434   000024 236000 36                 LDQ     20
        35 050435   000001 756000 30                 STQ     TEMP_LX_NODE+1

  43016 35 050436   000007 756000 30                 STQ     TEMP_LX_NODE+7

  43028 35 050437   001077 630400 36                 EPPR0   575
        35 050440   000025 631400 36                 EPPR1   21
        35 050441   000000 701000 xent               TSX1    Z8ED$NEW_HEAP
        35 050442   000000 011000                    NOP     0

PL6.E3A0      #001=Z8EM$SEMANTICS_DATA_DIV File=Z8EM.:Z8A6TSI                    SAT 08/09/97 12:08 Page:1327
  43032 35 050443   000003 220003                    LDX0    3,DU
        35 050444   000000 470400 29                 LDP0    HEAP$
        35 050445   000000 740100                    STX0    0,,PR0

  43033 35 050446   000000 470400 29                 LDP0    HEAP$
        35 050447   000041 450100                    STZ     33,,PR0

  43034 35 050450   000017 450000 0                  STZ     I

  43035 35 050451   000024 236000 36                 LDQ     20
        35 050452   000000 470400 29                 LDP0    HEAP$
        35 050453   000017 720000 0                  LXL0    I
        35 050454   000001 756110                    STQ     1,X0,PR0

  43036 35 050455   000000 470400 29                 LDP0    HEAP$
        35 050456   000021 450110                    STZ     17,X0,PR0

  43037 35 050457   000017 054000 0                  AOS     I
        35 050460   000017 235000 0                  LDA     I
        35 050461   000017 115007                    CMPA    15,DL
        35 050462   050451 604400 35                 TMOZ    s:43035

  43040 35 050463   000000 236000 29                 LDQ     HEAP$
        35 050464   000001 756000 30                 STQ     TEMP_LX_NODE+1

  43047 35 050465   000670 630400 36                 EPPR0   440
        35 050466   000025 631400 36                 EPPR1   21
        35 050467   000000 701000 xent               TSX1    Z8ED$NEW_HEAP
        35 050470   000000 011000                    NOP     0

  43050 35 050471   000151 235000 xsym               LDA     O1COM+105
        35 050472   000005 735000                    ALS     5
        35 050473   000000 470400 29                 LDP0    HEAP$
        35 050474   000100 100405                    MLR     fill='000'O
        35 050475   014017 000040 xsym               ADSC9   O1COM+6159,A             cn=0,n=32
        35 050476   000000 000040                    ADSC9   0,,PR0                   cn=0,n=32

PL6.E3A0      #001=Z8EM$SEMANTICS_DATA_DIV File=Z8EM.:Z8A6TSI                    SAT 08/09/97 12:08 Page:1328
  43053 35 050477   000000 236000 29                 LDQ     HEAP$
        35 050500   000001 470400 30                 LDP0    TEMP_LX_NODE+1
        35 050501   000013 756100                    STQ     11,,PR0

  43054 35 050502   000001 235007                    LDA     1,DL
        35 050503   000041 755100                    STA     33,,PR0

  43055 35 050504   000033 755100                    STA     27,,PR0

  43058 35 050505   000134 235000 xsym               LDA     O1COM+92
        35 050506   000001 735000                    ALS     1
        35 050507   000000 236005 xsym               LDQ     DD_PRODR,AL
        35 050510   777777 376007                    ANQ     -1,DL
        35 050511   001012 756000 0                  STQ     PROC$+2
        35 050512   000151 236000 xsym               LDQ     O1COM+105
        35 050513   001012 136000 0                  SBLQ    PROC$+2
        35 050514   000005 736000                    QLS     5
        35 050515   000006 100400                    MLR     fill='000'O
        35 050516   000000 000040 30                 ADSC9   TEMP_LX_NODE             cn=0,n=32
        35 050517   014027 000040 xsym               ADSC9   O1COM+6167,Q             cn=0,n=32

  43061 35 050520   056641 710000 35                 TRA     s:45674

     7637    43063
     7638    43064    2     CASE(%ACT_DD_CLAUSE_PICTURE);

     7639    43065
     7640    43066               %CREATE_DD_CLAUSE (@POINTER = PIC_CLAUSE$,
     7641    43067                                  @FIELD_NO = %REC_DECL_PIC_CLAUSE);

  43072 35 050521   000001 220003                    LDX0    1,DU
        35 050522   000000 740000 30                 STX0    TEMP_LX_NODE

  43073 35 050523   000024 236000 36                 LDQ     20
        35 050524   000001 756000 30                 STQ     TEMP_LX_NODE+1

  43074 35 050525   000007 756000 30                 STQ     TEMP_LX_NODE+7
PL6.E3A0      #001=Z8EM$SEMANTICS_DATA_DIV File=Z8EM.:Z8A6TSI                    SAT 08/09/97 12:08 Page:1329

  43086 35 050526   001077 630400 36                 EPPR0   575
        35 050527   000025 631400 36                 EPPR1   21
        35 050530   000000 701000 xent               TSX1    Z8ED$NEW_HEAP
        35 050531   000000 011000                    NOP     0

  43090 35 050532   000003 220003                    LDX0    3,DU
        35 050533   000000 470400 29                 LDP0    HEAP$
        35 050534   000000 740100                    STX0    0,,PR0

  43091 35 050535   000000 470400 29                 LDP0    HEAP$
        35 050536   000041 450100                    STZ     33,,PR0

  43092 35 050537   000017 450000 0                  STZ     I

  43093 35 050540   000024 236000 36                 LDQ     20
        35 050541   000000 470400 29                 LDP0    HEAP$
        35 050542   000017 720000 0                  LXL0    I
        35 050543   000001 756110                    STQ     1,X0,PR0

  43094 35 050544   000000 470400 29                 LDP0    HEAP$
        35 050545   000021 450110                    STZ     17,X0,PR0

  43095 35 050546   000017 054000 0                  AOS     I
        35 050547   000017 235000 0                  LDA     I
        35 050550   000017 115007                    CMPA    15,DL
        35 050551   050540 604400 35                 TMOZ    s:43093

  43098 35 050552   000000 236000 29                 LDQ     HEAP$
        35 050553   000001 756000 30                 STQ     TEMP_LX_NODE+1

  43105 35 050554   000670 630400 36                 EPPR0   440
        35 050555   000025 631400 36                 EPPR1   21
        35 050556   000000 701000 xent               TSX1    Z8ED$NEW_HEAP
        35 050557   000000 011000                    NOP     0

  43108 35 050560   000151 235000 xsym               LDA     O1COM+105
PL6.E3A0      #001=Z8EM$SEMANTICS_DATA_DIV File=Z8EM.:Z8A6TSI                    SAT 08/09/97 12:08 Page:1330
        35 050561   000005 735000                    ALS     5
        35 050562   000000 470400 29                 LDP0    HEAP$
        35 050563   000100 100405                    MLR     fill='000'O
        35 050564   014017 000040 xsym               ADSC9   O1COM+6159,A             cn=0,n=32
        35 050565   000000 000040                    ADSC9   0,,PR0                   cn=0,n=32

  43111 35 050566   000000 236000 29                 LDQ     HEAP$
        35 050567   000001 470400 30                 LDP0    TEMP_LX_NODE+1
        35 050570   000004 756100                    STQ     4,,PR0

  43112 35 050571   000001 235007                    LDA     1,DL
        35 050572   000041 755100                    STA     33,,PR0

  43113 35 050573   000024 755100                    STA     20,,PR0

  43116 35 050574   000134 235000 xsym               LDA     O1COM+92
        35 050575   000001 735000                    ALS     1
        35 050576   000000 236005 xsym               LDQ     DD_PRODR,AL
        35 050577   777777 376007                    ANQ     -1,DL
        35 050600   001012 756000 0                  STQ     PROC$+2
        35 050601   000151 236000 xsym               LDQ     O1COM+105
        35 050602   001012 136000 0                  SBLQ    PROC$+2
        35 050603   000005 736000                    QLS     5
        35 050604   000006 100400                    MLR     fill='000'O
        35 050605   000000 000040 30                 ADSC9   TEMP_LX_NODE             cn=0,n=32
        35 050606   014027 000040 xsym               ADSC9   O1COM+6167,Q             cn=0,n=32

  43119 35 050607   056641 710000 35                 TRA     s:45674

     7642    43121
     7643    43122
     7644    43123    2     CASE(%ACT_DD_CLAUSE_USAGE);

     7645    43124
     7646    43125               %CREATE_DD_CLAUSE (@POINTER = USAGE$,
     7647    43126                                  @FIELD_NO = %REC_DECL_USAGE);

PL6.E3A0      #001=Z8EM$SEMANTICS_DATA_DIV File=Z8EM.:Z8A6TSI                    SAT 08/09/97 12:08 Page:1331
  43131 35 050610   000001 220003                    LDX0    1,DU
        35 050611   000000 740000 30                 STX0    TEMP_LX_NODE

  43132 35 050612   000024 236000 36                 LDQ     20
        35 050613   000001 756000 30                 STQ     TEMP_LX_NODE+1

  43133 35 050614   000007 756000 30                 STQ     TEMP_LX_NODE+7

  43145 35 050615   001077 630400 36                 EPPR0   575
        35 050616   000025 631400 36                 EPPR1   21
        35 050617   000000 701000 xent               TSX1    Z8ED$NEW_HEAP
        35 050620   000000 011000                    NOP     0

  43149 35 050621   000003 220003                    LDX0    3,DU
        35 050622   000000 470400 29                 LDP0    HEAP$
        35 050623   000000 740100                    STX0    0,,PR0

  43150 35 050624   000000 470400 29                 LDP0    HEAP$
        35 050625   000041 450100                    STZ     33,,PR0

  43151 35 050626   000017 450000 0                  STZ     I

  43152 35 050627   000024 236000 36                 LDQ     20
        35 050630   000000 470400 29                 LDP0    HEAP$
        35 050631   000017 720000 0                  LXL0    I
        35 050632   000001 756110                    STQ     1,X0,PR0

  43153 35 050633   000000 470400 29                 LDP0    HEAP$
        35 050634   000021 450110                    STZ     17,X0,PR0

  43154 35 050635   000017 054000 0                  AOS     I
        35 050636   000017 235000 0                  LDA     I
        35 050637   000017 115007                    CMPA    15,DL
        35 050640   050627 604400 35                 TMOZ    s:43152

  43157 35 050641   000000 236000 29                 LDQ     HEAP$
        35 050642   000001 756000 30                 STQ     TEMP_LX_NODE+1
PL6.E3A0      #001=Z8EM$SEMANTICS_DATA_DIV File=Z8EM.:Z8A6TSI                    SAT 08/09/97 12:08 Page:1332

  43164 35 050643   000670 630400 36                 EPPR0   440
        35 050644   000025 631400 36                 EPPR1   21
        35 050645   000000 701000 xent               TSX1    Z8ED$NEW_HEAP
        35 050646   000000 011000                    NOP     0

  43167 35 050647   000151 235000 xsym               LDA     O1COM+105
        35 050650   000005 735000                    ALS     5
        35 050651   000000 470400 29                 LDP0    HEAP$
        35 050652   000100 100405                    MLR     fill='000'O
        35 050653   014017 000040 xsym               ADSC9   O1COM+6159,A             cn=0,n=32
        35 050654   000000 000040                    ADSC9   0,,PR0                   cn=0,n=32

  43170 35 050655   000000 236000 29                 LDQ     HEAP$
        35 050656   000001 470400 30                 LDP0    TEMP_LX_NODE+1
        35 050657   000003 756100                    STQ     3,,PR0

  43171 35 050660   000001 235007                    LDA     1,DL
        35 050661   000041 755100                    STA     33,,PR0

  43172 35 050662   000023 755100                    STA     19,,PR0

  43175 35 050663   000134 235000 xsym               LDA     O1COM+92
        35 050664   000001 735000                    ALS     1
        35 050665   000000 236005 xsym               LDQ     DD_PRODR,AL
        35 050666   777777 376007                    ANQ     -1,DL
        35 050667   001012 756000 0                  STQ     PROC$+2
        35 050670   000151 236000 xsym               LDQ     O1COM+105
        35 050671   001012 136000 0                  SBLQ    PROC$+2
        35 050672   000005 736000                    QLS     5
        35 050673   000006 100400                    MLR     fill='000'O
        35 050674   000000 000040 30                 ADSC9   TEMP_LX_NODE             cn=0,n=32
        35 050675   014027 000040 xsym               ADSC9   O1COM+6167,Q             cn=0,n=32

  43178 35 050676   056641 710000 35                 TRA     s:45674

     7648    43180
PL6.E3A0      #001=Z8EM$SEMANTICS_DATA_DIV File=Z8EM.:Z8A6TSI                    SAT 08/09/97 12:08 Page:1333
     7649    43181    2     CASE(%ACT_DD_CLAUSE_SYNC);

     7650    43182
     7651    43183               %CREATE_DD_CLAUSE (@POINTER = SYNC$,
     7652    43184                                  @FIELD_NO = %REC_DECL_SYNC);

  43189 35 050677   000001 220003                    LDX0    1,DU
        35 050700   000000 740000 30                 STX0    TEMP_LX_NODE

  43190 35 050701   000024 236000 36                 LDQ     20
        35 050702   000001 756000 30                 STQ     TEMP_LX_NODE+1

  43191 35 050703   000007 756000 30                 STQ     TEMP_LX_NODE+7

  43203 35 050704   001077 630400 36                 EPPR0   575
        35 050705   000025 631400 36                 EPPR1   21
        35 050706   000000 701000 xent               TSX1    Z8ED$NEW_HEAP
        35 050707   000000 011000                    NOP     0

  43207 35 050710   000003 220003                    LDX0    3,DU
        35 050711   000000 470400 29                 LDP0    HEAP$
        35 050712   000000 740100                    STX0    0,,PR0

  43208 35 050713   000000 470400 29                 LDP0    HEAP$
        35 050714   000041 450100                    STZ     33,,PR0

  43209 35 050715   000017 450000 0                  STZ     I

  43210 35 050716   000024 236000 36                 LDQ     20
        35 050717   000000 470400 29                 LDP0    HEAP$
        35 050720   000017 720000 0                  LXL0    I
        35 050721   000001 756110                    STQ     1,X0,PR0

  43211 35 050722   000000 470400 29                 LDP0    HEAP$
        35 050723   000021 450110                    STZ     17,X0,PR0

  43212 35 050724   000017 054000 0                  AOS     I
PL6.E3A0      #001=Z8EM$SEMANTICS_DATA_DIV File=Z8EM.:Z8A6TSI                    SAT 08/09/97 12:08 Page:1334
        35 050725   000017 235000 0                  LDA     I
        35 050726   000017 115007                    CMPA    15,DL
        35 050727   050716 604400 35                 TMOZ    s:43210

  43215 35 050730   000000 236000 29                 LDQ     HEAP$
        35 050731   000001 756000 30                 STQ     TEMP_LX_NODE+1

  43222 35 050732   000670 630400 36                 EPPR0   440
        35 050733   000025 631400 36                 EPPR1   21
        35 050734   000000 701000 xent               TSX1    Z8ED$NEW_HEAP
        35 050735   000000 011000                    NOP     0

  43225 35 050736   000151 235000 xsym               LDA     O1COM+105
        35 050737   000005 735000                    ALS     5
        35 050740   000000 470400 29                 LDP0    HEAP$
        35 050741   000100 100405                    MLR     fill='000'O
        35 050742   014017 000040 xsym               ADSC9   O1COM+6159,A             cn=0,n=32
        35 050743   000000 000040                    ADSC9   0,,PR0                   cn=0,n=32

  43228 35 050744   000000 236000 29                 LDQ     HEAP$
        35 050745   000001 470400 30                 LDP0    TEMP_LX_NODE+1
        35 050746   000014 756100                    STQ     12,,PR0

  43229 35 050747   000001 235007                    LDA     1,DL
        35 050750   000041 755100                    STA     33,,PR0

  43230 35 050751   000034 755100                    STA     28,,PR0

  43233 35 050752   000134 235000 xsym               LDA     O1COM+92
        35 050753   000001 735000                    ALS     1
        35 050754   000000 236005 xsym               LDQ     DD_PRODR,AL
        35 050755   777777 376007                    ANQ     -1,DL
        35 050756   001012 756000 0                  STQ     PROC$+2
        35 050757   000151 236000 xsym               LDQ     O1COM+105
        35 050760   001012 136000 0                  SBLQ    PROC$+2
        35 050761   000005 736000                    QLS     5
        35 050762   000006 100400                    MLR     fill='000'O
PL6.E3A0      #001=Z8EM$SEMANTICS_DATA_DIV File=Z8EM.:Z8A6TSI                    SAT 08/09/97 12:08 Page:1335
        35 050763   000000 000040 30                 ADSC9   TEMP_LX_NODE             cn=0,n=32
        35 050764   014027 000040 xsym               ADSC9   O1COM+6167,Q             cn=0,n=32

  43236 35 050765   056641 710000 35                 TRA     s:45674

     7653    43238
     7654    43239    2     CASE(%ACT_DD_CLAUSE_JUSTIFIED);

     7655    43240
     7656    43241               %CREATE_DD_CLAUSE (@POINTER = JUSTIFIED$,
     7657    43242                                  @FIELD_NO = %REC_DECL_JUSTIFIED);

  43247 35 050766   000001 220003                    LDX0    1,DU
        35 050767   000000 740000 30                 STX0    TEMP_LX_NODE

  43248 35 050770   000024 236000 36                 LDQ     20
        35 050771   000001 756000 30                 STQ     TEMP_LX_NODE+1

  43249 35 050772   000007 756000 30                 STQ     TEMP_LX_NODE+7

  43261 35 050773   001077 630400 36                 EPPR0   575
        35 050774   000025 631400 36                 EPPR1   21
        35 050775   000000 701000 xent               TSX1    Z8ED$NEW_HEAP
        35 050776   000000 011000                    NOP     0

  43265 35 050777   000003 220003                    LDX0    3,DU
        35 051000   000000 470400 29                 LDP0    HEAP$
        35 051001   000000 740100                    STX0    0,,PR0

  43266 35 051002   000000 470400 29                 LDP0    HEAP$
        35 051003   000041 450100                    STZ     33,,PR0

  43267 35 051004   000017 450000 0                  STZ     I

  43268 35 051005   000024 236000 36                 LDQ     20
        35 051006   000000 470400 29                 LDP0    HEAP$
        35 051007   000017 720000 0                  LXL0    I
PL6.E3A0      #001=Z8EM$SEMANTICS_DATA_DIV File=Z8EM.:Z8A6TSI                    SAT 08/09/97 12:08 Page:1336
        35 051010   000001 756110                    STQ     1,X0,PR0

  43269 35 051011   000000 470400 29                 LDP0    HEAP$
        35 051012   000021 450110                    STZ     17,X0,PR0

  43270 35 051013   000017 054000 0                  AOS     I
        35 051014   000017 235000 0                  LDA     I
        35 051015   000017 115007                    CMPA    15,DL
        35 051016   051005 604400 35                 TMOZ    s:43268

  43273 35 051017   000000 236000 29                 LDQ     HEAP$
        35 051020   000001 756000 30                 STQ     TEMP_LX_NODE+1

  43280 35 051021   000670 630400 36                 EPPR0   440
        35 051022   000025 631400 36                 EPPR1   21
        35 051023   000000 701000 xent               TSX1    Z8ED$NEW_HEAP
        35 051024   000000 011000                    NOP     0

  43283 35 051025   000151 235000 xsym               LDA     O1COM+105
        35 051026   000005 735000                    ALS     5
        35 051027   000000 470400 29                 LDP0    HEAP$
        35 051030   000100 100405                    MLR     fill='000'O
        35 051031   014017 000040 xsym               ADSC9   O1COM+6159,A             cn=0,n=32
        35 051032   000000 000040                    ADSC9   0,,PR0                   cn=0,n=32

  43286 35 051033   000000 236000 29                 LDQ     HEAP$
        35 051034   000001 470400 30                 LDP0    TEMP_LX_NODE+1
        35 051035   000016 756100                    STQ     14,,PR0

  43287 35 051036   000001 235007                    LDA     1,DL
        35 051037   000041 755100                    STA     33,,PR0

  43288 35 051040   000036 755100                    STA     30,,PR0

  43291 35 051041   000134 235000 xsym               LDA     O1COM+92
        35 051042   000001 735000                    ALS     1
        35 051043   000000 236005 xsym               LDQ     DD_PRODR,AL
PL6.E3A0      #001=Z8EM$SEMANTICS_DATA_DIV File=Z8EM.:Z8A6TSI                    SAT 08/09/97 12:08 Page:1337
        35 051044   777777 376007                    ANQ     -1,DL
        35 051045   001012 756000 0                  STQ     PROC$+2
        35 051046   000151 236000 xsym               LDQ     O1COM+105
        35 051047   001012 136000 0                  SBLQ    PROC$+2
        35 051050   000005 736000                    QLS     5
        35 051051   000006 100400                    MLR     fill='000'O
        35 051052   000000 000040 30                 ADSC9   TEMP_LX_NODE             cn=0,n=32
        35 051053   014027 000040 xsym               ADSC9   O1COM+6167,Q             cn=0,n=32

  43294 35 051054   056641 710000 35                 TRA     s:45674

     7658    43296
     7659    43297    2     CASE(%ACT_DD_CLAUSE_BLANK);

     7660    43298
     7661    43299               %CREATE_DD_CLAUSE (@POINTER = BLANK$,
     7662    43300                                  @FIELD_NO = %REC_DECL_BLANK);

  43305 35 051055   000001 220003                    LDX0    1,DU
        35 051056   000000 740000 30                 STX0    TEMP_LX_NODE

  43306 35 051057   000024 236000 36                 LDQ     20
        35 051060   000001 756000 30                 STQ     TEMP_LX_NODE+1

  43307 35 051061   000007 756000 30                 STQ     TEMP_LX_NODE+7

  43319 35 051062   001077 630400 36                 EPPR0   575
        35 051063   000025 631400 36                 EPPR1   21
        35 051064   000000 701000 xent               TSX1    Z8ED$NEW_HEAP
        35 051065   000000 011000                    NOP     0

  43323 35 051066   000003 220003                    LDX0    3,DU
        35 051067   000000 470400 29                 LDP0    HEAP$
        35 051070   000000 740100                    STX0    0,,PR0

  43324 35 051071   000000 470400 29                 LDP0    HEAP$
        35 051072   000041 450100                    STZ     33,,PR0
PL6.E3A0      #001=Z8EM$SEMANTICS_DATA_DIV File=Z8EM.:Z8A6TSI                    SAT 08/09/97 12:08 Page:1338

  43325 35 051073   000017 450000 0                  STZ     I

  43326 35 051074   000024 236000 36                 LDQ     20
        35 051075   000000 470400 29                 LDP0    HEAP$
        35 051076   000017 720000 0                  LXL0    I
        35 051077   000001 756110                    STQ     1,X0,PR0

  43327 35 051100   000000 470400 29                 LDP0    HEAP$
        35 051101   000021 450110                    STZ     17,X0,PR0

  43328 35 051102   000017 054000 0                  AOS     I
        35 051103   000017 235000 0                  LDA     I
        35 051104   000017 115007                    CMPA    15,DL
        35 051105   051074 604400 35                 TMOZ    s:43326

  43331 35 051106   000000 236000 29                 LDQ     HEAP$
        35 051107   000001 756000 30                 STQ     TEMP_LX_NODE+1

  43338 35 051110   000670 630400 36                 EPPR0   440
        35 051111   000025 631400 36                 EPPR1   21
        35 051112   000000 701000 xent               TSX1    Z8ED$NEW_HEAP
        35 051113   000000 011000                    NOP     0

  43341 35 051114   000151 235000 xsym               LDA     O1COM+105
        35 051115   000005 735000                    ALS     5
        35 051116   000000 470400 29                 LDP0    HEAP$
        35 051117   000100 100405                    MLR     fill='000'O
        35 051120   014017 000040 xsym               ADSC9   O1COM+6159,A             cn=0,n=32
        35 051121   000000 000040                    ADSC9   0,,PR0                   cn=0,n=32

  43344 35 051122   000000 236000 29                 LDQ     HEAP$
        35 051123   000001 470400 30                 LDP0    TEMP_LX_NODE+1
        35 051124   000012 756100                    STQ     10,,PR0

  43345 35 051125   000001 235007                    LDA     1,DL
        35 051126   000041 755100                    STA     33,,PR0
PL6.E3A0      #001=Z8EM$SEMANTICS_DATA_DIV File=Z8EM.:Z8A6TSI                    SAT 08/09/97 12:08 Page:1339

  43346 35 051127   000032 755100                    STA     26,,PR0

  43349 35 051130   000134 235000 xsym               LDA     O1COM+92
        35 051131   000001 735000                    ALS     1
        35 051132   000000 236005 xsym               LDQ     DD_PRODR,AL
        35 051133   777777 376007                    ANQ     -1,DL
        35 051134   001012 756000 0                  STQ     PROC$+2
        35 051135   000151 236000 xsym               LDQ     O1COM+105
        35 051136   001012 136000 0                  SBLQ    PROC$+2
        35 051137   000005 736000                    QLS     5
        35 051140   000006 100400                    MLR     fill='000'O
        35 051141   000000 000040 30                 ADSC9   TEMP_LX_NODE             cn=0,n=32
        35 051142   014027 000040 xsym               ADSC9   O1COM+6167,Q             cn=0,n=32

  43352 35 051143   056641 710000 35                 TRA     s:45674

     7663    43354
     7664    43355    2     CASE (%ACT_DD_CLAUSE_RENAMES);

     7665    43356
     7666    43357               %CREATE_DD_CLAUSE (@POINTER = RENAMES$,
     7667    43358                                  @FIELD_NO = %REC_DECL_RENAMES);

  43363 35 051144   000001 220003                    LDX0    1,DU
        35 051145   000000 740000 30                 STX0    TEMP_LX_NODE

  43364 35 051146   000024 236000 36                 LDQ     20
        35 051147   000001 756000 30                 STQ     TEMP_LX_NODE+1

  43365 35 051150   000007 756000 30                 STQ     TEMP_LX_NODE+7

  43377 35 051151   001077 630400 36                 EPPR0   575
        35 051152   000025 631400 36                 EPPR1   21
        35 051153   000000 701000 xent               TSX1    Z8ED$NEW_HEAP
        35 051154   000000 011000                    NOP     0

PL6.E3A0      #001=Z8EM$SEMANTICS_DATA_DIV File=Z8EM.:Z8A6TSI                    SAT 08/09/97 12:08 Page:1340
  43381 35 051155   000003 220003                    LDX0    3,DU
        35 051156   000000 470400 29                 LDP0    HEAP$
        35 051157   000000 740100                    STX0    0,,PR0

  43382 35 051160   000000 470400 29                 LDP0    HEAP$
        35 051161   000041 450100                    STZ     33,,PR0

  43383 35 051162   000017 450000 0                  STZ     I

  43384 35 051163   000024 236000 36                 LDQ     20
        35 051164   000000 470400 29                 LDP0    HEAP$
        35 051165   000017 720000 0                  LXL0    I
        35 051166   000001 756110                    STQ     1,X0,PR0

  43385 35 051167   000000 470400 29                 LDP0    HEAP$
        35 051170   000021 450110                    STZ     17,X0,PR0

  43386 35 051171   000017 054000 0                  AOS     I
        35 051172   000017 235000 0                  LDA     I
        35 051173   000017 115007                    CMPA    15,DL
        35 051174   051163 604400 35                 TMOZ    s:43384

  43389 35 051175   000000 236000 29                 LDQ     HEAP$
        35 051176   000001 756000 30                 STQ     TEMP_LX_NODE+1

  43396 35 051177   000670 630400 36                 EPPR0   440
        35 051200   000025 631400 36                 EPPR1   21
        35 051201   000000 701000 xent               TSX1    Z8ED$NEW_HEAP
        35 051202   000000 011000                    NOP     0

  43399 35 051203   000151 235000 xsym               LDA     O1COM+105
        35 051204   000005 735000                    ALS     5
        35 051205   000000 470400 29                 LDP0    HEAP$
        35 051206   000100 100405                    MLR     fill='000'O
        35 051207   014017 000040 xsym               ADSC9   O1COM+6159,A             cn=0,n=32
        35 051210   000000 000040                    ADSC9   0,,PR0                   cn=0,n=32

PL6.E3A0      #001=Z8EM$SEMANTICS_DATA_DIV File=Z8EM.:Z8A6TSI                    SAT 08/09/97 12:08 Page:1341
  43402 35 051211   000000 236000 29                 LDQ     HEAP$
        35 051212   000001 470400 30                 LDP0    TEMP_LX_NODE+1
        35 051213   000006 756100                    STQ     6,,PR0

  43403 35 051214   000001 235007                    LDA     1,DL
        35 051215   000041 755100                    STA     33,,PR0

  43404 35 051216   000026 755100                    STA     22,,PR0

  43407 35 051217   000134 235000 xsym               LDA     O1COM+92
        35 051220   000001 735000                    ALS     1
        35 051221   000000 236005 xsym               LDQ     DD_PRODR,AL
        35 051222   777777 376007                    ANQ     -1,DL
        35 051223   001012 756000 0                  STQ     PROC$+2
        35 051224   000151 236000 xsym               LDQ     O1COM+105
        35 051225   001012 136000 0                  SBLQ    PROC$+2
        35 051226   000005 736000                    QLS     5
        35 051227   000006 100400                    MLR     fill='000'O
        35 051230   000000 000040 30                 ADSC9   TEMP_LX_NODE             cn=0,n=32
        35 051231   014027 000040 xsym               ADSC9   O1COM+6167,Q             cn=0,n=32

  43410 35 051232   056641 710000 35                 TRA     s:45674

     7668    43412
     7669    43413    2     CASE(%ACT_DD_CLAUSE_SIGN);

     7670    43414
     7671    43415               %CREATE_DD_CLAUSE (@POINTER = SIGN$,
     7672    43416                                  @FIELD_NO = %REC_DECL_SIGN);

  43421 35 051233   000001 220003                    LDX0    1,DU
        35 051234   000000 740000 30                 STX0    TEMP_LX_NODE

  43422 35 051235   000024 236000 36                 LDQ     20
        35 051236   000001 756000 30                 STQ     TEMP_LX_NODE+1

  43423 35 051237   000007 756000 30                 STQ     TEMP_LX_NODE+7
PL6.E3A0      #001=Z8EM$SEMANTICS_DATA_DIV File=Z8EM.:Z8A6TSI                    SAT 08/09/97 12:08 Page:1342

  43435 35 051240   001077 630400 36                 EPPR0   575
        35 051241   000025 631400 36                 EPPR1   21
        35 051242   000000 701000 xent               TSX1    Z8ED$NEW_HEAP
        35 051243   000000 011000                    NOP     0

  43439 35 051244   000003 220003                    LDX0    3,DU
        35 051245   000000 470400 29                 LDP0    HEAP$
        35 051246   000000 740100                    STX0    0,,PR0

  43440 35 051247   000000 470400 29                 LDP0    HEAP$
        35 051250   000041 450100                    STZ     33,,PR0

  43441 35 051251   000017 450000 0                  STZ     I

  43442 35 051252   000024 236000 36                 LDQ     20
        35 051253   000000 470400 29                 LDP0    HEAP$
        35 051254   000017 720000 0                  LXL0    I
        35 051255   000001 756110                    STQ     1,X0,PR0

  43443 35 051256   000000 470400 29                 LDP0    HEAP$
        35 051257   000021 450110                    STZ     17,X0,PR0

  43444 35 051260   000017 054000 0                  AOS     I
        35 051261   000017 235000 0                  LDA     I
        35 051262   000017 115007                    CMPA    15,DL
        35 051263   051252 604400 35                 TMOZ    s:43442

  43447 35 051264   000000 236000 29                 LDQ     HEAP$
        35 051265   000001 756000 30                 STQ     TEMP_LX_NODE+1

  43454 35 051266   000670 630400 36                 EPPR0   440
        35 051267   000025 631400 36                 EPPR1   21
        35 051270   000000 701000 xent               TSX1    Z8ED$NEW_HEAP
        35 051271   000000 011000                    NOP     0

  43457 35 051272   000151 235000 xsym               LDA     O1COM+105
PL6.E3A0      #001=Z8EM$SEMANTICS_DATA_DIV File=Z8EM.:Z8A6TSI                    SAT 08/09/97 12:08 Page:1343
        35 051273   000005 735000                    ALS     5
        35 051274   000000 470400 29                 LDP0    HEAP$
        35 051275   000100 100405                    MLR     fill='000'O
        35 051276   014017 000040 xsym               ADSC9   O1COM+6159,A             cn=0,n=32
        35 051277   000000 000040                    ADSC9   0,,PR0                   cn=0,n=32

  43460 35 051300   000000 236000 29                 LDQ     HEAP$
        35 051301   000001 470400 30                 LDP0    TEMP_LX_NODE+1
        35 051302   000011 756100                    STQ     9,,PR0

  43461 35 051303   000001 235007                    LDA     1,DL
        35 051304   000041 755100                    STA     33,,PR0

  43462 35 051305   000031 755100                    STA     25,,PR0

  43465 35 051306   000134 235000 xsym               LDA     O1COM+92
        35 051307   000001 735000                    ALS     1
        35 051310   000000 236005 xsym               LDQ     DD_PRODR,AL
        35 051311   777777 376007                    ANQ     -1,DL
        35 051312   001012 756000 0                  STQ     PROC$+2
        35 051313   000151 236000 xsym               LDQ     O1COM+105
        35 051314   001012 136000 0                  SBLQ    PROC$+2
        35 051315   000005 736000                    QLS     5
        35 051316   000006 100400                    MLR     fill='000'O
        35 051317   000000 000040 30                 ADSC9   TEMP_LX_NODE             cn=0,n=32
        35 051320   014027 000040 xsym               ADSC9   O1COM+6167,Q             cn=0,n=32

  43468 35 051321   056641 710000 35                 TRA     s:45674

     7673    43470
     7674    43471    2     CASE(%ACT_DD_CLAUSE_VALUE);

     7675    43472
     7676    43473    2          IF COMCOM.OB.FIPS.LEVEL >= %INT_LEV AND

  43473 35 051322   000036 720000 xsym               LXL0    COMCOM+30
        35 051323   000002 100003                    CMPX0   2,DU
PL6.E3A0      #001=Z8EM$SEMANTICS_DATA_DIV File=Z8EM.:Z8A6TSI                    SAT 08/09/97 12:08 Page:1344
        35 051324   051360 604000 35                 TMI     s:43488
        35 051325   000151 236000 xsym               LDQ     O1COM+105
        35 051326   000003 736000                    QLS     3
        35 051327   014023 470406 xsym               LDP0    O1COM+6163,QL
        35 051330   000004 471500                    LDP1    4,,PR0
        35 051331   100000 236100                    LDQ     0,,PR1
        35 051332   004000 316007                    CANQ    2048,DL
        35 051333   051343 601000 35                 TNZ     s:43478
        35 051334   000151 236000 xsym               LDQ     O1COM+105
        35 051335   000003 736000                    QLS     3
        35 051336   014023 470406 xsym               LDP0    O1COM+6163,QL
        35 051337   000004 471500                    LDP1    4,,PR0
        35 051340   100000 236100                    LDQ     0,,PR1
        35 051341   040000 316007                    CANQ    16384,DL
        35 051342   051360 600000 35                 TZE     s:43488

     7677    43474    2            (ADDR(O1COM.LX_STK(O1COM.LX_TOP)) -> LX_LIST.HEAD$ -> LX_LIST.HEAD$
     7678    43475    2                 -> LX_TERMINAL.B.HIGH_LEV OR
     7679    43476    2             ADDR(O1COM.LX_STK(O1COM.LX_TOP)) -> LX_LIST.HEAD$ -> LX_LIST.HEAD$
     7680    43477    2                 -> LX_TERMINAL.B.ALL) THEN
     7681    43478    2              CALL Z8AE$ERROR (%E$LEVEL_CHECK,

  43478 35 051343   000151 236000 xsym               LDQ     O1COM+105
        35 051344   000025 736000                    QLS     21
        35 051345   000002 036000 36                 ADLQ    2
        35 051346   001014 756000 0                  STQ     PROC$+4
        35 051347   000151 236000 xsym               LDQ     O1COM+105
        35 051350   000025 736000                    QLS     21
        35 051351   000003 036000 36                 ADLQ    3
        35 051352   000004 235000 36                 LDA     4
        35 051353   001012 757000 0                  STAQ    PROC$+2
        35 051354   001012 630400 0                  EPPR0   PROC$+2
        35 051355   000000 631400 36                 EPPR1   0
        35 051356   000000 701000 xent               TSX1    Z8AE$ERROR
        35 051357   000000 011000                    NOP     0

     7682    43479    2                               O1COM.LX_STK.LINE(O1COM.LX_TOP - 1),
PL6.E3A0      #001=Z8EM$SEMANTICS_DATA_DIV File=Z8EM.:Z8A6TSI                    SAT 08/09/97 12:08 Page:1345
     7683    43480    2                               O1COM.LX_STK.COLUMN(O1COM.LX_TOP - 1));
     7684    43481
     7685    43482               %CREATE_DD_CLAUSE (@POINTER = VALUE$,
     7686    43483                                  @FIELD_NO = %REC_DECL_VALUE);

  43488 35 051360   000001 220003                    LDX0    1,DU
        35 051361   000000 740000 30                 STX0    TEMP_LX_NODE

  43489 35 051362   000024 236000 36                 LDQ     20
        35 051363   000001 756000 30                 STQ     TEMP_LX_NODE+1

  43490 35 051364   000007 756000 30                 STQ     TEMP_LX_NODE+7

  43502 35 051365   001077 630400 36                 EPPR0   575
        35 051366   000025 631400 36                 EPPR1   21
        35 051367   000000 701000 xent               TSX1    Z8ED$NEW_HEAP
        35 051370   000000 011000                    NOP     0

  43506 35 051371   000003 220003                    LDX0    3,DU
        35 051372   000000 470400 29                 LDP0    HEAP$
        35 051373   000000 740100                    STX0    0,,PR0

  43507 35 051374   000000 470400 29                 LDP0    HEAP$
        35 051375   000041 450100                    STZ     33,,PR0

  43508 35 051376   000017 450000 0                  STZ     I

  43509 35 051377   000024 236000 36                 LDQ     20
        35 051400   000000 470400 29                 LDP0    HEAP$
        35 051401   000017 720000 0                  LXL0    I
        35 051402   000001 756110                    STQ     1,X0,PR0

  43510 35 051403   000000 470400 29                 LDP0    HEAP$
        35 051404   000021 450110                    STZ     17,X0,PR0

  43511 35 051405   000017 054000 0                  AOS     I
        35 051406   000017 235000 0                  LDA     I
PL6.E3A0      #001=Z8EM$SEMANTICS_DATA_DIV File=Z8EM.:Z8A6TSI                    SAT 08/09/97 12:08 Page:1346
        35 051407   000017 115007                    CMPA    15,DL
        35 051410   051377 604400 35                 TMOZ    s:43509

  43514 35 051411   000000 236000 29                 LDQ     HEAP$
        35 051412   000001 756000 30                 STQ     TEMP_LX_NODE+1

  43521 35 051413   000670 630400 36                 EPPR0   440
        35 051414   000025 631400 36                 EPPR1   21
        35 051415   000000 701000 xent               TSX1    Z8ED$NEW_HEAP
        35 051416   000000 011000                    NOP     0

  43524 35 051417   000151 235000 xsym               LDA     O1COM+105
        35 051420   000005 735000                    ALS     5
        35 051421   000000 470400 29                 LDP0    HEAP$
        35 051422   000100 100405                    MLR     fill='000'O
        35 051423   014017 000040 xsym               ADSC9   O1COM+6159,A             cn=0,n=32
        35 051424   000000 000040                    ADSC9   0,,PR0                   cn=0,n=32

  43527 35 051425   000000 236000 29                 LDQ     HEAP$
        35 051426   000001 470400 30                 LDP0    TEMP_LX_NODE+1
        35 051427   000010 756100                    STQ     8,,PR0

  43528 35 051430   000001 235007                    LDA     1,DL
        35 051431   000041 755100                    STA     33,,PR0

  43529 35 051432   000030 755100                    STA     24,,PR0

  43532 35 051433   000134 235000 xsym               LDA     O1COM+92
        35 051434   000001 735000                    ALS     1
        35 051435   000000 236005 xsym               LDQ     DD_PRODR,AL
        35 051436   777777 376007                    ANQ     -1,DL
        35 051437   001012 756000 0                  STQ     PROC$+2
        35 051440   000151 236000 xsym               LDQ     O1COM+105
        35 051441   001012 136000 0                  SBLQ    PROC$+2
        35 051442   000005 736000                    QLS     5
        35 051443   000006 100400                    MLR     fill='000'O
        35 051444   000000 000040 30                 ADSC9   TEMP_LX_NODE             cn=0,n=32
PL6.E3A0      #001=Z8EM$SEMANTICS_DATA_DIV File=Z8EM.:Z8A6TSI                    SAT 08/09/97 12:08 Page:1347
        35 051445   014027 000040 xsym               ADSC9   O1COM+6167,Q             cn=0,n=32

  43535 35 051446   056641 710000 35                 TRA     s:45674

     7687    43537
     7688    43538    2     CASE(%ACT_DD_CLAUSE_INDEX);

     7689    43539
     7690    43540               %CREATE_DD_CLAUSE (@POINTER = INDEXED$,
     7691    43541                                  @FIELD_NO = %REC_DECL_INDEXED);

  43546 35 051447   000001 220003                    LDX0    1,DU
        35 051450   000000 740000 30                 STX0    TEMP_LX_NODE

  43547 35 051451   000024 236000 36                 LDQ     20
        35 051452   000001 756000 30                 STQ     TEMP_LX_NODE+1

  43548 35 051453   000007 756000 30                 STQ     TEMP_LX_NODE+7

  43560 35 051454   001077 630400 36                 EPPR0   575
        35 051455   000025 631400 36                 EPPR1   21
        35 051456   000000 701000 xent               TSX1    Z8ED$NEW_HEAP
        35 051457   000000 011000                    NOP     0

  43564 35 051460   000003 220003                    LDX0    3,DU
        35 051461   000000 470400 29                 LDP0    HEAP$
        35 051462   000000 740100                    STX0    0,,PR0

  43565 35 051463   000000 470400 29                 LDP0    HEAP$
        35 051464   000041 450100                    STZ     33,,PR0

  43566 35 051465   000017 450000 0                  STZ     I

  43567 35 051466   000024 236000 36                 LDQ     20
        35 051467   000000 470400 29                 LDP0    HEAP$
        35 051470   000017 720000 0                  LXL0    I
        35 051471   000001 756110                    STQ     1,X0,PR0
PL6.E3A0      #001=Z8EM$SEMANTICS_DATA_DIV File=Z8EM.:Z8A6TSI                    SAT 08/09/97 12:08 Page:1348

  43568 35 051472   000000 470400 29                 LDP0    HEAP$
        35 051473   000021 450110                    STZ     17,X0,PR0

  43569 35 051474   000017 054000 0                  AOS     I
        35 051475   000017 235000 0                  LDA     I
        35 051476   000017 115007                    CMPA    15,DL
        35 051477   051466 604400 35                 TMOZ    s:43567

  43572 35 051500   000000 236000 29                 LDQ     HEAP$
        35 051501   000001 756000 30                 STQ     TEMP_LX_NODE+1

  43579 35 051502   000670 630400 36                 EPPR0   440
        35 051503   000025 631400 36                 EPPR1   21
        35 051504   000000 701000 xent               TSX1    Z8ED$NEW_HEAP
        35 051505   000000 011000                    NOP     0

  43582 35 051506   000151 235000 xsym               LDA     O1COM+105
        35 051507   000005 735000                    ALS     5
        35 051510   000000 470400 29                 LDP0    HEAP$
        35 051511   000100 100405                    MLR     fill='000'O
        35 051512   014017 000040 xsym               ADSC9   O1COM+6159,A             cn=0,n=32
        35 051513   000000 000040                    ADSC9   0,,PR0                   cn=0,n=32

  43585 35 051514   000000 236000 29                 LDQ     HEAP$
        35 051515   000001 470400 30                 LDP0    TEMP_LX_NODE+1
        35 051516   000017 756100                    STQ     15,,PR0

  43586 35 051517   000001 235007                    LDA     1,DL
        35 051520   000041 755100                    STA     33,,PR0

  43587 35 051521   000037 755100                    STA     31,,PR0

  43590 35 051522   000134 235000 xsym               LDA     O1COM+92
        35 051523   000001 735000                    ALS     1
        35 051524   000000 236005 xsym               LDQ     DD_PRODR,AL
        35 051525   777777 376007                    ANQ     -1,DL
PL6.E3A0      #001=Z8EM$SEMANTICS_DATA_DIV File=Z8EM.:Z8A6TSI                    SAT 08/09/97 12:08 Page:1349
        35 051526   001012 756000 0                  STQ     PROC$+2
        35 051527   000151 236000 xsym               LDQ     O1COM+105
        35 051530   001012 136000 0                  SBLQ    PROC$+2
        35 051531   000005 736000                    QLS     5
        35 051532   000006 100400                    MLR     fill='000'O
        35 051533   000000 000040 30                 ADSC9   TEMP_LX_NODE             cn=0,n=32
        35 051534   014027 000040 xsym               ADSC9   O1COM+6167,Q             cn=0,n=32

  43593 35 051535   056641 710000 35                 TRA     s:45674

     7692    43595
     7693    43596    2     CASE(%ACT_DD_CLAUSE_KEY);

     7694    43597
     7695    43598    2          IF COMCOM.OB.FIPS.LEVEL >= %INT_LEV THEN

  43598 35 051536   000036 720000 xsym               LXL0    COMCOM+30
        35 051537   000002 100003                    CMPX0   2,DU
        35 051540   051563 604000 35                 TMI     s:43610

     7696    43599    2            IF ADDR(O1COM.LX_STK(O1COM.LX_TOP - 1)) -> LX_LARGE.LARGE_ITEM$ ->

  43599 35 051541   000151 236000 xsym               LDQ     O1COM+105
        35 051542   000003 736000                    QLS     3
        35 051543   014010 470406 xsym               LDP0    O1COM+6152,QL
        35 051544   000020 236100                    LDQ     16,,PR0
        35 051545   000024 116000 36                 CMPQ    20
        35 051546   051563 601000 35                 TNZ     s:43610
        35 051547   000151 236000 xsym               LDQ     O1COM+105
        35 051550   000003 736000                    QLS     3
        35 051551   014010 470406 xsym               LDP0    O1COM+6152,QL
        35 051552   000007 471500                    LDP1    7,,PR0
        35 051553   100004 473500                    LDP3    4,,PR1
        35 051554   300007 236100                    LDQ     7,,PR3
        35 051555   000024 116000 36                 CMPQ    20
        35 051556   051563 601000 35                 TNZ     s:43610

PL6.E3A0      #001=Z8EM$SEMANTICS_DATA_DIV File=Z8EM.:Z8A6TSI                    SAT 08/09/97 12:08 Page:1350
     7697    43600    2                LX_REC_DECL.P.KEY$ = ADDR(NIL) /* First KEY */ AND
     7698    43601    2               ADDR(O1COM.LX_STK(O1COM.LX_TOP - 1)) -> LX_LARGE.LARGE_ITEM$ ->
     7699    43602    2               LX_REC_DECL.P.OCCURS$ -> LX_LIST.HEAD$ -> LX_LIST.LINK = ADDR(NIL) THEN
     7700    43603                  /* No DEPENDING phrase */
     7701    43604    2             CALL Z8AE$ERROR (%E$LEVEL_CHECK,

  43604 35 051557   001101 630400 36                 EPPR0   577
        35 051560   000000 631400 36                 EPPR1   0
        35 051561   000000 701000 xent               TSX1    Z8AE$ERROR
        35 051562   000000 011000                    NOP     0

     7702    43605    2                              OCCURS_LINE,
     7703    43606    2                              OCCURS_COLUMN);
     7704    43607            /* Create a list of <OCCURS_KEY_clauses> */
     7705    43608               %INIT_LX_LIST(@POINTER = "ADDR(TEMP_LX_NODE)");

  43610 35 051563   000002 220003                    LDX0    2,DU
        35 051564   000000 740000 30                 STX0    TEMP_LX_NODE

  43611 35 051565   000000 221003                    LDX1    0,DU
        35 051566   000000 441000 30                 SXL1    TEMP_LX_NODE

  43612 35 051567   000024 236000 36                 LDQ     20
        35 051570   000001 756000 30                 STQ     TEMP_LX_NODE+1

  43613 35 051571   000004 756000 30                 STQ     TEMP_LX_NODE+4

  43614 35 051572   000007 756000 30                 STQ     TEMP_LX_NODE+7

  43615 35 051573   000002 450000 30                 STZ     TEMP_LX_NODE+2

     7706    43618               %ADD_LX_STK_TO_LIST_HEAD (@LIST$ = "ADDR(TEMP_LX_NODE)",
     7707    43619                                         @FROM  = O1COM.LX_TOP);

  43626 35 051574   000670 630400 36                 EPPR0   440
        35 051575   000025 631400 36                 EPPR1   21
        35 051576   000000 701000 xent               TSX1    Z8ED$NEW_HEAP
PL6.E3A0      #001=Z8EM$SEMANTICS_DATA_DIV File=Z8EM.:Z8A6TSI                    SAT 08/09/97 12:08 Page:1351
        35 051577   000000 011000                    NOP     0

  43629 35 051600   000151 235000 xsym               LDA     O1COM+105
        35 051601   000005 735000                    ALS     5
        35 051602   000000 470400 29                 LDP0    HEAP$
        35 051603   000100 100405                    MLR     fill='000'O
        35 051604   014017 000040 xsym               ADSC9   O1COM+6159,A             cn=0,n=32
        35 051605   000000 000040                    ADSC9   0,,PR0                   cn=0,n=32

  43635 35 051606   000004 236000 30                 LDQ     TEMP_LX_NODE+4
        35 051607   000000 470400 29                 LDP0    HEAP$
        35 051610   000007 756100                    STQ     7,,PR0

  43636 35 051611   000000 236000 29                 LDQ     HEAP$
        35 051612   000004 756000 30                 STQ     TEMP_LX_NODE+4

  43637 35 051613   000002 235000 30                 LDA     TEMP_LX_NODE+2
        35 051614   051616 601000 35                 TNZ     s:43639

  43638 35 051615   000001 756000 30                 STQ     TEMP_LX_NODE+1

  43639 35 051616   000002 054000 30                 AOS     TEMP_LX_NODE+2

     7708    43644               %PROPAGATE_TEMP_LX_NODE;

  43646 35 051617   000134 235000 xsym               LDA     O1COM+92
        35 051620   000001 735000                    ALS     1
        35 051621   000000 236005 xsym               LDQ     DD_PRODR,AL
        35 051622   777777 376007                    ANQ     -1,DL
        35 051623   001012 756000 0                  STQ     PROC$+2
        35 051624   000151 236000 xsym               LDQ     O1COM+105
        35 051625   001012 136000 0                  SBLQ    PROC$+2
        35 051626   000005 736000                    QLS     5
        35 051627   000006 100400                    MLR     fill='000'O
        35 051630   000000 000040 30                 ADSC9   TEMP_LX_NODE             cn=0,n=32
        35 051631   014027 000040 xsym               ADSC9   O1COM+6167,Q             cn=0,n=32

PL6.E3A0      #001=Z8EM$SEMANTICS_DATA_DIV File=Z8EM.:Z8A6TSI                    SAT 08/09/97 12:08 Page:1352
     7709    43649
     7710    43650               %CREATE_DD_CLAUSE (@POINTER = KEY$,
     7711    43651                                 @FIELD_NO = %REC_DECL_KEY);

  43656 35 051632   000001 220003                    LDX0    1,DU
        35 051633   000000 740000 30                 STX0    TEMP_LX_NODE

  43657 35 051634   000024 236000 36                 LDQ     20
        35 051635   000001 756000 30                 STQ     TEMP_LX_NODE+1

  43658 35 051636   000007 756000 30                 STQ     TEMP_LX_NODE+7

  43670 35 051637   001077 630400 36                 EPPR0   575
        35 051640   000025 631400 36                 EPPR1   21
        35 051641   000000 701000 xent               TSX1    Z8ED$NEW_HEAP
        35 051642   000000 011000                    NOP     0

  43674 35 051643   000003 220003                    LDX0    3,DU
        35 051644   000000 470400 29                 LDP0    HEAP$
        35 051645   000000 740100                    STX0    0,,PR0

  43675 35 051646   000000 470400 29                 LDP0    HEAP$
        35 051647   000041 450100                    STZ     33,,PR0

  43676 35 051650   000017 450000 0                  STZ     I

  43677 35 051651   000024 236000 36                 LDQ     20
        35 051652   000000 470400 29                 LDP0    HEAP$
        35 051653   000017 720000 0                  LXL0    I
        35 051654   000001 756110                    STQ     1,X0,PR0

  43678 35 051655   000000 470400 29                 LDP0    HEAP$
        35 051656   000021 450110                    STZ     17,X0,PR0

  43679 35 051657   000017 054000 0                  AOS     I
        35 051660   000017 235000 0                  LDA     I
        35 051661   000017 115007                    CMPA    15,DL
PL6.E3A0      #001=Z8EM$SEMANTICS_DATA_DIV File=Z8EM.:Z8A6TSI                    SAT 08/09/97 12:08 Page:1353
        35 051662   051651 604400 35                 TMOZ    s:43677

  43682 35 051663   000000 236000 29                 LDQ     HEAP$
        35 051664   000001 756000 30                 STQ     TEMP_LX_NODE+1

  43689 35 051665   000670 630400 36                 EPPR0   440
        35 051666   000025 631400 36                 EPPR1   21
        35 051667   000000 701000 xent               TSX1    Z8ED$NEW_HEAP
        35 051670   000000 011000                    NOP     0

  43692 35 051671   000151 235000 xsym               LDA     O1COM+105
        35 051672   000005 735000                    ALS     5
        35 051673   000000 470400 29                 LDP0    HEAP$
        35 051674   000100 100405                    MLR     fill='000'O
        35 051675   014017 000040 xsym               ADSC9   O1COM+6159,A             cn=0,n=32
        35 051676   000000 000040                    ADSC9   0,,PR0                   cn=0,n=32

  43695 35 051677   000000 236000 29                 LDQ     HEAP$
        35 051700   000001 470400 30                 LDP0    TEMP_LX_NODE+1
        35 051701   000020 756100                    STQ     16,,PR0

  43696 35 051702   000001 235007                    LDA     1,DL
        35 051703   000041 755100                    STA     33,,PR0

  43697 35 051704   000040 755100                    STA     32,,PR0

  43700 35 051705   000134 235000 xsym               LDA     O1COM+92
        35 051706   000001 735000                    ALS     1
        35 051707   000000 236005 xsym               LDQ     DD_PRODR,AL
        35 051710   777777 376007                    ANQ     -1,DL
        35 051711   001012 756000 0                  STQ     PROC$+2
        35 051712   000151 236000 xsym               LDQ     O1COM+105
        35 051713   001012 136000 0                  SBLQ    PROC$+2
        35 051714   000005 736000                    QLS     5
        35 051715   000006 100400                    MLR     fill='000'O
        35 051716   000000 000040 30                 ADSC9   TEMP_LX_NODE             cn=0,n=32
        35 051717   014027 000040 xsym               ADSC9   O1COM+6167,Q             cn=0,n=32
PL6.E3A0      #001=Z8EM$SEMANTICS_DATA_DIV File=Z8EM.:Z8A6TSI                    SAT 08/09/97 12:08 Page:1354

  43703 35 051720   056641 710000 35                 TRA     s:45674

     7712    43705
     7713    43706
     7714    43707    2     CASE(%ACT_OCCURS_KEY);

     7715    43708
     7716    43709            /* Create a list of 2 nodes:
     7717    43710                  node 1) LX_TERMINAL (ASC/DES)
     7718    43711                  node 2) <qualified_id_list>
     7719    43712            */
     7720    43713               %INIT_LX_LIST (@POINTER = "ADDR(TEMP_LX_NODE)");

  43715 35 051721   000002 220003                    LDX0    2,DU
        35 051722   000000 740000 30                 STX0    TEMP_LX_NODE

  43716 35 051723   000000 221003                    LDX1    0,DU
        35 051724   000000 441000 30                 SXL1    TEMP_LX_NODE

  43717 35 051725   000024 236000 36                 LDQ     20
        35 051726   000001 756000 30                 STQ     TEMP_LX_NODE+1

  43718 35 051727   000004 756000 30                 STQ     TEMP_LX_NODE+4

  43719 35 051730   000007 756000 30                 STQ     TEMP_LX_NODE+7

  43720 35 051731   000002 450000 30                 STZ     TEMP_LX_NODE+2

     7721    43723               %ADD_LX_STK_TO_LIST_HEAD (@LIST$ = "ADDR(TEMP_LX_NODE)",
     7722    43724                                         @FROM = O1COM.LX_TOP);

  43731 35 051732   000670 630400 36                 EPPR0   440
        35 051733   000025 631400 36                 EPPR1   21
        35 051734   000000 701000 xent               TSX1    Z8ED$NEW_HEAP
        35 051735   000000 011000                    NOP     0

PL6.E3A0      #001=Z8EM$SEMANTICS_DATA_DIV File=Z8EM.:Z8A6TSI                    SAT 08/09/97 12:08 Page:1355
  43734 35 051736   000151 235000 xsym               LDA     O1COM+105
        35 051737   000005 735000                    ALS     5
        35 051740   000000 470400 29                 LDP0    HEAP$
        35 051741   000100 100405                    MLR     fill='000'O
        35 051742   014017 000040 xsym               ADSC9   O1COM+6159,A             cn=0,n=32
        35 051743   000000 000040                    ADSC9   0,,PR0                   cn=0,n=32

  43740 35 051744   000004 236000 30                 LDQ     TEMP_LX_NODE+4
        35 051745   000000 470400 29                 LDP0    HEAP$
        35 051746   000007 756100                    STQ     7,,PR0

  43741 35 051747   000000 236000 29                 LDQ     HEAP$
        35 051750   000004 756000 30                 STQ     TEMP_LX_NODE+4

  43742 35 051751   000002 235000 30                 LDA     TEMP_LX_NODE+2
        35 051752   051754 601000 35                 TNZ     s:43744

  43743 35 051753   000001 756000 30                 STQ     TEMP_LX_NODE+1

  43744 35 051754   000002 054000 30                 AOS     TEMP_LX_NODE+2

     7723    43749               %ADD_LX_STK_TO_LIST_HEAD (@LIST$ = "ADDR(TEMP_LX_NODE)",
     7724    43750                                         @FROM = "O1COM.LX_TOP - 3");

  43757 35 051755   000670 630400 36                 EPPR0   440
        35 051756   000025 631400 36                 EPPR1   21
        35 051757   000000 701000 xent               TSX1    Z8ED$NEW_HEAP
        35 051760   000000 011000                    NOP     0

  43760 35 051761   000151 235000 xsym               LDA     O1COM+105
        35 051762   000005 735000                    ALS     5
        35 051763   000000 470400 29                 LDP0    HEAP$
        35 051764   000100 100405                    MLR     fill='000'O
        35 051765   013767 000040 xsym               ADSC9   O1COM+6135,A             cn=0,n=32
        35 051766   000000 000040                    ADSC9   0,,PR0                   cn=0,n=32

  43766 35 051767   000004 236000 30                 LDQ     TEMP_LX_NODE+4
PL6.E3A0      #001=Z8EM$SEMANTICS_DATA_DIV File=Z8EM.:Z8A6TSI                    SAT 08/09/97 12:08 Page:1356
        35 051770   000000 470400 29                 LDP0    HEAP$
        35 051771   000007 756100                    STQ     7,,PR0

  43767 35 051772   000000 236000 29                 LDQ     HEAP$
        35 051773   000004 756000 30                 STQ     TEMP_LX_NODE+4

  43768 35 051774   000002 235000 30                 LDA     TEMP_LX_NODE+2
        35 051775   051777 601000 35                 TNZ     s:43770

  43769 35 051776   000001 756000 30                 STQ     TEMP_LX_NODE+1

  43770 35 051777   000002 054000 30                 AOS     TEMP_LX_NODE+2

     7725    43775               %PROP_ERR_TEMP_LX_NODE;

  43777 35 052000   000134 235000 xsym               LDA     O1COM+92
        35 052001   000001 735000                    ALS     1
        35 052002   000000 236005 xsym               LDQ     DD_PRODR,AL
        35 052003   777777 376007                    ANQ     -1,DL
        35 052004   001012 756000 0                  STQ     PROC$+2
        35 052005   000151 236000 xsym               LDQ     O1COM+105
        35 052006   001012 136000 0                  SBLQ    PROC$+2
        35 052007   000001 036007                    ADLQ    1,DL
        35 052010   000017 756000 0                  STQ     I
        35 052011   052022 710000 35                 TRA     s:43780+1

  43778 35 052012   000017 235000 0                  LDA     I
        35 052013   000003 735000                    ALS     3
        35 052014   014017 236005 xsym               LDQ     O1COM+6159,AL
        35 052015   400000 316007                    CANQ    -131072,DL
        35 052016   052021 600000 35                 TZE     s:43780

  43779 35 052017   400000 236007                    LDQ     -131072,DL
        35 052020   000000 256000 30                 ORSQ    TEMP_LX_NODE

  43780 35 052021   000017 054000 0                  AOS     I
        35 052022   000017 236000 0                  LDQ     I
PL6.E3A0      #001=Z8EM$SEMANTICS_DATA_DIV File=Z8EM.:Z8A6TSI                    SAT 08/09/97 12:08 Page:1357
        35 052023   000151 116000 xsym               CMPQ    O1COM+105
        35 052024   052012 604400 35                 TMOZ    s:43778

     7726    43783               %PROPAGATE_TEMP_LX_NODE;

  43785 35 052025   000134 235000 xsym               LDA     O1COM+92
        35 052026   000001 735000                    ALS     1
        35 052027   000000 236005 xsym               LDQ     DD_PRODR,AL
        35 052030   777777 376007                    ANQ     -1,DL
        35 052031   001012 756000 0                  STQ     PROC$+2
        35 052032   000151 236000 xsym               LDQ     O1COM+105
        35 052033   001012 136000 0                  SBLQ    PROC$+2
        35 052034   000005 736000                    QLS     5
        35 052035   000006 100400                    MLR     fill='000'O
        35 052036   000000 000040 30                 ADSC9   TEMP_LX_NODE             cn=0,n=32
        35 052037   014027 000040 xsym               ADSC9   O1COM+6167,Q             cn=0,n=32

  43786 35 052040   056641 710000 35                 TRA     s:45674

     7727    43788
     7728    43789    2     CASE(%ACT_RENAMES_THRU_CLAUSE);

     7729    43790
     7730    43791            /* Create a linked list of 2 elements, both <qualified_id> */
     7731    43792               %INIT_LX_LIST (@POINTER = "ADDR(TEMP_LX_NODE)");

  43794 35 052041   000002 220003                    LDX0    2,DU
        35 052042   000000 740000 30                 STX0    TEMP_LX_NODE

  43795 35 052043   000000 221003                    LDX1    0,DU
        35 052044   000000 441000 30                 SXL1    TEMP_LX_NODE

  43796 35 052045   000024 236000 36                 LDQ     20
        35 052046   000001 756000 30                 STQ     TEMP_LX_NODE+1

  43797 35 052047   000004 756000 30                 STQ     TEMP_LX_NODE+4

PL6.E3A0      #001=Z8EM$SEMANTICS_DATA_DIV File=Z8EM.:Z8A6TSI                    SAT 08/09/97 12:08 Page:1358
  43798 35 052050   000007 756000 30                 STQ     TEMP_LX_NODE+7

  43799 35 052051   000002 450000 30                 STZ     TEMP_LX_NODE+2

     7732    43802               %ADD_LX_STK_TO_LIST_HEAD (@LIST$ = "ADDR(TEMP_LX_NODE)",
     7733    43803                                         @FROM  = O1COM.LX_TOP);

  43810 35 052052   000670 630400 36                 EPPR0   440
        35 052053   000025 631400 36                 EPPR1   21
        35 052054   000000 701000 xent               TSX1    Z8ED$NEW_HEAP
        35 052055   000000 011000                    NOP     0

  43813 35 052056   000151 235000 xsym               LDA     O1COM+105
        35 052057   000005 735000                    ALS     5
        35 052060   000000 470400 29                 LDP0    HEAP$
        35 052061   000100 100405                    MLR     fill='000'O
        35 052062   014017 000040 xsym               ADSC9   O1COM+6159,A             cn=0,n=32
        35 052063   000000 000040                    ADSC9   0,,PR0                   cn=0,n=32

  43819 35 052064   000004 236000 30                 LDQ     TEMP_LX_NODE+4
        35 052065   000000 470400 29                 LDP0    HEAP$
        35 052066   000007 756100                    STQ     7,,PR0

  43820 35 052067   000000 236000 29                 LDQ     HEAP$
        35 052070   000004 756000 30                 STQ     TEMP_LX_NODE+4

  43821 35 052071   000002 235000 30                 LDA     TEMP_LX_NODE+2
        35 052072   052074 601000 35                 TNZ     s:43823

  43822 35 052073   000001 756000 30                 STQ     TEMP_LX_NODE+1

  43823 35 052074   000002 054000 30                 AOS     TEMP_LX_NODE+2

     7734    43828               %ADD_LX_STK_TO_LIST_HEAD (@LIST$ = "ADDR(TEMP_LX_NODE)",
     7735    43829                                         @FROM  = "O1COM.LX_TOP - 2");

  43836 35 052075   000670 630400 36                 EPPR0   440
PL6.E3A0      #001=Z8EM$SEMANTICS_DATA_DIV File=Z8EM.:Z8A6TSI                    SAT 08/09/97 12:08 Page:1359
        35 052076   000025 631400 36                 EPPR1   21
        35 052077   000000 701000 xent               TSX1    Z8ED$NEW_HEAP
        35 052100   000000 011000                    NOP     0

  43839 35 052101   000151 235000 xsym               LDA     O1COM+105
        35 052102   000005 735000                    ALS     5
        35 052103   000000 470400 29                 LDP0    HEAP$
        35 052104   000100 100405                    MLR     fill='000'O
        35 052105   013777 000040 xsym               ADSC9   O1COM+6143,A             cn=0,n=32
        35 052106   000000 000040                    ADSC9   0,,PR0                   cn=0,n=32

  43845 35 052107   000004 236000 30                 LDQ     TEMP_LX_NODE+4
        35 052110   000000 470400 29                 LDP0    HEAP$
        35 052111   000007 756100                    STQ     7,,PR0

  43846 35 052112   000000 236000 29                 LDQ     HEAP$
        35 052113   000004 756000 30                 STQ     TEMP_LX_NODE+4

  43847 35 052114   000002 235000 30                 LDA     TEMP_LX_NODE+2
        35 052115   052117 601000 35                 TNZ     s:43849

  43848 35 052116   000001 756000 30                 STQ     TEMP_LX_NODE+1

  43849 35 052117   000002 054000 30                 AOS     TEMP_LX_NODE+2

     7736    43854               %PROP_ERR_TEMP_LX_NODE;

  43856 35 052120   000134 235000 xsym               LDA     O1COM+92
        35 052121   000001 735000                    ALS     1
        35 052122   000000 236005 xsym               LDQ     DD_PRODR,AL
        35 052123   777777 376007                    ANQ     -1,DL
        35 052124   001012 756000 0                  STQ     PROC$+2
        35 052125   000151 236000 xsym               LDQ     O1COM+105
        35 052126   001012 136000 0                  SBLQ    PROC$+2
        35 052127   000001 036007                    ADLQ    1,DL
        35 052130   000017 756000 0                  STQ     I
        35 052131   052142 710000 35                 TRA     s:43859+1
PL6.E3A0      #001=Z8EM$SEMANTICS_DATA_DIV File=Z8EM.:Z8A6TSI                    SAT 08/09/97 12:08 Page:1360

  43857 35 052132   000017 235000 0                  LDA     I
        35 052133   000003 735000                    ALS     3
        35 052134   014017 236005 xsym               LDQ     O1COM+6159,AL
        35 052135   400000 316007                    CANQ    -131072,DL
        35 052136   052141 600000 35                 TZE     s:43859

  43858 35 052137   400000 236007                    LDQ     -131072,DL
        35 052140   000000 256000 30                 ORSQ    TEMP_LX_NODE

  43859 35 052141   000017 054000 0                  AOS     I
        35 052142   000017 236000 0                  LDQ     I
        35 052143   000151 116000 xsym               CMPQ    O1COM+105
        35 052144   052132 604400 35                 TMOZ    s:43857

     7737    43862               %PROPAGATE_TEMP_LX_NODE;

  43864 35 052145   000134 235000 xsym               LDA     O1COM+92
        35 052146   000001 735000                    ALS     1
        35 052147   000000 236005 xsym               LDQ     DD_PRODR,AL
        35 052150   777777 376007                    ANQ     -1,DL
        35 052151   001012 756000 0                  STQ     PROC$+2
        35 052152   000151 236000 xsym               LDQ     O1COM+105
        35 052153   001012 136000 0                  SBLQ    PROC$+2
        35 052154   000005 736000                    QLS     5
        35 052155   000006 100400                    MLR     fill='000'O
        35 052156   000000 000040 30                 ADSC9   TEMP_LX_NODE             cn=0,n=32
        35 052157   014027 000040 xsym               ADSC9   O1COM+6167,Q             cn=0,n=32

  43865 35 052160   056641 710000 35                 TRA     s:45674

     7738    43867
     7739    43868    2     CASE(%ACT_SIGN_CLAUSE);

     7740    43869
     7741    43870            /* Create a linked list of 2 elements
     7742    43871                   node 1) LX_TERMINAL ( LEADING/TRAILING)
PL6.E3A0      #001=Z8EM$SEMANTICS_DATA_DIV File=Z8EM.:Z8A6TSI                    SAT 08/09/97 12:08 Page:1361
     7743    43872                   node 2) LX_TERMINAL ( SEPARATE, EMPTY)
     7744    43873            */
     7745    43874               %INIT_LX_LIST (@POINTER = "ADDR(TEMP_LX_NODE)");

  43876 35 052161   000002 220003                    LDX0    2,DU
        35 052162   000000 740000 30                 STX0    TEMP_LX_NODE

  43877 35 052163   000000 221003                    LDX1    0,DU
        35 052164   000000 441000 30                 SXL1    TEMP_LX_NODE

  43878 35 052165   000024 236000 36                 LDQ     20
        35 052166   000001 756000 30                 STQ     TEMP_LX_NODE+1

  43879 35 052167   000004 756000 30                 STQ     TEMP_LX_NODE+4

  43880 35 052170   000007 756000 30                 STQ     TEMP_LX_NODE+7

  43881 35 052171   000002 450000 30                 STZ     TEMP_LX_NODE+2

     7746    43884               %ADD_LX_STK_TO_LIST_HEAD (@LIST$ = "ADDR(TEMP_LX_NODE)",
     7747    43885                                         @FROM  = O1COM.LX_TOP);

  43892 35 052172   000670 630400 36                 EPPR0   440
        35 052173   000025 631400 36                 EPPR1   21
        35 052174   000000 701000 xent               TSX1    Z8ED$NEW_HEAP
        35 052175   000000 011000                    NOP     0

  43895 35 052176   000151 235000 xsym               LDA     O1COM+105
        35 052177   000005 735000                    ALS     5
        35 052200   000000 470400 29                 LDP0    HEAP$
        35 052201   000100 100405                    MLR     fill='000'O
        35 052202   014017 000040 xsym               ADSC9   O1COM+6159,A             cn=0,n=32
        35 052203   000000 000040                    ADSC9   0,,PR0                   cn=0,n=32

  43901 35 052204   000004 236000 30                 LDQ     TEMP_LX_NODE+4
        35 052205   000000 470400 29                 LDP0    HEAP$
        35 052206   000007 756100                    STQ     7,,PR0
PL6.E3A0      #001=Z8EM$SEMANTICS_DATA_DIV File=Z8EM.:Z8A6TSI                    SAT 08/09/97 12:08 Page:1362

  43902 35 052207   000000 236000 29                 LDQ     HEAP$
        35 052210   000004 756000 30                 STQ     TEMP_LX_NODE+4

  43903 35 052211   000002 235000 30                 LDA     TEMP_LX_NODE+2
        35 052212   052214 601000 35                 TNZ     s:43905

  43904 35 052213   000001 756000 30                 STQ     TEMP_LX_NODE+1

  43905 35 052214   000002 054000 30                 AOS     TEMP_LX_NODE+2

     7748    43910               %ADD_LX_STK_TO_LIST_HEAD (@LIST$ = "ADDR(TEMP_LX_NODE)",
     7749    43911                                         @FROM  = "O1COM.LX_TOP - 1");

  43918 35 052215   000670 630400 36                 EPPR0   440
        35 052216   000025 631400 36                 EPPR1   21
        35 052217   000000 701000 xent               TSX1    Z8ED$NEW_HEAP
        35 052220   000000 011000                    NOP     0

  43921 35 052221   000151 235000 xsym               LDA     O1COM+105
        35 052222   000005 735000                    ALS     5
        35 052223   000000 470400 29                 LDP0    HEAP$
        35 052224   000100 100405                    MLR     fill='000'O
        35 052225   014007 000040 xsym               ADSC9   O1COM+6151,A             cn=0,n=32
        35 052226   000000 000040                    ADSC9   0,,PR0                   cn=0,n=32

  43927 35 052227   000004 236000 30                 LDQ     TEMP_LX_NODE+4
        35 052230   000000 470400 29                 LDP0    HEAP$
        35 052231   000007 756100                    STQ     7,,PR0

  43928 35 052232   000000 236000 29                 LDQ     HEAP$
        35 052233   000004 756000 30                 STQ     TEMP_LX_NODE+4

  43929 35 052234   000002 235000 30                 LDA     TEMP_LX_NODE+2
        35 052235   052237 601000 35                 TNZ     s:43931

  43930 35 052236   000001 756000 30                 STQ     TEMP_LX_NODE+1
PL6.E3A0      #001=Z8EM$SEMANTICS_DATA_DIV File=Z8EM.:Z8A6TSI                    SAT 08/09/97 12:08 Page:1363

  43931 35 052237   000002 054000 30                 AOS     TEMP_LX_NODE+2

     7750    43936               %PROP_ERR_TEMP_LX_NODE;

  43938 35 052240   000134 235000 xsym               LDA     O1COM+92
        35 052241   000001 735000                    ALS     1
        35 052242   000000 236005 xsym               LDQ     DD_PRODR,AL
        35 052243   777777 376007                    ANQ     -1,DL
        35 052244   001012 756000 0                  STQ     PROC$+2
        35 052245   000151 236000 xsym               LDQ     O1COM+105
        35 052246   001012 136000 0                  SBLQ    PROC$+2
        35 052247   000001 036007                    ADLQ    1,DL
        35 052250   000017 756000 0                  STQ     I
        35 052251   052262 710000 35                 TRA     s:43941+1

  43939 35 052252   000017 235000 0                  LDA     I
        35 052253   000003 735000                    ALS     3
        35 052254   014017 236005 xsym               LDQ     O1COM+6159,AL
        35 052255   400000 316007                    CANQ    -131072,DL
        35 052256   052261 600000 35                 TZE     s:43941

  43940 35 052257   400000 236007                    LDQ     -131072,DL
        35 052260   000000 256000 30                 ORSQ    TEMP_LX_NODE

  43941 35 052261   000017 054000 0                  AOS     I
        35 052262   000017 236000 0                  LDQ     I
        35 052263   000151 116000 xsym               CMPQ    O1COM+105
        35 052264   052252 604400 35                 TMOZ    s:43939

     7751    43944               %PROPAGATE_TEMP_LX_NODE;

  43946 35 052265   000134 235000 xsym               LDA     O1COM+92
        35 052266   000001 735000                    ALS     1
        35 052267   000000 236005 xsym               LDQ     DD_PRODR,AL
        35 052270   777777 376007                    ANQ     -1,DL
        35 052271   001012 756000 0                  STQ     PROC$+2
PL6.E3A0      #001=Z8EM$SEMANTICS_DATA_DIV File=Z8EM.:Z8A6TSI                    SAT 08/09/97 12:08 Page:1364
        35 052272   000151 236000 xsym               LDQ     O1COM+105
        35 052273   001012 136000 0                  SBLQ    PROC$+2
        35 052274   000005 736000                    QLS     5
        35 052275   000006 100400                    MLR     fill='000'O
        35 052276   000000 000040 30                 ADSC9   TEMP_LX_NODE             cn=0,n=32
        35 052277   014027 000040 xsym               ADSC9   O1COM+6167,Q             cn=0,n=32

  43947 35 052300   056641 710000 35                 TRA     s:45674

     7752    43949
     7753    43950    2     CASE(%ACT_TWO_LITERAL_LIST);

     7754    43951
     7755    43952            /* Create a linked list of 2 elements, literal thru literal */
     7756    43953               %INIT_LX_LIST (@POINTER="ADDR(TEMP_LX_NODE)");

  43955 35 052301   000002 220003                    LDX0    2,DU
        35 052302   000000 740000 30                 STX0    TEMP_LX_NODE

  43956 35 052303   000000 221003                    LDX1    0,DU
        35 052304   000000 441000 30                 SXL1    TEMP_LX_NODE

  43957 35 052305   000024 236000 36                 LDQ     20
        35 052306   000001 756000 30                 STQ     TEMP_LX_NODE+1

  43958 35 052307   000004 756000 30                 STQ     TEMP_LX_NODE+4

  43959 35 052310   000007 756000 30                 STQ     TEMP_LX_NODE+7

  43960 35 052311   000002 450000 30                 STZ     TEMP_LX_NODE+2

     7757    43963               %ADD_LX_STK_TO_LIST_HEAD (@LIST$ = "ADDR(TEMP_LX_NODE)",
     7758    43964                                         @FROM  = O1COM.LX_TOP);

  43971 35 052312   000670 630400 36                 EPPR0   440
        35 052313   000025 631400 36                 EPPR1   21
        35 052314   000000 701000 xent               TSX1    Z8ED$NEW_HEAP
PL6.E3A0      #001=Z8EM$SEMANTICS_DATA_DIV File=Z8EM.:Z8A6TSI                    SAT 08/09/97 12:08 Page:1365
        35 052315   000000 011000                    NOP     0

  43974 35 052316   000151 235000 xsym               LDA     O1COM+105
        35 052317   000005 735000                    ALS     5
        35 052320   000000 470400 29                 LDP0    HEAP$
        35 052321   000100 100405                    MLR     fill='000'O
        35 052322   014017 000040 xsym               ADSC9   O1COM+6159,A             cn=0,n=32
        35 052323   000000 000040                    ADSC9   0,,PR0                   cn=0,n=32

  43980 35 052324   000004 236000 30                 LDQ     TEMP_LX_NODE+4
        35 052325   000000 470400 29                 LDP0    HEAP$
        35 052326   000007 756100                    STQ     7,,PR0

  43981 35 052327   000000 236000 29                 LDQ     HEAP$
        35 052330   000004 756000 30                 STQ     TEMP_LX_NODE+4

  43982 35 052331   000002 235000 30                 LDA     TEMP_LX_NODE+2
        35 052332   052334 601000 35                 TNZ     s:43984

  43983 35 052333   000001 756000 30                 STQ     TEMP_LX_NODE+1

  43984 35 052334   000002 054000 30                 AOS     TEMP_LX_NODE+2

     7759    43989               %ADD_LX_STK_TO_LIST_HEAD (@LIST$ = "ADDR(TEMP_LX_NODE)",
     7760    43990                                         @FROM  = "O1COM.LX_TOP - 2");

  43997 35 052335   000670 630400 36                 EPPR0   440
        35 052336   000025 631400 36                 EPPR1   21
        35 052337   000000 701000 xent               TSX1    Z8ED$NEW_HEAP
        35 052340   000000 011000                    NOP     0

  44000 35 052341   000151 235000 xsym               LDA     O1COM+105
        35 052342   000005 735000                    ALS     5
        35 052343   000000 470400 29                 LDP0    HEAP$
        35 052344   000100 100405                    MLR     fill='000'O
        35 052345   013777 000040 xsym               ADSC9   O1COM+6143,A             cn=0,n=32
        35 052346   000000 000040                    ADSC9   0,,PR0                   cn=0,n=32
PL6.E3A0      #001=Z8EM$SEMANTICS_DATA_DIV File=Z8EM.:Z8A6TSI                    SAT 08/09/97 12:08 Page:1366

  44006 35 052347   000004 236000 30                 LDQ     TEMP_LX_NODE+4
        35 052350   000000 470400 29                 LDP0    HEAP$
        35 052351   000007 756100                    STQ     7,,PR0

  44007 35 052352   000000 236000 29                 LDQ     HEAP$
        35 052353   000004 756000 30                 STQ     TEMP_LX_NODE+4

  44008 35 052354   000002 235000 30                 LDA     TEMP_LX_NODE+2
        35 052355   052357 601000 35                 TNZ     s:44010

  44009 35 052356   000001 756000 30                 STQ     TEMP_LX_NODE+1

  44010 35 052357   000002 054000 30                 AOS     TEMP_LX_NODE+2

     7761    44015               %PROP_ERR_TEMP_LX_NODE;

  44017 35 052360   000134 235000 xsym               LDA     O1COM+92
        35 052361   000001 735000                    ALS     1
        35 052362   000000 236005 xsym               LDQ     DD_PRODR,AL
        35 052363   777777 376007                    ANQ     -1,DL
        35 052364   001012 756000 0                  STQ     PROC$+2
        35 052365   000151 236000 xsym               LDQ     O1COM+105
        35 052366   001012 136000 0                  SBLQ    PROC$+2
        35 052367   000001 036007                    ADLQ    1,DL
        35 052370   000017 756000 0                  STQ     I
        35 052371   052402 710000 35                 TRA     s:44020+1

  44018 35 052372   000017 235000 0                  LDA     I
        35 052373   000003 735000                    ALS     3
        35 052374   014017 236005 xsym               LDQ     O1COM+6159,AL
        35 052375   400000 316007                    CANQ    -131072,DL
        35 052376   052401 600000 35                 TZE     s:44020

  44019 35 052377   400000 236007                    LDQ     -131072,DL
        35 052400   000000 256000 30                 ORSQ    TEMP_LX_NODE

PL6.E3A0      #001=Z8EM$SEMANTICS_DATA_DIV File=Z8EM.:Z8A6TSI                    SAT 08/09/97 12:08 Page:1367
  44020 35 052401   000017 054000 0                  AOS     I
        35 052402   000017 236000 0                  LDQ     I
        35 052403   000151 116000 xsym               CMPQ    O1COM+105
        35 052404   052372 604400 35                 TMOZ    s:44018

     7762    44023               %PROPAGATE_TEMP_LX_NODE;

  44025 35 052405   000134 235000 xsym               LDA     O1COM+92
        35 052406   000001 735000                    ALS     1
        35 052407   000000 236005 xsym               LDQ     DD_PRODR,AL
        35 052410   777777 376007                    ANQ     -1,DL
        35 052411   001012 756000 0                  STQ     PROC$+2
        35 052412   000151 236000 xsym               LDQ     O1COM+105
        35 052413   001012 136000 0                  SBLQ    PROC$+2
        35 052414   000005 736000                    QLS     5
        35 052415   000006 100400                    MLR     fill='000'O
        35 052416   000000 000040 30                 ADSC9   TEMP_LX_NODE             cn=0,n=32
        35 052417   014027 000040 xsym               ADSC9   O1COM+6167,Q             cn=0,n=32

  44026 35 052420   056641 710000 35                 TRA     s:45674

     7763    44028
     7764    44029
     7765    44030    2     CASE(%ACT_DD_CLAUSE_OCCURS);

     7766    44031
     7767    44032            /* Create a <DD_clause> with OCCURS$ field;  the OCCURS
     7768    44033               structure is:
     7769    44034                      LX_LIST (1 or 2 nodes)
     7770    44035                         NODE 1) LX_LIST of <integer> (1 or 2)
     7771    44036                         NODE 2, optional) <qualified_id> for depending
     7772    44037            */
     7773    44038    2          OCCURS_LINE = O1COM.LX_STK.LINE(O1COM.LX_TOP - 3);

  44038 35 052421   000151 236000 xsym               LDQ     O1COM+105
        35 052422   000003 736000                    QLS     3
        35 052423   013774 235006 xsym               LDA     O1COM+6140,QL
PL6.E3A0      #001=Z8EM$SEMANTICS_DATA_DIV File=Z8EM.:Z8A6TSI                    SAT 08/09/97 12:08 Page:1368
        35 052424   000023 755000 0                  STA     OCCURS_LINE

     7774    44039    2          OCCURS_COLUMN = O1COM.LX_STK.COLUMN(O1COM.LX_TOP - 3);

  44039 35 052425   013775 235006 xsym               LDA     O1COM+6141,QL
        35 052426   000024 755000 0                  STA     OCCURS_COLUMN

     7775    44040               %INIT_LX_LIST (@POINTER = "ADDR(TEMP_LX_NODE)");

  44042 35 052427   000002 220003                    LDX0    2,DU
        35 052430   000000 740000 30                 STX0    TEMP_LX_NODE

  44043 35 052431   000000 221003                    LDX1    0,DU
        35 052432   000000 441000 30                 SXL1    TEMP_LX_NODE

  44044 35 052433   000024 236000 36                 LDQ     20
        35 052434   000001 756000 30                 STQ     TEMP_LX_NODE+1

  44045 35 052435   000004 756000 30                 STQ     TEMP_LX_NODE+4

  44046 35 052436   000007 756000 30                 STQ     TEMP_LX_NODE+7

  44047 35 052437   000002 450000 30                 STZ     TEMP_LX_NODE+2

     7776    44050               %PROP_ERR_TEMP_LX_NODE;

  44052 35 052440   000134 235000 xsym               LDA     O1COM+92
        35 052441   000001 735000                    ALS     1
        35 052442   000000 236005 xsym               LDQ     DD_PRODR,AL
        35 052443   777777 376007                    ANQ     -1,DL
        35 052444   001012 756000 0                  STQ     PROC$+2
        35 052445   000151 236000 xsym               LDQ     O1COM+105
        35 052446   001012 136000 0                  SBLQ    PROC$+2
        35 052447   000001 036007                    ADLQ    1,DL
        35 052450   000017 756000 0                  STQ     I
        35 052451   052462 710000 35                 TRA     s:44055+1

PL6.E3A0      #001=Z8EM$SEMANTICS_DATA_DIV File=Z8EM.:Z8A6TSI                    SAT 08/09/97 12:08 Page:1369
  44053 35 052452   000017 235000 0                  LDA     I
        35 052453   000003 735000                    ALS     3
        35 052454   014017 236005 xsym               LDQ     O1COM+6159,AL
        35 052455   400000 316007                    CANQ    -131072,DL
        35 052456   052461 600000 35                 TZE     s:44055

  44054 35 052457   400000 236007                    LDQ     -131072,DL
        35 052460   000000 256000 30                 ORSQ    TEMP_LX_NODE

  44055 35 052461   000017 054000 0                  AOS     I
        35 052462   000017 236000 0                  LDQ     I
        35 052463   000151 116000 xsym               CMPQ    O1COM+105
        35 052464   052452 604400 35                 TMOZ    s:44053

     7777    44058    2          IF O1COM.LX_STK.ID(O1COM.LX_TOP) ~= %LX_TERMINAL  /* EMPTY */ THEN

  44058 35 052465   000151 235000 xsym               LDA     O1COM+105
        35 052466   000003 735000                    ALS     3
        35 052467   014017 220005 xsym               LDX0    O1COM+6159,AL
        35 052470   052523 600000 35                 TZE     s:44099

     7778    44059    3            DO;

     7779    44060    3              IF COMCOM.OB.FIPS.LEVEL >= %INT_LEV THEN

  44060 35 052471   000036 721000 xsym               LXL1    COMCOM+30
        35 052472   000002 101003                    CMPX1   2,DU
        35 052473   052500 604000 35                 TMI     s:44072

     7780    44061    3                CALL Z8AE$ERROR (%E$LEVEL_CHECK,

  44061 35 052474   001101 630400 36                 EPPR0   577
        35 052475   000000 631400 36                 EPPR1   0
        35 052476   000000 701000 xent               TSX1    Z8AE$ERROR
        35 052477   000000 011000                    NOP     0

     7781    44062    3                                 OCCURS_LINE,
PL6.E3A0      #001=Z8EM$SEMANTICS_DATA_DIV File=Z8EM.:Z8A6TSI                    SAT 08/09/97 12:08 Page:1370
     7782    44063    3                                 OCCURS_COLUMN);
     7783    44064                   %ADD_LX_STK_TO_LIST_HEAD (@LIST$ = "ADDR(TEMP_LX_NODE)",
     7784    44065                                             @FROM  = O1COM.LX_TOP);

  44072 35 052500   000670 630400 36                 EPPR0   440
        35 052501   000025 631400 36                 EPPR1   21
        35 052502   000000 701000 xent               TSX1    Z8ED$NEW_HEAP
        35 052503   000000 011000                    NOP     0

  44075 35 052504   000151 235000 xsym               LDA     O1COM+105
        35 052505   000005 735000                    ALS     5
        35 052506   000000 470400 29                 LDP0    HEAP$
        35 052507   000100 100405                    MLR     fill='000'O
        35 052510   014017 000040 xsym               ADSC9   O1COM+6159,A             cn=0,n=32
        35 052511   000000 000040                    ADSC9   0,,PR0                   cn=0,n=32

  44081 35 052512   000004 236000 30                 LDQ     TEMP_LX_NODE+4
        35 052513   000000 470400 29                 LDP0    HEAP$
        35 052514   000007 756100                    STQ     7,,PR0

  44082 35 052515   000000 236000 29                 LDQ     HEAP$
        35 052516   000004 756000 30                 STQ     TEMP_LX_NODE+4

  44083 35 052517   000002 235000 30                 LDA     TEMP_LX_NODE+2
        35 052520   052522 601000 35                 TNZ     s:44085

  44084 35 052521   000001 756000 30                 STQ     TEMP_LX_NODE+1

  44085 35 052522   000002 054000 30                 AOS     TEMP_LX_NODE+2

     7785    44090    3            END;

     7786    44091               %ADD_LX_STK_TO_LIST_HEAD (@LIST$ = "ADDR(TEMP_LX_NODE)",
     7787    44092                                         @FROM  = "O1COM.LX_TOP - 2");

  44099 35 052523   000670 630400 36                 EPPR0   440
        35 052524   000025 631400 36                 EPPR1   21
PL6.E3A0      #001=Z8EM$SEMANTICS_DATA_DIV File=Z8EM.:Z8A6TSI                    SAT 08/09/97 12:08 Page:1371
        35 052525   000000 701000 xent               TSX1    Z8ED$NEW_HEAP
        35 052526   000000 011000                    NOP     0

  44102 35 052527   000151 235000 xsym               LDA     O1COM+105
        35 052530   000005 735000                    ALS     5
        35 052531   000000 470400 29                 LDP0    HEAP$
        35 052532   000100 100405                    MLR     fill='000'O
        35 052533   013777 000040 xsym               ADSC9   O1COM+6143,A             cn=0,n=32
        35 052534   000000 000040                    ADSC9   0,,PR0                   cn=0,n=32

  44108 35 052535   000004 236000 30                 LDQ     TEMP_LX_NODE+4
        35 052536   000000 470400 29                 LDP0    HEAP$
        35 052537   000007 756100                    STQ     7,,PR0

  44109 35 052540   000000 236000 29                 LDQ     HEAP$
        35 052541   000004 756000 30                 STQ     TEMP_LX_NODE+4

  44110 35 052542   000002 235000 30                 LDA     TEMP_LX_NODE+2
        35 052543   052545 601000 35                 TNZ     s:44112

  44111 35 052544   000001 756000 30                 STQ     TEMP_LX_NODE+1

  44112 35 052545   000002 054000 30                 AOS     TEMP_LX_NODE+2

     7788    44117               %NEW_LX_REC_DECL (@POINTER = HEAP$);

  44126 35 052546   001077 630400 36                 EPPR0   575
        35 052547   000025 631400 36                 EPPR1   21
        35 052550   000000 701000 xent               TSX1    Z8ED$NEW_HEAP
        35 052551   000000 011000                    NOP     0

  44130 35 052552   000003 220003                    LDX0    3,DU
        35 052553   000000 470400 29                 LDP0    HEAP$
        35 052554   000000 740100                    STX0    0,,PR0

  44131 35 052555   000000 470400 29                 LDP0    HEAP$
        35 052556   000041 450100                    STZ     33,,PR0
PL6.E3A0      #001=Z8EM$SEMANTICS_DATA_DIV File=Z8EM.:Z8A6TSI                    SAT 08/09/97 12:08 Page:1372

  44132 35 052557   000017 450000 0                  STZ     I

  44133 35 052560   000024 236000 36                 LDQ     20
        35 052561   000000 470400 29                 LDP0    HEAP$
        35 052562   000017 720000 0                  LXL0    I
        35 052563   000001 756110                    STQ     1,X0,PR0

  44134 35 052564   000000 470400 29                 LDP0    HEAP$
        35 052565   000021 450110                    STZ     17,X0,PR0

  44135 35 052566   000017 054000 0                  AOS     I
        35 052567   000017 235000 0                  LDA     I
        35 052570   000017 115007                    CMPA    15,DL
        35 052571   052560 604400 35                 TMOZ    s:44133

     7789    44138               %NEW_COPY_LX_ITEM (@FROM$ = "ADDR(TEMP_LX_NODE)",
     7790    44139                 @TO$ = "HEAP$ -> LX_REC_DECL.P.OCCURS$");

  44144 35 052572   000054 236000 36                 LDQ     44
        35 052573   001013 756000 0                  STQ     PROC$+3
        35 052574   000000 236000 29                 LDQ     HEAP$
        35 052575   000007 036003                    ADLQ    7,DU
        35 052576   001012 756000 0                  STQ     PROC$+2
        35 052577   001012 630400 0                  EPPR0   PROC$+2
        35 052600   000025 631400 36                 EPPR1   21
        35 052601   000000 701000 xent               TSX1    Z8ED$NEW_HEAP
        35 052602   000000 011000                    NOP     0

  44147 35 052603   000000 470400 29                 LDP0    HEAP$
        35 052604   000007 471500                    LDP1    7,,PR0
        35 052605   000100 100400                    MLR     fill='000'O
        35 052606   000000 000040 30                 ADSC9   TEMP_LX_NODE             cn=0,n=32
        35 052607   100000 000040                    ADSC9   0,,PR1                   cn=0,n=32

  44148 35 052610   000000 470400 29                 LDP0    HEAP$
        35 052611   000007 471500                    LDP1    7,,PR0
PL6.E3A0      #001=Z8EM$SEMANTICS_DATA_DIV File=Z8EM.:Z8A6TSI                    SAT 08/09/97 12:08 Page:1373
        35 052612   000024 236000 36                 LDQ     20
        35 052613   100007 756100                    STQ     7,,PR1

     7791    44151    2          HEAP$ -> LX_REC_DECL.CURRENT_CLAUSE_COUNT = 1;

  44151 35 052614   000001 235007                    LDA     1,DL
        35 052615   000041 755100                    STA     33,,PR0

     7792    44152    2          HEAP$ -> LX_REC_DECL.CLAUSE_COUNT(%REC_DECL_OCCURS) = 1;

  44152 35 052616   000027 755100                    STA     23,,PR0

     7793    44153               %INIT_LX_LARGE (@POINTER = "ADDR(TEMP_LX_NODE)");

  44155 35 052617   000001 220003                    LDX0    1,DU
        35 052620   000000 740000 30                 STX0    TEMP_LX_NODE

  44156 35 052621   000024 236000 36                 LDQ     20
        35 052622   000001 756000 30                 STQ     TEMP_LX_NODE+1

  44157 35 052623   000007 756000 30                 STQ     TEMP_LX_NODE+7

     7794    44160    2          ADDR(TEMP_LX_NODE) -> LX_LARGE.LARGE_ITEM$ = HEAP$;

  44160 35 052624   000000 236000 29                 LDQ     HEAP$
        35 052625   000001 756000 30                 STQ     TEMP_LX_NODE+1

     7795    44161               %PROPAGATE_TEMP_LX_NODE;

  44163 35 052626   000134 235000 xsym               LDA     O1COM+92
        35 052627   000001 735000                    ALS     1
        35 052630   000000 236005 xsym               LDQ     DD_PRODR,AL
        35 052631   777777 376007                    ANQ     -1,DL
        35 052632   001012 756000 0                  STQ     PROC$+2
        35 052633   000151 236000 xsym               LDQ     O1COM+105
        35 052634   001012 136000 0                  SBLQ    PROC$+2
        35 052635   000005 736000                    QLS     5
PL6.E3A0      #001=Z8EM$SEMANTICS_DATA_DIV File=Z8EM.:Z8A6TSI                    SAT 08/09/97 12:08 Page:1374
        35 052636   000006 100400                    MLR     fill='000'O
        35 052637   000000 000040 30                 ADSC9   TEMP_LX_NODE             cn=0,n=32
        35 052640   014027 000040 xsym               ADSC9   O1COM+6167,Q             cn=0,n=32

  44164 35 052641   056641 710000 35                 TRA     s:45674

     7796    44166
     7797    44167    2     CASE(%ACT_VERIFY_FIRST_DD_CLAUSE);

     7798    44168
     7799    44169    2          CALL VERIFY_FIRST_DD_CLAUSE

  44169 35 052642   000151 236000 xsym               LDQ     O1COM+105
        35 052643   000025 736000                    QLS     21
        35 052644   000732 036000 36                 ADLQ    474
        35 052645   000757 756000 0                  STQ     P$+2
        35 052646   032326 701000 35                 TSX1    VERIFY_FIRST_DD_CLAUSE
        35 052647   000000 011000                    NOP     0
        35 052650   056641 710000 35                 TRA     s:45674

     7800    44170    2              (ADDR(O1COM.LX_STK(O1COM.LX_TOP)) -> LX_LARGE.LARGE_ITEM$);
     7801    44171
     7802    44172    2     CASE(%ACT_APPEND_DD_CLAUSE);

     7803    44173
     7804    44174    2          CALL APPEND_DD_CLAUSES

  44174 35 052651   000151 236000 xsym               LDQ     O1COM+105
        35 052652   000025 736000                    QLS     21
        35 052653   000732 036000 36                 ADLQ    474
        35 052654   000077 756000 0                  STQ     @REC_DD_CLAUSE$+1
        35 052655   000151 236000 xsym               LDQ     O1COM+105
        35 052656   000025 736000                    QLS     21
        35 052657   001027 036000 36                 ADLQ    535
        35 052660   000076 756000 0                  STQ     @ATTR$+2
        35 052661   001272 701000 35                 TSX1    APPEND_DD_CLAUSES
        35 052662   000000 011000                    NOP     0
PL6.E3A0      #001=Z8EM$SEMANTICS_DATA_DIV File=Z8EM.:Z8A6TSI                    SAT 08/09/97 12:08 Page:1375

     7805    44175    2              (ADDR(O1COM.LX_STK(O1COM.LX_TOP - 1)) -> LX_LARGE.LARGE_ITEM$,
     7806    44176    2               ADDR(O1COM.LX_STK(O1COM.LX_TOP)) -> LX_LARGE.LARGE_ITEM$);
     7807    44177    2          CALL Z8ED$DISPOSE_ABSSYN_TREE (ADDR(O1COM.LX_STK(O1COM.LX_TOP)) -> LX_LARGE.
             44177                   LARGE_ITEM$);

  44177 35 052663   000151 236000 xsym               LDQ     O1COM+105
        35 052664   000025 736000                    QLS     21
        35 052665   000732 036000 36                 ADLQ    474
        35 052666   001012 756000 0                  STQ     PROC$+2
        35 052667   001012 630400 0                  EPPR0   PROC$+2
        35 052670   000036 631400 36                 EPPR1   30
        35 052671   000000 701000 xent               TSX1    Z8ED$DISPOSE_ABSSYN_TREE
        35 052672   000000 011000                    NOP     0
        35 052673   056641 710000 35                 TRA     s:45674

     7808    44178
     7809    44179    2     CASE(%ACT_REC_DESC);

     7810    44180
     7811    44181            /* Add the level number & data name to the <DD_clause>
     7812    44182            */
     7813    44183               %NEW_COPY_LX_STK(@POINTER = HEAP$,
     7814    44184                                @FROM = "O1COM.LX_TOP - 2");

  44189 35 052674   000670 630400 36                 EPPR0   440
        35 052675   000025 631400 36                 EPPR1   21
        35 052676   000000 701000 xent               TSX1    Z8ED$NEW_HEAP
        35 052677   000000 011000                    NOP     0

  44192 35 052700   000151 235000 xsym               LDA     O1COM+105
        35 052701   000005 735000                    ALS     5
        35 052702   000000 470400 29                 LDP0    HEAP$
        35 052703   000100 100405                    MLR     fill='000'O
        35 052704   013777 000040 xsym               ADSC9   O1COM+6143,A             cn=0,n=32
        35 052705   000000 000040                    ADSC9   0,,PR0                   cn=0,n=32

PL6.E3A0      #001=Z8EM$SEMANTICS_DATA_DIV File=Z8EM.:Z8A6TSI                    SAT 08/09/97 12:08 Page:1376
     7815    44195    2          ADDR(O1COM.LX_STK(O1COM.LX_TOP - 1)) -> LX_LARGE.LARGE_ITEM$ ->

  44195 35 052706   000151 235000 xsym               LDA     O1COM+105
        35 052707   000003 735000                    ALS     3
        35 052710   014010 470405 xsym               LDP0    O1COM+6152,AL
        35 052711   000000 236000 29                 LDQ     HEAP$
        35 052712   000002 756100                    STQ     2,,PR0

     7816    44196    2                  LX_REC_DECL.P.DATA_NAME$ = HEAP$;
     7817    44197
     7818    44198    2          CALL LEVEL_CHECK (ADDR(O1COM.LX_STK(O1COM.LX_TOP - 3)),

  44198 35 052713   000151 236000 xsym               LDQ     O1COM+105
        35 052714   000025 736000                    QLS     21
        35 052715   000241 036000 36                 ADLQ    161
        35 052716   001241 756000 0                  STQ     PROC$+153
        35 052717   000151 236000 xsym               LDQ     O1COM+105
        35 052720   000025 736000                    QLS     21
        35 052721   000640 036000 36                 ADLQ    416
        35 052722   001242 756000 0                  STQ     PROC$+154
        35 052723   001242 630400 0                  EPPR0   PROC$+154
        35 052724   000350 450400 0                  STP0    @LEVEL_NO$+1
        35 052725   001241 631400 0                  EPPR1   PROC$+153
        35 052726   000347 451400 0                  STP1    CLAUSE_ERROR+2
        35 052727   012102 701000 35                 TSX1    LEVEL_CHECK
        35 052730   000000 011000                    NOP     0

     7819    44199    2                            ADDR(O1COM.LX_STK(O1COM.LX_TOP - 1)));
     7820    44200               %NEW_COPY_LX_STK(@POINTER = HEAP$,
     7821    44201                                @FROM = "O1COM.LX_TOP - 3");

  44206 35 052731   000670 630400 36                 EPPR0   440
        35 052732   000025 631400 36                 EPPR1   21
        35 052733   000000 701000 xent               TSX1    Z8ED$NEW_HEAP
        35 052734   000000 011000                    NOP     0

  44209 35 052735   000151 235000 xsym               LDA     O1COM+105
PL6.E3A0      #001=Z8EM$SEMANTICS_DATA_DIV File=Z8EM.:Z8A6TSI                    SAT 08/09/97 12:08 Page:1377
        35 052736   000005 735000                    ALS     5
        35 052737   000000 470400 29                 LDP0    HEAP$
        35 052740   000100 100405                    MLR     fill='000'O
        35 052741   013767 000040 xsym               ADSC9   O1COM+6135,A             cn=0,n=32
        35 052742   000000 000040                    ADSC9   0,,PR0                   cn=0,n=32

     7822    44212    2          ADDR(O1COM.LX_STK(O1COM.LX_TOP - 1)) -> LX_LARGE.LARGE_ITEM$ ->

  44212 35 052743   000151 235000 xsym               LDA     O1COM+105
        35 052744   000003 735000                    ALS     3
        35 052745   014010 470405 xsym               LDP0    O1COM+6152,AL
        35 052746   000000 236000 29                 LDQ     HEAP$
        35 052747   000001 756100                    STQ     1,,PR0

     7823    44213    2                  LX_REC_DECL.P.LEVEL_NO$ = HEAP$;
     7824    44214               %PROPAGATE (@FROM = "O1COM.LX_TOP - 1");

  44216 35 052750   000134 235000 xsym               LDA     O1COM+92
        35 052751   000001 735000                    ALS     1
        35 052752   000000 236005 xsym               LDQ     DD_PRODR,AL
        35 052753   777777 376007                    ANQ     -1,DL
        35 052754   001012 756000 0                  STQ     PROC$+2
        35 052755   000151 236000 xsym               LDQ     O1COM+105
        35 052756   001012 136000 0                  SBLQ    PROC$+2
        35 052757   000151 235000 xsym               LDA     O1COM+105
        35 052760   000005 735000                    ALS     5
        35 052761   000005 736000                    QLS     5
        35 052762   000006 100405                    MLR     fill='000'O
        35 052763   014007 000040 xsym               ADSC9   O1COM+6151,A             cn=0,n=32
        35 052764   014027 000040 xsym               ADSC9   O1COM+6167,Q             cn=0,n=32

  44217 35 052765   056641 710000 35                 TRA     s:45674

     7825    44219
     7826    44220    2     CASE(%ACT_REC_DESC_NO_DD);

     7827    44221
PL6.E3A0      #001=Z8EM$SEMANTICS_DATA_DIV File=Z8EM.:Z8A6TSI                    SAT 08/09/97 12:08 Page:1378
     7828    44222            /* Create a <DD_clause> with level number & data_name
     7829    44223            */
     7830    44224               %INIT_LX_LARGE (@POINTER = "ADDR(TEMP_LX_NODE)");

  44226 35 052766   000001 220003                    LDX0    1,DU
        35 052767   000000 740000 30                 STX0    TEMP_LX_NODE

  44227 35 052770   000024 236000 36                 LDQ     20
        35 052771   000001 756000 30                 STQ     TEMP_LX_NODE+1

  44228 35 052772   000007 756000 30                 STQ     TEMP_LX_NODE+7

     7831    44231               %NEW_LX_REC_DECL (@POINTER = HEAP$);

  44240 35 052773   001077 630400 36                 EPPR0   575
        35 052774   000025 631400 36                 EPPR1   21
        35 052775   000000 701000 xent               TSX1    Z8ED$NEW_HEAP
        35 052776   000000 011000                    NOP     0

  44244 35 052777   000003 220003                    LDX0    3,DU
        35 053000   000000 470400 29                 LDP0    HEAP$
        35 053001   000000 740100                    STX0    0,,PR0

  44245 35 053002   000000 470400 29                 LDP0    HEAP$
        35 053003   000041 450100                    STZ     33,,PR0

  44246 35 053004   000017 450000 0                  STZ     I

  44247 35 053005   000024 236000 36                 LDQ     20
        35 053006   000000 470400 29                 LDP0    HEAP$
        35 053007   000017 720000 0                  LXL0    I
        35 053010   000001 756110                    STQ     1,X0,PR0

  44248 35 053011   000000 470400 29                 LDP0    HEAP$
        35 053012   000021 450110                    STZ     17,X0,PR0

  44249 35 053013   000017 054000 0                  AOS     I
PL6.E3A0      #001=Z8EM$SEMANTICS_DATA_DIV File=Z8EM.:Z8A6TSI                    SAT 08/09/97 12:08 Page:1379
        35 053014   000017 235000 0                  LDA     I
        35 053015   000017 115007                    CMPA    15,DL
        35 053016   053005 604400 35                 TMOZ    s:44247

     7832    44252    2          ADDR(TEMP_LX_NODE) -> LX_LARGE.LARGE_ITEM$ = HEAP$;

  44252 35 053017   000000 236000 29                 LDQ     HEAP$
        35 053020   000001 756000 30                 STQ     TEMP_LX_NODE+1

     7833    44253               %NEW_COPY_LX_STK (@POINTER = HEAP$,
     7834    44254                                 @FROM = "O1COM.LX_TOP - 1");

  44259 35 053021   000670 630400 36                 EPPR0   440
        35 053022   000025 631400 36                 EPPR1   21
        35 053023   000000 701000 xent               TSX1    Z8ED$NEW_HEAP
        35 053024   000000 011000                    NOP     0

  44262 35 053025   000151 235000 xsym               LDA     O1COM+105
        35 053026   000005 735000                    ALS     5
        35 053027   000000 470400 29                 LDP0    HEAP$
        35 053030   000100 100405                    MLR     fill='000'O
        35 053031   014007 000040 xsym               ADSC9   O1COM+6151,A             cn=0,n=32
        35 053032   000000 000040                    ADSC9   0,,PR0                   cn=0,n=32

     7835    44265    2          ADDR(TEMP_LX_NODE) -> LX_LARGE.LARGE_ITEM$

  44265 35 053033   000000 236000 29                 LDQ     HEAP$
        35 053034   000001 470400 30                 LDP0    TEMP_LX_NODE+1
        35 053035   000002 756100                    STQ     2,,PR0

     7836    44266    2              -> LX_REC_DECL.P.DATA_NAME$ = HEAP$;
     7837    44267               %NEW_COPY_LX_STK (@POINTER = HEAP$,
     7838    44268                                 @FROM = "O1COM.LX_TOP - 2");

  44273 35 053036   000670 630400 36                 EPPR0   440
        35 053037   000025 631400 36                 EPPR1   21
        35 053040   000000 701000 xent               TSX1    Z8ED$NEW_HEAP
PL6.E3A0      #001=Z8EM$SEMANTICS_DATA_DIV File=Z8EM.:Z8A6TSI                    SAT 08/09/97 12:08 Page:1380
        35 053041   000000 011000                    NOP     0

  44276 35 053042   000151 235000 xsym               LDA     O1COM+105
        35 053043   000005 735000                    ALS     5
        35 053044   000000 470400 29                 LDP0    HEAP$
        35 053045   000100 100405                    MLR     fill='000'O
        35 053046   013777 000040 xsym               ADSC9   O1COM+6143,A             cn=0,n=32
        35 053047   000000 000040                    ADSC9   0,,PR0                   cn=0,n=32

     7839    44279    2          ADDR(TEMP_LX_NODE) -> LX_LARGE.LARGE_ITEM$

  44279 35 053050   000000 236000 29                 LDQ     HEAP$
        35 053051   000001 470400 30                 LDP0    TEMP_LX_NODE+1
        35 053052   000001 756100                    STQ     1,,PR0

     7840    44280    2              -> LX_REC_DECL.P.LEVEL_NO$ = HEAP$;
     7841    44281               %PROPAGATE_TEMP_LX_NODE;

  44283 35 053053   000134 235000 xsym               LDA     O1COM+92
        35 053054   000001 735000                    ALS     1
        35 053055   000000 236005 xsym               LDQ     DD_PRODR,AL
        35 053056   777777 376007                    ANQ     -1,DL
        35 053057   001012 756000 0                  STQ     PROC$+2
        35 053060   000151 236000 xsym               LDQ     O1COM+105
        35 053061   001012 136000 0                  SBLQ    PROC$+2
        35 053062   000005 736000                    QLS     5
        35 053063   000006 100400                    MLR     fill='000'O
        35 053064   000000 000040 30                 ADSC9   TEMP_LX_NODE             cn=0,n=32
        35 053065   014027 000040 xsym               ADSC9   O1COM+6167,Q             cn=0,n=32

  44284 35 053066   056641 710000 35                 TRA     s:45674

     7842    44286
     7843    44287    2     CASE(%ACT_PROCESS_REC_DESC);

     7844    44288
     7845    44289    2          CALL Z8DR$RECORD_DECL (ADDR(O1COM.LX_STK(O1COM.LX_TOP -1)) -> LX_LARGE.
PL6.E3A0      #001=Z8EM$SEMANTICS_DATA_DIV File=Z8EM.:Z8A6TSI                    SAT 08/09/97 12:08 Page:1381
             44289                   LARGE_ITEM$,

  44289 35 053067   000151 236000 xsym               LDQ     O1COM+105
        35 053070   000025 736000                    QLS     21
        35 053071   000732 036000 36                 ADLQ    474
        35 053072   001013 756000 0                  STQ     PROC$+3
        35 053073   000151 236000 xsym               LDQ     O1COM+105
        35 053074   000025 736000                    QLS     21
        35 053075   001027 036000 36                 ADLQ    535
        35 053076   001012 756000 0                  STQ     PROC$+2
        35 053077   001012 630400 0                  EPPR0   PROC$+2
        35 053100   000025 631400 36                 EPPR1   21
        35 053101   000000 701000 xent               TSX1    Z8DR$RECORD_DECL
        35 053102   000000 011000                    NOP     0

     7846    44290    2                                ADDR(O1COM.LX_STK(O1COM.LX_TOP)) -> LX_LARGE.
             44290                                         LARGE_ITEM$);
     7847    44291    2          CALL Z8ED$DISPOSE_ABSSYN_TREE (ADDR(O1COM.LX_STK(O1COM.LX_TOP - 1)) ->
             44291                   LX_LARGE.LARGE_ITEM$);

  44291 35 053103   000151 236000 xsym               LDQ     O1COM+105
        35 053104   000025 736000                    QLS     21
        35 053105   001027 036000 36                 ADLQ    535
        35 053106   001012 756000 0                  STQ     PROC$+2
        35 053107   001012 630400 0                  EPPR0   PROC$+2
        35 053110   000036 631400 36                 EPPR1   30
        35 053111   000000 701000 xent               TSX1    Z8ED$DISPOSE_ABSSYN_TREE
        35 053112   000000 011000                    NOP     0

     7848    44292               %PROPAGATE(@FROM = O1COM.LX_TOP);

  44294 35 053113   000134 235000 xsym               LDA     O1COM+92
        35 053114   000001 735000                    ALS     1
        35 053115   000000 236005 xsym               LDQ     DD_PRODR,AL
        35 053116   777777 376007                    ANQ     -1,DL
        35 053117   001012 756000 0                  STQ     PROC$+2
        35 053120   000151 236000 xsym               LDQ     O1COM+105
PL6.E3A0      #001=Z8EM$SEMANTICS_DATA_DIV File=Z8EM.:Z8A6TSI                    SAT 08/09/97 12:08 Page:1382
        35 053121   001012 136000 0                  SBLQ    PROC$+2
        35 053122   000151 235000 xsym               LDA     O1COM+105
        35 053123   000005 735000                    ALS     5
        35 053124   000005 736000                    QLS     5
        35 053125   000006 100405                    MLR     fill='000'O
        35 053126   014017 000040 xsym               ADSC9   O1COM+6159,A             cn=0,n=32
        35 053127   014027 000040 xsym               ADSC9   O1COM+6167,Q             cn=0,n=32

  44295 35 053130   056641 710000 35                 TRA     s:45674

     7849    44297
     7850    44298    2     CASE(%ACT_PROCESS_LAST_REC_DESC);

     7851    44299
     7852    44300    2          CALL Z8DR$RECORD_DECL (ADDR(O1COM.LX_STK(O1COM.LX_TOP)) -> LX_LARGE.
             44300                   LARGE_ITEM$,

  44300 35 053131   000024 236000 36                 LDQ     20
        35 053132   001012 756000 0                  STQ     PROC$+2
        35 053133   001012 630400 0                  EPPR0   PROC$+2
        35 053134   001015 450400 0                  STP0    PROC$+5
        35 053135   000151 236000 xsym               LDQ     O1COM+105
        35 053136   000025 736000                    QLS     21
        35 053137   000732 036000 36                 ADLQ    474
        35 053140   001014 756000 0                  STQ     PROC$+4
        35 053141   001014 630400 0                  EPPR0   PROC$+4
        35 053142   000025 631400 36                 EPPR1   21
        35 053143   000000 701000 xent               TSX1    Z8DR$RECORD_DECL
        35 053144   000000 011000                    NOP     0

     7853    44301    2                                ADDR(NIL));
     7854    44302    2          CALL Z8ED$DISPOSE_ABSSYN_TREE (ADDR(O1COM.LX_STK(O1COM.LX_TOP)) -> LX_LARGE.
             44302                   LARGE_ITEM$);

  44302 35 053145   000151 236000 xsym               LDQ     O1COM+105
        35 053146   000025 736000                    QLS     21
        35 053147   000732 036000 36                 ADLQ    474
PL6.E3A0      #001=Z8EM$SEMANTICS_DATA_DIV File=Z8EM.:Z8A6TSI                    SAT 08/09/97 12:08 Page:1383
        35 053150   001012 756000 0                  STQ     PROC$+2
        35 053151   001012 630400 0                  EPPR0   PROC$+2
        35 053152   000036 631400 36                 EPPR1   30
        35 053153   000000 701000 xent               TSX1    Z8ED$DISPOSE_ABSSYN_TREE
        35 053154   000000 011000                    NOP     0
        35 053155   056641 710000 35                 TRA     s:45674

     7855    44303
     7856    44304
     7857    44305
     7858    44306        %EJECT;
PL6.E3A0      #001=Z8EM$SEMANTICS_DATA_DIV File=Z8EM.:Z8A6TSI                    SAT 08/09/97 12:08 Page:1384
     7859    44307        /*
     7860    44308                               Symbolic character
     7861    44309                               Alphabet names
     7862    44310        */
     7863    44311
     7864    44312    2     CASE(%ACT_OBJECT_COMPUTER);

     7865    44313
     7866    44314    2          CALL CHECK_OBJECT_COMPUTER(ADDR(O1COM.LX_STK(O1COM.LX_TOP - 1)) ->
             44314                   LX_TERMINAL.DNT$);

  44314 35 053156   000151 236000 xsym               LDQ     O1COM+105
        35 053157   000025 736000                    QLS     21
        35 053160   001104 036000 36                 ADLQ    580
        35 053161   000165 756000 0                  STQ     @TERMINAL$+2
        35 053162   003731 701000 35                 TSX1    CHECK_OBJECT_COMPUTER
        35 053163   000000 011000                    NOP     0
        35 053164   056641 710000 35                 TRA     s:45674

     7867    44315
     7868    44316    2     CASE(%ACT_OBJECT_COMPUTER_2);

     7869    44317
     7870    44318    2          CALL CHECK_OBJECT_COMPUTER (ADDR(O1COM.LX_STK(O1COM.LX_TOP - 2)) ->
             44318                   LX_TERMINAL.DNT$);

  44318 35 053165   000151 236000 xsym               LDQ     O1COM+105
        35 053166   000025 736000                    QLS     21
        35 053167   000763 036000 36                 ADLQ    499
        35 053170   000165 756000 0                  STQ     @TERMINAL$+2
        35 053171   003731 701000 35                 TSX1    CHECK_OBJECT_COMPUTER
        35 053172   000000 011000                    NOP     0
        35 053173   056641 710000 35                 TRA     s:45674

     7871    44319    2     CASE (%ACT_COMPUTER_NAME_1);

     7872    44320
PL6.E3A0      #001=Z8EM$SEMANTICS_DATA_DIV File=Z8EM.:Z8A6TSI                    SAT 08/09/97 12:08 Page:1385
     7873    44321    3          DO SELECT (O1COM.LX_STK.DNT$(O1COM.LX_TOP) -> DNT.TEXT.NAME);

  44321 35 053174   000151 236000 xsym               LDQ     O1COM+105
        35 053175   000003 736000                    QLS     3
        35 053176   014021 470406 xsym               LDP0    O1COM+6161,QL
        35 053177   000004 220100                    LDX0    4,,PR0
        35 053200   040000 106540                    CMPC    fill='040'O
        35 053201   000004 400010                    ADSC9   4,,PR0                   cn=2,n=*X0
        35 053202   000157 000006 34                 ADSC9   RSW_NO+111               cn=0,n=6
        35 053203   053274 602000 35                 TNC     s:44321+64
        35 053204   053363 600000 35                 TZE     s:44323
        35 053205   040000 106540                    CMPC    fill='040'O
        35 053206   000004 400010                    ADSC9   4,,PR0                   cn=2,n=*X0
        35 053207   000161 000007 34                 ADSC9   RSW_NO+113               cn=0,n=7
        35 053210   053243 602000 35                 TNC     s:44321+39
        35 053211   053363 600000 35                 TZE     s:44323
        35 053212   040000 106540                    CMPC    fill='040'O
        35 053213   000004 400010                    ADSC9   4,,PR0                   cn=2,n=*X0
        35 053214   000163 000010 34                 ADSC9   RSW_NO+115               cn=0,n=8
        35 053215   053236 602000 35                 TNC     s:44321+34
        35 053216   053363 600000 35                 TZE     s:44323
        35 053217   040000 106540                    CMPC    fill='040'O
        35 053220   000004 400010                    ADSC9   4,,PR0                   cn=2,n=*X0
        35 053221   000165 000016 34                 ADSC9   RSW_NO+117               cn=0,n=14
        35 053222   053231 602000 35                 TNC     s:44321+29
        35 053223   053363 600000 35                 TZE     s:44323
        35 053224   040000 106540                    CMPC    fill='040'O
        35 053225   000004 400010                    ADSC9   4,,PR0                   cn=2,n=*X0
        35 053226   000171 000010 34                 ADSC9   RSW_NO+121               cn=0,n=8
        35 053227   053364 601000 35                 TNZ     s:44333
        35 053230   053363 710000 35                 TRA     s:44323
        35 053231   040000 106540                    CMPC    fill='040'O
        35 053232   000004 400010                    ADSC9   4,,PR0                   cn=2,n=*X0
        35 053233   000173 000010 34                 ADSC9   RSW_NO+123               cn=0,n=8
        35 053234   053364 601000 35                 TNZ     s:44333
        35 053235   053363 710000 35                 TRA     s:44323
        35 053236   040000 106540                    CMPC    fill='040'O
PL6.E3A0      #001=Z8EM$SEMANTICS_DATA_DIV File=Z8EM.:Z8A6TSI                    SAT 08/09/97 12:08 Page:1386
        35 053237   000004 400010                    ADSC9   4,,PR0                   cn=2,n=*X0
        35 053240   000175 000010 34                 ADSC9   RSW_NO+125               cn=0,n=8
        35 053241   053364 601000 35                 TNZ     s:44333
        35 053242   053363 710000 35                 TRA     s:44323
        35 053243   040000 106540                    CMPC    fill='040'O
        35 053244   000004 400010                    ADSC9   4,,PR0                   cn=2,n=*X0
        35 053245   000033 000005 34                 ADSC9   RSW_NO+27                cn=0,n=5
        35 053246   053267 602000 35                 TNC     s:44321+59
        35 053247   053363 600000 35                 TZE     s:44323
        35 053250   040000 106540                    CMPC    fill='040'O
        35 053251   000004 400010                    ADSC9   4,,PR0                   cn=2,n=*X0
        35 053252   000037 000007 34                 ADSC9   RSW_NO+31                cn=0,n=7
        35 053253   053262 602000 35                 TNC     s:44321+54
        35 053254   053363 600000 35                 TZE     s:44323
        35 053255   040000 106540                    CMPC    fill='040'O
        35 053256   000004 400010                    ADSC9   4,,PR0                   cn=2,n=*X0
        35 053257   000177 000004 34                 ADSC9   RSW_NO+127               cn=0,n=4
        35 053260   053364 601000 35                 TNZ     s:44333
        35 053261   053363 710000 35                 TRA     s:44323
        35 053262   040000 106540                    CMPC    fill='040'O
        35 053263   000004 400010                    ADSC9   4,,PR0                   cn=2,n=*X0
        35 053264   000035 000005 34                 ADSC9   RSW_NO+29                cn=0,n=5
        35 053265   053364 601000 35                 TNZ     s:44333
        35 053266   053363 710000 35                 TRA     s:44323
        35 053267   040000 106540                    CMPC    fill='040'O
        35 053270   000004 400010                    ADSC9   4,,PR0                   cn=2,n=*X0
        35 053271   000200 000006 34                 ADSC9   RSW_NO+128               cn=0,n=6
        35 053272   053364 601000 35                 TNZ     s:44333
        35 053273   053363 710000 35                 TRA     s:44323
        35 053274   040000 106540                    CMPC    fill='040'O
        35 053275   000004 400010                    ADSC9   4,,PR0                   cn=2,n=*X0
        35 053276   000045 000006 34                 ADSC9   RSW_NO+37                cn=0,n=6
        35 053277   053337 602000 35                 TNC     s:44321+99
        35 053300   053363 600000 35                 TZE     s:44323
        35 053301   040000 106540                    CMPC    fill='040'O
        35 053302   000004 400010                    ADSC9   4,,PR0                   cn=2,n=*X0
        35 053303   000202 000007 34                 ADSC9   RSW_NO+130               cn=0,n=7
PL6.E3A0      #001=Z8EM$SEMANTICS_DATA_DIV File=Z8EM.:Z8A6TSI                    SAT 08/09/97 12:08 Page:1387
        35 053304   053320 602000 35                 TNC     s:44321+84
        35 053305   053363 600000 35                 TZE     s:44323
        35 053306   040000 106540                    CMPC    fill='040'O
        35 053307   000004 400010                    ADSC9   4,,PR0                   cn=2,n=*X0
        35 053310   000204 000007 34                 ADSC9   RSW_NO+132               cn=0,n=7
        35 053311   053364 602000 35                 TNC     s:44333
        35 053312   053363 600000 35                 TZE     s:44323
        35 053313   040000 106540                    CMPC    fill='040'O
        35 053314   000004 400010                    ADSC9   4,,PR0                   cn=2,n=*X0
        35 053315   000041 000007 34                 ADSC9   RSW_NO+33                cn=0,n=7
        35 053316   053364 601000 35                 TNZ     s:44333
        35 053317   053363 710000 35                 TRA     s:44323
        35 053320   040000 106540                    CMPC    fill='040'O
        35 053321   000004 400010                    ADSC9   4,,PR0                   cn=2,n=*X0
        35 053322   000043 000010 34                 ADSC9   RSW_NO+35                cn=0,n=8
        35 053323   053332 602000 35                 TNC     s:44321+94
        35 053324   053363 600000 35                 TZE     s:44323
        35 053325   040000 106540                    CMPC    fill='040'O
        35 053326   000004 400010                    ADSC9   4,,PR0                   cn=2,n=*X0
        35 053327   000033 000004 34                 ADSC9   RSW_NO+27                cn=0,n=4
        35 053330   053364 601000 35                 TNZ     s:44333
        35 053331   053363 710000 35                 TRA     s:44323
        35 053332   040000 106540                    CMPC    fill='040'O
        35 053333   000004 400010                    ADSC9   4,,PR0                   cn=2,n=*X0
        35 053334   000031 000006 34                 ADSC9   RSW_NO+25                cn=0,n=6
        35 053335   053364 601000 35                 TNZ     s:44333
        35 053336   053363 710000 35                 TRA     s:44323
        35 053337   040000 106540                    CMPC    fill='040'O
        35 053340   000004 400010                    ADSC9   4,,PR0                   cn=2,n=*X0
        35 053341   000206 000010 34                 ADSC9   RSW_NO+134               cn=0,n=8
        35 053342   053356 602000 35                 TNC     s:44321+114
        35 053343   053363 600000 35                 TZE     s:44323
        35 053344   040000 106540                    CMPC    fill='040'O
        35 053345   000004 400010                    ADSC9   4,,PR0                   cn=2,n=*X0
        35 053346   000210 000010 34                 ADSC9   RSW_NO+136               cn=0,n=8
        35 053347   053364 602000 35                 TNC     s:44333
        35 053350   053363 600000 35                 TZE     s:44323
PL6.E3A0      #001=Z8EM$SEMANTICS_DATA_DIV File=Z8EM.:Z8A6TSI                    SAT 08/09/97 12:08 Page:1388
        35 053351   040000 106540                    CMPC    fill='040'O
        35 053352   000004 400010                    ADSC9   4,,PR0                   cn=2,n=*X0
        35 053353   000047 000010 34                 ADSC9   RSW_NO+39                cn=0,n=8
        35 053354   053364 601000 35                 TNZ     s:44333
        35 053355   053363 710000 35                 TRA     s:44323
        35 053356   040000 106540                    CMPC    fill='040'O
        35 053357   000004 400010                    ADSC9   4,,PR0                   cn=2,n=*X0
        35 053360   000045 000005 34                 ADSC9   RSW_NO+37                cn=0,n=5
        35 053361   053364 601000 35                 TNZ     s:44333
        35 053362   053363 710000 35                 TRA     s:44323

     7874    44322
     7875    44323    3            SELECT ('DPS88', 'DPS-88', 'DPS847', 'DPS8-47', 'DPS-8-47',

  44323 35 053363   056641 710000 35                 TRA     s:45674

     7876    44324    3                    'DPS849', 'DPS8-49', 'DPS-8-49', 'GCOS', 'LEVEL-6',
     7877    44325    3                    'LEVEL-61', 'LEVEL-62', 'LEVEL-64', 'LEVEL-66-ASCII',
     7878    44326    3                    'LEVEL-68', 'DPS90', 'DPS-90', 'DPS8', 'DPS-8',
     7879    44327    3                    'DPS8000', 'DPS-8000', 'DPS9000', 'DPS-9000');
     7880    44328
     7881    44329                    /*  OK */
     7882    44330
     7883    44331    3            SELECT (ELSE);

     7884    44332
     7885    44333    3              IF NOT O1COM.LX_STK.B.ERROR(O1COM.LX_TOP) AND

  44333 35 053364   014017 236006 xsym               LDQ     O1COM+6159,QL
        35 053365   400000 316007                    CANQ    -131072,DL
        35 053366   056641 601000 35                 TNZ     s:45674
        35 053367   000151 236000 xsym               LDQ     O1COM+105
        35 053370   000003 736000                    QLS     3
        35 053371   014002 235006 xsym               LDA     O1COM+6146,QL
        35 053372   000470 115007                    CMPA    312,DL
        35 053373   056641 601000 35                 TNZ     s:45674

PL6.E3A0      #001=Z8EM$SEMANTICS_DATA_DIV File=Z8EM.:Z8A6TSI                    SAT 08/09/97 12:08 Page:1389
     7886    44334    3                O1COM.LX_STK.SYMBOL (O1COM.LX_TOP - 2) = %RSV_WRD_OBJECT_COMPUTER THEN
     7887    44335    3                CALL Z8AE$ERROR (%E$COMPUTER_NOT_KNOWN,

  44335 35 053374   000151 236000 xsym               LDQ     O1COM+105
        35 053375   000025 736000                    QLS     21
        35 053376   000662 036000 36                 ADLQ    434
        35 053377   001014 756000 0                  STQ     PROC$+4
        35 053400   000151 236000 xsym               LDQ     O1COM+105
        35 053401   000025 736000                    QLS     21
        35 053402   000663 036000 36                 ADLQ    435
        35 053403   001106 235000 36                 LDA     582
        35 053404   001012 757000 0                  STAQ    PROC$+2
        35 053405   001012 630400 0                  EPPR0   PROC$+2
        35 053406   000000 631400 36                 EPPR1   0
        35 053407   000000 701000 xent               TSX1    Z8AE$ERROR
        35 053410   000000 011000                    NOP     0

     7888    44336    3                                 O1COM.LX_STK.LINE (O1COM.LX_TOP),
     7889    44337    3                                 O1COM.LX_STK.COLUMN (O1COM.LX_TOP));
     7890    44338
     7891    44339    3          END;

  44339 35 053411   056641 710000 35                 TRA     s:45674

     7892    44340
     7893    44341    2     CASE (%ACT_COMPUTER_NAME_2);

     7894    44342
     7895    44343    3          DO SELECT (O1COM.LX_STK.DNT$(O1COM.LX_TOP) -> DNT.TEXT.NAME);

  44343 35 053412   000151 236000 xsym               LDQ     O1COM+105
        35 053413   000003 736000                    QLS     3
        35 053414   014021 470406 xsym               LDP0    O1COM+6161,QL
        35 053415   000004 220100                    LDX0    4,,PR0
        35 053416   040000 106540                    CMPC    fill='040'O
        35 053417   000004 400010                    ADSC9   4,,PR0                   cn=2,n=*X0
        35 053420   000157 000006 34                 ADSC9   RSW_NO+111               cn=0,n=6
PL6.E3A0      #001=Z8EM$SEMANTICS_DATA_DIV File=Z8EM.:Z8A6TSI                    SAT 08/09/97 12:08 Page:1390
        35 053421   053512 602000 35                 TNC     s:44343+64
        35 053422   053601 600000 35                 TZE     s:44345
        35 053423   040000 106540                    CMPC    fill='040'O
        35 053424   000004 400010                    ADSC9   4,,PR0                   cn=2,n=*X0
        35 053425   000161 000007 34                 ADSC9   RSW_NO+113               cn=0,n=7
        35 053426   053461 602000 35                 TNC     s:44343+39
        35 053427   053601 600000 35                 TZE     s:44345
        35 053430   040000 106540                    CMPC    fill='040'O
        35 053431   000004 400010                    ADSC9   4,,PR0                   cn=2,n=*X0
        35 053432   000163 000010 34                 ADSC9   RSW_NO+115               cn=0,n=8
        35 053433   053454 602000 35                 TNC     s:44343+34
        35 053434   053601 600000 35                 TZE     s:44345
        35 053435   040000 106540                    CMPC    fill='040'O
        35 053436   000004 400010                    ADSC9   4,,PR0                   cn=2,n=*X0
        35 053437   000165 000016 34                 ADSC9   RSW_NO+117               cn=0,n=14
        35 053440   053447 602000 35                 TNC     s:44343+29
        35 053441   053601 600000 35                 TZE     s:44345
        35 053442   040000 106540                    CMPC    fill='040'O
        35 053443   000004 400010                    ADSC9   4,,PR0                   cn=2,n=*X0
        35 053444   000171 000010 34                 ADSC9   RSW_NO+121               cn=0,n=8
        35 053445   053602 601000 35                 TNZ     s:44355
        35 053446   053601 710000 35                 TRA     s:44345
        35 053447   040000 106540                    CMPC    fill='040'O
        35 053450   000004 400010                    ADSC9   4,,PR0                   cn=2,n=*X0
        35 053451   000173 000010 34                 ADSC9   RSW_NO+123               cn=0,n=8
        35 053452   053602 601000 35                 TNZ     s:44355
        35 053453   053601 710000 35                 TRA     s:44345
        35 053454   040000 106540                    CMPC    fill='040'O
        35 053455   000004 400010                    ADSC9   4,,PR0                   cn=2,n=*X0
        35 053456   000175 000010 34                 ADSC9   RSW_NO+125               cn=0,n=8
        35 053457   053602 601000 35                 TNZ     s:44355
        35 053460   053601 710000 35                 TRA     s:44345
        35 053461   040000 106540                    CMPC    fill='040'O
        35 053462   000004 400010                    ADSC9   4,,PR0                   cn=2,n=*X0
        35 053463   000033 000005 34                 ADSC9   RSW_NO+27                cn=0,n=5
        35 053464   053505 602000 35                 TNC     s:44343+59
        35 053465   053601 600000 35                 TZE     s:44345
PL6.E3A0      #001=Z8EM$SEMANTICS_DATA_DIV File=Z8EM.:Z8A6TSI                    SAT 08/09/97 12:08 Page:1391
        35 053466   040000 106540                    CMPC    fill='040'O
        35 053467   000004 400010                    ADSC9   4,,PR0                   cn=2,n=*X0
        35 053470   000037 000007 34                 ADSC9   RSW_NO+31                cn=0,n=7
        35 053471   053500 602000 35                 TNC     s:44343+54
        35 053472   053601 600000 35                 TZE     s:44345
        35 053473   040000 106540                    CMPC    fill='040'O
        35 053474   000004 400010                    ADSC9   4,,PR0                   cn=2,n=*X0
        35 053475   000177 000004 34                 ADSC9   RSW_NO+127               cn=0,n=4
        35 053476   053602 601000 35                 TNZ     s:44355
        35 053477   053601 710000 35                 TRA     s:44345
        35 053500   040000 106540                    CMPC    fill='040'O
        35 053501   000004 400010                    ADSC9   4,,PR0                   cn=2,n=*X0
        35 053502   000035 000005 34                 ADSC9   RSW_NO+29                cn=0,n=5
        35 053503   053602 601000 35                 TNZ     s:44355
        35 053504   053601 710000 35                 TRA     s:44345
        35 053505   040000 106540                    CMPC    fill='040'O
        35 053506   000004 400010                    ADSC9   4,,PR0                   cn=2,n=*X0
        35 053507   000200 000006 34                 ADSC9   RSW_NO+128               cn=0,n=6
        35 053510   053602 601000 35                 TNZ     s:44355
        35 053511   053601 710000 35                 TRA     s:44345
        35 053512   040000 106540                    CMPC    fill='040'O
        35 053513   000004 400010                    ADSC9   4,,PR0                   cn=2,n=*X0
        35 053514   000045 000006 34                 ADSC9   RSW_NO+37                cn=0,n=6
        35 053515   053555 602000 35                 TNC     s:44343+99
        35 053516   053601 600000 35                 TZE     s:44345
        35 053517   040000 106540                    CMPC    fill='040'O
        35 053520   000004 400010                    ADSC9   4,,PR0                   cn=2,n=*X0
        35 053521   000202 000007 34                 ADSC9   RSW_NO+130               cn=0,n=7
        35 053522   053536 602000 35                 TNC     s:44343+84
        35 053523   053601 600000 35                 TZE     s:44345
        35 053524   040000 106540                    CMPC    fill='040'O
        35 053525   000004 400010                    ADSC9   4,,PR0                   cn=2,n=*X0
        35 053526   000204 000007 34                 ADSC9   RSW_NO+132               cn=0,n=7
        35 053527   053602 602000 35                 TNC     s:44355
        35 053530   053601 600000 35                 TZE     s:44345
        35 053531   040000 106540                    CMPC    fill='040'O
        35 053532   000004 400010                    ADSC9   4,,PR0                   cn=2,n=*X0
PL6.E3A0      #001=Z8EM$SEMANTICS_DATA_DIV File=Z8EM.:Z8A6TSI                    SAT 08/09/97 12:08 Page:1392
        35 053533   000041 000007 34                 ADSC9   RSW_NO+33                cn=0,n=7
        35 053534   053602 601000 35                 TNZ     s:44355
        35 053535   053601 710000 35                 TRA     s:44345
        35 053536   040000 106540                    CMPC    fill='040'O
        35 053537   000004 400010                    ADSC9   4,,PR0                   cn=2,n=*X0
        35 053540   000043 000010 34                 ADSC9   RSW_NO+35                cn=0,n=8
        35 053541   053550 602000 35                 TNC     s:44343+94
        35 053542   053601 600000 35                 TZE     s:44345
        35 053543   040000 106540                    CMPC    fill='040'O
        35 053544   000004 400010                    ADSC9   4,,PR0                   cn=2,n=*X0
        35 053545   000033 000004 34                 ADSC9   RSW_NO+27                cn=0,n=4
        35 053546   053602 601000 35                 TNZ     s:44355
        35 053547   053601 710000 35                 TRA     s:44345
        35 053550   040000 106540                    CMPC    fill='040'O
        35 053551   000004 400010                    ADSC9   4,,PR0                   cn=2,n=*X0
        35 053552   000031 000006 34                 ADSC9   RSW_NO+25                cn=0,n=6
        35 053553   053602 601000 35                 TNZ     s:44355
        35 053554   053601 710000 35                 TRA     s:44345
        35 053555   040000 106540                    CMPC    fill='040'O
        35 053556   000004 400010                    ADSC9   4,,PR0                   cn=2,n=*X0
        35 053557   000206 000010 34                 ADSC9   RSW_NO+134               cn=0,n=8
        35 053560   053574 602000 35                 TNC     s:44343+114
        35 053561   053601 600000 35                 TZE     s:44345
        35 053562   040000 106540                    CMPC    fill='040'O
        35 053563   000004 400010                    ADSC9   4,,PR0                   cn=2,n=*X0
        35 053564   000210 000010 34                 ADSC9   RSW_NO+136               cn=0,n=8
        35 053565   053602 602000 35                 TNC     s:44355
        35 053566   053601 600000 35                 TZE     s:44345
        35 053567   040000 106540                    CMPC    fill='040'O
        35 053570   000004 400010                    ADSC9   4,,PR0                   cn=2,n=*X0
        35 053571   000047 000010 34                 ADSC9   RSW_NO+39                cn=0,n=8
        35 053572   053602 601000 35                 TNZ     s:44355
        35 053573   053601 710000 35                 TRA     s:44345
        35 053574   040000 106540                    CMPC    fill='040'O
        35 053575   000004 400010                    ADSC9   4,,PR0                   cn=2,n=*X0
        35 053576   000045 000005 34                 ADSC9   RSW_NO+37                cn=0,n=5
        35 053577   053602 601000 35                 TNZ     s:44355
PL6.E3A0      #001=Z8EM$SEMANTICS_DATA_DIV File=Z8EM.:Z8A6TSI                    SAT 08/09/97 12:08 Page:1393
        35 053600   053601 710000 35                 TRA     s:44345

     7896    44344
     7897    44345    3            SELECT ('DPS88', 'DPS-88', 'DPS847', 'DPS8-47', 'DPS-8-47',

  44345 35 053601   056641 710000 35                 TRA     s:45674

     7898    44346    3                    'DPS849', 'DPS8-49', 'DPS-8-49', 'GCOS', 'LEVEL-6',
     7899    44347    3                    'LEVEL-61', 'LEVEL-62', 'LEVEL-64', 'LEVEL-66-ASCII',
     7900    44348    3                    'LEVEL-68', 'DPS90', 'DPS-90', 'DPS8', 'DPS-8',
     7901    44349    3                    'DPS8000', 'DPS-8000', 'DPS9000', 'DPS-9000');
     7902    44350
     7903    44351                    /*  OK */
     7904    44352
     7905    44353    3            SELECT (ELSE);

     7906    44354
     7907    44355    3              IF NOT O1COM.LX_STK.B.ERROR (O1COM.LX_TOP) AND

  44355 35 053602   014017 236006 xsym               LDQ     O1COM+6159,QL
        35 053603   400000 316007                    CANQ    -131072,DL
        35 053604   056641 601000 35                 TNZ     s:45674
        35 053605   000151 236000 xsym               LDQ     O1COM+105
        35 053606   000003 736000                    QLS     3
        35 053607   013772 235006 xsym               LDA     O1COM+6138,QL
        35 053610   000470 115007                    CMPA    312,DL
        35 053611   056641 601000 35                 TNZ     s:45674

     7908    44356    3                O1COM.LX_STK.SYMBOL (O1COM.LX_TOP - 3) = %RSV_WRD_OBJECT_COMPUTER THEN
     7909    44357    3                CALL Z8AE$ERROR (%E$COMPUTER_NOT_KNOWN,

  44357 35 053612   000151 236000 xsym               LDQ     O1COM+105
        35 053613   000025 736000                    QLS     21
        35 053614   000662 036000 36                 ADLQ    434
        35 053615   001014 756000 0                  STQ     PROC$+4
        35 053616   000151 236000 xsym               LDQ     O1COM+105
        35 053617   000025 736000                    QLS     21
PL6.E3A0      #001=Z8EM$SEMANTICS_DATA_DIV File=Z8EM.:Z8A6TSI                    SAT 08/09/97 12:08 Page:1394
        35 053620   000663 036000 36                 ADLQ    435
        35 053621   001106 235000 36                 LDA     582
        35 053622   001012 757000 0                  STAQ    PROC$+2
        35 053623   001012 630400 0                  EPPR0   PROC$+2
        35 053624   000000 631400 36                 EPPR1   0
        35 053625   000000 701000 xent               TSX1    Z8AE$ERROR
        35 053626   000000 011000                    NOP     0

     7910    44358    3                                 O1COM.LX_STK.LINE (O1COM.LX_TOP),
     7911    44359    3                                 O1COM.LX_STK.COLUMN (O1COM.LX_TOP));
     7912    44360
     7913    44361    3          END;

  44361 35 053627   056641 710000 35                 TRA     s:45674

     7914    44362
     7915    44363
     7916    44364    2      CASE (%ACT_WRAP_UP_SPECIAL_NAMES);

     7917    44365    2            CALL WRAP_UP_SPECIAL_NAMES;

  44365 35 053630   033336 701000 35                 TSX1    WRAP_UP_SPECIAL_NAMES
        35 053631   000000 011000                    NOP     0
        35 053632   056641 710000 35                 TRA     s:45674

     7918    44366
     7919    44367    2      CASE (%ACT_CLASS_NAME);

     7920    44368    2            CALL CLASS_NAME (ADDR(O1COM.LX_STK(O1COM.LX_TOP - 2)),

  44368 35 053633   000151 236000 xsym               LDQ     O1COM+105
        35 053634   000025 736000                    QLS     21
        35 053635   000236 036000 36                 ADLQ    158
        35 053636   001243 756000 0                  STQ     PROC$+155
        35 053637   000151 236000 xsym               LDQ     O1COM+105
        35 053640   000025 736000                    QLS     21
        35 053641   000631 036000 36                 ADLQ    409
PL6.E3A0      #001=Z8EM$SEMANTICS_DATA_DIV File=Z8EM.:Z8A6TSI                    SAT 08/09/97 12:08 Page:1395
        35 053642   001244 756000 0                  STQ     PROC$+156
        35 053643   001244 630400 0                  EPPR0   PROC$+156
        35 053644   000174 450400 0                  STP0    @NAME$+1
        35 053645   001243 631400 0                  EPPR1   PROC$+155
        35 053646   000173 451400 0                  STP1    @TERMINAL$+2
        35 053647   004167 701000 35                 TSX1    CLASS_NAME
        35 053650   000000 011000                    NOP     0
        35 053651   056641 710000 35                 TRA     s:45674

     7921    44369    2                             ADDR(O1COM.LX_STK(O1COM.LX_TOP)));
     7922    44370
     7923    44371    2      CASE (%ACT_SYMBOLIC_CHARACTER_LIST);

     7924    44372
     7925    44373                 %INIT_LX_LIST (@POINTER = "ADDR(TEMP_LX_NODE)");

  44375 35 053652   000002 220003                    LDX0    2,DU
        35 053653   000000 740000 30                 STX0    TEMP_LX_NODE

  44376 35 053654   000000 221003                    LDX1    0,DU
        35 053655   000000 441000 30                 SXL1    TEMP_LX_NODE

  44377 35 053656   000024 236000 36                 LDQ     20
        35 053657   000001 756000 30                 STQ     TEMP_LX_NODE+1

  44378 35 053660   000004 756000 30                 STQ     TEMP_LX_NODE+4

  44379 35 053661   000007 756000 30                 STQ     TEMP_LX_NODE+7

  44380 35 053662   000002 450000 30                 STZ     TEMP_LX_NODE+2

     7926    44383
     7927    44384                 %ADD_LX_STK_TO_LIST_HEAD (@LIST$ = "ADDR(TEMP_LX_NODE)",
     7928    44385                                           @FROM  = O1COM.LX_TOP - 2);

  44392 35 053663   000670 630400 36                 EPPR0   440
        35 053664   000025 631400 36                 EPPR1   21
PL6.E3A0      #001=Z8EM$SEMANTICS_DATA_DIV File=Z8EM.:Z8A6TSI                    SAT 08/09/97 12:08 Page:1396
        35 053665   000000 701000 xent               TSX1    Z8ED$NEW_HEAP
        35 053666   000000 011000                    NOP     0

  44395 35 053667   000151 235000 xsym               LDA     O1COM+105
        35 053670   000005 735000                    ALS     5
        35 053671   000000 470400 29                 LDP0    HEAP$
        35 053672   000100 100405                    MLR     fill='000'O
        35 053673   013777 000040 xsym               ADSC9   O1COM+6143,A             cn=0,n=32
        35 053674   000000 000040                    ADSC9   0,,PR0                   cn=0,n=32

  44401 35 053675   000004 236000 30                 LDQ     TEMP_LX_NODE+4
        35 053676   000000 470400 29                 LDP0    HEAP$
        35 053677   000007 756100                    STQ     7,,PR0

  44402 35 053700   000000 236000 29                 LDQ     HEAP$
        35 053701   000004 756000 30                 STQ     TEMP_LX_NODE+4

  44403 35 053702   000002 235000 30                 LDA     TEMP_LX_NODE+2
        35 053703   053705 601000 35                 TNZ     s:44405

  44404 35 053704   000001 756000 30                 STQ     TEMP_LX_NODE+1

  44405 35 053705   000002 054000 30                 AOS     TEMP_LX_NODE+2

     7929    44410
     7930    44411                 %PROPAGATE_TEMP_LX_NODE;

  44413 35 053706   000134 235000 xsym               LDA     O1COM+92
        35 053707   000001 735000                    ALS     1
        35 053710   000000 236005 xsym               LDQ     DD_PRODR,AL
        35 053711   777777 376007                    ANQ     -1,DL
        35 053712   001012 756000 0                  STQ     PROC$+2
        35 053713   000151 236000 xsym               LDQ     O1COM+105
        35 053714   001012 136000 0                  SBLQ    PROC$+2
        35 053715   000005 736000                    QLS     5
        35 053716   000006 100400                    MLR     fill='000'O
        35 053717   000000 000040 30                 ADSC9   TEMP_LX_NODE             cn=0,n=32
PL6.E3A0      #001=Z8EM$SEMANTICS_DATA_DIV File=Z8EM.:Z8A6TSI                    SAT 08/09/97 12:08 Page:1397
        35 053720   014027 000040 xsym               ADSC9   O1COM+6167,Q             cn=0,n=32

     7931    44416
     7932    44417                 %INIT_LX_LIST (@POINTER = "ADDR(TEMP_LX_NODE)");

  44419 35 053721   000002 220003                    LDX0    2,DU
        35 053722   000000 740000 30                 STX0    TEMP_LX_NODE

  44420 35 053723   000000 221003                    LDX1    0,DU
        35 053724   000000 441000 30                 SXL1    TEMP_LX_NODE

  44421 35 053725   000024 236000 36                 LDQ     20
        35 053726   000001 756000 30                 STQ     TEMP_LX_NODE+1

  44422 35 053727   000004 756000 30                 STQ     TEMP_LX_NODE+4

  44423 35 053730   000007 756000 30                 STQ     TEMP_LX_NODE+7

  44424 35 053731   000002 450000 30                 STZ     TEMP_LX_NODE+2

     7933    44427
     7934    44428                 %ADD_LX_STK_TO_LIST_HEAD (@LIST$ = "ADDR(TEMP_LX_NODE)",
     7935    44429                                           @FROM  = O1COM.LX_TOP);

  44436 35 053732   000670 630400 36                 EPPR0   440
        35 053733   000025 631400 36                 EPPR1   21
        35 053734   000000 701000 xent               TSX1    Z8ED$NEW_HEAP
        35 053735   000000 011000                    NOP     0

  44439 35 053736   000151 235000 xsym               LDA     O1COM+105
        35 053737   000005 735000                    ALS     5
        35 053740   000000 470400 29                 LDP0    HEAP$
        35 053741   000100 100405                    MLR     fill='000'O
        35 053742   014017 000040 xsym               ADSC9   O1COM+6159,A             cn=0,n=32
        35 053743   000000 000040                    ADSC9   0,,PR0                   cn=0,n=32

  44445 35 053744   000004 236000 30                 LDQ     TEMP_LX_NODE+4
PL6.E3A0      #001=Z8EM$SEMANTICS_DATA_DIV File=Z8EM.:Z8A6TSI                    SAT 08/09/97 12:08 Page:1398
        35 053745   000000 470400 29                 LDP0    HEAP$
        35 053746   000007 756100                    STQ     7,,PR0

  44446 35 053747   000000 236000 29                 LDQ     HEAP$
        35 053750   000004 756000 30                 STQ     TEMP_LX_NODE+4

  44447 35 053751   000002 235000 30                 LDA     TEMP_LX_NODE+2
        35 053752   053754 601000 35                 TNZ     s:44449

  44448 35 053753   000001 756000 30                 STQ     TEMP_LX_NODE+1

  44449 35 053754   000002 054000 30                 AOS     TEMP_LX_NODE+2

     7936    44454
     7937    44455                 %ADD_LX_STK_TO_LIST_HEAD (@LIST$ = "ADDR(TEMP_LX_NODE)",
     7938    44456                                           @FROM  = O1COM.LX_TOP - 2);

  44463 35 053755   000670 630400 36                 EPPR0   440
        35 053756   000025 631400 36                 EPPR1   21
        35 053757   000000 701000 xent               TSX1    Z8ED$NEW_HEAP
        35 053760   000000 011000                    NOP     0

  44466 35 053761   000151 235000 xsym               LDA     O1COM+105
        35 053762   000005 735000                    ALS     5
        35 053763   000000 470400 29                 LDP0    HEAP$
        35 053764   000100 100405                    MLR     fill='000'O
        35 053765   013777 000040 xsym               ADSC9   O1COM+6143,A             cn=0,n=32
        35 053766   000000 000040                    ADSC9   0,,PR0                   cn=0,n=32

  44472 35 053767   000004 236000 30                 LDQ     TEMP_LX_NODE+4
        35 053770   000000 470400 29                 LDP0    HEAP$
        35 053771   000007 756100                    STQ     7,,PR0

  44473 35 053772   000000 236000 29                 LDQ     HEAP$
        35 053773   000004 756000 30                 STQ     TEMP_LX_NODE+4

  44474 35 053774   000002 235000 30                 LDA     TEMP_LX_NODE+2
PL6.E3A0      #001=Z8EM$SEMANTICS_DATA_DIV File=Z8EM.:Z8A6TSI                    SAT 08/09/97 12:08 Page:1399
        35 053775   053777 601000 35                 TNZ     s:44476

  44475 35 053776   000001 756000 30                 STQ     TEMP_LX_NODE+1

  44476 35 053777   000002 054000 30                 AOS     TEMP_LX_NODE+2

     7939    44481
     7940    44482                 %PROPAGATE_TEMP_LX_NODE;

  44484 35 054000   000134 235000 xsym               LDA     O1COM+92
        35 054001   000001 735000                    ALS     1
        35 054002   000000 236005 xsym               LDQ     DD_PRODR,AL
        35 054003   777777 376007                    ANQ     -1,DL
        35 054004   001012 756000 0                  STQ     PROC$+2
        35 054005   000151 236000 xsym               LDQ     O1COM+105
        35 054006   001012 136000 0                  SBLQ    PROC$+2
        35 054007   000005 736000                    QLS     5
        35 054010   000006 100400                    MLR     fill='000'O
        35 054011   000000 000040 30                 ADSC9   TEMP_LX_NODE             cn=0,n=32
        35 054012   014027 000040 xsym               ADSC9   O1COM+6167,Q             cn=0,n=32

  44485 35 054013   056641 710000 35                 TRA     s:45674

     7941    44487
     7942    44488    2      CASE (%ACT_SYMBOLIC_CHAR_LIST);

     7943    44489
     7944    44490                 %INIT_LX_LIST (@POINTER = "ADDR(TEMP_LX_NODE)");

  44492 35 054014   000002 220003                    LDX0    2,DU
        35 054015   000000 740000 30                 STX0    TEMP_LX_NODE

  44493 35 054016   000000 221003                    LDX1    0,DU
        35 054017   000000 441000 30                 SXL1    TEMP_LX_NODE

  44494 35 054020   000024 236000 36                 LDQ     20
        35 054021   000001 756000 30                 STQ     TEMP_LX_NODE+1
PL6.E3A0      #001=Z8EM$SEMANTICS_DATA_DIV File=Z8EM.:Z8A6TSI                    SAT 08/09/97 12:08 Page:1400

  44495 35 054022   000004 756000 30                 STQ     TEMP_LX_NODE+4

  44496 35 054023   000007 756000 30                 STQ     TEMP_LX_NODE+7

  44497 35 054024   000002 450000 30                 STZ     TEMP_LX_NODE+2

     7945    44500
     7946    44501                 %ADD_LX_STK_TO_LIST_HEAD (@LIST$ = "ADDR(TEMP_LX_NODE)",
     7947    44502                                           @FROM  = O1COM.LX_TOP);

  44509 35 054025   000670 630400 36                 EPPR0   440
        35 054026   000025 631400 36                 EPPR1   21
        35 054027   000000 701000 xent               TSX1    Z8ED$NEW_HEAP
        35 054030   000000 011000                    NOP     0

  44512 35 054031   000151 235000 xsym               LDA     O1COM+105
        35 054032   000005 735000                    ALS     5
        35 054033   000000 470400 29                 LDP0    HEAP$
        35 054034   000100 100405                    MLR     fill='000'O
        35 054035   014017 000040 xsym               ADSC9   O1COM+6159,A             cn=0,n=32
        35 054036   000000 000040                    ADSC9   0,,PR0                   cn=0,n=32

  44518 35 054037   000004 236000 30                 LDQ     TEMP_LX_NODE+4
        35 054040   000000 470400 29                 LDP0    HEAP$
        35 054041   000007 756100                    STQ     7,,PR0

  44519 35 054042   000000 236000 29                 LDQ     HEAP$
        35 054043   000004 756000 30                 STQ     TEMP_LX_NODE+4

  44520 35 054044   000002 235000 30                 LDA     TEMP_LX_NODE+2
        35 054045   054047 601000 35                 TNZ     s:44522

  44521 35 054046   000001 756000 30                 STQ     TEMP_LX_NODE+1

  44522 35 054047   000002 054000 30                 AOS     TEMP_LX_NODE+2

PL6.E3A0      #001=Z8EM$SEMANTICS_DATA_DIV File=Z8EM.:Z8A6TSI                    SAT 08/09/97 12:08 Page:1401
     7948    44527
     7949    44528                %ADD_LX_STK_TO_LIST_HEAD (@LIST$ = "ADDR(O1COM.LX_STK (O1COM.LX_TOP - 2))",
     7950    44529                                           @FROM  = O1COM.LX_TOP - 3);

  44536 35 054050   000670 630400 36                 EPPR0   440
        35 054051   000025 631400 36                 EPPR1   21
        35 054052   000000 701000 xent               TSX1    Z8ED$NEW_HEAP
        35 054053   000000 011000                    NOP     0

  44539 35 054054   000151 235000 xsym               LDA     O1COM+105
        35 054055   000005 735000                    ALS     5
        35 054056   000000 470400 29                 LDP0    HEAP$
        35 054057   000100 100405                    MLR     fill='000'O
        35 054060   013767 000040 xsym               ADSC9   O1COM+6135,A             cn=0,n=32
        35 054061   000000 000040                    ADSC9   0,,PR0                   cn=0,n=32

  44545 35 054062   000151 235000 xsym               LDA     O1COM+105
        35 054063   000003 735000                    ALS     3
        35 054064   014003 236005 xsym               LDQ     O1COM+6147,AL
        35 054065   000000 470400 29                 LDP0    HEAP$
        35 054066   000007 756100                    STQ     7,,PR0

  44546 35 054067   000151 235000 xsym               LDA     O1COM+105
        35 054070   000003 735000                    ALS     3
        35 054071   000000 236000 29                 LDQ     HEAP$
        35 054072   014003 756005 xsym               STQ     O1COM+6147,AL

  44547 35 054073   000151 235000 xsym               LDA     O1COM+105
        35 054074   000003 735000                    ALS     3
        35 054075   014001 235005 xsym               LDA     O1COM+6145,AL
        35 054076   054102 601000 35                 TNZ     s:44549

  44548 35 054077   000151 235000 xsym               LDA     O1COM+105
        35 054100   000003 735000                    ALS     3
        35 054101   014000 756005 xsym               STQ     O1COM+6144,AL

  44549 35 054102   000151 235000 xsym               LDA     O1COM+105
PL6.E3A0      #001=Z8EM$SEMANTICS_DATA_DIV File=Z8EM.:Z8A6TSI                    SAT 08/09/97 12:08 Page:1402
        35 054103   000003 735000                    ALS     3
        35 054104   014001 054005 xsym               AOS     O1COM+6145,AL

     7951    44554
     7952    44555                 %ADD_LX_STK_TO_LIST_HEAD (@LIST$ = "ADDR(TEMP_LX_NODE)",
     7953    44556                                           @FROM  = O1COM.LX_TOP - 2);

  44563 35 054105   000670 630400 36                 EPPR0   440
        35 054106   000025 631400 36                 EPPR1   21
        35 054107   000000 701000 xent               TSX1    Z8ED$NEW_HEAP
        35 054110   000000 011000                    NOP     0

  44566 35 054111   000151 235000 xsym               LDA     O1COM+105
        35 054112   000005 735000                    ALS     5
        35 054113   000000 470400 29                 LDP0    HEAP$
        35 054114   000100 100405                    MLR     fill='000'O
        35 054115   013777 000040 xsym               ADSC9   O1COM+6143,A             cn=0,n=32
        35 054116   000000 000040                    ADSC9   0,,PR0                   cn=0,n=32

  44572 35 054117   000004 236000 30                 LDQ     TEMP_LX_NODE+4
        35 054120   000000 470400 29                 LDP0    HEAP$
        35 054121   000007 756100                    STQ     7,,PR0

  44573 35 054122   000000 236000 29                 LDQ     HEAP$
        35 054123   000004 756000 30                 STQ     TEMP_LX_NODE+4

  44574 35 054124   000002 235000 30                 LDA     TEMP_LX_NODE+2
        35 054125   054127 601000 35                 TNZ     s:44576

  44575 35 054126   000001 756000 30                 STQ     TEMP_LX_NODE+1

  44576 35 054127   000002 054000 30                 AOS     TEMP_LX_NODE+2

     7954    44581
     7955    44582                 %PROPAGATE_TEMP_LX_NODE;

  44584 35 054130   000134 235000 xsym               LDA     O1COM+92
PL6.E3A0      #001=Z8EM$SEMANTICS_DATA_DIV File=Z8EM.:Z8A6TSI                    SAT 08/09/97 12:08 Page:1403
        35 054131   000001 735000                    ALS     1
        35 054132   000000 236005 xsym               LDQ     DD_PRODR,AL
        35 054133   777777 376007                    ANQ     -1,DL
        35 054134   001012 756000 0                  STQ     PROC$+2
        35 054135   000151 236000 xsym               LDQ     O1COM+105
        35 054136   001012 136000 0                  SBLQ    PROC$+2
        35 054137   000005 736000                    QLS     5
        35 054140   000006 100400                    MLR     fill='000'O
        35 054141   000000 000040 30                 ADSC9   TEMP_LX_NODE             cn=0,n=32
        35 054142   014027 000040 xsym               ADSC9   O1COM+6167,Q             cn=0,n=32

  44585 35 054143   056641 710000 35                 TRA     s:45674

     7956    44587
     7957    44588    2      CASE (%ACT_SYMBOLIC_CHAR_NO_ALPHA);

     7958    44589    2            CALL SYMBOLIC_CHARACTERS (ADDR( O1COM.LX_STK (O1COM.LX_TOP - 2) ),

  44589 35 054144   000151 236000 xsym               LDQ     O1COM+105
        35 054145   000025 736000                    QLS     21
        35 054146   000236 036000 36                 ADLQ    158
        35 054147   001245 756000 0                  STQ     PROC$+157
        35 054150   000151 236000 xsym               LDQ     O1COM+105
        35 054151   000025 736000                    QLS     21
        35 054152   000631 036000 36                 ADLQ    409
        35 054153   001246 756000 0                  STQ     PROC$+158
        35 054154   000024 236000 36                 LDQ     20
        35 054155   001247 756000 0                  STQ     PROC$+159
        35 054156   001247 630400 0                  EPPR0   PROC$+159
        35 054157   000747 450400 0                  STP0    @PHRASE$+1
        35 054160   001246 631400 0                  EPPR1   PROC$+158
        35 054161   000746 451400 0                  STP1    @KEY_WORD$+1
        35 054162   001245 633400 0                  EPPR3   PROC$+157
        35 054163   000745 453400 0                  STP3    ELEMENT_QLT$+2
        35 054164   032100 701000 35                 TSX1    SYMBOLIC_CHARACTERS
        35 054165   000000 011000                    NOP     0
        35 054166   056641 710000 35                 TRA     s:45674
PL6.E3A0      #001=Z8EM$SEMANTICS_DATA_DIV File=Z8EM.:Z8A6TSI                    SAT 08/09/97 12:08 Page:1404

     7959    44590    2                                      ADDR( O1COM.LX_STK (O1COM.LX_TOP) ),
     7960    44591    2                                      ADDR( NIL ));
     7961    44592
     7962    44593    2      CASE (%ACT_SYMBOLIC_CHAR);

     7963    44594    2            CALL SYMBOLIC_CHARACTERS (ADDR( O1COM.LX_STK (O1COM.LX_TOP - 3) ),

  44594 35 054167   000151 236000 xsym               LDQ     O1COM+105
        35 054170   000025 736000                    QLS     21
        35 054171   000241 036000 36                 ADLQ    161
        35 054172   001250 756000 0                  STQ     PROC$+160
        35 054173   000151 236000 xsym               LDQ     O1COM+105
        35 054174   000025 736000                    QLS     21
        35 054175   000640 036000 36                 ADLQ    416
        35 054176   001251 756000 0                  STQ     PROC$+161
        35 054177   000151 236000 xsym               LDQ     O1COM+105
        35 054200   000025 736000                    QLS     21
        35 054201   000631 036000 36                 ADLQ    409
        35 054202   001252 756000 0                  STQ     PROC$+162
        35 054203   001252 630400 0                  EPPR0   PROC$+162
        35 054204   000747 450400 0                  STP0    @PHRASE$+1
        35 054205   001251 631400 0                  EPPR1   PROC$+161
        35 054206   000746 451400 0                  STP1    @KEY_WORD$+1
        35 054207   001250 633400 0                  EPPR3   PROC$+160
        35 054210   000745 453400 0                  STP3    ELEMENT_QLT$+2
        35 054211   032100 701000 35                 TSX1    SYMBOLIC_CHARACTERS
        35 054212   000000 011000                    NOP     0
        35 054213   056641 710000 35                 TRA     s:45674

     7964    44595    2                                      ADDR( O1COM.LX_STK (O1COM.LX_TOP - 1) ),
     7965    44596    2                                      ADDR( O1COM.LX_STK (O1COM.LX_TOP)));
     7966    44597
     7967    44598    2      CASE (%ACT_SYMBOLIC_CHAR_IN_ALPHA);

     7968    44599    2            CALL SYMBOLIC_CHARACTERS (ADDR( O1COM.LX_STK (O1COM.LX_TOP - 4) ),

PL6.E3A0      #001=Z8EM$SEMANTICS_DATA_DIV File=Z8EM.:Z8A6TSI                    SAT 08/09/97 12:08 Page:1405
  44599 35 054214   000151 236000 xsym               LDQ     O1COM+105
        35 054215   000025 736000                    QLS     21
        35 054216   000242 036000 36                 ADLQ    162
        35 054217   001253 756000 0                  STQ     PROC$+163
        35 054220   000151 236000 xsym               LDQ     O1COM+105
        35 054221   000025 736000                    QLS     21
        35 054222   000236 036000 36                 ADLQ    158
        35 054223   001254 756000 0                  STQ     PROC$+164
        35 054224   000151 236000 xsym               LDQ     O1COM+105
        35 054225   000025 736000                    QLS     21
        35 054226   000631 036000 36                 ADLQ    409
        35 054227   001255 756000 0                  STQ     PROC$+165
        35 054230   001255 630400 0                  EPPR0   PROC$+165
        35 054231   000747 450400 0                  STP0    @PHRASE$+1
        35 054232   001254 631400 0                  EPPR1   PROC$+164
        35 054233   000746 451400 0                  STP1    @KEY_WORD$+1
        35 054234   001253 633400 0                  EPPR3   PROC$+163
        35 054235   000745 453400 0                  STP3    ELEMENT_QLT$+2
        35 054236   032100 701000 35                 TSX1    SYMBOLIC_CHARACTERS
        35 054237   000000 011000                    NOP     0
        35 054240   056641 710000 35                 TRA     s:45674

     7969    44600    2                                      ADDR( O1COM.LX_STK (O1COM.LX_TOP - 2) ),
     7970    44601    2                                      ADDR( O1COM.LX_STK (O1COM.LX_TOP)));
     7971    44602
     7972    44603    2      CASE (%ACT_ADD_ALSO_LITERAL_TO_TAIL);

     7973    44604
     7974    44605                %ADD_LX_STK_TO_LIST_TAIL (@LIST$ = "ADDR(O1COM.LX_STK (O1COM.LX_TOP - 2))",
     7975    44606                                           @FROM  = O1COM.LX_TOP);

  44613 35 054241   000670 630400 36                 EPPR0   440
        35 054242   000025 631400 36                 EPPR1   21
        35 054243   000000 701000 xent               TSX1    Z8ED$NEW_HEAP
        35 054244   000000 011000                    NOP     0

  44616 35 054245   000151 235000 xsym               LDA     O1COM+105
PL6.E3A0      #001=Z8EM$SEMANTICS_DATA_DIV File=Z8EM.:Z8A6TSI                    SAT 08/09/97 12:08 Page:1406
        35 054246   000005 735000                    ALS     5
        35 054247   000000 470400 29                 LDP0    HEAP$
        35 054250   000100 100405                    MLR     fill='000'O
        35 054251   014017 000040 xsym               ADSC9   O1COM+6159,A             cn=0,n=32
        35 054252   000000 000040                    ADSC9   0,,PR0                   cn=0,n=32

  44622 35 054253   000024 236000 36                 LDQ     20
        35 054254   000000 470400 29                 LDP0    HEAP$
        35 054255   000007 756100                    STQ     7,,PR0

  44623 35 054256   000151 235000 xsym               LDA     O1COM+105
        35 054257   000003 735000                    ALS     3
        35 054260   014001 235005 xsym               LDA     O1COM+6145,AL
        35 054261   054272 601000 35                 TNZ     s:44630

  44625 35 054262   000151 235000 xsym               LDA     O1COM+105
        35 054263   000003 735000                    ALS     3
        35 054264   000000 236000 29                 LDQ     HEAP$
        35 054265   014003 756005 xsym               STQ     O1COM+6147,AL

  44626 35 054266   000151 235000 xsym               LDA     O1COM+105
        35 054267   000003 735000                    ALS     3
        35 054270   014000 756005 xsym               STQ     O1COM+6144,AL

  44627 35 054271   054302 710000 35                 TRA     s:44633

  44630 35 054272   000151 235000 xsym               LDA     O1COM+105
        35 054273   000003 735000                    ALS     3
        35 054274   014000 471405 xsym               LDP1    O1COM+6144,AL
        35 054275   000000 236000 29                 LDQ     HEAP$
        35 054276   100007 756100                    STQ     7,,PR1

  44631 35 054277   000151 235000 xsym               LDA     O1COM+105
        35 054300   000003 735000                    ALS     3
        35 054301   014000 756005 xsym               STQ     O1COM+6144,AL

  44633 35 054302   000151 235000 xsym               LDA     O1COM+105
PL6.E3A0      #001=Z8EM$SEMANTICS_DATA_DIV File=Z8EM.:Z8A6TSI                    SAT 08/09/97 12:08 Page:1407
        35 054303   000003 735000                    ALS     3
        35 054304   014001 054005 xsym               AOS     O1COM+6145,AL

     7976    44638
     7977    44639    2            IF O1COM.LX_STK.B.ERROR (O1COM.LX_TOP) THEN

  44639 35 054305   000151 235000 xsym               LDA     O1COM+105
        35 054306   000003 735000                    ALS     3
        35 054307   014017 236005 xsym               LDQ     O1COM+6159,AL
        35 054310   400000 316007                    CANQ    -131072,DL
        35 054311   056641 600000 35                 TZE     s:45674

     7978    44640    2              O1COM.LX_STK.B.ERROR (O1COM.LX_TOP - 2) = TRUE;

  44640 35 054312   400000 236007                    LDQ     -131072,DL
        35 054313   013777 256005 xsym               ORSQ    O1COM+6143,AL
        35 054314   056641 710000 35                 TRA     s:45674

     7979    44641
     7980    44642    2      CASE (%ACT_SEGMENT_LIMIT);

     7981    44643
     7982    44644    2          IF O1COM.CURRENT_SEG_LIMIT$ = O1COM.CURRENT_PROC$ THEN

  44644 35 054315   000115 236000 xsym               LDQ     O1COM+77
        35 054316   000057 116000 xsym               CMPQ    O1COM+47
        35 054317   054342 601000 35                 TNZ     s:44653

     7983    44645    3            DO;

     7984    44646    3              CALL Z8AE$ERROR (%E$DUP_DD_CLAUSE,

  44646 35 054320   000151 236000 xsym               LDQ     O1COM+105
        35 054321   000025 736000                    QLS     21
        35 054322   000763 036000 36                 ADLQ    499
        35 054323   001015 756000 0                  STQ     PROC$+5
        35 054324   000151 236000 xsym               LDQ     O1COM+105
PL6.E3A0      #001=Z8EM$SEMANTICS_DATA_DIV File=Z8EM.:Z8A6TSI                    SAT 08/09/97 12:08 Page:1408
        35 054325   000025 736000                    QLS     21
        35 054326   000544 036000 36                 ADLQ    356
        35 054327   001014 756000 0                  STQ     PROC$+4
        35 054330   000151 236000 xsym               LDQ     O1COM+105
        35 054331   000025 736000                    QLS     21
        35 054332   000545 036000 36                 ADLQ    357
        35 054333   000010 235000 36                 LDA     8
        35 054334   001012 757000 0                  STAQ    PROC$+2
        35 054335   001012 630400 0                  EPPR0   PROC$+2
        35 054336   000005 631400 36                 EPPR1   5
        35 054337   000000 701000 xent               TSX1    Z8AE$ERROR
        35 054340   000000 011000                    NOP     0

     7985    44647    3                               O1COM.LX_STK.LINE (O1COM.LX_TOP - 2),
     7986    44648    3                               O1COM.LX_STK.COLUMN (O1COM.LX_TOP - 2),
     7987    44649    3                               O1COM.LX_STK.DNT$ (O1COM.LX_TOP - 2));
     7988    44650    3            END;

  44650 35 054341   056641 710000 35                 TRA     s:45674

     7989    44651    2          ELSE
     7990    44652    3            DO;

     7991    44653    3              IF COMCOM.OB.FIPS.SEG2 THEN

  44653 35 054342   000036 236000 xsym               LDQ     COMCOM+30
        35 054343   100000 316003                    CANQ    32768,DU
        35 054344   054362 600000 35                 TZE     s:44657

     7992    44654    3                CALL Z8AE$ERROR (%E$LEVEL_CHECK,

  44654 35 054345   000151 236000 xsym               LDQ     O1COM+105
        35 054346   000025 736000                    QLS     21
        35 054347   000544 036000 36                 ADLQ    356
        35 054350   001014 756000 0                  STQ     PROC$+4
        35 054351   000151 236000 xsym               LDQ     O1COM+105
        35 054352   000025 736000                    QLS     21
PL6.E3A0      #001=Z8EM$SEMANTICS_DATA_DIV File=Z8EM.:Z8A6TSI                    SAT 08/09/97 12:08 Page:1409
        35 054353   000545 036000 36                 ADLQ    357
        35 054354   000004 235000 36                 LDA     4
        35 054355   001012 757000 0                  STAQ    PROC$+2
        35 054356   001012 630400 0                  EPPR0   PROC$+2
        35 054357   000000 631400 36                 EPPR1   0
        35 054360   000000 701000 xent               TSX1    Z8AE$ERROR
        35 054361   000000 011000                    NOP     0

     7993    44655    3                                 O1COM.LX_STK.LINE(O1COM.LX_TOP - 2),
     7994    44656    3                                 O1COM.LX_STK.COLUMN(O1COM.LX_TOP - 2));
     7995    44657    3              IF COMCOM.OB.FIPS.OBS THEN

  44657 35 054362   000036 234000 xsym               SZN     COMCOM+30
        35 054363   054401 605000 35                 TPL     s:44661

     7996    44658    3                CALL Z8AE$ERROR (%E$OBSOLETE,

  44658 35 054364   000151 236000 xsym               LDQ     O1COM+105
        35 054365   000025 736000                    QLS     21
        35 054366   000544 036000 36                 ADLQ    356
        35 054367   001014 756000 0                  STQ     PROC$+4
        35 054370   000151 236000 xsym               LDQ     O1COM+105
        35 054371   000025 736000                    QLS     21
        35 054372   000545 036000 36                 ADLQ    357
        35 054373   000543 235000 36                 LDA     355
        35 054374   001012 757000 0                  STAQ    PROC$+2
        35 054375   001012 630400 0                  EPPR0   PROC$+2
        35 054376   000000 631400 36                 EPPR1   0
        35 054377   000000 701000 xent               TSX1    Z8AE$ERROR
        35 054400   000000 011000                    NOP     0

     7997    44659    3                                 O1COM.LX_STK.LINE(O1COM.LX_TOP - 2),
     7998    44660    3                                 O1COM.LX_STK.COLUMN(O1COM.LX_TOP - 2));
     7999    44661    3              O1COM.CURRENT_SEG_LIMIT$ = O1COM.CURRENT_PROC$;

  44661 35 054401   000057 236000 xsym               LDQ     O1COM+47
        35 054402   000115 756000 xsym               STQ     O1COM+77
PL6.E3A0      #001=Z8EM$SEMANTICS_DATA_DIV File=Z8EM.:Z8A6TSI                    SAT 08/09/97 12:08 Page:1410

     8000    44662
     8001    44663    3              CALL CHARBIN (SEGMENT_LIMIT,

  44663 35 054403   000151 235000 xsym               LDA     O1COM+105
        35 054404   000003 735000                    ALS     3
        35 054405   014021 470405 xsym               LDP0    O1COM+6161,AL
        35 054406   000004 220100                    LDX0    4,,PR0
        35 054407   000000 305540                    DTB
        35 054410   000004 430010                    NDSC9   4,,PR0                   cn=2,s=nosgn,sf=0,n=*X0
        35 054411   000022 000004 0                  NDSC9   SEGMENT_LIMIT            cn=0,s=lsgnf,sf=0,n=4

     8002    44664    3                            O1COM.LX_STK.DNT$ (O1COM.LX_TOP) -> DNT.TEXT.NAME);
     8003    44665
     8004    44666    3              IF SEGMENT_LIMIT < 1 OR

  44666 35 054412   000022 235000 0                  LDA     SEGMENT_LIMIT
        35 054413   054416 604400 35                 TMOZ    s:44669
        35 054414   000061 115007                    CMPA    49,DL
        35 054415   054435 604400 35                 TMOZ    s:44676

     8005    44667    3                  SEGMENT_LIMIT > %MAX_FIXED_SEG# THEN
     8006    44668    4                DO;

     8007    44669    4                  CALL Z8AE$ERROR (%E$SEGMENT_LIMIT_ERROR,

  44669 35 054416   000151 236000 xsym               LDQ     O1COM+105
        35 054417   000025 736000                    QLS     21
        35 054420   000662 036000 36                 ADLQ    434
        35 054421   001014 756000 0                  STQ     PROC$+4
        35 054422   000151 236000 xsym               LDQ     O1COM+105
        35 054423   000025 736000                    QLS     21
        35 054424   000663 036000 36                 ADLQ    435
        35 054425   001110 235000 36                 LDA     584
        35 054426   001012 757000 0                  STAQ    PROC$+2
        35 054427   001012 630400 0                  EPPR0   PROC$+2
        35 054430   000000 631400 36                 EPPR1   0
PL6.E3A0      #001=Z8EM$SEMANTICS_DATA_DIV File=Z8EM.:Z8A6TSI                    SAT 08/09/97 12:08 Page:1411
        35 054431   000000 701000 xent               TSX1    Z8AE$ERROR
        35 054432   000000 011000                    NOP     0

     8008    44670    4                                   O1COM.LX_STK.LINE (O1COM.LX_TOP),
     8009    44671    4                                   O1COM.LX_STK.COLUMN (O1COM.LX_TOP));
     8010    44672
     8011    44673    4                  SEGMENT_LIMIT = %MAX_FIXED_SEG# + 1;

  44673 35 054433   000062 235007                    LDA     50,DL
        35 054434   000022 755000 0                  STA     SEGMENT_LIMIT

     8012    44674    4                END;

     8013    44675
     8014    44676    3              IF O1COM.CURRENT_PROC$ -> PROC_.FATHER = ADDR(NIL) THEN

  44676 35 054435   000057 470400 xsym               LDP0    O1COM+47
        35 054436   000011 236100                    LDQ     9,,PR0
        35 054437   000024 116000 36                 CMPQ    20
        35 054440   054443 601000 35                 TNZ     s:44681

     8015    44677    4                DO;

     8016    44678    4                  O1COM.SEG_LIMIT = SEGMENT_LIMIT;

  44678 35 054441   000111 755000 xsym               STA     O1COM+73

     8017    44679    4                END;

  44679 35 054442   054463 710000 35                 TRA     s:44686

     8018    44680    3              ELSE
     8019    44681    3                IF O1COM.SEG_LIMIT ~= SEGMENT_LIMIT THEN

  44681 35 054443   000111 236000 xsym               LDQ     O1COM+73
        35 054444   000022 116000 0                  CMPQ    SEGMENT_LIMIT
        35 054445   054463 600000 35                 TZE     s:44686
PL6.E3A0      #001=Z8EM$SEMANTICS_DATA_DIV File=Z8EM.:Z8A6TSI                    SAT 08/09/97 12:08 Page:1412

     8020    44682    3                  CALL Z8AE$ERROR (%E$MUST_SAME_LIMIT_AS_MAIN,

  44682 35 054446   000151 236000 xsym               LDQ     O1COM+105
        35 054447   000025 736000                    QLS     21
        35 054450   000662 036000 36                 ADLQ    434
        35 054451   001014 756000 0                  STQ     PROC$+4
        35 054452   000151 236000 xsym               LDQ     O1COM+105
        35 054453   000025 736000                    QLS     21
        35 054454   000663 036000 36                 ADLQ    435
        35 054455   001112 235000 36                 LDA     586
        35 054456   001012 757000 0                  STAQ    PROC$+2
        35 054457   001012 630400 0                  EPPR0   PROC$+2
        35 054460   000000 631400 36                 EPPR1   0
        35 054461   000000 701000 xent               TSX1    Z8AE$ERROR
        35 054462   000000 011000                    NOP     0

     8021    44683    3                                   O1COM.LX_STK.LINE (O1COM.LX_TOP),
     8022    44684    3                                   O1COM.LX_STK.COLUMN (O1COM.LX_TOP));
     8023    44685
     8024    44686    3              IF O1COM.ID_DIV_COUNT <= 1  THEN

  44686 35 054463   000116 235000 xsym               LDA     O1COM+78
        35 054464   000001 115007                    CMPA    1,DL
        35 054465   056641 605400 35                 TPNZ    s:45674

     8025    44687    3                COMCOM.SEG_LIMIT = O1COM.SEG_LIMIT;

  44687 35 054466   000111 236000 xsym               LDQ     O1COM+73
        35 054467   000502 756000 xsym               STQ     COMCOM+322

     8026    44688    3            END;

  44688 35 054470   056641 710000 35                 TRA     s:45674

     8027    44689
     8028    44690    2      CASE (%ACT_COLLATING_SEQUENCE);
PL6.E3A0      #001=Z8EM$SEMANTICS_DATA_DIV File=Z8EM.:Z8A6TSI                    SAT 08/09/97 12:08 Page:1413

     8029    44691
     8030    44692    2            CALL COLLATING_SEQUENCE ( ADDR ( O1COM.LX_STK (O1COM.LX_TOP) ));

  44692 35 054471   000151 236000 xsym               LDQ     O1COM+105
        35 054472   000025 736000                    QLS     21
        35 054473   000631 036000 36                 ADLQ    409
        35 054474   001256 756000 0                  STQ     PROC$+166
        35 054475   001256 630400 0                  EPPR0   PROC$+166
        35 054476   000203 450400 0                  STP0    ST$$+2
        35 054477   004707 701000 35                 TSX1    COLLATING_SEQUENCE
        35 054500   000000 011000                    NOP     0
        35 054501   056641 710000 35                 TRA     s:45674

     8031    44693
     8032    44694    2      CASE (%ACT_ALPHABET_THRU_CLAUSE);

     8033    44695
     8034    44696                 %INIT_LX_LIST (@POINTER = "ADDR(TEMP_LX_NODE)");

  44698 35 054502   000002 220003                    LDX0    2,DU
        35 054503   000000 740000 30                 STX0    TEMP_LX_NODE

  44699 35 054504   000000 221003                    LDX1    0,DU
        35 054505   000000 441000 30                 SXL1    TEMP_LX_NODE

  44700 35 054506   000024 236000 36                 LDQ     20
        35 054507   000001 756000 30                 STQ     TEMP_LX_NODE+1

  44701 35 054510   000004 756000 30                 STQ     TEMP_LX_NODE+4

  44702 35 054511   000007 756000 30                 STQ     TEMP_LX_NODE+7

  44703 35 054512   000002 450000 30                 STZ     TEMP_LX_NODE+2

     8035    44706
     8036    44707                 %ADD_LX_STK_TO_LIST_HEAD (@LIST$ = "ADDR(TEMP_LX_NODE)",
PL6.E3A0      #001=Z8EM$SEMANTICS_DATA_DIV File=Z8EM.:Z8A6TSI                    SAT 08/09/97 12:08 Page:1414
     8037    44708                                           @FROM  = O1COM.LX_TOP);

  44715 35 054513   000670 630400 36                 EPPR0   440
        35 054514   000025 631400 36                 EPPR1   21
        35 054515   000000 701000 xent               TSX1    Z8ED$NEW_HEAP
        35 054516   000000 011000                    NOP     0

  44718 35 054517   000151 235000 xsym               LDA     O1COM+105
        35 054520   000005 735000                    ALS     5
        35 054521   000000 470400 29                 LDP0    HEAP$
        35 054522   000100 100405                    MLR     fill='000'O
        35 054523   014017 000040 xsym               ADSC9   O1COM+6159,A             cn=0,n=32
        35 054524   000000 000040                    ADSC9   0,,PR0                   cn=0,n=32

  44724 35 054525   000004 236000 30                 LDQ     TEMP_LX_NODE+4
        35 054526   000000 470400 29                 LDP0    HEAP$
        35 054527   000007 756100                    STQ     7,,PR0

  44725 35 054530   000000 236000 29                 LDQ     HEAP$
        35 054531   000004 756000 30                 STQ     TEMP_LX_NODE+4

  44726 35 054532   000002 235000 30                 LDA     TEMP_LX_NODE+2
        35 054533   054535 601000 35                 TNZ     s:44728

  44727 35 054534   000001 756000 30                 STQ     TEMP_LX_NODE+1

  44728 35 054535   000002 054000 30                 AOS     TEMP_LX_NODE+2

     8038    44733
     8039    44734                 %ADD_LX_STK_TO_LIST_HEAD (@LIST$ = "ADDR(TEMP_LX_NODE)",
     8040    44735                                           @FROM  = O1COM.LX_TOP - 2);

  44742 35 054536   000670 630400 36                 EPPR0   440
        35 054537   000025 631400 36                 EPPR1   21
        35 054540   000000 701000 xent               TSX1    Z8ED$NEW_HEAP
        35 054541   000000 011000                    NOP     0

PL6.E3A0      #001=Z8EM$SEMANTICS_DATA_DIV File=Z8EM.:Z8A6TSI                    SAT 08/09/97 12:08 Page:1415
  44745 35 054542   000151 235000 xsym               LDA     O1COM+105
        35 054543   000005 735000                    ALS     5
        35 054544   000000 470400 29                 LDP0    HEAP$
        35 054545   000100 100405                    MLR     fill='000'O
        35 054546   013777 000040 xsym               ADSC9   O1COM+6143,A             cn=0,n=32
        35 054547   000000 000040                    ADSC9   0,,PR0                   cn=0,n=32

  44751 35 054550   000004 236000 30                 LDQ     TEMP_LX_NODE+4
        35 054551   000000 470400 29                 LDP0    HEAP$
        35 054552   000007 756100                    STQ     7,,PR0

  44752 35 054553   000000 236000 29                 LDQ     HEAP$
        35 054554   000004 756000 30                 STQ     TEMP_LX_NODE+4

  44753 35 054555   000002 235000 30                 LDA     TEMP_LX_NODE+2
        35 054556   054560 601000 35                 TNZ     s:44755

  44754 35 054557   000001 756000 30                 STQ     TEMP_LX_NODE+1

  44755 35 054560   000002 054000 30                 AOS     TEMP_LX_NODE+2

     8041    44760
     8042    44761                 %PROP_ERR_TEMP_LX_NODE;

  44763 35 054561   000134 235000 xsym               LDA     O1COM+92
        35 054562   000001 735000                    ALS     1
        35 054563   000000 236005 xsym               LDQ     DD_PRODR,AL
        35 054564   777777 376007                    ANQ     -1,DL
        35 054565   001012 756000 0                  STQ     PROC$+2
        35 054566   000151 236000 xsym               LDQ     O1COM+105
        35 054567   001012 136000 0                  SBLQ    PROC$+2
        35 054570   000001 036007                    ADLQ    1,DL
        35 054571   000017 756000 0                  STQ     I
        35 054572   054603 710000 35                 TRA     s:44766+1

  44764 35 054573   000017 235000 0                  LDA     I
        35 054574   000003 735000                    ALS     3
PL6.E3A0      #001=Z8EM$SEMANTICS_DATA_DIV File=Z8EM.:Z8A6TSI                    SAT 08/09/97 12:08 Page:1416
        35 054575   014017 236005 xsym               LDQ     O1COM+6159,AL
        35 054576   400000 316007                    CANQ    -131072,DL
        35 054577   054602 600000 35                 TZE     s:44766

  44765 35 054600   400000 236007                    LDQ     -131072,DL
        35 054601   000000 256000 30                 ORSQ    TEMP_LX_NODE

  44766 35 054602   000017 054000 0                  AOS     I
        35 054603   000017 236000 0                  LDQ     I
        35 054604   000151 116000 xsym               CMPQ    O1COM+105
        35 054605   054573 604400 35                 TMOZ    s:44764

     8043    44769                 %PROPAGATE_TEMP_LX_NODE;

  44771 35 054606   000134 235000 xsym               LDA     O1COM+92
        35 054607   000001 735000                    ALS     1
        35 054610   000000 236005 xsym               LDQ     DD_PRODR,AL
        35 054611   777777 376007                    ANQ     -1,DL
        35 054612   001012 756000 0                  STQ     PROC$+2
        35 054613   000151 236000 xsym               LDQ     O1COM+105
        35 054614   001012 136000 0                  SBLQ    PROC$+2
        35 054615   000005 736000                    QLS     5
        35 054616   000006 100400                    MLR     fill='000'O
        35 054617   000000 000040 30                 ADSC9   TEMP_LX_NODE             cn=0,n=32
        35 054620   014027 000040 xsym               ADSC9   O1COM+6167,Q             cn=0,n=32

     8044    44774
     8045    44775                 %INIT_LX_LIST (@POINTER = "ADDR(TEMP_LX_NODE)");

  44777 35 054621   000002 220003                    LDX0    2,DU
        35 054622   000000 740000 30                 STX0    TEMP_LX_NODE

  44778 35 054623   000000 221003                    LDX1    0,DU
        35 054624   000000 441000 30                 SXL1    TEMP_LX_NODE

  44779 35 054625   000024 236000 36                 LDQ     20
        35 054626   000001 756000 30                 STQ     TEMP_LX_NODE+1
PL6.E3A0      #001=Z8EM$SEMANTICS_DATA_DIV File=Z8EM.:Z8A6TSI                    SAT 08/09/97 12:08 Page:1417

  44780 35 054627   000004 756000 30                 STQ     TEMP_LX_NODE+4

  44781 35 054630   000007 756000 30                 STQ     TEMP_LX_NODE+7

  44782 35 054631   000002 450000 30                 STZ     TEMP_LX_NODE+2

     8046    44785
     8047    44786                 %ADD_LX_STK_TO_LIST_HEAD (@LIST$ = "ADDR(TEMP_LX_NODE)",
     8048    44787                                           @FROM  = O1COM.LX_TOP - 2);

  44794 35 054632   000670 630400 36                 EPPR0   440
        35 054633   000025 631400 36                 EPPR1   21
        35 054634   000000 701000 xent               TSX1    Z8ED$NEW_HEAP
        35 054635   000000 011000                    NOP     0

  44797 35 054636   000151 235000 xsym               LDA     O1COM+105
        35 054637   000005 735000                    ALS     5
        35 054640   000000 470400 29                 LDP0    HEAP$
        35 054641   000100 100405                    MLR     fill='000'O
        35 054642   013777 000040 xsym               ADSC9   O1COM+6143,A             cn=0,n=32
        35 054643   000000 000040                    ADSC9   0,,PR0                   cn=0,n=32

  44803 35 054644   000004 236000 30                 LDQ     TEMP_LX_NODE+4
        35 054645   000000 470400 29                 LDP0    HEAP$
        35 054646   000007 756100                    STQ     7,,PR0

  44804 35 054647   000000 236000 29                 LDQ     HEAP$
        35 054650   000004 756000 30                 STQ     TEMP_LX_NODE+4

  44805 35 054651   000002 235000 30                 LDA     TEMP_LX_NODE+2
        35 054652   054654 601000 35                 TNZ     s:44807

  44806 35 054653   000001 756000 30                 STQ     TEMP_LX_NODE+1

  44807 35 054654   000002 054000 30                 AOS     TEMP_LX_NODE+2

PL6.E3A0      #001=Z8EM$SEMANTICS_DATA_DIV File=Z8EM.:Z8A6TSI                    SAT 08/09/97 12:08 Page:1418
     8049    44812
     8050    44813                 %PROPAGATE_TEMP_LX_NODE;

  44815 35 054655   000134 235000 xsym               LDA     O1COM+92
        35 054656   000001 735000                    ALS     1
        35 054657   000000 236005 xsym               LDQ     DD_PRODR,AL
        35 054660   777777 376007                    ANQ     -1,DL
        35 054661   001012 756000 0                  STQ     PROC$+2
        35 054662   000151 236000 xsym               LDQ     O1COM+105
        35 054663   001012 136000 0                  SBLQ    PROC$+2
        35 054664   000005 736000                    QLS     5
        35 054665   000006 100400                    MLR     fill='000'O
        35 054666   000000 000040 30                 ADSC9   TEMP_LX_NODE             cn=0,n=32
        35 054667   014027 000040 xsym               ADSC9   O1COM+6167,Q             cn=0,n=32

  44816 35 054670   056641 710000 35                 TRA     s:45674

     8051    44818
     8052    44819    2      CASE (%ACT_ALPHABET_NAME);

     8053    44820    2            CALL ALPHABET_NAME (ADDR(O1COM.LX_STK (O1COM.LX_TOP - 3)),

  44820 35 054671   000151 236000 xsym               LDQ     O1COM+105
        35 054672   000025 736000                    QLS     21
        35 054673   000241 036000 36                 ADLQ    161
        35 054674   001257 756000 0                  STQ     PROC$+167
        35 054675   000151 236000 xsym               LDQ     O1COM+105
        35 054676   000025 736000                    QLS     21
        35 054677   000236 036000 36                 ADLQ    158
        35 054700   001260 756000 0                  STQ     PROC$+168
        35 054701   000151 236000 xsym               LDQ     O1COM+105
        35 054702   000025 736000                    QLS     21
        35 054703   000631 036000 36                 ADLQ    409
        35 054704   001261 756000 0                  STQ     PROC$+169
        35 054705   001261 630400 0                  EPPR0   PROC$+169
        35 054706   000054 450400 0                  STP0    @ALPHA_NAME$+1
        35 054707   001260 631400 0                  EPPR1   PROC$+168
PL6.E3A0      #001=Z8EM$SEMANTICS_DATA_DIV File=Z8EM.:Z8A6TSI                    SAT 08/09/97 12:08 Page:1419
        35 054710   000053 451400 0                  STP1    @ALPHA_KEYWORD$+1
        35 054711   001257 633400 0                  EPPR3   PROC$+167
        35 054712   000052 453400 0                  STP3    DNT$$+2
        35 054713   000303 701000 35                 TSX1    ALPHABET_NAME
        35 054714   000000 011000                    NOP     0
        35 054715   056641 710000 35                 TRA     s:45674

     8054    44821    2                                ADDR(O1COM.LX_STK (O1COM.LX_TOP - 2)),
     8055    44822    2                                ADDR(O1COM.LX_STK (O1COM.LX_TOP)));
     8056    44823
     8057    44824    2      CASE (%ACT_BLOCK_IS_NAME);

     8058    44825
     8059    44826    2            IF COMCOM.OB.FIPS.LEVEL > 0 THEN

  44826 35 054716   000036 720000 xsym               LXL0    COMCOM+30
        35 054717   054735 604400 35                 TMOZ    s:44831

     8060    44827    2              CALL Z8AE$ERROR (%E$BLOCK_NON_ANSI,

  44827 35 054720   000151 236000 xsym               LDQ     O1COM+105
        35 054721   000025 736000                    QLS     21
        35 054722   000100 036000 36                 ADLQ    64
        35 054723   001014 756000 0                  STQ     PROC$+4
        35 054724   000151 236000 xsym               LDQ     O1COM+105
        35 054725   000025 736000                    QLS     21
        35 054726   000101 036000 36                 ADLQ    65
        35 054727   001114 235000 36                 LDA     588
        35 054730   001012 757000 0                  STAQ    PROC$+2
        35 054731   001012 630400 0                  EPPR0   PROC$+2
        35 054732   000000 631400 36                 EPPR1   0
        35 054733   000000 701000 xent               TSX1    Z8AE$ERROR
        35 054734   000000 011000                    NOP     0

     8061    44828    2                               O1COM.LX_STK.LINE(O1COM.LX_TOP - 3),
     8062    44829    2                               O1COM.LX_STK.COLUMN(O1COM.LX_TOP - 3));
     8063    44830
PL6.E3A0      #001=Z8EM$SEMANTICS_DATA_DIV File=Z8EM.:Z8A6TSI                    SAT 08/09/97 12:08 Page:1420
     8064    44831    2            IF O1COM.BLOCK$ = ADDR(NIL) THEN

  44831 35 054735   000060 236000 xsym               LDQ     O1COM+48
        35 054736   000024 116000 36                 CMPQ    20
        35 054737   054765 601000 35                 TNZ     s:44853

     8065    44832    3              DO;

     8066    44833                     %NEW_HEAP (@POINTER = O1COM.BLOCK$);

  44835 35 054740   001115 630400 36                 EPPR0   589
        35 054741   000025 631400 36                 EPPR1   21
        35 054742   000000 701000 xent               TSX1    Z8ED$NEW_HEAP
        35 054743   000000 011000                    NOP     0

     8067    44838
     8068    44839                     %INIT_LX_LIST (@POINTER = O1COM.BLOCK$);

  44841 35 054744   000002 220003                    LDX0    2,DU
        35 054745   000060 470400 xsym               LDP0    O1COM+48
        35 054746   000000 740100                    STX0    0,,PR0

  44842 35 054747   000000 221003                    LDX1    0,DU
        35 054750   000060 470400 xsym               LDP0    O1COM+48
        35 054751   000000 441100                    SXL1    0,,PR0

  44843 35 054752   000024 236000 36                 LDQ     20
        35 054753   000060 470400 xsym               LDP0    O1COM+48
        35 054754   000001 756100                    STQ     1,,PR0

  44844 35 054755   000024 236000 36                 LDQ     20
        35 054756   000060 470400 xsym               LDP0    O1COM+48
        35 054757   000004 756100                    STQ     4,,PR0

  44845 35 054760   000024 236000 36                 LDQ     20
        35 054761   000060 470400 xsym               LDP0    O1COM+48
        35 054762   000007 756100                    STQ     7,,PR0
PL6.E3A0      #001=Z8EM$SEMANTICS_DATA_DIV File=Z8EM.:Z8A6TSI                    SAT 08/09/97 12:08 Page:1421

  44846 35 054763   000060 470400 xsym               LDP0    O1COM+48
        35 054764   000002 450100                    STZ     2,,PR0

     8069    44849    3              END;

     8070    44850
     8071    44851                 %INIT_LX_LIST (@POINTER = "ADDR(TEMP_LX_NODE)");

  44853 35 054765   000002 220003                    LDX0    2,DU
        35 054766   000000 740000 30                 STX0    TEMP_LX_NODE

  44854 35 054767   000000 221003                    LDX1    0,DU
        35 054770   000000 441000 30                 SXL1    TEMP_LX_NODE

  44855 35 054771   000024 236000 36                 LDQ     20
        35 054772   000001 756000 30                 STQ     TEMP_LX_NODE+1

  44856 35 054773   000004 756000 30                 STQ     TEMP_LX_NODE+4

  44857 35 054774   000007 756000 30                 STQ     TEMP_LX_NODE+7

  44858 35 054775   000002 450000 30                 STZ     TEMP_LX_NODE+2

     8072    44861
     8073    44862                 %ADD_LX_STK_TO_LIST_HEAD (@LIST$ = "ADDR(TEMP_LX_NODE)",
     8074    44863                                           @FROM  = O1COM.LX_TOP - 2);

  44870 35 054776   000670 630400 36                 EPPR0   440
        35 054777   000025 631400 36                 EPPR1   21
        35 055000   000000 701000 xent               TSX1    Z8ED$NEW_HEAP
        35 055001   000000 011000                    NOP     0

  44873 35 055002   000151 235000 xsym               LDA     O1COM+105
        35 055003   000005 735000                    ALS     5
        35 055004   000000 470400 29                 LDP0    HEAP$
        35 055005   000100 100405                    MLR     fill='000'O
PL6.E3A0      #001=Z8EM$SEMANTICS_DATA_DIV File=Z8EM.:Z8A6TSI                    SAT 08/09/97 12:08 Page:1422
        35 055006   013777 000040 xsym               ADSC9   O1COM+6143,A             cn=0,n=32
        35 055007   000000 000040                    ADSC9   0,,PR0                   cn=0,n=32

  44879 35 055010   000004 236000 30                 LDQ     TEMP_LX_NODE+4
        35 055011   000000 470400 29                 LDP0    HEAP$
        35 055012   000007 756100                    STQ     7,,PR0

  44880 35 055013   000000 236000 29                 LDQ     HEAP$
        35 055014   000004 756000 30                 STQ     TEMP_LX_NODE+4

  44881 35 055015   000002 235000 30                 LDA     TEMP_LX_NODE+2
        35 055016   055020 601000 35                 TNZ     s:44883

  44882 35 055017   000001 756000 30                 STQ     TEMP_LX_NODE+1

  44883 35 055020   000002 054000 30                 AOS     TEMP_LX_NODE+2

     8075    44888
     8076    44889                 %NEW_HEAP (@POINTER = P$);

  44891 35 055021   001117 630400 36                 EPPR0   591
        35 055022   000025 631400 36                 EPPR1   21
        35 055023   000000 701000 xent               TSX1    Z8ED$NEW_HEAP
        35 055024   000000 011000                    NOP     0

     8077    44894
     8078    44895                 %INIT_LX_LIST (@POINTER = P$);

  44897 35 055025   000002 220003                    LDX0    2,DU
        35 055026   000021 470400 0                  LDP0    P$
        35 055027   000000 740100                    STX0    0,,PR0

  44898 35 055030   000000 221003                    LDX1    0,DU
        35 055031   000021 470400 0                  LDP0    P$
        35 055032   000000 441100                    SXL1    0,,PR0

  44899 35 055033   000024 236000 36                 LDQ     20
PL6.E3A0      #001=Z8EM$SEMANTICS_DATA_DIV File=Z8EM.:Z8A6TSI                    SAT 08/09/97 12:08 Page:1423
        35 055034   000021 470400 0                  LDP0    P$
        35 055035   000001 756100                    STQ     1,,PR0

  44900 35 055036   000024 236000 36                 LDQ     20
        35 055037   000021 470400 0                  LDP0    P$
        35 055040   000004 756100                    STQ     4,,PR0

  44901 35 055041   000024 236000 36                 LDQ     20
        35 055042   000021 470400 0                  LDP0    P$
        35 055043   000007 756100                    STQ     7,,PR0

  44902 35 055044   000021 470400 0                  LDP0    P$
        35 055045   000002 450100                    STZ     2,,PR0

     8079    44905
     8080    44906                 %ADD_LX_STK_TO_LIST_HEAD (@LIST$ = P$,
     8081    44907                                           @FROM  = O1COM.LX_TOP);

  44914 35 055046   000670 630400 36                 EPPR0   440
        35 055047   000025 631400 36                 EPPR1   21
        35 055050   000000 701000 xent               TSX1    Z8ED$NEW_HEAP
        35 055051   000000 011000                    NOP     0

  44917 35 055052   000151 235000 xsym               LDA     O1COM+105
        35 055053   000005 735000                    ALS     5
        35 055054   000000 470400 29                 LDP0    HEAP$
        35 055055   000100 100405                    MLR     fill='000'O
        35 055056   014017 000040 xsym               ADSC9   O1COM+6159,A             cn=0,n=32
        35 055057   000000 000040                    ADSC9   0,,PR0                   cn=0,n=32

  44923 35 055060   000021 470400 0                  LDP0    P$
        35 055061   000004 236100                    LDQ     4,,PR0
        35 055062   000000 471400 29                 LDP1    HEAP$
        35 055063   100007 756100                    STQ     7,,PR1

  44924 35 055064   000000 236000 29                 LDQ     HEAP$
        35 055065   000021 470400 0                  LDP0    P$
PL6.E3A0      #001=Z8EM$SEMANTICS_DATA_DIV File=Z8EM.:Z8A6TSI                    SAT 08/09/97 12:08 Page:1424
        35 055066   000004 756100                    STQ     4,,PR0

  44925 35 055067   000021 470400 0                  LDP0    P$
        35 055070   000002 235100                    LDA     2,,PR0
        35 055071   055073 601000 35                 TNZ     s:44927

  44926 35 055072   000001 756100                    STQ     1,,PR0

  44927 35 055073   000021 470400 0                  LDP0    P$
        35 055074   000002 054100                    AOS     2,,PR0

     8082    44932
     8083    44933                 %ADD_LX_ITEM_TO_LIST_TAIL (@LIST$ = "ADDR(TEMP_LX_NODE)",
     8084    44934                                            @FROM$ = P$);

  44936 35 055075   000024 236000 36                 LDQ     20
        35 055076   000021 470400 0                  LDP0    P$
        35 055077   000007 756100                    STQ     7,,PR0

  44937 35 055100   000002 235000 30                 LDA     TEMP_LX_NODE+2
        35 055101   055106 601000 35                 TNZ     s:44944

  44939 35 055102   000021 236000 0                  LDQ     P$
        35 055103   000004 756000 30                 STQ     TEMP_LX_NODE+4

  44940 35 055104   000001 756000 30                 STQ     TEMP_LX_NODE+1

  44941 35 055105   055113 710000 35                 TRA     s:44947

  44944 35 055106   000021 236000 0                  LDQ     P$
        35 055107   000001 470400 30                 LDP0    TEMP_LX_NODE+1
        35 055110   000007 756100                    STQ     7,,PR0

  44945 35 055111   000021 236000 0                  LDQ     P$
        35 055112   000001 756000 30                 STQ     TEMP_LX_NODE+1

  44947 35 055113   000002 054000 30                 AOS     TEMP_LX_NODE+2
PL6.E3A0      #001=Z8EM$SEMANTICS_DATA_DIV File=Z8EM.:Z8A6TSI                    SAT 08/09/97 12:08 Page:1425

     8085    44950
     8086    44951                 %NEW_COPY_LX_ITEM (@FROM$ = "ADDR(TEMP_LX_NODE)",
     8087    44952                                    @TO$     = P$);

  44957 35 055114   001117 630400 36                 EPPR0   591
        35 055115   000025 631400 36                 EPPR1   21
        35 055116   000000 701000 xent               TSX1    Z8ED$NEW_HEAP
        35 055117   000000 011000                    NOP     0

  44960 35 055120   000021 470400 0                  LDP0    P$
        35 055121   000100 100400                    MLR     fill='000'O
        35 055122   000000 000040 30                 ADSC9   TEMP_LX_NODE             cn=0,n=32
        35 055123   000000 000040                    ADSC9   0,,PR0                   cn=0,n=32

  44961 35 055124   000024 236000 36                 LDQ     20
        35 055125   000021 470400 0                  LDP0    P$
        35 055126   000007 756100                    STQ     7,,PR0

     8088    44964
     8089    44965    2            P$ -> LX_LIST.LINK = ADDR(TEMP_LX_NODE) -> LX_LIST.LINK;

  44965 35 055127   000007 236000 30                 LDQ     TEMP_LX_NODE+7
        35 055130   000021 470400 0                  LDP0    P$
        35 055131   000007 756100                    STQ     7,,PR0

     8090    44966
     8091    44967                 %ADD_LX_ITEM_TO_LIST_TAIL (@LIST$ = O1COM.BLOCK$,
     8092    44968                                            @FROM$ = P$);

  44970 35 055132   000024 236000 36                 LDQ     20
        35 055133   000021 470400 0                  LDP0    P$
        35 055134   000007 756100                    STQ     7,,PR0

  44971 35 055135   000060 470400 xsym               LDP0    O1COM+48
        35 055136   000002 235100                    LDA     2,,PR0
        35 055137   055146 601000 35                 TNZ     s:44978
PL6.E3A0      #001=Z8EM$SEMANTICS_DATA_DIV File=Z8EM.:Z8A6TSI                    SAT 08/09/97 12:08 Page:1426

  44973 35 055140   000021 236000 0                  LDQ     P$
        35 055141   000004 756100                    STQ     4,,PR0

  44974 35 055142   000021 236000 0                  LDQ     P$
        35 055143   000060 470400 xsym               LDP0    O1COM+48
        35 055144   000001 756100                    STQ     1,,PR0

  44975 35 055145   055154 710000 35                 TRA     s:44981

  44978 35 055146   000001 471500                    LDP1    1,,PR0
        35 055147   000021 236000 0                  LDQ     P$
        35 055150   100007 756100                    STQ     7,,PR1

  44979 35 055151   000021 236000 0                  LDQ     P$
        35 055152   000060 470400 xsym               LDP0    O1COM+48
        35 055153   000001 756100                    STQ     1,,PR0

  44981 35 055154   000060 470400 xsym               LDP0    O1COM+48
        35 055155   000002 054100                    AOS     2,,PR0

  44982 35 055156   056641 710000 35                 TRA     s:45674

     8093    44984
     8094    44985    2      CASE (%ACT_BLOCK_IS_NAME_THRU_NAME);

     8095    44986
     8096    44987    2            IF COMCOM.OB.FIPS.LEVEL > 0 THEN

  44987 35 055157   000036 720000 xsym               LXL0    COMCOM+30
        35 055160   055176 604400 35                 TMOZ    s:44992

     8097    44988    2              CALL Z8AE$ERROR (%E$BLOCK_NON_ANSI,

  44988 35 055161   000151 236000 xsym               LDQ     O1COM+105
        35 055162   000025 736000                    QLS     21
        35 055163   000557 036000 36                 ADLQ    367
PL6.E3A0      #001=Z8EM$SEMANTICS_DATA_DIV File=Z8EM.:Z8A6TSI                    SAT 08/09/97 12:08 Page:1427
        35 055164   001014 756000 0                  STQ     PROC$+4
        35 055165   000151 236000 xsym               LDQ     O1COM+105
        35 055166   000025 736000                    QLS     21
        35 055167   000560 036000 36                 ADLQ    368
        35 055170   001114 235000 36                 LDA     588
        35 055171   001012 757000 0                  STAQ    PROC$+2
        35 055172   001012 630400 0                  EPPR0   PROC$+2
        35 055173   000000 631400 36                 EPPR1   0
        35 055174   000000 701000 xent               TSX1    Z8AE$ERROR
        35 055175   000000 011000                    NOP     0

     8098    44989    2                               O1COM.LX_STK.LINE(O1COM.LX_TOP - 5),
     8099    44990    2                               O1COM.LX_STK.COLUMN(O1COM.LX_TOP - 5));
     8100    44991
     8101    44992    2            IF O1COM.BLOCK$ = ADDR(NIL) THEN

  44992 35 055176   000060 236000 xsym               LDQ     O1COM+48
        35 055177   000024 116000 36                 CMPQ    20
        35 055200   055226 601000 35                 TNZ     s:45014

     8102    44993    3              DO;

     8103    44994                     %NEW_HEAP (@POINTER = O1COM.BLOCK$);

  44996 35 055201   001115 630400 36                 EPPR0   589
        35 055202   000025 631400 36                 EPPR1   21
        35 055203   000000 701000 xent               TSX1    Z8ED$NEW_HEAP
        35 055204   000000 011000                    NOP     0

     8104    44999
     8105    45000                     %INIT_LX_LIST (@POINTER = O1COM.BLOCK$);

  45002 35 055205   000002 220003                    LDX0    2,DU
        35 055206   000060 470400 xsym               LDP0    O1COM+48
        35 055207   000000 740100                    STX0    0,,PR0

  45003 35 055210   000000 221003                    LDX1    0,DU
PL6.E3A0      #001=Z8EM$SEMANTICS_DATA_DIV File=Z8EM.:Z8A6TSI                    SAT 08/09/97 12:08 Page:1428
        35 055211   000060 470400 xsym               LDP0    O1COM+48
        35 055212   000000 441100                    SXL1    0,,PR0

  45004 35 055213   000024 236000 36                 LDQ     20
        35 055214   000060 470400 xsym               LDP0    O1COM+48
        35 055215   000001 756100                    STQ     1,,PR0

  45005 35 055216   000024 236000 36                 LDQ     20
        35 055217   000060 470400 xsym               LDP0    O1COM+48
        35 055220   000004 756100                    STQ     4,,PR0

  45006 35 055221   000024 236000 36                 LDQ     20
        35 055222   000060 470400 xsym               LDP0    O1COM+48
        35 055223   000007 756100                    STQ     7,,PR0

  45007 35 055224   000060 470400 xsym               LDP0    O1COM+48
        35 055225   000002 450100                    STZ     2,,PR0

     8106    45010    3              END;

     8107    45011
     8108    45012                 %INIT_LX_LIST (@POINTER = "ADDR(TEMP_LX_NODE)");

  45014 35 055226   000002 220003                    LDX0    2,DU
        35 055227   000000 740000 30                 STX0    TEMP_LX_NODE

  45015 35 055230   000000 221003                    LDX1    0,DU
        35 055231   000000 441000 30                 SXL1    TEMP_LX_NODE

  45016 35 055232   000024 236000 36                 LDQ     20
        35 055233   000001 756000 30                 STQ     TEMP_LX_NODE+1

  45017 35 055234   000004 756000 30                 STQ     TEMP_LX_NODE+4

  45018 35 055235   000007 756000 30                 STQ     TEMP_LX_NODE+7

  45019 35 055236   000002 450000 30                 STZ     TEMP_LX_NODE+2
PL6.E3A0      #001=Z8EM$SEMANTICS_DATA_DIV File=Z8EM.:Z8A6TSI                    SAT 08/09/97 12:08 Page:1429

     8109    45022
     8110    45023                 %ADD_LX_STK_TO_LIST_HEAD (@LIST$ = "ADDR(TEMP_LX_NODE)",
     8111    45024                                           @FROM  = O1COM.LX_TOP - 4);

  45031 35 055237   000670 630400 36                 EPPR0   440
        35 055240   000025 631400 36                 EPPR1   21
        35 055241   000000 701000 xent               TSX1    Z8ED$NEW_HEAP
        35 055242   000000 011000                    NOP     0

  45034 35 055243   000151 235000 xsym               LDA     O1COM+105
        35 055244   000005 735000                    ALS     5
        35 055245   000000 470400 29                 LDP0    HEAP$
        35 055246   000100 100405                    MLR     fill='000'O
        35 055247   013757 000040 xsym               ADSC9   O1COM+6127,A             cn=0,n=32
        35 055250   000000 000040                    ADSC9   0,,PR0                   cn=0,n=32

  45040 35 055251   000004 236000 30                 LDQ     TEMP_LX_NODE+4
        35 055252   000000 470400 29                 LDP0    HEAP$
        35 055253   000007 756100                    STQ     7,,PR0

  45041 35 055254   000000 236000 29                 LDQ     HEAP$
        35 055255   000004 756000 30                 STQ     TEMP_LX_NODE+4

  45042 35 055256   000002 235000 30                 LDA     TEMP_LX_NODE+2
        35 055257   055261 601000 35                 TNZ     s:45044

  45043 35 055260   000001 756000 30                 STQ     TEMP_LX_NODE+1

  45044 35 055261   000002 054000 30                 AOS     TEMP_LX_NODE+2

     8112    45049
     8113    45050                 %NEW_HEAP (@POINTER = P$);

  45052 35 055262   001117 630400 36                 EPPR0   591
        35 055263   000025 631400 36                 EPPR1   21
        35 055264   000000 701000 xent               TSX1    Z8ED$NEW_HEAP
PL6.E3A0      #001=Z8EM$SEMANTICS_DATA_DIV File=Z8EM.:Z8A6TSI                    SAT 08/09/97 12:08 Page:1430
        35 055265   000000 011000                    NOP     0

     8114    45055
     8115    45056                 %INIT_LX_LIST (@POINTER = P$);

  45058 35 055266   000002 220003                    LDX0    2,DU
        35 055267   000021 470400 0                  LDP0    P$
        35 055270   000000 740100                    STX0    0,,PR0

  45059 35 055271   000000 221003                    LDX1    0,DU
        35 055272   000021 470400 0                  LDP0    P$
        35 055273   000000 441100                    SXL1    0,,PR0

  45060 35 055274   000024 236000 36                 LDQ     20
        35 055275   000021 470400 0                  LDP0    P$
        35 055276   000001 756100                    STQ     1,,PR0

  45061 35 055277   000024 236000 36                 LDQ     20
        35 055300   000021 470400 0                  LDP0    P$
        35 055301   000004 756100                    STQ     4,,PR0

  45062 35 055302   000024 236000 36                 LDQ     20
        35 055303   000021 470400 0                  LDP0    P$
        35 055304   000007 756100                    STQ     7,,PR0

  45063 35 055305   000021 470400 0                  LDP0    P$
        35 055306   000002 450100                    STZ     2,,PR0

     8116    45066
     8117    45067                 %ADD_LX_STK_TO_LIST_HEAD (@LIST$ = P$,
     8118    45068                                           @FROM  = O1COM.LX_TOP - 2);

  45075 35 055307   000670 630400 36                 EPPR0   440
        35 055310   000025 631400 36                 EPPR1   21
        35 055311   000000 701000 xent               TSX1    Z8ED$NEW_HEAP
        35 055312   000000 011000                    NOP     0

PL6.E3A0      #001=Z8EM$SEMANTICS_DATA_DIV File=Z8EM.:Z8A6TSI                    SAT 08/09/97 12:08 Page:1431
  45078 35 055313   000151 235000 xsym               LDA     O1COM+105
        35 055314   000005 735000                    ALS     5
        35 055315   000000 470400 29                 LDP0    HEAP$
        35 055316   000100 100405                    MLR     fill='000'O
        35 055317   013777 000040 xsym               ADSC9   O1COM+6143,A             cn=0,n=32
        35 055320   000000 000040                    ADSC9   0,,PR0                   cn=0,n=32

  45084 35 055321   000021 470400 0                  LDP0    P$
        35 055322   000004 236100                    LDQ     4,,PR0
        35 055323   000000 471400 29                 LDP1    HEAP$
        35 055324   100007 756100                    STQ     7,,PR1

  45085 35 055325   000000 236000 29                 LDQ     HEAP$
        35 055326   000021 470400 0                  LDP0    P$
        35 055327   000004 756100                    STQ     4,,PR0

  45086 35 055330   000021 470400 0                  LDP0    P$
        35 055331   000002 235100                    LDA     2,,PR0
        35 055332   055334 601000 35                 TNZ     s:45088

  45087 35 055333   000001 756100                    STQ     1,,PR0

  45088 35 055334   000021 470400 0                  LDP0    P$
        35 055335   000002 054100                    AOS     2,,PR0

     8119    45093
     8120    45094                 %ADD_LX_STK_TO_LIST_TAIL (@LIST$ = P$,
     8121    45095                                           @FROM  = O1COM.LX_TOP);

  45102 35 055336   000670 630400 36                 EPPR0   440
        35 055337   000025 631400 36                 EPPR1   21
        35 055340   000000 701000 xent               TSX1    Z8ED$NEW_HEAP
        35 055341   000000 011000                    NOP     0

  45105 35 055342   000151 235000 xsym               LDA     O1COM+105
        35 055343   000005 735000                    ALS     5
        35 055344   000000 470400 29                 LDP0    HEAP$
PL6.E3A0      #001=Z8EM$SEMANTICS_DATA_DIV File=Z8EM.:Z8A6TSI                    SAT 08/09/97 12:08 Page:1432
        35 055345   000100 100405                    MLR     fill='000'O
        35 055346   014017 000040 xsym               ADSC9   O1COM+6159,A             cn=0,n=32
        35 055347   000000 000040                    ADSC9   0,,PR0                   cn=0,n=32

  45111 35 055350   000024 236000 36                 LDQ     20
        35 055351   000000 470400 29                 LDP0    HEAP$
        35 055352   000007 756100                    STQ     7,,PR0

  45112 35 055353   000021 471400 0                  LDP1    P$
        35 055354   100002 235100                    LDA     2,,PR1
        35 055355   055363 601000 35                 TNZ     s:45119

  45114 35 055356   000000 236000 29                 LDQ     HEAP$
        35 055357   100004 756100                    STQ     4,,PR1

  45115 35 055360   000021 471400 0                  LDP1    P$
        35 055361   100001 756100                    STQ     1,,PR1

  45116 35 055362   055370 710000 35                 TRA     s:45122

  45119 35 055363   100001 473500                    LDP3    1,,PR1
        35 055364   000000 236000 29                 LDQ     HEAP$
        35 055365   300007 756100                    STQ     7,,PR3

  45120 35 055366   000021 471400 0                  LDP1    P$
        35 055367   100001 756100                    STQ     1,,PR1

  45122 35 055370   000021 471400 0                  LDP1    P$
        35 055371   100002 054100                    AOS     2,,PR1

     8122    45127
     8123    45128                 %ADD_LX_ITEM_TO_LIST_TAIL (@LIST$ = "ADDR(TEMP_LX_NODE)",
     8124    45129                                            @FROM$ = P$);

  45131 35 055372   000024 236000 36                 LDQ     20
        35 055373   000021 471400 0                  LDP1    P$
        35 055374   100007 756100                    STQ     7,,PR1
PL6.E3A0      #001=Z8EM$SEMANTICS_DATA_DIV File=Z8EM.:Z8A6TSI                    SAT 08/09/97 12:08 Page:1433

  45132 35 055375   000002 235000 30                 LDA     TEMP_LX_NODE+2
        35 055376   055403 601000 35                 TNZ     s:45139

  45134 35 055377   000021 236000 0                  LDQ     P$
        35 055400   000004 756000 30                 STQ     TEMP_LX_NODE+4

  45135 35 055401   000001 756000 30                 STQ     TEMP_LX_NODE+1

  45136 35 055402   055410 710000 35                 TRA     s:45142

  45139 35 055403   000021 236000 0                  LDQ     P$
        35 055404   000001 471400 30                 LDP1    TEMP_LX_NODE+1
        35 055405   100007 756100                    STQ     7,,PR1

  45140 35 055406   000021 236000 0                  LDQ     P$
        35 055407   000001 756000 30                 STQ     TEMP_LX_NODE+1

  45142 35 055410   000002 054000 30                 AOS     TEMP_LX_NODE+2

     8125    45145
     8126    45146                 %NEW_COPY_LX_ITEM (@FROM$ = "ADDR(TEMP_LX_NODE)",
     8127    45147                                    @TO$     = P$);

  45152 35 055411   001117 630400 36                 EPPR0   591
        35 055412   000025 631400 36                 EPPR1   21
        35 055413   000000 701000 xent               TSX1    Z8ED$NEW_HEAP
        35 055414   000000 011000                    NOP     0

  45155 35 055415   000021 470400 0                  LDP0    P$
        35 055416   000100 100400                    MLR     fill='000'O
        35 055417   000000 000040 30                 ADSC9   TEMP_LX_NODE             cn=0,n=32
        35 055420   000000 000040                    ADSC9   0,,PR0                   cn=0,n=32

  45156 35 055421   000024 236000 36                 LDQ     20
        35 055422   000021 470400 0                  LDP0    P$
        35 055423   000007 756100                    STQ     7,,PR0
PL6.E3A0      #001=Z8EM$SEMANTICS_DATA_DIV File=Z8EM.:Z8A6TSI                    SAT 08/09/97 12:08 Page:1434

     8128    45159
     8129    45160    2            P$ -> LX_LIST.LINK = ADDR(TEMP_LX_NODE) -> LX_LIST.LINK;

  45160 35 055424   000007 236000 30                 LDQ     TEMP_LX_NODE+7
        35 055425   000021 470400 0                  LDP0    P$
        35 055426   000007 756100                    STQ     7,,PR0

     8130    45161
     8131    45162                 %ADD_LX_ITEM_TO_LIST_TAIL (@LIST$ = O1COM.BLOCK$,
     8132    45163                                            @FROM$ = P$);

  45165 35 055427   000024 236000 36                 LDQ     20
        35 055430   000021 470400 0                  LDP0    P$
        35 055431   000007 756100                    STQ     7,,PR0

  45166 35 055432   000060 470400 xsym               LDP0    O1COM+48
        35 055433   000002 235100                    LDA     2,,PR0
        35 055434   055443 601000 35                 TNZ     s:45173

  45168 35 055435   000021 236000 0                  LDQ     P$
        35 055436   000004 756100                    STQ     4,,PR0

  45169 35 055437   000021 236000 0                  LDQ     P$
        35 055440   000060 470400 xsym               LDP0    O1COM+48
        35 055441   000001 756100                    STQ     1,,PR0

  45170 35 055442   055451 710000 35                 TRA     s:45176

  45173 35 055443   000001 471500                    LDP1    1,,PR0
        35 055444   000021 236000 0                  LDQ     P$
        35 055445   100007 756100                    STQ     7,,PR1

  45174 35 055446   000021 236000 0                  LDQ     P$
        35 055447   000060 470400 xsym               LDP0    O1COM+48
        35 055450   000001 756100                    STQ     1,,PR0

PL6.E3A0      #001=Z8EM$SEMANTICS_DATA_DIV File=Z8EM.:Z8A6TSI                    SAT 08/09/97 12:08 Page:1435
  45176 35 055451   000060 470400 xsym               LDP0    O1COM+48
        35 055452   000002 054100                    AOS     2,,PR0

  45177 35 055453   056641 710000 35                 TRA     s:45674

     8133    45179
     8134    45180        %EJECT;
PL6.E3A0      #001=Z8EM$SEMANTICS_DATA_DIV File=Z8EM.:Z8A6TSI                    SAT 08/09/97 12:08 Page:1436
     8135    45181        /*
     8136    45182                               Switch names
     8137    45183        */
     8138    45184
     8139    45185    2      CASE (%ACT_TWO_ITEM_LIST);

     8140    45186
     8141    45187             %INIT_LX_LIST (@POINTER = "ADDR(TEMP_LX_NODE)");

  45189 35 055454   000002 220003                    LDX0    2,DU
        35 055455   000000 740000 30                 STX0    TEMP_LX_NODE

  45190 35 055456   000000 221003                    LDX1    0,DU
        35 055457   000000 441000 30                 SXL1    TEMP_LX_NODE

  45191 35 055460   000024 236000 36                 LDQ     20
        35 055461   000001 756000 30                 STQ     TEMP_LX_NODE+1

  45192 35 055462   000004 756000 30                 STQ     TEMP_LX_NODE+4

  45193 35 055463   000007 756000 30                 STQ     TEMP_LX_NODE+7

  45194 35 055464   000002 450000 30                 STZ     TEMP_LX_NODE+2

     8142    45197
     8143    45198             %ADD_LX_STK_TO_LIST_HEAD (@LIST$ = "ADDR(TEMP_LX_NODE)",
     8144    45199                                       @FROM  = O1COM.LX_TOP - 3);

  45206 35 055465   000670 630400 36                 EPPR0   440
        35 055466   000025 631400 36                 EPPR1   21
        35 055467   000000 701000 xent               TSX1    Z8ED$NEW_HEAP
        35 055470   000000 011000                    NOP     0

  45209 35 055471   000151 235000 xsym               LDA     O1COM+105
        35 055472   000005 735000                    ALS     5
        35 055473   000000 470400 29                 LDP0    HEAP$
        35 055474   000100 100405                    MLR     fill='000'O
PL6.E3A0      #001=Z8EM$SEMANTICS_DATA_DIV File=Z8EM.:Z8A6TSI                    SAT 08/09/97 12:08 Page:1437
        35 055475   013767 000040 xsym               ADSC9   O1COM+6135,A             cn=0,n=32
        35 055476   000000 000040                    ADSC9   0,,PR0                   cn=0,n=32

  45215 35 055477   000004 236000 30                 LDQ     TEMP_LX_NODE+4
        35 055500   000000 470400 29                 LDP0    HEAP$
        35 055501   000007 756100                    STQ     7,,PR0

  45216 35 055502   000000 236000 29                 LDQ     HEAP$
        35 055503   000004 756000 30                 STQ     TEMP_LX_NODE+4

  45217 35 055504   000002 235000 30                 LDA     TEMP_LX_NODE+2
        35 055505   055507 601000 35                 TNZ     s:45219

  45218 35 055506   000001 756000 30                 STQ     TEMP_LX_NODE+1

  45219 35 055507   000002 054000 30                 AOS     TEMP_LX_NODE+2

     8145    45224
     8146    45225             %ADD_LX_STK_TO_LIST_TAIL (@LIST$ = "ADDR(TEMP_LX_NODE)",
     8147    45226                                       @FROM  = O1COM.LX_TOP);

  45233 35 055510   000670 630400 36                 EPPR0   440
        35 055511   000025 631400 36                 EPPR1   21
        35 055512   000000 701000 xent               TSX1    Z8ED$NEW_HEAP
        35 055513   000000 011000                    NOP     0

  45236 35 055514   000151 235000 xsym               LDA     O1COM+105
        35 055515   000005 735000                    ALS     5
        35 055516   000000 470400 29                 LDP0    HEAP$
        35 055517   000100 100405                    MLR     fill='000'O
        35 055520   014017 000040 xsym               ADSC9   O1COM+6159,A             cn=0,n=32
        35 055521   000000 000040                    ADSC9   0,,PR0                   cn=0,n=32

  45242 35 055522   000024 236000 36                 LDQ     20
        35 055523   000000 470400 29                 LDP0    HEAP$
        35 055524   000007 756100                    STQ     7,,PR0

PL6.E3A0      #001=Z8EM$SEMANTICS_DATA_DIV File=Z8EM.:Z8A6TSI                    SAT 08/09/97 12:08 Page:1438
  45243 35 055525   000002 235000 30                 LDA     TEMP_LX_NODE+2
        35 055526   055533 601000 35                 TNZ     s:45250

  45245 35 055527   000000 236000 29                 LDQ     HEAP$
        35 055530   000004 756000 30                 STQ     TEMP_LX_NODE+4

  45246 35 055531   000001 756000 30                 STQ     TEMP_LX_NODE+1

  45247 35 055532   055537 710000 35                 TRA     s:45253

  45250 35 055533   000000 236000 29                 LDQ     HEAP$
        35 055534   000001 471400 30                 LDP1    TEMP_LX_NODE+1
        35 055535   100007 756100                    STQ     7,,PR1

  45251 35 055536   000001 756000 30                 STQ     TEMP_LX_NODE+1

  45253 35 055537   000002 054000 30                 AOS     TEMP_LX_NODE+2

     8148    45258
     8149    45259             %PROPAGATE_TEMP_LX_NODE;

  45261 35 055540   000134 235000 xsym               LDA     O1COM+92
        35 055541   000001 735000                    ALS     1
        35 055542   000000 236005 xsym               LDQ     DD_PRODR,AL
        35 055543   777777 376007                    ANQ     -1,DL
        35 055544   001012 756000 0                  STQ     PROC$+2
        35 055545   000151 236000 xsym               LDQ     O1COM+105
        35 055546   001012 136000 0                  SBLQ    PROC$+2
        35 055547   000005 736000                    QLS     5
        35 055550   000006 100400                    MLR     fill='000'O
        35 055551   000000 000040 30                 ADSC9   TEMP_LX_NODE             cn=0,n=32
        35 055552   014027 000040 xsym               ADSC9   O1COM+6167,Q             cn=0,n=32

  45262 35 055553   056641 710000 35                 TRA     s:45674

     8150    45264
     8151    45265
PL6.E3A0      #001=Z8EM$SEMANTICS_DATA_DIV File=Z8EM.:Z8A6TSI                    SAT 08/09/97 12:08 Page:1439
     8152    45266    2      CASE (%ACT_NEW_LX_LIST_OF_TWO_LX_STK);

     8153    45267
     8154    45268             %INIT_LX_LIST (@POINTER = "ADDR(TEMP_LX_NODE)");

  45270 35 055554   000002 220003                    LDX0    2,DU
        35 055555   000000 740000 30                 STX0    TEMP_LX_NODE

  45271 35 055556   000000 221003                    LDX1    0,DU
        35 055557   000000 441000 30                 SXL1    TEMP_LX_NODE

  45272 35 055560   000024 236000 36                 LDQ     20
        35 055561   000001 756000 30                 STQ     TEMP_LX_NODE+1

  45273 35 055562   000004 756000 30                 STQ     TEMP_LX_NODE+4

  45274 35 055563   000007 756000 30                 STQ     TEMP_LX_NODE+7

  45275 35 055564   000002 450000 30                 STZ     TEMP_LX_NODE+2

     8155    45278
     8156    45279             %ADD_LX_STK_TO_LIST_HEAD (@LIST$ = "ADDR(TEMP_LX_NODE)",
     8157    45280                                       @FROM  = O1COM.LX_TOP - 1);

  45287 35 055565   000670 630400 36                 EPPR0   440
        35 055566   000025 631400 36                 EPPR1   21
        35 055567   000000 701000 xent               TSX1    Z8ED$NEW_HEAP
        35 055570   000000 011000                    NOP     0

  45290 35 055571   000151 235000 xsym               LDA     O1COM+105
        35 055572   000005 735000                    ALS     5
        35 055573   000000 470400 29                 LDP0    HEAP$
        35 055574   000100 100405                    MLR     fill='000'O
        35 055575   014007 000040 xsym               ADSC9   O1COM+6151,A             cn=0,n=32
        35 055576   000000 000040                    ADSC9   0,,PR0                   cn=0,n=32

  45296 35 055577   000004 236000 30                 LDQ     TEMP_LX_NODE+4
PL6.E3A0      #001=Z8EM$SEMANTICS_DATA_DIV File=Z8EM.:Z8A6TSI                    SAT 08/09/97 12:08 Page:1440
        35 055600   000000 470400 29                 LDP0    HEAP$
        35 055601   000007 756100                    STQ     7,,PR0

  45297 35 055602   000000 236000 29                 LDQ     HEAP$
        35 055603   000004 756000 30                 STQ     TEMP_LX_NODE+4

  45298 35 055604   000002 235000 30                 LDA     TEMP_LX_NODE+2
        35 055605   055607 601000 35                 TNZ     s:45300

  45299 35 055606   000001 756000 30                 STQ     TEMP_LX_NODE+1

  45300 35 055607   000002 054000 30                 AOS     TEMP_LX_NODE+2

     8158    45305
     8159    45306             %ADD_LX_STK_TO_LIST_TAIL (@LIST$ = "ADDR(TEMP_LX_NODE)",
     8160    45307                                       @FROM  = O1COM.LX_TOP);

  45314 35 055610   000670 630400 36                 EPPR0   440
        35 055611   000025 631400 36                 EPPR1   21
        35 055612   000000 701000 xent               TSX1    Z8ED$NEW_HEAP
        35 055613   000000 011000                    NOP     0

  45317 35 055614   000151 235000 xsym               LDA     O1COM+105
        35 055615   000005 735000                    ALS     5
        35 055616   000000 470400 29                 LDP0    HEAP$
        35 055617   000100 100405                    MLR     fill='000'O
        35 055620   014017 000040 xsym               ADSC9   O1COM+6159,A             cn=0,n=32
        35 055621   000000 000040                    ADSC9   0,,PR0                   cn=0,n=32

  45323 35 055622   000024 236000 36                 LDQ     20
        35 055623   000000 470400 29                 LDP0    HEAP$
        35 055624   000007 756100                    STQ     7,,PR0

  45324 35 055625   000002 235000 30                 LDA     TEMP_LX_NODE+2
        35 055626   055633 601000 35                 TNZ     s:45331

  45326 35 055627   000000 236000 29                 LDQ     HEAP$
PL6.E3A0      #001=Z8EM$SEMANTICS_DATA_DIV File=Z8EM.:Z8A6TSI                    SAT 08/09/97 12:08 Page:1441
        35 055630   000004 756000 30                 STQ     TEMP_LX_NODE+4

  45327 35 055631   000001 756000 30                 STQ     TEMP_LX_NODE+1

  45328 35 055632   055637 710000 35                 TRA     s:45334

  45331 35 055633   000000 236000 29                 LDQ     HEAP$
        35 055634   000001 471400 30                 LDP1    TEMP_LX_NODE+1
        35 055635   100007 756100                    STQ     7,,PR1

  45332 35 055636   000001 756000 30                 STQ     TEMP_LX_NODE+1

  45334 35 055637   000002 054000 30                 AOS     TEMP_LX_NODE+2

     8161    45339
     8162    45340             %PROPAGATE_TEMP_LX_NODE;

  45342 35 055640   000134 235000 xsym               LDA     O1COM+92
        35 055641   000001 735000                    ALS     1
        35 055642   000000 236005 xsym               LDQ     DD_PRODR,AL
        35 055643   777777 376007                    ANQ     -1,DL
        35 055644   001012 756000 0                  STQ     PROC$+2
        35 055645   000151 236000 xsym               LDQ     O1COM+105
        35 055646   001012 136000 0                  SBLQ    PROC$+2
        35 055647   000005 736000                    QLS     5
        35 055650   000006 100400                    MLR     fill='000'O
        35 055651   000000 000040 30                 ADSC9   TEMP_LX_NODE             cn=0,n=32
        35 055652   014027 000040 xsym               ADSC9   O1COM+6167,Q             cn=0,n=32

  45343 35 055653   056641 710000 35                 TRA     s:45674

     8163    45345
     8164    45346
     8165    45347    2      CASE (%ACT_SWITCH_ON_OFF);

     8166    45348
     8167    45349    2        CALL SWITCH_NAME ( ADDR(O1COM.LX_STK(O1COM.LX_TOP - 1)),
PL6.E3A0      #001=Z8EM$SEMANTICS_DATA_DIV File=Z8EM.:Z8A6TSI                    SAT 08/09/97 12:08 Page:1442

  45349 35 055654   000151 236000 xsym               LDQ     O1COM+105
        35 055655   000025 736000                    QLS     21
        35 055656   000640 036000 36                 ADLQ    416
        35 055657   001262 756000 0                  STQ     PROC$+170
        35 055660   000024 236000 36                 LDQ     20
        35 055661   001263 756000 0                  STQ     PROC$+171
        35 055662   000151 236000 xsym               LDQ     O1COM+105
        35 055663   000025 736000                    QLS     21
        35 055664   000631 036000 36                 ADLQ    409
        35 055665   001264 756000 0                  STQ     PROC$+172
        35 055666   001264 630400 0                  EPPR0   PROC$+172
        35 055667   000730 450400 0                  STP0    @MNEMONIC$+1
        35 055670   001263 631400 0                  EPPR1   PROC$+171
        35 055671   000727 451400 0                  STP1    @SWITCH#$+1
        35 055672   001262 633400 0                  EPPR3   PROC$+170
        35 055673   000726 453400 0                  STP3    @TERM$+2
        35 055674   031252 701000 35                 TSX1    SWITCH_NAME
        35 055675   000000 011000                    NOP     0
        35 055676   056641 710000 35                 TRA     s:45674

     8168    45350    2                           ADDR(NIL),
     8169    45351    2                           ADDR(O1COM.LX_STK(O1COM.LX_TOP)));
     8170    45352
     8171    45353
     8172    45354    2      CASE (%ACT_SWITCH_NAME);

     8173    45355
     8174    45356    2        CALL SWITCH_NAME ( ADDR(O1COM.LX_STK(O1COM.LX_TOP - 2)),

  45356 35 055677   000151 236000 xsym               LDQ     O1COM+105
        35 055700   000025 736000                    QLS     21
        35 055701   000236 036000 36                 ADLQ    158
        35 055702   001265 756000 0                  STQ     PROC$+173
        35 055703   000151 236000 xsym               LDQ     O1COM+105
        35 055704   000025 736000                    QLS     21
        35 055705   000631 036000 36                 ADLQ    409
PL6.E3A0      #001=Z8EM$SEMANTICS_DATA_DIV File=Z8EM.:Z8A6TSI                    SAT 08/09/97 12:08 Page:1443
        35 055706   001266 756000 0                  STQ     PROC$+174
        35 055707   000024 236000 36                 LDQ     20
        35 055710   001267 756000 0                  STQ     PROC$+175
        35 055711   001267 630400 0                  EPPR0   PROC$+175
        35 055712   000730 450400 0                  STP0    @MNEMONIC$+1
        35 055713   001266 631400 0                  EPPR1   PROC$+174
        35 055714   000727 451400 0                  STP1    @SWITCH#$+1
        35 055715   001265 633400 0                  EPPR3   PROC$+173
        35 055716   000726 453400 0                  STP3    @TERM$+2
        35 055717   031252 701000 35                 TSX1    SWITCH_NAME
        35 055720   000000 011000                    NOP     0
        35 055721   056641 710000 35                 TRA     s:45674

     8175    45357    2                           ADDR(O1COM.LX_STK(O1COM.LX_TOP)),
     8176    45358    2                           ADDR(NIL));
     8177    45359
     8178    45360
     8179    45361    2      CASE (%ACT_SWITCH_AND_ON_OFF);

     8180    45362
     8181    45363    2        CALL SWITCH_NAME ( ADDR(O1COM.LX_STK(O1COM.LX_TOP - 3)),

  45363 35 055722   000151 236000 xsym               LDQ     O1COM+105
        35 055723   000025 736000                    QLS     21
        35 055724   000241 036000 36                 ADLQ    161
        35 055725   001270 756000 0                  STQ     PROC$+176
        35 055726   000151 236000 xsym               LDQ     O1COM+105
        35 055727   000025 736000                    QLS     21
        35 055730   000640 036000 36                 ADLQ    416
        35 055731   001271 756000 0                  STQ     PROC$+177
        35 055732   000151 236000 xsym               LDQ     O1COM+105
        35 055733   000025 736000                    QLS     21
        35 055734   000631 036000 36                 ADLQ    409
        35 055735   001272 756000 0                  STQ     PROC$+178
        35 055736   001272 630400 0                  EPPR0   PROC$+178
        35 055737   000730 450400 0                  STP0    @MNEMONIC$+1
        35 055740   001271 631400 0                  EPPR1   PROC$+177
PL6.E3A0      #001=Z8EM$SEMANTICS_DATA_DIV File=Z8EM.:Z8A6TSI                    SAT 08/09/97 12:08 Page:1444
        35 055741   000727 451400 0                  STP1    @SWITCH#$+1
        35 055742   001270 633400 0                  EPPR3   PROC$+176
        35 055743   000726 453400 0                  STP3    @TERM$+2
        35 055744   031252 701000 35                 TSX1    SWITCH_NAME
        35 055745   000000 011000                    NOP     0
        35 055746   056641 710000 35                 TRA     s:45674

     8182    45364    2                           ADDR(O1COM.LX_STK(O1COM.LX_TOP - 1)),
     8183    45365    2                           ADDR(O1COM.LX_STK(O1COM.LX_TOP)));
     8184    45366
     8185    45367
     8186    45368        /*
     8187    45369           Mnemonic names
     8188    45370        */
     8189    45371    2     CASE(%ACT_BASIC_MNEMONIC_ASSIGN);

     8190    45372
     8191    45373    2          CALL MNEMONIC_ASSIGN (O1COM.LX_STK.SYMBOL (O1COM.LX_TOP - 2),

  45373 35 055747   000151 236000 xsym               LDQ     O1COM+105
        35 055750   000025 736000                    QLS     21
        35 055751   000631 036000 36                 ADLQ    409
        35 055752   001273 756000 0                  STQ     PROC$+179
        35 055753   001273 630400 0                  EPPR0   PROC$+179
        35 055754   000366 450400 0                  STP0    @MNEMONIC_SYMBOL+1
        35 055755   000151 236000 xsym               LDQ     O1COM+105
        35 055756   000025 736000                    QLS     21
        35 055757   001121 036000 36                 ADLQ    593
        35 055760   000365 756000 0                  STQ     END_VALUE+2
        35 055761   012540 701000 35                 TSX1    MNEMONIC_ASSIGN
        35 055762   000000 011000                    NOP     0
        35 055763   056641 710000 35                 TRA     s:45674

     8192    45374    2                                ADDR(O1COM.LX_STK (O1COM.LX_TOP)));
     8193    45375
     8194    45376    2     CASE(%ACT_ALL_ALPHA_CONST);

PL6.E3A0      #001=Z8EM$SEMANTICS_DATA_DIV File=Z8EM.:Z8A6TSI                    SAT 08/09/97 12:08 Page:1445
     8195    45377
     8196    45378    2          O1COM.LX_STK.B.ALL(O1COM.LX_TOP) = TRUE;

  45378 35 055764   000151 236000 xsym               LDQ     O1COM+105
        35 055765   000003 736000                    QLS     3
        35 055766   000000 620006                    EAX0    0,QL
        35 055767   040000 236007                    LDQ     16384,DL
        35 055770   014017 256010 xsym               ORSQ    O1COM+6159,X0

     8197    45379               %PROPAGATE(@FROM=O1COM.LX_TOP);

  45381 35 055771   000134 235000 xsym               LDA     O1COM+92
        35 055772   000001 735000                    ALS     1
        35 055773   000000 236005 xsym               LDQ     DD_PRODR,AL
        35 055774   777777 376007                    ANQ     -1,DL
        35 055775   001012 756000 0                  STQ     PROC$+2
        35 055776   000151 236000 xsym               LDQ     O1COM+105
        35 055777   001012 136000 0                  SBLQ    PROC$+2
        35 056000   000151 235000 xsym               LDA     O1COM+105
        35 056001   000005 735000                    ALS     5
        35 056002   000005 736000                    QLS     5
        35 056003   000006 100405                    MLR     fill='000'O
        35 056004   014017 000040 xsym               ADSC9   O1COM+6159,A             cn=0,n=32
        35 056005   014027 000040 xsym               ADSC9   O1COM+6167,Q             cn=0,n=32

  45382 35 056006   056641 710000 35                 TRA     s:45674

     8198    45384
     8199    45385    2     CASE(%ACT_PROP_TOP_MINUS_1);

     8200    45386
     8201    45387               %PROPAGATE (@FROM = "O1COM.LX_TOP - 1");

  45389 35 056007   000134 236000 xsym               LDQ     O1COM+92
        35 056010   000001 736000                    QLS     1
        35 056011   000000 236006 xsym               LDQ     DD_PRODR,QL
        35 056012   777777 376007                    ANQ     -1,DL
PL6.E3A0      #001=Z8EM$SEMANTICS_DATA_DIV File=Z8EM.:Z8A6TSI                    SAT 08/09/97 12:08 Page:1446
        35 056013   001012 756000 0                  STQ     PROC$+2
        35 056014   000151 236000 xsym               LDQ     O1COM+105
        35 056015   001012 136000 0                  SBLQ    PROC$+2
        35 056016   000151 235000 xsym               LDA     O1COM+105
        35 056017   000005 735000                    ALS     5
        35 056020   000005 736000                    QLS     5
        35 056021   000006 100405                    MLR     fill='000'O
        35 056022   014007 000040 xsym               ADSC9   O1COM+6151,A             cn=0,n=32
        35 056023   014027 000040 xsym               ADSC9   O1COM+6167,Q             cn=0,n=32

  45390 35 056024   056641 710000 35                 TRA     s:45674

     8202    45392
     8203    45393    2     CASE(%ACT_PROP_PICTURE);

     8204    45394
     8205    45395    2          IF COMCOM.OB.FIPS.LEVEL >= %INT_LEV AND

  45395 35 056025   000036 720000 xsym               LXL0    COMCOM+30
        35 056026   000002 100003                    CMPX0   2,DU
        35 056027   056052 604000 35                 TMI     s:45403
        35 056030   000151 236000 xsym               LDQ     O1COM+105
        35 056031   000003 736000                    QLS     3
        35 056032   014017 236006 xsym               LDQ     O1COM+6159,QL
        35 056033   004000 316007                    CANQ    2048,DL
        35 056034   056052 600000 35                 TZE     s:45403

     8206    45396    2              O1COM.LX_STK.B.HIGH_LEV(O1COM.LX_TOP) THEN
     8207    45397    2            CALL Z8AE$ERROR (%E$LEVEL_CHECK,

  45397 35 056035   000151 236000 xsym               LDQ     O1COM+105
        35 056036   000025 736000                    QLS     21
        35 056037   000544 036000 36                 ADLQ    356
        35 056040   001014 756000 0                  STQ     PROC$+4
        35 056041   000151 236000 xsym               LDQ     O1COM+105
        35 056042   000025 736000                    QLS     21
        35 056043   000545 036000 36                 ADLQ    357
PL6.E3A0      #001=Z8EM$SEMANTICS_DATA_DIV File=Z8EM.:Z8A6TSI                    SAT 08/09/97 12:08 Page:1447
        35 056044   000004 235000 36                 LDA     4
        35 056045   001012 757000 0                  STAQ    PROC$+2
        35 056046   001012 630400 0                  EPPR0   PROC$+2
        35 056047   000000 631400 36                 EPPR1   0
        35 056050   000000 701000 xent               TSX1    Z8AE$ERROR
        35 056051   000000 011000                    NOP     0

     8208    45398    2                             O1COM.LX_STK.LINE(O1COM.LX_TOP - 2),
     8209    45399    2                             O1COM.LX_STK.COLUMN(O1COM.LX_TOP - 2));
     8210    45400
     8211    45401               %PROPAGATE(@FROM=O1COM.LX_TOP);

  45403 35 056052   000134 235000 xsym               LDA     O1COM+92
        35 056053   000001 735000                    ALS     1
        35 056054   000000 236005 xsym               LDQ     DD_PRODR,AL
        35 056055   777777 376007                    ANQ     -1,DL
        35 056056   001012 756000 0                  STQ     PROC$+2
        35 056057   000151 236000 xsym               LDQ     O1COM+105
        35 056060   001012 136000 0                  SBLQ    PROC$+2
        35 056061   000151 235000 xsym               LDA     O1COM+105
        35 056062   000005 735000                    ALS     5
        35 056063   000005 736000                    QLS     5
        35 056064   000006 100405                    MLR     fill='000'O
        35 056065   014017 000040 xsym               ADSC9   O1COM+6159,A             cn=0,n=32
        35 056066   014027 000040 xsym               ADSC9   O1COM+6167,Q             cn=0,n=32

  45404 35 056067   056641 710000 35                 TRA     s:45674

     8212    45406
     8213    45407
     8214    45408    2     CASE(%ACT_PROP_LX_TOP);

     8215    45409
     8216    45410               %PROPAGATE(@FROM=O1COM.LX_TOP);

  45412 35 056070   000134 236000 xsym               LDQ     O1COM+92
        35 056071   000001 736000                    QLS     1
PL6.E3A0      #001=Z8EM$SEMANTICS_DATA_DIV File=Z8EM.:Z8A6TSI                    SAT 08/09/97 12:08 Page:1448
        35 056072   000000 236006 xsym               LDQ     DD_PRODR,QL
        35 056073   777777 376007                    ANQ     -1,DL
        35 056074   001012 756000 0                  STQ     PROC$+2
        35 056075   000151 236000 xsym               LDQ     O1COM+105
        35 056076   001012 136000 0                  SBLQ    PROC$+2
        35 056077   000151 235000 xsym               LDA     O1COM+105
        35 056100   000005 735000                    ALS     5
        35 056101   000005 736000                    QLS     5
        35 056102   000006 100405                    MLR     fill='000'O
        35 056103   014017 000040 xsym               ADSC9   O1COM+6159,A             cn=0,n=32
        35 056104   014027 000040 xsym               ADSC9   O1COM+6167,Q             cn=0,n=32

  45413 35 056105   056641 710000 35                 TRA     s:45674

     8217    45415
     8218    45416    2     CASE(%ACT_PROP_LX_TOP_PROP_ERR);

     8219    45417
     8220    45418               %PROP_LX_TOP_PROP_ERR;

  45420 35 056106   000134 236000 xsym               LDQ     O1COM+92
        35 056107   000001 736000                    QLS     1
        35 056110   000000 236006 xsym               LDQ     DD_PRODR,QL
        35 056111   777777 376007                    ANQ     -1,DL
        35 056112   001012 756000 0                  STQ     PROC$+2
        35 056113   000151 236000 xsym               LDQ     O1COM+105
        35 056114   001012 136000 0                  SBLQ    PROC$+2
        35 056115   000001 036007                    ADLQ    1,DL
        35 056116   000017 756000 0                  STQ     I
        35 056117   056132 710000 35                 TRA     s:45423+1

  45421 35 056120   000017 235000 0                  LDA     I
        35 056121   000003 735000                    ALS     3
        35 056122   014017 236005 xsym               LDQ     O1COM+6159,AL
        35 056123   400000 316007                    CANQ    -131072,DL
        35 056124   056131 600000 35                 TZE     s:45423

PL6.E3A0      #001=Z8EM$SEMANTICS_DATA_DIV File=Z8EM.:Z8A6TSI                    SAT 08/09/97 12:08 Page:1449
  45422 35 056125   000151 235000 xsym               LDA     O1COM+105
        35 056126   000003 735000                    ALS     3
        35 056127   400000 236007                    LDQ     -131072,DL
        35 056130   014017 256005 xsym               ORSQ    O1COM+6159,AL

  45423 35 056131   000017 054000 0                  AOS     I
        35 056132   000017 236000 0                  LDQ     I
        35 056133   000151 116000 xsym               CMPQ    O1COM+105
        35 056134   056120 604000 35                 TMI     s:45421

  45426 35 056135   000134 235000 xsym               LDA     O1COM+92
        35 056136   000001 735000                    ALS     1
        35 056137   000000 236005 xsym               LDQ     DD_PRODR,AL
        35 056140   777777 376007                    ANQ     -1,DL
        35 056141   001012 756000 0                  STQ     PROC$+2
        35 056142   000151 236000 xsym               LDQ     O1COM+105
        35 056143   001012 136000 0                  SBLQ    PROC$+2
        35 056144   000151 235000 xsym               LDA     O1COM+105
        35 056145   000005 735000                    ALS     5
        35 056146   000005 736000                    QLS     5
        35 056147   000006 100405                    MLR     fill='000'O
        35 056150   014017 000040 xsym               ADSC9   O1COM+6159,A             cn=0,n=32
        35 056151   014027 000040 xsym               ADSC9   O1COM+6167,Q             cn=0,n=32

  45429 35 056152   056641 710000 35                 TRA     s:45674

     8221    45431
     8222    45432
     8223    45433        /*****************************************************************
     8224    45434        *                                                                *
     8225    45435        *                      COMMON ACTIONS                            *
     8226    45436        *                                                                *
     8227    45437        *****************************************************************/
     8228    45438        /*
     8229    45439                               Names actions
     8230    45440        */
     8231    45441
PL6.E3A0      #001=Z8EM$SEMANTICS_DATA_DIV File=Z8EM.:Z8A6TSI                    SAT 08/09/97 12:08 Page:1450
     8232    45442    2     CASE(%ACT_ADD_LX_STK_TO_LIST_TAIL);

     8233    45443
     8234    45444            /* Add LX_STK(LX_TOP) to tail of list at LX_STK(LX_TOP - 1) */
     8235    45445               %ADD_LX_STK_TO_LIST_TAIL (@LIST$ = "ADDR(O1COM.LX_STK(O1COM.LX_TOP - 1))",
     8236    45446                                         @FROM  = O1COM.LX_TOP);

  45453 35 056153   000670 630400 36                 EPPR0   440
        35 056154   000025 631400 36                 EPPR1   21
        35 056155   000000 701000 xent               TSX1    Z8ED$NEW_HEAP
        35 056156   000000 011000                    NOP     0

  45456 35 056157   000151 235000 xsym               LDA     O1COM+105
        35 056160   000005 735000                    ALS     5
        35 056161   000000 470400 29                 LDP0    HEAP$
        35 056162   000100 100405                    MLR     fill='000'O
        35 056163   014017 000040 xsym               ADSC9   O1COM+6159,A             cn=0,n=32
        35 056164   000000 000040                    ADSC9   0,,PR0                   cn=0,n=32

  45462 35 056165   000024 236000 36                 LDQ     20
        35 056166   000000 470400 29                 LDP0    HEAP$
        35 056167   000007 756100                    STQ     7,,PR0

  45463 35 056170   000151 235000 xsym               LDA     O1COM+105
        35 056171   000003 735000                    ALS     3
        35 056172   014011 235005 xsym               LDA     O1COM+6153,AL
        35 056173   056204 601000 35                 TNZ     s:45470

  45465 35 056174   000151 235000 xsym               LDA     O1COM+105
        35 056175   000003 735000                    ALS     3
        35 056176   000000 236000 29                 LDQ     HEAP$
        35 056177   014013 756005 xsym               STQ     O1COM+6155,AL

  45466 35 056200   000151 235000 xsym               LDA     O1COM+105
        35 056201   000003 735000                    ALS     3
        35 056202   014010 756005 xsym               STQ     O1COM+6152,AL

PL6.E3A0      #001=Z8EM$SEMANTICS_DATA_DIV File=Z8EM.:Z8A6TSI                    SAT 08/09/97 12:08 Page:1451
  45467 35 056203   056214 710000 35                 TRA     s:45473

  45470 35 056204   000151 235000 xsym               LDA     O1COM+105
        35 056205   000003 735000                    ALS     3
        35 056206   014010 471405 xsym               LDP1    O1COM+6152,AL
        35 056207   000000 236000 29                 LDQ     HEAP$
        35 056210   100007 756100                    STQ     7,,PR1

  45471 35 056211   000151 235000 xsym               LDA     O1COM+105
        35 056212   000003 735000                    ALS     3
        35 056213   014010 756005 xsym               STQ     O1COM+6152,AL

  45473 35 056214   000151 235000 xsym               LDA     O1COM+105
        35 056215   000003 735000                    ALS     3
        35 056216   014011 054005 xsym               AOS     O1COM+6153,AL

     8237    45478    2          IF O1COM.LX_STK.B.ERROR(O1COM.LX_TOP) THEN

  45478 35 056217   000151 235000 xsym               LDA     O1COM+105
        35 056220   000003 735000                    ALS     3
        35 056221   014017 236005 xsym               LDQ     O1COM+6159,AL
        35 056222   400000 316007                    CANQ    -131072,DL
        35 056223   056641 600000 35                 TZE     s:45674

     8238    45479    2            O1COM.LX_STK.B.ERROR(O1COM.LX_TOP - 1) = TRUE;

  45479 35 056224   400000 236007                    LDQ     -131072,DL
        35 056225   014007 256005 xsym               ORSQ    O1COM+6151,AL
        35 056226   056641 710000 35                 TRA     s:45674

     8239    45480
     8240    45481    2     CASE(%ACT_ADD_LX_STK_TO_LIST_HEAD);

     8241    45482
     8242    45483        /* Add O1COM.LX_STK (O1COM.LX_TOP - 1) to head of list at O1COM.LX_STK (O1COM.LX_TO
             45483        P) */
     8243    45484               %ADD_LX_STK_TO_LIST_HEAD (@LIST$ = "ADDR(O1COM.LX_STK (O1COM.LX_TOP))",
PL6.E3A0      #001=Z8EM$SEMANTICS_DATA_DIV File=Z8EM.:Z8A6TSI                    SAT 08/09/97 12:08 Page:1452
     8244    45485                                         @FROM  = O1COM.LX_TOP - 1);

  45492 35 056227   000670 630400 36                 EPPR0   440
        35 056230   000025 631400 36                 EPPR1   21
        35 056231   000000 701000 xent               TSX1    Z8ED$NEW_HEAP
        35 056232   000000 011000                    NOP     0

  45495 35 056233   000151 235000 xsym               LDA     O1COM+105
        35 056234   000005 735000                    ALS     5
        35 056235   000000 470400 29                 LDP0    HEAP$
        35 056236   000100 100405                    MLR     fill='000'O
        35 056237   014007 000040 xsym               ADSC9   O1COM+6151,A             cn=0,n=32
        35 056240   000000 000040                    ADSC9   0,,PR0                   cn=0,n=32

  45501 35 056241   000151 235000 xsym               LDA     O1COM+105
        35 056242   000003 735000                    ALS     3
        35 056243   014023 236005 xsym               LDQ     O1COM+6163,AL
        35 056244   000000 470400 29                 LDP0    HEAP$
        35 056245   000007 756100                    STQ     7,,PR0

  45502 35 056246   000151 235000 xsym               LDA     O1COM+105
        35 056247   000003 735000                    ALS     3
        35 056250   000000 236000 29                 LDQ     HEAP$
        35 056251   014023 756005 xsym               STQ     O1COM+6163,AL

  45503 35 056252   000151 235000 xsym               LDA     O1COM+105
        35 056253   000003 735000                    ALS     3
        35 056254   014021 235005 xsym               LDA     O1COM+6161,AL
        35 056255   056261 601000 35                 TNZ     s:45505

  45504 35 056256   000151 235000 xsym               LDA     O1COM+105
        35 056257   000003 735000                    ALS     3
        35 056260   014020 756005 xsym               STQ     O1COM+6160,AL

  45505 35 056261   000151 235000 xsym               LDA     O1COM+105
        35 056262   000003 735000                    ALS     3
        35 056263   014021 054005 xsym               AOS     O1COM+6161,AL
PL6.E3A0      #001=Z8EM$SEMANTICS_DATA_DIV File=Z8EM.:Z8A6TSI                    SAT 08/09/97 12:08 Page:1453

     8245    45510
     8246    45511               %PROPAGATE (@FROM=O1COM.LX_TOP);

  45513 35 056264   000134 235000 xsym               LDA     O1COM+92
        35 056265   000001 735000                    ALS     1
        35 056266   000000 236005 xsym               LDQ     DD_PRODR,AL
        35 056267   777777 376007                    ANQ     -1,DL
        35 056270   001012 756000 0                  STQ     PROC$+2
        35 056271   000151 236000 xsym               LDQ     O1COM+105
        35 056272   001012 136000 0                  SBLQ    PROC$+2
        35 056273   000151 235000 xsym               LDA     O1COM+105
        35 056274   000005 735000                    ALS     5
        35 056275   000005 736000                    QLS     5
        35 056276   000006 100405                    MLR     fill='000'O
        35 056277   014017 000040 xsym               ADSC9   O1COM+6159,A             cn=0,n=32
        35 056300   014027 000040 xsym               ADSC9   O1COM+6167,Q             cn=0,n=32

  45514 35 056301   056641 710000 35                 TRA     s:45674

     8247    45516
     8248    45517    2     CASE(%ACT_CREATE_LIST_OF_ONE_LX_STK);

     8249    45518
     8250    45519            /* Create a linked list of 1 element at LX_TOP */
     8251    45520               %INIT_LX_LIST (@POINTER = "ADDR(TEMP_LX_NODE)");

  45522 35 056302   000002 220003                    LDX0    2,DU
        35 056303   000000 740000 30                 STX0    TEMP_LX_NODE

  45523 35 056304   000000 221003                    LDX1    0,DU
        35 056305   000000 441000 30                 SXL1    TEMP_LX_NODE

  45524 35 056306   000024 236000 36                 LDQ     20
        35 056307   000001 756000 30                 STQ     TEMP_LX_NODE+1

  45525 35 056310   000004 756000 30                 STQ     TEMP_LX_NODE+4
PL6.E3A0      #001=Z8EM$SEMANTICS_DATA_DIV File=Z8EM.:Z8A6TSI                    SAT 08/09/97 12:08 Page:1454

  45526 35 056311   000007 756000 30                 STQ     TEMP_LX_NODE+7

  45527 35 056312   000002 450000 30                 STZ     TEMP_LX_NODE+2

     8252    45530               %ADD_LX_STK_TO_LIST_HEAD (@LIST$ = "ADDR(TEMP_LX_NODE)",
     8253    45531                                         @FROM  = O1COM.LX_TOP);

  45538 35 056313   000670 630400 36                 EPPR0   440
        35 056314   000025 631400 36                 EPPR1   21
        35 056315   000000 701000 xent               TSX1    Z8ED$NEW_HEAP
        35 056316   000000 011000                    NOP     0

  45541 35 056317   000151 235000 xsym               LDA     O1COM+105
        35 056320   000005 735000                    ALS     5
        35 056321   000000 470400 29                 LDP0    HEAP$
        35 056322   000100 100405                    MLR     fill='000'O
        35 056323   014017 000040 xsym               ADSC9   O1COM+6159,A             cn=0,n=32
        35 056324   000000 000040                    ADSC9   0,,PR0                   cn=0,n=32

  45547 35 056325   000004 236000 30                 LDQ     TEMP_LX_NODE+4
        35 056326   000000 470400 29                 LDP0    HEAP$
        35 056327   000007 756100                    STQ     7,,PR0

  45548 35 056330   000000 236000 29                 LDQ     HEAP$
        35 056331   000004 756000 30                 STQ     TEMP_LX_NODE+4

  45549 35 056332   000002 235000 30                 LDA     TEMP_LX_NODE+2
        35 056333   056335 601000 35                 TNZ     s:45551

  45550 35 056334   000001 756000 30                 STQ     TEMP_LX_NODE+1

  45551 35 056335   000002 054000 30                 AOS     TEMP_LX_NODE+2

     8254    45556               %PROPAGATE_TEMP_LX_NODE;

  45558 35 056336   000134 235000 xsym               LDA     O1COM+92
PL6.E3A0      #001=Z8EM$SEMANTICS_DATA_DIV File=Z8EM.:Z8A6TSI                    SAT 08/09/97 12:08 Page:1455
        35 056337   000001 735000                    ALS     1
        35 056340   000000 236005 xsym               LDQ     DD_PRODR,AL
        35 056341   777777 376007                    ANQ     -1,DL
        35 056342   001012 756000 0                  STQ     PROC$+2
        35 056343   000151 236000 xsym               LDQ     O1COM+105
        35 056344   001012 136000 0                  SBLQ    PROC$+2
        35 056345   000005 736000                    QLS     5
        35 056346   000006 100400                    MLR     fill='000'O
        35 056347   000000 000040 30                 ADSC9   TEMP_LX_NODE             cn=0,n=32
        35 056350   014027 000040 xsym               ADSC9   O1COM+6167,Q             cn=0,n=32

  45559 35 056351   056641 710000 35                 TRA     s:45674

     8255    45561
     8256    45562
     8257    45563
     8258    45564    2     CASE(%ACT_PASS_EMPTY);

     8259    45565
     8260    45566            /* Pass empty up tree by changing terminal symbol to EMPTY */
     8261    45567    2          O1COM.LX_STK.SYMBOL(O1COM.LX_TOP) = %EMPTY;

  45567 35 056352   000151 236000 xsym               LDQ     O1COM+105
        35 056353   000003 736000                    QLS     3
        35 056354   014022 450006 xsym               STZ     O1COM+6162,QL
        35 056355   056641 710000 35                 TRA     s:45674

     8262    45568
     8263    45569    2     CASE(%ACT_OBSOLETE);

     8264    45570
     8265    45571    2          IF COMCOM.OB.FIPS.OBS THEN

  45571 35 056356   000036 234000 xsym               SZN     COMCOM+30
        35 056357   056641 605000 35                 TPL     s:45674

     8266    45572    2            CALL Z8AE$ERROR (%E$OBSOLETE,
PL6.E3A0      #001=Z8EM$SEMANTICS_DATA_DIV File=Z8EM.:Z8A6TSI                    SAT 08/09/97 12:08 Page:1456

  45572 35 056360   000151 236000 xsym               LDQ     O1COM+105
        35 056361   000025 736000                    QLS     21
        35 056362   000662 036000 36                 ADLQ    434
        35 056363   001014 756000 0                  STQ     PROC$+4
        35 056364   000151 236000 xsym               LDQ     O1COM+105
        35 056365   000025 736000                    QLS     21
        35 056366   000663 036000 36                 ADLQ    435
        35 056367   000543 235000 36                 LDA     355
        35 056370   001012 757000 0                  STAQ    PROC$+2
        35 056371   001012 630400 0                  EPPR0   PROC$+2
        35 056372   000000 631400 36                 EPPR1   0
        35 056373   000000 701000 xent               TSX1    Z8AE$ERROR
        35 056374   000000 011000                    NOP     0
        35 056375   056641 710000 35                 TRA     s:45674

     8267    45573    2                             O1COM.LX_STK.LINE(O1COM.LX_TOP),
     8268    45574    2                             O1COM.LX_STK.COLUMN(O1COM.LX_TOP));
     8269    45575
     8270    45576    2     CASE(%ACT_HIGH_LEV);         /* GLOBAL, EXTERNAL, COMMON, and INITIAL clauses */

     8271    45577
     8272    45578    2          IF COMCOM.OB.FIPS.LEVEL >= %INT_LEV THEN /* Flag high-level feature */

  45578 35 056376   000036 720000 xsym               LXL0    COMCOM+30
        35 056377   000002 100003                    CMPX0   2,DU
        35 056400   056641 604000 35                 TMI     s:45674

     8273    45579    3            DO;

     8274    45580    3              IF O1COM.LX_STK.SYMBOL(O1COM.LX_TOP-1) = %RSV_WRD_IS

  45580 35 056401   000151 236000 xsym               LDQ     O1COM+105
        35 056402   000003 736000                    QLS     3
        35 056403   014012 235006 xsym               LDA     O1COM+6154,QL
        35 056404   000402 115007                    CMPA    258,DL
        35 056405   056412 601000 35                 TNZ     s:45582
PL6.E3A0      #001=Z8EM$SEMANTICS_DATA_DIV File=Z8EM.:Z8A6TSI                    SAT 08/09/97 12:08 Page:1457

     8275    45581    3                THEN I = O1COM.LX_TOP - 1;

  45581 35 056406   000151 235000 xsym               LDA     O1COM+105
        35 056407   000001 135007                    SBLA    1,DL
        35 056410   000017 755000 0                  STA     I
        35 056411   056414 710000 35                 TRA     s:45583

     8276    45582    3                ELSE I = O1COM.LX_TOP;

  45582 35 056412   000151 235000 xsym               LDA     O1COM+105
        35 056413   000017 755000 0                  STA     I

     8277    45583    3              CALL Z8AE$ERROR (%E$LEVEL_CHECK,

  45583 35 056414   000017 236000 0                  LDQ     I
        35 056415   000025 736000                    QLS     21
        35 056416   000662 036000 36                 ADLQ    434
        35 056417   001014 756000 0                  STQ     PROC$+4
        35 056420   000017 236000 0                  LDQ     I
        35 056421   000025 736000                    QLS     21
        35 056422   000663 036000 36                 ADLQ    435
        35 056423   000004 235000 36                 LDA     4
        35 056424   001012 757000 0                  STAQ    PROC$+2
        35 056425   001012 630400 0                  EPPR0   PROC$+2
        35 056426   000000 631400 36                 EPPR1   0
        35 056427   000000 701000 xent               TSX1    Z8AE$ERROR
        35 056430   000000 011000                    NOP     0

     8278    45584    3                               O1COM.LX_STK.LINE(I),
     8279    45585    3                               O1COM.LX_STK.COLUMN(I));
     8280    45586    3            END;

  45586 35 056431   056641 710000 35                 TRA     s:45674

     8281    45587
     8282    45588    2     CASE(%ACT_HIGH_LEV_1);            /* RENAMES clause */
PL6.E3A0      #001=Z8EM$SEMANTICS_DATA_DIV File=Z8EM.:Z8A6TSI                    SAT 08/09/97 12:08 Page:1458

     8283    45589
     8284    45590    2          IF COMCOM.OB.FIPS.LEVEL >= %INT_LEV THEN /* Flag high-level feature */

  45590 35 056432   000036 720000 xsym               LXL0    COMCOM+30
        35 056433   000002 100003                    CMPX0   2,DU
        35 056434   056641 604000 35                 TMI     s:45674

     8285    45591    2            CALL Z8AE$ERROR (%E$LEVEL_CHECK,

  45591 35 056435   000151 236000 xsym               LDQ     O1COM+105
        35 056436   000025 736000                    QLS     21
        35 056437   000662 036000 36                 ADLQ    434
        35 056440   001014 756000 0                  STQ     PROC$+4
        35 056441   000151 236000 xsym               LDQ     O1COM+105
        35 056442   000025 736000                    QLS     21
        35 056443   000663 036000 36                 ADLQ    435
        35 056444   000004 235000 36                 LDA     4
        35 056445   001012 757000 0                  STAQ    PROC$+2
        35 056446   001012 630400 0                  EPPR0   PROC$+2
        35 056447   000000 631400 36                 EPPR1   0
        35 056450   000000 701000 xent               TSX1    Z8AE$ERROR
        35 056451   000000 011000                    NOP     0
        35 056452   056641 710000 35                 TRA     s:45674

     8286    45592    2                             O1COM.LX_STK.LINE(O1COM.LX_TOP),
     8287    45593    2                             O1COM.LX_STK.COLUMN(O1COM.LX_TOP));
     8288    45594
     8289    45595    2     CASE(%ACT_HIGH_LEV_2);            /* REDEFINES clause */

     8290    45596
     8291    45597    2          IF COMCOM.OB.FIPS.LEVEL >= %INT_LEV THEN

  45597 35 056453   000036 720000 xsym               LXL0    COMCOM+30
        35 056454   000002 100003                    CMPX0   2,DU
        35 056455   056641 604000 35                 TMI     s:45674

PL6.E3A0      #001=Z8EM$SEMANTICS_DATA_DIV File=Z8EM.:Z8A6TSI                    SAT 08/09/97 12:08 Page:1459
     8292    45598    3            DO;

     8293    45599    3              CALL CHARBIN (J, ADDR(O1COM.LX_STK(O1COM.LX_TOP-3)) -> LX_LARGE.
             45599                       LARGE_ITEM$ ->

  45599 35 056456   000151 236000 xsym               LDQ     O1COM+105
        35 056457   000003 736000                    QLS     3
        35 056460   013770 470406 xsym               LDP0    O1COM+6136,QL
        35 056461   000001 471500                    LDP1    1,,PR0
        35 056462   100002 473500                    LDP3    2,,PR1
        35 056463   300004 221100                    LDX1    4,,PR3
        35 056464   000000 305540                    DTB
        35 056465   300004 430011                    NDSC9   4,,PR3                   cn=2,s=nosgn,sf=0,n=*X1
        35 056466   000020 000004 0                  NDSC9   J                        cn=0,s=lsgnf,sf=0,n=4

     8294    45600    3                  LX_REC_DECL.P.LEVEL_NO$ -> LX_TERMINAL.DNT$ -> DNT.TEXT.NAME);
     8295    45601    3              I = 1;

  45601 35 056467   000001 235007                    LDA     1,DL
        35 056470   000017 755000 0                  STA     I

     8296    45602    3   REDEF_OCCURS_LEV:
     8297    45603    4              DO WHILE HIER_STK.LEVEL# (I) < J;

  45603 35 056471   000017 236000 0     REDEF_OCCUR* LDQ     I
        35 056472   000005 402007                    MPY     5,DL
        35 056473   000002 236006 xsym               LDQ     HIER_STK+2,QL
        35 056474   000022 736000                    QLS     18
        35 056475   000033 732000                    QRS     27
        35 056476   000020 116000 0                  CMPQ    J
        35 056477   056641 605000 35                 TPL     s:45674

     8298    45604    4                IF HIER_STK.DIMS$ (I) ~= ADDR (NIL) OR

  45604 35 056500   000017 236000 0                  LDQ     I
        35 056501   000005 402007                    MPY     5,DL
        35 056502   000001 236006 xsym               LDQ     HIER_STK+1,QL
PL6.E3A0      #001=Z8EM$SEMANTICS_DATA_DIV File=Z8EM.:Z8A6TSI                    SAT 08/09/97 12:08 Page:1460
        35 056503   000024 116000 36                 CMPQ    20
        35 056504   056513 601000 35                 TNZ     s:45607
        35 056505   000017 236000 0                  LDQ     I
        35 056506   000005 402007                    MPY     5,DL
        35 056507   000000 470406 xsym               LDP0    HIER_STK,QL
        35 056510   000004 471500                    LDP1    4,,PR0
        35 056511   100003 430100                    FSZN    3,,PR1
        35 056512   056531 605000 35                 TPL     s:45612

     8299    45605    4                    HIER_STK.QLT$ (I) -> QLT.ST$ -> VARIABLE.B.REDEF_SUB THEN
     8300    45606    5                  DO; /* Flag high-level feature */

     8301    45607    5                    CALL Z8AE$ERROR (%E$LEVEL_CHECK,

  45607 35 056513   000151 236000 xsym               LDQ     O1COM+105
        35 056514   000025 736000                    QLS     21
        35 056515   000662 036000 36                 ADLQ    434
        35 056516   001014 756000 0                  STQ     PROC$+4
        35 056517   000151 236000 xsym               LDQ     O1COM+105
        35 056520   000025 736000                    QLS     21
        35 056521   000663 036000 36                 ADLQ    435
        35 056522   000004 235000 36                 LDA     4
        35 056523   001012 757000 0                  STAQ    PROC$+2
        35 056524   001012 630400 0                  EPPR0   PROC$+2
        35 056525   000000 631400 36                 EPPR1   0
        35 056526   000000 701000 xent               TSX1    Z8AE$ERROR
        35 056527   000000 011000                    NOP     0

     8302    45608    5                                     O1COM.LX_STK.LINE(O1COM.LX_TOP),
     8303    45609    5                                     O1COM.LX_STK.COLUMN(O1COM.LX_TOP));
     8304    45610    5                    EXIT REDEF_OCCURS_LEV;

  45610 35 056530   056541 710000 35                 TRA     s:45614

     8305    45611    5                  END;
     8306    45612    4                I = I + 1;

PL6.E3A0      #001=Z8EM$SEMANTICS_DATA_DIV File=Z8EM.:Z8A6TSI                    SAT 08/09/97 12:08 Page:1461
  45612 35 056531   000017 054000 0                  AOS     I

     8307    45613    4              END; /* REDEF_OCCURS_LEV */

  45613 35 056532   000017 236000 0                  LDQ     I
        35 056533   000005 402007                    MPY     5,DL
        35 056534   000002 236006 xsym               LDQ     HIER_STK+2,QL
        35 056535   000022 736000                    QLS     18
        35 056536   000033 732000                    QRS     27
        35 056537   000020 116000 0                  CMPQ    J
        35 056540   056500 604000 35                 TMI     s:45604

     8308    45614    3            END;

  45614 35 056541   056641 710000 35                 TRA     s:45674

     8309    45615
     8310    45616    2     CASE(%ACT_SET_COMPILED_DATE);

     8311    45617
     8312    45618    2          IF COMCOM.DATE_COMPILED_LINE = 0 THEN

  45618 35 056542   000433 236000 xsym               LDQ     COMCOM+283
        35 056543   056641 601000 35                 TNZ     s:45674

     8313    45619    2            COMCOM.DATE_COMPILED_LINE = ADDR(O1COM.LX_STK(O1COM.LX_TOP - 1)) ->
             45619                     LX_TERMINAL.LINE;

  45619 35 056544   000151 235000 xsym               LDA     O1COM+105
        35 056545   000003 735000                    ALS     3
        35 056546   014014 235005 xsym               LDA     O1COM+6156,AL
        35 056547   000433 755000 xsym               STA     COMCOM+283
        35 056550   056641 710000 35                 TRA     s:45674

     8314    45620
     8315    45621    2     CASE(%ACT_QUAL_ID);

PL6.E3A0      #001=Z8EM$SEMANTICS_DATA_DIV File=Z8EM.:Z8A6TSI                    SAT 08/09/97 12:08 Page:1462
     8316    45622
     8317    45623            /* Add data_name to <qualified_id> list */
     8318    45624               %ADD_LX_STK_TO_LIST_TAIL (@LIST$ = "ADDR(O1COM.LX_STK(O1COM.LX_TOP - 2))",
     8319    45625                                         @FROM = O1COM.LX_TOP);

  45632 35 056551   000670 630400 36                 EPPR0   440
        35 056552   000025 631400 36                 EPPR1   21
        35 056553   000000 701000 xent               TSX1    Z8ED$NEW_HEAP
        35 056554   000000 011000                    NOP     0

  45635 35 056555   000151 235000 xsym               LDA     O1COM+105
        35 056556   000005 735000                    ALS     5
        35 056557   000000 470400 29                 LDP0    HEAP$
        35 056560   000100 100405                    MLR     fill='000'O
        35 056561   014017 000040 xsym               ADSC9   O1COM+6159,A             cn=0,n=32
        35 056562   000000 000040                    ADSC9   0,,PR0                   cn=0,n=32

  45641 35 056563   000024 236000 36                 LDQ     20
        35 056564   000000 470400 29                 LDP0    HEAP$
        35 056565   000007 756100                    STQ     7,,PR0

  45642 35 056566   000151 235000 xsym               LDA     O1COM+105
        35 056567   000003 735000                    ALS     3
        35 056570   014001 235005 xsym               LDA     O1COM+6145,AL
        35 056571   056602 601000 35                 TNZ     s:45649

  45644 35 056572   000151 235000 xsym               LDA     O1COM+105
        35 056573   000003 735000                    ALS     3
        35 056574   000000 236000 29                 LDQ     HEAP$
        35 056575   014003 756005 xsym               STQ     O1COM+6147,AL

  45645 35 056576   000151 235000 xsym               LDA     O1COM+105
        35 056577   000003 735000                    ALS     3
        35 056600   014000 756005 xsym               STQ     O1COM+6144,AL

  45646 35 056601   056612 710000 35                 TRA     s:45652

PL6.E3A0      #001=Z8EM$SEMANTICS_DATA_DIV File=Z8EM.:Z8A6TSI                    SAT 08/09/97 12:08 Page:1463
  45649 35 056602   000151 235000 xsym               LDA     O1COM+105
        35 056603   000003 735000                    ALS     3
        35 056604   014000 471405 xsym               LDP1    O1COM+6144,AL
        35 056605   000000 236000 29                 LDQ     HEAP$
        35 056606   100007 756100                    STQ     7,,PR1

  45650 35 056607   000151 235000 xsym               LDA     O1COM+105
        35 056610   000003 735000                    ALS     3
        35 056611   014000 756005 xsym               STQ     O1COM+6144,AL

  45652 35 056612   000151 235000 xsym               LDA     O1COM+105
        35 056613   000003 735000                    ALS     3
        35 056614   014001 054005 xsym               AOS     O1COM+6145,AL

     8320    45657    2          IF O1COM.LX_STK.B.ERROR(O1COM.LX_TOP)

  45657 35 056615   000151 235000 xsym               LDA     O1COM+105
        35 056616   000003 735000                    ALS     3
        35 056617   014017 236005 xsym               LDQ     O1COM+6159,AL
        35 056620   400000 316007                    CANQ    -131072,DL
        35 056621   056625 601000 35                 TNZ     s:45659
        35 056622   014007 236005 xsym               LDQ     O1COM+6151,AL
        35 056623   400000 316007                    CANQ    -131072,DL
        35 056624   056641 600000 35                 TZE     s:45674

     8321    45658    2              OR O1COM.LX_STK.B.ERROR (O1COM.LX_TOP - 1) THEN
     8322    45659    2            O1COM.LX_STK.B.ERROR (O1COM.LX_TOP - 1) = TRUE;

  45659 35 056625   400000 236007                    LDQ     -131072,DL
        35 056626   014007 256005 xsym               ORSQ    O1COM+6151,AL
        35 056627   056641 710000 35                 TRA     s:45674

     8323    45660
     8324    45661
     8325    45662    2     CASE(%ACT_NOT_IMPLEMENTED);

     8326    45663    2          CALL Z8AE$ERROR (%E$NOT_IMPLEMENTED);
PL6.E3A0      #001=Z8EM$SEMANTICS_DATA_DIV File=Z8EM.:Z8A6TSI                    SAT 08/09/97 12:08 Page:1464

  45663 35 056630   001123 630400 36                 EPPR0   595
        35 056631   000036 631400 36                 EPPR1   30
        35 056632   000000 701000 xent               TSX1    Z8AE$ERROR
        35 056633   000000 011000                    NOP     0
        35 056634   056641 710000 35                 TRA     s:45674

     8327    45664
     8328    45665
     8329    45666    2     CASE(ELSE);

     8330    45667
     8331    45668    2          CALL Z8AE$ERROR (%E$ACTION_NOT_PRESENT);

  45668 35 056635   001125 630400 36                 EPPR0   597
        35 056636   000036 631400 36                 EPPR1   30
        35 056637   000000 701000 xent               TSX1    Z8AE$ERROR
        35 056640   000000 011000                    NOP     0

     8332    45669
     8333    45670
     8334    45671    2   END;  /* DO CASE */

     8335    45672
     8336    45673
     8337    45674    1   END Z8EM$SEMANTICS_DATA_DIV;

  45674 35 056641   000000 221200 0                  LDX1  ! 0
        35 056642   000001 702211                    TSX2  ! 1,X1

PL6.E3A0      #001=Z8EM$SEMANTICS_DATA_DIV File=Z8EM.:Z8A6TSI                    SAT 08/09/97 12:08 Page:1465
--  Include file information  --

   Z8E_P_STATS.:Z8A6TOU  is referenced.
   Z8E_DD_MACRO.:Z8A6TOU  is referenced.
   Z8E_P_OLAY.:Z8A6TOU  cannot be made into a system file and is referenced.
   Z8A_P_STATE.:Z8A6TOU  cannot be made into a system file and is referenced.
   Z8E_DDPDA_S.:Z8A6TOU  is referenced.
   Z8E_DD_SUBS.:Z8A6TOU  is referenced.
   Z8A_MKCN.:Z8A6TOU  cannot be made into a system file and is referenced.
   Z8E_TABLES.:Z8A6TOU  cannot be made into a system file and is referenced.
   Z8E_TRANSLAT.:Z8A6TOU  cannot be made into a system file and is referenced.
   Z8E_ABSSYN.:Z8A6TOU  cannot be made into a system file and is referenced.
   Z8E_HEAP.:Z8A6TOU  cannot be made into a system file and is referenced.
   Z8D_PIC_PARM.:Z8A6TOU  is referenced.
   Z8E_NEW_ILL.:Z8A6TOU  is referenced.
   Z8E_MACROS.:Z8A6TOU  cannot be made into a system file and is referenced.
   Z8E_WINDOW.:Z8A6TOU  is referenced.
   Z8E_O1COM.:Z8A6TOU  cannot be made into a system file and is referenced.
   Z8A_LEX_SYMB.:Z8A6TOU  cannot be made into a system file and is referenced.
   Z8E_STACKS.:Z8A6TOU  cannot be made into a system file and is referenced.
   Z8E_DML.:Z8A6TOU  is referenced.
   Z8A_XREF.:Z8A6TOU  cannot be made into a system file and is referenced.
   Z8A_ERR_NUMS.:Z8A6TOU  is referenced.
   Z8A_SRCH.:Z8A6TOU  cannot be made into a system file and is referenced.
   Z8A_ETT.:Z8A6TOU  cannot be made into a system file and is referenced.
   Z8A_DNT.:Z8A6TOU  cannot be made into a system file and is referenced.
   Z8A_ST.:Z8A6TOU  cannot be made into a system file and is referenced.
   Z8A_LIBRARY.:Z8A6TOU  cannot be made into a system file and is referenced.
   Z8A_TYPES.:Z8A6TOU  is referenced.
   Z8A_QLT.:Z8A6TOU  cannot be made into a system file and is referenced.
   Z8A_IO_EQUS.:Z8A6TOU  is referenced.
   Z8A_LTS.:Z8A6TOU  cannot be made into a system file and is referenced.
   Z8A_ILL.:Z8A6TOU  cannot be made into a system file and is referenced.
   Z8A_ILS.:Z8A6TOU  cannot be made into a system file and is referenced.
   Z8A_COMCOM.:Z8A6TOU  cannot be made into a system file and is referenced.
   X8A_COM_MACS.:X8A6TOU  is referenced.
   Z8A_NAMES.:Z8A6TOU  is referenced.
PL6.E3A0      #001=Z8EM$SEMANTICS_DATA_DIV File=Z8EM.:Z8A6TSI                    SAT 08/09/97 12:08 Page:1466
   Z8A_SUPP_MAC.:Z8A6TOU  is referenced.
   Z8A_DEFC.:Z8A6TOU  cannot be made into a system file and is referenced.
      No diagnostics issued in procedure Z8EM$SEMANTICS_DATA_DIV.
PL6.E3A0      #001=Z8EM$SEMANTICS_DATA_DIV File=Z8EM.:Z8A6TSI                    SAT 08/09/97 12:08 Page:1467

 **** Variables and constants ****

  ****  Section 000  Data  Z8EM$SEMANTICS_DATA_DIV

  ****  Scalars and arrays  ****
OctLoc.c.b A Datatyp(siz) R M Lvl/name                 OctLoc.c.b A Datatyp(siz) R M Lvl/name

   145-0-0/w PTR         r     1 @ACCESS                   33-0-0/w PTR         r     1 @ACCESS$
    34-0-0/w PTR         r     1 @ACCESS_MODE             237-0-0/w PTR         r     1 @ALPHA$
   561-0-0/w PTR         r     1 @ALPHA$                  747-0-0/w PTR         r     1 @ALPHA$
    52-0-0/w PTR         r     1 @ALPHA_KEYWORD$           53-0-0/w PTR         r     1 @ALPHA_NAME$
   404-0-0/w PTR         r     1 @ALPHA_NAME$              45-0-0/w PTR         r     1 @ALPHA_ST$
   223-0-0/w PTR         r     1 @ALPHA_ST$               276-0-0/w PTR         r     1 @ALPHA_ST$
   540-0-0/w PTR         r     1 @ALPHA_ST$                54-0-0/w PTR         r     1 @ALPHA_TYPE$
   222-0-0/w PTR         r     1 @ALPHA_TYPE$              44-0-0/w PTR         r     1 @ALSO_LIST$
   231-0-0/w PTR         r     1 @AREA_LENGTH             232-0-0/w PTR         r     1 @AREA_ST$
   102-0-0/w PTR         r     1 @ASSIGN$                  74-0-0/w PTR         r     1 @ATTR$
    36-0-0/w PTR         r     1 @BUFFER_LENGTH           337-0-0/w PTR         r     1 @BUFFER_LENGTH
    37-0-0/w PTR         r     1 @BUFFER_ST$              132-0-0/w PTR         r     1 @C$
   765-0-0/w PTR         r     1 @CHAR$                   116-0-0/w PTR         r     1 @CLASS
   272-0-0/w PTR         r     1 @CLASS$                  503-0-0/w PTR         r     1 @CLASS$
   200-0-0/w PTR         r     1 @CODE_SET$               434-0-0/w PTR         r     1 @COM_INIT$
   245-0-0/w PTR         r     1 @CURRENCY_SIGN$          757-0-0/w PTR         r     1 @DD_CLAUSE$
   625-0-0/w PTR         r     1 @DELIM$                  617-0-0/w PTR         r     1 @DEPEND$
   631-0-0/w PTR         r     1 @DEPEND$                 236-0-0/w PTR         r     1 @DN$
   763-0-0/w PTR         r     1 @DN$                     165-0-0/w PTR         r     1 @DNT$
   230-0-0/w PTR         r     1 @DNT$$                   310-0-0/w PTR         r     1 @DNT$$
   766-0-0/w PTR         r     1 @DN_LIST$               1004-0-0/w PTR         r     1 @DUP$
   117-0-0/w PTR         r     1 @ELEMENTARY              412-0-0/w PTR         r     1 @FD$$
   140-0-0/w PTR         r     1 @FIELD$                  454-0-0/w PTR         r     1 @FIELD$
   314-0-0/w PTR         r     1 @FILE$                   316-0-0/w PTR         r     1 @FILE$
   325-0-0/w PTR         r     1 @FILE$                   411-0-0/w PTR         r     1 @FILE$
   660-0-0/w PTR         r     1 @FILE$                   703-0-0/w PTR         r     1 @FILE$
   371-0-0/w PTR         r     1 @FILE_LIST$              670-0-0/w PTR         r     1 @FILE_LIST$
   716-0-0/w PTR         r     1 @FILE_NAME$              464-0-0/w PTR         r     1 @INDEX_LIST$
   235-0-0/w PTR         r     1 @INT                     761-0-0/w PTR         r     1 @INT
   150-0-0/w PTR         r     1 @INT$                    616-0-0/w PTR         r     1 @INT$
PL6.E3A0      #001=Z8EM$SEMANTICS_DATA_DIV File=Z8EM.:Z8A6TSI                    SAT 08/09/97 12:08 Page:1468
   630-0-0/w PTR         r     1 @INT$                    657-0-0/w PTR         r     1 @INT$
   762-0-0/w PTR         r     1 @INT$                    104-0-0/w PTR         r     1 @INT_LIST$
   122-0-0/w PTR         r     1 @ITEM$                   137-0-0/w PTR         r     1 @ITEM$
   144-0-0/w PTR         r     1 @ITEM$                   336-0-0/w PTR         r     1 @ITEM$
   453-0-0/w PTR         r     1 @ITEM$                   355-0-0/w PTR         r     1 @ITEM_ST$$
   775-0-0/w PTR         r     1 @ITEM_ST$$                67-0-0/w PTR         r     1 @KEY$
   313-0-0/w PTR         r     1 @KEYWORD$                615-0-0/w PTR         r     1 @KEYWORD$
   627-0-0/w PTR         r     1 @KEYWORD$                637-0-0/w PTR         r     1 @KEYWORD$
   745-0-0/w PTR         r     1 @KEY_WORD$               350-0-0/w PTR         r     1 @LARGE$
   121-0-0/w PTR         r     1 @LENGTH                  114-0-0/w PTR         r     1 @LEVEL#
   233-0-0/w PTR         r     1 @LEVEL#                  347-0-0/w PTR         r     1 @LEVEL_NO$
   646-0-0/w PTR         r     1 @LINE$                   504-0-0/w PTR         r     1 @LIST$
   560-0-0/w PTR         r     1 @LIST$                   265-0-0/w PTR         r     1 @LIT$
   774-0-0/w PTR         r     1 @LITERAL$                174-0-0/w PTR         r     1 @LIT_LIST$
   354-0-0/w PTR         r     1 @LIT_THRU_LIST$          304-0-0/w PTR         r     1 @LTS$$
   344-0-0/w PTR         r     1 @LTS$$                   423-0-0/w PTR         r     1 @LTS$$
   727-0-0/w PTR         r     1 @MNEMONIC$               366-0-0/w PTR         r     1 @MNEMONIC_NAME$
   736-0-0/w PTR         r     1 @MNEMONIC_ST$            365-0-0/w PTR         r     1 @MNEMONIC_SYMBOL
   133-0-0/w PTR         r     1 @NAME$                   173-0-0/w PTR         r     1 @NAME$
   221-0-0/w PTR         r     1 @NAME$                   433-0-0/w PTR         r     1 @NAME$
    46-0-0/w PTR         r     1 @NEXT_SEQ#               270-0-0/w PTR         r     1 @NEXT_SEQ#
   300-0-0/w PTR         r     1 @NEXT_SEQ#               356-0-0/w PTR         r     1 @NEXT_SEQ#
   541-0-0/w PTR         r     1 @NEXT_SEQ#               776-0-0/w PTR         r     1 @NEXT_SEQ#
   666-0-0/w PTR         r     1 @NO_AREAS$               463-0-0/w PTR         r     1 @OCCURS$
   462-0-0/w PTR         r     1 @OCCURS_INT              717-0-0/w PTR         r     1 @OPTIONAL$
   146-0-0/w PTR         r     1 @ORG                     156-0-0/w PTR         r     1 @ORG$
   321-0-0/w PTR         r     1 @ORG$                    447-0-0/w PTR         r     1 @ORG$
   322-0-0/w PTR         r     1 @ORGANIZATION            450-0-0/w PTR         r     1 @ORGANIZATION
   645-0-0/w PTR         r     1 @PAGE$                   746-0-0/w PTR         r     1 @PHRASE$
   753-0-0/w PTR         r     1 @PROC$                   120-0-0/w PTR         r     1 @QLT$$
   700-0-0/w PTR         r     1 @QUAL_LIST$              443-0-0/w PTR         r     1 @RD$$
   105-0-0/w PTR         r     1 @REC_CHAR$                76-0-0/w PTR         r     1 @REC_DD_CLAUSE$
   332-0-0/w PTR         r     1 @REPORT$                 401-0-0/w PTR         r     1 @REPORT$
   420-0-0/w PTR         r     1 @REPORT$                 430-0-0/w PTR         r     1 @REPORT$
   442-0-0/w PTR         r     1 @REPORT$                 576-0-0/w PTR         r     1 @REPORT$
   612-0-0/w PTR         r     1 @REPORT$                 311-0-0/w PTR         r     1 @RETURN#
   405-0-0/w PTR         r     1 @RETURN_ST$              141-0-0/w PTR         r     1 @RSV_WRD#
PL6.E3A0      #001=Z8EM$SEMANTICS_DATA_DIV File=Z8EM.:Z8A6TSI                    SAT 08/09/97 12:08 Page:1469
   455-0-0/w PTR         r     1 @RSWNO                    77-0-0/w PTR         r     1 @SEND_DD_CLAUSE$
   203-0-0/w PTR         r     1 @SEQ_NAME$               261-0-0/w PTR         r     1 @SIGN$
   113-0-0/w PTR         r     1 @ST$$                    266-0-0/w PTR         r     1 @ST$$
   326-0-0/w PTR         r     1 @ST$$                    333-0-0/w PTR         r     1 @ST$$
   400-0-0/w PTR         r     1 @ST$$                    417-0-0/w PTR         r     1 @ST$$
   427-0-0/w PTR         r     1 @ST$$                    465-0-0/w PTR         r     1 @ST$$
   577-0-0/w PTR         r     1 @ST$$                    730-0-0/w PTR         r     1 @STATUS$
   735-0-0/w PTR         r     1 @STATUS$                 640-0-0/w PTR         r     1 @STRING$
   726-0-0/w PTR         r     1 @SWITCH#$                253-0-0/w PTR         r     1 @TABLE$
   341-0-0/w PTR         r     1 @TABLE$                  224-0-0/w PTR         r     1 @TABLE_ETT$
   724-0-0/w PTR         r     1 @TERM$                   151-0-0/w PTR         r     1 @TERMINAL$
   161-0-0/w PTR         r     1 @TERMINAL$               163-0-0/w PTR         r     1 @TERMINAL$
   167-0-0/w PTR         r     1 @TERMINAL$               171-0-0/w PTR         r     1 @TERMINAL$
   115-0-0/w PTR         r     1 @TYPE                    671-0-0/w PTR         r     1 @UNIT$
   267-0-0/w PTR         r     1 @VALUE                   273-0-0/w PTR         r     1 @VALUE
   277-0-0/w PTR         r     1 @VALUE                    41-0-0/w PTR         r     1 @WORK_ST$
    *0-0-0/w SBIN        r     1 ACCESS                   712-0-0/w SBIN        r     1 ACCESS
    *0-0-0/w PTR         r     1 ACCESS$                   *0-0-0/w SBIN        r     1 ACCESS_MODE
    *0-0-0/w PTR         r     1 ALPHA$                    *0-0-0/w PTR         r     1 ALPHA$
    *0-0-0/w PTR         r     1 ALPHA$                   205-0-0/w PTR         r     1 ALPHABET$
    63-0-0/w PTR               1 ALPHA_DNT$               225-0-0/w PTR               1 ALPHA_DNT$
    *0-0-0/w PTR         r     1 ALPHA_KEYWORD$            *0-0-0/w PTR         r     1 ALPHA_NAME$
    *0-0-0/w PTR         r     1 ALPHA_NAME$               *0-0-0/w PTR         r     1 ALPHA_ST$
    56-0-0/w PTR         r     1 ALPHA_ST$                 *0-0-0/w PTR         r     1 ALPHA_ST$
    *0-0-0/w PTR         r     1 ALPHA_ST$                 *0-0-0/w PTR         r     1 ALPHA_ST$
   751-0-0/w PTR         r     1 ALPHA_ST$                 *0-0-0/w PTR         r     1 ALPHA_TYPE$
    *0-0-0/w PTR         r     1 ALPHA_TYPE$               *0-0-0/w PTR         r     1 ALSO_LIST$
   402-0-0/w PTR         r     1 AREA$                     *0-0-0/w SBIN        r     1 AREA_LENGTH
    *0-0-0/w PTR         r     1 AREA_ST$                 440-0-0/w PTR         r     1 ARRAY$
    *0-0-0/w PTR         r     1 ASSIGN$                  710-0-0/w PTR               1 ASSIGN$
    *0-0-0/w PTR         r     1 ATTR$                     25-0-0/b BIT         r     1 AUTHOR_PGPH_FLAG
   305-0-0/w PTR         r     1 BLOCK$$                  127-0-0/w PTR         r     1 BRO$
   425-0-0/w PTR         r     1 BRO$                     436-0-0/w PTR         r     1 BRO$
   473-0-0/w PTR         r     1 BRO$                     567-0-0/w PTR         r     1 BRO$
    *0-0-0/w SBIN        r     1 BUFFER_LENGTH             *0-0-0/w SBIN        r     1 BUFFER_LENGTH
   511-0-0/w SBIN        r     1 BUFFER_LENGTH            521-0-0/w SBIN        r     1 BUFFER_LENGTH
   531-0-0/w SBIN        r     1 BUFFER_LENGTH             *0-0-0/w PTR         r     1 BUFFER_ST$
PL6.E3A0      #001=Z8EM$SEMANTICS_DATA_DIV File=Z8EM.:Z8A6TSI                    SAT 08/09/97 12:08 Page:1470
    *0-0-0/w PTR         r     1 C$                       655-0-0/w SBIN        r     1 CASE_NO
   512-0-0/w PTR         r     1 CD_LTS$$                 522-0-0/w PTR         r     1 CD_LTS$$
   532-0-0/w PTR         r     1 CD_LTS$$                 510-0-0/w PTR         r     1 CD_ST$$
   520-0-0/w PTR         r     1 CD_ST$$                  530-0-0/w PTR         r     1 CD_ST$$
    *0-0-0/w PTR         r     1 CHAR$                    562-0-0/w PTR               1 CHAR_LIST$
    *0-0-0/w SBIN        r     1 CLASS                    175-0-0/w PTR         r     1 CLASS$
    *0-0-0/w PTR         r     1 CLASS$                    *0-0-0/w PTR         r     1 CLASS$
   345-0-0/w BIT               1 CLAUSE_ERROR              *0-0-0/w PTR         r     1 CODE_SET$
    62-0-0/w PTR               1 COLL_DNT$                226-0-0/w PTR               1 COLL_DNT$
   111-0-0/w SBIN        r     1 COLUMN                    *0-0-0/w PTR         r     1 COM_INIT$
   406-0-0/w PTR         r     1 CONST$                   126-0-0/w PTR         r     1 CONST$$
   256-0-0/w SBIN        r     1 CONST_WORD               251-0-0/c CHAR        r     1 CURRENCY_SIGN
    *0-0-0/w PTR         r     1 CURRENCY_SIGN$           740-0-0/w PTR         r     1 CURRENT_ELEMENT$
   153-0-0/w PTR         r     1 CURR_FATHER$              30-0-0/b BIT         r     1 DATCMPIL_PGPH_FLAG
    27-0-0/b BIT         r     1 DATWRIT_PGPH_FLAG         *0-0-0/w PTR         r     1 DD_CLAUSE$
   701-0-0/w PTR         r     1 DEFERED_ID$               *0-0-0/w PTR         r     1 DELIM$
    *0-0-0/w PTR         r     1 DEPEND$                   *0-0-0/w PTR         r     1 DEPEND$
   466-0-0/w PTR         r     1 DIMS$                    707-0-0/w PTR               1 DISK$
    *0-0-0/w PTR         r     1 DN$                       *0-0-0/w PTR         r     1 DN$
    *0-0-0/w PTR         r     1 DNT$                      50-0-0/w PTR         r     1 DNT$$
   123-0-0/w PTR         r     1 DNT$$                     *0-0-0/w PTR         r     1 DNT$$
   246-0-0/w PTR         r     1 DNT$$                     *0-0-0/w PTR         r     1 DNT$$
   327-0-0/w PTR         r     1 DNT$$                    352-0-0/w PTR         r     1 DNT$$
   357-0-0/w PTR         r     1 DNT$$                    642-0-0/w PTR         r     1 DNT$$
   664-0-0/w PTR         r     1 DNT$$                    771-0-0/w PTR         r     1 DNT$$
  1001-0-0/w PTR         r     1 DNT$$                    564-0-0/w PTR         r     1 DN_LIST$
    *0-0-0/w PTR         r     1 DN_LIST$                  *0-0-0/w PTR         r     1 DUP$
   741-0-0/w PTR         r     1 ELEMENT$                  *0-0-0/w BIT         r     1 ELEMENTARY
   743-0-0/w PTR         r     1 ELEMENT_QLT$             742-0-0/w PTR         r     1 ELEMENT_ST$
   363-0-0/w SBIN        r     1 END_VALUE                 42-0-0/w PTR         r     1 ENTRY_ST$
   754-0-0/w PTR         r     1 F$                       130-0-0/w PTR         r     1 FATHER$
   373-0-0/w PTR         r     1 FD$$                      *0-0-0/w PTR         r     1 FD$$
   675-0-0/w PTR         r     1 FD$$                     721-0-0/w PTR         r     1 FD$$
    *0-0-0/w PTR         r     1 FIELD$                    *0-0-0/w PTR         r     1 FIELD$
   157-0-0/w PTR         r     1 FILE$                     *0-0-0/w PTR         r     1 FILE$
    *0-0-0/w PTR         r     1 FILE$                     *0-0-0/w PTR         r     1 FILE$
    *0-0-0/w PTR         r     1 FILE$                    451-0-0/w PTR         r     1 FILE$
PL6.E3A0      #001=Z8EM$SEMANTICS_DATA_DIV File=Z8EM.:Z8A6TSI                    SAT 08/09/97 12:08 Page:1471
    *0-0-0/w PTR         r     1 FILE$                     *0-0-0/w PTR         r     1 FILE$
   713-0-0/w PTR         r     1 FILE$                    414-0-0/w PTR         r     1 FILE_DNT$
   720-0-0/w PTR               1 FILE_DNT$                 *0-0-0/w PTR         r     1 FILE_LIST$
    *0-0-0/w PTR         r     1 FILE_LIST$                *0-0-0/w PTR         r     1 FILE_NAME$
   651-0-0/w SBIN        r     1 FIRST_DETAIL             500-0-0/w PTR         r     1 FIRST_INDEX$
   653-0-0/w SBIN        r     1 FOOTING                  375-0-0/w PTR         r     1 HEAD$
   672-0-0/w PTR         r     1 HEAD$                    650-0-0/w SBIN        r     1 HEADING
   544-0-0/w SBIN        r     1 HIGH                      17-0-0/w SBIN        r     1 I
   100-0-0/w SBIN        r     1 I                        240-0-0/w SBIN        r     1 I
   342-0-0/w SBIN        r     1 I                        361-0-0/w SBIN        r     1 I
   460-0-0/w SBIN        r     1 I                        543-0-0/w SBIN        r     1 I
   572-0-0/w SBIN        r     1 I                        647-0-0/w SBIN        r     1 I
  1000-0-0/w SBIN        r     1 I                        467-0-0/w PTR         r     1 INDEX$
   474-0-0/w PTR         r     1 INDEXES$                 471-0-0/w PTR               1 INDEX_DNT$
    *0-0-0/w PTR         r     1 INDEX_LIST$              472-0-0/w PTR         r     1 INDEX_QLT$
   470-0-0/w PTR         r     1 INDEX_ST$                247-0-0/w UBIN        r     1 INDX
   415-0-0/w PTR         r     1 INFO$                     26-0-0/b BIT         r     1 INSTALL_PGPH_FLAG
    *0-0-0/w SBIN        r     1 INT                      565-0-0/w SBIN        r     1 INT
   662-0-0/w SBIN        r     1 INT                       *0-0-0/w SBIN        r     1 INT
    *0-0-0/w PTR         r     1 INT$                      *0-0-0/w PTR         r     1 INT$
    *0-0-0/w PTR         r     1 INT$                      *0-0-0/w PTR         r     1 INT$
    *0-0-0/w PTR         r     1 INT$                     106-0-0/w SBIN        r     1 INT1
   620-0-0/w SBIN        r     1 INT1                     632-0-0/w SBIN        r     1 INT1
   107-0-0/w SBIN        r     1 INT2                     621-0-0/w SBIN        r     1 INT2
   634-0-0/w SBIN        r     1 INT2                      *0-0-0/w PTR         r     1 INT_LIST$
   563-0-0/w PTR         r     1 INT_LIST$                 70-0-0/w PTR         r     1 ITEM$
    *0-0-0/w PTR         r     1 ITEM$                     *0-0-0/w PTR         r     1 ITEM$
    *0-0-0/w PTR         r     1 ITEM$                     *0-0-0/w PTR         r     1 ITEM$
   360-0-0/w PTR         r     1 ITEM$                     *0-0-0/w PTR         r     1 ITEM$
  1005-0-0/w PTR         r     1 ITEM$                     *0-0-0/w PTR         r     1 ITEM_ST$$
    *0-0-0/w PTR         r     1 ITEM_ST$$                 20-0-0/w SBIN        r     1 J
    *0-0-0/w PTR         r     1 KEY$                      *0-0-0/w PTR         r     1 KEYWORD$
    *0-0-0/w PTR         r     1 KEYWORD$                  *0-0-0/w PTR         r     1 KEYWORD$
    *0-0-0/w PTR         r     1 KEYWORD$                  72-0-0/w PTR         r     1 KEY_LIST$
    *0-0-0/w PTR         r     1 KEY_WORD$                571-0-0/w SBIN        r     1 LABEL_COUNT
    *0-0-0/w PTR         r     1 LARGE$                   545-0-0/w SBIN        r     1 LAST
   374-0-0/w PTR         r     1 LAST$                    673-0-0/w PTR         r     1 LAST$
PL6.E3A0      #001=Z8EM$SEMANTICS_DATA_DIV File=Z8EM.:Z8A6TSI                    SAT 08/09/97 12:08 Page:1472
   652-0-0/w SBIN        r     1 LAST_DETAIL              254-0-0/w PTR         r     1 LCNST$
    16-0-0/w UBIN        r     1 LEN                       *0-0-0/w SBIN        r     1 LENGTH
    *0-0-0/w SBIN        r     1 LEVEL#                    *0-0-0/w SBIN        r     1 LEVEL#
   351-0-0/w SBIN        r     1 LEVEL#                    *0-0-0/w PTR         r     1 LEVEL_NO$
   424-0-0/w PTR         r     1 LINAGE$                  110-0-0/w SBIN        r     1 LINE
   124-0-0/w SBIN        r     1 LINE#                    421-0-0/w PTR         r     1 LINE$
    *0-0-0/w PTR         r     1 LINE$                     47-0-0/w PTR         r     1 LIST$
    71-0-0/w PTR         r     1 LIST$                    372-0-0/w PTR         r     1 LIST$
    *0-0-0/w PTR         r     1 LIST$                     *0-0-0/w PTR         r     1 LIST$
   674-0-0/w PTR         r     1 LIST$                    750-0-0/w PTR         r     1 LIST$
   767-0-0/w PTR         r     1 LIST$                   1006-0-0/w PTR         r     1 LIST$
   556-0-0/w PTR         r     1 LIST$$                    *0-0-0/w PTR         r     1 LIT$
   505-0-0/w PTR         r     1 LIT$                      *0-0-0/w PTR         r     1 LITERAL$
    *0-0-0/w PTR         r     1 LIT_LIST$                 *0-0-0/w PTR         r     1 LIT_THRU_LIST$
    *0-0-0/w PTR         r     1 LTS$$                     *0-0-0/w PTR         r     1 LTS$$
   376-0-0/w PTR         r     1 LTS$$                     *0-0-0/w PTR         r     1 LTS$$
   445-0-0/w PTR         r     1 LTS$$                    641-0-0/w PTR         r     1 LTS$$
   663-0-0/w PTR         r     1 LTS$$                    676-0-0/w PTR         r     1 LTS$$
   551-0-0/w PTR         r     1 LTS_LIST$$               134-0-0/w PTR         r     1 MNEM$
   770-0-0/w PTR         r     1 MNEM$                     *0-0-0/w PTR         r     1 MNEMONIC$
   367-0-0/w PTR         r     1 MNEMONIC$$                *0-0-0/w PTR         r     1 MNEMONIC_NAME$
   732-0-0/w PTR         r     1 MNEMONIC_QLT$            737-0-0/w PTR         r     1 MNEMONIC_QLT$
   731-0-0/w PTR         r     1 MNEMONIC_ST$              *0-0-0/w PTR         r     1 MNEMONIC_ST$
    *0-0-0/w SBIN        r     1 MNEMONIC_SYMBOL            1-0-0/w STRC(324)         1 NAME
    *0-0-0/w PTR         r     1 NAME$                     *0-0-0/w PTR         r     1 NAME$
    *0-0-0/w PTR         r     1 NAME$                     *0-0-0/w PTR         r     1 NAME$
   154-0-0/w PTR         r     1 NEXT_FATHER$              *0-0-0/w UBIN        r     1 NEXT_SEQ#
    60-0-0/w UBIN        r     1 NEXT_SEQ#                 *0-0-0/w SBIN        r     1 NEXT_SEQ#
    *0-0-0/w UBIN        r     1 NEXT_SEQ#                 *0-0-0/w UBIN        r     1 NEXT_SEQ#
    *0-0-0/w UBIN        r     1 NEXT_SEQ#                 *0-0-0/w UBIN        r     1 NEXT_SEQ#
   714-0-0/w PTR         r     1 NOM$                      *0-0-0/w PTR         r     1 NO_AREAS$
   135-0-0/w UBIN        r     1 NUM                       *0-0-0/w PTR         r     1 OCCURS$
    24-0-0/w SBIN        r     1 OCCURS_COLUMN             *0-0-0/w SBIN        r     1 OCCURS_INT
   536-0-0/w SBIN        r     1 OCCURS_INT                23-0-0/w SBIN        r     1 OCCURS_LINE
    *0-0-0/w PTR         r     1 OPTIONAL$                 *0-0-0/w SBIN        r     1 ORG
   711-0-0/w SBIN        r     1 ORG                       *0-0-0/w PTR         r     1 ORG$
    *0-0-0/w PTR         r     1 ORG$                      *0-0-0/w PTR         r     1 ORG$
PL6.E3A0      #001=Z8EM$SEMANTICS_DATA_DIV File=Z8EM.:Z8A6TSI                    SAT 08/09/97 12:08 Page:1473
    *0-0-0/w SBIN        r     1 ORGANIZATION              *0-0-0/w SBIN        r     1 ORGANIZATION
    21-0-0/w PTR         r     1 P$                       152-0-0/w PTR         r     1 P$
   306-0-0/w PTR         r     1 P$                       623-0-0/w PTR         r     1 P$
   633-0-0/w PTR         r     1 P$                       755-0-0/w PTR         r     1 P$
   431-0-0/w PTR         r     1 PAGE$                     *0-0-0/w PTR         r     1 PAGE$
   654-0-0/w SBIN        r     1 PAGE_LIMIT
    12-0-0/w SBIN        r     1 PARSE_STACK_IDX_IN_CHARS
    *0-0-0/w PTR         r     1 PHRASE$                  475-0-0/w PTR         r     1 PREV_INDEXES$
   513-0-0/w PTR         r     1 PREV_QLT$                523-0-0/w PTR         r     1 PREV_QLT$
   533-0-0/w PTR         r     1 PREV_QLT$                 64-0-0/w PTR         r     1 PROC$
   207-0-0/w PTR         r     1 PROC$                    437-0-0/w PTR         r     1 PROC$
    *0-0-0/w PTR         r     1 PROC$                   1010-0-0/w PTR         r     1 PROC$
   570-0-0/w PTR         r     1 PTR_ARRAY$                *0-0-0/w PTR         r     1 QLT$$
   243-0-0/w PTR         r     1 QLT$$                    263-0-0/w PTR         r     1 QLT$$
   514-0-0/w PTR         r     1 QLT$$                    524-0-0/w PTR         r     1 QLT$$
   534-0-0/w PTR         r     1 QLT$$                    555-0-0/w PTR               1 QLT$$
   476-0-0/w PTR         r     1 QLT_CHAIN$               477-0-0/w PTR         r     1 QLT_CHAIN_START$
   554-0-0/w PTR         r     1 QLT_FATHER$$              *0-0-0/w PTR         r     1 QUAL_LIST$
    *0-0-0/w PTR         r     1 RD$$                     552-0-0/w PTR         r     1 RD$$
   600-0-0/w PTR         r     1 RD$$                      *0-0-0/w PTR         r     1 REC_CHAR$
    *0-0-0/w PTR         r     1 REC_DD_CLAUSE$            *0-0-0/w PTR         r     1 REPORT$
    *0-0-0/w PTR         r     1 REPORT$                   *0-0-0/w PTR         r     1 REPORT$
    *0-0-0/w PTR         r     1 REPORT$                   *0-0-0/w PTR         r     1 REPORT$
    *0-0-0/w PTR         r     1 REPORT$                   *0-0-0/w PTR         r     1 REPORT$
   444-0-0/w PTR         r     1 REPORT_DNT$              550-0-0/w PTR         r     1 REPORT_NAME$
    *0-0-0/w SBIN        r     1 RETURN#                   *0-0-0/w PTR         r     1 RETURN_ST$
   330-0-0/w PTR         r     1 RET_ST$                  334-0-0/w PTR         r     1 RET_ST$
    *0-0-0/w SBIN        r     1 RSV_WRD#                  *0-0-0/w SBIN        r     1 RSWNO
   257-0-0/w PTR         r     1 RTN$                      31-0-0/b BIT         r     1 SECURITY_PGPH_FLAG
    22-0-0/w SBIN        r     1 SEGMENT_LIMIT             *0-0-0/w PTR         r     1 SEND_DD_CLAUSE$
    *0-0-0/w PTR         r     1 SEQ_NAME$                 *0-0-0/w PTR         r     1 SIGN$
   435-0-0/w PTR         r     1 SON$                      *0-0-0/w PTR         r     1 ST$$
   201-0-0/w PTR         r     1 ST$$                     241-0-0/w PTR         r     1 ST$$
    *0-0-0/w PTR         r     1 ST$$                     317-0-0/w PTR         r     1 ST$$
    *0-0-0/w PTR         r     1 ST$$                      *0-0-0/w PTR         r     1 ST$$
    *0-0-0/w PTR         r     1 ST$$                      *0-0-0/w PTR         r     1 ST$$
    *0-0-0/w PTR         r     1 ST$$                      *0-0-0/w PTR         r     1 ST$$
PL6.E3A0      #001=Z8EM$SEMANTICS_DATA_DIV File=Z8EM.:Z8A6TSI                    SAT 08/09/97 12:08 Page:1474
   515-0-0/w PTR         r     1 ST$$                     525-0-0/w PTR         r     1 ST$$
   535-0-0/w PTR         r     1 ST$$                     553-0-0/w PTR         r     1 ST$$
   574-0-0/w PTR         r     1 ST$$                      *0-0-0/w PTR         r     1 ST$$
   613-0-0/w PTR         r     1 ST$$                     661-0-0/w PTR         r     1 ST$$
   704-0-0/w PTR               1 ST$$                     706-0-0/w PTR         r     1 ST$$
   722-0-0/w PTR         r     1 ST$$                     362-0-0/w SBIN        r     1 START_VALUE
    *0-0-0/w PTR         r     1 STATUS$                   *0-0-0/w PTR         r     1 STATUS$
    *0-0-0/w PTR         r     1 STRING$                  643-0-0/w SBIN        r     1 STRING_LENGTH
   733-0-0/w SBIN        r     1 SWITCH#                   *0-0-0/w PTR         r     1 SWITCH#$
    14-0-0/w PTR               1 SYMDEF$                   13-0-0/w PTR               1 SYMDEF_ST$
   242-0-0/w PTR         r     1 SYM_CHAR$                176-0-0/w PTR               1 TABLE$
    *0-0-0/w PTR         r     1 TABLE$                   301-0-0/w PTR               1 TABLE$
    *0-0-0/w PTR         r     1 TABLE$                   407-0-0/w PTR               1 TABLE$
   542-0-0/w PTR               1 TABLE$                   777-0-0/w PTR               1 TABLE$
    61-0-0/w PTR         r     1 TABLE_ETT$               206-0-0/w PTR         r     1 TABLE_ETT$
    *0-0-0/w PTR         r     1 TABLE_ETT$               302-0-0/w PTR         r     1 TABLE_START$
   546-0-0/w PTR         r     1 TABLE_START$             250-0-0/w SBIN        r     1 TABLE_VAL
   256-0-0/w STRC        r     1 TABLE_WORD               274-0-0/w PTR         r     1 TAB_START$
    65-0-0/w PTR         r     1 TDNT$                    622-0-0/w SBIN        r     1 TEMP
   635-0-0/w SBIN        r     1 TEMP                      15-0-0/w PTR         r     1 TEMP$
   204-0-0/w PTR         r     1 TEMP_ALPHA_NAME$         210-0-0/d STRC(288)   r     1 TEMP_COLLATING
   601-0-0/w STRC(288)   r     1 TEMP_TERMINAL            456-0-0/w PTR         r     1 TERM$
   573-0-0/w PTR         r     1 TERM$                     *0-0-0/w PTR         r     1 TERM$
    *0-0-0/w PTR         r     1 TERMINAL$                 *0-0-0/w PTR         r     1 TERMINAL$
    *0-0-0/w PTR         r     1 TERMINAL$                 *0-0-0/w PTR         r     1 TERMINAL$
    *0-0-0/w PTR         r     1 TERMINAL$                142-0-0/w PTR         r     1 TITEM$
   323-0-0/w PTR         r     1 TOKEN$                    57-0-0/w PTR         r     1 TRANS_TABLE$
    *0-0-0/w SBIN        r     1 TYPE                      55-0-0/w PTR         r     1 TYPE_LIST$
    *0-0-0/w PTR         r     1 UNIT$                     *0-0-0/w SBIN        r     1 VALUE
    *0-0-0/w SBIN        r     1 VALUE                     *0-0-0/w UBIN        r     1 VALUE
  1002-0-0/w UBIN        r     1 VALUE                    772-0-0/c CHAR        r     1 VFC
   413-0-0/w PTR         r     1 VFC$                      *0-0-0/w PTR         r     1 WORK_ST$
   507-0-0/w PTR         r     1 WORK_ST$$                517-0-0/w PTR         r     1 WORK_ST$$
   527-0-0/w PTR         r     1 WORK_ST$$

  ****  Section 001 LblCom SEMANTIC_ACTION

PL6.E3A0      #001=Z8EM$SEMANTICS_DATA_DIV File=Z8EM.:Z8A6TSI                    SAT 08/09/97 12:08 Page:1475
  ****  Scalars and arrays  ****
OctLoc.c.b A Datatyp(siz) R M Lvl/name                 OctLoc.c.b A Datatyp(siz) R M Lvl/name

     0-0-0/w SBIN        r     1 SEMANTIC_ACTION

  ****  Section 002 LblCom ITERATION

  ****  Scalars and arrays  ****
OctLoc.c.b A Datatyp(siz) R M Lvl/name                 OctLoc.c.b A Datatyp(siz) R M Lvl/name

     0-0-0/w SBIN        r     1 ITERATION

  ****  Section 003 LblCom ILS$

  ****  Scalars and arrays  ****
OctLoc.c.b A Datatyp(siz) R M Lvl/name                 OctLoc.c.b A Datatyp(siz) R M Lvl/name

     0-0-0/w PTR         r     1 ILS$

  ****  Section 004 LblCom ILS_

  ****  Scalars and arrays  ****
OctLoc.c.b A Datatyp(siz) R M Lvl/name                 OctLoc.c.b A Datatyp(siz) R M Lvl/name

     0-0-0/w STRC(180)         1 ILS_

  ****  Section 005 LblCom ILL$

  ****  Scalars and arrays  ****
OctLoc.c.b A Datatyp(siz) R M Lvl/name                 OctLoc.c.b A Datatyp(siz) R M Lvl/name

     0-0-0/w PTR         r     1 ILL$

  ****  Section 006 LblCom ILL_

  ****  Scalars and arrays  ****
OctLoc.c.b A Datatyp(siz) R M Lvl/name                 OctLoc.c.b A Datatyp(siz) R M Lvl/name
PL6.E3A0      #001=Z8EM$SEMANTICS_DATA_DIV File=Z8EM.:Z8A6TSI                    SAT 08/09/97 12:08 Page:1476

     0-0-0/w STRC(180)         1 ILL_

  ****  Section 007 LblCom LTS$

  ****  Scalars and arrays  ****
OctLoc.c.b A Datatyp(siz) R M Lvl/name                 OctLoc.c.b A Datatyp(siz) R M Lvl/name

     0-0-0/w PTR               1 LONG_ITEM$                 0-0-0/w PTR         r     1 LTS$

  ****  Section 008 LblCom LTS_

  ****  Scalars and arrays  ****
OctLoc.c.b A Datatyp(siz) R M Lvl/name                 OctLoc.c.b A Datatyp(siz) R M Lvl/name

     0-0-0/w STRC(180)   r     1 LTS_

  ****  Section 009 LblCom QLT$

  ****  Scalars and arrays  ****
OctLoc.c.b A Datatyp(siz) R M Lvl/name                 OctLoc.c.b A Datatyp(siz) R M Lvl/name

     0-0-0/w PTR         r     1 QLT$

  ****  Section 010 LblCom PREV_01_QLT$

  ****  Scalars and arrays  ****
OctLoc.c.b A Datatyp(siz) R M Lvl/name                 OctLoc.c.b A Datatyp(siz) R M Lvl/name

     0-0-0/w PTR               1 PREV_01_QLT$

  ****  Section 011 LblCom QLT_

  ****  Scalars and arrays  ****
OctLoc.c.b A Datatyp(siz) R M Lvl/name                 OctLoc.c.b A Datatyp(siz) R M Lvl/name

     0-0-0/w STRC(180)   r     1 QLT_
PL6.E3A0      #001=Z8EM$SEMANTICS_DATA_DIV File=Z8EM.:Z8A6TSI                    SAT 08/09/97 12:08 Page:1477

  ****  Section 012 LblCom ST$

  ****  Scalars and arrays  ****
OctLoc.c.b A Datatyp(siz) R M Lvl/name                 OctLoc.c.b A Datatyp(siz) R M Lvl/name

     0-0-0/w PTR         r     1 ST$

  ****  Section 013 LblCom ST_

  ****  Scalars and arrays  ****
OctLoc.c.b A Datatyp(siz) R M Lvl/name                 OctLoc.c.b A Datatyp(siz) R M Lvl/name

     0-0-0/w STRC(180)   r     1 ST_

  ****  Section 014 LblCom DNT$

  ****  Scalars and arrays  ****
OctLoc.c.b A Datatyp(siz) R M Lvl/name                 OctLoc.c.b A Datatyp(siz) R M Lvl/name

     0-0-0/w PTR         r     1 DNT$

  ****  Section 015 LblCom DNT_

  ****  Scalars and arrays  ****
OctLoc.c.b A Datatyp(siz) R M Lvl/name                 OctLoc.c.b A Datatyp(siz) R M Lvl/name

     0-0-0/w STRC(180)   r     1 DNT_

  ****  Section 016 LblCom DNT_BUCKET_NUMBER

  ****  Scalars and arrays  ****
OctLoc.c.b A Datatyp(siz) R M Lvl/name                 OctLoc.c.b A Datatyp(siz) R M Lvl/name

     0-0-0/w UBIN        r     1 DNT_BUCKET_NUMBER

  ****  Section 017 LblCom DNT_OF_1$
PL6.E3A0      #001=Z8EM$SEMANTICS_DATA_DIV File=Z8EM.:Z8A6TSI                    SAT 08/09/97 12:08 Page:1478

  ****  Scalars and arrays  ****
OctLoc.c.b A Datatyp(siz) R M Lvl/name                 OctLoc.c.b A Datatyp(siz) R M Lvl/name

     0-0-0/w PTR               1 DNT_OF_1$

  ****  Section 018 LblCom ETT$

  ****  Scalars and arrays  ****
OctLoc.c.b A Datatyp(siz) R M Lvl/name                 OctLoc.c.b A Datatyp(siz) R M Lvl/name

     0-0-0/w PTR         r     1 ETT$

  ****  Section 019 LblCom HEAD_ETT$

  ****  Scalars and arrays  ****
OctLoc.c.b A Datatyp(siz) R M Lvl/name                 OctLoc.c.b A Datatyp(siz) R M Lvl/name

     0-0-0/w PTR               1 HEAD_ETT$

  ****  Section 020 LblCom ETT_BUCKETS

  ****  Scalars and arrays  ****
OctLoc.c.b A Datatyp(siz) R M Lvl/name                 OctLoc.c.b A Datatyp(siz) R M Lvl/name

     0-0-0/w PTR               1 ETT_BUCKETS(0:511)

  ****  Section 021 LblCom ETT_

  ****  Scalars and arrays  ****
OctLoc.c.b A Datatyp(siz) R M Lvl/name                 OctLoc.c.b A Datatyp(siz) R M Lvl/name

     0-0-0/w STRC(180)         1 ETT_

  ****  Section 022 LblCom SRCH

  ****  Scalars and arrays  ****
PL6.E3A0      #001=Z8EM$SEMANTICS_DATA_DIV File=Z8EM.:Z8A6TSI                    SAT 08/09/97 12:08 Page:1479
OctLoc.c.b A Datatyp(siz) R M Lvl/name                 OctLoc.c.b A Datatyp(siz) R M Lvl/name

     0-0-0/w STRC(108)         1 SRCH

  ****  Section 023 LblCom XREF$

  ****  Scalars and arrays  ****
OctLoc.c.b A Datatyp(siz) R M Lvl/name                 OctLoc.c.b A Datatyp(siz) R M Lvl/name

     0-0-0/w PTR         r     1 XREF$

  ****  Section 024 LblCom XREF_

  ****  Scalars and arrays  ****
OctLoc.c.b A Datatyp(siz) R M Lvl/name                 OctLoc.c.b A Datatyp(siz) R M Lvl/name

     0-0-0/w STRC(180)   r     1 XREF_

  ****  Section 025 LblCom LEX_SYMBOL

  ****  Scalars and arrays  ****
OctLoc.c.b A Datatyp(siz) R M Lvl/name                 OctLoc.c.b A Datatyp(siz) R M Lvl/name

     0-0-0/w STRC(3240)  r     1 LEX_SYMBOL                 0-0-0/w STRC(3240)        1 LEX_SYMBOL_WORDS

  ****  Section 026 LblCom CURRENT_LEX_SYMBOL$

  ****  Scalars and arrays  ****
OctLoc.c.b A Datatyp(siz) R M Lvl/name                 OctLoc.c.b A Datatyp(siz) R M Lvl/name

     0-0-0/w PTR         r     1 CURRENT_LEX_SYMBOL$

  ****  Section 027 LblCom TEMP_LEX_SYMBOL

  ****  Scalars and arrays  ****
OctLoc.c.b A Datatyp(siz) R M Lvl/name                 OctLoc.c.b A Datatyp(siz) R M Lvl/name

PL6.E3A0      #001=Z8EM$SEMANTICS_DATA_DIV File=Z8EM.:Z8A6TSI                    SAT 08/09/97 12:08 Page:1480
     0-0-0/w STRC(3240)        1 TEMP_LEX_SYMBOL

  ****  Section 028 LblCom TEMP_LEX_SYMBOL2

  ****  Scalars and arrays  ****
OctLoc.c.b A Datatyp(siz) R M Lvl/name                 OctLoc.c.b A Datatyp(siz) R M Lvl/name

     0-0-0/w STRC(3240)        1 TEMP_LEX_SYMBOL2

  ****  Section 029 LblCom HEAP$

  ****  Scalars and arrays  ****
OctLoc.c.b A Datatyp(siz) R M Lvl/name                 OctLoc.c.b A Datatyp(siz) R M Lvl/name

     0-0-0/w PTR         r     1 HEAP$

  ****  Section 030 LblCom TEMP_LX_NODE

  ****  Scalars and arrays  ****
OctLoc.c.b A Datatyp(siz) R M Lvl/name                 OctLoc.c.b A Datatyp(siz) R M Lvl/name

     0-0-0/d STRC(288)   r     1 TEMP_LX_NODE

  ****  Section 031 LblCom MKCN

  ****  Scalars and arrays  ****
OctLoc.c.b A Datatyp(siz) R M Lvl/name                 OctLoc.c.b A Datatyp(siz) R M Lvl/name

     0-0-0/w STRC(72)    r     1 MKCN

  ****  Section 032 LblCom OVERLAY_COORDINATION_VECTOR

  ****  Scalars and arrays  ****
OctLoc.c.b A Datatyp(siz) R M Lvl/name                 OctLoc.c.b A Datatyp(siz) R M Lvl/name

     0-0-0/d REMB        r     1 OVERLAY_COORDINATION_VECTOR

PL6.E3A0      #001=Z8EM$SEMANTICS_DATA_DIV File=Z8EM.:Z8A6TSI                    SAT 08/09/97 12:08 Page:1481
  ****  Section 033 LblCom PARSER_OVERLAY_RETURN_CODE

  ****  Scalars and arrays  ****
OctLoc.c.b A Datatyp(siz) R M Lvl/name                 OctLoc.c.b A Datatyp(siz) R M Lvl/name

     0-0-0/w SBIN        r     1 PARSER_OVERLAY_RETURN_CODE

  ****  Section 034 RoData Z8EM$SEMANTICS_DATA_DIV

  ****  Scalars and arrays  ****
OctLoc.c.b A Datatyp(siz) R M Lvl/name                 OctLoc.c.b A Datatyp(siz) R M Lvl/name

     0-0-0/w SBIN        r     1 RSW_NO(0:15)

  ****  SYMREF variables  ****

  ****  Scalars and arrays  ****
OctLoc.c.b A Datatyp(siz) R M Lvl/name                 OctLoc.c.b A Datatyp(siz) R M Lvl/name

     0-0-0/w STRC(4608)        1 ANSI_USERWORD_SCAN_TABLE
     0-0-0/w STRC(4608)        1 ASCII_SEARCH_TABLE         0-0-0/w STRC(4608)        1 BLANK_SCAN_TABLE
     0-0-0/d STRC(13248) r     1 COMCOM
     0-0-0/c CHAR        r     1 CURRENCY_SIGN_CHARS(0:511)
     0-0-0/w STRC(4608)        1 DBL_QUOTE_PSEUDO_SEARCH_TABLE
     0-0-0/b STRC              1 DD_ACTION_COL(0:1149)
     0-0-0/b STRC              1 DD_ACTION_ROW(0:3048)
     0-0-0/b STRC              1 DD_GOTO_COL(0:547)
     0-0-0/b STRC              1 DD_GOTO_ROW(0:902)
     0-0-0/b STRC(72)    r     1 DD_PRODR(0:769)            0-0-0/w STRC(4608)        1 DIGIT_SCAN_TABLE
     0-0-0/w PTR         r     1 DNT$_FROM_RSWNO(0:0)
     0-0-0/w PTR         r     1 DNT_BUCKETS(0:1128)
     0-0-0/w STRC(4608)        1 DOUBLE_QUOTE_SEARCH_TABLE
     0-0-0/c STRC(9)     r     1 EBCDIC(0:511)              0-0-0/w BIT         r     1 END_PROGRAM_FOUND
     0-0-0/c STRC(9)     r     1 GBCD(0:511)                0-0-0/c STRC(9)     r     1 HBCD(0:511)
     0-0-0/w STRC(180)   r     1 HIER_STK(0:50)
     0-0-0/w SBIN        r     1 HIER_STK_PTR               0-0-0/w UBIN              1 ILL_STEP(0:144)
     0-0-0/w UBIN              1 ILS_STEP_TABLE(0:2)
PL6.E3A0      #001=Z8EM$SEMANTICS_DATA_DIV File=Z8EM.:Z8A6TSI                    SAT 08/09/97 12:08 Page:1482
     0-0-0/w STRC(4608)        1 LETTER_SEARCH_TABLE
     0-0-0/c CHAR              1 LOWER_TO_UPPER_CASE(0:511)
     0-0-0/w UBIN              1 LTS_STEP(0:37)
     0-0-0/d STRC(11580) r     1 O1COM                      0-0-0/w STRC(144)   r     1 PAGE_FORMAT
     0-0-0/w STRC(153)         1 REP_STK(0:50)              0-0-0/w SBIN        r     1 REP_STK_PTR
     0-0-0/w STRC(4608)        1 SEPARATORS_TABLE
     0-0-0/w STRC(4608)        1 SINGLE_QUOTE_SEARCH_TABLE
     0-0-0/w STRC(4608)        1 SNGL_QUOTE_PSEUDO_SEARCH_TABLE
     0-0-0/w STRC(4608)        1 USERWORD_SCAN_TABLE

  ****  BASED and DCB variables  ****

  ****  Scalars and arrays  ****
OctLoc.c.b A Datatyp(siz) R M Lvl/name                 OctLoc.c.b A Datatyp(siz) R M Lvl/name

     0-0-0/w STRC(108)         1 ACCEPT_DISPLAY             0-0-0/w STRC(288)         1 ADD_STMT
     0-0-0/w STRC(396)   r     1 ALPHABET                   0-0-0/w STRC(144)         1 ALTER_LTS
     0-0-0/w STRC(3672)        1 ALT_KEY                    0-0-0/w STRC(36864)       1 ARGLIST
     0-0-0/w STRC(396)   r     1 ARRAY                      0-0-0/w STRC(180)         1 ARRAY_PRESET_LTS
     0-0-0/w ASTR(324)   r     1 BASED_LEX_SYMBOL
     0-0-0/w STRC(360)         1 BASED_LEX_SYMBOL_WORDS
     0-0-0/w STRC(288)         1 BASE_LTS                   0-0-0/w STRC(108)         1 BINARY_ILL
     0-0-0/w STRC(288)   r     1 BINARY_OP                  0-0-0/w STRC(396)   r     1 BLOCK
     0-0-0/w STRC(144)         1 BRANCH_ILL                 0-0-0/w STRC(144)         1 BT
     0-0-0/w STRC(288)         1 CALL_STMT                  0-0-0/w STRC(216)         1 CCOSU
     0-0-0/w STRC(396)   r     1 CD                         0-0-0/w STRC(288)   r     1 CD_LTS
     0-0-0/w CHAR(4096)        1 CHARS                      0-0-0/w STRC(396)   r     1 CLASS
     0-0-0/w STRC(108)         1 CODED_MOVE                 0-0-0/w STRC(288)         1 COMPUTE_STMT
     0-0-0/w STRC(396)   r     1 CONDITION                  0-0-0/w STRC(396)   r     1 CONST
     0-0-0/w STRC(72)          1 CONT                       0-0-0/w STRC(540)   r     1 CONTROL_NAME_LTS
     0-0-0/w STRC(1872)        1 COPY_FILE                  0-0-0/w STRC(396)         1 DB
     0-0-0/w STRC(396)         1 DCB_                       0-0-0/w STRC(288)   r     1 DEFERED_IDENTIFIER
     0-0-0/w STRC(252)   r     1 DEFERED_ID_TREE            0-0-0/w STRC(288)         1 DEFERED_QUAL_ID
     0-0-0/w STRC(288)   r     1 DEFERED_SUM_CLAUSE
     0-0-0/w STRC(288)         1 DEFERED_SUM_CLAUSE_LIST
     0-0-0/w STRC(144)         1 DEFLB                      0-0-0/w STRC(288)         1 DELETE_STMT
     0-0-0/w STRC(108)         1 DEPENDING_SIZE             0-0-0/w STRC(5472)  r     1 DIMS
PL6.E3A0      #001=Z8EM$SEMANTICS_DATA_DIV File=Z8EM.:Z8A6TSI                    SAT 08/09/97 12:08 Page:1483
     0-0-0/w STRC(288)         1 DIVIDE_STMT                0-0-0/w STRC(396)         1 DML_ITEM
     0-0-0/w STRC(216)         1 DML_REC                    0-0-0/w ASTR(180)   r     1 DNT
     0-0-0/w STRC(144)         1 DOEND                      0-0-0/w STRC(396)         1 DO_N
     0-0-0/w STRC(180)         1 DV4I                       0-0-0/w STRC(180)   r     1 ENTRY_ILL
     0-0-0/w STRC(180)   r     1 ETT                        0-0-0/w STRC(108)         1 EVALU
     0-0-0/w STRC(73836)       1 EVALUATE                   0-0-0/w STRC(396)   r     1 FD
     0-0-0/w STRC(1692)  r     1 FILE_LTS                   0-0-0/w STRC(144)         1 GO
     0-0-0/w STRC(180)         1 ILL                        0-0-0/w STRC              1 ILL_NO_OPS
     0-0-0/w STRC(180)         1 ILS                        0-0-0/w STRC(288)         1 ILS_LIST
     0-0-0/w STRC(108)   r     1 INDEXES                    0-0-0/w STRC(360)         1 INIT_LTS
     0-0-0/w STRC(288)         1 INSPECT_1_STMT             0-0-0/w STRC(288)         1 INSPECT_2_STMT
     0-0-0/w STRC(288)         1 INSPECT_4_STMT             0-0-0/w STRC(396)   r     1 INTDEF
     0-0-0/w STRC(180)         1 IO_RESTORE_CHAIN           0-0-0/w STRC(144)         1 KEY
     0-0-0/w STRC(396)         1 LABEL                      0-0-0/w STRC(288)         1 LA_ITEM
     0-0-0/w STRC(36864) r     1 LCNST                      0-0-0/w STRC(108)         1 LINOI
     0-0-0/w STRC(72)          1 LONG                       0-0-0/w STRC        r     1 LTS
     0-0-0/w STRC(360)   r     1 LTSS                       0-0-0/w STRC(36936) r     1 LTS_PTR_ARRAY
     0-0-0/w STRC(504)   r     1 LX_CD_INPUT                0-0-0/w STRC(324)   r     1 LX_CD_I_O
     0-0-0/w STRC(396)   r     1 LX_CD_OUTPUT               0-0-0/w STRC(288)         1 LX_ETT_ITEM
     0-0-0/w STRC(288)   r     1 LX_ITEM                    0-0-0/w STRC(288)   r     1 LX_LARGE
     0-0-0/w STRC(288)   r     1 LX_LIST                    0-0-0/w STRC(1224)  r     1 LX_REC_DECL
     0-0-0/w STRC(864)   r     1 LX_REPORT_REC              0-0-0/w STRC(288)   r     1 LX_TERMINAL
     0-0-0/w STRC(72)          1 MFILL                      0-0-0/w STRC(396)   r     1 MNEMONIC
     0-0-0/w STRC(288)         1 MULTIPLY_STMT              0-0-0/w STRC(180)         1 MULTI_GO
     0-0-0/w STRC(180)         1 MVEAL                      0-0-0/w STRC(108)         1 MVFIL
     0-0-0/w STRC(72)          1 MVIIS                      0-0-0/w STRC(144)         1 NEL
     0-0-0/w STRC(216)         1 OPEN_LTS                   0-0-0/w STRC(144)         1 OPN
     0-0-0/w STRC(180)         1 OS_CALL                    0-0-0/w STRC(36864)       1 PAGE
     0-0-0/w STRC(396)         1 PARA                       0-0-0/c ACHR              1 PARSE_STACK_USED
     0-0-0/w STRC(216)         1 PFORM                      0-0-0/w STRC(144)         1 PINC
     0-0-0/w STRC(144)   r     1 PREOFF                     0-0-0/w STRC(108)   r     1 PRESET
     0-0-0/w STRC(144)         1 PRIME                      0-0-0/w STRC(396)   r     1 PROC_
     0-0-0/w STRC(396)         1 PROC_DEF                   0-0-0/w STRC(900)   r     1 PROC_SUPP
     0-0-0/w STRC(144)         1 P_A_PRESET                 0-0-0/w STRC(144)         1 P_P_PRESET
     0-0-0/w STRC(216)   r     1 QLT                        0-0-0/w STRC(396)   r     1 RD
     0-0-0/w STRC(288)         1 READ_STMT                  0-0-0/w STRC(216)         1 REF
     0-0-0/w STRC(144)         1 REMEM                      0-0-0/w STRC(108)         1 RENAMES
PL6.E3A0      #001=Z8EM$SEMANTICS_DATA_DIV File=Z8EM.:Z8A6TSI                    SAT 08/09/97 12:08 Page:1484
     0-0-0/w STRC(720)         1 REPORT_01_LTS              0-0-0/w STRC(432)         1 REPORT_ELEM_LTS
     0-0-0/w STRC(252)         1 REPORT_GRP_LTS             0-0-0/w STRC(1332)  r     1 REPORT_LTS
     0-0-0/w STRC(288)         1 REWRITE_STMT               0-0-0/w STRC(144)         1 RVA_LTS
     0-0-0/w STRC(396)   r     1 SCALAR                     0-0-0/w STRC(144)   r     1 SCOPE
     0-0-0/w STRC(396)         1 SD                         0-0-0/w STRC(216)         1 SEARCH_
     0-0-0/w STRC(396)         1 SECTION                    0-0-0/w STRC(396)         1 SEGMENT
     0-0-0/w STRC(360)         1 SEGMENT_LTS                0-0-0/w STRC(396)   r     1 ST
     0-0-0/w STRC(288)         1 START_STMT                 0-0-0/w STRC(72)          1 STP2
     0-0-0/w STRC(252)         1 STRING_STMT                0-0-0/w STRC(288)         1 SUBTRACT_STMT
     0-0-0/w STRC(252)         1 SUM_LTS                    0-0-0/w STRC(396)   r     1 SWITCH
     0-0-0/w STRC(396)   r     1 SYMBOLIC_CHAR              0-0-0/w STRC(396)   r     1 SYMDEF_
     0-0-0/w STRC(396)   r     1 SYMREF_                    0-0-0/w STRC(4608)  r     1 TABLE
     0-0-0/w STRC(4608)  r     1 TABLE                      0-0-0/w STRC(4608)  r     1 TABLE
     0-0-0/w STRC(396)         1 TEMP                       0-0-0/w STRC(4608)  r     1 TRANS
     0-0-0/w STRC(144)         1 TRINARY_ILL                0-0-0/w STRC(72)          1 UNARY_ILL
     0-0-0/w STRC(288)   r     1 UNARY_OP                   0-0-0/w STRC(288)         1 UNSTRING_STMT
     0-0-0/d STRC(612)         1 USE                        0-0-0/w STRC(216)         1 USER_CALL
     0-0-0/w STRC(252)         1 USE_SUPP                   0-0-0/w STRC(108)         1 VAL
     0-0-0/w STRC(108)         1 VAL_END                    0-0-0/w STRC(396)   r     1 VARIABLE
     0-0-0/w STRC(72)          1 WHEN                       0-0-0/w STRC(288)         1 WRITE_STMT
     0-0-0/w STRC(72)    r     1 XREF


   Procedure Z8EM$SEMANTICS_DATA_DIV requires 23971 words for executable code.
   Procedure Z8EM$SEMANTICS_DATA_DIV is declared NOAUTO and requires 700 words of local(STATIC) storage.

    No errors detected in file Z8EM.:Z8A6TSI    .
