PL6.E3A0      #001=Z8EM$SEMANTICS_DATA_DIV File=Z8EM.:Z8A6TSI                    SAT 08/09/97 12:08 Page:554
  27413 35 011343   000322 236000 0                  LDQ     @ORGANIZATION
        35 011344   000146 756000 0                  STQ     @ORG
        35 011345   000045 236000 xsym               LDQ     O1COM+37
        35 011346   000011 036003                    ADLQ    9,DU
        35 011347   000321 235000 0                  LDA     @ORG$
        35 011350   000144 757000 0                  STAQ    @ITEM$
        35 011351   003213 701000 35                 TSX1    CHECK_DIFF_ORG_AND_ACCESS
        35 011352   000000 011000                    NOP     0

     2255    27414    2                                          O1COM.CURRENT_FILE_LTS$ ->
     2256    27415    2                                          FILE_LTS.ACCESS_MODE,
     2257    27416    2                                          ORGANIZATION);
     2258    27417
     2259    27418    2        CALL ORG_CHECKS (ORG$, ORGANIZATION);

  27418 35 011353   000322 236000 0                  LDQ     @ORGANIZATION
        35 011354   000450 756000 0                  STQ     @ORG$+1
        35 011355   000321 236000 0                  LDQ     @ORG$
        35 011356   000447 756000 0                  STQ     LTS$$+2
        35 011357   020356 701000 35                 TSX1    ORG_CHECKS
        35 011360   000000 011000                    NOP     0

     2260    27419
     2261    27420    2   END FILE_ORG;

  27420 35 011361   000320 221200 0                  LDX1  ! ST$$+1
        35 011362   000001 702211                    TSX2  ! 1,X1

     2262    27421        %EJECT;
PL6.E3A0      #001=Z8EM$SEMANTICS_DATA_DIV File=Z8EM.:Z8A6TSI                    SAT 08/09/97 12:08 Page:555
     2263    27422        /*=========*/
     2264    27423    1     FIND_FILE : PROC (FILE$, ST$$) ALTRET;

  27423 35 011363   000324 741200 0     FIND_FILE    STX1  ! TOKEN$+1

     2265    27424        /*=========*/
     2266    27425
     2267    27426    2        DCL FILE$         PTR; /* To lx_term for the file */
     2268    27427    2        DCL ST$$          PTR; /* Return to file found */
     2269    27428    2        DCL DNT$$         PTR;
     2270    27429    2        DCL RET_ST$       PTR;
     2271    27430
     2272    27431
     2273    27432    2        DNT$$ = FILE$ -> LX_TERMINAL.DNT$;

  27432 35 011364   000325 470400 0                  LDP0    @FILE$
        35 011365   000000 471500                    LDP1    0,,PR0
        35 011366   100002 236100                    LDQ     2,,PR1
        35 011367   000327 756000 0                  STQ     DNT$$

     2274    27433    2        ST$$  = DNT$$ -> DNT.ST$;

  27433 35 011370   000327 473400 0                  LDP3    DNT$$
        35 011371   300001 236100                    LDQ     1,,PR3
        35 011372   000326 474400 0                  LDP4    @ST$$
        35 011373   400000 756100                    STQ     0,,PR4

     2275    27434    2        RET_ST$ = ADDR(NIL);

  27434 35 011374   000024 236000 36                 LDQ     20
        35 011375   000330 756000 0                  STQ     RET_ST$

     2276    27435
     2277    27436    3        DO WHILE (ST$$ ~= ADDR(NIL));

  27436 35 011376   011444 710000 35                 TRA     s:27465

PL6.E3A0      #001=Z8EM$SEMANTICS_DATA_DIV File=Z8EM.:Z8A6TSI                    SAT 08/09/97 12:08 Page:556
     2278    27437    3          IF ST$$ -> SCALAR.PROC$ ~= O1COM.CURRENT_PROC$ THEN

  27437 35 011377   000326 470400 0                  LDP0    @ST$$
        35 011400   000000 471500                    LDP1    0,,PR0
        35 011401   100011 236100                    LDQ     9,,PR1
        35 011402   000057 116000 xsym               CMPQ    O1COM+47
        35 011403   011414 600000 35                 TZE     s:27447

     2279    27438                 /* It is not in this proc so altreturn */
     2280    27439    3            IF RET_ST$ = ADDR(NIL) THEN

  27439 35 011404   000330 236000 0                  LDQ     RET_ST$
        35 011405   000024 116000 36                 CMPQ    20
        35 011406   011411 601000 35                 TNZ     s:27443

     2281    27440    3              ALTRETURN;

  27440 35 011407   000324 221200 0                  LDX1  ! TOKEN$+1
        35 011410   000000 702211                    TSX2  ! 0,X1

     2282    27441    3            ELSE
     2283    27442    4              DO;

     2284    27443    4                ST$$ = RET_ST$;

  27443 35 011411   000000 756100                    STQ     0,,PR0

     2285    27444    4                RETURN;

  27444 35 011412   000324 221200 0                  LDX1  ! TOKEN$+1
        35 011413   000001 702211                    TSX2  ! 1,X1

     2286    27445    4              END;
     2287    27446    3          ELSE
     2288    27447    4            DO CASE (ST$$ -> ST.ID);

  27447 35 011414   100000 236100                    LDQ     0,,PR1
PL6.E3A0      #001=Z8EM$SEMANTICS_DATA_DIV File=Z8EM.:Z8A6TSI                    SAT 08/09/97 12:08 Page:557
        35 011415   000022 772000                    QRL     18
        35 011416   001002 136007                    SBLQ    514,DL
        35 011417   000004 116007                    CMPQ    4,DL
        35 011420   011422 602006 35                 TNC     s:27447+6,QL
        35 011421   011442 710000 35                 TRA     s:27463
        35 011422   011426 710000 35                 TRA     s:27455
        35 011423   011426 710000 35                 TRA     s:27455
        35 011424   011442 710000 35                 TRA     s:27463
        35 011425   011426 710000 35                 TRA     s:27455

     2289    27448    4              CASE (

     2290    27449                          %SET_OF_FILE_DESCRIPTIONS;
     2291    27454    4                    );
     2292    27455    4                IF ST$$ -> FD.QLT$ -> QLT.SON -> QLT.BROTHER = ADDR(NIL) THEN

  27455 35 011426   100007 473500                    LDP3    7,,PR1
        35 011427   300003 474500                    LDP4    3,,PR3
        35 011430   400002 236100                    LDQ     2,,PR4
        35 011431   000024 116000 36                 CMPQ    20
        35 011432   011435 601000 35                 TNZ     s:27458

     2293    27456    4                  RETURN;

  27456 35 011433   000324 221200 0                  LDX1  ! TOKEN$+1
        35 011434   000001 702211                    TSX2  ! 1,X1

     2294    27457    4                ELSE
     2295    27458    4                  RET_ST$ = ST$$;

  27458 35 011435   000000 236100                    LDQ     0,,PR0
        35 011436   000330 756000 0                  STQ     RET_ST$

     2296    27459
     2297    27460    4                ST$$ = ST$$ -> ST.NEXT;

  27460 35 011437   100004 236100                    LDQ     4,,PR1
PL6.E3A0      #001=Z8EM$SEMANTICS_DATA_DIV File=Z8EM.:Z8A6TSI                    SAT 08/09/97 12:08 Page:558
        35 011440   000000 756100                    STQ     0,,PR0
        35 011441   011444 710000 35                 TRA     s:27465

     2298    27461
     2299    27462    4              CASE (ELSE);

     2300    27463    4                ST$$ = ST$$ -> ST.NEXT;

  27463 35 011442   100004 236100                    LDQ     4,,PR1
        35 011443   000000 756100                    STQ     0,,PR0

     2301    27464    4            END; /* Case */

     2302    27465    3        END; /* While */

  27465 35 011444   000326 470400 0                  LDP0    @ST$$
        35 011445   000000 236100                    LDQ     0,,PR0
        35 011446   000024 116000 36                 CMPQ    20
        35 011447   011377 601000 35                 TNZ     s:27437

     2303    27466
     2304    27467    2        IF RET_ST$ ~= ADDR(NIL) THEN

  27467 35 011450   000330 236000 0                  LDQ     RET_ST$
        35 011451   000024 116000 36                 CMPQ    20
        35 011452   011454 600000 35                 TZE     s:27470

     2305    27468    2          ST$$ = RET_ST$;

  27468 35 011453   000000 756100                    STQ     0,,PR0

     2306    27469
     2307    27470    2        ALTRETURN;

  27470 35 011454   000324 221200 0                  LDX1  ! TOKEN$+1
        35 011455   000000 702211                    TSX2  ! 0,X1

PL6.E3A0      #001=Z8EM$SEMANTICS_DATA_DIV File=Z8EM.:Z8A6TSI                    SAT 08/09/97 12:08 Page:559
     2308    27471
     2309    27472    2   END FIND_FILE;
     2310    27473        %EJECT;
PL6.E3A0      #001=Z8EM$SEMANTICS_DATA_DIV File=Z8EM.:Z8A6TSI                    SAT 08/09/97 12:08 Page:560
     2311    27474
     2312    27475          /*===========*/
     2313    27476    1       FIND_REPORT:  PROC  (REPORT$, ST$$);

  27476 35 011456   000331 741200 0     FIND_REPORT  STX1  ! RET_ST$+1

     2314    27477          /*===========*/
     2315    27478
     2316    27479
     2317    27480    2      DCL REPORT$          PTR;
     2318    27481    2      DCL ST$$             PTR;
     2319    27482    2      DCL RET_ST$          PTR;
     2320    27483
     2321    27484
     2322    27485
     2323    27486    2       ST$$ = REPORT$ -> LX_TERMINAL.DNT$ -> DNT.ST$;

  27486 35 011457   000332 470400 0                  LDP0    @REPORT$
        35 011460   000000 471500                    LDP1    0,,PR0
        35 011461   100002 473500                    LDP3    2,,PR1
        35 011462   300001 236100                    LDQ     1,,PR3
        35 011463   000333 474400 0                  LDP4    @ST$$
        35 011464   400000 756100                    STQ     0,,PR4

     2324    27487    2       RET_ST$ = ST$$;

  27487 35 011465   000334 756000 0                  STQ     RET_ST$

     2325    27488
     2326    27489
     2327    27490    3       DO WHILE (RET_ST$ ~= ADDR(NIL));

  27490 35 011466   011507 710000 35                 TRA     s:27505

     2328    27491    3         IF RET_ST$ -> SCALAR.PROC$ ~= O1COM.CURRENT_PROC$  THEN

  27491 35 011467   000334 470400 0                  LDP0    RET_ST$
PL6.E3A0      #001=Z8EM$SEMANTICS_DATA_DIV File=Z8EM.:Z8A6TSI                    SAT 08/09/97 12:08 Page:561
        35 011470   000011 236100                    LDQ     9,,PR0
        35 011471   000057 116000 xsym               CMPQ    O1COM+47
        35 011472   011475 600000 35                 TZE     s:27496

     2329    27492    3             RETURN;

  27492 35 011473   000331 221200 0                  LDX1  ! RET_ST$+1
        35 011474   000001 702211                    TSX2  ! 1,X1

     2330    27493
     2331    27494    3           ELSE
     2332    27495    4             DO;

     2333    27496    4               IF RET_ST$ -> ST.ID = %RD  THEN

  27496 35 011475   000000 220100                    LDX0    0,,PR0
        35 011476   001005 100003                    CMPX0   517,DU
        35 011477   011505 601000 35                 TNZ     s:27503

     2334    27497    5                 DO;

     2335    27498    5                   ST$$ = RET_ST$;

  27498 35 011500   000334 236000 0                  LDQ     RET_ST$
        35 011501   000333 471400 0                  LDP1    @ST$$
        35 011502   100000 756100                    STQ     0,,PR1

     2336    27499    5                   RETURN;

  27499 35 011503   000331 221200 0                  LDX1  ! RET_ST$+1
        35 011504   000001 702211                    TSX2  ! 1,X1

     2337    27500    5                 END;
     2338    27501
     2339    27502    4                 ELSE
     2340    27503    4                   RET_ST$ = RET_ST$ -> SCALAR.NEXT;

PL6.E3A0      #001=Z8EM$SEMANTICS_DATA_DIV File=Z8EM.:Z8A6TSI                    SAT 08/09/97 12:08 Page:562
  27503 35 011505   000004 236100                    LDQ     4,,PR0
        35 011506   000334 756000 0                  STQ     RET_ST$

     2341    27504    4             END;

     2342    27505    3        END;  /* while */

  27505 35 011507   000024 116000 36                 CMPQ    20
        35 011510   011467 601000 35                 TNZ     s:27491

     2343    27506
     2344    27507    2      END FIND_REPORT;

  27507 35 011511   000331 221200 0                  LDX1  ! RET_ST$+1
        35 011512   000001 702211                    TSX2  ! 1,X1

     2345    27508           %EJECT;
PL6.E3A0      #001=Z8EM$SEMANTICS_DATA_DIV File=Z8EM.:Z8A6TSI                    SAT 08/09/97 12:08 Page:563
     2346    27509
     2347    27510         /*====================*/
     2348    27511    1      GET_CD_BUFFER_LENGTH: PROC (ITEM$, BUFFER_LENGTH);

  27511 35 011513   000335 741200 0     GET_CD_BUFF* STX1  ! RET_ST$+1

     2349    27512         /*====================*/
     2350    27513
     2351    27514
     2352    27515        %EQU DEFAULT_BUFFER_LENGTH = 84; /* 21 words */
     2353    27516
     2354    27517    2   DCL ITEM$          PTR;
     2355    27518    2   DCL BUFFER_LENGTH  SBIN WORD;
     2356    27519
     2357    27520
     2358    27521
     2359    27522    2      IF ITEM$ ~= ADDR(NIL) THEN

  27522 35 011514   000336 470400 0                  LDP0    @ITEM$
        35 011515   000000 236100                    LDQ     0,,PR0
        35 011516   000024 116000 36                 CMPQ    20
        35 011517   011560 600000 35                 TZE     s:27542

     2360    27523    3        DO;

     2361    27524    3          CALL CHARBIN (BUFFER_LENGTH,

  27524 35 011520   000000 471500                    LDP1    0,,PR0
        35 011521   100002 473500                    LDP3    2,,PR1
        35 011522   300004 220100                    LDX0    4,,PR3
        35 011523   000337 474400 0                  LDP4    @BUFFER_LENGTH
        35 011524   000100 305540                    DTB
        35 011525   300004 430010                    NDSC9   4,,PR3                   cn=2,s=nosgn,sf=0,n=*X0
        35 011526   400000 000004                    NDSC9   0,,PR4                   cn=0,s=lsgnf,sf=0,n=4

     2362    27525    3                        ITEM$ -> LX_TERMINAL.DNT$ -> DNT.TEXT.NAME);
     2363    27526
PL6.E3A0      #001=Z8EM$SEMANTICS_DATA_DIV File=Z8EM.:Z8A6TSI                    SAT 08/09/97 12:08 Page:564
     2364    27527    3          IF BUFFER_LENGTH < 1 OR

  27527 35 011527   400000 235100                    LDA     0,,PR4
        35 011530   011533 604400 35                 TMOZ    s:27530
        35 011531   003600 115007                    CMPA    1920,DL
        35 011532   011551 604400 35                 TMOZ    s:27537

     2365    27528    3             BUFFER_LENGTH > 1920 THEN
     2366    27529    4              DO;

     2367    27530    4                BUFFER_LENGTH = %DEFAULT_BUFFER_LENGTH;

  27530 35 011533   000124 236007                    LDQ     84,DL
        35 011534   400000 756100                    STQ     0,,PR4

     2368    27531
     2369    27532    4                CALL Z8AE$ERROR (%E$BUFFER_LENGTH_ERROR,

  27532 35 011535   000000 471500                    LDP1    0,,PR0
        35 011536   100006 633500                    EPPR3   6,,PR1
        35 011537   001014 453400 0                  STP3    PROC$+4
        35 011540   100005 635500                    EPPR5   5,,PR1
        35 011541   001013 455400 0                  STP5    PROC$+3
        35 011542   000245 236000 36                 LDQ     165
        35 011543   001012 756000 0                  STQ     PROC$+2
        35 011544   001012 630400 0                  EPPR0   PROC$+2
        35 011545   000000 631400 36                 EPPR1   0
        35 011546   000000 701000 xent               TSX1    Z8AE$ERROR
        35 011547   000000 011000                    NOP     0

     2370    27533    4                                 ITEM$ -> LX_TERMINAL.LINE,
     2371    27534    4                                 ITEM$ -> LX_TERMINAL.COLUMN);
     2372    27535    4              END;

  27535 35 011550   011553 710000 35                 TRA     s:27539

     2373    27536    3            ELSE
PL6.E3A0      #001=Z8EM$SEMANTICS_DATA_DIV File=Z8EM.:Z8A6TSI                    SAT 08/09/97 12:08 Page:565
     2374    27537    3              BUFFER_LENGTH = BUFFER_LENGTH + 4;

  27537 35 011551   000004 236007                    LDQ     4,DL
        35 011552   400000 056100                    ASQ     0,,PR4

     2375    27538
     2376    27539    3          CALL Z8ED$DISPOSE_ABSSYN_TREE (ITEM$);

  27539 35 011553   000336 630400 0                  EPPR0   @ITEM$
        35 011554   000036 631400 36                 EPPR1   30
        35 011555   000000 701000 xent               TSX1    Z8ED$DISPOSE_ABSSYN_TREE
        35 011556   000000 011000                    NOP     0

     2377    27540    3        END;

  27540 35 011557   011563 710000 35                 TRA     s:27544

     2378    27541    2      ELSE
     2379    27542    2        BUFFER_LENGTH = %DEFAULT_BUFFER_LENGTH;

  27542 35 011560   000124 235007                    LDA     84,DL
        35 011561   000337 471400 0                  LDP1    @BUFFER_LENGTH
        35 011562   100000 755100                    STA     0,,PR1

     2380    27543
     2381    27544    2    END GET_CD_BUFFER_LENGTH;

  27544 35 011563   000335 221200 0                  LDX1  ! RET_ST$+1
        35 011564   000001 702211                    TSX2  ! 1,X1

     2382    27545         %EJECT;
PL6.E3A0      #001=Z8EM$SEMANTICS_DATA_DIV File=Z8EM.:Z8A6TSI                    SAT 08/09/97 12:08 Page:566
     2383    27546
     2384    27547
     2385    27548        /*======================*/
     2386    27549    1     INITIALIZE_TRANS_TABLE: PROC (TABLE$);

  27549 35 011565   000340 741200 0     INITIALIZE_* STX1  ! @BUFFER_LENGTH+1

     2387    27550        /*======================*/
     2388    27551
     2389    27552    2   DCL TABLE$             PTR;
     2390    27553
     2391    27554    2   DCL I                  SBIN WORD;
     2392    27555
     2393    27556    3      DO I = 0 TO 511;

  27556 35 011566   000342 450000 0                  STZ     I

     2394    27557    3        SUBSTR (TABLE$ -> LCNST.CONST, I, 1) = BITASC('777'O);

  27557 35 011567   000341 470400 0                  LDP0    @TABLE$
        35 011570   000000 471500                    LDP1    0,,PR0
        35 011571   000342 235000 0                  LDA     I
        35 011572   040105 100400                    MLR     fill='040'O
        35 011573   000246 000001 36                 ADSC9   166                      cn=0,n=1
        35 011574   100001 000001                    ADSC9   1,A,PR1                  cn=0,n=1

     2395    27558    3      END; /* Do */

  27558 35 011575   000342 054000 0                  AOS     I
        35 011576   000342 235000 0                  LDA     I
        35 011577   000777 115007                    CMPA    511,DL
        35 011600   011567 604400 35                 TMOZ    s:27557

     2396    27559
     2397    27560    2   END INITIALIZE_TRANS_TABLE;

  27560 35 011601   000340 221200 0                  LDX1  ! @BUFFER_LENGTH+1
PL6.E3A0      #001=Z8EM$SEMANTICS_DATA_DIV File=Z8EM.:Z8A6TSI                    SAT 08/09/97 12:08 Page:567
        35 011602   000001 702211                    TSX2  ! 1,X1

     2398    27561        %EJECT;
PL6.E3A0      #001=Z8EM$SEMANTICS_DATA_DIV File=Z8EM.:Z8A6TSI                    SAT 08/09/97 12:08 Page:568
     2399    27562        /*==================*/
     2400    27563    1     INVALID_SD_CLAUSES: PROC (LTS$$);

  27563 35 011603   000343 741200 0     INVALID_SD_* STX1  ! I+1

     2401    27564        /*==================*/
     2402    27565
     2403    27566    2        DCL LTS$$         PTR;
     2404    27567    2        DCL CLAUSE_ERROR  BIT (1) ALIGNED;
     2405    27568
     2406    27569
     2407    27570             %MACRO CLAUSE_ERROR;
     2408    27571               DO;
     2409    27572                 CALL Z8AE$ERROR (%E$CLAUSE_INVALID_IN_SORT,
     2410    27573                                  BINBIT (LTS$$ -> FILE_LTS.ST$ -> FD.LINE_NO,36),
     2411    27574                                  0);
     2412    27575                 RETURN;
     2413    27576               END;
     2414    27577             %MEND;
     2415    27578
     2416    27579        %EJECT;
PL6.E3A0      #001=Z8EM$SEMANTICS_DATA_DIV File=Z8EM.:Z8A6TSI                    SAT 08/09/97 12:08 Page:569
     2417    27580
     2418    27581    2        IF LTS$$ -> FILE_LTS.ORGANIZATION ~= %NOT_SPECIFIED THEN

  27581 35 011604   000344 470400 0                  LDP0    @LTS$$
        35 011605   000000 471500                    LDP1    0,,PR0
        35 011606   100006 235100                    LDA     6,,PR1
        35 011607   011630 600000 35                 TZE     s:27591

     2419    27582               %CLAUSE_ERROR;

  27584 35 011610   100001 473500                    LDP3    1,,PR1
        35 011611   300002 236100                    LDQ     2,,PR3
        35 011612   777777 376007                    ANQ     -1,DL
        35 011613   001012 756000 0                  STQ     PROC$+2
        35 011614   000015 236000 36                 LDQ     13
        35 011615   001016 756000 0                  STQ     PROC$+6
        35 011616   001012 631400 0                  EPPR1   PROC$+2
        35 011617   001015 451400 0                  STP1    PROC$+5
        35 011620   000250 236000 36                 LDQ     168
        35 011621   001014 756000 0                  STQ     PROC$+4
        35 011622   001014 630400 0                  EPPR0   PROC$+4
        35 011623   000000 631400 36                 EPPR1   0
        35 011624   000000 701000 xent               TSX1    Z8AE$ERROR
        35 011625   000000 011000                    NOP     0

  27587 35 011626   000343 221200 0                  LDX1  ! I+1
        35 011627   000001 702211                    TSX2  ! 1,X1

     2420    27590
     2421    27591    2        IF LTS$$ -> FILE_LTS.ACCESS_MODE ~= %NOT_SPECIFIED THEN

  27591 35 011630   100011 235100                    LDA     9,,PR1
        35 011631   011652 600000 35                 TZE     s:27601

     2422    27592               %CLAUSE_ERROR;

  27594 35 011632   100001 473500                    LDP3    1,,PR1
PL6.E3A0      #001=Z8EM$SEMANTICS_DATA_DIV File=Z8EM.:Z8A6TSI                    SAT 08/09/97 12:08 Page:570
        35 011633   300002 236100                    LDQ     2,,PR3
        35 011634   777777 376007                    ANQ     -1,DL
        35 011635   001012 756000 0                  STQ     PROC$+2
        35 011636   000015 236000 36                 LDQ     13
        35 011637   001016 756000 0                  STQ     PROC$+6
        35 011640   001012 631400 0                  EPPR1   PROC$+2
        35 011641   001015 451400 0                  STP1    PROC$+5
        35 011642   000250 236000 36                 LDQ     168
        35 011643   001014 756000 0                  STQ     PROC$+4
        35 011644   001014 630400 0                  EPPR0   PROC$+4
        35 011645   000000 631400 36                 EPPR1   0
        35 011646   000000 701000 xent               TSX1    Z8AE$ERROR
        35 011647   000000 011000                    NOP     0

  27597 35 011650   000343 221200 0                  LDX1  ! I+1
        35 011651   000001 702211                    TSX2  ! 1,X1

     2423    27600
     2424    27601    2        IF LTS$$ -> FILE_LTS.B.OPTIONAL_FILE THEN

  27601 35 011652   100017 236100                    LDQ     15,,PR1
        35 011653   200000 316003                    CANQ    65536,DU
        35 011654   011675 600000 35                 TZE     s:27611

     2425    27602               %CLAUSE_ERROR;

  27604 35 011655   100001 473500                    LDP3    1,,PR1
        35 011656   300002 236100                    LDQ     2,,PR3
        35 011657   777777 376007                    ANQ     -1,DL
        35 011660   001012 756000 0                  STQ     PROC$+2
        35 011661   000015 236000 36                 LDQ     13
        35 011662   001016 756000 0                  STQ     PROC$+6
        35 011663   001012 631400 0                  EPPR1   PROC$+2
        35 011664   001015 451400 0                  STP1    PROC$+5
        35 011665   000250 236000 36                 LDQ     168
        35 011666   001014 756000 0                  STQ     PROC$+4
        35 011667   001014 630400 0                  EPPR0   PROC$+4
PL6.E3A0      #001=Z8EM$SEMANTICS_DATA_DIV File=Z8EM.:Z8A6TSI                    SAT 08/09/97 12:08 Page:571
        35 011670   000000 631400 36                 EPPR1   0
        35 011671   000000 701000 xent               TSX1    Z8AE$ERROR
        35 011672   000000 011000                    NOP     0

  27607 35 011673   000343 221200 0                  LDX1  ! I+1
        35 011674   000001 702211                    TSX2  ! 1,X1

     2426    27610
     2427    27611    2        IF LTS$$ -> FILE_LTS.RELATIVE_KEY$ ~= ADDR(NIL) THEN

  27611 35 011675   100014 236100                    LDQ     12,,PR1
        35 011676   000024 116000 36                 CMPQ    20
        35 011677   011720 600000 35                 TZE     s:27621

     2428    27612               %CLAUSE_ERROR;

  27614 35 011700   100001 473500                    LDP3    1,,PR1
        35 011701   300002 236100                    LDQ     2,,PR3
        35 011702   777777 376007                    ANQ     -1,DL
        35 011703   001012 756000 0                  STQ     PROC$+2
        35 011704   000015 236000 36                 LDQ     13
        35 011705   001016 756000 0                  STQ     PROC$+6
        35 011706   001012 631400 0                  EPPR1   PROC$+2
        35 011707   001015 451400 0                  STP1    PROC$+5
        35 011710   000250 236000 36                 LDQ     168
        35 011711   001014 756000 0                  STQ     PROC$+4
        35 011712   001014 630400 0                  EPPR0   PROC$+4
        35 011713   000000 631400 36                 EPPR1   0
        35 011714   000000 701000 xent               TSX1    Z8AE$ERROR
        35 011715   000000 011000                    NOP     0

  27617 35 011716   000343 221200 0                  LDX1  ! I+1
        35 011717   000001 702211                    TSX2  ! 1,X1

     2429    27620
     2430    27621    2        IF LTS$$ -> FILE_LTS.RECORD_KEY$ ~= ADDR(NIL) THEN

PL6.E3A0      #001=Z8EM$SEMANTICS_DATA_DIV File=Z8EM.:Z8A6TSI                    SAT 08/09/97 12:08 Page:572
  27621 35 011720   100015 236100                    LDQ     13,,PR1
        35 011721   000024 116000 36                 CMPQ    20
        35 011722   011743 600000 35                 TZE     s:27631

     2431    27622               %CLAUSE_ERROR;

  27624 35 011723   100001 473500                    LDP3    1,,PR1
        35 011724   300002 236100                    LDQ     2,,PR3
        35 011725   777777 376007                    ANQ     -1,DL
        35 011726   001012 756000 0                  STQ     PROC$+2
        35 011727   000015 236000 36                 LDQ     13
        35 011730   001016 756000 0                  STQ     PROC$+6
        35 011731   001012 631400 0                  EPPR1   PROC$+2
        35 011732   001015 451400 0                  STP1    PROC$+5
        35 011733   000250 236000 36                 LDQ     168
        35 011734   001014 756000 0                  STQ     PROC$+4
        35 011735   001014 630400 0                  EPPR0   PROC$+4
        35 011736   000000 631400 36                 EPPR1   0
        35 011737   000000 701000 xent               TSX1    Z8AE$ERROR
        35 011740   000000 011000                    NOP     0

  27627 35 011741   000343 221200 0                  LDX1  ! I+1
        35 011742   000001 702211                    TSX2  ! 1,X1

     2432    27630
     2433    27631    2        IF LTS$$ -> FILE_LTS.ALT_RECORD_KEY$ ~= ADDR(NIL) THEN

  27631 35 011743   100016 236100                    LDQ     14,,PR1
        35 011744   000024 116000 36                 CMPQ    20
        35 011745   011766 600000 35                 TZE     s:27641

     2434    27632               %CLAUSE_ERROR;

  27634 35 011746   100001 473500                    LDP3    1,,PR1
        35 011747   300002 236100                    LDQ     2,,PR3
        35 011750   777777 376007                    ANQ     -1,DL
        35 011751   001012 756000 0                  STQ     PROC$+2
PL6.E3A0      #001=Z8EM$SEMANTICS_DATA_DIV File=Z8EM.:Z8A6TSI                    SAT 08/09/97 12:08 Page:573
        35 011752   000015 236000 36                 LDQ     13
        35 011753   001016 756000 0                  STQ     PROC$+6
        35 011754   001012 631400 0                  EPPR1   PROC$+2
        35 011755   001015 451400 0                  STP1    PROC$+5
        35 011756   000250 236000 36                 LDQ     168
        35 011757   001014 756000 0                  STQ     PROC$+4
        35 011760   001014 630400 0                  EPPR0   PROC$+4
        35 011761   000000 631400 36                 EPPR1   0
        35 011762   000000 701000 xent               TSX1    Z8AE$ERROR
        35 011763   000000 011000                    NOP     0

  27637 35 011764   000343 221200 0                  LDX1  ! I+1
        35 011765   000001 702211                    TSX2  ! 1,X1

     2435    27640
     2436    27641    2        IF LTS$$ -> FILE_LTS.FILE_STATUS$ ~= ADDR(NIL) THEN

  27641 35 011766   100012 236100                    LDQ     10,,PR1
        35 011767   000024 116000 36                 CMPQ    20
        35 011770   012011 600000 35                 TZE     s:27651

     2437    27642               %CLAUSE_ERROR;

  27644 35 011771   100001 473500                    LDP3    1,,PR1
        35 011772   300002 236100                    LDQ     2,,PR3
        35 011773   777777 376007                    ANQ     -1,DL
        35 011774   001012 756000 0                  STQ     PROC$+2
        35 011775   000015 236000 36                 LDQ     13
        35 011776   001016 756000 0                  STQ     PROC$+6
        35 011777   001012 631400 0                  EPPR1   PROC$+2
        35 012000   001015 451400 0                  STP1    PROC$+5
        35 012001   000250 236000 36                 LDQ     168
        35 012002   001014 756000 0                  STQ     PROC$+4
        35 012003   001014 630400 0                  EPPR0   PROC$+4
        35 012004   000000 631400 36                 EPPR1   0
        35 012005   000000 701000 xent               TSX1    Z8AE$ERROR
        35 012006   000000 011000                    NOP     0
PL6.E3A0      #001=Z8EM$SEMANTICS_DATA_DIV File=Z8EM.:Z8A6TSI                    SAT 08/09/97 12:08 Page:574

  27647 35 012007   000343 221200 0                  LDX1  ! I+1
        35 012010   000001 702211                    TSX2  ! 1,X1

     2438    27650
     2439    27651    2        IF LTS$$ -> FILE_LTS.PAD_CHAR$ ~= ADDR(NIL) THEN

  27651 35 012011   100007 236100                    LDQ     7,,PR1
        35 012012   000024 116000 36                 CMPQ    20
        35 012013   012034 600000 35                 TZE     s:27661

     2440    27652               %CLAUSE_ERROR;

  27654 35 012014   100001 473500                    LDP3    1,,PR1
        35 012015   300002 236100                    LDQ     2,,PR3
        35 012016   777777 376007                    ANQ     -1,DL
        35 012017   001012 756000 0                  STQ     PROC$+2
        35 012020   000015 236000 36                 LDQ     13
        35 012021   001016 756000 0                  STQ     PROC$+6
        35 012022   001012 631400 0                  EPPR1   PROC$+2
        35 012023   001015 451400 0                  STP1    PROC$+5
        35 012024   000250 236000 36                 LDQ     168
        35 012025   001014 756000 0                  STQ     PROC$+4
        35 012026   001014 630400 0                  EPPR0   PROC$+4
        35 012027   000000 631400 36                 EPPR1   0
        35 012030   000000 701000 xent               TSX1    Z8AE$ERROR
        35 012031   000000 011000                    NOP     0

  27657 35 012032   000343 221200 0                  LDX1  ! I+1
        35 012033   000001 702211                    TSX2  ! 1,X1

     2441    27660
     2442    27661    2        IF LTS$$ -> FILE_LTS.RECORD_DELIM ~= %NOT_SPECIFIED THEN

  27661 35 012034   100010 235100                    LDA     8,,PR1
        35 012035   012056 600000 35                 TZE     s:27671

PL6.E3A0      #001=Z8EM$SEMANTICS_DATA_DIV File=Z8EM.:Z8A6TSI                    SAT 08/09/97 12:08 Page:575
     2443    27662               %CLAUSE_ERROR;

  27664 35 012036   100001 473500                    LDP3    1,,PR1
        35 012037   300002 236100                    LDQ     2,,PR3
        35 012040   777777 376007                    ANQ     -1,DL
        35 012041   001012 756000 0                  STQ     PROC$+2
        35 012042   000015 236000 36                 LDQ     13
        35 012043   001016 756000 0                  STQ     PROC$+6
        35 012044   001012 631400 0                  EPPR1   PROC$+2
        35 012045   001015 451400 0                  STP1    PROC$+5
        35 012046   000250 236000 36                 LDQ     168
        35 012047   001014 756000 0                  STQ     PROC$+4
        35 012050   001014 630400 0                  EPPR0   PROC$+4
        35 012051   000000 631400 36                 EPPR1   0
        35 012052   000000 701000 xent               TSX1    Z8AE$ERROR
        35 012053   000000 011000                    NOP     0

  27667 35 012054   000343 221200 0                  LDX1  ! I+1
        35 012055   000001 702211                    TSX2  ! 1,X1

     2444    27670
     2445    27671    2        IF LTS$$ -> FILE_LTS.NO_OF_AREAS ~= -1 THEN

  27671 35 012056   100005 235100                    LDA     5,,PR1
        35 012057   000251 115000 36                 CMPA    169
        35 012060   012101 600000 35                 TZE     s:27681

     2446    27672               %CLAUSE_ERROR;

  27674 35 012061   100001 473500                    LDP3    1,,PR1
        35 012062   300002 236100                    LDQ     2,,PR3
        35 012063   777777 376007                    ANQ     -1,DL
        35 012064   001012 756000 0                  STQ     PROC$+2
        35 012065   000015 236000 36                 LDQ     13
        35 012066   001016 756000 0                  STQ     PROC$+6
        35 012067   001012 631400 0                  EPPR1   PROC$+2
        35 012070   001015 451400 0                  STP1    PROC$+5
PL6.E3A0      #001=Z8EM$SEMANTICS_DATA_DIV File=Z8EM.:Z8A6TSI                    SAT 08/09/97 12:08 Page:576
        35 012071   000250 236000 36                 LDQ     168
        35 012072   001014 756000 0                  STQ     PROC$+4
        35 012073   001014 630400 0                  EPPR0   PROC$+4
        35 012074   000000 631400 36                 EPPR1   0
        35 012075   000000 701000 xent               TSX1    Z8AE$ERROR
        35 012076   000000 011000                    NOP     0

  27677 35 012077   000343 221200 0                  LDX1  ! I+1
        35 012100   000001 702211                    TSX2  ! 1,X1

     2447    27680
     2448    27681    2   END INVALID_SD_CLAUSES;

  27681 35 012101   000001 702211                    TSX2  ! 1,X1

     2449    27682        %EJECT;
PL6.E3A0      #001=Z8EM$SEMANTICS_DATA_DIV File=Z8EM.:Z8A6TSI                    SAT 08/09/97 12:08 Page:577
     2450    27683        /*===========*/
     2451    27684    1     LEVEL_CHECK: PROC (LEVEL_NO$, LARGE$);

  27684 35 012102   000346 741200 0     LEVEL_CHECK  STX1  ! CLAUSE_ERROR+1

     2452    27685        /*===========*/
     2453    27686
     2454    27687               %EQU LEVEL_66 = 66;
     2455    27688               %EQU LEVEL_66_TEXT = '66';
     2456    27689               %EQU LEVEL_66_LENGTH = 2 ;
     2457    27690
     2458    27691    2          DCL LEVEL_NO$        PTR;
     2459    27692    2          DCL LARGE$           PTR;
     2460    27693    2          DCL LEVEL#           SBIN WORD;
     2461    27694    2          DCL DNT$$            PTR;
     2462    27695
     2463    27696
     2464    27697    2          IF LARGE$ -> LX_LARGE.LARGE_ITEM$ ->

  27697 35 012103   000350 470400 0                  LDP0    @LARGE$
        35 012104   000000 471500                    LDP1    0,,PR0
        35 012105   100001 473500                    LDP3    1,,PR1
        35 012106   300006 236100                    LDQ     6,,PR3
        35 012107   000024 116000 36                 CMPQ    20
        35 012110   012145 600000 35                 TZE     s:27712

     2465    27698    2                       LX_REC_DECL.P.RENAMES$ ~= ADDR(NIL)  THEN
     2466    27699    3            DO;

     2467    27700    3              CALL CHARBIN(LEVEL#,LEVEL_NO$ -> LX_TERMINAL.DNT$ -> DNT.TEXT.NAME);

  27700 35 012111   000347 474400 0                  LDP4    @LEVEL_NO$
        35 012112   400000 475500                    LDP5    0,,PR4
        35 012113   500002 476500                    LDP6    2,,PR5
        35 012114   600004 220100                    LDX0    4,,PR6
        35 012115   000000 305540                    DTB
        35 012116   600004 430010                    NDSC9   4,,PR6                   cn=2,s=nosgn,sf=0,n=*X0
PL6.E3A0      #001=Z8EM$SEMANTICS_DATA_DIV File=Z8EM.:Z8A6TSI                    SAT 08/09/97 12:08 Page:578
        35 012117   000351 000004 0                  NDSC9   LEVEL#                   cn=0,s=lsgnf,sf=0,n=4

     2468    27701    3              IF LEVEL# ~= %LEVEL_66 THEN

  27701 35 012120   000351 235000 0                  LDA     LEVEL#
        35 012121   000102 115007                    CMPA    66,DL
        35 012122   012145 600000 35                 TZE     s:27712

     2469    27702    4                DO;

     2470    27703    4                  CALL Z8AE$ERROR (%E$ONLY_66_IN_RENAMES,

  27703 35 012123   500006 637500                    EPPR7   6,,PR5
        35 012124   001014 457400 0                  STP7    PROC$+4
        35 012125   500005 631500                    EPPR1   5,,PR5
        35 012126   001013 451400 0                  STP1    PROC$+3
        35 012127   000253 236000 36                 LDQ     171
        35 012130   001012 756000 0                  STQ     PROC$+2
        35 012131   001012 630400 0                  EPPR0   PROC$+2
        35 012132   000000 631400 36                 EPPR1   0
        35 012133   000000 701000 xent               TSX1    Z8AE$ERROR
        35 012134   000000 011000                    NOP     0

     2471    27704    4                                   LEVEL_NO$ -> LX_TERMINAL.LINE,
     2472    27705    4                                   LEVEL_NO$ -> LX_TERMINAL.COLUMN);
     2473    27706    4                  CALL Z8AH$NEW_DNT(%LEVEL_66_TEXT,

  27706 35 012135   000255 630400 36                 EPPR0   173
        35 012136   000000 631400 36                 EPPR1   0
        35 012137   000000 701000 xent               TSX1    Z8AH$NEW_DNT
        35 012140   000000 011000                    NOP     0

     2474    27707    4                                    %LEVEL_66_LENGTH,
     2475    27708    4                                    DNT$$);
     2476    27709    4                  LEVEL_NO$ -> LX_ITEM.DNT$ = DNT$$;

  27709 35 012141   000347 470400 0                  LDP0    @LEVEL_NO$
PL6.E3A0      #001=Z8EM$SEMANTICS_DATA_DIV File=Z8EM.:Z8A6TSI                    SAT 08/09/97 12:08 Page:579
        35 012142   000000 471500                    LDP1    0,,PR0
        35 012143   000352 236000 0                  LDQ     DNT$$
        35 012144   100002 756100                    STQ     2,,PR1

     2477    27710    4                END;

     2478    27711    3            END; /* THERE IS A RENAMES - IF */

     2479    27712    2        RETURN;

  27712 35 012145   000346 221200 0                  LDX1  ! CLAUSE_ERROR+1
        35 012146   000001 702211                    TSX2  ! 1,X1

     2480    27713    2      END LEVEL_CHECK;
     2481    27714
     2482    27715        %EJECT;
PL6.E3A0      #001=Z8EM$SEMANTICS_DATA_DIV File=Z8EM.:Z8A6TSI                    SAT 08/09/97 12:08 Page:580
     2483    27716        /*============*/
     2484    27717    1     LIT_THRU_LIT: PROC (LIT_THRU_LIST$, ITEM_ST$$, NEXT_SEQ#);

  27717 35 012147   000353 741200 0     LIT_THRU_LIT STX1  ! DNT$$+1

     2485    27718        /*============*/
     2486    27719
     2487    27720    2   DCL LIT_THRU_LIST$     PTR;
     2488    27721    2   DCL ITEM_ST$$             PTR;
     2489    27722    2   DCL NEXT_SEQ#          UBIN WORD;
     2490    27723    2   DCL DNT$$              PTR;
     2491    27724
     2492    27725    2   DCL ITEM$              PTR;
     2493    27726    2   DCL I                  SBIN WORD;
     2494    27727    2   DCL START_VALUE        SBIN WORD;
     2495    27728    2   DCL END_VALUE          SBIN WORD;
     2496    27729
     2497    27730
     2498    27731    2      ITEM$ = LIT_THRU_LIST$ -> LX_LIST.HEAD$;

  27731 35 012150   000354 470400 0                  LDP0    @LIT_THRU_LIST$
        35 012151   000000 471500                    LDP1    0,,PR0
        35 012152   100004 236100                    LDQ     4,,PR1
        35 012153   000360 756000 0                  STQ     ITEM$

     2499    27732
     2500    27733           %CHECK_FOR_GTR_1_CHAR (@TERMINAL$ = ITEM$, @NEW_DNT$ = DNT$$);

  27735 35 012154   000360 471400 0                  LDP1    ITEM$
        35 012155   100003 235100                    LDA     3,,PR1
        35 012156   000003 115007                    CMPA    3,DL
        35 012157   012162 600000 35                 TZE     s:27738
        35 012160   000004 115007                    CMPA    4,DL
        35 012161   012205 601000 35                 TNZ     s:27750

  27738 35 012162   000260 630400 36                 EPPR0   176
        35 012163   000025 631400 36                 EPPR1   21
PL6.E3A0      #001=Z8EM$SEMANTICS_DATA_DIV File=Z8EM.:Z8A6TSI                    SAT 08/09/97 12:08 Page:581
        35 012164   000000 701000 xent               TSX1    Z8EC$INTERNAL_STRING_REP
        35 012165   000000 011000                    NOP     0

  27739 35 012166   000357 470400 0                  LDP0    DNT$$
        35 012167   000004 220100                    LDX0    4,,PR0
        35 012170   000004 100003                    CMPX0   4,DU
        35 012171   012205 602000 35                 TNC     s:27750

  27740 35 012172   000360 236000 0                  LDQ     ITEM$
        35 012173   000006 036003                    ADLQ    6,DU
        35 012174   001014 756000 0                  STQ     PROC$+4
        35 012175   000360 236000 0                  LDQ     ITEM$
        35 012176   000005 036003                    ADLQ    5,DU
        35 012177   000031 235000 36                 LDA     25
        35 012200   001012 757000 0                  STAQ    PROC$+2
        35 012201   001012 630400 0                  EPPR0   PROC$+2
        35 012202   000000 631400 36                 EPPR1   0
        35 012203   000000 701000 xent               TSX1    Z8AE$ERROR
        35 012204   000000 011000                    NOP     0

     2501    27746
     2502    27747           %GET_VALUE (@TERMINAL$ = ITEM$,
     2503    27748                       @DNT$     = DNT$$,
     2504    27749                       @VALUE     = START_VALUE);

  27750 35 012205   000360 470400 0                  LDP0    ITEM$
        35 012206   000003 236100                    LDQ     3,,PR0
        35 012207   000351 116007                    CMPQ    233,DL
        35 012210   012226 604000 35                 TMI     s:27750+17
        35 012211   012261 600000 35                 TZE     s:27758
        35 012212   000543 116007                    CMPQ    355,DL
        35 012213   012223 604000 35                 TMI     s:27750+14
        35 012214   012266 600000 35                 TZE     s:27762
        35 012215   000650 116007                    CMPQ    424,DL
        35 012216   012276 604000 35                 TMI     s:27768
        35 012217   012271 600000 35                 TZE     s:27764
        35 012220   000761 116007                    CMPQ    497,DL
PL6.E3A0      #001=Z8EM$SEMANTICS_DATA_DIV File=Z8EM.:Z8A6TSI                    SAT 08/09/97 12:08 Page:582
        35 012221   012276 601000 35                 TNZ     s:27768
        35 012222   012274 710000 35                 TRA     s:27766
        35 012223   000433 116007                    CMPQ    283,DL
        35 012224   012276 601000 35                 TNZ     s:27768
        35 012225   012264 710000 35                 TRA     s:27760
        35 012226   000004 116007                    CMPQ    4,DL
        35 012227   012234 604000 35                 TMI     s:27750+23
        35 012230   012237 600000 35                 TZE     s:27752
        35 012231   000025 116007                    CMPQ    21,DL
        35 012232   012276 601000 35                 TNZ     s:27768
        35 012233   012251 710000 35                 TRA     s:27755
        35 012234   000003 116007                    CMPQ    3,DL
        35 012235   012276 601000 35                 TNZ     s:27768
        35 012236   012237 710000 35                 TRA     s:27752

  27752 35 012237   000260 630400 36                 EPPR0   176
        35 012240   000025 631400 36                 EPPR1   21
        35 012241   000000 701000 xent               TSX1    Z8EC$INTERNAL_STRING_REP
        35 012242   000000 011000                    NOP     0

  27753 35 012243   000357 470400 0                  LDP0    DNT$$
        35 012244   000004 220100                    LDX0    4,,PR0
        35 012245   000004 236100                    LDQ     4,,PR0
        35 012246   000777 376007                    ANQ     511,DL
        35 012247   000362 756000 0                  STQ     START_VALUE
        35 012250   012313 710000 35                 TRA     s:27778

  27755 35 012251   000002 471500                    LDP1    2,,PR0
        35 012252   100004 220100                    LDX0    4,,PR1
        35 012253   000000 305540                    DTB
        35 012254   100004 430010                    NDSC9   4,,PR1                   cn=2,s=nosgn,sf=0,n=*X0
        35 012255   000362 000004 0                  NDSC9   START_VALUE              cn=0,s=lsgnf,sf=0,n=4

  27756 35 012256   000001 336007                    LCQ     1,DL
        35 012257   000362 056000 0                  ASQ     START_VALUE
        35 012260   012313 710000 35                 TRA     s:27778

PL6.E3A0      #001=Z8EM$SEMANTICS_DATA_DIV File=Z8EM.:Z8A6TSI                    SAT 08/09/97 12:08 Page:583
  27758 35 012261   000177 235007                    LDA     127,DL
        35 012262   000362 755000 0                  STA     START_VALUE
        35 012263   012313 710000 35                 TRA     s:27778

  27760 35 012264   000362 450000 0                  STZ     START_VALUE
        35 012265   012313 710000 35                 TRA     s:27778

  27762 35 012266   000042 235007                    LDA     34,DL
        35 012267   000362 755000 0                  STA     START_VALUE
        35 012270   012313 710000 35                 TRA     s:27778

  27764 35 012271   000040 235007                    LDA     32,DL
        35 012272   000362 755000 0                  STA     START_VALUE
        35 012273   012313 710000 35                 TRA     s:27778

  27766 35 012274   000362 450000 0                  STZ     START_VALUE
        35 012275   012313 710000 35                 TRA     s:27778

  27768 35 012276   000360 236000 0                  LDQ     ITEM$
        35 012277   000006 036003                    ADLQ    6,DU
        35 012300   001014 756000 0                  STQ     PROC$+4
        35 012301   000360 236000 0                  LDQ     ITEM$
        35 012302   000005 036003                    ADLQ    5,DU
        35 012303   000220 235000 36                 LDA     144
        35 012304   001012 757000 0                  STAQ    PROC$+2
        35 012305   001012 630400 0                  EPPR0   PROC$+2
        35 012306   000000 631400 36                 EPPR1   0
        35 012307   000000 701000 xent               TSX1    Z8AE$ERROR
        35 012310   000000 011000                    NOP     0

  27771 35 012311   001000 235007                    LDA     512,DL
        35 012312   000362 755000 0                  STA     START_VALUE

     2505    27774
     2506    27775           %CHECK_FOR_GTR_1_CHAR (@TERMINAL$ = ITEM$ -> LX_TERMINAL.LINK,
     2507    27776                                   @NEW_DNT$  = DNT$$);

PL6.E3A0      #001=Z8EM$SEMANTICS_DATA_DIV File=Z8EM.:Z8A6TSI                    SAT 08/09/97 12:08 Page:584
  27778 35 012313   000360 470400 0                  LDP0    ITEM$
        35 012314   000007 471500                    LDP1    7,,PR0
        35 012315   100003 235100                    LDA     3,,PR1
        35 012316   000003 115007                    CMPA    3,DL
        35 012317   012322 600000 35                 TZE     s:27781
        35 012320   000004 115007                    CMPA    4,DL
        35 012321   012353 601000 35                 TNZ     s:27793

  27781 35 012322   000261 236000 36                 LDQ     177
        35 012323   001013 756000 0                  STQ     PROC$+3
        35 012324   000360 236000 0                  LDQ     ITEM$
        35 012325   000007 036003                    ADLQ    7,DU
        35 012326   001012 756000 0                  STQ     PROC$+2
        35 012327   001012 630400 0                  EPPR0   PROC$+2
        35 012330   000025 631400 36                 EPPR1   21
        35 012331   000000 701000 xent               TSX1    Z8EC$INTERNAL_STRING_REP
        35 012332   000000 011000                    NOP     0

  27782 35 012333   000357 470400 0                  LDP0    DNT$$
        35 012334   000004 220100                    LDX0    4,,PR0
        35 012335   000004 100003                    CMPX0   4,DU
        35 012336   012353 602000 35                 TNC     s:27793

  27783 35 012337   000360 471400 0                  LDP1    ITEM$
        35 012340   100007 473500                    LDP3    7,,PR1
        35 012341   300006 634500                    EPPR4   6,,PR3
        35 012342   001014 454400 0                  STP4    PROC$+4
        35 012343   300005 635500                    EPPR5   5,,PR3
        35 012344   001013 455400 0                  STP5    PROC$+3
        35 012345   000031 236000 36                 LDQ     25
        35 012346   001012 756000 0                  STQ     PROC$+2
        35 012347   001012 630400 0                  EPPR0   PROC$+2
        35 012350   000000 631400 36                 EPPR1   0
        35 012351   000000 701000 xent               TSX1    Z8AE$ERROR
        35 012352   000000 011000                    NOP     0

     2508    27789
PL6.E3A0      #001=Z8EM$SEMANTICS_DATA_DIV File=Z8EM.:Z8A6TSI                    SAT 08/09/97 12:08 Page:585
     2509    27790           %GET_VALUE (@TERMINAL$ = ITEM$ -> LX_TERMINAL.LINK,
     2510    27791                       @DNT$     = DNT$$,
     2511    27792                       @VALUE    = END_VALUE);

  27793 35 012353   000360 470400 0                  LDP0    ITEM$
        35 012354   000007 471500                    LDP1    7,,PR0
        35 012355   100003 236100                    LDQ     3,,PR1
        35 012356   000351 116007                    CMPQ    233,DL
        35 012357   012375 604000 35                 TMI     s:27793+18
        35 012360   012435 600000 35                 TZE     s:27801
        35 012361   000543 116007                    CMPQ    355,DL
        35 012362   012372 604000 35                 TMI     s:27793+15
        35 012363   012442 600000 35                 TZE     s:27805
        35 012364   000650 116007                    CMPQ    424,DL
        35 012365   012452 604000 35                 TMI     s:27811
        35 012366   012445 600000 35                 TZE     s:27807
        35 012367   000761 116007                    CMPQ    497,DL
        35 012370   012452 601000 35                 TNZ     s:27811
        35 012371   012450 710000 35                 TRA     s:27809
        35 012372   000433 116007                    CMPQ    283,DL
        35 012373   012452 601000 35                 TNZ     s:27811
        35 012374   012440 710000 35                 TRA     s:27803
        35 012375   000004 116007                    CMPQ    4,DL
        35 012376   012403 604000 35                 TMI     s:27793+24
        35 012377   012406 600000 35                 TZE     s:27795
        35 012400   000025 116007                    CMPQ    21,DL
        35 012401   012452 601000 35                 TNZ     s:27811
        35 012402   012425 710000 35                 TRA     s:27798
        35 012403   000003 116007                    CMPQ    3,DL
        35 012404   012452 601000 35                 TNZ     s:27811
        35 012405   012406 710000 35                 TRA     s:27795

  27795 35 012406   000261 236000 36                 LDQ     177
        35 012407   001013 756000 0                  STQ     PROC$+3
        35 012410   000360 236000 0                  LDQ     ITEM$
        35 012411   000007 036003                    ADLQ    7,DU
        35 012412   001012 756000 0                  STQ     PROC$+2
PL6.E3A0      #001=Z8EM$SEMANTICS_DATA_DIV File=Z8EM.:Z8A6TSI                    SAT 08/09/97 12:08 Page:586
        35 012413   001012 630400 0                  EPPR0   PROC$+2
        35 012414   000025 631400 36                 EPPR1   21
        35 012415   000000 701000 xent               TSX1    Z8EC$INTERNAL_STRING_REP
        35 012416   000000 011000                    NOP     0

  27796 35 012417   000357 470400 0                  LDP0    DNT$$
        35 012420   000004 220100                    LDX0    4,,PR0
        35 012421   000004 236100                    LDQ     4,,PR0
        35 012422   000777 376007                    ANQ     511,DL
        35 012423   000363 756000 0                  STQ     END_VALUE
        35 012424   012466 710000 35                 TRA     s:27818

  27798 35 012425   100002 473500                    LDP3    2,,PR1
        35 012426   300004 220100                    LDX0    4,,PR3
        35 012427   000000 305540                    DTB
        35 012430   300004 430010                    NDSC9   4,,PR3                   cn=2,s=nosgn,sf=0,n=*X0
        35 012431   000363 000004 0                  NDSC9   END_VALUE                cn=0,s=lsgnf,sf=0,n=4

  27799 35 012432   000001 336007                    LCQ     1,DL
        35 012433   000363 056000 0                  ASQ     END_VALUE
        35 012434   012466 710000 35                 TRA     s:27818

  27801 35 012435   000177 235007                    LDA     127,DL
        35 012436   000363 755000 0                  STA     END_VALUE
        35 012437   012466 710000 35                 TRA     s:27818

  27803 35 012440   000363 450000 0                  STZ     END_VALUE
        35 012441   012466 710000 35                 TRA     s:27818

  27805 35 012442   000042 235007                    LDA     34,DL
        35 012443   000363 755000 0                  STA     END_VALUE
        35 012444   012466 710000 35                 TRA     s:27818

  27807 35 012445   000040 235007                    LDA     32,DL
        35 012446   000363 755000 0                  STA     END_VALUE
        35 012447   012466 710000 35                 TRA     s:27818

PL6.E3A0      #001=Z8EM$SEMANTICS_DATA_DIV File=Z8EM.:Z8A6TSI                    SAT 08/09/97 12:08 Page:587
  27809 35 012450   000363 450000 0                  STZ     END_VALUE
        35 012451   012466 710000 35                 TRA     s:27818

  27811 35 012452   100006 633500                    EPPR3   6,,PR1
        35 012453   001014 453400 0                  STP3    PROC$+4
        35 012454   100005 634500                    EPPR4   5,,PR1
        35 012455   001013 454400 0                  STP4    PROC$+3
        35 012456   000220 236000 36                 LDQ     144
        35 012457   001012 756000 0                  STQ     PROC$+2
        35 012460   001012 630400 0                  EPPR0   PROC$+2
        35 012461   000000 631400 36                 EPPR1   0
        35 012462   000000 701000 xent               TSX1    Z8AE$ERROR
        35 012463   000000 011000                    NOP     0

  27814 35 012464   001000 235007                    LDA     512,DL
        35 012465   000363 755000 0                  STA     END_VALUE

     2512    27817
     2513    27818    2      IF START_VALUE = 512 OR END_VALUE = 512 THEN

  27818 35 012466   000362 235000 0                  LDA     START_VALUE
        35 012467   001000 115007                    CMPA    512,DL
        35 012470   012536 600000 35                 TZE     EXIT_LOOP
        35 012471   000363 236000 0                  LDQ     END_VALUE
        35 012472   001000 116007                    CMPQ    512,DL
        35 012473   012536 600000 35                 TZE     EXIT_LOOP

     2514    27819    2        GOTO EXIT_LOOP;
     2515    27820
     2516    27821    2      IF START_VALUE < END_VALUE THEN

  27821 35 012474   000362 116000 0                  CMPQ    START_VALUE
        35 012475   012516 604400 35                 TMOZ    s:27826

     2517    27822    3        DO I = START_VALUE TO END_VALUE;

  27822 35 012476   000361 755000 0                  STA     I
PL6.E3A0      #001=Z8EM$SEMANTICS_DATA_DIV File=Z8EM.:Z8A6TSI                    SAT 08/09/97 12:08 Page:588
        35 012477   012512 710000 35                 TRA     s:27824+1

     2518    27823    3          CALL ENTER_VALUE (ITEM$, ITEM_ST$$, I, NEXT_SEQ#) ALTRET (EXIT_LOOP);

  27823 35 012500   000356 236000 0                  LDQ     @NEXT_SEQ#
        35 012501   000270 756000 0                  STQ     @NEXT_SEQ#
        35 012502   000262 236000 36                 LDQ     178
        35 012503   000355 235000 0                  LDA     @ITEM_ST$$
        35 012504   000266 757000 0                  STAQ    @ST$$
        35 012505   000260 236000 36                 LDQ     176
        35 012506   000265 756000 0                  STQ     @LIT$
        35 012507   010061 701000 35                 TSX1    ENTER_VALUE
        35 012510   012536 702000 35                 TSX2    EXIT_LOOP

     2519    27824    3        END;

  27824 35 012511   000361 054000 0                  AOS     I
        35 012512   000361 236000 0                  LDQ     I
        35 012513   000363 116000 0                  CMPQ    END_VALUE
        35 012514   012500 604400 35                 TMOZ    s:27823
        35 012515   012536 710000 35                 TRA     EXIT_LOOP

     2520    27825    2      ELSE
     2521    27826    3        DO I = START_VALUE DOWNTO END_VALUE;

  27826 35 012516   000361 755000 0                  STA     I
        35 012517   012533 710000 35                 TRA     s:27828+2

     2522    27827    3          CALL ENTER_VALUE (ITEM$, ITEM_ST$$, I, NEXT_SEQ#) ALTRET (EXIT_LOOP);

  27827 35 012520   000356 236000 0                  LDQ     @NEXT_SEQ#
        35 012521   000270 756000 0                  STQ     @NEXT_SEQ#
        35 012522   000262 236000 36                 LDQ     178
        35 012523   000355 235000 0                  LDA     @ITEM_ST$$
        35 012524   000266 757000 0                  STAQ    @ST$$
        35 012525   000260 236000 36                 LDQ     176
        35 012526   000265 756000 0                  STQ     @LIT$
PL6.E3A0      #001=Z8EM$SEMANTICS_DATA_DIV File=Z8EM.:Z8A6TSI                    SAT 08/09/97 12:08 Page:589
        35 012527   010061 701000 35                 TSX1    ENTER_VALUE
        35 012530   012536 702000 35                 TSX2    EXIT_LOOP

     2523    27828    3        END;

  27828 35 012531   000001 336007                    LCQ     1,DL
        35 012532   000361 056000 0                  ASQ     I
        35 012533   000361 236000 0                  LDQ     I
        35 012534   000363 116000 0                  CMPQ    END_VALUE
        35 012535   012520 605000 35                 TPL     s:27827

     2524    27829
     2525    27830    2     EXIT_LOOP:
     2526    27831    2       RETURN;

  27831 35 012536   000353 221200 0     EXIT_LOOP    LDX1  ! DNT$$+1
        35 012537   000001 702211                    TSX2  ! 1,X1

     2527    27832    2   END LIT_THRU_LIT;
     2528    27833        %EJECT;
PL6.E3A0      #001=Z8EM$SEMANTICS_DATA_DIV File=Z8EM.:Z8A6TSI                    SAT 08/09/97 12:08 Page:590
     2529    27834        /*===============*/
     2530    27835    1     MNEMONIC_ASSIGN: PROC (MNEMONIC_SYMBOL, MNEMONIC_NAME$);

  27835 35 012540   000364 741200 0     MNEMONIC_AS* STX1  ! END_VALUE+1

     2531    27836        /*===============*/
     2532    27837
     2533    27838    2   DCL MNEMONIC_SYMBOL    SBIN WORD;
     2534    27839    2   DCL MNEMONIC_NAME$     PTR;
     2535    27840
     2536    27841    2   DCL MNEMONIC$$         PTR;
     2537    27842
     2538    27843    3      DO SELECT (MNEMONIC_NAME$ -> LX_TERMINAL.SYMBOL);

  27843 35 012541   000366 470400 0                  LDP0    @MNEMONIC_NAME$
        35 012542   000000 471500                    LDP1    0,,PR0
        35 012543   100003 236100                    LDQ     3,,PR1
        35 012544   000155 116007                    CMPQ    109,DL
        35 012545   012560 604000 35                 TMI     s:27843+15
        35 012546   012567 600000 35                 TZE     s:27844
        35 012547   000700 116007                    CMPQ    448,DL
        35 012550   012555 604000 35                 TMI     s:27843+12
        35 012551   012567 600000 35                 TZE     s:27844
        35 012552   000701 116007                    CMPQ    449,DL
        35 012553   013037 601000 35                 TNZ     s:27993
        35 012554   012567 710000 35                 TRA     s:27844
        35 012555   000513 116007                    CMPQ    331,DL
        35 012556   013037 601000 35                 TNZ     s:27993
        35 012557   012567 710000 35                 TRA     s:27844
        35 012560   000027 116007                    CMPQ    23,DL
        35 012561   012564 604000 35                 TMI     s:27843+19
        35 012562   012570 600000 35                 TZE     s:27858
        35 012563   013037 710000 35                 TRA     s:27993
        35 012564   000005 116007                    CMPQ    5,DL
        35 012565   013037 601000 35                 TNZ     s:27993
        35 012566   012570 710000 35                 TRA     s:27858

PL6.E3A0      #001=Z8EM$SEMANTICS_DATA_DIV File=Z8EM.:Z8A6TSI                    SAT 08/09/97 12:08 Page:591
     2539    27844    3        SELECT (%RSV_WRD_SYSOUT, %RSV_WRD_SYSIN,

  27844 35 012567   013051 710000 35                 TRA     s:27998

     2540    27845    3              %RSV_WRD_CONSOLE, %RSV_WRD_PAGE);
     2541    27846    3          /* No changes necessary */;
     2542    27847
     2543    27848    3        SELECT (%NAME, %NAME_OR_PARA);

     2544    27849               %NEW_MNEMONIC (@ST$      = MNEMONIC$$,
     2545    27850                              @MNEMONIC_NAME = TRUE,
     2546    27851                              @NAME     = MNEMONIC_SYMBOL,
     2547    27852                              @LINE_NO  = MNEMONIC_NAME$ -> LX_ITEM.LINE,
     2548    27853                              @DNT$     = MNEMONIC_NAME$ -> LX_ITEM.DNT$,
     2549    27854                              @NEXT     = MNEMONIC_NAME$ -> LX_ITEM.DNT$ -> DNT.ST$);

  27858 35 012570   000002 236000 13                 LDQ     ST_+2
        35 012571   000013 036007                    ADLQ    11,DL
        35 012572   000003 116000 13                 CMPQ    ST_+3
        35 012573   012604 604000 35                 TMI     s:27860

  27859 35 012574   000102 236000 36                 LDQ     66
        35 012575   001012 756000 0                  STQ     PROC$+2
        35 012576   001012 631400 0                  EPPR1   PROC$+2
        35 012577   001013 451400 0                  STP1    PROC$+3
        35 012600   001013 630400 0                  EPPR0   PROC$+3
        35 012601   000036 631400 36                 EPPR1   30
        35 012602   000000 701000 xent               TSX1    Z8AR$RESERVER
        35 012603   000000 011000                    NOP     0

  27860 35 012604   000002 236000 13                 LDQ     ST_+2
        35 012605   000022 736000                    QLS     18
        35 012606   000001 036000 13                 ADLQ    ST_+1
        35 012607   000367 756000 0                  STQ     MNEMONIC$$

  27861 35 012610   000013 236007                    LDQ     11,DL
        35 012611   000002 056000 13                 ASQ     ST_+2
PL6.E3A0      #001=Z8EM$SEMANTICS_DATA_DIV File=Z8EM.:Z8A6TSI                    SAT 08/09/97 12:08 Page:592

  27864 35 012612   000761 220003                    LDX0    497,DU
        35 012613   000367 470400 0                  LDP0    MNEMONIC$$
        35 012614   000000 740100                    STX0    0,,PR0

  27865 35 012615   000020 221003                    LDX1    16,DU
        35 012616   000002 741100                    STX1    2,,PR0

  27866 35 012617   000366 471400 0                  LDP1    @MNEMONIC_NAME$
        35 012620   100000 473500                    LDP3    0,,PR1
        35 012621   300005 722100                    LXL2    5,,PR3
        35 012622   000002 442100                    SXL2    2,,PR0

  27867 35 012623   000003 450100                    STZ     3,,PR0

  27868 35 012624   100000 473500                    LDP3    0,,PR1
        35 012625   300002 474500                    LDP4    2,,PR3
        35 012626   400001 236100                    LDQ     1,,PR4
        35 012627   000004 756100                    STQ     4,,PR0

  27869 35 012630   100000 473500                    LDP3    0,,PR1
        35 012631   300002 236100                    LDQ     2,,PR3
        35 012632   000006 756100                    STQ     6,,PR0

  27870 35 012633   000024 236000 36                 LDQ     20
        35 012634   000007 756100                    STQ     7,,PR0

  27874 35 012635   000024 236000 36                 LDQ     20
        35 012636   000012 756100                    STQ     10,,PR0

  27877 35 012637   000057 236000 xsym               LDQ     O1COM+47
        35 012640   000011 756100                    STQ     9,,PR0

  27878 35 012641   000057 236000 xsym               LDQ     O1COM+47
        35 012642   000024 116000 36                 CMPQ    20
        35 012643   012665 600000 35                 TZE     s:27913

PL6.E3A0      #001=Z8EM$SEMANTICS_DATA_DIV File=Z8EM.:Z8A6TSI                    SAT 08/09/97 12:08 Page:593
  27882 35 012644   000057 473400 xsym               LDP3    O1COM+47
        35 012645   300001 474500                    LDP4    1,,PR3
        35 012646   400012 236100                    LDQ     10,,PR4
        35 012647   000024 116000 36                 CMPQ    20
        35 012650   012657 601000 35                 TNZ     s:27889

  27884 35 012651   000367 236000 0                  LDQ     MNEMONIC$$
        35 012652   400011 756100                    STQ     9,,PR4

  27885 35 012653   000057 473400 xsym               LDP3    O1COM+47
        35 012654   300001 474500                    LDP4    1,,PR3
        35 012655   400012 756100                    STQ     10,,PR4

  27886 35 012656   012665 710000 35                 TRA     s:27913

  27889 35 012657   400012 475500                    LDP5    10,,PR4
        35 012660   000367 236000 0                  LDQ     MNEMONIC$$
        35 012661   500012 756100                    STQ     10,,PR5

  27890 35 012662   000057 473400 xsym               LDP3    O1COM+47
        35 012663   300001 474500                    LDP4    1,,PR3
        35 012664   400012 756100                    STQ     10,,PR4

  27913 35 012665   000365 473400 0                  LDP3    @MNEMONIC_SYMBOL
        35 012666   300000 235100                    LDA     0,,PR3
        35 012667   000001 755100                    STA     1,,PR0

  27924 35 012670   100000 236003                    LDQ     32768,DU
        35 012671   000003 256100                    ORSQ    3,,PR0

     2550    27931
     2551    27932    3          MNEMONIC_NAME$ -> LX_ITEM.DNT$ -> DNT.ST$ = MNEMONIC$$;

  27932 35 012672   100000 474500                    LDP4    0,,PR1
        35 012673   400002 475500                    LDP5    2,,PR4
        35 012674   000367 236000 0                  LDQ     MNEMONIC$$
        35 012675   500001 756100                    STQ     1,,PR5
PL6.E3A0      #001=Z8EM$SEMANTICS_DATA_DIV File=Z8EM.:Z8A6TSI                    SAT 08/09/97 12:08 Page:594

     2552    27933
     2553    27934               %NEW_QLT (@POINTER = MNEMONIC$$ -> MNEMONIC.QLT$,
     2554    27935                         @ST$     = MNEMONIC$$,
     2555    27936                         @DNT$    = MNEMONIC$$ -> MNEMONIC.DNT$,
     2556    27937                         @LEVEL#  = 01);

  27942 35 012676   000002 236000 11                 LDQ     QLT_+2
        35 012677   000006 036007                    ADLQ    6,DL
        35 012700   000003 116000 11                 CMPQ    QLT_+3
        35 012701   012712 602000 35                 TNC     s:27944

  27943 35 012702   000103 236000 36                 LDQ     67
        35 012703   001012 756000 0                  STQ     PROC$+2
        35 012704   001012 634400 0                  EPPR4   PROC$+2
        35 012705   001013 454400 0                  STP4    PROC$+3
        35 012706   001013 630400 0                  EPPR0   PROC$+3
        35 012707   000036 631400 36                 EPPR1   30
        35 012710   000000 701000 xent               TSX1    Z8AR$RESERVER
        35 012711   000000 011000                    NOP     0

  27944 35 012712   000002 236000 11                 LDQ     QLT_+2
        35 012713   000022 736000                    QLS     18
        35 012714   000001 036000 11                 ADLQ    QLT_+1
        35 012715   000367 470400 0                  LDP0    MNEMONIC$$
        35 012716   000007 756100                    STQ     7,,PR0

  27945 35 012717   000002 235000 11                 LDA     QLT_+2
        35 012720   000006 035007                    ADLA    6,DL
        35 012721   000002 755000 11                 STA     QLT_+2

  27946 35 012722   000007 471500                    LDP1    7,,PR0
        35 012723   001053 220003                    LDX0    555,DU
        35 012724   100000 740100                    STX0    0,,PR1

  27949 35 012725   000007 471500                    LDP1    7,,PR0
        35 012726   000024 236000 36                 LDQ     20
PL6.E3A0      #001=Z8EM$SEMANTICS_DATA_DIV File=Z8EM.:Z8A6TSI                    SAT 08/09/97 12:08 Page:595
        35 012727   100001 756100                    STQ     1,,PR1

  27950 35 012730   000007 471500                    LDP1    7,,PR0
        35 012731   000024 236000 36                 LDQ     20
        35 012732   100002 756100                    STQ     2,,PR1

  27951 35 012733   000007 471500                    LDP1    7,,PR0
        35 012734   000024 236000 36                 LDQ     20
        35 012735   100003 756100                    STQ     3,,PR1

  27952 35 012736   000007 471500                    LDP1    7,,PR0
        35 012737   000367 236000 0                  LDQ     MNEMONIC$$
        35 012740   100004 756100                    STQ     4,,PR1

  27953 35 012741   000007 471500                    LDP1    7,,PR0
        35 012742   000006 236100                    LDQ     6,,PR0
        35 012743   100005 756100                    STQ     5,,PR1

  27954 35 012744   000007 471500                    LDP1    7,,PR0
        35 012745   000001 236007                    LDQ     1,DL
        35 012746   100000 552104                    STBQ    0,'04'O,PR1

  27955 35 012747   000007 471500                    LDP1    7,,PR0
        35 012750   000000 236003                    LDQ     0,DU
        35 012751   100000 552110                    STBQ    0,'10'O,PR1

  27956 35 012752   000007 471500                    LDP1    7,,PR0
        35 012753   000104 236000 36                 LDQ     68
        35 012754   100000 356100                    ANSQ    0,,PR1

  27957 35 012755   000007 471500                    LDP1    7,,PR0
        35 012756   000105 236000 36                 LDQ     69
        35 012757   100000 356100                    ANSQ    0,,PR1

  27958 35 012760   000007 471500                    LDP1    7,,PR0
        35 012761   000106 236000 36                 LDQ     70
        35 012762   100000 356100                    ANSQ    0,,PR1
PL6.E3A0      #001=Z8EM$SEMANTICS_DATA_DIV File=Z8EM.:Z8A6TSI                    SAT 08/09/97 12:08 Page:596

  27959 35 012763   000007 471500                    LDP1    7,,PR0
        35 012764   000107 236000 36                 LDQ     71
        35 012765   100000 356100                    ANSQ    0,,PR1

     2557    27962
     2558    27963               %UPDATE_PREV_QLT$ (@NEW_QLT$ = MNEMONIC$$ -> MNEMONIC.QLT$);

  27965 35 012766   000424 236000 xsym               LDQ     COMCOM+276
        35 012767   000024 116000 36                 CMPQ    20
        35 012770   012774 600000 35                 TZE     s:27967

  27966 35 012771   000007 236100                    LDQ     7,,PR0
        35 012772   000424 471400 xsym               LDP1    COMCOM+276
        35 012773   100002 756100                    STQ     2,,PR1

  27967 35 012774   000007 236100                    LDQ     7,,PR0
        35 012775   000424 756000 xsym               STQ     COMCOM+276

     2559    27970
     2560    27971               %ADD_XREF (SYM   = MNEMONIC$$,
     2561    27972                          ISN   = MNEMONIC_NAME$ -> LX_ITEM.LINE,
     2562    27973                          TYPE  = %XREF_DCL);

  27975 35 012776   000055 234000 xsym               SZN     COMCOM+45
        35 012777   013051 605000 35                 TPL     s:27998

  27979 35 013000   000002 236000 24                 LDQ     XREF_+2
        35 013001   000002 036007                    ADLQ    2,DL
        35 013002   000003 116000 24                 CMPQ    XREF_+3
        35 013003   013014 602000 35                 TNC     s:27981

  27980 35 013004   000110 236000 36                 LDQ     72
        35 013005   001012 756000 0                  STQ     PROC$+2
        35 013006   001012 631400 0                  EPPR1   PROC$+2
        35 013007   001013 451400 0                  STP1    PROC$+3
        35 013010   001013 630400 0                  EPPR0   PROC$+3
PL6.E3A0      #001=Z8EM$SEMANTICS_DATA_DIV File=Z8EM.:Z8A6TSI                    SAT 08/09/97 12:08 Page:597
        35 013011   000036 631400 36                 EPPR1   30
        35 013012   000000 701000 xent               TSX1    Z8AR$RESERVER
        35 013013   000000 011000                    NOP     0

  27981 35 013014   000002 236000 24                 LDQ     XREF_+2
        35 013015   000022 736000                    QLS     18
        35 013016   000001 036000 24                 ADLQ    XREF_+1
        35 013017   000000 756000 23                 STQ     XREF$

  27982 35 013020   000002 235000 24                 LDA     XREF_+2
        35 013021   000002 035007                    ADLA    2,DL
        35 013022   000002 755000 24                 STA     XREF_+2

  27983 35 013023   000004 220003                    LDX0    4,DU
        35 013024   000000 470400 23                 LDP0    XREF$
        35 013025   000000 740100                    STX0    0,,PR0

  27986 35 013026   000366 470400 0                  LDP0    @MNEMONIC_NAME$
        35 013027   000000 471500                    LDP1    0,,PR0
        35 013030   100005 721100                    LXL1    5,,PR1
        35 013031   000000 473400 23                 LDP3    XREF$
        35 013032   300000 441100                    SXL1    0,,PR3

  27987 35 013033   000367 236000 0                  LDQ     MNEMONIC$$
        35 013034   000000 471400 23                 LDP1    XREF$
        35 013035   100001 756100                    STQ     1,,PR1

  27989 35 013036   013051 710000 35                 TRA     s:27998

     2563    27991
     2564    27992    3        SELECT (ELSE);

     2565    27993    3          CALL Z8AE$ERROR (%E$UNEXPECTED_CASE,

  27993 35 013037   100006 633500                    EPPR3   6,,PR1
        35 013040   001014 453400 0                  STP3    PROC$+4
        35 013041   100005 634500                    EPPR4   5,,PR1
PL6.E3A0      #001=Z8EM$SEMANTICS_DATA_DIV File=Z8EM.:Z8A6TSI                    SAT 08/09/97 12:08 Page:598
        35 013042   001013 454400 0                  STP4    PROC$+3
        35 013043   000047 236000 36                 LDQ     39
        35 013044   001012 756000 0                  STQ     PROC$+2
        35 013045   001012 630400 0                  EPPR0   PROC$+2
        35 013046   000000 631400 36                 EPPR1   0
        35 013047   000000 701000 xent               TSX1    Z8AE$ERROR
        35 013050   000000 011000                    NOP     0

     2566    27994    3                           MNEMONIC_NAME$ -> LX_ITEM.LINE,
     2567    27995    3                           MNEMONIC_NAME$ -> LX_ITEM.COLUMN);
     2568    27996    3      END; /* Case */

     2569    27997
     2570    27998    2   END MNEMONIC_ASSIGN;

  27998 35 013051   000364 221200 0                  LDX1  ! END_VALUE+1
        35 013052   000001 702211                    TSX2  ! 1,X1

     2571    27999        %EJECT;
PL6.E3A0      #001=Z8EM$SEMANTICS_DATA_DIV File=Z8EM.:Z8A6TSI                    SAT 08/09/97 12:08 Page:599
     2572    28000        /*==================*/
     2573    28001    1     MULTIPLE_FILE_TAPE: PROC (FILE_LIST$);

  28001 35 013053   000370 741200 0     MULTIPLE_FI* STX1  ! MNEMONIC$$+1

     2574    28002        /*==================*/
     2575    28003
     2576    28004    2        DCL FILE_LIST$           PTR;
     2577    28005
     2578    28006    2        DCL LIST$                PTR;
     2579    28007    2        DCL FD$$                 PTR;
     2580    28008    2        DCL LAST$                PTR;
     2581    28009    2        DCL HEAD$                PTR;
     2582    28010    2        DCL LTS$$                PTR;
     2583    28011
     2584    28012
     2585    28013
     2586    28014    2        LAST$ = ADDR(NIL);

  28014 35 013054   000024 236000 36                 LDQ     20
        35 013055   000374 756000 0                  STQ     LAST$

     2587    28015    2        HEAD$ = ADDR(NIL);

  28015 35 013056   000375 756000 0                  STQ     HEAD$

     2588    28016    2        LIST$ = FILE_LIST$ -> LX_LIST.HEAD$;

  28016 35 013057   000371 470400 0                  LDP0    @FILE_LIST$
        35 013060   000000 471500                    LDP1    0,,PR0
        35 013061   100004 236100                    LDQ     4,,PR1
        35 013062   000372 756000 0                  STQ     LIST$

     2589    28017
     2590    28018    3        DO WHILE (LIST$ ~= ADDR(NIL));

  28018 35 013063   013250 710000 35                 TRA     s:28174
PL6.E3A0      #001=Z8EM$SEMANTICS_DATA_DIV File=Z8EM.:Z8A6TSI                    SAT 08/09/97 12:08 Page:600

     2591    28019    3          CALL Z8DO$QUALIFY_TERMINAL (LIST$ -> LX_LIST.HEAD$, FD$$)

  28019 35 013064   000263 236000 36                 LDQ     179
        35 013065   001013 756000 0                  STQ     PROC$+3
        35 013066   000372 236000 0                  LDQ     LIST$
        35 013067   000004 036003                    ADLQ    4,DU
        35 013070   001012 756000 0                  STQ     PROC$+2
        35 013071   001012 630400 0                  EPPR0   PROC$+2
        35 013072   000025 631400 36                 EPPR1   21
        35 013073   000000 701000 xent               TSX1    Z8DO$QUALIFY_TERMINAL
        35 013074   013076 702000 35                 TSX2    s:28022
        35 013075   013077 710000 35                 TRA     s:28025

     2592    28020    3            WHENALTRETURN
     2593    28021    4              DO;

     2594    28022    4                GOTO NEXT_FILE;

  28022 35 013076   013245 710000 35                 TRA     NEXT_FILE

     2595    28023    4              END;
     2596    28024
     2597    28025    4          IF FD$$ -> FD.ID ~= %FD THEN DO;

  28025 35 013077   000373 470400 0                  LDP0    FD$$
        35 013100   000000 220100                    LDX0    0,,PR0
        35 013101   001002 100003                    CMPX0   514,DU
        35 013102   013121 600000 35                 TZE     s:28066

     2598    28026                 /* This can't be a multiple file tape. It isn't a file. */
     2599    28027                 %CONDITIONAL_ERROR (@LX_ITEM$ = LIST$ -> LX_LIST.HEAD$,
     2600    28028                                     @ERROR# = %E$FILE_TYPE_EXPECTED,
     2601    28029                                     @PLUG1 = "DNT$_FROM_RSWNO(%RSV_WRD_FD)");

  28039 35 013103   000372 471400 0                  LDP1    LIST$
        35 013104   100004 473500                    LDP3    4,,PR1
PL6.E3A0      #001=Z8EM$SEMANTICS_DATA_DIV File=Z8EM.:Z8A6TSI                    SAT 08/09/97 12:08 Page:601
        35 013105   300000 236100                    LDQ     0,,PR3
        35 013106   400000 316007                    CANQ    -131072,DL
        35 013107   013120 601000 35                 TNZ     s:28059

  28041 35 013110   000265 630400 36                 EPPR0   181
        35 013111   000005 631400 36                 EPPR1   5
        35 013112   000000 701000 xent               TSX1    Z8AE$ERROR
        35 013113   000000 011000                    NOP     0

  28050 35 013114   000372 470400 0                  LDP0    LIST$
        35 013115   000004 471500                    LDP1    4,,PR0
        35 013116   400000 236007                    LDQ     -131072,DL
        35 013117   100000 256100                    ORSQ    0,,PR1

     2602    28059    4            GOTO NEXT_FILE;

  28059 35 013120   013245 710000 35                 TRA     NEXT_FILE

     2603    28060    4          END;
     2604    28061
     2605    28062               %GET_LTS (@ID       = %FILE_LTS,
     2606    28063                         @ST$      = FD$$,
     2607    28064                         @RETURN$  = LTS$$);

  28066 35 013121   000005 236100                    LDQ     5,,PR0
        35 013122   000024 116000 36                 CMPQ    20
        35 013123   013133 600000 35                 TZE     s:28100
        35 013124   000005 471500                    LDP1    5,,PR0
        35 013125   100000 221100                    LDX1    0,,PR1
        35 013126   001105 101003                    CMPX1   581,DU
        35 013127   013133 601000 35                 TNZ     s:28100

  28080 35 013130   100006 236100                    LDQ     6,,PR1
        35 013131   000376 756000 0                  STQ     LTS$$

  28098 35 013132   013145 710000 35                 TRA     s:28107

PL6.E3A0      #001=Z8EM$SEMANTICS_DATA_DIV File=Z8EM.:Z8A6TSI                    SAT 08/09/97 12:08 Page:602
  28100 35 013133   000024 116000 36                 CMPQ    20
        35 013134   013143 600000 35                 TZE     s:28104
        35 013135   000005 471500                    LDP1    5,,PR0
        35 013136   100000 221100                    LDX1    0,,PR1
        35 013137   001121 101003                    CMPX1   593,DU
        35 013140   013143 601000 35                 TNZ     s:28104

  28102 35 013141   000376 756000 0                  STQ     LTS$$
        35 013142   013145 710000 35                 TRA     s:28107

  28104 35 013143   000024 236000 36                 LDQ     20
        35 013144   000376 756000 0                  STQ     LTS$$

     2608    28107    3          IF LTS$$ -> FILE_LTS.B.MULTIPLE_FILE_TAPE THEN

  28107 35 013145   000376 471400 0                  LDP1    LTS$$
        35 013146   100017 234100                    SZN     15,,PR1
        35 013147   013176 605000 35                 TPL     s:28147

     2609    28108    4            DO;

     2610    28109                   %CONDITIONAL_ERROR (@LX_ITEM$ = LIST$ -> LX_LIST.HEAD$,
     2611    28110                     @ERROR# = %E$DUP_DD_CLAUSE,
     2612    28111                     @LINE   = LIST$ -> LX_LIST.HEAD$ -> LX_ITEM.LINE,
     2613    28112                     @COLUMN = LIST$ -> LX_LIST.HEAD$ -> LX_ITEM.COLUMN,
     2614    28113                     @PLUG1  = "DNT$_FROM_RSWNO(%RSV_WRD_TAPE)");

  28123 35 013150   000372 473400 0                  LDP3    LIST$
        35 013151   300004 474500                    LDP4    4,,PR3
        35 013152   400000 236100                    LDQ     0,,PR4
        35 013153   400000 316007                    CANQ    -131072,DL
        35 013154   013175 601000 35                 TNZ     s:28144

  28125 35 013155   000271 236000 36                 LDQ     185
        35 013156   001015 756000 0                  STQ     PROC$+5
        35 013157   400006 635500                    EPPR5   6,,PR4
        35 013160   001014 455400 0                  STP5    PROC$+4
PL6.E3A0      #001=Z8EM$SEMANTICS_DATA_DIV File=Z8EM.:Z8A6TSI                    SAT 08/09/97 12:08 Page:603
        35 013161   400005 636500                    EPPR6   5,,PR4
        35 013162   001013 456400 0                  STP6    PROC$+3
        35 013163   000010 236000 36                 LDQ     8
        35 013164   001012 756000 0                  STQ     PROC$+2
        35 013165   001012 630400 0                  EPPR0   PROC$+2
        35 013166   000005 631400 36                 EPPR1   5
        35 013167   000000 701000 xent               TSX1    Z8AE$ERROR
        35 013170   000000 011000                    NOP     0

  28134 35 013171   000372 470400 0                  LDP0    LIST$
        35 013172   000004 471500                    LDP1    4,,PR0
        35 013173   400000 236007                    LDQ     -131072,DL
        35 013174   100000 256100                    ORSQ    0,,PR1

     2615    28143
     2616    28144    4              GOTO NEXT_FILE;

  28144 35 013175   013245 710000 35                 TRA     NEXT_FILE

     2617    28145    4            END;
     2618    28146
     2619    28147    3          CALL Z9EM$TAPE_CHECK (LIST$ -> LX_LIST.HEAD$,

  28147 35 013176   000272 236000 36                 LDQ     186
        35 013177   001013 756000 0                  STQ     PROC$+3
        35 013200   000372 236000 0                  LDQ     LIST$
        35 013201   000004 036003                    ADLQ    4,DU
        35 013202   001012 756000 0                  STQ     PROC$+2
        35 013203   001012 630400 0                  EPPR0   PROC$+2
        35 013204   000025 631400 36                 EPPR1   21
        35 013205   000000 701000 xent               TSX1    Z9EM$TAPE_CHECK
        35 013206   013210 702000 35                 TSX2    s:28151
        35 013207   013211 710000 35                 TRA     s:28154

     2620    28148    3                                LTS$$)
     2621    28149    3            WHENALTRETURN
     2622    28150    4              DO;
PL6.E3A0      #001=Z8EM$SEMANTICS_DATA_DIV File=Z8EM.:Z8A6TSI                    SAT 08/09/97 12:08 Page:604

     2623    28151    4                GOTO NEXT_FILE;

  28151 35 013210   013245 710000 35                 TRA     NEXT_FILE

     2624    28152    4              END;
     2625    28153
     2626    28154    3          IF HEAD$ = ADDR(NIL) THEN

  28154 35 013211   000375 236000 0                  LDQ     HEAD$
        35 013212   000024 116000 36                 CMPQ    20
        35 013213   013220 601000 35                 TNZ     s:28161

     2627    28155    4            DO;

     2628    28156    4              LAST$ = LTS$$;

  28156 35 013214   000376 236000 0                  LDQ     LTS$$
        35 013215   000374 756000 0                  STQ     LAST$

     2629    28157    4              HEAD$ = LTS$$;

  28157 35 013216   000375 756000 0                  STQ     HEAD$

     2630    28158    4            END;

  28158 35 013217   013227 710000 35                 TRA     s:28166

     2631    28159    3          ELSE
     2632    28160    4            DO;

     2633    28161    4              LTS$$ -> FILE_LTS.MULT_TAPE.HEAD$ = HEAD$;

  28161 35 013220   000376 470400 0                  LDP0    LTS$$
        35 013221   000046 756100                    STQ     38,,PR0

     2634    28162    4              LAST$ -> FILE_LTS.MULT_TAPE.LINK = LTS$$;
PL6.E3A0      #001=Z8EM$SEMANTICS_DATA_DIV File=Z8EM.:Z8A6TSI                    SAT 08/09/97 12:08 Page:605

  28162 35 013222   000376 236000 0                  LDQ     LTS$$
        35 013223   000374 470400 0                  LDP0    LAST$
        35 013224   000047 756100                    STQ     39,,PR0

     2635    28163    4              LAST$ = LTS$$;

  28163 35 013225   000376 236000 0                  LDQ     LTS$$
        35 013226   000374 756000 0                  STQ     LAST$

     2636    28164    4            END;

     2637    28165
     2638    28166    3          IF LIST$ -> LX_LIST.COUNT = 2 THEN

  28166 35 013227   000372 470400 0                  LDP0    LIST$
        35 013230   000002 235100                    LDA     2,,PR0
        35 013231   000002 115007                    CMPA    2,DL
        35 013232   013242 601000 35                 TNZ     s:28170

     2639    28167    3            CALL CHARBIN (LTS$$ -> FILE_LTS.POSITION,

  28167 35 013233   000001 471500                    LDP1    1,,PR0
        35 013234   100002 473500                    LDP3    2,,PR1
        35 013235   300004 220100                    LDX0    4,,PR3
        35 013236   000376 474400 0                  LDP4    LTS$$
        35 013237   000100 305540                    DTB
        35 013240   300004 430010                    NDSC9   4,,PR3                   cn=2,s=nosgn,sf=0,n=*X0
        35 013241   400041 000004                    NDSC9   33,,PR4                  cn=0,s=lsgnf,sf=0,n=4

     2640    28168    3                          LIST$ -> LX_LIST.TAIL$ -> LX_ITEM.DNT$ -> DNT.TEXT.NAME);
     2641    28169
     2642    28170    3          LTS$$ -> FILE_LTS.B.MULTIPLE_FILE_TAPE = TRUE;

  28170 35 013242   000376 471400 0                  LDP1    LTS$$
        35 013243   400000 236003                    LDQ     -131072,DU
        35 013244   100017 256100                    ORSQ    15,,PR1
PL6.E3A0      #001=Z8EM$SEMANTICS_DATA_DIV File=Z8EM.:Z8A6TSI                    SAT 08/09/97 12:08 Page:606

     2643    28171
     2644    28172    3   NEXT_FILE:
     2645    28173    3          LIST$ = LIST$ -> LX_LIST.LINK;

  28173 35 013245   000372 470400 0     NEXT_FILE    LDP0    LIST$
        35 013246   000007 236100                    LDQ     7,,PR0
        35 013247   000372 756000 0                  STQ     LIST$

     2646    28174    3        END; /* While */

  28174 35 013250   000024 116000 36                 CMPQ    20
        35 013251   013064 601000 35                 TNZ     s:28019

     2647    28175
     2648    28176    2        CALL Z8ED$DISPOSE_ABSSYN_TREE (FILE_LIST$ -> LX_LIST.HEAD$);

  28176 35 013252   000371 470400 0                  LDP0    @FILE_LIST$
        35 013253   000000 471500                    LDP1    0,,PR0
        35 013254   100004 633500                    EPPR3   4,,PR1
        35 013255   001012 453400 0                  STP3    PROC$+2
        35 013256   001012 630400 0                  EPPR0   PROC$+2
        35 013257   000036 631400 36                 EPPR1   30
        35 013260   000000 701000 xent               TSX1    Z8ED$DISPOSE_ABSSYN_TREE
        35 013261   000000 011000                    NOP     0

     2649    28177
     2650    28178    2   END MULTIPLE_FILE_TAPE;

  28178 35 013262   000370 221200 0                  LDX1  ! MNEMONIC$$+1
        35 013263   000001 702211                    TSX2  ! 1,X1

     2651    28179        %EJECT;
PL6.E3A0      #001=Z8EM$SEMANTICS_DATA_DIV File=Z8EM.:Z8A6TSI                    SAT 08/09/97 12:08 Page:607
     2652    28180
     2653    28181         /*================*/
     2654    28182    1      NEW_AFTER_AREA:  PROC (ST$$, REPORT$);

  28182 35 013264   000377 741200 0     NEW_AFTER_A* STX1  ! LTS$$+1

     2655    28183         /*================*/
     2656    28184
     2657    28185           %EQU AFTER_AREA_TEXT = 'AFTER_AREA';
     2658    28186           %EQU AFTER_AREA_LENGTH = 10;
     2659    28187
     2660    28188
     2661    28189    2     DCL ST$$         PTR;  /* Pointer to <report name> st item */
     2662    28190    2     DCL REPORT$      PTR;
     2663    28191    2     DCL AREA$        PTR;
     2664    28192
     2665    28193
     2666    28194
     2667    28195    2       LEX_SYMBOL.SIZE = %AFTER_AREA_LENGTH;

  28195 35 013265   000012 235007                    LDA     10,DL
        35 013266   000010 755000 25                 STA     LEX_SYMBOL+8

     2668    28196    2       SUBSTR (LEX_SYMBOL.SYMBOL,

  28196 35 013267   040000 100400                    MLR     fill='040'O
        35 013270   000056 000012 34                 ADSC9   RSW_NO+46                cn=0,n=10
        35 013271   000011 000012 25                 ADSC9   LEX_SYMBOL+9             cn=0,n=10

     2669    28197    2               0,
     2670    28198    2               %AFTER_AREA_LENGTH) = %AFTER_AREA_TEXT;
     2671    28199
     2672    28200    2       CALL Z8AH$SEARCH_;

  28200 35 013272   000011 631400 36                 EPPR1   9
        35 013273   000000 701000 xent               TSX1    Z8AH$SEARCH_
        35 013274   000000 011000                    NOP     0
PL6.E3A0      #001=Z8EM$SEMANTICS_DATA_DIV File=Z8EM.:Z8A6TSI                    SAT 08/09/97 12:08 Page:608

     2673    28201
     2674    28202
     2675    28203            %NEW_SCALAR ( @ST$        = AREA$,
     2676    28204                          @LINE_NO    = REPORT$ -> LX_ITEM.LINE,
     2677    28205                          @DNT$       = DNT$,
     2678    28206                          @NEXT       = DNT$ -> DNT.ST$,
     2679    28207                          @TYPE       = %TYI,
     2680    28208                          @ELEMENTARY = TRUE,
     2681    28209                          @REPORT_ITEM = TRUE,
     2682    28210                          @COMPILER_CREATED = TRUE,
     2683    28211                          @CLASS      = %CLASS_NUMERIC);

  28215 35 013275   000002 236000 13                 LDQ     ST_+2
        35 013276   000013 036007                    ADLQ    11,DL
        35 013277   000003 116000 13                 CMPQ    ST_+3
        35 013300   013311 604000 35                 TMI     s:28217

  28216 35 013301   000102 236000 36                 LDQ     66
        35 013302   001012 756000 0                  STQ     PROC$+2
        35 013303   001012 630400 0                  EPPR0   PROC$+2
        35 013304   001013 450400 0                  STP0    PROC$+3
        35 013305   001013 630400 0                  EPPR0   PROC$+3
        35 013306   000036 631400 36                 EPPR1   30
        35 013307   000000 701000 xent               TSX1    Z8AR$RESERVER
        35 013310   000000 011000                    NOP     0

  28217 35 013311   000002 236000 13                 LDQ     ST_+2
        35 013312   000022 736000                    QLS     18
        35 013313   000001 036000 13                 ADLQ    ST_+1
        35 013314   000402 756000 0                  STQ     AREA$

  28218 35 013315   000013 236007                    LDQ     11,DL
        35 013316   000002 056000 13                 ASQ     ST_+2

  28266 35 013317   000766 220003                    LDX0    502,DU
        35 013320   000402 470400 0                  LDP0    AREA$
PL6.E3A0      #001=Z8EM$SEMANTICS_DATA_DIV File=Z8EM.:Z8A6TSI                    SAT 08/09/97 12:08 Page:609
        35 013321   000000 740100                    STX0    0,,PR0

  28267 35 013322   003000 236007                    LDQ     1536,DL
        35 013323   000000 552110                    STBQ    0,'10'O,PR0

  28268 35 013324   000001 236007                    LDQ     1,DL
        35 013325   000000 552104                    STBQ    0,'04'O,PR0

  28269 35 013326   000000 221003                    LDX1    0,DU
        35 013327   000001 741100                    STX1    1,,PR0

  28270 35 013330   000001 441100                    SXL1    1,,PR0

  28271 35 013331   000401 471400 0                  LDP1    @REPORT$
        35 013332   100000 473500                    LDP3    0,,PR1
        35 013333   300005 722100                    LXL2    5,,PR3
        35 013334   000002 442100                    SXL2    2,,PR0

  28272 35 013335   000003 450100                    STZ     3,,PR0

  28273 35 013336   000000 473400 14                 LDP3    DNT$
        35 013337   300001 236100                    LDQ     1,,PR3
        35 013340   000004 756100                    STQ     4,,PR0

  28274 35 013341   000024 236000 36                 LDQ     20
        35 013342   000005 756100                    STQ     5,,PR0

  28275 35 013343   000024 236000 36                 LDQ     20
        35 013344   000007 756100                    STQ     7,,PR0

  28276 35 013345   000010 741100                    STX1    8,,PR0

  28277 35 013346   777777 223003                    LDX3    -1,DU
        35 013347   000010 443100                    SXL3    8,,PR0

  28281 35 013350   000024 236000 36                 LDQ     20
        35 013351   000012 756100                    STQ     10,,PR0
PL6.E3A0      #001=Z8EM$SEMANTICS_DATA_DIV File=Z8EM.:Z8A6TSI                    SAT 08/09/97 12:08 Page:610

  28284 35 013352   000057 236000 xsym               LDQ     O1COM+47
        35 013353   000011 756100                    STQ     9,,PR0

  28285 35 013354   000057 236000 xsym               LDQ     O1COM+47
        35 013355   000024 116000 36                 CMPQ    20
        35 013356   013400 600000 35                 TZE     s:28320

  28289 35 013357   000057 474400 xsym               LDP4    O1COM+47
        35 013360   400001 475500                    LDP5    1,,PR4
        35 013361   500012 236100                    LDQ     10,,PR5
        35 013362   000024 116000 36                 CMPQ    20
        35 013363   013372 601000 35                 TNZ     s:28296

  28291 35 013364   000402 236000 0                  LDQ     AREA$
        35 013365   500011 756100                    STQ     9,,PR5

  28292 35 013366   000057 474400 xsym               LDP4    O1COM+47
        35 013367   400001 475500                    LDP5    1,,PR4
        35 013370   500012 756100                    STQ     10,,PR5

  28293 35 013371   013400 710000 35                 TRA     s:28320

  28296 35 013372   500012 476500                    LDP6    10,,PR5
        35 013373   000402 236000 0                  LDQ     AREA$
        35 013374   600012 756100                    STQ     10,,PR6

  28297 35 013375   000057 474400 xsym               LDP4    O1COM+47
        35 013376   400001 475500                    LDP5    1,,PR4
        35 013377   500012 756100                    STQ     10,,PR5

  28320 35 013400   000001 222003                    LDX2    1,DU
        35 013401   000002 742100                    STX2    2,,PR0

  28325 35 013402   000000 236000 14                 LDQ     DNT$
        35 013403   000006 756100                    STQ     6,,PR0

PL6.E3A0      #001=Z8EM$SEMANTICS_DATA_DIV File=Z8EM.:Z8A6TSI                    SAT 08/09/97 12:08 Page:611
  28342 35 013404   010000 236003                    LDQ     4096,DU
        35 013405   000003 256100                    ORSQ    3,,PR0

  28351 35 013406   100000 236003                    LDQ     32768,DU
        35 013407   000003 256100                    ORSQ    3,,PR0

  28384 35 013410   010000 236007                    LDQ     4096,DL
        35 013411   000003 256100                    ORSQ    3,,PR0

  28390 35 013412   000003 236100                    LDQ     3,,PR0
        35 013413   000202 376000 36                 ANQ     130
        35 013414   000001 276007                    ORQ     1,DL
        35 013415   000003 756100                    STQ     3,,PR0

     2684    28411
     2685    28412    2       AREA$ -> ST.NDSC.N = %TYI_LENGTH;

  28412 35 013416   000004 236007                    LDQ     4,DL
        35 013417   000001 752101                    STCQ    1,'01'O,PR0

     2686    28413    2       DNT$ -> DNT.ST$ = AREA$;

  28413 35 013420   000402 236000 0                  LDQ     AREA$
        35 013421   300001 756100                    STQ     1,,PR3

     2687    28414    2       ST$$ -> RD.LTS$ -> REPORT_LTS.AFTER_ADVANCE$ = AREA$;

  28414 35 013422   000400 474400 0                  LDP4    @ST$$
        35 013423   400000 475500                    LDP5    0,,PR4
        35 013424   500005 476500                    LDP6    5,,PR5
        35 013425   600040 756100                    STQ     32,,PR6

     2688    28415
     2689    28416            %NEW_QLT (@POINTER    = AREA$ -> SCALAR.QLT$,
     2690    28417                      @LEVEL#     = 1,
     2691    28418                      @FATHER     = ST$$ -> RD.QLT$,
     2692    28419                      @ST$        = AREA$,
PL6.E3A0      #001=Z8EM$SEMANTICS_DATA_DIV File=Z8EM.:Z8A6TSI                    SAT 08/09/97 12:08 Page:612
     2693    28420                      @DNT$       = DNT$);

  28425 35 013426   000002 236000 11                 LDQ     QLT_+2
        35 013427   000006 036007                    ADLQ    6,DL
        35 013430   000003 116000 11                 CMPQ    QLT_+3
        35 013431   013442 602000 35                 TNC     s:28427

  28426 35 013432   000103 236000 36                 LDQ     67
        35 013433   001012 756000 0                  STQ     PROC$+2
        35 013434   001012 635400 0                  EPPR5   PROC$+2
        35 013435   001013 455400 0                  STP5    PROC$+3
        35 013436   001013 630400 0                  EPPR0   PROC$+3
        35 013437   000036 631400 36                 EPPR1   30
        35 013440   000000 701000 xent               TSX1    Z8AR$RESERVER
        35 013441   000000 011000                    NOP     0

  28427 35 013442   000002 236000 11                 LDQ     QLT_+2
        35 013443   000022 736000                    QLS     18
        35 013444   000001 036000 11                 ADLQ    QLT_+1
        35 013445   000402 470400 0                  LDP0    AREA$
        35 013446   000007 756100                    STQ     7,,PR0

  28428 35 013447   000002 235000 11                 LDA     QLT_+2
        35 013450   000006 035007                    ADLA    6,DL
        35 013451   000002 755000 11                 STA     QLT_+2

  28429 35 013452   000007 471500                    LDP1    7,,PR0
        35 013453   001053 220003                    LDX0    555,DU
        35 013454   100000 740100                    STX0    0,,PR1

  28432 35 013455   000007 471500                    LDP1    7,,PR0
        35 013456   000400 473400 0                  LDP3    @ST$$
        35 013457   300000 474500                    LDP4    0,,PR3
        35 013460   400007 236100                    LDQ     7,,PR4
        35 013461   100001 756100                    STQ     1,,PR1

  28433 35 013462   000007 471500                    LDP1    7,,PR0
PL6.E3A0      #001=Z8EM$SEMANTICS_DATA_DIV File=Z8EM.:Z8A6TSI                    SAT 08/09/97 12:08 Page:613
        35 013463   000024 236000 36                 LDQ     20
        35 013464   100002 756100                    STQ     2,,PR1

  28434 35 013465   000007 471500                    LDP1    7,,PR0
        35 013466   000024 236000 36                 LDQ     20
        35 013467   100003 756100                    STQ     3,,PR1

  28435 35 013470   000007 471500                    LDP1    7,,PR0
        35 013471   000402 236000 0                  LDQ     AREA$
        35 013472   100004 756100                    STQ     4,,PR1

  28436 35 013473   000007 471500                    LDP1    7,,PR0
        35 013474   000000 236000 14                 LDQ     DNT$
        35 013475   100005 756100                    STQ     5,,PR1

  28437 35 013476   000007 471500                    LDP1    7,,PR0
        35 013477   000001 236007                    LDQ     1,DL
        35 013500   100000 552104                    STBQ    0,'04'O,PR1

  28438 35 013501   000007 471500                    LDP1    7,,PR0
        35 013502   000000 236003                    LDQ     0,DU
        35 013503   100000 552110                    STBQ    0,'10'O,PR1

  28439 35 013504   000007 471500                    LDP1    7,,PR0
        35 013505   000104 236000 36                 LDQ     68
        35 013506   100000 356100                    ANSQ    0,,PR1

  28440 35 013507   000007 471500                    LDP1    7,,PR0
        35 013510   000105 236000 36                 LDQ     69
        35 013511   100000 356100                    ANSQ    0,,PR1

  28441 35 013512   000007 471500                    LDP1    7,,PR0
        35 013513   000106 236000 36                 LDQ     70
        35 013514   100000 356100                    ANSQ    0,,PR1

  28442 35 013515   000007 471500                    LDP1    7,,PR0
        35 013516   000107 236000 36                 LDQ     71
PL6.E3A0      #001=Z8EM$SEMANTICS_DATA_DIV File=Z8EM.:Z8A6TSI                    SAT 08/09/97 12:08 Page:614
        35 013517   100000 356100                    ANSQ    0,,PR1

     2694    28445
     2695    28446    2       ST$$ -> RD.QLT$ -> QLT.SON -> QLT.BROTHER -> QLT.BROTHER =

  28446 35 013520   300000 471500                    LDP1    0,,PR3
        35 013521   100007 474500                    LDP4    7,,PR1
        35 013522   400003 475500                    LDP5    3,,PR4
        35 013523   500002 476500                    LDP6    2,,PR5
        35 013524   000007 236100                    LDQ     7,,PR0
        35 013525   600002 756100                    STQ     2,,PR6

     2696    28447    2                                     AREA$ -> SCALAR.QLT$;
     2697    28448
     2698    28449    2     END NEW_AFTER_AREA;

  28449 35 013526   000377 221200 0                  LDX1  ! LTS$$+1
        35 013527   000001 702211                    TSX2  ! 1,X1

     2699    28450          %EJECT;
PL6.E3A0      #001=Z8EM$SEMANTICS_DATA_DIV File=Z8EM.:Z8A6TSI                    SAT 08/09/97 12:08 Page:615
     2700    28451        /*============*/
     2701    28452    1     NEW_ALPHABET: PROC (ALPHA_NAME$, RETURN_ST$);

  28452 35 013530   000403 741200 0     NEW_ALPHABET STX1  ! AREA$+1

     2702    28453        /*============*/
     2703    28454
     2704    28455    2   DCL ALPHA_NAME$        PTR;
     2705    28456    2   DCL RETURN_ST$         PTR;
     2706    28457
     2707    28458    2   DCL CONST$             PTR;
     2708    28459    2   DCL TABLE$             PTR;
     2709    28460
     2710    28461
     2711    28462        /*N* What about when alphabet is ASCII or EBCDIC or JIS */
     2712    28463
     2713    28464           %NEW_ALPHABET (@ST$   = RETURN_ST$,
     2714    28465                          @LINE_NO = ALPHA_NAME$ -> LX_TERMINAL.LINE,
     2715    28466                          @CODE    = %USER_DEFINED,
     2716    28467                          @SET_LOW_VALUE = TRUE,
     2717    28468                          @DNT$    = ALPHA_NAME$ -> LX_TERMINAL.DNT$,
     2718    28469                          @NEXT    = ALPHA_NAME$ -> LX_TERMINAL.DNT$ -> DNT.ST$);

  28473 35 013531   000002 236000 13                 LDQ     ST_+2
        35 013532   000013 036007                    ADLQ    11,DL
        35 013533   000003 116000 13                 CMPQ    ST_+3
        35 013534   013545 604000 35                 TMI     s:28475

  28474 35 013535   000102 236000 36                 LDQ     66
        35 013536   001012 756000 0                  STQ     PROC$+2
        35 013537   001012 630400 0                  EPPR0   PROC$+2
        35 013540   001013 450400 0                  STP0    PROC$+3
        35 013541   001013 630400 0                  EPPR0   PROC$+3
        35 013542   000036 631400 36                 EPPR1   30
        35 013543   000000 701000 xent               TSX1    Z8AR$RESERVER
        35 013544   000000 011000                    NOP     0

PL6.E3A0      #001=Z8EM$SEMANTICS_DATA_DIV File=Z8EM.:Z8A6TSI                    SAT 08/09/97 12:08 Page:616
  28475 35 013545   000002 236000 13                 LDQ     ST_+2
        35 013546   000022 736000                    QLS     18
        35 013547   000001 036000 13                 ADLQ    ST_+1
        35 013550   000405 470400 0                  LDP0    @RETURN_ST$
        35 013551   000000 756100                    STQ     0,,PR0

  28476 35 013552   000013 236007                    LDQ     11,DL
        35 013553   000002 056000 13                 ASQ     ST_+2

  28479 35 013554   000000 471500                    LDP1    0,,PR0
        35 013555   000763 220003                    LDX0    499,DU
        35 013556   100000 740100                    STX0    0,,PR1

  28480 35 013557   000000 471500                    LDP1    0,,PR0
        35 013560   000404 473400 0                  LDP3    @ALPHA_NAME$
        35 013561   300000 474500                    LDP4    0,,PR3
        35 013562   400005 721100                    LXL1    5,,PR4
        35 013563   100002 441100                    SXL1    2,,PR1

  28481 35 013564   000000 471500                    LDP1    0,,PR0
        35 013565   000020 221003                    LDX1    16,DU
        35 013566   100002 741100                    STX1    2,,PR1

  28482 35 013567   000000 471500                    LDP1    0,,PR0
        35 013570   100003 450100                    STZ     3,,PR1

  28483 35 013571   000000 471500                    LDP1    0,,PR0
        35 013572   000006 236007                    LDQ     6,DL
        35 013573   100003 552104                    STBQ    3,'04'O,PR1

  28484 35 013574   000000 471500                    LDP1    0,,PR0
        35 013575   300000 474500                    LDP4    0,,PR3
        35 013576   400002 475500                    LDP5    2,,PR4
        35 013577   500001 236100                    LDQ     1,,PR5
        35 013600   100004 756100                    STQ     4,,PR1

  28485 35 013601   000000 471500                    LDP1    0,,PR0
PL6.E3A0      #001=Z8EM$SEMANTICS_DATA_DIV File=Z8EM.:Z8A6TSI                    SAT 08/09/97 12:08 Page:617
        35 013602   300000 474500                    LDP4    0,,PR3
        35 013603   400002 236100                    LDQ     2,,PR4
        35 013604   100006 756100                    STQ     6,,PR1

  28489 35 013605   000000 471500                    LDP1    0,,PR0
        35 013606   000024 236000 36                 LDQ     20
        35 013607   100012 756100                    STQ     10,,PR1

  28492 35 013610   000000 471500                    LDP1    0,,PR0
        35 013611   000057 236000 xsym               LDQ     O1COM+47
        35 013612   100011 756100                    STQ     9,,PR1

  28493 35 013613   000057 236000 xsym               LDQ     O1COM+47
        35 013614   000024 116000 36                 CMPQ    20
        35 013615   013641 600000 35                 TZE     s:28527

  28497 35 013616   000057 471400 xsym               LDP1    O1COM+47
        35 013617   100001 474500                    LDP4    1,,PR1
        35 013620   400012 236100                    LDQ     10,,PR4
        35 013621   000024 116000 36                 CMPQ    20
        35 013622   013632 601000 35                 TNZ     s:28504

  28499 35 013623   000000 236100                    LDQ     0,,PR0
        35 013624   400011 756100                    STQ     9,,PR4

  28500 35 013625   000057 471400 xsym               LDP1    O1COM+47
        35 013626   100001 474500                    LDP4    1,,PR1
        35 013627   000000 236100                    LDQ     0,,PR0
        35 013630   400012 756100                    STQ     10,,PR4

  28501 35 013631   013641 710000 35                 TRA     s:28527

  28504 35 013632   400012 475500                    LDP5    10,,PR4
        35 013633   000000 236100                    LDQ     0,,PR0
        35 013634   500012 756100                    STQ     10,,PR5

  28505 35 013635   000057 471400 xsym               LDP1    O1COM+47
PL6.E3A0      #001=Z8EM$SEMANTICS_DATA_DIV File=Z8EM.:Z8A6TSI                    SAT 08/09/97 12:08 Page:618
        35 013636   100001 474500                    LDP4    1,,PR1
        35 013637   000000 236100                    LDQ     0,,PR0
        35 013640   400012 756100                    STQ     10,,PR4

  28527 35 013641   000000 471500                    LDP1    0,,PR0
        35 013642   177000 236003                    LDQ     65024,DU
        35 013643   100007 552140                    STBQ    7,'40'O,PR1

  28528 35 013644   000000 471500                    LDP1    0,,PR0
        35 013645   000000 236003                    LDQ     0,DU
        35 013646   100007 552120                    STBQ    7,'20'O,PR1

  28529 35 013647   000000 471500                    LDP1    0,,PR0
        35 013650   000024 236000 36                 LDQ     20
        35 013651   100005 756100                    STQ     5,,PR1

  28530 35 013652   000000 471500                    LDP1    0,,PR0
        35 013653   000000 222003                    LDX2    0,DU
        35 013654   100007 442100                    SXL2    7,,PR1

  28531 35 013655   000000 471500                    LDP1    0,,PR0
        35 013656   000024 236000 36                 LDQ     20
        35 013657   100001 756100                    STQ     1,,PR1

  28533 35 013660   000000 471500                    LDP1    0,,PR0
        35 013661   000040 236000 36                 LDQ     32
        35 013662   100003 356100                    ANSQ    3,,PR1

  28536 35 013663   000000 471500                    LDP1    0,,PR0
        35 013664   200000 236003                    LDQ     65536,DU
        35 013665   100003 256100                    ORSQ    3,,PR1

  28539 35 013666   000000 471500                    LDP1    0,,PR0
        35 013667   000166 236000 36                 LDQ     118
        35 013670   100003 356100                    ANSQ    3,,PR1

     2719    28543
PL6.E3A0      #001=Z8EM$SEMANTICS_DATA_DIV File=Z8EM.:Z8A6TSI                    SAT 08/09/97 12:08 Page:619
     2720    28544    2      ALPHA_NAME$ -> LX_TERMINAL.DNT$ -> DNT.ST$ = RETURN_ST$;

  28544 35 013671   300000 471500                    LDP1    0,,PR3
        35 013672   100002 474500                    LDP4    2,,PR1
        35 013673   000000 236100                    LDQ     0,,PR0
        35 013674   400001 756100                    STQ     1,,PR4

     2721    28545
     2722    28546           %ADD_XREF (SYM   = RETURN_ST$,
     2723    28547                      ISN   = ALPHA_NAME$ -> LX_ITEM.LINE,
     2724    28548                      TYPE  = %XREF_DCL);

  28550 35 013675   000055 234000 xsym               SZN     COMCOM+45
        35 013676   013736 605000 35                 TPL     s:28567

  28554 35 013677   000002 236000 24                 LDQ     XREF_+2
        35 013700   000002 036007                    ADLQ    2,DL
        35 013701   000003 116000 24                 CMPQ    XREF_+3
        35 013702   013713 602000 35                 TNC     s:28556

  28555 35 013703   000110 236000 36                 LDQ     72
        35 013704   001012 756000 0                  STQ     PROC$+2
        35 013705   001012 631400 0                  EPPR1   PROC$+2
        35 013706   001013 451400 0                  STP1    PROC$+3
        35 013707   001013 630400 0                  EPPR0   PROC$+3
        35 013710   000036 631400 36                 EPPR1   30
        35 013711   000000 701000 xent               TSX1    Z8AR$RESERVER
        35 013712   000000 011000                    NOP     0

  28556 35 013713   000002 236000 24                 LDQ     XREF_+2
        35 013714   000022 736000                    QLS     18
        35 013715   000001 036000 24                 ADLQ    XREF_+1
        35 013716   000000 756000 23                 STQ     XREF$

  28557 35 013717   000002 235000 24                 LDA     XREF_+2
        35 013720   000002 035007                    ADLA    2,DL
        35 013721   000002 755000 24                 STA     XREF_+2
PL6.E3A0      #001=Z8EM$SEMANTICS_DATA_DIV File=Z8EM.:Z8A6TSI                    SAT 08/09/97 12:08 Page:620

  28558 35 013722   000004 220003                    LDX0    4,DU
        35 013723   000000 470400 23                 LDP0    XREF$
        35 013724   000000 740100                    STX0    0,,PR0

  28561 35 013725   000404 470400 0                  LDP0    @ALPHA_NAME$
        35 013726   000000 471500                    LDP1    0,,PR0
        35 013727   100005 721100                    LXL1    5,,PR1
        35 013730   000000 473400 23                 LDP3    XREF$
        35 013731   300000 441100                    SXL1    0,,PR3

  28562 35 013732   000405 471400 0                  LDP1    @RETURN_ST$
        35 013733   100000 236100                    LDQ     0,,PR1
        35 013734   000000 473400 23                 LDP3    XREF$
        35 013735   300001 756100                    STQ     1,,PR3

     2725    28566
     2726    28567    2      CALL DCL_CONST_TABLE (CONST$);

  28567 35 013736   000273 236000 36                 LDQ     187
        35 013737   000253 756000 0                  STQ     @TABLE$
        35 013740   007347 701000 35                 TSX1    DCL_CONST_TABLE
        35 013741   000000 011000                    NOP     0

     2727    28568
     2728    28569    2      RETURN_ST$ -> ALPHABET.TABLE$ = PINCRW (CONST$ -> CONST.CONST$.PTR$, 1);

  28569 35 013742   000405 470400 0                  LDP0    @RETURN_ST$
        35 013743   000000 471500                    LDP1    0,,PR0
        35 013744   000406 473400 0                  LDP3    CONST$
        35 013745   300010 236100                    LDQ     8,,PR3
        35 013746   000001 036003                    ADLQ    1,DU
        35 013747   100005 756100                    STQ     5,,PR1

     2729    28570
     2730    28571    2      CALL Z8AF$FORME (%TRIAD, CONST$, ADDR(NIL), CONST$);

PL6.E3A0      #001=Z8EM$SEMANTICS_DATA_DIV File=Z8EM.:Z8A6TSI                    SAT 08/09/97 12:08 Page:621
  28571 35 013750   000024 236000 36                 LDQ     20
        35 013751   001012 756000 0                  STQ     PROC$+2
        35 013752   000273 236000 36                 LDQ     187
        35 013753   001017 756000 0                  STQ     PROC$+7
        35 013754   001012 631400 0                  EPPR1   PROC$+2
        35 013755   001016 451400 0                  STP1    PROC$+6
        35 013756   000276 237000 36                 LDAQ    190
        35 013757   001014 757000 0                  STAQ    PROC$+4
        35 013760   001014 630400 0                  EPPR0   PROC$+4
        35 013761   000005 631400 36                 EPPR1   5
        35 013762   000000 701000 xent               TSX1    Z8AF$FORME
        35 013763   000000 011000                    NOP     0

     2731    28572
     2732    28573    2      RETURN_ST$ -> ALPHABET.TABLE_ETT$ = CONST$;

  28573 35 013764   000405 470400 0                  LDP0    @RETURN_ST$
        35 013765   000000 471500                    LDP1    0,,PR0
        35 013766   000406 236000 0                  LDQ     CONST$
        35 013767   100001 756100                    STQ     1,,PR1

     2733    28574
     2734    28575    2   END NEW_ALPHABET;

  28575 35 013770   000403 221200 0                  LDX1  ! AREA$+1
        35 013771   000001 702211                    TSX2  ! 1,X1

     2735    28576        %EJECT;
PL6.E3A0      #001=Z8EM$SEMANTICS_DATA_DIV File=Z8EM.:Z8A6TSI                    SAT 08/09/97 12:08 Page:622
     2736    28577        /*========*/
     2737    28578    1     NEW_FILE: PROC (FILE$, FD$$);

  28578 35 013772   000410 741200 0     NEW_FILE     STX1  ! TABLE$+1

     2738    28579        /*========*/
     2739    28580
     2740    28581
     2741    28582             %EQU INFO_RECORD_TEXT   = 'INFO_RECORD#';
     2742    28583             %EQU INFO_RECORD_LENGTH = 12;
     2743    28584
     2744    28585
     2745    28586
     2746    28587    2        DCL FILE$         PTR;
     2747    28588    2        DCL VFC$          PTR;
     2748    28589    2        DCL FD$$          PTR;
     2749    28590    2        DCL FILE_DNT$     PTR;
     2750    28591    2        DCL INFO$         PTR;
     2751    28592
     2752    28593
     2753    28594    2        FILE_DNT$ = FILE$ -> LX_TERMINAL.DNT$;

  28594 35 013773   000411 470400 0                  LDP0    @FILE$
        35 013774   000000 471500                    LDP1    0,,PR0
        35 013775   100002 236100                    LDQ     2,,PR1
        35 013776   000414 756000 0                  STQ     FILE_DNT$

     2754    28595
     2755    28596             /*N* This is a KLUDGE as far as I am concerned,
     2756    28597                  but I do what I'm told so here it is.
     2757    28598             */
     2758    28599    2        CALL Z8AT$CREATE_TEMPORARY (%SCALAR, VFC$);

  28599 35 013777   000300 630400 36                 EPPR0   192
        35 014000   000025 631400 36                 EPPR1   21
        35 014001   000000 701000 xent               TSX1    Z8AT$CREATE_TEMPORARY
        35 014002   000000 011000                    NOP     0
PL6.E3A0      #001=Z8EM$SEMANTICS_DATA_DIV File=Z8EM.:Z8A6TSI                    SAT 08/09/97 12:08 Page:623

     2759    28600    2        VFC$ -> SCALAR.TYPE = %TYA;

  28600 35 014003   000010 220003                    LDX0    8,DU
        35 014004   000413 470400 0                  LDP0    VFC$
        35 014005   000002 740100                    STX0    2,,PR0

     2760    28601    2        VFC$ -> SCALAR.ADSC.N = 8;

  28601 35 014006   000413 470400 0                  LDP0    VFC$
        35 014007   000010 236007                    LDQ     8,DL
        35 014010   000001 752103                    STCQ    1,'03'O,PR0

     2761    28602    2        VFC$ -> SCALAR.B.CLASS = %CLASS_ALPHANUMERIC;

  28602 35 014011   000413 470400 0                  LDP0    VFC$
        35 014012   000003 236100                    LDQ     3,,PR0
        35 014013   000202 376000 36                 ANQ     130
        35 014014   000003 276007                    ORQ     3,DL
        35 014015   000003 756100                    STQ     3,,PR0

     2762    28603             /*N* End of KLUDGE for 2 words before FILE BUFFER */
     2763    28604
     2764    28605             /* When the current DNT.ST$ is created by Z8CO$QUALIFY_VARIABLE */
     2765    28606             /* this ST item should be delinked from the ST list.            */
     2766    28607    2        IF FILE_DNT$ -> DNT.ST$ ~= ADDR (NIL) AND

  28607 35 014016   000414 470400 0                  LDP0    FILE_DNT$
        35 014017   000001 236100                    LDQ     1,,PR0
        35 014020   000024 116000 36                 CMPQ    20
        35 014021   014030 600000 35                 TZE     s:28620
        35 014022   000001 471500                    LDP1    1,,PR0
        35 014023   100003 236100                    LDQ     3,,PR1
        35 014024   100000 316003                    CANQ    32768,DU
        35 014025   014030 600000 35                 TZE     s:28620

     2767    28608    2           FILE_DNT$ -> DNT.ST$ -> FD.B.COMPILER_CREATED  THEN
PL6.E3A0      #001=Z8EM$SEMANTICS_DATA_DIV File=Z8EM.:Z8A6TSI                    SAT 08/09/97 12:08 Page:624
     2768    28609    2             FILE_DNT$ -> DNT.ST$ = FILE_DNT$ -> DNT.ST$ -> FD.NEXT;

  28609 35 014026   100004 236100                    LDQ     4,,PR1
        35 014027   000001 756100                    STQ     1,,PR0

     2769    28610
     2770    28611             %NEW_FD  (@ST$        = FD$$,
     2771    28612                       @DNT$       = FILE_DNT$,
     2772    28613                       @TYPE       = %TYA,
     2773    28614                       @LINE_NO    = FILE$ -> LX_TERMINAL.LINE,
     2774    28615                       @NEXT       = FILE_DNT$ -> DNT.ST$,
     2775    28616                       @CLASS      = %CLASS_ALPHANUMERIC);

  28620 35 014030   000002 236000 13                 LDQ     ST_+2
        35 014031   000013 036007                    ADLQ    11,DL
        35 014032   000003 116000 13                 CMPQ    ST_+3
        35 014033   014044 604000 35                 TMI     s:28622

  28621 35 014034   000102 236000 36                 LDQ     66
        35 014035   001012 756000 0                  STQ     PROC$+2
        35 014036   001012 631400 0                  EPPR1   PROC$+2
        35 014037   001013 451400 0                  STP1    PROC$+3
        35 014040   001013 630400 0                  EPPR0   PROC$+3
        35 014041   000036 631400 36                 EPPR1   30
        35 014042   000000 701000 xent               TSX1    Z8AR$RESERVER
        35 014043   000000 011000                    NOP     0

  28622 35 014044   000002 236000 13                 LDQ     ST_+2
        35 014045   000022 736000                    QLS     18
        35 014046   000001 036000 13                 ADLQ    ST_+1
        35 014047   000412 470400 0                  LDP0    @FD$$
        35 014050   000000 756100                    STQ     0,,PR0

  28623 35 014051   000013 236007                    LDQ     11,DL
        35 014052   000002 056000 13                 ASQ     ST_+2

  28664 35 014053   000000 471500                    LDP1    0,,PR0
PL6.E3A0      #001=Z8EM$SEMANTICS_DATA_DIV File=Z8EM.:Z8A6TSI                    SAT 08/09/97 12:08 Page:625
        35 014054   001002 220003                    LDX0    514,DU
        35 014055   100000 740100                    STX0    0,,PR1

  28665 35 014056   000000 471500                    LDP1    0,,PR0
        35 014057   003000 236007                    LDQ     1536,DL
        35 014060   100000 552110                    STBQ    0,'10'O,PR1

  28666 35 014061   000000 471500                    LDP1    0,,PR0
        35 014062   000001 236007                    LDQ     1,DL
        35 014063   100000 552104                    STBQ    0,'04'O,PR1

  28667 35 014064   000000 471500                    LDP1    0,,PR0
        35 014065   000000 221003                    LDX1    0,DU
        35 014066   100001 741100                    STX1    1,,PR1

  28668 35 014067   000000 471500                    LDP1    0,,PR0
        35 014070   100001 441100                    SXL1    1,,PR1

  28669 35 014071   000000 471500                    LDP1    0,,PR0
        35 014072   000411 473400 0                  LDP3    @FILE$
        35 014073   300000 474500                    LDP4    0,,PR3
        35 014074   400005 722100                    LXL2    5,,PR4
        35 014075   100002 442100                    SXL2    2,,PR1

  28670 35 014076   000000 471500                    LDP1    0,,PR0
        35 014077   100003 450100                    STZ     3,,PR1

  28671 35 014100   000000 471500                    LDP1    0,,PR0
        35 014101   000414 474400 0                  LDP4    FILE_DNT$
        35 014102   400001 236100                    LDQ     1,,PR4
        35 014103   100004 756100                    STQ     4,,PR1

  28672 35 014104   000000 471500                    LDP1    0,,PR0
        35 014105   000024 236000 36                 LDQ     20
        35 014106   100005 756100                    STQ     5,,PR1

  28673 35 014107   000000 471500                    LDP1    0,,PR0
PL6.E3A0      #001=Z8EM$SEMANTICS_DATA_DIV File=Z8EM.:Z8A6TSI                    SAT 08/09/97 12:08 Page:626
        35 014110   000024 236000 36                 LDQ     20
        35 014111   100007 756100                    STQ     7,,PR1

  28674 35 014112   000000 471500                    LDP1    0,,PR0
        35 014113   100010 741100                    STX1    8,,PR1

  28675 35 014114   000000 471500                    LDP1    0,,PR0
        35 014115   777777 222003                    LDX2    -1,DU
        35 014116   100010 442100                    SXL2    8,,PR1

  28679 35 014117   000000 471500                    LDP1    0,,PR0
        35 014120   000024 236000 36                 LDQ     20
        35 014121   100012 756100                    STQ     10,,PR1

  28682 35 014122   000000 471500                    LDP1    0,,PR0
        35 014123   000057 236000 xsym               LDQ     O1COM+47
        35 014124   100011 756100                    STQ     9,,PR1

  28683 35 014125   000057 236000 xsym               LDQ     O1COM+47
        35 014126   000024 116000 36                 CMPQ    20
        35 014127   014153 600000 35                 TZE     s:28718

  28687 35 014130   000057 471400 xsym               LDP1    O1COM+47
        35 014131   100001 475500                    LDP5    1,,PR1
        35 014132   500012 236100                    LDQ     10,,PR5
        35 014133   000024 116000 36                 CMPQ    20
        35 014134   014144 601000 35                 TNZ     s:28694

  28689 35 014135   000000 236100                    LDQ     0,,PR0
        35 014136   500011 756100                    STQ     9,,PR5

  28690 35 014137   000057 471400 xsym               LDP1    O1COM+47
        35 014140   100001 475500                    LDP5    1,,PR1
        35 014141   000000 236100                    LDQ     0,,PR0
        35 014142   500012 756100                    STQ     10,,PR5

  28691 35 014143   014153 710000 35                 TRA     s:28718
PL6.E3A0      #001=Z8EM$SEMANTICS_DATA_DIV File=Z8EM.:Z8A6TSI                    SAT 08/09/97 12:08 Page:627

  28694 35 014144   500012 476500                    LDP6    10,,PR5
        35 014145   000000 236100                    LDQ     0,,PR0
        35 014146   600012 756100                    STQ     10,,PR6

  28695 35 014147   000057 471400 xsym               LDP1    O1COM+47
        35 014150   100001 475500                    LDP5    1,,PR1
        35 014151   000000 236100                    LDQ     0,,PR0
        35 014152   500012 756100                    STQ     10,,PR5

  28718 35 014153   000000 471500                    LDP1    0,,PR0
        35 014154   000010 223003                    LDX3    8,DU
        35 014155   100002 743100                    STX3    2,,PR1

  28723 35 014156   000000 471500                    LDP1    0,,PR0
        35 014157   000414 236000 0                  LDQ     FILE_DNT$
        35 014160   100006 756100                    STQ     6,,PR1

  28788 35 014161   000000 471500                    LDP1    0,,PR0
        35 014162   100003 236100                    LDQ     3,,PR1
        35 014163   000202 376000 36                 ANQ     130
        35 014164   000003 276007                    ORQ     3,DL
        35 014165   100003 756100                    STQ     3,,PR1

     2776    28809
     2777    28810    2        FILE_DNT$ -> DNT.ST$ = FD$$;

  28810 35 014166   000000 236100                    LDQ     0,,PR0
        35 014167   400001 756100                    STQ     1,,PR4

     2778    28811
     2779    28812             %NEW_QLT (@POINTER    = FD$$ -> FD.QLT$,
     2780    28813                       @ST$        = FD$$,
     2781    28814                       @DNT$       = FILE_DNT$,
     2782    28815                       @LEVEL#     = 0);

  28820 35 014170   000002 236000 11                 LDQ     QLT_+2
PL6.E3A0      #001=Z8EM$SEMANTICS_DATA_DIV File=Z8EM.:Z8A6TSI                    SAT 08/09/97 12:08 Page:628
        35 014171   000006 036007                    ADLQ    6,DL
        35 014172   000003 116000 11                 CMPQ    QLT_+3
        35 014173   014204 602000 35                 TNC     s:28822

  28821 35 014174   000103 236000 36                 LDQ     67
        35 014175   001012 756000 0                  STQ     PROC$+2
        35 014176   001012 631400 0                  EPPR1   PROC$+2
        35 014177   001013 451400 0                  STP1    PROC$+3
        35 014200   001013 630400 0                  EPPR0   PROC$+3
        35 014201   000036 631400 36                 EPPR1   30
        35 014202   000000 701000 xent               TSX1    Z8AR$RESERVER
        35 014203   000000 011000                    NOP     0

  28822 35 014204   000412 470400 0                  LDP0    @FD$$
        35 014205   000000 471500                    LDP1    0,,PR0
        35 014206   000002 236000 11                 LDQ     QLT_+2
        35 014207   000022 736000                    QLS     18
        35 014210   000001 036000 11                 ADLQ    QLT_+1
        35 014211   100007 756100                    STQ     7,,PR1

  28823 35 014212   000002 235000 11                 LDA     QLT_+2
        35 014213   000006 035007                    ADLA    6,DL
        35 014214   000002 755000 11                 STA     QLT_+2

  28824 35 014215   000000 471500                    LDP1    0,,PR0
        35 014216   100007 473500                    LDP3    7,,PR1
        35 014217   001053 220003                    LDX0    555,DU
        35 014220   300000 740100                    STX0    0,,PR3

  28827 35 014221   000000 471500                    LDP1    0,,PR0
        35 014222   100007 473500                    LDP3    7,,PR1
        35 014223   000024 236000 36                 LDQ     20
        35 014224   300001 756100                    STQ     1,,PR3

  28828 35 014225   000000 471500                    LDP1    0,,PR0
        35 014226   100007 473500                    LDP3    7,,PR1
        35 014227   000024 236000 36                 LDQ     20
PL6.E3A0      #001=Z8EM$SEMANTICS_DATA_DIV File=Z8EM.:Z8A6TSI                    SAT 08/09/97 12:08 Page:629
        35 014230   300002 756100                    STQ     2,,PR3

  28829 35 014231   000000 471500                    LDP1    0,,PR0
        35 014232   100007 473500                    LDP3    7,,PR1
        35 014233   000024 236000 36                 LDQ     20
        35 014234   300003 756100                    STQ     3,,PR3

  28830 35 014235   000000 471500                    LDP1    0,,PR0
        35 014236   100007 473500                    LDP3    7,,PR1
        35 014237   000000 236100                    LDQ     0,,PR0
        35 014240   300004 756100                    STQ     4,,PR3

  28831 35 014241   000000 471500                    LDP1    0,,PR0
        35 014242   100007 473500                    LDP3    7,,PR1
        35 014243   000414 236000 0                  LDQ     FILE_DNT$
        35 014244   300005 756100                    STQ     5,,PR3

  28832 35 014245   000000 471500                    LDP1    0,,PR0
        35 014246   100007 473500                    LDP3    7,,PR1
        35 014247   000000 236003                    LDQ     0,DU
        35 014250   300000 552104                    STBQ    0,'04'O,PR3

  28833 35 014251   000000 471500                    LDP1    0,,PR0
        35 014252   100007 473500                    LDP3    7,,PR1
        35 014253   300000 552110                    STBQ    0,'10'O,PR3

  28834 35 014254   000000 471500                    LDP1    0,,PR0
        35 014255   100007 473500                    LDP3    7,,PR1
        35 014256   000104 236000 36                 LDQ     68
        35 014257   300000 356100                    ANSQ    0,,PR3

  28835 35 014260   000000 471500                    LDP1    0,,PR0
        35 014261   100007 473500                    LDP3    7,,PR1
        35 014262   000105 236000 36                 LDQ     69
        35 014263   300000 356100                    ANSQ    0,,PR3

  28836 35 014264   000000 471500                    LDP1    0,,PR0
PL6.E3A0      #001=Z8EM$SEMANTICS_DATA_DIV File=Z8EM.:Z8A6TSI                    SAT 08/09/97 12:08 Page:630
        35 014265   100007 473500                    LDP3    7,,PR1
        35 014266   000106 236000 36                 LDQ     70
        35 014267   300000 356100                    ANSQ    0,,PR3

  28837 35 014270   000000 471500                    LDP1    0,,PR0
        35 014271   100007 473500                    LDP3    7,,PR1
        35 014272   000107 236000 36                 LDQ     71
        35 014273   300000 356100                    ANSQ    0,,PR3

     2783    28840
     2784    28841             %UPDATE_PREV_QLT$ (@NEW_QLT$ = FD$$ -> FD.QLT$);

  28843 35 014274   000424 236000 xsym               LDQ     COMCOM+276
        35 014275   000024 116000 36                 CMPQ    20
        35 014276   014303 600000 35                 TZE     s:28845

  28844 35 014277   000000 471500                    LDP1    0,,PR0
        35 014300   100007 236100                    LDQ     7,,PR1
        35 014301   000424 473400 xsym               LDP3    COMCOM+276
        35 014302   300002 756100                    STQ     2,,PR3

  28845 35 014303   000000 471500                    LDP1    0,,PR0
        35 014304   100007 236100                    LDQ     7,,PR1
        35 014305   000424 756000 xsym               STQ     COMCOM+276

     2785    28848
     2786    28849             %ADD_XREF (SYM  = FD$$,
     2787    28850                        ISN  = FILE$ -> LX_TERMINAL.LINE,
     2788    28851                        TYPE = %XREF_DCL);

  28853 35 014306   000055 234000 xsym               SZN     COMCOM+45
        35 014307   014347 605000 35                 TPL     s:28950

  28857 35 014310   000002 236000 24                 LDQ     XREF_+2
        35 014311   000002 036007                    ADLQ    2,DL
        35 014312   000003 116000 24                 CMPQ    XREF_+3
        35 014313   014324 602000 35                 TNC     s:28859
PL6.E3A0      #001=Z8EM$SEMANTICS_DATA_DIV File=Z8EM.:Z8A6TSI                    SAT 08/09/97 12:08 Page:631

  28858 35 014314   000110 236000 36                 LDQ     72
        35 014315   001012 756000 0                  STQ     PROC$+2
        35 014316   001012 631400 0                  EPPR1   PROC$+2
        35 014317   001013 451400 0                  STP1    PROC$+3
        35 014320   001013 630400 0                  EPPR0   PROC$+3
        35 014321   000036 631400 36                 EPPR1   30
        35 014322   000000 701000 xent               TSX1    Z8AR$RESERVER
        35 014323   000000 011000                    NOP     0

  28859 35 014324   000002 236000 24                 LDQ     XREF_+2
        35 014325   000022 736000                    QLS     18
        35 014326   000001 036000 24                 ADLQ    XREF_+1
        35 014327   000000 756000 23                 STQ     XREF$

  28860 35 014330   000002 235000 24                 LDA     XREF_+2
        35 014331   000002 035007                    ADLA    2,DL
        35 014332   000002 755000 24                 STA     XREF_+2

  28861 35 014333   000004 220003                    LDX0    4,DU
        35 014334   000000 470400 23                 LDP0    XREF$
        35 014335   000000 740100                    STX0    0,,PR0

  28864 35 014336   000411 470400 0                  LDP0    @FILE$
        35 014337   000000 471500                    LDP1    0,,PR0
        35 014340   100005 721100                    LXL1    5,,PR1
        35 014341   000000 473400 23                 LDP3    XREF$
        35 014342   300000 441100                    SXL1    0,,PR3

  28865 35 014343   000412 471400 0                  LDP1    @FD$$
        35 014344   100000 236100                    LDQ     0,,PR1
        35 014345   000000 473400 23                 LDP3    XREF$
        35 014346   300001 756100                    STQ     1,,PR3

     2789    28869
     2790    28870             %NEW_FILE_LTS (@POINTER  = FD$$ -> FD.LTS$,
     2791    28871                            @ST$      = FD$$);
PL6.E3A0      #001=Z8EM$SEMANTICS_DATA_DIV File=Z8EM.:Z8A6TSI                    SAT 08/09/97 12:08 Page:632

  28950 35 014347   000002 236000 8                  LDQ     LTS_+2
        35 014350   000057 036007                    ADLQ    47,DL
        35 014351   000003 116000 8                  CMPQ    LTS_+3
        35 014352   014363 604000 35                 TMI     s:28952

  28951 35 014353   000211 236000 36                 LDQ     137
        35 014354   001012 756000 0                  STQ     PROC$+2
        35 014355   001012 630400 0                  EPPR0   PROC$+2
        35 014356   001013 450400 0                  STP0    PROC$+3
        35 014357   001013 630400 0                  EPPR0   PROC$+3
        35 014360   000036 631400 36                 EPPR1   30
        35 014361   000000 701000 xent               TSX1    Z8AR$RESERVER
        35 014362   000000 011000                    NOP     0

  28952 35 014363   000412 470400 0                  LDP0    @FD$$
        35 014364   000000 471500                    LDP1    0,,PR0
        35 014365   000002 236000 8                  LDQ     LTS_+2
        35 014366   000022 736000                    QLS     18
        35 014367   000001 036000 8                  ADLQ    LTS_+1
        35 014370   100005 756100                    STQ     5,,PR1

  28953 35 014371   000057 236007                    LDQ     47,DL
        35 014372   000002 056000 8                  ASQ     LTS_+2

  28954 35 014373   000000 471500                    LDP1    0,,PR0
        35 014374   100005 473500                    LDP3    5,,PR1
        35 014375   001121 220003                    LDX0    593,DU
        35 014376   300000 740100                    STX0    0,,PR3

  28960 35 014377   000000 471500                    LDP1    0,,PR0
        35 014400   100005 473500                    LDP3    5,,PR1
        35 014401   300000 740100                    STX0    0,,PR3

  28961 35 014402   000000 471500                    LDP1    0,,PR0
        35 014403   100005 473500                    LDP3    5,,PR1
        35 014404   000000 236100                    LDQ     0,,PR0
PL6.E3A0      #001=Z8EM$SEMANTICS_DATA_DIV File=Z8EM.:Z8A6TSI                    SAT 08/09/97 12:08 Page:633
        35 014405   300001 756100                    STQ     1,,PR3

  28962 35 014406   000000 471500                    LDP1    0,,PR0
        35 014407   100005 473500                    LDP3    5,,PR1
        35 014410   000024 236000 36                 LDQ     20
        35 014411   300002 756100                    STQ     2,,PR3

  28963 35 014412   000000 471500                    LDP1    0,,PR0
        35 014413   100005 473500                    LDP3    5,,PR1
        35 014414   000024 236000 36                 LDQ     20
        35 014415   300003 756100                    STQ     3,,PR3

  28964 35 014416   000000 471500                    LDP1    0,,PR0
        35 014417   100005 473500                    LDP3    5,,PR1
        35 014420   000024 236000 36                 LDQ     20
        35 014421   300004 756100                    STQ     4,,PR3

  28965 35 014422   000000 471500                    LDP1    0,,PR0
        35 014423   100005 473500                    LDP3    5,,PR1
        35 014424   000001 335007                    LCA     1,DL
        35 014425   300005 755100                    STA     5,,PR3

  28966 35 014426   000000 471500                    LDP1    0,,PR0
        35 014427   100005 473500                    LDP3    5,,PR1
        35 014430   300006 450100                    STZ     6,,PR3

  28967 35 014431   000000 471500                    LDP1    0,,PR0
        35 014432   100005 473500                    LDP3    5,,PR1
        35 014433   000024 236000 36                 LDQ     20
        35 014434   300007 756100                    STQ     7,,PR3

  28968 35 014435   000000 471500                    LDP1    0,,PR0
        35 014436   100005 473500                    LDP3    5,,PR1
        35 014437   300010 450100                    STZ     8,,PR3

  28969 35 014440   000000 471500                    LDP1    0,,PR0
        35 014441   100005 473500                    LDP3    5,,PR1
PL6.E3A0      #001=Z8EM$SEMANTICS_DATA_DIV File=Z8EM.:Z8A6TSI                    SAT 08/09/97 12:08 Page:634
        35 014442   300011 450100                    STZ     9,,PR3

  28970 35 014443   000000 471500                    LDP1    0,,PR0
        35 014444   100005 473500                    LDP3    5,,PR1
        35 014445   000024 236000 36                 LDQ     20
        35 014446   300012 756100                    STQ     10,,PR3

  28971 35 014447   000000 471500                    LDP1    0,,PR0
        35 014450   100005 473500                    LDP3    5,,PR1
        35 014451   000024 236000 36                 LDQ     20
        35 014452   300013 756100                    STQ     11,,PR3

  28972 35 014453   000000 471500                    LDP1    0,,PR0
        35 014454   100005 473500                    LDP3    5,,PR1
        35 014455   000024 236000 36                 LDQ     20
        35 014456   300014 756100                    STQ     12,,PR3

  28973 35 014457   000000 471500                    LDP1    0,,PR0
        35 014460   100005 473500                    LDP3    5,,PR1
        35 014461   000024 236000 36                 LDQ     20
        35 014462   300015 756100                    STQ     13,,PR3

  28974 35 014463   000000 471500                    LDP1    0,,PR0
        35 014464   100005 473500                    LDP3    5,,PR1
        35 014465   000024 236000 36                 LDQ     20
        35 014466   300016 756100                    STQ     14,,PR3

  28975 35 014467   000000 471500                    LDP1    0,,PR0
        35 014470   100005 473500                    LDP3    5,,PR1
        35 014471   300017 450100                    STZ     15,,PR3

  28976 35 014472   000000 471500                    LDP1    0,,PR0
        35 014473   100005 473500                    LDP3    5,,PR1
        35 014474   000024 236000 36                 LDQ     20
        35 014475   300020 756100                    STQ     16,,PR3

  28977 35 014476   000000 471500                    LDP1    0,,PR0
PL6.E3A0      #001=Z8EM$SEMANTICS_DATA_DIV File=Z8EM.:Z8A6TSI                    SAT 08/09/97 12:08 Page:635
        35 014477   100005 473500                    LDP3    5,,PR1
        35 014500   000001 236007                    LDQ     1,DL
        35 014501   300021 756100                    STQ     17,,PR3

  28978 35 014502   000000 471500                    LDP1    0,,PR0
        35 014503   100005 473500                    LDP3    5,,PR1
        35 014504   300022 756100                    STQ     18,,PR3

  28979 35 014505   000000 471500                    LDP1    0,,PR0
        35 014506   100005 473500                    LDP3    5,,PR1
        35 014507   300023 450100                    STZ     19,,PR3

  28980 35 014510   000000 471500                    LDP1    0,,PR0
        35 014511   100005 473500                    LDP3    5,,PR1
        35 014512   300024 450100                    STZ     20,,PR3

  28981 35 014513   000000 471500                    LDP1    0,,PR0
        35 014514   100005 473500                    LDP3    5,,PR1
        35 014515   000024 236000 36                 LDQ     20
        35 014516   300025 756100                    STQ     21,,PR3

  28982 35 014517   000000 471500                    LDP1    0,,PR0
        35 014520   100005 473500                    LDP3    5,,PR1
        35 014521   300026 756100                    STQ     22,,PR3

  28983 35 014522   000000 471500                    LDP1    0,,PR0
        35 014523   100005 473500                    LDP3    5,,PR1
        35 014524   300027 756100                    STQ     23,,PR3

  28984 35 014525   000000 471500                    LDP1    0,,PR0
        35 014526   100005 473500                    LDP3    5,,PR1
        35 014527   300030 756100                    STQ     24,,PR3

  28985 35 014530   000000 471500                    LDP1    0,,PR0
        35 014531   100005 473500                    LDP3    5,,PR1
        35 014532   300031 756100                    STQ     25,,PR3

PL6.E3A0      #001=Z8EM$SEMANTICS_DATA_DIV File=Z8EM.:Z8A6TSI                    SAT 08/09/97 12:08 Page:636
  28986 35 014533   000000 471500                    LDP1    0,,PR0
        35 014534   100005 473500                    LDP3    5,,PR1
        35 014535   300032 756100                    STQ     26,,PR3

  28987 35 014536   000000 471500                    LDP1    0,,PR0
        35 014537   100005 473500                    LDP3    5,,PR1
        35 014540   300033 756100                    STQ     27,,PR3

  28988 35 014541   000000 471500                    LDP1    0,,PR0
        35 014542   100005 473500                    LDP3    5,,PR1
        35 014543   300035 756100                    STQ     29,,PR3

  28989 35 014544   000000 471500                    LDP1    0,,PR0
        35 014545   100005 473500                    LDP3    5,,PR1
        35 014546   300036 756100                    STQ     30,,PR3

  28990 35 014547   000000 471500                    LDP1    0,,PR0
        35 014550   100005 473500                    LDP3    5,,PR1
        35 014551   300034 756100                    STQ     28,,PR3

  28991 35 014552   000000 471500                    LDP1    0,,PR0
        35 014553   100005 473500                    LDP3    5,,PR1
        35 014554   300037 756100                    STQ     31,,PR3

  28992 35 014555   000000 471500                    LDP1    0,,PR0
        35 014556   100005 473500                    LDP3    5,,PR1
        35 014557   300040 756100                    STQ     32,,PR3

  28993 35 014560   000000 471500                    LDP1    0,,PR0
        35 014561   100005 473500                    LDP3    5,,PR1
        35 014562   300041 450100                    STZ     33,,PR3

  28994 35 014563   000000 471500                    LDP1    0,,PR0
        35 014564   100005 473500                    LDP3    5,,PR1
        35 014565   300042 756100                    STQ     34,,PR3

  28995 35 014566   000000 471500                    LDP1    0,,PR0
PL6.E3A0      #001=Z8EM$SEMANTICS_DATA_DIV File=Z8EM.:Z8A6TSI                    SAT 08/09/97 12:08 Page:637
        35 014567   100005 473500                    LDP3    5,,PR1
        35 014570   300043 756100                    STQ     35,,PR3

  28996 35 014571   000000 471500                    LDP1    0,,PR0
        35 014572   100005 473500                    LDP3    5,,PR1
        35 014573   300044 756100                    STQ     36,,PR3

  28997 35 014574   000000 471500                    LDP1    0,,PR0
        35 014575   100005 473500                    LDP3    5,,PR1
        35 014576   300045 756100                    STQ     37,,PR3

  28998 35 014577   000000 471500                    LDP1    0,,PR0
        35 014600   100005 473500                    LDP3    5,,PR1
        35 014601   300046 756100                    STQ     38,,PR3

  28999 35 014602   000000 471500                    LDP1    0,,PR0
        35 014603   100005 473500                    LDP3    5,,PR1
        35 014604   300047 756100                    STQ     39,,PR3

  29000 35 014605   000000 471500                    LDP1    0,,PR0
        35 014606   100005 473500                    LDP3    5,,PR1
        35 014607   300050 450100                    STZ     40,,PR3

  29001 35 014610   000000 471500                    LDP1    0,,PR0
        35 014611   100005 473500                    LDP3    5,,PR1
        35 014612   300051 756100                    STQ     41,,PR3

  29003 35 014613   000000 471500                    LDP1    0,,PR0
        35 014614   100005 473500                    LDP3    5,,PR1
        35 014615   000011 236000 36                 LDQ     9
        35 014616   300052 756100                    STQ     42,,PR3

  29007 35 014617   000000 471500                    LDP1    0,,PR0
        35 014620   100005 473500                    LDP3    5,,PR1
        35 014621   000024 236000 36                 LDQ     20
        35 014622   300053 756100                    STQ     43,,PR3

PL6.E3A0      #001=Z8EM$SEMANTICS_DATA_DIV File=Z8EM.:Z8A6TSI                    SAT 08/09/97 12:08 Page:638
  29008 35 014623   000000 471500                    LDP1    0,,PR0
        35 014624   100005 473500                    LDP3    5,,PR1
        35 014625   300054 756100                    STQ     44,,PR3

  29009 35 014626   000000 471500                    LDP1    0,,PR0
        35 014627   100005 473500                    LDP3    5,,PR1
        35 014630   300055 450100                    STZ     45,,PR3

  29010 35 014631   000000 471500                    LDP1    0,,PR0
        35 014632   100005 473500                    LDP3    5,,PR1
        35 014633   000302 236000 36                 LDQ     194
        35 014634   300017 356100                    ANSQ    15,,PR3

  29011 35 014635   000000 471500                    LDP1    0,,PR0
        35 014636   100005 473500                    LDP3    5,,PR1
        35 014637   000024 236000 36                 LDQ     20
        35 014640   300056 756100                    STQ     46,,PR3

     2792    29095
     2793    29096    2        FD$$ -> FD.LTS$ -> FILE_LTS.FILE_LTS_CHAIN$ = COMCOM.FILE_LTS_CHAIN$;

  29096 35 014641   000000 471500                    LDP1    0,,PR0
        35 014642   100005 473500                    LDP3    5,,PR1
        35 014643   000434 236000 xsym               LDQ     COMCOM+284
        35 014644   300003 756100                    STQ     3,,PR3

     2794    29097    2        COMCOM.FILE_LTS_CHAIN$ = FD$$ -> FD.LTS$;

  29097 35 014645   000000 471500                    LDP1    0,,PR0
        35 014646   100005 236100                    LDQ     5,,PR1
        35 014647   000434 756000 xsym               STQ     COMCOM+284

     2795    29098
     2796    29099             /* Next a son to the FD is created to hold the length of
     2797    29100                the record descriptions.  This is done to allow a
     2798    29101                linage-counter variable to be qualified by the file.
     2799    29102                The structure is as follows:
PL6.E3A0      #001=Z8EM$SEMANTICS_DATA_DIV File=Z8EM.:Z8A6TSI                    SAT 08/09/97 12:08 Page:639
     2800    29103
     2801    29104                   01 FD_VAR.
     2802    29105                     02 LENGTH_NO_LINAGE_GUY PIC X.
     2803    29106                     02 FIRST_01_RECORD_DESC PIC X(WHAT_EVER).
     2804    29107                     02 SECOND_01_RECORD_DESC PIC X(WHAT_EVER).
     2805    29108                         . . .
     2806    29109                     02 LAST_01_RECORD_DESC PIC X(WHAT_EVER).
     2807    29110                     02 LINAGE-COUNTER PIC X(4). { Optional }
     2808    29111
     2809    29112             */
     2810    29113
     2811    29114    2        LEX_SYMBOL.SIZE = %INFO_RECORD_LENGTH;

  29114 35 014650   000014 235007                    LDA     12,DL
        35 014651   000010 755000 25                 STA     LEX_SYMBOL+8

     2812    29115    2        SUBSTR (LEX_SYMBOL.SYMBOL,

  29115 35 014652   040000 100400                    MLR     fill='040'O
        35 014653   000061 000014 34                 ADSC9   RSW_NO+49                cn=0,n=12
        35 014654   000011 000014 25                 ADSC9   LEX_SYMBOL+9             cn=0,n=12

     2813    29116    2                0,
     2814    29117    2                %INFO_RECORD_LENGTH) = %INFO_RECORD_TEXT;
     2815    29118
     2816    29119    2        CALL Z8AH$SEARCH_;

  29119 35 014655   000011 631400 36                 EPPR1   9
        35 014656   000000 701000 xent               TSX1    Z8AH$SEARCH_
        35 014657   000000 011000                    NOP     0

     2817    29120
     2818    29121             %NEW_SCALAR (@ST$   = INFO$,
     2819    29122                          @TYPE  = %TYA,
     2820    29123                          @DNT$  = DNT$,
     2821    29124                          @NEXT  = DNT$ -> DNT.ST$,
     2822    29125                          @CLASS = %CLASS_ALPHANUMERIC,
PL6.E3A0      #001=Z8EM$SEMANTICS_DATA_DIV File=Z8EM.:Z8A6TSI                    SAT 08/09/97 12:08 Page:640
     2823    29126                          @REDEF_OBJ  = TRUE,
     2824    29127                          @ELEMENTARY = TRUE);

  29131 35 014660   000002 236000 13                 LDQ     ST_+2
        35 014661   000013 036007                    ADLQ    11,DL
        35 014662   000003 116000 13                 CMPQ    ST_+3
        35 014663   014674 604000 35                 TMI     s:29133

  29132 35 014664   000102 236000 36                 LDQ     66
        35 014665   001012 756000 0                  STQ     PROC$+2
        35 014666   001012 630400 0                  EPPR0   PROC$+2
        35 014667   001013 450400 0                  STP0    PROC$+3
        35 014670   001013 630400 0                  EPPR0   PROC$+3
        35 014671   000036 631400 36                 EPPR1   30
        35 014672   000000 701000 xent               TSX1    Z8AR$RESERVER
        35 014673   000000 011000                    NOP     0

  29133 35 014674   000002 236000 13                 LDQ     ST_+2
        35 014675   000022 736000                    QLS     18
        35 014676   000001 036000 13                 ADLQ    ST_+1
        35 014677   000415 756000 0                  STQ     INFO$

  29134 35 014700   000013 236007                    LDQ     11,DL
        35 014701   000002 056000 13                 ASQ     ST_+2

  29182 35 014702   000766 220003                    LDX0    502,DU
        35 014703   000415 470400 0                  LDP0    INFO$
        35 014704   000000 740100                    STX0    0,,PR0

  29183 35 014705   003000 236007                    LDQ     1536,DL
        35 014706   000000 552110                    STBQ    0,'10'O,PR0

  29184 35 014707   000001 236007                    LDQ     1,DL
        35 014710   000000 552104                    STBQ    0,'04'O,PR0

  29185 35 014711   000000 221003                    LDX1    0,DU
        35 014712   000001 741100                    STX1    1,,PR0
PL6.E3A0      #001=Z8EM$SEMANTICS_DATA_DIV File=Z8EM.:Z8A6TSI                    SAT 08/09/97 12:08 Page:641

  29186 35 014713   000001 441100                    SXL1    1,,PR0

  29187 35 014714   000133 722000 xsym               LXL2    COMCOM+91
        35 014715   000002 442100                    SXL2    2,,PR0

  29188 35 014716   000003 450100                    STZ     3,,PR0

  29189 35 014717   000000 471400 14                 LDP1    DNT$
        35 014720   100001 236100                    LDQ     1,,PR1
        35 014721   000004 756100                    STQ     4,,PR0

  29190 35 014722   000024 236000 36                 LDQ     20
        35 014723   000005 756100                    STQ     5,,PR0

  29191 35 014724   000024 236000 36                 LDQ     20
        35 014725   000007 756100                    STQ     7,,PR0

  29192 35 014726   000010 741100                    STX1    8,,PR0

  29193 35 014727   777777 223003                    LDX3    -1,DU
        35 014730   000010 443100                    SXL3    8,,PR0

  29197 35 014731   000024 236000 36                 LDQ     20
        35 014732   000012 756100                    STQ     10,,PR0

  29200 35 014733   000057 236000 xsym               LDQ     O1COM+47
        35 014734   000011 756100                    STQ     9,,PR0

  29201 35 014735   000057 236000 xsym               LDQ     O1COM+47
        35 014736   000024 116000 36                 CMPQ    20
        35 014737   014761 600000 35                 TZE     s:29236

  29205 35 014740   000057 473400 xsym               LDP3    O1COM+47
        35 014741   300001 474500                    LDP4    1,,PR3
        35 014742   400012 236100                    LDQ     10,,PR4
        35 014743   000024 116000 36                 CMPQ    20
PL6.E3A0      #001=Z8EM$SEMANTICS_DATA_DIV File=Z8EM.:Z8A6TSI                    SAT 08/09/97 12:08 Page:642
        35 014744   014753 601000 35                 TNZ     s:29212

  29207 35 014745   000415 236000 0                  LDQ     INFO$
        35 014746   400011 756100                    STQ     9,,PR4

  29208 35 014747   000057 473400 xsym               LDP3    O1COM+47
        35 014750   300001 474500                    LDP4    1,,PR3
        35 014751   400012 756100                    STQ     10,,PR4

  29209 35 014752   014761 710000 35                 TRA     s:29236

  29212 35 014753   400012 475500                    LDP5    10,,PR4
        35 014754   000415 236000 0                  LDQ     INFO$
        35 014755   500012 756100                    STQ     10,,PR5

  29213 35 014756   000057 473400 xsym               LDP3    O1COM+47
        35 014757   300001 474500                    LDP4    1,,PR3
        35 014760   400012 756100                    STQ     10,,PR4

  29236 35 014761   000010 222003                    LDX2    8,DU
        35 014762   000002 742100                    STX2    2,,PR0

  29241 35 014763   000000 236000 14                 LDQ     DNT$
        35 014764   000006 756100                    STQ     6,,PR0

  29258 35 014765   010000 236003                    LDQ     4096,DU
        35 014766   000003 256100                    ORSQ    3,,PR0

  29273 35 014767   000400 236003                    LDQ     256,DU
        35 014770   000003 256100                    ORSQ    3,,PR0

  29306 35 014771   000003 236100                    LDQ     3,,PR0
        35 014772   000202 376000 36                 ANQ     130
        35 014773   000003 276007                    ORQ     3,DL
        35 014774   000003 756100                    STQ     3,,PR0

     2825    29327
PL6.E3A0      #001=Z8EM$SEMANTICS_DATA_DIV File=Z8EM.:Z8A6TSI                    SAT 08/09/97 12:08 Page:643
     2826    29328    2        INFO$ -> ST.ADSC.N = 1;

  29328 35 014775   000001 236007                    LDQ     1,DL
        35 014776   000001 752103                    STCQ    1,'03'O,PR0

     2827    29329
     2828    29330    2        DNT$ -> DNT.ST$ = INFO$;

  29330 35 014777   000415 236000 0                  LDQ     INFO$
        35 015000   100001 756100                    STQ     1,,PR1

     2829    29331
     2830    29332             %NEW_QLT (@POINTER = INFO$ -> SCALAR.QLT$,
     2831    29333                       @LEVEL#  = 2,
     2832    29334                       @FATHER  = FD$$ -> FD.QLT$,
     2833    29335                       @DNT$    = DNT$,
     2834    29336                       @ST$     = INFO$);

  29341 35 015001   000002 236000 11                 LDQ     QLT_+2
        35 015002   000006 036007                    ADLQ    6,DL
        35 015003   000003 116000 11                 CMPQ    QLT_+3
        35 015004   015015 602000 35                 TNC     s:29343

  29342 35 015005   000103 236000 36                 LDQ     67
        35 015006   001012 756000 0                  STQ     PROC$+2
        35 015007   001012 633400 0                  EPPR3   PROC$+2
        35 015010   001013 453400 0                  STP3    PROC$+3
        35 015011   001013 630400 0                  EPPR0   PROC$+3
        35 015012   000036 631400 36                 EPPR1   30
        35 015013   000000 701000 xent               TSX1    Z8AR$RESERVER
        35 015014   000000 011000                    NOP     0

  29343 35 015015   000002 236000 11                 LDQ     QLT_+2
        35 015016   000022 736000                    QLS     18
        35 015017   000001 036000 11                 ADLQ    QLT_+1
        35 015020   000415 470400 0                  LDP0    INFO$
        35 015021   000007 756100                    STQ     7,,PR0
PL6.E3A0      #001=Z8EM$SEMANTICS_DATA_DIV File=Z8EM.:Z8A6TSI                    SAT 08/09/97 12:08 Page:644

  29344 35 015022   000002 235000 11                 LDA     QLT_+2
        35 015023   000006 035007                    ADLA    6,DL
        35 015024   000002 755000 11                 STA     QLT_+2

  29345 35 015025   000007 471500                    LDP1    7,,PR0
        35 015026   001053 220003                    LDX0    555,DU
        35 015027   100000 740100                    STX0    0,,PR1

  29348 35 015030   000007 471500                    LDP1    7,,PR0
        35 015031   000412 473400 0                  LDP3    @FD$$
        35 015032   300000 474500                    LDP4    0,,PR3
        35 015033   400007 236100                    LDQ     7,,PR4
        35 015034   100001 756100                    STQ     1,,PR1

  29349 35 015035   000007 471500                    LDP1    7,,PR0
        35 015036   000024 236000 36                 LDQ     20
        35 015037   100002 756100                    STQ     2,,PR1

  29350 35 015040   000007 471500                    LDP1    7,,PR0
        35 015041   000024 236000 36                 LDQ     20
        35 015042   100003 756100                    STQ     3,,PR1

  29351 35 015043   000007 471500                    LDP1    7,,PR0
        35 015044   000415 236000 0                  LDQ     INFO$
        35 015045   100004 756100                    STQ     4,,PR1

  29352 35 015046   000007 471500                    LDP1    7,,PR0
        35 015047   000000 236000 14                 LDQ     DNT$
        35 015050   100005 756100                    STQ     5,,PR1

  29353 35 015051   000007 471500                    LDP1    7,,PR0
        35 015052   000002 236007                    LDQ     2,DL
        35 015053   100000 552104                    STBQ    0,'04'O,PR1

  29354 35 015054   000007 471500                    LDP1    7,,PR0
        35 015055   000000 236003                    LDQ     0,DU
PL6.E3A0      #001=Z8EM$SEMANTICS_DATA_DIV File=Z8EM.:Z8A6TSI                    SAT 08/09/97 12:08 Page:645
        35 015056   100000 552110                    STBQ    0,'10'O,PR1

  29355 35 015057   000007 471500                    LDP1    7,,PR0
        35 015060   000104 236000 36                 LDQ     68
        35 015061   100000 356100                    ANSQ    0,,PR1

  29356 35 015062   000007 471500                    LDP1    7,,PR0
        35 015063   000105 236000 36                 LDQ     69
        35 015064   100000 356100                    ANSQ    0,,PR1

  29357 35 015065   000007 471500                    LDP1    7,,PR0
        35 015066   000106 236000 36                 LDQ     70
        35 015067   100000 356100                    ANSQ    0,,PR1

  29358 35 015070   000007 471500                    LDP1    7,,PR0
        35 015071   000107 236000 36                 LDQ     71
        35 015072   100000 356100                    ANSQ    0,,PR1

     2835    29361
     2836    29362    2        FD$$ -> FD.QLT$ -> QLT.SON = INFO$ -> SCALAR.QLT$;

  29362 35 015073   300000 471500                    LDP1    0,,PR3
        35 015074   100007 474500                    LDP4    7,,PR1
        35 015075   000007 236100                    LDQ     7,,PR0
        35 015076   400003 756100                    STQ     3,,PR4

     2837    29363
     2838    29364    2   END NEW_FILE;

  29364 35 015077   000410 221200 0                  LDX1  ! TABLE$+1
        35 015100   000001 702211                    TSX2  ! 1,X1

     2839    29365        %EJECT;
PL6.E3A0      #001=Z8EM$SEMANTICS_DATA_DIV File=Z8EM.:Z8A6TSI                    SAT 08/09/97 12:08 Page:646
     2840    29366
     2841    29367         /*================*/
     2842    29368    1      NEW_LINE_COUNTER:  PROC (ST$$, REPORT$);

  29368 35 015101   000416 741200 0     NEW_LINE_CO* STX1  ! INFO$+1

     2843    29369         /*================*/
     2844    29370
     2845    29371           %EQU LINE_COUNTER_TEXT = 'LINE-COUNTER';
     2846    29372           %EQU LINE_COUNTER_LENGTH = 12;
     2847    29373
     2848    29374
     2849    29375    2     DCL ST$$         PTR;  /* Pointer to <report name> st item */
     2850    29376    2     DCL REPORT$      PTR;
     2851    29377    2     DCL LINE$        PTR;
     2852    29378
     2853    29379
     2854    29380
     2855    29381    2       LEX_SYMBOL.SIZE = %LINE_COUNTER_LENGTH;

  29381 35 015102   000014 235007                    LDA     12,DL
        35 015103   000010 755000 25                 STA     LEX_SYMBOL+8

     2856    29382    2       SUBSTR (LEX_SYMBOL.SYMBOL,

  29382 35 015104   040000 100400                    MLR     fill='040'O
        35 015105   000064 000014 34                 ADSC9   RSW_NO+52                cn=0,n=12
        35 015106   000011 000014 25                 ADSC9   LEX_SYMBOL+9             cn=0,n=12

     2857    29383    2               0,
     2858    29384    2               %LINE_COUNTER_LENGTH) = %LINE_COUNTER_TEXT;
     2859    29385
     2860    29386    2       CALL Z8AH$SEARCH_;

  29386 35 015107   000011 631400 36                 EPPR1   9
        35 015110   000000 701000 xent               TSX1    Z8AH$SEARCH_
        35 015111   000000 011000                    NOP     0
PL6.E3A0      #001=Z8EM$SEMANTICS_DATA_DIV File=Z8EM.:Z8A6TSI                    SAT 08/09/97 12:08 Page:647

     2861    29387
     2862    29388    2       DNT$ -> DNT.B.REP_COUNTER = TRUE;

  29388 35 015112   000000 470400 14                 LDP0    DNT$
        35 015113   000020 236003                    LDQ     16,DU
        35 015114   000003 256100                    ORSQ    3,,PR0

     2863    29389
     2864    29390            %NEW_SCALAR ( @ST$        = LINE$,
     2865    29391                          @LINE_NO    = REPORT$ -> LX_ITEM.LINE,
     2866    29392                          @DNT$       = DNT$,
     2867    29393                          @NEXT       = DNT$ -> DNT.ST$,
     2868    29394                          @TYPE       = %TYI,
     2869    29395                          @ELEMENTARY = TRUE,
     2870    29396                          @REPORT_ITEM = TRUE,
     2871    29397                          @COMPILER_CREATED = TRUE,
     2872    29398                          @CLASS      = %CLASS_NUMERIC);

  29402 35 015115   000002 236000 13                 LDQ     ST_+2
        35 015116   000013 036007                    ADLQ    11,DL
        35 015117   000003 116000 13                 CMPQ    ST_+3
        35 015120   015131 604000 35                 TMI     s:29404

  29403 35 015121   000102 236000 36                 LDQ     66
        35 015122   001012 756000 0                  STQ     PROC$+2
        35 015123   001012 631400 0                  EPPR1   PROC$+2
        35 015124   001013 451400 0                  STP1    PROC$+3
        35 015125   001013 630400 0                  EPPR0   PROC$+3
        35 015126   000036 631400 36                 EPPR1   30
        35 015127   000000 701000 xent               TSX1    Z8AR$RESERVER
        35 015130   000000 011000                    NOP     0

  29404 35 015131   000002 236000 13                 LDQ     ST_+2
        35 015132   000022 736000                    QLS     18
        35 015133   000001 036000 13                 ADLQ    ST_+1
        35 015134   000421 756000 0                  STQ     LINE$
PL6.E3A0      #001=Z8EM$SEMANTICS_DATA_DIV File=Z8EM.:Z8A6TSI                    SAT 08/09/97 12:08 Page:648

  29405 35 015135   000013 236007                    LDQ     11,DL
        35 015136   000002 056000 13                 ASQ     ST_+2

  29453 35 015137   000766 220003                    LDX0    502,DU
        35 015140   000421 470400 0                  LDP0    LINE$
        35 015141   000000 740100                    STX0    0,,PR0

  29454 35 015142   003000 236007                    LDQ     1536,DL
        35 015143   000000 552110                    STBQ    0,'10'O,PR0

  29455 35 015144   000001 236007                    LDQ     1,DL
        35 015145   000000 552104                    STBQ    0,'04'O,PR0

  29456 35 015146   000000 221003                    LDX1    0,DU
        35 015147   000001 741100                    STX1    1,,PR0

  29457 35 015150   000001 441100                    SXL1    1,,PR0

  29458 35 015151   000420 471400 0                  LDP1    @REPORT$
        35 015152   100000 473500                    LDP3    0,,PR1
        35 015153   300005 722100                    LXL2    5,,PR3
        35 015154   000002 442100                    SXL2    2,,PR0

  29459 35 015155   000003 450100                    STZ     3,,PR0

  29460 35 015156   000000 473400 14                 LDP3    DNT$
        35 015157   300001 236100                    LDQ     1,,PR3
        35 015160   000004 756100                    STQ     4,,PR0

  29461 35 015161   000024 236000 36                 LDQ     20
        35 015162   000005 756100                    STQ     5,,PR0

  29462 35 015163   000024 236000 36                 LDQ     20
        35 015164   000007 756100                    STQ     7,,PR0

  29463 35 015165   000010 741100                    STX1    8,,PR0
PL6.E3A0      #001=Z8EM$SEMANTICS_DATA_DIV File=Z8EM.:Z8A6TSI                    SAT 08/09/97 12:08 Page:649

  29464 35 015166   777777 223003                    LDX3    -1,DU
        35 015167   000010 443100                    SXL3    8,,PR0

  29468 35 015170   000024 236000 36                 LDQ     20
        35 015171   000012 756100                    STQ     10,,PR0

  29471 35 015172   000057 236000 xsym               LDQ     O1COM+47
        35 015173   000011 756100                    STQ     9,,PR0

  29472 35 015174   000057 236000 xsym               LDQ     O1COM+47
        35 015175   000024 116000 36                 CMPQ    20
        35 015176   015220 600000 35                 TZE     s:29507

  29476 35 015177   000057 474400 xsym               LDP4    O1COM+47
        35 015200   400001 475500                    LDP5    1,,PR4
        35 015201   500012 236100                    LDQ     10,,PR5
        35 015202   000024 116000 36                 CMPQ    20
        35 015203   015212 601000 35                 TNZ     s:29483

  29478 35 015204   000421 236000 0                  LDQ     LINE$
        35 015205   500011 756100                    STQ     9,,PR5

  29479 35 015206   000057 474400 xsym               LDP4    O1COM+47
        35 015207   400001 475500                    LDP5    1,,PR4
        35 015210   500012 756100                    STQ     10,,PR5

  29480 35 015211   015220 710000 35                 TRA     s:29507

  29483 35 015212   500012 476500                    LDP6    10,,PR5
        35 015213   000421 236000 0                  LDQ     LINE$
        35 015214   600012 756100                    STQ     10,,PR6

  29484 35 015215   000057 474400 xsym               LDP4    O1COM+47
        35 015216   400001 475500                    LDP5    1,,PR4
        35 015217   500012 756100                    STQ     10,,PR5

PL6.E3A0      #001=Z8EM$SEMANTICS_DATA_DIV File=Z8EM.:Z8A6TSI                    SAT 08/09/97 12:08 Page:650
  29507 35 015220   000001 222003                    LDX2    1,DU
        35 015221   000002 742100                    STX2    2,,PR0

  29512 35 015222   000000 236000 14                 LDQ     DNT$
        35 015223   000006 756100                    STQ     6,,PR0

  29529 35 015224   010000 236003                    LDQ     4096,DU
        35 015225   000003 256100                    ORSQ    3,,PR0

  29538 35 015226   100000 236003                    LDQ     32768,DU
        35 015227   000003 256100                    ORSQ    3,,PR0

  29571 35 015230   010000 236007                    LDQ     4096,DL
        35 015231   000003 256100                    ORSQ    3,,PR0

  29577 35 015232   000003 236100                    LDQ     3,,PR0
        35 015233   000202 376000 36                 ANQ     130
        35 015234   000001 276007                    ORQ     1,DL
        35 015235   000003 756100                    STQ     3,,PR0

     2873    29598
     2874    29599    2       LINE$ -> ST.NDSC.N = %TYI_LENGTH;

  29599 35 015236   000004 236007                    LDQ     4,DL
        35 015237   000001 752101                    STCQ    1,'01'O,PR0

     2875    29600    2       DNT$ -> DNT.ST$ = LINE$;

  29600 35 015240   000421 236000 0                  LDQ     LINE$
        35 015241   300001 756100                    STQ     1,,PR3

     2876    29601    2       ST$$ -> RD.LTS$ -> REPORT_LTS.LINE_COUNTER$ = LINE$;

  29601 35 015242   000417 474400 0                  LDP4    @ST$$
        35 015243   400000 475500                    LDP5    0,,PR4
        35 015244   500005 476500                    LDP6    5,,PR5
        35 015245   600020 756100                    STQ     16,,PR6
PL6.E3A0      #001=Z8EM$SEMANTICS_DATA_DIV File=Z8EM.:Z8A6TSI                    SAT 08/09/97 12:08 Page:651

     2877    29602
     2878    29603            %NEW_QLT (@POINTER    = LINE$ -> SCALAR.QLT$,
     2879    29604                      @LEVEL#     = 1,
     2880    29605                      @FATHER     = ST$$ -> RD.QLT$,
     2881    29606                      @ST$        = LINE$,
     2882    29607                      @DNT$       = DNT$);

  29612 35 015246   000002 236000 11                 LDQ     QLT_+2
        35 015247   000006 036007                    ADLQ    6,DL
        35 015250   000003 116000 11                 CMPQ    QLT_+3
        35 015251   015262 602000 35                 TNC     s:29614

  29613 35 015252   000103 236000 36                 LDQ     67
        35 015253   001012 756000 0                  STQ     PROC$+2
        35 015254   001012 635400 0                  EPPR5   PROC$+2
        35 015255   001013 455400 0                  STP5    PROC$+3
        35 015256   001013 630400 0                  EPPR0   PROC$+3
        35 015257   000036 631400 36                 EPPR1   30
        35 015260   000000 701000 xent               TSX1    Z8AR$RESERVER
        35 015261   000000 011000                    NOP     0

  29614 35 015262   000002 236000 11                 LDQ     QLT_+2
        35 015263   000022 736000                    QLS     18
        35 015264   000001 036000 11                 ADLQ    QLT_+1
        35 015265   000421 470400 0                  LDP0    LINE$
        35 015266   000007 756100                    STQ     7,,PR0

  29615 35 015267   000002 235000 11                 LDA     QLT_+2
        35 015270   000006 035007                    ADLA    6,DL
        35 015271   000002 755000 11                 STA     QLT_+2

  29616 35 015272   000007 471500                    LDP1    7,,PR0
        35 015273   001053 220003                    LDX0    555,DU
        35 015274   100000 740100                    STX0    0,,PR1

  29619 35 015275   000007 471500                    LDP1    7,,PR0
PL6.E3A0      #001=Z8EM$SEMANTICS_DATA_DIV File=Z8EM.:Z8A6TSI                    SAT 08/09/97 12:08 Page:652
        35 015276   000417 473400 0                  LDP3    @ST$$
        35 015277   300000 474500                    LDP4    0,,PR3
        35 015300   400007 236100                    LDQ     7,,PR4
        35 015301   100001 756100                    STQ     1,,PR1

  29620 35 015302   000007 471500                    LDP1    7,,PR0
        35 015303   000024 236000 36                 LDQ     20
        35 015304   100002 756100                    STQ     2,,PR1

  29621 35 015305   000007 471500                    LDP1    7,,PR0
        35 015306   000024 236000 36                 LDQ     20
        35 015307   100003 756100                    STQ     3,,PR1

  29622 35 015310   000007 471500                    LDP1    7,,PR0
        35 015311   000421 236000 0                  LDQ     LINE$
        35 015312   100004 756100                    STQ     4,,PR1

  29623 35 015313   000007 471500                    LDP1    7,,PR0
        35 015314   000000 236000 14                 LDQ     DNT$
        35 015315   100005 756100                    STQ     5,,PR1

  29624 35 015316   000007 471500                    LDP1    7,,PR0
        35 015317   000001 236007                    LDQ     1,DL
        35 015320   100000 552104                    STBQ    0,'04'O,PR1

  29625 35 015321   000007 471500                    LDP1    7,,PR0
        35 015322   000000 236003                    LDQ     0,DU
        35 015323   100000 552110                    STBQ    0,'10'O,PR1

  29626 35 015324   000007 471500                    LDP1    7,,PR0
        35 015325   000104 236000 36                 LDQ     68
        35 015326   100000 356100                    ANSQ    0,,PR1

  29627 35 015327   000007 471500                    LDP1    7,,PR0
        35 015330   000105 236000 36                 LDQ     69
        35 015331   100000 356100                    ANSQ    0,,PR1

PL6.E3A0      #001=Z8EM$SEMANTICS_DATA_DIV File=Z8EM.:Z8A6TSI                    SAT 08/09/97 12:08 Page:653
  29628 35 015332   000007 471500                    LDP1    7,,PR0
        35 015333   000106 236000 36                 LDQ     70
        35 015334   100000 356100                    ANSQ    0,,PR1

  29629 35 015335   000007 471500                    LDP1    7,,PR0
        35 015336   000107 236000 36                 LDQ     71
        35 015337   100000 356100                    ANSQ    0,,PR1

     2883    29632
     2884    29633    2       ST$$ -> RD.QLT$ -> QLT.SON -> QLT.BROTHER = LINE$ -> SCALAR.QLT$;

  29633 35 015340   300000 471500                    LDP1    0,,PR3
        35 015341   100007 474500                    LDP4    7,,PR1
        35 015342   400003 475500                    LDP5    3,,PR4
        35 015343   000007 236100                    LDQ     7,,PR0
        35 015344   500002 756100                    STQ     2,,PR5

     2885    29634
     2886    29635    2     END NEW_LINE_COUNTER;

  29635 35 015345   000416 221200 0                  LDX1  ! INFO$+1
        35 015346   000001 702211                    TSX2  ! 1,X1

     2887    29636          %EJECT;
PL6.E3A0      #001=Z8EM$SEMANTICS_DATA_DIV File=Z8EM.:Z8A6TSI                    SAT 08/09/97 12:08 Page:654
     2888    29637        /*==================*/
     2889    29638    1     NEW_LINAGE_COUNTER: PROC (LTS$$);

  29638 35 015347   000422 741200 0     NEW_LINAGE_* STX1  ! LINE$+1

     2890    29639        /*==================*/
     2891    29640
     2892    29641
     2893    29642             %EQU LINAGE_COUNTER_TEXT   = 'LINAGE-COUNTER';
     2894    29643             %EQU LINAGE_COUNTER_LENGTH = 14;
     2895    29644
     2896    29645
     2897    29646    2        DCL LTS$$         PTR;
     2898    29647    2        DCL LINAGE$       PTR;
     2899    29648    2        DCL BRO$          PTR;
     2900    29649
     2901    29650
     2902    29651    2        IF LTS$$ -> FILE_LTS.LINAGE.NO_OF_LINES$ = ADDR(NIL) THEN

  29651 35 015350   000423 470400 0                  LDP0    @LTS$$
        35 015351   000000 471500                    LDP1    0,,PR0
        35 015352   100033 236100                    LDQ     27,,PR1
        35 015353   000024 116000 36                 CMPQ    20
        35 015354   015356 601000 35                 TNZ     s:29654

     2903    29652    2          RETURN;

  29652 35 015355   000001 702211                    TSX2  ! 1,X1

     2904    29653
     2905    29654    2        BRO$ = LTS$$ -> FILE_LTS.ST$ -> FD.QLT$ -> QLT.SON;

  29654 35 015356   100001 473500                    LDP3    1,,PR1
        35 015357   300007 474500                    LDP4    7,,PR3
        35 015360   400003 236100                    LDQ     3,,PR4
        35 015361   000425 756000 0                  STQ     BRO$

PL6.E3A0      #001=Z8EM$SEMANTICS_DATA_DIV File=Z8EM.:Z8A6TSI                    SAT 08/09/97 12:08 Page:655
     2906    29655
     2907    29656    3        DO WHILE (BRO$ -> QLT.BROTHER ~= ADDR(NIL));

  29656 35 015362   015366 710000 35                 TRA     s:29658

     2908    29657    3          BRO$ = BRO$ -> QLT.BROTHER;

  29657 35 015363   000425 470400 0                  LDP0    BRO$
        35 015364   000002 236100                    LDQ     2,,PR0
        35 015365   000425 756000 0                  STQ     BRO$

     2909    29658    3        END; /* While */

  29658 35 015366   000425 470400 0                  LDP0    BRO$
        35 015367   000002 236100                    LDQ     2,,PR0
        35 015370   000024 116000 36                 CMPQ    20
        35 015371   015363 601000 35                 TNZ     s:29657

     2910    29659
     2911    29660    2        LEX_SYMBOL.SIZE = %LINAGE_COUNTER_LENGTH;

  29660 35 015372   000016 235007                    LDA     14,DL
        35 015373   000010 755000 25                 STA     LEX_SYMBOL+8

     2912    29661    2        SUBSTR (LEX_SYMBOL.SYMBOL,

  29661 35 015374   040000 100400                    MLR     fill='040'O
        35 015375   000067 000016 34                 ADSC9   RSW_NO+55                cn=0,n=14
        35 015376   000011 000016 25                 ADSC9   LEX_SYMBOL+9             cn=0,n=14

     2913    29662    2                0,
     2914    29663    2                %LINAGE_COUNTER_LENGTH) = %LINAGE_COUNTER_TEXT;
     2915    29664
     2916    29665    2        CALL Z8AH$SEARCH_;

  29665 35 015377   000011 631400 36                 EPPR1   9
        35 015400   000000 701000 xent               TSX1    Z8AH$SEARCH_
PL6.E3A0      #001=Z8EM$SEMANTICS_DATA_DIV File=Z8EM.:Z8A6TSI                    SAT 08/09/97 12:08 Page:656
        35 015401   000000 011000                    NOP     0

     2917    29666
     2918    29667             %NEW_SCALAR (@ST$        = LINAGE$,
     2919    29668                          @LINE_NO    = LTS$$ -> FILE_LTS.ST$ -> ST.LINE_NO,
     2920    29669                          @DNT$       = DNT$,
     2921    29670                          @NEXT       = DNT$ -> DNT.ST$,
     2922    29671                          @TYPE       = %TYI,
     2923    29672                          @ELEMENTARY = TRUE,
     2924    29673                          @COMPILER_CREATED = TRUE,
     2925    29674                          @CLASS      = %CLASS_NUMERIC);

  29678 35 015402   000002 236000 13                 LDQ     ST_+2
        35 015403   000013 036007                    ADLQ    11,DL
        35 015404   000003 116000 13                 CMPQ    ST_+3
        35 015405   015416 604000 35                 TMI     s:29680

  29679 35 015406   000102 236000 36                 LDQ     66
        35 015407   001012 756000 0                  STQ     PROC$+2
        35 015410   001012 630400 0                  EPPR0   PROC$+2
        35 015411   001013 450400 0                  STP0    PROC$+3
        35 015412   001013 630400 0                  EPPR0   PROC$+3
        35 015413   000036 631400 36                 EPPR1   30
        35 015414   000000 701000 xent               TSX1    Z8AR$RESERVER
        35 015415   000000 011000                    NOP     0

  29680 35 015416   000002 236000 13                 LDQ     ST_+2
        35 015417   000022 736000                    QLS     18
        35 015420   000001 036000 13                 ADLQ    ST_+1
        35 015421   000424 756000 0                  STQ     LINAGE$

  29681 35 015422   000013 236007                    LDQ     11,DL
        35 015423   000002 056000 13                 ASQ     ST_+2

  29729 35 015424   000766 220003                    LDX0    502,DU
        35 015425   000424 470400 0                  LDP0    LINAGE$
        35 015426   000000 740100                    STX0    0,,PR0
PL6.E3A0      #001=Z8EM$SEMANTICS_DATA_DIV File=Z8EM.:Z8A6TSI                    SAT 08/09/97 12:08 Page:657

  29730 35 015427   003000 236007                    LDQ     1536,DL
        35 015430   000000 552110                    STBQ    0,'10'O,PR0

  29731 35 015431   000001 236007                    LDQ     1,DL
        35 015432   000000 552104                    STBQ    0,'04'O,PR0

  29732 35 015433   000000 221003                    LDX1    0,DU
        35 015434   000001 741100                    STX1    1,,PR0

  29733 35 015435   000001 441100                    SXL1    1,,PR0

  29734 35 015436   000423 471400 0                  LDP1    @LTS$$
        35 015437   100000 473500                    LDP3    0,,PR1
        35 015440   300001 474500                    LDP4    1,,PR3
        35 015441   400002 722100                    LXL2    2,,PR4
        35 015442   000002 442100                    SXL2    2,,PR0

  29735 35 015443   000003 450100                    STZ     3,,PR0

  29736 35 015444   000000 473400 14                 LDP3    DNT$
        35 015445   300001 236100                    LDQ     1,,PR3
        35 015446   000004 756100                    STQ     4,,PR0

  29737 35 015447   000024 236000 36                 LDQ     20
        35 015450   000005 756100                    STQ     5,,PR0

  29738 35 015451   000024 236000 36                 LDQ     20
        35 015452   000007 756100                    STQ     7,,PR0

  29739 35 015453   000010 741100                    STX1    8,,PR0

  29740 35 015454   777777 223003                    LDX3    -1,DU
        35 015455   000010 443100                    SXL3    8,,PR0

  29744 35 015456   000024 236000 36                 LDQ     20
        35 015457   000012 756100                    STQ     10,,PR0
PL6.E3A0      #001=Z8EM$SEMANTICS_DATA_DIV File=Z8EM.:Z8A6TSI                    SAT 08/09/97 12:08 Page:658

  29747 35 015460   000057 236000 xsym               LDQ     O1COM+47
        35 015461   000011 756100                    STQ     9,,PR0

  29748 35 015462   000057 236000 xsym               LDQ     O1COM+47
        35 015463   000024 116000 36                 CMPQ    20
        35 015464   015506 600000 35                 TZE     s:29783

  29752 35 015465   000057 474400 xsym               LDP4    O1COM+47
        35 015466   400001 475500                    LDP5    1,,PR4
        35 015467   500012 236100                    LDQ     10,,PR5
        35 015470   000024 116000 36                 CMPQ    20
        35 015471   015500 601000 35                 TNZ     s:29759

  29754 35 015472   000424 236000 0                  LDQ     LINAGE$
        35 015473   500011 756100                    STQ     9,,PR5

  29755 35 015474   000057 474400 xsym               LDP4    O1COM+47
        35 015475   400001 475500                    LDP5    1,,PR4
        35 015476   500012 756100                    STQ     10,,PR5

  29756 35 015477   015506 710000 35                 TRA     s:29783

  29759 35 015500   500012 476500                    LDP6    10,,PR5
        35 015501   000424 236000 0                  LDQ     LINAGE$
        35 015502   600012 756100                    STQ     10,,PR6

  29760 35 015503   000057 474400 xsym               LDP4    O1COM+47
        35 015504   400001 475500                    LDP5    1,,PR4
        35 015505   500012 756100                    STQ     10,,PR5

  29783 35 015506   000001 222003                    LDX2    1,DU
        35 015507   000002 742100                    STX2    2,,PR0

  29788 35 015510   000000 236000 14                 LDQ     DNT$
        35 015511   000006 756100                    STQ     6,,PR0

PL6.E3A0      #001=Z8EM$SEMANTICS_DATA_DIV File=Z8EM.:Z8A6TSI                    SAT 08/09/97 12:08 Page:659
  29805 35 015512   010000 236003                    LDQ     4096,DU
        35 015513   000003 256100                    ORSQ    3,,PR0

  29814 35 015514   100000 236003                    LDQ     32768,DU
        35 015515   000003 256100                    ORSQ    3,,PR0

  29853 35 015516   000003 236100                    LDQ     3,,PR0
        35 015517   000202 376000 36                 ANQ     130
        35 015520   000001 276007                    ORQ     1,DL
        35 015521   000003 756100                    STQ     3,,PR0

     2926    29874
     2927    29875    2        LINAGE$ -> ST.NDSC.N = %TYI_LENGTH;

  29875 35 015522   000004 236007                    LDQ     4,DL
        35 015523   000001 752101                    STCQ    1,'01'O,PR0

     2928    29876
     2929    29877    2        DNT$ -> DNT.ST$ = LINAGE$;

  29877 35 015524   000424 236000 0                  LDQ     LINAGE$
        35 015525   300001 756100                    STQ     1,,PR3

     2930    29878    2        LTS$$ -> FILE_LTS.LINAGE_COUNTER$ = LINAGE$;

  29878 35 015526   100000 474500                    LDP4    0,,PR1
        35 015527   400054 756100                    STQ     44,,PR4

     2931    29879
     2932    29880             %NEW_QLT (@POINTER = LINAGE$ -> SCALAR.QLT$,
     2933    29881                       @LEVEL#  = 1,
     2934    29882                       @FATHER  = BRO$ -> QLT.FATHER,
     2935    29883                       @ST$     = LINAGE$,
     2936    29884                       @DNT$    = DNT$);

  29889 35 015530   000002 236000 11                 LDQ     QLT_+2
        35 015531   000006 036007                    ADLQ    6,DL
PL6.E3A0      #001=Z8EM$SEMANTICS_DATA_DIV File=Z8EM.:Z8A6TSI                    SAT 08/09/97 12:08 Page:660
        35 015532   000003 116000 11                 CMPQ    QLT_+3
        35 015533   015544 602000 35                 TNC     s:29891

  29890 35 015534   000103 236000 36                 LDQ     67
        35 015535   001012 756000 0                  STQ     PROC$+2
        35 015536   001012 634400 0                  EPPR4   PROC$+2
        35 015537   001013 454400 0                  STP4    PROC$+3
        35 015540   001013 630400 0                  EPPR0   PROC$+3
        35 015541   000036 631400 36                 EPPR1   30
        35 015542   000000 701000 xent               TSX1    Z8AR$RESERVER
        35 015543   000000 011000                    NOP     0

  29891 35 015544   000002 236000 11                 LDQ     QLT_+2
        35 015545   000022 736000                    QLS     18
        35 015546   000001 036000 11                 ADLQ    QLT_+1
        35 015547   000424 470400 0                  LDP0    LINAGE$
        35 015550   000007 756100                    STQ     7,,PR0

  29892 35 015551   000002 235000 11                 LDA     QLT_+2
        35 015552   000006 035007                    ADLA    6,DL
        35 015553   000002 755000 11                 STA     QLT_+2

  29893 35 015554   000007 471500                    LDP1    7,,PR0
        35 015555   001053 220003                    LDX0    555,DU
        35 015556   100000 740100                    STX0    0,,PR1

  29896 35 015557   000007 471500                    LDP1    7,,PR0
        35 015560   000425 473400 0                  LDP3    BRO$
        35 015561   300001 236100                    LDQ     1,,PR3
        35 015562   100001 756100                    STQ     1,,PR1

  29897 35 015563   000007 471500                    LDP1    7,,PR0
        35 015564   000024 236000 36                 LDQ     20
        35 015565   100002 756100                    STQ     2,,PR1

  29898 35 015566   000007 471500                    LDP1    7,,PR0
        35 015567   000024 236000 36                 LDQ     20
PL6.E3A0      #001=Z8EM$SEMANTICS_DATA_DIV File=Z8EM.:Z8A6TSI                    SAT 08/09/97 12:08 Page:661
        35 015570   100003 756100                    STQ     3,,PR1

  29899 35 015571   000007 471500                    LDP1    7,,PR0
        35 015572   000424 236000 0                  LDQ     LINAGE$
        35 015573   100004 756100                    STQ     4,,PR1

  29900 35 015574   000007 471500                    LDP1    7,,PR0
        35 015575   000000 236000 14                 LDQ     DNT$
        35 015576   100005 756100                    STQ     5,,PR1

  29901 35 015577   000007 471500                    LDP1    7,,PR0
        35 015600   000001 236007                    LDQ     1,DL
        35 015601   100000 552104                    STBQ    0,'04'O,PR1

  29902 35 015602   000007 471500                    LDP1    7,,PR0
        35 015603   000000 236003                    LDQ     0,DU
        35 015604   100000 552110                    STBQ    0,'10'O,PR1

  29903 35 015605   000007 471500                    LDP1    7,,PR0
        35 015606   000104 236000 36                 LDQ     68
        35 015607   100000 356100                    ANSQ    0,,PR1

  29904 35 015610   000007 471500                    LDP1    7,,PR0
        35 015611   000105 236000 36                 LDQ     69
        35 015612   100000 356100                    ANSQ    0,,PR1

  29905 35 015613   000007 471500                    LDP1    7,,PR0
        35 015614   000106 236000 36                 LDQ     70
        35 015615   100000 356100                    ANSQ    0,,PR1

  29906 35 015616   000007 471500                    LDP1    7,,PR0
        35 015617   000107 236000 36                 LDQ     71
        35 015620   100000 356100                    ANSQ    0,,PR1

     2937    29909
     2938    29910    2        BRO$ -> QLT.BROTHER = LINAGE$ -> SCALAR.QLT$;

PL6.E3A0      #001=Z8EM$SEMANTICS_DATA_DIV File=Z8EM.:Z8A6TSI                    SAT 08/09/97 12:08 Page:662
  29910 35 015621   000007 236100                    LDQ     7,,PR0
        35 015622   300002 756100                    STQ     2,,PR3

     2939    29911
     2940    29912    2   END NEW_LINAGE_COUNTER;

  29912 35 015623   000422 221200 0                  LDX1  ! LINE$+1
        35 015624   000001 702211                    TSX2  ! 1,X1

     2941    29913        %EJECT;
PL6.E3A0      #001=Z8EM$SEMANTICS_DATA_DIV File=Z8EM.:Z8A6TSI                    SAT 08/09/97 12:08 Page:663
     2942    29914
     2943    29915         /*================*/
     2944    29916    1      NEW_PAGE_COUNTER:  PROC (ST$$, REPORT$);

  29916 35 015625   000426 741200 0     NEW_PAGE_CO* STX1  ! BRO$+1

     2945    29917         /*================*/
     2946    29918
     2947    29919           %EQU PAGE_COUNTER_TEXT = 'PAGE-COUNTER';
     2948    29920           %EQU PAGE_COUNTER_LENGTH = 12;
     2949    29921
     2950    29922
     2951    29923    2     DCL ST$$         PTR;  /* Pointer to <report name> st item */
     2952    29924    2     DCL REPORT$      PTR;
     2953    29925    2     DCL PAGE$        PTR;
     2954    29926
     2955    29927
     2956    29928
     2957    29929    2       LEX_SYMBOL.SIZE = %PAGE_COUNTER_LENGTH;

  29929 35 015626   000014 235007                    LDA     12,DL
        35 015627   000010 755000 25                 STA     LEX_SYMBOL+8

     2958    29930    2       SUBSTR (LEX_SYMBOL.SYMBOL,

  29930 35 015630   040000 100400                    MLR     fill='040'O
        35 015631   000073 000014 34                 ADSC9   RSW_NO+59                cn=0,n=12
        35 015632   000011 000014 25                 ADSC9   LEX_SYMBOL+9             cn=0,n=12

     2959    29931    2               0,
     2960    29932    2               %PAGE_COUNTER_LENGTH) = %PAGE_COUNTER_TEXT;
     2961    29933
     2962    29934    2       CALL Z8AH$SEARCH_;

  29934 35 015633   000011 631400 36                 EPPR1   9
        35 015634   000000 701000 xent               TSX1    Z8AH$SEARCH_
        35 015635   000000 011000                    NOP     0
PL6.E3A0      #001=Z8EM$SEMANTICS_DATA_DIV File=Z8EM.:Z8A6TSI                    SAT 08/09/97 12:08 Page:664

     2963    29935
     2964    29936    2       DNT$ -> DNT.B.REP_COUNTER = TRUE;

  29936 35 015636   000000 470400 14                 LDP0    DNT$
        35 015637   000020 236003                    LDQ     16,DU
        35 015640   000003 256100                    ORSQ    3,,PR0

     2965    29937
     2966    29938            %NEW_SCALAR ( @ST$        = PAGE$,
     2967    29939                          @LINE_NO    = REPORT$ -> LX_ITEM.LINE,
     2968    29940                          @DNT$       = DNT$,
     2969    29941                          @NEXT       = DNT$ -> DNT.ST$,
     2970    29942                          @TYPE       = %TYI,
     2971    29943                          @ELEMENTARY = TRUE,
     2972    29944                          @REPORT_ITEM = TRUE,
     2973    29945                          @COMPILER_CREATED = TRUE,
     2974    29946                          @CLASS      = %CLASS_NUMERIC);

  29950 35 015641   000002 236000 13                 LDQ     ST_+2
        35 015642   000013 036007                    ADLQ    11,DL
        35 015643   000003 116000 13                 CMPQ    ST_+3
        35 015644   015655 604000 35                 TMI     s:29952

  29951 35 015645   000102 236000 36                 LDQ     66
        35 015646   001012 756000 0                  STQ     PROC$+2
        35 015647   001012 631400 0                  EPPR1   PROC$+2
        35 015650   001013 451400 0                  STP1    PROC$+3
        35 015651   001013 630400 0                  EPPR0   PROC$+3
        35 015652   000036 631400 36                 EPPR1   30
        35 015653   000000 701000 xent               TSX1    Z8AR$RESERVER
        35 015654   000000 011000                    NOP     0

  29952 35 015655   000002 236000 13                 LDQ     ST_+2
        35 015656   000022 736000                    QLS     18
        35 015657   000001 036000 13                 ADLQ    ST_+1
        35 015660   000431 756000 0                  STQ     PAGE$
PL6.E3A0      #001=Z8EM$SEMANTICS_DATA_DIV File=Z8EM.:Z8A6TSI                    SAT 08/09/97 12:08 Page:665

  29953 35 015661   000013 236007                    LDQ     11,DL
        35 015662   000002 056000 13                 ASQ     ST_+2

  30001 35 015663   000766 220003                    LDX0    502,DU
        35 015664   000431 470400 0                  LDP0    PAGE$
        35 015665   000000 740100                    STX0    0,,PR0

  30002 35 015666   003000 236007                    LDQ     1536,DL
        35 015667   000000 552110                    STBQ    0,'10'O,PR0

  30003 35 015670   000001 236007                    LDQ     1,DL
        35 015671   000000 552104                    STBQ    0,'04'O,PR0

  30004 35 015672   000000 221003                    LDX1    0,DU
        35 015673   000001 741100                    STX1    1,,PR0

  30005 35 015674   000001 441100                    SXL1    1,,PR0

  30006 35 015675   000430 471400 0                  LDP1    @REPORT$
        35 015676   100000 473500                    LDP3    0,,PR1
        35 015677   300005 722100                    LXL2    5,,PR3
        35 015700   000002 442100                    SXL2    2,,PR0

  30007 35 015701   000003 450100                    STZ     3,,PR0

  30008 35 015702   000000 473400 14                 LDP3    DNT$
        35 015703   300001 236100                    LDQ     1,,PR3
        35 015704   000004 756100                    STQ     4,,PR0

  30009 35 015705   000024 236000 36                 LDQ     20
        35 015706   000005 756100                    STQ     5,,PR0

  30010 35 015707   000024 236000 36                 LDQ     20
        35 015710   000007 756100                    STQ     7,,PR0

  30011 35 015711   000010 741100                    STX1    8,,PR0
PL6.E3A0      #001=Z8EM$SEMANTICS_DATA_DIV File=Z8EM.:Z8A6TSI                    SAT 08/09/97 12:08 Page:666

  30012 35 015712   777777 223003                    LDX3    -1,DU
        35 015713   000010 443100                    SXL3    8,,PR0

  30016 35 015714   000024 236000 36                 LDQ     20
        35 015715   000012 756100                    STQ     10,,PR0

  30019 35 015716   000057 236000 xsym               LDQ     O1COM+47
        35 015717   000011 756100                    STQ     9,,PR0

  30020 35 015720   000057 236000 xsym               LDQ     O1COM+47
        35 015721   000024 116000 36                 CMPQ    20
        35 015722   015744 600000 35                 TZE     s:30055

  30024 35 015723   000057 474400 xsym               LDP4    O1COM+47
        35 015724   400001 475500                    LDP5    1,,PR4
        35 015725   500012 236100                    LDQ     10,,PR5
        35 015726   000024 116000 36                 CMPQ    20
        35 015727   015736 601000 35                 TNZ     s:30031

  30026 35 015730   000431 236000 0                  LDQ     PAGE$
        35 015731   500011 756100                    STQ     9,,PR5

  30027 35 015732   000057 474400 xsym               LDP4    O1COM+47
        35 015733   400001 475500                    LDP5    1,,PR4
        35 015734   500012 756100                    STQ     10,,PR5

  30028 35 015735   015744 710000 35                 TRA     s:30055

  30031 35 015736   500012 476500                    LDP6    10,,PR5
        35 015737   000431 236000 0                  LDQ     PAGE$
        35 015740   600012 756100                    STQ     10,,PR6

  30032 35 015741   000057 474400 xsym               LDP4    O1COM+47
        35 015742   400001 475500                    LDP5    1,,PR4
        35 015743   500012 756100                    STQ     10,,PR5

PL6.E3A0      #001=Z8EM$SEMANTICS_DATA_DIV File=Z8EM.:Z8A6TSI                    SAT 08/09/97 12:08 Page:667
  30055 35 015744   000001 222003                    LDX2    1,DU
        35 015745   000002 742100                    STX2    2,,PR0

  30060 35 015746   000000 236000 14                 LDQ     DNT$
        35 015747   000006 756100                    STQ     6,,PR0

  30077 35 015750   010000 236003                    LDQ     4096,DU
        35 015751   000003 256100                    ORSQ    3,,PR0

  30086 35 015752   100000 236003                    LDQ     32768,DU
        35 015753   000003 256100                    ORSQ    3,,PR0

  30119 35 015754   010000 236007                    LDQ     4096,DL
        35 015755   000003 256100                    ORSQ    3,,PR0

  30125 35 015756   000003 236100                    LDQ     3,,PR0
        35 015757   000202 376000 36                 ANQ     130
        35 015760   000001 276007                    ORQ     1,DL
        35 015761   000003 756100                    STQ     3,,PR0

     2975    30146
     2976    30147    2       PAGE$ -> ST.NDSC.N = %TYI_LENGTH;

  30147 35 015762   000004 236007                    LDQ     4,DL
        35 015763   000001 752101                    STCQ    1,'01'O,PR0

     2977    30148    2       DNT$ -> DNT.ST$ = PAGE$;

  30148 35 015764   000431 236000 0                  LDQ     PAGE$
        35 015765   300001 756100                    STQ     1,,PR3

     2978    30149    2       ST$$ -> RD.LTS$ -> REPORT_LTS.PAGE_COUNTER$ = PAGE$;

  30149 35 015766   000427 474400 0                  LDP4    @ST$$
        35 015767   400000 475500                    LDP5    0,,PR4
        35 015770   500005 476500                    LDP6    5,,PR5
        35 015771   600017 756100                    STQ     15,,PR6
PL6.E3A0      #001=Z8EM$SEMANTICS_DATA_DIV File=Z8EM.:Z8A6TSI                    SAT 08/09/97 12:08 Page:668

     2979    30150
     2980    30151            %NEW_QLT (@POINTER    = PAGE$ -> SCALAR.QLT$,
     2981    30152                      @LEVEL#     = 1,
     2982    30153                      @FATHER     = ST$$ -> RD.QLT$,
     2983    30154                      @ST$        = PAGE$,
     2984    30155                      @DNT$       = DNT$);

  30160 35 015772   000002 236000 11                 LDQ     QLT_+2
        35 015773   000006 036007                    ADLQ    6,DL
        35 015774   000003 116000 11                 CMPQ    QLT_+3
        35 015775   016006 602000 35                 TNC     s:30162

  30161 35 015776   000103 236000 36                 LDQ     67
        35 015777   001012 756000 0                  STQ     PROC$+2
        35 016000   001012 635400 0                  EPPR5   PROC$+2
        35 016001   001013 455400 0                  STP5    PROC$+3
        35 016002   001013 630400 0                  EPPR0   PROC$+3
        35 016003   000036 631400 36                 EPPR1   30
        35 016004   000000 701000 xent               TSX1    Z8AR$RESERVER
        35 016005   000000 011000                    NOP     0

  30162 35 016006   000002 236000 11                 LDQ     QLT_+2
        35 016007   000022 736000                    QLS     18
        35 016010   000001 036000 11                 ADLQ    QLT_+1
        35 016011   000431 470400 0                  LDP0    PAGE$
        35 016012   000007 756100                    STQ     7,,PR0

  30163 35 016013   000002 235000 11                 LDA     QLT_+2
        35 016014   000006 035007                    ADLA    6,DL
        35 016015   000002 755000 11                 STA     QLT_+2

  30164 35 016016   000007 471500                    LDP1    7,,PR0
        35 016017   001053 220003                    LDX0    555,DU
        35 016020   100000 740100                    STX0    0,,PR1

  30167 35 016021   000007 471500                    LDP1    7,,PR0
PL6.E3A0      #001=Z8EM$SEMANTICS_DATA_DIV File=Z8EM.:Z8A6TSI                    SAT 08/09/97 12:08 Page:669
        35 016022   000427 473400 0                  LDP3    @ST$$
        35 016023   300000 474500                    LDP4    0,,PR3
        35 016024   400007 236100                    LDQ     7,,PR4
        35 016025   100001 756100                    STQ     1,,PR1

  30168 35 016026   000007 471500                    LDP1    7,,PR0
        35 016027   000024 236000 36                 LDQ     20
        35 016030   100002 756100                    STQ     2,,PR1

  30169 35 016031   000007 471500                    LDP1    7,,PR0
        35 016032   000024 236000 36                 LDQ     20
        35 016033   100003 756100                    STQ     3,,PR1

  30170 35 016034   000007 471500                    LDP1    7,,PR0
        35 016035   000431 236000 0                  LDQ     PAGE$
        35 016036   100004 756100                    STQ     4,,PR1

  30171 35 016037   000007 471500                    LDP1    7,,PR0
        35 016040   000000 236000 14                 LDQ     DNT$
        35 016041   100005 756100                    STQ     5,,PR1

  30172 35 016042   000007 471500                    LDP1    7,,PR0
        35 016043   000001 236007                    LDQ     1,DL
        35 016044   100000 552104                    STBQ    0,'04'O,PR1

  30173 35 016045   000007 471500                    LDP1    7,,PR0
        35 016046   000000 236003                    LDQ     0,DU
        35 016047   100000 552110                    STBQ    0,'10'O,PR1

  30174 35 016050   000007 471500                    LDP1    7,,PR0
        35 016051   000104 236000 36                 LDQ     68
        35 016052   100000 356100                    ANSQ    0,,PR1

  30175 35 016053   000007 471500                    LDP1    7,,PR0
        35 016054   000105 236000 36                 LDQ     69
        35 016055   100000 356100                    ANSQ    0,,PR1

PL6.E3A0      #001=Z8EM$SEMANTICS_DATA_DIV File=Z8EM.:Z8A6TSI                    SAT 08/09/97 12:08 Page:670
  30176 35 016056   000007 471500                    LDP1    7,,PR0
        35 016057   000106 236000 36                 LDQ     70
        35 016060   100000 356100                    ANSQ    0,,PR1

  30177 35 016061   000007 471500                    LDP1    7,,PR0
        35 016062   000107 236000 36                 LDQ     71
        35 016063   100000 356100                    ANSQ    0,,PR1

     2985    30180
     2986    30181    2       ST$$ -> RD.QLT$ -> QLT.SON = PAGE$ -> SCALAR.QLT$;

  30181 35 016064   300000 471500                    LDP1    0,,PR3
        35 016065   100007 474500                    LDP4    7,,PR1
        35 016066   000007 236100                    LDQ     7,,PR0
        35 016067   400003 756100                    STQ     3,,PR4

     2987    30182
     2988    30183    2     END NEW_PAGE_COUNTER;

  30183 35 016070   000426 221200 0                  LDX1  ! BRO$+1
        35 016071   000001 702211                    TSX2  ! 1,X1

     2989    30184          %EJECT;
PL6.E3A0      #001=Z8EM$SEMANTICS_DATA_DIV File=Z8EM.:Z8A6TSI                    SAT 08/09/97 12:08 Page:671
     2990    30185        /*========*/
     2991    30186    1     NEW_PROC: PROC (NAME$, COM_INIT$);

  30186 35 016072   000432 741200 0     NEW_PROC     STX1  ! PAGE$+1

     2992    30187        /*========*/
     2993    30188
     2994    30189
     2995    30190    2        DCL NAME$         PTR;
     2996    30191    2        DCL COM_INIT$     PTR;
     2997    30192    2        DCL SON$          PTR;
     2998    30193    2        DCL BRO$          PTR;
     2999    30194    2        DCL PROC$         PTR;
     3000    30195    2        DCL ARRAY$        PTR;
     3001    30196
     3002    30197
     3003    30198
     3004    30199    2        IF O1COM.CURRENT_PROC$ = ADDR(NIL) THEN

  30199 35 016073   000057 236000 xsym               LDQ     O1COM+47
        35 016074   000024 116000 36                 CMPQ    20
        35 016075   016551 601000 35                 TNZ     s:30513

     3005    30200    3          DO;

     3006    30201                 /* MAIN PROCEDURE */
     3007    30202                                                      /*#30017*/
     3008    30203    3            O1COM.PROG_ID_DNT$ = NAME$ -> LX_TERMINAL.DNT$;

  30203 35 016076   000433 470400 0                  LDP0    @NAME$
        35 016077   000000 471500                    LDP1    0,,PR0
        35 016100   100002 236100                    LDQ     2,,PR1
        35 016101   000110 756000 xsym               STQ     O1COM+72

     3009    30204    3            IF COMCOM.FIRST_PROC$ = ADDR(NIL)   THEN

  30204 35 016102   000136 236000 xsym               LDQ     COMCOM+94
PL6.E3A0      #001=Z8EM$SEMANTICS_DATA_DIV File=Z8EM.:Z8A6TSI                    SAT 08/09/97 12:08 Page:672
        35 016103   000024 116000 36                 CMPQ    20
        35 016104   016125 601000 35                 TNZ     s:30221

     3010    30205    4              DO;

     3011    30206    4                CALL Z8EI$INIT_PROGRAM;

  30206 35 016105   000011 631400 36                 EPPR1   9
        35 016106   000000 701000 xent               TSX1    Z8EI$INIT_PROGRAM
        35 016107   000000 011000                    NOP     0

     3012    30207    4                IF NAME$ -> LX_ITEM.B.ERROR   THEN

  30207 35 016110   000433 470400 0                  LDP0    @NAME$
        35 016111   000000 471500                    LDP1    0,,PR0
        35 016112   100000 236100                    LDQ     0,,PR1
        35 016113   400000 316007                    CANQ    -131072,DL
        35 016114   016125 600000 35                 TZE     s:30221

     3013    30208    5                  DO;

     3014    30209    5                    O1COM.PROG_ID_DNT$ -> DNT.TEXT.LENGTH = 13;

  30209 35 016115   000015 220003                    LDX0    13,DU
        35 016116   000110 473400 xsym               LDP3    O1COM+72
        35 016117   300004 740100                    STX0    4,,PR3

     3015    30210    5                    O1COM.PROG_ID_DNT$ -> DNT.TEXT.NAME = 'NO-PROGRAM-ID';

  30210 35 016120   000110 471400 xsym               LDP1    O1COM+72
        35 016121   100004 221100                    LDX1    4,,PR1
        35 016122   040140 100400                    MLR     fill='040'O
        35 016123   000076 000015 34                 ADSC9   RSW_NO+62                cn=0,n=13
        35 016124   100004 400011                    ADSC9   4,,PR1                   cn=2,n=*X1

     3016    30211    5                  END;

PL6.E3A0      #001=Z8EM$SEMANTICS_DATA_DIV File=Z8EM.:Z8A6TSI                    SAT 08/09/97 12:08 Page:673
     3017    30212
     3018    30213    4              END;

     3019    30214                                                      /*#30017*/
     3020    30215
     3021    30216                 %NEW_SYMDEF_ (@DNT$ = O1COM.PROG_ID_DNT$,
     3022    30217                               @ST$  = P$);

  30221 35 016125   000002 236000 13                 LDQ     ST_+2
        35 016126   000013 036007                    ADLQ    11,DL
        35 016127   000003 116000 13                 CMPQ    ST_+3
        35 016130   016141 604000 35                 TMI     s:30223

  30222 35 016131   000102 236000 36                 LDQ     66
        35 016132   001012 756000 0                  STQ     PROC$+2
        35 016133   001012 631400 0                  EPPR1   PROC$+2
        35 016134   001013 451400 0                  STP1    PROC$+3
        35 016135   001013 630400 0                  EPPR0   PROC$+3
        35 016136   000036 631400 36                 EPPR1   30
        35 016137   000000 701000 xent               TSX1    Z8AR$RESERVER
        35 016140   000000 011000                    NOP     0

  30223 35 016141   000002 236000 13                 LDQ     ST_+2
        35 016142   000022 736000                    QLS     18
        35 016143   000001 036000 13                 ADLQ    ST_+1
        35 016144   000021 756000 0                  STQ     P$

  30224 35 016145   000013 236007                    LDQ     11,DL
        35 016146   000002 056000 13                 ASQ     ST_+2

  30227 35 016147   000773 220003                    LDX0    507,DU
        35 016150   000021 470400 0                  LDP0    P$
        35 016151   000000 740100                    STX0    0,,PR0

  30228 35 016152   000021 470400 0                  LDP0    P$
        35 016153   001000 236007                    LDQ     512,DL
        35 016154   000000 552110                    STBQ    0,'10'O,PR0
PL6.E3A0      #001=Z8EM$SEMANTICS_DATA_DIV File=Z8EM.:Z8A6TSI                    SAT 08/09/97 12:08 Page:674

  30229 35 016155   000021 470400 0                  LDP0    P$
        35 016156   000000 236003                    LDQ     0,DU
        35 016157   000000 552104                    STBQ    0,'04'O,PR0

  30230 35 016160   000020 221003                    LDX1    16,DU
        35 016161   000021 470400 0                  LDP0    P$
        35 016162   000002 741100                    STX1    2,,PR0

  30231 35 016163   000133 722000 xsym               LXL2    COMCOM+91
        35 016164   000021 470400 0                  LDP0    P$
        35 016165   000002 442100                    SXL2    2,,PR0

  30232 35 016166   000021 470400 0                  LDP0    P$
        35 016167   000003 450100                    STZ     3,,PR0

  30233 35 016170   000024 236000 36                 LDQ     20
        35 016171   000021 470400 0                  LDP0    P$
        35 016172   000005 756100                    STQ     5,,PR0

  30234 35 016173   000024 236000 36                 LDQ     20
        35 016174   000021 470400 0                  LDP0    P$
        35 016175   000007 756100                    STQ     7,,PR0

  30235 35 016176   000110 236000 xsym               LDQ     O1COM+72
        35 016177   000021 470400 0                  LDP0    P$
        35 016200   000006 756100                    STQ     6,,PR0

  30237 35 016201   000316 236000 xsym               LDQ     COMCOM+206
        35 016202   000021 470400 0                  LDP0    P$
        35 016203   000004 756100                    STQ     4,,PR0

  30238 35 016204   000021 236000 0                  LDQ     P$
        35 016205   000316 756000 xsym               STQ     COMCOM+206

  30239 35 016206   000315 054000 xsym               AOS     COMCOM+205

PL6.E3A0      #001=Z8EM$SEMANTICS_DATA_DIV File=Z8EM.:Z8A6TSI                    SAT 08/09/97 12:08 Page:675
  30246 35 016207   000024 236000 36                 LDQ     20
        35 016210   000021 470400 0                  LDP0    P$
        35 016211   000012 756100                    STQ     10,,PR0

  30249 35 016212   000057 236000 xsym               LDQ     O1COM+47
        35 016213   000021 470400 0                  LDP0    P$
        35 016214   000011 756100                    STQ     9,,PR0

  30250 35 016215   000057 236000 xsym               LDQ     O1COM+47
        35 016216   000024 116000 36                 CMPQ    20
        35 016217   016243 600000 35                 TZE     s:30298

  30254 35 016220   000057 470400 xsym               LDP0    O1COM+47
        35 016221   000001 471500                    LDP1    1,,PR0
        35 016222   100012 236100                    LDQ     10,,PR1
        35 016223   000024 116000 36                 CMPQ    20
        35 016224   016234 601000 35                 TNZ     s:30261

  30256 35 016225   000021 236000 0                  LDQ     P$
        35 016226   100011 756100                    STQ     9,,PR1

  30257 35 016227   000057 470400 xsym               LDP0    O1COM+47
        35 016230   000001 471500                    LDP1    1,,PR0
        35 016231   000021 236000 0                  LDQ     P$
        35 016232   100012 756100                    STQ     10,,PR1

  30258 35 016233   016243 710000 35                 TRA     s:30298

  30261 35 016234   100012 473500                    LDP3    10,,PR1
        35 016235   000021 236000 0                  LDQ     P$
        35 016236   300012 756100                    STQ     10,,PR3

  30262 35 016237   000057 470400 xsym               LDP0    O1COM+47
        35 016240   000001 471500                    LDP1    1,,PR0
        35 016241   000021 236000 0                  LDQ     P$
        35 016242   100012 756100                    STQ     10,,PR1

PL6.E3A0      #001=Z8EM$SEMANTICS_DATA_DIV File=Z8EM.:Z8A6TSI                    SAT 08/09/97 12:08 Page:676
     3023    30289
     3024    30290
     3025    30291                 %NEW_PROC_ (@ST$      = PROC$,
     3026    30292                             @LEVEL     = 1,
     3027    30293                             @LINE_START = NAME$ -> LX_TERMINAL.LINE,
     3028    30294                             @PROC_DEF$ = P$);

  30298 35 016243   000002 236000 13                 LDQ     ST_+2
        35 016244   000013 036007                    ADLQ    11,DL
        35 016245   000003 116000 13                 CMPQ    ST_+3
        35 016246   016257 604000 35                 TMI     s:30300

  30299 35 016247   000102 236000 36                 LDQ     66
        35 016250   001012 756000 0                  STQ     PROC$+2
        35 016251   001012 630400 0                  EPPR0   PROC$+2
        35 016252   001013 450400 0                  STP0    PROC$+3
        35 016253   001013 630400 0                  EPPR0   PROC$+3
        35 016254   000036 631400 36                 EPPR1   30
        35 016255   000000 701000 xent               TSX1    Z8AR$RESERVER
        35 016256   000000 011000                    NOP     0

  30300 35 016257   000002 236000 13                 LDQ     ST_+2
        35 016260   000022 736000                    QLS     18
        35 016261   000001 036000 13                 ADLQ    ST_+1
        35 016262   000437 756000 0                  STQ     PROC$

  30301 35 016263   000013 236007                    LDQ     11,DL
        35 016264   000002 056000 13                 ASQ     ST_+2

  30304 35 016265   000756 220003                    LDX0    494,DU
        35 016266   000437 470400 0                  LDP0    PROC$
        35 016267   000000 740100                    STX0    0,,PR0

  30305 35 016270   000001 221003                    LDX1    1,DU
        35 016271   000437 470400 0                  LDP0    PROC$
        35 016272   000000 441100                    SXL1    0,,PR0

PL6.E3A0      #001=Z8EM$SEMANTICS_DATA_DIV File=Z8EM.:Z8A6TSI                    SAT 08/09/97 12:08 Page:677
  30306 35 016273   000433 470400 0                  LDP0    @NAME$
        35 016274   000000 471500                    LDP1    0,,PR0
        35 016275   100005 722100                    LXL2    5,,PR1
        35 016276   000437 473400 0                  LDP3    PROC$
        35 016277   300002 742100                    STX2    2,,PR3

  30307 35 016300   000133 722000 xsym               LXL2    COMCOM+91
        35 016301   000437 471400 0                  LDP1    PROC$
        35 016302   100002 442100                    SXL2    2,,PR1

  30308 35 016303   000437 471400 0                  LDP1    PROC$
        35 016304   100003 450100                    STZ     3,,PR1

  30309 35 016305   000024 236000 36                 LDQ     20
        35 016306   000437 471400 0                  LDP1    PROC$
        35 016307   100001 756100                    STQ     1,,PR1

  30310 35 016310   000024 236000 36                 LDQ     20
        35 016311   000437 471400 0                  LDP1    PROC$
        35 016312   100004 756100                    STQ     4,,PR1

  30311 35 016313   000024 236000 36                 LDQ     20
        35 016314   000437 471400 0                  LDP1    PROC$
        35 016315   100005 756100                    STQ     5,,PR1

  30312 35 016316   000021 236000 0                  LDQ     P$
        35 016317   000437 471400 0                  LDP1    PROC$
        35 016320   100006 756100                    STQ     6,,PR1

  30313 35 016321   000024 236000 36                 LDQ     20
        35 016322   000437 471400 0                  LDP1    PROC$
        35 016323   100011 756100                    STQ     9,,PR1

  30314 35 016324   000024 236000 36                 LDQ     20
        35 016325   000437 471400 0                  LDP1    PROC$
        35 016326   100010 756100                    STQ     8,,PR1

PL6.E3A0      #001=Z8EM$SEMANTICS_DATA_DIV File=Z8EM.:Z8A6TSI                    SAT 08/09/97 12:08 Page:678
  30315 35 016327   000024 236000 36                 LDQ     20
        35 016330   000437 471400 0                  LDP1    PROC$
        35 016331   100007 756100                    STQ     7,,PR1

     3029    30351
     3030    30352    3            P$ -> SYMDEF_.PROC$ = PROC$;

  30352 35 016332   000437 236000 0                  LDQ     PROC$
        35 016333   000021 471400 0                  LDP1    P$
        35 016334   100011 756100                    STQ     9,,PR1

     3031    30353
     3032    30354                 %NEW_PROC_SUPP (@POINTER = PROC$ -> PROC_.PROC_SUPP$);

  30432 35 016335   000002 236000 8                  LDQ     LTS_+2
        35 016336   000031 036007                    ADLQ    25,DL
        35 016337   000003 116000 8                  CMPQ    LTS_+3
        35 016340   016351 604000 35                 TMI     s:30434

  30433 35 016341   000211 236000 36                 LDQ     137
        35 016342   001012 756000 0                  STQ     PROC$+2
        35 016343   001012 631400 0                  EPPR1   PROC$+2
        35 016344   001013 451400 0                  STP1    PROC$+3
        35 016345   001013 630400 0                  EPPR0   PROC$+3
        35 016346   000036 631400 36                 EPPR1   30
        35 016347   000000 701000 xent               TSX1    Z8AR$RESERVER
        35 016350   000000 011000                    NOP     0

  30434 35 016351   000002 236000 8                  LDQ     LTS_+2
        35 016352   000022 736000                    QLS     18
        35 016353   000001 036000 8                  ADLQ    LTS_+1
        35 016354   000437 470400 0                  LDP0    PROC$
        35 016355   000001 756100                    STQ     1,,PR0

  30435 35 016356   000031 236007                    LDQ     25,DL
        35 016357   000002 056000 8                  ASQ     LTS_+2

PL6.E3A0      #001=Z8EM$SEMANTICS_DATA_DIV File=Z8EM.:Z8A6TSI                    SAT 08/09/97 12:08 Page:679
  30436 35 016360   000437 470400 0                  LDP0    PROC$
        35 016361   000001 471500                    LDP1    1,,PR0
        35 016362   001124 220003                    LDX0    596,DU
        35 016363   100000 740100                    STX0    0,,PR1

  30442 35 016364   000437 470400 0                  LDP0    PROC$
        35 016365   000001 471500                    LDP1    1,,PR0
        35 016366   044000 236003                    LDQ     18432,DU
        35 016367   100001 552140                    STBQ    1,'40'O,PR1

  30443 35 016370   000437 470400 0                  LDP0    PROC$
        35 016371   000001 471500                    LDP1    1,,PR0
        35 016372   000024 236000 36                 LDQ     20
        35 016373   100002 756100                    STQ     2,,PR1

  30444 35 016374   000437 470400 0                  LDP0    PROC$
        35 016375   000001 471500                    LDP1    1,,PR0
        35 016376   000024 236000 36                 LDQ     20
        35 016377   100003 756100                    STQ     3,,PR1

  30445 35 016400   000437 470400 0                  LDP0    PROC$
        35 016401   000001 471500                    LDP1    1,,PR0
        35 016402   000024 236000 36                 LDQ     20
        35 016403   100011 756100                    STQ     9,,PR1

  30446 35 016404   000437 470400 0                  LDP0    PROC$
        35 016405   000001 471500                    LDP1    1,,PR0
        35 016406   000024 236000 36                 LDQ     20
        35 016407   100012 756100                    STQ     10,,PR1

  30447 35 016410   000437 470400 0                  LDP0    PROC$
        35 016411   000001 471500                    LDP1    1,,PR0
        35 016412   000062 235007                    LDA     50,DL
        35 016413   100016 755100                    STA     14,,PR1

  30448 35 016414   000437 470400 0                  LDP0    PROC$
        35 016415   000001 471500                    LDP1    1,,PR0
PL6.E3A0      #001=Z8EM$SEMANTICS_DATA_DIV File=Z8EM.:Z8A6TSI                    SAT 08/09/97 12:08 Page:680
        35 016416   000024 236000 36                 LDQ     20
        35 016417   100010 756100                    STQ     8,,PR1

  30449 35 016420   000437 470400 0                  LDP0    PROC$
        35 016421   000001 471500                    LDP1    1,,PR0
        35 016422   000000 236003                    LDQ     0,DU
        35 016423   100001 552120                    STBQ    1,'20'O,PR1

  30450 35 016424   000437 470400 0                  LDP0    PROC$
        35 016425   000001 471500                    LDP1    1,,PR0
        35 016426   177000 236007                    LDQ     65024,DL
        35 016427   100001 552110                    STBQ    1,'10'O,PR1

  30451 35 016430   000437 470400 0                  LDP0    PROC$
        35 016431   000001 471500                    LDP1    1,,PR0
        35 016432   000303 236000 36                 LDQ     195
        35 016433   100001 356100                    ANSQ    1,,PR1

  30452 35 016434   000437 470400 0                  LDP0    PROC$
        35 016435   000001 471500                    LDP1    1,,PR0
        35 016436   100004 450100                    STZ     4,,PR1

  30453 35 016437   000437 470400 0                  LDP0    PROC$
        35 016440   000001 471500                    LDP1    1,,PR0
        35 016441   100020 450100                    STZ     16,,PR1

  30454 35 016442   000437 470400 0                  LDP0    PROC$
        35 016443   000001 471500                    LDP1    1,,PR0
        35 016444   000024 236000 36                 LDQ     20
        35 016445   100021 756100                    STQ     17,,PR1

  30455 35 016446   000437 470400 0                  LDP0    PROC$
        35 016447   000001 471500                    LDP1    1,,PR0
        35 016450   000024 236000 36                 LDQ     20
        35 016451   100022 756100                    STQ     18,,PR1

  30457 35 016452   000437 470400 0                  LDP0    PROC$
PL6.E3A0      #001=Z8EM$SEMANTICS_DATA_DIV File=Z8EM.:Z8A6TSI                    SAT 08/09/97 12:08 Page:681
        35 016453   000001 471500                    LDP1    1,,PR0
        35 016454   000011 236000 36                 LDQ     9
        35 016455   100025 756100                    STQ     21,,PR1

  30462 35 016456   000437 470400 0                  LDP0    PROC$
        35 016457   000001 471500                    LDP1    1,,PR0
        35 016460   100026 756100                    STQ     22,,PR1

  30467 35 016461   000437 470400 0                  LDP0    PROC$
        35 016462   000001 471500                    LDP1    1,,PR0
        35 016463   100027 756100                    STQ     23,,PR1

  30472 35 016464   000437 470400 0                  LDP0    PROC$
        35 016465   000001 471500                    LDP1    1,,PR0
        35 016466   100030 756100                    STQ     24,,PR1

  30476 35 016467   000437 470400 0                  LDP0    PROC$
        35 016470   000001 471500                    LDP1    1,,PR0
        35 016471   100005 450100                    STZ     5,,PR1

  30477 35 016472   000437 470400 0                  LDP0    PROC$
        35 016473   000001 471500                    LDP1    1,,PR0
        35 016474   100006 450100                    STZ     6,,PR1

  30478 35 016475   000437 470400 0                  LDP0    PROC$
        35 016476   000001 471500                    LDP1    1,,PR0
        35 016477   000135 235007                    LDA     93,DL
        35 016500   100007 755100                    STA     7,,PR1

  30479 35 016501   000437 470400 0                  LDP0    PROC$
        35 016502   000001 471500                    LDP1    1,,PR0
        35 016503   000024 236000 36                 LDQ     20
        35 016504   100014 756100                    STQ     12,,PR1

  30480 35 016505   000437 470400 0                  LDP0    PROC$
        35 016506   000001 471500                    LDP1    1,,PR0
        35 016507   000024 236000 36                 LDQ     20
PL6.E3A0      #001=Z8EM$SEMANTICS_DATA_DIV File=Z8EM.:Z8A6TSI                    SAT 08/09/97 12:08 Page:682
        35 016510   100017 756100                    STQ     15,,PR1

  30481 35 016511   000437 470400 0                  LDP0    PROC$
        35 016512   000001 471500                    LDP1    1,,PR0
        35 016513   000024 236000 36                 LDQ     20
        35 016514   100024 756100                    STQ     20,,PR1

  30482 35 016515   000437 470400 0                  LDP0    PROC$
        35 016516   000001 471500                    LDP1    1,,PR0
        35 016517   000024 236000 36                 LDQ     20
        35 016520   100023 756100                    STQ     19,,PR1

     3033    30485
     3034    30486    3            O1COM.SEG_LIMIT = %MAX_FIXED_SEG# + 1;

  30486 35 016521   000062 236007                    LDQ     50,DL
        35 016522   000111 756000 xsym               STQ     O1COM+73

     3035    30487
     3036    30488                 /* If a consecutive program file exists, then link
     3037    30489                    this program as the last prog brother */
     3038    30490
     3039    30491    3            IF COMCOM.FIRST_PROC$ ~= ADDR(NIL) THEN

  30491 35 016523   000136 236000 xsym               LDQ     COMCOM+94
        35 016524   000024 116000 36                 CMPQ    20
        35 016525   016542 600000 35                 TZE     s:30503

     3040    30492    4              DO;

     3041    30493    4                BRO$ = COMCOM.FIRST_PROC$;

  30493 35 016526   000436 756000 0                  STQ     BRO$

     3042    30494
     3043    30495    5                DO WHILE (BRO$ -> PROC_.BROTHER ~= ADDR(NIL));

PL6.E3A0      #001=Z8EM$SEMANTICS_DATA_DIV File=Z8EM.:Z8A6TSI                    SAT 08/09/97 12:08 Page:683
  30495 35 016527   016533 710000 35                 TRA     s:30497

     3044    30496    5                  BRO$ = BRO$ -> PROC_.BROTHER;

  30496 35 016530   000436 470400 0                  LDP0    BRO$
        35 016531   000010 236100                    LDQ     8,,PR0
        35 016532   000436 756000 0                  STQ     BRO$

     3045    30497    5                END; /* While */

  30497 35 016533   000436 470400 0                  LDP0    BRO$
        35 016534   000010 236100                    LDQ     8,,PR0
        35 016535   000024 116000 36                 CMPQ    20
        35 016536   016530 601000 35                 TNZ     s:30496

     3046    30498
     3047    30499    4                BRO$ -> PROC_.BROTHER = PROC$;

  30499 35 016537   000437 236000 0                  LDQ     PROC$
        35 016540   000010 756100                    STQ     8,,PR0

     3048    30500    4              END;

  30500 35 016541   016546 710000 35                 TRA     s:30507

     3049    30501    3            ELSE
     3050    30502    4              DO;

     3051    30503    4                COMCOM.FIRST_PROC$ = PROC$;

  30503 35 016542   000437 236000 0                  LDQ     PROC$
        35 016543   000136 756000 xsym               STQ     COMCOM+94

     3052    30504    4                COMCOM.OU_EXTERNAL_NAME$ = O1COM.PROG_ID_DNT$;

  30504 35 016544   000110 236000 xsym               LDQ     O1COM+72
        35 016545   000146 756000 xsym               STQ     COMCOM+102
PL6.E3A0      #001=Z8EM$SEMANTICS_DATA_DIV File=Z8EM.:Z8A6TSI                    SAT 08/09/97 12:08 Page:684

     3053    30505    4              END;

     3054    30506
     3055    30507    3            O1COM.CURRENT_PROC$ = PROC$;

  30507 35 016546   000437 236000 0                  LDQ     PROC$
        35 016547   000057 756000 xsym               STQ     O1COM+47

     3056    30508    3          END;

  30508 35 016550   017243 710000 35                 TRA     s:30807

     3057    30509    2        ELSE
     3058    30510    3          DO;

     3059    30511                 /* INTERNAL PROCEDURE */
     3060    30512
     3061    30513    3            IF COMCOM.OB.FIPS.LEVEL >= %INT_LEV THEN

  30513 35 016551   000036 720000 xsym               LXL0    COMCOM+30
        35 016552   000002 100003                    CMPX0   2,DU
        35 016553   016571 604000 35                 TMI     s:30524

     3062    30514    3              CALL Z8AE$ERROR (%E$LEVEL_CHECK,

  30514 35 016554   000151 236000 xsym               LDQ     O1COM+105
        35 016555   000025 736000                    QLS     21
        35 016556   000304 036000 36                 ADLQ    196
        35 016557   001014 756000 0                  STQ     PROC$+4
        35 016560   000151 236000 xsym               LDQ     O1COM+105
        35 016561   000025 736000                    QLS     21
        35 016562   000305 036000 36                 ADLQ    197
        35 016563   000004 235000 36                 LDA     4
        35 016564   001012 757000 0                  STAQ    PROC$+2
        35 016565   001012 630400 0                  EPPR0   PROC$+2
        35 016566   000000 631400 36                 EPPR1   0
PL6.E3A0      #001=Z8EM$SEMANTICS_DATA_DIV File=Z8EM.:Z8A6TSI                    SAT 08/09/97 12:08 Page:685
        35 016567   000000 701000 xent               TSX1    Z8AE$ERROR
        35 016570   000000 011000                    NOP     0

     3063    30515    3                               O1COM.LX_STK.LINE(O1COM.LX_TOP - 8),
     3064    30516    3                               O1COM.LX_STK.COLUMN(O1COM.LX_TOP - 8));
     3065    30517
     3066    30518                 %NEW_INTDEF (@DNT$ = NAME$ -> LX_TERMINAL.DNT$,
     3067    30519                              @NEXT = NAME$ -> LX_TERMINAL.DNT$ -> DNT.ST$,
     3068    30520                              @ST$  = P$);

  30524 35 016571   000002 236000 13                 LDQ     ST_+2
        35 016572   000013 036007                    ADLQ    11,DL
        35 016573   000003 116000 13                 CMPQ    ST_+3
        35 016574   016605 604000 35                 TMI     s:30526

  30525 35 016575   000102 236000 36                 LDQ     66
        35 016576   001012 756000 0                  STQ     PROC$+2
        35 016577   001012 630400 0                  EPPR0   PROC$+2
        35 016600   001013 450400 0                  STP0    PROC$+3
        35 016601   001013 630400 0                  EPPR0   PROC$+3
        35 016602   000036 631400 36                 EPPR1   30
        35 016603   000000 701000 xent               TSX1    Z8AR$RESERVER
        35 016604   000000 011000                    NOP     0

  30526 35 016605   000002 236000 13                 LDQ     ST_+2
        35 016606   000022 736000                    QLS     18
        35 016607   000001 036000 13                 ADLQ    ST_+1
        35 016610   000021 756000 0                  STQ     P$

  30527 35 016611   000013 236007                    LDQ     11,DL
        35 016612   000002 056000 13                 ASQ     ST_+2

  30530 35 016613   000776 220003                    LDX0    510,DU
        35 016614   000021 470400 0                  LDP0    P$
        35 016615   000000 740100                    STX0    0,,PR0

  30531 35 016616   000021 470400 0                  LDP0    P$
PL6.E3A0      #001=Z8EM$SEMANTICS_DATA_DIV File=Z8EM.:Z8A6TSI                    SAT 08/09/97 12:08 Page:686
        35 016617   001000 236007                    LDQ     512,DL
        35 016620   000000 552110                    STBQ    0,'10'O,PR0

  30532 35 016621   000021 470400 0                  LDP0    P$
        35 016622   000000 236003                    LDQ     0,DU
        35 016623   000000 552104                    STBQ    0,'04'O,PR0

  30533 35 016624   000020 221003                    LDX1    16,DU
        35 016625   000021 470400 0                  LDP0    P$
        35 016626   000002 741100                    STX1    2,,PR0

  30534 35 016627   000133 722000 xsym               LXL2    COMCOM+91
        35 016630   000021 470400 0                  LDP0    P$
        35 016631   000002 442100                    SXL2    2,,PR0

  30535 35 016632   000021 470400 0                  LDP0    P$
        35 016633   000003 450100                    STZ     3,,PR0

  30536 35 016634   000024 236000 36                 LDQ     20
        35 016635   000021 470400 0                  LDP0    P$
        35 016636   000005 756100                    STQ     5,,PR0

  30537 35 016637   000024 236000 36                 LDQ     20
        35 016640   000021 470400 0                  LDP0    P$
        35 016641   000007 756100                    STQ     7,,PR0

  30538 35 016642   000433 470400 0                  LDP0    @NAME$
        35 016643   000000 471500                    LDP1    0,,PR0
        35 016644   100002 236100                    LDQ     2,,PR1
        35 016645   000021 473400 0                  LDP3    P$
        35 016646   300006 756100                    STQ     6,,PR3

  30539 35 016647   000000 471500                    LDP1    0,,PR0
        35 016650   100002 473500                    LDP3    2,,PR1
        35 016651   300001 236100                    LDQ     1,,PR3
        35 016652   000021 474400 0                  LDP4    P$
        35 016653   400004 756100                    STQ     4,,PR4
PL6.E3A0      #001=Z8EM$SEMANTICS_DATA_DIV File=Z8EM.:Z8A6TSI                    SAT 08/09/97 12:08 Page:687

  30543 35 016654   000024 236000 36                 LDQ     20
        35 016655   000021 471400 0                  LDP1    P$
        35 016656   100012 756100                    STQ     10,,PR1

  30546 35 016657   000057 236000 xsym               LDQ     O1COM+47
        35 016660   000021 471400 0                  LDP1    P$
        35 016661   100011 756100                    STQ     9,,PR1

  30547 35 016662   000057 236000 xsym               LDQ     O1COM+47
        35 016663   000024 116000 36                 CMPQ    20
        35 016664   016710 600000 35                 TZE     s:30584

  30551 35 016665   000057 471400 xsym               LDP1    O1COM+47
        35 016666   100001 473500                    LDP3    1,,PR1
        35 016667   300012 236100                    LDQ     10,,PR3
        35 016670   000024 116000 36                 CMPQ    20
        35 016671   016701 601000 35                 TNZ     s:30558

  30553 35 016672   000021 236000 0                  LDQ     P$
        35 016673   300011 756100                    STQ     9,,PR3

  30554 35 016674   000057 471400 xsym               LDP1    O1COM+47
        35 016675   100001 473500                    LDP3    1,,PR1
        35 016676   000021 236000 0                  LDQ     P$
        35 016677   300012 756100                    STQ     10,,PR3

  30555 35 016700   016710 710000 35                 TRA     s:30584

  30558 35 016701   300012 474500                    LDP4    10,,PR3
        35 016702   000021 236000 0                  LDQ     P$
        35 016703   400012 756100                    STQ     10,,PR4

  30559 35 016704   000057 471400 xsym               LDP1    O1COM+47
        35 016705   100001 473500                    LDP3    1,,PR1
        35 016706   000021 236000 0                  LDQ     P$
        35 016707   300012 756100                    STQ     10,,PR3
PL6.E3A0      #001=Z8EM$SEMANTICS_DATA_DIV File=Z8EM.:Z8A6TSI                    SAT 08/09/97 12:08 Page:688

     3069    30583
     3070    30584    3            NAME$ -> LX_TERMINAL.DNT$ -> DNT.ST$ = P$;

  30584 35 016710   000000 471500                    LDP1    0,,PR0
        35 016711   100002 473500                    LDP3    2,,PR1
        35 016712   000021 236000 0                  LDQ     P$
        35 016713   300001 756100                    STQ     1,,PR3

     3071    30585
     3072    30586                 %NEW_PROC_ (@ST$        = PROC$,
     3073    30587                             @LEVEL      = O1COM.CURRENT_PROC$ -> PROC_.LEVEL + 1,
     3074    30588                             @LINE_START = NAME$ -> LX_TERMINAL.LINE,
     3075    30589                             @PROC_DEF$  = P$,
     3076    30590                             @FATHER     = O1COM.CURRENT_PROC$);

  30594 35 016714   000002 236000 13                 LDQ     ST_+2
        35 016715   000013 036007                    ADLQ    11,DL
        35 016716   000003 116000 13                 CMPQ    ST_+3
        35 016717   016730 604000 35                 TMI     s:30596

  30595 35 016720   000102 236000 36                 LDQ     66
        35 016721   001012 756000 0                  STQ     PROC$+2
        35 016722   001012 631400 0                  EPPR1   PROC$+2
        35 016723   001013 451400 0                  STP1    PROC$+3
        35 016724   001013 630400 0                  EPPR0   PROC$+3
        35 016725   000036 631400 36                 EPPR1   30
        35 016726   000000 701000 xent               TSX1    Z8AR$RESERVER
        35 016727   000000 011000                    NOP     0

  30596 35 016730   000002 236000 13                 LDQ     ST_+2
        35 016731   000022 736000                    QLS     18
        35 016732   000001 036000 13                 ADLQ    ST_+1
        35 016733   000437 756000 0                  STQ     PROC$

  30597 35 016734   000013 236007                    LDQ     11,DL
        35 016735   000002 056000 13                 ASQ     ST_+2
PL6.E3A0      #001=Z8EM$SEMANTICS_DATA_DIV File=Z8EM.:Z8A6TSI                    SAT 08/09/97 12:08 Page:689

  30600 35 016736   000756 220003                    LDX0    494,DU
        35 016737   000437 470400 0                  LDP0    PROC$
        35 016740   000000 740100                    STX0    0,,PR0

  30601 35 016741   000057 470400 xsym               LDP0    O1COM+47
        35 016742   000000 721100                    LXL1    0,,PR0
        35 016743   000001 622011                    EAX2    1,X1
        35 016744   000437 471400 0                  LDP1    PROC$
        35 016745   100000 442100                    SXL2    0,,PR1

  30602 35 016746   000433 470400 0                  LDP0    @NAME$
        35 016747   000000 471500                    LDP1    0,,PR0
        35 016750   100005 721100                    LXL1    5,,PR1
        35 016751   000437 473400 0                  LDP3    PROC$
        35 016752   300002 741100                    STX1    2,,PR3

  30603 35 016753   000133 721000 xsym               LXL1    COMCOM+91
        35 016754   000437 471400 0                  LDP1    PROC$
        35 016755   100002 441100                    SXL1    2,,PR1

  30604 35 016756   000437 471400 0                  LDP1    PROC$
        35 016757   100003 450100                    STZ     3,,PR1

  30605 35 016760   000024 236000 36                 LDQ     20
        35 016761   000437 471400 0                  LDP1    PROC$
        35 016762   100001 756100                    STQ     1,,PR1

  30606 35 016763   000024 236000 36                 LDQ     20
        35 016764   000437 471400 0                  LDP1    PROC$
        35 016765   100004 756100                    STQ     4,,PR1

  30607 35 016766   000024 236000 36                 LDQ     20
        35 016767   000437 471400 0                  LDP1    PROC$
        35 016770   100005 756100                    STQ     5,,PR1

  30608 35 016771   000021 236000 0                  LDQ     P$
PL6.E3A0      #001=Z8EM$SEMANTICS_DATA_DIV File=Z8EM.:Z8A6TSI                    SAT 08/09/97 12:08 Page:690
        35 016772   000437 471400 0                  LDP1    PROC$
        35 016773   100006 756100                    STQ     6,,PR1

  30609 35 016774   000057 236000 xsym               LDQ     O1COM+47
        35 016775   000437 471400 0                  LDP1    PROC$
        35 016776   100011 756100                    STQ     9,,PR1

  30610 35 016777   000024 236000 36                 LDQ     20
        35 017000   000437 471400 0                  LDP1    PROC$
        35 017001   100010 756100                    STQ     8,,PR1

  30611 35 017002   000024 236000 36                 LDQ     20
        35 017003   000437 471400 0                  LDP1    PROC$
        35 017004   100007 756100                    STQ     7,,PR1

     3077    30647
     3078    30648    3            P$ -> INTDEF.PROC$ = PROC$;

  30648 35 017005   000437 236000 0                  LDQ     PROC$
        35 017006   000021 471400 0                  LDP1    P$
        35 017007   100011 756100                    STQ     9,,PR1

     3079    30649
     3080    30650                 %NEW_PROC_SUPP (@POINTER = PROC$ -> PROC_.PROC_SUPP$);

  30728 35 017010   000002 236000 8                  LDQ     LTS_+2
        35 017011   000031 036007                    ADLQ    25,DL
        35 017012   000003 116000 8                  CMPQ    LTS_+3
        35 017013   017024 604000 35                 TMI     s:30730

  30729 35 017014   000211 236000 36                 LDQ     137
        35 017015   001012 756000 0                  STQ     PROC$+2
        35 017016   001012 631400 0                  EPPR1   PROC$+2
        35 017017   001013 451400 0                  STP1    PROC$+3
        35 017020   001013 630400 0                  EPPR0   PROC$+3
        35 017021   000036 631400 36                 EPPR1   30
        35 017022   000000 701000 xent               TSX1    Z8AR$RESERVER
PL6.E3A0      #001=Z8EM$SEMANTICS_DATA_DIV File=Z8EM.:Z8A6TSI                    SAT 08/09/97 12:08 Page:691
        35 017023   000000 011000                    NOP     0

  30730 35 017024   000002 236000 8                  LDQ     LTS_+2
        35 017025   000022 736000                    QLS     18
        35 017026   000001 036000 8                  ADLQ    LTS_+1
        35 017027   000437 470400 0                  LDP0    PROC$
        35 017030   000001 756100                    STQ     1,,PR0

  30731 35 017031   000031 236007                    LDQ     25,DL
        35 017032   000002 056000 8                  ASQ     LTS_+2

  30732 35 017033   000437 470400 0                  LDP0    PROC$
        35 017034   000001 471500                    LDP1    1,,PR0
        35 017035   001124 220003                    LDX0    596,DU
        35 017036   100000 740100                    STX0    0,,PR1

  30738 35 017037   000437 470400 0                  LDP0    PROC$
        35 017040   000001 471500                    LDP1    1,,PR0
        35 017041   044000 236003                    LDQ     18432,DU
        35 017042   100001 552140                    STBQ    1,'40'O,PR1

  30739 35 017043   000437 470400 0                  LDP0    PROC$
        35 017044   000001 471500                    LDP1    1,,PR0
        35 017045   000024 236000 36                 LDQ     20
        35 017046   100002 756100                    STQ     2,,PR1

  30740 35 017047   000437 470400 0                  LDP0    PROC$
        35 017050   000001 471500                    LDP1    1,,PR0
        35 017051   000024 236000 36                 LDQ     20
        35 017052   100003 756100                    STQ     3,,PR1

  30741 35 017053   000437 470400 0                  LDP0    PROC$
        35 017054   000001 471500                    LDP1    1,,PR0
        35 017055   000024 236000 36                 LDQ     20
        35 017056   100011 756100                    STQ     9,,PR1

  30742 35 017057   000437 470400 0                  LDP0    PROC$
PL6.E3A0      #001=Z8EM$SEMANTICS_DATA_DIV File=Z8EM.:Z8A6TSI                    SAT 08/09/97 12:08 Page:692
        35 017060   000001 471500                    LDP1    1,,PR0
        35 017061   000024 236000 36                 LDQ     20
        35 017062   100012 756100                    STQ     10,,PR1

  30743 35 017063   000437 470400 0                  LDP0    PROC$
        35 017064   000001 471500                    LDP1    1,,PR0
        35 017065   000062 235007                    LDA     50,DL
        35 017066   100016 755100                    STA     14,,PR1

  30744 35 017067   000437 470400 0                  LDP0    PROC$
        35 017070   000001 471500                    LDP1    1,,PR0
        35 017071   000024 236000 36                 LDQ     20
        35 017072   100010 756100                    STQ     8,,PR1

  30745 35 017073   000437 470400 0                  LDP0    PROC$
        35 017074   000001 471500                    LDP1    1,,PR0
        35 017075   000000 236003                    LDQ     0,DU
        35 017076   100001 552120                    STBQ    1,'20'O,PR1

  30746 35 017077   000437 470400 0                  LDP0    PROC$
        35 017100   000001 471500                    LDP1    1,,PR0
        35 017101   177000 236007                    LDQ     65024,DL
        35 017102   100001 552110                    STBQ    1,'10'O,PR1

  30747 35 017103   000437 470400 0                  LDP0    PROC$
        35 017104   000001 471500                    LDP1    1,,PR0
        35 017105   000303 236000 36                 LDQ     195
        35 017106   100001 356100                    ANSQ    1,,PR1

  30748 35 017107   000437 470400 0                  LDP0    PROC$
        35 017110   000001 471500                    LDP1    1,,PR0
        35 017111   100004 450100                    STZ     4,,PR1

  30749 35 017112   000437 470400 0                  LDP0    PROC$
        35 017113   000001 471500                    LDP1    1,,PR0
        35 017114   100020 450100                    STZ     16,,PR1

PL6.E3A0      #001=Z8EM$SEMANTICS_DATA_DIV File=Z8EM.:Z8A6TSI                    SAT 08/09/97 12:08 Page:693
  30750 35 017115   000437 470400 0                  LDP0    PROC$
        35 017116   000001 471500                    LDP1    1,,PR0
        35 017117   000024 236000 36                 LDQ     20
        35 017120   100021 756100                    STQ     17,,PR1

  30751 35 017121   000437 470400 0                  LDP0    PROC$
        35 017122   000001 471500                    LDP1    1,,PR0
        35 017123   000024 236000 36                 LDQ     20
        35 017124   100022 756100                    STQ     18,,PR1

  30753 35 017125   000437 470400 0                  LDP0    PROC$
        35 017126   000001 471500                    LDP1    1,,PR0
        35 017127   000011 236000 36                 LDQ     9
        35 017130   100025 756100                    STQ     21,,PR1

  30758 35 017131   000437 470400 0                  LDP0    PROC$
        35 017132   000001 471500                    LDP1    1,,PR0
        35 017133   100026 756100                    STQ     22,,PR1

  30763 35 017134   000437 470400 0                  LDP0    PROC$
        35 017135   000001 471500                    LDP1    1,,PR0
        35 017136   100027 756100                    STQ     23,,PR1

  30768 35 017137   000437 470400 0                  LDP0    PROC$
        35 017140   000001 471500                    LDP1    1,,PR0
        35 017141   100030 756100                    STQ     24,,PR1

  30772 35 017142   000437 470400 0                  LDP0    PROC$
        35 017143   000001 471500                    LDP1    1,,PR0
        35 017144   100005 450100                    STZ     5,,PR1

  30773 35 017145   000437 470400 0                  LDP0    PROC$
        35 017146   000001 471500                    LDP1    1,,PR0
        35 017147   100006 450100                    STZ     6,,PR1

  30774 35 017150   000437 470400 0                  LDP0    PROC$
        35 017151   000001 471500                    LDP1    1,,PR0
PL6.E3A0      #001=Z8EM$SEMANTICS_DATA_DIV File=Z8EM.:Z8A6TSI                    SAT 08/09/97 12:08 Page:694
        35 017152   000135 235007                    LDA     93,DL
        35 017153   100007 755100                    STA     7,,PR1

  30775 35 017154   000437 470400 0                  LDP0    PROC$
        35 017155   000001 471500                    LDP1    1,,PR0
        35 017156   000024 236000 36                 LDQ     20
        35 017157   100014 756100                    STQ     12,,PR1

  30776 35 017160   000437 470400 0                  LDP0    PROC$
        35 017161   000001 471500                    LDP1    1,,PR0
        35 017162   000024 236000 36                 LDQ     20
        35 017163   100017 756100                    STQ     15,,PR1

  30777 35 017164   000437 470400 0                  LDP0    PROC$
        35 017165   000001 471500                    LDP1    1,,PR0
        35 017166   000024 236000 36                 LDQ     20
        35 017167   100024 756100                    STQ     20,,PR1

  30778 35 017170   000437 470400 0                  LDP0    PROC$
        35 017171   000001 471500                    LDP1    1,,PR0
        35 017172   000024 236000 36                 LDQ     20
        35 017173   100023 756100                    STQ     19,,PR1

     3081    30781
     3082    30782    3            PROC$ -> PROC_.B.SUB_SCHEMA = O1COM.CURRENT_PROC$ ->

  30782 35 017174   000437 470400 0                  LDP0    PROC$
        35 017175   000057 471400 xsym               LDP1    O1COM+47
        35 017176   100003 236100                    LDQ     3,,PR1
        35 017177   000003 676100                    ERQ     3,,PR0
        35 017200   000200 376003                    ANQ     128,DU
        35 017201   000003 656100                    ERSQ    3,,PR0

     3083    30783    3                                                PROC_.B.SUB_SCHEMA;
     3084    30784    3            PROC$ -> PROC_.B.INITIAL_RELATIVE = O1COM.CURRENT_PROC$ ->

  30784 35 017202   000437 470400 0                  LDP0    PROC$
PL6.E3A0      #001=Z8EM$SEMANTICS_DATA_DIV File=Z8EM.:Z8A6TSI                    SAT 08/09/97 12:08 Page:695
        35 017203   000057 471400 xsym               LDP1    O1COM+47
        35 017204   100003 236100                    LDQ     3,,PR1
        35 017205   000003 676100                    ERQ     3,,PR0
        35 017206   020000 376003                    ANQ     8192,DU
        35 017207   000003 656100                    ERSQ    3,,PR0

     3085    30785    3                                                PROC_.B.INITIAL_RELATIVE;
     3086    30786
     3087    30787    3            CALL CHECK_FOR_DUP_PROC (P$, NAME$);

  30787 35 017210   000433 236000 0                  LDQ     @NAME$
        35 017211   000306 235000 36                 LDA     198
        35 017212   000150 757000 0                  STAQ    @INT$
        35 017213   003300 701000 35                 TSX1    CHECK_FOR_DUP_PROC
        35 017214   000000 011000                    NOP     0

     3088    30788
     3089    30789    3            SON$ = O1COM.CURRENT_PROC$ -> PROC_.SON;

  30789 35 017215   000057 470400 xsym               LDP0    O1COM+47
        35 017216   000007 236100                    LDQ     7,,PR0
        35 017217   000435 756000 0                  STQ     SON$

     3090    30790
     3091    30791    3            IF SON$ = ADDR(NIL) THEN

  30791 35 017220   000024 116000 36                 CMPQ    20
        35 017221   017227 601000 35                 TNZ     s:30798

     3092    30792    4              DO;

     3093    30793    4                O1COM.CURRENT_PROC$ -> PROC_.SON = PROC$;

  30793 35 017222   000437 236000 0                  LDQ     PROC$
        35 017223   000007 756100                    STQ     7,,PR0

     3094    30794    4                O1COM.CURRENT_PROC$ = PROC$;
PL6.E3A0      #001=Z8EM$SEMANTICS_DATA_DIV File=Z8EM.:Z8A6TSI                    SAT 08/09/97 12:08 Page:696

  30794 35 017224   000437 236000 0                  LDQ     PROC$
        35 017225   000057 756000 xsym               STQ     O1COM+47

     3095    30795    4              END;

  30795 35 017226   017243 710000 35                 TRA     s:30807

     3096    30796    3            ELSE
     3097    30797    4              DO;

     3098    30798    5                DO WHILE (SON$ -> PROC_.BROTHER ~= ADDR(NIL));

  30798 35 017227   017233 710000 35                 TRA     s:30800

     3099    30799    5                  SON$ = SON$ -> PROC_.BROTHER;

  30799 35 017230   000435 470400 0                  LDP0    SON$
        35 017231   000010 236100                    LDQ     8,,PR0
        35 017232   000435 756000 0                  STQ     SON$

     3100    30800    5                END; /* WHILE */

  30800 35 017233   000435 470400 0                  LDP0    SON$
        35 017234   000010 236100                    LDQ     8,,PR0
        35 017235   000024 116000 36                 CMPQ    20
        35 017236   017230 601000 35                 TNZ     s:30799

     3101    30801
     3102    30802    4                SON$ -> PROC_.BROTHER = PROC$;

  30802 35 017237   000437 236000 0                  LDQ     PROC$
        35 017240   000010 756100                    STQ     8,,PR0

     3103    30803    4                O1COM.CURRENT_PROC$   = PROC$;

  30803 35 017241   000437 236000 0                  LDQ     PROC$
PL6.E3A0      #001=Z8EM$SEMANTICS_DATA_DIV File=Z8EM.:Z8A6TSI                    SAT 08/09/97 12:08 Page:697
        35 017242   000057 756000 xsym               STQ     O1COM+47

     3104    30804    4              END;

     3105    30805    3          END; /* if o1com.current_proc$ = addr(nil) */

     3106    30806
     3107    30807    2          IF O1COM.CURRENT_SEG_ARRAY$ = ADDR(NIL) THEN

  30807 35 017243   000113 236000 xsym               LDQ     O1COM+75
        35 017244   000024 116000 36                 CMPQ    20
        35 017245   017321 601000 35                 TNZ     s:30912

     3108    30808    3            DO;

     3109    30809                   %NEW_LTS_PTR_ARRAY (@POINTER = ARRAY$,
     3110    30810                                       @SIZE = "%MAX_SEG# + 3");

  30812 35 017246   000146 235007                    LDA     102,DL
        35 017247   000000 755000 2                  STA     ITERATION

  30890 35 017250   000002 236000 8                  LDQ     LTS_+2
        35 017251   000000 036000 2                  ADLQ    ITERATION
        35 017252   000003 116000 8                  CMPQ    LTS_+3
        35 017253   017264 604000 35                 TMI     s:30892

  30891 35 017254   000211 236000 36                 LDQ     137
        35 017255   001012 756000 0                  STQ     PROC$+2
        35 017256   001012 630400 0                  EPPR0   PROC$+2
        35 017257   001013 450400 0                  STP0    PROC$+3
        35 017260   001013 630400 0                  EPPR0   PROC$+3
        35 017261   000036 631400 36                 EPPR1   30
        35 017262   000000 701000 xent               TSX1    Z8AR$RESERVER
        35 017263   000000 011000                    NOP     0

  30892 35 017264   000002 236000 8                  LDQ     LTS_+2
        35 017265   000022 736000                    QLS     18
PL6.E3A0      #001=Z8EM$SEMANTICS_DATA_DIV File=Z8EM.:Z8A6TSI                    SAT 08/09/97 12:08 Page:698
        35 017266   000001 036000 8                  ADLQ    LTS_+1
        35 017267   000440 756000 0                  STQ     ARRAY$

  30893 35 017270   000002 236000 8                  LDQ     LTS_+2
        35 017271   000000 036000 2                  ADLQ    ITERATION
        35 017272   000002 756000 8                  STQ     LTS_+2

  30894 35 017273   001122 220003                    LDX0    594,DU
        35 017274   000440 470400 0                  LDP0    ARRAY$
        35 017275   000000 740100                    STX0    0,,PR0

  30896 35 017276   000000 721000 2                  LXL1    ITERATION
        35 017277   000000 441100                    SXL1    0,,PR0

  30900 35 017300   000024 236000 36                 LDQ     20
        35 017301   000001 756100                    STQ     1,,PR0

     3111    30903
     3112    30904    4              DO I = 0 TO %MAX_SEG#;

  30904 35 017302   000017 450000 0                  STZ     I

     3113    30905    4                ARRAY$ -> LTS_PTR_ARRAY.P$(I) = ADDR(NIL);

  30905 35 017303   000024 236000 36                 LDQ     20
        35 017304   000440 470400 0                  LDP0    ARRAY$
        35 017305   000017 720000 0                  LXL0    I
        35 017306   000002 756110                    STQ     2,X0,PR0

     3114    30906    4              END;

  30906 35 017307   000017 054000 0                  AOS     I
        35 017310   000017 235000 0                  LDA     I
        35 017311   000143 115007                    CMPA    99,DL
        35 017312   017303 604400 35                 TMOZ    s:30905

     3115    30907
PL6.E3A0      #001=Z8EM$SEMANTICS_DATA_DIV File=Z8EM.:Z8A6TSI                    SAT 08/09/97 12:08 Page:699
     3116    30908    3             O1COM.CURRENT_PROC$ -> PROC_.PROC_SUPP$ -> PROC_SUPP.SEG_ARRAY$ = ARRAY$;

  30908 35 017313   000057 471400 xsym               LDP1    O1COM+47
        35 017314   100001 473500                    LDP3    1,,PR1
        35 017315   000440 236000 0                  LDQ     ARRAY$
        35 017316   300014 756100                    STQ     12,,PR3

     3117    30909    3              O1COM.CURRENT_SEG_ARRAY$ = ARRAY$;

  30909 35 017317   000113 756000 xsym               STQ     O1COM+75

     3118    30910    3            END;

  30910 35 017320   017324 710000 35                 TRA     s:30916

     3119    30911    2          ELSE
     3120    30912    2            O1COM.CURRENT_PROC$ -> PROC_.PROC_SUPP$ ->

  30912 35 017321   000057 470400 xsym               LDP0    O1COM+47
        35 017322   000001 471500                    LDP1    1,,PR0
        35 017323   100014 756100                    STQ     12,,PR1

     3121    30913    2              PROC_SUPP.SEG_ARRAY$ = O1COM.CURRENT_SEG_ARRAY$;
     3122    30914
     3123    30915
     3124    30916    3        DO CASE (COM_INIT$ -> LX_ITEM.ID);

  30916 35 017324   000434 470400 0                  LDP0    @COM_INIT$
        35 017325   000000 471500                    LDP1    0,,PR0
        35 017326   100000 220100                    LDX0    0,,PR1
        35 017327   000003 100003                    CMPX0   3,DU
        35 017330   017332 602010 35                 TNC     s:30916+6,X0
        35 017331   017462 710000 35                 TRA     s:30956
        35 017332   017476 710000 35                 TRA     s:30999
        35 017333   017462 710000 35                 TRA     s:30956
        35 017334   017335 710000 35                 TRA     s:30919

PL6.E3A0      #001=Z8EM$SEMANTICS_DATA_DIV File=Z8EM.:Z8A6TSI                    SAT 08/09/97 12:08 Page:700
     3125    30917
     3126    30918    3          CASE (%LX_LIST);

     3127    30919    3            IF COMCOM.OB.FIPS.LEVEL >= %INT_LEV THEN

  30919 35 017335   000036 721000 xsym               LXL1    COMCOM+30
        35 017336   000002 101003                    CMPX1   2,DU
        35 017337   017353 604000 35                 TMI     s:30923

     3128    30920    3              CALL Z8AE$ERROR (%E$LEVEL_CHECK,

  30920 35 017340   100004 473500                    LDP3    4,,PR1
        35 017341   300006 634500                    EPPR4   6,,PR3
        35 017342   001014 454400 0                  STP4    PROC$+4
        35 017343   300005 631500                    EPPR1   5,,PR3
        35 017344   001013 451400 0                  STP1    PROC$+3
        35 017345   000004 236000 36                 LDQ     4
        35 017346   001012 756000 0                  STQ     PROC$+2
        35 017347   001012 630400 0                  EPPR0   PROC$+2
        35 017350   000000 631400 36                 EPPR1   0
        35 017351   000000 701000 xent               TSX1    Z8AE$ERROR
        35 017352   000000 011000                    NOP     0

     3129    30921    3                               COM_INIT$ -> LX_LIST.HEAD$ -> LX_ITEM.LINE,
     3130    30922    3                               COM_INIT$ -> LX_LIST.HEAD$ -> LX_ITEM.COLUMN);
     3131    30923    3            IF COM_INIT$ -> LX_LIST.COUNT = 2 THEN

  30923 35 017353   000434 470400 0                  LDP0    @COM_INIT$
        35 017354   000000 471500                    LDP1    0,,PR0
        35 017355   100002 235100                    LDA     2,,PR1
        35 017356   000002 115007                    CMPA    2,DL
        35 017357   017410 601000 35                 TNZ     s:30934

     3132    30924    4              DO;

     3133    30925    4                IF COMCOM.OB.FIPS.LEVEL >= %INT_LEV THEN

PL6.E3A0      #001=Z8EM$SEMANTICS_DATA_DIV File=Z8EM.:Z8A6TSI                    SAT 08/09/97 12:08 Page:701
  30925 35 017360   000036 720000 xsym               LXL0    COMCOM+30
        35 017361   000002 100003                    CMPX0   2,DU
        35 017362   017376 604000 35                 TMI     s:30929

     3134    30926    4                  CALL Z8AE$ERROR (%E$LEVEL_CHECK,

  30926 35 017363   100001 473500                    LDP3    1,,PR1
        35 017364   300006 634500                    EPPR4   6,,PR3
        35 017365   001014 454400 0                  STP4    PROC$+4
        35 017366   300005 631500                    EPPR1   5,,PR3
        35 017367   001013 451400 0                  STP1    PROC$+3
        35 017370   000004 236000 36                 LDQ     4
        35 017371   001012 756000 0                  STQ     PROC$+2
        35 017372   001012 630400 0                  EPPR0   PROC$+2
        35 017373   000000 631400 36                 EPPR1   0
        35 017374   000000 701000 xent               TSX1    Z8AE$ERROR
        35 017375   000000 011000                    NOP     0

     3135    30927    4                                   COM_INIT$ -> LX_LIST.TAIL$ -> LX_ITEM.LINE,
     3136    30928    4                                   COM_INIT$ -> LX_LIST.TAIL$ -> LX_ITEM.COLUMN);
     3137    30929    4                PROC$ -> PROC_.B.COMMON  = TRUE;

  30929 35 017376   000437 470400 0                  LDP0    PROC$
        35 017377   400000 236003                    LDQ     -131072,DU
        35 017400   000003 256100                    ORSQ    3,,PR0

     3138    30930    4                PROC$ -> PROC_.B.INITIAL = TRUE;

  30930 35 017401   000437 470400 0                  LDP0    PROC$
        35 017402   200000 236003                    LDQ     65536,DU
        35 017403   000003 256100                    ORSQ    3,,PR0

     3139    30931    4                PROC$ -> PROC_.B.INITIAL_RELATIVE = TRUE;

  30931 35 017404   000437 470400 0                  LDP0    PROC$
        35 017405   020000 236003                    LDQ     8192,DU
        35 017406   000003 256100                    ORSQ    3,,PR0
PL6.E3A0      #001=Z8EM$SEMANTICS_DATA_DIV File=Z8EM.:Z8A6TSI                    SAT 08/09/97 12:08 Page:702

     3140    30932    4              END;

  30932 35 017407   017426 710000 35                 TRA     s:30943

     3141    30933    3            ELSE
     3142    30934    3              IF COM_INIT$ -> LX_LIST.HEAD$ ->

  30934 35 017410   100004 473500                    LDP3    4,,PR1
        35 017411   300003 235100                    LDA     3,,PR3
        35 017412   000133 115007                    CMPA    91,DL
        35 017413   017420 601000 35                 TNZ     s:30939

     3143    30935    3              LX_TERMINAL.SYMBOL = %RSV_WRD_COMMON THEN
     3144    30936    3                PROC$ -> PROC_.B.COMMON = TRUE;

  30936 35 017414   000437 474400 0                  LDP4    PROC$
        35 017415   400000 236003                    LDQ     -131072,DU
        35 017416   400003 256100                    ORSQ    3,,PR4
        35 017417   017426 710000 35                 TRA     s:30943

     3145    30937    3              ELSE
     3146    30938    4                DO;

     3147    30939    4                  PROC$ -> PROC_.B.INITIAL_RELATIVE = TRUE;

  30939 35 017420   000437 474400 0                  LDP4    PROC$
        35 017421   020000 236003                    LDQ     8192,DU
        35 017422   400003 256100                    ORSQ    3,,PR4

     3148    30940    4                  PROC$ -> PROC_.B.INITIAL = TRUE;

  30940 35 017423   000437 471400 0                  LDP1    PROC$
        35 017424   200000 236003                    LDQ     65536,DU
        35 017425   100003 256100                    ORSQ    3,,PR1

     3149    30941    4                END;
PL6.E3A0      #001=Z8EM$SEMANTICS_DATA_DIV File=Z8EM.:Z8A6TSI                    SAT 08/09/97 12:08 Page:703

     3150    30942
     3151    30943    3            IF PROC$ -> PROC_.B.COMMON AND

  30943 35 017426   000437 470400 0                  LDP0    PROC$
        35 017427   000003 234100                    SZN     3,,PR0
        35 017430   017451 605000 35                 TPL     s:30950
        35 017431   000000 720100                    LXL0    0,,PR0
        35 017432   000001 100003                    CMPX0   1,DU
        35 017433   017451 601000 35                 TNZ     s:30950

     3152    30944    3               PROC$ -> PROC_.LEVEL = 1 THEN
     3153    30945    3              CALL Z8AE$ERROR (%E$CLAUSE_MUST_IN_INTL_PROC,

  30945 35 017434   000434 471400 0                  LDP1    @COM_INIT$
        35 017435   100000 473500                    LDP3    0,,PR1
        35 017436   300004 474500                    LDP4    4,,PR3
        35 017437   000310 237000 36                 LDAQ    200
        35 017440   001014 757000 0                  STAQ    PROC$+4
        35 017441   400005 633500                    EPPR3   5,,PR4
        35 017442   001013 453400 0                  STP3    PROC$+3
        35 017443   000312 236000 36                 LDQ     202
        35 017444   001012 756000 0                  STQ     PROC$+2
        35 017445   001012 630400 0                  EPPR0   PROC$+2
        35 017446   000005 631400 36                 EPPR1   5
        35 017447   000000 701000 xent               TSX1    Z8AE$ERROR
        35 017450   000000 011000                    NOP     0

     3154    30946    3                  COM_INIT$ -> LX_LIST.HEAD$ -> LX_TERMINAL.LINE,
     3155    30947    3                  0,
     3156    30948    3                  DNT$_FROM_RSWNO (%RSV_WRD_COMMON));
     3157    30949
     3158    30950    3            CALL Z8ED$DISPOSE_ABSSYN_TREE (COM_INIT$ -> LX_LIST.HEAD$);

  30950 35 017451   000434 470400 0                  LDP0    @COM_INIT$
        35 017452   000000 471500                    LDP1    0,,PR0
        35 017453   100004 633500                    EPPR3   4,,PR1
PL6.E3A0      #001=Z8EM$SEMANTICS_DATA_DIV File=Z8EM.:Z8A6TSI                    SAT 08/09/97 12:08 Page:704
        35 017454   001012 453400 0                  STP3    PROC$+2
        35 017455   001012 630400 0                  EPPR0   PROC$+2
        35 017456   000036 631400 36                 EPPR1   30
        35 017457   000000 701000 xent               TSX1    Z8ED$DISPOSE_ABSSYN_TREE
        35 017460   000000 011000                    NOP     0
        35 017461   017476 710000 35                 TRA     s:30999

     3159    30951
     3160    30952    3          CASE (%EMPTY);

     3161    30953                 /* A OK */
     3162    30954
     3163    30955    3          CASE (ELSE);

     3164    30956    3            CALL Z8AE$ERROR (%E$UNEXPECTED_CASE,

  30956 35 017462   000433 473400 0                  LDP3    @NAME$
        35 017463   300000 474500                    LDP4    0,,PR3
        35 017464   400006 635500                    EPPR5   6,,PR4
        35 017465   001014 455400 0                  STP5    PROC$+4
        35 017466   400005 631500                    EPPR1   5,,PR4
        35 017467   001013 451400 0                  STP1    PROC$+3
        35 017470   000047 236000 36                 LDQ     39
        35 017471   001012 756000 0                  STQ     PROC$+2
        35 017472   001012 630400 0                  EPPR0   PROC$+2
        35 017473   000000 631400 36                 EPPR1   0
        35 017474   000000 701000 xent               TSX1    Z8AE$ERROR
        35 017475   000000 011000                    NOP     0

     3165    30957    3                             NAME$ -> LX_TERMINAL.LINE,
     3166    30958    3                             NAME$ -> LX_TERMINAL.COLUMN);
     3167    30959
     3168    30960    3        END; /* CASE */

     3169    30961
     3170    30962             %NEW_ILL (@ID    = %SCOPE,
     3171    30963                       @CODE  = %PROGRAM_SCOPE,
PL6.E3A0      #001=Z8EM$SEMANTICS_DATA_DIV File=Z8EM.:Z8A6TSI                    SAT 08/09/97 12:08 Page:705
     3172    30964                       @PROC$ = O1COM.CURRENT_PROC$);

  30999 35 017476   000112 236000 36                 LDQ     74
        35 017477   001012 756000 0                  STQ     PROC$+2
        35 017500   001012 630400 0                  EPPR0   PROC$+2
        35 017501   001017 450400 0                  STP0    PROC$+7
        35 017502   000113 236000 36                 LDQ     75
        35 017503   001016 756000 0                  STQ     PROC$+6
        35 017504   000314 237000 36                 LDAQ    204
        35 017505   001014 757000 0                  STAQ    PROC$+4
        35 017506   001014 630400 0                  EPPR0   PROC$+4
        35 017507   000005 631400 36                 EPPR1   5
        35 017510   000000 701000 xent               TSX1    Z8AN$NEW_ILL
        35 017511   000000 011000                    NOP     0

  31003 35 017512   000000 220003                    LDX0    0,DU
        35 017513   000000 470400 5                  LDP0    ILL$
        35 017514   000000 440100                    SXL0    0,,PR0

  31008 35 017515   000057 236000 xsym               LDQ     O1COM+47
        35 017516   000000 470400 5                  LDP0    ILL$
        35 017517   000001 756100                    STQ     1,,PR0

  31010 35 017520   000024 236000 36                 LDQ     20
        35 017521   000003 756100                    STQ     3,,PR0

  31011 35 017522   000024 236000 36                 LDQ     20
        35 017523   000002 756100                    STQ     2,,PR0

     3173    31343
     3174    31344    2        CALL UPDATE_PROC_SUPP (PROC$);

  31344 35 017524   000316 236000 36                 LDQ     206
        35 017525   000753 756000 0                  STQ     ALPHA_ST$+2
        35 017526   032251 701000 35                 TSX1    UPDATE_PROC_SUPP
        35 017527   000000 011000                    NOP     0

PL6.E3A0      #001=Z8EM$SEMANTICS_DATA_DIV File=Z8EM.:Z8A6TSI                    SAT 08/09/97 12:08 Page:706
     3175    31345
     3176    31346
     3177    31347    2   END NEW_PROC;

  31347 35 017530   000432 221200 0                  LDX1  ! PAGE$+1
        35 017531   000001 702211                    TSX2  ! 1,X1

     3178    31348        %EJECT;
PL6.E3A0      #001=Z8EM$SEMANTICS_DATA_DIV File=Z8EM.:Z8A6TSI                    SAT 08/09/97 12:08 Page:707
     3179    31349
     3180    31350          /*==========*/
     3181    31351    1       NEW_REPORT:   PROC (REPORT$, RD$$) ;

  31351 35 017532   000441 741200 0     NEW_REPORT   STX1  ! ARRAY$+1

     3182    31352          /*==========*/
     3183    31353
     3184    31354
     3185    31355    2     DCL REPORT$               PTR;
     3186    31356    2     DCL RD$$                  PTR;
     3187    31357    2     DCL REPORT_DNT$           PTR;
     3188    31358    2     DCL LTS$$                 PTR;
     3189    31359
     3190    31360
     3191    31361    2     REPORT_DNT$ = REPORT$ -> LX_TERMINAL.DNT$;

  31361 35 017533   000442 470400 0                  LDP0    @REPORT$
        35 017534   000000 471500                    LDP1    0,,PR0
        35 017535   100002 236100                    LDQ     2,,PR1
        35 017536   000444 756000 0                  STQ     REPORT_DNT$

     3192    31362
     3193    31363          %NEW_RD (@ST$       = RD$$,
     3194    31364                   @DNT$      = REPORT_DNT$,
     3195    31365                   @TYPE      = %TYA,
     3196    31366                   @LINE_NO   = REPORT$ -> LX_TERMINAL.LINE,
     3197    31367                   @NEXT      = REPORT_DNT$ -> DNT.ST$,
     3198    31368                   @CLASS     = %CLASS_ALPHANUMERIC);

  31372 35 017537   000002 236000 13                 LDQ     ST_+2
        35 017540   000013 036007                    ADLQ    11,DL
        35 017541   000003 116000 13                 CMPQ    ST_+3
        35 017542   017553 604000 35                 TMI     s:31374

  31373 35 017543   000102 236000 36                 LDQ     66
        35 017544   001012 756000 0                  STQ     PROC$+2
PL6.E3A0      #001=Z8EM$SEMANTICS_DATA_DIV File=Z8EM.:Z8A6TSI                    SAT 08/09/97 12:08 Page:708
        35 017545   001012 631400 0                  EPPR1   PROC$+2
        35 017546   001013 451400 0                  STP1    PROC$+3
        35 017547   001013 630400 0                  EPPR0   PROC$+3
        35 017550   000036 631400 36                 EPPR1   30
        35 017551   000000 701000 xent               TSX1    Z8AR$RESERVER
        35 017552   000000 011000                    NOP     0

  31374 35 017553   000002 236000 13                 LDQ     ST_+2
        35 017554   000022 736000                    QLS     18
        35 017555   000001 036000 13                 ADLQ    ST_+1
        35 017556   000443 470400 0                  LDP0    @RD$$
        35 017557   000000 756100                    STQ     0,,PR0

  31375 35 017560   000013 236007                    LDQ     11,DL
        35 017561   000002 056000 13                 ASQ     ST_+2

  31416 35 017562   000000 471500                    LDP1    0,,PR0
        35 017563   001005 220003                    LDX0    517,DU
        35 017564   100000 740100                    STX0    0,,PR1

  31417 35 017565   000000 471500                    LDP1    0,,PR0
        35 017566   003000 236007                    LDQ     1536,DL
        35 017567   100000 552110                    STBQ    0,'10'O,PR1

  31418 35 017570   000000 471500                    LDP1    0,,PR0
        35 017571   000001 236007                    LDQ     1,DL
        35 017572   100000 552104                    STBQ    0,'04'O,PR1

  31419 35 017573   000000 471500                    LDP1    0,,PR0
        35 017574   000000 221003                    LDX1    0,DU
        35 017575   100001 741100                    STX1    1,,PR1

  31420 35 017576   000000 471500                    LDP1    0,,PR0
        35 017577   100001 441100                    SXL1    1,,PR1

  31421 35 017600   000000 471500                    LDP1    0,,PR0
        35 017601   000442 473400 0                  LDP3    @REPORT$
PL6.E3A0      #001=Z8EM$SEMANTICS_DATA_DIV File=Z8EM.:Z8A6TSI                    SAT 08/09/97 12:08 Page:709
        35 017602   300000 474500                    LDP4    0,,PR3
        35 017603   400005 722100                    LXL2    5,,PR4
        35 017604   100002 442100                    SXL2    2,,PR1

  31422 35 017605   000000 471500                    LDP1    0,,PR0
        35 017606   100003 450100                    STZ     3,,PR1

  31423 35 017607   000000 471500                    LDP1    0,,PR0
        35 017610   000444 474400 0                  LDP4    REPORT_DNT$
        35 017611   400001 236100                    LDQ     1,,PR4
        35 017612   100004 756100                    STQ     4,,PR1

  31424 35 017613   000000 471500                    LDP1    0,,PR0
        35 017614   000024 236000 36                 LDQ     20
        35 017615   100005 756100                    STQ     5,,PR1

  31425 35 017616   000000 471500                    LDP1    0,,PR0
        35 017617   000024 236000 36                 LDQ     20
        35 017620   100007 756100                    STQ     7,,PR1

  31426 35 017621   000000 471500                    LDP1    0,,PR0
        35 017622   100010 741100                    STX1    8,,PR1

  31427 35 017623   000000 471500                    LDP1    0,,PR0
        35 017624   777777 222003                    LDX2    -1,DU
        35 017625   100010 442100                    SXL2    8,,PR1

  31431 35 017626   000000 471500                    LDP1    0,,PR0
        35 017627   000024 236000 36                 LDQ     20
        35 017630   100012 756100                    STQ     10,,PR1

  31434 35 017631   000000 471500                    LDP1    0,,PR0
        35 017632   000057 236000 xsym               LDQ     O1COM+47
        35 017633   100011 756100                    STQ     9,,PR1

  31435 35 017634   000057 236000 xsym               LDQ     O1COM+47
        35 017635   000024 116000 36                 CMPQ    20
PL6.E3A0      #001=Z8EM$SEMANTICS_DATA_DIV File=Z8EM.:Z8A6TSI                    SAT 08/09/97 12:08 Page:710
        35 017636   017662 600000 35                 TZE     s:31470

  31439 35 017637   000057 471400 xsym               LDP1    O1COM+47
        35 017640   100001 475500                    LDP5    1,,PR1
        35 017641   500012 236100                    LDQ     10,,PR5
        35 017642   000024 116000 36                 CMPQ    20
        35 017643   017653 601000 35                 TNZ     s:31446

  31441 35 017644   000000 236100                    LDQ     0,,PR0
        35 017645   500011 756100                    STQ     9,,PR5

  31442 35 017646   000057 471400 xsym               LDP1    O1COM+47
        35 017647   100001 475500                    LDP5    1,,PR1
        35 017650   000000 236100                    LDQ     0,,PR0
        35 017651   500012 756100                    STQ     10,,PR5

  31443 35 017652   017662 710000 35                 TRA     s:31470

  31446 35 017653   500012 476500                    LDP6    10,,PR5
        35 017654   000000 236100                    LDQ     0,,PR0
        35 017655   600012 756100                    STQ     10,,PR6

  31447 35 017656   000057 471400 xsym               LDP1    O1COM+47
        35 017657   100001 475500                    LDP5    1,,PR1
        35 017660   000000 236100                    LDQ     0,,PR0
        35 017661   500012 756100                    STQ     10,,PR5

  31470 35 017662   000000 471500                    LDP1    0,,PR0
        35 017663   000010 223003                    LDX3    8,DU
        35 017664   100002 743100                    STX3    2,,PR1

  31475 35 017665   000000 471500                    LDP1    0,,PR0
        35 017666   000444 236000 0                  LDQ     REPORT_DNT$
        35 017667   100006 756100                    STQ     6,,PR1

  31540 35 017670   000000 471500                    LDP1    0,,PR0
        35 017671   100003 236100                    LDQ     3,,PR1
PL6.E3A0      #001=Z8EM$SEMANTICS_DATA_DIV File=Z8EM.:Z8A6TSI                    SAT 08/09/97 12:08 Page:711
        35 017672   000202 376000 36                 ANQ     130
        35 017673   000003 276007                    ORQ     3,DL
        35 017674   100003 756100                    STQ     3,,PR1

     3199    31561
     3200    31562    2     REPORT_DNT$ -> DNT.ST$ = RD$$;

  31562 35 017675   000000 236100                    LDQ     0,,PR0
        35 017676   400001 756100                    STQ     1,,PR4

     3201    31563
     3202    31564
     3203    31565          %NEW_QLT (@POINTER   = RD$$ -> RD.QLT$,
     3204    31566                    @ST$       = RD$$,
     3205    31567                    @DNT$      = REPORT_DNT$,
     3206    31568                    @LEVEL#    = 0);

  31573 35 017677   000002 236000 11                 LDQ     QLT_+2
        35 017700   000006 036007                    ADLQ    6,DL
        35 017701   000003 116000 11                 CMPQ    QLT_+3
        35 017702   017713 602000 35                 TNC     s:31575

  31574 35 017703   000103 236000 36                 LDQ     67
        35 017704   001012 756000 0                  STQ     PROC$+2
        35 017705   001012 631400 0                  EPPR1   PROC$+2
        35 017706   001013 451400 0                  STP1    PROC$+3
        35 017707   001013 630400 0                  EPPR0   PROC$+3
        35 017710   000036 631400 36                 EPPR1   30
        35 017711   000000 701000 xent               TSX1    Z8AR$RESERVER
        35 017712   000000 011000                    NOP     0

  31575 35 017713   000443 470400 0                  LDP0    @RD$$
        35 017714   000000 471500                    LDP1    0,,PR0
        35 017715   000002 236000 11                 LDQ     QLT_+2
        35 017716   000022 736000                    QLS     18
        35 017717   000001 036000 11                 ADLQ    QLT_+1
        35 017720   100007 756100                    STQ     7,,PR1
PL6.E3A0      #001=Z8EM$SEMANTICS_DATA_DIV File=Z8EM.:Z8A6TSI                    SAT 08/09/97 12:08 Page:712

  31576 35 017721   000002 235000 11                 LDA     QLT_+2
        35 017722   000006 035007                    ADLA    6,DL
        35 017723   000002 755000 11                 STA     QLT_+2

  31577 35 017724   000000 471500                    LDP1    0,,PR0
        35 017725   100007 473500                    LDP3    7,,PR1
        35 017726   001053 220003                    LDX0    555,DU
        35 017727   300000 740100                    STX0    0,,PR3

  31580 35 017730   000000 471500                    LDP1    0,,PR0
        35 017731   100007 473500                    LDP3    7,,PR1
        35 017732   000024 236000 36                 LDQ     20
        35 017733   300001 756100                    STQ     1,,PR3

  31581 35 017734   000000 471500                    LDP1    0,,PR0
        35 017735   100007 473500                    LDP3    7,,PR1
        35 017736   000024 236000 36                 LDQ     20
        35 017737   300002 756100                    STQ     2,,PR3

  31582 35 017740   000000 471500                    LDP1    0,,PR0
        35 017741   100007 473500                    LDP3    7,,PR1
        35 017742   000024 236000 36                 LDQ     20
        35 017743   300003 756100                    STQ     3,,PR3

  31583 35 017744   000000 471500                    LDP1    0,,PR0
        35 017745   100007 473500                    LDP3    7,,PR1
        35 017746   000000 236100                    LDQ     0,,PR0
        35 017747   300004 756100                    STQ     4,,PR3

  31584 35 017750   000000 471500                    LDP1    0,,PR0
        35 017751   100007 473500                    LDP3    7,,PR1
        35 017752   000444 236000 0                  LDQ     REPORT_DNT$
        35 017753   300005 756100                    STQ     5,,PR3

  31585 35 017754   000000 471500                    LDP1    0,,PR0
        35 017755   100007 473500                    LDP3    7,,PR1
PL6.E3A0      #001=Z8EM$SEMANTICS_DATA_DIV File=Z8EM.:Z8A6TSI                    SAT 08/09/97 12:08 Page:713
        35 017756   000000 236003                    LDQ     0,DU
        35 017757   300000 552104                    STBQ    0,'04'O,PR3

  31586 35 017760   000000 471500                    LDP1    0,,PR0
        35 017761   100007 473500                    LDP3    7,,PR1
        35 017762   300000 552110                    STBQ    0,'10'O,PR3

  31587 35 017763   000000 471500                    LDP1    0,,PR0
        35 017764   100007 473500                    LDP3    7,,PR1
        35 017765   000104 236000 36                 LDQ     68
        35 017766   300000 356100                    ANSQ    0,,PR3

  31588 35 017767   000000 471500                    LDP1    0,,PR0
        35 017770   100007 473500                    LDP3    7,,PR1
        35 017771   000105 236000 36                 LDQ     69
        35 017772   300000 356100                    ANSQ    0,,PR3

  31589 35 017773   000000 471500                    LDP1    0,,PR0
        35 017774   100007 473500                    LDP3    7,,PR1
        35 017775   000106 236000 36                 LDQ     70
        35 017776   300000 356100                    ANSQ    0,,PR3

  31590 35 017777   000000 471500                    LDP1    0,,PR0
        35 020000   100007 473500                    LDP3    7,,PR1
        35 020001   000107 236000 36                 LDQ     71
        35 020002   300000 356100                    ANSQ    0,,PR3

     3207    31593
     3208    31594          %ADD_XREF (SYM = RD$$,
     3209    31595                     ISN = REPORT$ -> LX_TERMINAL.LINE,
     3210    31596                     TYPE = %XREF_DCL);

  31598 35 020003   000055 234000 xsym               SZN     COMCOM+45
        35 020004   020044 605000 35                 TPL     s:31694

  31602 35 020005   000002 236000 24                 LDQ     XREF_+2
        35 020006   000002 036007                    ADLQ    2,DL
PL6.E3A0      #001=Z8EM$SEMANTICS_DATA_DIV File=Z8EM.:Z8A6TSI                    SAT 08/09/97 12:08 Page:714
        35 020007   000003 116000 24                 CMPQ    XREF_+3
        35 020010   020021 602000 35                 TNC     s:31604

  31603 35 020011   000110 236000 36                 LDQ     72
        35 020012   001012 756000 0                  STQ     PROC$+2
        35 020013   001012 631400 0                  EPPR1   PROC$+2
        35 020014   001013 451400 0                  STP1    PROC$+3
        35 020015   001013 630400 0                  EPPR0   PROC$+3
        35 020016   000036 631400 36                 EPPR1   30
        35 020017   000000 701000 xent               TSX1    Z8AR$RESERVER
        35 020020   000000 011000                    NOP     0

  31604 35 020021   000002 236000 24                 LDQ     XREF_+2
        35 020022   000022 736000                    QLS     18
        35 020023   000001 036000 24                 ADLQ    XREF_+1
        35 020024   000000 756000 23                 STQ     XREF$

  31605 35 020025   000002 235000 24                 LDA     XREF_+2
        35 020026   000002 035007                    ADLA    2,DL
        35 020027   000002 755000 24                 STA     XREF_+2

  31606 35 020030   000004 220003                    LDX0    4,DU
        35 020031   000000 470400 23                 LDP0    XREF$
        35 020032   000000 740100                    STX0    0,,PR0

  31609 35 020033   000442 470400 0                  LDP0    @REPORT$
        35 020034   000000 471500                    LDP1    0,,PR0
        35 020035   100005 721100                    LXL1    5,,PR1
        35 020036   000000 473400 23                 LDP3    XREF$
        35 020037   300000 441100                    SXL1    0,,PR3

  31610 35 020040   000443 471400 0                  LDP1    @RD$$
        35 020041   100000 236100                    LDQ     0,,PR1
        35 020042   000000 473400 23                 LDP3    XREF$
        35 020043   300001 756100                    STQ     1,,PR3

     3211    31614
PL6.E3A0      #001=Z8EM$SEMANTICS_DATA_DIV File=Z8EM.:Z8A6TSI                    SAT 08/09/97 12:08 Page:715
     3212    31615          %NEW_CONTROL_NAME_LTS (@POINTER = LTS$$);

  31694 35 020044   000002 236000 8                  LDQ     LTS_+2
        35 020045   000017 036007                    ADLQ    15,DL
        35 020046   000003 116000 8                  CMPQ    LTS_+3
        35 020047   020060 604000 35                 TMI     s:31696

  31695 35 020050   000211 236000 36                 LDQ     137
        35 020051   001012 756000 0                  STQ     PROC$+2
        35 020052   001012 630400 0                  EPPR0   PROC$+2
        35 020053   001013 450400 0                  STP0    PROC$+3
        35 020054   001013 630400 0                  EPPR0   PROC$+3
        35 020055   000036 631400 36                 EPPR1   30
        35 020056   000000 701000 xent               TSX1    Z8AR$RESERVER
        35 020057   000000 011000                    NOP     0

  31696 35 020060   000002 236000 8                  LDQ     LTS_+2
        35 020061   000022 736000                    QLS     18
        35 020062   000001 036000 8                  ADLQ    LTS_+1
        35 020063   000445 756000 0                  STQ     LTS$$

  31697 35 020064   000017 236007                    LDQ     15,DL
        35 020065   000002 056000 8                  ASQ     LTS_+2

  31698 35 020066   001077 220003                    LDX0    575,DU
        35 020067   000445 470400 0                  LDP0    LTS$$
        35 020070   000000 740100                    STX0    0,,PR0

  31704 35 020071   000000 740100                    STX0    0,,PR0

  31705 35 020072   000024 236000 36                 LDQ     20
        35 020073   000001 756100                    STQ     1,,PR0

  31706 35 020074   000024 236000 36                 LDQ     20
        35 020075   000013 756100                    STQ     11,,PR0

  31707 35 020076   000024 236000 36                 LDQ     20
PL6.E3A0      #001=Z8EM$SEMANTICS_DATA_DIV File=Z8EM.:Z8A6TSI                    SAT 08/09/97 12:08 Page:716
        35 020077   000014 756100                    STQ     12,,PR0

  31708 35 020100   000024 236000 36                 LDQ     20
        35 020101   000015 756100                    STQ     13,,PR0

  31709 35 020102   000024 236000 36                 LDQ     20
        35 020103   000002 756100                    STQ     2,,PR0

  31710 35 020104   000024 236000 36                 LDQ     20
        35 020105   000003 756100                    STQ     3,,PR0

  31711 35 020106   000024 236000 36                 LDQ     20
        35 020107   000004 756100                    STQ     4,,PR0

  31712 35 020110   000024 236000 36                 LDQ     20
        35 020111   000005 756100                    STQ     5,,PR0

  31713 35 020112   000024 236000 36                 LDQ     20
        35 020113   000006 756100                    STQ     6,,PR0

  31714 35 020114   000024 236000 36                 LDQ     20
        35 020115   000011 756100                    STQ     9,,PR0

  31715 35 020116   000024 236000 36                 LDQ     20
        35 020117   000012 756100                    STQ     10,,PR0

  31716 35 020120   000007 450100                    STZ     7,,PR0

  31717 35 020121   000016 450100                    STZ     14,,PR0

  31718 35 020122   000000 221003                    LDX1    0,DU
        35 020123   000000 441100                    SXL1    0,,PR0

  31719 35 020124   000024 236000 36                 LDQ     20
        35 020125   000010 756100                    STQ     8,,PR0

     3213    31722
PL6.E3A0      #001=Z8EM$SEMANTICS_DATA_DIV File=Z8EM.:Z8A6TSI                    SAT 08/09/97 12:08 Page:717
     3214    31723          %NEW_REPORT_LTS (@POINTER = RD$$ -> RD.LTS$,
     3215    31724                           @ST$     = RD$$,
     3216    31725                           @COL_NO# = REPORT$ -> LX_TERMINAL.COLUMN,
     3217    31726                           @CONTROL_FINAL$ = LTS$$,
     3218    31727                           @FILE$   = O1COM.CURRENT_FILE_LTS$ -> FILE_LTS.ST$);

  31806 35 020126   000002 236000 8                  LDQ     LTS_+2
        35 020127   000045 036007                    ADLQ    37,DL
        35 020130   000003 116000 8                  CMPQ    LTS_+3
        35 020131   020142 604000 35                 TMI     s:31808

  31807 35 020132   000211 236000 36                 LDQ     137
        35 020133   001012 756000 0                  STQ     PROC$+2
        35 020134   001012 631400 0                  EPPR1   PROC$+2
        35 020135   001013 451400 0                  STP1    PROC$+3
        35 020136   001013 630400 0                  EPPR0   PROC$+3
        35 020137   000036 631400 36                 EPPR1   30
        35 020140   000000 701000 xent               TSX1    Z8AR$RESERVER
        35 020141   000000 011000                    NOP     0

  31808 35 020142   000443 470400 0                  LDP0    @RD$$
        35 020143   000000 471500                    LDP1    0,,PR0
        35 020144   000002 236000 8                  LDQ     LTS_+2
        35 020145   000022 736000                    QLS     18
        35 020146   000001 036000 8                  ADLQ    LTS_+1
        35 020147   100005 756100                    STQ     5,,PR1

  31809 35 020150   000045 236007                    LDQ     37,DL
        35 020151   000002 056000 8                  ASQ     LTS_+2

  31810 35 020152   000000 471500                    LDP1    0,,PR0
        35 020153   100005 473500                    LDP3    5,,PR1
        35 020154   001126 220003                    LDX0    598,DU
        35 020155   300000 740100                    STX0    0,,PR3

  31816 35 020156   000000 471500                    LDP1    0,,PR0
        35 020157   100005 473500                    LDP3    5,,PR1
PL6.E3A0      #001=Z8EM$SEMANTICS_DATA_DIV File=Z8EM.:Z8A6TSI                    SAT 08/09/97 12:08 Page:718
        35 020160   300000 740100                    STX0    0,,PR3

  31817 35 020161   000000 471500                    LDP1    0,,PR0
        35 020162   100005 473500                    LDP3    5,,PR1
        35 020163   000000 236100                    LDQ     0,,PR0
        35 020164   300001 756100                    STQ     1,,PR3

  31818 35 020165   000000 471500                    LDP1    0,,PR0
        35 020166   100005 473500                    LDP3    5,,PR1
        35 020167   000045 474400 xsym               LDP4    O1COM+37
        35 020170   400001 236100                    LDQ     1,,PR4
        35 020171   300002 756100                    STQ     2,,PR3

  31819 35 020172   000000 471500                    LDP1    0,,PR0
        35 020173   100005 473500                    LDP3    5,,PR1
        35 020174   300003 450100                    STZ     3,,PR3

  31820 35 020175   000000 471500                    LDP1    0,,PR0
        35 020176   100005 473500                    LDP3    5,,PR1
        35 020177   000024 236000 36                 LDQ     20
        35 020200   300005 756100                    STQ     5,,PR3

  31821 35 020201   000000 471500                    LDP1    0,,PR0
        35 020202   100005 473500                    LDP3    5,,PR1
        35 020203   000445 236000 0                  LDQ     LTS$$
        35 020204   300006 756100                    STQ     6,,PR3

  31822 35 020205   000000 471500                    LDP1    0,,PR0
        35 020206   100005 473500                    LDP3    5,,PR1
        35 020207   000024 236000 36                 LDQ     20
        35 020210   300007 756100                    STQ     7,,PR3

  31823 35 020211   000000 471500                    LDP1    0,,PR0
        35 020212   100005 473500                    LDP3    5,,PR1
        35 020213   000024 236000 36                 LDQ     20
        35 020214   300010 756100                    STQ     8,,PR3

PL6.E3A0      #001=Z8EM$SEMANTICS_DATA_DIV File=Z8EM.:Z8A6TSI                    SAT 08/09/97 12:08 Page:719
  31824 35 020215   000000 471500                    LDP1    0,,PR0
        35 020216   100005 473500                    LDP3    5,,PR1
        35 020217   000024 236000 36                 LDQ     20
        35 020220   300035 756100                    STQ     29,,PR3

  31825 35 020221   000000 471500                    LDP1    0,,PR0
        35 020222   100005 473500                    LDP3    5,,PR1
        35 020223   300011 450100                    STZ     9,,PR3

  31826 35 020224   000000 471500                    LDP1    0,,PR0
        35 020225   100005 473500                    LDP3    5,,PR1
        35 020226   300012 450100                    STZ     10,,PR3

  31827 35 020227   000000 471500                    LDP1    0,,PR0
        35 020230   100005 473500                    LDP3    5,,PR1
        35 020231   300013 450100                    STZ     11,,PR3

  31828 35 020232   000000 471500                    LDP1    0,,PR0
        35 020233   100005 473500                    LDP3    5,,PR1
        35 020234   300014 450100                    STZ     12,,PR3

  31829 35 020235   000000 471500                    LDP1    0,,PR0
        35 020236   100005 473500                    LDP3    5,,PR1
        35 020237   300015 450100                    STZ     13,,PR3

  31830 35 020240   000000 471500                    LDP1    0,,PR0
        35 020241   100005 473500                    LDP3    5,,PR1
        35 020242   300016 450100                    STZ     14,,PR3

  31831 35 020243   000000 471500                    LDP1    0,,PR0
        35 020244   100005 473500                    LDP3    5,,PR1
        35 020245   300037 450100                    STZ     31,,PR3

  31832 35 020246   000000 471500                    LDP1    0,,PR0
        35 020247   100005 473500                    LDP3    5,,PR1
        35 020250   300041 450100                    STZ     33,,PR3

PL6.E3A0      #001=Z8EM$SEMANTICS_DATA_DIV File=Z8EM.:Z8A6TSI                    SAT 08/09/97 12:08 Page:720
  31833 35 020251   000000 471500                    LDP1    0,,PR0
        35 020252   100005 473500                    LDP3    5,,PR1
        35 020253   300042 450100                    STZ     34,,PR3

  31834 35 020254   000000 471500                    LDP1    0,,PR0
        35 020255   100005 473500                    LDP3    5,,PR1
        35 020256   000024 236000 36                 LDQ     20
        35 020257   300017 756100                    STQ     15,,PR3

  31835 35 020260   000000 471500                    LDP1    0,,PR0
        35 020261   100005 473500                    LDP3    5,,PR1
        35 020262   000024 236000 36                 LDQ     20
        35 020263   300020 756100                    STQ     16,,PR3

  31836 35 020264   000000 471500                    LDP1    0,,PR0
        35 020265   100005 473500                    LDP3    5,,PR1
        35 020266   000024 236000 36                 LDQ     20
        35 020267   300034 756100                    STQ     28,,PR3

  31837 35 020270   000000 471500                    LDP1    0,,PR0
        35 020271   100005 473500                    LDP3    5,,PR1
        35 020272   000442 474400 0                  LDP4    @REPORT$
        35 020273   400000 475500                    LDP5    0,,PR4
        35 020274   500006 235100                    LDA     6,,PR5
        35 020275   300036 755100                    STA     30,,PR3

  31838 35 020276   000000 471500                    LDP1    0,,PR0
        35 020277   100005 473500                    LDP3    5,,PR1
        35 020300   300044 756100                    STQ     36,,PR3

  31839 35 020301   000000 471500                    LDP1    0,,PR0
        35 020302   100005 473500                    LDP3    5,,PR1
        35 020303   300021 756100                    STQ     17,,PR3

  31840 35 020304   000000 471500                    LDP1    0,,PR0
        35 020305   100005 473500                    LDP3    5,,PR1
        35 020306   000024 236000 36                 LDQ     20
PL6.E3A0      #001=Z8EM$SEMANTICS_DATA_DIV File=Z8EM.:Z8A6TSI                    SAT 08/09/97 12:08 Page:721
        35 020307   300022 756100                    STQ     18,,PR3

  31841 35 020310   000000 471500                    LDP1    0,,PR0
        35 020311   100005 473500                    LDP3    5,,PR1
        35 020312   000024 236000 36                 LDQ     20
        35 020313   300024 756100                    STQ     20,,PR3

  31842 35 020314   000000 471500                    LDP1    0,,PR0
        35 020315   100005 473500                    LDP3    5,,PR1
        35 020316   000024 236000 36                 LDQ     20
        35 020317   300032 756100                    STQ     26,,PR3

  31843 35 020320   000000 471500                    LDP1    0,,PR0
        35 020321   100005 473500                    LDP3    5,,PR1
        35 020322   300023 756100                    STQ     19,,PR3

  31844 35 020323   000000 471500                    LDP1    0,,PR0
        35 020324   100005 473500                    LDP3    5,,PR1
        35 020325   000024 236000 36                 LDQ     20
        35 020326   300033 756100                    STQ     27,,PR3

  31845 35 020327   000000 471500                    LDP1    0,,PR0
        35 020330   100005 473500                    LDP3    5,,PR1
        35 020331   300027 756100                    STQ     23,,PR3

  31846 35 020332   000000 471500                    LDP1    0,,PR0
        35 020333   100005 473500                    LDP3    5,,PR1
        35 020334   300026 756100                    STQ     22,,PR3

  31847 35 020335   000000 471500                    LDP1    0,,PR0
        35 020336   100005 473500                    LDP3    5,,PR1
        35 020337   300030 756100                    STQ     24,,PR3

  31848 35 020340   000000 471500                    LDP1    0,,PR0
        35 020341   100005 473500                    LDP3    5,,PR1
        35 020342   300031 756100                    STQ     25,,PR3

PL6.E3A0      #001=Z8EM$SEMANTICS_DATA_DIV File=Z8EM.:Z8A6TSI                    SAT 08/09/97 12:08 Page:722
  31849 35 020343   000000 471500                    LDP1    0,,PR0
        35 020344   100005 473500                    LDP3    5,,PR1
        35 020345   300025 756100                    STQ     21,,PR3

  31850 35 020346   000000 471500                    LDP1    0,,PR0
        35 020347   100005 473500                    LDP3    5,,PR1
        35 020350   300040 756100                    STQ     32,,PR3

  31851 35 020351   000000 471500                    LDP1    0,,PR0
        35 020352   100005 473500                    LDP3    5,,PR1
        35 020353   300043 756100                    STQ     35,,PR3

     3219    31854
     3220    31855
     3221    31856    2     END NEW_REPORT;

  31856 35 020354   000441 221200 0                  LDX1  ! ARRAY$+1
        35 020355   000001 702211                    TSX2  ! 1,X1

     3222    31857          %EJECT;
PL6.E3A0      #001=Z8EM$SEMANTICS_DATA_DIV File=Z8EM.:Z8A6TSI                    SAT 08/09/97 12:08 Page:723
     3223    31858        /*==========*/
     3224    31859    1     ORG_CHECKS: PROC (ORG$, ORGANIZATION);

  31859 35 020356   000446 741200 0     ORG_CHECKS   STX1  ! LTS$$+1

     3225    31860        /*==========*/
     3226    31861
     3227    31862    2        DCL ORG$          PTR;
     3228    31863    2        DCL ORGANIZATION  SBIN;
     3229    31864    2        DCL FILE$         PTR;
     3230    31865
     3231    31866             /* Checks checked in this check routine */
     3232    31867             /*
     3233    31868                1. Organization not SEQUENTIAL and:
     3234    31869                   a. PADDING CHARACTER is used.
     3235    31870                   b. RECORD DELIMITER is used.
     3236    31871                   c. LINAGE is used.
     3237    31872                2. Organization not RELATIVE and:
     3238    31873                   a. RELATIVE KEY clause is specified.
     3239    31874                3. Organization not INDEXED and:
     3240    31875                   a. ALTERNATE KEY clause used.
     3241    31876                4. Organization not INDEXED or KEYED and
     3242    31877                   a. RECORD KEY is used.
     3243    31878                                                         */
     3244    31879
     3245    31880    2        FILE$ = O1COM.CURRENT_FILE_LTS$;

  31880 35 020357   000045 236000 xsym               LDQ     O1COM+37
        35 020360   000451 756000 0                  STQ     FILE$

     3246    31881
     3247    31882    3        DO CASE (ORGANIZATION);

  31882 35 020361   000450 470400 0                  LDP0    @ORGANIZATION
        35 020362   000000 235100                    LDA     0,,PR0
        35 020363   000024 115007                    CMPA    20,DL
        35 020364   020366 602005 35                 TNC     s:31882+5,AL
PL6.E3A0      #001=Z8EM$SEMANTICS_DATA_DIV File=Z8EM.:Z8A6TSI                    SAT 08/09/97 12:08 Page:724
        35 020365   021023 710000 35                 TRA     s:32017
        35 020366   021023 710000 35                 TRA     s:32017
        35 020367   020657 710000 35                 TRA     s:31979
        35 020370   020412 710000 35                 TRA     s:31892
        35 020371   020621 710000 35                 TRA     s:31956
        35 020372   020501 710000 35                 TRA     s:31919
        35 020373   020657 710000 35                 TRA     s:31979
        35 020374   020657 710000 35                 TRA     s:31979
        35 020375   020657 710000 35                 TRA     s:31979
        35 020376   020657 710000 35                 TRA     s:31979
        35 020377   020657 710000 35                 TRA     s:31979
        35 020400   020412 710000 35                 TRA     s:31892
        35 020401   020621 710000 35                 TRA     s:31956
        35 020402   020657 710000 35                 TRA     s:31979
        35 020403   020657 710000 35                 TRA     s:31979
        35 020404   020621 710000 35                 TRA     s:31956
        35 020405   020657 710000 35                 TRA     s:31979
        35 020406   020657 710000 35                 TRA     s:31979
        35 020407   020412 710000 35                 TRA     s:31892
        35 020410   020657 710000 35                 TRA     s:31979
        35 020411   020621 710000 35                 TRA     s:31956

     3248    31883
     3249    31884    3          CASE (

     3250    31885                     %SET_OF_RELATIVE_ORGANIZATION;
     3251    31889    3               );
     3252    31890                 /* Check for PADDING, DELIMITER, LINAGE, RECORD KEY
     3253    31891                    and ALTERNATE RECORD KEY's                       */
     3254    31892    3            CALL CHECK_FOR_PAD_DELIM_LINAGE (ORG$);

  31892 35 020412   000447 236000 0                  LDQ     @ORG$
        35 020413   000156 756000 0                  STQ     @ORG$
        35 020414   003410 701000 35                 TSX1    CHECK_FOR_PAD_DELIM_LINAGE
        35 020415   000000 011000                    NOP     0

     3255    31893
PL6.E3A0      #001=Z8EM$SEMANTICS_DATA_DIV File=Z8EM.:Z8A6TSI                    SAT 08/09/97 12:08 Page:725
     3256    31894    3            IF FILE$ -> FILE_LTS.ALT_RECORD_KEY$ ~= ADDR(NIL) THEN

  31894 35 020416   000451 470400 0                  LDP0    FILE$
        35 020417   000016 236100                    LDQ     14,,PR0
        35 020420   000024 116000 36                 CMPQ    20
        35 020421   020447 600000 35                 TZE     s:31903

     3257    31895    4              DO;

     3258    31896    4                CALL Z8AE$ERROR (%E$WRONG_ORG_WITH_KEY,

  31896 35 020422   000447 471400 0                  LDP1    @ORG$
        35 020423   100000 473500                    LDP3    0,,PR1
        35 020424   000320 236000 36                 LDQ     208
        35 020425   001015 756000 0                  STQ     PROC$+5
        35 020426   300006 634500                    EPPR4   6,,PR3
        35 020427   001014 454400 0                  STP4    PROC$+4
        35 020430   300005 635500                    EPPR5   5,,PR3
        35 020431   001013 455400 0                  STP5    PROC$+3
        35 020432   000321 236000 36                 LDQ     209
        35 020433   001012 756000 0                  STQ     PROC$+2
        35 020434   001012 630400 0                  EPPR0   PROC$+2
        35 020435   000005 631400 36                 EPPR1   5
        35 020436   000000 701000 xent               TSX1    Z8AE$ERROR
        35 020437   000000 011000                    NOP     0

     3259    31897    4                                 ORG$ -> LX_ITEM.LINE,
     3260    31898    4                                 ORG$ -> LX_ITEM.COLUMN,
     3261    31899    4                                 DNT$_FROM_RSWNO (%RSV_WRD_ALTERNATE));
     3262    31900    4                CALL Z8ED$DISPOSE_ABSSYN_TREE (FILE$ -> FILE_LTS.ALT_RECORD_KEY$);

  31900 35 020440   000451 236000 0                  LDQ     FILE$
        35 020441   000016 036003                    ADLQ    14,DU
        35 020442   001012 756000 0                  STQ     PROC$+2
        35 020443   001012 630400 0                  EPPR0   PROC$+2
        35 020444   000036 631400 36                 EPPR1   30
        35 020445   000000 701000 xent               TSX1    Z8ED$DISPOSE_ABSSYN_TREE
PL6.E3A0      #001=Z8EM$SEMANTICS_DATA_DIV File=Z8EM.:Z8A6TSI                    SAT 08/09/97 12:08 Page:726
        35 020446   000000 011000                    NOP     0

     3263    31901    4              END;

     3264    31902
     3265    31903    3            IF FILE$ -> FILE_LTS.RECORD_KEY$ ~= ADDR(NIL) THEN

  31903 35 020447   000451 470400 0                  LDP0    FILE$
        35 020450   000015 236100                    LDQ     13,,PR0
        35 020451   000024 116000 36                 CMPQ    20
        35 020452   021023 600000 35                 TZE     s:32017

     3266    31904    4              DO;

     3267    31905    4                CALL Z8AE$ERROR (%E$WRONG_ORG_WITH_KEY,

  31905 35 020453   000447 471400 0                  LDP1    @ORG$
        35 020454   100000 473500                    LDP3    0,,PR1
        35 020455   000322 236000 36                 LDQ     210
        35 020456   001015 756000 0                  STQ     PROC$+5
        35 020457   300006 634500                    EPPR4   6,,PR3
        35 020460   001014 454400 0                  STP4    PROC$+4
        35 020461   300005 635500                    EPPR5   5,,PR3
        35 020462   001013 455400 0                  STP5    PROC$+3
        35 020463   000321 236000 36                 LDQ     209
        35 020464   001012 756000 0                  STQ     PROC$+2
        35 020465   001012 630400 0                  EPPR0   PROC$+2
        35 020466   000005 631400 36                 EPPR1   5
        35 020467   000000 701000 xent               TSX1    Z8AE$ERROR
        35 020470   000000 011000                    NOP     0

     3268    31906    4                                 ORG$ -> LX_ITEM.LINE,
     3269    31907    4                                 ORG$ -> LX_ITEM.COLUMN,
     3270    31908    4                                 DNT$_FROM_RSWNO (%RSV_WRD_RECORD));
     3271    31909    4                CALL Z8ED$DISPOSE_ABSSYN_TREE (FILE$ -> FILE_LTS.RECORD_KEY$);

  31909 35 020471   000451 236000 0                  LDQ     FILE$
PL6.E3A0      #001=Z8EM$SEMANTICS_DATA_DIV File=Z8EM.:Z8A6TSI                    SAT 08/09/97 12:08 Page:727
        35 020472   000015 036003                    ADLQ    13,DU
        35 020473   001012 756000 0                  STQ     PROC$+2
        35 020474   001012 630400 0                  EPPR0   PROC$+2
        35 020475   000036 631400 36                 EPPR1   30
        35 020476   000000 701000 xent               TSX1    Z8ED$DISPOSE_ABSSYN_TREE
        35 020477   000000 011000                    NOP     0

     3272    31910    4              END;

  31910 35 020500   021023 710000 35                 TRA     s:32017

     3273    31911
     3274    31912    3          CASE (

     3275    31913                     %SET_OF_KEYED_ORGANIZATION;
     3276    31916    3               );
     3277    31917                 /* Checks for PADDING, DELIMITER, LINAGE, ALT KEYS */
     3278    31918
     3279    31919    3            CALL CHECK_FOR_PAD_DELIM_LINAGE (ORG$);

  31919 35 020501   000447 236000 0                  LDQ     @ORG$
        35 020502   000156 756000 0                  STQ     @ORG$
        35 020503   003410 701000 35                 TSX1    CHECK_FOR_PAD_DELIM_LINAGE
        35 020504   000000 011000                    NOP     0

     3280    31920
     3281    31921    3            IF FILE$ -> FILE_LTS.ALT_RECORD_KEY$ ~= ADDR(NIL) THEN

  31921 35 020505   000451 470400 0                  LDP0    FILE$
        35 020506   000016 236100                    LDQ     14,,PR0
        35 020507   000024 116000 36                 CMPQ    20
        35 020510   020536 600000 35                 TZE     s:31930

     3282    31922    4              DO;

     3283    31923    4                CALL Z8AE$ERROR (%E$WRONG_ORG_WITH_KEY,

PL6.E3A0      #001=Z8EM$SEMANTICS_DATA_DIV File=Z8EM.:Z8A6TSI                    SAT 08/09/97 12:08 Page:728
  31923 35 020511   000447 471400 0                  LDP1    @ORG$
        35 020512   100000 473500                    LDP3    0,,PR1
        35 020513   000320 236000 36                 LDQ     208
        35 020514   001015 756000 0                  STQ     PROC$+5
        35 020515   300006 634500                    EPPR4   6,,PR3
        35 020516   001014 454400 0                  STP4    PROC$+4
        35 020517   300005 635500                    EPPR5   5,,PR3
        35 020520   001013 455400 0                  STP5    PROC$+3
        35 020521   000321 236000 36                 LDQ     209
        35 020522   001012 756000 0                  STQ     PROC$+2
        35 020523   001012 630400 0                  EPPR0   PROC$+2
        35 020524   000005 631400 36                 EPPR1   5
        35 020525   000000 701000 xent               TSX1    Z8AE$ERROR
        35 020526   000000 011000                    NOP     0

     3284    31924    4                                 ORG$ -> LX_ITEM.LINE,
     3285    31925    4                                 ORG$ -> LX_ITEM.COLUMN,
     3286    31926    4                                 DNT$_FROM_RSWNO (%RSV_WRD_ALTERNATE));
     3287    31927    4                CALL Z8ED$DISPOSE_ABSSYN_TREE (FILE$ -> FILE_LTS.ALT_RECORD_KEY$);

  31927 35 020527   000451 236000 0                  LDQ     FILE$
        35 020530   000016 036003                    ADLQ    14,DU
        35 020531   001012 756000 0                  STQ     PROC$+2
        35 020532   001012 630400 0                  EPPR0   PROC$+2
        35 020533   000036 631400 36                 EPPR1   30
        35 020534   000000 701000 xent               TSX1    Z8ED$DISPOSE_ABSSYN_TREE
        35 020535   000000 011000                    NOP     0

     3288    31928    4              END;

     3289    31929
     3290    31930    3            IF FILE$ -> FILE_LTS.RELATIVE_KEY$ ~= ADDR(NIL) THEN

  31930 35 020536   000451 470400 0                  LDP0    FILE$
        35 020537   000014 236100                    LDQ     12,,PR0
        35 020540   000024 116000 36                 CMPQ    20
        35 020541   020567 600000 35                 TZE     s:31939
PL6.E3A0      #001=Z8EM$SEMANTICS_DATA_DIV File=Z8EM.:Z8A6TSI                    SAT 08/09/97 12:08 Page:729

     3291    31931    4              DO;

     3292    31932    4                CALL Z8AE$ERROR (%E$WRONG_ORG_WITH_KEY,

  31932 35 020542   000447 471400 0                  LDP1    @ORG$
        35 020543   100000 473500                    LDP3    0,,PR1
        35 020544   000145 236000 36                 LDQ     101
        35 020545   001015 756000 0                  STQ     PROC$+5
        35 020546   300006 634500                    EPPR4   6,,PR3
        35 020547   001014 454400 0                  STP4    PROC$+4
        35 020550   300005 635500                    EPPR5   5,,PR3
        35 020551   001013 455400 0                  STP5    PROC$+3
        35 020552   000321 236000 36                 LDQ     209
        35 020553   001012 756000 0                  STQ     PROC$+2
        35 020554   001012 630400 0                  EPPR0   PROC$+2
        35 020555   000005 631400 36                 EPPR1   5
        35 020556   000000 701000 xent               TSX1    Z8AE$ERROR
        35 020557   000000 011000                    NOP     0

     3293    31933    4                                 ORG$ -> LX_ITEM.LINE,
     3294    31934    4                                 ORG$ -> LX_ITEM.COLUMN,
     3295    31935    4                                 DNT$_FROM_RSWNO (%RSV_WRD_RELATIVE));
     3296    31936    4                CALL Z8ED$DISPOSE_ABSSYN_TREE (FILE$ -> FILE_LTS.RELATIVE_KEY$);

  31936 35 020560   000451 236000 0                  LDQ     FILE$
        35 020561   000014 036003                    ADLQ    12,DU
        35 020562   001012 756000 0                  STQ     PROC$+2
        35 020563   001012 630400 0                  EPPR0   PROC$+2
        35 020564   000036 631400 36                 EPPR1   30
        35 020565   000000 701000 xent               TSX1    Z8ED$DISPOSE_ABSSYN_TREE
        35 020566   000000 011000                    NOP     0

     3297    31937    4              END;

     3298    31938
     3299    31939    3            IF FILE$ -> FILE_LTS.NOMINAL_KEY$ ~= ADDR(NIL) THEN
PL6.E3A0      #001=Z8EM$SEMANTICS_DATA_DIV File=Z8EM.:Z8A6TSI                    SAT 08/09/97 12:08 Page:730

  31939 35 020567   000451 470400 0                  LDP0    FILE$
        35 020570   000020 236100                    LDQ     16,,PR0
        35 020571   000024 116000 36                 CMPQ    20
        35 020572   021023 600000 35                 TZE     s:32017

     3300    31940    4              DO;

     3301    31941    4                CALL Z8AE$ERROR (%E$WRONG_ORG_WITH_KEY,

  31941 35 020573   000447 471400 0                  LDP1    @ORG$
        35 020574   100000 473500                    LDP3    0,,PR1
        35 020575   000323 236000 36                 LDQ     211
        35 020576   001015 756000 0                  STQ     PROC$+5
        35 020577   300006 634500                    EPPR4   6,,PR3
        35 020600   001014 454400 0                  STP4    PROC$+4
        35 020601   300005 635500                    EPPR5   5,,PR3
        35 020602   001013 455400 0                  STP5    PROC$+3
        35 020603   000321 236000 36                 LDQ     209
        35 020604   001012 756000 0                  STQ     PROC$+2
        35 020605   001012 630400 0                  EPPR0   PROC$+2
        35 020606   000005 631400 36                 EPPR1   5
        35 020607   000000 701000 xent               TSX1    Z8AE$ERROR
        35 020610   000000 011000                    NOP     0

     3302    31942    4                                 ORG$ -> LX_ITEM.LINE,
     3303    31943    4                                 ORG$ -> LX_ITEM.COLUMN,
     3304    31944    4                                 DNT$_FROM_RSWNO (%RSV_WRD_NOMINAL));
     3305    31945    4                CALL Z8ED$DISPOSE_ABSSYN_TREE (FILE$ -> FILE_LTS.NOMINAL_KEY$);

  31945 35 020611   000451 236000 0                  LDQ     FILE$
        35 020612   000020 036003                    ADLQ    16,DU
        35 020613   001012 756000 0                  STQ     PROC$+2
        35 020614   001012 630400 0                  EPPR0   PROC$+2
        35 020615   000036 631400 36                 EPPR1   30
        35 020616   000000 701000 xent               TSX1    Z8ED$DISPOSE_ABSSYN_TREE
        35 020617   000000 011000                    NOP     0
PL6.E3A0      #001=Z8EM$SEMANTICS_DATA_DIV File=Z8EM.:Z8A6TSI                    SAT 08/09/97 12:08 Page:731

     3306    31946    4              END;

  31946 35 020620   021023 710000 35                 TRA     s:32017

     3307    31947
     3308    31948    3          CASE (

     3309    31949                     %SET_OF_INDEXED_ORGANIZATION;
     3310    31953    3               );
     3311    31954                 /* Checks for PADDING, DELIMITER, LINAGE, RELATIVE KEYS */
     3312    31955
     3313    31956    3            CALL CHECK_FOR_PAD_DELIM_LINAGE (ORG$);

  31956 35 020621   000447 236000 0                  LDQ     @ORG$
        35 020622   000156 756000 0                  STQ     @ORG$
        35 020623   003410 701000 35                 TSX1    CHECK_FOR_PAD_DELIM_LINAGE
        35 020624   000000 011000                    NOP     0

     3314    31957
     3315    31958    3            IF FILE$ -> FILE_LTS.RELATIVE_KEY$ ~= ADDR(NIL) THEN

  31958 35 020625   000451 470400 0                  LDP0    FILE$
        35 020626   000014 236100                    LDQ     12,,PR0
        35 020627   000024 116000 36                 CMPQ    20
        35 020630   021023 600000 35                 TZE     s:32017

     3316    31959    4              DO;

     3317    31960    4                CALL Z8AE$ERROR (%E$WRONG_ORG_WITH_KEY,

  31960 35 020631   000447 471400 0                  LDP1    @ORG$
        35 020632   100000 473500                    LDP3    0,,PR1
        35 020633   000145 236000 36                 LDQ     101
        35 020634   001015 756000 0                  STQ     PROC$+5
        35 020635   300006 634500                    EPPR4   6,,PR3
        35 020636   001014 454400 0                  STP4    PROC$+4
PL6.E3A0      #001=Z8EM$SEMANTICS_DATA_DIV File=Z8EM.:Z8A6TSI                    SAT 08/09/97 12:08 Page:732
        35 020637   300005 635500                    EPPR5   5,,PR3
        35 020640   001013 455400 0                  STP5    PROC$+3
        35 020641   000321 236000 36                 LDQ     209
        35 020642   001012 756000 0                  STQ     PROC$+2
        35 020643   001012 630400 0                  EPPR0   PROC$+2
        35 020644   000005 631400 36                 EPPR1   5
        35 020645   000000 701000 xent               TSX1    Z8AE$ERROR
        35 020646   000000 011000                    NOP     0

     3318    31961    4                                 ORG$ -> LX_ITEM.LINE,
     3319    31962    4                                 ORG$ -> LX_ITEM.COLUMN,
     3320    31963    4                                 DNT$_FROM_RSWNO (%RSV_WRD_RELATIVE));
     3321    31964    4                CALL Z8ED$DISPOSE_ABSSYN_TREE (FILE$ -> FILE_LTS.RELATIVE_KEY$);

  31964 35 020647   000451 236000 0                  LDQ     FILE$
        35 020650   000014 036003                    ADLQ    12,DU
        35 020651   001012 756000 0                  STQ     PROC$+2
        35 020652   001012 630400 0                  EPPR0   PROC$+2
        35 020653   000036 631400 36                 EPPR1   30
        35 020654   000000 701000 xent               TSX1    Z8ED$DISPOSE_ABSSYN_TREE
        35 020655   000000 011000                    NOP     0

     3322    31965    4              END;

  31965 35 020656   021023 710000 35                 TRA     s:32017

     3323    31966
     3324    31967    3          CASE (

     3325    31968                     %SET_OF_SEQUENTIAL_ORGANIZATION;
     3326    31976    3                );
     3327    31977                 /* Checks for RELATIVE, ALTERNATE, and RECORD keys */
     3328    31978
     3329    31979    3            IF FILE$ -> FILE_LTS.RELATIVE_KEY$ ~= ADDR(NIL) THEN

  31979 35 020657   000451 471400 0                  LDP1    FILE$
        35 020660   100014 236100                    LDQ     12,,PR1
PL6.E3A0      #001=Z8EM$SEMANTICS_DATA_DIV File=Z8EM.:Z8A6TSI                    SAT 08/09/97 12:08 Page:733
        35 020661   000024 116000 36                 CMPQ    20
        35 020662   020710 600000 35                 TZE     s:31988

     3330    31980    4              DO;

     3331    31981    4                CALL Z8AE$ERROR (%E$WRONG_ORG_WITH_KEY,

  31981 35 020663   000447 473400 0                  LDP3    @ORG$
        35 020664   300000 474500                    LDP4    0,,PR3
        35 020665   000145 236000 36                 LDQ     101
        35 020666   001015 756000 0                  STQ     PROC$+5
        35 020667   400006 635500                    EPPR5   6,,PR4
        35 020670   001014 455400 0                  STP5    PROC$+4
        35 020671   400005 636500                    EPPR6   5,,PR4
        35 020672   001013 456400 0                  STP6    PROC$+3
        35 020673   000321 236000 36                 LDQ     209
        35 020674   001012 756000 0                  STQ     PROC$+2
        35 020675   001012 630400 0                  EPPR0   PROC$+2
        35 020676   000005 631400 36                 EPPR1   5
        35 020677   000000 701000 xent               TSX1    Z8AE$ERROR
        35 020700   000000 011000                    NOP     0

     3332    31982    4                                 ORG$ -> LX_ITEM.LINE,
     3333    31983    4                                 ORG$ -> LX_ITEM.COLUMN,
     3334    31984    4                                 DNT$_FROM_RSWNO (%RSV_WRD_RELATIVE));
     3335    31985    4                CALL Z8ED$DISPOSE_ABSSYN_TREE (FILE$ -> FILE_LTS.RELATIVE_KEY$);

  31985 35 020701   000451 236000 0                  LDQ     FILE$
        35 020702   000014 036003                    ADLQ    12,DU
        35 020703   001012 756000 0                  STQ     PROC$+2
        35 020704   001012 630400 0                  EPPR0   PROC$+2
        35 020705   000036 631400 36                 EPPR1   30
        35 020706   000000 701000 xent               TSX1    Z8ED$DISPOSE_ABSSYN_TREE
        35 020707   000000 011000                    NOP     0

     3336    31986    4              END;

PL6.E3A0      #001=Z8EM$SEMANTICS_DATA_DIV File=Z8EM.:Z8A6TSI                    SAT 08/09/97 12:08 Page:734
     3337    31987
     3338    31988    3            IF FILE$ -> FILE_LTS.RECORD_KEY$ ~= ADDR(NIL) THEN

  31988 35 020710   000451 470400 0                  LDP0    FILE$
        35 020711   000015 236100                    LDQ     13,,PR0
        35 020712   000024 116000 36                 CMPQ    20
        35 020713   020741 600000 35                 TZE     s:31997

     3339    31989    4              DO;

     3340    31990    4                CALL Z8AE$ERROR (%E$WRONG_ORG_WITH_KEY,

  31990 35 020714   000447 471400 0                  LDP1    @ORG$
        35 020715   100000 473500                    LDP3    0,,PR1
        35 020716   000322 236000 36                 LDQ     210
        35 020717   001015 756000 0                  STQ     PROC$+5
        35 020720   300006 634500                    EPPR4   6,,PR3
        35 020721   001014 454400 0                  STP4    PROC$+4
        35 020722   300005 635500                    EPPR5   5,,PR3
        35 020723   001013 455400 0                  STP5    PROC$+3
        35 020724   000321 236000 36                 LDQ     209
        35 020725   001012 756000 0                  STQ     PROC$+2
        35 020726   001012 630400 0                  EPPR0   PROC$+2
        35 020727   000005 631400 36                 EPPR1   5
        35 020730   000000 701000 xent               TSX1    Z8AE$ERROR
        35 020731   000000 011000                    NOP     0

     3341    31991    4                                 ORG$ -> LX_ITEM.LINE,
     3342    31992    4                                 ORG$ -> LX_ITEM.COLUMN,
     3343    31993    4                                 DNT$_FROM_RSWNO (%RSV_WRD_RECORD));
     3344    31994    4                CALL Z8ED$DISPOSE_ABSSYN_TREE (FILE$ -> FILE_LTS.RECORD_KEY$);

  31994 35 020732   000451 236000 0                  LDQ     FILE$
        35 020733   000015 036003                    ADLQ    13,DU
        35 020734   001012 756000 0                  STQ     PROC$+2
        35 020735   001012 630400 0                  EPPR0   PROC$+2
        35 020736   000036 631400 36                 EPPR1   30
PL6.E3A0      #001=Z8EM$SEMANTICS_DATA_DIV File=Z8EM.:Z8A6TSI                    SAT 08/09/97 12:08 Page:735
        35 020737   000000 701000 xent               TSX1    Z8ED$DISPOSE_ABSSYN_TREE
        35 020740   000000 011000                    NOP     0

     3345    31995    4              END;

     3346    31996
     3347    31997    3            IF FILE$ -> FILE_LTS.ALT_RECORD_KEY$ ~= ADDR(NIL) THEN

  31997 35 020741   000451 470400 0                  LDP0    FILE$
        35 020742   000016 236100                    LDQ     14,,PR0
        35 020743   000024 116000 36                 CMPQ    20
        35 020744   020772 600000 35                 TZE     s:32006

     3348    31998    4              DO;

     3349    31999    4                CALL Z8AE$ERROR (%E$WRONG_ORG_WITH_KEY,

  31999 35 020745   000447 471400 0                  LDP1    @ORG$
        35 020746   100000 473500                    LDP3    0,,PR1
        35 020747   000320 236000 36                 LDQ     208
        35 020750   001015 756000 0                  STQ     PROC$+5
        35 020751   300006 634500                    EPPR4   6,,PR3
        35 020752   001014 454400 0                  STP4    PROC$+4
        35 020753   300005 635500                    EPPR5   5,,PR3
        35 020754   001013 455400 0                  STP5    PROC$+3
        35 020755   000321 236000 36                 LDQ     209
        35 020756   001012 756000 0                  STQ     PROC$+2
        35 020757   001012 630400 0                  EPPR0   PROC$+2
        35 020760   000005 631400 36                 EPPR1   5
        35 020761   000000 701000 xent               TSX1    Z8AE$ERROR
        35 020762   000000 011000                    NOP     0

     3350    32000    4                                 ORG$ -> LX_ITEM.LINE,
     3351    32001    4                                 ORG$ -> LX_ITEM.COLUMN,
     3352    32002    4                                 DNT$_FROM_RSWNO (%RSV_WRD_ALTERNATE));
     3353    32003    4                CALL Z8ED$DISPOSE_ABSSYN_TREE (FILE$ -> FILE_LTS.ALT_RECORD_KEY$);

PL6.E3A0      #001=Z8EM$SEMANTICS_DATA_DIV File=Z8EM.:Z8A6TSI                    SAT 08/09/97 12:08 Page:736
  32003 35 020763   000451 236000 0                  LDQ     FILE$
        35 020764   000016 036003                    ADLQ    14,DU
        35 020765   001012 756000 0                  STQ     PROC$+2
        35 020766   001012 630400 0                  EPPR0   PROC$+2
        35 020767   000036 631400 36                 EPPR1   30
        35 020770   000000 701000 xent               TSX1    Z8ED$DISPOSE_ABSSYN_TREE
        35 020771   000000 011000                    NOP     0

     3354    32004    4              END;

     3355    32005
     3356    32006    3            IF FILE$ -> FILE_LTS.NOMINAL_KEY$ ~= ADDR(NIL) THEN

  32006 35 020772   000451 470400 0                  LDP0    FILE$
        35 020773   000020 236100                    LDQ     16,,PR0
        35 020774   000024 116000 36                 CMPQ    20
        35 020775   021023 600000 35                 TZE     s:32017

     3357    32007    4              DO;

     3358    32008    4                CALL Z8AE$ERROR (%E$WRONG_ORG_WITH_KEY,

  32008 35 020776   000447 471400 0                  LDP1    @ORG$
        35 020777   100000 473500                    LDP3    0,,PR1
        35 021000   000323 236000 36                 LDQ     211
        35 021001   001015 756000 0                  STQ     PROC$+5
        35 021002   300006 634500                    EPPR4   6,,PR3
        35 021003   001014 454400 0                  STP4    PROC$+4
        35 021004   300005 635500                    EPPR5   5,,PR3
        35 021005   001013 455400 0                  STP5    PROC$+3
        35 021006   000321 236000 36                 LDQ     209
        35 021007   001012 756000 0                  STQ     PROC$+2
        35 021010   001012 630400 0                  EPPR0   PROC$+2
        35 021011   000005 631400 36                 EPPR1   5
        35 021012   000000 701000 xent               TSX1    Z8AE$ERROR
        35 021013   000000 011000                    NOP     0

PL6.E3A0      #001=Z8EM$SEMANTICS_DATA_DIV File=Z8EM.:Z8A6TSI                    SAT 08/09/97 12:08 Page:737
     3359    32009    4                                 ORG$ -> LX_ITEM.LINE,
     3360    32010    4                                 ORG$ -> LX_ITEM.COLUMN,
     3361    32011    4                                 DNT$_FROM_RSWNO (%RSV_WRD_NOMINAL));
     3362    32012    4                CALL Z8ED$DISPOSE_ABSSYN_TREE (FILE$ -> FILE_LTS.NOMINAL_KEY$);

  32012 35 021014   000451 236000 0                  LDQ     FILE$
        35 021015   000020 036003                    ADLQ    16,DU
        35 021016   001012 756000 0                  STQ     PROC$+2
        35 021017   001012 630400 0                  EPPR0   PROC$+2
        35 021020   000036 631400 36                 EPPR1   30
        35 021021   000000 701000 xent               TSX1    Z8ED$DISPOSE_ABSSYN_TREE
        35 021022   000000 011000                    NOP     0

     3363    32013    4              END;

     3364    32014
     3365    32015    3        END; /* Case */

     3366    32016
     3367    32017    2   END ORG_CHECKS;

  32017 35 021023   000446 221200 0                  LDX1  ! LTS$$+1
        35 021024   000001 702211                    TSX2  ! 1,X1

     3368    32018        %EJECT;
PL6.E3A0      #001=Z8EM$SEMANTICS_DATA_DIV File=Z8EM.:Z8A6TSI                    SAT 08/09/97 12:08 Page:738
     3369    32019        /*===============*/
     3370    32020    1     PAD_CHAR_LINAGE: PROC (ITEM$, FIELD$, RSWNO);

  32020 35 021025   000452 741200 0     PAD_CHAR_LI* STX1  ! FILE$+1

     3371    32021        /*===============*/
     3372    32022
     3373    32023    2        DCL ITEM$         PTR;
     3374    32024    2        DCL RSWNO         SBIN;
     3375    32025    2        DCL FIELD$        PTR;
     3376    32026    2        DCL TERM$         PTR;
     3377    32027
     3378    32028
     3379    32029    2        IF ITEM$ -> LX_ITEM.ID = %LX_TERMINAL THEN

  32029 35 021026   000453 470400 0                  LDP0    @ITEM$
        35 021027   000000 471500                    LDP1    0,,PR0
        35 021030   100000 220100                    LDX0    0,,PR1
        35 021031   021066 601000 35                 TNZ     s:32055

     3380    32030    3          DO;

     3381    32031    3            CALL CHECK_REL_ORG (ITEM$)

  32031 35 021032   000453 236000 0                  LDQ     @ITEM$
        35 021033   000167 756000 0                  STQ     @TERMINAL$
        35 021034   004026 701000 35                 TSX1    CHECK_REL_ORG
        35 021035   021037 702000 35                 TSX2    s:32034
        35 021036   021041 710000 35                 TRA     s:32037

     3382    32032    3              WHENALTRETURN
     3383    32033    4                DO;

     3384    32034    4                  RETURN;

  32034 35 021037   000452 221200 0                  LDX1  ! FILE$+1
        35 021040   000001 702211                    TSX2  ! 1,X1
PL6.E3A0      #001=Z8EM$SEMANTICS_DATA_DIV File=Z8EM.:Z8A6TSI                    SAT 08/09/97 12:08 Page:739

     3385    32035    4                END;
     3386    32036
     3387    32037    3            CALL CHECK_IND_ORG (ITEM$)

  32037 35 021041   000453 236000 0                  LDQ     @ITEM$
        35 021042   000161 756000 0                  STQ     @TERMINAL$
        35 021043   003607 701000 35                 TSX1    CHECK_IND_ORG
        35 021044   021046 702000 35                 TSX2    s:32040
        35 021045   021050 710000 35                 TRA     s:32043

     3388    32038    3              WHENALTRETURN
     3389    32039    4                DO;

     3390    32040    4                  RETURN;

  32040 35 021046   000452 221200 0                  LDX1  ! FILE$+1
        35 021047   000001 702211                    TSX2  ! 1,X1

     3391    32041    4                END;
     3392    32042
     3393    32043    3            CALL CHECK_KEY_ORG (ITEM$)

  32043 35 021050   000453 236000 0                  LDQ     @ITEM$
        35 021051   000163 756000 0                  STQ     @TERMINAL$
        35 021052   003671 701000 35                 TSX1    CHECK_KEY_ORG
        35 021053   021055 702000 35                 TSX2    s:32046
        35 021054   021057 710000 35                 TRA     s:32049

     3394    32044    3              WHENALTRETURN
     3395    32045    4                DO;

     3396    32046    4                  RETURN;

  32046 35 021055   000452 221200 0                  LDX1  ! FILE$+1
        35 021056   000001 702211                    TSX2  ! 1,X1

PL6.E3A0      #001=Z8EM$SEMANTICS_DATA_DIV File=Z8EM.:Z8A6TSI                    SAT 08/09/97 12:08 Page:740
     3397    32047    4                END;
     3398    32048
     3399    32049    3            CALL CHECK_AND_SAVE_ITEM (ITEM$,

  32049 35 021057   000454 237000 0                  LDAQ    @FIELD$
        35 021060   000140 757000 0                  STAQ    @FIELD$
        35 021061   000453 236000 0                  LDQ     @ITEM$
        35 021062   000137 756000 0                  STQ     @ITEM$
        35 021063   003076 701000 35                 TSX1    CHECK_AND_SAVE_ITEM
        35 021064   000000 011000                    NOP     0

     3400    32050    3                                      FIELD$,
     3401    32051    3                                      RSWNO);
     3402    32052    3          END;

  32052 35 021065   021153 710000 35                 TRA     s:32083

     3403    32053    2        ELSE
     3404    32054    3          DO;

     3405    32055    3            TERM$ = ITEM$ -> LX_LIST.HEAD$;

  32055 35 021066   100004 236100                    LDQ     4,,PR1
        35 021067   000456 756000 0                  STQ     TERM$

     3406    32056
     3407    32057    3            CALL CHECK_REL_ORG (TERM$)

  32057 35 021070   000324 236000 36                 LDQ     212
        35 021071   000167 756000 0                  STQ     @TERMINAL$
        35 021072   004026 701000 35                 TSX1    CHECK_REL_ORG
        35 021073   021075 702000 35                 TSX2    s:32060
        35 021074   021107 710000 35                 TRA     s:32064

     3408    32058    3              WHENALTRETURN
     3409    32059    4                DO;

PL6.E3A0      #001=Z8EM$SEMANTICS_DATA_DIV File=Z8EM.:Z8A6TSI                    SAT 08/09/97 12:08 Page:741
     3410    32060    4                  CALL Z8ED$DISPOSE_ABSSYN_TREE (ITEM$ -> LX_LIST.HEAD$);

  32060 35 021075   000453 470400 0                  LDP0    @ITEM$
        35 021076   000000 471500                    LDP1    0,,PR0
        35 021077   100004 633500                    EPPR3   4,,PR1
        35 021100   001012 453400 0                  STP3    PROC$+2
        35 021101   001012 630400 0                  EPPR0   PROC$+2
        35 021102   000036 631400 36                 EPPR1   30
        35 021103   000000 701000 xent               TSX1    Z8ED$DISPOSE_ABSSYN_TREE
        35 021104   000000 011000                    NOP     0

     3411    32061    4                  RETURN;

  32061 35 021105   000452 221200 0                  LDX1  ! FILE$+1
        35 021106   000001 702211                    TSX2  ! 1,X1

     3412    32062    4                END;
     3413    32063
     3414    32064    3            CALL CHECK_IND_ORG (TERM$)

  32064 35 021107   000324 236000 36                 LDQ     212
        35 021110   000161 756000 0                  STQ     @TERMINAL$
        35 021111   003607 701000 35                 TSX1    CHECK_IND_ORG
        35 021112   021114 702000 35                 TSX2    s:32067
        35 021113   021126 710000 35                 TRA     s:32071

     3415    32065    3              WHENALTRETURN
     3416    32066    4                DO;

     3417    32067    4                  CALL Z8ED$DISPOSE_ABSSYN_TREE (ITEM$ -> LX_LIST.HEAD$);

  32067 35 021114   000453 470400 0                  LDP0    @ITEM$
        35 021115   000000 471500                    LDP1    0,,PR0
        35 021116   100004 633500                    EPPR3   4,,PR1
        35 021117   001012 453400 0                  STP3    PROC$+2
        35 021120   001012 630400 0                  EPPR0   PROC$+2
        35 021121   000036 631400 36                 EPPR1   30
PL6.E3A0      #001=Z8EM$SEMANTICS_DATA_DIV File=Z8EM.:Z8A6TSI                    SAT 08/09/97 12:08 Page:742
        35 021122   000000 701000 xent               TSX1    Z8ED$DISPOSE_ABSSYN_TREE
        35 021123   000000 011000                    NOP     0

     3418    32068    4                  RETURN;

  32068 35 021124   000452 221200 0                  LDX1  ! FILE$+1
        35 021125   000001 702211                    TSX2  ! 1,X1

     3419    32069    4                END;
     3420    32070
     3421    32071    3            CALL CHECK_KEY_ORG (TERM$)

  32071 35 021126   000324 236000 36                 LDQ     212
        35 021127   000163 756000 0                  STQ     @TERMINAL$
        35 021130   003671 701000 35                 TSX1    CHECK_KEY_ORG
        35 021131   021133 702000 35                 TSX2    s:32074
        35 021132   021145 710000 35                 TRA     s:32078

     3422    32072    3              WHENALTRETURN
     3423    32073    4                DO;

     3424    32074    4                  CALL Z8ED$DISPOSE_ABSSYN_TREE (ITEM$ -> LX_LIST.HEAD$);

  32074 35 021133   000453 470400 0                  LDP0    @ITEM$
        35 021134   000000 471500                    LDP1    0,,PR0
        35 021135   100004 633500                    EPPR3   4,,PR1
        35 021136   001012 453400 0                  STP3    PROC$+2
        35 021137   001012 630400 0                  EPPR0   PROC$+2
        35 021140   000036 631400 36                 EPPR1   30
        35 021141   000000 701000 xent               TSX1    Z8ED$DISPOSE_ABSSYN_TREE
        35 021142   000000 011000                    NOP     0

     3425    32075    4                  RETURN;

  32075 35 021143   000452 221200 0                  LDX1  ! FILE$+1
        35 021144   000001 702211                    TSX2  ! 1,X1

PL6.E3A0      #001=Z8EM$SEMANTICS_DATA_DIV File=Z8EM.:Z8A6TSI                    SAT 08/09/97 12:08 Page:743
     3426    32076    4                END;
     3427    32077
     3428    32078    3            CALL CHECK_AND_SAVE_ITEM (ITEM$,

  32078 35 021145   000454 237000 0                  LDAQ    @FIELD$
        35 021146   000140 757000 0                  STAQ    @FIELD$
        35 021147   000453 236000 0                  LDQ     @ITEM$
        35 021150   000137 756000 0                  STQ     @ITEM$
        35 021151   003076 701000 35                 TSX1    CHECK_AND_SAVE_ITEM
        35 021152   000000 011000                    NOP     0

     3429    32079    3                                      FIELD$,
     3430    32080    3                                      RSWNO);
     3431    32081    3          END;

     3432    32082
     3433    32083    2   END PAD_CHAR_LINAGE;

  32083 35 021153   000452 221200 0                  LDX1  ! FILE$+1
        35 021154   000001 702211                    TSX2  ! 1,X1

     3434    32084        %EJECT;
PL6.E3A0      #001=Z8EM$SEMANTICS_DATA_DIV File=Z8EM.:Z8A6TSI                    SAT 08/09/97 12:08 Page:744
     3435    32085
     3436    32086         /*================*/
     3437    32087    1      PROCESS_CD_NO_DD:  PROC;

  32087 35 021155   000457 741200 0     PROCESS_CD_* STX1  ! TERM$+1

     3438    32088         /*================*/
     3439    32089
     3440    32090
     3441    32091    2   DCL I          SBIN WORD;
     3442    32092
     3443    32093
     3444    32094
     3445    32095    3     DO CASE (O1COM.CURRENT_CD_ENTRY$ -> LX_ITEM.ID);

  32095 35 021156   000120 470400 xsym               LDP0    O1COM+80
        35 021157   000000 236100                    LDQ     0,,PR0
        35 021160   000022 772000                    QRL     18
        35 021161   000034 136007                    SBLQ    28,DL
        35 021162   000003 116007                    CMPQ    3,DL
        35 021163   021165 602006 35                 TNC     s:32095+7,QL
        35 021164   021254 710000 35                 TRA     s:32134
        35 021165   021170 710000 35                 TRA     s:32098
        35 021166   021221 710000 35                 TRA     s:32114
        35 021167   021224 710000 35                 TRA     s:32118

     3446    32096    3       CASE (%LX_CD_INPUT);

     3447    32097
     3448    32098    4          DO I= 0 TO %CD_INPUT_OPTION - 1;

  32098 35 021170   000460 450000 0                  STZ     I
        35 021171   021200 710000 35                 TRA     s:32103+1

     3449    32099
     3450    32100    4            IF O1COM.CURRENT_CD_ENTRY$ -> LX_CD_INPUT.INPUT_FIELDS$(I) ~= ADDR(NIL)
             32100                     THEN
PL6.E3A0      #001=Z8EM$SEMANTICS_DATA_DIV File=Z8EM.:Z8A6TSI                    SAT 08/09/97 12:08 Page:745

  32100 35 021172   000120 470400 xsym               LDP0    O1COM+80
        35 021173   000460 720000 0                  LXL0    I
        35 021174   000003 236110                    LDQ     3,X0,PR0
        35 021175   000024 116000 36                 CMPQ    20
        35 021176   021216 601000 35                 TNZ     NEXT_1

     3451    32101    4              GOTO NEXT_1;
     3452    32102
     3453    32103    4          END;

  32103 35 021177   000460 054000 0                  AOS     I
        35 021200   000460 235000 0                  LDA     I
        35 021201   000012 115007                    CMPA    10,DL
        35 021202   021172 604400 35                 TMOZ    s:32100

     3454    32104
     3455    32105    3          CALL Z8AE$ERROR (%E$THIS_CD_NEED_01_ENTRY,

  32105 35 021203   000001 471500                    LDP1    1,,PR0
        35 021204   100006 633500                    EPPR3   6,,PR1
        35 021205   001014 453400 0                  STP3    PROC$+4
        35 021206   100005 634500                    EPPR4   5,,PR1
        35 021207   001013 454400 0                  STP4    PROC$+3
        35 021210   000326 236000 36                 LDQ     214
        35 021211   001012 756000 0                  STQ     PROC$+2
        35 021212   001012 630400 0                  EPPR0   PROC$+2
        35 021213   000000 631400 36                 EPPR1   0
        35 021214   000000 701000 xent               TSX1    Z8AE$ERROR
        35 021215   000000 011000                    NOP     0

     3456    32106    3                  O1COM.CURRENT_CD_ENTRY$ -> LX_CD_INPUT.CD_NAME$ -> LX_ITEM.LINE,
     3457    32107    3                  O1COM.CURRENT_CD_ENTRY$ -> LX_CD_INPUT.CD_NAME$ -> LX_ITEM.COLUMN);
     3458    32108
     3459    32109    3        NEXT_1:
     3460    32110    3          CALL PROCESS_INPUT_CD;

PL6.E3A0      #001=Z8EM$SEMANTICS_DATA_DIV File=Z8EM.:Z8A6TSI                    SAT 08/09/97 12:08 Page:746
  32110 35 021216   021633 701000 35    NEXT_1       TSX1    PROCESS_INPUT_CD
        35 021217   000000 011000                    NOP     0
        35 021220   021254 710000 35                 TRA     s:32134

     3461    32111
     3462    32112    3       CASE (%LX_CD_OUTPUT);

     3463    32113
     3464    32114    3          CALL PROCESS_OUTPUT_CD;

  32114 35 021221   023033 701000 35                 TSX1    PROCESS_OUTPUT_CD
        35 021222   000000 011000                    NOP     0
        35 021223   021254 710000 35                 TRA     s:32134

     3465    32115
     3466    32116    3       CASE (%LX_CD_I_O);

     3467    32117
     3468    32118    4          DO I= 0 TO %CD_I_O_OPTION - 1;

  32118 35 021224   000460 450000 0                  STZ     I
        35 021225   021234 710000 35                 TRA     s:32123+1

     3469    32119
     3470    32120    4            IF O1COM.CURRENT_CD_ENTRY$ -> LX_CD_I_O.I_O_FIELDS$(I) ~= ADDR(NIL) THEN

  32120 35 021226   000120 470400 xsym               LDP0    O1COM+80
        35 021227   000460 720000 0                  LXL0    I
        35 021230   000003 236110                    LDQ     3,X0,PR0
        35 021231   000024 116000 36                 CMPQ    20
        35 021232   021252 601000 35                 TNZ     NEXT_2

     3471    32121    4              GOTO NEXT_2;
     3472    32122
     3473    32123    4          END;

  32123 35 021233   000460 054000 0                  AOS     I
PL6.E3A0      #001=Z8EM$SEMANTICS_DATA_DIV File=Z8EM.:Z8A6TSI                    SAT 08/09/97 12:08 Page:747
        35 021234   000460 235000 0                  LDA     I
        35 021235   000005 115007                    CMPA    5,DL
        35 021236   021226 604400 35                 TMOZ    s:32120

     3474    32124
     3475    32125    3          CALL Z8AE$ERROR (%E$THIS_CD_NEED_01_ENTRY,

  32125 35 021237   000001 471500                    LDP1    1,,PR0
        35 021240   100006 633500                    EPPR3   6,,PR1
        35 021241   001014 453400 0                  STP3    PROC$+4
        35 021242   100005 634500                    EPPR4   5,,PR1
        35 021243   001013 454400 0                  STP4    PROC$+3
        35 021244   000326 236000 36                 LDQ     214
        35 021245   001012 756000 0                  STQ     PROC$+2
        35 021246   001012 630400 0                  EPPR0   PROC$+2
        35 021247   000000 631400 36                 EPPR1   0
        35 021250   000000 701000 xent               TSX1    Z8AE$ERROR
        35 021251   000000 011000                    NOP     0

     3476    32126    3                  O1COM.CURRENT_CD_ENTRY$ -> LX_CD_I_O.CD_NAME$ -> LX_ITEM.LINE,
     3477    32127    3                  O1COM.CURRENT_CD_ENTRY$ -> LX_CD_I_O.CD_NAME$ -> LX_ITEM.COLUMN);
     3478    32128
     3479    32129    3        NEXT_2:
     3480    32130    3          CALL PROCESS_I_O_CD;

  32130 35 021252   022421 701000 35    NEXT_2       TSX1    PROCESS_I_O_CD
        35 021253   000000 011000                    NOP     0

     3481    32131
     3482    32132    3     END; /* Do case end */

     3483    32133
     3484    32134    2      CALL CD_ENTRY_WRAPUP;

  32134 35 021254   002353 701000 35                 TSX1    CD_ENTRY_WRAPUP
        35 021255   000000 011000                    NOP     0

PL6.E3A0      #001=Z8EM$SEMANTICS_DATA_DIV File=Z8EM.:Z8A6TSI                    SAT 08/09/97 12:08 Page:748
     3485    32135
     3486    32136    2    END PROCESS_CD_NO_DD;

  32136 35 021256   000457 221200 0                  LDX1  ! TERM$+1
        35 021257   000001 702211                    TSX2  ! 1,X1

     3487    32137         %EJECT;
PL6.E3A0      #001=Z8EM$SEMANTICS_DATA_DIV File=Z8EM.:Z8A6TSI                    SAT 08/09/97 12:08 Page:749
     3488    32138
     3489    32139         /*=================*/
     3490    32140    1      PROCESS_CD_OCCURS: PROC (OCCURS_INT, OCCURS$, INDEX_LIST$, ST$$);

  32140 35 021260   000461 741200 0     PROCESS_CD_* STX1  ! I+1

     3491    32141         /*=================*/
     3492    32142
     3493    32143
     3494    32144    2   DCL OCCURS_INT         SBIN WORD;
     3495    32145    2   DCL OCCURS$            PTR;
     3496    32146    2   DCL DIMS$              PTR;
     3497    32147    2   DCL INDEX_LIST$        PTR;
     3498    32148    2   DCL ST$$               PTR;
     3499    32149    2   DCL INDEX$             PTR;
     3500    32150    2   DCL INDEX_ST$          PTR;
     3501    32151    2   DCL INDEX_DNT$         PTR;
     3502    32152    2   DCL INDEX_QLT$         PTR;
     3503    32153    2   DCL BRO$               PTR;
     3504    32154    2   DCL INDEXES$           PTR;
     3505    32155    2   DCL PREV_INDEXES$      PTR;
     3506    32156    2   DCL QLT_CHAIN$         PTR;
     3507    32157    2   DCL QLT_CHAIN_START$   PTR;
     3508    32158    2   DCL FIRST_INDEX$       PTR;
     3509    32159
     3510    32160
     3511    32161
     3512    32162    2      CALL CHARBIN (OCCURS_INT,

  32162 35 021261   000463 470400 0                  LDP0    @OCCURS$
        35 021262   000000 471500                    LDP1    0,,PR0
        35 021263   100002 473500                    LDP3    2,,PR1
        35 021264   300004 220100                    LDX0    4,,PR3
        35 021265   000462 474400 0                  LDP4    @OCCURS_INT
        35 021266   000100 305540                    DTB
        35 021267   300004 430010                    NDSC9   4,,PR3                   cn=2,s=nosgn,sf=0,n=*X0
        35 021270   400000 000004                    NDSC9   0,,PR4                   cn=0,s=lsgnf,sf=0,n=4
PL6.E3A0      #001=Z8EM$SEMANTICS_DATA_DIV File=Z8EM.:Z8A6TSI                    SAT 08/09/97 12:08 Page:750

     3513    32163    2                    OCCURS$ -> LX_TERMINAL.DNT$ -> DNT.TEXT.NAME);
     3514    32164
     3515    32165           %NEW_DIMS (@POINTER = DIMS$,
     3516    32166                      @SIZE    = "%MIN_DIM_SIZE + %NO_WORDS_PER_DIM");

  32168 35 021271   000010 235007                    LDA     8,DL
        35 021272   000000 755000 2                  STA     ITERATION

  32246 35 021273   000002 236000 8                  LDQ     LTS_+2
        35 021274   000000 036000 2                  ADLQ    ITERATION
        35 021275   000003 116000 8                  CMPQ    LTS_+3
        35 021276   021307 604000 35                 TMI     s:32248

  32247 35 021277   000211 236000 36                 LDQ     137
        35 021300   001012 756000 0                  STQ     PROC$+2
        35 021301   001012 631400 0                  EPPR1   PROC$+2
        35 021302   001013 451400 0                  STP1    PROC$+3
        35 021303   001013 630400 0                  EPPR0   PROC$+3
        35 021304   000036 631400 36                 EPPR1   30
        35 021305   000000 701000 xent               TSX1    Z8AR$RESERVER
        35 021306   000000 011000                    NOP     0

  32248 35 021307   000002 236000 8                  LDQ     LTS_+2
        35 021310   000022 736000                    QLS     18
        35 021311   000001 036000 8                  ADLQ    LTS_+1
        35 021312   000466 756000 0                  STQ     DIMS$

  32249 35 021313   000002 236000 8                  LDQ     LTS_+2
        35 021314   000000 036000 2                  ADLQ    ITERATION
        35 021315   000002 756000 8                  STQ     LTS_+2

  32250 35 021316   001104 220003                    LDX0    580,DU
        35 021317   000466 470400 0                  LDP0    DIMS$
        35 021320   000000 740100                    STX0    0,,PR0

  32252 35 021321   000000 721000 2                  LXL1    ITERATION
PL6.E3A0      #001=Z8EM$SEMANTICS_DATA_DIV File=Z8EM.:Z8A6TSI                    SAT 08/09/97 12:08 Page:751
        35 021322   000000 441100                    SXL1    0,,PR0

  32256 35 021323   000024 236000 36                 LDQ     20
        35 021324   000001 756100                    STQ     1,,PR0

     3517    32259
     3518    32260           %FILL_DIMS (@DIMS$ = DIMS$,
     3519    32261                       @SS#   = "%SINGLE_DIMENSION",
     3520    32262                       @DIM   = OCCURS_INT);

  32264 35 021325   000024 236000 36                 LDQ     20
        35 021326   000007 756100                    STQ     7,,PR0

  32265 35 021327   000005 450100                    STZ     5,,PR0

  32266 35 021330   000462 471400 0                  LDP1    @OCCURS_INT
        35 021331   100000 235100                    LDA     0,,PR1
        35 021332   000006 755100                    STA     6,,PR0

     3521    32269
     3522    32270    2      ST$$ -> ARRAY.ID = %ARRAY;

  32270 35 021333   000465 473400 0                  LDP3    @ST$$
        35 021334   300000 474500                    LDP4    0,,PR3
        35 021335   000765 222003                    LDX2    501,DU
        35 021336   400000 742100                    STX2    0,,PR4

     3523    32271    2      ST$$ -> ARRAY.QLT$ -> QLT.B.OCCURS = TRUE;

  32271 35 021337   300000 474500                    LDP4    0,,PR3
        35 021340   400007 475500                    LDP5    7,,PR4
        35 021341   400000 236007                    LDQ     -131072,DL
        35 021342   500000 256100                    ORSQ    0,,PR5

     3524    32272    2      ST$$ -> ARRAY.LTS$ = DIMS$;

  32272 35 021343   300000 474500                    LDP4    0,,PR3
PL6.E3A0      #001=Z8EM$SEMANTICS_DATA_DIV File=Z8EM.:Z8A6TSI                    SAT 08/09/97 12:08 Page:752
        35 021344   000466 236000 0                  LDQ     DIMS$
        35 021345   400005 756100                    STQ     5,,PR4

     3525    32273
     3526    32274    2      CALL Z8ED$DISPOSE_ABSSYN_TREE (OCCURS$);

  32274 35 021346   000463 630400 0                  EPPR0   @OCCURS$
        35 021347   000036 631400 36                 EPPR1   30
        35 021350   000000 701000 xent               TSX1    Z8ED$DISPOSE_ABSSYN_TREE
        35 021351   000000 011000                    NOP     0

     3527    32275
     3528    32276    2      IF INDEX_LIST$ = ADDR(NIL) THEN

  32276 35 021352   000464 470400 0                  LDP0    @INDEX_LIST$
        35 021353   000000 236100                    LDQ     0,,PR0
        35 021354   000024 116000 36                 CMPQ    20
        35 021355   021360 601000 35                 TNZ     s:32279

     3529    32277    2        RETURN;

  32277 35 021356   000461 221200 0                  LDX1  ! I+1
        35 021357   000001 702211                    TSX2  ! 1,X1

     3530    32278
     3531    32279    2      INDEX$ = INDEX_LIST$ -> LX_LIST.HEAD$;

  32279 35 021360   000000 471500                    LDP1    0,,PR0
        35 021361   100004 236100                    LDQ     4,,PR1
        35 021362   000467 756000 0                  STQ     INDEX$

     3532    32280    2      INDEXES$ = ADDR(NIL);

  32280 35 021363   000024 236000 36                 LDQ     20
        35 021364   000474 756000 0                  STQ     INDEXES$

     3533    32281    2      PREV_INDEXES$ = ADDR(NIL);
PL6.E3A0      #001=Z8EM$SEMANTICS_DATA_DIV File=Z8EM.:Z8A6TSI                    SAT 08/09/97 12:08 Page:753

  32281 35 021365   000475 756000 0                  STQ     PREV_INDEXES$

     3534    32282    2      QLT_CHAIN_START$ = ADDR(NIL);

  32282 35 021366   000477 756000 0                  STQ     QLT_CHAIN_START$

     3535    32283
     3536    32284    3      DO WHILE ( INDEX$ ~= ADDR(NIL));

  32284 35 021367   021462 710000 35                 TRA     s:32403

     3537    32285
     3538    32286    3        CALL Z8DR$NEW_INDEX ( INDEX$,

  32286 35 021370   000331 630400 36                 EPPR0   217
        35 021371   000327 631400 36                 EPPR1   215
        35 021372   000000 701000 xent               TSX1    Z8DR$NEW_INDEX
        35 021373   000000 011000                    NOP     0

     3539    32287    3                              %TYX,
     3540    32288    3                              01,
     3541    32289    3                              INDEX_QLT$,
     3542    32290    3                              INDEX_ST$);
     3543    32291
     3544    32292    3        IF QLT_CHAIN_START$ = ADDR(NIL) THEN

  32292 35 021374   000477 236000 0                  LDQ     QLT_CHAIN_START$
        35 021375   000024 116000 36                 CMPQ    20
        35 021376   021402 601000 35                 TNZ     s:32295

     3545    32293    3          QLT_CHAIN_START$ = INDEX_QLT$;

  32293 35 021377   000472 236000 0                  LDQ     INDEX_QLT$
        35 021400   000477 756000 0                  STQ     QLT_CHAIN_START$
        35 021401   021405 710000 35                 TRA     s:32297

PL6.E3A0      #001=Z8EM$SEMANTICS_DATA_DIV File=Z8EM.:Z8A6TSI                    SAT 08/09/97 12:08 Page:754
     3546    32294    3        ELSE
     3547    32295    3          QLT_CHAIN$ -> QLT.BROTHER = INDEX_QLT$;

  32295 35 021402   000472 236000 0                  LDQ     INDEX_QLT$
        35 021403   000476 470400 0                  LDP0    QLT_CHAIN$
        35 021404   000002 756100                    STQ     2,,PR0

     3548    32296
     3549    32297    3        QLT_CHAIN$ = INDEX_QLT$ -> QLT.BROTHER;

  32297 35 021405   000472 470400 0                  LDP0    INDEX_QLT$
        35 021406   000002 236100                    LDQ     2,,PR0
        35 021407   000476 756000 0                  STQ     QLT_CHAIN$

     3550    32298
     3551    32299             %NEW_INDEXES (@POINTER = INDEXES$,
     3552    32300                           @INDEX_ST$ = INDEX_ST$);

  32379 35 021410   000002 236000 8                  LDQ     LTS_+2
        35 021411   000003 036007                    ADLQ    3,DL
        35 021412   000003 116000 8                  CMPQ    LTS_+3
        35 021413   021424 604000 35                 TMI     s:32381

  32380 35 021414   000211 236000 36                 LDQ     137
        35 021415   001012 756000 0                  STQ     PROC$+2
        35 021416   001012 631400 0                  EPPR1   PROC$+2
        35 021417   001013 451400 0                  STP1    PROC$+3
        35 021420   001013 630400 0                  EPPR0   PROC$+3
        35 021421   000036 631400 36                 EPPR1   30
        35 021422   000000 701000 xent               TSX1    Z8AR$RESERVER
        35 021423   000000 011000                    NOP     0

  32381 35 021424   000002 236000 8                  LDQ     LTS_+2
        35 021425   000022 736000                    QLS     18
        35 021426   000001 036000 8                  ADLQ    LTS_+1
        35 021427   000474 756000 0                  STQ     INDEXES$

PL6.E3A0      #001=Z8EM$SEMANTICS_DATA_DIV File=Z8EM.:Z8A6TSI                    SAT 08/09/97 12:08 Page:755
  32382 35 021430   000003 236007                    LDQ     3,DL
        35 021431   000002 056000 8                  ASQ     LTS_+2

  32383 35 021432   001116 220003                    LDX0    590,DU
        35 021433   000474 470400 0                  LDP0    INDEXES$
        35 021434   000000 740100                    STX0    0,,PR0

  32389 35 021435   000470 236000 0                  LDQ     INDEX_ST$
        35 021436   000001 756100                    STQ     1,,PR0

  32390 35 021437   000024 236000 36                 LDQ     20
        35 021440   000002 756100                    STQ     2,,PR0

     3553    32393
     3554    32394    3        INDEX_ST$ -> SCALAR.LTS$ = ST$$;

  32394 35 021441   000465 471400 0                  LDP1    @ST$$
        35 021442   100000 236100                    LDQ     0,,PR1
        35 021443   000470 473400 0                  LDP3    INDEX_ST$
        35 021444   300005 756100                    STQ     5,,PR3

     3555    32395
     3556    32396    3        IF PREV_INDEXES$ ~= ADDR(NIL) THEN

  32396 35 021445   000475 236000 0                  LDQ     PREV_INDEXES$
        35 021446   000024 116000 36                 CMPQ    20
        35 021447   021454 600000 35                 TZE     s:32399

     3557    32397    3          PREV_INDEXES$ -> INDEXES.LINK = INDEXES$;

  32397 35 021450   000474 236000 0                  LDQ     INDEXES$
        35 021451   000475 473400 0                  LDP3    PREV_INDEXES$
        35 021452   300002 756100                    STQ     2,,PR3
        35 021453   021456 710000 35                 TRA     s:32401

     3558    32398    3        ELSE
     3559    32399    3          FIRST_INDEX$ = INDEXES$;
PL6.E3A0      #001=Z8EM$SEMANTICS_DATA_DIV File=Z8EM.:Z8A6TSI                    SAT 08/09/97 12:08 Page:756

  32399 35 021454   000474 236000 0                  LDQ     INDEXES$
        35 021455   000500 756000 0                  STQ     FIRST_INDEX$

     3560    32400
     3561    32401    3        PREV_INDEXES$ = INDEXES$;

  32401 35 021456   000475 756000 0                  STQ     PREV_INDEXES$

     3562    32402    3        INDEX$ = INDEX$ -> LX_TERMINAL.LINK;

  32402 35 021457   000467 473400 0                  LDP3    INDEX$
        35 021460   300007 236100                    LDQ     7,,PR3
        35 021461   000467 756000 0                  STQ     INDEX$

     3563    32403    3      END;  /* Do while */

  32403 35 021462   000467 236000 0                  LDQ     INDEX$
        35 021463   000024 116000 36                 CMPQ    20
        35 021464   021370 601000 35                 TNZ     s:32286

     3564    32404
     3565    32405    2      DIMS$ -> DIMS.D.INDEX$ (%SINGLE_DIMENSION) = FIRST_INDEX$;

  32405 35 021465   000500 236000 0                  LDQ     FIRST_INDEX$
        35 021466   000466 470400 0                  LDP0    DIMS$
        35 021467   000007 756100                    STQ     7,,PR0

     3566    32406    2      BRO$ = QLT_CHAIN_START$;

  32406 35 021470   000477 236000 0                  LDQ     QLT_CHAIN_START$
        35 021471   000473 756000 0                  STQ     BRO$

     3567    32407
     3568    32408    2      IF BRO$ ~= ADDR(NIL) THEN

  32408 35 021472   000024 116000 36                 CMPQ    20
PL6.E3A0      #001=Z8EM$SEMANTICS_DATA_DIV File=Z8EM.:Z8A6TSI                    SAT 08/09/97 12:08 Page:757
        35 021473   021504 600000 35                 TZE     s:32413

     3569    32409    3        DO WHILE (BRO$ -> QLT.BROTHER ~= ADDR(NIL));

  32409 35 021474   021500 710000 35                 TRA     s:32411

     3570    32410    3          BRO$ = BRO$ -> QLT.BROTHER;

  32410 35 021475   000473 470400 0                  LDP0    BRO$
        35 021476   000002 236100                    LDQ     2,,PR0
        35 021477   000473 756000 0                  STQ     BRO$

     3571    32411    3        END;  /* While */

  32411 35 021500   000473 470400 0                  LDP0    BRO$
        35 021501   000002 236100                    LDQ     2,,PR0
        35 021502   000024 116000 36                 CMPQ    20
        35 021503   021475 601000 35                 TNZ     s:32410

     3572    32412
     3573    32413    2      IF O1COM.INDEX_HEAD$ = ADDR(NIL) THEN

  32413 35 021504   000036 236000 xsym               LDQ     O1COM+30
        35 021505   000024 116000 36                 CMPQ    20
        35 021506   021512 601000 35                 TNZ     s:32416

     3574    32414    2        O1COM.INDEX_HEAD$ = QLT_CHAIN_START$;

  32414 35 021507   000477 236000 0                  LDQ     QLT_CHAIN_START$
        35 021510   000036 756000 xsym               STQ     O1COM+30
        35 021511   021515 710000 35                 TRA     s:32418

     3575    32415    2      ELSE
     3576    32416    2        O1COM.INDEX_TAIL$ -> QLT.BROTHER = QLT_CHAIN_START$;

  32416 35 021512   000477 236000 0                  LDQ     QLT_CHAIN_START$
        35 021513   000037 470400 xsym               LDP0    O1COM+31
PL6.E3A0      #001=Z8EM$SEMANTICS_DATA_DIV File=Z8EM.:Z8A6TSI                    SAT 08/09/97 12:08 Page:758
        35 021514   000002 756100                    STQ     2,,PR0

     3577    32417
     3578    32418    2      O1COM.INDEX_TAIL$ = BRO$;

  32418 35 021515   000473 236000 0                  LDQ     BRO$
        35 021516   000037 756000 xsym               STQ     O1COM+31

     3579    32419
     3580    32420    2      CALL Z8ED$DISPOSE_ABSSYN_TREE (INDEX_LIST$);

  32420 35 021517   000464 630400 0                  EPPR0   @INDEX_LIST$
        35 021520   000036 631400 36                 EPPR1   30
        35 021521   000000 701000 xent               TSX1    Z8ED$DISPOSE_ABSSYN_TREE
        35 021522   000000 011000                    NOP     0

     3581    32421
     3582    32422    2    END PROCESS_CD_OCCURS;

  32422 35 021523   000461 221200 0                  LDX1  ! I+1
        35 021524   000001 702211                    TSX2  ! 1,X1

     3583    32423         %EJECT;
PL6.E3A0      #001=Z8EM$SEMANTICS_DATA_DIV File=Z8EM.:Z8A6TSI                    SAT 08/09/97 12:08 Page:759
     3584    32424
     3585    32425         /*===============*/
     3586    32426    1      PROCESS_CD_W_DD:  PROC;

  32426 35 021525   000501 741200 0     PROCESS_CD_* STX1  ! FIRST_INDEX$+1

     3587    32427         /*===============*/
     3588    32428
     3589    32429
     3590    32430
     3591    32431    3     DO CASE (O1COM.CURRENT_CD_ENTRY$ -> LX_ITEM.ID);

  32431 35 021526   000120 470400 xsym               LDP0    O1COM+80
        35 021527   000000 236100                    LDQ     0,,PR0
        35 021530   000022 772000                    QRL     18
        35 021531   000034 136007                    SBLQ    28,DL
        35 021532   000003 116007                    CMPQ    3,DL
        35 021533   021535 602006 35                 TNC     s:32431+7,QL
        35 021534   021550 710000 35                 TRA     s:32446
        35 021535   021540 710000 35                 TRA     s:32434
        35 021536   021543 710000 35                 TRA     s:32438
        35 021537   021546 710000 35                 TRA     s:32442

     3592    32432    3       CASE (%LX_CD_INPUT);

     3593    32433
     3594    32434    3          CALL PROCESS_INPUT_CD;

  32434 35 021540   021633 701000 35                 TSX1    PROCESS_INPUT_CD
        35 021541   000000 011000                    NOP     0
        35 021542   021550 710000 35                 TRA     s:32446

     3595    32435
     3596    32436    3       CASE (%LX_CD_OUTPUT);

     3597    32437
     3598    32438    3          CALL PROCESS_OUTPUT_CD;
PL6.E3A0      #001=Z8EM$SEMANTICS_DATA_DIV File=Z8EM.:Z8A6TSI                    SAT 08/09/97 12:08 Page:760

  32438 35 021543   023033 701000 35                 TSX1    PROCESS_OUTPUT_CD
        35 021544   000000 011000                    NOP     0
        35 021545   021550 710000 35                 TRA     s:32446

     3599    32439
     3600    32440    3       CASE (%LX_CD_I_O);

     3601    32441
     3602    32442    3          CALL PROCESS_I_O_CD;

  32442 35 021546   022421 701000 35                 TSX1    PROCESS_I_O_CD
        35 021547   000000 011000                    NOP     0

     3603    32443
     3604    32444    3     END; /* Do case end */

     3605    32445
     3606    32446    2      HIER_STK_PTR = 0;

  32446 35 021550   000000 450000 xsym               STZ     HIER_STK_PTR

     3607    32447
     3608    32448    2    END PROCESS_CD_W_DD;

  32448 35 021551   000501 221200 0                  LDX1  ! FIRST_INDEX$+1
        35 021552   000001 702211                    TSX2  ! 1,X1

     3609    32449         %EJECT;
PL6.E3A0      #001=Z8EM$SEMANTICS_DATA_DIV File=Z8EM.:Z8A6TSI                    SAT 08/09/97 12:08 Page:761
     3610    32450        /*==================*/
     3611    32451    1     PROCESS_CLASS_LIST: PROC (CLASS$, LIST$);

  32451 35 021553   000502 741200 0     PROCESS_CLA* STX1  ! FIRST_INDEX$+2

     3612    32452        /*==================*/
     3613    32453
     3614    32454    2        DCL CLASS$        PTR;
     3615    32455    2        DCL LIST$         PTR;
     3616    32456    2        DCL LIT$          PTR;
     3617    32457
     3618    32458
     3619    32459    2        CALL DCL_CONST_TABLE (CLASS$ -> CLASS.TABLE$);

  32459 35 021554   000503 470400 0                  LDP0    @CLASS$
        35 021555   000000 471500                    LDP1    0,,PR0
        35 021556   100001 633500                    EPPR3   1,,PR1
        35 021557   000253 453400 0                  STP3    @TABLE$
        35 021560   007347 701000 35                 TSX1    DCL_CONST_TABLE
        35 021561   000000 011000                    NOP     0

     3620    32460
     3621    32461    2        CALL INITIALIZE_TRANS_TABLE (CLASS$ -> CLASS.TABLE$ ->

  32461 35 021562   000503 470400 0                  LDP0    @CLASS$
        35 021563   000000 471500                    LDP1    0,,PR0
        35 021564   100001 473500                    LDP3    1,,PR1
        35 021565   300010 634500                    EPPR4   8,,PR3
        35 021566   000341 454400 0                  STP4    @TABLE$
        35 021567   011565 701000 35                 TSX1    INITIALIZE_TRANS_TABLE
        35 021570   000000 011000                    NOP     0

     3622    32462    2                                     CONST.CONST$.PTR$);
     3623    32463
     3624    32464    2        LIT$ = LIST$ -> LX_LIST.HEAD$;

  32464 35 021571   000504 470400 0                  LDP0    @LIST$
PL6.E3A0      #001=Z8EM$SEMANTICS_DATA_DIV File=Z8EM.:Z8A6TSI                    SAT 08/09/97 12:08 Page:762
        35 021572   000000 471500                    LDP1    0,,PR0
        35 021573   100004 236100                    LDQ     4,,PR1
        35 021574   000505 756000 0                  STQ     LIT$

     3625    32465
     3626    32466    3        DO WHILE (LIT$ ~= ADDR(NIL));

  32466 35 021575   021627 710000 35                 TRA     s:32476

     3627    32467    3          IF LIT$ -> LX_LIST.HEAD$ -> LX_ITEM.LINK = ADDR(NIL) THEN

  32467 35 021576   000505 470400 0                  LDP0    LIT$
        35 021577   000004 471500                    LDP1    4,,PR0
        35 021600   100007 236100                    LDQ     7,,PR1
        35 021601   000024 116000 36                 CMPQ    20
        35 021602   021615 601000 35                 TNZ     s:32473

     3628    32468                 /* CLASS <name> is <literal> */
     3629    32469    3            CALL WALK_LITERAL (LIT$ -> LX_LIST.HEAD$,

  32469 35 021603   000015 236000 36                 LDQ     13
        35 021604   000776 756000 0                  STQ     @ITEM_ST$$+1
        35 021605   000503 236000 0                  LDQ     @CLASS$
        35 021606   000775 756000 0                  STQ     @LITERAL$+1
        35 021607   000505 236000 0                  LDQ     LIT$
        35 021610   000004 036003                    ADLQ    4,DU
        35 021611   000774 756000 0                  STQ     VFC+2
        35 021612   033030 701000 35                 TSX1    WALK_LITERAL
        35 021613   000000 011000                    NOP     0
        35 021614   021624 710000 35                 TRA     s:32475

     3630    32470    3                               CLASS$, 0);
     3631    32471    3          ELSE
     3632    32472                 /* CLASS <name> IS <literal> THRU <literal> */
     3633    32473    3            CALL LIT_THRU_LIT (LIT$, CLASS$, 0);

  32473 35 021615   000015 236000 36                 LDQ     13
PL6.E3A0      #001=Z8EM$SEMANTICS_DATA_DIV File=Z8EM.:Z8A6TSI                    SAT 08/09/97 12:08 Page:763
        35 021616   000356 756000 0                  STQ     @NEXT_SEQ#
        35 021617   000503 236000 0                  LDQ     @CLASS$
        35 021620   000336 235000 36                 LDA     222
        35 021621   000354 757000 0                  STAQ    @LIT_THRU_LIST$
        35 021622   012147 701000 35                 TSX1    LIT_THRU_LIT
        35 021623   000000 011000                    NOP     0

     3634    32474
     3635    32475    3          LIT$ = LIT$ -> LX_LIST.LINK;

  32475 35 021624   000505 470400 0                  LDP0    LIT$
        35 021625   000007 236100                    LDQ     7,,PR0
        35 021626   000505 756000 0                  STQ     LIT$

     3636    32476    3        END; /* While */

  32476 35 021627   000024 116000 36                 CMPQ    20
        35 021630   021576 601000 35                 TNZ     s:32467

     3637    32477
     3638    32478    2   END PROCESS_CLASS_LIST;

  32478 35 021631   000502 221200 0                  LDX1  ! FIRST_INDEX$+2
        35 021632   000001 702211                    TSX2  ! 1,X1

     3639    32479        %EJECT;
PL6.E3A0      #001=Z8EM$SEMANTICS_DATA_DIV File=Z8EM.:Z8A6TSI                    SAT 08/09/97 12:08 Page:764
     3640    32480
     3641    32481         /*================*/
     3642    32482    1      PROCESS_INPUT_CD: PROC;

  32482 35 021633   000506 741200 0     PROCESS_INP* STX1  ! LIT$+1

     3643    32483         /*================*/
     3644    32484
     3645    32485
     3646    32486    2   DCL WORK_ST$$          PTR;
     3647    32487    2   DCL CD_ST$$            PTR;
     3648    32488    2   DCL BUFFER_LENGTH      SBIN WORD;
     3649    32489    2   DCL CD_LTS$$           PTR;
     3650    32490    2   DCL PREV_QLT$          PTR;
     3651    32491    2   DCL QLT$$              PTR;
     3652    32492    2   DCL ST$$               PTR;
     3653    32493
     3654    32494
     3655    32495
     3656    32496    2          CALL ALLOCATE_CD_WORK_AREA (WORK_ST$$);

  32496 35 021634   000337 236000 36                 LDQ     223
        35 021635   000041 756000 0                  STQ     @WORK_ST$
        35 021636   000130 701000 35                 TSX1    ALLOCATE_CD_WORK_AREA
        35 021637   000000 011000                    NOP     0

     3657    32497
     3658    32498          /* CD name st item */
     3659    32499
     3660    32500    2          CALL BUILD_ST (CD_ST$$, %LEVEL_00, %TYA, %CLASS_ALPHANUMERIC,

  32500 35 021640   000120 236000 xsym               LDQ     O1COM+80
        35 021641   000001 036003                    ADLQ    1,DU
        35 021642   000122 756000 0                  STQ     @ITEM$
        35 021643   000342 237000 36                 LDAQ    226
        35 021644   000120 757000 0                  STAQ    @QLT$$
        35 021645   000344 237000 36                 LDAQ    228
PL6.E3A0      #001=Z8EM$SEMANTICS_DATA_DIV File=Z8EM.:Z8A6TSI                    SAT 08/09/97 12:08 Page:765
        35 021646   000116 757000 0                  STAQ    @CLASS
        35 021647   000346 237000 36                 LDAQ    230
        35 021650   000114 757000 0                  STAQ    @LEVEL#
        35 021651   000341 236000 36                 LDQ     225
        35 021652   000113 756000 0                  STQ     @ST$$
        35 021653   002007 701000 35                 TSX1    BUILD_ST
        35 021654   000000 011000                    NOP     0

     3661    32501    2                         %GROUP, QLT$$, %LENGTH_0,
     3662    32502    2                  O1COM.CURRENT_CD_ENTRY$ -> LX_CD_INPUT.CD_NAME$);
     3663    32503    2          PREV_QLT$ = QLT$$;

  32503 35 021655   000514 236000 0                  LDQ     QLT$$
        35 021656   000513 756000 0                  STQ     PREV_QLT$

     3664    32504               %UPDATE_PREV_QLT$ (@NEW_QLT$ = QLT$$);

  32506 35 021657   000424 236000 xsym               LDQ     COMCOM+276
        35 021660   000024 116000 36                 CMPQ    20
        35 021661   021665 600000 35                 TZE     s:32508

  32507 35 021662   000514 236000 0                  LDQ     QLT$$
        35 021663   000424 470400 xsym               LDP0    COMCOM+276
        35 021664   000002 756100                    STQ     2,,PR0

  32508 35 021665   000514 236000 0                  LDQ     QLT$$
        35 021666   000424 756000 xsym               STQ     COMCOM+276

     3665    32511
     3666    32512    2          CALL BUILD_ST (ST$$, %LEVEL_01, %TYA, %CLASS_ALPHANUMERIC,

  32512 35 021667   000024 236000 36                 LDQ     20
        35 021670   001023 756000 0                  STQ     PROC$+11
        35 021671   001023 630400 0                  EPPR0   PROC$+11
        35 021672   000122 450400 0                  STP0    @ITEM$
        35 021673   000342 237000 36                 LDAQ    226
        35 021674   000120 757000 0                  STAQ    @QLT$$
PL6.E3A0      #001=Z8EM$SEMANTICS_DATA_DIV File=Z8EM.:Z8A6TSI                    SAT 08/09/97 12:08 Page:766
        35 021675   000344 237000 36                 LDAQ    228
        35 021676   000116 757000 0                  STAQ    @CLASS
        35 021677   000350 237000 36                 LDAQ    232
        35 021700   000114 757000 0                  STAQ    @LEVEL#
        35 021701   000352 236000 36                 LDQ     234
        35 021702   000113 756000 0                  STQ     @ST$$
        35 021703   002007 701000 35                 TSX1    BUILD_ST
        35 021704   000000 011000                    NOP     0

     3667    32513    2                         %GROUP, QLT$$, %LENGTH_0,
     3668    32514    2                         ADDR(NIL));
     3669    32515    2          PREV_QLT$ -> QLT.SON = QLT$$;

  32515 35 021705   000514 236000 0                  LDQ     QLT$$
        35 021706   000513 470400 0                  LDP0    PREV_QLT$
        35 021707   000003 756100                    STQ     3,,PR0

     3670    32516    2          QLT$$ -> QLT.FATHER = PREV_QLT$;

  32516 35 021710   000513 236000 0                  LDQ     PREV_QLT$
        35 021711   000514 471400 0                  LDP1    QLT$$
        35 021712   100001 756100                    STQ     1,,PR1

     3671    32517    2          PREV_QLT$ = QLT$$;

  32517 35 021713   000514 236000 0                  LDQ     QLT$$
        35 021714   000513 756000 0                  STQ     PREV_QLT$

     3672    32518    2          COMCOM.PREV_QLT$ = QLT$$;

  32518 35 021715   000424 756000 xsym               STQ     COMCOM+276

     3673    32519          /* QUEUE name st */
     3674    32520
     3675    32521    2          CALL BUILD_ST (ST$$, %LEVEL_02, %TYA, %CLASS_ALPHANUMERIC,

  32521 35 021716   000120 236000 xsym               LDQ     O1COM+80
PL6.E3A0      #001=Z8EM$SEMANTICS_DATA_DIV File=Z8EM.:Z8A6TSI                    SAT 08/09/97 12:08 Page:767
        35 021717   000003 036003                    ADLQ    3,DU
        35 021720   000122 756000 0                  STQ     @ITEM$
        35 021721   000356 237000 36                 LDAQ    238
        35 021722   000120 757000 0                  STAQ    @QLT$$
        35 021723   000360 237000 36                 LDAQ    240
        35 021724   000116 757000 0                  STAQ    @CLASS
        35 021725   000362 237000 36                 LDAQ    242
        35 021726   000114 757000 0                  STAQ    @LEVEL#
        35 021727   000352 236000 36                 LDQ     234
        35 021730   000113 756000 0                  STQ     @ST$$
        35 021731   002007 701000 35                 TSX1    BUILD_ST
        35 021732   000000 011000                    NOP     0

     3676    32522    2                         %ELEMENTARY, QLT$$, %LENGTH_12,
     3677    32523    2                  O1COM.CURRENT_CD_ENTRY$ -> LX_CD_INPUT.P.QUEUE$);
     3678    32524    2          PREV_QLT$ -> QLT.SON = QLT$$;

  32524 35 021733   000514 236000 0                  LDQ     QLT$$
        35 021734   000513 470400 0                  LDP0    PREV_QLT$
        35 021735   000003 756100                    STQ     3,,PR0

     3679    32525    2          QLT$$ -> QLT.FATHER = PREV_QLT$;

  32525 35 021736   000513 236000 0                  LDQ     PREV_QLT$
        35 021737   000514 471400 0                  LDP1    QLT$$
        35 021740   100001 756100                    STQ     1,,PR1

     3680    32526    2          PREV_QLT$ = QLT$$;

  32526 35 021741   000514 236000 0                  LDQ     QLT$$
        35 021742   000513 756000 0                  STQ     PREV_QLT$

     3681    32527
     3682    32528          /* create SUB-QUEUE-1 name st */
     3683    32529
     3684    32530    2          CALL BUILD_ST (ST$$, %LEVEL_02, %TYA, %CLASS_ALPHANUMERIC,

PL6.E3A0      #001=Z8EM$SEMANTICS_DATA_DIV File=Z8EM.:Z8A6TSI                    SAT 08/09/97 12:08 Page:768
  32530 35 021743   000120 236000 xsym               LDQ     O1COM+80
        35 021744   000004 036003                    ADLQ    4,DU
        35 021745   000122 756000 0                  STQ     @ITEM$
        35 021746   000356 237000 36                 LDAQ    238
        35 021747   000120 757000 0                  STAQ    @QLT$$
        35 021750   000360 237000 36                 LDAQ    240
        35 021751   000116 757000 0                  STAQ    @CLASS
        35 021752   000362 237000 36                 LDAQ    242
        35 021753   000114 757000 0                  STAQ    @LEVEL#
        35 021754   000352 236000 36                 LDQ     234
        35 021755   000113 756000 0                  STQ     @ST$$
        35 021756   002007 701000 35                 TSX1    BUILD_ST
        35 021757   000000 011000                    NOP     0

     3685    32531    2                         %ELEMENTARY, QLT$$, %LENGTH_12,
     3686    32532    2                  O1COM.CURRENT_CD_ENTRY$ -> LX_CD_INPUT.P.SUB_QUEUE_1$);
     3687    32533
     3688    32534               %UPDATE_QLT$;

  32536 35 021760   000514 236000 0                  LDQ     QLT$$
        35 021761   000513 470400 0                  LDP0    PREV_QLT$
        35 021762   000002 756100                    STQ     2,,PR0

  32537 35 021763   000001 236100                    LDQ     1,,PR0
        35 021764   000514 471400 0                  LDP1    QLT$$
        35 021765   100001 756100                    STQ     1,,PR1

  32538 35 021766   000514 236000 0                  LDQ     QLT$$
        35 021767   000513 756000 0                  STQ     PREV_QLT$

     3689    32541
     3690    32542          /* create SUB-QUEUE-2 name st */
     3691    32543
     3692    32544    2          CALL BUILD_ST (ST$$, %LEVEL_02, %TYA, %CLASS_ALPHANUMERIC,

  32544 35 021770   000120 236000 xsym               LDQ     O1COM+80
        35 021771   000005 036003                    ADLQ    5,DU
PL6.E3A0      #001=Z8EM$SEMANTICS_DATA_DIV File=Z8EM.:Z8A6TSI                    SAT 08/09/97 12:08 Page:769
        35 021772   000122 756000 0                  STQ     @ITEM$
        35 021773   000356 237000 36                 LDAQ    238
        35 021774   000120 757000 0                  STAQ    @QLT$$
        35 021775   000360 237000 36                 LDAQ    240
        35 021776   000116 757000 0                  STAQ    @CLASS
        35 021777   000362 237000 36                 LDAQ    242
        35 022000   000114 757000 0                  STAQ    @LEVEL#
        35 022001   000352 236000 36                 LDQ     234
        35 022002   000113 756000 0                  STQ     @ST$$
        35 022003   002007 701000 35                 TSX1    BUILD_ST
        35 022004   000000 011000                    NOP     0

     3693    32545    2                         %ELEMENTARY, QLT$$, %LENGTH_12,
     3694    32546    2                  O1COM.CURRENT_CD_ENTRY$ -> LX_CD_INPUT.P.SUB_QUEUE_2$);
     3695    32547
     3696    32548               %UPDATE_QLT$;

  32550 35 022005   000514 236000 0                  LDQ     QLT$$
        35 022006   000513 470400 0                  LDP0    PREV_QLT$
        35 022007   000002 756100                    STQ     2,,PR0

  32551 35 022010   000001 236100                    LDQ     1,,PR0
        35 022011   000514 471400 0                  LDP1    QLT$$
        35 022012   100001 756100                    STQ     1,,PR1

  32552 35 022013   000514 236000 0                  LDQ     QLT$$
        35 022014   000513 756000 0                  STQ     PREV_QLT$

     3697    32555
     3698    32556          /* create SUB-QUEUE-3 name st */
     3699    32557
     3700    32558    2          CALL BUILD_ST (ST$$, %LEVEL_02, %TYA, %CLASS_ALPHANUMERIC,

  32558 35 022015   000120 236000 xsym               LDQ     O1COM+80
        35 022016   000006 036003                    ADLQ    6,DU
        35 022017   000122 756000 0                  STQ     @ITEM$
        35 022020   000356 237000 36                 LDAQ    238
PL6.E3A0      #001=Z8EM$SEMANTICS_DATA_DIV File=Z8EM.:Z8A6TSI                    SAT 08/09/97 12:08 Page:770
        35 022021   000120 757000 0                  STAQ    @QLT$$
        35 022022   000360 237000 36                 LDAQ    240
        35 022023   000116 757000 0                  STAQ    @CLASS
        35 022024   000362 237000 36                 LDAQ    242
        35 022025   000114 757000 0                  STAQ    @LEVEL#
        35 022026   000352 236000 36                 LDQ     234
        35 022027   000113 756000 0                  STQ     @ST$$
        35 022030   002007 701000 35                 TSX1    BUILD_ST
        35 022031   000000 011000                    NOP     0

     3701    32559    2                         %ELEMENTARY, QLT$$, %LENGTH_12,
     3702    32560    2                  O1COM.CURRENT_CD_ENTRY$ -> LX_CD_INPUT.P.SUB_QUEUE_3$);
     3703    32561
     3704    32562               %UPDATE_QLT$;

  32564 35 022032   000514 236000 0                  LDQ     QLT$$
        35 022033   000513 470400 0                  LDP0    PREV_QLT$
        35 022034   000002 756100                    STQ     2,,PR0

  32565 35 022035   000001 236100                    LDQ     1,,PR0
        35 022036   000514 471400 0                  LDP1    QLT$$
        35 022037   100001 756100                    STQ     1,,PR1

  32566 35 022040   000514 236000 0                  LDQ     QLT$$
        35 022041   000513 756000 0                  STQ     PREV_QLT$

     3705    32569
     3706    32570          /* create MESSAGE DATE st */
     3707    32571
     3708    32572    2          CALL BUILD_ST (ST$$, %LEVEL_02, %TYD, %CLASS_NUMERIC,

  32572 35 022042   000120 236000 xsym               LDQ     O1COM+80
        35 022043   000007 036003                    ADLQ    7,DU
        35 022044   000122 756000 0                  STQ     @ITEM$
        35 022045   000364 237000 36                 LDAQ    244
        35 022046   000120 757000 0                  STAQ    @QLT$$
        35 022047   000366 237000 36                 LDAQ    246
PL6.E3A0      #001=Z8EM$SEMANTICS_DATA_DIV File=Z8EM.:Z8A6TSI                    SAT 08/09/97 12:08 Page:771
        35 022050   000116 757000 0                  STAQ    @CLASS
        35 022051   000370 237000 36                 LDAQ    248
        35 022052   000114 757000 0                  STAQ    @LEVEL#
        35 022053   000352 236000 36                 LDQ     234
        35 022054   000113 756000 0                  STQ     @ST$$
        35 022055   002007 701000 35                 TSX1    BUILD_ST
        35 022056   000000 011000                    NOP     0

     3709    32573    2                         %ELEMENTARY, QLT$$, %LENGTH_6,
     3710    32574    2                  O1COM.CURRENT_CD_ENTRY$ -> LX_CD_INPUT.P.MESSAGE_DATE$);
     3711    32575
     3712    32576               %UPDATE_QLT$;

  32578 35 022057   000514 236000 0                  LDQ     QLT$$
        35 022060   000513 470400 0                  LDP0    PREV_QLT$
        35 022061   000002 756100                    STQ     2,,PR0

  32579 35 022062   000001 236100                    LDQ     1,,PR0
        35 022063   000514 471400 0                  LDP1    QLT$$
        35 022064   100001 756100                    STQ     1,,PR1

  32580 35 022065   000514 236000 0                  LDQ     QLT$$
        35 022066   000513 756000 0                  STQ     PREV_QLT$

     3713    32583    2          ST$$ -> SCALAR.NDSC.S = '11'B;

  32583 35 022067   000515 470400 0                  LDP0    ST$$
        35 022070   030000 236007                    LDQ     12288,DL
        35 022071   000001 256100                    ORSQ    1,,PR0

     3714    32584
     3715    32585          /* create MESSAGE TIME st */
     3716    32586
     3717    32587    2          CALL BUILD_ST (ST$$, %LEVEL_02, %TYD, %CLASS_NUMERIC,

  32587 35 022072   000120 236000 xsym               LDQ     O1COM+80
        35 022073   000010 036003                    ADLQ    8,DU
PL6.E3A0      #001=Z8EM$SEMANTICS_DATA_DIV File=Z8EM.:Z8A6TSI                    SAT 08/09/97 12:08 Page:772
        35 022074   000122 756000 0                  STQ     @ITEM$
        35 022075   000372 237000 36                 LDAQ    250
        35 022076   000120 757000 0                  STAQ    @QLT$$
        35 022077   000366 237000 36                 LDAQ    246
        35 022100   000116 757000 0                  STAQ    @CLASS
        35 022101   000370 237000 36                 LDAQ    248
        35 022102   000114 757000 0                  STAQ    @LEVEL#
        35 022103   000352 236000 36                 LDQ     234
        35 022104   000113 756000 0                  STQ     @ST$$
        35 022105   002007 701000 35                 TSX1    BUILD_ST
        35 022106   000000 011000                    NOP     0

     3718    32588    2                         %ELEMENTARY, QLT$$, %LENGTH_8,
     3719    32589    2                  O1COM.CURRENT_CD_ENTRY$ -> LX_CD_INPUT.P.MESSAGE_TIME$);
     3720    32590
     3721    32591               %UPDATE_QLT$;

  32593 35 022107   000514 236000 0                  LDQ     QLT$$
        35 022110   000513 470400 0                  LDP0    PREV_QLT$
        35 022111   000002 756100                    STQ     2,,PR0

  32594 35 022112   000001 236100                    LDQ     1,,PR0
        35 022113   000514 471400 0                  LDP1    QLT$$
        35 022114   100001 756100                    STQ     1,,PR1

  32595 35 022115   000514 236000 0                  LDQ     QLT$$
        35 022116   000513 756000 0                  STQ     PREV_QLT$

     3722    32598    2          ST$$ -> SCALAR.NDSC.S = '11'B;

  32598 35 022117   000515 470400 0                  LDP0    ST$$
        35 022120   030000 236007                    LDQ     12288,DL
        35 022121   000001 256100                    ORSQ    1,,PR0

     3723    32599
     3724    32600          /* create SYMBOLIC SOURCE st */
     3725    32601
PL6.E3A0      #001=Z8EM$SEMANTICS_DATA_DIV File=Z8EM.:Z8A6TSI                    SAT 08/09/97 12:08 Page:773
     3726    32602    2          CALL BUILD_ST (ST$$, %LEVEL_02, %TYA, %CLASS_ALPHANUMERIC,

  32602 35 022122   000120 236000 xsym               LDQ     O1COM+80
        35 022123   000011 036003                    ADLQ    9,DU
        35 022124   000122 756000 0                  STQ     @ITEM$
        35 022125   000356 237000 36                 LDAQ    238
        35 022126   000120 757000 0                  STAQ    @QLT$$
        35 022127   000360 237000 36                 LDAQ    240
        35 022130   000116 757000 0                  STAQ    @CLASS
        35 022131   000362 237000 36                 LDAQ    242
        35 022132   000114 757000 0                  STAQ    @LEVEL#
        35 022133   000352 236000 36                 LDQ     234
        35 022134   000113 756000 0                  STQ     @ST$$
        35 022135   002007 701000 35                 TSX1    BUILD_ST
        35 022136   000000 011000                    NOP     0

     3727    32603    2                         %ELEMENTARY, QLT$$, %LENGTH_12,
     3728    32604    2                  O1COM.CURRENT_CD_ENTRY$ -> LX_CD_INPUT.P.SYMBOLIC_SOURCE$);
     3729    32605
     3730    32606               %UPDATE_QLT$;

  32608 35 022137   000514 236000 0                  LDQ     QLT$$
        35 022140   000513 470400 0                  LDP0    PREV_QLT$
        35 022141   000002 756100                    STQ     2,,PR0

  32609 35 022142   000001 236100                    LDQ     1,,PR0
        35 022143   000514 471400 0                  LDP1    QLT$$
        35 022144   100001 756100                    STQ     1,,PR1

  32610 35 022145   000514 236000 0                  LDQ     QLT$$
        35 022146   000513 756000 0                  STQ     PREV_QLT$

     3731    32613
     3732    32614          /* create TEXT_LENGTH st */
     3733    32615
     3734    32616    2          CALL BUILD_ST (ST$$, %LEVEL_02, %TYD, %CLASS_NUMERIC,

PL6.E3A0      #001=Z8EM$SEMANTICS_DATA_DIV File=Z8EM.:Z8A6TSI                    SAT 08/09/97 12:08 Page:774
  32616 35 022147   000120 236000 xsym               LDQ     O1COM+80
        35 022150   000012 036003                    ADLQ    10,DU
        35 022151   000122 756000 0                  STQ     @ITEM$
        35 022152   000376 237000 36                 LDAQ    254
        35 022153   000120 757000 0                  STAQ    @QLT$$
        35 022154   000366 237000 36                 LDAQ    246
        35 022155   000116 757000 0                  STAQ    @CLASS
        35 022156   000370 237000 36                 LDAQ    248
        35 022157   000114 757000 0                  STAQ    @LEVEL#
        35 022160   000352 236000 36                 LDQ     234
        35 022161   000113 756000 0                  STQ     @ST$$
        35 022162   002007 701000 35                 TSX1    BUILD_ST
        35 022163   000000 011000                    NOP     0

     3735    32617    2                         %ELEMENTARY, QLT$$, %LENGTH_4,
     3736    32618    2                  O1COM.CURRENT_CD_ENTRY$ -> LX_CD_INPUT.P.TEXT_LENGTH$);
     3737    32619
     3738    32620    2          ST$$ -> SCALAR.NDSC.S = '11'B;

  32620 35 022164   000515 470400 0                  LDP0    ST$$
        35 022165   030000 236007                    LDQ     12288,DL
        35 022166   000001 256100                    ORSQ    1,,PR0

     3739    32621
     3740    32622               %UPDATE_QLT$;

  32624 35 022167   000514 236000 0                  LDQ     QLT$$
        35 022170   000513 470400 0                  LDP0    PREV_QLT$
        35 022171   000002 756100                    STQ     2,,PR0

  32625 35 022172   000001 236100                    LDQ     1,,PR0
        35 022173   000514 471400 0                  LDP1    QLT$$
        35 022174   100001 756100                    STQ     1,,PR1

  32626 35 022175   000514 236000 0                  LDQ     QLT$$
        35 022176   000513 756000 0                  STQ     PREV_QLT$

PL6.E3A0      #001=Z8EM$SEMANTICS_DATA_DIV File=Z8EM.:Z8A6TSI                    SAT 08/09/97 12:08 Page:775
     3741    32629
     3742    32630          /* create END KEY st */
     3743    32631
     3744    32632    2          CALL BUILD_ST (ST$$, %LEVEL_02, %TYA, %CLASS_ALPHANUMERIC,

  32632 35 022177   000120 236000 xsym               LDQ     O1COM+80
        35 022200   000013 036003                    ADLQ    11,DU
        35 022201   000122 756000 0                  STQ     @ITEM$
        35 022202   000400 237000 36                 LDAQ    256
        35 022203   000120 757000 0                  STAQ    @QLT$$
        35 022204   000360 237000 36                 LDAQ    240
        35 022205   000116 757000 0                  STAQ    @CLASS
        35 022206   000362 237000 36                 LDAQ    242
        35 022207   000114 757000 0                  STAQ    @LEVEL#
        35 022210   000352 236000 36                 LDQ     234
        35 022211   000113 756000 0                  STQ     @ST$$
        35 022212   002007 701000 35                 TSX1    BUILD_ST
        35 022213   000000 011000                    NOP     0

     3745    32633    2                         %ELEMENTARY, QLT$$, %LENGTH_1,
     3746    32634    2                  O1COM.CURRENT_CD_ENTRY$ -> LX_CD_INPUT.P.END_KEY$);
     3747    32635
     3748    32636               %UPDATE_QLT$;

  32638 35 022214   000514 236000 0                  LDQ     QLT$$
        35 022215   000513 470400 0                  LDP0    PREV_QLT$
        35 022216   000002 756100                    STQ     2,,PR0

  32639 35 022217   000001 236100                    LDQ     1,,PR0
        35 022220   000514 471400 0                  LDP1    QLT$$
        35 022221   100001 756100                    STQ     1,,PR1

  32640 35 022222   000514 236000 0                  LDQ     QLT$$
        35 022223   000513 756000 0                  STQ     PREV_QLT$

     3749    32643
     3750    32644          /* create STATUS KEY st */
PL6.E3A0      #001=Z8EM$SEMANTICS_DATA_DIV File=Z8EM.:Z8A6TSI                    SAT 08/09/97 12:08 Page:776
     3751    32645
     3752    32646    2          CALL BUILD_ST (ST$$, %LEVEL_02, %TYA, %CLASS_ALPHANUMERIC,

  32646 35 022224   000120 236000 xsym               LDQ     O1COM+80
        35 022225   000014 036003                    ADLQ    12,DU
        35 022226   000122 756000 0                  STQ     @ITEM$
        35 022227   000402 237000 36                 LDAQ    258
        35 022230   000120 757000 0                  STAQ    @QLT$$
        35 022231   000360 237000 36                 LDAQ    240
        35 022232   000116 757000 0                  STAQ    @CLASS
        35 022233   000362 237000 36                 LDAQ    242
        35 022234   000114 757000 0                  STAQ    @LEVEL#
        35 022235   000352 236000 36                 LDQ     234
        35 022236   000113 756000 0                  STQ     @ST$$
        35 022237   002007 701000 35                 TSX1    BUILD_ST
        35 022240   000000 011000                    NOP     0

     3753    32647    2                         %ELEMENTARY, QLT$$, %LENGTH_2,
     3754    32648    2                  O1COM.CURRENT_CD_ENTRY$ -> LX_CD_INPUT.P.STATUS_KEY$);
     3755    32649
     3756    32650               %UPDATE_QLT$;

  32652 35 022241   000514 236000 0                  LDQ     QLT$$
        35 022242   000513 470400 0                  LDP0    PREV_QLT$
        35 022243   000002 756100                    STQ     2,,PR0

  32653 35 022244   000001 236100                    LDQ     1,,PR0
        35 022245   000514 471400 0                  LDP1    QLT$$
        35 022246   100001 756100                    STQ     1,,PR1

  32654 35 022247   000514 236000 0                  LDQ     QLT$$
        35 022250   000513 756000 0                  STQ     PREV_QLT$

     3757    32657
     3758    32658          /* create MESSAGE COUNT st */
     3759    32659
     3760    32660    2          CALL BUILD_ST (ST$$, %LEVEL_02, %TYD, %CLASS_NUMERIC,
PL6.E3A0      #001=Z8EM$SEMANTICS_DATA_DIV File=Z8EM.:Z8A6TSI                    SAT 08/09/97 12:08 Page:777

  32660 35 022251   000120 236000 xsym               LDQ     O1COM+80
        35 022252   000015 036003                    ADLQ    13,DU
        35 022253   000122 756000 0                  STQ     @ITEM$
        35 022254   000364 237000 36                 LDAQ    244
        35 022255   000120 757000 0                  STAQ    @QLT$$
        35 022256   000366 237000 36                 LDAQ    246
        35 022257   000116 757000 0                  STAQ    @CLASS
        35 022260   000370 237000 36                 LDAQ    248
        35 022261   000114 757000 0                  STAQ    @LEVEL#
        35 022262   000352 236000 36                 LDQ     234
        35 022263   000113 756000 0                  STQ     @ST$$
        35 022264   002007 701000 35                 TSX1    BUILD_ST
        35 022265   000000 011000                    NOP     0

     3761    32661    2                         %ELEMENTARY, QLT$$, %LENGTH_6,
     3762    32662    2                  O1COM.CURRENT_CD_ENTRY$ -> LX_CD_INPUT.P.MESSAGE_COUNT$);
     3763    32663
     3764    32664               %UPDATE_QLT$;

  32666 35 022266   000514 236000 0                  LDQ     QLT$$
        35 022267   000513 470400 0                  LDP0    PREV_QLT$
        35 022270   000002 756100                    STQ     2,,PR0

  32667 35 022271   000001 236100                    LDQ     1,,PR0
        35 022272   000514 471400 0                  LDP1    QLT$$
        35 022273   100001 756100                    STQ     1,,PR1

  32668 35 022274   000514 236000 0                  LDQ     QLT$$
        35 022275   000513 756000 0                  STQ     PREV_QLT$

     3765    32671    2          ST$$ -> SCALAR.NDSC.S = '11'B;

  32671 35 022276   000515 470400 0                  LDP0    ST$$
        35 022277   030000 236007                    LDQ     12288,DL
        35 022300   000001 256100                    ORSQ    1,,PR0

PL6.E3A0      #001=Z8EM$SEMANTICS_DATA_DIV File=Z8EM.:Z8A6TSI                    SAT 08/09/97 12:08 Page:778
     3766    32672
     3767    32673    2          CALL GET_CD_BUFFER_LENGTH (O1COM.CURRENT_CD_ENTRY$ -> LX_CD_INPUT.BLOCK$,

  32673 35 022301   000375 236000 36                 LDQ     253
        35 022302   000337 756000 0                  STQ     @BUFFER_LENGTH
        35 022303   000120 236000 xsym               LDQ     O1COM+80
        35 022304   000002 036003                    ADLQ    2,DU
        35 022305   000336 756000 0                  STQ     @ITEM$
        35 022306   011513 701000 35                 TSX1    GET_CD_BUFFER_LENGTH
        35 022307   000000 011000                    NOP     0

     3768    32674    2                                     BUFFER_LENGTH);
     3769    32675
     3770    32676               %NEW_CD_LTS (@POINTER = CD_LTS$$,
     3771    32677                            @LX_CD_TYPE = %LX_CD_INPUT,
     3772    32678                            @CD_ST$     = CD_ST$$,
     3773    32679                            @WORK_ST$   = WORK_ST$$,
     3774    32680                            @BUFFER_LENGTH = BUFFER_LENGTH,
     3775    32681                            @INITIAL   = O1COM.CURRENT_CD_ENTRY$ -> LX_CD_INPUT.B.INITIAL);

  32760 35 022310   000002 236000 8                  LDQ     LTS_+2
        35 022311   000010 036007                    ADLQ    8,DL
        35 022312   000003 116000 8                  CMPQ    LTS_+3
        35 022313   022324 604000 35                 TMI     s:32762

  32761 35 022314   000211 236000 36                 LDQ     137
        35 022315   001012 756000 0                  STQ     PROC$+2
        35 022316   001012 630400 0                  EPPR0   PROC$+2
        35 022317   001013 450400 0                  STP0    PROC$+3
        35 022320   001013 630400 0                  EPPR0   PROC$+3
        35 022321   000036 631400 36                 EPPR1   30
        35 022322   000000 701000 xent               TSX1    Z8AR$RESERVER
        35 022323   000000 011000                    NOP     0

  32762 35 022324   000002 236000 8                  LDQ     LTS_+2
        35 022325   000022 736000                    QLS     18
        35 022326   000001 036000 8                  ADLQ    LTS_+1
PL6.E3A0      #001=Z8EM$SEMANTICS_DATA_DIV File=Z8EM.:Z8A6TSI                    SAT 08/09/97 12:08 Page:779
        35 022327   000512 756000 0                  STQ     CD_LTS$$

  32763 35 022330   000010 236007                    LDQ     8,DL
        35 022331   000002 056000 8                  ASQ     LTS_+2

  32764 35 022332   001072 220003                    LDX0    570,DU
        35 022333   000512 470400 0                  LDP0    CD_LTS$$
        35 022334   000000 740100                    STX0    0,,PR0

  32770 35 022335   000512 470400 0                  LDP0    CD_LTS$$
        35 022336   000000 740100                    STX0    0,,PR0

  32771 35 022337   000510 236000 0                  LDQ     CD_ST$$
        35 022340   000512 470400 0                  LDP0    CD_LTS$$
        35 022341   000002 756100                    STQ     2,,PR0

  32772 35 022342   000507 236000 0                  LDQ     WORK_ST$$
        35 022343   000512 470400 0                  LDP0    CD_LTS$$
        35 022344   000003 756100                    STQ     3,,PR0

  32773 35 022345   000024 236000 36                 LDQ     20
        35 022346   000512 470400 0                  LDP0    CD_LTS$$
        35 022347   000004 756100                    STQ     4,,PR0

  32774 35 022350   000034 235007                    LDA     28,DL
        35 022351   000512 470400 0                  LDP0    CD_LTS$$
        35 022352   000006 755100                    STA     6,,PR0

  32775 35 022353   000512 470400 0                  LDP0    CD_LTS$$
        35 022354   000511 236000 0                  LDQ     BUFFER_LENGTH
        35 022355   000005 756100                    STQ     5,,PR0

  32776 35 022356   000000 221003                    LDX1    0,DU
        35 022357   000512 470400 0                  LDP0    CD_LTS$$
        35 022360   000000 441100                    SXL1    0,,PR0

  32777 35 022361   000512 470400 0                  LDP0    CD_LTS$$
PL6.E3A0      #001=Z8EM$SEMANTICS_DATA_DIV File=Z8EM.:Z8A6TSI                    SAT 08/09/97 12:08 Page:780
        35 022362   000120 471400 xsym               LDP1    O1COM+80
        35 022363   100000 236100                    LDQ     0,,PR1
        35 022364   000000 676100                    ERQ     0,,PR0
        35 022365   400000 376007                    ANQ     -131072,DL
        35 022366   000000 656100                    ERSQ    0,,PR0

  32778 35 022367   000024 236000 36                 LDQ     20
        35 022370   000512 470400 0                  LDP0    CD_LTS$$
        35 022371   000007 756100                    STQ     7,,PR0

  32779 35 022372   000511 722000 0                  LXL2    BUFFER_LENGTH
        35 022373   777774 623012                    EAX3    -4,X2
        35 022374   000512 470400 0                  LDP0    CD_LTS$$
        35 022375   000001 743100                    STX3    1,,PR0

  32780 35 022376   000512 470400 0                  LDP0    CD_LTS$$
        35 022377   000001 441100                    SXL1    1,,PR0

     3776    32783
     3777    32784    2          CALL Z8DO$LINK_WITH_LTS (CD_ST$$ -> SCALAR.LTS$, CD_LTS$$);

  32784 35 022400   000404 236000 36                 LDQ     260
        35 022401   001013 756000 0                  STQ     PROC$+3
        35 022402   000510 236000 0                  LDQ     CD_ST$$
        35 022403   000005 036003                    ADLQ    5,DU
        35 022404   001012 756000 0                  STQ     PROC$+2
        35 022405   001012 630400 0                  EPPR0   PROC$+2
        35 022406   000025 631400 36                 EPPR1   21
        35 022407   000000 701000 xent               TSX1    Z8DO$LINK_WITH_LTS
        35 022410   000000 011000                    NOP     0

     3778    32785
     3779    32786               %DISPOSE_HEAP (@POINTER = O1COM.CURRENT_CD_ENTRY$,
     3780    32787                              @SIZE    = "LENGTHW (LX_CD_INPUT)");

  32789 35 022411   000406 630400 36                 EPPR0   262
        35 022412   000025 631400 36                 EPPR1   21
PL6.E3A0      #001=Z8EM$SEMANTICS_DATA_DIV File=Z8EM.:Z8A6TSI                    SAT 08/09/97 12:08 Page:781
        35 022413   000000 701000 xent               TSX1    Z8ED$DISPOSE_HEAP
        35 022414   000000 011000                    NOP     0

     3781    32792
     3782    32793    2          O1COM.CURRENT_CD_ENTRY$ = CD_LTS$$;

  32793 35 022415   000512 236000 0                  LDQ     CD_LTS$$
        35 022416   000120 756000 xsym               STQ     O1COM+80

     3783    32794
     3784    32795    2    END PROCESS_INPUT_CD;

  32795 35 022417   000506 221200 0                  LDX1  ! LIT$+1
        35 022420   000001 702211                    TSX2  ! 1,X1

     3785    32796         %EJECT;
PL6.E3A0      #001=Z8EM$SEMANTICS_DATA_DIV File=Z8EM.:Z8A6TSI                    SAT 08/09/97 12:08 Page:782
     3786    32797
     3787    32798
     3788    32799
     3789    32800         /*==============*/
     3790    32801    1      PROCESS_I_O_CD: PROC;

  32801 35 022421   000516 741200 0     PROCESS_I_O* STX1  ! ST$$+1

     3791    32802         /*==============*/
     3792    32803
     3793    32804
     3794    32805    2   DCL WORK_ST$$          PTR;
     3795    32806    2   DCL CD_ST$$            PTR;
     3796    32807    2   DCL BUFFER_LENGTH      SBIN WORD;
     3797    32808    2   DCL CD_LTS$$           PTR;
     3798    32809    2   DCL PREV_QLT$          PTR;
     3799    32810    2   DCL QLT$$              PTR;
     3800    32811    2   DCL ST$$               PTR;
     3801    32812
     3802    32813
     3803    32814
     3804    32815    2          CALL ALLOCATE_CD_WORK_AREA (WORK_ST$$);

  32815 35 022422   000410 236000 36                 LDQ     264
        35 022423   000041 756000 0                  STQ     @WORK_ST$
        35 022424   000130 701000 35                 TSX1    ALLOCATE_CD_WORK_AREA
        35 022425   000000 011000                    NOP     0

     3805    32816
     3806    32817          /* CD name st item */
     3807    32818
     3808    32819    2          CALL BUILD_ST (CD_ST$$, %LEVEL_00, %TYA, %CLASS_ALPHANUMERIC,

  32819 35 022426   000120 236000 xsym               LDQ     O1COM+80
        35 022427   000001 036003                    ADLQ    1,DU
        35 022430   000122 756000 0                  STQ     @ITEM$
        35 022431   000412 237000 36                 LDAQ    266
PL6.E3A0      #001=Z8EM$SEMANTICS_DATA_DIV File=Z8EM.:Z8A6TSI                    SAT 08/09/97 12:08 Page:783
        35 022432   000120 757000 0                  STAQ    @QLT$$
        35 022433   000344 237000 36                 LDAQ    228
        35 022434   000116 757000 0                  STAQ    @CLASS
        35 022435   000346 237000 36                 LDAQ    230
        35 022436   000114 757000 0                  STAQ    @LEVEL#
        35 022437   000414 236000 36                 LDQ     268
        35 022440   000113 756000 0                  STQ     @ST$$
        35 022441   002007 701000 35                 TSX1    BUILD_ST
        35 022442   000000 011000                    NOP     0

     3809    32820    2                         %GROUP, QLT$$, %LENGTH_0,
     3810    32821    2                  O1COM.CURRENT_CD_ENTRY$ -> LX_CD_I_O.CD_NAME$);
     3811    32822    2          PREV_QLT$ = QLT$$;

  32822 35 022443   000524 236000 0                  LDQ     QLT$$
        35 022444   000523 756000 0                  STQ     PREV_QLT$

     3812    32823               %UPDATE_PREV_QLT$ (@NEW_QLT$ = QLT$$);

  32825 35 022445   000424 236000 xsym               LDQ     COMCOM+276
        35 022446   000024 116000 36                 CMPQ    20
        35 022447   022453 600000 35                 TZE     s:32827

  32826 35 022450   000524 236000 0                  LDQ     QLT$$
        35 022451   000424 470400 xsym               LDP0    COMCOM+276
        35 022452   000002 756100                    STQ     2,,PR0

  32827 35 022453   000524 236000 0                  LDQ     QLT$$
        35 022454   000424 756000 xsym               STQ     COMCOM+276

     3813    32830
     3814    32831    2          CALL BUILD_ST (ST$$, %LEVEL_01, %TYA, %CLASS_ALPHANUMERIC,

  32831 35 022455   000024 236000 36                 LDQ     20
        35 022456   001024 756000 0                  STQ     PROC$+12
        35 022457   001024 630400 0                  EPPR0   PROC$+12
        35 022460   000122 450400 0                  STP0    @ITEM$
PL6.E3A0      #001=Z8EM$SEMANTICS_DATA_DIV File=Z8EM.:Z8A6TSI                    SAT 08/09/97 12:08 Page:784
        35 022461   000412 237000 36                 LDAQ    266
        35 022462   000120 757000 0                  STAQ    @QLT$$
        35 022463   000344 237000 36                 LDAQ    228
        35 022464   000116 757000 0                  STAQ    @CLASS
        35 022465   000350 237000 36                 LDAQ    232
        35 022466   000114 757000 0                  STAQ    @LEVEL#
        35 022467   000415 236000 36                 LDQ     269
        35 022470   000113 756000 0                  STQ     @ST$$
        35 022471   002007 701000 35                 TSX1    BUILD_ST
        35 022472   000000 011000                    NOP     0

     3815    32832    2                         %GROUP, QLT$$, %LENGTH_0,
     3816    32833    2                         ADDR(NIL));
     3817    32834    2          PREV_QLT$ -> QLT.SON = QLT$$;

  32834 35 022473   000524 236000 0                  LDQ     QLT$$
        35 022474   000523 470400 0                  LDP0    PREV_QLT$
        35 022475   000003 756100                    STQ     3,,PR0

     3818    32835    2          QLT$$ -> QLT.FATHER = PREV_QLT$;

  32835 35 022476   000523 236000 0                  LDQ     PREV_QLT$
        35 022477   000524 471400 0                  LDP1    QLT$$
        35 022500   100001 756100                    STQ     1,,PR1

     3819    32836    2          PREV_QLT$ = QLT$$;

  32836 35 022501   000524 236000 0                  LDQ     QLT$$
        35 022502   000523 756000 0                  STQ     PREV_QLT$

     3820    32837    2          COMCOM.PREV_QLT$ = QLT$$;

  32837 35 022503   000424 756000 xsym               STQ     COMCOM+276

     3821    32838          /* create MESSAGE DATE st */
     3822    32839
     3823    32840    2          CALL BUILD_ST (ST$$, %LEVEL_02, %TYD, %CLASS_NUMERIC,
PL6.E3A0      #001=Z8EM$SEMANTICS_DATA_DIV File=Z8EM.:Z8A6TSI                    SAT 08/09/97 12:08 Page:785

  32840 35 022504   000120 236000 xsym               LDQ     O1COM+80
        35 022505   000003 036003                    ADLQ    3,DU
        35 022506   000122 756000 0                  STQ     @ITEM$
        35 022507   000416 237000 36                 LDAQ    270
        35 022510   000120 757000 0                  STAQ    @QLT$$
        35 022511   000366 237000 36                 LDAQ    246
        35 022512   000116 757000 0                  STAQ    @CLASS
        35 022513   000370 237000 36                 LDAQ    248
        35 022514   000114 757000 0                  STAQ    @LEVEL#
        35 022515   000415 236000 36                 LDQ     269
        35 022516   000113 756000 0                  STQ     @ST$$
        35 022517   002007 701000 35                 TSX1    BUILD_ST
        35 022520   000000 011000                    NOP     0

     3824    32841    2                         %ELEMENTARY, QLT$$, %LENGTH_6,
     3825    32842    2                  O1COM.CURRENT_CD_ENTRY$ -> LX_CD_I_O.P.MESSAGE_DATE$);
     3826    32843
     3827    32844    2          PREV_QLT$ -> QLT.SON = QLT$$;

  32844 35 022521   000524 236000 0                  LDQ     QLT$$
        35 022522   000523 470400 0                  LDP0    PREV_QLT$
        35 022523   000003 756100                    STQ     3,,PR0

     3828    32845    2          QLT$$ -> QLT.FATHER = PREV_QLT$;

  32845 35 022524   000523 236000 0                  LDQ     PREV_QLT$
        35 022525   000524 471400 0                  LDP1    QLT$$
        35 022526   100001 756100                    STQ     1,,PR1

     3829    32846    2          PREV_QLT$ = QLT$$;

  32846 35 022527   000524 236000 0                  LDQ     QLT$$
        35 022530   000523 756000 0                  STQ     PREV_QLT$

     3830    32847    2          ST$$ -> SCALAR.NDSC.S = '11'B;

PL6.E3A0      #001=Z8EM$SEMANTICS_DATA_DIV File=Z8EM.:Z8A6TSI                    SAT 08/09/97 12:08 Page:786
  32847 35 022531   000525 470400 0                  LDP0    ST$$
        35 022532   030000 236007                    LDQ     12288,DL
        35 022533   000001 256100                    ORSQ    1,,PR0

     3831    32848
     3832    32849          /* create MESSAGE TIME st */
     3833    32850
     3834    32851    2          CALL BUILD_ST (ST$$, %LEVEL_02, %TYD, %CLASS_NUMERIC,

  32851 35 022534   000120 236000 xsym               LDQ     O1COM+80
        35 022535   000004 036003                    ADLQ    4,DU
        35 022536   000122 756000 0                  STQ     @ITEM$
        35 022537   000420 237000 36                 LDAQ    272
        35 022540   000120 757000 0                  STAQ    @QLT$$
        35 022541   000366 237000 36                 LDAQ    246
        35 022542   000116 757000 0                  STAQ    @CLASS
        35 022543   000370 237000 36                 LDAQ    248
        35 022544   000114 757000 0                  STAQ    @LEVEL#
        35 022545   000415 236000 36                 LDQ     269
        35 022546   000113 756000 0                  STQ     @ST$$
        35 022547   002007 701000 35                 TSX1    BUILD_ST
        35 022550   000000 011000                    NOP     0

     3835    32852    2                         %ELEMENTARY, QLT$$, %LENGTH_8,
     3836    32853    2                  O1COM.CURRENT_CD_ENTRY$ -> LX_CD_I_O.P.MESSAGE_TIME$);
     3837    32854
     3838    32855               %UPDATE_QLT$;

  32857 35 022551   000524 236000 0                  LDQ     QLT$$
        35 022552   000523 470400 0                  LDP0    PREV_QLT$
        35 022553   000002 756100                    STQ     2,,PR0

  32858 35 022554   000001 236100                    LDQ     1,,PR0
        35 022555   000524 471400 0                  LDP1    QLT$$
        35 022556   100001 756100                    STQ     1,,PR1

  32859 35 022557   000524 236000 0                  LDQ     QLT$$
PL6.E3A0      #001=Z8EM$SEMANTICS_DATA_DIV File=Z8EM.:Z8A6TSI                    SAT 08/09/97 12:08 Page:787
        35 022560   000523 756000 0                  STQ     PREV_QLT$

     3839    32862    2          ST$$ -> SCALAR.NDSC.S = '11'B;

  32862 35 022561   000525 470400 0                  LDP0    ST$$
        35 022562   030000 236007                    LDQ     12288,DL
        35 022563   000001 256100                    ORSQ    1,,PR0

     3840    32863
     3841    32864          /* create SYMBOLIC TERMINAL st */
     3842    32865
     3843    32866    2          CALL BUILD_ST (ST$$, %LEVEL_02, %TYA, %CLASS_ALPHANUMERIC,

  32866 35 022564   000120 236000 xsym               LDQ     O1COM+80
        35 022565   000005 036003                    ADLQ    5,DU
        35 022566   000122 756000 0                  STQ     @ITEM$
        35 022567   000422 237000 36                 LDAQ    274
        35 022570   000120 757000 0                  STAQ    @QLT$$
        35 022571   000360 237000 36                 LDAQ    240
        35 022572   000116 757000 0                  STAQ    @CLASS
        35 022573   000362 237000 36                 LDAQ    242
        35 022574   000114 757000 0                  STAQ    @LEVEL#
        35 022575   000415 236000 36                 LDQ     269
        35 022576   000113 756000 0                  STQ     @ST$$
        35 022577   002007 701000 35                 TSX1    BUILD_ST
        35 022600   000000 011000                    NOP     0

     3844    32867    2                         %ELEMENTARY, QLT$$, %LENGTH_12,
     3845    32868    2                  O1COM.CURRENT_CD_ENTRY$ -> LX_CD_I_O.P.TERMINAL$);
     3846    32869
     3847    32870               %UPDATE_QLT$;

  32872 35 022601   000524 236000 0                  LDQ     QLT$$
        35 022602   000523 470400 0                  LDP0    PREV_QLT$
        35 022603   000002 756100                    STQ     2,,PR0

  32873 35 022604   000001 236100                    LDQ     1,,PR0
PL6.E3A0      #001=Z8EM$SEMANTICS_DATA_DIV File=Z8EM.:Z8A6TSI                    SAT 08/09/97 12:08 Page:788
        35 022605   000524 471400 0                  LDP1    QLT$$
        35 022606   100001 756100                    STQ     1,,PR1

  32874 35 022607   000524 236000 0                  LDQ     QLT$$
        35 022610   000523 756000 0                  STQ     PREV_QLT$

     3848    32877
     3849    32878          /* create TEXT_LENGTH st */
     3850    32879
     3851    32880    2          CALL BUILD_ST (ST$$, %LEVEL_02, %TYD, %CLASS_NUMERIC,

  32880 35 022611   000120 236000 xsym               LDQ     O1COM+80
        35 022612   000006 036003                    ADLQ    6,DU
        35 022613   000122 756000 0                  STQ     @ITEM$
        35 022614   000424 237000 36                 LDAQ    276
        35 022615   000120 757000 0                  STAQ    @QLT$$
        35 022616   000366 237000 36                 LDAQ    246
        35 022617   000116 757000 0                  STAQ    @CLASS
        35 022620   000370 237000 36                 LDAQ    248
        35 022621   000114 757000 0                  STAQ    @LEVEL#
        35 022622   000415 236000 36                 LDQ     269
        35 022623   000113 756000 0                  STQ     @ST$$
        35 022624   002007 701000 35                 TSX1    BUILD_ST
        35 022625   000000 011000                    NOP     0

     3852    32881    2                         %ELEMENTARY, QLT$$, %LENGTH_4,
     3853    32882    2                  O1COM.CURRENT_CD_ENTRY$ -> LX_CD_I_O.P.TEXT_LENGTH$);
     3854    32883
     3855    32884    2          ST$$ -> SCALAR.NDSC.S = '11'B;

  32884 35 022626   000525 470400 0                  LDP0    ST$$
        35 022627   030000 236007                    LDQ     12288,DL
        35 022630   000001 256100                    ORSQ    1,,PR0

     3856    32885
     3857    32886               %UPDATE_QLT$;

PL6.E3A0      #001=Z8EM$SEMANTICS_DATA_DIV File=Z8EM.:Z8A6TSI                    SAT 08/09/97 12:08 Page:789
  32888 35 022631   000524 236000 0                  LDQ     QLT$$
        35 022632   000523 470400 0                  LDP0    PREV_QLT$
        35 022633   000002 756100                    STQ     2,,PR0

  32889 35 022634   000001 236100                    LDQ     1,,PR0
        35 022635   000524 471400 0                  LDP1    QLT$$
        35 022636   100001 756100                    STQ     1,,PR1

  32890 35 022637   000524 236000 0                  LDQ     QLT$$
        35 022640   000523 756000 0                  STQ     PREV_QLT$

     3858    32893
     3859    32894          /* create END KEY st */
     3860    32895
     3861    32896    2          CALL BUILD_ST (ST$$, %LEVEL_02, %TYA, %CLASS_ALPHANUMERIC,

  32896 35 022641   000120 236000 xsym               LDQ     O1COM+80
        35 022642   000007 036003                    ADLQ    7,DU
        35 022643   000122 756000 0                  STQ     @ITEM$
        35 022644   000426 237000 36                 LDAQ    278
        35 022645   000120 757000 0                  STAQ    @QLT$$
        35 022646   000360 237000 36                 LDAQ    240
        35 022647   000116 757000 0                  STAQ    @CLASS
        35 022650   000362 237000 36                 LDAQ    242
        35 022651   000114 757000 0                  STAQ    @LEVEL#
        35 022652   000415 236000 36                 LDQ     269
        35 022653   000113 756000 0                  STQ     @ST$$
        35 022654   002007 701000 35                 TSX1    BUILD_ST
        35 022655   000000 011000                    NOP     0

     3862    32897    2                         %ELEMENTARY, QLT$$, %LENGTH_1,
     3863    32898    2                  O1COM.CURRENT_CD_ENTRY$ -> LX_CD_I_O.P.END_KEY$);
     3864    32899
     3865    32900               %UPDATE_QLT$;

  32902 35 022656   000524 236000 0                  LDQ     QLT$$
        35 022657   000523 470400 0                  LDP0    PREV_QLT$
PL6.E3A0      #001=Z8EM$SEMANTICS_DATA_DIV File=Z8EM.:Z8A6TSI                    SAT 08/09/97 12:08 Page:790
        35 022660   000002 756100                    STQ     2,,PR0

  32903 35 022661   000001 236100                    LDQ     1,,PR0
        35 022662   000524 471400 0                  LDP1    QLT$$
        35 022663   100001 756100                    STQ     1,,PR1

  32904 35 022664   000524 236000 0                  LDQ     QLT$$
        35 022665   000523 756000 0                  STQ     PREV_QLT$

     3866    32907
     3867    32908          /* create STATUS KEY st */
     3868    32909
     3869    32910    2          CALL BUILD_ST (ST$$, %LEVEL_02, %TYA, %CLASS_ALPHANUMERIC,

  32910 35 022666   000120 236000 xsym               LDQ     O1COM+80
        35 022667   000010 036003                    ADLQ    8,DU
        35 022670   000122 756000 0                  STQ     @ITEM$
        35 022671   000430 237000 36                 LDAQ    280
        35 022672   000120 757000 0                  STAQ    @QLT$$
        35 022673   000360 237000 36                 LDAQ    240
        35 022674   000116 757000 0                  STAQ    @CLASS
        35 022675   000362 237000 36                 LDAQ    242
        35 022676   000114 757000 0                  STAQ    @LEVEL#
        35 022677   000415 236000 36                 LDQ     269
        35 022700   000113 756000 0                  STQ     @ST$$
        35 022701   002007 701000 35                 TSX1    BUILD_ST
        35 022702   000000 011000                    NOP     0

     3870    32911    2                         %ELEMENTARY, QLT$$, %LENGTH_2,
     3871    32912    2                  O1COM.CURRENT_CD_ENTRY$ -> LX_CD_I_O.P.STATUS_KEY$);
     3872    32913
     3873    32914               %UPDATE_QLT$;

  32916 35 022703   000524 236000 0                  LDQ     QLT$$
        35 022704   000523 470400 0                  LDP0    PREV_QLT$
        35 022705   000002 756100                    STQ     2,,PR0

PL6.E3A0      #001=Z8EM$SEMANTICS_DATA_DIV File=Z8EM.:Z8A6TSI                    SAT 08/09/97 12:08 Page:791
  32917 35 022706   000001 236100                    LDQ     1,,PR0
        35 022707   000524 471400 0                  LDP1    QLT$$
        35 022710   100001 756100                    STQ     1,,PR1

  32918 35 022711   000524 236000 0                  LDQ     QLT$$
        35 022712   000523 756000 0                  STQ     PREV_QLT$

     3874    32921
     3875    32922    2          CALL GET_CD_BUFFER_LENGTH (O1COM.CURRENT_CD_ENTRY$ -> LX_CD_I_O.BLOCK$,

  32922 35 022713   000432 236000 36                 LDQ     282
        35 022714   000337 756000 0                  STQ     @BUFFER_LENGTH
        35 022715   000120 236000 xsym               LDQ     O1COM+80
        35 022716   000002 036003                    ADLQ    2,DU
        35 022717   000336 756000 0                  STQ     @ITEM$
        35 022720   011513 701000 35                 TSX1    GET_CD_BUFFER_LENGTH
        35 022721   000000 011000                    NOP     0

     3876    32923    2                                     BUFFER_LENGTH);
     3877    32924
     3878    32925               %NEW_CD_LTS (@POINTER = CD_LTS$$,
     3879    32926                            @LX_CD_TYPE = %LX_CD_I_O,
     3880    32927                            @CD_ST$     = CD_ST$$,
     3881    32928                            @WORK_ST$   = WORK_ST$$,
     3882    32929                            @BUFFER_LENGTH = BUFFER_LENGTH,
     3883    32930                            @INITIAL    = O1COM.CURRENT_CD_ENTRY$ -> LX_CD_I_O.B.INITIAL);

  33009 35 022722   000002 236000 8                  LDQ     LTS_+2
        35 022723   000010 036007                    ADLQ    8,DL
        35 022724   000003 116000 8                  CMPQ    LTS_+3
        35 022725   022736 604000 35                 TMI     s:33011

  33010 35 022726   000211 236000 36                 LDQ     137
        35 022727   001012 756000 0                  STQ     PROC$+2
        35 022730   001012 630400 0                  EPPR0   PROC$+2
        35 022731   001013 450400 0                  STP0    PROC$+3
        35 022732   001013 630400 0                  EPPR0   PROC$+3
PL6.E3A0      #001=Z8EM$SEMANTICS_DATA_DIV File=Z8EM.:Z8A6TSI                    SAT 08/09/97 12:08 Page:792
        35 022733   000036 631400 36                 EPPR1   30
        35 022734   000000 701000 xent               TSX1    Z8AR$RESERVER
        35 022735   000000 011000                    NOP     0

  33011 35 022736   000002 236000 8                  LDQ     LTS_+2
        35 022737   000022 736000                    QLS     18
        35 022740   000001 036000 8                  ADLQ    LTS_+1
        35 022741   000522 756000 0                  STQ     CD_LTS$$

  33012 35 022742   000010 236007                    LDQ     8,DL
        35 022743   000002 056000 8                  ASQ     LTS_+2

  33013 35 022744   001072 220003                    LDX0    570,DU
        35 022745   000522 470400 0                  LDP0    CD_LTS$$
        35 022746   000000 740100                    STX0    0,,PR0

  33019 35 022747   000522 470400 0                  LDP0    CD_LTS$$
        35 022750   000000 740100                    STX0    0,,PR0

  33020 35 022751   000520 236000 0                  LDQ     CD_ST$$
        35 022752   000522 470400 0                  LDP0    CD_LTS$$
        35 022753   000002 756100                    STQ     2,,PR0

  33021 35 022754   000517 236000 0                  LDQ     WORK_ST$$
        35 022755   000522 470400 0                  LDP0    CD_LTS$$
        35 022756   000003 756100                    STQ     3,,PR0

  33022 35 022757   000024 236000 36                 LDQ     20
        35 022760   000522 470400 0                  LDP0    CD_LTS$$
        35 022761   000004 756100                    STQ     4,,PR0

  33023 35 022762   000036 235007                    LDA     30,DL
        35 022763   000522 470400 0                  LDP0    CD_LTS$$
        35 022764   000006 755100                    STA     6,,PR0

  33024 35 022765   000522 470400 0                  LDP0    CD_LTS$$
        35 022766   000521 236000 0                  LDQ     BUFFER_LENGTH
PL6.E3A0      #001=Z8EM$SEMANTICS_DATA_DIV File=Z8EM.:Z8A6TSI                    SAT 08/09/97 12:08 Page:793
        35 022767   000005 756100                    STQ     5,,PR0

  33025 35 022770   000000 221003                    LDX1    0,DU
        35 022771   000522 470400 0                  LDP0    CD_LTS$$
        35 022772   000000 441100                    SXL1    0,,PR0

  33026 35 022773   000522 470400 0                  LDP0    CD_LTS$$
        35 022774   000120 471400 xsym               LDP1    O1COM+80
        35 022775   100000 236100                    LDQ     0,,PR1
        35 022776   000000 676100                    ERQ     0,,PR0
        35 022777   400000 376007                    ANQ     -131072,DL
        35 023000   000000 656100                    ERSQ    0,,PR0

  33027 35 023001   000024 236000 36                 LDQ     20
        35 023002   000522 470400 0                  LDP0    CD_LTS$$
        35 023003   000007 756100                    STQ     7,,PR0

  33028 35 023004   000521 722000 0                  LXL2    BUFFER_LENGTH
        35 023005   777774 623012                    EAX3    -4,X2
        35 023006   000522 470400 0                  LDP0    CD_LTS$$
        35 023007   000001 743100                    STX3    1,,PR0

  33029 35 023010   000522 470400 0                  LDP0    CD_LTS$$
        35 023011   000001 441100                    SXL1    1,,PR0

     3884    33032
     3885    33033    2          CALL Z8DO$LINK_WITH_LTS (CD_ST$$ -> SCALAR.LTS$, CD_LTS$$);

  33033 35 023012   000433 236000 36                 LDQ     283
        35 023013   001013 756000 0                  STQ     PROC$+3
        35 023014   000520 236000 0                  LDQ     CD_ST$$
        35 023015   000005 036003                    ADLQ    5,DU
        35 023016   001012 756000 0                  STQ     PROC$+2
        35 023017   001012 630400 0                  EPPR0   PROC$+2
        35 023020   000025 631400 36                 EPPR1   21
        35 023021   000000 701000 xent               TSX1    Z8DO$LINK_WITH_LTS
        35 023022   000000 011000                    NOP     0
PL6.E3A0      #001=Z8EM$SEMANTICS_DATA_DIV File=Z8EM.:Z8A6TSI                    SAT 08/09/97 12:08 Page:794

     3886    33034
     3887    33035               %DISPOSE_HEAP (@POINTER = O1COM.CURRENT_CD_ENTRY$,
     3888    33036                              @SIZE    = "LENGTHW (LX_CD_I_O)");

  33038 35 023023   000434 630400 36                 EPPR0   284
        35 023024   000025 631400 36                 EPPR1   21
        35 023025   000000 701000 xent               TSX1    Z8ED$DISPOSE_HEAP
        35 023026   000000 011000                    NOP     0

     3889    33041
     3890    33042    2          O1COM.CURRENT_CD_ENTRY$ = CD_LTS$$;

  33042 35 023027   000522 236000 0                  LDQ     CD_LTS$$
        35 023030   000120 756000 xsym               STQ     O1COM+80

     3891    33043
     3892    33044    2    END PROCESS_I_O_CD;

  33044 35 023031   000516 221200 0                  LDX1  ! ST$$+1
        35 023032   000001 702211                    TSX2  ! 1,X1

     3893    33045         %EJECT;
PL6.E3A0      #001=Z8EM$SEMANTICS_DATA_DIV File=Z8EM.:Z8A6TSI                    SAT 08/09/97 12:08 Page:795
     3894    33046
     3895    33047
     3896    33048
     3897    33049         /*=================*/
     3898    33050    1      PROCESS_OUTPUT_CD: PROC;

  33050 35 023033   000526 741200 0     PROCESS_OUT* STX1  ! ST$$+1

     3899    33051         /*=================*/
     3900    33052
     3901    33053
     3902    33054    2   DCL WORK_ST$$          PTR;
     3903    33055    2   DCL CD_ST$$            PTR;
     3904    33056    2   DCL BUFFER_LENGTH      SBIN WORD;
     3905    33057    2   DCL CD_LTS$$           PTR;
     3906    33058    2   DCL PREV_QLT$          PTR;
     3907    33059    2   DCL QLT$$              PTR;
     3908    33060    2   DCL ST$$               PTR;
     3909    33061    2   DCL OCCURS_INT         SBIN WORD;
     3910    33062
     3911    33063
     3912    33064    2          CALL ALLOCATE_CD_WORK_AREA (WORK_ST$$);

  33064 35 023034   000436 236000 36                 LDQ     286
        35 023035   000041 756000 0                  STQ     @WORK_ST$
        35 023036   000130 701000 35                 TSX1    ALLOCATE_CD_WORK_AREA
        35 023037   000000 011000                    NOP     0

     3913    33065
     3914    33066          /* CD name st item */
     3915    33067
     3916    33068    2          CALL BUILD_ST (CD_ST$$, %LEVEL_00, %TYA, %CLASS_ALPHANUMERIC,

  33068 35 023040   000120 236000 xsym               LDQ     O1COM+80
        35 023041   000001 036003                    ADLQ    1,DU
        35 023042   000122 756000 0                  STQ     @ITEM$
        35 023043   000440 237000 36                 LDAQ    288
PL6.E3A0      #001=Z8EM$SEMANTICS_DATA_DIV File=Z8EM.:Z8A6TSI                    SAT 08/09/97 12:08 Page:796
        35 023044   000120 757000 0                  STAQ    @QLT$$
        35 023045   000344 237000 36                 LDAQ    228
        35 023046   000116 757000 0                  STAQ    @CLASS
        35 023047   000346 237000 36                 LDAQ    230
        35 023050   000114 757000 0                  STAQ    @LEVEL#
        35 023051   000442 236000 36                 LDQ     290
        35 023052   000113 756000 0                  STQ     @ST$$
        35 023053   002007 701000 35                 TSX1    BUILD_ST
        35 023054   000000 011000                    NOP     0

     3917    33069    2                         %GROUP, QLT$$, %LENGTH_0,
     3918    33070    2                  O1COM.CURRENT_CD_ENTRY$ -> LX_CD_OUTPUT.CD_NAME$);
     3919    33071    2          PREV_QLT$ = QLT$$;

  33071 35 023055   000534 236000 0                  LDQ     QLT$$
        35 023056   000533 756000 0                  STQ     PREV_QLT$

     3920    33072               %UPDATE_PREV_QLT$ (@NEW_QLT$ = QLT$$);

  33074 35 023057   000424 236000 xsym               LDQ     COMCOM+276
        35 023060   000024 116000 36                 CMPQ    20
        35 023061   023065 600000 35                 TZE     s:33076

  33075 35 023062   000534 236000 0                  LDQ     QLT$$
        35 023063   000424 470400 xsym               LDP0    COMCOM+276
        35 023064   000002 756100                    STQ     2,,PR0

  33076 35 023065   000534 236000 0                  LDQ     QLT$$
        35 023066   000424 756000 xsym               STQ     COMCOM+276

     3921    33079
     3922    33080    2          CALL BUILD_ST (ST$$, %LEVEL_01, %TYA, %CLASS_ALPHANUMERIC,

  33080 35 023067   000024 236000 36                 LDQ     20
        35 023070   001025 756000 0                  STQ     PROC$+13
        35 023071   001025 630400 0                  EPPR0   PROC$+13
        35 023072   000122 450400 0                  STP0    @ITEM$
PL6.E3A0      #001=Z8EM$SEMANTICS_DATA_DIV File=Z8EM.:Z8A6TSI                    SAT 08/09/97 12:08 Page:797
        35 023073   000440 237000 36                 LDAQ    288
        35 023074   000120 757000 0                  STAQ    @QLT$$
        35 023075   000344 237000 36                 LDAQ    228
        35 023076   000116 757000 0                  STAQ    @CLASS
        35 023077   000350 237000 36                 LDAQ    232
        35 023100   000114 757000 0                  STAQ    @LEVEL#
        35 023101   000443 236000 36                 LDQ     291
        35 023102   000113 756000 0                  STQ     @ST$$
        35 023103   002007 701000 35                 TSX1    BUILD_ST
        35 023104   000000 011000                    NOP     0

     3923    33081    2                         %GROUP, QLT$$, %LENGTH_0,
     3924    33082    2                         ADDR(NIL));
     3925    33083    2          PREV_QLT$ -> QLT.SON = QLT$$;

  33083 35 023105   000534 236000 0                  LDQ     QLT$$
        35 023106   000533 470400 0                  LDP0    PREV_QLT$
        35 023107   000003 756100                    STQ     3,,PR0

     3926    33084    2          QLT$$ -> QLT.FATHER = PREV_QLT$;

  33084 35 023110   000533 236000 0                  LDQ     PREV_QLT$
        35 023111   000534 471400 0                  LDP1    QLT$$
        35 023112   100001 756100                    STQ     1,,PR1

     3927    33085    2          PREV_QLT$ = QLT$$;

  33085 35 023113   000534 236000 0                  LDQ     QLT$$
        35 023114   000533 756000 0                  STQ     PREV_QLT$

     3928    33086    2          COMCOM.PREV_QLT$ = QLT$$;

  33086 35 023115   000424 756000 xsym               STQ     COMCOM+276

     3929    33087
     3930    33088          /* create DESTINATION COUNT st */
     3931    33089
PL6.E3A0      #001=Z8EM$SEMANTICS_DATA_DIV File=Z8EM.:Z8A6TSI                    SAT 08/09/97 12:08 Page:798
     3932    33090    2          CALL BUILD_ST (ST$$, %LEVEL_02, %TYD, %CLASS_NUMERIC,

  33090 35 023116   000120 236000 xsym               LDQ     O1COM+80
        35 023117   000003 036003                    ADLQ    3,DU
        35 023120   000122 756000 0                  STQ     @ITEM$
        35 023121   000444 237000 36                 LDAQ    292
        35 023122   000120 757000 0                  STAQ    @QLT$$
        35 023123   000366 237000 36                 LDAQ    246
        35 023124   000116 757000 0                  STAQ    @CLASS
        35 023125   000370 237000 36                 LDAQ    248
        35 023126   000114 757000 0                  STAQ    @LEVEL#
        35 023127   000443 236000 36                 LDQ     291
        35 023130   000113 756000 0                  STQ     @ST$$
        35 023131   002007 701000 35                 TSX1    BUILD_ST
        35 023132   000000 011000                    NOP     0

     3933    33091    2                         %ELEMENTARY, QLT$$, %LENGTH_4,
     3934    33092    2                  O1COM.CURRENT_CD_ENTRY$ -> LX_CD_OUTPUT.P.DESTINATION_COUNT$);
     3935    33093
     3936    33094    2          PREV_QLT$ -> QLT.SON = QLT$$;

  33094 35 023133   000534 236000 0                  LDQ     QLT$$
        35 023134   000533 470400 0                  LDP0    PREV_QLT$
        35 023135   000003 756100                    STQ     3,,PR0

     3937    33095    2          QLT$$ -> QLT.FATHER = PREV_QLT$;

  33095 35 023136   000533 236000 0                  LDQ     PREV_QLT$
        35 023137   000534 471400 0                  LDP1    QLT$$
        35 023140   100001 756100                    STQ     1,,PR1

     3938    33096    2          PREV_QLT$ = QLT$$;

  33096 35 023141   000534 236000 0                  LDQ     QLT$$
        35 023142   000533 756000 0                  STQ     PREV_QLT$

     3939    33097    2          ST$$ -> SCALAR.NDSC.S = '11'B;
PL6.E3A0      #001=Z8EM$SEMANTICS_DATA_DIV File=Z8EM.:Z8A6TSI                    SAT 08/09/97 12:08 Page:799

  33097 35 023143   000535 470400 0                  LDP0    ST$$
        35 023144   030000 236007                    LDQ     12288,DL
        35 023145   000001 256100                    ORSQ    1,,PR0

     3940    33098
     3941    33099          /* create TEXT_LENGTH st */
     3942    33100
     3943    33101    2          CALL BUILD_ST (ST$$, %LEVEL_02, %TYD, %CLASS_NUMERIC,

  33101 35 023146   000120 236000 xsym               LDQ     O1COM+80
        35 023147   000004 036003                    ADLQ    4,DU
        35 023150   000122 756000 0                  STQ     @ITEM$
        35 023151   000444 237000 36                 LDAQ    292
        35 023152   000120 757000 0                  STAQ    @QLT$$
        35 023153   000366 237000 36                 LDAQ    246
        35 023154   000116 757000 0                  STAQ    @CLASS
        35 023155   000370 237000 36                 LDAQ    248
        35 023156   000114 757000 0                  STAQ    @LEVEL#
        35 023157   000443 236000 36                 LDQ     291
        35 023160   000113 756000 0                  STQ     @ST$$
        35 023161   002007 701000 35                 TSX1    BUILD_ST
        35 023162   000000 011000                    NOP     0

     3944    33102    2                         %ELEMENTARY, QLT$$, %LENGTH_4,
     3945    33103    2                  O1COM.CURRENT_CD_ENTRY$ -> LX_CD_OUTPUT.P.TEXT_LENGTH$);
     3946    33104
     3947    33105    2          ST$$ -> SCALAR.NDSC.S = '11'B;

  33105 35 023163   000535 470400 0                  LDP0    ST$$
        35 023164   030000 236007                    LDQ     12288,DL
        35 023165   000001 256100                    ORSQ    1,,PR0

     3948    33106
     3949    33107               %UPDATE_QLT$;

  33109 35 023166   000534 236000 0                  LDQ     QLT$$
PL6.E3A0      #001=Z8EM$SEMANTICS_DATA_DIV File=Z8EM.:Z8A6TSI                    SAT 08/09/97 12:08 Page:800
        35 023167   000533 470400 0                  LDP0    PREV_QLT$
        35 023170   000002 756100                    STQ     2,,PR0

  33110 35 023171   000001 236100                    LDQ     1,,PR0
        35 023172   000534 471400 0                  LDP1    QLT$$
        35 023173   100001 756100                    STQ     1,,PR1

  33111 35 023174   000534 236000 0                  LDQ     QLT$$
        35 023175   000533 756000 0                  STQ     PREV_QLT$

     3950    33114
     3951    33115          /* create STATUS KEY st */
     3952    33116
     3953    33117    2          CALL BUILD_ST (ST$$, %LEVEL_02, %TYA, %CLASS_ALPHANUMERIC,

  33117 35 023176   000120 236000 xsym               LDQ     O1COM+80
        35 023177   000005 036003                    ADLQ    5,DU
        35 023200   000122 756000 0                  STQ     @ITEM$
        35 023201   000446 237000 36                 LDAQ    294
        35 023202   000120 757000 0                  STAQ    @QLT$$
        35 023203   000360 237000 36                 LDAQ    240
        35 023204   000116 757000 0                  STAQ    @CLASS
        35 023205   000362 237000 36                 LDAQ    242
        35 023206   000114 757000 0                  STAQ    @LEVEL#
        35 023207   000443 236000 36                 LDQ     291
        35 023210   000113 756000 0                  STQ     @ST$$
        35 023211   002007 701000 35                 TSX1    BUILD_ST
        35 023212   000000 011000                    NOP     0

     3954    33118    2                         %ELEMENTARY, QLT$$, %LENGTH_2,
     3955    33119    2                  O1COM.CURRENT_CD_ENTRY$ -> LX_CD_OUTPUT.P.STATUS_KEY$);
     3956    33120
     3957    33121               %UPDATE_QLT$;

  33123 35 023213   000534 236000 0                  LDQ     QLT$$
        35 023214   000533 470400 0                  LDP0    PREV_QLT$
        35 023215   000002 756100                    STQ     2,,PR0
PL6.E3A0      #001=Z8EM$SEMANTICS_DATA_DIV File=Z8EM.:Z8A6TSI                    SAT 08/09/97 12:08 Page:801

  33124 35 023216   000001 236100                    LDQ     1,,PR0
        35 023217   000534 471400 0                  LDP1    QLT$$
        35 023220   100001 756100                    STQ     1,,PR1

  33125 35 023221   000534 236000 0                  LDQ     QLT$$
        35 023222   000533 756000 0                  STQ     PREV_QLT$

     3958    33128
     3959    33129          /* create DESTINATION TABLE st */
     3960    33130
     3961    33131    2          CALL BUILD_ST (ST$$, %LEVEL_02, %TYA, %CLASS_ALPHANUMERIC,

  33131 35 023223   000120 236000 xsym               LDQ     O1COM+80
        35 023224   000006 036003                    ADLQ    6,DU
        35 023225   000122 756000 0                  STQ     @ITEM$
        35 023226   000440 237000 36                 LDAQ    288
        35 023227   000120 757000 0                  STAQ    @QLT$$
        35 023230   000344 237000 36                 LDAQ    228
        35 023231   000116 757000 0                  STAQ    @CLASS
        35 023232   000362 237000 36                 LDAQ    242
        35 023233   000114 757000 0                  STAQ    @LEVEL#
        35 023234   000443 236000 36                 LDQ     291
        35 023235   000113 756000 0                  STQ     @ST$$
        35 023236   002007 701000 35                 TSX1    BUILD_ST
        35 023237   000000 011000                    NOP     0

     3962    33132    2                         %GROUP, QLT$$, %LENGTH_0,
     3963    33133    2                  O1COM.CURRENT_CD_ENTRY$ -> LX_CD_OUTPUT.P.DESTINATION_TABLE$);
     3964    33134               %UPDATE_QLT$;

  33136 35 023240   000534 236000 0                  LDQ     QLT$$
        35 023241   000533 470400 0                  LDP0    PREV_QLT$
        35 023242   000002 756100                    STQ     2,,PR0

  33137 35 023243   000001 236100                    LDQ     1,,PR0
        35 023244   000534 471400 0                  LDP1    QLT$$
PL6.E3A0      #001=Z8EM$SEMANTICS_DATA_DIV File=Z8EM.:Z8A6TSI                    SAT 08/09/97 12:08 Page:802
        35 023245   100001 756100                    STQ     1,,PR1

  33138 35 023246   000534 236000 0                  LDQ     QLT$$
        35 023247   000533 756000 0                  STQ     PREV_QLT$

     3965    33141
     3966    33142    2          IF O1COM.CURRENT_CD_ENTRY$ -> LX_CD_OUTPUT.P.OCCURS$ ~= ADDR(NIL) THEN

  33142 35 023250   000120 470400 xsym               LDP0    O1COM+80
        35 023251   000011 236100                    LDQ     9,,PR0
        35 023252   000024 116000 36                 CMPQ    20
        35 023253   023270 600000 35                 TZE     s:33150

     3967    33143    3            DO;

     3968    33144    3              CALL PROCESS_CD_OCCURS (OCCURS_INT,

  33144 35 023254   000443 236000 36                 LDQ     291
        35 023255   000465 756000 0                  STQ     @ST$$
        35 023256   000120 236000 xsym               LDQ     O1COM+80
        35 023257   000012 036003                    ADLQ    10,DU
        35 023260   000464 756000 0                  STQ     @INDEX_LIST$
        35 023261   000120 236000 xsym               LDQ     O1COM+80
        35 023262   000011 036003                    ADLQ    9,DU
        35 023263   000450 235000 36                 LDA     296
        35 023264   000462 757000 0                  STAQ    @OCCURS_INT
        35 023265   021260 701000 35                 TSX1    PROCESS_CD_OCCURS
        35 023266   000000 011000                    NOP     0

     3969    33145    3                          O1COM.CURRENT_CD_ENTRY$ -> LX_CD_OUTPUT.P.OCCURS$,
     3970    33146    3                          O1COM.CURRENT_CD_ENTRY$ -> LX_CD_OUTPUT.P.INDEX_LIST$,
     3971    33147    3                          ST$$);
     3972    33148    3            END;

  33148 35 023267   023272 710000 35                 TRA     s:33154

     3973    33149    2          ELSE
PL6.E3A0      #001=Z8EM$SEMANTICS_DATA_DIV File=Z8EM.:Z8A6TSI                    SAT 08/09/97 12:08 Page:803
     3974    33150    2            OCCURS_INT = 1;

  33150 35 023270   000001 235007                    LDA     1,DL
        35 023271   000536 755000 0                  STA     OCCURS_INT

     3975    33151
     3976    33152          /* create ERROR KEY st */
     3977    33153
     3978    33154    2          CALL BUILD_ST (ST$$, %LEVEL_03, %TYA, %CLASS_ALPHANUMERIC,

  33154 35 023272   000120 236000 xsym               LDQ     O1COM+80
        35 023273   000007 036003                    ADLQ    7,DU
        35 023274   000122 756000 0                  STQ     @ITEM$
        35 023275   000452 237000 36                 LDAQ    298
        35 023276   000120 757000 0                  STAQ    @QLT$$
        35 023277   000360 237000 36                 LDAQ    240
        35 023300   000116 757000 0                  STAQ    @CLASS
        35 023301   000454 237000 36                 LDAQ    300
        35 023302   000114 757000 0                  STAQ    @LEVEL#
        35 023303   000443 236000 36                 LDQ     291
        35 023304   000113 756000 0                  STQ     @ST$$
        35 023305   002007 701000 35                 TSX1    BUILD_ST
        35 023306   000000 011000                    NOP     0

     3979    33155    2                         %ELEMENTARY, QLT$$, %LENGTH_1,
     3980    33156    2                  O1COM.CURRENT_CD_ENTRY$ -> LX_CD_OUTPUT.P.ERROR_KEY$);
     3981    33157
     3982    33158    2          PREV_QLT$ -> QLT.SON = QLT$$;

  33158 35 023307   000534 236000 0                  LDQ     QLT$$
        35 023310   000533 470400 0                  LDP0    PREV_QLT$
        35 023311   000003 756100                    STQ     3,,PR0

     3983    33159    2          QLT$$ -> QLT.FATHER = PREV_QLT$;

  33159 35 023312   000533 236000 0                  LDQ     PREV_QLT$
        35 023313   000534 471400 0                  LDP1    QLT$$
PL6.E3A0      #001=Z8EM$SEMANTICS_DATA_DIV File=Z8EM.:Z8A6TSI                    SAT 08/09/97 12:08 Page:804
        35 023314   100001 756100                    STQ     1,,PR1

     3984    33160    2          PREV_QLT$ = QLT$$;

  33160 35 023315   000534 236000 0                  LDQ     QLT$$
        35 023316   000533 756000 0                  STQ     PREV_QLT$

     3985    33161
     3986    33162          /* create SYMBOLIC DESTINATION st */
     3987    33163
     3988    33164    2          CALL BUILD_ST (ST$$, %LEVEL_03, %TYA, %CLASS_ALPHANUMERIC,

  33164 35 023317   000120 236000 xsym               LDQ     O1COM+80
        35 023320   000010 036003                    ADLQ    8,DU
        35 023321   000122 756000 0                  STQ     @ITEM$
        35 023322   000456 237000 36                 LDAQ    302
        35 023323   000120 757000 0                  STAQ    @QLT$$
        35 023324   000360 237000 36                 LDAQ    240
        35 023325   000116 757000 0                  STAQ    @CLASS
        35 023326   000454 237000 36                 LDAQ    300
        35 023327   000114 757000 0                  STAQ    @LEVEL#
        35 023330   000443 236000 36                 LDQ     291
        35 023331   000113 756000 0                  STQ     @ST$$
        35 023332   002007 701000 35                 TSX1    BUILD_ST
        35 023333   000000 011000                    NOP     0

     3989    33165    2                         %ELEMENTARY, QLT$$, %LENGTH_12,
     3990    33166    2                  O1COM.CURRENT_CD_ENTRY$ -> LX_CD_OUTPUT.P.SYMBOLIC_DESTINATION$);
     3991    33167
     3992    33168               %UPDATE_QLT$;

  33170 35 023334   000534 236000 0                  LDQ     QLT$$
        35 023335   000533 470400 0                  LDP0    PREV_QLT$
        35 023336   000002 756100                    STQ     2,,PR0

  33171 35 023337   000001 236100                    LDQ     1,,PR0
        35 023340   000534 471400 0                  LDP1    QLT$$
PL6.E3A0      #001=Z8EM$SEMANTICS_DATA_DIV File=Z8EM.:Z8A6TSI                    SAT 08/09/97 12:08 Page:805
        35 023341   100001 756100                    STQ     1,,PR1

  33172 35 023342   000534 236000 0                  LDQ     QLT$$
        35 023343   000533 756000 0                  STQ     PREV_QLT$

     3993    33175
     3994    33176
     3995    33177    2          CALL GET_CD_BUFFER_LENGTH (O1COM.CURRENT_CD_ENTRY$ -> LX_CD_OUTPUT.BLOCK$,

  33177 35 023344   000460 236000 36                 LDQ     304
        35 023345   000337 756000 0                  STQ     @BUFFER_LENGTH
        35 023346   000120 236000 xsym               LDQ     O1COM+80
        35 023347   000002 036003                    ADLQ    2,DU
        35 023350   000336 756000 0                  STQ     @ITEM$
        35 023351   011513 701000 35                 TSX1    GET_CD_BUFFER_LENGTH
        35 023352   000000 011000                    NOP     0

     3996    33178    2                                     BUFFER_LENGTH);
     3997    33179
     3998    33180               %NEW_CD_LTS (@POINTER = CD_LTS$$,
     3999    33181                            @LX_CD_TYPE = %LX_CD_OUTPUT,
     4000    33182                            @CD_ST$     = CD_ST$$,
     4001    33183                            @WORK_ST$   = WORK_ST$$,
     4002    33184                            @BUFFER_LENGTH = BUFFER_LENGTH,
     4003    33185                            @OCCURS     = OCCURS_INT);

  33264 35 023353   000002 236000 8                  LDQ     LTS_+2
        35 023354   000010 036007                    ADLQ    8,DL
        35 023355   000003 116000 8                  CMPQ    LTS_+3
        35 023356   023367 604000 35                 TMI     s:33266

  33265 35 023357   000211 236000 36                 LDQ     137
        35 023360   001012 756000 0                  STQ     PROC$+2
        35 023361   001012 630400 0                  EPPR0   PROC$+2
        35 023362   001013 450400 0                  STP0    PROC$+3
        35 023363   001013 630400 0                  EPPR0   PROC$+3
        35 023364   000036 631400 36                 EPPR1   30
PL6.E3A0      #001=Z8EM$SEMANTICS_DATA_DIV File=Z8EM.:Z8A6TSI                    SAT 08/09/97 12:08 Page:806
        35 023365   000000 701000 xent               TSX1    Z8AR$RESERVER
        35 023366   000000 011000                    NOP     0

  33266 35 023367   000002 236000 8                  LDQ     LTS_+2
        35 023370   000022 736000                    QLS     18
        35 023371   000001 036000 8                  ADLQ    LTS_+1
        35 023372   000532 756000 0                  STQ     CD_LTS$$

  33267 35 023373   000010 236007                    LDQ     8,DL
        35 023374   000002 056000 8                  ASQ     LTS_+2

  33268 35 023375   001072 220003                    LDX0    570,DU
        35 023376   000532 470400 0                  LDP0    CD_LTS$$
        35 023377   000000 740100                    STX0    0,,PR0

  33274 35 023400   000532 470400 0                  LDP0    CD_LTS$$
        35 023401   000000 740100                    STX0    0,,PR0

  33275 35 023402   000530 236000 0                  LDQ     CD_ST$$
        35 023403   000532 470400 0                  LDP0    CD_LTS$$
        35 023404   000002 756100                    STQ     2,,PR0

  33276 35 023405   000527 236000 0                  LDQ     WORK_ST$$
        35 023406   000532 470400 0                  LDP0    CD_LTS$$
        35 023407   000003 756100                    STQ     3,,PR0

  33277 35 023410   000024 236000 36                 LDQ     20
        35 023411   000532 470400 0                  LDP0    CD_LTS$$
        35 023412   000004 756100                    STQ     4,,PR0

  33278 35 023413   000035 235007                    LDA     29,DL
        35 023414   000532 470400 0                  LDP0    CD_LTS$$
        35 023415   000006 755100                    STA     6,,PR0

  33279 35 023416   000532 470400 0                  LDP0    CD_LTS$$
        35 023417   000531 236000 0                  LDQ     BUFFER_LENGTH
        35 023420   000005 756100                    STQ     5,,PR0
PL6.E3A0      #001=Z8EM$SEMANTICS_DATA_DIV File=Z8EM.:Z8A6TSI                    SAT 08/09/97 12:08 Page:807

  33280 35 023421   000000 221003                    LDX1    0,DU
        35 023422   000532 470400 0                  LDP0    CD_LTS$$
        35 023423   000000 441100                    SXL1    0,,PR0

  33281 35 023424   000532 470400 0                  LDP0    CD_LTS$$
        35 023425   000104 236000 36                 LDQ     68
        35 023426   000000 356100                    ANSQ    0,,PR0

  33282 35 023427   000024 236000 36                 LDQ     20
        35 023430   000532 470400 0                  LDP0    CD_LTS$$
        35 023431   000007 756100                    STQ     7,,PR0

  33283 35 023432   000531 722000 0                  LXL2    BUFFER_LENGTH
        35 023433   777774 623012                    EAX3    -4,X2
        35 023434   000532 470400 0                  LDP0    CD_LTS$$
        35 023435   000001 743100                    STX3    1,,PR0

  33284 35 023436   000536 722000 0                  LXL2    OCCURS_INT
        35 023437   000532 470400 0                  LDP0    CD_LTS$$
        35 023440   000001 442100                    SXL2    1,,PR0

     4004    33287
     4005    33288    2          CALL Z8DO$LINK_WITH_LTS (CD_ST$$ -> SCALAR.LTS$, CD_LTS$$);

  33288 35 023441   000461 236000 36                 LDQ     305
        35 023442   001013 756000 0                  STQ     PROC$+3
        35 023443   000530 236000 0                  LDQ     CD_ST$$
        35 023444   000005 036003                    ADLQ    5,DU
        35 023445   001012 756000 0                  STQ     PROC$+2
        35 023446   001012 630400 0                  EPPR0   PROC$+2
        35 023447   000025 631400 36                 EPPR1   21
        35 023450   000000 701000 xent               TSX1    Z8DO$LINK_WITH_LTS
        35 023451   000000 011000                    NOP     0

     4006    33289
     4007    33290               %DISPOSE_HEAP (@POINTER = O1COM.CURRENT_CD_ENTRY$,
PL6.E3A0      #001=Z8EM$SEMANTICS_DATA_DIV File=Z8EM.:Z8A6TSI                    SAT 08/09/97 12:08 Page:808
     4008    33291                              @SIZE    = "LENGTHW (LX_CD_OUTPUT)");

  33293 35 023452   000463 630400 36                 EPPR0   307
        35 023453   000025 631400 36                 EPPR1   21
        35 023454   000000 701000 xent               TSX1    Z8ED$DISPOSE_HEAP
        35 023455   000000 011000                    NOP     0

     4009    33296
     4010    33297    2          O1COM.CURRENT_CD_ENTRY$ = CD_LTS$$;

  33297 35 023456   000532 236000 0                  LDQ     CD_LTS$$
        35 023457   000120 756000 xsym               STQ     O1COM+80

     4011    33298
     4012    33299    2    END PROCESS_OUTPUT_CD;

  33299 35 023460   000526 221200 0                  LDX1  ! ST$$+1
        35 023461   000001 702211                    TSX2  ! 1,X1

     4013    33300         %EJECT;
PL6.E3A0      #001=Z8EM$SEMANTICS_DATA_DIV File=Z8EM.:Z8A6TSI                    SAT 08/09/97 12:08 Page:809
     4014    33301        /*=======================*/
     4015    33302    1     PROCESS_REMAINING_TABLE: PROC (ALPHA_ST$, NEXT_SEQ#);

  33302 35 023462   000537 741200 0     PROCESS_REM* STX1  ! OCCURS_INT+1

     4016    33303        /*=======================*/
     4017    33304
     4018    33305    2   DCL ALPHA_ST$          PTR;
     4019    33306    2   DCL TABLE$             PTR;
     4020    33307    2   DCL NEXT_SEQ#          UBIN WORD;
     4021    33308
     4022    33309    2   DCL I                  SBIN WORD;
     4023    33310    2   DCL HIGH               SBIN WORD;
     4024    33311    2   DCL 1 TABLE            ALIGNED BASED,
     4025    33312    2       2 ELEMENT          (0:511) UBIN (9) UNAL;
     4026    33313    2   DCL LAST               SBIN WORD;
     4027    33314    2   DCL TABLE_START$       PTR;
     4028    33315
     4029    33316    2      TABLE_START$ = ALPHA_ST$ -> ALPHABET.TABLE$;

  33316 35 023463   000540 470400 0                  LDP0    @ALPHA_ST$
        35 023464   000000 471500                    LDP1    0,,PR0
        35 023465   100005 236100                    LDQ     5,,PR1
        35 023466   000546 756000 0                  STQ     TABLE_START$

     4030    33317
     4031    33318    2      IF ALPHA_ST$ -> ALPHABET.NUM_VALUES > 256

  33318 35 023467   100007 720100                    LXL0    7,,PR1
        35 023470   000401 100003                    CMPX0   257,DU
        35 023471   023475 603000 35                 TRC     s:33320
        35 023472   100003 236100                    LDQ     3,,PR1
        35 023473   100000 316003                    CANQ    32768,DU
        35 023474   023500 600000 35                 TZE     s:33322

     4032    33319    2      OR ALPHA_ST$ -> ALPHABET.B.GTR_255 THEN
     4033    33320    2        HIGH = 511;
PL6.E3A0      #001=Z8EM$SEMANTICS_DATA_DIV File=Z8EM.:Z8A6TSI                    SAT 08/09/97 12:08 Page:810

  33320 35 023475   000777 235007                    LDA     511,DL
        35 023476   000544 755000 0                  STA     HIGH
        35 023477   023502 710000 35                 TRA     s:33324

     4034    33321    2      ELSE
     4035    33322    2        HIGH = 255;

  33322 35 023500   000377 235007                    LDA     255,DL
        35 023501   000544 755000 0                  STA     HIGH

     4036    33323
     4037    33324    3      DO I = 0 TO HIGH;

  33324 35 023502   000543 450000 0                  STZ     I
        35 023503   023524 710000 35                 TRA     s:33330+1

     4038    33325    3        IF TABLE_START$ -> TABLE.ELEMENT (I) = BITBIN('777'O) THEN

  33325 35 023504   000546 470400 0                  LDP0    TABLE_START$
        35 023505   000543 235000 0                  LDA     I
        35 023506   000000 101505                    MRL     fill='000'O
        35 023507   000000 000001                    ADSC9   0,A,PR0                  cn=0,n=1
        35 023510   001012 000004 0                  ADSC9   PROC$+2                  cn=0,n=4
        35 023511   001012 236000 0                  LDQ     PROC$+2
        35 023512   000777 116007                    CMPQ    511,DL
        35 023513   023523 601000 35                 TNZ     s:33330

     4039    33326    4          DO;

     4040    33327    4            TABLE_START$ -> TABLE.ELEMENT (I) = NEXT_SEQ#;

  33327 35 023514   000541 471400 0                  LDP1    @NEXT_SEQ#
        35 023515   000105 101500                    MRL     fill='000'O
        35 023516   100000 000004                    ADSC9   0,,PR1                   cn=0,n=4
        35 023517   000000 000001                    ADSC9   0,A,PR0                  cn=0,n=1

PL6.E3A0      #001=Z8EM$SEMANTICS_DATA_DIV File=Z8EM.:Z8A6TSI                    SAT 08/09/97 12:08 Page:811
     4041    33328    4            NEXT_SEQ# = NEXT_SEQ# + 1;

  33328 35 023520   100000 235100                    LDA     0,,PR1
        35 023521   000001 035007                    ADLA    1,DL
        35 023522   100000 755100                    STA     0,,PR1

     4042    33329    4          END;

     4043    33330    3      END; /* Iterated do */

  33330 35 023523   000543 054000 0                  AOS     I
        35 023524   000543 236000 0                  LDQ     I
        35 023525   000544 116000 0                  CMPQ    HIGH
        35 023526   023504 604400 35                 TMOZ    s:33325

     4044    33331
     4045    33332    3      DO I = (HIGH + 1) TO 511;

  33332 35 023527   000544 235000 0                  LDA     HIGH
        35 023530   000001 035007                    ADLA    1,DL
        35 023531   000543 755000 0                  STA     I
        35 023532   023541 710000 35                 TRA     s:33334+1

     4046    33333    3        TABLE_START$ -> TABLE.ELEMENT (I) = BITBIN('134'O);/* Backslash -- \ -- */

  33333 35 023533   000546 470400 0                  LDP0    TABLE_START$
        35 023534   000543 235000 0                  LDA     I
        35 023535   000105 101400                    MRL     fill='000'O
        35 023536   000465 000004 36                 ADSC9   309                      cn=0,n=4
        35 023537   000000 000001                    ADSC9   0,A,PR0                  cn=0,n=1

     4047    33334    3      END; /* Iterated do */

  33334 35 023540   000543 054000 0                  AOS     I
        35 023541   000543 235000 0                  LDA     I
        35 023542   000777 115007                    CMPA    511,DL
        35 023543   023533 604400 35                 TMOZ    s:33333
PL6.E3A0      #001=Z8EM$SEMANTICS_DATA_DIV File=Z8EM.:Z8A6TSI                    SAT 08/09/97 12:08 Page:812

     4048    33335
     4049    33336    2      LAST = 0;

  33336 35 023544   000545 450000 0                  STZ     LAST

     4050    33337
     4051    33338    3      DO I = 0 TO HIGH;

  33338 35 023545   000543 450000 0                  STZ     I
        35 023546   023565 710000 35                 TRA     s:33342+1

     4052    33339    3        IF TABLE_START$ -> TABLE.ELEMENT(I)

  33339 35 023547   000546 470400 0                  LDP0    TABLE_START$
        35 023550   000543 235000 0                  LDA     I
        35 023551   000000 101505                    MRL     fill='000'O
        35 023552   000000 000001                    ADSC9   0,A,PR0                  cn=0,n=1
        35 023553   001012 000004 0                  ADSC9   PROC$+2                  cn=0,n=4
        35 023554   000545 236000 0                  LDQ     LAST
        35 023555   000000 101506                    MRL     fill='000'O
        35 023556   000000 000001                    ADSC9   0,Q,PR0                  cn=0,n=1
        35 023557   001013 000004 0                  ADSC9   PROC$+3                  cn=0,n=4
        35 023560   001013 236000 0                  LDQ     PROC$+3
        35 023561   001012 116000 0                  CMPQ    PROC$+2
        35 023562   023564 605000 35                 TPL     s:33342

     4053    33340    3        >  TABLE_START$ -> TABLE.ELEMENT(LAST) THEN
     4054    33341    3          LAST = I;

  33341 35 023563   000545 755000 0                  STA     LAST

     4055    33342    3      END;

  33342 35 023564   000543 054000 0                  AOS     I
        35 023565   000543 236000 0                  LDQ     I
        35 023566   000544 116000 0                  CMPQ    HIGH
PL6.E3A0      #001=Z8EM$SEMANTICS_DATA_DIV File=Z8EM.:Z8A6TSI                    SAT 08/09/97 12:08 Page:813
        35 023567   023547 604400 35                 TMOZ    s:33339

     4056    33343
     4057    33344    2      ALPHA_ST$ -> ALPHABET.HIGH_VALUE = LAST;

  33344 35 023570   000540 470400 0                  LDP0    @ALPHA_ST$
        35 023571   000000 471500                    LDP1    0,,PR0
        35 023572   000545 236000 0                  LDQ     LAST
        35 023573   000033 736000                    QLS     27
        35 023574   100007 552140                    STBQ    7,'40'O,PR1

     4058    33345
     4059    33346    2   END PROCESS_REMAINING_TABLE;

  33346 35 023575   000537 221200 0                  LDX1  ! OCCURS_INT+1
        35 023576   000001 702211                    TSX2  ! 1,X1

     4060    33347        %EJECT;
PL6.E3A0      #001=Z8EM$SEMANTICS_DATA_DIV File=Z8EM.:Z8A6TSI                    SAT 08/09/97 12:08 Page:814
     4061    33348
     4062    33349          /*====================*/
     4063    33350    1       PROCESS_REPORT_ITEMS:   PROC ;   /* CALLED WHEN {ACT_FD_NDD_END} */

  33350 35 023577   000547 741200 0     PROCESS_REP* STX1  ! TABLE_START$+1

     4064    33351          /*====================*/
     4065    33352
     4066    33353
     4067    33354
     4068    33355    2     DCL REPORT_NAME$         PTR; /* Ptr to LX_ITEM for <report-name> */
     4069    33356    2     DCL LTS_LIST$$           PTR;
     4070    33357    2     DCL RD$$                 PTR; /* Ptr to RD st item */
     4071    33358    2     DCL ST$$                 PTR;
     4072    33359    2     DCL QLT_FATHER$$         PTR; /* Ptr to file name QLT */
     4073    33360    2     DCL QLT$$                PTR;
     4074    33361    2     DCL LIST$$               PTR;
     4075    33362
     4076    33363          /*
     4077    33364                 Functions performed:
     4078    33365                    1. Init RD ST item
     4079    33366                    2. Enter in QLT
     4080    33367                    3. Init REPORT_LTS item
     4081    33368                    4. Duplicate report name check
     4082    33369                    5. Link QLTs of the reports in one file
     4083    33370                    6. Let the file QLT be the father of the report QLT
     4084    33371
     4085    33372          */
     4086    33373
     4087    33374          %EJECT;
PL6.E3A0      #001=Z8EM$SEMANTICS_DATA_DIV File=Z8EM.:Z8A6TSI                    SAT 08/09/97 12:08 Page:815
     4088    33375
     4089    33376    2     LIST$$ = O1COM.CURRENT_FILE_LTS$ -> FILE_LTS.REPORT$ ;

  33376 35 023600   000045 470400 xsym               LDP0    O1COM+37
        35 023601   000040 236100                    LDQ     32,,PR0
        35 023602   000556 756000 0                  STQ     LIST$$

     4090    33377
     4091    33378    2     LTS_LIST$$ = ADDR(NIL);

  33378 35 023603   000024 236000 36                 LDQ     20
        35 023604   000551 756000 0                  STQ     LTS_LIST$$

     4092    33379
     4093    33380    2     QLT_FATHER$$ = O1COM.CURRENT_FILE_LTS$ -> FILE_LTS.ST$ -> FD.QLT$;

  33380 35 023605   000001 471500                    LDP1    1,,PR0
        35 023606   100007 236100                    LDQ     7,,PR1
        35 023607   000554 756000 0                  STQ     QLT_FATHER$$

     4094    33381    2     REPORT_NAME$ = LIST$$ -> LX_LIST.HEAD$ ;

  33381 35 023610   000556 473400 0                  LDP3    LIST$$
        35 023611   300004 236100                    LDQ     4,,PR3
        35 023612   000550 756000 0                  STQ     REPORT_NAME$

     4095    33382
     4096    33383
     4097    33384    3     DO WHILE (REPORT_NAME$ ~= ADDR(NIL));

  33384 35 023613   023651 710000 35                 TRA     s:33404

     4098    33385
     4099    33386    3       CALL NEW_REPORT (REPORT_NAME$, RD$$) ;

  33386 35 023614   000466 237000 36                 LDAQ    310
        35 023615   000442 757000 0                  STAQ    @REPORT$
PL6.E3A0      #001=Z8EM$SEMANTICS_DATA_DIV File=Z8EM.:Z8A6TSI                    SAT 08/09/97 12:08 Page:816
        35 023616   017532 701000 35                 TSX1    NEW_REPORT
        35 023617   000000 011000                    NOP     0

     4100    33387
     4101    33388    3       CALL Z8DO$QUALIFY_TERMINAL (REPORT_NAME$, ST$$) ;

  33388 35 023620   000470 630400 36                 EPPR0   312
        35 023621   000025 631400 36                 EPPR1   21
        35 023622   000000 701000 xent               TSX1    Z8DO$QUALIFY_TERMINAL
        35 023623   000000 011000                    NOP     0

     4102    33389
     4103    33390            /* Link the LTSs to the FILT_LTS.REPORT$ */
     4104    33391    3       IF LTS_LIST$$ = ADDR(NIL) THEN

  33391 35 023624   000551 236000 0                  LDQ     LTS_LIST$$
        35 023625   000024 116000 36                 CMPQ    20
        35 023626   023637 601000 35                 TNZ     s:33397

     4105    33392    4         DO;

     4106    33393    4           O1COM.CURRENT_FILE_LTS$ -> FILE_LTS.REPORT$ = RD$$ -> RD.LTS$;

  33393 35 023627   000552 470400 0                  LDP0    RD$$
        35 023630   000005 236100                    LDQ     5,,PR0
        35 023631   000045 471400 xsym               LDP1    O1COM+37
        35 023632   100040 756100                    STQ     32,,PR1

     4107    33394    4           O1COM.CURRENT_REPORT_LTS$ = RD$$ -> RD.LTS$;

  33394 35 023633   000552 470400 0                  LDP0    RD$$
        35 023634   000005 236100                    LDQ     5,,PR0
        35 023635   000064 756000 xsym               STQ     O1COM+52

     4108    33395    4         END;

  33395 35 023636   023643 710000 35                 TRA     s:33400
PL6.E3A0      #001=Z8EM$SEMANTICS_DATA_DIV File=Z8EM.:Z8A6TSI                    SAT 08/09/97 12:08 Page:817

     4109    33396    3       ELSE
     4110    33397    3         LTS_LIST$$ -> REPORT_LTS.LINK = RD$$ -> RD.LTS$;

  33397 35 023637   000552 470400 0                  LDP0    RD$$
        35 023640   000005 236100                    LDQ     5,,PR0
        35 023641   000551 471400 0                  LDP1    LTS_LIST$$
        35 023642   100043 756100                    STQ     35,,PR1

     4111    33398
     4112    33399
     4113    33400    3       LTS_LIST$$ = RD$$ -> RD.LTS$ ;

  33400 35 023643   000552 470400 0                  LDP0    RD$$
        35 023644   000005 236100                    LDQ     5,,PR0
        35 023645   000551 756000 0                  STQ     LTS_LIST$$

     4114    33401
     4115    33402    3       REPORT_NAME$ = REPORT_NAME$ -> LX_ITEM.LINK ;

  33402 35 023646   000550 471400 0                  LDP1    REPORT_NAME$
        35 023647   100007 236100                    LDQ     7,,PR1
        35 023650   000550 756000 0                  STQ     REPORT_NAME$

     4116    33403
     4117    33404    3     END;  /* End while */

  33404 35 023651   000024 116000 36                 CMPQ    20
        35 023652   023614 601000 35                 TNZ     s:33386

     4118    33405
     4119    33406    2     CALL Z8ED$DISPOSE_ABSSYN_TREE (LIST$$) ;

  33406 35 023653   000472 630400 36                 EPPR0   314
        35 023654   000036 631400 36                 EPPR1   30
        35 023655   000000 701000 xent               TSX1    Z8ED$DISPOSE_ABSSYN_TREE
        35 023656   000000 011000                    NOP     0
PL6.E3A0      #001=Z8EM$SEMANTICS_DATA_DIV File=Z8EM.:Z8A6TSI                    SAT 08/09/97 12:08 Page:818

     4120    33407
     4121    33408    2     END PROCESS_REPORT_ITEMS ;

  33408 35 023657   000547 221200 0                  LDX1  ! TABLE_START$+1
        35 023660   000001 702211                    TSX2  ! 1,X1

     4122    33409          %EJECT;
PL6.E3A0      #001=Z8EM$SEMANTICS_DATA_DIV File=Z8EM.:Z8A6TSI                    SAT 08/09/97 12:08 Page:819
     4123    33410        /*=====================*/
     4124    33411    1     PROCESS_SYMBOLIC_CHAR: PROC (LIST$, ALPHA$);

  33411 35 023661   000557 741200 0     PROCESS_SYM* STX1  ! LIST$$+1

     4125    33412        /*=====================*/
     4126    33413
     4127    33414    2   DCL ALPHA$             PTR;
     4128    33415    2   DCL LIST$              PTR;
     4129    33416
     4130    33417    2   DCL CHAR_LIST$         PTR;
     4131    33418    2   DCL INT_LIST$          PTR;
     4132    33419    2   DCL DN_LIST$           PTR;
     4133    33420    2   DCL INT                SBIN WORD;
     4134    33421
     4135    33422
     4136    33423    2        DN_LIST$  = LIST$ -> LX_LIST.HEAD$;

  33423 35 023662   000560 470400 0                  LDP0    @LIST$
        35 023663   000000 471500                    LDP1    0,,PR0
        35 023664   100004 236100                    LDQ     4,,PR1
        35 023665   000564 756000 0                  STQ     DN_LIST$

     4137    33424    2        INT_LIST$ = DN_LIST$ -> LX_LIST.LINK;

  33424 35 023666   000564 471400 0                  LDP1    DN_LIST$
        35 023667   100007 236100                    LDQ     7,,PR1
        35 023670   000563 756000 0                  STQ     INT_LIST$

     4138    33425
     4139    33426    2        IF INT_LIST$ -> LX_LIST.COUNT ~= DN_LIST$ -> LX_LIST.COUNT THEN

  33426 35 023671   000563 473400 0                  LDP3    INT_LIST$
        35 023672   300002 236100                    LDQ     2,,PR3
        35 023673   100002 116100                    CMPQ    2,,PR1
        35 023674   023713 600000 35                 TZE     s:33435

PL6.E3A0      #001=Z8EM$SEMANTICS_DATA_DIV File=Z8EM.:Z8A6TSI                    SAT 08/09/97 12:08 Page:820
     4140    33427    3          DO;

     4141    33428    3            DN_LIST$ = DN_LIST$ -> LX_LIST.HEAD$;

  33428 35 023675   100004 236100                    LDQ     4,,PR1
        35 023676   000564 756000 0                  STQ     DN_LIST$

     4142    33429    3            CALL Z8AE$ERROR (%E$DIFF_#_INTS_AND_DNS,

  33429 35 023677   000006 036003                    ADLQ    6,DU
        35 023700   001014 756000 0                  STQ     PROC$+4
        35 023701   000564 236000 0                  LDQ     DN_LIST$
        35 023702   000005 036003                    ADLQ    5,DU
        35 023703   000474 235000 36                 LDA     316
        35 023704   001012 757000 0                  STAQ    PROC$+2
        35 023705   001012 630400 0                  EPPR0   PROC$+2
        35 023706   000000 631400 36                 EPPR1   0
        35 023707   000000 701000 xent               TSX1    Z8AE$ERROR
        35 023710   000000 011000                    NOP     0

     4143    33430    3                             DN_LIST$ -> LX_TERMINAL.LINE,
     4144    33431    3                             DN_LIST$ -> LX_TERMINAL.COLUMN);
     4145    33432    3            RETURN;

  33432 35 023711   000557 221200 0                  LDX1  ! LIST$$+1
        35 023712   000001 702211                    TSX2  ! 1,X1

     4146    33433    3          END;
     4147    33434
     4148    33435    2        DN_LIST$ = DN_LIST$ -> LX_LIST.HEAD$;

  33435 35 023713   100004 236100                    LDQ     4,,PR1
        35 023714   000564 756000 0                  STQ     DN_LIST$

     4149    33436    2        INT_LIST$ = INT_LIST$ -> LX_LIST.HEAD$;

  33436 35 023715   300004 236100                    LDQ     4,,PR3
PL6.E3A0      #001=Z8EM$SEMANTICS_DATA_DIV File=Z8EM.:Z8A6TSI                    SAT 08/09/97 12:08 Page:821
        35 023716   000563 756000 0                  STQ     INT_LIST$

     4150    33437
     4151    33438    3        DO WHILE (DN_LIST$ ~= ADDR(NIL));

  33438 35 023717   023756 710000 35                 TRA     s:33454

     4152    33439    3          CALL CHARBIN (INT,

  33439 35 023720   000563 470400 0                  LDP0    INT_LIST$
        35 023721   000002 471500                    LDP1    2,,PR0
        35 023722   100004 220100                    LDX0    4,,PR1
        35 023723   000000 305540                    DTB
        35 023724   100004 430010                    NDSC9   4,,PR1                   cn=2,s=nosgn,sf=0,n=*X0
        35 023725   000565 000004 0                  NDSC9   INT                      cn=0,s=lsgnf,sf=0,n=4

     4153    33440    3                        INT_LIST$ -> LX_TERMINAL.DNT$ -> DNT.TEXT.NAME);
     4154    33441
     4155    33442    3          INT = INT - 1;

  33442 35 023726   000001 336007                    LCQ     1,DL
        35 023727   000565 056000 0                  ASQ     INT

     4156    33443
     4157    33444    3          CALL VERIFY_SYMBOLIC_CHARACTER (INT, INT_LIST$, DN_LIST$)

  33444 35 023730   000476 237000 36                 LDAQ    318
        35 023731   000762 757000 0                  STAQ    @INT+1
        35 023732   000500 236000 36                 LDQ     320
        35 023733   000761 756000 0                  STQ     @DD_CLAUSE$+2
        35 023734   032355 701000 35                 TSX1    VERIFY_SYMBOLIC_CHARACTER
        35 023735   023737 702000 35                 TSX2    s:33447
        35 023736   023741 710000 35                 TRA     s:33450

     4158    33445    3            WHENALTRETURN
     4159    33446    4              DO;

PL6.E3A0      #001=Z8EM$SEMANTICS_DATA_DIV File=Z8EM.:Z8A6TSI                    SAT 08/09/97 12:08 Page:822
     4160    33447    4                RETURN;

  33447 35 023737   000557 221200 0                  LDX1  ! LIST$$+1
        35 023740   000001 702211                    TSX2  ! 1,X1

     4161    33448    4              END;
     4162    33449
     4163    33450    3          CALL CREATE_SYMBOLIC_CHAR (INT, DN_LIST$, ALPHA$);

  33450 35 023741   000561 236000 0                  LDQ     @ALPHA$
        35 023742   000477 235000 36                 LDA     319
        35 023743   000236 757000 0                  STAQ    @DN$
        35 023744   000500 236000 36                 LDQ     320
        35 023745   000235 756000 0                  STQ     @INT
        35 023746   006606 701000 35                 TSX1    CREATE_SYMBOLIC_CHAR
        35 023747   000000 011000                    NOP     0

     4164    33451
     4165    33452    3          DN_LIST$  = DN_LIST$ -> LX_TERMINAL.LINK;

  33452 35 023750   000564 470400 0                  LDP0    DN_LIST$
        35 023751   000007 236100                    LDQ     7,,PR0
        35 023752   000564 756000 0                  STQ     DN_LIST$

     4166    33453    3          INT_LIST$ = INT_LIST$ -> LX_TERMINAL.LINK;

  33453 35 023753   000563 470400 0                  LDP0    INT_LIST$
        35 023754   000007 236100                    LDQ     7,,PR0
        35 023755   000563 756000 0                  STQ     INT_LIST$

     4167    33454    3        END;

  33454 35 023756   000564 236000 0                  LDQ     DN_LIST$
        35 023757   000024 116000 36                 CMPQ    20
        35 023760   023720 601000 35                 TNZ     s:33439

     4168    33455
PL6.E3A0      #001=Z8EM$SEMANTICS_DATA_DIV File=Z8EM.:Z8A6TSI                    SAT 08/09/97 12:08 Page:823
     4169    33456    2   END PROCESS_SYMBOLIC_CHAR;

  33456 35 023761   000557 221200 0                  LDX1  ! LIST$$+1
        35 023762   000001 702211                    TSX2  ! 1,X1

     4170    33457        %EJECT;
PL6.E3A0      #001=Z8EM$SEMANTICS_DATA_DIV File=Z8EM.:Z8A6TSI                    SAT 08/09/97 12:08 Page:824
     4171    33458
     4172    33459         /*===================*/
     4173    33460    1      PROCESS_USER_LABELS: PROC;

  33460 35 023763   000566 741200 0     PROCESS_USE* STX1  ! INT+1

     4174    33461         /*===================*/
     4175    33462
     4176    33463    2   DCL BRO$           PTR;
     4177    33464    2   DCL PTR_ARRAY$     PTR;
     4178    33465    2   DCL LABEL_COUNT    SBIN WORD;
     4179    33466    2   DCL I              SBIN WORD;
     4180    33467    2   DCL TERM$          PTR;
     4181    33468    2   DCL ST$$           PTR;
     4182    33469
     4183    33470
     4184    33471
     4185    33472         %MACRO REPORT_DUP_ERROR;
     4186    33473
     4187    33474             %CONDITIONAL_ERROR (@LX_ITEM$    = TERM$,
     4188    33475                                 @ERROR#      = %E$DUPLICATE_NAME,
     4189    33476                                 @LINE        = TERM$ -> LX_ITEM.LINE,
     4190    33477                                 @COLUMN      = TERM$ -> LX_ITEM.COLUMN);
     4191    33478
     4192    33479         %MEND;
     4193    33480
     4194    33481         %MACRO CREATE_USER_LABEL_AREA (@AREA = );
     4195    33482           DO;
     4196    33483             IF BRO$ = ADDR(NIL) THEN
     4197    33484               DO;
     4198    33485                 BRO$ = O1COM.CURRENT_FILE_LTS$ -> FILE_LTS.ST$ -> FD.QLT$ -> QLT.SON;
     4199    33486                 DO WHILE (BRO$ -> QLT.BROTHER ~= ADDR(NIL));
     4200    33487                   BRO$ = BRO$ -> QLT.BROTHER;
     4201    33488                 END; /* WHILE */
     4202    33489               END;
     4203    33490
     4204    33491             %NEW_SCALAR (@ST$         = ST$$,
PL6.E3A0      #001=Z8EM$SEMANTICS_DATA_DIV File=Z8EM.:Z8A6TSI                    SAT 08/09/97 12:08 Page:825
     4205    33492                          @LINE_NO     = TERM$ -> LX_ITEM.LINE,
     4206    33493                          @DNT$        = TERM$ -> LX_ITEM.DNT$,
     4207    33494                          @NEXT        = TERM$ -> LX_TERMINAL.DNT$ -> DNT.ST$,
     4208    33495                          @TYPE        = %TYA,
     4209    33496                          @ELEMENTARY  = TRUE,
     4210    33497                          @CLASS       = %CLASS_ALPHANUMERIC);
     4211    33498
     4212    33499             ST$$ -> ST.ADSC.N = 80;
     4213    33500             TERM$ -> LX_TERMINAL.DNT$ -> DNT.ST$ = ST$$;
     4214    33501             PTR_ARRAY$ -> LTS_PTR_ARRAY.P$(@AREA) = ST$$;
     4215    33502
     4216    33503             %NEW_QLT (@POINTER = ST$$ -> SCALAR.QLT$,
     4217    33504                       @LEVEL#  = 1,
     4218    33505                       @FATHER  = BRO$ -> QLT.FATHER,
     4219    33506                       @ST$     = ST$$,
     4220    33507                       @DNT$    = TERM$ -> LX_TERMINAL.DNT$);
     4221    33508
     4222    33509             BRO$ -> QLT.BROTHER = ST$$ -> SCALAR.QLT$;
     4223    33510             BRO$ = BRO$ -> QLT.BROTHER;
     4224    33511           END;
     4225    33512         %MEND;
     4226    33513
     4227    33514        %EJECT;
PL6.E3A0      #001=Z8EM$SEMANTICS_DATA_DIV File=Z8EM.:Z8A6TSI                    SAT 08/09/97 12:08 Page:826
     4228    33515
     4229    33516    2      BRO$ = ADDR(NIL);

  33516 35 023764   000024 236000 36                 LDQ     20
        35 023765   000567 756000 0                  STQ     BRO$

     4230    33517    2      LABEL_COUNT = 0;

  33517 35 023766   000571 450000 0                  STZ     LABEL_COUNT

     4231    33518
     4232    33519           %NEW_LTS_PTR_ARRAY (@POINTER = PTR_ARRAY$,
     4233    33520                               @SIZE    = %USER_LABEL_TABLE_SIZE);

  33522 35 023767   000004 235007                    LDA     4,DL
        35 023770   000000 755000 2                  STA     ITERATION

  33600 35 023771   000002 236000 8                  LDQ     LTS_+2
        35 023772   000000 036000 2                  ADLQ    ITERATION
        35 023773   000003 116000 8                  CMPQ    LTS_+3
        35 023774   024005 604000 35                 TMI     s:33602

  33601 35 023775   000211 236000 36                 LDQ     137
        35 023776   001012 756000 0                  STQ     PROC$+2
        35 023777   001012 630400 0                  EPPR0   PROC$+2
        35 024000   001013 450400 0                  STP0    PROC$+3
        35 024001   001013 630400 0                  EPPR0   PROC$+3
        35 024002   000036 631400 36                 EPPR1   30
        35 024003   000000 701000 xent               TSX1    Z8AR$RESERVER
        35 024004   000000 011000                    NOP     0

  33602 35 024005   000002 236000 8                  LDQ     LTS_+2
        35 024006   000022 736000                    QLS     18
        35 024007   000001 036000 8                  ADLQ    LTS_+1
        35 024010   000570 756000 0                  STQ     PTR_ARRAY$

  33603 35 024011   000002 236000 8                  LDQ     LTS_+2
PL6.E3A0      #001=Z8EM$SEMANTICS_DATA_DIV File=Z8EM.:Z8A6TSI                    SAT 08/09/97 12:08 Page:827
        35 024012   000000 036000 2                  ADLQ    ITERATION
        35 024013   000002 756000 8                  STQ     LTS_+2

  33604 35 024014   001122 220003                    LDX0    594,DU
        35 024015   000570 470400 0                  LDP0    PTR_ARRAY$
        35 024016   000000 740100                    STX0    0,,PR0

  33606 35 024017   000000 721000 2                  LXL1    ITERATION
        35 024020   000000 441100                    SXL1    0,,PR0

  33610 35 024021   000024 236000 36                 LDQ     20
        35 024022   000001 756100                    STQ     1,,PR0

     4234    33613
     4235    33614    3      DO I = 0 TO %USER_LABEL_TABLE_SIZE -1;

  33614 35 024023   000572 450000 0                  STZ     I
        35 024024   024032 710000 35                 TRA     s:33616+1

     4236    33615    3        PTR_ARRAY$ -> LTS_PTR_ARRAY.P$ (I) = ADDR(NIL);

  33615 35 024025   000024 236000 36                 LDQ     20
        35 024026   000570 470400 0                  LDP0    PTR_ARRAY$
        35 024027   000572 720000 0                  LXL0    I
        35 024030   000002 756110                    STQ     2,X0,PR0

     4237    33616    3      END;

  33616 35 024031   000572 054000 0                  AOS     I
        35 024032   000572 235000 0                  LDA     I
        35 024033   000003 115007                    CMPA    3,DL
        35 024034   024025 604400 35                 TMOZ    s:33615

     4238    33617
     4239    33618    2      TERM$ = O1COM.CURRENT_FILE_LTS$ -> FILE_LTS.LABEL_RECORDS$ -> LX_LIST.HEAD$;

  33618 35 024035   000045 471400 xsym               LDP1    O1COM+37
PL6.E3A0      #001=Z8EM$SEMANTICS_DATA_DIV File=Z8EM.:Z8A6TSI                    SAT 08/09/97 12:08 Page:828
        35 024036   100026 473500                    LDP3    22,,PR1
        35 024037   300004 236100                    LDQ     4,,PR3
        35 024040   000573 756000 0                  STQ     TERM$

     4240    33619
     4241    33620    3      DO WHILE (TERM$ ~= ADDR(NIL));

  33620 35 024041   025675 710000 35                 TRA     s:34843

     4242    33621
     4243    33622    4        DO SELECT (TERM$ -> LX_TERMINAL.DNT$ -> DNT.TEXT.NAME);

  33622 35 024042   000573 470400 0                  LDP0    TERM$
        35 024043   000002 471500                    LDP1    2,,PR0
        35 024044   100004 220100                    LDX0    4,,PR1
        35 024045   040000 106540                    CMPC    fill='040'O
        35 024046   100004 400010                    ADSC9   4,,PR1                   cn=2,n=*X0
        35 024047   000102 000024 34                 ADSC9   RSW_NO+66                cn=0,n=20
        35 024050   024064 602000 35                 TNC     s:33622+18
        35 024051   024425 600000 35                 TZE     s:33919
        35 024052   040000 106540                    CMPC    fill='040'O
        35 024053   100004 400010                    ADSC9   4,,PR1                   cn=2,n=*X0
        35 024054   000107 000021 34                 ADSC9   RSW_NO+71                cn=0,n=17
        35 024055   025651 602000 35                 TNC     s:34818
        35 024056   024761 600000 35                 TZE     s:34214
        35 024057   040000 106540                    CMPC    fill='040'O
        35 024060   100004 400010                    ADSC9   4,,PR1                   cn=2,n=*X0
        35 024061   000114 000021 34                 ADSC9   RSW_NO+76                cn=0,n=17
        35 024062   025651 601000 35                 TNZ     s:34818
        35 024063   025315 710000 35                 TRA     s:34509
        35 024064   040000 106540                    CMPC    fill='040'O
        35 024065   100004 400010                    ADSC9   4,,PR1                   cn=2,n=*X0
        35 024066   000121 000024 34                 ADSC9   RSW_NO+81                cn=0,n=20
        35 024067   025651 601000 35                 TNZ     s:34818
        35 024070   024071 710000 35                 TRA     s:33624

     4244    33623    4          SELECT ('BEGINNING-FILE-LABEL');
PL6.E3A0      #001=Z8EM$SEMANTICS_DATA_DIV File=Z8EM.:Z8A6TSI                    SAT 08/09/97 12:08 Page:829

     4245    33624    4            IF O1COM.CURRENT_FILE_LTS$ -> FILE_LTS.B.BEGIN_FILE_LABEL THEN

  33624 35 024071   000045 473400 xsym               LDP3    O1COM+37
        35 024072   300017 236100                    LDQ     15,,PR3
        35 024073   000004 316003                    CANQ    4,DU
        35 024074   024117 600000 35                 TZE     s:33662

     4246    33625                   %REPORT_DUP_ERROR;

  33639 35 024075   000000 236100                    LDQ     0,,PR0
        35 024076   400000 316007                    CANQ    -131072,DL
        35 024077   025672 601000 35                 TNZ     s:34841

  33641 35 024100   000573 236000 0                  LDQ     TERM$
        35 024101   000006 036003                    ADLQ    6,DU
        35 024102   001014 756000 0                  STQ     PROC$+4
        35 024103   000573 236000 0                  LDQ     TERM$
        35 024104   000005 036003                    ADLQ    5,DU
        35 024105   000502 235000 36                 LDA     322
        35 024106   001012 757000 0                  STAQ    PROC$+2
        35 024107   001012 630400 0                  EPPR0   PROC$+2
        35 024110   000000 631400 36                 EPPR1   0
        35 024111   000000 701000 xent               TSX1    Z8AE$ERROR
        35 024112   000000 011000                    NOP     0

  33650 35 024113   000573 470400 0                  LDP0    TERM$
        35 024114   400000 236007                    LDQ     -131072,DL
        35 024115   000000 256100                    ORSQ    0,,PR0

  33657 35 024116   025672 710000 35                 TRA     s:34841

     4247    33660    4            ELSE
     4248    33661    5              DO;

     4249    33662    5                O1COM.CURRENT_FILE_LTS$ -> FILE_LTS.B.BEGIN_FILE_LABEL = TRUE;

PL6.E3A0      #001=Z8EM$SEMANTICS_DATA_DIV File=Z8EM.:Z8A6TSI                    SAT 08/09/97 12:08 Page:830
  33662 35 024117   000004 236003                    LDQ     4,DU
        35 024120   300017 256100                    ORSQ    15,,PR3

     4250    33663    5                LABEL_COUNT = LABEL_COUNT + 1;

  33663 35 024121   000571 054000 0                  AOS     LABEL_COUNT

     4251    33664
     4252    33665                     %CREATE_USER_LABEL_AREA (@AREA = %BEGINNING_FILE_LABEL);

  33667 35 024122   000567 236000 0                  LDQ     BRO$
        35 024123   000024 116000 36                 CMPQ    20
        35 024124   024142 601000 35                 TNZ     s:33684

  33669 35 024125   000045 471400 xsym               LDP1    O1COM+37
        35 024126   100001 473500                    LDP3    1,,PR1
        35 024127   300007 474500                    LDP4    7,,PR3
        35 024130   400003 236100                    LDQ     3,,PR4
        35 024131   000567 756000 0                  STQ     BRO$

  33670 35 024132   024136 710000 35                 TRA     s:33672

  33671 35 024133   000567 470400 0                  LDP0    BRO$
        35 024134   000002 236100                    LDQ     2,,PR0
        35 024135   000567 756000 0                  STQ     BRO$

  33672 35 024136   000567 470400 0                  LDP0    BRO$
        35 024137   000002 236100                    LDQ     2,,PR0
        35 024140   000024 116000 36                 CMPQ    20
        35 024141   024133 601000 35                 TNZ     s:33671

  33684 35 024142   000002 236000 13                 LDQ     ST_+2
        35 024143   000013 036007                    ADLQ    11,DL
        35 024144   000003 116000 13                 CMPQ    ST_+3
        35 024145   024156 604000 35                 TMI     s:33686

  33685 35 024146   000102 236000 36                 LDQ     66
PL6.E3A0      #001=Z8EM$SEMANTICS_DATA_DIV File=Z8EM.:Z8A6TSI                    SAT 08/09/97 12:08 Page:831
        35 024147   001012 756000 0                  STQ     PROC$+2
        35 024150   001012 630400 0                  EPPR0   PROC$+2
        35 024151   001013 450400 0                  STP0    PROC$+3
        35 024152   001013 630400 0                  EPPR0   PROC$+3
        35 024153   000036 631400 36                 EPPR1   30
        35 024154   000000 701000 xent               TSX1    Z8AR$RESERVER
        35 024155   000000 011000                    NOP     0

  33686 35 024156   000002 236000 13                 LDQ     ST_+2
        35 024157   000022 736000                    QLS     18
        35 024160   000001 036000 13                 ADLQ    ST_+1
        35 024161   000574 756000 0                  STQ     ST$$

  33687 35 024162   000013 236007                    LDQ     11,DL
        35 024163   000002 056000 13                 ASQ     ST_+2

  33735 35 024164   000766 220003                    LDX0    502,DU
        35 024165   000574 470400 0                  LDP0    ST$$
        35 024166   000000 740100                    STX0    0,,PR0

  33736 35 024167   000574 470400 0                  LDP0    ST$$
        35 024170   003000 236007                    LDQ     1536,DL
        35 024171   000000 552110                    STBQ    0,'10'O,PR0

  33737 35 024172   000574 470400 0                  LDP0    ST$$
        35 024173   000001 236007                    LDQ     1,DL
        35 024174   000000 552104                    STBQ    0,'04'O,PR0

  33738 35 024175   000000 221003                    LDX1    0,DU
        35 024176   000574 470400 0                  LDP0    ST$$
        35 024177   000001 741100                    STX1    1,,PR0

  33739 35 024200   000574 470400 0                  LDP0    ST$$
        35 024201   000001 441100                    SXL1    1,,PR0

  33740 35 024202   000573 470400 0                  LDP0    TERM$
        35 024203   000005 722100                    LXL2    5,,PR0
PL6.E3A0      #001=Z8EM$SEMANTICS_DATA_DIV File=Z8EM.:Z8A6TSI                    SAT 08/09/97 12:08 Page:832
        35 024204   000574 471400 0                  LDP1    ST$$
        35 024205   100002 442100                    SXL2    2,,PR1

  33741 35 024206   000574 471400 0                  LDP1    ST$$
        35 024207   100003 450100                    STZ     3,,PR1

  33742 35 024210   000002 471500                    LDP1    2,,PR0
        35 024211   100001 236100                    LDQ     1,,PR1
        35 024212   000574 473400 0                  LDP3    ST$$
        35 024213   300004 756100                    STQ     4,,PR3

  33743 35 024214   000024 236000 36                 LDQ     20
        35 024215   000574 471400 0                  LDP1    ST$$
        35 024216   100005 756100                    STQ     5,,PR1

  33744 35 024217   000024 236000 36                 LDQ     20
        35 024220   000574 471400 0                  LDP1    ST$$
        35 024221   100007 756100                    STQ     7,,PR1

  33745 35 024222   000574 471400 0                  LDP1    ST$$
        35 024223   100010 741100                    STX1    8,,PR1

  33746 35 024224   777777 222003                    LDX2    -1,DU
        35 024225   000574 471400 0                  LDP1    ST$$
        35 024226   100010 442100                    SXL2    8,,PR1

  33750 35 024227   000024 236000 36                 LDQ     20
        35 024230   000574 471400 0                  LDP1    ST$$
        35 024231   100012 756100                    STQ     10,,PR1

  33753 35 024232   000057 236000 xsym               LDQ     O1COM+47
        35 024233   000574 471400 0                  LDP1    ST$$
        35 024234   100011 756100                    STQ     9,,PR1

  33754 35 024235   000057 236000 xsym               LDQ     O1COM+47
        35 024236   000024 116000 36                 CMPQ    20
        35 024237   024263 600000 35                 TZE     s:33789
PL6.E3A0      #001=Z8EM$SEMANTICS_DATA_DIV File=Z8EM.:Z8A6TSI                    SAT 08/09/97 12:08 Page:833

  33758 35 024240   000057 471400 xsym               LDP1    O1COM+47
        35 024241   100001 473500                    LDP3    1,,PR1
        35 024242   300012 236100                    LDQ     10,,PR3
        35 024243   000024 116000 36                 CMPQ    20
        35 024244   024254 601000 35                 TNZ     s:33765

  33760 35 024245   000574 236000 0                  LDQ     ST$$
        35 024246   300011 756100                    STQ     9,,PR3

  33761 35 024247   000057 471400 xsym               LDP1    O1COM+47
        35 024250   100001 473500                    LDP3    1,,PR1
        35 024251   000574 236000 0                  LDQ     ST$$
        35 024252   300012 756100                    STQ     10,,PR3

  33762 35 024253   024263 710000 35                 TRA     s:33789

  33765 35 024254   300012 474500                    LDP4    10,,PR3
        35 024255   000574 236000 0                  LDQ     ST$$
        35 024256   400012 756100                    STQ     10,,PR4

  33766 35 024257   000057 471400 xsym               LDP1    O1COM+47
        35 024260   100001 473500                    LDP3    1,,PR1
        35 024261   000574 236000 0                  LDQ     ST$$
        35 024262   300012 756100                    STQ     10,,PR3

  33789 35 024263   000010 223003                    LDX3    8,DU
        35 024264   000574 471400 0                  LDP1    ST$$
        35 024265   100002 743100                    STX3    2,,PR1

  33794 35 024266   000002 236100                    LDQ     2,,PR0
        35 024267   000574 471400 0                  LDP1    ST$$
        35 024270   100006 756100                    STQ     6,,PR1

  33811 35 024271   000574 471400 0                  LDP1    ST$$
        35 024272   010000 236003                    LDQ     4096,DU
        35 024273   100003 256100                    ORSQ    3,,PR1
PL6.E3A0      #001=Z8EM$SEMANTICS_DATA_DIV File=Z8EM.:Z8A6TSI                    SAT 08/09/97 12:08 Page:834

  33859 35 024274   000574 471400 0                  LDP1    ST$$
        35 024275   100003 236100                    LDQ     3,,PR1
        35 024276   000202 376000 36                 ANQ     130
        35 024277   000003 276007                    ORQ     3,DL
        35 024300   100003 756100                    STQ     3,,PR1

  33880 35 024301   000574 471400 0                  LDP1    ST$$
        35 024302   000120 236007                    LDQ     80,DL
        35 024303   100001 752103                    STCQ    1,'03'O,PR1

  33881 35 024304   000002 471500                    LDP1    2,,PR0
        35 024305   000574 236000 0                  LDQ     ST$$
        35 024306   100001 756100                    STQ     1,,PR1

  33882 35 024307   000574 236000 0                  LDQ     ST$$
        35 024310   000570 471400 0                  LDP1    PTR_ARRAY$
        35 024311   100002 756100                    STQ     2,,PR1

  33892 35 024312   000002 236000 11                 LDQ     QLT_+2
        35 024313   000006 036007                    ADLQ    6,DL
        35 024314   000003 116000 11                 CMPQ    QLT_+3
        35 024315   024326 602000 35                 TNC     s:33894

  33893 35 024316   000103 236000 36                 LDQ     67
        35 024317   001012 756000 0                  STQ     PROC$+2
        35 024320   001012 633400 0                  EPPR3   PROC$+2
        35 024321   001013 453400 0                  STP3    PROC$+3
        35 024322   001013 630400 0                  EPPR0   PROC$+3
        35 024323   000036 631400 36                 EPPR1   30
        35 024324   000000 701000 xent               TSX1    Z8AR$RESERVER
        35 024325   000000 011000                    NOP     0

  33894 35 024326   000002 236000 11                 LDQ     QLT_+2
        35 024327   000022 736000                    QLS     18
        35 024330   000001 036000 11                 ADLQ    QLT_+1
        35 024331   000574 470400 0                  LDP0    ST$$
PL6.E3A0      #001=Z8EM$SEMANTICS_DATA_DIV File=Z8EM.:Z8A6TSI                    SAT 08/09/97 12:08 Page:835
        35 024332   000007 756100                    STQ     7,,PR0

  33895 35 024333   000002 235000 11                 LDA     QLT_+2
        35 024334   000006 035007                    ADLA    6,DL
        35 024335   000002 755000 11                 STA     QLT_+2

  33896 35 024336   000574 470400 0                  LDP0    ST$$
        35 024337   000007 471500                    LDP1    7,,PR0
        35 024340   001053 220003                    LDX0    555,DU
        35 024341   100000 740100                    STX0    0,,PR1

  33899 35 024342   000574 470400 0                  LDP0    ST$$
        35 024343   000007 471500                    LDP1    7,,PR0
        35 024344   000567 473400 0                  LDP3    BRO$
        35 024345   300001 236100                    LDQ     1,,PR3
        35 024346   100001 756100                    STQ     1,,PR1

  33900 35 024347   000574 470400 0                  LDP0    ST$$
        35 024350   000007 471500                    LDP1    7,,PR0
        35 024351   000024 236000 36                 LDQ     20
        35 024352   100002 756100                    STQ     2,,PR1

  33901 35 024353   000574 470400 0                  LDP0    ST$$
        35 024354   000007 471500                    LDP1    7,,PR0
        35 024355   000024 236000 36                 LDQ     20
        35 024356   100003 756100                    STQ     3,,PR1

  33902 35 024357   000574 470400 0                  LDP0    ST$$
        35 024360   000007 471500                    LDP1    7,,PR0
        35 024361   000574 236000 0                  LDQ     ST$$
        35 024362   100004 756100                    STQ     4,,PR1

  33903 35 024363   000574 470400 0                  LDP0    ST$$
        35 024364   000007 471500                    LDP1    7,,PR0
        35 024365   000573 474400 0                  LDP4    TERM$
        35 024366   400002 236100                    LDQ     2,,PR4
        35 024367   100005 756100                    STQ     5,,PR1
PL6.E3A0      #001=Z8EM$SEMANTICS_DATA_DIV File=Z8EM.:Z8A6TSI                    SAT 08/09/97 12:08 Page:836

  33904 35 024370   000574 470400 0                  LDP0    ST$$
        35 024371   000007 471500                    LDP1    7,,PR0
        35 024372   000001 236007                    LDQ     1,DL
        35 024373   100000 552104                    STBQ    0,'04'O,PR1

  33905 35 024374   000574 470400 0                  LDP0    ST$$
        35 024375   000007 471500                    LDP1    7,,PR0
        35 024376   000000 236003                    LDQ     0,DU
        35 024377   100000 552110                    STBQ    0,'10'O,PR1

  33906 35 024400   000574 470400 0                  LDP0    ST$$
        35 024401   000007 471500                    LDP1    7,,PR0
        35 024402   000104 236000 36                 LDQ     68
        35 024403   100000 356100                    ANSQ    0,,PR1

  33907 35 024404   000574 470400 0                  LDP0    ST$$
        35 024405   000007 471500                    LDP1    7,,PR0
        35 024406   000105 236000 36                 LDQ     69
        35 024407   100000 356100                    ANSQ    0,,PR1

  33908 35 024410   000574 470400 0                  LDP0    ST$$
        35 024411   000007 471500                    LDP1    7,,PR0
        35 024412   000106 236000 36                 LDQ     70
        35 024413   100000 356100                    ANSQ    0,,PR1

  33909 35 024414   000574 470400 0                  LDP0    ST$$
        35 024415   000007 471500                    LDP1    7,,PR0
        35 024416   000107 236000 36                 LDQ     71
        35 024417   100000 356100                    ANSQ    0,,PR1

  33912 35 024420   000574 470400 0                  LDP0    ST$$
        35 024421   000007 236100                    LDQ     7,,PR0
        35 024422   300002 756100                    STQ     2,,PR3

  33913 35 024423   000567 756000 0                  STQ     BRO$

PL6.E3A0      #001=Z8EM$SEMANTICS_DATA_DIV File=Z8EM.:Z8A6TSI                    SAT 08/09/97 12:08 Page:837
     4253    33916    5              END;

  33916 35 024424   025672 710000 35                 TRA     s:34841

     4254    33917
     4255    33918    4          SELECT ('BEGINNING-TAPE-LABEL');

     4256    33919    4            IF O1COM.CURRENT_FILE_LTS$ -> FILE_LTS.B.BEGIN_TAPE_LABEL THEN

  33919 35 024425   000045 473400 xsym               LDP3    O1COM+37
        35 024426   300017 236100                    LDQ     15,,PR3
        35 024427   000010 316003                    CANQ    8,DU
        35 024430   024453 600000 35                 TZE     s:33957

     4257    33920                   %REPORT_DUP_ERROR;

  33934 35 024431   000000 236100                    LDQ     0,,PR0
        35 024432   400000 316007                    CANQ    -131072,DL
        35 024433   025672 601000 35                 TNZ     s:34841

  33936 35 024434   000573 236000 0                  LDQ     TERM$
        35 024435   000006 036003                    ADLQ    6,DU
        35 024436   001014 756000 0                  STQ     PROC$+4
        35 024437   000573 236000 0                  LDQ     TERM$
        35 024440   000005 036003                    ADLQ    5,DU
        35 024441   000502 235000 36                 LDA     322
        35 024442   001012 757000 0                  STAQ    PROC$+2
        35 024443   001012 630400 0                  EPPR0   PROC$+2
        35 024444   000000 631400 36                 EPPR1   0
        35 024445   000000 701000 xent               TSX1    Z8AE$ERROR
        35 024446   000000 011000                    NOP     0

  33945 35 024447   000573 470400 0                  LDP0    TERM$
        35 024450   400000 236007                    LDQ     -131072,DL
        35 024451   000000 256100                    ORSQ    0,,PR0

  33952 35 024452   025672 710000 35                 TRA     s:34841
PL6.E3A0      #001=Z8EM$SEMANTICS_DATA_DIV File=Z8EM.:Z8A6TSI                    SAT 08/09/97 12:08 Page:838

     4258    33955    4            ELSE
     4259    33956    5              DO;

     4260    33957    5                O1COM.CURRENT_FILE_LTS$ -> FILE_LTS.B.BEGIN_TAPE_LABEL = TRUE;

  33957 35 024453   000010 236003                    LDQ     8,DU
        35 024454   300017 256100                    ORSQ    15,,PR3

     4261    33958    5                LABEL_COUNT = LABEL_COUNT + 1;

  33958 35 024455   000571 054000 0                  AOS     LABEL_COUNT

     4262    33959
     4263    33960                     %CREATE_USER_LABEL_AREA (@AREA = %BEGINNING_TAPE_LABEL);

  33962 35 024456   000567 236000 0                  LDQ     BRO$
        35 024457   000024 116000 36                 CMPQ    20
        35 024460   024476 601000 35                 TNZ     s:33979

  33964 35 024461   000045 471400 xsym               LDP1    O1COM+37
        35 024462   100001 473500                    LDP3    1,,PR1
        35 024463   300007 474500                    LDP4    7,,PR3
        35 024464   400003 236100                    LDQ     3,,PR4
        35 024465   000567 756000 0                  STQ     BRO$

  33965 35 024466   024472 710000 35                 TRA     s:33967

  33966 35 024467   000567 470400 0                  LDP0    BRO$
        35 024470   000002 236100                    LDQ     2,,PR0
        35 024471   000567 756000 0                  STQ     BRO$

  33967 35 024472   000567 470400 0                  LDP0    BRO$
        35 024473   000002 236100                    LDQ     2,,PR0
        35 024474   000024 116000 36                 CMPQ    20
        35 024475   024467 601000 35                 TNZ     s:33966

PL6.E3A0      #001=Z8EM$SEMANTICS_DATA_DIV File=Z8EM.:Z8A6TSI                    SAT 08/09/97 12:08 Page:839
  33979 35 024476   000002 236000 13                 LDQ     ST_+2
        35 024477   000013 036007                    ADLQ    11,DL
        35 024500   000003 116000 13                 CMPQ    ST_+3
        35 024501   024512 604000 35                 TMI     s:33981

  33980 35 024502   000102 236000 36                 LDQ     66
        35 024503   001012 756000 0                  STQ     PROC$+2
        35 024504   001012 630400 0                  EPPR0   PROC$+2
        35 024505   001013 450400 0                  STP0    PROC$+3
        35 024506   001013 630400 0                  EPPR0   PROC$+3
        35 024507   000036 631400 36                 EPPR1   30
        35 024510   000000 701000 xent               TSX1    Z8AR$RESERVER
        35 024511   000000 011000                    NOP     0

  33981 35 024512   000002 236000 13                 LDQ     ST_+2
        35 024513   000022 736000                    QLS     18
        35 024514   000001 036000 13                 ADLQ    ST_+1
        35 024515   000574 756000 0                  STQ     ST$$

  33982 35 024516   000013 236007                    LDQ     11,DL
        35 024517   000002 056000 13                 ASQ     ST_+2

  34030 35 024520   000766 220003                    LDX0    502,DU
        35 024521   000574 470400 0                  LDP0    ST$$
        35 024522   000000 740100                    STX0    0,,PR0

  34031 35 024523   000574 470400 0                  LDP0    ST$$
        35 024524   003000 236007                    LDQ     1536,DL
        35 024525   000000 552110                    STBQ    0,'10'O,PR0

  34032 35 024526   000574 470400 0                  LDP0    ST$$
        35 024527   000001 236007                    LDQ     1,DL
        35 024530   000000 552104                    STBQ    0,'04'O,PR0

  34033 35 024531   000000 221003                    LDX1    0,DU
        35 024532   000574 470400 0                  LDP0    ST$$
        35 024533   000001 741100                    STX1    1,,PR0
PL6.E3A0      #001=Z8EM$SEMANTICS_DATA_DIV File=Z8EM.:Z8A6TSI                    SAT 08/09/97 12:08 Page:840

  34034 35 024534   000574 470400 0                  LDP0    ST$$
        35 024535   000001 441100                    SXL1    1,,PR0

  34035 35 024536   000573 470400 0                  LDP0    TERM$
        35 024537   000005 722100                    LXL2    5,,PR0
        35 024540   000574 471400 0                  LDP1    ST$$
        35 024541   100002 442100                    SXL2    2,,PR1

  34036 35 024542   000574 471400 0                  LDP1    ST$$
        35 024543   100003 450100                    STZ     3,,PR1

  34037 35 024544   000002 471500                    LDP1    2,,PR0
        35 024545   100001 236100                    LDQ     1,,PR1
        35 024546   000574 473400 0                  LDP3    ST$$
        35 024547   300004 756100                    STQ     4,,PR3

  34038 35 024550   000024 236000 36                 LDQ     20
        35 024551   000574 471400 0                  LDP1    ST$$
        35 024552   100005 756100                    STQ     5,,PR1

  34039 35 024553   000024 236000 36                 LDQ     20
        35 024554   000574 471400 0                  LDP1    ST$$
        35 024555   100007 756100                    STQ     7,,PR1

  34040 35 024556   000574 471400 0                  LDP1    ST$$
        35 024557   100010 741100                    STX1    8,,PR1

  34041 35 024560   777777 222003                    LDX2    -1,DU
        35 024561   000574 471400 0                  LDP1    ST$$
        35 024562   100010 442100                    SXL2    8,,PR1

  34045 35 024563   000024 236000 36                 LDQ     20
        35 024564   000574 471400 0                  LDP1    ST$$
        35 024565   100012 756100                    STQ     10,,PR1

  34048 35 024566   000057 236000 xsym               LDQ     O1COM+47
PL6.E3A0      #001=Z8EM$SEMANTICS_DATA_DIV File=Z8EM.:Z8A6TSI                    SAT 08/09/97 12:08 Page:841
        35 024567   000574 471400 0                  LDP1    ST$$
        35 024570   100011 756100                    STQ     9,,PR1

  34049 35 024571   000057 236000 xsym               LDQ     O1COM+47
        35 024572   000024 116000 36                 CMPQ    20
        35 024573   024617 600000 35                 TZE     s:34084

  34053 35 024574   000057 471400 xsym               LDP1    O1COM+47
        35 024575   100001 473500                    LDP3    1,,PR1
        35 024576   300012 236100                    LDQ     10,,PR3
        35 024577   000024 116000 36                 CMPQ    20
        35 024600   024610 601000 35                 TNZ     s:34060

  34055 35 024601   000574 236000 0                  LDQ     ST$$
        35 024602   300011 756100                    STQ     9,,PR3

  34056 35 024603   000057 471400 xsym               LDP1    O1COM+47
        35 024604   100001 473500                    LDP3    1,,PR1
        35 024605   000574 236000 0                  LDQ     ST$$
        35 024606   300012 756100                    STQ     10,,PR3

  34057 35 024607   024617 710000 35                 TRA     s:34084

  34060 35 024610   300012 474500                    LDP4    10,,PR3
        35 024611   000574 236000 0                  LDQ     ST$$
        35 024612   400012 756100                    STQ     10,,PR4

  34061 35 024613   000057 471400 xsym               LDP1    O1COM+47
        35 024614   100001 473500                    LDP3    1,,PR1
        35 024615   000574 236000 0                  LDQ     ST$$
        35 024616   300012 756100                    STQ     10,,PR3

  34084 35 024617   000010 223003                    LDX3    8,DU
        35 024620   000574 471400 0                  LDP1    ST$$
        35 024621   100002 743100                    STX3    2,,PR1

  34089 35 024622   000002 236100                    LDQ     2,,PR0
PL6.E3A0      #001=Z8EM$SEMANTICS_DATA_DIV File=Z8EM.:Z8A6TSI                    SAT 08/09/97 12:08 Page:842
        35 024623   000574 471400 0                  LDP1    ST$$
        35 024624   100006 756100                    STQ     6,,PR1

  34106 35 024625   000574 471400 0                  LDP1    ST$$
        35 024626   010000 236003                    LDQ     4096,DU
        35 024627   100003 256100                    ORSQ    3,,PR1

  34154 35 024630   000574 471400 0                  LDP1    ST$$
        35 024631   100003 236100                    LDQ     3,,PR1
        35 024632   000202 376000 36                 ANQ     130
        35 024633   000003 276007                    ORQ     3,DL
        35 024634   100003 756100                    STQ     3,,PR1

  34175 35 024635   000574 471400 0                  LDP1    ST$$
        35 024636   000120 236007                    LDQ     80,DL
        35 024637   100001 752103                    STCQ    1,'03'O,PR1

  34176 35 024640   000002 471500                    LDP1    2,,PR0
        35 024641   000574 236000 0                  LDQ     ST$$
        35 024642   100001 756100                    STQ     1,,PR1

  34177 35 024643   000574 236000 0                  LDQ     ST$$
        35 024644   000570 471400 0                  LDP1    PTR_ARRAY$
        35 024645   100004 756100                    STQ     4,,PR1

  34187 35 024646   000002 236000 11                 LDQ     QLT_+2
        35 024647   000006 036007                    ADLQ    6,DL
        35 024650   000003 116000 11                 CMPQ    QLT_+3
        35 024651   024662 602000 35                 TNC     s:34189

  34188 35 024652   000103 236000 36                 LDQ     67
        35 024653   001012 756000 0                  STQ     PROC$+2
        35 024654   001012 633400 0                  EPPR3   PROC$+2
        35 024655   001013 453400 0                  STP3    PROC$+3
        35 024656   001013 630400 0                  EPPR0   PROC$+3
        35 024657   000036 631400 36                 EPPR1   30
        35 024660   000000 701000 xent               TSX1    Z8AR$RESERVER
PL6.E3A0      #001=Z8EM$SEMANTICS_DATA_DIV File=Z8EM.:Z8A6TSI                    SAT 08/09/97 12:08 Page:843
        35 024661   000000 011000                    NOP     0

  34189 35 024662   000002 236000 11                 LDQ     QLT_+2
        35 024663   000022 736000                    QLS     18
        35 024664   000001 036000 11                 ADLQ    QLT_+1
        35 024665   000574 470400 0                  LDP0    ST$$
        35 024666   000007 756100                    STQ     7,,PR0

  34190 35 024667   000002 235000 11                 LDA     QLT_+2
        35 024670   000006 035007                    ADLA    6,DL
        35 024671   000002 755000 11                 STA     QLT_+2

  34191 35 024672   000574 470400 0                  LDP0    ST$$
        35 024673   000007 471500                    LDP1    7,,PR0
        35 024674   001053 220003                    LDX0    555,DU
        35 024675   100000 740100                    STX0    0,,PR1

  34194 35 024676   000574 470400 0                  LDP0    ST$$
        35 024677   000007 471500                    LDP1    7,,PR0
        35 024700   000567 473400 0                  LDP3    BRO$
        35 024701   300001 236100                    LDQ     1,,PR3
        35 024702   100001 756100                    STQ     1,,PR1

  34195 35 024703   000574 470400 0                  LDP0    ST$$
        35 024704   000007 471500                    LDP1    7,,PR0
        35 024705   000024 236000 36                 LDQ     20
        35 024706   100002 756100                    STQ     2,,PR1

  34196 35 024707   000574 470400 0                  LDP0    ST$$
        35 024710   000007 471500                    LDP1    7,,PR0
        35 024711   000024 236000 36                 LDQ     20
        35 024712   100003 756100                    STQ     3,,PR1

  34197 35 024713   000574 470400 0                  LDP0    ST$$
        35 024714   000007 471500                    LDP1    7,,PR0
        35 024715   000574 236000 0                  LDQ     ST$$
        35 024716   100004 756100                    STQ     4,,PR1
PL6.E3A0      #001=Z8EM$SEMANTICS_DATA_DIV File=Z8EM.:Z8A6TSI                    SAT 08/09/97 12:08 Page:844

  34198 35 024717   000574 470400 0                  LDP0    ST$$
        35 024720   000007 471500                    LDP1    7,,PR0
        35 024721   000573 474400 0                  LDP4    TERM$
        35 024722   400002 236100                    LDQ     2,,PR4
        35 024723   100005 756100                    STQ     5,,PR1

  34199 35 024724   000574 470400 0                  LDP0    ST$$
        35 024725   000007 471500                    LDP1    7,,PR0
        35 024726   000001 236007                    LDQ     1,DL
        35 024727   100000 552104                    STBQ    0,'04'O,PR1

  34200 35 024730   000574 470400 0                  LDP0    ST$$
        35 024731   000007 471500                    LDP1    7,,PR0
        35 024732   000000 236003                    LDQ     0,DU
        35 024733   100000 552110                    STBQ    0,'10'O,PR1

  34201 35 024734   000574 470400 0                  LDP0    ST$$
        35 024735   000007 471500                    LDP1    7,,PR0
        35 024736   000104 236000 36                 LDQ     68
        35 024737   100000 356100                    ANSQ    0,,PR1

  34202 35 024740   000574 470400 0                  LDP0    ST$$
        35 024741   000007 471500                    LDP1    7,,PR0
        35 024742   000105 236000 36                 LDQ     69
        35 024743   100000 356100                    ANSQ    0,,PR1

  34203 35 024744   000574 470400 0                  LDP0    ST$$
        35 024745   000007 471500                    LDP1    7,,PR0
        35 024746   000106 236000 36                 LDQ     70
        35 024747   100000 356100                    ANSQ    0,,PR1

  34204 35 024750   000574 470400 0                  LDP0    ST$$
        35 024751   000007 471500                    LDP1    7,,PR0
        35 024752   000107 236000 36                 LDQ     71
        35 024753   100000 356100                    ANSQ    0,,PR1

PL6.E3A0      #001=Z8EM$SEMANTICS_DATA_DIV File=Z8EM.:Z8A6TSI                    SAT 08/09/97 12:08 Page:845
  34207 35 024754   000574 470400 0                  LDP0    ST$$
        35 024755   000007 236100                    LDQ     7,,PR0
        35 024756   300002 756100                    STQ     2,,PR3

  34208 35 024757   000567 756000 0                  STQ     BRO$

     4264    34211    5              END;

  34211 35 024760   025672 710000 35                 TRA     s:34841

     4265    34212
     4266    34213    4          SELECT ('ENDING-FILE-LABEL');

     4267    34214    4            IF O1COM.CURRENT_FILE_LTS$ -> FILE_LTS.B.END_FILE_LABEL THEN

  34214 35 024761   000045 473400 xsym               LDP3    O1COM+37
        35 024762   300017 236100                    LDQ     15,,PR3
        35 024763   000001 316003                    CANQ    1,DU
        35 024764   025007 600000 35                 TZE     s:34252

     4268    34215                   %REPORT_DUP_ERROR;

  34229 35 024765   000000 236100                    LDQ     0,,PR0
        35 024766   400000 316007                    CANQ    -131072,DL
        35 024767   025672 601000 35                 TNZ     s:34841

  34231 35 024770   000573 236000 0                  LDQ     TERM$
        35 024771   000006 036003                    ADLQ    6,DU
        35 024772   001014 756000 0                  STQ     PROC$+4
        35 024773   000573 236000 0                  LDQ     TERM$
        35 024774   000005 036003                    ADLQ    5,DU
        35 024775   000502 235000 36                 LDA     322
        35 024776   001012 757000 0                  STAQ    PROC$+2
        35 024777   001012 630400 0                  EPPR0   PROC$+2
        35 025000   000000 631400 36                 EPPR1   0
        35 025001   000000 701000 xent               TSX1    Z8AE$ERROR
        35 025002   000000 011000                    NOP     0
PL6.E3A0      #001=Z8EM$SEMANTICS_DATA_DIV File=Z8EM.:Z8A6TSI                    SAT 08/09/97 12:08 Page:846

  34240 35 025003   000573 470400 0                  LDP0    TERM$
        35 025004   400000 236007                    LDQ     -131072,DL
        35 025005   000000 256100                    ORSQ    0,,PR0

  34247 35 025006   025672 710000 35                 TRA     s:34841

     4269    34250    4            ELSE
     4270    34251    5              DO;

     4271    34252    5                O1COM.CURRENT_FILE_LTS$ -> FILE_LTS.B.END_FILE_LABEL = TRUE;

  34252 35 025007   000001 236003                    LDQ     1,DU
        35 025010   300017 256100                    ORSQ    15,,PR3

     4272    34253    5                LABEL_COUNT = LABEL_COUNT + 1;

  34253 35 025011   000571 054000 0                  AOS     LABEL_COUNT

     4273    34254
     4274    34255                     %CREATE_USER_LABEL_AREA (@AREA = %ENDING_FILE_LABEL);

  34257 35 025012   000567 236000 0                  LDQ     BRO$
        35 025013   000024 116000 36                 CMPQ    20
        35 025014   025032 601000 35                 TNZ     s:34274

  34259 35 025015   000045 471400 xsym               LDP1    O1COM+37
        35 025016   100001 473500                    LDP3    1,,PR1
        35 025017   300007 474500                    LDP4    7,,PR3
        35 025020   400003 236100                    LDQ     3,,PR4
        35 025021   000567 756000 0                  STQ     BRO$

  34260 35 025022   025026 710000 35                 TRA     s:34262

  34261 35 025023   000567 470400 0                  LDP0    BRO$
        35 025024   000002 236100                    LDQ     2,,PR0
        35 025025   000567 756000 0                  STQ     BRO$
PL6.E3A0      #001=Z8EM$SEMANTICS_DATA_DIV File=Z8EM.:Z8A6TSI                    SAT 08/09/97 12:08 Page:847

  34262 35 025026   000567 470400 0                  LDP0    BRO$
        35 025027   000002 236100                    LDQ     2,,PR0
        35 025030   000024 116000 36                 CMPQ    20
        35 025031   025023 601000 35                 TNZ     s:34261

  34274 35 025032   000002 236000 13                 LDQ     ST_+2
        35 025033   000013 036007                    ADLQ    11,DL
        35 025034   000003 116000 13                 CMPQ    ST_+3
        35 025035   025046 604000 35                 TMI     s:34276

  34275 35 025036   000102 236000 36                 LDQ     66
        35 025037   001012 756000 0                  STQ     PROC$+2
        35 025040   001012 630400 0                  EPPR0   PROC$+2
        35 025041   001013 450400 0                  STP0    PROC$+3
        35 025042   001013 630400 0                  EPPR0   PROC$+3
        35 025043   000036 631400 36                 EPPR1   30
        35 025044   000000 701000 xent               TSX1    Z8AR$RESERVER
        35 025045   000000 011000                    NOP     0

  34276 35 025046   000002 236000 13                 LDQ     ST_+2
        35 025047   000022 736000                    QLS     18
        35 025050   000001 036000 13                 ADLQ    ST_+1
        35 025051   000574 756000 0                  STQ     ST$$

  34277 35 025052   000013 236007                    LDQ     11,DL
        35 025053   000002 056000 13                 ASQ     ST_+2

  34325 35 025054   000766 220003                    LDX0    502,DU
        35 025055   000574 470400 0                  LDP0    ST$$
        35 025056   000000 740100                    STX0    0,,PR0

  34326 35 025057   000574 470400 0                  LDP0    ST$$
        35 025060   003000 236007                    LDQ     1536,DL
        35 025061   000000 552110                    STBQ    0,'10'O,PR0

  34327 35 025062   000574 470400 0                  LDP0    ST$$
PL6.E3A0      #001=Z8EM$SEMANTICS_DATA_DIV File=Z8EM.:Z8A6TSI                    SAT 08/09/97 12:08 Page:848
        35 025063   000001 236007                    LDQ     1,DL
        35 025064   000000 552104                    STBQ    0,'04'O,PR0

  34328 35 025065   000000 221003                    LDX1    0,DU
        35 025066   000574 470400 0                  LDP0    ST$$
        35 025067   000001 741100                    STX1    1,,PR0

  34329 35 025070   000574 470400 0                  LDP0    ST$$
        35 025071   000001 441100                    SXL1    1,,PR0

  34330 35 025072   000573 470400 0                  LDP0    TERM$
        35 025073   000005 722100                    LXL2    5,,PR0
        35 025074   000574 471400 0                  LDP1    ST$$
        35 025075   100002 442100                    SXL2    2,,PR1

  34331 35 025076   000574 471400 0                  LDP1    ST$$
        35 025077   100003 450100                    STZ     3,,PR1

  34332 35 025100   000002 471500                    LDP1    2,,PR0
        35 025101   100001 236100                    LDQ     1,,PR1
        35 025102   000574 473400 0                  LDP3    ST$$
        35 025103   300004 756100                    STQ     4,,PR3

  34333 35 025104   000024 236000 36                 LDQ     20
        35 025105   000574 471400 0                  LDP1    ST$$
        35 025106   100005 756100                    STQ     5,,PR1

  34334 35 025107   000024 236000 36                 LDQ     20
        35 025110   000574 471400 0                  LDP1    ST$$
        35 025111   100007 756100                    STQ     7,,PR1

  34335 35 025112   000574 471400 0                  LDP1    ST$$
        35 025113   100010 741100                    STX1    8,,PR1

  34336 35 025114   777777 222003                    LDX2    -1,DU
        35 025115   000574 471400 0                  LDP1    ST$$
        35 025116   100010 442100                    SXL2    8,,PR1
PL6.E3A0      #001=Z8EM$SEMANTICS_DATA_DIV File=Z8EM.:Z8A6TSI                    SAT 08/09/97 12:08 Page:849

  34340 35 025117   000024 236000 36                 LDQ     20
        35 025120   000574 471400 0                  LDP1    ST$$
        35 025121   100012 756100                    STQ     10,,PR1

  34343 35 025122   000057 236000 xsym               LDQ     O1COM+47
        35 025123   000574 471400 0                  LDP1    ST$$
        35 025124   100011 756100                    STQ     9,,PR1

  34344 35 025125   000057 236000 xsym               LDQ     O1COM+47
        35 025126   000024 116000 36                 CMPQ    20
        35 025127   025153 600000 35                 TZE     s:34379

  34348 35 025130   000057 471400 xsym               LDP1    O1COM+47
        35 025131   100001 473500                    LDP3    1,,PR1
        35 025132   300012 236100                    LDQ     10,,PR3
        35 025133   000024 116000 36                 CMPQ    20
        35 025134   025144 601000 35                 TNZ     s:34355

  34350 35 025135   000574 236000 0                  LDQ     ST$$
        35 025136   300011 756100                    STQ     9,,PR3

  34351 35 025137   000057 471400 xsym               LDP1    O1COM+47
        35 025140   100001 473500                    LDP3    1,,PR1
        35 025141   000574 236000 0                  LDQ     ST$$
        35 025142   300012 756100                    STQ     10,,PR3

  34352 35 025143   025153 710000 35                 TRA     s:34379

  34355 35 025144   300012 474500                    LDP4    10,,PR3
        35 025145   000574 236000 0                  LDQ     ST$$
        35 025146   400012 756100                    STQ     10,,PR4

  34356 35 025147   000057 471400 xsym               LDP1    O1COM+47
        35 025150   100001 473500                    LDP3    1,,PR1
        35 025151   000574 236000 0                  LDQ     ST$$
        35 025152   300012 756100                    STQ     10,,PR3
PL6.E3A0      #001=Z8EM$SEMANTICS_DATA_DIV File=Z8EM.:Z8A6TSI                    SAT 08/09/97 12:08 Page:850

  34379 35 025153   000010 223003                    LDX3    8,DU
        35 025154   000574 471400 0                  LDP1    ST$$
        35 025155   100002 743100                    STX3    2,,PR1

  34384 35 025156   000002 236100                    LDQ     2,,PR0
        35 025157   000574 471400 0                  LDP1    ST$$
        35 025160   100006 756100                    STQ     6,,PR1

  34401 35 025161   000574 471400 0                  LDP1    ST$$
        35 025162   010000 236003                    LDQ     4096,DU
        35 025163   100003 256100                    ORSQ    3,,PR1

  34449 35 025164   000574 471400 0                  LDP1    ST$$
        35 025165   100003 236100                    LDQ     3,,PR1
        35 025166   000202 376000 36                 ANQ     130
        35 025167   000003 276007                    ORQ     3,DL
        35 025170   100003 756100                    STQ     3,,PR1

  34470 35 025171   000574 471400 0                  LDP1    ST$$
        35 025172   000120 236007                    LDQ     80,DL
        35 025173   100001 752103                    STCQ    1,'03'O,PR1

  34471 35 025174   000002 471500                    LDP1    2,,PR0
        35 025175   000574 236000 0                  LDQ     ST$$
        35 025176   100001 756100                    STQ     1,,PR1

  34472 35 025177   000574 236000 0                  LDQ     ST$$
        35 025200   000570 471400 0                  LDP1    PTR_ARRAY$
        35 025201   100003 756100                    STQ     3,,PR1

  34482 35 025202   000002 236000 11                 LDQ     QLT_+2
        35 025203   000006 036007                    ADLQ    6,DL
        35 025204   000003 116000 11                 CMPQ    QLT_+3
        35 025205   025216 602000 35                 TNC     s:34484

  34483 35 025206   000103 236000 36                 LDQ     67
PL6.E3A0      #001=Z8EM$SEMANTICS_DATA_DIV File=Z8EM.:Z8A6TSI                    SAT 08/09/97 12:08 Page:851
        35 025207   001012 756000 0                  STQ     PROC$+2
        35 025210   001012 633400 0                  EPPR3   PROC$+2
        35 025211   001013 453400 0                  STP3    PROC$+3
        35 025212   001013 630400 0                  EPPR0   PROC$+3
        35 025213   000036 631400 36                 EPPR1   30
        35 025214   000000 701000 xent               TSX1    Z8AR$RESERVER
        35 025215   000000 011000                    NOP     0

  34484 35 025216   000002 236000 11                 LDQ     QLT_+2
        35 025217   000022 736000                    QLS     18
        35 025220   000001 036000 11                 ADLQ    QLT_+1
        35 025221   000574 470400 0                  LDP0    ST$$
        35 025222   000007 756100                    STQ     7,,PR0

  34485 35 025223   000002 235000 11                 LDA     QLT_+2
        35 025224   000006 035007                    ADLA    6,DL
        35 025225   000002 755000 11                 STA     QLT_+2

  34486 35 025226   000574 470400 0                  LDP0    ST$$
        35 025227   000007 471500                    LDP1    7,,PR0
        35 025230   001053 220003                    LDX0    555,DU
        35 025231   100000 740100                    STX0    0,,PR1

  34489 35 025232   000574 470400 0                  LDP0    ST$$
        35 025233   000007 471500                    LDP1    7,,PR0
        35 025234   000567 473400 0                  LDP3    BRO$
        35 025235   300001 236100                    LDQ     1,,PR3
        35 025236   100001 756100                    STQ     1,,PR1

  34490 35 025237   000574 470400 0                  LDP0    ST$$
        35 025240   000007 471500                    LDP1    7,,PR0
        35 025241   000024 236000 36                 LDQ     20
        35 025242   100002 756100                    STQ     2,,PR1

  34491 35 025243   000574 470400 0                  LDP0    ST$$
        35 025244   000007 471500                    LDP1    7,,PR0
        35 025245   000024 236000 36                 LDQ     20
PL6.E3A0      #001=Z8EM$SEMANTICS_DATA_DIV File=Z8EM.:Z8A6TSI                    SAT 08/09/97 12:08 Page:852
        35 025246   100003 756100                    STQ     3,,PR1

  34492 35 025247   000574 470400 0                  LDP0    ST$$
        35 025250   000007 471500                    LDP1    7,,PR0
        35 025251   000574 236000 0                  LDQ     ST$$
        35 025252   100004 756100                    STQ     4,,PR1

  34493 35 025253   000574 470400 0                  LDP0    ST$$
        35 025254   000007 471500                    LDP1    7,,PR0
        35 025255   000573 474400 0                  LDP4    TERM$
        35 025256   400002 236100                    LDQ     2,,PR4
        35 025257   100005 756100                    STQ     5,,PR1

  34494 35 025260   000574 470400 0                  LDP0    ST$$
        35 025261   000007 471500                    LDP1    7,,PR0
        35 025262   000001 236007                    LDQ     1,DL
        35 025263   100000 552104                    STBQ    0,'04'O,PR1

  34495 35 025264   000574 470400 0                  LDP0    ST$$
        35 025265   000007 471500                    LDP1    7,,PR0
        35 025266   000000 236003                    LDQ     0,DU
        35 025267   100000 552110                    STBQ    0,'10'O,PR1

  34496 35 025270   000574 470400 0                  LDP0    ST$$
        35 025271   000007 471500                    LDP1    7,,PR0
        35 025272   000104 236000 36                 LDQ     68
        35 025273   100000 356100                    ANSQ    0,,PR1

  34497 35 025274   000574 470400 0                  LDP0    ST$$
        35 025275   000007 471500                    LDP1    7,,PR0
        35 025276   000105 236000 36                 LDQ     69
        35 025277   100000 356100                    ANSQ    0,,PR1

  34498 35 025300   000574 470400 0                  LDP0    ST$$
        35 025301   000007 471500                    LDP1    7,,PR0
        35 025302   000106 236000 36                 LDQ     70
        35 025303   100000 356100                    ANSQ    0,,PR1
PL6.E3A0      #001=Z8EM$SEMANTICS_DATA_DIV File=Z8EM.:Z8A6TSI                    SAT 08/09/97 12:08 Page:853

  34499 35 025304   000574 470400 0                  LDP0    ST$$
        35 025305   000007 471500                    LDP1    7,,PR0
        35 025306   000107 236000 36                 LDQ     71
        35 025307   100000 356100                    ANSQ    0,,PR1

  34502 35 025310   000574 470400 0                  LDP0    ST$$
        35 025311   000007 236100                    LDQ     7,,PR0
        35 025312   300002 756100                    STQ     2,,PR3

  34503 35 025313   000567 756000 0                  STQ     BRO$

     4275    34506    5              END;

  34506 35 025314   025672 710000 35                 TRA     s:34841

     4276    34507
     4277    34508    4          SELECT ('ENDING-TAPE-LABEL');

     4278    34509    4            IF O1COM.CURRENT_FILE_LTS$ -> FILE_LTS.B.END_TAPE_LABEL THEN

  34509 35 025315   000045 473400 xsym               LDP3    O1COM+37
        35 025316   300017 236100                    LDQ     15,,PR3
        35 025317   000002 316003                    CANQ    2,DU
        35 025320   025343 600000 35                 TZE     s:34547

     4279    34510                   %REPORT_DUP_ERROR;

  34524 35 025321   000000 236100                    LDQ     0,,PR0
        35 025322   400000 316007                    CANQ    -131072,DL
        35 025323   025672 601000 35                 TNZ     s:34841

  34526 35 025324   000573 236000 0                  LDQ     TERM$
        35 025325   000006 036003                    ADLQ    6,DU
        35 025326   001014 756000 0                  STQ     PROC$+4
        35 025327   000573 236000 0                  LDQ     TERM$
        35 025330   000005 036003                    ADLQ    5,DU
PL6.E3A0      #001=Z8EM$SEMANTICS_DATA_DIV File=Z8EM.:Z8A6TSI                    SAT 08/09/97 12:08 Page:854
        35 025331   000502 235000 36                 LDA     322
        35 025332   001012 757000 0                  STAQ    PROC$+2
        35 025333   001012 630400 0                  EPPR0   PROC$+2
        35 025334   000000 631400 36                 EPPR1   0
        35 025335   000000 701000 xent               TSX1    Z8AE$ERROR
        35 025336   000000 011000                    NOP     0

  34535 35 025337   000573 470400 0                  LDP0    TERM$
        35 025340   400000 236007                    LDQ     -131072,DL
        35 025341   000000 256100                    ORSQ    0,,PR0

  34542 35 025342   025672 710000 35                 TRA     s:34841

     4280    34545    4            ELSE
     4281    34546    5              DO;

     4282    34547    5                O1COM.CURRENT_FILE_LTS$ -> FILE_LTS.B.END_TAPE_LABEL = TRUE;

  34547 35 025343   000002 236003                    LDQ     2,DU
        35 025344   300017 256100                    ORSQ    15,,PR3

     4283    34548    5                LABEL_COUNT = LABEL_COUNT + 1;

  34548 35 025345   000571 054000 0                  AOS     LABEL_COUNT

     4284    34549
     4285    34550                     %CREATE_USER_LABEL_AREA (@AREA = %ENDING_TAPE_LABEL);

  34552 35 025346   000567 236000 0                  LDQ     BRO$
        35 025347   000024 116000 36                 CMPQ    20
        35 025350   025366 601000 35                 TNZ     s:34569

  34554 35 025351   000045 471400 xsym               LDP1    O1COM+37
        35 025352   100001 473500                    LDP3    1,,PR1
        35 025353   300007 474500                    LDP4    7,,PR3
        35 025354   400003 236100                    LDQ     3,,PR4
        35 025355   000567 756000 0                  STQ     BRO$
PL6.E3A0      #001=Z8EM$SEMANTICS_DATA_DIV File=Z8EM.:Z8A6TSI                    SAT 08/09/97 12:08 Page:855

  34555 35 025356   025362 710000 35                 TRA     s:34557

  34556 35 025357   000567 470400 0                  LDP0    BRO$
        35 025360   000002 236100                    LDQ     2,,PR0
        35 025361   000567 756000 0                  STQ     BRO$

  34557 35 025362   000567 470400 0                  LDP0    BRO$
        35 025363   000002 236100                    LDQ     2,,PR0
        35 025364   000024 116000 36                 CMPQ    20
        35 025365   025357 601000 35                 TNZ     s:34556

  34569 35 025366   000002 236000 13                 LDQ     ST_+2
        35 025367   000013 036007                    ADLQ    11,DL
        35 025370   000003 116000 13                 CMPQ    ST_+3
        35 025371   025402 604000 35                 TMI     s:34571

  34570 35 025372   000102 236000 36                 LDQ     66
        35 025373   001012 756000 0                  STQ     PROC$+2
        35 025374   001012 630400 0                  EPPR0   PROC$+2
        35 025375   001013 450400 0                  STP0    PROC$+3
        35 025376   001013 630400 0                  EPPR0   PROC$+3
        35 025377   000036 631400 36                 EPPR1   30
        35 025400   000000 701000 xent               TSX1    Z8AR$RESERVER
        35 025401   000000 011000                    NOP     0

  34571 35 025402   000002 236000 13                 LDQ     ST_+2
        35 025403   000022 736000                    QLS     18
        35 025404   000001 036000 13                 ADLQ    ST_+1
        35 025405   000574 756000 0                  STQ     ST$$

  34572 35 025406   000013 236007                    LDQ     11,DL
        35 025407   000002 056000 13                 ASQ     ST_+2

  34620 35 025410   000766 220003                    LDX0    502,DU
        35 025411   000574 470400 0                  LDP0    ST$$
        35 025412   000000 740100                    STX0    0,,PR0
PL6.E3A0      #001=Z8EM$SEMANTICS_DATA_DIV File=Z8EM.:Z8A6TSI                    SAT 08/09/97 12:08 Page:856

  34621 35 025413   000574 470400 0                  LDP0    ST$$
        35 025414   003000 236007                    LDQ     1536,DL
        35 025415   000000 552110                    STBQ    0,'10'O,PR0

  34622 35 025416   000574 470400 0                  LDP0    ST$$
        35 025417   000001 236007                    LDQ     1,DL
        35 025420   000000 552104                    STBQ    0,'04'O,PR0

  34623 35 025421   000000 221003                    LDX1    0,DU
        35 025422   000574 470400 0                  LDP0    ST$$
        35 025423   000001 741100                    STX1    1,,PR0

  34624 35 025424   000574 470400 0                  LDP0    ST$$
        35 025425   000001 441100                    SXL1    1,,PR0

  34625 35 025426   000573 470400 0                  LDP0    TERM$
        35 025427   000005 722100                    LXL2    5,,PR0
        35 025430   000574 471400 0                  LDP1    ST$$
        35 025431   100002 442100                    SXL2    2,,PR1

  34626 35 025432   000574 471400 0                  LDP1    ST$$
        35 025433   100003 450100                    STZ     3,,PR1

  34627 35 025434   000002 471500                    LDP1    2,,PR0
        35 025435   100001 236100                    LDQ     1,,PR1
        35 025436   000574 473400 0                  LDP3    ST$$
        35 025437   300004 756100                    STQ     4,,PR3

  34628 35 025440   000024 236000 36                 LDQ     20
        35 025441   000574 471400 0                  LDP1    ST$$
        35 025442   100005 756100                    STQ     5,,PR1

  34629 35 025443   000024 236000 36                 LDQ     20
        35 025444   000574 471400 0                  LDP1    ST$$
        35 025445   100007 756100                    STQ     7,,PR1

PL6.E3A0      #001=Z8EM$SEMANTICS_DATA_DIV File=Z8EM.:Z8A6TSI                    SAT 08/09/97 12:08 Page:857
  34630 35 025446   000574 471400 0                  LDP1    ST$$
        35 025447   100010 741100                    STX1    8,,PR1

  34631 35 025450   777777 222003                    LDX2    -1,DU
        35 025451   000574 471400 0                  LDP1    ST$$
        35 025452   100010 442100                    SXL2    8,,PR1

  34635 35 025453   000024 236000 36                 LDQ     20
        35 025454   000574 471400 0                  LDP1    ST$$
        35 025455   100012 756100                    STQ     10,,PR1

  34638 35 025456   000057 236000 xsym               LDQ     O1COM+47
        35 025457   000574 471400 0                  LDP1    ST$$
        35 025460   100011 756100                    STQ     9,,PR1

  34639 35 025461   000057 236000 xsym               LDQ     O1COM+47
        35 025462   000024 116000 36                 CMPQ    20
        35 025463   025507 600000 35                 TZE     s:34674

  34643 35 025464   000057 471400 xsym               LDP1    O1COM+47
        35 025465   100001 473500                    LDP3    1,,PR1
        35 025466   300012 236100                    LDQ     10,,PR3
        35 025467   000024 116000 36                 CMPQ    20
        35 025470   025500 601000 35                 TNZ     s:34650

  34645 35 025471   000574 236000 0                  LDQ     ST$$
        35 025472   300011 756100                    STQ     9,,PR3

  34646 35 025473   000057 471400 xsym               LDP1    O1COM+47
        35 025474   100001 473500                    LDP3    1,,PR1
        35 025475   000574 236000 0                  LDQ     ST$$
        35 025476   300012 756100                    STQ     10,,PR3

  34647 35 025477   025507 710000 35                 TRA     s:34674

  34650 35 025500   300012 474500                    LDP4    10,,PR3
        35 025501   000574 236000 0                  LDQ     ST$$
PL6.E3A0      #001=Z8EM$SEMANTICS_DATA_DIV File=Z8EM.:Z8A6TSI                    SAT 08/09/97 12:08 Page:858
        35 025502   400012 756100                    STQ     10,,PR4

  34651 35 025503   000057 471400 xsym               LDP1    O1COM+47
        35 025504   100001 473500                    LDP3    1,,PR1
        35 025505   000574 236000 0                  LDQ     ST$$
        35 025506   300012 756100                    STQ     10,,PR3

  34674 35 025507   000010 223003                    LDX3    8,DU
        35 025510   000574 471400 0                  LDP1    ST$$
        35 025511   100002 743100                    STX3    2,,PR1

  34679 35 025512   000002 236100                    LDQ     2,,PR0
        35 025513   000574 471400 0                  LDP1    ST$$
        35 025514   100006 756100                    STQ     6,,PR1

  34696 35 025515   000574 471400 0                  LDP1    ST$$
        35 025516   010000 236003                    LDQ     4096,DU
        35 025517   100003 256100                    ORSQ    3,,PR1

  34744 35 025520   000574 471400 0                  LDP1    ST$$
        35 025521   100003 236100                    LDQ     3,,PR1
        35 025522   000202 376000 36                 ANQ     130
        35 025523   000003 276007                    ORQ     3,DL
        35 025524   100003 756100                    STQ     3,,PR1

  34765 35 025525   000574 471400 0                  LDP1    ST$$
        35 025526   000120 236007                    LDQ     80,DL
        35 025527   100001 752103                    STCQ    1,'03'O,PR1

  34766 35 025530   000002 471500                    LDP1    2,,PR0
        35 025531   000574 236000 0                  LDQ     ST$$
        35 025532   100001 756100                    STQ     1,,PR1

  34767 35 025533   000574 236000 0                  LDQ     ST$$
        35 025534   000570 471400 0                  LDP1    PTR_ARRAY$
        35 025535   100005 756100                    STQ     5,,PR1

PL6.E3A0      #001=Z8EM$SEMANTICS_DATA_DIV File=Z8EM.:Z8A6TSI                    SAT 08/09/97 12:08 Page:859
  34777 35 025536   000002 236000 11                 LDQ     QLT_+2
        35 025537   000006 036007                    ADLQ    6,DL
        35 025540   000003 116000 11                 CMPQ    QLT_+3
        35 025541   025552 602000 35                 TNC     s:34779

  34778 35 025542   000103 236000 36                 LDQ     67
        35 025543   001012 756000 0                  STQ     PROC$+2
        35 025544   001012 633400 0                  EPPR3   PROC$+2
        35 025545   001013 453400 0                  STP3    PROC$+3
        35 025546   001013 630400 0                  EPPR0   PROC$+3
        35 025547   000036 631400 36                 EPPR1   30
        35 025550   000000 701000 xent               TSX1    Z8AR$RESERVER
        35 025551   000000 011000                    NOP     0

  34779 35 025552   000002 236000 11                 LDQ     QLT_+2
        35 025553   000022 736000                    QLS     18
        35 025554   000001 036000 11                 ADLQ    QLT_+1
        35 025555   000574 470400 0                  LDP0    ST$$
        35 025556   000007 756100                    STQ     7,,PR0

  34780 35 025557   000002 235000 11                 LDA     QLT_+2
        35 025560   000006 035007                    ADLA    6,DL
        35 025561   000002 755000 11                 STA     QLT_+2

  34781 35 025562   000574 470400 0                  LDP0    ST$$
        35 025563   000007 471500                    LDP1    7,,PR0
        35 025564   001053 220003                    LDX0    555,DU
        35 025565   100000 740100                    STX0    0,,PR1

  34784 35 025566   000574 470400 0                  LDP0    ST$$
        35 025567   000007 471500                    LDP1    7,,PR0
        35 025570   000567 473400 0                  LDP3    BRO$
        35 025571   300001 236100                    LDQ     1,,PR3
        35 025572   100001 756100                    STQ     1,,PR1

  34785 35 025573   000574 470400 0                  LDP0    ST$$
        35 025574   000007 471500                    LDP1    7,,PR0
PL6.E3A0      #001=Z8EM$SEMANTICS_DATA_DIV File=Z8EM.:Z8A6TSI                    SAT 08/09/97 12:08 Page:860
        35 025575   000024 236000 36                 LDQ     20
        35 025576   100002 756100                    STQ     2,,PR1

  34786 35 025577   000574 470400 0                  LDP0    ST$$
        35 025600   000007 471500                    LDP1    7,,PR0
        35 025601   000024 236000 36                 LDQ     20
        35 025602   100003 756100                    STQ     3,,PR1

  34787 35 025603   000574 470400 0                  LDP0    ST$$
        35 025604   000007 471500                    LDP1    7,,PR0
        35 025605   000574 236000 0                  LDQ     ST$$
        35 025606   100004 756100                    STQ     4,,PR1

  34788 35 025607   000574 470400 0                  LDP0    ST$$
        35 025610   000007 471500                    LDP1    7,,PR0
        35 025611   000573 474400 0                  LDP4    TERM$
        35 025612   400002 236100                    LDQ     2,,PR4
        35 025613   100005 756100                    STQ     5,,PR1

  34789 35 025614   000574 470400 0                  LDP0    ST$$
        35 025615   000007 471500                    LDP1    7,,PR0
        35 025616   000001 236007                    LDQ     1,DL
        35 025617   100000 552104                    STBQ    0,'04'O,PR1

  34790 35 025620   000574 470400 0                  LDP0    ST$$
        35 025621   000007 471500                    LDP1    7,,PR0
        35 025622   000000 236003                    LDQ     0,DU
        35 025623   100000 552110                    STBQ    0,'10'O,PR1

  34791 35 025624   000574 470400 0                  LDP0    ST$$
        35 025625   000007 471500                    LDP1    7,,PR0
        35 025626   000104 236000 36                 LDQ     68
        35 025627   100000 356100                    ANSQ    0,,PR1

  34792 35 025630   000574 470400 0                  LDP0    ST$$
        35 025631   000007 471500                    LDP1    7,,PR0
        35 025632   000105 236000 36                 LDQ     69
PL6.E3A0      #001=Z8EM$SEMANTICS_DATA_DIV File=Z8EM.:Z8A6TSI                    SAT 08/09/97 12:08 Page:861
        35 025633   100000 356100                    ANSQ    0,,PR1

  34793 35 025634   000574 470400 0                  LDP0    ST$$
        35 025635   000007 471500                    LDP1    7,,PR0
        35 025636   000106 236000 36                 LDQ     70
        35 025637   100000 356100                    ANSQ    0,,PR1

  34794 35 025640   000574 470400 0                  LDP0    ST$$
        35 025641   000007 471500                    LDP1    7,,PR0
        35 025642   000107 236000 36                 LDQ     71
        35 025643   100000 356100                    ANSQ    0,,PR1

  34797 35 025644   000574 470400 0                  LDP0    ST$$
        35 025645   000007 236100                    LDQ     7,,PR0
        35 025646   300002 756100                    STQ     2,,PR3

  34798 35 025647   000567 756000 0                  STQ     BRO$

     4286    34801    5              END;

  34801 35 025650   025672 710000 35                 TRA     s:34841

     4287    34802
     4288    34803    4          SELECT (ELSE);

     4289    34804
     4290    34805                 %CONDITIONAL_ERROR (@LX_ITEM$ = TERM$,
     4291    34806                                     @ERROR#   = %E$USER_LABEL_NAME_ERROR,
     4292    34807                                     @LINE     = TERM$ -> LX_ITEM.LINE,
     4293    34808                                     @COLUMN   = TERM$ -> LX_ITEM.COLUMN);

  34818 35 025651   000000 236100                    LDQ     0,,PR0
        35 025652   400000 316007                    CANQ    -131072,DL
        35 025653   025672 601000 35                 TNZ     s:34841

  34820 35 025654   000573 236000 0                  LDQ     TERM$
        35 025655   000006 036003                    ADLQ    6,DU
PL6.E3A0      #001=Z8EM$SEMANTICS_DATA_DIV File=Z8EM.:Z8A6TSI                    SAT 08/09/97 12:08 Page:862
        35 025656   001014 756000 0                  STQ     PROC$+4
        35 025657   000573 236000 0                  LDQ     TERM$
        35 025660   000005 036003                    ADLQ    5,DU
        35 025661   000504 235000 36                 LDA     324
        35 025662   001012 757000 0                  STAQ    PROC$+2
        35 025663   001012 630400 0                  EPPR0   PROC$+2
        35 025664   000000 631400 36                 EPPR1   0
        35 025665   000000 701000 xent               TSX1    Z8AE$ERROR
        35 025666   000000 011000                    NOP     0

  34829 35 025667   000573 470400 0                  LDP0    TERM$
        35 025670   400000 236007                    LDQ     -131072,DL
        35 025671   000000 256100                    ORSQ    0,,PR0

     4294    34838
     4295    34839    4        END; /* DO SELECT */

     4296    34840
     4297    34841    3        TERM$ = TERM$ -> LX_ITEM.LINK;

  34841 35 025672   000573 470400 0                  LDP0    TERM$
        35 025673   000007 236100                    LDQ     7,,PR0
        35 025674   000573 756000 0                  STQ     TERM$

     4298    34842
     4299    34843    3      END; /* DO WHILE */

  34843 35 025675   000024 116000 36                 CMPQ    20
        35 025676   024042 601000 35                 TNZ     s:33622

     4300    34844
     4301    34845    2      CALL Z8ED$DISPOSE_ABSSYN_TREE (O1COM.CURRENT_FILE_LTS$ ->

  34845 35 025677   000045 236000 xsym               LDQ     O1COM+37
        35 025700   000026 036003                    ADLQ    22,DU
        35 025701   001012 756000 0                  STQ     PROC$+2
        35 025702   001012 630400 0                  EPPR0   PROC$+2
PL6.E3A0      #001=Z8EM$SEMANTICS_DATA_DIV File=Z8EM.:Z8A6TSI                    SAT 08/09/97 12:08 Page:863
        35 025703   000036 631400 36                 EPPR1   30
        35 025704   000000 701000 xent               TSX1    Z8ED$DISPOSE_ABSSYN_TREE
        35 025705   000000 011000                    NOP     0

     4302    34846    2                                              FILE_LTS.LABEL_RECORDS$);
     4303    34847
     4304    34848    2      IF LABEL_COUNT ~= 0 THEN

  34848 35 025706   000571 235000 0                  LDA     LABEL_COUNT
        35 025707   025772 600000 35                 TZE     s:35248

     4305    34849    3        DO;

     4306    34850    3          CALL Z8AT$CREATE_TEMPORARY (%SCALAR, ST$$);

  34850 35 025710   000505 630400 36                 EPPR0   325
        35 025711   000025 631400 36                 EPPR1   21
        35 025712   000000 701000 xent               TSX1    Z8AT$CREATE_TEMPORARY
        35 025713   000000 011000                    NOP     0

     4307    34851
     4308    34852    3          ST$$ -> SCALAR.TYPE = %TYA;

  34852 35 025714   000010 220003                    LDX0    8,DU
        35 025715   000574 470400 0                  LDP0    ST$$
        35 025716   000002 740100                    STX0    2,,PR0

     4309    34853    3          ST$$ -> SCALAR.ADSC.N = 16;

  34853 35 025717   000574 470400 0                  LDP0    ST$$
        35 025720   000020 236007                    LDQ     16,DL
        35 025721   000001 752103                    STCQ    1,'03'O,PR0

     4310    34854    3          ST$$ -> SCALAR.B.CLASS = %CLASS_ALPHANUMERIC;

  34854 35 025722   000574 470400 0                  LDP0    ST$$
        35 025723   000003 236100                    LDQ     3,,PR0
PL6.E3A0      #001=Z8EM$SEMANTICS_DATA_DIV File=Z8EM.:Z8A6TSI                    SAT 08/09/97 12:08 Page:864
        35 025724   000202 376000 36                 ANQ     130
        35 025725   000003 276007                    ORQ     3,DL
        35 025726   000003 756100                    STQ     3,,PR0

     4311    34855
     4312    34856    4          DO I = 0 TO %USER_LABEL_TABLE_SIZE - 1;

  34856 35 025727   000572 450000 0                  STZ     I
        35 025730   025764 710000 35                 TRA     s:35242+1

     4313    34857    4            IF PTR_ARRAY$ -> LTS_PTR_ARRAY.P$(I) ~= ADDR(NIL) THEN

  34857 35 025731   000570 470400 0                  LDP0    PTR_ARRAY$
        35 025732   000572 720000 0                  LXL0    I
        35 025733   000002 236110                    LDQ     2,X0,PR0
        35 025734   000024 116000 36                 CMPQ    20
        35 025735   025763 600000 35                 TZE     s:35242

     4314    34858    5              DO;

     4315    34859                     %NEW_ILL (@ID     = %PTR_SET,
     4316    34860                               @LOP    = ST$$,
     4317    34861                               @ROP    = "PTR_ARRAY$ -> LTS_PTR_ARRAY.P$(I)",
     4318    34862                               @OFFSET = I);

  35082 35 025736   000112 236000 36                 LDQ     74
        35 025737   001012 756000 0                  STQ     PROC$+2
        35 025740   001012 631400 0                  EPPR1   PROC$+2
        35 025741   001017 451400 0                  STP1    PROC$+7
        35 025742   000113 236000 36                 LDQ     75
        35 025743   001016 756000 0                  STQ     PROC$+6
        35 025744   000114 237000 36                 LDAQ    76
        35 025745   001014 757000 0                  STAQ    PROC$+4
        35 025746   001014 630400 0                  EPPR0   PROC$+4
        35 025747   000005 631400 36                 EPPR1   5
        35 025750   000000 701000 xent               TSX1    Z8AN$NEW_ILL
        35 025751   000000 011000                    NOP     0
PL6.E3A0      #001=Z8EM$SEMANTICS_DATA_DIV File=Z8EM.:Z8A6TSI                    SAT 08/09/97 12:08 Page:865

  35086 35 025752   000572 720000 0                  LXL0    I
        35 025753   000000 470400 5                  LDP0    ILL$
        35 025754   000000 440100                    SXL0    0,,PR0

  35088 35 025755   000574 236000 0                  LDQ     ST$$
        35 025756   000000 470400 5                  LDP0    ILL$
        35 025757   000001 756100                    STQ     1,,PR0

  35089 35 025760   000570 471400 0                  LDP1    PTR_ARRAY$
        35 025761   100002 236110                    LDQ     2,X0,PR1
        35 025762   000002 756100                    STQ     2,,PR0

     4319    35241    5              END;

     4320    35242    4          END;  /* DO I = ... */

  35242 35 025763   000572 054000 0                  AOS     I
        35 025764   000572 235000 0                  LDA     I
        35 025765   000003 115007                    CMPA    3,DL
        35 025766   025731 604400 35                 TMOZ    s:34857

     4321    35243
     4322    35244    3          O1COM.CURRENT_FILE_LTS$ -> FILE_LTS.LABEL_RECORDS$ = ST$$;

  35244 35 025767   000574 236000 0                  LDQ     ST$$
        35 025770   000045 470400 xsym               LDP0    O1COM+37
        35 025771   000026 756100                    STQ     22,,PR0

     4323    35245
     4324    35246    3        END;

     4325    35247
     4326    35248    2    END PROCESS_USER_LABELS;

  35248 35 025772   000566 221200 0                  LDX1  ! INT+1
        35 025773   000001 702211                    TSX2  ! 1,X1
PL6.E3A0      #001=Z8EM$SEMANTICS_DATA_DIV File=Z8EM.:Z8A6TSI                    SAT 08/09/97 12:08 Page:866

     4327    35249         %EJECT;
PL6.E3A0      #001=Z8EM$SEMANTICS_DATA_DIV File=Z8EM.:Z8A6TSI                    SAT 08/09/97 12:08 Page:867
     4328    35250
     4329    35251         /*================*/
     4330    35252    1      RD_NAME_RECOVERY:  PROC (REPORT$, ST$$);

  35252 35 025774   000575 741200 0     RD_NAME_REC* STX1  ! ST$$+1

     4331    35253         /*================*/
     4332    35254
     4333    35255
     4334    35256           %EQU RD_RECOVERY_FILE = 'RD_RECOVERY_FILE';
     4335    35257           %EQU RD_RECOVERY_FILE_LENGTH = 16;
     4336    35258
     4337    35259    2      DCL REPORT$            PTR;
     4338    35260    2      DCL ST$$               PTR;
     4339    35261    2      DCL RD$$               PTR;
     4340    35262    2      DCL 1 TEMP_TERMINAL    ALIGNED,
     4341    35263                 %LA_STK_INFO;
     4342    35282    2            2 LINK           PTR;
     4343    35283
     4344    35284
     4345    35285
     4346    35286    2      IF COMCOM.RD_RECOVERY_FILE$ = ADDR(NIL)  THEN

  35286 35 025775   000475 236000 xsym               LDQ     COMCOM+317
        35 025776   000024 116000 36                 CMPQ    20
        35 025777   026063 601000 35                 TNZ     s:35325

     4347    35287    3        DO;

     4348    35288    3          LEX_SYMBOL.SIZE = %RD_RECOVERY_FILE_LENGTH;

  35288 35 026000   000020 235007                    LDA     16,DL
        35 026001   000010 755000 25                 STA     LEX_SYMBOL+8

     4349    35289    3          SUBSTR (LEX_SYMBOL.SYMBOL,

  35289 35 026002   040000 100400                    MLR     fill='040'O
PL6.E3A0      #001=Z8EM$SEMANTICS_DATA_DIV File=Z8EM.:Z8A6TSI                    SAT 08/09/97 12:08 Page:868
        35 026003   000126 000020 34                 ADSC9   RSW_NO+86                cn=0,n=16
        35 026004   000011 000020 25                 ADSC9   LEX_SYMBOL+9             cn=0,n=16

     4350    35290    3                  0,
     4351    35291    3                  %RD_RECOVERY_FILE_LENGTH) = %RD_RECOVERY_FILE;
     4352    35292
     4353    35293    3          CALL Z8AH$SEARCH_;

  35293 35 026005   000011 631400 36                 EPPR1   9
        35 026006   000000 701000 xent               TSX1    Z8AH$SEARCH_
        35 026007   000000 011000                    NOP     0

     4354    35294
     4355    35295               %INIT_LX_TERMINAL (@POINTER     = "ADDR(TEMP_TERMINAL)",
     4356    35296                                  @DNT$        = DNT$);

  35298 35 026010   000000 220003                    LDX0    0,DU
        35 026011   000601 740000 0                  STX0    TEMP_TERMINAL

  35299 35 026012   000000 221003                    LDX1    0,DU
        35 026013   000601 441000 0                  SXL1    TEMP_TERMINAL

  35303 35 026014   000015 235007                    LDA     13,DL
        35 026015   000605 755000 0                  STA     TEMP_TERMINAL+4

  35305 35 026016   000024 236000 36                 LDQ     20
        35 026017   000610 756000 0                  STQ     TEMP_TERMINAL+7

  35307 35 026020   000602 756000 0                  STQ     TEMP_TERMINAL+1

  35308 35 026021   000761 235007                    LDA     497,DL
        35 026022   000604 755000 0                  STA     TEMP_TERMINAL+3

  35309 35 026023   000000 236000 14                 LDQ     DNT$
        35 026024   000603 756000 0                  STQ     TEMP_TERMINAL+2

  35310 35 026025   000133 235000 xsym               LDA     COMCOM+91
PL6.E3A0      #001=Z8EM$SEMANTICS_DATA_DIV File=Z8EM.:Z8A6TSI                    SAT 08/09/97 12:08 Page:869
        35 026026   000606 755000 0                  STA     TEMP_TERMINAL+5

  35311 35 026027   000134 235000 xsym               LDA     COMCOM+92
        35 026030   000607 755000 0                  STA     TEMP_TERMINAL+6

     4357    35314
     4358    35315    3          CALL NEW_FILE (ADDR(TEMP_TERMINAL), RD$$);

  35315 35 026031   000507 236000 36                 LDQ     327
        35 026032   001026 756000 0                  STQ     PROC$+14
        35 026033   000510 236000 36                 LDQ     328
        35 026034   000412 756000 0                  STQ     @FD$$
        35 026035   001026 630400 0                  EPPR0   PROC$+14
        35 026036   000411 450400 0                  STP0    @FILE$
        35 026037   013772 701000 35                 TSX1    NEW_FILE
        35 026040   000000 011000                    NOP     0

     4359    35316
     4360    35317    3          CALL Z9EM$ASSIGN_RECOVERY (RD$$ -> RD.LTS$ -> FILE_LTS.ASSIGN$);

  35317 35 026041   000600 470400 0                  LDP0    RD$$
        35 026042   000005 471500                    LDP1    5,,PR0
        35 026043   100004 633500                    EPPR3   4,,PR1
        35 026044   001012 453400 0                  STP3    PROC$+2
        35 026045   001012 630400 0                  EPPR0   PROC$+2
        35 026046   000036 631400 36                 EPPR1   30
        35 026047   000000 701000 xent               TSX1    Z9EM$ASSIGN_RECOVERY
        35 026050   000000 011000                    NOP     0

     4361    35318    3          RD$$ -> RD.LTS$ -> FILE_LTS.ORGANIZATION = %SEQUENTIAL;

  35318 35 026051   000600 470400 0                  LDP0    RD$$
        35 026052   000005 471500                    LDP1    5,,PR0
        35 026053   000001 235007                    LDA     1,DL
        35 026054   100006 755100                    STA     6,,PR1

     4362    35319    3          RD$$ -> RD.LTS$ -> FILE_LTS.ACCESS_MODE = %SEQUENTIAL_ACCESS;
PL6.E3A0      #001=Z8EM$SEMANTICS_DATA_DIV File=Z8EM.:Z8A6TSI                    SAT 08/09/97 12:08 Page:870

  35319 35 026055   000600 470400 0                  LDP0    RD$$
        35 026056   000005 471500                    LDP1    5,,PR0
        35 026057   100011 755100                    STA     9,,PR1

     4363    35320
     4364    35321    3          COMCOM.RD_RECOVERY_FILE$ = RD$$ -> FD.LTS$;

  35321 35 026060   000600 470400 0                  LDP0    RD$$
        35 026061   000005 236100                    LDQ     5,,PR0
        35 026062   000475 756000 xsym               STQ     COMCOM+317

     4365    35322
     4366    35323    3        END;

     4367    35324
     4368    35325    2        O1COM.CURRENT_FILE_LTS$ = COMCOM.RD_RECOVERY_FILE$;

  35325 35 026063   000045 756000 xsym               STQ     O1COM+37

     4369    35326    2        CALL NEW_REPORT (REPORT$, ST$$);

  35326 35 026064   000576 237000 0                  LDAQ    @REPORT$
        35 026065   000442 757000 0                  STAQ    @REPORT$
        35 026066   017532 701000 35                 TSX1    NEW_REPORT
        35 026067   000000 011000                    NOP     0

     4370    35327
     4371    35328    2        ST$$ ->RD.LTS$ -> REPORT_LTS.LINK = COMCOM.RD_RECOVERY_FILE$ -> FILE_LTS.
             35328                 REPORT$;

  35328 35 026070   000577 470400 0                  LDP0    @ST$$
        35 026071   000000 471500                    LDP1    0,,PR0
        35 026072   100005 473500                    LDP3    5,,PR1
        35 026073   000475 474400 xsym               LDP4    COMCOM+317
        35 026074   400040 236100                    LDQ     32,,PR4
        35 026075   300043 756100                    STQ     35,,PR3
PL6.E3A0      #001=Z8EM$SEMANTICS_DATA_DIV File=Z8EM.:Z8A6TSI                    SAT 08/09/97 12:08 Page:871

     4372    35329
     4373    35330    2        COMCOM.RD_RECOVERY_FILE$ -> FILE_LTS.REPORT$ = ST$$ -> RD.LTS$;

  35330 35 026076   000000 471500                    LDP1    0,,PR0
        35 026077   100005 236100                    LDQ     5,,PR1
        35 026100   000475 473400 xsym               LDP3    COMCOM+317
        35 026101   300040 756100                    STQ     32,,PR3

     4374    35331
     4375    35332    2      END RD_NAME_RECOVERY;

  35332 35 026102   000575 221200 0                  LDX1  ! ST$$+1
        35 026103   000001 702211                    TSX2  ! 1,X1

     4376    35333           %EJECT;
PL6.E3A0      #001=Z8EM$SEMANTICS_DATA_DIV File=Z8EM.:Z8A6TSI                    SAT 08/09/97 12:08 Page:872
     4377    35334
     4378    35335
     4379    35336
     4380    35337          /*========*/
     4381    35338    1       RD_START:   PROC (REPORT$);

  35338 35 026104   000611 741200 0     RD_START     STX1  ! TEMP_TERMINAL+8

     4382    35339          /*========*/
     4383    35340
     4384    35341
     4385    35342
     4386    35343    2       DCL REPORT$                PTR;
     4387    35344    2       DCL ST$$                   PTR;
     4388    35345
     4389    35346
     4390    35347    2          IF COMCOM.OB.FIPS.RPW THEN

  35347 35 026105   000036 236000 xsym               LDQ     COMCOM+30
        35 026106   040000 316003                    CANQ    16384,DU
        35 026107   026125 600000 35                 TZE     s:35352

     4391    35348    2            CALL Z8AE$ERROR (%E$LEVEL_CHECK,

  35348 35 026110   000151 236000 xsym               LDQ     O1COM+105
        35 026111   000025 736000                    QLS     21
        35 026112   000002 036000 36                 ADLQ    2
        35 026113   001014 756000 0                  STQ     PROC$+4
        35 026114   000151 236000 xsym               LDQ     O1COM+105
        35 026115   000025 736000                    QLS     21
        35 026116   000003 036000 36                 ADLQ    3
        35 026117   000004 235000 36                 LDA     4
        35 026120   001012 757000 0                  STAQ    PROC$+2
        35 026121   001012 630400 0                  EPPR0   PROC$+2
        35 026122   000000 631400 36                 EPPR1   0
        35 026123   000000 701000 xent               TSX1    Z8AE$ERROR
        35 026124   000000 011000                    NOP     0
PL6.E3A0      #001=Z8EM$SEMANTICS_DATA_DIV File=Z8EM.:Z8A6TSI                    SAT 08/09/97 12:08 Page:873

     4392    35349    2                             O1COM.LX_STK.LINE(O1COM.LX_TOP - 1),
     4393    35350    2                             O1COM.LX_STK.COLUMN(O1COM.LX_TOP - 1));
     4394    35351
     4395    35352    2       CALL Z8DO$QUALIFY_TERMINAL (REPORT$, ST$$)

  35352 35 026125   000511 236000 36                 LDQ     329
        35 026126   000612 235000 0                  LDA     @REPORT$
        35 026127   001012 757000 0                  STAQ    PROC$+2
        35 026130   001012 630400 0                  EPPR0   PROC$+2
        35 026131   000025 631400 36                 EPPR1   21
        35 026132   000000 701000 xent               TSX1    Z8DO$QUALIFY_TERMINAL
        35 026133   026135 702000 35                 TSX2    s:35355
        35 026134   026157 710000 35                 TRA     s:35365

     4396    35353    2         WHENALTRETURN
     4397    35354    3           DO;

     4398    35355    3             IF ST$$ -> RD.B.COMPILER_CREATED THEN

  35355 35 026135   000613 470400 0                  LDP0    ST$$
        35 026136   000003 236100                    LDQ     3,,PR0
        35 026137   100000 316003                    CANQ    32768,DU
        35 026140   026152 600000 35                 TZE     s:35361

     4399    35356    4               DO;

     4400    35357    4                  ST$$ -> RD.DNT$ -> DNT.ST$ = ST$$ -> RD.NEXT;

  35357 35 026141   000006 471500                    LDP1    6,,PR0
        35 026142   000004 236100                    LDQ     4,,PR0
        35 026143   100001 756100                    STQ     1,,PR1

     4401    35358    4                  CALL RD_NAME_RECOVERY (REPORT$, ST$$);

  35358 35 026144   000511 236000 36                 LDQ     329
        35 026145   000612 235000 0                  LDA     @REPORT$
PL6.E3A0      #001=Z8EM$SEMANTICS_DATA_DIV File=Z8EM.:Z8A6TSI                    SAT 08/09/97 12:08 Page:874
        35 026146   000576 757000 0                  STAQ    @REPORT$
        35 026147   025774 701000 35                 TSX1    RD_NAME_RECOVERY
        35 026150   000000 011000                    NOP     0

     4402    35359    4               END;

  35359 35 026151   026157 710000 35                 TRA     s:35365

     4403    35360    3               ELSE
     4404    35361    3                  CALL FIND_REPORT ( REPORT$, ST$$);

  35361 35 026152   000511 236000 36                 LDQ     329
        35 026153   000612 235000 0                  LDA     @REPORT$
        35 026154   000332 757000 0                  STAQ    @REPORT$
        35 026155   011456 701000 35                 TSX1    FIND_REPORT
        35 026156   000000 011000                    NOP     0

     4405    35362    3           END;

     4406    35363
     4407    35364
     4408    35365    2       IF ST$$ -> ST.ID ~= %RD THEN

  35365 35 026157   000613 470400 0                  LDP0    ST$$
        35 026160   000000 220100                    LDX0    0,,PR0
        35 026161   001005 100003                    CMPX0   517,DU
        35 026162   026215 600000 35                 TZE     s:35405

     4409    35366    3         DO;

     4410    35367                %CONDITIONAL_ERROR (@LX_ITEM$     = REPORT$,
     4411    35368                                    @ERROR#       = %E$REPORT_NAME_NOT_DECL,
     4412    35369                                    @LINE         = REPORT$ -> LX_TERMINAL.LINE,
     4413    35370                                    @COLUMN       = REPORT$ -> LX_TERMINAL.COLUMN,
     4414    35371                                    @PLUG1        = REPORT$ -> LX_TERMINAL.DNT$);

  35381 35 026163   000612 471400 0                  LDP1    @REPORT$
PL6.E3A0      #001=Z8EM$SEMANTICS_DATA_DIV File=Z8EM.:Z8A6TSI                    SAT 08/09/97 12:08 Page:875
        35 026164   100000 473500                    LDP3    0,,PR1
        35 026165   300000 236100                    LDQ     0,,PR3
        35 026166   400000 316007                    CANQ    -131072,DL
        35 026167   026210 601000 35                 TNZ     s:35402

  35383 35 026170   300002 634500                    EPPR4   2,,PR3
        35 026171   001015 454400 0                  STP4    PROC$+5
        35 026172   300006 635500                    EPPR5   6,,PR3
        35 026173   001014 455400 0                  STP5    PROC$+4
        35 026174   300005 636500                    EPPR6   5,,PR3
        35 026175   001013 456400 0                  STP6    PROC$+3
        35 026176   000513 236000 36                 LDQ     331
        35 026177   001012 756000 0                  STQ     PROC$+2
        35 026200   001012 630400 0                  EPPR0   PROC$+2
        35 026201   000005 631400 36                 EPPR1   5
        35 026202   000000 701000 xent               TSX1    Z8AE$ERROR
        35 026203   000000 011000                    NOP     0

  35392 35 026204   000612 470400 0                  LDP0    @REPORT$
        35 026205   000000 471500                    LDP1    0,,PR0
        35 026206   400000 236007                    LDQ     -131072,DL
        35 026207   100000 256100                    ORSQ    0,,PR1

     4415    35401
     4416    35402    3           CALL RD_NAME_RECOVERY (REPORT$, ST$$);

  35402 35 026210   000511 236000 36                 LDQ     329
        35 026211   000612 235000 0                  LDA     @REPORT$
        35 026212   000576 757000 0                  STAQ    @REPORT$
        35 026213   025774 701000 35                 TSX1    RD_NAME_RECOVERY
        35 026214   000000 011000                    NOP     0

     4417    35403    3         END;

     4418    35404
     4419    35405    2       IF ST$$ -> RD.QLT$ -> QLT.SON ~= ADDR(NIL) THEN

PL6.E3A0      #001=Z8EM$SEMANTICS_DATA_DIV File=Z8EM.:Z8A6TSI                    SAT 08/09/97 12:08 Page:876
  35405 35 026215   000613 470400 0                  LDP0    ST$$
        35 026216   000007 471500                    LDP1    7,,PR0
        35 026217   100003 236100                    LDQ     3,,PR1
        35 026220   000024 116000 36                 CMPQ    20
        35 026221   026252 600000 35                 TZE     s:35446

     4420    35406    3         DO;

     4421    35407                %CONDITIONAL_ERROR (@LX_ITEM$     = REPORT$,
     4422    35408                                    @ERROR#       = %E$RD_ALREADY_EXISTS,
     4423    35409                                    @LINE         = REPORT$ -> LX_TERMINAL.LINE,
     4424    35410                                    @COLUMN       = REPORT$ -> LX_TERMINAL.COLUMN);

  35420 35 026222   000612 473400 0                  LDP3    @REPORT$
        35 026223   300000 474500                    LDP4    0,,PR3
        35 026224   400000 236100                    LDQ     0,,PR4
        35 026225   400000 316007                    CANQ    -131072,DL
        35 026226   026245 601000 35                 TNZ     s:35441

  35422 35 026227   400006 635500                    EPPR5   6,,PR4
        35 026230   001014 455400 0                  STP5    PROC$+4
        35 026231   400005 631500                    EPPR1   5,,PR4
        35 026232   001013 451400 0                  STP1    PROC$+3
        35 026233   000515 236000 36                 LDQ     333
        35 026234   001012 756000 0                  STQ     PROC$+2
        35 026235   001012 630400 0                  EPPR0   PROC$+2
        35 026236   000000 631400 36                 EPPR1   0
        35 026237   000000 701000 xent               TSX1    Z8AE$ERROR
        35 026240   000000 011000                    NOP     0

  35431 35 026241   000612 470400 0                  LDP0    @REPORT$
        35 026242   000000 471500                    LDP1    0,,PR0
        35 026243   400000 236007                    LDQ     -131072,DL
        35 026244   100000 256100                    ORSQ    0,,PR1

     4425    35440
     4426    35441    3           CALL RD_NAME_RECOVERY (REPORT$, ST$$);
PL6.E3A0      #001=Z8EM$SEMANTICS_DATA_DIV File=Z8EM.:Z8A6TSI                    SAT 08/09/97 12:08 Page:877

  35441 35 026245   000511 236000 36                 LDQ     329
        35 026246   000612 235000 0                  LDA     @REPORT$
        35 026247   000576 757000 0                  STAQ    @REPORT$
        35 026250   025774 701000 35                 TSX1    RD_NAME_RECOVERY
        35 026251   000000 011000                    NOP     0

     4427    35442    3         END;

     4428    35443
     4429    35444              %UPDATE_PREV_QLT$ (@NEW_QLT$ = ST$$ -> RD.QLT$);

  35446 35 026252   000424 236000 xsym               LDQ     COMCOM+276
        35 026253   000024 116000 36                 CMPQ    20
        35 026254   026261 600000 35                 TZE     s:35448

  35447 35 026255   000613 470400 0                  LDP0    ST$$
        35 026256   000007 236100                    LDQ     7,,PR0
        35 026257   000424 471400 xsym               LDP1    COMCOM+276
        35 026260   100002 756100                    STQ     2,,PR1

  35448 35 026261   000613 470400 0                  LDP0    ST$$
        35 026262   000007 236100                    LDQ     7,,PR0
        35 026263   000424 756000 xsym               STQ     COMCOM+276

     4430    35451
     4431    35452    2         O1COM.CURRENT_REPORT_LTS$ = ST$$ -> RD.LTS$;

  35452 35 026264   000005 236100                    LDQ     5,,PR0
        35 026265   000064 756000 xsym               STQ     O1COM+52

     4432    35453
     4433    35454    2         CALL NEW_PAGE_COUNTER (ST$$, REPORT$);

  35454 35 026266   000612 236000 0                  LDQ     @REPORT$
        35 026267   000430 756000 0                  STQ     @REPORT$
        35 026270   000511 236000 36                 LDQ     329
PL6.E3A0      #001=Z8EM$SEMANTICS_DATA_DIV File=Z8EM.:Z8A6TSI                    SAT 08/09/97 12:08 Page:878
        35 026271   000427 756000 0                  STQ     @ST$$
        35 026272   015625 701000 35                 TSX1    NEW_PAGE_COUNTER
        35 026273   000000 011000                    NOP     0

     4434    35455
     4435    35456    2         CALL NEW_LINE_COUNTER (ST$$, REPORT$);

  35456 35 026274   000612 236000 0                  LDQ     @REPORT$
        35 026275   000420 756000 0                  STQ     @REPORT$
        35 026276   000511 236000 36                 LDQ     329
        35 026277   000417 756000 0                  STQ     @ST$$
        35 026300   015101 701000 35                 TSX1    NEW_LINE_COUNTER
        35 026301   000000 011000                    NOP     0

     4436    35457
     4437    35458    2         CALL NEW_AFTER_AREA (ST$$, REPORT$);

  35458 35 026302   000612 236000 0                  LDQ     @REPORT$
        35 026303   000511 235000 36                 LDA     329
        35 026304   000400 757000 0                  STAQ    @ST$$
        35 026305   013264 701000 35                 TSX1    NEW_AFTER_AREA
        35 026306   000000 011000                    NOP     0

     4438    35459
     4439    35460    2         O1COM.LEVEL_NO = 0;

  35460 35 026307   000005 450000 xsym               STZ     O1COM+5

     4440    35461    2         REP_STK_PTR = 0;

  35461 35 026310   000000 450000 xsym               STZ     REP_STK_PTR

     4441    35462
     4442    35463    2      END RD_START;

  35463 35 026311   000611 221200 0                  LDX1  ! TEMP_TERMINAL+8
        35 026312   000001 702211                    TSX2  ! 1,X1
PL6.E3A0      #001=Z8EM$SEMANTICS_DATA_DIV File=Z8EM.:Z8A6TSI                    SAT 08/09/97 12:08 Page:879

     4443    35464           %EJECT;
PL6.E3A0      #001=Z8EM$SEMANTICS_DATA_DIV File=Z8EM.:Z8A6TSI                    SAT 08/09/97 12:08 Page:880
     4444    35465
     4445    35466        /*===============*/
     4446    35467    1     RECORD_CONTAINS: PROC (KEYWORD$, INT$, DEPEND$);

  35467 35 026313   000614 741200 0     RECORD_CONT* STX1  ! ST$$+1

     4447    35468        /*===============*/
     4448    35469
     4449    35470    2        DCL KEYWORD$             PTR;
     4450    35471    2        DCL INT$                 PTR;
     4451    35472    2        DCL DEPEND$              PTR;
     4452    35473
     4453    35474    2        DCL INT1                 SBIN;
     4454    35475    2        DCL INT2                 SBIN;
     4455    35476    2        DCL TEMP                 SBIN;
     4456    35477    2        DCL P$                   PTR;
     4457    35478
     4458    35479
     4459    35480    2        IF O1COM.CURRENT_FILE_LTS$ -> FILE_LTS.B.RECORD_CONTAINS THEN

  35480 35 026314   000045 470400 xsym               LDP0    O1COM+37
        35 026315   000017 236100                    LDQ     15,,PR0
        35 026316   400000 316007                    CANQ    -131072,DL
        35 026317   026372 600000 35                 TZE     s:35525

     4460    35481    3          DO;

     4461    35482                 %CONDITIONAL_ERROR (@LX_ITEM$ = KEYWORD$,
     4462    35483                                     @ERROR#   = %E$DUP_DD_CLAUSE,
     4463    35484                                     @LINE     = KEYWORD$ -> LX_ITEM.LINE,
     4464    35485                                     @COLUMN   = KEYWORD$ -> LX_ITEM.COLUMN,
     4465    35486                                     @PLUG1    = KEYWORD$ -> LX_ITEM.DNT$);

  35496 35 026320   000615 471400 0                  LDP1    @KEYWORD$
        35 026321   100000 473500                    LDP3    0,,PR1
        35 026322   300000 236100                    LDQ     0,,PR3
        35 026323   400000 316007                    CANQ    -131072,DL
PL6.E3A0      #001=Z8EM$SEMANTICS_DATA_DIV File=Z8EM.:Z8A6TSI                    SAT 08/09/97 12:08 Page:881
        35 026324   026345 601000 35                 TNZ     s:35517

  35498 35 026325   300002 634500                    EPPR4   2,,PR3
        35 026326   001015 454400 0                  STP4    PROC$+5
        35 026327   300006 635500                    EPPR5   6,,PR3
        35 026330   001014 455400 0                  STP5    PROC$+4
        35 026331   300005 636500                    EPPR6   5,,PR3
        35 026332   001013 456400 0                  STP6    PROC$+3
        35 026333   000010 236000 36                 LDQ     8
        35 026334   001012 756000 0                  STQ     PROC$+2
        35 026335   001012 630400 0                  EPPR0   PROC$+2
        35 026336   000005 631400 36                 EPPR1   5
        35 026337   000000 701000 xent               TSX1    Z8AE$ERROR
        35 026340   000000 011000                    NOP     0

  35507 35 026341   000615 470400 0                  LDP0    @KEYWORD$
        35 026342   000000 471500                    LDP1    0,,PR0
        35 026343   400000 236007                    LDQ     -131072,DL
        35 026344   100000 256100                    ORSQ    0,,PR1

     4466    35516
     4467    35517    3            CALL Z8ED$DISPOSE_ABSSYN_TREE (INT$ -> LX_LIST.HEAD$);

  35517 35 026345   000616 470400 0                  LDP0    @INT$
        35 026346   000000 471500                    LDP1    0,,PR0
        35 026347   100004 633500                    EPPR3   4,,PR1
        35 026350   001012 453400 0                  STP3    PROC$+2
        35 026351   001012 630400 0                  EPPR0   PROC$+2
        35 026352   000036 631400 36                 EPPR1   30
        35 026353   000000 701000 xent               TSX1    Z8ED$DISPOSE_ABSSYN_TREE
        35 026354   000000 011000                    NOP     0

     4468    35518
     4469    35519    3            IF DEPEND$ -> LX_LIST.ID = %LX_LIST THEN

  35519 35 026355   000617 470400 0                  LDP0    @DEPEND$
        35 026356   000000 471500                    LDP1    0,,PR0
PL6.E3A0      #001=Z8EM$SEMANTICS_DATA_DIV File=Z8EM.:Z8A6TSI                    SAT 08/09/97 12:08 Page:882
        35 026357   100000 220100                    LDX0    0,,PR1
        35 026360   000002 100003                    CMPX0   2,DU
        35 026361   026370 601000 35                 TNZ     s:35522

     4470    35520    3              CALL Z8ED$DISPOSE_ABSSYN_TREE (DEPEND$ -> LX_LIST.HEAD$);

  35520 35 026362   100004 633500                    EPPR3   4,,PR1
        35 026363   001012 453400 0                  STP3    PROC$+2
        35 026364   001012 630400 0                  EPPR0   PROC$+2
        35 026365   000036 631400 36                 EPPR1   30
        35 026366   000000 701000 xent               TSX1    Z8ED$DISPOSE_ABSSYN_TREE
        35 026367   000000 011000                    NOP     0

     4471    35521
     4472    35522    3            RETURN;

  35522 35 026370   000614 221200 0                  LDX1  ! ST$$+1
        35 026371   000001 702211                    TSX2  ! 1,X1

     4473    35523    3          END;
     4474    35524
     4475    35525    2        INT1 = 0;

  35525 35 026372   000620 450000 0                  STZ     INT1

     4476    35526    2        INT2 = 0;

  35526 35 026373   000621 450000 0                  STZ     INT2

     4477    35527
     4478    35528    2        O1COM.CURRENT_FILE_LTS$ -> FILE_LTS.B.RECORD_CONTAINS = TRUE;

  35528 35 026374   400000 236007                    LDQ     -131072,DL
        35 026375   000017 256100                    ORSQ    15,,PR0

     4479    35529
     4480    35530    2        P$ = INT$ -> LX_LIST.HEAD$;
PL6.E3A0      #001=Z8EM$SEMANTICS_DATA_DIV File=Z8EM.:Z8A6TSI                    SAT 08/09/97 12:08 Page:883

  35530 35 026376   000616 470400 0                  LDP0    @INT$
        35 026377   000000 471500                    LDP1    0,,PR0
        35 026400   100004 236100                    LDQ     4,,PR1
        35 026401   000623 756000 0                  STQ     P$

     4481    35531
     4482    35532    2        CALL CHARBIN (INT1,

  35532 35 026402   000623 473400 0                  LDP3    P$
        35 026403   300002 474500                    LDP4    2,,PR3
        35 026404   400004 220100                    LDX0    4,,PR4
        35 026405   000000 305540                    DTB
        35 026406   400004 430010                    NDSC9   4,,PR4                   cn=2,s=nosgn,sf=0,n=*X0
        35 026407   000620 000004 0                  NDSC9   INT1                     cn=0,s=lsgnf,sf=0,n=4

     4483    35533    2                      P$ -> LX_TERMINAL.DNT$ -> DNT.TEXT.NAME);
     4484    35534
     4485    35535    2        IF INT$ -> LX_LIST.COUNT ~= 1 THEN

  35535 35 026410   100002 235100                    LDA     2,,PR1
        35 026411   000001 115007                    CMPA    1,DL
        35 026412   026453 600000 35                 TZE     s:35583

     4486    35536    3          DO;

     4487    35537    3            CALL CHARBIN (INT2,

  35537 35 026413   300007 475500                    LDP5    7,,PR3
        35 026414   500002 476500                    LDP6    2,,PR5
        35 026415   600004 221100                    LDX1    4,,PR6
        35 026416   000000 305540                    DTB
        35 026417   600004 430011                    NDSC9   4,,PR6                   cn=2,s=nosgn,sf=0,n=*X1
        35 026420   000621 000004 0                  NDSC9   INT2                     cn=0,s=lsgnf,sf=0,n=4

     4488    35538    3                          P$ -> LX_ITEM.LINK -> LX_ITEM.DNT$ -> DNT.TEXT.NAME);
     4489    35539
PL6.E3A0      #001=Z8EM$SEMANTICS_DATA_DIV File=Z8EM.:Z8A6TSI                    SAT 08/09/97 12:08 Page:884
     4490    35540    3            IF INT1 > INT2 THEN

  35540 35 026421   000620 236000 0                  LDQ     INT1
        35 026422   000621 116000 0                  CMPQ    INT2
        35 026423   026456 604400 35                 TMOZ    s:35587

     4491    35541    4              DO;

     4492    35542                     %CONDITIONAL_ERROR (@LX_ITEM$ = P$,
     4493    35543                                         @ERROR#   = %E$INT2_LSS_INT1,
     4494    35544                                         @LINE     = P$ -> LX_ITEM.LINE,
     4495    35545                                         @COLUMN   = P$ -> LX_ITEM.COLUMN);

  35555 35 026424   300000 236100                    LDQ     0,,PR3
        35 026425   400000 316007                    CANQ    -131072,DL
        35 026426   026445 601000 35                 TNZ     s:35576

  35557 35 026427   000623 236000 0                  LDQ     P$
        35 026430   000006 036003                    ADLQ    6,DU
        35 026431   001014 756000 0                  STQ     PROC$+4
        35 026432   000623 236000 0                  LDQ     P$
        35 026433   000005 036003                    ADLQ    5,DU
        35 026434   000075 235000 36                 LDA     61
        35 026435   001012 757000 0                  STAQ    PROC$+2
        35 026436   001012 630400 0                  EPPR0   PROC$+2
        35 026437   000000 631400 36                 EPPR1   0
        35 026440   000000 701000 xent               TSX1    Z8AE$ERROR
        35 026441   000000 011000                    NOP     0

  35566 35 026442   000623 470400 0                  LDP0    P$
        35 026443   400000 236007                    LDQ     -131072,DL
        35 026444   000000 256100                    ORSQ    0,,PR0

     4496    35575
     4497    35576    4                TEMP = INT1;

  35576 35 026445   000620 235000 0                  LDA     INT1
PL6.E3A0      #001=Z8EM$SEMANTICS_DATA_DIV File=Z8EM.:Z8A6TSI                    SAT 08/09/97 12:08 Page:885
        35 026446   000622 755000 0                  STA     TEMP

     4498    35577    4                INT1 = INT2;

  35577 35 026447   000621 236000 0                  LDQ     INT2
        35 026450   000620 756000 0                  STQ     INT1

     4499    35578    4                INT2 = TEMP;

  35578 35 026451   000621 755000 0                  STA     INT2

     4500    35579    4              END;

     4501    35580    3          END;

  35580 35 026452   026456 710000 35                 TRA     s:35587

     4502    35581    2        ELSE
     4503    35582    3          DO;

     4504    35583    3            INT2 = INT1;

  35583 35 026453   000620 235000 0                  LDA     INT1
        35 026454   000621 755000 0                  STA     INT2

     4505    35584    3            INT1 = 0;

  35584 35 026455   000620 450000 0                  STZ     INT1

     4506    35585    3          END;

     4507    35586
     4508    35587    2        O1COM.CURRENT_FILE_LTS$ -> FILE_LTS.RECORD_CONTAINS.INT_1 = INT1;

  35587 35 026456   000045 470400 xsym               LDP0    O1COM+37
        35 026457   000620 235000 0                  LDA     INT1
        35 026460   000023 755100                    STA     19,,PR0
PL6.E3A0      #001=Z8EM$SEMANTICS_DATA_DIV File=Z8EM.:Z8A6TSI                    SAT 08/09/97 12:08 Page:886

     4509    35588    2        O1COM.CURRENT_FILE_LTS$ -> FILE_LTS.RECORD_CONTAINS.INT_2 = INT2;

  35588 35 026461   000045 470400 xsym               LDP0    O1COM+37
        35 026462   000621 236000 0                  LDQ     INT2
        35 026463   000024 756100                    STQ     20,,PR0

     4510    35589
     4511    35590    2        IF DEPEND$ -> LX_ITEM.ID = %LX_LIST THEN

  35590 35 026464   000617 470400 0                  LDP0    @DEPEND$
        35 026465   000000 471500                    LDP1    0,,PR0
        35 026466   100000 220100                    LDX0    0,,PR1
        35 026467   000002 100003                    CMPX0   2,DU
        35 026470   026520 601000 35                 TNZ     s:35609

     4512    35591    3          DO;

     4513    35592    3            O1COM.CURRENT_FILE_LTS$ -> FILE_LTS.B.RECORD_FORMAT_2 = TRUE;

  35592 35 026471   000045 473400 xsym               LDP3    O1COM+37
        35 026472   010000 236007                    LDQ     4096,DL
        35 026473   300017 256100                    ORSQ    15,,PR3

     4514    35593
     4515    35594                 %NEW_COPY_LX_ITEM (@FROM$ = DEPEND$,
     4516    35595                  @TO$ = O1COM.CURRENT_FILE_LTS$ -> FILE_LTS.RECORD_CONTAINS.DEPENDING$);

  35600 35 026474   000054 236000 36                 LDQ     44
        35 026475   001013 756000 0                  STQ     PROC$+3
        35 026476   000045 236000 xsym               LDQ     O1COM+37
        35 026477   000025 036003                    ADLQ    21,DU
        35 026500   001012 756000 0                  STQ     PROC$+2
        35 026501   001012 630400 0                  EPPR0   PROC$+2
        35 026502   000025 631400 36                 EPPR1   21
        35 026503   000000 701000 xent               TSX1    Z8ED$NEW_HEAP
        35 026504   000000 011000                    NOP     0
PL6.E3A0      #001=Z8EM$SEMANTICS_DATA_DIV File=Z8EM.:Z8A6TSI                    SAT 08/09/97 12:08 Page:887

  35603 35 026505   000045 470400 xsym               LDP0    O1COM+37
        35 026506   000025 471500                    LDP1    21,,PR0
        35 026507   000617 473400 0                  LDP3    @DEPEND$
        35 026510   300000 474500                    LDP4    0,,PR3
        35 026511   000100 100500                    MLR     fill='000'O
        35 026512   400000 000040                    ADSC9   0,,PR4                   cn=0,n=32
        35 026513   100000 000040                    ADSC9   0,,PR1                   cn=0,n=32

  35604 35 026514   000045 470400 xsym               LDP0    O1COM+37
        35 026515   000025 471500                    LDP1    21,,PR0
        35 026516   000024 236000 36                 LDQ     20
        35 026517   100007 756100                    STQ     7,,PR1

     4517    35607    3          END;

     4518    35608
     4519    35609    2        CALL Z8ED$DISPOSE_ABSSYN_TREE (INT$ -> LX_LIST.HEAD$);

  35609 35 026520   000616 470400 0                  LDP0    @INT$
        35 026521   000000 471500                    LDP1    0,,PR0
        35 026522   100004 633500                    EPPR3   4,,PR1
        35 026523   001012 453400 0                  STP3    PROC$+2
        35 026524   001012 630400 0                  EPPR0   PROC$+2
        35 026525   000036 631400 36                 EPPR1   30
        35 026526   000000 701000 xent               TSX1    Z8ED$DISPOSE_ABSSYN_TREE
        35 026527   000000 011000                    NOP     0

     4520    35610
     4521    35611    2   END RECORD_CONTAINS;

  35611 35 026530   000614 221200 0                  LDX1  ! ST$$+1
        35 026531   000001 702211                    TSX2  ! 1,X1

     4522    35612        %EJECT;
PL6.E3A0      #001=Z8EM$SEMANTICS_DATA_DIV File=Z8EM.:Z8A6TSI                    SAT 08/09/97 12:08 Page:888
     4523    35613        /*============*/
     4524    35614    1     RECORD_DELIM: PROC (DELIM$);

  35614 35 026532   000624 741200 0     RECORD_DELIM STX1  ! P$+1

     4525    35615        /*============*/
     4526    35616
     4527    35617    2        DCL DELIM$        PTR;
     4528    35618
     4529    35619
     4530    35620    2            CALL CHECK_REL_ORG (DELIM$)

  35620 35 026533   000625 236000 0                  LDQ     @DELIM$
        35 026534   000167 756000 0                  STQ     @TERMINAL$
        35 026535   004026 701000 35                 TSX1    CHECK_REL_ORG
        35 026536   026540 702000 35                 TSX2    s:35623
        35 026537   026542 710000 35                 TRA     s:35626

     4531    35621    2              WHENALTRETURN
     4532    35622    3                DO;

     4533    35623    3                  RETURN;

  35623 35 026540   000624 221200 0                  LDX1  ! P$+1
        35 026541   000001 702211                    TSX2  ! 1,X1

     4534    35624    3                END;
     4535    35625
     4536    35626    2            CALL CHECK_IND_ORG (DELIM$)

  35626 35 026542   000625 236000 0                  LDQ     @DELIM$
        35 026543   000161 756000 0                  STQ     @TERMINAL$
        35 026544   003607 701000 35                 TSX1    CHECK_IND_ORG
        35 026545   026547 702000 35                 TSX2    s:35629
        35 026546   026551 710000 35                 TRA     s:35632

     4537    35627    2              WHENALTRETURN
PL6.E3A0      #001=Z8EM$SEMANTICS_DATA_DIV File=Z8EM.:Z8A6TSI                    SAT 08/09/97 12:08 Page:889
     4538    35628    3                DO;

     4539    35629    3                  RETURN;

  35629 35 026547   000624 221200 0                  LDX1  ! P$+1
        35 026550   000001 702211                    TSX2  ! 1,X1

     4540    35630    3                END;
     4541    35631
     4542    35632    2            CALL CHECK_KEY_ORG (DELIM$)

  35632 35 026551   000625 236000 0                  LDQ     @DELIM$
        35 026552   000163 756000 0                  STQ     @TERMINAL$
        35 026553   003671 701000 35                 TSX1    CHECK_KEY_ORG
        35 026554   026556 702000 35                 TSX2    s:35635
        35 026555   026560 710000 35                 TRA     s:35638

     4543    35633    2              WHENALTRETURN
     4544    35634    3                DO;

     4545    35635    3                  RETURN;

  35635 35 026556   000624 221200 0                  LDX1  ! P$+1
        35 026557   000001 702211                    TSX2  ! 1,X1

     4546    35636    3                END;
     4547    35637
     4548    35638    2        IF O1COM.CURRENT_FILE_LTS$ -> FILE_LTS.RECORD_DELIM = %NOT_SPECIFIED THEN

  35638 35 026560   000045 470400 xsym               LDP0    O1COM+37
        35 026561   000010 235100                    LDA     8,,PR0
        35 026562   026566 601000 35                 TNZ     s:35655

     4549    35639    2          O1COM.CURRENT_FILE_LTS$ -> FILE_LTS.RECORD_DELIM = %STANDARD_DELIMITER;

  35639 35 026563   000001 236007                    LDQ     1,DL
        35 026564   000010 756100                    STQ     8,,PR0
PL6.E3A0      #001=Z8EM$SEMANTICS_DATA_DIV File=Z8EM.:Z8A6TSI                    SAT 08/09/97 12:08 Page:890
        35 026565   026613 710000 35                 TRA     s:35676

     4550    35640    2        ELSE
     4551    35641               %CONDITIONAL_ERROR (@LX_ITEM$ = DELIM$,
     4552    35642                                   @ERROR#   = %E$DUP_DD_CLAUSE,
     4553    35643                                   @LINE     = DELIM$ -> LX_TERMINAL.LINE,
     4554    35644                                   @COLUMN   = DELIM$ -> LX_TERMINAL.COLUMN,
     4555    35645                                   @PLUG1    = "DNT$_FROM_RSWNO(%RSV_WRD_DELIMITER)");

  35655 35 026566   000625 471400 0                  LDP1    @DELIM$
        35 026567   100000 473500                    LDP3    0,,PR1
        35 026570   300000 236100                    LDQ     0,,PR3
        35 026571   400000 316007                    CANQ    -131072,DL
        35 026572   026613 601000 35                 TNZ     s:35676

  35657 35 026573   000137 236000 36                 LDQ     95
        35 026574   001015 756000 0                  STQ     PROC$+5
        35 026575   300006 634500                    EPPR4   6,,PR3
        35 026576   001014 454400 0                  STP4    PROC$+4
        35 026577   300005 635500                    EPPR5   5,,PR3
        35 026600   001013 455400 0                  STP5    PROC$+3
        35 026601   000010 236000 36                 LDQ     8
        35 026602   001012 756000 0                  STQ     PROC$+2
        35 026603   001012 630400 0                  EPPR0   PROC$+2
        35 026604   000005 631400 36                 EPPR1   5
        35 026605   000000 701000 xent               TSX1    Z8AE$ERROR
        35 026606   000000 011000                    NOP     0

  35666 35 026607   000625 470400 0                  LDP0    @DELIM$
        35 026610   000000 471500                    LDP1    0,,PR0
        35 026611   400000 236007                    LDQ     -131072,DL
        35 026612   100000 256100                    ORSQ    0,,PR1

     4556    35675
     4557    35676    2        IF O1COM.CURRENT_FILE_LTS$ -> FILE_LTS.ASSIGN$ ~= ADDR(NIL) THEN

  35676 35 026613   000045 470400 xsym               LDP0    O1COM+37
PL6.E3A0      #001=Z8EM$SEMANTICS_DATA_DIV File=Z8EM.:Z8A6TSI                    SAT 08/09/97 12:08 Page:891
        35 026614   000004 236100                    LDQ     4,,PR0
        35 026615   000024 116000 36                 CMPQ    20
        35 026616   026626 600000 35                 TZE     s:35679

     4558    35677    2          CALL Z9EM$TAPE_CHECK (DELIM$, O1COM.CURRENT_FILE_LTS$);

  35677 35 026617   000243 236000 36                 LDQ     163
        35 026620   000625 235000 0                  LDA     @DELIM$
        35 026621   001012 757000 0                  STAQ    PROC$+2
        35 026622   001012 630400 0                  EPPR0   PROC$+2
        35 026623   000025 631400 36                 EPPR1   21
        35 026624   000000 701000 xent               TSX1    Z9EM$TAPE_CHECK
        35 026625   000000 011000                    NOP     0

     4559    35678
     4560    35679    2   END RECORD_DELIM;

  35679 35 026626   000624 221200 0                  LDX1  ! P$+1
        35 026627   000001 702211                    TSX2  ! 1,X1

     4561    35680        %EJECT;
PL6.E3A0      #001=Z8EM$SEMANTICS_DATA_DIV File=Z8EM.:Z8A6TSI                    SAT 08/09/97 12:08 Page:892
     4562    35681        /*==============*/
     4563    35682    1     RECORD_VARYING: PROC (KEYWORD$, INT$, DEPEND$);

  35682 35 026630   000626 741200 0     RECORD_VARY* STX1  ! @DELIM$+1

     4564    35683        /*==============*/
     4565    35684
     4566    35685    2        DCL KEYWORD$             PTR;
     4567    35686    2        DCL INT$                 PTR;
     4568    35687    2        DCL DEPEND$              PTR;
     4569    35688
     4570    35689    2        DCL INT1                 SBIN;
     4571    35690    2        DCL P$                   PTR;
     4572    35691    2        DCL INT2                 SBIN;
     4573    35692    2        DCL TEMP                 SBIN;
     4574    35693
     4575    35694
     4576    35695    2        IF O1COM.CURRENT_FILE_LTS$ -> FILE_LTS.B.RECORD_CONTAINS THEN

  35695 35 026631   000045 470400 xsym               LDP0    O1COM+37
        35 026632   000017 236100                    LDQ     15,,PR0
        35 026633   400000 316007                    CANQ    -131072,DL
        35 026634   026715 600000 35                 TZE     s:35743

     4577    35696    3          DO;

     4578    35697                 %CONDITIONAL_ERROR (@LX_ITEM$ = KEYWORD$,
     4579    35698                                     @ERROR#   = %E$DUP_DD_CLAUSE,
     4580    35699                                     @LINE     = KEYWORD$ -> LX_TERMINAL.LINE,
     4581    35700                                     @COLUMN   = KEYWORD$ -> LX_TERMINAL.COLUMN,
     4582    35701                                     @PLUG1    = KEYWORD$ -> LX_TERMINAL.DNT$);

  35711 35 026635   000627 471400 0                  LDP1    @KEYWORD$
        35 026636   100000 473500                    LDP3    0,,PR1
        35 026637   300000 236100                    LDQ     0,,PR3
        35 026640   400000 316007                    CANQ    -131072,DL
        35 026641   026662 601000 35                 TNZ     s:35732
PL6.E3A0      #001=Z8EM$SEMANTICS_DATA_DIV File=Z8EM.:Z8A6TSI                    SAT 08/09/97 12:08 Page:893

  35713 35 026642   300002 634500                    EPPR4   2,,PR3
        35 026643   001015 454400 0                  STP4    PROC$+5
        35 026644   300006 635500                    EPPR5   6,,PR3
        35 026645   001014 455400 0                  STP5    PROC$+4
        35 026646   300005 636500                    EPPR6   5,,PR3
        35 026647   001013 456400 0                  STP6    PROC$+3
        35 026650   000010 236000 36                 LDQ     8
        35 026651   001012 756000 0                  STQ     PROC$+2
        35 026652   001012 630400 0                  EPPR0   PROC$+2
        35 026653   000005 631400 36                 EPPR1   5
        35 026654   000000 701000 xent               TSX1    Z8AE$ERROR
        35 026655   000000 011000                    NOP     0

  35722 35 026656   000627 470400 0                  LDP0    @KEYWORD$
        35 026657   000000 471500                    LDP1    0,,PR0
        35 026660   400000 236007                    LDQ     -131072,DL
        35 026661   100000 256100                    ORSQ    0,,PR1

     4583    35731
     4584    35732    3            IF INT$ -> LX_LIST.TAIL$ = ADDR(NIL) THEN

  35732 35 026662   000630 470400 0                  LDP0    @INT$
        35 026663   000000 471500                    LDP1    0,,PR0
        35 026664   100001 236100                    LDQ     1,,PR1
        35 026665   000024 116000 36                 CMPQ    20
        35 026666   026671 601000 35                 TNZ     s:35735

     4585    35733    3              INT$ -> LX_LIST.HEAD$ = ADDR(NIL);

  35733 35 026667   000024 236000 36                 LDQ     20
        35 026670   100004 756100                    STQ     4,,PR1

     4586    35734
     4587    35735    3            CALL Z8ED$DISPOSE_ABSSYN_TREE (INT$ -> LX_LIST.HEAD$);

  35735 35 026671   000000 471500                    LDP1    0,,PR0
PL6.E3A0      #001=Z8EM$SEMANTICS_DATA_DIV File=Z8EM.:Z8A6TSI                    SAT 08/09/97 12:08 Page:894
        35 026672   100004 633500                    EPPR3   4,,PR1
        35 026673   001012 453400 0                  STP3    PROC$+2
        35 026674   001012 630400 0                  EPPR0   PROC$+2
        35 026675   000036 631400 36                 EPPR1   30
        35 026676   000000 701000 xent               TSX1    Z8ED$DISPOSE_ABSSYN_TREE
        35 026677   000000 011000                    NOP     0

     4588    35736
     4589    35737    3            IF DEPEND$ -> LX_LIST.ID = %LX_LIST THEN

  35737 35 026700   000631 470400 0                  LDP0    @DEPEND$
        35 026701   000000 471500                    LDP1    0,,PR0
        35 026702   100000 220100                    LDX0    0,,PR1
        35 026703   000002 100003                    CMPX0   2,DU
        35 026704   026713 601000 35                 TNZ     s:35740

     4590    35738    3              CALL Z8ED$DISPOSE_ABSSYN_TREE (DEPEND$ -> LX_LIST.HEAD$);

  35738 35 026705   100004 633500                    EPPR3   4,,PR1
        35 026706   001012 453400 0                  STP3    PROC$+2
        35 026707   001012 630400 0                  EPPR0   PROC$+2
        35 026710   000036 631400 36                 EPPR1   30
        35 026711   000000 701000 xent               TSX1    Z8ED$DISPOSE_ABSSYN_TREE
        35 026712   000000 011000                    NOP     0

     4591    35739
     4592    35740    3            RETURN;

  35740 35 026713   000626 221200 0                  LDX1  ! @DELIM$+1
        35 026714   000001 702211                    TSX2  ! 1,X1

     4593    35741    3          END;
     4594    35742
     4595    35743    3        IF COMCOM.OB.FIPS.LEVEL >= %INT_LEV THEN DO;

  35743 35 026715   000036 720000 xsym               LXL0    COMCOM+30
        35 026716   000002 100003                    CMPX0   2,DU
PL6.E3A0      #001=Z8EM$SEMANTICS_DATA_DIV File=Z8EM.:Z8A6TSI                    SAT 08/09/97 12:08 Page:895
        35 026717   026734 604000 35                 TMI     s:35749

     4596    35744    3          CALL Z8AE$ERROR (%E$LEVEL_CHECK,

  35744 35 026720   000627 471400 0                  LDP1    @KEYWORD$
        35 026721   100000 473500                    LDP3    0,,PR1
        35 026722   300006 634500                    EPPR4   6,,PR3
        35 026723   001014 454400 0                  STP4    PROC$+4
        35 026724   300005 635500                    EPPR5   5,,PR3
        35 026725   001013 455400 0                  STP5    PROC$+3
        35 026726   000004 236000 36                 LDQ     4
        35 026727   001012 756000 0                  STQ     PROC$+2
        35 026730   001012 630400 0                  EPPR0   PROC$+2
        35 026731   000000 631400 36                 EPPR1   0
        35 026732   000000 701000 xent               TSX1    Z8AE$ERROR
        35 026733   000000 011000                    NOP     0

     4597    35745    3                           KEYWORD$ -> LX_TERMINAL.LINE,
     4598    35746    3                           KEYWORD$ -> LX_TERMINAL.COLUMN);
     4599    35747    3        END;

     4600    35748
     4601    35749    2        INT1 = 0;

  35749 35 026734   000632 450000 0                  STZ     INT1

     4602    35750    2        INT2 = 0;

  35750 35 026735   000634 450000 0                  STZ     INT2

     4603    35751
     4604    35752    2        O1COM.CURRENT_FILE_LTS$ -> FILE_LTS.B.RECORD_CONTAINS = TRUE;

  35752 35 026736   000045 470400 xsym               LDP0    O1COM+37
        35 026737   400000 236007                    LDQ     -131072,DL
        35 026740   000017 256100                    ORSQ    15,,PR0

PL6.E3A0      #001=Z8EM$SEMANTICS_DATA_DIV File=Z8EM.:Z8A6TSI                    SAT 08/09/97 12:08 Page:896
     4605    35753
     4606    35754    3        DO CASE (INT$ -> LX_ITEM.ID);

  35754 35 026741   000630 470400 0                  LDP0    @INT$
        35 026742   000000 471500                    LDP1    0,,PR0
        35 026743   100000 220100                    LDX0    0,,PR1
        35 026744   000003 100003                    CMPX0   3,DU
        35 026745   026747 602010 35                 TNC     s:35754+6,X0
        35 026746   027045 710000 35                 TRA     s:35817
        35 026747   027035 710000 35                 TRA     s:35812
        35 026750   027045 710000 35                 TRA     s:35817
        35 026751   026752 710000 35                 TRA     s:35757

     4607    35755
     4608    35756    3          CASE (%LX_LIST);

     4609    35757    3            P$ = INT$ -> LX_LIST.HEAD$;

  35757 35 026752   100004 236100                    LDQ     4,,PR1
        35 026753   000633 756000 0                  STQ     P$

     4610    35758
     4611    35759    3            CALL CHARBIN (INT1,

  35759 35 026754   000633 473400 0                  LDP3    P$
        35 026755   300002 474500                    LDP4    2,,PR3
        35 026756   400004 221100                    LDX1    4,,PR4
        35 026757   000000 305540                    DTB
        35 026760   400004 430011                    NDSC9   4,,PR4                   cn=2,s=nosgn,sf=0,n=*X1
        35 026761   000632 000004 0                  NDSC9   INT1                     cn=0,s=lsgnf,sf=0,n=4

     4612    35760    3                          P$ -> LX_ITEM.DNT$ -> DNT.TEXT.NAME);
     4613    35761
     4614    35762    3            IF INT$ -> LX_LIST.COUNT ~= 1 THEN

  35762 35 026762   100002 235100                    LDA     2,,PR1
        35 026763   000001 115007                    CMPA    1,DL
PL6.E3A0      #001=Z8EM$SEMANTICS_DATA_DIV File=Z8EM.:Z8A6TSI                    SAT 08/09/97 12:08 Page:897
        35 026764   027024 600000 35                 TZE     s:35809

     4615    35763    4              DO;

     4616    35764    4                CALL CHARBIN (INT2,

  35764 35 026765   300007 475500                    LDP5    7,,PR3
        35 026766   500002 476500                    LDP6    2,,PR5
        35 026767   600004 222100                    LDX2    4,,PR6
        35 026770   000000 305540                    DTB
        35 026771   600004 430012                    NDSC9   4,,PR6                   cn=2,s=nosgn,sf=0,n=*X2
        35 026772   000634 000004 0                  NDSC9   INT2                     cn=0,s=lsgnf,sf=0,n=4

     4617    35765    4                              P$ -> LX_ITEM.LINK -> LX_ITEM.DNT$ -> DNT.TEXT.NAME);
     4618    35766
     4619    35767    4                IF INT1 > INT2 THEN

  35767 35 026773   000632 236000 0                  LDQ     INT1
        35 026774   000634 116000 0                  CMPQ    INT2
        35 026775   027024 604400 35                 TMOZ    s:35809

     4620    35768    5                  DO;

     4621    35769                         %CONDITIONAL_ERROR (@LX_ITEM$ = P$,
     4622    35770                                             @LINE   = P$ -> LX_ITEM.LINE,
     4623    35771                                             @COLUMN = P$ -> LX_ITEM.COLUMN,
     4624    35772                                             @ERROR# = %E$INT2_LSS_INT1);

  35782 35 026776   300000 236100                    LDQ     0,,PR3
        35 026777   400000 316007                    CANQ    -131072,DL
        35 027000   027017 601000 35                 TNZ     s:35803

  35784 35 027001   000633 236000 0                  LDQ     P$
        35 027002   000006 036003                    ADLQ    6,DU
        35 027003   001014 756000 0                  STQ     PROC$+4
        35 027004   000633 236000 0                  LDQ     P$
        35 027005   000005 036003                    ADLQ    5,DU
PL6.E3A0      #001=Z8EM$SEMANTICS_DATA_DIV File=Z8EM.:Z8A6TSI                    SAT 08/09/97 12:08 Page:898
        35 027006   000075 235000 36                 LDA     61
        35 027007   001012 757000 0                  STAQ    PROC$+2
        35 027010   001012 630400 0                  EPPR0   PROC$+2
        35 027011   000000 631400 36                 EPPR1   0
        35 027012   000000 701000 xent               TSX1    Z8AE$ERROR
        35 027013   000000 011000                    NOP     0

  35793 35 027014   000633 470400 0                  LDP0    P$
        35 027015   400000 236007                    LDQ     -131072,DL
        35 027016   000000 256100                    ORSQ    0,,PR0

     4625    35802
     4626    35803    5                    TEMP = INT1;

  35803 35 027017   000632 235000 0                  LDA     INT1
        35 027020   000635 755000 0                  STA     TEMP

     4627    35804    5                    INT1 = INT2;

  35804 35 027021   000634 236000 0                  LDQ     INT2
        35 027022   000632 756000 0                  STQ     INT1

     4628    35805    5                    INT2 = TEMP;

  35805 35 027023   000634 755000 0                  STA     INT2

     4629    35806    5                  END;

     4630    35807    4              END;

     4631    35808
     4632    35809    3            CALL Z8ED$DISPOSE_ABSSYN_TREE (INT$ -> LX_LIST.HEAD$);

  35809 35 027024   000630 470400 0                  LDP0    @INT$
        35 027025   000000 471500                    LDP1    0,,PR0
        35 027026   100004 633500                    EPPR3   4,,PR1
        35 027027   001012 453400 0                  STP3    PROC$+2
PL6.E3A0      #001=Z8EM$SEMANTICS_DATA_DIV File=Z8EM.:Z8A6TSI                    SAT 08/09/97 12:08 Page:899
        35 027030   001012 630400 0                  EPPR0   PROC$+2
        35 027031   000036 631400 36                 EPPR1   30
        35 027032   000000 701000 xent               TSX1    Z8ED$DISPOSE_ABSSYN_TREE
        35 027033   000000 011000                    NOP     0
        35 027034   027061 710000 35                 TRA     s:35823

     4633    35810
     4634    35811    3          CASE (%LX_TERMINAL);

     4635    35812    3            IF INT$ -> LX_ITEM.SYMBOL ~= %EMPTY THEN

  35812 35 027035   100003 235100                    LDA     3,,PR1
        35 027036   027061 600000 35                 TZE     s:35823

     4636    35813    3              CALL CHARBIN (INT2,

  35813 35 027037   100002 473500                    LDP3    2,,PR1
        35 027040   300004 221100                    LDX1    4,,PR3
        35 027041   000000 305540                    DTB
        35 027042   300004 430011                    NDSC9   4,,PR3                   cn=2,s=nosgn,sf=0,n=*X1
        35 027043   000634 000004 0                  NDSC9   INT2                     cn=0,s=lsgnf,sf=0,n=4
        35 027044   027061 710000 35                 TRA     s:35823

     4637    35814    3                            INT$ -> LX_TERMINAL.DNT$ -> DNT.TEXT.NAME);
     4638    35815
     4639    35816    3          CASE (ELSE);

     4640    35817    3            CALL Z8AE$ERROR (%E$UNEXPECTED_CASE,

  35817 35 027045   000627 473400 0                  LDP3    @KEYWORD$
        35 027046   300000 474500                    LDP4    0,,PR3
        35 027047   400006 635500                    EPPR5   6,,PR4
        35 027050   001014 455400 0                  STP5    PROC$+4
        35 027051   400005 631500                    EPPR1   5,,PR4
        35 027052   001013 451400 0                  STP1    PROC$+3
        35 027053   000047 236000 36                 LDQ     39
        35 027054   001012 756000 0                  STQ     PROC$+2
PL6.E3A0      #001=Z8EM$SEMANTICS_DATA_DIV File=Z8EM.:Z8A6TSI                    SAT 08/09/97 12:08 Page:900
        35 027055   001012 630400 0                  EPPR0   PROC$+2
        35 027056   000000 631400 36                 EPPR1   0
        35 027057   000000 701000 xent               TSX1    Z8AE$ERROR
        35 027060   000000 011000                    NOP     0

     4641    35818    3                             KEYWORD$ -> LX_TERMINAL.LINE,
     4642    35819    3                             KEYWORD$ -> LX_TERMINAL.COLUMN);
     4643    35820
     4644    35821    3        END; /* Case */

     4645    35822
     4646    35823    2        O1COM.CURRENT_FILE_LTS$ -> FILE_LTS.RECORD_CONTAINS.INT_1 = INT1;

  35823 35 027061   000045 470400 xsym               LDP0    O1COM+37
        35 027062   000632 235000 0                  LDA     INT1
        35 027063   000023 755100                    STA     19,,PR0

     4647    35824    2        O1COM.CURRENT_FILE_LTS$ -> FILE_LTS.RECORD_CONTAINS.INT_2 = INT2;

  35824 35 027064   000045 470400 xsym               LDP0    O1COM+37
        35 027065   000634 236000 0                  LDQ     INT2
        35 027066   000024 756100                    STQ     20,,PR0

     4648    35825    2        O1COM.CURRENT_FILE_LTS$ -> FILE_LTS.B.RECORD_FORMAT_2 = TRUE;

  35825 35 027067   000045 470400 xsym               LDP0    O1COM+37
        35 027070   010000 236007                    LDQ     4096,DL
        35 027071   000017 256100                    ORSQ    15,,PR0

     4649    35826
     4650    35827    2        IF DEPEND$ -> LX_ITEM.ID = %LX_LIST THEN

  35827 35 027072   000631 470400 0                  LDP0    @DEPEND$
        35 027073   000000 471500                    LDP1    0,,PR0
        35 027074   100000 220100                    LDX0    0,,PR1
        35 027075   000002 100003                    CMPX0   2,DU
        35 027076   027123 601000 35                 TNZ     s:35843
PL6.E3A0      #001=Z8EM$SEMANTICS_DATA_DIV File=Z8EM.:Z8A6TSI                    SAT 08/09/97 12:08 Page:901

     4651    35828               %NEW_COPY_LX_ITEM (@FROM$ = DEPEND$,
     4652    35829                @TO$ = O1COM.CURRENT_FILE_LTS$ -> FILE_LTS.RECORD_CONTAINS.DEPENDING$);

  35834 35 027077   000054 236000 36                 LDQ     44
        35 027100   001013 756000 0                  STQ     PROC$+3
        35 027101   000045 236000 xsym               LDQ     O1COM+37
        35 027102   000025 036003                    ADLQ    21,DU
        35 027103   001012 756000 0                  STQ     PROC$+2
        35 027104   001012 630400 0                  EPPR0   PROC$+2
        35 027105   000025 631400 36                 EPPR1   21
        35 027106   000000 701000 xent               TSX1    Z8ED$NEW_HEAP
        35 027107   000000 011000                    NOP     0

  35837 35 027110   000045 470400 xsym               LDP0    O1COM+37
        35 027111   000025 471500                    LDP1    21,,PR0
        35 027112   000631 473400 0                  LDP3    @DEPEND$
        35 027113   300000 474500                    LDP4    0,,PR3
        35 027114   000100 100500                    MLR     fill='000'O
        35 027115   400000 000040                    ADSC9   0,,PR4                   cn=0,n=32
        35 027116   100000 000040                    ADSC9   0,,PR1                   cn=0,n=32

  35838 35 027117   000045 470400 xsym               LDP0    O1COM+37
        35 027120   000025 471500                    LDP1    21,,PR0
        35 027121   000024 236000 36                 LDQ     20
        35 027122   100007 756100                    STQ     7,,PR1

     4653    35841
     4654    35842
     4655    35843    2   END RECORD_VARYING;

  35843 35 027123   000626 221200 0                  LDX1  ! @DELIM$+1
        35 027124   000001 702211                    TSX2  ! 1,X1

     4656    35844        %EJECT;
PL6.E3A0      #001=Z8EM$SEMANTICS_DATA_DIV File=Z8EM.:Z8A6TSI                    SAT 08/09/97 12:08 Page:902
     4657    35845
     4658    35846         /*===========*/
     4659    35847    1      REPORT_CODE: PROC (KEYWORD$, STRING$);

  35847 35 027125   000636 741200 0     REPORT_CODE  STX1  ! TEMP+1

     4660    35848         /*===========*/
     4661    35849
     4662    35850
     4663    35851    2      DCL KEYWORD$          PTR;    /* To CODE lex item */
     4664    35852    2      DCL STRING$           PTR;    /* To <string> lex item */
     4665    35853    2      DCL LTS$$             PTR;    /* To REPORT_LTS */
     4666    35854    2      DCL DNT$$             PTR;    /* To new DNT item */
     4667    35855    2      DCL STRING_LENGTH     SBIN WORD;
     4668    35856
     4669    35857
     4670    35858
     4671    35859            /*
     4672    35860               1 Check the duplicated clause
     4673    35861               2 Check the length of the string
     4674    35862               3 Update the REPORT_LTS
     4675    35863            */
     4676    35864
     4677    35865
     4678    35866    2      LTS$$ = O1COM.CURRENT_REPORT_LTS$;

  35866 35 027126   000064 236000 xsym               LDQ     O1COM+52
        35 027127   000641 756000 0                  STQ     LTS$$

     4679    35867
     4680    35868    2      IF LTS$$ -> REPORT_LTS.B.CODE_ON THEN

  35868 35 027130   000641 470400 0                  LDP0    LTS$$
        35 027131   000003 234100                    SZN     3,,PR0
        35 027132   027153 605000 35                 TPL     s:35878

     4681    35869    3        DO;
PL6.E3A0      #001=Z8EM$SEMANTICS_DATA_DIV File=Z8EM.:Z8A6TSI                    SAT 08/09/97 12:08 Page:903

     4682    35870    3          CALL Z8AE$ERROR (%E$DUP_DD_CLAUSE,

  35870 35 027133   000637 471400 0                  LDP1    @KEYWORD$
        35 027134   100000 473500                    LDP3    0,,PR1
        35 027135   000516 236000 36                 LDQ     334
        35 027136   001015 756000 0                  STQ     PROC$+5
        35 027137   300006 634500                    EPPR4   6,,PR3
        35 027140   001014 454400 0                  STP4    PROC$+4
        35 027141   300005 635500                    EPPR5   5,,PR3
        35 027142   001013 455400 0                  STP5    PROC$+3
        35 027143   000010 236000 36                 LDQ     8
        35 027144   001012 756000 0                  STQ     PROC$+2
        35 027145   001012 630400 0                  EPPR0   PROC$+2
        35 027146   000005 631400 36                 EPPR1   5
        35 027147   000000 701000 xent               TSX1    Z8AE$ERROR
        35 027150   000000 011000                    NOP     0

     4683    35871    3                            KEYWORD$ -> LX_TERMINAL.LINE,
     4684    35872    3                            KEYWORD$ -> LX_TERMINAL.COLUMN,
     4685    35873    3                            DNT$_FROM_RSWNO(%RSV_WRD_CODE));
     4686    35874
     4687    35875    3          RETURN;

  35875 35 027151   000636 221200 0                  LDX1  ! TEMP+1
        35 027152   000001 702211                    TSX2  ! 1,X1

     4688    35876    3        END;
     4689    35877
     4690    35878    2          IF COMCOM.OB.FIPS.RPW THEN

  35878 35 027153   000036 236000 xsym               LDQ     COMCOM+30
        35 027154   040000 316003                    CANQ    16384,DU
        35 027155   027172 600000 35                 TZE     s:35883

     4691    35879    2            CALL Z8AE$ERROR (%E$LEVEL_CHECK,

PL6.E3A0      #001=Z8EM$SEMANTICS_DATA_DIV File=Z8EM.:Z8A6TSI                    SAT 08/09/97 12:08 Page:904
  35879 35 027156   000637 471400 0                  LDP1    @KEYWORD$
        35 027157   100000 473500                    LDP3    0,,PR1
        35 027160   300006 634500                    EPPR4   6,,PR3
        35 027161   001014 454400 0                  STP4    PROC$+4
        35 027162   300005 635500                    EPPR5   5,,PR3
        35 027163   001013 455400 0                  STP5    PROC$+3
        35 027164   000004 236000 36                 LDQ     4
        35 027165   001012 756000 0                  STQ     PROC$+2
        35 027166   001012 630400 0                  EPPR0   PROC$+2
        35 027167   000000 631400 36                 EPPR1   0
        35 027170   000000 701000 xent               TSX1    Z8AE$ERROR
        35 027171   000000 011000                    NOP     0

     4692    35880    2                             KEYWORD$ -> LX_TERMINAL.LINE,
     4693    35881    2                             KEYWORD$ -> LX_TERMINAL.COLUMN);
     4694    35882
     4695    35883    2      CALL Z8EC$INTERNAL_STRING_REP (STRING$, DNT$$);

  35883 35 027172   000517 236000 36                 LDQ     335
        35 027173   000640 235000 0                  LDA     @STRING$
        35 027174   001012 757000 0                  STAQ    PROC$+2
        35 027175   001012 630400 0                  EPPR0   PROC$+2
        35 027176   000025 631400 36                 EPPR1   21
        35 027177   000000 701000 xent               TSX1    Z8EC$INTERNAL_STRING_REP
        35 027200   000000 011000                    NOP     0

     4696    35884
     4697    35885    2      STRING_LENGTH = DNT$$ -> DNT.TEXT.LENGTH - 2;

  35885 35 027201   000642 470400 0                  LDP0    DNT$$
        35 027202   000004 236100                    LDQ     4,,PR0
        35 027203   000022 772000                    QRL     18
        35 027204   000002 136007                    SBLQ    2,DL
        35 027205   000643 756000 0                  STQ     STRING_LENGTH

     4698    35886
     4699    35887    2      IF STRING_LENGTH ~= 2 THEN
PL6.E3A0      #001=Z8EM$SEMANTICS_DATA_DIV File=Z8EM.:Z8A6TSI                    SAT 08/09/97 12:08 Page:905

  35887 35 027206   000002 116007                    CMPQ    2,DL
        35 027207   027234 600000 35                 TZE     s:35900

     4700    35888    3        DO;

     4701    35889    3          LTS$$ -> REPORT_LTS.CODE = 'XX';

  35889 35 027210   000132 220000 34                 LDX0    RSW_NO+90
        35 027211   000641 471400 0                  LDP1    LTS$$
        35 027212   100004 740100                    STX0    4,,PR1

     4702    35890
     4703    35891    3          IF NOT STRING$ -> LX_TERMINAL.DNT$ -> DNT.B.ERROR_VARIABLE

  35891 35 027213   000640 470400 0                  LDP0    @STRING$
        35 027214   000000 473500                    LDP3    0,,PR0
        35 027215   300002 474500                    LDP4    2,,PR3
        35 027216   400003 236100                    LDQ     3,,PR4
        35 027217   000100 316003                    CANQ    64,DU
        35 027220   027243 601000 35                 TNZ     s:35903

     4704    35892    3            THEN
     4705    35893    4              DO;

     4706    35894    4                CALL Z8AE$ERROR (%E$MUST_BE_2_CHAR_LONG,

  35894 35 027221   300006 635500                    EPPR5   6,,PR3
        35 027222   001014 455400 0                  STP5    PROC$+4
        35 027223   300005 634500                    EPPR4   5,,PR3
        35 027224   001013 454400 0                  STP4    PROC$+3
        35 027225   000521 236000 36                 LDQ     337
        35 027226   001012 756000 0                  STQ     PROC$+2
        35 027227   001012 630400 0                  EPPR0   PROC$+2
        35 027230   000000 631400 36                 EPPR1   0
        35 027231   000000 701000 xent               TSX1    Z8AE$ERROR
        35 027232   000000 011000                    NOP     0
PL6.E3A0      #001=Z8EM$SEMANTICS_DATA_DIV File=Z8EM.:Z8A6TSI                    SAT 08/09/97 12:08 Page:906

     4707    35895    4                                 STRING$ -> LX_TERMINAL.LINE,
     4708    35896    4                                 STRING$ -> LX_TERMINAL.COLUMN);
     4709    35897    4              END;

     4710    35898    3        END;

  35898 35 027233   027243 710000 35                 TRA     s:35903

     4711    35899    2      ELSE
     4712    35900    2        LTS$$ -> REPORT_LTS.CODE = SUBSTR (DNT$$ -> DNT.TEXT.NAME,

  35900 35 027234   000004 220100                    LDX0    4,,PR0
        35 027235   040000 100500                    MLR     fill='040'O
        35 027236   000004 600002                    ADSC9   4,,PR0                   cn=3,n=2
        35 027237   001012 000004 0                  ADSC9   PROC$+2                  cn=0,n=4
        35 027240   001012 220000 0                  LDX0    PROC$+2
        35 027241   000641 471400 0                  LDP1    LTS$$
        35 027242   100004 740100                    STX0    4,,PR1

     4713    35901    2                                           1,
     4714    35902    2                                           2);
     4715    35903    2        LTS$$ -> REPORT_LTS.B.CODE_ON = TRUE;

  35903 35 027243   000641 470400 0                  LDP0    LTS$$
        35 027244   400000 236003                    LDQ     -131072,DU
        35 027245   000003 256100                    ORSQ    3,,PR0

     4716    35904
     4717    35905    2     END REPORT_CODE;

  35905 35 027246   000636 221200 0                  LDX1  ! TEMP+1
        35 027247   000001 702211                    TSX2  ! 1,X1

     4718    35906          %EJECT;
PL6.E3A0      #001=Z8EM$SEMANTICS_DATA_DIV File=Z8EM.:Z8A6TSI                    SAT 08/09/97 12:08 Page:907
     4719    35907
     4720    35908         /*==================*/
     4721    35909    1      REPORT_PAGE_FORMAT: PROC  (PAGE$, LINE$);

  35909 35 027250   000644 741200 0     REPORT_PAGE* STX1  ! STRING_LENGTH+1

     4722    35910         /*==================*/
     4723    35911
     4724    35912
     4725    35913           %EQU DEFAULT_HEADING = 1;
     4726    35914           %EQU MAX_PAGE_LINES = 999;
     4727    35915
     4728    35916
     4729    35917    2      DCL PAGE$                 PTR;
     4730    35918    2      DCL LINE$                 PTR;
     4731    35919    2      DCL I                     SBIN WORD;
     4732    35920    2      DCL HEADING               SBIN WORD;
     4733    35921    2      DCL FIRST_DETAIL          SBIN WORD;
     4734    35922    2      DCL LAST_DETAIL           SBIN WORD;
     4735    35923    2      DCL FOOTING               SBIN WORD;
     4736    35924    2      DCL PAGE_LIMIT            SBIN WORD;
     4737    35925    2       DCL CASE_NO             SBIN WORD;
     4738    35926
     4739    35927
     4740    35928    2      IF O1COM.CURRENT_REPORT_LTS$ -> REPORT_LTS.B.PAGE_LIMIT_ON THEN

  35928 35 027251   000064 470400 xsym               LDP0    O1COM+52
        35 027252   000003 236100                    LDQ     3,,PR0
        35 027253   100000 316003                    CANQ    32768,DU
        35 027254   027303 600000 35                 TZE     s:35966

     4741    35929    3        DO;

     4742    35930               %CONDITIONAL_ERROR (@LX_ITEM$ = PAGE$,
     4743    35931                                   @ERROR#   = %E$DUP_DD_CLAUSE,
     4744    35932                                   @LINE     = PAGE$ -> LX_TERMINAL.LINE,
     4745    35933                                   @COLUMN   = PAGE$ -> LX_TERMINAL.COLUMN,
PL6.E3A0      #001=Z8EM$SEMANTICS_DATA_DIV File=Z8EM.:Z8A6TSI                    SAT 08/09/97 12:08 Page:908
     4746    35934                                   @PLUG1    = "DNT$_FROM_RSWNO(%RSV_WRD_PAGE)");

  35944 35 027255   000645 471400 0                  LDP1    @PAGE$
        35 027256   100000 473500                    LDP3    0,,PR1
        35 027257   300000 236100                    LDQ     0,,PR3
        35 027260   400000 316007                    CANQ    -131072,DL
        35 027261   027302 601000 35                 TNZ     s:35964

  35946 35 027262   000522 236000 36                 LDQ     338
        35 027263   001015 756000 0                  STQ     PROC$+5
        35 027264   300006 634500                    EPPR4   6,,PR3
        35 027265   001014 454400 0                  STP4    PROC$+4
        35 027266   300005 635500                    EPPR5   5,,PR3
        35 027267   001013 455400 0                  STP5    PROC$+3
        35 027270   000010 236000 36                 LDQ     8
        35 027271   001012 756000 0                  STQ     PROC$+2
        35 027272   001012 630400 0                  EPPR0   PROC$+2
        35 027273   000005 631400 36                 EPPR1   5
        35 027274   000000 701000 xent               TSX1    Z8AE$ERROR
        35 027275   000000 011000                    NOP     0

  35955 35 027276   000645 470400 0                  LDP0    @PAGE$
        35 027277   000000 471500                    LDP1    0,,PR0
        35 027300   400000 236007                    LDQ     -131072,DL
        35 027301   100000 256100                    ORSQ    0,,PR1

     4747    35964    3          GOTO DISPOSE_TREE;

  35964 35 027302   027714 710000 35                 TRA     DISPOSE_TREE

     4748    35965    3        END;
     4749    35966    2      IF COMCOM.OB.FIPS.RPW THEN

  35966 35 027303   000036 236000 xsym               LDQ     COMCOM+30
        35 027304   040000 316003                    CANQ    16384,DU
        35 027305   027331 600000 35                 TZE     s:36000

PL6.E3A0      #001=Z8EM$SEMANTICS_DATA_DIV File=Z8EM.:Z8A6TSI                    SAT 08/09/97 12:08 Page:909
     4750    35967             %CONDITIONAL_ERROR (@LX_ITEM$ = PAGE$,
     4751    35968                                 @ERROR#   = %E$LEVEL_CHECK,
     4752    35969                                 @LINE     = PAGE$ -> LX_TERMINAL.LINE,
     4753    35970                                 @COLUMN   = PAGE$ -> LX_TERMINAL.COLUMN);

  35980 35 027306   000645 471400 0                  LDP1    @PAGE$
        35 027307   100000 473500                    LDP3    0,,PR1
        35 027310   300000 236100                    LDQ     0,,PR3
        35 027311   400000 316007                    CANQ    -131072,DL
        35 027312   027331 601000 35                 TNZ     s:36000

  35982 35 027313   300006 634500                    EPPR4   6,,PR3
        35 027314   001014 454400 0                  STP4    PROC$+4
        35 027315   300005 635500                    EPPR5   5,,PR3
        35 027316   001013 455400 0                  STP5    PROC$+3
        35 027317   000004 236000 36                 LDQ     4
        35 027320   001012 756000 0                  STQ     PROC$+2
        35 027321   001012 630400 0                  EPPR0   PROC$+2
        35 027322   000000 631400 36                 EPPR1   0
        35 027323   000000 701000 xent               TSX1    Z8AE$ERROR
        35 027324   000000 011000                    NOP     0

  35991 35 027325   000645 470400 0                  LDP0    @PAGE$
        35 027326   000000 471500                    LDP1    0,,PR0
        35 027327   400000 236007                    LDQ     -131072,DL
        35 027330   100000 256100                    ORSQ    0,,PR1

     4754    36000    2      O1COM.CURRENT_REPORT_LTS$ -> REPORT_LTS.B.PAGE_LIMIT_ON = TRUE;

  36000 35 027331   000064 470400 xsym               LDP0    O1COM+52
        35 027332   100000 236003                    LDQ     32768,DU
        35 027333   000003 256100                    ORSQ    3,,PR0

     4755    36001    2      CALL CHARBIN (PAGE_LIMIT,

  36001 35 027334   000646 470400 0                  LDP0    @LINE$
        35 027335   000000 471500                    LDP1    0,,PR0
PL6.E3A0      #001=Z8EM$SEMANTICS_DATA_DIV File=Z8EM.:Z8A6TSI                    SAT 08/09/97 12:08 Page:910
        35 027336   100002 473500                    LDP3    2,,PR1
        35 027337   300004 220100                    LDX0    4,,PR3
        35 027340   000000 305540                    DTB
        35 027341   300004 430010                    NDSC9   4,,PR3                   cn=2,s=nosgn,sf=0,n=*X0
        35 027342   000654 000004 0                  NDSC9   PAGE_LIMIT               cn=0,s=lsgnf,sf=0,n=4

     4756    36002    2                    LINE$ -> LX_TERMINAL.DNT$ -> DNT.TEXT.NAME);
     4757    36003
     4758    36004    2      IF PAGE_FORMAT.P.HEADING$ = ADDR(NIL) THEN

  36004 35 027343   000000 236000 xsym               LDQ     PAGE_FORMAT
        35 027344   000024 116000 36                 CMPQ    20
        35 027345   027351 601000 35                 TNZ     s:36008

     4759    36005    2          HEADING = %DEFAULT_HEADING;

  36005 35 027346   000001 235007                    LDA     1,DL
        35 027347   000650 755000 0                  STA     HEADING
        35 027350   027375 710000 35                 TRA     s:36021

     4760    36006    2        ELSE
     4761    36007    3          DO;

     4762    36008    3           CALL CHARBIN (HEADING,

  36008 35 027351   000000 474400 xsym               LDP4    PAGE_FORMAT
        35 027352   400002 475500                    LDP5    2,,PR4
        35 027353   500004 221100                    LDX1    4,,PR5
        35 027354   000000 305540                    DTB
        35 027355   500004 430011                    NDSC9   4,,PR5                   cn=2,s=nosgn,sf=0,n=*X1
        35 027356   000650 000004 0                  NDSC9   HEADING                  cn=0,s=lsgnf,sf=0,n=4

     4763    36009    3                         PAGE_FORMAT.P.HEADING$ -> LX_TERMINAL.DNT$ -> DNT.TEXT.NAME);
     4764    36010
     4765    36011    3           IF HEADING < 1 THEN

  36011 35 027357   000650 235000 0                  LDA     HEADING
PL6.E3A0      #001=Z8EM$SEMANTICS_DATA_DIV File=Z8EM.:Z8A6TSI                    SAT 08/09/97 12:08 Page:911
        35 027360   027375 605400 35                 TPNZ    s:36021

     4766    36012    4             DO;

     4767    36013                    /* Number in this HEADING clause must greater or equal to 1 */
     4768    36014    4               CALL Z8AE$ERROR (%E$INT_MUST_GTR_EQU_1,

  36014 35 027361   000006 036003                    ADLQ    6,DU
        35 027362   001014 756000 0                  STQ     PROC$+4
        35 027363   000000 236000 xsym               LDQ     PAGE_FORMAT
        35 027364   000005 036003                    ADLQ    5,DU
        35 027365   000524 235000 36                 LDA     340
        35 027366   001012 757000 0                  STAQ    PROC$+2
        35 027367   001012 630400 0                  EPPR0   PROC$+2
        35 027370   000000 631400 36                 EPPR1   0
        35 027371   000000 701000 xent               TSX1    Z8AE$ERROR
        35 027372   000000 011000                    NOP     0

     4769    36015    4                                PAGE_FORMAT.P.HEADING$ -> LX_TERMINAL.LINE,
     4770    36016    4                                PAGE_FORMAT.P.HEADING$ -> LX_TERMINAL.COLUMN);
     4771    36017    4               HEADING = 1;

  36017 35 027373   000001 235007                    LDA     1,DL
        35 027374   000650 755000 0                  STA     HEADING

     4772    36018    4             END;

     4773    36019    3         END;

     4774    36020
     4775    36021    2      IF PAGE_FORMAT.P.FIRST_DETAIL$ = ADDR(NIL) THEN

  36021 35 027375   000001 236000 xsym               LDQ     PAGE_FORMAT+1
        35 027376   000024 116000 36                 CMPQ    20
        35 027377   027402 601000 35                 TNZ     s:36025

     4776    36022    2          FIRST_DETAIL = HEADING;
PL6.E3A0      #001=Z8EM$SEMANTICS_DATA_DIV File=Z8EM.:Z8A6TSI                    SAT 08/09/97 12:08 Page:912

  36022 35 027400   000651 755000 0                  STA     FIRST_DETAIL
        35 027401   027430 710000 35                 TRA     s:36038

     4777    36023    2        ELSE
     4778    36024    3          DO;

     4779    36025    3           CALL CHARBIN (FIRST_DETAIL,

  36025 35 027402   000001 470400 xsym               LDP0    PAGE_FORMAT+1
        35 027403   000002 471500                    LDP1    2,,PR0
        35 027404   100004 220100                    LDX0    4,,PR1
        35 027405   000000 305540                    DTB
        35 027406   100004 430010                    NDSC9   4,,PR1                   cn=2,s=nosgn,sf=0,n=*X0
        35 027407   000651 000004 0                  NDSC9   FIRST_DETAIL             cn=0,s=lsgnf,sf=0,n=4

     4780    36026    3                         PAGE_FORMAT.P.FIRST_DETAIL$ -> LX_TERMINAL.DNT$ -> DNT.TEXT.
             36026                                  NAME);
     4781    36027
     4782    36028    3           IF FIRST_DETAIL < HEADING THEN

  36028 35 027410   000651 236000 0                  LDQ     FIRST_DETAIL
        35 027411   000650 116000 0                  CMPQ    HEADING
        35 027412   027430 605000 35                 TPL     s:36038

     4783    36029    4             DO;

     4784    36030                    /* The number in this clause is too small */
     4785    36031    4               CALL Z8AE$ERROR (%E$NUM_IS_TOO_SMALL,

  36031 35 027413   000001 236000 xsym               LDQ     PAGE_FORMAT+1
        35 027414   000006 036003                    ADLQ    6,DU
        35 027415   001014 756000 0                  STQ     PROC$+4
        35 027416   000001 236000 xsym               LDQ     PAGE_FORMAT+1
        35 027417   000005 036003                    ADLQ    5,DU
        35 027420   000526 235000 36                 LDA     342
        35 027421   001012 757000 0                  STAQ    PROC$+2
PL6.E3A0      #001=Z8EM$SEMANTICS_DATA_DIV File=Z8EM.:Z8A6TSI                    SAT 08/09/97 12:08 Page:913
        35 027422   001012 630400 0                  EPPR0   PROC$+2
        35 027423   000000 631400 36                 EPPR1   0
        35 027424   000000 701000 xent               TSX1    Z8AE$ERROR
        35 027425   000000 011000                    NOP     0

     4786    36032    4                                PAGE_FORMAT.P.FIRST_DETAIL$ -> LX_TERMINAL.LINE,
     4787    36033    4                                PAGE_FORMAT.P.FIRST_DETAIL$ -> LX_TERMINAL.COLUMN);
     4788    36034    4               FIRST_DETAIL = HEADING;

  36034 35 027426   000650 235000 0                  LDA     HEADING
        35 027427   000651 755000 0                  STA     FIRST_DETAIL

     4789    36035    4             END;

     4790    36036    3         END;

     4791    36037
     4792    36038    2      IF PAGE_FORMAT.P.LAST_DETAIL$ = ADDR(NIL) THEN

  36038 35 027430   000002 236000 xsym               LDQ     PAGE_FORMAT+2
        35 027431   000024 116000 36                 CMPQ    20
        35 027432   027444 601000 35                 TNZ     s:36044

     4793    36039    2        IF PAGE_FORMAT.P.FOOTING$ = ADDR(NIL) THEN

  36039 35 027433   000003 236000 xsym               LDQ     PAGE_FORMAT+3
        35 027434   000024 116000 36                 CMPQ    20
        35 027435   027441 601000 35                 TNZ     s:36042

     4794    36040    2          CASE_NO = 1;

  36040 35 027436   000001 235007                    LDA     1,DL
        35 027437   000655 755000 0                  STA     CASE_NO
        35 027440   027454 710000 35                 TRA     s:36049

     4795    36041    2        ELSE
     4796    36042    2          CASE_NO = 2;
PL6.E3A0      #001=Z8EM$SEMANTICS_DATA_DIV File=Z8EM.:Z8A6TSI                    SAT 08/09/97 12:08 Page:914

  36042 35 027441   000002 235007                    LDA     2,DL
        35 027442   000655 755000 0                  STA     CASE_NO
        35 027443   027454 710000 35                 TRA     s:36049

     4797    36043    2      ELSE
     4798    36044    2        IF PAGE_FORMAT.P.FOOTING$ = ADDR(NIL) THEN

  36044 35 027444   000003 236000 xsym               LDQ     PAGE_FORMAT+3
        35 027445   000024 116000 36                 CMPQ    20
        35 027446   027452 601000 35                 TNZ     s:36047

     4799    36045    2          CASE_NO = 3;

  36045 35 027447   000003 235007                    LDA     3,DL
        35 027450   000655 755000 0                  STA     CASE_NO
        35 027451   027454 710000 35                 TRA     s:36049

     4800    36046    2        ELSE
     4801    36047    2          CASE_NO = 4;

  36047 35 027452   000004 235007                    LDA     4,DL
        35 027453   000655 755000 0                  STA     CASE_NO

     4802    36048
     4803    36049    3      DO CASE (CASE_NO);

  36049 35 027454   000005 115007                    CMPA    5,DL
        35 027455   027457 602005 35                 TNC     s:36049+3,AL
        35 027456   027635 710000 35                 TRA     s:36117
        35 027457   027635 710000 35                 TRA     s:36117
        35 027460   027464 710000 35                 TRA     s:36051
        35 027461   027476 710000 35                 TRA     s:36063
        35 027462   027527 710000 35                 TRA     s:36077
        35 027463   027560 710000 35                 TRA     s:36091

     4804    36050    3        CASE ( 1 );
PL6.E3A0      #001=Z8EM$SEMANTICS_DATA_DIV File=Z8EM.:Z8A6TSI                    SAT 08/09/97 12:08 Page:915

     4805    36051    3          IF PAGE_LIMIT < FIRST_DETAIL THEN

  36051 35 027464   000654 236000 0                  LDQ     PAGE_LIMIT
        35 027465   000651 116000 0                  CMPQ    FIRST_DETAIL
        35 027466   027473 605000 35                 TPL     s:36058

     4806    36052    4            DO;

     4807    36053    4              LAST_DETAIL = FIRST_DETAIL;

  36053 35 027467   000651 235000 0                  LDA     FIRST_DETAIL
        35 027470   000652 755000 0                  STA     LAST_DETAIL

     4808    36054    4              FOOTING = FIRST_DETAIL;

  36054 35 027471   000653 755000 0                  STA     FOOTING

     4809    36055    4            END;

  36055 35 027472   027635 710000 35                 TRA     s:36117

     4810    36056    3          ELSE
     4811    36057    4            DO;

     4812    36058    4              LAST_DETAIL = PAGE_LIMIT;

  36058 35 027473   000652 756000 0                  STQ     LAST_DETAIL

     4813    36059    4              FOOTING = PAGE_LIMIT;

  36059 35 027474   000653 756000 0                  STQ     FOOTING

     4814    36060    4            END;

  36060 35 027475   027635 710000 35                 TRA     s:36117

PL6.E3A0      #001=Z8EM$SEMANTICS_DATA_DIV File=Z8EM.:Z8A6TSI                    SAT 08/09/97 12:08 Page:916
     4815    36061
     4816    36062    3        CASE ( 2 );

     4817    36063    3          CALL CHARBIN (FOOTING,

  36063 35 027476   000003 470400 xsym               LDP0    PAGE_FORMAT+3
        35 027477   000002 471500                    LDP1    2,,PR0
        35 027500   100004 220100                    LDX0    4,,PR1
        35 027501   000000 305540                    DTB
        35 027502   100004 430010                    NDSC9   4,,PR1                   cn=2,s=nosgn,sf=0,n=*X0
        35 027503   000653 000004 0                  NDSC9   FOOTING                  cn=0,s=lsgnf,sf=0,n=4

     4818    36064    3                        PAGE_FORMAT.P.FOOTING$ -> LX_TERMINAL.DNT$ -> DNT.TEXT.NAME);
     4819    36065    3          IF FOOTING < FIRST_DETAIL THEN

  36065 35 027504   000653 236000 0                  LDQ     FOOTING
        35 027505   000651 116000 0                  CMPQ    FIRST_DETAIL
        35 027506   027524 605000 35                 TPL     s:36073

     4820    36066    4            DO;

     4821    36067                   /* The number in this clause is too small */
     4822    36068    4              CALL Z8AE$ERROR (%E$NUM_IS_TOO_SMALL,

  36068 35 027507   000003 236000 xsym               LDQ     PAGE_FORMAT+3
        35 027510   000006 036003                    ADLQ    6,DU
        35 027511   001014 756000 0                  STQ     PROC$+4
        35 027512   000003 236000 xsym               LDQ     PAGE_FORMAT+3
        35 027513   000005 036003                    ADLQ    5,DU
        35 027514   000526 235000 36                 LDA     342
        35 027515   001012 757000 0                  STAQ    PROC$+2
        35 027516   001012 630400 0                  EPPR0   PROC$+2
        35 027517   000000 631400 36                 EPPR1   0
        35 027520   000000 701000 xent               TSX1    Z8AE$ERROR
        35 027521   000000 011000                    NOP     0

     4823    36069    4                               PAGE_FORMAT.P.FOOTING$ -> LX_TERMINAL.LINE,
PL6.E3A0      #001=Z8EM$SEMANTICS_DATA_DIV File=Z8EM.:Z8A6TSI                    SAT 08/09/97 12:08 Page:917
     4824    36070    4                               PAGE_FORMAT.P.FOOTING$ -> LX_TERMINAL.COLUMN);
     4825    36071    4              FOOTING = FIRST_DETAIL;

  36071 35 027522   000651 235000 0                  LDA     FIRST_DETAIL
        35 027523   000653 755000 0                  STA     FOOTING

     4826    36072    4            END;

     4827    36073    3          LAST_DETAIL = FOOTING;

  36073 35 027524   000653 235000 0                  LDA     FOOTING
        35 027525   000652 755000 0                  STA     LAST_DETAIL
        35 027526   027635 710000 35                 TRA     s:36117

     4828    36074
     4829    36075
     4830    36076    3        CASE ( 3 );

     4831    36077    3          CALL CHARBIN (LAST_DETAIL,

  36077 35 027527   000002 470400 xsym               LDP0    PAGE_FORMAT+2
        35 027530   000002 471500                    LDP1    2,,PR0
        35 027531   100004 220100                    LDX0    4,,PR1
        35 027532   000000 305540                    DTB
        35 027533   100004 430010                    NDSC9   4,,PR1                   cn=2,s=nosgn,sf=0,n=*X0
        35 027534   000652 000004 0                  NDSC9   LAST_DETAIL              cn=0,s=lsgnf,sf=0,n=4

     4832    36078    3                       PAGE_FORMAT.P.LAST_DETAIL$ -> LX_TERMINAL.DNT$ -> DNT.TEXT.NAME
             36078                                 );
     4833    36079    3          IF LAST_DETAIL < FIRST_DETAIL THEN

  36079 35 027535   000652 236000 0                  LDQ     LAST_DETAIL
        35 027536   000651 116000 0                  CMPQ    FIRST_DETAIL
        35 027537   027555 605000 35                 TPL     s:36087

     4834    36080    4            DO;

PL6.E3A0      #001=Z8EM$SEMANTICS_DATA_DIV File=Z8EM.:Z8A6TSI                    SAT 08/09/97 12:08 Page:918
     4835    36081                   /* The number in this clause is too small */
     4836    36082    4              CALL Z8AE$ERROR (%E$NUM_IS_TOO_SMALL,

  36082 35 027540   000002 236000 xsym               LDQ     PAGE_FORMAT+2
        35 027541   000006 036003                    ADLQ    6,DU
        35 027542   001014 756000 0                  STQ     PROC$+4
        35 027543   000002 236000 xsym               LDQ     PAGE_FORMAT+2
        35 027544   000005 036003                    ADLQ    5,DU
        35 027545   000526 235000 36                 LDA     342
        35 027546   001012 757000 0                  STAQ    PROC$+2
        35 027547   001012 630400 0                  EPPR0   PROC$+2
        35 027550   000000 631400 36                 EPPR1   0
        35 027551   000000 701000 xent               TSX1    Z8AE$ERROR
        35 027552   000000 011000                    NOP     0

     4837    36083    4                               PAGE_FORMAT.P.LAST_DETAIL$ -> LX_TERMINAL.LINE,
     4838    36084    4                               PAGE_FORMAT.P.LAST_DETAIL$ -> LX_TERMINAL.COLUMN);
     4839    36085    4              LAST_DETAIL = FIRST_DETAIL;

  36085 35 027553   000651 235000 0                  LDA     FIRST_DETAIL
        35 027554   000652 755000 0                  STA     LAST_DETAIL

     4840    36086    4            END;

     4841    36087    3          FOOTING = LAST_DETAIL;

  36087 35 027555   000652 235000 0                  LDA     LAST_DETAIL
        35 027556   000653 755000 0                  STA     FOOTING
        35 027557   027635 710000 35                 TRA     s:36117

     4842    36088
     4843    36089
     4844    36090    3        CASE ( 4 );

     4845    36091    3          CALL CHARBIN (LAST_DETAIL,

  36091 35 027560   000002 470400 xsym               LDP0    PAGE_FORMAT+2
PL6.E3A0      #001=Z8EM$SEMANTICS_DATA_DIV File=Z8EM.:Z8A6TSI                    SAT 08/09/97 12:08 Page:919
        35 027561   000002 471500                    LDP1    2,,PR0
        35 027562   100004 220100                    LDX0    4,,PR1
        35 027563   000000 305540                    DTB
        35 027564   100004 430010                    NDSC9   4,,PR1                   cn=2,s=nosgn,sf=0,n=*X0
        35 027565   000652 000004 0                  NDSC9   LAST_DETAIL              cn=0,s=lsgnf,sf=0,n=4

     4846    36092    3                       PAGE_FORMAT.P.LAST_DETAIL$ -> LX_TERMINAL.DNT$ -> DNT.TEXT.NAME
             36092                                 );
     4847    36093    3          IF LAST_DETAIL < FIRST_DETAIL THEN

  36093 35 027566   000652 236000 0                  LDQ     LAST_DETAIL
        35 027567   000651 116000 0                  CMPQ    FIRST_DETAIL
        35 027570   027606 605000 35                 TPL     s:36102

     4848    36094    4            DO;

     4849    36095                   /* The number in this clause is too small */
     4850    36096    4              CALL Z8AE$ERROR (%E$NUM_IS_TOO_SMALL,

  36096 35 027571   000002 236000 xsym               LDQ     PAGE_FORMAT+2
        35 027572   000006 036003                    ADLQ    6,DU
        35 027573   001014 756000 0                  STQ     PROC$+4
        35 027574   000002 236000 xsym               LDQ     PAGE_FORMAT+2
        35 027575   000005 036003                    ADLQ    5,DU
        35 027576   000526 235000 36                 LDA     342
        35 027577   001012 757000 0                  STAQ    PROC$+2
        35 027600   001012 630400 0                  EPPR0   PROC$+2
        35 027601   000000 631400 36                 EPPR1   0
        35 027602   000000 701000 xent               TSX1    Z8AE$ERROR
        35 027603   000000 011000                    NOP     0

     4851    36097    4                               PAGE_FORMAT.P.LAST_DETAIL$ -> LX_TERMINAL.LINE,
     4852    36098    4                               PAGE_FORMAT.P.LAST_DETAIL$ -> LX_TERMINAL.COLUMN);
     4853    36099    4              LAST_DETAIL = FIRST_DETAIL;

  36099 35 027604   000651 235000 0                  LDA     FIRST_DETAIL
        35 027605   000652 755000 0                  STA     LAST_DETAIL
PL6.E3A0      #001=Z8EM$SEMANTICS_DATA_DIV File=Z8EM.:Z8A6TSI                    SAT 08/09/97 12:08 Page:920

     4854    36100    4            END;

     4855    36101
     4856    36102    3          CALL CHARBIN (FOOTING,

  36102 35 027606   000003 470400 xsym               LDP0    PAGE_FORMAT+3
        35 027607   000002 471500                    LDP1    2,,PR0
        35 027610   100004 220100                    LDX0    4,,PR1
        35 027611   000000 305540                    DTB
        35 027612   100004 430010                    NDSC9   4,,PR1                   cn=2,s=nosgn,sf=0,n=*X0
        35 027613   000653 000004 0                  NDSC9   FOOTING                  cn=0,s=lsgnf,sf=0,n=4

     4857    36103    3                        PAGE_FORMAT.P.FOOTING$ -> LX_TERMINAL.DNT$ -> DNT.TEXT.NAME);
     4858    36104    3          IF FOOTING < LAST_DETAIL THEN

  36104 35 027614   000653 236000 0                  LDQ     FOOTING
        35 027615   000652 116000 0                  CMPQ    LAST_DETAIL
        35 027616   027635 605000 35                 TPL     s:36117

     4859    36105    4            DO;

     4860    36106                   /* The number in this clause is too small */
     4861    36107    4              CALL Z8AE$ERROR (%E$NUM_IS_TOO_SMALL,

  36107 35 027617   000003 236000 xsym               LDQ     PAGE_FORMAT+3
        35 027620   000006 036003                    ADLQ    6,DU
        35 027621   001014 756000 0                  STQ     PROC$+4
        35 027622   000003 236000 xsym               LDQ     PAGE_FORMAT+3
        35 027623   000005 036003                    ADLQ    5,DU
        35 027624   000526 235000 36                 LDA     342
        35 027625   001012 757000 0                  STAQ    PROC$+2
        35 027626   001012 630400 0                  EPPR0   PROC$+2
        35 027627   000000 631400 36                 EPPR1   0
        35 027630   000000 701000 xent               TSX1    Z8AE$ERROR
        35 027631   000000 011000                    NOP     0

PL6.E3A0      #001=Z8EM$SEMANTICS_DATA_DIV File=Z8EM.:Z8A6TSI                    SAT 08/09/97 12:08 Page:921
     4862    36108    4                               PAGE_FORMAT.P.FOOTING$ -> LX_TERMINAL.LINE,
     4863    36109    4                               PAGE_FORMAT.P.FOOTING$ -> LX_TERMINAL.COLUMN);
     4864    36110    4              FOOTING = LAST_DETAIL;

  36110 35 027632   000652 235000 0                  LDA     LAST_DETAIL
        35 027633   000653 755000 0                  STA     FOOTING

     4865    36111    4            END;

  36111 35 027634   027635 710000 35                 TRA     s:36117

     4866    36112
     4867    36113    3        CASE (ELSE);

     4868    36114
     4869    36115    3      END;  /* Case */

     4870    36116
     4871    36117    2      IF PAGE_LIMIT < FOOTING THEN

  36117 35 027635   000654 236000 0                  LDQ     PAGE_LIMIT
        35 027636   000653 116000 0                  CMPQ    FOOTING
        35 027637   027657 605000 35                 TPL     s:36126

     4872    36118    3        DO;

     4873    36119               /* This page limit number is too small */
     4874    36120    3          CALL Z8AE$ERROR (%E$NUM_IS_TOO_SMALL,

  36120 35 027640   000646 470400 0                  LDP0    @LINE$
        35 027641   000000 471500                    LDP1    0,,PR0
        35 027642   100006 633500                    EPPR3   6,,PR1
        35 027643   001014 453400 0                  STP3    PROC$+4
        35 027644   100005 634500                    EPPR4   5,,PR1
        35 027645   001013 454400 0                  STP4    PROC$+3
        35 027646   000526 236000 36                 LDQ     342
        35 027647   001012 756000 0                  STQ     PROC$+2
PL6.E3A0      #001=Z8EM$SEMANTICS_DATA_DIV File=Z8EM.:Z8A6TSI                    SAT 08/09/97 12:08 Page:922
        35 027650   001012 630400 0                  EPPR0   PROC$+2
        35 027651   000000 631400 36                 EPPR1   0
        35 027652   000000 701000 xent               TSX1    Z8AE$ERROR
        35 027653   000000 011000                    NOP     0

     4875    36121    3                           LINE$ -> LX_TERMINAL.LINE,
     4876    36122    3                           LINE$ -> LX_TERMINAL.COLUMN);
     4877    36123    3          PAGE_LIMIT = FOOTING;

  36123 35 027654   000653 235000 0                  LDA     FOOTING
        35 027655   000654 755000 0                  STA     PAGE_LIMIT

     4878    36124    3        END;

  36124 35 027656   027675 710000 35                 TRA     s:36134

     4879    36125    2      ELSE
     4880    36126    2        IF PAGE_LIMIT > %MAX_PAGE_LINES  THEN

  36126 35 027657   001747 116007                    CMPQ    999,DL
        35 027660   027675 604400 35                 TMOZ    s:36134

     4881    36127    3          DO;

     4882    36128             /* The page limit number must not exceed three significant digits in length */
     4883    36129    3            CALL Z8AE$ERROR (%E$NUM_EXCEED_999,

  36129 35 027661   000646 470400 0                  LDP0    @LINE$
        35 027662   000000 471500                    LDP1    0,,PR0
        35 027663   100006 633500                    EPPR3   6,,PR1
        35 027664   001014 453400 0                  STP3    PROC$+4
        35 027665   100005 634500                    EPPR4   5,,PR1
        35 027666   001013 454400 0                  STP4    PROC$+3
        35 027667   000530 236000 36                 LDQ     344
        35 027670   001012 756000 0                  STQ     PROC$+2
        35 027671   001012 630400 0                  EPPR0   PROC$+2
        35 027672   000000 631400 36                 EPPR1   0
PL6.E3A0      #001=Z8EM$SEMANTICS_DATA_DIV File=Z8EM.:Z8A6TSI                    SAT 08/09/97 12:08 Page:923
        35 027673   000000 701000 xent               TSX1    Z8AE$ERROR
        35 027674   000000 011000                    NOP     0

     4884    36130    3                             LINE$ -> LX_TERMINAL.LINE,
     4885    36131    3                             LINE$ -> LX_TERMINAL.COLUMN);
     4886    36132    3          END;

     4887    36133
     4888    36134    2      O1COM.CURRENT_REPORT_LTS$ -> REPORT_LTS.PAGE_LIMIT = PAGE_LIMIT;

  36134 35 027675   000064 470400 xsym               LDP0    O1COM+52
        35 027676   000654 235000 0                  LDA     PAGE_LIMIT
        35 027677   000011 755100                    STA     9,,PR0

     4889    36135    2      O1COM.CURRENT_REPORT_LTS$ -> REPORT_LTS.HEADING = HEADING;

  36135 35 027700   000064 470400 xsym               LDP0    O1COM+52
        35 027701   000650 236000 0                  LDQ     HEADING
        35 027702   000012 756100                    STQ     10,,PR0

     4890    36136    2      O1COM.CURRENT_REPORT_LTS$ -> REPORT_LTS.FIRST_DETAIL = FIRST_DETAIL;

  36136 35 027703   000064 470400 xsym               LDP0    O1COM+52
        35 027704   000651 235000 0                  LDA     FIRST_DETAIL
        35 027705   000013 755100                    STA     11,,PR0

     4891    36137    2      O1COM.CURRENT_REPORT_LTS$ -> REPORT_LTS.LAST_DETAIL = LAST_DETAIL;

  36137 35 027706   000064 470400 xsym               LDP0    O1COM+52
        35 027707   000652 235000 0                  LDA     LAST_DETAIL
        35 027710   000014 755100                    STA     12,,PR0

     4892    36138    2      O1COM.CURRENT_REPORT_LTS$ -> REPORT_LTS.FOOTING = FOOTING;

  36138 35 027711   000064 470400 xsym               LDP0    O1COM+52
        35 027712   000653 235000 0                  LDA     FOOTING
        35 027713   000015 755100                    STA     13,,PR0
PL6.E3A0      #001=Z8EM$SEMANTICS_DATA_DIV File=Z8EM.:Z8A6TSI                    SAT 08/09/97 12:08 Page:924

     4893    36139
     4894    36140    2    DISPOSE_TREE:
     4895    36141    3      DO I = 0 TO 3;

  36141 35 027714   000647 450000 0     DISPOSE_TREE STZ     I

     4896    36142    3        CALL Z8ED$DISPOSE_ABSSYN_TREE (PAGE_FORMAT.P_PTR(I));

  36142 35 027715   000647 720000 0                  LXL0    I
        35 027716   000000 630410 xsym               EPPR0   PAGE_FORMAT,X0
        35 027717   001012 450400 0                  STP0    PROC$+2
        35 027720   001012 630400 0                  EPPR0   PROC$+2
        35 027721   000036 631400 36                 EPPR1   30
        35 027722   000000 701000 xent               TSX1    Z8ED$DISPOSE_ABSSYN_TREE
        35 027723   000000 011000                    NOP     0

     4897    36143    3      END;

  36143 35 027724   000647 054000 0                  AOS     I
        35 027725   000647 235000 0                  LDA     I
        35 027726   000003 115007                    CMPA    3,DL
        35 027727   027715 604400 35                 TMOZ    s:36142

     4898    36144
     4899    36145
     4900    36146    2    END REPORT_PAGE_FORMAT;

  36146 35 027730   000644 221200 0                  LDX1  ! STRING_LENGTH+1
        35 027731   000001 702211                    TSX2  ! 1,X1

     4901    36147         %EJECT;
PL6.E3A0      #001=Z8EM$SEMANTICS_DATA_DIV File=Z8EM.:Z8A6TSI                    SAT 08/09/97 12:08 Page:925
     4902    36148        /*=====*/
     4903    36149    1     RERUN: PROC (INT$, FILE$);

  36149 35 027732   000656 741200 0     RERUN        STX1  ! CASE_NO+1

     4904    36150        /*=====*/
     4905    36151
     4906    36152    2        DCL INT$          PTR;
     4907    36153    2        DCL FILE$         PTR;
     4908    36154
     4909    36155    2        DCL ST$$          PTR;
     4910    36156    2        DCL INT           SBIN;
     4911    36157    2        DCL LTS$$         PTR;
     4912    36158    2        DCL DNT$$         PTR;
     4913    36159
     4914    36160
     4915    36161    2        CALL Z8DO$QUALIFY_TERMINAL (FILE$, ST$$)

  36161 35 027733   000531 236000 36                 LDQ     345
        35 027734   000660 235000 0                  LDA     @FILE$
        35 027735   001012 757000 0                  STAQ    PROC$+2
        35 027736   001012 630400 0                  EPPR0   PROC$+2
        35 027737   000025 631400 36                 EPPR1   21
        35 027740   000000 701000 xent               TSX1    Z8DO$QUALIFY_TERMINAL
        35 027741   027743 702000 35                 TSX2    s:36164
        35 027742   027745 710000 35                 TRA     s:36167

     4916    36162    2          WHENALTRETURN
     4917    36163    3            DO;

     4918    36164    3              RETURN;

  36164 35 027743   000656 221200 0                  LDX1  ! CASE_NO+1
        35 027744   000001 702211                    TSX2  ! 1,X1

     4919    36165    3            END;
     4920    36166
PL6.E3A0      #001=Z8EM$SEMANTICS_DATA_DIV File=Z8EM.:Z8A6TSI                    SAT 08/09/97 12:08 Page:926
     4921    36167    3        IF ST$$ -> FD.ID ~= %FD THEN DO;

  36167 35 027745   000661 470400 0                  LDP0    ST$$
        35 027746   000000 220100                    LDX0    0,,PR0
        35 027747   001002 100003                    CMPX0   514,DU
        35 027750   027772 600000 35                 TZE     s:36205

     4922    36168               /* You can't RERUN on this. It isn't a file. */
     4923    36169    3          DNT$$ = DNT$_FROM_RSWNO (%RSV_WRD_FD);

  36169 35 027751   000313 236000 xsym               LDQ     DNT$_FROM_RSWNO+203
        35 027752   000664 756000 0                  STQ     DNT$$

     4924    36170               %CONDITIONAL_ERROR (@LX_ITEM$ = FILE$,
     4925    36171                                   @ERROR# = %E$FILE_TYPE_EXPECTED,
     4926    36172                                   @PLUG1 = DNT$$);

  36182 35 027753   000660 471400 0                  LDP1    @FILE$
        35 027754   100000 473500                    LDP3    0,,PR1
        35 027755   300000 236100                    LDQ     0,,PR3
        35 027756   400000 316007                    CANQ    -131072,DL
        35 027757   027770 601000 35                 TNZ     s:36202

  36184 35 027760   000532 630400 36                 EPPR0   346
        35 027761   000005 631400 36                 EPPR1   5
        35 027762   000000 701000 xent               TSX1    Z8AE$ERROR
        35 027763   000000 011000                    NOP     0

  36193 35 027764   000660 470400 0                  LDP0    @FILE$
        35 027765   000000 471500                    LDP1    0,,PR0
        35 027766   400000 236007                    LDQ     -131072,DL
        35 027767   100000 256100                    ORSQ    0,,PR1

     4927    36202    3          RETURN;

  36202 35 027770   000656 221200 0                  LDX1  ! CASE_NO+1
        35 027771   000001 702211                    TSX2  ! 1,X1
PL6.E3A0      #001=Z8EM$SEMANTICS_DATA_DIV File=Z8EM.:Z8A6TSI                    SAT 08/09/97 12:08 Page:927

     4928    36203    3        END;
     4929    36204
     4930    36205    2        CALL CHARBIN (INT,

  36205 35 027772   000657 471400 0                  LDP1    @INT$
        35 027773   100000 473500                    LDP3    0,,PR1
        35 027774   300002 474500                    LDP4    2,,PR3
        35 027775   400004 221100                    LDX1    4,,PR4
        35 027776   000000 305540                    DTB
        35 027777   400004 430011                    NDSC9   4,,PR4                   cn=2,s=nosgn,sf=0,n=*X1
        35 030000   000662 000004 0                  NDSC9   INT                      cn=0,s=lsgnf,sf=0,n=4

     4931    36206    2                      INT$ -> LX_TERMINAL.DNT$ -> DNT.TEXT.NAME);
     4932    36207
     4933    36208             %GET_LTS (@ID      = %FILE_LTS,
     4934    36209                       @ST$     = ST$$,
     4935    36210                       @RETURN$ = LTS$$);

  36212 35 030001   000005 236100                    LDQ     5,,PR0
        35 030002   000024 116000 36                 CMPQ    20
        35 030003   030013 600000 35                 TZE     s:36246
        35 030004   000005 475500                    LDP5    5,,PR0
        35 030005   500000 222100                    LDX2    0,,PR5
        35 030006   001105 102003                    CMPX2   581,DU
        35 030007   030013 601000 35                 TNZ     s:36246

  36226 35 030010   500006 236100                    LDQ     6,,PR5
        35 030011   000663 756000 0                  STQ     LTS$$

  36244 35 030012   030025 710000 35                 TRA     s:36254

  36246 35 030013   000024 116000 36                 CMPQ    20
        35 030014   030023 600000 35                 TZE     s:36250
        35 030015   000005 475500                    LDP5    5,,PR0
        35 030016   500000 222100                    LDX2    0,,PR5
        35 030017   001121 102003                    CMPX2   593,DU
PL6.E3A0      #001=Z8EM$SEMANTICS_DATA_DIV File=Z8EM.:Z8A6TSI                    SAT 08/09/97 12:08 Page:928
        35 030020   030023 601000 35                 TNZ     s:36250

  36248 35 030021   000663 756000 0                  STQ     LTS$$
        35 030022   030025 710000 35                 TRA     s:36254

  36250 35 030023   000024 236000 36                 LDQ     20
        35 030024   000663 756000 0                  STQ     LTS$$

     4936    36253
     4937    36254    2        IF LTS$$ ~= ADDR(NIL) THEN

  36254 35 030025   000024 116000 36                 CMPQ    20
        35 030026   030100 600000 35                 TZE     s:36271

     4938    36255    3          DO;

     4939    36256    3            IF LTS$$ -> FILE_LTS.RERUN_NUM ~= 0

  36256 35 030027   000663 475400 0                  LDP5    LTS$$
        35 030030   500050 235100                    LDA     40,,PR5
        35 030031   030037 600000 35                 TZE     s:36259

     4940    36257    3              THEN CALL Z8AE$ERROR (%E$DUPLICATE_RERUN);

  36257 35 030032   000537 630400 36                 EPPR0   351
        35 030033   000036 631400 36                 EPPR1   30
        35 030034   000000 701000 xent               TSX1    Z8AE$ERROR
        35 030035   000000 011000                    NOP     0
        35 030036   030100 710000 35                 TRA     s:36271

     4941    36258    4              ELSE DO;

     4942    36259    4                LTS$$ -> FILE_LTS.RERUN_NUM = INT;

  36259 35 030037   000662 235000 0                  LDA     INT
        35 030040   500050 755100                    STA     40,,PR5

PL6.E3A0      #001=Z8EM$SEMANTICS_DATA_DIV File=Z8EM.:Z8A6TSI                    SAT 08/09/97 12:08 Page:929
     4943    36260    4                IF COMCOM.OB.FIPS.LEVEL >= %INT_LEV THEN

  36260 35 030041   000036 720000 xsym               LXL0    COMCOM+30
        35 030042   000002 100003                    CMPX0   2,DU
        35 030043   030061 604000 35                 TMI     s:36264

     4944    36261    4                  CALL Z8AE$ERROR (%E$LEVEL_CHECK,

  36261 35 030044   000151 236000 xsym               LDQ     O1COM+105
        35 030045   000025 736000                    QLS     21
        35 030046   000540 036000 36                 ADLQ    352
        35 030047   001014 756000 0                  STQ     PROC$+4
        35 030050   000151 236000 xsym               LDQ     O1COM+105
        35 030051   000025 736000                    QLS     21
        35 030052   000541 036000 36                 ADLQ    353
        35 030053   000004 235000 36                 LDA     4
        35 030054   001012 757000 0                  STAQ    PROC$+2
        35 030055   001012 630400 0                  EPPR0   PROC$+2
        35 030056   000000 631400 36                 EPPR1   0
        35 030057   000000 701000 xent               TSX1    Z8AE$ERROR
        35 030060   000000 011000                    NOP     0

     4945    36262    4                                   O1COM.LX_STK.LINE(O1COM.LX_TOP - 6),
     4946    36263    4                                   O1COM.LX_STK.COLUMN(O1COM.LX_TOP - 6));
     4947    36264    4                IF COMCOM.OB.FIPS.OBS THEN

  36264 35 030061   000036 234000 xsym               SZN     COMCOM+30
        35 030062   030100 605000 35                 TPL     s:36271

     4948    36265    4                  CALL Z8AE$ERROR (%E$OBSOLETE,

  36265 35 030063   000151 236000 xsym               LDQ     O1COM+105
        35 030064   000025 736000                    QLS     21
        35 030065   000540 036000 36                 ADLQ    352
        35 030066   001014 756000 0                  STQ     PROC$+4
        35 030067   000151 236000 xsym               LDQ     O1COM+105
        35 030070   000025 736000                    QLS     21
PL6.E3A0      #001=Z8EM$SEMANTICS_DATA_DIV File=Z8EM.:Z8A6TSI                    SAT 08/09/97 12:08 Page:930
        35 030071   000541 036000 36                 ADLQ    353
        35 030072   000543 235000 36                 LDA     355
        35 030073   001012 757000 0                  STAQ    PROC$+2
        35 030074   001012 630400 0                  EPPR0   PROC$+2
        35 030075   000000 631400 36                 EPPR1   0
        35 030076   000000 701000 xent               TSX1    Z8AE$ERROR
        35 030077   000000 011000                    NOP     0

     4949    36266    4                                   O1COM.LX_STK.LINE(O1COM.LX_TOP - 6),
     4950    36267    4                                   O1COM.LX_STK.COLUMN(O1COM.LX_TOP - 6));
     4951    36268    4              END;

     4952    36269    3          END;

     4953    36270
     4954    36271    2   END RERUN;

  36271 35 030100   000656 221200 0                  LDX1  ! CASE_NO+1
        35 030101   000001 702211                    TSX2  ! 1,X1

     4955    36272        %EJECT;
PL6.E3A0      #001=Z8EM$SEMANTICS_DATA_DIV File=Z8EM.:Z8A6TSI                    SAT 08/09/97 12:08 Page:931
     4956    36273        /*===============*/
     4957    36274    1     RESERVE_#_AREAS: PROC (NO_AREAS$);

  36274 35 030102   000665 741200 0     RESERVE_#_A* STX1  ! DNT$$+1

     4958    36275        /*===============*/
     4959    36276
     4960    36277             /* Functions performed:
     4961    36278                  1. Check for duplicate access clauses.
     4962    36279                  2. Update FILE_LTS item.
     4963    36280             */
     4964    36281
     4965    36282    2        DCL NO_AREAS$             PTR;
     4966    36283
     4967    36284
     4968    36285    3        IF O1COM.CURRENT_FILE_LTS$ -> FILE_LTS.NO_OF_AREAS = -1 THEN DO;

  36285 35 030103   000045 470400 xsym               LDP0    O1COM+37
        35 030104   000005 235100                    LDA     5,,PR0
        35 030105   000251 115000 36                 CMPA    169
        35 030106   030140 601000 35                 TNZ     s:36308

     4969    36286    3          IF COMCOM.OB.FIPS.LEVEL >= %INT_LEV THEN

  36286 35 030107   000036 720000 xsym               LXL0    COMCOM+30
        35 030110   000002 100003                    CMPX0   2,DU
        35 030111   030127 604000 35                 TMI     s:36290

     4970    36287    3            CALL Z8AE$ERROR (%E$LEVEL_CHECK,

  36287 35 030112   000151 236000 xsym               LDQ     O1COM+105
        35 030113   000025 736000                    QLS     21
        35 030114   000544 036000 36                 ADLQ    356
        35 030115   001014 756000 0                  STQ     PROC$+4
        35 030116   000151 236000 xsym               LDQ     O1COM+105
        35 030117   000025 736000                    QLS     21
        35 030120   000545 036000 36                 ADLQ    357
PL6.E3A0      #001=Z8EM$SEMANTICS_DATA_DIV File=Z8EM.:Z8A6TSI                    SAT 08/09/97 12:08 Page:932
        35 030121   000004 235000 36                 LDA     4
        35 030122   001012 757000 0                  STAQ    PROC$+2
        35 030123   001012 630400 0                  EPPR0   PROC$+2
        35 030124   000000 631400 36                 EPPR1   0
        35 030125   000000 701000 xent               TSX1    Z8AE$ERROR
        35 030126   000000 011000                    NOP     0

     4971    36288    3                             O1COM.LX_STK.LINE(O1COM.LX_TOP - 2),
     4972    36289    3                             O1COM.LX_STK.COLUMN(O1COM.LX_TOP - 2));
     4973    36290    3          CALL CHARBIN (O1COM.CURRENT_FILE_LTS$ -> FILE_LTS.NO_OF_AREAS,

  36290 35 030127   000666 470400 0                  LDP0    @NO_AREAS$
        35 030130   000000 471500                    LDP1    0,,PR0
        35 030131   100002 473500                    LDP3    2,,PR1
        35 030132   300004 220100                    LDX0    4,,PR3
        35 030133   000045 474400 xsym               LDP4    O1COM+37
        35 030134   000100 305540                    DTB
        35 030135   300004 430010                    NDSC9   4,,PR3                   cn=2,s=nosgn,sf=0,n=*X0
        35 030136   400005 000004                    NDSC9   5,,PR4                   cn=0,s=lsgnf,sf=0,n=4

     4974    36291    3                        NO_AREAS$ -> LX_TERMINAL.DNT$ -> DNT.TEXT.NAME);
     4975    36292    3        END;

  36292 35 030137   030165 710000 35                 TRA     s:36329

     4976    36293    2        ELSE
     4977    36294               %CONDITIONAL_ERROR (@LX_ITEM$ = NO_AREAS$,
     4978    36295                                   @ERROR#   = %E$DUP_DD_CLAUSE,
     4979    36296                                   @LINE     = NO_AREAS$ -> LX_TERMINAL.LINE,
     4980    36297                                   @COLUMN   = NO_AREAS$ -> LX_TERMINAL.COLUMN,
     4981    36298                                   @PLUG1    = "DNT$_FROM_RSWNO(%RSV_WRD_RESERVE)");

  36308 35 030140   000666 471400 0                  LDP1    @NO_AREAS$
        35 030141   100000 473500                    LDP3    0,,PR1
        35 030142   300000 236100                    LDQ     0,,PR3
        35 030143   400000 316007                    CANQ    -131072,DL
        35 030144   030165 601000 35                 TNZ     s:36329
PL6.E3A0      #001=Z8EM$SEMANTICS_DATA_DIV File=Z8EM.:Z8A6TSI                    SAT 08/09/97 12:08 Page:933

  36310 35 030145   000546 236000 36                 LDQ     358
        35 030146   001015 756000 0                  STQ     PROC$+5
        35 030147   300006 634500                    EPPR4   6,,PR3
        35 030150   001014 454400 0                  STP4    PROC$+4
        35 030151   300005 635500                    EPPR5   5,,PR3
        35 030152   001013 455400 0                  STP5    PROC$+3
        35 030153   000010 236000 36                 LDQ     8
        35 030154   001012 756000 0                  STQ     PROC$+2
        35 030155   001012 630400 0                  EPPR0   PROC$+2
        35 030156   000005 631400 36                 EPPR1   5
        35 030157   000000 701000 xent               TSX1    Z8AE$ERROR
        35 030160   000000 011000                    NOP     0

  36319 35 030161   000666 470400 0                  LDP0    @NO_AREAS$
        35 030162   000000 471500                    LDP1    0,,PR0
        35 030163   400000 236007                    LDQ     -131072,DL
        35 030164   100000 256100                    ORSQ    0,,PR1

     4982    36328
     4983    36329    2   END RESERVE_#_AREAS;

  36329 35 030165   000665 221200 0                  LDX1  ! DNT$$+1
        35 030166   000001 702211                    TSX2  ! 1,X1

     4984    36330        %EJECT;
PL6.E3A0      #001=Z8EM$SEMANTICS_DATA_DIV File=Z8EM.:Z8A6TSI                    SAT 08/09/97 12:08 Page:934
     4985    36331        /*=========*/
     4986    36332    1     SAME_AREA: PROC (FILE_LIST$, UNIT$);

  36332 35 030167   000667 741200 0     SAME_AREA    STX1  ! @NO_AREAS$+1

     4987    36333        /*=========*/
     4988    36334
     4989    36335    2        DCL FILE_LIST$           PTR;
     4990    36336    2        DCL UNIT$                PTR;
     4991    36337
     4992    36338    2        DCL HEAD$                PTR;
     4993    36339    2        DCL LAST$                PTR;
     4994    36340    2        DCL LIST$                PTR;
     4995    36341    2        DCL FD$$                 PTR;
     4996    36342    2        DCL LTS$$                PTR;
     4997    36343
     4998    36344
     4999    36345
     5000    36346    2        LIST$ = FILE_LIST$ -> LX_LIST.HEAD$;

  36346 35 030170   000670 470400 0                  LDP0    @FILE_LIST$
        35 030171   000000 471500                    LDP1    0,,PR0
        35 030172   100004 236100                    LDQ     4,,PR1
        35 030173   000674 756000 0                  STQ     LIST$

     5001    36347
     5002    36348    2        IF FILE_LIST$ -> LX_LIST.COUNT = 1 THEN

  36348 35 030174   000000 471500                    LDP1    0,,PR0
        35 030175   100002 235100                    LDA     2,,PR1
        35 030176   000001 115007                    CMPA    1,DL
        35 030177   030234 601000 35                 TNZ     s:36388

     5003    36349    3          DO;

     5004    36350                 %CONDITIONAL_ERROR (@LX_ITEM$ = LIST$,
     5005    36351                                     @ERROR#   = %E$2_FILES_REQUIRED,
PL6.E3A0      #001=Z8EM$SEMANTICS_DATA_DIV File=Z8EM.:Z8A6TSI                    SAT 08/09/97 12:08 Page:935
     5006    36352                                     @LINE     = LIST$ -> LX_ITEM.LINE,
     5007    36353                                     @COLUMN   = LIST$ -> LX_ITEM.COLUMN);

  36363 35 030200   000674 473400 0                  LDP3    LIST$
        35 030201   300000 236100                    LDQ     0,,PR3
        35 030202   400000 316007                    CANQ    -131072,DL
        35 030203   030222 601000 35                 TNZ     s:36384

  36365 35 030204   000674 236000 0                  LDQ     LIST$
        35 030205   000006 036003                    ADLQ    6,DU
        35 030206   001014 756000 0                  STQ     PROC$+4
        35 030207   000674 236000 0                  LDQ     LIST$
        35 030210   000005 036003                    ADLQ    5,DU
        35 030211   000550 235000 36                 LDA     360
        35 030212   001012 757000 0                  STAQ    PROC$+2
        35 030213   001012 630400 0                  EPPR0   PROC$+2
        35 030214   000000 631400 36                 EPPR1   0
        35 030215   000000 701000 xent               TSX1    Z8AE$ERROR
        35 030216   000000 011000                    NOP     0

  36374 35 030217   000674 470400 0                  LDP0    LIST$
        35 030220   400000 236007                    LDQ     -131072,DL
        35 030221   000000 256100                    ORSQ    0,,PR0

     5008    36383
     5009    36384    3            CALL Z8ED$DISPOSE_ABSSYN_TREE (FILE_LIST$ -> LX_LIST.HEAD$);

  36384 35 030222   000670 470400 0                  LDP0    @FILE_LIST$
        35 030223   000000 471500                    LDP1    0,,PR0
        35 030224   100004 633500                    EPPR3   4,,PR1
        35 030225   001012 453400 0                  STP3    PROC$+2
        35 030226   001012 630400 0                  EPPR0   PROC$+2
        35 030227   000036 631400 36                 EPPR1   30
        35 030230   000000 701000 xent               TSX1    Z8ED$DISPOSE_ABSSYN_TREE
        35 030231   000000 011000                    NOP     0

     5010    36385    3            RETURN;
PL6.E3A0      #001=Z8EM$SEMANTICS_DATA_DIV File=Z8EM.:Z8A6TSI                    SAT 08/09/97 12:08 Page:936

  36385 35 030232   000667 221200 0                  LDX1  ! @NO_AREAS$+1
        35 030233   000001 702211                    TSX2  ! 1,X1

     5011    36386    3          END;
     5012    36387
     5013    36388    2        LAST$ = ADDR(NIL);

  36388 35 030234   000024 236000 36                 LDQ     20
        35 030235   000673 756000 0                  STQ     LAST$

     5014    36389    2        HEAD$ = ADDR(NIL);

  36389 35 030236   000672 756000 0                  STQ     HEAD$

     5015    36390
     5016    36391    3        DO WHILE (LIST$ ~= ADDR(NIL));

  36391 35 030237   030547 710000 35                 TRA     s:36622

     5017    36392    3          CALL Z8DO$QUALIFY_TERMINAL (LIST$, FD$$)

  36392 35 030240   000551 630400 36                 EPPR0   361
        35 030241   000025 631400 36                 EPPR1   21
        35 030242   000000 701000 xent               TSX1    Z8DO$QUALIFY_TERMINAL
        35 030243   030245 702000 35                 TSX2    s:36395
        35 030244   030246 710000 35                 TRA     s:36398

     5018    36393    3            WHENALTRETURN
     5019    36394    4              DO;

     5020    36395    4                GOTO NEXT_FILE;

  36395 35 030245   030544 710000 35                 TRA     NEXT_FILE

     5021    36396    4              END;
     5022    36397
PL6.E3A0      #001=Z8EM$SEMANTICS_DATA_DIV File=Z8EM.:Z8A6TSI                    SAT 08/09/97 12:08 Page:937
     5023    36398    4          DO CASE (FD$$ -> FD.ID);

  36398 35 030246   000675 470400 0                  LDP0    FD$$
        35 030247   000000 236100                    LDQ     0,,PR0
        35 030250   000022 772000                    QRL     18
        35 030251   001002 136007                    SBLQ    514,DL
        35 030252   000004 116007                    CMPQ    4,DL
        35 030253   030255 602006 35                 TNC     s:36398+7,QL
        35 030254   030261 710000 35                 TRA     s:36423
        35 030255   030307 710000 35                 TRA     s:36451
        35 030256   030307 710000 35                 TRA     s:36451
        35 030257   030261 710000 35                 TRA     s:36423
        35 030260   030307 710000 35                 TRA     s:36451

     5024    36399    4            CASE(

     5025    36400                      %SET_OF_FILE_DESCRIPTIONS;
     5026    36405    4                );
     5027    36406    4              /* ALL OK */;
     5028    36407
     5029    36408    4            CASE (ELSE);

     5030    36409                   %CONDITIONAL_ERROR (@LX_ITEM$ = LIST$,
     5031    36410                                       @ERROR#   = %E$FILE_NOT_DEFINED,
     5032    36411                                       @LINE     = LIST$ -> LX_ITEM.LINE,
     5033    36412                                       @COLUMN   = LIST$ -> LX_ITEM.COLUMN,
     5034    36413                                       @PLUG1    = LIST$ -> LX_ITEM.DNT$);

  36423 35 030261   000674 471400 0                  LDP1    LIST$
        35 030262   100000 236100                    LDQ     0,,PR1
        35 030263   400000 316007                    CANQ    -131072,DL
        35 030264   030306 601000 35                 TNZ     s:36444

  36425 35 030265   000674 236000 0                  LDQ     LIST$
        35 030266   000002 036003                    ADLQ    2,DU
        35 030267   001015 756000 0                  STQ     PROC$+5
        35 030270   000674 236000 0                  LDQ     LIST$
PL6.E3A0      #001=Z8EM$SEMANTICS_DATA_DIV File=Z8EM.:Z8A6TSI                    SAT 08/09/97 12:08 Page:938
        35 030271   000006 036003                    ADLQ    6,DU
        35 030272   001014 756000 0                  STQ     PROC$+4
        35 030273   000674 236000 0                  LDQ     LIST$
        35 030274   000005 036003                    ADLQ    5,DU
        35 030275   000554 235000 36                 LDA     364
        35 030276   001012 757000 0                  STAQ    PROC$+2
        35 030277   001012 630400 0                  EPPR0   PROC$+2
        35 030300   000005 631400 36                 EPPR1   5
        35 030301   000000 701000 xent               TSX1    Z8AE$ERROR
        35 030302   000000 011000                    NOP     0

  36434 35 030303   000674 470400 0                  LDP0    LIST$
        35 030304   400000 236007                    LDQ     -131072,DL
        35 030305   000000 256100                    ORSQ    0,,PR0

     5035    36443
     5036    36444    4              GOTO NEXT_FILE;

  36444 35 030306   030544 710000 35                 TRA     NEXT_FILE

     5037    36445    4          END; /* Case */

     5038    36446
     5039    36447               %GET_LTS (@ID       = %FILE_LTS,
     5040    36448                         @ST$      = FD$$,
     5041    36449                         @RETURN$  = LTS$$);

  36451 35 030307   000005 236100                    LDQ     5,,PR0
        35 030310   000024 116000 36                 CMPQ    20
        35 030311   030321 600000 35                 TZE     s:36485
        35 030312   000005 471500                    LDP1    5,,PR0
        35 030313   100000 220100                    LDX0    0,,PR1
        35 030314   001105 100003                    CMPX0   581,DU
        35 030315   030321 601000 35                 TNZ     s:36485

  36465 35 030316   100006 236100                    LDQ     6,,PR1
        35 030317   000676 756000 0                  STQ     LTS$$
PL6.E3A0      #001=Z8EM$SEMANTICS_DATA_DIV File=Z8EM.:Z8A6TSI                    SAT 08/09/97 12:08 Page:939

  36483 35 030320   030333 710000 35                 TRA     s:36493

  36485 35 030321   000024 116000 36                 CMPQ    20
        35 030322   030331 600000 35                 TZE     s:36489
        35 030323   000005 471500                    LDP1    5,,PR0
        35 030324   100000 220100                    LDX0    0,,PR1
        35 030325   001121 100003                    CMPX0   593,DU
        35 030326   030331 601000 35                 TNZ     s:36489

  36487 35 030327   000676 756000 0                  STQ     LTS$$
        35 030330   030333 710000 35                 TRA     s:36493

  36489 35 030331   000024 236000 36                 LDQ     20
        35 030332   000676 756000 0                  STQ     LTS$$

     5042    36492
     5043    36493    4          DO SELECT (UNIT$ -> LX_TERMINAL.SYMBOL);

  36493 35 030333   000671 471400 0                  LDP1    @UNIT$
        35 030334   100000 473500                    LDP3    0,,PR1
        35 030335   300003 236100                    LDQ     3,,PR3
        35 030336   000554 116007                    CMPQ    364,DL
        35 030337   030347 604000 35                 TMI     s:36493+12
        35 030340   030352 600000 35                 TZE     s:36495
        35 030341   000644 116007                    CMPQ    420,DL
        35 030342   030544 604000 35                 TMI     NEXT_FILE
        35 030343   030444 600000 35                 TZE     s:36553
        35 030344   000645 116007                    CMPQ    421,DL
        35 030345   030544 601000 35                 TNZ     NEXT_FILE
        35 030346   030444 710000 35                 TRA     s:36553
        35 030347   000000 116003                    CMPQ    0,DU
        35 030350   030544 601000 35                 TNZ     NEXT_FILE
        35 030351   030444 710000 35                 TRA     s:36553

     5044    36494    4            SELECT (%RSV_WRD_RECORD);

PL6.E3A0      #001=Z8EM$SEMANTICS_DATA_DIV File=Z8EM.:Z8A6TSI                    SAT 08/09/97 12:08 Page:940
     5045    36495    4              IF LTS$$ -> FILE_LTS.B.SAME_RECORD THEN

  36495 35 030352   000676 474400 0                  LDP4    LTS$$
        35 030353   400017 236100                    LDQ     15,,PR4
        35 030354   100000 316007                    CANQ    32768,DL
        35 030355   030404 600000 35                 TZE     s:36534

     5046    36496    5                DO;

     5047    36497                       %CONDITIONAL_ERROR (@LX_ITEM$ = LIST$,
     5048    36498                                           @ERROR#   = %E$FILE_IN_SAME_CLAUSE_TWICE,
     5049    36499                                           @LINE     = LIST$ -> LX_ITEM.LINE,
     5050    36500                                           @COLUMN   = LIST$ -> LX_ITEM.COLUMN,
     5051    36501                                           @PLUG1    = LIST$ -> LX_ITEM.DNT$);

  36511 35 030356   000674 475400 0                  LDP5    LIST$
        35 030357   500000 236100                    LDQ     0,,PR5
        35 030360   400000 316007                    CANQ    -131072,DL
        35 030361   030403 601000 35                 TNZ     s:36531

  36513 35 030362   000674 236000 0                  LDQ     LIST$
        35 030363   000002 036003                    ADLQ    2,DU
        35 030364   001015 756000 0                  STQ     PROC$+5
        35 030365   000674 236000 0                  LDQ     LIST$
        35 030366   000006 036003                    ADLQ    6,DU
        35 030367   001014 756000 0                  STQ     PROC$+4
        35 030370   000674 236000 0                  LDQ     LIST$
        35 030371   000005 036003                    ADLQ    5,DU
        35 030372   000556 235000 36                 LDA     366
        35 030373   001012 757000 0                  STAQ    PROC$+2
        35 030374   001012 630400 0                  EPPR0   PROC$+2
        35 030375   000005 631400 36                 EPPR1   5
        35 030376   000000 701000 xent               TSX1    Z8AE$ERROR
        35 030377   000000 011000                    NOP     0

  36522 35 030400   000674 470400 0                  LDP0    LIST$
        35 030401   400000 236007                    LDQ     -131072,DL
PL6.E3A0      #001=Z8EM$SEMANTICS_DATA_DIV File=Z8EM.:Z8A6TSI                    SAT 08/09/97 12:08 Page:941
        35 030402   000000 256100                    ORSQ    0,,PR0

     5052    36531    5                  GOTO NEXT_FILE;

  36531 35 030403   030544 710000 35                 TRA     NEXT_FILE

     5053    36532    5                END;
     5054    36533
     5055    36534    4              IF HEAD$ = ADDR(NIL) THEN

  36534 35 030404   000672 236000 0                  LDQ     HEAD$
        35 030405   000024 116000 36                 CMPQ    20
        35 030406   030433 601000 35                 TNZ     s:36545

     5056    36535    5                DO;

     5057    36536    5                  LAST$ = LTS$$;

  36536 35 030407   000676 236000 0                  LDQ     LTS$$
        35 030410   000673 756000 0                  STQ     LAST$

     5058    36537    5                  HEAD$ = LTS$$;

  36537 35 030411   000672 756000 0                  STQ     HEAD$

     5059    36538    5                  IF COMCOM.OB.FIPS.LEVEL >= %INT_LEV THEN

  36538 35 030412   000036 720000 xsym               LXL0    COMCOM+30
        35 030413   000002 100003                    CMPX0   2,DU
        35 030414   030440 604000 35                 TMI     s:36550

     5060    36539    5                    CALL Z8AE$ERROR (%E$LEVEL_CHECK,

  36539 35 030415   000151 236000 xsym               LDQ     O1COM+105
        35 030416   000025 736000                    QLS     21
        35 030417   000557 036000 36                 ADLQ    367
        35 030420   001014 756000 0                  STQ     PROC$+4
PL6.E3A0      #001=Z8EM$SEMANTICS_DATA_DIV File=Z8EM.:Z8A6TSI                    SAT 08/09/97 12:08 Page:942
        35 030421   000151 236000 xsym               LDQ     O1COM+105
        35 030422   000025 736000                    QLS     21
        35 030423   000560 036000 36                 ADLQ    368
        35 030424   000004 235000 36                 LDA     4
        35 030425   001012 757000 0                  STAQ    PROC$+2
        35 030426   001012 630400 0                  EPPR0   PROC$+2
        35 030427   000000 631400 36                 EPPR1   0
        35 030430   000000 701000 xent               TSX1    Z8AE$ERROR
        35 030431   000000 011000                    NOP     0

     5061    36540    5                                     O1COM.LX_STK.LINE(O1COM.LX_TOP - 5),
     5062    36541    5                                     O1COM.LX_STK.COLUMN(O1COM.LX_TOP - 5));
     5063    36542    5                END;

  36542 35 030432   030440 710000 35                 TRA     s:36550

     5064    36543    4              ELSE
     5065    36544    5                DO;

     5066    36545    5                  LTS$$ -> FILE_LTS.SAME_RECORD.HEAD$ = HEAD$;

  36545 35 030433   400042 756100                    STQ     34,,PR4

     5067    36546    5                  LAST$ -> FILE_LTS.SAME_RECORD.LINK = LTS$$;

  36546 35 030434   000676 236000 0                  LDQ     LTS$$
        35 030435   000673 470400 0                  LDP0    LAST$
        35 030436   000043 756100                    STQ     35,,PR0

     5068    36547    5                  LAST$ = LTS$$;

  36547 35 030437   000673 756000 0                  STQ     LAST$

     5069    36548    5                END;

     5070    36549
     5071    36550    4              LTS$$ -> FILE_LTS.B.SAME_RECORD = TRUE;
PL6.E3A0      #001=Z8EM$SEMANTICS_DATA_DIV File=Z8EM.:Z8A6TSI                    SAT 08/09/97 12:08 Page:943

  36550 35 030440   000676 470400 0                  LDP0    LTS$$
        35 030441   100000 236007                    LDQ     32768,DL
        35 030442   000017 256100                    ORSQ    15,,PR0
        35 030443   030544 710000 35                 TRA     NEXT_FILE

     5072    36551
     5073    36552    4            SELECT (%EMPTY, %RSV_WRD_SORT, %RSV_WRD_SORT_MERGE);

     5074    36553    4              IF UNIT$ -> LX_TERMINAL.SYMBOL ~= %EMPTY THEN

  36553 35 030444   000000 116003                    CMPQ    0,DU
        35 030445   030452 600000 35                 TZE     s:36556

     5075    36554    4                CALL SORT_DESC_CHECK (UNIT$);

  36554 35 030446   000671 236000 0                  LDQ     @UNIT$
        35 030447   000724 756000 0                  STQ     ST$$+2
        35 030450   031215 701000 35                 TSX1    SORT_DESC_CHECK
        35 030451   000000 011000                    NOP     0

     5076    36555
     5077    36556    4              IF (LTS$$ -> FILE_LTS.B.SAME_AREA

  36556 35 030452   000676 470400 0                  LDP0    LTS$$
        35 030453   000017 236100                    LDQ     15,,PR0
        35 030454   040000 316007                    CANQ    16384,DL
        35 030455   030462 600000 35                 TZE     s:36556+8
        35 030456   000671 471400 0                  LDP1    @UNIT$
        35 030457   100000 473500                    LDP3    0,,PR1
        35 030460   300003 235100                    LDA     3,,PR3
        35 030461   030470 600000 35                 TZE     s:36575
        35 030462   000400 316007                    CANQ    256,DL
        35 030463   030516 600000 35                 TZE     s:36598
        35 030464   000671 471400 0                  LDP1    @UNIT$
        35 030465   100000 473500                    LDP3    0,,PR1
        35 030466   300003 235100                    LDA     3,,PR3
PL6.E3A0      #001=Z8EM$SEMANTICS_DATA_DIV File=Z8EM.:Z8A6TSI                    SAT 08/09/97 12:08 Page:944
        35 030467   030516 600000 35                 TZE     s:36598

     5078    36557    4                  AND UNIT$ -> LX_TERMINAL.SYMBOL = %EMPTY)
     5079    36558    4              OR (LTS$$ -> FILE_LTS.B.SAME_SORT_AREA
     5080    36559    4                  AND UNIT$ -> LX_TERMINAL.SYMBOL ~= %EMPTY) THEN
     5081    36560    5                DO;

     5082    36561                       %CONDITIONAL_ERROR (@LX_ITEM$ = LIST$,
     5083    36562                                           @ERROR#   = %E$FILE_IN_SAME_CLAUSE_TWICE,
     5084    36563                                           @LINE     = LIST$ -> LX_ITEM.LINE,
     5085    36564                                           @COLUMN   = LIST$ -> LX_ITEM.COLUMN,
     5086    36565                                           @PLUG1    = LIST$ -> LX_ITEM.DNT$);

  36575 35 030470   000674 474400 0                  LDP4    LIST$
        35 030471   400000 236100                    LDQ     0,,PR4
        35 030472   400000 316007                    CANQ    -131072,DL
        35 030473   030515 601000 35                 TNZ     s:36595

  36577 35 030474   000674 236000 0                  LDQ     LIST$
        35 030475   000002 036003                    ADLQ    2,DU
        35 030476   001015 756000 0                  STQ     PROC$+5
        35 030477   000674 236000 0                  LDQ     LIST$
        35 030500   000006 036003                    ADLQ    6,DU
        35 030501   001014 756000 0                  STQ     PROC$+4
        35 030502   000674 236000 0                  LDQ     LIST$
        35 030503   000005 036003                    ADLQ    5,DU
        35 030504   000556 235000 36                 LDA     366
        35 030505   001012 757000 0                  STAQ    PROC$+2
        35 030506   001012 630400 0                  EPPR0   PROC$+2
        35 030507   000005 631400 36                 EPPR1   5
        35 030510   000000 701000 xent               TSX1    Z8AE$ERROR
        35 030511   000000 011000                    NOP     0

  36586 35 030512   000674 470400 0                  LDP0    LIST$
        35 030513   400000 236007                    LDQ     -131072,DL
        35 030514   000000 256100                    ORSQ    0,,PR0

PL6.E3A0      #001=Z8EM$SEMANTICS_DATA_DIV File=Z8EM.:Z8A6TSI                    SAT 08/09/97 12:08 Page:945
     5087    36595    5                  GOTO NEXT_FILE;

  36595 35 030515   030544 710000 35                 TRA     NEXT_FILE

     5088    36596    5                END;
     5089    36597
     5090    36598    4              IF HEAD$ = ADDR(NIL) THEN

  36598 35 030516   000672 236000 0                  LDQ     HEAD$
        35 030517   000024 116000 36                 CMPQ    20
        35 030520   030525 601000 35                 TNZ     s:36605

     5091    36599    5                DO;

     5092    36600    5                  LAST$ = LTS$$;

  36600 35 030521   000676 236000 0                  LDQ     LTS$$
        35 030522   000673 756000 0                  STQ     LAST$

     5093    36601    5                  HEAD$ = LTS$$;

  36601 35 030523   000672 756000 0                  STQ     HEAD$

     5094    36602    5                END;

  36602 35 030524   030532 710000 35                 TRA     s:36609

     5095    36603    4              ELSE
     5096    36604    5                DO;

     5097    36605    5                  LTS$$ -> FILE_LTS.SAME_AREA.HEAD$ = HEAD$;

  36605 35 030525   000044 756100                    STQ     36,,PR0

     5098    36606    5                  LAST$ -> FILE_LTS.SAME_AREA.LINK = LTS$$;

  36606 35 030526   000676 236000 0                  LDQ     LTS$$
PL6.E3A0      #001=Z8EM$SEMANTICS_DATA_DIV File=Z8EM.:Z8A6TSI                    SAT 08/09/97 12:08 Page:946
        35 030527   000673 471400 0                  LDP1    LAST$
        35 030530   100045 756100                    STQ     37,,PR1

     5099    36607    5                  LAST$ = LTS$$;

  36607 35 030531   000673 756000 0                  STQ     LAST$

     5100    36608    5                END;

     5101    36609    4              IF UNIT$ -> LX_TERMINAL.SYMBOL = %EMPTY THEN

  36609 35 030532   000671 471400 0                  LDP1    @UNIT$
        35 030533   100000 473500                    LDP3    0,,PR1
        35 030534   300003 235100                    LDA     3,,PR3
        35 030535   030541 601000 35                 TNZ     s:36612

     5102    36610    4                LTS$$ -> FILE_LTS.B.SAME_AREA = TRUE;

  36610 35 030536   040000 236007                    LDQ     16384,DL
        35 030537   000017 256100                    ORSQ    15,,PR0
        35 030540   030544 710000 35                 TRA     NEXT_FILE

     5103    36611    4              ELSE
     5104    36612    4                LTS$$ -> FILE_LTS.B.SAME_SORT_AREA = TRUE;

  36612 35 030541   000400 236007                    LDQ     256,DL
        35 030542   000017 256100                    ORSQ    15,,PR0
        35 030543   030544 710000 35                 TRA     NEXT_FILE

     5105    36613
     5106    36614
     5107    36615    4            SELECT (ELSE);

     5108    36616                   /*N* SORT AND SORT MERGE STUFF */
     5109    36617
     5110    36618    4          END; /* Case id */

PL6.E3A0      #001=Z8EM$SEMANTICS_DATA_DIV File=Z8EM.:Z8A6TSI                    SAT 08/09/97 12:08 Page:947
     5111    36619
     5112    36620    3   NEXT_FILE:
     5113    36621    3          LIST$ = LIST$ -> LX_ITEM.LINK;

  36621 35 030544   000674 470400 0     NEXT_FILE    LDP0    LIST$
        35 030545   000007 236100                    LDQ     7,,PR0
        35 030546   000674 756000 0                  STQ     LIST$

     5114    36622    3        END; /* While */

  36622 35 030547   000674 236000 0                  LDQ     LIST$
        35 030550   000024 116000 36                 CMPQ    20
        35 030551   030240 601000 35                 TNZ     s:36392

     5115    36623
     5116    36624    2        CALL Z8ED$DISPOSE_ABSSYN_TREE (FILE_LIST$ -> LX_LIST.HEAD$);

  36624 35 030552   000670 470400 0                  LDP0    @FILE_LIST$
        35 030553   000000 471500                    LDP1    0,,PR0
        35 030554   100004 633500                    EPPR3   4,,PR1
        35 030555   001012 453400 0                  STP3    PROC$+2
        35 030556   001012 630400 0                  EPPR0   PROC$+2
        35 030557   000036 631400 36                 EPPR1   30
        35 030560   000000 701000 xent               TSX1    Z8ED$DISPOSE_ABSSYN_TREE
        35 030561   000000 011000                    NOP     0

     5117    36625
     5118    36626    2   END SAME_AREA;

  36626 35 030562   000667 221200 0                  LDX1  ! @NO_AREAS$+1
        35 030563   000001 702211                    TSX2  ! 1,X1

     5119    36627        %EJECT;
PL6.E3A0      #001=Z8EM$SEMANTICS_DATA_DIV File=Z8EM.:Z8A6TSI                    SAT 08/09/97 12:08 Page:948
     5120    36628
     5121    36629         /*=================*/
     5122    36630    1      SAVE_CONTROL_LIST: PROC (QUAL_LIST$);

  36630 35 030564   000677 741200 0     SAVE_CONTRO* STX1  ! LTS$$+1

     5123    36631         /*=================*/
     5124    36632
     5125    36633
     5126    36634    2      DCL QUAL_LIST$          PTR;
     5127    36635    2      DCL DEFERED_ID$         PTR;
     5128    36636
     5129    36637
     5130    36638
     5131    36639           %NEW_HEAP (@POINTER      = DEFERED_ID$);

  36641 35 030565   000561 630400 36                 EPPR0   369
        35 030566   000025 631400 36                 EPPR1   21
        35 030567   000000 701000 xent               TSX1    Z8ED$NEW_HEAP
        35 030570   000000 011000                    NOP     0

     5132    36644
     5133    36645           %INIT_DEFERED_IDENTIFIER (@POINTER = DEFERED_ID$,
     5134    36646                      @DEFERED_ID$  = QUAL_LIST$,
     5135    36647                      @ASSOC_VAR_LTS$ = O1COM.CURRENT_REPORT_LTS$,
     5136    36648                      @LINK         = O1COM.CONTROL_LIST$);

  36650 35 030571   000030 220003                    LDX0    24,DU
        35 030572   000701 470400 0                  LDP0    DEFERED_ID$
        35 030573   000000 740100                    STX0    0,,PR0

  36651 35 030574   000700 470400 0                  LDP0    @QUAL_LIST$
        35 030575   000000 236100                    LDQ     0,,PR0
        35 030576   000701 471400 0                  LDP1    DEFERED_ID$
        35 030577   100001 756100                    STQ     1,,PR1

  36652 35 030600   000064 236000 xsym               LDQ     O1COM+52
PL6.E3A0      #001=Z8EM$SEMANTICS_DATA_DIV File=Z8EM.:Z8A6TSI                    SAT 08/09/97 12:08 Page:949
        35 030601   000701 471400 0                  LDP1    DEFERED_ID$
        35 030602   100002 756100                    STQ     2,,PR1

  36653 35 030603   000024 236000 36                 LDQ     20
        35 030604   000701 471400 0                  LDP1    DEFERED_ID$
        35 030605   100003 756100                    STQ     3,,PR1

  36654 35 030606   000133 235000 xsym               LDA     COMCOM+91
        35 030607   000701 471400 0                  LDP1    DEFERED_ID$
        35 030610   100005 755100                    STA     5,,PR1

  36655 35 030611   000134 235000 xsym               LDA     COMCOM+92
        35 030612   000701 471400 0                  LDP1    DEFERED_ID$
        35 030613   100006 755100                    STA     6,,PR1

  36656 35 030614   000102 236000 xsym               LDQ     O1COM+66
        35 030615   000701 471400 0                  LDP1    DEFERED_ID$
        35 030616   100007 756100                    STQ     7,,PR1

  36657 35 030617   000000 221003                    LDX1    0,DU
        35 030620   000701 471400 0                  LDP1    DEFERED_ID$
        35 030621   100000 441100                    SXL1    0,,PR1

  36658 35 030622   000701 471400 0                  LDP1    DEFERED_ID$
        35 030623   000104 236000 36                 LDQ     68
        35 030624   100000 356100                    ANSQ    0,,PR1

     5137    36661
     5138    36662    2      O1COM.CONTROL_LIST$ = DEFERED_ID$;

  36662 35 030625   000701 236000 0                  LDQ     DEFERED_ID$
        35 030626   000102 756000 xsym               STQ     O1COM+66

     5139    36663
     5140    36664    2    END SAVE_CONTROL_LIST;

  36664 35 030627   000677 221200 0                  LDX1  ! LTS$$+1
PL6.E3A0      #001=Z8EM$SEMANTICS_DATA_DIV File=Z8EM.:Z8A6TSI                    SAT 08/09/97 12:08 Page:950
        35 030630   000001 702211                    TSX2  ! 1,X1

     5141    36665          %EJECT;
PL6.E3A0      #001=Z8EM$SEMANTICS_DATA_DIV File=Z8EM.:Z8A6TSI                    SAT 08/09/97 12:08 Page:951
     5142    36666
     5143    36667        /*========*/
     5144    36668    1     SD_START: PROC (FILE$);

  36668 35 030631   000702 741200 0     SD_START     STX1  ! DEFERED_ID$+1

     5145    36669        /*========*/
     5146    36670
     5147    36671    2        DCL FILE$         PTR;
     5148    36672    2        DCL ST$$          PTR;
     5149    36673
     5150    36674
     5151    36675    2        CALL FD_START (FILE$);

  36675 35 030632   000703 236000 0                  LDQ     @FILE$
        35 030633   000316 756000 0                  STQ     @FILE$
        35 030634   010711 701000 35                 TSX1    FD_START
        35 030635   000000 011000                    NOP     0

     5152    36676
     5153    36677    2        O1COM.CURRENT_FILE_LTS$ -> FILE_LTS.ST$ -> ST.ID = %SD;

  36677 35 030636   000045 470400 xsym               LDP0    O1COM+37
        35 030637   000001 471500                    LDP1    1,,PR0
        35 030640   001003 220003                    LDX0    515,DU
        35 030641   100000 740100                    STX0    0,,PR1

     5154    36678    2        O1COM.DATA_DECL_CONTEXT = %SORT_DESCRIPTION;

  36678 35 030642   000002 235007                    LDA     2,DL
        35 030643   000015 755000 xsym               STA     O1COM+13

     5155    36679
     5156    36680    2        CALL INVALID_SD_CLAUSES (O1COM.CURRENT_FILE_LTS$);

  36680 35 030644   000243 236000 36                 LDQ     163
        35 030645   000344 756000 0                  STQ     @LTS$$
PL6.E3A0      #001=Z8EM$SEMANTICS_DATA_DIV File=Z8EM.:Z8A6TSI                    SAT 08/09/97 12:08 Page:952
        35 030646   011603 701000 35                 TSX1    INVALID_SD_CLAUSES
        35 030647   000000 011000                    NOP     0

     5157    36681
     5158    36682    2        O1COM.CURRENT_FILE_LTS$ -> FILE_LTS.ORGANIZATION = %SEQUENTIAL;

  36682 35 030650   000001 235007                    LDA     1,DL
        35 030651   000045 470400 xsym               LDP0    O1COM+37
        35 030652   000006 755100                    STA     6,,PR0

     5159    36683    2        O1COM.CURRENT_FILE_LTS$ -> FILE_LTS.ACCESS_MODE  = %SEQUENTIAL_ACCESS;

  36683 35 030653   000045 470400 xsym               LDP0    O1COM+37
        35 030654   000011 755100                    STA     9,,PR0

     5160    36684
     5161    36685    2   END SD_START;

  36685 35 030655   000702 221200 0                  LDX1  ! DEFERED_ID$+1
        35 030656   000001 702211                    TSX2  ! 1,X1

     5162    36686        %EJECT;
PL6.E3A0      #001=Z8EM$SEMANTICS_DATA_DIV File=Z8EM.:Z8A6TSI                    SAT 08/09/97 12:08 Page:953
     5163    36687        /*=================*/
     5164    36688    1     SELECT_CLAUSE_END: PROC ;

  36688 35 030657   000705 741200 0     SELECT_CLAU* STX1  ! ST$$+1

     5165    36689        /*=================*/
     5166    36690
     5167    36691             /* Functions performed:
     5168    36692                 1. Wrap up semantic checks except those dealing
     5169    36693                    with data-names.
     5170    36694                 2. Set Default values for file:
     5171    36695                        ORGANIZATION = SEQUENTIAL
     5172    36696                        ACCESS       = SEQUENTIAL
     5173    36697
     5174    36698                 3. Set O1COM.CURRENT_FILE_LTS$ to nil.
     5175    36699             */
     5176    36700
     5177    36701    2        DCL ST$$                 PTR;
     5178    36702    2        DCL DISK$                PTR;
     5179    36703    2        DCL ASSIGN$              PTR;
     5180    36704    2        DCL ORG                  SBIN;
     5181    36705    2        DCL ACCESS               SBIN;
     5182    36706    2        DCL FILE$                PTR;
     5183    36707    2        DCL NOM$                 PTR;
     5184    36708
     5185    36709
     5186    36710    2        ST$$ = O1COM.CURRENT_FILE_LTS$ -> FILE_LTS.ST$;

  36710 35 030660   000045 470400 xsym               LDP0    O1COM+37
        35 030661   000001 236100                    LDQ     1,,PR0
        35 030662   000706 756000 0                  STQ     ST$$

     5187    36711    2        FILE$ = O1COM.CURRENT_FILE_LTS$;

  36711 35 030663   000045 236000 xsym               LDQ     O1COM+37
        35 030664   000713 756000 0                  STQ     FILE$

PL6.E3A0      #001=Z8EM$SEMANTICS_DATA_DIV File=Z8EM.:Z8A6TSI                    SAT 08/09/97 12:08 Page:954
     5188    36712
     5189    36713    2        IF FILE$ -> FILE_LTS.ASSIGN$ = ADDR(NIL) THEN

  36713 35 030665   000713 471400 0                  LDP1    FILE$
        35 030666   100004 236100                    LDQ     4,,PR1
        35 030667   000024 116000 36                 CMPQ    20
        35 030670   030727 601000 35                 TNZ     s:36723

     5190    36714    3          DO;

     5191    36715    3            IF NOT ST$$ -> ST.DNT$ -> DNT.B.ERROR_VARIABLE  THEN

  36715 35 030671   000706 473400 0                  LDP3    ST$$
        35 030672   300006 474500                    LDP4    6,,PR3
        35 030673   400003 236100                    LDQ     3,,PR4
        35 030674   000100 316003                    CANQ    64,DU
        35 030675   030715 601000 35                 TNZ     s:36720

     5192    36716    3            CALL Z8AE$ERROR (%E$NO_ASSIGN_CLAUSE,

  36716 35 030676   300002 236100                    LDQ     2,,PR3
        35 030677   777777 376007                    ANQ     -1,DL
        35 030700   001012 756000 0                  STQ     PROC$+2
        35 030701   000706 236000 0                  LDQ     ST$$
        35 030702   000006 036003                    ADLQ    6,DU
        35 030703   000015 235000 36                 LDA     13
        35 030704   001016 757000 0                  STAQ    PROC$+6
        35 030705   001012 634400 0                  EPPR4   PROC$+2
        35 030706   001015 454400 0                  STP4    PROC$+5
        35 030707   000564 236000 36                 LDQ     372
        35 030710   001014 756000 0                  STQ     PROC$+4
        35 030711   001014 630400 0                  EPPR0   PROC$+4
        35 030712   000005 631400 36                 EPPR1   5
        35 030713   000000 701000 xent               TSX1    Z8AE$ERROR
        35 030714   000000 011000                    NOP     0

     5193    36717    3                             BINBIT(ST$$ -> FD.LINE_NO, 36), 0,
PL6.E3A0      #001=Z8EM$SEMANTICS_DATA_DIV File=Z8EM.:Z8A6TSI                    SAT 08/09/97 12:08 Page:955
     5194    36718    3                             ST$$ -> FD.DNT$);
     5195    36719
     5196    36720    3            CALL Z9EM$ASSIGN_RECOVERY (FILE$ -> FILE_LTS.ASSIGN$, ST$$ -> FD.DNT$);

  36720 35 030715   000706 236000 0                  LDQ     ST$$
        35 030716   000006 036003                    ADLQ    6,DU
        35 030717   001013 756000 0                  STQ     PROC$+3
        35 030720   000713 236000 0                  LDQ     FILE$
        35 030721   000004 036003                    ADLQ    4,DU
        35 030722   001012 756000 0                  STQ     PROC$+2
        35 030723   001012 630400 0                  EPPR0   PROC$+2
        35 030724   000025 631400 36                 EPPR1   21
        35 030725   000000 701000 xent               TSX1    Z9EM$ASSIGN_RECOVERY
        35 030726   000000 011000                    NOP     0

     5197    36721    3          END;

     5198    36722
     5199    36723    2        IF FILE$ -> FILE_LTS.ORGANIZATION = %NOT_SPECIFIED THEN

  36723 35 030727   000713 470400 0                  LDP0    FILE$
        35 030730   000006 235100                    LDA     6,,PR0
        35 030731   030735 601000 35                 TNZ     s:36726

     5200    36724    2          ORG = %SEQUENTIAL;

  36724 35 030732   000001 236007                    LDQ     1,DL
        35 030733   000711 756000 0                  STQ     ORG
        35 030734   030736 710000 35                 TRA     s:36728

     5201    36725    2        ELSE
     5202    36726    2          ORG = FILE$ -> FILE_LTS.ORGANIZATION;

  36726 35 030735   000711 755000 0                  STA     ORG

     5203    36727
     5204    36728    2        IF FILE$ -> FILE_LTS.ACCESS_MODE = %NOT_SPECIFIED THEN
PL6.E3A0      #001=Z8EM$SEMANTICS_DATA_DIV File=Z8EM.:Z8A6TSI                    SAT 08/09/97 12:08 Page:956

  36728 35 030736   000011 235100                    LDA     9,,PR0
        35 030737   030743 601000 35                 TNZ     s:36731

     5205    36729    2          ACCESS = %SEQUENTIAL_ACCESS;

  36729 35 030740   000001 236007                    LDQ     1,DL
        35 030741   000712 756000 0                  STQ     ACCESS
        35 030742   030744 710000 35                 TRA     s:36733

     5206    36730    2        ELSE
     5207    36731    2          ACCESS = FILE$ -> FILE_LTS.ACCESS_MODE;

  36731 35 030743   000712 755000 0                  STA     ACCESS

     5208    36732
     5209    36733    2        IF ORG = %RELATIVE THEN

  36733 35 030744   000711 236000 0                  LDQ     ORG
        35 030745   000002 116007                    CMPQ    2,DL
        35 030746   031042 601000 35                 TNZ     s:36793

     5210    36734    3          DO;

     5211    36735    3            IF FILE$ -> FILE_LTS.RELATIVE_KEY$ = ADDR(NIL) THEN

  36735 35 030747   000014 236100                    LDQ     12,,PR0
        35 030750   000024 116000 36                 CMPQ    20
        35 030751   031003 601000 35                 TNZ     s:36750

     5212    36736    4              DO;

     5213    36737    4                IF FILE$ -> FILE_LTS.NOMINAL_KEY$ ~= ADDR(NIL) THEN

  36737 35 030752   000020 236100                    LDQ     16,,PR0
        35 030753   000024 116000 36                 CMPQ    20
        35 030754   030761 600000 35                 TZE     s:36744
PL6.E3A0      #001=Z8EM$SEMANTICS_DATA_DIV File=Z8EM.:Z8A6TSI                    SAT 08/09/97 12:08 Page:957

     5214    36738    5                  DO;

     5215    36739    5                    FILE$ -> FILE_LTS.RELATIVE_KEY$ = FILE$ ->

  36739 35 030755   000014 756100                    STQ     12,,PR0

     5216    36740    5                                                      FILE_LTS.NOMINAL_KEY$;
     5217    36741    5                    FILE$ -> FILE_LTS.NOMINAL_KEY$ = ADDR(NIL);

  36741 35 030756   000024 236000 36                 LDQ     20
        35 030757   000020 756100                    STQ     16,,PR0

     5218    36742    5                  END;

  36742 35 030760   031042 710000 35                 TRA     s:36793

     5219    36743    4                ELSE
     5220    36744    4                  IF ACCESS ~= %SEQUENTIAL_ACCESS THEN

  36744 35 030761   000712 235000 0                  LDA     ACCESS
        35 030762   000001 115007                    CMPA    1,DL
        35 030763   031042 600000 35                 TZE     s:36793

     5221    36745    4                    CALL Z8AE$ERROR (%E$NO_KEY_SPECIFIED,

  36745 35 030764   000706 471400 0                  LDP1    ST$$
        35 030765   100002 236100                    LDQ     2,,PR1
        35 030766   777777 376007                    ANQ     -1,DL
        35 030767   001012 756000 0                  STQ     PROC$+2
        35 030770   000566 237000 36                 LDAQ    374
        35 030771   001016 757000 0                  STAQ    PROC$+6
        35 030772   001012 633400 0                  EPPR3   PROC$+2
        35 030773   001015 453400 0                  STP3    PROC$+5
        35 030774   000570 236000 36                 LDQ     376
        35 030775   001014 756000 0                  STQ     PROC$+4
        35 030776   001014 630400 0                  EPPR0   PROC$+4
PL6.E3A0      #001=Z8EM$SEMANTICS_DATA_DIV File=Z8EM.:Z8A6TSI                    SAT 08/09/97 12:08 Page:958
        35 030777   000005 631400 36                 EPPR1   5
        35 031000   000000 701000 xent               TSX1    Z8AE$ERROR
        35 031001   000000 011000                    NOP     0

     5222    36746    4                                     BINBIT(ST$$ -> FD.LINE_NO, 36), 0,
     5223    36747    4                                     DNT$_FROM_RSWNO(%RSV_WRD_RELATIVE));
     5224    36748    4              END;

  36748 35 031002   031042 710000 35                 TRA     s:36793

     5225    36749    3            ELSE
     5226    36750    3              IF FILE$ -> FILE_LTS.NOMINAL_KEY$ ~= ADDR(NIL) THEN

  36750 35 031003   000020 236100                    LDQ     16,,PR0
        35 031004   000024 116000 36                 CMPQ    20
        35 031005   031042 600000 35                 TZE     s:36793

     5227    36751    4                DO;

     5228    36752    4                  NOM$ = O1COM.CURRENT_FILE_LTS$ -> FILE_LTS.NOMINAL_KEY$;

  36752 35 031006   000045 471400 xsym               LDP1    O1COM+37
        35 031007   100020 236100                    LDQ     16,,PR1
        35 031010   000714 756000 0                  STQ     NOM$

     5229    36753
     5230    36754                       %CONDITIONAL_ERROR (@LX_ITEM$ = NOM$,
     5231    36755                           @ERROR# = %E$NOM_KEY_WITH_REL_KEY,
     5232    36756                           @LINE   = NOM$ -> LX_LIST.HEAD$ -> LX_ITEM.LINE,
     5233    36757                           @COLUMN = NOM$ -> LX_LIST.HEAD$ -> LX_ITEM.COLUMN);

  36767 35 031011   000714 473400 0                  LDP3    NOM$
        35 031012   300000 236100                    LDQ     0,,PR3
        35 031013   400000 316007                    CANQ    -131072,DL
        35 031014   031033 601000 35                 TNZ     s:36788

  36769 35 031015   300004 474500                    LDP4    4,,PR3
PL6.E3A0      #001=Z8EM$SEMANTICS_DATA_DIV File=Z8EM.:Z8A6TSI                    SAT 08/09/97 12:08 Page:959
        35 031016   400006 635500                    EPPR5   6,,PR4
        35 031017   001014 455400 0                  STP5    PROC$+4
        35 031020   400005 636500                    EPPR6   5,,PR4
        35 031021   001013 456400 0                  STP6    PROC$+3
        35 031022   000572 236000 36                 LDQ     378
        35 031023   001012 756000 0                  STQ     PROC$+2
        35 031024   001012 630400 0                  EPPR0   PROC$+2
        35 031025   000000 631400 36                 EPPR1   0
        35 031026   000000 701000 xent               TSX1    Z8AE$ERROR
        35 031027   000000 011000                    NOP     0

  36778 35 031030   000714 470400 0                  LDP0    NOM$
        35 031031   400000 236007                    LDQ     -131072,DL
        35 031032   000000 256100                    ORSQ    0,,PR0

     5234    36787
     5235    36788    4                  CALL Z8ED$DISPOSE_ABSSYN_TREE (FILE$ ->

  36788 35 031033   000713 236000 0                  LDQ     FILE$
        35 031034   000020 036003                    ADLQ    16,DU
        35 031035   001012 756000 0                  STQ     PROC$+2
        35 031036   001012 630400 0                  EPPR0   PROC$+2
        35 031037   000036 631400 36                 EPPR1   30
        35 031040   000000 701000 xent               TSX1    Z8ED$DISPOSE_ABSSYN_TREE
        35 031041   000000 011000                    NOP     0

     5236    36789    4                                                 FILE_LTS.NOMINAL_KEY$);
     5237    36790    4                END;

     5238    36791    3          END;

     5239    36792
     5240    36793    2        IF ORG = %SEQUENTIAL THEN

  36793 35 031042   000711 235000 0                  LDA     ORG
        35 031043   000001 115007                    CMPA    1,DL
        35 031044   031107 601000 35                 TNZ     s:36838
PL6.E3A0      #001=Z8EM$SEMANTICS_DATA_DIV File=Z8EM.:Z8A6TSI                    SAT 08/09/97 12:08 Page:960

     5241    36794    2          IF FILE$ -> FILE_LTS.NOMINAL_KEY$ ~= ADDR(NIL) THEN

  36794 35 031045   000713 470400 0                  LDP0    FILE$
        35 031046   000020 236100                    LDQ     16,,PR0
        35 031047   000024 116000 36                 CMPQ    20
        35 031050   031107 600000 35                 TZE     s:36838

     5242    36795    3            DO;

     5243    36796    3              NOM$ = O1COM.CURRENT_FILE_LTS$ -> FILE_LTS.NOMINAL_KEY$;

  36796 35 031051   000045 471400 xsym               LDP1    O1COM+37
        35 031052   100020 236100                    LDQ     16,,PR1
        35 031053   000714 756000 0                  STQ     NOM$

     5244    36797
     5245    36798                   %CONDITIONAL_ERROR (@LX_ITEM$ = NOM$,
     5246    36799                       @ERROR# = %E$WRONG_ORG_WITH_KEY,
     5247    36800                       @LINE   = NOM$ -> LX_LIST.HEAD$ -> LX_ITEM.LINE,
     5248    36801                       @COLUMN = NOM$ -> LX_LIST.HEAD$ -> LX_ITEM.COLUMN,
     5249    36802                       @PLUG1  = "DNT$_FROM_RSWNO (%RSV_WRD_NOMINAL)");

  36812 35 031054   000714 473400 0                  LDP3    NOM$
        35 031055   300000 236100                    LDQ     0,,PR3
        35 031056   400000 316007                    CANQ    -131072,DL
        35 031057   031100 601000 35                 TNZ     s:36833

  36814 35 031060   300004 474500                    LDP4    4,,PR3
        35 031061   000323 236000 36                 LDQ     211
        35 031062   001015 756000 0                  STQ     PROC$+5
        35 031063   400006 635500                    EPPR5   6,,PR4
        35 031064   001014 455400 0                  STP5    PROC$+4
        35 031065   400005 636500                    EPPR6   5,,PR4
        35 031066   001013 456400 0                  STP6    PROC$+3
        35 031067   000321 236000 36                 LDQ     209
        35 031070   001012 756000 0                  STQ     PROC$+2
PL6.E3A0      #001=Z8EM$SEMANTICS_DATA_DIV File=Z8EM.:Z8A6TSI                    SAT 08/09/97 12:08 Page:961
        35 031071   001012 630400 0                  EPPR0   PROC$+2
        35 031072   000005 631400 36                 EPPR1   5
        35 031073   000000 701000 xent               TSX1    Z8AE$ERROR
        35 031074   000000 011000                    NOP     0

  36823 35 031075   000714 470400 0                  LDP0    NOM$
        35 031076   400000 236007                    LDQ     -131072,DL
        35 031077   000000 256100                    ORSQ    0,,PR0

     5250    36832
     5251    36833    3              CALL Z8ED$DISPOSE_ABSSYN_TREE (FILE$ ->

  36833 35 031100   000713 236000 0                  LDQ     FILE$
        35 031101   000020 036003                    ADLQ    16,DU
        35 031102   001012 756000 0                  STQ     PROC$+2
        35 031103   001012 630400 0                  EPPR0   PROC$+2
        35 031104   000036 631400 36                 EPPR1   30
        35 031105   000000 701000 xent               TSX1    Z8ED$DISPOSE_ABSSYN_TREE
        35 031106   000000 011000                    NOP     0

     5252    36834    3                                             FILE_LTS.NOMINAL_KEY$);
     5253    36835    3            END;

     5254    36836
     5255    36837
     5256    36838    2        IF (ORG = %KEYED OR

  36838 35 031107   000711 235000 0                  LDA     ORG
        35 031110   000004 115007                    CMPA    4,DL
        35 031111   031114 600000 35                 TZE     s:36838+5
        35 031112   000003 115007                    CMPA    3,DL
        35 031113   031136 601000 35                 TNZ     s:36845
        35 031114   000713 470400 0                  LDP0    FILE$
        35 031115   000015 236100                    LDQ     13,,PR0
        35 031116   000024 116000 36                 CMPQ    20
        35 031117   031136 601000 35                 TNZ     s:36845

PL6.E3A0      #001=Z8EM$SEMANTICS_DATA_DIV File=Z8EM.:Z8A6TSI                    SAT 08/09/97 12:08 Page:962
     5257    36839    2            ORG = %INDEXED)
     5258    36840    2        AND FILE$ -> FILE_LTS.RECORD_KEY$ = ADDR(NIL) THEN
     5259    36841    2          CALL Z8AE$ERROR (%E$NO_KEY_SPECIFIED,

  36841 35 031120   000706 471400 0                  LDP1    ST$$
        35 031121   100002 236100                    LDQ     2,,PR1
        35 031122   777777 376007                    ANQ     -1,DL
        35 031123   001012 756000 0                  STQ     PROC$+2
        35 031124   000574 237000 36                 LDAQ    380
        35 031125   001016 757000 0                  STAQ    PROC$+6
        35 031126   001012 633400 0                  EPPR3   PROC$+2
        35 031127   001015 453400 0                  STP3    PROC$+5
        35 031130   000570 236000 36                 LDQ     376
        35 031131   001014 756000 0                  STQ     PROC$+4
        35 031132   001014 630400 0                  EPPR0   PROC$+4
        35 031133   000005 631400 36                 EPPR1   5
        35 031134   000000 701000 xent               TSX1    Z8AE$ERROR
        35 031135   000000 011000                    NOP     0

     5260    36842    2                           BINBIT(ST$$ -> FD.LINE_NO, 36), 0,
     5261    36843    2                           DNT$_FROM_RSWNO(%RSV_WRD_RECORD));
     5262    36844
     5263    36845    2        O1COM.CURRENT_FILE_LTS$ = ADDR(NIL);

  36845 35 031136   000024 236000 36                 LDQ     20
        35 031137   000045 756000 xsym               STQ     O1COM+37

     5264    36846
     5265    36847    2   END SELECT_CLAUSE_END;

  36847 35 031140   000705 221200 0                  LDX1  ! ST$$+1
        35 031141   000001 702211                    TSX2  ! 1,X1

     5266    36848        %EJECT;
PL6.E3A0      #001=Z8EM$SEMANTICS_DATA_DIV File=Z8EM.:Z8A6TSI                    SAT 08/09/97 12:08 Page:963
     5267    36849        /*==================*/
     5268    36850    1     SELECT_CLAUSE_INIT: PROC (FILE_NAME$, OPTIONAL$);

  36850 35 031142   000715 741200 0     SELECT_CLAU* STX1  ! NOM$+1

     5269    36851        /*==================*/
     5270    36852
     5271    36853    2        DCL FILE_NAME$           PTR; /* Ptr to LX_TERM for <file-name> */
     5272    36854    2        DCL OPTIONAL$            PTR; /* Ptr to LX_TERM for OPTIONAL */
     5273    36855    2        DCL FILE_DNT$            PTR;
     5274    36856    2        DCL FD$$                 PTR; /* FD st item */
     5275    36857    2        DCL ST$$                 PTR; /* Scratch pointer */
     5276    36858
     5277    36859        /*
     5278    36860             Functions performed:
     5279    36861                 1. Duplicate file name check
     5280    36862                 2. Init FD ST item
     5281    36863                 3. Enter in QLT
     5282    36864                 4. Init FILE_LTS item
     5283    36865                 5. Update O1COM.CURRENT_FILE_LTS$ and COMCOM.FILE_LTS_CHAIN$
     5284    36866
     5285    36867        */
     5286    36868        %EJECT;
PL6.E3A0      #001=Z8EM$SEMANTICS_DATA_DIV File=Z8EM.:Z8A6TSI                    SAT 08/09/97 12:08 Page:964
     5287    36869    2        CALL NEW_FILE (FILE_NAME$, FD$$);

  36869 35 031143   000576 236000 36                 LDQ     382
        35 031144   000412 756000 0                  STQ     @FD$$
        35 031145   000716 236000 0                  LDQ     @FILE_NAME$
        35 031146   000411 756000 0                  STQ     @FILE$
        35 031147   013772 701000 35                 TSX1    NEW_FILE
        35 031150   000000 011000                    NOP     0

     5288    36870
     5289    36871    2        CALL Z8DO$QUALIFY_TERMINAL (FILE_NAME$, ST$$);

  36871 35 031151   000577 236000 36                 LDQ     383
        35 031152   000716 235000 0                  LDA     @FILE_NAME$
        35 031153   001012 757000 0                  STAQ    PROC$+2
        35 031154   001012 630400 0                  EPPR0   PROC$+2
        35 031155   000025 631400 36                 EPPR1   21
        35 031156   000000 701000 xent               TSX1    Z8DO$QUALIFY_TERMINAL
        35 031157   000000 011000                    NOP     0

     5290    36872
     5291    36873
     5292    36874    3        IF OPTIONAL$ -> LX_TERMINAL.SYMBOL ~= %EMPTY THEN DO;

  36874 35 031160   000717 470400 0                  LDP0    @OPTIONAL$
        35 031161   000000 471500                    LDP1    0,,PR0
        35 031162   100003 235100                    LDA     3,,PR1
        35 031163   031210 600000 35                 TZE     s:36882

     5293    36875    3          FD$$ -> FD.LTS$ -> FILE_LTS.B.OPTIONAL_FILE = TRUE;

  36875 35 031164   000721 473400 0                  LDP3    FD$$
        35 031165   300005 474500                    LDP4    5,,PR3
        35 031166   200000 236003                    LDQ     65536,DU
        35 031167   400017 256100                    ORSQ    15,,PR4

     5294    36876    3          IF COMCOM.OB.FIPS.LEVEL >= %INT_LEV THEN
PL6.E3A0      #001=Z8EM$SEMANTICS_DATA_DIV File=Z8EM.:Z8A6TSI                    SAT 08/09/97 12:08 Page:965

  36876 35 031170   000036 720000 xsym               LXL0    COMCOM+30
        35 031171   000002 100003                    CMPX0   2,DU
        35 031172   031210 604000 35                 TMI     s:36882

     5295    36877    3            CALL Z8AE$ERROR (%E$LEVEL_CHECK,

  36877 35 031173   000151 236000 xsym               LDQ     O1COM+105
        35 031174   000025 736000                    QLS     21
        35 031175   000544 036000 36                 ADLQ    356
        35 031176   001014 756000 0                  STQ     PROC$+4
        35 031177   000151 236000 xsym               LDQ     O1COM+105
        35 031200   000025 736000                    QLS     21
        35 031201   000545 036000 36                 ADLQ    357
        35 031202   000004 235000 36                 LDA     4
        35 031203   001012 757000 0                  STAQ    PROC$+2
        35 031204   001012 630400 0                  EPPR0   PROC$+2
        35 031205   000000 631400 36                 EPPR1   0
        35 031206   000000 701000 xent               TSX1    Z8AE$ERROR
        35 031207   000000 011000                    NOP     0

     5296    36878    3                             O1COM.LX_STK.LINE(O1COM.LX_TOP - 2),
     5297    36879    3                             O1COM.LX_STK.COLUMN(O1COM.LX_TOP - 2));
     5298    36880    3        END;

     5299    36881
     5300    36882    2        O1COM.CURRENT_FILE_LTS$  = FD$$ -> FD.LTS$;

  36882 35 031210   000721 470400 0                  LDP0    FD$$
        35 031211   000005 236100                    LDQ     5,,PR0
        35 031212   000045 756000 xsym               STQ     O1COM+37

     5301    36883
     5302    36884    2   END SELECT_CLAUSE_INIT;

  36884 35 031213   000715 221200 0                  LDX1  ! NOM$+1
        35 031214   000001 702211                    TSX2  ! 1,X1
PL6.E3A0      #001=Z8EM$SEMANTICS_DATA_DIV File=Z8EM.:Z8A6TSI                    SAT 08/09/97 12:08 Page:966

     5303    36885        %EJECT;
PL6.E3A0      #001=Z8EM$SEMANTICS_DATA_DIV File=Z8EM.:Z8A6TSI                    SAT 08/09/97 12:08 Page:967
     5304    36886        /*===============*/
     5305    36887    1     SORT_DESC_CHECK: PROC (TERM$) ALTRET;

  36887 35 031215   000723 741200 0     SORT_DESC_C* STX1  ! ST$$+1

     5306    36888        /*===============*/
     5307    36889
     5308    36890    2        DCL TERM$         PTR;
     5309    36891
     5310    36892
     5311    36893    2        IF COMCOM.OB.FIPS.LEVEL = %LOW_LEV THEN

  36893 35 031216   000036 720000 xsym               LXL0    COMCOM+30
        35 031217   000003 100003                    CMPX0   3,DU
        35 031220   031251 601000 35                 TNZ     s:36931

     5312    36894    3          DO;

     5313    36895                 %CONDITIONAL_ERROR (@LX_ITEM$ = TERM$,
     5314    36896                                     @ERROR#   = %E$LEVEL_CHECK,
     5315    36897                                     @LINE     = "O1COM.LX_STK.LINE(O1COM.LX_TOP - 5)",
     5316    36898                                     @COLUMN   = "O1COM.LX_STK.COLUMN(O1COM.LX_TOP - 5)");

  36908 35 031221   000724 470400 0                  LDP0    @TERM$
        35 031222   000000 471500                    LDP1    0,,PR0
        35 031223   100000 236100                    LDQ     0,,PR1
        35 031224   400000 316007                    CANQ    -131072,DL
        35 031225   031247 601000 35                 TNZ     s:36928

  36910 35 031226   000151 236000 xsym               LDQ     O1COM+105
        35 031227   000025 736000                    QLS     21
        35 031230   000557 036000 36                 ADLQ    367
        35 031231   001014 756000 0                  STQ     PROC$+4
        35 031232   000151 236000 xsym               LDQ     O1COM+105
        35 031233   000025 736000                    QLS     21
        35 031234   000560 036000 36                 ADLQ    368
        35 031235   000004 235000 36                 LDA     4
PL6.E3A0      #001=Z8EM$SEMANTICS_DATA_DIV File=Z8EM.:Z8A6TSI                    SAT 08/09/97 12:08 Page:968
        35 031236   001012 757000 0                  STAQ    PROC$+2
        35 031237   001012 630400 0                  EPPR0   PROC$+2
        35 031240   000000 631400 36                 EPPR1   0
        35 031241   000000 701000 xent               TSX1    Z8AE$ERROR
        35 031242   000000 011000                    NOP     0

  36919 35 031243   000724 470400 0                  LDP0    @TERM$
        35 031244   000000 471500                    LDP1    0,,PR0
        35 031245   400000 236007                    LDQ     -131072,DL
        35 031246   100000 256100                    ORSQ    0,,PR1

     5317    36928    3            ALTRETURN;

  36928 35 031247   000723 221200 0                  LDX1  ! ST$$+1
        35 031250   000000 702211                    TSX2  ! 0,X1

     5318    36929    3          END;
     5319    36930
     5320    36931    2        RETURN;

  36931 35 031251   000001 702211                    TSX2  ! 1,X1

     5321    36932
     5322    36933    2   END SORT_DESC_CHECK;
     5323    36934        %EJECT;
PL6.E3A0      #001=Z8EM$SEMANTICS_DATA_DIV File=Z8EM.:Z8A6TSI                    SAT 08/09/97 12:08 Page:969
     5324    36935        /*===========*/
     5325    36936    1     SWITCH_NAME: PROC (SWITCH#$, MNEMONIC$, STATUS$);

  36936 35 031252   000725 741200 0     SWITCH_NAME  STX1  ! @TERM$+1

     5326    36937        /*===========*/
     5327    36938
     5328    36939    2   DCL SWITCH#$           PTR;
     5329    36940    2   DCL MNEMONIC$          PTR;
     5330    36941    2   DCL STATUS$            PTR;
     5331    36942    2   DCL MNEMONIC_ST$       PTR;
     5332    36943    2   DCL MNEMONIC_QLT$      PTR;
     5333    36944    2   DCL SWITCH#            SBIN WORD;
     5334    36945
     5335    36946           %EXTRACT_SWITCH_CHANNEL (@DNT$ = SWITCH#$ -> LX_ITEM.DNT$,
     5336    36947                                    @NUMBER = SWITCH#);

  36949 35 031253   000726 470400 0                  LDP0    @SWITCH#$
        35 031254   000000 471500                    LDP1    0,,PR0
        35 031255   100002 473500                    LDP3    2,,PR1
        35 031256   300004 220100                    LDX0    4,,PR3
        35 031257   300004 236100                    LDQ     4,,PR3
        35 031260   000022 772000                    QRL     18
        35 031261   040000 106506                    CMPC    fill='040'O
        35 031262   300004 000001                    ADSC9   4,Q,PR3                  cn=0,n=1
        35 031263   000122 000001 36                 ADSC9   82                       cn=0,n=1
        35 031264   031302 602000 35                 TNC     s:36957
        35 031265   040106 106400                    CMPC    fill='040'O
        35 031266   000123 000001 36                 ADSC9   83                       cn=0,n=1
        35 031267   300004 000001                    ADSC9   4,Q,PR3                  cn=0,n=1
        35 031270   031302 602000 35                 TNC     s:36957

  36953 35 031271   001012 740000 0                  STX0    PROC$+2
        35 031272   300004 120100                    SBLX0   4,,PR3
        35 031273   300004 236100                    LDQ     4,,PR3
        35 031274   000022 772000                    QRL     18
        35 031275   000002 622010                    EAX2    2,X0
PL6.E3A0      #001=Z8EM$SEMANTICS_DATA_DIV File=Z8EM.:Z8A6TSI                    SAT 08/09/97 12:08 Page:970
        35 031276   000000 305546                    DTB
        35 031277   300004 030012                    NDSC9   4,Q,PR3                  cn=0,s=nosgn,sf=0,n=*X2
        35 031300   000733 000004 0                  NDSC9   SWITCH#                  cn=0,s=lsgnf,sf=0,n=4
        35 031301   031312 710000 35                 TRA     s:36963

  36957 35 031302   001012 740000 0                  STX0    PROC$+2
        35 031303   300004 120100                    SBLX0   4,,PR3
        35 031304   300004 236100                    LDQ     4,,PR3
        35 031305   000022 772000                    QRL     18
        35 031306   000001 622010                    EAX2    1,X0
        35 031307   000000 305546                    DTB
        35 031310   300004 230012                    NDSC9   4,Q,PR3                  cn=1,s=nosgn,sf=0,n=*X2
        35 031311   000733 000004 0                  NDSC9   SWITCH#                  cn=0,s=lsgnf,sf=0,n=4

     5337    36962
     5338    36963    2      IF MNEMONIC$ ~= ADDR(NIL) THEN

  36963 35 031312   000727 471400 0                  LDP1    @MNEMONIC$
        35 031313   100000 236100                    LDQ     0,,PR1
        35 031314   000024 116000 36                 CMPQ    20
        35 031315   031574 600000 35                 TZE     s:37096

     5339    36964    3        DO;

     5340    36965               %NEW_SWITCH (@ST$      = MNEMONIC_ST$,
     5341    36966                             @DNT$     = MNEMONIC$ -> LX_ITEM.DNT$,
     5342    36967                             @SWITCH#  = SWITCH#,
     5343    36968                             @NEXT     = MNEMONIC$ -> LX_ITEM.DNT$ -> DNT.ST$);

  36972 35 031316   000002 236000 13                 LDQ     ST_+2
        35 031317   000013 036007                    ADLQ    11,DL
        35 031320   000003 116000 13                 CMPQ    ST_+3
        35 031321   031332 604000 35                 TMI     s:36974

  36973 35 031322   000102 236000 36                 LDQ     66
        35 031323   001012 756000 0                  STQ     PROC$+2
        35 031324   001012 633400 0                  EPPR3   PROC$+2
PL6.E3A0      #001=Z8EM$SEMANTICS_DATA_DIV File=Z8EM.:Z8A6TSI                    SAT 08/09/97 12:08 Page:971
        35 031325   001013 453400 0                  STP3    PROC$+3
        35 031326   001013 630400 0                  EPPR0   PROC$+3
        35 031327   000036 631400 36                 EPPR1   30
        35 031330   000000 701000 xent               TSX1    Z8AR$RESERVER
        35 031331   000000 011000                    NOP     0

  36974 35 031332   000002 236000 13                 LDQ     ST_+2
        35 031333   000022 736000                    QLS     18
        35 031334   000001 036000 13                 ADLQ    ST_+1
        35 031335   000731 756000 0                  STQ     MNEMONIC_ST$

  36975 35 031336   000013 236007                    LDQ     11,DL
        35 031337   000002 056000 13                 ASQ     ST_+2

  36978 35 031340   000762 220003                    LDX0    498,DU
        35 031341   000731 470400 0                  LDP0    MNEMONIC_ST$
        35 031342   000000 740100                    STX0    0,,PR0

  36979 35 031343   000020 221003                    LDX1    16,DU
        35 031344   000731 470400 0                  LDP0    MNEMONIC_ST$
        35 031345   000002 741100                    STX1    2,,PR0

  36980 35 031346   000133 722000 xsym               LXL2    COMCOM+91
        35 031347   000731 470400 0                  LDP0    MNEMONIC_ST$
        35 031350   000002 442100                    SXL2    2,,PR0

  36981 35 031351   000000 222003                    LDX2    0,DU
        35 031352   000731 470400 0                  LDP0    MNEMONIC_ST$
        35 031353   000003 742100                    STX2    3,,PR0

  36982 35 031354   000727 470400 0                  LDP0    @MNEMONIC$
        35 031355   000000 471500                    LDP1    0,,PR0
        35 031356   100002 473500                    LDP3    2,,PR1
        35 031357   300001 236100                    LDQ     1,,PR3
        35 031360   000731 474400 0                  LDP4    MNEMONIC_ST$
        35 031361   400004 756100                    STQ     4,,PR4

PL6.E3A0      #001=Z8EM$SEMANTICS_DATA_DIV File=Z8EM.:Z8A6TSI                    SAT 08/09/97 12:08 Page:972
  36983 35 031362   000733 723000 0                  LXL3    SWITCH#
        35 031363   000731 471400 0                  LDP1    MNEMONIC_ST$
        35 031364   100003 443100                    SXL3    3,,PR1

  36984 35 031365   000000 471500                    LDP1    0,,PR0
        35 031366   100002 236100                    LDQ     2,,PR1
        35 031367   000731 473400 0                  LDP3    MNEMONIC_ST$
        35 031370   300006 756100                    STQ     6,,PR3

  36985 35 031371   000024 236000 36                 LDQ     20
        35 031372   000731 471400 0                  LDP1    MNEMONIC_ST$
        35 031373   100007 756100                    STQ     7,,PR1

  36989 35 031374   000024 236000 36                 LDQ     20
        35 031375   000731 471400 0                  LDP1    MNEMONIC_ST$
        35 031376   100012 756100                    STQ     10,,PR1

  36992 35 031377   000057 236000 xsym               LDQ     O1COM+47
        35 031400   000731 471400 0                  LDP1    MNEMONIC_ST$
        35 031401   100011 756100                    STQ     9,,PR1

  36993 35 031402   000057 236000 xsym               LDQ     O1COM+47
        35 031403   000024 116000 36                 CMPQ    20
        35 031404   031430 600000 35                 TZE     s:37027

  36997 35 031405   000057 471400 xsym               LDP1    O1COM+47
        35 031406   100001 473500                    LDP3    1,,PR1
        35 031407   300012 236100                    LDQ     10,,PR3
        35 031410   000024 116000 36                 CMPQ    20
        35 031411   031421 601000 35                 TNZ     s:37004

  36999 35 031412   000731 236000 0                  LDQ     MNEMONIC_ST$
        35 031413   300011 756100                    STQ     9,,PR3

  37000 35 031414   000057 471400 xsym               LDP1    O1COM+47
        35 031415   100001 473500                    LDP3    1,,PR1
        35 031416   000731 236000 0                  LDQ     MNEMONIC_ST$
PL6.E3A0      #001=Z8EM$SEMANTICS_DATA_DIV File=Z8EM.:Z8A6TSI                    SAT 08/09/97 12:08 Page:973
        35 031417   300012 756100                    STQ     10,,PR3

  37001 35 031420   031430 710000 35                 TRA     s:37027

  37004 35 031421   300012 474500                    LDP4    10,,PR3
        35 031422   000731 236000 0                  LDQ     MNEMONIC_ST$
        35 031423   400012 756100                    STQ     10,,PR4

  37005 35 031424   000057 471400 xsym               LDP1    O1COM+47
        35 031425   100001 473500                    LDP3    1,,PR1
        35 031426   000731 236000 0                  LDQ     MNEMONIC_ST$
        35 031427   300012 756100                    STQ     10,,PR3

  37027 35 031430   000024 236000 36                 LDQ     20
        35 031431   000731 471400 0                  LDP1    MNEMONIC_ST$
        35 031432   100005 756100                    STQ     5,,PR1

  37028 35 031433   000024 236000 36                 LDQ     20
        35 031434   000731 471400 0                  LDP1    MNEMONIC_ST$
        35 031435   100001 756100                    STQ     1,,PR1

     5344    37031
     5345    37032               %NEW_QLT     (@POINTER = MNEMONIC_QLT$,
     5346    37033                             @LEVEL#  = 88,
     5347    37034                             @ST$     = MNEMONIC_ST$,
     5348    37035                             @DNT$    = MNEMONIC$ -> LX_ITEM.DNT$);

  37040 35 031436   000002 236000 11                 LDQ     QLT_+2
        35 031437   000006 036007                    ADLQ    6,DL
        35 031440   000003 116000 11                 CMPQ    QLT_+3
        35 031441   031452 602000 35                 TNC     s:37042

  37041 35 031442   000103 236000 36                 LDQ     67
        35 031443   001012 756000 0                  STQ     PROC$+2
        35 031444   001012 631400 0                  EPPR1   PROC$+2
        35 031445   001013 451400 0                  STP1    PROC$+3
        35 031446   001013 630400 0                  EPPR0   PROC$+3
PL6.E3A0      #001=Z8EM$SEMANTICS_DATA_DIV File=Z8EM.:Z8A6TSI                    SAT 08/09/97 12:08 Page:974
        35 031447   000036 631400 36                 EPPR1   30
        35 031450   000000 701000 xent               TSX1    Z8AR$RESERVER
        35 031451   000000 011000                    NOP     0

  37042 35 031452   000002 236000 11                 LDQ     QLT_+2
        35 031453   000022 736000                    QLS     18
        35 031454   000001 036000 11                 ADLQ    QLT_+1
        35 031455   000732 756000 0                  STQ     MNEMONIC_QLT$

  37043 35 031456   000002 235000 11                 LDA     QLT_+2
        35 031457   000006 035007                    ADLA    6,DL
        35 031460   000002 755000 11                 STA     QLT_+2

  37044 35 031461   001053 220003                    LDX0    555,DU
        35 031462   000732 470400 0                  LDP0    MNEMONIC_QLT$
        35 031463   000000 740100                    STX0    0,,PR0

  37047 35 031464   000024 236000 36                 LDQ     20
        35 031465   000001 756100                    STQ     1,,PR0

  37048 35 031466   000024 236000 36                 LDQ     20
        35 031467   000002 756100                    STQ     2,,PR0

  37049 35 031470   000024 236000 36                 LDQ     20
        35 031471   000003 756100                    STQ     3,,PR0

  37050 35 031472   000731 236000 0                  LDQ     MNEMONIC_ST$
        35 031473   000004 756100                    STQ     4,,PR0

  37051 35 031474   000727 471400 0                  LDP1    @MNEMONIC$
        35 031475   100000 473500                    LDP3    0,,PR1
        35 031476   300002 236100                    LDQ     2,,PR3
        35 031477   000005 756100                    STQ     5,,PR0

  37052 35 031500   000130 236007                    LDQ     88,DL
        35 031501   000000 552104                    STBQ    0,'04'O,PR0

PL6.E3A0      #001=Z8EM$SEMANTICS_DATA_DIV File=Z8EM.:Z8A6TSI                    SAT 08/09/97 12:08 Page:975
  37053 35 031502   000000 236003                    LDQ     0,DU
        35 031503   000000 552110                    STBQ    0,'10'O,PR0

  37054 35 031504   000104 236000 36                 LDQ     68
        35 031505   000000 356100                    ANSQ    0,,PR0

  37055 35 031506   000105 236000 36                 LDQ     69
        35 031507   000000 356100                    ANSQ    0,,PR0

  37056 35 031510   000106 236000 36                 LDQ     70
        35 031511   000000 356100                    ANSQ    0,,PR0

  37057 35 031512   000107 236000 36                 LDQ     71
        35 031513   000000 356100                    ANSQ    0,,PR0

     5349    37060
     5350    37061    3          MNEMONIC_ST$ -> SWITCH.QLT$ = MNEMONIC_QLT$;

  37061 35 031514   000732 236000 0                  LDQ     MNEMONIC_QLT$
        35 031515   000731 473400 0                  LDP3    MNEMONIC_ST$
        35 031516   300007 756100                    STQ     7,,PR3

     5351    37062    3          MNEMONIC_ST$ -> SWITCH.DNT$ -> DNT.ST$ = MNEMONIC_ST$;

  37062 35 031517   000731 473400 0                  LDP3    MNEMONIC_ST$
        35 031520   300006 474500                    LDP4    6,,PR3
        35 031521   000731 236000 0                  LDQ     MNEMONIC_ST$
        35 031522   400001 756100                    STQ     1,,PR4

     5352    37063
     5353    37064               %UPDATE_PREV_QLT$ (@NEW_QLT$ = MNEMONIC_QLT$);

  37066 35 031523   000424 236000 xsym               LDQ     COMCOM+276
        35 031524   000024 116000 36                 CMPQ    20
        35 031525   031531 600000 35                 TZE     s:37068

  37067 35 031526   000732 236000 0                  LDQ     MNEMONIC_QLT$
PL6.E3A0      #001=Z8EM$SEMANTICS_DATA_DIV File=Z8EM.:Z8A6TSI                    SAT 08/09/97 12:08 Page:976
        35 031527   000424 473400 xsym               LDP3    COMCOM+276
        35 031530   300002 756100                    STQ     2,,PR3

  37068 35 031531   000732 236000 0                  LDQ     MNEMONIC_QLT$
        35 031532   000424 756000 xsym               STQ     COMCOM+276

     5354    37071
     5355    37072               %ADD_XREF (SYM  = MNEMONIC_ST$,
     5356    37073                          ISN  = SWITCH#$ -> LX_TERMINAL.LINE,
     5357    37074                          TYPE = %XREF_DCL);

  37076 35 031533   000055 234000 xsym               SZN     COMCOM+45
        35 031534   031603 605000 35                 TPL     s:37100

  37080 35 031535   000002 236000 24                 LDQ     XREF_+2
        35 031536   000002 036007                    ADLQ    2,DL
        35 031537   000003 116000 24                 CMPQ    XREF_+3
        35 031540   031551 602000 35                 TNC     s:37082

  37081 35 031541   000110 236000 36                 LDQ     72
        35 031542   001012 756000 0                  STQ     PROC$+2
        35 031543   001012 633400 0                  EPPR3   PROC$+2
        35 031544   001013 453400 0                  STP3    PROC$+3
        35 031545   001013 630400 0                  EPPR0   PROC$+3
        35 031546   000036 631400 36                 EPPR1   30
        35 031547   000000 701000 xent               TSX1    Z8AR$RESERVER
        35 031550   000000 011000                    NOP     0

  37082 35 031551   000002 236000 24                 LDQ     XREF_+2
        35 031552   000022 736000                    QLS     18
        35 031553   000001 036000 24                 ADLQ    XREF_+1
        35 031554   000000 756000 23                 STQ     XREF$

  37083 35 031555   000002 235000 24                 LDA     XREF_+2
        35 031556   000002 035007                    ADLA    2,DL
        35 031557   000002 755000 24                 STA     XREF_+2

PL6.E3A0      #001=Z8EM$SEMANTICS_DATA_DIV File=Z8EM.:Z8A6TSI                    SAT 08/09/97 12:08 Page:977
  37084 35 031560   000004 220003                    LDX0    4,DU
        35 031561   000000 470400 23                 LDP0    XREF$
        35 031562   000000 740100                    STX0    0,,PR0

  37087 35 031563   000726 470400 0                  LDP0    @SWITCH#$
        35 031564   000000 471500                    LDP1    0,,PR0
        35 031565   100005 721100                    LXL1    5,,PR1
        35 031566   000000 473400 23                 LDP3    XREF$
        35 031567   300000 441100                    SXL1    0,,PR3

  37088 35 031570   000731 236000 0                  LDQ     MNEMONIC_ST$
        35 031571   000000 471400 23                 LDP1    XREF$
        35 031572   100001 756100                    STQ     1,,PR1

     5358    37092
     5359    37093    3        END;

  37093 35 031573   031603 710000 35                 TRA     s:37100

     5360    37094    2      ELSE
     5361    37095    3        DO;

     5362    37096    3          CALL Z8AT$CREATE_TEMPORARY (%SWITCH, MNEMONIC_ST$);

  37096 35 031574   000601 630400 36                 EPPR0   385
        35 031575   000025 631400 36                 EPPR1   21
        35 031576   000000 701000 xent               TSX1    Z8AT$CREATE_TEMPORARY
        35 031577   000000 011000                    NOP     0

     5363    37097    3          MNEMONIC_ST$ -> SWITCH.SWITCH# = SWITCH#;

  37097 35 031600   000733 720000 0                  LXL0    SWITCH#
        35 031601   000731 470400 0                  LDP0    MNEMONIC_ST$
        35 031602   000003 440100                    SXL0    3,,PR0

     5364    37098    3        END;

PL6.E3A0      #001=Z8EM$SEMANTICS_DATA_DIV File=Z8EM.:Z8A6TSI                    SAT 08/09/97 12:08 Page:978
     5365    37099
     5366    37100    2      IF STATUS$ ~= ADDR(NIL) THEN

  37100 35 031603   000730 470400 0                  LDP0    @STATUS$
        35 031604   000000 236100                    LDQ     0,,PR0
        35 031605   000024 116000 36                 CMPQ    20
        35 031606   031625 600000 35                 TZE     s:37106

     5367    37101    3        DO;

     5368    37102    3          CALL SWITCH_STATUS (STATUS$, MNEMONIC_ST$);

  37102 35 031607   000602 236000 36                 LDQ     386
        35 031610   000736 756000 0                  STQ     @STATUS$+1
        35 031611   000730 236000 0                  LDQ     @STATUS$
        35 031612   000735 756000 0                  STQ     SWITCH#+2
        35 031613   031627 701000 35                 TSX1    SWITCH_STATUS
        35 031614   000000 011000                    NOP     0

     5369    37103    3          CALL Z8ED$DISPOSE_ABSSYN_TREE ( STATUS$ -> LX_LIST.HEAD$ );

  37103 35 031615   000730 470400 0                  LDP0    @STATUS$
        35 031616   000000 471500                    LDP1    0,,PR0
        35 031617   100004 633500                    EPPR3   4,,PR1
        35 031620   001012 453400 0                  STP3    PROC$+2
        35 031621   001012 630400 0                  EPPR0   PROC$+2
        35 031622   000036 631400 36                 EPPR1   30
        35 031623   000000 701000 xent               TSX1    Z8ED$DISPOSE_ABSSYN_TREE
        35 031624   000000 011000                    NOP     0

     5370    37104    3        END;

     5371    37105
     5372    37106    2   END SWITCH_NAME;

  37106 35 031625   000725 221200 0                  LDX1  ! @TERM$+1
        35 031626   000001 702211                    TSX2  ! 1,X1
PL6.E3A0      #001=Z8EM$SEMANTICS_DATA_DIV File=Z8EM.:Z8A6TSI                    SAT 08/09/97 12:08 Page:979

     5373    37107        %EJECT;
PL6.E3A0      #001=Z8EM$SEMANTICS_DATA_DIV File=Z8EM.:Z8A6TSI                    SAT 08/09/97 12:08 Page:980
     5374    37108        /*=============*/
     5375    37109    1     SWITCH_STATUS: PROC (STATUS$, MNEMONIC_ST$);

  37109 35 031627   000734 741200 0     SWITCH_STAT* STX1  ! SWITCH#+1

     5376    37110        /*=============*/
     5377    37111
     5378    37112    2   DCL STATUS$            PTR;
     5379    37113    2   DCL MNEMONIC_ST$       PTR;
     5380    37114    2   DCL MNEMONIC_QLT$      PTR;
     5381    37115
     5382    37116    2   DCL CURRENT_ELEMENT$   PTR;
     5383    37117    2   DCL ELEMENT$           PTR;
     5384    37118    2   DCL ELEMENT_ST$        PTR;
     5385    37119    2   DCL ELEMENT_QLT$       PTR;
     5386    37120
     5387    37121    2      MNEMONIC_QLT$ = MNEMONIC_ST$ -> SWITCH.QLT$;

  37121 35 031630   000736 470400 0                  LDP0    @MNEMONIC_ST$
        35 031631   000000 471500                    LDP1    0,,PR0
        35 031632   100007 236100                    LDQ     7,,PR1
        35 031633   000737 756000 0                  STQ     MNEMONIC_QLT$

     5388    37122
     5389    37123    2      CURRENT_ELEMENT$ = STATUS$ -> LX_LIST.HEAD$;

  37123 35 031634   000735 473400 0                  LDP3    @STATUS$
        35 031635   300000 474500                    LDP4    0,,PR3
        35 031636   400004 236100                    LDQ     4,,PR4
        35 031637   000740 756000 0                  STQ     CURRENT_ELEMENT$

     5390    37124    3      DO WHILE (CURRENT_ELEMENT$ ~= ADDR(NIL));

  37124 35 031640   032074 710000 35                 TRA     s:37256

     5391    37125    3        ELEMENT$ = CURRENT_ELEMENT$ -> LX_LIST.TAIL$;

PL6.E3A0      #001=Z8EM$SEMANTICS_DATA_DIV File=Z8EM.:Z8A6TSI                    SAT 08/09/97 12:08 Page:981
  37125 35 031641   000740 470400 0                  LDP0    CURRENT_ELEMENT$
        35 031642   000001 236100                    LDQ     1,,PR0
        35 031643   000741 756000 0                  STQ     ELEMENT$

     5392    37126
     5393    37127             %NEW_CONDITION (@ST$         = ELEMENT_ST$,
     5394    37128                             @GLOBAL      = TRUE,
     5395    37129                             @DNT$        = ELEMENT$ -> LX_ITEM.DNT$,
     5396    37130                             @NEXT        = ELEMENT$ -> LX_ITEM.DNT$ -> DNT.ST$,
     5397    37131                             @ASSOC_VAR$  = MNEMONIC_ST$);

  37138 35 031644   000002 236000 13                 LDQ     ST_+2
        35 031645   000013 036007                    ADLQ    11,DL
        35 031646   000003 116000 13                 CMPQ    ST_+3
        35 031647   031660 604000 35                 TMI     s:37140

  37139 35 031650   000102 236000 36                 LDQ     66
        35 031651   001012 756000 0                  STQ     PROC$+2
        35 031652   001012 631400 0                  EPPR1   PROC$+2
        35 031653   001013 451400 0                  STP1    PROC$+3
        35 031654   001013 630400 0                  EPPR0   PROC$+3
        35 031655   000036 631400 36                 EPPR1   30
        35 031656   000000 701000 xent               TSX1    Z8AR$RESERVER
        35 031657   000000 011000                    NOP     0

  37140 35 031660   000002 236000 13                 LDQ     ST_+2
        35 031661   000022 736000                    QLS     18
        35 031662   000001 036000 13                 ADLQ    ST_+1
        35 031663   000742 756000 0                  STQ     ELEMENT_ST$

  37141 35 031664   000013 236007                    LDQ     11,DL
        35 031665   000002 056000 13                 ASQ     ST_+2

  37144 35 031666   000764 220003                    LDX0    500,DU
        35 031667   000742 470400 0                  LDP0    ELEMENT_ST$
        35 031670   000000 740100                    STX0    0,,PR0

PL6.E3A0      #001=Z8EM$SEMANTICS_DATA_DIV File=Z8EM.:Z8A6TSI                    SAT 08/09/97 12:08 Page:982
  37145 35 031671   003000 236007                    LDQ     1536,DL
        35 031672   000000 552110                    STBQ    0,'10'O,PR0

  37146 35 031673   000001 236007                    LDQ     1,DL
        35 031674   000000 552104                    STBQ    0,'04'O,PR0

  37147 35 031675   000024 236000 36                 LDQ     20
        35 031676   000001 756100                    STQ     1,,PR0

  37148 35 031677   000020 221003                    LDX1    16,DU
        35 031700   000002 741100                    STX1    2,,PR0

  37149 35 031701   000133 722000 xsym               LXL2    COMCOM+91
        35 031702   000002 442100                    SXL2    2,,PR0

  37150 35 031703   000003 450100                    STZ     3,,PR0

  37151 35 031704   000741 471400 0                  LDP1    ELEMENT$
        35 031705   100002 473500                    LDP3    2,,PR1
        35 031706   300001 236100                    LDQ     1,,PR3
        35 031707   000004 756100                    STQ     4,,PR0

  37152 35 031710   000024 236000 36                 LDQ     20
        35 031711   000005 756100                    STQ     5,,PR0

  37153 35 031712   100002 236100                    LDQ     2,,PR1
        35 031713   000006 756100                    STQ     6,,PR0

  37154 35 031714   000000 236000 9                  LDQ     QLT$
        35 031715   000007 756100                    STQ     7,,PR0

  37155 35 031716   000736 473400 0                  LDP3    @MNEMONIC_ST$
        35 031717   300000 236100                    LDQ     0,,PR3
        35 031720   000010 756100                    STQ     8,,PR0

  37159 35 031721   000024 236000 36                 LDQ     20
        35 031722   000012 756100                    STQ     10,,PR0
PL6.E3A0      #001=Z8EM$SEMANTICS_DATA_DIV File=Z8EM.:Z8A6TSI                    SAT 08/09/97 12:08 Page:983

  37162 35 031723   000057 236000 xsym               LDQ     O1COM+47
        35 031724   000011 756100                    STQ     9,,PR0

  37163 35 031725   000057 236000 xsym               LDQ     O1COM+47
        35 031726   000024 116000 36                 CMPQ    20
        35 031727   031751 600000 35                 TZE     s:37201

  37167 35 031730   000057 474400 xsym               LDP4    O1COM+47
        35 031731   400001 475500                    LDP5    1,,PR4
        35 031732   500012 236100                    LDQ     10,,PR5
        35 031733   000024 116000 36                 CMPQ    20
        35 031734   031743 601000 35                 TNZ     s:37174

  37169 35 031735   000742 236000 0                  LDQ     ELEMENT_ST$
        35 031736   500011 756100                    STQ     9,,PR5

  37170 35 031737   000057 474400 xsym               LDP4    O1COM+47
        35 031740   400001 475500                    LDP5    1,,PR4
        35 031741   500012 756100                    STQ     10,,PR5

  37171 35 031742   031751 710000 35                 TRA     s:37201

  37174 35 031743   500012 476500                    LDP6    10,,PR5
        35 031744   000742 236000 0                  LDQ     ELEMENT_ST$
        35 031745   600012 756100                    STQ     10,,PR6

  37175 35 031746   000057 474400 xsym               LDP4    O1COM+47
        35 031747   400001 475500                    LDP5    1,,PR4
        35 031750   500012 756100                    STQ     10,,PR5

  37201 35 031751   100000 236003                    LDQ     32768,DU
        35 031752   000003 256100                    ORSQ    3,,PR0

     5398    37208
     5399    37209             %NEW_QLT  (@POINTER   = ELEMENT_QLT$,
     5400    37210                        @ST$       = ELEMENT_ST$,
PL6.E3A0      #001=Z8EM$SEMANTICS_DATA_DIV File=Z8EM.:Z8A6TSI                    SAT 08/09/97 12:08 Page:984
     5401    37211                        @DNT$      = ELEMENT_ST$ -> CONDITION.DNT$,
     5402    37212                        @FATHER    = MNEMONIC_QLT$,
     5403    37213                        @LEVEL#    = 88);

  37218 35 031753   000002 236000 11                 LDQ     QLT_+2
        35 031754   000006 036007                    ADLQ    6,DL
        35 031755   000003 116000 11                 CMPQ    QLT_+3
        35 031756   031767 602000 35                 TNC     s:37220

  37219 35 031757   000103 236000 36                 LDQ     67
        35 031760   001012 756000 0                  STQ     PROC$+2
        35 031761   001012 634400 0                  EPPR4   PROC$+2
        35 031762   001013 454400 0                  STP4    PROC$+3
        35 031763   001013 630400 0                  EPPR0   PROC$+3
        35 031764   000036 631400 36                 EPPR1   30
        35 031765   000000 701000 xent               TSX1    Z8AR$RESERVER
        35 031766   000000 011000                    NOP     0

  37220 35 031767   000002 236000 11                 LDQ     QLT_+2
        35 031770   000022 736000                    QLS     18
        35 031771   000001 036000 11                 ADLQ    QLT_+1
        35 031772   000743 756000 0                  STQ     ELEMENT_QLT$

  37221 35 031773   000002 235000 11                 LDA     QLT_+2
        35 031774   000006 035007                    ADLA    6,DL
        35 031775   000002 755000 11                 STA     QLT_+2

  37222 35 031776   001053 220003                    LDX0    555,DU
        35 031777   000743 470400 0                  LDP0    ELEMENT_QLT$
        35 032000   000000 740100                    STX0    0,,PR0

  37225 35 032001   000737 236000 0                  LDQ     MNEMONIC_QLT$
        35 032002   000001 756100                    STQ     1,,PR0

  37226 35 032003   000024 236000 36                 LDQ     20
        35 032004   000002 756100                    STQ     2,,PR0

PL6.E3A0      #001=Z8EM$SEMANTICS_DATA_DIV File=Z8EM.:Z8A6TSI                    SAT 08/09/97 12:08 Page:985
  37227 35 032005   000024 236000 36                 LDQ     20
        35 032006   000003 756100                    STQ     3,,PR0

  37228 35 032007   000742 236000 0                  LDQ     ELEMENT_ST$
        35 032010   000004 756100                    STQ     4,,PR0

  37229 35 032011   000742 471400 0                  LDP1    ELEMENT_ST$
        35 032012   100006 236100                    LDQ     6,,PR1
        35 032013   000005 756100                    STQ     5,,PR0

  37230 35 032014   000130 236007                    LDQ     88,DL
        35 032015   000000 552104                    STBQ    0,'04'O,PR0

  37231 35 032016   000000 236003                    LDQ     0,DU
        35 032017   000000 552110                    STBQ    0,'10'O,PR0

  37232 35 032020   000104 236000 36                 LDQ     68
        35 032021   000000 356100                    ANSQ    0,,PR0

  37233 35 032022   000105 236000 36                 LDQ     69
        35 032023   000000 356100                    ANSQ    0,,PR0

  37234 35 032024   000106 236000 36                 LDQ     70
        35 032025   000000 356100                    ANSQ    0,,PR0

  37235 35 032026   000107 236000 36                 LDQ     71
        35 032027   000000 356100                    ANSQ    0,,PR0

     5404    37238
     5405    37239    3        ELEMENT_ST$ -> CONDITION.QLT$ = ELEMENT_QLT$;

  37239 35 032030   000743 236000 0                  LDQ     ELEMENT_QLT$
        35 032031   100007 756100                    STQ     7,,PR1

     5406    37240    3        ELEMENT_ST$ -> ST.DNT$ -> DNT.ST$ = ELEMENT_ST$;

  37240 35 032032   100006 473500                    LDP3    6,,PR1
PL6.E3A0      #001=Z8EM$SEMANTICS_DATA_DIV File=Z8EM.:Z8A6TSI                    SAT 08/09/97 12:08 Page:986
        35 032033   000742 236000 0                  LDQ     ELEMENT_ST$
        35 032034   300001 756100                    STQ     1,,PR3

     5407    37241
     5408    37242    3        IF MNEMONIC_QLT$ -> QLT.SON ~= ADDR(NIL) THEN

  37242 35 032035   000737 473400 0                  LDP3    MNEMONIC_QLT$
        35 032036   300003 236100                    LDQ     3,,PR3
        35 032037   000024 116000 36                 CMPQ    20
        35 032040   032045 600000 35                 TZE     s:37245

     5409    37243    3          MNEMONIC_QLT$ -> QLT.SON -> QLT.BROTHER = ELEMENT_QLT$;

  37243 35 032041   300003 474500                    LDP4    3,,PR3
        35 032042   000743 236000 0                  LDQ     ELEMENT_QLT$
        35 032043   400002 756100                    STQ     2,,PR4
        35 032044   032047 710000 35                 TRA     s:37247

     5410    37244    3        ELSE
     5411    37245    3          MNEMONIC_QLT$ -> QLT.SON = ELEMENT_QLT$;

  37245 35 032045   000743 236000 0                  LDQ     ELEMENT_QLT$
        35 032046   300003 756100                    STQ     3,,PR3

     5412    37246
     5413    37247    4        DO CASE (CURRENT_ELEMENT$ -> LX_LIST.HEAD$ -> LX_ITEM.SYMBOL);

  37247 35 032047   000740 474400 0                  LDP4    CURRENT_ELEMENT$
        35 032050   400004 475500                    LDP5    4,,PR4
        35 032051   500003 235100                    LDA     3,,PR5
        35 032052   000473 135007                    SBLA    315,DL
        35 032053   000003 115007                    CMPA    3,DL
        35 032054   032056 602005 35                 TNC     s:37247+7,AL
        35 032055   032072 710000 35                 TRA     s:37255
        35 032056   032066 710000 35                 TRA     s:37252
        35 032057   032072 710000 35                 TRA     s:37255
        35 032060   032061 710000 35                 TRA     s:37249
PL6.E3A0      #001=Z8EM$SEMANTICS_DATA_DIV File=Z8EM.:Z8A6TSI                    SAT 08/09/97 12:08 Page:987

     5414    37248    4          CASE (%RSV_WRD_ON);

     5415    37249    4            MNEMONIC_ST$ -> SWITCH.ON$ = ELEMENT_ST$;

  37249 35 032061   000736 476400 0                  LDP6    @MNEMONIC_ST$
        35 032062   600000 477500                    LDP7    0,,PR6
        35 032063   000742 236000 0                  LDQ     ELEMENT_ST$
        35 032064   700005 756100                    STQ     5,,PR7
        35 032065   032072 710000 35                 TRA     s:37255

     5416    37250
     5417    37251    4          CASE (%RSV_WRD_OFF);

     5418    37252    4            MNEMONIC_ST$ -> SWITCH.OFF$ = ELEMENT_ST$;

  37252 35 032066   000736 476400 0                  LDP6    @MNEMONIC_ST$
        35 032067   600000 477500                    LDP7    0,,PR6
        35 032070   000742 236000 0                  LDQ     ELEMENT_ST$
        35 032071   700001 756100                    STQ     1,,PR7

     5419    37253    4        END;

     5420    37254
     5421    37255    3        CURRENT_ELEMENT$ = CURRENT_ELEMENT$ -> LX_ITEM.LINK;

  37255 35 032072   400007 236100                    LDQ     7,,PR4
        35 032073   000740 756000 0                  STQ     CURRENT_ELEMENT$

     5422    37256    3      END; /* While */

  37256 35 032074   000024 116000 36                 CMPQ    20
        35 032075   031641 601000 35                 TNZ     s:37125

     5423    37257
     5424    37258    2   END SWITCH_STATUS;

PL6.E3A0      #001=Z8EM$SEMANTICS_DATA_DIV File=Z8EM.:Z8A6TSI                    SAT 08/09/97 12:08 Page:988
  37258 35 032076   000734 221200 0                  LDX1  ! SWITCH#+1
        35 032077   000001 702211                    TSX2  ! 1,X1

     5425    37259        %EJECT;
PL6.E3A0      #001=Z8EM$SEMANTICS_DATA_DIV File=Z8EM.:Z8A6TSI                    SAT 08/09/97 12:08 Page:989
     5426    37260        /*===================*/
     5427    37261    1     SYMBOLIC_CHARACTERS: PROC (KEY_WORD$, PHRASE$, ALPHA$);

  37261 35 032100   000744 741200 0     SYMBOLIC_CH* STX1  ! ELEMENT_QLT$+1

     5428    37262        /*===================*/
     5429    37263
     5430    37264    2   DCL KEY_WORD$          PTR;
     5431    37265    2   DCL PHRASE$            PTR;
     5432    37266    2   DCL ALPHA$             PTR;
     5433    37267
     5434    37268    2   DCL LIST$              PTR;
     5435    37269    2   DCL ALPHA_ST$          PTR;
     5436    37270
     5437    37271
     5438    37272    2      IF COMCOM.OB.FIPS.LEVEL >= %INT_LEV THEN

  37272 35 032101   000036 720000 xsym               LXL0    COMCOM+30
        35 032102   000002 100003                    CMPX0   2,DU
        35 032103   032120 604000 35                 TMI     s:37276

     5439    37273    2        CALL Z8AE$ERROR (%E$LEVEL_CHECK,

  37273 35 032104   000745 470400 0                  LDP0    @KEY_WORD$
        35 032105   000000 471500                    LDP1    0,,PR0
        35 032106   100006 633500                    EPPR3   6,,PR1
        35 032107   001014 453400 0                  STP3    PROC$+4
        35 032110   100005 634500                    EPPR4   5,,PR1
        35 032111   001013 454400 0                  STP4    PROC$+3
        35 032112   000004 236000 36                 LDQ     4
        35 032113   001012 756000 0                  STQ     PROC$+2
        35 032114   001012 630400 0                  EPPR0   PROC$+2
        35 032115   000000 631400 36                 EPPR1   0
        35 032116   000000 701000 xent               TSX1    Z8AE$ERROR
        35 032117   000000 011000                    NOP     0

     5440    37274    2                         KEY_WORD$ -> LX_ITEM.LINE,
PL6.E3A0      #001=Z8EM$SEMANTICS_DATA_DIV File=Z8EM.:Z8A6TSI                    SAT 08/09/97 12:08 Page:990
     5441    37275    2                         KEY_WORD$ -> LX_ITEM.COLUMN);
     5442    37276    2      IF ALPHA$ = ADDR(NIL) THEN

  37276 35 032120   000747 470400 0                  LDP0    @ALPHA$
        35 032121   000000 236100                    LDQ     0,,PR0
        35 032122   000024 116000 36                 CMPQ    20
        35 032123   032127 601000 35                 TNZ     s:37278

     5443    37277    2        ALPHA_ST$ = ADDR(NIL);

  37277 35 032124   000024 236000 36                 LDQ     20
        35 032125   000751 756000 0                  STQ     ALPHA_ST$
        35 032126   032221 710000 35                 TRA     s:37299

     5444    37278    2      ELSE IF ALPHA$ -> LX_TERMINAL.SYMBOL ~= %NAME THEN

  37278 35 032127   000000 471500                    LDP1    0,,PR0
        35 032130   100003 235100                    LDA     3,,PR1
        35 032131   000027 115007                    CMPA    23,DL
        35 032132   032145 600000 35                 TZE     s:37282

     5445    37279             /* ASCII, EBCDIC, GBCD, etc. */
     5446    37280    2        CALL COMMON_ALPHABET_NAME (ALPHA$, ALPHA$, ALPHA_ST$, P$);

  37280 35 032133   000306 236000 36                 LDQ     198
        35 032134   000224 756000 0                  STQ     @TABLE_ETT$
        35 032135   000603 236000 36                 LDQ     387
        35 032136   000747 235000 0                  LDA     @ALPHA$
        35 032137   000222 757000 0                  STAQ    @ALPHA_TYPE$
        35 032140   000747 236000 0                  LDQ     @ALPHA$
        35 032141   000221 756000 0                  STQ     @NAME$
        35 032142   005144 701000 35                 TSX1    COMMON_ALPHABET_NAME
        35 032143   000000 011000                    NOP     0
        35 032144   032221 710000 35                 TRA     s:37299

     5447    37281    2      ELSE
     5448    37282    2        CALL Z8DO$QUALIFY_TERMINAL (ALPHA$, ALPHA_ST$)
PL6.E3A0      #001=Z8EM$SEMANTICS_DATA_DIV File=Z8EM.:Z8A6TSI                    SAT 08/09/97 12:08 Page:991

  37282 35 032145   000603 236000 36                 LDQ     387
        35 032146   000747 235000 0                  LDA     @ALPHA$
        35 032147   001012 757000 0                  STAQ    PROC$+2
        35 032150   001012 630400 0                  EPPR0   PROC$+2
        35 032151   000025 631400 36                 EPPR1   21
        35 032152   000000 701000 xent               TSX1    Z8DO$QUALIFY_TERMINAL
        35 032153   032207 702000 35                 TSX2    s:37295

     5449    37283    2          WHENRETURN
     5450    37284    3            DO; /* Make sure it is indeed an ALPHABET */

     5451    37285    4              IF ALPHA_ST$ -> ST.ID ~= %ALPHABET THEN DO;

  37285 35 032154   000751 470400 0                  LDP0    ALPHA_ST$
        35 032155   000000 220100                    LDX0    0,,PR0
        35 032156   000763 100003                    CMPX0   499,DU
        35 032157   032206 600000 35                 TZE     s:37290+2

     5452    37286    4                CALL Z8AE$ERROR (%E$ALPHABET_EXPECTED,

  37286 35 032160   000747 471400 0                  LDP1    @ALPHA$
        35 032161   100000 473500                    LDP3    0,,PR1
        35 032162   300006 634500                    EPPR4   6,,PR3
        35 032163   001014 454400 0                  STP4    PROC$+4
        35 032164   300005 635500                    EPPR5   5,,PR3
        35 032165   001013 455400 0                  STP5    PROC$+3
        35 032166   000153 236000 36                 LDQ     107
        35 032167   001012 756000 0                  STQ     PROC$+2
        35 032170   001012 630400 0                  EPPR0   PROC$+2
        35 032171   000000 631400 36                 EPPR1   0
        35 032172   000000 701000 xent               TSX1    Z8AE$ERROR
        35 032173   000000 011000                    NOP     0

     5453    37287    4                                 ALPHA$ -> LX_TERMINAL.LINE,
     5454    37288    4                                 ALPHA$ -> LX_TERMINAL.COLUMN);
     5455    37289    4                CALL Z8ED$DISPOSE_ABSSYN_TREE (PHRASE$ -> LX_LIST.HEAD$);
PL6.E3A0      #001=Z8EM$SEMANTICS_DATA_DIV File=Z8EM.:Z8A6TSI                    SAT 08/09/97 12:08 Page:992

  37289 35 032174   000746 470400 0                  LDP0    @PHRASE$
        35 032175   000000 471500                    LDP1    0,,PR0
        35 032176   100004 633500                    EPPR3   4,,PR1
        35 032177   001012 453400 0                  STP3    PROC$+2
        35 032200   001012 630400 0                  EPPR0   PROC$+2
        35 032201   000036 631400 36                 EPPR1   30
        35 032202   000000 701000 xent               TSX1    Z8ED$DISPOSE_ABSSYN_TREE
        35 032203   000000 011000                    NOP     0

     5456    37290    4                RETURN;

  37290 35 032204   000744 221200 0                  LDX1  ! ELEMENT_QLT$+1
        35 032205   000001 702211                    TSX2  ! 1,X1
        35 032206   032221 710000 35                 TRA     s:37299

     5457    37291    4              END;
     5458    37292    3            END;
     5459    37293    2          WHENALTRETURN
     5460    37294    3            DO;

     5461    37295    3              CALL Z8ED$DISPOSE_ABSSYN_TREE (PHRASE$ -> LX_LIST.HEAD$);

  37295 35 032207   000746 470400 0                  LDP0    @PHRASE$
        35 032210   000000 471500                    LDP1    0,,PR0
        35 032211   100004 633500                    EPPR3   4,,PR1
        35 032212   001012 453400 0                  STP3    PROC$+2
        35 032213   001012 630400 0                  EPPR0   PROC$+2
        35 032214   000036 631400 36                 EPPR1   30
        35 032215   000000 701000 xent               TSX1    Z8ED$DISPOSE_ABSSYN_TREE
        35 032216   000000 011000                    NOP     0

     5462    37296    3              RETURN;

  37296 35 032217   000744 221200 0                  LDX1  ! ELEMENT_QLT$+1
        35 032220   000001 702211                    TSX2  ! 1,X1

PL6.E3A0      #001=Z8EM$SEMANTICS_DATA_DIV File=Z8EM.:Z8A6TSI                    SAT 08/09/97 12:08 Page:993
     5463    37297    3            END;
     5464    37298
     5465    37299    2      LIST$ = PHRASE$ -> LX_LIST.HEAD$;

  37299 35 032221   000746 470400 0                  LDP0    @PHRASE$
        35 032222   000000 471500                    LDP1    0,,PR0
        35 032223   100004 236100                    LDQ     4,,PR1
        35 032224   000750 756000 0                  STQ     LIST$

     5466    37300
     5467    37301    3      DO WHILE (LIST$ ~= ADDR(NIL));

  37301 35 032225   032235 710000 35                 TRA     s:37305

     5468    37302    3        CALL PROCESS_SYMBOLIC_CHAR (LIST$, ALPHA_ST$);

  37302 35 032226   000604 237000 36                 LDAQ    388
        35 032227   000560 757000 0                  STAQ    @LIST$
        35 032230   023661 701000 35                 TSX1    PROCESS_SYMBOLIC_CHAR
        35 032231   000000 011000                    NOP     0

     5469    37303
     5470    37304    3        LIST$ = LIST$ -> LX_LIST.LINK;

  37304 35 032232   000750 470400 0                  LDP0    LIST$
        35 032233   000007 236100                    LDQ     7,,PR0
        35 032234   000750 756000 0                  STQ     LIST$

     5471    37305    3      END;

  37305 35 032235   000024 116000 36                 CMPQ    20
        35 032236   032226 601000 35                 TNZ     s:37302

     5472    37306
     5473    37307    2      CALL Z8ED$DISPOSE_ABSSYN_TREE (PHRASE$ -> LX_LIST.HEAD$);

  37307 35 032237   000746 470400 0                  LDP0    @PHRASE$
PL6.E3A0      #001=Z8EM$SEMANTICS_DATA_DIV File=Z8EM.:Z8A6TSI                    SAT 08/09/97 12:08 Page:994
        35 032240   000000 471500                    LDP1    0,,PR0
        35 032241   100004 633500                    EPPR3   4,,PR1
        35 032242   001012 453400 0                  STP3    PROC$+2
        35 032243   001012 630400 0                  EPPR0   PROC$+2
        35 032244   000036 631400 36                 EPPR1   30
        35 032245   000000 701000 xent               TSX1    Z8ED$DISPOSE_ABSSYN_TREE
        35 032246   000000 011000                    NOP     0

     5474    37308
     5475    37309    2   END SYMBOLIC_CHARACTERS;

  37309 35 032247   000744 221200 0                  LDX1  ! ELEMENT_QLT$+1
        35 032250   000001 702211                    TSX2  ! 1,X1

     5476    37310        %EJECT;
PL6.E3A0      #001=Z8EM$SEMANTICS_DATA_DIV File=Z8EM.:Z8A6TSI                    SAT 08/09/97 12:08 Page:995
     5477    37311        /*================*/
     5478    37312    1     UPDATE_PROC_SUPP: PROC (PROC$);

  37312 35 032251   000752 741200 0     UPDATE_PROC* STX1  ! ALPHA_ST$+1

     5479    37313        /*================*/
     5480    37314
     5481    37315    2        DCL PROC$         PTR;
     5482    37316    2        DCL F$            PTR; /* To fathers proc_supp */
     5483    37317    2        DCL P$            PTR; /* To current proc_supp */
     5484    37318
     5485    37319
     5486    37320
     5487    37321    2        O1COM.SECTION_FOUND = FALSE;

  37321 35 032252   000063 450000 xsym               STZ     O1COM+51

     5488    37322
     5489    37323    2        IF PROC$ -> PROC_.FATHER = ADDR(NIL) THEN

  37323 35 032253   000753 470400 0                  LDP0    @PROC$
        35 032254   000000 471500                    LDP1    0,,PR0
        35 032255   100011 236100                    LDQ     9,,PR1
        35 032256   000024 116000 36                 CMPQ    20
        35 032257   032261 601000 35                 TNZ     s:37326

     5490    37324    2          RETURN;

  37324 35 032260   000001 702211                    TSX2  ! 1,X1

     5491    37325
     5492    37326    2        P$ = PROC$ -> PROC_.PROC_SUPP$;

  37326 35 032261   100001 236100                    LDQ     1,,PR1
        35 032262   000755 756000 0                  STQ     P$

     5493    37327    2        F$ = PROC$ -> PROC_.FATHER -> PROC_.PROC_SUPP$;
PL6.E3A0      #001=Z8EM$SEMANTICS_DATA_DIV File=Z8EM.:Z8A6TSI                    SAT 08/09/97 12:08 Page:996

  37327 35 032263   100011 473500                    LDP3    9,,PR1
        35 032264   300001 236100                    LDQ     1,,PR3
        35 032265   000754 756000 0                  STQ     F$

     5494    37328
     5495    37329    2        PROC$ -> PROC_.B.COMMA_IS_DECIMAL = PROC$ -> PROC_.FATHER ->

  37329 35 032266   300003 236100                    LDQ     3,,PR3
        35 032267   100003 676100                    ERQ     3,,PR1
        35 032270   010000 376003                    ANQ     4096,DU
        35 032271   100003 656100                    ERSQ    3,,PR1

     5496    37330    2                                            PROC_.B.COMMA_IS_DECIMAL;
     5497    37331
     5498    37332    2        P$ -> PROC_SUPP.CURRENCY_SIGN = F$ -> PROC_SUPP.CURRENCY_SIGN;

  37332 35 032272   000755 471400 0                  LDP1    P$
        35 032273   000754 473400 0                  LDP3    F$
        35 032274   300001 236100                    LDQ     1,,PR3
        35 032275   100001 552140                    STBQ    1,'40'O,PR1

     5499    37333    2        P$ -> PROC_SUPP.LOW_VALUE = F$ -> PROC_SUPP.LOW_VALUE;

  37333 35 032276   300001 236100                    LDQ     1,,PR3
        35 032277   100001 552120                    STBQ    1,'20'O,PR1

     5500    37334    2        P$ -> PROC_SUPP.HIGH_VALUE = F$ -> PROC_SUPP.HIGH_VALUE;

  37334 35 032300   300001 236100                    LDQ     1,,PR3
        35 032301   100001 552110                    STBQ    1,'10'O,PR1

     5501    37335    2        P$ -> PROC_SUPP.COLLATING_SEQ$ = F$ -> PROC_SUPP.COLLATING_SEQ$;

  37335 35 032302   300002 236100                    LDQ     2,,PR3
        35 032303   100002 756100                    STQ     2,,PR1

PL6.E3A0      #001=Z8EM$SEMANTICS_DATA_DIV File=Z8EM.:Z8A6TSI                    SAT 08/09/97 12:08 Page:997
     5502    37336
     5503    37337    2        P$ -> PROC_SUPP.DISPLAY_SIGN_TYPE = O1COM.DISPLAY_SIGN_TYPE;

  37337 35 032304   000054 235000 xsym               LDA     O1COM+44
        35 032305   100005 755100                    STA     5,,PR1

     5504    37338    2        P$ -> PROC_SUPP.DISPLAY_SIGN_POS = O1COM.DISPLAY_SIGN_POS;

  37338 35 032306   000053 235000 xsym               LDA     O1COM+43
        35 032307   100004 755100                    STA     4,,PR1

     5505    37339    2        P$ -> PROC_SUPP.COMP_4_SIGN_POS = O1COM.COMP_4_SIGN_POS;

  37339 35 032310   000055 235000 xsym               LDA     O1COM+45
        35 032311   100006 755100                    STA     6,,PR1

     5506    37340    2        P$ -> PROC_SUPP.COMP_DEFAULT = O1COM.COMP_DEFAULT;

  37340 35 032312   000056 235000 xsym               LDA     O1COM+46
        35 032313   100007 755100                    STA     7,,PR1

     5507    37341
     5508    37342    2        PROC$ -> PROC_.PROC_SUPP$ -> PROC_SUPP.INIT_PROC$ = ADDR(NIL);

  37342 35 032314   000000 474500                    LDP4    0,,PR0
        35 032315   400001 475500                    LDP5    1,,PR4
        35 032316   000024 236000 36                 LDQ     20
        35 032317   500003 756100                    STQ     3,,PR5

     5509    37343    2        PROC$ -> PROC_.PROC_SUPP$ -> PROC_SUPP.ESC_LIST$  = ADDR(NIL);

  37343 35 032320   000000 474500                    LDP4    0,,PR0
        35 032321   400001 475500                    LDP5    1,,PR4
        35 032322   000024 236000 36                 LDQ     20
        35 032323   500010 756100                    STQ     8,,PR5

     5510    37344
PL6.E3A0      #001=Z8EM$SEMANTICS_DATA_DIV File=Z8EM.:Z8A6TSI                    SAT 08/09/97 12:08 Page:998
     5511    37345    2   END UPDATE_PROC_SUPP;

  37345 35 032324   000752 221200 0                  LDX1  ! ALPHA_ST$+1
        35 032325   000001 702211                    TSX2  ! 1,X1

     5512    37346        %EJECT;
PL6.E3A0      #001=Z8EM$SEMANTICS_DATA_DIV File=Z8EM.:Z8A6TSI                    SAT 08/09/97 12:08 Page:999
     5513    37347        /*=======================*/
     5514    37348    1     VERIFY_FIRST_DD_CLAUSE : PROC (DD_CLAUSE$);

  37348 35 032326   000756 741200 0     VERIFY_FIRS* STX1  ! P$+1

     5515    37349        /*=======================*/
     5516    37350
     5517    37351    2     DCL DD_CLAUSE$ PTR;
     5518    37352
     5519    37353    2      IF (DD_CLAUSE$ -> LX_REC_DECL.P.INDEXED$ ~= ADDR(NIL)

  37353 35 032327   000757 470400 0                  LDP0    @DD_CLAUSE$
        35 032330   000000 471500                    LDP1    0,,PR0
        35 032331   100017 236100                    LDQ     15,,PR1
        35 032332   000024 116000 36                 CMPQ    20
        35 032333   032340 600000 35                 TZE     s:37353+9
        35 032334   100017 473500                    LDP3    15,,PR1
        35 032335   300000 236100                    LDQ     0,,PR3
        35 032336   400000 316007                    CANQ    -131072,DL
        35 032337   032347 600000 35                 TZE     s:37358
        35 032340   100020 236100                    LDQ     16,,PR1
        35 032341   000024 116000 36                 CMPQ    20
        35 032342   032353 600000 35                 TZE     s:37360
        35 032343   100020 473500                    LDP3    16,,PR1
        35 032344   300000 236100                    LDQ     0,,PR3
        35 032345   400000 316007                    CANQ    -131072,DL
        35 032346   032353 601000 35                 TNZ     s:37360

     5520    37354    2            AND NOT DD_CLAUSE$ -> LX_REC_DECL.P.INDEXED$ -> LX_LIST.B.ERROR)
     5521    37355    2          OR
     5522    37356    2         (DD_CLAUSE$ -> LX_REC_DECL.P.KEY$ ~= ADDR(NIL)
     5523    37357    2            AND NOT DD_CLAUSE$ -> LX_REC_DECL.P.KEY$ -> LX_LIST.B.ERROR) THEN
     5524    37358    2       CALL Z8AE$ERROR(%E$OCCURS_ORDERING_ERROR);

  37358 35 032347   000066 630400 36                 EPPR0   54
        35 032350   000036 631400 36                 EPPR1   30
        35 032351   000000 701000 xent               TSX1    Z8AE$ERROR
PL6.E3A0      #001=Z8EM$SEMANTICS_DATA_DIV File=Z8EM.:Z8A6TSI                    SAT 08/09/97 12:08 Page:1000
        35 032352   000000 011000                    NOP     0

     5525    37359
     5526    37360    2   END VERIFY_FIRST_DD_CLAUSE;

  37360 35 032353   000756 221200 0                  LDX1  ! P$+1
        35 032354   000001 702211                    TSX2  ! 1,X1

     5527    37361        %EJECT;
PL6.E3A0      #001=Z8EM$SEMANTICS_DATA_DIV File=Z8EM.:Z8A6TSI                    SAT 08/09/97 12:08 Page:1001
     5528    37362        /*=========================*/
     5529    37363    1     VERIFY_SYMBOLIC_CHARACTER: PROC (INT, INT$, DN$) ALTRET;

  37363 35 032355   000760 741200 0     VERIFY_SYMB* STX1  ! @DD_CLAUSE$+1

     5530    37364        /*=========================*/
     5531    37365
     5532    37366    2   DCL INT                SBIN WORD;
     5533    37367    2   DCL INT$               PTR;
     5534    37368    2   DCL DN$                PTR;
     5535    37369
     5536    37370
     5537    37371    2      IF INT > 511 THEN /* Gtr than 9 bits can hold */

  37371 35 032356   000761 470400 0                  LDP0    @INT
        35 032357   000000 235100                    LDA     0,,PR0
        35 032360   000777 115007                    CMPA    511,DL
        35 032361   032400 604400 35                 TMOZ    s:37380

     5538    37372    3        DO;

     5539    37373    3          CALL Z8AE$ERROR (%E$NUMBER_GTR_512,

  37373 35 032362   000762 471400 0                  LDP1    @INT$
        35 032363   100000 473500                    LDP3    0,,PR1
        35 032364   300006 634500                    EPPR4   6,,PR3
        35 032365   001014 454400 0                  STP4    PROC$+4
        35 032366   300005 635500                    EPPR5   5,,PR3
        35 032367   001013 455400 0                  STP5    PROC$+3
        35 032370   000607 236000 36                 LDQ     391
        35 032371   001012 756000 0                  STQ     PROC$+2
        35 032372   001012 630400 0                  EPPR0   PROC$+2
        35 032373   000000 631400 36                 EPPR1   0
        35 032374   000000 701000 xent               TSX1    Z8AE$ERROR
        35 032375   000000 011000                    NOP     0

     5540    37374    3                           INT$ -> LX_TERMINAL.LINE,
PL6.E3A0      #001=Z8EM$SEMANTICS_DATA_DIV File=Z8EM.:Z8A6TSI                    SAT 08/09/97 12:08 Page:1002
     5541    37375    3                           INT$ -> LX_TERMINAL.COLUMN);
     5542    37376
     5543    37377    3          ALTRETURN;

  37377 35 032376   000760 221200 0                  LDX1  ! @DD_CLAUSE$+1
        35 032377   000000 702211                    TSX2  ! 0,X1

     5544    37378    3        END;
     5545    37379
     5546    37380    2      IF INT < 0 THEN /* Below legal minimum */

  37380 35 032400   000000 115003                    CMPA    0,DU
        35 032401   032420 605000 35                 TPL     s:37389

     5547    37381    3        DO;

     5548    37382    3          CALL Z8AE$ERROR (%E$MUST_BE_GTR_ZERO,

  37382 35 032402   000762 471400 0                  LDP1    @INT$
        35 032403   100000 473500                    LDP3    0,,PR1
        35 032404   300006 634500                    EPPR4   6,,PR3
        35 032405   001014 454400 0                  STP4    PROC$+4
        35 032406   300005 635500                    EPPR5   5,,PR3
        35 032407   001013 455400 0                  STP5    PROC$+3
        35 032410   000611 236000 36                 LDQ     393
        35 032411   001012 756000 0                  STQ     PROC$+2
        35 032412   001012 630400 0                  EPPR0   PROC$+2
        35 032413   000000 631400 36                 EPPR1   0
        35 032414   000000 701000 xent               TSX1    Z8AE$ERROR
        35 032415   000000 011000                    NOP     0

     5549    37383    3                           INT$ -> LX_TERMINAL.LINE,
     5550    37384    3                           INT$ -> LX_TERMINAL.COLUMN);
     5551    37385
     5552    37386    3          ALTRETURN;

  37386 35 032416   000760 221200 0                  LDX1  ! @DD_CLAUSE$+1
PL6.E3A0      #001=Z8EM$SEMANTICS_DATA_DIV File=Z8EM.:Z8A6TSI                    SAT 08/09/97 12:08 Page:1003
        35 032417   000000 702211                    TSX2  ! 0,X1

     5553    37387    3        END;
     5554    37388
     5555    37389    2      IF COMCOM.OB.FIPS.LEVEL > 0 THEN

  37389 35 032420   000036 720000 xsym               LXL0    COMCOM+30
        35 032421   032442 604400 35                 TMOZ    s:37399

     5556    37390    2        IF INT > 127 THEN

  37390 35 032422   000177 115007                    CMPA    127,DL
        35 032423   032442 604400 35                 TMOZ    s:37399

     5557    37391    3          DO;

     5558    37392    3            CALL Z8AE$ERROR (%E$ALPHABET_VALUE_GTR_128,

  37392 35 032424   000762 471400 0                  LDP1    @INT$
        35 032425   100000 473500                    LDP3    0,,PR1
        35 032426   300006 634500                    EPPR4   6,,PR3
        35 032427   001014 454400 0                  STP4    PROC$+4
        35 032430   300005 635500                    EPPR5   5,,PR3
        35 032431   001013 455400 0                  STP5    PROC$+3
        35 032432   000223 236000 36                 LDQ     147
        35 032433   001012 756000 0                  STQ     PROC$+2
        35 032434   001012 630400 0                  EPPR0   PROC$+2
        35 032435   000000 631400 36                 EPPR1   0
        35 032436   000000 701000 xent               TSX1    Z8AE$ERROR
        35 032437   000000 011000                    NOP     0

     5559    37393    3                             INT$ -> LX_TERMINAL.LINE,
     5560    37394    3                             INT$ -> LX_TERMINAL.COLUMN);
     5561    37395
     5562    37396    3            ALTRETURN;

  37396 35 032440   000760 221200 0                  LDX1  ! @DD_CLAUSE$+1
PL6.E3A0      #001=Z8EM$SEMANTICS_DATA_DIV File=Z8EM.:Z8A6TSI                    SAT 08/09/97 12:08 Page:1004
        35 032441   000000 702211                    TSX2  ! 0,X1

     5563    37397    3          END;
     5564    37398
     5565    37399    2      IF DN$ -> LX_TERMINAL.DNT$ -> DNT.ST$ ~= ADDR(NIL)

  37399 35 032442   000763 471400 0                  LDP1    @DN$
        35 032443   100000 473500                    LDP3    0,,PR1
        35 032444   300002 474500                    LDP4    2,,PR3
        35 032445   400001 236100                    LDQ     1,,PR4
        35 032446   000024 116000 36                 CMPQ    20
        35 032447   032473 600000 35                 TZE     s:37411
        35 032450   400001 475500                    LDP5    1,,PR4
        35 032451   500011 236100                    LDQ     9,,PR5
        35 032452   000057 116000 xsym               CMPQ    O1COM+47
        35 032453   032473 601000 35                 TNZ     s:37411

     5566    37400    2      AND DN$ -> LX_TERMINAL.DNT$ -> DNT.ST$ ->
     5567    37401    2          SYMBOLIC_CHAR.PROC$ = O1COM.CURRENT_PROC$ THEN
     5568    37402    3        DO;

     5569    37403    3          IF NOT DN$ -> LX_TERMINAL.DNT$ -> DNT.B.ERROR_VARIABLE THEN

  37403 35 032454   400003 236100                    LDQ     3,,PR4
        35 032455   000100 316003                    CANQ    64,DU
        35 032456   032471 601000 35                 TNZ     s:37408

     5570    37404    3            CALL Z8AE$ERROR (%E$SYMBOLIC_CHAR_NOT_UNIQUE,

  37404 35 032457   300006 636500                    EPPR6   6,,PR3
        35 032460   001014 456400 0                  STP6    PROC$+4
        35 032461   300005 634500                    EPPR4   5,,PR3
        35 032462   001013 454400 0                  STP4    PROC$+3
        35 032463   000613 236000 36                 LDQ     395
        35 032464   001012 756000 0                  STQ     PROC$+2
        35 032465   001012 630400 0                  EPPR0   PROC$+2
        35 032466   000000 631400 36                 EPPR1   0
PL6.E3A0      #001=Z8EM$SEMANTICS_DATA_DIV File=Z8EM.:Z8A6TSI                    SAT 08/09/97 12:08 Page:1005
        35 032467   000000 701000 xent               TSX1    Z8AE$ERROR
        35 032470   000000 011000                    NOP     0

     5571    37405    3                             DN$ -> LX_TERMINAL.LINE,
     5572    37406    3                             DN$ -> LX_TERMINAL.COLUMN);
     5573    37407
     5574    37408    3          ALTRETURN;

  37408 35 032471   000760 221200 0                  LDX1  ! @DD_CLAUSE$+1
        35 032472   000000 702211                    TSX2  ! 0,X1

     5575    37409    3        END;
     5576    37410
     5577    37411    2   END VERIFY_SYMBOLIC_CHARACTER;

  37411 35 032473   000001 702211                    TSX2  ! 1,X1

     5578    37412        %EJECT;
PL6.E3A0      #001=Z8EM$SEMANTICS_DATA_DIV File=Z8EM.:Z8A6TSI                    SAT 08/09/97 12:08 Page:1006
     5579    37413        /*========*/
     5580    37414    1     VFC_CHAR: PROC (CHAR$, DN_LIST$);

  37414 35 032474   000764 741200 0     VFC_CHAR     STX1  ! @DN$+1

     5581    37415        /*========*/
     5582    37416
     5583    37417    2        DCL CHAR$         PTR; /* To VFC_CHAR, LX_TERM */
     5584    37418    2        DCL DN_LIST$      PTR; /* To list of DN's */
     5585    37419
     5586    37420    2        DCL LIST$         PTR;
     5587    37421    2        DCL MNEM$         PTR;
     5588    37422    2        DCL DNT$$         PTR;
     5589    37423    2        DCL VFC           CHAR(1);
     5590    37424
     5591    37425
     5592    37426    2        LIST$ = DN_LIST$ -> LX_LIST.HEAD$;

  37426 35 032475   000766 470400 0                  LDP0    @DN_LIST$
        35 032476   000000 471500                    LDP1    0,,PR0
        35 032477   100004 236100                    LDQ     4,,PR1
        35 032500   000767 756000 0                  STQ     LIST$

     5593    37427
     5594    37428    2        CALL Z8EC$INTERNAL_STRING_REP (CHAR$, DNT$$);

  37428 35 032501   000614 236000 36                 LDQ     396
        35 032502   000765 235000 0                  LDA     @CHAR$
        35 032503   001012 757000 0                  STAQ    PROC$+2
        35 032504   001012 630400 0                  EPPR0   PROC$+2
        35 032505   000025 631400 36                 EPPR1   21
        35 032506   000000 701000 xent               TSX1    Z8EC$INTERNAL_STRING_REP
        35 032507   000000 011000                    NOP     0

     5595    37429
     5596    37430    2        IF (DNT$$ -> DNT.TEXT.LENGTH - 2) > 1 THEN

PL6.E3A0      #001=Z8EM$SEMANTICS_DATA_DIV File=Z8EM.:Z8A6TSI                    SAT 08/09/97 12:08 Page:1007
  37430 35 032510   000771 470400 0                  LDP0    DNT$$
        35 032511   000004 220100                    LDX0    4,,PR0
        35 032512   000004 100003                    CMPX0   4,DU
        35 032513   032542 602000 35                 TNC     s:37468

     5597    37431    3          DO;

     5598    37432                 %CONDITIONAL_ERROR (@LX_ITEM$ = CHAR$,
     5599    37433                                     @ERROR#   = %E$MUST_BE_1_CHAR_LONG,
     5600    37434                                     @LINE     = CHAR$ -> LX_ITEM.LINE,
     5601    37435                                     @COLUMN   = CHAR$ -> LX_ITEM.COLUMN);

  37445 35 032514   000765 471400 0                  LDP1    @CHAR$
        35 032515   100000 473500                    LDP3    0,,PR1
        35 032516   300000 236100                    LDQ     0,,PR3
        35 032517   400000 316007                    CANQ    -131072,DL
        35 032520   032537 601000 35                 TNZ     s:37465

  37447 35 032521   300006 634500                    EPPR4   6,,PR3
        35 032522   001014 454400 0                  STP4    PROC$+4
        35 032523   300005 635500                    EPPR5   5,,PR3
        35 032524   001013 455400 0                  STP5    PROC$+3
        35 032525   000616 236000 36                 LDQ     398
        35 032526   001012 756000 0                  STQ     PROC$+2
        35 032527   001012 630400 0                  EPPR0   PROC$+2
        35 032530   000000 631400 36                 EPPR1   0
        35 032531   000000 701000 xent               TSX1    Z8AE$ERROR
        35 032532   000000 011000                    NOP     0

  37456 35 032533   000765 470400 0                  LDP0    @CHAR$
        35 032534   000000 471500                    LDP1    0,,PR0
        35 032535   400000 236007                    LDQ     -131072,DL
        35 032536   100000 256100                    ORSQ    0,,PR1

     5602    37465    3            VFC = ' ';

  37465 35 032537   040000 236003                    LDQ     16384,DU
PL6.E3A0      #001=Z8EM$SEMANTICS_DATA_DIV File=Z8EM.:Z8A6TSI                    SAT 08/09/97 12:08 Page:1008
        35 032540   000772 756000 0                  STQ     VFC

     5603    37466    3          END;

  37466 35 032541   032546 710000 35                 TRA     s:37471

     5604    37467    2        ELSE
     5605    37468    2          VFC = SUBSTR (DNT$$ -> DNT.TEXT.NAME,1,1);

  37468 35 032542   000004 236100                    LDQ     4,,PR0
        35 032543   000033 736000                    QLS     27
        35 032544   000164 276000 36                 ORQ     116
        35 032545   000772 756000 0                  STQ     VFC

     5606    37469
     5607    37470
     5608    37471    3        DO WHILE (LIST$ ~= ADDR(NIL));

  37471 35 032546   033013 710000 35                 TRA     s:37616

     5609    37472               %NEW_MNEMONIC (@ST$       = MNEM$,
     5610    37473                              @VFC_CHAR  = TRUE,
     5611    37474                              @VFC_CHAR_ = VFC,
     5612    37475                              @LINE_NO   = LIST$ -> LX_TERMINAL.LINE,
     5613    37476                              @DNT$      = LIST$ -> LX_TERMINAL.DNT$,
     5614    37477                              @NEXT      = LIST$ -> LX_TERMINAL.DNT$ -> DNT.ST$);

  37481 35 032547   000002 236000 13                 LDQ     ST_+2
        35 032550   000013 036007                    ADLQ    11,DL
        35 032551   000003 116000 13                 CMPQ    ST_+3
        35 032552   032563 604000 35                 TMI     s:37483

  37482 35 032553   000102 236000 36                 LDQ     66
        35 032554   001012 756000 0                  STQ     PROC$+2
        35 032555   001012 630400 0                  EPPR0   PROC$+2
        35 032556   001013 450400 0                  STP0    PROC$+3
        35 032557   001013 630400 0                  EPPR0   PROC$+3
PL6.E3A0      #001=Z8EM$SEMANTICS_DATA_DIV File=Z8EM.:Z8A6TSI                    SAT 08/09/97 12:08 Page:1009
        35 032560   000036 631400 36                 EPPR1   30
        35 032561   000000 701000 xent               TSX1    Z8AR$RESERVER
        35 032562   000000 011000                    NOP     0

  37483 35 032563   000002 236000 13                 LDQ     ST_+2
        35 032564   000022 736000                    QLS     18
        35 032565   000001 036000 13                 ADLQ    ST_+1
        35 032566   000770 756000 0                  STQ     MNEM$

  37484 35 032567   000013 236007                    LDQ     11,DL
        35 032570   000002 056000 13                 ASQ     ST_+2

  37487 35 032571   000761 220003                    LDX0    497,DU
        35 032572   000770 470400 0                  LDP0    MNEM$
        35 032573   000000 740100                    STX0    0,,PR0

  37488 35 032574   000020 221003                    LDX1    16,DU
        35 032575   000002 741100                    STX1    2,,PR0

  37489 35 032576   000767 471400 0                  LDP1    LIST$
        35 032577   100005 722100                    LXL2    5,,PR1
        35 032600   000002 442100                    SXL2    2,,PR0

  37490 35 032601   000003 450100                    STZ     3,,PR0

  37491 35 032602   100002 473500                    LDP3    2,,PR1
        35 032603   300001 236100                    LDQ     1,,PR3
        35 032604   000004 756100                    STQ     4,,PR0

  37492 35 032605   100002 236100                    LDQ     2,,PR1
        35 032606   000006 756100                    STQ     6,,PR0

  37493 35 032607   000024 236000 36                 LDQ     20
        35 032610   000007 756100                    STQ     7,,PR0

  37497 35 032611   000024 236000 36                 LDQ     20
        35 032612   000012 756100                    STQ     10,,PR0
PL6.E3A0      #001=Z8EM$SEMANTICS_DATA_DIV File=Z8EM.:Z8A6TSI                    SAT 08/09/97 12:08 Page:1010

  37500 35 032613   000057 236000 xsym               LDQ     O1COM+47
        35 032614   000011 756100                    STQ     9,,PR0

  37501 35 032615   000057 236000 xsym               LDQ     O1COM+47
        35 032616   000024 116000 36                 CMPQ    20
        35 032617   032641 600000 35                 TZE     s:37538

  37505 35 032620   000057 473400 xsym               LDP3    O1COM+47
        35 032621   300001 474500                    LDP4    1,,PR3
        35 032622   400012 236100                    LDQ     10,,PR4
        35 032623   000024 116000 36                 CMPQ    20
        35 032624   032633 601000 35                 TNZ     s:37512

  37507 35 032625   000770 236000 0                  LDQ     MNEM$
        35 032626   400011 756100                    STQ     9,,PR4

  37508 35 032627   000057 473400 xsym               LDP3    O1COM+47
        35 032630   300001 474500                    LDP4    1,,PR3
        35 032631   400012 756100                    STQ     10,,PR4

  37509 35 032632   032641 710000 35                 TRA     s:37538

  37512 35 032633   400012 475500                    LDP5    10,,PR4
        35 032634   000770 236000 0                  LDQ     MNEM$
        35 032635   500012 756100                    STQ     10,,PR5

  37513 35 032636   000057 473400 xsym               LDP3    O1COM+47
        35 032637   300001 474500                    LDP4    1,,PR3
        35 032640   400012 756100                    STQ     10,,PR4

  37538 35 032641   000001 450100                    STZ     1,,PR0

  37539 35 032642   000772 236000 0                  LDQ     VFC
        35 032643   000001 552140                    STBQ    1,'40'O,PR0

  37544 35 032644   400000 236003                    LDQ     -131072,DU
PL6.E3A0      #001=Z8EM$SEMANTICS_DATA_DIV File=Z8EM.:Z8A6TSI                    SAT 08/09/97 12:08 Page:1011
        35 032645   000003 256100                    ORSQ    3,,PR0

     5615    37554
     5616    37555    3          LIST$ -> LX_TERMINAL.DNT$ -> DNT.ST$ = MNEM$;

  37555 35 032646   100002 473500                    LDP3    2,,PR1
        35 032647   000770 236000 0                  LDQ     MNEM$
        35 032650   300001 756100                    STQ     1,,PR3

     5617    37556
     5618    37557               %NEW_QLT (@POINTER = MNEM$ -> MNEMONIC.QLT$,
     5619    37558                         @ST$     = MNEM$,
     5620    37559                         @DNT$    = MNEM$ -> MNEMONIC.DNT$,
     5621    37560                         @LEVEL#  = 01);

  37565 35 032651   000002 236000 11                 LDQ     QLT_+2
        35 032652   000006 036007                    ADLQ    6,DL
        35 032653   000003 116000 11                 CMPQ    QLT_+3
        35 032654   032665 602000 35                 TNC     s:37567

  37566 35 032655   000103 236000 36                 LDQ     67
        35 032656   001012 756000 0                  STQ     PROC$+2
        35 032657   001012 633400 0                  EPPR3   PROC$+2
        35 032660   001013 453400 0                  STP3    PROC$+3
        35 032661   001013 630400 0                  EPPR0   PROC$+3
        35 032662   000036 631400 36                 EPPR1   30
        35 032663   000000 701000 xent               TSX1    Z8AR$RESERVER
        35 032664   000000 011000                    NOP     0

  37567 35 032665   000002 236000 11                 LDQ     QLT_+2
        35 032666   000022 736000                    QLS     18
        35 032667   000001 036000 11                 ADLQ    QLT_+1
        35 032670   000770 470400 0                  LDP0    MNEM$
        35 032671   000007 756100                    STQ     7,,PR0

  37568 35 032672   000002 235000 11                 LDA     QLT_+2
        35 032673   000006 035007                    ADLA    6,DL
PL6.E3A0      #001=Z8EM$SEMANTICS_DATA_DIV File=Z8EM.:Z8A6TSI                    SAT 08/09/97 12:08 Page:1012
        35 032674   000002 755000 11                 STA     QLT_+2

  37569 35 032675   000007 471500                    LDP1    7,,PR0
        35 032676   001053 220003                    LDX0    555,DU
        35 032677   100000 740100                    STX0    0,,PR1

  37572 35 032700   000007 471500                    LDP1    7,,PR0
        35 032701   000024 236000 36                 LDQ     20
        35 032702   100001 756100                    STQ     1,,PR1

  37573 35 032703   000007 471500                    LDP1    7,,PR0
        35 032704   000024 236000 36                 LDQ     20
        35 032705   100002 756100                    STQ     2,,PR1

  37574 35 032706   000007 471500                    LDP1    7,,PR0
        35 032707   000024 236000 36                 LDQ     20
        35 032710   100003 756100                    STQ     3,,PR1

  37575 35 032711   000007 471500                    LDP1    7,,PR0
        35 032712   000770 236000 0                  LDQ     MNEM$
        35 032713   100004 756100                    STQ     4,,PR1

  37576 35 032714   000007 471500                    LDP1    7,,PR0
        35 032715   000006 236100                    LDQ     6,,PR0
        35 032716   100005 756100                    STQ     5,,PR1

  37577 35 032717   000007 471500                    LDP1    7,,PR0
        35 032720   000001 236007                    LDQ     1,DL
        35 032721   100000 552104                    STBQ    0,'04'O,PR1

  37578 35 032722   000007 471500                    LDP1    7,,PR0
        35 032723   000000 236003                    LDQ     0,DU
        35 032724   100000 552110                    STBQ    0,'10'O,PR1

  37579 35 032725   000007 471500                    LDP1    7,,PR0
        35 032726   000104 236000 36                 LDQ     68
        35 032727   100000 356100                    ANSQ    0,,PR1
PL6.E3A0      #001=Z8EM$SEMANTICS_DATA_DIV File=Z8EM.:Z8A6TSI                    SAT 08/09/97 12:08 Page:1013

  37580 35 032730   000007 471500                    LDP1    7,,PR0
        35 032731   000105 236000 36                 LDQ     69
        35 032732   100000 356100                    ANSQ    0,,PR1

  37581 35 032733   000007 471500                    LDP1    7,,PR0
        35 032734   000106 236000 36                 LDQ     70
        35 032735   100000 356100                    ANSQ    0,,PR1

  37582 35 032736   000007 471500                    LDP1    7,,PR0
        35 032737   000107 236000 36                 LDQ     71
        35 032740   100000 356100                    ANSQ    0,,PR1

     5622    37585
     5623    37586               %UPDATE_PREV_QLT$ (@NEW_QLT$ = MNEM$ -> MNEMONIC.QLT$);

  37588 35 032741   000424 236000 xsym               LDQ     COMCOM+276
        35 032742   000024 116000 36                 CMPQ    20
        35 032743   032747 600000 35                 TZE     s:37590

  37589 35 032744   000007 236100                    LDQ     7,,PR0
        35 032745   000424 471400 xsym               LDP1    COMCOM+276
        35 032746   100002 756100                    STQ     2,,PR1

  37590 35 032747   000007 236100                    LDQ     7,,PR0
        35 032750   000424 756000 xsym               STQ     COMCOM+276

     5624    37593
     5625    37594               %ADD_XREF (SYM   = MNEM$,
     5626    37595                          ISN   = LIST$ -> LX_ITEM.LINE,
     5627    37596                          TYPE  = %XREF_DCL);

  37598 35 032751   000055 234000 xsym               SZN     COMCOM+45
        35 032752   033010 605000 35                 TPL     s:37615

  37602 35 032753   000002 236000 24                 LDQ     XREF_+2
        35 032754   000002 036007                    ADLQ    2,DL
PL6.E3A0      #001=Z8EM$SEMANTICS_DATA_DIV File=Z8EM.:Z8A6TSI                    SAT 08/09/97 12:08 Page:1014
        35 032755   000003 116000 24                 CMPQ    XREF_+3
        35 032756   032767 602000 35                 TNC     s:37604

  37603 35 032757   000110 236000 36                 LDQ     72
        35 032760   001012 756000 0                  STQ     PROC$+2
        35 032761   001012 631400 0                  EPPR1   PROC$+2
        35 032762   001013 451400 0                  STP1    PROC$+3
        35 032763   001013 630400 0                  EPPR0   PROC$+3
        35 032764   000036 631400 36                 EPPR1   30
        35 032765   000000 701000 xent               TSX1    Z8AR$RESERVER
        35 032766   000000 011000                    NOP     0

  37604 35 032767   000002 236000 24                 LDQ     XREF_+2
        35 032770   000022 736000                    QLS     18
        35 032771   000001 036000 24                 ADLQ    XREF_+1
        35 032772   000000 756000 23                 STQ     XREF$

  37605 35 032773   000002 235000 24                 LDA     XREF_+2
        35 032774   000002 035007                    ADLA    2,DL
        35 032775   000002 755000 24                 STA     XREF_+2

  37606 35 032776   000004 220003                    LDX0    4,DU
        35 032777   000000 470400 23                 LDP0    XREF$
        35 033000   000000 740100                    STX0    0,,PR0

  37609 35 033001   000767 470400 0                  LDP0    LIST$
        35 033002   000005 721100                    LXL1    5,,PR0
        35 033003   000000 471400 23                 LDP1    XREF$
        35 033004   100000 441100                    SXL1    0,,PR1

  37610 35 033005   000770 236000 0                  LDQ     MNEM$
        35 033006   000000 471400 23                 LDP1    XREF$
        35 033007   100001 756100                    STQ     1,,PR1

     5628    37614
     5629    37615    3          LIST$ = LIST$ -> LX_ITEM.LINK;

PL6.E3A0      #001=Z8EM$SEMANTICS_DATA_DIV File=Z8EM.:Z8A6TSI                    SAT 08/09/97 12:08 Page:1015
  37615 35 033010   000767 470400 0                  LDP0    LIST$
        35 033011   000007 236100                    LDQ     7,,PR0
        35 033012   000767 756000 0                  STQ     LIST$

     5630    37616    3        END; /* While */

  37616 35 033013   000767 236000 0                  LDQ     LIST$
        35 033014   000024 116000 36                 CMPQ    20
        35 033015   032547 601000 35                 TNZ     s:37481

     5631    37617
     5632    37618    2        CALL Z8ED$DISPOSE_ABSSYN_TREE (DN_LIST$ -> LX_LIST.HEAD$);

  37618 35 033016   000766 470400 0                  LDP0    @DN_LIST$
        35 033017   000000 471500                    LDP1    0,,PR0
        35 033020   100004 633500                    EPPR3   4,,PR1
        35 033021   001012 453400 0                  STP3    PROC$+2
        35 033022   001012 630400 0                  EPPR0   PROC$+2
        35 033023   000036 631400 36                 EPPR1   30
        35 033024   000000 701000 xent               TSX1    Z8ED$DISPOSE_ABSSYN_TREE
        35 033025   000000 011000                    NOP     0

     5633    37619
     5634    37620    2   END VFC_CHAR;

  37620 35 033026   000764 221200 0                  LDX1  ! @DN$+1
        35 033027   000001 702211                    TSX2  ! 1,X1

     5635    37621        %EJECT;
PL6.E3A0      #001=Z8EM$SEMANTICS_DATA_DIV File=Z8EM.:Z8A6TSI                    SAT 08/09/97 12:08 Page:1016
     5636    37622        /*============*/
     5637    37623    1     WALK_LITERAL: PROC (LITERAL$, ITEM_ST$$, NEXT_SEQ#);

  37623 35 033030   000773 741200 0     WALK_LITERAL STX1  ! VFC+1

     5638    37624        /*============*/
     5639    37625
     5640    37626    2   DCL LITERAL$           PTR;
     5641    37627    2   DCL ITEM_ST$$          PTR;
     5642    37628    2   DCL TABLE$             PTR;
     5643    37629    2   DCL NEXT_SEQ#          UBIN WORD;
     5644    37630
     5645    37631    2   DCL I                  SBIN WORD;
     5646    37632    2   DCL DNT$$              PTR;
     5647    37633    2   DCL VALUE              UBIN WORD;
     5648    37634
     5649    37635
     5650    37636    3      DO CASE (LITERAL$ -> LX_TERMINAL.SYMBOL);

  37636 35 033031   000774 470400 0                  LDP0    @LITERAL$
        35 033032   000000 471500                    LDP1    0,,PR0
        35 033033   100003 235100                    LDA     3,,PR1
        35 033034   000005 115007                    CMPA    5,DL
        35 033035   033037 602005 35                 TNC     s:37636+6,AL
        35 033036   033110 710000 35                 TRA     s:37651
        35 033037   033110 710000 35                 TRA     s:37651
        35 033040   033110 710000 35                 TRA     s:37651
        35 033041   033110 710000 35                 TRA     s:37651
        35 033042   033044 710000 35                 TRA     s:37638
        35 033043   033044 710000 35                 TRA     s:37638

     5651    37637    3        CASE (%ALPHA_LITERAL, %SINGLE_QUOTE);

     5652    37638    3          CALL Z8EC$INTERNAL_STRING_REP (LITERAL$, DNT$$);

  37638 35 033044   000617 236000 36                 LDQ     399
        35 033045   000774 235000 0                  LDA     @LITERAL$
PL6.E3A0      #001=Z8EM$SEMANTICS_DATA_DIV File=Z8EM.:Z8A6TSI                    SAT 08/09/97 12:08 Page:1017
        35 033046   001012 757000 0                  STAQ    PROC$+2
        35 033047   001012 630400 0                  EPPR0   PROC$+2
        35 033050   000025 631400 36                 EPPR1   21
        35 033051   000000 701000 xent               TSX1    Z8EC$INTERNAL_STRING_REP
        35 033052   000000 011000                    NOP     0

     5653    37639
     5654    37640    4          DO I = 1 TO DNT$$ -> DNT.TEXT.LENGTH - 2;

  37640 35 033053   000001 235007                    LDA     1,DL
        35 033054   001000 755000 0                  STA     I
        35 033055   033101 710000 35                 TRA     s:37645+1

     5655    37641    4            CALL ENTER_VALUE (LITERAL$,

  37641 35 033056   001001 470400 0                  LDP0    DNT$$
        35 033057   000004 220100                    LDX0    4,,PR0
        35 033060   001000 235000 0                  LDA     I
        35 033061   000000 101505                    MRL     fill='000'O
        35 033062   000004 400001                    ADSC9   4,A,PR0                  cn=2,n=1
        35 033063   001012 000004 0                  ADSC9   PROC$+2                  cn=0,n=4
        35 033064   001012 236000 0                  LDQ     PROC$+2
        35 033065   001027 756000 0                  STQ     PROC$+15
        35 033066   000776 236000 0                  LDQ     @NEXT_SEQ#
        35 033067   000270 756000 0                  STQ     @NEXT_SEQ#
        35 033070   001027 631400 0                  EPPR1   PROC$+15
        35 033071   000267 451400 0                  STP1    @VALUE
        35 033072   000775 236000 0                  LDQ     @ITEM_ST$$
        35 033073   000266 756000 0                  STQ     @ST$$
        35 033074   000774 236000 0                  LDQ     @LITERAL$
        35 033075   000265 756000 0                  STQ     @LIT$
        35 033076   010061 701000 35                 TSX1    ENTER_VALUE
        35 033077   000000 011000                    NOP     0

     5656    37642    4                              ITEM_ST$$,
     5657    37643    4                              ASCBIN (SUBSTR (DNT$$ -> DNT.TEXT.NAME, I, 1)),
     5658    37644    4                              NEXT_SEQ#);
PL6.E3A0      #001=Z8EM$SEMANTICS_DATA_DIV File=Z8EM.:Z8A6TSI                    SAT 08/09/97 12:08 Page:1018
     5659    37645    4          END;

  37645 35 033100   001000 054000 0                  AOS     I
        35 033101   001001 470400 0                  LDP0    DNT$$
        35 033102   000004 236100                    LDQ     4,,PR0
        35 033103   000022 772000                    QRL     18
        35 033104   000002 136007                    SBLQ    2,DL
        35 033105   001000 116000 0                  CMPQ    I
        35 033106   033056 605000 35                 TPL     s:37641
        35 033107   033235 710000 35                 TRA     s:37681

     5660    37646
     5661    37647    3        CASE (ELSE);

     5662    37648               %GET_VALUE (@TERMINAL$ = LITERAL$,
     5663    37649                           @DNT$      = DNT$$,
     5664    37650                           @VALUE     = VALUE);

  37651 35 033110   100003 236100                    LDQ     3,,PR1
        35 033111   000351 116007                    CMPQ    233,DL
        35 033112   033130 604000 35                 TMI     s:37651+16
        35 033113   033170 600000 35                 TZE     s:37659
        35 033114   000543 116007                    CMPQ    355,DL
        35 033115   033125 604000 35                 TMI     s:37651+13
        35 033116   033175 600000 35                 TZE     s:37663
        35 033117   000650 116007                    CMPQ    424,DL
        35 033120   033205 604000 35                 TMI     s:37669
        35 033121   033200 600000 35                 TZE     s:37665
        35 033122   000761 116007                    CMPQ    497,DL
        35 033123   033205 601000 35                 TNZ     s:37669
        35 033124   033203 710000 35                 TRA     s:37667
        35 033125   000433 116007                    CMPQ    283,DL
        35 033126   033205 601000 35                 TNZ     s:37669
        35 033127   033173 710000 35                 TRA     s:37661
        35 033130   000004 116007                    CMPQ    4,DL
        35 033131   033136 604000 35                 TMI     s:37651+22
        35 033132   033141 600000 35                 TZE     s:37653
PL6.E3A0      #001=Z8EM$SEMANTICS_DATA_DIV File=Z8EM.:Z8A6TSI                    SAT 08/09/97 12:08 Page:1019
        35 033133   000025 116007                    CMPQ    21,DL
        35 033134   033205 601000 35                 TNZ     s:37669
        35 033135   033156 710000 35                 TRA     s:37656
        35 033136   000003 116007                    CMPQ    3,DL
        35 033137   033205 601000 35                 TNZ     s:37669
        35 033140   033141 710000 35                 TRA     s:37653

  37653 35 033141   000617 236000 36                 LDQ     399
        35 033142   000774 235000 0                  LDA     @LITERAL$
        35 033143   001012 757000 0                  STAQ    PROC$+2
        35 033144   001012 630400 0                  EPPR0   PROC$+2
        35 033145   000025 631400 36                 EPPR1   21
        35 033146   000000 701000 xent               TSX1    Z8EC$INTERNAL_STRING_REP
        35 033147   000000 011000                    NOP     0

  37654 35 033150   001001 470400 0                  LDP0    DNT$$
        35 033151   000004 220100                    LDX0    4,,PR0
        35 033152   000004 236100                    LDQ     4,,PR0
        35 033153   000777 376007                    ANQ     511,DL
        35 033154   001002 756000 0                  STQ     VALUE
        35 033155   033221 710000 35                 TRA     s:37676

  37656 35 033156   100002 473500                    LDP3    2,,PR1
        35 033157   300004 220100                    LDX0    4,,PR3
        35 033160   000000 305540                    DTB
        35 033161   300004 430010                    NDSC9   4,,PR3                   cn=2,s=nosgn,sf=0,n=*X0
        35 033162   001012 000010 0                  NDSC9   PROC$+2                  cn=0,s=lsgnf,sf=0,n=8
        35 033163   001013 235000 0                  LDA     PROC$+3
        35 033164   001002 755000 0                  STA     VALUE

  37657 35 033165   000001 135007                    SBLA    1,DL
        35 033166   001002 755000 0                  STA     VALUE
        35 033167   033221 710000 35                 TRA     s:37676

  37659 35 033170   000177 235007                    LDA     127,DL
        35 033171   001002 755000 0                  STA     VALUE
        35 033172   033221 710000 35                 TRA     s:37676
PL6.E3A0      #001=Z8EM$SEMANTICS_DATA_DIV File=Z8EM.:Z8A6TSI                    SAT 08/09/97 12:08 Page:1020

  37661 35 033173   001002 450000 0                  STZ     VALUE
        35 033174   033221 710000 35                 TRA     s:37676

  37663 35 033175   000042 235007                    LDA     34,DL
        35 033176   001002 755000 0                  STA     VALUE
        35 033177   033221 710000 35                 TRA     s:37676

  37665 35 033200   000040 235007                    LDA     32,DL
        35 033201   001002 755000 0                  STA     VALUE
        35 033202   033221 710000 35                 TRA     s:37676

  37667 35 033203   001002 450000 0                  STZ     VALUE
        35 033204   033221 710000 35                 TRA     s:37676

  37669 35 033205   100006 633500                    EPPR3   6,,PR1
        35 033206   001014 453400 0                  STP3    PROC$+4
        35 033207   100005 634500                    EPPR4   5,,PR1
        35 033210   001013 454400 0                  STP4    PROC$+3
        35 033211   000220 236000 36                 LDQ     144
        35 033212   001012 756000 0                  STQ     PROC$+2
        35 033213   001012 630400 0                  EPPR0   PROC$+2
        35 033214   000000 631400 36                 EPPR1   0
        35 033215   000000 701000 xent               TSX1    Z8AE$ERROR
        35 033216   000000 011000                    NOP     0

  37672 35 033217   001000 235007                    LDA     512,DL
        35 033220   001002 755000 0                  STA     VALUE

     5665    37675
     5666    37676    3          IF VALUE < 512  THEN

  37676 35 033221   001002 235000 0                  LDA     VALUE
        35 033222   001000 115007                    CMPA    512,DL
        35 033223   033235 603000 35                 TRC     s:37681

     5667    37677    3            CALL ENTER_VALUE (LITERAL$, ITEM_ST$$, VALUE, NEXT_SEQ#);
PL6.E3A0      #001=Z8EM$SEMANTICS_DATA_DIV File=Z8EM.:Z8A6TSI                    SAT 08/09/97 12:08 Page:1021

  37677 35 033224   000776 236000 0                  LDQ     @NEXT_SEQ#
        35 033225   000270 756000 0                  STQ     @NEXT_SEQ#
        35 033226   000620 236000 36                 LDQ     400
        35 033227   000775 235000 0                  LDA     @ITEM_ST$$
        35 033230   000266 757000 0                  STAQ    @ST$$
        35 033231   000774 236000 0                  LDQ     @LITERAL$
        35 033232   000265 756000 0                  STQ     @LIT$
        35 033233   010061 701000 35                 TSX1    ENTER_VALUE
        35 033234   000000 011000                    NOP     0

     5668    37678
     5669    37679    3      END; /* Case */

     5670    37680
     5671    37681    2   END WALK_LITERAL;

  37681 35 033235   000773 221200 0                  LDX1  ! VFC+1
        35 033236   000001 702211                    TSX2  ! 1,X1

     5672    37682        %EJECT;
PL6.E3A0      #001=Z8EM$SEMANTICS_DATA_DIV File=Z8EM.:Z8A6TSI                    SAT 08/09/97 12:08 Page:1022
     5673    37683        /*===============*/
     5674    37684    1     WITH_DUPLICATES: PROC (DUP$);

  37684 35 033237   001003 741200 0     WITH_DUPLIC* STX1  ! VALUE+1

     5675    37685        /*===============*/
     5676    37686
     5677    37687             /* Functions performed:
     5678    37688                 1. Insure an ALTERNATE KEY clause was specified
     5679    37689                 2. Check for multiple clauses.
     5680    37690             */
     5681    37691
     5682    37692    2        DCL DUP$          PTR;
     5683    37693    2        DCL ITEM$         PTR;
     5684    37694    2        DCL LIST$         PTR;
     5685    37695
     5686    37696
     5687    37697    2        IF NOT O1COM.PREVIOUS_ALT_KEY THEN

  37697 35 033240   000047 234000 xsym               SZN     O1COM+39
        35 033241   033267 604000 35                 TMI     s:37736

     5688    37698    3          DO;

     5689    37699                 %CONDITIONAL_ERROR (@LX_ITEM$ = DUP$,
     5690    37700                                     @ERROR#   = %E$DUPLICATES_NO_KEY,
     5691    37701                                     @LINE     = DUP$ -> LX_TERMINAL.LINE,
     5692    37702                                     @COLUMN   = DUP$ -> LX_TERMINAL.COLUMN);

  37712 35 033242   001004 470400 0                  LDP0    @DUP$
        35 033243   000000 471500                    LDP1    0,,PR0
        35 033244   100000 236100                    LDQ     0,,PR1
        35 033245   400000 316007                    CANQ    -131072,DL
        35 033246   033265 601000 35                 TNZ     s:37733

  37714 35 033247   100006 633500                    EPPR3   6,,PR1
        35 033250   001014 453400 0                  STP3    PROC$+4
PL6.E3A0      #001=Z8EM$SEMANTICS_DATA_DIV File=Z8EM.:Z8A6TSI                    SAT 08/09/97 12:08 Page:1023
        35 033251   100005 634500                    EPPR4   5,,PR1
        35 033252   001013 454400 0                  STP4    PROC$+3
        35 033253   000622 236000 36                 LDQ     402
        35 033254   001012 756000 0                  STQ     PROC$+2
        35 033255   001012 630400 0                  EPPR0   PROC$+2
        35 033256   000000 631400 36                 EPPR1   0
        35 033257   000000 701000 xent               TSX1    Z8AE$ERROR
        35 033260   000000 011000                    NOP     0

  37723 35 033261   001004 470400 0                  LDP0    @DUP$
        35 033262   000000 471500                    LDP1    0,,PR0
        35 033263   400000 236007                    LDQ     -131072,DL
        35 033264   100000 256100                    ORSQ    0,,PR1

     5693    37732
     5694    37733    3            RETURN;

  37733 35 033265   001003 221200 0                  LDX1  ! VALUE+1
        35 033266   000001 702211                    TSX2  ! 1,X1

     5695    37734    3          END;
     5696    37735
     5697    37736    2        LIST$ = O1COM.CURRENT_FILE_LTS$ -> FILE_LTS.ALT_RECORD_KEY$;

  37736 35 033267   000045 470400 xsym               LDP0    O1COM+37
        35 033270   000016 236100                    LDQ     14,,PR0
        35 033271   001006 756000 0                  STQ     LIST$

     5698    37737
     5699    37738             %NEW_COPY_LX_ITEM (@FROM$ = DUP$,
     5700    37739                                @TO$   = ITEM$);

  37744 35 033272   000623 630400 36                 EPPR0   403
        35 033273   000025 631400 36                 EPPR1   21
        35 033274   000000 701000 xent               TSX1    Z8ED$NEW_HEAP
        35 033275   000000 011000                    NOP     0

PL6.E3A0      #001=Z8EM$SEMANTICS_DATA_DIV File=Z8EM.:Z8A6TSI                    SAT 08/09/97 12:08 Page:1024
  37747 35 033276   001004 470400 0                  LDP0    @DUP$
        35 033277   000000 471500                    LDP1    0,,PR0
        35 033300   001005 473400 0                  LDP3    ITEM$
        35 033301   000100 100500                    MLR     fill='000'O
        35 033302   100000 000040                    ADSC9   0,,PR1                   cn=0,n=32
        35 033303   300000 000040                    ADSC9   0,,PR3                   cn=0,n=32

  37748 35 033304   000024 236000 36                 LDQ     20
        35 033305   001005 471400 0                  LDP1    ITEM$
        35 033306   100007 756100                    STQ     7,,PR1

     5701    37751
     5702    37752             %ADD_LX_ITEM_TO_LIST_TAIL (@LIST$ = LIST$ -> LX_LIST.TAIL$,
     5703    37753                                        @FROM$ = ITEM$);

  37755 35 033307   000024 236000 36                 LDQ     20
        35 033310   001005 471400 0                  LDP1    ITEM$
        35 033311   100007 756100                    STQ     7,,PR1

  37756 35 033312   001006 471400 0                  LDP1    LIST$
        35 033313   100001 473500                    LDP3    1,,PR1
        35 033314   300002 235100                    LDA     2,,PR3
        35 033315   033324 601000 35                 TNZ     s:37763

  37758 35 033316   001005 236000 0                  LDQ     ITEM$
        35 033317   300004 756100                    STQ     4,,PR3

  37759 35 033320   100001 473500                    LDP3    1,,PR1
        35 033321   001005 236000 0                  LDQ     ITEM$
        35 033322   300001 756100                    STQ     1,,PR3

  37760 35 033323   033332 710000 35                 TRA     s:37766

  37763 35 033324   300001 474500                    LDP4    1,,PR3
        35 033325   001005 236000 0                  LDQ     ITEM$
        35 033326   400007 756100                    STQ     7,,PR4

PL6.E3A0      #001=Z8EM$SEMANTICS_DATA_DIV File=Z8EM.:Z8A6TSI                    SAT 08/09/97 12:08 Page:1025
  37764 35 033327   100001 473500                    LDP3    1,,PR1
        35 033330   001005 236000 0                  LDQ     ITEM$
        35 033331   300001 756100                    STQ     1,,PR3

  37766 35 033332   100001 473500                    LDP3    1,,PR1
        35 033333   300002 054100                    AOS     2,,PR3

     5704    37769
     5705    37770
     5706    37771    2   END WITH_DUPLICATES;

  37771 35 033334   001003 221200 0                  LDX1  ! VALUE+1
        35 033335   000001 702211                    TSX2  ! 1,X1

     5707    37772        %EJECT;
PL6.E3A0      #001=Z8EM$SEMANTICS_DATA_DIV File=Z8EM.:Z8A6TSI                    SAT 08/09/97 12:08 Page:1026
     5708    37773        /*=====================*/
     5709    37774    1     WRAP_UP_SPECIAL_NAMES: PROC;

  37774 35 033336   001007 741200 0     WRAP_UP_SPE* STX1  ! LIST$+1

     5710    37775        /*=====================*/
     5711    37776
     5712    37777    2   DCL PROC$              PTR;
     5713    37778
     5714    37779    2        PROC$ = O1COM.CURRENT_PROC$ -> PROC_.PROC_SUPP$;

  37779 35 033337   000057 470400 xsym               LDP0    O1COM+47
        35 033340   000001 236100                    LDQ     1,,PR0
        35 033341   001010 756000 0                  STQ     PROC$

     5715    37780
     5716    37781    2        IF PROC$ -> PROC_SUPP.COLLATING_SEQ$ = ADDR(NIL) THEN

  37781 35 033342   001010 471400 0                  LDP1    PROC$
        35 033343   100002 236100                    LDQ     2,,PR1
        35 033344   000024 116000 36                 CMPQ    20
        35 033345   033421 601000 35                 TNZ     s:37837

     5717    37782    2          IF O1COM.COLLATING_SEQ$ ~= ADDR(NIL) THEN

  37782 35 033346   000044 236000 xsym               LDQ     O1COM+36
        35 033347   000024 116000 36                 CMPQ    20
        35 033350   033420 600000 35                 TZE     s:37835

     5718    37783    3            DO;

     5719    37784    3   CHECK_COLLATING_SEQ:
     5720    37785    4              DO;

  37785 35 033351                       CHECK_COLLA* null
     5721    37786    4                CALL Z8DO$QUALIFY_TERMINAL_NO_ERROR (O1COM.COLLATING_SEQ$, P$)

PL6.E3A0      #001=Z8EM$SEMANTICS_DATA_DIV File=Z8EM.:Z8A6TSI                    SAT 08/09/97 12:08 Page:1027
  37786 35 033351   000625 630400 36                 EPPR0   405
        35 033352   000025 631400 36                 EPPR1   21
        35 033353   000000 701000 xent               TSX1    Z8DO$QUALIFY_TERMINAL_NO_ERROR
        35 033354   033365 702000 35                 TSX2    s:37809

     5722    37787    5                  WHENRETURN DO; /* Defined in containing program */

     5723    37788    5                    IF P$ -> ST.ID = %ALPHABET THEN

  37788 35 033355   000021 470400 0                  LDP0    P$
        35 033356   000000 220100                    LDX0    0,,PR0
        35 033357   000763 100003                    CMPX0   499,DU
        35 033360   033365 601000 35                 TNZ     s:37809

     5724    37789    6                      DO; /* Genuine alphabet -- OK */

     5725    37790    6                        PROC$ -> PROC_SUPP.COLLATING_SEQ$ = P$;

  37790 35 033361   000021 236000 0                  LDQ     P$
        35 033362   001010 471400 0                  LDP1    PROC$
        35 033363   100002 756100                    STQ     2,,PR1

     5726    37791    6                        EXIT CHECK_COLLATING_SEQ;

  37791 35 033364   033412 710000 35                 TRA     s:37831

     5727    37792    6                      END;
     5728    37793    5                  END; /* WHENRETURN */
     5729    37794
     5730    37795                     %CONDITIONAL_ERROR (@LX_ITEM$ = O1COM.COLLATING_SEQ$,
     5731    37796                                         @ERROR# = %E$ALPHABET_NOT_DEFINED,
     5732    37797                                         @LINE = O1COM.COLLATING_SEQ$ -> LX_TERMINAL.LINE,
     5733    37798                                         @COLUMN =
             37798                                             O1COM.COLLATING_SEQ$ -> LX_TERMINAL.COLUMN,
     5734    37799                                        @PLUG1 = O1COM.COLLATING_SEQ$ -> LX_TERMINAL.DNT$);

  37809 35 033365   000044 470400 xsym               LDP0    O1COM+36
PL6.E3A0      #001=Z8EM$SEMANTICS_DATA_DIV File=Z8EM.:Z8A6TSI                    SAT 08/09/97 12:08 Page:1028
        35 033366   000000 236100                    LDQ     0,,PR0
        35 033367   400000 316007                    CANQ    -131072,DL
        35 033370   033412 601000 35                 TNZ     s:37831

  37811 35 033371   000044 236000 xsym               LDQ     O1COM+36
        35 033372   000002 036003                    ADLQ    2,DU
        35 033373   001015 756000 0                  STQ     PROC$+5
        35 033374   000044 236000 xsym               LDQ     O1COM+36
        35 033375   000006 036003                    ADLQ    6,DU
        35 033376   001014 756000 0                  STQ     PROC$+4
        35 033377   000044 236000 xsym               LDQ     O1COM+36
        35 033400   000005 036003                    ADLQ    5,DU
        35 033401   000630 235000 36                 LDA     408
        35 033402   001012 757000 0                  STAQ    PROC$+2
        35 033403   001012 630400 0                  EPPR0   PROC$+2
        35 033404   000005 631400 36                 EPPR1   5
        35 033405   000000 701000 xent               TSX1    Z8AE$ERROR
        35 033406   000000 011000                    NOP     0

  37820 35 033407   000044 470400 xsym               LDP0    O1COM+36
        35 033410   400000 236007                    LDQ     -131072,DL
        35 033411   000000 256100                    ORSQ    0,,PR0

     5735    37829    4              END; /* CHECK_COLLATING_SEQ */

     5736    37830
     5737    37831    3              CALL Z8ED$DISPOSE_ABSSYN_TREE (O1COM.COLLATING_SEQ$);

  37831 35 033412   000043 630400 36                 EPPR0   35
        35 033413   000036 631400 36                 EPPR1   30
        35 033414   000000 701000 xent               TSX1    Z8ED$DISPOSE_ABSSYN_TREE
        35 033415   000000 011000                    NOP     0

     5738    37832    3              RETURN;

  37832 35 033416   001007 221200 0                  LDX1  ! LIST$+1
        35 033417   000001 702211                    TSX2  ! 1,X1
PL6.E3A0      #001=Z8EM$SEMANTICS_DATA_DIV File=Z8EM.:Z8A6TSI                    SAT 08/09/97 12:08 Page:1029

     5739    37833    3            END;
     5740    37834    2          ELSE
     5741    37835    2            RETURN;

  37835 35 033420   000001 702211                    TSX2  ! 1,X1

     5742    37836
     5743    37837    2        IF PROC$ -> PROC_SUPP.COLLATING_SEQ$ -> ALPHABET.B.CODE = %ASCII

  37837 35 033421   100002 473500                    LDP3    2,,PR1
        35 033422   300003 236100                    LDQ     3,,PR3
        35 033423   000777 316007                    CANQ    511,DL
        35 033424   033431 600000 35                 TZE     s:37840
        35 033425   300003 236100                    LDQ     3,,PR3
        35 033426   000777 376007                    ANQ     511,DL
        35 033427   000001 116007                    CMPQ    1,DL
        35 033430   033435 601000 35                 TNZ     s:37844

     5744    37838    2        OR PROC$ -> PROC_SUPP.COLLATING_SEQ$ -> ALPHABET.B.CODE = %JIS THEN
     5745    37839    3          DO;

     5746    37840    3            PROC$ -> PROC_SUPP.COLLATING_SEQ$ = ADDR(NIL);

  37840 35 033431   000024 236000 36                 LDQ     20
        35 033432   100002 756100                    STQ     2,,PR1

     5747    37841    3            RETURN;

  37841 35 033433   001007 221200 0                  LDX1  ! LIST$+1
        35 033434   000001 702211                    TSX2  ! 1,X1

     5748    37842    3          END;
     5749    37843
     5750    37844    2        PROC$ -> PROC_SUPP.LOW_VALUE = BINASC (PROC$ -> PROC_SUPP.COLLATING_SEQ$ ->

  37844 35 033435   300007 236100                    LDQ     7,,PR3
PL6.E3A0      #001=Z8EM$SEMANTICS_DATA_DIV File=Z8EM.:Z8A6TSI                    SAT 08/09/97 12:08 Page:1030
        35 033436   000022 772000                    QRL     18
        35 033437   000777 376007                    ANQ     511,DL
        35 033440   000033 736000                    QLS     27
        35 033441   000164 276000 36                 ORQ     116
        35 033442   000011 772000                    QRL     9
        35 033443   100001 552120                    STBQ    1,'20'O,PR1

     5751    37845    2                                   ALPHABET.LOW_VALUE);
     5752    37846
     5753    37847    2        PROC$ -> PROC_SUPP.HIGH_VALUE = BINASC (PROC$ -> PROC_SUPP.COLLATING_SEQ$ ->

  37847 35 033444   300007 236100                    LDQ     7,,PR3
        35 033445   000022 772000                    QRL     18
        35 033446   100001 552110                    STBQ    1,'10'O,PR1

     5754    37848    2                                    ALPHABET.HIGH_VALUE);
     5755    37849
     5756    37850
     5757    37851    2   END WRAP_UP_SPECIAL_NAMES;

  37851 35 033447   001007 221200 0                  LDX1  ! LIST$+1
        35 033450   000001 702211                    TSX2  ! 1,X1

     5758    37852        %EJECT;
PL6.E3A0      #001=Z8EM$SEMANTICS_DATA_DIV File=Z8EM.:Z8A6TSI                    SAT 08/09/97 12:08 Page:1031
     5759    37853    1   SEMANTIC_ACTION_CASE:
     5760    37854    2   DO CASE(SEMANTIC_ACTION);

  37854 35 033451   000000 235000 1     SEMANTIC_AC* LDA     SEMANTIC_ACTION
        35 033452   000416 115007                    CMPA    270,DL
        35 033453   033455 602005 35                 TNC     SEMANTIC_ACTION_CASE+4,AL
        35 033454   056635 710000 35                 TRA     s:45668
        35 033455   056635 710000 35                 TRA     s:45668
        35 033456   034354 710000 35                 TRA     s:38398
        35 033457   034301 710000 35                 TRA     s:37999
        35 033460   034452 710000 35                 TRA     s:38433
        35 033461   034341 710000 35                 TRA     s:38394
        35 033462   035375 710000 35                 TRA     s:39454
        35 033463   035406 710000 35                 TRA     s:39457
        35 033464   056630 710000 35                 TRA     s:45663
        35 033465   041542 710000 35                 TRA     s:40574
        35 033466   035416 710000 35                 TRA     s:39461
        35 033467   035423 710000 35                 TRA     s:39465
        35 033470   034407 710000 35                 TRA     s:38411
        35 033471   056007 710000 35                 TRA     s:45389
        35 033472   056302 710000 35                 TRA     s:45522
        35 033473   055554 710000 35                 TRA     s:45270
        35 033474   056376 710000 35                 TRA     s:45578
        35 033475   034771 710000 35                 TRA     s:39361
        35 033476   035061 710000 35                 TRA     s:39380
        35 033477   035147 710000 35                 TRA     s:39399
        35 033500   035233 710000 35                 TRA     s:39417
        35 033501   035334 710000 35                 TRA     s:39439
        35 033502   056542 710000 35                 TRA     s:45618
        35 033503   034276 710000 35                 TRA     s:37995
        35 033504   053156 710000 35                 TRA     s:44314
        35 033505   053165 710000 35                 TRA     s:44318
        35 033506   053630 710000 35                 TRA     s:44365
        35 033507   054471 710000 35                 TRA     s:44692
        35 033510   054315 710000 35                 TRA     s:44644
        35 033511   056356 710000 35                 TRA     s:45571
        35 033512   053633 710000 35                 TRA     s:44368
PL6.E3A0      #001=Z8EM$SEMANTICS_DATA_DIV File=Z8EM.:Z8A6TSI                    SAT 08/09/97 12:08 Page:1032
        35 033513   055747 710000 35                 TRA     s:45373
        35 033514   054671 710000 35                 TRA     s:44820
        35 033515   054144 710000 35                 TRA     s:44589
        35 033516   054167 710000 35                 TRA     s:44594
        35 033517   054214 710000 35                 TRA     s:44599
        35 033520   034202 710000 35                 TRA     s:37963
        35 033521   034213 710000 35                 TRA     s:37967
        35 033522   034224 710000 35                 TRA     s:37971
        35 033523   034241 710000 35                 TRA     s:37977
        35 033524   054716 710000 35                 TRA     s:44826
        35 033525   055157 710000 35                 TRA     s:44987
        35 033526   055722 710000 35                 TRA     s:45363
        35 033527   055677 710000 35                 TRA     s:45356
        35 033530   055654 710000 35                 TRA     s:45349
        35 033531   055454 710000 35                 TRA     s:45189
        35 033532   056153 710000 35                 TRA     s:45453
        35 033533   054502 710000 35                 TRA     s:44698
        35 033534   056227 710000 35                 TRA     s:45492
        35 033535   054241 710000 35                 TRA     s:44613
        35 033536   053652 710000 35                 TRA     s:44375
        35 033537   054014 710000 35                 TRA     s:44492
        35 033540   035621 710000 35                 TRA     s:39525
        35 033541   035640 710000 35                 TRA     s:39528
        35 033542   035657 710000 35                 TRA     s:39531
        35 033543   035455 710000 35                 TRA     s:39486
        35 033544   035531 710000 35                 TRA     s:39507
        35 033545   056641 710000 35                 TRA     s:45674
        35 033546   035602 710000 35                 TRA     s:39522
        35 033547   035676 710000 35                 TRA     s:39536
        35 033550   036023 710000 35                 TRA     s:39615
        35 033551   036042 710000 35                 TRA     s:39619
        35 033552   036016 710000 35                 TRA     s:39611
        35 033553   036045 710000 35                 TRA     s:39623
        35 033554   036153 710000 35                 TRA     s:39655
        35 033555   036303 710000 35                 TRA     s:39684
        35 033556   036314 710000 35                 TRA     s:39687
        35 033557   036327 710000 35                 TRA     s:39690
PL6.E3A0      #001=Z8EM$SEMANTICS_DATA_DIV File=Z8EM.:Z8A6TSI                    SAT 08/09/97 12:08 Page:1033
        35 033560   036342 710000 35                 TRA     s:39693
        35 033561   036355 710000 35                 TRA     s:39696
        35 033562   036403 710000 35                 TRA     s:39702
        35 033563   036370 710000 35                 TRA     s:39699
        35 033564   036416 710000 35                 TRA     s:39705
        35 033565   036431 710000 35                 TRA     s:39708
        35 033566   036444 710000 35                 TRA     s:39711
        35 033567   036457 710000 35                 TRA     s:39714
        35 033570   036472 710000 35                 TRA     s:39717
        35 033571   036505 710000 35                 TRA     s:39720
        35 033572   036520 710000 35                 TRA     s:39723
        35 033573   036533 710000 35                 TRA     s:39726
        35 033574   036546 710000 35                 TRA     s:39729
        35 033575   036561 710000 35                 TRA     s:39732
        35 033576   036574 710000 35                 TRA     s:39735
        35 033577   036607 710000 35                 TRA     s:39738
        35 033600   036622 710000 35                 TRA     s:39741
        35 033601   036635 710000 35                 TRA     s:39748
        35 033602   036660 710000 35                 TRA     s:39752
        35 033603   036703 710000 35                 TRA     s:39756
        35 033604   036726 710000 35                 TRA     s:39760
        35 033605   037034 710000 35                 TRA     s:39815
        35 033606   037142 710000 35                 TRA     s:39870
        35 033607   037165 710000 35                 TRA     s:39874
        35 033610   037210 710000 35                 TRA     s:39878
        35 033611   037316 710000 35                 TRA     s:39933
        35 033612   037352 710000 35                 TRA     s:39940
        35 033613   037403 710000 35                 TRA     s:39948
        35 033614   037441 710000 35                 TRA     s:39958
        35 033615   037537 710000 35                 TRA     s:39987
        35 033616   037552 710000 35                 TRA     s:39990
        35 033617   037565 710000 35                 TRA     s:39993
        35 033620   037600 710000 35                 TRA     s:39996
        35 033621   037616 710000 35                 TRA     s:40001
        35 033622   037730 710000 35                 TRA     s:40031
        35 033623   037327 710000 35                 TRA     s:39936
        35 033624   053131 710000 35                 TRA     s:44300
PL6.E3A0      #001=Z8EM$SEMANTICS_DATA_DIV File=Z8EM.:Z8A6TSI                    SAT 08/09/97 12:08 Page:1034
        35 033625   034104 710000 35                 TRA     s:37871
        35 033626   034142 710000 35                 TRA     s:37917
        35 033627   053067 710000 35                 TRA     s:44289
        35 033630   052766 710000 35                 TRA     s:44226
        35 033631   052674 710000 35                 TRA     s:44189
        35 033632   050251 710000 35                 TRA     s:42888
        35 033633   056070 710000 35                 TRA     s:45412
        35 033634   050235 710000 35                 TRA     s:42880
        35 033635   052642 710000 35                 TRA     s:44169
        35 033636   052651 710000 35                 TRA     s:44174
        35 033637   050254 710000 35                 TRA     s:42898
        35 033640   050343 710000 35                 TRA     s:42956
        35 033641   050432 710000 35                 TRA     s:43014
        35 033642   050521 710000 35                 TRA     s:43072
        35 033643   050610 710000 35                 TRA     s:43131
        35 033644   050677 710000 35                 TRA     s:43189
        35 033645   050766 710000 35                 TRA     s:43247
        35 033646   051055 710000 35                 TRA     s:43305
        35 033647   051144 710000 35                 TRA     s:43363
        35 033650   051233 710000 35                 TRA     s:43421
        35 033651   052421 710000 35                 TRA     s:44038
        35 033652   051536 710000 35                 TRA     s:43598
        35 033653   051447 710000 35                 TRA     s:43546
        35 033654   051322 710000 35                 TRA     s:43473
        35 033655   056453 710000 35                 TRA     s:45597
        35 033656   056106 710000 35                 TRA     s:45420
        35 033657   052161 710000 35                 TRA     s:43876
        35 033660   056025 710000 35                 TRA     s:45395
        35 033661   056352 710000 35                 TRA     s:45567
        35 033662   051721 710000 35                 TRA     s:43715
        35 033663   056432 710000 35                 TRA     s:45590
        35 033664   052041 710000 35                 TRA     s:43794
        35 033665   052301 710000 35                 TRA     s:43955
        35 033666   037761 710000 35                 TRA     s:40043
        35 033667   040000 710000 35                 TRA     s:40047
        35 033670   040111 710000 35                 TRA     s:40107
        35 033671   040562 710000 35                 TRA     s:40319
PL6.E3A0      #001=Z8EM$SEMANTICS_DATA_DIV File=Z8EM.:Z8A6TSI                    SAT 08/09/97 12:08 Page:1035
        35 033672   040576 710000 35                 TRA     s:40325
        35 033673   040606 710000 35                 TRA     s:40329
        35 033674   040537 710000 35                 TRA     s:40314
        35 033675   040371 710000 35                 TRA     s:40281
        35 033676   040416 710000 35                 TRA     s:40286
        35 033677   040443 710000 35                 TRA     s:40294
        35 033700   040461 710000 35                 TRA     s:40302
        35 033701   040477 710000 35                 TRA     s:40307
        35 033702   040625 710000 35                 TRA     s:40332
        35 033703   040702 710000 35                 TRA     s:40345
        35 033704   040757 710000 35                 TRA     s:40358
        35 033705   041034 710000 35                 TRA     s:40371
        35 033706   041071 710000 35                 TRA     s:40378
        35 033707   041127 710000 35                 TRA     s:40388
        35 033710   041145 710000 35                 TRA     s:40393
        35 033711   041163 710000 35                 TRA     s:40398
        35 033712   041201 710000 35                 TRA     s:40404
        35 033713   041455 710000 35                 TRA     s:40520
        35 033714   041545 710000 35                 TRA     s:40584
        35 033715   041570 710000 35                 TRA     s:40601
        35 033716   041613 710000 35                 TRA     s:40612
        35 033717   041676 710000 35                 TRA     s:40633
        35 033720   042250 710000 35                 TRA     s:40740
        35 033721   042334 710000 35                 TRA     s:40763
        35 033722   042420 710000 35                 TRA     s:40792
        35 033723   042441 710000 35                 TRA     s:40801
        35 033724   042666 710000 35                 TRA     s:40830
        35 033725   042704 710000 35                 TRA     s:40836
        35 033726   042722 710000 35                 TRA     s:40842
        35 033727   042740 710000 35                 TRA     s:40848
        35 033730   042756 710000 35                 TRA     s:40854
        35 033731   042774 710000 35                 TRA     s:40860
        35 033732   043012 710000 35                 TRA     s:40866
        35 033733   043030 710000 35                 TRA     s:40872
        35 033734   043046 710000 35                 TRA     s:40878
        35 033735   043064 710000 35                 TRA     s:40884
        35 033736   043102 710000 35                 TRA     s:40890
PL6.E3A0      #001=Z8EM$SEMANTICS_DATA_DIV File=Z8EM.:Z8A6TSI                    SAT 08/09/97 12:08 Page:1036
        35 033737   043120 710000 35                 TRA     s:40896
        35 033740   043136 710000 35                 TRA     s:40902
        35 033741   043154 710000 35                 TRA     s:40908
        35 033742   043172 710000 35                 TRA     s:40914
        35 033743   043210 710000 35                 TRA     s:40920
        35 033744   043226 710000 35                 TRA     s:40926
        35 033745   043244 710000 35                 TRA     s:40932
        35 033746   043262 710000 35                 TRA     s:40938
        35 033747   043300 710000 35                 TRA     s:40944
        35 033750   043316 710000 35                 TRA     s:40954
        35 033751   043472 710000 35                 TRA     s:41048
        35 033752   043503 710000 35                 TRA     s:41051
        35 033753   043530 710000 35                 TRA     s:41057
        35 033754   043547 710000 35                 TRA     s:41065
        35 033755   043426 710000 35                 TRA     s:41019
        35 033756   043566 710000 35                 TRA     s:41068
        35 033757   043445 710000 35                 TRA     s:41029
        35 033760   043575 710000 35                 TRA     s:41072
        35 033761   043624 710000 35                 TRA     s:41077
        35 033762   043635 710000 35                 TRA     s:41082
        35 033763   043654 710000 35                 TRA     s:41085
        35 033764   043674 710000 35                 TRA     s:41091
        35 033765   043714 710000 35                 TRA     s:41097
        35 033766   043734 710000 35                 TRA     s:41103
        35 033767   043754 710000 35                 TRA     s:41109
        35 033770   044016 710000 35                 TRA     s:41121
        35 033771   044115 710000 35                 TRA     s:41175
        35 033772   044166 710000 35                 TRA     s:41200
        35 033773   044215 710000 35                 TRA     s:41218
        35 033774   044266 710000 35                 TRA     s:41243
        35 033775   056641 710000 35                 TRA     s:45674
        35 033776   044315 710000 35                 TRA     s:41263
        35 033777   056641 710000 35                 TRA     s:45674
        35 034000   044333 710000 35                 TRA     s:41269
        35 034001   044410 710000 35                 TRA     s:41286
        35 034002   044465 710000 35                 TRA     s:41303
        35 034003   044532 710000 35                 TRA     s:41318
PL6.E3A0      #001=Z8EM$SEMANTICS_DATA_DIV File=Z8EM.:Z8A6TSI                    SAT 08/09/97 12:08 Page:1037
        35 034004   044553 710000 35                 TRA     s:41324
        35 034005   044575 710000 35                 TRA     s:41334
        35 034006   044663 710000 35                 TRA     s:41364
        35 034007   044617 710000 35                 TRA     s:41344
        35 034010   044641 710000 35                 TRA     s:41354
        35 034011   044705 710000 35                 TRA     s:41374
        35 034012   056641 710000 35                 TRA     s:45674
        35 034013   045001 710000 35                 TRA     s:41402
        35 034014   044757 710000 35                 TRA     s:41390
        35 034015   045101 710000 35                 TRA     s:41435
        35 034016   045233 710000 35                 TRA     s:41502
        35 034017   056641 710000 35                 TRA     s:45674
        35 034020   045273 710000 35                 TRA     s:41529
        35 034021   045315 710000 35                 TRA     s:41539
        35 034022   045403 710000 35                 TRA     s:41562
        35 034023   045460 710000 35                 TRA     s:41579
        35 034024   045535 710000 35                 TRA     s:41596
        35 034025   045576 710000 35                 TRA     s:41641
        35 034026   045623 710000 35                 TRA     s:41656
        35 034027   045650 710000 35                 TRA     s:41671
        35 034030   045675 710000 35                 TRA     s:41686
        35 034031   045722 710000 35                 TRA     s:41701
        35 034032   045747 710000 35                 TRA     s:41716
        35 034033   045774 710000 35                 TRA     s:41731
        35 034034   046021 710000 35                 TRA     s:41746
        35 034035   046046 710000 35                 TRA     s:41761
        35 034036   045253 710000 35                 TRA     s:41517
        35 034037   046073 710000 35                 TRA     s:41779
        35 034040   046120 710000 35                 TRA     s:41796
        35 034041   050162 710000 35                 TRA     s:42864
        35 034042   050217 710000 35                 TRA     s:42870
        35 034043   034073 710000 35                 TRA     s:37858
        35 034044   046145 710000 35                 TRA     s:41818
        35 034045   046252 710000 35                 TRA     s:41883
        35 034046   046357 710000 35                 TRA     s:41948
        35 034047   046464 710000 35                 TRA     s:42013
        35 034050   046571 710000 35                 TRA     s:42079
PL6.E3A0      #001=Z8EM$SEMANTICS_DATA_DIV File=Z8EM.:Z8A6TSI                    SAT 08/09/97 12:08 Page:1038
        35 034051   046770 710000 35                 TRA     s:42190
        35 034052   047006 710000 35                 TRA     s:42204
        35 034053   046676 710000 35                 TRA     s:42142
        35 034054   047100 710000 35                 TRA     s:42255
        35 034055   047161 710000 35                 TRA     s:42321
        35 034056   047255 710000 35                 TRA     s:42396
        35 034057   047351 710000 35                 TRA     s:42472
        35 034060   047457 710000 35                 TRA     s:42554
        35 034061   047527 710000 35                 TRA     s:42606
        35 034062   056551 710000 35                 TRA     s:45632
        35 034063   047603 710000 35                 TRA     s:42638
        35 034064   047621 710000 35                 TRA     s:42647
        35 034065   047671 710000 35                 TRA     s:42699
        35 034066   047745 710000 35                 TRA     s:42730
        35 034067   050065 710000 35                 TRA     s:42807
        35 034070   055764 710000 35                 TRA     s:45378
        35 034071   053174 710000 35                 TRA     s:44321
        35 034072   053412 710000 35                 TRA     s:44343

     5761    37855
     5762    37856    2     CASE(%GET_NEXT_OVERLAY);

     5763    37857
     5764    37858    2          CALL END_OF_ED_DD;

  37858 35 034073   010006 701000 35                 TSX1    END_OF_ED_DD
        35 034074   000000 011000                    NOP     0

     5765    37859
     5766    37860               %DUMP_PARSER_STATS;
     5767    37865    2          PARSER_OVERLAY_RETURN_CODE = %NEXT_DIVISION_RETURN;

  37865 35 034075   000001 235007                    LDA     1,DL
        35 034076   000000 755000 33                 STA     PARSER_OVERLAY_RETURN_CODE

     5768    37866    2          O1COM.PD_FLAG ='1'B;

PL6.E3A0      #001=Z8EM$SEMANTICS_DATA_DIV File=Z8EM.:Z8A6TSI                    SAT 08/09/97 12:08 Page:1039
  37866 35 034077   400000 236003                    LDQ     -131072,DU
        35 034100   000013 756000 xsym               STQ     O1COM+11

     5769    37867    2          UNWIND TO OVERLAY_COORDINATION_VECTOR;

  37867 35 034101   000000 237200 32                 LDAQ  ! OVERLAY_COORDINATION_VECTOR
        35 034102   000000 700200 xent               TSX0  ! X66_SUNWIND
        35 034103   000000 000200                    ZERO    0,128

     5770    37868
     5771    37869    2     CASE(%ACT_WORKING_STORAGE_SECTION);

     5772    37870
     5773    37871    2          O1COM.DATA_DECL_CONTEXT = %WORKING_STORAGE;

  37871 35 034104   000015 450000 xsym               STZ     O1COM+13

     5774    37872
     5775    37873    2          IF O1COM.SECTION_FOUND.WORKING_STORAGE THEN

  37873 35 034105   000063 234000 xsym               SZN     O1COM+51
        35 034106   034135 605000 35                 TPL     s:37912

     5776    37874    3            DO;

     5777    37875    3              P$ = ADDR(O1COM.LX_STK(O1COM.LX_TOP));

  37875 35 034107   000151 236000 xsym               LDQ     O1COM+105
        35 034110   000025 736000                    QLS     21
        35 034111   000631 036000 36                 ADLQ    409
        35 034112   000021 756000 0                  STQ     P$

     5778    37876
     5779    37877                   %CONDITIONAL_ERROR (@LX_ITEM$ = P$,
     5780    37878                                       @ERROR#   = %E$MULTIPLE_SECTIONS,
     5781    37879                                       @LINE     = P$ -> LX_ITEM.LINE,
     5782    37880                                       @COLUMN   = P$ -> LX_ITEM.COLUMN);
PL6.E3A0      #001=Z8EM$SEMANTICS_DATA_DIV File=Z8EM.:Z8A6TSI                    SAT 08/09/97 12:08 Page:1040

  37890 35 034113   000021 470400 0                  LDP0    P$
        35 034114   000000 236100                    LDQ     0,,PR0
        35 034115   400000 316007                    CANQ    -131072,DL
        35 034116   034135 601000 35                 TNZ     s:37912

  37892 35 034117   000021 236000 0                  LDQ     P$
        35 034120   000006 036003                    ADLQ    6,DU
        35 034121   001014 756000 0                  STQ     PROC$+4
        35 034122   000021 236000 0                  LDQ     P$
        35 034123   000005 036003                    ADLQ    5,DU
        35 034124   000633 235000 36                 LDA     411
        35 034125   001012 757000 0                  STAQ    PROC$+2
        35 034126   001012 630400 0                  EPPR0   PROC$+2
        35 034127   000000 631400 36                 EPPR1   0
        35 034130   000000 701000 xent               TSX1    Z8AE$ERROR
        35 034131   000000 011000                    NOP     0

  37901 35 034132   000021 470400 0                  LDP0    P$
        35 034133   400000 236007                    LDQ     -131072,DL
        35 034134   000000 256100                    ORSQ    0,,PR0

     5783    37910    3            END;

     5784    37911
     5785    37912    2          O1COM.SECTION_FOUND.WORKING_STORAGE = TRUE;

  37912 35 034135   400000 236003                    LDQ     -131072,DU
        35 034136   000063 256000 xsym               ORSQ    O1COM+51

     5786    37913    2          O1COM.LEVEL_NO = 0;

  37913 35 034137   000005 450000 xsym               STZ     O1COM+5

     5787    37914    2          HIER_STK_PTR = 0;

  37914 35 034140   000000 450000 xsym               STZ     HIER_STK_PTR
PL6.E3A0      #001=Z8EM$SEMANTICS_DATA_DIV File=Z8EM.:Z8A6TSI                    SAT 08/09/97 12:08 Page:1041
        35 034141   056641 710000 35                 TRA     s:45674

     5788    37915
     5789    37916    2     CASE(%ACT_LINKAGE_SECTION);

     5790    37917    2          O1COM.DATA_DECL_CONTEXT = %LINKAGE_SECTION;

  37917 35 034142   000004 236007                    LDQ     4,DL
        35 034143   000015 756000 xsym               STQ     O1COM+13

     5791    37918
     5792    37919    2          IF O1COM.SECTION_FOUND.LINKAGE_SECTION THEN

  37919 35 034144   000063 236000 xsym               LDQ     O1COM+51
        35 034145   200000 316003                    CANQ    65536,DU
        35 034146   034175 600000 35                 TZE     s:37958

     5793    37920    3            DO;

     5794    37921    3              P$ = ADDR(O1COM.LX_STK(O1COM.LX_TOP));

  37921 35 034147   000151 236000 xsym               LDQ     O1COM+105
        35 034150   000025 736000                    QLS     21
        35 034151   000631 036000 36                 ADLQ    409
        35 034152   000021 756000 0                  STQ     P$

     5795    37922
     5796    37923                   %CONDITIONAL_ERROR (@LX_ITEM$ = P$,
     5797    37924                                       @ERROR#   = %E$MULTIPLE_SECTIONS,
     5798    37925                                       @LINE     = P$ -> LX_ITEM.LINE,
     5799    37926                                       @COLUMN   = P$ -> LX_ITEM.COLUMN);

  37936 35 034153   000021 470400 0                  LDP0    P$
        35 034154   000000 236100                    LDQ     0,,PR0
        35 034155   400000 316007                    CANQ    -131072,DL
        35 034156   034175 601000 35                 TNZ     s:37958

PL6.E3A0      #001=Z8EM$SEMANTICS_DATA_DIV File=Z8EM.:Z8A6TSI                    SAT 08/09/97 12:08 Page:1042
  37938 35 034157   000021 236000 0                  LDQ     P$
        35 034160   000006 036003                    ADLQ    6,DU
        35 034161   001014 756000 0                  STQ     PROC$+4
        35 034162   000021 236000 0                  LDQ     P$
        35 034163   000005 036003                    ADLQ    5,DU
        35 034164   000633 235000 36                 LDA     411
        35 034165   001012 757000 0                  STAQ    PROC$+2
        35 034166   001012 630400 0                  EPPR0   PROC$+2
        35 034167   000000 631400 36                 EPPR1   0
        35 034170   000000 701000 xent               TSX1    Z8AE$ERROR
        35 034171   000000 011000                    NOP     0

  37947 35 034172   000021 470400 0                  LDP0    P$
        35 034173   400000 236007                    LDQ     -131072,DL
        35 034174   000000 256100                    ORSQ    0,,PR0

     5800    37956    3            END;

     5801    37957
     5802    37958    2          O1COM.SECTION_FOUND.LINKAGE_SECTION = TRUE;

  37958 35 034175   200000 236003                    LDQ     65536,DU
        35 034176   000063 256000 xsym               ORSQ    O1COM+51

     5803    37959    2          O1COM.LEVEL_NO = 0;

  37959 35 034177   000005 450000 xsym               STZ     O1COM+5

     5804    37960    2          HIER_STK_PTR = 0;

  37960 35 034200   000000 450000 xsym               STZ     HIER_STK_PTR
        35 034201   056641 710000 35                 TRA     s:45674

     5805    37961
     5806    37962    2     CASE(%ACT_CURRENCY_SIGN);

     5807    37963    2         CALL CURRENCY_SIGN (ADDR(O1COM.LX_STK(O1COM.LX_TOP)));
PL6.E3A0      #001=Z8EM$SEMANTICS_DATA_DIV File=Z8EM.:Z8A6TSI                    SAT 08/09/97 12:08 Page:1043

  37963 35 034202   000151 236000 xsym               LDQ     O1COM+105
        35 034203   000025 736000                    QLS     21
        35 034204   000631 036000 36                 ADLQ    409
        35 034205   001030 756000 0                  STQ     PROC$+16
        35 034206   001030 630400 0                  EPPR0   PROC$+16
        35 034207   000245 450400 0                  STP0    QLT$$+2
        35 034210   007155 701000 35                 TSX1    CURRENCY_SIGN
        35 034211   000000 011000                    NOP     0
        35 034212   056641 710000 35                 TRA     s:45674

     5808    37964
     5809    37965    2     CASE(%ACT_CURRENCY_SIGN_OBJECT);

     5810    37966
     5811    37967    2         CALL CURRENCY_SIGN (ADDR(O1COM.LX_STK(O1COM.LX_TOP - 5)));

  37967 35 034213   000151 236000 xsym               LDQ     O1COM+105
        35 034214   000025 736000                    QLS     21
        35 034215   000634 036000 36                 ADLQ    412
        35 034216   001031 756000 0                  STQ     PROC$+17
        35 034217   001031 630400 0                  EPPR0   PROC$+17
        35 034220   000245 450400 0                  STP0    QLT$$+2
        35 034221   007155 701000 35                 TSX1    CURRENCY_SIGN
        35 034222   000000 011000                    NOP     0
        35 034223   056641 710000 35                 TRA     s:45674

     5812    37968               /*N* HANDLE_OBJECT_SIGN -- Need to process LX_STK(LX_TOP) too */
     5813    37969
     5814    37970    2     CASE(%ACT_COMMA_DECIMAL_POINT) ;

     5815    37971    2         IF O1COM.LX_STK.SYMBOL(O1COM.LX_TOP) = %RSV_WRD_COMMA THEN

  37971 35 034224   000151 236000 xsym               LDQ     O1COM+105
        35 034225   000003 736000                    QLS     3
        35 034226   014022 235006 xsym               LDA     O1COM+6162,QL
        35 034227   000132 115007                    CMPA    90,DL
PL6.E3A0      #001=Z8EM$SEMANTICS_DATA_DIV File=Z8EM.:Z8A6TSI                    SAT 08/09/97 12:08 Page:1044
        35 034230   034235 601000 35                 TNZ     s:37974

     5816    37972    2           CALL Z8DP$COMMA_DECIMAL_POINT ;

  37972 35 034231   000011 631400 36                 EPPR1   9
        35 034232   000000 701000 xent               TSX1    Z8DP$COMMA_DECIMAL_POINT
        35 034233   000000 011000                    NOP     0
        35 034234   056641 710000 35                 TRA     s:45674

     5817    37973    2         ELSE
     5818    37974    2           O1COM.CURRENT_PROC$ -> PROC_.B.COMMA_IS_DECIMAL = FALSE;

  37974 35 034235   000057 470400 xsym               LDP0    O1COM+47
        35 034236   000021 236000 36                 LDQ     17
        35 034237   000003 356100                    ANSQ    3,,PR0
        35 034240   056641 710000 35                 TRA     s:45674

     5819    37975
     5820    37976    2     CASE(%ACT_OBJECT_COMMA_DEC_PNT);

     5821    37977    2         IF O1COM.LX_STK.SYMBOL( O1COM.LX_TOP - 3 ) = %RSV_WRD_COMMA      THEN

  37977 35 034241   000151 236000 xsym               LDQ     O1COM+105
        35 034242   000003 736000                    QLS     3
        35 034243   013772 235006 xsym               LDA     O1COM+6138,QL
        35 034244   000132 115007                    CMPA    90,DL
        35 034245   034261 601000 35                 TNZ     s:37984

     5822    37978    2           IF O1COM.LX_STK.SYMBOL( O1COM.LX_TOP ) = %RSV_WRD_COMMA      THEN

  37978 35 034246   014022 235006 xsym               LDA     O1COM+6162,QL
        35 034247   000132 115007                    CMPA    90,DL
        35 034250   034255 601000 35                 TNZ     s:37981

     5823    37979    2             CALL Z8DP$COMMA_DECIMAL_POINT;

  37979 35 034251   000011 631400 36                 EPPR1   9
PL6.E3A0      #001=Z8EM$SEMANTICS_DATA_DIV File=Z8EM.:Z8A6TSI                    SAT 08/09/97 12:08 Page:1045
        35 034252   000000 701000 xent               TSX1    Z8DP$COMMA_DECIMAL_POINT
        35 034253   000000 011000                    NOP     0
        35 034254   056641 710000 35                 TRA     s:45674

     5824    37980    2           ELSE
     5825    37981    2             CALL Z8DP$COMMA_DECIMAL_TABLE_SWITCH;

  37981 35 034255   000011 631400 36                 EPPR1   9
        35 034256   000000 701000 xent               TSX1    Z8DP$COMMA_DECIMAL_TABLE_SWITCH
        35 034257   000000 011000                    NOP     0
        35 034260   056641 710000 35                 TRA     s:45674

     5826    37982
     5827    37983    2         ELSE
     5828    37984    2           IF O1COM.LX_STK.SYMBOL( O1COM.LX_TOP ) = %RSV_WRD_COMMA     THEN

  37984 35 034261   014022 235006 xsym               LDA     O1COM+6162,QL
        35 034262   000132 115007                    CMPA    90,DL
        35 034263   034272 601000 35                 TNZ     s:37990

     5829    37985    3             DO;

     5830    37986    3               O1COM.CURRENT_PROC$ -> PROC_.B.OBJECT_IS_COMMA  = %TRUE;

  37986 35 034264   000057 470400 xsym               LDP0    O1COM+47
        35 034265   002000 236003                    LDQ     1024,DU
        35 034266   000003 256100                    ORSQ    3,,PR0

     5831    37987    3               COMCOM.COMMA_DECIMAL_PRESENT = TRUE;

  37987 35 034267   400000 236003                    LDQ     -131072,DU
        35 034270   000471 756000 xsym               STQ     COMCOM+313

     5832    37988    3             END;

  37988 35 034271   056641 710000 35                 TRA     s:45674

PL6.E3A0      #001=Z8EM$SEMANTICS_DATA_DIV File=Z8EM.:Z8A6TSI                    SAT 08/09/97 12:08 Page:1046
     5833    37989    2           ELSE
     5834    37990    2             O1COM.CURRENT_PROC$ -> PROC_.B.COMMA_IS_DECIMAL = %FALSE;

  37990 35 034272   000057 470400 xsym               LDP0    O1COM+47
        35 034273   000021 236000 36                 LDQ     17
        35 034274   000003 356100                    ANSQ    3,,PR0
        35 034275   056641 710000 35                 TRA     s:45674

     5835    37991
     5836    37992
     5837    37993    2     CASE(%ACT_DEBUGGING_MODE);

     5838    37994
     5839    37995    2          O1COM.DEBUGGING_MODE = TRUE;

  37995 35 034276   400000 236003                    LDQ     -131072,DU
        35 034277   000026 756000 xsym               STQ     O1COM+22
        35 034300   056641 710000 35                 TRA     s:45674

     5840    37996
     5841    37997
     5842    37998    2     CASE(%ACT_CONSECUTIVE_PROG);

     5843    37999    2          O1COM.FIRST_PROG_QLT$ = COMCOM.PREV_QLT$;

  37999 35 034301   000424 236000 xsym               LDQ     COMCOM+276
        35 034302   000062 756000 xsym               STQ     O1COM+50

     5844    38000
     5845    38001    2          IF END_PROGRAM_FOUND THEN

  38001 35 034303   000000 234000 xsym               SZN     END_PROGRAM_FOUND
        35 034304   034321 605000 35                 TPL     s:38382

     5846    38002                 %NEW_ILL (@ID = %END_PROG);

  38346 35 034305   000112 236000 36                 LDQ     74
PL6.E3A0      #001=Z8EM$SEMANTICS_DATA_DIV File=Z8EM.:Z8A6TSI                    SAT 08/09/97 12:08 Page:1047
        35 034306   001012 756000 0                  STQ     PROC$+2
        35 034307   001012 630400 0                  EPPR0   PROC$+2
        35 034310   001017 450400 0                  STP0    PROC$+7
        35 034311   000113 236000 36                 LDQ     75
        35 034312   001016 756000 0                  STQ     PROC$+6
        35 034313   000636 237000 36                 LDAQ    414
        35 034314   001014 757000 0                  STAQ    PROC$+4
        35 034315   001014 630400 0                  EPPR0   PROC$+4
        35 034316   000005 631400 36                 EPPR1   5
        35 034317   000000 701000 xent               TSX1    Z8AN$NEW_ILL
        35 034320   000000 011000                    NOP     0

     5847    38381
     5848    38382    2          IF O1COM.CURRENT_PROC$ ~= ADDR(NIL) THEN

  38382 35 034321   000057 236000 xsym               LDQ     O1COM+47
        35 034322   000024 116000 36                 CMPQ    20
        35 034323   056641 600000 35                 TZE     s:45674

     5849    38383    3            DO;

     5850    38384    3              P$ = O1COM.CURRENT_PROC$ -> PROC_.PROC_SUPP$;

  38384 35 034324   000057 470400 xsym               LDP0    O1COM+47
        35 034325   000001 236100                    LDQ     1,,PR0
        35 034326   000021 756000 0                  STQ     P$

     5851    38385
     5852    38386    3              O1COM.DISPLAY_SIGN_TYPE = P$ -> PROC_SUPP.DISPLAY_SIGN_TYPE;

  38386 35 034327   000021 471400 0                  LDP1    P$
        35 034330   100005 235100                    LDA     5,,PR1
        35 034331   000054 755000 xsym               STA     O1COM+44

     5853    38387    3              O1COM.DISPLAY_SIGN_POS  = P$ -> PROC_SUPP.DISPLAY_SIGN_POS;

  38387 35 034332   100004 235100                    LDA     4,,PR1
PL6.E3A0      #001=Z8EM$SEMANTICS_DATA_DIV File=Z8EM.:Z8A6TSI                    SAT 08/09/97 12:08 Page:1048
        35 034333   000053 755000 xsym               STA     O1COM+43

     5854    38388    3              O1COM.COMP_4_SIGN_POS   = P$ -> PROC_SUPP.COMP_4_SIGN_POS;

  38388 35 034334   100006 235100                    LDA     6,,PR1
        35 034335   000055 755000 xsym               STA     O1COM+45

     5855    38389    3              O1COM.COMP_DEFAULT      = P$ -> PROC_SUPP.COMP_DEFAULT;

  38389 35 034336   100007 235100                    LDA     7,,PR1
        35 034337   000056 755000 xsym               STA     O1COM+46

     5856    38390    3            END;

  38390 35 034340   056641 710000 35                 TRA     s:45674

     5857    38391
     5858    38392
     5859    38393    2     CASE(%ACT_END_PROGRAM);

     5860    38394    2          CALL Z8CO$END_PROGRAM (ADDR(O1COM.LX_STK(O1COM.LX_TOP - 1)));

  38394 35 034341   000151 236000 xsym               LDQ     O1COM+105
        35 034342   000025 736000                    QLS     21
        35 034343   000640 036000 36                 ADLQ    416
        35 034344   001012 756000 0                  STQ     PROC$+2
        35 034345   001012 630400 0                  EPPR0   PROC$+2
        35 034346   001013 450400 0                  STP0    PROC$+3
        35 034347   001013 630400 0                  EPPR0   PROC$+3
        35 034350   000036 631400 36                 EPPR1   30
        35 034351   000000 701000 xent               TSX1    Z8CO$END_PROGRAM
        35 034352   000000 011000                    NOP     0
        35 034353   056641 710000 35                 TRA     s:45674

     5861    38395
     5862    38396    2     CASE(%ACT_EOF);

PL6.E3A0      #001=Z8EM$SEMANTICS_DATA_DIV File=Z8EM.:Z8A6TSI                    SAT 08/09/97 12:08 Page:1049
     5863    38397
     5864    38398    2          IF O1COM.REPORT_SUM$ ~= ADDR(NIL) THEN

  38398 35 034354   000070 236000 xsym               LDQ     O1COM+56
        35 034355   000024 116000 36                 CMPQ    20
        35 034356   034363 600000 35                 TZE     s:38401

     5865    38399    2            CALL Z8ED$DISPOSE_ABSSYN_TREE(O1COM.REPORT_SUM$);

  38399 35 034357   000641 630400 36                 EPPR0   417
        35 034360   000036 631400 36                 EPPR1   30
        35 034361   000000 701000 xent               TSX1    Z8ED$DISPOSE_ABSSYN_TREE
        35 034362   000000 011000                    NOP     0

     5866    38400
     5867    38401    2          IF O1COM.REPORT_SOURCE$ ~= ADDR(NIL) THEN

  38401 35 034363   000066 236000 xsym               LDQ     O1COM+54
        35 034364   000024 116000 36                 CMPQ    20
        35 034365   034372 600000 35                 TZE     s:38404

     5868    38402    2            CALL Z8ED$DISPOSE_ABSSYN_TREE(O1COM.REPORT_SOURCE$);

  38402 35 034366   000642 630400 36                 EPPR0   418
        35 034367   000036 631400 36                 EPPR1   30
        35 034370   000000 701000 xent               TSX1    Z8ED$DISPOSE_ABSSYN_TREE
        35 034371   000000 011000                    NOP     0

     5869    38403
     5870    38404    2          IF COMCOM.IDS_SUB_SCHEMA      THEN

  38404 35 034372   000477 234000 xsym               SZN     COMCOM+319
        35 034373   034376 605000 35                 TPL     s:38407

     5871    38405    2             CALL DML_TABLE_WRAPUP;

  38405 35 034374   007473 701000 35                 TSX1    DML_TABLE_WRAPUP
PL6.E3A0      #001=Z8EM$SEMANTICS_DATA_DIV File=Z8EM.:Z8A6TSI                    SAT 08/09/97 12:08 Page:1050
        35 034375   000000 011000                    NOP     0

     5872    38406
     5873    38407    2          CALL Z8CO$END_PROGRAM (ADDR(NIL));

  38407 35 034376   000024 236000 36                 LDQ     20
        35 034377   001012 756000 0                  STQ     PROC$+2
        35 034400   001012 630400 0                  EPPR0   PROC$+2
        35 034401   001013 450400 0                  STP0    PROC$+3
        35 034402   001013 630400 0                  EPPR0   PROC$+3
        35 034403   000036 631400 36                 EPPR1   30
        35 034404   000000 701000 xent               TSX1    Z8CO$END_PROGRAM
        35 034405   000000 011000                    NOP     0
        35 034406   056641 710000 35                 TRA     s:45674

     5874    38408
     5875    38409    2     CASE(%ACT_ID_DIVISION);

     5876    38410
     5877    38411    2          O1COM.LAST_SECTION$ = ADDR(NIL);

  38411 35 034407   000024 236000 36                 LDQ     20
        35 034410   000050 756000 xsym               STQ     O1COM+40

     5878    38412    2          O1COM.CURRENT_SEGMENTC = %PROC;

  38412 35 034411   000126 450000 xsym               STZ     O1COM+86

     5879    38413
     5880    38414    2          CALL NEW_PROC (ADDR(O1COM.LX_STK(O1COM.LX_TOP - 3)),

  38414 35 034412   000151 236000 xsym               LDQ     O1COM+105
        35 034413   000025 736000                    QLS     21
        35 034414   000241 036000 36                 ADLQ    161
        35 034415   001032 756000 0                  STQ     PROC$+18
        35 034416   000151 236000 xsym               LDQ     O1COM+105
        35 034417   000025 736000                    QLS     21
PL6.E3A0      #001=Z8EM$SEMANTICS_DATA_DIV File=Z8EM.:Z8A6TSI                    SAT 08/09/97 12:08 Page:1051
        35 034420   000236 036000 36                 ADLQ    158
        35 034421   001033 756000 0                  STQ     PROC$+19
        35 034422   001033 630400 0                  EPPR0   PROC$+19
        35 034423   000434 450400 0                  STP0    @NAME$+1
        35 034424   001032 631400 0                  EPPR1   PROC$+18
        35 034425   000433 451400 0                  STP1    PAGE$+2
        35 034426   016072 701000 35                 TSX1    NEW_PROC
        35 034427   000000 011000                    NOP     0

     5881    38415    2                         ADDR(O1COM.LX_STK(O1COM.LX_TOP - 2)));
     5882    38416
     5883    38417    2          END_PROGRAM_FOUND = FALSE;

  38417 35 034430   000000 450000 xsym               STZ     END_PROGRAM_FOUND

     5884    38418
     5885    38419    2          IF O1COM.ID_DIV_COUNT = 0 AND COMCOM.INSTALLATION$ ~= ADDR(NIL) THEN

  38419 35 034431   000116 235000 xsym               LDA     O1COM+78
        35 034432   034450 601000 35                 TNZ     s:38428
        35 034433   000500 236000 xsym               LDQ     COMCOM+320
        35 034434   000024 116000 36                 CMPQ    20
        35 034435   034450 600000 35                 TZE     s:38428

     5886    38420    3            DO;

     5887    38421    3              CALL Z8EC$INTERNAL_STRING_REP (COMCOM.INSTALLATION$,

  38421 35 034436   000643 630400 36                 EPPR0   419
        35 034437   000025 631400 36                 EPPR1   21
        35 034440   000000 701000 xent               TSX1    Z8EC$INTERNAL_STRING_REP
        35 034441   000000 011000                    NOP     0

     5888    38422    3                                             P$);
     5889    38423    3              CALL Z8ED$DISPOSE_ABSSYN_TREE(COMCOM.INSTALLATION$);

  38423 35 034442   000643 630400 36                 EPPR0   419
PL6.E3A0      #001=Z8EM$SEMANTICS_DATA_DIV File=Z8EM.:Z8A6TSI                    SAT 08/09/97 12:08 Page:1052
        35 034443   000036 631400 36                 EPPR1   30
        35 034444   000000 701000 xent               TSX1    Z8ED$DISPOSE_ABSSYN_TREE
        35 034445   000000 011000                    NOP     0

     5890    38424
     5891    38425    3              COMCOM.INSTALLATION$ = P$;

  38425 35 034446   000021 236000 0                  LDQ     P$
        35 034447   000500 756000 xsym               STQ     COMCOM+320

     5892    38426    3            END;

     5893    38427
     5894    38428    2          O1COM.ID_DIV_COUNT = O1COM.ID_DIV_COUNT + 1;

  38428 35 034450   000116 054000 xsym               AOS     O1COM+78
        35 034451   056641 710000 35                 TRA     s:45674

     5895    38429
     5896    38430
     5897    38431    2     CASE(%ACT_NO_PROC_DIV);

     5898    38432
     5899    38433    2          CALL END_OF_ED_DD;

  38433 35 034452   010006 701000 35                 TSX1    END_OF_ED_DD
        35 034453   000000 011000                    NOP     0

     5900    38434
     5901    38435    2          IF O1COM.CURRENT_PROC$ -> PROC_.FATHER = ADDR(NIL)

  38435 35 034454   000057 470400 xsym               LDP0    O1COM+47
        35 034455   000011 236100                    LDQ     9,,PR0
        35 034456   000024 116000 36                 CMPQ    20
        35 034457   034513 601000 35                 TNZ     s:38993
        35 034460   000062 234000 xsym               SZN     COMCOM+50
        35 034461   034513 604000 35                 TMI     s:38993
PL6.E3A0      #001=Z8EM$SEMANTICS_DATA_DIV File=Z8EM.:Z8A6TSI                    SAT 08/09/97 12:08 Page:1053

     5902    38436    2          AND NOT COMCOM.OB.SUB THEN
     5903    38437    3            DO;

     5904    38438                   %NEW_ILL (@ID   = %ENTRY,
     5905    38439                             @CODE = %MAIN_PROGRAM,
     5906    38440                             @LOP  = O1COM.CURRENT_PROC$ -> PROC_.PROC_DEF$);

  38606 35 034462   000112 236000 36                 LDQ     74
        35 034463   001012 756000 0                  STQ     PROC$+2
        35 034464   001012 631400 0                  EPPR1   PROC$+2
        35 034465   001017 451400 0                  STP1    PROC$+7
        35 034466   000113 236000 36                 LDQ     75
        35 034467   001016 756000 0                  STQ     PROC$+6
        35 034470   000646 237000 36                 LDAQ    422
        35 034471   001014 757000 0                  STAQ    PROC$+4
        35 034472   001014 630400 0                  EPPR0   PROC$+4
        35 034473   000005 631400 36                 EPPR1   5
        35 034474   000000 701000 xent               TSX1    Z8AN$NEW_ILL
        35 034475   000000 011000                    NOP     0

  38607 35 034476   000057 470400 xsym               LDP0    O1COM+47
        35 034477   000006 236100                    LDQ     6,,PR0
        35 034500   000000 471400 5                  LDP1    ILL$
        35 034501   100001 756100                    STQ     1,,PR1

  38609 35 034502   000024 236000 36                 LDQ     20
        35 034503   100002 756100                    STQ     2,,PR1

  38616 35 034504   000000 220003                    LDX0    0,DU
        35 034505   100000 440100                    SXL0    0,,PR1

     5907    38819
     5908    38820    3              O1COM.CURRENT_PROC$ -> PROC_.PROC_DEF$ ->

  38820 35 034506   000057 470400 xsym               LDP0    O1COM+47
        35 034507   000006 471500                    LDP1    6,,PR0
PL6.E3A0      #001=Z8EM$SEMANTICS_DATA_DIV File=Z8EM.:Z8A6TSI                    SAT 08/09/97 12:08 Page:1054
        35 034510   400000 236003                    LDQ     -131072,DU
        35 034511   100003 256100                    ORSQ    3,,PR1

     5909    38821    3              SYMDEF_.B.MAIN_PROGRAM = TRUE;
     5910    38822    3            END;

  38822 35 034512   056641 710000 35                 TRA     s:45674

     5911    38823    2          ELSE
     5912    38824    3            DO;

     5913    38825                   %NEW_ILL (@ID   = %ENTRY,
     5914    38826                             @CODE = %SUBROUTINE,
     5915    38827                             @LOP  = O1COM.CURRENT_PROC$ -> PROC_.PROC_DEF$);

  38993 35 034513   000112 236000 36                 LDQ     74
        35 034514   001012 756000 0                  STQ     PROC$+2
        35 034515   001012 631400 0                  EPPR1   PROC$+2
        35 034516   001017 451400 0                  STP1    PROC$+7
        35 034517   000113 236000 36                 LDQ     75
        35 034520   001016 756000 0                  STQ     PROC$+6
        35 034521   000646 237000 36                 LDAQ    422
        35 034522   001014 757000 0                  STAQ    PROC$+4
        35 034523   001014 630400 0                  EPPR0   PROC$+4
        35 034524   000005 631400 36                 EPPR1   5
        35 034525   000000 701000 xent               TSX1    Z8AN$NEW_ILL
        35 034526   000000 011000                    NOP     0

  38994 35 034527   000057 470400 xsym               LDP0    O1COM+47
        35 034530   000006 236100                    LDQ     6,,PR0
        35 034531   000000 471400 5                  LDP1    ILL$
        35 034532   100001 756100                    STQ     1,,PR1

  38996 35 034533   000024 236000 36                 LDQ     20
        35 034534   100002 756100                    STQ     2,,PR1

  39003 35 034535   000001 220003                    LDX0    1,DU
PL6.E3A0      #001=Z8EM$SEMANTICS_DATA_DIV File=Z8EM.:Z8A6TSI                    SAT 08/09/97 12:08 Page:1055
        35 034536   100000 440100                    SXL0    0,,PR1

     5916    39206
     5917    39207                   /* Create the pseudo stack, this is for the return
     5918    39208                      addr to be put. */
     5919    39209
     5920    39210    3              CALL Z8AT$CREATE_TEMPORARY (%SCALAR, P$);

  39210 35 034537   000650 630400 36                 EPPR0   424
        35 034540   000025 631400 36                 EPPR1   21
        35 034541   000000 701000 xent               TSX1    Z8AT$CREATE_TEMPORARY
        35 034542   000000 011000                    NOP     0

     5921    39211
     5922    39212    3              P$ -> SCALAR.B.CLASS = %CLASS_ALPHANUMERIC;

  39212 35 034543   000021 470400 0                  LDP0    P$
        35 034544   000003 236100                    LDQ     3,,PR0
        35 034545   000202 376000 36                 ANQ     130
        35 034546   000003 276007                    ORQ     3,DL
        35 034547   000003 756100                    STQ     3,,PR0

     5923    39213    3              P$ -> SCALAR.TYPE    = %TYA;

  39213 35 034550   000010 220003                    LDX0    8,DU
        35 034551   000021 470400 0                  LDP0    P$
        35 034552   000002 740100                    STX0    2,,PR0

     5924    39214    3              P$ -> SCALAR.ADSC.N  = 4;

  39214 35 034553   000021 470400 0                  LDP0    P$
        35 034554   000004 236007                    LDQ     4,DL
        35 034555   000001 752103                    STCQ    1,'03'O,PR0

     5925    39215
     5926    39216    3              CALL Z8AF$NEW_BASE (P$, ADDR(NIL), O1COM.CURRENT_PROC$ ->

PL6.E3A0      #001=Z8EM$SEMANTICS_DATA_DIV File=Z8EM.:Z8A6TSI                    SAT 08/09/97 12:08 Page:1056
  39216 35 034556   000024 236000 36                 LDQ     20
        35 034557   001012 756000 0                  STQ     PROC$+2
        35 034560   000057 236000 xsym               LDQ     O1COM+47
        35 034561   000004 036003                    ADLQ    4,DU
        35 034562   001015 756000 0                  STQ     PROC$+5
        35 034563   001012 630400 0                  EPPR0   PROC$+2
        35 034564   001014 450400 0                  STP0    PROC$+4
        35 034565   000306 236000 36                 LDQ     198
        35 034566   001013 756000 0                  STQ     PROC$+3
        35 034567   001013 630400 0                  EPPR0   PROC$+3
        35 034570   000000 631400 36                 EPPR1   0
        35 034571   000000 701000 xent               TSX1    Z8AF$NEW_BASE
        35 034572   000000 011000                    NOP     0

     5927    39217    3                                                 PROC_.PSEUDO_STACK$);
     5928    39218
     5929    39219    3              IF COMCOM.X66_STATIC_0$ = ADDR(NIL)    THEN

  39219 35 034573   000464 236000 xsym               LDQ     COMCOM+308
        35 034574   000024 116000 36                 CMPQ    20
        35 034575   056641 601000 35                 TNZ     s:45674

     5930    39220    4                DO;

     5931    39221
     5932    39222                       %NEW_DNT( @NAME = "'X66_STATIC_0'", @SIZE = 12 );

  39225 35 034576   000010 235007                    LDA     8,DL
        35 034577   000000 755000 2                  STA     ITERATION

  39226 35 034600   000002 236000 15                 LDQ     DNT_+2
        35 034601   000000 036000 2                  ADLQ    ITERATION
        35 034602   034615 604000 35                 TMI     s:39228
        35 034603   000003 116000 15                 CMPQ    DNT_+3
        35 034604   034615 602000 35                 TNC     s:39228

  39227 35 034605   000037 236000 36                 LDQ     31
PL6.E3A0      #001=Z8EM$SEMANTICS_DATA_DIV File=Z8EM.:Z8A6TSI                    SAT 08/09/97 12:08 Page:1057
        35 034606   001012 756000 0                  STQ     PROC$+2
        35 034607   001012 630400 0                  EPPR0   PROC$+2
        35 034610   001013 450400 0                  STP0    PROC$+3
        35 034611   001013 630400 0                  EPPR0   PROC$+3
        35 034612   000036 631400 36                 EPPR1   30
        35 034613   000000 701000 xent               TSX1    Z8AR$RESERVER
        35 034614   000000 011000                    NOP     0

  39228 35 034615   000002 236000 15                 LDQ     DNT_+2
        35 034616   000022 736000                    QLS     18
        35 034617   000001 036000 15                 ADLQ    DNT_+1
        35 034620   000000 756000 14                 STQ     DNT$

  39229 35 034621   000002 236000 15                 LDQ     DNT_+2
        35 034622   000000 036000 2                  ADLQ    ITERATION
        35 034623   000002 756000 15                 STQ     DNT_+2

  39230 35 034624   001046 220003                    LDX0    550,DU
        35 034625   000000 470400 14                 LDP0    DNT$
        35 034626   000000 740100                    STX0    0,,PR0

  39231 35 034627   000000 721000 2                  LXL1    ITERATION
        35 034630   000000 470400 14                 LDP0    DNT$
        35 034631   000000 441100                    SXL1    0,,PR0

  39232 35 034632   000014 221003                    LDX1    12,DU
        35 034633   000000 470400 14                 LDP0    DNT$
        35 034634   000004 741100                    STX1    4,,PR0

  39235 35 034635   000024 236000 36                 LDQ     20
        35 034636   000001 756100                    STQ     1,,PR0

  39236 35 034637   000024 236000 36                 LDQ     20
        35 034640   000002 756100                    STQ     2,,PR0

  39237 35 034641   000000 222003                    LDX2    0,DU
        35 034642   000003 742100                    STX2    3,,PR0
PL6.E3A0      #001=Z8EM$SEMANTICS_DATA_DIV File=Z8EM.:Z8A6TSI                    SAT 08/09/97 12:08 Page:1058

  39238 35 034643   000000 223003                    LDX3    0,DU
        35 034644   000003 443100                    SXL3    3,,PR0

  39239 35 034645   040140 100400                    MLR     fill='040'O
        35 034646   000133 000014 34                 ADSC9   RSW_NO+91                cn=0,n=12
        35 034647   000004 400011                    ADSC9   4,,PR0                   cn=2,n=*X1

     5933    39280                       %NEW_SYMREF_( @ST$  = ST$,
     5934    39281                                     @R    = %EXT_PROGRAM,
     5935    39282                                     @DNT$ = DNT$ );

  39286 35 034650   000002 236000 13                 LDQ     ST_+2
        35 034651   000013 036007                    ADLQ    11,DL
        35 034652   000003 116000 13                 CMPQ    ST_+3
        35 034653   034664 604000 35                 TMI     s:39288

  39287 35 034654   000102 236000 36                 LDQ     66
        35 034655   001012 756000 0                  STQ     PROC$+2
        35 034656   001012 631400 0                  EPPR1   PROC$+2
        35 034657   001013 451400 0                  STP1    PROC$+3
        35 034660   001013 630400 0                  EPPR0   PROC$+3
        35 034661   000036 631400 36                 EPPR1   30
        35 034662   000000 701000 xent               TSX1    Z8AR$RESERVER
        35 034663   000000 011000                    NOP     0

  39288 35 034664   000002 236000 13                 LDQ     ST_+2
        35 034665   000022 736000                    QLS     18
        35 034666   000001 036000 13                 ADLQ    ST_+1
        35 034667   000000 756000 12                 STQ     ST$

  39289 35 034670   000013 236007                    LDQ     11,DL
        35 034671   000002 056000 13                 ASQ     ST_+2

  39292 35 034672   000772 220003                    LDX0    506,DU
        35 034673   000000 470400 12                 LDP0    ST$
        35 034674   000000 740100                    STX0    0,,PR0
PL6.E3A0      #001=Z8EM$SEMANTICS_DATA_DIV File=Z8EM.:Z8A6TSI                    SAT 08/09/97 12:08 Page:1059

  39293 35 034675   000000 470400 12                 LDP0    ST$
        35 034676   002000 236007                    LDQ     1024,DL
        35 034677   000000 552110                    STBQ    0,'10'O,PR0

  39294 35 034700   000000 470400 12                 LDP0    ST$
        35 034701   000000 236003                    LDQ     0,DU
        35 034702   000000 552104                    STBQ    0,'04'O,PR0

  39295 35 034703   000001 235007                    LDA     1,DL
        35 034704   000000 470400 12                 LDP0    ST$
        35 034705   000010 755100                    STA     8,,PR0

  39296 35 034706   000020 221003                    LDX1    16,DU
        35 034707   000002 741100                    STX1    2,,PR0

  39297 35 034710   000133 722000 xsym               LXL2    COMCOM+91
        35 034711   000002 442100                    SXL2    2,,PR0

  39298 35 034712   000024 236000 36                 LDQ     20
        35 034713   000004 756100                    STQ     4,,PR0

  39299 35 034714   000003 450100                    STZ     3,,PR0

  39301 35 034715   000001 236007                    LDQ     1,DL
        35 034716   000003 256100                    ORSQ    3,,PR0

  39303 35 034717   000000 236000 14                 LDQ     DNT$
        35 034720   000006 756100                    STQ     6,,PR0

  39307 35 034721   000024 236000 36                 LDQ     20
        35 034722   000012 756100                    STQ     10,,PR0

  39310 35 034723   000057 236000 xsym               LDQ     O1COM+47
        35 034724   000011 756100                    STQ     9,,PR0

  39311 35 034725   000057 236000 xsym               LDQ     O1COM+47
PL6.E3A0      #001=Z8EM$SEMANTICS_DATA_DIV File=Z8EM.:Z8A6TSI                    SAT 08/09/97 12:08 Page:1060
        35 034726   000024 116000 36                 CMPQ    20
        35 034727   034751 600000 35                 TZE     s:39347

  39315 35 034730   000057 471400 xsym               LDP1    O1COM+47
        35 034731   100001 473500                    LDP3    1,,PR1
        35 034732   300012 236100                    LDQ     10,,PR3
        35 034733   000024 116000 36                 CMPQ    20
        35 034734   034743 601000 35                 TNZ     s:39322

  39317 35 034735   000000 236000 12                 LDQ     ST$
        35 034736   300011 756100                    STQ     9,,PR3

  39318 35 034737   000057 471400 xsym               LDP1    O1COM+47
        35 034740   100001 473500                    LDP3    1,,PR1
        35 034741   300012 756100                    STQ     10,,PR3

  39319 35 034742   034751 710000 35                 TRA     s:39347

  39322 35 034743   300012 474500                    LDP4    10,,PR3
        35 034744   000000 236000 12                 LDQ     ST$
        35 034745   400012 756100                    STQ     10,,PR4

  39323 35 034746   000057 471400 xsym               LDP1    O1COM+47
        35 034747   100001 473500                    LDP3    1,,PR1
        35 034750   300012 756100                    STQ     10,,PR3

     5936    39347    4                  COMCOM.SYMREFC = COMCOM.SYMREFC + 1;

  39347 35 034751   000437 054000 xsym               AOS     COMCOM+287

     5937    39348    4                  ST$ -> SYMREF_.COUNT = COMCOM.SYMREFC;

  39348 35 034752   000437 236000 xsym               LDQ     COMCOM+287
        35 034753   000000 552104                    STBQ    0,'04'O,PR0

     5938    39349    4                  O1COM.LAST_SYMREF$ -> SYMREF_.NEXT = ST$;

PL6.E3A0      #001=Z8EM$SEMANTICS_DATA_DIV File=Z8EM.:Z8A6TSI                    SAT 08/09/97 12:08 Page:1061
  39349 35 034754   000000 236000 12                 LDQ     ST$
        35 034755   000052 470400 xsym               LDP0    O1COM+42
        35 034756   000004 756100                    STQ     4,,PR0

     5939    39350    4                  O1COM.LAST_SYMREF$ = ST$;

  39350 35 034757   000052 756000 xsym               STQ     O1COM+42

     5940    39351
     5941    39352    4                  CALL Z8AF$FORME( %ESC, ST$, 0, P$ );

  39352 35 034760   000653 630400 36                 EPPR0   427
        35 034761   000005 631400 36                 EPPR1   5
        35 034762   000000 701000 xent               TSX1    Z8AF$FORME
        35 034763   000000 011000                    NOP     0

     5942    39353    4                  CALL Z8AF$NEW_BASE( ST$, P$, COMCOM.X66_STATIC_0$ );

  39353 35 034764   000657 630400 36                 EPPR0   431
        35 034765   000000 631400 36                 EPPR1   0
        35 034766   000000 701000 xent               TSX1    Z8AF$NEW_BASE
        35 034767   000000 011000                    NOP     0

     5943    39354    4                END;

     5944    39355    3            END;

  39355 35 034770   056641 710000 35                 TRA     s:45674

     5945    39356         %EJECT;
PL6.E3A0      #001=Z8EM$SEMANTICS_DATA_DIV File=Z8EM.:Z8A6TSI                    SAT 08/09/97 12:08 Page:1062
     5946    39357        /*
     5947    39358                          Identification Paragraph checks
     5948    39359        */
     5949    39360    2     CASE(%ACT_AUTHOR_PGPH_PRSNT);

     5950    39361    2          IF AUTHOR_PGPH_FLAG THEN

  39361 35 034771   000025 234000 0                  SZN     AUTHOR_PGPH_FLAG
        35 034772   035010 605000 35                 TPL     s:39365

     5951    39362    2               CALL Z8AE$ERROR(%E$DUPL_DEFIN_ERR,

  39362 35 034773   000151 236000 xsym               LDQ     O1COM+105
        35 034774   000025 736000                    QLS     21
        35 034775   000662 036000 36                 ADLQ    434
        35 034776   001014 756000 0                  STQ     PROC$+4
        35 034777   000151 236000 xsym               LDQ     O1COM+105
        35 035000   000025 736000                    QLS     21
        35 035001   000663 036000 36                 ADLQ    435
        35 035002   000464 235000 36                 LDA     308
        35 035003   001012 757000 0                  STAQ    PROC$+2
        35 035004   001012 630400 0                  EPPR0   PROC$+2
        35 035005   000000 631400 36                 EPPR1   0
        35 035006   000000 701000 xent               TSX1    Z8AE$ERROR
        35 035007   000000 011000                    NOP     0

     5952    39363    2                  O1COM.LX_STK.LINE(O1COM.LX_TOP),
     5953    39364    2                  O1COM.LX_STK.COLUMN(O1COM.LX_TOP));
     5954    39365    2          IF COMCOM.OB.FIPS.LEVEL > 0 THEN

  39365 35 035010   000036 720000 xsym               LXL0    COMCOM+30
        35 035011   035037 604400 35                 TMOZ    s:39373

     5955    39366    3               DO;

     5956    39367    3               IF INSTALL_PGPH_FLAG OR DATWRIT_PGPH_FLAG OR

PL6.E3A0      #001=Z8EM$SEMANTICS_DATA_DIV File=Z8EM.:Z8A6TSI                    SAT 08/09/97 12:08 Page:1063
  39367 35 035012   000026 234000 0                  SZN     INSTALL_PGPH_FLAG
        35 035013   035022 604000 35                 TMI     s:39369
        35 035014   000027 234000 0                  SZN     DATWRIT_PGPH_FLAG
        35 035015   035022 604000 35                 TMI     s:39369
        35 035016   000030 234000 0                  SZN     DATCMPIL_PGPH_FLAG
        35 035017   035022 604000 35                 TMI     s:39369
        35 035020   000031 234000 0                  SZN     SECURITY_PGPH_FLAG
        35 035021   035037 605000 35                 TPL     s:39373

     5957    39368    3                    DATCMPIL_PGPH_FLAG OR SECURITY_PGPH_FLAG THEN
     5958    39369    3                       CALL Z8AE$ERROR(%E$IDEN_PGPH_SEQ_ERR,

  39369 35 035022   000151 236000 xsym               LDQ     O1COM+105
        35 035023   000025 736000                    QLS     21
        35 035024   000662 036000 36                 ADLQ    434
        35 035025   001014 756000 0                  STQ     PROC$+4
        35 035026   000151 236000 xsym               LDQ     O1COM+105
        35 035027   000025 736000                    QLS     21
        35 035030   000663 036000 36                 ADLQ    435
        35 035031   000665 235000 36                 LDA     437
        35 035032   001012 757000 0                  STAQ    PROC$+2
        35 035033   001012 630400 0                  EPPR0   PROC$+2
        35 035034   000000 631400 36                 EPPR1   0
        35 035035   000000 701000 xent               TSX1    Z8AE$ERROR
        35 035036   000000 011000                    NOP     0

     5959    39370    3                          O1COM.LX_STK.LINE(O1COM.LX_TOP),
     5960    39371    3                          O1COM.LX_STK.COLUMN(O1COM.LX_TOP));
     5961    39372    3               END;

     5962    39373    2          IF COMCOM.OB.FIPS.OBS THEN

  39373 35 035037   000036 234000 xsym               SZN     COMCOM+30
        35 035040   035056 605000 35                 TPL     s:39377

     5963    39374    2            CALL Z8AE$ERROR (%E$OBSOLETE,

PL6.E3A0      #001=Z8EM$SEMANTICS_DATA_DIV File=Z8EM.:Z8A6TSI                    SAT 08/09/97 12:08 Page:1064
  39374 35 035041   000151 236000 xsym               LDQ     O1COM+105
        35 035042   000025 736000                    QLS     21
        35 035043   000662 036000 36                 ADLQ    434
        35 035044   001014 756000 0                  STQ     PROC$+4
        35 035045   000151 236000 xsym               LDQ     O1COM+105
        35 035046   000025 736000                    QLS     21
        35 035047   000663 036000 36                 ADLQ    435
        35 035050   000543 235000 36                 LDA     355
        35 035051   001012 757000 0                  STAQ    PROC$+2
        35 035052   001012 630400 0                  EPPR0   PROC$+2
        35 035053   000000 631400 36                 EPPR1   0
        35 035054   000000 701000 xent               TSX1    Z8AE$ERROR
        35 035055   000000 011000                    NOP     0

     5964    39375    2                             O1COM.LX_STK.LINE(O1COM.LX_TOP),
     5965    39376    2                             O1COM.LX_STK.COLUMN(O1COM.LX_TOP));
     5966    39377    2          AUTHOR_PGPH_FLAG = TRUE;

  39377 35 035056   400000 236003                    LDQ     -131072,DU
        35 035057   000025 756000 0                  STQ     AUTHOR_PGPH_FLAG
        35 035060   056641 710000 35                 TRA     s:45674

     5967    39378
     5968    39379    2     CASE(%ACT_INSTALL_PGPH_PRSNT);

     5969    39380    2          IF INSTALL_PGPH_FLAG THEN

  39380 35 035061   000026 234000 0                  SZN     INSTALL_PGPH_FLAG
        35 035062   035100 605000 35                 TPL     s:39384

     5970    39381    2               CALL Z8AE$ERROR(%E$DUPL_DEFIN_ERR,

  39381 35 035063   000151 236000 xsym               LDQ     O1COM+105
        35 035064   000025 736000                    QLS     21
        35 035065   000662 036000 36                 ADLQ    434
        35 035066   001014 756000 0                  STQ     PROC$+4
        35 035067   000151 236000 xsym               LDQ     O1COM+105
PL6.E3A0      #001=Z8EM$SEMANTICS_DATA_DIV File=Z8EM.:Z8A6TSI                    SAT 08/09/97 12:08 Page:1065
        35 035070   000025 736000                    QLS     21
        35 035071   000663 036000 36                 ADLQ    435
        35 035072   000464 235000 36                 LDA     308
        35 035073   001012 757000 0                  STAQ    PROC$+2
        35 035074   001012 630400 0                  EPPR0   PROC$+2
        35 035075   000000 631400 36                 EPPR1   0
        35 035076   000000 701000 xent               TSX1    Z8AE$ERROR
        35 035077   000000 011000                    NOP     0

     5971    39382    2                  O1COM.LX_STK.LINE(O1COM.LX_TOP),
     5972    39383    2                  O1COM.LX_STK.COLUMN(O1COM.LX_TOP));
     5973    39384    2          IF COMCOM.OB.FIPS.LEVEL > 0 THEN

  39384 35 035100   000036 720000 xsym               LXL0    COMCOM+30
        35 035101   035125 604400 35                 TMOZ    s:39392

     5974    39385    3               DO;

     5975    39386    3               IF DATWRIT_PGPH_FLAG OR

  39386 35 035102   000027 234000 0                  SZN     DATWRIT_PGPH_FLAG
        35 035103   035110 604000 35                 TMI     s:39388
        35 035104   000030 234000 0                  SZN     DATCMPIL_PGPH_FLAG
        35 035105   035110 604000 35                 TMI     s:39388
        35 035106   000031 234000 0                  SZN     SECURITY_PGPH_FLAG
        35 035107   035125 605000 35                 TPL     s:39392

     5976    39387    3                    DATCMPIL_PGPH_FLAG OR SECURITY_PGPH_FLAG THEN
     5977    39388    3                       CALL Z8AE$ERROR(%E$IDEN_PGPH_SEQ_ERR,

  39388 35 035110   000151 236000 xsym               LDQ     O1COM+105
        35 035111   000025 736000                    QLS     21
        35 035112   000662 036000 36                 ADLQ    434
        35 035113   001014 756000 0                  STQ     PROC$+4
        35 035114   000151 236000 xsym               LDQ     O1COM+105
        35 035115   000025 736000                    QLS     21
        35 035116   000663 036000 36                 ADLQ    435
PL6.E3A0      #001=Z8EM$SEMANTICS_DATA_DIV File=Z8EM.:Z8A6TSI                    SAT 08/09/97 12:08 Page:1066
        35 035117   000665 235000 36                 LDA     437
        35 035120   001012 757000 0                  STAQ    PROC$+2
        35 035121   001012 630400 0                  EPPR0   PROC$+2
        35 035122   000000 631400 36                 EPPR1   0
        35 035123   000000 701000 xent               TSX1    Z8AE$ERROR
        35 035124   000000 011000                    NOP     0

     5978    39389    3                          O1COM.LX_STK.LINE(O1COM.LX_TOP),
     5979    39390    3                          O1COM.LX_STK.COLUMN(O1COM.LX_TOP));
     5980    39391    3               END;

     5981    39392    2          IF COMCOM.OB.FIPS.OBS THEN

  39392 35 035125   000036 234000 xsym               SZN     COMCOM+30
        35 035126   035144 605000 35                 TPL     s:39396

     5982    39393    2            CALL Z8AE$ERROR (%E$OBSOLETE,

  39393 35 035127   000151 236000 xsym               LDQ     O1COM+105
        35 035130   000025 736000                    QLS     21
        35 035131   000662 036000 36                 ADLQ    434
        35 035132   001014 756000 0                  STQ     PROC$+4
        35 035133   000151 236000 xsym               LDQ     O1COM+105
        35 035134   000025 736000                    QLS     21
        35 035135   000663 036000 36                 ADLQ    435
        35 035136   000543 235000 36                 LDA     355
        35 035137   001012 757000 0                  STAQ    PROC$+2
        35 035140   001012 630400 0                  EPPR0   PROC$+2
        35 035141   000000 631400 36                 EPPR1   0
        35 035142   000000 701000 xent               TSX1    Z8AE$ERROR
        35 035143   000000 011000                    NOP     0

     5983    39394    2                             O1COM.LX_STK.LINE(O1COM.LX_TOP),
     5984    39395    2                             O1COM.LX_STK.COLUMN(O1COM.LX_TOP));
     5985    39396    2          INSTALL_PGPH_FLAG = TRUE;

  39396 35 035144   400000 236003                    LDQ     -131072,DU
PL6.E3A0      #001=Z8EM$SEMANTICS_DATA_DIV File=Z8EM.:Z8A6TSI                    SAT 08/09/97 12:08 Page:1067
        35 035145   000026 756000 0                  STQ     INSTALL_PGPH_FLAG
        35 035146   056641 710000 35                 TRA     s:45674

     5986    39397
     5987    39398    2     CASE(%ACT_DATWRIT_PGPH_PRSNT);

     5988    39399    2          IF DATWRIT_PGPH_FLAG THEN

  39399 35 035147   000027 234000 0                  SZN     DATWRIT_PGPH_FLAG
        35 035150   035166 605000 35                 TPL     s:39403

     5989    39400    2               CALL Z8AE$ERROR(%E$DUPL_DEFIN_ERR,

  39400 35 035151   000151 236000 xsym               LDQ     O1COM+105
        35 035152   000025 736000                    QLS     21
        35 035153   000662 036000 36                 ADLQ    434
        35 035154   001014 756000 0                  STQ     PROC$+4
        35 035155   000151 236000 xsym               LDQ     O1COM+105
        35 035156   000025 736000                    QLS     21
        35 035157   000663 036000 36                 ADLQ    435
        35 035160   000464 235000 36                 LDA     308
        35 035161   001012 757000 0                  STAQ    PROC$+2
        35 035162   001012 630400 0                  EPPR0   PROC$+2
        35 035163   000000 631400 36                 EPPR1   0
        35 035164   000000 701000 xent               TSX1    Z8AE$ERROR
        35 035165   000000 011000                    NOP     0

     5990    39401    2                  O1COM.LX_STK.LINE(O1COM.LX_TOP),
     5991    39402    2                  O1COM.LX_STK.COLUMN(O1COM.LX_TOP));
     5992    39403    2          IF COMCOM.OB.FIPS.LEVEL > 0 THEN

  39403 35 035166   000036 720000 xsym               LXL0    COMCOM+30
        35 035167   035211 604400 35                 TMOZ    s:39410

     5993    39404    3               DO;

     5994    39405    3               IF DATCMPIL_PGPH_FLAG OR SECURITY_PGPH_FLAG THEN
PL6.E3A0      #001=Z8EM$SEMANTICS_DATA_DIV File=Z8EM.:Z8A6TSI                    SAT 08/09/97 12:08 Page:1068

  39405 35 035170   000030 234000 0                  SZN     DATCMPIL_PGPH_FLAG
        35 035171   035174 604000 35                 TMI     s:39406
        35 035172   000031 234000 0                  SZN     SECURITY_PGPH_FLAG
        35 035173   035211 605000 35                 TPL     s:39410

     5995    39406    3                       CALL Z8AE$ERROR(%E$IDEN_PGPH_SEQ_ERR,

  39406 35 035174   000151 236000 xsym               LDQ     O1COM+105
        35 035175   000025 736000                    QLS     21
        35 035176   000662 036000 36                 ADLQ    434
        35 035177   001014 756000 0                  STQ     PROC$+4
        35 035200   000151 236000 xsym               LDQ     O1COM+105
        35 035201   000025 736000                    QLS     21
        35 035202   000663 036000 36                 ADLQ    435
        35 035203   000665 235000 36                 LDA     437
        35 035204   001012 757000 0                  STAQ    PROC$+2
        35 035205   001012 630400 0                  EPPR0   PROC$+2
        35 035206   000000 631400 36                 EPPR1   0
        35 035207   000000 701000 xent               TSX1    Z8AE$ERROR
        35 035210   000000 011000                    NOP     0

     5996    39407    3                          O1COM.LX_STK.LINE(O1COM.LX_TOP),
     5997    39408    3                          O1COM.LX_STK.COLUMN(O1COM.LX_TOP));
     5998    39409    3               END;

     5999    39410    2          IF COMCOM.OB.FIPS.OBS THEN

  39410 35 035211   000036 234000 xsym               SZN     COMCOM+30
        35 035212   035230 605000 35                 TPL     s:39414

     6000    39411    2            CALL Z8AE$ERROR (%E$OBSOLETE,

  39411 35 035213   000151 236000 xsym               LDQ     O1COM+105
        35 035214   000025 736000                    QLS     21
        35 035215   000662 036000 36                 ADLQ    434
        35 035216   001014 756000 0                  STQ     PROC$+4
PL6.E3A0      #001=Z8EM$SEMANTICS_DATA_DIV File=Z8EM.:Z8A6TSI                    SAT 08/09/97 12:08 Page:1069
        35 035217   000151 236000 xsym               LDQ     O1COM+105
        35 035220   000025 736000                    QLS     21
        35 035221   000663 036000 36                 ADLQ    435
        35 035222   000543 235000 36                 LDA     355
        35 035223   001012 757000 0                  STAQ    PROC$+2
        35 035224   001012 630400 0                  EPPR0   PROC$+2
        35 035225   000000 631400 36                 EPPR1   0
        35 035226   000000 701000 xent               TSX1    Z8AE$ERROR
        35 035227   000000 011000                    NOP     0

     6001    39412    2                             O1COM.LX_STK.LINE(O1COM.LX_TOP),
     6002    39413    2                             O1COM.LX_STK.COLUMN(O1COM.LX_TOP));
     6003    39414    2          DATWRIT_PGPH_FLAG = TRUE;

  39414 35 035230   400000 236003                    LDQ     -131072,DU
        35 035231   000027 756000 0                  STQ     DATWRIT_PGPH_FLAG
        35 035232   056641 710000 35                 TRA     s:45674

     6004    39415
     6005    39416    2     CASE(%ACT_DATCMPIL_PGPH_PRSNT);

     6006    39417    2          IF DATCMPIL_PGPH_FLAG THEN

  39417 35 035233   000030 234000 0                  SZN     DATCMPIL_PGPH_FLAG
        35 035234   035252 605000 35                 TPL     s:39421

     6007    39418    2               CALL Z8AE$ERROR(%E$DUPL_DEFIN_ERR,

  39418 35 035235   000151 236000 xsym               LDQ     O1COM+105
        35 035236   000025 736000                    QLS     21
        35 035237   000662 036000 36                 ADLQ    434
        35 035240   001014 756000 0                  STQ     PROC$+4
        35 035241   000151 236000 xsym               LDQ     O1COM+105
        35 035242   000025 736000                    QLS     21
        35 035243   000663 036000 36                 ADLQ    435
        35 035244   000464 235000 36                 LDA     308
        35 035245   001012 757000 0                  STAQ    PROC$+2
PL6.E3A0      #001=Z8EM$SEMANTICS_DATA_DIV File=Z8EM.:Z8A6TSI                    SAT 08/09/97 12:08 Page:1070
        35 035246   001012 630400 0                  EPPR0   PROC$+2
        35 035247   000000 631400 36                 EPPR1   0
        35 035250   000000 701000 xent               TSX1    Z8AE$ERROR
        35 035251   000000 011000                    NOP     0

     6008    39419    2                  O1COM.LX_STK.LINE(O1COM.LX_TOP),
     6009    39420    2                  O1COM.LX_STK.COLUMN(O1COM.LX_TOP));
     6010    39421    2          IF COMCOM.OB.FIPS.LEVEL > 0 THEN

  39421 35 035252   000036 720000 xsym               LXL0    COMCOM+30
        35 035253   035312 604400 35                 TMOZ    s:39432

     6011    39422    3               DO;

     6012    39423    3               IF COMCOM.OB.FIPS.LEVEL >= %INT_LEV THEN

  39423 35 035254   000002 100003                    CMPX0   2,DU
        35 035255   035273 604000 35                 TMI     s:39427

     6013    39424    3                 CALL Z8AE$ERROR(%E$LEVEL_CHECK,

  39424 35 035256   000151 236000 xsym               LDQ     O1COM+105
        35 035257   000025 736000                    QLS     21
        35 035260   000662 036000 36                 ADLQ    434
        35 035261   001014 756000 0                  STQ     PROC$+4
        35 035262   000151 236000 xsym               LDQ     O1COM+105
        35 035263   000025 736000                    QLS     21
        35 035264   000663 036000 36                 ADLQ    435
        35 035265   000004 235000 36                 LDA     4
        35 035266   001012 757000 0                  STAQ    PROC$+2
        35 035267   001012 630400 0                  EPPR0   PROC$+2
        35 035270   000000 631400 36                 EPPR1   0
        35 035271   000000 701000 xent               TSX1    Z8AE$ERROR
        35 035272   000000 011000                    NOP     0

     6014    39425    3                                 O1COM.LX_STK.LINE(O1COM.LX_TOP),
     6015    39426    3                                 O1COM.LX_STK.COLUMN(O1COM.LX_TOP));
PL6.E3A0      #001=Z8EM$SEMANTICS_DATA_DIV File=Z8EM.:Z8A6TSI                    SAT 08/09/97 12:08 Page:1071
     6016    39427    3               IF SECURITY_PGPH_FLAG THEN

  39427 35 035273   000031 234000 0                  SZN     SECURITY_PGPH_FLAG
        35 035274   035312 605000 35                 TPL     s:39432

     6017    39428    3                       CALL Z8AE$ERROR(%E$IDEN_PGPH_SEQ_ERR,

  39428 35 035275   000151 236000 xsym               LDQ     O1COM+105
        35 035276   000025 736000                    QLS     21
        35 035277   000662 036000 36                 ADLQ    434
        35 035300   001014 756000 0                  STQ     PROC$+4
        35 035301   000151 236000 xsym               LDQ     O1COM+105
        35 035302   000025 736000                    QLS     21
        35 035303   000663 036000 36                 ADLQ    435
        35 035304   000665 235000 36                 LDA     437
        35 035305   001012 757000 0                  STAQ    PROC$+2
        35 035306   001012 630400 0                  EPPR0   PROC$+2
        35 035307   000000 631400 36                 EPPR1   0
        35 035310   000000 701000 xent               TSX1    Z8AE$ERROR
        35 035311   000000 011000                    NOP     0

     6018    39429    3                          O1COM.LX_STK.LINE(O1COM.LX_TOP),
     6019    39430    3                          O1COM.LX_STK.COLUMN(O1COM.LX_TOP));
     6020    39431    3               END;

     6021    39432    2          IF COMCOM.OB.FIPS.OBS THEN

  39432 35 035312   000036 234000 xsym               SZN     COMCOM+30
        35 035313   035331 605000 35                 TPL     s:39436

     6022    39433    2            CALL Z8AE$ERROR (%E$OBSOLETE,

  39433 35 035314   000151 236000 xsym               LDQ     O1COM+105
        35 035315   000025 736000                    QLS     21
        35 035316   000662 036000 36                 ADLQ    434
        35 035317   001014 756000 0                  STQ     PROC$+4
        35 035320   000151 236000 xsym               LDQ     O1COM+105
PL6.E3A0      #001=Z8EM$SEMANTICS_DATA_DIV File=Z8EM.:Z8A6TSI                    SAT 08/09/97 12:08 Page:1072
        35 035321   000025 736000                    QLS     21
        35 035322   000663 036000 36                 ADLQ    435
        35 035323   000543 235000 36                 LDA     355
        35 035324   001012 757000 0                  STAQ    PROC$+2
        35 035325   001012 630400 0                  EPPR0   PROC$+2
        35 035326   000000 631400 36                 EPPR1   0
        35 035327   000000 701000 xent               TSX1    Z8AE$ERROR
        35 035330   000000 011000                    NOP     0

     6023    39434    2                             O1COM.LX_STK.LINE(O1COM.LX_TOP),
     6024    39435    2                             O1COM.LX_STK.COLUMN(O1COM.LX_TOP));
     6025    39436    2          DATCMPIL_PGPH_FLAG = TRUE;

  39436 35 035331   400000 236003                    LDQ     -131072,DU
        35 035332   000030 756000 0                  STQ     DATCMPIL_PGPH_FLAG
        35 035333   056641 710000 35                 TRA     s:45674

     6026    39437
     6027    39438    2     CASE(%ACT_SECURITY_PGPH_PRSNT);

     6028    39439    2          IF SECURITY_PGPH_FLAG THEN

  39439 35 035334   000031 234000 0                  SZN     SECURITY_PGPH_FLAG
        35 035335   035353 605000 35                 TPL     s:39443

     6029    39440    2               CALL Z8AE$ERROR(%E$DUPL_DEFIN_ERR,

  39440 35 035336   000151 236000 xsym               LDQ     O1COM+105
        35 035337   000025 736000                    QLS     21
        35 035340   000662 036000 36                 ADLQ    434
        35 035341   001014 756000 0                  STQ     PROC$+4
        35 035342   000151 236000 xsym               LDQ     O1COM+105
        35 035343   000025 736000                    QLS     21
        35 035344   000663 036000 36                 ADLQ    435
        35 035345   000464 235000 36                 LDA     308
        35 035346   001012 757000 0                  STAQ    PROC$+2
        35 035347   001012 630400 0                  EPPR0   PROC$+2
PL6.E3A0      #001=Z8EM$SEMANTICS_DATA_DIV File=Z8EM.:Z8A6TSI                    SAT 08/09/97 12:08 Page:1073
        35 035350   000000 631400 36                 EPPR1   0
        35 035351   000000 701000 xent               TSX1    Z8AE$ERROR
        35 035352   000000 011000                    NOP     0

     6030    39441    2                  O1COM.LX_STK.LINE(O1COM.LX_TOP),
     6031    39442    2                  O1COM.LX_STK.COLUMN(O1COM.LX_TOP));
     6032    39443    2          IF COMCOM.OB.FIPS.OBS THEN

  39443 35 035353   000036 234000 xsym               SZN     COMCOM+30
        35 035354   035372 605000 35                 TPL     s:39447

     6033    39444    2            CALL Z8AE$ERROR (%E$OBSOLETE,

  39444 35 035355   000151 236000 xsym               LDQ     O1COM+105
        35 035356   000025 736000                    QLS     21
        35 035357   000662 036000 36                 ADLQ    434
        35 035360   001014 756000 0                  STQ     PROC$+4
        35 035361   000151 236000 xsym               LDQ     O1COM+105
        35 035362   000025 736000                    QLS     21
        35 035363   000663 036000 36                 ADLQ    435
        35 035364   000543 235000 36                 LDA     355
        35 035365   001012 757000 0                  STAQ    PROC$+2
        35 035366   001012 630400 0                  EPPR0   PROC$+2
        35 035367   000000 631400 36                 EPPR1   0
        35 035370   000000 701000 xent               TSX1    Z8AE$ERROR
        35 035371   000000 011000                    NOP     0

     6034    39445    2                             O1COM.LX_STK.LINE(O1COM.LX_TOP),
     6035    39446    2                             O1COM.LX_STK.COLUMN(O1COM.LX_TOP));
     6036    39447    2          SECURITY_PGPH_FLAG = TRUE;

  39447 35 035372   400000 236003                    LDQ     -131072,DU
        35 035373   000031 756000 0                  STQ     SECURITY_PGPH_FLAG
        35 035374   056641 710000 35                 TRA     s:45674

     6037    39448
     6038    39449         %EJECT;
PL6.E3A0      #001=Z8EM$SEMANTICS_DATA_DIV File=Z8EM.:Z8A6TSI                    SAT 08/09/97 12:08 Page:1074
     6039    39450        /*
     6040    39451                           Default Clauses
     6041    39452        */
     6042    39453    2     CASE(%ACT_DISPLAY_SIGN);

     6043    39454    2          CALL DISPLAY_SIGN (ADDR(O1COM.LX_STK(O1COM.LX_TOP)));

  39454 35 035375   000151 236000 xsym               LDQ     O1COM+105
        35 035376   000025 736000                    QLS     21
        35 035377   000631 036000 36                 ADLQ    409
        35 035400   001034 756000 0                  STQ     PROC$+20
        35 035401   001034 630400 0                  EPPR0   PROC$+20
        35 035402   000261 450400 0                  STP0    RTN$+2
        35 035403   007756 701000 35                 TSX1    DISPLAY_SIGN
        35 035404   000000 011000                    NOP     0
        35 035405   056641 710000 35                 TRA     s:45674

     6044    39455
     6045    39456    2     CASE(%ACT_COMP_4_SIGN);

     6046    39457    2         IF ADDR(O1COM.LX_STK(O1COM.LX_TOP)) -> LX_ITEM.SYMBOL = %RSV_WRD_LEADING THEN

  39457 35 035406   000151 236000 xsym               LDQ     O1COM+105
        35 035407   000003 736000                    QLS     3
        35 035410   014022 235006 xsym               LDA     O1COM+6162,QL
        35 035411   000415 115007                    CMPA    269,DL
        35 035412   056641 601000 35                 TNZ     s:45674

     6047    39458    2            O1COM.COMP_4_SIGN_POS = %SIGN_POS_LEADING;

  39458 35 035413   000001 235007                    LDA     1,DL
        35 035414   000055 755000 xsym               STA     O1COM+45
        35 035415   056641 710000 35                 TRA     s:45674

     6048    39459
     6049    39460    2     CASE(%ACT_DEFAULT_COMP);

PL6.E3A0      #001=Z8EM$SEMANTICS_DATA_DIV File=Z8EM.:Z8A6TSI                    SAT 08/09/97 12:08 Page:1075
     6050    39461    2          O1COM.COMP_DEFAULT = ADDR(O1COM.LX_STK(O1COM.LX_TOP)) -> LX_TERMINAL.SYMBOL;

  39461 35 035416   000151 236000 xsym               LDQ     O1COM+105
        35 035417   000003 736000                    QLS     3
        35 035420   014022 235006 xsym               LDA     O1COM+6162,QL
        35 035421   000056 755000 xsym               STA     O1COM+46
        35 035422   056641 710000 35                 TRA     s:45674

     6051    39462
     6052    39463    2     CASE(%ACT_NUMERIC_LIMIT);

     6053    39464
     6054    39465    2          CALL CHARBIN (COMCOM.MAX_TEMP_LENGTH,

  39465 35 035423   000151 236000 xsym               LDQ     O1COM+105
        35 035424   000003 736000                    QLS     3
        35 035425   014021 470406 xsym               LDP0    O1COM+6161,QL
        35 035426   000004 220100                    LDX0    4,,PR0
        35 035427   000000 305540                    DTB
        35 035430   000004 430010                    NDSC9   4,,PR0                   cn=2,s=nosgn,sf=0,n=*X0
        35 035431   000427 000004 xsym               NDSC9   COMCOM+279               cn=0,s=lsgnf,sf=0,n=4

     6055    39466    2                        O1COM.LX_STK.DNT$(O1COM.LX_TOP) -> DNT.TEXT.NAME);
     6056    39467    2          IF COMCOM.MAX_TEMP_LENGTH < 18

  39467 35 035432   000427 235000 xsym               LDA     COMCOM+279
        35 035433   000022 115007                    CMPA    18,DL
        35 035434   035437 604000 35                 TMI     s:39469
        35 035435   000074 115007                    CMPA    60,DL
        35 035436   056641 604400 35                 TMOZ    s:45674

     6057    39468    2                  OR COMCOM.MAX_TEMP_LENGTH > 60 THEN
     6058    39469    2            CALL Z8AE$ERROR (%E$INVALID_NUMERIC_LIMIT,

  39469 35 035437   000151 236000 xsym               LDQ     O1COM+105
        35 035440   000025 736000                    QLS     21
        35 035441   000662 036000 36                 ADLQ    434
PL6.E3A0      #001=Z8EM$SEMANTICS_DATA_DIV File=Z8EM.:Z8A6TSI                    SAT 08/09/97 12:08 Page:1076
        35 035442   001014 756000 0                  STQ     PROC$+4
        35 035443   000151 236000 xsym               LDQ     O1COM+105
        35 035444   000025 736000                    QLS     21
        35 035445   000663 036000 36                 ADLQ    435
        35 035446   000667 235000 36                 LDA     439
        35 035447   001012 757000 0                  STAQ    PROC$+2
        35 035450   001012 630400 0                  EPPR0   PROC$+2
        35 035451   000000 631400 36                 EPPR1   0
        35 035452   000000 701000 xent               TSX1    Z8AE$ERROR
        35 035453   000000 011000                    NOP     0
        35 035454   056641 710000 35                 TRA     s:45674

     6059    39470    2                             O1COM.LX_STK.LINE(O1COM.LX_TOP),
     6060    39471    2                             O1COM.LX_STK.COLUMN(O1COM.LX_TOP));
     6061    39472        %EJECT;
PL6.E3A0      #001=Z8EM$SEMANTICS_DATA_DIV File=Z8EM.:Z8A6TSI                    SAT 08/09/97 12:08 Page:1077
     6062    39473        /*
     6063    39474                               Input-Output Section
     6064    39475        */
     6065    39476
     6066    39477    2     CASE(%ACT_SAME_AREA);

     6067    39478               %ADD_LX_STK_TO_LIST_HEAD(@FROM = O1COM.LX_TOP - 1,
     6068    39479                                        @LIST$= "ADDR(O1COM.LX_STK(O1COM.LX_TOP))");

  39486 35 035455   000670 630400 36                 EPPR0   440
        35 035456   000025 631400 36                 EPPR1   21
        35 035457   000000 701000 xent               TSX1    Z8ED$NEW_HEAP
        35 035460   000000 011000                    NOP     0

  39489 35 035461   000151 235000 xsym               LDA     O1COM+105
        35 035462   000005 735000                    ALS     5
        35 035463   000000 470400 29                 LDP0    HEAP$
        35 035464   000100 100405                    MLR     fill='000'O
        35 035465   014007 000040 xsym               ADSC9   O1COM+6151,A             cn=0,n=32
        35 035466   000000 000040                    ADSC9   0,,PR0                   cn=0,n=32

  39495 35 035467   000151 235000 xsym               LDA     O1COM+105
        35 035470   000003 735000                    ALS     3
        35 035471   014023 236005 xsym               LDQ     O1COM+6163,AL
        35 035472   000000 470400 29                 LDP0    HEAP$
        35 035473   000007 756100                    STQ     7,,PR0

  39496 35 035474   000151 235000 xsym               LDA     O1COM+105
        35 035475   000003 735000                    ALS     3
        35 035476   000000 236000 29                 LDQ     HEAP$
        35 035477   014023 756005 xsym               STQ     O1COM+6163,AL

  39497 35 035500   000151 235000 xsym               LDA     O1COM+105
        35 035501   000003 735000                    ALS     3
        35 035502   014021 235005 xsym               LDA     O1COM+6161,AL
        35 035503   035507 601000 35                 TNZ     s:39499

PL6.E3A0      #001=Z8EM$SEMANTICS_DATA_DIV File=Z8EM.:Z8A6TSI                    SAT 08/09/97 12:08 Page:1078
  39498 35 035504   000151 235000 xsym               LDA     O1COM+105
        35 035505   000003 735000                    ALS     3
        35 035506   014020 756005 xsym               STQ     O1COM+6160,AL

  39499 35 035507   000151 235000 xsym               LDA     O1COM+105
        35 035510   000003 735000                    ALS     3
        35 035511   014021 054005 xsym               AOS     O1COM+6161,AL

     6069    39504    2          CALL SAME_AREA (ADDR(O1COM.LX_STK(O1COM.LX_TOP)), ADDR(O1COM.LX_STK(O1COM.
             39504                   LX_TOP-4)));

  39504 35 035512   000151 236000 xsym               LDQ     O1COM+105
        35 035513   000025 736000                    QLS     21
        35 035514   000631 036000 36                 ADLQ    409
        35 035515   001035 756000 0                  STQ     PROC$+21
        35 035516   000151 236000 xsym               LDQ     O1COM+105
        35 035517   000025 736000                    QLS     21
        35 035520   000242 036000 36                 ADLQ    162
        35 035521   001036 756000 0                  STQ     PROC$+22
        35 035522   001036 631400 0                  EPPR1   PROC$+22
        35 035523   000671 451400 0                  STP1    @FILE_LIST$+1
        35 035524   001035 633400 0                  EPPR3   PROC$+21
        35 035525   000670 453400 0                  STP3    @NO_AREAS$+2
        35 035526   030167 701000 35                 TSX1    SAME_AREA
        35 035527   000000 011000                    NOP     0
        35 035530   056641 710000 35                 TRA     s:45674

     6070    39505
     6071    39506    2     CASE(%ACT_MULTIPLE_FILE_TAPE);

     6072    39507    3          IF COMCOM.OB.FIPS.LEVEL >= %INT_LEV THEN DO;

  39507 35 035531   000036 720000 xsym               LXL0    COMCOM+30
        35 035532   000002 100003                    CMPX0   2,DU
        35 035533   035552 604000 35                 TMI     s:39512

     6073    39508    3            CALL Z8AE$ERROR (%E$LEVEL_CHECK,
PL6.E3A0      #001=Z8EM$SEMANTICS_DATA_DIV File=Z8EM.:Z8A6TSI                    SAT 08/09/97 12:08 Page:1079

  39508 35 035534   000151 236000 xsym               LDQ     O1COM+105
        35 035535   000025 736000                    QLS     21
        35 035536   000672 036000 36                 ADLQ    442
        35 035537   001014 756000 0                  STQ     PROC$+4
        35 035540   000151 236000 xsym               LDQ     O1COM+105
        35 035541   000025 736000                    QLS     21
        35 035542   000673 036000 36                 ADLQ    443
        35 035543   000004 235000 36                 LDA     4
        35 035544   001012 757000 0                  STAQ    PROC$+2
        35 035545   001012 630400 0                  EPPR0   PROC$+2
        35 035546   000000 631400 36                 EPPR1   0
        35 035547   000000 701000 xent               TSX1    Z8AE$ERROR
        35 035550   000000 011000                    NOP     0

     6074    39509    3                             O1COM.LX_STK.LINE(O1COM.LX_TOP - 4),
     6075    39510    3                             O1COM.LX_STK.COLUMN(O1COM.LX_TOP - 4));
     6076    39511    3          END;

  39511 35 035551   035571 710000 35                 TRA     s:39517

     6077    39512    3          ELSE IF COMCOM.OB.FIPS.OBS THEN DO;

  39512 35 035552   000036 234000 xsym               SZN     COMCOM+30
        35 035553   035571 605000 35                 TPL     s:39517

     6078    39513    3            CALL Z8AE$ERROR (%E$OBSOLETE,

  39513 35 035554   000151 236000 xsym               LDQ     O1COM+105
        35 035555   000025 736000                    QLS     21
        35 035556   000672 036000 36                 ADLQ    442
        35 035557   001014 756000 0                  STQ     PROC$+4
        35 035560   000151 236000 xsym               LDQ     O1COM+105
        35 035561   000025 736000                    QLS     21
        35 035562   000673 036000 36                 ADLQ    443
        35 035563   000543 235000 36                 LDA     355
        35 035564   001012 757000 0                  STAQ    PROC$+2
PL6.E3A0      #001=Z8EM$SEMANTICS_DATA_DIV File=Z8EM.:Z8A6TSI                    SAT 08/09/97 12:08 Page:1080
        35 035565   001012 630400 0                  EPPR0   PROC$+2
        35 035566   000000 631400 36                 EPPR1   0
        35 035567   000000 701000 xent               TSX1    Z8AE$ERROR
        35 035570   000000 011000                    NOP     0

     6079    39514    3                             O1COM.LX_STK.LINE(O1COM.LX_TOP - 4),
     6080    39515    3                             O1COM.LX_STK.COLUMN(O1COM.LX_TOP - 4));
     6081    39516    3          END;

     6082    39517    2          CALL MULTIPLE_FILE_TAPE (ADDR(O1COM.LX_STK(O1COM.LX_TOP)));

  39517 35 035571   000151 236000 xsym               LDQ     O1COM+105
        35 035572   000025 736000                    QLS     21
        35 035573   000631 036000 36                 ADLQ    409
        35 035574   001037 756000 0                  STQ     PROC$+23
        35 035575   001037 630400 0                  EPPR0   PROC$+23
        35 035576   000371 450400 0                  STP0    MNEMONIC$$+2
        35 035577   013053 701000 35                 TSX1    MULTIPLE_FILE_TAPE
        35 035600   000000 011000                    NOP     0
        35 035601   056641 710000 35                 TRA     s:45674

     6083    39518
     6084    39519    2     CASE(%ACT_RERUN_CLAUSE);

     6085    39520
     6086    39521    2     CASE(%ACT_RERUN_EVERY_RECORDS);

     6087    39522    2          CALL RERUN (ADDR(O1COM.LX_STK(O1COM.LX_TOP-3)), ADDR(O1COM.LX_STK(O1COM.
             39522                   LX_TOP)));

  39522 35 035602   000151 236000 xsym               LDQ     O1COM+105
        35 035603   000025 736000                    QLS     21
        35 035604   000241 036000 36                 ADLQ    161
        35 035605   001040 756000 0                  STQ     PROC$+24
        35 035606   000151 236000 xsym               LDQ     O1COM+105
        35 035607   000025 736000                    QLS     21
        35 035610   000631 036000 36                 ADLQ    409
PL6.E3A0      #001=Z8EM$SEMANTICS_DATA_DIV File=Z8EM.:Z8A6TSI                    SAT 08/09/97 12:08 Page:1081
        35 035611   001041 756000 0                  STQ     PROC$+25
        35 035612   001041 630400 0                  EPPR0   PROC$+25
        35 035613   000660 450400 0                  STP0    @INT$+1
        35 035614   001040 631400 0                  EPPR1   PROC$+24
        35 035615   000657 451400 0                  STP1    CASE_NO+2
        35 035616   027732 701000 35                 TSX1    RERUN
        35 035617   000000 011000                    NOP     0
        35 035620   056641 710000 35                 TRA     s:45674

     6088    39523
     6089    39524    2     CASE(%ACT_CHANNEL_NUMBER);

     6090    39525    2         CALL CHANNEL_NUMBER (ADDR(O1COM.LX_STK(O1COM.LX_TOP - 2)), ADDR(O1COM.LX_STK(
             39525                   O1COM.LX_TOP)));

  39525 35 035621   000151 236000 xsym               LDQ     O1COM+105
        35 035622   000025 736000                    QLS     21
        35 035623   000236 036000 36                 ADLQ    158
        35 035624   001042 756000 0                  STQ     PROC$+26
        35 035625   000151 236000 xsym               LDQ     O1COM+105
        35 035626   000025 736000                    QLS     21
        35 035627   000631 036000 36                 ADLQ    409
        35 035630   001043 756000 0                  STQ     PROC$+27
        35 035631   001043 630400 0                  EPPR0   PROC$+27
        35 035632   000133 450400 0                  STP0    @C$+1
        35 035633   001042 631400 0                  EPPR1   PROC$+26
        35 035634   000132 451400 0                  STP1    FATHER$+2
        35 035635   002507 701000 35                 TSX1    CHANNEL_NUMBER
        35 035636   000000 011000                    NOP     0
        35 035637   056641 710000 35                 TRA     s:45674

     6091    39526
     6092    39527    2     CASE(%ACT_CSP);

     6093    39528    2         CALL CHANNEL_NUMBER (ADDR(O1COM.LX_STK(O1COM.LX_TOP - 2)), ADDR(O1COM.LX_STK(
             39528                   O1COM.LX_TOP)));

PL6.E3A0      #001=Z8EM$SEMANTICS_DATA_DIV File=Z8EM.:Z8A6TSI                    SAT 08/09/97 12:08 Page:1082
  39528 35 035640   000151 236000 xsym               LDQ     O1COM+105
        35 035641   000025 736000                    QLS     21
        35 035642   000236 036000 36                 ADLQ    158
        35 035643   001044 756000 0                  STQ     PROC$+28
        35 035644   000151 236000 xsym               LDQ     O1COM+105
        35 035645   000025 736000                    QLS     21
        35 035646   000631 036000 36                 ADLQ    409
        35 035647   001045 756000 0                  STQ     PROC$+29
        35 035650   001045 630400 0                  EPPR0   PROC$+29
        35 035651   000133 450400 0                  STP0    @C$+1
        35 035652   001044 631400 0                  EPPR1   PROC$+28
        35 035653   000132 451400 0                  STP1    FATHER$+2
        35 035654   002507 701000 35                 TSX1    CHANNEL_NUMBER
        35 035655   000000 011000                    NOP     0
        35 035656   056641 710000 35                 TRA     s:45674

     6094    39529
     6095    39530    2     CASE(%ACT_VFC_CLAUSE);

     6096    39531    2         CALL VFC_CHAR (ADDR(O1COM.LX_STK(O1COM.LX_TOP - 2)), ADDR(O1COM.LX_STK(O1COM.
             39531                   LX_TOP)));

  39531 35 035657   000151 236000 xsym               LDQ     O1COM+105
        35 035660   000025 736000                    QLS     21
        35 035661   000236 036000 36                 ADLQ    158
        35 035662   001046 756000 0                  STQ     PROC$+30
        35 035663   000151 236000 xsym               LDQ     O1COM+105
        35 035664   000025 736000                    QLS     21
        35 035665   000631 036000 36                 ADLQ    409
        35 035666   001047 756000 0                  STQ     PROC$+31
        35 035667   001047 630400 0                  EPPR0   PROC$+31
        35 035670   000766 450400 0                  STP0    @CHAR$+1
        35 035671   001046 631400 0                  EPPR1   PROC$+30
        35 035672   000765 451400 0                  STP1    @DN$+2
        35 035673   032474 701000 35                 TSX1    VFC_CHAR
        35 035674   000000 011000                    NOP     0
        35 035675   056641 710000 35                 TRA     s:45674
PL6.E3A0      #001=Z8EM$SEMANTICS_DATA_DIV File=Z8EM.:Z8A6TSI                    SAT 08/09/97 12:08 Page:1083

     6097    39532
     6098    39533    2     CASE(%ACT_FILE_POSITION);

     6099    39534               %INIT_LX_LIST (@POINTER = "ADDR(TEMP_LX_NODE)");

  39536 35 035676   000002 220003                    LDX0    2,DU
        35 035677   000000 740000 30                 STX0    TEMP_LX_NODE

  39537 35 035700   000000 221003                    LDX1    0,DU
        35 035701   000000 441000 30                 SXL1    TEMP_LX_NODE

  39538 35 035702   000024 236000 36                 LDQ     20
        35 035703   000001 756000 30                 STQ     TEMP_LX_NODE+1

  39539 35 035704   000004 756000 30                 STQ     TEMP_LX_NODE+4

  39540 35 035705   000007 756000 30                 STQ     TEMP_LX_NODE+7

  39541 35 035706   000002 450000 30                 STZ     TEMP_LX_NODE+2

     6100    39544               %ADD_LX_STK_TO_LIST_HEAD (@LIST$ = "ADDR(TEMP_LX_NODE)",
     6101    39545                                         @FROM  = O1COM.LX_TOP);

  39552 35 035707   000670 630400 36                 EPPR0   440
        35 035710   000025 631400 36                 EPPR1   21
        35 035711   000000 701000 xent               TSX1    Z8ED$NEW_HEAP
        35 035712   000000 011000                    NOP     0

  39555 35 035713   000151 235000 xsym               LDA     O1COM+105
        35 035714   000005 735000                    ALS     5
        35 035715   000000 470400 29                 LDP0    HEAP$
        35 035716   000100 100405                    MLR     fill='000'O
        35 035717   014017 000040 xsym               ADSC9   O1COM+6159,A             cn=0,n=32
        35 035720   000000 000040                    ADSC9   0,,PR0                   cn=0,n=32

  39561 35 035721   000004 236000 30                 LDQ     TEMP_LX_NODE+4
PL6.E3A0      #001=Z8EM$SEMANTICS_DATA_DIV File=Z8EM.:Z8A6TSI                    SAT 08/09/97 12:08 Page:1084
        35 035722   000000 470400 29                 LDP0    HEAP$
        35 035723   000007 756100                    STQ     7,,PR0

  39562 35 035724   000000 236000 29                 LDQ     HEAP$
        35 035725   000004 756000 30                 STQ     TEMP_LX_NODE+4

  39563 35 035726   000002 235000 30                 LDA     TEMP_LX_NODE+2
        35 035727   035731 601000 35                 TNZ     s:39565

  39564 35 035730   000001 756000 30                 STQ     TEMP_LX_NODE+1

  39565 35 035731   000002 054000 30                 AOS     TEMP_LX_NODE+2

     6102    39570               %ADD_LX_STK_TO_LIST_HEAD (@LIST$ = "ADDR(TEMP_LX_NODE)",
     6103    39571                                         @FROM  = "O1COM.LX_TOP - 3");

  39578 35 035732   000670 630400 36                 EPPR0   440
        35 035733   000025 631400 36                 EPPR1   21
        35 035734   000000 701000 xent               TSX1    Z8ED$NEW_HEAP
        35 035735   000000 011000                    NOP     0

  39581 35 035736   000151 235000 xsym               LDA     O1COM+105
        35 035737   000005 735000                    ALS     5
        35 035740   000000 470400 29                 LDP0    HEAP$
        35 035741   000100 100405                    MLR     fill='000'O
        35 035742   013767 000040 xsym               ADSC9   O1COM+6135,A             cn=0,n=32
        35 035743   000000 000040                    ADSC9   0,,PR0                   cn=0,n=32

  39587 35 035744   000004 236000 30                 LDQ     TEMP_LX_NODE+4
        35 035745   000000 470400 29                 LDP0    HEAP$
        35 035746   000007 756100                    STQ     7,,PR0

  39588 35 035747   000000 236000 29                 LDQ     HEAP$
        35 035750   000004 756000 30                 STQ     TEMP_LX_NODE+4

  39589 35 035751   000002 235000 30                 LDA     TEMP_LX_NODE+2
        35 035752   035754 601000 35                 TNZ     s:39591
PL6.E3A0      #001=Z8EM$SEMANTICS_DATA_DIV File=Z8EM.:Z8A6TSI                    SAT 08/09/97 12:08 Page:1085

  39590 35 035753   000001 756000 30                 STQ     TEMP_LX_NODE+1

  39591 35 035754   000002 054000 30                 AOS     TEMP_LX_NODE+2

     6104    39596               %PROP_ERR_TEMP_LX_NODE;

  39598 35 035755   000134 235000 xsym               LDA     O1COM+92
        35 035756   000001 735000                    ALS     1
        35 035757   000000 236005 xsym               LDQ     DD_PRODR,AL
        35 035760   777777 376007                    ANQ     -1,DL
        35 035761   001012 756000 0                  STQ     PROC$+2
        35 035762   000151 236000 xsym               LDQ     O1COM+105
        35 035763   001012 136000 0                  SBLQ    PROC$+2
        35 035764   000001 036007                    ADLQ    1,DL
        35 035765   000017 756000 0                  STQ     I
        35 035766   035777 710000 35                 TRA     s:39601+1

  39599 35 035767   000017 235000 0                  LDA     I
        35 035770   000003 735000                    ALS     3
        35 035771   014017 236005 xsym               LDQ     O1COM+6159,AL
        35 035772   400000 316007                    CANQ    -131072,DL
        35 035773   035776 600000 35                 TZE     s:39601

  39600 35 035774   400000 236007                    LDQ     -131072,DL
        35 035775   000000 256000 30                 ORSQ    TEMP_LX_NODE

  39601 35 035776   000017 054000 0                  AOS     I
        35 035777   000017 236000 0                  LDQ     I
        35 036000   000151 116000 xsym               CMPQ    O1COM+105
        35 036001   035767 604400 35                 TMOZ    s:39599

     6105    39604               %PROPAGATE_TEMP_LX_NODE;

  39606 35 036002   000134 235000 xsym               LDA     O1COM+92
        35 036003   000001 735000                    ALS     1
        35 036004   000000 236005 xsym               LDQ     DD_PRODR,AL
PL6.E3A0      #001=Z8EM$SEMANTICS_DATA_DIV File=Z8EM.:Z8A6TSI                    SAT 08/09/97 12:08 Page:1086
        35 036005   777777 376007                    ANQ     -1,DL
        35 036006   001012 756000 0                  STQ     PROC$+2
        35 036007   000151 236000 xsym               LDQ     O1COM+105
        35 036010   001012 136000 0                  SBLQ    PROC$+2
        35 036011   000005 736000                    QLS     5
        35 036012   000006 100400                    MLR     fill='000'O
        35 036013   000000 000040 30                 ADSC9   TEMP_LX_NODE             cn=0,n=32
        35 036014   014027 000040 xsym               ADSC9   O1COM+6167,Q             cn=0,n=32

  39607 35 036015   056641 710000 35                 TRA     s:45674

     6106    39609
     6107    39610    2     CASE(%ACT_UPDATE_CURRENT_CLAUSE);

     6108    39611    2          O1COM.PREVIOUS_ALT_KEY = O1COM.CURRENT_ALT_KEY;

  39611 35 036016   000046 236000 xsym               LDQ     O1COM+38
        35 036017   400000 376003                    ANQ     -131072,DU
        35 036020   000047 756000 xsym               STQ     O1COM+39

     6109    39612    2          O1COM.CURRENT_ALT_KEY = FALSE;

  39612 35 036021   000046 450000 xsym               STZ     O1COM+38
        35 036022   056641 710000 35                 TRA     s:45674

     6110    39613
     6111    39614    2     CASE(%ACT_SELECT_CLAUSE_INIT);

     6112    39615    2        CALL SELECT_CLAUSE_INIT (ADDR(O1COM.LX_STK(O1COM.LX_TOP)), ADDR(O1COM.LX_STK(
             39615                 O1COM.LX_TOP - 1)));

  39615 35 036023   000151 236000 xsym               LDQ     O1COM+105
        35 036024   000025 736000                    QLS     21
        35 036025   000631 036000 36                 ADLQ    409
        35 036026   001050 756000 0                  STQ     PROC$+32
        35 036027   000151 236000 xsym               LDQ     O1COM+105
        35 036030   000025 736000                    QLS     21
PL6.E3A0      #001=Z8EM$SEMANTICS_DATA_DIV File=Z8EM.:Z8A6TSI                    SAT 08/09/97 12:08 Page:1087
        35 036031   000640 036000 36                 ADLQ    416
        35 036032   001051 756000 0                  STQ     PROC$+33
        35 036033   001051 630400 0                  EPPR0   PROC$+33
        35 036034   000717 450400 0                  STP0    @FILE_NAME$+1
        35 036035   001050 631400 0                  EPPR1   PROC$+32
        35 036036   000716 451400 0                  STP1    NOM$+2
        35 036037   031142 701000 35                 TSX1    SELECT_CLAUSE_INIT
        35 036040   000000 011000                    NOP     0
        35 036041   056641 710000 35                 TRA     s:45674

     6113    39616
     6114    39617
     6115    39618    2     CASE(%ACT_SELECT_CLAUSE_END);

     6116    39619    2          CALL SELECT_CLAUSE_END ;

  39619 35 036042   030657 701000 35                 TSX1    SELECT_CLAUSE_END
        35 036043   000000 011000                    NOP     0
        35 036044   056641 710000 35                 TRA     s:45674

     6117    39620
     6118    39621
     6119    39622    2     CASE(%ACT_NOMINAL_KEY);

     6120    39623    2          CALL CHECK_SEQ_ORG (ADDR(O1COM.LX_STK(O1COM.LX_TOP)) -> LX_LIST.HEAD$)

  39623 35 036045   000151 236000 xsym               LDQ     O1COM+105
        35 036046   000025 736000                    QLS     21
        35 036047   000674 036000 36                 ADLQ    444
        35 036050   000171 756000 0                  STQ     @TERMINAL$+2
        35 036051   004106 701000 35                 TSX1    CHECK_SEQ_ORG
        35 036052   036054 702000 35                 TSX2    s:39626
        35 036053   036065 710000 35                 TRA     s:39631

     6121    39624    2            WHENALTRETURN
     6122    39625    3              DO;

PL6.E3A0      #001=Z8EM$SEMANTICS_DATA_DIV File=Z8EM.:Z8A6TSI                    SAT 08/09/97 12:08 Page:1088
     6123    39626    3                CALL Z8ED$DISPOSE_ABSSYN_TREE (ADDR(O1COM.LX_STK(O1COM.LX_TOP)) ->

  39626 35 036054   000151 236000 xsym               LDQ     O1COM+105
        35 036055   000025 736000                    QLS     21
        35 036056   000674 036000 36                 ADLQ    444
        35 036057   001012 756000 0                  STQ     PROC$+2
        35 036060   001012 630400 0                  EPPR0   PROC$+2
        35 036061   000036 631400 36                 EPPR1   30
        35 036062   000000 701000 xent               TSX1    Z8ED$DISPOSE_ABSSYN_TREE
        35 036063   000000 011000                    NOP     0

     6124    39627    3                                               LX_LIST.HEAD$);
     6125    39628    3                EXIT SEMANTIC_ACTION_CASE;

  39628 35 036064   056641 710000 35                 TRA     s:45674

     6126    39629    3              END;
     6127    39630
     6128    39631    2          CALL CHECK_REL_ORG (ADDR(O1COM.LX_STK(O1COM.LX_TOP)) -> LX_LIST.HEAD$)

  39631 35 036065   000151 236000 xsym               LDQ     O1COM+105
        35 036066   000025 736000                    QLS     21
        35 036067   000674 036000 36                 ADLQ    444
        35 036070   000167 756000 0                  STQ     @DNT$+2
        35 036071   004026 701000 35                 TSX1    CHECK_REL_ORG
        35 036072   036074 702000 35                 TSX2    s:39634
        35 036073   036105 710000 35                 TRA     s:39639

     6129    39632    2            WHENALTRETURN
     6130    39633    3              DO;

     6131    39634    3                CALL Z8ED$DISPOSE_ABSSYN_TREE (ADDR(O1COM.LX_STK(O1COM.LX_TOP)) ->

  39634 35 036074   000151 236000 xsym               LDQ     O1COM+105
        35 036075   000025 736000                    QLS     21
        35 036076   000674 036000 36                 ADLQ    444
        35 036077   001012 756000 0                  STQ     PROC$+2
PL6.E3A0      #001=Z8EM$SEMANTICS_DATA_DIV File=Z8EM.:Z8A6TSI                    SAT 08/09/97 12:08 Page:1089
        35 036100   001012 630400 0                  EPPR0   PROC$+2
        35 036101   000036 631400 36                 EPPR1   30
        35 036102   000000 701000 xent               TSX1    Z8ED$DISPOSE_ABSSYN_TREE
        35 036103   000000 011000                    NOP     0

     6132    39635    3                                               LX_LIST.HEAD$);
     6133    39636    3                EXIT SEMANTIC_ACTION_CASE;

  39636 35 036104   056641 710000 35                 TRA     s:45674

     6134    39637    3              END;
     6135    39638
     6136    39639    2          CALL CHECK_KEY_ORG (ADDR(O1COM.LX_STK(O1COM.LX_TOP)) -> LX_LIST.HEAD$)

  39639 35 036105   000151 236000 xsym               LDQ     O1COM+105
        35 036106   000025 736000                    QLS     21
        35 036107   000674 036000 36                 ADLQ    444
        35 036110   000163 756000 0                  STQ     @TERMINAL$+2
        35 036111   003671 701000 35                 TSX1    CHECK_KEY_ORG
        35 036112   036114 702000 35                 TSX2    s:39642
        35 036113   036125 710000 35                 TRA     s:39647

     6137    39640    2            WHENALTRETURN
     6138    39641    3              DO;

     6139    39642    3                CALL Z8ED$DISPOSE_ABSSYN_TREE (ADDR(O1COM.LX_STK(O1COM.LX_TOP)) ->

  39642 35 036114   000151 236000 xsym               LDQ     O1COM+105
        35 036115   000025 736000                    QLS     21
        35 036116   000674 036000 36                 ADLQ    444
        35 036117   001012 756000 0                  STQ     PROC$+2
        35 036120   001012 630400 0                  EPPR0   PROC$+2
        35 036121   000036 631400 36                 EPPR1   30
        35 036122   000000 701000 xent               TSX1    Z8ED$DISPOSE_ABSSYN_TREE
        35 036123   000000 011000                    NOP     0

     6140    39643    3                                               LX_LIST.HEAD$);
