PL6.E3A0      #008=Z8EQ$OPTIMIZED_INITIAL File=Z8EQ.:Z8A6TSI                     SAT 08/09/97 12:45 Page:243
     1254        1        /*M* Z8EQ$OPTIMIZED_INITIAL -- INITIALIZE, combining all fields possible */
     1255        2        /*T***********************************************************/
     1256        3        /*T*                                                         */
     1257        4        /*T* Copyright (c) Bull HN Information Systems Inc., 1997    */
     1258        5        /*T*                                                         */
     1259        6        /*T***********************************************************/
     1260        7        /*P*
     1261        8            NAME: Z8EQ$OPTIMIZED_INITIAL
     1262        9            PURPOSE: Generate optimized code for the INITIAL statement.
     1263       10        */
     1264       11        /*D*
     1265       12            NAME: Z8EQ$OPTIMIZED_INITIAL
     1266       13            CALL: CALL Z8EQ$OPTIMIZED_INITIAL (INIT_LTS$);
     1267       14            INPUT: Pointer to tree of INIT_LTS items, one for each field.
     1268       15            OUTPUT: ILS and ILL to initialize all the fields.
     1269       16            DESCRIPTION: Walk the tree. At each level, if there is no son then
     1270       17                         generate code to initialize a field. Z8EQ will already have
     1271       18                         combined all fields that can be combined. If there is a son
     1272       19                         then walk the list of the son and its brothers. For each, the
     1273       20                         module calls itself recursively. After the recursive call, if
     1274       21                         there is a subscript at the level and the maximum value is not
     1275       22                         1 then any of several actions can be taken. If within the
     1276       23                         field there is any subfield that is FILLER (explicitly or thru
     1277       24                         not specifying a name) or USAGE INDEX then such fields must
     1278       25                         not be affected by the INITIALIZE statement. Go thru a loop,
     1279       26                         on each iteration initializing all subordinate data items.
     1280       27                         Otherwise, if OCCURS 2 then no loop is needed but only
     1281       28                         generate one move to copy the first element to the second.
     1282       29                         Otherwise, generate a loop, each time copying the first
     1283       30                         element to a later one.
     1284       31        */
     1285       32        %EJECT;
PL6.E3A0      #008=Z8EQ$OPTIMIZED_INITIAL File=Z8EQ.:Z8A6TSI                     SAT 08/09/97 12:45 Page:244
     1286       33        Z8EQ$OPTIMIZED_INITIAL: PROC (INIT_LTS$);
     1287       34        %SET PHASE = 1;
     1288       35        %INCLUDE Z8A_DEFC;
     1289      103        %INCLUDE Z8A_SUPP_MAC;
     1290     2503        %INCLUDE Z8A_COMCOM;
     1291     3153        %INCLUDE Z8A_DNT;
     1292     3374        %INCLUDE Z8A_ETT;
     1293     3675        %INCLUDE Z8A_ILL;
     1294     4368        %INCLUDE Z8A_ILS;
     1295     4477        %INCLUDE Z8A_MKCN;
     1296     4494        %INCLUDE Z8A_ST;
     1297     8153        %INCLUDE Z8A_TYPES;
     1298     8327        %INCLUDE Z8A_LTS;
     1299    10404        %INCLUDE Z8E_STACKS;
     1300    12670        %INCLUDE Z8E_MACROS;
     1301    13345        %INCLUDE Z8E_ILS_LIST;
     1302    13429        %INCLUDE Z8E_O1COM;
     1303    14190        %INCLUDE Z8E_WINDOW;
     1304    16260    1   DCL INIT_LTS$  PTR;
     1305    16261    1   DCL 1 INIT_VAL STATIC,
     1306    16262    1         2 ID     UBIN HALF HALIGNED INIT (%LX_TERMINAL),
     1307    16263    1         2 *      BIT (18) INIT (FALSE),
     1308    16264    1         2 ST$    PTR INIT (ADDR (NIL)),
     1309    16265    1         2 DNT$   PTR,
     1310    16266    1         2 SYMBOL SBIN,
     1311    16267    1         2 TYPE   UBIN INIT (%TYT),
     1312    16268    1         2 LINE   UBIN,
     1313    16269    1         2 COLUMN UBIN INIT (0),
     1314    16270    1         2 LINK   PTR INIT (ADDR (NIL));
     1315    16271    1   DCL INIT_VAL$  PTR CONSTANT INIT (ADDR (INIT_VAL));
     1316    16272    1   DCL SON_LTS$   PTR;
     1317    16273    1   DCL LOP$       PTR;
     1318    16274    1   DCL ST$$       PTR;
     1319    16275    1   DCL ETT$$      PTR;
     1320    16276    1   DCL SUBSCR$    PTR;
     1321    16277    1   DCL THREE$     PTR;
     1322    16278    1   DCL OFF        SBIN;
PL6.E3A0      #008=Z8EQ$OPTIMIZED_INITIAL File=Z8EQ.:Z8A6TSI                     SAT 08/09/97 12:45 Page:245
     1323    16279        %DCL_AUTO_LX_ITEM (@NAME = SAVED_ILS_LIST);
     1324    16283        %DCL_AUTO_LX_ITEM (@NAME = DATA_ITEM);
     1325    16287        %DCL_AUTO_LX_ITEM (@NAME = ROP_ETT);
     1326    16291        %DCL_AUTO_LX_ITEM (@NAME = END_VALUE);
     1327    16295        %DCL_AUTO_LX_ITEM (@NAME = START_VALUE);
     1328    16299        %DCL_AUTO_LX_ITEM (@NAME = INCR_VALUE);
     1329    16303        %DCL_AUTO_LX_ITEM (@NAME = LOOP_END);
     1330    16307        %DCL_AUTO_LX_ITEM (@NAME = INDEX_ETT);
     1331    16311    1   DCL DNT$_FROM_RSWNO (0:0) PTR SYMREF READONLY;
     1332    16312    1   DCL Z8AC$MAKE_CONST                ENTRY (1);
     1333    16313    1   DCL Z8AC$LX_ETT_ITEM_TYI_CONST     ENTRY (2);
     1334    16314    1   DCL Z8AF$FORME                     ENTRY (4);
     1335    16315    1   DCL Z8AF$NEW_OFF                   ENTRY (3);
     1336    16316    1   DCL Z8AF$NEW_OFF_AND_SSOP_NO_SBCHK ENTRY (4);
     1337    16317    1   DCL Z8E7$MOVE                      ENTRY (2);
     1338    16318    1   DCL Z8E7$POINTER_MOVE              ENTRY (2);
     1339    16319    1   DCL Z8EQ$MERGE_ITERATED_DO_UNTIL   ENTRY (4);
     1340    16320        %EJECT;
PL6.E3A0      #008=Z8EQ$OPTIMIZED_INITIAL File=Z8EQ.:Z8A6TSI                     SAT 08/09/97 12:45 Page:246
     1341    16321    1     SON_LTS$ = INIT_LTS$ -> INIT_LTS.SON$;
     1342    16322    1     IF SON_LTS$ = ADDR (NIL) THEN
     1343    16323    2       DO;
     1344    16324    2         LOP$ = INIT_LTS$ -> INIT_LTS.BASE$;
     1345    16325    2         IF (NOT INIT_LTS$ -> INIT_LTS.GROUP OR
     1346    16326    2             NOT INIT_LTS$ -> INIT_LTS.MFILLABLE) AND
     1347    16327    2            NOT INIT_LTS$ -> INIT_LTS.BCD AND
     1348    16328    2            LOP$ -> ETT.ID = %DNA /* Elementary numeric item */
     1349    16329    2           THEN LOP$ = LOP$ -> ETT.LOP; /* Remove DNA */
     1350    16330    2         IF INIT_LTS$ -> INIT_LTS.SUBSCR$ = ADDR (NIL) THEN
     1351    16331    3           DO;
     1352    16332    3             IF INIT_LTS$ -> INIT_LTS.OFF ~= 0 THEN
     1353    16333    3               CALL Z8AF$NEW_OFF (LOP$,
     1354    16334    3                                  INIT_LTS$ -> INIT_LTS.OFF,
     1355    16335    3                                  LOP$);
     1356    16336    3           END;
     1357    16337    2         ELSE
     1358    16338    3           DO; /* Z8AF$NEW_OFF_AND_SSOP_NO_SBCHK removes the SIZ triad if any */
     1359    16339    3             CALL Z8AF$NEW_OFF_AND_SSOP_NO_SBCHK (LOP$,
     1360    16340    3                                                  INIT_LTS$ -> INIT_LTS.OFF,
     1361    16341    3                                                  INIT_LTS$ -> INIT_LTS.SUBSCR$,
     1362    16342    3                                                  LOP$);
     1363    16343    3             IF INIT_LTS$ -> INIT_LTS.BASE$ -> ETT.ID = %SIZ THEN
     1364    16344    3               CALL Z8AF$FORME (%SIZ, LOP$, INIT_LTS$ -> INIT_LTS.BASE$ -> ETT.ROP,
             16344                        LOP$);
     1365    16345    3           END;
     1366    16346              %FISH (TRIAD = INIT_LTS$ -> INIT_LTS.BASE$, RTN = ST$$);
     1367    16354    2         IF INIT_LTS$ -> INIT_LTS.GROUP
     1368    16355    2             AND INIT_LTS$ -> INIT_LTS.MFILLABLE THEN
     1369    16356    3           DO;
     1370    16357    3             IF INIT_LTS$ -> INIT_LTS.BCD AND ST$$ -> VARIABLE.TYPE = %TYA THEN
     1371    16358    4               DO;
     1372    16359                      /* Group item composed only of GBCD elementary items */
     1373    16360    4                 MKCN.CON = INIT_LTS$ -> INIT_LTS.LENGTH * 3 / 2;
     1374    16361    4                 CALL Z8AC$MAKE_CONST (ETT$$);
     1375    16362    4                 CALL Z8AF$FORME (%SIZ, LOP$, ETT$$, LOP$);
     1376    16363    4                 CALL Z8AF$FORME (%D96, LOP$, 0, LOP$);
PL6.E3A0      #008=Z8EQ$OPTIMIZED_INITIAL File=Z8EQ.:Z8A6TSI                     SAT 08/09/97 12:45 Page:247
     1377    16364    4               END;
     1378    16365                  %NEW_ILL (@ID   = %MFILL,
     1379    16366                            @LOP  = LOP$,
     1380    16367                            @FILL = INIT_LTS$ -> INIT_LTS.FILL);
     1381    16746    3           END;
     1382    16747    2         ELSE
     1383    16748    3           DO; /* Elementary item */
     1384    16749    3             IF INIT_LTS$ -> INIT_LTS.BASE$ -> ETT.ID = %DNA AND
     1385    16750    3                 INIT_LTS$ -> INIT_LTS.BCD THEN
     1386    16751    3               CALL Z8AF$FORME (%DAN, LOP$, 0, LOP$);
     1387    16752                  %INIT_LX_ETT_ITEM (@POINTER = "ADDR (DATA_ITEM)",
     1388    16753                                     @ETT$    = LOP$,
     1389    16754                                     @TYPE    = ST$$ -> VARIABLE.TYPE);
     1390    16776    3             IF INIT_LTS$ -> INIT_LTS.POINTER THEN
     1391    16777    3               CALL Z8E7$POINTER_MOVE (ADDR (DATA_ITEM), ADDR (NIL));
     1392    16778    3             ELSE
     1393    16779    4               DO;
     1394    16780    4                 IF ST$$ -> VARIABLE.B.SUB_CLASS.TYPE = %CLASS_NUMERIC
     1395    16781    4                   THEN INIT_VAL.SYMBOL = %RSV_WRD_ZEROES;
     1396    16782    4                   ELSE INIT_VAL.SYMBOL = %RSV_WRD_SPACES;
     1397    16783    4                 INIT_VAL.LINE = ST$$ -> VARIABLE.LINE_NO;
     1398    16784    4                 INIT_VAL.DNT$ = DNT$_FROM_RSWNO (INIT_VAL.SYMBOL);
     1399    16785    4                 CALL Z8E7$MOVE (ADDR (DATA_ITEM), INIT_VAL$);
     1400    16786    4               END;
     1401    16787    3           END; /* Elementary item */
     1402    16788    2       END; /* SON_LTS$ = ADDR (NIL) */
     1403    16789    1     ELSE
     1404    16790    2       DO UNTIL SON_LTS$ = ADDR (NIL);
     1405    16791    2         IF SON_LTS$ -> INIT_LTS.DIMS > 1 THEN
     1406    16792    3           DO;
     1407    16793    3             IF SON_LTS$ -> INIT_LTS.FILLER THEN
     1408    16794    4               DO;
     1409    16795    4                 SAVED_ILS_LIST = O1COM.ILS_LIST;
     1410    16796                      %INIT_ILS_LIST (@POINTER = "ADDR (O1COM.ILS_LIST)");
     1411    16804    4               END;
     1412    16805    3             ELSE IF SON_LTS$ -> INIT_LTS.SON$ ~= ADDR (NIL) THEN
     1413    16806                    %NEW_ILL (@ID  = %MVII,
PL6.E3A0      #008=Z8EQ$OPTIMIZED_INITIAL File=Z8EQ.:Z8A6TSI                     SAT 08/09/97 12:45 Page:248
     1414    16807                              @LOP = SON_LTS$ -> INIT_LTS.INDEX$,
     1415    16808                              @ROP = COMCOM.VALUE_0);
     1416    17187    3           END;
     1417    17188    2         CALL Z8EQ$OPTIMIZED_INITIAL (SON_LTS$);
     1418    17189    2         IF SON_LTS$ -> INIT_LTS.DIMS > 1 THEN
     1419    17190    3           DO;
     1420    17191    3             IF NOT SON_LTS$ -> INIT_LTS.FILLER THEN
     1421    17192    4               DO;
     1422    17193                      %FISH (TRIAD = SON_LTS$ -> INIT_LTS.BASE$, RTN = ST$$);
     1423    17201    4                 IF SON_LTS$ -> INIT_LTS.SUBSCR$ = ADDR (NIL) THEN
     1424    17202    5                   DO;
     1425    17203    5                     IF SON_LTS$ -> INIT_LTS.OFF ~= 0
     1426    17204    5                       THEN CALL Z8AF$NEW_OFF (SON_LTS$ -> INIT_LTS.BASE$,
     1427    17205    5                                               SON_LTS$ -> INIT_LTS.OFF,
     1428    17206    5                                               ETT$$);
     1429    17207    5                       ELSE ETT$$ = SON_LTS$ -> INIT_LTS.BASE$;
     1430    17208    5                   END;
     1431    17209    4                 ELSE
     1432    17210    5                   DO;
     1433    17211    5                     ETT$$ = SON_LTS$ -> INIT_LTS.SUBSCR$;
     1434    17212    5                     CALL Z8AF$NEW_OFF_AND_SSOP_NO_SBCHK (SON_LTS$ -> INIT_LTS.BASE$,
     1435    17213    5                                                          SON_LTS$ -> INIT_LTS.OFF,
     1436    17214    5                                                          ETT$$,
     1437    17215    5                                                          ETT$$);
     1438    17216    5                     IF SON_LTS$ -> INIT_LTS.BASE$ -> ETT.ID = %SIZ THEN
     1439    17217    5                       CALL Z8AF$FORME (%SIZ, ETT$$, SON_LTS$ -> INIT_LTS.BASE$ -> ETT.
             17217                                ROP, ETT$$);
     1440    17218    5                   END;
     1441    17219    4               END;
     1442    17220    3             IF SON_LTS$ -> INIT_LTS.DIMS = 2 AND NOT SON_LTS$ -> INIT_LTS.FILLER THEN
     1443    17221    4               DO;
     1444    17222    4                 OFF = SON_LTS$ -> INIT_LTS.SPAN + SON_LTS$ -> INIT_LTS.OFF;
     1445    17223    4                 IF OFF >= %#128K THEN
     1446    17224    5                   DO;
     1447    17225    5                     MKCN.CON = OFF;
     1448    17226    5                     CALL Z8AC$MAKE_CONST (SUBSCR$);
     1449    17227    5                     IF SON_LTS$ -> INIT_LTS.SUBSCR$ ~= ADDR (NIL) THEN
PL6.E3A0      #008=Z8EQ$OPTIMIZED_INITIAL File=Z8EQ.:Z8A6TSI                     SAT 08/09/97 12:45 Page:249
     1450    17228    5                       CALL Z8AF$FORME (%ADI,
     1451    17229    5                                        SON_LTS$ -> INIT_LTS.SUBSCR$,
     1452    17230    5                                        SUBSCR$,
     1453    17231    5                                        SUBSCR$);
     1454    17232    5                     OFF = 0;
     1455    17233    5                   END;
     1456    17234    4                 ELSE
     1457    17235    4                   SUBSCR$ = SON_LTS$ -> INIT_LTS.SUBSCR$;
     1458    17236    4                 IF SUBSCR$ = ADDR (NIL) THEN
     1459    17237    4                   CALL Z8AF$NEW_OFF (SON_LTS$ -> INIT_LTS.BASE$,
     1460    17238    4                                      OFF,
     1461    17239    4                                      LOP$);
     1462    17240    4                 ELSE
     1463    17241    5                   DO;
     1464    17242    5                     CALL Z8AF$NEW_OFF_AND_SSOP_NO_SBCHK (SON_LTS$ -> INIT_LTS.BASE$,
     1465    17243    5                                                          OFF,
     1466    17244    5                                                          SUBSCR$,
     1467    17245    5                                                          LOP$);
     1468    17246    5                     IF SON_LTS$ -> INIT_LTS.BASE$ -> ETT.ID = %SIZ THEN
     1469    17247    5                       CALL Z8AF$FORME (%SIZ, LOP$, SON_LTS$ -> INIT_LTS.BASE$ -> ETT.
             17247                                ROP, LOP$);
     1470    17248    5                   END;
     1471    17249    5                 DO CASE (ST$$ -> VARIABLE.TYPE);
     1472    17250    5                   CASE (%TYP, %TYR, %TYQ);
     1473    17251                          %INIT_LX_ETT_ITEM (@POINTER = "ADDR (DATA_ITEM)",
     1474    17252                                             @ETT$    = LOP$,
     1475    17253                                             @TYPE    = ST$$ -> VARIABLE.TYPE);
     1476    17275                          %INIT_LX_ETT_ITEM (@POINTER = "ADDR (ROP_ETT)",
     1477    17276                                             @ETT$    = ETT$$,
     1478    17277                                             @TYPE    = ST$$ -> VARIABLE.TYPE);
     1479    17299    5                     IF ST$$ -> VARIABLE.TYPE = %TYP
     1480    17300    5                       THEN CALL Z8E7$POINTER_MOVE (ADDR (DATA_ITEM), ADDR (ROP_ETT));
     1481    17301    5                       ELSE CALL Z8E7$MOVE (ADDR (DATA_ITEM), ADDR (ROP_ETT));
     1482    17302    5                   CASE (ELSE);
     1483    17303                          %NEW_ILL (@ID  = %MVAN,
     1484    17304                                    @LOP = LOP$,
     1485    17305                                    @ROP = ETT$$);
PL6.E3A0      #008=Z8EQ$OPTIMIZED_INITIAL File=Z8EQ.:Z8A6TSI                     SAT 08/09/97 12:45 Page:250
     1486    17684    5                 END;
     1487    17685    4               END;
     1488    17686    3             ELSE
     1489    17687    4               DO;
     1490    17688    4                 IF NOT SON_LTS$ -> INIT_LTS.FILLER THEN
     1491    17689    5                   DO;
     1492    17690    5                     SAVED_ILS_LIST = O1COM.ILS_LIST;
     1493    17691                          %INIT_ILS_LIST (@POINTER = "ADDR (O1COM.ILS_LIST)");
     1494    17699    5                     SUBSCR$ = SON_LTS$ -> INIT_LTS.SUBSCR$;
     1495    17700    5                     IF SUBSCR$ ~= ADDR (NIL) THEN
     1496    17701    6                       DO;
     1497    17702    6                         IF SUBSCR$ -> ETT.ID = %MPI2 AND NOT ST$$ -> VARIABLE.B.DIGIT
             17702                                  THEN
     1498    17703    6                           SUBSCR$ = SUBSCR$ -> ETT.LOP;
     1499    17704                                /* If COMP-3 or COMP-5, delete the MPI2 for the MVAN */
     1500    17705    6                         IF SON_LTS$ -> INIT_LTS.INDEX$ ~= ADDR (NIL) THEN
     1501    17706    6                           CALL Z8AF$FORME (%ADI, SUBSCR$, SON_LTS$ -> INIT_LTS.INDEX$,
             17706                                    SUBSCR$);
     1502    17707    6                       END;
     1503    17708    5                     ELSE
     1504    17709    5                       SUBSCR$ = SON_LTS$ -> INIT_LTS.INDEX$;
     1505    17710    5                     CALL Z8AF$NEW_OFF_AND_SSOP_NO_SBCHK (SON_LTS$ -> INIT_LTS.BASE$,
     1506    17711    5                                                          SON_LTS$ -> INIT_LTS.OFF,
     1507    17712    5                                                          SUBSCR$,
     1508    17713    5                                                          LOP$);
     1509    17714    5                     IF SON_LTS$ -> INIT_LTS.BASE$ -> ETT.ID = %SIZ THEN
     1510    17715    5                       CALL Z8AF$FORME (%SIZ, LOP$, SON_LTS$ -> INIT_LTS.BASE$ -> ETT.
             17715                                ROP, LOP$);
     1511    17716    6                     DO CASE (ST$$ -> VARIABLE.TYPE);
     1512    17717    6                       CASE (%TYP, %TYR, %TYQ);
     1513    17718                              %INIT_LX_ETT_ITEM (@POINTER = "ADDR (DATA_ITEM)",
     1514    17719                                                 @ETT$    = LOP$,
     1515    17720                                                 @TYPE    = ST$$ -> VARIABLE.TYPE);
     1516    17742                              %INIT_LX_ETT_ITEM (@POINTER = "ADDR (ROP_ETT)",
     1517    17743                                                 @ETT$    = ETT$$,
     1518    17744                                                 @TYPE    = ST$$ -> VARIABLE.TYPE);
     1519    17766    6                         IF ST$$ -> VARIABLE.TYPE = %TYP
PL6.E3A0      #008=Z8EQ$OPTIMIZED_INITIAL File=Z8EQ.:Z8A6TSI                     SAT 08/09/97 12:45 Page:251
     1520    17767    6                           THEN CALL Z8E7$POINTER_MOVE (ADDR (DATA_ITEM), ADDR (ROP_ETT
             17767                                    ));
     1521    17768    6                           ELSE CALL Z8E7$MOVE (ADDR (DATA_ITEM), ADDR (ROP_ETT));
     1522    17769    6                       CASE (ELSE);
     1523    17770                              %NEW_ILL (@ID  = %MVAN,
     1524    17771                                        @LOP = LOP$,
     1525    17772                                        @ROP = ETT$$);
     1526    18151    6                     END;
     1527    18152    5                     CALL Z8AC$LX_ETT_ITEM_TYI_CONST (SON_LTS$ -> INIT_LTS.SPAN, ADDR (
             18152                              START_VALUE));
     1528    18153    5                   END;
     1529    18154    4                 ELSE
     1530    18155                        %INIT_LX_ETT_ITEM (@POINTER = "ADDR (START_VALUE)",
     1531    18156                                           @ETT$    = COMCOM.VALUE_0,
     1532    18157                                           @TYPE    = %TYI);
     1533    18179    4                 CALL Z8AC$LX_ETT_ITEM_TYI_CONST (SON_LTS$ -> INIT_LTS.SPAN,
     1534    18180    4                                                  ADDR (INCR_VALUE));
     1535    18181    4                 CALL Z8AC$LX_ETT_ITEM_TYI_CONST (SON_LTS$ -> INIT_LTS.SPAN *
     1536    18182    4                                                    (SON_LTS$ -> INIT_LTS.DIMS - 1),
     1537    18183    4                                                  ADDR (END_VALUE));
     1538    18184                      %INIT_LX_ETT_ITEM (@POINTER = "ADDR (INDEX_ETT)",
     1539    18185                                         @ETT$    = SON_LTS$ -> INIT_LTS.INDEX$,
     1540    18186                                         @TYPE    = %TYI);
     1541    18208                      %INIT_BINARY_OP (@POINTER = "ADDR (LOOP_END)",
     1542    18209                                       @LOP$    = "ADDR (INDEX_ETT)",
     1543    18210                                       @ROP$    = "ADDR (END_VALUE)",
     1544    18211                                       @OP      = %OP_EQUAL);
     1545    18229    4                 CALL Z8EQ$MERGE_ITERATED_DO_UNTIL(ADDR (INDEX_ETT),
     1546    18230    4                                                   ADDR (START_VALUE),
     1547    18231    4                                                   ADDR (INCR_VALUE),
     1548    18232    4                                                   ADDR (LOOP_END));
     1549    18233                      %APPEND_ILS_LIST (@FROM$ = "ADDR (O1COM.ILS_LIST)",
     1550    18234                                        @TO$   = "ADDR (SAVED_ILS_LIST)");
     1551    18251    4                 O1COM.ILS_LIST = SAVED_ILS_LIST;
     1552    18252    4               END; /* DIMS > 2 OR FILLER */
     1553    18253    3           END; /* DIMS > 1 */
     1554    18254    2         SON_LTS$ = SON_LTS$ -> INIT_LTS.NEXT$;
PL6.E3A0      #008=Z8EQ$OPTIMIZED_INITIAL File=Z8EQ.:Z8A6TSI                     SAT 08/09/97 12:45 Page:252
     1555    18255    2       END; /* UNTIL SON_LTS$ = ADDR (NIL) */
     1556    18256    1   END Z8EQ$OPTIMIZED_INITIAL;

PL6.E3A0      #008=Z8EQ$OPTIMIZED_INITIAL File=Z8EQ.:Z8A6TSI                     SAT 08/09/97 12:45 Page:253
--  Include file information  --

   Z8E_WINDOW.:Z8A6TOU  is referenced.
   Z8E_O1COM.:Z8A6TOU  cannot be made into a system file and is referenced.
   Z8E_ILS_LIST.:Z8A6TOU  is referenced.
   Z8E_NEW_ILL.:Z8A6TOU  is referenced.
   Z8E_MACROS.:Z8A6TOU  cannot be made into a system file and is referenced.
   Z8A_LEX_SYMB.:Z8A6TOU  cannot be made into a system file and is referenced.
   Z8E_STACKS.:Z8A6TOU  cannot be made into a system file and is referenced.
   Z8A_LTS.:Z8A6TOU  cannot be made into a system file and is referenced.
   Z8A_TYPES.:Z8A6TOU  is referenced.
   Z8A_ST.:Z8A6TOU  cannot be made into a system file and is referenced.
   Z8A_MKCN.:Z8A6TOU  cannot be made into a system file and is referenced.
   Z8A_ILS.:Z8A6TOU  cannot be made into a system file and is referenced.
   Z8A_ILL.:Z8A6TOU  cannot be made into a system file and is referenced.
   Z8A_ETT.:Z8A6TOU  cannot be made into a system file and is referenced.
   Z8A_DNT.:Z8A6TOU  cannot be made into a system file and is referenced.
   Z8A_COMCOM.:Z8A6TOU  cannot be made into a system file and is referenced.
   X8A_COM_MACS.:X8A6TOU  is referenced.
   Z8A_NAMES.:Z8A6TOU  is referenced.
   Z8A_SUPP_MAC.:Z8A6TOU  is referenced.
   Z8A_DEFC.:Z8A6TOU  cannot be made into a system file and is referenced.
      No diagnostics issued in procedure Z8EQ$OPTIMIZED_INITIAL.

   Procedure Z8EQ$OPTIMIZED_INITIAL requires 849 words for executable code.
   Procedure Z8EQ$OPTIMIZED_INITIAL requires 84 words of local(AUTO) storage.

    No errors detected in file Z8EQ.:Z8A6TSI    .

PL6.E3A0      #008=Z8EQ$OPTIMIZED_INITIAL File=Z8EQ.:Z8A6TSI                     SAT 08/09/97 12:45 Page:254

 Object Unit name= Z8EQ$OPTIMIZED_INITIAL                     File name= Z8EQ.:Z8A6TOU
 UTS= AUG 09 '97 12:45:48.72 SAT                              Compiler= PL-6/E31         Sev=      00
 SharedLib= :SHARED_SYSTEM                                    Alt SharedLib=


    ****  Control sections  ****

 Sect   Type Bound  Init  Size OctSiz  Section name(segment info)
    0  LblCom even  none     1      1  ITERATION
    1  LblCom even  none     1      1  DNT$
    2  LblCom even  none     5      5  DNT_
    3  LblCom even  none     1      1  DNT_BUCKET_NUMBER
    4  LblCom even  none     1      1  DNT_OF_1$
    5  LblCom even  none     1      1  ETT$
    6  LblCom even  none     1      1  HEAD_ETT$
    7  LblCom even  none   512   1000  ETT_BUCKETS
    8  LblCom even  none     5      5  ETT_
    9  LblCom even  none     1      1  ILL$
   10  LblCom even  none     5      5  ILL_
   11  LblCom even  none     1      1  ILS$
   12  LblCom even  none     5      5  ILS_
   13  LblCom even  none     2      2  MKCN
   14  LblCom even  none     1      1  ST$
   15  LblCom even  none     5      5  ST_
   16  LblCom even  none     1      1  LTS$
   17  LblCom even  none     5      5  LTS_
   18  LblCom even  none    90    132  LEX_SYMBOL
   19  LblCom even  none     1      1  CURRENT_LEX_SYMBOL$
   20  LblCom even  none    90    132  TEMP_LEX_SYMBOL
   21  LblCom even  none    90    132  TEMP_LEX_SYMBOL2
   22   Data  even  none     8     10  Z8EQ$OPTIMIZED_INITIAL
   23  RoData even  UTS      1      1  Z8EQ$OPTIMIZED_INITIAL
   24   Proc  even  none   849   1521  Z8EQ$OPTIMIZED_INITIAL
   25  RoData even  none    30     36  Z8EQ$OPTIMIZED_INITIAL
PL6.E3A0      #008=Z8EQ$OPTIMIZED_INITIAL File=Z8EQ.:Z8A6TSI                     SAT 08/09/97 12:45 Page:255

    ****  Entry defs  ****

                              Check   Calling
                             calling  sequence
  Sect OctLoc Primary Altret sequence   type   Parms  Name
    24      0   yes            yes      Std        1  Z8EQ$OPTIMIZED_INITIAL

  ****  Entry refs  ****

         Check        Calling
        calling       sequence
Altret sequence SRef   type   Args  Name
         yes           Std       3 Z8AF$NEW_OFF
         yes           Std       4 Z8AF$NEW_OFF_AND_SSOP_NO_SBCHK
         yes           Std       2 Z8E7$POINTER_MOVE
         yes           Std       4 Z8EQ$MERGE_ITERATED_DO_UNTIL
         yes           Std       4 Z8AF$FORME
         yes           Std       1 Z8AC$MAKE_CONST
         yes           Std       2 Z8E7$MOVE
         yes           Std       2 Z8AC$LX_ETT_ITEM_TYI_CONST
         yes           Std       5 Z8AN$NEW_ILL1
                       nStd      0 X66_AUTO_1
                       nStd      0 X66_ARET

  ****  Data refs  ****

  Flags:  r = read only, s = secondary
Flgs Name                             Flgs Name                             Flgs Name
     COMCOM                           r    ILL_STEP                         r    ILS_STEP_TABLE
r    LTS_STEP                              O1COM                                 HIER_STK_PTR
     HIER_STK                              PAGE_FORMAT                           REP_STK_PTR
     REP_STK                          r    DNT$_FROM_RSWNO
PL6.E3A0      #008=Z8EQ$OPTIMIZED_INITIAL File=Z8EQ.:Z8A6TSI                     SAT 08/09/97 12:45 Page:256

  ****  Segment refs  ****

  Flags:  r = read only, s = secondary
Flgs Name                             Flgs Name                             Flgs Name
     NULLSID                               ISSID
PL6.E3A0      #008=Z8EQ$OPTIMIZED_INITIAL File=Z8EQ.:Z8A6TSI                     SAT 08/09/97 12:45 Page:257


     1254        1        /*M* Z8EQ$OPTIMIZED_INITIAL -- INITIALIZE, combining all fields possible */
     1255        2        /*T***********************************************************/
     1256        3        /*T*                                                         */
     1257        4        /*T* Copyright (c) Bull HN Information Systems Inc., 1997    */
     1258        5        /*T*                                                         */
     1259        6        /*T***********************************************************/
     1260        7        /*P*
     1261        8            NAME: Z8EQ$OPTIMIZED_INITIAL
     1262        9            PURPOSE: Generate optimized code for the INITIAL statement.
     1263       10        */
     1264       11        /*D*
     1265       12            NAME: Z8EQ$OPTIMIZED_INITIAL
     1266       13            CALL: CALL Z8EQ$OPTIMIZED_INITIAL (INIT_LTS$);
     1267       14            INPUT: Pointer to tree of INIT_LTS items, one for each field.
     1268       15            OUTPUT: ILS and ILL to initialize all the fields.
     1269       16            DESCRIPTION: Walk the tree. At each level, if there is no son then
     1270       17                         generate code to initialize a field. Z8EQ will already have
     1271       18                         combined all fields that can be combined. If there is a son
     1272       19                         then walk the list of the son and its brothers. For each, the
     1273       20                         module calls itself recursively. After the recursive call, if
     1274       21                         there is a subscript at the level and the maximum value is not
     1275       22                         1 then any of several actions can be taken. If within the
     1276       23                         field there is any subfield that is FILLER (explicitly or thru
     1277       24                         not specifying a name) or USAGE INDEX then such fields must
     1278       25                         not be affected by the INITIALIZE statement. Go thru a loop,
     1279       26                         on each iteration initializing all subordinate data items.
     1280       27                         Otherwise, if OCCURS 2 then no loop is needed but only
     1281       28                         generate one move to copy the first element to the second.
     1282       29                         Otherwise, generate a loop, each time copying the first
     1283       30                         element to a later one.
     1284       31        */
     1285       32        %EJECT;
PL6.E3A0      #008=Z8EQ$OPTIMIZED_INITIAL File=Z8EQ.:Z8A6TSI                     SAT 08/09/97 12:45 Page:258
     1286       33        Z8EQ$OPTIMIZED_INITIAL: PROC (INIT_LTS$);

     33 24 000000   000000 700200 xent  Z8EQ$OPTIMI* TSX0  ! X66_AUTO_1
        24 000001   000124 000001                    ZERO    84,1

     1287       34        %SET PHASE = 1;
     1288       35        %INCLUDE Z8A_DEFC;
     1289      103        %INCLUDE Z8A_SUPP_MAC;
     1290     2503        %INCLUDE Z8A_COMCOM;
     1291     3153        %INCLUDE Z8A_DNT;
     1292     3374        %INCLUDE Z8A_ETT;
     1293     3675        %INCLUDE Z8A_ILL;
     1294     4368        %INCLUDE Z8A_ILS;
     1295     4477        %INCLUDE Z8A_MKCN;
     1296     4494        %INCLUDE Z8A_ST;
     1297     8153        %INCLUDE Z8A_TYPES;
     1298     8327        %INCLUDE Z8A_LTS;
     1299    10404        %INCLUDE Z8E_STACKS;
     1300    12670        %INCLUDE Z8E_MACROS;
     1301    13345        %INCLUDE Z8E_ILS_LIST;
     1302    13429        %INCLUDE Z8E_O1COM;
     1303    14190        %INCLUDE Z8E_WINDOW;
     1304    16260    1   DCL INIT_LTS$  PTR;
     1305    16261    1   DCL 1 INIT_VAL STATIC,
     1306    16262    1         2 ID     UBIN HALF HALIGNED INIT (%LX_TERMINAL),
     1307    16263    1         2 *      BIT (18) INIT (FALSE),
     1308    16264    1         2 ST$    PTR INIT (ADDR (NIL)),
     1309    16265    1         2 DNT$   PTR,
     1310    16266    1         2 SYMBOL SBIN,
     1311    16267    1         2 TYPE   UBIN INIT (%TYT),
     1312    16268    1         2 LINE   UBIN,
     1313    16269    1         2 COLUMN UBIN INIT (0),
     1314    16270    1         2 LINK   PTR INIT (ADDR (NIL));
     1315    16271    1   DCL INIT_VAL$  PTR CONSTANT INIT (ADDR (INIT_VAL));
     1316    16272    1   DCL SON_LTS$   PTR;
     1317    16273    1   DCL LOP$       PTR;
     1318    16274    1   DCL ST$$       PTR;
PL6.E3A0      #008=Z8EQ$OPTIMIZED_INITIAL File=Z8EQ.:Z8A6TSI                     SAT 08/09/97 12:45 Page:259
     1319    16275    1   DCL ETT$$      PTR;
     1320    16276    1   DCL SUBSCR$    PTR;
     1321    16277    1   DCL THREE$     PTR;
     1322    16278    1   DCL OFF        SBIN;
     1323    16279        %DCL_AUTO_LX_ITEM (@NAME = SAVED_ILS_LIST);
     1324    16283        %DCL_AUTO_LX_ITEM (@NAME = DATA_ITEM);
     1325    16287        %DCL_AUTO_LX_ITEM (@NAME = ROP_ETT);
     1326    16291        %DCL_AUTO_LX_ITEM (@NAME = END_VALUE);
     1327    16295        %DCL_AUTO_LX_ITEM (@NAME = START_VALUE);
     1328    16299        %DCL_AUTO_LX_ITEM (@NAME = INCR_VALUE);
     1329    16303        %DCL_AUTO_LX_ITEM (@NAME = LOOP_END);
     1330    16307        %DCL_AUTO_LX_ITEM (@NAME = INDEX_ETT);
     1331    16311    1   DCL DNT$_FROM_RSWNO (0:0) PTR SYMREF READONLY;
     1332    16312    1   DCL Z8AC$MAKE_CONST                ENTRY (1);
     1333    16313    1   DCL Z8AC$LX_ETT_ITEM_TYI_CONST     ENTRY (2);
     1334    16314    1   DCL Z8AF$FORME                     ENTRY (4);
     1335    16315    1   DCL Z8AF$NEW_OFF                   ENTRY (3);
     1336    16316    1   DCL Z8AF$NEW_OFF_AND_SSOP_NO_SBCHK ENTRY (4);
     1337    16317    1   DCL Z8E7$MOVE                      ENTRY (2);
     1338    16318    1   DCL Z8E7$POINTER_MOVE              ENTRY (2);
     1339    16319    1   DCL Z8EQ$MERGE_ITERATED_DO_UNTIL   ENTRY (4);
     1340    16320        %EJECT;
PL6.E3A0      #008=Z8EQ$OPTIMIZED_INITIAL File=Z8EQ.:Z8A6TSI                     SAT 08/09/97 12:45 Page:260
     1341    16321    1     SON_LTS$ = INIT_LTS$ -> INIT_LTS.SON$;

  16321 24 000002   200003 470500                    LDP0    @INIT_LTS$,,AUTO
        24 000003   000000 471500                    LDP1    0,,PR0
        24 000004   100003 236100                    LDQ     3,,PR1
        24 000005   200004 756100                    STQ     SON_LTS$,,AUTO

     1342    16322    1     IF SON_LTS$ = ADDR (NIL) THEN

  16322 24 000006   000000 116000 25                 CMPQ    0
        24 000007   000353 601000 24                 TNZ     s:16791

     1343    16323    2       DO;

     1344    16324    2         LOP$ = INIT_LTS$ -> INIT_LTS.BASE$;

  16324 24 000010   000000 471500                    LDP1    0,,PR0
        24 000011   100001 236100                    LDQ     1,,PR1
        24 000012   200005 756100                    STQ     LOP$,,AUTO

     1345    16325    2         IF (NOT INIT_LTS$ -> INIT_LTS.GROUP OR

  16325 24 000013   000000 471500                    LDP1    0,,PR0
        24 000014   100000 236100                    LDQ     0,,PR1
        24 000015   000100 316007                    CANQ    64,DL
        24 000016   000021 600000 24                 TZE     s:16325+6
        24 000017   000200 316007                    CANQ    128,DL
        24 000020   000031 601000 24                 TNZ     s:16330
        24 000021   000040 316007                    CANQ    32,DL
        24 000022   000031 601000 24                 TNZ     s:16330
        24 000023   200005 473500                    LDP3    LOP$,,AUTO
        24 000024   300000 220100                    LDX0    0,,PR3
        24 000025   000007 100003                    CMPX0   7,DU
        24 000026   000031 601000 24                 TNZ     s:16330

     1346    16326    2             NOT INIT_LTS$ -> INIT_LTS.MFILLABLE) AND
     1347    16327    2            NOT INIT_LTS$ -> INIT_LTS.BCD AND
PL6.E3A0      #008=Z8EQ$OPTIMIZED_INITIAL File=Z8EQ.:Z8A6TSI                     SAT 08/09/97 12:45 Page:261
     1348    16328    2            LOP$ -> ETT.ID = %DNA /* Elementary numeric item */
     1349    16329    2           THEN LOP$ = LOP$ -> ETT.LOP; /* Remove DNA */

  16329 24 000027   300001 236100                    LDQ     1,,PR3
        24 000030   200005 756100                    STQ     LOP$,,AUTO

     1350    16330    2         IF INIT_LTS$ -> INIT_LTS.SUBSCR$ = ADDR (NIL) THEN

  16330 24 000031   000000 471500                    LDP1    0,,PR0
        24 000032   100010 236100                    LDQ     8,,PR1
        24 000033   000000 116000 25                 CMPQ    0
        24 000034   000052 601000 24                 TNZ     s:16339

     1351    16331    3           DO;

     1352    16332    3             IF INIT_LTS$ -> INIT_LTS.OFF ~= 0 THEN

  16332 24 000035   100002 235100                    LDA     2,,PR1
        24 000036   000110 600000 24                 TZE     s:16348

     1353    16333    3               CALL Z8AF$NEW_OFF (LOP$,

  16333 24 000037   200005 633500                    EPPR3   LOP$,,AUTO
        24 000040   200116 453500                    STP3    INDEX_ETT+10,,AUTO
        24 000041   100002 634500                    EPPR4   2,,PR1
        24 000042   200115 454500                    STP4    INDEX_ETT+9,,AUTO
        24 000043   200005 631500                    EPPR1   LOP$,,AUTO
        24 000044   200114 451500                    STP1    INDEX_ETT+8,,AUTO
        24 000045   200114 630500                    EPPR0   INDEX_ETT+8,,AUTO
        24 000046   000001 631400 25                 EPPR1   1
        24 000047   000000 701000 xent               TSX1    Z8AF$NEW_OFF
        24 000050   000000 011000                    NOP     0

     1354    16334    3                                  INIT_LTS$ -> INIT_LTS.OFF,
     1355    16335    3                                  LOP$);
     1356    16336    3           END;

PL6.E3A0      #008=Z8EQ$OPTIMIZED_INITIAL File=Z8EQ.:Z8A6TSI                     SAT 08/09/97 12:45 Page:262
  16336 24 000051   000110 710000 24                 TRA     s:16348

     1357    16337    2         ELSE
     1358    16338    3           DO; /* Z8AF$NEW_OFF_AND_SSOP_NO_SBCHK removes the SIZ triad if any */

     1359    16339    3             CALL Z8AF$NEW_OFF_AND_SSOP_NO_SBCHK (LOP$,

  16339 24 000052   200005 633500                    EPPR3   LOP$,,AUTO
        24 000053   200117 453500                    STP3    INDEX_ETT+11,,AUTO
        24 000054   100010 634500                    EPPR4   8,,PR1
        24 000055   200116 454500                    STP4    INDEX_ETT+10,,AUTO
        24 000056   100002 635500                    EPPR5   2,,PR1
        24 000057   200115 455500                    STP5    INDEX_ETT+9,,AUTO
        24 000060   200005 631500                    EPPR1   LOP$,,AUTO
        24 000061   200114 451500                    STP1    INDEX_ETT+8,,AUTO
        24 000062   200114 630500                    EPPR0   INDEX_ETT+8,,AUTO
        24 000063   000002 631400 25                 EPPR1   2
        24 000064   000000 701000 xent               TSX1    Z8AF$NEW_OFF_AND_SSOP_NO_SBCHK
        24 000065   000000 011000                    NOP     0

     1360    16340    3                                                  INIT_LTS$ -> INIT_LTS.OFF,
     1361    16341    3                                                  INIT_LTS$ -> INIT_LTS.SUBSCR$,
     1362    16342    3                                                  LOP$);
     1363    16343    3             IF INIT_LTS$ -> INIT_LTS.BASE$ -> ETT.ID = %SIZ THEN

  16343 24 000066   200003 470500                    LDP0    @INIT_LTS$,,AUTO
        24 000067   000000 471500                    LDP1    0,,PR0
        24 000070   100001 473500                    LDP3    1,,PR1
        24 000071   300000 220100                    LDX0    0,,PR3
        24 000072   000004 100003                    CMPX0   4,DU
        24 000073   000110 601000 24                 TNZ     s:16348

     1364    16344    3               CALL Z8AF$FORME (%SIZ, LOP$, INIT_LTS$ -> INIT_LTS.BASE$ -> ETT.ROP,
             16344                        LOP$);

  16344 24 000074   200005 634500                    EPPR4   LOP$,,AUTO
        24 000075   200117 454500                    STP4    INDEX_ETT+11,,AUTO
PL6.E3A0      #008=Z8EQ$OPTIMIZED_INITIAL File=Z8EQ.:Z8A6TSI                     SAT 08/09/97 12:45 Page:263
        24 000076   300002 631500                    EPPR1   2,,PR3
        24 000077   200116 451500                    STP1    INDEX_ETT+10,,AUTO
        24 000100   200005 633500                    EPPR3   LOP$,,AUTO
        24 000101   200115 453500                    STP3    INDEX_ETT+9,,AUTO
        24 000102   000004 236000 25                 LDQ     4
        24 000103   200114 756100                    STQ     INDEX_ETT+8,,AUTO
        24 000104   200114 630500                    EPPR0   INDEX_ETT+8,,AUTO
        24 000105   000002 631400 25                 EPPR1   2
        24 000106   000000 701000 xent               TSX1    Z8AF$FORME
        24 000107   000000 011000                    NOP     0

     1365    16345    3           END;

     1366    16346              %FISH (TRIAD = INIT_LTS$ -> INIT_LTS.BASE$, RTN = ST$$);

  16348 24 000110   200003 470500                    LDP0    @INIT_LTS$,,AUTO
        24 000111   000000 471500                    LDP1    0,,PR0
        24 000112   100001 236100                    LDQ     1,,PR1
        24 000113   200006 756100                    STQ     ST$$,,AUTO

  16349 24 000114   200006 473500                    LDP3    ST$$,,AUTO
        24 000115   300000 220100                    LDX0    0,,PR3
        24 000116   000751 100003                    CMPX0   489,DU
        24 000117   000127 603000 24                 TRC     s:16354

  16350 24 000120   200006 470500                    LDP0    ST$$,,AUTO
        24 000121   000001 236100                    LDQ     1,,PR0
        24 000122   200006 756100                    STQ     ST$$,,AUTO

  16351 24 000123   200006 470500                    LDP0    ST$$,,AUTO
        24 000124   000000 220100                    LDX0    0,,PR0
        24 000125   000751 100003                    CMPX0   489,DU
        24 000126   000120 602000 24                 TNC     s:16350

     1367    16354    2         IF INIT_LTS$ -> INIT_LTS.GROUP

  16354 24 000127   200003 470500                    LDP0    @INIT_LTS$,,AUTO
PL6.E3A0      #008=Z8EQ$OPTIMIZED_INITIAL File=Z8EQ.:Z8A6TSI                     SAT 08/09/97 12:45 Page:264
        24 000130   000000 471500                    LDP1    0,,PR0
        24 000131   100000 236100                    LDQ     0,,PR1
        24 000132   000100 316007                    CANQ    64,DL
        24 000133   000234 600000 24                 TZE     s:16749
        24 000134   000200 316007                    CANQ    128,DL
        24 000135   000234 600000 24                 TZE     s:16749

     1368    16355    2             AND INIT_LTS$ -> INIT_LTS.MFILLABLE THEN
     1369    16356    3           DO;

     1370    16357    3             IF INIT_LTS$ -> INIT_LTS.BCD AND ST$$ -> VARIABLE.TYPE = %TYA THEN

  16357 24 000136   000040 316007                    CANQ    32,DL
        24 000137   000206 600000 24                 TZE     s:16634
        24 000140   200006 473500                    LDP3    ST$$,,AUTO
        24 000141   300002 220100                    LDX0    2,,PR3
        24 000142   000010 100003                    CMPX0   8,DU
        24 000143   000206 601000 24                 TNZ     s:16634

     1371    16358    4               DO;

     1372    16359                      /* Group item composed only of GBCD elementary items */
     1373    16360    4                 MKCN.CON = INIT_LTS$ -> INIT_LTS.LENGTH * 3 / 2;

  16360 24 000144   100005 236100                    LDQ     5,,PR1
        24 000145   000003 402007                    MPY     3,DL
        24 000146   000001 772000                    QRL     1
        24 000147   000000 756000 13                 STQ     MKCN

     1374    16361    4                 CALL Z8AC$MAKE_CONST (ETT$$);

  16361 24 000150   200007 631500                    EPPR1   ETT$$,,AUTO
        24 000151   200114 451500                    STP1    INDEX_ETT+8,,AUTO
        24 000152   200114 630500                    EPPR0   INDEX_ETT+8,,AUTO
        24 000153   000005 631400 25                 EPPR1   5
        24 000154   000000 701000 xent               TSX1    Z8AC$MAKE_CONST
        24 000155   000000 011000                    NOP     0
PL6.E3A0      #008=Z8EQ$OPTIMIZED_INITIAL File=Z8EQ.:Z8A6TSI                     SAT 08/09/97 12:45 Page:265

     1375    16362    4                 CALL Z8AF$FORME (%SIZ, LOP$, ETT$$, LOP$);

  16362 24 000156   200005 630500                    EPPR0   LOP$,,AUTO
        24 000157   200117 450500                    STP0    INDEX_ETT+11,,AUTO
        24 000160   200007 631500                    EPPR1   ETT$$,,AUTO
        24 000161   200116 451500                    STP1    INDEX_ETT+10,,AUTO
        24 000162   200005 633500                    EPPR3   LOP$,,AUTO
        24 000163   200115 453500                    STP3    INDEX_ETT+9,,AUTO
        24 000164   000004 236000 25                 LDQ     4
        24 000165   200114 756100                    STQ     INDEX_ETT+8,,AUTO
        24 000166   200114 630500                    EPPR0   INDEX_ETT+8,,AUTO
        24 000167   000002 631400 25                 EPPR1   2
        24 000170   000000 701000 xent               TSX1    Z8AF$FORME
        24 000171   000000 011000                    NOP     0

     1376    16363    4                 CALL Z8AF$FORME (%D96, LOP$, 0, LOP$);

  16363 24 000172   200005 630500                    EPPR0   LOP$,,AUTO
        24 000173   200117 450500                    STP0    INDEX_ETT+11,,AUTO
        24 000174   000010 236000 25                 LDQ     8
        24 000175   200116 756100                    STQ     INDEX_ETT+10,,AUTO
        24 000176   200005 631500                    EPPR1   LOP$,,AUTO
        24 000177   200115 451500                    STP1    INDEX_ETT+9,,AUTO
        24 000200   000011 236000 25                 LDQ     9
        24 000201   200114 756100                    STQ     INDEX_ETT+8,,AUTO
        24 000202   200114 630500                    EPPR0   INDEX_ETT+8,,AUTO
        24 000203   000002 631400 25                 EPPR1   2
        24 000204   000000 701000 xent               TSX1    Z8AF$FORME
        24 000205   000000 011000                    NOP     0

     1377    16364    4               END;

     1378    16365                  %NEW_ILL (@ID   = %MFILL,
     1379    16366                            @LOP  = LOP$,
     1380    16367                            @FILL = INIT_LTS$ -> INIT_LTS.FILL);

PL6.E3A0      #008=Z8EQ$OPTIMIZED_INITIAL File=Z8EQ.:Z8A6TSI                     SAT 08/09/97 12:45 Page:266
  16634 24 000206   000015 236000 25                 LDQ     13
        24 000207   200114 756100                    STQ     INDEX_ETT+8,,AUTO
        24 000210   200005 630500                    EPPR0   LOP$,,AUTO
        24 000211   200121 450500                    STP0    INDEX_ETT+13,,AUTO
        24 000212   200114 631500                    EPPR1   INDEX_ETT+8,,AUTO
        24 000213   200120 451500                    STP1    INDEX_ETT+12,,AUTO
        24 000214   000016 237000 25                 LDAQ    14
        24 000215   200116 757100                    STAQ    INDEX_ETT+10,,AUTO
        24 000216   000020 236000 25                 LDQ     16
        24 000217   200115 756100                    STQ     INDEX_ETT+9,,AUTO
        24 000220   200115 630500                    EPPR0   INDEX_ETT+9,,AUTO
        24 000221   000012 631400 25                 EPPR1   10
        24 000222   000000 701000 xent               TSX1    Z8AN$NEW_ILL1
        24 000223   000000 011000                    NOP     0

  16636 24 000224   200005 236100                    LDQ     LOP$,,AUTO
        24 000225   000000 470400 9                  LDP0    ILL$
        24 000226   000001 756100                    STQ     1,,PR0

  16637 24 000227   200003 471500                    LDP1    @INIT_LTS$,,AUTO
        24 000230   100000 473500                    LDP3    0,,PR1
        24 000231   300000 236100                    LDQ     0,,PR3
        24 000232   000000 552110                    STBQ    0,'10'O,PR0

     1381    16746    3           END;

  16746 24 000233   001520 710000 24                 TRA     s:18256

     1382    16747    2         ELSE
     1383    16748    3           DO; /* Elementary item */

     1384    16749    3             IF INIT_LTS$ -> INIT_LTS.BASE$ -> ETT.ID = %DNA AND

  16749 24 000234   100001 473500                    LDP3    1,,PR1
        24 000235   300000 220100                    LDX0    0,,PR3
        24 000236   000007 100003                    CMPX0   7,DU
        24 000237   000256 601000 24                 TNZ     s:16756
PL6.E3A0      #008=Z8EQ$OPTIMIZED_INITIAL File=Z8EQ.:Z8A6TSI                     SAT 08/09/97 12:45 Page:267
        24 000240   000040 316007                    CANQ    32,DL
        24 000241   000256 600000 24                 TZE     s:16756

     1385    16750    3                 INIT_LTS$ -> INIT_LTS.BCD THEN
     1386    16751    3               CALL Z8AF$FORME (%DAN, LOP$, 0, LOP$);

  16751 24 000242   200005 634500                    EPPR4   LOP$,,AUTO
        24 000243   200117 454500                    STP4    INDEX_ETT+11,,AUTO
        24 000244   000010 236000 25                 LDQ     8
        24 000245   200116 756100                    STQ     INDEX_ETT+10,,AUTO
        24 000246   200005 631500                    EPPR1   LOP$,,AUTO
        24 000247   200115 451500                    STP1    INDEX_ETT+9,,AUTO
        24 000250   000022 236000 25                 LDQ     18
        24 000251   200114 756100                    STQ     INDEX_ETT+8,,AUTO
        24 000252   200114 630500                    EPPR0   INDEX_ETT+8,,AUTO
        24 000253   000002 631400 25                 EPPR1   2
        24 000254   000000 701000 xent               TSX1    Z8AF$FORME
        24 000255   000000 011000                    NOP     0

     1387    16752                  %INIT_LX_ETT_ITEM (@POINTER = "ADDR (DATA_ITEM)",
     1388    16753                                     @ETT$    = LOP$,
     1389    16754                                     @TYPE    = ST$$ -> VARIABLE.TYPE);

  16756 24 000256   000004 220003                    LDX0    4,DU
        24 000257   200024 740100                    STX0    DATA_ITEM,,AUTO

  16757 24 000260   000000 221003                    LDX1    0,DU
        24 000261   200024 441100                    SXL1    DATA_ITEM,,AUTO

  16758 24 000262   200006 470500                    LDP0    ST$$,,AUTO
        24 000263   000002 236100                    LDQ     2,,PR0
        24 000264   000022 772000                    QRL     18
        24 000265   200030 756100                    STQ     DATA_ITEM+4,,AUTO

  16759 24 000266   000000 236000 25                 LDQ     0
        24 000267   200033 756100                    STQ     DATA_ITEM+7,,AUTO

PL6.E3A0      #008=Z8EQ$OPTIMIZED_INITIAL File=Z8EQ.:Z8A6TSI                     SAT 08/09/97 12:45 Page:268
  16760 24 000270   200005 236100                    LDQ     LOP$,,AUTO
        24 000271   200025 756100                    STQ     DATA_ITEM+1,,AUTO

  16761 24 000272   000000 236000 25                 LDQ     0
        24 000273   200026 756100                    STQ     DATA_ITEM+2,,AUTO

  16763 24 000274   000133 235000 xsym               LDA     COMCOM+91
        24 000275   200031 755100                    STA     DATA_ITEM+5,,AUTO

  16764 24 000276   000134 235000 xsym               LDA     COMCOM+92
        24 000277   200032 755100                    STA     DATA_ITEM+6,,AUTO

     1390    16776    3             IF INIT_LTS$ -> INIT_LTS.POINTER THEN

  16776 24 000300   200003 471500                    LDP1    @INIT_LTS$,,AUTO
        24 000301   100000 473500                    LDP3    0,,PR1
        24 000302   300000 236100                    LDQ     0,,PR3
        24 000303   000020 316007                    CANQ    16,DL
        24 000304   000322 600000 24                 TZE     s:16780

     1391    16777    3               CALL Z8E7$POINTER_MOVE (ADDR (DATA_ITEM), ADDR (NIL));

  16777 24 000305   200024 634500                    EPPR4   DATA_ITEM,,AUTO
        24 000306   200114 454500                    STP4    INDEX_ETT+8,,AUTO
        24 000307   000000 236000 25                 LDQ     0
        24 000310   200115 756100                    STQ     INDEX_ETT+9,,AUTO
        24 000311   200115 633500                    EPPR3   INDEX_ETT+9,,AUTO
        24 000312   200117 453500                    STP3    INDEX_ETT+11,,AUTO
        24 000313   200114 635500                    EPPR5   INDEX_ETT+8,,AUTO
        24 000314   200116 455500                    STP5    INDEX_ETT+10,,AUTO
        24 000315   200116 630500                    EPPR0   INDEX_ETT+10,,AUTO
        24 000316   000023 631400 25                 EPPR1   19
        24 000317   000000 701000 xent               TSX1    Z8E7$POINTER_MOVE
        24 000320   000000 011000                    NOP     0
        24 000321   001520 710000 24                 TRA     s:18256

     1392    16778    3             ELSE
PL6.E3A0      #008=Z8EQ$OPTIMIZED_INITIAL File=Z8EQ.:Z8A6TSI                     SAT 08/09/97 12:45 Page:269
     1393    16779    4               DO;

     1394    16780    4                 IF ST$$ -> VARIABLE.B.SUB_CLASS.TYPE = %CLASS_NUMERIC

  16780 24 000322   000003 236100                    LDQ     3,,PR0
        24 000323   000003 376007                    ANQ     3,DL
        24 000324   000001 116007                    CMPQ    1,DL
        24 000325   000331 601000 24                 TNZ     s:16782

     1395    16781    4                   THEN INIT_VAL.SYMBOL = %RSV_WRD_ZEROES;

  16781 24 000326   000761 235007                    LDA     497,DL
        24 000327   000003 755000 22                 STA     INIT_VAL+3
        24 000330   000333 710000 24                 TRA     s:16783

     1396    16782    4                   ELSE INIT_VAL.SYMBOL = %RSV_WRD_SPACES;

  16782 24 000331   000650 235007                    LDA     424,DL
        24 000332   000003 755000 22                 STA     INIT_VAL+3

     1397    16783    4                 INIT_VAL.LINE = ST$$ -> VARIABLE.LINE_NO;

  16783 24 000333   000002 236100                    LDQ     2,,PR0
        24 000334   777777 376007                    ANQ     -1,DL
        24 000335   000005 756000 22                 STQ     INIT_VAL+5

     1398    16784    4                 INIT_VAL.DNT$ = DNT$_FROM_RSWNO (INIT_VAL.SYMBOL);

  16784 24 000336   000000 236005 xsym               LDQ     DNT$_FROM_RSWNO,AL
        24 000337   000002 756000 22                 STQ     INIT_VAL+2

     1399    16785    4                 CALL Z8E7$MOVE (ADDR (DATA_ITEM), INIT_VAL$);

  16785 24 000340   200024 633500                    EPPR3   DATA_ITEM,,AUTO
        24 000341   200114 453500                    STP3    INDEX_ETT+8,,AUTO
        24 000342   000024 236000 25                 LDQ     20
        24 000343   200117 756100                    STQ     INDEX_ETT+11,,AUTO
PL6.E3A0      #008=Z8EQ$OPTIMIZED_INITIAL File=Z8EQ.:Z8A6TSI                     SAT 08/09/97 12:45 Page:270
        24 000344   200114 634500                    EPPR4   INDEX_ETT+8,,AUTO
        24 000345   200116 454500                    STP4    INDEX_ETT+10,,AUTO
        24 000346   200116 630500                    EPPR0   INDEX_ETT+10,,AUTO
        24 000347   000023 631400 25                 EPPR1   19
        24 000350   000000 701000 xent               TSX1    Z8E7$MOVE
        24 000351   000000 011000                    NOP     0

     1400    16786    4               END;

     1401    16787    3           END; /* Elementary item */

     1402    16788    2       END; /* SON_LTS$ = ADDR (NIL) */

  16788 24 000352   001520 710000 24                 TRA     s:18256

     1403    16789    1     ELSE
     1404    16790    2       DO UNTIL SON_LTS$ = ADDR (NIL);

     1405    16791    2         IF SON_LTS$ -> INIT_LTS.DIMS > 1 THEN

  16791 24 000353   200004 470500                    LDP0    SON_LTS$,,AUTO
        24 000354   000007 235100                    LDA     7,,PR0
        24 000355   000002 115007                    CMPA    2,DL
        24 000356   000424 602000 24                 TNC     s:17188

     1406    16792    3           DO;

     1407    16793    3             IF SON_LTS$ -> INIT_LTS.FILLER THEN

  16793 24 000357   000000 236100                    LDQ     0,,PR0
        24 000360   000400 316007                    CANQ    256,DL
        24 000361   000374 600000 24                 TZE     s:16805

     1408    16794    4               DO;

     1409    16795    4                 SAVED_ILS_LIST = O1COM.ILS_LIST;

PL6.E3A0      #008=Z8EQ$OPTIMIZED_INITIAL File=Z8EQ.:Z8A6TSI                     SAT 08/09/97 12:45 Page:271
  16795 24 000362   000100 100400                    MLR     fill='000'O
        24 000363   000016 000040 xsym               ADSC9   O1COM+14                 cn=0,n=32
        24 000364   200014 000040                    ADSC9   SAVED_ILS_LIST,,AUTO     cn=0,n=32

     1410    16796                      %INIT_ILS_LIST (@POINTER = "ADDR (O1COM.ILS_LIST)");

  16798 24 000365   000007 220003                    LDX0    7,DU
        24 000366   000016 740000 xsym               STX0    O1COM+14

  16799 24 000367   000000 236000 25                 LDQ     0
        24 000370   000017 756000 xsym               STQ     O1COM+15

  16800 24 000371   000020 756000 xsym               STQ     O1COM+16

  16801 24 000372   000025 756000 xsym               STQ     O1COM+21

     1411    16804    4               END;

  16804 24 000373   000424 710000 24                 TRA     s:17188

     1412    16805    3             ELSE IF SON_LTS$ -> INIT_LTS.SON$ ~= ADDR (NIL) THEN

  16805 24 000374   000003 236100                    LDQ     3,,PR0
        24 000375   000000 116000 25                 CMPQ    0
        24 000376   000424 600000 24                 TZE     s:17188

     1413    16806                    %NEW_ILL (@ID  = %MVII,
     1414    16807                              @LOP = SON_LTS$ -> INIT_LTS.INDEX$,
     1415    16808                              @ROP = COMCOM.VALUE_0);

  17121 24 000377   000015 236000 25                 LDQ     13
        24 000400   200114 756100                    STQ     INDEX_ETT+8,,AUTO
        24 000401   200004 236100                    LDQ     SON_LTS$,,AUTO
        24 000402   000011 036003                    ADLQ    9,DU
        24 000403   200121 756100                    STQ     INDEX_ETT+13,,AUTO
        24 000404   200114 631500                    EPPR1   INDEX_ETT+8,,AUTO
        24 000405   200120 451500                    STP1    INDEX_ETT+12,,AUTO
PL6.E3A0      #008=Z8EQ$OPTIMIZED_INITIAL File=Z8EQ.:Z8A6TSI                     SAT 08/09/97 12:45 Page:272
        24 000406   000026 237000 25                 LDAQ    22
        24 000407   200116 757100                    STAQ    INDEX_ETT+10,,AUTO
        24 000410   000020 236000 25                 LDQ     16
        24 000411   200115 756100                    STQ     INDEX_ETT+9,,AUTO
        24 000412   200115 630500                    EPPR0   INDEX_ETT+9,,AUTO
        24 000413   000012 631400 25                 EPPR1   10
        24 000414   000000 701000 xent               TSX1    Z8AN$NEW_ILL1
        24 000415   000000 011000                    NOP     0

  17124 24 000416   200004 470500                    LDP0    SON_LTS$,,AUTO
        24 000417   000011 236100                    LDQ     9,,PR0
        24 000420   000000 471400 9                  LDP1    ILL$
        24 000421   100001 756100                    STQ     1,,PR1

  17125 24 000422   000124 236000 xsym               LDQ     COMCOM+84
        24 000423   100002 756100                    STQ     2,,PR1

     1416    17187    3           END;

     1417    17188    2         CALL Z8EQ$OPTIMIZED_INITIAL (SON_LTS$);

  17188 24 000424   200004 630500                    EPPR0   SON_LTS$,,AUTO
        24 000425   200114 450500                    STP0    INDEX_ETT+8,,AUTO
        24 000426   200114 630500                    EPPR0   INDEX_ETT+8,,AUTO
        24 000427   000005 631400 25                 EPPR1   5
        24 000430   000000 701000 24                 TSX1    s:33
        24 000431   000000 011000                    NOP     0

     1418    17189    2         IF SON_LTS$ -> INIT_LTS.DIMS > 1 THEN

  17189 24 000432   200004 470500                    LDP0    SON_LTS$,,AUTO
        24 000433   000007 235100                    LDA     7,,PR0
        24 000434   000002 115007                    CMPA    2,DL
        24 000435   001513 602000 24                 TNC     s:18254

     1419    17190    3           DO;

PL6.E3A0      #008=Z8EQ$OPTIMIZED_INITIAL File=Z8EQ.:Z8A6TSI                     SAT 08/09/97 12:45 Page:273
     1420    17191    3             IF NOT SON_LTS$ -> INIT_LTS.FILLER THEN

  17191 24 000436   000000 236100                    LDQ     0,,PR0
        24 000437   000400 316007                    CANQ    256,DL
        24 000440   000544 601000 24                 TNZ     s:17220

     1421    17192    4               DO;

     1422    17193                      %FISH (TRIAD = SON_LTS$ -> INIT_LTS.BASE$, RTN = ST$$);

  17195 24 000441   000001 236100                    LDQ     1,,PR0
        24 000442   200006 756100                    STQ     ST$$,,AUTO

  17196 24 000443   200006 471500                    LDP1    ST$$,,AUTO
        24 000444   100000 220100                    LDX0    0,,PR1
        24 000445   000751 100003                    CMPX0   489,DU
        24 000446   000456 603000 24                 TRC     s:17201

  17197 24 000447   200006 470500                    LDP0    ST$$,,AUTO
        24 000450   000001 236100                    LDQ     1,,PR0
        24 000451   200006 756100                    STQ     ST$$,,AUTO

  17198 24 000452   200006 470500                    LDP0    ST$$,,AUTO
        24 000453   000000 220100                    LDX0    0,,PR0
        24 000454   000751 100003                    CMPX0   489,DU
        24 000455   000447 602000 24                 TNC     s:17197

     1423    17201    4                 IF SON_LTS$ -> INIT_LTS.SUBSCR$ = ADDR (NIL) THEN

  17201 24 000456   200004 470500                    LDP0    SON_LTS$,,AUTO
        24 000457   000010 236100                    LDQ     8,,PR0
        24 000460   000000 116000 25                 CMPQ    0
        24 000461   000504 601000 24                 TNZ     s:17211

     1424    17202    5                   DO;

     1425    17203    5                     IF SON_LTS$ -> INIT_LTS.OFF ~= 0
PL6.E3A0      #008=Z8EQ$OPTIMIZED_INITIAL File=Z8EQ.:Z8A6TSI                     SAT 08/09/97 12:45 Page:274

  17203 24 000462   000002 235100                    LDA     2,,PR0
        24 000463   000501 600000 24                 TZE     s:17207

     1426    17204    5                       THEN CALL Z8AF$NEW_OFF (SON_LTS$ -> INIT_LTS.BASE$,

  17204 24 000464   200007 631500                    EPPR1   ETT$$,,AUTO
        24 000465   200116 451500                    STP1    INDEX_ETT+10,,AUTO
        24 000466   200004 236100                    LDQ     SON_LTS$,,AUTO
        24 000467   000002 036003                    ADLQ    2,DU
        24 000470   200115 756100                    STQ     INDEX_ETT+9,,AUTO
        24 000471   200004 236100                    LDQ     SON_LTS$,,AUTO
        24 000472   000001 036003                    ADLQ    1,DU
        24 000473   200114 756100                    STQ     INDEX_ETT+8,,AUTO
        24 000474   200114 630500                    EPPR0   INDEX_ETT+8,,AUTO
        24 000475   000001 631400 25                 EPPR1   1
        24 000476   000000 701000 xent               TSX1    Z8AF$NEW_OFF
        24 000477   000000 011000                    NOP     0
        24 000500   000544 710000 24                 TRA     s:17220

     1427    17205    5                                               SON_LTS$ -> INIT_LTS.OFF,
     1428    17206    5                                               ETT$$);
     1429    17207    5                       ELSE ETT$$ = SON_LTS$ -> INIT_LTS.BASE$;

  17207 24 000501   000001 236100                    LDQ     1,,PR0
        24 000502   200007 756100                    STQ     ETT$$,,AUTO

     1430    17208    5                   END;

  17208 24 000503   000544 710000 24                 TRA     s:17220

     1431    17209    4                 ELSE
     1432    17210    5                   DO;

     1433    17211    5                     ETT$$ = SON_LTS$ -> INIT_LTS.SUBSCR$;

  17211 24 000504   200007 756100                    STQ     ETT$$,,AUTO
PL6.E3A0      #008=Z8EQ$OPTIMIZED_INITIAL File=Z8EQ.:Z8A6TSI                     SAT 08/09/97 12:45 Page:275

     1434    17212    5                     CALL Z8AF$NEW_OFF_AND_SSOP_NO_SBCHK (SON_LTS$ -> INIT_LTS.BASE$,

  17212 24 000505   200007 631500                    EPPR1   ETT$$,,AUTO
        24 000506   200117 451500                    STP1    INDEX_ETT+11,,AUTO
        24 000507   200007 633500                    EPPR3   ETT$$,,AUTO
        24 000510   200116 453500                    STP3    INDEX_ETT+10,,AUTO
        24 000511   200004 236100                    LDQ     SON_LTS$,,AUTO
        24 000512   000002 036003                    ADLQ    2,DU
        24 000513   200115 756100                    STQ     INDEX_ETT+9,,AUTO
        24 000514   200004 236100                    LDQ     SON_LTS$,,AUTO
        24 000515   000001 036003                    ADLQ    1,DU
        24 000516   200114 756100                    STQ     INDEX_ETT+8,,AUTO
        24 000517   200114 630500                    EPPR0   INDEX_ETT+8,,AUTO
        24 000520   000002 631400 25                 EPPR1   2
        24 000521   000000 701000 xent               TSX1    Z8AF$NEW_OFF_AND_SSOP_NO_SBCHK
        24 000522   000000 011000                    NOP     0

     1435    17213    5                                                          SON_LTS$ -> INIT_LTS.OFF,
     1436    17214    5                                                          ETT$$,
     1437    17215    5                                                          ETT$$);
     1438    17216    5                     IF SON_LTS$ -> INIT_LTS.BASE$ -> ETT.ID = %SIZ THEN

  17216 24 000523   200004 470500                    LDP0    SON_LTS$,,AUTO
        24 000524   000001 471500                    LDP1    1,,PR0
        24 000525   100000 220100                    LDX0    0,,PR1
        24 000526   000004 100003                    CMPX0   4,DU
        24 000527   000544 601000 24                 TNZ     s:17220

     1439    17217    5                      CALL Z8AF$FORME (%SIZ, ETT$$, SON_LTS$ -> INIT_LTS.BASE$ -> ETT.
             17217                                ROP, ETT$$);

  17217 24 000530   200007 633500                    EPPR3   ETT$$,,AUTO
        24 000531   200117 453500                    STP3    INDEX_ETT+11,,AUTO
        24 000532   100002 634500                    EPPR4   2,,PR1
        24 000533   200116 454500                    STP4    INDEX_ETT+10,,AUTO
        24 000534   200007 631500                    EPPR1   ETT$$,,AUTO
PL6.E3A0      #008=Z8EQ$OPTIMIZED_INITIAL File=Z8EQ.:Z8A6TSI                     SAT 08/09/97 12:45 Page:276
        24 000535   200115 451500                    STP1    INDEX_ETT+9,,AUTO
        24 000536   000004 236000 25                 LDQ     4
        24 000537   200114 756100                    STQ     INDEX_ETT+8,,AUTO
        24 000540   200114 630500                    EPPR0   INDEX_ETT+8,,AUTO
        24 000541   000002 631400 25                 EPPR1   2
        24 000542   000000 701000 xent               TSX1    Z8AF$FORME
        24 000543   000000 011000                    NOP     0

     1440    17218    5                   END;

     1441    17219    4               END;

     1442    17220    3             IF SON_LTS$ -> INIT_LTS.DIMS = 2 AND NOT SON_LTS$ -> INIT_LTS.FILLER THEN

  17220 24 000544   200004 470500                    LDP0    SON_LTS$,,AUTO
        24 000545   000007 235100                    LDA     7,,PR0
        24 000546   000002 115007                    CMPA    2,DL
        24 000547   001037 601000 24                 TNZ     s:17688
        24 000550   000000 236100                    LDQ     0,,PR0
        24 000551   000400 316007                    CANQ    256,DL
        24 000552   001037 601000 24                 TNZ     s:17688

     1443    17221    4               DO;

     1444    17222    4                 OFF = SON_LTS$ -> INIT_LTS.SPAN + SON_LTS$ -> INIT_LTS.OFF;

  17222 24 000553   000006 236100                    LDQ     6,,PR0
        24 000554   000002 036100                    ADLQ    2,,PR0
        24 000555   200012 756100                    STQ     OFF,,AUTO

     1445    17223    4                 IF OFF >= %#128K THEN

  17223 24 000556   400000 116007                    CMPQ    -131072,DL
        24 000557   000611 604000 24                 TMI     s:17235

     1446    17224    5                   DO;

PL6.E3A0      #008=Z8EQ$OPTIMIZED_INITIAL File=Z8EQ.:Z8A6TSI                     SAT 08/09/97 12:45 Page:277
     1447    17225    5                     MKCN.CON = OFF;

  17225 24 000560   000000 756000 13                 STQ     MKCN

     1448    17226    5                     CALL Z8AC$MAKE_CONST (SUBSCR$);

  17226 24 000561   200010 631500                    EPPR1   SUBSCR$,,AUTO
        24 000562   200114 451500                    STP1    INDEX_ETT+8,,AUTO
        24 000563   200114 630500                    EPPR0   INDEX_ETT+8,,AUTO
        24 000564   000005 631400 25                 EPPR1   5
        24 000565   000000 701000 xent               TSX1    Z8AC$MAKE_CONST
        24 000566   000000 011000                    NOP     0

     1449    17227    5                     IF SON_LTS$ -> INIT_LTS.SUBSCR$ ~= ADDR (NIL) THEN

  17227 24 000567   200004 470500                    LDP0    SON_LTS$,,AUTO
        24 000570   000010 236100                    LDQ     8,,PR0
        24 000571   000000 116000 25                 CMPQ    0
        24 000572   000607 600000 24                 TZE     s:17232

     1450    17228    5                       CALL Z8AF$FORME (%ADI,

  17228 24 000573   200010 631500                    EPPR1   SUBSCR$,,AUTO
        24 000574   200117 451500                    STP1    INDEX_ETT+11,,AUTO
        24 000575   200010 633500                    EPPR3   SUBSCR$,,AUTO
        24 000576   200116 453500                    STP3    INDEX_ETT+10,,AUTO
        24 000577   200004 236100                    LDQ     SON_LTS$,,AUTO
        24 000600   000010 036003                    ADLQ    8,DU
        24 000601   000031 235000 25                 LDA     25
        24 000602   200114 757100                    STAQ    INDEX_ETT+8,,AUTO
        24 000603   200114 630500                    EPPR0   INDEX_ETT+8,,AUTO
        24 000604   000002 631400 25                 EPPR1   2
        24 000605   000000 701000 xent               TSX1    Z8AF$FORME
        24 000606   000000 011000                    NOP     0

     1451    17229    5                                        SON_LTS$ -> INIT_LTS.SUBSCR$,
     1452    17230    5                                        SUBSCR$,
PL6.E3A0      #008=Z8EQ$OPTIMIZED_INITIAL File=Z8EQ.:Z8A6TSI                     SAT 08/09/97 12:45 Page:278
     1453    17231    5                                        SUBSCR$);
     1454    17232    5                     OFF = 0;

  17232 24 000607   200012 450100                    STZ     OFF,,AUTO

     1455    17233    5                   END;

  17233 24 000610   000613 710000 24                 TRA     s:17236

     1456    17234    4                 ELSE
     1457    17235    4                   SUBSCR$ = SON_LTS$ -> INIT_LTS.SUBSCR$;

  17235 24 000611   000010 236100                    LDQ     8,,PR0
        24 000612   200010 756100                    STQ     SUBSCR$,,AUTO

     1458    17236    4                 IF SUBSCR$ = ADDR (NIL) THEN

  17236 24 000613   200010 236100                    LDQ     SUBSCR$,,AUTO
        24 000614   000000 116000 25                 CMPQ    0
        24 000615   000632 601000 24                 TNZ     s:17242

     1459    17237    4                   CALL Z8AF$NEW_OFF (SON_LTS$ -> INIT_LTS.BASE$,

  17237 24 000616   200005 630500                    EPPR0   LOP$,,AUTO
        24 000617   200116 450500                    STP0    INDEX_ETT+10,,AUTO
        24 000620   200012 631500                    EPPR1   OFF,,AUTO
        24 000621   200115 451500                    STP1    INDEX_ETT+9,,AUTO
        24 000622   200004 236100                    LDQ     SON_LTS$,,AUTO
        24 000623   000001 036003                    ADLQ    1,DU
        24 000624   200114 756100                    STQ     INDEX_ETT+8,,AUTO
        24 000625   200114 630500                    EPPR0   INDEX_ETT+8,,AUTO
        24 000626   000001 631400 25                 EPPR1   1
        24 000627   000000 701000 xent               TSX1    Z8AF$NEW_OFF
        24 000630   000000 011000                    NOP     0
        24 000631   000670 710000 24                 TRA     s:17249

     1460    17238    4                                      OFF,
PL6.E3A0      #008=Z8EQ$OPTIMIZED_INITIAL File=Z8EQ.:Z8A6TSI                     SAT 08/09/97 12:45 Page:279
     1461    17239    4                                      LOP$);
     1462    17240    4                 ELSE
     1463    17241    5                   DO;

     1464    17242    5                     CALL Z8AF$NEW_OFF_AND_SSOP_NO_SBCHK (SON_LTS$ -> INIT_LTS.BASE$,

  17242 24 000632   200005 630500                    EPPR0   LOP$,,AUTO
        24 000633   200117 450500                    STP0    INDEX_ETT+11,,AUTO
        24 000634   200010 631500                    EPPR1   SUBSCR$,,AUTO
        24 000635   200116 451500                    STP1    INDEX_ETT+10,,AUTO
        24 000636   200012 633500                    EPPR3   OFF,,AUTO
        24 000637   200115 453500                    STP3    INDEX_ETT+9,,AUTO
        24 000640   200004 236100                    LDQ     SON_LTS$,,AUTO
        24 000641   000001 036003                    ADLQ    1,DU
        24 000642   200114 756100                    STQ     INDEX_ETT+8,,AUTO
        24 000643   200114 630500                    EPPR0   INDEX_ETT+8,,AUTO
        24 000644   000002 631400 25                 EPPR1   2
        24 000645   000000 701000 xent               TSX1    Z8AF$NEW_OFF_AND_SSOP_NO_SBCHK
        24 000646   000000 011000                    NOP     0

     1465    17243    5                                                          OFF,
     1466    17244    5                                                          SUBSCR$,
     1467    17245    5                                                          LOP$);
     1468    17246    5                     IF SON_LTS$ -> INIT_LTS.BASE$ -> ETT.ID = %SIZ THEN

  17246 24 000647   200004 470500                    LDP0    SON_LTS$,,AUTO
        24 000650   000001 471500                    LDP1    1,,PR0
        24 000651   100000 220100                    LDX0    0,,PR1
        24 000652   000004 100003                    CMPX0   4,DU
        24 000653   000670 601000 24                 TNZ     s:17249

     1469    17247    5                       CALL Z8AF$FORME (%SIZ, LOP$, SON_LTS$ -> INIT_LTS.BASE$ -> ETT.
             17247                                ROP, LOP$);

  17247 24 000654   200005 633500                    EPPR3   LOP$,,AUTO
        24 000655   200117 453500                    STP3    INDEX_ETT+11,,AUTO
        24 000656   100002 634500                    EPPR4   2,,PR1
PL6.E3A0      #008=Z8EQ$OPTIMIZED_INITIAL File=Z8EQ.:Z8A6TSI                     SAT 08/09/97 12:45 Page:280
        24 000657   200116 454500                    STP4    INDEX_ETT+10,,AUTO
        24 000660   200005 631500                    EPPR1   LOP$,,AUTO
        24 000661   200115 451500                    STP1    INDEX_ETT+9,,AUTO
        24 000662   000004 236000 25                 LDQ     4
        24 000663   200114 756100                    STQ     INDEX_ETT+8,,AUTO
        24 000664   200114 630500                    EPPR0   INDEX_ETT+8,,AUTO
        24 000665   000002 631400 25                 EPPR1   2
        24 000666   000000 701000 xent               TSX1    Z8AF$FORME
        24 000667   000000 011000                    NOP     0

     1470    17248    5                   END;

     1471    17249    5                 DO CASE (ST$$ -> VARIABLE.TYPE);

  17249 24 000670   200006 470500                    LDP0    ST$$,,AUTO
        24 000671   000002 236100                    LDQ     2,,PR0
        24 000672   000022 772000                    QRL     18
        24 000673   000004 136007                    SBLQ    4,DL
        24 000674   000017 116007                    CMPQ    15,DL
        24 000675   000677 602006 24                 TNC     s:17249+7,QL
        24 000676   001013 710000 24                 TRA     s:17618
        24 000677   000716 710000 24                 TRA     s:17255
        24 000700   000716 710000 24                 TRA     s:17255
        24 000701   001013 710000 24                 TRA     s:17618
        24 000702   001013 710000 24                 TRA     s:17618
        24 000703   001013 710000 24                 TRA     s:17618
        24 000704   001013 710000 24                 TRA     s:17618
        24 000705   001013 710000 24                 TRA     s:17618
        24 000706   001013 710000 24                 TRA     s:17618
        24 000707   001013 710000 24                 TRA     s:17618
        24 000710   001013 710000 24                 TRA     s:17618
        24 000711   001013 710000 24                 TRA     s:17618
        24 000712   001013 710000 24                 TRA     s:17618
        24 000713   001013 710000 24                 TRA     s:17618
        24 000714   001013 710000 24                 TRA     s:17618
        24 000715   000716 710000 24                 TRA     s:17255

PL6.E3A0      #008=Z8EQ$OPTIMIZED_INITIAL File=Z8EQ.:Z8A6TSI                     SAT 08/09/97 12:45 Page:281
     1472    17250    5                   CASE (%TYP, %TYR, %TYQ);

     1473    17251                          %INIT_LX_ETT_ITEM (@POINTER = "ADDR (DATA_ITEM)",
     1474    17252                                             @ETT$    = LOP$,
     1475    17253                                             @TYPE    = ST$$ -> VARIABLE.TYPE);

  17255 24 000716   000004 220003                    LDX0    4,DU
        24 000717   200024 740100                    STX0    DATA_ITEM,,AUTO

  17256 24 000720   000000 221003                    LDX1    0,DU
        24 000721   200024 441100                    SXL1    DATA_ITEM,,AUTO

  17257 24 000722   000002 236100                    LDQ     2,,PR0
        24 000723   000022 772000                    QRL     18
        24 000724   200030 756100                    STQ     DATA_ITEM+4,,AUTO

  17258 24 000725   000000 236000 25                 LDQ     0
        24 000726   200033 756100                    STQ     DATA_ITEM+7,,AUTO

  17259 24 000727   200005 236100                    LDQ     LOP$,,AUTO
        24 000730   200025 756100                    STQ     DATA_ITEM+1,,AUTO

  17260 24 000731   000000 236000 25                 LDQ     0
        24 000732   200026 756100                    STQ     DATA_ITEM+2,,AUTO

  17262 24 000733   000133 235000 xsym               LDA     COMCOM+91
        24 000734   200031 755100                    STA     DATA_ITEM+5,,AUTO

  17263 24 000735   000134 235000 xsym               LDA     COMCOM+92
        24 000736   200032 755100                    STA     DATA_ITEM+6,,AUTO

     1476    17275                          %INIT_LX_ETT_ITEM (@POINTER = "ADDR (ROP_ETT)",
     1477    17276                                             @ETT$    = ETT$$,
     1478    17277                                             @TYPE    = ST$$ -> VARIABLE.TYPE);

  17279 24 000737   200034 740100                    STX0    ROP_ETT,,AUTO

PL6.E3A0      #008=Z8EQ$OPTIMIZED_INITIAL File=Z8EQ.:Z8A6TSI                     SAT 08/09/97 12:45 Page:282
  17280 24 000740   200034 441100                    SXL1    ROP_ETT,,AUTO

  17281 24 000741   000002 236100                    LDQ     2,,PR0
        24 000742   000022 772000                    QRL     18
        24 000743   200040 756100                    STQ     ROP_ETT+4,,AUTO

  17282 24 000744   000000 236000 25                 LDQ     0
        24 000745   200043 756100                    STQ     ROP_ETT+7,,AUTO

  17283 24 000746   200007 236100                    LDQ     ETT$$,,AUTO
        24 000747   200035 756100                    STQ     ROP_ETT+1,,AUTO

  17284 24 000750   000000 236000 25                 LDQ     0
        24 000751   200036 756100                    STQ     ROP_ETT+2,,AUTO

  17286 24 000752   000133 235000 xsym               LDA     COMCOM+91
        24 000753   200041 755100                    STA     ROP_ETT+5,,AUTO

  17287 24 000754   000134 235000 xsym               LDA     COMCOM+92
        24 000755   200042 755100                    STA     ROP_ETT+6,,AUTO

     1479    17299    5                     IF ST$$ -> VARIABLE.TYPE = %TYP

  17299 24 000756   000002 222100                    LDX2    2,,PR0
        24 000757   000022 102003                    CMPX2   18,DU
        24 000760   000776 601000 24                 TNZ     s:17301

     1480    17300    5                       THEN CALL Z8E7$POINTER_MOVE (ADDR (DATA_ITEM), ADDR (ROP_ETT));

  17300 24 000761   200024 631500                    EPPR1   DATA_ITEM,,AUTO
        24 000762   200114 451500                    STP1    INDEX_ETT+8,,AUTO
        24 000763   200034 633500                    EPPR3   ROP_ETT,,AUTO
        24 000764   200115 453500                    STP3    INDEX_ETT+9,,AUTO
        24 000765   200115 634500                    EPPR4   INDEX_ETT+9,,AUTO
        24 000766   200117 454500                    STP4    INDEX_ETT+11,,AUTO
        24 000767   200114 635500                    EPPR5   INDEX_ETT+8,,AUTO
        24 000770   200116 455500                    STP5    INDEX_ETT+10,,AUTO
PL6.E3A0      #008=Z8EQ$OPTIMIZED_INITIAL File=Z8EQ.:Z8A6TSI                     SAT 08/09/97 12:45 Page:283
        24 000771   200116 630500                    EPPR0   INDEX_ETT+10,,AUTO
        24 000772   000023 631400 25                 EPPR1   19
        24 000773   000000 701000 xent               TSX1    Z8E7$POINTER_MOVE
        24 000774   000000 011000                    NOP     0
        24 000775   001513 710000 24                 TRA     s:18254

     1481    17301    5                       ELSE CALL Z8E7$MOVE (ADDR (DATA_ITEM), ADDR (ROP_ETT));

  17301 24 000776   200024 631500                    EPPR1   DATA_ITEM,,AUTO
        24 000777   200114 451500                    STP1    INDEX_ETT+8,,AUTO
        24 001000   200034 633500                    EPPR3   ROP_ETT,,AUTO
        24 001001   200115 453500                    STP3    INDEX_ETT+9,,AUTO
        24 001002   200115 634500                    EPPR4   INDEX_ETT+9,,AUTO
        24 001003   200117 454500                    STP4    INDEX_ETT+11,,AUTO
        24 001004   200114 635500                    EPPR5   INDEX_ETT+8,,AUTO
        24 001005   200116 455500                    STP5    INDEX_ETT+10,,AUTO
        24 001006   200116 630500                    EPPR0   INDEX_ETT+10,,AUTO
        24 001007   000023 631400 25                 EPPR1   19
        24 001010   000000 701000 xent               TSX1    Z8E7$MOVE
        24 001011   000000 011000                    NOP     0
        24 001012   001513 710000 24                 TRA     s:18254

     1482    17302    5                   CASE (ELSE);

     1483    17303                          %NEW_ILL (@ID  = %MVAN,
     1484    17304                                    @LOP = LOP$,
     1485    17305                                    @ROP = ETT$$);

  17618 24 001013   000015 236000 25                 LDQ     13
        24 001014   200114 756100                    STQ     INDEX_ETT+8,,AUTO
        24 001015   200005 631500                    EPPR1   LOP$,,AUTO
        24 001016   200121 451500                    STP1    INDEX_ETT+13,,AUTO
        24 001017   200114 633500                    EPPR3   INDEX_ETT+8,,AUTO
        24 001020   200120 453500                    STP3    INDEX_ETT+12,,AUTO
        24 001021   000034 237000 25                 LDAQ    28
        24 001022   200116 757100                    STAQ    INDEX_ETT+10,,AUTO
        24 001023   000020 236000 25                 LDQ     16
PL6.E3A0      #008=Z8EQ$OPTIMIZED_INITIAL File=Z8EQ.:Z8A6TSI                     SAT 08/09/97 12:45 Page:284
        24 001024   200115 756100                    STQ     INDEX_ETT+9,,AUTO
        24 001025   200115 630500                    EPPR0   INDEX_ETT+9,,AUTO
        24 001026   000012 631400 25                 EPPR1   10
        24 001027   000000 701000 xent               TSX1    Z8AN$NEW_ILL1
        24 001030   000000 011000                    NOP     0

  17621 24 001031   200005 236100                    LDQ     LOP$,,AUTO
        24 001032   000000 470400 9                  LDP0    ILL$
        24 001033   000001 756100                    STQ     1,,PR0

  17622 24 001034   200007 236100                    LDQ     ETT$$,,AUTO
        24 001035   000002 756100                    STQ     2,,PR0

     1486    17684    5                 END;

     1487    17685    4               END;

  17685 24 001036   001513 710000 24                 TRA     s:18254

     1488    17686    3             ELSE
     1489    17687    4               DO;

     1490    17688    4                 IF NOT SON_LTS$ -> INIT_LTS.FILLER THEN

  17688 24 001037   000000 236100                    LDQ     0,,PR0
        24 001040   000400 316007                    CANQ    256,DL
        24 001041   001335 601000 24                 TNZ     s:18159

     1491    17689    5                   DO;

     1492    17690    5                     SAVED_ILS_LIST = O1COM.ILS_LIST;

  17690 24 001042   000100 100400                    MLR     fill='000'O
        24 001043   000016 000040 xsym               ADSC9   O1COM+14                 cn=0,n=32
        24 001044   200014 000040                    ADSC9   SAVED_ILS_LIST,,AUTO     cn=0,n=32

     1493    17691                          %INIT_ILS_LIST (@POINTER = "ADDR (O1COM.ILS_LIST)");
PL6.E3A0      #008=Z8EQ$OPTIMIZED_INITIAL File=Z8EQ.:Z8A6TSI                     SAT 08/09/97 12:45 Page:285

  17693 24 001045   000007 220003                    LDX0    7,DU
        24 001046   000016 740000 xsym               STX0    O1COM+14

  17694 24 001047   000000 236000 25                 LDQ     0
        24 001050   000017 756000 xsym               STQ     O1COM+15

  17695 24 001051   000020 756000 xsym               STQ     O1COM+16

  17696 24 001052   000025 756000 xsym               STQ     O1COM+21

     1494    17699    5                     SUBSCR$ = SON_LTS$ -> INIT_LTS.SUBSCR$;

  17699 24 001053   000010 236100                    LDQ     8,,PR0
        24 001054   200010 756100                    STQ     SUBSCR$,,AUTO

     1495    17700    5                     IF SUBSCR$ ~= ADDR (NIL) THEN

  17700 24 001055   000000 116000 25                 CMPQ    0
        24 001056   001112 600000 24                 TZE     s:17709

     1496    17701    6                       DO;

     1497    17702    6                         IF SUBSCR$ -> ETT.ID = %MPI2 AND NOT ST$$ -> VARIABLE.B.DIGIT
             17702                                  THEN

  17702 24 001057   200010 471500                    LDP1    SUBSCR$,,AUTO
        24 001060   100000 221100                    LDX1    0,,PR1
        24 001061   000052 101003                    CMPX1   42,DU
        24 001062   001071 601000 24                 TNZ     s:17705
        24 001063   200006 473500                    LDP3    ST$$,,AUTO
        24 001064   300003 236100                    LDQ     3,,PR3
        24 001065   000200 316007                    CANQ    128,DL
        24 001066   001071 601000 24                 TNZ     s:17705

     1498    17703    6                           SUBSCR$ = SUBSCR$ -> ETT.LOP;

PL6.E3A0      #008=Z8EQ$OPTIMIZED_INITIAL File=Z8EQ.:Z8A6TSI                     SAT 08/09/97 12:45 Page:286
  17703 24 001067   100001 236100                    LDQ     1,,PR1
        24 001070   200010 756100                    STQ     SUBSCR$,,AUTO

     1499    17704                                /* If COMP-3 or COMP-5, delete the MPI2 for the MVAN */
     1500    17705    6                         IF SON_LTS$ -> INIT_LTS.INDEX$ ~= ADDR (NIL) THEN

  17705 24 001071   000011 236100                    LDQ     9,,PR0
        24 001072   000000 116000 25                 CMPQ    0
        24 001073   001114 600000 24                 TZE     s:17710

     1501    17706    6                          CALL Z8AF$FORME (%ADI, SUBSCR$, SON_LTS$ -> INIT_LTS.INDEX$,
             17706                                    SUBSCR$);

  17706 24 001074   200010 631500                    EPPR1   SUBSCR$,,AUTO
        24 001075   200117 451500                    STP1    INDEX_ETT+11,,AUTO
        24 001076   200004 236100                    LDQ     SON_LTS$,,AUTO
        24 001077   000011 036003                    ADLQ    9,DU
        24 001100   200116 756100                    STQ     INDEX_ETT+10,,AUTO
        24 001101   200010 633500                    EPPR3   SUBSCR$,,AUTO
        24 001102   200115 453500                    STP3    INDEX_ETT+9,,AUTO
        24 001103   000031 236000 25                 LDQ     25
        24 001104   200114 756100                    STQ     INDEX_ETT+8,,AUTO
        24 001105   200114 630500                    EPPR0   INDEX_ETT+8,,AUTO
        24 001106   000002 631400 25                 EPPR1   2
        24 001107   000000 701000 xent               TSX1    Z8AF$FORME
        24 001110   000000 011000                    NOP     0

     1502    17707    6                       END;

  17707 24 001111   001114 710000 24                 TRA     s:17710

     1503    17708    5                     ELSE
     1504    17709    5                       SUBSCR$ = SON_LTS$ -> INIT_LTS.INDEX$;

  17709 24 001112   000011 236100                    LDQ     9,,PR0
        24 001113   200010 756100                    STQ     SUBSCR$,,AUTO

PL6.E3A0      #008=Z8EQ$OPTIMIZED_INITIAL File=Z8EQ.:Z8A6TSI                     SAT 08/09/97 12:45 Page:287
     1505    17710    5                     CALL Z8AF$NEW_OFF_AND_SSOP_NO_SBCHK (SON_LTS$ -> INIT_LTS.BASE$,

  17710 24 001114   200005 630500                    EPPR0   LOP$,,AUTO
        24 001115   200117 450500                    STP0    INDEX_ETT+11,,AUTO
        24 001116   200010 631500                    EPPR1   SUBSCR$,,AUTO
        24 001117   200116 451500                    STP1    INDEX_ETT+10,,AUTO
        24 001120   200004 236100                    LDQ     SON_LTS$,,AUTO
        24 001121   000002 036003                    ADLQ    2,DU
        24 001122   200115 756100                    STQ     INDEX_ETT+9,,AUTO
        24 001123   200004 236100                    LDQ     SON_LTS$,,AUTO
        24 001124   000001 036003                    ADLQ    1,DU
        24 001125   200114 756100                    STQ     INDEX_ETT+8,,AUTO
        24 001126   200114 630500                    EPPR0   INDEX_ETT+8,,AUTO
        24 001127   000002 631400 25                 EPPR1   2
        24 001130   000000 701000 xent               TSX1    Z8AF$NEW_OFF_AND_SSOP_NO_SBCHK
        24 001131   000000 011000                    NOP     0

     1506    17711    5                                                          SON_LTS$ -> INIT_LTS.OFF,
     1507    17712    5                                                          SUBSCR$,
     1508    17713    5                                                          LOP$);
     1509    17714    5                     IF SON_LTS$ -> INIT_LTS.BASE$ -> ETT.ID = %SIZ THEN

  17714 24 001132   200004 470500                    LDP0    SON_LTS$,,AUTO
        24 001133   000001 471500                    LDP1    1,,PR0
        24 001134   100000 220100                    LDX0    0,,PR1
        24 001135   000004 100003                    CMPX0   4,DU
        24 001136   001153 601000 24                 TNZ     s:17716

     1510    17715    5                       CALL Z8AF$FORME (%SIZ, LOP$, SON_LTS$ -> INIT_LTS.BASE$ -> ETT.
             17715                                ROP, LOP$);

  17715 24 001137   200005 633500                    EPPR3   LOP$,,AUTO
        24 001140   200117 453500                    STP3    INDEX_ETT+11,,AUTO
        24 001141   100002 634500                    EPPR4   2,,PR1
        24 001142   200116 454500                    STP4    INDEX_ETT+10,,AUTO
        24 001143   200005 631500                    EPPR1   LOP$,,AUTO
        24 001144   200115 451500                    STP1    INDEX_ETT+9,,AUTO
PL6.E3A0      #008=Z8EQ$OPTIMIZED_INITIAL File=Z8EQ.:Z8A6TSI                     SAT 08/09/97 12:45 Page:288
        24 001145   000004 236000 25                 LDQ     4
        24 001146   200114 756100                    STQ     INDEX_ETT+8,,AUTO
        24 001147   200114 630500                    EPPR0   INDEX_ETT+8,,AUTO
        24 001150   000002 631400 25                 EPPR1   2
        24 001151   000000 701000 xent               TSX1    Z8AF$FORME
        24 001152   000000 011000                    NOP     0

     1511    17716    6                     DO CASE (ST$$ -> VARIABLE.TYPE);

  17716 24 001153   200006 470500                    LDP0    ST$$,,AUTO
        24 001154   000002 236100                    LDQ     2,,PR0
        24 001155   000022 772000                    QRL     18
        24 001156   000004 136007                    SBLQ    4,DL
        24 001157   000017 116007                    CMPQ    15,DL
        24 001160   001162 602006 24                 TNC     s:17716+7,QL
        24 001161   001276 710000 24                 TRA     s:18085
        24 001162   001201 710000 24                 TRA     s:17722
        24 001163   001201 710000 24                 TRA     s:17722
        24 001164   001276 710000 24                 TRA     s:18085
        24 001165   001276 710000 24                 TRA     s:18085
        24 001166   001276 710000 24                 TRA     s:18085
        24 001167   001276 710000 24                 TRA     s:18085
        24 001170   001276 710000 24                 TRA     s:18085
        24 001171   001276 710000 24                 TRA     s:18085
        24 001172   001276 710000 24                 TRA     s:18085
        24 001173   001276 710000 24                 TRA     s:18085
        24 001174   001276 710000 24                 TRA     s:18085
        24 001175   001276 710000 24                 TRA     s:18085
        24 001176   001276 710000 24                 TRA     s:18085
        24 001177   001276 710000 24                 TRA     s:18085
        24 001200   001201 710000 24                 TRA     s:17722

     1512    17717    6                       CASE (%TYP, %TYR, %TYQ);

     1513    17718                              %INIT_LX_ETT_ITEM (@POINTER = "ADDR (DATA_ITEM)",
     1514    17719                                                 @ETT$    = LOP$,
     1515    17720                                                 @TYPE    = ST$$ -> VARIABLE.TYPE);
PL6.E3A0      #008=Z8EQ$OPTIMIZED_INITIAL File=Z8EQ.:Z8A6TSI                     SAT 08/09/97 12:45 Page:289

  17722 24 001201   000004 220003                    LDX0    4,DU
        24 001202   200024 740100                    STX0    DATA_ITEM,,AUTO

  17723 24 001203   000000 221003                    LDX1    0,DU
        24 001204   200024 441100                    SXL1    DATA_ITEM,,AUTO

  17724 24 001205   000002 236100                    LDQ     2,,PR0
        24 001206   000022 772000                    QRL     18
        24 001207   200030 756100                    STQ     DATA_ITEM+4,,AUTO

  17725 24 001210   000000 236000 25                 LDQ     0
        24 001211   200033 756100                    STQ     DATA_ITEM+7,,AUTO

  17726 24 001212   200005 236100                    LDQ     LOP$,,AUTO
        24 001213   200025 756100                    STQ     DATA_ITEM+1,,AUTO

  17727 24 001214   000000 236000 25                 LDQ     0
        24 001215   200026 756100                    STQ     DATA_ITEM+2,,AUTO

  17729 24 001216   000133 235000 xsym               LDA     COMCOM+91
        24 001217   200031 755100                    STA     DATA_ITEM+5,,AUTO

  17730 24 001220   000134 235000 xsym               LDA     COMCOM+92
        24 001221   200032 755100                    STA     DATA_ITEM+6,,AUTO

     1516    17742                              %INIT_LX_ETT_ITEM (@POINTER = "ADDR (ROP_ETT)",
     1517    17743                                                 @ETT$    = ETT$$,
     1518    17744                                                 @TYPE    = ST$$ -> VARIABLE.TYPE);

  17746 24 001222   200034 740100                    STX0    ROP_ETT,,AUTO

  17747 24 001223   200034 441100                    SXL1    ROP_ETT,,AUTO

  17748 24 001224   000002 236100                    LDQ     2,,PR0
        24 001225   000022 772000                    QRL     18
        24 001226   200040 756100                    STQ     ROP_ETT+4,,AUTO
PL6.E3A0      #008=Z8EQ$OPTIMIZED_INITIAL File=Z8EQ.:Z8A6TSI                     SAT 08/09/97 12:45 Page:290

  17749 24 001227   000000 236000 25                 LDQ     0
        24 001230   200043 756100                    STQ     ROP_ETT+7,,AUTO

  17750 24 001231   200007 236100                    LDQ     ETT$$,,AUTO
        24 001232   200035 756100                    STQ     ROP_ETT+1,,AUTO

  17751 24 001233   000000 236000 25                 LDQ     0
        24 001234   200036 756100                    STQ     ROP_ETT+2,,AUTO

  17753 24 001235   000133 235000 xsym               LDA     COMCOM+91
        24 001236   200041 755100                    STA     ROP_ETT+5,,AUTO

  17754 24 001237   000134 235000 xsym               LDA     COMCOM+92
        24 001240   200042 755100                    STA     ROP_ETT+6,,AUTO

     1519    17766    6                         IF ST$$ -> VARIABLE.TYPE = %TYP

  17766 24 001241   000002 222100                    LDX2    2,,PR0
        24 001242   000022 102003                    CMPX2   18,DU
        24 001243   001261 601000 24                 TNZ     s:17768

     1520    17767    6                          THEN CALL Z8E7$POINTER_MOVE (ADDR (DATA_ITEM), ADDR (ROP_ETT
             17767                                    ));

  17767 24 001244   200024 631500                    EPPR1   DATA_ITEM,,AUTO
        24 001245   200114 451500                    STP1    INDEX_ETT+8,,AUTO
        24 001246   200034 633500                    EPPR3   ROP_ETT,,AUTO
        24 001247   200115 453500                    STP3    INDEX_ETT+9,,AUTO
        24 001250   200115 634500                    EPPR4   INDEX_ETT+9,,AUTO
        24 001251   200117 454500                    STP4    INDEX_ETT+11,,AUTO
        24 001252   200114 635500                    EPPR5   INDEX_ETT+8,,AUTO
        24 001253   200116 455500                    STP5    INDEX_ETT+10,,AUTO
        24 001254   200116 630500                    EPPR0   INDEX_ETT+10,,AUTO
        24 001255   000023 631400 25                 EPPR1   19
        24 001256   000000 701000 xent               TSX1    Z8E7$POINTER_MOVE
        24 001257   000000 011000                    NOP     0
PL6.E3A0      #008=Z8EQ$OPTIMIZED_INITIAL File=Z8EQ.:Z8A6TSI                     SAT 08/09/97 12:45 Page:291
        24 001260   001321 710000 24                 TRA     s:18152

     1521    17768    6                           ELSE CALL Z8E7$MOVE (ADDR (DATA_ITEM), ADDR (ROP_ETT));

  17768 24 001261   200024 631500                    EPPR1   DATA_ITEM,,AUTO
        24 001262   200114 451500                    STP1    INDEX_ETT+8,,AUTO
        24 001263   200034 633500                    EPPR3   ROP_ETT,,AUTO
        24 001264   200115 453500                    STP3    INDEX_ETT+9,,AUTO
        24 001265   200115 634500                    EPPR4   INDEX_ETT+9,,AUTO
        24 001266   200117 454500                    STP4    INDEX_ETT+11,,AUTO
        24 001267   200114 635500                    EPPR5   INDEX_ETT+8,,AUTO
        24 001270   200116 455500                    STP5    INDEX_ETT+10,,AUTO
        24 001271   200116 630500                    EPPR0   INDEX_ETT+10,,AUTO
        24 001272   000023 631400 25                 EPPR1   19
        24 001273   000000 701000 xent               TSX1    Z8E7$MOVE
        24 001274   000000 011000                    NOP     0
        24 001275   001321 710000 24                 TRA     s:18152

     1522    17769    6                       CASE (ELSE);

     1523    17770                              %NEW_ILL (@ID  = %MVAN,
     1524    17771                                        @LOP = LOP$,
     1525    17772                                        @ROP = ETT$$);

  18085 24 001276   000015 236000 25                 LDQ     13
        24 001277   200114 756100                    STQ     INDEX_ETT+8,,AUTO
        24 001300   200005 631500                    EPPR1   LOP$,,AUTO
        24 001301   200121 451500                    STP1    INDEX_ETT+13,,AUTO
        24 001302   200114 633500                    EPPR3   INDEX_ETT+8,,AUTO
        24 001303   200120 453500                    STP3    INDEX_ETT+12,,AUTO
        24 001304   000034 237000 25                 LDAQ    28
        24 001305   200116 757100                    STAQ    INDEX_ETT+10,,AUTO
        24 001306   000020 236000 25                 LDQ     16
        24 001307   200115 756100                    STQ     INDEX_ETT+9,,AUTO
        24 001310   200115 630500                    EPPR0   INDEX_ETT+9,,AUTO
        24 001311   000012 631400 25                 EPPR1   10
        24 001312   000000 701000 xent               TSX1    Z8AN$NEW_ILL1
PL6.E3A0      #008=Z8EQ$OPTIMIZED_INITIAL File=Z8EQ.:Z8A6TSI                     SAT 08/09/97 12:45 Page:292
        24 001313   000000 011000                    NOP     0

  18088 24 001314   200005 236100                    LDQ     LOP$,,AUTO
        24 001315   000000 470400 9                  LDP0    ILL$
        24 001316   000001 756100                    STQ     1,,PR0

  18089 24 001317   200007 236100                    LDQ     ETT$$,,AUTO
        24 001320   000002 756100                    STQ     2,,PR0

     1526    18151    6                     END;

     1527    18152    5                    CALL Z8AC$LX_ETT_ITEM_TYI_CONST (SON_LTS$ -> INIT_LTS.SPAN, ADDR (
             18152                              START_VALUE));

  18152 24 001321   200054 630500                    EPPR0   START_VALUE,,AUTO
        24 001322   200114 450500                    STP0    INDEX_ETT+8,,AUTO
        24 001323   200114 631500                    EPPR1   INDEX_ETT+8,,AUTO
        24 001324   200117 451500                    STP1    INDEX_ETT+11,,AUTO
        24 001325   200004 236100                    LDQ     SON_LTS$,,AUTO
        24 001326   000006 036003                    ADLQ    6,DU
        24 001327   200116 756100                    STQ     INDEX_ETT+10,,AUTO
        24 001330   200116 630500                    EPPR0   INDEX_ETT+10,,AUTO
        24 001331   000023 631400 25                 EPPR1   19
        24 001332   000000 701000 xent               TSX1    Z8AC$LX_ETT_ITEM_TYI_CONST
        24 001333   000000 011000                    NOP     0

     1528    18153    5                   END;

  18153 24 001334   001355 710000 24                 TRA     s:18179

     1529    18154    4                 ELSE
     1530    18155                        %INIT_LX_ETT_ITEM (@POINTER = "ADDR (START_VALUE)",
     1531    18156                                           @ETT$    = COMCOM.VALUE_0,
     1532    18157                                           @TYPE    = %TYI);

  18159 24 001335   000004 220003                    LDX0    4,DU
        24 001336   200054 740100                    STX0    START_VALUE,,AUTO
PL6.E3A0      #008=Z8EQ$OPTIMIZED_INITIAL File=Z8EQ.:Z8A6TSI                     SAT 08/09/97 12:45 Page:293

  18160 24 001337   000000 221003                    LDX1    0,DU
        24 001340   200054 441100                    SXL1    START_VALUE,,AUTO

  18161 24 001341   000001 235007                    LDA     1,DL
        24 001342   200060 755100                    STA     START_VALUE+4,,AUTO

  18162 24 001343   000000 236000 25                 LDQ     0
        24 001344   200063 756100                    STQ     START_VALUE+7,,AUTO

  18163 24 001345   000124 236000 xsym               LDQ     COMCOM+84
        24 001346   200055 756100                    STQ     START_VALUE+1,,AUTO

  18164 24 001347   000000 236000 25                 LDQ     0
        24 001350   200056 756100                    STQ     START_VALUE+2,,AUTO

  18166 24 001351   000133 235000 xsym               LDA     COMCOM+91
        24 001352   200061 755100                    STA     START_VALUE+5,,AUTO

  18167 24 001353   000134 235000 xsym               LDA     COMCOM+92
        24 001354   200062 755100                    STA     START_VALUE+6,,AUTO

     1533    18179    4                 CALL Z8AC$LX_ETT_ITEM_TYI_CONST (SON_LTS$ -> INIT_LTS.SPAN,

  18179 24 001355   200064 630500                    EPPR0   INCR_VALUE,,AUTO
        24 001356   200114 450500                    STP0    INDEX_ETT+8,,AUTO
        24 001357   200114 631500                    EPPR1   INDEX_ETT+8,,AUTO
        24 001360   200117 451500                    STP1    INDEX_ETT+11,,AUTO
        24 001361   200004 236100                    LDQ     SON_LTS$,,AUTO
        24 001362   000006 036003                    ADLQ    6,DU
        24 001363   200116 756100                    STQ     INDEX_ETT+10,,AUTO
        24 001364   200116 630500                    EPPR0   INDEX_ETT+10,,AUTO
        24 001365   000023 631400 25                 EPPR1   19
        24 001366   000000 701000 xent               TSX1    Z8AC$LX_ETT_ITEM_TYI_CONST
        24 001367   000000 011000                    NOP     0

     1534    18180    4                                                  ADDR (INCR_VALUE));
PL6.E3A0      #008=Z8EQ$OPTIMIZED_INITIAL File=Z8EQ.:Z8A6TSI                     SAT 08/09/97 12:45 Page:294
     1535    18181    4                 CALL Z8AC$LX_ETT_ITEM_TYI_CONST (SON_LTS$ -> INIT_LTS.SPAN *

  18181 24 001370   200004 470500                    LDP0    SON_LTS$,,AUTO
        24 001371   000007 236100                    LDQ     7,,PR0
        24 001372   000001 136007                    SBLQ    1,DL
        24 001373   000006 402100                    MPY     6,,PR0
        24 001374   200114 756100                    STQ     INDEX_ETT+8,,AUTO
        24 001375   200044 631500                    EPPR1   END_VALUE,,AUTO
        24 001376   200115 451500                    STP1    INDEX_ETT+9,,AUTO
        24 001377   200115 633500                    EPPR3   INDEX_ETT+9,,AUTO
        24 001400   200117 453500                    STP3    INDEX_ETT+11,,AUTO
        24 001401   200114 634500                    EPPR4   INDEX_ETT+8,,AUTO
        24 001402   200116 454500                    STP4    INDEX_ETT+10,,AUTO
        24 001403   200116 630500                    EPPR0   INDEX_ETT+10,,AUTO
        24 001404   000023 631400 25                 EPPR1   19
        24 001405   000000 701000 xent               TSX1    Z8AC$LX_ETT_ITEM_TYI_CONST
        24 001406   000000 011000                    NOP     0

     1536    18182    4                                                    (SON_LTS$ -> INIT_LTS.DIMS - 1),
     1537    18183    4                                                  ADDR (END_VALUE));
     1538    18184                      %INIT_LX_ETT_ITEM (@POINTER = "ADDR (INDEX_ETT)",
     1539    18185                                         @ETT$    = SON_LTS$ -> INIT_LTS.INDEX$,
     1540    18186                                         @TYPE    = %TYI);

  18188 24 001407   000004 220003                    LDX0    4,DU
        24 001410   200104 740100                    STX0    INDEX_ETT,,AUTO

  18189 24 001411   000000 221003                    LDX1    0,DU
        24 001412   200104 441100                    SXL1    INDEX_ETT,,AUTO

  18190 24 001413   000001 235007                    LDA     1,DL
        24 001414   200110 755100                    STA     INDEX_ETT+4,,AUTO

  18191 24 001415   000000 236000 25                 LDQ     0
        24 001416   200113 756100                    STQ     INDEX_ETT+7,,AUTO

  18192 24 001417   200004 470500                    LDP0    SON_LTS$,,AUTO
PL6.E3A0      #008=Z8EQ$OPTIMIZED_INITIAL File=Z8EQ.:Z8A6TSI                     SAT 08/09/97 12:45 Page:295
        24 001420   000011 236100                    LDQ     9,,PR0
        24 001421   200105 756100                    STQ     INDEX_ETT+1,,AUTO

  18193 24 001422   000000 236000 25                 LDQ     0
        24 001423   200106 756100                    STQ     INDEX_ETT+2,,AUTO

  18195 24 001424   000133 235000 xsym               LDA     COMCOM+91
        24 001425   200111 755100                    STA     INDEX_ETT+5,,AUTO

  18196 24 001426   000134 235000 xsym               LDA     COMCOM+92
        24 001427   200112 755100                    STA     INDEX_ETT+6,,AUTO

     1541    18208                      %INIT_BINARY_OP (@POINTER = "ADDR (LOOP_END)",
     1542    18209                                       @LOP$    = "ADDR (INDEX_ETT)",
     1543    18210                                       @ROP$    = "ADDR (END_VALUE)",
     1544    18211                                       @OP      = %OP_EQUAL);

  18213 24 001430   000005 222003                    LDX2    5,DU
        24 001431   200074 742100                    STX2    LOOP_END,,AUTO

  18214 24 001432   200074 441100                    SXL1    LOOP_END,,AUTO

  18221 24 001433   000133 235000 xsym               LDA     COMCOM+91
        24 001434   200101 755100                    STA     LOOP_END+5,,AUTO

  18222 24 001435   000134 235000 xsym               LDA     COMCOM+92
        24 001436   200102 755100                    STA     LOOP_END+6,,AUTO

  18223 24 001437   200044 631500                    EPPR1   END_VALUE,,AUTO
        24 001440   200076 451500                    STP1    LOOP_END+2,,AUTO

  18224 24 001441   200104 633500                    EPPR3   INDEX_ETT,,AUTO
        24 001442   200075 453500                    STP3    LOOP_END+1,,AUTO

  18225 24 001443   000027 235007                    LDA     23,DL
        24 001444   200077 755100                    STA     LOOP_END+3,,AUTO

PL6.E3A0      #008=Z8EQ$OPTIMIZED_INITIAL File=Z8EQ.:Z8A6TSI                     SAT 08/09/97 12:45 Page:296
  18226 24 001445   200103 756100                    STQ     LOOP_END+7,,AUTO

     1545    18229    4                 CALL Z8EQ$MERGE_ITERATED_DO_UNTIL(ADDR (INDEX_ETT),

  18229 24 001446   200104 634500                    EPPR4   INDEX_ETT,,AUTO
        24 001447   200114 454500                    STP4    INDEX_ETT+8,,AUTO
        24 001450   200054 635500                    EPPR5   START_VALUE,,AUTO
        24 001451   200115 455500                    STP5    INDEX_ETT+9,,AUTO
        24 001452   200064 636500                    EPPR6   INCR_VALUE,,AUTO
        24 001453   200116 456500                    STP6    INDEX_ETT+10,,AUTO
        24 001454   200074 637500                    EPPR7   LOOP_END,,AUTO
        24 001455   200117 457500                    STP7    INDEX_ETT+11,,AUTO
        24 001456   200117 630500                    EPPR0   INDEX_ETT+11,,AUTO
        24 001457   200123 450500                    STP0    INDEX_ETT+15,,AUTO
        24 001460   200116 630500                    EPPR0   INDEX_ETT+10,,AUTO
        24 001461   200122 450500                    STP0    INDEX_ETT+14,,AUTO
        24 001462   200115 630500                    EPPR0   INDEX_ETT+9,,AUTO
        24 001463   200121 450500                    STP0    INDEX_ETT+13,,AUTO
        24 001464   200114 630500                    EPPR0   INDEX_ETT+8,,AUTO
        24 001465   200120 450500                    STP0    INDEX_ETT+12,,AUTO
        24 001466   200120 630500                    EPPR0   INDEX_ETT+12,,AUTO
        24 001467   000002 631400 25                 EPPR1   2
        24 001470   000000 701000 xent               TSX1    Z8EQ$MERGE_ITERATED_DO_UNTIL
        24 001471   000000 011000                    NOP     0

     1546    18230    4                                                   ADDR (START_VALUE),
     1547    18231    4                                                   ADDR (INCR_VALUE),
     1548    18232    4                                                   ADDR (LOOP_END));
     1549    18233                      %APPEND_ILS_LIST (@FROM$ = "ADDR (O1COM.ILS_LIST)",
     1550    18234                                        @TO$   = "ADDR (SAVED_ILS_LIST)");

  18240 24 001472   000017 236000 xsym               LDQ     O1COM+15
        24 001473   000000 116000 25                 CMPQ    0
        24 001474   001510 600000 24                 TZE     s:18251

  18241 24 001475   200015 236100                    LDQ     SAVED_ILS_LIST+1,,AUTO
        24 001476   000000 116000 25                 CMPQ    0
PL6.E3A0      #008=Z8EQ$OPTIMIZED_INITIAL File=Z8EQ.:Z8A6TSI                     SAT 08/09/97 12:45 Page:297
        24 001477   001503 601000 24                 TNZ     s:18245

  18242 24 001500   000017 236000 xsym               LDQ     O1COM+15
        24 001501   200015 756100                    STQ     SAVED_ILS_LIST+1,,AUTO

  18243 24 001502   001506 710000 24                 TRA     s:18247

  18245 24 001503   000017 236000 xsym               LDQ     O1COM+15
        24 001504   200016 470500                    LDP0    SAVED_ILS_LIST+2,,AUTO
        24 001505   000002 756100                    STQ     2,,PR0

  18247 24 001506   000020 236000 xsym               LDQ     O1COM+16
        24 001507   200016 756100                    STQ     SAVED_ILS_LIST+2,,AUTO

     1551    18251    4                 O1COM.ILS_LIST = SAVED_ILS_LIST;

  18251 24 001510   000000 100500                    MLR     fill='000'O
        24 001511   200014 000040                    ADSC9   SAVED_ILS_LIST,,AUTO     cn=0,n=32
        24 001512   000016 000040 xsym               ADSC9   O1COM+14                 cn=0,n=32

     1552    18252    4               END; /* DIMS > 2 OR FILLER */

     1553    18253    3           END; /* DIMS > 1 */

     1554    18254    2         SON_LTS$ = SON_LTS$ -> INIT_LTS.NEXT$;

  18254 24 001513   200004 470500                    LDP0    SON_LTS$,,AUTO
        24 001514   000004 236100                    LDQ     4,,PR0
        24 001515   200004 756100                    STQ     SON_LTS$,,AUTO

     1555    18255    2       END; /* UNTIL SON_LTS$ = ADDR (NIL) */

  18255 24 001516   000000 116000 25                 CMPQ    0
        24 001517   000353 601000 24                 TNZ     s:16791

     1556    18256    1   END Z8EQ$OPTIMIZED_INITIAL;

PL6.E3A0      #008=Z8EQ$OPTIMIZED_INITIAL File=Z8EQ.:Z8A6TSI                     SAT 08/09/97 12:45 Page:298
  18256 24 001520   000000 702200 xent               TSX2  ! X66_ARET

PL6.E3A0      #008=Z8EQ$OPTIMIZED_INITIAL File=Z8EQ.:Z8A6TSI                     SAT 08/09/97 12:45 Page:299
--  Include file information  --

   Z8E_WINDOW.:Z8A6TOU  is referenced.
   Z8E_O1COM.:Z8A6TOU  cannot be made into a system file and is referenced.
   Z8E_ILS_LIST.:Z8A6TOU  is referenced.
   Z8E_NEW_ILL.:Z8A6TOU  is referenced.
   Z8E_MACROS.:Z8A6TOU  cannot be made into a system file and is referenced.
   Z8A_LEX_SYMB.:Z8A6TOU  cannot be made into a system file and is referenced.
   Z8E_STACKS.:Z8A6TOU  cannot be made into a system file and is referenced.
   Z8A_LTS.:Z8A6TOU  cannot be made into a system file and is referenced.
   Z8A_TYPES.:Z8A6TOU  is referenced.
   Z8A_ST.:Z8A6TOU  cannot be made into a system file and is referenced.
   Z8A_MKCN.:Z8A6TOU  cannot be made into a system file and is referenced.
   Z8A_ILS.:Z8A6TOU  cannot be made into a system file and is referenced.
   Z8A_ILL.:Z8A6TOU  cannot be made into a system file and is referenced.
   Z8A_ETT.:Z8A6TOU  cannot be made into a system file and is referenced.
   Z8A_DNT.:Z8A6TOU  cannot be made into a system file and is referenced.
   Z8A_COMCOM.:Z8A6TOU  cannot be made into a system file and is referenced.
   X8A_COM_MACS.:X8A6TOU  is referenced.
   Z8A_NAMES.:Z8A6TOU  is referenced.
   Z8A_SUPP_MAC.:Z8A6TOU  is referenced.
   Z8A_DEFC.:Z8A6TOU  cannot be made into a system file and is referenced.
      No diagnostics issued in procedure Z8EQ$OPTIMIZED_INITIAL.
PL6.E3A0      #008=Z8EQ$OPTIMIZED_INITIAL File=Z8EQ.:Z8A6TSI                     SAT 08/09/97 12:45 Page:300

 **** Variables and constants ****

  ****  Section 000 LblCom ITERATION

  ****  Scalars and arrays  ****
OctLoc.c.b A Datatyp(siz) R M Lvl/name                 OctLoc.c.b A Datatyp(siz) R M Lvl/name

     0-0-0/w SBIN              1 ITERATION

  ****  Section 001 LblCom DNT$

  ****  Scalars and arrays  ****
OctLoc.c.b A Datatyp(siz) R M Lvl/name                 OctLoc.c.b A Datatyp(siz) R M Lvl/name

     0-0-0/w PTR         r     1 DNT$

  ****  Section 002 LblCom DNT_

  ****  Scalars and arrays  ****
OctLoc.c.b A Datatyp(siz) R M Lvl/name                 OctLoc.c.b A Datatyp(siz) R M Lvl/name

     0-0-0/w STRC(180)         1 DNT_

  ****  Section 003 LblCom DNT_BUCKET_NUMBER

  ****  Scalars and arrays  ****
OctLoc.c.b A Datatyp(siz) R M Lvl/name                 OctLoc.c.b A Datatyp(siz) R M Lvl/name

     0-0-0/w UBIN              1 DNT_BUCKET_NUMBER

  ****  Section 004 LblCom DNT_OF_1$

  ****  Scalars and arrays  ****
OctLoc.c.b A Datatyp(siz) R M Lvl/name                 OctLoc.c.b A Datatyp(siz) R M Lvl/name

     0-0-0/w PTR               1 DNT_OF_1$

PL6.E3A0      #008=Z8EQ$OPTIMIZED_INITIAL File=Z8EQ.:Z8A6TSI                     SAT 08/09/97 12:45 Page:301
  ****  Section 005 LblCom ETT$

  ****  Scalars and arrays  ****
OctLoc.c.b A Datatyp(siz) R M Lvl/name                 OctLoc.c.b A Datatyp(siz) R M Lvl/name

     0-0-0/w PTR         r     1 ETT$

  ****  Section 006 LblCom HEAD_ETT$

  ****  Scalars and arrays  ****
OctLoc.c.b A Datatyp(siz) R M Lvl/name                 OctLoc.c.b A Datatyp(siz) R M Lvl/name

     0-0-0/w PTR               1 HEAD_ETT$

  ****  Section 007 LblCom ETT_BUCKETS

  ****  Scalars and arrays  ****
OctLoc.c.b A Datatyp(siz) R M Lvl/name                 OctLoc.c.b A Datatyp(siz) R M Lvl/name

     0-0-0/w PTR               1 ETT_BUCKETS(0:511)

  ****  Section 008 LblCom ETT_

  ****  Scalars and arrays  ****
OctLoc.c.b A Datatyp(siz) R M Lvl/name                 OctLoc.c.b A Datatyp(siz) R M Lvl/name

     0-0-0/w STRC(180)         1 ETT_

  ****  Section 009 LblCom ILL$

  ****  Scalars and arrays  ****
OctLoc.c.b A Datatyp(siz) R M Lvl/name                 OctLoc.c.b A Datatyp(siz) R M Lvl/name

     0-0-0/w PTR         r     1 ILL$

  ****  Section 010 LblCom ILL_

PL6.E3A0      #008=Z8EQ$OPTIMIZED_INITIAL File=Z8EQ.:Z8A6TSI                     SAT 08/09/97 12:45 Page:302
  ****  Scalars and arrays  ****
OctLoc.c.b A Datatyp(siz) R M Lvl/name                 OctLoc.c.b A Datatyp(siz) R M Lvl/name

     0-0-0/w STRC(180)         1 ILL_

  ****  Section 011 LblCom ILS$

  ****  Scalars and arrays  ****
OctLoc.c.b A Datatyp(siz) R M Lvl/name                 OctLoc.c.b A Datatyp(siz) R M Lvl/name

     0-0-0/w PTR         r     1 ILS$

  ****  Section 012 LblCom ILS_

  ****  Scalars and arrays  ****
OctLoc.c.b A Datatyp(siz) R M Lvl/name                 OctLoc.c.b A Datatyp(siz) R M Lvl/name

     0-0-0/w STRC(180)         1 ILS_

  ****  Section 013 LblCom MKCN

  ****  Scalars and arrays  ****
OctLoc.c.b A Datatyp(siz) R M Lvl/name                 OctLoc.c.b A Datatyp(siz) R M Lvl/name

     0-0-0/w STRC(72)    r     1 MKCN

  ****  Section 014 LblCom ST$

  ****  Scalars and arrays  ****
OctLoc.c.b A Datatyp(siz) R M Lvl/name                 OctLoc.c.b A Datatyp(siz) R M Lvl/name

     0-0-0/w PTR         r     1 ST$

  ****  Section 015 LblCom ST_

  ****  Scalars and arrays  ****
OctLoc.c.b A Datatyp(siz) R M Lvl/name                 OctLoc.c.b A Datatyp(siz) R M Lvl/name
PL6.E3A0      #008=Z8EQ$OPTIMIZED_INITIAL File=Z8EQ.:Z8A6TSI                     SAT 08/09/97 12:45 Page:303

     0-0-0/w STRC(180)         1 ST_

  ****  Section 016 LblCom LTS$

  ****  Scalars and arrays  ****
OctLoc.c.b A Datatyp(siz) R M Lvl/name                 OctLoc.c.b A Datatyp(siz) R M Lvl/name

     0-0-0/w PTR               1 LONG_ITEM$                 0-0-0/w PTR         r     1 LTS$

  ****  Section 017 LblCom LTS_

  ****  Scalars and arrays  ****
OctLoc.c.b A Datatyp(siz) R M Lvl/name                 OctLoc.c.b A Datatyp(siz) R M Lvl/name

     0-0-0/w STRC(180)         1 LTS_

  ****  Section 018 LblCom LEX_SYMBOL

  ****  Scalars and arrays  ****
OctLoc.c.b A Datatyp(siz) R M Lvl/name                 OctLoc.c.b A Datatyp(siz) R M Lvl/name

     0-0-0/w STRC(3240)  r     1 LEX_SYMBOL                 0-0-0/w STRC(3240)        1 LEX_SYMBOL_WORDS

  ****  Section 019 LblCom CURRENT_LEX_SYMBOL$

  ****  Scalars and arrays  ****
OctLoc.c.b A Datatyp(siz) R M Lvl/name                 OctLoc.c.b A Datatyp(siz) R M Lvl/name

     0-0-0/w PTR         r     1 CURRENT_LEX_SYMBOL$

  ****  Section 020 LblCom TEMP_LEX_SYMBOL

  ****  Scalars and arrays  ****
OctLoc.c.b A Datatyp(siz) R M Lvl/name                 OctLoc.c.b A Datatyp(siz) R M Lvl/name

     0-0-0/w STRC(3240)        1 TEMP_LEX_SYMBOL
PL6.E3A0      #008=Z8EQ$OPTIMIZED_INITIAL File=Z8EQ.:Z8A6TSI                     SAT 08/09/97 12:45 Page:304

  ****  Section 021 LblCom TEMP_LEX_SYMBOL2

  ****  Scalars and arrays  ****
OctLoc.c.b A Datatyp(siz) R M Lvl/name                 OctLoc.c.b A Datatyp(siz) R M Lvl/name

     0-0-0/w STRC(3240)        1 TEMP_LEX_SYMBOL2

  ****  Section 022  Data  Z8EQ$OPTIMIZED_INITIAL

  ****  Scalars and arrays  ****
OctLoc.c.b A Datatyp(siz) R M Lvl/name                 OctLoc.c.b A Datatyp(siz) R M Lvl/name

     0-0-0/w STRC(288)   r     1 INIT_VAL

  ****  Section 023 RoData Z8EQ$OPTIMIZED_INITIAL

  ****  Scalars and arrays  ****
OctLoc.c.b A Datatyp(siz) R M Lvl/name                 OctLoc.c.b A Datatyp(siz) R M Lvl/name

     0-0-0/w PTR         r     1 INIT_VAL$

  ****  Auto variables  ****

  ****  Scalars and arrays  ****
OctLoc.c.b A Datatyp(siz) R M Lvl/name                 OctLoc.c.b A Datatyp(siz) R M Lvl/name

     3-0-0/w PTR         r     1 @INIT_LTS$                24-0-0/d STRC(288)   r     1 DATA_ITEM
    44-0-0/d STRC(288)   r     1 END_VALUE                  7-0-0/w PTR         r     1 ETT$$
    64-0-0/d STRC(288)   r     1 INCR_VALUE               104-0-0/d STRC(288)   r     1 INDEX_ETT
    *0-0-0/w PTR         r     1 INIT_LTS$                 74-0-0/d STRC(288)   r     1 LOOP_END
     5-0-0/w PTR         r     1 LOP$                      12-0-0/w SBIN        r     1 OFF
    34-0-0/d STRC(288)   r     1 ROP_ETT                   14-0-0/d STRC(288)   r     1 SAVED_ILS_LIST
     4-0-0/w PTR         r     1 SON_LTS$                   6-0-0/w PTR         r     1 ST$$
    54-0-0/d STRC(288)   r     1 START_VALUE               10-0-0/w PTR         r     1 SUBSCR$
    11-0-0/w PTR               1 THREE$

PL6.E3A0      #008=Z8EQ$OPTIMIZED_INITIAL File=Z8EQ.:Z8A6TSI                     SAT 08/09/97 12:45 Page:305
  ****  SYMREF variables  ****

  ****  Scalars and arrays  ****
OctLoc.c.b A Datatyp(siz) R M Lvl/name                 OctLoc.c.b A Datatyp(siz) R M Lvl/name

     0-0-0/d STRC(13248) r     1 COMCOM
     0-0-0/w PTR         r     1 DNT$_FROM_RSWNO(0:0)
     0-0-0/w STRC(180)         1 HIER_STK(0:50)
     0-0-0/w SBIN              1 HIER_STK_PTR               0-0-0/w UBIN              1 ILL_STEP(0:144)
     0-0-0/w UBIN              1 ILS_STEP_TABLE(0:2)
     0-0-0/w UBIN              1 LTS_STEP(0:37)
     0-0-0/d STRC(11580) r     1 O1COM                      0-0-0/w STRC(144)         1 PAGE_FORMAT
     0-0-0/w STRC(153)         1 REP_STK(0:50)              0-0-0/w SBIN              1 REP_STK_PTR

  ****  BASED and DCB variables  ****

  ****  Scalars and arrays  ****
OctLoc.c.b A Datatyp(siz) R M Lvl/name                 OctLoc.c.b A Datatyp(siz) R M Lvl/name

     0-0-0/w STRC(108)         1 ACCEPT_DISPLAY             0-0-0/w STRC(288)         1 ADD_STMT
     0-0-0/w STRC(396)         1 ALPHABET                   0-0-0/w STRC(144)         1 ALTER_LTS
     0-0-0/w STRC(3672)        1 ALT_KEY                    0-0-0/w STRC(36864)       1 ARGLIST
     0-0-0/w STRC(396)         1 ARRAY                      0-0-0/w STRC(180)         1 ARRAY_PRESET_LTS
     0-0-0/w ASTR(324)   r     1 BASED_LEX_SYMBOL
     0-0-0/w STRC(360)         1 BASED_LEX_SYMBOL_WORDS
     0-0-0/w STRC(288)         1 BASE_LTS                   0-0-0/w STRC(108)   r     1 BINARY_ILL
     0-0-0/w STRC(288)   r     1 BINARY_OP                  0-0-0/w STRC(396)         1 BLOCK
     0-0-0/w STRC(144)         1 BRANCH_ILL                 0-0-0/w STRC(144)         1 BT
     0-0-0/w STRC(288)         1 CALL_STMT                  0-0-0/w STRC(216)         1 CCOSU
     0-0-0/w STRC(396)         1 CD                         0-0-0/w STRC(288)         1 CD_LTS
     0-0-0/w CHAR(4096)        1 CHARS                      0-0-0/w STRC(396)         1 CLASS
     0-0-0/w STRC(108)         1 CODED_MOVE                 0-0-0/w STRC(288)         1 COMPUTE_STMT
     0-0-0/w STRC(396)         1 CONDITION                  0-0-0/w STRC(396)         1 CONST
     0-0-0/w STRC(72)          1 CONT                       0-0-0/w STRC(540)         1 CONTROL_NAME_LTS
     0-0-0/w STRC(1872)        1 COPY_FILE                  0-0-0/w STRC(396)         1 DB
     0-0-0/w STRC(396)         1 DCB_                       0-0-0/w STRC(288)         1 DEFERED_IDENTIFIER
     0-0-0/w STRC(252)         1 DEFERED_ID_TREE            0-0-0/w STRC(288)         1 DEFERED_QUAL_ID
PL6.E3A0      #008=Z8EQ$OPTIMIZED_INITIAL File=Z8EQ.:Z8A6TSI                     SAT 08/09/97 12:45 Page:306
     0-0-0/w STRC(288)         1 DEFERED_SUM_CLAUSE
     0-0-0/w STRC(288)         1 DEFERED_SUM_CLAUSE_LIST
     0-0-0/w STRC(144)         1 DEFLB                      0-0-0/w STRC(288)         1 DELETE_STMT
     0-0-0/w STRC(108)         1 DEPENDING_SIZE             0-0-0/w STRC(5472)        1 DIMS
     0-0-0/w STRC(288)         1 DIVIDE_STMT                0-0-0/w STRC(396)         1 DML_ITEM
     0-0-0/w STRC(216)         1 DML_REC                    0-0-0/w ASTR(180)   r     1 DNT
     0-0-0/w STRC(144)         1 DOEND                      0-0-0/w STRC(396)         1 DO_N
     0-0-0/w STRC(180)         1 DV4I                       0-0-0/w STRC(180)         1 ENTRY_ILL
     0-0-0/w STRC(180)   r     1 ETT                        0-0-0/w STRC(108)         1 EVALU
     0-0-0/w STRC(73836)       1 EVALUATE                   0-0-0/w STRC(396)         1 FD
     0-0-0/w STRC(1692)        1 FILE_LTS                   0-0-0/w STRC(144)         1 GO
     0-0-0/w STRC(180)         1 ILL                        0-0-0/w STRC              1 ILL_NO_OPS
     0-0-0/w STRC(180)   r     1 ILS                        0-0-0/w STRC(288)   r     1 ILS_LIST
     0-0-0/w STRC(108)         1 INDEXES                    0-0-0/w STRC(360)   r     1 INIT_LTS
     0-0-0/w STRC(288)         1 INSPECT_1_STMT             0-0-0/w STRC(288)         1 INSPECT_2_STMT
     0-0-0/w STRC(288)         1 INSPECT_4_STMT             0-0-0/w STRC(396)         1 INTDEF
     0-0-0/w STRC(180)         1 IO_RESTORE_CHAIN           0-0-0/w STRC(144)         1 KEY
     0-0-0/w STRC(396)         1 LABEL                      0-0-0/w STRC(288)         1 LA_ITEM
     0-0-0/w STRC(36864)       1 LCNST                      0-0-0/w STRC(108)         1 LINOI
     0-0-0/w STRC(72)          1 LONG                       0-0-0/w STRC              1 LTS
     0-0-0/w STRC(360)         1 LTSS                       0-0-0/w STRC(36936)       1 LTS_PTR_ARRAY
     0-0-0/w STRC(504)         1 LX_CD_INPUT                0-0-0/w STRC(324)         1 LX_CD_I_O
     0-0-0/w STRC(396)         1 LX_CD_OUTPUT               0-0-0/w STRC(288)   r     1 LX_ETT_ITEM
     0-0-0/w STRC(288)         1 LX_ITEM                    0-0-0/w STRC(288)         1 LX_LARGE
     0-0-0/w STRC(288)         1 LX_LIST                    0-0-0/w STRC(1224)        1 LX_REC_DECL
     0-0-0/w STRC(864)         1 LX_REPORT_REC              0-0-0/w STRC(288)         1 LX_TERMINAL
     0-0-0/w STRC(72)    r     1 MFILL                      0-0-0/w STRC(396)         1 MNEMONIC
     0-0-0/w STRC(288)         1 MULTIPLY_STMT              0-0-0/w STRC(180)         1 MULTI_GO
     0-0-0/w STRC(180)         1 MVEAL                      0-0-0/w STRC(108)         1 MVFIL
     0-0-0/w STRC(72)          1 MVIIS                      0-0-0/w STRC(144)         1 NEL
     0-0-0/w STRC(216)         1 OPEN_LTS                   0-0-0/w STRC(144)         1 OPN
     0-0-0/w STRC(180)         1 OS_CALL                    0-0-0/w STRC(36864)       1 PAGE
     0-0-0/w STRC(396)         1 PARA                       0-0-0/w STRC(216)         1 PFORM
     0-0-0/w STRC(144)         1 PINC                       0-0-0/w STRC(144)         1 PREOFF
     0-0-0/w STRC(108)         1 PRESET                     0-0-0/w STRC(144)         1 PRIME
     0-0-0/w STRC(396)         1 PROC_                      0-0-0/w STRC(396)         1 PROC_DEF
     0-0-0/w STRC(900)         1 PROC_SUPP                  0-0-0/w STRC(144)         1 P_A_PRESET
PL6.E3A0      #008=Z8EQ$OPTIMIZED_INITIAL File=Z8EQ.:Z8A6TSI                     SAT 08/09/97 12:45 Page:307
     0-0-0/w STRC(144)         1 P_P_PRESET                 0-0-0/w STRC(396)         1 RD
     0-0-0/w STRC(288)         1 READ_STMT                  0-0-0/w STRC(216)         1 REF
     0-0-0/w STRC(144)         1 REMEM                      0-0-0/w STRC(108)         1 RENAMES
     0-0-0/w STRC(720)         1 REPORT_01_LTS              0-0-0/w STRC(432)         1 REPORT_ELEM_LTS
     0-0-0/w STRC(252)         1 REPORT_GRP_LTS             0-0-0/w STRC(1332)        1 REPORT_LTS
     0-0-0/w STRC(288)         1 REWRITE_STMT               0-0-0/w STRC(144)         1 RVA_LTS
     0-0-0/w STRC(396)         1 SCALAR                     0-0-0/w STRC(144)         1 SCOPE
     0-0-0/w STRC(396)         1 SD                         0-0-0/w STRC(216)         1 SEARCH_
     0-0-0/w STRC(396)         1 SECTION                    0-0-0/w STRC(396)         1 SEGMENT
     0-0-0/w STRC(360)         1 SEGMENT_LTS                0-0-0/w STRC(396)         1 ST
     0-0-0/w STRC(288)         1 START_STMT                 0-0-0/w STRC(72)          1 STP2
     0-0-0/w STRC(252)         1 STRING_STMT                0-0-0/w STRC(288)         1 SUBTRACT_STMT
     0-0-0/w STRC(252)         1 SUM_LTS                    0-0-0/w STRC(396)         1 SWITCH
     0-0-0/w STRC(396)         1 SYMBOLIC_CHAR              0-0-0/w STRC(396)         1 SYMDEF_
     0-0-0/w STRC(396)         1 SYMREF_                    0-0-0/w STRC(396)         1 TEMP
     0-0-0/w STRC(144)         1 TRINARY_ILL                0-0-0/w STRC(72)          1 UNARY_ILL
     0-0-0/w STRC(288)         1 UNARY_OP                   0-0-0/w STRC(288)         1 UNSTRING_STMT
     0-0-0/d STRC(612)         1 USE                        0-0-0/w STRC(216)         1 USER_CALL
     0-0-0/w STRC(252)         1 USE_SUPP                   0-0-0/w STRC(108)         1 VAL
     0-0-0/w STRC(108)         1 VAL_END                    0-0-0/w STRC(396)   r     1 VARIABLE
     0-0-0/w STRC(72)          1 WHEN                       0-0-0/w STRC(288)         1 WRITE_STMT


   Procedure Z8EQ$OPTIMIZED_INITIAL requires 849 words for executable code.
   Procedure Z8EQ$OPTIMIZED_INITIAL requires 84 words of local(AUTO) storage.

    No errors detected in file Z8EQ.:Z8A6TSI    .
