VERSION A06

PL6.E3A0      #001=Z8EQ$CHECK_FOR_INTEGER_ITEM File=Z8EQ.:Z8A6TSI                SAT 08/09/97 12:31 Page:1
        1        1        /*T***********************************************************/
        2        2        /*T*                                                         */
        3        3        /*T* Copyright (c) Bull HN Information Systems Inc., 1997    */
        4        4        /*T*                                                         */
        5        5        /*T***********************************************************/
        6        6        Z8EQ$CHECK_FOR_INTEGER_ITEM: PROC (ITEM_TO_CHECK$, ERROR#) ALTRET;
        7        7
        8        8        %EQU PHASE = 1;
        9        9
       10       10        %INCLUDE Z8A_DEFC;
       11       78        %INCLUDE Z8A_SUPP_MAC;
       12     2478        %INCLUDE Z8A_COMCOM;
       13     3128        %INCLUDE Z8A_ERR_NUMS;
       14     3892        %INCLUDE Z8A_TYPES;
       15     4066        %INCLUDE Z8A_ST;
       16     7725        %INCLUDE Z8A_ETT;
       17     8026
       18     8027        %INCLUDE Z8E_STACKS;
       19    10293        %INCLUDE Z8E_WINDOW;
       20    12363        %INCLUDE Z8E_ABSSYN;
       21    12569
       22    12570    1   DCL Z8AE$ERROR                ENTRY  (12);
       23    12571    1   DCL Z8AU$TYPE_DESCRIPTOR      ENTRY  (2);
       24    12572    1   DCL Z8AT$CREATE_TEMPORARY     ENTRY  (2);
       25    12573    1   DCL Z8AF$FORME                ENTRY  (4);
       26    12574    1   DCL Z8EV$CONVERT              ENTRY  (3);
       27    12575
       28    12576    1   DCL ITEM_TO_CHECK$            PTR;
       29    12577    1   DCL ERROR#                    SBIN WORD;
       30    12578
       31    12579    1   DCL 1 TYPE_DESC               ALIGNED,
       32    12580             %TYPE_DESC;
       33    12614
       34    12615
       35    12616    1   RECOVERY: PROC (INVALID_ITEM$);
       36    12617
       37    12618    2   DCL INVALID_ITEM$             PTR;
PL6.E3A0      #001=Z8EQ$CHECK_FOR_INTEGER_ITEM File=Z8EQ.:Z8A6TSI                SAT 08/09/97 12:31 Page:2
       38    12619
       39    12620    2   DCL TEMP$                     PTR;
       40    12621    2   DCL 1 DESC                    ALIGNED,
       41    12622              %DESCRIPTOR             (LVL = 2, ENDING = YES);
       42    12650
       43    12651    2      CALL Z8AT$CREATE_TEMPORARY (%SCALAR, TEMP$);
       44    12652
       45    12653    2      TEMP$ -> SCALAR.TYPE = %TYI;
       46    12654           %BUILD_BINARY_DESC (@DESC = DESC,
       47    12655                               @LENGTH = %TYI_LENGTH);
       48    12663
       49    12664    2      TEMP$ -> SCALAR.DESCL = DESC.DESCL;
       50    12665    2      CALL Z8AF$FORME (%BASE, TEMP$, ADDR(NIL), TEMP$);
       51    12666
       52    12667    2      INVALID_ITEM$ -> LX_ETT_ITEM.TYPE = %TYI;
       53    12668    2      INVALID_ITEM$ -> LX_ETT_ITEM.ETT$ = TEMP$;
       54    12669
       55    12670    2   END RECOVERY;
       56    12671        %EJECT;
PL6.E3A0      #001=Z8EQ$CHECK_FOR_INTEGER_ITEM File=Z8EQ.:Z8A6TSI                SAT 08/09/97 12:31 Page:3
       57    12672
       58    12673
       59    12674    1      CALL Z8AU$TYPE_DESCRIPTOR (ITEM_TO_CHECK$ -> LX_ETT_ITEM.ETT$, TYPE_DESC);
       60    12675
       61    12676    2      DO CASE (TYPE_DESC.TYPE);
       62    12677
       63    12678    2        CASE(%TYI);
       64    12679               /* All Ok */
       65    12680
       66    12681    2        CASE(%TYH, %TYJ, %TYK);
       67    12682    2          CALL Z8EV$CONVERT (%TYI, ITEM_TO_CHECK$, ITEM_TO_CHECK$);
       68    12683
       69    12684    2        CASE(%TYD, %TYO, %TYF, %TYC);
       70    12685    2          IF TYPE_DESC.DESC.NDSC.SF < 0 THEN
       71    12686    3            DO;
       72    12687    3              CALL Z8AE$ERROR (ERROR#,
       73    12688    3                               ITEM_TO_CHECK$ -> LX_ETT_ITEM.LINE,
       74    12689    3                               ITEM_TO_CHECK$ -> LX_ETT_ITEM.COLUMN);
       75    12690    3              CALL RECOVERY (ITEM_TO_CHECK$);
       76    12691    3              ALTRETURN;
       77    12692    3            END;
       78    12693
       79    12694    2          CALL Z8EV$CONVERT (%TYI, ITEM_TO_CHECK$, ITEM_TO_CHECK$);
       80    12695
       81    12696    2        CASE(ELSE);
       82    12697    2          CALL Z8AE$ERROR (ERROR#,
       83    12698    2                           ITEM_TO_CHECK$ -> LX_ETT_ITEM.LINE,
       84    12699    2                           ITEM_TO_CHECK$ -> LX_ETT_ITEM.COLUMN);
       85    12700    2          CALL RECOVERY (ITEM_TO_CHECK$);
       86    12701    2          ALTRETURN;
       87    12702
       88    12703    2      END; /* Case */
       89    12704
       90    12705    1   END Z8EQ$CHECK_FOR_INTEGER_ITEM; /* Proc */
       91    12706        %EOD;

PL6.E3A0      #001=Z8EQ$CHECK_FOR_INTEGER_ITEM File=Z8EQ.:Z8A6TSI                SAT 08/09/97 12:31 Page:4
--  Include file information  --

   Z8E_ABSSYN.:Z8A6TOU  cannot be made into a system file and is referenced.
   Z8E_WINDOW.:Z8A6TOU  is referenced.
   Z8A_LEX_SYMB.:Z8A6TOU  cannot be made into a system file and is referenced.
   Z8E_STACKS.:Z8A6TOU  cannot be made into a system file and is referenced.
   Z8A_ETT.:Z8A6TOU  cannot be made into a system file and is referenced.
   Z8A_ST.:Z8A6TOU  cannot be made into a system file and is referenced.
   Z8A_TYPES.:Z8A6TOU  is referenced.
   Z8A_ERR_NUMS.:Z8A6TOU  is referenced.
   Z8A_COMCOM.:Z8A6TOU  cannot be made into a system file and is referenced.
   X8A_COM_MACS.:X8A6TOU  is referenced.
   Z8A_NAMES.:Z8A6TOU  is referenced.
   Z8A_SUPP_MAC.:Z8A6TOU  is referenced.
   Z8A_DEFC.:Z8A6TOU  cannot be made into a system file and is referenced.
      No diagnostics issued in procedure Z8EQ$CHECK_FOR_INTEGER_ITEM.

   Procedure Z8EQ$CHECK_FOR_INTEGER_ITEM requires 136 words for executable code.
   Procedure Z8EQ$CHECK_FOR_INTEGER_ITEM requires 20 words of local(AUTO) storage.

PL6.E3A0      #001=Z8EQ$CHECK_FOR_INTEGER_ITEM File=Z8EQ.:Z8A6TSI                SAT 08/09/97 12:31 Page:5

 Object Unit name= Z8EQ$CHECK_FOR_INTEGER_ITEM                File name= Z8EQ.:Z8A6TOU
 UTS= AUG 09 '97 12:31:42.56 SAT                              Compiler= PL-6/E31         Sev=      00
 SharedLib= :SHARED_SYSTEM                                    Alt SharedLib=


    ****  Control sections  ****

 Sect   Type Bound  Init  Size OctSiz  Section name(segment info)
    0  LblCom even  none     1      1  ITERATION
    1  LblCom even  none     1      1  ST$
    2  LblCom even  none     5      5  ST_
    3  LblCom even  none     1      1  ETT$
    4  LblCom even  none     1      1  HEAD_ETT$
    5  LblCom even  none   512   1000  ETT_BUCKETS
    6  LblCom even  none     5      5  ETT_
    7  LblCom even  none    90    132  LEX_SYMBOL
    8  LblCom even  none     1      1  CURRENT_LEX_SYMBOL$
    9  LblCom even  none    90    132  TEMP_LEX_SYMBOL
   10  LblCom even  none    90    132  TEMP_LEX_SYMBOL2
   11  LblCom even  none     8     10  TEMP_LX_NODE
   12   Proc  even  none   136    210  Z8EQ$CHECK_FOR_INTEGER_ITEM
   13  RoData even  none     8     10  Z8EQ$CHECK_FOR_INTEGER_ITEM

    ****  Entry defs  ****

                              Check   Calling
                             calling  sequence
  Sect OctLoc Primary Altret sequence   type   Parms  Name
    12      0   yes    yes     yes      Std        2  Z8EQ$CHECK_FOR_INTEGER_ITEM
PL6.E3A0      #001=Z8EQ$CHECK_FOR_INTEGER_ITEM File=Z8EQ.:Z8A6TSI                SAT 08/09/97 12:31 Page:6

  ****  Entry refs  ****

         Check        Calling
        calling       sequence
Altret sequence SRef   type   Args  Name
         yes           Std       2 Z8AU$TYPE_DESCRIPTOR
         yes           Std       3 Z8EV$CONVERT
         yes           Std      12 Z8AE$ERROR
         yes           Std       2 Z8AT$CREATE_TEMPORARY
         yes           Std       4 Z8AF$FORME
                       nStd      0 X66_AUTO_2
                       nStd      0 X66_AALT
                       nStd      0 X66_ARET

  ****  Data refs  ****

  Flags:  r = read only, s = secondary
Flgs Name                             Flgs Name                             Flgs Name
     COMCOM

  ****  Segment refs  ****

  Flags:  r = read only, s = secondary
Flgs Name                             Flgs Name                             Flgs Name
     NULLSID                               ISSID
PL6.E3A0      #001=Z8EQ$CHECK_FOR_INTEGER_ITEM File=Z8EQ.:Z8A6TSI                SAT 08/09/97 12:31 Page:7


        1        1        /*T***********************************************************/
        2        2        /*T*                                                         */
        3        3        /*T* Copyright (c) Bull HN Information Systems Inc., 1997    */
        4        4        /*T*                                                         */
        5        5        /*T***********************************************************/
        6        6        Z8EQ$CHECK_FOR_INTEGER_ITEM: PROC (ITEM_TO_CHECK$, ERROR#) ALTRET;

      6 12 000000   000000 700200 xent  Z8EQ$CHECK_* TSX0  ! X66_AUTO_2
        12 000001   000024 000002                    ZERO    20,2
        12 000002   000054 710000 12                 TRA     s:12674

        7        7
        8        8        %EQU PHASE = 1;
        9        9
       10       10        %INCLUDE Z8A_DEFC;
       11       78        %INCLUDE Z8A_SUPP_MAC;
       12     2478        %INCLUDE Z8A_COMCOM;
       13     3128        %INCLUDE Z8A_ERR_NUMS;
       14     3892        %INCLUDE Z8A_TYPES;
       15     4066        %INCLUDE Z8A_ST;
       16     7725        %INCLUDE Z8A_ETT;
       17     8026
       18     8027        %INCLUDE Z8E_STACKS;
       19    10293        %INCLUDE Z8E_WINDOW;
       20    12363        %INCLUDE Z8E_ABSSYN;
       21    12569
       22    12570    1   DCL Z8AE$ERROR                ENTRY  (12);
       23    12571    1   DCL Z8AU$TYPE_DESCRIPTOR      ENTRY  (2);
       24    12572    1   DCL Z8AT$CREATE_TEMPORARY     ENTRY  (2);
       25    12573    1   DCL Z8AF$FORME                ENTRY  (4);
       26    12574    1   DCL Z8EV$CONVERT              ENTRY  (3);
       27    12575
       28    12576    1   DCL ITEM_TO_CHECK$            PTR;
       29    12577    1   DCL ERROR#                    SBIN WORD;
       30    12578
       31    12579    1   DCL 1 TYPE_DESC               ALIGNED,
PL6.E3A0      #001=Z8EQ$CHECK_FOR_INTEGER_ITEM File=Z8EQ.:Z8A6TSI                SAT 08/09/97 12:31 Page:8
       32    12580             %TYPE_DESC;
       33    12614
       34    12615
       35    12616    1   RECOVERY: PROC (INVALID_ITEM$);

  12616 12 000003   200012 741300       RECOVERY     STX1  ! TYPE_DESC+5,,AUTO

       36    12617
       37    12618    2   DCL INVALID_ITEM$             PTR;
       38    12619
       39    12620    2   DCL TEMP$                     PTR;
       40    12621    2   DCL 1 DESC                    ALIGNED,
       41    12622              %DESCRIPTOR             (LVL = 2, ENDING = YES);
       42    12650
       43    12651    2      CALL Z8AT$CREATE_TEMPORARY (%SCALAR, TEMP$);

  12651 12 000004   200014 630500                    EPPR0   TEMP$,,AUTO
        12 000005   200017 450500                    STP0    DESC+2,,AUTO
        12 000006   000002 236000 13                 LDQ     2
        12 000007   200016 756100                    STQ     DESC+1,,AUTO
        12 000010   200016 630500                    EPPR0   DESC+1,,AUTO
        12 000011   000000 631400 13                 EPPR1   0
        12 000012   000000 701000 xent               TSX1    Z8AT$CREATE_TEMPORARY
        12 000013   000000 011000                    NOP     0

       44    12652
       45    12653    2      TEMP$ -> SCALAR.TYPE = %TYI;

  12653 12 000014   000001 220003                    LDX0    1,DU
        12 000015   200014 470500                    LDP0    TEMP$,,AUTO
        12 000016   000002 740100                    STX0    2,,PR0

       46    12654           %BUILD_BINARY_DESC (@DESC = DESC,
       47    12655                               @LENGTH = %TYI_LENGTH);

  12659 12 000017   200015 450100                    STZ     DESC,,AUTO

PL6.E3A0      #001=Z8EQ$CHECK_FOR_INTEGER_ITEM File=Z8EQ.:Z8A6TSI                SAT 08/09/97 12:31 Page:9
  12660 12 000020   000004 236007                    LDQ     4,DL
        12 000021   200015 752101                    STCQ    DESC,'01'O,AUTO

       48    12663
       49    12664    2      TEMP$ -> SCALAR.DESCL = DESC.DESCL;

  12664 12 000022   200015 721100                    LXL1    DESC,,AUTO
        12 000023   200014 470500                    LDP0    TEMP$,,AUTO
        12 000024   000001 441100                    SXL1    1,,PR0

       50    12665    2      CALL Z8AF$FORME (%BASE, TEMP$, ADDR(NIL), TEMP$);

  12665 12 000025   000003 236000 13                 LDQ     3
        12 000026   200016 756100                    STQ     DESC+1,,AUTO
        12 000027   200014 630500                    EPPR0   TEMP$,,AUTO
        12 000030   200023 450500                    STP0    DESC+6,,AUTO
        12 000031   200016 631500                    EPPR1   DESC+1,,AUTO
        12 000032   200022 451500                    STP1    DESC+5,,AUTO
        12 000033   200014 633500                    EPPR3   TEMP$,,AUTO
        12 000034   200021 453500                    STP3    DESC+4,,AUTO
        12 000035   000006 236000 13                 LDQ     6
        12 000036   200020 756100                    STQ     DESC+3,,AUTO
        12 000037   200020 630500                    EPPR0   DESC+3,,AUTO
        12 000040   000004 631400 13                 EPPR1   4
        12 000041   000000 701000 xent               TSX1    Z8AF$FORME
        12 000042   000000 011000                    NOP     0

       51    12666
       52    12667    2      INVALID_ITEM$ -> LX_ETT_ITEM.TYPE = %TYI;

  12667 12 000043   200013 470500                    LDP0    @INVALID_ITEM$,,AUTO
        12 000044   000000 471500                    LDP1    0,,PR0
        12 000045   000001 235007                    LDA     1,DL
        12 000046   100004 755100                    STA     4,,PR1

       53    12668    2      INVALID_ITEM$ -> LX_ETT_ITEM.ETT$ = TEMP$;

PL6.E3A0      #001=Z8EQ$CHECK_FOR_INTEGER_ITEM File=Z8EQ.:Z8A6TSI                SAT 08/09/97 12:31 Page:10
  12668 12 000047   000000 471500                    LDP1    0,,PR0
        12 000050   200014 236100                    LDQ     TEMP$,,AUTO
        12 000051   100001 756100                    STQ     1,,PR1

       54    12669
       55    12670    2   END RECOVERY;

  12670 12 000052   200012 221300                    LDX1  ! TYPE_DESC+5,,AUTO
        12 000053   000001 702211                    TSX2  ! 1,X1

       56    12671        %EJECT;
PL6.E3A0      #001=Z8EQ$CHECK_FOR_INTEGER_ITEM File=Z8EQ.:Z8A6TSI                SAT 08/09/97 12:31 Page:11
       57    12672
       58    12673
       59    12674    1      CALL Z8AU$TYPE_DESCRIPTOR (ITEM_TO_CHECK$ -> LX_ETT_ITEM.ETT$, TYPE_DESC);

  12674 12 000054   200003 470500                    LDP0    @ITEM_TO_CHECK$,,AUTO
        12 000055   000000 471500                    LDP1    0,,PR0
        12 000056   200005 633500                    EPPR3   TYPE_DESC,,AUTO
        12 000057   200017 453500                    STP3    DESC+2,,AUTO
        12 000060   100001 634500                    EPPR4   1,,PR1
        12 000061   200016 454500                    STP4    DESC+1,,AUTO
        12 000062   200016 630500                    EPPR0   DESC+1,,AUTO
        12 000063   000000 631400 13                 EPPR1   0
        12 000064   000000 701000 xent               TSX1    Z8AU$TYPE_DESCRIPTOR
        12 000065   000000 011000                    NOP     0

       60    12675
       61    12676    2      DO CASE (TYPE_DESC.TYPE);

  12676 12 000066   200005 235100                    LDA     TYPE_DESC,,AUTO
        12 000067   000024 115007                    CMPA    20,DL
        12 000070   000072 602005 12                 TNC     s:12676+4,AL
        12 000071   000166 710000 12                 TRA     s:12697
        12 000072   000127 710000 12                 TRA     s:12685
        12 000073   000207 710000 12                 TRA     s:12705
        12 000074   000116 710000 12                 TRA     s:12682
        12 000075   000127 710000 12                 TRA     s:12685
        12 000076   000166 710000 12                 TRA     s:12697
        12 000077   000166 710000 12                 TRA     s:12697
        12 000100   000166 710000 12                 TRA     s:12697
        12 000101   000116 710000 12                 TRA     s:12682
        12 000102   000166 710000 12                 TRA     s:12697
        12 000103   000166 710000 12                 TRA     s:12697
        12 000104   000166 710000 12                 TRA     s:12697
        12 000105   000127 710000 12                 TRA     s:12685
        12 000106   000166 710000 12                 TRA     s:12697
        12 000107   000166 710000 12                 TRA     s:12697
        12 000110   000166 710000 12                 TRA     s:12697
PL6.E3A0      #001=Z8EQ$CHECK_FOR_INTEGER_ITEM File=Z8EQ.:Z8A6TSI                SAT 08/09/97 12:31 Page:12
        12 000111   000116 710000 12                 TRA     s:12682
        12 000112   000166 710000 12                 TRA     s:12697
        12 000113   000166 710000 12                 TRA     s:12697
        12 000114   000166 710000 12                 TRA     s:12697
        12 000115   000127 710000 12                 TRA     s:12685

       62    12677
       63    12678    2        CASE(%TYI);

       64    12679               /* All Ok */
       65    12680
       66    12681    2        CASE(%TYH, %TYJ, %TYK);

       67    12682    2          CALL Z8EV$CONVERT (%TYI, ITEM_TO_CHECK$, ITEM_TO_CHECK$);

  12682 12 000116   200003 236100                    LDQ     @ITEM_TO_CHECK$,,AUTO
        12 000117   200020 756100                    STQ     DESC+3,,AUTO
        12 000120   000006 235000 13                 LDA     6
        12 000121   200016 757100                    STAQ    DESC+1,,AUTO
        12 000122   200016 630500                    EPPR0   DESC+1,,AUTO
        12 000123   000007 631400 13                 EPPR1   7
        12 000124   000000 701000 xent               TSX1    Z8EV$CONVERT
        12 000125   000000 011000                    NOP     0
        12 000126   000207 710000 12                 TRA     s:12705

       68    12683
       69    12684    2        CASE(%TYD, %TYO, %TYF, %TYC);

       70    12685    2          IF TYPE_DESC.DESC.NDSC.SF < 0 THEN

  12685 12 000127   200006 236100                    LDQ     TYPE_DESC+1,,AUTO
        12 000130   000030 736000                    QLS     24
        12 000131   000036 732000                    QRS     30
        12 000132   000000 116003                    CMPQ    0,DU
        12 000133   000155 605000 12                 TPL     s:12694

       71    12686    3            DO;
PL6.E3A0      #001=Z8EQ$CHECK_FOR_INTEGER_ITEM File=Z8EQ.:Z8A6TSI                SAT 08/09/97 12:31 Page:13

       72    12687    3              CALL Z8AE$ERROR (ERROR#,

  12687 12 000134   200003 470500                    LDP0    @ITEM_TO_CHECK$,,AUTO
        12 000135   000000 471500                    LDP1    0,,PR0
        12 000136   100006 633500                    EPPR3   6,,PR1
        12 000137   200020 453500                    STP3    DESC+3,,AUTO
        12 000140   100005 634500                    EPPR4   5,,PR1
        12 000141   200017 454500                    STP4    DESC+2,,AUTO
        12 000142   200004 236100                    LDQ     @ERROR#,,AUTO
        12 000143   200016 756100                    STQ     DESC+1,,AUTO
        12 000144   200016 630500                    EPPR0   DESC+1,,AUTO
        12 000145   000007 631400 13                 EPPR1   7
        12 000146   000000 701000 xent               TSX1    Z8AE$ERROR
        12 000147   000000 011000                    NOP     0

       73    12688    3                               ITEM_TO_CHECK$ -> LX_ETT_ITEM.LINE,
       74    12689    3                               ITEM_TO_CHECK$ -> LX_ETT_ITEM.COLUMN);
       75    12690    3              CALL RECOVERY (ITEM_TO_CHECK$);

  12690 12 000150   200003 236100                    LDQ     @ITEM_TO_CHECK$,,AUTO
        12 000151   200013 756100                    STQ     TYPE_DESC+6,,AUTO
        12 000152   000003 701000 12                 TSX1    RECOVERY
        12 000153   000000 011000                    NOP     0

       76    12691    3              ALTRETURN;

  12691 12 000154   000000 702200 xent               TSX2  ! X66_AALT

       77    12692    3            END;
       78    12693
       79    12694    2          CALL Z8EV$CONVERT (%TYI, ITEM_TO_CHECK$, ITEM_TO_CHECK$);

  12694 12 000155   200003 236100                    LDQ     @ITEM_TO_CHECK$,,AUTO
        12 000156   200020 756100                    STQ     DESC+3,,AUTO
        12 000157   000006 235000 13                 LDA     6
        12 000160   200016 757100                    STAQ    DESC+1,,AUTO
PL6.E3A0      #001=Z8EQ$CHECK_FOR_INTEGER_ITEM File=Z8EQ.:Z8A6TSI                SAT 08/09/97 12:31 Page:14
        12 000161   200016 630500                    EPPR0   DESC+1,,AUTO
        12 000162   000007 631400 13                 EPPR1   7
        12 000163   000000 701000 xent               TSX1    Z8EV$CONVERT
        12 000164   000000 011000                    NOP     0
        12 000165   000207 710000 12                 TRA     s:12705

       80    12695
       81    12696    2        CASE(ELSE);

       82    12697    2          CALL Z8AE$ERROR (ERROR#,

  12697 12 000166   200003 470500                    LDP0    @ITEM_TO_CHECK$,,AUTO
        12 000167   000000 471500                    LDP1    0,,PR0
        12 000170   100006 633500                    EPPR3   6,,PR1
        12 000171   200020 453500                    STP3    DESC+3,,AUTO
        12 000172   100005 634500                    EPPR4   5,,PR1
        12 000173   200017 454500                    STP4    DESC+2,,AUTO
        12 000174   200004 236100                    LDQ     @ERROR#,,AUTO
        12 000175   200016 756100                    STQ     DESC+1,,AUTO
        12 000176   200016 630500                    EPPR0   DESC+1,,AUTO
        12 000177   000007 631400 13                 EPPR1   7
        12 000200   000000 701000 xent               TSX1    Z8AE$ERROR
        12 000201   000000 011000                    NOP     0

       83    12698    2                           ITEM_TO_CHECK$ -> LX_ETT_ITEM.LINE,
       84    12699    2                           ITEM_TO_CHECK$ -> LX_ETT_ITEM.COLUMN);
       85    12700    2          CALL RECOVERY (ITEM_TO_CHECK$);

  12700 12 000202   200003 236100                    LDQ     @ITEM_TO_CHECK$,,AUTO
        12 000203   200013 756100                    STQ     TYPE_DESC+6,,AUTO
        12 000204   000003 701000 12                 TSX1    RECOVERY
        12 000205   000000 011000                    NOP     0

       86    12701    2          ALTRETURN;

  12701 12 000206   000000 702200 xent               TSX2  ! X66_AALT

PL6.E3A0      #001=Z8EQ$CHECK_FOR_INTEGER_ITEM File=Z8EQ.:Z8A6TSI                SAT 08/09/97 12:31 Page:15
       87    12702
       88    12703    2      END; /* Case */

       89    12704
       90    12705    1   END Z8EQ$CHECK_FOR_INTEGER_ITEM; /* Proc */

  12705 12 000207   000000 702200 xent               TSX2  ! X66_ARET
       91    12706        %EOD;

PL6.E3A0      #001=Z8EQ$CHECK_FOR_INTEGER_ITEM File=Z8EQ.:Z8A6TSI                SAT 08/09/97 12:31 Page:16
--  Include file information  --

   Z8E_ABSSYN.:Z8A6TOU  cannot be made into a system file and is referenced.
   Z8E_WINDOW.:Z8A6TOU  is referenced.
   Z8A_LEX_SYMB.:Z8A6TOU  cannot be made into a system file and is referenced.
   Z8E_STACKS.:Z8A6TOU  cannot be made into a system file and is referenced.
   Z8A_ETT.:Z8A6TOU  cannot be made into a system file and is referenced.
   Z8A_ST.:Z8A6TOU  cannot be made into a system file and is referenced.
   Z8A_TYPES.:Z8A6TOU  is referenced.
   Z8A_ERR_NUMS.:Z8A6TOU  is referenced.
   Z8A_COMCOM.:Z8A6TOU  cannot be made into a system file and is referenced.
   X8A_COM_MACS.:X8A6TOU  is referenced.
   Z8A_NAMES.:Z8A6TOU  is referenced.
   Z8A_SUPP_MAC.:Z8A6TOU  is referenced.
   Z8A_DEFC.:Z8A6TOU  cannot be made into a system file and is referenced.
      No diagnostics issued in procedure Z8EQ$CHECK_FOR_INTEGER_ITEM.
PL6.E3A0      #001=Z8EQ$CHECK_FOR_INTEGER_ITEM File=Z8EQ.:Z8A6TSI                SAT 08/09/97 12:31 Page:17

 **** Variables and constants ****

  ****  Section 000 LblCom ITERATION

  ****  Scalars and arrays  ****
OctLoc.c.b A Datatyp(siz) R M Lvl/name                 OctLoc.c.b A Datatyp(siz) R M Lvl/name

     0-0-0/w SBIN              1 ITERATION

  ****  Section 001 LblCom ST$

  ****  Scalars and arrays  ****
OctLoc.c.b A Datatyp(siz) R M Lvl/name                 OctLoc.c.b A Datatyp(siz) R M Lvl/name

     0-0-0/w PTR         r     1 ST$

  ****  Section 002 LblCom ST_

  ****  Scalars and arrays  ****
OctLoc.c.b A Datatyp(siz) R M Lvl/name                 OctLoc.c.b A Datatyp(siz) R M Lvl/name

     0-0-0/w STRC(180)         1 ST_

  ****  Section 003 LblCom ETT$

  ****  Scalars and arrays  ****
OctLoc.c.b A Datatyp(siz) R M Lvl/name                 OctLoc.c.b A Datatyp(siz) R M Lvl/name

     0-0-0/w PTR         r     1 ETT$

  ****  Section 004 LblCom HEAD_ETT$

  ****  Scalars and arrays  ****
OctLoc.c.b A Datatyp(siz) R M Lvl/name                 OctLoc.c.b A Datatyp(siz) R M Lvl/name

     0-0-0/w PTR               1 HEAD_ETT$

PL6.E3A0      #001=Z8EQ$CHECK_FOR_INTEGER_ITEM File=Z8EQ.:Z8A6TSI                SAT 08/09/97 12:31 Page:18
  ****  Section 005 LblCom ETT_BUCKETS

  ****  Scalars and arrays  ****
OctLoc.c.b A Datatyp(siz) R M Lvl/name                 OctLoc.c.b A Datatyp(siz) R M Lvl/name

     0-0-0/w PTR               1 ETT_BUCKETS(0:511)

  ****  Section 006 LblCom ETT_

  ****  Scalars and arrays  ****
OctLoc.c.b A Datatyp(siz) R M Lvl/name                 OctLoc.c.b A Datatyp(siz) R M Lvl/name

     0-0-0/w STRC(180)         1 ETT_

  ****  Section 007 LblCom LEX_SYMBOL

  ****  Scalars and arrays  ****
OctLoc.c.b A Datatyp(siz) R M Lvl/name                 OctLoc.c.b A Datatyp(siz) R M Lvl/name

     0-0-0/w STRC(3240)  r     1 LEX_SYMBOL                 0-0-0/w STRC(3240)        1 LEX_SYMBOL_WORDS

  ****  Section 008 LblCom CURRENT_LEX_SYMBOL$

  ****  Scalars and arrays  ****
OctLoc.c.b A Datatyp(siz) R M Lvl/name                 OctLoc.c.b A Datatyp(siz) R M Lvl/name

     0-0-0/w PTR         r     1 CURRENT_LEX_SYMBOL$

  ****  Section 009 LblCom TEMP_LEX_SYMBOL

  ****  Scalars and arrays  ****
OctLoc.c.b A Datatyp(siz) R M Lvl/name                 OctLoc.c.b A Datatyp(siz) R M Lvl/name

     0-0-0/w STRC(3240)        1 TEMP_LEX_SYMBOL

  ****  Section 010 LblCom TEMP_LEX_SYMBOL2

PL6.E3A0      #001=Z8EQ$CHECK_FOR_INTEGER_ITEM File=Z8EQ.:Z8A6TSI                SAT 08/09/97 12:31 Page:19
  ****  Scalars and arrays  ****
OctLoc.c.b A Datatyp(siz) R M Lvl/name                 OctLoc.c.b A Datatyp(siz) R M Lvl/name

     0-0-0/w STRC(3240)        1 TEMP_LEX_SYMBOL2

  ****  Section 011 LblCom TEMP_LX_NODE

  ****  Scalars and arrays  ****
OctLoc.c.b A Datatyp(siz) R M Lvl/name                 OctLoc.c.b A Datatyp(siz) R M Lvl/name

     0-0-0/d STRC(288)         1 TEMP_LX_NODE

  ****  Auto variables  ****

  ****  Scalars and arrays  ****
OctLoc.c.b A Datatyp(siz) R M Lvl/name                 OctLoc.c.b A Datatyp(siz) R M Lvl/name

     4-0-0/w PTR         r     1 @ERROR#                   13-0-0/w PTR         r     1 @INVALID_ITEM$
     3-0-0/w PTR         r     1 @ITEM_TO_CHECK$           15-0-0/w STRC        r     1 DESC
    *0-0-0/w SBIN        r     1 ERROR#                    *0-0-0/w PTR         r     1 INVALID_ITEM$
    *0-0-0/w PTR         r     1 ITEM_TO_CHECK$            14-0-0/w PTR         r     1 TEMP$
     5-0-0/w STRC(144)   r     1 TYPE_DESC

  ****  SYMREF variables  ****

  ****  Scalars and arrays  ****
OctLoc.c.b A Datatyp(siz) R M Lvl/name                 OctLoc.c.b A Datatyp(siz) R M Lvl/name

     0-0-0/d STRC(13248)       1 COMCOM

  ****  BASED and DCB variables  ****

  ****  Scalars and arrays  ****
OctLoc.c.b A Datatyp(siz) R M Lvl/name                 OctLoc.c.b A Datatyp(siz) R M Lvl/name

     0-0-0/w STRC(288)         1 ADD_STMT                   0-0-0/w STRC(396)         1 ALPHABET
     0-0-0/w STRC(396)         1 ARRAY                      0-0-0/w ASTR(324)   r     1 BASED_LEX_SYMBOL
PL6.E3A0      #001=Z8EQ$CHECK_FOR_INTEGER_ITEM File=Z8EQ.:Z8A6TSI                SAT 08/09/97 12:31 Page:20
     0-0-0/w STRC(360)         1 BASED_LEX_SYMBOL_WORDS
     0-0-0/w STRC(288)         1 BINARY_OP                  0-0-0/w STRC(396)         1 BLOCK
     0-0-0/w STRC(288)         1 CALL_STMT                  0-0-0/w STRC(396)         1 CD
     0-0-0/w CHAR(4096)        1 CHARS                      0-0-0/w STRC(396)         1 CLASS
     0-0-0/w STRC(288)         1 COMPUTE_STMT               0-0-0/w STRC(396)         1 CONDITION
     0-0-0/w STRC(396)         1 CONST                      0-0-0/w STRC(72)          1 CONT
     0-0-0/w STRC(396)         1 DB                         0-0-0/w STRC(396)         1 DCB_
     0-0-0/w STRC(288)         1 DEFERED_IDENTIFIER         0-0-0/w STRC(252)         1 DEFERED_ID_TREE
     0-0-0/w STRC(288)         1 DEFERED_QUAL_ID            0-0-0/w STRC(288)         1 DEFERED_SUM_CLAUSE
     0-0-0/w STRC(288)         1 DEFERED_SUM_CLAUSE_LIST
     0-0-0/w STRC(288)         1 DELETE_STMT                0-0-0/w STRC(288)         1 DIVIDE_STMT
     0-0-0/w STRC(396)         1 DML_ITEM                   0-0-0/w STRC(180)         1 ETT
     0-0-0/w STRC(396)         1 FD                         0-0-0/w STRC(288)         1 ILS_LIST
     0-0-0/w STRC(288)         1 INSPECT_1_STMT             0-0-0/w STRC(288)         1 INSPECT_2_STMT
     0-0-0/w STRC(288)         1 INSPECT_4_STMT             0-0-0/w STRC(396)         1 INTDEF
     0-0-0/w STRC(396)         1 LABEL                      0-0-0/w STRC(288)         1 LA_ITEM
     0-0-0/w STRC(504)         1 LX_CD_INPUT                0-0-0/w STRC(324)         1 LX_CD_I_O
     0-0-0/w STRC(396)         1 LX_CD_OUTPUT               0-0-0/w STRC(288)   r     1 LX_ETT_ITEM
     0-0-0/w STRC(288)         1 LX_ITEM                    0-0-0/w STRC(288)         1 LX_LARGE
     0-0-0/w STRC(288)         1 LX_LIST                    0-0-0/w STRC(1224)        1 LX_REC_DECL
     0-0-0/w STRC(864)         1 LX_REPORT_REC              0-0-0/w STRC(288)         1 LX_TERMINAL
     0-0-0/w STRC(396)         1 MNEMONIC                   0-0-0/w STRC(288)         1 MULTIPLY_STMT
     0-0-0/w STRC(36864)       1 PAGE                       0-0-0/w STRC(396)         1 PARA
     0-0-0/w STRC(396)         1 PROC_                      0-0-0/w STRC(396)         1 PROC_DEF
     0-0-0/w STRC(396)         1 RD                         0-0-0/w STRC(288)         1 READ_STMT
     0-0-0/w STRC(288)         1 REWRITE_STMT               0-0-0/w STRC(396)   r     1 SCALAR
     0-0-0/w STRC(396)         1 SD                         0-0-0/w STRC(396)         1 SECTION
     0-0-0/w STRC(396)         1 SEGMENT                    0-0-0/w STRC(396)         1 ST
     0-0-0/w STRC(288)         1 START_STMT                 0-0-0/w STRC(252)         1 STRING_STMT
     0-0-0/w STRC(288)         1 SUBTRACT_STMT              0-0-0/w STRC(396)         1 SWITCH
     0-0-0/w STRC(396)         1 SYMBOLIC_CHAR              0-0-0/w STRC(396)         1 SYMDEF_
     0-0-0/w STRC(396)         1 SYMREF_                    0-0-0/w STRC(396)         1 TEMP
     0-0-0/w STRC(288)         1 UNARY_OP                   0-0-0/w STRC(288)         1 UNSTRING_STMT
     0-0-0/w STRC(396)         1 VARIABLE                   0-0-0/w STRC(288)         1 WRITE_STMT

PL6.E3A0      #001=Z8EQ$CHECK_FOR_INTEGER_ITEM File=Z8EQ.:Z8A6TSI                SAT 08/09/97 12:31 Page:21

   Procedure Z8EQ$CHECK_FOR_INTEGER_ITEM requires 136 words for executable code.
   Procedure Z8EQ$CHECK_FOR_INTEGER_ITEM requires 20 words of local(AUTO) storage.

PL6.E3A0      #002=Z8EQ$CREATE_DO_TIMES File=Z8EQ.:Z8A6TSI                       SAT 08/09/97 12:33 Page:22
       92        1        /*T***********************************************************/
       93        2        /*T*                                                         */
       94        3        /*T* Copyright (c) Bull HN Information Systems Inc., 1997    */
       95        4        /*T*                                                         */
       96        5        /*T***********************************************************/
       97        6        Z8EQ$CREATE_DO_TIMES: PROC (TIMES_ETT$,
       98        7                                    DO_ILS$);
       99        8
      100        9    1     DCL TIMES_ETT$ PTR;
      101       10    1     DCL DO_ILS$ PTR;  /* TO ILS_LIST */
      102       11
      103       12        %EQU PHASE = 1;
      104       13        %INCLUDE Z8A_DEFC;
      105       81        %INCLUDE Z8A_SUPP_MAC;
      106     2481        %INCLUDE Z8A_ILL;
      107     3174        %INCLUDE Z8A_ILS;
      108     3283        %INCLUDE Z8E_STACKS;
      109     5549        %INCLUDE Z8E_O1COM;
      110     6310        %INCLUDE Z8E_MACROS;
      111     6985        %INCLUDE Z8E_ILS_LIST;
      112     7069        %INCLUDE Z8E_STATEMNT;
      113     7138
      114     7139        %DCL_AUTO_LX_ITEM (@NAME = DO_BODY);
      115     7143
      116     7144    1   DCL ILS_LIST$ PTR;
      117     7145
      118     7146
      119     7147    1     ILS_LIST$ = DO_ILS$;
      120     7148    1     GOTO DO_MERGE;
      121     7149
      122     7150    1   Z8EQ$MERGE_DO_TIMES : ENTRY (TIMES_ETT$);
      123     7151
      124     7152    1     ILS_LIST$ = ADDR(DO_BODY);
      125     7153    1     DO_BODY = O1COM.ILS_LIST;
      126     7154          %INIT_ILS_LIST (@POINTER = "ADDR(O1COM.ILS_LIST)");
      127     7162
      128     7163    1     DO_MERGE:
PL6.E3A0      #002=Z8EQ$CREATE_DO_TIMES File=Z8EQ.:Z8A6TSI                       SAT 08/09/97 12:33 Page:23
      129     7164
      130     7165            %NEW_ILL ( @ID = %DO2,
      131     7166                       @TIMES$ = TIMES_ETT$);
      132     7545
      133     7546            %APPEND_ILS_LIST (@FROM$ = ILS_LIST$,
      134     7547                              @TO$ = "ADDR(O1COM.ILS_LIST)");
      135     7564
      136     7565            %SET_PHASE_1_POSITION
      137     7566                (@TYPE   = %S_TYPE_PERFORM,
      138     7567                 @LINE   = "ADDR (O1COM.LX_STK (O1COM.LX_TOP)) -> LX_TERMINAL.LINE",
      139     7568                 @COLUMN = "ADDR (O1COM.LX_STK (O1COM.LX_TOP)) -> LX_TERMINAL.COLUMN") ;
      140     7957
      141     7958            %NEW_ILL(@ID = %DOEND);
      142     8337
      143     8338    1   END Z8EQ$CREATE_DO_TIMES;
      144     8339        %EOD;

PL6.E3A0      #002=Z8EQ$CREATE_DO_TIMES File=Z8EQ.:Z8A6TSI                       SAT 08/09/97 12:33 Page:24
--  Include file information  --

   Z8E_STATEMNT.:Z8A6TOU  is referenced.
   Z8E_ILS_LIST.:Z8A6TOU  is referenced.
   Z8E_NEW_ILL.:Z8A6TOU  is referenced.
   Z8E_MACROS.:Z8A6TOU  cannot be made into a system file and is referenced.
   Z8E_O1COM.:Z8A6TOU  cannot be made into a system file and is referenced.
   Z8A_LEX_SYMB.:Z8A6TOU  cannot be made into a system file and is referenced.
   Z8E_STACKS.:Z8A6TOU  cannot be made into a system file and is referenced.
   Z8A_ILS.:Z8A6TOU  cannot be made into a system file and is referenced.
   Z8A_ILL.:Z8A6TOU  cannot be made into a system file and is referenced.
   X8A_COM_MACS.:X8A6TOU  is referenced.
   Z8A_NAMES.:Z8A6TOU  is referenced.
   Z8A_SUPP_MAC.:Z8A6TOU  is referenced.
   Z8A_DEFC.:Z8A6TOU  cannot be made into a system file and is referenced.
      No diagnostics issued in procedure Z8EQ$CREATE_DO_TIMES.

   Procedure Z8EQ$CREATE_DO_TIMES requires 87 words for executable code.
   Procedure Z8EQ$CREATE_DO_TIMES requires 22 words of local(AUTO) storage.

PL6.E3A0      #002=Z8EQ$CREATE_DO_TIMES File=Z8EQ.:Z8A6TSI                       SAT 08/09/97 12:33 Page:25

 Object Unit name= Z8EQ$CREATE_DO_TIMES                       File name= Z8EQ.:Z8A6TOU
 UTS= AUG 09 '97 12:33:26.92 SAT                              Compiler= PL-6/E31         Sev=      00
 SharedLib= :SHARED_SYSTEM                                    Alt SharedLib=


    ****  Control sections  ****

 Sect   Type Bound  Init  Size OctSiz  Section name(segment info)
    0  LblCom even  none     1      1  ITERATION
    1  LblCom even  none     1      1  ILL$
    2  LblCom even  none     5      5  ILL_
    3  LblCom even  none     1      1  ILS$
    4  LblCom even  none     5      5  ILS_
    5  LblCom even  none    90    132  LEX_SYMBOL
    6  LblCom even  none     1      1  CURRENT_LEX_SYMBOL$
    7  LblCom even  none    90    132  TEMP_LEX_SYMBOL
    8  LblCom even  none    90    132  TEMP_LEX_SYMBOL2
    9   Proc  even  none    87    127  Z8EQ$CREATE_DO_TIMES
   10  RoData even  none    16     20  Z8EQ$CREATE_DO_TIMES

    ****  Entry defs  ****

                              Check   Calling
                             calling  sequence
  Sect OctLoc Primary Altret sequence   type   Parms  Name
     9      0   yes            yes      Std        2  Z8EQ$CREATE_DO_TIMES
     9      6                  yes      Std        1  Z8EQ$MERGE_DO_TIMES

  ****  Entry refs  ****

         Check        Calling
        calling       sequence
Altret sequence SRef   type   Args  Name
         yes           Std       4 Z8AN$NEW_ILL
                       nStd      0 X66_AUTO_2
                       nStd      0 X66_ARET
PL6.E3A0      #002=Z8EQ$CREATE_DO_TIMES File=Z8EQ.:Z8A6TSI                       SAT 08/09/97 12:33 Page:26

  ****  Data refs  ****

  Flags:  r = read only, s = secondary
Flgs Name                             Flgs Name                             Flgs Name
r    ILL_STEP                         r    ILS_STEP_TABLE                        O1COM
     HIER_STK_PTR                          HIER_STK                              PAGE_FORMAT
     REP_STK_PTR                           REP_STK

  ****  Segment refs  ****

  Flags:  r = read only, s = secondary
Flgs Name                             Flgs Name                             Flgs Name
     NULLSID                               ISSID
PL6.E3A0      #002=Z8EQ$CREATE_DO_TIMES File=Z8EQ.:Z8A6TSI                       SAT 08/09/97 12:33 Page:27


       92        1        /*T***********************************************************/
       93        2        /*T*                                                         */
       94        3        /*T* Copyright (c) Bull HN Information Systems Inc., 1997    */
       95        4        /*T*                                                         */
       96        5        /*T***********************************************************/
       97        6        Z8EQ$CREATE_DO_TIMES: PROC (TIMES_ETT$,

      6  9 000000   000000 700200 xent  Z8EQ$CREATE* TSX0  ! X66_AUTO_2
         9 000001   000026 000002                    ZERO    22,2

       98        7                                    DO_ILS$);
       99        8
      100        9    1     DCL TIMES_ETT$ PTR;
      101       10    1     DCL DO_ILS$ PTR;  /* TO ILS_LIST */
      102       11
      103       12        %EQU PHASE = 1;
      104       13        %INCLUDE Z8A_DEFC;
      105       81        %INCLUDE Z8A_SUPP_MAC;
      106     2481        %INCLUDE Z8A_ILL;
      107     3174        %INCLUDE Z8A_ILS;
      108     3283        %INCLUDE Z8E_STACKS;
      109     5549        %INCLUDE Z8E_O1COM;
      110     6310        %INCLUDE Z8E_MACROS;
      111     6985        %INCLUDE Z8E_ILS_LIST;
      112     7069        %INCLUDE Z8E_STATEMNT;
      113     7138
      114     7139        %DCL_AUTO_LX_ITEM (@NAME = DO_BODY);
      115     7143
      116     7144    1   DCL ILS_LIST$ PTR;
      117     7145
      118     7146
      119     7147    1     ILS_LIST$ = DO_ILS$;

   7147  9 000002   200004 470500                    LDP0    @DO_ILS$,,AUTO
         9 000003   000000 236100                    LDQ     0,,PR0
         9 000004   200016 756100                    STQ     ILS_LIST$,,AUTO
PL6.E3A0      #002=Z8EQ$CREATE_DO_TIMES File=Z8EQ.:Z8A6TSI                       SAT 08/09/97 12:33 Page:28

      120     7148    1     GOTO DO_MERGE;

   7148  9 000005   000023 710000 9                  TRA     DO_MERGE

      121     7149
      122     7150    1   Z8EQ$MERGE_DO_TIMES : ENTRY (TIMES_ETT$);

   7150  9 000006   000000 700200 xent  Z8EQ$MERGE_* TSX0  ! X66_AUTO_2
         9 000007   000026 000002                    ZERO    22,2

      123     7151
      124     7152    1     ILS_LIST$ = ADDR(DO_BODY);

   7152  9 000010   200006 630500                    EPPR0   DO_BODY,,AUTO
         9 000011   200016 450500                    STP0    ILS_LIST$,,AUTO

      125     7153    1     DO_BODY = O1COM.ILS_LIST;

   7153  9 000012   000100 100400                    MLR     fill='000'O
         9 000013   000016 000040 xsym               ADSC9   O1COM+14                 cn=0,n=32
         9 000014   200006 000040                    ADSC9   DO_BODY,,AUTO            cn=0,n=32

      126     7154          %INIT_ILS_LIST (@POINTER = "ADDR(O1COM.ILS_LIST)");

   7156  9 000015   000007 220003                    LDX0    7,DU
         9 000016   000016 740000 xsym               STX0    O1COM+14

   7157  9 000017   000000 236000 10                 LDQ     0
         9 000020   000017 756000 xsym               STQ     O1COM+15

   7158  9 000021   000020 756000 xsym               STQ     O1COM+16

   7159  9 000022   000025 756000 xsym               STQ     O1COM+21

      127     7162
      128     7163    1     DO_MERGE:
PL6.E3A0      #002=Z8EQ$CREATE_DO_TIMES File=Z8EQ.:Z8A6TSI                       SAT 08/09/97 12:33 Page:29
      129     7164
      130     7165            %NEW_ILL ( @ID = %DO2,
      131     7166                       @TIMES$ = TIMES_ETT$);

   7197  9 000023                       DO_MERGE     null
   7243  9 000023   000004 236000 10                 LDQ     4
         9 000024   200020 756100                    STQ     ILS_LIST$+2,,AUTO
         9 000025   200020 630500                    EPPR0   ILS_LIST$+2,,AUTO
         9 000026   200025 450500                    STP0    ILS_LIST$+7,,AUTO
         9 000027   000005 236000 10                 LDQ     5
         9 000030   200024 756100                    STQ     ILS_LIST$+6,,AUTO
         9 000031   000006 237000 10                 LDAQ    6
         9 000032   200022 757100                    STAQ    ILS_LIST$+4,,AUTO
         9 000033   200022 630500                    EPPR0   ILS_LIST$+4,,AUTO
         9 000034   000001 631400 10                 EPPR1   1
         9 000035   000000 701000 xent               TSX1    Z8AN$NEW_ILL
         9 000036   000000 011000                    NOP     0

   7244  9 000037   200003 470500                    LDP0    @TIMES_ETT$,,AUTO
         9 000040   000000 236100                    LDQ     0,,PR0
         9 000041   000000 471400 1                  LDP1    ILL$
         9 000042   100007 756100                    STQ     7,,PR1

      132     7545
      133     7546            %APPEND_ILS_LIST (@FROM$ = ILS_LIST$,
      134     7547                              @TO$ = "ADDR(O1COM.ILS_LIST)");

   7553  9 000043   200016 473500                    LDP3    ILS_LIST$,,AUTO
         9 000044   300001 236100                    LDQ     1,,PR3
         9 000045   000000 116000 10                 CMPQ    0
         9 000046   000062 600000 9                  TZE     s:7570

   7554  9 000047   000017 236000 xsym               LDQ     O1COM+15
         9 000050   000000 116000 10                 CMPQ    0
         9 000051   000055 601000 9                  TNZ     s:7558

   7555  9 000052   300001 236100                    LDQ     1,,PR3
PL6.E3A0      #002=Z8EQ$CREATE_DO_TIMES File=Z8EQ.:Z8A6TSI                       SAT 08/09/97 12:33 Page:30
         9 000053   000017 756000 xsym               STQ     O1COM+15

   7556  9 000054   000060 710000 9                  TRA     s:7560

   7558  9 000055   300001 236100                    LDQ     1,,PR3
         9 000056   000020 474400 xsym               LDP4    O1COM+16
         9 000057   400002 756100                    STQ     2,,PR4

   7560  9 000060   300002 236100                    LDQ     2,,PR3
         9 000061   000020 756000 xsym               STQ     O1COM+16

      135     7564
      136     7565            %SET_PHASE_1_POSITION
      137     7566                (@TYPE   = %S_TYPE_PERFORM,
      138     7567                 @LINE   = "ADDR (O1COM.LX_STK (O1COM.LX_TOP)) -> LX_TERMINAL.LINE",
      139     7568                 @COLUMN = "ADDR (O1COM.LX_STK (O1COM.LX_TOP)) -> LX_TERMINAL.COLUMN") ;

   7570  9 000062   000151 235000 xsym               LDA     O1COM+105
         9 000063   000003 735000                    ALS     3
         9 000064   014024 235005 xsym               LDA     O1COM+6164,AL
         9 000065   000007 755000 xsym               STA     O1COM+7

   7571  9 000066   000151 236000 xsym               LDQ     O1COM+105
         9 000067   000003 736000                    QLS     3
         9 000070   014025 235006 xsym               LDA     O1COM+6165,QL
         9 000071   000010 755000 xsym               STA     O1COM+8

   7572  9 000072   000011 235000 xsym               LDA     O1COM+9
         9 000073   000110 600000 9                  TZE     s:7954

   7607  9 000074   000004 236000 10                 LDQ     4
         9 000075   200020 756100                    STQ     ILS_LIST$+2,,AUTO
         9 000076   200020 634500                    EPPR4   ILS_LIST$+2,,AUTO
         9 000077   200025 454500                    STP4    ILS_LIST$+7,,AUTO
         9 000100   000005 236000 10                 LDQ     5
         9 000101   200024 756100                    STQ     ILS_LIST$+6,,AUTO
         9 000102   000012 237000 10                 LDAQ    10
PL6.E3A0      #002=Z8EQ$CREATE_DO_TIMES File=Z8EQ.:Z8A6TSI                       SAT 08/09/97 12:33 Page:31
         9 000103   200022 757100                    STAQ    ILS_LIST$+4,,AUTO
         9 000104   200022 630500                    EPPR0   ILS_LIST$+4,,AUTO
         9 000105   000001 631400 10                 EPPR1   1
         9 000106   000000 701000 xent               TSX1    Z8AN$NEW_ILL
         9 000107   000000 011000                    NOP     0

   7954  9 000110   000034 235007                    LDA     28,DL
         9 000111   000011 755000 xsym               STA     O1COM+9

      140     7957
      141     7958            %NEW_ILL(@ID = %DOEND);

   8032  9 000112   000004 236000 10                 LDQ     4
         9 000113   200020 756100                    STQ     ILS_LIST$+2,,AUTO
         9 000114   200020 630500                    EPPR0   ILS_LIST$+2,,AUTO
         9 000115   200025 450500                    STP0    ILS_LIST$+7,,AUTO
         9 000116   000005 236000 10                 LDQ     5
         9 000117   200024 756100                    STQ     ILS_LIST$+6,,AUTO
         9 000120   000016 237000 10                 LDAQ    14
         9 000121   200022 757100                    STAQ    ILS_LIST$+4,,AUTO
         9 000122   200022 630500                    EPPR0   ILS_LIST$+4,,AUTO
         9 000123   000001 631400 10                 EPPR1   1
         9 000124   000000 701000 xent               TSX1    Z8AN$NEW_ILL
         9 000125   000000 011000                    NOP     0

      142     8337
      143     8338    1   END Z8EQ$CREATE_DO_TIMES;

   8338  9 000126   000000 702200 xent               TSX2  ! X66_ARET
      144     8339        %EOD;

PL6.E3A0      #002=Z8EQ$CREATE_DO_TIMES File=Z8EQ.:Z8A6TSI                       SAT 08/09/97 12:33 Page:32
--  Include file information  --

   Z8E_STATEMNT.:Z8A6TOU  is referenced.
   Z8E_ILS_LIST.:Z8A6TOU  is referenced.
   Z8E_NEW_ILL.:Z8A6TOU  is referenced.
   Z8E_MACROS.:Z8A6TOU  cannot be made into a system file and is referenced.
   Z8E_O1COM.:Z8A6TOU  cannot be made into a system file and is referenced.
   Z8A_LEX_SYMB.:Z8A6TOU  cannot be made into a system file and is referenced.
   Z8E_STACKS.:Z8A6TOU  cannot be made into a system file and is referenced.
   Z8A_ILS.:Z8A6TOU  cannot be made into a system file and is referenced.
   Z8A_ILL.:Z8A6TOU  cannot be made into a system file and is referenced.
   X8A_COM_MACS.:X8A6TOU  is referenced.
   Z8A_NAMES.:Z8A6TOU  is referenced.
   Z8A_SUPP_MAC.:Z8A6TOU  is referenced.
   Z8A_DEFC.:Z8A6TOU  cannot be made into a system file and is referenced.
      No diagnostics issued in procedure Z8EQ$CREATE_DO_TIMES.
PL6.E3A0      #002=Z8EQ$CREATE_DO_TIMES File=Z8EQ.:Z8A6TSI                       SAT 08/09/97 12:33 Page:33

 **** Variables and constants ****

  ****  Section 000 LblCom ITERATION

  ****  Scalars and arrays  ****
OctLoc.c.b A Datatyp(siz) R M Lvl/name                 OctLoc.c.b A Datatyp(siz) R M Lvl/name

     0-0-0/w SBIN              1 ITERATION

  ****  Section 001 LblCom ILL$

  ****  Scalars and arrays  ****
OctLoc.c.b A Datatyp(siz) R M Lvl/name                 OctLoc.c.b A Datatyp(siz) R M Lvl/name

     0-0-0/w PTR         r     1 ILL$

  ****  Section 002 LblCom ILL_

  ****  Scalars and arrays  ****
OctLoc.c.b A Datatyp(siz) R M Lvl/name                 OctLoc.c.b A Datatyp(siz) R M Lvl/name

     0-0-0/w STRC(180)         1 ILL_

  ****  Section 003 LblCom ILS$

  ****  Scalars and arrays  ****
OctLoc.c.b A Datatyp(siz) R M Lvl/name                 OctLoc.c.b A Datatyp(siz) R M Lvl/name

     0-0-0/w PTR         r     1 ILS$

  ****  Section 004 LblCom ILS_

  ****  Scalars and arrays  ****
OctLoc.c.b A Datatyp(siz) R M Lvl/name                 OctLoc.c.b A Datatyp(siz) R M Lvl/name

     0-0-0/w STRC(180)         1 ILS_

PL6.E3A0      #002=Z8EQ$CREATE_DO_TIMES File=Z8EQ.:Z8A6TSI                       SAT 08/09/97 12:33 Page:34
  ****  Section 005 LblCom LEX_SYMBOL

  ****  Scalars and arrays  ****
OctLoc.c.b A Datatyp(siz) R M Lvl/name                 OctLoc.c.b A Datatyp(siz) R M Lvl/name

     0-0-0/w STRC(3240)  r     1 LEX_SYMBOL                 0-0-0/w STRC(3240)        1 LEX_SYMBOL_WORDS

  ****  Section 006 LblCom CURRENT_LEX_SYMBOL$

  ****  Scalars and arrays  ****
OctLoc.c.b A Datatyp(siz) R M Lvl/name                 OctLoc.c.b A Datatyp(siz) R M Lvl/name

     0-0-0/w PTR         r     1 CURRENT_LEX_SYMBOL$

  ****  Section 007 LblCom TEMP_LEX_SYMBOL

  ****  Scalars and arrays  ****
OctLoc.c.b A Datatyp(siz) R M Lvl/name                 OctLoc.c.b A Datatyp(siz) R M Lvl/name

     0-0-0/w STRC(3240)        1 TEMP_LEX_SYMBOL

  ****  Section 008 LblCom TEMP_LEX_SYMBOL2

  ****  Scalars and arrays  ****
OctLoc.c.b A Datatyp(siz) R M Lvl/name                 OctLoc.c.b A Datatyp(siz) R M Lvl/name

     0-0-0/w STRC(3240)        1 TEMP_LEX_SYMBOL2

  ****  Auto variables  ****

  ****  Scalars and arrays  ****
OctLoc.c.b A Datatyp(siz) R M Lvl/name                 OctLoc.c.b A Datatyp(siz) R M Lvl/name

     4-0-0/w PTR         r     1 @DO_ILS$                   3-0-0/w PTR         r     1 @TIMES_ETT$
     6-0-0/d STRC(288)   r     1 DO_BODY                   *0-0-0/w PTR         r     1 DO_ILS$
    16-0-0/w PTR         r     1 ILS_LIST$                 *0-0-0/w PTR         r     1 TIMES_ETT$

PL6.E3A0      #002=Z8EQ$CREATE_DO_TIMES File=Z8EQ.:Z8A6TSI                       SAT 08/09/97 12:33 Page:35
  ****  SYMREF variables  ****

  ****  Scalars and arrays  ****
OctLoc.c.b A Datatyp(siz) R M Lvl/name                 OctLoc.c.b A Datatyp(siz) R M Lvl/name

     0-0-0/w STRC(180)         1 HIER_STK(0:50)
     0-0-0/w SBIN              1 HIER_STK_PTR               0-0-0/w UBIN              1 ILL_STEP(0:144)
     0-0-0/w UBIN              1 ILS_STEP_TABLE(0:2)
     0-0-0/d STRC(11580) r     1 O1COM                      0-0-0/w STRC(144)         1 PAGE_FORMAT
     0-0-0/w STRC(153)         1 REP_STK(0:50)              0-0-0/w SBIN              1 REP_STK_PTR

  ****  BASED and DCB variables  ****

  ****  Scalars and arrays  ****
OctLoc.c.b A Datatyp(siz) R M Lvl/name                 OctLoc.c.b A Datatyp(siz) R M Lvl/name

     0-0-0/w STRC(108)         1 ACCEPT_DISPLAY             0-0-0/w STRC(288)         1 ADD_STMT
     0-0-0/w ASTR(324)   r     1 BASED_LEX_SYMBOL
     0-0-0/w STRC(360)         1 BASED_LEX_SYMBOL_WORDS
     0-0-0/w STRC(108)         1 BINARY_ILL                 0-0-0/w STRC(288)         1 BINARY_OP
     0-0-0/w STRC(144)         1 BRANCH_ILL                 0-0-0/w STRC(288)         1 CALL_STMT
     0-0-0/w STRC(216)         1 CCOSU                      0-0-0/w CHAR(4096)        1 CHARS
     0-0-0/w STRC(108)         1 CODED_MOVE                 0-0-0/w STRC(288)         1 COMPUTE_STMT
     0-0-0/w STRC(72)          1 CONT                       0-0-0/w STRC(288)         1 DEFERED_IDENTIFIER
     0-0-0/w STRC(252)         1 DEFERED_ID_TREE            0-0-0/w STRC(288)         1 DEFERED_QUAL_ID
     0-0-0/w STRC(288)         1 DEFERED_SUM_CLAUSE
     0-0-0/w STRC(288)         1 DEFERED_SUM_CLAUSE_LIST
     0-0-0/w STRC(144)         1 DEFLB                      0-0-0/w STRC(288)         1 DELETE_STMT
     0-0-0/w STRC(288)         1 DIVIDE_STMT                0-0-0/w STRC(144)         1 DOEND
     0-0-0/w STRC(396)   r     1 DO_N                       0-0-0/w STRC(180)         1 DV4I
     0-0-0/w STRC(180)         1 ENTRY_ILL                  0-0-0/w STRC(108)         1 EVALU
     0-0-0/w STRC(144)         1 GO                         0-0-0/w STRC(180)         1 ILL
     0-0-0/w STRC              1 ILL_NO_OPS                 0-0-0/w STRC(180)   r     1 ILS
     0-0-0/w STRC(288)   r     1 ILS_LIST                   0-0-0/w STRC(288)         1 INSPECT_1_STMT
     0-0-0/w STRC(288)         1 INSPECT_2_STMT             0-0-0/w STRC(288)         1 INSPECT_4_STMT
     0-0-0/w STRC(288)         1 LA_ITEM                    0-0-0/w STRC(108)         1 LINOI
     0-0-0/w STRC(504)         1 LX_CD_INPUT                0-0-0/w STRC(324)         1 LX_CD_I_O
PL6.E3A0      #002=Z8EQ$CREATE_DO_TIMES File=Z8EQ.:Z8A6TSI                       SAT 08/09/97 12:33 Page:36
     0-0-0/w STRC(396)         1 LX_CD_OUTPUT               0-0-0/w STRC(288)         1 LX_ETT_ITEM
     0-0-0/w STRC(288)         1 LX_ITEM                    0-0-0/w STRC(288)         1 LX_LARGE
     0-0-0/w STRC(288)         1 LX_LIST                    0-0-0/w STRC(1224)        1 LX_REC_DECL
     0-0-0/w STRC(864)         1 LX_REPORT_REC              0-0-0/w STRC(288)   r     1 LX_TERMINAL
     0-0-0/w STRC(72)          1 MFILL                      0-0-0/w STRC(288)         1 MULTIPLY_STMT
     0-0-0/w STRC(180)         1 MULTI_GO                   0-0-0/w STRC(180)         1 MVEAL
     0-0-0/w STRC(108)         1 MVFIL                      0-0-0/w STRC(72)          1 MVIIS
     0-0-0/w STRC(144)         1 OPN                        0-0-0/w STRC(180)         1 OS_CALL
     0-0-0/w STRC(36864)       1 PAGE                       0-0-0/w STRC(216)         1 PFORM
     0-0-0/w STRC(144)         1 PINC                       0-0-0/w STRC(144)         1 PREOFF
     0-0-0/w STRC(108)         1 PRESET                     0-0-0/w STRC(144)         1 P_A_PRESET
     0-0-0/w STRC(144)         1 P_P_PRESET                 0-0-0/w STRC(288)         1 READ_STMT
     0-0-0/w STRC(144)         1 REMEM                      0-0-0/w STRC(288)         1 REWRITE_STMT
     0-0-0/w STRC(144)         1 SCOPE                      0-0-0/w STRC(216)         1 SEARCH_
     0-0-0/w STRC(288)         1 START_STMT                 0-0-0/w STRC(72)          1 STP2
     0-0-0/w STRC(252)         1 STRING_STMT                0-0-0/w STRC(288)         1 SUBTRACT_STMT
     0-0-0/w STRC(144)         1 TRINARY_ILL                0-0-0/w STRC(72)          1 UNARY_ILL
     0-0-0/w STRC(288)         1 UNARY_OP                   0-0-0/w STRC(288)         1 UNSTRING_STMT
     0-0-0/w STRC(216)         1 USER_CALL                  0-0-0/w STRC(108)         1 VAL
     0-0-0/w STRC(108)         1 VAL_END                    0-0-0/w STRC(72)          1 WHEN
     0-0-0/w STRC(288)         1 WRITE_STMT


   Procedure Z8EQ$CREATE_DO_TIMES requires 87 words for executable code.
   Procedure Z8EQ$CREATE_DO_TIMES requires 22 words of local(AUTO) storage.

PL6.E3A0      #003=Z8EQ$CREATE_DO_UNTIL File=Z8EQ.:Z8A6TSI                       SAT 08/09/97 12:34 Page:37
      145        1        /*T***********************************************************/
      146        2        /*T*                                                         */
      147        3        /*T* Copyright (c) Bull HN Information Systems Inc., 1997    */
      148        4        /*T*                                                         */
      149        5        /*T***********************************************************/
      150        6        Z8EQ$CREATE_DO_UNTIL: PROC (COND$,
      151        7                                    DO_ILS$);
      152        8
      153        9    1     DCL COND$ PTR;
      154       10    1     DCL DO_ILS$ PTR;  /* TO ILS_LIST */
      155       11
      156       12        %EQU PHASE = 1;
      157       13        %INCLUDE Z8A_DEFC;
      158       81        %INCLUDE Z8A_SUPP_MAC;
      159     2481        %INCLUDE Z8A_ILL;
      160     3174        %INCLUDE Z8A_ILS;
      161     3283        %INCLUDE Z8A_ST;
      162     6942        %INCLUDE Z8E_STACKS;
      163     9208        %INCLUDE Z8E_O1COM;
      164     9969        %INCLUDE Z8E_MACROS;
      165    10644        %INCLUDE Z8E_ILS_LIST;
      166    10728        %INCLUDE Z8E_STATEMNT;
      167    10797
      168    10798        %DCL_AUTO_LX_ITEM (@NAME = DO_BODY);
      169    10802
      170    10803    1   DCL ILS_LIST$ PTR;
      171    10804    1   DCL START_DO_LABEL$ PTR;
      172    10805    1   DCL LINE SBIN;
      173    10806    1   DCL COLUMN SBIN;
      174    10807
      175    10808    1   DCL Z8EK$BRANCH_FALSE ENTRY(2);
      176    10809    1   DCL Z8AT$CREATE_TEMPORARY ENTRY(2);
      177    10810
      178    10811
      179    10812    1     ILS_LIST$ = DO_ILS$;
      180    10813    1     GOTO DO_MERGE;
      181    10814
PL6.E3A0      #003=Z8EQ$CREATE_DO_UNTIL File=Z8EQ.:Z8A6TSI                       SAT 08/09/97 12:34 Page:38
      182    10815    1   Z8EQ$MERGE_THE_DO_UNTIL : ENTRY (COND$);
      183    10816
      184    10817    1     ILS_LIST$ = ADDR(DO_BODY);
      185    10818    1     DO_BODY = O1COM.ILS_LIST;
      186    10819          %INIT_ILS_LIST (@POINTER = "ADDR(O1COM.ILS_LIST)");
      187    10827
      188    10828    1     DO_MERGE:
      189    10829
      190    10830            %NEW_ILL (@ID = %DO3);
      191    11209
      192    11210    1       ILL$ -> DO_N.B.TEST_AFTER = TRUE;
      193    11211
      194    11212    1       CALL Z8AT$CREATE_TEMPORARY (%PARA,
      195    11213    1                                   START_DO_LABEL$);
      196    11214
      197    11215            %NEW_ILL (@ID = %DEFLB,
      198    11216                      @LABEL$ = START_DO_LABEL$);
      199    11595
      200    11596            %APPEND_ILS_LIST (@FROM$ = ILS_LIST$,
      201    11597                              @TO$ = "ADDR(O1COM.ILS_LIST)");
      202    11614
      203    11615    1       IF O1COM.LX_STK.ID(O1COM.LX_TOP) = %ILS_LIST THEN
      204    11616    2         DO;
      205    11617    2           LINE = O1COM.LINE_NO;
      206    11618    2           COLUMN = O1COM.COLUMN_NO;
      207    11619    2         END;
      208    11620    1       ELSE
      209    11621    2         DO;
      210    11622    2           LINE = O1COM.LX_STK.LINE(O1COM.LX_TOP);
      211    11623    2           COLUMN = O1COM.LX_STK.COLUMN(O1COM.LX_TOP);
      212    11624    2         END;
      213    11625            %SET_PHASE_1_POSITION
      214    11626                (@TYPE   = %S_TYPE_PERFORM,
      215    11627                 @LINE   = LINE,
      216    11628                 @COLUMN = COLUMN) ;
      217    12017
      218    12018    1       CALL Z8EK$BRANCH_FALSE ( START_DO_LABEL$,
PL6.E3A0      #003=Z8EQ$CREATE_DO_UNTIL File=Z8EQ.:Z8A6TSI                       SAT 08/09/97 12:34 Page:39
      219    12019    1                                COND$);
      220    12020
      221    12021            %NEW_ILL(@ID = %DOEND);
      222    12400
      223    12401    1   END Z8EQ$CREATE_DO_UNTIL;
      224    12402        %EOD;

PL6.E3A0      #003=Z8EQ$CREATE_DO_UNTIL File=Z8EQ.:Z8A6TSI                       SAT 08/09/97 12:34 Page:40
--  Include file information  --

   Z8E_STATEMNT.:Z8A6TOU  is referenced.
   Z8E_ILS_LIST.:Z8A6TOU  is referenced.
   Z8E_NEW_ILL.:Z8A6TOU  is referenced.
   Z8E_MACROS.:Z8A6TOU  cannot be made into a system file and is referenced.
   Z8E_O1COM.:Z8A6TOU  cannot be made into a system file and is referenced.
   Z8A_LEX_SYMB.:Z8A6TOU  cannot be made into a system file and is referenced.
   Z8E_STACKS.:Z8A6TOU  cannot be made into a system file and is referenced.
   Z8A_ST.:Z8A6TOU  cannot be made into a system file and is referenced.
   Z8A_ILS.:Z8A6TOU  cannot be made into a system file and is referenced.
   Z8A_ILL.:Z8A6TOU  cannot be made into a system file and is referenced.
   X8A_COM_MACS.:X8A6TOU  is referenced.
   Z8A_NAMES.:Z8A6TOU  is referenced.
   Z8A_SUPP_MAC.:Z8A6TOU  is referenced.
   Z8A_DEFC.:Z8A6TOU  cannot be made into a system file and is referenced.
      No diagnostics issued in procedure Z8EQ$CREATE_DO_UNTIL.

   Procedure Z8EQ$CREATE_DO_UNTIL requires 128 words for executable code.
   Procedure Z8EQ$CREATE_DO_UNTIL requires 24 words of local(AUTO) storage.

PL6.E3A0      #003=Z8EQ$CREATE_DO_UNTIL File=Z8EQ.:Z8A6TSI                       SAT 08/09/97 12:34 Page:41

 Object Unit name= Z8EQ$CREATE_DO_UNTIL                       File name= Z8EQ.:Z8A6TOU
 UTS= AUG 09 '97 12:34:26.84 SAT                              Compiler= PL-6/E31         Sev=      00
 SharedLib= :SHARED_SYSTEM                                    Alt SharedLib=


    ****  Control sections  ****

 Sect   Type Bound  Init  Size OctSiz  Section name(segment info)
    0  LblCom even  none     1      1  ITERATION
    1  LblCom even  none     1      1  ILL$
    2  LblCom even  none     5      5  ILL_
    3  LblCom even  none     1      1  ILS$
    4  LblCom even  none     5      5  ILS_
    5  LblCom even  none     1      1  ST$
    6  LblCom even  none     5      5  ST_
    7  LblCom even  none    90    132  LEX_SYMBOL
    8  LblCom even  none     1      1  CURRENT_LEX_SYMBOL$
    9  LblCom even  none    90    132  TEMP_LEX_SYMBOL
   10  LblCom even  none    90    132  TEMP_LEX_SYMBOL2
   11   Proc  even  none   128    200  Z8EQ$CREATE_DO_UNTIL
   12  RoData even  none    22     26  Z8EQ$CREATE_DO_UNTIL

    ****  Entry defs  ****

                              Check   Calling
                             calling  sequence
  Sect OctLoc Primary Altret sequence   type   Parms  Name
    11      0   yes            yes      Std        2  Z8EQ$CREATE_DO_UNTIL
    11      6                  yes      Std        1  Z8EQ$MERGE_THE_DO_UNTIL
PL6.E3A0      #003=Z8EQ$CREATE_DO_UNTIL File=Z8EQ.:Z8A6TSI                       SAT 08/09/97 12:34 Page:42

  ****  Entry refs  ****

         Check        Calling
        calling       sequence
Altret sequence SRef   type   Args  Name
         yes           Std       4 Z8AN$NEW_ILL
         yes           Std       2 Z8AT$CREATE_TEMPORARY
         yes           Std       2 Z8EK$BRANCH_FALSE
                       nStd      0 X66_AUTO_2
                       nStd      0 X66_ARET

  ****  Data refs  ****

  Flags:  r = read only, s = secondary
Flgs Name                             Flgs Name                             Flgs Name
r    ILL_STEP                         r    ILS_STEP_TABLE                        O1COM
     HIER_STK_PTR                          HIER_STK                              PAGE_FORMAT
     REP_STK_PTR                           REP_STK

  ****  Segment refs  ****

  Flags:  r = read only, s = secondary
Flgs Name                             Flgs Name                             Flgs Name
     NULLSID                               ISSID
PL6.E3A0      #003=Z8EQ$CREATE_DO_UNTIL File=Z8EQ.:Z8A6TSI                       SAT 08/09/97 12:34 Page:43


      145        1        /*T***********************************************************/
      146        2        /*T*                                                         */
      147        3        /*T* Copyright (c) Bull HN Information Systems Inc., 1997    */
      148        4        /*T*                                                         */
      149        5        /*T***********************************************************/
      150        6        Z8EQ$CREATE_DO_UNTIL: PROC (COND$,

      6 11 000000   000000 700200 xent  Z8EQ$CREATE* TSX0  ! X66_AUTO_2
        11 000001   000030 000002                    ZERO    24,2

      151        7                                    DO_ILS$);
      152        8
      153        9    1     DCL COND$ PTR;
      154       10    1     DCL DO_ILS$ PTR;  /* TO ILS_LIST */
      155       11
      156       12        %EQU PHASE = 1;
      157       13        %INCLUDE Z8A_DEFC;
      158       81        %INCLUDE Z8A_SUPP_MAC;
      159     2481        %INCLUDE Z8A_ILL;
      160     3174        %INCLUDE Z8A_ILS;
      161     3283        %INCLUDE Z8A_ST;
      162     6942        %INCLUDE Z8E_STACKS;
      163     9208        %INCLUDE Z8E_O1COM;
      164     9969        %INCLUDE Z8E_MACROS;
      165    10644        %INCLUDE Z8E_ILS_LIST;
      166    10728        %INCLUDE Z8E_STATEMNT;
      167    10797
      168    10798        %DCL_AUTO_LX_ITEM (@NAME = DO_BODY);
      169    10802
      170    10803    1   DCL ILS_LIST$ PTR;
      171    10804    1   DCL START_DO_LABEL$ PTR;
      172    10805    1   DCL LINE SBIN;
      173    10806    1   DCL COLUMN SBIN;
      174    10807
      175    10808    1   DCL Z8EK$BRANCH_FALSE ENTRY(2);
      176    10809    1   DCL Z8AT$CREATE_TEMPORARY ENTRY(2);
PL6.E3A0      #003=Z8EQ$CREATE_DO_UNTIL File=Z8EQ.:Z8A6TSI                       SAT 08/09/97 12:34 Page:44
      177    10810
      178    10811
      179    10812    1     ILS_LIST$ = DO_ILS$;

  10812 11 000002   200004 470500                    LDP0    @DO_ILS$,,AUTO
        11 000003   000000 236100                    LDQ     0,,PR0
        11 000004   200016 756100                    STQ     ILS_LIST$,,AUTO

      180    10813    1     GOTO DO_MERGE;

  10813 11 000005   000023 710000 11                 TRA     DO_MERGE

      181    10814
      182    10815    1   Z8EQ$MERGE_THE_DO_UNTIL : ENTRY (COND$);

  10815 11 000006   000000 700200 xent  Z8EQ$MERGE_* TSX0  ! X66_AUTO_2
        11 000007   000030 000002                    ZERO    24,2

      183    10816
      184    10817    1     ILS_LIST$ = ADDR(DO_BODY);

  10817 11 000010   200006 630500                    EPPR0   DO_BODY,,AUTO
        11 000011   200016 450500                    STP0    ILS_LIST$,,AUTO

      185    10818    1     DO_BODY = O1COM.ILS_LIST;

  10818 11 000012   000100 100400                    MLR     fill='000'O
        11 000013   000016 000040 xsym               ADSC9   O1COM+14                 cn=0,n=32
        11 000014   200006 000040                    ADSC9   DO_BODY,,AUTO            cn=0,n=32

      186    10819          %INIT_ILS_LIST (@POINTER = "ADDR(O1COM.ILS_LIST)");

  10821 11 000015   000007 220003                    LDX0    7,DU
        11 000016   000016 740000 xsym               STX0    O1COM+14

  10822 11 000017   000000 236000 12                 LDQ     0
        11 000020   000017 756000 xsym               STQ     O1COM+15
PL6.E3A0      #003=Z8EQ$CREATE_DO_UNTIL File=Z8EQ.:Z8A6TSI                       SAT 08/09/97 12:34 Page:45

  10823 11 000021   000020 756000 xsym               STQ     O1COM+16

  10824 11 000022   000025 756000 xsym               STQ     O1COM+21

      187    10827
      188    10828    1     DO_MERGE:
      189    10829
      190    10830            %NEW_ILL (@ID = %DO3);

  10861 11 000023                       DO_MERGE     null
  10910 11 000023   000004 236000 12                 LDQ     4
        11 000024   200022 756100                    STQ     COLUMN+1,,AUTO
        11 000025   200022 630500                    EPPR0   COLUMN+1,,AUTO
        11 000026   200027 450500                    STP0    COLUMN+6,,AUTO
        11 000027   000005 236000 12                 LDQ     5
        11 000030   200026 756100                    STQ     COLUMN+5,,AUTO
        11 000031   000006 237000 12                 LDAQ    6
        11 000032   200024 757100                    STAQ    COLUMN+3,,AUTO
        11 000033   200024 630500                    EPPR0   COLUMN+3,,AUTO
        11 000034   000001 631400 12                 EPPR1   1
        11 000035   000000 701000 xent               TSX1    Z8AN$NEW_ILL
        11 000036   000000 011000                    NOP     0

      191    11209
      192    11210    1       ILL$ -> DO_N.B.TEST_AFTER = TRUE;

  11210 11 000037   000000 470400 1                  LDP0    ILL$
        11 000040   400000 236007                    LDQ     -131072,DL
        11 000041   000000 256100                    ORSQ    0,,PR0

      193    11211
      194    11212    1       CALL Z8AT$CREATE_TEMPORARY (%PARA,

  11212 11 000042   200017 630500                    EPPR0   START_DO_LABEL$,,AUTO
        11 000043   200023 450500                    STP0    COLUMN+2,,AUTO
        11 000044   000012 236000 12                 LDQ     10
PL6.E3A0      #003=Z8EQ$CREATE_DO_UNTIL File=Z8EQ.:Z8A6TSI                       SAT 08/09/97 12:34 Page:46
        11 000045   200022 756100                    STQ     COLUMN+1,,AUTO
        11 000046   200022 630500                    EPPR0   COLUMN+1,,AUTO
        11 000047   000010 631400 12                 EPPR1   8
        11 000050   000000 701000 xent               TSX1    Z8AT$CREATE_TEMPORARY
        11 000051   000000 011000                    NOP     0

      195    11213    1                                   START_DO_LABEL$);
      196    11214
      197    11215            %NEW_ILL (@ID = %DEFLB,
      198    11216                      @LABEL$ = START_DO_LABEL$);

  11548 11 000052   000004 236000 12                 LDQ     4
        11 000053   200022 756100                    STQ     COLUMN+1,,AUTO
        11 000054   200022 630500                    EPPR0   COLUMN+1,,AUTO
        11 000055   200027 450500                    STP0    COLUMN+6,,AUTO
        11 000056   000005 236000 12                 LDQ     5
        11 000057   200026 756100                    STQ     COLUMN+5,,AUTO
        11 000060   000016 237000 12                 LDAQ    14
        11 000061   200024 757100                    STAQ    COLUMN+3,,AUTO
        11 000062   200024 630500                    EPPR0   COLUMN+3,,AUTO
        11 000063   000001 631400 12                 EPPR1   1
        11 000064   000000 701000 xent               TSX1    Z8AN$NEW_ILL
        11 000065   000000 011000                    NOP     0

  11549 11 000066   200017 236100                    LDQ     START_DO_LABEL$,,AUTO
        11 000067   000000 470400 1                  LDP0    ILL$
        11 000070   000001 756100                    STQ     1,,PR0

      199    11595
      200    11596            %APPEND_ILS_LIST (@FROM$ = ILS_LIST$,
      201    11597                              @TO$ = "ADDR(O1COM.ILS_LIST)");

  11603 11 000071   200016 471500                    LDP1    ILS_LIST$,,AUTO
        11 000072   100001 236100                    LDQ     1,,PR1
        11 000073   000000 116000 12                 CMPQ    0
        11 000074   000110 600000 11                 TZE     s:11615

PL6.E3A0      #003=Z8EQ$CREATE_DO_UNTIL File=Z8EQ.:Z8A6TSI                       SAT 08/09/97 12:34 Page:47
  11604 11 000075   000017 236000 xsym               LDQ     O1COM+15
        11 000076   000000 116000 12                 CMPQ    0
        11 000077   000103 601000 11                 TNZ     s:11608

  11605 11 000100   100001 236100                    LDQ     1,,PR1
        11 000101   000017 756000 xsym               STQ     O1COM+15

  11606 11 000102   000106 710000 11                 TRA     s:11610

  11608 11 000103   100001 236100                    LDQ     1,,PR1
        11 000104   000020 473400 xsym               LDP3    O1COM+16
        11 000105   300002 756100                    STQ     2,,PR3

  11610 11 000106   100002 236100                    LDQ     2,,PR1
        11 000107   000020 756000 xsym               STQ     O1COM+16

      202    11614
      203    11615    1       IF O1COM.LX_STK.ID(O1COM.LX_TOP) = %ILS_LIST THEN

  11615 11 000110   000151 235000 xsym               LDA     O1COM+105
        11 000111   000003 735000                    ALS     3
        11 000112   014017 220005 xsym               LDX0    O1COM+6159,AL
        11 000113   000007 100003                    CMPX0   7,DU
        11 000114   000122 601000 11                 TNZ     s:11622

      204    11616    2         DO;

      205    11617    2           LINE = O1COM.LINE_NO;

  11617 11 000115   000007 236000 xsym               LDQ     O1COM+7
        11 000116   200020 756100                    STQ     LINE,,AUTO

      206    11618    2           COLUMN = O1COM.COLUMN_NO;

  11618 11 000117   000010 235000 xsym               LDA     O1COM+8
        11 000120   200021 755100                    STA     COLUMN,,AUTO

PL6.E3A0      #003=Z8EQ$CREATE_DO_UNTIL File=Z8EQ.:Z8A6TSI                       SAT 08/09/97 12:34 Page:48
      207    11619    2         END;

  11619 11 000121   000130 710000 11                 TRA     s:11630

      208    11620    1       ELSE
      209    11621    2         DO;

      210    11622    2           LINE = O1COM.LX_STK.LINE(O1COM.LX_TOP);

  11622 11 000122   014024 235005 xsym               LDA     O1COM+6164,AL
        11 000123   200020 755100                    STA     LINE,,AUTO

      211    11623    2           COLUMN = O1COM.LX_STK.COLUMN(O1COM.LX_TOP);

  11623 11 000124   000151 236000 xsym               LDQ     O1COM+105
        11 000125   000003 736000                    QLS     3
        11 000126   014025 235006 xsym               LDA     O1COM+6165,QL
        11 000127   200021 755100                    STA     COLUMN,,AUTO

      212    11624    2         END;

      213    11625            %SET_PHASE_1_POSITION
      214    11626                (@TYPE   = %S_TYPE_PERFORM,
      215    11627                 @LINE   = LINE,
      216    11628                 @COLUMN = COLUMN) ;

  11630 11 000130   200020 236100                    LDQ     LINE,,AUTO
        11 000131   000007 756000 xsym               STQ     O1COM+7

  11631 11 000132   000010 755000 xsym               STA     O1COM+8

  11632 11 000133   000011 235000 xsym               LDA     O1COM+9
        11 000134   000151 600000 11                 TZE     s:12014

  11667 11 000135   000004 236000 12                 LDQ     4
        11 000136   200022 756100                    STQ     COLUMN+1,,AUTO
        11 000137   200022 633500                    EPPR3   COLUMN+1,,AUTO
PL6.E3A0      #003=Z8EQ$CREATE_DO_UNTIL File=Z8EQ.:Z8A6TSI                       SAT 08/09/97 12:34 Page:49
        11 000140   200027 453500                    STP3    COLUMN+6,,AUTO
        11 000141   000005 236000 12                 LDQ     5
        11 000142   200026 756100                    STQ     COLUMN+5,,AUTO
        11 000143   000020 237000 12                 LDAQ    16
        11 000144   200024 757100                    STAQ    COLUMN+3,,AUTO
        11 000145   200024 630500                    EPPR0   COLUMN+3,,AUTO
        11 000146   000001 631400 12                 EPPR1   1
        11 000147   000000 701000 xent               TSX1    Z8AN$NEW_ILL
        11 000150   000000 011000                    NOP     0

  12014 11 000151   000034 235007                    LDA     28,DL
        11 000152   000011 755000 xsym               STA     O1COM+9

      217    12017
      218    12018    1       CALL Z8EK$BRANCH_FALSE ( START_DO_LABEL$,

  12018 11 000153   200003 236100                    LDQ     @COND$,,AUTO
        11 000154   200023 756100                    STQ     COLUMN+2,,AUTO
        11 000155   200017 630500                    EPPR0   START_DO_LABEL$,,AUTO
        11 000156   200022 450500                    STP0    COLUMN+1,,AUTO
        11 000157   200022 630500                    EPPR0   COLUMN+1,,AUTO
        11 000160   000010 631400 12                 EPPR1   8
        11 000161   000000 701000 xent               TSX1    Z8EK$BRANCH_FALSE
        11 000162   000000 011000                    NOP     0

      219    12019    1                                COND$);
      220    12020
      221    12021            %NEW_ILL(@ID = %DOEND);

  12095 11 000163   000004 236000 12                 LDQ     4
        11 000164   200022 756100                    STQ     COLUMN+1,,AUTO
        11 000165   200022 630500                    EPPR0   COLUMN+1,,AUTO
        11 000166   200027 450500                    STP0    COLUMN+6,,AUTO
        11 000167   000005 236000 12                 LDQ     5
        11 000170   200026 756100                    STQ     COLUMN+5,,AUTO
        11 000171   000024 237000 12                 LDAQ    20
        11 000172   200024 757100                    STAQ    COLUMN+3,,AUTO
PL6.E3A0      #003=Z8EQ$CREATE_DO_UNTIL File=Z8EQ.:Z8A6TSI                       SAT 08/09/97 12:34 Page:50
        11 000173   200024 630500                    EPPR0   COLUMN+3,,AUTO
        11 000174   000001 631400 12                 EPPR1   1
        11 000175   000000 701000 xent               TSX1    Z8AN$NEW_ILL
        11 000176   000000 011000                    NOP     0

      222    12400
      223    12401    1   END Z8EQ$CREATE_DO_UNTIL;

  12401 11 000177   000000 702200 xent               TSX2  ! X66_ARET
      224    12402        %EOD;

PL6.E3A0      #003=Z8EQ$CREATE_DO_UNTIL File=Z8EQ.:Z8A6TSI                       SAT 08/09/97 12:34 Page:51
--  Include file information  --

   Z8E_STATEMNT.:Z8A6TOU  is referenced.
   Z8E_ILS_LIST.:Z8A6TOU  is referenced.
   Z8E_NEW_ILL.:Z8A6TOU  is referenced.
   Z8E_MACROS.:Z8A6TOU  cannot be made into a system file and is referenced.
   Z8E_O1COM.:Z8A6TOU  cannot be made into a system file and is referenced.
   Z8A_LEX_SYMB.:Z8A6TOU  cannot be made into a system file and is referenced.
   Z8E_STACKS.:Z8A6TOU  cannot be made into a system file and is referenced.
   Z8A_ST.:Z8A6TOU  cannot be made into a system file and is referenced.
   Z8A_ILS.:Z8A6TOU  cannot be made into a system file and is referenced.
   Z8A_ILL.:Z8A6TOU  cannot be made into a system file and is referenced.
   X8A_COM_MACS.:X8A6TOU  is referenced.
   Z8A_NAMES.:Z8A6TOU  is referenced.
   Z8A_SUPP_MAC.:Z8A6TOU  is referenced.
   Z8A_DEFC.:Z8A6TOU  cannot be made into a system file and is referenced.
      No diagnostics issued in procedure Z8EQ$CREATE_DO_UNTIL.
PL6.E3A0      #003=Z8EQ$CREATE_DO_UNTIL File=Z8EQ.:Z8A6TSI                       SAT 08/09/97 12:34 Page:52

 **** Variables and constants ****

  ****  Section 000 LblCom ITERATION

  ****  Scalars and arrays  ****
OctLoc.c.b A Datatyp(siz) R M Lvl/name                 OctLoc.c.b A Datatyp(siz) R M Lvl/name

     0-0-0/w SBIN              1 ITERATION

  ****  Section 001 LblCom ILL$

  ****  Scalars and arrays  ****
OctLoc.c.b A Datatyp(siz) R M Lvl/name                 OctLoc.c.b A Datatyp(siz) R M Lvl/name

     0-0-0/w PTR         r     1 ILL$

  ****  Section 002 LblCom ILL_

  ****  Scalars and arrays  ****
OctLoc.c.b A Datatyp(siz) R M Lvl/name                 OctLoc.c.b A Datatyp(siz) R M Lvl/name

     0-0-0/w STRC(180)         1 ILL_

  ****  Section 003 LblCom ILS$

  ****  Scalars and arrays  ****
OctLoc.c.b A Datatyp(siz) R M Lvl/name                 OctLoc.c.b A Datatyp(siz) R M Lvl/name

     0-0-0/w PTR         r     1 ILS$

  ****  Section 004 LblCom ILS_

  ****  Scalars and arrays  ****
OctLoc.c.b A Datatyp(siz) R M Lvl/name                 OctLoc.c.b A Datatyp(siz) R M Lvl/name

     0-0-0/w STRC(180)         1 ILS_

PL6.E3A0      #003=Z8EQ$CREATE_DO_UNTIL File=Z8EQ.:Z8A6TSI                       SAT 08/09/97 12:34 Page:53
  ****  Section 005 LblCom ST$

  ****  Scalars and arrays  ****
OctLoc.c.b A Datatyp(siz) R M Lvl/name                 OctLoc.c.b A Datatyp(siz) R M Lvl/name

     0-0-0/w PTR         r     1 ST$

  ****  Section 006 LblCom ST_

  ****  Scalars and arrays  ****
OctLoc.c.b A Datatyp(siz) R M Lvl/name                 OctLoc.c.b A Datatyp(siz) R M Lvl/name

     0-0-0/w STRC(180)         1 ST_

  ****  Section 007 LblCom LEX_SYMBOL

  ****  Scalars and arrays  ****
OctLoc.c.b A Datatyp(siz) R M Lvl/name                 OctLoc.c.b A Datatyp(siz) R M Lvl/name

     0-0-0/w STRC(3240)  r     1 LEX_SYMBOL                 0-0-0/w STRC(3240)        1 LEX_SYMBOL_WORDS

  ****  Section 008 LblCom CURRENT_LEX_SYMBOL$

  ****  Scalars and arrays  ****
OctLoc.c.b A Datatyp(siz) R M Lvl/name                 OctLoc.c.b A Datatyp(siz) R M Lvl/name

     0-0-0/w PTR         r     1 CURRENT_LEX_SYMBOL$

  ****  Section 009 LblCom TEMP_LEX_SYMBOL

  ****  Scalars and arrays  ****
OctLoc.c.b A Datatyp(siz) R M Lvl/name                 OctLoc.c.b A Datatyp(siz) R M Lvl/name

     0-0-0/w STRC(3240)        1 TEMP_LEX_SYMBOL

  ****  Section 010 LblCom TEMP_LEX_SYMBOL2

PL6.E3A0      #003=Z8EQ$CREATE_DO_UNTIL File=Z8EQ.:Z8A6TSI                       SAT 08/09/97 12:34 Page:54
  ****  Scalars and arrays  ****
OctLoc.c.b A Datatyp(siz) R M Lvl/name                 OctLoc.c.b A Datatyp(siz) R M Lvl/name

     0-0-0/w STRC(3240)        1 TEMP_LEX_SYMBOL2

  ****  Auto variables  ****

  ****  Scalars and arrays  ****
OctLoc.c.b A Datatyp(siz) R M Lvl/name                 OctLoc.c.b A Datatyp(siz) R M Lvl/name

     3-0-0/w PTR         r     1 @COND$                     4-0-0/w PTR         r     1 @DO_ILS$
    21-0-0/w SBIN        r     1 COLUMN                    *0-0-0/w PTR         r     1 COND$
     6-0-0/d STRC(288)   r     1 DO_BODY                   *0-0-0/w PTR         r     1 DO_ILS$
    16-0-0/w PTR         r     1 ILS_LIST$                 20-0-0/w SBIN        r     1 LINE
    17-0-0/w PTR         r     1 START_DO_LABEL$

  ****  SYMREF variables  ****

  ****  Scalars and arrays  ****
OctLoc.c.b A Datatyp(siz) R M Lvl/name                 OctLoc.c.b A Datatyp(siz) R M Lvl/name

     0-0-0/w STRC(180)         1 HIER_STK(0:50)
     0-0-0/w SBIN              1 HIER_STK_PTR               0-0-0/w UBIN              1 ILL_STEP(0:144)
     0-0-0/w UBIN              1 ILS_STEP_TABLE(0:2)
     0-0-0/d STRC(11580) r     1 O1COM                      0-0-0/w STRC(144)         1 PAGE_FORMAT
     0-0-0/w STRC(153)         1 REP_STK(0:50)              0-0-0/w SBIN              1 REP_STK_PTR

  ****  BASED and DCB variables  ****

  ****  Scalars and arrays  ****
OctLoc.c.b A Datatyp(siz) R M Lvl/name                 OctLoc.c.b A Datatyp(siz) R M Lvl/name

     0-0-0/w STRC(108)         1 ACCEPT_DISPLAY             0-0-0/w STRC(288)         1 ADD_STMT
     0-0-0/w STRC(396)         1 ALPHABET                   0-0-0/w STRC(396)         1 ARRAY
     0-0-0/w ASTR(324)   r     1 BASED_LEX_SYMBOL
     0-0-0/w STRC(360)         1 BASED_LEX_SYMBOL_WORDS
     0-0-0/w STRC(108)         1 BINARY_ILL                 0-0-0/w STRC(288)         1 BINARY_OP
PL6.E3A0      #003=Z8EQ$CREATE_DO_UNTIL File=Z8EQ.:Z8A6TSI                       SAT 08/09/97 12:34 Page:55
     0-0-0/w STRC(396)         1 BLOCK                      0-0-0/w STRC(144)         1 BRANCH_ILL
     0-0-0/w STRC(288)         1 CALL_STMT                  0-0-0/w STRC(216)         1 CCOSU
     0-0-0/w STRC(396)         1 CD                         0-0-0/w CHAR(4096)        1 CHARS
     0-0-0/w STRC(396)         1 CLASS                      0-0-0/w STRC(108)         1 CODED_MOVE
     0-0-0/w STRC(288)         1 COMPUTE_STMT               0-0-0/w STRC(396)         1 CONDITION
     0-0-0/w STRC(396)         1 CONST                      0-0-0/w STRC(72)          1 CONT
     0-0-0/w STRC(396)         1 DB                         0-0-0/w STRC(396)         1 DCB_
     0-0-0/w STRC(288)         1 DEFERED_IDENTIFIER         0-0-0/w STRC(252)         1 DEFERED_ID_TREE
     0-0-0/w STRC(288)         1 DEFERED_QUAL_ID            0-0-0/w STRC(288)         1 DEFERED_SUM_CLAUSE
     0-0-0/w STRC(288)         1 DEFERED_SUM_CLAUSE_LIST
     0-0-0/w STRC(144)   r     1 DEFLB                      0-0-0/w STRC(288)         1 DELETE_STMT
     0-0-0/w STRC(288)         1 DIVIDE_STMT                0-0-0/w STRC(396)         1 DML_ITEM
     0-0-0/w STRC(144)         1 DOEND                      0-0-0/w STRC(396)   r     1 DO_N
     0-0-0/w STRC(180)         1 DV4I                       0-0-0/w STRC(180)         1 ENTRY_ILL
     0-0-0/w STRC(108)         1 EVALU                      0-0-0/w STRC(396)         1 FD
     0-0-0/w STRC(144)         1 GO                         0-0-0/w STRC(180)         1 ILL
     0-0-0/w STRC              1 ILL_NO_OPS                 0-0-0/w STRC(180)   r     1 ILS
     0-0-0/w STRC(288)   r     1 ILS_LIST                   0-0-0/w STRC(288)         1 INSPECT_1_STMT
     0-0-0/w STRC(288)         1 INSPECT_2_STMT             0-0-0/w STRC(288)         1 INSPECT_4_STMT
     0-0-0/w STRC(396)         1 INTDEF                     0-0-0/w STRC(396)         1 LABEL
     0-0-0/w STRC(288)         1 LA_ITEM                    0-0-0/w STRC(108)         1 LINOI
     0-0-0/w STRC(504)         1 LX_CD_INPUT                0-0-0/w STRC(324)         1 LX_CD_I_O
     0-0-0/w STRC(396)         1 LX_CD_OUTPUT               0-0-0/w STRC(288)         1 LX_ETT_ITEM
     0-0-0/w STRC(288)         1 LX_ITEM                    0-0-0/w STRC(288)         1 LX_LARGE
     0-0-0/w STRC(288)         1 LX_LIST                    0-0-0/w STRC(1224)        1 LX_REC_DECL
     0-0-0/w STRC(864)         1 LX_REPORT_REC              0-0-0/w STRC(288)         1 LX_TERMINAL
     0-0-0/w STRC(72)          1 MFILL                      0-0-0/w STRC(396)         1 MNEMONIC
     0-0-0/w STRC(288)         1 MULTIPLY_STMT              0-0-0/w STRC(180)         1 MULTI_GO
     0-0-0/w STRC(180)         1 MVEAL                      0-0-0/w STRC(108)         1 MVFIL
     0-0-0/w STRC(72)          1 MVIIS                      0-0-0/w STRC(144)         1 OPN
     0-0-0/w STRC(180)         1 OS_CALL                    0-0-0/w STRC(36864)       1 PAGE
     0-0-0/w STRC(396)         1 PARA                       0-0-0/w STRC(216)         1 PFORM
     0-0-0/w STRC(144)         1 PINC                       0-0-0/w STRC(144)         1 PREOFF
     0-0-0/w STRC(108)         1 PRESET                     0-0-0/w STRC(396)         1 PROC_
     0-0-0/w STRC(396)         1 PROC_DEF                   0-0-0/w STRC(144)         1 P_A_PRESET
     0-0-0/w STRC(144)         1 P_P_PRESET                 0-0-0/w STRC(396)         1 RD
     0-0-0/w STRC(288)         1 READ_STMT                  0-0-0/w STRC(144)         1 REMEM
PL6.E3A0      #003=Z8EQ$CREATE_DO_UNTIL File=Z8EQ.:Z8A6TSI                       SAT 08/09/97 12:34 Page:56
     0-0-0/w STRC(288)         1 REWRITE_STMT               0-0-0/w STRC(396)         1 SCALAR
     0-0-0/w STRC(144)         1 SCOPE                      0-0-0/w STRC(396)         1 SD
     0-0-0/w STRC(216)         1 SEARCH_                    0-0-0/w STRC(396)         1 SECTION
     0-0-0/w STRC(396)         1 SEGMENT                    0-0-0/w STRC(396)         1 ST
     0-0-0/w STRC(288)         1 START_STMT                 0-0-0/w STRC(72)          1 STP2
     0-0-0/w STRC(252)         1 STRING_STMT                0-0-0/w STRC(288)         1 SUBTRACT_STMT
     0-0-0/w STRC(396)         1 SWITCH                     0-0-0/w STRC(396)         1 SYMBOLIC_CHAR
     0-0-0/w STRC(396)         1 SYMDEF_                    0-0-0/w STRC(396)         1 SYMREF_
     0-0-0/w STRC(396)         1 TEMP                       0-0-0/w STRC(144)         1 TRINARY_ILL
     0-0-0/w STRC(72)          1 UNARY_ILL                  0-0-0/w STRC(288)         1 UNARY_OP
     0-0-0/w STRC(288)         1 UNSTRING_STMT              0-0-0/w STRC(216)         1 USER_CALL
     0-0-0/w STRC(108)         1 VAL                        0-0-0/w STRC(108)         1 VAL_END
     0-0-0/w STRC(396)         1 VARIABLE                   0-0-0/w STRC(72)          1 WHEN
     0-0-0/w STRC(288)         1 WRITE_STMT


   Procedure Z8EQ$CREATE_DO_UNTIL requires 128 words for executable code.
   Procedure Z8EQ$CREATE_DO_UNTIL requires 24 words of local(AUTO) storage.

PL6.E3A0      #004=Z8EQ$CREATE_DO_WHILE File=Z8EQ.:Z8A6TSI                       SAT 08/09/97 12:36 Page:57
      225        1        /*T***********************************************************/
      226        2        /*T*                                                         */
      227        3        /*T* Copyright (c) Bull HN Information Systems Inc., 1997    */
      228        4        /*T*                                                         */
      229        5        /*T***********************************************************/
      230        6        Z8EQ$CREATE_DO_WHILE: PROC (COND$,
      231        7                                    DO_ILS$);
      232        8
      233        9    1     DCL COND$ PTR;
      234       10    1     DCL DO_ILS$ PTR;  /* TO ILS_LIST */
      235       11
      236       12        %EQU PHASE = 1;
      237       13        %INCLUDE Z8A_DEFC;
      238       81        %INCLUDE Z8A_SUPP_MAC;
      239     2481        %INCLUDE Z8A_ILL;
      240     3174        %INCLUDE Z8A_ILS;
      241     3283        %INCLUDE Z8A_ST;
      242     6942        %INCLUDE Z8E_STACKS;
      243     9208        %INCLUDE Z8E_O1COM;
      244     9969        %INCLUDE Z8E_MACROS;
      245    10644        %INCLUDE Z8E_ILS_LIST;
      246    10728
      247    10729        %DCL_AUTO_LX_ITEM (@NAME = DO_BODY);
      248    10733
      249    10734    1   DCL ILS_LIST$ PTR;
      250    10735    1   DCL END_DO_LABEL$ PTR;
      251    10736    1   DCL START_DO_LABEL$ PTR;
      252    10737
      253    10738    1   DCL Z8EK$BRANCH_FALSE ENTRY(2);
      254    10739    1   DCL Z8EK$BRANCH ENTRY(1);
      255    10740    1   DCL Z8AT$CREATE_TEMPORARY ENTRY(2);
      256    10741
      257    10742
      258    10743    1     ILS_LIST$ = DO_ILS$;
      259    10744    1     GOTO DO_MERGE;
      260    10745
      261    10746    1   Z8EQ$MERGE_THE_DO_WHILE : ENTRY (COND$);
PL6.E3A0      #004=Z8EQ$CREATE_DO_WHILE File=Z8EQ.:Z8A6TSI                       SAT 08/09/97 12:36 Page:58
      262    10747
      263    10748    1     ILS_LIST$ = ADDR(DO_BODY);
      264    10749    1     DO_BODY = O1COM.ILS_LIST;
      265    10750          %INIT_ILS_LIST (@POINTER = "ADDR(O1COM.ILS_LIST)");
      266    10758
      267    10759    1     DO_MERGE:
      268    10760
      269    10761            %NEW_ILL (@ID = %DO3);
      270    11140
      271    11141    1       CALL Z8AT$CREATE_TEMPORARY (%PARA,
      272    11142    1                                   END_DO_LABEL$);
      273    11143
      274    11144    1       CALL Z8AT$CREATE_TEMPORARY (%PARA,
      275    11145    1                                   START_DO_LABEL$);
      276    11146
      277    11147            %NEW_ILL (@ID = %DEFLB,
      278    11148                      @LABEL$ = START_DO_LABEL$);
      279    11527
      280    11528    1       CALL Z8EK$BRANCH_FALSE ( END_DO_LABEL$,
      281    11529    1                                COND$);
      282    11530
      283    11531            %APPEND_ILS_LIST (@FROM$ = ILS_LIST$,
      284    11532                              @TO$ = "ADDR(O1COM.ILS_LIST)");
      285    11549
      286    11550    1       CALL Z8EK$BRANCH (START_DO_LABEL$);
      287    11551
      288    11552            %NEW_ILL (@ID = %DEFLB,
      289    11553                      @LABEL$ = END_DO_LABEL$);
      290    11932
      291    11933            %NEW_ILL(@ID = %DOEND);
      292    12312
      293    12313    1   END Z8EQ$CREATE_DO_WHILE;
      294    12314        %EOD;

PL6.E3A0      #004=Z8EQ$CREATE_DO_WHILE File=Z8EQ.:Z8A6TSI                       SAT 08/09/97 12:36 Page:59
--  Include file information  --

   Z8E_ILS_LIST.:Z8A6TOU  is referenced.
   Z8E_NEW_ILL.:Z8A6TOU  is referenced.
   Z8E_MACROS.:Z8A6TOU  cannot be made into a system file and is referenced.
   Z8E_O1COM.:Z8A6TOU  cannot be made into a system file and is referenced.
   Z8A_LEX_SYMB.:Z8A6TOU  cannot be made into a system file and is referenced.
   Z8E_STACKS.:Z8A6TOU  cannot be made into a system file and is referenced.
   Z8A_ST.:Z8A6TOU  cannot be made into a system file and is referenced.
   Z8A_ILS.:Z8A6TOU  cannot be made into a system file and is referenced.
   Z8A_ILL.:Z8A6TOU  cannot be made into a system file and is referenced.
   X8A_COM_MACS.:X8A6TOU  is referenced.
   Z8A_NAMES.:Z8A6TOU  is referenced.
   Z8A_SUPP_MAC.:Z8A6TOU  is referenced.
   Z8A_DEFC.:Z8A6TOU  cannot be made into a system file and is referenced.
      No diagnostics issued in procedure Z8EQ$CREATE_DO_WHILE.

   Procedure Z8EQ$CREATE_DO_WHILE requires 119 words for executable code.
   Procedure Z8EQ$CREATE_DO_WHILE requires 24 words of local(AUTO) storage.

PL6.E3A0      #004=Z8EQ$CREATE_DO_WHILE File=Z8EQ.:Z8A6TSI                       SAT 08/09/97 12:36 Page:60

 Object Unit name= Z8EQ$CREATE_DO_WHILE                       File name= Z8EQ.:Z8A6TOU
 UTS= AUG 09 '97 12:36:08.80 SAT                              Compiler= PL-6/E31         Sev=      00
 SharedLib= :SHARED_SYSTEM                                    Alt SharedLib=


    ****  Control sections  ****

 Sect   Type Bound  Init  Size OctSiz  Section name(segment info)
    0  LblCom even  none     1      1  ITERATION
    1  LblCom even  none     1      1  ILL$
    2  LblCom even  none     5      5  ILL_
    3  LblCom even  none     1      1  ILS$
    4  LblCom even  none     5      5  ILS_
    5  LblCom even  none     1      1  ST$
    6  LblCom even  none     5      5  ST_
    7  LblCom even  none    90    132  LEX_SYMBOL
    8  LblCom even  none     1      1  CURRENT_LEX_SYMBOL$
    9  LblCom even  none    90    132  TEMP_LEX_SYMBOL
   10  LblCom even  none    90    132  TEMP_LEX_SYMBOL2
   11   Proc  even  none   119    167  Z8EQ$CREATE_DO_WHILE
   12  RoData even  none    20     24  Z8EQ$CREATE_DO_WHILE

    ****  Entry defs  ****

                              Check   Calling
                             calling  sequence
  Sect OctLoc Primary Altret sequence   type   Parms  Name
    11      0   yes            yes      Std        2  Z8EQ$CREATE_DO_WHILE
    11      6                  yes      Std        1  Z8EQ$MERGE_THE_DO_WHILE
PL6.E3A0      #004=Z8EQ$CREATE_DO_WHILE File=Z8EQ.:Z8A6TSI                       SAT 08/09/97 12:36 Page:61

  ****  Entry refs  ****

         Check        Calling
        calling       sequence
Altret sequence SRef   type   Args  Name
         yes           Std       4 Z8AN$NEW_ILL
         yes           Std       2 Z8AT$CREATE_TEMPORARY
         yes           Std       1 Z8EK$BRANCH
         yes           Std       2 Z8EK$BRANCH_FALSE
                       nStd      0 X66_AUTO_2
                       nStd      0 X66_ARET

  ****  Data refs  ****

  Flags:  r = read only, s = secondary
Flgs Name                             Flgs Name                             Flgs Name
r    ILL_STEP                         r    ILS_STEP_TABLE                        O1COM
     HIER_STK_PTR                          HIER_STK                              PAGE_FORMAT
     REP_STK_PTR                           REP_STK

  ****  Segment refs  ****

  Flags:  r = read only, s = secondary
Flgs Name                             Flgs Name                             Flgs Name
     NULLSID                               ISSID
PL6.E3A0      #004=Z8EQ$CREATE_DO_WHILE File=Z8EQ.:Z8A6TSI                       SAT 08/09/97 12:36 Page:62


      225        1        /*T***********************************************************/
      226        2        /*T*                                                         */
      227        3        /*T* Copyright (c) Bull HN Information Systems Inc., 1997    */
      228        4        /*T*                                                         */
      229        5        /*T***********************************************************/
      230        6        Z8EQ$CREATE_DO_WHILE: PROC (COND$,

      6 11 000000   000000 700200 xent  Z8EQ$CREATE* TSX0  ! X66_AUTO_2
        11 000001   000030 000002                    ZERO    24,2

      231        7                                    DO_ILS$);
      232        8
      233        9    1     DCL COND$ PTR;
      234       10    1     DCL DO_ILS$ PTR;  /* TO ILS_LIST */
      235       11
      236       12        %EQU PHASE = 1;
      237       13        %INCLUDE Z8A_DEFC;
      238       81        %INCLUDE Z8A_SUPP_MAC;
      239     2481        %INCLUDE Z8A_ILL;
      240     3174        %INCLUDE Z8A_ILS;
      241     3283        %INCLUDE Z8A_ST;
      242     6942        %INCLUDE Z8E_STACKS;
      243     9208        %INCLUDE Z8E_O1COM;
      244     9969        %INCLUDE Z8E_MACROS;
      245    10644        %INCLUDE Z8E_ILS_LIST;
      246    10728
      247    10729        %DCL_AUTO_LX_ITEM (@NAME = DO_BODY);
      248    10733
      249    10734    1   DCL ILS_LIST$ PTR;
      250    10735    1   DCL END_DO_LABEL$ PTR;
      251    10736    1   DCL START_DO_LABEL$ PTR;
      252    10737
      253    10738    1   DCL Z8EK$BRANCH_FALSE ENTRY(2);
      254    10739    1   DCL Z8EK$BRANCH ENTRY(1);
      255    10740    1   DCL Z8AT$CREATE_TEMPORARY ENTRY(2);
      256    10741
PL6.E3A0      #004=Z8EQ$CREATE_DO_WHILE File=Z8EQ.:Z8A6TSI                       SAT 08/09/97 12:36 Page:63
      257    10742
      258    10743    1     ILS_LIST$ = DO_ILS$;

  10743 11 000002   200004 470500                    LDP0    @DO_ILS$,,AUTO
        11 000003   000000 236100                    LDQ     0,,PR0
        11 000004   200016 756100                    STQ     ILS_LIST$,,AUTO

      259    10744    1     GOTO DO_MERGE;

  10744 11 000005   000023 710000 11                 TRA     DO_MERGE

      260    10745
      261    10746    1   Z8EQ$MERGE_THE_DO_WHILE : ENTRY (COND$);

  10746 11 000006   000000 700200 xent  Z8EQ$MERGE_* TSX0  ! X66_AUTO_2
        11 000007   000030 000002                    ZERO    24,2

      262    10747
      263    10748    1     ILS_LIST$ = ADDR(DO_BODY);

  10748 11 000010   200006 630500                    EPPR0   DO_BODY,,AUTO
        11 000011   200016 450500                    STP0    ILS_LIST$,,AUTO

      264    10749    1     DO_BODY = O1COM.ILS_LIST;

  10749 11 000012   000100 100400                    MLR     fill='000'O
        11 000013   000016 000040 xsym               ADSC9   O1COM+14                 cn=0,n=32
        11 000014   200006 000040                    ADSC9   DO_BODY,,AUTO            cn=0,n=32

      265    10750          %INIT_ILS_LIST (@POINTER = "ADDR(O1COM.ILS_LIST)");

  10752 11 000015   000007 220003                    LDX0    7,DU
        11 000016   000016 740000 xsym               STX0    O1COM+14

  10753 11 000017   000000 236000 12                 LDQ     0
        11 000020   000017 756000 xsym               STQ     O1COM+15

PL6.E3A0      #004=Z8EQ$CREATE_DO_WHILE File=Z8EQ.:Z8A6TSI                       SAT 08/09/97 12:36 Page:64
  10754 11 000021   000020 756000 xsym               STQ     O1COM+16

  10755 11 000022   000025 756000 xsym               STQ     O1COM+21

      266    10758
      267    10759    1     DO_MERGE:
      268    10760
      269    10761            %NEW_ILL (@ID = %DO3);

  10792 11 000023                       DO_MERGE     null
  10841 11 000023   000004 236000 12                 LDQ     4
        11 000024   200022 756100                    STQ     START_DO_LABEL$+2,,AUTO
        11 000025   200022 630500                    EPPR0   START_DO_LABEL$+2,,AUTO
        11 000026   200027 450500                    STP0    START_DO_LABEL$+7,,AUTO
        11 000027   000005 236000 12                 LDQ     5
        11 000030   200026 756100                    STQ     START_DO_LABEL$+6,,AUTO
        11 000031   000006 237000 12                 LDAQ    6
        11 000032   200024 757100                    STAQ    START_DO_LABEL$+4,,AUTO
        11 000033   200024 630500                    EPPR0   START_DO_LABEL$+4,,AUTO
        11 000034   000001 631400 12                 EPPR1   1
        11 000035   000000 701000 xent               TSX1    Z8AN$NEW_ILL
        11 000036   000000 011000                    NOP     0

      270    11140
      271    11141    1       CALL Z8AT$CREATE_TEMPORARY (%PARA,

  11141 11 000037   200017 630500                    EPPR0   END_DO_LABEL$,,AUTO
        11 000040   200023 450500                    STP0    START_DO_LABEL$+3,,AUTO
        11 000041   000012 236000 12                 LDQ     10
        11 000042   200022 756100                    STQ     START_DO_LABEL$+2,,AUTO
        11 000043   200022 630500                    EPPR0   START_DO_LABEL$+2,,AUTO
        11 000044   000010 631400 12                 EPPR1   8
        11 000045   000000 701000 xent               TSX1    Z8AT$CREATE_TEMPORARY
        11 000046   000000 011000                    NOP     0

      272    11142    1                                   END_DO_LABEL$);
      273    11143
PL6.E3A0      #004=Z8EQ$CREATE_DO_WHILE File=Z8EQ.:Z8A6TSI                       SAT 08/09/97 12:36 Page:65
      274    11144    1       CALL Z8AT$CREATE_TEMPORARY (%PARA,

  11144 11 000047   200020 630500                    EPPR0   START_DO_LABEL$,,AUTO
        11 000050   200023 450500                    STP0    START_DO_LABEL$+3,,AUTO
        11 000051   000012 236000 12                 LDQ     10
        11 000052   200022 756100                    STQ     START_DO_LABEL$+2,,AUTO
        11 000053   200022 630500                    EPPR0   START_DO_LABEL$+2,,AUTO
        11 000054   000010 631400 12                 EPPR1   8
        11 000055   000000 701000 xent               TSX1    Z8AT$CREATE_TEMPORARY
        11 000056   000000 011000                    NOP     0

      275    11145    1                                   START_DO_LABEL$);
      276    11146
      277    11147            %NEW_ILL (@ID = %DEFLB,
      278    11148                      @LABEL$ = START_DO_LABEL$);

  11480 11 000057   000004 236000 12                 LDQ     4
        11 000060   200022 756100                    STQ     START_DO_LABEL$+2,,AUTO
        11 000061   200022 630500                    EPPR0   START_DO_LABEL$+2,,AUTO
        11 000062   200027 450500                    STP0    START_DO_LABEL$+7,,AUTO
        11 000063   000005 236000 12                 LDQ     5
        11 000064   200026 756100                    STQ     START_DO_LABEL$+6,,AUTO
        11 000065   000016 237000 12                 LDAQ    14
        11 000066   200024 757100                    STAQ    START_DO_LABEL$+4,,AUTO
        11 000067   200024 630500                    EPPR0   START_DO_LABEL$+4,,AUTO
        11 000070   000001 631400 12                 EPPR1   1
        11 000071   000000 701000 xent               TSX1    Z8AN$NEW_ILL
        11 000072   000000 011000                    NOP     0

  11481 11 000073   200020 236100                    LDQ     START_DO_LABEL$,,AUTO
        11 000074   000000 470400 1                  LDP0    ILL$
        11 000075   000001 756100                    STQ     1,,PR0

      279    11527
      280    11528    1       CALL Z8EK$BRANCH_FALSE ( END_DO_LABEL$,

  11528 11 000076   200003 236100                    LDQ     @COND$,,AUTO
PL6.E3A0      #004=Z8EQ$CREATE_DO_WHILE File=Z8EQ.:Z8A6TSI                       SAT 08/09/97 12:36 Page:66
        11 000077   200023 756100                    STQ     START_DO_LABEL$+3,,AUTO
        11 000100   200017 631500                    EPPR1   END_DO_LABEL$,,AUTO
        11 000101   200022 451500                    STP1    START_DO_LABEL$+2,,AUTO
        11 000102   200022 630500                    EPPR0   START_DO_LABEL$+2,,AUTO
        11 000103   000010 631400 12                 EPPR1   8
        11 000104   000000 701000 xent               TSX1    Z8EK$BRANCH_FALSE
        11 000105   000000 011000                    NOP     0

      281    11529    1                                COND$);
      282    11530
      283    11531            %APPEND_ILS_LIST (@FROM$ = ILS_LIST$,
      284    11532                              @TO$ = "ADDR(O1COM.ILS_LIST)");

  11538 11 000106   200016 470500                    LDP0    ILS_LIST$,,AUTO
        11 000107   000001 236100                    LDQ     1,,PR0
        11 000110   000000 116000 12                 CMPQ    0
        11 000111   000125 600000 11                 TZE     s:11550

  11539 11 000112   000017 236000 xsym               LDQ     O1COM+15
        11 000113   000000 116000 12                 CMPQ    0
        11 000114   000120 601000 11                 TNZ     s:11543

  11540 11 000115   000001 236100                    LDQ     1,,PR0
        11 000116   000017 756000 xsym               STQ     O1COM+15

  11541 11 000117   000123 710000 11                 TRA     s:11545

  11543 11 000120   000001 236100                    LDQ     1,,PR0
        11 000121   000020 471400 xsym               LDP1    O1COM+16
        11 000122   100002 756100                    STQ     2,,PR1

  11545 11 000123   000002 236100                    LDQ     2,,PR0
        11 000124   000020 756000 xsym               STQ     O1COM+16

      285    11549
      286    11550    1       CALL Z8EK$BRANCH (START_DO_LABEL$);

PL6.E3A0      #004=Z8EQ$CREATE_DO_WHILE File=Z8EQ.:Z8A6TSI                       SAT 08/09/97 12:36 Page:67
  11550 11 000125   200020 631500                    EPPR1   START_DO_LABEL$,,AUTO
        11 000126   200022 451500                    STP1    START_DO_LABEL$+2,,AUTO
        11 000127   200022 630500                    EPPR0   START_DO_LABEL$+2,,AUTO
        11 000130   000015 631400 12                 EPPR1   13
        11 000131   000000 701000 xent               TSX1    Z8EK$BRANCH
        11 000132   000000 011000                    NOP     0

      287    11551
      288    11552            %NEW_ILL (@ID = %DEFLB,
      289    11553                      @LABEL$ = END_DO_LABEL$);

  11885 11 000133   000004 236000 12                 LDQ     4
        11 000134   200022 756100                    STQ     START_DO_LABEL$+2,,AUTO
        11 000135   200022 630500                    EPPR0   START_DO_LABEL$+2,,AUTO
        11 000136   200027 450500                    STP0    START_DO_LABEL$+7,,AUTO
        11 000137   000005 236000 12                 LDQ     5
        11 000140   200026 756100                    STQ     START_DO_LABEL$+6,,AUTO
        11 000141   000016 237000 12                 LDAQ    14
        11 000142   200024 757100                    STAQ    START_DO_LABEL$+4,,AUTO
        11 000143   200024 630500                    EPPR0   START_DO_LABEL$+4,,AUTO
        11 000144   000001 631400 12                 EPPR1   1
        11 000145   000000 701000 xent               TSX1    Z8AN$NEW_ILL
        11 000146   000000 011000                    NOP     0

  11886 11 000147   200017 236100                    LDQ     END_DO_LABEL$,,AUTO
        11 000150   000000 470400 1                  LDP0    ILL$
        11 000151   000001 756100                    STQ     1,,PR0

      290    11932
      291    11933            %NEW_ILL(@ID = %DOEND);

  12007 11 000152   000004 236000 12                 LDQ     4
        11 000153   200022 756100                    STQ     START_DO_LABEL$+2,,AUTO
        11 000154   200022 631500                    EPPR1   START_DO_LABEL$+2,,AUTO
        11 000155   200027 451500                    STP1    START_DO_LABEL$+7,,AUTO
        11 000156   000005 236000 12                 LDQ     5
        11 000157   200026 756100                    STQ     START_DO_LABEL$+6,,AUTO
PL6.E3A0      #004=Z8EQ$CREATE_DO_WHILE File=Z8EQ.:Z8A6TSI                       SAT 08/09/97 12:36 Page:68
        11 000160   000022 237000 12                 LDAQ    18
        11 000161   200024 757100                    STAQ    START_DO_LABEL$+4,,AUTO
        11 000162   200024 630500                    EPPR0   START_DO_LABEL$+4,,AUTO
        11 000163   000001 631400 12                 EPPR1   1
        11 000164   000000 701000 xent               TSX1    Z8AN$NEW_ILL
        11 000165   000000 011000                    NOP     0

      292    12312
      293    12313    1   END Z8EQ$CREATE_DO_WHILE;

  12313 11 000166   000000 702200 xent               TSX2  ! X66_ARET
      294    12314        %EOD;

PL6.E3A0      #004=Z8EQ$CREATE_DO_WHILE File=Z8EQ.:Z8A6TSI                       SAT 08/09/97 12:36 Page:69
--  Include file information  --

   Z8E_ILS_LIST.:Z8A6TOU  is referenced.
   Z8E_NEW_ILL.:Z8A6TOU  is referenced.
   Z8E_MACROS.:Z8A6TOU  cannot be made into a system file and is referenced.
   Z8E_O1COM.:Z8A6TOU  cannot be made into a system file and is referenced.
   Z8A_LEX_SYMB.:Z8A6TOU  cannot be made into a system file and is referenced.
   Z8E_STACKS.:Z8A6TOU  cannot be made into a system file and is referenced.
   Z8A_ST.:Z8A6TOU  cannot be made into a system file and is referenced.
   Z8A_ILS.:Z8A6TOU  cannot be made into a system file and is referenced.
   Z8A_ILL.:Z8A6TOU  cannot be made into a system file and is referenced.
   X8A_COM_MACS.:X8A6TOU  is referenced.
   Z8A_NAMES.:Z8A6TOU  is referenced.
   Z8A_SUPP_MAC.:Z8A6TOU  is referenced.
   Z8A_DEFC.:Z8A6TOU  cannot be made into a system file and is referenced.
      No diagnostics issued in procedure Z8EQ$CREATE_DO_WHILE.
PL6.E3A0      #004=Z8EQ$CREATE_DO_WHILE File=Z8EQ.:Z8A6TSI                       SAT 08/09/97 12:36 Page:70

 **** Variables and constants ****

  ****  Section 000 LblCom ITERATION

  ****  Scalars and arrays  ****
OctLoc.c.b A Datatyp(siz) R M Lvl/name                 OctLoc.c.b A Datatyp(siz) R M Lvl/name

     0-0-0/w SBIN              1 ITERATION

  ****  Section 001 LblCom ILL$

  ****  Scalars and arrays  ****
OctLoc.c.b A Datatyp(siz) R M Lvl/name                 OctLoc.c.b A Datatyp(siz) R M Lvl/name

     0-0-0/w PTR         r     1 ILL$

  ****  Section 002 LblCom ILL_

  ****  Scalars and arrays  ****
OctLoc.c.b A Datatyp(siz) R M Lvl/name                 OctLoc.c.b A Datatyp(siz) R M Lvl/name

     0-0-0/w STRC(180)         1 ILL_

  ****  Section 003 LblCom ILS$

  ****  Scalars and arrays  ****
OctLoc.c.b A Datatyp(siz) R M Lvl/name                 OctLoc.c.b A Datatyp(siz) R M Lvl/name

     0-0-0/w PTR         r     1 ILS$

  ****  Section 004 LblCom ILS_

  ****  Scalars and arrays  ****
OctLoc.c.b A Datatyp(siz) R M Lvl/name                 OctLoc.c.b A Datatyp(siz) R M Lvl/name

     0-0-0/w STRC(180)         1 ILS_

PL6.E3A0      #004=Z8EQ$CREATE_DO_WHILE File=Z8EQ.:Z8A6TSI                       SAT 08/09/97 12:36 Page:71
  ****  Section 005 LblCom ST$

  ****  Scalars and arrays  ****
OctLoc.c.b A Datatyp(siz) R M Lvl/name                 OctLoc.c.b A Datatyp(siz) R M Lvl/name

     0-0-0/w PTR         r     1 ST$

  ****  Section 006 LblCom ST_

  ****  Scalars and arrays  ****
OctLoc.c.b A Datatyp(siz) R M Lvl/name                 OctLoc.c.b A Datatyp(siz) R M Lvl/name

     0-0-0/w STRC(180)         1 ST_

  ****  Section 007 LblCom LEX_SYMBOL

  ****  Scalars and arrays  ****
OctLoc.c.b A Datatyp(siz) R M Lvl/name                 OctLoc.c.b A Datatyp(siz) R M Lvl/name

     0-0-0/w STRC(3240)  r     1 LEX_SYMBOL                 0-0-0/w STRC(3240)        1 LEX_SYMBOL_WORDS

  ****  Section 008 LblCom CURRENT_LEX_SYMBOL$

  ****  Scalars and arrays  ****
OctLoc.c.b A Datatyp(siz) R M Lvl/name                 OctLoc.c.b A Datatyp(siz) R M Lvl/name

     0-0-0/w PTR         r     1 CURRENT_LEX_SYMBOL$

  ****  Section 009 LblCom TEMP_LEX_SYMBOL

  ****  Scalars and arrays  ****
OctLoc.c.b A Datatyp(siz) R M Lvl/name                 OctLoc.c.b A Datatyp(siz) R M Lvl/name

     0-0-0/w STRC(3240)        1 TEMP_LEX_SYMBOL

  ****  Section 010 LblCom TEMP_LEX_SYMBOL2

PL6.E3A0      #004=Z8EQ$CREATE_DO_WHILE File=Z8EQ.:Z8A6TSI                       SAT 08/09/97 12:36 Page:72
  ****  Scalars and arrays  ****
OctLoc.c.b A Datatyp(siz) R M Lvl/name                 OctLoc.c.b A Datatyp(siz) R M Lvl/name

     0-0-0/w STRC(3240)        1 TEMP_LEX_SYMBOL2

  ****  Auto variables  ****

  ****  Scalars and arrays  ****
OctLoc.c.b A Datatyp(siz) R M Lvl/name                 OctLoc.c.b A Datatyp(siz) R M Lvl/name

     3-0-0/w PTR         r     1 @COND$                     4-0-0/w PTR         r     1 @DO_ILS$
    *0-0-0/w PTR         r     1 COND$                      6-0-0/d STRC(288)   r     1 DO_BODY
    *0-0-0/w PTR         r     1 DO_ILS$                   17-0-0/w PTR         r     1 END_DO_LABEL$
    16-0-0/w PTR         r     1 ILS_LIST$                 20-0-0/w PTR         r     1 START_DO_LABEL$

  ****  SYMREF variables  ****

  ****  Scalars and arrays  ****
OctLoc.c.b A Datatyp(siz) R M Lvl/name                 OctLoc.c.b A Datatyp(siz) R M Lvl/name

     0-0-0/w STRC(180)         1 HIER_STK(0:50)
     0-0-0/w SBIN              1 HIER_STK_PTR               0-0-0/w UBIN              1 ILL_STEP(0:144)
     0-0-0/w UBIN              1 ILS_STEP_TABLE(0:2)
     0-0-0/d STRC(11580) r     1 O1COM                      0-0-0/w STRC(144)         1 PAGE_FORMAT
     0-0-0/w STRC(153)         1 REP_STK(0:50)              0-0-0/w SBIN              1 REP_STK_PTR

  ****  BASED and DCB variables  ****

  ****  Scalars and arrays  ****
OctLoc.c.b A Datatyp(siz) R M Lvl/name                 OctLoc.c.b A Datatyp(siz) R M Lvl/name

     0-0-0/w STRC(108)         1 ACCEPT_DISPLAY             0-0-0/w STRC(288)         1 ADD_STMT
     0-0-0/w STRC(396)         1 ALPHABET                   0-0-0/w STRC(396)         1 ARRAY
     0-0-0/w ASTR(324)   r     1 BASED_LEX_SYMBOL
     0-0-0/w STRC(360)         1 BASED_LEX_SYMBOL_WORDS
     0-0-0/w STRC(108)         1 BINARY_ILL                 0-0-0/w STRC(288)         1 BINARY_OP
     0-0-0/w STRC(396)         1 BLOCK                      0-0-0/w STRC(144)         1 BRANCH_ILL
PL6.E3A0      #004=Z8EQ$CREATE_DO_WHILE File=Z8EQ.:Z8A6TSI                       SAT 08/09/97 12:36 Page:73
     0-0-0/w STRC(288)         1 CALL_STMT                  0-0-0/w STRC(216)         1 CCOSU
     0-0-0/w STRC(396)         1 CD                         0-0-0/w CHAR(4096)        1 CHARS
     0-0-0/w STRC(396)         1 CLASS                      0-0-0/w STRC(108)         1 CODED_MOVE
     0-0-0/w STRC(288)         1 COMPUTE_STMT               0-0-0/w STRC(396)         1 CONDITION
     0-0-0/w STRC(396)         1 CONST                      0-0-0/w STRC(72)          1 CONT
     0-0-0/w STRC(396)         1 DB                         0-0-0/w STRC(396)         1 DCB_
     0-0-0/w STRC(288)         1 DEFERED_IDENTIFIER         0-0-0/w STRC(252)         1 DEFERED_ID_TREE
     0-0-0/w STRC(288)         1 DEFERED_QUAL_ID            0-0-0/w STRC(288)         1 DEFERED_SUM_CLAUSE
     0-0-0/w STRC(288)         1 DEFERED_SUM_CLAUSE_LIST
     0-0-0/w STRC(144)   r     1 DEFLB                      0-0-0/w STRC(288)         1 DELETE_STMT
     0-0-0/w STRC(288)         1 DIVIDE_STMT                0-0-0/w STRC(396)         1 DML_ITEM
     0-0-0/w STRC(144)         1 DOEND                      0-0-0/w STRC(396)         1 DO_N
     0-0-0/w STRC(180)         1 DV4I                       0-0-0/w STRC(180)         1 ENTRY_ILL
     0-0-0/w STRC(108)         1 EVALU                      0-0-0/w STRC(396)         1 FD
     0-0-0/w STRC(144)         1 GO                         0-0-0/w STRC(180)         1 ILL
     0-0-0/w STRC              1 ILL_NO_OPS                 0-0-0/w STRC(180)   r     1 ILS
     0-0-0/w STRC(288)   r     1 ILS_LIST                   0-0-0/w STRC(288)         1 INSPECT_1_STMT
     0-0-0/w STRC(288)         1 INSPECT_2_STMT             0-0-0/w STRC(288)         1 INSPECT_4_STMT
     0-0-0/w STRC(396)         1 INTDEF                     0-0-0/w STRC(396)         1 LABEL
     0-0-0/w STRC(288)         1 LA_ITEM                    0-0-0/w STRC(108)         1 LINOI
     0-0-0/w STRC(504)         1 LX_CD_INPUT                0-0-0/w STRC(324)         1 LX_CD_I_O
     0-0-0/w STRC(396)         1 LX_CD_OUTPUT               0-0-0/w STRC(288)         1 LX_ETT_ITEM
     0-0-0/w STRC(288)         1 LX_ITEM                    0-0-0/w STRC(288)         1 LX_LARGE
     0-0-0/w STRC(288)         1 LX_LIST                    0-0-0/w STRC(1224)        1 LX_REC_DECL
     0-0-0/w STRC(864)         1 LX_REPORT_REC              0-0-0/w STRC(288)         1 LX_TERMINAL
     0-0-0/w STRC(72)          1 MFILL                      0-0-0/w STRC(396)         1 MNEMONIC
     0-0-0/w STRC(288)         1 MULTIPLY_STMT              0-0-0/w STRC(180)         1 MULTI_GO
     0-0-0/w STRC(180)         1 MVEAL                      0-0-0/w STRC(108)         1 MVFIL
     0-0-0/w STRC(72)          1 MVIIS                      0-0-0/w STRC(144)         1 OPN
     0-0-0/w STRC(180)         1 OS_CALL                    0-0-0/w STRC(36864)       1 PAGE
     0-0-0/w STRC(396)         1 PARA                       0-0-0/w STRC(216)         1 PFORM
     0-0-0/w STRC(144)         1 PINC                       0-0-0/w STRC(144)         1 PREOFF
     0-0-0/w STRC(108)         1 PRESET                     0-0-0/w STRC(396)         1 PROC_
     0-0-0/w STRC(396)         1 PROC_DEF                   0-0-0/w STRC(144)         1 P_A_PRESET
     0-0-0/w STRC(144)         1 P_P_PRESET                 0-0-0/w STRC(396)         1 RD
     0-0-0/w STRC(288)         1 READ_STMT                  0-0-0/w STRC(144)         1 REMEM
     0-0-0/w STRC(288)         1 REWRITE_STMT               0-0-0/w STRC(396)         1 SCALAR
PL6.E3A0      #004=Z8EQ$CREATE_DO_WHILE File=Z8EQ.:Z8A6TSI                       SAT 08/09/97 12:36 Page:74
     0-0-0/w STRC(144)         1 SCOPE                      0-0-0/w STRC(396)         1 SD
     0-0-0/w STRC(216)         1 SEARCH_                    0-0-0/w STRC(396)         1 SECTION
     0-0-0/w STRC(396)         1 SEGMENT                    0-0-0/w STRC(396)         1 ST
     0-0-0/w STRC(288)         1 START_STMT                 0-0-0/w STRC(72)          1 STP2
     0-0-0/w STRC(252)         1 STRING_STMT                0-0-0/w STRC(288)         1 SUBTRACT_STMT
     0-0-0/w STRC(396)         1 SWITCH                     0-0-0/w STRC(396)         1 SYMBOLIC_CHAR
     0-0-0/w STRC(396)         1 SYMDEF_                    0-0-0/w STRC(396)         1 SYMREF_
     0-0-0/w STRC(396)         1 TEMP                       0-0-0/w STRC(144)         1 TRINARY_ILL
     0-0-0/w STRC(72)          1 UNARY_ILL                  0-0-0/w STRC(288)         1 UNARY_OP
     0-0-0/w STRC(288)         1 UNSTRING_STMT              0-0-0/w STRC(216)         1 USER_CALL
     0-0-0/w STRC(108)         1 VAL                        0-0-0/w STRC(108)         1 VAL_END
     0-0-0/w STRC(396)         1 VARIABLE                   0-0-0/w STRC(72)          1 WHEN
     0-0-0/w STRC(288)         1 WRITE_STMT


   Procedure Z8EQ$CREATE_DO_WHILE requires 119 words for executable code.
   Procedure Z8EQ$CREATE_DO_WHILE requires 24 words of local(AUTO) storage.

PL6.E3A0      #005=Z8EQ$CREATE_ITERATED_DO_WHILE File=Z8EQ.:Z8A6TSI              SAT 08/09/97 12:37 Page:75
      295        1        /*T***********************************************************/
      296        2        /*T*                                                         */
      297        3        /*T* Copyright (c) Bull HN Information Systems Inc., 1997    */
      298        4        /*T*                                                         */
      299        5        /*T***********************************************************/
      300        6        Z8EQ$CREATE_ITERATED_DO_WHILE : PROC ( VARYING$,
      301        7                                               FROM$,
      302        8                                               BY$,
      303        9                                               COND$,
      304       10                                               DO_ILS$);
      305       11
      306       12    1     DCL VARYING$ PTR;  /* To LX_ETT_ITEM */
      307       13    1     DCL FROM$ PTR;     /* To LX_ETT_ITEM */
      308       14    1     DCL BY$ PTR;       /* To LX_ETT_ITEM */
      309       15    1     DCL COND$ PTR;     /* Toabstract syntax tree */
      310       16    1     DCL DO_ILS$ PTR;   /* to ILS_LIST */
      311       17
      312       18        %EQU PHASE = 1;
      313       19        %INCLUDE Z8A_DEFC;
      314       87        %INCLUDE Z8A_SUPP_MAC;
      315     2487        %INCLUDE Z8A_ILL;
      316     3180        %INCLUDE Z8A_ILS;
      317     3289        %INCLUDE Z8A_COMCOM;
      318     3939        %INCLUDE Z8A_TYPES;
      319     4113        %INCLUDE Z8A_ST;
      320     7772        %INCLUDE Z8E_STACKS;
      321    10038        %INCLUDE Z8E_O1COM;
      322    10799        %INCLUDE Z8E_MACROS;
      323    11474        %INCLUDE Z8E_ILS_LIST;
      324    11558        %INCLUDE Z8E_STATEMNT;
      325    11627
      326    11628        %DCL_AUTO_LX_ITEM (@NAME = OP_NODE);
      327    11632        %DCL_AUTO_LX_ITEM (@NAME = DO_BODY);
      328    11636        %DCL_AUTO_LX_ITEM (@NAME = ETT_ITEM);
      329    11640        %DCL_AUTO_LX_ITEM (@NAME = C74_SAVED_ILS);
      330    11644        %DCL_AUTO_LX_ITEM (@NAME = C74_SAVED_AUGMENT_ILS);
      331    11648
PL6.E3A0      #005=Z8EQ$CREATE_ITERATED_DO_WHILE File=Z8EQ.:Z8A6TSI              SAT 08/09/97 12:37 Page:76
      332    11649    1   DCL ILS_LIST$ PTR;
      333    11650    1   DCL END_DO_LABEL$ PTR;
      334    11651    1   DCL START_DO_LABEL$ PTR;
      335    11652
      336    11653    1   DCL V$ PTR;  /* temporary VARYING$ */
      337    11654    1   DCL F$ PTR;  /* temporary FROM$ */
      338    11655    1   DCL B$ PTR;  /* temporary BY$ */
      339    11656    1   DCL C$ PTR;  /* temporary COND$ */
      340    11657
      341    11658    1   DCL Z8EK$BRANCH_TRUE ENTRY(2);
      342    11659    1   DCL Z8AT$CREATE_TEMPORARY ENTRY(2);
      343    11660    1   DCL Z8E7$MOVE ENTRY(2);
      344    11661    1   DCL Z8E5$MATH_PACK ENTRY(2);
      345    11662    1   DCL Z8EK$BRANCH ENTRY(1);
      346    11663    1   DCL Z8EK$BRANCH_FALSE ENTRY(2);
      347    11664    1   DCL Z8EX$SET_INDEX ENTRY(2);
      348    11665    1   DCL Z8EX$SET_UP_BY ENTRY(2);
      349    11666
      350    11667
      351    11668    1   SET_TEMP_LOOP_VARS : PROC;
      352    11669
      353    11670    2     V$ = VARYING$;
      354    11671    2     F$ = FROM$;
      355    11672    2     B$ = BY$;
      356    11673    2     C$ = COND$;
      357    11674
      358    11675    2   END SET_TEMP_LOOP_VARS;
      359    11676
      360    11677
      361    11678    1   INC_TEMP_LOOP_VARS : PROC;
      362    11679
      363    11680    2     V$ = V$ -> LX_ETT_ITEM.LINK;
      364    11681    2     F$ = F$ -> LX_ITEM.LINK;
      365    11682    2     B$ = B$ -> LX_ITEM.LINK;
      366    11683    2     C$ = C$ -> LX_ITEM.LINK;
      367    11684
      368    11685    2   END INC_TEMP_LOOP_VARS;
PL6.E3A0      #005=Z8EQ$CREATE_ITERATED_DO_WHILE File=Z8EQ.:Z8A6TSI              SAT 08/09/97 12:37 Page:77
      369    11686
      370    11687
      371    11688    1   GEN_MOVE : PROC (V$, F$);
      372    11689
      373    11690    2     DCL V$ PTR;
      374    11691    2     DCL F$ PTR;
      375    11692
      376    11693    2   IF V$ -> LX_ETT_ITEM.TYPE = %TYX
      377    11694    2        OR V$ -> LX_ETT_ITEM.TYPE = %TYY
      378    11695    2        OR (F$ -> LX_ITEM.ID = %LX_ETT_ITEM
      379    11696    2             AND (F$ -> LX_ETT_ITEM.TYPE = %TYX
      380    11697    2                   OR F$ -> LX_ETT_ITEM.TYPE = %TYY)) THEN
      381    11698    2     CALL Z8EX$SET_INDEX (V$, F$);
      382    11699    2   ELSE
      383    11700    2     CALL Z8E7$MOVE (V$, F$);
      384    11701
      385    11702    2   END GEN_MOVE;
      386    11703
      387    11704
      388    11705    1   GENERATE_MOVES : PROC;
      389    11706
      390    11707    2     CALL SET_TEMP_LOOP_VARS;
      391    11708
      392    11709    3     DO WHILE (V$ ~= ADDR(NIL)
      393    11710    3                 AND F$ ~= ADDR(NIL)
      394    11711    3                 AND B$ ~= ADDR(NIL)
      395    11712    3                 AND C$ ~= ADDR(NIL));
      396    11713
      397    11714    3       CALL GEN_MOVE (V$, F$);
      398    11715
      399    11716    3       CALL INC_TEMP_LOOP_VARS;
      400    11717
      401    11718    3     END;
      402    11719
      403    11720    2   END GENERATE_MOVES;
      404    11721
      405    11722
PL6.E3A0      #005=Z8EQ$CREATE_ITERATED_DO_WHILE File=Z8EQ.:Z8A6TSI              SAT 08/09/97 12:37 Page:78
      406    11723    1   GENERATE_ADD : PROC;
      407    11724
      408    11725
      409    11726    2     IF V$ -> LX_ETT_ITEM.TYPE = %TYX
      410    11727    2         OR V$ -> LX_ETT_ITEM.TYPE = %TYY THEN
      411    11728    3       DO;
      412    11729    3         CALL Z8EX$SET_UP_BY (V$, B$);
      413    11730    3       END;
      414    11731    2     ELSE
      415    11732    3       DO;
      416    11733
      417    11734             %INIT_BINARY_OP (@POINTER = "ADDR(OP_NODE)",
      418    11735                              @BERR = "V$ -> LX_ETT_ITEM.B.ERROR",
      419    11736                              @LINE = "V$ -> LX_ETT_ITEM.LINE",
      420    11737                              @COLUMN = "V$ -> LX_ETT_ITEM.COLUMN",
      421    11738                              @LOP$ = V$,
      422    11739                              @ROP$ = B$,
      423    11740                              @OP = %OP_PLUS);
      424    11758
      425    11759    3        CALL Z8E5$MATH_PACK (ADDR(OP_NODE),
      426    11760    3                             ADDR(ETT_ITEM));
      427    11761
      428    11762    3        CALL Z8E7$MOVE (V$,
      429    11763    3                        ADDR(ETT_ITEM));
      430    11764    3       END;
      431    11765
      432    11766    2   END GENERATE_ADD;
      433    11767
      434    11768
      435    11769    1   GEN_COND_LEVELS : PROC;
      436    11770
      437    11771    2   DCL TRUE_COND_LABEL$ PTR;
      438    11772    2   DCL NEXT_START_LABEL$ PTR;
      439    11773
      440    11774    2     CALL SET_TEMP_LOOP_VARS;
      441    11775    2     C$ = C$ -> LX_ITEM.LINK;
      442    11776
PL6.E3A0      #005=Z8EQ$CREATE_ITERATED_DO_WHILE File=Z8EQ.:Z8A6TSI              SAT 08/09/97 12:37 Page:79
      443    11777    3     DO WHILE (C$ ~= ADDR(NIL)
      444    11778    3                 AND V$ ~= ADDR(NIL)
      445    11779    3                 AND F$ ~= ADDR(NIL)
      446    11780    3                 AND B$ ~= ADDR(NIL));
      447    11781
      448    11782    3       CALL Z8AT$CREATE_TEMPORARY (%PARA,
      449    11783    3                                   NEXT_START_LABEL$);
      450    11784
      451    11785    3       CALL Z8AT$CREATE_TEMPORARY (%PARA,
      452    11786    3                                   TRUE_COND_LABEL$);
      453    11787
      454    11788            %NEW_ILL (@ID = %DEFLB,
      455    11789                      @LABEL$ = NEXT_START_LABEL$);
      456    12168
      457    12169    3       CALL Z8EK$BRANCH_TRUE (TRUE_COND_LABEL$,
      458    12170    3                               C$);
      459    12171
      460    12172    3       IF COMCOM.OB.COBOL_74 THEN
      461    12173    4         DO;
      462    12174    4           C74_SAVED_ILS = O1COM.ILS_LIST;
      463    12175                %INIT_ILS_LIST (@POINTER = "ADDR(O1COM.ILS_LIST)");
      464    12183    4         END;
      465    12184
      466    12185    3       CALL GENERATE_ADD;
      467    12186
      468    12187    3       IF COMCOM.OB.COBOL_74 THEN
      469    12188    4         DO;
      470    12189    4           C74_SAVED_AUGMENT_ILS = O1COM.ILS_LIST;
      471    12190    4           O1COM.ILS_LIST = C74_SAVED_ILS;
      472    12191    4         END;
      473    12192    3       CALL INC_TEMP_LOOP_VARS;
      474    12193
      475    12194    3       CALL GEN_MOVE (V$, F$);
      476    12195
      477    12196    3       IF COMCOM.OB.COBOL_74 THEN
      478    12197    4         DO;
      479    12198                %APPEND_ILS_LIST (@FROM$ = "ADDR(C74_SAVED_AUGMENT_ILS)",
PL6.E3A0      #005=Z8EQ$CREATE_ITERATED_DO_WHILE File=Z8EQ.:Z8A6TSI              SAT 08/09/97 12:37 Page:80
      480    12199                                  @TO$   = "ADDR(O1COM.ILS_LIST)");
      481    12216    4         END;
      482    12217
      483    12218    3       CALL Z8EK$BRANCH (START_DO_LABEL$);
      484    12219
      485    12220    3       START_DO_LABEL$ = NEXT_START_LABEL$;
      486    12221
      487    12222            %NEW_ILL (@ID = %DEFLB,
      488    12223                      @LABEL$ = TRUE_COND_LABEL$);
      489    12602    3     END;
      490    12603
      491    12604    2   END GEN_COND_LEVELS;
      492    12605
      493    12606
      494    12607
      495    12608
      496    12609    1     ILS_LIST$ = DO_ILS$;
      497    12610    1     GOTO DO_MERGE;
      498    12611
      499    12612    1   Z8EQ$MERGE_ITERATED_DO_WHILE : ENTRY (VARYING$,
      500    12613    1                                        FROM$,
      501    12614    1                                        BY$,
      502    12615    1                                        COND$);
      503    12616
      504    12617    1     ILS_LIST$ = ADDR(DO_BODY);
      505    12618    1     DO_BODY = O1COM.ILS_LIST;
      506    12619          %INIT_ILS_LIST (@POINTER = "ADDR(O1COM.ILS_LIST)");
      507    12627
      508    12628    1   DO_MERGE:
      509    12629
      510    12630          %NEW_ILL (@ID = %DO4);
      511    13009
      512    13010    1     CALL GENERATE_MOVES;
      513    13011
      514    13012    1     CALL Z8AT$CREATE_TEMPORARY (%PARA,
      515    13013    1                                 END_DO_LABEL$);
      516    13014
PL6.E3A0      #005=Z8EQ$CREATE_ITERATED_DO_WHILE File=Z8EQ.:Z8A6TSI              SAT 08/09/97 12:37 Page:81
      517    13015    1     CALL Z8AT$CREATE_TEMPORARY (%PARA,
      518    13016    1                                 START_DO_LABEL$);
      519    13017
      520    13018          %NEW_ILL (@ID = %DEFLB,
      521    13019                    @LABEL$ = START_DO_LABEL$);
      522    13398
      523    13399    1     CALL Z8EK$BRANCH_FALSE (END_DO_LABEL$,
      524    13400    1                            COND$);
      525    13401
      526    13402    1     CALL GEN_COND_LEVELS;
      527    13403
      528    13404          %APPEND_ILS_LIST (@FROM$ = ILS_LIST$,
      529    13405                            @TO$ = "ADDR(O1COM.ILS_LIST)");
      530    13422
      531    13423          %SET_PHASE_1_POSITION
      532    13424              (@TYPE   = %S_TYPE_PERFORM,
      533    13425               @LINE   = "ADDR (O1COM.LX_STK (O1COM.LX_TOP)) -> LX_TERMINAL.LINE",
      534    13426               @COLUMN = "ADDR (O1COM.LX_STK (O1COM.LX_TOP)) -> LX_TERMINAL.COLUMN") ;
      535    13815
      536    13816    1     CALL GENERATE_ADD;
      537    13817
      538    13818    1     CALL Z8EK$BRANCH (START_DO_LABEL$);
      539    13819
      540    13820          %NEW_ILL(@ID = %DEFLB,
      541    13821                   @LABEL$ = END_DO_LABEL$);
      542    14200
      543    14201
      544    14202          %NEW_ILL(@ID = %DOEND);
      545    14581
      546    14582    1   END Z8EQ$CREATE_ITERATED_DO_WHILE;
      547    14583        %EOD;

PL6.E3A0      #005=Z8EQ$CREATE_ITERATED_DO_WHILE File=Z8EQ.:Z8A6TSI              SAT 08/09/97 12:37 Page:82
--  Include file information  --

   Z8E_STATEMNT.:Z8A6TOU  is referenced.
   Z8E_ILS_LIST.:Z8A6TOU  is referenced.
   Z8E_NEW_ILL.:Z8A6TOU  is referenced.
   Z8E_MACROS.:Z8A6TOU  cannot be made into a system file and is referenced.
   Z8E_O1COM.:Z8A6TOU  cannot be made into a system file and is referenced.
   Z8A_LEX_SYMB.:Z8A6TOU  cannot be made into a system file and is referenced.
   Z8E_STACKS.:Z8A6TOU  cannot be made into a system file and is referenced.
   Z8A_ST.:Z8A6TOU  cannot be made into a system file and is referenced.
   Z8A_TYPES.:Z8A6TOU  is referenced.
   Z8A_COMCOM.:Z8A6TOU  cannot be made into a system file and is referenced.
   Z8A_ILS.:Z8A6TOU  cannot be made into a system file and is referenced.
   Z8A_ILL.:Z8A6TOU  cannot be made into a system file and is referenced.
   X8A_COM_MACS.:X8A6TOU  is referenced.
   Z8A_NAMES.:Z8A6TOU  is referenced.
   Z8A_SUPP_MAC.:Z8A6TOU  is referenced.
   Z8A_DEFC.:Z8A6TOU  cannot be made into a system file and is referenced.
      No diagnostics issued in procedure Z8EQ$CREATE_ITERATED_DO_WHILE.

   Procedure Z8EQ$CREATE_ITERATED_DO_WHILE requires 421 words for executable code.
   Procedure Z8EQ$CREATE_ITERATED_DO_WHILE requires 70 words of local(AUTO) storage.

PL6.E3A0      #005=Z8EQ$CREATE_ITERATED_DO_WHILE File=Z8EQ.:Z8A6TSI              SAT 08/09/97 12:37 Page:83

 Object Unit name= Z8EQ$CREATE_ITERATED_DO_WHILE              File name= Z8EQ.:Z8A6TOU
 UTS= AUG 09 '97 12:37:49.36 SAT                              Compiler= PL-6/E31         Sev=      00
 SharedLib= :SHARED_SYSTEM                                    Alt SharedLib=


    ****  Control sections  ****

 Sect   Type Bound  Init  Size OctSiz  Section name(segment info)
    0  LblCom even  none     1      1  ITERATION
    1  LblCom even  none     1      1  ILL$
    2  LblCom even  none     5      5  ILL_
    3  LblCom even  none     1      1  ILS$
    4  LblCom even  none     5      5  ILS_
    5  LblCom even  none     1      1  ST$
    6  LblCom even  none     5      5  ST_
    7  LblCom even  none    90    132  LEX_SYMBOL
    8  LblCom even  none     1      1  CURRENT_LEX_SYMBOL$
    9  LblCom even  none    90    132  TEMP_LEX_SYMBOL
   10  LblCom even  none    90    132  TEMP_LEX_SYMBOL2
   11   Proc  even  none   421    645  Z8EQ$CREATE_ITERATED_DO_WHILE
   12  RoData even  none    24     30  Z8EQ$CREATE_ITERATED_DO_WHILE

    ****  Entry defs  ****

                              Check   Calling
                             calling  sequence
  Sect OctLoc Primary Altret sequence   type   Parms  Name
    11      0   yes            yes      Std        5  Z8EQ$CREATE_ITERATED_DO_WHILE
    11    426                  yes      Std        4  Z8EQ$MERGE_ITERATED_DO_WHILE
PL6.E3A0      #005=Z8EQ$CREATE_ITERATED_DO_WHILE File=Z8EQ.:Z8A6TSI              SAT 08/09/97 12:37 Page:84

  ****  Entry refs  ****

         Check        Calling
        calling       sequence
Altret sequence SRef   type   Args  Name
         yes           Std       4 Z8AN$NEW_ILL
         yes           Std       2 Z8AT$CREATE_TEMPORARY
         yes           Std       1 Z8EK$BRANCH
         yes           Std       2 Z8EK$BRANCH_FALSE
         yes           Std       2 Z8EX$SET_INDEX
         yes           Std       2 Z8E7$MOVE
         yes           Std       2 Z8EX$SET_UP_BY
         yes           Std       2 Z8E5$MATH_PACK
         yes           Std       2 Z8EK$BRANCH_TRUE
                       nStd      0 X66_AUTO_5
                       nStd      0 X66_ARET

  ****  Data refs  ****

  Flags:  r = read only, s = secondary
Flgs Name                             Flgs Name                             Flgs Name
r    ILL_STEP                         r    ILS_STEP_TABLE                        COMCOM
     O1COM                                 HIER_STK_PTR                          HIER_STK
     PAGE_FORMAT                           REP_STK_PTR                           REP_STK

  ****  Segment refs  ****

  Flags:  r = read only, s = secondary
Flgs Name                             Flgs Name                             Flgs Name
     NULLSID                               ISSID
PL6.E3A0      #005=Z8EQ$CREATE_ITERATED_DO_WHILE File=Z8EQ.:Z8A6TSI              SAT 08/09/97 12:37 Page:85


      295        1        /*T***********************************************************/
      296        2        /*T*                                                         */
      297        3        /*T* Copyright (c) Bull HN Information Systems Inc., 1997    */
      298        4        /*T*                                                         */
      299        5        /*T***********************************************************/
      300        6        Z8EQ$CREATE_ITERATED_DO_WHILE : PROC ( VARYING$,

      6 11 000000   000000 700200 xent  Z8EQ$CREATE* TSX0  ! X66_AUTO_5
        11 000001   000106 000005                    ZERO    70,5
        11 000002   000422 710000 11                 TRA     s:12609

      301        7                                               FROM$,
      302        8                                               BY$,
      303        9                                               COND$,
      304       10                                               DO_ILS$);
      305       11
      306       12    1     DCL VARYING$ PTR;  /* To LX_ETT_ITEM */
      307       13    1     DCL FROM$ PTR;     /* To LX_ETT_ITEM */
      308       14    1     DCL BY$ PTR;       /* To LX_ETT_ITEM */
      309       15    1     DCL COND$ PTR;     /* Toabstract syntax tree */
      310       16    1     DCL DO_ILS$ PTR;   /* to ILS_LIST */
      311       17
      312       18        %EQU PHASE = 1;
      313       19        %INCLUDE Z8A_DEFC;
      314       87        %INCLUDE Z8A_SUPP_MAC;
      315     2487        %INCLUDE Z8A_ILL;
      316     3180        %INCLUDE Z8A_ILS;
      317     3289        %INCLUDE Z8A_COMCOM;
      318     3939        %INCLUDE Z8A_TYPES;
      319     4113        %INCLUDE Z8A_ST;
      320     7772        %INCLUDE Z8E_STACKS;
      321    10038        %INCLUDE Z8E_O1COM;
      322    10799        %INCLUDE Z8E_MACROS;
      323    11474        %INCLUDE Z8E_ILS_LIST;
      324    11558        %INCLUDE Z8E_STATEMNT;
      325    11627
PL6.E3A0      #005=Z8EQ$CREATE_ITERATED_DO_WHILE File=Z8EQ.:Z8A6TSI              SAT 08/09/97 12:37 Page:86
      326    11628        %DCL_AUTO_LX_ITEM (@NAME = OP_NODE);
      327    11632        %DCL_AUTO_LX_ITEM (@NAME = DO_BODY);
      328    11636        %DCL_AUTO_LX_ITEM (@NAME = ETT_ITEM);
      329    11640        %DCL_AUTO_LX_ITEM (@NAME = C74_SAVED_ILS);
      330    11644        %DCL_AUTO_LX_ITEM (@NAME = C74_SAVED_AUGMENT_ILS);
      331    11648
      332    11649    1   DCL ILS_LIST$ PTR;
      333    11650    1   DCL END_DO_LABEL$ PTR;
      334    11651    1   DCL START_DO_LABEL$ PTR;
      335    11652
      336    11653    1   DCL V$ PTR;  /* temporary VARYING$ */
      337    11654    1   DCL F$ PTR;  /* temporary FROM$ */
      338    11655    1   DCL B$ PTR;  /* temporary BY$ */
      339    11656    1   DCL C$ PTR;  /* temporary COND$ */
      340    11657
      341    11658    1   DCL Z8EK$BRANCH_TRUE ENTRY(2);
      342    11659    1   DCL Z8AT$CREATE_TEMPORARY ENTRY(2);
      343    11660    1   DCL Z8E7$MOVE ENTRY(2);
      344    11661    1   DCL Z8E5$MATH_PACK ENTRY(2);
      345    11662    1   DCL Z8EK$BRANCH ENTRY(1);
      346    11663    1   DCL Z8EK$BRANCH_FALSE ENTRY(2);
      347    11664    1   DCL Z8EX$SET_INDEX ENTRY(2);
      348    11665    1   DCL Z8EX$SET_UP_BY ENTRY(2);
      349    11666
      350    11667
      351    11668    1   SET_TEMP_LOOP_VARS : PROC;

  11668 11 000003   200074 741300       SET_TEMP_LO* STX1  ! NEXT_START_LABEL$+2,,AUTO

      352    11669
      353    11670    2     V$ = VARYING$;

  11670 11 000004   200003 470500                    LDP0    @VARYING$,,AUTO
        11 000005   000000 236100                    LDQ     0,,PR0
        11 000006   200063 756100                    STQ     V$,,AUTO

      354    11671    2     F$ = FROM$;
PL6.E3A0      #005=Z8EQ$CREATE_ITERATED_DO_WHILE File=Z8EQ.:Z8A6TSI              SAT 08/09/97 12:37 Page:87

  11671 11 000007   200004 471500                    LDP1    @FROM$,,AUTO
        11 000010   100000 236100                    LDQ     0,,PR1
        11 000011   200064 756100                    STQ     F$,,AUTO

      355    11672    2     B$ = BY$;

  11672 11 000012   200005 473500                    LDP3    @BY$,,AUTO
        11 000013   300000 236100                    LDQ     0,,PR3
        11 000014   200065 756100                    STQ     B$,,AUTO

      356    11673    2     C$ = COND$;

  11673 11 000015   200006 474500                    LDP4    @COND$,,AUTO
        11 000016   400000 236100                    LDQ     0,,PR4
        11 000017   200066 756100                    STQ     C$,,AUTO

      357    11674
      358    11675    2   END SET_TEMP_LOOP_VARS;

  11675 11 000020   000001 702211                    TSX2  ! 1,X1

      359    11676
      360    11677
      361    11678    1   INC_TEMP_LOOP_VARS : PROC;

  11678 11 000021   200074 741300       INC_TEMP_LO* STX1  ! NEXT_START_LABEL$+2,,AUTO

      362    11679
      363    11680    2     V$ = V$ -> LX_ETT_ITEM.LINK;

  11680 11 000022   200063 470500                    LDP0    V$,,AUTO
        11 000023   000007 236100                    LDQ     7,,PR0
        11 000024   200063 756100                    STQ     V$,,AUTO

      364    11681    2     F$ = F$ -> LX_ITEM.LINK;

PL6.E3A0      #005=Z8EQ$CREATE_ITERATED_DO_WHILE File=Z8EQ.:Z8A6TSI              SAT 08/09/97 12:37 Page:88
  11681 11 000025   200064 470500                    LDP0    F$,,AUTO
        11 000026   000007 236100                    LDQ     7,,PR0
        11 000027   200064 756100                    STQ     F$,,AUTO

      365    11682    2     B$ = B$ -> LX_ITEM.LINK;

  11682 11 000030   200065 470500                    LDP0    B$,,AUTO
        11 000031   000007 236100                    LDQ     7,,PR0
        11 000032   200065 756100                    STQ     B$,,AUTO

      366    11683    2     C$ = C$ -> LX_ITEM.LINK;

  11683 11 000033   200066 470500                    LDP0    C$,,AUTO
        11 000034   000007 236100                    LDQ     7,,PR0
        11 000035   200066 756100                    STQ     C$,,AUTO

      367    11684
      368    11685    2   END INC_TEMP_LOOP_VARS;

  11685 11 000036   000001 702211                    TSX2  ! 1,X1

      369    11686
      370    11687
      371    11688    1   GEN_MOVE : PROC (V$, F$);

  11688 11 000037   200074 741300       GEN_MOVE     STX1  ! NEXT_START_LABEL$+2,,AUTO

      372    11689
      373    11690    2     DCL V$ PTR;
      374    11691    2     DCL F$ PTR;
      375    11692
      376    11693    2   IF V$ -> LX_ETT_ITEM.TYPE = %TYX

  11693 11 000040   200075 470500                    LDP0    @V$,,AUTO
        11 000041   000000 471500                    LDP1    0,,PR0
        11 000042   100004 235100                    LDA     4,,PR1
        11 000043   000011 115007                    CMPA    9,DL
PL6.E3A0      #005=Z8EQ$CREATE_ITERATED_DO_WHILE File=Z8EQ.:Z8A6TSI              SAT 08/09/97 12:37 Page:89
        11 000044   000061 600000 11                 TZE     s:11698
        11 000045   000012 115007                    CMPA    10,DL
        11 000046   000061 600000 11                 TZE     s:11698
        11 000047   200076 473500                    LDP3    @F$,,AUTO
        11 000050   300000 474500                    LDP4    0,,PR3
        11 000051   400000 220100                    LDX0    0,,PR4
        11 000052   000004 100003                    CMPX0   4,DU
        11 000053   000066 601000 11                 TNZ     s:11700
        11 000054   400004 235100                    LDA     4,,PR4
        11 000055   000011 115007                    CMPA    9,DL
        11 000056   000061 600000 11                 TZE     s:11698
        11 000057   000012 115007                    CMPA    10,DL
        11 000060   000066 601000 11                 TNZ     s:11700

      377    11694    2        OR V$ -> LX_ETT_ITEM.TYPE = %TYY
      378    11695    2        OR (F$ -> LX_ITEM.ID = %LX_ETT_ITEM
      379    11696    2             AND (F$ -> LX_ETT_ITEM.TYPE = %TYX
      380    11697    2                   OR F$ -> LX_ETT_ITEM.TYPE = %TYY)) THEN
      381    11698    2     CALL Z8EX$SET_INDEX (V$, F$);

  11698 11 000061   200075 630500                    EPPR0   @V$,,AUTO
        11 000062   000000 631400 12                 EPPR1   0
        11 000063   000000 701000 xent               TSX1    Z8EX$SET_INDEX
        11 000064   000000 011000                    NOP     0
        11 000065   000072 710000 11                 TRA     s:11702

      382    11699    2   ELSE
      383    11700    2     CALL Z8E7$MOVE (V$, F$);

  11700 11 000066   200075 630500                    EPPR0   @V$,,AUTO
        11 000067   000000 631400 12                 EPPR1   0
        11 000070   000000 701000 xent               TSX1    Z8E7$MOVE
        11 000071   000000 011000                    NOP     0

      384    11701
      385    11702    2   END GEN_MOVE;

PL6.E3A0      #005=Z8EQ$CREATE_ITERATED_DO_WHILE File=Z8EQ.:Z8A6TSI              SAT 08/09/97 12:37 Page:90
  11702 11 000072   200074 221300                    LDX1  ! NEXT_START_LABEL$+2,,AUTO
        11 000073   000001 702211                    TSX2  ! 1,X1

      386    11703
      387    11704
      388    11705    1   GENERATE_MOVES : PROC;

  11705 11 000074   200070 741300       GENERATE_MO* STX1  ! C$+2,,AUTO

      389    11706
      390    11707    2     CALL SET_TEMP_LOOP_VARS;

  11707 11 000075   000003 701000 11                 TSX1    SET_TEMP_LOOP_VARS
        11 000076   000000 011000                    NOP     0

      391    11708
      392    11709    3     DO WHILE (V$ ~= ADDR(NIL)

  11709 11 000077   000110 710000 11                 TRA     s:11718

      393    11710    3                 AND F$ ~= ADDR(NIL)
      394    11711    3                 AND B$ ~= ADDR(NIL)
      395    11712    3                 AND C$ ~= ADDR(NIL));
      396    11713
      397    11714    3       CALL GEN_MOVE (V$, F$);

  11714 11 000100   200064 630500                    EPPR0   F$,,AUTO
        11 000101   200076 450500                    STP0    @F$,,AUTO
        11 000102   200063 631500                    EPPR1   V$,,AUTO
        11 000103   200075 451500                    STP1    @V$,,AUTO
        11 000104   000037 701000 11                 TSX1    GEN_MOVE
        11 000105   000000 011000                    NOP     0

      398    11715
      399    11716    3       CALL INC_TEMP_LOOP_VARS;

  11716 11 000106   000021 701000 11                 TSX1    INC_TEMP_LOOP_VARS
PL6.E3A0      #005=Z8EQ$CREATE_ITERATED_DO_WHILE File=Z8EQ.:Z8A6TSI              SAT 08/09/97 12:37 Page:91
        11 000107   000000 011000                    NOP     0

      400    11717
      401    11718    3     END;

  11718 11 000110   200063 236100                    LDQ     V$,,AUTO
        11 000111   000001 116000 12                 CMPQ    1
        11 000112   000124 600000 11                 TZE     s:11720
        11 000113   200064 236100                    LDQ     F$,,AUTO
        11 000114   000001 116000 12                 CMPQ    1
        11 000115   000124 600000 11                 TZE     s:11720
        11 000116   200065 236100                    LDQ     B$,,AUTO
        11 000117   000001 116000 12                 CMPQ    1
        11 000120   000124 600000 11                 TZE     s:11720
        11 000121   200066 236100                    LDQ     C$,,AUTO
        11 000122   000001 116000 12                 CMPQ    1
        11 000123   000100 601000 11                 TNZ     s:11714

      402    11719
      403    11720    2   END GENERATE_MOVES;

  11720 11 000124   200070 221300                    LDX1  ! C$+2,,AUTO
        11 000125   000001 702211                    TSX2  ! 1,X1

      404    11721
      405    11722
      406    11723    1   GENERATE_ADD : PROC;

  11723 11 000126   200074 741300       GENERATE_ADD STX1  ! NEXT_START_LABEL$+2,,AUTO

      407    11724
      408    11725
      409    11726    2     IF V$ -> LX_ETT_ITEM.TYPE = %TYX

  11726 11 000127   200063 470500                    LDP0    V$,,AUTO
        11 000130   000004 235100                    LDA     4,,PR0
        11 000131   000011 115007                    CMPA    9,DL
PL6.E3A0      #005=Z8EQ$CREATE_ITERATED_DO_WHILE File=Z8EQ.:Z8A6TSI              SAT 08/09/97 12:37 Page:92
        11 000132   000135 600000 11                 TZE     s:11729
        11 000133   000012 115007                    CMPA    10,DL
        11 000134   000146 601000 11                 TNZ     s:11742

      410    11727    2         OR V$ -> LX_ETT_ITEM.TYPE = %TYY THEN
      411    11728    3       DO;

      412    11729    3         CALL Z8EX$SET_UP_BY (V$, B$);

  11729 11 000135   200065 631500                    EPPR1   B$,,AUTO
        11 000136   200101 451500                    STP1    @F$+3,,AUTO
        11 000137   200063 633500                    EPPR3   V$,,AUTO
        11 000140   200100 453500                    STP3    @F$+2,,AUTO
        11 000141   200100 630500                    EPPR0   @F$+2,,AUTO
        11 000142   000000 631400 12                 EPPR1   0
        11 000143   000000 701000 xent               TSX1    Z8EX$SET_UP_BY
        11 000144   000000 011000                    NOP     0

      413    11730    3       END;

  11730 11 000145   000220 710000 11                 TRA     s:11766

      414    11731    2     ELSE
      415    11732    3       DO;

      416    11733
      417    11734             %INIT_BINARY_OP (@POINTER = "ADDR(OP_NODE)",
      418    11735                              @BERR = "V$ -> LX_ETT_ITEM.B.ERROR",
      419    11736                              @LINE = "V$ -> LX_ETT_ITEM.LINE",
      420    11737                              @COLUMN = "V$ -> LX_ETT_ITEM.COLUMN",
      421    11738                              @LOP$ = V$,
      422    11739                              @ROP$ = B$,
      423    11740                              @OP = %OP_PLUS);

  11742 11 000146   000005 220003                    LDX0    5,DU
        11 000147   200010 740100                    STX0    OP_NODE,,AUTO

PL6.E3A0      #005=Z8EQ$CREATE_ITERATED_DO_WHILE File=Z8EQ.:Z8A6TSI              SAT 08/09/97 12:37 Page:93
  11743 11 000150   000000 222003                    LDX2    0,DU
        11 000151   200010 442100                    SXL2    OP_NODE,,AUTO

  11745 11 000152   000000 236100                    LDQ     0,,PR0
        11 000153   200010 676100                    ERQ     OP_NODE,,AUTO
        11 000154   400000 376007                    ANQ     -131072,DL
        11 000155   200010 656100                    ERSQ    OP_NODE,,AUTO

  11750 11 000156   000005 235100                    LDA     5,,PR0
        11 000157   200015 755100                    STA     OP_NODE+5,,AUTO

  11751 11 000160   000006 235100                    LDA     6,,PR0
        11 000161   200016 755100                    STA     OP_NODE+6,,AUTO

  11752 11 000162   200065 236100                    LDQ     B$,,AUTO
        11 000163   200012 756100                    STQ     OP_NODE+2,,AUTO

  11753 11 000164   200063 236100                    LDQ     V$,,AUTO
        11 000165   200011 756100                    STQ     OP_NODE+1,,AUTO

  11754 11 000166   000020 235007                    LDA     16,DL
        11 000167   200013 755100                    STA     OP_NODE+3,,AUTO

  11755 11 000170   000001 236000 12                 LDQ     1
        11 000171   200017 756100                    STQ     OP_NODE+7,,AUTO

      424    11758
      425    11759    3        CALL Z8E5$MATH_PACK (ADDR(OP_NODE),

  11759 11 000172   200010 631500                    EPPR1   OP_NODE,,AUTO
        11 000173   200100 451500                    STP1    @F$+2,,AUTO
        11 000174   200030 633500                    EPPR3   ETT_ITEM,,AUTO
        11 000175   200101 453500                    STP3    @F$+3,,AUTO
        11 000176   200101 634500                    EPPR4   @F$+3,,AUTO
        11 000177   200103 454500                    STP4    @F$+5,,AUTO
        11 000200   200100 635500                    EPPR5   @F$+2,,AUTO
        11 000201   200102 455500                    STP5    @F$+4,,AUTO
PL6.E3A0      #005=Z8EQ$CREATE_ITERATED_DO_WHILE File=Z8EQ.:Z8A6TSI              SAT 08/09/97 12:37 Page:94
        11 000202   200102 630500                    EPPR0   @F$+4,,AUTO
        11 000203   000000 631400 12                 EPPR1   0
        11 000204   000000 701000 xent               TSX1    Z8E5$MATH_PACK
        11 000205   000000 011000                    NOP     0

      426    11760    3                             ADDR(ETT_ITEM));
      427    11761
      428    11762    3        CALL Z8E7$MOVE (V$,

  11762 11 000206   200030 630500                    EPPR0   ETT_ITEM,,AUTO
        11 000207   200100 450500                    STP0    @F$+2,,AUTO
        11 000210   200100 631500                    EPPR1   @F$+2,,AUTO
        11 000211   200103 451500                    STP1    @F$+5,,AUTO
        11 000212   200063 633500                    EPPR3   V$,,AUTO
        11 000213   200102 453500                    STP3    @F$+4,,AUTO
        11 000214   200102 630500                    EPPR0   @F$+4,,AUTO
        11 000215   000000 631400 12                 EPPR1   0
        11 000216   000000 701000 xent               TSX1    Z8E7$MOVE
        11 000217   000000 011000                    NOP     0

      429    11763    3                        ADDR(ETT_ITEM));
      430    11764    3       END;

      431    11765
      432    11766    2   END GENERATE_ADD;

  11766 11 000220   200074 221300                    LDX1  ! NEXT_START_LABEL$+2,,AUTO
        11 000221   000001 702211                    TSX2  ! 1,X1

      433    11767
      434    11768
      435    11769    1   GEN_COND_LEVELS : PROC;

  11769 11 000222   200070 741300       GEN_COND_LE* STX1  ! C$+2,,AUTO

      436    11770
      437    11771    2   DCL TRUE_COND_LABEL$ PTR;
PL6.E3A0      #005=Z8EQ$CREATE_ITERATED_DO_WHILE File=Z8EQ.:Z8A6TSI              SAT 08/09/97 12:37 Page:95
      438    11772    2   DCL NEXT_START_LABEL$ PTR;
      439    11773
      440    11774    2     CALL SET_TEMP_LOOP_VARS;

  11774 11 000223   000003 701000 11                 TSX1    SET_TEMP_LOOP_VARS
        11 000224   000000 011000                    NOP     0

      441    11775    2     C$ = C$ -> LX_ITEM.LINK;

  11775 11 000225   200066 470500                    LDP0    C$,,AUTO
        11 000226   000007 236100                    LDQ     7,,PR0
        11 000227   200066 756100                    STQ     C$,,AUTO

      442    11776
      443    11777    3     DO WHILE (C$ ~= ADDR(NIL)

  11777 11 000230   000404 710000 11                 TRA     s:12602

      444    11778    3                 AND V$ ~= ADDR(NIL)
      445    11779    3                 AND F$ ~= ADDR(NIL)
      446    11780    3                 AND B$ ~= ADDR(NIL));
      447    11781
      448    11782    3       CALL Z8AT$CREATE_TEMPORARY (%PARA,

  11782 11 000231   200072 630500                    EPPR0   NEXT_START_LABEL$,,AUTO
        11 000232   200101 450500                    STP0    @F$+3,,AUTO
        11 000233   000003 236000 12                 LDQ     3
        11 000234   200100 756100                    STQ     @F$+2,,AUTO
        11 000235   200100 630500                    EPPR0   @F$+2,,AUTO
        11 000236   000000 631400 12                 EPPR1   0
        11 000237   000000 701000 xent               TSX1    Z8AT$CREATE_TEMPORARY
        11 000240   000000 011000                    NOP     0

      449    11783    3                                   NEXT_START_LABEL$);
      450    11784
      451    11785    3       CALL Z8AT$CREATE_TEMPORARY (%PARA,

PL6.E3A0      #005=Z8EQ$CREATE_ITERATED_DO_WHILE File=Z8EQ.:Z8A6TSI              SAT 08/09/97 12:37 Page:96
  11785 11 000241   200071 630500                    EPPR0   TRUE_COND_LABEL$,,AUTO
        11 000242   200101 450500                    STP0    @F$+3,,AUTO
        11 000243   000003 236000 12                 LDQ     3
        11 000244   200100 756100                    STQ     @F$+2,,AUTO
        11 000245   200100 630500                    EPPR0   @F$+2,,AUTO
        11 000246   000000 631400 12                 EPPR1   0
        11 000247   000000 701000 xent               TSX1    Z8AT$CREATE_TEMPORARY
        11 000250   000000 011000                    NOP     0

      452    11786    3                                   TRUE_COND_LABEL$);
      453    11787
      454    11788            %NEW_ILL (@ID = %DEFLB,
      455    11789                      @LABEL$ = NEXT_START_LABEL$);

  12121 11 000251   000007 236000 12                 LDQ     7
        11 000252   200100 756100                    STQ     @F$+2,,AUTO
        11 000253   200100 630500                    EPPR0   @F$+2,,AUTO
        11 000254   200105 450500                    STP0    @F$+7,,AUTO
        11 000255   000010 236000 12                 LDQ     8
        11 000256   200104 756100                    STQ     @F$+6,,AUTO
        11 000257   000012 237000 12                 LDAQ    10
        11 000260   200102 757100                    STAQ    @F$+4,,AUTO
        11 000261   200102 630500                    EPPR0   @F$+4,,AUTO
        11 000262   000004 631400 12                 EPPR1   4
        11 000263   000000 701000 xent               TSX1    Z8AN$NEW_ILL
        11 000264   000000 011000                    NOP     0

  12122 11 000265   200072 236100                    LDQ     NEXT_START_LABEL$,,AUTO
        11 000266   000000 470400 1                  LDP0    ILL$
        11 000267   000001 756100                    STQ     1,,PR0

      456    12168
      457    12169    3       CALL Z8EK$BRANCH_TRUE (TRUE_COND_LABEL$,

  12169 11 000270   200066 631500                    EPPR1   C$,,AUTO
        11 000271   200101 451500                    STP1    @F$+3,,AUTO
        11 000272   200071 633500                    EPPR3   TRUE_COND_LABEL$,,AUTO
PL6.E3A0      #005=Z8EQ$CREATE_ITERATED_DO_WHILE File=Z8EQ.:Z8A6TSI              SAT 08/09/97 12:37 Page:97
        11 000273   200100 453500                    STP3    @F$+2,,AUTO
        11 000274   200100 630500                    EPPR0   @F$+2,,AUTO
        11 000275   000000 631400 12                 EPPR1   0
        11 000276   000000 701000 xent               TSX1    Z8EK$BRANCH_TRUE
        11 000277   000000 011000                    NOP     0

      458    12170    3                               C$);
      459    12171
      460    12172    3       IF COMCOM.OB.COBOL_74 THEN

  12172 11 000300   000015 234000 xsym               SZN     COMCOM+13
        11 000301   000313 605000 11                 TPL     s:12185

      461    12173    4         DO;

      462    12174    4           C74_SAVED_ILS = O1COM.ILS_LIST;

  12174 11 000302   000100 100400                    MLR     fill='000'O
        11 000303   000016 000040 xsym               ADSC9   O1COM+14                 cn=0,n=32
        11 000304   200040 000040                    ADSC9   C74_SAVED_ILS,,AUTO      cn=0,n=32

      463    12175                %INIT_ILS_LIST (@POINTER = "ADDR(O1COM.ILS_LIST)");

  12177 11 000305   000007 220003                    LDX0    7,DU
        11 000306   000016 740000 xsym               STX0    O1COM+14

  12178 11 000307   000001 236000 12                 LDQ     1
        11 000310   000017 756000 xsym               STQ     O1COM+15

  12179 11 000311   000020 756000 xsym               STQ     O1COM+16

  12180 11 000312   000025 756000 xsym               STQ     O1COM+21

      464    12183    4         END;

      465    12184
      466    12185    3       CALL GENERATE_ADD;
PL6.E3A0      #005=Z8EQ$CREATE_ITERATED_DO_WHILE File=Z8EQ.:Z8A6TSI              SAT 08/09/97 12:37 Page:98

  12185 11 000313   000126 701000 11                 TSX1    GENERATE_ADD
        11 000314   000000 011000                    NOP     0

      467    12186
      468    12187    3       IF COMCOM.OB.COBOL_74 THEN

  12187 11 000315   000015 234000 xsym               SZN     COMCOM+13
        11 000316   000325 605000 11                 TPL     s:12192

      469    12188    4         DO;

      470    12189    4           C74_SAVED_AUGMENT_ILS = O1COM.ILS_LIST;

  12189 11 000317   000100 100400                    MLR     fill='000'O
        11 000320   000016 000040 xsym               ADSC9   O1COM+14                 cn=0,n=32
        11 000321   200050 000040                    ADSC9   C74_SAVED_AUGMENT_ILS,,AUTO cn=0,n=32

      471    12190    4           O1COM.ILS_LIST = C74_SAVED_ILS;

  12190 11 000322   000000 100500                    MLR     fill='000'O
        11 000323   200040 000040                    ADSC9   C74_SAVED_ILS,,AUTO      cn=0,n=32
        11 000324   000016 000040 xsym               ADSC9   O1COM+14                 cn=0,n=32

      472    12191    4         END;

      473    12192    3       CALL INC_TEMP_LOOP_VARS;

  12192 11 000325   000021 701000 11                 TSX1    INC_TEMP_LOOP_VARS
        11 000326   000000 011000                    NOP     0

      474    12193
      475    12194    3       CALL GEN_MOVE (V$, F$);

  12194 11 000327   200064 630500                    EPPR0   F$,,AUTO
        11 000330   200076 450500                    STP0    @F$,,AUTO
        11 000331   200063 631500                    EPPR1   V$,,AUTO
PL6.E3A0      #005=Z8EQ$CREATE_ITERATED_DO_WHILE File=Z8EQ.:Z8A6TSI              SAT 08/09/97 12:37 Page:99
        11 000332   200075 451500                    STP1    @V$,,AUTO
        11 000333   000037 701000 11                 TSX1    GEN_MOVE
        11 000334   000000 011000                    NOP     0

      476    12195
      477    12196    3       IF COMCOM.OB.COBOL_74 THEN

  12196 11 000335   000015 234000 xsym               SZN     COMCOM+13
        11 000336   000355 605000 11                 TPL     s:12218

      478    12197    4         DO;

      479    12198                %APPEND_ILS_LIST (@FROM$ = "ADDR(C74_SAVED_AUGMENT_ILS)",
      480    12199                                  @TO$   = "ADDR(O1COM.ILS_LIST)");

  12205 11 000337   200051 236100                    LDQ     C74_SAVED_AUGMENT_ILS+1,,AUTO
        11 000340   000001 116000 12                 CMPQ    1
        11 000341   000355 600000 11                 TZE     s:12218

  12206 11 000342   000017 236000 xsym               LDQ     O1COM+15
        11 000343   000001 116000 12                 CMPQ    1
        11 000344   000350 601000 11                 TNZ     s:12210

  12207 11 000345   200051 236100                    LDQ     C74_SAVED_AUGMENT_ILS+1,,AUTO
        11 000346   000017 756000 xsym               STQ     O1COM+15

  12208 11 000347   000353 710000 11                 TRA     s:12212

  12210 11 000350   200051 236100                    LDQ     C74_SAVED_AUGMENT_ILS+1,,AUTO
        11 000351   000020 470400 xsym               LDP0    O1COM+16
        11 000352   000002 756100                    STQ     2,,PR0

  12212 11 000353   200052 236100                    LDQ     C74_SAVED_AUGMENT_ILS+2,,AUTO
        11 000354   000020 756000 xsym               STQ     O1COM+16

      481    12216    4         END;

PL6.E3A0      #005=Z8EQ$CREATE_ITERATED_DO_WHILE File=Z8EQ.:Z8A6TSI              SAT 08/09/97 12:37 Page:100
      482    12217
      483    12218    3       CALL Z8EK$BRANCH (START_DO_LABEL$);

  12218 11 000355   200062 630500                    EPPR0   START_DO_LABEL$,,AUTO
        11 000356   200100 450500                    STP0    @F$+2,,AUTO
        11 000357   200100 630500                    EPPR0   @F$+2,,AUTO
        11 000360   000014 631400 12                 EPPR1   12
        11 000361   000000 701000 xent               TSX1    Z8EK$BRANCH
        11 000362   000000 011000                    NOP     0

      484    12219
      485    12220    3       START_DO_LABEL$ = NEXT_START_LABEL$;

  12220 11 000363   200072 236100                    LDQ     NEXT_START_LABEL$,,AUTO
        11 000364   200062 756100                    STQ     START_DO_LABEL$,,AUTO

      486    12221
      487    12222            %NEW_ILL (@ID = %DEFLB,
      488    12223                      @LABEL$ = TRUE_COND_LABEL$);

  12555 11 000365   000007 236000 12                 LDQ     7
        11 000366   200100 756100                    STQ     @F$+2,,AUTO
        11 000367   200100 630500                    EPPR0   @F$+2,,AUTO
        11 000370   200105 450500                    STP0    @F$+7,,AUTO
        11 000371   000010 236000 12                 LDQ     8
        11 000372   200104 756100                    STQ     @F$+6,,AUTO
        11 000373   000012 237000 12                 LDAQ    10
        11 000374   200102 757100                    STAQ    @F$+4,,AUTO
        11 000375   200102 630500                    EPPR0   @F$+4,,AUTO
        11 000376   000004 631400 12                 EPPR1   4
        11 000377   000000 701000 xent               TSX1    Z8AN$NEW_ILL
        11 000400   000000 011000                    NOP     0

  12556 11 000401   200071 236100                    LDQ     TRUE_COND_LABEL$,,AUTO
        11 000402   000000 470400 1                  LDP0    ILL$
        11 000403   000001 756100                    STQ     1,,PR0

PL6.E3A0      #005=Z8EQ$CREATE_ITERATED_DO_WHILE File=Z8EQ.:Z8A6TSI              SAT 08/09/97 12:37 Page:101
      489    12602    3     END;

  12602 11 000404   200066 236100                    LDQ     C$,,AUTO
        11 000405   000001 116000 12                 CMPQ    1
        11 000406   000420 600000 11                 TZE     s:12604
        11 000407   200063 236100                    LDQ     V$,,AUTO
        11 000410   000001 116000 12                 CMPQ    1
        11 000411   000420 600000 11                 TZE     s:12604
        11 000412   200064 236100                    LDQ     F$,,AUTO
        11 000413   000001 116000 12                 CMPQ    1
        11 000414   000420 600000 11                 TZE     s:12604
        11 000415   200065 236100                    LDQ     B$,,AUTO
        11 000416   000001 116000 12                 CMPQ    1
        11 000417   000231 601000 11                 TNZ     s:11782

      490    12603
      491    12604    2   END GEN_COND_LEVELS;

  12604 11 000420   200070 221300                    LDX1  ! C$+2,,AUTO
        11 000421   000001 702211                    TSX2  ! 1,X1

      492    12605
      493    12606
      494    12607
      495    12608
      496    12609    1     ILS_LIST$ = DO_ILS$;

  12609 11 000422   200007 470500                    LDP0    @DO_ILS$,,AUTO
        11 000423   000000 236100                    LDQ     0,,PR0
        11 000424   200060 756100                    STQ     ILS_LIST$,,AUTO

      497    12610    1     GOTO DO_MERGE;

  12610 11 000425   000443 710000 11                 TRA     DO_MERGE

      498    12611
      499    12612    1   Z8EQ$MERGE_ITERATED_DO_WHILE : ENTRY (VARYING$,
PL6.E3A0      #005=Z8EQ$CREATE_ITERATED_DO_WHILE File=Z8EQ.:Z8A6TSI              SAT 08/09/97 12:37 Page:102

  12612 11 000426   000000 700200 xent  Z8EQ$MERGE_* TSX0  ! X66_AUTO_5
        11 000427   000106 000005                    ZERO    70,5

      500    12613    1                                        FROM$,
      501    12614    1                                        BY$,
      502    12615    1                                        COND$);
      503    12616
      504    12617    1     ILS_LIST$ = ADDR(DO_BODY);

  12617 11 000430   200020 630500                    EPPR0   DO_BODY,,AUTO
        11 000431   200060 450500                    STP0    ILS_LIST$,,AUTO

      505    12618    1     DO_BODY = O1COM.ILS_LIST;

  12618 11 000432   000100 100400                    MLR     fill='000'O
        11 000433   000016 000040 xsym               ADSC9   O1COM+14                 cn=0,n=32
        11 000434   200020 000040                    ADSC9   DO_BODY,,AUTO            cn=0,n=32

      506    12619          %INIT_ILS_LIST (@POINTER = "ADDR(O1COM.ILS_LIST)");

  12621 11 000435   000007 220003                    LDX0    7,DU
        11 000436   000016 740000 xsym               STX0    O1COM+14

  12622 11 000437   000001 236000 12                 LDQ     1
        11 000440   000017 756000 xsym               STQ     O1COM+15

  12623 11 000441   000020 756000 xsym               STQ     O1COM+16

  12624 11 000442   000025 756000 xsym               STQ     O1COM+21

      507    12627
      508    12628    1   DO_MERGE:
      509    12629
      510    12630          %NEW_ILL (@ID = %DO4);

  12661 11 000443                       DO_MERGE     null
PL6.E3A0      #005=Z8EQ$CREATE_ITERATED_DO_WHILE File=Z8EQ.:Z8A6TSI              SAT 08/09/97 12:37 Page:103
  12713 11 000443   000007 236000 12                 LDQ     7
        11 000444   200100 756100                    STQ     @F$+2,,AUTO
        11 000445   200100 630500                    EPPR0   @F$+2,,AUTO
        11 000446   200105 450500                    STP0    @F$+7,,AUTO
        11 000447   000010 236000 12                 LDQ     8
        11 000450   200104 756100                    STQ     @F$+6,,AUTO
        11 000451   000020 237000 12                 LDAQ    16
        11 000452   200102 757100                    STAQ    @F$+4,,AUTO
        11 000453   200102 630500                    EPPR0   @F$+4,,AUTO
        11 000454   000004 631400 12                 EPPR1   4
        11 000455   000000 701000 xent               TSX1    Z8AN$NEW_ILL
        11 000456   000000 011000                    NOP     0

      511    13009
      512    13010    1     CALL GENERATE_MOVES;

  13010 11 000457   000074 701000 11                 TSX1    GENERATE_MOVES
        11 000460   000000 011000                    NOP     0

      513    13011
      514    13012    1     CALL Z8AT$CREATE_TEMPORARY (%PARA,

  13012 11 000461   200061 630500                    EPPR0   END_DO_LABEL$,,AUTO
        11 000462   200101 450500                    STP0    @F$+3,,AUTO
        11 000463   000003 236000 12                 LDQ     3
        11 000464   200100 756100                    STQ     @F$+2,,AUTO
        11 000465   200100 630500                    EPPR0   @F$+2,,AUTO
        11 000466   000000 631400 12                 EPPR1   0
        11 000467   000000 701000 xent               TSX1    Z8AT$CREATE_TEMPORARY
        11 000470   000000 011000                    NOP     0

      515    13013    1                                 END_DO_LABEL$);
      516    13014
      517    13015    1     CALL Z8AT$CREATE_TEMPORARY (%PARA,

  13015 11 000471   200062 630500                    EPPR0   START_DO_LABEL$,,AUTO
        11 000472   200101 450500                    STP0    @F$+3,,AUTO
PL6.E3A0      #005=Z8EQ$CREATE_ITERATED_DO_WHILE File=Z8EQ.:Z8A6TSI              SAT 08/09/97 12:37 Page:104
        11 000473   000003 236000 12                 LDQ     3
        11 000474   200100 756100                    STQ     @F$+2,,AUTO
        11 000475   200100 630500                    EPPR0   @F$+2,,AUTO
        11 000476   000000 631400 12                 EPPR1   0
        11 000477   000000 701000 xent               TSX1    Z8AT$CREATE_TEMPORARY
        11 000500   000000 011000                    NOP     0

      518    13016    1                                 START_DO_LABEL$);
      519    13017
      520    13018          %NEW_ILL (@ID = %DEFLB,
      521    13019                    @LABEL$ = START_DO_LABEL$);

  13351 11 000501   000007 236000 12                 LDQ     7
        11 000502   200100 756100                    STQ     @F$+2,,AUTO
        11 000503   200100 630500                    EPPR0   @F$+2,,AUTO
        11 000504   200105 450500                    STP0    @F$+7,,AUTO
        11 000505   000010 236000 12                 LDQ     8
        11 000506   200104 756100                    STQ     @F$+6,,AUTO
        11 000507   000012 237000 12                 LDAQ    10
        11 000510   200102 757100                    STAQ    @F$+4,,AUTO
        11 000511   200102 630500                    EPPR0   @F$+4,,AUTO
        11 000512   000004 631400 12                 EPPR1   4
        11 000513   000000 701000 xent               TSX1    Z8AN$NEW_ILL
        11 000514   000000 011000                    NOP     0

  13352 11 000515   200062 236100                    LDQ     START_DO_LABEL$,,AUTO
        11 000516   000000 470400 1                  LDP0    ILL$
        11 000517   000001 756100                    STQ     1,,PR0

      522    13398
      523    13399    1     CALL Z8EK$BRANCH_FALSE (END_DO_LABEL$,

  13399 11 000520   200006 236100                    LDQ     @COND$,,AUTO
        11 000521   200101 756100                    STQ     @F$+3,,AUTO
        11 000522   200061 631500                    EPPR1   END_DO_LABEL$,,AUTO
        11 000523   200100 451500                    STP1    @F$+2,,AUTO
        11 000524   200100 630500                    EPPR0   @F$+2,,AUTO
PL6.E3A0      #005=Z8EQ$CREATE_ITERATED_DO_WHILE File=Z8EQ.:Z8A6TSI              SAT 08/09/97 12:37 Page:105
        11 000525   000000 631400 12                 EPPR1   0
        11 000526   000000 701000 xent               TSX1    Z8EK$BRANCH_FALSE
        11 000527   000000 011000                    NOP     0

      524    13400    1                            COND$);
      525    13401
      526    13402    1     CALL GEN_COND_LEVELS;

  13402 11 000530   000222 701000 11                 TSX1    GEN_COND_LEVELS
        11 000531   000000 011000                    NOP     0

      527    13403
      528    13404          %APPEND_ILS_LIST (@FROM$ = ILS_LIST$,
      529    13405                            @TO$ = "ADDR(O1COM.ILS_LIST)");

  13411 11 000532   200060 470500                    LDP0    ILS_LIST$,,AUTO
        11 000533   000001 236100                    LDQ     1,,PR0
        11 000534   000001 116000 12                 CMPQ    1
        11 000535   000551 600000 11                 TZE     s:13428

  13412 11 000536   000017 236000 xsym               LDQ     O1COM+15
        11 000537   000001 116000 12                 CMPQ    1
        11 000540   000544 601000 11                 TNZ     s:13416

  13413 11 000541   000001 236100                    LDQ     1,,PR0
        11 000542   000017 756000 xsym               STQ     O1COM+15

  13414 11 000543   000547 710000 11                 TRA     s:13418

  13416 11 000544   000001 236100                    LDQ     1,,PR0
        11 000545   000020 471400 xsym               LDP1    O1COM+16
        11 000546   100002 756100                    STQ     2,,PR1

  13418 11 000547   000002 236100                    LDQ     2,,PR0
        11 000550   000020 756000 xsym               STQ     O1COM+16

      530    13422
PL6.E3A0      #005=Z8EQ$CREATE_ITERATED_DO_WHILE File=Z8EQ.:Z8A6TSI              SAT 08/09/97 12:37 Page:106
      531    13423          %SET_PHASE_1_POSITION
      532    13424              (@TYPE   = %S_TYPE_PERFORM,
      533    13425               @LINE   = "ADDR (O1COM.LX_STK (O1COM.LX_TOP)) -> LX_TERMINAL.LINE",
      534    13426               @COLUMN = "ADDR (O1COM.LX_STK (O1COM.LX_TOP)) -> LX_TERMINAL.COLUMN") ;

  13428 11 000551   000151 235000 xsym               LDA     O1COM+105
        11 000552   000003 735000                    ALS     3
        11 000553   014024 235005 xsym               LDA     O1COM+6164,AL
        11 000554   000007 755000 xsym               STA     O1COM+7

  13429 11 000555   000151 236000 xsym               LDQ     O1COM+105
        11 000556   000003 736000                    QLS     3
        11 000557   014025 235006 xsym               LDA     O1COM+6165,QL
        11 000560   000010 755000 xsym               STA     O1COM+8

  13430 11 000561   000011 235000 xsym               LDA     O1COM+9
        11 000562   000577 600000 11                 TZE     s:13812

  13465 11 000563   000007 236000 12                 LDQ     7
        11 000564   200100 756100                    STQ     @F$+2,,AUTO
        11 000565   200100 631500                    EPPR1   @F$+2,,AUTO
        11 000566   200105 451500                    STP1    @F$+7,,AUTO
        11 000567   000010 236000 12                 LDQ     8
        11 000570   200104 756100                    STQ     @F$+6,,AUTO
        11 000571   000022 237000 12                 LDAQ    18
        11 000572   200102 757100                    STAQ    @F$+4,,AUTO
        11 000573   200102 630500                    EPPR0   @F$+4,,AUTO
        11 000574   000004 631400 12                 EPPR1   4
        11 000575   000000 701000 xent               TSX1    Z8AN$NEW_ILL
        11 000576   000000 011000                    NOP     0

  13812 11 000577   000034 235007                    LDA     28,DL
        11 000600   000011 755000 xsym               STA     O1COM+9

      535    13815
      536    13816    1     CALL GENERATE_ADD;

PL6.E3A0      #005=Z8EQ$CREATE_ITERATED_DO_WHILE File=Z8EQ.:Z8A6TSI              SAT 08/09/97 12:37 Page:107
  13816 11 000601   000126 701000 11                 TSX1    GENERATE_ADD
        11 000602   000000 011000                    NOP     0

      537    13817
      538    13818    1     CALL Z8EK$BRANCH (START_DO_LABEL$);

  13818 11 000603   200062 630500                    EPPR0   START_DO_LABEL$,,AUTO
        11 000604   200100 450500                    STP0    @F$+2,,AUTO
        11 000605   200100 630500                    EPPR0   @F$+2,,AUTO
        11 000606   000014 631400 12                 EPPR1   12
        11 000607   000000 701000 xent               TSX1    Z8EK$BRANCH
        11 000610   000000 011000                    NOP     0

      539    13819
      540    13820          %NEW_ILL(@ID = %DEFLB,
      541    13821                   @LABEL$ = END_DO_LABEL$);

  14153 11 000611   000007 236000 12                 LDQ     7
        11 000612   200100 756100                    STQ     @F$+2,,AUTO
        11 000613   200100 630500                    EPPR0   @F$+2,,AUTO
        11 000614   200105 450500                    STP0    @F$+7,,AUTO
        11 000615   000010 236000 12                 LDQ     8
        11 000616   200104 756100                    STQ     @F$+6,,AUTO
        11 000617   000012 237000 12                 LDAQ    10
        11 000620   200102 757100                    STAQ    @F$+4,,AUTO
        11 000621   200102 630500                    EPPR0   @F$+4,,AUTO
        11 000622   000004 631400 12                 EPPR1   4
        11 000623   000000 701000 xent               TSX1    Z8AN$NEW_ILL
        11 000624   000000 011000                    NOP     0

  14154 11 000625   200061 236100                    LDQ     END_DO_LABEL$,,AUTO
        11 000626   000000 470400 1                  LDP0    ILL$
        11 000627   000001 756100                    STQ     1,,PR0

      542    14200
      543    14201
      544    14202          %NEW_ILL(@ID = %DOEND);
PL6.E3A0      #005=Z8EQ$CREATE_ITERATED_DO_WHILE File=Z8EQ.:Z8A6TSI              SAT 08/09/97 12:37 Page:108

  14276 11 000630   000007 236000 12                 LDQ     7
        11 000631   200100 756100                    STQ     @F$+2,,AUTO
        11 000632   200100 631500                    EPPR1   @F$+2,,AUTO
        11 000633   200105 451500                    STP1    @F$+7,,AUTO
        11 000634   000010 236000 12                 LDQ     8
        11 000635   200104 756100                    STQ     @F$+6,,AUTO
        11 000636   000026 237000 12                 LDAQ    22
        11 000637   200102 757100                    STAQ    @F$+4,,AUTO
        11 000640   200102 630500                    EPPR0   @F$+4,,AUTO
        11 000641   000004 631400 12                 EPPR1   4
        11 000642   000000 701000 xent               TSX1    Z8AN$NEW_ILL
        11 000643   000000 011000                    NOP     0

      545    14581
      546    14582    1   END Z8EQ$CREATE_ITERATED_DO_WHILE;

  14582 11 000644   000000 702200 xent               TSX2  ! X66_ARET
      547    14583        %EOD;

PL6.E3A0      #005=Z8EQ$CREATE_ITERATED_DO_WHILE File=Z8EQ.:Z8A6TSI              SAT 08/09/97 12:37 Page:109
--  Include file information  --

   Z8E_STATEMNT.:Z8A6TOU  is referenced.
   Z8E_ILS_LIST.:Z8A6TOU  is referenced.
   Z8E_NEW_ILL.:Z8A6TOU  is referenced.
   Z8E_MACROS.:Z8A6TOU  cannot be made into a system file and is referenced.
   Z8E_O1COM.:Z8A6TOU  cannot be made into a system file and is referenced.
   Z8A_LEX_SYMB.:Z8A6TOU  cannot be made into a system file and is referenced.
   Z8E_STACKS.:Z8A6TOU  cannot be made into a system file and is referenced.
   Z8A_ST.:Z8A6TOU  cannot be made into a system file and is referenced.
   Z8A_TYPES.:Z8A6TOU  is referenced.
   Z8A_COMCOM.:Z8A6TOU  cannot be made into a system file and is referenced.
   Z8A_ILS.:Z8A6TOU  cannot be made into a system file and is referenced.
   Z8A_ILL.:Z8A6TOU  cannot be made into a system file and is referenced.
   X8A_COM_MACS.:X8A6TOU  is referenced.
   Z8A_NAMES.:Z8A6TOU  is referenced.
   Z8A_SUPP_MAC.:Z8A6TOU  is referenced.
   Z8A_DEFC.:Z8A6TOU  cannot be made into a system file and is referenced.
      No diagnostics issued in procedure Z8EQ$CREATE_ITERATED_DO_WHILE.
PL6.E3A0      #005=Z8EQ$CREATE_ITERATED_DO_WHILE File=Z8EQ.:Z8A6TSI              SAT 08/09/97 12:37 Page:110

 **** Variables and constants ****

  ****  Section 000 LblCom ITERATION

  ****  Scalars and arrays  ****
OctLoc.c.b A Datatyp(siz) R M Lvl/name                 OctLoc.c.b A Datatyp(siz) R M Lvl/name

     0-0-0/w SBIN              1 ITERATION

  ****  Section 001 LblCom ILL$

  ****  Scalars and arrays  ****
OctLoc.c.b A Datatyp(siz) R M Lvl/name                 OctLoc.c.b A Datatyp(siz) R M Lvl/name

     0-0-0/w PTR         r     1 ILL$

  ****  Section 002 LblCom ILL_

  ****  Scalars and arrays  ****
OctLoc.c.b A Datatyp(siz) R M Lvl/name                 OctLoc.c.b A Datatyp(siz) R M Lvl/name

     0-0-0/w STRC(180)         1 ILL_

  ****  Section 003 LblCom ILS$

  ****  Scalars and arrays  ****
OctLoc.c.b A Datatyp(siz) R M Lvl/name                 OctLoc.c.b A Datatyp(siz) R M Lvl/name

     0-0-0/w PTR         r     1 ILS$

  ****  Section 004 LblCom ILS_

  ****  Scalars and arrays  ****
OctLoc.c.b A Datatyp(siz) R M Lvl/name                 OctLoc.c.b A Datatyp(siz) R M Lvl/name

     0-0-0/w STRC(180)         1 ILS_

PL6.E3A0      #005=Z8EQ$CREATE_ITERATED_DO_WHILE File=Z8EQ.:Z8A6TSI              SAT 08/09/97 12:37 Page:111
  ****  Section 005 LblCom ST$

  ****  Scalars and arrays  ****
OctLoc.c.b A Datatyp(siz) R M Lvl/name                 OctLoc.c.b A Datatyp(siz) R M Lvl/name

     0-0-0/w PTR         r     1 ST$

  ****  Section 006 LblCom ST_

  ****  Scalars and arrays  ****
OctLoc.c.b A Datatyp(siz) R M Lvl/name                 OctLoc.c.b A Datatyp(siz) R M Lvl/name

     0-0-0/w STRC(180)         1 ST_

  ****  Section 007 LblCom LEX_SYMBOL

  ****  Scalars and arrays  ****
OctLoc.c.b A Datatyp(siz) R M Lvl/name                 OctLoc.c.b A Datatyp(siz) R M Lvl/name

     0-0-0/w STRC(3240)  r     1 LEX_SYMBOL                 0-0-0/w STRC(3240)        1 LEX_SYMBOL_WORDS

  ****  Section 008 LblCom CURRENT_LEX_SYMBOL$

  ****  Scalars and arrays  ****
OctLoc.c.b A Datatyp(siz) R M Lvl/name                 OctLoc.c.b A Datatyp(siz) R M Lvl/name

     0-0-0/w PTR         r     1 CURRENT_LEX_SYMBOL$

  ****  Section 009 LblCom TEMP_LEX_SYMBOL

  ****  Scalars and arrays  ****
OctLoc.c.b A Datatyp(siz) R M Lvl/name                 OctLoc.c.b A Datatyp(siz) R M Lvl/name

     0-0-0/w STRC(3240)        1 TEMP_LEX_SYMBOL

  ****  Section 010 LblCom TEMP_LEX_SYMBOL2

PL6.E3A0      #005=Z8EQ$CREATE_ITERATED_DO_WHILE File=Z8EQ.:Z8A6TSI              SAT 08/09/97 12:37 Page:112
  ****  Scalars and arrays  ****
OctLoc.c.b A Datatyp(siz) R M Lvl/name                 OctLoc.c.b A Datatyp(siz) R M Lvl/name

     0-0-0/w STRC(3240)        1 TEMP_LEX_SYMBOL2

  ****  Auto variables  ****

  ****  Scalars and arrays  ****
OctLoc.c.b A Datatyp(siz) R M Lvl/name                 OctLoc.c.b A Datatyp(siz) R M Lvl/name

     5-0-0/w PTR         r     1 @BY$                       6-0-0/w PTR         r     1 @COND$
     7-0-0/w PTR         r     1 @DO_ILS$                  76-0-0/w PTR         r     1 @F$
     4-0-0/w PTR         r     1 @FROM$                    75-0-0/w PTR         r     1 @V$
     3-0-0/w PTR         r     1 @VARYING$                 65-0-0/w PTR         r     1 B$
    *0-0-0/w PTR         r     1 BY$                       66-0-0/w PTR         r     1 C$
    50-0-0/d STRC(288)   r     1 C74_SAVED_AUGMENT_ILS
    40-0-0/d STRC(288)   r     1 C74_SAVED_ILS             *0-0-0/w PTR         r     1 COND$
    20-0-0/d STRC(288)   r     1 DO_BODY                   *0-0-0/w PTR         r     1 DO_ILS$
    61-0-0/w PTR         r     1 END_DO_LABEL$             30-0-0/d STRC(288)   r     1 ETT_ITEM
    64-0-0/w PTR         r     1 F$                        *0-0-0/w PTR         r     1 F$
    *0-0-0/w PTR         r     1 FROM$                     60-0-0/w PTR         r     1 ILS_LIST$
    72-0-0/w PTR         r     1 NEXT_START_LABEL$         10-0-0/d STRC(288)   r     1 OP_NODE
    62-0-0/w PTR         r     1 START_DO_LABEL$           71-0-0/w PTR         r     1 TRUE_COND_LABEL$
    63-0-0/w PTR         r     1 V$                        *0-0-0/w PTR         r     1 V$
    *0-0-0/w PTR         r     1 VARYING$

  ****  SYMREF variables  ****

  ****  Scalars and arrays  ****
OctLoc.c.b A Datatyp(siz) R M Lvl/name                 OctLoc.c.b A Datatyp(siz) R M Lvl/name

     0-0-0/d STRC(13248) r     1 COMCOM
     0-0-0/w STRC(180)         1 HIER_STK(0:50)
     0-0-0/w SBIN              1 HIER_STK_PTR               0-0-0/w UBIN              1 ILL_STEP(0:144)
     0-0-0/w UBIN              1 ILS_STEP_TABLE(0:2)
     0-0-0/d STRC(11580) r     1 O1COM                      0-0-0/w STRC(144)         1 PAGE_FORMAT
     0-0-0/w STRC(153)         1 REP_STK(0:50)              0-0-0/w SBIN              1 REP_STK_PTR
PL6.E3A0      #005=Z8EQ$CREATE_ITERATED_DO_WHILE File=Z8EQ.:Z8A6TSI              SAT 08/09/97 12:37 Page:113

  ****  BASED and DCB variables  ****

  ****  Scalars and arrays  ****
OctLoc.c.b A Datatyp(siz) R M Lvl/name                 OctLoc.c.b A Datatyp(siz) R M Lvl/name

     0-0-0/w STRC(108)         1 ACCEPT_DISPLAY             0-0-0/w STRC(288)         1 ADD_STMT
     0-0-0/w STRC(396)         1 ALPHABET                   0-0-0/w STRC(396)         1 ARRAY
     0-0-0/w ASTR(324)   r     1 BASED_LEX_SYMBOL
     0-0-0/w STRC(360)         1 BASED_LEX_SYMBOL_WORDS
     0-0-0/w STRC(108)         1 BINARY_ILL                 0-0-0/w STRC(288)   r     1 BINARY_OP
     0-0-0/w STRC(396)         1 BLOCK                      0-0-0/w STRC(144)         1 BRANCH_ILL
     0-0-0/w STRC(288)         1 CALL_STMT                  0-0-0/w STRC(216)         1 CCOSU
     0-0-0/w STRC(396)         1 CD                         0-0-0/w CHAR(4096)        1 CHARS
     0-0-0/w STRC(396)         1 CLASS                      0-0-0/w STRC(108)         1 CODED_MOVE
     0-0-0/w STRC(288)         1 COMPUTE_STMT               0-0-0/w STRC(396)         1 CONDITION
     0-0-0/w STRC(396)         1 CONST                      0-0-0/w STRC(72)          1 CONT
     0-0-0/w STRC(396)         1 DB                         0-0-0/w STRC(396)         1 DCB_
     0-0-0/w STRC(288)         1 DEFERED_IDENTIFIER         0-0-0/w STRC(252)         1 DEFERED_ID_TREE
     0-0-0/w STRC(288)         1 DEFERED_QUAL_ID            0-0-0/w STRC(288)         1 DEFERED_SUM_CLAUSE
     0-0-0/w STRC(288)         1 DEFERED_SUM_CLAUSE_LIST
     0-0-0/w STRC(144)   r     1 DEFLB                      0-0-0/w STRC(288)         1 DELETE_STMT
     0-0-0/w STRC(288)         1 DIVIDE_STMT                0-0-0/w STRC(396)         1 DML_ITEM
     0-0-0/w STRC(144)         1 DOEND                      0-0-0/w STRC(396)         1 DO_N
     0-0-0/w STRC(180)         1 DV4I                       0-0-0/w STRC(180)         1 ENTRY_ILL
     0-0-0/w STRC(108)         1 EVALU                      0-0-0/w STRC(396)         1 FD
     0-0-0/w STRC(144)         1 GO                         0-0-0/w STRC(180)         1 ILL
     0-0-0/w STRC              1 ILL_NO_OPS                 0-0-0/w STRC(180)   r     1 ILS
     0-0-0/w STRC(288)   r     1 ILS_LIST                   0-0-0/w STRC(288)         1 INSPECT_1_STMT
     0-0-0/w STRC(288)         1 INSPECT_2_STMT             0-0-0/w STRC(288)         1 INSPECT_4_STMT
     0-0-0/w STRC(396)         1 INTDEF                     0-0-0/w STRC(396)         1 LABEL
     0-0-0/w STRC(288)         1 LA_ITEM                    0-0-0/w STRC(108)         1 LINOI
     0-0-0/w STRC(504)         1 LX_CD_INPUT                0-0-0/w STRC(324)         1 LX_CD_I_O
     0-0-0/w STRC(396)         1 LX_CD_OUTPUT               0-0-0/w STRC(288)   r     1 LX_ETT_ITEM
     0-0-0/w STRC(288)   r     1 LX_ITEM                    0-0-0/w STRC(288)         1 LX_LARGE
     0-0-0/w STRC(288)         1 LX_LIST                    0-0-0/w STRC(1224)        1 LX_REC_DECL
     0-0-0/w STRC(864)         1 LX_REPORT_REC              0-0-0/w STRC(288)   r     1 LX_TERMINAL
PL6.E3A0      #005=Z8EQ$CREATE_ITERATED_DO_WHILE File=Z8EQ.:Z8A6TSI              SAT 08/09/97 12:37 Page:114
     0-0-0/w STRC(72)          1 MFILL                      0-0-0/w STRC(396)         1 MNEMONIC
     0-0-0/w STRC(288)         1 MULTIPLY_STMT              0-0-0/w STRC(180)         1 MULTI_GO
     0-0-0/w STRC(180)         1 MVEAL                      0-0-0/w STRC(108)         1 MVFIL
     0-0-0/w STRC(72)          1 MVIIS                      0-0-0/w STRC(144)         1 OPN
     0-0-0/w STRC(180)         1 OS_CALL                    0-0-0/w STRC(36864)       1 PAGE
     0-0-0/w STRC(396)         1 PARA                       0-0-0/w STRC(216)         1 PFORM
     0-0-0/w STRC(144)         1 PINC                       0-0-0/w STRC(144)         1 PREOFF
     0-0-0/w STRC(108)         1 PRESET                     0-0-0/w STRC(396)         1 PROC_
     0-0-0/w STRC(396)         1 PROC_DEF                   0-0-0/w STRC(144)         1 P_A_PRESET
     0-0-0/w STRC(144)         1 P_P_PRESET                 0-0-0/w STRC(396)         1 RD
     0-0-0/w STRC(288)         1 READ_STMT                  0-0-0/w STRC(144)         1 REMEM
     0-0-0/w STRC(288)         1 REWRITE_STMT               0-0-0/w STRC(396)         1 SCALAR
     0-0-0/w STRC(144)         1 SCOPE                      0-0-0/w STRC(396)         1 SD
     0-0-0/w STRC(216)         1 SEARCH_                    0-0-0/w STRC(396)         1 SECTION
     0-0-0/w STRC(396)         1 SEGMENT                    0-0-0/w STRC(396)         1 ST
     0-0-0/w STRC(288)         1 START_STMT                 0-0-0/w STRC(72)          1 STP2
     0-0-0/w STRC(252)         1 STRING_STMT                0-0-0/w STRC(288)         1 SUBTRACT_STMT
     0-0-0/w STRC(396)         1 SWITCH                     0-0-0/w STRC(396)         1 SYMBOLIC_CHAR
     0-0-0/w STRC(396)         1 SYMDEF_                    0-0-0/w STRC(396)         1 SYMREF_
     0-0-0/w STRC(396)         1 TEMP                       0-0-0/w STRC(144)         1 TRINARY_ILL
     0-0-0/w STRC(72)          1 UNARY_ILL                  0-0-0/w STRC(288)         1 UNARY_OP
     0-0-0/w STRC(288)         1 UNSTRING_STMT              0-0-0/w STRC(216)         1 USER_CALL
     0-0-0/w STRC(108)         1 VAL                        0-0-0/w STRC(108)         1 VAL_END
     0-0-0/w STRC(396)         1 VARIABLE                   0-0-0/w STRC(72)          1 WHEN
     0-0-0/w STRC(288)         1 WRITE_STMT


   Procedure Z8EQ$CREATE_ITERATED_DO_WHILE requires 421 words for executable code.
   Procedure Z8EQ$CREATE_ITERATED_DO_WHILE requires 70 words of local(AUTO) storage.

PL6.E3A0      #006=Z8EQ$CREATE_ITERATED_DO_UNTIL File=Z8EQ.:Z8A6TSI              SAT 08/09/97 12:40 Page:115
      548        1        /*T***********************************************************/
      549        2        /*T*                                                         */
      550        3        /*T* Copyright (c) Bull HN Information Systems Inc., 1997    */
      551        4        /*T*                                                         */
      552        5        /*T***********************************************************/
      553        6        Z8EQ$CREATE_ITERATED_DO_UNTIL : PROC ( VARYING$,
      554        7                                               FROM$,
      555        8                                               BY$,
      556        9                                               COND$,
      557       10                                               DO_ILS$);
      558       11
      559       12    1     DCL VARYING$ PTR;  /* To LX_ETT_ITEM */
      560       13    1     DCL FROM$ PTR;     /* To LX_ETT_ITEM */
      561       14    1     DCL BY$ PTR;       /* To LX_ETT_ITEM */
      562       15    1     DCL COND$ PTR;     /* Toabstract syntax tree */
      563       16    1     DCL DO_ILS$ PTR;   /* to ILS_LIST */
      564       17
      565       18        %EQU PHASE = 1;
      566       19        %INCLUDE Z8A_DEFC;
      567       87        %INCLUDE Z8A_SUPP_MAC;
      568     2487        %INCLUDE Z8A_ILL;
      569     3180        %INCLUDE Z8A_ILS;
      570     3289        %INCLUDE Z8A_TYPES;
      571     3463        %INCLUDE Z8A_ST;
      572     7122        %INCLUDE Z8E_STACKS;
      573     9388        %INCLUDE Z8E_O1COM;
      574    10149        %INCLUDE Z8E_MACROS;
      575    10824        %INCLUDE Z8E_ILS_LIST;
      576    10908
      577    10909        %DCL_AUTO_LX_ITEM (@NAME = OP_NODE);
      578    10913        %DCL_AUTO_LX_ITEM (@NAME = DO_BODY);
      579    10917        %DCL_AUTO_LX_ITEM (@NAME = ETT_ITEM);
      580    10921
      581    10922    1   DCL ILS_LIST$ PTR;
      582    10923    1   DCL START_DO_LABEL$ PTR;
      583    10924    1   DCL END_DO_LABEL$ PTR;
      584    10925
PL6.E3A0      #006=Z8EQ$CREATE_ITERATED_DO_UNTIL File=Z8EQ.:Z8A6TSI              SAT 08/09/97 12:40 Page:116
      585    10926    1   DCL Z8EK$BRANCH_TRUE ENTRY(2);
      586    10927    1   DCL Z8AT$CREATE_TEMPORARY ENTRY(2);
      587    10928    1   DCL Z8E7$MOVE ENTRY(2);
      588    10929    1   DCL Z8E5$MATH_PACK ENTRY(2);
      589    10930    1   DCL Z8EK$BRANCH ENTRY(1);
      590    10931    1   DCL Z8EX$SET_INDEX ENTRY(2);
      591    10932    1   DCL Z8EX$SET_UP_BY ENTRY(2);
      592    10933
      593    10934    1   CLEAR_O1COM : PROC;
      594    10935
      595    10936    2     ILS_LIST$ = ADDR(DO_BODY);
      596    10937    2     DO_BODY = O1COM.ILS_LIST;
      597    10938          %INIT_ILS_LIST (@POINTER = "ADDR(O1COM.ILS_LIST)");
      598    10946
      599    10947
      600    10948    2   END CLEAR_O1COM;
      601    10949
      602    10950
      603    10951
      604    10952    1   GEN_MOVE : PROC (V$, F$);
      605    10953
      606    10954    2     DCL V$ PTR;
      607    10955    2     DCL F$ PTR;
      608    10956
      609    10957    2   IF V$ -> LX_ETT_ITEM.TYPE = %TYX
      610    10958    2        OR V$ -> LX_ETT_ITEM.TYPE = %TYY
      611    10959    2        OR (F$ -> LX_ITEM.ID = %LX_ETT_ITEM
      612    10960    2             AND (F$ -> LX_ETT_ITEM.TYPE = %TYX
      613    10961    2                   OR F$ -> LX_ETT_ITEM.TYPE = %TYY)) THEN
      614    10962    2     CALL Z8EX$SET_INDEX (V$, F$);
      615    10963    2   ELSE
      616    10964    2     CALL Z8E7$MOVE (V$, F$);
      617    10965
      618    10966    2   END GEN_MOVE;
      619    10967
      620    10968
      621    10969    1   DO_MERGE : PROC;
PL6.E3A0      #006=Z8EQ$CREATE_ITERATED_DO_UNTIL File=Z8EQ.:Z8A6TSI              SAT 08/09/97 12:40 Page:117
      622    10970
      623    10971          %NEW_ILL (@ID = %DO4);
      624    11350
      625    11351    2     ILL$ -> DO_N.B.TEST_AFTER = TRUE;
      626    11352
      627    11353    2     CALL GEN_MOVE (VARYING$, FROM$);
      628    11354
      629    11355    2     CALL Z8AT$CREATE_TEMPORARY (%PARA,
      630    11356    2                                 START_DO_LABEL$);
      631    11357
      632    11358    2     CALL Z8AT$CREATE_TEMPORARY (%PARA,
      633    11359    2                                 END_DO_LABEL$);
      634    11360
      635    11361          %NEW_ILL(@ID = %DEFLB,
      636    11362                   @LABEL$ = START_DO_LABEL$);
      637    11741
      638    11742          %APPEND_ILS_LIST (@FROM$ = ILS_LIST$,
      639    11743                            @TO$ = "ADDR(O1COM.ILS_LIST)");
      640    11760
      641    11761    2     CALL Z8EK$BRANCH_TRUE (END_DO_LABEL$,
      642    11762    2                            COND$);
      643    11763
      644    11764    2     IF VARYING$ -> LX_ETT_ITEM.TYPE = %TYX
      645    11765    2          OR VARYING$ -> LX_ETT_ITEM.TYPE = %TYY THEN
      646    11766    2       CALL Z8EX$SET_UP_BY (VARYING$, BY$);
      647    11767    2     ELSE
      648    11768    3       DO;
      649    11769              %INIT_BINARY_OP (@POINTER = "ADDR(OP_NODE)",
      650    11770                               @BERR = "VARYING$ -> LX_ETT_ITEM.B.ERROR",
      651    11771                               @LINE = "VARYING$ -> LX_ETT_ITEM.LINE",
      652    11772                               @COLUMN = "VARYING$ -> LX_ETT_ITEM.COLUMN",
      653    11773                               @LOP$ = VARYING$,
      654    11774                               @ROP$ = BY$,
      655    11775                               @OP = %OP_PLUS);
      656    11793
      657    11794    3         CALL Z8E5$MATH_PACK (ADDR(OP_NODE),
      658    11795    3                              ADDR(ETT_ITEM));
PL6.E3A0      #006=Z8EQ$CREATE_ITERATED_DO_UNTIL File=Z8EQ.:Z8A6TSI              SAT 08/09/97 12:40 Page:118
      659    11796
      660    11797    3         CALL Z8E7$MOVE (VARYING$,
      661    11798    3                         ADDR(ETT_ITEM));
      662    11799    3       END;
      663    11800
      664    11801    2     CALL Z8EK$BRANCH (START_DO_LABEL$);
      665    11802
      666    11803          %NEW_ILL (@ID = %DEFLB,
      667    11804                    @LABEL$ = END_DO_LABEL$);
      668    12183
      669    12184          %NEW_ILL(@ID = %DOEND);
      670    12563
      671    12564
      672    12565    2   END DO_MERGE;
      673    12566
      674    12567
      675    12568    1     IF VARYING$ -> LX_ETT_ITEM.LINK ~= ADDR(NIL)
      676    12569    1           AND FROM$ -> LX_ITEM.LINK ~= ADDR(NIL)
      677    12570    1           AND BY$   -> LX_ITEM.LINK ~= ADDR(NIL)
      678    12571    1           AND COND$ -> LX_ITEM.LINK ~= ADDR(NIL) THEN
      679    12572    2       DO;
      680    12573    2         CALL Z8EQ$CREATE_ITERATED_DO_UNTIL ( VARYING$ -> LX_ETT_ITEM.LINK,
      681    12574    2                                              FROM$    -> LX_ITEM.LINK,
      682    12575    2                                              BY$      -> LX_ITEM.LINK,
      683    12576    2                                              COND$    -> LX_ITEM.LINK,
      684    12577    2                                              DO_ILS$);
      685    12578    2         CALL CLEAR_O1COM;
      686    12579    2         CALL DO_MERGE;
      687    12580    2       END;
      688    12581    1     ELSE
      689    12582    2       DO;
      690    12583    2         ILS_LIST$ = DO_ILS$;
      691    12584    2         CALL DO_MERGE;
      692    12585    2       END;
      693    12586
      694    12587    1     RETURN;
      695    12588
PL6.E3A0      #006=Z8EQ$CREATE_ITERATED_DO_UNTIL File=Z8EQ.:Z8A6TSI              SAT 08/09/97 12:40 Page:119
      696    12589
      697    12590    1   Z8EQ$MERGE_ITERATED_DO_UNTIL : ENTRY (VARYING$,
      698    12591    1                                        FROM$,
      699    12592    1                                        BY$,
      700    12593    1                                        COND$);
      701    12594
      702    12595
      703    12596    1     IF VARYING$ -> LX_ETT_ITEM.LINK ~= ADDR(NIL)
      704    12597    1           AND FROM$ -> LX_ITEM.LINK ~= ADDR(NIL)
      705    12598    1           AND BY$   -> LX_ITEM.LINK ~= ADDR(NIL)
      706    12599    1           AND COND$ -> LX_ITEM.LINK ~= ADDR(NIL) THEN
      707    12600    1       CALL Z8EQ$MERGE_ITERATED_DO_UNTIL (VARYING$ -> LX_ETT_ITEM.LINK,
      708    12601    1                                          FROM$    -> LX_ITEM.LINK,
      709    12602    1                                          BY$      -> LX_ITEM.LINK,
      710    12603    1                                          COND$    -> LX_ITEM.LINK);
      711    12604
      712    12605    1     CALL CLEAR_O1COM;
      713    12606    1     CALL DO_MERGE;
      714    12607
      715    12608    1     RETURN;
      716    12609    1   END Z8EQ$CREATE_ITERATED_DO_UNTIL;
      717    12610        %EOD;

PL6.E3A0      #006=Z8EQ$CREATE_ITERATED_DO_UNTIL File=Z8EQ.:Z8A6TSI              SAT 08/09/97 12:40 Page:120
--  Include file information  --

   Z8E_ILS_LIST.:Z8A6TOU  is referenced.
   Z8E_NEW_ILL.:Z8A6TOU  is referenced.
   Z8E_MACROS.:Z8A6TOU  cannot be made into a system file and is referenced.
   Z8E_O1COM.:Z8A6TOU  cannot be made into a system file and is referenced.
   Z8A_LEX_SYMB.:Z8A6TOU  cannot be made into a system file and is referenced.
   Z8E_STACKS.:Z8A6TOU  cannot be made into a system file and is referenced.
   Z8A_ST.:Z8A6TOU  cannot be made into a system file and is referenced.
   Z8A_TYPES.:Z8A6TOU  is referenced.
   Z8A_ILS.:Z8A6TOU  cannot be made into a system file and is referenced.
   Z8A_ILL.:Z8A6TOU  cannot be made into a system file and is referenced.
   X8A_COM_MACS.:X8A6TOU  is referenced.
   Z8A_NAMES.:Z8A6TOU  is referenced.
   Z8A_SUPP_MAC.:Z8A6TOU  is referenced.
   Z8A_DEFC.:Z8A6TOU  cannot be made into a system file and is referenced.
      No diagnostics issued in procedure Z8EQ$CREATE_ITERATED_DO_UNTIL.

   Procedure Z8EQ$CREATE_ITERATED_DO_UNTIL requires 307 words for executable code.
   Procedure Z8EQ$CREATE_ITERATED_DO_UNTIL requires 48 words of local(AUTO) storage.

PL6.E3A0      #006=Z8EQ$CREATE_ITERATED_DO_UNTIL File=Z8EQ.:Z8A6TSI              SAT 08/09/97 12:40 Page:121

 Object Unit name= Z8EQ$CREATE_ITERATED_DO_UNTIL              File name= Z8EQ.:Z8A6TOU
 UTS= AUG 09 '97 12:40:24.32 SAT                              Compiler= PL-6/E31         Sev=      00
 SharedLib= :SHARED_SYSTEM                                    Alt SharedLib=


    ****  Control sections  ****

 Sect   Type Bound  Init  Size OctSiz  Section name(segment info)
    0  LblCom even  none     1      1  ITERATION
    1  LblCom even  none     1      1  ILL$
    2  LblCom even  none     5      5  ILL_
    3  LblCom even  none     1      1  ILS$
    4  LblCom even  none     5      5  ILS_
    5  LblCom even  none     1      1  ST$
    6  LblCom even  none     5      5  ST_
    7  LblCom even  none    90    132  LEX_SYMBOL
    8  LblCom even  none     1      1  CURRENT_LEX_SYMBOL$
    9  LblCom even  none    90    132  TEMP_LEX_SYMBOL
   10  LblCom even  none    90    132  TEMP_LEX_SYMBOL2
   11   Proc  even  none   307    463  Z8EQ$CREATE_ITERATED_DO_UNTIL
   12  RoData even  none    21     25  Z8EQ$CREATE_ITERATED_DO_UNTIL

    ****  Entry defs  ****

                              Check   Calling
                             calling  sequence
  Sect OctLoc Primary Altret sequence   type   Parms  Name
    11      0   yes            yes      Std        5  Z8EQ$CREATE_ITERATED_DO_UNTIL
    11    411                  yes      Std        4  Z8EQ$MERGE_ITERATED_DO_UNTIL
PL6.E3A0      #006=Z8EQ$CREATE_ITERATED_DO_UNTIL File=Z8EQ.:Z8A6TSI              SAT 08/09/97 12:40 Page:122

  ****  Entry refs  ****

         Check        Calling
        calling       sequence
Altret sequence SRef   type   Args  Name
         yes           Std       2 Z8EX$SET_INDEX
         yes           Std       2 Z8E7$MOVE
         yes           Std       4 Z8AN$NEW_ILL
         yes           Std       2 Z8AT$CREATE_TEMPORARY
         yes           Std       2 Z8EK$BRANCH_TRUE
         yes           Std       2 Z8EX$SET_UP_BY
         yes           Std       1 Z8EK$BRANCH
         yes           Std       2 Z8E5$MATH_PACK
                       nStd      0 X66_AUTO_5
                       nStd      0 X66_ARET

  ****  Data refs  ****

  Flags:  r = read only, s = secondary
Flgs Name                             Flgs Name                             Flgs Name
r    ILL_STEP                         r    ILS_STEP_TABLE                        O1COM
     HIER_STK_PTR                          HIER_STK                              PAGE_FORMAT
     REP_STK_PTR                           REP_STK

  ****  Segment refs  ****

  Flags:  r = read only, s = secondary
Flgs Name                             Flgs Name                             Flgs Name
     NULLSID                               ISSID
PL6.E3A0      #006=Z8EQ$CREATE_ITERATED_DO_UNTIL File=Z8EQ.:Z8A6TSI              SAT 08/09/97 12:40 Page:123


      548        1        /*T***********************************************************/
      549        2        /*T*                                                         */
      550        3        /*T* Copyright (c) Bull HN Information Systems Inc., 1997    */
      551        4        /*T*                                                         */
      552        5        /*T***********************************************************/
      553        6        Z8EQ$CREATE_ITERATED_DO_UNTIL : PROC ( VARYING$,

      6 11 000000   000000 700200 xent  Z8EQ$CREATE* TSX0  ! X66_AUTO_5
        11 000001   000060 000005                    ZERO    48,5
        11 000002   000331 710000 11                 TRA     s:12568

      554        7                                               FROM$,
      555        8                                               BY$,
      556        9                                               COND$,
      557       10                                               DO_ILS$);
      558       11
      559       12    1     DCL VARYING$ PTR;  /* To LX_ETT_ITEM */
      560       13    1     DCL FROM$ PTR;     /* To LX_ETT_ITEM */
      561       14    1     DCL BY$ PTR;       /* To LX_ETT_ITEM */
      562       15    1     DCL COND$ PTR;     /* Toabstract syntax tree */
      563       16    1     DCL DO_ILS$ PTR;   /* to ILS_LIST */
      564       17
      565       18        %EQU PHASE = 1;
      566       19        %INCLUDE Z8A_DEFC;
      567       87        %INCLUDE Z8A_SUPP_MAC;
      568     2487        %INCLUDE Z8A_ILL;
      569     3180        %INCLUDE Z8A_ILS;
      570     3289        %INCLUDE Z8A_TYPES;
      571     3463        %INCLUDE Z8A_ST;
      572     7122        %INCLUDE Z8E_STACKS;
      573     9388        %INCLUDE Z8E_O1COM;
      574    10149        %INCLUDE Z8E_MACROS;
      575    10824        %INCLUDE Z8E_ILS_LIST;
      576    10908
      577    10909        %DCL_AUTO_LX_ITEM (@NAME = OP_NODE);
      578    10913        %DCL_AUTO_LX_ITEM (@NAME = DO_BODY);
PL6.E3A0      #006=Z8EQ$CREATE_ITERATED_DO_UNTIL File=Z8EQ.:Z8A6TSI              SAT 08/09/97 12:40 Page:124
      579    10917        %DCL_AUTO_LX_ITEM (@NAME = ETT_ITEM);
      580    10921
      581    10922    1   DCL ILS_LIST$ PTR;
      582    10923    1   DCL START_DO_LABEL$ PTR;
      583    10924    1   DCL END_DO_LABEL$ PTR;
      584    10925
      585    10926    1   DCL Z8EK$BRANCH_TRUE ENTRY(2);
      586    10927    1   DCL Z8AT$CREATE_TEMPORARY ENTRY(2);
      587    10928    1   DCL Z8E7$MOVE ENTRY(2);
      588    10929    1   DCL Z8E5$MATH_PACK ENTRY(2);
      589    10930    1   DCL Z8EK$BRANCH ENTRY(1);
      590    10931    1   DCL Z8EX$SET_INDEX ENTRY(2);
      591    10932    1   DCL Z8EX$SET_UP_BY ENTRY(2);
      592    10933
      593    10934    1   CLEAR_O1COM : PROC;

  10934 11 000003   200044 741300       CLEAR_O1COM  STX1  ! END_DO_LABEL$+2,,AUTO

      594    10935
      595    10936    2     ILS_LIST$ = ADDR(DO_BODY);

  10936 11 000004   200020 630500                    EPPR0   DO_BODY,,AUTO
        11 000005   200040 450500                    STP0    ILS_LIST$,,AUTO

      596    10937    2     DO_BODY = O1COM.ILS_LIST;

  10937 11 000006   000100 100400                    MLR     fill='000'O
        11 000007   000016 000040 xsym               ADSC9   O1COM+14                 cn=0,n=32
        11 000010   200020 000040                    ADSC9   DO_BODY,,AUTO            cn=0,n=32

      597    10938          %INIT_ILS_LIST (@POINTER = "ADDR(O1COM.ILS_LIST)");

  10940 11 000011   000007 220003                    LDX0    7,DU
        11 000012   000016 740000 xsym               STX0    O1COM+14

  10941 11 000013   000000 236000 12                 LDQ     0
        11 000014   000017 756000 xsym               STQ     O1COM+15
PL6.E3A0      #006=Z8EQ$CREATE_ITERATED_DO_UNTIL File=Z8EQ.:Z8A6TSI              SAT 08/09/97 12:40 Page:125

  10942 11 000015   000020 756000 xsym               STQ     O1COM+16

  10943 11 000016   000025 756000 xsym               STQ     O1COM+21

      598    10946
      599    10947
      600    10948    2   END CLEAR_O1COM;

  10948 11 000017   000001 702211                    TSX2  ! 1,X1

      601    10949
      602    10950
      603    10951
      604    10952    1   GEN_MOVE : PROC (V$, F$);

  10952 11 000020   200046 741300       GEN_MOVE     STX1  ! END_DO_LABEL$+4,,AUTO

      605    10953
      606    10954    2     DCL V$ PTR;
      607    10955    2     DCL F$ PTR;
      608    10956
      609    10957    2   IF V$ -> LX_ETT_ITEM.TYPE = %TYX

  10957 11 000021   200047 470500                    LDP0    @V$,,AUTO
        11 000022   000000 471500                    LDP1    0,,PR0
        11 000023   100004 235100                    LDA     4,,PR1
        11 000024   000011 115007                    CMPA    9,DL
        11 000025   000042 600000 11                 TZE     s:10962
        11 000026   000012 115007                    CMPA    10,DL
        11 000027   000042 600000 11                 TZE     s:10962
        11 000030   200050 473500                    LDP3    @F$,,AUTO
        11 000031   300000 474500                    LDP4    0,,PR3
        11 000032   400000 220100                    LDX0    0,,PR4
        11 000033   000004 100003                    CMPX0   4,DU
        11 000034   000047 601000 11                 TNZ     s:10964
        11 000035   400004 235100                    LDA     4,,PR4
PL6.E3A0      #006=Z8EQ$CREATE_ITERATED_DO_UNTIL File=Z8EQ.:Z8A6TSI              SAT 08/09/97 12:40 Page:126
        11 000036   000011 115007                    CMPA    9,DL
        11 000037   000042 600000 11                 TZE     s:10962
        11 000040   000012 115007                    CMPA    10,DL
        11 000041   000047 601000 11                 TNZ     s:10964

      610    10958    2        OR V$ -> LX_ETT_ITEM.TYPE = %TYY
      611    10959    2        OR (F$ -> LX_ITEM.ID = %LX_ETT_ITEM
      612    10960    2             AND (F$ -> LX_ETT_ITEM.TYPE = %TYX
      613    10961    2                   OR F$ -> LX_ETT_ITEM.TYPE = %TYY)) THEN
      614    10962    2     CALL Z8EX$SET_INDEX (V$, F$);

  10962 11 000042   200047 630500                    EPPR0   @V$,,AUTO
        11 000043   000001 631400 12                 EPPR1   1
        11 000044   000000 701000 xent               TSX1    Z8EX$SET_INDEX
        11 000045   000000 011000                    NOP     0
        11 000046   000053 710000 11                 TRA     s:10966

      615    10963    2   ELSE
      616    10964    2     CALL Z8E7$MOVE (V$, F$);

  10964 11 000047   200047 630500                    EPPR0   @V$,,AUTO
        11 000050   000001 631400 12                 EPPR1   1
        11 000051   000000 701000 xent               TSX1    Z8E7$MOVE
        11 000052   000000 011000                    NOP     0

      617    10965
      618    10966    2   END GEN_MOVE;

  10966 11 000053   200046 221300                    LDX1  ! END_DO_LABEL$+4,,AUTO
        11 000054   000001 702211                    TSX2  ! 1,X1

      619    10967
      620    10968
      621    10969    1   DO_MERGE : PROC;

  10969 11 000055   200044 741300       DO_MERGE     STX1  ! END_DO_LABEL$+2,,AUTO

PL6.E3A0      #006=Z8EQ$CREATE_ITERATED_DO_UNTIL File=Z8EQ.:Z8A6TSI              SAT 08/09/97 12:40 Page:127
      622    10970
      623    10971          %NEW_ILL (@ID = %DO4);

  11054 11 000056   000005 236000 12                 LDQ     5
        11 000057   200052 756100                    STQ     @F$+2,,AUTO
        11 000060   200052 630500                    EPPR0   @F$+2,,AUTO
        11 000061   200057 450500                    STP0    @F$+7,,AUTO
        11 000062   000006 236000 12                 LDQ     6
        11 000063   200056 756100                    STQ     @F$+6,,AUTO
        11 000064   000010 237000 12                 LDAQ    8
        11 000065   200054 757100                    STAQ    @F$+4,,AUTO
        11 000066   200054 630500                    EPPR0   @F$+4,,AUTO
        11 000067   000002 631400 12                 EPPR1   2
        11 000070   000000 701000 xent               TSX1    Z8AN$NEW_ILL
        11 000071   000000 011000                    NOP     0

      624    11350
      625    11351    2     ILL$ -> DO_N.B.TEST_AFTER = TRUE;

  11351 11 000072   000000 470400 1                  LDP0    ILL$
        11 000073   400000 236007                    LDQ     -131072,DL
        11 000074   000000 256100                    ORSQ    0,,PR0

      626    11352
      627    11353    2     CALL GEN_MOVE (VARYING$, FROM$);

  11353 11 000075   200004 236100                    LDQ     @FROM$,,AUTO
        11 000076   200050 756100                    STQ     @F$,,AUTO
        11 000077   200003 236100                    LDQ     @VARYING$,,AUTO
        11 000100   200047 756100                    STQ     @V$,,AUTO
        11 000101   000020 701000 11                 TSX1    GEN_MOVE
        11 000102   000000 011000                    NOP     0

      628    11354
      629    11355    2     CALL Z8AT$CREATE_TEMPORARY (%PARA,

  11355 11 000103   200041 630500                    EPPR0   START_DO_LABEL$,,AUTO
PL6.E3A0      #006=Z8EQ$CREATE_ITERATED_DO_UNTIL File=Z8EQ.:Z8A6TSI              SAT 08/09/97 12:40 Page:128
        11 000104   200053 450500                    STP0    @F$+3,,AUTO
        11 000105   000013 236000 12                 LDQ     11
        11 000106   200052 756100                    STQ     @F$+2,,AUTO
        11 000107   200052 630500                    EPPR0   @F$+2,,AUTO
        11 000110   000001 631400 12                 EPPR1   1
        11 000111   000000 701000 xent               TSX1    Z8AT$CREATE_TEMPORARY
        11 000112   000000 011000                    NOP     0

      630    11356    2                                 START_DO_LABEL$);
      631    11357
      632    11358    2     CALL Z8AT$CREATE_TEMPORARY (%PARA,

  11358 11 000113   200042 630500                    EPPR0   END_DO_LABEL$,,AUTO
        11 000114   200053 450500                    STP0    @F$+3,,AUTO
        11 000115   000013 236000 12                 LDQ     11
        11 000116   200052 756100                    STQ     @F$+2,,AUTO
        11 000117   200052 630500                    EPPR0   @F$+2,,AUTO
        11 000120   000001 631400 12                 EPPR1   1
        11 000121   000000 701000 xent               TSX1    Z8AT$CREATE_TEMPORARY
        11 000122   000000 011000                    NOP     0

      633    11359    2                                 END_DO_LABEL$);
      634    11360
      635    11361          %NEW_ILL(@ID = %DEFLB,
      636    11362                   @LABEL$ = START_DO_LABEL$);

  11694 11 000123   000005 236000 12                 LDQ     5
        11 000124   200052 756100                    STQ     @F$+2,,AUTO
        11 000125   200052 630500                    EPPR0   @F$+2,,AUTO
        11 000126   200057 450500                    STP0    @F$+7,,AUTO
        11 000127   000006 236000 12                 LDQ     6
        11 000130   200056 756100                    STQ     @F$+6,,AUTO
        11 000131   000016 237000 12                 LDAQ    14
        11 000132   200054 757100                    STAQ    @F$+4,,AUTO
        11 000133   200054 630500                    EPPR0   @F$+4,,AUTO
        11 000134   000002 631400 12                 EPPR1   2
        11 000135   000000 701000 xent               TSX1    Z8AN$NEW_ILL
PL6.E3A0      #006=Z8EQ$CREATE_ITERATED_DO_UNTIL File=Z8EQ.:Z8A6TSI              SAT 08/09/97 12:40 Page:129
        11 000136   000000 011000                    NOP     0

  11695 11 000137   200041 236100                    LDQ     START_DO_LABEL$,,AUTO
        11 000140   000000 470400 1                  LDP0    ILL$
        11 000141   000001 756100                    STQ     1,,PR0

      637    11741
      638    11742          %APPEND_ILS_LIST (@FROM$ = ILS_LIST$,
      639    11743                            @TO$ = "ADDR(O1COM.ILS_LIST)");

  11749 11 000142   200040 471500                    LDP1    ILS_LIST$,,AUTO
        11 000143   100001 236100                    LDQ     1,,PR1
        11 000144   000000 116000 12                 CMPQ    0
        11 000145   000161 600000 11                 TZE     s:11761

  11750 11 000146   000017 236000 xsym               LDQ     O1COM+15
        11 000147   000000 116000 12                 CMPQ    0
        11 000150   000154 601000 11                 TNZ     s:11754

  11751 11 000151   100001 236100                    LDQ     1,,PR1
        11 000152   000017 756000 xsym               STQ     O1COM+15

  11752 11 000153   000157 710000 11                 TRA     s:11756

  11754 11 000154   100001 236100                    LDQ     1,,PR1
        11 000155   000020 473400 xsym               LDP3    O1COM+16
        11 000156   300002 756100                    STQ     2,,PR3

  11756 11 000157   100002 236100                    LDQ     2,,PR1
        11 000160   000020 756000 xsym               STQ     O1COM+16

      640    11760
      641    11761    2     CALL Z8EK$BRANCH_TRUE (END_DO_LABEL$,

  11761 11 000161   200006 236100                    LDQ     @COND$,,AUTO
        11 000162   200053 756100                    STQ     @F$+3,,AUTO
        11 000163   200042 633500                    EPPR3   END_DO_LABEL$,,AUTO
PL6.E3A0      #006=Z8EQ$CREATE_ITERATED_DO_UNTIL File=Z8EQ.:Z8A6TSI              SAT 08/09/97 12:40 Page:130
        11 000164   200052 453500                    STP3    @F$+2,,AUTO
        11 000165   200052 630500                    EPPR0   @F$+2,,AUTO
        11 000166   000001 631400 12                 EPPR1   1
        11 000167   000000 701000 xent               TSX1    Z8EK$BRANCH_TRUE
        11 000170   000000 011000                    NOP     0

      642    11762    2                            COND$);
      643    11763
      644    11764    2     IF VARYING$ -> LX_ETT_ITEM.TYPE = %TYX

  11764 11 000171   200003 470500                    LDP0    @VARYING$,,AUTO
        11 000172   000000 471500                    LDP1    0,,PR0
        11 000173   100004 235100                    LDA     4,,PR1
        11 000174   000011 115007                    CMPA    9,DL
        11 000175   000200 600000 11                 TZE     s:11766
        11 000176   000012 115007                    CMPA    10,DL
        11 000177   000210 601000 11                 TNZ     s:11777

      645    11765    2          OR VARYING$ -> LX_ETT_ITEM.TYPE = %TYY THEN
      646    11766    2       CALL Z8EX$SET_UP_BY (VARYING$, BY$);

  11766 11 000200   200005 236100                    LDQ     @BY$,,AUTO
        11 000201   200003 235100                    LDA     @VARYING$,,AUTO
        11 000202   200052 757100                    STAQ    @F$+2,,AUTO
        11 000203   200052 630500                    EPPR0   @F$+2,,AUTO
        11 000204   000001 631400 12                 EPPR1   1
        11 000205   000000 701000 xent               TSX1    Z8EX$SET_UP_BY
        11 000206   000000 011000                    NOP     0
        11 000207   000266 710000 11                 TRA     s:11801

      647    11767    2     ELSE
      648    11768    3       DO;

      649    11769              %INIT_BINARY_OP (@POINTER = "ADDR(OP_NODE)",
      650    11770                               @BERR = "VARYING$ -> LX_ETT_ITEM.B.ERROR",
      651    11771                               @LINE = "VARYING$ -> LX_ETT_ITEM.LINE",
      652    11772                               @COLUMN = "VARYING$ -> LX_ETT_ITEM.COLUMN",
PL6.E3A0      #006=Z8EQ$CREATE_ITERATED_DO_UNTIL File=Z8EQ.:Z8A6TSI              SAT 08/09/97 12:40 Page:131
      653    11773                               @LOP$ = VARYING$,
      654    11774                               @ROP$ = BY$,
      655    11775                               @OP = %OP_PLUS);

  11777 11 000210   000005 220003                    LDX0    5,DU
        11 000211   200010 740100                    STX0    OP_NODE,,AUTO

  11778 11 000212   000000 221003                    LDX1    0,DU
        11 000213   200010 441100                    SXL1    OP_NODE,,AUTO

  11780 11 000214   000000 471500                    LDP1    0,,PR0
        11 000215   100000 236100                    LDQ     0,,PR1
        11 000216   200010 676100                    ERQ     OP_NODE,,AUTO
        11 000217   400000 376007                    ANQ     -131072,DL
        11 000220   200010 656100                    ERSQ    OP_NODE,,AUTO

  11785 11 000221   000000 471500                    LDP1    0,,PR0
        11 000222   100005 235100                    LDA     5,,PR1
        11 000223   200015 755100                    STA     OP_NODE+5,,AUTO

  11786 11 000224   000000 471500                    LDP1    0,,PR0
        11 000225   100006 235100                    LDA     6,,PR1
        11 000226   200016 755100                    STA     OP_NODE+6,,AUTO

  11787 11 000227   200005 471500                    LDP1    @BY$,,AUTO
        11 000230   100000 236100                    LDQ     0,,PR1
        11 000231   200012 756100                    STQ     OP_NODE+2,,AUTO

  11788 11 000232   000000 236100                    LDQ     0,,PR0
        11 000233   200011 756100                    STQ     OP_NODE+1,,AUTO

  11789 11 000234   000020 235007                    LDA     16,DL
        11 000235   200013 755100                    STA     OP_NODE+3,,AUTO

  11790 11 000236   000000 236000 12                 LDQ     0
        11 000237   200017 756100                    STQ     OP_NODE+7,,AUTO

PL6.E3A0      #006=Z8EQ$CREATE_ITERATED_DO_UNTIL File=Z8EQ.:Z8A6TSI              SAT 08/09/97 12:40 Page:132
      656    11793
      657    11794    3         CALL Z8E5$MATH_PACK (ADDR(OP_NODE),

  11794 11 000240   200010 633500                    EPPR3   OP_NODE,,AUTO
        11 000241   200052 453500                    STP3    @F$+2,,AUTO
        11 000242   200030 634500                    EPPR4   ETT_ITEM,,AUTO
        11 000243   200053 454500                    STP4    @F$+3,,AUTO
        11 000244   200053 635500                    EPPR5   @F$+3,,AUTO
        11 000245   200055 455500                    STP5    @F$+5,,AUTO
        11 000246   200052 636500                    EPPR6   @F$+2,,AUTO
        11 000247   200054 456500                    STP6    @F$+4,,AUTO
        11 000250   200054 630500                    EPPR0   @F$+4,,AUTO
        11 000251   000001 631400 12                 EPPR1   1
        11 000252   000000 701000 xent               TSX1    Z8E5$MATH_PACK
        11 000253   000000 011000                    NOP     0

      658    11795    3                              ADDR(ETT_ITEM));
      659    11796
      660    11797    3         CALL Z8E7$MOVE (VARYING$,

  11797 11 000254   200030 630500                    EPPR0   ETT_ITEM,,AUTO
        11 000255   200052 450500                    STP0    @F$+2,,AUTO
        11 000256   200052 631500                    EPPR1   @F$+2,,AUTO
        11 000257   200055 451500                    STP1    @F$+5,,AUTO
        11 000260   200003 236100                    LDQ     @VARYING$,,AUTO
        11 000261   200054 756100                    STQ     @F$+4,,AUTO
        11 000262   200054 630500                    EPPR0   @F$+4,,AUTO
        11 000263   000001 631400 12                 EPPR1   1
        11 000264   000000 701000 xent               TSX1    Z8E7$MOVE
        11 000265   000000 011000                    NOP     0

      661    11798    3                         ADDR(ETT_ITEM));
      662    11799    3       END;

      663    11800
      664    11801    2     CALL Z8EK$BRANCH (START_DO_LABEL$);

PL6.E3A0      #006=Z8EQ$CREATE_ITERATED_DO_UNTIL File=Z8EQ.:Z8A6TSI              SAT 08/09/97 12:40 Page:133
  11801 11 000266   200041 630500                    EPPR0   START_DO_LABEL$,,AUTO
        11 000267   200052 450500                    STP0    @F$+2,,AUTO
        11 000270   200052 630500                    EPPR0   @F$+2,,AUTO
        11 000271   000020 631400 12                 EPPR1   16
        11 000272   000000 701000 xent               TSX1    Z8EK$BRANCH
        11 000273   000000 011000                    NOP     0

      665    11802
      666    11803          %NEW_ILL (@ID = %DEFLB,
      667    11804                    @LABEL$ = END_DO_LABEL$);

  12136 11 000274   000005 236000 12                 LDQ     5
        11 000275   200052 756100                    STQ     @F$+2,,AUTO
        11 000276   200052 630500                    EPPR0   @F$+2,,AUTO
        11 000277   200057 450500                    STP0    @F$+7,,AUTO
        11 000300   000006 236000 12                 LDQ     6
        11 000301   200056 756100                    STQ     @F$+6,,AUTO
        11 000302   000016 237000 12                 LDAQ    14
        11 000303   200054 757100                    STAQ    @F$+4,,AUTO
        11 000304   200054 630500                    EPPR0   @F$+4,,AUTO
        11 000305   000002 631400 12                 EPPR1   2
        11 000306   000000 701000 xent               TSX1    Z8AN$NEW_ILL
        11 000307   000000 011000                    NOP     0

  12137 11 000310   200042 236100                    LDQ     END_DO_LABEL$,,AUTO
        11 000311   000000 470400 1                  LDP0    ILL$
        11 000312   000001 756100                    STQ     1,,PR0

      668    12183
      669    12184          %NEW_ILL(@ID = %DOEND);

  12258 11 000313   000005 236000 12                 LDQ     5
        11 000314   200052 756100                    STQ     @F$+2,,AUTO
        11 000315   200052 631500                    EPPR1   @F$+2,,AUTO
        11 000316   200057 451500                    STP1    @F$+7,,AUTO
        11 000317   000006 236000 12                 LDQ     6
        11 000320   200056 756100                    STQ     @F$+6,,AUTO
PL6.E3A0      #006=Z8EQ$CREATE_ITERATED_DO_UNTIL File=Z8EQ.:Z8A6TSI              SAT 08/09/97 12:40 Page:134
        11 000321   000022 237000 12                 LDAQ    18
        11 000322   200054 757100                    STAQ    @F$+4,,AUTO
        11 000323   200054 630500                    EPPR0   @F$+4,,AUTO
        11 000324   000002 631400 12                 EPPR1   2
        11 000325   000000 701000 xent               TSX1    Z8AN$NEW_ILL
        11 000326   000000 011000                    NOP     0

      670    12563
      671    12564
      672    12565    2   END DO_MERGE;

  12565 11 000327   200044 221300                    LDX1  ! END_DO_LABEL$+2,,AUTO
        11 000330   000001 702211                    TSX2  ! 1,X1

      673    12566
      674    12567
      675    12568    1     IF VARYING$ -> LX_ETT_ITEM.LINK ~= ADDR(NIL)

  12568 11 000331   200003 470500                    LDP0    @VARYING$,,AUTO
        11 000332   000000 471500                    LDP1    0,,PR0
        11 000333   100007 236100                    LDQ     7,,PR1
        11 000334   000000 116000 12                 CMPQ    0
        11 000335   000403 600000 11                 TZE     s:12583
        11 000336   200004 473500                    LDP3    @FROM$,,AUTO
        11 000337   300000 474500                    LDP4    0,,PR3
        11 000340   400007 236100                    LDQ     7,,PR4
        11 000341   000000 116000 12                 CMPQ    0
        11 000342   000403 600000 11                 TZE     s:12583
        11 000343   200005 475500                    LDP5    @BY$,,AUTO
        11 000344   500000 476500                    LDP6    0,,PR5
        11 000345   600007 236100                    LDQ     7,,PR6
        11 000346   000000 116000 12                 CMPQ    0
        11 000347   000403 600000 11                 TZE     s:12583
        11 000350   200006 477500                    LDP7    @COND$,,AUTO
        11 000351   700000 470500                    LDP0    0,,PR7
        11 000352   000007 236100                    LDQ     7,,PR0
        11 000353   000000 116000 12                 CMPQ    0
PL6.E3A0      #006=Z8EQ$CREATE_ITERATED_DO_UNTIL File=Z8EQ.:Z8A6TSI              SAT 08/09/97 12:40 Page:135
        11 000354   000403 600000 11                 TZE     s:12583

      676    12569    1           AND FROM$ -> LX_ITEM.LINK ~= ADDR(NIL)
      677    12570    1           AND BY$   -> LX_ITEM.LINK ~= ADDR(NIL)
      678    12571    1           AND COND$ -> LX_ITEM.LINK ~= ADDR(NIL) THEN
      679    12572    2       DO;

      680    12573    2         CALL Z8EQ$CREATE_ITERATED_DO_UNTIL ( VARYING$ -> LX_ETT_ITEM.LINK,

  12573 11 000355   200003 471500                    LDP1    @VARYING$,,AUTO
        11 000356   100000 470500                    LDP0    0,,PR1
        11 000357   700000 471500                    LDP1    0,,PR7
        11 000360   200007 236100                    LDQ     @DO_ILS$,,AUTO
        11 000361   200056 756100                    STQ     @F$+6,,AUTO
        11 000362   100007 633500                    EPPR3   7,,PR1
        11 000363   200055 453500                    STP3    @F$+5,,AUTO
        11 000364   600007 631500                    EPPR1   7,,PR6
        11 000365   200054 451500                    STP1    @F$+4,,AUTO
        11 000366   400007 636500                    EPPR6   7,,PR4
        11 000367   200053 456500                    STP6    @F$+3,,AUTO
        11 000370   000007 634500                    EPPR4   7,,PR0
        11 000371   200052 454500                    STP4    @F$+2,,AUTO
        11 000372   200052 630500                    EPPR0   @F$+2,,AUTO
        11 000373   000024 631400 12                 EPPR1   20
        11 000374   000000 701000 11                 TSX1    s:6
        11 000375   000000 011000                    NOP     0

      681    12574    2                                              FROM$    -> LX_ITEM.LINK,
      682    12575    2                                              BY$      -> LX_ITEM.LINK,
      683    12576    2                                              COND$    -> LX_ITEM.LINK,
      684    12577    2                                              DO_ILS$);
      685    12578    2         CALL CLEAR_O1COM;

  12578 11 000376   000003 701000 11                 TSX1    CLEAR_O1COM
        11 000377   000000 011000                    NOP     0

      686    12579    2         CALL DO_MERGE;
PL6.E3A0      #006=Z8EQ$CREATE_ITERATED_DO_UNTIL File=Z8EQ.:Z8A6TSI              SAT 08/09/97 12:40 Page:136

  12579 11 000400   000055 701000 11                 TSX1    DO_MERGE
        11 000401   000000 011000                    NOP     0

      687    12580    2       END;

  12580 11 000402   000410 710000 11                 TRA     s:12587

      688    12581    1     ELSE
      689    12582    2       DO;

      690    12583    2         ILS_LIST$ = DO_ILS$;

  12583 11 000403   200007 470500                    LDP0    @DO_ILS$,,AUTO
        11 000404   000000 236100                    LDQ     0,,PR0
        11 000405   200040 756100                    STQ     ILS_LIST$,,AUTO

      691    12584    2         CALL DO_MERGE;

  12584 11 000406   000055 701000 11                 TSX1    DO_MERGE
        11 000407   000000 011000                    NOP     0

      692    12585    2       END;

      693    12586
      694    12587    1     RETURN;

  12587 11 000410   000000 702200 xent               TSX2  ! X66_ARET

      695    12588
      696    12589
      697    12590    1   Z8EQ$MERGE_ITERATED_DO_UNTIL : ENTRY (VARYING$,

  12590 11 000411   000000 700200 xent  Z8EQ$MERGE_* TSX0  ! X66_AUTO_5
        11 000412   000060 000005                    ZERO    48,5

      698    12591    1                                        FROM$,
PL6.E3A0      #006=Z8EQ$CREATE_ITERATED_DO_UNTIL File=Z8EQ.:Z8A6TSI              SAT 08/09/97 12:40 Page:137
      699    12592    1                                        BY$,
      700    12593    1                                        COND$);
      701    12594
      702    12595
      703    12596    1     IF VARYING$ -> LX_ETT_ITEM.LINK ~= ADDR(NIL)

  12596 11 000413   200003 470500                    LDP0    @VARYING$,,AUTO
        11 000414   000000 471500                    LDP1    0,,PR0
        11 000415   100007 236100                    LDQ     7,,PR1
        11 000416   000000 116000 12                 CMPQ    0
        11 000417   000456 600000 11                 TZE     s:12605
        11 000420   200004 473500                    LDP3    @FROM$,,AUTO
        11 000421   300000 474500                    LDP4    0,,PR3
        11 000422   400007 236100                    LDQ     7,,PR4
        11 000423   000000 116000 12                 CMPQ    0
        11 000424   000456 600000 11                 TZE     s:12605
        11 000425   200005 475500                    LDP5    @BY$,,AUTO
        11 000426   500000 476500                    LDP6    0,,PR5
        11 000427   600007 236100                    LDQ     7,,PR6
        11 000430   000000 116000 12                 CMPQ    0
        11 000431   000456 600000 11                 TZE     s:12605
        11 000432   200006 477500                    LDP7    @COND$,,AUTO
        11 000433   700000 470500                    LDP0    0,,PR7
        11 000434   000007 236100                    LDQ     7,,PR0
        11 000435   000000 116000 12                 CMPQ    0
        11 000436   000456 600000 11                 TZE     s:12605

      704    12597    1           AND FROM$ -> LX_ITEM.LINK ~= ADDR(NIL)
      705    12598    1           AND BY$   -> LX_ITEM.LINK ~= ADDR(NIL)
      706    12599    1           AND COND$ -> LX_ITEM.LINK ~= ADDR(NIL) THEN
      707    12600    1       CALL Z8EQ$MERGE_ITERATED_DO_UNTIL (VARYING$ -> LX_ETT_ITEM.LINK,

  12600 11 000437   200003 471500                    LDP1    @VARYING$,,AUTO
        11 000440   100000 470500                    LDP0    0,,PR1
        11 000441   700000 471500                    LDP1    0,,PR7
        11 000442   100007 633500                    EPPR3   7,,PR1
        11 000443   200055 453500                    STP3    @F$+5,,AUTO
PL6.E3A0      #006=Z8EQ$CREATE_ITERATED_DO_UNTIL File=Z8EQ.:Z8A6TSI              SAT 08/09/97 12:40 Page:138
        11 000444   600007 631500                    EPPR1   7,,PR6
        11 000445   200054 451500                    STP1    @F$+4,,AUTO
        11 000446   400007 636500                    EPPR6   7,,PR4
        11 000447   200053 456500                    STP6    @F$+3,,AUTO
        11 000450   000007 634500                    EPPR4   7,,PR0
        11 000451   200052 454500                    STP4    @F$+2,,AUTO
        11 000452   200052 630500                    EPPR0   @F$+2,,AUTO
        11 000453   000002 631400 12                 EPPR1   2
        11 000454   000411 701000 11                 TSX1    s:12590
        11 000455   000000 011000                    NOP     0

      708    12601    1                                          FROM$    -> LX_ITEM.LINK,
      709    12602    1                                          BY$      -> LX_ITEM.LINK,
      710    12603    1                                          COND$    -> LX_ITEM.LINK);
      711    12604
      712    12605    1     CALL CLEAR_O1COM;

  12605 11 000456   000003 701000 11                 TSX1    CLEAR_O1COM
        11 000457   000000 011000                    NOP     0

      713    12606    1     CALL DO_MERGE;

  12606 11 000460   000055 701000 11                 TSX1    DO_MERGE
        11 000461   000000 011000                    NOP     0

      714    12607
      715    12608    1     RETURN;

  12608 11 000462   000000 702200 xent               TSX2  ! X66_ARET
      716    12609    1   END Z8EQ$CREATE_ITERATED_DO_UNTIL;
      717    12610        %EOD;

PL6.E3A0      #006=Z8EQ$CREATE_ITERATED_DO_UNTIL File=Z8EQ.:Z8A6TSI              SAT 08/09/97 12:40 Page:139
--  Include file information  --

   Z8E_ILS_LIST.:Z8A6TOU  is referenced.
   Z8E_NEW_ILL.:Z8A6TOU  is referenced.
   Z8E_MACROS.:Z8A6TOU  cannot be made into a system file and is referenced.
   Z8E_O1COM.:Z8A6TOU  cannot be made into a system file and is referenced.
   Z8A_LEX_SYMB.:Z8A6TOU  cannot be made into a system file and is referenced.
   Z8E_STACKS.:Z8A6TOU  cannot be made into a system file and is referenced.
   Z8A_ST.:Z8A6TOU  cannot be made into a system file and is referenced.
   Z8A_TYPES.:Z8A6TOU  is referenced.
   Z8A_ILS.:Z8A6TOU  cannot be made into a system file and is referenced.
   Z8A_ILL.:Z8A6TOU  cannot be made into a system file and is referenced.
   X8A_COM_MACS.:X8A6TOU  is referenced.
   Z8A_NAMES.:Z8A6TOU  is referenced.
   Z8A_SUPP_MAC.:Z8A6TOU  is referenced.
   Z8A_DEFC.:Z8A6TOU  cannot be made into a system file and is referenced.
      No diagnostics issued in procedure Z8EQ$CREATE_ITERATED_DO_UNTIL.
PL6.E3A0      #006=Z8EQ$CREATE_ITERATED_DO_UNTIL File=Z8EQ.:Z8A6TSI              SAT 08/09/97 12:40 Page:140

 **** Variables and constants ****

  ****  Section 000 LblCom ITERATION

  ****  Scalars and arrays  ****
OctLoc.c.b A Datatyp(siz) R M Lvl/name                 OctLoc.c.b A Datatyp(siz) R M Lvl/name

     0-0-0/w SBIN              1 ITERATION

  ****  Section 001 LblCom ILL$

  ****  Scalars and arrays  ****
OctLoc.c.b A Datatyp(siz) R M Lvl/name                 OctLoc.c.b A Datatyp(siz) R M Lvl/name

     0-0-0/w PTR         r     1 ILL$

  ****  Section 002 LblCom ILL_

  ****  Scalars and arrays  ****
OctLoc.c.b A Datatyp(siz) R M Lvl/name                 OctLoc.c.b A Datatyp(siz) R M Lvl/name

     0-0-0/w STRC(180)         1 ILL_

  ****  Section 003 LblCom ILS$

  ****  Scalars and arrays  ****
OctLoc.c.b A Datatyp(siz) R M Lvl/name                 OctLoc.c.b A Datatyp(siz) R M Lvl/name

     0-0-0/w PTR         r     1 ILS$

  ****  Section 004 LblCom ILS_

  ****  Scalars and arrays  ****
OctLoc.c.b A Datatyp(siz) R M Lvl/name                 OctLoc.c.b A Datatyp(siz) R M Lvl/name

     0-0-0/w STRC(180)         1 ILS_

PL6.E3A0      #006=Z8EQ$CREATE_ITERATED_DO_UNTIL File=Z8EQ.:Z8A6TSI              SAT 08/09/97 12:40 Page:141
  ****  Section 005 LblCom ST$

  ****  Scalars and arrays  ****
OctLoc.c.b A Datatyp(siz) R M Lvl/name                 OctLoc.c.b A Datatyp(siz) R M Lvl/name

     0-0-0/w PTR         r     1 ST$

  ****  Section 006 LblCom ST_

  ****  Scalars and arrays  ****
OctLoc.c.b A Datatyp(siz) R M Lvl/name                 OctLoc.c.b A Datatyp(siz) R M Lvl/name

     0-0-0/w STRC(180)         1 ST_

  ****  Section 007 LblCom LEX_SYMBOL

  ****  Scalars and arrays  ****
OctLoc.c.b A Datatyp(siz) R M Lvl/name                 OctLoc.c.b A Datatyp(siz) R M Lvl/name

     0-0-0/w STRC(3240)  r     1 LEX_SYMBOL                 0-0-0/w STRC(3240)        1 LEX_SYMBOL_WORDS

  ****  Section 008 LblCom CURRENT_LEX_SYMBOL$

  ****  Scalars and arrays  ****
OctLoc.c.b A Datatyp(siz) R M Lvl/name                 OctLoc.c.b A Datatyp(siz) R M Lvl/name

     0-0-0/w PTR         r     1 CURRENT_LEX_SYMBOL$

  ****  Section 009 LblCom TEMP_LEX_SYMBOL

  ****  Scalars and arrays  ****
OctLoc.c.b A Datatyp(siz) R M Lvl/name                 OctLoc.c.b A Datatyp(siz) R M Lvl/name

     0-0-0/w STRC(3240)        1 TEMP_LEX_SYMBOL

  ****  Section 010 LblCom TEMP_LEX_SYMBOL2

PL6.E3A0      #006=Z8EQ$CREATE_ITERATED_DO_UNTIL File=Z8EQ.:Z8A6TSI              SAT 08/09/97 12:40 Page:142
  ****  Scalars and arrays  ****
OctLoc.c.b A Datatyp(siz) R M Lvl/name                 OctLoc.c.b A Datatyp(siz) R M Lvl/name

     0-0-0/w STRC(3240)        1 TEMP_LEX_SYMBOL2

  ****  Auto variables  ****

  ****  Scalars and arrays  ****
OctLoc.c.b A Datatyp(siz) R M Lvl/name                 OctLoc.c.b A Datatyp(siz) R M Lvl/name

     5-0-0/w PTR         r     1 @BY$                       6-0-0/w PTR         r     1 @COND$
     7-0-0/w PTR         r     1 @DO_ILS$                  50-0-0/w PTR         r     1 @F$
     4-0-0/w PTR         r     1 @FROM$                    47-0-0/w PTR         r     1 @V$
     3-0-0/w PTR         r     1 @VARYING$                 *0-0-0/w PTR         r     1 BY$
    *0-0-0/w PTR         r     1 COND$                     20-0-0/d STRC(288)   r     1 DO_BODY
    *0-0-0/w PTR         r     1 DO_ILS$                   42-0-0/w PTR         r     1 END_DO_LABEL$
    30-0-0/d STRC(288)   r     1 ETT_ITEM                  *0-0-0/w PTR         r     1 F$
    *0-0-0/w PTR         r     1 FROM$                     40-0-0/w PTR         r     1 ILS_LIST$
    10-0-0/d STRC(288)   r     1 OP_NODE                   41-0-0/w PTR         r     1 START_DO_LABEL$
    *0-0-0/w PTR         r     1 V$                        *0-0-0/w PTR         r     1 VARYING$

  ****  SYMREF variables  ****

  ****  Scalars and arrays  ****
OctLoc.c.b A Datatyp(siz) R M Lvl/name                 OctLoc.c.b A Datatyp(siz) R M Lvl/name

     0-0-0/w STRC(180)         1 HIER_STK(0:50)
     0-0-0/w SBIN              1 HIER_STK_PTR               0-0-0/w UBIN              1 ILL_STEP(0:144)
     0-0-0/w UBIN              1 ILS_STEP_TABLE(0:2)
     0-0-0/d STRC(11580) r     1 O1COM                      0-0-0/w STRC(144)         1 PAGE_FORMAT
     0-0-0/w STRC(153)         1 REP_STK(0:50)              0-0-0/w SBIN              1 REP_STK_PTR

  ****  BASED and DCB variables  ****

  ****  Scalars and arrays  ****
OctLoc.c.b A Datatyp(siz) R M Lvl/name                 OctLoc.c.b A Datatyp(siz) R M Lvl/name

PL6.E3A0      #006=Z8EQ$CREATE_ITERATED_DO_UNTIL File=Z8EQ.:Z8A6TSI              SAT 08/09/97 12:40 Page:143
     0-0-0/w STRC(108)         1 ACCEPT_DISPLAY             0-0-0/w STRC(288)         1 ADD_STMT
     0-0-0/w STRC(396)         1 ALPHABET                   0-0-0/w STRC(396)         1 ARRAY
     0-0-0/w ASTR(324)   r     1 BASED_LEX_SYMBOL
     0-0-0/w STRC(360)         1 BASED_LEX_SYMBOL_WORDS
     0-0-0/w STRC(108)         1 BINARY_ILL                 0-0-0/w STRC(288)   r     1 BINARY_OP
     0-0-0/w STRC(396)         1 BLOCK                      0-0-0/w STRC(144)         1 BRANCH_ILL
     0-0-0/w STRC(288)         1 CALL_STMT                  0-0-0/w STRC(216)         1 CCOSU
     0-0-0/w STRC(396)         1 CD                         0-0-0/w CHAR(4096)        1 CHARS
     0-0-0/w STRC(396)         1 CLASS                      0-0-0/w STRC(108)         1 CODED_MOVE
     0-0-0/w STRC(288)         1 COMPUTE_STMT               0-0-0/w STRC(396)         1 CONDITION
     0-0-0/w STRC(396)         1 CONST                      0-0-0/w STRC(72)          1 CONT
     0-0-0/w STRC(396)         1 DB                         0-0-0/w STRC(396)         1 DCB_
     0-0-0/w STRC(288)         1 DEFERED_IDENTIFIER         0-0-0/w STRC(252)         1 DEFERED_ID_TREE
     0-0-0/w STRC(288)         1 DEFERED_QUAL_ID            0-0-0/w STRC(288)         1 DEFERED_SUM_CLAUSE
     0-0-0/w STRC(288)         1 DEFERED_SUM_CLAUSE_LIST
     0-0-0/w STRC(144)   r     1 DEFLB                      0-0-0/w STRC(288)         1 DELETE_STMT
     0-0-0/w STRC(288)         1 DIVIDE_STMT                0-0-0/w STRC(396)         1 DML_ITEM
     0-0-0/w STRC(144)         1 DOEND                      0-0-0/w STRC(396)   r     1 DO_N
     0-0-0/w STRC(180)         1 DV4I                       0-0-0/w STRC(180)         1 ENTRY_ILL
     0-0-0/w STRC(108)         1 EVALU                      0-0-0/w STRC(396)         1 FD
     0-0-0/w STRC(144)         1 GO                         0-0-0/w STRC(180)         1 ILL
     0-0-0/w STRC              1 ILL_NO_OPS                 0-0-0/w STRC(180)   r     1 ILS
     0-0-0/w STRC(288)   r     1 ILS_LIST                   0-0-0/w STRC(288)         1 INSPECT_1_STMT
     0-0-0/w STRC(288)         1 INSPECT_2_STMT             0-0-0/w STRC(288)         1 INSPECT_4_STMT
     0-0-0/w STRC(396)         1 INTDEF                     0-0-0/w STRC(396)         1 LABEL
     0-0-0/w STRC(288)         1 LA_ITEM                    0-0-0/w STRC(108)         1 LINOI
     0-0-0/w STRC(504)         1 LX_CD_INPUT                0-0-0/w STRC(324)         1 LX_CD_I_O
     0-0-0/w STRC(396)         1 LX_CD_OUTPUT               0-0-0/w STRC(288)   r     1 LX_ETT_ITEM
     0-0-0/w STRC(288)   r     1 LX_ITEM                    0-0-0/w STRC(288)         1 LX_LARGE
     0-0-0/w STRC(288)         1 LX_LIST                    0-0-0/w STRC(1224)        1 LX_REC_DECL
     0-0-0/w STRC(864)         1 LX_REPORT_REC              0-0-0/w STRC(288)         1 LX_TERMINAL
     0-0-0/w STRC(72)          1 MFILL                      0-0-0/w STRC(396)         1 MNEMONIC
     0-0-0/w STRC(288)         1 MULTIPLY_STMT              0-0-0/w STRC(180)         1 MULTI_GO
     0-0-0/w STRC(180)         1 MVEAL                      0-0-0/w STRC(108)         1 MVFIL
     0-0-0/w STRC(72)          1 MVIIS                      0-0-0/w STRC(144)         1 OPN
     0-0-0/w STRC(180)         1 OS_CALL                    0-0-0/w STRC(36864)       1 PAGE
     0-0-0/w STRC(396)         1 PARA                       0-0-0/w STRC(216)         1 PFORM
PL6.E3A0      #006=Z8EQ$CREATE_ITERATED_DO_UNTIL File=Z8EQ.:Z8A6TSI              SAT 08/09/97 12:40 Page:144
     0-0-0/w STRC(144)         1 PINC                       0-0-0/w STRC(144)         1 PREOFF
     0-0-0/w STRC(108)         1 PRESET                     0-0-0/w STRC(396)         1 PROC_
     0-0-0/w STRC(396)         1 PROC_DEF                   0-0-0/w STRC(144)         1 P_A_PRESET
     0-0-0/w STRC(144)         1 P_P_PRESET                 0-0-0/w STRC(396)         1 RD
     0-0-0/w STRC(288)         1 READ_STMT                  0-0-0/w STRC(144)         1 REMEM
     0-0-0/w STRC(288)         1 REWRITE_STMT               0-0-0/w STRC(396)         1 SCALAR
     0-0-0/w STRC(144)         1 SCOPE                      0-0-0/w STRC(396)         1 SD
     0-0-0/w STRC(216)         1 SEARCH_                    0-0-0/w STRC(396)         1 SECTION
     0-0-0/w STRC(396)         1 SEGMENT                    0-0-0/w STRC(396)         1 ST
     0-0-0/w STRC(288)         1 START_STMT                 0-0-0/w STRC(72)          1 STP2
     0-0-0/w STRC(252)         1 STRING_STMT                0-0-0/w STRC(288)         1 SUBTRACT_STMT
     0-0-0/w STRC(396)         1 SWITCH                     0-0-0/w STRC(396)         1 SYMBOLIC_CHAR
     0-0-0/w STRC(396)         1 SYMDEF_                    0-0-0/w STRC(396)         1 SYMREF_
     0-0-0/w STRC(396)         1 TEMP                       0-0-0/w STRC(144)         1 TRINARY_ILL
     0-0-0/w STRC(72)          1 UNARY_ILL                  0-0-0/w STRC(288)         1 UNARY_OP
     0-0-0/w STRC(288)         1 UNSTRING_STMT              0-0-0/w STRC(216)         1 USER_CALL
     0-0-0/w STRC(108)         1 VAL                        0-0-0/w STRC(108)         1 VAL_END
     0-0-0/w STRC(396)         1 VARIABLE                   0-0-0/w STRC(72)          1 WHEN
     0-0-0/w STRC(288)         1 WRITE_STMT


   Procedure Z8EQ$CREATE_ITERATED_DO_UNTIL requires 307 words for executable code.
   Procedure Z8EQ$CREATE_ITERATED_DO_UNTIL requires 48 words of local(AUTO) storage.

