PL6.E3A0      #007=Z8EQ$INITIALIZE_STATE File=Z8EQ.:Z8A6TSI                      SAT 08/09/97 12:42 Page:145
      718        1        /*T***********************************************************/
      719        2        /*T*                                                         */
      720        3        /*T* Copyright (c) Bull HN Information Systems Inc., 1997    */
      721        4        /*T*                                                         */
      722        5        /*T***********************************************************/
      723        6        /*--------------------*/
      724        7          Z8EQ$INITIALIZE_STATE : PROC (KEY_WORD$,
      725        8        /*--------------------*/       QUAL_ID_LIST$,
      726        9                                       REPLACING_LIST$ );
      727       10
      728       11
      729       12        /*I*
      730       13                 NAME: Z8EQ$INITIALIZE_STATE
      731       14
      732       15          DESCRIPTION: Each identifier in the INITIALIZE statement is inspected
      733       16                       using Z8EU$GET_INITIALIZE_ITEMS.  A list of elementary
      734       17                       items under a group item is returned.  For each elementary
      735       18                       item, its "class" is compared against the type requested.
      736       19                       If equal,  Z8E7$MOVE is called to initialize the value.
      737       20
      738       21                       Loops are generated for array initialization.  Both
      739       22                       subscripting and reference modification may be specified
      740       23                       on the identifier to be initialized.
      741       24        */
      742       25
      743       26        %SET PHASE = 1;
      744       27
      745       28        %INCLUDE Z8A_DEFC;
      746       96        %INCLUDE Z8A_SUPP_MAC;
      747     2496        %INCLUDE Z8A_COMCOM;
      748     3146        %INCLUDE Z8E_WINDOW;
      749     5216        %INCLUDE Z8E_STACKS;
      750     7482        %INCLUDE Z8E_O1COM;
      751     8243        %INCLUDE Z8E_MACROS;
      752     8918        %INCLUDE Z8E_ILS_LIST;
      753     9002        %INCLUDE Z8A_ERR_NUMS;
      754     9766        %INCLUDE Z8A_DNT;
PL6.E3A0      #007=Z8EQ$INITIALIZE_STATE File=Z8EQ.:Z8A6TSI                      SAT 08/09/97 12:42 Page:146
      755     9987        %INCLUDE Z8A_ST;
      756    13646        %INCLUDE Z8A_TYPES;
      757    13820        %INCLUDE Z8A_QLT;
      758    13926        %INCLUDE Z8A_ETT;
      759    14227        %INCLUDE Z8A_ILL;
      760    14920        %INCLUDE Z8A_ILS;
      761    15029        %INCLUDE Z8E_HEAP;
      762    15085        %INCLUDE Z8E_ABSSYN;
      763    15291        %INCLUDE Z8A_LTS;
      764    17368        %INCLUDE Z8E_STATEMNT;
      765    17437
      766    17438    1   DCL DNT$_FROM_RSWNO( 0:0 )    PTR SYMREF READONLY;
      767    17439
      768    17440    1   DCL Z8EU$NEW_TEMP_FROM_DESC          ENTRY(2);
      769    17441    1   DCL Z8EU$DELETE_LIST_ITEM            ENTRY(2);
      770    17442    1   DCL Z8AC$LX_ETT_ITEM_TYI_CONST       ENTRY(2);
      771    17443    1   DCL Z8EU$MAKE_INIT_LTS               ENTRY(4);
      772    17444    1   DCL Z8EQ$OPTIMIZED_INITIAL           ENTRY(1);
      773    17445    1   DCL Z8EQ$MERGE_ITERATED_DO_UNTIL     ENTRY(4);
      774    17446    1   DCL Z8DO$LINK_WITH_LTS               ENTRY(2);
      775    17447    1   DCL Z8AE$ERROR                       ENTRY(12);
      776    17448    1   DCL Z8EU$DUP_ABSSYN_TREE             ENTRY(2);
      777    17449    1   DCL Z8E7$MOVE                        ENTRY(2);
      778    17450    1   DCL Z8E7$POINTER_MOVE                ENTRY(2);
      779    17451    1   DCL Z8EY$SUBSCRIPT                   ENTRY(2);
      780    17452    1   DCL Z8AH$SEARCH_                     ENTRY;
      781    17453    1   DCL Z8EU$GET_INITIALIZE_ITEMS        ENTRY(2);
      782    17454    1   DCL Z8ED$DISPOSE_ABSSYN_TREE         ENTRY(1);
      783    17455
      784    17456
      785    17457    1     DCL KEY_WORD$ PTR;
      786    17458    1     DCL QUAL_ID_LIST$ PTR;
      787    17459    1     DCL REPLACING_LIST$ PTR;
      788    17460
      789    17461          %DCL_AUTO_LX_ITEM (@NAME = INIT_LIST);
      790    17465          %DCL_AUTO_LX_ITEM (@NAME = VALL);
      791    17469          %DCL_AUTO_LX_ITEM(@NAME = LOOP_END);
PL6.E3A0      #007=Z8EQ$INITIALIZE_STATE File=Z8EQ.:Z8A6TSI                      SAT 08/09/97 12:42 Page:147
      792    17473          %DCL_AUTO_LX_ITEM(@NAME = END_VALUE);
      793    17477          %DCL_AUTO_LX_ITEM(@NAME = VALUE_ONE);
      794    17481          %DCL_AUTO_LX_ITEM(@NAME = SAVED_ILS_LIST);
      795    17485          %DCL_AUTO_LX_ITEM(@NAME = DIMS_INDEX_LIST);
      796    17489
      797    17490    1     DCL REPLACING$  PTR;
      798    17491    1     DCL INIT$ PTR;
      799    17492    1     DCL IDENT_ST$ PTR;
      800    17493    1     DCL IDENT$ PTR;
      801    17494    1     DCL SUBSCRIPTS$ PTR;
      802    17495    1     DCL NUM_SUBS_GIVEN SBIN;
      803    17496    1     DCL QUAL_ID$ PTR;
      804    17497    1     DCL INIT_COUNT SBIN WORD;
      805    17498    1     DCL INIT_ST$ PTR;
      806    17499    1     DCL LAST_DIMS$ PTR;
      807    17500    1     DCL INIT_LTS$ PTR;
      808    17501    1     DCL OFF SBIN;
      809    17502    1     DCL SUBSCR$ PTR;
      810    17503        %EJECT;
PL6.E3A0      #007=Z8EQ$INITIALIZE_STATE File=Z8EQ.:Z8A6TSI                      SAT 08/09/97 12:42 Page:148
      811    17504        %MACRO SET_VALUE (@RSV_WRD_CLASS = );
      812    17505          DO;
      813    17506
      814    17507            IF INIT_TYPE$ ~= ADDR(NIL)
      815    17508               AND INIT_TYPE$ -> LX_TERMINAL.SYMBOL = @RSV_WRD_CLASS THEN
      816    17509              DO;
      817    17510                CALL INITIALIZE_VAR (INIT$,
      818    17511                                     IDENT$,
      819    17512                                     INIT_ST$,
      820    17513                                     INIT_VALUE$);
      821    17514              END;
      822    17515          END;
      823    17516        %MEND;
      824    17517        %EJECT;
PL6.E3A0      #007=Z8EQ$INITIALIZE_STATE File=Z8EQ.:Z8A6TSI                      SAT 08/09/97 12:42 Page:149
      825    17518    1   GET_INDICES : PROC (NUM_INDICES);
      826    17519
      827    17520    2     DCL NUM_INDICES SBIN WORD;
      828    17521
      829    17522    2     DCL I SBIN WORD;
      830    17523    2     DCL T$ PTR;
      831    17524
      832    17525    2     DCL 1 TYPE_DESC ALIGNED,
      833    17526                %TYPE_DESC;
      834    17560
      835    17561    3   DO WHILE ADDR(DIMS_INDEX_LIST) -> LX_LIST.COUNT < NUM_INDICES;
      836    17562
      837    17563          %NEW (@TEMPLATE = LX_ETT_ITEM,
      838    17564                @POINTER = T$);
      839    17574
      840    17575    3     TYPE_DESC.TYPE = %TYI;
      841    17576    3     TYPE_DESC.SIZ$ = ADDR(NIL);
      842    17577          %BUILD_BINARY_DESC (@DESC = TYPE_DESC.DESC,
      843    17578                              @LENGTH = %TYI_LENGTH);
      844    17586    3     CALL Z8EU$NEW_TEMP_FROM_DESC (TYPE_DESC,
      845    17587    3                                   T$);
      846    17588          %ADD_LX_ITEM_TO_LIST_TAIL (@FROM$ = T$,
      847    17589                      @LIST$ = "ADDR(DIMS_INDEX_LIST)");
      848    17605    3   END;
      849    17606
      850    17607    3   DO WHILE ADDR(DIMS_INDEX_LIST) -> LX_LIST.COUNT > NUM_INDICES;
      851    17608
      852    17609
      853    17610    3     T$ = ADDR(DIMS_INDEX_LIST) -> LX_LIST.TAIL$;
      854    17611
      855    17612    3     CALL Z8EU$DELETE_LIST_ITEM (ADDR(DIMS_INDEX_LIST),
      856    17613    3                                 T$);
      857    17614
      858    17615    3     CALL Z8ED$DISPOSE_ABSSYN_TREE (T$);
      859    17616
      860    17617    3   END;
      861    17618
PL6.E3A0      #007=Z8EQ$INITIALIZE_STATE File=Z8EQ.:Z8A6TSI                      SAT 08/09/97 12:42 Page:150
      862    17619    2   END GET_INDICES;
      863    17620        %EJECT;
PL6.E3A0      #007=Z8EQ$INITIALIZE_STATE File=Z8EQ.:Z8A6TSI                      SAT 08/09/97 12:42 Page:151
      864    17621    1     ISSUE_PERFORMS : PROC;
      865    17622
      866    17623    2       DCL I SBIN WORD;
      867    17624    2       DCL J SBIN WORD;
      868    17625    2       DCL DIMS_INDEX$ PTR;
      869    17626
      870    17627    2     IF LAST_DIMS$ ~= ADDR(NIL) THEN
      871    17628    2       DO I = (LAST_DIMS$ -> DIMS.N - %MIN_DIM_SIZE) / %NO_WORDS_PER_DIM
      872    17629    3                    DOWNTO NUM_SUBS_GIVEN + 1;
      873    17630
      874    17631    3         DIMS_INDEX$ = ADDR(DIMS_INDEX_LIST) -> LX_LIST.HEAD$;
      875    17632
      876    17633    4         DO J = I-1 DOWNTO 1;
      877    17634    4           DIMS_INDEX$ = DIMS_INDEX$ -> LX_ETT_ITEM.LINK;
      878    17635    4         END;
      879    17636
      880    17637    3         CALL Z8AC$LX_ETT_ITEM_TYI_CONST (LAST_DIMS$ -> DIMS.D.DIM(I),
      881    17638    3                                              ADDR(END_VALUE));
      882    17639
      883    17640    3         CALL Z8AC$LX_ETT_ITEM_TYI_CONST (1,
      884    17641    3                                               ADDR(VALUE_ONE));
      885    17642
      886    17643              %INIT_BINARY_OP (@POINTER = "ADDR(LOOP_END)",
      887    17644                               @LOP$ = DIMS_INDEX$,
      888    17645                               @ROP$ = "ADDR(END_VALUE)",
      889    17646                               @OP = %OP_EQUAL);
      890    17664
      891    17665    3         CALL Z8EQ$MERGE_ITERATED_DO_UNTIL (DIMS_INDEX$,
      892    17666    3                                            ADDR(VALUE_ONE),
      893    17667    3                                            ADDR(VALUE_ONE),
      894    17668    3                                            ADDR(LOOP_END));
      895    17669    3       END;
      896    17670
      897    17671    2     LAST_DIMS$ = ADDR(NIL);
      898    17672
      899    17673          %APPEND_ILS_LIST (@FROM$ = "ADDR(O1COM.ILS_LIST)",
      900    17674                            @TO$ = "ADDR(SAVED_ILS_LIST)");
PL6.E3A0      #007=Z8EQ$INITIALIZE_STATE File=Z8EQ.:Z8A6TSI                      SAT 08/09/97 12:42 Page:152
      901    17691
      902    17692          %INIT_ILS_LIST (@POINTER = "ADDR(O1COM.ILS_LIST)");
      903    17700
      904    17701    2     END ISSUE_PERFORMS;
      905    17702        %EJECT;
PL6.E3A0      #007=Z8EQ$INITIALIZE_STATE File=Z8EQ.:Z8A6TSI                      SAT 08/09/97 12:42 Page:153
      906    17703    1   VERIFY_SUBSCRIPTING : PROC (IDENT$,
      907    17704    1                               SUBSCRIPT_LIST$);
      908    17705
      909    17706    2     DCL IDENT$ PTR;
      910    17707    2     DCL SUBSCRIPT_LIST$ PTR;
      911    17708
      912    17709    2     DCL IDENT_ST$ PTR;
      913    17710    2     DCL DIMS$ PTR;
      914    17711    2     DCL NEW_SUB$ PTR;
      915    17712
      916    17713          %FISH (TRIAD = IDENT$ -> LX_ETT_ITEM.ETT$,
      917    17714                 RTN = IDENT_ST$);
      918    17722
      919    17723    2     IF IDENT_ST$ -> ST.ID ~= %ARRAY THEN
      920    17724            %CONDITIONAL_ERROR (@LX_ITEM$ = IDENT$,
      921    17725                                @ERROR# = %E$INVALID_SUBSCRIPT_CONTEXT,
      922    17726                                @LINE = IDENT$ -> LX_ETT_ITEM.LINE,
      923    17727                                @COLUMN = IDENT$ -> LX_ETT_ITEM.COLUMN);
      924    17757    2     ELSE
      925    17758    3       DO;
      926    17759              %GET_LTS (@ID = %DIMS,
      927    17760                        @ST$ = IDENT_ST$,
      928    17761                        @RETURN$ = DIMS$);
      929    17804
      930    17805    3         IF (DIMS$ -> DIMS.N - %MIN_DIM_SIZE) / %NO_WORDS_PER_DIM
      931    17806    3               < SUBSCRIPT_LIST$ -> LX_LIST.COUNT THEN
      932    17807                %CONDITIONAL_ERROR (@LX_ITEM$ = IDENT$,
      933    17808                                    @ERROR# = %E$INVALID_SUBSCRIPT_CONTEXT,
      934    17809                                    @LINE = IDENT$ -> LX_ETT_ITEM.LINE,
      935    17810                                    @COLUMN = IDENT$ -> LX_ETT_ITEM.COLUMN);
      936    17840    3         ELSE
      937    17841    4           DO;
      938    17842                  /* Set up subscripts for use by INITIALIZE_VAL */
      939    17843
      940    17844    4             CALL Z8EU$DUP_ABSSYN_TREE (SUBSCRIPT_LIST$,
      941    17845    4                                        NEW_SUB$);
      942    17846    4             NUM_SUBS_GIVEN = SUBSCRIPT_LIST$ -> LX_LIST.COUNT;
PL6.E3A0      #007=Z8EQ$INITIALIZE_STATE File=Z8EQ.:Z8A6TSI                      SAT 08/09/97 12:42 Page:154
      943    17847
      944    17848    4             ADDR(DIMS_INDEX_LIST) -> LX_LIST = NEW_SUB$ -> LX_LIST;
      945    17849
      946    17850                  %DISPOSE_HEAP (@POINTER = NEW_SUB$);
      947    17855    4           END;
      948    17856    3       END;
      949    17857    2   END VERIFY_SUBSCRIPTING;
      950    17858        %EJECT;
PL6.E3A0      #007=Z8EQ$INITIALIZE_STATE File=Z8EQ.:Z8A6TSI                      SAT 08/09/97 12:42 Page:155
      951    17859    1   INITIALIZE_VAR : PROC (INIT$,
      952    17860    1                          IDENT$,
      953    17861    1                          INIT_ST$,
      954    17862    1                          VAL$);
      955    17863
      956    17864    2     DCL INIT$ PTR;
      957    17865    2     DCL IDENT$ PTR;
      958    17866    2     DCL INIT_ST$ PTR;
      959    17867    2     DCL VAL$ PTR;
      960    17868
      961    17869
      962    17870
      963    17871    2     SWAP_DIMS : PROC;
      964    17872
      965    17873    3       DCL NEW_DIMS$ PTR;
      966    17874    3       DCL NEED_TO_BE_SWAPPED BOOLEAN;
      967    17875
      968    17876    3       CHECK_NEED_TO_BE_SWAPPED : PROC;
      969    17877
      970    17878    4         DCL I SBIN WORD;
      971    17879
      972    17880    4         NEED_TO_BE_SWAPPED = FALSE;
      973    17881
      974    17882    4         IF LAST_DIMS$ = ADDR(NIL) THEN
      975    17883    4           NEED_TO_BE_SWAPPED = TRUE;
      976    17884    4         ELSE
      977    17885    4           IF (LAST_DIMS$ -> DIMS.N - %MIN_DIM_SIZE)/%NO_WORDS_PER_DIM
      978    17886    4                 ~= (NEW_DIMS$ -> DIMS.N - %MIN_DIM_SIZE)/%NO_WORDS_PER_DIM THEN
      979    17887    4             NEED_TO_BE_SWAPPED = TRUE;
      980    17888    4           ELSE
      981    17889    5             DO I = 1 TO (LAST_DIMS$ -> DIMS.N - %MIN_DIM_SIZE)/%NO_WORDS_PER_DIM;
      982    17890
      983    17891    5               IF LAST_DIMS$ -> DIMS.D.DIM(I) ~= NEW_DIMS$ -> DIMS.D.DIM(I) THEN
      984    17892    5                 NEED_TO_BE_SWAPPED = TRUE;
      985    17893    5             END;
      986    17894
      987    17895    4       END CHECK_NEED_TO_BE_SWAPPED;
PL6.E3A0      #007=Z8EQ$INITIALIZE_STATE File=Z8EQ.:Z8A6TSI                      SAT 08/09/97 12:42 Page:156
      988    17896
      989    17897            %GET_LTS(@ID = %DIMS,
      990    17898                     @ST$ = INIT_ST$,
      991    17899                     @RETURN$ = NEW_DIMS$);
      992    17942
      993    17943    3       CALL CHECK_NEED_TO_BE_SWAPPED;
      994    17944
      995    17945    3       IF NEED_TO_BE_SWAPPED THEN
      996    17946    4         DO;
      997    17947    4           CALL ISSUE_PERFORMS;
      998    17948    4         END;
      999    17949
     1000    17950    3       LAST_DIMS$ = NEW_DIMS$;
     1001    17951
     1002    17952    3       CALL GET_INDICES ((LAST_DIMS$ -> DIMS.N - %MIN_DIM_SIZE) / %NO_WORDS_PER_DIM);
     1003    17953
     1004    17954    3     END SWAP_DIMS;
     1005    17955        %EJECT;
PL6.E3A0      #007=Z8EQ$INITIALIZE_STATE File=Z8EQ.:Z8A6TSI                      SAT 08/09/97 12:42 Page:157
     1006    17956        /* Main body of Initialize_var */
     1007    17957
     1008    17958
     1009    17959    2   INIT_COUNT = INIT_COUNT + 1;
     1010    17960
     1011    17961    2   IF INIT_ST$ -> ST.ID = %SCALAR THEN
     1012    17962    3     DO;
     1013    17963    3       IF LAST_DIMS$ ~= ADDR(NIL) THEN
     1014    17964    4         DO;
     1015    17965    4           CALL ISSUE_PERFORMS;
     1016    17966    4         END;
     1017    17967
     1018    17968    3       IF INIT$ -> LX_ETT_ITEM.TYPE = %TYP THEN
     1019    17969    3         CALL Z8E7$POINTER_MOVE (INIT$, ADDR(NIL));
     1020    17970    3       ELSE
     1021    17971    3         CALL Z8E7$MOVE (INIT$, VAL$);
     1022    17972    3     END;
     1023    17973    2   ELSE
     1024    17974    2     IF INIT_ST$ -> ST.ID = %ARRAY THEN
     1025    17975    3       DO;
     1026    17976    3         IF INIT_ST$ -> VARIABLE.B.OCCURS_DEPENDING THEN
     1027    17977                %CONDITIONAL_ERROR (@LX_ITEM$ = IDENT$,
     1028    17978                                    @ERROR# = %E$INITIALIZE_WITH_DEPENDING,
     1029    17979                                    @LINE = IDENT$ -> LX_ETT_ITEM.LINE,
     1030    17980                                    @COLUMN = IDENT$ -> LX_ETT_ITEM.COLUMN);
     1031    18010    3         ELSE
     1032    18011    4           DO;
     1033    18012    4             CALL SWAP_DIMS;
     1034    18013
     1035    18014    4             CALL Z8EY$SUBSCRIPT (ADDR(DIMS_INDEX_LIST),
     1036    18015    4                                  INIT$);
     1037    18016
     1038    18017    4             IF INIT$ -> LX_ETT_ITEM.TYPE = %TYP THEN
     1039    18018    4               CALL Z8E7$POINTER_MOVE (INIT$, ADDR(NIL));
     1040    18019    4             ELSE
     1041    18020    4               CALL Z8E7$MOVE (INIT$, VAL$);
     1042    18021    4           END;
PL6.E3A0      #007=Z8EQ$INITIALIZE_STATE File=Z8EQ.:Z8A6TSI                      SAT 08/09/97 12:42 Page:158
     1043    18022    3       END;
     1044    18023    2     ELSE
     1045    18024    2       CALL Z8AE$ERROR (%E$UNEXPECTED_CASE);
     1046    18025
     1047    18026    2   END INITIALIZE_VAR;
     1048    18027        %EJECT;
PL6.E3A0      #007=Z8EQ$INITIALIZE_STATE File=Z8EQ.:Z8A6TSI                      SAT 08/09/97 12:42 Page:159
     1049    18028        /*---------*/
     1050    18029    1     REPLACING :  PROC ( INIT_TYPE$, INIT_VALUE$ );
     1051    18030        /*---------*/
     1052    18031
     1053    18032    2   DCL INIT_TYPE$   PTR;
     1054    18033    2   DCL INIT_VALUE$  PTR;
     1055    18034
     1056    18035    2     IF IDENT$ -> LX_ETT_ITEM.B.REFMOD THEN
     1057    18036    3       DO;
     1058    18037    3         IF INIT_TYPE$ = ADDR(NIL)
     1059    18038    3              OR INIT_TYPE$ -> LX_TERMINAL.SYMBOL = %RSV_WRD_ALPHANUMERIC THEN
     1060    18039    4           DO;
     1061    18040    4             IF INIT_VALUE$ ~= ADDR(NIL) THEN
     1062    18041    4               CALL Z8E7$MOVE (IDENT$, INIT_VALUE$);
     1063    18042    4             ELSE
     1064    18043    5               DO;
     1065    18044    5                 LEX_SYMBOL.SIZE   = 6 ; /* Input arg to Z8AH */
     1066    18045    5                 LEX_SYMBOL.SYMBOL = 'SPACES' ;
     1067    18046    5                 CALL Z8AH$SEARCH_ ; /* Result is DNT$ */
     1068    18047                      %INIT_LX_TERMINAL (@POINTER = "ADDR(VALL)",
     1069    18048                                         @DNT$   = DNT$,
     1070    18049                                         @SYMBOL = %RSV_WRD_SPACES,
     1071    18050                                         @TYPE = %TYT,
     1072    18051                                         @LINE = "IDENT$ -> LX_ETT_ITEM.LINE",
     1073    18052                                         @COLUMN = "IDENT$ -> LX_ETT_ITEM.COLUMN");
     1074    18070    5                 CALL Z8E7$MOVE (IDENT$,
     1075    18071    5                                 ADDR(VALL));
     1076    18072
     1077    18073    5               END;
     1078    18074    4             INIT_COUNT = INIT_COUNT + 1;
     1079    18075    4           END;
     1080    18076    3       END;
     1081    18077    2     ELSE
     1082    18078
     1083    18079    3       DO WHILE INIT$ ~= ADDR(NIL);
     1084    18080
     1085    18081              %FISH (TRIAD = "INIT$ -> LX_ETT_ITEM.ETT$",
PL6.E3A0      #007=Z8EQ$INITIALIZE_STATE File=Z8EQ.:Z8A6TSI                      SAT 08/09/97 12:42 Page:160
     1086    18082                     RTN = INIT_ST$);
     1087    18090
     1088    18091    4         DO CASE (INIT_ST$ -> VARIABLE.B.CLASS);
     1089    18092
     1090    18093    4           CASE (%CLASS_POINTER );
     1091    18094
     1092    18095                  %SET_VALUE (@RSV_WRD_CLASS = %RSV_WRD_POINTER );
     1093    18107
     1094    18108    4           CASE (%CLASS_ALPHABETIC, %CLASS_ALPHABETIC_EDITED );
     1095    18109
     1096    18110                  %SET_VALUE (@RSV_WRD_CLASS = %RSV_WRD_ALPHABETIC );
     1097    18122
     1098    18123    4           CASE (%CLASS_ALPHANUMERIC);
     1099    18124
     1100    18125                  %SET_VALUE (@RSV_WRD_CLASS = %RSV_WRD_ALPHANUMERIC );
     1101    18137
     1102    18138    4           CASE (%CLASS_ALPHANUMERIC_EDITED);
     1103    18139
     1104    18140                  %SET_VALUE (@RSV_WRD_CLASS = %RSV_WRD_ALPHANUMERIC_EDITED );
     1105    18152
     1106    18153    4           CASE (%CLASS_NUMERIC);
     1107    18154
     1108    18155                  %SET_VALUE (@RSV_WRD_CLASS = %RSV_WRD_NUMERIC );
     1109    18167
     1110    18168    4           CASE (%CLASS_NUMERIC_EDITED);
     1111    18169
     1112    18170                  %SET_VALUE (@RSV_WRD_CLASS = %RSV_WRD_NUMERIC_EDITED );
     1113    18182    4         END;
     1114    18183
     1115    18184    3         INIT$ = INIT$ -> LX_ETT_ITEM.LINK;
     1116    18185    3       END;  /* do while */
     1117    18186
     1118    18187    2   END REPLACING;
     1119    18188        %EJECT;
PL6.E3A0      #007=Z8EQ$INITIALIZE_STATE File=Z8EQ.:Z8A6TSI                      SAT 08/09/97 12:42 Page:161
     1120    18189        /*---------------*/
     1121    18190    1     REPLACE_DEFAULT :  PROC;
     1122    18191        /*---------------*/
     1123    18192
     1124    18193
     1125    18194    2     CALL ISSUE_PERFORMS;
     1126    18195    2     SUBSCR$ = ADDR (NIL);
     1127    18196    2     OFF = 0;
     1128    18197
     1129    18198    2     IF IDENT_ST$ -> VARIABLE.ID = %ARRAY THEN
     1130    18199    3       DO;
     1131    18200              %GET_LTS (@ID = %DIMS, @ST$ = IDENT_ST$, @RETURN$ = LAST_DIMS$);
     1132    18243    3         CALL GET_INDICES ((LAST_DIMS$ -> DIMS.N - %MIN_DIM_SIZE) / %NO_WORDS_PER_DIM);
     1133    18244    3         CALL Z8EY$SUBSCRIPT (ADDR (DIMS_INDEX_LIST), IDENT$);
     1134    18245    3         IF IDENT$ -> LX_ETT_ITEM.ETT$ -> ETT.ID = %SIZ OR
     1135    18246    3             IDENT$ -> LX_ETT_ITEM.ETT$ -> ETT.ID = %DAN /* GBCD numeric */ THEN
     1136    18247    3           IDENT$ -> LX_ETT_ITEM.ETT$ = IDENT$ -> LX_ETT_ITEM.ETT$ -> ETT.LOP;
     1137    18248    3         IF IDENT$ -> LX_ETT_ITEM.ETT$ -> ETT.ID = %SSOP THEN
     1138    18249    4           DO;
     1139    18250    4             SUBSCR$ = IDENT$ -> LX_ETT_ITEM.ETT$ -> ETT.ROP;
     1140    18251    4             IF IDENT$ -> LX_ETT_ITEM.ETT$ -> ETT.LOP -> ETT.ID = %OFF
     1141    18252    4               THEN OFF = IDENT$ -> LX_ETT_ITEM.ETT$ -> ETT.LOP -> ETT.OFFSET.VALUE;
     1142    18253    4           END;
     1143    18254    3         ELSE IF IDENT$ -> LX_ETT_ITEM.ETT$ -> ETT.ID = %OFF
     1144    18255    3           THEN OFF = IDENT$ -> LX_ETT_ITEM.ETT$ -> ETT.OFFSET.VALUE;
     1145    18256    3       END; /* ARRAY */
     1146    18257    2     ELSE IF IDENT_ST$ -> VARIABLE.ID ~= %SCALAR THEN
     1147    18258    2       RETURN; /* Nothing to initialize */
     1148    18259    2     IF NUM_SUBS_GIVEN = 0 THEN
     1149    18260    3       DO;
     1150    18261              %GET_LTS (@ID = %INIT_LTS, @ST$ = IDENT_ST$, @RETURN$ = INIT_LTS$);
     1151    18304    3         IF INIT_LTS$ = ADDR (NIL) THEN
     1152    18305    4           DO;
     1153    18306    4             CALL Z8EU$MAKE_INIT_LTS (IDENT_ST$, SUBSCR$, OFF, INIT_LTS$);
     1154    18307    4             CALL Z8DO$LINK_WITH_LTS (IDENT_ST$ -> VARIABLE.LTS$, INIT_LTS$);
     1155    18308    4           END;
     1156    18309    3       END;
PL6.E3A0      #007=Z8EQ$INITIALIZE_STATE File=Z8EQ.:Z8A6TSI                      SAT 08/09/97 12:42 Page:162
     1157    18310    2     ELSE
     1158    18311    2       CALL Z8EU$MAKE_INIT_LTS (IDENT_ST$, SUBSCR$, OFF, INIT_LTS$);
     1159    18312    2     IF INIT_LTS$ -> INIT_LTS.BASE$ ~= ADDR (NIL) THEN
     1160    18313    3       DO;
     1161    18314    3         CALL Z8EQ$OPTIMIZED_INITIAL (INIT_LTS$);
     1162    18315    3         INIT_COUNT = 1;
     1163    18316    3       END;
     1164    18317
     1165    18318    2   END REPLACE_DEFAULT;
     1166    18319        %EJECT;
PL6.E3A0      #007=Z8EQ$INITIALIZE_STATE File=Z8EQ.:Z8A6TSI                      SAT 08/09/97 12:42 Page:163
     1167    18320                /* Main body of Initialize_statement */
     1168    18321
     1169    18322        %SET_PHASE_1_POSITION( @LINE = KEY_WORD$ -> LX_TERMINAL.LINE,
     1170    18323                               @COLUMN = KEY_WORD$ -> LX_TERMINAL.COLUMN,
     1171    18324                               @TYPE = %S_TYPE_INITIALIZE );
     1172    18713    1   IF COMCOM.OB.FIPS.LEVEL >= %INT_LEV THEN
     1173    18714    1     CALL Z8AE$ERROR (%E$LEVEL_CHECK,
     1174    18715    1                      O1COM.LINE_NO,
     1175    18716    1                      O1COM.COLUMN_NO);
     1176    18717
     1177    18718        %INIT_ILS_LIST (@POINTER = "ADDR(SAVED_ILS_LIST)");
     1178    18726        %INIT_LX_LIST (@POINTER = "ADDR(DIMS_INDEX_LIST)");
     1179    18736
     1180    18737    1   LAST_DIMS$ = ADDR(NIL);
     1181    18738
     1182    18739    1   QUAL_ID$ = QUAL_ID_LIST$ -> LX_LIST.HEAD$;
     1183    18740
     1184    18741    2   DO WHILE QUAL_ID$ ~= ADDR(NIL);
     1185    18742
     1186    18743    2     NUM_SUBS_GIVEN = 0;
     1187    18744    2     SUBSCRIPTS$ = ADDR(NIL);
     1188    18745
     1189    18746    2     IF QUAL_ID$ -> LX_ITEM.ID = %LX_ETT_ITEM THEN
     1190    18747    2       IDENT$ = QUAL_ID$;
     1191    18748    2     ELSE
     1192    18749    3       DO;
     1193    18750    3         IDENT$ = QUAL_ID$ -> LX_LIST.HEAD$;
     1194    18751    3         SUBSCRIPTS$ = QUAL_ID$ -> LX_LIST.TAIL$;
     1195    18752    3         CALL VERIFY_SUBSCRIPTING (IDENT$, SUBSCRIPTS$);
     1196    18753    3       END;
     1197    18754
     1198    18755          %FISH( TRIAD = IDENT$ -> LX_ETT_ITEM.ETT$,
     1199    18756                 RTN = IDENT_ST$ );
     1200    18764    2     INIT_COUNT = 0;
     1201    18765    2     IF REPLACING_LIST$ = ADDR(NIL) AND NOT IDENT$ -> LX_ETT_ITEM.B.REFMOD THEN
     1202    18766    2       CALL REPLACE_DEFAULT;
     1203    18767    2     ELSE
PL6.E3A0      #007=Z8EQ$INITIALIZE_STATE File=Z8EQ.:Z8A6TSI                      SAT 08/09/97 12:42 Page:164
     1204    18768    3       DO;
     1205    18769              %INIT_LX_LIST (@POINTER = "ADDR(INIT_LIST)");
     1206    18779
     1207    18780    3         CALL Z8EU$GET_INITIALIZE_ITEMS( IDENT_ST$,
     1208    18781    3                                         ADDR(INIT_LIST) );
     1209    18782    3         INIT$ = ADDR(INIT_LIST) -> LX_LIST.HEAD$;
     1210    18783
     1211    18784    3         IF REPLACING_LIST$ = ADDR(NIL)   THEN
     1212    18785    3           CALL REPLACING( ADDR(NIL), ADDR(NIL) );
     1213    18786    3         ELSE
     1214    18787    4           DO;
     1215    18788    4             REPLACING$ = REPLACING_LIST$ -> LX_LIST.HEAD$;
     1216    18789
     1217    18790    5             DO WHILE (REPLACING$ ~= ADDR(NIL) );
     1218    18791    5               INIT$ = ADDR(INIT_LIST) ->LX_LIST.HEAD$;
     1219    18792    5               CALL REPLACING( REPLACING$ -> LX_LIST.HEAD$,
     1220    18793    5                               REPLACING$ -> LX_LIST.TAIL$ );
     1221    18794    5               REPLACING$ = REPLACING$ -> LX_LIST.LINK;
     1222    18795    5             END;
     1223    18796
     1224    18797    4           END;
     1225    18798
     1226    18799    3         CALL Z8ED$DISPOSE_ABSSYN_TREE( ADDR(INIT_LIST) -> LX_LIST.HEAD$ );
     1227    18800    3       END;
     1228    18801
     1229    18802    2     IF INIT_COUNT = 0 THEN
     1230    18803            %CONDITIONAL_ERROR (@LX_ITEM$ = IDENT$,
     1231    18804                                @ERROR# = %E$NO_INITIALIZE_VALUES,
     1232    18805                                @LINE = IDENT$ -> LX_ETT_ITEM.LINE,
     1233    18806                                @COLUMN = IDENT$ -> LX_ETT_ITEM.COLUMN);
     1234    18836
     1235    18837    2     IF LAST_DIMS$ ~= ADDR(NIL) THEN
     1236    18838    2       CALL ISSUE_PERFORMS;
     1237    18839
     1238    18840    2     CALL GET_INDICES (0);
     1239    18841
     1240    18842    2     QUAL_ID$ = QUAL_ID$ -> LX_LIST.LINK;
PL6.E3A0      #007=Z8EQ$INITIALIZE_STATE File=Z8EQ.:Z8A6TSI                      SAT 08/09/97 12:42 Page:165
     1241    18843
     1242    18844    2   END;  /* DO while QUAL_ID$ */
     1243    18845
     1244    18846    1   IF REPLACING_LIST$ ~= ADDR(NIL)  THEN
     1245    18847    1     CALL Z8ED$DISPOSE_ABSSYN_TREE( REPLACING_LIST$ -> LX_LIST.HEAD$ );
     1246    18848
     1247    18849    1   CALL Z8ED$DISPOSE_ABSSYN_TREE (QUAL_ID_LIST$ -> LX_LIST.HEAD$);
     1248    18850
     1249    18851        %APPEND_ILS_LIST (@FROM$ = "ADDR(O1COM.ILS_LIST)",
     1250    18852                          @TO$ = "ADDR(SAVED_ILS_LIST)");
     1251    18869    1   O1COM.ILS_LIST = SAVED_ILS_LIST;
     1252    18870    1   END Z8EQ$INITIALIZE_STATE;
     1253    18871        %EOD;

PL6.E3A0      #007=Z8EQ$INITIALIZE_STATE File=Z8EQ.:Z8A6TSI                      SAT 08/09/97 12:42 Page:166
--  Include file information  --

   Z8E_STATEMNT.:Z8A6TOU  is referenced.
   Z8A_LTS.:Z8A6TOU  cannot be made into a system file and is referenced.
   Z8E_ABSSYN.:Z8A6TOU  cannot be made into a system file and is referenced.
   Z8E_HEAP.:Z8A6TOU  cannot be made into a system file and is referenced.
   Z8A_ILS.:Z8A6TOU  cannot be made into a system file and is referenced.
   Z8A_ILL.:Z8A6TOU  cannot be made into a system file and is referenced.
   Z8A_ETT.:Z8A6TOU  cannot be made into a system file and is referenced.
   Z8A_QLT.:Z8A6TOU  cannot be made into a system file and is referenced.
   Z8A_TYPES.:Z8A6TOU  is referenced.
   Z8A_ST.:Z8A6TOU  cannot be made into a system file and is referenced.
   Z8A_DNT.:Z8A6TOU  cannot be made into a system file and is referenced.
   Z8A_ERR_NUMS.:Z8A6TOU  is referenced.
   Z8E_ILS_LIST.:Z8A6TOU  is referenced.
   Z8E_NEW_ILL.:Z8A6TOU  is referenced.
   Z8E_MACROS.:Z8A6TOU  cannot be made into a system file and is referenced.
   Z8E_O1COM.:Z8A6TOU  cannot be made into a system file and is referenced.
   Z8A_LEX_SYMB.:Z8A6TOU  cannot be made into a system file and is referenced.
   Z8E_STACKS.:Z8A6TOU  cannot be made into a system file and is referenced.
   Z8E_WINDOW.:Z8A6TOU  is referenced.
   Z8A_COMCOM.:Z8A6TOU  cannot be made into a system file and is referenced.
   X8A_COM_MACS.:X8A6TOU  is referenced.
   Z8A_NAMES.:Z8A6TOU  is referenced.
   Z8A_SUPP_MAC.:Z8A6TOU  is referenced.
   Z8A_DEFC.:Z8A6TOU  cannot be made into a system file and is referenced.
      No diagnostics issued in procedure Z8EQ$INITIALIZE_STATE.

   Procedure Z8EQ$INITIALIZE_STATE requires 1095 words for executable code.
   Procedure Z8EQ$INITIALIZE_STATE requires 110 words of local(AUTO) storage.

PL6.E3A0      #007=Z8EQ$INITIALIZE_STATE File=Z8EQ.:Z8A6TSI                      SAT 08/09/97 12:42 Page:167

 Object Unit name= Z8EQ$INITIALIZE_STATE                      File name= Z8EQ.:Z8A6TOU
 UTS= AUG 09 '97 12:42:15.24 SAT                              Compiler= PL-6/E31         Sev=      00
 SharedLib= :SHARED_SYSTEM                                    Alt SharedLib=


    ****  Control sections  ****

 Sect   Type Bound  Init  Size OctSiz  Section name(segment info)
    0  LblCom even  none     1      1  ITERATION
    1  LblCom even  none    90    132  LEX_SYMBOL
    2  LblCom even  none     1      1  CURRENT_LEX_SYMBOL$
    3  LblCom even  none    90    132  TEMP_LEX_SYMBOL
    4  LblCom even  none    90    132  TEMP_LEX_SYMBOL2
    5  LblCom even  none     1      1  DNT$
    6  LblCom even  none     5      5  DNT_
    7  LblCom even  none     1      1  DNT_BUCKET_NUMBER
    8  LblCom even  none     1      1  DNT_OF_1$
    9  LblCom even  none     1      1  ST$
   10  LblCom even  none     5      5  ST_
   11  LblCom even  none     1      1  QLT$
   12  LblCom even  none     1      1  PREV_01_QLT$
   13  LblCom even  none     5      5  QLT_
   14  LblCom even  none     1      1  ETT$
   15  LblCom even  none     1      1  HEAD_ETT$
   16  LblCom even  none   512   1000  ETT_BUCKETS
   17  LblCom even  none     5      5  ETT_
   18  LblCom even  none     1      1  ILL$
   19  LblCom even  none     5      5  ILL_
   20  LblCom even  none     1      1  ILS$
   21  LblCom even  none     5      5  ILS_
   22  LblCom even  none     1      1  HEAP$
   23  LblCom even  none     8     10  TEMP_LX_NODE
   24  LblCom even  none     1      1  LTS$
   25  LblCom even  none     5      5  LTS_
   26  RoData even  UTS      2      2  Z8EQ$INITIALIZE_STATE
   27   Proc  even  none  1095   2107  Z8EQ$INITIALIZE_STATE
   28  RoData even  none    28     34  Z8EQ$INITIALIZE_STATE
PL6.E3A0      #007=Z8EQ$INITIALIZE_STATE File=Z8EQ.:Z8A6TSI                      SAT 08/09/97 12:42 Page:168

    ****  Entry defs  ****

                              Check   Calling
                             calling  sequence
  Sect OctLoc Primary Altret sequence   type   Parms  Name
    27      0   yes            yes      Std        3  Z8EQ$INITIALIZE_STATE

  ****  Entry refs  ****

         Check        Calling
        calling       sequence
Altret sequence SRef   type   Args  Name
         yes           Std       4 Z8AN$NEW_ILL
         yes           Std      12 Z8AE$ERROR
         yes           Std       2 Z8EU$GET_INITIALIZE_ITEMS
         yes           Std       1 Z8ED$DISPOSE_ABSSYN_TREE
         yes           Std       2 Z8ED$NEW_HEAP
         yes           Std       2 Z8EU$NEW_TEMP_FROM_DESC
         yes           Std       2 Z8EU$DELETE_LIST_ITEM
         yes           Std       2 Z8AC$LX_ETT_ITEM_TYI_CONST
         yes           Std       4 Z8EQ$MERGE_ITERATED_DO_UNTIL
         yes           Std       2 Z8EU$DUP_ABSSYN_TREE
         yes           Std       2 Z8ED$DISPOSE_HEAP
         yes           Std       2 Z8E7$POINTER_MOVE
         yes           Std       2 Z8E7$MOVE
         yes           Std       2 Z8EY$SUBSCRIPT
         yes           Std       0 Z8AH$SEARCH_
         yes           Std       1 Z8EQ$OPTIMIZED_INITIAL
         yes           Std       4 Z8EU$MAKE_INIT_LTS
         yes           Std       2 Z8DO$LINK_WITH_LTS
                       nStd      0 X66_AUTO_3
                       nStd      0 X66_ARET
PL6.E3A0      #007=Z8EQ$INITIALIZE_STATE File=Z8EQ.:Z8A6TSI                      SAT 08/09/97 12:42 Page:169

  ****  Data refs  ****

  Flags:  r = read only, s = secondary
Flgs Name                             Flgs Name                             Flgs Name
     COMCOM                                O1COM                                 HIER_STK_PTR
     HIER_STK                              PAGE_FORMAT                           REP_STK_PTR
     REP_STK                          r    ILL_STEP                         r    ILS_STEP_TABLE
r    LTS_STEP                         r    DNT$_FROM_RSWNO

  ****  Segment refs  ****

  Flags:  r = read only, s = secondary
Flgs Name                             Flgs Name                             Flgs Name
     ISSID                                 NULLSID
PL6.E3A0      #007=Z8EQ$INITIALIZE_STATE File=Z8EQ.:Z8A6TSI                      SAT 08/09/97 12:42 Page:170


      718        1        /*T***********************************************************/
      719        2        /*T*                                                         */
      720        3        /*T* Copyright (c) Bull HN Information Systems Inc., 1997    */
      721        4        /*T*                                                         */
      722        5        /*T***********************************************************/
      723        6        /*--------------------*/
      724        7          Z8EQ$INITIALIZE_STATE : PROC (KEY_WORD$,

      7 27 000000   000000 700200 xent  Z8EQ$INITIA* TSX0  ! X66_AUTO_3
        27 000001   000156 000003                    ZERO    110,3
        27 000002   001547 710000 27                 TRA     s:18326

      725        8        /*--------------------*/       QUAL_ID_LIST$,
      726        9                                       REPLACING_LIST$ );
      727       10
      728       11
      729       12        /*I*
      730       13                 NAME: Z8EQ$INITIALIZE_STATE
      731       14
      732       15          DESCRIPTION: Each identifier in the INITIALIZE statement is inspected
      733       16                       using Z8EU$GET_INITIALIZE_ITEMS.  A list of elementary
      734       17                       items under a group item is returned.  For each elementary
      735       18                       item, its "class" is compared against the type requested.
      736       19                       If equal,  Z8E7$MOVE is called to initialize the value.
      737       20
      738       21                       Loops are generated for array initialization.  Both
      739       22                       subscripting and reference modification may be specified
      740       23                       on the identifier to be initialized.
      741       24        */
      742       25
      743       26        %SET PHASE = 1;
      744       27
      745       28        %INCLUDE Z8A_DEFC;
      746       96        %INCLUDE Z8A_SUPP_MAC;
      747     2496        %INCLUDE Z8A_COMCOM;
      748     3146        %INCLUDE Z8E_WINDOW;
PL6.E3A0      #007=Z8EQ$INITIALIZE_STATE File=Z8EQ.:Z8A6TSI                      SAT 08/09/97 12:42 Page:171
      749     5216        %INCLUDE Z8E_STACKS;
      750     7482        %INCLUDE Z8E_O1COM;
      751     8243        %INCLUDE Z8E_MACROS;
      752     8918        %INCLUDE Z8E_ILS_LIST;
      753     9002        %INCLUDE Z8A_ERR_NUMS;
      754     9766        %INCLUDE Z8A_DNT;
      755     9987        %INCLUDE Z8A_ST;
      756    13646        %INCLUDE Z8A_TYPES;
      757    13820        %INCLUDE Z8A_QLT;
      758    13926        %INCLUDE Z8A_ETT;
      759    14227        %INCLUDE Z8A_ILL;
      760    14920        %INCLUDE Z8A_ILS;
      761    15029        %INCLUDE Z8E_HEAP;
      762    15085        %INCLUDE Z8E_ABSSYN;
      763    15291        %INCLUDE Z8A_LTS;
      764    17368        %INCLUDE Z8E_STATEMNT;
      765    17437
      766    17438    1   DCL DNT$_FROM_RSWNO( 0:0 )    PTR SYMREF READONLY;
      767    17439
      768    17440    1   DCL Z8EU$NEW_TEMP_FROM_DESC          ENTRY(2);
      769    17441    1   DCL Z8EU$DELETE_LIST_ITEM            ENTRY(2);
      770    17442    1   DCL Z8AC$LX_ETT_ITEM_TYI_CONST       ENTRY(2);
      771    17443    1   DCL Z8EU$MAKE_INIT_LTS               ENTRY(4);
      772    17444    1   DCL Z8EQ$OPTIMIZED_INITIAL           ENTRY(1);
      773    17445    1   DCL Z8EQ$MERGE_ITERATED_DO_UNTIL     ENTRY(4);
      774    17446    1   DCL Z8DO$LINK_WITH_LTS               ENTRY(2);
      775    17447    1   DCL Z8AE$ERROR                       ENTRY(12);
      776    17448    1   DCL Z8EU$DUP_ABSSYN_TREE             ENTRY(2);
      777    17449    1   DCL Z8E7$MOVE                        ENTRY(2);
      778    17450    1   DCL Z8E7$POINTER_MOVE                ENTRY(2);
      779    17451    1   DCL Z8EY$SUBSCRIPT                   ENTRY(2);
      780    17452    1   DCL Z8AH$SEARCH_                     ENTRY;
      781    17453    1   DCL Z8EU$GET_INITIALIZE_ITEMS        ENTRY(2);
      782    17454    1   DCL Z8ED$DISPOSE_ABSSYN_TREE         ENTRY(1);
      783    17455
      784    17456
      785    17457    1     DCL KEY_WORD$ PTR;
PL6.E3A0      #007=Z8EQ$INITIALIZE_STATE File=Z8EQ.:Z8A6TSI                      SAT 08/09/97 12:42 Page:172
      786    17458    1     DCL QUAL_ID_LIST$ PTR;
      787    17459    1     DCL REPLACING_LIST$ PTR;
      788    17460
      789    17461          %DCL_AUTO_LX_ITEM (@NAME = INIT_LIST);
      790    17465          %DCL_AUTO_LX_ITEM (@NAME = VALL);
      791    17469          %DCL_AUTO_LX_ITEM(@NAME = LOOP_END);
      792    17473          %DCL_AUTO_LX_ITEM(@NAME = END_VALUE);
      793    17477          %DCL_AUTO_LX_ITEM(@NAME = VALUE_ONE);
      794    17481          %DCL_AUTO_LX_ITEM(@NAME = SAVED_ILS_LIST);
      795    17485          %DCL_AUTO_LX_ITEM(@NAME = DIMS_INDEX_LIST);
      796    17489
      797    17490    1     DCL REPLACING$  PTR;
      798    17491    1     DCL INIT$ PTR;
      799    17492    1     DCL IDENT_ST$ PTR;
      800    17493    1     DCL IDENT$ PTR;
      801    17494    1     DCL SUBSCRIPTS$ PTR;
      802    17495    1     DCL NUM_SUBS_GIVEN SBIN;
      803    17496    1     DCL QUAL_ID$ PTR;
      804    17497    1     DCL INIT_COUNT SBIN WORD;
      805    17498    1     DCL INIT_ST$ PTR;
      806    17499    1     DCL LAST_DIMS$ PTR;
      807    17500    1     DCL INIT_LTS$ PTR;
      808    17501    1     DCL OFF SBIN;
      809    17502    1     DCL SUBSCR$ PTR;
      810    17503        %EJECT;
PL6.E3A0      #007=Z8EQ$INITIALIZE_STATE File=Z8EQ.:Z8A6TSI                      SAT 08/09/97 12:42 Page:173
      811    17504        %MACRO SET_VALUE (@RSV_WRD_CLASS = );
      812    17505          DO;
      813    17506
      814    17507            IF INIT_TYPE$ ~= ADDR(NIL)
      815    17508               AND INIT_TYPE$ -> LX_TERMINAL.SYMBOL = @RSV_WRD_CLASS THEN
      816    17509              DO;
      817    17510                CALL INITIALIZE_VAR (INIT$,
      818    17511                                     IDENT$,
      819    17512                                     INIT_ST$,
      820    17513                                     INIT_VALUE$);
      821    17514              END;
      822    17515          END;
      823    17516        %MEND;
      824    17517        %EJECT;
PL6.E3A0      #007=Z8EQ$INITIALIZE_STATE File=Z8EQ.:Z8A6TSI                      SAT 08/09/97 12:42 Page:174
      825    17518    1   GET_INDICES : PROC (NUM_INDICES);

  17518 27 000003   200132 741300       GET_INDICES  STX1  ! NEED_TO_BE_SWAPPED+2,,AUTO

      826    17519
      827    17520    2     DCL NUM_INDICES SBIN WORD;
      828    17521
      829    17522    2     DCL I SBIN WORD;
      830    17523    2     DCL T$ PTR;
      831    17524
      832    17525    2     DCL 1 TYPE_DESC ALIGNED,
      833    17526                %TYPE_DESC;
      834    17560
      835    17561    3   DO WHILE ADDR(DIMS_INDEX_LIST) -> LX_LIST.COUNT < NUM_INDICES;

  17561 27 000004   200133 470500                    LDP0    @NUM_INDICES,,AUTO
        27 000005   200070 236100                    LDQ     DIMS_INDEX_LIST+2,,AUTO
        27 000006   000000 116100                    CMPQ    0,,PR0
        27 000007   000062 605000 27                 TPL     s:17607

      836    17562
      837    17563          %NEW (@TEMPLATE = LX_ETT_ITEM,
      838    17564                @POINTER = T$);

  17570 27 000010   000003 236000 28                 LDQ     3
        27 000011   200143 756100                    STQ     TYPE_DESC+5,,AUTO
        27 000012   200135 630500                    EPPR0   T$,,AUTO
        27 000013   200142 450500                    STP0    TYPE_DESC+4,,AUTO
        27 000014   200142 630500                    EPPR0   TYPE_DESC+4,,AUTO
        27 000015   000001 631400 28                 EPPR1   1
        27 000016   000000 701000 xent               TSX1    Z8ED$NEW_HEAP
        27 000017   000000 011000                    NOP     0

      839    17574
      840    17575    3     TYPE_DESC.TYPE = %TYI;

  17575 27 000020   000001 235007                    LDA     1,DL
PL6.E3A0      #007=Z8EQ$INITIALIZE_STATE File=Z8EQ.:Z8A6TSI                      SAT 08/09/97 12:42 Page:175
        27 000021   200136 755100                    STA     TYPE_DESC,,AUTO

      841    17576    3     TYPE_DESC.SIZ$ = ADDR(NIL);

  17576 27 000022   000000 236000 28                 LDQ     0
        27 000023   200140 756100                    STQ     TYPE_DESC+2,,AUTO

      842    17577          %BUILD_BINARY_DESC (@DESC = TYPE_DESC.DESC,
      843    17578                              @LENGTH = %TYI_LENGTH);

  17582 27 000024   200137 450100                    STZ     TYPE_DESC+1,,AUTO

  17583 27 000025   000004 236007                    LDQ     4,DL
        27 000026   200137 752101                    STCQ    TYPE_DESC+1,'01'O,AUTO

      844    17586    3     CALL Z8EU$NEW_TEMP_FROM_DESC (TYPE_DESC,

  17586 27 000027   200135 630500                    EPPR0   T$,,AUTO
        27 000030   200143 450500                    STP0    TYPE_DESC+5,,AUTO
        27 000031   200136 631500                    EPPR1   TYPE_DESC,,AUTO
        27 000032   200142 451500                    STP1    TYPE_DESC+4,,AUTO
        27 000033   200142 630500                    EPPR0   TYPE_DESC+4,,AUTO
        27 000034   000001 631400 28                 EPPR1   1
        27 000035   000000 701000 xent               TSX1    Z8EU$NEW_TEMP_FROM_DESC
        27 000036   000000 011000                    NOP     0

      845    17587    3                                   T$);
      846    17588          %ADD_LX_ITEM_TO_LIST_TAIL (@FROM$ = T$,
      847    17589                      @LIST$ = "ADDR(DIMS_INDEX_LIST)");

  17591 27 000037   000000 236000 28                 LDQ     0
        27 000040   200135 470500                    LDP0    T$,,AUTO
        27 000041   000007 756100                    STQ     7,,PR0

  17592 27 000042   200070 235100                    LDA     DIMS_INDEX_LIST+2,,AUTO
        27 000043   000050 601000 27                 TNZ     s:17599

PL6.E3A0      #007=Z8EQ$INITIALIZE_STATE File=Z8EQ.:Z8A6TSI                      SAT 08/09/97 12:42 Page:176
  17594 27 000044   200135 236100                    LDQ     T$,,AUTO
        27 000045   200072 756100                    STQ     DIMS_INDEX_LIST+4,,AUTO

  17595 27 000046   200067 756100                    STQ     DIMS_INDEX_LIST+1,,AUTO

  17596 27 000047   000055 710000 27                 TRA     s:17602

  17599 27 000050   200135 236100                    LDQ     T$,,AUTO
        27 000051   200067 470500                    LDP0    DIMS_INDEX_LIST+1,,AUTO
        27 000052   000007 756100                    STQ     7,,PR0

  17600 27 000053   200135 236100                    LDQ     T$,,AUTO
        27 000054   200067 756100                    STQ     DIMS_INDEX_LIST+1,,AUTO

  17602 27 000055   200070 054100                    AOS     DIMS_INDEX_LIST+2,,AUTO

      848    17605    3   END;

  17605 27 000056   200133 470500                    LDP0    @NUM_INDICES,,AUTO
        27 000057   200070 236100                    LDQ     DIMS_INDEX_LIST+2,,AUTO
        27 000060   000000 116100                    CMPQ    0,,PR0
        27 000061   000010 604000 27                 TMI     s:17570

      849    17606
      850    17607    3   DO WHILE ADDR(DIMS_INDEX_LIST) -> LX_LIST.COUNT > NUM_INDICES;

  17607 27 000062   000111 604400 27                 TMOZ    s:17619

      851    17608
      852    17609
      853    17610    3     T$ = ADDR(DIMS_INDEX_LIST) -> LX_LIST.TAIL$;

  17610 27 000063   200067 236100                    LDQ     DIMS_INDEX_LIST+1,,AUTO
        27 000064   200135 756100                    STQ     T$,,AUTO

      854    17611
      855    17612    3     CALL Z8EU$DELETE_LIST_ITEM (ADDR(DIMS_INDEX_LIST),
PL6.E3A0      #007=Z8EQ$INITIALIZE_STATE File=Z8EQ.:Z8A6TSI                      SAT 08/09/97 12:42 Page:177

  17612 27 000065   200066 630500                    EPPR0   DIMS_INDEX_LIST,,AUTO
        27 000066   200142 450500                    STP0    TYPE_DESC+4,,AUTO
        27 000067   200135 631500                    EPPR1   T$,,AUTO
        27 000070   200145 451500                    STP1    TYPE_DESC+7,,AUTO
        27 000071   200142 633500                    EPPR3   TYPE_DESC+4,,AUTO
        27 000072   200144 453500                    STP3    TYPE_DESC+6,,AUTO
        27 000073   200144 630500                    EPPR0   TYPE_DESC+6,,AUTO
        27 000074   000001 631400 28                 EPPR1   1
        27 000075   000000 701000 xent               TSX1    Z8EU$DELETE_LIST_ITEM
        27 000076   000000 011000                    NOP     0

      856    17613    3                                 T$);
      857    17614
      858    17615    3     CALL Z8ED$DISPOSE_ABSSYN_TREE (T$);

  17615 27 000077   200135 630500                    EPPR0   T$,,AUTO
        27 000100   200142 450500                    STP0    TYPE_DESC+4,,AUTO
        27 000101   200142 630500                    EPPR0   TYPE_DESC+4,,AUTO
        27 000102   000004 631400 28                 EPPR1   4
        27 000103   000000 701000 xent               TSX1    Z8ED$DISPOSE_ABSSYN_TREE
        27 000104   000000 011000                    NOP     0

      859    17616
      860    17617    3   END;

  17617 27 000105   200133 470500                    LDP0    @NUM_INDICES,,AUTO
        27 000106   200070 236100                    LDQ     DIMS_INDEX_LIST+2,,AUTO
        27 000107   000000 116100                    CMPQ    0,,PR0
        27 000110   000063 605400 27                 TPNZ    s:17610

      861    17618
      862    17619    2   END GET_INDICES;

  17619 27 000111   200132 221300                    LDX1  ! NEED_TO_BE_SWAPPED+2,,AUTO
        27 000112   000001 702211                    TSX2  ! 1,X1

PL6.E3A0      #007=Z8EQ$INITIALIZE_STATE File=Z8EQ.:Z8A6TSI                      SAT 08/09/97 12:42 Page:178
      863    17620        %EJECT;
PL6.E3A0      #007=Z8EQ$INITIALIZE_STATE File=Z8EQ.:Z8A6TSI                      SAT 08/09/97 12:42 Page:179
      864    17621    1     ISSUE_PERFORMS : PROC;

  17621 27 000113   200132 741300       ISSUE_PERFO* STX1  ! NEED_TO_BE_SWAPPED+2,,AUTO

      865    17622
      866    17623    2       DCL I SBIN WORD;
      867    17624    2       DCL J SBIN WORD;
      868    17625    2       DCL DIMS_INDEX$ PTR;
      869    17626
      870    17627    2     IF LAST_DIMS$ ~= ADDR(NIL) THEN

  17627 27 000114   200107 236100                    LDQ     LAST_DIMS$,,AUTO
        27 000115   000000 116000 28                 CMPQ    0
        27 000116   000241 600000 27                 TZE     s:17671

      871    17628    2       DO I = (LAST_DIMS$ -> DIMS.N - %MIN_DIM_SIZE) / %NO_WORDS_PER_DIM
      872    17629    3                    DOWNTO NUM_SUBS_GIVEN + 1;

  17629 27 000117   200107 470500                    LDP0    LAST_DIMS$,,AUTO
        27 000120   000000 236100                    LDQ     0,,PR0
        27 000121   777777 376007                    ANQ     -1,DL
        27 000122   000005 136007                    SBLQ    5,DL
        27 000123   000003 506007                    DIV     3,DL
        27 000124   200133 756100                    STQ     I,,AUTO
        27 000125   000236 710000 27                 TRA     s:17669+2

      873    17630
      874    17631    3         DIMS_INDEX$ = ADDR(DIMS_INDEX_LIST) -> LX_LIST.HEAD$;

  17631 27 000126   200072 236100                    LDQ     DIMS_INDEX_LIST+4,,AUTO
        27 000127   200135 756100                    STQ     DIMS_INDEX$,,AUTO

      875    17632
      876    17633    4         DO J = I-1 DOWNTO 1;

  17633 27 000130   200133 235100                    LDA     I,,AUTO
        27 000131   000001 135007                    SBLA    1,DL
PL6.E3A0      #007=Z8EQ$INITIALIZE_STATE File=Z8EQ.:Z8A6TSI                      SAT 08/09/97 12:42 Page:180
        27 000132   200134 755100                    STA     J,,AUTO
        27 000133   000141 710000 27                 TRA     s:17635+2

      877    17634    4           DIMS_INDEX$ = DIMS_INDEX$ -> LX_ETT_ITEM.LINK;

  17634 27 000134   200135 470500                    LDP0    DIMS_INDEX$,,AUTO
        27 000135   000007 236100                    LDQ     7,,PR0
        27 000136   200135 756100                    STQ     DIMS_INDEX$,,AUTO

      878    17635    4         END;

  17635 27 000137   000001 336007                    LCQ     1,DL
        27 000140   200134 056100                    ASQ     J,,AUTO
        27 000141   200134 235100                    LDA     J,,AUTO
        27 000142   000134 605400 27                 TPNZ    s:17634

      879    17636
      880    17637    3         CALL Z8AC$LX_ETT_ITEM_TYI_CONST (LAST_DIMS$ -> DIMS.D.DIM(I),

  17637 27 000143   200036 630500                    EPPR0   END_VALUE,,AUTO
        27 000144   200142 450500                    STP0    TYPE_DESC+4,,AUTO
        27 000145   200142 631500                    EPPR1   TYPE_DESC+4,,AUTO
        27 000146   200145 451500                    STP1    TYPE_DESC+7,,AUTO
        27 000147   200133 236100                    LDQ     I,,AUTO
        27 000150   000003 402003                    MPY     3,DU
        27 000151   000003 036003                    ADLQ    3,DU
        27 000152   200107 036100                    ADLQ    LAST_DIMS$,,AUTO
        27 000153   200144 756100                    STQ     TYPE_DESC+6,,AUTO
        27 000154   200144 630500                    EPPR0   TYPE_DESC+6,,AUTO
        27 000155   000001 631400 28                 EPPR1   1
        27 000156   000000 701000 xent               TSX1    Z8AC$LX_ETT_ITEM_TYI_CONST
        27 000157   000000 011000                    NOP     0

      881    17638    3                                              ADDR(END_VALUE));
      882    17639
      883    17640    3         CALL Z8AC$LX_ETT_ITEM_TYI_CONST (1,

PL6.E3A0      #007=Z8EQ$INITIALIZE_STATE File=Z8EQ.:Z8A6TSI                      SAT 08/09/97 12:42 Page:181
  17640 27 000160   200046 630500                    EPPR0   VALUE_ONE,,AUTO
        27 000161   200142 450500                    STP0    TYPE_DESC+4,,AUTO
        27 000162   200142 631500                    EPPR1   TYPE_DESC+4,,AUTO
        27 000163   200145 451500                    STP1    TYPE_DESC+7,,AUTO
        27 000164   000006 236000 28                 LDQ     6
        27 000165   200144 756100                    STQ     TYPE_DESC+6,,AUTO
        27 000166   200144 630500                    EPPR0   TYPE_DESC+6,,AUTO
        27 000167   000001 631400 28                 EPPR1   1
        27 000170   000000 701000 xent               TSX1    Z8AC$LX_ETT_ITEM_TYI_CONST
        27 000171   000000 011000                    NOP     0

      884    17641    3                                               ADDR(VALUE_ONE));
      885    17642
      886    17643              %INIT_BINARY_OP (@POINTER = "ADDR(LOOP_END)",
      887    17644                               @LOP$ = DIMS_INDEX$,
      888    17645                               @ROP$ = "ADDR(END_VALUE)",
      889    17646                               @OP = %OP_EQUAL);

  17648 27 000172   000005 220003                    LDX0    5,DU
        27 000173   200026 740100                    STX0    LOOP_END,,AUTO

  17649 27 000174   000000 221003                    LDX1    0,DU
        27 000175   200026 441100                    SXL1    LOOP_END,,AUTO

  17656 27 000176   000133 235000 xsym               LDA     COMCOM+91
        27 000177   200033 755100                    STA     LOOP_END+5,,AUTO

  17657 27 000200   000134 236000 xsym               LDQ     COMCOM+92
        27 000201   200034 756100                    STQ     LOOP_END+6,,AUTO

  17658 27 000202   200036 630500                    EPPR0   END_VALUE,,AUTO
        27 000203   200030 450500                    STP0    LOOP_END+2,,AUTO

  17659 27 000204   200135 236100                    LDQ     DIMS_INDEX$,,AUTO
        27 000205   200027 756100                    STQ     LOOP_END+1,,AUTO

  17660 27 000206   000027 235007                    LDA     23,DL
PL6.E3A0      #007=Z8EQ$INITIALIZE_STATE File=Z8EQ.:Z8A6TSI                      SAT 08/09/97 12:42 Page:182
        27 000207   200031 755100                    STA     LOOP_END+3,,AUTO

  17661 27 000210   000000 236000 28                 LDQ     0
        27 000211   200035 756100                    STQ     LOOP_END+7,,AUTO

      890    17664
      891    17665    3         CALL Z8EQ$MERGE_ITERATED_DO_UNTIL (DIMS_INDEX$,

  17665 27 000212   200046 631500                    EPPR1   VALUE_ONE,,AUTO
        27 000213   200142 451500                    STP1    TYPE_DESC+4,,AUTO
        27 000214   200046 633500                    EPPR3   VALUE_ONE,,AUTO
        27 000215   200143 453500                    STP3    TYPE_DESC+5,,AUTO
        27 000216   200026 634500                    EPPR4   LOOP_END,,AUTO
        27 000217   200144 454500                    STP4    TYPE_DESC+6,,AUTO
        27 000220   200144 635500                    EPPR5   TYPE_DESC+6,,AUTO
        27 000221   200151 455500                    STP5    TYPE_DESC+11,,AUTO
        27 000222   200143 636500                    EPPR6   TYPE_DESC+5,,AUTO
        27 000223   200150 456500                    STP6    TYPE_DESC+10,,AUTO
        27 000224   200142 637500                    EPPR7   TYPE_DESC+4,,AUTO
        27 000225   200147 457500                    STP7    TYPE_DESC+9,,AUTO
        27 000226   200135 630500                    EPPR0   DIMS_INDEX$,,AUTO
        27 000227   200146 450500                    STP0    TYPE_DESC+8,,AUTO
        27 000230   200146 630500                    EPPR0   TYPE_DESC+8,,AUTO
        27 000231   000007 631400 28                 EPPR1   7
        27 000232   000000 701000 xent               TSX1    Z8EQ$MERGE_ITERATED_DO_UNTIL
        27 000233   000000 011000                    NOP     0

      892    17666    3                                            ADDR(VALUE_ONE),
      893    17667    3                                            ADDR(VALUE_ONE),
      894    17668    3                                            ADDR(LOOP_END));
      895    17669    3       END;

  17669 27 000234   000001 336007                    LCQ     1,DL
        27 000235   200133 056100                    ASQ     I,,AUTO
        27 000236   200133 236100                    LDQ     I,,AUTO
        27 000237   200103 116100                    CMPQ    NUM_SUBS_GIVEN,,AUTO
        27 000240   000126 605400 27                 TPNZ    s:17631
PL6.E3A0      #007=Z8EQ$INITIALIZE_STATE File=Z8EQ.:Z8A6TSI                      SAT 08/09/97 12:42 Page:183

      896    17670
      897    17671    2     LAST_DIMS$ = ADDR(NIL);

  17671 27 000241   000000 236000 28                 LDQ     0
        27 000242   200107 756100                    STQ     LAST_DIMS$,,AUTO

      898    17672
      899    17673          %APPEND_ILS_LIST (@FROM$ = "ADDR(O1COM.ILS_LIST)",
      900    17674                            @TO$ = "ADDR(SAVED_ILS_LIST)");

  17680 27 000243   000017 236000 xsym               LDQ     O1COM+15
        27 000244   000000 116000 28                 CMPQ    0
        27 000245   000261 600000 27                 TZE     s:17694

  17681 27 000246   200057 236100                    LDQ     SAVED_ILS_LIST+1,,AUTO
        27 000247   000000 116000 28                 CMPQ    0
        27 000250   000254 601000 27                 TNZ     s:17685

  17682 27 000251   000017 236000 xsym               LDQ     O1COM+15
        27 000252   200057 756100                    STQ     SAVED_ILS_LIST+1,,AUTO

  17683 27 000253   000257 710000 27                 TRA     s:17687

  17685 27 000254   000017 236000 xsym               LDQ     O1COM+15
        27 000255   200060 470500                    LDP0    SAVED_ILS_LIST+2,,AUTO
        27 000256   000002 756100                    STQ     2,,PR0

  17687 27 000257   000020 236000 xsym               LDQ     O1COM+16
        27 000260   200060 756100                    STQ     SAVED_ILS_LIST+2,,AUTO

      901    17691
      902    17692          %INIT_ILS_LIST (@POINTER = "ADDR(O1COM.ILS_LIST)");

  17694 27 000261   000007 220003                    LDX0    7,DU
        27 000262   000016 740000 xsym               STX0    O1COM+14

PL6.E3A0      #007=Z8EQ$INITIALIZE_STATE File=Z8EQ.:Z8A6TSI                      SAT 08/09/97 12:42 Page:184
  17695 27 000263   000000 236000 28                 LDQ     0
        27 000264   000017 756000 xsym               STQ     O1COM+15

  17696 27 000265   000020 756000 xsym               STQ     O1COM+16

  17697 27 000266   000025 756000 xsym               STQ     O1COM+21

      903    17700
      904    17701    2     END ISSUE_PERFORMS;

  17701 27 000267   200132 221300                    LDX1  ! NEED_TO_BE_SWAPPED+2,,AUTO
        27 000270   000001 702211                    TSX2  ! 1,X1

      905    17702        %EJECT;
PL6.E3A0      #007=Z8EQ$INITIALIZE_STATE File=Z8EQ.:Z8A6TSI                      SAT 08/09/97 12:42 Page:185
      906    17703    1   VERIFY_SUBSCRIPTING : PROC (IDENT$,

  17703 27 000271   200114 741300       VERIFY_SUBS* STX1  ! SUBSCR$+2,,AUTO

      907    17704    1                               SUBSCRIPT_LIST$);
      908    17705
      909    17706    2     DCL IDENT$ PTR;
      910    17707    2     DCL SUBSCRIPT_LIST$ PTR;
      911    17708
      912    17709    2     DCL IDENT_ST$ PTR;
      913    17710    2     DCL DIMS$ PTR;
      914    17711    2     DCL NEW_SUB$ PTR;
      915    17712
      916    17713          %FISH (TRIAD = IDENT$ -> LX_ETT_ITEM.ETT$,
      917    17714                 RTN = IDENT_ST$);

  17716 27 000272   200115 470500                    LDP0    @IDENT$,,AUTO
        27 000273   000000 471500                    LDP1    0,,PR0
        27 000274   100001 236100                    LDQ     1,,PR1
        27 000275   200117 756100                    STQ     IDENT_ST$,,AUTO

  17717 27 000276   200117 473500                    LDP3    IDENT_ST$,,AUTO
        27 000277   300000 220100                    LDX0    0,,PR3
        27 000300   000751 100003                    CMPX0   489,DU
        27 000301   000311 603000 27                 TRC     s:17723

  17718 27 000302   200117 470500                    LDP0    IDENT_ST$,,AUTO
        27 000303   000001 236100                    LDQ     1,,PR0
        27 000304   200117 756100                    STQ     IDENT_ST$,,AUTO

  17719 27 000305   200117 470500                    LDP0    IDENT_ST$,,AUTO
        27 000306   000000 220100                    LDX0    0,,PR0
        27 000307   000751 100003                    CMPX0   489,DU
        27 000310   000302 602000 27                 TNC     s:17718

      918    17722
      919    17723    2     IF IDENT_ST$ -> ST.ID ~= %ARRAY THEN
PL6.E3A0      #007=Z8EQ$INITIALIZE_STATE File=Z8EQ.:Z8A6TSI                      SAT 08/09/97 12:42 Page:186

  17723 27 000311   200117 470500                    LDP0    IDENT_ST$,,AUTO
        27 000312   000000 220100                    LDX0    0,,PR0
        27 000313   000765 100003                    CMPX0   501,DU
        27 000314   000341 600000 27                 TZE     s:17763

      920    17724            %CONDITIONAL_ERROR (@LX_ITEM$ = IDENT$,
      921    17725                                @ERROR# = %E$INVALID_SUBSCRIPT_CONTEXT,
      922    17726                                @LINE = IDENT$ -> LX_ETT_ITEM.LINE,
      923    17727                                @COLUMN = IDENT$ -> LX_ETT_ITEM.COLUMN);

  17737 27 000315   200115 471500                    LDP1    @IDENT$,,AUTO
        27 000316   100000 473500                    LDP3    0,,PR1
        27 000317   300000 236100                    LDQ     0,,PR3
        27 000320   400000 316007                    CANQ    -131072,DL
        27 000321   000454 601000 27                 TNZ     s:17857

  17739 27 000322   300006 634500                    EPPR4   6,,PR3
        27 000323   200144 454500                    STP4    TYPE_DESC+6,,AUTO
        27 000324   300005 635500                    EPPR5   5,,PR3
        27 000325   200143 455500                    STP5    TYPE_DESC+5,,AUTO
        27 000326   000012 236000 28                 LDQ     10
        27 000327   200142 756100                    STQ     TYPE_DESC+4,,AUTO
        27 000330   200142 630500                    EPPR0   TYPE_DESC+4,,AUTO
        27 000331   000010 631400 28                 EPPR1   8
        27 000332   000000 701000 xent               TSX1    Z8AE$ERROR
        27 000333   000000 011000                    NOP     0

  17748 27 000334   200115 470500                    LDP0    @IDENT$,,AUTO
        27 000335   000000 471500                    LDP1    0,,PR0
        27 000336   400000 236007                    LDQ     -131072,DL
        27 000337   100000 256100                    ORSQ    0,,PR1

  17755 27 000340   000454 710000 27                 TRA     s:17857

      924    17757    2     ELSE
      925    17758    3       DO;
PL6.E3A0      #007=Z8EQ$INITIALIZE_STATE File=Z8EQ.:Z8A6TSI                      SAT 08/09/97 12:42 Page:187

      926    17759              %GET_LTS (@ID = %DIMS,
      927    17760                        @ST$ = IDENT_ST$,
      928    17761                        @RETURN$ = DIMS$);

  17763 27 000341   000005 236100                    LDQ     5,,PR0
        27 000342   000000 116000 28                 CMPQ    0
        27 000343   000353 600000 27                 TZE     s:17797
        27 000344   000005 471500                    LDP1    5,,PR0
        27 000345   100000 221100                    LDX1    0,,PR1
        27 000346   001105 101003                    CMPX1   581,DU
        27 000347   000353 601000 27                 TNZ     s:17797

  17767 27 000350   100001 236100                    LDQ     1,,PR1
        27 000351   200120 756100                    STQ     DIMS$,,AUTO

  17795 27 000352   000365 710000 27                 TRA     s:17805

  17797 27 000353   000000 116000 28                 CMPQ    0
        27 000354   000363 600000 27                 TZE     s:17801
        27 000355   000005 471500                    LDP1    5,,PR0
        27 000356   100000 221100                    LDX1    0,,PR1
        27 000357   001104 101003                    CMPX1   580,DU
        27 000360   000363 601000 27                 TNZ     s:17801

  17799 27 000361   200120 756100                    STQ     DIMS$,,AUTO
        27 000362   000365 710000 27                 TRA     s:17805

  17801 27 000363   000000 236000 28                 LDQ     0
        27 000364   200120 756100                    STQ     DIMS$,,AUTO

      929    17804
      930    17805    3         IF (DIMS$ -> DIMS.N - %MIN_DIM_SIZE) / %NO_WORDS_PER_DIM

  17805 27 000365   200120 471500                    LDP1    DIMS$,,AUTO
        27 000366   100000 236100                    LDQ     0,,PR1
        27 000367   777777 376007                    ANQ     -1,DL
PL6.E3A0      #007=Z8EQ$INITIALIZE_STATE File=Z8EQ.:Z8A6TSI                      SAT 08/09/97 12:42 Page:188
        27 000370   000005 136007                    SBLQ    5,DL
        27 000371   000003 506007                    DIV     3,DL
        27 000372   200116 473500                    LDP3    @SUBSCRIPT_LIST$,,AUTO
        27 000373   300000 474500                    LDP4    0,,PR3
        27 000374   000000 116003                    CMPQ    0,DU
        27 000375   000424 604000 27                 TMI     s:17844
        27 000376   400002 116100                    CMPQ    2,,PR4
        27 000377   000424 605000 27                 TPL     s:17844

      931    17806    3               < SUBSCRIPT_LIST$ -> LX_LIST.COUNT THEN
      932    17807                %CONDITIONAL_ERROR (@LX_ITEM$ = IDENT$,
      933    17808                                    @ERROR# = %E$INVALID_SUBSCRIPT_CONTEXT,
      934    17809                                    @LINE = IDENT$ -> LX_ETT_ITEM.LINE,
      935    17810                                    @COLUMN = IDENT$ -> LX_ETT_ITEM.COLUMN);

  17820 27 000400   200115 475500                    LDP5    @IDENT$,,AUTO
        27 000401   500000 476500                    LDP6    0,,PR5
        27 000402   600000 236100                    LDQ     0,,PR6
        27 000403   400000 316007                    CANQ    -131072,DL
        27 000404   000454 601000 27                 TNZ     s:17857

  17822 27 000405   600006 637500                    EPPR7   6,,PR6
        27 000406   200144 457500                    STP7    TYPE_DESC+6,,AUTO
        27 000407   600005 634500                    EPPR4   5,,PR6
        27 000410   200143 454500                    STP4    TYPE_DESC+5,,AUTO
        27 000411   000012 236000 28                 LDQ     10
        27 000412   200142 756100                    STQ     TYPE_DESC+4,,AUTO
        27 000413   200142 630500                    EPPR0   TYPE_DESC+4,,AUTO
        27 000414   000010 631400 28                 EPPR1   8
        27 000415   000000 701000 xent               TSX1    Z8AE$ERROR
        27 000416   000000 011000                    NOP     0

  17831 27 000417   200115 470500                    LDP0    @IDENT$,,AUTO
        27 000420   000000 471500                    LDP1    0,,PR0
        27 000421   400000 236007                    LDQ     -131072,DL
        27 000422   100000 256100                    ORSQ    0,,PR1

PL6.E3A0      #007=Z8EQ$INITIALIZE_STATE File=Z8EQ.:Z8A6TSI                      SAT 08/09/97 12:42 Page:189
  17838 27 000423   000454 710000 27                 TRA     s:17857

      936    17840    3         ELSE
      937    17841    4           DO;

      938    17842                  /* Set up subscripts for use by INITIALIZE_VAL */
      939    17843
      940    17844    4             CALL Z8EU$DUP_ABSSYN_TREE (SUBSCRIPT_LIST$,

  17844 27 000424   200121 635500                    EPPR5   NEW_SUB$,,AUTO
        27 000425   200143 455500                    STP5    TYPE_DESC+5,,AUTO
        27 000426   200116 236100                    LDQ     @SUBSCRIPT_LIST$,,AUTO
        27 000427   200142 756100                    STQ     TYPE_DESC+4,,AUTO
        27 000430   200142 630500                    EPPR0   TYPE_DESC+4,,AUTO
        27 000431   000001 631400 28                 EPPR1   1
        27 000432   000000 701000 xent               TSX1    Z8EU$DUP_ABSSYN_TREE
        27 000433   000000 011000                    NOP     0

      941    17845    4                                        NEW_SUB$);
      942    17846    4             NUM_SUBS_GIVEN = SUBSCRIPT_LIST$ -> LX_LIST.COUNT;

  17846 27 000434   200116 470500                    LDP0    @SUBSCRIPT_LIST$,,AUTO
        27 000435   000000 471500                    LDP1    0,,PR0
        27 000436   100002 235100                    LDA     2,,PR1
        27 000437   200103 755100                    STA     NUM_SUBS_GIVEN,,AUTO

      943    17847
      944    17848    4             ADDR(DIMS_INDEX_LIST) -> LX_LIST = NEW_SUB$ -> LX_LIST;

  17848 27 000440   200121 473500                    LDP3    NEW_SUB$,,AUTO
        27 000441   000100 100500                    MLR     fill='000'O
        27 000442   300000 000040                    ADSC9   0,,PR3                   cn=0,n=32
        27 000443   200066 000040                    ADSC9   DIMS_INDEX_LIST,,AUTO    cn=0,n=32

      945    17849
      946    17850                  %DISPOSE_HEAP (@POINTER = NEW_SUB$);

PL6.E3A0      #007=Z8EQ$INITIALIZE_STATE File=Z8EQ.:Z8A6TSI                      SAT 08/09/97 12:42 Page:190
  17852 27 000444   000003 236000 28                 LDQ     3
        27 000445   200143 756100                    STQ     TYPE_DESC+5,,AUTO
        27 000446   200121 631500                    EPPR1   NEW_SUB$,,AUTO
        27 000447   200142 451500                    STP1    TYPE_DESC+4,,AUTO
        27 000450   200142 630500                    EPPR0   TYPE_DESC+4,,AUTO
        27 000451   000001 631400 28                 EPPR1   1
        27 000452   000000 701000 xent               TSX1    Z8ED$DISPOSE_HEAP
        27 000453   000000 011000                    NOP     0

      947    17855    4           END;

      948    17856    3       END;

      949    17857    2   END VERIFY_SUBSCRIPTING;

  17857 27 000454   200114 221300                    LDX1  ! SUBSCR$+2,,AUTO
        27 000455   000001 702211                    TSX2  ! 1,X1

      950    17858        %EJECT;
PL6.E3A0      #007=Z8EQ$INITIALIZE_STATE File=Z8EQ.:Z8A6TSI                      SAT 08/09/97 12:42 Page:191
      951    17859    1   INITIALIZE_VAR : PROC (INIT$,

  17859 27 000456   200120 741300       INITIALIZE_* STX1  ! DIMS$,,AUTO
        27 000457   000615 710000 27                 TRA     s:17959

      952    17860    1                          IDENT$,
      953    17861    1                          INIT_ST$,
      954    17862    1                          VAL$);
      955    17863
      956    17864    2     DCL INIT$ PTR;
      957    17865    2     DCL IDENT$ PTR;
      958    17866    2     DCL INIT_ST$ PTR;
      959    17867    2     DCL VAL$ PTR;
      960    17868
      961    17869
      962    17870
      963    17871    2     SWAP_DIMS : PROC;

  17871 27 000460   200126 741300       SWAP_DIMS    STX1  ! @VAL$+2,,AUTO
        27 000461   000543 710000 27                 TRA     s:17901

      964    17872
      965    17873    3       DCL NEW_DIMS$ PTR;
      966    17874    3       DCL NEED_TO_BE_SWAPPED BOOLEAN;
      967    17875
      968    17876    3       CHECK_NEED_TO_BE_SWAPPED : PROC;

  17876 27 000462   200132 741300       CHECK_NEED_* STX1  ! NEED_TO_BE_SWAPPED+2,,AUTO

      969    17877
      970    17878    4         DCL I SBIN WORD;
      971    17879
      972    17880    4         NEED_TO_BE_SWAPPED = FALSE;

  17880 27 000463   200130 450100                    STZ     NEED_TO_BE_SWAPPED,,AUTO

      973    17881
PL6.E3A0      #007=Z8EQ$INITIALIZE_STATE File=Z8EQ.:Z8A6TSI                      SAT 08/09/97 12:42 Page:192
      974    17882    4         IF LAST_DIMS$ = ADDR(NIL) THEN

  17882 27 000464   200107 236100                    LDQ     LAST_DIMS$,,AUTO
        27 000465   000000 116000 28                 CMPQ    0
        27 000466   000472 601000 27                 TNZ     s:17885

      975    17883    4           NEED_TO_BE_SWAPPED = TRUE;

  17883 27 000467   400000 236003                    LDQ     -131072,DU
        27 000470   200130 756100                    STQ     NEED_TO_BE_SWAPPED,,AUTO
        27 000471   000541 710000 27                 TRA     s:17895

      976    17884    4         ELSE
      977    17885    4           IF (LAST_DIMS$ -> DIMS.N - %MIN_DIM_SIZE)/%NO_WORDS_PER_DIM

  17885 27 000472   200107 470500                    LDP0    LAST_DIMS$,,AUTO
        27 000473   000000 236100                    LDQ     0,,PR0
        27 000474   777777 376007                    ANQ     -1,DL
        27 000475   000005 136007                    SBLQ    5,DL
        27 000476   000003 506007                    DIV     3,DL
        27 000477   200127 471500                    LDP1    NEW_DIMS$,,AUTO
        27 000500   200142 756100                    STQ     TYPE_DESC+4,,AUTO
        27 000501   100000 236100                    LDQ     0,,PR1
        27 000502   777777 376007                    ANQ     -1,DL
        27 000503   000005 136007                    SBLQ    5,DL
        27 000504   000003 506007                    DIV     3,DL
        27 000505   200142 116100                    CMPQ    TYPE_DESC+4,,AUTO
        27 000506   000512 600000 27                 TZE     s:17889

      978    17886    4                 ~= (NEW_DIMS$ -> DIMS.N - %MIN_DIM_SIZE)/%NO_WORDS_PER_DIM THEN
      979    17887    4             NEED_TO_BE_SWAPPED = TRUE;

  17887 27 000507   400000 236003                    LDQ     -131072,DU
        27 000510   200130 756100                    STQ     NEED_TO_BE_SWAPPED,,AUTO
        27 000511   000541 710000 27                 TRA     s:17895

      980    17888    4           ELSE
PL6.E3A0      #007=Z8EQ$INITIALIZE_STATE File=Z8EQ.:Z8A6TSI                      SAT 08/09/97 12:42 Page:193
      981    17889    5             DO I = 1 TO (LAST_DIMS$ -> DIMS.N - %MIN_DIM_SIZE)/%NO_WORDS_PER_DIM;

  17889 27 000512   000001 235007                    LDA     1,DL
        27 000513   200133 755100                    STA     I,,AUTO
        27 000514   000530 710000 27                 TRA     s:17893+1

      982    17890
      983    17891    5               IF LAST_DIMS$ -> DIMS.D.DIM(I) ~= NEW_DIMS$ -> DIMS.D.DIM(I) THEN

  17891 27 000515   200133 236100                    LDQ     I,,AUTO
        27 000516   000003 402007                    MPY     3,DL
        27 000517   200127 470500                    LDP0    NEW_DIMS$,,AUTO
        27 000520   000000 620006                    EAX0    0,QL
        27 000521   200107 471500                    LDP1    LAST_DIMS$,,AUTO
        27 000522   100003 236110                    LDQ     3,X0,PR1
        27 000523   000003 116110                    CMPQ    3,X0,PR0
        27 000524   000527 600000 27                 TZE     s:17893

      984    17892    5                 NEED_TO_BE_SWAPPED = TRUE;

  17892 27 000525   400000 236003                    LDQ     -131072,DU
        27 000526   200130 756100                    STQ     NEED_TO_BE_SWAPPED,,AUTO

      985    17893    5             END;

  17893 27 000527   200133 054100                    AOS     I,,AUTO
        27 000530   200107 470500                    LDP0    LAST_DIMS$,,AUTO
        27 000531   000000 236100                    LDQ     0,,PR0
        27 000532   777777 376007                    ANQ     -1,DL
        27 000533   000005 136007                    SBLQ    5,DL
        27 000534   000003 506007                    DIV     3,DL
        27 000535   000000 116003                    CMPQ    0,DU
        27 000536   000515 604000 27                 TMI     s:17891
        27 000537   200133 116100                    CMPQ    I,,AUTO
        27 000540   000515 605000 27                 TPL     s:17891

      986    17894
PL6.E3A0      #007=Z8EQ$INITIALIZE_STATE File=Z8EQ.:Z8A6TSI                      SAT 08/09/97 12:42 Page:194
      987    17895    4       END CHECK_NEED_TO_BE_SWAPPED;

  17895 27 000541   200132 221300                    LDX1  ! NEED_TO_BE_SWAPPED+2,,AUTO
        27 000542   000001 702211                    TSX2  ! 1,X1

      988    17896
      989    17897            %GET_LTS(@ID = %DIMS,
      990    17898                     @ST$ = INIT_ST$,
      991    17899                     @RETURN$ = NEW_DIMS$);

  17901 27 000543   200123 470500                    LDP0    @INIT_ST$,,AUTO
        27 000544   000000 471500                    LDP1    0,,PR0
        27 000545   100005 236100                    LDQ     5,,PR1
        27 000546   000000 116000 28                 CMPQ    0
        27 000547   000557 600000 27                 TZE     s:17935
        27 000550   100005 473500                    LDP3    5,,PR1
        27 000551   300000 220100                    LDX0    0,,PR3
        27 000552   001105 100003                    CMPX0   581,DU
        27 000553   000557 601000 27                 TNZ     s:17935

  17905 27 000554   300001 236100                    LDQ     1,,PR3
        27 000555   200127 756100                    STQ     NEW_DIMS$,,AUTO

  17933 27 000556   000571 710000 27                 TRA     s:17943

  17935 27 000557   000000 116000 28                 CMPQ    0
        27 000560   000567 600000 27                 TZE     s:17939
        27 000561   100005 473500                    LDP3    5,,PR1
        27 000562   300000 220100                    LDX0    0,,PR3
        27 000563   001104 100003                    CMPX0   580,DU
        27 000564   000567 601000 27                 TNZ     s:17939

  17937 27 000565   200127 756100                    STQ     NEW_DIMS$,,AUTO
        27 000566   000571 710000 27                 TRA     s:17943

  17939 27 000567   000000 236000 28                 LDQ     0
        27 000570   200127 756100                    STQ     NEW_DIMS$,,AUTO
PL6.E3A0      #007=Z8EQ$INITIALIZE_STATE File=Z8EQ.:Z8A6TSI                      SAT 08/09/97 12:42 Page:195

      992    17942
      993    17943    3       CALL CHECK_NEED_TO_BE_SWAPPED;

  17943 27 000571   000462 701000 27                 TSX1    CHECK_NEED_TO_BE_SWAPPED
        27 000572   000000 011000                    NOP     0

      994    17944
      995    17945    3       IF NEED_TO_BE_SWAPPED THEN

  17945 27 000573   200130 234100                    SZN     NEED_TO_BE_SWAPPED,,AUTO
        27 000574   000577 605000 27                 TPL     s:17950

      996    17946    4         DO;

      997    17947    4           CALL ISSUE_PERFORMS;

  17947 27 000575   000113 701000 27                 TSX1    ISSUE_PERFORMS
        27 000576   000000 011000                    NOP     0

      998    17948    4         END;

      999    17949
     1000    17950    3       LAST_DIMS$ = NEW_DIMS$;

  17950 27 000577   200127 236100                    LDQ     NEW_DIMS$,,AUTO
        27 000600   200107 756100                    STQ     LAST_DIMS$,,AUTO

     1001    17951
     1002    17952    3       CALL GET_INDICES ((LAST_DIMS$ -> DIMS.N - %MIN_DIM_SIZE) / %NO_WORDS_PER_DIM);

  17952 27 000601   200107 470500                    LDP0    LAST_DIMS$,,AUTO
        27 000602   000000 236100                    LDQ     0,,PR0
        27 000603   777777 376007                    ANQ     -1,DL
        27 000604   000005 136007                    SBLQ    5,DL
        27 000605   000003 506007                    DIV     3,DL
        27 000606   200152 756100                    STQ     TYPE_DESC+12,,AUTO
PL6.E3A0      #007=Z8EQ$INITIALIZE_STATE File=Z8EQ.:Z8A6TSI                      SAT 08/09/97 12:42 Page:196
        27 000607   200152 631500                    EPPR1   TYPE_DESC+12,,AUTO
        27 000610   200133 451500                    STP1    I,,AUTO
        27 000611   000003 701000 27                 TSX1    GET_INDICES
        27 000612   000000 011000                    NOP     0

     1003    17953
     1004    17954    3     END SWAP_DIMS;

  17954 27 000613   200126 221300                    LDX1  ! @VAL$+2,,AUTO
        27 000614   000001 702211                    TSX2  ! 1,X1

     1005    17955        %EJECT;
PL6.E3A0      #007=Z8EQ$INITIALIZE_STATE File=Z8EQ.:Z8A6TSI                      SAT 08/09/97 12:42 Page:197
     1006    17956        /* Main body of Initialize_var */
     1007    17957
     1008    17958
     1009    17959    2   INIT_COUNT = INIT_COUNT + 1;

  17959 27 000615   200105 054100                    AOS     INIT_COUNT,,AUTO

     1010    17960
     1011    17961    2   IF INIT_ST$ -> ST.ID = %SCALAR THEN

  17961 27 000616   200123 470500                    LDP0    @INIT_ST$,,AUTO
        27 000617   000000 471500                    LDP1    0,,PR0
        27 000620   100000 220100                    LDX0    0,,PR1
        27 000621   000766 100003                    CMPX0   502,DU
        27 000622   000660 601000 27                 TNZ     s:17974

     1012    17962    3     DO;

     1013    17963    3       IF LAST_DIMS$ ~= ADDR(NIL) THEN

  17963 27 000623   200107 236100                    LDQ     LAST_DIMS$,,AUTO
        27 000624   000000 116000 28                 CMPQ    0
        27 000625   000630 600000 27                 TZE     s:17968

     1014    17964    4         DO;

     1015    17965    4           CALL ISSUE_PERFORMS;

  17965 27 000626   000113 701000 27                 TSX1    ISSUE_PERFORMS
        27 000627   000000 011000                    NOP     0

     1016    17966    4         END;

     1017    17967
     1018    17968    3       IF INIT$ -> LX_ETT_ITEM.TYPE = %TYP THEN

  17968 27 000630   200121 470500                    LDP0    @INIT$,,AUTO
PL6.E3A0      #007=Z8EQ$INITIALIZE_STATE File=Z8EQ.:Z8A6TSI                      SAT 08/09/97 12:42 Page:198
        27 000631   000000 471500                    LDP1    0,,PR0
        27 000632   100004 235100                    LDA     4,,PR1
        27 000633   000022 115007                    CMPA    18,DL
        27 000634   000650 601000 27                 TNZ     s:17971

     1019    17969    3         CALL Z8E7$POINTER_MOVE (INIT$, ADDR(NIL));

  17969 27 000635   000000 236000 28                 LDQ     0
        27 000636   200142 756100                    STQ     TYPE_DESC+4,,AUTO
        27 000637   200142 631500                    EPPR1   TYPE_DESC+4,,AUTO
        27 000640   200145 451500                    STP1    TYPE_DESC+7,,AUTO
        27 000641   200121 236100                    LDQ     @INIT$,,AUTO
        27 000642   200144 756100                    STQ     TYPE_DESC+6,,AUTO
        27 000643   200144 630500                    EPPR0   TYPE_DESC+6,,AUTO
        27 000644   000001 631400 28                 EPPR1   1
        27 000645   000000 701000 xent               TSX1    Z8E7$POINTER_MOVE
        27 000646   000000 011000                    NOP     0
        27 000647   000761 710000 27                 TRA     s:18026

     1020    17970    3       ELSE
     1021    17971    3         CALL Z8E7$MOVE (INIT$, VAL$);

  17971 27 000650   200124 236100                    LDQ     @VAL$,,AUTO
        27 000651   200121 235100                    LDA     @INIT$,,AUTO
        27 000652   200142 757100                    STAQ    TYPE_DESC+4,,AUTO
        27 000653   200142 630500                    EPPR0   TYPE_DESC+4,,AUTO
        27 000654   000001 631400 28                 EPPR1   1
        27 000655   000000 701000 xent               TSX1    Z8E7$MOVE
        27 000656   000000 011000                    NOP     0

     1022    17972    3     END;

  17972 27 000657   000761 710000 27                 TRA     s:18026

     1023    17973    2   ELSE
     1024    17974    2     IF INIT_ST$ -> ST.ID = %ARRAY THEN

PL6.E3A0      #007=Z8EQ$INITIALIZE_STATE File=Z8EQ.:Z8A6TSI                      SAT 08/09/97 12:42 Page:199
  17974 27 000660   000765 100003                    CMPX0   501,DU
        27 000661   000755 601000 27                 TNZ     s:18024

     1025    17975    3       DO;

     1026    17976    3         IF INIT_ST$ -> VARIABLE.B.OCCURS_DEPENDING THEN

  17976 27 000662   100003 236100                    LDQ     3,,PR1
        27 000663   000200 316003                    CANQ    128,DU
        27 000664   000711 600000 27                 TZE     s:18012

     1027    17977                %CONDITIONAL_ERROR (@LX_ITEM$ = IDENT$,
     1028    17978                                    @ERROR# = %E$INITIALIZE_WITH_DEPENDING,
     1029    17979                                    @LINE = IDENT$ -> LX_ETT_ITEM.LINE,
     1030    17980                                    @COLUMN = IDENT$ -> LX_ETT_ITEM.COLUMN);

  17990 27 000665   200122 473500                    LDP3    @IDENT$,,AUTO
        27 000666   300000 474500                    LDP4    0,,PR3
        27 000667   400000 236100                    LDQ     0,,PR4
        27 000670   400000 316007                    CANQ    -131072,DL
        27 000671   000761 601000 27                 TNZ     s:18026

  17992 27 000672   400006 635500                    EPPR5   6,,PR4
        27 000673   200144 455500                    STP5    TYPE_DESC+6,,AUTO
        27 000674   400005 631500                    EPPR1   5,,PR4
        27 000675   200143 451500                    STP1    TYPE_DESC+5,,AUTO
        27 000676   000014 236000 28                 LDQ     12
        27 000677   200142 756100                    STQ     TYPE_DESC+4,,AUTO
        27 000700   200142 630500                    EPPR0   TYPE_DESC+4,,AUTO
        27 000701   000010 631400 28                 EPPR1   8
        27 000702   000000 701000 xent               TSX1    Z8AE$ERROR
        27 000703   000000 011000                    NOP     0

  18001 27 000704   200122 470500                    LDP0    @IDENT$,,AUTO
        27 000705   000000 471500                    LDP1    0,,PR0
        27 000706   400000 236007                    LDQ     -131072,DL
        27 000707   100000 256100                    ORSQ    0,,PR1
PL6.E3A0      #007=Z8EQ$INITIALIZE_STATE File=Z8EQ.:Z8A6TSI                      SAT 08/09/97 12:42 Page:200

  18008 27 000710   000761 710000 27                 TRA     s:18026

     1031    18010    3         ELSE
     1032    18011    4           DO;

     1033    18012    4             CALL SWAP_DIMS;

  18012 27 000711   000460 701000 27                 TSX1    SWAP_DIMS
        27 000712   000000 011000                    NOP     0

     1034    18013
     1035    18014    4             CALL Z8EY$SUBSCRIPT (ADDR(DIMS_INDEX_LIST),

  18014 27 000713   200066 630500                    EPPR0   DIMS_INDEX_LIST,,AUTO
        27 000714   200142 450500                    STP0    TYPE_DESC+4,,AUTO
        27 000715   200121 236100                    LDQ     @INIT$,,AUTO
        27 000716   200145 756100                    STQ     TYPE_DESC+7,,AUTO
        27 000717   200142 631500                    EPPR1   TYPE_DESC+4,,AUTO
        27 000720   200144 451500                    STP1    TYPE_DESC+6,,AUTO
        27 000721   200144 630500                    EPPR0   TYPE_DESC+6,,AUTO
        27 000722   000001 631400 28                 EPPR1   1
        27 000723   000000 701000 xent               TSX1    Z8EY$SUBSCRIPT
        27 000724   000000 011000                    NOP     0

     1036    18015    4                                  INIT$);
     1037    18016
     1038    18017    4             IF INIT$ -> LX_ETT_ITEM.TYPE = %TYP THEN

  18017 27 000725   200121 470500                    LDP0    @INIT$,,AUTO
        27 000726   000000 471500                    LDP1    0,,PR0
        27 000727   100004 235100                    LDA     4,,PR1
        27 000730   000022 115007                    CMPA    18,DL
        27 000731   000745 601000 27                 TNZ     s:18020

     1039    18018    4               CALL Z8E7$POINTER_MOVE (INIT$, ADDR(NIL));

PL6.E3A0      #007=Z8EQ$INITIALIZE_STATE File=Z8EQ.:Z8A6TSI                      SAT 08/09/97 12:42 Page:201
  18018 27 000732   000000 236000 28                 LDQ     0
        27 000733   200142 756100                    STQ     TYPE_DESC+4,,AUTO
        27 000734   200142 631500                    EPPR1   TYPE_DESC+4,,AUTO
        27 000735   200145 451500                    STP1    TYPE_DESC+7,,AUTO
        27 000736   200121 236100                    LDQ     @INIT$,,AUTO
        27 000737   200144 756100                    STQ     TYPE_DESC+6,,AUTO
        27 000740   200144 630500                    EPPR0   TYPE_DESC+6,,AUTO
        27 000741   000001 631400 28                 EPPR1   1
        27 000742   000000 701000 xent               TSX1    Z8E7$POINTER_MOVE
        27 000743   000000 011000                    NOP     0
        27 000744   000761 710000 27                 TRA     s:18026

     1040    18019    4             ELSE
     1041    18020    4               CALL Z8E7$MOVE (INIT$, VAL$);

  18020 27 000745   200124 236100                    LDQ     @VAL$,,AUTO
        27 000746   200121 235100                    LDA     @INIT$,,AUTO
        27 000747   200142 757100                    STAQ    TYPE_DESC+4,,AUTO
        27 000750   200142 630500                    EPPR0   TYPE_DESC+4,,AUTO
        27 000751   000001 631400 28                 EPPR1   1
        27 000752   000000 701000 xent               TSX1    Z8E7$MOVE
        27 000753   000000 011000                    NOP     0

     1042    18021    4           END;

     1043    18022    3       END;

  18022 27 000754   000761 710000 27                 TRA     s:18026

     1044    18023    2     ELSE
     1045    18024    2       CALL Z8AE$ERROR (%E$UNEXPECTED_CASE);

  18024 27 000755   000016 630400 28                 EPPR0   14
        27 000756   000004 631400 28                 EPPR1   4
        27 000757   000000 701000 xent               TSX1    Z8AE$ERROR
        27 000760   000000 011000                    NOP     0

PL6.E3A0      #007=Z8EQ$INITIALIZE_STATE File=Z8EQ.:Z8A6TSI                      SAT 08/09/97 12:42 Page:202
     1046    18025
     1047    18026    2   END INITIALIZE_VAR;

  18026 27 000761   200120 221300                    LDX1  ! DIMS$,,AUTO
        27 000762   000001 702211                    TSX2  ! 1,X1

     1048    18027        %EJECT;
PL6.E3A0      #007=Z8EQ$INITIALIZE_STATE File=Z8EQ.:Z8A6TSI                      SAT 08/09/97 12:42 Page:203
     1049    18028        /*---------*/
     1050    18029    1     REPLACING :  PROC ( INIT_TYPE$, INIT_VALUE$ );

  18029 27 000763   200114 741300       REPLACING    STX1  ! SUBSCR$+2,,AUTO

     1051    18030        /*---------*/
     1052    18031
     1053    18032    2   DCL INIT_TYPE$   PTR;
     1054    18033    2   DCL INIT_VALUE$  PTR;
     1055    18034
     1056    18035    2     IF IDENT$ -> LX_ETT_ITEM.B.REFMOD THEN

  18035 27 000764   200101 470500                    LDP0    IDENT$,,AUTO
        27 000765   000000 236100                    LDQ     0,,PR0
        27 000766   010000 316007                    CANQ    4096,DL
        27 000767   001063 600000 27                 TZE     s:18079

     1057    18036    3       DO;

     1058    18037    3         IF INIT_TYPE$ = ADDR(NIL)

  18037 27 000770   200115 471500                    LDP1    @INIT_TYPE$,,AUTO
        27 000771   100000 236100                    LDQ     0,,PR1
        27 000772   000000 116000 28                 CMPQ    0
        27 000773   001000 600000 27                 TZE     s:18040
        27 000774   100000 473500                    LDP3    0,,PR1
        27 000775   300003 235100                    LDA     3,,PR3
        27 000776   000053 115007                    CMPA    43,DL
        27 000777   001307 601000 27                 TNZ     s:18187

     1059    18038    3              OR INIT_TYPE$ -> LX_TERMINAL.SYMBOL = %RSV_WRD_ALPHANUMERIC THEN
     1060    18039    4           DO;

     1061    18040    4             IF INIT_VALUE$ ~= ADDR(NIL) THEN

  18040 27 001000   200116 473500                    LDP3    @INIT_VALUE$,,AUTO
        27 001001   300000 236100                    LDQ     0,,PR3
PL6.E3A0      #007=Z8EQ$INITIALIZE_STATE File=Z8EQ.:Z8A6TSI                      SAT 08/09/97 12:42 Page:204
        27 001002   000000 116000 28                 CMPQ    0
        27 001003   001015 600000 27                 TZE     s:18044

     1062    18041    4               CALL Z8E7$MOVE (IDENT$, INIT_VALUE$);

  18041 27 001004   200116 236100                    LDQ     @INIT_VALUE$,,AUTO
        27 001005   200143 756100                    STQ     TYPE_DESC+5,,AUTO
        27 001006   200101 634500                    EPPR4   IDENT$,,AUTO
        27 001007   200142 454500                    STP4    TYPE_DESC+4,,AUTO
        27 001010   200142 630500                    EPPR0   TYPE_DESC+4,,AUTO
        27 001011   000001 631400 28                 EPPR1   1
        27 001012   000000 701000 xent               TSX1    Z8E7$MOVE
        27 001013   000000 011000                    NOP     0
        27 001014   001061 710000 27                 TRA     s:18074

     1063    18042    4             ELSE
     1064    18043    5               DO;

     1065    18044    5                 LEX_SYMBOL.SIZE   = 6 ; /* Input arg to Z8AH */

  18044 27 001015   000006 235007                    LDA     6,DL
        27 001016   000010 755000 1                  STA     LEX_SYMBOL+8

     1066    18045    5                 LEX_SYMBOL.SYMBOL = 'SPACES' ;

  18045 27 001017   040000 100400                    MLR     fill='040'O
        27 001020   000000 000006 26                 ADSC9   0                        cn=0,n=6
        27 001021   000011 000504 1                  ADSC9   LEX_SYMBOL+9             cn=0,n=324

     1067    18046    5                 CALL Z8AH$SEARCH_ ; /* Result is DNT$ */

  18046 27 001022   000017 631400 28                 EPPR1   15
        27 001023   000000 701000 xent               TSX1    Z8AH$SEARCH_
        27 001024   000000 011000                    NOP     0

     1068    18047                      %INIT_LX_TERMINAL (@POINTER = "ADDR(VALL)",
     1069    18048                                         @DNT$   = DNT$,
PL6.E3A0      #007=Z8EQ$INITIALIZE_STATE File=Z8EQ.:Z8A6TSI                      SAT 08/09/97 12:42 Page:205
     1070    18049                                         @SYMBOL = %RSV_WRD_SPACES,
     1071    18050                                         @TYPE = %TYT,
     1072    18051                                         @LINE = "IDENT$ -> LX_ETT_ITEM.LINE",
     1073    18052                                         @COLUMN = "IDENT$ -> LX_ETT_ITEM.COLUMN");

  18054 27 001025   000000 220003                    LDX0    0,DU
        27 001026   200016 740100                    STX0    VALL,,AUTO

  18055 27 001027   000000 221003                    LDX1    0,DU
        27 001030   200016 441100                    SXL1    VALL,,AUTO

  18059 27 001031   000015 235007                    LDA     13,DL
        27 001032   200022 755100                    STA     VALL+4,,AUTO

  18061 27 001033   000000 236000 28                 LDQ     0
        27 001034   200025 756100                    STQ     VALL+7,,AUTO

  18063 27 001035   200017 756100                    STQ     VALL+1,,AUTO

  18064 27 001036   000650 235007                    LDA     424,DL
        27 001037   200021 755100                    STA     VALL+3,,AUTO

  18065 27 001040   000000 236000 5                  LDQ     DNT$
        27 001041   200020 756100                    STQ     VALL+2,,AUTO

  18066 27 001042   200101 470500                    LDP0    IDENT$,,AUTO
        27 001043   000005 235100                    LDA     5,,PR0
        27 001044   200023 755100                    STA     VALL+5,,AUTO

  18067 27 001045   000006 235100                    LDA     6,,PR0
        27 001046   200024 755100                    STA     VALL+6,,AUTO

     1074    18070    5                 CALL Z8E7$MOVE (IDENT$,

  18070 27 001047   200016 631500                    EPPR1   VALL,,AUTO
        27 001050   200142 451500                    STP1    TYPE_DESC+4,,AUTO
        27 001051   200142 633500                    EPPR3   TYPE_DESC+4,,AUTO
PL6.E3A0      #007=Z8EQ$INITIALIZE_STATE File=Z8EQ.:Z8A6TSI                      SAT 08/09/97 12:42 Page:206
        27 001052   200145 453500                    STP3    TYPE_DESC+7,,AUTO
        27 001053   200101 634500                    EPPR4   IDENT$,,AUTO
        27 001054   200144 454500                    STP4    TYPE_DESC+6,,AUTO
        27 001055   200144 630500                    EPPR0   TYPE_DESC+6,,AUTO
        27 001056   000001 631400 28                 EPPR1   1
        27 001057   000000 701000 xent               TSX1    Z8E7$MOVE
        27 001060   000000 011000                    NOP     0

     1075    18071    5                                 ADDR(VALL));
     1076    18072
     1077    18073    5               END;

     1078    18074    4             INIT_COUNT = INIT_COUNT + 1;

  18074 27 001061   200105 054100                    AOS     INIT_COUNT,,AUTO

     1079    18075    4           END;

     1080    18076    3       END;

  18076 27 001062   001307 710000 27                 TRA     s:18187

     1081    18077    2     ELSE
     1082    18078
     1083    18079    3       DO WHILE INIT$ ~= ADDR(NIL);

  18079 27 001063   001304 710000 27                 TRA     s:18185

     1084    18080
     1085    18081              %FISH (TRIAD = "INIT$ -> LX_ETT_ITEM.ETT$",
     1086    18082                     RTN = INIT_ST$);

  18084 27 001064   200077 470500                    LDP0    INIT$,,AUTO
        27 001065   000001 236100                    LDQ     1,,PR0
        27 001066   200106 756100                    STQ     INIT_ST$,,AUTO

  18085 27 001067   200106 471500                    LDP1    INIT_ST$,,AUTO
PL6.E3A0      #007=Z8EQ$INITIALIZE_STATE File=Z8EQ.:Z8A6TSI                      SAT 08/09/97 12:42 Page:207
        27 001070   100000 220100                    LDX0    0,,PR1
        27 001071   000751 100003                    CMPX0   489,DU
        27 001072   001102 603000 27                 TRC     s:18091

  18086 27 001073   200106 470500                    LDP0    INIT_ST$,,AUTO
        27 001074   000001 236100                    LDQ     1,,PR0
        27 001075   200106 756100                    STQ     INIT_ST$,,AUTO

  18087 27 001076   200106 470500                    LDP0    INIT_ST$,,AUTO
        27 001077   000000 220100                    LDX0    0,,PR0
        27 001100   000751 100003                    CMPX0   489,DU
        27 001101   001073 602000 27                 TNC     s:18086

     1087    18090
     1088    18091    4         DO CASE (INIT_ST$ -> VARIABLE.B.CLASS);

  18091 27 001102   200106 470500                    LDP0    INIT_ST$,,AUTO
        27 001103   000003 720100                    LXL0    3,,PR0
        27 001104   000007 360003                    ANX0    7,DU
        27 001105   000010 100003                    CMPX0   8,DU
        27 001106   001110 602010 27                 TNC     s:18091+6,X0
        27 001107   001301 710000 27                 TRA     s:18184
        27 001110   001120 710000 27                 TRA     s:18097
        27 001111   001234 710000 27                 TRA     s:18157
        27 001112   001143 710000 27                 TRA     s:18112
        27 001113   001166 710000 27                 TRA     s:18127
        27 001114   001301 710000 27                 TRA     s:18184
        27 001115   001257 710000 27                 TRA     s:18172
        27 001116   001143 710000 27                 TRA     s:18112
        27 001117   001211 710000 27                 TRA     s:18142

     1089    18092
     1090    18093    4           CASE (%CLASS_POINTER );

     1091    18094
     1092    18095                  %SET_VALUE (@RSV_WRD_CLASS = %RSV_WRD_POINTER );

PL6.E3A0      #007=Z8EQ$INITIALIZE_STATE File=Z8EQ.:Z8A6TSI                      SAT 08/09/97 12:42 Page:208
  18097 27 001120   200115 471500                    LDP1    @INIT_TYPE$,,AUTO
        27 001121   100000 236100                    LDQ     0,,PR1
        27 001122   000000 116000 28                 CMPQ    0
        27 001123   001301 600000 27                 TZE     s:18184
        27 001124   100000 473500                    LDP3    0,,PR1
        27 001125   300003 235100                    LDA     3,,PR3
        27 001126   000522 115007                    CMPA    338,DL
        27 001127   001301 601000 27                 TNZ     s:18184

  18100 27 001130   200116 236100                    LDQ     @INIT_VALUE$,,AUTO
        27 001131   200124 756100                    STQ     @VAL$,,AUTO
        27 001132   200106 633500                    EPPR3   INIT_ST$,,AUTO
        27 001133   200123 453500                    STP3    @INIT_ST$,,AUTO
        27 001134   200101 634500                    EPPR4   IDENT$,,AUTO
        27 001135   200122 454500                    STP4    @IDENT$,,AUTO
        27 001136   200077 635500                    EPPR5   INIT$,,AUTO
        27 001137   200121 455500                    STP5    @INIT$,,AUTO
        27 001140   000456 701000 27                 TSX1    INITIALIZE_VAR
        27 001141   000000 011000                    NOP     0

  18105 27 001142   001301 710000 27                 TRA     s:18184

     1093    18107
     1094    18108    4           CASE (%CLASS_ALPHABETIC, %CLASS_ALPHABETIC_EDITED );

     1095    18109
     1096    18110                  %SET_VALUE (@RSV_WRD_CLASS = %RSV_WRD_ALPHABETIC );

  18112 27 001143   200115 471500                    LDP1    @INIT_TYPE$,,AUTO
        27 001144   100000 236100                    LDQ     0,,PR1
        27 001145   000000 116000 28                 CMPQ    0
        27 001146   001301 600000 27                 TZE     s:18184
        27 001147   100000 473500                    LDP3    0,,PR1
        27 001150   300003 235100                    LDA     3,,PR3
        27 001151   000050 115007                    CMPA    40,DL
        27 001152   001301 601000 27                 TNZ     s:18184

PL6.E3A0      #007=Z8EQ$INITIALIZE_STATE File=Z8EQ.:Z8A6TSI                      SAT 08/09/97 12:42 Page:209
  18115 27 001153   200116 236100                    LDQ     @INIT_VALUE$,,AUTO
        27 001154   200124 756100                    STQ     @VAL$,,AUTO
        27 001155   200106 633500                    EPPR3   INIT_ST$,,AUTO
        27 001156   200123 453500                    STP3    @INIT_ST$,,AUTO
        27 001157   200101 634500                    EPPR4   IDENT$,,AUTO
        27 001160   200122 454500                    STP4    @IDENT$,,AUTO
        27 001161   200077 635500                    EPPR5   INIT$,,AUTO
        27 001162   200121 455500                    STP5    @INIT$,,AUTO
        27 001163   000456 701000 27                 TSX1    INITIALIZE_VAR
        27 001164   000000 011000                    NOP     0

  18120 27 001165   001301 710000 27                 TRA     s:18184

     1097    18122
     1098    18123    4           CASE (%CLASS_ALPHANUMERIC);

     1099    18124
     1100    18125                  %SET_VALUE (@RSV_WRD_CLASS = %RSV_WRD_ALPHANUMERIC );

  18127 27 001166   200115 471500                    LDP1    @INIT_TYPE$,,AUTO
        27 001167   100000 236100                    LDQ     0,,PR1
        27 001170   000000 116000 28                 CMPQ    0
        27 001171   001301 600000 27                 TZE     s:18184
        27 001172   100000 473500                    LDP3    0,,PR1
        27 001173   300003 235100                    LDA     3,,PR3
        27 001174   000053 115007                    CMPA    43,DL
        27 001175   001301 601000 27                 TNZ     s:18184

  18130 27 001176   200116 236100                    LDQ     @INIT_VALUE$,,AUTO
        27 001177   200124 756100                    STQ     @VAL$,,AUTO
        27 001200   200106 633500                    EPPR3   INIT_ST$,,AUTO
        27 001201   200123 453500                    STP3    @INIT_ST$,,AUTO
        27 001202   200101 634500                    EPPR4   IDENT$,,AUTO
        27 001203   200122 454500                    STP4    @IDENT$,,AUTO
        27 001204   200077 635500                    EPPR5   INIT$,,AUTO
        27 001205   200121 455500                    STP5    @INIT$,,AUTO
        27 001206   000456 701000 27                 TSX1    INITIALIZE_VAR
PL6.E3A0      #007=Z8EQ$INITIALIZE_STATE File=Z8EQ.:Z8A6TSI                      SAT 08/09/97 12:42 Page:210
        27 001207   000000 011000                    NOP     0

  18135 27 001210   001301 710000 27                 TRA     s:18184

     1101    18137
     1102    18138    4           CASE (%CLASS_ALPHANUMERIC_EDITED);

     1103    18139
     1104    18140                  %SET_VALUE (@RSV_WRD_CLASS = %RSV_WRD_ALPHANUMERIC_EDITED );

  18142 27 001211   200115 471500                    LDP1    @INIT_TYPE$,,AUTO
        27 001212   100000 236100                    LDQ     0,,PR1
        27 001213   000000 116000 28                 CMPQ    0
        27 001214   001301 600000 27                 TZE     s:18184
        27 001215   100000 473500                    LDP3    0,,PR1
        27 001216   300003 235100                    LDA     3,,PR3
        27 001217   000054 115007                    CMPA    44,DL
        27 001220   001301 601000 27                 TNZ     s:18184

  18145 27 001221   200116 236100                    LDQ     @INIT_VALUE$,,AUTO
        27 001222   200124 756100                    STQ     @VAL$,,AUTO
        27 001223   200106 633500                    EPPR3   INIT_ST$,,AUTO
        27 001224   200123 453500                    STP3    @INIT_ST$,,AUTO
        27 001225   200101 634500                    EPPR4   IDENT$,,AUTO
        27 001226   200122 454500                    STP4    @IDENT$,,AUTO
        27 001227   200077 635500                    EPPR5   INIT$,,AUTO
        27 001230   200121 455500                    STP5    @INIT$,,AUTO
        27 001231   000456 701000 27                 TSX1    INITIALIZE_VAR
        27 001232   000000 011000                    NOP     0

  18150 27 001233   001301 710000 27                 TRA     s:18184

     1105    18152
     1106    18153    4           CASE (%CLASS_NUMERIC);

     1107    18154
     1108    18155                  %SET_VALUE (@RSV_WRD_CLASS = %RSV_WRD_NUMERIC );
PL6.E3A0      #007=Z8EQ$INITIALIZE_STATE File=Z8EQ.:Z8A6TSI                      SAT 08/09/97 12:42 Page:211

  18157 27 001234   200115 471500                    LDP1    @INIT_TYPE$,,AUTO
        27 001235   100000 236100                    LDQ     0,,PR1
        27 001236   000000 116000 28                 CMPQ    0
        27 001237   001301 600000 27                 TZE     s:18184
        27 001240   100000 473500                    LDP3    0,,PR1
        27 001241   300003 235100                    LDA     3,,PR3
        27 001242   000465 115007                    CMPA    309,DL
        27 001243   001301 601000 27                 TNZ     s:18184

  18160 27 001244   200116 236100                    LDQ     @INIT_VALUE$,,AUTO
        27 001245   200124 756100                    STQ     @VAL$,,AUTO
        27 001246   200106 633500                    EPPR3   INIT_ST$,,AUTO
        27 001247   200123 453500                    STP3    @INIT_ST$,,AUTO
        27 001250   200101 634500                    EPPR4   IDENT$,,AUTO
        27 001251   200122 454500                    STP4    @IDENT$,,AUTO
        27 001252   200077 635500                    EPPR5   INIT$,,AUTO
        27 001253   200121 455500                    STP5    @INIT$,,AUTO
        27 001254   000456 701000 27                 TSX1    INITIALIZE_VAR
        27 001255   000000 011000                    NOP     0

  18165 27 001256   001301 710000 27                 TRA     s:18184

     1109    18167
     1110    18168    4           CASE (%CLASS_NUMERIC_EDITED);

     1111    18169
     1112    18170                  %SET_VALUE (@RSV_WRD_CLASS = %RSV_WRD_NUMERIC_EDITED );

  18172 27 001257   200115 471500                    LDP1    @INIT_TYPE$,,AUTO
        27 001260   100000 236100                    LDQ     0,,PR1
        27 001261   000000 116000 28                 CMPQ    0
        27 001262   001301 600000 27                 TZE     s:18184
        27 001263   100000 473500                    LDP3    0,,PR1
        27 001264   300003 235100                    LDA     3,,PR3
        27 001265   000466 115007                    CMPA    310,DL
        27 001266   001301 601000 27                 TNZ     s:18184
PL6.E3A0      #007=Z8EQ$INITIALIZE_STATE File=Z8EQ.:Z8A6TSI                      SAT 08/09/97 12:42 Page:212

  18175 27 001267   200116 236100                    LDQ     @INIT_VALUE$,,AUTO
        27 001270   200124 756100                    STQ     @VAL$,,AUTO
        27 001271   200106 633500                    EPPR3   INIT_ST$,,AUTO
        27 001272   200123 453500                    STP3    @INIT_ST$,,AUTO
        27 001273   200101 634500                    EPPR4   IDENT$,,AUTO
        27 001274   200122 454500                    STP4    @IDENT$,,AUTO
        27 001275   200077 635500                    EPPR5   INIT$,,AUTO
        27 001276   200121 455500                    STP5    @INIT$,,AUTO
        27 001277   000456 701000 27                 TSX1    INITIALIZE_VAR
        27 001300   000000 011000                    NOP     0

     1113    18182    4         END;

     1114    18183
     1115    18184    3         INIT$ = INIT$ -> LX_ETT_ITEM.LINK;

  18184 27 001301   200077 470500                    LDP0    INIT$,,AUTO
        27 001302   000007 236100                    LDQ     7,,PR0
        27 001303   200077 756100                    STQ     INIT$,,AUTO

     1116    18185    3       END;  /* do while */

  18185 27 001304   200077 236100                    LDQ     INIT$,,AUTO
        27 001305   000000 116000 28                 CMPQ    0
        27 001306   001064 601000 27                 TNZ     s:18084

     1117    18186
     1118    18187    2   END REPLACING;

  18187 27 001307   200114 221300                    LDX1  ! SUBSCR$+2,,AUTO
        27 001310   000001 702211                    TSX2  ! 1,X1

     1119    18188        %EJECT;
PL6.E3A0      #007=Z8EQ$INITIALIZE_STATE File=Z8EQ.:Z8A6TSI                      SAT 08/09/97 12:42 Page:213
     1120    18189        /*---------------*/
     1121    18190    1     REPLACE_DEFAULT :  PROC;

  18190 27 001311   200114 741300       REPLACE_DEF* STX1  ! SUBSCR$+2,,AUTO

     1122    18191        /*---------------*/
     1123    18192
     1124    18193
     1125    18194    2     CALL ISSUE_PERFORMS;

  18194 27 001312   000113 701000 27                 TSX1    ISSUE_PERFORMS
        27 001313   000000 011000                    NOP     0

     1126    18195    2     SUBSCR$ = ADDR (NIL);

  18195 27 001314   000000 236000 28                 LDQ     0
        27 001315   200112 756100                    STQ     SUBSCR$,,AUTO

     1127    18196    2     OFF = 0;

  18196 27 001316   200111 450100                    STZ     OFF,,AUTO

     1128    18197
     1129    18198    2     IF IDENT_ST$ -> VARIABLE.ID = %ARRAY THEN

  18198 27 001317   200100 470500                    LDP0    IDENT_ST$,,AUTO
        27 001320   000000 220100                    LDX0    0,,PR0
        27 001321   000765 100003                    CMPX0   501,DU
        27 001322   001432 601000 27                 TNZ     s:18257

     1130    18199    3       DO;

     1131    18200              %GET_LTS (@ID = %DIMS, @ST$ = IDENT_ST$, @RETURN$ = LAST_DIMS$);

  18202 27 001323   000005 236100                    LDQ     5,,PR0
        27 001324   000000 116000 28                 CMPQ    0
        27 001325   001335 600000 27                 TZE     s:18236
PL6.E3A0      #007=Z8EQ$INITIALIZE_STATE File=Z8EQ.:Z8A6TSI                      SAT 08/09/97 12:42 Page:214
        27 001326   000005 471500                    LDP1    5,,PR0
        27 001327   100000 221100                    LDX1    0,,PR1
        27 001330   001105 101003                    CMPX1   581,DU
        27 001331   001335 601000 27                 TNZ     s:18236

  18206 27 001332   100001 236100                    LDQ     1,,PR1
        27 001333   200107 756100                    STQ     LAST_DIMS$,,AUTO

  18234 27 001334   001347 710000 27                 TRA     s:18243

  18236 27 001335   000000 116000 28                 CMPQ    0
        27 001336   001345 600000 27                 TZE     s:18240
        27 001337   000005 471500                    LDP1    5,,PR0
        27 001340   100000 221100                    LDX1    0,,PR1
        27 001341   001104 101003                    CMPX1   580,DU
        27 001342   001345 601000 27                 TNZ     s:18240

  18238 27 001343   200107 756100                    STQ     LAST_DIMS$,,AUTO
        27 001344   001347 710000 27                 TRA     s:18243

  18240 27 001345   000000 236000 28                 LDQ     0
        27 001346   200107 756100                    STQ     LAST_DIMS$,,AUTO

     1132    18243    3        CALL GET_INDICES ((LAST_DIMS$ -> DIMS.N - %MIN_DIM_SIZE) / %NO_WORDS_PER_DIM);

  18243 27 001347   200107 471500                    LDP1    LAST_DIMS$,,AUTO
        27 001350   100000 236100                    LDQ     0,,PR1
        27 001351   777777 376007                    ANQ     -1,DL
        27 001352   000005 136007                    SBLQ    5,DL
        27 001353   000003 506007                    DIV     3,DL
        27 001354   200153 756100                    STQ     TYPE_DESC+13,,AUTO
        27 001355   200153 633500                    EPPR3   TYPE_DESC+13,,AUTO
        27 001356   200133 453500                    STP3    I,,AUTO
        27 001357   000003 701000 27                 TSX1    GET_INDICES
        27 001360   000000 011000                    NOP     0

     1133    18244    3         CALL Z8EY$SUBSCRIPT (ADDR (DIMS_INDEX_LIST), IDENT$);
PL6.E3A0      #007=Z8EQ$INITIALIZE_STATE File=Z8EQ.:Z8A6TSI                      SAT 08/09/97 12:42 Page:215

  18244 27 001361   200066 630500                    EPPR0   DIMS_INDEX_LIST,,AUTO
        27 001362   200142 450500                    STP0    TYPE_DESC+4,,AUTO
        27 001363   200101 631500                    EPPR1   IDENT$,,AUTO
        27 001364   200145 451500                    STP1    TYPE_DESC+7,,AUTO
        27 001365   200142 633500                    EPPR3   TYPE_DESC+4,,AUTO
        27 001366   200144 453500                    STP3    TYPE_DESC+6,,AUTO
        27 001367   200144 630500                    EPPR0   TYPE_DESC+6,,AUTO
        27 001370   000001 631400 28                 EPPR1   1
        27 001371   000000 701000 xent               TSX1    Z8EY$SUBSCRIPT
        27 001372   000000 011000                    NOP     0

     1134    18245    3         IF IDENT$ -> LX_ETT_ITEM.ETT$ -> ETT.ID = %SIZ OR

  18245 27 001373   200101 470500                    LDP0    IDENT$,,AUTO
        27 001374   000001 471500                    LDP1    1,,PR0
        27 001375   100000 220100                    LDX0    0,,PR1
        27 001376   000004 100003                    CMPX0   4,DU
        27 001377   001402 600000 27                 TZE     s:18247
        27 001400   000006 100003                    CMPX0   6,DU
        27 001401   001404 601000 27                 TNZ     s:18248

     1135    18246    3             IDENT$ -> LX_ETT_ITEM.ETT$ -> ETT.ID = %DAN /* GBCD numeric */ THEN
     1136    18247    3           IDENT$ -> LX_ETT_ITEM.ETT$ = IDENT$ -> LX_ETT_ITEM.ETT$ -> ETT.LOP;

  18247 27 001402   100001 236100                    LDQ     1,,PR1
        27 001403   000001 756100                    STQ     1,,PR0

     1137    18248    3         IF IDENT$ -> LX_ETT_ITEM.ETT$ -> ETT.ID = %SSOP THEN

  18248 27 001404   200101 470500                    LDP0    IDENT$,,AUTO
        27 001405   000001 471500                    LDP1    1,,PR0
        27 001406   100000 220100                    LDX0    0,,PR1
        27 001407   000005 100003                    CMPX0   5,DU
        27 001410   001424 601000 27                 TNZ     s:18254

     1138    18249    4           DO;
PL6.E3A0      #007=Z8EQ$INITIALIZE_STATE File=Z8EQ.:Z8A6TSI                      SAT 08/09/97 12:42 Page:216

     1139    18250    4             SUBSCR$ = IDENT$ -> LX_ETT_ITEM.ETT$ -> ETT.ROP;

  18250 27 001411   100002 236100                    LDQ     2,,PR1
        27 001412   200112 756100                    STQ     SUBSCR$,,AUTO

     1140    18251    4             IF IDENT$ -> LX_ETT_ITEM.ETT$ -> ETT.LOP -> ETT.ID = %OFF

  18251 27 001413   000001 471500                    LDP1    1,,PR0
        27 001414   100001 473500                    LDP3    1,,PR1
        27 001415   300000 220100                    LDX0    0,,PR3
        27 001416   000003 100003                    CMPX0   3,DU
        27 001417   001436 601000 27                 TNZ     s:18259

     1141    18252    4               THEN OFF = IDENT$ -> LX_ETT_ITEM.ETT$ -> ETT.LOP -> ETT.OFFSET.VALUE;

  18252 27 001420   300002 236100                    LDQ     2,,PR3
        27 001421   000022 732000                    QRS     18
        27 001422   200111 756100                    STQ     OFF,,AUTO

     1142    18253    4           END;

  18253 27 001423   001436 710000 27                 TRA     s:18259

     1143    18254    3         ELSE IF IDENT$ -> LX_ETT_ITEM.ETT$ -> ETT.ID = %OFF

  18254 27 001424   000003 100003                    CMPX0   3,DU
        27 001425   001436 601000 27                 TNZ     s:18259

     1144    18255    3           THEN OFF = IDENT$ -> LX_ETT_ITEM.ETT$ -> ETT.OFFSET.VALUE;

  18255 27 001426   100002 236100                    LDQ     2,,PR1
        27 001427   000022 732000                    QRS     18
        27 001430   200111 756100                    STQ     OFF,,AUTO

     1145    18256    3       END; /* ARRAY */

PL6.E3A0      #007=Z8EQ$INITIALIZE_STATE File=Z8EQ.:Z8A6TSI                      SAT 08/09/97 12:42 Page:217
  18256 27 001431   001436 710000 27                 TRA     s:18259

     1146    18257    2     ELSE IF IDENT_ST$ -> VARIABLE.ID ~= %SCALAR THEN

  18257 27 001432   000766 100003                    CMPX0   502,DU
        27 001433   001436 600000 27                 TZE     s:18259

     1147    18258    2       RETURN; /* Nothing to initialize */

  18258 27 001434   200114 221300                    LDX1  ! SUBSCR$+2,,AUTO
        27 001435   000001 702211                    TSX2  ! 1,X1

     1148    18259    2     IF NUM_SUBS_GIVEN = 0 THEN

  18259 27 001436   200103 235100                    LDA     NUM_SUBS_GIVEN,,AUTO
        27 001437   001515 601000 27                 TNZ     s:18311

     1149    18260    3       DO;

     1150    18261              %GET_LTS (@ID = %INIT_LTS, @ST$ = IDENT_ST$, @RETURN$ = INIT_LTS$);

  18263 27 001440   200100 470500                    LDP0    IDENT_ST$,,AUTO
        27 001441   000005 236100                    LDQ     5,,PR0
        27 001442   000000 116000 28                 CMPQ    0
        27 001443   001453 600000 27                 TZE     s:18297
        27 001444   000005 471500                    LDP1    5,,PR0
        27 001445   100000 220100                    LDX0    0,,PR1
        27 001446   001105 100003                    CMPX0   581,DU
        27 001447   001453 601000 27                 TNZ     s:18297

  18293 27 001450   100011 236100                    LDQ     9,,PR1
        27 001451   200110 756100                    STQ     INIT_LTS$,,AUTO

  18295 27 001452   001465 710000 27                 TRA     s:18304

  18297 27 001453   000000 116000 28                 CMPQ    0
        27 001454   001463 600000 27                 TZE     s:18301
PL6.E3A0      #007=Z8EQ$INITIALIZE_STATE File=Z8EQ.:Z8A6TSI                      SAT 08/09/97 12:42 Page:218
        27 001455   000005 471500                    LDP1    5,,PR0
        27 001456   100000 220100                    LDX0    0,,PR1
        27 001457   001062 100003                    CMPX0   562,DU
        27 001460   001463 601000 27                 TNZ     s:18301

  18299 27 001461   200110 756100                    STQ     INIT_LTS$,,AUTO
        27 001462   001465 710000 27                 TRA     s:18304

  18301 27 001463   000000 236000 28                 LDQ     0
        27 001464   200110 756100                    STQ     INIT_LTS$,,AUTO

     1151    18304    3         IF INIT_LTS$ = ADDR (NIL) THEN

  18304 27 001465   000000 116000 28                 CMPQ    0
        27 001466   001531 601000 27                 TNZ     s:18312

     1152    18305    4           DO;

     1153    18306    4             CALL Z8EU$MAKE_INIT_LTS (IDENT_ST$, SUBSCR$, OFF, INIT_LTS$);

  18306 27 001467   200110 631500                    EPPR1   INIT_LTS$,,AUTO
        27 001470   200145 451500                    STP1    TYPE_DESC+7,,AUTO
        27 001471   200111 633500                    EPPR3   OFF,,AUTO
        27 001472   200144 453500                    STP3    TYPE_DESC+6,,AUTO
        27 001473   200112 634500                    EPPR4   SUBSCR$,,AUTO
        27 001474   200143 454500                    STP4    TYPE_DESC+5,,AUTO
        27 001475   200100 635500                    EPPR5   IDENT_ST$,,AUTO
        27 001476   200142 455500                    STP5    TYPE_DESC+4,,AUTO
        27 001477   200142 630500                    EPPR0   TYPE_DESC+4,,AUTO
        27 001500   000007 631400 28                 EPPR1   7
        27 001501   000000 701000 xent               TSX1    Z8EU$MAKE_INIT_LTS
        27 001502   000000 011000                    NOP     0

     1154    18307    4             CALL Z8DO$LINK_WITH_LTS (IDENT_ST$ -> VARIABLE.LTS$, INIT_LTS$);

  18307 27 001503   200110 630500                    EPPR0   INIT_LTS$,,AUTO
        27 001504   200143 450500                    STP0    TYPE_DESC+5,,AUTO
PL6.E3A0      #007=Z8EQ$INITIALIZE_STATE File=Z8EQ.:Z8A6TSI                      SAT 08/09/97 12:42 Page:219
        27 001505   200100 236100                    LDQ     IDENT_ST$,,AUTO
        27 001506   000005 036003                    ADLQ    5,DU
        27 001507   200142 756100                    STQ     TYPE_DESC+4,,AUTO
        27 001510   200142 630500                    EPPR0   TYPE_DESC+4,,AUTO
        27 001511   000001 631400 28                 EPPR1   1
        27 001512   000000 701000 xent               TSX1    Z8DO$LINK_WITH_LTS
        27 001513   000000 011000                    NOP     0

     1155    18308    4           END;

     1156    18309    3       END;

  18309 27 001514   001531 710000 27                 TRA     s:18312

     1157    18310    2     ELSE
     1158    18311    2       CALL Z8EU$MAKE_INIT_LTS (IDENT_ST$, SUBSCR$, OFF, INIT_LTS$);

  18311 27 001515   200110 630500                    EPPR0   INIT_LTS$,,AUTO
        27 001516   200145 450500                    STP0    TYPE_DESC+7,,AUTO
        27 001517   200111 631500                    EPPR1   OFF,,AUTO
        27 001520   200144 451500                    STP1    TYPE_DESC+6,,AUTO
        27 001521   200112 633500                    EPPR3   SUBSCR$,,AUTO
        27 001522   200143 453500                    STP3    TYPE_DESC+5,,AUTO
        27 001523   200100 634500                    EPPR4   IDENT_ST$,,AUTO
        27 001524   200142 454500                    STP4    TYPE_DESC+4,,AUTO
        27 001525   200142 630500                    EPPR0   TYPE_DESC+4,,AUTO
        27 001526   000007 631400 28                 EPPR1   7
        27 001527   000000 701000 xent               TSX1    Z8EU$MAKE_INIT_LTS
        27 001530   000000 011000                    NOP     0

     1159    18312    2     IF INIT_LTS$ -> INIT_LTS.BASE$ ~= ADDR (NIL) THEN

  18312 27 001531   200110 470500                    LDP0    INIT_LTS$,,AUTO
        27 001532   000001 236100                    LDQ     1,,PR0
        27 001533   000000 116000 28                 CMPQ    0
        27 001534   001545 600000 27                 TZE     s:18318

PL6.E3A0      #007=Z8EQ$INITIALIZE_STATE File=Z8EQ.:Z8A6TSI                      SAT 08/09/97 12:42 Page:220
     1160    18313    3       DO;

     1161    18314    3         CALL Z8EQ$OPTIMIZED_INITIAL (INIT_LTS$);

  18314 27 001535   200110 631500                    EPPR1   INIT_LTS$,,AUTO
        27 001536   200142 451500                    STP1    TYPE_DESC+4,,AUTO
        27 001537   200142 630500                    EPPR0   TYPE_DESC+4,,AUTO
        27 001540   000004 631400 28                 EPPR1   4
        27 001541   000000 701000 xent               TSX1    Z8EQ$OPTIMIZED_INITIAL
        27 001542   000000 011000                    NOP     0

     1162    18315    3         INIT_COUNT = 1;

  18315 27 001543   000001 235007                    LDA     1,DL
        27 001544   200105 755100                    STA     INIT_COUNT,,AUTO

     1163    18316    3       END;

     1164    18317
     1165    18318    2   END REPLACE_DEFAULT;

  18318 27 001545   200114 221300                    LDX1  ! SUBSCR$+2,,AUTO
        27 001546   000001 702211                    TSX2  ! 1,X1

     1166    18319        %EJECT;
PL6.E3A0      #007=Z8EQ$INITIALIZE_STATE File=Z8EQ.:Z8A6TSI                      SAT 08/09/97 12:42 Page:221
     1167    18320                /* Main body of Initialize_statement */
     1168    18321
     1169    18322        %SET_PHASE_1_POSITION( @LINE = KEY_WORD$ -> LX_TERMINAL.LINE,
     1170    18323                               @COLUMN = KEY_WORD$ -> LX_TERMINAL.COLUMN,
     1171    18324                               @TYPE = %S_TYPE_INITIALIZE );

  18326 27 001547   200003 470500                    LDP0    @KEY_WORD$,,AUTO
        27 001550   000000 471500                    LDP1    0,,PR0
        27 001551   100005 235100                    LDA     5,,PR1
        27 001552   000007 755000 xsym               STA     O1COM+7

  18327 27 001553   000000 471500                    LDP1    0,,PR0
        27 001554   100006 235100                    LDA     6,,PR1
        27 001555   000010 755000 xsym               STA     O1COM+8

  18328 27 001556   000011 236000 xsym               LDQ     O1COM+9
        27 001557   001574 600000 27                 TZE     s:18710

  18363 27 001560   000021 236000 28                 LDQ     17
        27 001561   200142 756100                    STQ     TYPE_DESC+4,,AUTO
        27 001562   200142 631500                    EPPR1   TYPE_DESC+4,,AUTO
        27 001563   200147 451500                    STP1    TYPE_DESC+9,,AUTO
        27 001564   000022 236000 28                 LDQ     18
        27 001565   200146 756100                    STQ     TYPE_DESC+8,,AUTO
        27 001566   000024 237000 28                 LDAQ    20
        27 001567   200144 757100                    STAQ    TYPE_DESC+6,,AUTO
        27 001570   200144 630500                    EPPR0   TYPE_DESC+6,,AUTO
        27 001571   000007 631400 28                 EPPR1   7
        27 001572   000000 701000 xent               TSX1    Z8AN$NEW_ILL
        27 001573   000000 011000                    NOP     0

  18710 27 001574   000074 235007                    LDA     60,DL
        27 001575   000011 755000 xsym               STA     O1COM+9

     1172    18713    1   IF COMCOM.OB.FIPS.LEVEL >= %INT_LEV THEN

  18713 27 001576   000036 720000 xsym               LXL0    COMCOM+30
PL6.E3A0      #007=Z8EQ$INITIALIZE_STATE File=Z8EQ.:Z8A6TSI                      SAT 08/09/97 12:42 Page:222
        27 001577   000002 100003                    CMPX0   2,DU
        27 001600   001605 604000 27                 TMI     s:18720

     1173    18714    1     CALL Z8AE$ERROR (%E$LEVEL_CHECK,

  18714 27 001601   000027 630400 28                 EPPR0   23
        27 001602   000010 631400 28                 EPPR1   8
        27 001603   000000 701000 xent               TSX1    Z8AE$ERROR
        27 001604   000000 011000                    NOP     0

     1174    18715    1                      O1COM.LINE_NO,
     1175    18716    1                      O1COM.COLUMN_NO);
     1176    18717
     1177    18718        %INIT_ILS_LIST (@POINTER = "ADDR(SAVED_ILS_LIST)");

  18720 27 001605   000007 220003                    LDX0    7,DU
        27 001606   200056 740100                    STX0    SAVED_ILS_LIST,,AUTO

  18721 27 001607   000000 236000 28                 LDQ     0
        27 001610   200057 756100                    STQ     SAVED_ILS_LIST+1,,AUTO

  18722 27 001611   200060 756100                    STQ     SAVED_ILS_LIST+2,,AUTO

  18723 27 001612   200065 756100                    STQ     SAVED_ILS_LIST+7,,AUTO

     1178    18726        %INIT_LX_LIST (@POINTER = "ADDR(DIMS_INDEX_LIST)");

  18728 27 001613   000002 221003                    LDX1    2,DU
        27 001614   200066 741100                    STX1    DIMS_INDEX_LIST,,AUTO

  18729 27 001615   000000 222003                    LDX2    0,DU
        27 001616   200066 442100                    SXL2    DIMS_INDEX_LIST,,AUTO

  18730 27 001617   200067 756100                    STQ     DIMS_INDEX_LIST+1,,AUTO

  18731 27 001620   200072 756100                    STQ     DIMS_INDEX_LIST+4,,AUTO

PL6.E3A0      #007=Z8EQ$INITIALIZE_STATE File=Z8EQ.:Z8A6TSI                      SAT 08/09/97 12:42 Page:223
  18732 27 001621   200075 756100                    STQ     DIMS_INDEX_LIST+7,,AUTO

  18733 27 001622   200070 450100                    STZ     DIMS_INDEX_LIST+2,,AUTO

     1179    18736
     1180    18737    1   LAST_DIMS$ = ADDR(NIL);

  18737 27 001623   200107 756100                    STQ     LAST_DIMS$,,AUTO

     1181    18738
     1182    18739    1   QUAL_ID$ = QUAL_ID_LIST$ -> LX_LIST.HEAD$;

  18739 27 001624   200004 470500                    LDP0    @QUAL_ID_LIST$,,AUTO
        27 001625   000000 471500                    LDP1    0,,PR0
        27 001626   100004 236100                    LDQ     4,,PR1
        27 001627   200104 756100                    STQ     QUAL_ID$,,AUTO

     1183    18740
     1184    18741    2   DO WHILE QUAL_ID$ ~= ADDR(NIL);

  18741 27 001630   002040 710000 27                 TRA     s:18844

     1185    18742
     1186    18743    2     NUM_SUBS_GIVEN = 0;

  18743 27 001631   200103 450100                    STZ     NUM_SUBS_GIVEN,,AUTO

     1187    18744    2     SUBSCRIPTS$ = ADDR(NIL);

  18744 27 001632   000000 236000 28                 LDQ     0
        27 001633   200102 756100                    STQ     SUBSCRIPTS$,,AUTO

     1188    18745
     1189    18746    2     IF QUAL_ID$ -> LX_ITEM.ID = %LX_ETT_ITEM THEN

  18746 27 001634   200104 470500                    LDP0    QUAL_ID$,,AUTO
        27 001635   000000 220100                    LDX0    0,,PR0
PL6.E3A0      #007=Z8EQ$INITIALIZE_STATE File=Z8EQ.:Z8A6TSI                      SAT 08/09/97 12:42 Page:224
        27 001636   000004 100003                    CMPX0   4,DU
        27 001637   001643 601000 27                 TNZ     s:18750

     1190    18747    2       IDENT$ = QUAL_ID$;

  18747 27 001640   200104 236100                    LDQ     QUAL_ID$,,AUTO
        27 001641   200101 756100                    STQ     IDENT$,,AUTO
        27 001642   001655 710000 27                 TRA     s:18758

     1191    18748    2     ELSE
     1192    18749    3       DO;

     1193    18750    3         IDENT$ = QUAL_ID$ -> LX_LIST.HEAD$;

  18750 27 001643   000004 236100                    LDQ     4,,PR0
        27 001644   200101 756100                    STQ     IDENT$,,AUTO

     1194    18751    3         SUBSCRIPTS$ = QUAL_ID$ -> LX_LIST.TAIL$;

  18751 27 001645   000001 236100                    LDQ     1,,PR0
        27 001646   200102 756100                    STQ     SUBSCRIPTS$,,AUTO

     1195    18752    3         CALL VERIFY_SUBSCRIPTING (IDENT$, SUBSCRIPTS$);

  18752 27 001647   200102 631500                    EPPR1   SUBSCRIPTS$,,AUTO
        27 001650   200116 451500                    STP1    @INIT_TYPE$+1,,AUTO
        27 001651   200101 633500                    EPPR3   IDENT$,,AUTO
        27 001652   200115 453500                    STP3    SUBSCR$+3,,AUTO
        27 001653   000271 701000 27                 TSX1    VERIFY_SUBSCRIPTING
        27 001654   000000 011000                    NOP     0

     1196    18753    3       END;

     1197    18754
     1198    18755          %FISH( TRIAD = IDENT$ -> LX_ETT_ITEM.ETT$,
     1199    18756                 RTN = IDENT_ST$ );

PL6.E3A0      #007=Z8EQ$INITIALIZE_STATE File=Z8EQ.:Z8A6TSI                      SAT 08/09/97 12:42 Page:225
  18758 27 001655   200101 470500                    LDP0    IDENT$,,AUTO
        27 001656   000001 236100                    LDQ     1,,PR0
        27 001657   200100 756100                    STQ     IDENT_ST$,,AUTO

  18759 27 001660   200100 471500                    LDP1    IDENT_ST$,,AUTO
        27 001661   100000 220100                    LDX0    0,,PR1
        27 001662   000751 100003                    CMPX0   489,DU
        27 001663   001673 603000 27                 TRC     s:18764

  18760 27 001664   200100 470500                    LDP0    IDENT_ST$,,AUTO
        27 001665   000001 236100                    LDQ     1,,PR0
        27 001666   200100 756100                    STQ     IDENT_ST$,,AUTO

  18761 27 001667   200100 470500                    LDP0    IDENT_ST$,,AUTO
        27 001670   000000 220100                    LDX0    0,,PR0
        27 001671   000751 100003                    CMPX0   489,DU
        27 001672   001664 602000 27                 TNC     s:18760

     1200    18764    2     INIT_COUNT = 0;

  18764 27 001673   200105 450100                    STZ     INIT_COUNT,,AUTO

     1201    18765    2     IF REPLACING_LIST$ = ADDR(NIL) AND NOT IDENT$ -> LX_ETT_ITEM.B.REFMOD THEN

  18765 27 001674   200005 470500                    LDP0    @REPLACING_LIST$,,AUTO
        27 001675   000000 236100                    LDQ     0,,PR0
        27 001676   000000 116000 28                 CMPQ    0
        27 001677   001707 601000 27                 TNZ     s:18771
        27 001700   200101 471500                    LDP1    IDENT$,,AUTO
        27 001701   100000 236100                    LDQ     0,,PR1
        27 001702   010000 316007                    CANQ    4096,DL
        27 001703   001707 601000 27                 TNZ     s:18771

     1202    18766    2       CALL REPLACE_DEFAULT;

  18766 27 001704   001311 701000 27                 TSX1    REPLACE_DEFAULT
        27 001705   000000 011000                    NOP     0
PL6.E3A0      #007=Z8EQ$INITIALIZE_STATE File=Z8EQ.:Z8A6TSI                      SAT 08/09/97 12:42 Page:226
        27 001706   002003 710000 27                 TRA     s:18802

     1203    18767    2     ELSE
     1204    18768    3       DO;

     1205    18769              %INIT_LX_LIST (@POINTER = "ADDR(INIT_LIST)");

  18771 27 001707   000002 220003                    LDX0    2,DU
        27 001710   200006 740100                    STX0    INIT_LIST,,AUTO

  18772 27 001711   000000 221003                    LDX1    0,DU
        27 001712   200006 441100                    SXL1    INIT_LIST,,AUTO

  18773 27 001713   000000 236000 28                 LDQ     0
        27 001714   200007 756100                    STQ     INIT_LIST+1,,AUTO

  18774 27 001715   200012 756100                    STQ     INIT_LIST+4,,AUTO

  18775 27 001716   200015 756100                    STQ     INIT_LIST+7,,AUTO

  18776 27 001717   200010 450100                    STZ     INIT_LIST+2,,AUTO

     1206    18779
     1207    18780    3         CALL Z8EU$GET_INITIALIZE_ITEMS( IDENT_ST$,

  18780 27 001720   200006 631500                    EPPR1   INIT_LIST,,AUTO
        27 001721   200142 451500                    STP1    TYPE_DESC+4,,AUTO
        27 001722   200142 633500                    EPPR3   TYPE_DESC+4,,AUTO
        27 001723   200145 453500                    STP3    TYPE_DESC+7,,AUTO
        27 001724   200100 634500                    EPPR4   IDENT_ST$,,AUTO
        27 001725   200144 454500                    STP4    TYPE_DESC+6,,AUTO
        27 001726   200144 630500                    EPPR0   TYPE_DESC+6,,AUTO
        27 001727   000001 631400 28                 EPPR1   1
        27 001730   000000 701000 xent               TSX1    Z8EU$GET_INITIALIZE_ITEMS
        27 001731   000000 011000                    NOP     0

     1208    18781    3                                         ADDR(INIT_LIST) );
PL6.E3A0      #007=Z8EQ$INITIALIZE_STATE File=Z8EQ.:Z8A6TSI                      SAT 08/09/97 12:42 Page:227
     1209    18782    3         INIT$ = ADDR(INIT_LIST) -> LX_LIST.HEAD$;

  18782 27 001732   200012 236100                    LDQ     INIT_LIST+4,,AUTO
        27 001733   200077 756100                    STQ     INIT$,,AUTO

     1210    18783
     1211    18784    3         IF REPLACING_LIST$ = ADDR(NIL)   THEN

  18784 27 001734   200005 470500                    LDP0    @REPLACING_LIST$,,AUTO
        27 001735   000000 236100                    LDQ     0,,PR0
        27 001736   000000 116000 28                 CMPQ    0
        27 001737   001752 601000 27                 TNZ     s:18788

     1212    18785    3           CALL REPLACING( ADDR(NIL), ADDR(NIL) );

  18785 27 001740   000000 236000 28                 LDQ     0
        27 001741   200154 756100                    STQ     TYPE_DESC+14,,AUTO
        27 001742   200155 756100                    STQ     TYPE_DESC+15,,AUTO
        27 001743   200155 631500                    EPPR1   TYPE_DESC+15,,AUTO
        27 001744   200116 451500                    STP1    @INIT_TYPE$+1,,AUTO
        27 001745   200154 633500                    EPPR3   TYPE_DESC+14,,AUTO
        27 001746   200115 453500                    STP3    SUBSCR$+3,,AUTO
        27 001747   000763 701000 27                 TSX1    REPLACING
        27 001750   000000 011000                    NOP     0
        27 001751   001775 710000 27                 TRA     s:18799

     1213    18786    3         ELSE
     1214    18787    4           DO;

     1215    18788    4             REPLACING$ = REPLACING_LIST$ -> LX_LIST.HEAD$;

  18788 27 001752   000000 471500                    LDP1    0,,PR0
        27 001753   100004 236100                    LDQ     4,,PR1
        27 001754   200076 756100                    STQ     REPLACING$,,AUTO

     1216    18789
     1217    18790    5             DO WHILE (REPLACING$ ~= ADDR(NIL) );
PL6.E3A0      #007=Z8EQ$INITIALIZE_STATE File=Z8EQ.:Z8A6TSI                      SAT 08/09/97 12:42 Page:228

  18790 27 001755   001773 710000 27                 TRA     s:18795

     1218    18791    5               INIT$ = ADDR(INIT_LIST) ->LX_LIST.HEAD$;

  18791 27 001756   200012 236100                    LDQ     INIT_LIST+4,,AUTO
        27 001757   200077 756100                    STQ     INIT$,,AUTO

     1219    18792    5               CALL REPLACING( REPLACING$ -> LX_LIST.HEAD$,

  18792 27 001760   200076 236100                    LDQ     REPLACING$,,AUTO
        27 001761   000001 036003                    ADLQ    1,DU
        27 001762   200116 756100                    STQ     @INIT_TYPE$+1,,AUTO
        27 001763   200076 236100                    LDQ     REPLACING$,,AUTO
        27 001764   000004 036003                    ADLQ    4,DU
        27 001765   200115 756100                    STQ     SUBSCR$+3,,AUTO
        27 001766   000763 701000 27                 TSX1    REPLACING
        27 001767   000000 011000                    NOP     0

     1220    18793    5                               REPLACING$ -> LX_LIST.TAIL$ );
     1221    18794    5               REPLACING$ = REPLACING$ -> LX_LIST.LINK;

  18794 27 001770   200076 470500                    LDP0    REPLACING$,,AUTO
        27 001771   000007 236100                    LDQ     7,,PR0
        27 001772   200076 756100                    STQ     REPLACING$,,AUTO

     1222    18795    5             END;

  18795 27 001773   000000 116000 28                 CMPQ    0
        27 001774   001756 601000 27                 TNZ     s:18791

     1223    18796
     1224    18797    4           END;

     1225    18798
     1226    18799    3         CALL Z8ED$DISPOSE_ABSSYN_TREE( ADDR(INIT_LIST) -> LX_LIST.HEAD$ );

PL6.E3A0      #007=Z8EQ$INITIALIZE_STATE File=Z8EQ.:Z8A6TSI                      SAT 08/09/97 12:42 Page:229
  18799 27 001775   200012 630500                    EPPR0   INIT_LIST+4,,AUTO
        27 001776   200142 450500                    STP0    TYPE_DESC+4,,AUTO
        27 001777   200142 630500                    EPPR0   TYPE_DESC+4,,AUTO
        27 002000   000004 631400 28                 EPPR1   4
        27 002001   000000 701000 xent               TSX1    Z8ED$DISPOSE_ABSSYN_TREE
        27 002002   000000 011000                    NOP     0

     1227    18800    3       END;

     1228    18801
     1229    18802    2     IF INIT_COUNT = 0 THEN

  18802 27 002003   200105 235100                    LDA     INIT_COUNT,,AUTO
        27 002004   002024 601000 27                 TNZ     s:18837

     1230    18803            %CONDITIONAL_ERROR (@LX_ITEM$ = IDENT$,
     1231    18804                                @ERROR# = %E$NO_INITIALIZE_VALUES,
     1232    18805                                @LINE = IDENT$ -> LX_ETT_ITEM.LINE,
     1233    18806                                @COLUMN = IDENT$ -> LX_ETT_ITEM.COLUMN);

  18816 27 002005   200101 470500                    LDP0    IDENT$,,AUTO
        27 002006   000000 236100                    LDQ     0,,PR0
        27 002007   400000 316007                    CANQ    -131072,DL
        27 002010   002024 601000 27                 TNZ     s:18837

  18818 27 002011   200101 236100                    LDQ     IDENT$,,AUTO
        27 002012   000006 036003                    ADLQ    6,DU
        27 002013   200144 756100                    STQ     TYPE_DESC+6,,AUTO
        27 002014   200101 236100                    LDQ     IDENT$,,AUTO
        27 002015   000005 036003                    ADLQ    5,DU
        27 002016   000033 235000 28                 LDA     27
        27 002017   200142 757100                    STAQ    TYPE_DESC+4,,AUTO
        27 002020   200142 630500                    EPPR0   TYPE_DESC+4,,AUTO
        27 002021   000010 631400 28                 EPPR1   8
        27 002022   000000 701000 xent               TSX1    Z8AE$ERROR
        27 002023   000000 011000                    NOP     0

PL6.E3A0      #007=Z8EQ$INITIALIZE_STATE File=Z8EQ.:Z8A6TSI                      SAT 08/09/97 12:42 Page:230
     1234    18836
     1235    18837    2     IF LAST_DIMS$ ~= ADDR(NIL) THEN

  18837 27 002024   200107 236100                    LDQ     LAST_DIMS$,,AUTO
        27 002025   000000 116000 28                 CMPQ    0
        27 002026   002031 600000 27                 TZE     s:18840

     1236    18838    2       CALL ISSUE_PERFORMS;

  18838 27 002027   000113 701000 27                 TSX1    ISSUE_PERFORMS
        27 002030   000000 011000                    NOP     0

     1237    18839
     1238    18840    2     CALL GET_INDICES (0);

  18840 27 002031   000024 236000 28                 LDQ     20
        27 002032   200133 756100                    STQ     NEED_TO_BE_SWAPPED+3,,AUTO
        27 002033   000003 701000 27                 TSX1    GET_INDICES
        27 002034   000000 011000                    NOP     0

     1239    18841
     1240    18842    2     QUAL_ID$ = QUAL_ID$ -> LX_LIST.LINK;

  18842 27 002035   200104 470500                    LDP0    QUAL_ID$,,AUTO
        27 002036   000007 236100                    LDQ     7,,PR0
        27 002037   200104 756100                    STQ     QUAL_ID$,,AUTO

     1241    18843
     1242    18844    2   END;  /* DO while QUAL_ID$ */

  18844 27 002040   000000 116000 28                 CMPQ    0
        27 002041   001631 601000 27                 TNZ     s:18743

     1243    18845
     1244    18846    1   IF REPLACING_LIST$ ~= ADDR(NIL)  THEN

  18846 27 002042   200005 470500                    LDP0    @REPLACING_LIST$,,AUTO
PL6.E3A0      #007=Z8EQ$INITIALIZE_STATE File=Z8EQ.:Z8A6TSI                      SAT 08/09/97 12:42 Page:231
        27 002043   000000 236100                    LDQ     0,,PR0
        27 002044   000000 116000 28                 CMPQ    0
        27 002045   002055 600000 27                 TZE     s:18849

     1245    18847    1     CALL Z8ED$DISPOSE_ABSSYN_TREE( REPLACING_LIST$ -> LX_LIST.HEAD$ );

  18847 27 002046   000000 471500                    LDP1    0,,PR0
        27 002047   100004 633500                    EPPR3   4,,PR1
        27 002050   200142 453500                    STP3    TYPE_DESC+4,,AUTO
        27 002051   200142 630500                    EPPR0   TYPE_DESC+4,,AUTO
        27 002052   000004 631400 28                 EPPR1   4
        27 002053   000000 701000 xent               TSX1    Z8ED$DISPOSE_ABSSYN_TREE
        27 002054   000000 011000                    NOP     0

     1246    18848
     1247    18849    1   CALL Z8ED$DISPOSE_ABSSYN_TREE (QUAL_ID_LIST$ -> LX_LIST.HEAD$);

  18849 27 002055   200004 470500                    LDP0    @QUAL_ID_LIST$,,AUTO
        27 002056   000000 471500                    LDP1    0,,PR0
        27 002057   100004 633500                    EPPR3   4,,PR1
        27 002060   200142 453500                    STP3    TYPE_DESC+4,,AUTO
        27 002061   200142 630500                    EPPR0   TYPE_DESC+4,,AUTO
        27 002062   000004 631400 28                 EPPR1   4
        27 002063   000000 701000 xent               TSX1    Z8ED$DISPOSE_ABSSYN_TREE
        27 002064   000000 011000                    NOP     0

     1248    18850
     1249    18851        %APPEND_ILS_LIST (@FROM$ = "ADDR(O1COM.ILS_LIST)",
     1250    18852                          @TO$ = "ADDR(SAVED_ILS_LIST)");

  18858 27 002065   000017 236000 xsym               LDQ     O1COM+15
        27 002066   000000 116000 28                 CMPQ    0
        27 002067   002103 600000 27                 TZE     s:18869

  18859 27 002070   200057 236100                    LDQ     SAVED_ILS_LIST+1,,AUTO
        27 002071   000000 116000 28                 CMPQ    0
        27 002072   002076 601000 27                 TNZ     s:18863
PL6.E3A0      #007=Z8EQ$INITIALIZE_STATE File=Z8EQ.:Z8A6TSI                      SAT 08/09/97 12:42 Page:232

  18860 27 002073   000017 236000 xsym               LDQ     O1COM+15
        27 002074   200057 756100                    STQ     SAVED_ILS_LIST+1,,AUTO

  18861 27 002075   002101 710000 27                 TRA     s:18865

  18863 27 002076   000017 236000 xsym               LDQ     O1COM+15
        27 002077   200060 470500                    LDP0    SAVED_ILS_LIST+2,,AUTO
        27 002100   000002 756100                    STQ     2,,PR0

  18865 27 002101   000020 236000 xsym               LDQ     O1COM+16
        27 002102   200060 756100                    STQ     SAVED_ILS_LIST+2,,AUTO

     1251    18869    1   O1COM.ILS_LIST = SAVED_ILS_LIST;

  18869 27 002103   000000 100500                    MLR     fill='000'O
        27 002104   200056 000040                    ADSC9   SAVED_ILS_LIST,,AUTO     cn=0,n=32
        27 002105   000016 000040 xsym               ADSC9   O1COM+14                 cn=0,n=32

     1252    18870    1   END Z8EQ$INITIALIZE_STATE;

  18870 27 002106   000000 702200 xent               TSX2  ! X66_ARET
     1253    18871        %EOD;

PL6.E3A0      #007=Z8EQ$INITIALIZE_STATE File=Z8EQ.:Z8A6TSI                      SAT 08/09/97 12:42 Page:233
--  Include file information  --

   Z8E_STATEMNT.:Z8A6TOU  is referenced.
   Z8A_LTS.:Z8A6TOU  cannot be made into a system file and is referenced.
   Z8E_ABSSYN.:Z8A6TOU  cannot be made into a system file and is referenced.
   Z8E_HEAP.:Z8A6TOU  cannot be made into a system file and is referenced.
   Z8A_ILS.:Z8A6TOU  cannot be made into a system file and is referenced.
   Z8A_ILL.:Z8A6TOU  cannot be made into a system file and is referenced.
   Z8A_ETT.:Z8A6TOU  cannot be made into a system file and is referenced.
   Z8A_QLT.:Z8A6TOU  cannot be made into a system file and is referenced.
   Z8A_TYPES.:Z8A6TOU  is referenced.
   Z8A_ST.:Z8A6TOU  cannot be made into a system file and is referenced.
   Z8A_DNT.:Z8A6TOU  cannot be made into a system file and is referenced.
   Z8A_ERR_NUMS.:Z8A6TOU  is referenced.
   Z8E_ILS_LIST.:Z8A6TOU  is referenced.
   Z8E_NEW_ILL.:Z8A6TOU  is referenced.
   Z8E_MACROS.:Z8A6TOU  cannot be made into a system file and is referenced.
   Z8E_O1COM.:Z8A6TOU  cannot be made into a system file and is referenced.
   Z8A_LEX_SYMB.:Z8A6TOU  cannot be made into a system file and is referenced.
   Z8E_STACKS.:Z8A6TOU  cannot be made into a system file and is referenced.
   Z8E_WINDOW.:Z8A6TOU  is referenced.
   Z8A_COMCOM.:Z8A6TOU  cannot be made into a system file and is referenced.
   X8A_COM_MACS.:X8A6TOU  is referenced.
   Z8A_NAMES.:Z8A6TOU  is referenced.
   Z8A_SUPP_MAC.:Z8A6TOU  is referenced.
   Z8A_DEFC.:Z8A6TOU  cannot be made into a system file and is referenced.
      No diagnostics issued in procedure Z8EQ$INITIALIZE_STATE.
PL6.E3A0      #007=Z8EQ$INITIALIZE_STATE File=Z8EQ.:Z8A6TSI                      SAT 08/09/97 12:42 Page:234

 **** Variables and constants ****

  ****  Section 000 LblCom ITERATION

  ****  Scalars and arrays  ****
OctLoc.c.b A Datatyp(siz) R M Lvl/name                 OctLoc.c.b A Datatyp(siz) R M Lvl/name

     0-0-0/w SBIN              1 ITERATION

  ****  Section 001 LblCom LEX_SYMBOL

  ****  Scalars and arrays  ****
OctLoc.c.b A Datatyp(siz) R M Lvl/name                 OctLoc.c.b A Datatyp(siz) R M Lvl/name

     0-0-0/w STRC(3240)  r     1 LEX_SYMBOL                 0-0-0/w STRC(3240)        1 LEX_SYMBOL_WORDS

  ****  Section 002 LblCom CURRENT_LEX_SYMBOL$

  ****  Scalars and arrays  ****
OctLoc.c.b A Datatyp(siz) R M Lvl/name                 OctLoc.c.b A Datatyp(siz) R M Lvl/name

     0-0-0/w PTR         r     1 CURRENT_LEX_SYMBOL$

  ****  Section 003 LblCom TEMP_LEX_SYMBOL

  ****  Scalars and arrays  ****
OctLoc.c.b A Datatyp(siz) R M Lvl/name                 OctLoc.c.b A Datatyp(siz) R M Lvl/name

     0-0-0/w STRC(3240)        1 TEMP_LEX_SYMBOL

  ****  Section 004 LblCom TEMP_LEX_SYMBOL2

  ****  Scalars and arrays  ****
OctLoc.c.b A Datatyp(siz) R M Lvl/name                 OctLoc.c.b A Datatyp(siz) R M Lvl/name

     0-0-0/w STRC(3240)        1 TEMP_LEX_SYMBOL2

PL6.E3A0      #007=Z8EQ$INITIALIZE_STATE File=Z8EQ.:Z8A6TSI                      SAT 08/09/97 12:42 Page:235
  ****  Section 005 LblCom DNT$

  ****  Scalars and arrays  ****
OctLoc.c.b A Datatyp(siz) R M Lvl/name                 OctLoc.c.b A Datatyp(siz) R M Lvl/name

     0-0-0/w PTR         r     1 DNT$

  ****  Section 006 LblCom DNT_

  ****  Scalars and arrays  ****
OctLoc.c.b A Datatyp(siz) R M Lvl/name                 OctLoc.c.b A Datatyp(siz) R M Lvl/name

     0-0-0/w STRC(180)         1 DNT_

  ****  Section 007 LblCom DNT_BUCKET_NUMBER

  ****  Scalars and arrays  ****
OctLoc.c.b A Datatyp(siz) R M Lvl/name                 OctLoc.c.b A Datatyp(siz) R M Lvl/name

     0-0-0/w UBIN              1 DNT_BUCKET_NUMBER

  ****  Section 008 LblCom DNT_OF_1$

  ****  Scalars and arrays  ****
OctLoc.c.b A Datatyp(siz) R M Lvl/name                 OctLoc.c.b A Datatyp(siz) R M Lvl/name

     0-0-0/w PTR               1 DNT_OF_1$

  ****  Section 009 LblCom ST$

  ****  Scalars and arrays  ****
OctLoc.c.b A Datatyp(siz) R M Lvl/name                 OctLoc.c.b A Datatyp(siz) R M Lvl/name

     0-0-0/w PTR         r     1 ST$

  ****  Section 010 LblCom ST_

PL6.E3A0      #007=Z8EQ$INITIALIZE_STATE File=Z8EQ.:Z8A6TSI                      SAT 08/09/97 12:42 Page:236
  ****  Scalars and arrays  ****
OctLoc.c.b A Datatyp(siz) R M Lvl/name                 OctLoc.c.b A Datatyp(siz) R M Lvl/name

     0-0-0/w STRC(180)         1 ST_

  ****  Section 011 LblCom QLT$

  ****  Scalars and arrays  ****
OctLoc.c.b A Datatyp(siz) R M Lvl/name                 OctLoc.c.b A Datatyp(siz) R M Lvl/name

     0-0-0/w PTR         r     1 QLT$

  ****  Section 012 LblCom PREV_01_QLT$

  ****  Scalars and arrays  ****
OctLoc.c.b A Datatyp(siz) R M Lvl/name                 OctLoc.c.b A Datatyp(siz) R M Lvl/name

     0-0-0/w PTR               1 PREV_01_QLT$

  ****  Section 013 LblCom QLT_

  ****  Scalars and arrays  ****
OctLoc.c.b A Datatyp(siz) R M Lvl/name                 OctLoc.c.b A Datatyp(siz) R M Lvl/name

     0-0-0/w STRC(180)         1 QLT_

  ****  Section 014 LblCom ETT$

  ****  Scalars and arrays  ****
OctLoc.c.b A Datatyp(siz) R M Lvl/name                 OctLoc.c.b A Datatyp(siz) R M Lvl/name

     0-0-0/w PTR         r     1 ETT$

  ****  Section 015 LblCom HEAD_ETT$

  ****  Scalars and arrays  ****
OctLoc.c.b A Datatyp(siz) R M Lvl/name                 OctLoc.c.b A Datatyp(siz) R M Lvl/name
PL6.E3A0      #007=Z8EQ$INITIALIZE_STATE File=Z8EQ.:Z8A6TSI                      SAT 08/09/97 12:42 Page:237

     0-0-0/w PTR               1 HEAD_ETT$

  ****  Section 016 LblCom ETT_BUCKETS

  ****  Scalars and arrays  ****
OctLoc.c.b A Datatyp(siz) R M Lvl/name                 OctLoc.c.b A Datatyp(siz) R M Lvl/name

     0-0-0/w PTR               1 ETT_BUCKETS(0:511)

  ****  Section 017 LblCom ETT_

  ****  Scalars and arrays  ****
OctLoc.c.b A Datatyp(siz) R M Lvl/name                 OctLoc.c.b A Datatyp(siz) R M Lvl/name

     0-0-0/w STRC(180)         1 ETT_

  ****  Section 018 LblCom ILL$

  ****  Scalars and arrays  ****
OctLoc.c.b A Datatyp(siz) R M Lvl/name                 OctLoc.c.b A Datatyp(siz) R M Lvl/name

     0-0-0/w PTR         r     1 ILL$

  ****  Section 019 LblCom ILL_

  ****  Scalars and arrays  ****
OctLoc.c.b A Datatyp(siz) R M Lvl/name                 OctLoc.c.b A Datatyp(siz) R M Lvl/name

     0-0-0/w STRC(180)         1 ILL_

  ****  Section 020 LblCom ILS$

  ****  Scalars and arrays  ****
OctLoc.c.b A Datatyp(siz) R M Lvl/name                 OctLoc.c.b A Datatyp(siz) R M Lvl/name

     0-0-0/w PTR         r     1 ILS$
PL6.E3A0      #007=Z8EQ$INITIALIZE_STATE File=Z8EQ.:Z8A6TSI                      SAT 08/09/97 12:42 Page:238

  ****  Section 021 LblCom ILS_

  ****  Scalars and arrays  ****
OctLoc.c.b A Datatyp(siz) R M Lvl/name                 OctLoc.c.b A Datatyp(siz) R M Lvl/name

     0-0-0/w STRC(180)         1 ILS_

  ****  Section 022 LblCom HEAP$

  ****  Scalars and arrays  ****
OctLoc.c.b A Datatyp(siz) R M Lvl/name                 OctLoc.c.b A Datatyp(siz) R M Lvl/name

     0-0-0/w PTR               1 HEAP$

  ****  Section 023 LblCom TEMP_LX_NODE

  ****  Scalars and arrays  ****
OctLoc.c.b A Datatyp(siz) R M Lvl/name                 OctLoc.c.b A Datatyp(siz) R M Lvl/name

     0-0-0/d STRC(288)         1 TEMP_LX_NODE

  ****  Section 024 LblCom LTS$

  ****  Scalars and arrays  ****
OctLoc.c.b A Datatyp(siz) R M Lvl/name                 OctLoc.c.b A Datatyp(siz) R M Lvl/name

     0-0-0/w PTR               1 LONG_ITEM$                 0-0-0/w PTR         r     1 LTS$

  ****  Section 025 LblCom LTS_

  ****  Scalars and arrays  ****
OctLoc.c.b A Datatyp(siz) R M Lvl/name                 OctLoc.c.b A Datatyp(siz) R M Lvl/name

     0-0-0/w STRC(180)         1 LTS_

  ****  Auto variables  ****
PL6.E3A0      #007=Z8EQ$INITIALIZE_STATE File=Z8EQ.:Z8A6TSI                      SAT 08/09/97 12:42 Page:239

  ****  Scalars and arrays  ****
OctLoc.c.b A Datatyp(siz) R M Lvl/name                 OctLoc.c.b A Datatyp(siz) R M Lvl/name

   115-0-0/w PTR         r     1 @IDENT$                  122-0-0/w PTR         r     1 @IDENT$
   121-0-0/w PTR         r     1 @INIT$                   123-0-0/w PTR         r     1 @INIT_ST$
   115-0-0/w PTR         r     1 @INIT_TYPE$              116-0-0/w PTR         r     1 @INIT_VALUE$
     3-0-0/w PTR         r     1 @KEY_WORD$               133-0-0/w PTR         r     1 @NUM_INDICES
     4-0-0/w PTR         r     1 @QUAL_ID_LIST$             5-0-0/w PTR         r     1 @REPLACING_LIST$
   116-0-0/w PTR         r     1 @SUBSCRIPT_LIST$         124-0-0/w PTR         r     1 @VAL$
   120-0-0/w PTR         r     1 DIMS$                    135-0-0/w PTR         r     1 DIMS_INDEX$
    66-0-0/d STRC(288)   r     1 DIMS_INDEX_LIST           36-0-0/d STRC(288)   r     1 END_VALUE
   134-0-0/w SBIN              1 I                        133-0-0/w SBIN        r     1 I
   133-0-0/w SBIN        r     1 I                        101-0-0/w PTR         r     1 IDENT$
    *0-0-0/w PTR         r     1 IDENT$                    *0-0-0/w PTR         r     1 IDENT$
   100-0-0/w PTR         r     1 IDENT_ST$                117-0-0/w PTR         r     1 IDENT_ST$
    77-0-0/w PTR         r     1 INIT$                     *0-0-0/w PTR         r     1 INIT$
   105-0-0/w SBIN        r     1 INIT_COUNT                 6-0-0/d STRC(288)   r     1 INIT_LIST
   110-0-0/w PTR         r     1 INIT_LTS$                106-0-0/w PTR         r     1 INIT_ST$
    *0-0-0/w PTR         r     1 INIT_ST$                  *0-0-0/w PTR         r     1 INIT_TYPE$
    *0-0-0/w PTR         r     1 INIT_VALUE$              134-0-0/w SBIN        r     1 J
    *0-0-0/w PTR         r     1 KEY_WORD$                107-0-0/w PTR         r     1 LAST_DIMS$
    26-0-0/d STRC(288)   r     1 LOOP_END                 130-0-0/b BIT         r     1 NEED_TO_BE_SWAPPED
   127-0-0/w PTR         r     1 NEW_DIMS$                121-0-0/w PTR         r     1 NEW_SUB$
    *0-0-0/w SBIN        r     1 NUM_INDICES              103-0-0/w SBIN        r     1 NUM_SUBS_GIVEN
   111-0-0/w SBIN        r     1 OFF                      104-0-0/w PTR         r     1 QUAL_ID$
    *0-0-0/w PTR         r     1 QUAL_ID_LIST$             76-0-0/w PTR         r     1 REPLACING$
    *0-0-0/w PTR         r     1 REPLACING_LIST$           56-0-0/d STRC(288)   r     1 SAVED_ILS_LIST
   112-0-0/w PTR         r     1 SUBSCR$                  102-0-0/w PTR         r     1 SUBSCRIPTS$
    *0-0-0/w PTR         r     1 SUBSCRIPT_LIST$          135-0-0/w PTR         r     1 T$
   136-0-0/w STRC(144)   r     1 TYPE_DESC                 *0-0-0/w PTR         r     1 VAL$
    16-0-0/d STRC(288)   r     1 VALL                      46-0-0/d STRC(288)   r     1 VALUE_ONE

  ****  SYMREF variables  ****

  ****  Scalars and arrays  ****
OctLoc.c.b A Datatyp(siz) R M Lvl/name                 OctLoc.c.b A Datatyp(siz) R M Lvl/name
PL6.E3A0      #007=Z8EQ$INITIALIZE_STATE File=Z8EQ.:Z8A6TSI                      SAT 08/09/97 12:42 Page:240

     0-0-0/d STRC(13248) r     1 COMCOM
     0-0-0/w PTR               1 DNT$_FROM_RSWNO(0:0)
     0-0-0/w STRC(180)         1 HIER_STK(0:50)
     0-0-0/w SBIN              1 HIER_STK_PTR               0-0-0/w UBIN              1 ILL_STEP(0:144)
     0-0-0/w UBIN              1 ILS_STEP_TABLE(0:2)
     0-0-0/w UBIN              1 LTS_STEP(0:37)
     0-0-0/d STRC(11580) r     1 O1COM                      0-0-0/w STRC(144)         1 PAGE_FORMAT
     0-0-0/w STRC(153)         1 REP_STK(0:50)              0-0-0/w SBIN              1 REP_STK_PTR

  ****  BASED and DCB variables  ****

  ****  Scalars and arrays  ****
OctLoc.c.b A Datatyp(siz) R M Lvl/name                 OctLoc.c.b A Datatyp(siz) R M Lvl/name

     0-0-0/w STRC(108)         1 ACCEPT_DISPLAY             0-0-0/w STRC(288)         1 ADD_STMT
     0-0-0/w STRC(396)         1 ALPHABET                   0-0-0/w STRC(144)         1 ALTER_LTS
     0-0-0/w STRC(3672)        1 ALT_KEY                    0-0-0/w STRC(36864)       1 ARGLIST
     0-0-0/w STRC(396)         1 ARRAY                      0-0-0/w STRC(180)         1 ARRAY_PRESET_LTS
     0-0-0/w ASTR(324)   r     1 BASED_LEX_SYMBOL
     0-0-0/w STRC(360)         1 BASED_LEX_SYMBOL_WORDS
     0-0-0/w STRC(288)         1 BASE_LTS                   0-0-0/w STRC(108)         1 BINARY_ILL
     0-0-0/w STRC(288)   r     1 BINARY_OP                  0-0-0/w STRC(396)         1 BLOCK
     0-0-0/w STRC(144)         1 BRANCH_ILL                 0-0-0/w STRC(144)         1 BT
     0-0-0/w STRC(288)         1 CALL_STMT                  0-0-0/w STRC(216)         1 CCOSU
     0-0-0/w STRC(396)         1 CD                         0-0-0/w STRC(288)         1 CD_LTS
     0-0-0/w CHAR(4096)        1 CHARS                      0-0-0/w STRC(396)         1 CLASS
     0-0-0/w STRC(108)         1 CODED_MOVE                 0-0-0/w STRC(288)         1 COMPUTE_STMT
     0-0-0/w STRC(396)         1 CONDITION                  0-0-0/w STRC(396)         1 CONST
     0-0-0/w STRC(72)          1 CONT                       0-0-0/w STRC(540)         1 CONTROL_NAME_LTS
     0-0-0/w STRC(1872)        1 COPY_FILE                  0-0-0/w STRC(396)         1 DB
     0-0-0/w STRC(396)         1 DCB_                       0-0-0/w STRC(288)         1 DEFERED_IDENTIFIER
     0-0-0/w STRC(252)         1 DEFERED_ID_TREE            0-0-0/w STRC(288)         1 DEFERED_QUAL_ID
     0-0-0/w STRC(288)         1 DEFERED_SUM_CLAUSE
     0-0-0/w STRC(288)         1 DEFERED_SUM_CLAUSE_LIST
     0-0-0/w STRC(144)         1 DEFLB                      0-0-0/w STRC(288)         1 DELETE_STMT
     0-0-0/w STRC(108)         1 DEPENDING_SIZE             0-0-0/w STRC(5472)  r     1 DIMS
PL6.E3A0      #007=Z8EQ$INITIALIZE_STATE File=Z8EQ.:Z8A6TSI                      SAT 08/09/97 12:42 Page:241
     0-0-0/w STRC(288)         1 DIVIDE_STMT                0-0-0/w STRC(396)         1 DML_ITEM
     0-0-0/w STRC(216)         1 DML_REC                    0-0-0/w ASTR(180)   r     1 DNT
     0-0-0/w STRC(144)         1 DOEND                      0-0-0/w STRC(396)         1 DO_N
     0-0-0/w STRC(180)         1 DV4I                       0-0-0/w STRC(180)         1 ENTRY_ILL
     0-0-0/w STRC(180)   r     1 ETT                        0-0-0/w STRC(108)         1 EVALU
     0-0-0/w STRC(73836)       1 EVALUATE                   0-0-0/w STRC(396)         1 FD
     0-0-0/w STRC(1692)        1 FILE_LTS                   0-0-0/w STRC(144)         1 GO
     0-0-0/w STRC(180)         1 ILL                        0-0-0/w STRC              1 ILL_NO_OPS
     0-0-0/w STRC(180)   r     1 ILS                        0-0-0/w STRC(288)   r     1 ILS_LIST
     0-0-0/w STRC(108)         1 INDEXES                    0-0-0/w STRC(360)   r     1 INIT_LTS
     0-0-0/w STRC(288)         1 INSPECT_1_STMT             0-0-0/w STRC(288)         1 INSPECT_2_STMT
     0-0-0/w STRC(288)         1 INSPECT_4_STMT             0-0-0/w STRC(396)         1 INTDEF
     0-0-0/w STRC(180)         1 IO_RESTORE_CHAIN           0-0-0/w STRC(144)         1 KEY
     0-0-0/w STRC(396)         1 LABEL                      0-0-0/w STRC(288)         1 LA_ITEM
     0-0-0/w STRC(36864)       1 LCNST                      0-0-0/w STRC(108)         1 LINOI
     0-0-0/w STRC(72)          1 LONG                       0-0-0/w STRC        r     1 LTS
     0-0-0/w STRC(360)   r     1 LTSS                       0-0-0/w STRC(36936)       1 LTS_PTR_ARRAY
     0-0-0/w STRC(504)         1 LX_CD_INPUT                0-0-0/w STRC(324)         1 LX_CD_I_O
     0-0-0/w STRC(396)         1 LX_CD_OUTPUT               0-0-0/w STRC(288)   r     1 LX_ETT_ITEM
     0-0-0/w STRC(288)   r     1 LX_ITEM                    0-0-0/w STRC(288)         1 LX_LARGE
     0-0-0/w STRC(288)   r     1 LX_LIST                    0-0-0/w STRC(1224)        1 LX_REC_DECL
     0-0-0/w STRC(864)         1 LX_REPORT_REC              0-0-0/w STRC(288)   r     1 LX_TERMINAL
     0-0-0/w STRC(72)          1 MFILL                      0-0-0/w STRC(396)         1 MNEMONIC
     0-0-0/w STRC(288)         1 MULTIPLY_STMT              0-0-0/w STRC(180)         1 MULTI_GO
     0-0-0/w STRC(180)         1 MVEAL                      0-0-0/w STRC(108)         1 MVFIL
     0-0-0/w STRC(72)          1 MVIIS                      0-0-0/w STRC(144)         1 NEL
     0-0-0/w STRC(216)         1 OPEN_LTS                   0-0-0/w STRC(144)         1 OPN
     0-0-0/w STRC(180)         1 OS_CALL                    0-0-0/w STRC(36864)       1 PAGE
     0-0-0/w STRC(396)         1 PARA                       0-0-0/w STRC(216)         1 PFORM
     0-0-0/w STRC(144)         1 PINC                       0-0-0/w STRC(144)         1 PREOFF
     0-0-0/w STRC(108)         1 PRESET                     0-0-0/w STRC(144)         1 PRIME
     0-0-0/w STRC(396)         1 PROC_                      0-0-0/w STRC(396)         1 PROC_DEF
     0-0-0/w STRC(900)         1 PROC_SUPP                  0-0-0/w STRC(144)         1 P_A_PRESET
     0-0-0/w STRC(144)         1 P_P_PRESET                 0-0-0/w STRC(216)         1 QLT
     0-0-0/w STRC(396)         1 RD                         0-0-0/w STRC(288)         1 READ_STMT
     0-0-0/w STRC(216)         1 REF                        0-0-0/w STRC(144)         1 REMEM
     0-0-0/w STRC(108)         1 RENAMES                    0-0-0/w STRC(720)         1 REPORT_01_LTS
PL6.E3A0      #007=Z8EQ$INITIALIZE_STATE File=Z8EQ.:Z8A6TSI                      SAT 08/09/97 12:42 Page:242
     0-0-0/w STRC(432)         1 REPORT_ELEM_LTS            0-0-0/w STRC(252)         1 REPORT_GRP_LTS
     0-0-0/w STRC(1332)        1 REPORT_LTS                 0-0-0/w STRC(288)         1 REWRITE_STMT
     0-0-0/w STRC(144)         1 RVA_LTS                    0-0-0/w STRC(396)         1 SCALAR
     0-0-0/w STRC(144)         1 SCOPE                      0-0-0/w STRC(396)         1 SD
     0-0-0/w STRC(216)         1 SEARCH_                    0-0-0/w STRC(396)         1 SECTION
     0-0-0/w STRC(396)         1 SEGMENT                    0-0-0/w STRC(360)         1 SEGMENT_LTS
     0-0-0/w STRC(396)   r     1 ST                         0-0-0/w STRC(288)         1 START_STMT
     0-0-0/w STRC(72)          1 STP2                       0-0-0/w STRC(252)         1 STRING_STMT
     0-0-0/w STRC(288)         1 SUBTRACT_STMT              0-0-0/w STRC(252)         1 SUM_LTS
     0-0-0/w STRC(396)         1 SWITCH                     0-0-0/w STRC(396)         1 SYMBOLIC_CHAR
     0-0-0/w STRC(396)         1 SYMDEF_                    0-0-0/w STRC(396)         1 SYMREF_
     0-0-0/w STRC(396)         1 TEMP                       0-0-0/w STRC(144)         1 TRINARY_ILL
     0-0-0/w STRC(72)          1 UNARY_ILL                  0-0-0/w STRC(288)         1 UNARY_OP
     0-0-0/w STRC(288)         1 UNSTRING_STMT              0-0-0/d STRC(612)         1 USE
     0-0-0/w STRC(216)         1 USER_CALL                  0-0-0/w STRC(252)         1 USE_SUPP
     0-0-0/w STRC(108)         1 VAL                        0-0-0/w STRC(108)         1 VAL_END
     0-0-0/w STRC(396)   r     1 VARIABLE                   0-0-0/w STRC(72)          1 WHEN
     0-0-0/w STRC(288)         1 WRITE_STMT


   Procedure Z8EQ$INITIALIZE_STATE requires 1095 words for executable code.
   Procedure Z8EQ$INITIALIZE_STATE requires 110 words of local(AUTO) storage.

