PL6.E3A0      #005=Z8ET$USE_BEFORE_REPORTING File=Z8ET.:Z8A6TSI                  SAT 08/09/97 12:54 Page:441
     2708        1        /*T***********************************************************/
     2709        2        /*T*                                                         */
     2710        3        /*T* Copyright (c) Bull HN Information Systems Inc., 1997    */
     2711        4        /*T*                                                         */
     2712        5        /*T***********************************************************/
     2713        6
     2714        7        /*M*  Z8ET$USE_BEFORE_REPORTING---Save the USE PROC address*/
     2715        8
     2716        9
     2717       10        /*P*
     2718       11               NAME:  Z8ET$USE_BEFORE_REPORTING
     2719       12             AUTHOR:  Min Lee.
     2720       13            PURPOSE:  Verify the USE BEFORE REPORTING statement and save
     2721       14                      the USE procedure's entry point.
     2722       15        */
     2723       16
     2724       17        /*D*
     2725       18               NAME:  Z8ET$USE_BEFORE_REPORTING
     2726       19               CALL:  CALL Z8ET$USE_BEFORE_REPORTING(GLOBAL$,OPERAND$,USE_SECT$)
     2727       20              INPUT:  USE_SECT$ --- entry point of the USE PROC
     2728       21                      GLOBAL$   --- LX_STK item for GLOBAL clause
     2729       22                      OPERAND$  --- qual_id list for the report group name
     2730       23
     2731       24        DESCRIPTION:  verify the operand and GLOBAL clause in the USE BEFORE
     2732       25                      REPORTING statement and then save the USE procedure's
     2733       26                      entry point.
     2734       27         */
     2735       28         %EJECT;
PL6.E3A0      #005=Z8ET$USE_BEFORE_REPORTING File=Z8ET.:Z8A6TSI                  SAT 08/09/97 12:54 Page:442
     2736       29
     2737       30         /*=========================*/
     2738       31           Z8ET$USE_BEFORE_REPORTING: PROC (GLOBAL$, OPERAND$, USE_SECT$);
     2739       32         /*=========================*/
     2740       33
     2741       34        %EQU PHASE = 1;
     2742       35
     2743       36        %INCLUDE Z8A_DEFC;
     2744      104        %INCLUDE Z8A_SUPP_MAC ;
     2745     2504        %INCLUDE Z8E_STACKS ;
     2746     4770        %INCLUDE Z8E_O1COM;
     2747     5531        %INCLUDE Z8E_MACROS;
     2748     6206        %INCLUDE Z8A_ERR_NUMS;
     2749     6970        %INCLUDE Z8A_TYPES;
     2750     7144        %INCLUDE Z8A_ST ;
     2751    10803        %INCLUDE Z8E_WINDOW;
     2752    12873        %INCLUDE Z8A_ETT ;
     2753    13174        %INCLUDE Z8A_ILL ;
     2754    13867        %INCLUDE Z8A_ILS ;
     2755    13976        %INCLUDE Z8A_LTS ;
     2756    16053
     2757    16054    1   DCL GLOBAL$        PTR;
     2758    16055    1   DCL OPERAND$       PTR;
     2759    16056    1   DCL USE_SECT$      PTR;
     2760    16057    1   DCL GROUP_LTS$     PTR;
     2761    16058    1   DCL ST$$           PTR;
     2762    16059    1   DCL NEXT$          PTR;
     2763    16060
     2764    16061    1   DCL Z8AE$ERROR ENTRY (12);
     2765    16062    1   DCL Z8CO$QUALIFY_VARIABLE ENTRY (2) ALTRET;
     2766    16063    1   DCL Z8AT$CREATE_TEMPORARY ENTRY (2);
     2767    16064
     2768    16065    1          CALL Z8CO$QUALIFY_VARIABLE (OPERAND$, ST$$);
     2769    16066
     2770    16067    1          IF ST$$ -> SCALAR.LTS$ = ADDR(NIL) THEN
     2771    16068    1            GROUP_LTS$ = ADDR(NIL);
     2772    16069    1          ELSE
PL6.E3A0      #005=Z8ET$USE_BEFORE_REPORTING File=Z8ET.:Z8A6TSI                  SAT 08/09/97 12:54 Page:443
     2773    16070                 %GET_LTS (@ID   = %REPORT_01_LTS,
     2774    16071                           @ST$  = ST$$,
     2775    16072                           @RETURN$ = GROUP_LTS$);
     2776    16115
     2777    16116    1          IF GROUP_LTS$ = ADDR(NIL) OR
     2778    16117    1             GROUP_LTS$ -> LTS.ID ~= %REPORT_01_LTS THEN
     2779    16118    2            DO;
     2780    16119    2              CALL Z8AE$ERROR (%E$MUST_BE_REPORT_GROUP,
     2781    16120    2                               OPERAND$ -> LX_LIST.HEAD$ -> LX_ITEM.LINE,
     2782    16121    2                               OPERAND$ -> LX_LIST.HEAD$ -> LX_ITEM.COLUMN);
     2783    16122
     2784    16123                   %NEW_REPORT_01_LTS (@POINTER = O1COM.USE_REPORT$);
     2785    16237
     2786    16238    2              RETURN;
     2787    16239    2            END;
     2788    16240
     2789    16241    1          IF GLOBAL$ -> LX_TERMINAL.SYMBOL ~= %EMPTY AND
     2790    16242    1                NOT ST$$ -> SCALAR.B.GLOBAL THEN
     2791    16243
     2792    16244                 %CONDITIONAL_ERROR (@LX_ITEM$  = GLOBAL$,
     2793    16245                                     @ERROR#    = %E$GLOBAL_INVALID_IN_USE,
     2794    16246                                     @LINE      = GLOBAL$ -> LX_ITEM.LINE,
     2795    16247                                     @COLUMN    = GLOBAL$ -> LX_ITEM.COLUMN);
     2796    16277
     2797    16278    1          NEXT$ = O1COM.REPORT_DD$;
     2798    16279
     2799    16280    2          DO WHILE (NEXT$ ~= ADDR(NIL));
     2800    16281
     2801    16282    2            IF NEXT$ = GROUP_LTS$ THEN
     2802    16283    3              DO;
     2803    16284    3                CALL Z8AE$ERROR (%E$DUP_USE_BEFORE_REPORTING,
     2804    16285    3                                 OPERAND$ -> LX_LIST.HEAD$ -> LX_ITEM.LINE,
     2805    16286    3                                 OPERAND$ -> LX_LIST.HEAD$ -> LX_ITEM.COLUMN);
     2806    16287
     2807    16288    3                RETURN;
     2808    16289    3              END;
     2809    16290
PL6.E3A0      #005=Z8ET$USE_BEFORE_REPORTING File=Z8ET.:Z8A6TSI                  SAT 08/09/97 12:54 Page:444
     2810    16291    2            NEXT$ = NEXT$ -> REPORT_01_LTS.USE_CHAIN$;
     2811    16292
     2812    16293    2          END; /* WHILE */
     2813    16294
     2814    16295    1          GROUP_LTS$ -> REPORT_01_LTS.USE_CHAIN$ = O1COM.REPORT_DD$;
     2815    16296    1          O1COM.REPORT_DD$ = GROUP_LTS$;
     2816    16297
     2817    16298
     2818    16299    1          IF GROUP_LTS$ -> REPORT_01_LTS.RWCT$ = ADDR(NIL) THEN
     2819    16300    2            DO;
     2820    16301
     2821    16302    2              CALL Z8AT$CREATE_TEMPORARY (%SCALAR,
     2822    16303    2                        GROUP_LTS$ -> REPORT_01_LTS.RWCT$);
     2823    16304
     2824    16305    2              GROUP_LTS$ -> REPORT_01_LTS.RWCT$ -> SCALAR.TYPE = %TYA;
     2825    16306    2              GROUP_LTS$ -> REPORT_01_LTS.RWCT$ -> SCALAR.ADSC.N = 32;
     2826    16307    2              GROUP_LTS$ -> REPORT_01_LTS.RWCT$ -> SCALAR.ADSC.TA = %ADSC9;
     2827    16308
     2828    16309    2            END;
     2829    16310
     2830    16311    1          USE_SECT$ -> SECTION.B.REFERENCED = TRUE;
     2831    16312
     2832    16313               %NEW_ILL(@ID  = %P_A_PRESET,
     2833    16314                        @OFFSET = %USE_PROC_PTR_OFF,
     2834    16315                        @TO     = GROUP_LTS$ -> REPORT_01_LTS.RWCT$,
     2835    16316                        @LOP    = USE_SECT$,
     2836    16317                        @ROPCON = 0);
     2837    16696
     2838    16697    1          O1COM.USE_REPORT$ = GROUP_LTS$;
     2839    16698
     2840    16699
     2841    16700    1    RETURN;
     2842    16701    1    END Z8ET$USE_BEFORE_REPORTING;
     2843    16702         %EOD;

PL6.E3A0      #005=Z8ET$USE_BEFORE_REPORTING File=Z8ET.:Z8A6TSI                  SAT 08/09/97 12:54 Page:445
--  Include file information  --

   Z8A_LTS.:Z8A6TOU  cannot be made into a system file and is referenced.
   Z8A_ILS.:Z8A6TOU  cannot be made into a system file and is referenced.
   Z8A_ILL.:Z8A6TOU  cannot be made into a system file and is referenced.
   Z8A_ETT.:Z8A6TOU  cannot be made into a system file and is referenced.
   Z8E_WINDOW.:Z8A6TOU  is referenced.
   Z8A_ST.:Z8A6TOU  cannot be made into a system file and is referenced.
   Z8A_TYPES.:Z8A6TOU  is referenced.
   Z8A_ERR_NUMS.:Z8A6TOU  is referenced.
   Z8E_NEW_ILL.:Z8A6TOU  is referenced.
   Z8E_MACROS.:Z8A6TOU  cannot be made into a system file and is referenced.
   Z8E_O1COM.:Z8A6TOU  cannot be made into a system file and is referenced.
   Z8A_LEX_SYMB.:Z8A6TOU  cannot be made into a system file and is referenced.
   Z8E_STACKS.:Z8A6TOU  cannot be made into a system file and is referenced.
   X8A_COM_MACS.:X8A6TOU  is referenced.
   Z8A_NAMES.:Z8A6TOU  is referenced.
   Z8A_SUPP_MAC.:Z8A6TOU  is referenced.
   Z8A_DEFC.:Z8A6TOU  cannot be made into a system file and is referenced.
      No diagnostics issued in procedure Z8ET$USE_BEFORE_REPORTING.

   Procedure Z8ET$USE_BEFORE_REPORTING requires 231 words for executable code.
   Procedure Z8ET$USE_BEFORE_REPORTING requires 16 words of local(AUTO) storage.

PL6.E3A0      #005=Z8ET$USE_BEFORE_REPORTING File=Z8ET.:Z8A6TSI                  SAT 08/09/97 12:54 Page:446

 Object Unit name= Z8ET$USE_BEFORE_REPORTING                  File name= Z8ET.:Z8A6TOU
 UTS= AUG 09 '97 12:54:22.28 SAT                              Compiler= PL-6/E31         Sev=      00
 SharedLib= :SHARED_SYSTEM                                    Alt SharedLib=


    ****  Control sections  ****

 Sect   Type Bound  Init  Size OctSiz  Section name(segment info)
    0  LblCom even  none     1      1  ITERATION
    1  LblCom even  none    90    132  LEX_SYMBOL
    2  LblCom even  none     1      1  CURRENT_LEX_SYMBOL$
    3  LblCom even  none    90    132  TEMP_LEX_SYMBOL
    4  LblCom even  none    90    132  TEMP_LEX_SYMBOL2
    5  LblCom even  none     1      1  ST$
    6  LblCom even  none     5      5  ST_
    7  LblCom even  none     1      1  ETT$
    8  LblCom even  none     1      1  HEAD_ETT$
    9  LblCom even  none   512   1000  ETT_BUCKETS
   10  LblCom even  none     5      5  ETT_
   11  LblCom even  none     1      1  ILL$
   12  LblCom even  none     5      5  ILL_
   13  LblCom even  none     1      1  ILS$
   14  LblCom even  none     5      5  ILS_
   15  LblCom even  none     1      1  LTS$
   16  LblCom even  none     5      5  LTS_
   17   Proc  even  none   231    347  Z8ET$USE_BEFORE_REPORTING
   18  RoData even  none    24     30  Z8ET$USE_BEFORE_REPORTING

    ****  Entry defs  ****

                              Check   Calling
                             calling  sequence
  Sect OctLoc Primary Altret sequence   type   Parms  Name
    17      0   yes            yes      Std        3  Z8ET$USE_BEFORE_REPORTING
PL6.E3A0      #005=Z8ET$USE_BEFORE_REPORTING File=Z8ET.:Z8A6TSI                  SAT 08/09/97 12:54 Page:447

  ****  Entry refs  ****

         Check        Calling
        calling       sequence
Altret sequence SRef   type   Args  Name
 yes     yes           Std       2 Z8CO$QUALIFY_VARIABLE
         yes           Std      12 Z8AE$ERROR
         yes           Std       4 Z8AN$NEW_ILL
         yes           Std       1 Z8AR$RESERVER
         yes           Std       2 Z8AT$CREATE_TEMPORARY
                       nStd      0 X66_AUTO_3
                       nStd      0 X66_ARET

  ****  Data refs  ****

  Flags:  r = read only, s = secondary
Flgs Name                             Flgs Name                             Flgs Name
     O1COM                                 HIER_STK_PTR                          HIER_STK
     PAGE_FORMAT                           REP_STK_PTR                           REP_STK
r    ILL_STEP                         r    ILS_STEP_TABLE                   r    LTS_STEP

  ****  Segment refs  ****

  Flags:  r = read only, s = secondary
Flgs Name                             Flgs Name                             Flgs Name
     ISSID                                 NULLSID
PL6.E3A0      #005=Z8ET$USE_BEFORE_REPORTING File=Z8ET.:Z8A6TSI                  SAT 08/09/97 12:54 Page:448


     2708        1        /*T***********************************************************/
     2709        2        /*T*                                                         */
     2710        3        /*T* Copyright (c) Bull HN Information Systems Inc., 1997    */
     2711        4        /*T*                                                         */
     2712        5        /*T***********************************************************/
     2713        6
     2714        7        /*M*  Z8ET$USE_BEFORE_REPORTING---Save the USE PROC address*/
     2715        8
     2716        9
     2717       10        /*P*
     2718       11               NAME:  Z8ET$USE_BEFORE_REPORTING
     2719       12             AUTHOR:  Min Lee.
     2720       13            PURPOSE:  Verify the USE BEFORE REPORTING statement and save
     2721       14                      the USE procedure's entry point.
     2722       15        */
     2723       16
     2724       17        /*D*
     2725       18               NAME:  Z8ET$USE_BEFORE_REPORTING
     2726       19               CALL:  CALL Z8ET$USE_BEFORE_REPORTING(GLOBAL$,OPERAND$,USE_SECT$)
     2727       20              INPUT:  USE_SECT$ --- entry point of the USE PROC
     2728       21                      GLOBAL$   --- LX_STK item for GLOBAL clause
     2729       22                      OPERAND$  --- qual_id list for the report group name
     2730       23
     2731       24        DESCRIPTION:  verify the operand and GLOBAL clause in the USE BEFORE
     2732       25                      REPORTING statement and then save the USE procedure's
     2733       26                      entry point.
     2734       27         */
     2735       28         %EJECT;
PL6.E3A0      #005=Z8ET$USE_BEFORE_REPORTING File=Z8ET.:Z8A6TSI                  SAT 08/09/97 12:54 Page:449
     2736       29
     2737       30         /*=========================*/
     2738       31           Z8ET$USE_BEFORE_REPORTING: PROC (GLOBAL$, OPERAND$, USE_SECT$);

     31 17 000000   000000 700200 xent  Z8ET$USE_BE* TSX0  ! X66_AUTO_3
        17 000001   000020 000003                    ZERO    16,3

     2739       32         /*=========================*/
     2740       33
     2741       34        %EQU PHASE = 1;
     2742       35
     2743       36        %INCLUDE Z8A_DEFC;
     2744      104        %INCLUDE Z8A_SUPP_MAC ;
     2745     2504        %INCLUDE Z8E_STACKS ;
     2746     4770        %INCLUDE Z8E_O1COM;
     2747     5531        %INCLUDE Z8E_MACROS;
     2748     6206        %INCLUDE Z8A_ERR_NUMS;
     2749     6970        %INCLUDE Z8A_TYPES;
     2750     7144        %INCLUDE Z8A_ST ;
     2751    10803        %INCLUDE Z8E_WINDOW;
     2752    12873        %INCLUDE Z8A_ETT ;
     2753    13174        %INCLUDE Z8A_ILL ;
     2754    13867        %INCLUDE Z8A_ILS ;
     2755    13976        %INCLUDE Z8A_LTS ;
     2756    16053
     2757    16054    1   DCL GLOBAL$        PTR;
     2758    16055    1   DCL OPERAND$       PTR;
     2759    16056    1   DCL USE_SECT$      PTR;
     2760    16057    1   DCL GROUP_LTS$     PTR;
     2761    16058    1   DCL ST$$           PTR;
     2762    16059    1   DCL NEXT$          PTR;
     2763    16060
     2764    16061    1   DCL Z8AE$ERROR ENTRY (12);
     2765    16062    1   DCL Z8CO$QUALIFY_VARIABLE ENTRY (2) ALTRET;
     2766    16063    1   DCL Z8AT$CREATE_TEMPORARY ENTRY (2);
     2767    16064
     2768    16065    1          CALL Z8CO$QUALIFY_VARIABLE (OPERAND$, ST$$);
PL6.E3A0      #005=Z8ET$USE_BEFORE_REPORTING File=Z8ET.:Z8A6TSI                  SAT 08/09/97 12:54 Page:450

  16065 17 000002   200007 630500                    EPPR0   ST$$,,AUTO
        17 000003   200013 450500                    STP0    NEXT$+3,,AUTO
        17 000004   200004 236100                    LDQ     @OPERAND$,,AUTO
        17 000005   200012 756100                    STQ     NEXT$+2,,AUTO
        17 000006   200012 630500                    EPPR0   NEXT$+2,,AUTO
        17 000007   000000 631400 18                 EPPR1   0
        17 000010   000000 701000 xent               TSX1    Z8CO$QUALIFY_VARIABLE
        17 000011   000000 011000                    NOP     0

     2769    16066
     2770    16067    1          IF ST$$ -> SCALAR.LTS$ = ADDR(NIL) THEN

  16067 17 000012   200007 470500                    LDP0    ST$$,,AUTO
        17 000013   000005 236100                    LDQ     5,,PR0
        17 000014   000001 116000 18                 CMPQ    1
        17 000015   000021 601000 17                 TNZ     s:16074

     2771    16068    1            GROUP_LTS$ = ADDR(NIL);

  16068 17 000016   000001 236000 18                 LDQ     1
        17 000017   200006 756100                    STQ     GROUP_LTS$,,AUTO
        17 000020   000043 710000 17                 TRA     s:16116

     2772    16069    1          ELSE
     2773    16070                 %GET_LTS (@ID   = %REPORT_01_LTS,
     2774    16071                           @ST$  = ST$$,
     2775    16072                           @RETURN$ = GROUP_LTS$);

  16074 17 000021   000031 600000 17                 TZE     s:16108
        17 000022   000005 471500                    LDP1    5,,PR0
        17 000023   100000 220100                    LDX0    0,,PR1
        17 000024   001105 100003                    CMPX0   581,DU
        17 000025   000031 601000 17                 TNZ     s:16108

  16092 17 000026   100007 236100                    LDQ     7,,PR1
        17 000027   200006 756100                    STQ     GROUP_LTS$,,AUTO
PL6.E3A0      #005=Z8ET$USE_BEFORE_REPORTING File=Z8ET.:Z8A6TSI                  SAT 08/09/97 12:54 Page:451

  16106 17 000030   000043 710000 17                 TRA     s:16116

  16108 17 000031   000001 116000 18                 CMPQ    1
        17 000032   000041 600000 17                 TZE     s:16112
        17 000033   000005 471500                    LDP1    5,,PR0
        17 000034   100000 220100                    LDX0    0,,PR1
        17 000035   001101 100003                    CMPX0   577,DU
        17 000036   000041 601000 17                 TNZ     s:16112

  16110 17 000037   200006 756100                    STQ     GROUP_LTS$,,AUTO
        17 000040   000043 710000 17                 TRA     s:16116

  16112 17 000041   000001 236000 18                 LDQ     1
        17 000042   200006 756100                    STQ     GROUP_LTS$,,AUTO

     2776    16115
     2777    16116    1          IF GROUP_LTS$ = ADDR(NIL) OR

  16116 17 000043   000001 116000 18                 CMPQ    1
        17 000044   000051 600000 17                 TZE     s:16119
        17 000045   200006 471500                    LDP1    GROUP_LTS$,,AUTO
        17 000046   100000 220100                    LDX0    0,,PR1
        17 000047   001101 100003                    CMPX0   577,DU
        17 000050   000176 600000 17                 TZE     s:16241

     2778    16117    1             GROUP_LTS$ -> LTS.ID ~= %REPORT_01_LTS THEN
     2779    16118    2            DO;

     2780    16119    2              CALL Z8AE$ERROR (%E$MUST_BE_REPORT_GROUP,

  16119 17 000051   200004 471500                    LDP1    @OPERAND$,,AUTO
        17 000052   100000 473500                    LDP3    0,,PR1
        17 000053   300004 474500                    LDP4    4,,PR3
        17 000054   400006 635500                    EPPR5   6,,PR4
        17 000055   200014 455500                    STP5    NEXT$+4,,AUTO
        17 000056   400005 633500                    EPPR3   5,,PR4
PL6.E3A0      #005=Z8ET$USE_BEFORE_REPORTING File=Z8ET.:Z8A6TSI                  SAT 08/09/97 12:54 Page:452
        17 000057   200013 453500                    STP3    NEXT$+3,,AUTO
        17 000060   000004 236000 18                 LDQ     4
        17 000061   200012 756100                    STQ     NEXT$+2,,AUTO
        17 000062   200012 630500                    EPPR0   NEXT$+2,,AUTO
        17 000063   000002 631400 18                 EPPR1   2
        17 000064   000000 701000 xent               TSX1    Z8AE$ERROR
        17 000065   000000 011000                    NOP     0

     2781    16120    2                               OPERAND$ -> LX_LIST.HEAD$ -> LX_ITEM.LINE,
     2782    16121    2                               OPERAND$ -> LX_LIST.HEAD$ -> LX_ITEM.COLUMN);
     2783    16122
     2784    16123                   %NEW_REPORT_01_LTS (@POINTER = O1COM.USE_REPORT$);

  16202 17 000066   000002 236000 16                 LDQ     LTS_+2
        17 000067   000024 036007                    ADLQ    20,DL
        17 000070   000003 116000 16                 CMPQ    LTS_+3
        17 000071   000102 604000 17                 TMI     s:16204

  16203 17 000072   000006 236000 18                 LDQ     6
        17 000073   200012 756100                    STQ     NEXT$+2,,AUTO
        17 000074   200012 630500                    EPPR0   NEXT$+2,,AUTO
        17 000075   200013 450500                    STP0    NEXT$+3,,AUTO
        17 000076   200013 630500                    EPPR0   NEXT$+3,,AUTO
        17 000077   000005 631400 18                 EPPR1   5
        17 000100   000000 701000 xent               TSX1    Z8AR$RESERVER
        17 000101   000000 011000                    NOP     0

  16204 17 000102   000002 236000 16                 LDQ     LTS_+2
        17 000103   000022 736000                    QLS     18
        17 000104   000001 036000 16                 ADLQ    LTS_+1
        17 000105   000106 756000 xsym               STQ     O1COM+70

  16205 17 000106   000024 236007                    LDQ     20,DL
        17 000107   000002 056000 16                 ASQ     LTS_+2

  16206 17 000110   001101 220003                    LDX0    577,DU
        17 000111   000106 470400 xsym               LDP0    O1COM+70
PL6.E3A0      #005=Z8ET$USE_BEFORE_REPORTING File=Z8ET.:Z8A6TSI                  SAT 08/09/97 12:54 Page:453
        17 000112   000000 740100                    STX0    0,,PR0

  16212 17 000113   000106 470400 xsym               LDP0    O1COM+70
        17 000114   000000 740100                    STX0    0,,PR0

  16213 17 000115   000001 236000 18                 LDQ     1
        17 000116   000106 470400 xsym               LDP0    O1COM+70
        17 000117   000003 756100                    STQ     3,,PR0

  16214 17 000120   000106 470400 xsym               LDP0    O1COM+70
        17 000121   000004 756100                    STQ     4,,PR0

  16215 17 000122   000106 470400 xsym               LDP0    O1COM+70
        17 000123   000006 756100                    STQ     6,,PR0

  16216 17 000124   000106 470400 xsym               LDP0    O1COM+70
        17 000125   000005 756100                    STQ     5,,PR0

  16217 17 000126   000106 470400 xsym               LDP0    O1COM+70
        17 000127   000007 756100                    STQ     7,,PR0

  16218 17 000130   000106 470400 xsym               LDP0    O1COM+70
        17 000131   000022 756100                    STQ     18,,PR0

  16219 17 000132   000106 470400 xsym               LDP0    O1COM+70
        17 000133   000023 756100                    STQ     19,,PR0

  16220 17 000134   000106 470400 xsym               LDP0    O1COM+70
        17 000135   000014 756100                    STQ     12,,PR0

  16221 17 000136   000106 470400 xsym               LDP0    O1COM+70
        17 000137   000010 450100                    STZ     8,,PR0

  16222 17 000140   000106 470400 xsym               LDP0    O1COM+70
        17 000141   000015 756100                    STQ     13,,PR0

  16223 17 000142   000106 470400 xsym               LDP0    O1COM+70
PL6.E3A0      #005=Z8ET$USE_BEFORE_REPORTING File=Z8ET.:Z8A6TSI                  SAT 08/09/97 12:54 Page:454
        17 000143   000016 756100                    STQ     14,,PR0

  16224 17 000144   000106 470400 xsym               LDP0    O1COM+70
        17 000145   000017 450100                    STZ     15,,PR0

  16225 17 000146   000106 470400 xsym               LDP0    O1COM+70
        17 000147   000021 756100                    STQ     17,,PR0

  16226 17 000150   000106 470400 xsym               LDP0    O1COM+70
        17 000151   000020 450100                    STZ     16,,PR0

  16227 17 000152   000106 470400 xsym               LDP0    O1COM+70
        17 000153   000001 450100                    STZ     1,,PR0

  16228 17 000154   000106 470400 xsym               LDP0    O1COM+70
        17 000155   000011 450100                    STZ     9,,PR0

  16229 17 000156   000106 470400 xsym               LDP0    O1COM+70
        17 000157   000012 450100                    STZ     10,,PR0

  16230 17 000160   000106 470400 xsym               LDP0    O1COM+70
        17 000161   000002 450100                    STZ     2,,PR0

  16231 17 000162   000106 470400 xsym               LDP0    O1COM+70
        17 000163   000013 450100                    STZ     11,,PR0

  16232 17 000164   000000 221003                    LDX1    0,DU
        17 000165   000106 470400 xsym               LDP0    O1COM+70
        17 000166   000000 441100                    SXL1    0,,PR0

  16233 17 000167   000106 470400 xsym               LDP0    O1COM+70
        17 000170   000007 236000 18                 LDQ     7
        17 000171   000000 356100                    ANSQ    0,,PR0

  16234 17 000172   000106 470400 xsym               LDP0    O1COM+70
        17 000173   000010 236000 18                 LDQ     8
        17 000174   000000 356100                    ANSQ    0,,PR0
PL6.E3A0      #005=Z8ET$USE_BEFORE_REPORTING File=Z8ET.:Z8A6TSI                  SAT 08/09/97 12:54 Page:455

     2785    16237
     2786    16238    2              RETURN;

  16238 17 000175   000000 702200 xent               TSX2  ! X66_ARET

     2787    16239    2            END;
     2788    16240
     2789    16241    1          IF GLOBAL$ -> LX_TERMINAL.SYMBOL ~= %EMPTY AND

  16241 17 000176   200003 473500                    LDP3    @GLOBAL$,,AUTO
        17 000177   300000 474500                    LDP4    0,,PR3
        17 000200   400003 235100                    LDA     3,,PR4
        17 000201   000226 600000 17                 TZE     s:16278
        17 000202   000003 236100                    LDQ     3,,PR0
        17 000203   000010 316003                    CANQ    8,DU
        17 000204   000226 601000 17                 TNZ     s:16278

     2790    16242    1                NOT ST$$ -> SCALAR.B.GLOBAL THEN
     2791    16243
     2792    16244                 %CONDITIONAL_ERROR (@LX_ITEM$  = GLOBAL$,
     2793    16245                                     @ERROR#    = %E$GLOBAL_INVALID_IN_USE,
     2794    16246                                     @LINE      = GLOBAL$ -> LX_ITEM.LINE,
     2795    16247                                     @COLUMN    = GLOBAL$ -> LX_ITEM.COLUMN);

  16257 17 000205   400000 236100                    LDQ     0,,PR4
        17 000206   400000 316007                    CANQ    -131072,DL
        17 000207   000226 601000 17                 TNZ     s:16278

  16259 17 000210   400006 635500                    EPPR5   6,,PR4
        17 000211   200014 455500                    STP5    NEXT$+4,,AUTO
        17 000212   400005 636500                    EPPR6   5,,PR4
        17 000213   200013 456500                    STP6    NEXT$+3,,AUTO
        17 000214   000012 236000 18                 LDQ     10
        17 000215   200012 756100                    STQ     NEXT$+2,,AUTO
        17 000216   200012 630500                    EPPR0   NEXT$+2,,AUTO
        17 000217   000002 631400 18                 EPPR1   2
PL6.E3A0      #005=Z8ET$USE_BEFORE_REPORTING File=Z8ET.:Z8A6TSI                  SAT 08/09/97 12:54 Page:456
        17 000220   000000 701000 xent               TSX1    Z8AE$ERROR
        17 000221   000000 011000                    NOP     0

  16268 17 000222   200003 470500                    LDP0    @GLOBAL$,,AUTO
        17 000223   000000 471500                    LDP1    0,,PR0
        17 000224   400000 236007                    LDQ     -131072,DL
        17 000225   100000 256100                    ORSQ    0,,PR1

     2796    16277
     2797    16278    1          NEXT$ = O1COM.REPORT_DD$;

  16278 17 000226   000067 236000 xsym               LDQ     O1COM+55
        17 000227   200010 756100                    STQ     NEXT$,,AUTO

     2798    16279
     2799    16280    2          DO WHILE (NEXT$ ~= ADDR(NIL));

  16280 17 000230   000255 710000 17                 TRA     s:16293

     2800    16281
     2801    16282    2            IF NEXT$ = GROUP_LTS$ THEN

  16282 17 000231   200010 236100                    LDQ     NEXT$,,AUTO
        17 000232   200006 116100                    CMPQ    GROUP_LTS$,,AUTO
        17 000233   000252 601000 17                 TNZ     s:16291

     2802    16283    3              DO;

     2803    16284    3                CALL Z8AE$ERROR (%E$DUP_USE_BEFORE_REPORTING,

  16284 17 000234   200004 470500                    LDP0    @OPERAND$,,AUTO
        17 000235   000000 471500                    LDP1    0,,PR0
        17 000236   100004 473500                    LDP3    4,,PR1
        17 000237   300006 634500                    EPPR4   6,,PR3
        17 000240   200014 454500                    STP4    NEXT$+4,,AUTO
        17 000241   300005 631500                    EPPR1   5,,PR3
        17 000242   200013 451500                    STP1    NEXT$+3,,AUTO
PL6.E3A0      #005=Z8ET$USE_BEFORE_REPORTING File=Z8ET.:Z8A6TSI                  SAT 08/09/97 12:54 Page:457
        17 000243   000014 236000 18                 LDQ     12
        17 000244   200012 756100                    STQ     NEXT$+2,,AUTO
        17 000245   200012 630500                    EPPR0   NEXT$+2,,AUTO
        17 000246   000002 631400 18                 EPPR1   2
        17 000247   000000 701000 xent               TSX1    Z8AE$ERROR
        17 000250   000000 011000                    NOP     0

     2804    16285    3                                 OPERAND$ -> LX_LIST.HEAD$ -> LX_ITEM.LINE,
     2805    16286    3                                 OPERAND$ -> LX_LIST.HEAD$ -> LX_ITEM.COLUMN);
     2806    16287
     2807    16288    3                RETURN;

  16288 17 000251   000000 702200 xent               TSX2  ! X66_ARET

     2808    16289    3              END;
     2809    16290
     2810    16291    2            NEXT$ = NEXT$ -> REPORT_01_LTS.USE_CHAIN$;

  16291 17 000252   200010 470500                    LDP0    NEXT$,,AUTO
        17 000253   000004 236100                    LDQ     4,,PR0
        17 000254   200010 756100                    STQ     NEXT$,,AUTO

     2811    16292
     2812    16293    2          END; /* WHILE */

  16293 17 000255   000001 116000 18                 CMPQ    1
        17 000256   000231 601000 17                 TNZ     s:16282

     2813    16294
     2814    16295    1          GROUP_LTS$ -> REPORT_01_LTS.USE_CHAIN$ = O1COM.REPORT_DD$;

  16295 17 000257   000067 236000 xsym               LDQ     O1COM+55
        17 000260   200006 470500                    LDP0    GROUP_LTS$,,AUTO
        17 000261   000004 756100                    STQ     4,,PR0

     2815    16296    1          O1COM.REPORT_DD$ = GROUP_LTS$;

PL6.E3A0      #005=Z8ET$USE_BEFORE_REPORTING File=Z8ET.:Z8A6TSI                  SAT 08/09/97 12:54 Page:458
  16296 17 000262   200006 236100                    LDQ     GROUP_LTS$,,AUTO
        17 000263   000067 756000 xsym               STQ     O1COM+55

     2816    16297
     2817    16298
     2818    16299    1          IF GROUP_LTS$ -> REPORT_01_LTS.RWCT$ = ADDR(NIL) THEN

  16299 17 000264   000022 236100                    LDQ     18,,PR0
        17 000265   000001 116000 18                 CMPQ    1
        17 000266   000311 601000 17                 TNZ     s:16311

     2819    16300    2            DO;

     2820    16301
     2821    16302    2              CALL Z8AT$CREATE_TEMPORARY (%SCALAR,

  16302 17 000267   200006 236100                    LDQ     GROUP_LTS$,,AUTO
        17 000270   000022 036003                    ADLQ    18,DU
        17 000271   000016 235000 18                 LDA     14
        17 000272   200012 757100                    STAQ    NEXT$+2,,AUTO
        17 000273   200012 630500                    EPPR0   NEXT$+2,,AUTO
        17 000274   000000 631400 18                 EPPR1   0
        17 000275   000000 701000 xent               TSX1    Z8AT$CREATE_TEMPORARY
        17 000276   000000 011000                    NOP     0

     2822    16303    2                        GROUP_LTS$ -> REPORT_01_LTS.RWCT$);
     2823    16304
     2824    16305    2              GROUP_LTS$ -> REPORT_01_LTS.RWCT$ -> SCALAR.TYPE = %TYA;

  16305 17 000277   200006 470500                    LDP0    GROUP_LTS$,,AUTO
        17 000300   000022 471500                    LDP1    18,,PR0
        17 000301   000010 220003                    LDX0    8,DU
        17 000302   100002 740100                    STX0    2,,PR1

     2825    16306    2              GROUP_LTS$ -> REPORT_01_LTS.RWCT$ -> SCALAR.ADSC.N = 32;

  16306 17 000303   000022 471500                    LDP1    18,,PR0
PL6.E3A0      #005=Z8ET$USE_BEFORE_REPORTING File=Z8ET.:Z8A6TSI                  SAT 08/09/97 12:54 Page:459
        17 000304   000040 236007                    LDQ     32,DL
        17 000305   100001 752103                    STCQ    1,'03'O,PR1

     2826    16307    2              GROUP_LTS$ -> REPORT_01_LTS.RWCT$ -> SCALAR.ADSC.TA = %ADSC9;

  16307 17 000306   000022 471500                    LDP1    18,,PR0
        17 000307   000017 236000 18                 LDQ     15
        17 000310   100001 356100                    ANSQ    1,,PR1

     2827    16308
     2828    16309    2            END;

     2829    16310
     2830    16311    1          USE_SECT$ -> SECTION.B.REFERENCED = TRUE;

  16311 17 000311   200005 471500                    LDP1    @USE_SECT$,,AUTO
        17 000312   100000 473500                    LDP3    0,,PR1
        17 000313   400000 236003                    LDQ     -131072,DU
        17 000314   300003 256100                    ORSQ    3,,PR3

     2831    16312
     2832    16313               %NEW_ILL(@ID  = %P_A_PRESET,
     2833    16314                        @OFFSET = %USE_PROC_PTR_OFF,
     2834    16315                        @TO     = GROUP_LTS$ -> REPORT_01_LTS.RWCT$,
     2835    16316                        @LOP    = USE_SECT$,
     2836    16317                        @ROPCON = 0);

  16574 17 000315   000023 236000 18                 LDQ     19
        17 000316   200012 756100                    STQ     NEXT$+2,,AUTO
        17 000317   200012 633500                    EPPR3   NEXT$+2,,AUTO
        17 000320   200017 453500                    STP3    NEXT$+7,,AUTO
        17 000321   000024 236000 18                 LDQ     20
        17 000322   200016 756100                    STQ     NEXT$+6,,AUTO
        17 000323   000026 237000 18                 LDAQ    22
        17 000324   200014 757100                    STAQ    NEXT$+4,,AUTO
        17 000325   200014 630500                    EPPR0   NEXT$+4,,AUTO
        17 000326   000020 631400 18                 EPPR1   16
PL6.E3A0      #005=Z8ET$USE_BEFORE_REPORTING File=Z8ET.:Z8A6TSI                  SAT 08/09/97 12:54 Page:460
        17 000327   000000 701000 xent               TSX1    Z8AN$NEW_ILL
        17 000330   000000 011000                    NOP     0

  16578 17 000331   000000 220003                    LDX0    0,DU
        17 000332   000000 470400 11                 LDP0    ILL$
        17 000333   000000 440100                    SXL0    0,,PR0

  16580 17 000334   000000 470400 11                 LDP0    ILL$
        17 000335   000002 450100                    STZ     2,,PR0

  16581 17 000336   200005 471500                    LDP1    @USE_SECT$,,AUTO
        17 000337   100000 236100                    LDQ     0,,PR1
        17 000340   000001 756100                    STQ     1,,PR0

  16582 17 000341   200006 473500                    LDP3    GROUP_LTS$,,AUTO
        17 000342   300022 236100                    LDQ     18,,PR3
        17 000343   000003 756100                    STQ     3,,PR0

     2837    16696
     2838    16697    1          O1COM.USE_REPORT$ = GROUP_LTS$;

  16697 17 000344   200006 236100                    LDQ     GROUP_LTS$,,AUTO
        17 000345   000106 756000 xsym               STQ     O1COM+70

     2839    16698
     2840    16699
     2841    16700    1    RETURN;

  16700 17 000346   000000 702200 xent               TSX2  ! X66_ARET
     2842    16701    1    END Z8ET$USE_BEFORE_REPORTING;
     2843    16702         %EOD;

PL6.E3A0      #005=Z8ET$USE_BEFORE_REPORTING File=Z8ET.:Z8A6TSI                  SAT 08/09/97 12:54 Page:461
--  Include file information  --

   Z8A_LTS.:Z8A6TOU  cannot be made into a system file and is referenced.
   Z8A_ILS.:Z8A6TOU  cannot be made into a system file and is referenced.
   Z8A_ILL.:Z8A6TOU  cannot be made into a system file and is referenced.
   Z8A_ETT.:Z8A6TOU  cannot be made into a system file and is referenced.
   Z8E_WINDOW.:Z8A6TOU  is referenced.
   Z8A_ST.:Z8A6TOU  cannot be made into a system file and is referenced.
   Z8A_TYPES.:Z8A6TOU  is referenced.
   Z8A_ERR_NUMS.:Z8A6TOU  is referenced.
   Z8E_NEW_ILL.:Z8A6TOU  is referenced.
   Z8E_MACROS.:Z8A6TOU  cannot be made into a system file and is referenced.
   Z8E_O1COM.:Z8A6TOU  cannot be made into a system file and is referenced.
   Z8A_LEX_SYMB.:Z8A6TOU  cannot be made into a system file and is referenced.
   Z8E_STACKS.:Z8A6TOU  cannot be made into a system file and is referenced.
   X8A_COM_MACS.:X8A6TOU  is referenced.
   Z8A_NAMES.:Z8A6TOU  is referenced.
   Z8A_SUPP_MAC.:Z8A6TOU  is referenced.
   Z8A_DEFC.:Z8A6TOU  cannot be made into a system file and is referenced.
      No diagnostics issued in procedure Z8ET$USE_BEFORE_REPORTING.
PL6.E3A0      #005=Z8ET$USE_BEFORE_REPORTING File=Z8ET.:Z8A6TSI                  SAT 08/09/97 12:54 Page:462

 **** Variables and constants ****

  ****  Section 000 LblCom ITERATION

  ****  Scalars and arrays  ****
OctLoc.c.b A Datatyp(siz) R M Lvl/name                 OctLoc.c.b A Datatyp(siz) R M Lvl/name

     0-0-0/w SBIN              1 ITERATION

  ****  Section 001 LblCom LEX_SYMBOL

  ****  Scalars and arrays  ****
OctLoc.c.b A Datatyp(siz) R M Lvl/name                 OctLoc.c.b A Datatyp(siz) R M Lvl/name

     0-0-0/w STRC(3240)  r     1 LEX_SYMBOL                 0-0-0/w STRC(3240)        1 LEX_SYMBOL_WORDS

  ****  Section 002 LblCom CURRENT_LEX_SYMBOL$

  ****  Scalars and arrays  ****
OctLoc.c.b A Datatyp(siz) R M Lvl/name                 OctLoc.c.b A Datatyp(siz) R M Lvl/name

     0-0-0/w PTR         r     1 CURRENT_LEX_SYMBOL$

  ****  Section 003 LblCom TEMP_LEX_SYMBOL

  ****  Scalars and arrays  ****
OctLoc.c.b A Datatyp(siz) R M Lvl/name                 OctLoc.c.b A Datatyp(siz) R M Lvl/name

     0-0-0/w STRC(3240)        1 TEMP_LEX_SYMBOL

  ****  Section 004 LblCom TEMP_LEX_SYMBOL2

  ****  Scalars and arrays  ****
OctLoc.c.b A Datatyp(siz) R M Lvl/name                 OctLoc.c.b A Datatyp(siz) R M Lvl/name

     0-0-0/w STRC(3240)        1 TEMP_LEX_SYMBOL2

PL6.E3A0      #005=Z8ET$USE_BEFORE_REPORTING File=Z8ET.:Z8A6TSI                  SAT 08/09/97 12:54 Page:463
  ****  Section 005 LblCom ST$

  ****  Scalars and arrays  ****
OctLoc.c.b A Datatyp(siz) R M Lvl/name                 OctLoc.c.b A Datatyp(siz) R M Lvl/name

     0-0-0/w PTR         r     1 ST$

  ****  Section 006 LblCom ST_

  ****  Scalars and arrays  ****
OctLoc.c.b A Datatyp(siz) R M Lvl/name                 OctLoc.c.b A Datatyp(siz) R M Lvl/name

     0-0-0/w STRC(180)         1 ST_

  ****  Section 007 LblCom ETT$

  ****  Scalars and arrays  ****
OctLoc.c.b A Datatyp(siz) R M Lvl/name                 OctLoc.c.b A Datatyp(siz) R M Lvl/name

     0-0-0/w PTR         r     1 ETT$

  ****  Section 008 LblCom HEAD_ETT$

  ****  Scalars and arrays  ****
OctLoc.c.b A Datatyp(siz) R M Lvl/name                 OctLoc.c.b A Datatyp(siz) R M Lvl/name

     0-0-0/w PTR               1 HEAD_ETT$

  ****  Section 009 LblCom ETT_BUCKETS

  ****  Scalars and arrays  ****
OctLoc.c.b A Datatyp(siz) R M Lvl/name                 OctLoc.c.b A Datatyp(siz) R M Lvl/name

     0-0-0/w PTR               1 ETT_BUCKETS(0:511)

  ****  Section 010 LblCom ETT_

PL6.E3A0      #005=Z8ET$USE_BEFORE_REPORTING File=Z8ET.:Z8A6TSI                  SAT 08/09/97 12:54 Page:464
  ****  Scalars and arrays  ****
OctLoc.c.b A Datatyp(siz) R M Lvl/name                 OctLoc.c.b A Datatyp(siz) R M Lvl/name

     0-0-0/w STRC(180)         1 ETT_

  ****  Section 011 LblCom ILL$

  ****  Scalars and arrays  ****
OctLoc.c.b A Datatyp(siz) R M Lvl/name                 OctLoc.c.b A Datatyp(siz) R M Lvl/name

     0-0-0/w PTR         r     1 ILL$

  ****  Section 012 LblCom ILL_

  ****  Scalars and arrays  ****
OctLoc.c.b A Datatyp(siz) R M Lvl/name                 OctLoc.c.b A Datatyp(siz) R M Lvl/name

     0-0-0/w STRC(180)         1 ILL_

  ****  Section 013 LblCom ILS$

  ****  Scalars and arrays  ****
OctLoc.c.b A Datatyp(siz) R M Lvl/name                 OctLoc.c.b A Datatyp(siz) R M Lvl/name

     0-0-0/w PTR         r     1 ILS$

  ****  Section 014 LblCom ILS_

  ****  Scalars and arrays  ****
OctLoc.c.b A Datatyp(siz) R M Lvl/name                 OctLoc.c.b A Datatyp(siz) R M Lvl/name

     0-0-0/w STRC(180)         1 ILS_

  ****  Section 015 LblCom LTS$

  ****  Scalars and arrays  ****
OctLoc.c.b A Datatyp(siz) R M Lvl/name                 OctLoc.c.b A Datatyp(siz) R M Lvl/name
PL6.E3A0      #005=Z8ET$USE_BEFORE_REPORTING File=Z8ET.:Z8A6TSI                  SAT 08/09/97 12:54 Page:465

     0-0-0/w PTR               1 LONG_ITEM$                 0-0-0/w PTR         r     1 LTS$

  ****  Section 016 LblCom LTS_

  ****  Scalars and arrays  ****
OctLoc.c.b A Datatyp(siz) R M Lvl/name                 OctLoc.c.b A Datatyp(siz) R M Lvl/name

     0-0-0/w STRC(180)   r     1 LTS_

  ****  Auto variables  ****

  ****  Scalars and arrays  ****
OctLoc.c.b A Datatyp(siz) R M Lvl/name                 OctLoc.c.b A Datatyp(siz) R M Lvl/name

     3-0-0/w PTR         r     1 @GLOBAL$                   4-0-0/w PTR         r     1 @OPERAND$
     5-0-0/w PTR         r     1 @USE_SECT$                *0-0-0/w PTR         r     1 GLOBAL$
     6-0-0/w PTR         r     1 GROUP_LTS$                10-0-0/w PTR         r     1 NEXT$
    *0-0-0/w PTR         r     1 OPERAND$                   7-0-0/w PTR         r     1 ST$$
    *0-0-0/w PTR         r     1 USE_SECT$

  ****  SYMREF variables  ****

  ****  Scalars and arrays  ****
OctLoc.c.b A Datatyp(siz) R M Lvl/name                 OctLoc.c.b A Datatyp(siz) R M Lvl/name

     0-0-0/w STRC(180)         1 HIER_STK(0:50)
     0-0-0/w SBIN              1 HIER_STK_PTR               0-0-0/w UBIN              1 ILL_STEP(0:144)
     0-0-0/w UBIN              1 ILS_STEP_TABLE(0:2)
     0-0-0/w UBIN              1 LTS_STEP(0:37)
     0-0-0/d STRC(11580) r     1 O1COM                      0-0-0/w STRC(144)         1 PAGE_FORMAT
     0-0-0/w STRC(153)         1 REP_STK(0:50)              0-0-0/w SBIN              1 REP_STK_PTR

  ****  BASED and DCB variables  ****

  ****  Scalars and arrays  ****
OctLoc.c.b A Datatyp(siz) R M Lvl/name                 OctLoc.c.b A Datatyp(siz) R M Lvl/name
PL6.E3A0      #005=Z8ET$USE_BEFORE_REPORTING File=Z8ET.:Z8A6TSI                  SAT 08/09/97 12:54 Page:466

     0-0-0/w STRC(108)         1 ACCEPT_DISPLAY             0-0-0/w STRC(288)         1 ADD_STMT
     0-0-0/w STRC(396)         1 ALPHABET                   0-0-0/w STRC(144)         1 ALTER_LTS
     0-0-0/w STRC(3672)        1 ALT_KEY                    0-0-0/w STRC(36864)       1 ARGLIST
     0-0-0/w STRC(396)         1 ARRAY                      0-0-0/w STRC(180)         1 ARRAY_PRESET_LTS
     0-0-0/w ASTR(324)   r     1 BASED_LEX_SYMBOL
     0-0-0/w STRC(360)         1 BASED_LEX_SYMBOL_WORDS
     0-0-0/w STRC(288)         1 BASE_LTS                   0-0-0/w STRC(108)         1 BINARY_ILL
     0-0-0/w STRC(288)         1 BINARY_OP                  0-0-0/w STRC(396)         1 BLOCK
     0-0-0/w STRC(144)         1 BRANCH_ILL                 0-0-0/w STRC(144)         1 BT
     0-0-0/w STRC(288)         1 CALL_STMT                  0-0-0/w STRC(216)         1 CCOSU
     0-0-0/w STRC(396)         1 CD                         0-0-0/w STRC(288)         1 CD_LTS
     0-0-0/w CHAR(4096)        1 CHARS                      0-0-0/w STRC(396)         1 CLASS
     0-0-0/w STRC(108)         1 CODED_MOVE                 0-0-0/w STRC(288)         1 COMPUTE_STMT
     0-0-0/w STRC(396)         1 CONDITION                  0-0-0/w STRC(396)         1 CONST
     0-0-0/w STRC(72)          1 CONT                       0-0-0/w STRC(540)         1 CONTROL_NAME_LTS
     0-0-0/w STRC(1872)        1 COPY_FILE                  0-0-0/w STRC(396)         1 DB
     0-0-0/w STRC(396)         1 DCB_                       0-0-0/w STRC(288)         1 DEFERED_IDENTIFIER
     0-0-0/w STRC(252)         1 DEFERED_ID_TREE            0-0-0/w STRC(288)         1 DEFERED_QUAL_ID
     0-0-0/w STRC(288)         1 DEFERED_SUM_CLAUSE
     0-0-0/w STRC(288)         1 DEFERED_SUM_CLAUSE_LIST
     0-0-0/w STRC(144)         1 DEFLB                      0-0-0/w STRC(288)         1 DELETE_STMT
     0-0-0/w STRC(108)         1 DEPENDING_SIZE             0-0-0/w STRC(5472)        1 DIMS
     0-0-0/w STRC(288)         1 DIVIDE_STMT                0-0-0/w STRC(396)         1 DML_ITEM
     0-0-0/w STRC(216)         1 DML_REC                    0-0-0/w STRC(144)         1 DOEND
     0-0-0/w STRC(396)         1 DO_N                       0-0-0/w STRC(180)         1 DV4I
     0-0-0/w STRC(180)         1 ENTRY_ILL                  0-0-0/w STRC(180)         1 ETT
     0-0-0/w STRC(108)         1 EVALU                      0-0-0/w STRC(73836)       1 EVALUATE
     0-0-0/w STRC(396)         1 FD                         0-0-0/w STRC(1692)        1 FILE_LTS
     0-0-0/w STRC(144)         1 GO                         0-0-0/w STRC(180)         1 ILL
     0-0-0/w STRC              1 ILL_NO_OPS                 0-0-0/w STRC(180)         1 ILS
     0-0-0/w STRC(288)         1 ILS_LIST                   0-0-0/w STRC(108)         1 INDEXES
     0-0-0/w STRC(360)         1 INIT_LTS                   0-0-0/w STRC(288)         1 INSPECT_1_STMT
     0-0-0/w STRC(288)         1 INSPECT_2_STMT             0-0-0/w STRC(288)         1 INSPECT_4_STMT
     0-0-0/w STRC(396)         1 INTDEF                     0-0-0/w STRC(180)         1 IO_RESTORE_CHAIN
     0-0-0/w STRC(144)         1 KEY                        0-0-0/w STRC(396)         1 LABEL
     0-0-0/w STRC(288)         1 LA_ITEM                    0-0-0/w STRC(36864)       1 LCNST
PL6.E3A0      #005=Z8ET$USE_BEFORE_REPORTING File=Z8ET.:Z8A6TSI                  SAT 08/09/97 12:54 Page:467
     0-0-0/w STRC(108)         1 LINOI                      0-0-0/w STRC(72)          1 LONG
     0-0-0/w STRC        r     1 LTS                        0-0-0/w STRC(360)   r     1 LTSS
     0-0-0/w STRC(36936)       1 LTS_PTR_ARRAY              0-0-0/w STRC(504)         1 LX_CD_INPUT
     0-0-0/w STRC(324)         1 LX_CD_I_O                  0-0-0/w STRC(396)         1 LX_CD_OUTPUT
     0-0-0/w STRC(288)         1 LX_ETT_ITEM                0-0-0/w STRC(288)   r     1 LX_ITEM
     0-0-0/w STRC(288)         1 LX_LARGE                   0-0-0/w STRC(288)   r     1 LX_LIST
     0-0-0/w STRC(1224)        1 LX_REC_DECL                0-0-0/w STRC(864)         1 LX_REPORT_REC
     0-0-0/w STRC(288)   r     1 LX_TERMINAL                0-0-0/w STRC(72)          1 MFILL
     0-0-0/w STRC(396)         1 MNEMONIC                   0-0-0/w STRC(288)         1 MULTIPLY_STMT
     0-0-0/w STRC(180)         1 MULTI_GO                   0-0-0/w STRC(180)         1 MVEAL
     0-0-0/w STRC(108)         1 MVFIL                      0-0-0/w STRC(72)          1 MVIIS
     0-0-0/w STRC(144)         1 NEL                        0-0-0/w STRC(216)         1 OPEN_LTS
     0-0-0/w STRC(144)         1 OPN                        0-0-0/w STRC(180)         1 OS_CALL
     0-0-0/w STRC(36864)       1 PAGE                       0-0-0/w STRC(396)         1 PARA
     0-0-0/w STRC(216)         1 PFORM                      0-0-0/w STRC(144)         1 PINC
     0-0-0/w STRC(144)         1 PREOFF                     0-0-0/w STRC(108)         1 PRESET
     0-0-0/w STRC(144)         1 PRIME                      0-0-0/w STRC(396)         1 PROC_
     0-0-0/w STRC(396)         1 PROC_DEF                   0-0-0/w STRC(900)         1 PROC_SUPP
     0-0-0/w STRC(144)   r     1 P_A_PRESET                 0-0-0/w STRC(144)         1 P_P_PRESET
     0-0-0/w STRC(396)         1 RD                         0-0-0/w STRC(288)         1 READ_STMT
     0-0-0/w STRC(216)         1 REF                        0-0-0/w STRC(144)         1 REMEM
     0-0-0/w STRC(108)         1 RENAMES                    0-0-0/w STRC(720)   r     1 REPORT_01_LTS
     0-0-0/w STRC(432)         1 REPORT_ELEM_LTS            0-0-0/w STRC(252)         1 REPORT_GRP_LTS
     0-0-0/w STRC(1332)        1 REPORT_LTS                 0-0-0/w STRC(288)         1 REWRITE_STMT
     0-0-0/w STRC(144)         1 RVA_LTS                    0-0-0/w STRC(396)   r     1 SCALAR
     0-0-0/w STRC(144)         1 SCOPE                      0-0-0/w STRC(396)         1 SD
     0-0-0/w STRC(216)         1 SEARCH_                    0-0-0/w STRC(396)   r     1 SECTION
     0-0-0/w STRC(396)         1 SEGMENT                    0-0-0/w STRC(360)         1 SEGMENT_LTS
     0-0-0/w STRC(396)         1 ST                         0-0-0/w STRC(288)         1 START_STMT
     0-0-0/w STRC(72)          1 STP2                       0-0-0/w STRC(252)         1 STRING_STMT
     0-0-0/w STRC(288)         1 SUBTRACT_STMT              0-0-0/w STRC(252)         1 SUM_LTS
     0-0-0/w STRC(396)         1 SWITCH                     0-0-0/w STRC(396)         1 SYMBOLIC_CHAR
     0-0-0/w STRC(396)         1 SYMDEF_                    0-0-0/w STRC(396)         1 SYMREF_
     0-0-0/w STRC(396)         1 TEMP                       0-0-0/w STRC(144)         1 TRINARY_ILL
     0-0-0/w STRC(72)          1 UNARY_ILL                  0-0-0/w STRC(288)         1 UNARY_OP
     0-0-0/w STRC(288)         1 UNSTRING_STMT              0-0-0/d STRC(612)         1 USE
     0-0-0/w STRC(216)         1 USER_CALL                  0-0-0/w STRC(252)         1 USE_SUPP
PL6.E3A0      #005=Z8ET$USE_BEFORE_REPORTING File=Z8ET.:Z8A6TSI                  SAT 08/09/97 12:54 Page:468
     0-0-0/w STRC(108)         1 VAL                        0-0-0/w STRC(108)         1 VAL_END
     0-0-0/w STRC(396)   r     1 VARIABLE                   0-0-0/w STRC(72)          1 WHEN
     0-0-0/w STRC(288)         1 WRITE_STMT


   Procedure Z8ET$USE_BEFORE_REPORTING requires 231 words for executable code.
   Procedure Z8ET$USE_BEFORE_REPORTING requires 16 words of local(AUTO) storage.

PL6.E3A0      #006=Z8ET$SUPPRESS File=Z8ET.:Z8A6TSI                              SAT 08/09/97 12:56 Page:469
     2844        1        /*T***********************************************************/
     2845        2        /*T*                                                         */
     2846        3        /*T* Copyright (c) Bull HN Information Systems Inc., 1997    */
     2847        4        /*T*                                                         */
     2848        5        /*T***********************************************************/
     2849        6
     2850        7        /*M*  Z8ET$SUPPRESS---Process the SUPPRESS statement*/
     2851        8
     2852        9
     2853       10        /*P*
     2854       11               NAME:  Z8ET$SUPPRESS
     2855       12             AUTHOR:  Min Lee.
     2856       13            PURPOSE:  Verify and process SUPPRESS statement
     2857       14
     2858       15        */
     2859       16
     2860       17        /*D*
     2861       18               NAME:  Z8ET$SUPPRESS
     2862       19               CALL:  CALL Z8ET$SUPPRESS(KEYWORD$)
     2863       20              INPUT:  KEYWORD$  --- LX_STK item of the keyword SUPPRESS
     2864       21
     2865       22
     2866       23
     2867       24        DESCRIPTION:  Verify the SUPPRESS statement and create run time
     2868       25                      instructions to flag the suppress printing bit on,
     2869       26                      that bit is on the report group run time table.
     2870       27         */
     2871       28         %EJECT;
PL6.E3A0      #006=Z8ET$SUPPRESS File=Z8ET.:Z8A6TSI                              SAT 08/09/97 12:56 Page:470
     2872       29
     2873       30         /*=============*/
     2874       31           Z8ET$SUPPRESS: PROC (KEYWORD$);
     2875       32         /*=============*/
     2876       33
     2877       34        %EQU PHASE = 1;
     2878       35
     2879       36        %INCLUDE Z8A_DEFC;
     2880      104        %INCLUDE Z8A_SUPP_MAC ;
     2881     2504        %INCLUDE Z8E_STACKS ;
     2882     4770        %INCLUDE Z8E_O1COM;
     2883     5531        %INCLUDE Z8A_COMCOM;
     2884     6181        %INCLUDE Z8A_ERR_NUMS;
     2885     6945        %INCLUDE Z8A_ST ;
     2886    10604        %INCLUDE Z8A_TYPES;
     2887    10778        %INCLUDE Z8A_ETT ;
     2888    11079        %INCLUDE Z8A_LTS ;
     2889    13156        %INCLUDE Z8A_MKCN;
     2890    13173
     2891    13174
     2892    13175    1   DCL KEYWORD$       PTR;
     2893    13176    1   DCL GROUP_LTS$     PTR;
     2894    13177    1   DCL RWCT$          PTR;
     2895    13178    1   DCL CONST_ETT$     PTR;
     2896    13179    1   DCL BASE_ETT$      PTR;
     2897    13180    1   DCL Z8AE$ERROR     ENTRY (12);
     2898    13181    1   DCL Z8AC$MAKE_CONST ENTRY (1);
     2899    13182    1   DCL Z8AF$NEW_BASE ENTRY (3);
     2900    13183    1   DCL Z8AF$NEW_OFF  ENTRY (3);
     2901    13184    1   DCL Z8E7$MOVE     ENTRY (2);
     2902    13185
     2903    13186
     2904    13187        %DCL_AUTO_LX_ITEM (@NAME = SEND_FIELD);
     2905    13191        %DCL_AUTO_LX_ITEM (@NAME = RECV_FIELD);
     2906    13195
     2907    13196
     2908    13197
PL6.E3A0      #006=Z8ET$SUPPRESS File=Z8ET.:Z8A6TSI                              SAT 08/09/97 12:56 Page:471
     2909    13198    1          IF O1COM.USE_REPORT$ = ADDR(NIL) OR
     2910    13199    1             O1COM.USE_REPORT$ -> REPORT_01_LTS.RWCT$ = ADDR(NIL) THEN
     2911    13200    2            DO;
     2912    13201
     2913    13202    2              CALL Z8AE$ERROR (%E$SUPPRESS_ERROR,
     2914    13203    2                               KEYWORD$ -> LX_ITEM.LINE,
     2915    13204    2                               KEYWORD$ -> LX_ITEM.COLUMN);
     2916    13205
     2917    13206    2              RETURN;
     2918    13207    2            END;
     2919    13208
     2920    13209    1          RWCT$ = O1COM.USE_REPORT$ -> REPORT_01_LTS.RWCT$;
     2921    13210
     2922    13211    1          MKCN.CON = -1;
     2923    13212
     2924    13213    1          CALL Z8AC$MAKE_CONST (CONST_ETT$);
     2925    13214
     2926    13215               %INIT_LX_ETT_ITEM (@POINTER = "ADDR(SEND_FIELD)",
     2927    13216                                  @TYPE    = %TYI,
     2928    13217                                  @ETT$    = CONST_ETT$);
     2929    13239
     2930    13240    1          CALL Z8AF$NEW_BASE (RWCT$,
     2931    13241    1                              ADDR(NIL),
     2932    13242    1                              BASE_ETT$);
     2933    13243
     2934    13244    1          CALL Z8AF$NEW_OFF (BASE_ETT$,
     2935    13245    1                             4, /* 1 word, in units of bytes */
     2936    13246    1                             BASE_ETT$);
     2937    13247
     2938    13248               %INIT_LX_ETT_ITEM (@POINTER = "ADDR(RECV_FIELD)",
     2939    13249                                  @TYPE    = %TYI,
     2940    13250                                  @ETT$    = BASE_ETT$);
     2941    13272
     2942    13273    1          CALL Z8E7$MOVE (ADDR(RECV_FIELD),
     2943    13274    1                          ADDR(SEND_FIELD));
     2944    13275
     2945    13276
PL6.E3A0      #006=Z8ET$SUPPRESS File=Z8ET.:Z8A6TSI                              SAT 08/09/97 12:56 Page:472
     2946    13277
     2947    13278    1    RETURN;
     2948    13279    1    END Z8ET$SUPPRESS;

PL6.E3A0      #006=Z8ET$SUPPRESS File=Z8ET.:Z8A6TSI                              SAT 08/09/97 12:56 Page:473
--  Include file information  --

   Z8A_MKCN.:Z8A6TOU  cannot be made into a system file and is referenced.
   Z8A_LTS.:Z8A6TOU  cannot be made into a system file and is referenced.
   Z8A_ETT.:Z8A6TOU  cannot be made into a system file and is referenced.
   Z8A_TYPES.:Z8A6TOU  is referenced.
   Z8A_ST.:Z8A6TOU  cannot be made into a system file and is referenced.
   Z8A_ERR_NUMS.:Z8A6TOU  is referenced.
   Z8A_COMCOM.:Z8A6TOU  cannot be made into a system file and is referenced.
   Z8E_O1COM.:Z8A6TOU  cannot be made into a system file and is referenced.
   Z8A_LEX_SYMB.:Z8A6TOU  cannot be made into a system file and is referenced.
   Z8E_STACKS.:Z8A6TOU  cannot be made into a system file and is referenced.
   X8A_COM_MACS.:X8A6TOU  is referenced.
   Z8A_NAMES.:Z8A6TOU  is referenced.
   Z8A_SUPP_MAC.:Z8A6TOU  is referenced.
   Z8A_DEFC.:Z8A6TOU  cannot be made into a system file and is referenced.
      No diagnostics issued in procedure Z8ET$SUPPRESS.

   Procedure Z8ET$SUPPRESS requires 97 words for executable code.
   Procedure Z8ET$SUPPRESS requires 28 words of local(AUTO) storage.

    No errors detected in file Z8ET.:Z8A6TSI    .

PL6.E3A0      #006=Z8ET$SUPPRESS File=Z8ET.:Z8A6TSI                              SAT 08/09/97 12:56 Page:474

 Object Unit name= Z8ET$SUPPRESS                              File name= Z8ET.:Z8A6TOU
 UTS= AUG 09 '97 12:56:24.88 SAT                              Compiler= PL-6/E31         Sev=      00
 SharedLib= :SHARED_SYSTEM                                    Alt SharedLib=


    ****  Control sections  ****

 Sect   Type Bound  Init  Size OctSiz  Section name(segment info)
    0  LblCom even  none     1      1  ITERATION
    1  LblCom even  none    90    132  LEX_SYMBOL
    2  LblCom even  none     1      1  CURRENT_LEX_SYMBOL$
    3  LblCom even  none    90    132  TEMP_LEX_SYMBOL
    4  LblCom even  none    90    132  TEMP_LEX_SYMBOL2
    5  LblCom even  none     1      1  ST$
    6  LblCom even  none     5      5  ST_
    7  LblCom even  none     1      1  ETT$
    8  LblCom even  none     1      1  HEAD_ETT$
    9  LblCom even  none   512   1000  ETT_BUCKETS
   10  LblCom even  none     5      5  ETT_
   11  LblCom even  none     1      1  LTS$
   12  LblCom even  none     5      5  LTS_
   13  LblCom even  none     2      2  MKCN
   14   Proc  even  none    97    141  Z8ET$SUPPRESS
   15  RoData even  none     8     10  Z8ET$SUPPRESS

    ****  Entry defs  ****

                              Check   Calling
                             calling  sequence
  Sect OctLoc Primary Altret sequence   type   Parms  Name
    14      0   yes            yes      Std        1  Z8ET$SUPPRESS
PL6.E3A0      #006=Z8ET$SUPPRESS File=Z8ET.:Z8A6TSI                              SAT 08/09/97 12:56 Page:475

  ****  Entry refs  ****

         Check        Calling
        calling       sequence
Altret sequence SRef   type   Args  Name
         yes           Std      12 Z8AE$ERROR
         yes           Std       3 Z8AF$NEW_OFF
         yes           Std       1 Z8AC$MAKE_CONST
         yes           Std       3 Z8AF$NEW_BASE
         yes           Std       2 Z8E7$MOVE
                       nStd      0 X66_AUTO_1
                       nStd      0 X66_ARET

  ****  Data refs  ****

  Flags:  r = read only, s = secondary
Flgs Name                             Flgs Name                             Flgs Name
     O1COM                                 HIER_STK_PTR                          HIER_STK
     PAGE_FORMAT                           REP_STK_PTR                           REP_STK
     COMCOM                           r    LTS_STEP

  ****  Segment refs  ****

  Flags:  r = read only, s = secondary
Flgs Name                             Flgs Name                             Flgs Name
     ISSID                                 NULLSID
PL6.E3A0      #006=Z8ET$SUPPRESS File=Z8ET.:Z8A6TSI                              SAT 08/09/97 12:56 Page:476


     2844        1        /*T***********************************************************/
     2845        2        /*T*                                                         */
     2846        3        /*T* Copyright (c) Bull HN Information Systems Inc., 1997    */
     2847        4        /*T*                                                         */
     2848        5        /*T***********************************************************/
     2849        6
     2850        7        /*M*  Z8ET$SUPPRESS---Process the SUPPRESS statement*/
     2851        8
     2852        9
     2853       10        /*P*
     2854       11               NAME:  Z8ET$SUPPRESS
     2855       12             AUTHOR:  Min Lee.
     2856       13            PURPOSE:  Verify and process SUPPRESS statement
     2857       14
     2858       15        */
     2859       16
     2860       17        /*D*
     2861       18               NAME:  Z8ET$SUPPRESS
     2862       19               CALL:  CALL Z8ET$SUPPRESS(KEYWORD$)
     2863       20              INPUT:  KEYWORD$  --- LX_STK item of the keyword SUPPRESS
     2864       21
     2865       22
     2866       23
     2867       24        DESCRIPTION:  Verify the SUPPRESS statement and create run time
     2868       25                      instructions to flag the suppress printing bit on,
     2869       26                      that bit is on the report group run time table.
     2870       27         */
     2871       28         %EJECT;
PL6.E3A0      #006=Z8ET$SUPPRESS File=Z8ET.:Z8A6TSI                              SAT 08/09/97 12:56 Page:477
     2872       29
     2873       30         /*=============*/
     2874       31           Z8ET$SUPPRESS: PROC (KEYWORD$);

     31 14 000000   000000 700200 xent  Z8ET$SUPPRE* TSX0  ! X66_AUTO_1
        14 000001   000034 000001                    ZERO    28,1

     2875       32         /*=============*/
     2876       33
     2877       34        %EQU PHASE = 1;
     2878       35
     2879       36        %INCLUDE Z8A_DEFC;
     2880      104        %INCLUDE Z8A_SUPP_MAC ;
     2881     2504        %INCLUDE Z8E_STACKS ;
     2882     4770        %INCLUDE Z8E_O1COM;
     2883     5531        %INCLUDE Z8A_COMCOM;
     2884     6181        %INCLUDE Z8A_ERR_NUMS;
     2885     6945        %INCLUDE Z8A_ST ;
     2886    10604        %INCLUDE Z8A_TYPES;
     2887    10778        %INCLUDE Z8A_ETT ;
     2888    11079        %INCLUDE Z8A_LTS ;
     2889    13156        %INCLUDE Z8A_MKCN;
     2890    13173
     2891    13174
     2892    13175    1   DCL KEYWORD$       PTR;
     2893    13176    1   DCL GROUP_LTS$     PTR;
     2894    13177    1   DCL RWCT$          PTR;
     2895    13178    1   DCL CONST_ETT$     PTR;
     2896    13179    1   DCL BASE_ETT$      PTR;
     2897    13180    1   DCL Z8AE$ERROR     ENTRY (12);
     2898    13181    1   DCL Z8AC$MAKE_CONST ENTRY (1);
     2899    13182    1   DCL Z8AF$NEW_BASE ENTRY (3);
     2900    13183    1   DCL Z8AF$NEW_OFF  ENTRY (3);
     2901    13184    1   DCL Z8E7$MOVE     ENTRY (2);
     2902    13185
     2903    13186
     2904    13187        %DCL_AUTO_LX_ITEM (@NAME = SEND_FIELD);
PL6.E3A0      #006=Z8ET$SUPPRESS File=Z8ET.:Z8A6TSI                              SAT 08/09/97 12:56 Page:478
     2905    13191        %DCL_AUTO_LX_ITEM (@NAME = RECV_FIELD);
     2906    13195
     2907    13196
     2908    13197
     2909    13198    1          IF O1COM.USE_REPORT$ = ADDR(NIL) OR

  13198 14 000002   000106 236000 xsym               LDQ     O1COM+70
        14 000003   000000 116000 15                 CMPQ    0
        14 000004   000011 600000 14                 TZE     s:13202
        14 000005   000106 470400 xsym               LDP0    O1COM+70
        14 000006   000022 236100                    LDQ     18,,PR0
        14 000007   000000 116000 15                 CMPQ    0
        14 000010   000026 601000 14                 TNZ     s:13209

     2910    13199    1             O1COM.USE_REPORT$ -> REPORT_01_LTS.RWCT$ = ADDR(NIL) THEN
     2911    13200    2            DO;

     2912    13201
     2913    13202    2              CALL Z8AE$ERROR (%E$SUPPRESS_ERROR,

  13202 14 000011   200003 470500                    LDP0    @KEYWORD$,,AUTO
        14 000012   000000 471500                    LDP1    0,,PR0
        14 000013   100006 633500                    EPPR3   6,,PR1
        14 000014   200032 453500                    STP3    RECV_FIELD+10,,AUTO
        14 000015   100005 634500                    EPPR4   5,,PR1
        14 000016   200031 454500                    STP4    RECV_FIELD+9,,AUTO
        14 000017   000003 236000 15                 LDQ     3
        14 000020   200030 756100                    STQ     RECV_FIELD+8,,AUTO
        14 000021   200030 630500                    EPPR0   RECV_FIELD+8,,AUTO
        14 000022   000001 631400 15                 EPPR1   1
        14 000023   000000 701000 xent               TSX1    Z8AE$ERROR
        14 000024   000000 011000                    NOP     0

     2914    13203    2                               KEYWORD$ -> LX_ITEM.LINE,
     2915    13204    2                               KEYWORD$ -> LX_ITEM.COLUMN);
     2916    13205
     2917    13206    2              RETURN;
PL6.E3A0      #006=Z8ET$SUPPRESS File=Z8ET.:Z8A6TSI                              SAT 08/09/97 12:56 Page:479

  13206 14 000025   000000 702200 xent               TSX2  ! X66_ARET

     2918    13207    2            END;
     2919    13208
     2920    13209    1          RWCT$ = O1COM.USE_REPORT$ -> REPORT_01_LTS.RWCT$;

  13209 14 000026   200005 756100                    STQ     RWCT$,,AUTO

     2921    13210
     2922    13211    1          MKCN.CON = -1;

  13211 14 000027   000001 335007                    LCA     1,DL
        14 000030   000000 755000 13                 STA     MKCN

     2923    13212
     2924    13213    1          CALL Z8AC$MAKE_CONST (CONST_ETT$);

  13213 14 000031   200006 631500                    EPPR1   CONST_ETT$,,AUTO
        14 000032   200030 451500                    STP1    RECV_FIELD+8,,AUTO
        14 000033   200030 630500                    EPPR0   RECV_FIELD+8,,AUTO
        14 000034   000004 631400 15                 EPPR1   4
        14 000035   000000 701000 xent               TSX1    Z8AC$MAKE_CONST
        14 000036   000000 011000                    NOP     0

     2925    13214
     2926    13215               %INIT_LX_ETT_ITEM (@POINTER = "ADDR(SEND_FIELD)",
     2927    13216                                  @TYPE    = %TYI,
     2928    13217                                  @ETT$    = CONST_ETT$);

  13219 14 000037   000004 220003                    LDX0    4,DU
        14 000040   200010 740100                    STX0    SEND_FIELD,,AUTO

  13220 14 000041   000000 221003                    LDX1    0,DU
        14 000042   200010 441100                    SXL1    SEND_FIELD,,AUTO

  13221 14 000043   000001 235007                    LDA     1,DL
PL6.E3A0      #006=Z8ET$SUPPRESS File=Z8ET.:Z8A6TSI                              SAT 08/09/97 12:56 Page:480
        14 000044   200014 755100                    STA     SEND_FIELD+4,,AUTO

  13222 14 000045   000000 236000 15                 LDQ     0
        14 000046   200017 756100                    STQ     SEND_FIELD+7,,AUTO

  13223 14 000047   200006 236100                    LDQ     CONST_ETT$,,AUTO
        14 000050   200011 756100                    STQ     SEND_FIELD+1,,AUTO

  13224 14 000051   000000 236000 15                 LDQ     0
        14 000052   200012 756100                    STQ     SEND_FIELD+2,,AUTO

  13226 14 000053   000133 235000 xsym               LDA     COMCOM+91
        14 000054   200015 755100                    STA     SEND_FIELD+5,,AUTO

  13227 14 000055   000134 235000 xsym               LDA     COMCOM+92
        14 000056   200016 755100                    STA     SEND_FIELD+6,,AUTO

     2929    13239
     2930    13240    1          CALL Z8AF$NEW_BASE (RWCT$,

  13240 14 000057   200030 756100                    STQ     RECV_FIELD+8,,AUTO
        14 000060   200007 630500                    EPPR0   BASE_ETT$,,AUTO
        14 000061   200033 450500                    STP0    RECV_FIELD+11,,AUTO
        14 000062   200030 631500                    EPPR1   RECV_FIELD+8,,AUTO
        14 000063   200032 451500                    STP1    RECV_FIELD+10,,AUTO
        14 000064   200005 633500                    EPPR3   RWCT$,,AUTO
        14 000065   200031 453500                    STP3    RECV_FIELD+9,,AUTO
        14 000066   200031 630500                    EPPR0   RECV_FIELD+9,,AUTO
        14 000067   000001 631400 15                 EPPR1   1
        14 000070   000000 701000 xent               TSX1    Z8AF$NEW_BASE
        14 000071   000000 011000                    NOP     0

     2931    13241    1                              ADDR(NIL),
     2932    13242    1                              BASE_ETT$);
     2933    13243
     2934    13244    1          CALL Z8AF$NEW_OFF (BASE_ETT$,

PL6.E3A0      #006=Z8ET$SUPPRESS File=Z8ET.:Z8A6TSI                              SAT 08/09/97 12:56 Page:481
  13244 14 000072   200007 630500                    EPPR0   BASE_ETT$,,AUTO
        14 000073   200032 450500                    STP0    RECV_FIELD+10,,AUTO
        14 000074   000006 236000 15                 LDQ     6
        14 000075   200031 756100                    STQ     RECV_FIELD+9,,AUTO
        14 000076   200007 631500                    EPPR1   BASE_ETT$,,AUTO
        14 000077   200030 451500                    STP1    RECV_FIELD+8,,AUTO
        14 000100   200030 630500                    EPPR0   RECV_FIELD+8,,AUTO
        14 000101   000001 631400 15                 EPPR1   1
        14 000102   000000 701000 xent               TSX1    Z8AF$NEW_OFF
        14 000103   000000 011000                    NOP     0

     2935    13245    1                             4, /* 1 word, in units of bytes */
     2936    13246    1                             BASE_ETT$);
     2937    13247
     2938    13248               %INIT_LX_ETT_ITEM (@POINTER = "ADDR(RECV_FIELD)",
     2939    13249                                  @TYPE    = %TYI,
     2940    13250                                  @ETT$    = BASE_ETT$);

  13252 14 000104   000004 220003                    LDX0    4,DU
        14 000105   200020 740100                    STX0    RECV_FIELD,,AUTO

  13253 14 000106   000000 221003                    LDX1    0,DU
        14 000107   200020 441100                    SXL1    RECV_FIELD,,AUTO

  13254 14 000110   000001 235007                    LDA     1,DL
        14 000111   200024 755100                    STA     RECV_FIELD+4,,AUTO

  13255 14 000112   000000 236000 15                 LDQ     0
        14 000113   200027 756100                    STQ     RECV_FIELD+7,,AUTO

  13256 14 000114   200007 236100                    LDQ     BASE_ETT$,,AUTO
        14 000115   200021 756100                    STQ     RECV_FIELD+1,,AUTO

  13257 14 000116   000000 236000 15                 LDQ     0
        14 000117   200022 756100                    STQ     RECV_FIELD+2,,AUTO

  13259 14 000120   000133 235000 xsym               LDA     COMCOM+91
PL6.E3A0      #006=Z8ET$SUPPRESS File=Z8ET.:Z8A6TSI                              SAT 08/09/97 12:56 Page:482
        14 000121   200025 755100                    STA     RECV_FIELD+5,,AUTO

  13260 14 000122   000134 235000 xsym               LDA     COMCOM+92
        14 000123   200026 755100                    STA     RECV_FIELD+6,,AUTO

     2941    13272
     2942    13273    1          CALL Z8E7$MOVE (ADDR(RECV_FIELD),

  13273 14 000124   200020 630500                    EPPR0   RECV_FIELD,,AUTO
        14 000125   200030 450500                    STP0    RECV_FIELD+8,,AUTO
        14 000126   200010 631500                    EPPR1   SEND_FIELD,,AUTO
        14 000127   200031 451500                    STP1    RECV_FIELD+9,,AUTO
        14 000130   200031 633500                    EPPR3   RECV_FIELD+9,,AUTO
        14 000131   200033 453500                    STP3    RECV_FIELD+11,,AUTO
        14 000132   200030 634500                    EPPR4   RECV_FIELD+8,,AUTO
        14 000133   200032 454500                    STP4    RECV_FIELD+10,,AUTO
        14 000134   200032 630500                    EPPR0   RECV_FIELD+10,,AUTO
        14 000135   000007 631400 15                 EPPR1   7
        14 000136   000000 701000 xent               TSX1    Z8E7$MOVE
        14 000137   000000 011000                    NOP     0

     2943    13274    1                          ADDR(SEND_FIELD));
     2944    13275
     2945    13276
     2946    13277
     2947    13278    1    RETURN;

  13278 14 000140   000000 702200 xent               TSX2  ! X66_ARET
     2948    13279    1    END Z8ET$SUPPRESS;

PL6.E3A0      #006=Z8ET$SUPPRESS File=Z8ET.:Z8A6TSI                              SAT 08/09/97 12:56 Page:483
--  Include file information  --

   Z8A_MKCN.:Z8A6TOU  cannot be made into a system file and is referenced.
   Z8A_LTS.:Z8A6TOU  cannot be made into a system file and is referenced.
   Z8A_ETT.:Z8A6TOU  cannot be made into a system file and is referenced.
   Z8A_TYPES.:Z8A6TOU  is referenced.
   Z8A_ST.:Z8A6TOU  cannot be made into a system file and is referenced.
   Z8A_ERR_NUMS.:Z8A6TOU  is referenced.
   Z8A_COMCOM.:Z8A6TOU  cannot be made into a system file and is referenced.
   Z8E_O1COM.:Z8A6TOU  cannot be made into a system file and is referenced.
   Z8A_LEX_SYMB.:Z8A6TOU  cannot be made into a system file and is referenced.
   Z8E_STACKS.:Z8A6TOU  cannot be made into a system file and is referenced.
   X8A_COM_MACS.:X8A6TOU  is referenced.
   Z8A_NAMES.:Z8A6TOU  is referenced.
   Z8A_SUPP_MAC.:Z8A6TOU  is referenced.
   Z8A_DEFC.:Z8A6TOU  cannot be made into a system file and is referenced.
      No diagnostics issued in procedure Z8ET$SUPPRESS.
PL6.E3A0      #006=Z8ET$SUPPRESS File=Z8ET.:Z8A6TSI                              SAT 08/09/97 12:56 Page:484

 **** Variables and constants ****

  ****  Section 000 LblCom ITERATION

  ****  Scalars and arrays  ****
OctLoc.c.b A Datatyp(siz) R M Lvl/name                 OctLoc.c.b A Datatyp(siz) R M Lvl/name

     0-0-0/w SBIN              1 ITERATION

  ****  Section 001 LblCom LEX_SYMBOL

  ****  Scalars and arrays  ****
OctLoc.c.b A Datatyp(siz) R M Lvl/name                 OctLoc.c.b A Datatyp(siz) R M Lvl/name

     0-0-0/w STRC(3240)  r     1 LEX_SYMBOL                 0-0-0/w STRC(3240)        1 LEX_SYMBOL_WORDS

  ****  Section 002 LblCom CURRENT_LEX_SYMBOL$

  ****  Scalars and arrays  ****
OctLoc.c.b A Datatyp(siz) R M Lvl/name                 OctLoc.c.b A Datatyp(siz) R M Lvl/name

     0-0-0/w PTR         r     1 CURRENT_LEX_SYMBOL$

  ****  Section 003 LblCom TEMP_LEX_SYMBOL

  ****  Scalars and arrays  ****
OctLoc.c.b A Datatyp(siz) R M Lvl/name                 OctLoc.c.b A Datatyp(siz) R M Lvl/name

     0-0-0/w STRC(3240)        1 TEMP_LEX_SYMBOL

  ****  Section 004 LblCom TEMP_LEX_SYMBOL2

  ****  Scalars and arrays  ****
OctLoc.c.b A Datatyp(siz) R M Lvl/name                 OctLoc.c.b A Datatyp(siz) R M Lvl/name

     0-0-0/w STRC(3240)        1 TEMP_LEX_SYMBOL2

PL6.E3A0      #006=Z8ET$SUPPRESS File=Z8ET.:Z8A6TSI                              SAT 08/09/97 12:56 Page:485
  ****  Section 005 LblCom ST$

  ****  Scalars and arrays  ****
OctLoc.c.b A Datatyp(siz) R M Lvl/name                 OctLoc.c.b A Datatyp(siz) R M Lvl/name

     0-0-0/w PTR         r     1 ST$

  ****  Section 006 LblCom ST_

  ****  Scalars and arrays  ****
OctLoc.c.b A Datatyp(siz) R M Lvl/name                 OctLoc.c.b A Datatyp(siz) R M Lvl/name

     0-0-0/w STRC(180)         1 ST_

  ****  Section 007 LblCom ETT$

  ****  Scalars and arrays  ****
OctLoc.c.b A Datatyp(siz) R M Lvl/name                 OctLoc.c.b A Datatyp(siz) R M Lvl/name

     0-0-0/w PTR         r     1 ETT$

  ****  Section 008 LblCom HEAD_ETT$

  ****  Scalars and arrays  ****
OctLoc.c.b A Datatyp(siz) R M Lvl/name                 OctLoc.c.b A Datatyp(siz) R M Lvl/name

     0-0-0/w PTR               1 HEAD_ETT$

  ****  Section 009 LblCom ETT_BUCKETS

  ****  Scalars and arrays  ****
OctLoc.c.b A Datatyp(siz) R M Lvl/name                 OctLoc.c.b A Datatyp(siz) R M Lvl/name

     0-0-0/w PTR               1 ETT_BUCKETS(0:511)

  ****  Section 010 LblCom ETT_

PL6.E3A0      #006=Z8ET$SUPPRESS File=Z8ET.:Z8A6TSI                              SAT 08/09/97 12:56 Page:486
  ****  Scalars and arrays  ****
OctLoc.c.b A Datatyp(siz) R M Lvl/name                 OctLoc.c.b A Datatyp(siz) R M Lvl/name

     0-0-0/w STRC(180)         1 ETT_

  ****  Section 011 LblCom LTS$

  ****  Scalars and arrays  ****
OctLoc.c.b A Datatyp(siz) R M Lvl/name                 OctLoc.c.b A Datatyp(siz) R M Lvl/name

     0-0-0/w PTR               1 LONG_ITEM$                 0-0-0/w PTR         r     1 LTS$

  ****  Section 012 LblCom LTS_

  ****  Scalars and arrays  ****
OctLoc.c.b A Datatyp(siz) R M Lvl/name                 OctLoc.c.b A Datatyp(siz) R M Lvl/name

     0-0-0/w STRC(180)         1 LTS_

  ****  Section 013 LblCom MKCN

  ****  Scalars and arrays  ****
OctLoc.c.b A Datatyp(siz) R M Lvl/name                 OctLoc.c.b A Datatyp(siz) R M Lvl/name

     0-0-0/w STRC(72)    r     1 MKCN

  ****  Auto variables  ****

  ****  Scalars and arrays  ****
OctLoc.c.b A Datatyp(siz) R M Lvl/name                 OctLoc.c.b A Datatyp(siz) R M Lvl/name

     3-0-0/w PTR         r     1 @KEYWORD$                  7-0-0/w PTR         r     1 BASE_ETT$
     6-0-0/w PTR         r     1 CONST_ETT$                 4-0-0/w PTR               1 GROUP_LTS$
    *0-0-0/w PTR         r     1 KEYWORD$                  20-0-0/d STRC(288)   r     1 RECV_FIELD
     5-0-0/w PTR         r     1 RWCT$                     10-0-0/d STRC(288)   r     1 SEND_FIELD

  ****  SYMREF variables  ****
PL6.E3A0      #006=Z8ET$SUPPRESS File=Z8ET.:Z8A6TSI                              SAT 08/09/97 12:56 Page:487

  ****  Scalars and arrays  ****
OctLoc.c.b A Datatyp(siz) R M Lvl/name                 OctLoc.c.b A Datatyp(siz) R M Lvl/name

     0-0-0/d STRC(13248) r     1 COMCOM
     0-0-0/w STRC(180)         1 HIER_STK(0:50)
     0-0-0/w SBIN              1 HIER_STK_PTR
     0-0-0/w UBIN              1 LTS_STEP(0:37)
     0-0-0/d STRC(11580) r     1 O1COM                      0-0-0/w STRC(144)         1 PAGE_FORMAT
     0-0-0/w STRC(153)         1 REP_STK(0:50)              0-0-0/w SBIN              1 REP_STK_PTR

  ****  BASED and DCB variables  ****

  ****  Scalars and arrays  ****
OctLoc.c.b A Datatyp(siz) R M Lvl/name                 OctLoc.c.b A Datatyp(siz) R M Lvl/name

     0-0-0/w STRC(288)         1 ADD_STMT                   0-0-0/w STRC(396)         1 ALPHABET
     0-0-0/w STRC(144)         1 ALTER_LTS                  0-0-0/w STRC(3672)        1 ALT_KEY
     0-0-0/w STRC(36864)       1 ARGLIST                    0-0-0/w STRC(396)         1 ARRAY
     0-0-0/w STRC(180)         1 ARRAY_PRESET_LTS           0-0-0/w ASTR(324)   r     1 BASED_LEX_SYMBOL
     0-0-0/w STRC(360)         1 BASED_LEX_SYMBOL_WORDS
     0-0-0/w STRC(288)         1 BASE_LTS                   0-0-0/w STRC(288)         1 BINARY_OP
     0-0-0/w STRC(396)         1 BLOCK                      0-0-0/w STRC(144)         1 BT
     0-0-0/w STRC(288)         1 CALL_STMT                  0-0-0/w STRC(396)         1 CD
     0-0-0/w STRC(288)         1 CD_LTS                     0-0-0/w CHAR(4096)        1 CHARS
     0-0-0/w STRC(396)         1 CLASS                      0-0-0/w STRC(288)         1 COMPUTE_STMT
     0-0-0/w STRC(396)         1 CONDITION                  0-0-0/w STRC(396)         1 CONST
     0-0-0/w STRC(72)          1 CONT                       0-0-0/w STRC(540)         1 CONTROL_NAME_LTS
     0-0-0/w STRC(1872)        1 COPY_FILE                  0-0-0/w STRC(396)         1 DB
     0-0-0/w STRC(396)         1 DCB_                       0-0-0/w STRC(288)         1 DEFERED_IDENTIFIER
     0-0-0/w STRC(252)         1 DEFERED_ID_TREE            0-0-0/w STRC(288)         1 DEFERED_QUAL_ID
     0-0-0/w STRC(288)         1 DEFERED_SUM_CLAUSE
     0-0-0/w STRC(288)         1 DEFERED_SUM_CLAUSE_LIST
     0-0-0/w STRC(288)         1 DELETE_STMT                0-0-0/w STRC(108)         1 DEPENDING_SIZE
     0-0-0/w STRC(5472)        1 DIMS                       0-0-0/w STRC(288)         1 DIVIDE_STMT
     0-0-0/w STRC(396)         1 DML_ITEM                   0-0-0/w STRC(216)         1 DML_REC
     0-0-0/w STRC(180)         1 ETT                        0-0-0/w STRC(73836)       1 EVALUATE
PL6.E3A0      #006=Z8ET$SUPPRESS File=Z8ET.:Z8A6TSI                              SAT 08/09/97 12:56 Page:488
     0-0-0/w STRC(396)         1 FD                         0-0-0/w STRC(1692)        1 FILE_LTS
     0-0-0/w STRC(288)         1 ILS_LIST                   0-0-0/w STRC(108)         1 INDEXES
     0-0-0/w STRC(360)         1 INIT_LTS                   0-0-0/w STRC(288)         1 INSPECT_1_STMT
     0-0-0/w STRC(288)         1 INSPECT_2_STMT             0-0-0/w STRC(288)         1 INSPECT_4_STMT
     0-0-0/w STRC(396)         1 INTDEF                     0-0-0/w STRC(180)         1 IO_RESTORE_CHAIN
     0-0-0/w STRC(144)         1 KEY                        0-0-0/w STRC(396)         1 LABEL
     0-0-0/w STRC(288)         1 LA_ITEM                    0-0-0/w STRC(36864)       1 LCNST
     0-0-0/w STRC(72)          1 LONG                       0-0-0/w STRC              1 LTS
     0-0-0/w STRC(360)         1 LTSS                       0-0-0/w STRC(36936)       1 LTS_PTR_ARRAY
     0-0-0/w STRC(504)         1 LX_CD_INPUT                0-0-0/w STRC(324)         1 LX_CD_I_O
     0-0-0/w STRC(396)         1 LX_CD_OUTPUT               0-0-0/w STRC(288)   r     1 LX_ETT_ITEM
     0-0-0/w STRC(288)   r     1 LX_ITEM                    0-0-0/w STRC(288)         1 LX_LARGE
     0-0-0/w STRC(288)         1 LX_LIST                    0-0-0/w STRC(1224)        1 LX_REC_DECL
     0-0-0/w STRC(864)         1 LX_REPORT_REC              0-0-0/w STRC(288)         1 LX_TERMINAL
     0-0-0/w STRC(396)         1 MNEMONIC                   0-0-0/w STRC(288)         1 MULTIPLY_STMT
     0-0-0/w STRC(144)         1 NEL                        0-0-0/w STRC(216)         1 OPEN_LTS
     0-0-0/w STRC(36864)       1 PAGE                       0-0-0/w STRC(396)         1 PARA
     0-0-0/w STRC(144)         1 PRIME                      0-0-0/w STRC(396)         1 PROC_
     0-0-0/w STRC(396)         1 PROC_DEF                   0-0-0/w STRC(900)         1 PROC_SUPP
     0-0-0/w STRC(396)         1 RD                         0-0-0/w STRC(288)         1 READ_STMT
     0-0-0/w STRC(216)         1 REF                        0-0-0/w STRC(108)         1 RENAMES
     0-0-0/w STRC(720)   r     1 REPORT_01_LTS              0-0-0/w STRC(432)         1 REPORT_ELEM_LTS
     0-0-0/w STRC(252)         1 REPORT_GRP_LTS             0-0-0/w STRC(1332)        1 REPORT_LTS
     0-0-0/w STRC(288)         1 REWRITE_STMT               0-0-0/w STRC(144)         1 RVA_LTS
     0-0-0/w STRC(396)         1 SCALAR                     0-0-0/w STRC(396)         1 SD
     0-0-0/w STRC(396)         1 SECTION                    0-0-0/w STRC(396)         1 SEGMENT
     0-0-0/w STRC(360)         1 SEGMENT_LTS                0-0-0/w STRC(396)         1 ST
     0-0-0/w STRC(288)         1 START_STMT                 0-0-0/w STRC(252)         1 STRING_STMT
     0-0-0/w STRC(288)         1 SUBTRACT_STMT              0-0-0/w STRC(252)         1 SUM_LTS
     0-0-0/w STRC(396)         1 SWITCH                     0-0-0/w STRC(396)         1 SYMBOLIC_CHAR
     0-0-0/w STRC(396)         1 SYMDEF_                    0-0-0/w STRC(396)         1 SYMREF_
     0-0-0/w STRC(396)         1 TEMP                       0-0-0/w STRC(288)         1 UNARY_OP
     0-0-0/w STRC(288)         1 UNSTRING_STMT              0-0-0/d STRC(612)         1 USE
     0-0-0/w STRC(252)         1 USE_SUPP                   0-0-0/w STRC(396)         1 VARIABLE
     0-0-0/w STRC(288)         1 WRITE_STMT

PL6.E3A0      #006=Z8ET$SUPPRESS File=Z8ET.:Z8A6TSI                              SAT 08/09/97 12:56 Page:489

   Procedure Z8ET$SUPPRESS requires 97 words for executable code.
   Procedure Z8ET$SUPPRESS requires 28 words of local(AUTO) storage.

    No errors detected in file Z8ET.:Z8A6TSI    .
