PL6.E3A0      #004=Z8ET$CREATE_SUBROUTINES File=Z8ET.:Z8A6TSI                    SAT 08/09/97 12:48 Page:179
     1169        1        /*T***********************************************************/
     1170        2        /*T*                                                         */
     1171        3        /*T* Copyright (c) Bull HN Information Systems Inc., 1997    */
     1172        4        /*T*                                                         */
     1173        5        /*T***********************************************************/
     1174        6
     1175        7        /*M*  Z8ET$CREATE_SUBROUTINES---Create 10 run time subroutines */
     1176        8
     1177        9
     1178       10        /*P*
     1179       11               NAME:  Z8ET$CREATE_SUBROUTINES
     1180       12             AUTHOR:  Min Lee.
     1181       13            PURPOSE:  Creates 10 run time subroutines to be executed by
     1182       14                      Report Writer Control System.
     1183       15        */
     1184       16
     1185       17        /*D*
     1186       18               NAME:  Z8ET$CREATE_SUBROUTINES
     1187       19               CALL:  CALL Z8ET$CREATE_SUBROUTINES (LTS$$)
     1188       20              INPUT:  LTS$$ --- Pointed to a REPORT's LTS item.
     1189       21
     1190       22
     1191       23
     1192       24        DESCRIPTION:  These are the 10 run time subroutines generated by these
     1193       25                      modules:
     1194       26                      1. Top of Page subroutine---by CREATE_TOP_PAGE_SUB
     1195       27                      2. Formatting Subroutine ---by CREATE_FORMATTING_SUB
     1196       28                      3. Control Item Initial Subroutine--by CREATE_SHADOW_INIT_SUB
     1197       29                      4. Control Break Identification Sub--by CREATE_CONTROL_DETECT_SUB
     1198       30                      5. Control Item Swapback Subroutine--by CREATE_SHADOW_SWAP_SUB
     1199       31                      6. Sum Counter Clear Subroutine--by GEN_CLEAR_SUB
     1200       32                      7. Sum Counter Resetting Subroutine--by GEN_RESET_SUB
     1201       33                      8. Cross Footing/Rolling forward Sub--by GEN_CROSS_ROLL_SUB
     1202       34                      9. General Subtotaling Subroutine--by GEN_GENERAL_SUB
     1203       35                     10. Special Subtotaling Subroutine--by GEN_SPECIAL_SUB
     1204       36         */
     1205       37         %EJECT;
PL6.E3A0      #004=Z8ET$CREATE_SUBROUTINES File=Z8ET.:Z8A6TSI                    SAT 08/09/97 12:48 Page:180
     1206       38
     1207       39         /*=======================*/
     1208       40           Z8ET$CREATE_SUBROUTINES:  PROC (LTS$$);
     1209       41         /*=======================*/
     1210       42        %EQU PHASE = 1;
     1211       43        %EQU DEFAULT_REPORT_CODE = 55;  /* report code for display item is 00 */
     1212       44
     1213       45        %INCLUDE Z8A_DEFC;
     1214      113        %INCLUDE Z8A_SUPP_MAC ;
     1215     2513        %INCLUDE Z8A_COMCOM ;
     1216     3163        %INCLUDE Z8E_STACKS ;
     1217     5429        %INCLUDE Z8E_O1COM;
     1218     6190        %INCLUDE Z8E_MACROS;
     1219     6865        %INCLUDE Z8A_DNT ;
     1220     7086        %INCLUDE Z8A_ST ;
     1221    10745        %INCLUDE Z8A_TYPES;
     1222    10919        %INCLUDE Z8A_QLT;
     1223    11025        %INCLUDE Z8A_ETT ;
     1224    11326        %INCLUDE Z8A_ILL ;
     1225    12019        %INCLUDE Z8A_ILS ;
     1226    12128        %INCLUDE Z8A_LTS ;
     1227    14205        %INCLUDE Z8A_MKCN;
     1228    14222        %INCLUDE Z8E_HEAP ;
     1229    14278        %INCLUDE Z8E_ABSSYN;
     1230    14484        %INCLUDE X9A_IO;
     1231    14634        %INCLUDE Z9A_SUPP_MAC;
     1232    14923
     1233    14924
     1234    14925    1   DCL Z8E5$MATH_PACK ENTRY(2) ;
     1235    14926    1   DCL Z8EX$SET_INDEX  ENTRY(2);
     1236    14927    1   DCL Z8EK$BRANCH          ENTRY(1);
     1237    14928    1   DCL Z8EK$BRANCH_TRUE     ENTRY(2);
     1238    14929    1   DCL Z8EK$BRANCH_FALSE    ENTRY(2);
     1239    14930    1   DCL Z8ED$DISPOSE_ABSSYN_TREE ENTRY(1);
     1240    14931    1   DCL Z8AF$FORME       ENTRY(4) ;
     1241    14932    1   DCL Z8AF$NEW_BASE    ENTRY(3);
     1242    14933    1   DCL Z8AC$MAKE_CONST               ENTRY(1);
PL6.E3A0      #004=Z8ET$CREATE_SUBROUTINES File=Z8ET.:Z8A6TSI                    SAT 08/09/97 12:48 Page:181
     1243    14934    1   DCL Z8AC$MAKE_TYA_CONST           ENTRY(4);
     1244    14935    1   DCL Z8AC$LX_ETT_ITEM_TYI_CONST ENTRY(2);
     1245    14936    1   DCL Z8E7$MOVE      ENTRY(2) ;
     1246    14937    1   DCL Z8AT$CREATE_TEMPORARY ENTRY(2) ;
     1247    14938    1   DCL Z9EN$WRITE_NEXT ENTRY(7);
     1248    14939    1   DCL Z9EN$WRITE_PAGE ENTRY(3);
     1249    14940
     1250    14941    1   DCL REPORT_CODE_NO     UBIN WORD;
     1251    14942    1   DCL RWCT_LEN           SBIN WORD;
     1252    14943    1   DCL LAST_WORD_OFFSET   SBIN WORD;
     1253    14944
     1254    14945    1   DCL I                  SBIN WORD;
     1255    14946    1   DCL SA_ADJ             SBIN WORD;
     1256    14947    1   DCL CONST_ETT$         PTR;
     1257    14948    1   DCL LTS$$              PTR;
     1258    14949    1   DCL BUFFER_ETT$        PTR;
     1259    14950    1   DCL PAGE_COUNTER_ETT$  PTR;
     1260    14951    1   DCL LINE_COUNTER_ETT$  PTR;
     1261    14952    1   DCL AFTER_AREA_ETT$    PTR;
     1262    14953    1   DCL SEND_ETT$          PTR;
     1263    14954    1   DCL RECV_ETT$          PTR;
     1264    14955    1   DCL CODE_ETT$          PTR;
     1265    14956    1   DCL IND$$              PTR;
     1266    14957    1   DCL IND_ETT$           PTR;
     1267    14958    1   DCL RECORD_LEN         SBIN WORD;
     1268    14959    1   DCL MIN_REC_LEN        SBIN WORD;
     1269    14960    1   DCL CURRENT$       PTR;
     1270    14961    1   DCL PHONY_LTS$         PTR;
     1271    14962    1   DCL FILE_LTS$          PTR;
     1272    14963    1   DCL VAL_ST$            PTR;
     1273    14964    1   DCL ALL_BIT            BIT (1) ALIGNED;
     1274    14965
     1275    14966
     1276    14967
     1277    14968        %DCL_AUTO_LX_ITEM (@NAME = AFTER_FIELD);
     1278    14972        %DCL_AUTO_LX_ITEM (@NAME = LINE_COUNTER_FIELD);
     1279    14976
PL6.E3A0      #004=Z8ET$CREATE_SUBROUTINES File=Z8ET.:Z8A6TSI                    SAT 08/09/97 12:48 Page:182
     1280    14977    1   DCL DETAIL_GRP$    PTR;
     1281    14978
     1282    14979        %DCL_AUTO_LX_ITEM (@NAME = ETT_ITEM);
     1283    14983        %DCL_AUTO_LX_ITEM (@NAME = OP_NODE);
     1284    14987        %DCL_AUTO_LX_ITEM (@NAME = SEND_FIELD);
     1285    14991        %DCL_AUTO_LX_ITEM (@NAME = RECV_FIELD);
     1286    14995        %DCL_AUTO_LX_ITEM (@NAME = RECORD_LENGTH);
     1287    14999        %DCL_AUTO_LX_ITEM (@NAME = LINE_FIELD);
     1288    15003        %DCL_AUTO_LX_ITEM (@NAME = ZERO);
     1289    15007        %DCL_AUTO_LX_ITEM (@NAME = COMPARE);
     1290    15011        %DCL_AUTO_LX_ITEM (@NAME = IND_FIELD);
     1291    15015        %DCL_AUTO_LX_ITEM (@NAME = ONE_FIELD);
     1292    15019        %DCL_AUTO_LX_ITEM (@NAME = CTR_LVL_FIELD);
     1293    15023    1   DCL CTR_LVL_ETT$           PTR;
     1294    15024
     1295    15025        %EJECT;
PL6.E3A0      #004=Z8ET$CREATE_SUBROUTINES File=Z8ET.:Z8A6TSI                    SAT 08/09/97 12:48 Page:183
     1296    15026         %MACRO SUB_HEAD (OFFSET_V = ,
     1297    15027                          RWCT_PTR = );
     1298    15028           DO;
     1299    15029
     1300    15030               CALL Z8AT$CREATE_TEMPORARY (%PARA, LABEL$);
     1301    15031
     1302    15032               LABEL$ -> LABEL.B.REFERENCED = TRUE;
     1303    15033               LABEL$ -> LABEL.B.USE_PROC = TRUE;
     1304    15034
     1305    15035               %NEW_ILL (@ID       = %DEFLB,
     1306    15036                         @LABEL$   = LABEL$);
     1307    15037
     1308    15038               %NEW_ILL (@ID       = %P_A_PRESET,
     1309    15039                         @OFFSET   = OFFSET_V,
     1310    15040                         @TO       = RWCT_PTR,
     1311    15041                         @LOP      = LABEL$,
     1312    15042                         @ROPCON   = 0);
     1313    15043
     1314    15044               %NEW_ILL (@ID       = %USE_ENTRY,
     1315    15045                         @CODE     = %DB_EXCEPT_PROC);
     1316    15046
     1317    15047           END;
     1318    15048         %MEND;
     1319    15049         %EJECT;
PL6.E3A0      #004=Z8ET$CREATE_SUBROUTINES File=Z8ET.:Z8A6TSI                    SAT 08/09/97 12:48 Page:184
     1320    15050
     1321    15051
     1322    15052
     1323    15053         /*===================*/
     1324    15054    1      CREATE_TOP_PAGE_SUB: PROC;
     1325    15055         /*===================*/
     1326    15056
     1327    15057        /*I*
     1328    15058
     1329    15059             NAME:  CREATE_TOP_PAGE_SUB
     1330    15060
     1331    15061          DESCRIPTION: This routine creates the top of page subroutine
     1332    15062                       that will initiate the line counter to 0, add 1 to
     1333    15063                       the page counter, clear the report line buffer,
     1334    15064                       advance to the top of the next page.
     1335    15065        */
     1336    15066
     1337    15067
     1338    15068    2   DCL LABEL$         PTR;
     1339    15069    2   DCL SEND$          PTR;
     1340    15070    2   DCL RECV$          PTR;
     1341    15071
     1342    15072
     1343    15073
     1344    15074
     1345    15075               %SUB_HEAD (OFFSET_V = %TOP_OF_PAGE_OFF,
     1346    15076                          RWCT_PTR = LTS$$ -> REPORT_LTS.RWCT$);
     1347    16226
     1348    16227               /* MOVE 0 TO LINE COUNTER */
     1349    16228
     1350    16229               %INIT_LX_ETT_ITEM (@POINTER = "ADDR(SEND_FIELD)",
     1351    16230                                  @TYPE    = %TYI,
     1352    16231                                  @ETT$    = COMCOM.VALUE_0);
     1353    16253
     1354    16254               %INIT_LX_ETT_ITEM (@POINTER = "ADDR(RECV_FIELD)",
     1355    16255                                  @TYPE    = %TYI,
     1356    16256                                  @ETT$    = LINE_COUNTER_ETT$);
PL6.E3A0      #004=Z8ET$CREATE_SUBROUTINES File=Z8ET.:Z8A6TSI                    SAT 08/09/97 12:48 Page:185
     1357    16278
     1358    16279    2          CALL Z8E7$MOVE (ADDR(RECV_FIELD), ADDR(SEND_FIELD));
     1359    16280
     1360    16281               /* ADD 1 TO PAGE COUNTER */
     1361    16282
     1362    16283               %INIT_LX_ETT_ITEM (@POINTER = "ADDR(RECV_FIELD)",
     1363    16284                                  @TYPE    = %TYI,
     1364    16285                                  @ETT$    = PAGE_COUNTER_ETT$);
     1365    16307
     1366    16308               %INIT_BINARY_OP (@POINTER   = "ADDR(OP_NODE)",
     1367    16309                                @ROP$      = "ADDR(ONE_FIELD)",
     1368    16310                                @LOP$      = "ADDR(RECV_FIELD)",
     1369    16311                                @OP        = %OP_PLUS);
     1370    16329
     1371    16330    2          CALL Z8E5$MATH_PACK (ADDR(OP_NODE),
     1372    16331    2                               ADDR(ETT_ITEM));
     1373    16332
     1374    16333    2          CALL Z8E7$MOVE (ADDR(RECV_FIELD),
     1375    16334    2                          ADDR(ETT_ITEM));
     1376    16335
     1377    16336               /* CLEAR THE BUFFER */
     1378    16337
     1379    16338                   %NEW_ILL (@ID   = %MVAN,
     1380    16339                             @LOP  = BUFFER_ETT$,
     1381    16340                             @ROP  = CODE_ETT$);
     1382    16719
     1383    16720               /* WRITE AFTER ADVANING PAGE */
     1384    16721
     1385    16722    2          RECORD_LEN = MIN_REC_LEN; /* initialize the RECORD_LEN */
     1386    16723
     1387    16724    2          CALL Z8AC$LX_ETT_ITEM_TYI_CONST ( RECORD_LEN,
     1388    16725    2                                           ADDR(RECORD_LENGTH));
     1389    16726
     1390    16727    2          CALL Z9EN$WRITE_PAGE (FILE_LTS$,
     1391    16728    2                                ADDR(NIL),
     1392    16729    2                                ADDR(NIL) );
     1393    16730
PL6.E3A0      #004=Z8ET$CREATE_SUBROUTINES File=Z8ET.:Z8A6TSI                    SAT 08/09/97 12:48 Page:186
     1394    16731               %DB_EXCEPT_LIBRARY_RETURN;
     1395    17115
     1396    17116    2    END CREATE_TOP_PAGE_SUB;
     1397    17117         %EJECT;
PL6.E3A0      #004=Z8ET$CREATE_SUBROUTINES File=Z8ET.:Z8A6TSI                    SAT 08/09/97 12:48 Page:187
     1398    17118
     1399    17119         /*=====================*/
     1400    17120    1      CREATE_FORMATTING_SUB:  PROC (GROUP$);
     1401    17121         /*=====================*/
     1402    17122
     1403    17123        /*I*
     1404    17124
     1405    17125             NAME:  CREATE_FORMATTING_SUB
     1406    17126
     1407    17127          DESCRIPTION: This routine creates the formatting subroutine for
     1408    17128                       each printable group--i.e. at least one LINE clause
     1409    17129                       specified in that group. It steps through the 01 group
     1410    17130                       entry to the last entry that subordinats to this group
     1411    17131                       entry, creates ILLs to advance lines for the LINE clause,
     1412    17132                       formaating the print line buffer according the specified
     1413    17133                       COLUMN clauses, codes that conditionally prints the
     1414    17134                       printable item will be generated if the GROUP INDICATE
     1415    17135                       clause presented.
     1416    17136        */
     1417    17137
     1418    17138
     1419    17139    2   DCL GROUP$         PTR;
     1420    17140    2   DCL CURRENT$       PTR;
     1421    17141    2   DCL NEXT$          PTR;
     1422    17142    2   DCL LABEL$         PTR;
     1423    17143    2   DCL PREV$          PTR;
     1424    17144    2   DCL LINE_SPAN      SBIN WORD;
     1425    17145    2    DCL LINE_NO#      UBIN WORD;
     1426    17146    2   DCL ST$$           PTR;
     1427    17147    2   DCL ST_TYPE        UBIN WORD;
     1428    17148    2   DCL BYTE_POS       UBIN WORD;
     1429    17149    2   DCL WORD_POS       UBIN WORD;
     1430    17150    2   DCL QLT$$          PTR;
     1431    17151    2   DCL RECV_ST$       PTR;
     1432    17152    2   DCL BUF_ST$        PTR;
     1433    17153
     1434    17154
PL6.E3A0      #004=Z8ET$CREATE_SUBROUTINES File=Z8ET.:Z8A6TSI                    SAT 08/09/97 12:48 Page:188
     1435    17155        %EJECT;
PL6.E3A0      #004=Z8ET$CREATE_SUBROUTINES File=Z8ET.:Z8A6TSI                    SAT 08/09/97 12:48 Page:189
     1436    17156
     1437    17157        %MACRO NEW_EDIT_ST (@ETT$ = RECV_ETT$);
     1438    17158           DO;
     1439    17159
     1440    17160             %RESERVE_ST (POINTER = ST$$);
     1441    17161
     1442    17162             ST$$ -> SCALAR = @ETT$ -> ETT.LOP -> SCALAR;
     1443    17163
     1444    17164             %NEW_QLT (@POINTER = QLT$$,
     1445    17165                       @FATHER  = LTS$$ -> REPORT_LTS.BUFFER_ST$ -> SCALAR.QLT$,
     1446    17166                       @BROTHER = LTS$$ -> REPORT_LTS.BUFFER_ST$ -> SCALAR.QLT$ -> QLT.SON,
     1447    17167                       @ST$     = ST$$,
     1448    17168                       @DNT$    = ST$$ -> ST.DNT$,
     1449    17169                       @LEVEL#  = 2);
     1450    17170
     1451    17171               LTS$$ -> REPORT_LTS.BUFFER_ST$ -> SCALAR.QLT$ -> QLT.SON = QLT$$;
     1452    17172
     1453    17173             ST$$ -> SCALAR.QLT$ = QLT$$;
     1454    17174             ST$$ -> SCALAR.B.REDEF_SUB = TRUE;
     1455    17175             ST$$ -> SCALAR.COUNT = LTS$$ -> REPORT_LTS.BUFFER_ST$ -> SCALAR.COUNT;
     1456    17176             @ETT$ -> ETT.LOP = ST$$;
     1457    17177
     1458    17178           END;
     1459    17179         %MEND;
     1460    17180
     1461    17181
     1462    17182         %MACRO EDIT_PRINTABLE_ITEM (@FROM = ,
     1463    17183                                     @TO   = );
     1464    17184           DO;
     1465    17185             RECORD_LEN = 0;  /* initialize the record length */
     1466    17186             DO WHILE (@FROM ~= @TO -> REPORT_GRP_LTS.NEXT);
     1467    17187
     1468    17188               IF @FROM -> LTS.ID = %REPORT_ELEM_LTS AND
     1469    17189                  @FROM -> REPORT_ELEM_LTS.B.PRINTABLE  THEN
     1470    17190
     1471    17191                 DO;
     1472    17192
PL6.E3A0      #004=Z8ET$CREATE_SUBROUTINES File=Z8ET.:Z8A6TSI                    SAT 08/09/97 12:48 Page:190
     1473    17193                   ALL_BIT = FALSE;
     1474    17194
     1475    17195                   IF @FROM -> REPORT_ELEM_LTS.B.SUM_PRESENTED THEN
     1476    17196                     DO;
     1477    17197                       SEND_ETT$ = @FROM -> REPORT_ELEM_LTS.SUM_LTS$ ->
     1478    17198                                   SUM_LTS.SUM_ST_ILL$;
     1479    17199                       RECV_ETT$ = @FROM -> REPORT_ELEM_LTS.SUM_LTS$ ->
     1480    17200                                   SUM_LTS.EDIT_ST_ILL$;
     1481    17201                     END;
     1482    17202                   ELSE
     1483    17203                     DO;
     1484    17204                       CALL Z8AF$NEW_BASE (@FROM -> REPORT_ELEM_LTS.ST$,
     1485    17205                                           ADDR(NIL),
     1486    17206                                           RECV_ETT$);
     1487    17207
     1488    17208                       IF @FROM -> REPORT_ELEM_LTS.B.SOURCE_PRESENTED THEN
     1489    17209                         SEND_ETT$ = @FROM -> REPORT_ELEM_LTS.SOURCE_ETT$;
     1490    17210                       ELSE
     1491    17211                         DO;
     1492    17212
     1493    17213                           SEND_ETT$ = @FROM -> REPORT_ELEM_LTS.VALUE_ETT$;
     1494    17214
     1495    17215                           %FISH (TRIAD = SEND_ETT$,
     1496    17216                                  RTN   = VAL_ST$);
     1497    17217
     1498    17218                           IF VAL_ST$ -> ST.ID = %CONST THEN
     1499    17219                             ALL_BIT = VAL_ST$ -> CONST.B.ALL;
     1500    17220
     1501    17221                         END;
     1502    17222
     1503    17223                     END;
     1504    17224
     1505    17225                   IF RECV_ETT$ -> ETT.ID = %BASE THEN
     1506    17226                     %NEW_EDIT_ST (@ETT$ = RECV_ETT$);
     1507    17227                   ELSE
     1508    17228                     %NEW_EDIT_ST (@ETT$ = RECV_ETT$ -> ETT.LOP);
     1509    17229
PL6.E3A0      #004=Z8ET$CREATE_SUBROUTINES File=Z8ET.:Z8A6TSI                    SAT 08/09/97 12:48 Page:191
     1510    17230                   %FISH (TRIAD = RECV_ETT$,  RTN = RECV_ST$);
     1511    17231
     1512    17232                   %FISH (TRIAD = BUFFER_ETT$,  RTN = BUF_ST$);
     1513    17233
     1514    17234
     1515    17235                   RECV_ST$ -> ST.R = BUF_ST$ -> ST.R;
     1516    17236                   RECV_ST$ -> ST.COUNT = BUF_ST$ -> ST.COUNT;
     1517    17237                   RECV_ST$ -> ST.SA = (@FROM -> REPORT_ELEM_LTS.COLUMN_NO# + SA_ADJ) / 4 ;
     1518    17238           RECV_ST$ -> ST.ADSC.CN = MOD((@FROM -> REPORT_ELEM_LTS.COLUMN_NO# + SA_ADJ) , 4);
     1519    17239                   RECORD_LEN = @FROM -> REPORT_ELEM_LTS.COLUMN_NO# +
     1520    17240                                @FROM -> REPORT_ELEM_LTS.SPAN + SA_ADJ;
     1521    17241
     1522    17242                   LINE_NO# = RECV_ST$ -> ST.LINE_NO;
     1523    17243
     1524    17244                   %GET_TYPE (@ETT$  = SEND_ETT$);
     1525    17245
     1526    17246                   %INIT_LX_ETT_ITEM (@POINTER = "ADDR(SEND_FIELD)",
     1527    17247                                      @TYPE    = ST_TYPE,
     1528    17248                                      @ALL     = ALL_BIT,
     1529    17249                                      @ETT$    = SEND_ETT$,
     1530    17250                                      @LINE    = LINE_NO#,
     1531    17251                                      @COLUMN  = 0);
     1532    17252
     1533    17253                   %GET_TYPE (@ETT$  = RECV_ETT$);
     1534    17254
     1535    17255                   %INIT_LX_ETT_ITEM (@POINTER = "ADDR(RECV_FIELD)",
     1536    17256                                      @TYPE    = ST_TYPE,
     1537    17257                                      @ETT$    = RECV_ETT$,
     1538    17258                                      @LINE    = LINE_NO#,
     1539    17259                                      @COLUMN  = 0);
     1540    17260
     1541    17261                   IF @FROM -> REPORT_ELEM_LTS.B.GROUP_INDICATE THEN
     1542    17262                     DO;
     1543    17263
     1544    17264                       CALL Z8AT$CREATE_TEMPORARY(%PARA, IND$$);
     1545    17265
     1546    17266                       %INIT_BINARY_OP (@POINTER = "ADDR(COMPARE)",
PL6.E3A0      #004=Z8ET$CREATE_SUBROUTINES File=Z8ET.:Z8A6TSI                    SAT 08/09/97 12:48 Page:192
     1547    17267                                        @LOP$    = "ADDR(IND_FIELD)",
     1548    17268                                        @ROP$    = "ADDR(ZERO)",
     1549    17269                                        @OP      = %OP_EQUAL);
     1550    17270
     1551    17271                       CALL Z8EK$BRANCH_TRUE (IND$$,
     1552    17272                                              ADDR(COMPARE));
     1553    17273
     1554    17274                       CALL Z8E7$MOVE (ADDR(RECV_FIELD),
     1555    17275                                       ADDR(SEND_FIELD));
     1556    17276
     1557    17277                       %NEW_ILL (@ID     = %DEFLB,
     1558    17278                                 @LABEL$ = IND$$);
     1559    17279
     1560    17280                     END;
     1561    17281                   ELSE
     1562    17282                     CALL Z8E7$MOVE (ADDR(RECV_FIELD),
     1563    17283                                     ADDR(SEND_FIELD));
     1564    17284
     1565    17285                 END;  /* END IF */
     1566    17286
     1567    17287               @FROM = @FROM -> REPORT_GRP_LTS.NEXT;
     1568    17288
     1569    17289             END; /* WHILE */
     1570    17290
     1571    17291           END;
     1572    17292         %MEND;
     1573    17293
     1574    17294         %MACRO GET_TYPE (@TYPE = ST_TYPE,
     1575    17295                          @ETT$ = SEND_ETT$);
     1576    17296           DO;
     1577    17297             %FISH (TRIAD = @ETT$,
     1578    17298                    RTN   = ST$$);
     1579    17299
     1580    17300             @TYPE = ST$$ -> ST.TYPE;
     1581    17301           END;
     1582    17302         %MEND;
     1583    17303         %EJECT;
PL6.E3A0      #004=Z8ET$CREATE_SUBROUTINES File=Z8ET.:Z8A6TSI                    SAT 08/09/97 12:48 Page:193
     1584    17304
     1585    17305    2          IF GROUP$ -> REPORT_01_LTS.FIRST_LINE.LTS$ = ADDR(NIL)
     1586    17306    2            THEN
     1587    17307    2              RETURN;
     1588    17308
     1589    17309               %SUB_HEAD (OFFSET_V = %FORMATTING_SUB_OFF,
     1590    17310                          RWCT_PTR = GROUP$ -> REPORT_01_LTS.RWCT$);
     1591    18460
     1592    18461               /* CLEAR THE BUFFER */
     1593    18462
     1594    18463                   %NEW_ILL (@ID   = %MVAN,
     1595    18464                             @LOP  = BUFFER_ETT$,
     1596    18465                             @ROP  = CODE_ETT$);
     1597    18844
     1598    18845               /* PRINT THE FIRST LINE OF THIS GROUP */
     1599    18846
     1600    18847    2          CURRENT$ = GROUP$;
     1601    18848
     1602    18849    2          NEXT$ = GROUP$ -> REPORT_01_LTS.FIRST_LINE.LTS$;
     1603    18850    2          PREV$ = NEXT$;
     1604    18851
     1605    18852    3          DO WHILE (NEXT$ -> REPORT_GRP_LTS.NEXT ~= ADDR(NIL)  AND
     1606    18853    3             NOT NEXT$ -> REPORT_GRP_LTS.NEXT -> REPORT_GRP_LTS.B.LINE_PRESENTED);
     1607    18854
     1608    18855    3            NEXT$ = NEXT$ -> REPORT_GRP_LTS.NEXT;
     1609    18856
     1610    18857    3          END; /* WHILE */
     1611    18858
     1612    18859               %EDIT_PRINTABLE_ITEM (@FROM = CURRENT$,
     1613    18860                                     @TO   = NEXT$);
     1614    19517
     1615    19518    2            IF RECORD_LEN < MIN_REC_LEN THEN
     1616    19519    2              RECORD_LEN = MIN_REC_LEN;
     1617    19520
     1618    19521    2          CALL Z8AC$LX_ETT_ITEM_TYI_CONST (RECORD_LEN,
     1619    19522    2                                           ADDR(RECORD_LENGTH));
     1620    19523
PL6.E3A0      #004=Z8ET$CREATE_SUBROUTINES File=Z8ET.:Z8A6TSI                    SAT 08/09/97 12:48 Page:194
     1621    19524    2          CALL Z9EN$WRITE_NEXT (FILE_LTS$,
     1622    19525    2                                ADDR(NIL),
     1623    19526    2                                ADDR(NIL),
     1624    19527    2                                ADDR(RECORD_LENGTH),
     1625    19528    2                                ADDR(AFTER_FIELD),
     1626    19529    2                                %AFTER_LINES,
     1627    19530    2                                REPORT_CODE_NO);
     1628    19531
     1629    19532               /* PRINT THE REMAINING LINES */
     1630    19533
     1631    19534    2          NEXT$ = NEXT$ -> REPORT_GRP_LTS.NEXT;
     1632    19535
     1633    19536    3          DO WHILE (NEXT$ ~= ADDR(NIL));
     1634    19537
     1635    19538    3            CURRENT$ = NEXT$;
     1636    19539
     1637    19540    3            IF CURRENT$ -> REPORT_GRP_LTS.LINE_TYPE = %REPORT_LINE_INT THEN
     1638    19541    3              LINE_SPAN = CURRENT$ -> REPORT_GRP_LTS.LINE_NO# -
     1639    19542    3                          PREV$ -> REPORT_GRP_LTS.LINE_NO#;
     1640    19543    3            ELSE
     1641    19544    3              LINE_SPAN = CURRENT$ -> REPORT_GRP_LTS.LINE_NO#;
     1642    19545
     1643    19546                   /* UPDATE LINE COUNTER */
     1644    19547
     1645    19548    3            MKCN.CON = LINE_SPAN;
     1646    19549
     1647    19550    3            CALL Z8AC$MAKE_CONST (CONST_ETT$);
     1648    19551
     1649    19552                 %INIT_LX_ETT_ITEM (@POINTER = "ADDR(LINE_FIELD)",
     1650    19553                                    @TYPE    = %TYI,
     1651    19554                                    @ETT$    = CONST_ETT$);
     1652    19576
     1653    19577                 %INIT_BINARY_OP (@POINTER   = "ADDR(OP_NODE)",
     1654    19578                                  @ROP$      = "ADDR(LINE_FIELD)",
     1655    19579                                  @LOP$      = "ADDR(LINE_COUNTER_FIELD)",
     1656    19580                                  @OP        = %OP_PLUS);
     1657    19598
PL6.E3A0      #004=Z8ET$CREATE_SUBROUTINES File=Z8ET.:Z8A6TSI                    SAT 08/09/97 12:48 Page:195
     1658    19599    3            CALL Z8E5$MATH_PACK (ADDR(OP_NODE),
     1659    19600    3                                 ADDR(ETT_ITEM));
     1660    19601
     1661    19602    3            CALL Z8E7$MOVE (ADDR(LINE_COUNTER_FIELD),
     1662    19603    3                            ADDR(ETT_ITEM));
     1663    19604
     1664    19605    3            PREV$ = NEXT$;
     1665    19606
     1666    19607                 /* BLANK OUT THE BUFFER */
     1667    19608
     1668    19609
     1669    19610                   %NEW_ILL (@ID   = %MVAN,
     1670    19611                             @LOP  = BUFFER_ETT$,
     1671    19612                             @ROP  = CODE_ETT$);
     1672    19991
     1673    19992    4            DO WHILE (NEXT$ -> REPORT_GRP_LTS.NEXT ~= ADDR(NIL)  AND
     1674    19993    4               NOT NEXT$ -> REPORT_GRP_LTS.NEXT -> REPORT_GRP_LTS.B.LINE_PRESENTED);
     1675    19994
     1676    19995    4              NEXT$ = NEXT$ -> REPORT_GRP_LTS.NEXT;
     1677    19996
     1678    19997    4            END; /* WHILE */
     1679    19998
     1680    19999                 %EDIT_PRINTABLE_ITEM (@FROM = CURRENT$,
     1681    20000                                       @TO   = NEXT$);
     1682    20657
     1683    20658    3            IF RECORD_LEN < MIN_REC_LEN THEN
     1684    20659    3              RECORD_LEN = MIN_REC_LEN;
     1685    20660
     1686    20661    3            CALL Z8AC$LX_ETT_ITEM_TYI_CONST (RECORD_LEN,
     1687    20662    3                                             ADDR(RECORD_LENGTH));
     1688    20663
     1689    20664    3            CALL Z9EN$WRITE_NEXT (FILE_LTS$,
     1690    20665    3                                  ADDR(NIL),
     1691    20666    3                                  ADDR(NIL),
     1692    20667    3                                  ADDR(RECORD_LENGTH),
     1693    20668    3                                  ADDR(LINE_FIELD),
     1694    20669    3                                  %AFTER_LINES,
PL6.E3A0      #004=Z8ET$CREATE_SUBROUTINES File=Z8ET.:Z8A6TSI                    SAT 08/09/97 12:48 Page:196
     1695    20670    3                                  REPORT_CODE_NO);
     1696    20671
     1697    20672
     1698    20673    3            NEXT$ = NEXT$ -> REPORT_GRP_LTS.NEXT;
     1699    20674
     1700    20675    3          END; /* OUTER WHILE */
     1701    20676
     1702    20677               %DB_EXCEPT_LIBRARY_RETURN;
     1703    21061
     1704    21062    2    END CREATE_FORMATTING_SUB;
     1705    21063         %EJECT;
PL6.E3A0      #004=Z8ET$CREATE_SUBROUTINES File=Z8ET.:Z8A6TSI                    SAT 08/09/97 12:48 Page:197
     1706    21064         /*================*/
     1707    21065    1      BUILD_FORMAT_SUB: PROC;
     1708    21066         /*================*/
     1709    21067
     1710    21068        /*I*
     1711    21069
     1712    21070             NAME:  BUILD_FORMAT_SUB
     1713    21071
     1714    21072          DESCRIPTION: This routine steps through the report LTS item and
     1715    21073                       calls CREATE_FORMATTING_SUB to create the subroutines
     1716    21074                       that will print--- report heading, report footing,
     1717    21075                       detail, page heading, page footing, control heading
     1718    21076                       and control footing groups.
     1719    21077        */
     1720    21078
     1721    21079
     1722    21080    2          IF LTS$$ -> REPORT_LTS.REPORT_HEADING$ ~= ADDR(NIL) THEN
     1723    21081    2              CALL CREATE_FORMATTING_SUB (LTS$$ -> REPORT_LTS.REPORT_HEADING$);
     1724    21082
     1725    21083    2          IF LTS$$ -> REPORT_LTS.REPORT_FOOTING$ ~= ADDR(NIL) THEN
     1726    21084    2              CALL CREATE_FORMATTING_SUB (LTS$$ -> REPORT_LTS.REPORT_FOOTING$);
     1727    21085
     1728    21086    2          IF LTS$$ -> REPORT_LTS.PAGE_HEADING$ ~= ADDR(NIL) THEN
     1729    21087    2              CALL CREATE_FORMATTING_SUB (LTS$$ -> REPORT_LTS.PAGE_HEADING$);
     1730    21088
     1731    21089    2          IF LTS$$ -> REPORT_LTS.PAGE_FOOTING$ ~= ADDR(NIL) THEN
     1732    21090    2              CALL CREATE_FORMATTING_SUB (LTS$$ -> REPORT_LTS.PAGE_FOOTING$);
     1733    21091
     1734    21092    2          DETAIL_GRP$ = LTS$$ -> REPORT_LTS.DETAIL$;
     1735    21093
     1736    21094    3          DO WHILE (DETAIL_GRP$ ~= ADDR(NIL));
     1737    21095
     1738    21096    3            IF DETAIL_GRP$ -> REPORT_01_LTS.B.GROUP_INDICATE THEN
     1739    21097    4              DO;
     1740    21098    4                CALL Z8AF$NEW_BASE (DETAIL_GRP$ -> REPORT_01_LTS.GROUP_INDICATOR$,
     1741    21099    4                                    ADDR(NIL),
     1742    21100    4                                    IND_ETT$);
PL6.E3A0      #004=Z8ET$CREATE_SUBROUTINES File=Z8ET.:Z8A6TSI                    SAT 08/09/97 12:48 Page:198
     1743    21101
     1744    21102                     %INIT_LX_ETT_ITEM (@POINTER = "ADDR(IND_FIELD)",
     1745    21103                                        @TYPE    = %TYI,
     1746    21104                                        @ETT$    = IND_ETT$);
     1747    21126
     1748    21127    4              END;
     1749    21128
     1750    21129    3            CALL CREATE_FORMATTING_SUB (DETAIL_GRP$);
     1751    21130
     1752    21131    3            DETAIL_GRP$ = DETAIL_GRP$ -> REPORT_01_LTS.LINK;
     1753    21132
     1754    21133    3          END; /* WHILE */
     1755    21134
     1756    21135    2          IF LTS$$ -> REPORT_LTS.B.CONTROL_FINAL THEN
     1757    21136    3            DO;
     1758    21137    3              IF LTS$$ -> REPORT_LTS.CONTROL_FINAL$ -> CONTROL_NAME_LTS.
             21137                       CONTROL_HEADING$
     1759    21138    3                          ~= ADDR(NIL) THEN
     1760    21139    3                CALL CREATE_FORMATTING_SUB (LTS$$ -> REPORT_LTS.CONTROL_FINAL$ ->
     1761    21140    3                          CONTROL_NAME_LTS.CONTROL_HEADING$);
     1762    21141
     1763    21142    3              IF LTS$$ -> REPORT_LTS.CONTROL_FINAL$ -> CONTROL_NAME_LTS.
             21142                       CONTROL_FOOTING$
     1764    21143    3                          ~= ADDR(NIL) THEN
     1765    21144    3                CALL CREATE_FORMATTING_SUB (LTS$$ -> REPORT_LTS.CONTROL_FINAL$ ->
     1766    21145    3                          CONTROL_NAME_LTS.CONTROL_FOOTING$);
     1767    21146
     1768    21147    3            END;
     1769    21148
     1770    21149    2          IF LTS$$ -> REPORT_LTS.CONTROL$ ~= ADDR(NIL) THEN
     1771    21150    3            DO;
     1772    21151    4              DO I = 1 TO LTS$$ -> REPORT_LTS.CONTROL$ -> LTS_PTR_ARRAY.N - 3;
     1773    21152    4                IF LTS$$ -> REPORT_LTS.CONTROL$ -> LTS_PTR_ARRAY.P$(I) ->
     1774    21153    4                          CONTROL_NAME_LTS.CONTROL_HEADING$ ~= ADDR(NIL) THEN
     1775    21154    4                  CALL CREATE_FORMATTING_SUB (LTS$$ -> REPORT_LTS.CONTROL$ ->
     1776    21155    4                          LTS_PTR_ARRAY.P$ (I) -> CONTROL_NAME_LTS.CONTROL_HEADING$);
     1777    21156    4                IF LTS$$ -> REPORT_LTS.CONTROL$ -> LTS_PTR_ARRAY.P$(I) ->
PL6.E3A0      #004=Z8ET$CREATE_SUBROUTINES File=Z8ET.:Z8A6TSI                    SAT 08/09/97 12:48 Page:199
     1778    21157    4                          CONTROL_NAME_LTS.CONTROL_FOOTING$ ~= ADDR(NIL) THEN
     1779    21158    4                  CALL CREATE_FORMATTING_SUB (LTS$$ -> REPORT_LTS.CONTROL$ ->
     1780    21159    4                          LTS_PTR_ARRAY.P$ (I) -> CONTROL_NAME_LTS.CONTROL_FOOTING$);
     1781    21160
     1782    21161    4              END;
     1783    21162    3            END;
     1784    21163
     1785    21164    2          LTS$$ -> REPORT_LTS.BUFFER_ST$ -> SCALAR.B.ELEMENTARY = FALSE;
     1786    21165
     1787    21166    2    END BUILD_FORMAT_SUB;
     1788    21167         %EJECT;
PL6.E3A0      #004=Z8ET$CREATE_SUBROUTINES File=Z8ET.:Z8A6TSI                    SAT 08/09/97 12:48 Page:200
     1789    21168
     1790    21169         /*============*/
     1791    21170    1      STORE_EDITED:  PROC (CONTROL$$);
     1792    21171         /*============*/
     1793    21172
     1794    21173        /*I*
     1795    21174
     1796    21175             NAME:  STORE_EDITED
     1797    21176
     1798    21177          DESCRIPTION: When a control item's data type is numeric edited
     1799    21178                       or alphanumeric edited, they need special processes,
     1800    21179                       i.e. save there data type and pretend that they are
     1801    21180                       type alphanumeric during the swapping process.
     1802    21181         */
     1803    21182
     1804    21183    2    DCL CONTROL$$         PTR;
     1805    21184    2    DCL NAME$             PTR;
     1806    21185    2    DCL ST$$              PTR;
     1807    21186
     1808    21187
     1809    21188    3      DO I = 1 TO CONTROL$$ -> LTS_PTR_ARRAY.N - 3;
     1810    21189
     1811    21190    3        NAME$ = CONTROL$$ -> LTS_PTR_ARRAY.P$(I);
     1812    21191    3        ST$$ = NAME$ -> CONTROL_NAME_LTS.ST$;
     1813    21192
     1814    21193    3        IF ST$$ -> SCALAR.B.CLASS = %CLASS_NUMERIC_EDITED OR
     1815    21194    3           ST$$ -> SCALAR.B.CLASS = %CLASS_ALPHANUMERIC_EDITED THEN
     1816    21195    4          DO;
     1817    21196    4            NAME$ -> CONTROL_NAME_LTS.B.CLASS_EDITED = TRUE;
     1818    21197    4            NAME$ -> CONTROL_NAME_LTS.B.CLASS = ST$$ -> SCALAR.B.CLASS;
     1819    21198    4            ST$$ -> SCALAR.B.CLASS = %CLASS_ALPHANUMERIC;
     1820    21199    4          END;
     1821    21200    3        ELSE
     1822    21201    3          NAME$ -> CONTROL_NAME_LTS.B.CLASS_EDITED = FALSE;
     1823    21202
     1824    21203    3      END;
     1825    21204
PL6.E3A0      #004=Z8ET$CREATE_SUBROUTINES File=Z8ET.:Z8A6TSI                    SAT 08/09/97 12:48 Page:201
     1826    21205    2    END STORE_EDITED;
     1827    21206         %EJECT;
PL6.E3A0      #004=Z8ET$CREATE_SUBROUTINES File=Z8ET.:Z8A6TSI                    SAT 08/09/97 12:48 Page:202
     1828    21207
     1829    21208         /*==============*/
     1830    21209    1      RESTORE_EDITED: PROC (CONTROL$$);
     1831    21210         /*==============*/
     1832    21211
     1833    21212        /*I*
     1834    21213
     1835    21214             NAME:  RESTORE_EDITED
     1836    21215
     1837    21216          DESCRIPTION: This routine restore the original data type of the
     1838    21217                       edited type control items after the swapping process.
     1839    21218         */
     1840    21219
     1841    21220
     1842    21221    2    DCL CONTROL$$         PTR;
     1843    21222    2    DCL ST$$              PTR;
     1844    21223    2    DCL NAME$             PTR;
     1845    21224
     1846    21225
     1847    21226    3      DO I = 1 TO CONTROL$$ -> LTS_PTR_ARRAY.N - 3;
     1848    21227
     1849    21228    3        NAME$ = CONTROL$$ -> LTS_PTR_ARRAY.P$(I);
     1850    21229
     1851    21230    3        IF NAME$ -> CONTROL_NAME_LTS.B.CLASS_EDITED THEN
     1852    21231    3           NAME$ -> CONTROL_NAME_LTS.ST$ -> SCALAR.B.CLASS =
     1853    21232    3             NAME$ -> CONTROL_NAME_LTS.B.CLASS;
     1854    21233
     1855    21234    3      END;
     1856    21235    2    END RESTORE_EDITED;
     1857    21236         %EJECT;
PL6.E3A0      #004=Z8ET$CREATE_SUBROUTINES File=Z8ET.:Z8A6TSI                    SAT 08/09/97 12:48 Page:203
     1858    21237
     1859    21238         /*================*/
     1860    21239    1      BUILD_CTR_FIELDS: PROC (CONTROL$$);
     1861    21240         /*================*/
     1862    21241
     1863    21242        /*I*
     1864    21243
     1865    21244             NAME:  BUILD_CTR_FIELD
     1866    21245
     1867    21246          DESCRIPTION: This routine creates the ST and LX_ETT items for
     1868    21247                       shadow and temporary field of the control items.
     1869    21248        */
     1870    21249
     1871    21250
     1872    21251    2   DCL CONTROL$$          PTR;
     1873    21252    2   DCL NAME$              PTR;
     1874    21253    2   DCL ETT$$              PTR;
     1875    21254    2   DCL ST$$               PTR;
     1876    21255
     1877    21256
     1878    21257        %MACRO BUILD_LX_ETT (@ST$$ = ,
     1879    21258                             @FIELD$ = );
     1880    21259           DO;
     1881    21260               ST$$ = @ST$$;
     1882    21261               CALL Z8AF$NEW_BASE (ST$$,
     1883    21262                                   ADDR(NIL),
     1884    21263                                   ETT$$);
     1885    21264
     1886    21265               %NEW_HEAP (@POINTER = @FIELD$);
     1887    21266
     1888    21267               %INIT_LX_ETT_ITEM (@POINTER = @FIELD$,
     1889    21268                                  @TYPE    = ST$$ -> SCALAR.TYPE,
     1890    21269                                  @ETT$    = ETT$$);
     1891    21270
     1892    21271           END;
     1893    21272        %MEND;
     1894    21273        %EJECT;
PL6.E3A0      #004=Z8ET$CREATE_SUBROUTINES File=Z8ET.:Z8A6TSI                    SAT 08/09/97 12:48 Page:204
     1895    21274
     1896    21275
     1897    21276    3          DO I = 1 TO CONTROL$$ -> LTS_PTR_ARRAY.N - 3;
     1898    21277
     1899    21278    3            NAME$ = CONTROL$$ -> LTS_PTR_ARRAY.P$(I);
     1900    21279
     1901    21280    3            IF NAME$ -> CONTROL_NAME_LTS.ST$ -> SCALAR.TYPE = %TYX  OR
     1902    21281    3               NAME$ -> CONTROL_NAME_LTS.ST$ -> SCALAR.TYPE = %TYY THEN
     1903    21282    3               NAME$ -> CONTROL_NAME_LTS.ST$ = NAME$ -> CONTROL_NAME_LTS.ST$ ->
     1904    21283    3               SCALAR.QLT$ -> QLT.BROTHER -> QLT.ST$;
     1905    21284
     1906    21285
     1907    21286    3            CALL CREATE_SHADOW_ST (NAME$ -> CONTROL_NAME_LTS.ST$,
     1908    21287    3                                   NAME$ -> CONTROL_NAME_LTS.TEMP$);
     1909    21288
     1910    21289    3            CALL CREATE_SHADOW_ST (NAME$ -> CONTROL_NAME_LTS.ST$,
     1911    21290    3                                   NAME$ -> CONTROL_NAME_LTS.SHADOW$);
     1912    21291
     1913    21292                 %BUILD_LX_ETT (@ST$$ = NAME$ -> CONTROL_NAME_LTS.ST$,
     1914    21293                                @FIELD$ = NAME$ -> CONTROL_NAME_LTS.ST_FIELD$);
     1915    21330
     1916    21331                 %BUILD_LX_ETT (@ST$$ = NAME$ -> CONTROL_NAME_LTS.TEMP$,
     1917    21332                                @FIELD$ = NAME$ -> CONTROL_NAME_LTS.TEMP_FIELD$);
     1918    21369
     1919    21370                 %BUILD_LX_ETT (@ST$$ = NAME$ -> CONTROL_NAME_LTS.SHADOW$,
     1920    21371                                @FIELD$ = NAME$ -> CONTROL_NAME_LTS.SHADOW_FIELD$);
     1921    21408
     1922    21409    3          END;
     1923    21410
     1924    21411    2    END BUILD_CTR_FIELDS;
     1925    21412         %EJECT;
PL6.E3A0      #004=Z8ET$CREATE_SUBROUTINES File=Z8ET.:Z8A6TSI                    SAT 08/09/97 12:48 Page:205
     1926    21413
     1927    21414         /*==================*/
     1928    21415    1      DISPOSE_CTR_FIELDS: PROC (CONTROL$$);
     1929    21416         /*==================*/
     1930    21417
     1931    21418        /*I*
     1932    21419
     1933    21420             NAME:  DISPOSE_CTR_FIELD
     1934    21421
     1935    21422          DESCRIPTION: This routine disposes LX_ETT items for st,
     1936    21423                       shadow and temporary field of the control items.
     1937    21424        */
     1938    21425
     1939    21426
     1940    21427    2   DCL CONTROL$$      PTR;
     1941    21428
     1942    21429
     1943    21430
     1944    21431    3          DO I = 1 TO CONTROL$$ -> LTS_PTR_ARRAY.N - 3;
     1945    21432
     1946    21433    3            CALL Z8ED$DISPOSE_ABSSYN_TREE (CONTROL$$ -> LTS_PTR_ARRAY.P$(I) ->
             21433                     CONTROL_NAME_LTS.ST_FIELD$);
     1947    21434
     1948    21435    3            CALL Z8ED$DISPOSE_ABSSYN_TREE (CONTROL$$ -> LTS_PTR_ARRAY.P$(I) ->
             21435                     CONTROL_NAME_LTS.TEMP_FIELD$);
     1949    21436
     1950    21437    3            CALL Z8ED$DISPOSE_ABSSYN_TREE (CONTROL$$ -> LTS_PTR_ARRAY.P$(I) ->
             21437                     CONTROL_NAME_LTS.SHADOW_FIELD$);
     1951    21438
     1952    21439    3          END;
     1953    21440
     1954    21441    2    END DISPOSE_CTR_FIELDS;
     1955    21442         %EJECT;
PL6.E3A0      #004=Z8ET$CREATE_SUBROUTINES File=Z8ET.:Z8A6TSI                    SAT 08/09/97 12:48 Page:206
     1956    21443
     1957    21444         /*================*/
     1958    21445    1      CREATE_SHADOW_ST: PROC (ITEM$, SHADOW$);
     1959    21446         /*================*/
     1960    21447
     1961    21448        /*I*
     1962    21449
     1963    21450             NAME:  CREATE_SHADOW_ST
     1964    21451
     1965    21452          DESCRIPTION: This routine creates ST item and initialize the
     1966    21453                       st item for calling module.
     1967    21454        */
     1968    21455
     1969    21456
     1970    21457    2   DCL ITEM$              PTR;
     1971    21458    2   DCL SHADOW$            PTR;
     1972    21459
     1973    21460
     1974    21461
     1975    21462    2          CALL Z8AT$CREATE_TEMPORARY (%SCALAR, SHADOW$);
     1976    21463
     1977    21464    2          SHADOW$ -> SCALAR.DESCL = ITEM$ -> SCALAR.DESCL;
     1978    21465    2          SHADOW$ -> SCALAR.ADSC.CN = 0;
     1979    21466    2          SHADOW$ -> SCALAR.B.LENGTH_4096 = ITEM$ -> SCALAR.B.LENGTH_4096;
     1980    21467    2          SHADOW$ -> SCALAR.B.CLASS = ITEM$ -> SCALAR.B.CLASS;
     1981    21468    2          SHADOW$ -> SCALAR.TYPE = ITEM$ -> SCALAR.TYPE;
     1982    21469    2          SHADOW$ -> SCALAR.LTS$ = ITEM$ -> SCALAR.LTS$;
     1983    21470    2          SHADOW$ -> SCALAR.B.DML_TYPE = ITEM$ -> SCALAR.B.DML_TYPE;
     1984    21471
     1985    21472    2    END CREATE_SHADOW_ST;
     1986    21473         %EJECT;
PL6.E3A0      #004=Z8ET$CREATE_SUBROUTINES File=Z8ET.:Z8A6TSI                    SAT 08/09/97 12:48 Page:207
     1987    21474
     1988    21475         /*======================*/
     1989    21476    1      CREATE_SHADOW_INIT_SUB: PROC (CONTROL$$);
     1990    21477         /*======================*/
     1991    21478
     1992    21479        /*I*
     1993    21480
     1994    21481             NAME:  CREATE_SHADOW_INIT_SUB
     1995    21482
     1996    21483          DESCRIPTION: This routine creates shadow item initialize
     1997    21484                       subroutine that will executed by the RWCS to
     1998    21485                       initialize the shadow field of the control items.
     1999    21486        */
     2000    21487
     2001    21488
     2002    21489    2   DCL CONTROL$$      PTR;
     2003    21490    2   DCL LABEL$         PTR;
     2004    21491
     2005    21492
     2006    21493
     2007    21494               %SUB_HEAD (OFFSET_V = %CTR_SHADOW_INIT_OFF,
     2008    21495                          RWCT_PTR = LTS$$ -> REPORT_LTS.RWCT$);
     2009    22645
     2010    22646    3          DO I = 1 TO CONTROL$$ -> LTS_PTR_ARRAY.N - 3;
     2011    22647
     2012    22648    3            IF CONTROL$$ -> LTS_PTR_ARRAY.P$(I) ->
     2013    22649    3               CONTROL_NAME_LTS.ST_FIELD$ -> LX_ETT_ITEM.TYPE = %TYX THEN
     2014    22650    3              CALL Z8EX$SET_INDEX (CONTROL$$ -> LTS_PTR_ARRAY.P$(I) -> CONTROL_NAME_LTS
             22650                       .SHADOW_FIELD$,
     2015    22651    3                            CONTROL$$ -> LTS_PTR_ARRAY.P$(I) -> CONTROL_NAME_LTS.
             22651                                     ST_FIELD$);
     2016    22652    3            ELSE
     2017    22653    3              CALL Z8E7$MOVE (CONTROL$$ -> LTS_PTR_ARRAY.P$(I) -> CONTROL_NAME_LTS.
             22653                       SHADOW_FIELD$,
     2018    22654    3                            CONTROL$$ -> LTS_PTR_ARRAY.P$(I) -> CONTROL_NAME_LTS.
             22654                                     ST_FIELD$);
     2019    22655
PL6.E3A0      #004=Z8ET$CREATE_SUBROUTINES File=Z8ET.:Z8A6TSI                    SAT 08/09/97 12:48 Page:208
     2020    22656    3          END;
     2021    22657
     2022    22658               %DB_EXCEPT_LIBRARY_RETURN;
     2023    23042
     2024    23043    2    END CREATE_SHADOW_INIT_SUB;
     2025    23044         %EJECT;
PL6.E3A0      #004=Z8ET$CREATE_SUBROUTINES File=Z8ET.:Z8A6TSI                    SAT 08/09/97 12:48 Page:209
     2026    23045
     2027    23046         /*=====================*/
     2028    23047    1      CREATE_CTR_DETECT_SUB: PROC (CONTROL$$);
     2029    23048         /*=====================*/
     2030    23049
     2031    23050        /*I*
     2032    23051
     2033    23052             NAME:  CREATE_CTR_DETECT_SUB
     2034    23053
     2035    23054          DESCRIPTION: This routine creates control break detect subroutine
     2036    23055                       that will executed by the RWCS to compare the control
     2037    23056                       items with its shadow fields to determine the break.
     2038    23057        */
     2039    23058
     2040    23059
     2041    23060    2   DCL LBL$$ (0:25)       PTR;
     2042    23061    2   DCL LABEL$             PTR;
     2043    23062    2   DCL CTR_LVL_NO#        SBIN WORD;
     2044    23063    2   DCL CONTROL$$          PTR;
     2045    23064    2   DCL NAME$$             PTR;
     2046    23065    2   DCL TARGET_NO#         SBIN WORD;
     2047    23066    2   DCL END_LABEL$         PTR;
     2048    23067
     2049    23068
     2050    23069
     2051    23070               %SUB_HEAD (OFFSET_V = %CTR_BREAK_OFF,
     2052    23071                          RWCT_PTR = LTS$$ -> REPORT_LTS.RWCT$);
     2053    24221
     2054    24222    2          IF LTS$$ -> REPORT_LTS.B.CONTROL_FINAL THEN
     2055    24223    2            CTR_LVL_NO# = 2;
     2056    24224    2          ELSE
     2057    24225    2            CTR_LVL_NO# = 1;
     2058    24226
     2059    24227    2          MKCN.CON = CTR_LVL_NO#;
     2060    24228
     2061    24229    2          CALL Z8AC$MAKE_CONST (CONST_ETT$);
     2062    24230
PL6.E3A0      #004=Z8ET$CREATE_SUBROUTINES File=Z8ET.:Z8A6TSI                    SAT 08/09/97 12:48 Page:210
     2063    24231               %INIT_LX_ETT_ITEM (@POINTER = "ADDR(SEND_FIELD)",
     2064    24232                              @TYPE    = %TYI,
     2065    24233                              @ETT$    = CONST_ETT$);
     2066    24255
     2067    24256    2          CALL Z8E7$MOVE (ADDR(CTR_LVL_FIELD),
     2068    24257    2                          ADDR(SEND_FIELD));
     2069    24258
     2070    24259               %INIT_BINARY_OP (@POINTER = "ADDR(OP_NODE)",
     2071    24260                                @ROP$    = "ADDR(ONE_FIELD)",
     2072    24261                                @LOP$    = "ADDR(CTR_LVL_FIELD)",
     2073    24262                                @OP      = %OP_PLUS);
     2074    24280
     2075    24281    2          CALL Z8E5$MATH_PACK (ADDR(OP_NODE),
     2076    24282    2                               ADDR(ETT_ITEM));
     2077    24283
     2078    24284    2          TARGET_NO# = CONTROL$$ -> LTS_PTR_ARRAY.N - 3;
     2079    24285
     2080    24286    3          DO I = 1 TO TARGET_NO#;
     2081    24287
     2082    24288    3            CALL Z8AT$CREATE_TEMPORARY (%PARA, LBL$$(I));
     2083    24289
     2084    24290                 %INIT_BINARY_OP (@POINTER = "ADDR(COMPARE)",
     2085    24291                                  @LOP$    =
             24291                            "CONTROL$$ -> LTS_PTR_ARRAY.P$(I) -> CONTROL_NAME_LTS.ST_FIELD$"
             24291                                      ,
     2086    24292                                  @ROP$    =
             24292                        "CONTROL$$ -> LTS_PTR_ARRAY.P$(I) -> CONTROL_NAME_LTS.SHADOW_FIELD$"
             24292                                      ,
     2087    24293                                  @OP      = %OP_EQUAL);
     2088    24311
     2089    24312    3            CALL Z8EK$BRANCH_FALSE (LBL$$(I),
     2090    24313    3                                    ADDR(COMPARE));
     2091    24314
     2092    24315    3            IF I < TARGET_NO# THEN
     2093    24316    4              DO;
     2094    24317
     2095    24318    4                CALL Z8E7$MOVE (ADDR(CTR_LVL_FIELD),
PL6.E3A0      #004=Z8ET$CREATE_SUBROUTINES File=Z8ET.:Z8A6TSI                    SAT 08/09/97 12:48 Page:211
     2096    24319    4                                ADDR(ETT_ITEM));
     2097    24320
     2098    24321    4              END;
     2099    24322    3            ELSE
     2100    24323    4              DO;
     2101    24324    4                CALL Z8E7$MOVE (ADDR(CTR_LVL_FIELD),
     2102    24325    4                                ADDR(ZERO));
     2103    24326    4              END;
     2104    24327
     2105    24328    3          END; /* DO LOOP */
     2106    24329
     2107    24330    2          CALL Z8AT$CREATE_TEMPORARY (%PARA, END_LABEL$);
     2108    24331
     2109    24332    2          CALL Z8EK$BRANCH (END_LABEL$);
     2110    24333
     2111    24334    3          DO I = 1 TO TARGET_NO#;
     2112    24335
     2113    24336    3            NAME$$ = CONTROL$$ -> LTS_PTR_ARRAY.P$(I);
     2114    24337
     2115    24338                 %NEW_ILL (@ID    = %DEFLB,
     2116    24339                       @LABEL$ = "LBL$$(I)");
     2117    24718
     2118    24719    3            CALL Z8E7$MOVE (NAME$$ -> CONTROL_NAME_LTS.TEMP_FIELD$,
     2119    24720    3                            NAME$$ -> CONTROL_NAME_LTS.ST_FIELD$);
     2120    24721
     2121    24722    3            CALL Z8E7$MOVE (NAME$$ -> CONTROL_NAME_LTS.ST_FIELD$,
     2122    24723    3                            NAME$$ -> CONTROL_NAME_LTS.SHADOW_FIELD$);
     2123    24724
     2124    24725    3            CALL Z8E7$MOVE (NAME$$ -> CONTROL_NAME_LTS.SHADOW_FIELD$,
     2125    24726    3                            NAME$$ -> CONTROL_NAME_LTS.TEMP_FIELD$);
     2126    24727
     2127    24728    3          END; /* DO LOOP */
     2128    24729
     2129    24730               %NEW_ILL (@ID   = %DEFLB,
     2130    24731                         @LABEL$ = END_LABEL$);
     2131    25110
     2132    25111               %DB_EXCEPT_LIBRARY_RETURN;
PL6.E3A0      #004=Z8ET$CREATE_SUBROUTINES File=Z8ET.:Z8A6TSI                    SAT 08/09/97 12:48 Page:212
     2133    25495
     2134    25496    2    END CREATE_CTR_DETECT_SUB;
     2135    25497         %EJECT;
PL6.E3A0      #004=Z8ET$CREATE_SUBROUTINES File=Z8ET.:Z8A6TSI                    SAT 08/09/97 12:48 Page:213
     2136    25498
     2137    25499         /*======================*/
     2138    25500    1      CREATE_SHADOW_SWAP_SUB: PROC(CONTROL$$);
     2139    25501         /*======================*/
     2140    25502
     2141    25503        /*I*
     2142    25504
     2143    25505             NAME:  CREATE_SHADOW_SWAP_SUB
     2144    25506
     2145    25507          DESCRIPTION: This routine creates shadow swap subroutine
     2146    25508                       that will executed by the RWCS to swap the control
     2147    25509                       items with its shadow fields.
     2148    25510        */
     2149    25511
     2150    25512
     2151    25513    2   DCL CONTROL$$      PTR;
     2152    25514    2   DCL LABEL$         PTR;
     2153    25515    2   DCL CTR_FINAL_IND  SBIN WORD;
     2154    25516    2   DCL LBL$$ (0 : 25) PTR;
     2155    25517    2   DCL ETT$$          PTR;
     2156    25518    2   DCL END_LABEL$     PTR;
     2157    25519    2   DCL START_LABEL$   PTR;
     2158    25520    2   DCL NAME$$         PTR;
     2159    25521    2   DCL TARGET_NO#     SBIN WORD;
     2160    25522    2   DCL CETT$$         PTR;
     2161    25523
     2162    25524               %SUB_HEAD (OFFSET_V = %CTR_ITEM_SWAP_OFF,
     2163    25525                          RWCT_PTR = LTS$$ -> REPORT_LTS.RWCT$);
     2164    26675
     2165    26676    2          TARGET_NO# = CONTROL$$ -> LTS_PTR_ARRAY.N - 3;
     2166    26677
     2167    26678    2          IF LTS$$ -> REPORT_LTS.B.CONTROL_FINAL THEN
     2168    26679    2            MKCN.CON = TARGET_NO# + 2;
     2169    26680    2          ELSE
     2170    26681    2            MKCN.CON = TARGET_NO# + 1;
     2171    26682
     2172    26683    2          CALL Z8AC$MAKE_CONST (CONST_ETT$);
PL6.E3A0      #004=Z8ET$CREATE_SUBROUTINES File=Z8ET.:Z8A6TSI                    SAT 08/09/97 12:48 Page:214
     2173    26684
     2174    26685    2          CALL Z8AF$FORME (%CMPI,
     2175    26686    2                           CTR_LVL_ETT$,
     2176    26687    2                           CONST_ETT$,
     2177    26688    2                           CETT$$);
     2178    26689
     2179    26690    2          CALL Z8AT$CREATE_TEMPORARY (%PARA, END_LABEL$);
     2180    26691
     2181    26692    2          CALL Z8AT$CREATE_TEMPORARY (%PARA, START_LABEL$);
     2182    26693
     2183    26694    2          START_LABEL$ -> LABEL.B.GO_VECTOR_START = TRUE;
     2184    26695    2          START_LABEL$ -> LABEL.P_END$ = END_LABEL$;
     2185    26696
     2186    26697    2          CALL Z8AF$NEW_BASE (START_LABEL$,
     2187    26698    2                              ADDR(NIL),
     2188    26699    2                              ETT$$);
     2189    26700    2          CALL Z8AF$FORME (%SSOP,
     2190    26701    2                           ETT$$,
     2191    26702    2                           CTR_LVL_ETT$,
     2192    26703    2                           ETT$$);
     2193    26704
     2194    26705               %NEW_ILL (@ID   = %GO,
     2195    26706                         @CODE = %GO_LESS_THAN_LOGICAL,
     2196    26707                         @LOP  = ETT$$,
     2197    26708                         @ROP  = CETT$$);
     2198    27087
     2199    27088               %NEW_ILL (@ID = %DEFLB,
     2200    27089                         @LABEL$ = START_LABEL$);
     2201    27468
     2202    27469    2          CALL Z8EK$BRANCH (END_LABEL$);
     2203    27470
     2204    27471    2          CALL Z8AT$CREATE_TEMPORARY (%PARA, LBL$$ (1));
     2205    27472
     2206    27473    2          CALL Z8EK$BRANCH (LBL$$(1));
     2207    27474
     2208    27475    2          IF LTS$$ -> REPORT_LTS.B.CONTROL_FINAL THEN
     2209    27476
PL6.E3A0      #004=Z8ET$CREATE_SUBROUTINES File=Z8ET.:Z8A6TSI                    SAT 08/09/97 12:48 Page:215
     2210    27477    2            CALL Z8EK$BRANCH (LBL$$(1));
     2211    27478
     2212    27479    3          DO I = 2 TO TARGET_NO#;
     2213    27480
     2214    27481    3            CALL Z8AT$CREATE_TEMPORARY (%PARA, LBL$$ (I));
     2215    27482
     2216    27483    3            CALL Z8EK$BRANCH (LBL$$(I));
     2217    27484
     2218    27485    3          END;
     2219    27486
     2220    27487
     2221    27488    3          DO I = 1 TO TARGET_NO#;
     2222    27489    3            NAME$$ = CONTROL$$ -> LTS_PTR_ARRAY.P$(I);
     2223    27490
     2224    27491                 %NEW_ILL (@ID    = %DEFLB,
     2225    27492                           @LABEL$ = "LBL$$(I)");
     2226    27871
     2227    27872    3            CALL Z8E7$MOVE (NAME$$ -> CONTROL_NAME_LTS.TEMP_FIELD$,
     2228    27873    3                            NAME$$ -> CONTROL_NAME_LTS.ST_FIELD$);
     2229    27874
     2230    27875    3            CALL Z8E7$MOVE (NAME$$ -> CONTROL_NAME_LTS.ST_FIELD$,
     2231    27876    3                            NAME$$ -> CONTROL_NAME_LTS.SHADOW_FIELD$);
     2232    27877
     2233    27878    3            CALL Z8E7$MOVE (NAME$$ -> CONTROL_NAME_LTS.SHADOW_FIELD$,
     2234    27879    3                            NAME$$ -> CONTROL_NAME_LTS.TEMP_FIELD$);
     2235    27880
     2236    27881    3          END; /* DO LOOP */
     2237    27882
     2238    27883               %NEW_ILL (@ID   = %DEFLB,
     2239    27884                         @LABEL$ = END_LABEL$);
     2240    28263
     2241    28264               %DB_EXCEPT_LIBRARY_RETURN;
     2242    28648
     2243    28649    2    END CREATE_SHADOW_SWAP_SUB;
     2244    28650         %EJECT;
PL6.E3A0      #004=Z8ET$CREATE_SUBROUTINES File=Z8ET.:Z8A6TSI                    SAT 08/09/97 12:48 Page:216
     2245    28651
     2246    28652         /*============*/
     2247    28653    1      GEN_ADD_CODE: PROC (ADD_LIST$);
     2248    28654         /*============*/
     2249    28655
     2250    28656        /*I*
     2251    28657
     2252    28658             NAME:  GEN_ADD_CODE
     2253    28659
     2254    28660          DESCRIPTION: This routine creates ILL item of the "add" operation
     2255    28661                       for the calling module.
     2256    28662        */
     2257    28663
     2258    28664
     2259    28665    2   DCL ADD_LIST$      PTR;
     2260    28666    2   DCL BIN_OP$        PTR;
     2261    28667        %DCL_AUTO_LX_ITEM (@NAME = ETT_ITEM);
     2262    28671
     2263    28672
     2264    28673
     2265    28674    2          BIN_OP$ = ADD_LIST$;
     2266    28675
     2267    28676    3          DO WHILE (BIN_OP$ ~= ADDR(NIL));
     2268    28677
     2269    28678    3              CALL Z8E5$MATH_PACK (BIN_OP$,
     2270    28679    3                                   ADDR(ETT_ITEM));
     2271    28680
     2272    28681    3              CALL Z8E7$MOVE (BIN_OP$ -> BINARY_OP.LOP$,
     2273    28682    3                              ADDR(ETT_ITEM));
     2274    28683
     2275    28684    3              BIN_OP$ = BIN_OP$ -> BINARY_OP.LINK;
     2276    28685
     2277    28686    3          END; /* WHILE */
     2278    28687
     2279    28688    2    END GEN_ADD_CODE;
     2280    28689         %EJECT;
PL6.E3A0      #004=Z8ET$CREATE_SUBROUTINES File=Z8ET.:Z8A6TSI                    SAT 08/09/97 12:48 Page:217
     2281    28690
     2282    28691         /*=============*/
     2283    28692    1      GEN_CLEAR_SUB: PROC (GROUP$$);
     2284    28693         /*=============*/
     2285    28694
     2286    28695        /*I*
     2287    28696
     2288    28697             NAME:  GEN_CLEAR_SUB
     2289    28698
     2290    28699          DESCRIPTION: This routine creates sum counter clear subroutine
     2291    28700                       that will executed by the RWCS to clear the sum
     2292    28701                       counter after the control footing is presented.
     2293    28702        */
     2294    28703
     2295    28704
     2296    28705    2   DCL GROUP$$        PTR;
     2297    28706    2   DCL LABEL$         PTR;
     2298    28707    2   DCL SUM$$          PTR;
     2299    28708
     2300    28709
     2301    28710
     2302    28711    2          IF GROUP$$ -> REPORT_01_LTS.CONTROL_LTS$ -> CONTROL_NAME_LTS.START_OFFSET
     2303    28712    2              >= %CTR_TBL_START_OFF THEN
     2304    28713    3            DO;
     2305    28714
     2306    28715                   %SUB_HEAD (OFFSET_V = "GROUP$$ -> REPORT_01_LTS.CONTROL_LTS$ -> CONTROL_N
             28715        AME_LTS.START_OFFSET + %SUM_CLEAR_SUB_OFF",
     2307    28716                              RWCT_PTR = LTS$$ -> REPORT_LTS.RWCT$);
     2308    29866
     2309    29867    3              SUM$$ = GROUP$$;
     2310    29868
     2311    29869    4              DO WHILE (SUM$$ ~= ADDR(NIL));
     2312    29870
     2313    29871    4                IF SUM$$ -> REPORT_ELEM_LTS.ID = %REPORT_ELEM_LTS AND
     2314    29872    4                   SUM$$ -> REPORT_ELEM_LTS.B.SUM_PRESENTED THEN
     2315    29873    4                  IF NOT SUM$$ -> REPORT_ELEM_LTS.SUM_LTS$ -> SUM_LTS.B.RESETED THEN
     2316    29874    5                    DO;
PL6.E3A0      #004=Z8ET$CREATE_SUBROUTINES File=Z8ET.:Z8A6TSI                    SAT 08/09/97 12:48 Page:218
     2317    29875
     2318    29876                           %INIT_LX_ETT_ITEM (@POINTER = "ADDR(RECV_FIELD)",
     2319    29877                                              @TYPE    = %TYD,
     2320    29878                                @ETT$ =
             29878                                  "SUM$$ -> REPORT_ELEM_LTS.SUM_LTS$ -> SUM_LTS.SUM_ST_ILL$"
             29878                                    );
     2321    29900
     2322    29901    5                      CALL Z8E7$MOVE (ADDR(RECV_FIELD),
     2323    29902    5                                      ADDR(ZERO));
     2324    29903    5                    END;
     2325    29904
     2326    29905    4                  SUM$$ = SUM$$ -> REPORT_ELEM_LTS.NEXT;
     2327    29906
     2328    29907    4              END;  /* WHILE */
     2329    29908
     2330    29909                   %DB_EXCEPT_LIBRARY_RETURN;
     2331    30293    3          END;
     2332    30294
     2333    30295    2    END GEN_CLEAR_SUB;
     2334    30296         %EJECT;
PL6.E3A0      #004=Z8ET$CREATE_SUBROUTINES File=Z8ET.:Z8A6TSI                    SAT 08/09/97 12:48 Page:219
     2335    30297
     2336    30298
     2337    30299        /*==================*/
     2338    30300    1     GEN_CROSS_ROLL_SUB: PROC (GROUP$$);
     2339    30301        /*==================*/
     2340    30302
     2341    30303        /*I*
     2342    30304
     2343    30305             NAME:  GEN_CROSS_ROLL_SUB
     2344    30306
     2345    30307          DESCRIPTION: This routine creates cross footing/rolling forward
     2346    30308                       subroutine that will executed by the RWCS to sum up
     2347    30309                       the sum counter to another sum counter.
     2348    30310        */
     2349    30311
     2350    30312    2   DCL GROUP$$        PTR;
     2351    30313    2   DCL LABEL$         PTR;
     2352    30314
     2353    30315
     2354    30316
     2355    30317    2          IF GROUP$$ -> REPORT_01_LTS.CONTROL_LTS$ -> CONTROL_NAME_LTS.START_OFFSET
     2356    30318    2              >= %CTR_TBL_START_OFF THEN
     2357    30319    3            DO;
     2358    30320
     2359    30321                   %SUB_HEAD (OFFSET_V = "GROUP$$ -> REPORT_01_LTS.CONTROL_LTS$ -> CONTROL_N
             30321        AME_LTS.START_OFFSET + %CROSS_ROLL_SUB_OFF",
     2360    30322                              RWCT_PTR = LTS$$ -> REPORT_LTS.RWCT$);
     2361    31472    3              CALL GEN_ADD_CODE (GROUP$$ -> REPORT_01_LTS.CONTROL_LTS$ ->
     2362    31473    3                                 CONTROL_NAME_LTS.SUM_SUBTOTAL$);
     2363    31474
     2364    31475                   %DB_EXCEPT_LIBRARY_RETURN;
     2365    31859
     2366    31860    3            END;
     2367    31861
     2368    31862    2    END GEN_CROSS_ROLL_SUB;
     2369    31863         %EJECT;
PL6.E3A0      #004=Z8ET$CREATE_SUBROUTINES File=Z8ET.:Z8A6TSI                    SAT 08/09/97 12:48 Page:220
     2370    31864
     2371    31865
     2372    31866        /*=============*/
     2373    31867    1     GEN_RESET_SUB: PROC (CONTROL_LTS$);
     2374    31868        /*=============*/
     2375    31869
     2376    31870        /*I*
     2377    31871
     2378    31872             NAME:  GEN_RESET_SUB
     2379    31873
     2380    31874          DESCRIPTION: This routine creates sum counter resetting
     2381    31875                       subroutine that will executed by the RWCS to clear
     2382    31876                       the sum counter when the control break occurs.
     2383    31877        */
     2384    31878
     2385    31879
     2386    31880    2   DCL CONTROL_LTS$   PTR;
     2387    31881    2   DCL LABEL$         PTR;
     2388    31882    2   DCL LX_ETT$        PTR;
     2389    31883
     2390    31884
     2391    31885
     2392    31886    2          IF CONTROL_LTS$ = ADDR(NIL) OR
     2393    31887    2             CONTROL_LTS$ -> CONTROL_NAME_LTS.SUM_RESET$ = ADDR(NIL) THEN
     2394    31888    2              RETURN;
     2395    31889
     2396    31890
     2397    31891    2          IF CONTROL_LTS$ -> CONTROL_NAME_LTS.START_OFFSET
     2398    31892    2              >= %CTR_TBL_START_OFF THEN
     2399    31893    3            DO;
     2400    31894
     2401    31895                   %SUB_HEAD (OFFSET_V =
             31895                       "CONTROL_LTS$ -> CONTROL_NAME_LTS.START_OFFSET + %RESET_SUB_OFF",
     2402    31896                              RWCT_PTR = LTS$$ -> REPORT_LTS.RWCT$);
     2403    33046    3              LX_ETT$ = CONTROL_LTS$ -> CONTROL_NAME_LTS.SUM_RESET$;
     2404    33047
     2405    33048    4              DO WHILE (LX_ETT$ ~= ADDR(NIL));
PL6.E3A0      #004=Z8ET$CREATE_SUBROUTINES File=Z8ET.:Z8A6TSI                    SAT 08/09/97 12:48 Page:221
     2406    33049
     2407    33050    4                CALL Z8E7$MOVE (LX_ETT$, ADDR(ZERO));
     2408    33051
     2409    33052    4                LX_ETT$ = LX_ETT$ -> LX_ETT_ITEM.LINK;
     2410    33053
     2411    33054    4              END;
     2412    33055
     2413    33056                   %DB_EXCEPT_LIBRARY_RETURN;
     2414    33440
     2415    33441    3            END;
     2416    33442
     2417    33443    2          CALL Z8ED$DISPOSE_ABSSYN_TREE (CONTROL_LTS$ -> CONTROL_NAME_LTS.SUM_RESET$);
     2418    33444
     2419    33445    2    END GEN_RESET_SUB;
     2420    33446         %EJECT;
PL6.E3A0      #004=Z8ET$CREATE_SUBROUTINES File=Z8ET.:Z8A6TSI                    SAT 08/09/97 12:48 Page:222
     2421    33447
     2422    33448         /*============*/
     2423    33449    1      GEN_SUM_SUBS: PROC (GROUP$$);
     2424    33450         /*============*/
     2425    33451
     2426    33452        /*I*
     2427    33453
     2428    33454             NAME:  GEN_SUM_SUBS
     2429    33455
     2430    33456          DESCRIPTION: This routine calls  to generate cross footing
     2431    33457                       and sum counter clear subroutines.
     2432    33458        */
     2433    33459
     2434    33460
     2435    33461    2   DCL GROUP$$         PTR;
     2436    33462
     2437    33463
     2438    33464
     2439    33465    2          IF GROUP$$ -> REPORT_01_LTS.CONTROL_LTS$ ->
     2440    33466    2             CONTROL_NAME_LTS.SUM_SUBTOTAL$ ~= ADDR(NIL) THEN
     2441    33467    3            DO;
     2442    33468
     2443    33469    3              CALL GEN_CROSS_ROLL_SUB (GROUP$$);
     2444    33470
     2445    33471    3              CALL Z8ED$DISPOSE_ABSSYN_TREE (GROUP$$ -> REPORT_01_LTS.CONTROL_LTS$ ->
     2446    33472    3                                             CONTROL_NAME_LTS.SUM_SUBTOTAL$);
     2447    33473
     2448    33474    3            END;
     2449    33475
     2450    33476    2          CALL GEN_CLEAR_SUB (GROUP$$);
     2451    33477
     2452    33478    2    END GEN_SUM_SUBS;
     2453    33479         %EJECT;
PL6.E3A0      #004=Z8ET$CREATE_SUBROUTINES File=Z8ET.:Z8A6TSI                    SAT 08/09/97 12:48 Page:223
     2454    33480
     2455    33481         /*===============*/
     2456    33482    1      GEN_SPECIAL_SUB: PROC (CURRENT$);
     2457    33483         /*===============*/
     2458    33484
     2459    33485        /*I*
     2460    33486
     2461    33487             NAME:  GEN_SPECIAL_SUB
     2462    33488
     2463    33489          DESCRIPTION: This routine creates special subtotalling subroutine
     2464    33490                       that will executed by the RWCS to sum up the sum
     2465    33491                       counter when the special detail group presented.
     2466    33492        */
     2467    33493
     2468    33494
     2469    33495    2   DCL CURRENT$       PTR;
     2470    33496    2   DCL LABEL$         PTR;
     2471    33497
     2472    33498
     2473    33499
     2474    33500    2          IF CURRENT$ -> REPORT_01_LTS.SPECIAL_SUBTOTAL$ ~= ADDR(NIL) THEN
     2475    33501    3            DO;
     2476    33502
     2477    33503                   %SUB_HEAD (OFFSET_V = %SPECIAL_SUBTOTAL_SUB_OFF,
     2478    33504                              RWCT_PTR = CURRENT$ -> REPORT_01_LTS.RWCT$);
     2479    34654
     2480    34655    3              CALL GEN_ADD_CODE (CURRENT$ -> REPORT_01_LTS.SPECIAL_SUBTOTAL$);
     2481    34656
     2482    34657    3              CALL Z8ED$DISPOSE_ABSSYN_TREE (CURRENT$ -> REPORT_01_LTS.
             34657                       SPECIAL_SUBTOTAL$);
     2483    34658
     2484    34659                   %DB_EXCEPT_LIBRARY_RETURN;
     2485    35043
     2486    35044    3            END;
     2487    35045
     2488    35046    2    END GEN_SPECIAL_SUB;
     2489    35047         %EJECT;
PL6.E3A0      #004=Z8ET$CREATE_SUBROUTINES File=Z8ET.:Z8A6TSI                    SAT 08/09/97 12:48 Page:224
     2490    35048
     2491    35049         /*===============*/
     2492    35050    1      GEN_GENERAL_SUB: PROC;
     2493    35051         /*===============*/
     2494    35052
     2495    35053        /*I*
     2496    35054
     2497    35055             NAME:  GEN_GENERAL_SUB
     2498    35056
     2499    35057          DESCRIPTION: This routine creates general subtotalling subroutine
     2500    35058                       that will executed by the RWCS to sum up the sum
     2501    35059                       counter when any detail group presented.
     2502    35060        */
     2503    35061
     2504    35062
     2505    35063    2   DCL LABEL$     PTR;
     2506    35064
     2507    35065
     2508    35066
     2509    35067    2      IF LTS$$ -> REPORT_LTS.GENERAL_SUBTOTAL$ ~= ADDR(NIL) THEN
     2510    35068    3        DO;
     2511    35069
     2512    35070               %SUB_HEAD (OFFSET_V = %GEN_SUBTOTAL_OFF,
     2513    35071                          RWCT_PTR = LTS$$ -> REPORT_LTS.RWCT$);
     2514    36221
     2515    36222    3          CALL GEN_ADD_CODE (LTS$$ -> REPORT_LTS.GENERAL_SUBTOTAL$);
     2516    36223
     2517    36224    3          CALL Z8ED$DISPOSE_ABSSYN_TREE (LTS$$ -> REPORT_LTS.GENERAL_SUBTOTAL$);
     2518    36225
     2519    36226               %DB_EXCEPT_LIBRARY_RETURN;
     2520    36610
     2521    36611    3        END;
     2522    36612
     2523    36613    2    END GEN_GENERAL_SUB;
     2524    36614         %EJECT;
PL6.E3A0      #004=Z8ET$CREATE_SUBROUTINES File=Z8ET.:Z8A6TSI                    SAT 08/09/97 12:48 Page:225
     2525    36615
     2526    36616               /* Main routine */
     2527    36617
     2528    36618    1          MKCN.CON = 1;
     2529    36619
     2530    36620    1          CALL Z8AC$MAKE_CONST (CONST_ETT$);
     2531    36621
     2532    36622               %INIT_LX_ETT_ITEM (@POINTER = "ADDR(ONE_FIELD)",
     2533    36623                                  @TYPE    = %TYI,
     2534    36624                                  @ETT$    = CONST_ETT$);
     2535    36646
     2536    36647               %GET_LTS (@ID       = %FILE_LTS,
     2537    36648                         @ST$      = LTS$$ -> REPORT_LTS.FILE$,
     2538    36649                         @RETURN$  = FILE_LTS$ );
     2539    36692
     2540    36693
     2541    36694               %GET_ADSC_LEN (ST$  = LTS$$ -> REPORT_LTS.RWCT$,
     2542    36695                              RTN  = RWCT_LEN);
     2543    36706
     2544    36707    1          LAST_WORD_OFFSET = (RWCT_LEN - 20) / 4;
     2545    36708
     2546    36709    1          MKCN.CON = LTS$$ -> REPORT_LTS.B.CODE_NUMBER;
     2547    36710    1          CALL Z8AC$MAKE_CONST (CONST_ETT$);
     2548    36711
     2549    36712               %NEW_ILL (@ID     = %PREOFF,
     2550    36713                         @OFFSET = LAST_WORD_OFFSET,
     2551    36714                         @LOP    = LTS$$ -> REPORT_LTS.RWCT$,
     2552    36715                         @ROP    = CONST_ETT$ -> ETT.LOP,
     2553    36716                         @N      = 1);
     2554    37095
     2555    37096               %NEW_ILL (@ID     = %PTR_SET,
     2556    37097                         @OFFSET = "LAST_WORD_OFFSET + 1",
     2557    37098                         @LOP    = LTS$$ -> REPORT_LTS.RWCT$,
     2558    37099                         @ROP    = FILE_LTS$ -> FILE_LTS.FAB$);
     2559    37478    1          CALL Z8AF$NEW_BASE (LTS$$ -> REPORT_LTS.BUFFER_ST$,
     2560    37479    1                              ADDR(NIL),
     2561    37480    1                              BUFFER_ETT$);
PL6.E3A0      #004=Z8ET$CREATE_SUBROUTINES File=Z8ET.:Z8A6TSI                    SAT 08/09/97 12:48 Page:226
     2562    37481
     2563    37482    1          IF LTS$$ -> REPORT_LTS.B.CODE_ON THEN
     2564    37483    2            DO;
     2565    37484    2              MIN_REC_LEN = 2;    /*#32312#*/
     2566    37485    2              FILE_LTS$ ->FILE_LTS.RECORD_CONTAINS.INT_1 = 2; /*#32312#*/
     2567    37486    2              REPORT_CODE_NO = LTS$$ -> REPORT_LTS.B.CODE_NUMBER;
     2568    37487    2              CALL Z8AC$MAKE_TYA_CONST (LTS$$ -> REPORT_LTS.CODE,
     2569    37488    2                                        2,
     2570    37489    2                                        0,
     2571    37490    2                                        CODE_ETT$);
     2572    37491    2            END;
     2573    37492    1          ELSE
     2574    37493    2            DO;
     2575    37494    2              MIN_REC_LEN = 1;   /*#32312#*/
     2576    37495    2              FILE_LTS$ ->FILE_LTS.RECORD_CONTAINS.INT_1 = 1; /*#32312#*/
     2577    37496    2              REPORT_CODE_NO = %DEFAULT_REPORT_CODE;
     2578    37497    2              CALL Z8AC$MAKE_TYA_CONST ('  ',
     2579    37498    2                                        2,
     2580    37499    2                                        0,
     2581    37500    2                                        CODE_ETT$);
     2582    37501    2            END;
     2583    37502
     2584    37503    1          CALL Z8AF$NEW_BASE (LTS$$ -> REPORT_LTS.LINE_COUNTER$,
     2585    37504    1                              ADDR(NIL),
     2586    37505    1                              LINE_COUNTER_ETT$);
     2587    37506
     2588    37507    1          CALL Z8AF$NEW_BASE (LTS$$ -> REPORT_LTS.PAGE_COUNTER$,
     2589    37508    1                              ADDR(NIL),
     2590    37509    1                              PAGE_COUNTER_ETT$);
     2591    37510
     2592    37511    1          IF LTS$$ -> REPORT_LTS.B.CODE_ON THEN
     2593    37512    2            DO;
     2594    37513
     2595    37514    2              SA_ADJ = 1;
     2596    37515    2            END;
     2597    37516    1          ELSE
     2598    37517    2            DO;
PL6.E3A0      #004=Z8ET$CREATE_SUBROUTINES File=Z8ET.:Z8A6TSI                    SAT 08/09/97 12:48 Page:227
     2599    37518    2              SA_ADJ = -1;
     2600    37519    2            END;
     2601    37520
     2602    37521    1          CALL Z8AF$NEW_BASE (LTS$$ -> REPORT_LTS.AFTER_ADVANCE$,
     2603    37522    1                              ADDR(NIL),
     2604    37523    1                              AFTER_AREA_ETT$);
     2605    37524
     2606    37525               %INIT_LX_ETT_ITEM (@POINTER = "ADDR(AFTER_FIELD)",
     2607    37526                                  @TYPE    = %TYI,
     2608    37527                                  @ETT$    = AFTER_AREA_ETT$);
     2609    37549
     2610    37550               %INIT_LX_ETT_ITEM (@POINTER = "ADDR(LINE_COUNTER_FIELD)",
     2611    37551                                  @TYPE    = %TYI,
     2612    37552                                  @ETT$    = LINE_COUNTER_ETT$);
     2613    37574
     2614    37575               %INIT_LX_ETT_ITEM (@POINTER = "ADDR(ZERO)",
     2615    37576                                  @TYPE    = %TYI,
     2616    37577                                  @ETT$    = COMCOM.VALUE_0);
     2617    37599
     2618    37600
     2619    37601
     2620    37602    1          CALL CREATE_TOP_PAGE_SUB;
     2621    37603
     2622    37604    1          CALL BUILD_FORMAT_SUB;
     2623    37605
     2624    37606    1          IF LTS$$ -> REPORT_LTS.CONTROL$ ~= ADDR(NIL) THEN
     2625    37607    2            DO;
     2626    37608
     2627    37609    2              CALL Z8AF$NEW_BASE (LTS$$ -> REPORT_LTS.CTR_LVL_COUNTER$,
     2628    37610    2                                  ADDR(NIL),
     2629    37611    2                                  CTR_LVL_ETT$);
     2630    37612
     2631    37613                   %INIT_LX_ETT_ITEM (@POINTER = "ADDR(CTR_LVL_FIELD)",
     2632    37614                                      @TYPE    = %TYI,
     2633    37615                                      @ETT$    = CTR_LVL_ETT$);
     2634    37637
     2635    37638    2              CALL STORE_EDITED (LTS$$ -> REPORT_LTS.CONTROL$);
PL6.E3A0      #004=Z8ET$CREATE_SUBROUTINES File=Z8ET.:Z8A6TSI                    SAT 08/09/97 12:48 Page:228
     2636    37639
     2637    37640    2              CALL BUILD_CTR_FIELDS (LTS$$ -> REPORT_LTS.CONTROL$);
     2638    37641
     2639    37642    2              CALL CREATE_SHADOW_INIT_SUB (LTS$$ -> REPORT_LTS.CONTROL$);
     2640    37643
     2641    37644    2              CALL CREATE_CTR_DETECT_SUB (LTS$$ -> REPORT_LTS.CONTROL$);
     2642    37645
     2643    37646    2              CALL CREATE_SHADOW_SWAP_SUB (LTS$$ -> REPORT_LTS.CONTROL$);
     2644    37647
     2645    37648    2              CALL DISPOSE_CTR_FIELDS (LTS$$ -> REPORT_LTS.CONTROL$);
     2646    37649
     2647    37650    2              CALL RESTORE_EDITED (LTS$$ -> REPORT_LTS.CONTROL$);
     2648    37651
     2649    37652    2            END;
     2650    37653
     2651    37654
     2652    37655    1          CURRENT$ = LTS$$ -> REPORT_LTS.DETAIL$;
     2653    37656
     2654    37657    2          DO WHILE (CURRENT$ ~= ADDR(NIL));
     2655    37658
     2656    37659    2            CALL GEN_SPECIAL_SUB (CURRENT$);
     2657    37660
     2658    37661    2            CURRENT$ = CURRENT$ -> REPORT_01_LTS.LINK;
     2659    37662
     2660    37663    2          END; /* WHILE */
     2661    37664
     2662    37665    1          CURRENT$ = LTS$$ -> REPORT_LTS.CONTROL_FOOTING_FINAL$;
     2663    37666
     2664    37667    1        IF CURRENT$ ~= ADDR(NIL) THEN
     2665    37668    2          DO;
     2666    37669    3            DO WHILE (CURRENT$ ~= ADDR(NIL));
     2667    37670
     2668    37671    3              CALL GEN_SUM_SUBS (CURRENT$);
     2669    37672
     2670    37673    3              CURRENT$ = CURRENT$ -> REPORT_01_LTS.LINK;
     2671    37674
     2672    37675    3            END; /* WHILE */
PL6.E3A0      #004=Z8ET$CREATE_SUBROUTINES File=Z8ET.:Z8A6TSI                    SAT 08/09/97 12:48 Page:229
     2673    37676    2          END;
     2674    37677    1        ELSE
     2675    37678    2          DO;
     2676    37679                 %NEW_REPORT_01_LTS (@POINTER = PHONY_LTS$,
     2677    37680                                     @CONTROL_LTS$ = LTS$$ -> REPORT_LTS.CONTROL_FINAL$);
     2678    37794
     2679    37795    2            CALL GEN_SUM_SUBS (PHONY_LTS$);
     2680    37796    2          END;
     2681    37797
     2682    37798
     2683    37799    1          CURRENT$ = LTS$$ -> REPORT_LTS.CONTROL_FOOTING$;
     2684    37800
     2685    37801    2          DO WHILE (CURRENT$ ~= ADDR(NIL));
     2686    37802
     2687    37803    2            CALL GEN_SUM_SUBS (CURRENT$);
     2688    37804
     2689    37805    2            CURRENT$ = CURRENT$ -> REPORT_01_LTS.LINK;
     2690    37806
     2691    37807    2          END; /* WHILE */
     2692    37808
     2693    37809    1          CALL GEN_GENERAL_SUB;
     2694    37810
     2695    37811    1          IF LTS$$ -> REPORT_LTS.CONTROL$ ~= ADDR(NIL) THEN
     2696    37812    2            DO;
     2697    37813    3              DO I = 1 TO LTS$$ -> REPORT_LTS.CONTROL$ -> LTS_PTR_ARRAY.N - 3;
     2698    37814
     2699    37815    3                CALL GEN_RESET_SUB (LTS$$ -> REPORT_LTS.CONTROL$ -> LTS_PTR_ARRAY.P$(I)
             37815                         );
     2700    37816
     2701    37817    3              END;
     2702    37818    2            END;
     2703    37819
     2704    37820    1          CALL GEN_RESET_SUB (LTS$$ -> REPORT_LTS.CONTROL_FINAL$);
     2705    37821
     2706    37822    1    END Z8ET$CREATE_SUBROUTINES;
     2707    37823         %EOD;

PL6.E3A0      #004=Z8ET$CREATE_SUBROUTINES File=Z8ET.:Z8A6TSI                    SAT 08/09/97 12:48 Page:230
--  Include file information  --

   Z9A_SUPP_MAC.:Z8A6TOU  is referenced.
   X9A_IO.:X8A6TOU  is referenced.
   Z8E_ABSSYN.:Z8A6TOU  cannot be made into a system file and is referenced.
   Z8E_HEAP.:Z8A6TOU  cannot be made into a system file and is referenced.
   Z8A_MKCN.:Z8A6TOU  cannot be made into a system file and is referenced.
   Z8A_LTS.:Z8A6TOU  cannot be made into a system file and is referenced.
   Z8A_ILS.:Z8A6TOU  cannot be made into a system file and is referenced.
   Z8A_ILL.:Z8A6TOU  cannot be made into a system file and is referenced.
   Z8A_ETT.:Z8A6TOU  cannot be made into a system file and is referenced.
   Z8A_QLT.:Z8A6TOU  cannot be made into a system file and is referenced.
   Z8A_TYPES.:Z8A6TOU  is referenced.
   Z8A_ST.:Z8A6TOU  cannot be made into a system file and is referenced.
   Z8A_DNT.:Z8A6TOU  cannot be made into a system file and is referenced.
   Z8E_NEW_ILL.:Z8A6TOU  is referenced.
   Z8E_MACROS.:Z8A6TOU  cannot be made into a system file and is referenced.
   Z8E_O1COM.:Z8A6TOU  cannot be made into a system file and is referenced.
   Z8A_LEX_SYMB.:Z8A6TOU  cannot be made into a system file and is referenced.
   Z8E_STACKS.:Z8A6TOU  cannot be made into a system file and is referenced.
   Z8A_COMCOM.:Z8A6TOU  cannot be made into a system file and is referenced.
   X8A_COM_MACS.:X8A6TOU  is referenced.
   Z8A_NAMES.:Z8A6TOU  is referenced.
   Z8A_SUPP_MAC.:Z8A6TOU  is referenced.
   Z8A_DEFC.:Z8A6TOU  cannot be made into a system file and is referenced.
      No diagnostics issued in procedure Z8ET$CREATE_SUBROUTINES.

   Procedure Z8ET$CREATE_SUBROUTINES requires 3976 words for executable code.
   Procedure Z8ET$CREATE_SUBROUTINES requires 182 words of local(AUTO) storage.

PL6.E3A0      #004=Z8ET$CREATE_SUBROUTINES File=Z8ET.:Z8A6TSI                    SAT 08/09/97 12:48 Page:231

 Object Unit name= Z8ET$CREATE_SUBROUTINES                    File name= Z8ET.:Z8A6TOU
 UTS= AUG 09 '97 12:48:40.60 SAT                              Compiler= PL-6/E31         Sev=      00
 SharedLib= :SHARED_SYSTEM                                    Alt SharedLib=


    ****  Control sections  ****

 Sect   Type Bound  Init  Size OctSiz  Section name(segment info)
    0  LblCom even  none     1      1  ITERATION
    1  LblCom even  none    90    132  LEX_SYMBOL
    2  LblCom even  none     1      1  CURRENT_LEX_SYMBOL$
    3  LblCom even  none    90    132  TEMP_LEX_SYMBOL
    4  LblCom even  none    90    132  TEMP_LEX_SYMBOL2
    5  LblCom even  none     1      1  DNT$
    6  LblCom even  none     5      5  DNT_
    7  LblCom even  none     1      1  DNT_BUCKET_NUMBER
    8  LblCom even  none     1      1  DNT_OF_1$
    9  LblCom even  none     1      1  ST$
   10  LblCom even  none     5      5  ST_
   11  LblCom even  none     1      1  QLT$
   12  LblCom even  none     1      1  PREV_01_QLT$
   13  LblCom even  none     5      5  QLT_
   14  LblCom even  none     1      1  ETT$
   15  LblCom even  none     1      1  HEAD_ETT$
   16  LblCom even  none   512   1000  ETT_BUCKETS
   17  LblCom even  none     5      5  ETT_
   18  LblCom even  none     1      1  ILL$
   19  LblCom even  none     5      5  ILL_
   20  LblCom even  none     1      1  ILS$
   21  LblCom even  none     5      5  ILS_
   22  LblCom even  none     1      1  LTS$
   23  LblCom even  none     5      5  LTS_
   24  LblCom even  none     2      2  MKCN
   25  LblCom even  none     1      1  HEAP$
   26  LblCom even  none     8     10  TEMP_LX_NODE
   27  RoData even  UTS      1      1  Z8ET$CREATE_SUBROUTINES
   28   Proc  even  none  3976   7610  Z8ET$CREATE_SUBROUTINES
PL6.E3A0      #004=Z8ET$CREATE_SUBROUTINES File=Z8ET.:Z8A6TSI                    SAT 08/09/97 12:48 Page:232
   29  RoData even  none    61     75  Z8ET$CREATE_SUBROUTINES

    ****  Entry defs  ****

                              Check   Calling
                             calling  sequence
  Sect OctLoc Primary Altret sequence   type   Parms  Name
    28      0   yes            yes      Std        1  Z8ET$CREATE_SUBROUTINES

  ****  Entry refs  ****

         Check        Calling
        calling       sequence
Altret sequence SRef   type   Args  Name
         yes           Std       1 Z8AC$MAKE_CONST
         yes           Std       4 Z8AN$NEW_ILL
         yes           Std       4 Z8AC$MAKE_TYA_CONST
         yes           Std       3 Z8AF$NEW_BASE
         yes           Std       1 Z8AR$RESERVER
         yes           Std       2 Z8AT$CREATE_TEMPORARY
         yes           Std       3 Z9EN$WRITE_PAGE
         yes           Std       2 Z8E7$MOVE
         yes           Std       2 Z8AC$LX_ETT_ITEM_TYI_CONST
         yes           Std       2 Z8E5$MATH_PACK
         yes           Std       5 Z8AN$NEW_ILL1
         yes           Std       7 Z9EN$WRITE_NEXT
         yes           Std       2 Z8EK$BRANCH_TRUE
         yes           Std       2 Z8ED$NEW_HEAP
         yes           Std       1 Z8ED$DISPOSE_ABSSYN_TREE
         yes           Std       2 Z8EX$SET_INDEX
         yes           Std       1 Z8EK$BRANCH
         yes           Std       2 Z8EK$BRANCH_FALSE
         yes           Std       4 Z8AF$FORME
                       nStd      0 X66_AUTO_1
                       nStd      0 X66_ARET
PL6.E3A0      #004=Z8ET$CREATE_SUBROUTINES File=Z8ET.:Z8A6TSI                    SAT 08/09/97 12:48 Page:233

  ****  Data refs  ****

  Flags:  r = read only, s = secondary
Flgs Name                             Flgs Name                             Flgs Name
     COMCOM                                O1COM                                 HIER_STK_PTR
     HIER_STK                              PAGE_FORMAT                           REP_STK_PTR
     REP_STK                          r    ILL_STEP                         r    ILS_STEP_TABLE
r    LTS_STEP

  ****  Segment refs  ****

  Flags:  r = read only, s = secondary
Flgs Name                             Flgs Name                             Flgs Name
     ISSID                                 NULLSID
PL6.E3A0      #004=Z8ET$CREATE_SUBROUTINES File=Z8ET.:Z8A6TSI                    SAT 08/09/97 12:48 Page:234


     1169        1        /*T***********************************************************/
     1170        2        /*T*                                                         */
     1171        3        /*T* Copyright (c) Bull HN Information Systems Inc., 1997    */
     1172        4        /*T*                                                         */
     1173        5        /*T***********************************************************/
     1174        6
     1175        7        /*M*  Z8ET$CREATE_SUBROUTINES---Create 10 run time subroutines */
     1176        8
     1177        9
     1178       10        /*P*
     1179       11               NAME:  Z8ET$CREATE_SUBROUTINES
     1180       12             AUTHOR:  Min Lee.
     1181       13            PURPOSE:  Creates 10 run time subroutines to be executed by
     1182       14                      Report Writer Control System.
     1183       15        */
     1184       16
     1185       17        /*D*
     1186       18               NAME:  Z8ET$CREATE_SUBROUTINES
     1187       19               CALL:  CALL Z8ET$CREATE_SUBROUTINES (LTS$$)
     1188       20              INPUT:  LTS$$ --- Pointed to a REPORT's LTS item.
     1189       21
     1190       22
     1191       23
     1192       24        DESCRIPTION:  These are the 10 run time subroutines generated by these
     1193       25                      modules:
     1194       26                      1. Top of Page subroutine---by CREATE_TOP_PAGE_SUB
     1195       27                      2. Formatting Subroutine ---by CREATE_FORMATTING_SUB
     1196       28                      3. Control Item Initial Subroutine--by CREATE_SHADOW_INIT_SUB
     1197       29                      4. Control Break Identification Sub--by CREATE_CONTROL_DETECT_SUB
     1198       30                      5. Control Item Swapback Subroutine--by CREATE_SHADOW_SWAP_SUB
     1199       31                      6. Sum Counter Clear Subroutine--by GEN_CLEAR_SUB
     1200       32                      7. Sum Counter Resetting Subroutine--by GEN_RESET_SUB
     1201       33                      8. Cross Footing/Rolling forward Sub--by GEN_CROSS_ROLL_SUB
     1202       34                      9. General Subtotaling Subroutine--by GEN_GENERAL_SUB
     1203       35                     10. Special Subtotaling Subroutine--by GEN_SPECIAL_SUB
     1204       36         */
PL6.E3A0      #004=Z8ET$CREATE_SUBROUTINES File=Z8ET.:Z8A6TSI                    SAT 08/09/97 12:48 Page:235
     1205       37         %EJECT;
PL6.E3A0      #004=Z8ET$CREATE_SUBROUTINES File=Z8ET.:Z8A6TSI                    SAT 08/09/97 12:48 Page:236
     1206       38
     1207       39         /*=======================*/
     1208       40           Z8ET$CREATE_SUBROUTINES:  PROC (LTS$$);

     40 28 000000   000000 700200 xent  Z8ET$CREATE* TSX0  ! X66_AUTO_1
        28 000001   000266 000001                    ZERO    182,1
        28 000002   006604 710000 28                 TRA     s:36618

     1209       41         /*=======================*/
     1210       42        %EQU PHASE = 1;
     1211       43        %EQU DEFAULT_REPORT_CODE = 55;  /* report code for display item is 00 */
     1212       44
     1213       45        %INCLUDE Z8A_DEFC;
     1214      113        %INCLUDE Z8A_SUPP_MAC ;
     1215     2513        %INCLUDE Z8A_COMCOM ;
     1216     3163        %INCLUDE Z8E_STACKS ;
     1217     5429        %INCLUDE Z8E_O1COM;
     1218     6190        %INCLUDE Z8E_MACROS;
     1219     6865        %INCLUDE Z8A_DNT ;
     1220     7086        %INCLUDE Z8A_ST ;
     1221    10745        %INCLUDE Z8A_TYPES;
     1222    10919        %INCLUDE Z8A_QLT;
     1223    11025        %INCLUDE Z8A_ETT ;
     1224    11326        %INCLUDE Z8A_ILL ;
     1225    12019        %INCLUDE Z8A_ILS ;
     1226    12128        %INCLUDE Z8A_LTS ;
     1227    14205        %INCLUDE Z8A_MKCN;
     1228    14222        %INCLUDE Z8E_HEAP ;
     1229    14278        %INCLUDE Z8E_ABSSYN;
     1230    14484        %INCLUDE X9A_IO;
     1231    14634        %INCLUDE Z9A_SUPP_MAC;
     1232    14923
     1233    14924
     1234    14925    1   DCL Z8E5$MATH_PACK ENTRY(2) ;
     1235    14926    1   DCL Z8EX$SET_INDEX  ENTRY(2);
     1236    14927    1   DCL Z8EK$BRANCH          ENTRY(1);
     1237    14928    1   DCL Z8EK$BRANCH_TRUE     ENTRY(2);
PL6.E3A0      #004=Z8ET$CREATE_SUBROUTINES File=Z8ET.:Z8A6TSI                    SAT 08/09/97 12:48 Page:237
     1238    14929    1   DCL Z8EK$BRANCH_FALSE    ENTRY(2);
     1239    14930    1   DCL Z8ED$DISPOSE_ABSSYN_TREE ENTRY(1);
     1240    14931    1   DCL Z8AF$FORME       ENTRY(4) ;
     1241    14932    1   DCL Z8AF$NEW_BASE    ENTRY(3);
     1242    14933    1   DCL Z8AC$MAKE_CONST               ENTRY(1);
     1243    14934    1   DCL Z8AC$MAKE_TYA_CONST           ENTRY(4);
     1244    14935    1   DCL Z8AC$LX_ETT_ITEM_TYI_CONST ENTRY(2);
     1245    14936    1   DCL Z8E7$MOVE      ENTRY(2) ;
     1246    14937    1   DCL Z8AT$CREATE_TEMPORARY ENTRY(2) ;
     1247    14938    1   DCL Z9EN$WRITE_NEXT ENTRY(7);
     1248    14939    1   DCL Z9EN$WRITE_PAGE ENTRY(3);
     1249    14940
     1250    14941    1   DCL REPORT_CODE_NO     UBIN WORD;
     1251    14942    1   DCL RWCT_LEN           SBIN WORD;
     1252    14943    1   DCL LAST_WORD_OFFSET   SBIN WORD;
     1253    14944
     1254    14945    1   DCL I                  SBIN WORD;
     1255    14946    1   DCL SA_ADJ             SBIN WORD;
     1256    14947    1   DCL CONST_ETT$         PTR;
     1257    14948    1   DCL LTS$$              PTR;
     1258    14949    1   DCL BUFFER_ETT$        PTR;
     1259    14950    1   DCL PAGE_COUNTER_ETT$  PTR;
     1260    14951    1   DCL LINE_COUNTER_ETT$  PTR;
     1261    14952    1   DCL AFTER_AREA_ETT$    PTR;
     1262    14953    1   DCL SEND_ETT$          PTR;
     1263    14954    1   DCL RECV_ETT$          PTR;
     1264    14955    1   DCL CODE_ETT$          PTR;
     1265    14956    1   DCL IND$$              PTR;
     1266    14957    1   DCL IND_ETT$           PTR;
     1267    14958    1   DCL RECORD_LEN         SBIN WORD;
     1268    14959    1   DCL MIN_REC_LEN        SBIN WORD;
     1269    14960    1   DCL CURRENT$       PTR;
     1270    14961    1   DCL PHONY_LTS$         PTR;
     1271    14962    1   DCL FILE_LTS$          PTR;
     1272    14963    1   DCL VAL_ST$            PTR;
     1273    14964    1   DCL ALL_BIT            BIT (1) ALIGNED;
     1274    14965
PL6.E3A0      #004=Z8ET$CREATE_SUBROUTINES File=Z8ET.:Z8A6TSI                    SAT 08/09/97 12:48 Page:238
     1275    14966
     1276    14967
     1277    14968        %DCL_AUTO_LX_ITEM (@NAME = AFTER_FIELD);
     1278    14972        %DCL_AUTO_LX_ITEM (@NAME = LINE_COUNTER_FIELD);
     1279    14976
     1280    14977    1   DCL DETAIL_GRP$    PTR;
     1281    14978
     1282    14979        %DCL_AUTO_LX_ITEM (@NAME = ETT_ITEM);
     1283    14983        %DCL_AUTO_LX_ITEM (@NAME = OP_NODE);
     1284    14987        %DCL_AUTO_LX_ITEM (@NAME = SEND_FIELD);
     1285    14991        %DCL_AUTO_LX_ITEM (@NAME = RECV_FIELD);
     1286    14995        %DCL_AUTO_LX_ITEM (@NAME = RECORD_LENGTH);
     1287    14999        %DCL_AUTO_LX_ITEM (@NAME = LINE_FIELD);
     1288    15003        %DCL_AUTO_LX_ITEM (@NAME = ZERO);
     1289    15007        %DCL_AUTO_LX_ITEM (@NAME = COMPARE);
     1290    15011        %DCL_AUTO_LX_ITEM (@NAME = IND_FIELD);
     1291    15015        %DCL_AUTO_LX_ITEM (@NAME = ONE_FIELD);
     1292    15019        %DCL_AUTO_LX_ITEM (@NAME = CTR_LVL_FIELD);
     1293    15023    1   DCL CTR_LVL_ETT$           PTR;
     1294    15024
     1295    15025        %EJECT;
PL6.E3A0      #004=Z8ET$CREATE_SUBROUTINES File=Z8ET.:Z8A6TSI                    SAT 08/09/97 12:48 Page:239
     1296    15026         %MACRO SUB_HEAD (OFFSET_V = ,
     1297    15027                          RWCT_PTR = );
     1298    15028           DO;
     1299    15029
     1300    15030               CALL Z8AT$CREATE_TEMPORARY (%PARA, LABEL$);
     1301    15031
     1302    15032               LABEL$ -> LABEL.B.REFERENCED = TRUE;
     1303    15033               LABEL$ -> LABEL.B.USE_PROC = TRUE;
     1304    15034
     1305    15035               %NEW_ILL (@ID       = %DEFLB,
     1306    15036                         @LABEL$   = LABEL$);
     1307    15037
     1308    15038               %NEW_ILL (@ID       = %P_A_PRESET,
     1309    15039                         @OFFSET   = OFFSET_V,
     1310    15040                         @TO       = RWCT_PTR,
     1311    15041                         @LOP      = LABEL$,
     1312    15042                         @ROPCON   = 0);
     1313    15043
     1314    15044               %NEW_ILL (@ID       = %USE_ENTRY,
     1315    15045                         @CODE     = %DB_EXCEPT_PROC);
     1316    15046
     1317    15047           END;
     1318    15048         %MEND;
     1319    15049         %EJECT;
PL6.E3A0      #004=Z8ET$CREATE_SUBROUTINES File=Z8ET.:Z8A6TSI                    SAT 08/09/97 12:48 Page:240
     1320    15050
     1321    15051
     1322    15052
     1323    15053         /*===================*/
     1324    15054    1      CREATE_TOP_PAGE_SUB: PROC;

  15054 28 000003   200206 741300       CREATE_TOP_* STX1  ! CTR_LVL_ETT$+2,,AUTO

     1325    15055         /*===================*/
     1326    15056
     1327    15057        /*I*
     1328    15058
     1329    15059             NAME:  CREATE_TOP_PAGE_SUB
     1330    15060
     1331    15061          DESCRIPTION: This routine creates the top of page subroutine
     1332    15062                       that will initiate the line counter to 0, add 1 to
     1333    15063                       the page counter, clear the report line buffer,
     1334    15064                       advance to the top of the next page.
     1335    15065        */
     1336    15066
     1337    15067
     1338    15068    2   DCL LABEL$         PTR;
     1339    15069    2   DCL SEND$          PTR;
     1340    15070    2   DCL RECV$          PTR;
     1341    15071
     1342    15072
     1343    15073
     1344    15074
     1345    15075               %SUB_HEAD (OFFSET_V = %TOP_OF_PAGE_OFF,
     1346    15076                          RWCT_PTR = LTS$$ -> REPORT_LTS.RWCT$);

  15078 28 000004   200207 630500                    EPPR0   LABEL$,,AUTO
        28 000005   200253 450500                    STP0    CETT$$+2,,AUTO
        28 000006   000002 236000 29                 LDQ     2
        28 000007   200252 756100                    STQ     CETT$$+1,,AUTO
        28 000010   200252 630500                    EPPR0   CETT$$+1,,AUTO
        28 000011   000000 631400 29                 EPPR1   0
PL6.E3A0      #004=Z8ET$CREATE_SUBROUTINES File=Z8ET.:Z8A6TSI                    SAT 08/09/97 12:48 Page:241
        28 000012   000000 701000 xent               TSX1    Z8AT$CREATE_TEMPORARY
        28 000013   000000 011000                    NOP     0

  15079 28 000014   200207 470500                    LDP0    LABEL$,,AUTO
        28 000015   400000 236003                    LDQ     -131072,DU
        28 000016   000003 256100                    ORSQ    3,,PR0

  15080 28 000017   200207 470500                    LDP0    LABEL$,,AUTO
        28 000020   001000 236007                    LDQ     512,DL
        28 000021   000003 256100                    ORSQ    3,,PR0

  15414 28 000022   000006 236000 29                 LDQ     6
        28 000023   200252 756100                    STQ     CETT$$+1,,AUTO
        28 000024   200252 630500                    EPPR0   CETT$$+1,,AUTO
        28 000025   200257 450500                    STP0    CETT$$+6,,AUTO
        28 000026   000007 236000 29                 LDQ     7
        28 000027   200256 756100                    STQ     CETT$$+5,,AUTO
        28 000030   000010 237000 29                 LDAQ    8
        28 000031   200254 757100                    STAQ    CETT$$+3,,AUTO
        28 000032   200254 630500                    EPPR0   CETT$$+3,,AUTO
        28 000033   000003 631400 29                 EPPR1   3
        28 000034   000000 701000 xent               TSX1    Z8AN$NEW_ILL
        28 000035   000000 011000                    NOP     0

  15415 28 000036   200207 236100                    LDQ     LABEL$,,AUTO
        28 000037   000000 470400 18                 LDP0    ILL$
        28 000040   000001 756100                    STQ     1,,PR0

  15722 28 000041   000006 236000 29                 LDQ     6
        28 000042   200252 756100                    STQ     CETT$$+1,,AUTO
        28 000043   200252 631500                    EPPR1   CETT$$+1,,AUTO
        28 000044   200257 451500                    STP1    CETT$$+6,,AUTO
        28 000045   000007 236000 29                 LDQ     7
        28 000046   200256 756100                    STQ     CETT$$+5,,AUTO
        28 000047   000014 237000 29                 LDAQ    12
        28 000050   200254 757100                    STAQ    CETT$$+3,,AUTO
        28 000051   200254 630500                    EPPR0   CETT$$+3,,AUTO
PL6.E3A0      #004=Z8ET$CREATE_SUBROUTINES File=Z8ET.:Z8A6TSI                    SAT 08/09/97 12:48 Page:242
        28 000052   000003 631400 29                 EPPR1   3
        28 000053   000000 701000 xent               TSX1    Z8AN$NEW_ILL
        28 000054   000000 011000                    NOP     0

  15726 28 000055   000014 220003                    LDX0    12,DU
        28 000056   000000 470400 18                 LDP0    ILL$
        28 000057   000000 440100                    SXL0    0,,PR0

  15728 28 000060   000000 470400 18                 LDP0    ILL$
        28 000061   000002 450100                    STZ     2,,PR0

  15729 28 000062   200207 236100                    LDQ     LABEL$,,AUTO
        28 000063   000001 756100                    STQ     1,,PR0

  15730 28 000064   200003 471500                    LDP1    @LTS$$,,AUTO
        28 000065   100000 473500                    LDP3    0,,PR1
        28 000066   300022 236100                    LDQ     18,,PR3
        28 000067   000003 756100                    STQ     3,,PR0

  16052 28 000070   000006 236000 29                 LDQ     6
        28 000071   200252 756100                    STQ     CETT$$+1,,AUTO
        28 000072   200252 633500                    EPPR3   CETT$$+1,,AUTO
        28 000073   200257 453500                    STP3    CETT$$+6,,AUTO
        28 000074   000007 236000 29                 LDQ     7
        28 000075   200256 756100                    STQ     CETT$$+5,,AUTO
        28 000076   000020 237000 29                 LDAQ    16
        28 000077   200254 757100                    STAQ    CETT$$+3,,AUTO
        28 000100   200254 630500                    EPPR0   CETT$$+3,,AUTO
        28 000101   000003 631400 29                 EPPR1   3
        28 000102   000000 701000 xent               TSX1    Z8AN$NEW_ILL
        28 000103   000000 011000                    NOP     0

  16053 28 000104   000001 220003                    LDX0    1,DU
        28 000105   000000 470400 18                 LDP0    ILL$
        28 000106   000000 440100                    SXL0    0,,PR0

  16057 28 000107   000057 470400 xsym               LDP0    O1COM+47
PL6.E3A0      #004=Z8ET$CREATE_SUBROUTINES File=Z8ET.:Z8A6TSI                    SAT 08/09/97 12:48 Page:243
        28 000110   000006 236100                    LDQ     6,,PR0
        28 000111   000000 471400 18                 LDP1    ILL$
        28 000112   100001 756100                    STQ     1,,PR1

     1347    16226
     1348    16227               /* MOVE 0 TO LINE COUNTER */
     1349    16228
     1350    16229               %INIT_LX_ETT_ITEM (@POINTER = "ADDR(SEND_FIELD)",
     1351    16230                                  @TYPE    = %TYI,
     1352    16231                                  @ETT$    = COMCOM.VALUE_0);

  16233 28 000113   000004 221003                    LDX1    4,DU
        28 000114   200074 741100                    STX1    SEND_FIELD,,AUTO

  16234 28 000115   000000 222003                    LDX2    0,DU
        28 000116   200074 442100                    SXL2    SEND_FIELD,,AUTO

  16235 28 000117   000001 235007                    LDA     1,DL
        28 000120   200100 755100                    STA     SEND_FIELD+4,,AUTO

  16236 28 000121   000017 236000 29                 LDQ     15
        28 000122   200103 756100                    STQ     SEND_FIELD+7,,AUTO

  16237 28 000123   000124 236000 xsym               LDQ     COMCOM+84
        28 000124   200075 756100                    STQ     SEND_FIELD+1,,AUTO

  16238 28 000125   000017 236000 29                 LDQ     15
        28 000126   200076 756100                    STQ     SEND_FIELD+2,,AUTO

  16240 28 000127   000133 235000 xsym               LDA     COMCOM+91
        28 000130   200101 755100                    STA     SEND_FIELD+5,,AUTO

  16241 28 000131   000134 235000 xsym               LDA     COMCOM+92
        28 000132   200102 755100                    STA     SEND_FIELD+6,,AUTO

     1353    16253
     1354    16254               %INIT_LX_ETT_ITEM (@POINTER = "ADDR(RECV_FIELD)",
PL6.E3A0      #004=Z8ET$CREATE_SUBROUTINES File=Z8ET.:Z8A6TSI                    SAT 08/09/97 12:48 Page:244
     1355    16255                                  @TYPE    = %TYI,
     1356    16256                                  @ETT$    = LINE_COUNTER_ETT$);

  16258 28 000133   200104 741100                    STX1    RECV_FIELD,,AUTO

  16259 28 000134   200104 442100                    SXL2    RECV_FIELD,,AUTO

  16260 28 000135   000001 235007                    LDA     1,DL
        28 000136   200110 755100                    STA     RECV_FIELD+4,,AUTO

  16261 28 000137   200113 756100                    STQ     RECV_FIELD+7,,AUTO

  16262 28 000140   200014 236100                    LDQ     LINE_COUNTER_ETT$,,AUTO
        28 000141   200105 756100                    STQ     RECV_FIELD+1,,AUTO

  16263 28 000142   000017 236000 29                 LDQ     15
        28 000143   200106 756100                    STQ     RECV_FIELD+2,,AUTO

  16265 28 000144   000133 235000 xsym               LDA     COMCOM+91
        28 000145   200111 755100                    STA     RECV_FIELD+5,,AUTO

  16266 28 000146   000134 235000 xsym               LDA     COMCOM+92
        28 000147   200112 755100                    STA     RECV_FIELD+6,,AUTO

     1357    16278
     1358    16279    2          CALL Z8E7$MOVE (ADDR(RECV_FIELD), ADDR(SEND_FIELD));

  16279 28 000150   200104 630500                    EPPR0   RECV_FIELD,,AUTO
        28 000151   200252 450500                    STP0    CETT$$+1,,AUTO
        28 000152   200074 633500                    EPPR3   SEND_FIELD,,AUTO
        28 000153   200253 453500                    STP3    CETT$$+2,,AUTO
        28 000154   200253 634500                    EPPR4   CETT$$+2,,AUTO
        28 000155   200255 454500                    STP4    CETT$$+4,,AUTO
        28 000156   200252 635500                    EPPR5   CETT$$+1,,AUTO
        28 000157   200254 455500                    STP5    CETT$$+3,,AUTO
        28 000160   200254 630500                    EPPR0   CETT$$+3,,AUTO
        28 000161   000000 631400 29                 EPPR1   0
PL6.E3A0      #004=Z8ET$CREATE_SUBROUTINES File=Z8ET.:Z8A6TSI                    SAT 08/09/97 12:48 Page:245
        28 000162   000000 701000 xent               TSX1    Z8E7$MOVE
        28 000163   000000 011000                    NOP     0

     1359    16280
     1360    16281               /* ADD 1 TO PAGE COUNTER */
     1361    16282
     1362    16283               %INIT_LX_ETT_ITEM (@POINTER = "ADDR(RECV_FIELD)",
     1363    16284                                  @TYPE    = %TYI,
     1364    16285                                  @ETT$    = PAGE_COUNTER_ETT$);

  16287 28 000164   000004 220003                    LDX0    4,DU
        28 000165   200104 740100                    STX0    RECV_FIELD,,AUTO

  16288 28 000166   000000 221003                    LDX1    0,DU
        28 000167   200104 441100                    SXL1    RECV_FIELD,,AUTO

  16289 28 000170   000001 235007                    LDA     1,DL
        28 000171   200110 755100                    STA     RECV_FIELD+4,,AUTO

  16290 28 000172   000017 236000 29                 LDQ     15
        28 000173   200113 756100                    STQ     RECV_FIELD+7,,AUTO

  16291 28 000174   200013 236100                    LDQ     PAGE_COUNTER_ETT$,,AUTO
        28 000175   200105 756100                    STQ     RECV_FIELD+1,,AUTO

  16292 28 000176   000017 236000 29                 LDQ     15
        28 000177   200106 756100                    STQ     RECV_FIELD+2,,AUTO

  16294 28 000200   000133 235000 xsym               LDA     COMCOM+91
        28 000201   200111 755100                    STA     RECV_FIELD+5,,AUTO

  16295 28 000202   000134 235000 xsym               LDA     COMCOM+92
        28 000203   200112 755100                    STA     RECV_FIELD+6,,AUTO

     1365    16307
     1366    16308               %INIT_BINARY_OP (@POINTER   = "ADDR(OP_NODE)",
     1367    16309                                @ROP$      = "ADDR(ONE_FIELD)",
PL6.E3A0      #004=Z8ET$CREATE_SUBROUTINES File=Z8ET.:Z8A6TSI                    SAT 08/09/97 12:48 Page:246
     1368    16310                                @LOP$      = "ADDR(RECV_FIELD)",
     1369    16311                                @OP        = %OP_PLUS);

  16313 28 000204   000005 222003                    LDX2    5,DU
        28 000205   200064 742100                    STX2    OP_NODE,,AUTO

  16314 28 000206   200064 441100                    SXL1    OP_NODE,,AUTO

  16321 28 000207   000133 235000 xsym               LDA     COMCOM+91
        28 000210   200071 755100                    STA     OP_NODE+5,,AUTO

  16322 28 000211   000134 235000 xsym               LDA     COMCOM+92
        28 000212   200072 755100                    STA     OP_NODE+6,,AUTO

  16323 28 000213   200164 630500                    EPPR0   ONE_FIELD,,AUTO
        28 000214   200066 450500                    STP0    OP_NODE+2,,AUTO

  16324 28 000215   200104 631500                    EPPR1   RECV_FIELD,,AUTO
        28 000216   200065 451500                    STP1    OP_NODE+1,,AUTO

  16325 28 000217   000020 235007                    LDA     16,DL
        28 000220   200067 755100                    STA     OP_NODE+3,,AUTO

  16326 28 000221   200073 756100                    STQ     OP_NODE+7,,AUTO

     1370    16329
     1371    16330    2          CALL Z8E5$MATH_PACK (ADDR(OP_NODE),

  16330 28 000222   200064 633500                    EPPR3   OP_NODE,,AUTO
        28 000223   200252 453500                    STP3    CETT$$+1,,AUTO
        28 000224   200054 634500                    EPPR4   ETT_ITEM,,AUTO
        28 000225   200253 454500                    STP4    CETT$$+2,,AUTO
        28 000226   200253 635500                    EPPR5   CETT$$+2,,AUTO
        28 000227   200255 455500                    STP5    CETT$$+4,,AUTO
        28 000230   200252 636500                    EPPR6   CETT$$+1,,AUTO
        28 000231   200254 456500                    STP6    CETT$$+3,,AUTO
        28 000232   200254 630500                    EPPR0   CETT$$+3,,AUTO
PL6.E3A0      #004=Z8ET$CREATE_SUBROUTINES File=Z8ET.:Z8A6TSI                    SAT 08/09/97 12:48 Page:247
        28 000233   000000 631400 29                 EPPR1   0
        28 000234   000000 701000 xent               TSX1    Z8E5$MATH_PACK
        28 000235   000000 011000                    NOP     0

     1372    16331    2                               ADDR(ETT_ITEM));
     1373    16332
     1374    16333    2          CALL Z8E7$MOVE (ADDR(RECV_FIELD),

  16333 28 000236   200104 630500                    EPPR0   RECV_FIELD,,AUTO
        28 000237   200252 450500                    STP0    CETT$$+1,,AUTO
        28 000240   200054 631500                    EPPR1   ETT_ITEM,,AUTO
        28 000241   200253 451500                    STP1    CETT$$+2,,AUTO
        28 000242   200253 633500                    EPPR3   CETT$$+2,,AUTO
        28 000243   200255 453500                    STP3    CETT$$+4,,AUTO
        28 000244   200252 634500                    EPPR4   CETT$$+1,,AUTO
        28 000245   200254 454500                    STP4    CETT$$+3,,AUTO
        28 000246   200254 630500                    EPPR0   CETT$$+3,,AUTO
        28 000247   000000 631400 29                 EPPR1   0
        28 000250   000000 701000 xent               TSX1    Z8E7$MOVE
        28 000251   000000 011000                    NOP     0

     1375    16334    2                          ADDR(ETT_ITEM));
     1376    16335
     1377    16336               /* CLEAR THE BUFFER */
     1378    16337
     1379    16338                   %NEW_ILL (@ID   = %MVAN,
     1380    16339                             @LOP  = BUFFER_ETT$,
     1381    16340                             @ROP  = CODE_ETT$);

  16653 28 000252   000006 236000 29                 LDQ     6
        28 000253   200252 756100                    STQ     CETT$$+1,,AUTO
        28 000254   200012 630500                    EPPR0   BUFFER_ETT$,,AUTO
        28 000255   200257 450500                    STP0    CETT$$+6,,AUTO
        28 000256   200252 631500                    EPPR1   CETT$$+1,,AUTO
        28 000257   200256 451500                    STP1    CETT$$+5,,AUTO
        28 000260   000026 237000 29                 LDAQ    22
        28 000261   200254 757100                    STAQ    CETT$$+3,,AUTO
PL6.E3A0      #004=Z8ET$CREATE_SUBROUTINES File=Z8ET.:Z8A6TSI                    SAT 08/09/97 12:48 Page:248
        28 000262   000025 236000 29                 LDQ     21
        28 000263   200253 756100                    STQ     CETT$$+2,,AUTO
        28 000264   200253 630500                    EPPR0   CETT$$+2,,AUTO
        28 000265   000022 631400 29                 EPPR1   18
        28 000266   000000 701000 xent               TSX1    Z8AN$NEW_ILL1
        28 000267   000000 011000                    NOP     0

  16656 28 000270   200012 236100                    LDQ     BUFFER_ETT$,,AUTO
        28 000271   000000 470400 18                 LDP0    ILL$
        28 000272   000001 756100                    STQ     1,,PR0

  16657 28 000273   200020 236100                    LDQ     CODE_ETT$,,AUTO
        28 000274   000002 756100                    STQ     2,,PR0

     1382    16719
     1383    16720               /* WRITE AFTER ADVANING PAGE */
     1384    16721
     1385    16722    2          RECORD_LEN = MIN_REC_LEN; /* initialize the RECORD_LEN */

  16722 28 000275   200024 235100                    LDA     MIN_REC_LEN,,AUTO
        28 000276   200023 755100                    STA     RECORD_LEN,,AUTO

     1386    16723
     1387    16724    2          CALL Z8AC$LX_ETT_ITEM_TYI_CONST ( RECORD_LEN,

  16724 28 000277   200114 631500                    EPPR1   RECORD_LENGTH,,AUTO
        28 000300   200252 451500                    STP1    CETT$$+1,,AUTO
        28 000301   200252 633500                    EPPR3   CETT$$+1,,AUTO
        28 000302   200255 453500                    STP3    CETT$$+4,,AUTO
        28 000303   200023 634500                    EPPR4   RECORD_LEN,,AUTO
        28 000304   200254 454500                    STP4    CETT$$+3,,AUTO
        28 000305   200254 630500                    EPPR0   CETT$$+3,,AUTO
        28 000306   000000 631400 29                 EPPR1   0
        28 000307   000000 701000 xent               TSX1    Z8AC$LX_ETT_ITEM_TYI_CONST
        28 000310   000000 011000                    NOP     0

     1388    16725    2                                           ADDR(RECORD_LENGTH));
PL6.E3A0      #004=Z8ET$CREATE_SUBROUTINES File=Z8ET.:Z8A6TSI                    SAT 08/09/97 12:48 Page:249
     1389    16726
     1390    16727    2          CALL Z9EN$WRITE_PAGE (FILE_LTS$,

  16727 28 000311   000017 236000 29                 LDQ     15
        28 000312   200252 756100                    STQ     CETT$$+1,,AUTO
        28 000313   200253 756100                    STQ     CETT$$+2,,AUTO
        28 000314   200253 630500                    EPPR0   CETT$$+2,,AUTO
        28 000315   200256 450500                    STP0    CETT$$+5,,AUTO
        28 000316   200252 631500                    EPPR1   CETT$$+1,,AUTO
        28 000317   200255 451500                    STP1    CETT$$+4,,AUTO
        28 000320   200027 633500                    EPPR3   FILE_LTS$,,AUTO
        28 000321   200254 453500                    STP3    CETT$$+3,,AUTO
        28 000322   200254 630500                    EPPR0   CETT$$+3,,AUTO
        28 000323   000030 631400 29                 EPPR1   24
        28 000324   000000 701000 xent               TSX1    Z9EN$WRITE_PAGE
        28 000325   000000 011000                    NOP     0

     1391    16728    2                                ADDR(NIL),
     1392    16729    2                                ADDR(NIL) );
     1393    16730
     1394    16731               %DB_EXCEPT_LIBRARY_RETURN;

  16941 28 000326   000006 236000 29                 LDQ     6
        28 000327   200252 756100                    STQ     CETT$$+1,,AUTO
        28 000330   200252 630500                    EPPR0   CETT$$+1,,AUTO
        28 000331   200257 450500                    STP0    CETT$$+6,,AUTO
        28 000332   000007 236000 29                 LDQ     7
        28 000333   200256 756100                    STQ     CETT$$+5,,AUTO
        28 000334   000032 237000 29                 LDAQ    26
        28 000335   200254 757100                    STAQ    CETT$$+3,,AUTO
        28 000336   200254 630500                    EPPR0   CETT$$+3,,AUTO
        28 000337   000003 631400 29                 EPPR1   3
        28 000340   000000 701000 xent               TSX1    Z8AN$NEW_ILL
        28 000341   000000 011000                    NOP     0

  16942 28 000342   000001 220003                    LDX0    1,DU
        28 000343   000000 470400 18                 LDP0    ILL$
PL6.E3A0      #004=Z8ET$CREATE_SUBROUTINES File=Z8ET.:Z8A6TSI                    SAT 08/09/97 12:48 Page:250
        28 000344   000000 440100                    SXL0    0,,PR0

  16946 28 000345   000057 470400 xsym               LDP0    O1COM+47
        28 000346   000006 236100                    LDQ     6,,PR0
        28 000347   000000 471400 18                 LDP1    ILL$
        28 000350   100001 756100                    STQ     1,,PR1

     1395    17115
     1396    17116    2    END CREATE_TOP_PAGE_SUB;

  17116 28 000351   200206 221300                    LDX1  ! CTR_LVL_ETT$+2,,AUTO
        28 000352   000001 702211                    TSX2  ! 1,X1

     1397    17117         %EJECT;
PL6.E3A0      #004=Z8ET$CREATE_SUBROUTINES File=Z8ET.:Z8A6TSI                    SAT 08/09/97 12:48 Page:251
     1398    17118
     1399    17119         /*=====================*/
     1400    17120    1      CREATE_FORMATTING_SUB:  PROC (GROUP$);

  17120 28 000353   200210 741300       CREATE_FORM* STX1  ! SEND$,,AUTO

     1401    17121         /*=====================*/
     1402    17122
     1403    17123        /*I*
     1404    17124
     1405    17125             NAME:  CREATE_FORMATTING_SUB
     1406    17126
     1407    17127          DESCRIPTION: This routine creates the formatting subroutine for
     1408    17128                       each printable group--i.e. at least one LINE clause
     1409    17129                       specified in that group. It steps through the 01 group
     1410    17130                       entry to the last entry that subordinats to this group
     1411    17131                       entry, creates ILLs to advance lines for the LINE clause,
     1412    17132                       formaating the print line buffer according the specified
     1413    17133                       COLUMN clauses, codes that conditionally prints the
     1414    17134                       printable item will be generated if the GROUP INDICATE
     1415    17135                       clause presented.
     1416    17136        */
     1417    17137
     1418    17138
     1419    17139    2   DCL GROUP$         PTR;
     1420    17140    2   DCL CURRENT$       PTR;
     1421    17141    2   DCL NEXT$          PTR;
     1422    17142    2   DCL LABEL$         PTR;
     1423    17143    2   DCL PREV$          PTR;
     1424    17144    2   DCL LINE_SPAN      SBIN WORD;
     1425    17145    2    DCL LINE_NO#      UBIN WORD;
     1426    17146    2   DCL ST$$           PTR;
     1427    17147    2   DCL ST_TYPE        UBIN WORD;
     1428    17148    2   DCL BYTE_POS       UBIN WORD;
     1429    17149    2   DCL WORD_POS       UBIN WORD;
     1430    17150    2   DCL QLT$$          PTR;
     1431    17151    2   DCL RECV_ST$       PTR;
PL6.E3A0      #004=Z8ET$CREATE_SUBROUTINES File=Z8ET.:Z8A6TSI                    SAT 08/09/97 12:48 Page:252
     1432    17152    2   DCL BUF_ST$        PTR;
     1433    17153
     1434    17154
     1435    17155        %EJECT;
PL6.E3A0      #004=Z8ET$CREATE_SUBROUTINES File=Z8ET.:Z8A6TSI                    SAT 08/09/97 12:48 Page:253
     1436    17156
     1437    17157        %MACRO NEW_EDIT_ST (@ETT$ = RECV_ETT$);
     1438    17158           DO;
     1439    17159
     1440    17160             %RESERVE_ST (POINTER = ST$$);
     1441    17161
     1442    17162             ST$$ -> SCALAR = @ETT$ -> ETT.LOP -> SCALAR;
     1443    17163
     1444    17164             %NEW_QLT (@POINTER = QLT$$,
     1445    17165                       @FATHER  = LTS$$ -> REPORT_LTS.BUFFER_ST$ -> SCALAR.QLT$,
     1446    17166                       @BROTHER = LTS$$ -> REPORT_LTS.BUFFER_ST$ -> SCALAR.QLT$ -> QLT.SON,
     1447    17167                       @ST$     = ST$$,
     1448    17168                       @DNT$    = ST$$ -> ST.DNT$,
     1449    17169                       @LEVEL#  = 2);
     1450    17170
     1451    17171               LTS$$ -> REPORT_LTS.BUFFER_ST$ -> SCALAR.QLT$ -> QLT.SON = QLT$$;
     1452    17172
     1453    17173             ST$$ -> SCALAR.QLT$ = QLT$$;
     1454    17174             ST$$ -> SCALAR.B.REDEF_SUB = TRUE;
     1455    17175             ST$$ -> SCALAR.COUNT = LTS$$ -> REPORT_LTS.BUFFER_ST$ -> SCALAR.COUNT;
     1456    17176             @ETT$ -> ETT.LOP = ST$$;
     1457    17177
     1458    17178           END;
     1459    17179         %MEND;
     1460    17180
     1461    17181
     1462    17182         %MACRO EDIT_PRINTABLE_ITEM (@FROM = ,
     1463    17183                                     @TO   = );
     1464    17184           DO;
     1465    17185             RECORD_LEN = 0;  /* initialize the record length */
     1466    17186             DO WHILE (@FROM ~= @TO -> REPORT_GRP_LTS.NEXT);
     1467    17187
     1468    17188               IF @FROM -> LTS.ID = %REPORT_ELEM_LTS AND
     1469    17189                  @FROM -> REPORT_ELEM_LTS.B.PRINTABLE  THEN
     1470    17190
     1471    17191                 DO;
     1472    17192
PL6.E3A0      #004=Z8ET$CREATE_SUBROUTINES File=Z8ET.:Z8A6TSI                    SAT 08/09/97 12:48 Page:254
     1473    17193                   ALL_BIT = FALSE;
     1474    17194
     1475    17195                   IF @FROM -> REPORT_ELEM_LTS.B.SUM_PRESENTED THEN
     1476    17196                     DO;
     1477    17197                       SEND_ETT$ = @FROM -> REPORT_ELEM_LTS.SUM_LTS$ ->
     1478    17198                                   SUM_LTS.SUM_ST_ILL$;
     1479    17199                       RECV_ETT$ = @FROM -> REPORT_ELEM_LTS.SUM_LTS$ ->
     1480    17200                                   SUM_LTS.EDIT_ST_ILL$;
     1481    17201                     END;
     1482    17202                   ELSE
     1483    17203                     DO;
     1484    17204                       CALL Z8AF$NEW_BASE (@FROM -> REPORT_ELEM_LTS.ST$,
     1485    17205                                           ADDR(NIL),
     1486    17206                                           RECV_ETT$);
     1487    17207
     1488    17208                       IF @FROM -> REPORT_ELEM_LTS.B.SOURCE_PRESENTED THEN
     1489    17209                         SEND_ETT$ = @FROM -> REPORT_ELEM_LTS.SOURCE_ETT$;
     1490    17210                       ELSE
     1491    17211                         DO;
     1492    17212
     1493    17213                           SEND_ETT$ = @FROM -> REPORT_ELEM_LTS.VALUE_ETT$;
     1494    17214
     1495    17215                           %FISH (TRIAD = SEND_ETT$,
     1496    17216                                  RTN   = VAL_ST$);
     1497    17217
     1498    17218                           IF VAL_ST$ -> ST.ID = %CONST THEN
     1499    17219                             ALL_BIT = VAL_ST$ -> CONST.B.ALL;
     1500    17220
     1501    17221                         END;
     1502    17222
     1503    17223                     END;
     1504    17224
     1505    17225                   IF RECV_ETT$ -> ETT.ID = %BASE THEN
     1506    17226                     %NEW_EDIT_ST (@ETT$ = RECV_ETT$);
     1507    17227                   ELSE
     1508    17228                     %NEW_EDIT_ST (@ETT$ = RECV_ETT$ -> ETT.LOP);
     1509    17229
PL6.E3A0      #004=Z8ET$CREATE_SUBROUTINES File=Z8ET.:Z8A6TSI                    SAT 08/09/97 12:48 Page:255
     1510    17230                   %FISH (TRIAD = RECV_ETT$,  RTN = RECV_ST$);
     1511    17231
     1512    17232                   %FISH (TRIAD = BUFFER_ETT$,  RTN = BUF_ST$);
     1513    17233
     1514    17234
     1515    17235                   RECV_ST$ -> ST.R = BUF_ST$ -> ST.R;
     1516    17236                   RECV_ST$ -> ST.COUNT = BUF_ST$ -> ST.COUNT;
     1517    17237                   RECV_ST$ -> ST.SA = (@FROM -> REPORT_ELEM_LTS.COLUMN_NO# + SA_ADJ) / 4 ;
     1518    17238          RECV_ST$ -> ST.ADSC.CN = MOD((@FROM -> REPORT_ELEM_LTS.COLUMN_NO# + SA_ADJ) , 4);
     1519    17239                   RECORD_LEN = @FROM -> REPORT_ELEM_LTS.COLUMN_NO# +
     1520    17240                                @FROM -> REPORT_ELEM_LTS.SPAN + SA_ADJ;
     1521    17241
     1522    17242                   LINE_NO# = RECV_ST$ -> ST.LINE_NO;
     1523    17243
     1524    17244                   %GET_TYPE (@ETT$  = SEND_ETT$);
     1525    17245
     1526    17246                   %INIT_LX_ETT_ITEM (@POINTER = "ADDR(SEND_FIELD)",
     1527    17247                                      @TYPE    = ST_TYPE,
     1528    17248                                      @ALL     = ALL_BIT,
     1529    17249                                      @ETT$    = SEND_ETT$,
     1530    17250                                      @LINE    = LINE_NO#,
     1531    17251                                      @COLUMN  = 0);
     1532    17252
     1533    17253                   %GET_TYPE (@ETT$  = RECV_ETT$);
     1534    17254
     1535    17255                   %INIT_LX_ETT_ITEM (@POINTER = "ADDR(RECV_FIELD)",
     1536    17256                                      @TYPE    = ST_TYPE,
     1537    17257                                      @ETT$    = RECV_ETT$,
     1538    17258                                      @LINE    = LINE_NO#,
     1539    17259                                      @COLUMN  = 0);
     1540    17260
     1541    17261                   IF @FROM -> REPORT_ELEM_LTS.B.GROUP_INDICATE THEN
     1542    17262                     DO;
     1543    17263
     1544    17264                       CALL Z8AT$CREATE_TEMPORARY(%PARA, IND$$);
     1545    17265
     1546    17266                       %INIT_BINARY_OP (@POINTER = "ADDR(COMPARE)",
PL6.E3A0      #004=Z8ET$CREATE_SUBROUTINES File=Z8ET.:Z8A6TSI                    SAT 08/09/97 12:48 Page:256
     1547    17267                                        @LOP$    = "ADDR(IND_FIELD)",
     1548    17268                                        @ROP$    = "ADDR(ZERO)",
     1549    17269                                        @OP      = %OP_EQUAL);
     1550    17270
     1551    17271                       CALL Z8EK$BRANCH_TRUE (IND$$,
     1552    17272                                              ADDR(COMPARE));
     1553    17273
     1554    17274                       CALL Z8E7$MOVE (ADDR(RECV_FIELD),
     1555    17275                                       ADDR(SEND_FIELD));
     1556    17276
     1557    17277                       %NEW_ILL (@ID     = %DEFLB,
     1558    17278                                 @LABEL$ = IND$$);
     1559    17279
     1560    17280                     END;
     1561    17281                   ELSE
     1562    17282                     CALL Z8E7$MOVE (ADDR(RECV_FIELD),
     1563    17283                                     ADDR(SEND_FIELD));
     1564    17284
     1565    17285                 END;  /* END IF */
     1566    17286
     1567    17287               @FROM = @FROM -> REPORT_GRP_LTS.NEXT;
     1568    17288
     1569    17289             END; /* WHILE */
     1570    17290
     1571    17291           END;
     1572    17292         %MEND;
     1573    17293
     1574    17294         %MACRO GET_TYPE (@TYPE = ST_TYPE,
     1575    17295                          @ETT$ = SEND_ETT$);
     1576    17296           DO;
     1577    17297             %FISH (TRIAD = @ETT$,
     1578    17298                    RTN   = ST$$);
     1579    17299
     1580    17300             @TYPE = ST$$ -> ST.TYPE;
     1581    17301           END;
     1582    17302         %MEND;
     1583    17303         %EJECT;
PL6.E3A0      #004=Z8ET$CREATE_SUBROUTINES File=Z8ET.:Z8A6TSI                    SAT 08/09/97 12:48 Page:257
     1584    17304
     1585    17305    2          IF GROUP$ -> REPORT_01_LTS.FIRST_LINE.LTS$ = ADDR(NIL)

  17305 28 000354   200211 470500                    LDP0    @GROUP$,,AUTO
        28 000355   000000 471500                    LDP1    0,,PR0
        28 000356   100021 236100                    LDQ     17,,PR1
        28 000357   000017 116000 29                 CMPQ    15
        28 000360   000362 601000 28                 TNZ     s:17312

     1586    17306    2            THEN
     1587    17307    2              RETURN;

  17307 28 000361   000001 702211                    TSX2  ! 1,X1

     1588    17308
     1589    17309               %SUB_HEAD (OFFSET_V = %FORMATTING_SUB_OFF,
     1590    17310                          RWCT_PTR = GROUP$ -> REPORT_01_LTS.RWCT$);

  17312 28 000362   200214 633500                    EPPR3   LABEL$,,AUTO
        28 000363   200253 453500                    STP3    CETT$$+2,,AUTO
        28 000364   000002 236000 29                 LDQ     2
        28 000365   200252 756100                    STQ     CETT$$+1,,AUTO
        28 000366   200252 630500                    EPPR0   CETT$$+1,,AUTO
        28 000367   000000 631400 29                 EPPR1   0
        28 000370   000000 701000 xent               TSX1    Z8AT$CREATE_TEMPORARY
        28 000371   000000 011000                    NOP     0

  17313 28 000372   200214 470500                    LDP0    LABEL$,,AUTO
        28 000373   400000 236003                    LDQ     -131072,DU
        28 000374   000003 256100                    ORSQ    3,,PR0

  17314 28 000375   200214 470500                    LDP0    LABEL$,,AUTO
        28 000376   001000 236007                    LDQ     512,DL
        28 000377   000003 256100                    ORSQ    3,,PR0

  17648 28 000400   000006 236000 29                 LDQ     6
        28 000401   200252 756100                    STQ     CETT$$+1,,AUTO
PL6.E3A0      #004=Z8ET$CREATE_SUBROUTINES File=Z8ET.:Z8A6TSI                    SAT 08/09/97 12:48 Page:258
        28 000402   200252 630500                    EPPR0   CETT$$+1,,AUTO
        28 000403   200257 450500                    STP0    CETT$$+6,,AUTO
        28 000404   000007 236000 29                 LDQ     7
        28 000405   200256 756100                    STQ     CETT$$+5,,AUTO
        28 000406   000010 237000 29                 LDAQ    8
        28 000407   200254 757100                    STAQ    CETT$$+3,,AUTO
        28 000410   200254 630500                    EPPR0   CETT$$+3,,AUTO
        28 000411   000003 631400 29                 EPPR1   3
        28 000412   000000 701000 xent               TSX1    Z8AN$NEW_ILL
        28 000413   000000 011000                    NOP     0

  17649 28 000414   200214 236100                    LDQ     LABEL$,,AUTO
        28 000415   000000 470400 18                 LDP0    ILL$
        28 000416   000001 756100                    STQ     1,,PR0

  17956 28 000417   000006 236000 29                 LDQ     6
        28 000420   200252 756100                    STQ     CETT$$+1,,AUTO
        28 000421   200252 631500                    EPPR1   CETT$$+1,,AUTO
        28 000422   200257 451500                    STP1    CETT$$+6,,AUTO
        28 000423   000007 236000 29                 LDQ     7
        28 000424   200256 756100                    STQ     CETT$$+5,,AUTO
        28 000425   000014 237000 29                 LDAQ    12
        28 000426   200254 757100                    STAQ    CETT$$+3,,AUTO
        28 000427   200254 630500                    EPPR0   CETT$$+3,,AUTO
        28 000430   000003 631400 29                 EPPR1   3
        28 000431   000000 701000 xent               TSX1    Z8AN$NEW_ILL
        28 000432   000000 011000                    NOP     0

  17960 28 000433   000002 220003                    LDX0    2,DU
        28 000434   000000 470400 18                 LDP0    ILL$
        28 000435   000000 440100                    SXL0    0,,PR0

  17962 28 000436   000000 470400 18                 LDP0    ILL$
        28 000437   000002 450100                    STZ     2,,PR0

  17963 28 000440   200214 236100                    LDQ     LABEL$,,AUTO
        28 000441   000001 756100                    STQ     1,,PR0
PL6.E3A0      #004=Z8ET$CREATE_SUBROUTINES File=Z8ET.:Z8A6TSI                    SAT 08/09/97 12:48 Page:259

  17964 28 000442   200211 471500                    LDP1    @GROUP$,,AUTO
        28 000443   100000 473500                    LDP3    0,,PR1
        28 000444   300022 236100                    LDQ     18,,PR3
        28 000445   000003 756100                    STQ     3,,PR0

  18286 28 000446   000006 236000 29                 LDQ     6
        28 000447   200252 756100                    STQ     CETT$$+1,,AUTO
        28 000450   200252 633500                    EPPR3   CETT$$+1,,AUTO
        28 000451   200257 453500                    STP3    CETT$$+6,,AUTO
        28 000452   000007 236000 29                 LDQ     7
        28 000453   200256 756100                    STQ     CETT$$+5,,AUTO
        28 000454   000020 237000 29                 LDAQ    16
        28 000455   200254 757100                    STAQ    CETT$$+3,,AUTO
        28 000456   200254 630500                    EPPR0   CETT$$+3,,AUTO
        28 000457   000003 631400 29                 EPPR1   3
        28 000460   000000 701000 xent               TSX1    Z8AN$NEW_ILL
        28 000461   000000 011000                    NOP     0

  18287 28 000462   000001 220003                    LDX0    1,DU
        28 000463   000000 470400 18                 LDP0    ILL$
        28 000464   000000 440100                    SXL0    0,,PR0

  18291 28 000465   000057 470400 xsym               LDP0    O1COM+47
        28 000466   000006 236100                    LDQ     6,,PR0
        28 000467   000000 471400 18                 LDP1    ILL$
        28 000470   100001 756100                    STQ     1,,PR1

     1591    18460
     1592    18461               /* CLEAR THE BUFFER */
     1593    18462
     1594    18463                   %NEW_ILL (@ID   = %MVAN,
     1595    18464                             @LOP  = BUFFER_ETT$,
     1596    18465                             @ROP  = CODE_ETT$);

  18778 28 000471   000006 236000 29                 LDQ     6
        28 000472   200252 756100                    STQ     CETT$$+1,,AUTO
PL6.E3A0      #004=Z8ET$CREATE_SUBROUTINES File=Z8ET.:Z8A6TSI                    SAT 08/09/97 12:48 Page:260
        28 000473   200012 630500                    EPPR0   BUFFER_ETT$,,AUTO
        28 000474   200257 450500                    STP0    CETT$$+6,,AUTO
        28 000475   200252 633500                    EPPR3   CETT$$+1,,AUTO
        28 000476   200256 453500                    STP3    CETT$$+5,,AUTO
        28 000477   000026 237000 29                 LDAQ    22
        28 000500   200254 757100                    STAQ    CETT$$+3,,AUTO
        28 000501   000025 236000 29                 LDQ     21
        28 000502   200253 756100                    STQ     CETT$$+2,,AUTO
        28 000503   200253 630500                    EPPR0   CETT$$+2,,AUTO
        28 000504   000022 631400 29                 EPPR1   18
        28 000505   000000 701000 xent               TSX1    Z8AN$NEW_ILL1
        28 000506   000000 011000                    NOP     0

  18781 28 000507   200012 236100                    LDQ     BUFFER_ETT$,,AUTO
        28 000510   000000 470400 18                 LDP0    ILL$
        28 000511   000001 756100                    STQ     1,,PR0

  18782 28 000512   200020 236100                    LDQ     CODE_ETT$,,AUTO
        28 000513   000002 756100                    STQ     2,,PR0

     1597    18844
     1598    18845               /* PRINT THE FIRST LINE OF THIS GROUP */
     1599    18846
     1600    18847    2          CURRENT$ = GROUP$;

  18847 28 000514   200211 471500                    LDP1    @GROUP$,,AUTO
        28 000515   100000 236100                    LDQ     0,,PR1
        28 000516   200212 756100                    STQ     CURRENT$,,AUTO

     1601    18848
     1602    18849    2          NEXT$ = GROUP$ -> REPORT_01_LTS.FIRST_LINE.LTS$;

  18849 28 000517   100000 473500                    LDP3    0,,PR1
        28 000520   300021 236100                    LDQ     17,,PR3
        28 000521   200213 756100                    STQ     NEXT$,,AUTO

     1603    18850    2          PREV$ = NEXT$;
PL6.E3A0      #004=Z8ET$CREATE_SUBROUTINES File=Z8ET.:Z8A6TSI                    SAT 08/09/97 12:48 Page:261

  18850 28 000522   200215 756100                    STQ     PREV$,,AUTO

     1604    18851
     1605    18852    3          DO WHILE (NEXT$ -> REPORT_GRP_LTS.NEXT ~= ADDR(NIL)  AND

  18852 28 000523   000527 710000 28                 TRA     s:18857

     1606    18853    3             NOT NEXT$ -> REPORT_GRP_LTS.NEXT -> REPORT_GRP_LTS.B.LINE_PRESENTED);
     1607    18854
     1608    18855    3            NEXT$ = NEXT$ -> REPORT_GRP_LTS.NEXT;

  18855 28 000524   200213 470500                    LDP0    NEXT$,,AUTO
        28 000525   000006 236100                    LDQ     6,,PR0
        28 000526   200213 756100                    STQ     NEXT$,,AUTO

     1609    18856
     1610    18857    3          END; /* WHILE */

  18857 28 000527   200213 470500                    LDP0    NEXT$,,AUTO
        28 000530   000006 236100                    LDQ     6,,PR0
        28 000531   000017 116000 29                 CMPQ    15
        28 000532   000537 600000 28                 TZE     s:18862
        28 000533   000006 471500                    LDP1    6,,PR0
        28 000534   100000 236100                    LDQ     0,,PR1
        28 000535   400000 316007                    CANQ    -131072,DL
        28 000536   000524 600000 28                 TZE     s:18855

     1611    18858
     1612    18859               %EDIT_PRINTABLE_ITEM (@FROM = CURRENT$,
     1613    18860                                     @TO   = NEXT$);

  18862 28 000537   200023 450100                    STZ     RECORD_LEN,,AUTO

  18863 28 000540   200212 236100                    LDQ     CURRENT$,,AUTO
        28 000541   000006 116100                    CMPQ    6,,PR0
        28 000542   001442 600000 28                 TZE     s:19518
PL6.E3A0      #004=Z8ET$CREATE_SUBROUTINES File=Z8ET.:Z8A6TSI                    SAT 08/09/97 12:48 Page:262

  18864 28 000543   200212 470500                    LDP0    CURRENT$,,AUTO
        28 000544   000000 220100                    LDX0    0,,PR0
        28 000545   001102 100003                    CMPX0   578,DU
        28 000546   001434 601000 28                 TNZ     s:19513
        28 000547   000000 236100                    LDQ     0,,PR0
        28 000550   010000 316007                    CANQ    4096,DL
        28 000551   001434 600000 28                 TZE     s:19513

  18867 28 000552   200031 450100                    STZ     ALL_BIT,,AUTO

  18868 28 000553   040000 316007                    CANQ    16384,DL
        28 000554   000563 600000 28                 TZE     s:18877

  18870 28 000555   000012 471500                    LDP1    10,,PR0
        28 000556   100004 236100                    LDQ     4,,PR1
        28 000557   200016 756100                    STQ     SEND_ETT$,,AUTO

  18872 28 000560   100002 236100                    LDQ     2,,PR1
        28 000561   200017 756100                    STQ     RECV_ETT$,,AUTO

  18874 28 000562   000635 710000 28                 TRA     s:18898

  18877 28 000563   000017 236000 29                 LDQ     15
        28 000564   200252 756100                    STQ     CETT$$+1,,AUTO
        28 000565   200017 631500                    EPPR1   RECV_ETT$,,AUTO
        28 000566   200255 451500                    STP1    CETT$$+4,,AUTO
        28 000567   200252 633500                    EPPR3   CETT$$+1,,AUTO
        28 000570   200254 453500                    STP3    CETT$$+3,,AUTO
        28 000571   200212 236100                    LDQ     CURRENT$,,AUTO
        28 000572   000003 036003                    ADLQ    3,DU
        28 000573   200253 756100                    STQ     CETT$$+2,,AUTO
        28 000574   200253 630500                    EPPR0   CETT$$+2,,AUTO
        28 000575   000030 631400 29                 EPPR1   24
        28 000576   000000 701000 xent               TSX1    Z8AF$NEW_BASE
        28 000577   000000 011000                    NOP     0

PL6.E3A0      #004=Z8ET$CREATE_SUBROUTINES File=Z8ET.:Z8A6TSI                    SAT 08/09/97 12:48 Page:263
  18880 28 000600   200212 470500                    LDP0    CURRENT$,,AUTO
        28 000601   000000 236100                    LDQ     0,,PR0
        28 000602   100000 316007                    CANQ    32768,DL
        28 000603   000607 600000 28                 TZE     s:18884

  18881 28 000604   000011 236100                    LDQ     9,,PR0
        28 000605   200016 756100                    STQ     SEND_ETT$,,AUTO
        28 000606   000635 710000 28                 TRA     s:18898

  18884 28 000607   000013 236100                    LDQ     11,,PR0
        28 000610   200016 756100                    STQ     SEND_ETT$,,AUTO

  18888 28 000611   200030 756100                    STQ     VAL_ST$,,AUTO

  18889 28 000612   200030 471500                    LDP1    VAL_ST$,,AUTO
        28 000613   100000 220100                    LDX0    0,,PR1
        28 000614   000751 100003                    CMPX0   489,DU
        28 000615   000625 603000 28                 TRC     s:18894

  18890 28 000616   200030 470500                    LDP0    VAL_ST$,,AUTO
        28 000617   000001 236100                    LDQ     1,,PR0
        28 000620   200030 756100                    STQ     VAL_ST$,,AUTO

  18891 28 000621   200030 470500                    LDP0    VAL_ST$,,AUTO
        28 000622   000000 220100                    LDX0    0,,PR0
        28 000623   000751 100003                    CMPX0   489,DU
        28 000624   000616 602000 28                 TNC     s:18890

  18894 28 000625   200030 470500                    LDP0    VAL_ST$,,AUTO
        28 000626   000000 220100                    LDX0    0,,PR0
        28 000627   000767 100003                    CMPX0   503,DU
        28 000630   000635 601000 28                 TNZ     s:18898

  18895 28 000631   000003 236100                    LDQ     3,,PR0
        28 000632   000003 736000                    QLS     3
        28 000633   400000 376003                    ANQ     -131072,DU
        28 000634   200031 756100                    STQ     ALL_BIT,,AUTO
PL6.E3A0      #004=Z8ET$CREATE_SUBROUTINES File=Z8ET.:Z8A6TSI                    SAT 08/09/97 12:48 Page:264

  18898 28 000635   200017 470500                    LDP0    RECV_ETT$,,AUTO
        28 000636   000000 220100                    LDX0    0,,PR0
        28 000637   000001 100003                    CMPX0   1,DU
        28 000640   000774 601000 28                 TNZ     s:18952

  18903 28 000641   000002 236000 10                 LDQ     ST_+2
        28 000642   000013 036007                    ADLQ    11,DL
        28 000643   000003 116000 10                 CMPQ    ST_+3
        28 000644   000655 604000 28                 TMI     s:18905

  18904 28 000645   000035 236000 29                 LDQ     29
        28 000646   200252 756100                    STQ     CETT$$+1,,AUTO
        28 000647   200252 631500                    EPPR1   CETT$$+1,,AUTO
        28 000650   200253 451500                    STP1    CETT$$+2,,AUTO
        28 000651   200253 630500                    EPPR0   CETT$$+2,,AUTO
        28 000652   000034 631400 29                 EPPR1   28
        28 000653   000000 701000 xent               TSX1    Z8AR$RESERVER
        28 000654   000000 011000                    NOP     0

  18905 28 000655   000002 236000 10                 LDQ     ST_+2
        28 000656   000022 736000                    QLS     18
        28 000657   000001 036000 10                 ADLQ    ST_+1
        28 000660   200220 756100                    STQ     ST$$,,AUTO

  18906 28 000661   000013 236007                    LDQ     11,DL
        28 000662   000002 056000 10                 ASQ     ST_+2

  18909 28 000663   200017 470500                    LDP0    RECV_ETT$,,AUTO
        28 000664   000001 471500                    LDP1    1,,PR0
        28 000665   200220 473500                    LDP3    ST$$,,AUTO
        28 000666   000100 100500                    MLR     fill='000'O
        28 000667   100000 000054                    ADSC9   0,,PR1                   cn=0,n=44
        28 000670   300000 000054                    ADSC9   0,,PR3                   cn=0,n=44

  18920 28 000671   000002 236000 13                 LDQ     QLT_+2
        28 000672   000006 036007                    ADLQ    6,DL
PL6.E3A0      #004=Z8ET$CREATE_SUBROUTINES File=Z8ET.:Z8A6TSI                    SAT 08/09/97 12:48 Page:265
        28 000673   000003 116000 13                 CMPQ    QLT_+3
        28 000674   000705 602000 28                 TNC     s:18922

  18921 28 000675   000036 236000 29                 LDQ     30
        28 000676   200252 756100                    STQ     CETT$$+1,,AUTO
        28 000677   200252 630500                    EPPR0   CETT$$+1,,AUTO
        28 000700   200253 450500                    STP0    CETT$$+2,,AUTO
        28 000701   200253 630500                    EPPR0   CETT$$+2,,AUTO
        28 000702   000034 631400 29                 EPPR1   28
        28 000703   000000 701000 xent               TSX1    Z8AR$RESERVER
        28 000704   000000 011000                    NOP     0

  18922 28 000705   000002 236000 13                 LDQ     QLT_+2
        28 000706   000022 736000                    QLS     18
        28 000707   000001 036000 13                 ADLQ    QLT_+1
        28 000710   200224 756100                    STQ     QLT$$,,AUTO

  18923 28 000711   000002 235000 13                 LDA     QLT_+2
        28 000712   000006 035007                    ADLA    6,DL
        28 000713   000002 755000 13                 STA     QLT_+2

  18924 28 000714   001053 220003                    LDX0    555,DU
        28 000715   200224 470500                    LDP0    QLT$$,,AUTO
        28 000716   000000 740100                    STX0    0,,PR0

  18927 28 000717   200003 471500                    LDP1    @LTS$$,,AUTO
        28 000720   100000 473500                    LDP3    0,,PR1
        28 000721   300034 474500                    LDP4    28,,PR3
        28 000722   400007 236100                    LDQ     7,,PR4
        28 000723   000001 756100                    STQ     1,,PR0

  18928 28 000724   100000 473500                    LDP3    0,,PR1
        28 000725   300034 474500                    LDP4    28,,PR3
        28 000726   400007 475500                    LDP5    7,,PR4
        28 000727   500003 236100                    LDQ     3,,PR5
        28 000730   000002 756100                    STQ     2,,PR0

PL6.E3A0      #004=Z8ET$CREATE_SUBROUTINES File=Z8ET.:Z8A6TSI                    SAT 08/09/97 12:48 Page:266
  18929 28 000731   000017 236000 29                 LDQ     15
        28 000732   000003 756100                    STQ     3,,PR0

  18930 28 000733   200220 236100                    LDQ     ST$$,,AUTO
        28 000734   000004 756100                    STQ     4,,PR0

  18931 28 000735   200220 473500                    LDP3    ST$$,,AUTO
        28 000736   300006 236100                    LDQ     6,,PR3
        28 000737   000005 756100                    STQ     5,,PR0

  18932 28 000740   000002 236007                    LDQ     2,DL
        28 000741   000000 552104                    STBQ    0,'04'O,PR0

  18933 28 000742   000000 236003                    LDQ     0,DU
        28 000743   000000 552110                    STBQ    0,'10'O,PR0

  18934 28 000744   000037 236000 29                 LDQ     31
        28 000745   000000 356100                    ANSQ    0,,PR0

  18935 28 000746   000040 236000 29                 LDQ     32
        28 000747   000000 356100                    ANSQ    0,,PR0

  18936 28 000750   000041 236000 29                 LDQ     33
        28 000751   000000 356100                    ANSQ    0,,PR0

  18937 28 000752   000042 236000 29                 LDQ     34
        28 000753   000000 356100                    ANSQ    0,,PR0

  18940 28 000754   100000 474500                    LDP4    0,,PR1
        28 000755   400034 475500                    LDP5    28,,PR4
        28 000756   500007 476500                    LDP6    7,,PR5
        28 000757   200224 236100                    LDQ     QLT$$,,AUTO
        28 000760   600003 756100                    STQ     3,,PR6

  18941 28 000761   300007 756100                    STQ     7,,PR3

  18942 28 000762   001000 236003                    LDQ     512,DU
PL6.E3A0      #004=Z8ET$CREATE_SUBROUTINES File=Z8ET.:Z8A6TSI                    SAT 08/09/97 12:48 Page:267
        28 000763   300003 256100                    ORSQ    3,,PR3

  18943 28 000764   100000 474500                    LDP4    0,,PR1
        28 000765   400034 475500                    LDP5    28,,PR4
        28 000766   500000 236100                    LDQ     0,,PR5
        28 000767   300000 552104                    STBQ    0,'04'O,PR3

  18944 28 000770   200220 236100                    LDQ     ST$$,,AUTO
        28 000771   200017 474500                    LDP4    RECV_ETT$,,AUTO
        28 000772   400001 756100                    STQ     1,,PR4

  18945 28 000773   001130 710000 28                 TRA     s:18998

  18952 28 000774   000002 236000 10                 LDQ     ST_+2
        28 000775   000013 036007                    ADLQ    11,DL
        28 000776   000003 116000 10                 CMPQ    ST_+3
        28 000777   001010 604000 28                 TMI     s:18954

  18953 28 001000   000035 236000 29                 LDQ     29
        28 001001   200252 756100                    STQ     CETT$$+1,,AUTO
        28 001002   200252 631500                    EPPR1   CETT$$+1,,AUTO
        28 001003   200253 451500                    STP1    CETT$$+2,,AUTO
        28 001004   200253 630500                    EPPR0   CETT$$+2,,AUTO
        28 001005   000034 631400 29                 EPPR1   28
        28 001006   000000 701000 xent               TSX1    Z8AR$RESERVER
        28 001007   000000 011000                    NOP     0

  18954 28 001010   000002 236000 10                 LDQ     ST_+2
        28 001011   000022 736000                    QLS     18
        28 001012   000001 036000 10                 ADLQ    ST_+1
        28 001013   200220 756100                    STQ     ST$$,,AUTO

  18955 28 001014   000013 236007                    LDQ     11,DL
        28 001015   000002 056000 10                 ASQ     ST_+2

  18958 28 001016   200017 470500                    LDP0    RECV_ETT$,,AUTO
        28 001017   000001 471500                    LDP1    1,,PR0
PL6.E3A0      #004=Z8ET$CREATE_SUBROUTINES File=Z8ET.:Z8A6TSI                    SAT 08/09/97 12:48 Page:268
        28 001020   100001 473500                    LDP3    1,,PR1
        28 001021   200220 474500                    LDP4    ST$$,,AUTO
        28 001022   000100 100500                    MLR     fill='000'O
        28 001023   300000 000054                    ADSC9   0,,PR3                   cn=0,n=44
        28 001024   400000 000054                    ADSC9   0,,PR4                   cn=0,n=44

  18969 28 001025   000002 236000 13                 LDQ     QLT_+2
        28 001026   000006 036007                    ADLQ    6,DL
        28 001027   000003 116000 13                 CMPQ    QLT_+3
        28 001030   001041 602000 28                 TNC     s:18971

  18970 28 001031   000036 236000 29                 LDQ     30
        28 001032   200252 756100                    STQ     CETT$$+1,,AUTO
        28 001033   200252 630500                    EPPR0   CETT$$+1,,AUTO
        28 001034   200253 450500                    STP0    CETT$$+2,,AUTO
        28 001035   200253 630500                    EPPR0   CETT$$+2,,AUTO
        28 001036   000034 631400 29                 EPPR1   28
        28 001037   000000 701000 xent               TSX1    Z8AR$RESERVER
        28 001040   000000 011000                    NOP     0

  18971 28 001041   000002 236000 13                 LDQ     QLT_+2
        28 001042   000022 736000                    QLS     18
        28 001043   000001 036000 13                 ADLQ    QLT_+1
        28 001044   200224 756100                    STQ     QLT$$,,AUTO

  18972 28 001045   000002 235000 13                 LDA     QLT_+2
        28 001046   000006 035007                    ADLA    6,DL
        28 001047   000002 755000 13                 STA     QLT_+2

  18973 28 001050   001053 220003                    LDX0    555,DU
        28 001051   200224 470500                    LDP0    QLT$$,,AUTO
        28 001052   000000 740100                    STX0    0,,PR0

  18976 28 001053   200003 471500                    LDP1    @LTS$$,,AUTO
        28 001054   100000 473500                    LDP3    0,,PR1
        28 001055   300034 474500                    LDP4    28,,PR3
        28 001056   400007 236100                    LDQ     7,,PR4
PL6.E3A0      #004=Z8ET$CREATE_SUBROUTINES File=Z8ET.:Z8A6TSI                    SAT 08/09/97 12:48 Page:269
        28 001057   000001 756100                    STQ     1,,PR0

  18977 28 001060   100000 473500                    LDP3    0,,PR1
        28 001061   300034 474500                    LDP4    28,,PR3
        28 001062   400007 475500                    LDP5    7,,PR4
        28 001063   500003 236100                    LDQ     3,,PR5
        28 001064   000002 756100                    STQ     2,,PR0

  18978 28 001065   000017 236000 29                 LDQ     15
        28 001066   000003 756100                    STQ     3,,PR0

  18979 28 001067   200220 236100                    LDQ     ST$$,,AUTO
        28 001070   000004 756100                    STQ     4,,PR0

  18980 28 001071   200220 473500                    LDP3    ST$$,,AUTO
        28 001072   300006 236100                    LDQ     6,,PR3
        28 001073   000005 756100                    STQ     5,,PR0

  18981 28 001074   000002 236007                    LDQ     2,DL
        28 001075   000000 552104                    STBQ    0,'04'O,PR0

  18982 28 001076   000000 236003                    LDQ     0,DU
        28 001077   000000 552110                    STBQ    0,'10'O,PR0

  18983 28 001100   000037 236000 29                 LDQ     31
        28 001101   000000 356100                    ANSQ    0,,PR0

  18984 28 001102   000040 236000 29                 LDQ     32
        28 001103   000000 356100                    ANSQ    0,,PR0

  18985 28 001104   000041 236000 29                 LDQ     33
        28 001105   000000 356100                    ANSQ    0,,PR0

  18986 28 001106   000042 236000 29                 LDQ     34
        28 001107   000000 356100                    ANSQ    0,,PR0

  18989 28 001110   100000 474500                    LDP4    0,,PR1
PL6.E3A0      #004=Z8ET$CREATE_SUBROUTINES File=Z8ET.:Z8A6TSI                    SAT 08/09/97 12:48 Page:270
        28 001111   400034 475500                    LDP5    28,,PR4
        28 001112   500007 476500                    LDP6    7,,PR5
        28 001113   200224 236100                    LDQ     QLT$$,,AUTO
        28 001114   600003 756100                    STQ     3,,PR6

  18990 28 001115   300007 756100                    STQ     7,,PR3

  18991 28 001116   001000 236003                    LDQ     512,DU
        28 001117   300003 256100                    ORSQ    3,,PR3

  18992 28 001120   100000 474500                    LDP4    0,,PR1
        28 001121   400034 475500                    LDP5    28,,PR4
        28 001122   500000 236100                    LDQ     0,,PR5
        28 001123   300000 552104                    STBQ    0,'04'O,PR3

  18993 28 001124   200017 474500                    LDP4    RECV_ETT$,,AUTO
        28 001125   400001 475500                    LDP5    1,,PR4
        28 001126   200220 236100                    LDQ     ST$$,,AUTO
        28 001127   500001 756100                    STQ     1,,PR5

  18998 28 001130   200017 236100                    LDQ     RECV_ETT$,,AUTO
        28 001131   200225 756100                    STQ     RECV_ST$,,AUTO

  18999 28 001132   200225 474500                    LDP4    RECV_ST$,,AUTO
        28 001133   400000 221100                    LDX1    0,,PR4
        28 001134   000751 101003                    CMPX1   489,DU
        28 001135   001145 603000 28                 TRC     s:19006

  19000 28 001136   200225 470500                    LDP0    RECV_ST$,,AUTO
        28 001137   000001 236100                    LDQ     1,,PR0
        28 001140   200225 756100                    STQ     RECV_ST$,,AUTO

  19001 28 001141   200225 470500                    LDP0    RECV_ST$,,AUTO
        28 001142   000000 220100                    LDX0    0,,PR0
        28 001143   000751 100003                    CMPX0   489,DU
        28 001144   001136 602000 28                 TNC     s:19000

PL6.E3A0      #004=Z8ET$CREATE_SUBROUTINES File=Z8ET.:Z8A6TSI                    SAT 08/09/97 12:48 Page:271
  19006 28 001145   200012 236100                    LDQ     BUFFER_ETT$,,AUTO
        28 001146   200226 756100                    STQ     BUF_ST$,,AUTO

  19007 28 001147   200226 470500                    LDP0    BUF_ST$,,AUTO
        28 001150   000000 220100                    LDX0    0,,PR0
        28 001151   000751 100003                    CMPX0   489,DU
        28 001152   001162 603000 28                 TRC     s:19012

  19008 28 001153   200226 470500                    LDP0    BUF_ST$,,AUTO
        28 001154   000001 236100                    LDQ     1,,PR0
        28 001155   200226 756100                    STQ     BUF_ST$,,AUTO

  19009 28 001156   200226 470500                    LDP0    BUF_ST$,,AUTO
        28 001157   000000 220100                    LDX0    0,,PR0
        28 001160   000751 100003                    CMPX0   489,DU
        28 001161   001153 602000 28                 TNC     s:19008

  19012 28 001162   200225 471500                    LDP1    RECV_ST$,,AUTO
        28 001163   000000 236100                    LDQ     0,,PR0
        28 001164   100000 552110                    STBQ    0,'10'O,PR1

  19013 28 001165   000000 236100                    LDQ     0,,PR0
        28 001166   100000 552104                    STBQ    0,'04'O,PR1

  19014 28 001167   200212 473500                    LDP3    CURRENT$,,AUTO
        28 001170   300007 236100                    LDQ     7,,PR3
        28 001171   200010 036100                    ADLQ    SA_ADJ,,AUTO
        28 001172   000004 506007                    DIV     4,DL
        28 001173   000000 620006                    EAX0    0,QL
        28 001174   100001 740100                    STX0    1,,PR1

  19015 28 001175   300007 236100                    LDQ     7,,PR3
        28 001176   200010 036100                    ADLQ    SA_ADJ,,AUTO
        28 001177   000004 506007                    DIV     4,DL
        28 001200   000044 733000                    LRS     36
        28 001201   000020 736000                    QLS     16
        28 001202   100001 676100                    ERQ     1,,PR1
PL6.E3A0      #004=Z8ET$CREATE_SUBROUTINES File=Z8ET.:Z8A6TSI                    SAT 08/09/97 12:48 Page:272
        28 001203   600000 376007                    ANQ     -65536,DL
        28 001204   100001 656100                    ERSQ    1,,PR1

  19016 28 001205   300007 236100                    LDQ     7,,PR3
        28 001206   300010 036100                    ADLQ    8,,PR3
        28 001207   200010 036100                    ADLQ    SA_ADJ,,AUTO
        28 001210   200023 756100                    STQ     RECORD_LEN,,AUTO

  19018 28 001211   100002 236100                    LDQ     2,,PR1
        28 001212   777777 376007                    ANQ     -1,DL
        28 001213   200217 756100                    STQ     LINE_NO#,,AUTO

  19024 28 001214   200016 236100                    LDQ     SEND_ETT$,,AUTO
        28 001215   200220 756100                    STQ     ST$$,,AUTO

  19025 28 001216   200220 474500                    LDP4    ST$$,,AUTO
        28 001217   400000 220100                    LDX0    0,,PR4
        28 001220   000751 100003                    CMPX0   489,DU
        28 001221   001231 603000 28                 TRC     s:19030

  19026 28 001222   200220 470500                    LDP0    ST$$,,AUTO
        28 001223   000001 236100                    LDQ     1,,PR0
        28 001224   200220 756100                    STQ     ST$$,,AUTO

  19027 28 001225   200220 470500                    LDP0    ST$$,,AUTO
        28 001226   000000 220100                    LDX0    0,,PR0
        28 001227   000751 100003                    CMPX0   489,DU
        28 001230   001222 602000 28                 TNC     s:19026

  19030 28 001231   200220 470500                    LDP0    ST$$,,AUTO
        28 001232   000002 236100                    LDQ     2,,PR0
        28 001233   000022 772000                    QRL     18
        28 001234   200221 756100                    STQ     ST_TYPE,,AUTO

  19040 28 001235   000004 220003                    LDX0    4,DU
        28 001236   200074 740100                    STX0    SEND_FIELD,,AUTO

PL6.E3A0      #004=Z8ET$CREATE_SUBROUTINES File=Z8ET.:Z8A6TSI                    SAT 08/09/97 12:48 Page:273
  19041 28 001237   000000 221003                    LDX1    0,DU
        28 001240   200074 441100                    SXL1    SEND_FIELD,,AUTO

  19042 28 001241   200100 756100                    STQ     SEND_FIELD+4,,AUTO

  19043 28 001242   000017 236000 29                 LDQ     15
        28 001243   200103 756100                    STQ     SEND_FIELD+7,,AUTO

  19044 28 001244   200016 236100                    LDQ     SEND_ETT$,,AUTO
        28 001245   200075 756100                    STQ     SEND_FIELD+1,,AUTO

  19045 28 001246   000017 236000 29                 LDQ     15
        28 001247   200076 756100                    STQ     SEND_FIELD+2,,AUTO

  19047 28 001250   200217 235100                    LDA     LINE_NO#,,AUTO
        28 001251   200101 755100                    STA     SEND_FIELD+5,,AUTO

  19048 28 001252   200102 450100                    STZ     SEND_FIELD+6,,AUTO

  19053 28 001253   200031 236100                    LDQ     ALL_BIT,,AUTO
        28 001254   000025 772000                    QRL     21
        28 001255   200074 676100                    ERQ     SEND_FIELD,,AUTO
        28 001256   040000 376007                    ANQ     16384,DL
        28 001257   200074 656100                    ERSQ    SEND_FIELD,,AUTO

  19065 28 001260   200017 236100                    LDQ     RECV_ETT$,,AUTO
        28 001261   200220 756100                    STQ     ST$$,,AUTO

  19066 28 001262   200220 470500                    LDP0    ST$$,,AUTO
        28 001263   000000 222100                    LDX2    0,,PR0
        28 001264   000751 102003                    CMPX2   489,DU
        28 001265   001275 603000 28                 TRC     s:19071

  19067 28 001266   200220 470500                    LDP0    ST$$,,AUTO
        28 001267   000001 236100                    LDQ     1,,PR0
        28 001270   200220 756100                    STQ     ST$$,,AUTO

PL6.E3A0      #004=Z8ET$CREATE_SUBROUTINES File=Z8ET.:Z8A6TSI                    SAT 08/09/97 12:48 Page:274
  19068 28 001271   200220 470500                    LDP0    ST$$,,AUTO
        28 001272   000000 220100                    LDX0    0,,PR0
        28 001273   000751 100003                    CMPX0   489,DU
        28 001274   001266 602000 28                 TNC     s:19067

  19071 28 001275   000002 236100                    LDQ     2,,PR0
        28 001276   000022 772000                    QRL     18
        28 001277   200221 756100                    STQ     ST_TYPE,,AUTO

  19080 28 001300   000004 220003                    LDX0    4,DU
        28 001301   200104 740100                    STX0    RECV_FIELD,,AUTO

  19081 28 001302   000000 221003                    LDX1    0,DU
        28 001303   200104 441100                    SXL1    RECV_FIELD,,AUTO

  19082 28 001304   200110 756100                    STQ     RECV_FIELD+4,,AUTO

  19083 28 001305   000017 236000 29                 LDQ     15
        28 001306   200113 756100                    STQ     RECV_FIELD+7,,AUTO

  19084 28 001307   200017 236100                    LDQ     RECV_ETT$,,AUTO
        28 001310   200105 756100                    STQ     RECV_FIELD+1,,AUTO

  19085 28 001311   000017 236000 29                 LDQ     15
        28 001312   200106 756100                    STQ     RECV_FIELD+2,,AUTO

  19087 28 001313   200217 235100                    LDA     LINE_NO#,,AUTO
        28 001314   200111 755100                    STA     RECV_FIELD+5,,AUTO

  19088 28 001315   200112 450100                    STZ     RECV_FIELD+6,,AUTO

  19100 28 001316   200212 471500                    LDP1    CURRENT$,,AUTO
        28 001317   100000 236100                    LDQ     0,,PR1
        28 001320   020000 316007                    CANQ    8192,DL
        28 001321   001420 600000 28                 TZE     s:19510

  19102 28 001322   200021 633500                    EPPR3   IND$$,,AUTO
PL6.E3A0      #004=Z8ET$CREATE_SUBROUTINES File=Z8ET.:Z8A6TSI                    SAT 08/09/97 12:48 Page:275
        28 001323   200253 453500                    STP3    CETT$$+2,,AUTO
        28 001324   000002 236000 29                 LDQ     2
        28 001325   200252 756100                    STQ     CETT$$+1,,AUTO
        28 001326   200252 630500                    EPPR0   CETT$$+1,,AUTO
        28 001327   000000 631400 29                 EPPR1   0
        28 001330   000000 701000 xent               TSX1    Z8AT$CREATE_TEMPORARY
        28 001331   000000 011000                    NOP     0

  19108 28 001332   000005 220003                    LDX0    5,DU
        28 001333   200144 740100                    STX0    COMPARE,,AUTO

  19109 28 001334   000000 221003                    LDX1    0,DU
        28 001335   200144 441100                    SXL1    COMPARE,,AUTO

  19116 28 001336   000133 235000 xsym               LDA     COMCOM+91
        28 001337   200151 755100                    STA     COMPARE+5,,AUTO

  19117 28 001340   000134 236000 xsym               LDQ     COMCOM+92
        28 001341   200152 756100                    STQ     COMPARE+6,,AUTO

  19118 28 001342   200134 630500                    EPPR0   ZERO,,AUTO
        28 001343   200146 450500                    STP0    COMPARE+2,,AUTO

  19119 28 001344   200154 631500                    EPPR1   IND_FIELD,,AUTO
        28 001345   200145 451500                    STP1    COMPARE+1,,AUTO

  19120 28 001346   000027 235007                    LDA     23,DL
        28 001347   200147 755100                    STA     COMPARE+3,,AUTO

  19121 28 001350   000017 236000 29                 LDQ     15
        28 001351   200153 756100                    STQ     COMPARE+7,,AUTO

  19124 28 001352   200144 633500                    EPPR3   COMPARE,,AUTO
        28 001353   200252 453500                    STP3    CETT$$+1,,AUTO
        28 001354   200252 634500                    EPPR4   CETT$$+1,,AUTO
        28 001355   200255 454500                    STP4    CETT$$+4,,AUTO
        28 001356   200021 635500                    EPPR5   IND$$,,AUTO
PL6.E3A0      #004=Z8ET$CREATE_SUBROUTINES File=Z8ET.:Z8A6TSI                    SAT 08/09/97 12:48 Page:276
        28 001357   200254 455500                    STP5    CETT$$+3,,AUTO
        28 001360   200254 630500                    EPPR0   CETT$$+3,,AUTO
        28 001361   000000 631400 29                 EPPR1   0
        28 001362   000000 701000 xent               TSX1    Z8EK$BRANCH_TRUE
        28 001363   000000 011000                    NOP     0

  19126 28 001364   200104 630500                    EPPR0   RECV_FIELD,,AUTO
        28 001365   200252 450500                    STP0    CETT$$+1,,AUTO
        28 001366   200074 631500                    EPPR1   SEND_FIELD,,AUTO
        28 001367   200253 451500                    STP1    CETT$$+2,,AUTO
        28 001370   200253 633500                    EPPR3   CETT$$+2,,AUTO
        28 001371   200255 453500                    STP3    CETT$$+4,,AUTO
        28 001372   200252 634500                    EPPR4   CETT$$+1,,AUTO
        28 001373   200254 454500                    STP4    CETT$$+3,,AUTO
        28 001374   200254 630500                    EPPR0   CETT$$+3,,AUTO
        28 001375   000000 631400 29                 EPPR1   0
        28 001376   000000 701000 xent               TSX1    Z8E7$MOVE
        28 001377   000000 011000                    NOP     0

  19461 28 001400   000006 236000 29                 LDQ     6
        28 001401   200252 756100                    STQ     CETT$$+1,,AUTO
        28 001402   200252 630500                    EPPR0   CETT$$+1,,AUTO
        28 001403   200257 450500                    STP0    CETT$$+6,,AUTO
        28 001404   000007 236000 29                 LDQ     7
        28 001405   200256 756100                    STQ     CETT$$+5,,AUTO
        28 001406   000010 237000 29                 LDAQ    8
        28 001407   200254 757100                    STAQ    CETT$$+3,,AUTO
        28 001410   200254 630500                    EPPR0   CETT$$+3,,AUTO
        28 001411   000003 631400 29                 EPPR1   3
        28 001412   000000 701000 xent               TSX1    Z8AN$NEW_ILL
        28 001413   000000 011000                    NOP     0

  19462 28 001414   200021 236100                    LDQ     IND$$,,AUTO
        28 001415   000000 470400 18                 LDP0    ILL$
        28 001416   000001 756100                    STQ     1,,PR0

  19508 28 001417   001434 710000 28                 TRA     s:19513
PL6.E3A0      #004=Z8ET$CREATE_SUBROUTINES File=Z8ET.:Z8A6TSI                    SAT 08/09/97 12:48 Page:277

  19510 28 001420   200104 633500                    EPPR3   RECV_FIELD,,AUTO
        28 001421   200252 453500                    STP3    CETT$$+1,,AUTO
        28 001422   200074 634500                    EPPR4   SEND_FIELD,,AUTO
        28 001423   200253 454500                    STP4    CETT$$+2,,AUTO
        28 001424   200253 635500                    EPPR5   CETT$$+2,,AUTO
        28 001425   200255 455500                    STP5    CETT$$+4,,AUTO
        28 001426   200252 636500                    EPPR6   CETT$$+1,,AUTO
        28 001427   200254 456500                    STP6    CETT$$+3,,AUTO
        28 001430   200254 630500                    EPPR0   CETT$$+3,,AUTO
        28 001431   000000 631400 29                 EPPR1   0
        28 001432   000000 701000 xent               TSX1    Z8E7$MOVE
        28 001433   000000 011000                    NOP     0

  19513 28 001434   200212 470500                    LDP0    CURRENT$,,AUTO
        28 001435   000006 236100                    LDQ     6,,PR0
        28 001436   200212 756100                    STQ     CURRENT$,,AUTO

  19514 28 001437   200213 470500                    LDP0    NEXT$,,AUTO
        28 001440   000006 116100                    CMPQ    6,,PR0
        28 001441   000543 601000 28                 TNZ     s:18864

     1614    19517
     1615    19518    2            IF RECORD_LEN < MIN_REC_LEN THEN

  19518 28 001442   200023 236100                    LDQ     RECORD_LEN,,AUTO
        28 001443   200024 116100                    CMPQ    MIN_REC_LEN,,AUTO
        28 001444   001447 605000 28                 TPL     s:19521

     1616    19519    2              RECORD_LEN = MIN_REC_LEN;

  19519 28 001445   200024 235100                    LDA     MIN_REC_LEN,,AUTO
        28 001446   200023 755100                    STA     RECORD_LEN,,AUTO

     1617    19520
     1618    19521    2          CALL Z8AC$LX_ETT_ITEM_TYI_CONST (RECORD_LEN,

PL6.E3A0      #004=Z8ET$CREATE_SUBROUTINES File=Z8ET.:Z8A6TSI                    SAT 08/09/97 12:48 Page:278
  19521 28 001447   200114 631500                    EPPR1   RECORD_LENGTH,,AUTO
        28 001450   200252 451500                    STP1    CETT$$+1,,AUTO
        28 001451   200252 633500                    EPPR3   CETT$$+1,,AUTO
        28 001452   200255 453500                    STP3    CETT$$+4,,AUTO
        28 001453   200023 634500                    EPPR4   RECORD_LEN,,AUTO
        28 001454   200254 454500                    STP4    CETT$$+3,,AUTO
        28 001455   200254 630500                    EPPR0   CETT$$+3,,AUTO
        28 001456   000000 631400 29                 EPPR1   0
        28 001457   000000 701000 xent               TSX1    Z8AC$LX_ETT_ITEM_TYI_CONST
        28 001460   000000 011000                    NOP     0

     1619    19522    2                                           ADDR(RECORD_LENGTH));
     1620    19523
     1621    19524    2          CALL Z9EN$WRITE_NEXT (FILE_LTS$,

  19524 28 001461   000017 236000 29                 LDQ     15
        28 001462   200252 756100                    STQ     CETT$$+1,,AUTO
        28 001463   200253 756100                    STQ     CETT$$+2,,AUTO
        28 001464   200114 630500                    EPPR0   RECORD_LENGTH,,AUTO
        28 001465   200254 450500                    STP0    CETT$$+3,,AUTO
        28 001466   200032 631500                    EPPR1   AFTER_FIELD,,AUTO
        28 001467   200255 451500                    STP1    CETT$$+4,,AUTO
        28 001470   200004 633500                    EPPR3   REPORT_CODE_NO,,AUTO
        28 001471   200264 453500                    STP3    CETT$$+11,,AUTO
        28 001472   000045 236000 29                 LDQ     37
        28 001473   200263 756100                    STQ     CETT$$+10,,AUTO
        28 001474   200255 634500                    EPPR4   CETT$$+4,,AUTO
        28 001475   200262 454500                    STP4    CETT$$+9,,AUTO
        28 001476   200254 635500                    EPPR5   CETT$$+3,,AUTO
        28 001477   200261 455500                    STP5    CETT$$+8,,AUTO
        28 001500   200253 636500                    EPPR6   CETT$$+2,,AUTO
        28 001501   200260 456500                    STP6    CETT$$+7,,AUTO
        28 001502   200252 637500                    EPPR7   CETT$$+1,,AUTO
        28 001503   200257 457500                    STP7    CETT$$+6,,AUTO
        28 001504   200027 630500                    EPPR0   FILE_LTS$,,AUTO
        28 001505   200256 450500                    STP0    CETT$$+5,,AUTO
        28 001506   200256 630500                    EPPR0   CETT$$+5,,AUTO
PL6.E3A0      #004=Z8ET$CREATE_SUBROUTINES File=Z8ET.:Z8A6TSI                    SAT 08/09/97 12:48 Page:279
        28 001507   000043 631400 29                 EPPR1   35
        28 001510   000000 701000 xent               TSX1    Z9EN$WRITE_NEXT
        28 001511   000000 011000                    NOP     0

     1622    19525    2                                ADDR(NIL),
     1623    19526    2                                ADDR(NIL),
     1624    19527    2                                ADDR(RECORD_LENGTH),
     1625    19528    2                                ADDR(AFTER_FIELD),
     1626    19529    2                                %AFTER_LINES,
     1627    19530    2                                REPORT_CODE_NO);
     1628    19531
     1629    19532               /* PRINT THE REMAINING LINES */
     1630    19533
     1631    19534    2          NEXT$ = NEXT$ -> REPORT_GRP_LTS.NEXT;

  19534 28 001512   200213 470500                    LDP0    NEXT$,,AUTO
        28 001513   000006 236100                    LDQ     6,,PR0
        28 001514   200213 756100                    STQ     NEXT$,,AUTO

     1632    19535
     1633    19536    3          DO WHILE (NEXT$ ~= ADDR(NIL));

  19536 28 001515   002650 710000 28                 TRA     s:20675

     1634    19537
     1635    19538    3            CURRENT$ = NEXT$;

  19538 28 001516   200213 236100                    LDQ     NEXT$,,AUTO
        28 001517   200212 756100                    STQ     CURRENT$,,AUTO

     1636    19539
     1637    19540    3            IF CURRENT$ -> REPORT_GRP_LTS.LINE_TYPE = %REPORT_LINE_INT THEN

  19540 28 001520   200212 470500                    LDP0    CURRENT$,,AUTO
        28 001521   000001 235100                    LDA     1,,PR0
        28 001522   000001 115007                    CMPA    1,DL
        28 001523   001531 601000 28                 TNZ     s:19544
PL6.E3A0      #004=Z8ET$CREATE_SUBROUTINES File=Z8ET.:Z8A6TSI                    SAT 08/09/97 12:48 Page:280

     1638    19541    3              LINE_SPAN = CURRENT$ -> REPORT_GRP_LTS.LINE_NO# -

  19541 28 001524   200215 471500                    LDP1    PREV$,,AUTO
        28 001525   000002 236100                    LDQ     2,,PR0
        28 001526   100002 136100                    SBLQ    2,,PR1
        28 001527   200216 756100                    STQ     LINE_SPAN,,AUTO
        28 001530   001533 710000 28                 TRA     s:19548

     1639    19542    3                          PREV$ -> REPORT_GRP_LTS.LINE_NO#;
     1640    19543    3            ELSE
     1641    19544    3              LINE_SPAN = CURRENT$ -> REPORT_GRP_LTS.LINE_NO#;

  19544 28 001531   000002 235100                    LDA     2,,PR0
        28 001532   200216 755100                    STA     LINE_SPAN,,AUTO

     1642    19545
     1643    19546                   /* UPDATE LINE COUNTER */
     1644    19547
     1645    19548    3            MKCN.CON = LINE_SPAN;

  19548 28 001533   200216 235100                    LDA     LINE_SPAN,,AUTO
        28 001534   000000 755000 24                 STA     MKCN

     1646    19549
     1647    19550    3            CALL Z8AC$MAKE_CONST (CONST_ETT$);

  19550 28 001535   200011 631500                    EPPR1   CONST_ETT$,,AUTO
        28 001536   200252 451500                    STP1    CETT$$+1,,AUTO
        28 001537   200252 630500                    EPPR0   CETT$$+1,,AUTO
        28 001540   000034 631400 29                 EPPR1   28
        28 001541   000000 701000 xent               TSX1    Z8AC$MAKE_CONST
        28 001542   000000 011000                    NOP     0

     1648    19551
     1649    19552                 %INIT_LX_ETT_ITEM (@POINTER = "ADDR(LINE_FIELD)",
     1650    19553                                    @TYPE    = %TYI,
PL6.E3A0      #004=Z8ET$CREATE_SUBROUTINES File=Z8ET.:Z8A6TSI                    SAT 08/09/97 12:48 Page:281
     1651    19554                                    @ETT$    = CONST_ETT$);

  19556 28 001543   000004 220003                    LDX0    4,DU
        28 001544   200124 740100                    STX0    LINE_FIELD,,AUTO

  19557 28 001545   000000 221003                    LDX1    0,DU
        28 001546   200124 441100                    SXL1    LINE_FIELD,,AUTO

  19558 28 001547   000001 235007                    LDA     1,DL
        28 001550   200130 755100                    STA     LINE_FIELD+4,,AUTO

  19559 28 001551   000017 236000 29                 LDQ     15
        28 001552   200133 756100                    STQ     LINE_FIELD+7,,AUTO

  19560 28 001553   200011 236100                    LDQ     CONST_ETT$,,AUTO
        28 001554   200125 756100                    STQ     LINE_FIELD+1,,AUTO

  19561 28 001555   000017 236000 29                 LDQ     15
        28 001556   200126 756100                    STQ     LINE_FIELD+2,,AUTO

  19563 28 001557   000133 235000 xsym               LDA     COMCOM+91
        28 001560   200131 755100                    STA     LINE_FIELD+5,,AUTO

  19564 28 001561   000134 235000 xsym               LDA     COMCOM+92
        28 001562   200132 755100                    STA     LINE_FIELD+6,,AUTO

     1652    19576
     1653    19577                 %INIT_BINARY_OP (@POINTER   = "ADDR(OP_NODE)",
     1654    19578                                  @ROP$      = "ADDR(LINE_FIELD)",
     1655    19579                                  @LOP$      = "ADDR(LINE_COUNTER_FIELD)",
     1656    19580                                  @OP        = %OP_PLUS);

  19582 28 001563   000005 222003                    LDX2    5,DU
        28 001564   200064 742100                    STX2    OP_NODE,,AUTO

  19583 28 001565   200064 441100                    SXL1    OP_NODE,,AUTO

PL6.E3A0      #004=Z8ET$CREATE_SUBROUTINES File=Z8ET.:Z8A6TSI                    SAT 08/09/97 12:48 Page:282
  19590 28 001566   000133 235000 xsym               LDA     COMCOM+91
        28 001567   200071 755100                    STA     OP_NODE+5,,AUTO

  19591 28 001570   000134 235000 xsym               LDA     COMCOM+92
        28 001571   200072 755100                    STA     OP_NODE+6,,AUTO

  19592 28 001572   200124 630500                    EPPR0   LINE_FIELD,,AUTO
        28 001573   200066 450500                    STP0    OP_NODE+2,,AUTO

  19593 28 001574   200042 631500                    EPPR1   LINE_COUNTER_FIELD,,AUTO
        28 001575   200065 451500                    STP1    OP_NODE+1,,AUTO

  19594 28 001576   000020 235007                    LDA     16,DL
        28 001577   200067 755100                    STA     OP_NODE+3,,AUTO

  19595 28 001600   200073 756100                    STQ     OP_NODE+7,,AUTO

     1657    19598
     1658    19599    3            CALL Z8E5$MATH_PACK (ADDR(OP_NODE),

  19599 28 001601   200064 633500                    EPPR3   OP_NODE,,AUTO
        28 001602   200252 453500                    STP3    CETT$$+1,,AUTO
        28 001603   200054 634500                    EPPR4   ETT_ITEM,,AUTO
        28 001604   200253 454500                    STP4    CETT$$+2,,AUTO
        28 001605   200253 635500                    EPPR5   CETT$$+2,,AUTO
        28 001606   200255 455500                    STP5    CETT$$+4,,AUTO
        28 001607   200252 636500                    EPPR6   CETT$$+1,,AUTO
        28 001610   200254 456500                    STP6    CETT$$+3,,AUTO
        28 001611   200254 630500                    EPPR0   CETT$$+3,,AUTO
        28 001612   000000 631400 29                 EPPR1   0
        28 001613   000000 701000 xent               TSX1    Z8E5$MATH_PACK
        28 001614   000000 011000                    NOP     0

     1659    19600    3                                 ADDR(ETT_ITEM));
     1660    19601
     1661    19602    3            CALL Z8E7$MOVE (ADDR(LINE_COUNTER_FIELD),

PL6.E3A0      #004=Z8ET$CREATE_SUBROUTINES File=Z8ET.:Z8A6TSI                    SAT 08/09/97 12:48 Page:283
  19602 28 001615   200042 630500                    EPPR0   LINE_COUNTER_FIELD,,AUTO
        28 001616   200252 450500                    STP0    CETT$$+1,,AUTO
        28 001617   200054 631500                    EPPR1   ETT_ITEM,,AUTO
        28 001620   200253 451500                    STP1    CETT$$+2,,AUTO
        28 001621   200253 633500                    EPPR3   CETT$$+2,,AUTO
        28 001622   200255 453500                    STP3    CETT$$+4,,AUTO
        28 001623   200252 634500                    EPPR4   CETT$$+1,,AUTO
        28 001624   200254 454500                    STP4    CETT$$+3,,AUTO
        28 001625   200254 630500                    EPPR0   CETT$$+3,,AUTO
        28 001626   000000 631400 29                 EPPR1   0
        28 001627   000000 701000 xent               TSX1    Z8E7$MOVE
        28 001630   000000 011000                    NOP     0

     1662    19603    3                            ADDR(ETT_ITEM));
     1663    19604
     1664    19605    3            PREV$ = NEXT$;

  19605 28 001631   200213 236100                    LDQ     NEXT$,,AUTO
        28 001632   200215 756100                    STQ     PREV$,,AUTO

     1665    19606
     1666    19607                 /* BLANK OUT THE BUFFER */
     1667    19608
     1668    19609
     1669    19610                   %NEW_ILL (@ID   = %MVAN,
     1670    19611                             @LOP  = BUFFER_ETT$,
     1671    19612                             @ROP  = CODE_ETT$);

  19925 28 001633   000006 236000 29                 LDQ     6
        28 001634   200252 756100                    STQ     CETT$$+1,,AUTO
        28 001635   200012 630500                    EPPR0   BUFFER_ETT$,,AUTO
        28 001636   200257 450500                    STP0    CETT$$+6,,AUTO
        28 001637   200252 631500                    EPPR1   CETT$$+1,,AUTO
        28 001640   200256 451500                    STP1    CETT$$+5,,AUTO
        28 001641   000026 237000 29                 LDAQ    22
        28 001642   200254 757100                    STAQ    CETT$$+3,,AUTO
        28 001643   000025 236000 29                 LDQ     21
PL6.E3A0      #004=Z8ET$CREATE_SUBROUTINES File=Z8ET.:Z8A6TSI                    SAT 08/09/97 12:48 Page:284
        28 001644   200253 756100                    STQ     CETT$$+2,,AUTO
        28 001645   200253 630500                    EPPR0   CETT$$+2,,AUTO
        28 001646   000022 631400 29                 EPPR1   18
        28 001647   000000 701000 xent               TSX1    Z8AN$NEW_ILL1
        28 001650   000000 011000                    NOP     0

  19928 28 001651   200012 236100                    LDQ     BUFFER_ETT$,,AUTO
        28 001652   000000 470400 18                 LDP0    ILL$
        28 001653   000001 756100                    STQ     1,,PR0

  19929 28 001654   200020 236100                    LDQ     CODE_ETT$,,AUTO
        28 001655   000002 756100                    STQ     2,,PR0

     1672    19991
     1673    19992    4            DO WHILE (NEXT$ -> REPORT_GRP_LTS.NEXT ~= ADDR(NIL)  AND

  19992 28 001656   001662 710000 28                 TRA     s:19997

     1674    19993    4               NOT NEXT$ -> REPORT_GRP_LTS.NEXT -> REPORT_GRP_LTS.B.LINE_PRESENTED);
     1675    19994
     1676    19995    4              NEXT$ = NEXT$ -> REPORT_GRP_LTS.NEXT;

  19995 28 001657   200213 470500                    LDP0    NEXT$,,AUTO
        28 001660   000006 236100                    LDQ     6,,PR0
        28 001661   200213 756100                    STQ     NEXT$,,AUTO

     1677    19996
     1678    19997    4            END; /* WHILE */

  19997 28 001662   200213 470500                    LDP0    NEXT$,,AUTO
        28 001663   000006 236100                    LDQ     6,,PR0
        28 001664   000017 116000 29                 CMPQ    15
        28 001665   001672 600000 28                 TZE     s:20002
        28 001666   000006 471500                    LDP1    6,,PR0
        28 001667   100000 236100                    LDQ     0,,PR1
        28 001670   400000 316007                    CANQ    -131072,DL
        28 001671   001657 600000 28                 TZE     s:19995
PL6.E3A0      #004=Z8ET$CREATE_SUBROUTINES File=Z8ET.:Z8A6TSI                    SAT 08/09/97 12:48 Page:285

     1679    19998
     1680    19999                 %EDIT_PRINTABLE_ITEM (@FROM = CURRENT$,
     1681    20000                                       @TO   = NEXT$);

  20002 28 001672   200023 450100                    STZ     RECORD_LEN,,AUTO

  20003 28 001673   200212 236100                    LDQ     CURRENT$,,AUTO
        28 001674   000006 116100                    CMPQ    6,,PR0
        28 001675   002575 600000 28                 TZE     s:20658

  20004 28 001676   200212 470500                    LDP0    CURRENT$,,AUTO
        28 001677   000000 220100                    LDX0    0,,PR0
        28 001700   001102 100003                    CMPX0   578,DU
        28 001701   002567 601000 28                 TNZ     s:20653
        28 001702   000000 236100                    LDQ     0,,PR0
        28 001703   010000 316007                    CANQ    4096,DL
        28 001704   002567 600000 28                 TZE     s:20653

  20007 28 001705   200031 450100                    STZ     ALL_BIT,,AUTO

  20008 28 001706   040000 316007                    CANQ    16384,DL
        28 001707   001716 600000 28                 TZE     s:20017

  20010 28 001710   000012 471500                    LDP1    10,,PR0
        28 001711   100004 236100                    LDQ     4,,PR1
        28 001712   200016 756100                    STQ     SEND_ETT$,,AUTO

  20012 28 001713   100002 236100                    LDQ     2,,PR1
        28 001714   200017 756100                    STQ     RECV_ETT$,,AUTO

  20014 28 001715   001770 710000 28                 TRA     s:20038

  20017 28 001716   000017 236000 29                 LDQ     15
        28 001717   200252 756100                    STQ     CETT$$+1,,AUTO
        28 001720   200017 631500                    EPPR1   RECV_ETT$,,AUTO
        28 001721   200255 451500                    STP1    CETT$$+4,,AUTO
PL6.E3A0      #004=Z8ET$CREATE_SUBROUTINES File=Z8ET.:Z8A6TSI                    SAT 08/09/97 12:48 Page:286
        28 001722   200252 633500                    EPPR3   CETT$$+1,,AUTO
        28 001723   200254 453500                    STP3    CETT$$+3,,AUTO
        28 001724   200212 236100                    LDQ     CURRENT$,,AUTO
        28 001725   000003 036003                    ADLQ    3,DU
        28 001726   200253 756100                    STQ     CETT$$+2,,AUTO
        28 001727   200253 630500                    EPPR0   CETT$$+2,,AUTO
        28 001730   000030 631400 29                 EPPR1   24
        28 001731   000000 701000 xent               TSX1    Z8AF$NEW_BASE
        28 001732   000000 011000                    NOP     0

  20020 28 001733   200212 470500                    LDP0    CURRENT$,,AUTO
        28 001734   000000 236100                    LDQ     0,,PR0
        28 001735   100000 316007                    CANQ    32768,DL
        28 001736   001742 600000 28                 TZE     s:20024

  20021 28 001737   000011 236100                    LDQ     9,,PR0
        28 001740   200016 756100                    STQ     SEND_ETT$,,AUTO
        28 001741   001770 710000 28                 TRA     s:20038

  20024 28 001742   000013 236100                    LDQ     11,,PR0
        28 001743   200016 756100                    STQ     SEND_ETT$,,AUTO

  20028 28 001744   200030 756100                    STQ     VAL_ST$,,AUTO

  20029 28 001745   200030 471500                    LDP1    VAL_ST$,,AUTO
        28 001746   100000 220100                    LDX0    0,,PR1
        28 001747   000751 100003                    CMPX0   489,DU
        28 001750   001760 603000 28                 TRC     s:20034

  20030 28 001751   200030 470500                    LDP0    VAL_ST$,,AUTO
        28 001752   000001 236100                    LDQ     1,,PR0
        28 001753   200030 756100                    STQ     VAL_ST$,,AUTO

  20031 28 001754   200030 470500                    LDP0    VAL_ST$,,AUTO
        28 001755   000000 220100                    LDX0    0,,PR0
        28 001756   000751 100003                    CMPX0   489,DU
        28 001757   001751 602000 28                 TNC     s:20030
PL6.E3A0      #004=Z8ET$CREATE_SUBROUTINES File=Z8ET.:Z8A6TSI                    SAT 08/09/97 12:48 Page:287

  20034 28 001760   200030 470500                    LDP0    VAL_ST$,,AUTO
        28 001761   000000 220100                    LDX0    0,,PR0
        28 001762   000767 100003                    CMPX0   503,DU
        28 001763   001770 601000 28                 TNZ     s:20038

  20035 28 001764   000003 236100                    LDQ     3,,PR0
        28 001765   000003 736000                    QLS     3
        28 001766   400000 376003                    ANQ     -131072,DU
        28 001767   200031 756100                    STQ     ALL_BIT,,AUTO

  20038 28 001770   200017 470500                    LDP0    RECV_ETT$,,AUTO
        28 001771   000000 220100                    LDX0    0,,PR0
        28 001772   000001 100003                    CMPX0   1,DU
        28 001773   002127 601000 28                 TNZ     s:20092

  20043 28 001774   000002 236000 10                 LDQ     ST_+2
        28 001775   000013 036007                    ADLQ    11,DL
        28 001776   000003 116000 10                 CMPQ    ST_+3
        28 001777   002010 604000 28                 TMI     s:20045

  20044 28 002000   000035 236000 29                 LDQ     29
        28 002001   200252 756100                    STQ     CETT$$+1,,AUTO
        28 002002   200252 631500                    EPPR1   CETT$$+1,,AUTO
        28 002003   200253 451500                    STP1    CETT$$+2,,AUTO
        28 002004   200253 630500                    EPPR0   CETT$$+2,,AUTO
        28 002005   000034 631400 29                 EPPR1   28
        28 002006   000000 701000 xent               TSX1    Z8AR$RESERVER
        28 002007   000000 011000                    NOP     0

  20045 28 002010   000002 236000 10                 LDQ     ST_+2
        28 002011   000022 736000                    QLS     18
        28 002012   000001 036000 10                 ADLQ    ST_+1
        28 002013   200220 756100                    STQ     ST$$,,AUTO

  20046 28 002014   000013 236007                    LDQ     11,DL
        28 002015   000002 056000 10                 ASQ     ST_+2
PL6.E3A0      #004=Z8ET$CREATE_SUBROUTINES File=Z8ET.:Z8A6TSI                    SAT 08/09/97 12:48 Page:288

  20049 28 002016   200017 470500                    LDP0    RECV_ETT$,,AUTO
        28 002017   000001 471500                    LDP1    1,,PR0
        28 002020   200220 473500                    LDP3    ST$$,,AUTO
        28 002021   000100 100500                    MLR     fill='000'O
        28 002022   100000 000054                    ADSC9   0,,PR1                   cn=0,n=44
        28 002023   300000 000054                    ADSC9   0,,PR3                   cn=0,n=44

  20060 28 002024   000002 236000 13                 LDQ     QLT_+2
        28 002025   000006 036007                    ADLQ    6,DL
        28 002026   000003 116000 13                 CMPQ    QLT_+3
        28 002027   002040 602000 28                 TNC     s:20062

  20061 28 002030   000036 236000 29                 LDQ     30
        28 002031   200252 756100                    STQ     CETT$$+1,,AUTO
        28 002032   200252 630500                    EPPR0   CETT$$+1,,AUTO
        28 002033   200253 450500                    STP0    CETT$$+2,,AUTO
        28 002034   200253 630500                    EPPR0   CETT$$+2,,AUTO
        28 002035   000034 631400 29                 EPPR1   28
        28 002036   000000 701000 xent               TSX1    Z8AR$RESERVER
        28 002037   000000 011000                    NOP     0

  20062 28 002040   000002 236000 13                 LDQ     QLT_+2
        28 002041   000022 736000                    QLS     18
        28 002042   000001 036000 13                 ADLQ    QLT_+1
        28 002043   200224 756100                    STQ     QLT$$,,AUTO

  20063 28 002044   000002 235000 13                 LDA     QLT_+2
        28 002045   000006 035007                    ADLA    6,DL
        28 002046   000002 755000 13                 STA     QLT_+2

  20064 28 002047   001053 220003                    LDX0    555,DU
        28 002050   200224 470500                    LDP0    QLT$$,,AUTO
        28 002051   000000 740100                    STX0    0,,PR0

  20067 28 002052   200003 471500                    LDP1    @LTS$$,,AUTO
        28 002053   100000 473500                    LDP3    0,,PR1
PL6.E3A0      #004=Z8ET$CREATE_SUBROUTINES File=Z8ET.:Z8A6TSI                    SAT 08/09/97 12:48 Page:289
        28 002054   300034 474500                    LDP4    28,,PR3
        28 002055   400007 236100                    LDQ     7,,PR4
        28 002056   000001 756100                    STQ     1,,PR0

  20068 28 002057   100000 473500                    LDP3    0,,PR1
        28 002060   300034 474500                    LDP4    28,,PR3
        28 002061   400007 475500                    LDP5    7,,PR4
        28 002062   500003 236100                    LDQ     3,,PR5
        28 002063   000002 756100                    STQ     2,,PR0

  20069 28 002064   000017 236000 29                 LDQ     15
        28 002065   000003 756100                    STQ     3,,PR0

  20070 28 002066   200220 236100                    LDQ     ST$$,,AUTO
        28 002067   000004 756100                    STQ     4,,PR0

  20071 28 002070   200220 473500                    LDP3    ST$$,,AUTO
        28 002071   300006 236100                    LDQ     6,,PR3
        28 002072   000005 756100                    STQ     5,,PR0

  20072 28 002073   000002 236007                    LDQ     2,DL
        28 002074   000000 552104                    STBQ    0,'04'O,PR0

  20073 28 002075   000000 236003                    LDQ     0,DU
        28 002076   000000 552110                    STBQ    0,'10'O,PR0

  20074 28 002077   000037 236000 29                 LDQ     31
        28 002100   000000 356100                    ANSQ    0,,PR0

  20075 28 002101   000040 236000 29                 LDQ     32
        28 002102   000000 356100                    ANSQ    0,,PR0

  20076 28 002103   000041 236000 29                 LDQ     33
        28 002104   000000 356100                    ANSQ    0,,PR0

  20077 28 002105   000042 236000 29                 LDQ     34
        28 002106   000000 356100                    ANSQ    0,,PR0
PL6.E3A0      #004=Z8ET$CREATE_SUBROUTINES File=Z8ET.:Z8A6TSI                    SAT 08/09/97 12:48 Page:290

  20080 28 002107   100000 474500                    LDP4    0,,PR1
        28 002110   400034 475500                    LDP5    28,,PR4
        28 002111   500007 476500                    LDP6    7,,PR5
        28 002112   200224 236100                    LDQ     QLT$$,,AUTO
        28 002113   600003 756100                    STQ     3,,PR6

  20081 28 002114   300007 756100                    STQ     7,,PR3

  20082 28 002115   001000 236003                    LDQ     512,DU
        28 002116   300003 256100                    ORSQ    3,,PR3

  20083 28 002117   100000 474500                    LDP4    0,,PR1
        28 002120   400034 475500                    LDP5    28,,PR4
        28 002121   500000 236100                    LDQ     0,,PR5
        28 002122   300000 552104                    STBQ    0,'04'O,PR3

  20084 28 002123   200220 236100                    LDQ     ST$$,,AUTO
        28 002124   200017 474500                    LDP4    RECV_ETT$,,AUTO
        28 002125   400001 756100                    STQ     1,,PR4

  20085 28 002126   002263 710000 28                 TRA     s:20138

  20092 28 002127   000002 236000 10                 LDQ     ST_+2
        28 002130   000013 036007                    ADLQ    11,DL
        28 002131   000003 116000 10                 CMPQ    ST_+3
        28 002132   002143 604000 28                 TMI     s:20094

  20093 28 002133   000035 236000 29                 LDQ     29
        28 002134   200252 756100                    STQ     CETT$$+1,,AUTO
        28 002135   200252 631500                    EPPR1   CETT$$+1,,AUTO
        28 002136   200253 451500                    STP1    CETT$$+2,,AUTO
        28 002137   200253 630500                    EPPR0   CETT$$+2,,AUTO
        28 002140   000034 631400 29                 EPPR1   28
        28 002141   000000 701000 xent               TSX1    Z8AR$RESERVER
        28 002142   000000 011000                    NOP     0

PL6.E3A0      #004=Z8ET$CREATE_SUBROUTINES File=Z8ET.:Z8A6TSI                    SAT 08/09/97 12:48 Page:291
  20094 28 002143   000002 236000 10                 LDQ     ST_+2
        28 002144   000022 736000                    QLS     18
        28 002145   000001 036000 10                 ADLQ    ST_+1
        28 002146   200220 756100                    STQ     ST$$,,AUTO

  20095 28 002147   000013 236007                    LDQ     11,DL
        28 002150   000002 056000 10                 ASQ     ST_+2

  20098 28 002151   200017 470500                    LDP0    RECV_ETT$,,AUTO
        28 002152   000001 471500                    LDP1    1,,PR0
        28 002153   100001 473500                    LDP3    1,,PR1
        28 002154   200220 474500                    LDP4    ST$$,,AUTO
        28 002155   000100 100500                    MLR     fill='000'O
        28 002156   300000 000054                    ADSC9   0,,PR3                   cn=0,n=44
        28 002157   400000 000054                    ADSC9   0,,PR4                   cn=0,n=44

  20109 28 002160   000002 236000 13                 LDQ     QLT_+2
        28 002161   000006 036007                    ADLQ    6,DL
        28 002162   000003 116000 13                 CMPQ    QLT_+3
        28 002163   002174 602000 28                 TNC     s:20111

  20110 28 002164   000036 236000 29                 LDQ     30
        28 002165   200252 756100                    STQ     CETT$$+1,,AUTO
        28 002166   200252 630500                    EPPR0   CETT$$+1,,AUTO
        28 002167   200253 450500                    STP0    CETT$$+2,,AUTO
        28 002170   200253 630500                    EPPR0   CETT$$+2,,AUTO
        28 002171   000034 631400 29                 EPPR1   28
        28 002172   000000 701000 xent               TSX1    Z8AR$RESERVER
        28 002173   000000 011000                    NOP     0

  20111 28 002174   000002 236000 13                 LDQ     QLT_+2
        28 002175   000022 736000                    QLS     18
        28 002176   000001 036000 13                 ADLQ    QLT_+1
        28 002177   200224 756100                    STQ     QLT$$,,AUTO

  20112 28 002200   000002 235000 13                 LDA     QLT_+2
        28 002201   000006 035007                    ADLA    6,DL
PL6.E3A0      #004=Z8ET$CREATE_SUBROUTINES File=Z8ET.:Z8A6TSI                    SAT 08/09/97 12:48 Page:292
        28 002202   000002 755000 13                 STA     QLT_+2

  20113 28 002203   001053 220003                    LDX0    555,DU
        28 002204   200224 470500                    LDP0    QLT$$,,AUTO
        28 002205   000000 740100                    STX0    0,,PR0

  20116 28 002206   200003 471500                    LDP1    @LTS$$,,AUTO
        28 002207   100000 473500                    LDP3    0,,PR1
        28 002210   300034 474500                    LDP4    28,,PR3
        28 002211   400007 236100                    LDQ     7,,PR4
        28 002212   000001 756100                    STQ     1,,PR0

  20117 28 002213   100000 473500                    LDP3    0,,PR1
        28 002214   300034 474500                    LDP4    28,,PR3
        28 002215   400007 475500                    LDP5    7,,PR4
        28 002216   500003 236100                    LDQ     3,,PR5
        28 002217   000002 756100                    STQ     2,,PR0

  20118 28 002220   000017 236000 29                 LDQ     15
        28 002221   000003 756100                    STQ     3,,PR0

  20119 28 002222   200220 236100                    LDQ     ST$$,,AUTO
        28 002223   000004 756100                    STQ     4,,PR0

  20120 28 002224   200220 473500                    LDP3    ST$$,,AUTO
        28 002225   300006 236100                    LDQ     6,,PR3
        28 002226   000005 756100                    STQ     5,,PR0

  20121 28 002227   000002 236007                    LDQ     2,DL
        28 002230   000000 552104                    STBQ    0,'04'O,PR0

  20122 28 002231   000000 236003                    LDQ     0,DU
        28 002232   000000 552110                    STBQ    0,'10'O,PR0

  20123 28 002233   000037 236000 29                 LDQ     31
        28 002234   000000 356100                    ANSQ    0,,PR0

PL6.E3A0      #004=Z8ET$CREATE_SUBROUTINES File=Z8ET.:Z8A6TSI                    SAT 08/09/97 12:48 Page:293
  20124 28 002235   000040 236000 29                 LDQ     32
        28 002236   000000 356100                    ANSQ    0,,PR0

  20125 28 002237   000041 236000 29                 LDQ     33
        28 002240   000000 356100                    ANSQ    0,,PR0

  20126 28 002241   000042 236000 29                 LDQ     34
        28 002242   000000 356100                    ANSQ    0,,PR0

  20129 28 002243   100000 474500                    LDP4    0,,PR1
        28 002244   400034 475500                    LDP5    28,,PR4
        28 002245   500007 476500                    LDP6    7,,PR5
        28 002246   200224 236100                    LDQ     QLT$$,,AUTO
        28 002247   600003 756100                    STQ     3,,PR6

  20130 28 002250   300007 756100                    STQ     7,,PR3

  20131 28 002251   001000 236003                    LDQ     512,DU
        28 002252   300003 256100                    ORSQ    3,,PR3

  20132 28 002253   100000 474500                    LDP4    0,,PR1
        28 002254   400034 475500                    LDP5    28,,PR4
        28 002255   500000 236100                    LDQ     0,,PR5
        28 002256   300000 552104                    STBQ    0,'04'O,PR3

  20133 28 002257   200017 474500                    LDP4    RECV_ETT$,,AUTO
        28 002260   400001 475500                    LDP5    1,,PR4
        28 002261   200220 236100                    LDQ     ST$$,,AUTO
        28 002262   500001 756100                    STQ     1,,PR5

  20138 28 002263   200017 236100                    LDQ     RECV_ETT$,,AUTO
        28 002264   200225 756100                    STQ     RECV_ST$,,AUTO

  20139 28 002265   200225 474500                    LDP4    RECV_ST$,,AUTO
        28 002266   400000 221100                    LDX1    0,,PR4
        28 002267   000751 101003                    CMPX1   489,DU
        28 002270   002300 603000 28                 TRC     s:20146
PL6.E3A0      #004=Z8ET$CREATE_SUBROUTINES File=Z8ET.:Z8A6TSI                    SAT 08/09/97 12:48 Page:294

  20140 28 002271   200225 470500                    LDP0    RECV_ST$,,AUTO
        28 002272   000001 236100                    LDQ     1,,PR0
        28 002273   200225 756100                    STQ     RECV_ST$,,AUTO

  20141 28 002274   200225 470500                    LDP0    RECV_ST$,,AUTO
        28 002275   000000 220100                    LDX0    0,,PR0
        28 002276   000751 100003                    CMPX0   489,DU
        28 002277   002271 602000 28                 TNC     s:20140

  20146 28 002300   200012 236100                    LDQ     BUFFER_ETT$,,AUTO
        28 002301   200226 756100                    STQ     BUF_ST$,,AUTO

  20147 28 002302   200226 470500                    LDP0    BUF_ST$,,AUTO
        28 002303   000000 220100                    LDX0    0,,PR0
        28 002304   000751 100003                    CMPX0   489,DU
        28 002305   002315 603000 28                 TRC     s:20152

  20148 28 002306   200226 470500                    LDP0    BUF_ST$,,AUTO
        28 002307   000001 236100                    LDQ     1,,PR0
        28 002310   200226 756100                    STQ     BUF_ST$,,AUTO

  20149 28 002311   200226 470500                    LDP0    BUF_ST$,,AUTO
        28 002312   000000 220100                    LDX0    0,,PR0
        28 002313   000751 100003                    CMPX0   489,DU
        28 002314   002306 602000 28                 TNC     s:20148

  20152 28 002315   200225 471500                    LDP1    RECV_ST$,,AUTO
        28 002316   000000 236100                    LDQ     0,,PR0
        28 002317   100000 552110                    STBQ    0,'10'O,PR1

  20153 28 002320   000000 236100                    LDQ     0,,PR0
        28 002321   100000 552104                    STBQ    0,'04'O,PR1

  20154 28 002322   200212 473500                    LDP3    CURRENT$,,AUTO
        28 002323   300007 236100                    LDQ     7,,PR3
        28 002324   200010 036100                    ADLQ    SA_ADJ,,AUTO
PL6.E3A0      #004=Z8ET$CREATE_SUBROUTINES File=Z8ET.:Z8A6TSI                    SAT 08/09/97 12:48 Page:295
        28 002325   000004 506007                    DIV     4,DL
        28 002326   000000 620006                    EAX0    0,QL
        28 002327   100001 740100                    STX0    1,,PR1

  20155 28 002330   300007 236100                    LDQ     7,,PR3
        28 002331   200010 036100                    ADLQ    SA_ADJ,,AUTO
        28 002332   000004 506007                    DIV     4,DL
        28 002333   000044 733000                    LRS     36
        28 002334   000020 736000                    QLS     16
        28 002335   100001 676100                    ERQ     1,,PR1
        28 002336   600000 376007                    ANQ     -65536,DL
        28 002337   100001 656100                    ERSQ    1,,PR1

  20156 28 002340   300007 236100                    LDQ     7,,PR3
        28 002341   300010 036100                    ADLQ    8,,PR3
        28 002342   200010 036100                    ADLQ    SA_ADJ,,AUTO
        28 002343   200023 756100                    STQ     RECORD_LEN,,AUTO

  20158 28 002344   100002 236100                    LDQ     2,,PR1
        28 002345   777777 376007                    ANQ     -1,DL
        28 002346   200217 756100                    STQ     LINE_NO#,,AUTO

  20164 28 002347   200016 236100                    LDQ     SEND_ETT$,,AUTO
        28 002350   200220 756100                    STQ     ST$$,,AUTO

  20165 28 002351   200220 474500                    LDP4    ST$$,,AUTO
        28 002352   400000 220100                    LDX0    0,,PR4
        28 002353   000751 100003                    CMPX0   489,DU
        28 002354   002364 603000 28                 TRC     s:20170

  20166 28 002355   200220 470500                    LDP0    ST$$,,AUTO
        28 002356   000001 236100                    LDQ     1,,PR0
        28 002357   200220 756100                    STQ     ST$$,,AUTO

  20167 28 002360   200220 470500                    LDP0    ST$$,,AUTO
        28 002361   000000 220100                    LDX0    0,,PR0
        28 002362   000751 100003                    CMPX0   489,DU
PL6.E3A0      #004=Z8ET$CREATE_SUBROUTINES File=Z8ET.:Z8A6TSI                    SAT 08/09/97 12:48 Page:296
        28 002363   002355 602000 28                 TNC     s:20166

  20170 28 002364   200220 470500                    LDP0    ST$$,,AUTO
        28 002365   000002 236100                    LDQ     2,,PR0
        28 002366   000022 772000                    QRL     18
        28 002367   200221 756100                    STQ     ST_TYPE,,AUTO

  20180 28 002370   000004 220003                    LDX0    4,DU
        28 002371   200074 740100                    STX0    SEND_FIELD,,AUTO

  20181 28 002372   000000 221003                    LDX1    0,DU
        28 002373   200074 441100                    SXL1    SEND_FIELD,,AUTO

  20182 28 002374   200100 756100                    STQ     SEND_FIELD+4,,AUTO

  20183 28 002375   000017 236000 29                 LDQ     15
        28 002376   200103 756100                    STQ     SEND_FIELD+7,,AUTO

  20184 28 002377   200016 236100                    LDQ     SEND_ETT$,,AUTO
        28 002400   200075 756100                    STQ     SEND_FIELD+1,,AUTO

  20185 28 002401   000017 236000 29                 LDQ     15
        28 002402   200076 756100                    STQ     SEND_FIELD+2,,AUTO

  20187 28 002403   200217 235100                    LDA     LINE_NO#,,AUTO
        28 002404   200101 755100                    STA     SEND_FIELD+5,,AUTO

  20188 28 002405   200102 450100                    STZ     SEND_FIELD+6,,AUTO

  20193 28 002406   200031 236100                    LDQ     ALL_BIT,,AUTO
        28 002407   000025 772000                    QRL     21
        28 002410   200074 676100                    ERQ     SEND_FIELD,,AUTO
        28 002411   040000 376007                    ANQ     16384,DL
        28 002412   200074 656100                    ERSQ    SEND_FIELD,,AUTO

  20205 28 002413   200017 236100                    LDQ     RECV_ETT$,,AUTO
        28 002414   200220 756100                    STQ     ST$$,,AUTO
PL6.E3A0      #004=Z8ET$CREATE_SUBROUTINES File=Z8ET.:Z8A6TSI                    SAT 08/09/97 12:48 Page:297

  20206 28 002415   200220 470500                    LDP0    ST$$,,AUTO
        28 002416   000000 222100                    LDX2    0,,PR0
        28 002417   000751 102003                    CMPX2   489,DU
        28 002420   002430 603000 28                 TRC     s:20211

  20207 28 002421   200220 470500                    LDP0    ST$$,,AUTO
        28 002422   000001 236100                    LDQ     1,,PR0
        28 002423   200220 756100                    STQ     ST$$,,AUTO

  20208 28 002424   200220 470500                    LDP0    ST$$,,AUTO
        28 002425   000000 220100                    LDX0    0,,PR0
        28 002426   000751 100003                    CMPX0   489,DU
        28 002427   002421 602000 28                 TNC     s:20207

  20211 28 002430   000002 236100                    LDQ     2,,PR0
        28 002431   000022 772000                    QRL     18
        28 002432   200221 756100                    STQ     ST_TYPE,,AUTO

  20220 28 002433   000004 220003                    LDX0    4,DU
        28 002434   200104 740100                    STX0    RECV_FIELD,,AUTO

  20221 28 002435   000000 221003                    LDX1    0,DU
        28 002436   200104 441100                    SXL1    RECV_FIELD,,AUTO

  20222 28 002437   200110 756100                    STQ     RECV_FIELD+4,,AUTO

  20223 28 002440   000017 236000 29                 LDQ     15
        28 002441   200113 756100                    STQ     RECV_FIELD+7,,AUTO

  20224 28 002442   200017 236100                    LDQ     RECV_ETT$,,AUTO
        28 002443   200105 756100                    STQ     RECV_FIELD+1,,AUTO

  20225 28 002444   000017 236000 29                 LDQ     15
        28 002445   200106 756100                    STQ     RECV_FIELD+2,,AUTO

  20227 28 002446   200217 235100                    LDA     LINE_NO#,,AUTO
PL6.E3A0      #004=Z8ET$CREATE_SUBROUTINES File=Z8ET.:Z8A6TSI                    SAT 08/09/97 12:48 Page:298
        28 002447   200111 755100                    STA     RECV_FIELD+5,,AUTO

  20228 28 002450   200112 450100                    STZ     RECV_FIELD+6,,AUTO

  20240 28 002451   200212 471500                    LDP1    CURRENT$,,AUTO
        28 002452   100000 236100                    LDQ     0,,PR1
        28 002453   020000 316007                    CANQ    8192,DL
        28 002454   002553 600000 28                 TZE     s:20650

  20242 28 002455   200021 633500                    EPPR3   IND$$,,AUTO
        28 002456   200253 453500                    STP3    CETT$$+2,,AUTO
        28 002457   000002 236000 29                 LDQ     2
        28 002460   200252 756100                    STQ     CETT$$+1,,AUTO
        28 002461   200252 630500                    EPPR0   CETT$$+1,,AUTO
        28 002462   000000 631400 29                 EPPR1   0
        28 002463   000000 701000 xent               TSX1    Z8AT$CREATE_TEMPORARY
        28 002464   000000 011000                    NOP     0

  20248 28 002465   000005 220003                    LDX0    5,DU
        28 002466   200144 740100                    STX0    COMPARE,,AUTO

  20249 28 002467   000000 221003                    LDX1    0,DU
        28 002470   200144 441100                    SXL1    COMPARE,,AUTO

  20256 28 002471   000133 235000 xsym               LDA     COMCOM+91
        28 002472   200151 755100                    STA     COMPARE+5,,AUTO

  20257 28 002473   000134 236000 xsym               LDQ     COMCOM+92
        28 002474   200152 756100                    STQ     COMPARE+6,,AUTO

  20258 28 002475   200134 630500                    EPPR0   ZERO,,AUTO
        28 002476   200146 450500                    STP0    COMPARE+2,,AUTO

  20259 28 002477   200154 631500                    EPPR1   IND_FIELD,,AUTO
        28 002500   200145 451500                    STP1    COMPARE+1,,AUTO

  20260 28 002501   000027 235007                    LDA     23,DL
PL6.E3A0      #004=Z8ET$CREATE_SUBROUTINES File=Z8ET.:Z8A6TSI                    SAT 08/09/97 12:48 Page:299
        28 002502   200147 755100                    STA     COMPARE+3,,AUTO

  20261 28 002503   000017 236000 29                 LDQ     15
        28 002504   200153 756100                    STQ     COMPARE+7,,AUTO

  20264 28 002505   200144 633500                    EPPR3   COMPARE,,AUTO
        28 002506   200252 453500                    STP3    CETT$$+1,,AUTO
        28 002507   200252 634500                    EPPR4   CETT$$+1,,AUTO
        28 002510   200255 454500                    STP4    CETT$$+4,,AUTO
        28 002511   200021 635500                    EPPR5   IND$$,,AUTO
        28 002512   200254 455500                    STP5    CETT$$+3,,AUTO
        28 002513   200254 630500                    EPPR0   CETT$$+3,,AUTO
        28 002514   000000 631400 29                 EPPR1   0
        28 002515   000000 701000 xent               TSX1    Z8EK$BRANCH_TRUE
        28 002516   000000 011000                    NOP     0

  20266 28 002517   200104 630500                    EPPR0   RECV_FIELD,,AUTO
        28 002520   200252 450500                    STP0    CETT$$+1,,AUTO
        28 002521   200074 631500                    EPPR1   SEND_FIELD,,AUTO
        28 002522   200253 451500                    STP1    CETT$$+2,,AUTO
        28 002523   200253 633500                    EPPR3   CETT$$+2,,AUTO
        28 002524   200255 453500                    STP3    CETT$$+4,,AUTO
        28 002525   200252 634500                    EPPR4   CETT$$+1,,AUTO
        28 002526   200254 454500                    STP4    CETT$$+3,,AUTO
        28 002527   200254 630500                    EPPR0   CETT$$+3,,AUTO
        28 002530   000000 631400 29                 EPPR1   0
        28 002531   000000 701000 xent               TSX1    Z8E7$MOVE
        28 002532   000000 011000                    NOP     0

  20601 28 002533   000006 236000 29                 LDQ     6
        28 002534   200252 756100                    STQ     CETT$$+1,,AUTO
        28 002535   200252 630500                    EPPR0   CETT$$+1,,AUTO
        28 002536   200257 450500                    STP0    CETT$$+6,,AUTO
        28 002537   000007 236000 29                 LDQ     7
        28 002540   200256 756100                    STQ     CETT$$+5,,AUTO
        28 002541   000010 237000 29                 LDAQ    8
        28 002542   200254 757100                    STAQ    CETT$$+3,,AUTO
PL6.E3A0      #004=Z8ET$CREATE_SUBROUTINES File=Z8ET.:Z8A6TSI                    SAT 08/09/97 12:48 Page:300
        28 002543   200254 630500                    EPPR0   CETT$$+3,,AUTO
        28 002544   000003 631400 29                 EPPR1   3
        28 002545   000000 701000 xent               TSX1    Z8AN$NEW_ILL
        28 002546   000000 011000                    NOP     0

  20602 28 002547   200021 236100                    LDQ     IND$$,,AUTO
        28 002550   000000 470400 18                 LDP0    ILL$
        28 002551   000001 756100                    STQ     1,,PR0

  20648 28 002552   002567 710000 28                 TRA     s:20653

  20650 28 002553   200104 633500                    EPPR3   RECV_FIELD,,AUTO
        28 002554   200252 453500                    STP3    CETT$$+1,,AUTO
        28 002555   200074 634500                    EPPR4   SEND_FIELD,,AUTO
        28 002556   200253 454500                    STP4    CETT$$+2,,AUTO
        28 002557   200253 635500                    EPPR5   CETT$$+2,,AUTO
        28 002560   200255 455500                    STP5    CETT$$+4,,AUTO
        28 002561   200252 636500                    EPPR6   CETT$$+1,,AUTO
        28 002562   200254 456500                    STP6    CETT$$+3,,AUTO
        28 002563   200254 630500                    EPPR0   CETT$$+3,,AUTO
        28 002564   000000 631400 29                 EPPR1   0
        28 002565   000000 701000 xent               TSX1    Z8E7$MOVE
        28 002566   000000 011000                    NOP     0

  20653 28 002567   200212 470500                    LDP0    CURRENT$,,AUTO
        28 002570   000006 236100                    LDQ     6,,PR0
        28 002571   200212 756100                    STQ     CURRENT$,,AUTO

  20654 28 002572   200213 470500                    LDP0    NEXT$,,AUTO
        28 002573   000006 116100                    CMPQ    6,,PR0
        28 002574   001676 601000 28                 TNZ     s:20004

     1682    20657
     1683    20658    3            IF RECORD_LEN < MIN_REC_LEN THEN

  20658 28 002575   200023 236100                    LDQ     RECORD_LEN,,AUTO
        28 002576   200024 116100                    CMPQ    MIN_REC_LEN,,AUTO
PL6.E3A0      #004=Z8ET$CREATE_SUBROUTINES File=Z8ET.:Z8A6TSI                    SAT 08/09/97 12:48 Page:301
        28 002577   002602 605000 28                 TPL     s:20661

     1684    20659    3              RECORD_LEN = MIN_REC_LEN;

  20659 28 002600   200024 235100                    LDA     MIN_REC_LEN,,AUTO
        28 002601   200023 755100                    STA     RECORD_LEN,,AUTO

     1685    20660
     1686    20661    3            CALL Z8AC$LX_ETT_ITEM_TYI_CONST (RECORD_LEN,

  20661 28 002602   200114 631500                    EPPR1   RECORD_LENGTH,,AUTO
        28 002603   200252 451500                    STP1    CETT$$+1,,AUTO
        28 002604   200252 633500                    EPPR3   CETT$$+1,,AUTO
        28 002605   200255 453500                    STP3    CETT$$+4,,AUTO
        28 002606   200023 634500                    EPPR4   RECORD_LEN,,AUTO
        28 002607   200254 454500                    STP4    CETT$$+3,,AUTO
        28 002610   200254 630500                    EPPR0   CETT$$+3,,AUTO
        28 002611   000000 631400 29                 EPPR1   0
        28 002612   000000 701000 xent               TSX1    Z8AC$LX_ETT_ITEM_TYI_CONST
        28 002613   000000 011000                    NOP     0

     1687    20662    3                                             ADDR(RECORD_LENGTH));
     1688    20663
     1689    20664    3            CALL Z9EN$WRITE_NEXT (FILE_LTS$,

  20664 28 002614   000017 236000 29                 LDQ     15
        28 002615   200252 756100                    STQ     CETT$$+1,,AUTO
        28 002616   200253 756100                    STQ     CETT$$+2,,AUTO
        28 002617   200114 630500                    EPPR0   RECORD_LENGTH,,AUTO
        28 002620   200254 450500                    STP0    CETT$$+3,,AUTO
        28 002621   200124 631500                    EPPR1   LINE_FIELD,,AUTO
        28 002622   200255 451500                    STP1    CETT$$+4,,AUTO
        28 002623   200004 633500                    EPPR3   REPORT_CODE_NO,,AUTO
        28 002624   200264 453500                    STP3    CETT$$+11,,AUTO
        28 002625   000045 236000 29                 LDQ     37
        28 002626   200263 756100                    STQ     CETT$$+10,,AUTO
        28 002627   200255 634500                    EPPR4   CETT$$+4,,AUTO
PL6.E3A0      #004=Z8ET$CREATE_SUBROUTINES File=Z8ET.:Z8A6TSI                    SAT 08/09/97 12:48 Page:302
        28 002630   200262 454500                    STP4    CETT$$+9,,AUTO
        28 002631   200254 635500                    EPPR5   CETT$$+3,,AUTO
        28 002632   200261 455500                    STP5    CETT$$+8,,AUTO
        28 002633   200253 636500                    EPPR6   CETT$$+2,,AUTO
        28 002634   200260 456500                    STP6    CETT$$+7,,AUTO
        28 002635   200252 637500                    EPPR7   CETT$$+1,,AUTO
        28 002636   200257 457500                    STP7    CETT$$+6,,AUTO
        28 002637   200027 630500                    EPPR0   FILE_LTS$,,AUTO
        28 002640   200256 450500                    STP0    CETT$$+5,,AUTO
        28 002641   200256 630500                    EPPR0   CETT$$+5,,AUTO
        28 002642   000043 631400 29                 EPPR1   35
        28 002643   000000 701000 xent               TSX1    Z9EN$WRITE_NEXT
        28 002644   000000 011000                    NOP     0

     1690    20665    3                                  ADDR(NIL),
     1691    20666    3                                  ADDR(NIL),
     1692    20667    3                                  ADDR(RECORD_LENGTH),
     1693    20668    3                                  ADDR(LINE_FIELD),
     1694    20669    3                                  %AFTER_LINES,
     1695    20670    3                                  REPORT_CODE_NO);
     1696    20671
     1697    20672
     1698    20673    3            NEXT$ = NEXT$ -> REPORT_GRP_LTS.NEXT;

  20673 28 002645   200213 470500                    LDP0    NEXT$,,AUTO
        28 002646   000006 236100                    LDQ     6,,PR0
        28 002647   200213 756100                    STQ     NEXT$,,AUTO

     1699    20674
     1700    20675    3          END; /* OUTER WHILE */

  20675 28 002650   000017 116000 29                 CMPQ    15
        28 002651   001516 601000 28                 TNZ     s:19538

     1701    20676
     1702    20677               %DB_EXCEPT_LIBRARY_RETURN;

PL6.E3A0      #004=Z8ET$CREATE_SUBROUTINES File=Z8ET.:Z8A6TSI                    SAT 08/09/97 12:48 Page:303
  20887 28 002652   000006 236000 29                 LDQ     6
        28 002653   200252 756100                    STQ     CETT$$+1,,AUTO
        28 002654   200252 630500                    EPPR0   CETT$$+1,,AUTO
        28 002655   200257 450500                    STP0    CETT$$+6,,AUTO
        28 002656   000007 236000 29                 LDQ     7
        28 002657   200256 756100                    STQ     CETT$$+5,,AUTO
        28 002660   000032 237000 29                 LDAQ    26
        28 002661   200254 757100                    STAQ    CETT$$+3,,AUTO
        28 002662   200254 630500                    EPPR0   CETT$$+3,,AUTO
        28 002663   000003 631400 29                 EPPR1   3
        28 002664   000000 701000 xent               TSX1    Z8AN$NEW_ILL
        28 002665   000000 011000                    NOP     0

  20888 28 002666   000001 220003                    LDX0    1,DU
        28 002667   000000 470400 18                 LDP0    ILL$
        28 002670   000000 440100                    SXL0    0,,PR0

  20892 28 002671   000057 470400 xsym               LDP0    O1COM+47
        28 002672   000006 236100                    LDQ     6,,PR0
        28 002673   000000 471400 18                 LDP1    ILL$
        28 002674   100001 756100                    STQ     1,,PR1

     1703    21061
     1704    21062    2    END CREATE_FORMATTING_SUB;

  21062 28 002675   200210 221300                    LDX1  ! SEND$,,AUTO
        28 002676   000001 702211                    TSX2  ! 1,X1

     1705    21063         %EJECT;
PL6.E3A0      #004=Z8ET$CREATE_SUBROUTINES File=Z8ET.:Z8A6TSI                    SAT 08/09/97 12:48 Page:304
     1706    21064         /*================*/
     1707    21065    1      BUILD_FORMAT_SUB: PROC;

  21065 28 002677   200206 741300       BUILD_FORMA* STX1  ! CTR_LVL_ETT$+2,,AUTO

     1708    21066         /*================*/
     1709    21067
     1710    21068        /*I*
     1711    21069
     1712    21070             NAME:  BUILD_FORMAT_SUB
     1713    21071
     1714    21072          DESCRIPTION: This routine steps through the report LTS item and
     1715    21073                       calls CREATE_FORMATTING_SUB to create the subroutines
     1716    21074                       that will print--- report heading, report footing,
     1717    21075                       detail, page heading, page footing, control heading
     1718    21076                       and control footing groups.
     1719    21077        */
     1720    21078
     1721    21079
     1722    21080    2          IF LTS$$ -> REPORT_LTS.REPORT_HEADING$ ~= ADDR(NIL) THEN

  21080 28 002700   200003 470500                    LDP0    @LTS$$,,AUTO
        28 002701   000000 471500                    LDP1    0,,PR0
        28 002702   100023 236100                    LDQ     19,,PR1
        28 002703   000017 116000 29                 CMPQ    15
        28 002704   002711 600000 28                 TZE     s:21083

     1723    21081    2              CALL CREATE_FORMATTING_SUB (LTS$$ -> REPORT_LTS.REPORT_HEADING$);

  21081 28 002705   100023 633500                    EPPR3   19,,PR1
        28 002706   200211 453500                    STP3    @GROUP$,,AUTO
        28 002707   000353 701000 28                 TSX1    CREATE_FORMATTING_SUB
        28 002710   000000 011000                    NOP     0

     1724    21082
     1725    21083    2          IF LTS$$ -> REPORT_LTS.REPORT_FOOTING$ ~= ADDR(NIL) THEN

PL6.E3A0      #004=Z8ET$CREATE_SUBROUTINES File=Z8ET.:Z8A6TSI                    SAT 08/09/97 12:48 Page:305
  21083 28 002711   200003 470500                    LDP0    @LTS$$,,AUTO
        28 002712   000000 471500                    LDP1    0,,PR0
        28 002713   100033 236100                    LDQ     27,,PR1
        28 002714   000017 116000 29                 CMPQ    15
        28 002715   002722 600000 28                 TZE     s:21086

     1726    21084    2              CALL CREATE_FORMATTING_SUB (LTS$$ -> REPORT_LTS.REPORT_FOOTING$);

  21084 28 002716   100033 633500                    EPPR3   27,,PR1
        28 002717   200211 453500                    STP3    @GROUP$,,AUTO
        28 002720   000353 701000 28                 TSX1    CREATE_FORMATTING_SUB
        28 002721   000000 011000                    NOP     0

     1727    21085
     1728    21086    2          IF LTS$$ -> REPORT_LTS.PAGE_HEADING$ ~= ADDR(NIL) THEN

  21086 28 002722   200003 470500                    LDP0    @LTS$$,,AUTO
        28 002723   000000 471500                    LDP1    0,,PR0
        28 002724   100024 236100                    LDQ     20,,PR1
        28 002725   000017 116000 29                 CMPQ    15
        28 002726   002733 600000 28                 TZE     s:21089

     1729    21087    2              CALL CREATE_FORMATTING_SUB (LTS$$ -> REPORT_LTS.PAGE_HEADING$);

  21087 28 002727   100024 633500                    EPPR3   20,,PR1
        28 002730   200211 453500                    STP3    @GROUP$,,AUTO
        28 002731   000353 701000 28                 TSX1    CREATE_FORMATTING_SUB
        28 002732   000000 011000                    NOP     0

     1730    21088
     1731    21089    2          IF LTS$$ -> REPORT_LTS.PAGE_FOOTING$ ~= ADDR(NIL) THEN

  21089 28 002733   200003 470500                    LDP0    @LTS$$,,AUTO
        28 002734   000000 471500                    LDP1    0,,PR0
        28 002735   100032 236100                    LDQ     26,,PR1
        28 002736   000017 116000 29                 CMPQ    15
        28 002737   002744 600000 28                 TZE     s:21092
PL6.E3A0      #004=Z8ET$CREATE_SUBROUTINES File=Z8ET.:Z8A6TSI                    SAT 08/09/97 12:48 Page:306

     1732    21090    2              CALL CREATE_FORMATTING_SUB (LTS$$ -> REPORT_LTS.PAGE_FOOTING$);

  21090 28 002740   100032 633500                    EPPR3   26,,PR1
        28 002741   200211 453500                    STP3    @GROUP$,,AUTO
        28 002742   000353 701000 28                 TSX1    CREATE_FORMATTING_SUB
        28 002743   000000 011000                    NOP     0

     1733    21091
     1734    21092    2          DETAIL_GRP$ = LTS$$ -> REPORT_LTS.DETAIL$;

  21092 28 002744   200003 470500                    LDP0    @LTS$$,,AUTO
        28 002745   000000 471500                    LDP1    0,,PR0
        28 002746   100027 236100                    LDQ     23,,PR1
        28 002747   200052 756100                    STQ     DETAIL_GRP$,,AUTO

     1735    21093
     1736    21094    3          DO WHILE (DETAIL_GRP$ ~= ADDR(NIL));

  21094 28 002750   003021 710000 28                 TRA     s:21133

     1737    21095
     1738    21096    3            IF DETAIL_GRP$ -> REPORT_01_LTS.B.GROUP_INDICATE THEN

  21096 28 002751   200052 470500                    LDP0    DETAIL_GRP$,,AUTO
        28 002752   000000 236100                    LDQ     0,,PR0
        28 002753   020000 316007                    CANQ    8192,DL
        28 002754   003012 600000 28                 TZE     s:21129

     1739    21097    4              DO;

     1740    21098    4                CALL Z8AF$NEW_BASE (DETAIL_GRP$ -> REPORT_01_LTS.GROUP_INDICATOR$,

  21098 28 002755   000017 236000 29                 LDQ     15
        28 002756   200252 756100                    STQ     CETT$$+1,,AUTO
        28 002757   200022 631500                    EPPR1   IND_ETT$,,AUTO
        28 002760   200255 451500                    STP1    CETT$$+4,,AUTO
PL6.E3A0      #004=Z8ET$CREATE_SUBROUTINES File=Z8ET.:Z8A6TSI                    SAT 08/09/97 12:48 Page:307
        28 002761   200252 633500                    EPPR3   CETT$$+1,,AUTO
        28 002762   200254 453500                    STP3    CETT$$+3,,AUTO
        28 002763   200052 236100                    LDQ     DETAIL_GRP$,,AUTO
        28 002764   000023 036003                    ADLQ    19,DU
        28 002765   200253 756100                    STQ     CETT$$+2,,AUTO
        28 002766   200253 630500                    EPPR0   CETT$$+2,,AUTO
        28 002767   000030 631400 29                 EPPR1   24
        28 002770   000000 701000 xent               TSX1    Z8AF$NEW_BASE
        28 002771   000000 011000                    NOP     0

     1741    21099    4                                    ADDR(NIL),
     1742    21100    4                                    IND_ETT$);
     1743    21101
     1744    21102                     %INIT_LX_ETT_ITEM (@POINTER = "ADDR(IND_FIELD)",
     1745    21103                                        @TYPE    = %TYI,
     1746    21104                                        @ETT$    = IND_ETT$);

  21106 28 002772   000004 220003                    LDX0    4,DU
        28 002773   200154 740100                    STX0    IND_FIELD,,AUTO

  21107 28 002774   000000 221003                    LDX1    0,DU
        28 002775   200154 441100                    SXL1    IND_FIELD,,AUTO

  21108 28 002776   000001 235007                    LDA     1,DL
        28 002777   200160 755100                    STA     IND_FIELD+4,,AUTO

  21109 28 003000   000017 236000 29                 LDQ     15
        28 003001   200163 756100                    STQ     IND_FIELD+7,,AUTO

  21110 28 003002   200022 236100                    LDQ     IND_ETT$,,AUTO
        28 003003   200155 756100                    STQ     IND_FIELD+1,,AUTO

  21111 28 003004   000017 236000 29                 LDQ     15
        28 003005   200156 756100                    STQ     IND_FIELD+2,,AUTO

  21113 28 003006   000133 235000 xsym               LDA     COMCOM+91
        28 003007   200161 755100                    STA     IND_FIELD+5,,AUTO
PL6.E3A0      #004=Z8ET$CREATE_SUBROUTINES File=Z8ET.:Z8A6TSI                    SAT 08/09/97 12:48 Page:308

  21114 28 003010   000134 235000 xsym               LDA     COMCOM+92
        28 003011   200162 755100                    STA     IND_FIELD+6,,AUTO

     1747    21126
     1748    21127    4              END;

     1749    21128
     1750    21129    3            CALL CREATE_FORMATTING_SUB (DETAIL_GRP$);

  21129 28 003012   200052 630500                    EPPR0   DETAIL_GRP$,,AUTO
        28 003013   200211 450500                    STP0    @GROUP$,,AUTO
        28 003014   000353 701000 28                 TSX1    CREATE_FORMATTING_SUB
        28 003015   000000 011000                    NOP     0

     1751    21130
     1752    21131    3            DETAIL_GRP$ = DETAIL_GRP$ -> REPORT_01_LTS.LINK;

  21131 28 003016   200052 470500                    LDP0    DETAIL_GRP$,,AUTO
        28 003017   000007 236100                    LDQ     7,,PR0
        28 003020   200052 756100                    STQ     DETAIL_GRP$,,AUTO

     1753    21132
     1754    21133    3          END; /* WHILE */

  21133 28 003021   000017 116000 29                 CMPQ    15
        28 003022   002751 601000 28                 TNZ     s:21096

     1755    21134
     1756    21135    2          IF LTS$$ -> REPORT_LTS.B.CONTROL_FINAL THEN

  21135 28 003023   200003 470500                    LDP0    @LTS$$,,AUTO
        28 003024   000000 471500                    LDP1    0,,PR0
        28 003025   100003 236100                    LDQ     3,,PR1
        28 003026   200000 316003                    CANQ    65536,DU
        28 003027   003052 600000 28                 TZE     s:21149

PL6.E3A0      #004=Z8ET$CREATE_SUBROUTINES File=Z8ET.:Z8A6TSI                    SAT 08/09/97 12:48 Page:309
     1757    21136    3            DO;

     1758    21137    3              IF LTS$$ -> REPORT_LTS.CONTROL_FINAL$ -> CONTROL_NAME_LTS.
             21137                       CONTROL_HEADING$

  21137 28 003030   100006 473500                    LDP3    6,,PR1
        28 003031   300002 236100                    LDQ     2,,PR3
        28 003032   000017 116000 29                 CMPQ    15
        28 003033   003040 600000 28                 TZE     s:21142

     1759    21138    3                          ~= ADDR(NIL) THEN
     1760    21139    3                CALL CREATE_FORMATTING_SUB (LTS$$ -> REPORT_LTS.CONTROL_FINAL$ ->

  21139 28 003034   300002 634500                    EPPR4   2,,PR3
        28 003035   200211 454500                    STP4    @GROUP$,,AUTO
        28 003036   000353 701000 28                 TSX1    CREATE_FORMATTING_SUB
        28 003037   000000 011000                    NOP     0

     1761    21140    3                          CONTROL_NAME_LTS.CONTROL_HEADING$);
     1762    21141
     1763    21142    3              IF LTS$$ -> REPORT_LTS.CONTROL_FINAL$ -> CONTROL_NAME_LTS.
             21142                       CONTROL_FOOTING$

  21142 28 003040   200003 470500                    LDP0    @LTS$$,,AUTO
        28 003041   000000 471500                    LDP1    0,,PR0
        28 003042   100006 473500                    LDP3    6,,PR1
        28 003043   300003 236100                    LDQ     3,,PR3
        28 003044   000017 116000 29                 CMPQ    15
        28 003045   003052 600000 28                 TZE     s:21149

     1764    21143    3                          ~= ADDR(NIL) THEN
     1765    21144    3                CALL CREATE_FORMATTING_SUB (LTS$$ -> REPORT_LTS.CONTROL_FINAL$ ->

  21144 28 003046   300003 634500                    EPPR4   3,,PR3
        28 003047   200211 454500                    STP4    @GROUP$,,AUTO
        28 003050   000353 701000 28                 TSX1    CREATE_FORMATTING_SUB
        28 003051   000000 011000                    NOP     0
PL6.E3A0      #004=Z8ET$CREATE_SUBROUTINES File=Z8ET.:Z8A6TSI                    SAT 08/09/97 12:48 Page:310

     1766    21145    3                          CONTROL_NAME_LTS.CONTROL_FOOTING$);
     1767    21146
     1768    21147    3            END;

     1769    21148
     1770    21149    2          IF LTS$$ -> REPORT_LTS.CONTROL$ ~= ADDR(NIL) THEN

  21149 28 003052   200003 470500                    LDP0    @LTS$$,,AUTO
        28 003053   000000 471500                    LDP1    0,,PR0
        28 003054   100005 236100                    LDQ     5,,PR1
        28 003055   000017 116000 29                 CMPQ    15
        28 003056   003123 600000 28                 TZE     s:21164

     1771    21150    3            DO;

     1772    21151    4              DO I = 1 TO LTS$$ -> REPORT_LTS.CONTROL$ -> LTS_PTR_ARRAY.N - 3;

  21151 28 003057   000001 235007                    LDA     1,DL
        28 003060   200007 755100                    STA     I,,AUTO
        28 003061   003113 710000 28                 TRA     s:21161+1

     1773    21152    4                IF LTS$$ -> REPORT_LTS.CONTROL$ -> LTS_PTR_ARRAY.P$(I) ->

  21152 28 003062   200003 470500                    LDP0    @LTS$$,,AUTO
        28 003063   000000 471500                    LDP1    0,,PR0
        28 003064   100005 473500                    LDP3    5,,PR1
        28 003065   200007 720100                    LXL0    I,,AUTO
        28 003066   300002 474510                    LDP4    2,X0,PR3
        28 003067   400002 236100                    LDQ     2,,PR4
        28 003070   000017 116000 29                 CMPQ    15
        28 003071   003076 600000 28                 TZE     s:21156

     1774    21153    4                          CONTROL_NAME_LTS.CONTROL_HEADING$ ~= ADDR(NIL) THEN
     1775    21154    4                  CALL CREATE_FORMATTING_SUB (LTS$$ -> REPORT_LTS.CONTROL$ ->

  21154 28 003072   400002 635500                    EPPR5   2,,PR4
PL6.E3A0      #004=Z8ET$CREATE_SUBROUTINES File=Z8ET.:Z8A6TSI                    SAT 08/09/97 12:48 Page:311
        28 003073   200211 455500                    STP5    @GROUP$,,AUTO
        28 003074   000353 701000 28                 TSX1    CREATE_FORMATTING_SUB
        28 003075   000000 011000                    NOP     0

     1776    21155    4                          LTS_PTR_ARRAY.P$ (I) -> CONTROL_NAME_LTS.CONTROL_HEADING$);
     1777    21156    4                IF LTS$$ -> REPORT_LTS.CONTROL$ -> LTS_PTR_ARRAY.P$(I) ->

  21156 28 003076   200003 470500                    LDP0    @LTS$$,,AUTO
        28 003077   000000 471500                    LDP1    0,,PR0
        28 003100   100005 473500                    LDP3    5,,PR1
        28 003101   200007 720100                    LXL0    I,,AUTO
        28 003102   300002 474510                    LDP4    2,X0,PR3
        28 003103   400003 236100                    LDQ     3,,PR4
        28 003104   000017 116000 29                 CMPQ    15
        28 003105   003112 600000 28                 TZE     s:21161

     1778    21157    4                          CONTROL_NAME_LTS.CONTROL_FOOTING$ ~= ADDR(NIL) THEN
     1779    21158    4                  CALL CREATE_FORMATTING_SUB (LTS$$ -> REPORT_LTS.CONTROL$ ->

  21158 28 003106   400003 635500                    EPPR5   3,,PR4
        28 003107   200211 455500                    STP5    @GROUP$,,AUTO
        28 003110   000353 701000 28                 TSX1    CREATE_FORMATTING_SUB
        28 003111   000000 011000                    NOP     0

     1780    21159    4                          LTS_PTR_ARRAY.P$ (I) -> CONTROL_NAME_LTS.CONTROL_FOOTING$);
     1781    21160
     1782    21161    4              END;

  21161 28 003112   200007 054100                    AOS     I,,AUTO
        28 003113   200003 470500                    LDP0    @LTS$$,,AUTO
        28 003114   000000 471500                    LDP1    0,,PR0
        28 003115   100005 473500                    LDP3    5,,PR1
        28 003116   300000 236100                    LDQ     0,,PR3
        28 003117   777777 376007                    ANQ     -1,DL
        28 003120   000003 136007                    SBLQ    3,DL
        28 003121   200007 116100                    CMPQ    I,,AUTO
        28 003122   003062 605000 28                 TPL     s:21152
PL6.E3A0      #004=Z8ET$CREATE_SUBROUTINES File=Z8ET.:Z8A6TSI                    SAT 08/09/97 12:48 Page:312

     1783    21162    3            END;

     1784    21163
     1785    21164    2          LTS$$ -> REPORT_LTS.BUFFER_ST$ -> SCALAR.B.ELEMENTARY = FALSE;

  21164 28 003123   100034 473500                    LDP3    28,,PR1
        28 003124   000046 236000 29                 LDQ     38
        28 003125   300003 356100                    ANSQ    3,,PR3

     1786    21165
     1787    21166    2    END BUILD_FORMAT_SUB;

  21166 28 003126   200206 221300                    LDX1  ! CTR_LVL_ETT$+2,,AUTO
        28 003127   000001 702211                    TSX2  ! 1,X1

     1788    21167         %EJECT;
PL6.E3A0      #004=Z8ET$CREATE_SUBROUTINES File=Z8ET.:Z8A6TSI                    SAT 08/09/97 12:48 Page:313
     1789    21168
     1790    21169         /*============*/
     1791    21170    1      STORE_EDITED:  PROC (CONTROL$$);

  21170 28 003130   200206 741300       STORE_EDITED STX1  ! CTR_LVL_ETT$+2,,AUTO

     1792    21171         /*============*/
     1793    21172
     1794    21173        /*I*
     1795    21174
     1796    21175             NAME:  STORE_EDITED
     1797    21176
     1798    21177          DESCRIPTION: When a control item's data type is numeric edited
     1799    21178                       or alphanumeric edited, they need special processes,
     1800    21179                       i.e. save there data type and pretend that they are
     1801    21180                       type alphanumeric during the swapping process.
     1802    21181         */
     1803    21182
     1804    21183    2    DCL CONTROL$$         PTR;
     1805    21184    2    DCL NAME$             PTR;
     1806    21185    2    DCL ST$$              PTR;
     1807    21186
     1808    21187
     1809    21188    3      DO I = 1 TO CONTROL$$ -> LTS_PTR_ARRAY.N - 3;

  21188 28 003131   000001 235007                    LDA     1,DL
        28 003132   200007 755100                    STA     I,,AUTO
        28 003133   003171 710000 28                 TRA     s:21203+1

     1810    21189
     1811    21190    3        NAME$ = CONTROL$$ -> LTS_PTR_ARRAY.P$(I);

  21190 28 003134   200207 470500                    LDP0    @CONTROL$$,,AUTO
        28 003135   000000 471500                    LDP1    0,,PR0
        28 003136   200007 720100                    LXL0    I,,AUTO
        28 003137   100002 236110                    LDQ     2,X0,PR1
        28 003140   200210 756100                    STQ     NAME$,,AUTO
PL6.E3A0      #004=Z8ET$CREATE_SUBROUTINES File=Z8ET.:Z8A6TSI                    SAT 08/09/97 12:48 Page:314

     1812    21191    3        ST$$ = NAME$ -> CONTROL_NAME_LTS.ST$;

  21191 28 003141   200210 473500                    LDP3    NAME$,,AUTO
        28 003142   300001 236100                    LDQ     1,,PR3
        28 003143   200211 756100                    STQ     ST$$,,AUTO

     1813    21192
     1814    21193    3        IF ST$$ -> SCALAR.B.CLASS = %CLASS_NUMERIC_EDITED OR

  21193 28 003144   200211 474500                    LDP4    ST$$,,AUTO
        28 003145   400003 236100                    LDQ     3,,PR4
        28 003146   000007 376007                    ANQ     7,DL
        28 003147   000005 116007                    CMPQ    5,DL
        28 003150   003153 600000 28                 TZE     s:21196
        28 003151   000007 116007                    CMPQ    7,DL
        28 003152   003166 601000 28                 TNZ     s:21201

     1815    21194    3           ST$$ -> SCALAR.B.CLASS = %CLASS_ALPHANUMERIC_EDITED THEN
     1816    21195    4          DO;

     1817    21196    4            NAME$ -> CONTROL_NAME_LTS.B.CLASS_EDITED = TRUE;

  21196 28 003153   400000 236007                    LDQ     -131072,DL
        28 003154   300000 256100                    ORSQ    0,,PR3

     1818    21197    4            NAME$ -> CONTROL_NAME_LTS.B.CLASS = ST$$ -> SCALAR.B.CLASS;

  21197 28 003155   400003 236100                    LDQ     3,,PR4
        28 003156   300000 676100                    ERQ     0,,PR3
        28 003157   000007 376007                    ANQ     7,DL
        28 003160   300000 656100                    ERSQ    0,,PR3

     1819    21198    4            ST$$ -> SCALAR.B.CLASS = %CLASS_ALPHANUMERIC;

  21198 28 003161   400003 236100                    LDQ     3,,PR4
        28 003162   000047 376000 29                 ANQ     39
PL6.E3A0      #004=Z8ET$CREATE_SUBROUTINES File=Z8ET.:Z8A6TSI                    SAT 08/09/97 12:48 Page:315
        28 003163   000003 276007                    ORQ     3,DL
        28 003164   400003 756100                    STQ     3,,PR4

     1820    21199    4          END;

  21199 28 003165   003170 710000 28                 TRA     s:21203

     1821    21200    3        ELSE
     1822    21201    3          NAME$ -> CONTROL_NAME_LTS.B.CLASS_EDITED = FALSE;

  21201 28 003166   000037 236000 29                 LDQ     31
        28 003167   300000 356100                    ANSQ    0,,PR3

     1823    21202
     1824    21203    3      END;

  21203 28 003170   200007 054100                    AOS     I,,AUTO
        28 003171   200207 470500                    LDP0    @CONTROL$$,,AUTO
        28 003172   000000 471500                    LDP1    0,,PR0
        28 003173   100000 236100                    LDQ     0,,PR1
        28 003174   777777 376007                    ANQ     -1,DL
        28 003175   000003 136007                    SBLQ    3,DL
        28 003176   200007 116100                    CMPQ    I,,AUTO
        28 003177   003134 605000 28                 TPL     s:21190

     1825    21204
     1826    21205    2    END STORE_EDITED;

  21205 28 003200   200206 221300                    LDX1  ! CTR_LVL_ETT$+2,,AUTO
        28 003201   000001 702211                    TSX2  ! 1,X1

     1827    21206         %EJECT;
PL6.E3A0      #004=Z8ET$CREATE_SUBROUTINES File=Z8ET.:Z8A6TSI                    SAT 08/09/97 12:48 Page:316
     1828    21207
     1829    21208         /*==============*/
     1830    21209    1      RESTORE_EDITED: PROC (CONTROL$$);

  21209 28 003202   200206 741300       RESTORE_EDI* STX1  ! CTR_LVL_ETT$+2,,AUTO

     1831    21210         /*==============*/
     1832    21211
     1833    21212        /*I*
     1834    21213
     1835    21214             NAME:  RESTORE_EDITED
     1836    21215
     1837    21216          DESCRIPTION: This routine restore the original data type of the
     1838    21217                       edited type control items after the swapping process.
     1839    21218         */
     1840    21219
     1841    21220
     1842    21221    2    DCL CONTROL$$         PTR;
     1843    21222    2    DCL ST$$              PTR;
     1844    21223    2    DCL NAME$             PTR;
     1845    21224
     1846    21225
     1847    21226    3      DO I = 1 TO CONTROL$$ -> LTS_PTR_ARRAY.N - 3;

  21226 28 003203   000001 235007                    LDA     1,DL
        28 003204   200007 755100                    STA     I,,AUTO
        28 003205   003224 710000 28                 TRA     s:21234+1

     1848    21227
     1849    21228    3        NAME$ = CONTROL$$ -> LTS_PTR_ARRAY.P$(I);

  21228 28 003206   200207 470500                    LDP0    @CONTROL$$,,AUTO
        28 003207   000000 471500                    LDP1    0,,PR0
        28 003210   200007 720100                    LXL0    I,,AUTO
        28 003211   100002 236110                    LDQ     2,X0,PR1
        28 003212   200211 756100                    STQ     NAME$,,AUTO

PL6.E3A0      #004=Z8ET$CREATE_SUBROUTINES File=Z8ET.:Z8A6TSI                    SAT 08/09/97 12:48 Page:317
     1850    21229
     1851    21230    3        IF NAME$ -> CONTROL_NAME_LTS.B.CLASS_EDITED THEN

  21230 28 003213   200211 473500                    LDP3    NAME$,,AUTO
        28 003214   300000 236100                    LDQ     0,,PR3
        28 003215   400000 316007                    CANQ    -131072,DL
        28 003216   003223 600000 28                 TZE     s:21234

     1852    21231    3           NAME$ -> CONTROL_NAME_LTS.ST$ -> SCALAR.B.CLASS =

  21231 28 003217   300001 474500                    LDP4    1,,PR3
        28 003220   400003 676100                    ERQ     3,,PR4
        28 003221   000007 376007                    ANQ     7,DL
        28 003222   400003 656100                    ERSQ    3,,PR4

     1853    21232    3             NAME$ -> CONTROL_NAME_LTS.B.CLASS;
     1854    21233
     1855    21234    3      END;

  21234 28 003223   200007 054100                    AOS     I,,AUTO
        28 003224   200207 470500                    LDP0    @CONTROL$$,,AUTO
        28 003225   000000 471500                    LDP1    0,,PR0
        28 003226   100000 236100                    LDQ     0,,PR1
        28 003227   777777 376007                    ANQ     -1,DL
        28 003230   000003 136007                    SBLQ    3,DL
        28 003231   200007 116100                    CMPQ    I,,AUTO
        28 003232   003206 605000 28                 TPL     s:21228

     1856    21235    2    END RESTORE_EDITED;

  21235 28 003233   200206 221300                    LDX1  ! CTR_LVL_ETT$+2,,AUTO
        28 003234   000001 702211                    TSX2  ! 1,X1

     1857    21236         %EJECT;
PL6.E3A0      #004=Z8ET$CREATE_SUBROUTINES File=Z8ET.:Z8A6TSI                    SAT 08/09/97 12:48 Page:318
     1858    21237
     1859    21238         /*================*/
     1860    21239    1      BUILD_CTR_FIELDS: PROC (CONTROL$$);

  21239 28 003235   200206 741300       BUILD_CTR_F* STX1  ! CTR_LVL_ETT$+2,,AUTO

     1861    21240         /*================*/
     1862    21241
     1863    21242        /*I*
     1864    21243
     1865    21244             NAME:  BUILD_CTR_FIELD
     1866    21245
     1867    21246          DESCRIPTION: This routine creates the ST and LX_ETT items for
     1868    21247                       shadow and temporary field of the control items.
     1869    21248        */
     1870    21249
     1871    21250
     1872    21251    2   DCL CONTROL$$          PTR;
     1873    21252    2   DCL NAME$              PTR;
     1874    21253    2   DCL ETT$$              PTR;
     1875    21254    2   DCL ST$$               PTR;
     1876    21255
     1877    21256
     1878    21257        %MACRO BUILD_LX_ETT (@ST$$ = ,
     1879    21258                             @FIELD$ = );
     1880    21259           DO;
     1881    21260               ST$$ = @ST$$;
     1882    21261               CALL Z8AF$NEW_BASE (ST$$,
     1883    21262                                   ADDR(NIL),
     1884    21263                                   ETT$$);
     1885    21264
     1886    21265               %NEW_HEAP (@POINTER = @FIELD$);
     1887    21266
     1888    21267               %INIT_LX_ETT_ITEM (@POINTER = @FIELD$,
     1889    21268                                  @TYPE    = ST$$ -> SCALAR.TYPE,
     1890    21269                                  @ETT$    = ETT$$);
     1891    21270
PL6.E3A0      #004=Z8ET$CREATE_SUBROUTINES File=Z8ET.:Z8A6TSI                    SAT 08/09/97 12:48 Page:319
     1892    21271           END;
     1893    21272        %MEND;
     1894    21273        %EJECT;
PL6.E3A0      #004=Z8ET$CREATE_SUBROUTINES File=Z8ET.:Z8A6TSI                    SAT 08/09/97 12:48 Page:320
     1895    21274
     1896    21275
     1897    21276    3          DO I = 1 TO CONTROL$$ -> LTS_PTR_ARRAY.N - 3;

  21276 28 003236   000001 235007                    LDA     1,DL
        28 003237   200007 755100                    STA     I,,AUTO
        28 003240   003531 710000 28                 TRA     s:21409+1

     1898    21277
     1899    21278    3            NAME$ = CONTROL$$ -> LTS_PTR_ARRAY.P$(I);

  21278 28 003241   200207 470500                    LDP0    @CONTROL$$,,AUTO
        28 003242   000000 471500                    LDP1    0,,PR0
        28 003243   200007 720100                    LXL0    I,,AUTO
        28 003244   100002 236110                    LDQ     2,X0,PR1
        28 003245   200210 756100                    STQ     NAME$,,AUTO

     1900    21279
     1901    21280    3            IF NAME$ -> CONTROL_NAME_LTS.ST$ -> SCALAR.TYPE = %TYX  OR

  21280 28 003246   200210 473500                    LDP3    NAME$,,AUTO
        28 003247   300001 474500                    LDP4    1,,PR3
        28 003250   400002 221100                    LDX1    2,,PR4
        28 003251   000011 101003                    CMPX1   9,DU
        28 003252   003255 600000 28                 TZE     s:21282
        28 003253   000012 101003                    CMPX1   10,DU
        28 003254   003261 601000 28                 TNZ     s:21286

     1902    21281    3               NAME$ -> CONTROL_NAME_LTS.ST$ -> SCALAR.TYPE = %TYY THEN
     1903    21282    3               NAME$ -> CONTROL_NAME_LTS.ST$ = NAME$ -> CONTROL_NAME_LTS.ST$ ->

  21282 28 003255   400007 475500                    LDP5    7,,PR4
        28 003256   500002 476500                    LDP6    2,,PR5
        28 003257   600004 236100                    LDQ     4,,PR6
        28 003260   300001 756100                    STQ     1,,PR3

     1904    21283    3               SCALAR.QLT$ -> QLT.BROTHER -> QLT.ST$;
PL6.E3A0      #004=Z8ET$CREATE_SUBROUTINES File=Z8ET.:Z8A6TSI                    SAT 08/09/97 12:48 Page:321
     1905    21284
     1906    21285
     1907    21286    3            CALL CREATE_SHADOW_ST (NAME$ -> CONTROL_NAME_LTS.ST$,

  21286 28 003261   200210 236100                    LDQ     NAME$,,AUTO
        28 003262   000011 036003                    ADLQ    9,DU
        28 003263   200216 756100                    STQ     LINE_SPAN,,AUTO
        28 003264   200210 236100                    LDQ     NAME$,,AUTO
        28 003265   000001 036003                    ADLQ    1,DU
        28 003266   200215 756100                    STQ     PREV$,,AUTO
        28 003267   003616 701000 28                 TSX1    CREATE_SHADOW_ST
        28 003270   000000 011000                    NOP     0

     1908    21287    3                                   NAME$ -> CONTROL_NAME_LTS.TEMP$);
     1909    21288
     1910    21289    3            CALL CREATE_SHADOW_ST (NAME$ -> CONTROL_NAME_LTS.ST$,

  21289 28 003271   200210 236100                    LDQ     NAME$,,AUTO
        28 003272   000012 036003                    ADLQ    10,DU
        28 003273   200216 756100                    STQ     LINE_SPAN,,AUTO
        28 003274   200210 236100                    LDQ     NAME$,,AUTO
        28 003275   000001 036003                    ADLQ    1,DU
        28 003276   200215 756100                    STQ     PREV$,,AUTO
        28 003277   003616 701000 28                 TSX1    CREATE_SHADOW_ST
        28 003300   000000 011000                    NOP     0

     1911    21290    3                                   NAME$ -> CONTROL_NAME_LTS.SHADOW$);
     1912    21291
     1913    21292                 %BUILD_LX_ETT (@ST$$ = NAME$ -> CONTROL_NAME_LTS.ST$,
     1914    21293                                @FIELD$ = NAME$ -> CONTROL_NAME_LTS.ST_FIELD$);

  21295 28 003301   200210 470500                    LDP0    NAME$,,AUTO
        28 003302   000001 236100                    LDQ     1,,PR0
        28 003303   200212 756100                    STQ     ST$$,,AUTO

  21296 28 003304   000017 236000 29                 LDQ     15
        28 003305   200252 756100                    STQ     CETT$$+1,,AUTO
PL6.E3A0      #004=Z8ET$CREATE_SUBROUTINES File=Z8ET.:Z8A6TSI                    SAT 08/09/97 12:48 Page:322
        28 003306   200211 631500                    EPPR1   ETT$$,,AUTO
        28 003307   200255 451500                    STP1    CETT$$+4,,AUTO
        28 003310   200252 633500                    EPPR3   CETT$$+1,,AUTO
        28 003311   200254 453500                    STP3    CETT$$+3,,AUTO
        28 003312   200212 634500                    EPPR4   ST$$,,AUTO
        28 003313   200253 454500                    STP4    CETT$$+2,,AUTO
        28 003314   200253 630500                    EPPR0   CETT$$+2,,AUTO
        28 003315   000030 631400 29                 EPPR1   24
        28 003316   000000 701000 xent               TSX1    Z8AF$NEW_BASE
        28 003317   000000 011000                    NOP     0

  21301 28 003320   000051 236000 29                 LDQ     41
        28 003321   200253 756100                    STQ     CETT$$+2,,AUTO
        28 003322   200210 236100                    LDQ     NAME$,,AUTO
        28 003323   000013 036003                    ADLQ    11,DU
        28 003324   200252 756100                    STQ     CETT$$+1,,AUTO
        28 003325   200252 630500                    EPPR0   CETT$$+1,,AUTO
        28 003326   000000 631400 29                 EPPR1   0
        28 003327   000000 701000 xent               TSX1    Z8ED$NEW_HEAP
        28 003330   000000 011000                    NOP     0

  21308 28 003331   200210 470500                    LDP0    NAME$,,AUTO
        28 003332   000013 471500                    LDP1    11,,PR0
        28 003333   000004 220003                    LDX0    4,DU
        28 003334   100000 740100                    STX0    0,,PR1

  21309 28 003335   000013 471500                    LDP1    11,,PR0
        28 003336   000000 221003                    LDX1    0,DU
        28 003337   100000 441100                    SXL1    0,,PR1

  21310 28 003340   000013 471500                    LDP1    11,,PR0
        28 003341   200212 473500                    LDP3    ST$$,,AUTO
        28 003342   300002 236100                    LDQ     2,,PR3
        28 003343   000022 772000                    QRL     18
        28 003344   100004 756100                    STQ     4,,PR1

  21311 28 003345   000013 471500                    LDP1    11,,PR0
PL6.E3A0      #004=Z8ET$CREATE_SUBROUTINES File=Z8ET.:Z8A6TSI                    SAT 08/09/97 12:48 Page:323
        28 003346   000017 236000 29                 LDQ     15
        28 003347   100007 756100                    STQ     7,,PR1

  21312 28 003350   000013 471500                    LDP1    11,,PR0
        28 003351   200211 236100                    LDQ     ETT$$,,AUTO
        28 003352   100001 756100                    STQ     1,,PR1

  21313 28 003353   000013 471500                    LDP1    11,,PR0
        28 003354   000017 236000 29                 LDQ     15
        28 003355   100002 756100                    STQ     2,,PR1

  21315 28 003356   000013 471500                    LDP1    11,,PR0
        28 003357   000133 235000 xsym               LDA     COMCOM+91
        28 003360   100005 755100                    STA     5,,PR1

  21316 28 003361   000013 471500                    LDP1    11,,PR0
        28 003362   000134 235000 xsym               LDA     COMCOM+92
        28 003363   100006 755100                    STA     6,,PR1

     1915    21330
     1916    21331                 %BUILD_LX_ETT (@ST$$ = NAME$ -> CONTROL_NAME_LTS.TEMP$,
     1917    21332                                @FIELD$ = NAME$ -> CONTROL_NAME_LTS.TEMP_FIELD$);

  21334 28 003364   000011 236100                    LDQ     9,,PR0
        28 003365   200212 756100                    STQ     ST$$,,AUTO

  21335 28 003366   000017 236000 29                 LDQ     15
        28 003367   200252 756100                    STQ     CETT$$+1,,AUTO
        28 003370   200211 631500                    EPPR1   ETT$$,,AUTO
        28 003371   200255 451500                    STP1    CETT$$+4,,AUTO
        28 003372   200252 633500                    EPPR3   CETT$$+1,,AUTO
        28 003373   200254 453500                    STP3    CETT$$+3,,AUTO
        28 003374   200212 634500                    EPPR4   ST$$,,AUTO
        28 003375   200253 454500                    STP4    CETT$$+2,,AUTO
        28 003376   200253 630500                    EPPR0   CETT$$+2,,AUTO
        28 003377   000030 631400 29                 EPPR1   24
        28 003400   000000 701000 xent               TSX1    Z8AF$NEW_BASE
PL6.E3A0      #004=Z8ET$CREATE_SUBROUTINES File=Z8ET.:Z8A6TSI                    SAT 08/09/97 12:48 Page:324
        28 003401   000000 011000                    NOP     0

  21340 28 003402   000051 236000 29                 LDQ     41
        28 003403   200253 756100                    STQ     CETT$$+2,,AUTO
        28 003404   200210 236100                    LDQ     NAME$,,AUTO
        28 003405   000014 036003                    ADLQ    12,DU
        28 003406   200252 756100                    STQ     CETT$$+1,,AUTO
        28 003407   200252 630500                    EPPR0   CETT$$+1,,AUTO
        28 003410   000000 631400 29                 EPPR1   0
        28 003411   000000 701000 xent               TSX1    Z8ED$NEW_HEAP
        28 003412   000000 011000                    NOP     0

  21347 28 003413   200210 470500                    LDP0    NAME$,,AUTO
        28 003414   000014 471500                    LDP1    12,,PR0
        28 003415   000004 220003                    LDX0    4,DU
        28 003416   100000 740100                    STX0    0,,PR1

  21348 28 003417   000014 471500                    LDP1    12,,PR0
        28 003420   000000 221003                    LDX1    0,DU
        28 003421   100000 441100                    SXL1    0,,PR1

  21349 28 003422   000014 471500                    LDP1    12,,PR0
        28 003423   200212 473500                    LDP3    ST$$,,AUTO
        28 003424   300002 236100                    LDQ     2,,PR3
        28 003425   000022 772000                    QRL     18
        28 003426   100004 756100                    STQ     4,,PR1

  21350 28 003427   000014 471500                    LDP1    12,,PR0
        28 003430   000017 236000 29                 LDQ     15
        28 003431   100007 756100                    STQ     7,,PR1

  21351 28 003432   000014 471500                    LDP1    12,,PR0
        28 003433   200211 236100                    LDQ     ETT$$,,AUTO
        28 003434   100001 756100                    STQ     1,,PR1

  21352 28 003435   000014 471500                    LDP1    12,,PR0
        28 003436   000017 236000 29                 LDQ     15
PL6.E3A0      #004=Z8ET$CREATE_SUBROUTINES File=Z8ET.:Z8A6TSI                    SAT 08/09/97 12:48 Page:325
        28 003437   100002 756100                    STQ     2,,PR1

  21354 28 003440   000014 471500                    LDP1    12,,PR0
        28 003441   000133 235000 xsym               LDA     COMCOM+91
        28 003442   100005 755100                    STA     5,,PR1

  21355 28 003443   000014 471500                    LDP1    12,,PR0
        28 003444   000134 235000 xsym               LDA     COMCOM+92
        28 003445   100006 755100                    STA     6,,PR1

     1918    21369
     1919    21370                 %BUILD_LX_ETT (@ST$$ = NAME$ -> CONTROL_NAME_LTS.SHADOW$,
     1920    21371                                @FIELD$ = NAME$ -> CONTROL_NAME_LTS.SHADOW_FIELD$);

  21373 28 003446   000012 236100                    LDQ     10,,PR0
        28 003447   200212 756100                    STQ     ST$$,,AUTO

  21374 28 003450   000017 236000 29                 LDQ     15
        28 003451   200252 756100                    STQ     CETT$$+1,,AUTO
        28 003452   200211 631500                    EPPR1   ETT$$,,AUTO
        28 003453   200255 451500                    STP1    CETT$$+4,,AUTO
        28 003454   200252 633500                    EPPR3   CETT$$+1,,AUTO
        28 003455   200254 453500                    STP3    CETT$$+3,,AUTO
        28 003456   200212 634500                    EPPR4   ST$$,,AUTO
        28 003457   200253 454500                    STP4    CETT$$+2,,AUTO
        28 003460   200253 630500                    EPPR0   CETT$$+2,,AUTO
        28 003461   000030 631400 29                 EPPR1   24
        28 003462   000000 701000 xent               TSX1    Z8AF$NEW_BASE
        28 003463   000000 011000                    NOP     0

  21379 28 003464   000051 236000 29                 LDQ     41
        28 003465   200253 756100                    STQ     CETT$$+2,,AUTO
        28 003466   200210 236100                    LDQ     NAME$,,AUTO
        28 003467   000015 036003                    ADLQ    13,DU
        28 003470   200252 756100                    STQ     CETT$$+1,,AUTO
        28 003471   200252 630500                    EPPR0   CETT$$+1,,AUTO
        28 003472   000000 631400 29                 EPPR1   0
PL6.E3A0      #004=Z8ET$CREATE_SUBROUTINES File=Z8ET.:Z8A6TSI                    SAT 08/09/97 12:48 Page:326
        28 003473   000000 701000 xent               TSX1    Z8ED$NEW_HEAP
        28 003474   000000 011000                    NOP     0

  21386 28 003475   200210 470500                    LDP0    NAME$,,AUTO
        28 003476   000015 471500                    LDP1    13,,PR0
        28 003477   000004 220003                    LDX0    4,DU
        28 003500   100000 740100                    STX0    0,,PR1

  21387 28 003501   000015 471500                    LDP1    13,,PR0
        28 003502   000000 221003                    LDX1    0,DU
        28 003503   100000 441100                    SXL1    0,,PR1

  21388 28 003504   000015 471500                    LDP1    13,,PR0
        28 003505   200212 473500                    LDP3    ST$$,,AUTO
        28 003506   300002 236100                    LDQ     2,,PR3
        28 003507   000022 772000                    QRL     18
        28 003510   100004 756100                    STQ     4,,PR1

  21389 28 003511   000015 471500                    LDP1    13,,PR0
        28 003512   000017 236000 29                 LDQ     15
        28 003513   100007 756100                    STQ     7,,PR1

  21390 28 003514   000015 471500                    LDP1    13,,PR0
        28 003515   200211 236100                    LDQ     ETT$$,,AUTO
        28 003516   100001 756100                    STQ     1,,PR1

  21391 28 003517   000015 471500                    LDP1    13,,PR0
        28 003520   000017 236000 29                 LDQ     15
        28 003521   100002 756100                    STQ     2,,PR1

  21393 28 003522   000015 471500                    LDP1    13,,PR0
        28 003523   000133 235000 xsym               LDA     COMCOM+91
        28 003524   100005 755100                    STA     5,,PR1

  21394 28 003525   000015 471500                    LDP1    13,,PR0
        28 003526   000134 235000 xsym               LDA     COMCOM+92
        28 003527   100006 755100                    STA     6,,PR1
PL6.E3A0      #004=Z8ET$CREATE_SUBROUTINES File=Z8ET.:Z8A6TSI                    SAT 08/09/97 12:48 Page:327

     1921    21408
     1922    21409    3          END;

  21409 28 003530   200007 054100                    AOS     I,,AUTO
        28 003531   200207 470500                    LDP0    @CONTROL$$,,AUTO
        28 003532   000000 471500                    LDP1    0,,PR0
        28 003533   100000 236100                    LDQ     0,,PR1
        28 003534   777777 376007                    ANQ     -1,DL
        28 003535   000003 136007                    SBLQ    3,DL
        28 003536   200007 116100                    CMPQ    I,,AUTO
        28 003537   003241 605000 28                 TPL     s:21278

     1923    21410
     1924    21411    2    END BUILD_CTR_FIELDS;

  21411 28 003540   200206 221300                    LDX1  ! CTR_LVL_ETT$+2,,AUTO
        28 003541   000001 702211                    TSX2  ! 1,X1

     1925    21412         %EJECT;
PL6.E3A0      #004=Z8ET$CREATE_SUBROUTINES File=Z8ET.:Z8A6TSI                    SAT 08/09/97 12:48 Page:328
     1926    21413
     1927    21414         /*==================*/
     1928    21415    1      DISPOSE_CTR_FIELDS: PROC (CONTROL$$);

  21415 28 003542   200206 741300       DISPOSE_CTR* STX1  ! CTR_LVL_ETT$+2,,AUTO

     1929    21416         /*==================*/
     1930    21417
     1931    21418        /*I*
     1932    21419
     1933    21420             NAME:  DISPOSE_CTR_FIELD
     1934    21421
     1935    21422          DESCRIPTION: This routine disposes LX_ETT items for st,
     1936    21423                       shadow and temporary field of the control items.
     1937    21424        */
     1938    21425
     1939    21426
     1940    21427    2   DCL CONTROL$$      PTR;
     1941    21428
     1942    21429
     1943    21430
     1944    21431    3          DO I = 1 TO CONTROL$$ -> LTS_PTR_ARRAY.N - 3;

  21431 28 003543   000001 235007                    LDA     1,DL
        28 003544   200007 755100                    STA     I,,AUTO
        28 003545   003605 710000 28                 TRA     s:21439+1

     1945    21432
     1946    21433    3            CALL Z8ED$DISPOSE_ABSSYN_TREE (CONTROL$$ -> LTS_PTR_ARRAY.P$(I) ->
             21433                     CONTROL_NAME_LTS.ST_FIELD$);

  21433 28 003546   200207 470500                    LDP0    @CONTROL$$,,AUTO
        28 003547   000000 471500                    LDP1    0,,PR0
        28 003550   200007 720100                    LXL0    I,,AUTO
        28 003551   100002 473510                    LDP3    2,X0,PR1
        28 003552   300013 634500                    EPPR4   11,,PR3
        28 003553   200252 454500                    STP4    CETT$$+1,,AUTO
PL6.E3A0      #004=Z8ET$CREATE_SUBROUTINES File=Z8ET.:Z8A6TSI                    SAT 08/09/97 12:48 Page:329
        28 003554   200252 630500                    EPPR0   CETT$$+1,,AUTO
        28 003555   000034 631400 29                 EPPR1   28
        28 003556   000000 701000 xent               TSX1    Z8ED$DISPOSE_ABSSYN_TREE
        28 003557   000000 011000                    NOP     0

     1947    21434
     1948    21435    3            CALL Z8ED$DISPOSE_ABSSYN_TREE (CONTROL$$ -> LTS_PTR_ARRAY.P$(I) ->
             21435                     CONTROL_NAME_LTS.TEMP_FIELD$);

  21435 28 003560   200207 470500                    LDP0    @CONTROL$$,,AUTO
        28 003561   000000 471500                    LDP1    0,,PR0
        28 003562   200007 720100                    LXL0    I,,AUTO
        28 003563   100002 473510                    LDP3    2,X0,PR1
        28 003564   300014 634500                    EPPR4   12,,PR3
        28 003565   200252 454500                    STP4    CETT$$+1,,AUTO
        28 003566   200252 630500                    EPPR0   CETT$$+1,,AUTO
        28 003567   000034 631400 29                 EPPR1   28
        28 003570   000000 701000 xent               TSX1    Z8ED$DISPOSE_ABSSYN_TREE
        28 003571   000000 011000                    NOP     0

     1949    21436
     1950    21437    3            CALL Z8ED$DISPOSE_ABSSYN_TREE (CONTROL$$ -> LTS_PTR_ARRAY.P$(I) ->
             21437                     CONTROL_NAME_LTS.SHADOW_FIELD$);

  21437 28 003572   200207 470500                    LDP0    @CONTROL$$,,AUTO
        28 003573   000000 471500                    LDP1    0,,PR0
        28 003574   200007 720100                    LXL0    I,,AUTO
        28 003575   100002 473510                    LDP3    2,X0,PR1
        28 003576   300015 634500                    EPPR4   13,,PR3
        28 003577   200252 454500                    STP4    CETT$$+1,,AUTO
        28 003600   200252 630500                    EPPR0   CETT$$+1,,AUTO
        28 003601   000034 631400 29                 EPPR1   28
        28 003602   000000 701000 xent               TSX1    Z8ED$DISPOSE_ABSSYN_TREE
        28 003603   000000 011000                    NOP     0

     1951    21438
     1952    21439    3          END;
PL6.E3A0      #004=Z8ET$CREATE_SUBROUTINES File=Z8ET.:Z8A6TSI                    SAT 08/09/97 12:48 Page:330

  21439 28 003604   200007 054100                    AOS     I,,AUTO
        28 003605   200207 470500                    LDP0    @CONTROL$$,,AUTO
        28 003606   000000 471500                    LDP1    0,,PR0
        28 003607   100000 236100                    LDQ     0,,PR1
        28 003610   777777 376007                    ANQ     -1,DL
        28 003611   000003 136007                    SBLQ    3,DL
        28 003612   200007 116100                    CMPQ    I,,AUTO
        28 003613   003546 605000 28                 TPL     s:21433

     1953    21440
     1954    21441    2    END DISPOSE_CTR_FIELDS;

  21441 28 003614   200206 221300                    LDX1  ! CTR_LVL_ETT$+2,,AUTO
        28 003615   000001 702211                    TSX2  ! 1,X1

     1955    21442         %EJECT;
PL6.E3A0      #004=Z8ET$CREATE_SUBROUTINES File=Z8ET.:Z8A6TSI                    SAT 08/09/97 12:48 Page:331
     1956    21443
     1957    21444         /*================*/
     1958    21445    1      CREATE_SHADOW_ST: PROC (ITEM$, SHADOW$);

  21445 28 003616   200214 741300       CREATE_SHAD* STX1  ! LABEL$,,AUTO

     1959    21446         /*================*/
     1960    21447
     1961    21448        /*I*
     1962    21449
     1963    21450             NAME:  CREATE_SHADOW_ST
     1964    21451
     1965    21452          DESCRIPTION: This routine creates ST item and initialize the
     1966    21453                       st item for calling module.
     1967    21454        */
     1968    21455
     1969    21456
     1970    21457    2   DCL ITEM$              PTR;
     1971    21458    2   DCL SHADOW$            PTR;
     1972    21459
     1973    21460
     1974    21461
     1975    21462    2          CALL Z8AT$CREATE_TEMPORARY (%SCALAR, SHADOW$);

  21462 28 003617   200216 236100                    LDQ     @SHADOW$,,AUTO
        28 003620   000053 235000 29                 LDA     43
        28 003621   200252 757100                    STAQ    CETT$$+1,,AUTO
        28 003622   200252 630500                    EPPR0   CETT$$+1,,AUTO
        28 003623   000000 631400 29                 EPPR1   0
        28 003624   000000 701000 xent               TSX1    Z8AT$CREATE_TEMPORARY
        28 003625   000000 011000                    NOP     0

     1976    21463
     1977    21464    2          SHADOW$ -> SCALAR.DESCL = ITEM$ -> SCALAR.DESCL;

  21464 28 003626   200216 470500                    LDP0    @SHADOW$,,AUTO
        28 003627   000000 471500                    LDP1    0,,PR0
PL6.E3A0      #004=Z8ET$CREATE_SUBROUTINES File=Z8ET.:Z8A6TSI                    SAT 08/09/97 12:48 Page:332
        28 003630   200215 473500                    LDP3    @ITEM$,,AUTO
        28 003631   300000 474500                    LDP4    0,,PR3
        28 003632   400001 720100                    LXL0    1,,PR4
        28 003633   100001 440100                    SXL0    1,,PR1

     1978    21465    2          SHADOW$ -> SCALAR.ADSC.CN = 0;

  21465 28 003634   000000 471500                    LDP1    0,,PR0
        28 003635   000054 236000 29                 LDQ     44
        28 003636   100001 356100                    ANSQ    1,,PR1

     1979    21466    2          SHADOW$ -> SCALAR.B.LENGTH_4096 = ITEM$ -> SCALAR.B.LENGTH_4096;

  21466 28 003637   000000 471500                    LDP1    0,,PR0
        28 003640   300000 474500                    LDP4    0,,PR3
        28 003641   400003 236100                    LDQ     3,,PR4
        28 003642   100003 676100                    ERQ     3,,PR1
        28 003643   004000 376003                    ANQ     2048,DU
        28 003644   100003 656100                    ERSQ    3,,PR1

     1980    21467    2          SHADOW$ -> SCALAR.B.CLASS = ITEM$ -> SCALAR.B.CLASS;

  21467 28 003645   000000 471500                    LDP1    0,,PR0
        28 003646   300000 474500                    LDP4    0,,PR3
        28 003647   400003 236100                    LDQ     3,,PR4
        28 003650   100003 676100                    ERQ     3,,PR1
        28 003651   000007 376007                    ANQ     7,DL
        28 003652   100003 656100                    ERSQ    3,,PR1

     1981    21468    2          SHADOW$ -> SCALAR.TYPE = ITEM$ -> SCALAR.TYPE;

  21468 28 003653   000000 471500                    LDP1    0,,PR0
        28 003654   300000 474500                    LDP4    0,,PR3
        28 003655   400002 220100                    LDX0    2,,PR4
        28 003656   100002 740100                    STX0    2,,PR1

     1982    21469    2          SHADOW$ -> SCALAR.LTS$ = ITEM$ -> SCALAR.LTS$;
PL6.E3A0      #004=Z8ET$CREATE_SUBROUTINES File=Z8ET.:Z8A6TSI                    SAT 08/09/97 12:48 Page:333

  21469 28 003657   000000 471500                    LDP1    0,,PR0
        28 003660   300000 474500                    LDP4    0,,PR3
        28 003661   400005 236100                    LDQ     5,,PR4
        28 003662   100005 756100                    STQ     5,,PR1

     1983    21470    2          SHADOW$ -> SCALAR.B.DML_TYPE = ITEM$ -> SCALAR.B.DML_TYPE;

  21470 28 003663   000000 471500                    LDP1    0,,PR0
        28 003664   300000 474500                    LDP4    0,,PR3
        28 003665   400003 236100                    LDQ     3,,PR4
        28 003666   100003 676100                    ERQ     3,,PR1
        28 003667   160000 376007                    ANQ     57344,DL
        28 003670   100003 656100                    ERSQ    3,,PR1

     1984    21471
     1985    21472    2    END CREATE_SHADOW_ST;

  21472 28 003671   200214 221300                    LDX1  ! LABEL$,,AUTO
        28 003672   000001 702211                    TSX2  ! 1,X1

     1986    21473         %EJECT;
PL6.E3A0      #004=Z8ET$CREATE_SUBROUTINES File=Z8ET.:Z8A6TSI                    SAT 08/09/97 12:48 Page:334
     1987    21474
     1988    21475         /*======================*/
     1989    21476    1      CREATE_SHADOW_INIT_SUB: PROC (CONTROL$$);

  21476 28 003673   200206 741300       CREATE_SHAD* STX1  ! CTR_LVL_ETT$+2,,AUTO

     1990    21477         /*======================*/
     1991    21478
     1992    21479        /*I*
     1993    21480
     1994    21481             NAME:  CREATE_SHADOW_INIT_SUB
     1995    21482
     1996    21483          DESCRIPTION: This routine creates shadow item initialize
     1997    21484                       subroutine that will executed by the RWCS to
     1998    21485                       initialize the shadow field of the control items.
     1999    21486        */
     2000    21487
     2001    21488
     2002    21489    2   DCL CONTROL$$      PTR;
     2003    21490    2   DCL LABEL$         PTR;
     2004    21491
     2005    21492
     2006    21493
     2007    21494               %SUB_HEAD (OFFSET_V = %CTR_SHADOW_INIT_OFF,
     2008    21495                          RWCT_PTR = LTS$$ -> REPORT_LTS.RWCT$);

  21497 28 003674   200210 630500                    EPPR0   LABEL$,,AUTO
        28 003675   200253 450500                    STP0    CETT$$+2,,AUTO
        28 003676   000002 236000 29                 LDQ     2
        28 003677   200252 756100                    STQ     CETT$$+1,,AUTO
        28 003700   200252 630500                    EPPR0   CETT$$+1,,AUTO
        28 003701   000000 631400 29                 EPPR1   0
        28 003702   000000 701000 xent               TSX1    Z8AT$CREATE_TEMPORARY
        28 003703   000000 011000                    NOP     0

  21498 28 003704   200210 470500                    LDP0    LABEL$,,AUTO
        28 003705   400000 236003                    LDQ     -131072,DU
PL6.E3A0      #004=Z8ET$CREATE_SUBROUTINES File=Z8ET.:Z8A6TSI                    SAT 08/09/97 12:48 Page:335
        28 003706   000003 256100                    ORSQ    3,,PR0

  21499 28 003707   200210 470500                    LDP0    LABEL$,,AUTO
        28 003710   001000 236007                    LDQ     512,DL
        28 003711   000003 256100                    ORSQ    3,,PR0

  21833 28 003712   000006 236000 29                 LDQ     6
        28 003713   200252 756100                    STQ     CETT$$+1,,AUTO
        28 003714   200252 630500                    EPPR0   CETT$$+1,,AUTO
        28 003715   200257 450500                    STP0    CETT$$+6,,AUTO
        28 003716   000007 236000 29                 LDQ     7
        28 003717   200256 756100                    STQ     CETT$$+5,,AUTO
        28 003720   000010 237000 29                 LDAQ    8
        28 003721   200254 757100                    STAQ    CETT$$+3,,AUTO
        28 003722   200254 630500                    EPPR0   CETT$$+3,,AUTO
        28 003723   000003 631400 29                 EPPR1   3
        28 003724   000000 701000 xent               TSX1    Z8AN$NEW_ILL
        28 003725   000000 011000                    NOP     0

  21834 28 003726   200210 236100                    LDQ     LABEL$,,AUTO
        28 003727   000000 470400 18                 LDP0    ILL$
        28 003730   000001 756100                    STQ     1,,PR0

  22141 28 003731   000006 236000 29                 LDQ     6
        28 003732   200252 756100                    STQ     CETT$$+1,,AUTO
        28 003733   200252 631500                    EPPR1   CETT$$+1,,AUTO
        28 003734   200257 451500                    STP1    CETT$$+6,,AUTO
        28 003735   000007 236000 29                 LDQ     7
        28 003736   200256 756100                    STQ     CETT$$+5,,AUTO
        28 003737   000014 237000 29                 LDAQ    12
        28 003740   200254 757100                    STAQ    CETT$$+3,,AUTO
        28 003741   200254 630500                    EPPR0   CETT$$+3,,AUTO
        28 003742   000003 631400 29                 EPPR1   3
        28 003743   000000 701000 xent               TSX1    Z8AN$NEW_ILL
        28 003744   000000 011000                    NOP     0

  22145 28 003745   000012 220003                    LDX0    10,DU
PL6.E3A0      #004=Z8ET$CREATE_SUBROUTINES File=Z8ET.:Z8A6TSI                    SAT 08/09/97 12:48 Page:336
        28 003746   000000 470400 18                 LDP0    ILL$
        28 003747   000000 440100                    SXL0    0,,PR0

  22147 28 003750   000000 470400 18                 LDP0    ILL$
        28 003751   000002 450100                    STZ     2,,PR0

  22148 28 003752   200210 236100                    LDQ     LABEL$,,AUTO
        28 003753   000001 756100                    STQ     1,,PR0

  22149 28 003754   200003 471500                    LDP1    @LTS$$,,AUTO
        28 003755   100000 473500                    LDP3    0,,PR1
        28 003756   300022 236100                    LDQ     18,,PR3
        28 003757   000003 756100                    STQ     3,,PR0

  22471 28 003760   000006 236000 29                 LDQ     6
        28 003761   200252 756100                    STQ     CETT$$+1,,AUTO
        28 003762   200252 633500                    EPPR3   CETT$$+1,,AUTO
        28 003763   200257 453500                    STP3    CETT$$+6,,AUTO
        28 003764   000007 236000 29                 LDQ     7
        28 003765   200256 756100                    STQ     CETT$$+5,,AUTO
        28 003766   000020 237000 29                 LDAQ    16
        28 003767   200254 757100                    STAQ    CETT$$+3,,AUTO
        28 003770   200254 630500                    EPPR0   CETT$$+3,,AUTO
        28 003771   000003 631400 29                 EPPR1   3
        28 003772   000000 701000 xent               TSX1    Z8AN$NEW_ILL
        28 003773   000000 011000                    NOP     0

  22472 28 003774   000001 220003                    LDX0    1,DU
        28 003775   000000 470400 18                 LDP0    ILL$
        28 003776   000000 440100                    SXL0    0,,PR0

  22476 28 003777   000057 470400 xsym               LDP0    O1COM+47
        28 004000   000006 236100                    LDQ     6,,PR0
        28 004001   000000 471400 18                 LDP1    ILL$
        28 004002   100001 756100                    STQ     1,,PR1

     2009    22645
PL6.E3A0      #004=Z8ET$CREATE_SUBROUTINES File=Z8ET.:Z8A6TSI                    SAT 08/09/97 12:48 Page:337
     2010    22646    3          DO I = 1 TO CONTROL$$ -> LTS_PTR_ARRAY.N - 3;

  22646 28 004003   000001 235007                    LDA     1,DL
        28 004004   200007 755100                    STA     I,,AUTO
        28 004005   004040 710000 28                 TRA     s:22656+1

     2011    22647
     2012    22648    3            IF CONTROL$$ -> LTS_PTR_ARRAY.P$(I) ->

  22648 28 004006   200207 470500                    LDP0    @CONTROL$$,,AUTO
        28 004007   000000 471500                    LDP1    0,,PR0
        28 004010   200007 720100                    LXL0    I,,AUTO
        28 004011   100002 473510                    LDP3    2,X0,PR1
        28 004012   300013 474500                    LDP4    11,,PR3
        28 004013   400004 235100                    LDA     4,,PR4
        28 004014   000011 115007                    CMPA    9,DL
        28 004015   004027 601000 28                 TNZ     s:22653

     2013    22649    3               CONTROL_NAME_LTS.ST_FIELD$ -> LX_ETT_ITEM.TYPE = %TYX THEN
     2014    22650    3             CALL Z8EX$SET_INDEX (CONTROL$$ -> LTS_PTR_ARRAY.P$(I) -> CONTROL_NAME_LTS
             22650                       .SHADOW_FIELD$,

  22650 28 004016   300013 635500                    EPPR5   11,,PR3
        28 004017   200253 455500                    STP5    CETT$$+2,,AUTO
        28 004020   300015 631500                    EPPR1   13,,PR3
        28 004021   200252 451500                    STP1    CETT$$+1,,AUTO
        28 004022   200252 630500                    EPPR0   CETT$$+1,,AUTO
        28 004023   000000 631400 29                 EPPR1   0
        28 004024   000000 701000 xent               TSX1    Z8EX$SET_INDEX
        28 004025   000000 011000                    NOP     0
        28 004026   004037 710000 28                 TRA     s:22656

     2015    22651    3                            CONTROL$$ -> LTS_PTR_ARRAY.P$(I) -> CONTROL_NAME_LTS.
             22651                                     ST_FIELD$);
     2016    22652    3            ELSE
     2017    22653    3              CALL Z8E7$MOVE (CONTROL$$ -> LTS_PTR_ARRAY.P$(I) -> CONTROL_NAME_LTS.
             22653                       SHADOW_FIELD$,
PL6.E3A0      #004=Z8ET$CREATE_SUBROUTINES File=Z8ET.:Z8A6TSI                    SAT 08/09/97 12:48 Page:338

  22653 28 004027   300013 635500                    EPPR5   11,,PR3
        28 004030   200253 455500                    STP5    CETT$$+2,,AUTO
        28 004031   300015 631500                    EPPR1   13,,PR3
        28 004032   200252 451500                    STP1    CETT$$+1,,AUTO
        28 004033   200252 630500                    EPPR0   CETT$$+1,,AUTO
        28 004034   000000 631400 29                 EPPR1   0
        28 004035   000000 701000 xent               TSX1    Z8E7$MOVE
        28 004036   000000 011000                    NOP     0

     2018    22654    3                            CONTROL$$ -> LTS_PTR_ARRAY.P$(I) -> CONTROL_NAME_LTS.
             22654                                     ST_FIELD$);
     2019    22655
     2020    22656    3          END;

  22656 28 004037   200007 054100                    AOS     I,,AUTO
        28 004040   200207 470500                    LDP0    @CONTROL$$,,AUTO
        28 004041   000000 471500                    LDP1    0,,PR0
        28 004042   100000 236100                    LDQ     0,,PR1
        28 004043   777777 376007                    ANQ     -1,DL
        28 004044   000003 136007                    SBLQ    3,DL
        28 004045   200007 116100                    CMPQ    I,,AUTO
        28 004046   004006 605000 28                 TPL     s:22648

     2021    22657
     2022    22658               %DB_EXCEPT_LIBRARY_RETURN;

  22868 28 004047   000006 236000 29                 LDQ     6
        28 004050   200252 756100                    STQ     CETT$$+1,,AUTO
        28 004051   200252 631500                    EPPR1   CETT$$+1,,AUTO
        28 004052   200257 451500                    STP1    CETT$$+6,,AUTO
        28 004053   000007 236000 29                 LDQ     7
        28 004054   200256 756100                    STQ     CETT$$+5,,AUTO
        28 004055   000032 237000 29                 LDAQ    26
        28 004056   200254 757100                    STAQ    CETT$$+3,,AUTO
        28 004057   200254 630500                    EPPR0   CETT$$+3,,AUTO
        28 004060   000003 631400 29                 EPPR1   3
PL6.E3A0      #004=Z8ET$CREATE_SUBROUTINES File=Z8ET.:Z8A6TSI                    SAT 08/09/97 12:48 Page:339
        28 004061   000000 701000 xent               TSX1    Z8AN$NEW_ILL
        28 004062   000000 011000                    NOP     0

  22869 28 004063   000001 220003                    LDX0    1,DU
        28 004064   000000 470400 18                 LDP0    ILL$
        28 004065   000000 440100                    SXL0    0,,PR0

  22873 28 004066   000057 470400 xsym               LDP0    O1COM+47
        28 004067   000006 236100                    LDQ     6,,PR0
        28 004070   000000 471400 18                 LDP1    ILL$
        28 004071   100001 756100                    STQ     1,,PR1

     2023    23042
     2024    23043    2    END CREATE_SHADOW_INIT_SUB;

  23043 28 004072   200206 221300                    LDX1  ! CTR_LVL_ETT$+2,,AUTO
        28 004073   000001 702211                    TSX2  ! 1,X1

     2025    23044         %EJECT;
PL6.E3A0      #004=Z8ET$CREATE_SUBROUTINES File=Z8ET.:Z8A6TSI                    SAT 08/09/97 12:48 Page:340
     2026    23045
     2027    23046         /*=====================*/
     2028    23047    1      CREATE_CTR_DETECT_SUB: PROC (CONTROL$$);

  23047 28 004074   200206 741300       CREATE_CTR_* STX1  ! CTR_LVL_ETT$+2,,AUTO

     2029    23048         /*=====================*/
     2030    23049
     2031    23050        /*I*
     2032    23051
     2033    23052             NAME:  CREATE_CTR_DETECT_SUB
     2034    23053
     2035    23054          DESCRIPTION: This routine creates control break detect subroutine
     2036    23055                       that will executed by the RWCS to compare the control
     2037    23056                       items with its shadow fields to determine the break.
     2038    23057        */
     2039    23058
     2040    23059
     2041    23060    2   DCL LBL$$ (0:25)       PTR;
     2042    23061    2   DCL LABEL$             PTR;
     2043    23062    2   DCL CTR_LVL_NO#        SBIN WORD;
     2044    23063    2   DCL CONTROL$$          PTR;
     2045    23064    2   DCL NAME$$             PTR;
     2046    23065    2   DCL TARGET_NO#         SBIN WORD;
     2047    23066    2   DCL END_LABEL$         PTR;
     2048    23067
     2049    23068
     2050    23069
     2051    23070               %SUB_HEAD (OFFSET_V = %CTR_BREAK_OFF,
     2052    23071                          RWCT_PTR = LTS$$ -> REPORT_LTS.RWCT$);

  23073 28 004075   200242 630500                    EPPR0   LABEL$,,AUTO
        28 004076   200253 450500                    STP0    CETT$$+2,,AUTO
        28 004077   000002 236000 29                 LDQ     2
        28 004100   200252 756100                    STQ     CETT$$+1,,AUTO
        28 004101   200252 630500                    EPPR0   CETT$$+1,,AUTO
        28 004102   000000 631400 29                 EPPR1   0
PL6.E3A0      #004=Z8ET$CREATE_SUBROUTINES File=Z8ET.:Z8A6TSI                    SAT 08/09/97 12:48 Page:341
        28 004103   000000 701000 xent               TSX1    Z8AT$CREATE_TEMPORARY
        28 004104   000000 011000                    NOP     0

  23074 28 004105   200242 470500                    LDP0    LABEL$,,AUTO
        28 004106   400000 236003                    LDQ     -131072,DU
        28 004107   000003 256100                    ORSQ    3,,PR0

  23075 28 004110   200242 470500                    LDP0    LABEL$,,AUTO
        28 004111   001000 236007                    LDQ     512,DL
        28 004112   000003 256100                    ORSQ    3,,PR0

  23409 28 004113   000006 236000 29                 LDQ     6
        28 004114   200252 756100                    STQ     CETT$$+1,,AUTO
        28 004115   200252 630500                    EPPR0   CETT$$+1,,AUTO
        28 004116   200257 450500                    STP0    CETT$$+6,,AUTO
        28 004117   000007 236000 29                 LDQ     7
        28 004120   200256 756100                    STQ     CETT$$+5,,AUTO
        28 004121   000010 237000 29                 LDAQ    8
        28 004122   200254 757100                    STAQ    CETT$$+3,,AUTO
        28 004123   200254 630500                    EPPR0   CETT$$+3,,AUTO
        28 004124   000003 631400 29                 EPPR1   3
        28 004125   000000 701000 xent               TSX1    Z8AN$NEW_ILL
        28 004126   000000 011000                    NOP     0

  23410 28 004127   200242 236100                    LDQ     LABEL$,,AUTO
        28 004130   000000 470400 18                 LDP0    ILL$
        28 004131   000001 756100                    STQ     1,,PR0

  23717 28 004132   000006 236000 29                 LDQ     6
        28 004133   200252 756100                    STQ     CETT$$+1,,AUTO
        28 004134   200252 631500                    EPPR1   CETT$$+1,,AUTO
        28 004135   200257 451500                    STP1    CETT$$+6,,AUTO
        28 004136   000007 236000 29                 LDQ     7
        28 004137   200256 756100                    STQ     CETT$$+5,,AUTO
        28 004140   000014 237000 29                 LDAQ    12
        28 004141   200254 757100                    STAQ    CETT$$+3,,AUTO
        28 004142   200254 630500                    EPPR0   CETT$$+3,,AUTO
PL6.E3A0      #004=Z8ET$CREATE_SUBROUTINES File=Z8ET.:Z8A6TSI                    SAT 08/09/97 12:48 Page:342
        28 004143   000003 631400 29                 EPPR1   3
        28 004144   000000 701000 xent               TSX1    Z8AN$NEW_ILL
        28 004145   000000 011000                    NOP     0

  23721 28 004146   000011 220003                    LDX0    9,DU
        28 004147   000000 470400 18                 LDP0    ILL$
        28 004150   000000 440100                    SXL0    0,,PR0

  23723 28 004151   000000 470400 18                 LDP0    ILL$
        28 004152   000002 450100                    STZ     2,,PR0

  23724 28 004153   200242 236100                    LDQ     LABEL$,,AUTO
        28 004154   000001 756100                    STQ     1,,PR0

  23725 28 004155   200003 471500                    LDP1    @LTS$$,,AUTO
        28 004156   100000 473500                    LDP3    0,,PR1
        28 004157   300022 236100                    LDQ     18,,PR3
        28 004160   000003 756100                    STQ     3,,PR0

  24047 28 004161   000006 236000 29                 LDQ     6
        28 004162   200252 756100                    STQ     CETT$$+1,,AUTO
        28 004163   200252 633500                    EPPR3   CETT$$+1,,AUTO
        28 004164   200257 453500                    STP3    CETT$$+6,,AUTO
        28 004165   000007 236000 29                 LDQ     7
        28 004166   200256 756100                    STQ     CETT$$+5,,AUTO
        28 004167   000020 237000 29                 LDAQ    16
        28 004170   200254 757100                    STAQ    CETT$$+3,,AUTO
        28 004171   200254 630500                    EPPR0   CETT$$+3,,AUTO
        28 004172   000003 631400 29                 EPPR1   3
        28 004173   000000 701000 xent               TSX1    Z8AN$NEW_ILL
        28 004174   000000 011000                    NOP     0

  24048 28 004175   000001 220003                    LDX0    1,DU
        28 004176   000000 470400 18                 LDP0    ILL$
        28 004177   000000 440100                    SXL0    0,,PR0

  24052 28 004200   000057 470400 xsym               LDP0    O1COM+47
PL6.E3A0      #004=Z8ET$CREATE_SUBROUTINES File=Z8ET.:Z8A6TSI                    SAT 08/09/97 12:48 Page:343
        28 004201   000006 236100                    LDQ     6,,PR0
        28 004202   000000 471400 18                 LDP1    ILL$
        28 004203   100001 756100                    STQ     1,,PR1

     2053    24221
     2054    24222    2          IF LTS$$ -> REPORT_LTS.B.CONTROL_FINAL THEN

  24222 28 004204   200003 470500                    LDP0    @LTS$$,,AUTO
        28 004205   000000 473500                    LDP3    0,,PR0
        28 004206   300003 236100                    LDQ     3,,PR3
        28 004207   200000 316003                    CANQ    65536,DU
        28 004210   004214 600000 28                 TZE     s:24225

     2055    24223    2            CTR_LVL_NO# = 2;

  24223 28 004211   000002 235007                    LDA     2,DL
        28 004212   200243 755100                    STA     CTR_LVL_NO#,,AUTO
        28 004213   004216 710000 28                 TRA     s:24227

     2056    24224    2          ELSE
     2057    24225    2            CTR_LVL_NO# = 1;

  24225 28 004214   000001 235007                    LDA     1,DL
        28 004215   200243 755100                    STA     CTR_LVL_NO#,,AUTO

     2058    24226
     2059    24227    2          MKCN.CON = CTR_LVL_NO#;

  24227 28 004216   000000 755000 24                 STA     MKCN

     2060    24228
     2061    24229    2          CALL Z8AC$MAKE_CONST (CONST_ETT$);

  24229 28 004217   200011 633500                    EPPR3   CONST_ETT$,,AUTO
        28 004220   200252 453500                    STP3    CETT$$+1,,AUTO
        28 004221   200252 630500                    EPPR0   CETT$$+1,,AUTO
        28 004222   000034 631400 29                 EPPR1   28
PL6.E3A0      #004=Z8ET$CREATE_SUBROUTINES File=Z8ET.:Z8A6TSI                    SAT 08/09/97 12:48 Page:344
        28 004223   000000 701000 xent               TSX1    Z8AC$MAKE_CONST
        28 004224   000000 011000                    NOP     0

     2062    24230
     2063    24231               %INIT_LX_ETT_ITEM (@POINTER = "ADDR(SEND_FIELD)",
     2064    24232                              @TYPE    = %TYI,
     2065    24233                              @ETT$    = CONST_ETT$);

  24235 28 004225   000004 220003                    LDX0    4,DU
        28 004226   200074 740100                    STX0    SEND_FIELD,,AUTO

  24236 28 004227   000000 221003                    LDX1    0,DU
        28 004230   200074 441100                    SXL1    SEND_FIELD,,AUTO

  24237 28 004231   000001 235007                    LDA     1,DL
        28 004232   200100 755100                    STA     SEND_FIELD+4,,AUTO

  24238 28 004233   000017 236000 29                 LDQ     15
        28 004234   200103 756100                    STQ     SEND_FIELD+7,,AUTO

  24239 28 004235   200011 236100                    LDQ     CONST_ETT$,,AUTO
        28 004236   200075 756100                    STQ     SEND_FIELD+1,,AUTO

  24240 28 004237   000017 236000 29                 LDQ     15
        28 004240   200076 756100                    STQ     SEND_FIELD+2,,AUTO

  24242 28 004241   000133 235000 xsym               LDA     COMCOM+91
        28 004242   200101 755100                    STA     SEND_FIELD+5,,AUTO

  24243 28 004243   000134 235000 xsym               LDA     COMCOM+92
        28 004244   200102 755100                    STA     SEND_FIELD+6,,AUTO

     2066    24255
     2067    24256    2          CALL Z8E7$MOVE (ADDR(CTR_LVL_FIELD),

  24256 28 004245   200174 630500                    EPPR0   CTR_LVL_FIELD,,AUTO
        28 004246   200252 450500                    STP0    CETT$$+1,,AUTO
PL6.E3A0      #004=Z8ET$CREATE_SUBROUTINES File=Z8ET.:Z8A6TSI                    SAT 08/09/97 12:48 Page:345
        28 004247   200074 631500                    EPPR1   SEND_FIELD,,AUTO
        28 004250   200253 451500                    STP1    CETT$$+2,,AUTO
        28 004251   200253 633500                    EPPR3   CETT$$+2,,AUTO
        28 004252   200255 453500                    STP3    CETT$$+4,,AUTO
        28 004253   200252 634500                    EPPR4   CETT$$+1,,AUTO
        28 004254   200254 454500                    STP4    CETT$$+3,,AUTO
        28 004255   200254 630500                    EPPR0   CETT$$+3,,AUTO
        28 004256   000000 631400 29                 EPPR1   0
        28 004257   000000 701000 xent               TSX1    Z8E7$MOVE
        28 004260   000000 011000                    NOP     0

     2068    24257    2                          ADDR(SEND_FIELD));
     2069    24258
     2070    24259               %INIT_BINARY_OP (@POINTER = "ADDR(OP_NODE)",
     2071    24260                                @ROP$    = "ADDR(ONE_FIELD)",
     2072    24261                                @LOP$    = "ADDR(CTR_LVL_FIELD)",
     2073    24262                                @OP      = %OP_PLUS);

  24264 28 004261   000005 220003                    LDX0    5,DU
        28 004262   200064 740100                    STX0    OP_NODE,,AUTO

  24265 28 004263   000000 221003                    LDX1    0,DU
        28 004264   200064 441100                    SXL1    OP_NODE,,AUTO

  24272 28 004265   000133 235000 xsym               LDA     COMCOM+91
        28 004266   200071 755100                    STA     OP_NODE+5,,AUTO

  24273 28 004267   000134 236000 xsym               LDQ     COMCOM+92
        28 004270   200072 756100                    STQ     OP_NODE+6,,AUTO

  24274 28 004271   200164 630500                    EPPR0   ONE_FIELD,,AUTO
        28 004272   200066 450500                    STP0    OP_NODE+2,,AUTO

  24275 28 004273   200174 631500                    EPPR1   CTR_LVL_FIELD,,AUTO
        28 004274   200065 451500                    STP1    OP_NODE+1,,AUTO

  24276 28 004275   000020 235007                    LDA     16,DL
PL6.E3A0      #004=Z8ET$CREATE_SUBROUTINES File=Z8ET.:Z8A6TSI                    SAT 08/09/97 12:48 Page:346
        28 004276   200067 755100                    STA     OP_NODE+3,,AUTO

  24277 28 004277   000017 236000 29                 LDQ     15
        28 004300   200073 756100                    STQ     OP_NODE+7,,AUTO

     2074    24280
     2075    24281    2          CALL Z8E5$MATH_PACK (ADDR(OP_NODE),

  24281 28 004301   200064 633500                    EPPR3   OP_NODE,,AUTO
        28 004302   200252 453500                    STP3    CETT$$+1,,AUTO
        28 004303   200054 634500                    EPPR4   ETT_ITEM,,AUTO
        28 004304   200253 454500                    STP4    CETT$$+2,,AUTO
        28 004305   200253 635500                    EPPR5   CETT$$+2,,AUTO
        28 004306   200255 455500                    STP5    CETT$$+4,,AUTO
        28 004307   200252 636500                    EPPR6   CETT$$+1,,AUTO
        28 004310   200254 456500                    STP6    CETT$$+3,,AUTO
        28 004311   200254 630500                    EPPR0   CETT$$+3,,AUTO
        28 004312   000000 631400 29                 EPPR1   0
        28 004313   000000 701000 xent               TSX1    Z8E5$MATH_PACK
        28 004314   000000 011000                    NOP     0

     2076    24282    2                               ADDR(ETT_ITEM));
     2077    24283
     2078    24284    2          TARGET_NO# = CONTROL$$ -> LTS_PTR_ARRAY.N - 3;

  24284 28 004315   200207 470500                    LDP0    @CONTROL$$,,AUTO
        28 004316   000000 471500                    LDP1    0,,PR0
        28 004317   100000 236100                    LDQ     0,,PR1
        28 004320   777777 376007                    ANQ     -1,DL
        28 004321   000003 136007                    SBLQ    3,DL
        28 004322   200245 756100                    STQ     TARGET_NO#,,AUTO

     2079    24285
     2080    24286    3          DO I = 1 TO TARGET_NO#;

  24286 28 004323   000001 235007                    LDA     1,DL
        28 004324   200007 755100                    STA     I,,AUTO
PL6.E3A0      #004=Z8ET$CREATE_SUBROUTINES File=Z8ET.:Z8A6TSI                    SAT 08/09/97 12:48 Page:347
        28 004325   004434 710000 28                 TRA     s:24328+1

     2081    24287
     2082    24288    3            CALL Z8AT$CREATE_TEMPORARY (%PARA, LBL$$(I));

  24288 28 004326   200007 720100                    LXL0    I,,AUTO
        28 004327   200210 630510                    EPPR0   LBL$$,X0,AUTO
        28 004330   200253 450500                    STP0    CETT$$+2,,AUTO
        28 004331   000002 236000 29                 LDQ     2
        28 004332   200252 756100                    STQ     CETT$$+1,,AUTO
        28 004333   200252 630500                    EPPR0   CETT$$+1,,AUTO
        28 004334   000000 631400 29                 EPPR1   0
        28 004335   000000 701000 xent               TSX1    Z8AT$CREATE_TEMPORARY
        28 004336   000000 011000                    NOP     0

     2083    24289
     2084    24290                 %INIT_BINARY_OP (@POINTER = "ADDR(COMPARE)",
     2085    24291                                  @LOP$    =
             24291                           "CONTROL$$ -> LTS_PTR_ARRAY.P$(I) -> CONTROL_NAME_LTS.ST_FIELD$"
             24291                                      ,
     2086    24292                                  @ROP$    =
             24292                       "CONTROL$$ -> LTS_PTR_ARRAY.P$(I) -> CONTROL_NAME_LTS.SHADOW_FIELD$"
             24292                                      ,
     2087    24293                                  @OP      = %OP_EQUAL);

  24295 28 004337   000005 220003                    LDX0    5,DU
        28 004340   200144 740100                    STX0    COMPARE,,AUTO

  24296 28 004341   000000 221003                    LDX1    0,DU
        28 004342   200144 441100                    SXL1    COMPARE,,AUTO

  24303 28 004343   000133 235000 xsym               LDA     COMCOM+91
        28 004344   200151 755100                    STA     COMPARE+5,,AUTO

  24304 28 004345   000134 236000 xsym               LDQ     COMCOM+92
        28 004346   200152 756100                    STQ     COMPARE+6,,AUTO

PL6.E3A0      #004=Z8ET$CREATE_SUBROUTINES File=Z8ET.:Z8A6TSI                    SAT 08/09/97 12:48 Page:348
  24305 28 004347   200207 470500                    LDP0    @CONTROL$$,,AUTO
        28 004350   000000 471500                    LDP1    0,,PR0
        28 004351   200007 722100                    LXL2    I,,AUTO
        28 004352   100002 473512                    LDP3    2,X2,PR1
        28 004353   300015 236100                    LDQ     13,,PR3
        28 004354   200146 756100                    STQ     COMPARE+2,,AUTO

  24306 28 004355   000000 471500                    LDP1    0,,PR0
        28 004356   100002 473512                    LDP3    2,X2,PR1
        28 004357   300013 236100                    LDQ     11,,PR3
        28 004360   200145 756100                    STQ     COMPARE+1,,AUTO

  24307 28 004361   000027 235007                    LDA     23,DL
        28 004362   200147 755100                    STA     COMPARE+3,,AUTO

  24308 28 004363   000017 236000 29                 LDQ     15
        28 004364   200153 756100                    STQ     COMPARE+7,,AUTO

     2088    24311
     2089    24312    3            CALL Z8EK$BRANCH_FALSE (LBL$$(I),

  24312 28 004365   200144 631500                    EPPR1   COMPARE,,AUTO
        28 004366   200252 451500                    STP1    CETT$$+1,,AUTO
        28 004367   200252 633500                    EPPR3   CETT$$+1,,AUTO
        28 004370   200255 453500                    STP3    CETT$$+4,,AUTO
        28 004371   200210 634512                    EPPR4   LBL$$,X2,AUTO
        28 004372   200254 454500                    STP4    CETT$$+3,,AUTO
        28 004373   200254 630500                    EPPR0   CETT$$+3,,AUTO
        28 004374   000000 631400 29                 EPPR1   0
        28 004375   000000 701000 xent               TSX1    Z8EK$BRANCH_FALSE
        28 004376   000000 011000                    NOP     0

     2090    24313    3                                    ADDR(COMPARE));
     2091    24314
     2092    24315    3            IF I < TARGET_NO# THEN

  24315 28 004377   200007 236100                    LDQ     I,,AUTO
PL6.E3A0      #004=Z8ET$CREATE_SUBROUTINES File=Z8ET.:Z8A6TSI                    SAT 08/09/97 12:48 Page:349
        28 004400   200245 116100                    CMPQ    TARGET_NO#,,AUTO
        28 004401   004417 605000 28                 TPL     s:24324

     2093    24316    4              DO;

     2094    24317
     2095    24318    4                CALL Z8E7$MOVE (ADDR(CTR_LVL_FIELD),

  24318 28 004402   200174 630500                    EPPR0   CTR_LVL_FIELD,,AUTO
        28 004403   200252 450500                    STP0    CETT$$+1,,AUTO
        28 004404   200054 631500                    EPPR1   ETT_ITEM,,AUTO
        28 004405   200253 451500                    STP1    CETT$$+2,,AUTO
        28 004406   200253 633500                    EPPR3   CETT$$+2,,AUTO
        28 004407   200255 453500                    STP3    CETT$$+4,,AUTO
        28 004410   200252 634500                    EPPR4   CETT$$+1,,AUTO
        28 004411   200254 454500                    STP4    CETT$$+3,,AUTO
        28 004412   200254 630500                    EPPR0   CETT$$+3,,AUTO
        28 004413   000000 631400 29                 EPPR1   0
        28 004414   000000 701000 xent               TSX1    Z8E7$MOVE
        28 004415   000000 011000                    NOP     0

     2096    24319    4                                ADDR(ETT_ITEM));
     2097    24320
     2098    24321    4              END;

  24321 28 004416   004433 710000 28                 TRA     s:24328

     2099    24322    3            ELSE
     2100    24323    4              DO;

     2101    24324    4                CALL Z8E7$MOVE (ADDR(CTR_LVL_FIELD),

  24324 28 004417   200174 630500                    EPPR0   CTR_LVL_FIELD,,AUTO
        28 004420   200252 450500                    STP0    CETT$$+1,,AUTO
        28 004421   200134 631500                    EPPR1   ZERO,,AUTO
        28 004422   200253 451500                    STP1    CETT$$+2,,AUTO
        28 004423   200253 633500                    EPPR3   CETT$$+2,,AUTO
PL6.E3A0      #004=Z8ET$CREATE_SUBROUTINES File=Z8ET.:Z8A6TSI                    SAT 08/09/97 12:48 Page:350
        28 004424   200255 453500                    STP3    CETT$$+4,,AUTO
        28 004425   200252 634500                    EPPR4   CETT$$+1,,AUTO
        28 004426   200254 454500                    STP4    CETT$$+3,,AUTO
        28 004427   200254 630500                    EPPR0   CETT$$+3,,AUTO
        28 004430   000000 631400 29                 EPPR1   0
        28 004431   000000 701000 xent               TSX1    Z8E7$MOVE
        28 004432   000000 011000                    NOP     0

     2102    24325    4                                ADDR(ZERO));
     2103    24326    4              END;

     2104    24327
     2105    24328    3          END; /* DO LOOP */

  24328 28 004433   200007 054100                    AOS     I,,AUTO
        28 004434   200007 236100                    LDQ     I,,AUTO
        28 004435   200245 116100                    CMPQ    TARGET_NO#,,AUTO
        28 004436   004326 604400 28                 TMOZ    s:24288

     2106    24329
     2107    24330    2          CALL Z8AT$CREATE_TEMPORARY (%PARA, END_LABEL$);

  24330 28 004437   200246 630500                    EPPR0   END_LABEL$,,AUTO
        28 004440   200253 450500                    STP0    CETT$$+2,,AUTO
        28 004441   000002 236000 29                 LDQ     2
        28 004442   200252 756100                    STQ     CETT$$+1,,AUTO
        28 004443   200252 630500                    EPPR0   CETT$$+1,,AUTO
        28 004444   000000 631400 29                 EPPR1   0
        28 004445   000000 701000 xent               TSX1    Z8AT$CREATE_TEMPORARY
        28 004446   000000 011000                    NOP     0

     2108    24331
     2109    24332    2          CALL Z8EK$BRANCH (END_LABEL$);

  24332 28 004447   200246 630500                    EPPR0   END_LABEL$,,AUTO
        28 004450   200252 450500                    STP0    CETT$$+1,,AUTO
        28 004451   200252 630500                    EPPR0   CETT$$+1,,AUTO
PL6.E3A0      #004=Z8ET$CREATE_SUBROUTINES File=Z8ET.:Z8A6TSI                    SAT 08/09/97 12:48 Page:351
        28 004452   000034 631400 29                 EPPR1   28
        28 004453   000000 701000 xent               TSX1    Z8EK$BRANCH
        28 004454   000000 011000                    NOP     0

     2110    24333
     2111    24334    3          DO I = 1 TO TARGET_NO#;

  24334 28 004455   000001 235007                    LDA     1,DL
        28 004456   200007 755100                    STA     I,,AUTO
        28 004457   004544 710000 28                 TRA     s:24728+1

     2112    24335
     2113    24336    3            NAME$$ = CONTROL$$ -> LTS_PTR_ARRAY.P$(I);

  24336 28 004460   200207 470500                    LDP0    @CONTROL$$,,AUTO
        28 004461   000000 471500                    LDP1    0,,PR0
        28 004462   200007 720100                    LXL0    I,,AUTO
        28 004463   100002 236110                    LDQ     2,X0,PR1
        28 004464   200244 756100                    STQ     NAME$$,,AUTO

     2114    24337
     2115    24338                 %NEW_ILL (@ID    = %DEFLB,
     2116    24339                       @LABEL$ = "LBL$$(I)");

  24671 28 004465   000006 236000 29                 LDQ     6
        28 004466   200252 756100                    STQ     CETT$$+1,,AUTO
        28 004467   200252 631500                    EPPR1   CETT$$+1,,AUTO
        28 004470   200257 451500                    STP1    CETT$$+6,,AUTO
        28 004471   000007 236000 29                 LDQ     7
        28 004472   200256 756100                    STQ     CETT$$+5,,AUTO
        28 004473   000010 237000 29                 LDAQ    8
        28 004474   200254 757100                    STAQ    CETT$$+3,,AUTO
        28 004475   200254 630500                    EPPR0   CETT$$+3,,AUTO
        28 004476   000003 631400 29                 EPPR1   3
        28 004477   000000 701000 xent               TSX1    Z8AN$NEW_ILL
        28 004500   000000 011000                    NOP     0

PL6.E3A0      #004=Z8ET$CREATE_SUBROUTINES File=Z8ET.:Z8A6TSI                    SAT 08/09/97 12:48 Page:352
  24672 28 004501   200007 720100                    LXL0    I,,AUTO
        28 004502   200210 236110                    LDQ     LBL$$,X0,AUTO
        28 004503   000000 470400 18                 LDP0    ILL$
        28 004504   000001 756100                    STQ     1,,PR0

     2117    24718
     2118    24719    3            CALL Z8E7$MOVE (NAME$$ -> CONTROL_NAME_LTS.TEMP_FIELD$,

  24719 28 004505   200244 236100                    LDQ     NAME$$,,AUTO
        28 004506   000013 036003                    ADLQ    11,DU
        28 004507   200253 756100                    STQ     CETT$$+2,,AUTO
        28 004510   200244 236100                    LDQ     NAME$$,,AUTO
        28 004511   000014 036003                    ADLQ    12,DU
        28 004512   200252 756100                    STQ     CETT$$+1,,AUTO
        28 004513   200252 630500                    EPPR0   CETT$$+1,,AUTO
        28 004514   000000 631400 29                 EPPR1   0
        28 004515   000000 701000 xent               TSX1    Z8E7$MOVE
        28 004516   000000 011000                    NOP     0

     2119    24720    3                            NAME$$ -> CONTROL_NAME_LTS.ST_FIELD$);
     2120    24721
     2121    24722    3            CALL Z8E7$MOVE (NAME$$ -> CONTROL_NAME_LTS.ST_FIELD$,

  24722 28 004517   200244 236100                    LDQ     NAME$$,,AUTO
        28 004520   000015 036003                    ADLQ    13,DU
        28 004521   200253 756100                    STQ     CETT$$+2,,AUTO
        28 004522   200244 236100                    LDQ     NAME$$,,AUTO
        28 004523   000013 036003                    ADLQ    11,DU
        28 004524   200252 756100                    STQ     CETT$$+1,,AUTO
        28 004525   200252 630500                    EPPR0   CETT$$+1,,AUTO
        28 004526   000000 631400 29                 EPPR1   0
        28 004527   000000 701000 xent               TSX1    Z8E7$MOVE
        28 004530   000000 011000                    NOP     0

     2122    24723    3                            NAME$$ -> CONTROL_NAME_LTS.SHADOW_FIELD$);
     2123    24724
     2124    24725    3            CALL Z8E7$MOVE (NAME$$ -> CONTROL_NAME_LTS.SHADOW_FIELD$,
PL6.E3A0      #004=Z8ET$CREATE_SUBROUTINES File=Z8ET.:Z8A6TSI                    SAT 08/09/97 12:48 Page:353

  24725 28 004531   200244 236100                    LDQ     NAME$$,,AUTO
        28 004532   000014 036003                    ADLQ    12,DU
        28 004533   200253 756100                    STQ     CETT$$+2,,AUTO
        28 004534   200244 236100                    LDQ     NAME$$,,AUTO
        28 004535   000015 036003                    ADLQ    13,DU
        28 004536   200252 756100                    STQ     CETT$$+1,,AUTO
        28 004537   200252 630500                    EPPR0   CETT$$+1,,AUTO
        28 004540   000000 631400 29                 EPPR1   0
        28 004541   000000 701000 xent               TSX1    Z8E7$MOVE
        28 004542   000000 011000                    NOP     0

     2125    24726    3                            NAME$$ -> CONTROL_NAME_LTS.TEMP_FIELD$);
     2126    24727
     2127    24728    3          END; /* DO LOOP */

  24728 28 004543   200007 054100                    AOS     I,,AUTO
        28 004544   200007 236100                    LDQ     I,,AUTO
        28 004545   200245 116100                    CMPQ    TARGET_NO#,,AUTO
        28 004546   004460 604400 28                 TMOZ    s:24336

     2128    24729
     2129    24730               %NEW_ILL (@ID   = %DEFLB,
     2130    24731                         @LABEL$ = END_LABEL$);

  25063 28 004547   000006 236000 29                 LDQ     6
        28 004550   200252 756100                    STQ     CETT$$+1,,AUTO
        28 004551   200252 630500                    EPPR0   CETT$$+1,,AUTO
        28 004552   200257 450500                    STP0    CETT$$+6,,AUTO
        28 004553   000007 236000 29                 LDQ     7
        28 004554   200256 756100                    STQ     CETT$$+5,,AUTO
        28 004555   000010 237000 29                 LDAQ    8
        28 004556   200254 757100                    STAQ    CETT$$+3,,AUTO
        28 004557   200254 630500                    EPPR0   CETT$$+3,,AUTO
        28 004560   000003 631400 29                 EPPR1   3
        28 004561   000000 701000 xent               TSX1    Z8AN$NEW_ILL
        28 004562   000000 011000                    NOP     0
PL6.E3A0      #004=Z8ET$CREATE_SUBROUTINES File=Z8ET.:Z8A6TSI                    SAT 08/09/97 12:48 Page:354

  25064 28 004563   200246 236100                    LDQ     END_LABEL$,,AUTO
        28 004564   000000 470400 18                 LDP0    ILL$
        28 004565   000001 756100                    STQ     1,,PR0

     2131    25110
     2132    25111               %DB_EXCEPT_LIBRARY_RETURN;

  25321 28 004566   000006 236000 29                 LDQ     6
        28 004567   200252 756100                    STQ     CETT$$+1,,AUTO
        28 004570   200252 631500                    EPPR1   CETT$$+1,,AUTO
        28 004571   200257 451500                    STP1    CETT$$+6,,AUTO
        28 004572   000007 236000 29                 LDQ     7
        28 004573   200256 756100                    STQ     CETT$$+5,,AUTO
        28 004574   000032 237000 29                 LDAQ    26
        28 004575   200254 757100                    STAQ    CETT$$+3,,AUTO
        28 004576   200254 630500                    EPPR0   CETT$$+3,,AUTO
        28 004577   000003 631400 29                 EPPR1   3
        28 004600   000000 701000 xent               TSX1    Z8AN$NEW_ILL
        28 004601   000000 011000                    NOP     0

  25322 28 004602   000001 220003                    LDX0    1,DU
        28 004603   000000 470400 18                 LDP0    ILL$
        28 004604   000000 440100                    SXL0    0,,PR0

  25326 28 004605   000057 470400 xsym               LDP0    O1COM+47
        28 004606   000006 236100                    LDQ     6,,PR0
        28 004607   000000 471400 18                 LDP1    ILL$
        28 004610   100001 756100                    STQ     1,,PR1

     2133    25495
     2134    25496    2    END CREATE_CTR_DETECT_SUB;

  25496 28 004611   200206 221300                    LDX1  ! CTR_LVL_ETT$+2,,AUTO
        28 004612   000001 702211                    TSX2  ! 1,X1

     2135    25497         %EJECT;
PL6.E3A0      #004=Z8ET$CREATE_SUBROUTINES File=Z8ET.:Z8A6TSI                    SAT 08/09/97 12:48 Page:355
     2136    25498
     2137    25499         /*======================*/
     2138    25500    1      CREATE_SHADOW_SWAP_SUB: PROC(CONTROL$$);

  25500 28 004613   200206 741300       CREATE_SHAD* STX1  ! CTR_LVL_ETT$+2,,AUTO

     2139    25501         /*======================*/
     2140    25502
     2141    25503        /*I*
     2142    25504
     2143    25505             NAME:  CREATE_SHADOW_SWAP_SUB
     2144    25506
     2145    25507          DESCRIPTION: This routine creates shadow swap subroutine
     2146    25508                       that will executed by the RWCS to swap the control
     2147    25509                       items with its shadow fields.
     2148    25510        */
     2149    25511
     2150    25512
     2151    25513    2   DCL CONTROL$$      PTR;
     2152    25514    2   DCL LABEL$         PTR;
     2153    25515    2   DCL CTR_FINAL_IND  SBIN WORD;
     2154    25516    2   DCL LBL$$ (0 : 25) PTR;
     2155    25517    2   DCL ETT$$          PTR;
     2156    25518    2   DCL END_LABEL$     PTR;
     2157    25519    2   DCL START_LABEL$   PTR;
     2158    25520    2   DCL NAME$$         PTR;
     2159    25521    2   DCL TARGET_NO#     SBIN WORD;
     2160    25522    2   DCL CETT$$         PTR;
     2161    25523
     2162    25524               %SUB_HEAD (OFFSET_V = %CTR_ITEM_SWAP_OFF,
     2163    25525                          RWCT_PTR = LTS$$ -> REPORT_LTS.RWCT$);

  25527 28 004614   200210 630500                    EPPR0   LABEL$,,AUTO
        28 004615   200253 450500                    STP0    CETT$$+2,,AUTO
        28 004616   000002 236000 29                 LDQ     2
        28 004617   200252 756100                    STQ     CETT$$+1,,AUTO
        28 004620   200252 630500                    EPPR0   CETT$$+1,,AUTO
PL6.E3A0      #004=Z8ET$CREATE_SUBROUTINES File=Z8ET.:Z8A6TSI                    SAT 08/09/97 12:48 Page:356
        28 004621   000000 631400 29                 EPPR1   0
        28 004622   000000 701000 xent               TSX1    Z8AT$CREATE_TEMPORARY
        28 004623   000000 011000                    NOP     0

  25528 28 004624   200210 470500                    LDP0    LABEL$,,AUTO
        28 004625   400000 236003                    LDQ     -131072,DU
        28 004626   000003 256100                    ORSQ    3,,PR0

  25529 28 004627   200210 470500                    LDP0    LABEL$,,AUTO
        28 004630   001000 236007                    LDQ     512,DL
        28 004631   000003 256100                    ORSQ    3,,PR0

  25863 28 004632   000006 236000 29                 LDQ     6
        28 004633   200252 756100                    STQ     CETT$$+1,,AUTO
        28 004634   200252 630500                    EPPR0   CETT$$+1,,AUTO
        28 004635   200257 450500                    STP0    CETT$$+6,,AUTO
        28 004636   000007 236000 29                 LDQ     7
        28 004637   200256 756100                    STQ     CETT$$+5,,AUTO
        28 004640   000010 237000 29                 LDAQ    8
        28 004641   200254 757100                    STAQ    CETT$$+3,,AUTO
        28 004642   200254 630500                    EPPR0   CETT$$+3,,AUTO
        28 004643   000003 631400 29                 EPPR1   3
        28 004644   000000 701000 xent               TSX1    Z8AN$NEW_ILL
        28 004645   000000 011000                    NOP     0

  25864 28 004646   200210 236100                    LDQ     LABEL$,,AUTO
        28 004647   000000 470400 18                 LDP0    ILL$
        28 004650   000001 756100                    STQ     1,,PR0

  26171 28 004651   000006 236000 29                 LDQ     6
        28 004652   200252 756100                    STQ     CETT$$+1,,AUTO
        28 004653   200252 631500                    EPPR1   CETT$$+1,,AUTO
        28 004654   200257 451500                    STP1    CETT$$+6,,AUTO
        28 004655   000007 236000 29                 LDQ     7
        28 004656   200256 756100                    STQ     CETT$$+5,,AUTO
        28 004657   000014 237000 29                 LDAQ    12
        28 004660   200254 757100                    STAQ    CETT$$+3,,AUTO
PL6.E3A0      #004=Z8ET$CREATE_SUBROUTINES File=Z8ET.:Z8A6TSI                    SAT 08/09/97 12:48 Page:357
        28 004661   200254 630500                    EPPR0   CETT$$+3,,AUTO
        28 004662   000003 631400 29                 EPPR1   3
        28 004663   000000 701000 xent               TSX1    Z8AN$NEW_ILL
        28 004664   000000 011000                    NOP     0

  26175 28 004665   000013 220003                    LDX0    11,DU
        28 004666   000000 470400 18                 LDP0    ILL$
        28 004667   000000 440100                    SXL0    0,,PR0

  26177 28 004670   000000 470400 18                 LDP0    ILL$
        28 004671   000002 450100                    STZ     2,,PR0

  26178 28 004672   200210 236100                    LDQ     LABEL$,,AUTO
        28 004673   000001 756100                    STQ     1,,PR0

  26179 28 004674   200003 471500                    LDP1    @LTS$$,,AUTO
        28 004675   100000 473500                    LDP3    0,,PR1
        28 004676   300022 236100                    LDQ     18,,PR3
        28 004677   000003 756100                    STQ     3,,PR0

  26501 28 004700   000006 236000 29                 LDQ     6
        28 004701   200252 756100                    STQ     CETT$$+1,,AUTO
        28 004702   200252 633500                    EPPR3   CETT$$+1,,AUTO
        28 004703   200257 453500                    STP3    CETT$$+6,,AUTO
        28 004704   000007 236000 29                 LDQ     7
        28 004705   200256 756100                    STQ     CETT$$+5,,AUTO
        28 004706   000020 237000 29                 LDAQ    16
        28 004707   200254 757100                    STAQ    CETT$$+3,,AUTO
        28 004710   200254 630500                    EPPR0   CETT$$+3,,AUTO
        28 004711   000003 631400 29                 EPPR1   3
        28 004712   000000 701000 xent               TSX1    Z8AN$NEW_ILL
        28 004713   000000 011000                    NOP     0

  26502 28 004714   000001 220003                    LDX0    1,DU
        28 004715   000000 470400 18                 LDP0    ILL$
        28 004716   000000 440100                    SXL0    0,,PR0

PL6.E3A0      #004=Z8ET$CREATE_SUBROUTINES File=Z8ET.:Z8A6TSI                    SAT 08/09/97 12:48 Page:358
  26506 28 004717   000057 470400 xsym               LDP0    O1COM+47
        28 004720   000006 236100                    LDQ     6,,PR0
        28 004721   000000 471400 18                 LDP1    ILL$
        28 004722   100001 756100                    STQ     1,,PR1

     2164    26675
     2165    26676    2          TARGET_NO# = CONTROL$$ -> LTS_PTR_ARRAY.N - 3;

  26676 28 004723   200207 470500                    LDP0    @CONTROL$$,,AUTO
        28 004724   000000 473500                    LDP3    0,,PR0
        28 004725   300000 236100                    LDQ     0,,PR3
        28 004726   777777 376007                    ANQ     -1,DL
        28 004727   000003 136007                    SBLQ    3,DL
        28 004730   200250 756100                    STQ     TARGET_NO#,,AUTO

     2166    26677
     2167    26678    2          IF LTS$$ -> REPORT_LTS.B.CONTROL_FINAL THEN

  26678 28 004731   200003 474500                    LDP4    @LTS$$,,AUTO
        28 004732   400000 475500                    LDP5    0,,PR4
        28 004733   500003 236100                    LDQ     3,,PR5
        28 004734   200000 316003                    CANQ    65536,DU
        28 004735   004742 600000 28                 TZE     s:26681

     2168    26679    2            MKCN.CON = TARGET_NO# + 2;

  26679 28 004736   200250 235100                    LDA     TARGET_NO#,,AUTO
        28 004737   000002 035007                    ADLA    2,DL
        28 004740   000000 755000 24                 STA     MKCN
        28 004741   004745 710000 28                 TRA     s:26683

     2169    26680    2          ELSE
     2170    26681    2            MKCN.CON = TARGET_NO# + 1;

  26681 28 004742   200250 235100                    LDA     TARGET_NO#,,AUTO
        28 004743   000001 035007                    ADLA    1,DL
        28 004744   000000 755000 24                 STA     MKCN
PL6.E3A0      #004=Z8ET$CREATE_SUBROUTINES File=Z8ET.:Z8A6TSI                    SAT 08/09/97 12:48 Page:359

     2171    26682
     2172    26683    2          CALL Z8AC$MAKE_CONST (CONST_ETT$);

  26683 28 004745   200011 633500                    EPPR3   CONST_ETT$,,AUTO
        28 004746   200252 453500                    STP3    CETT$$+1,,AUTO
        28 004747   200252 630500                    EPPR0   CETT$$+1,,AUTO
        28 004750   000034 631400 29                 EPPR1   28
        28 004751   000000 701000 xent               TSX1    Z8AC$MAKE_CONST
        28 004752   000000 011000                    NOP     0

     2173    26684
     2174    26685    2          CALL Z8AF$FORME (%CMPI,

  26685 28 004753   200251 630500                    EPPR0   CETT$$,,AUTO
        28 004754   200255 450500                    STP0    CETT$$+4,,AUTO
        28 004755   200011 631500                    EPPR1   CONST_ETT$,,AUTO
        28 004756   200254 451500                    STP1    CETT$$+3,,AUTO
        28 004757   200204 633500                    EPPR3   CTR_LVL_ETT$,,AUTO
        28 004760   200253 453500                    STP3    CETT$$+2,,AUTO
        28 004761   000056 236000 29                 LDQ     46
        28 004762   200252 756100                    STQ     CETT$$+1,,AUTO
        28 004763   200252 630500                    EPPR0   CETT$$+1,,AUTO
        28 004764   000003 631400 29                 EPPR1   3
        28 004765   000000 701000 xent               TSX1    Z8AF$FORME
        28 004766   000000 011000                    NOP     0

     2175    26686    2                           CTR_LVL_ETT$,
     2176    26687    2                           CONST_ETT$,
     2177    26688    2                           CETT$$);
     2178    26689
     2179    26690    2          CALL Z8AT$CREATE_TEMPORARY (%PARA, END_LABEL$);

  26690 28 004767   200245 630500                    EPPR0   END_LABEL$,,AUTO
        28 004770   200253 450500                    STP0    CETT$$+2,,AUTO
        28 004771   000002 236000 29                 LDQ     2
        28 004772   200252 756100                    STQ     CETT$$+1,,AUTO
PL6.E3A0      #004=Z8ET$CREATE_SUBROUTINES File=Z8ET.:Z8A6TSI                    SAT 08/09/97 12:48 Page:360
        28 004773   200252 630500                    EPPR0   CETT$$+1,,AUTO
        28 004774   000000 631400 29                 EPPR1   0
        28 004775   000000 701000 xent               TSX1    Z8AT$CREATE_TEMPORARY
        28 004776   000000 011000                    NOP     0

     2180    26691
     2181    26692    2          CALL Z8AT$CREATE_TEMPORARY (%PARA, START_LABEL$);

  26692 28 004777   200246 630500                    EPPR0   START_LABEL$,,AUTO
        28 005000   200253 450500                    STP0    CETT$$+2,,AUTO
        28 005001   000002 236000 29                 LDQ     2
        28 005002   200252 756100                    STQ     CETT$$+1,,AUTO
        28 005003   200252 630500                    EPPR0   CETT$$+1,,AUTO
        28 005004   000000 631400 29                 EPPR1   0
        28 005005   000000 701000 xent               TSX1    Z8AT$CREATE_TEMPORARY
        28 005006   000000 011000                    NOP     0

     2182    26693
     2183    26694    2          START_LABEL$ -> LABEL.B.GO_VECTOR_START = TRUE;

  26694 28 005007   200246 470500                    LDP0    START_LABEL$,,AUTO
        28 005010   000004 236003                    LDQ     4,DU
        28 005011   000003 256100                    ORSQ    3,,PR0

     2184    26695    2          START_LABEL$ -> LABEL.P_END$ = END_LABEL$;

  26695 28 005012   200245 236100                    LDQ     END_LABEL$,,AUTO
        28 005013   200246 470500                    LDP0    START_LABEL$,,AUTO
        28 005014   000001 756100                    STQ     1,,PR0

     2185    26696
     2186    26697    2          CALL Z8AF$NEW_BASE (START_LABEL$,

  26697 28 005015   000017 236000 29                 LDQ     15
        28 005016   200252 756100                    STQ     CETT$$+1,,AUTO
        28 005017   200244 630500                    EPPR0   ETT$$,,AUTO
        28 005020   200255 450500                    STP0    CETT$$+4,,AUTO
PL6.E3A0      #004=Z8ET$CREATE_SUBROUTINES File=Z8ET.:Z8A6TSI                    SAT 08/09/97 12:48 Page:361
        28 005021   200252 631500                    EPPR1   CETT$$+1,,AUTO
        28 005022   200254 451500                    STP1    CETT$$+3,,AUTO
        28 005023   200246 633500                    EPPR3   START_LABEL$,,AUTO
        28 005024   200253 453500                    STP3    CETT$$+2,,AUTO
        28 005025   200253 630500                    EPPR0   CETT$$+2,,AUTO
        28 005026   000030 631400 29                 EPPR1   24
        28 005027   000000 701000 xent               TSX1    Z8AF$NEW_BASE
        28 005030   000000 011000                    NOP     0

     2187    26698    2                              ADDR(NIL),
     2188    26699    2                              ETT$$);
     2189    26700    2          CALL Z8AF$FORME (%SSOP,

  26700 28 005031   200244 630500                    EPPR0   ETT$$,,AUTO
        28 005032   200255 450500                    STP0    CETT$$+4,,AUTO
        28 005033   200204 631500                    EPPR1   CTR_LVL_ETT$,,AUTO
        28 005034   200254 451500                    STP1    CETT$$+3,,AUTO
        28 005035   200244 633500                    EPPR3   ETT$$,,AUTO
        28 005036   200253 453500                    STP3    CETT$$+2,,AUTO
        28 005037   000045 236000 29                 LDQ     37
        28 005040   200252 756100                    STQ     CETT$$+1,,AUTO
        28 005041   200252 630500                    EPPR0   CETT$$+1,,AUTO
        28 005042   000003 631400 29                 EPPR1   3
        28 005043   000000 701000 xent               TSX1    Z8AF$FORME
        28 005044   000000 011000                    NOP     0

     2190    26701    2                           ETT$$,
     2191    26702    2                           CTR_LVL_ETT$,
     2192    26703    2                           ETT$$);
     2193    26704
     2194    26705               %NEW_ILL (@ID   = %GO,
     2195    26706                         @CODE = %GO_LESS_THAN_LOGICAL,
     2196    26707                         @LOP  = ETT$$,
     2197    26708                         @ROP  = CETT$$);

  26898 28 005045   000006 236000 29                 LDQ     6
        28 005046   200252 756100                    STQ     CETT$$+1,,AUTO
PL6.E3A0      #004=Z8ET$CREATE_SUBROUTINES File=Z8ET.:Z8A6TSI                    SAT 08/09/97 12:48 Page:362
        28 005047   200252 630500                    EPPR0   CETT$$+1,,AUTO
        28 005050   200257 450500                    STP0    CETT$$+6,,AUTO
        28 005051   000007 236000 29                 LDQ     7
        28 005052   200256 756100                    STQ     CETT$$+5,,AUTO
        28 005053   000060 237000 29                 LDAQ    48
        28 005054   200254 757100                    STAQ    CETT$$+3,,AUTO
        28 005055   200254 630500                    EPPR0   CETT$$+3,,AUTO
        28 005056   000003 631400 29                 EPPR1   3
        28 005057   000000 701000 xent               TSX1    Z8AN$NEW_ILL
        28 005060   000000 011000                    NOP     0

  26899 28 005061   000027 220003                    LDX0    23,DU
        28 005062   000000 470400 18                 LDP0    ILL$
        28 005063   000000 440100                    SXL0    0,,PR0

  26900 28 005064   200244 236100                    LDQ     ETT$$,,AUTO
        28 005065   000000 470400 18                 LDP0    ILL$
        28 005066   000001 756100                    STQ     1,,PR0

  26901 28 005067   200251 236100                    LDQ     CETT$$,,AUTO
        28 005070   000002 756100                    STQ     2,,PR0

     2198    27087
     2199    27088               %NEW_ILL (@ID = %DEFLB,
     2200    27089                         @LABEL$ = START_LABEL$);

  27421 28 005071   000006 236000 29                 LDQ     6
        28 005072   200252 756100                    STQ     CETT$$+1,,AUTO
        28 005073   200252 631500                    EPPR1   CETT$$+1,,AUTO
        28 005074   200257 451500                    STP1    CETT$$+6,,AUTO
        28 005075   000007 236000 29                 LDQ     7
        28 005076   200256 756100                    STQ     CETT$$+5,,AUTO
        28 005077   000010 237000 29                 LDAQ    8
        28 005100   200254 757100                    STAQ    CETT$$+3,,AUTO
        28 005101   200254 630500                    EPPR0   CETT$$+3,,AUTO
        28 005102   000003 631400 29                 EPPR1   3
        28 005103   000000 701000 xent               TSX1    Z8AN$NEW_ILL
PL6.E3A0      #004=Z8ET$CREATE_SUBROUTINES File=Z8ET.:Z8A6TSI                    SAT 08/09/97 12:48 Page:363
        28 005104   000000 011000                    NOP     0

  27422 28 005105   200246 236100                    LDQ     START_LABEL$,,AUTO
        28 005106   000000 470400 18                 LDP0    ILL$
        28 005107   000001 756100                    STQ     1,,PR0

     2201    27468
     2202    27469    2          CALL Z8EK$BRANCH (END_LABEL$);

  27469 28 005110   200245 631500                    EPPR1   END_LABEL$,,AUTO
        28 005111   200252 451500                    STP1    CETT$$+1,,AUTO
        28 005112   200252 630500                    EPPR0   CETT$$+1,,AUTO
        28 005113   000034 631400 29                 EPPR1   28
        28 005114   000000 701000 xent               TSX1    Z8EK$BRANCH
        28 005115   000000 011000                    NOP     0

     2203    27470
     2204    27471    2          CALL Z8AT$CREATE_TEMPORARY (%PARA, LBL$$ (1));

  27471 28 005116   200213 630500                    EPPR0   NEXT$,,AUTO
        28 005117   200253 450500                    STP0    CETT$$+2,,AUTO
        28 005120   000002 236000 29                 LDQ     2
        28 005121   200252 756100                    STQ     CETT$$+1,,AUTO
        28 005122   200252 630500                    EPPR0   CETT$$+1,,AUTO
        28 005123   000000 631400 29                 EPPR1   0
        28 005124   000000 701000 xent               TSX1    Z8AT$CREATE_TEMPORARY
        28 005125   000000 011000                    NOP     0

     2205    27472
     2206    27473    2          CALL Z8EK$BRANCH (LBL$$(1));

  27473 28 005126   200213 630500                    EPPR0   NEXT$,,AUTO
        28 005127   200252 450500                    STP0    CETT$$+1,,AUTO
        28 005130   200252 630500                    EPPR0   CETT$$+1,,AUTO
        28 005131   000034 631400 29                 EPPR1   28
        28 005132   000000 701000 xent               TSX1    Z8EK$BRANCH
        28 005133   000000 011000                    NOP     0
PL6.E3A0      #004=Z8ET$CREATE_SUBROUTINES File=Z8ET.:Z8A6TSI                    SAT 08/09/97 12:48 Page:364

     2207    27474
     2208    27475    2          IF LTS$$ -> REPORT_LTS.B.CONTROL_FINAL THEN

  27475 28 005134   200003 470500                    LDP0    @LTS$$,,AUTO
        28 005135   000000 471500                    LDP1    0,,PR0
        28 005136   100003 236100                    LDQ     3,,PR1
        28 005137   200000 316003                    CANQ    65536,DU
        28 005140   005147 600000 28                 TZE     s:27479

     2209    27476
     2210    27477    2            CALL Z8EK$BRANCH (LBL$$(1));

  27477 28 005141   200213 633500                    EPPR3   NEXT$,,AUTO
        28 005142   200252 453500                    STP3    CETT$$+1,,AUTO
        28 005143   200252 630500                    EPPR0   CETT$$+1,,AUTO
        28 005144   000034 631400 29                 EPPR1   28
        28 005145   000000 701000 xent               TSX1    Z8EK$BRANCH
        28 005146   000000 011000                    NOP     0

     2211    27478
     2212    27479    3          DO I = 2 TO TARGET_NO#;

  27479 28 005147   000002 235007                    LDA     2,DL
        28 005150   200007 755100                    STA     I,,AUTO
        28 005151   005173 710000 28                 TRA     s:27485+1

     2213    27480
     2214    27481    3            CALL Z8AT$CREATE_TEMPORARY (%PARA, LBL$$ (I));

  27481 28 005152   200007 720100                    LXL0    I,,AUTO
        28 005153   200212 630510                    EPPR0   LBL$$,X0,AUTO
        28 005154   200253 450500                    STP0    CETT$$+2,,AUTO
        28 005155   000002 236000 29                 LDQ     2
        28 005156   200252 756100                    STQ     CETT$$+1,,AUTO
        28 005157   200252 630500                    EPPR0   CETT$$+1,,AUTO
        28 005160   000000 631400 29                 EPPR1   0
PL6.E3A0      #004=Z8ET$CREATE_SUBROUTINES File=Z8ET.:Z8A6TSI                    SAT 08/09/97 12:48 Page:365
        28 005161   000000 701000 xent               TSX1    Z8AT$CREATE_TEMPORARY
        28 005162   000000 011000                    NOP     0

     2215    27482
     2216    27483    3            CALL Z8EK$BRANCH (LBL$$(I));

  27483 28 005163   200007 720100                    LXL0    I,,AUTO
        28 005164   200212 630510                    EPPR0   LBL$$,X0,AUTO
        28 005165   200252 450500                    STP0    CETT$$+1,,AUTO
        28 005166   200252 630500                    EPPR0   CETT$$+1,,AUTO
        28 005167   000034 631400 29                 EPPR1   28
        28 005170   000000 701000 xent               TSX1    Z8EK$BRANCH
        28 005171   000000 011000                    NOP     0

     2217    27484
     2218    27485    3          END;

  27485 28 005172   200007 054100                    AOS     I,,AUTO
        28 005173   200007 236100                    LDQ     I,,AUTO
        28 005174   200250 116100                    CMPQ    TARGET_NO#,,AUTO
        28 005175   005152 604400 28                 TMOZ    s:27481

     2219    27486
     2220    27487
     2221    27488    3          DO I = 1 TO TARGET_NO#;

  27488 28 005176   000001 235007                    LDA     1,DL
        28 005177   200007 755100                    STA     I,,AUTO
        28 005200   005265 710000 28                 TRA     s:27881+1

     2222    27489    3            NAME$$ = CONTROL$$ -> LTS_PTR_ARRAY.P$(I);

  27489 28 005201   200207 470500                    LDP0    @CONTROL$$,,AUTO
        28 005202   000000 471500                    LDP1    0,,PR0
        28 005203   200007 720100                    LXL0    I,,AUTO
        28 005204   100002 236110                    LDQ     2,X0,PR1
        28 005205   200247 756100                    STQ     NAME$$,,AUTO
PL6.E3A0      #004=Z8ET$CREATE_SUBROUTINES File=Z8ET.:Z8A6TSI                    SAT 08/09/97 12:48 Page:366

     2223    27490
     2224    27491                 %NEW_ILL (@ID    = %DEFLB,
     2225    27492                           @LABEL$ = "LBL$$(I)");

  27824 28 005206   000006 236000 29                 LDQ     6
        28 005207   200252 756100                    STQ     CETT$$+1,,AUTO
        28 005210   200252 631500                    EPPR1   CETT$$+1,,AUTO
        28 005211   200257 451500                    STP1    CETT$$+6,,AUTO
        28 005212   000007 236000 29                 LDQ     7
        28 005213   200256 756100                    STQ     CETT$$+5,,AUTO
        28 005214   000010 237000 29                 LDAQ    8
        28 005215   200254 757100                    STAQ    CETT$$+3,,AUTO
        28 005216   200254 630500                    EPPR0   CETT$$+3,,AUTO
        28 005217   000003 631400 29                 EPPR1   3
        28 005220   000000 701000 xent               TSX1    Z8AN$NEW_ILL
        28 005221   000000 011000                    NOP     0

  27825 28 005222   200007 720100                    LXL0    I,,AUTO
        28 005223   200212 236110                    LDQ     LBL$$,X0,AUTO
        28 005224   000000 470400 18                 LDP0    ILL$
        28 005225   000001 756100                    STQ     1,,PR0

     2226    27871
     2227    27872    3            CALL Z8E7$MOVE (NAME$$ -> CONTROL_NAME_LTS.TEMP_FIELD$,

  27872 28 005226   200247 236100                    LDQ     NAME$$,,AUTO
        28 005227   000013 036003                    ADLQ    11,DU
        28 005230   200253 756100                    STQ     CETT$$+2,,AUTO
        28 005231   200247 236100                    LDQ     NAME$$,,AUTO
        28 005232   000014 036003                    ADLQ    12,DU
        28 005233   200252 756100                    STQ     CETT$$+1,,AUTO
        28 005234   200252 630500                    EPPR0   CETT$$+1,,AUTO
        28 005235   000000 631400 29                 EPPR1   0
        28 005236   000000 701000 xent               TSX1    Z8E7$MOVE
        28 005237   000000 011000                    NOP     0

PL6.E3A0      #004=Z8ET$CREATE_SUBROUTINES File=Z8ET.:Z8A6TSI                    SAT 08/09/97 12:48 Page:367
     2228    27873    3                            NAME$$ -> CONTROL_NAME_LTS.ST_FIELD$);
     2229    27874
     2230    27875    3            CALL Z8E7$MOVE (NAME$$ -> CONTROL_NAME_LTS.ST_FIELD$,

  27875 28 005240   200247 236100                    LDQ     NAME$$,,AUTO
        28 005241   000015 036003                    ADLQ    13,DU
        28 005242   200253 756100                    STQ     CETT$$+2,,AUTO
        28 005243   200247 236100                    LDQ     NAME$$,,AUTO
        28 005244   000013 036003                    ADLQ    11,DU
        28 005245   200252 756100                    STQ     CETT$$+1,,AUTO
        28 005246   200252 630500                    EPPR0   CETT$$+1,,AUTO
        28 005247   000000 631400 29                 EPPR1   0
        28 005250   000000 701000 xent               TSX1    Z8E7$MOVE
        28 005251   000000 011000                    NOP     0

     2231    27876    3                            NAME$$ -> CONTROL_NAME_LTS.SHADOW_FIELD$);
     2232    27877
     2233    27878    3            CALL Z8E7$MOVE (NAME$$ -> CONTROL_NAME_LTS.SHADOW_FIELD$,

  27878 28 005252   200247 236100                    LDQ     NAME$$,,AUTO
        28 005253   000014 036003                    ADLQ    12,DU
        28 005254   200253 756100                    STQ     CETT$$+2,,AUTO
        28 005255   200247 236100                    LDQ     NAME$$,,AUTO
        28 005256   000015 036003                    ADLQ    13,DU
        28 005257   200252 756100                    STQ     CETT$$+1,,AUTO
        28 005260   200252 630500                    EPPR0   CETT$$+1,,AUTO
        28 005261   000000 631400 29                 EPPR1   0
        28 005262   000000 701000 xent               TSX1    Z8E7$MOVE
        28 005263   000000 011000                    NOP     0

     2234    27879    3                            NAME$$ -> CONTROL_NAME_LTS.TEMP_FIELD$);
     2235    27880
     2236    27881    3          END; /* DO LOOP */

  27881 28 005264   200007 054100                    AOS     I,,AUTO
        28 005265   200007 236100                    LDQ     I,,AUTO
        28 005266   200250 116100                    CMPQ    TARGET_NO#,,AUTO
PL6.E3A0      #004=Z8ET$CREATE_SUBROUTINES File=Z8ET.:Z8A6TSI                    SAT 08/09/97 12:48 Page:368
        28 005267   005201 604400 28                 TMOZ    s:27489

     2237    27882
     2238    27883               %NEW_ILL (@ID   = %DEFLB,
     2239    27884                         @LABEL$ = END_LABEL$);

  28216 28 005270   000006 236000 29                 LDQ     6
        28 005271   200252 756100                    STQ     CETT$$+1,,AUTO
        28 005272   200252 630500                    EPPR0   CETT$$+1,,AUTO
        28 005273   200257 450500                    STP0    CETT$$+6,,AUTO
        28 005274   000007 236000 29                 LDQ     7
        28 005275   200256 756100                    STQ     CETT$$+5,,AUTO
        28 005276   000010 237000 29                 LDAQ    8
        28 005277   200254 757100                    STAQ    CETT$$+3,,AUTO
        28 005300   200254 630500                    EPPR0   CETT$$+3,,AUTO
        28 005301   000003 631400 29                 EPPR1   3
        28 005302   000000 701000 xent               TSX1    Z8AN$NEW_ILL
        28 005303   000000 011000                    NOP     0

  28217 28 005304   200245 236100                    LDQ     END_LABEL$,,AUTO
        28 005305   000000 470400 18                 LDP0    ILL$
        28 005306   000001 756100                    STQ     1,,PR0

     2240    28263
     2241    28264               %DB_EXCEPT_LIBRARY_RETURN;

  28474 28 005307   000006 236000 29                 LDQ     6
        28 005310   200252 756100                    STQ     CETT$$+1,,AUTO
        28 005311   200252 631500                    EPPR1   CETT$$+1,,AUTO
        28 005312   200257 451500                    STP1    CETT$$+6,,AUTO
        28 005313   000007 236000 29                 LDQ     7
        28 005314   200256 756100                    STQ     CETT$$+5,,AUTO
        28 005315   000032 237000 29                 LDAQ    26
        28 005316   200254 757100                    STAQ    CETT$$+3,,AUTO
        28 005317   200254 630500                    EPPR0   CETT$$+3,,AUTO
        28 005320   000003 631400 29                 EPPR1   3
        28 005321   000000 701000 xent               TSX1    Z8AN$NEW_ILL
PL6.E3A0      #004=Z8ET$CREATE_SUBROUTINES File=Z8ET.:Z8A6TSI                    SAT 08/09/97 12:48 Page:369
        28 005322   000000 011000                    NOP     0

  28475 28 005323   000001 220003                    LDX0    1,DU
        28 005324   000000 470400 18                 LDP0    ILL$
        28 005325   000000 440100                    SXL0    0,,PR0

  28479 28 005326   000057 470400 xsym               LDP0    O1COM+47
        28 005327   000006 236100                    LDQ     6,,PR0
        28 005330   000000 471400 18                 LDP1    ILL$
        28 005331   100001 756100                    STQ     1,,PR1

     2242    28648
     2243    28649    2    END CREATE_SHADOW_SWAP_SUB;

  28649 28 005332   200206 221300                    LDX1  ! CTR_LVL_ETT$+2,,AUTO
        28 005333   000001 702211                    TSX2  ! 1,X1

     2244    28650         %EJECT;
PL6.E3A0      #004=Z8ET$CREATE_SUBROUTINES File=Z8ET.:Z8A6TSI                    SAT 08/09/97 12:48 Page:370
     2245    28651
     2246    28652         /*============*/
     2247    28653    1      GEN_ADD_CODE: PROC (ADD_LIST$);

  28653 28 005334   200214 741300       GEN_ADD_CODE STX1  ! LABEL$,,AUTO

     2248    28654         /*============*/
     2249    28655
     2250    28656        /*I*
     2251    28657
     2252    28658             NAME:  GEN_ADD_CODE
     2253    28659
     2254    28660          DESCRIPTION: This routine creates ILL item of the "add" operation
     2255    28661                       for the calling module.
     2256    28662        */
     2257    28663
     2258    28664
     2259    28665    2   DCL ADD_LIST$      PTR;
     2260    28666    2   DCL BIN_OP$        PTR;
     2261    28667        %DCL_AUTO_LX_ITEM (@NAME = ETT_ITEM);
     2262    28671
     2263    28672
     2264    28673
     2265    28674    2          BIN_OP$ = ADD_LIST$;

  28674 28 005335   200215 470500                    LDP0    @ADD_LIST$,,AUTO
        28 005336   000000 236100                    LDQ     0,,PR0
        28 005337   200216 756100                    STQ     BIN_OP$,,AUTO

     2266    28675
     2267    28676    3          DO WHILE (BIN_OP$ ~= ADDR(NIL));

  28676 28 005340   005371 710000 28                 TRA     s:28686

     2268    28677
     2269    28678    3              CALL Z8E5$MATH_PACK (BIN_OP$,

PL6.E3A0      #004=Z8ET$CREATE_SUBROUTINES File=Z8ET.:Z8A6TSI                    SAT 08/09/97 12:48 Page:371
  28678 28 005341   200220 630500                    EPPR0   ETT_ITEM,,AUTO
        28 005342   200252 450500                    STP0    CETT$$+1,,AUTO
        28 005343   200252 631500                    EPPR1   CETT$$+1,,AUTO
        28 005344   200255 451500                    STP1    CETT$$+4,,AUTO
        28 005345   200216 633500                    EPPR3   BIN_OP$,,AUTO
        28 005346   200254 453500                    STP3    CETT$$+3,,AUTO
        28 005347   200254 630500                    EPPR0   CETT$$+3,,AUTO
        28 005350   000000 631400 29                 EPPR1   0
        28 005351   000000 701000 xent               TSX1    Z8E5$MATH_PACK
        28 005352   000000 011000                    NOP     0

     2270    28679    3                                   ADDR(ETT_ITEM));
     2271    28680
     2272    28681    3              CALL Z8E7$MOVE (BIN_OP$ -> BINARY_OP.LOP$,

  28681 28 005353   200220 630500                    EPPR0   ETT_ITEM,,AUTO
        28 005354   200252 450500                    STP0    CETT$$+1,,AUTO
        28 005355   200252 631500                    EPPR1   CETT$$+1,,AUTO
        28 005356   200255 451500                    STP1    CETT$$+4,,AUTO
        28 005357   200216 236100                    LDQ     BIN_OP$,,AUTO
        28 005360   000001 036003                    ADLQ    1,DU
        28 005361   200254 756100                    STQ     CETT$$+3,,AUTO
        28 005362   200254 630500                    EPPR0   CETT$$+3,,AUTO
        28 005363   000000 631400 29                 EPPR1   0
        28 005364   000000 701000 xent               TSX1    Z8E7$MOVE
        28 005365   000000 011000                    NOP     0

     2273    28682    3                              ADDR(ETT_ITEM));
     2274    28683
     2275    28684    3              BIN_OP$ = BIN_OP$ -> BINARY_OP.LINK;

  28684 28 005366   200216 470500                    LDP0    BIN_OP$,,AUTO
        28 005367   000007 236100                    LDQ     7,,PR0
        28 005370   200216 756100                    STQ     BIN_OP$,,AUTO

     2276    28685
     2277    28686    3          END; /* WHILE */
PL6.E3A0      #004=Z8ET$CREATE_SUBROUTINES File=Z8ET.:Z8A6TSI                    SAT 08/09/97 12:48 Page:372

  28686 28 005371   000017 116000 29                 CMPQ    15
        28 005372   005341 601000 28                 TNZ     s:28678

     2278    28687
     2279    28688    2    END GEN_ADD_CODE;

  28688 28 005373   200214 221300                    LDX1  ! LABEL$,,AUTO
        28 005374   000001 702211                    TSX2  ! 1,X1

     2280    28689         %EJECT;
PL6.E3A0      #004=Z8ET$CREATE_SUBROUTINES File=Z8ET.:Z8A6TSI                    SAT 08/09/97 12:48 Page:373
     2281    28690
     2282    28691         /*=============*/
     2283    28692    1      GEN_CLEAR_SUB: PROC (GROUP$$);

  28692 28 005375   200210 741300       GEN_CLEAR_S* STX1  ! LABEL$,,AUTO

     2284    28693         /*=============*/
     2285    28694
     2286    28695        /*I*
     2287    28696
     2288    28697             NAME:  GEN_CLEAR_SUB
     2289    28698
     2290    28699          DESCRIPTION: This routine creates sum counter clear subroutine
     2291    28700                       that will executed by the RWCS to clear the sum
     2292    28701                       counter after the control footing is presented.
     2293    28702        */
     2294    28703
     2295    28704
     2296    28705    2   DCL GROUP$$        PTR;
     2297    28706    2   DCL LABEL$         PTR;
     2298    28707    2   DCL SUM$$          PTR;
     2299    28708
     2300    28709
     2301    28710
     2302    28711    2          IF GROUP$$ -> REPORT_01_LTS.CONTROL_LTS$ -> CONTROL_NAME_LTS.START_OFFSET

  28711 28 005376   200211 470500                    LDP0    @GROUP$$,,AUTO
        28 005377   000000 471500                    LDP1    0,,PR0
        28 005400   100014 473500                    LDP3    12,,PR1
        28 005401   300016 235100                    LDA     14,,PR3
        28 005402   000031 115007                    CMPA    25,DL
        28 005403   005622 604000 28                 TMI     s:30295

     2303    28712    2              >= %CTR_TBL_START_OFF THEN
     2304    28713    3            DO;

     2305    28714
PL6.E3A0      #004=Z8ET$CREATE_SUBROUTINES File=Z8ET.:Z8A6TSI                    SAT 08/09/97 12:48 Page:374
     2306    28715                  %SUB_HEAD (OFFSET_V = "GROUP$$ -> REPORT_01_LTS.CONTROL_LTS$ -> CONTROL_N
             28715        AME_LTS.START_OFFSET + %SUM_CLEAR_SUB_OFF",
     2307    28716                              RWCT_PTR = LTS$$ -> REPORT_LTS.RWCT$);

  28718 28 005404   200212 634500                    EPPR4   LABEL$,,AUTO
        28 005405   200253 454500                    STP4    CETT$$+2,,AUTO
        28 005406   000002 236000 29                 LDQ     2
        28 005407   200252 756100                    STQ     CETT$$+1,,AUTO
        28 005410   200252 630500                    EPPR0   CETT$$+1,,AUTO
        28 005411   000000 631400 29                 EPPR1   0
        28 005412   000000 701000 xent               TSX1    Z8AT$CREATE_TEMPORARY
        28 005413   000000 011000                    NOP     0

  28719 28 005414   200212 470500                    LDP0    LABEL$,,AUTO
        28 005415   400000 236003                    LDQ     -131072,DU
        28 005416   000003 256100                    ORSQ    3,,PR0

  28720 28 005417   200212 470500                    LDP0    LABEL$,,AUTO
        28 005420   001000 236007                    LDQ     512,DL
        28 005421   000003 256100                    ORSQ    3,,PR0

  29054 28 005422   000006 236000 29                 LDQ     6
        28 005423   200252 756100                    STQ     CETT$$+1,,AUTO
        28 005424   200252 630500                    EPPR0   CETT$$+1,,AUTO
        28 005425   200257 450500                    STP0    CETT$$+6,,AUTO
        28 005426   000007 236000 29                 LDQ     7
        28 005427   200256 756100                    STQ     CETT$$+5,,AUTO
        28 005430   000010 237000 29                 LDAQ    8
        28 005431   200254 757100                    STAQ    CETT$$+3,,AUTO
        28 005432   200254 630500                    EPPR0   CETT$$+3,,AUTO
        28 005433   000003 631400 29                 EPPR1   3
        28 005434   000000 701000 xent               TSX1    Z8AN$NEW_ILL
        28 005435   000000 011000                    NOP     0

  29055 28 005436   200212 236100                    LDQ     LABEL$,,AUTO
        28 005437   000000 470400 18                 LDP0    ILL$
        28 005440   000001 756100                    STQ     1,,PR0
PL6.E3A0      #004=Z8ET$CREATE_SUBROUTINES File=Z8ET.:Z8A6TSI                    SAT 08/09/97 12:48 Page:375

  29362 28 005441   000006 236000 29                 LDQ     6
        28 005442   200252 756100                    STQ     CETT$$+1,,AUTO
        28 005443   200252 631500                    EPPR1   CETT$$+1,,AUTO
        28 005444   200257 451500                    STP1    CETT$$+6,,AUTO
        28 005445   000007 236000 29                 LDQ     7
        28 005446   200256 756100                    STQ     CETT$$+5,,AUTO
        28 005447   000014 237000 29                 LDAQ    12
        28 005450   200254 757100                    STAQ    CETT$$+3,,AUTO
        28 005451   200254 630500                    EPPR0   CETT$$+3,,AUTO
        28 005452   000003 631400 29                 EPPR1   3
        28 005453   000000 701000 xent               TSX1    Z8AN$NEW_ILL
        28 005454   000000 011000                    NOP     0

  29366 28 005455   200211 470500                    LDP0    @GROUP$$,,AUTO
        28 005456   000000 471500                    LDP1    0,,PR0
        28 005457   100014 473500                    LDP3    12,,PR1
        28 005460   300016 720100                    LXL0    14,,PR3
        28 005461   000004 621010                    EAX1    4,X0
        28 005462   000000 474400 18                 LDP4    ILL$
        28 005463   400000 441100                    SXL1    0,,PR4

  29368 28 005464   000000 471400 18                 LDP1    ILL$
        28 005465   100002 450100                    STZ     2,,PR1

  29369 28 005466   200212 236100                    LDQ     LABEL$,,AUTO
        28 005467   100001 756100                    STQ     1,,PR1

  29370 28 005470   200003 473500                    LDP3    @LTS$$,,AUTO
        28 005471   300000 474500                    LDP4    0,,PR3
        28 005472   400022 236100                    LDQ     18,,PR4
        28 005473   100003 756100                    STQ     3,,PR1

  29692 28 005474   000006 236000 29                 LDQ     6
        28 005475   200252 756100                    STQ     CETT$$+1,,AUTO
        28 005476   200252 634500                    EPPR4   CETT$$+1,,AUTO
        28 005477   200257 454500                    STP4    CETT$$+6,,AUTO
PL6.E3A0      #004=Z8ET$CREATE_SUBROUTINES File=Z8ET.:Z8A6TSI                    SAT 08/09/97 12:48 Page:376
        28 005500   000007 236000 29                 LDQ     7
        28 005501   200256 756100                    STQ     CETT$$+5,,AUTO
        28 005502   000020 237000 29                 LDAQ    16
        28 005503   200254 757100                    STAQ    CETT$$+3,,AUTO
        28 005504   200254 630500                    EPPR0   CETT$$+3,,AUTO
        28 005505   000003 631400 29                 EPPR1   3
        28 005506   000000 701000 xent               TSX1    Z8AN$NEW_ILL
        28 005507   000000 011000                    NOP     0

  29693 28 005510   000001 220003                    LDX0    1,DU
        28 005511   000000 470400 18                 LDP0    ILL$
        28 005512   000000 440100                    SXL0    0,,PR0

  29697 28 005513   000057 470400 xsym               LDP0    O1COM+47
        28 005514   000006 236100                    LDQ     6,,PR0
        28 005515   000000 471400 18                 LDP1    ILL$
        28 005516   100001 756100                    STQ     1,,PR1

     2308    29866
     2309    29867    3              SUM$$ = GROUP$$;

  29867 28 005517   200211 470500                    LDP0    @GROUP$$,,AUTO
        28 005520   000000 236100                    LDQ     0,,PR0
        28 005521   200213 756100                    STQ     SUM$$,,AUTO

     2310    29868
     2311    29869    4              DO WHILE (SUM$$ ~= ADDR(NIL));

  29869 28 005522   005575 710000 28                 TRA     s:29907

     2312    29870
     2313    29871    4                IF SUM$$ -> REPORT_ELEM_LTS.ID = %REPORT_ELEM_LTS AND

  29871 28 005523   200213 470500                    LDP0    SUM$$,,AUTO
        28 005524   000000 220100                    LDX0    0,,PR0
        28 005525   001102 100003                    CMPX0   578,DU
        28 005526   005572 601000 28                 TNZ     s:29905
PL6.E3A0      #004=Z8ET$CREATE_SUBROUTINES File=Z8ET.:Z8A6TSI                    SAT 08/09/97 12:48 Page:377
        28 005527   000000 236100                    LDQ     0,,PR0
        28 005530   040000 316007                    CANQ    16384,DL
        28 005531   005572 600000 28                 TZE     s:29905

     2314    29872    4                   SUM$$ -> REPORT_ELEM_LTS.B.SUM_PRESENTED THEN
     2315    29873    4                  IF NOT SUM$$ -> REPORT_ELEM_LTS.SUM_LTS$ -> SUM_LTS.B.RESETED THEN

  29873 28 005532   000012 471500                    LDP1    10,,PR0
        28 005533   100000 236100                    LDQ     0,,PR1
        28 005534   400000 316007                    CANQ    -131072,DL
        28 005535   005572 601000 28                 TNZ     s:29905

     2316    29874    5                    DO;

     2317    29875
     2318    29876                           %INIT_LX_ETT_ITEM (@POINTER = "ADDR(RECV_FIELD)",
     2319    29877                                              @TYPE    = %TYD,
     2320    29878                                @ETT$ =
             29878                                 "SUM$$ -> REPORT_ELEM_LTS.SUM_LTS$ -> SUM_LTS.SUM_ST_ILL$"
             29878                                    );

  29880 28 005536   000004 221003                    LDX1    4,DU
        28 005537   200104 741100                    STX1    RECV_FIELD,,AUTO

  29881 28 005540   000000 220003                    LDX0    0,DU
        28 005541   200104 440100                    SXL0    RECV_FIELD,,AUTO

  29882 28 005542   200110 450100                    STZ     RECV_FIELD+4,,AUTO

  29883 28 005543   000017 236000 29                 LDQ     15
        28 005544   200113 756100                    STQ     RECV_FIELD+7,,AUTO

  29884 28 005545   000012 471500                    LDP1    10,,PR0
        28 005546   100004 236100                    LDQ     4,,PR1
        28 005547   200105 756100                    STQ     RECV_FIELD+1,,AUTO

  29885 28 005550   000017 236000 29                 LDQ     15
PL6.E3A0      #004=Z8ET$CREATE_SUBROUTINES File=Z8ET.:Z8A6TSI                    SAT 08/09/97 12:48 Page:378
        28 005551   200106 756100                    STQ     RECV_FIELD+2,,AUTO

  29887 28 005552   000133 235000 xsym               LDA     COMCOM+91
        28 005553   200111 755100                    STA     RECV_FIELD+5,,AUTO

  29888 28 005554   000134 235000 xsym               LDA     COMCOM+92
        28 005555   200112 755100                    STA     RECV_FIELD+6,,AUTO

     2321    29900
     2322    29901    5                      CALL Z8E7$MOVE (ADDR(RECV_FIELD),

  29901 28 005556   200104 631500                    EPPR1   RECV_FIELD,,AUTO
        28 005557   200252 451500                    STP1    CETT$$+1,,AUTO
        28 005560   200134 633500                    EPPR3   ZERO,,AUTO
        28 005561   200253 453500                    STP3    CETT$$+2,,AUTO
        28 005562   200253 634500                    EPPR4   CETT$$+2,,AUTO
        28 005563   200255 454500                    STP4    CETT$$+4,,AUTO
        28 005564   200252 635500                    EPPR5   CETT$$+1,,AUTO
        28 005565   200254 455500                    STP5    CETT$$+3,,AUTO
        28 005566   200254 630500                    EPPR0   CETT$$+3,,AUTO
        28 005567   000000 631400 29                 EPPR1   0
        28 005570   000000 701000 xent               TSX1    Z8E7$MOVE
        28 005571   000000 011000                    NOP     0

     2323    29902    5                                      ADDR(ZERO));
     2324    29903    5                    END;

     2325    29904
     2326    29905    4                  SUM$$ = SUM$$ -> REPORT_ELEM_LTS.NEXT;

  29905 28 005572   200213 470500                    LDP0    SUM$$,,AUTO
        28 005573   000006 236100                    LDQ     6,,PR0
        28 005574   200213 756100                    STQ     SUM$$,,AUTO

     2327    29906
     2328    29907    4              END;  /* WHILE */

PL6.E3A0      #004=Z8ET$CREATE_SUBROUTINES File=Z8ET.:Z8A6TSI                    SAT 08/09/97 12:48 Page:379
  29907 28 005575   000017 116000 29                 CMPQ    15
        28 005576   005523 601000 28                 TNZ     s:29871

     2329    29908
     2330    29909                   %DB_EXCEPT_LIBRARY_RETURN;

  30119 28 005577   000006 236000 29                 LDQ     6
        28 005600   200252 756100                    STQ     CETT$$+1,,AUTO
        28 005601   200252 630500                    EPPR0   CETT$$+1,,AUTO
        28 005602   200257 450500                    STP0    CETT$$+6,,AUTO
        28 005603   000007 236000 29                 LDQ     7
        28 005604   200256 756100                    STQ     CETT$$+5,,AUTO
        28 005605   000032 237000 29                 LDAQ    26
        28 005606   200254 757100                    STAQ    CETT$$+3,,AUTO
        28 005607   200254 630500                    EPPR0   CETT$$+3,,AUTO
        28 005610   000003 631400 29                 EPPR1   3
        28 005611   000000 701000 xent               TSX1    Z8AN$NEW_ILL
        28 005612   000000 011000                    NOP     0

  30120 28 005613   000001 220003                    LDX0    1,DU
        28 005614   000000 470400 18                 LDP0    ILL$
        28 005615   000000 440100                    SXL0    0,,PR0

  30124 28 005616   000057 470400 xsym               LDP0    O1COM+47
        28 005617   000006 236100                    LDQ     6,,PR0
        28 005620   000000 471400 18                 LDP1    ILL$
        28 005621   100001 756100                    STQ     1,,PR1

     2331    30293    3          END;

     2332    30294
     2333    30295    2    END GEN_CLEAR_SUB;

  30295 28 005622   200210 221300                    LDX1  ! LABEL$,,AUTO
        28 005623   000001 702211                    TSX2  ! 1,X1

     2334    30296         %EJECT;
PL6.E3A0      #004=Z8ET$CREATE_SUBROUTINES File=Z8ET.:Z8A6TSI                    SAT 08/09/97 12:48 Page:380
     2335    30297
     2336    30298
     2337    30299        /*==================*/
     2338    30300    1     GEN_CROSS_ROLL_SUB: PROC (GROUP$$);

  30300 28 005624   200210 741300       GEN_CROSS_R* STX1  ! LABEL$,,AUTO

     2339    30301        /*==================*/
     2340    30302
     2341    30303        /*I*
     2342    30304
     2343    30305             NAME:  GEN_CROSS_ROLL_SUB
     2344    30306
     2345    30307          DESCRIPTION: This routine creates cross footing/rolling forward
     2346    30308                       subroutine that will executed by the RWCS to sum up
     2347    30309                       the sum counter to another sum counter.
     2348    30310        */
     2349    30311
     2350    30312    2   DCL GROUP$$        PTR;
     2351    30313    2   DCL LABEL$         PTR;
     2352    30314
     2353    30315
     2354    30316
     2355    30317    2          IF GROUP$$ -> REPORT_01_LTS.CONTROL_LTS$ -> CONTROL_NAME_LTS.START_OFFSET

  30317 28 005625   200211 470500                    LDP0    @GROUP$$,,AUTO
        28 005626   000000 471500                    LDP1    0,,PR0
        28 005627   100014 473500                    LDP3    12,,PR1
        28 005630   300016 235100                    LDA     14,,PR3
        28 005631   000031 115007                    CMPA    25,DL
        28 005632   006000 604000 28                 TMI     s:31862

     2356    30318    2              >= %CTR_TBL_START_OFF THEN
     2357    30319    3            DO;

     2358    30320
     2359    30321                  %SUB_HEAD (OFFSET_V = "GROUP$$ -> REPORT_01_LTS.CONTROL_LTS$ -> CONTROL_N
PL6.E3A0      #004=Z8ET$CREATE_SUBROUTINES File=Z8ET.:Z8A6TSI                    SAT 08/09/97 12:48 Page:381
             30321        AME_LTS.START_OFFSET + %CROSS_ROLL_SUB_OFF",
     2360    30322                              RWCT_PTR = LTS$$ -> REPORT_LTS.RWCT$);

  30324 28 005633   200212 634500                    EPPR4   LABEL$,,AUTO
        28 005634   200253 454500                    STP4    CETT$$+2,,AUTO
        28 005635   000002 236000 29                 LDQ     2
        28 005636   200252 756100                    STQ     CETT$$+1,,AUTO
        28 005637   200252 630500                    EPPR0   CETT$$+1,,AUTO
        28 005640   000000 631400 29                 EPPR1   0
        28 005641   000000 701000 xent               TSX1    Z8AT$CREATE_TEMPORARY
        28 005642   000000 011000                    NOP     0

  30325 28 005643   200212 470500                    LDP0    LABEL$,,AUTO
        28 005644   400000 236003                    LDQ     -131072,DU
        28 005645   000003 256100                    ORSQ    3,,PR0

  30326 28 005646   200212 470500                    LDP0    LABEL$,,AUTO
        28 005647   001000 236007                    LDQ     512,DL
        28 005650   000003 256100                    ORSQ    3,,PR0

  30660 28 005651   000006 236000 29                 LDQ     6
        28 005652   200252 756100                    STQ     CETT$$+1,,AUTO
        28 005653   200252 630500                    EPPR0   CETT$$+1,,AUTO
        28 005654   200257 450500                    STP0    CETT$$+6,,AUTO
        28 005655   000007 236000 29                 LDQ     7
        28 005656   200256 756100                    STQ     CETT$$+5,,AUTO
        28 005657   000010 237000 29                 LDAQ    8
        28 005660   200254 757100                    STAQ    CETT$$+3,,AUTO
        28 005661   200254 630500                    EPPR0   CETT$$+3,,AUTO
        28 005662   000003 631400 29                 EPPR1   3
        28 005663   000000 701000 xent               TSX1    Z8AN$NEW_ILL
        28 005664   000000 011000                    NOP     0

  30661 28 005665   200212 236100                    LDQ     LABEL$,,AUTO
        28 005666   000000 470400 18                 LDP0    ILL$
        28 005667   000001 756100                    STQ     1,,PR0

PL6.E3A0      #004=Z8ET$CREATE_SUBROUTINES File=Z8ET.:Z8A6TSI                    SAT 08/09/97 12:48 Page:382
  30968 28 005670   000006 236000 29                 LDQ     6
        28 005671   200252 756100                    STQ     CETT$$+1,,AUTO
        28 005672   200252 631500                    EPPR1   CETT$$+1,,AUTO
        28 005673   200257 451500                    STP1    CETT$$+6,,AUTO
        28 005674   000007 236000 29                 LDQ     7
        28 005675   200256 756100                    STQ     CETT$$+5,,AUTO
        28 005676   000014 237000 29                 LDAQ    12
        28 005677   200254 757100                    STAQ    CETT$$+3,,AUTO
        28 005700   200254 630500                    EPPR0   CETT$$+3,,AUTO
        28 005701   000003 631400 29                 EPPR1   3
        28 005702   000000 701000 xent               TSX1    Z8AN$NEW_ILL
        28 005703   000000 011000                    NOP     0

  30972 28 005704   200211 470500                    LDP0    @GROUP$$,,AUTO
        28 005705   000000 471500                    LDP1    0,,PR0
        28 005706   100014 473500                    LDP3    12,,PR1
        28 005707   300016 720100                    LXL0    14,,PR3
        28 005710   000003 621010                    EAX1    3,X0
        28 005711   000000 474400 18                 LDP4    ILL$
        28 005712   400000 441100                    SXL1    0,,PR4

  30974 28 005713   000000 471400 18                 LDP1    ILL$
        28 005714   100002 450100                    STZ     2,,PR1

  30975 28 005715   200212 236100                    LDQ     LABEL$,,AUTO
        28 005716   100001 756100                    STQ     1,,PR1

  30976 28 005717   200003 473500                    LDP3    @LTS$$,,AUTO
        28 005720   300000 474500                    LDP4    0,,PR3
        28 005721   400022 236100                    LDQ     18,,PR4
        28 005722   100003 756100                    STQ     3,,PR1

  31298 28 005723   000006 236000 29                 LDQ     6
        28 005724   200252 756100                    STQ     CETT$$+1,,AUTO
        28 005725   200252 634500                    EPPR4   CETT$$+1,,AUTO
        28 005726   200257 454500                    STP4    CETT$$+6,,AUTO
        28 005727   000007 236000 29                 LDQ     7
PL6.E3A0      #004=Z8ET$CREATE_SUBROUTINES File=Z8ET.:Z8A6TSI                    SAT 08/09/97 12:48 Page:383
        28 005730   200256 756100                    STQ     CETT$$+5,,AUTO
        28 005731   000020 237000 29                 LDAQ    16
        28 005732   200254 757100                    STAQ    CETT$$+3,,AUTO
        28 005733   200254 630500                    EPPR0   CETT$$+3,,AUTO
        28 005734   000003 631400 29                 EPPR1   3
        28 005735   000000 701000 xent               TSX1    Z8AN$NEW_ILL
        28 005736   000000 011000                    NOP     0

  31299 28 005737   000001 220003                    LDX0    1,DU
        28 005740   000000 470400 18                 LDP0    ILL$
        28 005741   000000 440100                    SXL0    0,,PR0

  31303 28 005742   000057 470400 xsym               LDP0    O1COM+47
        28 005743   000006 236100                    LDQ     6,,PR0
        28 005744   000000 471400 18                 LDP1    ILL$
        28 005745   100001 756100                    STQ     1,,PR1

     2361    31472    3              CALL GEN_ADD_CODE (GROUP$$ -> REPORT_01_LTS.CONTROL_LTS$ ->

  31472 28 005746   200211 470500                    LDP0    @GROUP$$,,AUTO
        28 005747   000000 473500                    LDP3    0,,PR0
        28 005750   300014 474500                    LDP4    12,,PR3
        28 005751   400005 635500                    EPPR5   5,,PR4
        28 005752   200215 455500                    STP5    @ADD_LIST$,,AUTO
        28 005753   005334 701000 28                 TSX1    GEN_ADD_CODE
        28 005754   000000 011000                    NOP     0

     2362    31473    3                                 CONTROL_NAME_LTS.SUM_SUBTOTAL$);
     2363    31474
     2364    31475                   %DB_EXCEPT_LIBRARY_RETURN;

  31685 28 005755   000006 236000 29                 LDQ     6
        28 005756   200252 756100                    STQ     CETT$$+1,,AUTO
        28 005757   200252 630500                    EPPR0   CETT$$+1,,AUTO
        28 005760   200257 450500                    STP0    CETT$$+6,,AUTO
        28 005761   000007 236000 29                 LDQ     7
        28 005762   200256 756100                    STQ     CETT$$+5,,AUTO
PL6.E3A0      #004=Z8ET$CREATE_SUBROUTINES File=Z8ET.:Z8A6TSI                    SAT 08/09/97 12:48 Page:384
        28 005763   000032 237000 29                 LDAQ    26
        28 005764   200254 757100                    STAQ    CETT$$+3,,AUTO
        28 005765   200254 630500                    EPPR0   CETT$$+3,,AUTO
        28 005766   000003 631400 29                 EPPR1   3
        28 005767   000000 701000 xent               TSX1    Z8AN$NEW_ILL
        28 005770   000000 011000                    NOP     0

  31686 28 005771   000001 220003                    LDX0    1,DU
        28 005772   000000 470400 18                 LDP0    ILL$
        28 005773   000000 440100                    SXL0    0,,PR0

  31690 28 005774   000057 470400 xsym               LDP0    O1COM+47
        28 005775   000006 236100                    LDQ     6,,PR0
        28 005776   000000 471400 18                 LDP1    ILL$
        28 005777   100001 756100                    STQ     1,,PR1

     2365    31859
     2366    31860    3            END;

     2367    31861
     2368    31862    2    END GEN_CROSS_ROLL_SUB;

  31862 28 006000   200210 221300                    LDX1  ! LABEL$,,AUTO
        28 006001   000001 702211                    TSX2  ! 1,X1

     2369    31863         %EJECT;
PL6.E3A0      #004=Z8ET$CREATE_SUBROUTINES File=Z8ET.:Z8A6TSI                    SAT 08/09/97 12:48 Page:385
     2370    31864
     2371    31865
     2372    31866        /*=============*/
     2373    31867    1     GEN_RESET_SUB: PROC (CONTROL_LTS$);

  31867 28 006002   200206 741300       GEN_RESET_S* STX1  ! CTR_LVL_ETT$+2,,AUTO

     2374    31868        /*=============*/
     2375    31869
     2376    31870        /*I*
     2377    31871
     2378    31872             NAME:  GEN_RESET_SUB
     2379    31873
     2380    31874          DESCRIPTION: This routine creates sum counter resetting
     2381    31875                       subroutine that will executed by the RWCS to clear
     2382    31876                       the sum counter when the control break occurs.
     2383    31877        */
     2384    31878
     2385    31879
     2386    31880    2   DCL CONTROL_LTS$   PTR;
     2387    31881    2   DCL LABEL$         PTR;
     2388    31882    2   DCL LX_ETT$        PTR;
     2389    31883
     2390    31884
     2391    31885
     2392    31886    2          IF CONTROL_LTS$ = ADDR(NIL) OR

  31886 28 006003   200207 470500                    LDP0    @CONTROL_LTS$,,AUTO
        28 006004   000000 236100                    LDQ     0,,PR0
        28 006005   000017 116000 29                 CMPQ    15
        28 006006   006013 600000 28                 TZE     s:31888
        28 006007   000000 471500                    LDP1    0,,PR0
        28 006010   100004 236100                    LDQ     4,,PR1
        28 006011   000017 116000 29                 CMPQ    15
        28 006012   006014 601000 28                 TNZ     s:31891

     2393    31887    2             CONTROL_LTS$ -> CONTROL_NAME_LTS.SUM_RESET$ = ADDR(NIL) THEN
PL6.E3A0      #004=Z8ET$CREATE_SUBROUTINES File=Z8ET.:Z8A6TSI                    SAT 08/09/97 12:48 Page:386
     2394    31888    2              RETURN;

  31888 28 006013   000001 702211                    TSX2  ! 1,X1

     2395    31889
     2396    31890
     2397    31891    2          IF CONTROL_LTS$ -> CONTROL_NAME_LTS.START_OFFSET

  31891 28 006014   100016 235100                    LDA     14,,PR1
        28 006015   000031 115007                    CMPA    25,DL
        28 006016   006200 604000 28                 TMI     s:33443

     2398    31892    2              >= %CTR_TBL_START_OFF THEN
     2399    31893    3            DO;

     2400    31894
     2401    31895                   %SUB_HEAD (OFFSET_V =
             31895                       "CONTROL_LTS$ -> CONTROL_NAME_LTS.START_OFFSET + %RESET_SUB_OFF",
     2402    31896                              RWCT_PTR = LTS$$ -> REPORT_LTS.RWCT$);

  31898 28 006017   200210 633500                    EPPR3   LABEL$,,AUTO
        28 006020   200253 453500                    STP3    CETT$$+2,,AUTO
        28 006021   000002 236000 29                 LDQ     2
        28 006022   200252 756100                    STQ     CETT$$+1,,AUTO
        28 006023   200252 630500                    EPPR0   CETT$$+1,,AUTO
        28 006024   000000 631400 29                 EPPR1   0
        28 006025   000000 701000 xent               TSX1    Z8AT$CREATE_TEMPORARY
        28 006026   000000 011000                    NOP     0

  31899 28 006027   200210 470500                    LDP0    LABEL$,,AUTO
        28 006030   400000 236003                    LDQ     -131072,DU
        28 006031   000003 256100                    ORSQ    3,,PR0

  31900 28 006032   200210 470500                    LDP0    LABEL$,,AUTO
        28 006033   001000 236007                    LDQ     512,DL
        28 006034   000003 256100                    ORSQ    3,,PR0

PL6.E3A0      #004=Z8ET$CREATE_SUBROUTINES File=Z8ET.:Z8A6TSI                    SAT 08/09/97 12:48 Page:387
  32234 28 006035   000006 236000 29                 LDQ     6
        28 006036   200252 756100                    STQ     CETT$$+1,,AUTO
        28 006037   200252 630500                    EPPR0   CETT$$+1,,AUTO
        28 006040   200257 450500                    STP0    CETT$$+6,,AUTO
        28 006041   000007 236000 29                 LDQ     7
        28 006042   200256 756100                    STQ     CETT$$+5,,AUTO
        28 006043   000010 237000 29                 LDAQ    8
        28 006044   200254 757100                    STAQ    CETT$$+3,,AUTO
        28 006045   200254 630500                    EPPR0   CETT$$+3,,AUTO
        28 006046   000003 631400 29                 EPPR1   3
        28 006047   000000 701000 xent               TSX1    Z8AN$NEW_ILL
        28 006050   000000 011000                    NOP     0

  32235 28 006051   200210 236100                    LDQ     LABEL$,,AUTO
        28 006052   000000 470400 18                 LDP0    ILL$
        28 006053   000001 756100                    STQ     1,,PR0

  32542 28 006054   000006 236000 29                 LDQ     6
        28 006055   200252 756100                    STQ     CETT$$+1,,AUTO
        28 006056   200252 631500                    EPPR1   CETT$$+1,,AUTO
        28 006057   200257 451500                    STP1    CETT$$+6,,AUTO
        28 006060   000007 236000 29                 LDQ     7
        28 006061   200256 756100                    STQ     CETT$$+5,,AUTO
        28 006062   000014 237000 29                 LDAQ    12
        28 006063   200254 757100                    STAQ    CETT$$+3,,AUTO
        28 006064   200254 630500                    EPPR0   CETT$$+3,,AUTO
        28 006065   000003 631400 29                 EPPR1   3
        28 006066   000000 701000 xent               TSX1    Z8AN$NEW_ILL
        28 006067   000000 011000                    NOP     0

  32546 28 006070   200207 470500                    LDP0    @CONTROL_LTS$,,AUTO
        28 006071   000000 471500                    LDP1    0,,PR0
        28 006072   100016 720100                    LXL0    14,,PR1
        28 006073   000002 621010                    EAX1    2,X0
        28 006074   000000 473400 18                 LDP3    ILL$
        28 006075   300000 441100                    SXL1    0,,PR3

PL6.E3A0      #004=Z8ET$CREATE_SUBROUTINES File=Z8ET.:Z8A6TSI                    SAT 08/09/97 12:48 Page:388
  32548 28 006076   000000 471400 18                 LDP1    ILL$
        28 006077   100002 450100                    STZ     2,,PR1

  32549 28 006100   200210 236100                    LDQ     LABEL$,,AUTO
        28 006101   100001 756100                    STQ     1,,PR1

  32550 28 006102   200003 473500                    LDP3    @LTS$$,,AUTO
        28 006103   300000 474500                    LDP4    0,,PR3
        28 006104   400022 236100                    LDQ     18,,PR4
        28 006105   100003 756100                    STQ     3,,PR1

  32872 28 006106   000006 236000 29                 LDQ     6
        28 006107   200252 756100                    STQ     CETT$$+1,,AUTO
        28 006110   200252 634500                    EPPR4   CETT$$+1,,AUTO
        28 006111   200257 454500                    STP4    CETT$$+6,,AUTO
        28 006112   000007 236000 29                 LDQ     7
        28 006113   200256 756100                    STQ     CETT$$+5,,AUTO
        28 006114   000020 237000 29                 LDAQ    16
        28 006115   200254 757100                    STAQ    CETT$$+3,,AUTO
        28 006116   200254 630500                    EPPR0   CETT$$+3,,AUTO
        28 006117   000003 631400 29                 EPPR1   3
        28 006120   000000 701000 xent               TSX1    Z8AN$NEW_ILL
        28 006121   000000 011000                    NOP     0

  32873 28 006122   000001 220003                    LDX0    1,DU
        28 006123   000000 470400 18                 LDP0    ILL$
        28 006124   000000 440100                    SXL0    0,,PR0

  32877 28 006125   000057 470400 xsym               LDP0    O1COM+47
        28 006126   000006 236100                    LDQ     6,,PR0
        28 006127   000000 471400 18                 LDP1    ILL$
        28 006130   100001 756100                    STQ     1,,PR1

     2403    33046    3              LX_ETT$ = CONTROL_LTS$ -> CONTROL_NAME_LTS.SUM_RESET$;

  33046 28 006131   200207 470500                    LDP0    @CONTROL_LTS$,,AUTO
        28 006132   000000 473500                    LDP3    0,,PR0
PL6.E3A0      #004=Z8ET$CREATE_SUBROUTINES File=Z8ET.:Z8A6TSI                    SAT 08/09/97 12:48 Page:389
        28 006133   300004 236100                    LDQ     4,,PR3
        28 006134   200211 756100                    STQ     LX_ETT$,,AUTO

     2404    33047
     2405    33048    4              DO WHILE (LX_ETT$ ~= ADDR(NIL));

  33048 28 006135   006153 710000 28                 TRA     s:33054

     2406    33049
     2407    33050    4                CALL Z8E7$MOVE (LX_ETT$, ADDR(ZERO));

  33050 28 006136   200134 630500                    EPPR0   ZERO,,AUTO
        28 006137   200252 450500                    STP0    CETT$$+1,,AUTO
        28 006140   200252 631500                    EPPR1   CETT$$+1,,AUTO
        28 006141   200255 451500                    STP1    CETT$$+4,,AUTO
        28 006142   200211 633500                    EPPR3   LX_ETT$,,AUTO
        28 006143   200254 453500                    STP3    CETT$$+3,,AUTO
        28 006144   200254 630500                    EPPR0   CETT$$+3,,AUTO
        28 006145   000000 631400 29                 EPPR1   0
        28 006146   000000 701000 xent               TSX1    Z8E7$MOVE
        28 006147   000000 011000                    NOP     0

     2408    33051
     2409    33052    4                LX_ETT$ = LX_ETT$ -> LX_ETT_ITEM.LINK;

  33052 28 006150   200211 470500                    LDP0    LX_ETT$,,AUTO
        28 006151   000007 236100                    LDQ     7,,PR0
        28 006152   200211 756100                    STQ     LX_ETT$,,AUTO

     2410    33053
     2411    33054    4              END;

  33054 28 006153   000017 116000 29                 CMPQ    15
        28 006154   006136 601000 28                 TNZ     s:33050

     2412    33055
     2413    33056                   %DB_EXCEPT_LIBRARY_RETURN;
PL6.E3A0      #004=Z8ET$CREATE_SUBROUTINES File=Z8ET.:Z8A6TSI                    SAT 08/09/97 12:48 Page:390

  33266 28 006155   000006 236000 29                 LDQ     6
        28 006156   200252 756100                    STQ     CETT$$+1,,AUTO
        28 006157   200252 630500                    EPPR0   CETT$$+1,,AUTO
        28 006160   200257 450500                    STP0    CETT$$+6,,AUTO
        28 006161   000007 236000 29                 LDQ     7
        28 006162   200256 756100                    STQ     CETT$$+5,,AUTO
        28 006163   000032 237000 29                 LDAQ    26
        28 006164   200254 757100                    STAQ    CETT$$+3,,AUTO
        28 006165   200254 630500                    EPPR0   CETT$$+3,,AUTO
        28 006166   000003 631400 29                 EPPR1   3
        28 006167   000000 701000 xent               TSX1    Z8AN$NEW_ILL
        28 006170   000000 011000                    NOP     0

  33267 28 006171   000001 220003                    LDX0    1,DU
        28 006172   000000 470400 18                 LDP0    ILL$
        28 006173   000000 440100                    SXL0    0,,PR0

  33271 28 006174   000057 470400 xsym               LDP0    O1COM+47
        28 006175   000006 236100                    LDQ     6,,PR0
        28 006176   000000 471400 18                 LDP1    ILL$
        28 006177   100001 756100                    STQ     1,,PR1

     2414    33440
     2415    33441    3            END;

     2416    33442
     2417    33443    2          CALL Z8ED$DISPOSE_ABSSYN_TREE (CONTROL_LTS$ -> CONTROL_NAME_LTS.SUM_RESET$);

  33443 28 006200   200207 470500                    LDP0    @CONTROL_LTS$,,AUTO
        28 006201   000000 471500                    LDP1    0,,PR0
        28 006202   100004 633500                    EPPR3   4,,PR1
        28 006203   200252 453500                    STP3    CETT$$+1,,AUTO
        28 006204   200252 630500                    EPPR0   CETT$$+1,,AUTO
        28 006205   000034 631400 29                 EPPR1   28
        28 006206   000000 701000 xent               TSX1    Z8ED$DISPOSE_ABSSYN_TREE
        28 006207   000000 011000                    NOP     0
PL6.E3A0      #004=Z8ET$CREATE_SUBROUTINES File=Z8ET.:Z8A6TSI                    SAT 08/09/97 12:48 Page:391

     2418    33444
     2419    33445    2    END GEN_RESET_SUB;

  33445 28 006210   200206 221300                    LDX1  ! CTR_LVL_ETT$+2,,AUTO
        28 006211   000001 702211                    TSX2  ! 1,X1

     2420    33446         %EJECT;
PL6.E3A0      #004=Z8ET$CREATE_SUBROUTINES File=Z8ET.:Z8A6TSI                    SAT 08/09/97 12:48 Page:392
     2421    33447
     2422    33448         /*============*/
     2423    33449    1      GEN_SUM_SUBS: PROC (GROUP$$);

  33449 28 006212   200206 741300       GEN_SUM_SUBS STX1  ! CTR_LVL_ETT$+2,,AUTO

     2424    33450         /*============*/
     2425    33451
     2426    33452        /*I*
     2427    33453
     2428    33454             NAME:  GEN_SUM_SUBS
     2429    33455
     2430    33456          DESCRIPTION: This routine calls  to generate cross footing
     2431    33457                       and sum counter clear subroutines.
     2432    33458        */
     2433    33459
     2434    33460
     2435    33461    2   DCL GROUP$$         PTR;
     2436    33462
     2437    33463
     2438    33464
     2439    33465    2          IF GROUP$$ -> REPORT_01_LTS.CONTROL_LTS$ ->

  33465 28 006213   200207 470500                    LDP0    @GROUP$$,,AUTO
        28 006214   000000 471500                    LDP1    0,,PR0
        28 006215   100014 473500                    LDP3    12,,PR1
        28 006216   300005 236100                    LDQ     5,,PR3
        28 006217   000017 116000 29                 CMPQ    15
        28 006220   006236 600000 28                 TZE     s:33476

     2440    33466    2             CONTROL_NAME_LTS.SUM_SUBTOTAL$ ~= ADDR(NIL) THEN
     2441    33467    3            DO;

     2442    33468
     2443    33469    3              CALL GEN_CROSS_ROLL_SUB (GROUP$$);

  33469 28 006221   200207 236100                    LDQ     @GROUP$$,,AUTO
PL6.E3A0      #004=Z8ET$CREATE_SUBROUTINES File=Z8ET.:Z8A6TSI                    SAT 08/09/97 12:48 Page:393
        28 006222   200211 756100                    STQ     LX_ETT$,,AUTO
        28 006223   005624 701000 28                 TSX1    GEN_CROSS_ROLL_SUB
        28 006224   000000 011000                    NOP     0

     2444    33470
     2445    33471    3              CALL Z8ED$DISPOSE_ABSSYN_TREE (GROUP$$ -> REPORT_01_LTS.CONTROL_LTS$ ->

  33471 28 006225   200207 470500                    LDP0    @GROUP$$,,AUTO
        28 006226   000000 471500                    LDP1    0,,PR0
        28 006227   100014 473500                    LDP3    12,,PR1
        28 006230   300005 634500                    EPPR4   5,,PR3
        28 006231   200252 454500                    STP4    CETT$$+1,,AUTO
        28 006232   200252 630500                    EPPR0   CETT$$+1,,AUTO
        28 006233   000034 631400 29                 EPPR1   28
        28 006234   000000 701000 xent               TSX1    Z8ED$DISPOSE_ABSSYN_TREE
        28 006235   000000 011000                    NOP     0

     2446    33472    3                                             CONTROL_NAME_LTS.SUM_SUBTOTAL$);
     2447    33473
     2448    33474    3            END;

     2449    33475
     2450    33476    2          CALL GEN_CLEAR_SUB (GROUP$$);

  33476 28 006236   200207 236100                    LDQ     @GROUP$$,,AUTO
        28 006237   200211 756100                    STQ     LX_ETT$,,AUTO
        28 006240   005375 701000 28                 TSX1    GEN_CLEAR_SUB
        28 006241   000000 011000                    NOP     0

     2451    33477
     2452    33478    2    END GEN_SUM_SUBS;

  33478 28 006242   200206 221300                    LDX1  ! CTR_LVL_ETT$+2,,AUTO
        28 006243   000001 702211                    TSX2  ! 1,X1

     2453    33479         %EJECT;
PL6.E3A0      #004=Z8ET$CREATE_SUBROUTINES File=Z8ET.:Z8A6TSI                    SAT 08/09/97 12:48 Page:394
     2454    33480
     2455    33481         /*===============*/
     2456    33482    1      GEN_SPECIAL_SUB: PROC (CURRENT$);

  33482 28 006244   200206 741300       GEN_SPECIAL* STX1  ! CTR_LVL_ETT$+2,,AUTO

     2457    33483         /*===============*/
     2458    33484
     2459    33485        /*I*
     2460    33486
     2461    33487             NAME:  GEN_SPECIAL_SUB
     2462    33488
     2463    33489          DESCRIPTION: This routine creates special subtotalling subroutine
     2464    33490                       that will executed by the RWCS to sum up the sum
     2465    33491                       counter when the special detail group presented.
     2466    33492        */
     2467    33493
     2468    33494
     2469    33495    2   DCL CURRENT$       PTR;
     2470    33496    2   DCL LABEL$         PTR;
     2471    33497
     2472    33498
     2473    33499
     2474    33500    2          IF CURRENT$ -> REPORT_01_LTS.SPECIAL_SUBTOTAL$ ~= ADDR(NIL) THEN

  33500 28 006245   200207 470500                    LDP0    @CURRENT$,,AUTO
        28 006246   000000 471500                    LDP1    0,,PR0
        28 006247   100016 236100                    LDQ     14,,PR1
        28 006250   000017 116000 29                 CMPQ    15
        28 006251   006422 600000 28                 TZE     s:35046

     2475    33501    3            DO;

     2476    33502
     2477    33503                   %SUB_HEAD (OFFSET_V = %SPECIAL_SUBTOTAL_SUB_OFF,
     2478    33504                              RWCT_PTR = CURRENT$ -> REPORT_01_LTS.RWCT$);

PL6.E3A0      #004=Z8ET$CREATE_SUBROUTINES File=Z8ET.:Z8A6TSI                    SAT 08/09/97 12:48 Page:395
  33506 28 006252   200210 633500                    EPPR3   LABEL$,,AUTO
        28 006253   200253 453500                    STP3    CETT$$+2,,AUTO
        28 006254   000002 236000 29                 LDQ     2
        28 006255   200252 756100                    STQ     CETT$$+1,,AUTO
        28 006256   200252 630500                    EPPR0   CETT$$+1,,AUTO
        28 006257   000000 631400 29                 EPPR1   0
        28 006260   000000 701000 xent               TSX1    Z8AT$CREATE_TEMPORARY
        28 006261   000000 011000                    NOP     0

  33507 28 006262   200210 470500                    LDP0    LABEL$,,AUTO
        28 006263   400000 236003                    LDQ     -131072,DU
        28 006264   000003 256100                    ORSQ    3,,PR0

  33508 28 006265   200210 470500                    LDP0    LABEL$,,AUTO
        28 006266   001000 236007                    LDQ     512,DL
        28 006267   000003 256100                    ORSQ    3,,PR0

  33842 28 006270   000006 236000 29                 LDQ     6
        28 006271   200252 756100                    STQ     CETT$$+1,,AUTO
        28 006272   200252 630500                    EPPR0   CETT$$+1,,AUTO
        28 006273   200257 450500                    STP0    CETT$$+6,,AUTO
        28 006274   000007 236000 29                 LDQ     7
        28 006275   200256 756100                    STQ     CETT$$+5,,AUTO
        28 006276   000010 237000 29                 LDAQ    8
        28 006277   200254 757100                    STAQ    CETT$$+3,,AUTO
        28 006300   200254 630500                    EPPR0   CETT$$+3,,AUTO
        28 006301   000003 631400 29                 EPPR1   3
        28 006302   000000 701000 xent               TSX1    Z8AN$NEW_ILL
        28 006303   000000 011000                    NOP     0

  33843 28 006304   200210 236100                    LDQ     LABEL$,,AUTO
        28 006305   000000 470400 18                 LDP0    ILL$
        28 006306   000001 756100                    STQ     1,,PR0

  34150 28 006307   000006 236000 29                 LDQ     6
        28 006310   200252 756100                    STQ     CETT$$+1,,AUTO
        28 006311   200252 631500                    EPPR1   CETT$$+1,,AUTO
PL6.E3A0      #004=Z8ET$CREATE_SUBROUTINES File=Z8ET.:Z8A6TSI                    SAT 08/09/97 12:48 Page:396
        28 006312   200257 451500                    STP1    CETT$$+6,,AUTO
        28 006313   000007 236000 29                 LDQ     7
        28 006314   200256 756100                    STQ     CETT$$+5,,AUTO
        28 006315   000014 237000 29                 LDAQ    12
        28 006316   200254 757100                    STAQ    CETT$$+3,,AUTO
        28 006317   200254 630500                    EPPR0   CETT$$+3,,AUTO
        28 006320   000003 631400 29                 EPPR1   3
        28 006321   000000 701000 xent               TSX1    Z8AN$NEW_ILL
        28 006322   000000 011000                    NOP     0

  34154 28 006323   000010 220003                    LDX0    8,DU
        28 006324   000000 470400 18                 LDP0    ILL$
        28 006325   000000 440100                    SXL0    0,,PR0

  34156 28 006326   000000 470400 18                 LDP0    ILL$
        28 006327   000002 450100                    STZ     2,,PR0

  34157 28 006330   200210 236100                    LDQ     LABEL$,,AUTO
        28 006331   000001 756100                    STQ     1,,PR0

  34158 28 006332   200207 471500                    LDP1    @CURRENT$,,AUTO
        28 006333   100000 473500                    LDP3    0,,PR1
        28 006334   300022 236100                    LDQ     18,,PR3
        28 006335   000003 756100                    STQ     3,,PR0

  34480 28 006336   000006 236000 29                 LDQ     6
        28 006337   200252 756100                    STQ     CETT$$+1,,AUTO
        28 006340   200252 633500                    EPPR3   CETT$$+1,,AUTO
        28 006341   200257 453500                    STP3    CETT$$+6,,AUTO
        28 006342   000007 236000 29                 LDQ     7
        28 006343   200256 756100                    STQ     CETT$$+5,,AUTO
        28 006344   000020 237000 29                 LDAQ    16
        28 006345   200254 757100                    STAQ    CETT$$+3,,AUTO
        28 006346   200254 630500                    EPPR0   CETT$$+3,,AUTO
        28 006347   000003 631400 29                 EPPR1   3
        28 006350   000000 701000 xent               TSX1    Z8AN$NEW_ILL
        28 006351   000000 011000                    NOP     0
PL6.E3A0      #004=Z8ET$CREATE_SUBROUTINES File=Z8ET.:Z8A6TSI                    SAT 08/09/97 12:48 Page:397

  34481 28 006352   000001 220003                    LDX0    1,DU
        28 006353   000000 470400 18                 LDP0    ILL$
        28 006354   000000 440100                    SXL0    0,,PR0

  34485 28 006355   000057 470400 xsym               LDP0    O1COM+47
        28 006356   000006 236100                    LDQ     6,,PR0
        28 006357   000000 471400 18                 LDP1    ILL$
        28 006360   100001 756100                    STQ     1,,PR1

     2479    34654
     2480    34655    3              CALL GEN_ADD_CODE (CURRENT$ -> REPORT_01_LTS.SPECIAL_SUBTOTAL$);

  34655 28 006361   200207 470500                    LDP0    @CURRENT$,,AUTO
        28 006362   000000 473500                    LDP3    0,,PR0
        28 006363   300016 634500                    EPPR4   14,,PR3
        28 006364   200215 454500                    STP4    @ADD_LIST$,,AUTO
        28 006365   005334 701000 28                 TSX1    GEN_ADD_CODE
        28 006366   000000 011000                    NOP     0

     2481    34656
     2482    34657    3              CALL Z8ED$DISPOSE_ABSSYN_TREE (CURRENT$ -> REPORT_01_LTS.
             34657                       SPECIAL_SUBTOTAL$);

  34657 28 006367   200207 470500                    LDP0    @CURRENT$,,AUTO
        28 006370   000000 471500                    LDP1    0,,PR0
        28 006371   100016 633500                    EPPR3   14,,PR1
        28 006372   200252 453500                    STP3    CETT$$+1,,AUTO
        28 006373   200252 630500                    EPPR0   CETT$$+1,,AUTO
        28 006374   000034 631400 29                 EPPR1   28
        28 006375   000000 701000 xent               TSX1    Z8ED$DISPOSE_ABSSYN_TREE
        28 006376   000000 011000                    NOP     0

     2483    34658
     2484    34659                   %DB_EXCEPT_LIBRARY_RETURN;

  34869 28 006377   000006 236000 29                 LDQ     6
PL6.E3A0      #004=Z8ET$CREATE_SUBROUTINES File=Z8ET.:Z8A6TSI                    SAT 08/09/97 12:48 Page:398
        28 006400   200252 756100                    STQ     CETT$$+1,,AUTO
        28 006401   200252 630500                    EPPR0   CETT$$+1,,AUTO
        28 006402   200257 450500                    STP0    CETT$$+6,,AUTO
        28 006403   000007 236000 29                 LDQ     7
        28 006404   200256 756100                    STQ     CETT$$+5,,AUTO
        28 006405   000032 237000 29                 LDAQ    26
        28 006406   200254 757100                    STAQ    CETT$$+3,,AUTO
        28 006407   200254 630500                    EPPR0   CETT$$+3,,AUTO
        28 006410   000003 631400 29                 EPPR1   3
        28 006411   000000 701000 xent               TSX1    Z8AN$NEW_ILL
        28 006412   000000 011000                    NOP     0

  34870 28 006413   000001 220003                    LDX0    1,DU
        28 006414   000000 470400 18                 LDP0    ILL$
        28 006415   000000 440100                    SXL0    0,,PR0

  34874 28 006416   000057 470400 xsym               LDP0    O1COM+47
        28 006417   000006 236100                    LDQ     6,,PR0
        28 006420   000000 471400 18                 LDP1    ILL$
        28 006421   100001 756100                    STQ     1,,PR1

     2485    35043
     2486    35044    3            END;

     2487    35045
     2488    35046    2    END GEN_SPECIAL_SUB;

  35046 28 006422   200206 221300                    LDX1  ! CTR_LVL_ETT$+2,,AUTO
        28 006423   000001 702211                    TSX2  ! 1,X1

     2489    35047         %EJECT;
PL6.E3A0      #004=Z8ET$CREATE_SUBROUTINES File=Z8ET.:Z8A6TSI                    SAT 08/09/97 12:48 Page:399
     2490    35048
     2491    35049         /*===============*/
     2492    35050    1      GEN_GENERAL_SUB: PROC;

  35050 28 006424   200206 741300       GEN_GENERAL* STX1  ! CTR_LVL_ETT$+2,,AUTO

     2493    35051         /*===============*/
     2494    35052
     2495    35053        /*I*
     2496    35054
     2497    35055             NAME:  GEN_GENERAL_SUB
     2498    35056
     2499    35057          DESCRIPTION: This routine creates general subtotalling subroutine
     2500    35058                       that will executed by the RWCS to sum up the sum
     2501    35059                       counter when any detail group presented.
     2502    35060        */
     2503    35061
     2504    35062
     2505    35063    2   DCL LABEL$     PTR;
     2506    35064
     2507    35065
     2508    35066
     2509    35067    2      IF LTS$$ -> REPORT_LTS.GENERAL_SUBTOTAL$ ~= ADDR(NIL) THEN

  35067 28 006425   200003 470500                    LDP0    @LTS$$,,AUTO
        28 006426   000000 471500                    LDP1    0,,PR0
        28 006427   100010 236100                    LDQ     8,,PR1
        28 006430   000017 116000 29                 CMPQ    15
        28 006431   006602 600000 28                 TZE     s:36613

     2510    35068    3        DO;

     2511    35069
     2512    35070               %SUB_HEAD (OFFSET_V = %GEN_SUBTOTAL_OFF,
     2513    35071                          RWCT_PTR = LTS$$ -> REPORT_LTS.RWCT$);

  35073 28 006432   200207 633500                    EPPR3   LABEL$,,AUTO
PL6.E3A0      #004=Z8ET$CREATE_SUBROUTINES File=Z8ET.:Z8A6TSI                    SAT 08/09/97 12:48 Page:400
        28 006433   200253 453500                    STP3    CETT$$+2,,AUTO
        28 006434   000002 236000 29                 LDQ     2
        28 006435   200252 756100                    STQ     CETT$$+1,,AUTO
        28 006436   200252 630500                    EPPR0   CETT$$+1,,AUTO
        28 006437   000000 631400 29                 EPPR1   0
        28 006440   000000 701000 xent               TSX1    Z8AT$CREATE_TEMPORARY
        28 006441   000000 011000                    NOP     0

  35074 28 006442   200207 470500                    LDP0    LABEL$,,AUTO
        28 006443   400000 236003                    LDQ     -131072,DU
        28 006444   000003 256100                    ORSQ    3,,PR0

  35075 28 006445   200207 470500                    LDP0    LABEL$,,AUTO
        28 006446   001000 236007                    LDQ     512,DL
        28 006447   000003 256100                    ORSQ    3,,PR0

  35409 28 006450   000006 236000 29                 LDQ     6
        28 006451   200252 756100                    STQ     CETT$$+1,,AUTO
        28 006452   200252 630500                    EPPR0   CETT$$+1,,AUTO
        28 006453   200257 450500                    STP0    CETT$$+6,,AUTO
        28 006454   000007 236000 29                 LDQ     7
        28 006455   200256 756100                    STQ     CETT$$+5,,AUTO
        28 006456   000010 237000 29                 LDAQ    8
        28 006457   200254 757100                    STAQ    CETT$$+3,,AUTO
        28 006460   200254 630500                    EPPR0   CETT$$+3,,AUTO
        28 006461   000003 631400 29                 EPPR1   3
        28 006462   000000 701000 xent               TSX1    Z8AN$NEW_ILL
        28 006463   000000 011000                    NOP     0

  35410 28 006464   200207 236100                    LDQ     LABEL$,,AUTO
        28 006465   000000 470400 18                 LDP0    ILL$
        28 006466   000001 756100                    STQ     1,,PR0

  35717 28 006467   000006 236000 29                 LDQ     6
        28 006470   200252 756100                    STQ     CETT$$+1,,AUTO
        28 006471   200252 631500                    EPPR1   CETT$$+1,,AUTO
        28 006472   200257 451500                    STP1    CETT$$+6,,AUTO
PL6.E3A0      #004=Z8ET$CREATE_SUBROUTINES File=Z8ET.:Z8A6TSI                    SAT 08/09/97 12:48 Page:401
        28 006473   000007 236000 29                 LDQ     7
        28 006474   200256 756100                    STQ     CETT$$+5,,AUTO
        28 006475   000014 237000 29                 LDAQ    12
        28 006476   200254 757100                    STAQ    CETT$$+3,,AUTO
        28 006477   200254 630500                    EPPR0   CETT$$+3,,AUTO
        28 006500   000003 631400 29                 EPPR1   3
        28 006501   000000 701000 xent               TSX1    Z8AN$NEW_ILL
        28 006502   000000 011000                    NOP     0

  35721 28 006503   000010 220003                    LDX0    8,DU
        28 006504   000000 470400 18                 LDP0    ILL$
        28 006505   000000 440100                    SXL0    0,,PR0

  35723 28 006506   000000 470400 18                 LDP0    ILL$
        28 006507   000002 450100                    STZ     2,,PR0

  35724 28 006510   200207 236100                    LDQ     LABEL$,,AUTO
        28 006511   000001 756100                    STQ     1,,PR0

  35725 28 006512   200003 471500                    LDP1    @LTS$$,,AUTO
        28 006513   100000 473500                    LDP3    0,,PR1
        28 006514   300022 236100                    LDQ     18,,PR3
        28 006515   000003 756100                    STQ     3,,PR0

  36047 28 006516   000006 236000 29                 LDQ     6
        28 006517   200252 756100                    STQ     CETT$$+1,,AUTO
        28 006520   200252 633500                    EPPR3   CETT$$+1,,AUTO
        28 006521   200257 453500                    STP3    CETT$$+6,,AUTO
        28 006522   000007 236000 29                 LDQ     7
        28 006523   200256 756100                    STQ     CETT$$+5,,AUTO
        28 006524   000020 237000 29                 LDAQ    16
        28 006525   200254 757100                    STAQ    CETT$$+3,,AUTO
        28 006526   200254 630500                    EPPR0   CETT$$+3,,AUTO
        28 006527   000003 631400 29                 EPPR1   3
        28 006530   000000 701000 xent               TSX1    Z8AN$NEW_ILL
        28 006531   000000 011000                    NOP     0

PL6.E3A0      #004=Z8ET$CREATE_SUBROUTINES File=Z8ET.:Z8A6TSI                    SAT 08/09/97 12:48 Page:402
  36048 28 006532   000001 220003                    LDX0    1,DU
        28 006533   000000 470400 18                 LDP0    ILL$
        28 006534   000000 440100                    SXL0    0,,PR0

  36052 28 006535   000057 470400 xsym               LDP0    O1COM+47
        28 006536   000006 236100                    LDQ     6,,PR0
        28 006537   000000 471400 18                 LDP1    ILL$
        28 006540   100001 756100                    STQ     1,,PR1

     2514    36221
     2515    36222    3          CALL GEN_ADD_CODE (LTS$$ -> REPORT_LTS.GENERAL_SUBTOTAL$);

  36222 28 006541   200003 470500                    LDP0    @LTS$$,,AUTO
        28 006542   000000 473500                    LDP3    0,,PR0
        28 006543   300010 634500                    EPPR4   8,,PR3
        28 006544   200215 454500                    STP4    @ADD_LIST$,,AUTO
        28 006545   005334 701000 28                 TSX1    GEN_ADD_CODE
        28 006546   000000 011000                    NOP     0

     2516    36223
     2517    36224    3          CALL Z8ED$DISPOSE_ABSSYN_TREE (LTS$$ -> REPORT_LTS.GENERAL_SUBTOTAL$);

  36224 28 006547   200003 470500                    LDP0    @LTS$$,,AUTO
        28 006550   000000 471500                    LDP1    0,,PR0
        28 006551   100010 633500                    EPPR3   8,,PR1
        28 006552   200252 453500                    STP3    CETT$$+1,,AUTO
        28 006553   200252 630500                    EPPR0   CETT$$+1,,AUTO
        28 006554   000034 631400 29                 EPPR1   28
        28 006555   000000 701000 xent               TSX1    Z8ED$DISPOSE_ABSSYN_TREE
        28 006556   000000 011000                    NOP     0

     2518    36225
     2519    36226               %DB_EXCEPT_LIBRARY_RETURN;

  36436 28 006557   000006 236000 29                 LDQ     6
        28 006560   200252 756100                    STQ     CETT$$+1,,AUTO
        28 006561   200252 630500                    EPPR0   CETT$$+1,,AUTO
PL6.E3A0      #004=Z8ET$CREATE_SUBROUTINES File=Z8ET.:Z8A6TSI                    SAT 08/09/97 12:48 Page:403
        28 006562   200257 450500                    STP0    CETT$$+6,,AUTO
        28 006563   000007 236000 29                 LDQ     7
        28 006564   200256 756100                    STQ     CETT$$+5,,AUTO
        28 006565   000032 237000 29                 LDAQ    26
        28 006566   200254 757100                    STAQ    CETT$$+3,,AUTO
        28 006567   200254 630500                    EPPR0   CETT$$+3,,AUTO
        28 006570   000003 631400 29                 EPPR1   3
        28 006571   000000 701000 xent               TSX1    Z8AN$NEW_ILL
        28 006572   000000 011000                    NOP     0

  36437 28 006573   000001 220003                    LDX0    1,DU
        28 006574   000000 470400 18                 LDP0    ILL$
        28 006575   000000 440100                    SXL0    0,,PR0

  36441 28 006576   000057 470400 xsym               LDP0    O1COM+47
        28 006577   000006 236100                    LDQ     6,,PR0
        28 006600   000000 471400 18                 LDP1    ILL$
        28 006601   100001 756100                    STQ     1,,PR1

     2520    36610
     2521    36611    3        END;

     2522    36612
     2523    36613    2    END GEN_GENERAL_SUB;

  36613 28 006602   200206 221300                    LDX1  ! CTR_LVL_ETT$+2,,AUTO
        28 006603   000001 702211                    TSX2  ! 1,X1

     2524    36614         %EJECT;
PL6.E3A0      #004=Z8ET$CREATE_SUBROUTINES File=Z8ET.:Z8A6TSI                    SAT 08/09/97 12:48 Page:404
     2525    36615
     2526    36616               /* Main routine */
     2527    36617
     2528    36618    1          MKCN.CON = 1;

  36618 28 006604   000001 235007                    LDA     1,DL
        28 006605   000000 755000 24                 STA     MKCN

     2529    36619
     2530    36620    1          CALL Z8AC$MAKE_CONST (CONST_ETT$);

  36620 28 006606   200011 630500                    EPPR0   CONST_ETT$,,AUTO
        28 006607   200252 450500                    STP0    CETT$$+1,,AUTO
        28 006610   200252 630500                    EPPR0   CETT$$+1,,AUTO
        28 006611   000034 631400 29                 EPPR1   28
        28 006612   000000 701000 xent               TSX1    Z8AC$MAKE_CONST
        28 006613   000000 011000                    NOP     0

     2531    36621
     2532    36622               %INIT_LX_ETT_ITEM (@POINTER = "ADDR(ONE_FIELD)",
     2533    36623                                  @TYPE    = %TYI,
     2534    36624                                  @ETT$    = CONST_ETT$);

  36626 28 006614   000004 220003                    LDX0    4,DU
        28 006615   200164 740100                    STX0    ONE_FIELD,,AUTO

  36627 28 006616   000000 221003                    LDX1    0,DU
        28 006617   200164 441100                    SXL1    ONE_FIELD,,AUTO

  36628 28 006620   000001 235007                    LDA     1,DL
        28 006621   200170 755100                    STA     ONE_FIELD+4,,AUTO

  36629 28 006622   000017 236000 29                 LDQ     15
        28 006623   200173 756100                    STQ     ONE_FIELD+7,,AUTO

  36630 28 006624   200011 236100                    LDQ     CONST_ETT$,,AUTO
        28 006625   200165 756100                    STQ     ONE_FIELD+1,,AUTO
PL6.E3A0      #004=Z8ET$CREATE_SUBROUTINES File=Z8ET.:Z8A6TSI                    SAT 08/09/97 12:48 Page:405

  36631 28 006626   000017 236000 29                 LDQ     15
        28 006627   200166 756100                    STQ     ONE_FIELD+2,,AUTO

  36633 28 006630   000133 235000 xsym               LDA     COMCOM+91
        28 006631   200171 755100                    STA     ONE_FIELD+5,,AUTO

  36634 28 006632   000134 235000 xsym               LDA     COMCOM+92
        28 006633   200172 755100                    STA     ONE_FIELD+6,,AUTO

     2535    36646
     2536    36647               %GET_LTS (@ID       = %FILE_LTS,
     2537    36648                         @ST$      = LTS$$ -> REPORT_LTS.FILE$,
     2538    36649                         @RETURN$  = FILE_LTS$ );

  36651 28 006634   200003 470500                    LDP0    @LTS$$,,AUTO
        28 006635   000000 471500                    LDP1    0,,PR0
        28 006636   100002 473500                    LDP3    2,,PR1
        28 006637   300005 236100                    LDQ     5,,PR3
        28 006640   000017 116000 29                 CMPQ    15
        28 006641   006651 600000 28                 TZE     s:36685
        28 006642   300005 474500                    LDP4    5,,PR3
        28 006643   400000 222100                    LDX2    0,,PR4
        28 006644   001105 102003                    CMPX2   581,DU
        28 006645   006651 601000 28                 TNZ     s:36685

  36665 28 006646   400006 236100                    LDQ     6,,PR4
        28 006647   200027 756100                    STQ     FILE_LTS$,,AUTO

  36683 28 006650   006663 710000 28                 TRA     s:36697

  36685 28 006651   000017 116000 29                 CMPQ    15
        28 006652   006661 600000 28                 TZE     s:36689
        28 006653   300005 474500                    LDP4    5,,PR3
        28 006654   400000 222100                    LDX2    0,,PR4
        28 006655   001121 102003                    CMPX2   593,DU
        28 006656   006661 601000 28                 TNZ     s:36689
PL6.E3A0      #004=Z8ET$CREATE_SUBROUTINES File=Z8ET.:Z8A6TSI                    SAT 08/09/97 12:48 Page:406

  36687 28 006657   200027 756100                    STQ     FILE_LTS$,,AUTO
        28 006660   006663 710000 28                 TRA     s:36697

  36689 28 006661   000017 236000 29                 LDQ     15
        28 006662   200027 756100                    STQ     FILE_LTS$,,AUTO

     2539    36692
     2540    36693
     2541    36694               %GET_ADSC_LEN (ST$  = LTS$$ -> REPORT_LTS.RWCT$,
     2542    36695                              RTN  = RWCT_LEN);

  36697 28 006663   000000 471500                    LDP1    0,,PR0
        28 006664   100022 473500                    LDP3    18,,PR1
        28 006665   300003 236100                    LDQ     3,,PR3
        28 006666   004000 316003                    CANQ    2048,DU
        28 006667   006703 600000 28                 TZE     s:36703

  36698 28 006670   300005 474500                    LDP4    5,,PR3
        28 006671   400000 222100                    LDX2    0,,PR4
        28 006672   001105 102003                    CMPX2   581,DU
        28 006673   006700 601000 28                 TNZ     s:36701

  36699 28 006674   400003 475500                    LDP5    3,,PR4
        28 006675   500001 235100                    LDA     1,,PR5
        28 006676   200005 755100                    STA     RWCT_LEN,,AUTO
        28 006677   006706 710000 28                 TRA     s:36707

  36701 28 006700   400001 235100                    LDA     1,,PR4
        28 006701   200005 755100                    STA     RWCT_LEN,,AUTO
        28 006702   006706 710000 28                 TRA     s:36707

  36703 28 006703   300001 236100                    LDQ     1,,PR3
        28 006704   007777 376007                    ANQ     4095,DL
        28 006705   200005 756100                    STQ     RWCT_LEN,,AUTO

     2543    36706
PL6.E3A0      #004=Z8ET$CREATE_SUBROUTINES File=Z8ET.:Z8A6TSI                    SAT 08/09/97 12:48 Page:407
     2544    36707    1          LAST_WORD_OFFSET = (RWCT_LEN - 20) / 4;

  36707 28 006706   200005 236100                    LDQ     RWCT_LEN,,AUTO
        28 006707   000024 136007                    SBLQ    20,DL
        28 006710   000004 506007                    DIV     4,DL
        28 006711   200006 756100                    STQ     LAST_WORD_OFFSET,,AUTO

     2545    36708
     2546    36709    1          MKCN.CON = LTS$$ -> REPORT_LTS.B.CODE_NUMBER;

  36709 28 006712   100003 236100                    LDQ     3,,PR1
        28 006713   777777 376007                    ANQ     -1,DL
        28 006714   000000 756000 24                 STQ     MKCN

     2547    36710    1          CALL Z8AC$MAKE_CONST (CONST_ETT$);

  36710 28 006715   200011 631500                    EPPR1   CONST_ETT$,,AUTO
        28 006716   200252 451500                    STP1    CETT$$+1,,AUTO
        28 006717   200252 630500                    EPPR0   CETT$$+1,,AUTO
        28 006720   000034 631400 29                 EPPR1   28
        28 006721   000000 701000 xent               TSX1    Z8AC$MAKE_CONST
        28 006722   000000 011000                    NOP     0

     2548    36711
     2549    36712               %NEW_ILL (@ID     = %PREOFF,
     2550    36713                         @OFFSET = LAST_WORD_OFFSET,
     2551    36714                         @LOP    = LTS$$ -> REPORT_LTS.RWCT$,
     2552    36715                         @ROP    = CONST_ETT$ -> ETT.LOP,
     2553    36716                         @N      = 1);

  36945 28 006723   000006 236000 29                 LDQ     6
        28 006724   200252 756100                    STQ     CETT$$+1,,AUTO
        28 006725   200252 630500                    EPPR0   CETT$$+1,,AUTO
        28 006726   200257 450500                    STP0    CETT$$+6,,AUTO
        28 006727   000007 236000 29                 LDQ     7
        28 006730   200256 756100                    STQ     CETT$$+5,,AUTO
        28 006731   000064 237000 29                 LDAQ    52
PL6.E3A0      #004=Z8ET$CREATE_SUBROUTINES File=Z8ET.:Z8A6TSI                    SAT 08/09/97 12:48 Page:408
        28 006732   200254 757100                    STAQ    CETT$$+3,,AUTO
        28 006733   200254 630500                    EPPR0   CETT$$+3,,AUTO
        28 006734   000003 631400 29                 EPPR1   3
        28 006735   000000 701000 xent               TSX1    Z8AN$NEW_ILL
        28 006736   000000 011000                    NOP     0

  36949 28 006737   200006 720100                    LXL0    LAST_WORD_OFFSET,,AUTO
        28 006740   000000 470400 18                 LDP0    ILL$
        28 006741   000000 440100                    SXL0    0,,PR0

  36954 28 006742   000001 235007                    LDA     1,DL
        28 006743   000000 470400 18                 LDP0    ILL$
        28 006744   000003 755100                    STA     3,,PR0

  36956 28 006745   200003 471500                    LDP1    @LTS$$,,AUTO
        28 006746   100000 473500                    LDP3    0,,PR1
        28 006747   300022 236100                    LDQ     18,,PR3
        28 006750   000001 756100                    STQ     1,,PR0

  36957 28 006751   200011 473500                    LDP3    CONST_ETT$,,AUTO
        28 006752   300001 236100                    LDQ     1,,PR3
        28 006753   000002 756100                    STQ     2,,PR0

     2554    37095
     2555    37096               %NEW_ILL (@ID     = %PTR_SET,
     2556    37097                         @OFFSET = "LAST_WORD_OFFSET + 1",
     2557    37098                         @LOP    = LTS$$ -> REPORT_LTS.RWCT$,
     2558    37099                         @ROP    = FILE_LTS$ -> FILE_LTS.FAB$);

  37319 28 006754   000006 236000 29                 LDQ     6
        28 006755   200252 756100                    STQ     CETT$$+1,,AUTO
        28 006756   200252 633500                    EPPR3   CETT$$+1,,AUTO
        28 006757   200257 453500                    STP3    CETT$$+6,,AUTO
        28 006760   000007 236000 29                 LDQ     7
        28 006761   200256 756100                    STQ     CETT$$+5,,AUTO
        28 006762   000066 237000 29                 LDAQ    54
        28 006763   200254 757100                    STAQ    CETT$$+3,,AUTO
PL6.E3A0      #004=Z8ET$CREATE_SUBROUTINES File=Z8ET.:Z8A6TSI                    SAT 08/09/97 12:48 Page:409
        28 006764   200254 630500                    EPPR0   CETT$$+3,,AUTO
        28 006765   000003 631400 29                 EPPR1   3
        28 006766   000000 701000 xent               TSX1    Z8AN$NEW_ILL
        28 006767   000000 011000                    NOP     0

  37323 28 006770   200006 720100                    LXL0    LAST_WORD_OFFSET,,AUTO
        28 006771   000001 621010                    EAX1    1,X0
        28 006772   000000 470400 18                 LDP0    ILL$
        28 006773   000000 441100                    SXL1    0,,PR0

  37325 28 006774   200003 470500                    LDP0    @LTS$$,,AUTO
        28 006775   000000 471500                    LDP1    0,,PR0
        28 006776   100022 236100                    LDQ     18,,PR1
        28 006777   000000 473400 18                 LDP3    ILL$
        28 007000   300001 756100                    STQ     1,,PR3

  37326 28 007001   200027 471500                    LDP1    FILE_LTS$,,AUTO
        28 007002   100002 236100                    LDQ     2,,PR1
        28 007003   300002 756100                    STQ     2,,PR3

     2559    37478    1          CALL Z8AF$NEW_BASE (LTS$$ -> REPORT_LTS.BUFFER_ST$,

  37478 28 007004   000000 471500                    LDP1    0,,PR0
        28 007005   000017 236000 29                 LDQ     15
        28 007006   200252 756100                    STQ     CETT$$+1,,AUTO
        28 007007   200012 634500                    EPPR4   BUFFER_ETT$,,AUTO
        28 007010   200255 454500                    STP4    CETT$$+4,,AUTO
        28 007011   200252 635500                    EPPR5   CETT$$+1,,AUTO
        28 007012   200254 455500                    STP5    CETT$$+3,,AUTO
        28 007013   100034 636500                    EPPR6   28,,PR1
        28 007014   200253 456500                    STP6    CETT$$+2,,AUTO
        28 007015   200253 630500                    EPPR0   CETT$$+2,,AUTO
        28 007016   000030 631400 29                 EPPR1   24
        28 007017   000000 701000 xent               TSX1    Z8AF$NEW_BASE
        28 007020   000000 011000                    NOP     0

     2560    37479    1                              ADDR(NIL),
PL6.E3A0      #004=Z8ET$CREATE_SUBROUTINES File=Z8ET.:Z8A6TSI                    SAT 08/09/97 12:48 Page:410
     2561    37480    1                              BUFFER_ETT$);
     2562    37481
     2563    37482    1          IF LTS$$ -> REPORT_LTS.B.CODE_ON THEN

  37482 28 007021   200003 470500                    LDP0    @LTS$$,,AUTO
        28 007022   000000 471500                    LDP1    0,,PR0
        28 007023   100003 234100                    SZN     3,,PR1
        28 007024   007053 605000 28                 TPL     s:37494

     2564    37483    2            DO;

     2565    37484    2              MIN_REC_LEN = 2;    /*#32312#*/

  37484 28 007025   000002 235007                    LDA     2,DL
        28 007026   200024 755100                    STA     MIN_REC_LEN,,AUTO

     2566    37485    2              FILE_LTS$ ->FILE_LTS.RECORD_CONTAINS.INT_1 = 2; /*#32312#*/

  37485 28 007027   200027 473500                    LDP3    FILE_LTS$,,AUTO
        28 007030   300023 755100                    STA     19,,PR3

     2567    37486    2              REPORT_CODE_NO = LTS$$ -> REPORT_LTS.B.CODE_NUMBER;

  37486 28 007031   000000 471500                    LDP1    0,,PR0
        28 007032   100003 236100                    LDQ     3,,PR1
        28 007033   777777 376007                    ANQ     -1,DL
        28 007034   200004 756100                    STQ     REPORT_CODE_NO,,AUTO

     2568    37487    2              CALL Z8AC$MAKE_TYA_CONST (LTS$$ -> REPORT_LTS.CODE,

  37487 28 007035   000000 471500                    LDP1    0,,PR0
        28 007036   200020 633500                    EPPR3   CODE_ETT$,,AUTO
        28 007037   200255 453500                    STP3    CETT$$+4,,AUTO
        28 007040   000014 236000 29                 LDQ     12
        28 007041   200254 756100                    STQ     CETT$$+3,,AUTO
        28 007042   000071 236000 29                 LDQ     57
        28 007043   200253 756100                    STQ     CETT$$+2,,AUTO
PL6.E3A0      #004=Z8ET$CREATE_SUBROUTINES File=Z8ET.:Z8A6TSI                    SAT 08/09/97 12:48 Page:411
        28 007044   100004 634500                    EPPR4   4,,PR1
        28 007045   200252 454500                    STP4    CETT$$+1,,AUTO
        28 007046   200252 630500                    EPPR0   CETT$$+1,,AUTO
        28 007047   000003 631400 29                 EPPR1   3
        28 007050   000000 701000 xent               TSX1    Z8AC$MAKE_TYA_CONST
        28 007051   000000 011000                    NOP     0

     2569    37488    2                                        2,
     2570    37489    2                                        0,
     2571    37490    2                                        CODE_ETT$);
     2572    37491    2            END;

  37491 28 007052   007073 710000 28                 TRA     s:37503

     2573    37492    1          ELSE
     2574    37493    2            DO;

     2575    37494    2              MIN_REC_LEN = 1;   /*#32312#*/

  37494 28 007053   000001 235007                    LDA     1,DL
        28 007054   200024 755100                    STA     MIN_REC_LEN,,AUTO

     2576    37495    2              FILE_LTS$ ->FILE_LTS.RECORD_CONTAINS.INT_1 = 1; /*#32312#*/

  37495 28 007055   200027 473500                    LDP3    FILE_LTS$,,AUTO
        28 007056   300023 755100                    STA     19,,PR3

     2577    37496    2              REPORT_CODE_NO = %DEFAULT_REPORT_CODE;

  37496 28 007057   000067 236007                    LDQ     55,DL
        28 007060   200004 756100                    STQ     REPORT_CODE_NO,,AUTO

     2578    37497    2              CALL Z8AC$MAKE_TYA_CONST ('  ',

  37497 28 007061   200020 631500                    EPPR1   CODE_ETT$,,AUTO
        28 007062   200255 451500                    STP1    CETT$$+4,,AUTO
        28 007063   000014 236000 29                 LDQ     12
PL6.E3A0      #004=Z8ET$CREATE_SUBROUTINES File=Z8ET.:Z8A6TSI                    SAT 08/09/97 12:48 Page:412
        28 007064   200254 756100                    STQ     CETT$$+3,,AUTO
        28 007065   000072 237000 29                 LDAQ    58
        28 007066   200252 757100                    STAQ    CETT$$+1,,AUTO
        28 007067   200252 630500                    EPPR0   CETT$$+1,,AUTO
        28 007070   000003 631400 29                 EPPR1   3
        28 007071   000000 701000 xent               TSX1    Z8AC$MAKE_TYA_CONST
        28 007072   000000 011000                    NOP     0

     2579    37498    2                                        2,
     2580    37499    2                                        0,
     2581    37500    2                                        CODE_ETT$);
     2582    37501    2            END;

     2583    37502
     2584    37503    1          CALL Z8AF$NEW_BASE (LTS$$ -> REPORT_LTS.LINE_COUNTER$,

  37503 28 007073   200003 470500                    LDP0    @LTS$$,,AUTO
        28 007074   000000 471500                    LDP1    0,,PR0
        28 007075   000017 236000 29                 LDQ     15
        28 007076   200252 756100                    STQ     CETT$$+1,,AUTO
        28 007077   200014 633500                    EPPR3   LINE_COUNTER_ETT$,,AUTO
        28 007100   200255 453500                    STP3    CETT$$+4,,AUTO
        28 007101   200252 634500                    EPPR4   CETT$$+1,,AUTO
        28 007102   200254 454500                    STP4    CETT$$+3,,AUTO
        28 007103   100020 635500                    EPPR5   16,,PR1
        28 007104   200253 455500                    STP5    CETT$$+2,,AUTO
        28 007105   200253 630500                    EPPR0   CETT$$+2,,AUTO
        28 007106   000030 631400 29                 EPPR1   24
        28 007107   000000 701000 xent               TSX1    Z8AF$NEW_BASE
        28 007110   000000 011000                    NOP     0

     2585    37504    1                              ADDR(NIL),
     2586    37505    1                              LINE_COUNTER_ETT$);
     2587    37506
     2588    37507    1          CALL Z8AF$NEW_BASE (LTS$$ -> REPORT_LTS.PAGE_COUNTER$,

  37507 28 007111   200003 470500                    LDP0    @LTS$$,,AUTO
PL6.E3A0      #004=Z8ET$CREATE_SUBROUTINES File=Z8ET.:Z8A6TSI                    SAT 08/09/97 12:48 Page:413
        28 007112   000000 471500                    LDP1    0,,PR0
        28 007113   000017 236000 29                 LDQ     15
        28 007114   200252 756100                    STQ     CETT$$+1,,AUTO
        28 007115   200013 633500                    EPPR3   PAGE_COUNTER_ETT$,,AUTO
        28 007116   200255 453500                    STP3    CETT$$+4,,AUTO
        28 007117   200252 634500                    EPPR4   CETT$$+1,,AUTO
        28 007120   200254 454500                    STP4    CETT$$+3,,AUTO
        28 007121   100017 635500                    EPPR5   15,,PR1
        28 007122   200253 455500                    STP5    CETT$$+2,,AUTO
        28 007123   200253 630500                    EPPR0   CETT$$+2,,AUTO
        28 007124   000030 631400 29                 EPPR1   24
        28 007125   000000 701000 xent               TSX1    Z8AF$NEW_BASE
        28 007126   000000 011000                    NOP     0

     2589    37508    1                              ADDR(NIL),
     2590    37509    1                              PAGE_COUNTER_ETT$);
     2591    37510
     2592    37511    1          IF LTS$$ -> REPORT_LTS.B.CODE_ON THEN

  37511 28 007127   200003 470500                    LDP0    @LTS$$,,AUTO
        28 007130   000000 471500                    LDP1    0,,PR0
        28 007131   100003 234100                    SZN     3,,PR1
        28 007132   007136 605000 28                 TPL     s:37518

     2593    37512    2            DO;

     2594    37513
     2595    37514    2              SA_ADJ = 1;

  37514 28 007133   000001 235007                    LDA     1,DL
        28 007134   200010 755100                    STA     SA_ADJ,,AUTO

     2596    37515    2            END;

  37515 28 007135   007140 710000 28                 TRA     s:37521

     2597    37516    1          ELSE
PL6.E3A0      #004=Z8ET$CREATE_SUBROUTINES File=Z8ET.:Z8A6TSI                    SAT 08/09/97 12:48 Page:414
     2598    37517    2            DO;

     2599    37518    2              SA_ADJ = -1;

  37518 28 007136   000001 335007                    LCA     1,DL
        28 007137   200010 755100                    STA     SA_ADJ,,AUTO

     2600    37519    2            END;

     2601    37520
     2602    37521    1          CALL Z8AF$NEW_BASE (LTS$$ -> REPORT_LTS.AFTER_ADVANCE$,

  37521 28 007140   000017 236000 29                 LDQ     15
        28 007141   200252 756100                    STQ     CETT$$+1,,AUTO
        28 007142   200015 633500                    EPPR3   AFTER_AREA_ETT$,,AUTO
        28 007143   200255 453500                    STP3    CETT$$+4,,AUTO
        28 007144   200252 634500                    EPPR4   CETT$$+1,,AUTO
        28 007145   200254 454500                    STP4    CETT$$+3,,AUTO
        28 007146   100040 635500                    EPPR5   32,,PR1
        28 007147   200253 455500                    STP5    CETT$$+2,,AUTO
        28 007150   200253 630500                    EPPR0   CETT$$+2,,AUTO
        28 007151   000030 631400 29                 EPPR1   24
        28 007152   000000 701000 xent               TSX1    Z8AF$NEW_BASE
        28 007153   000000 011000                    NOP     0

     2603    37522    1                              ADDR(NIL),
     2604    37523    1                              AFTER_AREA_ETT$);
     2605    37524
     2606    37525               %INIT_LX_ETT_ITEM (@POINTER = "ADDR(AFTER_FIELD)",
     2607    37526                                  @TYPE    = %TYI,
     2608    37527                                  @ETT$    = AFTER_AREA_ETT$);

  37529 28 007154   000004 220003                    LDX0    4,DU
        28 007155   200032 740100                    STX0    AFTER_FIELD,,AUTO

  37530 28 007156   000000 221003                    LDX1    0,DU
        28 007157   200032 441100                    SXL1    AFTER_FIELD,,AUTO
PL6.E3A0      #004=Z8ET$CREATE_SUBROUTINES File=Z8ET.:Z8A6TSI                    SAT 08/09/97 12:48 Page:415

  37531 28 007160   000001 235007                    LDA     1,DL
        28 007161   200036 755100                    STA     AFTER_FIELD+4,,AUTO

  37532 28 007162   000017 236000 29                 LDQ     15
        28 007163   200041 756100                    STQ     AFTER_FIELD+7,,AUTO

  37533 28 007164   200015 236100                    LDQ     AFTER_AREA_ETT$,,AUTO
        28 007165   200033 756100                    STQ     AFTER_FIELD+1,,AUTO

  37534 28 007166   000017 236000 29                 LDQ     15
        28 007167   200034 756100                    STQ     AFTER_FIELD+2,,AUTO

  37536 28 007170   000133 235000 xsym               LDA     COMCOM+91
        28 007171   200037 755100                    STA     AFTER_FIELD+5,,AUTO

  37537 28 007172   000134 235000 xsym               LDA     COMCOM+92
        28 007173   200040 755100                    STA     AFTER_FIELD+6,,AUTO

     2609    37549
     2610    37550               %INIT_LX_ETT_ITEM (@POINTER = "ADDR(LINE_COUNTER_FIELD)",
     2611    37551                                  @TYPE    = %TYI,
     2612    37552                                  @ETT$    = LINE_COUNTER_ETT$);

  37554 28 007174   200042 740100                    STX0    LINE_COUNTER_FIELD,,AUTO

  37555 28 007175   200042 441100                    SXL1    LINE_COUNTER_FIELD,,AUTO

  37556 28 007176   000001 235007                    LDA     1,DL
        28 007177   200046 755100                    STA     LINE_COUNTER_FIELD+4,,AUTO

  37557 28 007200   200051 756100                    STQ     LINE_COUNTER_FIELD+7,,AUTO

  37558 28 007201   200014 236100                    LDQ     LINE_COUNTER_ETT$,,AUTO
        28 007202   200043 756100                    STQ     LINE_COUNTER_FIELD+1,,AUTO

  37559 28 007203   000017 236000 29                 LDQ     15
PL6.E3A0      #004=Z8ET$CREATE_SUBROUTINES File=Z8ET.:Z8A6TSI                    SAT 08/09/97 12:48 Page:416
        28 007204   200044 756100                    STQ     LINE_COUNTER_FIELD+2,,AUTO

  37561 28 007205   000133 235000 xsym               LDA     COMCOM+91
        28 007206   200047 755100                    STA     LINE_COUNTER_FIELD+5,,AUTO

  37562 28 007207   000134 235000 xsym               LDA     COMCOM+92
        28 007210   200050 755100                    STA     LINE_COUNTER_FIELD+6,,AUTO

     2613    37574
     2614    37575               %INIT_LX_ETT_ITEM (@POINTER = "ADDR(ZERO)",
     2615    37576                                  @TYPE    = %TYI,
     2616    37577                                  @ETT$    = COMCOM.VALUE_0);

  37579 28 007211   200134 740100                    STX0    ZERO,,AUTO

  37580 28 007212   200134 441100                    SXL1    ZERO,,AUTO

  37581 28 007213   000001 235007                    LDA     1,DL
        28 007214   200140 755100                    STA     ZERO+4,,AUTO

  37582 28 007215   200143 756100                    STQ     ZERO+7,,AUTO

  37583 28 007216   000124 236000 xsym               LDQ     COMCOM+84
        28 007217   200135 756100                    STQ     ZERO+1,,AUTO

  37584 28 007220   000017 236000 29                 LDQ     15
        28 007221   200136 756100                    STQ     ZERO+2,,AUTO

  37586 28 007222   000133 235000 xsym               LDA     COMCOM+91
        28 007223   200141 755100                    STA     ZERO+5,,AUTO

  37587 28 007224   000134 235000 xsym               LDA     COMCOM+92
        28 007225   200142 755100                    STA     ZERO+6,,AUTO

     2617    37599
     2618    37600
     2619    37601
PL6.E3A0      #004=Z8ET$CREATE_SUBROUTINES File=Z8ET.:Z8A6TSI                    SAT 08/09/97 12:48 Page:417
     2620    37602    1          CALL CREATE_TOP_PAGE_SUB;

  37602 28 007226   000003 701000 28                 TSX1    CREATE_TOP_PAGE_SUB
        28 007227   000000 011000                    NOP     0

     2621    37603
     2622    37604    1          CALL BUILD_FORMAT_SUB;

  37604 28 007230   002677 701000 28                 TSX1    BUILD_FORMAT_SUB
        28 007231   000000 011000                    NOP     0

     2623    37605
     2624    37606    1          IF LTS$$ -> REPORT_LTS.CONTROL$ ~= ADDR(NIL) THEN

  37606 28 007232   200003 470500                    LDP0    @LTS$$,,AUTO
        28 007233   000000 471500                    LDP1    0,,PR0
        28 007234   100005 236100                    LDQ     5,,PR1
        28 007235   000017 116000 29                 CMPQ    15
        28 007236   007345 600000 28                 TZE     s:37655

     2625    37607    2            DO;

     2626    37608
     2627    37609    2              CALL Z8AF$NEW_BASE (LTS$$ -> REPORT_LTS.CTR_LVL_COUNTER$,

  37609 28 007237   000017 236000 29                 LDQ     15
        28 007240   200252 756100                    STQ     CETT$$+1,,AUTO
        28 007241   200204 633500                    EPPR3   CTR_LVL_ETT$,,AUTO
        28 007242   200255 453500                    STP3    CETT$$+4,,AUTO
        28 007243   200252 634500                    EPPR4   CETT$$+1,,AUTO
        28 007244   200254 454500                    STP4    CETT$$+3,,AUTO
        28 007245   100035 635500                    EPPR5   29,,PR1
        28 007246   200253 455500                    STP5    CETT$$+2,,AUTO
        28 007247   200253 630500                    EPPR0   CETT$$+2,,AUTO
        28 007250   000030 631400 29                 EPPR1   24
        28 007251   000000 701000 xent               TSX1    Z8AF$NEW_BASE
        28 007252   000000 011000                    NOP     0
PL6.E3A0      #004=Z8ET$CREATE_SUBROUTINES File=Z8ET.:Z8A6TSI                    SAT 08/09/97 12:48 Page:418

     2628    37610    2                                  ADDR(NIL),
     2629    37611    2                                  CTR_LVL_ETT$);
     2630    37612
     2631    37613                   %INIT_LX_ETT_ITEM (@POINTER = "ADDR(CTR_LVL_FIELD)",
     2632    37614                                      @TYPE    = %TYI,
     2633    37615                                      @ETT$    = CTR_LVL_ETT$);

  37617 28 007253   000004 220003                    LDX0    4,DU
        28 007254   200174 740100                    STX0    CTR_LVL_FIELD,,AUTO

  37618 28 007255   000000 221003                    LDX1    0,DU
        28 007256   200174 441100                    SXL1    CTR_LVL_FIELD,,AUTO

  37619 28 007257   000001 235007                    LDA     1,DL
        28 007260   200200 755100                    STA     CTR_LVL_FIELD+4,,AUTO

  37620 28 007261   000017 236000 29                 LDQ     15
        28 007262   200203 756100                    STQ     CTR_LVL_FIELD+7,,AUTO

  37621 28 007263   200204 236100                    LDQ     CTR_LVL_ETT$,,AUTO
        28 007264   200175 756100                    STQ     CTR_LVL_FIELD+1,,AUTO

  37622 28 007265   000017 236000 29                 LDQ     15
        28 007266   200176 756100                    STQ     CTR_LVL_FIELD+2,,AUTO

  37624 28 007267   000133 235000 xsym               LDA     COMCOM+91
        28 007270   200201 755100                    STA     CTR_LVL_FIELD+5,,AUTO

  37625 28 007271   000134 235000 xsym               LDA     COMCOM+92
        28 007272   200202 755100                    STA     CTR_LVL_FIELD+6,,AUTO

     2634    37637
     2635    37638    2              CALL STORE_EDITED (LTS$$ -> REPORT_LTS.CONTROL$);

  37638 28 007273   200003 470500                    LDP0    @LTS$$,,AUTO
        28 007274   000000 471500                    LDP1    0,,PR0
PL6.E3A0      #004=Z8ET$CREATE_SUBROUTINES File=Z8ET.:Z8A6TSI                    SAT 08/09/97 12:48 Page:419
        28 007275   100005 633500                    EPPR3   5,,PR1
        28 007276   200207 453500                    STP3    CTR_LVL_ETT$+3,,AUTO
        28 007277   003130 701000 28                 TSX1    STORE_EDITED
        28 007300   000000 011000                    NOP     0

     2636    37639
     2637    37640    2              CALL BUILD_CTR_FIELDS (LTS$$ -> REPORT_LTS.CONTROL$);

  37640 28 007301   200003 470500                    LDP0    @LTS$$,,AUTO
        28 007302   000000 471500                    LDP1    0,,PR0
        28 007303   100005 633500                    EPPR3   5,,PR1
        28 007304   200207 453500                    STP3    CTR_LVL_ETT$+3,,AUTO
        28 007305   003235 701000 28                 TSX1    BUILD_CTR_FIELDS
        28 007306   000000 011000                    NOP     0

     2638    37641
     2639    37642    2              CALL CREATE_SHADOW_INIT_SUB (LTS$$ -> REPORT_LTS.CONTROL$);

  37642 28 007307   200003 470500                    LDP0    @LTS$$,,AUTO
        28 007310   000000 471500                    LDP1    0,,PR0
        28 007311   100005 633500                    EPPR3   5,,PR1
        28 007312   200207 453500                    STP3    CTR_LVL_ETT$+3,,AUTO
        28 007313   003673 701000 28                 TSX1    CREATE_SHADOW_INIT_SUB
        28 007314   000000 011000                    NOP     0

     2640    37643
     2641    37644    2              CALL CREATE_CTR_DETECT_SUB (LTS$$ -> REPORT_LTS.CONTROL$);

  37644 28 007315   200003 470500                    LDP0    @LTS$$,,AUTO
        28 007316   000000 471500                    LDP1    0,,PR0
        28 007317   100005 633500                    EPPR3   5,,PR1
        28 007320   200207 453500                    STP3    CTR_LVL_ETT$+3,,AUTO
        28 007321   004074 701000 28                 TSX1    CREATE_CTR_DETECT_SUB
        28 007322   000000 011000                    NOP     0

     2642    37645
     2643    37646    2              CALL CREATE_SHADOW_SWAP_SUB (LTS$$ -> REPORT_LTS.CONTROL$);
PL6.E3A0      #004=Z8ET$CREATE_SUBROUTINES File=Z8ET.:Z8A6TSI                    SAT 08/09/97 12:48 Page:420

  37646 28 007323   200003 470500                    LDP0    @LTS$$,,AUTO
        28 007324   000000 471500                    LDP1    0,,PR0
        28 007325   100005 633500                    EPPR3   5,,PR1
        28 007326   200207 453500                    STP3    CTR_LVL_ETT$+3,,AUTO
        28 007327   004613 701000 28                 TSX1    CREATE_SHADOW_SWAP_SUB
        28 007330   000000 011000                    NOP     0

     2644    37647
     2645    37648    2              CALL DISPOSE_CTR_FIELDS (LTS$$ -> REPORT_LTS.CONTROL$);

  37648 28 007331   200003 470500                    LDP0    @LTS$$,,AUTO
        28 007332   000000 471500                    LDP1    0,,PR0
        28 007333   100005 633500                    EPPR3   5,,PR1
        28 007334   200207 453500                    STP3    CTR_LVL_ETT$+3,,AUTO
        28 007335   003542 701000 28                 TSX1    DISPOSE_CTR_FIELDS
        28 007336   000000 011000                    NOP     0

     2646    37649
     2647    37650    2              CALL RESTORE_EDITED (LTS$$ -> REPORT_LTS.CONTROL$);

  37650 28 007337   200003 470500                    LDP0    @LTS$$,,AUTO
        28 007340   000000 471500                    LDP1    0,,PR0
        28 007341   100005 633500                    EPPR3   5,,PR1
        28 007342   200207 453500                    STP3    CTR_LVL_ETT$+3,,AUTO
        28 007343   003202 701000 28                 TSX1    RESTORE_EDITED
        28 007344   000000 011000                    NOP     0

     2648    37651
     2649    37652    2            END;

     2650    37653
     2651    37654
     2652    37655    1          CURRENT$ = LTS$$ -> REPORT_LTS.DETAIL$;

  37655 28 007345   200003 470500                    LDP0    @LTS$$,,AUTO
        28 007346   000000 471500                    LDP1    0,,PR0
PL6.E3A0      #004=Z8ET$CREATE_SUBROUTINES File=Z8ET.:Z8A6TSI                    SAT 08/09/97 12:48 Page:421
        28 007347   100027 236100                    LDQ     23,,PR1
        28 007350   200025 756100                    STQ     CURRENT$,,AUTO

     2653    37656
     2654    37657    2          DO WHILE (CURRENT$ ~= ADDR(NIL));

  37657 28 007351   007361 710000 28                 TRA     s:37663

     2655    37658
     2656    37659    2            CALL GEN_SPECIAL_SUB (CURRENT$);

  37659 28 007352   200025 630500                    EPPR0   CURRENT$,,AUTO
        28 007353   200207 450500                    STP0    CTR_LVL_ETT$+3,,AUTO
        28 007354   006244 701000 28                 TSX1    GEN_SPECIAL_SUB
        28 007355   000000 011000                    NOP     0

     2657    37660
     2658    37661    2            CURRENT$ = CURRENT$ -> REPORT_01_LTS.LINK;

  37661 28 007356   200025 470500                    LDP0    CURRENT$,,AUTO
        28 007357   000007 236100                    LDQ     7,,PR0
        28 007360   200025 756100                    STQ     CURRENT$,,AUTO

     2659    37662
     2660    37663    2          END; /* WHILE */

  37663 28 007361   000017 116000 29                 CMPQ    15
        28 007362   007352 601000 28                 TNZ     s:37659

     2661    37664
     2662    37665    1          CURRENT$ = LTS$$ -> REPORT_LTS.CONTROL_FOOTING_FINAL$;

  37665 28 007363   200003 470500                    LDP0    @LTS$$,,AUTO
        28 007364   000000 471500                    LDP1    0,,PR0
        28 007365   100031 236100                    LDQ     25,,PR1
        28 007366   200025 756100                    STQ     CURRENT$,,AUTO

PL6.E3A0      #004=Z8ET$CREATE_SUBROUTINES File=Z8ET.:Z8A6TSI                    SAT 08/09/97 12:48 Page:422
     2663    37666
     2664    37667    1        IF CURRENT$ ~= ADDR(NIL) THEN

  37667 28 007367   000017 116000 29                 CMPQ    15
        28 007370   007404 600000 28                 TZE     s:37759

     2665    37668    2          DO;

     2666    37669    3            DO WHILE (CURRENT$ ~= ADDR(NIL));

  37669 28 007371   007401 710000 28                 TRA     s:37675

     2667    37670
     2668    37671    3              CALL GEN_SUM_SUBS (CURRENT$);

  37671 28 007372   200025 630500                    EPPR0   CURRENT$,,AUTO
        28 007373   200207 450500                    STP0    CTR_LVL_ETT$+3,,AUTO
        28 007374   006212 701000 28                 TSX1    GEN_SUM_SUBS
        28 007375   000000 011000                    NOP     0

     2669    37672
     2670    37673    3              CURRENT$ = CURRENT$ -> REPORT_01_LTS.LINK;

  37673 28 007376   200025 470500                    LDP0    CURRENT$,,AUTO
        28 007377   000007 236100                    LDQ     7,,PR0
        28 007400   200025 756100                    STQ     CURRENT$,,AUTO

     2671    37674
     2672    37675    3            END; /* WHILE */

  37675 28 007401   000017 116000 29                 CMPQ    15
        28 007402   007372 601000 28                 TNZ     s:37671

     2673    37676    2          END;

  37676 28 007403   007532 710000 28                 TRA     s:37799

PL6.E3A0      #004=Z8ET$CREATE_SUBROUTINES File=Z8ET.:Z8A6TSI                    SAT 08/09/97 12:48 Page:423
     2674    37677    1        ELSE
     2675    37678    2          DO;

     2676    37679                 %NEW_REPORT_01_LTS (@POINTER = PHONY_LTS$,
     2677    37680                                     @CONTROL_LTS$ = LTS$$ -> REPORT_LTS.CONTROL_FINAL$);

  37759 28 007404   000002 236000 23                 LDQ     LTS_+2
        28 007405   000024 036007                    ADLQ    20,DL
        28 007406   000003 116000 23                 CMPQ    LTS_+3
        28 007407   007420 604000 28                 TMI     s:37761

  37760 28 007410   000074 236000 29                 LDQ     60
        28 007411   200252 756100                    STQ     CETT$$+1,,AUTO
        28 007412   200252 631500                    EPPR1   CETT$$+1,,AUTO
        28 007413   200253 451500                    STP1    CETT$$+2,,AUTO
        28 007414   200253 630500                    EPPR0   CETT$$+2,,AUTO
        28 007415   000034 631400 29                 EPPR1   28
        28 007416   000000 701000 xent               TSX1    Z8AR$RESERVER
        28 007417   000000 011000                    NOP     0

  37761 28 007420   000002 236000 23                 LDQ     LTS_+2
        28 007421   000022 736000                    QLS     18
        28 007422   000001 036000 23                 ADLQ    LTS_+1
        28 007423   200026 756100                    STQ     PHONY_LTS$,,AUTO

  37762 28 007424   000024 236007                    LDQ     20,DL
        28 007425   000002 056000 23                 ASQ     LTS_+2

  37763 28 007426   001101 220003                    LDX0    577,DU
        28 007427   200026 470500                    LDP0    PHONY_LTS$,,AUTO
        28 007430   000000 740100                    STX0    0,,PR0

  37769 28 007431   200026 470500                    LDP0    PHONY_LTS$,,AUTO
        28 007432   000000 740100                    STX0    0,,PR0

  37770 28 007433   000017 236000 29                 LDQ     15
        28 007434   200026 470500                    LDP0    PHONY_LTS$,,AUTO
PL6.E3A0      #004=Z8ET$CREATE_SUBROUTINES File=Z8ET.:Z8A6TSI                    SAT 08/09/97 12:48 Page:424
        28 007435   000003 756100                    STQ     3,,PR0

  37771 28 007436   000017 236000 29                 LDQ     15
        28 007437   200026 470500                    LDP0    PHONY_LTS$,,AUTO
        28 007440   000004 756100                    STQ     4,,PR0

  37772 28 007441   000017 236000 29                 LDQ     15
        28 007442   200026 470500                    LDP0    PHONY_LTS$,,AUTO
        28 007443   000006 756100                    STQ     6,,PR0

  37773 28 007444   000017 236000 29                 LDQ     15
        28 007445   200026 470500                    LDP0    PHONY_LTS$,,AUTO
        28 007446   000005 756100                    STQ     5,,PR0

  37774 28 007447   000017 236000 29                 LDQ     15
        28 007450   200026 470500                    LDP0    PHONY_LTS$,,AUTO
        28 007451   000007 756100                    STQ     7,,PR0

  37775 28 007452   000017 236000 29                 LDQ     15
        28 007453   200026 470500                    LDP0    PHONY_LTS$,,AUTO
        28 007454   000022 756100                    STQ     18,,PR0

  37776 28 007455   200026 470500                    LDP0    PHONY_LTS$,,AUTO
        28 007456   000023 756100                    STQ     19,,PR0

  37777 28 007457   200003 470500                    LDP0    @LTS$$,,AUTO
        28 007460   000000 471500                    LDP1    0,,PR0
        28 007461   100006 236100                    LDQ     6,,PR1
        28 007462   200026 473500                    LDP3    PHONY_LTS$,,AUTO
        28 007463   300014 756100                    STQ     12,,PR3

  37778 28 007464   200026 471500                    LDP1    PHONY_LTS$,,AUTO
        28 007465   100010 450100                    STZ     8,,PR1

  37779 28 007466   000017 236000 29                 LDQ     15
        28 007467   200026 471500                    LDP1    PHONY_LTS$,,AUTO
        28 007470   100015 756100                    STQ     13,,PR1
PL6.E3A0      #004=Z8ET$CREATE_SUBROUTINES File=Z8ET.:Z8A6TSI                    SAT 08/09/97 12:48 Page:425

  37780 28 007471   000017 236000 29                 LDQ     15
        28 007472   200026 471500                    LDP1    PHONY_LTS$,,AUTO
        28 007473   100016 756100                    STQ     14,,PR1

  37781 28 007474   200026 471500                    LDP1    PHONY_LTS$,,AUTO
        28 007475   100017 450100                    STZ     15,,PR1

  37782 28 007476   000017 236000 29                 LDQ     15
        28 007477   200026 471500                    LDP1    PHONY_LTS$,,AUTO
        28 007500   100021 756100                    STQ     17,,PR1

  37783 28 007501   200026 471500                    LDP1    PHONY_LTS$,,AUTO
        28 007502   100020 450100                    STZ     16,,PR1

  37784 28 007503   200026 471500                    LDP1    PHONY_LTS$,,AUTO
        28 007504   100001 450100                    STZ     1,,PR1

  37785 28 007505   200026 471500                    LDP1    PHONY_LTS$,,AUTO
        28 007506   100011 450100                    STZ     9,,PR1

  37786 28 007507   200026 471500                    LDP1    PHONY_LTS$,,AUTO
        28 007510   100012 450100                    STZ     10,,PR1

  37787 28 007511   200026 471500                    LDP1    PHONY_LTS$,,AUTO
        28 007512   100002 450100                    STZ     2,,PR1

  37788 28 007513   200026 471500                    LDP1    PHONY_LTS$,,AUTO
        28 007514   100013 450100                    STZ     11,,PR1

  37789 28 007515   000000 221003                    LDX1    0,DU
        28 007516   200026 471500                    LDP1    PHONY_LTS$,,AUTO
        28 007517   100000 441100                    SXL1    0,,PR1

  37790 28 007520   200026 471500                    LDP1    PHONY_LTS$,,AUTO
        28 007521   000037 236000 29                 LDQ     31
        28 007522   100000 356100                    ANSQ    0,,PR1
PL6.E3A0      #004=Z8ET$CREATE_SUBROUTINES File=Z8ET.:Z8A6TSI                    SAT 08/09/97 12:48 Page:426

  37791 28 007523   200026 471500                    LDP1    PHONY_LTS$,,AUTO
        28 007524   000041 236000 29                 LDQ     33
        28 007525   100000 356100                    ANSQ    0,,PR1

     2678    37794
     2679    37795    2            CALL GEN_SUM_SUBS (PHONY_LTS$);

  37795 28 007526   200026 631500                    EPPR1   PHONY_LTS$,,AUTO
        28 007527   200207 451500                    STP1    CTR_LVL_ETT$+3,,AUTO
        28 007530   006212 701000 28                 TSX1    GEN_SUM_SUBS
        28 007531   000000 011000                    NOP     0

     2680    37796    2          END;

     2681    37797
     2682    37798
     2683    37799    1          CURRENT$ = LTS$$ -> REPORT_LTS.CONTROL_FOOTING$;

  37799 28 007532   200003 470500                    LDP0    @LTS$$,,AUTO
        28 007533   000000 471500                    LDP1    0,,PR0
        28 007534   100030 236100                    LDQ     24,,PR1
        28 007535   200025 756100                    STQ     CURRENT$,,AUTO

     2684    37800
     2685    37801    2          DO WHILE (CURRENT$ ~= ADDR(NIL));

  37801 28 007536   007546 710000 28                 TRA     s:37807

     2686    37802
     2687    37803    2            CALL GEN_SUM_SUBS (CURRENT$);

  37803 28 007537   200025 630500                    EPPR0   CURRENT$,,AUTO
        28 007540   200207 450500                    STP0    CTR_LVL_ETT$+3,,AUTO
        28 007541   006212 701000 28                 TSX1    GEN_SUM_SUBS
        28 007542   000000 011000                    NOP     0

PL6.E3A0      #004=Z8ET$CREATE_SUBROUTINES File=Z8ET.:Z8A6TSI                    SAT 08/09/97 12:48 Page:427
     2688    37804
     2689    37805    2            CURRENT$ = CURRENT$ -> REPORT_01_LTS.LINK;

  37805 28 007543   200025 470500                    LDP0    CURRENT$,,AUTO
        28 007544   000007 236100                    LDQ     7,,PR0
        28 007545   200025 756100                    STQ     CURRENT$,,AUTO

     2690    37806
     2691    37807    2          END; /* WHILE */

  37807 28 007546   000017 116000 29                 CMPQ    15
        28 007547   007537 601000 28                 TNZ     s:37803

     2692    37808
     2693    37809    1          CALL GEN_GENERAL_SUB;

  37809 28 007550   006424 701000 28                 TSX1    GEN_GENERAL_SUB
        28 007551   000000 011000                    NOP     0

     2694    37810
     2695    37811    1          IF LTS$$ -> REPORT_LTS.CONTROL$ ~= ADDR(NIL) THEN

  37811 28 007552   200003 470500                    LDP0    @LTS$$,,AUTO
        28 007553   000000 471500                    LDP1    0,,PR0
        28 007554   100005 236100                    LDQ     5,,PR1
        28 007555   000017 116000 29                 CMPQ    15
        28 007556   007603 600000 28                 TZE     s:37820

     2696    37812    2            DO;

     2697    37813    3              DO I = 1 TO LTS$$ -> REPORT_LTS.CONTROL$ -> LTS_PTR_ARRAY.N - 3;

  37813 28 007557   000001 235007                    LDA     1,DL
        28 007560   200007 755100                    STA     I,,AUTO
        28 007561   007573 710000 28                 TRA     s:37817+1

     2698    37814
PL6.E3A0      #004=Z8ET$CREATE_SUBROUTINES File=Z8ET.:Z8A6TSI                    SAT 08/09/97 12:48 Page:428
     2699    37815    3               CALL GEN_RESET_SUB (LTS$$ -> REPORT_LTS.CONTROL$ -> LTS_PTR_ARRAY.P$(I)
             37815                         );

  37815 28 007562   200003 470500                    LDP0    @LTS$$,,AUTO
        28 007563   000000 471500                    LDP1    0,,PR0
        28 007564   100005 473500                    LDP3    5,,PR1
        28 007565   200007 720100                    LXL0    I,,AUTO
        28 007566   300002 634510                    EPPR4   2,X0,PR3
        28 007567   200207 454500                    STP4    CTR_LVL_ETT$+3,,AUTO
        28 007570   006002 701000 28                 TSX1    GEN_RESET_SUB
        28 007571   000000 011000                    NOP     0

     2700    37816
     2701    37817    3              END;

  37817 28 007572   200007 054100                    AOS     I,,AUTO
        28 007573   200003 470500                    LDP0    @LTS$$,,AUTO
        28 007574   000000 471500                    LDP1    0,,PR0
        28 007575   100005 473500                    LDP3    5,,PR1
        28 007576   300000 236100                    LDQ     0,,PR3
        28 007577   777777 376007                    ANQ     -1,DL
        28 007600   000003 136007                    SBLQ    3,DL
        28 007601   200007 116100                    CMPQ    I,,AUTO
        28 007602   007562 605000 28                 TPL     s:37815

     2702    37818    2            END;

     2703    37819
     2704    37820    1          CALL GEN_RESET_SUB (LTS$$ -> REPORT_LTS.CONTROL_FINAL$);

  37820 28 007603   100006 633500                    EPPR3   6,,PR1
        28 007604   200207 453500                    STP3    CTR_LVL_ETT$+3,,AUTO
        28 007605   006002 701000 28                 TSX1    GEN_RESET_SUB
        28 007606   000000 011000                    NOP     0

     2705    37821
     2706    37822    1    END Z8ET$CREATE_SUBROUTINES;
PL6.E3A0      #004=Z8ET$CREATE_SUBROUTINES File=Z8ET.:Z8A6TSI                    SAT 08/09/97 12:48 Page:429

  37822 28 007607   000000 702200 xent               TSX2  ! X66_ARET
     2707    37823         %EOD;

PL6.E3A0      #004=Z8ET$CREATE_SUBROUTINES File=Z8ET.:Z8A6TSI                    SAT 08/09/97 12:48 Page:430
--  Include file information  --

   Z9A_SUPP_MAC.:Z8A6TOU  is referenced.
   X9A_IO.:X8A6TOU  is referenced.
   Z8E_ABSSYN.:Z8A6TOU  cannot be made into a system file and is referenced.
   Z8E_HEAP.:Z8A6TOU  cannot be made into a system file and is referenced.
   Z8A_MKCN.:Z8A6TOU  cannot be made into a system file and is referenced.
   Z8A_LTS.:Z8A6TOU  cannot be made into a system file and is referenced.
   Z8A_ILS.:Z8A6TOU  cannot be made into a system file and is referenced.
   Z8A_ILL.:Z8A6TOU  cannot be made into a system file and is referenced.
   Z8A_ETT.:Z8A6TOU  cannot be made into a system file and is referenced.
   Z8A_QLT.:Z8A6TOU  cannot be made into a system file and is referenced.
   Z8A_TYPES.:Z8A6TOU  is referenced.
   Z8A_ST.:Z8A6TOU  cannot be made into a system file and is referenced.
   Z8A_DNT.:Z8A6TOU  cannot be made into a system file and is referenced.
   Z8E_NEW_ILL.:Z8A6TOU  is referenced.
   Z8E_MACROS.:Z8A6TOU  cannot be made into a system file and is referenced.
   Z8E_O1COM.:Z8A6TOU  cannot be made into a system file and is referenced.
   Z8A_LEX_SYMB.:Z8A6TOU  cannot be made into a system file and is referenced.
   Z8E_STACKS.:Z8A6TOU  cannot be made into a system file and is referenced.
   Z8A_COMCOM.:Z8A6TOU  cannot be made into a system file and is referenced.
   X8A_COM_MACS.:X8A6TOU  is referenced.
   Z8A_NAMES.:Z8A6TOU  is referenced.
   Z8A_SUPP_MAC.:Z8A6TOU  is referenced.
   Z8A_DEFC.:Z8A6TOU  cannot be made into a system file and is referenced.
      No diagnostics issued in procedure Z8ET$CREATE_SUBROUTINES.
PL6.E3A0      #004=Z8ET$CREATE_SUBROUTINES File=Z8ET.:Z8A6TSI                    SAT 08/09/97 12:48 Page:431

 **** Variables and constants ****

  ****  Section 000 LblCom ITERATION

  ****  Scalars and arrays  ****
OctLoc.c.b A Datatyp(siz) R M Lvl/name                 OctLoc.c.b A Datatyp(siz) R M Lvl/name

     0-0-0/w SBIN              1 ITERATION

  ****  Section 001 LblCom LEX_SYMBOL

  ****  Scalars and arrays  ****
OctLoc.c.b A Datatyp(siz) R M Lvl/name                 OctLoc.c.b A Datatyp(siz) R M Lvl/name

     0-0-0/w STRC(3240)  r     1 LEX_SYMBOL                 0-0-0/w STRC(3240)        1 LEX_SYMBOL_WORDS

  ****  Section 002 LblCom CURRENT_LEX_SYMBOL$

  ****  Scalars and arrays  ****
OctLoc.c.b A Datatyp(siz) R M Lvl/name                 OctLoc.c.b A Datatyp(siz) R M Lvl/name

     0-0-0/w PTR         r     1 CURRENT_LEX_SYMBOL$

  ****  Section 003 LblCom TEMP_LEX_SYMBOL

  ****  Scalars and arrays  ****
OctLoc.c.b A Datatyp(siz) R M Lvl/name                 OctLoc.c.b A Datatyp(siz) R M Lvl/name

     0-0-0/w STRC(3240)        1 TEMP_LEX_SYMBOL

  ****  Section 004 LblCom TEMP_LEX_SYMBOL2

  ****  Scalars and arrays  ****
OctLoc.c.b A Datatyp(siz) R M Lvl/name                 OctLoc.c.b A Datatyp(siz) R M Lvl/name

     0-0-0/w STRC(3240)        1 TEMP_LEX_SYMBOL2

PL6.E3A0      #004=Z8ET$CREATE_SUBROUTINES File=Z8ET.:Z8A6TSI                    SAT 08/09/97 12:48 Page:432
  ****  Section 005 LblCom DNT$

  ****  Scalars and arrays  ****
OctLoc.c.b A Datatyp(siz) R M Lvl/name                 OctLoc.c.b A Datatyp(siz) R M Lvl/name

     0-0-0/w PTR         r     1 DNT$

  ****  Section 006 LblCom DNT_

  ****  Scalars and arrays  ****
OctLoc.c.b A Datatyp(siz) R M Lvl/name                 OctLoc.c.b A Datatyp(siz) R M Lvl/name

     0-0-0/w STRC(180)         1 DNT_

  ****  Section 007 LblCom DNT_BUCKET_NUMBER

  ****  Scalars and arrays  ****
OctLoc.c.b A Datatyp(siz) R M Lvl/name                 OctLoc.c.b A Datatyp(siz) R M Lvl/name

     0-0-0/w UBIN              1 DNT_BUCKET_NUMBER

  ****  Section 008 LblCom DNT_OF_1$

  ****  Scalars and arrays  ****
OctLoc.c.b A Datatyp(siz) R M Lvl/name                 OctLoc.c.b A Datatyp(siz) R M Lvl/name

     0-0-0/w PTR               1 DNT_OF_1$

  ****  Section 009 LblCom ST$

  ****  Scalars and arrays  ****
OctLoc.c.b A Datatyp(siz) R M Lvl/name                 OctLoc.c.b A Datatyp(siz) R M Lvl/name

     0-0-0/w PTR         r     1 ST$

  ****  Section 010 LblCom ST_

PL6.E3A0      #004=Z8ET$CREATE_SUBROUTINES File=Z8ET.:Z8A6TSI                    SAT 08/09/97 12:48 Page:433
  ****  Scalars and arrays  ****
OctLoc.c.b A Datatyp(siz) R M Lvl/name                 OctLoc.c.b A Datatyp(siz) R M Lvl/name

     0-0-0/w STRC(180)   r     1 ST_

  ****  Section 011 LblCom QLT$

  ****  Scalars and arrays  ****
OctLoc.c.b A Datatyp(siz) R M Lvl/name                 OctLoc.c.b A Datatyp(siz) R M Lvl/name

     0-0-0/w PTR         r     1 QLT$

  ****  Section 012 LblCom PREV_01_QLT$

  ****  Scalars and arrays  ****
OctLoc.c.b A Datatyp(siz) R M Lvl/name                 OctLoc.c.b A Datatyp(siz) R M Lvl/name

     0-0-0/w PTR               1 PREV_01_QLT$

  ****  Section 013 LblCom QLT_

  ****  Scalars and arrays  ****
OctLoc.c.b A Datatyp(siz) R M Lvl/name                 OctLoc.c.b A Datatyp(siz) R M Lvl/name

     0-0-0/w STRC(180)   r     1 QLT_

  ****  Section 014 LblCom ETT$

  ****  Scalars and arrays  ****
OctLoc.c.b A Datatyp(siz) R M Lvl/name                 OctLoc.c.b A Datatyp(siz) R M Lvl/name

     0-0-0/w PTR         r     1 ETT$

  ****  Section 015 LblCom HEAD_ETT$

  ****  Scalars and arrays  ****
OctLoc.c.b A Datatyp(siz) R M Lvl/name                 OctLoc.c.b A Datatyp(siz) R M Lvl/name
PL6.E3A0      #004=Z8ET$CREATE_SUBROUTINES File=Z8ET.:Z8A6TSI                    SAT 08/09/97 12:48 Page:434

     0-0-0/w PTR               1 HEAD_ETT$

  ****  Section 016 LblCom ETT_BUCKETS

  ****  Scalars and arrays  ****
OctLoc.c.b A Datatyp(siz) R M Lvl/name                 OctLoc.c.b A Datatyp(siz) R M Lvl/name

     0-0-0/w PTR               1 ETT_BUCKETS(0:511)

  ****  Section 017 LblCom ETT_

  ****  Scalars and arrays  ****
OctLoc.c.b A Datatyp(siz) R M Lvl/name                 OctLoc.c.b A Datatyp(siz) R M Lvl/name

     0-0-0/w STRC(180)         1 ETT_

  ****  Section 018 LblCom ILL$

  ****  Scalars and arrays  ****
OctLoc.c.b A Datatyp(siz) R M Lvl/name                 OctLoc.c.b A Datatyp(siz) R M Lvl/name

     0-0-0/w PTR         r     1 ILL$

  ****  Section 019 LblCom ILL_

  ****  Scalars and arrays  ****
OctLoc.c.b A Datatyp(siz) R M Lvl/name                 OctLoc.c.b A Datatyp(siz) R M Lvl/name

     0-0-0/w STRC(180)         1 ILL_

  ****  Section 020 LblCom ILS$

  ****  Scalars and arrays  ****
OctLoc.c.b A Datatyp(siz) R M Lvl/name                 OctLoc.c.b A Datatyp(siz) R M Lvl/name

     0-0-0/w PTR         r     1 ILS$
PL6.E3A0      #004=Z8ET$CREATE_SUBROUTINES File=Z8ET.:Z8A6TSI                    SAT 08/09/97 12:48 Page:435

  ****  Section 021 LblCom ILS_

  ****  Scalars and arrays  ****
OctLoc.c.b A Datatyp(siz) R M Lvl/name                 OctLoc.c.b A Datatyp(siz) R M Lvl/name

     0-0-0/w STRC(180)         1 ILS_

  ****  Section 022 LblCom LTS$

  ****  Scalars and arrays  ****
OctLoc.c.b A Datatyp(siz) R M Lvl/name                 OctLoc.c.b A Datatyp(siz) R M Lvl/name

     0-0-0/w PTR               1 LONG_ITEM$                 0-0-0/w PTR         r     1 LTS$

  ****  Section 023 LblCom LTS_

  ****  Scalars and arrays  ****
OctLoc.c.b A Datatyp(siz) R M Lvl/name                 OctLoc.c.b A Datatyp(siz) R M Lvl/name

     0-0-0/w STRC(180)   r     1 LTS_

  ****  Section 024 LblCom MKCN

  ****  Scalars and arrays  ****
OctLoc.c.b A Datatyp(siz) R M Lvl/name                 OctLoc.c.b A Datatyp(siz) R M Lvl/name

     0-0-0/w STRC(72)    r     1 MKCN

  ****  Section 025 LblCom HEAP$

  ****  Scalars and arrays  ****
OctLoc.c.b A Datatyp(siz) R M Lvl/name                 OctLoc.c.b A Datatyp(siz) R M Lvl/name

     0-0-0/w PTR               1 HEAP$

  ****  Section 026 LblCom TEMP_LX_NODE
PL6.E3A0      #004=Z8ET$CREATE_SUBROUTINES File=Z8ET.:Z8A6TSI                    SAT 08/09/97 12:48 Page:436

  ****  Scalars and arrays  ****
OctLoc.c.b A Datatyp(siz) R M Lvl/name                 OctLoc.c.b A Datatyp(siz) R M Lvl/name

     0-0-0/d STRC(288)         1 TEMP_LX_NODE

  ****  Auto variables  ****

  ****  Scalars and arrays  ****
OctLoc.c.b A Datatyp(siz) R M Lvl/name                 OctLoc.c.b A Datatyp(siz) R M Lvl/name

   215-0-0/w PTR         r     1 @ADD_LIST$               207-0-0/w PTR         r     1 @CONTROL$$
   207-0-0/w PTR         r     1 @CONTROL$$               207-0-0/w PTR         r     1 @CONTROL$$
   207-0-0/w PTR         r     1 @CONTROL$$               207-0-0/w PTR         r     1 @CONTROL$$
   207-0-0/w PTR         r     1 @CONTROL$$               207-0-0/w PTR         r     1 @CONTROL$$
   207-0-0/w PTR         r     1 @CONTROL_LTS$            207-0-0/w PTR         r     1 @CURRENT$
   211-0-0/w PTR         r     1 @GROUP$                  211-0-0/w PTR         r     1 @GROUP$$
   211-0-0/w PTR         r     1 @GROUP$$                 207-0-0/w PTR         r     1 @GROUP$$
   215-0-0/w PTR         r     1 @ITEM$                     3-0-0/w PTR         r     1 @LTS$$
   216-0-0/w PTR         r     1 @SHADOW$                  *0-0-0/w PTR         r     1 ADD_LIST$
    15-0-0/w PTR         r     1 AFTER_AREA_ETT$           32-0-0/d STRC(288)   r     1 AFTER_FIELD
    31-0-0/w BIT         r     1 ALL_BIT                  216-0-0/w PTR         r     1 BIN_OP$
    12-0-0/w PTR         r     1 BUFFER_ETT$              226-0-0/w PTR         r     1 BUF_ST$
   222-0-0/w UBIN              1 BYTE_POS                 251-0-0/w PTR         r     1 CETT$$
    20-0-0/w PTR         r     1 CODE_ETT$                144-0-0/d STRC(288)   r     1 COMPARE
    11-0-0/w PTR         r     1 CONST_ETT$                *0-0-0/w PTR         r     1 CONTROL$$
    *0-0-0/w PTR         r     1 CONTROL$$                 *0-0-0/w PTR         r     1 CONTROL$$
    *0-0-0/w PTR         r     1 CONTROL$$                 *0-0-0/w PTR         r     1 CONTROL$$
    *0-0-0/w PTR         r     1 CONTROL$$                 *0-0-0/w PTR         r     1 CONTROL$$
    *0-0-0/w PTR         r     1 CONTROL_LTS$             211-0-0/w SBIN              1 CTR_FINAL_IND
   204-0-0/w PTR         r     1 CTR_LVL_ETT$             174-0-0/d STRC(288)   r     1 CTR_LVL_FIELD
   243-0-0/w SBIN        r     1 CTR_LVL_NO#               25-0-0/w PTR         r     1 CURRENT$
   212-0-0/w PTR         r     1 CURRENT$                  *0-0-0/w PTR         r     1 CURRENT$
    52-0-0/w PTR         r     1 DETAIL_GRP$              246-0-0/w PTR         r     1 END_LABEL$
   245-0-0/w PTR         r     1 END_LABEL$               211-0-0/w PTR         r     1 ETT$$
   244-0-0/w PTR         r     1 ETT$$                     54-0-0/d STRC(288)   r     1 ETT_ITEM
   220-0-0/d STRC(288)   r     1 ETT_ITEM                  27-0-0/w PTR         r     1 FILE_LTS$
PL6.E3A0      #004=Z8ET$CREATE_SUBROUTINES File=Z8ET.:Z8A6TSI                    SAT 08/09/97 12:48 Page:437
    *0-0-0/w PTR         r     1 GROUP$                    *0-0-0/w PTR         r     1 GROUP$$
    *0-0-0/w PTR         r     1 GROUP$$                   *0-0-0/w PTR         r     1 GROUP$$
     7-0-0/w SBIN        r     1 I                         21-0-0/w PTR         r     1 IND$$
    22-0-0/w PTR         r     1 IND_ETT$                 154-0-0/d STRC(288)   r     1 IND_FIELD
    *0-0-0/w PTR         r     1 ITEM$                    207-0-0/w PTR         r     1 LABEL$
   214-0-0/w PTR         r     1 LABEL$                   210-0-0/w PTR         r     1 LABEL$
   242-0-0/w PTR         r     1 LABEL$                   210-0-0/w PTR         r     1 LABEL$
   212-0-0/w PTR         r     1 LABEL$                   212-0-0/w PTR         r     1 LABEL$
   210-0-0/w PTR         r     1 LABEL$                   210-0-0/w PTR         r     1 LABEL$
   207-0-0/w PTR         r     1 LABEL$                     6-0-0/w SBIN        r     1 LAST_WORD_OFFSET
   210-0-0/w PTR         r     1 LBL$$(0:25)              212-0-0/w PTR         r     1 LBL$$(0:25)
    14-0-0/w PTR         r     1 LINE_COUNTER_ETT$         42-0-0/d STRC(288)   r     1 LINE_COUNTER_FIELD
   124-0-0/d STRC(288)   r     1 LINE_FIELD               217-0-0/w UBIN        r     1 LINE_NO#
   216-0-0/w SBIN        r     1 LINE_SPAN                 *0-0-0/w PTR         r     1 LTS$$
   211-0-0/w PTR         r     1 LX_ETT$                   24-0-0/w SBIN        r     1 MIN_REC_LEN
   210-0-0/w PTR         r     1 NAME$                    211-0-0/w PTR         r     1 NAME$
   210-0-0/w PTR         r     1 NAME$                    244-0-0/w PTR         r     1 NAME$$
   247-0-0/w PTR         r     1 NAME$$                   213-0-0/w PTR         r     1 NEXT$
   164-0-0/d STRC(288)   r     1 ONE_FIELD                 64-0-0/d STRC(288)   r     1 OP_NODE
    13-0-0/w PTR         r     1 PAGE_COUNTER_ETT$         26-0-0/w PTR         r     1 PHONY_LTS$
   215-0-0/w PTR         r     1 PREV$                    224-0-0/w PTR         r     1 QLT$$
    23-0-0/w SBIN        r     1 RECORD_LEN               114-0-0/d STRC(288)   r     1 RECORD_LENGTH
   211-0-0/w PTR               1 RECV$                     17-0-0/w PTR         r     1 RECV_ETT$
   104-0-0/d STRC(288)   r     1 RECV_FIELD               225-0-0/w PTR         r     1 RECV_ST$
     4-0-0/w UBIN        r     1 REPORT_CODE_NO             5-0-0/w SBIN        r     1 RWCT_LEN
    10-0-0/w SBIN        r     1 SA_ADJ                   210-0-0/w PTR               1 SEND$
    16-0-0/w PTR         r     1 SEND_ETT$                 74-0-0/d STRC(288)   r     1 SEND_FIELD
    *0-0-0/w PTR         r     1 SHADOW$                  220-0-0/w PTR         r     1 ST$$
   211-0-0/w PTR         r     1 ST$$                     210-0-0/w PTR               1 ST$$
   212-0-0/w PTR         r     1 ST$$                     246-0-0/w PTR         r     1 START_LABEL$
   221-0-0/w UBIN        r     1 ST_TYPE                  213-0-0/w PTR         r     1 SUM$$
   245-0-0/w SBIN        r     1 TARGET_NO#               250-0-0/w SBIN        r     1 TARGET_NO#
    30-0-0/w PTR         r     1 VAL_ST$                  223-0-0/w UBIN              1 WORD_POS
   134-0-0/d STRC(288)   r     1 ZERO

  ****  SYMREF variables  ****

PL6.E3A0      #004=Z8ET$CREATE_SUBROUTINES File=Z8ET.:Z8A6TSI                    SAT 08/09/97 12:48 Page:438
  ****  Scalars and arrays  ****
OctLoc.c.b A Datatyp(siz) R M Lvl/name                 OctLoc.c.b A Datatyp(siz) R M Lvl/name

     0-0-0/d STRC(13248) r     1 COMCOM
     0-0-0/w STRC(180)         1 HIER_STK(0:50)
     0-0-0/w SBIN              1 HIER_STK_PTR               0-0-0/w UBIN              1 ILL_STEP(0:144)
     0-0-0/w UBIN              1 ILS_STEP_TABLE(0:2)
     0-0-0/w UBIN              1 LTS_STEP(0:37)
     0-0-0/d STRC(11580) r     1 O1COM                      0-0-0/w STRC(144)         1 PAGE_FORMAT
     0-0-0/w STRC(153)         1 REP_STK(0:50)              0-0-0/w SBIN              1 REP_STK_PTR

  ****  BASED and DCB variables  ****

  ****  Scalars and arrays  ****
OctLoc.c.b A Datatyp(siz) R M Lvl/name                 OctLoc.c.b A Datatyp(siz) R M Lvl/name

     0-0-0/w STRC(108)         1 ACCEPT_DISPLAY             0-0-0/w STRC(288)         1 ADD_STMT
     0-0-0/w STRC(396)         1 ALPHABET                   0-0-0/w STRC(144)         1 ALTER_LTS
     0-0-0/w STRC(3672)        1 ALT_KEY                    0-0-0/w STRC(36864)       1 ARGLIST
     0-0-0/w STRC(396)         1 ARRAY                      0-0-0/w STRC(180)         1 ARRAY_PRESET_LTS
     0-0-0/w ASTR(324)   r     1 BASED_LEX_SYMBOL
     0-0-0/w STRC(360)         1 BASED_LEX_SYMBOL_WORDS
     0-0-0/w STRC(288)         1 BASE_LTS                   0-0-0/w STRC(108)   r     1 BINARY_ILL
     0-0-0/w STRC(288)   r     1 BINARY_OP                  0-0-0/w STRC(396)         1 BLOCK
     0-0-0/w STRC(144)         1 BRANCH_ILL                 0-0-0/w STRC(144)         1 BT
     0-0-0/w STRC(288)         1 CALL_STMT                  0-0-0/w STRC(216)         1 CCOSU
     0-0-0/w STRC(396)         1 CD                         0-0-0/w STRC(288)         1 CD_LTS
     0-0-0/w CHAR(4096)        1 CHARS                      0-0-0/w STRC(396)         1 CLASS
     0-0-0/w STRC(108)         1 CODED_MOVE                 0-0-0/w STRC(288)         1 COMPUTE_STMT
     0-0-0/w STRC(396)         1 CONDITION                  0-0-0/w STRC(396)   r     1 CONST
     0-0-0/w STRC(72)          1 CONT                       0-0-0/w STRC(540)   r     1 CONTROL_NAME_LTS
     0-0-0/w STRC(1872)        1 COPY_FILE                  0-0-0/w STRC(396)         1 DB
     0-0-0/w STRC(396)         1 DCB_                       0-0-0/w STRC(288)         1 DEFERED_IDENTIFIER
     0-0-0/w STRC(252)         1 DEFERED_ID_TREE            0-0-0/w STRC(288)         1 DEFERED_QUAL_ID
     0-0-0/w STRC(288)         1 DEFERED_SUM_CLAUSE
     0-0-0/w STRC(288)         1 DEFERED_SUM_CLAUSE_LIST
     0-0-0/w STRC(144)   r     1 DEFLB                      0-0-0/w STRC(288)         1 DELETE_STMT
PL6.E3A0      #004=Z8ET$CREATE_SUBROUTINES File=Z8ET.:Z8A6TSI                    SAT 08/09/97 12:48 Page:439
     0-0-0/w STRC(108)         1 DEPENDING_SIZE             0-0-0/w STRC(5472)        1 DIMS
     0-0-0/w STRC(288)         1 DIVIDE_STMT                0-0-0/w STRC(396)         1 DML_ITEM
     0-0-0/w STRC(216)         1 DML_REC                    0-0-0/w ASTR(180)   r     1 DNT
     0-0-0/w STRC(144)         1 DOEND                      0-0-0/w STRC(396)         1 DO_N
     0-0-0/w STRC(180)         1 DV4I                       0-0-0/w STRC(180)   r     1 ENTRY_ILL
     0-0-0/w STRC(180)   r     1 ETT                        0-0-0/w STRC(108)         1 EVALU
     0-0-0/w STRC(73836)       1 EVALUATE                   0-0-0/w STRC(396)         1 FD
     0-0-0/w STRC(1692)  r     1 FILE_LTS                   0-0-0/w STRC(144)   r     1 GO
     0-0-0/w STRC(180)         1 ILL                        0-0-0/w STRC              1 ILL_NO_OPS
     0-0-0/w STRC(180)         1 ILS                        0-0-0/w STRC(288)         1 ILS_LIST
     0-0-0/w STRC(108)         1 INDEXES                    0-0-0/w STRC(360)         1 INIT_LTS
     0-0-0/w STRC(288)         1 INSPECT_1_STMT             0-0-0/w STRC(288)         1 INSPECT_2_STMT
     0-0-0/w STRC(288)         1 INSPECT_4_STMT             0-0-0/w STRC(396)         1 INTDEF
     0-0-0/w STRC(180)         1 IO_RESTORE_CHAIN           0-0-0/w STRC(144)         1 KEY
     0-0-0/w STRC(396)   r     1 LABEL                      0-0-0/w STRC(288)         1 LA_ITEM
     0-0-0/w STRC(36864)       1 LCNST                      0-0-0/w STRC(108)         1 LINOI
     0-0-0/w STRC(72)    r     1 LONG                       0-0-0/w STRC        r     1 LTS
     0-0-0/w STRC(360)   r     1 LTSS                       0-0-0/w STRC(36936) r     1 LTS_PTR_ARRAY
     0-0-0/w STRC(504)         1 LX_CD_INPUT                0-0-0/w STRC(324)         1 LX_CD_I_O
     0-0-0/w STRC(396)         1 LX_CD_OUTPUT               0-0-0/w STRC(288)   r     1 LX_ETT_ITEM
     0-0-0/w STRC(288)   r     1 LX_ITEM                    0-0-0/w STRC(288)         1 LX_LARGE
     0-0-0/w STRC(288)         1 LX_LIST                    0-0-0/w STRC(1224)        1 LX_REC_DECL
     0-0-0/w STRC(864)         1 LX_REPORT_REC              0-0-0/w STRC(288)         1 LX_TERMINAL
     0-0-0/w STRC(72)          1 MFILL                      0-0-0/w STRC(396)         1 MNEMONIC
     0-0-0/w STRC(288)         1 MULTIPLY_STMT              0-0-0/w STRC(180)         1 MULTI_GO
     0-0-0/w STRC(180)         1 MVEAL                      0-0-0/w STRC(108)         1 MVFIL
     0-0-0/w STRC(72)          1 MVIIS                      0-0-0/w STRC(144)         1 NEL
     0-0-0/w STRC(216)         1 OPEN_LTS                   0-0-0/w STRC(144)         1 OPN
     0-0-0/w STRC(180)         1 OS_CALL                    0-0-0/w STRC(36864)       1 PAGE
     0-0-0/w STRC(396)         1 PARA                       0-0-0/w STRC(216)         1 PFORM
     0-0-0/w STRC(144)         1 PINC                       0-0-0/w STRC(144)   r     1 PREOFF
     0-0-0/w STRC(108)   r     1 PRESET                     0-0-0/w STRC(144)         1 PRIME
     0-0-0/w STRC(396)   r     1 PROC_                      0-0-0/w STRC(396)         1 PROC_DEF
     0-0-0/w STRC(900)         1 PROC_SUPP                  0-0-0/w STRC(144)   r     1 P_A_PRESET
     0-0-0/w STRC(144)         1 P_P_PRESET                 0-0-0/w STRC(216)   r     1 QLT
     0-0-0/w STRC(396)         1 RD                         0-0-0/w STRC(288)         1 READ_STMT
     0-0-0/w STRC(216)         1 REF                        0-0-0/w STRC(144)         1 REMEM
PL6.E3A0      #004=Z8ET$CREATE_SUBROUTINES File=Z8ET.:Z8A6TSI                    SAT 08/09/97 12:48 Page:440
     0-0-0/w STRC(108)         1 RENAMES                    0-0-0/w STRC(720)   r     1 REPORT_01_LTS
     0-0-0/w STRC(432)   r     1 REPORT_ELEM_LTS            0-0-0/w STRC(252)   r     1 REPORT_GRP_LTS
     0-0-0/w STRC(1332)  r     1 REPORT_LTS                 0-0-0/w STRC(288)         1 REWRITE_STMT
     0-0-0/w STRC(144)         1 RVA_LTS                    0-0-0/w STRC(396)   r     1 SCALAR
     0-0-0/w STRC(144)         1 SCOPE                      0-0-0/w STRC(396)         1 SD
     0-0-0/w STRC(216)         1 SEARCH_                    0-0-0/w STRC(396)         1 SECTION
     0-0-0/w STRC(396)         1 SEGMENT                    0-0-0/w STRC(360)         1 SEGMENT_LTS
     0-0-0/w STRC(396)   r     1 ST                         0-0-0/w STRC(288)         1 START_STMT
     0-0-0/w STRC(72)          1 STP2                       0-0-0/w STRC(252)         1 STRING_STMT
     0-0-0/w STRC(288)         1 SUBTRACT_STMT              0-0-0/w STRC(252)   r     1 SUM_LTS
     0-0-0/w STRC(396)         1 SWITCH                     0-0-0/w STRC(396)         1 SYMBOLIC_CHAR
     0-0-0/w STRC(396)         1 SYMDEF_                    0-0-0/w STRC(396)         1 SYMREF_
     0-0-0/w STRC(396)         1 TEMP                       0-0-0/w STRC(144)         1 TRINARY_ILL
     0-0-0/w STRC(72)          1 UNARY_ILL                  0-0-0/w STRC(288)         1 UNARY_OP
     0-0-0/w STRC(288)         1 UNSTRING_STMT              0-0-0/d STRC(612)         1 USE
     0-0-0/w STRC(216)         1 USER_CALL                  0-0-0/w STRC(252)         1 USE_SUPP
     0-0-0/w STRC(108)         1 VAL                        0-0-0/w STRC(108)         1 VAL_END
     0-0-0/w STRC(396)   r     1 VARIABLE                   0-0-0/w STRC(72)          1 WHEN
     0-0-0/w STRC(288)         1 WRITE_STMT


   Procedure Z8ET$CREATE_SUBROUTINES requires 3976 words for executable code.
   Procedure Z8ET$CREATE_SUBROUTINES requires 182 words of local(AUTO) storage.

