VERSION A06

PL6.E3A0      #001=Z8ET$PROCESS_TREE File=Z8ET.:Z8A6TSI                          SAT 08/09/97 12:41 Page:1
        1        1        /*T***********************************************************/
        2        2        /*T*                                                         */
        3        3        /*T* Copyright (c) Bull HN Information Systems Inc., 1997    */
        4        4        /*T*                                                         */
        5        5        /*T***********************************************************/
        6        6
        7        7        /*M*  Z8ET$PROCESS_TREE---Traverse the input LX tree */
        8        8
        9        9
       10       10        /*P*
       11       11               NAME:  Z8ET$PROCESS_TREE.
       12       12             AUTHOR:  Min Lee.
       13       13            PURPOSE:  Traverse the deferred ID tree to find the deferred ID
       14       14                      node and then process it.
       15       15        */
       16       16
       17       17        /*D*
       18       18               NAME:  Z8ET$PROCESS_TREE
       19       19
       20       20              INPUT:  Abstract Syntax Tree for the deferred identifier.
       21       21
       22       22             OUTPUT:  The ETT tree of the deferred identifier.
       23       23
       24       24        DESCRIPTION:  This routine call itself recursively to find the
       25       25                      %DEFERED_ID_TREE node then call Z8ET$PROCESS_DEFERED_ID
       26       26                      to create the ETT tree for that node.
       27       27                      The deferred ID tree were built up in Z8EM$SEMANTICS_DATA_DIV
       28       28                      and saved on O1COM.REPORT_SOURCE$ or O1COM.REPORT_SUM$
       29       29                      lists.  This routine is called by Z8ET$DEFERED_SUM_AND_SOURCE
       30       30                      only.
       31       31         */
       32       32         %EJECT;
PL6.E3A0      #001=Z8ET$PROCESS_TREE File=Z8ET.:Z8A6TSI                          SAT 08/09/97 12:41 Page:2
       33       33         Z8ET$PROCESS_TREE:  PROC (TREE$);
       34       34
       35       35
       36       36           %EQU  PHASE = 1;
       37       37           %INCLUDE Z8A_DEFC;
       38      105           %INCLUDE Z8A_SUPP_MAC;
       39     2505           %INCLUDE Z8E_STACKS;
       40     4771           %INCLUDE Z8A_ERR_NUMS;
       41     5535
       42     5536
       43     5537    1      DCL TREE$           PTR;
       44     5538    1      DCL TEMP$           PTR;
       45     5539    1      DCL Z8ED$DISPOSE_HEAP     ENTRY (2);
       46     5540    1      DCL Z8ET$PROCESS_DEFERED_ID  ENTRY (1);
       47     5541    1      DCL TAIL_IS_LARGE   BOOLEAN;
       48     5542    1      DCL Z8AE$ERROR      ENTRY (12);
       49     5543
       50     5544
       51     5545
       52     5546    1      IF TREE$ = ADDR(NIL) THEN
       53     5547    1        RETURN;
       54     5548
       55     5549    2      DO CASE (TREE$ -> LX_ITEM.ID);
       56     5550    2        CASE (%LX_TERMINAL);
       57     5551    2            CALL Z8ET$PROCESS_TREE (TREE$ -> LX_TERMINAL.LINK);
       58     5552
       59     5553    2        CASE (%LX_LARGE);
       60     5554    2            CALL Z8ET$PROCESS_TREE (TREE$ -> LX_LARGE.LARGE_ITEM$);
       61     5555    2            CALL Z8ET$PROCESS_TREE (TREE$ -> LX_LARGE.LINK);
       62     5556    2            TEMP$ = TREE$;
       63     5557    2            TREE$ = TEMP$ -> LX_LARGE.LARGE_ITEM$;
       64     5558    2            TREE$ -> LX_ITEM.LINK = TEMP$ -> LX_LARGE.LINK;
       65     5559    2            CALL Z8ED$DISPOSE_HEAP (TEMP$, %LENGTH_LX_ITEM);
       66     5560
       67     5561    2        CASE (%LX_LIST);
       68     5562    2            IF TREE$ -> LX_LIST.TAIL$ -> LX_ITEM.ID = %LX_LARGE THEN
       69     5563    2              TAIL_IS_LARGE = TRUE;
PL6.E3A0      #001=Z8ET$PROCESS_TREE File=Z8ET.:Z8A6TSI                          SAT 08/09/97 12:41 Page:3
       70     5564    2            ELSE
       71     5565    2              TAIL_IS_LARGE = FALSE;
       72     5566
       73     5567    2            CALL Z8ET$PROCESS_TREE (TREE$ -> LX_LIST.HEAD$);
       74     5568    2            IF TAIL_IS_LARGE THEN
       75     5569    2              TREE$ -> LX_LIST.TAIL$ = TREE$ -> LX_LIST.TAIL$ -> LX_LARGE.LARGE_ITEM$;
       76     5570    2            CALL Z8ET$PROCESS_TREE (TREE$ -> LX_LIST.LINK);
       77     5571
       78     5572    2        CASE (%BINARY_OP);
       79     5573    2            CALL Z8ET$PROCESS_TREE (TREE$ -> BINARY_OP.LOP$);
       80     5574    2            CALL Z8ET$PROCESS_TREE (TREE$ -> BINARY_OP.ROP$);
       81     5575    2            CALL Z8ET$PROCESS_TREE (TREE$ -> BINARY_OP.LINK);
       82     5576
       83     5577    2        CASE (%UNARY_OP);
       84     5578    2            CALL Z8ET$PROCESS_TREE (TREE$ -> UNARY_OP.LOP$);
       85     5579    2            CALL Z8ET$PROCESS_TREE (TREE$ -> UNARY_OP.LINK);
       86     5580
       87     5581    2        CASE (%DEFERED_ID_TREE);
       88     5582    2            CALL Z8ET$PROCESS_TREE (TREE$ -> DEFERED_ID_TREE.SUB$);
       89     5583    2            CALL Z8ET$PROCESS_TREE (TREE$ -> DEFERED_ID_TREE.REF$);
       90     5584    2            CALL Z8ET$PROCESS_DEFERED_ID (TREE$);
       91     5585
       92     5586    2        CASE (ELSE);
       93     5587    2            CALL Z8AE$ERROR (%E$UNEXPECTED_CASE);
       94     5588
       95     5589    2      END;  /* case */
       96     5590
       97     5591    1      RETURN;
       98     5592    1    END Z8ET$PROCESS_TREE;
       99     5593
      100     5594        %EOD;

PL6.E3A0      #001=Z8ET$PROCESS_TREE File=Z8ET.:Z8A6TSI                          SAT 08/09/97 12:41 Page:4
--  Include file information  --

   Z8A_ERR_NUMS.:Z8A6TOU  is referenced.
   Z8A_LEX_SYMB.:Z8A6TOU  cannot be made into a system file and is referenced.
   Z8E_STACKS.:Z8A6TOU  cannot be made into a system file and is referenced.
   X8A_COM_MACS.:X8A6TOU  is referenced.
   Z8A_NAMES.:Z8A6TOU  is referenced.
   Z8A_SUPP_MAC.:Z8A6TOU  is referenced.
   Z8A_DEFC.:Z8A6TOU  cannot be made into a system file and is referenced.
      No diagnostics issued in procedure Z8ET$PROCESS_TREE.

   Procedure Z8ET$PROCESS_TREE requires 172 words for executable code.
   Procedure Z8ET$PROCESS_TREE requires 8 words of local(AUTO) storage.

PL6.E3A0      #001=Z8ET$PROCESS_TREE File=Z8ET.:Z8A6TSI                          SAT 08/09/97 12:41 Page:5

 Object Unit name= Z8ET$PROCESS_TREE                          File name= Z8ET.:Z8A6TOU
 UTS= AUG 09 '97 12:41:40.88 SAT                              Compiler= PL-6/E31         Sev=      00
 SharedLib= :SHARED_SYSTEM                                    Alt SharedLib=


    ****  Control sections  ****

 Sect   Type Bound  Init  Size OctSiz  Section name(segment info)
    0  LblCom even  none     1      1  ITERATION
    1  LblCom even  none    90    132  LEX_SYMBOL
    2  LblCom even  none     1      1  CURRENT_LEX_SYMBOL$
    3  LblCom even  none    90    132  TEMP_LEX_SYMBOL
    4  LblCom even  none    90    132  TEMP_LEX_SYMBOL2
    5   Proc  even  none   172    254  Z8ET$PROCESS_TREE
    6  RoData even  none     7      7  Z8ET$PROCESS_TREE

    ****  Entry defs  ****

                              Check   Calling
                             calling  sequence
  Sect OctLoc Primary Altret sequence   type   Parms  Name
     5      0   yes            yes      Std        1  Z8ET$PROCESS_TREE

  ****  Entry refs  ****

         Check        Calling
        calling       sequence
Altret sequence SRef   type   Args  Name
         yes           Std       2 Z8ED$DISPOSE_HEAP
         yes           Std       1 Z8ET$PROCESS_DEFERED_ID
         yes           Std      12 Z8AE$ERROR
                       nStd      0 X66_AUTO_1
                       nStd      0 X66_ARET
PL6.E3A0      #001=Z8ET$PROCESS_TREE File=Z8ET.:Z8A6TSI                          SAT 08/09/97 12:41 Page:6

  ****  Segment refs  ****

  Flags:  r = read only, s = secondary
Flgs Name                             Flgs Name                             Flgs Name
     ISSID                                 NULLSID
PL6.E3A0      #001=Z8ET$PROCESS_TREE File=Z8ET.:Z8A6TSI                          SAT 08/09/97 12:41 Page:7


        1        1        /*T***********************************************************/
        2        2        /*T*                                                         */
        3        3        /*T* Copyright (c) Bull HN Information Systems Inc., 1997    */
        4        4        /*T*                                                         */
        5        5        /*T***********************************************************/
        6        6
        7        7        /*M*  Z8ET$PROCESS_TREE---Traverse the input LX tree */
        8        8
        9        9
       10       10        /*P*
       11       11               NAME:  Z8ET$PROCESS_TREE.
       12       12             AUTHOR:  Min Lee.
       13       13            PURPOSE:  Traverse the deferred ID tree to find the deferred ID
       14       14                      node and then process it.
       15       15        */
       16       16
       17       17        /*D*
       18       18               NAME:  Z8ET$PROCESS_TREE
       19       19
       20       20              INPUT:  Abstract Syntax Tree for the deferred identifier.
       21       21
       22       22             OUTPUT:  The ETT tree of the deferred identifier.
       23       23
       24       24        DESCRIPTION:  This routine call itself recursively to find the
       25       25                      %DEFERED_ID_TREE node then call Z8ET$PROCESS_DEFERED_ID
       26       26                      to create the ETT tree for that node.
       27       27                      The deferred ID tree were built up in Z8EM$SEMANTICS_DATA_DIV
       28       28                      and saved on O1COM.REPORT_SOURCE$ or O1COM.REPORT_SUM$
       29       29                      lists.  This routine is called by Z8ET$DEFERED_SUM_AND_SOURCE
       30       30                      only.
       31       31         */
       32       32         %EJECT;
PL6.E3A0      #001=Z8ET$PROCESS_TREE File=Z8ET.:Z8A6TSI                          SAT 08/09/97 12:41 Page:8
       33       33         Z8ET$PROCESS_TREE:  PROC (TREE$);

     33  5 000000   000000 700200 xent  Z8ET$PROCES* TSX0  ! X66_AUTO_1
         5 000001   000010 000001                    ZERO    8,1

       34       34
       35       35
       36       36           %EQU  PHASE = 1;
       37       37           %INCLUDE Z8A_DEFC;
       38      105           %INCLUDE Z8A_SUPP_MAC;
       39     2505           %INCLUDE Z8E_STACKS;
       40     4771           %INCLUDE Z8A_ERR_NUMS;
       41     5535
       42     5536
       43     5537    1      DCL TREE$           PTR;
       44     5538    1      DCL TEMP$           PTR;
       45     5539    1      DCL Z8ED$DISPOSE_HEAP     ENTRY (2);
       46     5540    1      DCL Z8ET$PROCESS_DEFERED_ID  ENTRY (1);
       47     5541    1      DCL TAIL_IS_LARGE   BOOLEAN;
       48     5542    1      DCL Z8AE$ERROR      ENTRY (12);
       49     5543
       50     5544
       51     5545
       52     5546    1      IF TREE$ = ADDR(NIL) THEN

   5546  5 000002   200003 470500                    LDP0    @TREE$,,AUTO
         5 000003   000000 236100                    LDQ     0,,PR0
         5 000004   000000 116000 6                  CMPQ    0
         5 000005   000007 601000 5                  TNZ     s:5549

       53     5547    1        RETURN;

   5547  5 000006   000000 702200 xent               TSX2  ! X66_ARET

       54     5548
       55     5549    2      DO CASE (TREE$ -> LX_ITEM.ID);

PL6.E3A0      #001=Z8ET$PROCESS_TREE File=Z8ET.:Z8A6TSI                          SAT 08/09/97 12:41 Page:9
   5549  5 000007   000000 471500                    LDP1    0,,PR0
         5 000010   100000 220100                    LDX0    0,,PR1
         5 000011   000034 100003                    CMPX0   28,DU
         5 000012   000014 602010 5                  TNC     s:5549+5,X0
         5 000013   000247 710000 5                  TRA     s:5587
         5 000014   000050 710000 5                  TRA     s:5551
         5 000015   000057 710000 5                  TRA     s:5554
         5 000016   000120 710000 5                  TRA     s:5562
         5 000017   000247 710000 5                  TRA     s:5587
         5 000020   000247 710000 5                  TRA     s:5587
         5 000021   000156 710000 5                  TRA     s:5573
         5 000022   000205 710000 5                  TRA     s:5578
         5 000023   000247 710000 5                  TRA     s:5587
         5 000024   000247 710000 5                  TRA     s:5587
         5 000025   000247 710000 5                  TRA     s:5587
         5 000026   000247 710000 5                  TRA     s:5587
         5 000027   000247 710000 5                  TRA     s:5587
         5 000030   000247 710000 5                  TRA     s:5587
         5 000031   000247 710000 5                  TRA     s:5587
         5 000032   000247 710000 5                  TRA     s:5587
         5 000033   000247 710000 5                  TRA     s:5587
         5 000034   000247 710000 5                  TRA     s:5587
         5 000035   000247 710000 5                  TRA     s:5587
         5 000036   000247 710000 5                  TRA     s:5587
         5 000037   000247 710000 5                  TRA     s:5587
         5 000040   000247 710000 5                  TRA     s:5587
         5 000041   000247 710000 5                  TRA     s:5587
         5 000042   000247 710000 5                  TRA     s:5587
         5 000043   000247 710000 5                  TRA     s:5587
         5 000044   000247 710000 5                  TRA     s:5587
         5 000045   000247 710000 5                  TRA     s:5587
         5 000046   000247 710000 5                  TRA     s:5587
         5 000047   000224 710000 5                  TRA     s:5582

       56     5550    2        CASE (%LX_TERMINAL);

       57     5551    2            CALL Z8ET$PROCESS_TREE (TREE$ -> LX_TERMINAL.LINK);
PL6.E3A0      #001=Z8ET$PROCESS_TREE File=Z8ET.:Z8A6TSI                          SAT 08/09/97 12:41 Page:10

   5551  5 000050   100007 633500                    EPPR3   7,,PR1
         5 000051   200006 453500                    STP3    TAIL_IS_LARGE+1,,AUTO
         5 000052   200006 630500                    EPPR0   TAIL_IS_LARGE+1,,AUTO
         5 000053   000001 631400 6                  EPPR1   1
         5 000054   000000 701000 5                  TSX1    s:33
         5 000055   000000 011000                    NOP     0
         5 000056   000253 710000 5                  TRA     s:5591

       58     5552
       59     5553    2        CASE (%LX_LARGE);

       60     5554    2            CALL Z8ET$PROCESS_TREE (TREE$ -> LX_LARGE.LARGE_ITEM$);

   5554  5 000057   100001 633500                    EPPR3   1,,PR1
         5 000060   200006 453500                    STP3    TAIL_IS_LARGE+1,,AUTO
         5 000061   200006 630500                    EPPR0   TAIL_IS_LARGE+1,,AUTO
         5 000062   000001 631400 6                  EPPR1   1
         5 000063   000000 701000 5                  TSX1    s:33
         5 000064   000000 011000                    NOP     0

       61     5555    2            CALL Z8ET$PROCESS_TREE (TREE$ -> LX_LARGE.LINK);

   5555  5 000065   200003 470500                    LDP0    @TREE$,,AUTO
         5 000066   000000 471500                    LDP1    0,,PR0
         5 000067   100007 633500                    EPPR3   7,,PR1
         5 000070   200006 453500                    STP3    TAIL_IS_LARGE+1,,AUTO
         5 000071   200006 630500                    EPPR0   TAIL_IS_LARGE+1,,AUTO
         5 000072   000001 631400 6                  EPPR1   1
         5 000073   000000 701000 5                  TSX1    s:33
         5 000074   000000 011000                    NOP     0

       62     5556    2            TEMP$ = TREE$;

   5556  5 000075   200003 470500                    LDP0    @TREE$,,AUTO
         5 000076   000000 236100                    LDQ     0,,PR0
         5 000077   200004 756100                    STQ     TEMP$,,AUTO
PL6.E3A0      #001=Z8ET$PROCESS_TREE File=Z8ET.:Z8A6TSI                          SAT 08/09/97 12:41 Page:11

       63     5557    2            TREE$ = TEMP$ -> LX_LARGE.LARGE_ITEM$;

   5557  5 000100   200004 471500                    LDP1    TEMP$,,AUTO
         5 000101   100001 236100                    LDQ     1,,PR1
         5 000102   000000 756100                    STQ     0,,PR0

       64     5558    2            TREE$ -> LX_ITEM.LINK = TEMP$ -> LX_LARGE.LINK;

   5558  5 000103   000000 471500                    LDP1    0,,PR0
         5 000104   200004 473500                    LDP3    TEMP$,,AUTO
         5 000105   300007 236100                    LDQ     7,,PR3
         5 000106   100007 756100                    STQ     7,,PR1

       65     5559    2            CALL Z8ED$DISPOSE_HEAP (TEMP$, %LENGTH_LX_ITEM);

   5559  5 000107   000004 236000 6                  LDQ     4
         5 000110   200007 756100                    STQ     TAIL_IS_LARGE+2,,AUTO
         5 000111   200004 631500                    EPPR1   TEMP$,,AUTO
         5 000112   200006 451500                    STP1    TAIL_IS_LARGE+1,,AUTO
         5 000113   200006 630500                    EPPR0   TAIL_IS_LARGE+1,,AUTO
         5 000114   000002 631400 6                  EPPR1   2
         5 000115   000000 701000 xent               TSX1    Z8ED$DISPOSE_HEAP
         5 000116   000000 011000                    NOP     0
         5 000117   000253 710000 5                  TRA     s:5591

       66     5560
       67     5561    2        CASE (%LX_LIST);

       68     5562    2            IF TREE$ -> LX_LIST.TAIL$ -> LX_ITEM.ID = %LX_LARGE THEN

   5562  5 000120   100001 473500                    LDP3    1,,PR1
         5 000121   300000 221100                    LDX1    0,,PR3
         5 000122   000001 101003                    CMPX1   1,DU
         5 000123   000127 601000 5                  TNZ     s:5565

       69     5563    2              TAIL_IS_LARGE = TRUE;
PL6.E3A0      #001=Z8ET$PROCESS_TREE File=Z8ET.:Z8A6TSI                          SAT 08/09/97 12:41 Page:12

   5563  5 000124   400000 236003                    LDQ     -131072,DU
         5 000125   200005 756100                    STQ     TAIL_IS_LARGE,,AUTO
         5 000126   000130 710000 5                  TRA     s:5567

       70     5564    2            ELSE
       71     5565    2              TAIL_IS_LARGE = FALSE;

   5565  5 000127   200005 450100                    STZ     TAIL_IS_LARGE,,AUTO

       72     5566
       73     5567    2            CALL Z8ET$PROCESS_TREE (TREE$ -> LX_LIST.HEAD$);

   5567  5 000130   100004 634500                    EPPR4   4,,PR1
         5 000131   200006 454500                    STP4    TAIL_IS_LARGE+1,,AUTO
         5 000132   200006 630500                    EPPR0   TAIL_IS_LARGE+1,,AUTO
         5 000133   000001 631400 6                  EPPR1   1
         5 000134   000000 701000 5                  TSX1    s:33
         5 000135   000000 011000                    NOP     0

       74     5568    2            IF TAIL_IS_LARGE THEN

   5568  5 000136   200005 234100                    SZN     TAIL_IS_LARGE,,AUTO
         5 000137   000145 605000 5                  TPL     s:5570

       75     5569    2              TREE$ -> LX_LIST.TAIL$ = TREE$ -> LX_LIST.TAIL$ -> LX_LARGE.LARGE_ITEM$;

   5569  5 000140   200003 470500                    LDP0    @TREE$,,AUTO
         5 000141   000000 471500                    LDP1    0,,PR0
         5 000142   100001 473500                    LDP3    1,,PR1
         5 000143   300001 236100                    LDQ     1,,PR3
         5 000144   100001 756100                    STQ     1,,PR1

       76     5570    2            CALL Z8ET$PROCESS_TREE (TREE$ -> LX_LIST.LINK);

   5570  5 000145   200003 470500                    LDP0    @TREE$,,AUTO
         5 000146   000000 471500                    LDP1    0,,PR0
PL6.E3A0      #001=Z8ET$PROCESS_TREE File=Z8ET.:Z8A6TSI                          SAT 08/09/97 12:41 Page:13
         5 000147   100007 633500                    EPPR3   7,,PR1
         5 000150   200006 453500                    STP3    TAIL_IS_LARGE+1,,AUTO
         5 000151   200006 630500                    EPPR0   TAIL_IS_LARGE+1,,AUTO
         5 000152   000001 631400 6                  EPPR1   1
         5 000153   000000 701000 5                  TSX1    s:33
         5 000154   000000 011000                    NOP     0
         5 000155   000253 710000 5                  TRA     s:5591

       77     5571
       78     5572    2        CASE (%BINARY_OP);

       79     5573    2            CALL Z8ET$PROCESS_TREE (TREE$ -> BINARY_OP.LOP$);

   5573  5 000156   100001 633500                    EPPR3   1,,PR1
         5 000157   200006 453500                    STP3    TAIL_IS_LARGE+1,,AUTO
         5 000160   200006 630500                    EPPR0   TAIL_IS_LARGE+1,,AUTO
         5 000161   000001 631400 6                  EPPR1   1
         5 000162   000000 701000 5                  TSX1    s:33
         5 000163   000000 011000                    NOP     0

       80     5574    2            CALL Z8ET$PROCESS_TREE (TREE$ -> BINARY_OP.ROP$);

   5574  5 000164   200003 470500                    LDP0    @TREE$,,AUTO
         5 000165   000000 471500                    LDP1    0,,PR0
         5 000166   100002 633500                    EPPR3   2,,PR1
         5 000167   200006 453500                    STP3    TAIL_IS_LARGE+1,,AUTO
         5 000170   200006 630500                    EPPR0   TAIL_IS_LARGE+1,,AUTO
         5 000171   000001 631400 6                  EPPR1   1
         5 000172   000000 701000 5                  TSX1    s:33
         5 000173   000000 011000                    NOP     0

       81     5575    2            CALL Z8ET$PROCESS_TREE (TREE$ -> BINARY_OP.LINK);

   5575  5 000174   200003 470500                    LDP0    @TREE$,,AUTO
         5 000175   000000 471500                    LDP1    0,,PR0
         5 000176   100007 633500                    EPPR3   7,,PR1
         5 000177   200006 453500                    STP3    TAIL_IS_LARGE+1,,AUTO
PL6.E3A0      #001=Z8ET$PROCESS_TREE File=Z8ET.:Z8A6TSI                          SAT 08/09/97 12:41 Page:14
         5 000200   200006 630500                    EPPR0   TAIL_IS_LARGE+1,,AUTO
         5 000201   000001 631400 6                  EPPR1   1
         5 000202   000000 701000 5                  TSX1    s:33
         5 000203   000000 011000                    NOP     0
         5 000204   000253 710000 5                  TRA     s:5591

       82     5576
       83     5577    2        CASE (%UNARY_OP);

       84     5578    2            CALL Z8ET$PROCESS_TREE (TREE$ -> UNARY_OP.LOP$);

   5578  5 000205   100001 633500                    EPPR3   1,,PR1
         5 000206   200006 453500                    STP3    TAIL_IS_LARGE+1,,AUTO
         5 000207   200006 630500                    EPPR0   TAIL_IS_LARGE+1,,AUTO
         5 000210   000001 631400 6                  EPPR1   1
         5 000211   000000 701000 5                  TSX1    s:33
         5 000212   000000 011000                    NOP     0

       85     5579    2            CALL Z8ET$PROCESS_TREE (TREE$ -> UNARY_OP.LINK);

   5579  5 000213   200003 470500                    LDP0    @TREE$,,AUTO
         5 000214   000000 471500                    LDP1    0,,PR0
         5 000215   100007 633500                    EPPR3   7,,PR1
         5 000216   200006 453500                    STP3    TAIL_IS_LARGE+1,,AUTO
         5 000217   200006 630500                    EPPR0   TAIL_IS_LARGE+1,,AUTO
         5 000220   000001 631400 6                  EPPR1   1
         5 000221   000000 701000 5                  TSX1    s:33
         5 000222   000000 011000                    NOP     0
         5 000223   000253 710000 5                  TRA     s:5591

       86     5580
       87     5581    2        CASE (%DEFERED_ID_TREE);

       88     5582    2            CALL Z8ET$PROCESS_TREE (TREE$ -> DEFERED_ID_TREE.SUB$);

   5582  5 000224   100002 633500                    EPPR3   2,,PR1
         5 000225   200006 453500                    STP3    TAIL_IS_LARGE+1,,AUTO
PL6.E3A0      #001=Z8ET$PROCESS_TREE File=Z8ET.:Z8A6TSI                          SAT 08/09/97 12:41 Page:15
         5 000226   200006 630500                    EPPR0   TAIL_IS_LARGE+1,,AUTO
         5 000227   000001 631400 6                  EPPR1   1
         5 000230   000000 701000 5                  TSX1    s:33
         5 000231   000000 011000                    NOP     0

       89     5583    2            CALL Z8ET$PROCESS_TREE (TREE$ -> DEFERED_ID_TREE.REF$);

   5583  5 000232   200003 470500                    LDP0    @TREE$,,AUTO
         5 000233   000000 471500                    LDP1    0,,PR0
         5 000234   100003 633500                    EPPR3   3,,PR1
         5 000235   200006 453500                    STP3    TAIL_IS_LARGE+1,,AUTO
         5 000236   200006 630500                    EPPR0   TAIL_IS_LARGE+1,,AUTO
         5 000237   000001 631400 6                  EPPR1   1
         5 000240   000000 701000 5                  TSX1    s:33
         5 000241   000000 011000                    NOP     0

       90     5584    2            CALL Z8ET$PROCESS_DEFERED_ID (TREE$);

   5584  5 000242   200003 630500                    EPPR0   @TREE$,,AUTO
         5 000243   000001 631400 6                  EPPR1   1
         5 000244   000000 701000 xent               TSX1    Z8ET$PROCESS_DEFERED_ID
         5 000245   000000 011000                    NOP     0
         5 000246   000253 710000 5                  TRA     s:5591

       91     5585
       92     5586    2        CASE (ELSE);

       93     5587    2            CALL Z8AE$ERROR (%E$UNEXPECTED_CASE);

   5587  5 000247   000006 630400 6                  EPPR0   6
         5 000250   000001 631400 6                  EPPR1   1
         5 000251   000000 701000 xent               TSX1    Z8AE$ERROR
         5 000252   000000 011000                    NOP     0

       94     5588
       95     5589    2      END;  /* case */

PL6.E3A0      #001=Z8ET$PROCESS_TREE File=Z8ET.:Z8A6TSI                          SAT 08/09/97 12:41 Page:16
       96     5590
       97     5591    1      RETURN;

   5591  5 000253   000000 702200 xent               TSX2  ! X66_ARET
       98     5592    1    END Z8ET$PROCESS_TREE;
       99     5593
      100     5594        %EOD;

PL6.E3A0      #001=Z8ET$PROCESS_TREE File=Z8ET.:Z8A6TSI                          SAT 08/09/97 12:41 Page:17
--  Include file information  --

   Z8A_ERR_NUMS.:Z8A6TOU  is referenced.
   Z8A_LEX_SYMB.:Z8A6TOU  cannot be made into a system file and is referenced.
   Z8E_STACKS.:Z8A6TOU  cannot be made into a system file and is referenced.
   X8A_COM_MACS.:X8A6TOU  is referenced.
   Z8A_NAMES.:Z8A6TOU  is referenced.
   Z8A_SUPP_MAC.:Z8A6TOU  is referenced.
   Z8A_DEFC.:Z8A6TOU  cannot be made into a system file and is referenced.
      No diagnostics issued in procedure Z8ET$PROCESS_TREE.
PL6.E3A0      #001=Z8ET$PROCESS_TREE File=Z8ET.:Z8A6TSI                          SAT 08/09/97 12:41 Page:18

 **** Variables and constants ****

  ****  Section 000 LblCom ITERATION

  ****  Scalars and arrays  ****
OctLoc.c.b A Datatyp(siz) R M Lvl/name                 OctLoc.c.b A Datatyp(siz) R M Lvl/name

     0-0-0/w SBIN              1 ITERATION

  ****  Section 001 LblCom LEX_SYMBOL

  ****  Scalars and arrays  ****
OctLoc.c.b A Datatyp(siz) R M Lvl/name                 OctLoc.c.b A Datatyp(siz) R M Lvl/name

     0-0-0/w STRC(3240)  r     1 LEX_SYMBOL                 0-0-0/w STRC(3240)        1 LEX_SYMBOL_WORDS

  ****  Section 002 LblCom CURRENT_LEX_SYMBOL$

  ****  Scalars and arrays  ****
OctLoc.c.b A Datatyp(siz) R M Lvl/name                 OctLoc.c.b A Datatyp(siz) R M Lvl/name

     0-0-0/w PTR         r     1 CURRENT_LEX_SYMBOL$

  ****  Section 003 LblCom TEMP_LEX_SYMBOL

  ****  Scalars and arrays  ****
OctLoc.c.b A Datatyp(siz) R M Lvl/name                 OctLoc.c.b A Datatyp(siz) R M Lvl/name

     0-0-0/w STRC(3240)        1 TEMP_LEX_SYMBOL

  ****  Section 004 LblCom TEMP_LEX_SYMBOL2

  ****  Scalars and arrays  ****
OctLoc.c.b A Datatyp(siz) R M Lvl/name                 OctLoc.c.b A Datatyp(siz) R M Lvl/name

     0-0-0/w STRC(3240)        1 TEMP_LEX_SYMBOL2

PL6.E3A0      #001=Z8ET$PROCESS_TREE File=Z8ET.:Z8A6TSI                          SAT 08/09/97 12:41 Page:19
  ****  Auto variables  ****

  ****  Scalars and arrays  ****
OctLoc.c.b A Datatyp(siz) R M Lvl/name                 OctLoc.c.b A Datatyp(siz) R M Lvl/name

     3-0-0/w PTR         r     1 @TREE$                     5-0-0/b BIT         r     1 TAIL_IS_LARGE
     4-0-0/w PTR         r     1 TEMP$                     *0-0-0/w PTR         r     1 TREE$

  ****  BASED and DCB variables  ****

  ****  Scalars and arrays  ****
OctLoc.c.b A Datatyp(siz) R M Lvl/name                 OctLoc.c.b A Datatyp(siz) R M Lvl/name

     0-0-0/w STRC(288)         1 ADD_STMT                   0-0-0/w ASTR(324)   r     1 BASED_LEX_SYMBOL
     0-0-0/w STRC(360)         1 BASED_LEX_SYMBOL_WORDS
     0-0-0/w STRC(288)   r     1 BINARY_OP                  0-0-0/w STRC(288)         1 CALL_STMT
     0-0-0/w CHAR(4096)        1 CHARS                      0-0-0/w STRC(288)         1 COMPUTE_STMT
     0-0-0/w STRC(72)          1 CONT                       0-0-0/w STRC(288)         1 DEFERED_IDENTIFIER
     0-0-0/w STRC(252)   r     1 DEFERED_ID_TREE            0-0-0/w STRC(288)         1 DEFERED_QUAL_ID
     0-0-0/w STRC(288)         1 DEFERED_SUM_CLAUSE
     0-0-0/w STRC(288)         1 DEFERED_SUM_CLAUSE_LIST
     0-0-0/w STRC(288)         1 DELETE_STMT                0-0-0/w STRC(288)         1 DIVIDE_STMT
     0-0-0/w STRC(288)         1 ILS_LIST                   0-0-0/w STRC(288)         1 INSPECT_1_STMT
     0-0-0/w STRC(288)         1 INSPECT_2_STMT             0-0-0/w STRC(288)         1 INSPECT_4_STMT
     0-0-0/w STRC(288)         1 LA_ITEM                    0-0-0/w STRC(504)         1 LX_CD_INPUT
     0-0-0/w STRC(324)         1 LX_CD_I_O                  0-0-0/w STRC(396)         1 LX_CD_OUTPUT
     0-0-0/w STRC(288)         1 LX_ETT_ITEM                0-0-0/w STRC(288)   r     1 LX_ITEM
     0-0-0/w STRC(288)   r     1 LX_LARGE                   0-0-0/w STRC(288)   r     1 LX_LIST
     0-0-0/w STRC(1224)        1 LX_REC_DECL                0-0-0/w STRC(864)         1 LX_REPORT_REC
     0-0-0/w STRC(288)   r     1 LX_TERMINAL                0-0-0/w STRC(288)         1 MULTIPLY_STMT
     0-0-0/w STRC(36864)       1 PAGE                       0-0-0/w STRC(288)         1 READ_STMT
     0-0-0/w STRC(288)         1 REWRITE_STMT               0-0-0/w STRC(288)         1 START_STMT
     0-0-0/w STRC(252)         1 STRING_STMT                0-0-0/w STRC(288)         1 SUBTRACT_STMT
     0-0-0/w STRC(288)   r     1 UNARY_OP                   0-0-0/w STRC(288)         1 UNSTRING_STMT
     0-0-0/w STRC(288)         1 WRITE_STMT

PL6.E3A0      #001=Z8ET$PROCESS_TREE File=Z8ET.:Z8A6TSI                          SAT 08/09/97 12:41 Page:20

   Procedure Z8ET$PROCESS_TREE requires 172 words for executable code.
   Procedure Z8ET$PROCESS_TREE requires 8 words of local(AUTO) storage.

PL6.E3A0      #002=Z8ET$PROCESS_DEFERED_ID File=Z8ET.:Z8A6TSI                    SAT 08/09/97 12:42 Page:21
      101        1        /*T***********************************************************/
      102        2        /*T*                                                         */
      103        3        /*T* Copyright (c) Bull HN Information Systems Inc., 1997    */
      104        4        /*T*                                                         */
      105        5        /*T***********************************************************/
      106        6
      107        7        /*M*  Z8ET$PROCESS_DEFERED_ID---Create ETT tree for the identifier*/
      108        8
      109        9
      110       10        /*P*
      111       11               NAME:  Z8ET$PROCESS_DEFERED_ID
      112       12             AUTHOR:  Min Lee.
      113       13            PURPOSE:  Creates the ETT tree for the identifier syntax tree.
      114       14
      115       15        */
      116       16
      117       17        /*D*
      118       18               NAME:  Z8ET$PROCESS_DEFERED_ID
      119       19               CALL:  CALL Z8ET$PROCESS_DEFERED_ID (DEFERED_ID).
      120       20              INPUT:  Abstract Syntax Tree for the deferred identifier.
      121       21
      122       22             OUTPUT:  The ETT tree of the deferred identifier.
      123       23
      124       24        DESCRIPTION:  The action no# for that defered id tree is checked and
      125       25                      an identifier item is created with the correct triads
      126       26                      above it. Z8EY$SUBSCRIPT will be called to process the
      127       27                      subscripts and the Z8EY$SUBSTR will be called to process
      128       28                      the reference modifications.
      129       29                      This routine is called by Z8ET$PROCESS_TREE only.
      130       30         */
      131       31         %EJECT;
PL6.E3A0      #002=Z8ET$PROCESS_DEFERED_ID File=Z8ET.:Z8A6TSI                    SAT 08/09/97 12:42 Page:22
      132       32          Z8ET$PROCESS_DEFERED_ID:  PROC (DEFERED_ID$);
      133       33
      134       34
      135       35            %EQU PHASE =1;
      136       36            %INCLUDE Z8A_DEFC;
      137      104            %INCLUDE Z8A_SUPP_MAC;
      138     2504            %INCLUDE Z8A_COMCOM;
      139     3154            %INCLUDE Z8E_STACKS;
      140     5420            %INCLUDE Z8E_O1COM;
      141     6181            %INCLUDE Z8A_ERR_NUMS;
      142     6945            %INCLUDE Z8A_DNT;
      143     7166            %INCLUDE Z8A_LTS;
      144     9243            %INCLUDE Z8A_ST;
      145    12902            %INCLUDE Z8A_ETT;
      146    13203            %INCLUDE Z8A_XREF;
      147    13275            %INCLUDE Z8E_ABSSYN;
      148    13481            %INCLUDE Z8E_HEAP;
      149    13537            %INCLUDE Z8E_MACROS;
      150    14212            %INCLUDE Z8A_TYPES;
      151    14386
      152    14387
      153    14388
      154    14389    1       DCL DEFERED_ID$        PTR;
      155    14390    1       DCL ID$$               PTR;
      156    14391    1       DCL Z8AE$ERROR         ENTRY (12);
      157    14392    1       DCL Z8ED$DISPOSE_ABSSYN_TREE  ENTRY (1);
      158    14393    1       DCL Z8EY$SUBSCRIPT     ENTRY (2);
      159    14394    1       DCL Z8EY$SUBSTR        ENTRY (4);
      160    14395    1       DCL Z8AF$NEW_BASE      ENTRY (3);
      161    14396    1       DCL Z8CO$QUALIFY_VARIABLE   ENTRY (2) ALTRET;
      162    14397    1       DCL Z8AC$LX_ETT_ITEM_TYI_CONST ENTRY(2);
      163    14398         %EJECT;
PL6.E3A0      #002=Z8ET$PROCESS_DEFERED_ID File=Z8ET.:Z8A6TSI                    SAT 08/09/97 12:42 Page:23
      164    14399        /*-----------------*/
      165    14400    1     CREATE_IDENTIFIER: PROC (QUAL_ID$, IDENT$) ;
      166    14401        /*-----------------*/
      167    14402
      168    14403        /*I*
      169    14404               NAME:  CREATE_IDENTIFIER
      170    14405               CALL:  CALL CREATE_IDENTIFIER(QUAL_ID$, IDENT$) ;
      171    14406
      172    14407              INPUT:  QUAL_ID$ - Pointer to the the head entry of the qualified identifier.
      173    14408             OUTPUT:  An Identifier item is created with the correct triads above it.
      174    14409                      These include BASE's (required by all identifiers), SSOP's and
      175    14410                      OFF's (for arrays), and SIZ's and FISS's (reference modification
      176    14411                      and data item's greater than 256k).
      177    14412
      178    14413        */
      179    14414
      180    14415    2   DCL  QUAL_ID$  PTR ;
      181    14416    2   DCL IDENT$ PTR;
      182    14417
      183    14418    2   DCL  QUALIFIED_ITEM$   PTR ;
             14418            /* Ptr to item containing information on qualified id */
      184    14419    2   DCL ST$ PTR;
      185    14420    2   DCL QUAL_ERROR BOOLEAN;
      186    14421    2   DCL LIDENT$ PTR;
      187    14422
      188    14423
      189    14424    2          QUAL_ERROR = FALSE;
      190    14425
      191    14426    2          IF QUAL_ID$ -> LX_LIST.HEAD$ -> LX_TERMINAL.DNT$ -> DNT.B.REP_COUNTER THEN
      192    14427    3            DO;
      193    14428
      194    14429    3              QUAL_ERROR = TRUE;
      195    14430
      196    14431    3              IF QUAL_ID$ -> LX_LIST.COUNT = 1 THEN
      197    14432    4                DO;
      198    14433    4                  IF QUAL_ID$ -> LX_LIST.HEAD$ -> LX_TERMINAL.DNT$ ->
      199    14434    4                                 DNT.TEXT.NAME = 'LINE-COUNTER' THEN
PL6.E3A0      #002=Z8ET$PROCESS_DEFERED_ID File=Z8ET.:Z8A6TSI                    SAT 08/09/97 12:42 Page:24
      200    14435    4                    ST$ = O1COM.CURRENT_REPORT_LTS$ -> REPORT_LTS.LINE_COUNTER$;
      201    14436    4                  ELSE
      202    14437    4                    ST$ = O1COM.CURRENT_REPORT_LTS$ -> REPORT_LTS.PAGE_COUNTER$;
      203    14438
      204    14439    4                  GOTO NEXT_STEP;
      205    14440    4                END;
      206    14441    3            END;
      207    14442
      208    14443
      209    14444    2          CALL Z8CO$QUALIFY_VARIABLE(QUAL_ID$, ST$)
      210    14445    2              WHENALTRETURN
      211    14446    3                DO;
      212    14447    3                  QUAL_ERROR = TRUE;
      213    14448    3                END;
      214    14449
      215    14450    2        NEXT_STEP:
      216    14451
      217    14452               %ADD_XREF (SYM = ST$,
      218    14453                          ISN = "QUAL_ID$ -> LX_LIST.HEAD$ -> LX_TERMINAL.LINE",
      219    14454                          TYPE = %XREF_UNK);
      220    14472
      221    14473    2         LIDENT$ = IDENT$;
      222    14474
      223    14475               %INIT_LX_ETT_ITEM (@POINTER = LIDENT$,
      224    14476                                  @TYPE = %TYG,
      225    14477                                  @LINE = "QUAL_ID$ -> LX_LIST.HEAD$ -> LX_TERMINAL.LINE",
      226    14478                                  @COLUMN =
             14478                                      "QUAL_ID$ -> LX_LIST.HEAD$ -> LX_TERMINAL.COLUMN");
      227    14500    2          LIDENT$ -> LX_ETT_ITEM.B.ERROR = QUAL_ERROR;
      228    14501
      229    14502    3          DO SELECT(ST$ -> ST.ID);
      230    14503
      231    14504    3            SELECT(%SCALAR, %ARRAY);
      232    14505
      233    14506                   /* The type is valid */
      234    14507    3              LIDENT$ -> LX_ETT_ITEM.TYPE = ST$ -> SCALAR.TYPE;
      235    14508
PL6.E3A0      #002=Z8ET$PROCESS_DEFERED_ID File=Z8ET.:Z8A6TSI                    SAT 08/09/97 12:42 Page:25
      236    14509    3            SELECT(ELSE);
      237    14510
      238    14511    3              CALL Z8AE$ERROR (%E$ERROR_DATA_NAME,
      239    14512    3                        QUAL_ID$ -> LX_LIST.HEAD$ -> LX_TERMINAL.LINE,
      240    14513    3                        QUAL_ID$ -> LX_LIST.HEAD$ -> LX_TERMINAL.COLUMN);
      241    14514
      242    14515                   %FISH (TRIAD = COMCOM.VALUE_0,
      243    14516                          RTN = ST$);
      244    14524
      245    14525
      246    14526    3          END;
      247    14527
      248    14528    2          CALL Z8AF$NEW_BASE ( ST$,
      249    14529    2                               ADDR(NIL),
      250    14530    2                               LIDENT$ -> LX_ETT_ITEM.ETT$);
      251    14531
      252    14532    2   END CREATE_IDENTIFIER ;
      253    14533        %EJECT;
PL6.E3A0      #002=Z8ET$PROCESS_DEFERED_ID File=Z8ET.:Z8A6TSI                    SAT 08/09/97 12:42 Page:26
      254    14534        /*-------------------*/
      255    14535    1     VERIFY_NOT_AN_ARRAY : PROC (IDENT$);
      256    14536        /*-------------------*/
      257    14537
      258    14538        /*I*
      259    14539                 NAME: VERIFY_NOT_AN_ARRAY
      260    14540
      261    14541          DESCRIPTION: Checks to make sure that the identifier is not an array.
      262    14542                       If it is an array, an error message is printed saying that
      263    14543                       a subscript is expected.
      264    14544        */
      265    14545
      266    14546    2     DCL DIMS$ PTR;
      267    14547
      268    14548    2     DCL IDENT$ PTR;
      269    14549
      270    14550    2     DCL IDENT_ST$ PTR;
      271    14551
      272    14552        %FISH (TRIAD = IDENT$ -> LX_ETT_ITEM.ETT$,
      273    14553               RTN   = IDENT_ST$);
      274    14561
      275    14562    2   IF IDENT_ST$ -> ST.ID = %ARRAY THEN
      276    14563    3     DO;
      277    14564            %GET_LTS (@ID = %DIMS, @ST$ = IDENT_ST$, @RETURN$ = DIMS$);
      278    14607    3       IF DIMS$ -> DIMS.N = 8 /* One dimension */
      279    14608    4       AND DIMS$ -> DIMS.D.DIM (1) = 1 THEN DO;
      280    14609    4         IF COMCOM.OB.FIPS.LEVEL > 0 THEN
      281    14610                %CONDITIONAL_ERROR (@LX_ITEM$ = IDENT$,
      282    14611                                    @ERROR# = %E$SUBSCRIPT_EXPECTED_ANSI,
      283    14612                                    @LINE = IDENT$ -> LX_ETT_ITEM.LINE,
      284    14613                                    @COLUMN = IDENT$ -> LX_ETT_ITEM.COLUMN);
      285    14643    4       END;
      286    14644    3       ELSE
      287    14645              %CONDITIONAL_ERROR (@LX_ITEM$ = IDENT$,
      288    14646                                  @ERROR# = %E$SUBSCRIPT_EXPECTED,
      289    14647                                  @LINE = IDENT$ -> LX_ETT_ITEM.LINE,
      290    14648                                  @COLUMN = IDENT$ -> LX_ETT_ITEM.COLUMN);
PL6.E3A0      #002=Z8ET$PROCESS_DEFERED_ID File=Z8ET.:Z8A6TSI                    SAT 08/09/97 12:42 Page:27
      291    14678    3     END;
      292    14679
      293    14680    2   END VERIFY_NOT_AN_ARRAY;
      294    14681        %EJECT ;
PL6.E3A0      #002=Z8ET$PROCESS_DEFERED_ID File=Z8ET.:Z8A6TSI                    SAT 08/09/97 12:42 Page:28
      295    14682
      296    14683         /*     Main  Program     */
      297    14684
      298    14685    1      ID$$ = DEFERED_ID$;
      299    14686
      300    14687    2      DO CASE (ID$$ -> DEFERED_ID_TREE.ACTION_NO#);
      301    14688    2        CASE (%REP_ACT_ID);
      302    14689
      303    14690    2          CALL CREATE_IDENTIFIER (ID$$ -> DEFERED_ID_TREE.QUAL_ID$,
      304    14691    2                                  ADDR(TEMP_LX_NODE));
      305    14692    2          CALL VERIFY_NOT_AN_ARRAY (ADDR(TEMP_LX_NODE));
      306    14693    2          CALL Z8ED$DISPOSE_ABSSYN_TREE(DEFERED_ID$);
      307    14694               %NEW_COPY_LX_ITEM (@FROM$   = "ADDR(TEMP_LX_NODE)",
      308    14695                                  @TO$     = DEFERED_ID$);
      309    14707
      310    14708    2        CASE (%REP_ACT_ID_REF);
      311    14709
      312    14710    2          CALL CREATE_IDENTIFIER (ID$$ -> DEFERED_ID_TREE.QUAL_ID$,
      313    14711    2                                  ADDR(TEMP_LX_NODE));
      314    14712    2          CALL Z8EY$SUBSTR( ADDR( TEMP_LX_NODE ),
      315    14713    2                            ID$$ -> DEFERED_ID_TREE.REF$ -> LX_LIST.HEAD$,
      316    14714    2                            ID$$ -> DEFERED_ID_TREE.REF$ -> LX_LIST.HEAD$ -> LX_ITEM.
             14714                                     LINK,
      317    14715    2                            ADDR( TEMP_LX_NODE ));
      318    14716    2          CALL VERIFY_NOT_AN_ARRAY (ADDR(TEMP_LX_NODE));
      319    14717    2          CALL Z8ED$DISPOSE_ABSSYN_TREE (DEFERED_ID$);
      320    14718               %NEW_COPY_LX_ITEM (@FROM$  = "ADDR(TEMP_LX_NODE)",
      321    14719                                  @TO$    = DEFERED_ID$);
      322    14731
      323    14732    2        CASE (%REP_ACT_ID_SUB);
      324    14733
      325    14734    2          CALL CREATE_IDENTIFIER (ID$$ -> DEFERED_ID_TREE.QUAL_ID$,
      326    14735    2                                  ADDR(TEMP_LX_NODE));
      327    14736    2          CALL Z8EY$SUBSCRIPT (ID$$ -> DEFERED_ID_TREE.SUB$,
      328    14737    2                               ADDR(TEMP_LX_NODE));
      329    14738    2          CALL Z8ED$DISPOSE_ABSSYN_TREE(DEFERED_ID$);
      330    14739               %NEW_COPY_LX_ITEM (@FROM$   = "ADDR(TEMP_LX_NODE)",
PL6.E3A0      #002=Z8ET$PROCESS_DEFERED_ID File=Z8ET.:Z8A6TSI                    SAT 08/09/97 12:42 Page:29
      331    14740                                  @TO$     = DEFERED_ID$);
      332    14752
      333    14753    2        CASE (%REP_ACT_ID_SUB_REF);
      334    14754
      335    14755    2          CALL CREATE_IDENTIFIER (ID$$ -> DEFERED_ID_TREE.QUAL_ID$,
      336    14756    2                                  ADDR(TEMP_LX_NODE));
      337    14757    2          CALL Z8EY$SUBSCRIPT (ID$$ -> DEFERED_ID_TREE.SUB$,
      338    14758    2                               ADDR(TEMP_LX_NODE));
      339    14759    2          CALL Z8EY$SUBSTR (ADDR(TEMP_LX_NODE),
      340    14760    2                            ID$$ -> DEFERED_ID_TREE.REF$ -> LX_LIST.HEAD$,
      341    14761    2                            ID$$ -> DEFERED_ID_TREE.REF$ -> LX_LIST.HEAD$ -> LX_ITEM.
             14761                                     LINK,
      342    14762    2                            ADDR(TEMP_LX_NODE));
      343    14763    2          CALL Z8ED$DISPOSE_ABSSYN_TREE (DEFERED_ID$);
      344    14764               %NEW_COPY_LX_ITEM (@FROM$  = "ADDR(TEMP_LX_NODE)",
      345    14765                                  @TO$    = DEFERED_ID$);
      346    14777
      347    14778    2        CASE (ELSE);
      348    14779
      349    14780    2          CALL Z8AE$ERROR (%E$UNEXPECTED_CASE);
      350    14781
      351    14782    2      END;  /* case */
      352    14783
      353    14784    1    END Z8ET$PROCESS_DEFERED_ID;
      354    14785
      355    14786        %EOD;

PL6.E3A0      #002=Z8ET$PROCESS_DEFERED_ID File=Z8ET.:Z8A6TSI                    SAT 08/09/97 12:42 Page:30
--  Include file information  --

   Z8A_TYPES.:Z8A6TOU  is referenced.
   Z8E_NEW_ILL.:Z8A6TOU  is referenced.
   Z8E_MACROS.:Z8A6TOU  cannot be made into a system file and is referenced.
   Z8E_HEAP.:Z8A6TOU  cannot be made into a system file and is referenced.
   Z8E_ABSSYN.:Z8A6TOU  cannot be made into a system file and is referenced.
   Z8A_XREF.:Z8A6TOU  cannot be made into a system file and is referenced.
   Z8A_ETT.:Z8A6TOU  cannot be made into a system file and is referenced.
   Z8A_ST.:Z8A6TOU  cannot be made into a system file and is referenced.
   Z8A_LTS.:Z8A6TOU  cannot be made into a system file and is referenced.
   Z8A_DNT.:Z8A6TOU  cannot be made into a system file and is referenced.
   Z8A_ERR_NUMS.:Z8A6TOU  is referenced.
   Z8E_O1COM.:Z8A6TOU  cannot be made into a system file and is referenced.
   Z8A_LEX_SYMB.:Z8A6TOU  cannot be made into a system file and is referenced.
   Z8E_STACKS.:Z8A6TOU  cannot be made into a system file and is referenced.
   Z8A_COMCOM.:Z8A6TOU  cannot be made into a system file and is referenced.
   X8A_COM_MACS.:X8A6TOU  is referenced.
   Z8A_NAMES.:Z8A6TOU  is referenced.
   Z8A_SUPP_MAC.:Z8A6TOU  is referenced.
   Z8A_DEFC.:Z8A6TOU  cannot be made into a system file and is referenced.
      No diagnostics issued in procedure Z8ET$PROCESS_DEFERED_ID.

   Procedure Z8ET$PROCESS_DEFERED_ID requires 451 words for executable code.
   Procedure Z8ET$PROCESS_DEFERED_ID requires 26 words of local(AUTO) storage.

PL6.E3A0      #002=Z8ET$PROCESS_DEFERED_ID File=Z8ET.:Z8A6TSI                    SAT 08/09/97 12:42 Page:31

 Object Unit name= Z8ET$PROCESS_DEFERED_ID                    File name= Z8ET.:Z8A6TOU
 UTS= AUG 09 '97 12:42:27.36 SAT                              Compiler= PL-6/E31         Sev=      00
 SharedLib= :SHARED_SYSTEM                                    Alt SharedLib=


    ****  Control sections  ****

 Sect   Type Bound  Init  Size OctSiz  Section name(segment info)
    0  LblCom even  none     1      1  ITERATION
    1  LblCom even  none    90    132  LEX_SYMBOL
    2  LblCom even  none     1      1  CURRENT_LEX_SYMBOL$
    3  LblCom even  none    90    132  TEMP_LEX_SYMBOL
    4  LblCom even  none    90    132  TEMP_LEX_SYMBOL2
    5  LblCom even  none     1      1  DNT$
    6  LblCom even  none     5      5  DNT_
    7  LblCom even  none     1      1  DNT_BUCKET_NUMBER
    8  LblCom even  none     1      1  DNT_OF_1$
    9  LblCom even  none     1      1  LTS$
   10  LblCom even  none     5      5  LTS_
   11  LblCom even  none     1      1  ST$
   12  LblCom even  none     5      5  ST_
   13  LblCom even  none     1      1  ETT$
   14  LblCom even  none     1      1  HEAD_ETT$
   15  LblCom even  none   512   1000  ETT_BUCKETS
   16  LblCom even  none     5      5  ETT_
   17  LblCom even  none     1      1  XREF$
   18  LblCom even  none     5      5  XREF_
   19  LblCom even  none     8     10  TEMP_LX_NODE
   20  LblCom even  none     1      1  HEAP$
   21  RoData even  UTS      3      3  Z8ET$PROCESS_DEFERED_ID
   22   Proc  even  none   451    703  Z8ET$PROCESS_DEFERED_ID
   23  RoData even  none    17     21  Z8ET$PROCESS_DEFERED_ID
PL6.E3A0      #002=Z8ET$PROCESS_DEFERED_ID File=Z8ET.:Z8A6TSI                    SAT 08/09/97 12:42 Page:32

    ****  Entry defs  ****

                              Check   Calling
                             calling  sequence
  Sect OctLoc Primary Altret sequence   type   Parms  Name
    22      0   yes            yes      Std        1  Z8ET$PROCESS_DEFERED_ID

  ****  Entry refs  ****

         Check        Calling
        calling       sequence
Altret sequence SRef   type   Args  Name
         yes           Std       2 Z8ED$NEW_HEAP
         yes           Std      12 Z8AE$ERROR
         yes           Std       1 Z8ED$DISPOSE_ABSSYN_TREE
         yes           Std       4 Z8EY$SUBSTR
         yes           Std       2 Z8EY$SUBSCRIPT
 yes     yes           Std       2 Z8CO$QUALIFY_VARIABLE
         yes           Std       1 Z8AR$RESERVER
         yes           Std       3 Z8AF$NEW_BASE
                       nStd      0 X66_AUTO_1
                       nStd      0 X66_ARET

  ****  Data refs  ****

  Flags:  r = read only, s = secondary
Flgs Name                             Flgs Name                             Flgs Name
     COMCOM                                O1COM                                 HIER_STK_PTR
     HIER_STK                              PAGE_FORMAT                           REP_STK_PTR
     REP_STK                          r    LTS_STEP

  ****  Segment refs  ****

  Flags:  r = read only, s = secondary
Flgs Name                             Flgs Name                             Flgs Name
     ISSID                                 NULLSID
PL6.E3A0      #002=Z8ET$PROCESS_DEFERED_ID File=Z8ET.:Z8A6TSI                    SAT 08/09/97 12:42 Page:33


      101        1        /*T***********************************************************/
      102        2        /*T*                                                         */
      103        3        /*T* Copyright (c) Bull HN Information Systems Inc., 1997    */
      104        4        /*T*                                                         */
      105        5        /*T***********************************************************/
      106        6
      107        7        /*M*  Z8ET$PROCESS_DEFERED_ID---Create ETT tree for the identifier*/
      108        8
      109        9
      110       10        /*P*
      111       11               NAME:  Z8ET$PROCESS_DEFERED_ID
      112       12             AUTHOR:  Min Lee.
      113       13            PURPOSE:  Creates the ETT tree for the identifier syntax tree.
      114       14
      115       15        */
      116       16
      117       17        /*D*
      118       18               NAME:  Z8ET$PROCESS_DEFERED_ID
      119       19               CALL:  CALL Z8ET$PROCESS_DEFERED_ID (DEFERED_ID).
      120       20              INPUT:  Abstract Syntax Tree for the deferred identifier.
      121       21
      122       22             OUTPUT:  The ETT tree of the deferred identifier.
      123       23
      124       24        DESCRIPTION:  The action no# for that defered id tree is checked and
      125       25                      an identifier item is created with the correct triads
      126       26                      above it. Z8EY$SUBSCRIPT will be called to process the
      127       27                      subscripts and the Z8EY$SUBSTR will be called to process
      128       28                      the reference modifications.
      129       29                      This routine is called by Z8ET$PROCESS_TREE only.
      130       30         */
      131       31         %EJECT;
PL6.E3A0      #002=Z8ET$PROCESS_DEFERED_ID File=Z8ET.:Z8A6TSI                    SAT 08/09/97 12:42 Page:34
      132       32          Z8ET$PROCESS_DEFERED_ID:  PROC (DEFERED_ID$);

     32 22 000000   000000 700200 xent  Z8ET$PROCES* TSX0  ! X66_AUTO_1
        22 000001   000032 000001                    ZERO    26,1
        22 000002   000370 710000 22                 TRA     s:14685

      133       33
      134       34
      135       35            %EQU PHASE =1;
      136       36            %INCLUDE Z8A_DEFC;
      137      104            %INCLUDE Z8A_SUPP_MAC;
      138     2504            %INCLUDE Z8A_COMCOM;
      139     3154            %INCLUDE Z8E_STACKS;
      140     5420            %INCLUDE Z8E_O1COM;
      141     6181            %INCLUDE Z8A_ERR_NUMS;
      142     6945            %INCLUDE Z8A_DNT;
      143     7166            %INCLUDE Z8A_LTS;
      144     9243            %INCLUDE Z8A_ST;
      145    12902            %INCLUDE Z8A_ETT;
      146    13203            %INCLUDE Z8A_XREF;
      147    13275            %INCLUDE Z8E_ABSSYN;
      148    13481            %INCLUDE Z8E_HEAP;
      149    13537            %INCLUDE Z8E_MACROS;
      150    14212            %INCLUDE Z8A_TYPES;
      151    14386
      152    14387
      153    14388
      154    14389    1       DCL DEFERED_ID$        PTR;
      155    14390    1       DCL ID$$               PTR;
      156    14391    1       DCL Z8AE$ERROR         ENTRY (12);
      157    14392    1       DCL Z8ED$DISPOSE_ABSSYN_TREE  ENTRY (1);
      158    14393    1       DCL Z8EY$SUBSCRIPT     ENTRY (2);
      159    14394    1       DCL Z8EY$SUBSTR        ENTRY (4);
      160    14395    1       DCL Z8AF$NEW_BASE      ENTRY (3);
      161    14396    1       DCL Z8CO$QUALIFY_VARIABLE   ENTRY (2) ALTRET;
      162    14397    1       DCL Z8AC$LX_ETT_ITEM_TYI_CONST ENTRY(2);
      163    14398         %EJECT;
PL6.E3A0      #002=Z8ET$PROCESS_DEFERED_ID File=Z8ET.:Z8A6TSI                    SAT 08/09/97 12:42 Page:35
      164    14399        /*-----------------*/
      165    14400    1     CREATE_IDENTIFIER: PROC (QUAL_ID$, IDENT$) ;

  14400 22 000003   200006 741300       CREATE_IDEN* STX1  ! ID$$+2,,AUTO

      166    14401        /*-----------------*/
      167    14402
      168    14403        /*I*
      169    14404               NAME:  CREATE_IDENTIFIER
      170    14405               CALL:  CALL CREATE_IDENTIFIER(QUAL_ID$, IDENT$) ;
      171    14406
      172    14407              INPUT:  QUAL_ID$ - Pointer to the the head entry of the qualified identifier.
      173    14408             OUTPUT:  An Identifier item is created with the correct triads above it.
      174    14409                      These include BASE's (required by all identifiers), SSOP's and
      175    14410                      OFF's (for arrays), and SIZ's and FISS's (reference modification
      176    14411                      and data item's greater than 256k).
      177    14412
      178    14413        */
      179    14414
      180    14415    2   DCL  QUAL_ID$  PTR ;
      181    14416    2   DCL IDENT$ PTR;
      182    14417
      183    14418    2   DCL  QUALIFIED_ITEM$   PTR ;
             14418            /* Ptr to item containing information on qualified id */
      184    14419    2   DCL ST$ PTR;
      185    14420    2   DCL QUAL_ERROR BOOLEAN;
      186    14421    2   DCL LIDENT$ PTR;
      187    14422
      188    14423
      189    14424    2          QUAL_ERROR = FALSE;

  14424 22 000004   200013 450100                    STZ     QUAL_ERROR,,AUTO

      190    14425
      191    14426    2          IF QUAL_ID$ -> LX_LIST.HEAD$ -> LX_TERMINAL.DNT$ -> DNT.B.REP_COUNTER THEN

  14426 22 000005   200007 470500                    LDP0    @QUAL_ID$,,AUTO
PL6.E3A0      #002=Z8ET$PROCESS_DEFERED_ID File=Z8ET.:Z8A6TSI                    SAT 08/09/97 12:42 Page:36
        22 000006   000000 471500                    LDP1    0,,PR0
        22 000007   100004 473500                    LDP3    4,,PR1
        22 000010   300002 474500                    LDP4    2,,PR3
        22 000011   400003 236100                    LDQ     3,,PR4
        22 000012   000020 316003                    CANQ    16,DU
        22 000013   000036 600000 22                 TZE     s:14444

      192    14427    3            DO;

      193    14428
      194    14429    3              QUAL_ERROR = TRUE;

  14429 22 000014   400000 236003                    LDQ     -131072,DU
        22 000015   200013 756100                    STQ     QUAL_ERROR,,AUTO

      195    14430
      196    14431    3              IF QUAL_ID$ -> LX_LIST.COUNT = 1 THEN

  14431 22 000016   100002 235100                    LDA     2,,PR1
        22 000017   000001 115007                    CMPA    1,DL
        22 000020   000036 601000 22                 TNZ     s:14444

      197    14432    4                DO;

      198    14433    4                  IF QUAL_ID$ -> LX_LIST.HEAD$ -> LX_TERMINAL.DNT$ ->

  14433 22 000021   400004 220100                    LDX0    4,,PR4
        22 000022   040000 106540                    CMPC    fill='040'O
        22 000023   400004 400010                    ADSC9   4,,PR4                   cn=2,n=*X0
        22 000024   000000 000014 21                 ADSC9   0                        cn=0,n=12
        22 000025   000032 601000 22                 TNZ     s:14437

      199    14434    4                                 DNT.TEXT.NAME = 'LINE-COUNTER' THEN
      200    14435    4                    ST$ = O1COM.CURRENT_REPORT_LTS$ -> REPORT_LTS.LINE_COUNTER$;

  14435 22 000026   000064 475400 xsym               LDP5    O1COM+52
        22 000027   500020 236100                    LDQ     16,,PR5
PL6.E3A0      #002=Z8ET$PROCESS_DEFERED_ID File=Z8ET.:Z8A6TSI                    SAT 08/09/97 12:42 Page:37
        22 000030   200012 756100                    STQ     ST$,,AUTO
        22 000031   000035 710000 22                 TRA     s:14439

      201    14436    4                  ELSE
      202    14437    4                    ST$ = O1COM.CURRENT_REPORT_LTS$ -> REPORT_LTS.PAGE_COUNTER$;

  14437 22 000032   000064 475400 xsym               LDP5    O1COM+52
        22 000033   500017 236100                    LDQ     15,,PR5
        22 000034   200012 756100                    STQ     ST$,,AUTO

      203    14438
      204    14439    4                  GOTO NEXT_STEP;

  14439 22 000035   000051 710000 22                 TRA     NEXT_STEP

      205    14440    4                END;
      206    14441    3            END;
      207    14442
      208    14443
      209    14444    2          CALL Z8CO$QUALIFY_VARIABLE(QUAL_ID$, ST$)

  14444 22 000036   200012 635500                    EPPR5   ST$,,AUTO
        22 000037   200017 455500                    STP5    LIDENT$+3,,AUTO
        22 000040   200007 236100                    LDQ     @QUAL_ID$,,AUTO
        22 000041   200016 756100                    STQ     LIDENT$+2,,AUTO
        22 000042   200016 630500                    EPPR0   LIDENT$+2,,AUTO
        22 000043   000000 631400 23                 EPPR1   0
        22 000044   000000 701000 xent               TSX1    Z8CO$QUALIFY_VARIABLE
        22 000045   000047 702000 22                 TSX2    s:14447
        22 000046   000051 710000 22                 TRA     NEXT_STEP

      210    14445    2              WHENALTRETURN
      211    14446    3                DO;

      212    14447    3                  QUAL_ERROR = TRUE;

  14447 22 000047   400000 236003                    LDQ     -131072,DU
PL6.E3A0      #002=Z8ET$PROCESS_DEFERED_ID File=Z8ET.:Z8A6TSI                    SAT 08/09/97 12:42 Page:38
        22 000050   200013 756100                    STQ     QUAL_ERROR,,AUTO

      213    14448    3                END;

      214    14449
      215    14450    2        NEXT_STEP:
      216    14451
      217    14452               %ADD_XREF (SYM = ST$,
      218    14453                          ISN = "QUAL_ID$ -> LX_LIST.HEAD$ -> LX_TERMINAL.LINE",
      219    14454                          TYPE = %XREF_UNK);

  14455 22 000051                       NEXT_STEP    null
  14456 22 000051   000055 234000 xsym               SZN     COMCOM+45
        22 000052   000112 605000 22                 TPL     s:14473

  14460 22 000053   000002 236000 18                 LDQ     XREF_+2
        22 000054   000002 036007                    ADLQ    2,DL
        22 000055   000003 116000 18                 CMPQ    XREF_+3
        22 000056   000067 602000 22                 TNC     s:14462

  14461 22 000057   000003 236000 23                 LDQ     3
        22 000060   200016 756100                    STQ     LIDENT$+2,,AUTO
        22 000061   200016 630500                    EPPR0   LIDENT$+2,,AUTO
        22 000062   200017 450500                    STP0    LIDENT$+3,,AUTO
        22 000063   200017 630500                    EPPR0   LIDENT$+3,,AUTO
        22 000064   000002 631400 23                 EPPR1   2
        22 000065   000000 701000 xent               TSX1    Z8AR$RESERVER
        22 000066   000000 011000                    NOP     0

  14462 22 000067   000002 236000 18                 LDQ     XREF_+2
        22 000070   000022 736000                    QLS     18
        22 000071   000001 036000 18                 ADLQ    XREF_+1
        22 000072   000000 756000 17                 STQ     XREF$

  14463 22 000073   000002 235000 18                 LDA     XREF_+2
        22 000074   000002 035007                    ADLA    2,DL
        22 000075   000002 755000 18                 STA     XREF_+2
PL6.E3A0      #002=Z8ET$PROCESS_DEFERED_ID File=Z8ET.:Z8A6TSI                    SAT 08/09/97 12:42 Page:39

  14464 22 000076   000010 220003                    LDX0    8,DU
        22 000077   000000 470400 17                 LDP0    XREF$
        22 000100   000000 740100                    STX0    0,,PR0

  14467 22 000101   200007 470500                    LDP0    @QUAL_ID$,,AUTO
        22 000102   000000 471500                    LDP1    0,,PR0
        22 000103   100004 473500                    LDP3    4,,PR1
        22 000104   300005 721100                    LXL1    5,,PR3
        22 000105   000000 474400 17                 LDP4    XREF$
        22 000106   400000 441100                    SXL1    0,,PR4

  14468 22 000107   200012 236100                    LDQ     ST$,,AUTO
        22 000110   000000 471400 17                 LDP1    XREF$
        22 000111   100001 756100                    STQ     1,,PR1

      220    14472
      221    14473    2         LIDENT$ = IDENT$;

  14473 22 000112   200010 470500                    LDP0    @IDENT$,,AUTO
        22 000113   000000 236100                    LDQ     0,,PR0
        22 000114   200014 756100                    STQ     LIDENT$,,AUTO

      222    14474
      223    14475               %INIT_LX_ETT_ITEM (@POINTER = LIDENT$,
      224    14476                                  @TYPE = %TYG,
      225    14477                                  @LINE = "QUAL_ID$ -> LX_LIST.HEAD$ -> LX_TERMINAL.LINE",
      226    14478                                  @COLUMN =
             14478                                      "QUAL_ID$ -> LX_LIST.HEAD$ -> LX_TERMINAL.COLUMN");

  14480 22 000115   000004 220003                    LDX0    4,DU
        22 000116   200014 471500                    LDP1    LIDENT$,,AUTO
        22 000117   100000 740100                    STX0    0,,PR1

  14481 22 000120   000000 221003                    LDX1    0,DU
        22 000121   100000 441100                    SXL1    0,,PR1

PL6.E3A0      #002=Z8ET$PROCESS_DEFERED_ID File=Z8ET.:Z8A6TSI                    SAT 08/09/97 12:42 Page:40
  14482 22 000122   000020 235007                    LDA     16,DL
        22 000123   100004 755100                    STA     4,,PR1

  14483 22 000124   000001 236000 23                 LDQ     1
        22 000125   100007 756100                    STQ     7,,PR1

  14484 22 000126   100001 756100                    STQ     1,,PR1

  14485 22 000127   000001 236000 23                 LDQ     1
        22 000130   100002 756100                    STQ     2,,PR1

  14487 22 000131   200007 473500                    LDP3    @QUAL_ID$,,AUTO
        22 000132   300000 474500                    LDP4    0,,PR3
        22 000133   400004 475500                    LDP5    4,,PR4
        22 000134   500005 235100                    LDA     5,,PR5
        22 000135   100005 755100                    STA     5,,PR1

  14488 22 000136   300000 474500                    LDP4    0,,PR3
        22 000137   400004 475500                    LDP5    4,,PR4
        22 000140   500006 235100                    LDA     6,,PR5
        22 000141   100006 755100                    STA     6,,PR1

      227    14500    2          LIDENT$ -> LX_ETT_ITEM.B.ERROR = QUAL_ERROR;

  14500 22 000142   200013 236100                    LDQ     QUAL_ERROR,,AUTO
        22 000143   000022 772000                    QRL     18
        22 000144   100000 676100                    ERQ     0,,PR1
        22 000145   400000 376007                    ANQ     -131072,DL
        22 000146   100000 656100                    ERSQ    0,,PR1

      228    14501
      229    14502    3          DO SELECT(ST$ -> ST.ID);

  14502 22 000147   200012 474500                    LDP4    ST$,,AUTO
        22 000150   400000 236100                    LDQ     0,,PR4
        22 000151   000022 772000                    QRL     18
        22 000152   000766 116007                    CMPQ    502,DL
PL6.E3A0      #002=Z8ET$PROCESS_DEFERED_ID File=Z8ET.:Z8A6TSI                    SAT 08/09/97 12:42 Page:41
        22 000153   000156 602000 22                 TNC     s:14502+7
        22 000154   000162 600000 22                 TZE     s:14507
        22 000155   000166 710000 22                 TRA     s:14511
        22 000156   400000 222100                    LDX2    0,,PR4
        22 000157   000765 102003                    CMPX2   501,DU
        22 000160   000166 601000 22                 TNZ     s:14511
        22 000161   000162 710000 22                 TRA     s:14507

      230    14503
      231    14504    3            SELECT(%SCALAR, %ARRAY);

      232    14505
      233    14506                   /* The type is valid */
      234    14507    3              LIDENT$ -> LX_ETT_ITEM.TYPE = ST$ -> SCALAR.TYPE;

  14507 22 000162   400002 236100                    LDQ     2,,PR4
        22 000163   000022 772000                    QRL     18
        22 000164   100004 756100                    STQ     4,,PR1
        22 000165   000217 710000 22                 TRA     s:14528

      235    14508
      236    14509    3            SELECT(ELSE);

      237    14510
      238    14511    3              CALL Z8AE$ERROR (%E$ERROR_DATA_NAME,

  14511 22 000166   300000 475500                    LDP5    0,,PR3
        22 000167   500004 476500                    LDP6    4,,PR5
        22 000170   600006 637500                    EPPR7   6,,PR6
        22 000171   200020 457500                    STP7    LIDENT$+4,,AUTO
        22 000172   600005 635500                    EPPR5   5,,PR6
        22 000173   200017 455500                    STP5    LIDENT$+3,,AUTO
        22 000174   000006 236000 23                 LDQ     6
        22 000175   200016 756100                    STQ     LIDENT$+2,,AUTO
        22 000176   200016 630500                    EPPR0   LIDENT$+2,,AUTO
        22 000177   000004 631400 23                 EPPR1   4
        22 000200   000000 701000 xent               TSX1    Z8AE$ERROR
PL6.E3A0      #002=Z8ET$PROCESS_DEFERED_ID File=Z8ET.:Z8A6TSI                    SAT 08/09/97 12:42 Page:42
        22 000201   000000 011000                    NOP     0

      239    14512    3                        QUAL_ID$ -> LX_LIST.HEAD$ -> LX_TERMINAL.LINE,
      240    14513    3                        QUAL_ID$ -> LX_LIST.HEAD$ -> LX_TERMINAL.COLUMN);
      241    14514
      242    14515                   %FISH (TRIAD = COMCOM.VALUE_0,
      243    14516                          RTN = ST$);

  14518 22 000202   000124 236000 xsym               LDQ     COMCOM+84
        22 000203   200012 756100                    STQ     ST$,,AUTO

  14519 22 000204   200012 470500                    LDP0    ST$,,AUTO
        22 000205   000000 220100                    LDX0    0,,PR0
        22 000206   000751 100003                    CMPX0   489,DU
        22 000207   000217 603000 22                 TRC     s:14528

  14520 22 000210   200012 470500                    LDP0    ST$,,AUTO
        22 000211   000001 236100                    LDQ     1,,PR0
        22 000212   200012 756100                    STQ     ST$,,AUTO

  14521 22 000213   200012 470500                    LDP0    ST$,,AUTO
        22 000214   000000 220100                    LDX0    0,,PR0
        22 000215   000751 100003                    CMPX0   489,DU
        22 000216   000210 602000 22                 TNC     s:14520

      244    14524
      245    14525
      246    14526    3          END;

      247    14527
      248    14528    2          CALL Z8AF$NEW_BASE ( ST$,

  14528 22 000217   000001 236000 23                 LDQ     1
        22 000220   200016 756100                    STQ     LIDENT$+2,,AUTO
        22 000221   200014 236100                    LDQ     LIDENT$,,AUTO
        22 000222   000001 036003                    ADLQ    1,DU
        22 000223   200021 756100                    STQ     LIDENT$+5,,AUTO
PL6.E3A0      #002=Z8ET$PROCESS_DEFERED_ID File=Z8ET.:Z8A6TSI                    SAT 08/09/97 12:42 Page:43
        22 000224   200016 630500                    EPPR0   LIDENT$+2,,AUTO
        22 000225   200020 450500                    STP0    LIDENT$+4,,AUTO
        22 000226   200012 631500                    EPPR1   ST$,,AUTO
        22 000227   200017 451500                    STP1    LIDENT$+3,,AUTO
        22 000230   200017 630500                    EPPR0   LIDENT$+3,,AUTO
        22 000231   000004 631400 23                 EPPR1   4
        22 000232   000000 701000 xent               TSX1    Z8AF$NEW_BASE
        22 000233   000000 011000                    NOP     0

      249    14529    2                               ADDR(NIL),
      250    14530    2                               LIDENT$ -> LX_ETT_ITEM.ETT$);
      251    14531
      252    14532    2   END CREATE_IDENTIFIER ;

  14532 22 000234   200006 221300                    LDX1  ! ID$$+2,,AUTO
        22 000235   000001 702211                    TSX2  ! 1,X1

      253    14533        %EJECT;
PL6.E3A0      #002=Z8ET$PROCESS_DEFERED_ID File=Z8ET.:Z8A6TSI                    SAT 08/09/97 12:42 Page:44
      254    14534        /*-------------------*/
      255    14535    1     VERIFY_NOT_AN_ARRAY : PROC (IDENT$);

  14535 22 000236   200006 741300       VERIFY_NOT_* STX1  ! ID$$+2,,AUTO

      256    14536        /*-------------------*/
      257    14537
      258    14538        /*I*
      259    14539                 NAME: VERIFY_NOT_AN_ARRAY
      260    14540
      261    14541          DESCRIPTION: Checks to make sure that the identifier is not an array.
      262    14542                       If it is an array, an error message is printed saying that
      263    14543                       a subscript is expected.
      264    14544        */
      265    14545
      266    14546    2     DCL DIMS$ PTR;
      267    14547
      268    14548    2     DCL IDENT$ PTR;
      269    14549
      270    14550    2     DCL IDENT_ST$ PTR;
      271    14551
      272    14552        %FISH (TRIAD = IDENT$ -> LX_ETT_ITEM.ETT$,
      273    14553               RTN   = IDENT_ST$);

  14555 22 000237   200007 470500                    LDP0    @IDENT$,,AUTO
        22 000240   000000 471500                    LDP1    0,,PR0
        22 000241   100001 236100                    LDQ     1,,PR1
        22 000242   200011 756100                    STQ     IDENT_ST$,,AUTO

  14556 22 000243   200011 473500                    LDP3    IDENT_ST$,,AUTO
        22 000244   300000 220100                    LDX0    0,,PR3
        22 000245   000751 100003                    CMPX0   489,DU
        22 000246   000256 603000 22                 TRC     s:14562

  14557 22 000247   200011 470500                    LDP0    IDENT_ST$,,AUTO
        22 000250   000001 236100                    LDQ     1,,PR0
        22 000251   200011 756100                    STQ     IDENT_ST$,,AUTO
PL6.E3A0      #002=Z8ET$PROCESS_DEFERED_ID File=Z8ET.:Z8A6TSI                    SAT 08/09/97 12:42 Page:45

  14558 22 000252   200011 470500                    LDP0    IDENT_ST$,,AUTO
        22 000253   000000 220100                    LDX0    0,,PR0
        22 000254   000751 100003                    CMPX0   489,DU
        22 000255   000247 602000 22                 TNC     s:14557

      274    14561
      275    14562    2   IF IDENT_ST$ -> ST.ID = %ARRAY THEN

  14562 22 000256   200011 470500                    LDP0    IDENT_ST$,,AUTO
        22 000257   000000 220100                    LDX0    0,,PR0
        22 000260   000765 100003                    CMPX0   501,DU
        22 000261   000366 601000 22                 TNZ     s:14680

      276    14563    3     DO;

      277    14564            %GET_LTS (@ID = %DIMS, @ST$ = IDENT_ST$, @RETURN$ = DIMS$);

  14566 22 000262   000005 236100                    LDQ     5,,PR0
        22 000263   000001 116000 23                 CMPQ    1
        22 000264   000274 600000 22                 TZE     s:14600
        22 000265   000005 471500                    LDP1    5,,PR0
        22 000266   100000 221100                    LDX1    0,,PR1
        22 000267   001105 101003                    CMPX1   581,DU
        22 000270   000274 601000 22                 TNZ     s:14600

  14570 22 000271   100001 236100                    LDQ     1,,PR1
        22 000272   200010 756100                    STQ     DIMS$,,AUTO

  14598 22 000273   000306 710000 22                 TRA     s:14607

  14600 22 000274   000001 116000 23                 CMPQ    1
        22 000275   000304 600000 22                 TZE     s:14604
        22 000276   000005 471500                    LDP1    5,,PR0
        22 000277   100000 221100                    LDX1    0,,PR1
        22 000300   001104 101003                    CMPX1   580,DU
        22 000301   000304 601000 22                 TNZ     s:14604
PL6.E3A0      #002=Z8ET$PROCESS_DEFERED_ID File=Z8ET.:Z8A6TSI                    SAT 08/09/97 12:42 Page:46

  14602 22 000302   200010 756100                    STQ     DIMS$,,AUTO
        22 000303   000306 710000 22                 TRA     s:14607

  14604 22 000304   000001 236000 23                 LDQ     1
        22 000305   200010 756100                    STQ     DIMS$,,AUTO

      278    14607    3       IF DIMS$ -> DIMS.N = 8 /* One dimension */

  14607 22 000306   200010 471500                    LDP1    DIMS$,,AUTO
        22 000307   100000 721100                    LXL1    0,,PR1
        22 000310   000010 101003                    CMPX1   8,DU
        22 000311   000343 601000 22                 TNZ     s:14658
        22 000312   100006 235100                    LDA     6,,PR1
        22 000313   000001 115007                    CMPA    1,DL
        22 000314   000343 601000 22                 TNZ     s:14658

      279    14608    4       AND DIMS$ -> DIMS.D.DIM (1) = 1 THEN DO;

      280    14609    4         IF COMCOM.OB.FIPS.LEVEL > 0 THEN

  14609 22 000315   000036 722000 xsym               LXL2    COMCOM+30
        22 000316   000366 604400 22                 TMOZ    s:14680

      281    14610                %CONDITIONAL_ERROR (@LX_ITEM$ = IDENT$,
      282    14611                                    @ERROR# = %E$SUBSCRIPT_EXPECTED_ANSI,
      283    14612                                    @LINE = IDENT$ -> LX_ETT_ITEM.LINE,
      284    14613                                    @COLUMN = IDENT$ -> LX_ETT_ITEM.COLUMN);

  14623 22 000317   200007 473500                    LDP3    @IDENT$,,AUTO
        22 000320   300000 474500                    LDP4    0,,PR3
        22 000321   400000 236100                    LDQ     0,,PR4
        22 000322   400000 316007                    CANQ    -131072,DL
        22 000323   000366 601000 22                 TNZ     s:14680

  14625 22 000324   400006 635500                    EPPR5   6,,PR4
        22 000325   200020 455500                    STP5    LIDENT$+4,,AUTO
PL6.E3A0      #002=Z8ET$PROCESS_DEFERED_ID File=Z8ET.:Z8A6TSI                    SAT 08/09/97 12:42 Page:47
        22 000326   400005 636500                    EPPR6   5,,PR4
        22 000327   200017 456500                    STP6    LIDENT$+3,,AUTO
        22 000330   000010 236000 23                 LDQ     8
        22 000331   200016 756100                    STQ     LIDENT$+2,,AUTO
        22 000332   200016 630500                    EPPR0   LIDENT$+2,,AUTO
        22 000333   000004 631400 23                 EPPR1   4
        22 000334   000000 701000 xent               TSX1    Z8AE$ERROR
        22 000335   000000 011000                    NOP     0

  14634 22 000336   200007 470500                    LDP0    @IDENT$,,AUTO
        22 000337   000000 471500                    LDP1    0,,PR0
        22 000340   400000 236007                    LDQ     -131072,DL
        22 000341   100000 256100                    ORSQ    0,,PR1

      285    14643    4       END;

  14643 22 000342   000366 710000 22                 TRA     s:14680

      286    14644    3       ELSE
      287    14645              %CONDITIONAL_ERROR (@LX_ITEM$ = IDENT$,
      288    14646                                  @ERROR# = %E$SUBSCRIPT_EXPECTED,
      289    14647                                  @LINE = IDENT$ -> LX_ETT_ITEM.LINE,
      290    14648                                  @COLUMN = IDENT$ -> LX_ETT_ITEM.COLUMN);

  14658 22 000343   200007 473500                    LDP3    @IDENT$,,AUTO
        22 000344   300000 474500                    LDP4    0,,PR3
        22 000345   400000 236100                    LDQ     0,,PR4
        22 000346   400000 316007                    CANQ    -131072,DL
        22 000347   000366 601000 22                 TNZ     s:14680

  14660 22 000350   400006 635500                    EPPR5   6,,PR4
        22 000351   200020 455500                    STP5    LIDENT$+4,,AUTO
        22 000352   400005 636500                    EPPR6   5,,PR4
        22 000353   200017 456500                    STP6    LIDENT$+3,,AUTO
        22 000354   000012 236000 23                 LDQ     10
        22 000355   200016 756100                    STQ     LIDENT$+2,,AUTO
        22 000356   200016 630500                    EPPR0   LIDENT$+2,,AUTO
PL6.E3A0      #002=Z8ET$PROCESS_DEFERED_ID File=Z8ET.:Z8A6TSI                    SAT 08/09/97 12:42 Page:48
        22 000357   000004 631400 23                 EPPR1   4
        22 000360   000000 701000 xent               TSX1    Z8AE$ERROR
        22 000361   000000 011000                    NOP     0

  14669 22 000362   200007 470500                    LDP0    @IDENT$,,AUTO
        22 000363   000000 471500                    LDP1    0,,PR0
        22 000364   400000 236007                    LDQ     -131072,DL
        22 000365   100000 256100                    ORSQ    0,,PR1

      291    14678    3     END;

      292    14679
      293    14680    2   END VERIFY_NOT_AN_ARRAY;

  14680 22 000366   200006 221300                    LDX1  ! ID$$+2,,AUTO
        22 000367   000001 702211                    TSX2  ! 1,X1

      294    14681        %EJECT ;
PL6.E3A0      #002=Z8ET$PROCESS_DEFERED_ID File=Z8ET.:Z8A6TSI                    SAT 08/09/97 12:42 Page:49
      295    14682
      296    14683         /*     Main  Program     */
      297    14684
      298    14685    1      ID$$ = DEFERED_ID$;

  14685 22 000370   200003 470500                    LDP0    @DEFERED_ID$,,AUTO
        22 000371   000000 236100                    LDQ     0,,PR0
        22 000372   200004 756100                    STQ     ID$$,,AUTO

      299    14686
      300    14687    2      DO CASE (ID$$ -> DEFERED_ID_TREE.ACTION_NO#);

  14687 22 000373   200004 471500                    LDP1    ID$$,,AUTO
        22 000374   100004 235100                    LDA     4,,PR1
        22 000375   000004 115007                    CMPA    4,DL
        22 000376   000400 602005 22                 TNC     s:14687+5,AL
        22 000377   000676 710000 22                 TRA     s:14780
        22 000400   000404 710000 22                 TRA     s:14690
        22 000401   000447 710000 22                 TRA     s:14710
        22 000402   000534 710000 22                 TRA     s:14734
        22 000403   000604 710000 22                 TRA     s:14755

      301    14688    2        CASE (%REP_ACT_ID);

      302    14689
      303    14690    2          CALL CREATE_IDENTIFIER (ID$$ -> DEFERED_ID_TREE.QUAL_ID$,

  14690 22 000404   000013 236000 23                 LDQ     11
        22 000405   200024 756100                    STQ     LIDENT$+8,,AUTO
        22 000406   200024 633500                    EPPR3   LIDENT$+8,,AUTO
        22 000407   200010 453500                    STP3    @IDENT$+1,,AUTO
        22 000410   200004 236100                    LDQ     ID$$,,AUTO
        22 000411   000001 036003                    ADLQ    1,DU
        22 000412   200007 756100                    STQ     ID$$+3,,AUTO
        22 000413   000003 701000 22                 TSX1    CREATE_IDENTIFIER
        22 000414   000000 011000                    NOP     0

PL6.E3A0      #002=Z8ET$PROCESS_DEFERED_ID File=Z8ET.:Z8A6TSI                    SAT 08/09/97 12:42 Page:50
      304    14691    2                                  ADDR(TEMP_LX_NODE));
      305    14692    2          CALL VERIFY_NOT_AN_ARRAY (ADDR(TEMP_LX_NODE));

  14692 22 000415   000013 236000 23                 LDQ     11
        22 000416   200025 756100                    STQ     LIDENT$+9,,AUTO
        22 000417   200025 630500                    EPPR0   LIDENT$+9,,AUTO
        22 000420   200007 450500                    STP0    ID$$+3,,AUTO
        22 000421   000236 701000 22                 TSX1    VERIFY_NOT_AN_ARRAY
        22 000422   000000 011000                    NOP     0

      306    14693    2          CALL Z8ED$DISPOSE_ABSSYN_TREE(DEFERED_ID$);

  14693 22 000423   200003 630500                    EPPR0   @DEFERED_ID$,,AUTO
        22 000424   000002 631400 23                 EPPR1   2
        22 000425   000000 701000 xent               TSX1    Z8ED$DISPOSE_ABSSYN_TREE
        22 000426   000000 011000                    NOP     0

      307    14694               %NEW_COPY_LX_ITEM (@FROM$   = "ADDR(TEMP_LX_NODE)",
      308    14695                                  @TO$     = DEFERED_ID$);

  14700 22 000427   000015 236000 23                 LDQ     13
        22 000430   200003 235100                    LDA     @DEFERED_ID$,,AUTO
        22 000431   200016 757100                    STAQ    LIDENT$+2,,AUTO
        22 000432   200016 630500                    EPPR0   LIDENT$+2,,AUTO
        22 000433   000000 631400 23                 EPPR1   0
        22 000434   000000 701000 xent               TSX1    Z8ED$NEW_HEAP
        22 000435   000000 011000                    NOP     0

  14703 22 000436   200003 470500                    LDP0    @DEFERED_ID$,,AUTO
        22 000437   000000 471500                    LDP1    0,,PR0
        22 000440   000100 100400                    MLR     fill='000'O
        22 000441   000000 000040 19                 ADSC9   TEMP_LX_NODE             cn=0,n=32
        22 000442   100000 000040                    ADSC9   0,,PR1                   cn=0,n=32

  14704 22 000443   000000 471500                    LDP1    0,,PR0
        22 000444   000001 236000 23                 LDQ     1
        22 000445   100007 756100                    STQ     7,,PR1
PL6.E3A0      #002=Z8ET$PROCESS_DEFERED_ID File=Z8ET.:Z8A6TSI                    SAT 08/09/97 12:42 Page:51

  14705 22 000446   000702 710000 22                 TRA     s:14784

      309    14707
      310    14708    2        CASE (%REP_ACT_ID_REF);

      311    14709
      312    14710    2          CALL CREATE_IDENTIFIER (ID$$ -> DEFERED_ID_TREE.QUAL_ID$,

  14710 22 000447   000013 236000 23                 LDQ     11
        22 000450   200026 756100                    STQ     LIDENT$+10,,AUTO
        22 000451   200026 633500                    EPPR3   LIDENT$+10,,AUTO
        22 000452   200010 453500                    STP3    @IDENT$+1,,AUTO
        22 000453   200004 236100                    LDQ     ID$$,,AUTO
        22 000454   000001 036003                    ADLQ    1,DU
        22 000455   200007 756100                    STQ     ID$$+3,,AUTO
        22 000456   000003 701000 22                 TSX1    CREATE_IDENTIFIER
        22 000457   000000 011000                    NOP     0

      313    14711    2                                  ADDR(TEMP_LX_NODE));
      314    14712    2          CALL Z8EY$SUBSTR( ADDR( TEMP_LX_NODE ),

  14712 22 000460   200004 470500                    LDP0    ID$$,,AUTO
        22 000461   000003 471500                    LDP1    3,,PR0
        22 000462   100004 473500                    LDP3    4,,PR1
        22 000463   000013 236000 23                 LDQ     11
        22 000464   200016 756100                    STQ     LIDENT$+2,,AUTO
        22 000465   200017 756100                    STQ     LIDENT$+3,,AUTO
        22 000466   200017 634500                    EPPR4   LIDENT$+3,,AUTO
        22 000467   200023 454500                    STP4    LIDENT$+7,,AUTO
        22 000470   300007 635500                    EPPR5   7,,PR3
        22 000471   200022 455500                    STP5    LIDENT$+6,,AUTO
        22 000472   100004 633500                    EPPR3   4,,PR1
        22 000473   200021 453500                    STP3    LIDENT$+5,,AUTO
        22 000474   200016 631500                    EPPR1   LIDENT$+2,,AUTO
        22 000475   200020 451500                    STP1    LIDENT$+4,,AUTO
        22 000476   200020 630500                    EPPR0   LIDENT$+4,,AUTO
PL6.E3A0      #002=Z8ET$PROCESS_DEFERED_ID File=Z8ET.:Z8A6TSI                    SAT 08/09/97 12:42 Page:52
        22 000477   000016 631400 23                 EPPR1   14
        22 000500   000000 701000 xent               TSX1    Z8EY$SUBSTR
        22 000501   000000 011000                    NOP     0

      315    14713    2                            ID$$ -> DEFERED_ID_TREE.REF$ -> LX_LIST.HEAD$,
      316    14714    2                            ID$$ -> DEFERED_ID_TREE.REF$ -> LX_LIST.HEAD$ -> LX_ITEM.
             14714                                     LINK,
      317    14715    2                            ADDR( TEMP_LX_NODE ));
      318    14716    2          CALL VERIFY_NOT_AN_ARRAY (ADDR(TEMP_LX_NODE));

  14716 22 000502   000013 236000 23                 LDQ     11
        22 000503   200027 756100                    STQ     LIDENT$+11,,AUTO
        22 000504   200027 630500                    EPPR0   LIDENT$+11,,AUTO
        22 000505   200007 450500                    STP0    ID$$+3,,AUTO
        22 000506   000236 701000 22                 TSX1    VERIFY_NOT_AN_ARRAY
        22 000507   000000 011000                    NOP     0

      319    14717    2          CALL Z8ED$DISPOSE_ABSSYN_TREE (DEFERED_ID$);

  14717 22 000510   200003 630500                    EPPR0   @DEFERED_ID$,,AUTO
        22 000511   000002 631400 23                 EPPR1   2
        22 000512   000000 701000 xent               TSX1    Z8ED$DISPOSE_ABSSYN_TREE
        22 000513   000000 011000                    NOP     0

      320    14718               %NEW_COPY_LX_ITEM (@FROM$  = "ADDR(TEMP_LX_NODE)",
      321    14719                                  @TO$    = DEFERED_ID$);

  14724 22 000514   000015 236000 23                 LDQ     13
        22 000515   200003 235100                    LDA     @DEFERED_ID$,,AUTO
        22 000516   200016 757100                    STAQ    LIDENT$+2,,AUTO
        22 000517   200016 630500                    EPPR0   LIDENT$+2,,AUTO
        22 000520   000000 631400 23                 EPPR1   0
        22 000521   000000 701000 xent               TSX1    Z8ED$NEW_HEAP
        22 000522   000000 011000                    NOP     0

  14727 22 000523   200003 470500                    LDP0    @DEFERED_ID$,,AUTO
        22 000524   000000 471500                    LDP1    0,,PR0
PL6.E3A0      #002=Z8ET$PROCESS_DEFERED_ID File=Z8ET.:Z8A6TSI                    SAT 08/09/97 12:42 Page:53
        22 000525   000100 100400                    MLR     fill='000'O
        22 000526   000000 000040 19                 ADSC9   TEMP_LX_NODE             cn=0,n=32
        22 000527   100000 000040                    ADSC9   0,,PR1                   cn=0,n=32

  14728 22 000530   000000 471500                    LDP1    0,,PR0
        22 000531   000001 236000 23                 LDQ     1
        22 000532   100007 756100                    STQ     7,,PR1

  14729 22 000533   000702 710000 22                 TRA     s:14784

      322    14731
      323    14732    2        CASE (%REP_ACT_ID_SUB);

      324    14733
      325    14734    2          CALL CREATE_IDENTIFIER (ID$$ -> DEFERED_ID_TREE.QUAL_ID$,

  14734 22 000534   000013 236000 23                 LDQ     11
        22 000535   200030 756100                    STQ     LIDENT$+12,,AUTO
        22 000536   200030 633500                    EPPR3   LIDENT$+12,,AUTO
        22 000537   200010 453500                    STP3    @IDENT$+1,,AUTO
        22 000540   200004 236100                    LDQ     ID$$,,AUTO
        22 000541   000001 036003                    ADLQ    1,DU
        22 000542   200007 756100                    STQ     ID$$+3,,AUTO
        22 000543   000003 701000 22                 TSX1    CREATE_IDENTIFIER
        22 000544   000000 011000                    NOP     0

      326    14735    2                                  ADDR(TEMP_LX_NODE));
      327    14736    2          CALL Z8EY$SUBSCRIPT (ID$$ -> DEFERED_ID_TREE.SUB$,

  14736 22 000545   000013 236000 23                 LDQ     11
        22 000546   200016 756100                    STQ     LIDENT$+2,,AUTO
        22 000547   200016 630500                    EPPR0   LIDENT$+2,,AUTO
        22 000550   200021 450500                    STP0    LIDENT$+5,,AUTO
        22 000551   200004 236100                    LDQ     ID$$,,AUTO
        22 000552   000002 036003                    ADLQ    2,DU
        22 000553   200020 756100                    STQ     LIDENT$+4,,AUTO
        22 000554   200020 630500                    EPPR0   LIDENT$+4,,AUTO
PL6.E3A0      #002=Z8ET$PROCESS_DEFERED_ID File=Z8ET.:Z8A6TSI                    SAT 08/09/97 12:42 Page:54
        22 000555   000000 631400 23                 EPPR1   0
        22 000556   000000 701000 xent               TSX1    Z8EY$SUBSCRIPT
        22 000557   000000 011000                    NOP     0

      328    14737    2                               ADDR(TEMP_LX_NODE));
      329    14738    2          CALL Z8ED$DISPOSE_ABSSYN_TREE(DEFERED_ID$);

  14738 22 000560   200003 630500                    EPPR0   @DEFERED_ID$,,AUTO
        22 000561   000002 631400 23                 EPPR1   2
        22 000562   000000 701000 xent               TSX1    Z8ED$DISPOSE_ABSSYN_TREE
        22 000563   000000 011000                    NOP     0

      330    14739               %NEW_COPY_LX_ITEM (@FROM$   = "ADDR(TEMP_LX_NODE)",
      331    14740                                  @TO$     = DEFERED_ID$);

  14745 22 000564   000015 236000 23                 LDQ     13
        22 000565   200003 235100                    LDA     @DEFERED_ID$,,AUTO
        22 000566   200016 757100                    STAQ    LIDENT$+2,,AUTO
        22 000567   200016 630500                    EPPR0   LIDENT$+2,,AUTO
        22 000570   000000 631400 23                 EPPR1   0
        22 000571   000000 701000 xent               TSX1    Z8ED$NEW_HEAP
        22 000572   000000 011000                    NOP     0

  14748 22 000573   200003 470500                    LDP0    @DEFERED_ID$,,AUTO
        22 000574   000000 471500                    LDP1    0,,PR0
        22 000575   000100 100400                    MLR     fill='000'O
        22 000576   000000 000040 19                 ADSC9   TEMP_LX_NODE             cn=0,n=32
        22 000577   100000 000040                    ADSC9   0,,PR1                   cn=0,n=32

  14749 22 000600   000000 471500                    LDP1    0,,PR0
        22 000601   000001 236000 23                 LDQ     1
        22 000602   100007 756100                    STQ     7,,PR1

  14750 22 000603   000702 710000 22                 TRA     s:14784

      332    14752
      333    14753    2        CASE (%REP_ACT_ID_SUB_REF);
PL6.E3A0      #002=Z8ET$PROCESS_DEFERED_ID File=Z8ET.:Z8A6TSI                    SAT 08/09/97 12:42 Page:55

      334    14754
      335    14755    2          CALL CREATE_IDENTIFIER (ID$$ -> DEFERED_ID_TREE.QUAL_ID$,

  14755 22 000604   000013 236000 23                 LDQ     11
        22 000605   200031 756100                    STQ     LIDENT$+13,,AUTO
        22 000606   200031 633500                    EPPR3   LIDENT$+13,,AUTO
        22 000607   200010 453500                    STP3    @IDENT$+1,,AUTO
        22 000610   200004 236100                    LDQ     ID$$,,AUTO
        22 000611   000001 036003                    ADLQ    1,DU
        22 000612   200007 756100                    STQ     ID$$+3,,AUTO
        22 000613   000003 701000 22                 TSX1    CREATE_IDENTIFIER
        22 000614   000000 011000                    NOP     0

      336    14756    2                                  ADDR(TEMP_LX_NODE));
      337    14757    2          CALL Z8EY$SUBSCRIPT (ID$$ -> DEFERED_ID_TREE.SUB$,

  14757 22 000615   000013 236000 23                 LDQ     11
        22 000616   200016 756100                    STQ     LIDENT$+2,,AUTO
        22 000617   200016 630500                    EPPR0   LIDENT$+2,,AUTO
        22 000620   200021 450500                    STP0    LIDENT$+5,,AUTO
        22 000621   200004 236100                    LDQ     ID$$,,AUTO
        22 000622   000002 036003                    ADLQ    2,DU
        22 000623   200020 756100                    STQ     LIDENT$+4,,AUTO
        22 000624   200020 630500                    EPPR0   LIDENT$+4,,AUTO
        22 000625   000000 631400 23                 EPPR1   0
        22 000626   000000 701000 xent               TSX1    Z8EY$SUBSCRIPT
        22 000627   000000 011000                    NOP     0

      338    14758    2                               ADDR(TEMP_LX_NODE));
      339    14759    2          CALL Z8EY$SUBSTR (ADDR(TEMP_LX_NODE),

  14759 22 000630   200004 470500                    LDP0    ID$$,,AUTO
        22 000631   000003 471500                    LDP1    3,,PR0
        22 000632   100004 473500                    LDP3    4,,PR1
        22 000633   000013 236000 23                 LDQ     11
        22 000634   200016 756100                    STQ     LIDENT$+2,,AUTO
PL6.E3A0      #002=Z8ET$PROCESS_DEFERED_ID File=Z8ET.:Z8A6TSI                    SAT 08/09/97 12:42 Page:56
        22 000635   200017 756100                    STQ     LIDENT$+3,,AUTO
        22 000636   200017 634500                    EPPR4   LIDENT$+3,,AUTO
        22 000637   200023 454500                    STP4    LIDENT$+7,,AUTO
        22 000640   300007 635500                    EPPR5   7,,PR3
        22 000641   200022 455500                    STP5    LIDENT$+6,,AUTO
        22 000642   100004 633500                    EPPR3   4,,PR1
        22 000643   200021 453500                    STP3    LIDENT$+5,,AUTO
        22 000644   200016 631500                    EPPR1   LIDENT$+2,,AUTO
        22 000645   200020 451500                    STP1    LIDENT$+4,,AUTO
        22 000646   200020 630500                    EPPR0   LIDENT$+4,,AUTO
        22 000647   000016 631400 23                 EPPR1   14
        22 000650   000000 701000 xent               TSX1    Z8EY$SUBSTR
        22 000651   000000 011000                    NOP     0

      340    14760    2                            ID$$ -> DEFERED_ID_TREE.REF$ -> LX_LIST.HEAD$,
      341    14761    2                            ID$$ -> DEFERED_ID_TREE.REF$ -> LX_LIST.HEAD$ -> LX_ITEM.
             14761                                     LINK,
      342    14762    2                            ADDR(TEMP_LX_NODE));
      343    14763    2          CALL Z8ED$DISPOSE_ABSSYN_TREE (DEFERED_ID$);

  14763 22 000652   200003 630500                    EPPR0   @DEFERED_ID$,,AUTO
        22 000653   000002 631400 23                 EPPR1   2
        22 000654   000000 701000 xent               TSX1    Z8ED$DISPOSE_ABSSYN_TREE
        22 000655   000000 011000                    NOP     0

      344    14764               %NEW_COPY_LX_ITEM (@FROM$  = "ADDR(TEMP_LX_NODE)",
      345    14765                                  @TO$    = DEFERED_ID$);

  14770 22 000656   000015 236000 23                 LDQ     13
        22 000657   200003 235100                    LDA     @DEFERED_ID$,,AUTO
        22 000660   200016 757100                    STAQ    LIDENT$+2,,AUTO
        22 000661   200016 630500                    EPPR0   LIDENT$+2,,AUTO
        22 000662   000000 631400 23                 EPPR1   0
        22 000663   000000 701000 xent               TSX1    Z8ED$NEW_HEAP
        22 000664   000000 011000                    NOP     0

  14773 22 000665   200003 470500                    LDP0    @DEFERED_ID$,,AUTO
PL6.E3A0      #002=Z8ET$PROCESS_DEFERED_ID File=Z8ET.:Z8A6TSI                    SAT 08/09/97 12:42 Page:57
        22 000666   000000 471500                    LDP1    0,,PR0
        22 000667   000100 100400                    MLR     fill='000'O
        22 000670   000000 000040 19                 ADSC9   TEMP_LX_NODE             cn=0,n=32
        22 000671   100000 000040                    ADSC9   0,,PR1                   cn=0,n=32

  14774 22 000672   000000 471500                    LDP1    0,,PR0
        22 000673   000001 236000 23                 LDQ     1
        22 000674   100007 756100                    STQ     7,,PR1

  14775 22 000675   000702 710000 22                 TRA     s:14784

      346    14777
      347    14778    2        CASE (ELSE);

      348    14779
      349    14780    2          CALL Z8AE$ERROR (%E$UNEXPECTED_CASE);

  14780 22 000676   000020 630400 23                 EPPR0   16
        22 000677   000002 631400 23                 EPPR1   2
        22 000700   000000 701000 xent               TSX1    Z8AE$ERROR
        22 000701   000000 011000                    NOP     0

      350    14781
      351    14782    2      END;  /* case */

      352    14783
      353    14784    1    END Z8ET$PROCESS_DEFERED_ID;

  14784 22 000702   000000 702200 xent               TSX2  ! X66_ARET
      354    14785
      355    14786        %EOD;

PL6.E3A0      #002=Z8ET$PROCESS_DEFERED_ID File=Z8ET.:Z8A6TSI                    SAT 08/09/97 12:42 Page:58
--  Include file information  --

   Z8A_TYPES.:Z8A6TOU  is referenced.
   Z8E_NEW_ILL.:Z8A6TOU  is referenced.
   Z8E_MACROS.:Z8A6TOU  cannot be made into a system file and is referenced.
   Z8E_HEAP.:Z8A6TOU  cannot be made into a system file and is referenced.
   Z8E_ABSSYN.:Z8A6TOU  cannot be made into a system file and is referenced.
   Z8A_XREF.:Z8A6TOU  cannot be made into a system file and is referenced.
   Z8A_ETT.:Z8A6TOU  cannot be made into a system file and is referenced.
   Z8A_ST.:Z8A6TOU  cannot be made into a system file and is referenced.
   Z8A_LTS.:Z8A6TOU  cannot be made into a system file and is referenced.
   Z8A_DNT.:Z8A6TOU  cannot be made into a system file and is referenced.
   Z8A_ERR_NUMS.:Z8A6TOU  is referenced.
   Z8E_O1COM.:Z8A6TOU  cannot be made into a system file and is referenced.
   Z8A_LEX_SYMB.:Z8A6TOU  cannot be made into a system file and is referenced.
   Z8E_STACKS.:Z8A6TOU  cannot be made into a system file and is referenced.
   Z8A_COMCOM.:Z8A6TOU  cannot be made into a system file and is referenced.
   X8A_COM_MACS.:X8A6TOU  is referenced.
   Z8A_NAMES.:Z8A6TOU  is referenced.
   Z8A_SUPP_MAC.:Z8A6TOU  is referenced.
   Z8A_DEFC.:Z8A6TOU  cannot be made into a system file and is referenced.
      No diagnostics issued in procedure Z8ET$PROCESS_DEFERED_ID.
PL6.E3A0      #002=Z8ET$PROCESS_DEFERED_ID File=Z8ET.:Z8A6TSI                    SAT 08/09/97 12:42 Page:59

 **** Variables and constants ****

  ****  Section 000 LblCom ITERATION

  ****  Scalars and arrays  ****
OctLoc.c.b A Datatyp(siz) R M Lvl/name                 OctLoc.c.b A Datatyp(siz) R M Lvl/name

     0-0-0/w SBIN              1 ITERATION

  ****  Section 001 LblCom LEX_SYMBOL

  ****  Scalars and arrays  ****
OctLoc.c.b A Datatyp(siz) R M Lvl/name                 OctLoc.c.b A Datatyp(siz) R M Lvl/name

     0-0-0/w STRC(3240)  r     1 LEX_SYMBOL                 0-0-0/w STRC(3240)        1 LEX_SYMBOL_WORDS

  ****  Section 002 LblCom CURRENT_LEX_SYMBOL$

  ****  Scalars and arrays  ****
OctLoc.c.b A Datatyp(siz) R M Lvl/name                 OctLoc.c.b A Datatyp(siz) R M Lvl/name

     0-0-0/w PTR         r     1 CURRENT_LEX_SYMBOL$

  ****  Section 003 LblCom TEMP_LEX_SYMBOL

  ****  Scalars and arrays  ****
OctLoc.c.b A Datatyp(siz) R M Lvl/name                 OctLoc.c.b A Datatyp(siz) R M Lvl/name

     0-0-0/w STRC(3240)        1 TEMP_LEX_SYMBOL

  ****  Section 004 LblCom TEMP_LEX_SYMBOL2

  ****  Scalars and arrays  ****
OctLoc.c.b A Datatyp(siz) R M Lvl/name                 OctLoc.c.b A Datatyp(siz) R M Lvl/name

     0-0-0/w STRC(3240)        1 TEMP_LEX_SYMBOL2

PL6.E3A0      #002=Z8ET$PROCESS_DEFERED_ID File=Z8ET.:Z8A6TSI                    SAT 08/09/97 12:42 Page:60
  ****  Section 005 LblCom DNT$

  ****  Scalars and arrays  ****
OctLoc.c.b A Datatyp(siz) R M Lvl/name                 OctLoc.c.b A Datatyp(siz) R M Lvl/name

     0-0-0/w PTR         r     1 DNT$

  ****  Section 006 LblCom DNT_

  ****  Scalars and arrays  ****
OctLoc.c.b A Datatyp(siz) R M Lvl/name                 OctLoc.c.b A Datatyp(siz) R M Lvl/name

     0-0-0/w STRC(180)         1 DNT_

  ****  Section 007 LblCom DNT_BUCKET_NUMBER

  ****  Scalars and arrays  ****
OctLoc.c.b A Datatyp(siz) R M Lvl/name                 OctLoc.c.b A Datatyp(siz) R M Lvl/name

     0-0-0/w UBIN              1 DNT_BUCKET_NUMBER

  ****  Section 008 LblCom DNT_OF_1$

  ****  Scalars and arrays  ****
OctLoc.c.b A Datatyp(siz) R M Lvl/name                 OctLoc.c.b A Datatyp(siz) R M Lvl/name

     0-0-0/w PTR               1 DNT_OF_1$

  ****  Section 009 LblCom LTS$

  ****  Scalars and arrays  ****
OctLoc.c.b A Datatyp(siz) R M Lvl/name                 OctLoc.c.b A Datatyp(siz) R M Lvl/name

     0-0-0/w PTR               1 LONG_ITEM$                 0-0-0/w PTR         r     1 LTS$

  ****  Section 010 LblCom LTS_

PL6.E3A0      #002=Z8ET$PROCESS_DEFERED_ID File=Z8ET.:Z8A6TSI                    SAT 08/09/97 12:42 Page:61
  ****  Scalars and arrays  ****
OctLoc.c.b A Datatyp(siz) R M Lvl/name                 OctLoc.c.b A Datatyp(siz) R M Lvl/name

     0-0-0/w STRC(180)         1 LTS_

  ****  Section 011 LblCom ST$

  ****  Scalars and arrays  ****
OctLoc.c.b A Datatyp(siz) R M Lvl/name                 OctLoc.c.b A Datatyp(siz) R M Lvl/name

     0-0-0/w PTR         r     1 ST$

  ****  Section 012 LblCom ST_

  ****  Scalars and arrays  ****
OctLoc.c.b A Datatyp(siz) R M Lvl/name                 OctLoc.c.b A Datatyp(siz) R M Lvl/name

     0-0-0/w STRC(180)         1 ST_

  ****  Section 013 LblCom ETT$

  ****  Scalars and arrays  ****
OctLoc.c.b A Datatyp(siz) R M Lvl/name                 OctLoc.c.b A Datatyp(siz) R M Lvl/name

     0-0-0/w PTR         r     1 ETT$

  ****  Section 014 LblCom HEAD_ETT$

  ****  Scalars and arrays  ****
OctLoc.c.b A Datatyp(siz) R M Lvl/name                 OctLoc.c.b A Datatyp(siz) R M Lvl/name

     0-0-0/w PTR               1 HEAD_ETT$

  ****  Section 015 LblCom ETT_BUCKETS

  ****  Scalars and arrays  ****
OctLoc.c.b A Datatyp(siz) R M Lvl/name                 OctLoc.c.b A Datatyp(siz) R M Lvl/name
PL6.E3A0      #002=Z8ET$PROCESS_DEFERED_ID File=Z8ET.:Z8A6TSI                    SAT 08/09/97 12:42 Page:62

     0-0-0/w PTR               1 ETT_BUCKETS(0:511)

  ****  Section 016 LblCom ETT_

  ****  Scalars and arrays  ****
OctLoc.c.b A Datatyp(siz) R M Lvl/name                 OctLoc.c.b A Datatyp(siz) R M Lvl/name

     0-0-0/w STRC(180)         1 ETT_

  ****  Section 017 LblCom XREF$

  ****  Scalars and arrays  ****
OctLoc.c.b A Datatyp(siz) R M Lvl/name                 OctLoc.c.b A Datatyp(siz) R M Lvl/name

     0-0-0/w PTR         r     1 XREF$

  ****  Section 018 LblCom XREF_

  ****  Scalars and arrays  ****
OctLoc.c.b A Datatyp(siz) R M Lvl/name                 OctLoc.c.b A Datatyp(siz) R M Lvl/name

     0-0-0/w STRC(180)   r     1 XREF_

  ****  Section 019 LblCom TEMP_LX_NODE

  ****  Scalars and arrays  ****
OctLoc.c.b A Datatyp(siz) R M Lvl/name                 OctLoc.c.b A Datatyp(siz) R M Lvl/name

     0-0-0/d STRC(288)   r     1 TEMP_LX_NODE

  ****  Section 020 LblCom HEAP$

  ****  Scalars and arrays  ****
OctLoc.c.b A Datatyp(siz) R M Lvl/name                 OctLoc.c.b A Datatyp(siz) R M Lvl/name

     0-0-0/w PTR               1 HEAP$
PL6.E3A0      #002=Z8ET$PROCESS_DEFERED_ID File=Z8ET.:Z8A6TSI                    SAT 08/09/97 12:42 Page:63

  ****  Auto variables  ****

  ****  Scalars and arrays  ****
OctLoc.c.b A Datatyp(siz) R M Lvl/name                 OctLoc.c.b A Datatyp(siz) R M Lvl/name

     3-0-0/w PTR         r     1 @DEFERED_ID$              10-0-0/w PTR         r     1 @IDENT$
     7-0-0/w PTR         r     1 @IDENT$                    7-0-0/w PTR         r     1 @QUAL_ID$
    *0-0-0/w PTR         r     1 DEFERED_ID$               10-0-0/w PTR         r     1 DIMS$
     4-0-0/w PTR         r     1 ID$$                      *0-0-0/w PTR         r     1 IDENT$
    *0-0-0/w PTR         r     1 IDENT$                    11-0-0/w PTR         r     1 IDENT_ST$
    14-0-0/w PTR         r     1 LIDENT$                   11-0-0/w PTR               1 QUALIFIED_ITEM$
    13-0-0/b BIT         r     1 QUAL_ERROR                *0-0-0/w PTR         r     1 QUAL_ID$
    12-0-0/w PTR         r     1 ST$

  ****  SYMREF variables  ****

  ****  Scalars and arrays  ****
OctLoc.c.b A Datatyp(siz) R M Lvl/name                 OctLoc.c.b A Datatyp(siz) R M Lvl/name

     0-0-0/d STRC(13248) r     1 COMCOM
     0-0-0/w STRC(180)         1 HIER_STK(0:50)
     0-0-0/w SBIN              1 HIER_STK_PTR
     0-0-0/w UBIN              1 LTS_STEP(0:37)
     0-0-0/d STRC(11580) r     1 O1COM                      0-0-0/w STRC(144)         1 PAGE_FORMAT
     0-0-0/w STRC(153)         1 REP_STK(0:50)              0-0-0/w SBIN              1 REP_STK_PTR

  ****  BASED and DCB variables  ****

  ****  Scalars and arrays  ****
OctLoc.c.b A Datatyp(siz) R M Lvl/name                 OctLoc.c.b A Datatyp(siz) R M Lvl/name

     0-0-0/w STRC(288)         1 ADD_STMT                   0-0-0/w STRC(396)         1 ALPHABET
     0-0-0/w STRC(144)         1 ALTER_LTS                  0-0-0/w STRC(3672)        1 ALT_KEY
     0-0-0/w STRC(36864)       1 ARGLIST                    0-0-0/w STRC(396)         1 ARRAY
     0-0-0/w STRC(180)         1 ARRAY_PRESET_LTS           0-0-0/w ASTR(324)   r     1 BASED_LEX_SYMBOL
     0-0-0/w STRC(360)         1 BASED_LEX_SYMBOL_WORDS
PL6.E3A0      #002=Z8ET$PROCESS_DEFERED_ID File=Z8ET.:Z8A6TSI                    SAT 08/09/97 12:42 Page:64
     0-0-0/w STRC(288)         1 BASE_LTS                   0-0-0/w STRC(288)         1 BINARY_OP
     0-0-0/w STRC(396)         1 BLOCK                      0-0-0/w STRC(144)         1 BT
     0-0-0/w STRC(288)         1 CALL_STMT                  0-0-0/w STRC(396)         1 CD
     0-0-0/w STRC(288)         1 CD_LTS                     0-0-0/w CHAR(4096)        1 CHARS
     0-0-0/w STRC(396)         1 CLASS                      0-0-0/w STRC(288)         1 COMPUTE_STMT
     0-0-0/w STRC(396)         1 CONDITION                  0-0-0/w STRC(396)         1 CONST
     0-0-0/w STRC(72)          1 CONT                       0-0-0/w STRC(540)         1 CONTROL_NAME_LTS
     0-0-0/w STRC(1872)        1 COPY_FILE                  0-0-0/w STRC(396)         1 DB
     0-0-0/w STRC(396)         1 DCB_                       0-0-0/w STRC(288)         1 DEFERED_IDENTIFIER
     0-0-0/w STRC(252)   r     1 DEFERED_ID_TREE            0-0-0/w STRC(288)         1 DEFERED_QUAL_ID
     0-0-0/w STRC(288)         1 DEFERED_SUM_CLAUSE
     0-0-0/w STRC(288)         1 DEFERED_SUM_CLAUSE_LIST
     0-0-0/w STRC(288)         1 DELETE_STMT                0-0-0/w STRC(108)         1 DEPENDING_SIZE
     0-0-0/w STRC(5472)  r     1 DIMS                       0-0-0/w STRC(288)         1 DIVIDE_STMT
     0-0-0/w STRC(396)         1 DML_ITEM                   0-0-0/w STRC(216)         1 DML_REC
     0-0-0/w ASTR(180)   r     1 DNT                        0-0-0/w STRC(180)   r     1 ETT
     0-0-0/w STRC(73836)       1 EVALUATE                   0-0-0/w STRC(396)         1 FD
     0-0-0/w STRC(1692)        1 FILE_LTS                   0-0-0/w STRC(288)         1 ILS_LIST
     0-0-0/w STRC(108)         1 INDEXES                    0-0-0/w STRC(360)         1 INIT_LTS
     0-0-0/w STRC(288)         1 INSPECT_1_STMT             0-0-0/w STRC(288)         1 INSPECT_2_STMT
     0-0-0/w STRC(288)         1 INSPECT_4_STMT             0-0-0/w STRC(396)         1 INTDEF
     0-0-0/w STRC(180)         1 IO_RESTORE_CHAIN           0-0-0/w STRC(144)         1 KEY
     0-0-0/w STRC(396)         1 LABEL                      0-0-0/w STRC(288)         1 LA_ITEM
     0-0-0/w STRC(36864)       1 LCNST                      0-0-0/w STRC(72)          1 LONG
     0-0-0/w STRC        r     1 LTS                        0-0-0/w STRC(360)   r     1 LTSS
     0-0-0/w STRC(36936)       1 LTS_PTR_ARRAY              0-0-0/w STRC(504)         1 LX_CD_INPUT
     0-0-0/w STRC(324)         1 LX_CD_I_O                  0-0-0/w STRC(396)         1 LX_CD_OUTPUT
     0-0-0/w STRC(288)   r     1 LX_ETT_ITEM                0-0-0/w STRC(288)   r     1 LX_ITEM
     0-0-0/w STRC(288)         1 LX_LARGE                   0-0-0/w STRC(288)   r     1 LX_LIST
     0-0-0/w STRC(1224)        1 LX_REC_DECL                0-0-0/w STRC(864)         1 LX_REPORT_REC
     0-0-0/w STRC(288)   r     1 LX_TERMINAL                0-0-0/w STRC(396)         1 MNEMONIC
     0-0-0/w STRC(288)         1 MULTIPLY_STMT              0-0-0/w STRC(144)         1 NEL
     0-0-0/w STRC(216)         1 OPEN_LTS                   0-0-0/w STRC(36864)       1 PAGE
     0-0-0/w STRC(396)         1 PARA                       0-0-0/w STRC(144)         1 PRIME
     0-0-0/w STRC(396)         1 PROC_                      0-0-0/w STRC(396)         1 PROC_DEF
     0-0-0/w STRC(900)         1 PROC_SUPP                  0-0-0/w STRC(396)         1 RD
     0-0-0/w STRC(288)         1 READ_STMT                  0-0-0/w STRC(216)         1 REF
PL6.E3A0      #002=Z8ET$PROCESS_DEFERED_ID File=Z8ET.:Z8A6TSI                    SAT 08/09/97 12:42 Page:65
     0-0-0/w STRC(108)         1 RENAMES                    0-0-0/w STRC(720)         1 REPORT_01_LTS
     0-0-0/w STRC(432)         1 REPORT_ELEM_LTS            0-0-0/w STRC(252)         1 REPORT_GRP_LTS
     0-0-0/w STRC(1332)  r     1 REPORT_LTS                 0-0-0/w STRC(288)         1 REWRITE_STMT
     0-0-0/w STRC(144)         1 RVA_LTS                    0-0-0/w STRC(396)   r     1 SCALAR
     0-0-0/w STRC(396)         1 SD                         0-0-0/w STRC(396)         1 SECTION
     0-0-0/w STRC(396)         1 SEGMENT                    0-0-0/w STRC(360)         1 SEGMENT_LTS
     0-0-0/w STRC(396)   r     1 ST                         0-0-0/w STRC(288)         1 START_STMT
     0-0-0/w STRC(252)         1 STRING_STMT                0-0-0/w STRC(288)         1 SUBTRACT_STMT
     0-0-0/w STRC(252)         1 SUM_LTS                    0-0-0/w STRC(396)         1 SWITCH
     0-0-0/w STRC(396)         1 SYMBOLIC_CHAR              0-0-0/w STRC(396)         1 SYMDEF_
     0-0-0/w STRC(396)         1 SYMREF_                    0-0-0/w STRC(396)         1 TEMP
     0-0-0/w STRC(288)         1 UNARY_OP                   0-0-0/w STRC(288)         1 UNSTRING_STMT
     0-0-0/d STRC(612)         1 USE                        0-0-0/w STRC(252)         1 USE_SUPP
     0-0-0/w STRC(396)   r     1 VARIABLE                   0-0-0/w STRC(288)         1 WRITE_STMT
     0-0-0/w STRC(72)    r     1 XREF


   Procedure Z8ET$PROCESS_DEFERED_ID requires 451 words for executable code.
   Procedure Z8ET$PROCESS_DEFERED_ID requires 26 words of local(AUTO) storage.

